VERSION A06

PL6.E3A0      #001=Z9IL$CREATE_HEADING File=Z9IL.:Z8A6TSI                        SAT 08/09/97 13:59 Page:1
        1        1        /*M* Z9IL Annotator system dependent listing routines */
        2        2        /*T***********************************************************/
        3        3        /*T*                                                         */
        4        4        /*T* Copyright (c) Bull HN Information Systems Inc., 1997    */
        5        5        /*T*                                                         */
        6        6        /*T***********************************************************/
        7        7
        8        8        /*P*
        9        9               NAME: Z9IL
       10       10            PURPOSE: Handle the system dependent functions on CP6 for
       11       11                       producing listings.
       12       12        */
       13       13
       14       14
       15       15
       16       16        Z9IL$CREATE_HEADING: PROC;
       17       17
       18       18        /*D*
       19       19               NAME: Z9IL$CREATE_HEADINGS
       20       20        DESCRIPTION: Create the heading line for listings.
       21       21
       22       22        */
       23       23
       24       24               /* Include files */
       25       25        %EQU PHASE = 5;
       26       26        %INCLUDE Z8A_DEFC;
       27       94        %INCLUDE Z8A_SUPP_MAC;
       28     2494        % INCLUDE Z8A_SYS_FILE;
       29     8769        % INCLUDE Z8A_COMCOM;
       30     9419        % INCLUDE Z9I_PREPROC;
       31     9439        % INCLUDE Z8A_DNT;
       32     9660        % INCLUDE B$JIT_C;
       33     9974
       34     9975    1   DCL B$JIT$ PTR SYMREF;
       35     9976
       36     9977        %B$JIT0;
       37    10066        %U$JIT1;
PL6.E3A0      #001=Z9IL$CREATE_HEADING File=Z9IL.:Z8A6TSI                        SAT 08/09/97 13:59 Page:2
       38    10140        %A$JIT6X;
       39    10143
       40    10144    1   DCL Z8IU$BLANK_ZERO ENTRY (1);
       41    10145
       42    10146        %INCLUDE Z9I_HEAD;
       43    10180        % INCLUDE Z8I_LISTING;
       44    10268
       45    10269    1   CALL BINCHAR(LISTING_MAIN_HEADING.JOBN, B$JIT.SYSID);
       46    10270    1   CALL Z8IU$BLANK_ZERO(ADDR(LISTING_MAIN_HEADING.JOBN));
       47    10271
       48    10272    1   LISTING_MAIN_HEADING.DATE = COMCOM.COMPILE.DATE;
       49    10273    1   LISTING_MAIN_HEADING.TIME = COMCOM.COMPILE.TIME;
       50    10274
       51    10275    1   IF COMCOM.OU_EXTERNAL_NAME$ ~= ADDR(NIL) THEN
       52    10276    1     LISTING_MAIN_HEADING.PROGRAM_NAME = COMCOM.OU_EXTERNAL_NAME$ -> DNT.TEXT.NAME;
       53    10277    1   ELSE
       54    10278    1     LISTING_MAIN_HEADING.PROGRAM_NAME = %DEFAULT_PROG_NAME;
       55    10279
       56    10280    1   LISTING_MAIN_HEADING.SOURCE_FILE_NAME = COMCOM.SOURCE_FILE_NAME;
       57    10281
       58    10282    1   IF ADDR(LISTING_SUB_HEADING) = ADDR(NIL)  THEN
       59    10283    2     DO;
       60    10284            %SETUP_SUB_HEADING (L0=DEF_LISTING_SUB_HEADING, L1=BLANK);
       61    10294    2     END;
       62    10295
       63    10296    1   END Z9IL$CREATE_HEADING;
       64    10297        %EOD;

PL6.E3A0      #001=Z9IL$CREATE_HEADING File=Z9IL.:Z8A6TSI                        SAT 08/09/97 13:59 Page:3
--  Include file information  --

   Z8I_LISTING.:Z8A6TOU  cannot be made into a system file and is referenced.
   Z9I_HEAD.:Z8A6TOU  cannot be made into a system file and is referenced.
   B$JIT_C.:LIB_E04  is referenced.
   Z8A_DNT.:Z8A6TOU  cannot be made into a system file and is referenced.
   Z9I_PREPROC.:Z8A6TOU  is referenced.
   Z8A_COMCOM.:Z8A6TOU  cannot be made into a system file and is referenced.
   CP_6_SUBS.:LIB_E04  is referenced.
   CP_6_C.:LIB_E04  is referenced.
   CP_6.:LIB_E04  cannot be made into a system file and is referenced.
   Z9A_FLAGS.:Z8A6TOU  is referenced.
   Z8A_SYS_FILE.:Z8A6TOU  is referenced.
   X8A_COM_MACS.:X8A6TOU  is referenced.
   Z8A_NAMES.:Z8A6TOU  is referenced.
   Z8A_SUPP_MAC.:Z8A6TOU  is referenced.
   Z8A_DEFC.:Z8A6TOU  cannot be made into a system file and is referenced.
      No diagnostics issued in procedure Z9IL$CREATE_HEADING.

   Procedure Z9IL$CREATE_HEADING requires 54 words for executable code.
   Procedure Z9IL$CREATE_HEADING requires 6 words of local(AUTO) storage.

PL6.E3A0      #001=Z9IL$CREATE_HEADING File=Z9IL.:Z8A6TSI                        SAT 08/09/97 13:59 Page:4

 Object Unit name= Z9IL$CREATE_HEADING                        File name= Z9IL.:Z8A6TOU
 UTS= AUG 09 '97 13:59:31.44 SAT                              Compiler= PL-6/E31         Sev=      00
 SharedLib= :SHARED_SYSTEM                                    Alt SharedLib=


    ****  Control sections  ****

 Sect   Type Bound  Init  Size OctSiz  Section name(segment info)
    0  LblCom even  none     1      1  ITERATION
    1   DCB   even  none     0      0  M$UC
    2  LblCom even  none     1      1  DNT$
    3  LblCom even  none     5      5  DNT_
    4  LblCom even  none     1      1  DNT_BUCKET_NUMBER
    5  LblCom even  none     1      1  DNT_OF_1$
    6  LblCom even  none    28     34  LISTING_MAIN_HEADING
    7  LblCom even  none     1      1  SUB_HEADING_ADDR
    8  LblCom even  none     1      1  SUB_HEADING_LEN
    9  LblCom even  none     1      1  SUB_HEADING_ADDR1
   10  LblCom even  none     1      1  SUB_HEADING_LEN1
   11  LblCom even  none     1      1  SUB_HEADING_ADDR2
   12  LblCom even  none     1      1  SUB_HEADING_LEN2
   13  LblCom even  none     1      1  MAX_LINES_PER_PAGE
   14  LblCom even  none     1      1  LISTING_LINES_ON_PAGE
   15  LblCom even  none     1      1  LISTING_PAGE_NUMBER
   16  LblCom even  none    28     34  PLINE
   17  LblCom even  none     1      1  PLINE_LEN
   18  RoData even  UTS      2      2  Z9IL$CREATE_HEADING
   19   Proc  even  none    54     66  Z9IL$CREATE_HEADING
   20  RoData even  none     5      5  Z9IL$CREATE_HEADING

    ****  Entry defs  ****

                              Check   Calling
                             calling  sequence
  Sect OctLoc Primary Altret sequence   type   Parms  Name
    19      0   yes            yes      Std        0  Z9IL$CREATE_HEADING
PL6.E3A0      #001=Z9IL$CREATE_HEADING File=Z9IL.:Z8A6TSI                        SAT 08/09/97 13:59 Page:5

  ****  Entry refs  ****

         Check        Calling
        calling       sequence
Altret sequence SRef   type   Args  Name
         yes           Std       1 Z8IU$BLANK_ZERO
                       nStd      0 X66_AUTO_0
                       nStd      0 X66_ARET

  ****  Data refs  ****

  Flags:  r = read only, s = secondary
Flgs Name                             Flgs Name                             Flgs Name
     M$UC                                  COMCOM                                B$JIT$
r    DEF_LISTING_SUB_HEADING          r    BLANK                            r    PLINE_PTR$

  ****  Segment refs  ****

  Flags:  r = read only, s = secondary
Flgs Name                             Flgs Name                             Flgs Name
     NULLSID                               ISSID
PL6.E3A0      #001=Z9IL$CREATE_HEADING File=Z9IL.:Z8A6TSI                        SAT 08/09/97 13:59 Page:6


        1        1        /*M* Z9IL Annotator system dependent listing routines */
        2        2        /*T***********************************************************/
        3        3        /*T*                                                         */
        4        4        /*T* Copyright (c) Bull HN Information Systems Inc., 1997    */
        5        5        /*T*                                                         */
        6        6        /*T***********************************************************/
        7        7
        8        8        /*P*
        9        9               NAME: Z9IL
       10       10            PURPOSE: Handle the system dependent functions on CP6 for
       11       11                       producing listings.
       12       12        */
       13       13
       14       14
       15       15
       16       16        Z9IL$CREATE_HEADING: PROC;

     16 19 000000   000000 700200 xent  Z9IL$CREATE* TSX0  ! X66_AUTO_0
        19 000001   000006 000000                    ZERO    6,0

       17       17
       18       18        /*D*
       19       19               NAME: Z9IL$CREATE_HEADINGS
       20       20        DESCRIPTION: Create the heading line for listings.
       21       21
       22       22        */
       23       23
       24       24               /* Include files */
       25       25        %EQU PHASE = 5;
       26       26        %INCLUDE Z8A_DEFC;
       27       94        %INCLUDE Z8A_SUPP_MAC;
       28     2494        % INCLUDE Z8A_SYS_FILE;
       29     8769        % INCLUDE Z8A_COMCOM;
       30     9419        % INCLUDE Z9I_PREPROC;
       31     9439        % INCLUDE Z8A_DNT;
       32     9660        % INCLUDE B$JIT_C;
PL6.E3A0      #001=Z9IL$CREATE_HEADING File=Z9IL.:Z8A6TSI                        SAT 08/09/97 13:59 Page:7
       33     9974
       34     9975    1   DCL B$JIT$ PTR SYMREF;
       35     9976
       36     9977        %B$JIT0;
       37    10066        %U$JIT1;
       38    10140        %A$JIT6X;
       39    10143
       40    10144    1   DCL Z8IU$BLANK_ZERO ENTRY (1);
       41    10145
       42    10146        %INCLUDE Z9I_HEAD;
       43    10180        % INCLUDE Z8I_LISTING;
       44    10268
       45    10269    1   CALL BINCHAR(LISTING_MAIN_HEADING.JOBN, B$JIT.SYSID);

  10269 19 000002   000000 470400 xsym               LDP0    B$JIT$
        19 000003   000000 236100                    LDQ     0,,PR0
        19 000004   777777 376007                    ANQ     -1,DL
        19 000005   000000 235003                    LDA     0,DU
        19 000006   200004 757100                    STAQ    4,,AUTO
        19 000007   000000 301500                    BTD
        19 000010   200004 000010                    NDSC9   4,,AUTO                  cn=0,s=lsgnf,sf=0,n=8
        19 000011   000000 030010 6                  NDSC9   LISTING_MAIN_HEADING     cn=0,s=nosgn,sf=0,n=8

       46    10270    1   CALL Z8IU$BLANK_ZERO(ADDR(LISTING_MAIN_HEADING.JOBN));

  10270 19 000012   000001 236000 20                 LDQ     1
        19 000013   200004 756100                    STQ     4,,AUTO
        19 000014   200004 631500                    EPPR1   4,,AUTO
        19 000015   200005 451500                    STP1    5,,AUTO
        19 000016   200005 630500                    EPPR0   5,,AUTO
        19 000017   000000 631400 20                 EPPR1   0
        19 000020   000000 701000 xent               TSX1    Z8IU$BLANK_ZERO
        19 000021   000000 011000                    NOP     0

       47    10271
       48    10272    1   LISTING_MAIN_HEADING.DATE = COMCOM.COMPILE.DATE;

PL6.E3A0      #001=Z9IL$CREATE_HEADING File=Z9IL.:Z8A6TSI                        SAT 08/09/97 13:59 Page:8
  10272 19 000022   040000 100400                    MLR     fill='040'O
        19 000023   000140 000010 xsym               ADSC9   COMCOM+96                cn=0,n=8
        19 000024   000002 200010 6                  ADSC9   LISTING_MAIN_HEADING+2   cn=1,n=8

       49    10273    1   LISTING_MAIN_HEADING.TIME = COMCOM.COMPILE.TIME;

  10273 19 000025   040000 100400                    MLR     fill='040'O
        19 000026   000142 000005 xsym               ADSC9   COMCOM+98                cn=0,n=5
        19 000027   000004 400005 6                  ADSC9   LISTING_MAIN_HEADING+4   cn=2,n=5

       50    10274
       51    10275    1   IF COMCOM.OU_EXTERNAL_NAME$ ~= ADDR(NIL) THEN

  10275 19 000030   000146 236000 xsym               LDQ     COMCOM+102
        19 000031   000002 116000 20                 CMPQ    2
        19 000032   000041 600000 19                 TZE     s:10278

       52    10276    1     LISTING_MAIN_HEADING.PROGRAM_NAME = COMCOM.OU_EXTERNAL_NAME$ -> DNT.TEXT.NAME;

  10276 19 000033   000146 470400 xsym               LDP0    COMCOM+102
        19 000034   000004 220100                    LDX0    4,,PR0
        19 000035   040000 100540                    MLR     fill='040'O
        19 000036   000004 400010                    ADSC9   4,,PR0                   cn=2,n=*X0
        19 000037   000015 200017 6                  ADSC9   LISTING_MAIN_HEADING+13  cn=1,n=15
        19 000040   000044 710000 19                 TRA     s:10280

       53    10277    1   ELSE
       54    10278    1     LISTING_MAIN_HEADING.PROGRAM_NAME = %DEFAULT_PROG_NAME;

  10278 19 000041   040000 100400                    MLR     fill='040'O
        19 000042   000000 000007 18                 ADSC9   0                        cn=0,n=7
        19 000043   000015 200017 6                  ADSC9   LISTING_MAIN_HEADING+13  cn=1,n=15

       55    10279
       56    10280    1   LISTING_MAIN_HEADING.SOURCE_FILE_NAME = COMCOM.SOURCE_FILE_NAME;

  10280 19 000044   040000 100400                    MLR     fill='040'O
PL6.E3A0      #001=Z9IL$CREATE_HEADING File=Z9IL.:Z8A6TSI                        SAT 08/09/97 13:59 Page:9
        19 000045   000454 000033 xsym               ADSC9   COMCOM+300               cn=0,n=27
        19 000046   000021 400033 6                  ADSC9   LISTING_MAIN_HEADING+17  cn=2,n=27

       57    10281
       58    10282    1   IF ADDR(LISTING_SUB_HEADING) = ADDR(NIL)  THEN

  10282 19 000047   000000 236000 7                  LDQ     SUB_HEADING_ADDR
        19 000050   000002 116000 20                 CMPQ    2
        19 000051   000065 601000 19                 TNZ     s:10296

       59    10283    2     DO;

       60    10284            %SETUP_SUB_HEADING (L0=DEF_LISTING_SUB_HEADING, L1=BLANK);

  10286 19 000052   000003 236000 20                 LDQ     3
        19 000053   000000 756000 7                  STQ     SUB_HEADING_ADDR

  10287 19 000054   000041 235007                    LDA     33,DL
        19 000055   000000 755000 8                  STA     SUB_HEADING_LEN

  10288 19 000056   000004 236000 20                 LDQ     4
        19 000057   000000 756000 9                  STQ     SUB_HEADING_ADDR1

  10289 19 000060   000001 235007                    LDA     1,DL
        19 000061   000000 755000 10                 STA     SUB_HEADING_LEN1

  10290 19 000062   000002 236000 20                 LDQ     2
        19 000063   000000 756000 11                 STQ     SUB_HEADING_ADDR2

  10291 19 000064   000000 450000 12                 STZ     SUB_HEADING_LEN2

       61    10294    2     END;

       62    10295
       63    10296    1   END Z9IL$CREATE_HEADING;

  10296 19 000065   000000 702200 xent               TSX2  ! X66_ARET
PL6.E3A0      #001=Z9IL$CREATE_HEADING File=Z9IL.:Z8A6TSI                        SAT 08/09/97 13:59 Page:10
       64    10297        %EOD;

PL6.E3A0      #001=Z9IL$CREATE_HEADING File=Z9IL.:Z8A6TSI                        SAT 08/09/97 13:59 Page:11
--  Include file information  --

   Z8I_LISTING.:Z8A6TOU  cannot be made into a system file and is referenced.
   Z9I_HEAD.:Z8A6TOU  cannot be made into a system file and is referenced.
   B$JIT_C.:LIB_E04  is referenced.
   Z8A_DNT.:Z8A6TOU  cannot be made into a system file and is referenced.
   Z9I_PREPROC.:Z8A6TOU  is referenced.
   Z8A_COMCOM.:Z8A6TOU  cannot be made into a system file and is referenced.
   CP_6_SUBS.:LIB_E04  is referenced.
   CP_6_C.:LIB_E04  is referenced.
   CP_6.:LIB_E04  cannot be made into a system file and is referenced.
   Z9A_FLAGS.:Z8A6TOU  is referenced.
   Z8A_SYS_FILE.:Z8A6TOU  is referenced.
   X8A_COM_MACS.:X8A6TOU  is referenced.
   Z8A_NAMES.:Z8A6TOU  is referenced.
   Z8A_SUPP_MAC.:Z8A6TOU  is referenced.
   Z8A_DEFC.:Z8A6TOU  cannot be made into a system file and is referenced.
      No diagnostics issued in procedure Z9IL$CREATE_HEADING.
PL6.E3A0      #001=Z9IL$CREATE_HEADING File=Z9IL.:Z8A6TSI                        SAT 08/09/97 13:59 Page:12

 **** Variables and constants ****

  ****  Section 000 LblCom ITERATION

  ****  Scalars and arrays  ****
OctLoc.c.b A Datatyp(siz) R M Lvl/name                 OctLoc.c.b A Datatyp(siz) R M Lvl/name

     0-0-0/w SBIN              1 ITERATION

  ****  Section 002 LblCom DNT$

  ****  Scalars and arrays  ****
OctLoc.c.b A Datatyp(siz) R M Lvl/name                 OctLoc.c.b A Datatyp(siz) R M Lvl/name

     0-0-0/w PTR         r     1 DNT$

  ****  Section 003 LblCom DNT_

  ****  Scalars and arrays  ****
OctLoc.c.b A Datatyp(siz) R M Lvl/name                 OctLoc.c.b A Datatyp(siz) R M Lvl/name

     0-0-0/w STRC(180)         1 DNT_

  ****  Section 004 LblCom DNT_BUCKET_NUMBER

  ****  Scalars and arrays  ****
OctLoc.c.b A Datatyp(siz) R M Lvl/name                 OctLoc.c.b A Datatyp(siz) R M Lvl/name

     0-0-0/w UBIN              1 DNT_BUCKET_NUMBER

  ****  Section 005 LblCom DNT_OF_1$

  ****  Scalars and arrays  ****
OctLoc.c.b A Datatyp(siz) R M Lvl/name                 OctLoc.c.b A Datatyp(siz) R M Lvl/name

     0-0-0/w PTR               1 DNT_OF_1$

PL6.E3A0      #001=Z9IL$CREATE_HEADING File=Z9IL.:Z8A6TSI                        SAT 08/09/97 13:59 Page:13
  ****  Section 006 LblCom LISTING_MAIN_HEADING

  ****  Scalars and arrays  ****
OctLoc.c.b A Datatyp(siz) R M Lvl/name                 OctLoc.c.b A Datatyp(siz) R M Lvl/name

     0-0-0/c CHAR(109)         1 LISTING_HEADING            0-0-0/c STRC(981)   r     1 LISTING_MAIN_HEADING

  ****  Section 007 LblCom SUB_HEADING_ADDR

  ****  Scalars and arrays  ****
OctLoc.c.b A Datatyp(siz) R M Lvl/name                 OctLoc.c.b A Datatyp(siz) R M Lvl/name

     0-0-0/w PTR         r     1 SUB_HEADING_ADDR

  ****  Section 008 LblCom SUB_HEADING_LEN

  ****  Scalars and arrays  ****
OctLoc.c.b A Datatyp(siz) R M Lvl/name                 OctLoc.c.b A Datatyp(siz) R M Lvl/name

     0-0-0/w SBIN        r     1 SUB_HEADING_LEN

  ****  Section 009 LblCom SUB_HEADING_ADDR1

  ****  Scalars and arrays  ****
OctLoc.c.b A Datatyp(siz) R M Lvl/name                 OctLoc.c.b A Datatyp(siz) R M Lvl/name

     0-0-0/w PTR         r     1 SUB_HEADING_ADDR1

  ****  Section 010 LblCom SUB_HEADING_LEN1

  ****  Scalars and arrays  ****
OctLoc.c.b A Datatyp(siz) R M Lvl/name                 OctLoc.c.b A Datatyp(siz) R M Lvl/name

     0-0-0/w SBIN        r     1 SUB_HEADING_LEN1

  ****  Section 011 LblCom SUB_HEADING_ADDR2

PL6.E3A0      #001=Z9IL$CREATE_HEADING File=Z9IL.:Z8A6TSI                        SAT 08/09/97 13:59 Page:14
  ****  Scalars and arrays  ****
OctLoc.c.b A Datatyp(siz) R M Lvl/name                 OctLoc.c.b A Datatyp(siz) R M Lvl/name

     0-0-0/w PTR         r     1 SUB_HEADING_ADDR2

  ****  Section 012 LblCom SUB_HEADING_LEN2

  ****  Scalars and arrays  ****
OctLoc.c.b A Datatyp(siz) R M Lvl/name                 OctLoc.c.b A Datatyp(siz) R M Lvl/name

     0-0-0/w SBIN        r     1 SUB_HEADING_LEN2

  ****  Section 013 LblCom MAX_LINES_PER_PAGE

  ****  Scalars and arrays  ****
OctLoc.c.b A Datatyp(siz) R M Lvl/name                 OctLoc.c.b A Datatyp(siz) R M Lvl/name

     0-0-0/w SBIN              1 MAX_LINES_PER_PAGE

  ****  Section 014 LblCom LISTING_LINES_ON_PAGE

  ****  Scalars and arrays  ****
OctLoc.c.b A Datatyp(siz) R M Lvl/name                 OctLoc.c.b A Datatyp(siz) R M Lvl/name

     0-0-0/w SBIN              1 LISTING_LINES_ON_PAGE

  ****  Section 015 LblCom LISTING_PAGE_NUMBER

  ****  Scalars and arrays  ****
OctLoc.c.b A Datatyp(siz) R M Lvl/name                 OctLoc.c.b A Datatyp(siz) R M Lvl/name

     0-0-0/w SBIN              1 LISTING_PAGE_NUMBER

  ****  Section 016 LblCom PLINE

  ****  Scalars and arrays  ****
OctLoc.c.b A Datatyp(siz) R M Lvl/name                 OctLoc.c.b A Datatyp(siz) R M Lvl/name
PL6.E3A0      #001=Z9IL$CREATE_HEADING File=Z9IL.:Z8A6TSI                        SAT 08/09/97 13:59 Page:15

     0-0-0/c CHAR(109)         1 PLINE
     0-0-0/c CHAR              1 PLINE_CHAR(0:108)
     0-0-0/c STRC(981)         1 PLINE_REDEF_FIELDS

  ****  Section 017 LblCom PLINE_LEN

  ****  Scalars and arrays  ****
OctLoc.c.b A Datatyp(siz) R M Lvl/name                 OctLoc.c.b A Datatyp(siz) R M Lvl/name

     0-0-0/w SBIN              1 PLINE_LEN

  ****  SYMREF variables  ****

  ****  Scalars and arrays  ****
OctLoc.c.b A Datatyp(siz) R M Lvl/name                 OctLoc.c.b A Datatyp(siz) R M Lvl/name

     0-0-0/w PTR         r     1 B$JIT$                     0-0-0/c CHAR        r     1 BLANK
     0-0-0/d STRC(13248) r     1 COMCOM
     0-0-0/c STRC(297)   r     1 DEF_LISTING_SUB_HEADING
     0-0-0/w PTR               1 PLINE_PTR$

  ****  BASED and DCB variables  ****

  ****  Scalars and arrays  ****
OctLoc.c.b A Datatyp(siz) R M Lvl/name                 OctLoc.c.b A Datatyp(siz) R M Lvl/name

     0-0-0/d STRC(5760)  r     1 B$JIT                      0-0-0/w CHAR(4096)        1 CHARS
     0-0-0/w STRC(72)          1 CONT                       0-0-0/w ASTR(180)   r     1 DNT
     0-0-0/c ACHR        r     1 LISTING_SUB_HEADING        0-0-0/c ACHR              1 LISTING_SUB_HEADING1
     0-0-0/c ACHR              1 LISTING_SUB_HEADING2       0-0-0N  NULL        r     1 M$UC
     0-0-0/w STRC(36864)       1 PAGE


   Procedure Z9IL$CREATE_HEADING requires 54 words for executable code.
   Procedure Z9IL$CREATE_HEADING requires 6 words of local(AUTO) storage.

PL6.E3A0      #002=Z9IL$OUTPUT_TO_LO File=Z9IL.:Z8A6TSI                          SAT 08/09/97 14:00 Page:16
       65        1        /*T***********************************************************/
       66        2        /*T*                                                         */
       67        3        /*T* Copyright (c) Bull HN Information Systems Inc., 1997    */
       68        4        /*T*                                                         */
       69        5        /*T***********************************************************/
       70        6        Z9IL$OUTPUT_TO_LO: PROC (LINE$, LENGTH) ;
       71        7
       72        8        /*D*
       73        9
       74       10                 NAME: Z9IL$OUTPUT_TO_LO
       75       11          DESCRIPTION: Output a line to the listing file (LO).
       76       12
       77       13        */
       78       14
       79       15
       80       16    1          DCL LINE$ PTR;
       81       17    1          DCL LENGTH SBIN WORD;
       82       18
       83       19        %EQU PHASE = 5;
       84       20        %INCLUDE Z8A_DEFC;
       85       88        %INCLUDE Z8A_SUPP_MAC;
       86     2488        %INCLUDE Z8A_COMCOM;
       87     3138        % INCLUDE Z9I_PREPROC;
       88     3158        % INCLUDE Z8I_LISTING;
       89     3246        % INCLUDE Z8A_SYS_FILE;
       90     9521        % INCLUDE Z9A_SUPP_MAC;
       91     9810
       92     9811        /* EXTERNAL DECLARATION */
       93     9812
       94     9813    1          DCL Z8IL$PRINT_HEADING ENTRY(1);
       95     9814    1          DCL Z8IL$PRINT_HEADING_1 ENTRY(1);         /*#35040*/
       96     9815    1          DCL Z8IL$HANDLE_OVERFLOW_LINE ENTRY(3);
       97     9816    1          DCL Z9IL$INITIALIZE_LO        ENTRY;
       98     9817    1          DCL FIRST_TOP_OF_PAGE         BIT(1) STATIC INIT('1'B);
       99     9818
      100     9819        %DCBPTR;
      101     9843    1   DCL M$LO DCB;
PL6.E3A0      #002=Z9IL$OUTPUT_TO_LO File=Z9IL.:Z8A6TSI                          SAT 08/09/97 14:00 Page:17
      102     9844        %F$DCB;
      103     9901
      104     9902        %FPT_WRITE (FPTN=WRITE_LO, VFC=NO, DCB=%M$LO);
      105     9933        %FPT_WRITE (FPTN=WRITE_LO_PAGE, VFC=YES, DCB=%M$LO, BUF=PAGE_CONTROL, STCLASS=
              9933            CONSTANT);
      106     9964
      107     9965    1   DCL WRITE_BUFFER CHAR(LENGTH) BASED (LINE$);
      108     9966    1   DCL PAGE_CONTROL CHAR(1) CONSTANT INIT('P');
      109     9967         %EJECT;
PL6.E3A0      #002=Z9IL$OUTPUT_TO_LO File=Z9IL.:Z8A6TSI                          SAT 08/09/97 14:00 Page:18
      110     9968
      111     9969    1   IF LENGTH > %MAX_LISTING_LINE_LENGTH THEN
      112     9970    1     CALL Z8IL$HANDLE_OVERFLOW_LINE(LINE$,LENGTH,ENTADDR(Z9IL$OUTPUT_TO_LO));
      113     9971    1   ELSE
      114     9972    2     DO;
      115     9973    2       LISTING_LINES_ON_PAGE = LISTING_LINES_ON_PAGE + 1;
      116     9974    2       IF LISTING_LINES_ON_PAGE > MAX_LINES_PER_PAGE THEN
      117     9975    3         DO;
      118     9976    3           IF FIRST_TOP_OF_PAGE THEN                           /*#24611*/
      119     9977    4             DO;
      120     9978                     /*#35040   If first page
      121     9979                                              determine device
      122     9980                                                  if online listing
      123     9981                                                       print special header
      124     9982                                              set max lines
      125     9983                                              call Z9IL$INITIALIZE_LO to set
      126     9984                                                   up device header
      127     9985                      */
      128     9986    4               FIRST_TOP_OF_PAGE = FALSE;
      129     9987    4               IF Z9A8$M$LO$-> F$DCB.LINES# > 0 THEN
      130     9988    4                 MAX_LINES_PER_PAGE = Z9A8$M$LO$-> F$DCB.LINES# - 3;
      131     9989    4               ELSE
      132     9990    4                 IF Z9A8$M$LO$-> F$DCB.DDEV.IC# THEN
      133     9991    5                   DO;
      134     9992    5                     MAX_LINES_PER_PAGE = 131071;
      135     9993    5                     LISTING_LINES_ON_PAGE = 0;
      136     9994    5                     CALL Z8IL$PRINT_HEADING_1( ENTADDR(Z9IL$OUTPUT_TO_LO ));
      137     9995    5                   END;
      138     9996    4                 ELSE
      139     9997    4                   MAX_LINES_PER_PAGE = 36;
      140     9998    4               CALL Z9IL$INITIALIZE_LO;
      141     9999    4             END;
      142    10000    3           LISTING_LINES_ON_PAGE = 0;
      143    10001    3           CALL Z8IL$PRINT_HEADING(ENTADDR(Z9IL$OUTPUT_TO_LO));
      144    10002    3         END;
      145    10003    2       ELSE
      146    10004    2         IF LISTING_LINES_ON_PAGE = 0
PL6.E3A0      #002=Z9IL$OUTPUT_TO_LO File=Z9IL.:Z8A6TSI                          SAT 08/09/97 14:00 Page:19
      147    10005    2           THEN
      148    10006    2             CALL Z8IL$PRINT_HEADING(ENTADDR(Z9IL$OUTPUT_TO_LO));
      149    10007
      150    10008    2       WRITE_LO.BUF_ = VECTOR(WRITE_BUFFER);
      151    10009    2       CALL M$WRITE (WRITE_LO);
      152    10010    2     END;
      153    10011
      154    10012    1   RETURN;
      155    10013
      156    10014
      157    10015    1   Z9IL$OUTPUT_TO_LO_PAGE: ENTRY (LINE$, LENGTH);
      158    10016
      159    10017
      160    10018    1   CALL M$WRITE( WRITE_LO_PAGE );
      161    10019
      162    10020    1   RETURN;
      163    10021    1   END Z9IL$OUTPUT_TO_LO;
      164    10022        %EOD;

PL6.E3A0      #002=Z9IL$OUTPUT_TO_LO File=Z9IL.:Z8A6TSI                          SAT 08/09/97 14:00 Page:20
--  Include file information  --

   Z9A_SUPP_MAC.:Z8A6TOU  is referenced.
   CP_6_SUBS.:LIB_E04  is referenced.
   CP_6_C.:LIB_E04  is referenced.
   CP_6.:LIB_E04  cannot be made into a system file and is referenced.
   Z9A_FLAGS.:Z8A6TOU  is referenced.
   Z8A_SYS_FILE.:Z8A6TOU  is referenced.
   Z8I_LISTING.:Z8A6TOU  cannot be made into a system file and is referenced.
   Z9I_PREPROC.:Z8A6TOU  is referenced.
   Z8A_COMCOM.:Z8A6TOU  cannot be made into a system file and is referenced.
   X8A_COM_MACS.:X8A6TOU  is referenced.
   Z8A_NAMES.:Z8A6TOU  is referenced.
   Z8A_SUPP_MAC.:Z8A6TOU  is referenced.
   Z8A_DEFC.:Z8A6TOU  cannot be made into a system file and is referenced.
      No diagnostics issued in procedure Z9IL$OUTPUT_TO_LO.

   Procedure Z9IL$OUTPUT_TO_LO requires 94 words for executable code.
   Procedure Z9IL$OUTPUT_TO_LO requires 10 words of local(AUTO) storage.

PL6.E3A0      #002=Z9IL$OUTPUT_TO_LO File=Z9IL.:Z8A6TSI                          SAT 08/09/97 14:00 Page:21

 Object Unit name= Z9IL$OUTPUT_TO_LO                          File name= Z9IL.:Z8A6TOU
 UTS= AUG 09 '97 14:00:41.20 SAT                              Compiler= PL-6/E31         Sev=      00
 SharedLib= :SHARED_SYSTEM                                    Alt SharedLib=


    ****  Control sections  ****

 Sect   Type Bound  Init  Size OctSiz  Section name(segment info)
    0  LblCom even  none     1      1  ITERATION
    1  LblCom even  none     1      1  SUB_HEADING_ADDR
    2  LblCom even  none     1      1  SUB_HEADING_LEN
    3  LblCom even  none     1      1  SUB_HEADING_ADDR1
    4  LblCom even  none     1      1  SUB_HEADING_LEN1
    5  LblCom even  none     1      1  SUB_HEADING_ADDR2
    6  LblCom even  none     1      1  SUB_HEADING_LEN2
    7  LblCom even  none     1      1  MAX_LINES_PER_PAGE
    8  LblCom even  none     1      1  LISTING_LINES_ON_PAGE
    9  LblCom even  none     1      1  LISTING_PAGE_NUMBER
   10  LblCom even  none    28     34  PLINE
   11  LblCom even  none     1      1  PLINE_LEN
   12   DCB   even  none     0      0  M$UC
   13   Data  even  none    14     16  Z9IL$OUTPUT_TO_LO
   14   DCB   even  none     0      0  M$LO
   15  RoData even  UTS     13     15  Z9IL$OUTPUT_TO_LO
   16   Proc  even  none    94    136  Z9IL$OUTPUT_TO_LO
   17  RoData even  none     3      3  Z9IL$OUTPUT_TO_LO

    ****  Entry defs  ****

                              Check   Calling
                             calling  sequence
  Sect OctLoc Primary Altret sequence   type   Parms  Name
    16      0   yes            yes      Std        2  Z9IL$OUTPUT_TO_LO
    16    130                  yes      Std        2  Z9IL$OUTPUT_TO_LO_PAGE
PL6.E3A0      #002=Z9IL$OUTPUT_TO_LO File=Z9IL.:Z8A6TSI                          SAT 08/09/97 14:00 Page:22

  ****  Entry refs  ****

         Check        Calling
        calling       sequence
Altret sequence SRef   type   Args  Name
         yes           Std       3 Z8IL$HANDLE_OVERFLOW_LINE
         yes           Std       1 Z8IL$PRINT_HEADING
         yes           Std       1 Z8IL$PRINT_HEADING_1
         yes           Std       0 Z9IL$INITIALIZE_LO
         yes           Std       2 Z9IL$OUTPUT_TO_LO
                       nStd      0 X66_AUTO_2
                       nStd      0 X66_ARET

  ****  Data refs  ****

  Flags:  r = read only, s = secondary
Flgs Name                             Flgs Name                             Flgs Name
     COMCOM                           r    DEF_LISTING_SUB_HEADING          r    BLANK
r    PLINE_PTR$                            M$UC                                  Z9A8$M$ES$
     Z9A8$M$SI$                            Z9A8$M$UI$                            Z9A8$M$SO$
     Z9A8$M$OU$                            Z9A8$M$LO$                            Z9A8$M$ME$
     Z9A8$M$DO$                            Z9A8$M$OBJFILE$                       Z9A8$M$ES#
     Z9A8$M$SI#                            Z9A8$M$UI#                            Z9A8$M$SO#
     Z9A8$M$OU#                            Z9A8$M$LO#                            Z9A8$M$ME#
     Z9A8$M$DO#                            Z9A8$M$OBJFILE#                       M$LO

  ****  Segment refs  ****

  Flags:  r = read only, s = secondary
Flgs Name                             Flgs Name                             Flgs Name
     ISSID                                 NULLSID
PL6.E3A0      #002=Z9IL$OUTPUT_TO_LO File=Z9IL.:Z8A6TSI                          SAT 08/09/97 14:00 Page:23


       65        1        /*T***********************************************************/
       66        2        /*T*                                                         */
       67        3        /*T* Copyright (c) Bull HN Information Systems Inc., 1997    */
       68        4        /*T*                                                         */
       69        5        /*T***********************************************************/
       70        6        Z9IL$OUTPUT_TO_LO: PROC (LINE$, LENGTH) ;

      6 16 000000   000000 700200 xent  Z9IL$OUTPUT* TSX0  ! X66_AUTO_2
        16 000001   000012 000002                    ZERO    10,2

       71        7
       72        8        /*D*
       73        9
       74       10                 NAME: Z9IL$OUTPUT_TO_LO
       75       11          DESCRIPTION: Output a line to the listing file (LO).
       76       12
       77       13        */
       78       14
       79       15
       80       16    1          DCL LINE$ PTR;
       81       17    1          DCL LENGTH SBIN WORD;
       82       18
       83       19        %EQU PHASE = 5;
       84       20        %INCLUDE Z8A_DEFC;
       85       88        %INCLUDE Z8A_SUPP_MAC;
       86     2488        %INCLUDE Z8A_COMCOM;
       87     3138        % INCLUDE Z9I_PREPROC;
       88     3158        % INCLUDE Z8I_LISTING;
       89     3246        % INCLUDE Z8A_SYS_FILE;
       90     9521        % INCLUDE Z9A_SUPP_MAC;
       91     9810
       92     9811        /* EXTERNAL DECLARATION */
       93     9812
       94     9813    1          DCL Z8IL$PRINT_HEADING ENTRY(1);
       95     9814    1          DCL Z8IL$PRINT_HEADING_1 ENTRY(1);         /*#35040*/
       96     9815    1          DCL Z8IL$HANDLE_OVERFLOW_LINE ENTRY(3);
PL6.E3A0      #002=Z9IL$OUTPUT_TO_LO File=Z9IL.:Z8A6TSI                          SAT 08/09/97 14:00 Page:24
       97     9816    1          DCL Z9IL$INITIALIZE_LO        ENTRY;
       98     9817    1          DCL FIRST_TOP_OF_PAGE         BIT(1) STATIC INIT('1'B);
       99     9818
      100     9819        %DCBPTR;
      101     9843    1   DCL M$LO DCB;
      102     9844        %F$DCB;
      103     9901
      104     9902        %FPT_WRITE (FPTN=WRITE_LO, VFC=NO, DCB=%M$LO);
      105     9933        %FPT_WRITE (FPTN=WRITE_LO_PAGE, VFC=YES, DCB=%M$LO, BUF=PAGE_CONTROL, STCLASS=
              9933            CONSTANT);
      106     9964
      107     9965    1   DCL WRITE_BUFFER CHAR(LENGTH) BASED (LINE$);
      108     9966    1   DCL PAGE_CONTROL CHAR(1) CONSTANT INIT('P');
      109     9967         %EJECT;
PL6.E3A0      #002=Z9IL$OUTPUT_TO_LO File=Z9IL.:Z8A6TSI                          SAT 08/09/97 14:00 Page:25
      110     9968
      111     9969    1   IF LENGTH > %MAX_LISTING_LINE_LENGTH THEN

   9969 16 000002   200004 470500                    LDP0    @LENGTH,,AUTO
        16 000003   000000 235100                    LDA     0,,PR0
        16 000004   000155 115007                    CMPA    109,DL
        16 000005   000023 604400 16                 TMOZ    s:9973

      112     9970    1     CALL Z8IL$HANDLE_OVERFLOW_LINE(LINE$,LENGTH,ENTADDR(Z9IL$OUTPUT_TO_LO));

   9970 16 000006   000000 636000 16                 EAQ     s:6
        16 000007   200006 756100                    STQ     @LENGTH+2,,AUTO
        16 000010   200006 631500                    EPPR1   @LENGTH+2,,AUTO
        16 000011   200011 451500                    STP1    @LENGTH+5,,AUTO
        16 000012   200004 236100                    LDQ     @LENGTH,,AUTO
        16 000013   200010 756100                    STQ     @LENGTH+4,,AUTO
        16 000014   200003 236100                    LDQ     @LINE$,,AUTO
        16 000015   200007 756100                    STQ     @LENGTH+3,,AUTO
        16 000016   200007 630500                    EPPR0   @LENGTH+3,,AUTO
        16 000017   000000 631400 17                 EPPR1   0
        16 000020   000000 701000 xent               TSX1    Z8IL$HANDLE_OVERFLOW_LINE
        16 000021   000000 011000                    NOP     0
        16 000022   000127 710000 16                 TRA     s:10012

      113     9971    1   ELSE
      114     9972    2     DO;

      115     9973    2       LISTING_LINES_ON_PAGE = LISTING_LINES_ON_PAGE + 1;

   9973 16 000023   000000 054000 8                  AOS     LISTING_LINES_ON_PAGE

      116     9974    2       IF LISTING_LINES_ON_PAGE > MAX_LINES_PER_PAGE THEN

   9974 16 000024   000000 236000 8                  LDQ     LISTING_LINES_ON_PAGE
        16 000025   000000 116000 7                  CMPQ    MAX_LINES_PER_PAGE
        16 000026   000100 604400 16                 TMOZ    s:10004

PL6.E3A0      #002=Z9IL$OUTPUT_TO_LO File=Z9IL.:Z8A6TSI                          SAT 08/09/97 14:00 Page:26
      117     9975    3         DO;

      118     9976    3           IF FIRST_TOP_OF_PAGE THEN                           /*#24611*/

   9976 16 000027   000000 234000 13                 SZN     FIRST_TOP_OF_PAGE
        16 000030   000066 605000 16                 TPL     s:10000

      119     9977    4             DO;

      120     9978                     /*#35040   If first page
      121     9979                                              determine device
      122     9980                                                  if online listing
      123     9981                                                       print special header
      124     9982                                              set max lines
      125     9983                                              call Z9IL$INITIALIZE_LO to set
      126     9984                                                   up device header
      127     9985                      */
      128     9986    4               FIRST_TOP_OF_PAGE = FALSE;

   9986 16 000031   000000 450000 13                 STZ     FIRST_TOP_OF_PAGE

      129     9987    4               IF Z9A8$M$LO$-> F$DCB.LINES# > 0 THEN

   9987 16 000032   000000 471400 xsym               LDP1    Z9A8$M$LO$
        16 000033   100044 220100                    LDX0    36,,PR1
        16 000034   000042 600000 16                 TZE     s:9990

      130     9988    4                 MAX_LINES_PER_PAGE = Z9A8$M$LO$-> F$DCB.LINES# - 3;

   9988 16 000035   100044 236100                    LDQ     36,,PR1
        16 000036   000022 772000                    QRL     18
        16 000037   000003 136007                    SBLQ    3,DL
        16 000040   000000 756000 7                  STQ     MAX_LINES_PER_PAGE
        16 000041   000063 710000 16                 TRA     s:9998

      131     9989    4               ELSE
      132     9990    4                 IF Z9A8$M$LO$-> F$DCB.DDEV.IC# THEN
PL6.E3A0      #002=Z9IL$OUTPUT_TO_LO File=Z9IL.:Z8A6TSI                          SAT 08/09/97 14:00 Page:27

   9990 16 000042   100004 236100                    LDQ     4,,PR1
        16 000043   100000 316007                    CANQ    32768,DL
        16 000044   000061 600000 16                 TZE     s:9997

      133     9991    5                   DO;

      134     9992    5                     MAX_LINES_PER_PAGE = 131071;

   9992 16 000045   377777 235007                    LDA     131071,DL
        16 000046   000000 755000 7                  STA     MAX_LINES_PER_PAGE

      135     9993    5                     LISTING_LINES_ON_PAGE = 0;

   9993 16 000047   000000 450000 8                  STZ     LISTING_LINES_ON_PAGE

      136     9994    5                     CALL Z8IL$PRINT_HEADING_1( ENTADDR(Z9IL$OUTPUT_TO_LO ));

   9994 16 000050   000000 636000 16                 EAQ     s:6
        16 000051   200006 756100                    STQ     @LENGTH+2,,AUTO
        16 000052   200006 633500                    EPPR3   @LENGTH+2,,AUTO
        16 000053   200007 453500                    STP3    @LENGTH+3,,AUTO
        16 000054   200007 630500                    EPPR0   @LENGTH+3,,AUTO
        16 000055   000001 631400 17                 EPPR1   1
        16 000056   000000 701000 xent               TSX1    Z8IL$PRINT_HEADING_1
        16 000057   000000 011000                    NOP     0

      137     9995    5                   END;

   9995 16 000060   000063 710000 16                 TRA     s:9998

      138     9996    4                 ELSE
      139     9997    4                   MAX_LINES_PER_PAGE = 36;

   9997 16 000061   000044 235007                    LDA     36,DL
        16 000062   000000 755000 7                  STA     MAX_LINES_PER_PAGE

PL6.E3A0      #002=Z9IL$OUTPUT_TO_LO File=Z9IL.:Z8A6TSI                          SAT 08/09/97 14:00 Page:28
      140     9998    4               CALL Z9IL$INITIALIZE_LO;

   9998 16 000063   000002 631400 17                 EPPR1   2
        16 000064   000000 701000 xent               TSX1    Z9IL$INITIALIZE_LO
        16 000065   000000 011000                    NOP     0

      141     9999    4             END;

      142    10000    3           LISTING_LINES_ON_PAGE = 0;

  10000 16 000066   000000 450000 8                  STZ     LISTING_LINES_ON_PAGE

      143    10001    3           CALL Z8IL$PRINT_HEADING(ENTADDR(Z9IL$OUTPUT_TO_LO));

  10001 16 000067   000000 636000 16                 EAQ     s:6
        16 000070   200006 756100                    STQ     @LENGTH+2,,AUTO
        16 000071   200006 630500                    EPPR0   @LENGTH+2,,AUTO
        16 000072   200007 450500                    STP0    @LENGTH+3,,AUTO
        16 000073   200007 630500                    EPPR0   @LENGTH+3,,AUTO
        16 000074   000001 631400 17                 EPPR1   1
        16 000075   000000 701000 xent               TSX1    Z8IL$PRINT_HEADING
        16 000076   000000 011000                    NOP     0

      144    10002    3         END;

  10002 16 000077   000112 710000 16                 TRA     s:10008

      145    10003    2       ELSE
      146    10004    2         IF LISTING_LINES_ON_PAGE = 0

  10004 16 000100   000000 116003                    CMPQ    0,DU
        16 000101   000112 601000 16                 TNZ     s:10008

      147    10005    2           THEN
      148    10006    2             CALL Z8IL$PRINT_HEADING(ENTADDR(Z9IL$OUTPUT_TO_LO));

  10006 16 000102   000000 636000 16                 EAQ     s:6
PL6.E3A0      #002=Z9IL$OUTPUT_TO_LO File=Z9IL.:Z8A6TSI                          SAT 08/09/97 14:00 Page:29
        16 000103   200006 756100                    STQ     @LENGTH+2,,AUTO
        16 000104   200006 631500                    EPPR1   @LENGTH+2,,AUTO
        16 000105   200007 451500                    STP1    @LENGTH+3,,AUTO
        16 000106   200007 630500                    EPPR0   @LENGTH+3,,AUTO
        16 000107   000001 631400 17                 EPPR1   1
        16 000110   000000 701000 xent               TSX1    Z8IL$PRINT_HEADING
        16 000111   000000 011000                    NOP     0

      149    10007
      150    10008    2       WRITE_LO.BUF_ = VECTOR(WRITE_BUFFER);

  10008 16 000112   200003 470500                    LDP0    @LINE$,,AUTO
        16 000113   000000 471500                    LDP1    0,,PR0
        16 000114   200004 473500                    LDP3    @LENGTH,,AUTO
        16 000115   300000 720100                    LXL0    0,,PR3
        16 000116   000000 635010                    EAA     0,X0
        16 000117   000002 731000                    ARS     2
        16 000120   000140 135007                    SBLA    96,DL
        16 000121   200006 451500                    STP1    @LENGTH+2,,AUTO
        16 000122   200006 236100                    LDQ     @LENGTH+2,,AUTO
        16 000123   000006 757000 13                 STAQ    WRITE_LO+4

      151    10009    2       CALL M$WRITE (WRITE_LO);

  10009 16 000124   000002 630400 13                 EPPR0   WRITE_LO
        16 000125   040001 713400                    CLIMB   write
        16 000126   401400 401760                    pmme    nvectors=4

      152    10010    2     END;

      153    10011
      154    10012    1   RETURN;

  10012 16 000127   000000 702200 xent               TSX2  ! X66_ARET

      155    10013
      156    10014
PL6.E3A0      #002=Z9IL$OUTPUT_TO_LO File=Z9IL.:Z8A6TSI                          SAT 08/09/97 14:00 Page:30
      157    10015    1   Z9IL$OUTPUT_TO_LO_PAGE: ENTRY (LINE$, LENGTH);

  10015 16 000130   000000 700200 xent  Z9IL$OUTPUT* TSX0  ! X66_AUTO_2
        16 000131   000012 000002                    ZERO    10,2

      158    10016
      159    10017
      160    10018    1   CALL M$WRITE( WRITE_LO_PAGE );

  10018 16 000132   000000 630400 15                 EPPR0   WRITE_LO_PAGE
        16 000133   040001 713400                    CLIMB   write
        16 000134   401400 401760                    pmme    nvectors=4

      161    10019
      162    10020    1   RETURN;

  10020 16 000135   000000 702200 xent               TSX2  ! X66_ARET
      163    10021    1   END Z9IL$OUTPUT_TO_LO;
      164    10022        %EOD;

PL6.E3A0      #002=Z9IL$OUTPUT_TO_LO File=Z9IL.:Z8A6TSI                          SAT 08/09/97 14:00 Page:31
--  Include file information  --

   Z9A_SUPP_MAC.:Z8A6TOU  is referenced.
   CP_6_SUBS.:LIB_E04  is referenced.
   CP_6_C.:LIB_E04  is referenced.
   CP_6.:LIB_E04  cannot be made into a system file and is referenced.
   Z9A_FLAGS.:Z8A6TOU  is referenced.
   Z8A_SYS_FILE.:Z8A6TOU  is referenced.
   Z8I_LISTING.:Z8A6TOU  cannot be made into a system file and is referenced.
   Z9I_PREPROC.:Z8A6TOU  is referenced.
   Z8A_COMCOM.:Z8A6TOU  cannot be made into a system file and is referenced.
   X8A_COM_MACS.:X8A6TOU  is referenced.
   Z8A_NAMES.:Z8A6TOU  is referenced.
   Z8A_SUPP_MAC.:Z8A6TOU  is referenced.
   Z8A_DEFC.:Z8A6TOU  cannot be made into a system file and is referenced.
      No diagnostics issued in procedure Z9IL$OUTPUT_TO_LO.
PL6.E3A0      #002=Z9IL$OUTPUT_TO_LO File=Z9IL.:Z8A6TSI                          SAT 08/09/97 14:00 Page:32

 **** Variables and constants ****

  ****  Section 000 LblCom ITERATION

  ****  Scalars and arrays  ****
OctLoc.c.b A Datatyp(siz) R M Lvl/name                 OctLoc.c.b A Datatyp(siz) R M Lvl/name

     0-0-0/w SBIN              1 ITERATION

  ****  Section 001 LblCom SUB_HEADING_ADDR

  ****  Scalars and arrays  ****
OctLoc.c.b A Datatyp(siz) R M Lvl/name                 OctLoc.c.b A Datatyp(siz) R M Lvl/name

     0-0-0/w PTR         r     1 SUB_HEADING_ADDR

  ****  Section 002 LblCom SUB_HEADING_LEN

  ****  Scalars and arrays  ****
OctLoc.c.b A Datatyp(siz) R M Lvl/name                 OctLoc.c.b A Datatyp(siz) R M Lvl/name

     0-0-0/w SBIN        r     1 SUB_HEADING_LEN

  ****  Section 003 LblCom SUB_HEADING_ADDR1

  ****  Scalars and arrays  ****
OctLoc.c.b A Datatyp(siz) R M Lvl/name                 OctLoc.c.b A Datatyp(siz) R M Lvl/name

     0-0-0/w PTR         r     1 SUB_HEADING_ADDR1

  ****  Section 004 LblCom SUB_HEADING_LEN1

  ****  Scalars and arrays  ****
OctLoc.c.b A Datatyp(siz) R M Lvl/name                 OctLoc.c.b A Datatyp(siz) R M Lvl/name

     0-0-0/w SBIN        r     1 SUB_HEADING_LEN1

PL6.E3A0      #002=Z9IL$OUTPUT_TO_LO File=Z9IL.:Z8A6TSI                          SAT 08/09/97 14:00 Page:33
  ****  Section 005 LblCom SUB_HEADING_ADDR2

  ****  Scalars and arrays  ****
OctLoc.c.b A Datatyp(siz) R M Lvl/name                 OctLoc.c.b A Datatyp(siz) R M Lvl/name

     0-0-0/w PTR         r     1 SUB_HEADING_ADDR2

  ****  Section 006 LblCom SUB_HEADING_LEN2

  ****  Scalars and arrays  ****
OctLoc.c.b A Datatyp(siz) R M Lvl/name                 OctLoc.c.b A Datatyp(siz) R M Lvl/name

     0-0-0/w SBIN        r     1 SUB_HEADING_LEN2

  ****  Section 007 LblCom MAX_LINES_PER_PAGE

  ****  Scalars and arrays  ****
OctLoc.c.b A Datatyp(siz) R M Lvl/name                 OctLoc.c.b A Datatyp(siz) R M Lvl/name

     0-0-0/w SBIN        r     1 MAX_LINES_PER_PAGE

  ****  Section 008 LblCom LISTING_LINES_ON_PAGE

  ****  Scalars and arrays  ****
OctLoc.c.b A Datatyp(siz) R M Lvl/name                 OctLoc.c.b A Datatyp(siz) R M Lvl/name

     0-0-0/w SBIN        r     1 LISTING_LINES_ON_PAGE

  ****  Section 009 LblCom LISTING_PAGE_NUMBER

  ****  Scalars and arrays  ****
OctLoc.c.b A Datatyp(siz) R M Lvl/name                 OctLoc.c.b A Datatyp(siz) R M Lvl/name

     0-0-0/w SBIN              1 LISTING_PAGE_NUMBER

  ****  Section 010 LblCom PLINE

PL6.E3A0      #002=Z9IL$OUTPUT_TO_LO File=Z9IL.:Z8A6TSI                          SAT 08/09/97 14:00 Page:34
  ****  Scalars and arrays  ****
OctLoc.c.b A Datatyp(siz) R M Lvl/name                 OctLoc.c.b A Datatyp(siz) R M Lvl/name

     0-0-0/c CHAR(109)         1 PLINE
     0-0-0/c CHAR              1 PLINE_CHAR(0:108)
     0-0-0/c STRC(981)         1 PLINE_REDEF_FIELDS

  ****  Section 011 LblCom PLINE_LEN

  ****  Scalars and arrays  ****
OctLoc.c.b A Datatyp(siz) R M Lvl/name                 OctLoc.c.b A Datatyp(siz) R M Lvl/name

     0-0-0/w SBIN              1 PLINE_LEN

  ****  Section 013  Data  Z9IL$OUTPUT_TO_LO

  ****  Scalars and arrays  ****
OctLoc.c.b A Datatyp(siz) R M Lvl/name                 OctLoc.c.b A Datatyp(siz) R M Lvl/name

     0-0-0/b BIT         r     1 FIRST_TOP_OF_PAGE          2-0-0/d STRC(432)   r     1 WRITE_LO

  ****  Section 015 RoData Z9IL$OUTPUT_TO_LO

  ****  Scalars and arrays  ****
OctLoc.c.b A Datatyp(siz) R M Lvl/name                 OctLoc.c.b A Datatyp(siz) R M Lvl/name

    14-0-0/c CHAR        r     1 PAGE_CONTROL               0-0-0/d STRC(432)   r     1 WRITE_LO_PAGE

  ****  Auto variables  ****

  ****  Scalars and arrays  ****
OctLoc.c.b A Datatyp(siz) R M Lvl/name                 OctLoc.c.b A Datatyp(siz) R M Lvl/name

     4-0-0/w PTR         r     1 @LENGTH                    3-0-0/w PTR         r     1 @LINE$
    *0-0-0/w SBIN        r     1 LENGTH                    *0-0-0/w PTR         r     1 LINE$

  ****  SYMREF variables  ****
PL6.E3A0      #002=Z9IL$OUTPUT_TO_LO File=Z9IL.:Z8A6TSI                          SAT 08/09/97 14:00 Page:35

  ****  Scalars and arrays  ****
OctLoc.c.b A Datatyp(siz) R M Lvl/name                 OctLoc.c.b A Datatyp(siz) R M Lvl/name

     0-0-0/c CHAR              1 BLANK                      0-0-0/d STRC(13248)       1 COMCOM
     0-0-0/c STRC(297)         1 DEF_LISTING_SUB_HEADING
     0-0-0/w PTR               1 PLINE_PTR$                 0-0-0/w UBIN              1 Z9A8$M$DO#
     0-0-0/w PTR               1 Z9A8$M$DO$                 0-0-0/w UBIN              1 Z9A8$M$ES#
     0-0-0/w PTR               1 Z9A8$M$ES$                 0-0-0/w UBIN              1 Z9A8$M$LO#
     0-0-0/w PTR         r     1 Z9A8$M$LO$                 0-0-0/w UBIN              1 Z9A8$M$ME#
     0-0-0/w PTR               1 Z9A8$M$ME$                 0-0-0/w UBIN              1 Z9A8$M$OBJFILE#
     0-0-0/w PTR               1 Z9A8$M$OBJFILE$            0-0-0/w UBIN              1 Z9A8$M$OU#
     0-0-0/w PTR               1 Z9A8$M$OU$                 0-0-0/w UBIN              1 Z9A8$M$SI#
     0-0-0/w PTR               1 Z9A8$M$SI$                 0-0-0/w UBIN              1 Z9A8$M$SO#
     0-0-0/w PTR               1 Z9A8$M$SO$                 0-0-0/w UBIN              1 Z9A8$M$UI#
     0-0-0/w PTR               1 Z9A8$M$UI$

  ****  BASED and DCB variables  ****

  ****  Scalars and arrays  ****
OctLoc.c.b A Datatyp(siz) R M Lvl/name                 OctLoc.c.b A Datatyp(siz) R M Lvl/name

     0-0-0/w CHAR(4096)        1 CHARS                      0-0-0/w STRC(72)          1 CONT
     0-0-0/d ASTR(3528)  r     1 F$DCB                      0-0-0/c ACHR              1 LISTING_SUB_HEADING
     0-0-0/c ACHR              1 LISTING_SUB_HEADING1       0-0-0/c ACHR              1 LISTING_SUB_HEADING2
     0-0-0N  NULL        r     1 M$LO                       0-0-0N  NULL        r     1 M$UC
     0-0-0/w STRC(36864)       1 PAGE                       0-0-0/c ACHR        r     1 WRITE_BUFFER


   Procedure Z9IL$OUTPUT_TO_LO requires 94 words for executable code.
   Procedure Z9IL$OUTPUT_TO_LO requires 10 words of local(AUTO) storage.

PL6.E3A0      #003=Z9IL$OUTPUT_TO_DO File=Z9IL.:Z8A6TSI                          SAT 08/09/97 14:01 Page:36
      165        1        /*T***********************************************************/
      166        2        /*T*                                                         */
      167        3        /*T* Copyright (c) Bull HN Information Systems Inc., 1997    */
      168        4        /*T*                                                         */
      169        5        /*T***********************************************************/
      170        6        Z9IL$OUTPUT_TO_DO: PROC (LINE$, LENGTH, STATS_FLAG );
      171        7
      172        8        /*D*
      173        9
      174       10                  NAME: Z9IL$OUTPUT_TO_DO
      175       11          DESCRIPTION: Output a line to the diagnostic file (DO).
      176       12
      177       13        */
      178       14
      179       15
      180       16    1          DCL LINE$ PTR;
      181       17    1          DCL LENGTH SBIN WORD;
      182       18    1          DCL STATS_FLAG  BIT(1) ALIGNED;
      183       19
      184       20        %EQU PHASE = 5;
      185       21        %INCLUDE Z8A_DEFC;
      186       89        %INCLUDE Z8A_SUPP_MAC;
      187     2489        % INCLUDE Z8A_SYS_FILE;
      188     8764        % INCLUDE Z8A_COMCOM;
      189     9414        % INCLUDE Z9A_SUPP_MAC;
      190     9703        % INCLUDE Z9I_PREPROC;
      191     9723
      192     9724    1   DCL Z8IL$HANDLE_OVERFLOW_LINE ENTRY(3);
      193     9725
      194     9726
      195     9727        %DCBPTR;
      196     9751    1   DCL M$DO DCB;
      197     9752        %F$DCB;
      198     9809
      199     9810        %FPT_WRITE (FPTN=WRITE_DO, VFC=NO, DCB=%M$DO);
      200     9841
      201     9842    1   DCL WRITE_BUFFER CHAR(LENGTH) BASED (LINE$);
PL6.E3A0      #003=Z9IL$OUTPUT_TO_DO File=Z9IL.:Z8A6TSI                          SAT 08/09/97 14:01 Page:37
      202     9843
      203     9844
      204     9845    1   IF ADDR(STATS_FLAG) ~= ADDR(NIL)     THEN
      205     9846    1     IF NOT Z9A8$M$DO$ -> F$DCB.AMR#   THEN
      206     9847    1       RETURN;                                        /*  No !SET M$DO  */
      207     9848
      208     9849    1   IF LENGTH > %MAX_LISTING_LINE_LENGTH THEN
      209     9850    1     CALL Z8IL$HANDLE_OVERFLOW_LINE (LINE$,
      210     9851    1                                    LENGTH,
      211     9852    1                                    ENTADDR(Z9IL$OUTPUT_TO_DO));
      212     9853    1   ELSE
      213     9854    2     DO;
      214     9855    2       WRITE_DO.BUF_ = VECTOR(WRITE_BUFFER);
      215     9856    2       CALL M$WRITE (WRITE_DO);
      216     9857    2     END;
      217     9858
      218     9859
      219     9860    1   END Z9IL$OUTPUT_TO_DO;
      220     9861        %EOD;

PL6.E3A0      #003=Z9IL$OUTPUT_TO_DO File=Z9IL.:Z8A6TSI                          SAT 08/09/97 14:01 Page:38
--  Include file information  --

   Z9I_PREPROC.:Z8A6TOU  is referenced.
   Z9A_SUPP_MAC.:Z8A6TOU  is referenced.
   Z8A_COMCOM.:Z8A6TOU  cannot be made into a system file and is referenced.
   CP_6_SUBS.:LIB_E04  is referenced.
   CP_6_C.:LIB_E04  is referenced.
   CP_6.:LIB_E04  cannot be made into a system file and is referenced.
   Z9A_FLAGS.:Z8A6TOU  is referenced.
   Z8A_SYS_FILE.:Z8A6TOU  is referenced.
   X8A_COM_MACS.:X8A6TOU  is referenced.
   Z8A_NAMES.:Z8A6TOU  is referenced.
   Z8A_SUPP_MAC.:Z8A6TOU  is referenced.
   Z8A_DEFC.:Z8A6TOU  cannot be made into a system file and is referenced.
      No diagnostics issued in procedure Z9IL$OUTPUT_TO_DO.

   Procedure Z9IL$OUTPUT_TO_DO requires 41 words for executable code.
   Procedure Z9IL$OUTPUT_TO_DO requires 10 words of local(AUTO) storage.

PL6.E3A0      #003=Z9IL$OUTPUT_TO_DO File=Z9IL.:Z8A6TSI                          SAT 08/09/97 14:01 Page:39

 Object Unit name= Z9IL$OUTPUT_TO_DO                          File name= Z9IL.:Z8A6TOU
 UTS= AUG 09 '97 14:01:48.56 SAT                              Compiler= PL-6/E31         Sev=      00
 SharedLib= :SHARED_SYSTEM                                    Alt SharedLib=


    ****  Control sections  ****

 Sect   Type Bound  Init  Size OctSiz  Section name(segment info)
    0  LblCom even  none     1      1  ITERATION
    1   DCB   even  none     0      0  M$UC
    2   DCB   even  none     0      0  M$DO
    3   Data  even  none    12     14  Z9IL$OUTPUT_TO_DO
    4   Proc  even  none    41     51  Z9IL$OUTPUT_TO_DO
    5  RoData even  none     2      2  Z9IL$OUTPUT_TO_DO

    ****  Entry defs  ****

                              Check   Calling
                             calling  sequence
  Sect OctLoc Primary Altret sequence   type   Parms  Name
     4      0   yes            yes      Std        3  Z9IL$OUTPUT_TO_DO

  ****  Entry refs  ****

         Check        Calling
        calling       sequence
Altret sequence SRef   type   Args  Name
         yes           Std       3 Z8IL$HANDLE_OVERFLOW_LINE
         yes           Std       3 Z9IL$OUTPUT_TO_DO
                       nStd      0 X66_AUTO_3
                       nStd      0 X66_ARET
PL6.E3A0      #003=Z9IL$OUTPUT_TO_DO File=Z9IL.:Z8A6TSI                          SAT 08/09/97 14:01 Page:40

  ****  Data refs  ****

  Flags:  r = read only, s = secondary
Flgs Name                             Flgs Name                             Flgs Name
     M$UC                                  COMCOM                                Z9A8$M$ES$
     Z9A8$M$SI$                            Z9A8$M$UI$                            Z9A8$M$SO$
     Z9A8$M$OU$                            Z9A8$M$LO$                            Z9A8$M$ME$
     Z9A8$M$DO$                            Z9A8$M$OBJFILE$                       Z9A8$M$ES#
     Z9A8$M$SI#                            Z9A8$M$UI#                            Z9A8$M$SO#
     Z9A8$M$OU#                            Z9A8$M$LO#                            Z9A8$M$ME#
     Z9A8$M$DO#                            Z9A8$M$OBJFILE#                       M$DO

  ****  Segment refs  ****

  Flags:  r = read only, s = secondary
Flgs Name                             Flgs Name                             Flgs Name
     ISSID                                 NULLSID
PL6.E3A0      #003=Z9IL$OUTPUT_TO_DO File=Z9IL.:Z8A6TSI                          SAT 08/09/97 14:01 Page:41


      165        1        /*T***********************************************************/
      166        2        /*T*                                                         */
      167        3        /*T* Copyright (c) Bull HN Information Systems Inc., 1997    */
      168        4        /*T*                                                         */
      169        5        /*T***********************************************************/
      170        6        Z9IL$OUTPUT_TO_DO: PROC (LINE$, LENGTH, STATS_FLAG );

      6  4 000000   000000 700200 xent  Z9IL$OUTPUT* TSX0  ! X66_AUTO_3
         4 000001   000012 000003                    ZERO    10,3

      171        7
      172        8        /*D*
      173        9
      174       10                  NAME: Z9IL$OUTPUT_TO_DO
      175       11          DESCRIPTION: Output a line to the diagnostic file (DO).
      176       12
      177       13        */
      178       14
      179       15
      180       16    1          DCL LINE$ PTR;
      181       17    1          DCL LENGTH SBIN WORD;
      182       18    1          DCL STATS_FLAG  BIT(1) ALIGNED;
      183       19
      184       20        %EQU PHASE = 5;
      185       21        %INCLUDE Z8A_DEFC;
      186       89        %INCLUDE Z8A_SUPP_MAC;
      187     2489        % INCLUDE Z8A_SYS_FILE;
      188     8764        % INCLUDE Z8A_COMCOM;
      189     9414        % INCLUDE Z9A_SUPP_MAC;
      190     9703        % INCLUDE Z9I_PREPROC;
      191     9723
      192     9724    1   DCL Z8IL$HANDLE_OVERFLOW_LINE ENTRY(3);
      193     9725
      194     9726
      195     9727        %DCBPTR;
      196     9751    1   DCL M$DO DCB;
PL6.E3A0      #003=Z9IL$OUTPUT_TO_DO File=Z9IL.:Z8A6TSI                          SAT 08/09/97 14:01 Page:42
      197     9752        %F$DCB;
      198     9809
      199     9810        %FPT_WRITE (FPTN=WRITE_DO, VFC=NO, DCB=%M$DO);
      200     9841
      201     9842    1   DCL WRITE_BUFFER CHAR(LENGTH) BASED (LINE$);
      202     9843
      203     9844
      204     9845    1   IF ADDR(STATS_FLAG) ~= ADDR(NIL)     THEN

   9845  4 000002   200005 236100                    LDQ     @STATS_FLAG,,AUTO
         4 000003   000000 116000 5                  CMPQ    0
         4 000004   000012 600000 4                  TZE     s:9849

      205     9846    1     IF NOT Z9A8$M$DO$ -> F$DCB.AMR#   THEN

   9846  4 000005   000000 470400 xsym               LDP0    Z9A8$M$DO$
         4 000006   000031 236100                    LDQ     25,,PR0
         4 000007   010000 316007                    CANQ    4096,DL
         4 000010   000012 601000 4                  TNZ     s:9849

      206     9847    1       RETURN;                                        /*  No !SET M$DO  */

   9847  4 000011   000000 702200 xent               TSX2  ! X66_ARET

      207     9848
      208     9849    1   IF LENGTH > %MAX_LISTING_LINE_LENGTH THEN

   9849  4 000012   200004 470500                    LDP0    @LENGTH,,AUTO
         4 000013   000000 235100                    LDA     0,,PR0
         4 000014   000155 115007                    CMPA    109,DL
         4 000015   000033 604400 4                  TMOZ    s:9855

      209     9850    1     CALL Z8IL$HANDLE_OVERFLOW_LINE (LINE$,

   9850  4 000016   000000 636000 4                  EAQ     s:6
         4 000017   200006 756100                    STQ     @STATS_FLAG+1,,AUTO
         4 000020   200006 631500                    EPPR1   @STATS_FLAG+1,,AUTO
PL6.E3A0      #003=Z9IL$OUTPUT_TO_DO File=Z9IL.:Z8A6TSI                          SAT 08/09/97 14:01 Page:43
         4 000021   200011 451500                    STP1    @STATS_FLAG+4,,AUTO
         4 000022   200004 236100                    LDQ     @LENGTH,,AUTO
         4 000023   200010 756100                    STQ     @STATS_FLAG+3,,AUTO
         4 000024   200003 236100                    LDQ     @LINE$,,AUTO
         4 000025   200007 756100                    STQ     @STATS_FLAG+2,,AUTO
         4 000026   200007 630500                    EPPR0   @STATS_FLAG+2,,AUTO
         4 000027   000001 631400 5                  EPPR1   1
         4 000030   000000 701000 xent               TSX1    Z8IL$HANDLE_OVERFLOW_LINE
         4 000031   000000 011000                    NOP     0
         4 000032   000050 710000 4                  TRA     s:9860

      210     9851    1                                    LENGTH,
      211     9852    1                                    ENTADDR(Z9IL$OUTPUT_TO_DO));
      212     9853    1   ELSE
      213     9854    2     DO;

      214     9855    2       WRITE_DO.BUF_ = VECTOR(WRITE_BUFFER);

   9855  4 000033   200003 471500                    LDP1    @LINE$,,AUTO
         4 000034   100000 473500                    LDP3    0,,PR1
         4 000035   000000 720100                    LXL0    0,,PR0
         4 000036   000000 636010                    EAQ     0,X0
         4 000037   000022 732000                    QRS     18
         4 000040   000064 737000                    LLS     52
         4 000041   000140 135007                    SBLA    96,DL
         4 000042   200006 453500                    STP3    @STATS_FLAG+1,,AUTO
         4 000043   200006 236100                    LDQ     @STATS_FLAG+1,,AUTO
         4 000044   000004 757000 3                  STAQ    WRITE_DO+4

      215     9856    2       CALL M$WRITE (WRITE_DO);

   9856  4 000045   000000 630400 3                  EPPR0   WRITE_DO
         4 000046   040001 713400                    CLIMB   write
         4 000047   401400 401760                    pmme    nvectors=4

      216     9857    2     END;

PL6.E3A0      #003=Z9IL$OUTPUT_TO_DO File=Z9IL.:Z8A6TSI                          SAT 08/09/97 14:01 Page:44
      217     9858
      218     9859
      219     9860    1   END Z9IL$OUTPUT_TO_DO;

   9860  4 000050   000000 702200 xent               TSX2  ! X66_ARET
      220     9861        %EOD;

PL6.E3A0      #003=Z9IL$OUTPUT_TO_DO File=Z9IL.:Z8A6TSI                          SAT 08/09/97 14:01 Page:45
--  Include file information  --

   Z9I_PREPROC.:Z8A6TOU  is referenced.
   Z9A_SUPP_MAC.:Z8A6TOU  is referenced.
   Z8A_COMCOM.:Z8A6TOU  cannot be made into a system file and is referenced.
   CP_6_SUBS.:LIB_E04  is referenced.
   CP_6_C.:LIB_E04  is referenced.
   CP_6.:LIB_E04  cannot be made into a system file and is referenced.
   Z9A_FLAGS.:Z8A6TOU  is referenced.
   Z8A_SYS_FILE.:Z8A6TOU  is referenced.
   X8A_COM_MACS.:X8A6TOU  is referenced.
   Z8A_NAMES.:Z8A6TOU  is referenced.
   Z8A_SUPP_MAC.:Z8A6TOU  is referenced.
   Z8A_DEFC.:Z8A6TOU  cannot be made into a system file and is referenced.
      No diagnostics issued in procedure Z9IL$OUTPUT_TO_DO.
PL6.E3A0      #003=Z9IL$OUTPUT_TO_DO File=Z9IL.:Z8A6TSI                          SAT 08/09/97 14:01 Page:46

 **** Variables and constants ****

  ****  Section 000 LblCom ITERATION

  ****  Scalars and arrays  ****
OctLoc.c.b A Datatyp(siz) R M Lvl/name                 OctLoc.c.b A Datatyp(siz) R M Lvl/name

     0-0-0/w SBIN              1 ITERATION

  ****  Section 003  Data  Z9IL$OUTPUT_TO_DO

  ****  Scalars and arrays  ****
OctLoc.c.b A Datatyp(siz) R M Lvl/name                 OctLoc.c.b A Datatyp(siz) R M Lvl/name

     0-0-0/d STRC(432)   r     1 WRITE_DO

  ****  Auto variables  ****

  ****  Scalars and arrays  ****
OctLoc.c.b A Datatyp(siz) R M Lvl/name                 OctLoc.c.b A Datatyp(siz) R M Lvl/name

     4-0-0/w PTR         r     1 @LENGTH                    3-0-0/w PTR         r     1 @LINE$
     5-0-0/w PTR         r     1 @STATS_FLAG               *0-0-0/w SBIN        r     1 LENGTH
    *0-0-0/w PTR         r     1 LINE$                     *0-0-0/w BIT         r     1 STATS_FLAG

  ****  SYMREF variables  ****

  ****  Scalars and arrays  ****
OctLoc.c.b A Datatyp(siz) R M Lvl/name                 OctLoc.c.b A Datatyp(siz) R M Lvl/name

     0-0-0/d STRC(13248)       1 COMCOM                     0-0-0/w UBIN              1 Z9A8$M$DO#
     0-0-0/w PTR         r     1 Z9A8$M$DO$                 0-0-0/w UBIN              1 Z9A8$M$ES#
     0-0-0/w PTR               1 Z9A8$M$ES$                 0-0-0/w UBIN              1 Z9A8$M$LO#
     0-0-0/w PTR               1 Z9A8$M$LO$                 0-0-0/w UBIN              1 Z9A8$M$ME#
     0-0-0/w PTR               1 Z9A8$M$ME$                 0-0-0/w UBIN              1 Z9A8$M$OBJFILE#
     0-0-0/w PTR               1 Z9A8$M$OBJFILE$            0-0-0/w UBIN              1 Z9A8$M$OU#
     0-0-0/w PTR               1 Z9A8$M$OU$                 0-0-0/w UBIN              1 Z9A8$M$SI#
PL6.E3A0      #003=Z9IL$OUTPUT_TO_DO File=Z9IL.:Z8A6TSI                          SAT 08/09/97 14:01 Page:47
     0-0-0/w PTR               1 Z9A8$M$SI$                 0-0-0/w UBIN              1 Z9A8$M$SO#
     0-0-0/w PTR               1 Z9A8$M$SO$                 0-0-0/w UBIN              1 Z9A8$M$UI#
     0-0-0/w PTR               1 Z9A8$M$UI$

  ****  BASED and DCB variables  ****

  ****  Scalars and arrays  ****
OctLoc.c.b A Datatyp(siz) R M Lvl/name                 OctLoc.c.b A Datatyp(siz) R M Lvl/name

     0-0-0/w CHAR(4096)        1 CHARS                      0-0-0/w STRC(72)          1 CONT
     0-0-0/d ASTR(3528)  r     1 F$DCB                      0-0-0N  NULL        r     1 M$DO
     0-0-0N  NULL        r     1 M$UC                       0-0-0/w STRC(36864)       1 PAGE
     0-0-0/c ACHR        r     1 WRITE_BUFFER


   Procedure Z9IL$OUTPUT_TO_DO requires 41 words for executable code.
   Procedure Z9IL$OUTPUT_TO_DO requires 10 words of local(AUTO) storage.

PL6.E3A0      #004=Z9IL$PRINT_LO_WITH_UNGMAP File=Z9IL.:Z8A6TSI                  SAT 08/09/97 14:02 Page:48
      221        1        /*T***********************************************************/
      222        2        /*T*                                                         */
      223        3        /*T* Copyright (c) Bull HN Information Systems Inc., 1997    */
      224        4        /*T*                                                         */
      225        5        /*T***********************************************************/
      226        6        Z9IL$PRINT_LO_WITH_UNGMAP : PROC ;
      227        7
      228        8        /*D*
      229        9
      230       10               NAME: Z9IL$PRINT_LO_WITH_UNGMAP
      231       11        DESCRIPTION: Print the assembly language listing of the object
      232       12                        unit using the CP6 utility UNGMAP.  This is invoked
      233       13                        by the option, "LO".
      234       14
      235       15        */
      236       16
      237       17
      238       18        %EQU PHASE = 5;
      239       19
      240       20               /* Include files */
      241       21
      242       22        %INCLUDE Z8A_DEFC;
      243       90        %INCLUDE Z8A_SUPP_MAC;
      244     2490        %INCLUDE Z8A_SYS_FILE;
      245     8765        %INCLUDE Z8A_COMCOM;
      246     9415        %INCLUDE Z9I_PREPROC;
      247     9435        %INCLUDE Z9I_HEAD;
      248     9469        %INCLUDE Z8I_LISTING;
      249     9557        %INCLUDE Z8A_DNT;
      250     9778        %INCLUDE Z8A_ERR;
      251     9847
      252     9848               /* External Declarations */
      253     9849
      254     9850    1   DCL ZPC$UNGMAP                    ENTRY(10) ALTRET;
      255     9851    1   DCL Z9IL$UNGMAP$SI$READ           ENTRY(2) ALTRET;
      256     9852    1   DCL Z9IL$UNGMAP$SI$READ$PREP      ENTRY ALTRET;
      257     9853    1   DCL Z9IL$UNGMAP$DIAGNOSTIC        ENTRY(3);
PL6.E3A0      #004=Z9IL$PRINT_LO_WITH_UNGMAP File=Z9IL.:Z8A6TSI                  SAT 08/09/97 14:02 Page:49
      258     9854    1   DCL Z9IL$CREATE_HEADING           ENTRY;
      259     9855
      260     9856    1   DCL Z9A8$M$OU# UBIN SYMREF;
      261     9857    1   DCL Z9A8$M$LO# UBIN SYMREF;
      262     9858    1   DCL M$OU DCB;
      263     9859    1   DCL M$LO DCB;
      264     9860
      265     9861        %FPT_CLOSE (FPTN=CLOSEOU, DCB=%M$OU, DISP=SAVE, STCLASS=CONSTANT);
      266     9903
      267     9904                                 /*#35040   deleted vlp_hdr and fpt_device */
      268     9905
      269     9906    1   DCL 1 DM$OPTION ALIGNED,
      270     9907    1         2 STATIC_ BIT(1) UNAL,
      271     9908    1         2 AUTO_ BIT(1) UNAL,
      272     9909    1         2 SYMREF_ BIT(1) UNAL,
      273     9910    1         2 BASED_ BIT(1) UNAL;
      274     9911
      275     9912    1   DCL 1 PM$OPTION ALIGNED,
      276     9913    1         2 FULL BIT(1) UNAL,
      277     9914    1         2 MINI BIT(1) UNAL;
      278     9915
      279     9916    1   DCL 1 MDM$OPTION ALIGNED,
      280     9917    1         2 STATIC_ BIT(1) UNAL,
      281     9918    1         2 AUTO_ BIT(1) UNAL,
      282     9919    1         2 SYMREF_ BIT(1) UNAL,
      283     9920    1         2 BASED_ BIT(1) UNAL;
      284     9921
      285     9922    1   DCL 1 P_NAME_HEAD_UNGMAP ALIGNED,
      286     9923    1         2 SIZE UBIN BYTE UNAL,
      287     9924    1         2 TEXT CHAR(255) UNAL;
      288     9925
      289     9926    1   DCL 1 LO$OPTION ALIGNED,
      290     9927    1         2 CODE BIT(1) UNAL,
      291     9928    1         2 DATA BIT(1) UNAL;
      292     9929
      293     9930    1   ERR$ = ERR_HEAD;
      294     9931    1   CALL Z9IL$UNGMAP$SI$READ$PREP
PL6.E3A0      #004=Z9IL$PRINT_LO_WITH_UNGMAP File=Z9IL.:Z8A6TSI                  SAT 08/09/97 14:02 Page:50
      295     9932    1       WHENALTRETURN
      296     9933    2          DO;
      297     9934                 /* Nothing */
      298     9935    2          END;
      299     9936
      300     9937    1   CALL M$CLOSE(CLOSEOU);  /* Required by UNGMAP */
      301     9938
      302     9939    1   CALL Z9IL$CREATE_HEADING;
      303     9940
      304     9941               /* Set options according to user requested ones */
      305     9942    1   PM$OPTION           = COMCOM.OB.PM;
      306     9943    1   DM$OPTION           = COMCOM.OB.DM;
      307     9944    1   MDM$OPTION          = COMCOM.OB.MDM;
      308     9945    1   LO$OPTION           = COMCOM.OB.LO;
      309     9946
      310     9947    1   IF COMCOM.OU_EXTERNAL_NAME$ ~= ADDR(NIL) THEN
      311     9948    2     DO;
      312     9949    2       P_NAME_HEAD_UNGMAP.SIZE = COMCOM.OU_EXTERNAL_NAME$ -> DNT.TEXT.LENGTH;
      313     9950    2       P_NAME_HEAD_UNGMAP.TEXT = COMCOM.OU_EXTERNAL_NAME$ -> DNT.TEXT.NAME;
      314     9951    2     END;
      315     9952    1   ELSE
      316     9953    2     DO;
      317     9954    2       P_NAME_HEAD_UNGMAP.SIZE = LENGTHC(%DEFAULT_PROG_NAME);
      318     9955    2       P_NAME_HEAD_UNGMAP.TEXT = %DEFAULT_PROG_NAME;
      319     9956    2     END;
      320     9957
      321     9958    1   CALL ZPC$UNGMAP (Z9A8$M$OU#,
      322     9959    1                  P_NAME_HEAD_UNGMAP,
      323     9960    1                  LO$OPTION,
      324     9961    1                  DM$OPTION,
      325     9962    1                  PM$OPTION,
      326     9963    1                  MDM$OPTION,
      327     9964    1                  ENTADDR(Z9IL$UNGMAP$SI$READ),
      328     9965    1                  ENTADDR(Z9IL$UNGMAP$DIAGNOSTIC),
      329     9966    1                  Z9A8$M$LO#,
      330     9967    1                  %GCOS)   /* CP6, instead of GCOS */
      331     9968    1      WHENALTRETURN
PL6.E3A0      #004=Z9IL$PRINT_LO_WITH_UNGMAP File=Z9IL.:Z8A6TSI                  SAT 08/09/97 14:02 Page:51
      332     9969    2        DO;
      333     9970               /* Nothing */
      334     9971    2        END;
      335     9972
      336     9973    1   END Z9IL$PRINT_LO_WITH_UNGMAP;
      337     9974        %EOD;

PL6.E3A0      #004=Z9IL$PRINT_LO_WITH_UNGMAP File=Z9IL.:Z8A6TSI                  SAT 08/09/97 14:02 Page:52
--  Include file information  --

   Z8A_ERR.:Z8A6TOU  cannot be made into a system file and is referenced.
   Z8A_DNT.:Z8A6TOU  cannot be made into a system file and is referenced.
   Z8I_LISTING.:Z8A6TOU  cannot be made into a system file and is referenced.
   Z9I_HEAD.:Z8A6TOU  cannot be made into a system file and is referenced.
   Z9I_PREPROC.:Z8A6TOU  is referenced.
   Z8A_COMCOM.:Z8A6TOU  cannot be made into a system file and is referenced.
   CP_6_SUBS.:LIB_E04  is referenced.
   CP_6_C.:LIB_E04  is referenced.
   CP_6.:LIB_E04  cannot be made into a system file and is referenced.
   Z9A_FLAGS.:Z8A6TOU  is referenced.
   Z8A_SYS_FILE.:Z8A6TOU  is referenced.
   X8A_COM_MACS.:X8A6TOU  is referenced.
   Z8A_NAMES.:Z8A6TOU  is referenced.
   Z8A_SUPP_MAC.:Z8A6TOU  is referenced.
   Z8A_DEFC.:Z8A6TOU  cannot be made into a system file and is referenced.
      No diagnostics issued in procedure Z9IL$PRINT_LO_WITH_UNGMAP.

   Procedure Z9IL$PRINT_LO_WITH_UNGMAP requires 75 words for executable code.
   Procedure Z9IL$PRINT_LO_WITH_UNGMAP requires 86 words of local(AUTO) storage.

PL6.E3A0      #004=Z9IL$PRINT_LO_WITH_UNGMAP File=Z9IL.:Z8A6TSI                  SAT 08/09/97 14:02 Page:53

 Object Unit name= Z9IL$PRINT_LO_WITH_UNGMAP                  File name= Z9IL.:Z8A6TOU
 UTS= AUG 09 '97 14:02:45.96 SAT                              Compiler= PL-6/E31         Sev=      00
 SharedLib= :SHARED_SYSTEM                                    Alt SharedLib=


    ****  Control sections  ****

 Sect   Type Bound  Init  Size OctSiz  Section name(segment info)
    0  LblCom even  none     1      1  ITERATION
    1   DCB   even  none     0      0  M$UC
    2  LblCom even  none    28     34  LISTING_MAIN_HEADING
    3  LblCom even  none     1      1  SUB_HEADING_ADDR
    4  LblCom even  none     1      1  SUB_HEADING_LEN
    5  LblCom even  none     1      1  SUB_HEADING_ADDR1
    6  LblCom even  none     1      1  SUB_HEADING_LEN1
    7  LblCom even  none     1      1  SUB_HEADING_ADDR2
    8  LblCom even  none     1      1  SUB_HEADING_LEN2
    9  LblCom even  none     1      1  MAX_LINES_PER_PAGE
   10  LblCom even  none     1      1  LISTING_LINES_ON_PAGE
   11  LblCom even  none     1      1  LISTING_PAGE_NUMBER
   12  LblCom even  none    28     34  PLINE
   13  LblCom even  none     1      1  PLINE_LEN
   14  LblCom even  none     1      1  DNT$
   15  LblCom even  none     5      5  DNT_
   16  LblCom even  none     1      1  DNT_BUCKET_NUMBER
   17  LblCom even  none     1      1  DNT_OF_1$
   18  LblCom even  none     1      1  ERR$
   19  LblCom even  none     1      1  ERR_HEAD
   20  LblCom even  none     1      1  ERR_TAIL
   21  LblCom even  none     1      1  MAX_ERROR_GENERATED
   22  LblCom even  none     5      5  ERR_
   23   DCB   even  none     0      0  M$OU
   24   DCB   even  none     0      0  M$LO
   25  RoData even  UTS     32     40  Z9IL$PRINT_LO_WITH_UNGMAP
   26   Proc  even  none    75    113  Z9IL$PRINT_LO_WITH_UNGMAP
   27  RoData even  none     6      6  Z9IL$PRINT_LO_WITH_UNGMAP
PL6.E3A0      #004=Z9IL$PRINT_LO_WITH_UNGMAP File=Z9IL.:Z8A6TSI                  SAT 08/09/97 14:02 Page:54

    ****  Entry defs  ****

                              Check   Calling
                             calling  sequence
  Sect OctLoc Primary Altret sequence   type   Parms  Name
    26      0   yes            yes      Std        0  Z9IL$PRINT_LO_WITH_UNGMAP

  ****  Entry refs  ****

         Check        Calling
        calling       sequence
Altret sequence SRef   type   Args  Name
 yes     yes           Std       0 Z9IL$UNGMAP$SI$READ$PREP
 yes     yes           Std       2 Z9IL$UNGMAP$SI$READ
         yes           Std       3 Z9IL$UNGMAP$DIAGNOSTIC
 yes     yes           Std      10 ZPC$UNGMAP
         yes           Std       0 Z9IL$CREATE_HEADING
                       nStd      0 X66_AUTO_0
                       nStd      0 X66_ARET

  ****  Data refs  ****

  Flags:  r = read only, s = secondary
Flgs Name                             Flgs Name                             Flgs Name
     M$UC                                  COMCOM                           r    DEF_LISTING_SUB_HEADING
r    BLANK                            r    PLINE_PTR$                            Z9A8$M$OU#
     Z9A8$M$LO#                            M$OU                                  M$LO

  ****  Segment refs  ****

  Flags:  r = read only, s = secondary
Flgs Name                             Flgs Name                             Flgs Name
     NULLSID                               ISSID
PL6.E3A0      #004=Z9IL$PRINT_LO_WITH_UNGMAP File=Z9IL.:Z8A6TSI                  SAT 08/09/97 14:02 Page:55


      221        1        /*T***********************************************************/
      222        2        /*T*                                                         */
      223        3        /*T* Copyright (c) Bull HN Information Systems Inc., 1997    */
      224        4        /*T*                                                         */
      225        5        /*T***********************************************************/
      226        6        Z9IL$PRINT_LO_WITH_UNGMAP : PROC ;

      6 26 000000   000000 700200 xent  Z9IL$PRINT_* TSX0  ! X66_AUTO_0
        26 000001   000126 000000                    ZERO    86,0

      227        7
      228        8        /*D*
      229        9
      230       10               NAME: Z9IL$PRINT_LO_WITH_UNGMAP
      231       11        DESCRIPTION: Print the assembly language listing of the object
      232       12                        unit using the CP6 utility UNGMAP.  This is invoked
      233       13                        by the option, "LO".
      234       14
      235       15        */
      236       16
      237       17
      238       18        %EQU PHASE = 5;
      239       19
      240       20               /* Include files */
      241       21
      242       22        %INCLUDE Z8A_DEFC;
      243       90        %INCLUDE Z8A_SUPP_MAC;
      244     2490        %INCLUDE Z8A_SYS_FILE;
      245     8765        %INCLUDE Z8A_COMCOM;
      246     9415        %INCLUDE Z9I_PREPROC;
      247     9435        %INCLUDE Z9I_HEAD;
      248     9469        %INCLUDE Z8I_LISTING;
      249     9557        %INCLUDE Z8A_DNT;
      250     9778        %INCLUDE Z8A_ERR;
      251     9847
      252     9848               /* External Declarations */
PL6.E3A0      #004=Z9IL$PRINT_LO_WITH_UNGMAP File=Z9IL.:Z8A6TSI                  SAT 08/09/97 14:02 Page:56
      253     9849
      254     9850    1   DCL ZPC$UNGMAP                    ENTRY(10) ALTRET;
      255     9851    1   DCL Z9IL$UNGMAP$SI$READ           ENTRY(2) ALTRET;
      256     9852    1   DCL Z9IL$UNGMAP$SI$READ$PREP      ENTRY ALTRET;
      257     9853    1   DCL Z9IL$UNGMAP$DIAGNOSTIC        ENTRY(3);
      258     9854    1   DCL Z9IL$CREATE_HEADING           ENTRY;
      259     9855
      260     9856    1   DCL Z9A8$M$OU# UBIN SYMREF;
      261     9857    1   DCL Z9A8$M$LO# UBIN SYMREF;
      262     9858    1   DCL M$OU DCB;
      263     9859    1   DCL M$LO DCB;
      264     9860
      265     9861        %FPT_CLOSE (FPTN=CLOSEOU, DCB=%M$OU, DISP=SAVE, STCLASS=CONSTANT);
      266     9903
      267     9904                                 /*#35040   deleted vlp_hdr and fpt_device */
      268     9905
      269     9906    1   DCL 1 DM$OPTION ALIGNED,
      270     9907    1         2 STATIC_ BIT(1) UNAL,
      271     9908    1         2 AUTO_ BIT(1) UNAL,
      272     9909    1         2 SYMREF_ BIT(1) UNAL,
      273     9910    1         2 BASED_ BIT(1) UNAL;
      274     9911
      275     9912    1   DCL 1 PM$OPTION ALIGNED,
      276     9913    1         2 FULL BIT(1) UNAL,
      277     9914    1         2 MINI BIT(1) UNAL;
      278     9915
      279     9916    1   DCL 1 MDM$OPTION ALIGNED,
      280     9917    1         2 STATIC_ BIT(1) UNAL,
      281     9918    1         2 AUTO_ BIT(1) UNAL,
      282     9919    1         2 SYMREF_ BIT(1) UNAL,
      283     9920    1         2 BASED_ BIT(1) UNAL;
      284     9921
      285     9922    1   DCL 1 P_NAME_HEAD_UNGMAP ALIGNED,
      286     9923    1         2 SIZE UBIN BYTE UNAL,
      287     9924    1         2 TEXT CHAR(255) UNAL;
      288     9925
      289     9926    1   DCL 1 LO$OPTION ALIGNED,
PL6.E3A0      #004=Z9IL$PRINT_LO_WITH_UNGMAP File=Z9IL.:Z8A6TSI                  SAT 08/09/97 14:02 Page:57
      290     9927    1         2 CODE BIT(1) UNAL,
      291     9928    1         2 DATA BIT(1) UNAL;
      292     9929
      293     9930    1   ERR$ = ERR_HEAD;

   9930 26 000002   000000 236000 19                 LDQ     ERR_HEAD
        26 000003   000000 756000 18                 STQ     ERR$

      294     9931    1   CALL Z9IL$UNGMAP$SI$READ$PREP

   9931 26 000004   000000 631400 27                 EPPR1   0
        26 000005   000000 701000 xent               TSX1    Z9IL$UNGMAP$SI$READ$PREP
        26 000006   000010 702000 26                 TSX2    s:9937
        26 000007   000010 710000 26                 TRA     s:9937

      295     9932    1       WHENALTRETURN
      296     9933    2          DO;

      297     9934                 /* Nothing */
      298     9935    2          END;

      299     9936
      300     9937    1   CALL M$CLOSE(CLOSEOU);  /* Required by UNGMAP */

   9937 26 000010   000000 630400 25                 EPPR0   CLOSEOU
        26 000011   050001 713400                    CLIMB   close
        26 000012   406000 401760                    pmme    nvectors=13

      301     9938
      302     9939    1   CALL Z9IL$CREATE_HEADING;

   9939 26 000013   000000 631400 27                 EPPR1   0
        26 000014   000000 701000 xent               TSX1    Z9IL$CREATE_HEADING
        26 000015   000000 011000                    NOP     0

      303     9940
      304     9941               /* Set options according to user requested ones */
PL6.E3A0      #004=Z9IL$PRINT_LO_WITH_UNGMAP File=Z9IL.:Z8A6TSI                  SAT 08/09/97 14:02 Page:58
      305     9942    1   PM$OPTION           = COMCOM.OB.PM;

   9942 26 000016   000064 236000 xsym               LDQ     COMCOM+52
        26 000017   600000 376003                    ANQ     -65536,DU
        26 000020   200004 756100                    STQ     PM$OPTION,,AUTO

      306     9943    1   DM$OPTION           = COMCOM.OB.DM;

   9943 26 000021   000065 236000 xsym               LDQ     COMCOM+53
        26 000022   740000 376003                    ANQ     -16384,DU
        26 000023   200003 756100                    STQ     DM$OPTION,,AUTO

      307     9944    1   MDM$OPTION          = COMCOM.OB.MDM;

   9944 26 000024   000066 236000 xsym               LDQ     COMCOM+54
        26 000025   740000 376003                    ANQ     -16384,DU
        26 000026   200005 756100                    STQ     MDM$OPTION,,AUTO

      308     9945    1   LO$OPTION           = COMCOM.OB.LO;

   9945 26 000027   000101 236000 xsym               LDQ     COMCOM+65
        26 000030   600000 376003                    ANQ     -65536,DU
        26 000031   200106 756100                    STQ     LO$OPTION,,AUTO

      309     9946
      310     9947    1   IF COMCOM.OU_EXTERNAL_NAME$ ~= ADDR(NIL) THEN

   9947 26 000032   000146 236000 xsym               LDQ     COMCOM+102
        26 000033   000001 116000 27                 CMPQ    1
        26 000034   000046 600000 26                 TZE     s:9954

      311     9948    2     DO;

      312     9949    2       P_NAME_HEAD_UNGMAP.SIZE = COMCOM.OU_EXTERNAL_NAME$ -> DNT.TEXT.LENGTH;

   9949 26 000035   000146 470400 xsym               LDP0    COMCOM+102
        26 000036   000004 236100                    LDQ     4,,PR0
PL6.E3A0      #004=Z9IL$PRINT_LO_WITH_UNGMAP File=Z9IL.:Z8A6TSI                  SAT 08/09/97 14:02 Page:59
        26 000037   000011 736000                    QLS     9
        26 000040   200006 552140                    STBQ    P_NAME_HEAD_UNGMAP,'40'O,AUTO

      313     9950    2       P_NAME_HEAD_UNGMAP.TEXT = COMCOM.OU_EXTERNAL_NAME$ -> DNT.TEXT.NAME;

   9950 26 000041   000004 220100                    LDX0    4,,PR0
        26 000042   040100 100540                    MLR     fill='040'O
        26 000043   000004 400010                    ADSC9   4,,PR0                   cn=2,n=*X0
        26 000044   200006 200377                    ADSC9   P_NAME_HEAD_UNGMAP,,AUTO cn=1,n=255

      314     9951    2     END;

   9951 26 000045   000053 710000 26                 TRA     s:9958

      315     9952    1   ELSE
      316     9953    2     DO;

      317     9954    2       P_NAME_HEAD_UNGMAP.SIZE = LENGTHC(%DEFAULT_PROG_NAME);

   9954 26 000046   007000 236003                    LDQ     3584,DU
        26 000047   200006 552140                    STBQ    P_NAME_HEAD_UNGMAP,'40'O,AUTO

      318     9955    2       P_NAME_HEAD_UNGMAP.TEXT = %DEFAULT_PROG_NAME;

   9955 26 000050   040100 100400                    MLR     fill='040'O
        26 000051   000036 000007 25                 ADSC9   CLOSEOU+30               cn=0,n=7
        26 000052   200006 200377                    ADSC9   P_NAME_HEAD_UNGMAP,,AUTO cn=1,n=255

      319     9956    2     END;

      320     9957
      321     9958    1   CALL ZPC$UNGMAP (Z9A8$M$OU#,

   9958 26 000053   000000 636000 xent               EAQ     Z9IL$UNGMAP$SI$READ
        26 000054   200110 756100                    STQ     LO$OPTION+2,,AUTO
        26 000055   000000 636000 xent               EAQ     Z9IL$UNGMAP$DIAGNOSTIC
        26 000056   200112 756100                    STQ     LO$OPTION+4,,AUTO
PL6.E3A0      #004=Z9IL$PRINT_LO_WITH_UNGMAP File=Z9IL.:Z8A6TSI                  SAT 08/09/97 14:02 Page:60
        26 000057   200110 236100                    LDQ     LO$OPTION+2,,AUTO
        26 000060   200111 756100                    STQ     LO$OPTION+3,,AUTO
        26 000061   200112 236100                    LDQ     LO$OPTION+4,,AUTO
        26 000062   200113 756100                    STQ     LO$OPTION+5,,AUTO
        26 000063   000004 237000 27                 LDAQ    4
        26 000064   200124 757100                    STAQ    LO$OPTION+14,,AUTO
        26 000065   200113 630500                    EPPR0   LO$OPTION+5,,AUTO
        26 000066   200123 450500                    STP0    LO$OPTION+13,,AUTO
        26 000067   200111 631500                    EPPR1   LO$OPTION+3,,AUTO
        26 000070   200122 451500                    STP1    LO$OPTION+12,,AUTO
        26 000071   200005 633500                    EPPR3   MDM$OPTION,,AUTO
        26 000072   200121 453500                    STP3    LO$OPTION+11,,AUTO
        26 000073   200004 634500                    EPPR4   PM$OPTION,,AUTO
        26 000074   200120 454500                    STP4    LO$OPTION+10,,AUTO
        26 000075   200003 635500                    EPPR5   DM$OPTION,,AUTO
        26 000076   200117 455500                    STP5    LO$OPTION+9,,AUTO
        26 000077   200106 636500                    EPPR6   LO$OPTION,,AUTO
        26 000100   200116 456500                    STP6    LO$OPTION+8,,AUTO
        26 000101   200006 637500                    EPPR7   P_NAME_HEAD_UNGMAP,,AUTO
        26 000102   200115 457500                    STP7    LO$OPTION+7,,AUTO
        26 000103   000003 236000 27                 LDQ     3
        26 000104   200114 756100                    STQ     LO$OPTION+6,,AUTO
        26 000105   200114 630500                    EPPR0   LO$OPTION+6,,AUTO
        26 000106   000002 631400 27                 EPPR1   2
        26 000107   000000 701000 xent               TSX1    ZPC$UNGMAP
        26 000110   000112 702000 26                 TSX2    s:9973
        26 000111   000112 710000 26                 TRA     s:9973

      322     9959    1                  P_NAME_HEAD_UNGMAP,
      323     9960    1                  LO$OPTION,
      324     9961    1                  DM$OPTION,
      325     9962    1                  PM$OPTION,
      326     9963    1                  MDM$OPTION,
      327     9964    1                  ENTADDR(Z9IL$UNGMAP$SI$READ),
      328     9965    1                  ENTADDR(Z9IL$UNGMAP$DIAGNOSTIC),
      329     9966    1                  Z9A8$M$LO#,
      330     9967    1                  %GCOS)   /* CP6, instead of GCOS */
PL6.E3A0      #004=Z9IL$PRINT_LO_WITH_UNGMAP File=Z9IL.:Z8A6TSI                  SAT 08/09/97 14:02 Page:61
      331     9968    1      WHENALTRETURN
      332     9969    2        DO;

      333     9970               /* Nothing */
      334     9971    2        END;

      335     9972
      336     9973    1   END Z9IL$PRINT_LO_WITH_UNGMAP;

   9973 26 000112   000000 702200 xent               TSX2  ! X66_ARET
      337     9974        %EOD;

PL6.E3A0      #004=Z9IL$PRINT_LO_WITH_UNGMAP File=Z9IL.:Z8A6TSI                  SAT 08/09/97 14:02 Page:62
--  Include file information  --

   Z8A_ERR.:Z8A6TOU  cannot be made into a system file and is referenced.
   Z8A_DNT.:Z8A6TOU  cannot be made into a system file and is referenced.
   Z8I_LISTING.:Z8A6TOU  cannot be made into a system file and is referenced.
   Z9I_HEAD.:Z8A6TOU  cannot be made into a system file and is referenced.
   Z9I_PREPROC.:Z8A6TOU  is referenced.
   Z8A_COMCOM.:Z8A6TOU  cannot be made into a system file and is referenced.
   CP_6_SUBS.:LIB_E04  is referenced.
   CP_6_C.:LIB_E04  is referenced.
   CP_6.:LIB_E04  cannot be made into a system file and is referenced.
   Z9A_FLAGS.:Z8A6TOU  is referenced.
   Z8A_SYS_FILE.:Z8A6TOU  is referenced.
   X8A_COM_MACS.:X8A6TOU  is referenced.
   Z8A_NAMES.:Z8A6TOU  is referenced.
   Z8A_SUPP_MAC.:Z8A6TOU  is referenced.
   Z8A_DEFC.:Z8A6TOU  cannot be made into a system file and is referenced.
      No diagnostics issued in procedure Z9IL$PRINT_LO_WITH_UNGMAP.
PL6.E3A0      #004=Z9IL$PRINT_LO_WITH_UNGMAP File=Z9IL.:Z8A6TSI                  SAT 08/09/97 14:02 Page:63

 **** Variables and constants ****

  ****  Section 000 LblCom ITERATION

  ****  Scalars and arrays  ****
OctLoc.c.b A Datatyp(siz) R M Lvl/name                 OctLoc.c.b A Datatyp(siz) R M Lvl/name

     0-0-0/w SBIN              1 ITERATION

  ****  Section 002 LblCom LISTING_MAIN_HEADING

  ****  Scalars and arrays  ****
OctLoc.c.b A Datatyp(siz) R M Lvl/name                 OctLoc.c.b A Datatyp(siz) R M Lvl/name

     0-0-0/c CHAR(109)         1 LISTING_HEADING            0-0-0/c STRC(981)         1 LISTING_MAIN_HEADING

  ****  Section 003 LblCom SUB_HEADING_ADDR

  ****  Scalars and arrays  ****
OctLoc.c.b A Datatyp(siz) R M Lvl/name                 OctLoc.c.b A Datatyp(siz) R M Lvl/name

     0-0-0/w PTR         r     1 SUB_HEADING_ADDR

  ****  Section 004 LblCom SUB_HEADING_LEN

  ****  Scalars and arrays  ****
OctLoc.c.b A Datatyp(siz) R M Lvl/name                 OctLoc.c.b A Datatyp(siz) R M Lvl/name

     0-0-0/w SBIN        r     1 SUB_HEADING_LEN

  ****  Section 005 LblCom SUB_HEADING_ADDR1

  ****  Scalars and arrays  ****
OctLoc.c.b A Datatyp(siz) R M Lvl/name                 OctLoc.c.b A Datatyp(siz) R M Lvl/name

     0-0-0/w PTR         r     1 SUB_HEADING_ADDR1

PL6.E3A0      #004=Z9IL$PRINT_LO_WITH_UNGMAP File=Z9IL.:Z8A6TSI                  SAT 08/09/97 14:02 Page:64
  ****  Section 006 LblCom SUB_HEADING_LEN1

  ****  Scalars and arrays  ****
OctLoc.c.b A Datatyp(siz) R M Lvl/name                 OctLoc.c.b A Datatyp(siz) R M Lvl/name

     0-0-0/w SBIN        r     1 SUB_HEADING_LEN1

  ****  Section 007 LblCom SUB_HEADING_ADDR2

  ****  Scalars and arrays  ****
OctLoc.c.b A Datatyp(siz) R M Lvl/name                 OctLoc.c.b A Datatyp(siz) R M Lvl/name

     0-0-0/w PTR         r     1 SUB_HEADING_ADDR2

  ****  Section 008 LblCom SUB_HEADING_LEN2

  ****  Scalars and arrays  ****
OctLoc.c.b A Datatyp(siz) R M Lvl/name                 OctLoc.c.b A Datatyp(siz) R M Lvl/name

     0-0-0/w SBIN        r     1 SUB_HEADING_LEN2

  ****  Section 009 LblCom MAX_LINES_PER_PAGE

  ****  Scalars and arrays  ****
OctLoc.c.b A Datatyp(siz) R M Lvl/name                 OctLoc.c.b A Datatyp(siz) R M Lvl/name

     0-0-0/w SBIN              1 MAX_LINES_PER_PAGE

  ****  Section 010 LblCom LISTING_LINES_ON_PAGE

  ****  Scalars and arrays  ****
OctLoc.c.b A Datatyp(siz) R M Lvl/name                 OctLoc.c.b A Datatyp(siz) R M Lvl/name

     0-0-0/w SBIN              1 LISTING_LINES_ON_PAGE

  ****  Section 011 LblCom LISTING_PAGE_NUMBER

PL6.E3A0      #004=Z9IL$PRINT_LO_WITH_UNGMAP File=Z9IL.:Z8A6TSI                  SAT 08/09/97 14:02 Page:65
  ****  Scalars and arrays  ****
OctLoc.c.b A Datatyp(siz) R M Lvl/name                 OctLoc.c.b A Datatyp(siz) R M Lvl/name

     0-0-0/w SBIN              1 LISTING_PAGE_NUMBER

  ****  Section 012 LblCom PLINE

  ****  Scalars and arrays  ****
OctLoc.c.b A Datatyp(siz) R M Lvl/name                 OctLoc.c.b A Datatyp(siz) R M Lvl/name

     0-0-0/c CHAR(109)         1 PLINE
     0-0-0/c CHAR              1 PLINE_CHAR(0:108)
     0-0-0/c STRC(981)         1 PLINE_REDEF_FIELDS

  ****  Section 013 LblCom PLINE_LEN

  ****  Scalars and arrays  ****
OctLoc.c.b A Datatyp(siz) R M Lvl/name                 OctLoc.c.b A Datatyp(siz) R M Lvl/name

     0-0-0/w SBIN              1 PLINE_LEN

  ****  Section 014 LblCom DNT$

  ****  Scalars and arrays  ****
OctLoc.c.b A Datatyp(siz) R M Lvl/name                 OctLoc.c.b A Datatyp(siz) R M Lvl/name

     0-0-0/w PTR         r     1 DNT$

  ****  Section 015 LblCom DNT_

  ****  Scalars and arrays  ****
OctLoc.c.b A Datatyp(siz) R M Lvl/name                 OctLoc.c.b A Datatyp(siz) R M Lvl/name

     0-0-0/w STRC(180)         1 DNT_

  ****  Section 016 LblCom DNT_BUCKET_NUMBER

PL6.E3A0      #004=Z9IL$PRINT_LO_WITH_UNGMAP File=Z9IL.:Z8A6TSI                  SAT 08/09/97 14:02 Page:66
  ****  Scalars and arrays  ****
OctLoc.c.b A Datatyp(siz) R M Lvl/name                 OctLoc.c.b A Datatyp(siz) R M Lvl/name

     0-0-0/w UBIN              1 DNT_BUCKET_NUMBER

  ****  Section 017 LblCom DNT_OF_1$

  ****  Scalars and arrays  ****
OctLoc.c.b A Datatyp(siz) R M Lvl/name                 OctLoc.c.b A Datatyp(siz) R M Lvl/name

     0-0-0/w PTR               1 DNT_OF_1$

  ****  Section 018 LblCom ERR$

  ****  Scalars and arrays  ****
OctLoc.c.b A Datatyp(siz) R M Lvl/name                 OctLoc.c.b A Datatyp(siz) R M Lvl/name

     0-0-0/w PTR         r     1 ERR$

  ****  Section 019 LblCom ERR_HEAD

  ****  Scalars and arrays  ****
OctLoc.c.b A Datatyp(siz) R M Lvl/name                 OctLoc.c.b A Datatyp(siz) R M Lvl/name

     0-0-0/w PTR         r     1 ERR_HEAD

  ****  Section 020 LblCom ERR_TAIL

  ****  Scalars and arrays  ****
OctLoc.c.b A Datatyp(siz) R M Lvl/name                 OctLoc.c.b A Datatyp(siz) R M Lvl/name

     0-0-0/w PTR               1 ERR_TAIL

  ****  Section 021 LblCom MAX_ERROR_GENERATED

  ****  Scalars and arrays  ****
OctLoc.c.b A Datatyp(siz) R M Lvl/name                 OctLoc.c.b A Datatyp(siz) R M Lvl/name
PL6.E3A0      #004=Z9IL$PRINT_LO_WITH_UNGMAP File=Z9IL.:Z8A6TSI                  SAT 08/09/97 14:02 Page:67

     0-0-0/w SBIN              1 MAX_ERROR_GENERATED

  ****  Section 022 LblCom ERR_

  ****  Scalars and arrays  ****
OctLoc.c.b A Datatyp(siz) R M Lvl/name                 OctLoc.c.b A Datatyp(siz) R M Lvl/name

     0-0-0/w STRC(180)         1 ERR_

  ****  Section 025 RoData Z9IL$PRINT_LO_WITH_UNGMAP

  ****  Scalars and arrays  ****
OctLoc.c.b A Datatyp(siz) R M Lvl/name                 OctLoc.c.b A Datatyp(siz) R M Lvl/name

     0-0-0/d STRC(1080)  r     1 CLOSEOU

  ****  Auto variables  ****

  ****  Scalars and arrays  ****
OctLoc.c.b A Datatyp(siz) R M Lvl/name                 OctLoc.c.b A Datatyp(siz) R M Lvl/name

     3-0-0/w STRC(4)     r     1 DM$OPTION                106-0-0/w STRC(2)     r     1 LO$OPTION
     5-0-0/w STRC(4)     r     1 MDM$OPTION                 4-0-0/w STRC(2)     r     1 PM$OPTION
     6-0-0/w STRC(2304)  r     1 P_NAME_HEAD_UNGMAP

  ****  SYMREF variables  ****

  ****  Scalars and arrays  ****
OctLoc.c.b A Datatyp(siz) R M Lvl/name                 OctLoc.c.b A Datatyp(siz) R M Lvl/name

     0-0-0/c CHAR              1 BLANK                      0-0-0/d STRC(13248) r     1 COMCOM
     0-0-0/c STRC(297)         1 DEF_LISTING_SUB_HEADING
     0-0-0/w PTR               1 PLINE_PTR$                 0-0-0/w UBIN        r     1 Z9A8$M$LO#
     0-0-0/w UBIN        r     1 Z9A8$M$OU#

  ****  BASED and DCB variables  ****
PL6.E3A0      #004=Z9IL$PRINT_LO_WITH_UNGMAP File=Z9IL.:Z8A6TSI                  SAT 08/09/97 14:02 Page:68

  ****  Scalars and arrays  ****
OctLoc.c.b A Datatyp(siz) R M Lvl/name                 OctLoc.c.b A Datatyp(siz) R M Lvl/name

     0-0-0/w CHAR(4096)        1 CHARS                      0-0-0/w STRC(72)          1 CONT
     0-0-0/w ASTR(180)   r     1 DNT                        0-0-0/w STRC(540)         1 ERR
     0-0-0/c ACHR              1 LISTING_SUB_HEADING        0-0-0/c ACHR              1 LISTING_SUB_HEADING1
     0-0-0/c ACHR              1 LISTING_SUB_HEADING2       0-0-0N  NULL        r     1 M$LO
     0-0-0N  NULL        r     1 M$OU                       0-0-0N  NULL        r     1 M$UC
     0-0-0/w STRC(36864)       1 PAGE


   Procedure Z9IL$PRINT_LO_WITH_UNGMAP requires 75 words for executable code.
   Procedure Z9IL$PRINT_LO_WITH_UNGMAP requires 86 words of local(AUTO) storage.

PL6.E3A0      #005=Z9IL$INITIALIZE_LO File=Z9IL.:Z8A6TSI                         SAT 08/09/97 14:03 Page:69
      338        1        /*T***********************************************************/
      339        2        /*T*                                                         */
      340        3        /*T* Copyright (c) Bull HN Information Systems Inc., 1997    */
      341        4        /*T*                                                         */
      342        5        /*T***********************************************************/
      343        6        Z9IL$INITIALIZE_LO : PROC ;              /*#35040*/
      344        7
      345        8
      346        9        %EQU PHASE = 5;
      347       10
      348       11        %INCLUDE Z8A_DEFC;
      349       79        %INCLUDE Z8A_SUPP_MAC;
      350     2479        %INCLUDE Z8A_SYS_FILE;
      351     8754        %INCLUDE Z8A_COMCOM;
      352     9404        %INCLUDE Z9I_PREPROC;
      353     9424        %INCLUDE Z9I_HEAD;
      354     9458        %INCLUDE Z8I_LISTING;
      355     9546
      356     9547    1   DCL M$LO  DCB;
      357     9548
      358     9549    1   DCL Z9IL$CREATE_HEADING       ENTRY;
      359     9550
      360     9551        %VLP_HDR( FPTN = LO_HDR,
      361     9552                  RESETPAGE = YES,
      362     9553                  HEADERHEIGHT = 2,
      363     9554                  COUNT = "%(MAX_LISTING_LINE_LENGTH-4)",
      364     9555                  LEN = %MAX_LISTING_LINE_LENGTH );
      365     9571
      366     9572        %FPT_DEVICE( FPTN = LO_LDEV,
      367     9573                     HDR  = LO_HDR,
      368     9574                     PAGE = NO,
      369     9575                     DCB  = %M$LO,
      370     9576                     STCLASS = CONSTANT );
      371     9594
      372     9595    1   SUB_HEADING_ADDR = ADDR(NIL);
      373     9596    1   CALL Z9IL$CREATE_HEADING;
      374     9597
PL6.E3A0      #005=Z9IL$INITIALIZE_LO File=Z9IL.:Z8A6TSI                         SAT 08/09/97 14:03 Page:70
      375     9598    1   LISTING_MAIN_HEADING.PAGE = ' ';
      376     9599    1   LO_HDR.TITL.L#            = LENGTHC(LISTING_HEADING);
      377     9600    1   LO_HDR.TITL.TITLE#        = LISTING_HEADING;
      378     9601    1   CALL M$DEVICE(LO_LDEV);
      379     9602
      380     9603    1   END Z9IL$INITIALIZE_LO;
      381     9604        %EOD;

PL6.E3A0      #005=Z9IL$INITIALIZE_LO File=Z9IL.:Z8A6TSI                         SAT 08/09/97 14:03 Page:71
--  Include file information  --

   Z8I_LISTING.:Z8A6TOU  cannot be made into a system file and is referenced.
   Z9I_HEAD.:Z8A6TOU  cannot be made into a system file and is referenced.
   Z9I_PREPROC.:Z8A6TOU  is referenced.
   Z8A_COMCOM.:Z8A6TOU  cannot be made into a system file and is referenced.
   CP_6_SUBS.:LIB_E04  is referenced.
   CP_6_C.:LIB_E04  is referenced.
   CP_6.:LIB_E04  cannot be made into a system file and is referenced.
   Z9A_FLAGS.:Z8A6TOU  is referenced.
   Z8A_SYS_FILE.:Z8A6TOU  is referenced.
   X8A_COM_MACS.:X8A6TOU  is referenced.
   Z8A_NAMES.:Z8A6TOU  is referenced.
   Z8A_SUPP_MAC.:Z8A6TOU  is referenced.
   Z8A_DEFC.:Z8A6TOU  cannot be made into a system file and is referenced.
      No diagnostics issued in procedure Z9IL$INITIALIZE_LO.

   Procedure Z9IL$INITIALIZE_LO requires 19 words for executable code.
   Procedure Z9IL$INITIALIZE_LO requires 4 words of local(AUTO) storage.

PL6.E3A0      #005=Z9IL$INITIALIZE_LO File=Z9IL.:Z8A6TSI                         SAT 08/09/97 14:03 Page:72

 Object Unit name= Z9IL$INITIALIZE_LO                         File name= Z9IL.:Z8A6TOU
 UTS= AUG 09 '97 14:03:44.80 SAT                              Compiler= PL-6/E31         Sev=      00
 SharedLib= :SHARED_SYSTEM                                    Alt SharedLib=


    ****  Control sections  ****

 Sect   Type Bound  Init  Size OctSiz  Section name(segment info)
    0  LblCom even  none     1      1  ITERATION
    1   DCB   even  none     0      0  M$UC
    2  LblCom even  none    28     34  LISTING_MAIN_HEADING
    3  LblCom even  none     1      1  SUB_HEADING_ADDR
    4  LblCom even  none     1      1  SUB_HEADING_LEN
    5  LblCom even  none     1      1  SUB_HEADING_ADDR1
    6  LblCom even  none     1      1  SUB_HEADING_LEN1
    7  LblCom even  none     1      1  SUB_HEADING_ADDR2
    8  LblCom even  none     1      1  SUB_HEADING_LEN2
    9  LblCom even  none     1      1  MAX_LINES_PER_PAGE
   10  LblCom even  none     1      1  LISTING_LINES_ON_PAGE
   11  LblCom even  none     1      1  LISTING_PAGE_NUMBER
   12  LblCom even  none    28     34  PLINE
   13  LblCom even  none     1      1  PLINE_LEN
   14   DCB   even  none     0      0  M$LO
   15   Data  even  none    29     35  Z9IL$INITIALIZE_LO
   16  RoData even  UTS     10     12  Z9IL$INITIALIZE_LO
   17   Proc  even  none    19     23  Z9IL$INITIALIZE_LO
   18  RoData even  none     3      3  Z9IL$INITIALIZE_LO

    ****  Entry defs  ****

                              Check   Calling
                             calling  sequence
  Sect OctLoc Primary Altret sequence   type   Parms  Name
    17      0   yes            yes      Std        0  Z9IL$INITIALIZE_LO
PL6.E3A0      #005=Z9IL$INITIALIZE_LO File=Z9IL.:Z8A6TSI                         SAT 08/09/97 14:03 Page:73

  ****  Entry refs  ****

         Check        Calling
        calling       sequence
Altret sequence SRef   type   Args  Name
         yes           Std       0 Z9IL$CREATE_HEADING
                       nStd      0 X66_AUTO_0
                       nStd      0 X66_ARET

  ****  Data refs  ****

  Flags:  r = read only, s = secondary
Flgs Name                             Flgs Name                             Flgs Name
     M$UC                                  COMCOM                           r    DEF_LISTING_SUB_HEADING
r    BLANK                            r    PLINE_PTR$                            M$LO

  ****  Segment refs  ****

  Flags:  r = read only, s = secondary
Flgs Name                             Flgs Name                             Flgs Name
     ISSID                                 NULLSID
PL6.E3A0      #005=Z9IL$INITIALIZE_LO File=Z9IL.:Z8A6TSI                         SAT 08/09/97 14:03 Page:74


      338        1        /*T***********************************************************/
      339        2        /*T*                                                         */
      340        3        /*T* Copyright (c) Bull HN Information Systems Inc., 1997    */
      341        4        /*T*                                                         */
      342        5        /*T***********************************************************/
      343        6        Z9IL$INITIALIZE_LO : PROC ;              /*#35040*/

      6 17 000000   000000 700200 xent  Z9IL$INITIA* TSX0  ! X66_AUTO_0
        17 000001   000004 000000                    ZERO    4,0

      344        7
      345        8
      346        9        %EQU PHASE = 5;
      347       10
      348       11        %INCLUDE Z8A_DEFC;
      349       79        %INCLUDE Z8A_SUPP_MAC;
      350     2479        %INCLUDE Z8A_SYS_FILE;
      351     8754        %INCLUDE Z8A_COMCOM;
      352     9404        %INCLUDE Z9I_PREPROC;
      353     9424        %INCLUDE Z9I_HEAD;
      354     9458        %INCLUDE Z8I_LISTING;
      355     9546
      356     9547    1   DCL M$LO  DCB;
      357     9548
      358     9549    1   DCL Z9IL$CREATE_HEADING       ENTRY;
      359     9550
      360     9551        %VLP_HDR( FPTN = LO_HDR,
      361     9552                  RESETPAGE = YES,
      362     9553                  HEADERHEIGHT = 2,
      363     9554                  COUNT = "%(MAX_LISTING_LINE_LENGTH-4)",
      364     9555                  LEN = %MAX_LISTING_LINE_LENGTH );
      365     9571
      366     9572        %FPT_DEVICE( FPTN = LO_LDEV,
      367     9573                     HDR  = LO_HDR,
      368     9574                     PAGE = NO,
      369     9575                     DCB  = %M$LO,
PL6.E3A0      #005=Z9IL$INITIALIZE_LO File=Z9IL.:Z8A6TSI                         SAT 08/09/97 14:03 Page:75
      370     9576                     STCLASS = CONSTANT );
      371     9594
      372     9595    1   SUB_HEADING_ADDR = ADDR(NIL);

   9595 17 000002   000000 236000 18                 LDQ     0
        17 000003   000000 756000 3                  STQ     SUB_HEADING_ADDR

      373     9596    1   CALL Z9IL$CREATE_HEADING;

   9596 17 000004   000001 631400 18                 EPPR1   1
        17 000005   000000 701000 xent               TSX1    Z9IL$CREATE_HEADING
        17 000006   000000 011000                    NOP     0

      374     9597
      375     9598    1   LISTING_MAIN_HEADING.PAGE = ' ';

   9598 17 000007   040000 100400                    MLR     fill='040'O
        17 000010   000002 000001 18                 ADSC9   2                        cn=0,n=1
        17 000011   000032 000005 2                  ADSC9   LISTING_MAIN_HEADING+26  cn=0,n=5

      376     9599    1   LO_HDR.TITL.L#            = LENGTHC(LISTING_HEADING);

   9599 17 000012   155000 236003                    LDQ     55808,DU
        17 000013   000001 552040 15                 STBQ    LO_HDR+1,'40'O

      377     9600    1   LO_HDR.TITL.TITLE#        = LISTING_HEADING;

   9600 17 000014   040000 100400                    MLR     fill='040'O
        17 000015   000000 000155 2                  ADSC9   LISTING_MAIN_HEADING     cn=0,n=109
        17 000016   000001 200155 15                 ADSC9   LO_HDR+1                 cn=1,n=109

      378     9601    1   CALL M$DEVICE(LO_LDEV);

   9601 17 000017   000000 630400 16                 EPPR0   LO_LDEV
        17 000020   050006 713400                    CLIMB   20486
        17 000021   401000 401760                    pmme    nvectors=3

PL6.E3A0      #005=Z9IL$INITIALIZE_LO File=Z9IL.:Z8A6TSI                         SAT 08/09/97 14:03 Page:76
      379     9602
      380     9603    1   END Z9IL$INITIALIZE_LO;

   9603 17 000022   000000 702200 xent               TSX2  ! X66_ARET
      381     9604        %EOD;

PL6.E3A0      #005=Z9IL$INITIALIZE_LO File=Z9IL.:Z8A6TSI                         SAT 08/09/97 14:03 Page:77
--  Include file information  --

   Z8I_LISTING.:Z8A6TOU  cannot be made into a system file and is referenced.
   Z9I_HEAD.:Z8A6TOU  cannot be made into a system file and is referenced.
   Z9I_PREPROC.:Z8A6TOU  is referenced.
   Z8A_COMCOM.:Z8A6TOU  cannot be made into a system file and is referenced.
   CP_6_SUBS.:LIB_E04  is referenced.
   CP_6_C.:LIB_E04  is referenced.
   CP_6.:LIB_E04  cannot be made into a system file and is referenced.
   Z9A_FLAGS.:Z8A6TOU  is referenced.
   Z8A_SYS_FILE.:Z8A6TOU  is referenced.
   X8A_COM_MACS.:X8A6TOU  is referenced.
   Z8A_NAMES.:Z8A6TOU  is referenced.
   Z8A_SUPP_MAC.:Z8A6TOU  is referenced.
   Z8A_DEFC.:Z8A6TOU  cannot be made into a system file and is referenced.
      No diagnostics issued in procedure Z9IL$INITIALIZE_LO.
PL6.E3A0      #005=Z9IL$INITIALIZE_LO File=Z9IL.:Z8A6TSI                         SAT 08/09/97 14:03 Page:78

 **** Variables and constants ****

  ****  Section 000 LblCom ITERATION

  ****  Scalars and arrays  ****
OctLoc.c.b A Datatyp(siz) R M Lvl/name                 OctLoc.c.b A Datatyp(siz) R M Lvl/name

     0-0-0/w SBIN              1 ITERATION

  ****  Section 002 LblCom LISTING_MAIN_HEADING

  ****  Scalars and arrays  ****
OctLoc.c.b A Datatyp(siz) R M Lvl/name                 OctLoc.c.b A Datatyp(siz) R M Lvl/name

     0-0-0/c CHAR(109)   r     1 LISTING_HEADING            0-0-0/c STRC(981)   r     1 LISTING_MAIN_HEADING

  ****  Section 003 LblCom SUB_HEADING_ADDR

  ****  Scalars and arrays  ****
OctLoc.c.b A Datatyp(siz) R M Lvl/name                 OctLoc.c.b A Datatyp(siz) R M Lvl/name

     0-0-0/w PTR         r     1 SUB_HEADING_ADDR

  ****  Section 004 LblCom SUB_HEADING_LEN

  ****  Scalars and arrays  ****
OctLoc.c.b A Datatyp(siz) R M Lvl/name                 OctLoc.c.b A Datatyp(siz) R M Lvl/name

     0-0-0/w SBIN        r     1 SUB_HEADING_LEN

  ****  Section 005 LblCom SUB_HEADING_ADDR1

  ****  Scalars and arrays  ****
OctLoc.c.b A Datatyp(siz) R M Lvl/name                 OctLoc.c.b A Datatyp(siz) R M Lvl/name

     0-0-0/w PTR         r     1 SUB_HEADING_ADDR1

PL6.E3A0      #005=Z9IL$INITIALIZE_LO File=Z9IL.:Z8A6TSI                         SAT 08/09/97 14:03 Page:79
  ****  Section 006 LblCom SUB_HEADING_LEN1

  ****  Scalars and arrays  ****
OctLoc.c.b A Datatyp(siz) R M Lvl/name                 OctLoc.c.b A Datatyp(siz) R M Lvl/name

     0-0-0/w SBIN        r     1 SUB_HEADING_LEN1

  ****  Section 007 LblCom SUB_HEADING_ADDR2

  ****  Scalars and arrays  ****
OctLoc.c.b A Datatyp(siz) R M Lvl/name                 OctLoc.c.b A Datatyp(siz) R M Lvl/name

     0-0-0/w PTR         r     1 SUB_HEADING_ADDR2

  ****  Section 008 LblCom SUB_HEADING_LEN2

  ****  Scalars and arrays  ****
OctLoc.c.b A Datatyp(siz) R M Lvl/name                 OctLoc.c.b A Datatyp(siz) R M Lvl/name

     0-0-0/w SBIN        r     1 SUB_HEADING_LEN2

  ****  Section 009 LblCom MAX_LINES_PER_PAGE

  ****  Scalars and arrays  ****
OctLoc.c.b A Datatyp(siz) R M Lvl/name                 OctLoc.c.b A Datatyp(siz) R M Lvl/name

     0-0-0/w SBIN              1 MAX_LINES_PER_PAGE

  ****  Section 010 LblCom LISTING_LINES_ON_PAGE

  ****  Scalars and arrays  ****
OctLoc.c.b A Datatyp(siz) R M Lvl/name                 OctLoc.c.b A Datatyp(siz) R M Lvl/name

     0-0-0/w SBIN              1 LISTING_LINES_ON_PAGE

  ****  Section 011 LblCom LISTING_PAGE_NUMBER

PL6.E3A0      #005=Z9IL$INITIALIZE_LO File=Z9IL.:Z8A6TSI                         SAT 08/09/97 14:03 Page:80
  ****  Scalars and arrays  ****
OctLoc.c.b A Datatyp(siz) R M Lvl/name                 OctLoc.c.b A Datatyp(siz) R M Lvl/name

     0-0-0/w SBIN              1 LISTING_PAGE_NUMBER

  ****  Section 012 LblCom PLINE

  ****  Scalars and arrays  ****
OctLoc.c.b A Datatyp(siz) R M Lvl/name                 OctLoc.c.b A Datatyp(siz) R M Lvl/name

     0-0-0/c CHAR(109)         1 PLINE
     0-0-0/c CHAR              1 PLINE_CHAR(0:108)
     0-0-0/c STRC(981)         1 PLINE_REDEF_FIELDS

  ****  Section 013 LblCom PLINE_LEN

  ****  Scalars and arrays  ****
OctLoc.c.b A Datatyp(siz) R M Lvl/name                 OctLoc.c.b A Datatyp(siz) R M Lvl/name

     0-0-0/w SBIN              1 PLINE_LEN

  ****  Section 015  Data  Z9IL$INITIALIZE_LO

  ****  Scalars and arrays  ****
OctLoc.c.b A Datatyp(siz) R M Lvl/name                 OctLoc.c.b A Datatyp(siz) R M Lvl/name

     0-0-0/w STRC(1026)  r     1 LO_HDR

  ****  Section 016 RoData Z9IL$INITIALIZE_LO

  ****  Scalars and arrays  ****
OctLoc.c.b A Datatyp(siz) R M Lvl/name                 OctLoc.c.b A Datatyp(siz) R M Lvl/name

     0-0-0/d STRC(360)   r     1 LO_LDEV

  ****  SYMREF variables  ****

PL6.E3A0      #005=Z9IL$INITIALIZE_LO File=Z9IL.:Z8A6TSI                         SAT 08/09/97 14:03 Page:81
  ****  Scalars and arrays  ****
OctLoc.c.b A Datatyp(siz) R M Lvl/name                 OctLoc.c.b A Datatyp(siz) R M Lvl/name

     0-0-0/c CHAR              1 BLANK                      0-0-0/d STRC(13248)       1 COMCOM
     0-0-0/c STRC(297)         1 DEF_LISTING_SUB_HEADING
     0-0-0/w PTR               1 PLINE_PTR$

  ****  BASED and DCB variables  ****

  ****  Scalars and arrays  ****
OctLoc.c.b A Datatyp(siz) R M Lvl/name                 OctLoc.c.b A Datatyp(siz) R M Lvl/name

     0-0-0/w CHAR(4096)        1 CHARS                      0-0-0/w STRC(72)          1 CONT
     0-0-0/c ACHR              1 LISTING_SUB_HEADING        0-0-0/c ACHR              1 LISTING_SUB_HEADING1
     0-0-0/c ACHR              1 LISTING_SUB_HEADING2       0-0-0N  NULL        r     1 M$LO
     0-0-0N  NULL        r     1 M$UC                       0-0-0/w STRC(36864)       1 PAGE


   Procedure Z9IL$INITIALIZE_LO requires 19 words for executable code.
   Procedure Z9IL$INITIALIZE_LO requires 4 words of local(AUTO) storage.

