PL6.E3A0      #002=Z9IO$ADD_TO_SCHEMA File=Z9IO.:Z8A6TSI                         SAT 08/09/97 14:06 Page:174
     1236        1        /*T***********************************************************/
     1237        2        /*T*                                                         */
     1238        3        /*T* Copyright (c) Bull HN Information Systems Inc., 1997    */
     1239        4        /*T*                                                         */
     1240        5        /*T***********************************************************/
     1241        6        Z9IO$ADD_TO_SCHEMA : PROC (STP$, P_LEVEL_NUMBER);
     1242        7
     1243        8        /*D*
     1244        9                NAME: Z9IO$ADD_TO_SCHEMA
     1245       10        DESCRIPTION:
     1246       11                  Add a symbol item to the symbol table, if the
     1247       12                  type of the item is applicable.
     1248       13                  A symbol table pointer and level number are passed to this
     1249       14                  routine as parameters.
     1250       15               */
     1251       16
     1252       17
     1253       18    1   DCL STP$ PTR;
     1254       19    1   DCL P_LEVEL_NUMBER SBIN WORD;
     1255       20
     1256       21        %EQU PHASE = 5;
     1257       22        %INCLUDE Z8A_DEFC;
     1258       90        %INCLUDE Z8A_SUPP_MAC;
     1259     2490        %INCLUDE Z9A_FLAGS;
     1260     2504        %INCLUDE Z8A_ST;
     1261     6163        %INCLUDE XUO$ENTRIES;
     1262     6214        %INCLUDE Z8A_DNT;
     1263     6435
     1264     6436        %INCLUDE Z9I_SCHEMA;
     1265     6465
     1266     6466
     1267     6467    1   DCL PROC_NAME_POINTER SBIN WORD;
     1268     6468
     1269     6469
     1270     6470        /* MAIN BODY OF Z9IO$ADD_TO_SCHEMA */
     1271     6471
     1272     6472    1   IF STP$ -> ST.DNT$ ~= ADDR(NIL)   AND   STP$ -> VARIABLE.B.COMPILER_CREATED ~= %TRUE
PL6.E3A0      #002=Z9IO$ADD_TO_SCHEMA File=Z9IO.:Z8A6TSI                         SAT 08/09/97 14:06 Page:175
              6472            THEN
     1273     6473    2     DO;
     1274     6474    3       DO CASE (STP$ -> ST.ID);
     1275     6475
     1276     6476    3         CASE ( %SCALAR, %ARRAY, %FD, %SD, %CD, %RD, %DB);
     1277     6477
     1278     6478    3            CALL XUO$DBGNAME (STP$ -> VARIABLE.DNT$ -> DNT.TEXT,
     1279     6479    3                              PROC_NAME_POINTER);
     1280     6480
     1281     6481    3            CALL XUO$VREBL (P_ADDRESS,
     1282     6482    3                            P_ADDRESS_TYPE,
     1283     6483    3                            P_DATA_TYPE,
     1284     6484    3                            P_REF_FLAG,
     1285     6485    3                            P_MODIFIED_FLAG,
     1286     6486    3                            P_LOG_SIZE,
     1287     6487    3                            P_LEVEL_NUMBER,
     1288     6488    3                            P_ALIGNMENT_TYPE,
     1289     6489    3                            P_SIZE_TYPE_FLAG,
     1290     6490    3                            P_ARRAY_TYPE,
     1291     6491    3                            P_OPERND_TYPE,
     1292     6492    3                            P_IMPLIED_POINTER,
     1293     6493    3                            P_OPERAND,
     1294     6494    3                            P_ELEMENT_SIZE,
     1295     6495    3                            P_SCALE_FACTOR,
     1296     6496    3                            P_DIMENSIONS,     /* Dimensions */
     1297     6497    3                            PROC_NAME_POINTER,
     1298     6498    3                             );
     1299     6499    3       END;  /* CASE ON ST.ID */
     1300     6500    2     END;
     1301     6501    1   END Z9IO$ADD_TO_SCHEMA;
     1302     6502        %EOD;

PL6.E3A0      #002=Z9IO$ADD_TO_SCHEMA File=Z9IO.:Z8A6TSI                         SAT 08/09/97 14:06 Page:176
--  Include file information  --

   Z9I_SCHEMA.:Z8A6TOU  cannot be made into a system file and is referenced.
   Z8A_DNT.:Z8A6TOU  cannot be made into a system file and is referenced.
   XUO$ENTRIES.:LIB_E04  cannot be made into a system file and is referenced.
   Z8A_ST.:Z8A6TOU  cannot be made into a system file and is referenced.
   Z9A_FLAGS.:Z8A6TOU  is referenced.
   X8A_COM_MACS.:X8A6TOU  is referenced.
   Z8A_NAMES.:Z8A6TOU  is referenced.
   Z8A_SUPP_MAC.:Z8A6TOU  is referenced.
   Z8A_DEFC.:Z8A6TOU  cannot be made into a system file and is referenced.
      No diagnostics issued in procedure Z9IO$ADD_TO_SCHEMA.

   Procedure Z9IO$ADD_TO_SCHEMA requires 67 words for executable code.
   Procedure Z9IO$ADD_TO_SCHEMA requires 24 words of local(AUTO) storage.

PL6.E3A0      #002=Z9IO$ADD_TO_SCHEMA File=Z9IO.:Z8A6TSI                         SAT 08/09/97 14:06 Page:177

 Object Unit name= Z9IO$ADD_TO_SCHEMA                         File name= Z9IO.:Z8A6TOU
 UTS= AUG 09 '97 14:06:00.88 SAT                              Compiler= PL-6/E31         Sev=      00
 SharedLib= :SHARED_SYSTEM                                    Alt SharedLib=


    ****  Control sections  ****

 Sect   Type Bound  Init  Size OctSiz  Section name(segment info)
    0  LblCom even  none     1      1  ITERATION
    1  LblCom even  none     1      1  ST$
    2  LblCom even  none     5      5  ST_
    3  LblCom even  none     1      1  DNT$
    4  LblCom even  none     5      5  DNT_
    5  LblCom even  none     1      1  DNT_BUCKET_NUMBER
    6  LblCom even  none     1      1  DNT_OF_1$
    7  LblCom even  none     1      1  P_ADDRESS
    8  LblCom even  none     1      1  P_ADDRESS_TYPE
    9  LblCom even  none     1      1  P_DATA_TYPE
   10  LblCom even  none     1      1  P_REF_FLAG
   11  LblCom even  none     1      1  P_MODIFIED_FLAG
   12  LblCom even  none     1      1  P_LOG_SIZE
   13  LblCom even  none     1      1  P_ALIGNMENT_TYPE
   14  LblCom even  none     1      1  P_SIZE_TYPE_FLAG
   15  LblCom even  none     1      1  P_ARRAY_TYPE
   16  LblCom even  none     1      1  P_OPERND_TYPE
   17  LblCom even  none     1      1  P_IMPLIED_POINTER
   18  LblCom even  none     1      1  P_OPERAND
   19  LblCom even  none     1      1  P_ELEMENT_SIZE
   20  LblCom even  none     1      1  P_SCALE_FACTOR
   21  LblCom even  none     1      1  P_DIMENSIONS
   22   Proc  even  none    67    103  Z9IO$ADD_TO_SCHEMA
   23  RoData even  none    18     22  Z9IO$ADD_TO_SCHEMA
PL6.E3A0      #002=Z9IO$ADD_TO_SCHEMA File=Z9IO.:Z8A6TSI                         SAT 08/09/97 14:06 Page:178

    ****  Entry defs  ****

                              Check   Calling
                             calling  sequence
  Sect OctLoc Primary Altret sequence   type   Parms  Name
    22      0   yes            yes      Std        2  Z9IO$ADD_TO_SCHEMA

  ****  Entry refs  ****

         Check        Calling
        calling       sequence
Altret sequence SRef   type   Args  Name
         yes           Std       2 XUO$DBGNAME
         yes           Std      19 XUO$VREBL
                       nStd      0 X66_AUTO_2
                       nStd      0 X66_ARET

  ****  Segment refs  ****

  Flags:  r = read only, s = secondary
Flgs Name                             Flgs Name                             Flgs Name
     NULLSID                               ISSID
PL6.E3A0      #002=Z9IO$ADD_TO_SCHEMA File=Z9IO.:Z8A6TSI                         SAT 08/09/97 14:06 Page:179


     1236        1        /*T***********************************************************/
     1237        2        /*T*                                                         */
     1238        3        /*T* Copyright (c) Bull HN Information Systems Inc., 1997    */
     1239        4        /*T*                                                         */
     1240        5        /*T***********************************************************/
     1241        6        Z9IO$ADD_TO_SCHEMA : PROC (STP$, P_LEVEL_NUMBER);

      6 22 000000   000000 700200 xent  Z9IO$ADD_TO* TSX0  ! X66_AUTO_2
        22 000001   000030 000002                    ZERO    24,2

     1242        7
     1243        8        /*D*
     1244        9                NAME: Z9IO$ADD_TO_SCHEMA
     1245       10        DESCRIPTION:
     1246       11                  Add a symbol item to the symbol table, if the
     1247       12                  type of the item is applicable.
     1248       13                  A symbol table pointer and level number are passed to this
     1249       14                  routine as parameters.
     1250       15               */
     1251       16
     1252       17
     1253       18    1   DCL STP$ PTR;
     1254       19    1   DCL P_LEVEL_NUMBER SBIN WORD;
     1255       20
     1256       21        %EQU PHASE = 5;
     1257       22        %INCLUDE Z8A_DEFC;
     1258       90        %INCLUDE Z8A_SUPP_MAC;
     1259     2490        %INCLUDE Z9A_FLAGS;
     1260     2504        %INCLUDE Z8A_ST;
     1261     6163        %INCLUDE XUO$ENTRIES;
     1262     6214        %INCLUDE Z8A_DNT;
     1263     6435
     1264     6436        %INCLUDE Z9I_SCHEMA;
     1265     6465
     1266     6466
     1267     6467    1   DCL PROC_NAME_POINTER SBIN WORD;
PL6.E3A0      #002=Z9IO$ADD_TO_SCHEMA File=Z9IO.:Z8A6TSI                         SAT 08/09/97 14:06 Page:180
     1268     6468
     1269     6469
     1270     6470        /* MAIN BODY OF Z9IO$ADD_TO_SCHEMA */
     1271     6471
     1272     6472    1   IF STP$ -> ST.DNT$ ~= ADDR(NIL)   AND  STP$ -> VARIABLE.B.COMPILER_CREATED ~= %TRUE
              6472            THEN

   6472 22 000002   200003 470500                    LDP0    @STP$,,AUTO
        22 000003   000000 471500                    LDP1    0,,PR0
        22 000004   100006 236100                    LDQ     6,,PR1
        22 000005   000000 116000 23                 CMPQ    0
        22 000006   000102 600000 22                 TZE     s:6501
        22 000007   100003 236100                    LDQ     3,,PR1
        22 000010   100000 316003                    CANQ    32768,DU
        22 000011   000102 601000 22                 TNZ     s:6501

     1273     6473    2     DO;

     1274     6474    3       DO CASE (STP$ -> ST.ID);

   6474 22 000012   100000 236100                    LDQ     0,,PR1
        22 000013   000022 772000                    QRL     18
        22 000014   000765 136007                    SBLQ    501,DL
        22 000015   000022 116007                    CMPQ    18,DL
        22 000016   000020 602006 22                 TNC     s:6474+6,QL
        22 000017   000102 710000 22                 TRA     s:6501
        22 000020   000042 710000 22                 TRA     s:6478
        22 000021   000042 710000 22                 TRA     s:6478
        22 000022   000102 710000 22                 TRA     s:6501
        22 000023   000102 710000 22                 TRA     s:6501
        22 000024   000102 710000 22                 TRA     s:6501
        22 000025   000102 710000 22                 TRA     s:6501
        22 000026   000102 710000 22                 TRA     s:6501
        22 000027   000102 710000 22                 TRA     s:6501
        22 000030   000102 710000 22                 TRA     s:6501
        22 000031   000102 710000 22                 TRA     s:6501
        22 000032   000102 710000 22                 TRA     s:6501
PL6.E3A0      #002=Z9IO$ADD_TO_SCHEMA File=Z9IO.:Z8A6TSI                         SAT 08/09/97 14:06 Page:181
        22 000033   000102 710000 22                 TRA     s:6501
        22 000034   000102 710000 22                 TRA     s:6501
        22 000035   000042 710000 22                 TRA     s:6478
        22 000036   000042 710000 22                 TRA     s:6478
        22 000037   000042 710000 22                 TRA     s:6478
        22 000040   000042 710000 22                 TRA     s:6478
        22 000041   000042 710000 22                 TRA     s:6478

     1275     6475
     1276     6476    3         CASE ( %SCALAR, %ARRAY, %FD, %SD, %CD, %RD, %DB);

     1277     6477
     1278     6478    3            CALL XUO$DBGNAME (STP$ -> VARIABLE.DNT$ -> DNT.TEXT,

   6478 22 000042   100006 473500                    LDP3    6,,PR1
        22 000043   200005 634500                    EPPR4   PROC_NAME_POINTER,,AUTO
        22 000044   200007 454500                    STP4    PROC_NAME_POINTER+2,,AUTO
        22 000045   300004 631500                    EPPR1   4,,PR3
        22 000046   200006 451500                    STP1    PROC_NAME_POINTER+1,,AUTO
        22 000047   200006 630500                    EPPR0   PROC_NAME_POINTER+1,,AUTO
        22 000050   000001 631400 23                 EPPR1   1
        22 000051   000000 701000 xent               TSX1    XUO$DBGNAME
        22 000052   000000 011000                    NOP     0

     1279     6479    3                              PROC_NAME_POINTER);
     1280     6480
     1281     6481    3            CALL XUO$VREBL (P_ADDRESS,

   6481 22 000053   200005 630500                    EPPR0   PROC_NAME_POINTER,,AUTO
        22 000054   200026 450500                    STP0    PROC_NAME_POINTER+17,,AUTO
        22 000055   000004 237000 23                 LDAQ    4
        22 000056   200024 757100                    STAQ    PROC_NAME_POINTER+15,,AUTO
        22 000057   000006 237000 23                 LDAQ    6
        22 000060   200022 757100                    STAQ    PROC_NAME_POINTER+13,,AUTO
        22 000061   000010 237000 23                 LDAQ    8
        22 000062   200020 757100                    STAQ    PROC_NAME_POINTER+11,,AUTO
        22 000063   000012 237000 23                 LDAQ    10
PL6.E3A0      #002=Z9IO$ADD_TO_SCHEMA File=Z9IO.:Z8A6TSI                         SAT 08/09/97 14:06 Page:182
        22 000064   200016 757100                    STAQ    PROC_NAME_POINTER+9,,AUTO
        22 000065   000003 236000 23                 LDQ     3
        22 000066   200004 235100                    LDA     @P_LEVEL_NUMBER,,AUTO
        22 000067   200014 757100                    STAQ    PROC_NAME_POINTER+7,,AUTO
        22 000070   000014 237000 23                 LDAQ    12
        22 000071   200012 757100                    STAQ    PROC_NAME_POINTER+5,,AUTO
        22 000072   000016 237000 23                 LDAQ    14
        22 000073   200010 757100                    STAQ    PROC_NAME_POINTER+3,,AUTO
        22 000074   000020 237000 23                 LDAQ    16
        22 000075   200006 757100                    STAQ    PROC_NAME_POINTER+1,,AUTO
        22 000076   200006 630500                    EPPR0   PROC_NAME_POINTER+1,,AUTO
        22 000077   000002 631400 23                 EPPR1   2
        22 000100   000000 701000 xent               TSX1    XUO$VREBL
        22 000101   000000 011000                    NOP     0

     1282     6482    3                            P_ADDRESS_TYPE,
     1283     6483    3                            P_DATA_TYPE,
     1284     6484    3                            P_REF_FLAG,
     1285     6485    3                            P_MODIFIED_FLAG,
     1286     6486    3                            P_LOG_SIZE,
     1287     6487    3                            P_LEVEL_NUMBER,
     1288     6488    3                            P_ALIGNMENT_TYPE,
     1289     6489    3                            P_SIZE_TYPE_FLAG,
     1290     6490    3                            P_ARRAY_TYPE,
     1291     6491    3                            P_OPERND_TYPE,
     1292     6492    3                            P_IMPLIED_POINTER,
     1293     6493    3                            P_OPERAND,
     1294     6494    3                            P_ELEMENT_SIZE,
     1295     6495    3                            P_SCALE_FACTOR,
     1296     6496    3                            P_DIMENSIONS,     /* Dimensions */
     1297     6497    3                            PROC_NAME_POINTER,
     1298     6498    3                             );
     1299     6499    3       END;  /* CASE ON ST.ID */

     1300     6500    2     END;

     1301     6501    1   END Z9IO$ADD_TO_SCHEMA;
PL6.E3A0      #002=Z9IO$ADD_TO_SCHEMA File=Z9IO.:Z8A6TSI                         SAT 08/09/97 14:06 Page:183

   6501 22 000102   000000 702200 xent               TSX2  ! X66_ARET
     1302     6502        %EOD;

PL6.E3A0      #002=Z9IO$ADD_TO_SCHEMA File=Z9IO.:Z8A6TSI                         SAT 08/09/97 14:06 Page:184
--  Include file information  --

   Z9I_SCHEMA.:Z8A6TOU  cannot be made into a system file and is referenced.
   Z8A_DNT.:Z8A6TOU  cannot be made into a system file and is referenced.
   XUO$ENTRIES.:LIB_E04  cannot be made into a system file and is referenced.
   Z8A_ST.:Z8A6TOU  cannot be made into a system file and is referenced.
   Z9A_FLAGS.:Z8A6TOU  is referenced.
   X8A_COM_MACS.:X8A6TOU  is referenced.
   Z8A_NAMES.:Z8A6TOU  is referenced.
   Z8A_SUPP_MAC.:Z8A6TOU  is referenced.
   Z8A_DEFC.:Z8A6TOU  cannot be made into a system file and is referenced.
      No diagnostics issued in procedure Z9IO$ADD_TO_SCHEMA.
PL6.E3A0      #002=Z9IO$ADD_TO_SCHEMA File=Z9IO.:Z8A6TSI                         SAT 08/09/97 14:06 Page:185

 **** Variables and constants ****

  ****  Section 000 LblCom ITERATION

  ****  Scalars and arrays  ****
OctLoc.c.b A Datatyp(siz) R M Lvl/name                 OctLoc.c.b A Datatyp(siz) R M Lvl/name

     0-0-0/w SBIN              1 ITERATION

  ****  Section 001 LblCom ST$

  ****  Scalars and arrays  ****
OctLoc.c.b A Datatyp(siz) R M Lvl/name                 OctLoc.c.b A Datatyp(siz) R M Lvl/name

     0-0-0/w PTR         r     1 ST$

  ****  Section 002 LblCom ST_

  ****  Scalars and arrays  ****
OctLoc.c.b A Datatyp(siz) R M Lvl/name                 OctLoc.c.b A Datatyp(siz) R M Lvl/name

     0-0-0/w STRC(180)         1 ST_

  ****  Section 003 LblCom DNT$

  ****  Scalars and arrays  ****
OctLoc.c.b A Datatyp(siz) R M Lvl/name                 OctLoc.c.b A Datatyp(siz) R M Lvl/name

     0-0-0/w PTR         r     1 DNT$

  ****  Section 004 LblCom DNT_

  ****  Scalars and arrays  ****
OctLoc.c.b A Datatyp(siz) R M Lvl/name                 OctLoc.c.b A Datatyp(siz) R M Lvl/name

     0-0-0/w STRC(180)         1 DNT_

PL6.E3A0      #002=Z9IO$ADD_TO_SCHEMA File=Z9IO.:Z8A6TSI                         SAT 08/09/97 14:06 Page:186
  ****  Section 005 LblCom DNT_BUCKET_NUMBER

  ****  Scalars and arrays  ****
OctLoc.c.b A Datatyp(siz) R M Lvl/name                 OctLoc.c.b A Datatyp(siz) R M Lvl/name

     0-0-0/w UBIN              1 DNT_BUCKET_NUMBER

  ****  Section 006 LblCom DNT_OF_1$

  ****  Scalars and arrays  ****
OctLoc.c.b A Datatyp(siz) R M Lvl/name                 OctLoc.c.b A Datatyp(siz) R M Lvl/name

     0-0-0/w PTR               1 DNT_OF_1$

  ****  Section 007 LblCom P_ADDRESS

  ****  Scalars and arrays  ****
OctLoc.c.b A Datatyp(siz) R M Lvl/name                 OctLoc.c.b A Datatyp(siz) R M Lvl/name

     0-0-0/w SBIN        r     1 P_ADDRESS

  ****  Section 008 LblCom P_ADDRESS_TYPE

  ****  Scalars and arrays  ****
OctLoc.c.b A Datatyp(siz) R M Lvl/name                 OctLoc.c.b A Datatyp(siz) R M Lvl/name

     0-0-0/w SBIN        r     1 P_ADDRESS_TYPE

  ****  Section 009 LblCom P_DATA_TYPE

  ****  Scalars and arrays  ****
OctLoc.c.b A Datatyp(siz) R M Lvl/name                 OctLoc.c.b A Datatyp(siz) R M Lvl/name

     0-0-0/w SBIN        r     1 P_DATA_TYPE

  ****  Section 010 LblCom P_REF_FLAG

PL6.E3A0      #002=Z9IO$ADD_TO_SCHEMA File=Z9IO.:Z8A6TSI                         SAT 08/09/97 14:06 Page:187
  ****  Scalars and arrays  ****
OctLoc.c.b A Datatyp(siz) R M Lvl/name                 OctLoc.c.b A Datatyp(siz) R M Lvl/name

     0-0-0/b BIT         r     1 P_REF_FLAG

  ****  Section 011 LblCom P_MODIFIED_FLAG

  ****  Scalars and arrays  ****
OctLoc.c.b A Datatyp(siz) R M Lvl/name                 OctLoc.c.b A Datatyp(siz) R M Lvl/name

     0-0-0/b BIT         r     1 P_MODIFIED_FLAG

  ****  Section 012 LblCom P_LOG_SIZE

  ****  Scalars and arrays  ****
OctLoc.c.b A Datatyp(siz) R M Lvl/name                 OctLoc.c.b A Datatyp(siz) R M Lvl/name

     0-0-0/w SBIN        r     1 P_LOG_SIZE

  ****  Section 013 LblCom P_ALIGNMENT_TYPE

  ****  Scalars and arrays  ****
OctLoc.c.b A Datatyp(siz) R M Lvl/name                 OctLoc.c.b A Datatyp(siz) R M Lvl/name

     0-0-0/w SBIN        r     1 P_ALIGNMENT_TYPE

  ****  Section 014 LblCom P_SIZE_TYPE_FLAG

  ****  Scalars and arrays  ****
OctLoc.c.b A Datatyp(siz) R M Lvl/name                 OctLoc.c.b A Datatyp(siz) R M Lvl/name

     0-0-0/b BIT         r     1 P_SIZE_TYPE_FLAG

  ****  Section 015 LblCom P_ARRAY_TYPE

  ****  Scalars and arrays  ****
OctLoc.c.b A Datatyp(siz) R M Lvl/name                 OctLoc.c.b A Datatyp(siz) R M Lvl/name
PL6.E3A0      #002=Z9IO$ADD_TO_SCHEMA File=Z9IO.:Z8A6TSI                         SAT 08/09/97 14:06 Page:188

     0-0-0/w SBIN        r     1 P_ARRAY_TYPE

  ****  Section 016 LblCom P_OPERND_TYPE

  ****  Scalars and arrays  ****
OctLoc.c.b A Datatyp(siz) R M Lvl/name                 OctLoc.c.b A Datatyp(siz) R M Lvl/name

     0-0-0/w SBIN        r     1 P_OPERND_TYPE

  ****  Section 017 LblCom P_IMPLIED_POINTER

  ****  Scalars and arrays  ****
OctLoc.c.b A Datatyp(siz) R M Lvl/name                 OctLoc.c.b A Datatyp(siz) R M Lvl/name

     0-0-0/w SBIN        r     1 P_IMPLIED_POINTER

  ****  Section 018 LblCom P_OPERAND

  ****  Scalars and arrays  ****
OctLoc.c.b A Datatyp(siz) R M Lvl/name                 OctLoc.c.b A Datatyp(siz) R M Lvl/name

     0-0-0/w SBIN        r     1 P_OPERAND

  ****  Section 019 LblCom P_ELEMENT_SIZE

  ****  Scalars and arrays  ****
OctLoc.c.b A Datatyp(siz) R M Lvl/name                 OctLoc.c.b A Datatyp(siz) R M Lvl/name

     0-0-0/w SBIN        r     1 P_ELEMENT_SIZE

  ****  Section 020 LblCom P_SCALE_FACTOR

  ****  Scalars and arrays  ****
OctLoc.c.b A Datatyp(siz) R M Lvl/name                 OctLoc.c.b A Datatyp(siz) R M Lvl/name

     0-0-0/w SBIN        r     1 P_SCALE_FACTOR
PL6.E3A0      #002=Z9IO$ADD_TO_SCHEMA File=Z9IO.:Z8A6TSI                         SAT 08/09/97 14:06 Page:189

  ****  Section 021 LblCom P_DIMENSIONS

  ****  Scalars and arrays  ****
OctLoc.c.b A Datatyp(siz) R M Lvl/name                 OctLoc.c.b A Datatyp(siz) R M Lvl/name

     0-0-0/w SBIN        r     1 P_DIMENSIONS

  ****  Auto variables  ****

  ****  Scalars and arrays  ****
OctLoc.c.b A Datatyp(siz) R M Lvl/name                 OctLoc.c.b A Datatyp(siz) R M Lvl/name

     4-0-0/w PTR         r     1 @P_LEVEL_NUMBER            3-0-0/w PTR         r     1 @STP$
     5-0-0/w SBIN        r     1 PROC_NAME_POINTER         *0-0-0/w SBIN        r     1 P_LEVEL_NUMBER
    *0-0-0/w PTR         r     1 STP$

  ****  BASED and DCB variables  ****

  ****  Scalars and arrays  ****
OctLoc.c.b A Datatyp(siz) R M Lvl/name                 OctLoc.c.b A Datatyp(siz) R M Lvl/name

     0-0-0/w STRC(396)         1 ALPHABET                   0-0-0/w STRC(396)         1 ARRAY
     0-0-0/w STRC(396)         1 BLOCK                      0-0-0/w STRC(396)         1 CD
     0-0-0/w CHAR(4096)        1 CHARS                      0-0-0/w STRC(396)         1 CLASS
     0-0-0/w STRC(396)         1 CONDITION                  0-0-0/w STRC(396)         1 CONST
     0-0-0/w STRC(72)          1 CONT                       0-0-0/w STRC(396)         1 DB
     0-0-0/w STRC(396)         1 DCB_                       0-0-0/w STRC(396)         1 DML_ITEM
     0-0-0/w ASTR(180)   r     1 DNT                        0-0-0/w STRC(396)         1 FD
     0-0-0/w STRC(396)         1 INTDEF                     0-0-0/w STRC(396)         1 LABEL
     0-0-0/w STRC(396)         1 MNEMONIC                   0-0-0/w STRC(36864)       1 PAGE
     0-0-0/w STRC(396)         1 PARA                       0-0-0/w STRC(396)         1 PROC_
     0-0-0/w STRC(396)         1 PROC_DEF                   0-0-0/w STRC(396)         1 RD
     0-0-0/w STRC(396)         1 SCALAR                     0-0-0/w STRC(396)         1 SD
     0-0-0/w STRC(396)         1 SECTION                    0-0-0/w STRC(396)         1 SEGMENT
     0-0-0/w STRC(396)   r     1 ST                         0-0-0/w STRC(396)         1 SWITCH
     0-0-0/w STRC(396)         1 SYMBOLIC_CHAR              0-0-0/w STRC(396)         1 SYMDEF_
PL6.E3A0      #002=Z9IO$ADD_TO_SCHEMA File=Z9IO.:Z8A6TSI                         SAT 08/09/97 14:06 Page:190
     0-0-0/w STRC(396)         1 SYMREF_                    0-0-0/w STRC(396)         1 TEMP
     0-0-0/w STRC(396)   r     1 VARIABLE


   Procedure Z9IO$ADD_TO_SCHEMA requires 67 words for executable code.
   Procedure Z9IO$ADD_TO_SCHEMA requires 24 words of local(AUTO) storage.

PL6.E3A0      #003=Z9IO$CALC_SCHEMA_INFO File=Z9IO.:Z8A6TSI                      SAT 08/09/97 14:07 Page:191
     1303        1        /*T***********************************************************/
     1304        2        /*T*                                                         */
     1305        3        /*T* Copyright (c) Bull HN Information Systems Inc., 1997    */
     1306        4        /*T*                                                         */
     1307        5        /*T***********************************************************/
     1308        6
     1309        7        Z9IO$CALC_SCHEMA_INFO : PROC(STP$);
     1310        8
     1311        9        /*D*
     1312       10                NAME: Z9IO$CALC_SCHEMA_INFO
     1313       11         DESCRIPTION:  Calculate the parameters necessary for entering
     1314       12                       a variable into the debug schema.  This information is
     1315       13                       used by Z9IO$ADD_TO_SCHEMA to actually set up the debug
     1316       14                       schema, as well as Z9IL$DM_ENTRY to print a data map in the
     1317       15                       LSTOU.
     1318       16        */
     1319       17
     1320       18    1   DCL STP$ PTR;
     1321       19    1   DCL P_LEVEL_NUMBER SBIN WORD;
     1322       20
     1323       21        %EQU PHASE = 5;
     1324       22        %INCLUDE Z8A_DEFC;
     1325       90        %INCLUDE Z8A_SUPP_MAC;
     1326     2490        %INCLUDE Z8A_TYPES;
     1327     2664        %INCLUDE Z8A_ST;
     1328     6323        %INCLUDE Z8A_DNT;
     1329     6544        %INCLUDE Z8A_COMCOM;
     1330     7194        %INCLUDE Z8A_LTS;
     1331     9271        %INCLUDE Z8A_QLT;
     1332     9377
     1333     9378                 /* EXTERNAL DATA */
     1334     9379
     1335     9380
     1336     9381        %INCLUDE Z9I_SCHEMA;
     1337     9410        %INCLUDE B$OBJECT_C;
     1338    12840        %VREBL_DATATYPES;
     1339    12915
PL6.E3A0      #003=Z9IO$CALC_SCHEMA_INFO File=Z9IO.:Z8A6TSI                      SAT 08/09/97 14:07 Page:192
     1340    12916    1   DCL DIVVAL SBIN WORD;    /* Temporary DIV AND MOD values */
     1341    12917    1   DCL MODVAL SBIN WORD;
     1342    12918    1   DCL DIMP$ PTR;
     1343    12919    1   DCL LONGP$ PTR;
     1344    12920
     1345    12921    1   DCL Z9IO$PTRLOC SBIN SYMREF;
     1346    12922
     1347    12923
     1348    12924        %EJECT;
PL6.E3A0      #003=Z9IO$CALC_SCHEMA_INFO File=Z9IO.:Z8A6TSI                      SAT 08/09/97 14:07 Page:193
     1349    12925        %MACRO CALC_ELEM_SIZE(OCC="0", DIMED="0");
     1350    12926          IF STP$ -> ST.ID = %ARRAY AND (NOT STP$ -> ARRAY.QLT$ -> QLT.B.OCCURS) THEN
     1351    12927            P_ELEMENT_SIZE = (DIMP$ -> DIMS.D.SPAN
     1352    12928                               ((DIMP$ -> DIMS.N - %MIN_DIM_SIZE) / %NO_WORDS_PER_DIM))
     1353    12929                                   * OCC;
     1354    12930          ELSE
     1355    12931            IF STP$ -> VARIABLE.QLT$ -> QLT.B.OCCURS THEN
     1356    12932              P_ELEMENT_SIZE = DIMED;
     1357    12933            ELSE
     1358    12934              P_ELEMENT_SIZE = 0;
     1359    12935        %MEND;
     1360    12936        %EJECT;
PL6.E3A0      #003=Z9IO$CALC_SCHEMA_INFO File=Z9IO.:Z8A6TSI                      SAT 08/09/97 14:07 Page:194
     1361    12937               /* Main body of Z9IO$CALC_SCHEMA_INFO */
     1362    12938
     1363    12939
     1364    12940
     1365    12941
     1366    12942
     1367    12943    1     IF STP$ -> ST.DNT$ ~= ADDR(NIL) AND   STP$ -> VARIABLE.B.COMPILER_CREATED ~= %TRUE
             12943              THEN
     1368    12944    2       DO;
     1369    12945               /* Defaults for variables */
     1370    12946
     1371    12947    2          P_ADDRESS = STP$ -> ST.SA * 36;
     1372    12948
     1373    12949    3          IF STP$ -> VARIABLE.B.LINKAGE THEN DO;
     1374    12950    3            P_ADDRESS_TYPE = 7; /* Parameter */
     1375    12951    3            P_IMPLIED_POINTER = Z9IO$PTRLOC;
     1376    12952    3          END;
     1377    12953    3          ELSE DO; /* Local or EXTERNAL variable */
     1378    12954    3            P_ADDRESS_TYPE = 1;     /* Static from ISR */
     1379    12955    3            P_IMPLIED_POINTER = 0;
     1380    12956    3          END;
     1381    12957    2          P_SIZE_TYPE_FLAG = '0'B;
     1382    12958
     1383    12959    2          IF STP$ -> VARIABLE.LTS$ ~= ADDR(NIL) THEN
     1384    12960    2            IF STP$ -> VARIABLE.LTS$ -> LTS.ID = %LTSS THEN
     1385    12961    3              DO;
     1386    12962    3                DIMP$ = STP$ -> VARIABLE.LTS$ -> LTSS.DIMS$;
     1387    12963    3                LONGP$ = STP$ -> VARIABLE.LTS$ -> LTSS.LONG$;
     1388    12964    3              END;
     1389    12965    2            ELSE
     1390    12966    3              DO;
     1391    12967    3                DIMP$ = STP$ -> VARIABLE.LTS$;
     1392    12968    3                LONGP$ = STP$ -> VARIABLE.LTS$;
     1393    12969    3              END;
     1394    12970    2          ELSE
     1395    12971    3            DO;
     1396    12972    3              DIMP$ = ADDR(NIL);
PL6.E3A0      #003=Z9IO$CALC_SCHEMA_INFO File=Z9IO.:Z8A6TSI                      SAT 08/09/97 14:07 Page:195
     1397    12973    3              LONGP$ = ADDR(NIL);
     1398    12974    3            END;
     1399    12975    2          IF STP$ -> ST.ID = %ARRAY THEN
     1400    12976    2            P_DIMENSIONS = DIMP$ -> DIMS.D.DIM
     1401    12977    2                                ((DIMP$ -> DIMS.N - %MIN_DIM_SIZE) /
     1402    12978    2                                       %NO_WORDS_PER_DIM);
     1403    12979    2          ELSE
     1404    12980    2            P_DIMENSIONS = 0;
     1405    12981
     1406    12982    2          P_OPERND_TYPE = %PROGRAM;    /* SECTION */
     1407    12983    2          P_OPERAND = STP$ -> ST.COUNT + COMCOM.SEGMENTC - 1;
     1408    12984
     1409    12985    3          DO CASE (STP$ -> ST.ID);
     1410    12986
     1411    12987    3            CASE ( %SCALAR, %ARRAY);
     1412    12988
     1413    12989
     1414    12990    4              DO CASE (STP$ -> VARIABLE.TYPE);
     1415    12991
     1416    12992
     1417    12993    4                CASE (%TYI);      /* Integer (comp-6) */
     1418    12994
     1419    12995    4                    P_DATA_TYPE = %SBIN_DATATYPE;     /* COMP-6 */
     1420    12996    4                    P_LOG_SIZE = 36;   /* 1 WORD */
     1421    12997    4                    P_ALIGNMENT_TYPE = 1;   /* WORD ALIGNMENT */
     1422    12998    4                    P_SCALE_FACTOR = STP$ -> VARIABLE.NDSC.SF;
     1423    12999                         %CALC_ELEM_SIZE(OCC="36", DIMED="36");
     1424    13010
     1425    13011    4                CASE (%TYP);      /* pointer  */
     1426    13012
     1427    13013    4                    P_DATA_TYPE = %POINTER_DATATYPE;
     1428    13014    4                    P_LOG_SIZE = 1;   /* 1 WORD */
     1429    13015    4                    P_ALIGNMENT_TYPE = 1;   /* WORD ALIGNMENT */
     1430    13016    4                    P_SCALE_FACTOR = 0;
     1431    13017                         %CALC_ELEM_SIZE(OCC="36", DIMED="36");
     1432    13028
     1433    13029
PL6.E3A0      #003=Z9IO$CALC_SCHEMA_INFO File=Z9IO.:Z8A6TSI                      SAT 08/09/97 14:07 Page:196
     1434    13030    4                CASE (%TYA);    /* Display (ascii alphanumeric) */
     1435    13031
     1436    13032    4                  IF STP$ -> VARIABLE.B.ELEMENTARY THEN
     1437    13033    5                    DO;
     1438    13034    5                      P_ADDRESS = P_ADDRESS + ((STP$ -> VARIABLE.ADSC.CN) * 9);
     1439    13035    5                      P_DATA_TYPE = %CHAR_DATATYPE;
     1440    13036    5                      IF STP$ -> VARIABLE.B.LENGTH_4096 THEN
     1441    13037    5                        P_LOG_SIZE = LONGP$ -> LONG.LENGTH;
     1442    13038    5                      ELSE
     1443    13039    5                        P_LOG_SIZE = STP$ -> VARIABLE.ADSC.N;
     1444    13040    5                      P_ALIGNMENT_TYPE = 3;   /* BYTE ALIGNED */
     1445    13041    5                      P_SCALE_FACTOR = 0;
     1446    13042                           %CALC_ELEM_SIZE(OCC="9", DIMED="P_LOG_SIZE * 9");
     1447    13053    5                    END;
     1448    13054    4                  ELSE
     1449    13055    5                    DO;   /* Structure */
     1450    13056    5                      P_ADDRESS = P_ADDRESS + ((STP$ -> VARIABLE.ADSC.CN) * 9);
     1451    13057    5                      P_DATA_TYPE = %CHAR_DATATYPE;
     1452    13058    5                      IF STP$ -> VARIABLE.B.LENGTH_4096 THEN
     1453    13059    5                        P_LOG_SIZE = LONGP$ -> LONG.LENGTH;
     1454    13060    5                      ELSE
     1455    13061    5                        P_LOG_SIZE = STP$ -> VARIABLE.ADSC.N;
     1456    13062    5                      P_ALIGNMENT_TYPE = 3;  /* BYTE ALIGNED */
     1457    13063    5                      P_SCALE_FACTOR = 0;
     1458    13064                           %CALC_ELEM_SIZE(OCC="9", DIMED="P_LOG_SIZE * 9");
     1459    13075    5                    END;
     1460    13076
     1461    13077
     1462    13078    4                CASE (%TYD);    /* Decimal */
     1463    13079
     1464    13080    5                  DO CASE (BITBIN (STP$ -> VARIABLE.NDSC.TN));
     1465    13081
     1466    13082    5                    CASE (0);   /* Unpacked */
     1467    13083
     1468    13084    5                      P_ADDRESS = P_ADDRESS + (STP$ -> VARIABLE.NDSC.CN / 2)*9;
     1469    13085    5                      P_ALIGNMENT_TYPE = 3;   /* Byte */
     1470    13086    5                      P_SCALE_FACTOR = STP$ -> VARIABLE.NDSC.SF;
PL6.E3A0      #003=Z9IO$CALC_SCHEMA_INFO File=Z9IO.:Z8A6TSI                      SAT 08/09/97 14:07 Page:197
     1471    13087    5                      P_LOG_SIZE = STP$ -> VARIABLE.NDSC.N;
     1472    13088                           %CALC_ELEM_SIZE(OCC="9", DIMED="STP$ -> VARIABLE.NDSC.N * 9");
     1473    13099
     1474    13100    6                      DO CASE (BITBIN (STP$ -> VARIABLE.NDSC.S));
     1475    13101
     1476    13102    6                        CASE (1);   /* Leading sign */
     1477    13103
     1478    13104    6                          P_DATA_TYPE = %UDLS_DATATYPE;
     1479    13105
     1480    13106    6                        CASE (2);   /* Trailing sign */
     1481    13107
     1482    13108    6                          P_DATA_TYPE = %UDTS_DATATYPE;
     1483    13109
     1484    13110    6                        CASE (3);   /* No sign */
     1485    13111
     1486    13112    6                          P_DATA_TYPE = %UDNS_DATATYPE;
     1487    13113
     1488    13114    6                      END;   /* Case on unpacked s */
     1489    13115
     1490    13116    5                    CASE (1);   /* Packed */
     1491    13117
     1492    13118    5                      DIVVAL = STP$ -> VARIABLE.NDSC.CN / 2;
     1493    13119    5                      MODVAL = MOD(STP$ -> VARIABLE.NDSC.CN, 2);
     1494    13120    5                      P_ADDRESS = P_ADDRESS + (DIVVAL*9) + (MODVAL*5);
     1495    13121    5                      P_SCALE_FACTOR = STP$ -> VARIABLE.NDSC.SF;
     1496    13122    5                      P_LOG_SIZE = STP$ -> VARIABLE.NDSC.N;
     1497    13123
     1498    13124    5                      IF STP$ -> VARIABLE.QLT$ -> QLT.B.DIGIT THEN
     1499    13125    6                        DO;   /* COMP4 OR COMP-8 */
     1500    13126    6                          P_ALIGNMENT_TYPE = 4;   /* Bit aligned */
     1501    13127                               %CALC_ELEM_SIZE(OCC="9 + 1", DIMED=
             13127                                   "STP$ -> VARIABLE.NDSC.N * 9");
     1502    13138    6                          P_ELEMENT_SIZE = P_ELEMENT_SIZE / 2;
     1503    13139    6                        END;
     1504    13140    5                      ELSE
     1505    13141    6                        DO;   /* Other */
     1506    13142    6                          P_ALIGNMENT_TYPE = 3;   /* BYTE */
PL6.E3A0      #003=Z9IO$CALC_SCHEMA_INFO File=Z9IO.:Z8A6TSI                      SAT 08/09/97 14:07 Page:198
     1507    13143    6                          DIVVAL = (STP$ -> VARIABLE.NDSC.N + 1) / 2;
     1508    13144
     1509    13145    6                          IF STP$ -> ST.ID = %ARRAY AND (NOT STP$ -> ARRAY.QLT$ -> QLT.
             13145                                   B.OCCURS) THEN
     1510    13146    6                            P_ELEMENT_SIZE = ((DIMP$ -> DIMS.D.SPAN
     1511    13147    6                                               ((DIMP$ -> DIMS.N - %MIN_DIM_SIZE) / %
             13147                                                        NO_WORDS_PER_DIM))
     1512    13148    6                                                  / 2) * 9;
     1513    13149    6                          ELSE
     1514    13150    6                          IF STP$ -> VARIABLE.QLT$ -> QLT.B.OCCURS THEN
     1515    13151    6                            P_ELEMENT_SIZE = DIVVAL * 9;
     1516    13152    6                          ELSE
     1517    13153    6                            P_ELEMENT_SIZE = 0;
     1518    13154
     1519    13155    6                        END;
     1520    13156
     1521    13157    6                      DO CASE (BITBIN(STP$ -> VARIABLE.NDSC.S));
     1522    13158
     1523    13159    6                        CASE (1);   /* Leading sign */
     1524    13160    6                          IF STP$ -> VARIABLE.B.P THEN
     1525    13161    6                            P_DATA_TYPE = %PDLE_DATATYPE;
     1526    13162    6                          ELSE
     1527    13163    6                            P_DATA_TYPE = %PDLA_DATATYPE;
     1528    13164
     1529    13165    6                        CASE (2);   /* Trailing sign */
     1530    13166    6                          IF STP$ -> VARIABLE.B.P THEN
     1531    13167    6                            P_DATA_TYPE = %PDTE_DATATYPE;
     1532    13168    6                          ELSE
     1533    13169    6                            P_DATA_TYPE = %PDTA_DATATYPE;
     1534    13170
     1535    13171    6                        CASE (3);   /* No sign */
     1536    13172    6                          P_DATA_TYPE = %PDNS_DATATYPE;
     1537    13173
     1538    13174    6                      END;   /* Case on packed S */
     1539    13175
     1540    13176
     1541    13177    5                  END;  /* Case on TN */
PL6.E3A0      #003=Z9IO$CALC_SCHEMA_INFO File=Z9IO.:Z8A6TSI                      SAT 08/09/97 14:07 Page:199
     1542    13178
     1543    13179
     1544    13180
     1545    13181    4                CASE (%TYO);   /* Overpunched */
     1546    13182
     1547    13183    4                  P_ADDRESS = P_ADDRESS + ((STP$ -> VARIABLE.NDSC.CN / 2)*9);
     1548    13184    4                  P_ALIGNMENT_TYPE = 3;   /* Bytes */
     1549    13185
     1550    13186    5                  DO CASE (BITBIN(STP$ -> VARIABLE.NDSC.S));
     1551    13187
     1552    13188    5                    CASE (1);   /* Leading sign */
     1553    13189
     1554    13190    5                      P_DATA_TYPE = %UDLO_DATATYPE;
     1555    13191
     1556    13192    5                    CASE (2);   /* trailing sign */
     1557    13193
     1558    13194    5                      P_DATA_TYPE = %UDTO_DATATYPE;
     1559    13195
     1560    13196    5                  END;  /* Case on  S */
     1561    13197
     1562    13198    4                  P_LOG_SIZE = STP$ -> VARIABLE.NDSC.N;
     1563    13199    4                  P_SCALE_FACTOR = STP$ -> VARIABLE.NDSC.SF;
     1564    13200                       %CALC_ELEM_SIZE(OCC="9", DIMED="P_LOG_SIZE * 9");
     1565    13211
     1566    13212
     1567    13213    4                CASE (%TYJ);   /* COMP-1 */
     1568    13214
     1569    13215    4                  P_ADDRESS = P_ADDRESS + ((STP$ -> VARIABLE.NDSC.CN/2)*9);
     1570    13216    4                  P_ALIGNMENT_TYPE = 3;  /* BYTE */
     1571    13217    4                  P_SCALE_FACTOR = STP$ -> VARIABLE.NDSC.SF;
     1572    13218    4                  P_DATA_TYPE = %COMP1_DATATYPE;
     1573    13219    4                  P_LOG_SIZE = 18;
     1574    13220                       %CALC_ELEM_SIZE(OCC="18", DIMED="18");
     1575    13231
     1576    13232    4                CASE (%TYK);   /* COMP-2 */
     1577    13233
     1578    13234    4                  P_ADDRESS = P_ADDRESS + ((STP$ -> VARIABLE.NDSC.CN/2)*9);
PL6.E3A0      #003=Z9IO$CALC_SCHEMA_INFO File=Z9IO.:Z8A6TSI                      SAT 08/09/97 14:07 Page:200
     1579    13235    4                  P_ALIGNMENT_TYPE = 3;  /* BYTE */
     1580    13236    4                  P_SCALE_FACTOR = STP$ -> VARIABLE.NDSC.SF;
     1581    13237    4                  P_DATA_TYPE = %COMP2_DATATYPE;
     1582    13238    4                  P_LOG_SIZE = 36;
     1583    13239                       %CALC_ELEM_SIZE(OCC="36", DIMED="36");
     1584    13250
     1585    13251
     1586    13252    4                CASE (%TYH);    /* COMP-7 */
     1587    13253
     1588    13254    4                  P_ADDRESS = P_ADDRESS + ((STP$ -> VARIABLE.NDSC.CN/2) * 9);
     1589    13255    4                  P_ALIGNMENT_TYPE = 2;  /* HALF-WORD */
     1590    13256    4                  P_DATA_TYPE = %SBIN_DATATYPE;
     1591    13257    4                  P_LOG_SIZE = 18;
     1592    13258    4                  P_SCALE_FACTOR = STP$ -> VARIABLE.NDSC.SF;
     1593    13259                       %CALC_ELEM_SIZE(OCC="18", DIMED="18");
     1594    13270
     1595    13271
     1596    13272
     1597    13273    4                CASE (%TYR);   /* COMP-11 (REAL) */
     1598    13274
     1599    13275    4                  P_ALIGNMENT_TYPE = 1;   /* WORD */
     1600    13276    4                  P_DATA_TYPE = %SFLT_DATATYPE;
     1601    13277    4                  P_LOG_SIZE = 36;
     1602    13278    4                  P_SCALE_FACTOR = STP$ -> VARIABLE.NDSC.SF;
     1603    13279                       %CALC_ELEM_SIZE(OCC="36", DIMED="36");
     1604    13290
     1605    13291
     1606    13292
     1607    13293    4                CASE (%TYQ);    /* COMP-12 (D.P.) */
     1608    13294
     1609    13295    4                  P_ALIGNMENT_TYPE = 0;     /* DOUBLE */
     1610    13296    4                  P_DATA_TYPE = %DFLT_DATATYPE;
     1611    13297    4                  P_LOG_SIZE = 72;
     1612    13298    4                  P_SCALE_FACTOR = STP$ -> VARIABLE.NDSC.SF;
     1613    13299                       %CALC_ELEM_SIZE(OCC="72", DIMED="72");
     1614    13310
     1615    13311
PL6.E3A0      #003=Z9IO$CALC_SCHEMA_INFO File=Z9IO.:Z8A6TSI                      SAT 08/09/97 14:07 Page:201
     1616    13312
     1617    13313    4                CASE (%TYX);   /* INDEX */
     1618    13314
     1619    13315    4                  P_ALIGNMENT_TYPE = 0;    /* DOUBLE */
     1620    13316    4                  P_DATA_TYPE = %INDEX1_DATATYPE;
     1621    13317    4                  P_LOG_SIZE = 72;
     1622    13318    4                  P_SCALE_FACTOR = 0;
     1623    13319                       %CALC_ELEM_SIZE(OCC="72", DIMED="72");
     1624    13330
     1625    13331
     1626    13332
     1627    13333    4                CASE (%TYY);   /* INDEX (IBM) */
     1628    13334
     1629    13335    4                  P_ALIGNMENT_TYPE = 3;   /* BYTE */
     1630    13336    4                  P_ADDRESS = P_ADDRESS + ((STP$ -> VARIABLE.ADSC.CN) * 9);  /*#33133*/
     1631    13337    4                  P_DATA_TYPE = %INDEX2_DATATYPE;
     1632    13338    4                  P_LOG_SIZE = 54;
     1633    13339    4                  P_SCALE_FACTOR = 0;
     1634    13340                       %CALC_ELEM_SIZE(OCC="54", DIMED="54");
     1635    13351
     1636    13352
     1637    13353    4                CASE (%TYE);   /* EBCDIC non-numeric */
     1638    13354
     1639    13355    4                  P_ADDRESS = P_ADDRESS + ((STP$ -> VARIABLE.ADSC.CN) * 9);
     1640    13356    4                  P_DATA_TYPE = %CHAR_DATATYPE;
     1641    13357    4                  IF STP$ -> VARIABLE.B.LENGTH_4096 THEN
     1642    13358    4                    P_LOG_SIZE = LONGP$ -> LONG.LENGTH;
     1643    13359    4                  ELSE
     1644    13360    4                    P_LOG_SIZE = STP$ -> VARIABLE.ADSC.N;
     1645    13361    4                  P_ALIGNMENT_TYPE = 3;   /* BYTE ALIGNED */
     1646    13362    4                  P_SCALE_FACTOR = 0;
     1647    13363                       %CALC_ELEM_SIZE(OCC="9", DIMED="P_LOG_SIZE * 9");
     1648    13374
     1649    13375    4                CASE (%TYF);   /* EBCDIC numeric */
     1650    13376
     1651    13377    4                  P_ADDRESS = P_ADDRESS + (STP$ -> VARIABLE.NDSC.CN / 2)*9;
     1652    13378    4                  P_ALIGNMENT_TYPE = 3;   /* Byte */
PL6.E3A0      #003=Z9IO$CALC_SCHEMA_INFO File=Z9IO.:Z8A6TSI                      SAT 08/09/97 14:07 Page:202
     1653    13379    4                  P_SCALE_FACTOR = STP$ -> VARIABLE.NDSC.SF;
     1654    13380    4                  P_LOG_SIZE = STP$ -> VARIABLE.NDSC.N;
     1655    13381                       %CALC_ELEM_SIZE(OCC="9", DIMED="STP$ -> VARIABLE.NDSC.N * 9");
     1656    13392
     1657    13393    5                  DO CASE (BITBIN (STP$ -> VARIABLE.NDSC.S));
     1658    13394
     1659    13395    5                    CASE (1);   /* Leading sign */
     1660    13396
     1661    13397    5                      P_DATA_TYPE = %UDLS_DATATYPE;
     1662    13398
     1663    13399    5                    CASE (2);   /* Trailing sign */
     1664    13400
     1665    13401    5                      P_DATA_TYPE = %UDTS_DATATYPE;
     1666    13402
     1667    13403    5                    CASE (3);   /* No sign */
     1668    13404
     1669    13405    5                      P_DATA_TYPE = %UDNS_DATATYPE;
     1670    13406
     1671    13407    5                  END;   /* Case on unpacked s */
     1672    13408
     1673    13409    4                CASE (%TYB);   /* GBCD non-numeric */
     1674    13410
     1675    13411    4                  P_ADDRESS = P_ADDRESS + (STP$ -> VARIABLE.NDSC.CN) * 6;
     1676    13412    4                  P_DATA_TYPE = %BIT_DATATYPE; /* GBCD is all Greek to DELTA */
     1677    13413    4                  P_ALIGNMENT_TYPE = 4; /* Bit aligned */
     1678    13414    4                  P_SCALE_FACTOR = 0;
     1679    13415    4                  IF STP$ -> VARIABLE.B.LENGTH_4096 THEN
     1680    13416    4                    P_LOG_SIZE = LONGP$ -> LONG.LENGTH;
     1681    13417    4                  ELSE
     1682    13418    4                    P_LOG_SIZE = STP$ -> VARIABLE.ADSC.N;
     1683    13419                       %CALC_ELEM_SIZE(OCC="6", DIMED="STP$ -> VARIABLE.ADSC.N * 6");
     1684    13430
     1685    13431    4                CASE (%TYC);   /* GBCD numeric */
     1686    13432
     1687    13433    4                  P_ADDRESS = P_ADDRESS + (STP$ -> VARIABLE.NDSC.CN) * 6;
     1688    13434    4                  P_DATA_TYPE = %BIT_DATATYPE; /* GBCD is all Greek to DELTA */
     1689    13435    4                  P_ALIGNMENT_TYPE = 4; /* Bit aligned */
PL6.E3A0      #003=Z9IO$CALC_SCHEMA_INFO File=Z9IO.:Z8A6TSI                      SAT 08/09/97 14:07 Page:203
     1690    13436    4                      P_SCALE_FACTOR = STP$ -> VARIABLE.NDSC.SF;
     1691    13437    4                      P_LOG_SIZE = STP$ -> VARIABLE.NDSC.N * 6;
     1692    13438                           %CALC_ELEM_SIZE(OCC="6", DIMED="STP$ -> VARIABLE.NDSC.N * 6");
     1693    13449
     1694    13450    4              END;  /* do case on type */
     1695    13451
     1696    13452               /* Add the symbolic variable to the schema */
     1697    13453
     1698    13454    3              IF STP$ -> VARIABLE.QLT$ -> QLT.B.OCCURS THEN
     1699    13455    3                P_ARRAY_TYPE = 2;
     1700    13456    3              ELSE
     1701    13457    3                P_ARRAY_TYPE = 0;
     1702    13458                     /* Add a simple variable */
     1703    13459
     1704    13460    3              P_REF_FLAG = STP$ -> VARIABLE.B.REFERENCED;
     1705    13461    3              P_MODIFIED_FLAG = STP$ -> VARIABLE.B.DEFINED;
     1706    13462
     1707    13463
     1708    13464    3            CASE (%FD, %SD, %CD, %RD, %DB);
     1709    13465
     1710    13466    3              P_ADDRESS = P_ADDRESS + ((STP$ -> VARIABLE.ADSC.CN) * 9);
     1711    13467    3              P_DATA_TYPE = %CHAR_DATATYPE;
     1712    13468    3              IF STP$ -> VARIABLE.B.LENGTH_4096 THEN
     1713    13469    3                P_LOG_SIZE = LONGP$ -> LONG.LENGTH;
     1714    13470    3              ELSE
     1715    13471    3                P_LOG_SIZE = STP$ -> VARIABLE.ADSC.N;
     1716    13472    3              P_ALIGNMENT_TYPE = 3;  /* BYTE ALIGNED */
     1717    13473    3              P_SCALE_FACTOR = 0;
     1718    13474    3              P_ARRAY_TYPE = 0;         /*#34218*/
     1719    13475                   %CALC_ELEM_SIZE(OCC="9", DIMED="P_LOG_SIZE * 9");
     1720    13486    3          END;  /* case on ID */
     1721    13487    2       END; /* if */
     1722    13488
     1723    13489    1   END Z9IO$CALC_SCHEMA_INFO;
     1724    13490        %EOD;

PL6.E3A0      #003=Z9IO$CALC_SCHEMA_INFO File=Z9IO.:Z8A6TSI                      SAT 08/09/97 14:07 Page:204
--  Include file information  --

   B$OBJECT_C.:LIB_E04  is referenced.
   Z9I_SCHEMA.:Z8A6TOU  cannot be made into a system file and is referenced.
   Z8A_QLT.:Z8A6TOU  cannot be made into a system file and is referenced.
   Z8A_LTS.:Z8A6TOU  cannot be made into a system file and is referenced.
   Z8A_COMCOM.:Z8A6TOU  cannot be made into a system file and is referenced.
   Z8A_DNT.:Z8A6TOU  cannot be made into a system file and is referenced.
   Z8A_ST.:Z8A6TOU  cannot be made into a system file and is referenced.
   Z8A_TYPES.:Z8A6TOU  is referenced.
   X8A_COM_MACS.:X8A6TOU  is referenced.
   Z8A_NAMES.:Z8A6TOU  is referenced.
   Z8A_SUPP_MAC.:Z8A6TOU  is referenced.
   Z8A_DEFC.:Z8A6TOU  cannot be made into a system file and is referenced.
      No diagnostics issued in procedure Z9IO$CALC_SCHEMA_INFO.

   Procedure Z9IO$CALC_SCHEMA_INFO requires 1118 words for executable code.
   Procedure Z9IO$CALC_SCHEMA_INFO requires 12 words of local(AUTO) storage.

PL6.E3A0      #003=Z9IO$CALC_SCHEMA_INFO File=Z9IO.:Z8A6TSI                      SAT 08/09/97 14:07 Page:205

 Object Unit name= Z9IO$CALC_SCHEMA_INFO                      File name= Z9IO.:Z8A6TOU
 UTS= AUG 09 '97 14:07:04.68 SAT                              Compiler= PL-6/E31         Sev=      00
 SharedLib= :SHARED_SYSTEM                                    Alt SharedLib=


    ****  Control sections  ****

 Sect   Type Bound  Init  Size OctSiz  Section name(segment info)
    0  LblCom even  none     1      1  ITERATION
    1  LblCom even  none     1      1  ST$
    2  LblCom even  none     5      5  ST_
    3  LblCom even  none     1      1  DNT$
    4  LblCom even  none     5      5  DNT_
    5  LblCom even  none     1      1  DNT_BUCKET_NUMBER
    6  LblCom even  none     1      1  DNT_OF_1$
    7  LblCom even  none     1      1  LTS$
    8  LblCom even  none     5      5  LTS_
    9  LblCom even  none     1      1  QLT$
   10  LblCom even  none     1      1  PREV_01_QLT$
   11  LblCom even  none     5      5  QLT_
   12  LblCom even  none     1      1  P_ADDRESS
   13  LblCom even  none     1      1  P_ADDRESS_TYPE
   14  LblCom even  none     1      1  P_DATA_TYPE
   15  LblCom even  none     1      1  P_REF_FLAG
   16  LblCom even  none     1      1  P_MODIFIED_FLAG
   17  LblCom even  none     1      1  P_LOG_SIZE
   18  LblCom even  none     1      1  P_ALIGNMENT_TYPE
   19  LblCom even  none     1      1  P_SIZE_TYPE_FLAG
   20  LblCom even  none     1      1  P_ARRAY_TYPE
   21  LblCom even  none     1      1  P_OPERND_TYPE
   22  LblCom even  none     1      1  P_IMPLIED_POINTER
   23  LblCom even  none     1      1  P_OPERAND
   24  LblCom even  none     1      1  P_ELEMENT_SIZE
   25  LblCom even  none     1      1  P_SCALE_FACTOR
   26  LblCom even  none     1      1  P_DIMENSIONS
   27   Proc  even  none  1118   2136  Z9IO$CALC_SCHEMA_INFO
   28  RoData even  none     1      1  Z9IO$CALC_SCHEMA_INFO
PL6.E3A0      #003=Z9IO$CALC_SCHEMA_INFO File=Z9IO.:Z8A6TSI                      SAT 08/09/97 14:07 Page:206

    ****  Entry defs  ****

                              Check   Calling
                             calling  sequence
  Sect OctLoc Primary Altret sequence   type   Parms  Name
    27      0   yes            yes      Std        1  Z9IO$CALC_SCHEMA_INFO

  ****  Entry refs  ****

         Check        Calling
        calling       sequence
Altret sequence SRef   type   Args  Name
                       nStd      0 X66_AUTO_1
                       nStd      0 X66_ARET

  ****  Data refs  ****

  Flags:  r = read only, s = secondary
Flgs Name                             Flgs Name                             Flgs Name
     COMCOM                           r    LTS_STEP                              Z9IO$PTRLOC

  ****  Segment refs  ****

  Flags:  r = read only, s = secondary
Flgs Name                             Flgs Name                             Flgs Name
     NULLSID
PL6.E3A0      #003=Z9IO$CALC_SCHEMA_INFO File=Z9IO.:Z8A6TSI                      SAT 08/09/97 14:07 Page:207


     1303        1        /*T***********************************************************/
     1304        2        /*T*                                                         */
     1305        3        /*T* Copyright (c) Bull HN Information Systems Inc., 1997    */
     1306        4        /*T*                                                         */
     1307        5        /*T***********************************************************/
     1308        6
     1309        7        Z9IO$CALC_SCHEMA_INFO : PROC(STP$);

      7 27 000000   000000 700200 xent  Z9IO$CALC_S* TSX0  ! X66_AUTO_1
        27 000001   000014 000001                    ZERO    12,1

     1310        8
     1311        9        /*D*
     1312       10                NAME: Z9IO$CALC_SCHEMA_INFO
     1313       11         DESCRIPTION:  Calculate the parameters necessary for entering
     1314       12                       a variable into the debug schema.  This information is
     1315       13                       used by Z9IO$ADD_TO_SCHEMA to actually set up the debug
     1316       14                       schema, as well as Z9IL$DM_ENTRY to print a data map in the
     1317       15                       LSTOU.
     1318       16        */
     1319       17
     1320       18    1   DCL STP$ PTR;
     1321       19    1   DCL P_LEVEL_NUMBER SBIN WORD;
     1322       20
     1323       21        %EQU PHASE = 5;
     1324       22        %INCLUDE Z8A_DEFC;
     1325       90        %INCLUDE Z8A_SUPP_MAC;
     1326     2490        %INCLUDE Z8A_TYPES;
     1327     2664        %INCLUDE Z8A_ST;
     1328     6323        %INCLUDE Z8A_DNT;
     1329     6544        %INCLUDE Z8A_COMCOM;
     1330     7194        %INCLUDE Z8A_LTS;
     1331     9271        %INCLUDE Z8A_QLT;
     1332     9377
     1333     9378                 /* EXTERNAL DATA */
     1334     9379
PL6.E3A0      #003=Z9IO$CALC_SCHEMA_INFO File=Z9IO.:Z8A6TSI                      SAT 08/09/97 14:07 Page:208
     1335     9380
     1336     9381        %INCLUDE Z9I_SCHEMA;
     1337     9410        %INCLUDE B$OBJECT_C;
     1338    12840        %VREBL_DATATYPES;
     1339    12915
     1340    12916    1   DCL DIVVAL SBIN WORD;    /* Temporary DIV AND MOD values */
     1341    12917    1   DCL MODVAL SBIN WORD;
     1342    12918    1   DCL DIMP$ PTR;
     1343    12919    1   DCL LONGP$ PTR;
     1344    12920
     1345    12921    1   DCL Z9IO$PTRLOC SBIN SYMREF;
     1346    12922
     1347    12923
     1348    12924        %EJECT;
PL6.E3A0      #003=Z9IO$CALC_SCHEMA_INFO File=Z9IO.:Z8A6TSI                      SAT 08/09/97 14:07 Page:209
     1349    12925        %MACRO CALC_ELEM_SIZE(OCC="0", DIMED="0");
     1350    12926          IF STP$ -> ST.ID = %ARRAY AND (NOT STP$ -> ARRAY.QLT$ -> QLT.B.OCCURS) THEN
     1351    12927            P_ELEMENT_SIZE = (DIMP$ -> DIMS.D.SPAN
     1352    12928                               ((DIMP$ -> DIMS.N - %MIN_DIM_SIZE) / %NO_WORDS_PER_DIM))
     1353    12929                                   * OCC;
     1354    12930          ELSE
     1355    12931            IF STP$ -> VARIABLE.QLT$ -> QLT.B.OCCURS THEN
     1356    12932              P_ELEMENT_SIZE = DIMED;
     1357    12933            ELSE
     1358    12934              P_ELEMENT_SIZE = 0;
     1359    12935        %MEND;
     1360    12936        %EJECT;
PL6.E3A0      #003=Z9IO$CALC_SCHEMA_INFO File=Z9IO.:Z8A6TSI                      SAT 08/09/97 14:07 Page:210
     1361    12937               /* Main body of Z9IO$CALC_SCHEMA_INFO */
     1362    12938
     1363    12939
     1364    12940
     1365    12941
     1366    12942
     1367    12943    1     IF STP$ -> ST.DNT$ ~= ADDR(NIL) AND  STP$ -> VARIABLE.B.COMPILER_CREATED ~= %TRUE
             12943              THEN

  12943 27 000002   200003 470500                    LDP0    @STP$,,AUTO
        27 000003   000000 471500                    LDP1    0,,PR0
        27 000004   100006 236100                    LDQ     6,,PR1
        27 000005   000000 116000 28                 CMPQ    0
        27 000006   002135 600000 27                 TZE     s:13489
        27 000007   100003 236100                    LDQ     3,,PR1
        27 000010   100000 316003                    CANQ    32768,DU
        27 000011   002135 601000 27                 TNZ     s:13489

     1368    12944    2       DO;

     1369    12945               /* Defaults for variables */
     1370    12946
     1371    12947    2          P_ADDRESS = STP$ -> ST.SA * 36;

  12947 27 000012   100001 236100                    LDQ     1,,PR1
        27 000013   000022 772000                    QRL     18
        27 000014   000044 402007                    MPY     36,DL
        27 000015   000000 756000 12                 STQ     P_ADDRESS

     1372    12948
     1373    12949    3          IF STP$ -> VARIABLE.B.LINKAGE THEN DO;

  12949 27 000016   000000 471500                    LDP1    0,,PR0
        27 000017   100003 236100                    LDQ     3,,PR1
        27 000020   000002 316003                    CANQ    2,DU
        27 000021   000027 600000 27                 TZE     s:12954

PL6.E3A0      #003=Z9IO$CALC_SCHEMA_INFO File=Z9IO.:Z8A6TSI                      SAT 08/09/97 14:07 Page:211
     1374    12950    3            P_ADDRESS_TYPE = 7; /* Parameter */

  12950 27 000022   000007 235007                    LDA     7,DL
        27 000023   000000 755000 13                 STA     P_ADDRESS_TYPE

     1375    12951    3            P_IMPLIED_POINTER = Z9IO$PTRLOC;

  12951 27 000024   000000 236000 xsym               LDQ     Z9IO$PTRLOC
        27 000025   000000 756000 22                 STQ     P_IMPLIED_POINTER

     1376    12952    3          END;

  12952 27 000026   000032 710000 27                 TRA     s:12957

     1377    12953    3          ELSE DO; /* Local or EXTERNAL variable */

     1378    12954    3            P_ADDRESS_TYPE = 1;     /* Static from ISR */

  12954 27 000027   000001 235007                    LDA     1,DL
        27 000030   000000 755000 13                 STA     P_ADDRESS_TYPE

     1379    12955    3            P_IMPLIED_POINTER = 0;

  12955 27 000031   000000 450000 22                 STZ     P_IMPLIED_POINTER

     1380    12956    3          END;

     1381    12957    2          P_SIZE_TYPE_FLAG = '0'B;

  12957 27 000032   000000 450000 19                 STZ     P_SIZE_TYPE_FLAG

     1382    12958
     1383    12959    2          IF STP$ -> VARIABLE.LTS$ ~= ADDR(NIL) THEN

  12959 27 000033   000000 471500                    LDP1    0,,PR0
        27 000034   100005 236100                    LDQ     5,,PR1
        27 000035   000000 116000 28                 CMPQ    0
PL6.E3A0      #003=Z9IO$CALC_SCHEMA_INFO File=Z9IO.:Z8A6TSI                      SAT 08/09/97 14:07 Page:212
        27 000036   000053 600000 27                 TZE     s:12972

     1384    12960    2            IF STP$ -> VARIABLE.LTS$ -> LTS.ID = %LTSS THEN

  12960 27 000037   100005 473500                    LDP3    5,,PR1
        27 000040   300000 220100                    LDX0    0,,PR3
        27 000041   001105 100003                    CMPX0   581,DU
        27 000042   000050 601000 27                 TNZ     s:12967

     1385    12961    3              DO;

     1386    12962    3                DIMP$ = STP$ -> VARIABLE.LTS$ -> LTSS.DIMS$;

  12962 27 000043   300001 236100                    LDQ     1,,PR3
        27 000044   200007 756100                    STQ     DIMP$,,AUTO

     1387    12963    3                LONGP$ = STP$ -> VARIABLE.LTS$ -> LTSS.LONG$;

  12963 27 000045   300003 236100                    LDQ     3,,PR3
        27 000046   200010 756100                    STQ     LONGP$,,AUTO

     1388    12964    3              END;

  12964 27 000047   000056 710000 27                 TRA     s:12975

     1389    12965    2            ELSE
     1390    12966    3              DO;

     1391    12967    3                DIMP$ = STP$ -> VARIABLE.LTS$;

  12967 27 000050   200007 756100                    STQ     DIMP$,,AUTO

     1392    12968    3                LONGP$ = STP$ -> VARIABLE.LTS$;

  12968 27 000051   200010 756100                    STQ     LONGP$,,AUTO

     1393    12969    3              END;
PL6.E3A0      #003=Z9IO$CALC_SCHEMA_INFO File=Z9IO.:Z8A6TSI                      SAT 08/09/97 14:07 Page:213

  12969 27 000052   000056 710000 27                 TRA     s:12975

     1394    12970    2          ELSE
     1395    12971    3            DO;

     1396    12972    3              DIMP$ = ADDR(NIL);

  12972 27 000053   000000 236000 28                 LDQ     0
        27 000054   200007 756100                    STQ     DIMP$,,AUTO

     1397    12973    3              LONGP$ = ADDR(NIL);

  12973 27 000055   200010 756100                    STQ     LONGP$,,AUTO

     1398    12974    3            END;

     1399    12975    2          IF STP$ -> ST.ID = %ARRAY THEN

  12975 27 000056   100000 220100                    LDX0    0,,PR1
        27 000057   000765 100003                    CMPX0   501,DU
        27 000060   000072 601000 27                 TNZ     s:12980

     1400    12976    2            P_DIMENSIONS = DIMP$ -> DIMS.D.DIM

  12976 27 000061   200007 473500                    LDP3    DIMP$,,AUTO
        27 000062   300000 236100                    LDQ     0,,PR3
        27 000063   777777 376007                    ANQ     -1,DL
        27 000064   000005 136007                    SBLQ    5,DL
        27 000065   000003 506007                    DIV     3,DL
        27 000066   000003 402007                    MPY     3,DL
        27 000067   300003 235106                    LDA     3,QL,PR3
        27 000070   000000 755000 26                 STA     P_DIMENSIONS
        27 000071   000073 710000 27                 TRA     s:12982

     1401    12977    2                                ((DIMP$ -> DIMS.N - %MIN_DIM_SIZE) /
     1402    12978    2                                       %NO_WORDS_PER_DIM);
PL6.E3A0      #003=Z9IO$CALC_SCHEMA_INFO File=Z9IO.:Z8A6TSI                      SAT 08/09/97 14:07 Page:214
     1403    12979    2          ELSE
     1404    12980    2            P_DIMENSIONS = 0;

  12980 27 000072   000000 450000 26                 STZ     P_DIMENSIONS

     1405    12981
     1406    12982    2          P_OPERND_TYPE = %PROGRAM;    /* SECTION */

  12982 27 000073   000001 235007                    LDA     1,DL
        27 000074   000000 755000 21                 STA     P_OPERND_TYPE

     1407    12983    2          P_OPERAND = STP$ -> ST.COUNT + COMCOM.SEGMENTC - 1;

  12983 27 000075   000000 471500                    LDP1    0,,PR0
        27 000076   100000 236100                    LDQ     0,,PR1
        27 000077   000777 376007                    ANQ     511,DL
        27 000100   000314 036000 xsym               ADLQ    COMCOM+204
        27 000101   000001 136007                    SBLQ    1,DL
        27 000102   000000 756000 23                 STQ     P_OPERAND

     1408    12984
     1409    12985    3          DO CASE (STP$ -> ST.ID);

  12985 27 000103   000000 471500                    LDP1    0,,PR0
        27 000104   100000 236100                    LDQ     0,,PR1
        27 000105   000022 772000                    QRL     18
        27 000106   000765 136007                    SBLQ    501,DL
        27 000107   000022 116007                    CMPQ    18,DL
        27 000110   000112 602006 27                 TNC     s:12985+7,QL
        27 000111   002135 710000 27                 TRA     s:13489
        27 000112   000134 710000 27                 TRA     s:12990
        27 000113   000134 710000 27                 TRA     s:12990
        27 000114   002135 710000 27                 TRA     s:13489
        27 000115   002135 710000 27                 TRA     s:13489
        27 000116   002135 710000 27                 TRA     s:13489
        27 000117   002135 710000 27                 TRA     s:13489
        27 000120   002135 710000 27                 TRA     s:13489
PL6.E3A0      #003=Z9IO$CALC_SCHEMA_INFO File=Z9IO.:Z8A6TSI                      SAT 08/09/97 14:07 Page:215
        27 000121   002135 710000 27                 TRA     s:13489
        27 000122   002135 710000 27                 TRA     s:13489
        27 000123   002135 710000 27                 TRA     s:13489
        27 000124   002135 710000 27                 TRA     s:13489
        27 000125   002135 710000 27                 TRA     s:13489
        27 000126   002135 710000 27                 TRA     s:13489
        27 000127   002053 710000 27                 TRA     s:13466
        27 000130   002053 710000 27                 TRA     s:13466
        27 000131   002053 710000 27                 TRA     s:13466
        27 000132   002053 710000 27                 TRA     s:13466
        27 000133   002053 710000 27                 TRA     s:13466

     1410    12986
     1411    12987    3            CASE ( %SCALAR, %ARRAY);

     1412    12988
     1413    12989
     1414    12990    4              DO CASE (STP$ -> VARIABLE.TYPE);

  12990 27 000134   100002 220100                    LDX0    2,,PR1
        27 000135   000024 100003                    CMPX0   20,DU
        27 000136   000140 602010 27                 TNC     s:12990+4,X0
        27 000137   002030 710000 27                 TRA     s:13454
        27 000140   000440 710000 27                 TRA     s:13080
        27 000141   000164 710000 27                 TRA     s:12995
        27 000142   001055 710000 27                 TRA     s:13215
        27 000143   000760 710000 27                 TRA     s:13183
        27 000144   001261 710000 27                 TRA     s:13275
        27 000145   001325 710000 27                 TRA     s:13295
        27 000146   001501 710000 27                 TRA     s:13355
        27 000147   001205 710000 27                 TRA     s:13254
        27 000150   000271 710000 27                 TRA     s:13032
        27 000151   001371 710000 27                 TRA     s:13315
        27 000152   001431 710000 27                 TRA     s:13335
        27 000153   001563 710000 27                 TRA     s:13377
        27 000154   001665 710000 27                 TRA     s:13411
        27 000155   002030 710000 27                 TRA     s:13454
PL6.E3A0      #003=Z9IO$CALC_SCHEMA_INFO File=Z9IO.:Z8A6TSI                      SAT 08/09/97 14:07 Page:216
        27 000156   002030 710000 27                 TRA     s:13454
        27 000157   001131 710000 27                 TRA     s:13234
        27 000160   002030 710000 27                 TRA     s:13454
        27 000161   002030 710000 27                 TRA     s:13454
        27 000162   000230 710000 27                 TRA     s:13013
        27 000163   001750 710000 27                 TRA     s:13433

     1415    12991
     1416    12992
     1417    12993    4                CASE (%TYI);      /* Integer (comp-6) */

     1418    12994
     1419    12995    4                    P_DATA_TYPE = %SBIN_DATATYPE;     /* COMP-6 */

  12995 27 000164   000000 755000 14                 STA     P_DATA_TYPE

     1420    12996    4                    P_LOG_SIZE = 36;   /* 1 WORD */

  12996 27 000165   000044 236007                    LDQ     36,DL
        27 000166   000000 756000 17                 STQ     P_LOG_SIZE

     1421    12997    4                    P_ALIGNMENT_TYPE = 1;   /* WORD ALIGNMENT */

  12997 27 000167   000000 755000 18                 STA     P_ALIGNMENT_TYPE

     1422    12998    4                    P_SCALE_FACTOR = STP$ -> VARIABLE.NDSC.SF;

  12998 27 000170   000000 471500                    LDP1    0,,PR0
        27 000171   100001 236100                    LDQ     1,,PR1
        27 000172   000030 736000                    QLS     24
        27 000173   000036 732000                    QRS     30
        27 000174   000000 756000 25                 STQ     P_SCALE_FACTOR

     1423    12999                         %CALC_ELEM_SIZE(OCC="36", DIMED="36");

  13000 27 000175   000000 471500                    LDP1    0,,PR0
        27 000176   100000 220100                    LDX0    0,,PR1
PL6.E3A0      #003=Z9IO$CALC_SCHEMA_INFO File=Z9IO.:Z8A6TSI                      SAT 08/09/97 14:07 Page:217
        27 000177   000765 100003                    CMPX0   501,DU
        27 000200   000217 601000 27                 TNZ     s:13005
        27 000201   100007 473500                    LDP3    7,,PR1
        27 000202   300000 236100                    LDQ     0,,PR3
        27 000203   400000 316007                    CANQ    -131072,DL
        27 000204   000217 601000 27                 TNZ     s:13005

  13001 27 000205   200007 474500                    LDP4    DIMP$,,AUTO
        27 000206   400000 236100                    LDQ     0,,PR4
        27 000207   777777 376007                    ANQ     -1,DL
        27 000210   000005 136007                    SBLQ    5,DL
        27 000211   000003 506007                    DIV     3,DL
        27 000212   000003 402007                    MPY     3,DL
        27 000213   400002 236106                    LDQ     2,QL,PR4
        27 000214   000044 402007                    MPY     36,DL
        27 000215   000000 756000 24                 STQ     P_ELEMENT_SIZE
        27 000216   002030 710000 27                 TRA     s:13454

  13005 27 000217   100007 473500                    LDP3    7,,PR1
        27 000220   300000 236100                    LDQ     0,,PR3
        27 000221   400000 316007                    CANQ    -131072,DL
        27 000222   000226 600000 27                 TZE     s:13008

  13006 27 000223   000044 235007                    LDA     36,DL
        27 000224   000000 755000 24                 STA     P_ELEMENT_SIZE
        27 000225   002030 710000 27                 TRA     s:13454

  13008 27 000226   000000 450000 24                 STZ     P_ELEMENT_SIZE
        27 000227   002030 710000 27                 TRA     s:13454

     1424    13010
     1425    13011    4                CASE (%TYP);      /* pointer  */

     1426    13012
     1427    13013    4                    P_DATA_TYPE = %POINTER_DATATYPE;

  13013 27 000230   000015 235007                    LDA     13,DL
PL6.E3A0      #003=Z9IO$CALC_SCHEMA_INFO File=Z9IO.:Z8A6TSI                      SAT 08/09/97 14:07 Page:218
        27 000231   000000 755000 14                 STA     P_DATA_TYPE

     1428    13014    4                    P_LOG_SIZE = 1;   /* 1 WORD */

  13014 27 000232   000001 236007                    LDQ     1,DL
        27 000233   000000 756000 17                 STQ     P_LOG_SIZE

     1429    13015    4                    P_ALIGNMENT_TYPE = 1;   /* WORD ALIGNMENT */

  13015 27 000234   000000 756000 18                 STQ     P_ALIGNMENT_TYPE

     1430    13016    4                    P_SCALE_FACTOR = 0;

  13016 27 000235   000000 450000 25                 STZ     P_SCALE_FACTOR

     1431    13017                         %CALC_ELEM_SIZE(OCC="36", DIMED="36");

  13018 27 000236   000000 471500                    LDP1    0,,PR0
        27 000237   100000 220100                    LDX0    0,,PR1
        27 000240   000765 100003                    CMPX0   501,DU
        27 000241   000260 601000 27                 TNZ     s:13023
        27 000242   100007 473500                    LDP3    7,,PR1
        27 000243   300000 236100                    LDQ     0,,PR3
        27 000244   400000 316007                    CANQ    -131072,DL
        27 000245   000260 601000 27                 TNZ     s:13023

  13019 27 000246   200007 474500                    LDP4    DIMP$,,AUTO
        27 000247   400000 236100                    LDQ     0,,PR4
        27 000250   777777 376007                    ANQ     -1,DL
        27 000251   000005 136007                    SBLQ    5,DL
        27 000252   000003 506007                    DIV     3,DL
        27 000253   000003 402007                    MPY     3,DL
        27 000254   400002 236106                    LDQ     2,QL,PR4
        27 000255   000044 402007                    MPY     36,DL
        27 000256   000000 756000 24                 STQ     P_ELEMENT_SIZE
        27 000257   002030 710000 27                 TRA     s:13454

PL6.E3A0      #003=Z9IO$CALC_SCHEMA_INFO File=Z9IO.:Z8A6TSI                      SAT 08/09/97 14:07 Page:219
  13023 27 000260   100007 473500                    LDP3    7,,PR1
        27 000261   300000 236100                    LDQ     0,,PR3
        27 000262   400000 316007                    CANQ    -131072,DL
        27 000263   000267 600000 27                 TZE     s:13026

  13024 27 000264   000044 235007                    LDA     36,DL
        27 000265   000000 755000 24                 STA     P_ELEMENT_SIZE
        27 000266   002030 710000 27                 TRA     s:13454

  13026 27 000267   000000 450000 24                 STZ     P_ELEMENT_SIZE
        27 000270   002030 710000 27                 TRA     s:13454

     1432    13028
     1433    13029
     1434    13030    4                CASE (%TYA);    /* Display (ascii alphanumeric) */

     1435    13031
     1436    13032    4                  IF STP$ -> VARIABLE.B.ELEMENTARY THEN

  13032 27 000271   100003 236100                    LDQ     3,,PR1
        27 000272   010000 316003                    CANQ    4096,DU
        27 000273   000356 600000 27                 TZE     s:13056

     1437    13033    5                    DO;

     1438    13034    5                      P_ADDRESS = P_ADDRESS + ((STP$ -> VARIABLE.ADSC.CN) * 9);

  13034 27 000274   100001 236100                    LDQ     1,,PR1
        27 000275   000020 772000                    QRL     16
        27 000276   000003 376007                    ANQ     3,DL
        27 000277   000011 402007                    MPY     9,DL
        27 000300   000000 036000 12                 ADLQ    P_ADDRESS
        27 000301   000000 756000 12                 STQ     P_ADDRESS

     1439    13035    5                      P_DATA_TYPE = %CHAR_DATATYPE;

  13035 27 000302   000025 235007                    LDA     21,DL
PL6.E3A0      #003=Z9IO$CALC_SCHEMA_INFO File=Z9IO.:Z8A6TSI                      SAT 08/09/97 14:07 Page:220
        27 000303   000000 755000 14                 STA     P_DATA_TYPE

     1440    13036    5                      IF STP$ -> VARIABLE.B.LENGTH_4096 THEN

  13036 27 000304   000000 471500                    LDP1    0,,PR0
        27 000305   100003 236100                    LDQ     3,,PR1
        27 000306   004000 316003                    CANQ    2048,DU
        27 000307   000314 600000 27                 TZE     s:13039

     1441    13037    5                        P_LOG_SIZE = LONGP$ -> LONG.LENGTH;

  13037 27 000310   200010 473500                    LDP3    LONGP$,,AUTO
        27 000311   300001 235100                    LDA     1,,PR3
        27 000312   000000 755000 17                 STA     P_LOG_SIZE
        27 000313   000317 710000 27                 TRA     s:13040

     1442    13038    5                      ELSE
     1443    13039    5                        P_LOG_SIZE = STP$ -> VARIABLE.ADSC.N;

  13039 27 000314   100001 236100                    LDQ     1,,PR1
        27 000315   007777 376007                    ANQ     4095,DL
        27 000316   000000 756000 17                 STQ     P_LOG_SIZE

     1444    13040    5                      P_ALIGNMENT_TYPE = 3;   /* BYTE ALIGNED */

  13040 27 000317   000003 235007                    LDA     3,DL
        27 000320   000000 755000 18                 STA     P_ALIGNMENT_TYPE

     1445    13041    5                      P_SCALE_FACTOR = 0;

  13041 27 000321   000000 450000 25                 STZ     P_SCALE_FACTOR

     1446    13042                           %CALC_ELEM_SIZE(OCC="9", DIMED="P_LOG_SIZE * 9");

  13043 27 000322   000000 471500                    LDP1    0,,PR0
        27 000323   100000 220100                    LDX0    0,,PR1
        27 000324   000765 100003                    CMPX0   501,DU
PL6.E3A0      #003=Z9IO$CALC_SCHEMA_INFO File=Z9IO.:Z8A6TSI                      SAT 08/09/97 14:07 Page:221
        27 000325   000344 601000 27                 TNZ     s:13048
        27 000326   100007 473500                    LDP3    7,,PR1
        27 000327   300000 236100                    LDQ     0,,PR3
        27 000330   400000 316007                    CANQ    -131072,DL
        27 000331   000344 601000 27                 TNZ     s:13048

  13044 27 000332   200007 474500                    LDP4    DIMP$,,AUTO
        27 000333   400000 236100                    LDQ     0,,PR4
        27 000334   777777 376007                    ANQ     -1,DL
        27 000335   000005 136007                    SBLQ    5,DL
        27 000336   000003 506007                    DIV     3,DL
        27 000337   000003 402007                    MPY     3,DL
        27 000340   400002 236106                    LDQ     2,QL,PR4
        27 000341   000011 402007                    MPY     9,DL
        27 000342   000000 756000 24                 STQ     P_ELEMENT_SIZE
        27 000343   002030 710000 27                 TRA     s:13454

  13048 27 000344   100007 473500                    LDP3    7,,PR1
        27 000345   300000 236100                    LDQ     0,,PR3
        27 000346   400000 316007                    CANQ    -131072,DL
        27 000347   000354 600000 27                 TZE     s:13051

  13049 27 000350   000000 236000 17                 LDQ     P_LOG_SIZE
        27 000351   000011 402007                    MPY     9,DL
        27 000352   000000 756000 24                 STQ     P_ELEMENT_SIZE
        27 000353   002030 710000 27                 TRA     s:13454

  13051 27 000354   000000 450000 24                 STZ     P_ELEMENT_SIZE

     1447    13053    5                    END;

  13053 27 000355   002030 710000 27                 TRA     s:13454

     1448    13054    4                  ELSE
     1449    13055    5                    DO;   /* Structure */

     1450    13056    5                      P_ADDRESS = P_ADDRESS + ((STP$ -> VARIABLE.ADSC.CN) * 9);
PL6.E3A0      #003=Z9IO$CALC_SCHEMA_INFO File=Z9IO.:Z8A6TSI                      SAT 08/09/97 14:07 Page:222

  13056 27 000356   100001 236100                    LDQ     1,,PR1
        27 000357   000020 772000                    QRL     16
        27 000360   000003 376007                    ANQ     3,DL
        27 000361   000011 402007                    MPY     9,DL
        27 000362   000000 036000 12                 ADLQ    P_ADDRESS
        27 000363   000000 756000 12                 STQ     P_ADDRESS

     1451    13057    5                      P_DATA_TYPE = %CHAR_DATATYPE;

  13057 27 000364   000025 235007                    LDA     21,DL
        27 000365   000000 755000 14                 STA     P_DATA_TYPE

     1452    13058    5                      IF STP$ -> VARIABLE.B.LENGTH_4096 THEN

  13058 27 000366   000000 471500                    LDP1    0,,PR0
        27 000367   100003 236100                    LDQ     3,,PR1
        27 000370   004000 316003                    CANQ    2048,DU
        27 000371   000376 600000 27                 TZE     s:13061

     1453    13059    5                        P_LOG_SIZE = LONGP$ -> LONG.LENGTH;

  13059 27 000372   200010 473500                    LDP3    LONGP$,,AUTO
        27 000373   300001 235100                    LDA     1,,PR3
        27 000374   000000 755000 17                 STA     P_LOG_SIZE
        27 000375   000401 710000 27                 TRA     s:13062

     1454    13060    5                      ELSE
     1455    13061    5                        P_LOG_SIZE = STP$ -> VARIABLE.ADSC.N;

  13061 27 000376   100001 236100                    LDQ     1,,PR1
        27 000377   007777 376007                    ANQ     4095,DL
        27 000400   000000 756000 17                 STQ     P_LOG_SIZE

     1456    13062    5                      P_ALIGNMENT_TYPE = 3;  /* BYTE ALIGNED */

  13062 27 000401   000003 235007                    LDA     3,DL
PL6.E3A0      #003=Z9IO$CALC_SCHEMA_INFO File=Z9IO.:Z8A6TSI                      SAT 08/09/97 14:07 Page:223
        27 000402   000000 755000 18                 STA     P_ALIGNMENT_TYPE

     1457    13063    5                      P_SCALE_FACTOR = 0;

  13063 27 000403   000000 450000 25                 STZ     P_SCALE_FACTOR

     1458    13064                           %CALC_ELEM_SIZE(OCC="9", DIMED="P_LOG_SIZE * 9");

  13065 27 000404   000000 471500                    LDP1    0,,PR0
        27 000405   100000 220100                    LDX0    0,,PR1
        27 000406   000765 100003                    CMPX0   501,DU
        27 000407   000426 601000 27                 TNZ     s:13070
        27 000410   100007 473500                    LDP3    7,,PR1
        27 000411   300000 236100                    LDQ     0,,PR3
        27 000412   400000 316007                    CANQ    -131072,DL
        27 000413   000426 601000 27                 TNZ     s:13070

  13066 27 000414   200007 474500                    LDP4    DIMP$,,AUTO
        27 000415   400000 236100                    LDQ     0,,PR4
        27 000416   777777 376007                    ANQ     -1,DL
        27 000417   000005 136007                    SBLQ    5,DL
        27 000420   000003 506007                    DIV     3,DL
        27 000421   000003 402007                    MPY     3,DL
        27 000422   400002 236106                    LDQ     2,QL,PR4
        27 000423   000011 402007                    MPY     9,DL
        27 000424   000000 756000 24                 STQ     P_ELEMENT_SIZE
        27 000425   002030 710000 27                 TRA     s:13454

  13070 27 000426   100007 473500                    LDP3    7,,PR1
        27 000427   300000 236100                    LDQ     0,,PR3
        27 000430   400000 316007                    CANQ    -131072,DL
        27 000431   000436 600000 27                 TZE     s:13073

  13071 27 000432   000000 236000 17                 LDQ     P_LOG_SIZE
        27 000433   000011 402007                    MPY     9,DL
        27 000434   000000 756000 24                 STQ     P_ELEMENT_SIZE
        27 000435   002030 710000 27                 TRA     s:13454
PL6.E3A0      #003=Z9IO$CALC_SCHEMA_INFO File=Z9IO.:Z8A6TSI                      SAT 08/09/97 14:07 Page:224

  13073 27 000436   000000 450000 24                 STZ     P_ELEMENT_SIZE

     1459    13075    5                    END;

  13075 27 000437   002030 710000 27                 TRA     s:13454

     1460    13076
     1461    13077
     1462    13078    4                CASE (%TYD);    /* Decimal */

     1463    13079
     1464    13080    5                  DO CASE (BITBIN (STP$ -> VARIABLE.NDSC.TN));

  13080 27 000440   100001 236100                    LDQ     1,,PR1
        27 000441   000016 772000                    QRL     14
        27 000442   000001 376007                    ANQ     1,DL
        27 000443   000002 116007                    CMPQ    2,DL
        27 000444   000446 602006 27                 TNC     s:13080+6,QL
        27 000445   002030 710000 27                 TRA     s:13454
        27 000446   000450 710000 27                 TRA     s:13084
        27 000447   000552 710000 27                 TRA     s:13118

     1465    13081
     1466    13082    5                    CASE (0);   /* Unpacked */

     1467    13083
     1468    13084    5                      P_ADDRESS = P_ADDRESS + (STP$ -> VARIABLE.NDSC.CN / 2)*9;

  13084 27 000450   100001 236100                    LDQ     1,,PR1
        27 000451   000017 772000                    QRL     15
        27 000452   000007 376007                    ANQ     7,DL
        27 000453   000001 772000                    QRL     1
        27 000454   000011 402007                    MPY     9,DL
        27 000455   000000 036000 12                 ADLQ    P_ADDRESS
        27 000456   000000 756000 12                 STQ     P_ADDRESS

PL6.E3A0      #003=Z9IO$CALC_SCHEMA_INFO File=Z9IO.:Z8A6TSI                      SAT 08/09/97 14:07 Page:225
     1469    13085    5                      P_ALIGNMENT_TYPE = 3;   /* Byte */

  13085 27 000457   000003 235007                    LDA     3,DL
        27 000460   000000 755000 18                 STA     P_ALIGNMENT_TYPE

     1470    13086    5                      P_SCALE_FACTOR = STP$ -> VARIABLE.NDSC.SF;

  13086 27 000461   000000 471500                    LDP1    0,,PR0
        27 000462   100001 236100                    LDQ     1,,PR1
        27 000463   000030 736000                    QLS     24
        27 000464   000036 732000                    QRS     30
        27 000465   000000 756000 25                 STQ     P_SCALE_FACTOR

     1471    13087    5                      P_LOG_SIZE = STP$ -> VARIABLE.NDSC.N;

  13087 27 000466   000000 471500                    LDP1    0,,PR0
        27 000467   100001 236100                    LDQ     1,,PR1
        27 000470   000077 376007                    ANQ     63,DL
        27 000471   000000 756000 17                 STQ     P_LOG_SIZE

     1472    13088                           %CALC_ELEM_SIZE(OCC="9", DIMED="STP$ -> VARIABLE.NDSC.N * 9");

  13089 27 000472   000000 471500                    LDP1    0,,PR0
        27 000473   100000 220100                    LDX0    0,,PR1
        27 000474   000765 100003                    CMPX0   501,DU
        27 000475   000514 601000 27                 TNZ     s:13094
        27 000476   100007 473500                    LDP3    7,,PR1
        27 000477   300000 236100                    LDQ     0,,PR3
        27 000500   400000 316007                    CANQ    -131072,DL
        27 000501   000514 601000 27                 TNZ     s:13094

  13090 27 000502   200007 474500                    LDP4    DIMP$,,AUTO
        27 000503   400000 236100                    LDQ     0,,PR4
        27 000504   777777 376007                    ANQ     -1,DL
        27 000505   000005 136007                    SBLQ    5,DL
        27 000506   000003 506007                    DIV     3,DL
        27 000507   000003 402007                    MPY     3,DL
PL6.E3A0      #003=Z9IO$CALC_SCHEMA_INFO File=Z9IO.:Z8A6TSI                      SAT 08/09/97 14:07 Page:226
        27 000510   400002 236106                    LDQ     2,QL,PR4
        27 000511   000011 402007                    MPY     9,DL
        27 000512   000000 756000 24                 STQ     P_ELEMENT_SIZE
        27 000513   000526 710000 27                 TRA     s:13100

  13094 27 000514   100007 473500                    LDP3    7,,PR1
        27 000515   300000 236100                    LDQ     0,,PR3
        27 000516   400000 316007                    CANQ    -131072,DL
        27 000517   000525 600000 27                 TZE     s:13097

  13095 27 000520   100001 236100                    LDQ     1,,PR1
        27 000521   000077 376007                    ANQ     63,DL
        27 000522   000011 402007                    MPY     9,DL
        27 000523   000000 756000 24                 STQ     P_ELEMENT_SIZE
        27 000524   000526 710000 27                 TRA     s:13100

  13097 27 000525   000000 450000 24                 STZ     P_ELEMENT_SIZE

     1473    13099
     1474    13100    6                      DO CASE (BITBIN (STP$ -> VARIABLE.NDSC.S));

  13100 27 000526   000000 471500                    LDP1    0,,PR0
        27 000527   100001 236100                    LDQ     1,,PR1
        27 000530   000014 772000                    QRL     12
        27 000531   000003 376007                    ANQ     3,DL
        27 000532   000004 116007                    CMPQ    4,DL
        27 000533   000535 602006 27                 TNC     s:13100+7,QL
        27 000534   002030 710000 27                 TRA     s:13454
        27 000535   000551 710000 27                 TRA     s:13114
        27 000536   000541 710000 27                 TRA     s:13104
        27 000537   000544 710000 27                 TRA     s:13108
        27 000540   000547 710000 27                 TRA     s:13112

     1475    13101
     1476    13102    6                        CASE (1);   /* Leading sign */

     1477    13103
PL6.E3A0      #003=Z9IO$CALC_SCHEMA_INFO File=Z9IO.:Z8A6TSI                      SAT 08/09/97 14:07 Page:227
     1478    13104    6                          P_DATA_TYPE = %UDLS_DATATYPE;

  13104 27 000541   000052 235007                    LDA     42,DL
        27 000542   000000 755000 14                 STA     P_DATA_TYPE
        27 000543   002030 710000 27                 TRA     s:13454

     1479    13105
     1480    13106    6                        CASE (2);   /* Trailing sign */

     1481    13107
     1482    13108    6                          P_DATA_TYPE = %UDTS_DATATYPE;

  13108 27 000544   000053 235007                    LDA     43,DL
        27 000545   000000 755000 14                 STA     P_DATA_TYPE
        27 000546   002030 710000 27                 TRA     s:13454

     1483    13109
     1484    13110    6                        CASE (3);   /* No sign */

     1485    13111
     1486    13112    6                          P_DATA_TYPE = %UDNS_DATATYPE;

  13112 27 000547   000051 235007                    LDA     41,DL
        27 000550   000000 755000 14                 STA     P_DATA_TYPE

     1487    13113
     1488    13114    6                      END;   /* Case on unpacked s */

  13114 27 000551   002030 710000 27                 TRA     s:13454

     1489    13115
     1490    13116    5                    CASE (1);   /* Packed */

     1491    13117
     1492    13118    5                      DIVVAL = STP$ -> VARIABLE.NDSC.CN / 2;

  13118 27 000552   100001 236100                    LDQ     1,,PR1
PL6.E3A0      #003=Z9IO$CALC_SCHEMA_INFO File=Z9IO.:Z8A6TSI                      SAT 08/09/97 14:07 Page:228
        27 000553   000017 772000                    QRL     15
        27 000554   000007 376007                    ANQ     7,DL
        27 000555   000001 772000                    QRL     1
        27 000556   200005 756100                    STQ     DIVVAL,,AUTO

     1493    13119    5                      MODVAL = MOD(STP$ -> VARIABLE.NDSC.CN, 2);

  13119 27 000557   100001 236100                    LDQ     1,,PR1
        27 000560   000017 772000                    QRL     15
        27 000561   000007 376007                    ANQ     7,DL
        27 000562   000001 376007                    ANQ     1,DL
        27 000563   200006 756100                    STQ     MODVAL,,AUTO

     1494    13120    5                      P_ADDRESS = P_ADDRESS + (DIVVAL*9) + (MODVAL*5);

  13120 27 000564   200005 236100                    LDQ     DIVVAL,,AUTO
        27 000565   000011 402007                    MPY     9,DL
        27 000566   000000 036000 12                 ADLQ    P_ADDRESS
        27 000567   200012 756100                    STQ     LONGP$+2,,AUTO
        27 000570   200006 236100                    LDQ     MODVAL,,AUTO
        27 000571   000005 402007                    MPY     5,DL
        27 000572   200012 036100                    ADLQ    LONGP$+2,,AUTO
        27 000573   000000 756000 12                 STQ     P_ADDRESS

     1495    13121    5                      P_SCALE_FACTOR = STP$ -> VARIABLE.NDSC.SF;

  13121 27 000574   000000 471500                    LDP1    0,,PR0
        27 000575   100001 236100                    LDQ     1,,PR1
        27 000576   000030 736000                    QLS     24
        27 000577   000036 732000                    QRS     30
        27 000600   000000 756000 25                 STQ     P_SCALE_FACTOR

     1496    13122    5                      P_LOG_SIZE = STP$ -> VARIABLE.NDSC.N;

  13122 27 000601   000000 471500                    LDP1    0,,PR0
        27 000602   100001 236100                    LDQ     1,,PR1
        27 000603   000077 376007                    ANQ     63,DL
PL6.E3A0      #003=Z9IO$CALC_SCHEMA_INFO File=Z9IO.:Z8A6TSI                      SAT 08/09/97 14:07 Page:229
        27 000604   000000 756000 17                 STQ     P_LOG_SIZE

     1497    13123
     1498    13124    5                      IF STP$ -> VARIABLE.QLT$ -> QLT.B.DIGIT THEN

  13124 27 000605   000000 471500                    LDP1    0,,PR0
        27 000606   100007 473500                    LDP3    7,,PR1
        27 000607   300000 236100                    LDQ     0,,PR3
        27 000610   100000 316007                    CANQ    32768,DL
        27 000611   000655 600000 27                 TZE     s:13142

     1499    13125    6                        DO;   /* COMP4 OR COMP-8 */

     1500    13126    6                          P_ALIGNMENT_TYPE = 4;   /* Bit aligned */

  13126 27 000612   000004 235007                    LDA     4,DL
        27 000613   000000 755000 18                 STA     P_ALIGNMENT_TYPE

     1501    13127                               %CALC_ELEM_SIZE(OCC="9 + 1", DIMED=
             13127                                   "STP$ -> VARIABLE.NDSC.N * 9");

  13128 27 000614   000000 471500                    LDP1    0,,PR0
        27 000615   100000 220100                    LDX0    0,,PR1
        27 000616   000765 100003                    CMPX0   501,DU
        27 000617   000637 601000 27                 TNZ     s:13133
        27 000620   100007 473500                    LDP3    7,,PR1
        27 000621   300000 236100                    LDQ     0,,PR3
        27 000622   400000 316007                    CANQ    -131072,DL
        27 000623   000637 601000 27                 TNZ     s:13133

  13129 27 000624   200007 474500                    LDP4    DIMP$,,AUTO
        27 000625   400000 236100                    LDQ     0,,PR4
        27 000626   777777 376007                    ANQ     -1,DL
        27 000627   000005 136007                    SBLQ    5,DL
        27 000630   000003 506007                    DIV     3,DL
        27 000631   000003 402007                    MPY     3,DL
        27 000632   400002 236106                    LDQ     2,QL,PR4
PL6.E3A0      #003=Z9IO$CALC_SCHEMA_INFO File=Z9IO.:Z8A6TSI                      SAT 08/09/97 14:07 Page:230
        27 000633   000011 402007                    MPY     9,DL
        27 000634   000001 036007                    ADLQ    1,DL
        27 000635   000000 756000 24                 STQ     P_ELEMENT_SIZE
        27 000636   000651 710000 27                 TRA     s:13138

  13133 27 000637   100007 473500                    LDP3    7,,PR1
        27 000640   300000 236100                    LDQ     0,,PR3
        27 000641   400000 316007                    CANQ    -131072,DL
        27 000642   000650 600000 27                 TZE     s:13136

  13134 27 000643   100001 236100                    LDQ     1,,PR1
        27 000644   000077 376007                    ANQ     63,DL
        27 000645   000011 402007                    MPY     9,DL
        27 000646   000000 756000 24                 STQ     P_ELEMENT_SIZE
        27 000647   000651 710000 27                 TRA     s:13138

  13136 27 000650   000000 450000 24                 STZ     P_ELEMENT_SIZE

     1502    13138    6                          P_ELEMENT_SIZE = P_ELEMENT_SIZE / 2;

  13138 27 000651   000000 236000 24                 LDQ     P_ELEMENT_SIZE
        27 000652   000002 506007                    DIV     2,DL
        27 000653   000000 756000 24                 STQ     P_ELEMENT_SIZE

     1503    13139    6                        END;

  13139 27 000654   000720 710000 27                 TRA     s:13157

     1504    13140    5                      ELSE
     1505    13141    6                        DO;   /* Other */

     1506    13142    6                          P_ALIGNMENT_TYPE = 3;   /* BYTE */

  13142 27 000655   000003 235007                    LDA     3,DL
        27 000656   000000 755000 18                 STA     P_ALIGNMENT_TYPE

     1507    13143    6                          DIVVAL = (STP$ -> VARIABLE.NDSC.N + 1) / 2;
PL6.E3A0      #003=Z9IO$CALC_SCHEMA_INFO File=Z9IO.:Z8A6TSI                      SAT 08/09/97 14:07 Page:231

  13143 27 000657   000000 471500                    LDP1    0,,PR0
        27 000660   100001 236100                    LDQ     1,,PR1
        27 000661   000077 376007                    ANQ     63,DL
        27 000662   000001 036007                    ADLQ    1,DL
        27 000663   000001 772000                    QRL     1
        27 000664   200005 756100                    STQ     DIVVAL,,AUTO

     1508    13144
     1509    13145    6                         IF STP$ -> ST.ID = %ARRAY AND (NOT STP$ -> ARRAY.QLT$ -> QLT.
             13145                                   B.OCCURS) THEN

  13145 27 000665   100000 220100                    LDX0    0,,PR1
        27 000666   000765 100003                    CMPX0   501,DU
        27 000667   000707 601000 27                 TNZ     s:13150
        27 000670   100007 473500                    LDP3    7,,PR1
        27 000671   300000 236100                    LDQ     0,,PR3
        27 000672   400000 316007                    CANQ    -131072,DL
        27 000673   000707 601000 27                 TNZ     s:13150

     1510    13146    6                            P_ELEMENT_SIZE = ((DIMP$ -> DIMS.D.SPAN

  13146 27 000674   200007 474500                    LDP4    DIMP$,,AUTO
        27 000675   400000 236100                    LDQ     0,,PR4
        27 000676   777777 376007                    ANQ     -1,DL
        27 000677   000005 136007                    SBLQ    5,DL
        27 000700   000003 506007                    DIV     3,DL
        27 000701   000003 402007                    MPY     3,DL
        27 000702   400002 236106                    LDQ     2,QL,PR4
        27 000703   000001 772000                    QRL     1
        27 000704   000011 402007                    MPY     9,DL
        27 000705   000000 756000 24                 STQ     P_ELEMENT_SIZE
        27 000706   000720 710000 27                 TRA     s:13157

     1511    13147    6                                               ((DIMP$ -> DIMS.N - %MIN_DIM_SIZE) / %
             13147                                                        NO_WORDS_PER_DIM))
     1512    13148    6                                                  / 2) * 9;
PL6.E3A0      #003=Z9IO$CALC_SCHEMA_INFO File=Z9IO.:Z8A6TSI                      SAT 08/09/97 14:07 Page:232
     1513    13149    6                          ELSE
     1514    13150    6                          IF STP$ -> VARIABLE.QLT$ -> QLT.B.OCCURS THEN

  13150 27 000707   100007 473500                    LDP3    7,,PR1
        27 000710   300000 236100                    LDQ     0,,PR3
        27 000711   400000 316007                    CANQ    -131072,DL
        27 000712   000717 600000 27                 TZE     s:13153

     1515    13151    6                            P_ELEMENT_SIZE = DIVVAL * 9;

  13151 27 000713   200005 236100                    LDQ     DIVVAL,,AUTO
        27 000714   000011 402007                    MPY     9,DL
        27 000715   000000 756000 24                 STQ     P_ELEMENT_SIZE
        27 000716   000720 710000 27                 TRA     s:13157

     1516    13152    6                          ELSE
     1517    13153    6                            P_ELEMENT_SIZE = 0;

  13153 27 000717   000000 450000 24                 STZ     P_ELEMENT_SIZE

     1518    13154
     1519    13155    6                        END;

     1520    13156
     1521    13157    6                      DO CASE (BITBIN(STP$ -> VARIABLE.NDSC.S));

  13157 27 000720   000000 471500                    LDP1    0,,PR0
        27 000721   100001 236100                    LDQ     1,,PR1
        27 000722   000014 772000                    QRL     12
        27 000723   000003 376007                    ANQ     3,DL
        27 000724   000004 116007                    CMPQ    4,DL
        27 000725   000727 602006 27                 TNC     s:13157+7,QL
        27 000726   002030 710000 27                 TRA     s:13454
        27 000727   000757 710000 27                 TRA     s:13177
        27 000730   000733 710000 27                 TRA     s:13160
        27 000731   000744 710000 27                 TRA     s:13166
        27 000732   000755 710000 27                 TRA     s:13172
PL6.E3A0      #003=Z9IO$CALC_SCHEMA_INFO File=Z9IO.:Z8A6TSI                      SAT 08/09/97 14:07 Page:233

     1522    13158
     1523    13159    6                        CASE (1);   /* Leading sign */

     1524    13160    6                          IF STP$ -> VARIABLE.B.P THEN

  13160 27 000733   100003 236100                    LDQ     3,,PR1
        27 000734   000020 316003                    CANQ    16,DU
        27 000735   000741 600000 27                 TZE     s:13163

     1525    13161    6                            P_DATA_TYPE = %PDLE_DATATYPE;

  13161 27 000736   000063 235007                    LDA     51,DL
        27 000737   000000 755000 14                 STA     P_DATA_TYPE
        27 000740   002030 710000 27                 TRA     s:13454

     1526    13162    6                          ELSE
     1527    13163    6                            P_DATA_TYPE = %PDLA_DATATYPE;

  13163 27 000741   000011 235007                    LDA     9,DL
        27 000742   000000 755000 14                 STA     P_DATA_TYPE
        27 000743   002030 710000 27                 TRA     s:13454

     1528    13164
     1529    13165    6                        CASE (2);   /* Trailing sign */

     1530    13166    6                          IF STP$ -> VARIABLE.B.P THEN

  13166 27 000744   100003 236100                    LDQ     3,,PR1
        27 000745   000020 316003                    CANQ    16,DU
        27 000746   000752 600000 27                 TZE     s:13169

     1531    13167    6                            P_DATA_TYPE = %PDTE_DATATYPE;

  13167 27 000747   000037 235007                    LDA     31,DL
        27 000750   000000 755000 14                 STA     P_DATA_TYPE
        27 000751   002030 710000 27                 TRA     s:13454
PL6.E3A0      #003=Z9IO$CALC_SCHEMA_INFO File=Z9IO.:Z8A6TSI                      SAT 08/09/97 14:07 Page:234

     1532    13168    6                          ELSE
     1533    13169    6                            P_DATA_TYPE = %PDTA_DATATYPE;

  13169 27 000752   000031 235007                    LDA     25,DL
        27 000753   000000 755000 14                 STA     P_DATA_TYPE
        27 000754   002030 710000 27                 TRA     s:13454

     1534    13170
     1535    13171    6                        CASE (3);   /* No sign */

     1536    13172    6                          P_DATA_TYPE = %PDNS_DATATYPE;

  13172 27 000755   000050 235007                    LDA     40,DL
        27 000756   000000 755000 14                 STA     P_DATA_TYPE

     1537    13173
     1538    13174    6                      END;   /* Case on packed S */

     1539    13175
     1540    13176
     1541    13177    5                  END;  /* Case on TN */

  13177 27 000757   002030 710000 27                 TRA     s:13454

     1542    13178
     1543    13179
     1544    13180
     1545    13181    4                CASE (%TYO);   /* Overpunched */

     1546    13182
     1547    13183    4                  P_ADDRESS = P_ADDRESS + ((STP$ -> VARIABLE.NDSC.CN / 2)*9);

  13183 27 000760   100001 236100                    LDQ     1,,PR1
        27 000761   000017 772000                    QRL     15
        27 000762   000007 376007                    ANQ     7,DL
        27 000763   000001 772000                    QRL     1
PL6.E3A0      #003=Z9IO$CALC_SCHEMA_INFO File=Z9IO.:Z8A6TSI                      SAT 08/09/97 14:07 Page:235
        27 000764   000011 402007                    MPY     9,DL
        27 000765   000000 036000 12                 ADLQ    P_ADDRESS
        27 000766   000000 756000 12                 STQ     P_ADDRESS

     1548    13184    4                  P_ALIGNMENT_TYPE = 3;   /* Bytes */

  13184 27 000767   000003 235007                    LDA     3,DL
        27 000770   000000 755000 18                 STA     P_ALIGNMENT_TYPE

     1549    13185
     1550    13186    5                  DO CASE (BITBIN(STP$ -> VARIABLE.NDSC.S));

  13186 27 000771   000000 471500                    LDP1    0,,PR0
        27 000772   100001 236100                    LDQ     1,,PR1
        27 000773   000014 772000                    QRL     12
        27 000774   000003 376007                    ANQ     3,DL
        27 000775   000003 116007                    CMPQ    3,DL
        27 000776   001000 602006 27                 TNC     s:13186+7,QL
        27 000777   001010 710000 27                 TRA     s:13198
        27 001000   001010 710000 27                 TRA     s:13198
        27 001001   001003 710000 27                 TRA     s:13190
        27 001002   001006 710000 27                 TRA     s:13194

     1551    13187
     1552    13188    5                    CASE (1);   /* Leading sign */

     1553    13189
     1554    13190    5                      P_DATA_TYPE = %UDLO_DATATYPE;

  13190 27 001003   000054 235007                    LDA     44,DL
        27 001004   000000 755000 14                 STA     P_DATA_TYPE
        27 001005   001010 710000 27                 TRA     s:13198

     1555    13191
     1556    13192    5                    CASE (2);   /* trailing sign */

     1557    13193
PL6.E3A0      #003=Z9IO$CALC_SCHEMA_INFO File=Z9IO.:Z8A6TSI                      SAT 08/09/97 14:07 Page:236
     1558    13194    5                      P_DATA_TYPE = %UDTO_DATATYPE;

  13194 27 001006   000055 235007                    LDA     45,DL
        27 001007   000000 755000 14                 STA     P_DATA_TYPE

     1559    13195
     1560    13196    5                  END;  /* Case on  S */

     1561    13197
     1562    13198    4                  P_LOG_SIZE = STP$ -> VARIABLE.NDSC.N;

  13198 27 001010   000000 471500                    LDP1    0,,PR0
        27 001011   100001 236100                    LDQ     1,,PR1
        27 001012   000077 376007                    ANQ     63,DL
        27 001013   000000 756000 17                 STQ     P_LOG_SIZE

     1563    13199    4                  P_SCALE_FACTOR = STP$ -> VARIABLE.NDSC.SF;

  13199 27 001014   000000 471500                    LDP1    0,,PR0
        27 001015   100001 236100                    LDQ     1,,PR1
        27 001016   000030 736000                    QLS     24
        27 001017   000036 732000                    QRS     30
        27 001020   000000 756000 25                 STQ     P_SCALE_FACTOR

     1564    13200                       %CALC_ELEM_SIZE(OCC="9", DIMED="P_LOG_SIZE * 9");

  13201 27 001021   000000 471500                    LDP1    0,,PR0
        27 001022   100000 220100                    LDX0    0,,PR1
        27 001023   000765 100003                    CMPX0   501,DU
        27 001024   001043 601000 27                 TNZ     s:13206
        27 001025   100007 473500                    LDP3    7,,PR1
        27 001026   300000 236100                    LDQ     0,,PR3
        27 001027   400000 316007                    CANQ    -131072,DL
        27 001030   001043 601000 27                 TNZ     s:13206

  13202 27 001031   200007 474500                    LDP4    DIMP$,,AUTO
        27 001032   400000 236100                    LDQ     0,,PR4
PL6.E3A0      #003=Z9IO$CALC_SCHEMA_INFO File=Z9IO.:Z8A6TSI                      SAT 08/09/97 14:07 Page:237
        27 001033   777777 376007                    ANQ     -1,DL
        27 001034   000005 136007                    SBLQ    5,DL
        27 001035   000003 506007                    DIV     3,DL
        27 001036   000003 402007                    MPY     3,DL
        27 001037   400002 236106                    LDQ     2,QL,PR4
        27 001040   000011 402007                    MPY     9,DL
        27 001041   000000 756000 24                 STQ     P_ELEMENT_SIZE
        27 001042   002030 710000 27                 TRA     s:13454

  13206 27 001043   100007 473500                    LDP3    7,,PR1
        27 001044   300000 236100                    LDQ     0,,PR3
        27 001045   400000 316007                    CANQ    -131072,DL
        27 001046   001053 600000 27                 TZE     s:13209

  13207 27 001047   000000 236000 17                 LDQ     P_LOG_SIZE
        27 001050   000011 402007                    MPY     9,DL
        27 001051   000000 756000 24                 STQ     P_ELEMENT_SIZE
        27 001052   002030 710000 27                 TRA     s:13454

  13209 27 001053   000000 450000 24                 STZ     P_ELEMENT_SIZE
        27 001054   002030 710000 27                 TRA     s:13454

     1565    13211
     1566    13212
     1567    13213    4                CASE (%TYJ);   /* COMP-1 */

     1568    13214
     1569    13215    4                  P_ADDRESS = P_ADDRESS + ((STP$ -> VARIABLE.NDSC.CN/2)*9);

  13215 27 001055   100001 236100                    LDQ     1,,PR1
        27 001056   000017 772000                    QRL     15
        27 001057   000007 376007                    ANQ     7,DL
        27 001060   000001 772000                    QRL     1
        27 001061   000011 402007                    MPY     9,DL
        27 001062   000000 036000 12                 ADLQ    P_ADDRESS
        27 001063   000000 756000 12                 STQ     P_ADDRESS

PL6.E3A0      #003=Z9IO$CALC_SCHEMA_INFO File=Z9IO.:Z8A6TSI                      SAT 08/09/97 14:07 Page:238
     1570    13216    4                  P_ALIGNMENT_TYPE = 3;  /* BYTE */

  13216 27 001064   000003 235007                    LDA     3,DL
        27 001065   000000 755000 18                 STA     P_ALIGNMENT_TYPE

     1571    13217    4                  P_SCALE_FACTOR = STP$ -> VARIABLE.NDSC.SF;

  13217 27 001066   000000 471500                    LDP1    0,,PR0
        27 001067   100001 236100                    LDQ     1,,PR1
        27 001070   000030 736000                    QLS     24
        27 001071   000036 732000                    QRS     30
        27 001072   000000 756000 25                 STQ     P_SCALE_FACTOR

     1572    13218    4                  P_DATA_TYPE = %COMP1_DATATYPE;

  13218 27 001073   000035 235007                    LDA     29,DL
        27 001074   000000 755000 14                 STA     P_DATA_TYPE

     1573    13219    4                  P_LOG_SIZE = 18;

  13219 27 001075   000022 235007                    LDA     18,DL
        27 001076   000000 755000 17                 STA     P_LOG_SIZE

     1574    13220                       %CALC_ELEM_SIZE(OCC="18", DIMED="18");

  13221 27 001077   000000 471500                    LDP1    0,,PR0
        27 001100   100000 220100                    LDX0    0,,PR1
        27 001101   000765 100003                    CMPX0   501,DU
        27 001102   001121 601000 27                 TNZ     s:13226
        27 001103   100007 473500                    LDP3    7,,PR1
        27 001104   300000 236100                    LDQ     0,,PR3
        27 001105   400000 316007                    CANQ    -131072,DL
        27 001106   001121 601000 27                 TNZ     s:13226

  13222 27 001107   200007 474500                    LDP4    DIMP$,,AUTO
        27 001110   400000 236100                    LDQ     0,,PR4
        27 001111   777777 376007                    ANQ     -1,DL
PL6.E3A0      #003=Z9IO$CALC_SCHEMA_INFO File=Z9IO.:Z8A6TSI                      SAT 08/09/97 14:07 Page:239
        27 001112   000005 136007                    SBLQ    5,DL
        27 001113   000003 506007                    DIV     3,DL
        27 001114   000003 402007                    MPY     3,DL
        27 001115   400002 236106                    LDQ     2,QL,PR4
        27 001116   000022 402007                    MPY     18,DL
        27 001117   000000 756000 24                 STQ     P_ELEMENT_SIZE
        27 001120   002030 710000 27                 TRA     s:13454

  13226 27 001121   100007 473500                    LDP3    7,,PR1
        27 001122   300000 236100                    LDQ     0,,PR3
        27 001123   400000 316007                    CANQ    -131072,DL
        27 001124   001127 600000 27                 TZE     s:13229

  13227 27 001125   000000 755000 24                 STA     P_ELEMENT_SIZE
        27 001126   002030 710000 27                 TRA     s:13454

  13229 27 001127   000000 450000 24                 STZ     P_ELEMENT_SIZE
        27 001130   002030 710000 27                 TRA     s:13454

     1575    13231
     1576    13232    4                CASE (%TYK);   /* COMP-2 */

     1577    13233
     1578    13234    4                  P_ADDRESS = P_ADDRESS + ((STP$ -> VARIABLE.NDSC.CN/2)*9);

  13234 27 001131   100001 236100                    LDQ     1,,PR1
        27 001132   000017 772000                    QRL     15
        27 001133   000007 376007                    ANQ     7,DL
        27 001134   000001 772000                    QRL     1
        27 001135   000011 402007                    MPY     9,DL
        27 001136   000000 036000 12                 ADLQ    P_ADDRESS
        27 001137   000000 756000 12                 STQ     P_ADDRESS

     1579    13235    4                  P_ALIGNMENT_TYPE = 3;  /* BYTE */

  13235 27 001140   000003 235007                    LDA     3,DL
        27 001141   000000 755000 18                 STA     P_ALIGNMENT_TYPE
PL6.E3A0      #003=Z9IO$CALC_SCHEMA_INFO File=Z9IO.:Z8A6TSI                      SAT 08/09/97 14:07 Page:240

     1580    13236    4                  P_SCALE_FACTOR = STP$ -> VARIABLE.NDSC.SF;

  13236 27 001142   000000 471500                    LDP1    0,,PR0
        27 001143   100001 236100                    LDQ     1,,PR1
        27 001144   000030 736000                    QLS     24
        27 001145   000036 732000                    QRS     30
        27 001146   000000 756000 25                 STQ     P_SCALE_FACTOR

     1581    13237    4                  P_DATA_TYPE = %COMP2_DATATYPE;

  13237 27 001147   000036 235007                    LDA     30,DL
        27 001150   000000 755000 14                 STA     P_DATA_TYPE

     1582    13238    4                  P_LOG_SIZE = 36;

  13238 27 001151   000044 235007                    LDA     36,DL
        27 001152   000000 755000 17                 STA     P_LOG_SIZE

     1583    13239                       %CALC_ELEM_SIZE(OCC="36", DIMED="36");

  13240 27 001153   000000 471500                    LDP1    0,,PR0
        27 001154   100000 220100                    LDX0    0,,PR1
        27 001155   000765 100003                    CMPX0   501,DU
        27 001156   001175 601000 27                 TNZ     s:13245
        27 001157   100007 473500                    LDP3    7,,PR1
        27 001160   300000 236100                    LDQ     0,,PR3
        27 001161   400000 316007                    CANQ    -131072,DL
        27 001162   001175 601000 27                 TNZ     s:13245

  13241 27 001163   200007 474500                    LDP4    DIMP$,,AUTO
        27 001164   400000 236100                    LDQ     0,,PR4
        27 001165   777777 376007                    ANQ     -1,DL
        27 001166   000005 136007                    SBLQ    5,DL
        27 001167   000003 506007                    DIV     3,DL
        27 001170   000003 402007                    MPY     3,DL
        27 001171   400002 236106                    LDQ     2,QL,PR4
PL6.E3A0      #003=Z9IO$CALC_SCHEMA_INFO File=Z9IO.:Z8A6TSI                      SAT 08/09/97 14:07 Page:241
        27 001172   000044 402007                    MPY     36,DL
        27 001173   000000 756000 24                 STQ     P_ELEMENT_SIZE
        27 001174   002030 710000 27                 TRA     s:13454

  13245 27 001175   100007 473500                    LDP3    7,,PR1
        27 001176   300000 236100                    LDQ     0,,PR3
        27 001177   400000 316007                    CANQ    -131072,DL
        27 001200   001203 600000 27                 TZE     s:13248

  13246 27 001201   000000 755000 24                 STA     P_ELEMENT_SIZE
        27 001202   002030 710000 27                 TRA     s:13454

  13248 27 001203   000000 450000 24                 STZ     P_ELEMENT_SIZE
        27 001204   002030 710000 27                 TRA     s:13454

     1584    13250
     1585    13251
     1586    13252    4                CASE (%TYH);    /* COMP-7 */

     1587    13253
     1588    13254    4                  P_ADDRESS = P_ADDRESS + ((STP$ -> VARIABLE.NDSC.CN/2) * 9);

  13254 27 001205   100001 236100                    LDQ     1,,PR1
        27 001206   000017 772000                    QRL     15
        27 001207   000007 376007                    ANQ     7,DL
        27 001210   000001 772000                    QRL     1
        27 001211   000011 402007                    MPY     9,DL
        27 001212   000000 036000 12                 ADLQ    P_ADDRESS
        27 001213   000000 756000 12                 STQ     P_ADDRESS

     1589    13255    4                  P_ALIGNMENT_TYPE = 2;  /* HALF-WORD */

  13255 27 001214   000002 235007                    LDA     2,DL
        27 001215   000000 755000 18                 STA     P_ALIGNMENT_TYPE

     1590    13256    4                  P_DATA_TYPE = %SBIN_DATATYPE;

PL6.E3A0      #003=Z9IO$CALC_SCHEMA_INFO File=Z9IO.:Z8A6TSI                      SAT 08/09/97 14:07 Page:242
  13256 27 001216   000001 235007                    LDA     1,DL
        27 001217   000000 755000 14                 STA     P_DATA_TYPE

     1591    13257    4                  P_LOG_SIZE = 18;

  13257 27 001220   000022 235007                    LDA     18,DL
        27 001221   000000 755000 17                 STA     P_LOG_SIZE

     1592    13258    4                  P_SCALE_FACTOR = STP$ -> VARIABLE.NDSC.SF;

  13258 27 001222   000000 471500                    LDP1    0,,PR0
        27 001223   100001 236100                    LDQ     1,,PR1
        27 001224   000030 736000                    QLS     24
        27 001225   000036 732000                    QRS     30
        27 001226   000000 756000 25                 STQ     P_SCALE_FACTOR

     1593    13259                       %CALC_ELEM_SIZE(OCC="18", DIMED="18");

  13260 27 001227   000000 471500                    LDP1    0,,PR0
        27 001230   100000 220100                    LDX0    0,,PR1
        27 001231   000765 100003                    CMPX0   501,DU
        27 001232   001251 601000 27                 TNZ     s:13265
        27 001233   100007 473500                    LDP3    7,,PR1
        27 001234   300000 236100                    LDQ     0,,PR3
        27 001235   400000 316007                    CANQ    -131072,DL
        27 001236   001251 601000 27                 TNZ     s:13265

  13261 27 001237   200007 474500                    LDP4    DIMP$,,AUTO
        27 001240   400000 236100                    LDQ     0,,PR4
        27 001241   777777 376007                    ANQ     -1,DL
        27 001242   000005 136007                    SBLQ    5,DL
        27 001243   000003 506007                    DIV     3,DL
        27 001244   000003 402007                    MPY     3,DL
        27 001245   400002 236106                    LDQ     2,QL,PR4
        27 001246   000022 402007                    MPY     18,DL
        27 001247   000000 756000 24                 STQ     P_ELEMENT_SIZE
        27 001250   002030 710000 27                 TRA     s:13454
PL6.E3A0      #003=Z9IO$CALC_SCHEMA_INFO File=Z9IO.:Z8A6TSI                      SAT 08/09/97 14:07 Page:243

  13265 27 001251   100007 473500                    LDP3    7,,PR1
        27 001252   300000 236100                    LDQ     0,,PR3
        27 001253   400000 316007                    CANQ    -131072,DL
        27 001254   001257 600000 27                 TZE     s:13268

  13266 27 001255   000000 755000 24                 STA     P_ELEMENT_SIZE
        27 001256   002030 710000 27                 TRA     s:13454

  13268 27 001257   000000 450000 24                 STZ     P_ELEMENT_SIZE
        27 001260   002030 710000 27                 TRA     s:13454

     1594    13270
     1595    13271
     1596    13272
     1597    13273    4                CASE (%TYR);   /* COMP-11 (REAL) */

     1598    13274
     1599    13275    4                  P_ALIGNMENT_TYPE = 1;   /* WORD */

  13275 27 001261   000000 755000 18                 STA     P_ALIGNMENT_TYPE

     1600    13276    4                  P_DATA_TYPE = %SFLT_DATATYPE;

  13276 27 001262   000003 236007                    LDQ     3,DL
        27 001263   000000 756000 14                 STQ     P_DATA_TYPE

     1601    13277    4                  P_LOG_SIZE = 36;

  13277 27 001264   000044 235007                    LDA     36,DL
        27 001265   000000 755000 17                 STA     P_LOG_SIZE

     1602    13278    4                  P_SCALE_FACTOR = STP$ -> VARIABLE.NDSC.SF;

  13278 27 001266   000000 471500                    LDP1    0,,PR0
        27 001267   100001 236100                    LDQ     1,,PR1
        27 001270   000030 736000                    QLS     24
PL6.E3A0      #003=Z9IO$CALC_SCHEMA_INFO File=Z9IO.:Z8A6TSI                      SAT 08/09/97 14:07 Page:244
        27 001271   000036 732000                    QRS     30
        27 001272   000000 756000 25                 STQ     P_SCALE_FACTOR

     1603    13279                       %CALC_ELEM_SIZE(OCC="36", DIMED="36");

  13280 27 001273   000000 471500                    LDP1    0,,PR0
        27 001274   100000 220100                    LDX0    0,,PR1
        27 001275   000765 100003                    CMPX0   501,DU
        27 001276   001315 601000 27                 TNZ     s:13285
        27 001277   100007 473500                    LDP3    7,,PR1
        27 001300   300000 236100                    LDQ     0,,PR3
        27 001301   400000 316007                    CANQ    -131072,DL
        27 001302   001315 601000 27                 TNZ     s:13285

  13281 27 001303   200007 474500                    LDP4    DIMP$,,AUTO
        27 001304   400000 236100                    LDQ     0,,PR4
        27 001305   777777 376007                    ANQ     -1,DL
        27 001306   000005 136007                    SBLQ    5,DL
        27 001307   000003 506007                    DIV     3,DL
        27 001310   000003 402007                    MPY     3,DL
        27 001311   400002 236106                    LDQ     2,QL,PR4
        27 001312   000044 402007                    MPY     36,DL
        27 001313   000000 756000 24                 STQ     P_ELEMENT_SIZE
        27 001314   002030 710000 27                 TRA     s:13454

  13285 27 001315   100007 473500                    LDP3    7,,PR1
        27 001316   300000 236100                    LDQ     0,,PR3
        27 001317   400000 316007                    CANQ    -131072,DL
        27 001320   001323 600000 27                 TZE     s:13288

  13286 27 001321   000000 755000 24                 STA     P_ELEMENT_SIZE
        27 001322   002030 710000 27                 TRA     s:13454

  13288 27 001323   000000 450000 24                 STZ     P_ELEMENT_SIZE
        27 001324   002030 710000 27                 TRA     s:13454

     1604    13290
PL6.E3A0      #003=Z9IO$CALC_SCHEMA_INFO File=Z9IO.:Z8A6TSI                      SAT 08/09/97 14:07 Page:245
     1605    13291
     1606    13292
     1607    13293    4                CASE (%TYQ);    /* COMP-12 (D.P.) */

     1608    13294
     1609    13295    4                  P_ALIGNMENT_TYPE = 0;     /* DOUBLE */

  13295 27 001325   000000 450000 18                 STZ     P_ALIGNMENT_TYPE

     1610    13296    4                  P_DATA_TYPE = %DFLT_DATATYPE;

  13296 27 001326   000004 236007                    LDQ     4,DL
        27 001327   000000 756000 14                 STQ     P_DATA_TYPE

     1611    13297    4                  P_LOG_SIZE = 72;

  13297 27 001330   000110 235007                    LDA     72,DL
        27 001331   000000 755000 17                 STA     P_LOG_SIZE

     1612    13298    4                  P_SCALE_FACTOR = STP$ -> VARIABLE.NDSC.SF;

  13298 27 001332   000000 471500                    LDP1    0,,PR0
        27 001333   100001 236100                    LDQ     1,,PR1
        27 001334   000030 736000                    QLS     24
        27 001335   000036 732000                    QRS     30
        27 001336   000000 756000 25                 STQ     P_SCALE_FACTOR

     1613    13299                       %CALC_ELEM_SIZE(OCC="72", DIMED="72");

  13300 27 001337   000000 471500                    LDP1    0,,PR0
        27 001340   100000 220100                    LDX0    0,,PR1
        27 001341   000765 100003                    CMPX0   501,DU
        27 001342   001361 601000 27                 TNZ     s:13305
        27 001343   100007 473500                    LDP3    7,,PR1
        27 001344   300000 236100                    LDQ     0,,PR3
        27 001345   400000 316007                    CANQ    -131072,DL
        27 001346   001361 601000 27                 TNZ     s:13305
PL6.E3A0      #003=Z9IO$CALC_SCHEMA_INFO File=Z9IO.:Z8A6TSI                      SAT 08/09/97 14:07 Page:246

  13301 27 001347   200007 474500                    LDP4    DIMP$,,AUTO
        27 001350   400000 236100                    LDQ     0,,PR4
        27 001351   777777 376007                    ANQ     -1,DL
        27 001352   000005 136007                    SBLQ    5,DL
        27 001353   000003 506007                    DIV     3,DL
        27 001354   000003 402007                    MPY     3,DL
        27 001355   400002 236106                    LDQ     2,QL,PR4
        27 001356   000110 402007                    MPY     72,DL
        27 001357   000000 756000 24                 STQ     P_ELEMENT_SIZE
        27 001360   002030 710000 27                 TRA     s:13454

  13305 27 001361   100007 473500                    LDP3    7,,PR1
        27 001362   300000 236100                    LDQ     0,,PR3
        27 001363   400000 316007                    CANQ    -131072,DL
        27 001364   001367 600000 27                 TZE     s:13308

  13306 27 001365   000000 755000 24                 STA     P_ELEMENT_SIZE
        27 001366   002030 710000 27                 TRA     s:13454

  13308 27 001367   000000 450000 24                 STZ     P_ELEMENT_SIZE
        27 001370   002030 710000 27                 TRA     s:13454

     1614    13310
     1615    13311
     1616    13312
     1617    13313    4                CASE (%TYX);   /* INDEX */

     1618    13314
     1619    13315    4                  P_ALIGNMENT_TYPE = 0;    /* DOUBLE */

  13315 27 001371   000000 450000 18                 STZ     P_ALIGNMENT_TYPE

     1620    13316    4                  P_DATA_TYPE = %INDEX1_DATATYPE;

  13316 27 001372   000040 236007                    LDQ     32,DL
        27 001373   000000 756000 14                 STQ     P_DATA_TYPE
PL6.E3A0      #003=Z9IO$CALC_SCHEMA_INFO File=Z9IO.:Z8A6TSI                      SAT 08/09/97 14:07 Page:247

     1621    13317    4                  P_LOG_SIZE = 72;

  13317 27 001374   000110 235007                    LDA     72,DL
        27 001375   000000 755000 17                 STA     P_LOG_SIZE

     1622    13318    4                  P_SCALE_FACTOR = 0;

  13318 27 001376   000000 450000 25                 STZ     P_SCALE_FACTOR

     1623    13319                       %CALC_ELEM_SIZE(OCC="72", DIMED="72");

  13320 27 001377   000000 471500                    LDP1    0,,PR0
        27 001400   100000 220100                    LDX0    0,,PR1
        27 001401   000765 100003                    CMPX0   501,DU
        27 001402   001421 601000 27                 TNZ     s:13325
        27 001403   100007 473500                    LDP3    7,,PR1
        27 001404   300000 236100                    LDQ     0,,PR3
        27 001405   400000 316007                    CANQ    -131072,DL
        27 001406   001421 601000 27                 TNZ     s:13325

  13321 27 001407   200007 474500                    LDP4    DIMP$,,AUTO
        27 001410   400000 236100                    LDQ     0,,PR4
        27 001411   777777 376007                    ANQ     -1,DL
        27 001412   000005 136007                    SBLQ    5,DL
        27 001413   000003 506007                    DIV     3,DL
        27 001414   000003 402007                    MPY     3,DL
        27 001415   400002 236106                    LDQ     2,QL,PR4
        27 001416   000110 402007                    MPY     72,DL
        27 001417   000000 756000 24                 STQ     P_ELEMENT_SIZE
        27 001420   002030 710000 27                 TRA     s:13454

  13325 27 001421   100007 473500                    LDP3    7,,PR1
        27 001422   300000 236100                    LDQ     0,,PR3
        27 001423   400000 316007                    CANQ    -131072,DL
        27 001424   001427 600000 27                 TZE     s:13328

PL6.E3A0      #003=Z9IO$CALC_SCHEMA_INFO File=Z9IO.:Z8A6TSI                      SAT 08/09/97 14:07 Page:248
  13326 27 001425   000000 755000 24                 STA     P_ELEMENT_SIZE
        27 001426   002030 710000 27                 TRA     s:13454

  13328 27 001427   000000 450000 24                 STZ     P_ELEMENT_SIZE
        27 001430   002030 710000 27                 TRA     s:13454

     1624    13330
     1625    13331
     1626    13332
     1627    13333    4                CASE (%TYY);   /* INDEX (IBM) */

     1628    13334
     1629    13335    4                  P_ALIGNMENT_TYPE = 3;   /* BYTE */

  13335 27 001431   000003 235007                    LDA     3,DL
        27 001432   000000 755000 18                 STA     P_ALIGNMENT_TYPE

     1630    13336    4                  P_ADDRESS = P_ADDRESS + ((STP$ -> VARIABLE.ADSC.CN) * 9); /*#33133*/

  13336 27 001433   000000 471500                    LDP1    0,,PR0
        27 001434   100001 236100                    LDQ     1,,PR1
        27 001435   000020 772000                    QRL     16
        27 001436   000003 376007                    ANQ     3,DL
        27 001437   000011 402007                    MPY     9,DL
        27 001440   000000 036000 12                 ADLQ    P_ADDRESS
        27 001441   000000 756000 12                 STQ     P_ADDRESS

     1631    13337    4                  P_DATA_TYPE = %INDEX2_DATATYPE;

  13337 27 001442   000041 235007                    LDA     33,DL
        27 001443   000000 755000 14                 STA     P_DATA_TYPE

     1632    13338    4                  P_LOG_SIZE = 54;

  13338 27 001444   000066 235007                    LDA     54,DL
        27 001445   000000 755000 17                 STA     P_LOG_SIZE

PL6.E3A0      #003=Z9IO$CALC_SCHEMA_INFO File=Z9IO.:Z8A6TSI                      SAT 08/09/97 14:07 Page:249
     1633    13339    4                  P_SCALE_FACTOR = 0;

  13339 27 001446   000000 450000 25                 STZ     P_SCALE_FACTOR

     1634    13340                       %CALC_ELEM_SIZE(OCC="54", DIMED="54");

  13341 27 001447   000000 471500                    LDP1    0,,PR0
        27 001450   100000 220100                    LDX0    0,,PR1
        27 001451   000765 100003                    CMPX0   501,DU
        27 001452   001471 601000 27                 TNZ     s:13346
        27 001453   100007 473500                    LDP3    7,,PR1
        27 001454   300000 236100                    LDQ     0,,PR3
        27 001455   400000 316007                    CANQ    -131072,DL
        27 001456   001471 601000 27                 TNZ     s:13346

  13342 27 001457   200007 474500                    LDP4    DIMP$,,AUTO
        27 001460   400000 236100                    LDQ     0,,PR4
        27 001461   777777 376007                    ANQ     -1,DL
        27 001462   000005 136007                    SBLQ    5,DL
        27 001463   000003 506007                    DIV     3,DL
        27 001464   000003 402007                    MPY     3,DL
        27 001465   400002 236106                    LDQ     2,QL,PR4
        27 001466   000066 402007                    MPY     54,DL
        27 001467   000000 756000 24                 STQ     P_ELEMENT_SIZE
        27 001470   002030 710000 27                 TRA     s:13454

  13346 27 001471   100007 473500                    LDP3    7,,PR1
        27 001472   300000 236100                    LDQ     0,,PR3
        27 001473   400000 316007                    CANQ    -131072,DL
        27 001474   001477 600000 27                 TZE     s:13349

  13347 27 001475   000000 755000 24                 STA     P_ELEMENT_SIZE
        27 001476   002030 710000 27                 TRA     s:13454

  13349 27 001477   000000 450000 24                 STZ     P_ELEMENT_SIZE
        27 001500   002030 710000 27                 TRA     s:13454

PL6.E3A0      #003=Z9IO$CALC_SCHEMA_INFO File=Z9IO.:Z8A6TSI                      SAT 08/09/97 14:07 Page:250
     1635    13351
     1636    13352
     1637    13353    4                CASE (%TYE);   /* EBCDIC non-numeric */

     1638    13354
     1639    13355    4                  P_ADDRESS = P_ADDRESS + ((STP$ -> VARIABLE.ADSC.CN) * 9);

  13355 27 001501   100001 236100                    LDQ     1,,PR1
        27 001502   000020 772000                    QRL     16
        27 001503   000003 376007                    ANQ     3,DL
        27 001504   000011 402007                    MPY     9,DL
        27 001505   000000 036000 12                 ADLQ    P_ADDRESS
        27 001506   000000 756000 12                 STQ     P_ADDRESS

     1640    13356    4                  P_DATA_TYPE = %CHAR_DATATYPE;

  13356 27 001507   000025 235007                    LDA     21,DL
        27 001510   000000 755000 14                 STA     P_DATA_TYPE

     1641    13357    4                  IF STP$ -> VARIABLE.B.LENGTH_4096 THEN

  13357 27 001511   000000 471500                    LDP1    0,,PR0
        27 001512   100003 236100                    LDQ     3,,PR1
        27 001513   004000 316003                    CANQ    2048,DU
        27 001514   001521 600000 27                 TZE     s:13360

     1642    13358    4                    P_LOG_SIZE = LONGP$ -> LONG.LENGTH;

  13358 27 001515   200010 473500                    LDP3    LONGP$,,AUTO
        27 001516   300001 235100                    LDA     1,,PR3
        27 001517   000000 755000 17                 STA     P_LOG_SIZE
        27 001520   001524 710000 27                 TRA     s:13361

     1643    13359    4                  ELSE
     1644    13360    4                    P_LOG_SIZE = STP$ -> VARIABLE.ADSC.N;

  13360 27 001521   100001 236100                    LDQ     1,,PR1
PL6.E3A0      #003=Z9IO$CALC_SCHEMA_INFO File=Z9IO.:Z8A6TSI                      SAT 08/09/97 14:07 Page:251
        27 001522   007777 376007                    ANQ     4095,DL
        27 001523   000000 756000 17                 STQ     P_LOG_SIZE

     1645    13361    4                  P_ALIGNMENT_TYPE = 3;   /* BYTE ALIGNED */

  13361 27 001524   000003 235007                    LDA     3,DL
        27 001525   000000 755000 18                 STA     P_ALIGNMENT_TYPE

     1646    13362    4                  P_SCALE_FACTOR = 0;

  13362 27 001526   000000 450000 25                 STZ     P_SCALE_FACTOR

     1647    13363                       %CALC_ELEM_SIZE(OCC="9", DIMED="P_LOG_SIZE * 9");

  13364 27 001527   000000 471500                    LDP1    0,,PR0
        27 001530   100000 220100                    LDX0    0,,PR1
        27 001531   000765 100003                    CMPX0   501,DU
        27 001532   001551 601000 27                 TNZ     s:13369
        27 001533   100007 473500                    LDP3    7,,PR1
        27 001534   300000 236100                    LDQ     0,,PR3
        27 001535   400000 316007                    CANQ    -131072,DL
        27 001536   001551 601000 27                 TNZ     s:13369

  13365 27 001537   200007 474500                    LDP4    DIMP$,,AUTO
        27 001540   400000 236100                    LDQ     0,,PR4
        27 001541   777777 376007                    ANQ     -1,DL
        27 001542   000005 136007                    SBLQ    5,DL
        27 001543   000003 506007                    DIV     3,DL
        27 001544   000003 402007                    MPY     3,DL
        27 001545   400002 236106                    LDQ     2,QL,PR4
        27 001546   000011 402007                    MPY     9,DL
        27 001547   000000 756000 24                 STQ     P_ELEMENT_SIZE
        27 001550   002030 710000 27                 TRA     s:13454

  13369 27 001551   100007 473500                    LDP3    7,,PR1
        27 001552   300000 236100                    LDQ     0,,PR3
        27 001553   400000 316007                    CANQ    -131072,DL
PL6.E3A0      #003=Z9IO$CALC_SCHEMA_INFO File=Z9IO.:Z8A6TSI                      SAT 08/09/97 14:07 Page:252
        27 001554   001561 600000 27                 TZE     s:13372

  13370 27 001555   000000 236000 17                 LDQ     P_LOG_SIZE
        27 001556   000011 402007                    MPY     9,DL
        27 001557   000000 756000 24                 STQ     P_ELEMENT_SIZE
        27 001560   002030 710000 27                 TRA     s:13454

  13372 27 001561   000000 450000 24                 STZ     P_ELEMENT_SIZE
        27 001562   002030 710000 27                 TRA     s:13454

     1648    13374
     1649    13375    4                CASE (%TYF);   /* EBCDIC numeric */

     1650    13376
     1651    13377    4                  P_ADDRESS = P_ADDRESS + (STP$ -> VARIABLE.NDSC.CN / 2)*9;

  13377 27 001563   100001 236100                    LDQ     1,,PR1
        27 001564   000017 772000                    QRL     15
        27 001565   000007 376007                    ANQ     7,DL
        27 001566   000001 772000                    QRL     1
        27 001567   000011 402007                    MPY     9,DL
        27 001570   000000 036000 12                 ADLQ    P_ADDRESS
        27 001571   000000 756000 12                 STQ     P_ADDRESS

     1652    13378    4                  P_ALIGNMENT_TYPE = 3;   /* Byte */

  13378 27 001572   000003 235007                    LDA     3,DL
        27 001573   000000 755000 18                 STA     P_ALIGNMENT_TYPE

     1653    13379    4                  P_SCALE_FACTOR = STP$ -> VARIABLE.NDSC.SF;

  13379 27 001574   000000 471500                    LDP1    0,,PR0
        27 001575   100001 236100                    LDQ     1,,PR1
        27 001576   000030 736000                    QLS     24
        27 001577   000036 732000                    QRS     30
        27 001600   000000 756000 25                 STQ     P_SCALE_FACTOR

PL6.E3A0      #003=Z9IO$CALC_SCHEMA_INFO File=Z9IO.:Z8A6TSI                      SAT 08/09/97 14:07 Page:253
     1654    13380    4                  P_LOG_SIZE = STP$ -> VARIABLE.NDSC.N;

  13380 27 001601   000000 471500                    LDP1    0,,PR0
        27 001602   100001 236100                    LDQ     1,,PR1
        27 001603   000077 376007                    ANQ     63,DL
        27 001604   000000 756000 17                 STQ     P_LOG_SIZE

     1655    13381                       %CALC_ELEM_SIZE(OCC="9", DIMED="STP$ -> VARIABLE.NDSC.N * 9");

  13382 27 001605   000000 471500                    LDP1    0,,PR0
        27 001606   100000 220100                    LDX0    0,,PR1
        27 001607   000765 100003                    CMPX0   501,DU
        27 001610   001627 601000 27                 TNZ     s:13387
        27 001611   100007 473500                    LDP3    7,,PR1
        27 001612   300000 236100                    LDQ     0,,PR3
        27 001613   400000 316007                    CANQ    -131072,DL
        27 001614   001627 601000 27                 TNZ     s:13387

  13383 27 001615   200007 474500                    LDP4    DIMP$,,AUTO
        27 001616   400000 236100                    LDQ     0,,PR4
        27 001617   777777 376007                    ANQ     -1,DL
        27 001620   000005 136007                    SBLQ    5,DL
        27 001621   000003 506007                    DIV     3,DL
        27 001622   000003 402007                    MPY     3,DL
        27 001623   400002 236106                    LDQ     2,QL,PR4
        27 001624   000011 402007                    MPY     9,DL
        27 001625   000000 756000 24                 STQ     P_ELEMENT_SIZE
        27 001626   001641 710000 27                 TRA     s:13393

  13387 27 001627   100007 473500                    LDP3    7,,PR1
        27 001630   300000 236100                    LDQ     0,,PR3
        27 001631   400000 316007                    CANQ    -131072,DL
        27 001632   001640 600000 27                 TZE     s:13390

  13388 27 001633   100001 236100                    LDQ     1,,PR1
        27 001634   000077 376007                    ANQ     63,DL
        27 001635   000011 402007                    MPY     9,DL
PL6.E3A0      #003=Z9IO$CALC_SCHEMA_INFO File=Z9IO.:Z8A6TSI                      SAT 08/09/97 14:07 Page:254
        27 001636   000000 756000 24                 STQ     P_ELEMENT_SIZE
        27 001637   001641 710000 27                 TRA     s:13393

  13390 27 001640   000000 450000 24                 STZ     P_ELEMENT_SIZE

     1656    13392
     1657    13393    5                  DO CASE (BITBIN (STP$ -> VARIABLE.NDSC.S));

  13393 27 001641   000000 471500                    LDP1    0,,PR0
        27 001642   100001 236100                    LDQ     1,,PR1
        27 001643   000014 772000                    QRL     12
        27 001644   000003 376007                    ANQ     3,DL
        27 001645   000004 116007                    CMPQ    4,DL
        27 001646   001650 602006 27                 TNC     s:13393+7,QL
        27 001647   002030 710000 27                 TRA     s:13454
        27 001650   001664 710000 27                 TRA     s:13407
        27 001651   001654 710000 27                 TRA     s:13397
        27 001652   001657 710000 27                 TRA     s:13401
        27 001653   001662 710000 27                 TRA     s:13405

     1658    13394
     1659    13395    5                    CASE (1);   /* Leading sign */

     1660    13396
     1661    13397    5                      P_DATA_TYPE = %UDLS_DATATYPE;

  13397 27 001654   000052 235007                    LDA     42,DL
        27 001655   000000 755000 14                 STA     P_DATA_TYPE
        27 001656   002030 710000 27                 TRA     s:13454

     1662    13398
     1663    13399    5                    CASE (2);   /* Trailing sign */

     1664    13400
     1665    13401    5                      P_DATA_TYPE = %UDTS_DATATYPE;

  13401 27 001657   000053 235007                    LDA     43,DL
PL6.E3A0      #003=Z9IO$CALC_SCHEMA_INFO File=Z9IO.:Z8A6TSI                      SAT 08/09/97 14:07 Page:255
        27 001660   000000 755000 14                 STA     P_DATA_TYPE
        27 001661   002030 710000 27                 TRA     s:13454

     1666    13402
     1667    13403    5                    CASE (3);   /* No sign */

     1668    13404
     1669    13405    5                      P_DATA_TYPE = %UDNS_DATATYPE;

  13405 27 001662   000051 235007                    LDA     41,DL
        27 001663   000000 755000 14                 STA     P_DATA_TYPE

     1670    13406
     1671    13407    5                  END;   /* Case on unpacked s */

  13407 27 001664   002030 710000 27                 TRA     s:13454

     1672    13408
     1673    13409    4                CASE (%TYB);   /* GBCD non-numeric */

     1674    13410
     1675    13411    4                  P_ADDRESS = P_ADDRESS + (STP$ -> VARIABLE.NDSC.CN) * 6;

  13411 27 001665   100001 236100                    LDQ     1,,PR1
        27 001666   000017 772000                    QRL     15
        27 001667   000007 376007                    ANQ     7,DL
        27 001670   000006 402007                    MPY     6,DL
        27 001671   000000 036000 12                 ADLQ    P_ADDRESS
        27 001672   000000 756000 12                 STQ     P_ADDRESS

     1676    13412    4                  P_DATA_TYPE = %BIT_DATATYPE; /* GBCD is all Greek to DELTA */

  13412 27 001673   000023 235007                    LDA     19,DL
        27 001674   000000 755000 14                 STA     P_DATA_TYPE

     1677    13413    4                  P_ALIGNMENT_TYPE = 4; /* Bit aligned */

PL6.E3A0      #003=Z9IO$CALC_SCHEMA_INFO File=Z9IO.:Z8A6TSI                      SAT 08/09/97 14:07 Page:256
  13413 27 001675   000004 235007                    LDA     4,DL
        27 001676   000000 755000 18                 STA     P_ALIGNMENT_TYPE

     1678    13414    4                  P_SCALE_FACTOR = 0;

  13414 27 001677   000000 450000 25                 STZ     P_SCALE_FACTOR

     1679    13415    4                  IF STP$ -> VARIABLE.B.LENGTH_4096 THEN

  13415 27 001700   000000 471500                    LDP1    0,,PR0
        27 001701   100003 236100                    LDQ     3,,PR1
        27 001702   004000 316003                    CANQ    2048,DU
        27 001703   001710 600000 27                 TZE     s:13418

     1680    13416    4                    P_LOG_SIZE = LONGP$ -> LONG.LENGTH;

  13416 27 001704   200010 473500                    LDP3    LONGP$,,AUTO
        27 001705   300001 235100                    LDA     1,,PR3
        27 001706   000000 755000 17                 STA     P_LOG_SIZE
        27 001707   001713 710000 27                 TRA     s:13420

     1681    13417    4                  ELSE
     1682    13418    4                    P_LOG_SIZE = STP$ -> VARIABLE.ADSC.N;

  13418 27 001710   100001 236100                    LDQ     1,,PR1
        27 001711   007777 376007                    ANQ     4095,DL
        27 001712   000000 756000 17                 STQ     P_LOG_SIZE

     1683    13419                       %CALC_ELEM_SIZE(OCC="6", DIMED="STP$ -> VARIABLE.ADSC.N * 6");

  13420 27 001713   000000 471500                    LDP1    0,,PR0
        27 001714   100000 220100                    LDX0    0,,PR1
        27 001715   000765 100003                    CMPX0   501,DU
        27 001716   001735 601000 27                 TNZ     s:13425
        27 001717   100007 473500                    LDP3    7,,PR1
        27 001720   300000 236100                    LDQ     0,,PR3
        27 001721   400000 316007                    CANQ    -131072,DL
PL6.E3A0      #003=Z9IO$CALC_SCHEMA_INFO File=Z9IO.:Z8A6TSI                      SAT 08/09/97 14:07 Page:257
        27 001722   001735 601000 27                 TNZ     s:13425

  13421 27 001723   200007 474500                    LDP4    DIMP$,,AUTO
        27 001724   400000 236100                    LDQ     0,,PR4
        27 001725   777777 376007                    ANQ     -1,DL
        27 001726   000005 136007                    SBLQ    5,DL
        27 001727   000003 506007                    DIV     3,DL
        27 001730   000003 402007                    MPY     3,DL
        27 001731   400002 236106                    LDQ     2,QL,PR4
        27 001732   000006 402007                    MPY     6,DL
        27 001733   000000 756000 24                 STQ     P_ELEMENT_SIZE
        27 001734   002030 710000 27                 TRA     s:13454

  13425 27 001735   100007 473500                    LDP3    7,,PR1
        27 001736   300000 236100                    LDQ     0,,PR3
        27 001737   400000 316007                    CANQ    -131072,DL
        27 001740   001746 600000 27                 TZE     s:13428

  13426 27 001741   100001 236100                    LDQ     1,,PR1
        27 001742   007777 376007                    ANQ     4095,DL
        27 001743   000006 402007                    MPY     6,DL
        27 001744   000000 756000 24                 STQ     P_ELEMENT_SIZE
        27 001745   002030 710000 27                 TRA     s:13454

  13428 27 001746   000000 450000 24                 STZ     P_ELEMENT_SIZE
        27 001747   002030 710000 27                 TRA     s:13454

     1684    13430
     1685    13431    4                CASE (%TYC);   /* GBCD numeric */

     1686    13432
     1687    13433    4                  P_ADDRESS = P_ADDRESS + (STP$ -> VARIABLE.NDSC.CN) * 6;

  13433 27 001750   100001 236100                    LDQ     1,,PR1
        27 001751   000017 772000                    QRL     15
        27 001752   000007 376007                    ANQ     7,DL
        27 001753   000006 402007                    MPY     6,DL
PL6.E3A0      #003=Z9IO$CALC_SCHEMA_INFO File=Z9IO.:Z8A6TSI                      SAT 08/09/97 14:07 Page:258
        27 001754   000000 036000 12                 ADLQ    P_ADDRESS
        27 001755   000000 756000 12                 STQ     P_ADDRESS

     1688    13434    4                  P_DATA_TYPE = %BIT_DATATYPE; /* GBCD is all Greek to DELTA */

  13434 27 001756   000023 235007                    LDA     19,DL
        27 001757   000000 755000 14                 STA     P_DATA_TYPE

     1689    13435    4                  P_ALIGNMENT_TYPE = 4; /* Bit aligned */

  13435 27 001760   000004 235007                    LDA     4,DL
        27 001761   000000 755000 18                 STA     P_ALIGNMENT_TYPE

     1690    13436    4                      P_SCALE_FACTOR = STP$ -> VARIABLE.NDSC.SF;

  13436 27 001762   000000 471500                    LDP1    0,,PR0
        27 001763   100001 236100                    LDQ     1,,PR1
        27 001764   000030 736000                    QLS     24
        27 001765   000036 732000                    QRS     30
        27 001766   000000 756000 25                 STQ     P_SCALE_FACTOR

     1691    13437    4                      P_LOG_SIZE = STP$ -> VARIABLE.NDSC.N * 6;

  13437 27 001767   000000 471500                    LDP1    0,,PR0
        27 001770   100001 236100                    LDQ     1,,PR1
        27 001771   000077 376007                    ANQ     63,DL
        27 001772   000006 402007                    MPY     6,DL
        27 001773   000000 756000 17                 STQ     P_LOG_SIZE

     1692    13438                           %CALC_ELEM_SIZE(OCC="6", DIMED="STP$ -> VARIABLE.NDSC.N * 6");

  13439 27 001774   000000 471500                    LDP1    0,,PR0
        27 001775   100000 220100                    LDX0    0,,PR1
        27 001776   000765 100003                    CMPX0   501,DU
        27 001777   002016 601000 27                 TNZ     s:13444
        27 002000   100007 473500                    LDP3    7,,PR1
        27 002001   300000 236100                    LDQ     0,,PR3
PL6.E3A0      #003=Z9IO$CALC_SCHEMA_INFO File=Z9IO.:Z8A6TSI                      SAT 08/09/97 14:07 Page:259
        27 002002   400000 316007                    CANQ    -131072,DL
        27 002003   002016 601000 27                 TNZ     s:13444

  13440 27 002004   200007 474500                    LDP4    DIMP$,,AUTO
        27 002005   400000 236100                    LDQ     0,,PR4
        27 002006   777777 376007                    ANQ     -1,DL
        27 002007   000005 136007                    SBLQ    5,DL
        27 002010   000003 506007                    DIV     3,DL
        27 002011   000003 402007                    MPY     3,DL
        27 002012   400002 236106                    LDQ     2,QL,PR4
        27 002013   000006 402007                    MPY     6,DL
        27 002014   000000 756000 24                 STQ     P_ELEMENT_SIZE
        27 002015   002030 710000 27                 TRA     s:13454

  13444 27 002016   100007 473500                    LDP3    7,,PR1
        27 002017   300000 236100                    LDQ     0,,PR3
        27 002020   400000 316007                    CANQ    -131072,DL
        27 002021   002027 600000 27                 TZE     s:13447

  13445 27 002022   100001 236100                    LDQ     1,,PR1
        27 002023   000077 376007                    ANQ     63,DL
        27 002024   000006 402007                    MPY     6,DL
        27 002025   000000 756000 24                 STQ     P_ELEMENT_SIZE
        27 002026   002030 710000 27                 TRA     s:13454

  13447 27 002027   000000 450000 24                 STZ     P_ELEMENT_SIZE

     1693    13449
     1694    13450    4              END;  /* do case on type */

     1695    13451
     1696    13452               /* Add the symbolic variable to the schema */
     1697    13453
     1698    13454    3              IF STP$ -> VARIABLE.QLT$ -> QLT.B.OCCURS THEN

  13454 27 002030   000000 471500                    LDP1    0,,PR0
        27 002031   100007 473500                    LDP3    7,,PR1
PL6.E3A0      #003=Z9IO$CALC_SCHEMA_INFO File=Z9IO.:Z8A6TSI                      SAT 08/09/97 14:07 Page:260
        27 002032   300000 236100                    LDQ     0,,PR3
        27 002033   400000 316007                    CANQ    -131072,DL
        27 002034   002040 600000 27                 TZE     s:13457

     1699    13455    3                P_ARRAY_TYPE = 2;

  13455 27 002035   000002 235007                    LDA     2,DL
        27 002036   000000 755000 20                 STA     P_ARRAY_TYPE
        27 002037   002041 710000 27                 TRA     s:13460

     1700    13456    3              ELSE
     1701    13457    3                P_ARRAY_TYPE = 0;

  13457 27 002040   000000 450000 20                 STZ     P_ARRAY_TYPE

     1702    13458                     /* Add a simple variable */
     1703    13459
     1704    13460    3              P_REF_FLAG = STP$ -> VARIABLE.B.REFERENCED;

  13460 27 002041   000000 471500                    LDP1    0,,PR0
        27 002042   100003 236100                    LDQ     3,,PR1
        27 002043   400000 376003                    ANQ     -131072,DU
        27 002044   000000 756000 15                 STQ     P_REF_FLAG

     1705    13461    3              P_MODIFIED_FLAG = STP$ -> VARIABLE.B.DEFINED;

  13461 27 002045   000000 471500                    LDP1    0,,PR0
        27 002046   100003 236100                    LDQ     3,,PR1
        27 002047   000001 736000                    QLS     1
        27 002050   400000 376003                    ANQ     -131072,DU
        27 002051   000000 756000 16                 STQ     P_MODIFIED_FLAG
        27 002052   002135 710000 27                 TRA     s:13489

     1706    13462
     1707    13463
     1708    13464    3            CASE (%FD, %SD, %CD, %RD, %DB);

PL6.E3A0      #003=Z9IO$CALC_SCHEMA_INFO File=Z9IO.:Z8A6TSI                      SAT 08/09/97 14:07 Page:261
     1709    13465
     1710    13466    3              P_ADDRESS = P_ADDRESS + ((STP$ -> VARIABLE.ADSC.CN) * 9);

  13466 27 002053   100001 236100                    LDQ     1,,PR1
        27 002054   000020 772000                    QRL     16
        27 002055   000003 376007                    ANQ     3,DL
        27 002056   000011 402007                    MPY     9,DL
        27 002057   000000 036000 12                 ADLQ    P_ADDRESS
        27 002060   000000 756000 12                 STQ     P_ADDRESS

     1711    13467    3              P_DATA_TYPE = %CHAR_DATATYPE;

  13467 27 002061   000025 235007                    LDA     21,DL
        27 002062   000000 755000 14                 STA     P_DATA_TYPE

     1712    13468    3              IF STP$ -> VARIABLE.B.LENGTH_4096 THEN

  13468 27 002063   000000 471500                    LDP1    0,,PR0
        27 002064   100003 236100                    LDQ     3,,PR1
        27 002065   004000 316003                    CANQ    2048,DU
        27 002066   002073 600000 27                 TZE     s:13471

     1713    13469    3                P_LOG_SIZE = LONGP$ -> LONG.LENGTH;

  13469 27 002067   200010 473500                    LDP3    LONGP$,,AUTO
        27 002070   300001 235100                    LDA     1,,PR3
        27 002071   000000 755000 17                 STA     P_LOG_SIZE
        27 002072   002076 710000 27                 TRA     s:13472

     1714    13470    3              ELSE
     1715    13471    3                P_LOG_SIZE = STP$ -> VARIABLE.ADSC.N;

  13471 27 002073   100001 236100                    LDQ     1,,PR1
        27 002074   007777 376007                    ANQ     4095,DL
        27 002075   000000 756000 17                 STQ     P_LOG_SIZE

     1716    13472    3              P_ALIGNMENT_TYPE = 3;  /* BYTE ALIGNED */
PL6.E3A0      #003=Z9IO$CALC_SCHEMA_INFO File=Z9IO.:Z8A6TSI                      SAT 08/09/97 14:07 Page:262

  13472 27 002076   000003 235007                    LDA     3,DL
        27 002077   000000 755000 18                 STA     P_ALIGNMENT_TYPE

     1717    13473    3              P_SCALE_FACTOR = 0;

  13473 27 002100   000000 450000 25                 STZ     P_SCALE_FACTOR

     1718    13474    3              P_ARRAY_TYPE = 0;         /*#34218*/

  13474 27 002101   000000 450000 20                 STZ     P_ARRAY_TYPE

     1719    13475                   %CALC_ELEM_SIZE(OCC="9", DIMED="P_LOG_SIZE * 9");

  13476 27 002102   000000 471500                    LDP1    0,,PR0
        27 002103   100000 220100                    LDX0    0,,PR1
        27 002104   000765 100003                    CMPX0   501,DU
        27 002105   002124 601000 27                 TNZ     s:13481
        27 002106   100007 473500                    LDP3    7,,PR1
        27 002107   300000 236100                    LDQ     0,,PR3
        27 002110   400000 316007                    CANQ    -131072,DL
        27 002111   002124 601000 27                 TNZ     s:13481

  13477 27 002112   200007 474500                    LDP4    DIMP$,,AUTO
        27 002113   400000 236100                    LDQ     0,,PR4
        27 002114   777777 376007                    ANQ     -1,DL
        27 002115   000005 136007                    SBLQ    5,DL
        27 002116   000003 506007                    DIV     3,DL
        27 002117   000003 402007                    MPY     3,DL
        27 002120   400002 236106                    LDQ     2,QL,PR4
        27 002121   000011 402007                    MPY     9,DL
        27 002122   000000 756000 24                 STQ     P_ELEMENT_SIZE
        27 002123   002135 710000 27                 TRA     s:13489

  13481 27 002124   100007 473500                    LDP3    7,,PR1
        27 002125   300000 236100                    LDQ     0,,PR3
        27 002126   400000 316007                    CANQ    -131072,DL
PL6.E3A0      #003=Z9IO$CALC_SCHEMA_INFO File=Z9IO.:Z8A6TSI                      SAT 08/09/97 14:07 Page:263
        27 002127   002134 600000 27                 TZE     s:13484

  13482 27 002130   000000 236000 17                 LDQ     P_LOG_SIZE
        27 002131   000011 402007                    MPY     9,DL
        27 002132   000000 756000 24                 STQ     P_ELEMENT_SIZE
        27 002133   002135 710000 27                 TRA     s:13489

  13484 27 002134   000000 450000 24                 STZ     P_ELEMENT_SIZE

     1720    13486    3          END;  /* case on ID */

     1721    13487    2       END; /* if */

     1722    13488
     1723    13489    1   END Z9IO$CALC_SCHEMA_INFO;

  13489 27 002135   000000 702200 xent               TSX2  ! X66_ARET
     1724    13490        %EOD;

PL6.E3A0      #003=Z9IO$CALC_SCHEMA_INFO File=Z9IO.:Z8A6TSI                      SAT 08/09/97 14:07 Page:264
--  Include file information  --

   B$OBJECT_C.:LIB_E04  is referenced.
   Z9I_SCHEMA.:Z8A6TOU  cannot be made into a system file and is referenced.
   Z8A_QLT.:Z8A6TOU  cannot be made into a system file and is referenced.
   Z8A_LTS.:Z8A6TOU  cannot be made into a system file and is referenced.
   Z8A_COMCOM.:Z8A6TOU  cannot be made into a system file and is referenced.
   Z8A_DNT.:Z8A6TOU  cannot be made into a system file and is referenced.
   Z8A_ST.:Z8A6TOU  cannot be made into a system file and is referenced.
   Z8A_TYPES.:Z8A6TOU  is referenced.
   X8A_COM_MACS.:X8A6TOU  is referenced.
   Z8A_NAMES.:Z8A6TOU  is referenced.
   Z8A_SUPP_MAC.:Z8A6TOU  is referenced.
   Z8A_DEFC.:Z8A6TOU  cannot be made into a system file and is referenced.
      No diagnostics issued in procedure Z9IO$CALC_SCHEMA_INFO.
PL6.E3A0      #003=Z9IO$CALC_SCHEMA_INFO File=Z9IO.:Z8A6TSI                      SAT 08/09/97 14:07 Page:265

 **** Variables and constants ****

  ****  Section 000 LblCom ITERATION

  ****  Scalars and arrays  ****
OctLoc.c.b A Datatyp(siz) R M Lvl/name                 OctLoc.c.b A Datatyp(siz) R M Lvl/name

     0-0-0/w SBIN              1 ITERATION

  ****  Section 001 LblCom ST$

  ****  Scalars and arrays  ****
OctLoc.c.b A Datatyp(siz) R M Lvl/name                 OctLoc.c.b A Datatyp(siz) R M Lvl/name

     0-0-0/w PTR         r     1 ST$

  ****  Section 002 LblCom ST_

  ****  Scalars and arrays  ****
OctLoc.c.b A Datatyp(siz) R M Lvl/name                 OctLoc.c.b A Datatyp(siz) R M Lvl/name

     0-0-0/w STRC(180)         1 ST_

  ****  Section 003 LblCom DNT$

  ****  Scalars and arrays  ****
OctLoc.c.b A Datatyp(siz) R M Lvl/name                 OctLoc.c.b A Datatyp(siz) R M Lvl/name

     0-0-0/w PTR         r     1 DNT$

  ****  Section 004 LblCom DNT_

  ****  Scalars and arrays  ****
OctLoc.c.b A Datatyp(siz) R M Lvl/name                 OctLoc.c.b A Datatyp(siz) R M Lvl/name

     0-0-0/w STRC(180)         1 DNT_

PL6.E3A0      #003=Z9IO$CALC_SCHEMA_INFO File=Z9IO.:Z8A6TSI                      SAT 08/09/97 14:07 Page:266
  ****  Section 005 LblCom DNT_BUCKET_NUMBER

  ****  Scalars and arrays  ****
OctLoc.c.b A Datatyp(siz) R M Lvl/name                 OctLoc.c.b A Datatyp(siz) R M Lvl/name

     0-0-0/w UBIN              1 DNT_BUCKET_NUMBER

  ****  Section 006 LblCom DNT_OF_1$

  ****  Scalars and arrays  ****
OctLoc.c.b A Datatyp(siz) R M Lvl/name                 OctLoc.c.b A Datatyp(siz) R M Lvl/name

     0-0-0/w PTR               1 DNT_OF_1$

  ****  Section 007 LblCom LTS$

  ****  Scalars and arrays  ****
OctLoc.c.b A Datatyp(siz) R M Lvl/name                 OctLoc.c.b A Datatyp(siz) R M Lvl/name

     0-0-0/w PTR               1 LONG_ITEM$                 0-0-0/w PTR         r     1 LTS$

  ****  Section 008 LblCom LTS_

  ****  Scalars and arrays  ****
OctLoc.c.b A Datatyp(siz) R M Lvl/name                 OctLoc.c.b A Datatyp(siz) R M Lvl/name

     0-0-0/w STRC(180)         1 LTS_

  ****  Section 009 LblCom QLT$

  ****  Scalars and arrays  ****
OctLoc.c.b A Datatyp(siz) R M Lvl/name                 OctLoc.c.b A Datatyp(siz) R M Lvl/name

     0-0-0/w PTR         r     1 QLT$

  ****  Section 010 LblCom PREV_01_QLT$

PL6.E3A0      #003=Z9IO$CALC_SCHEMA_INFO File=Z9IO.:Z8A6TSI                      SAT 08/09/97 14:07 Page:267
  ****  Scalars and arrays  ****
OctLoc.c.b A Datatyp(siz) R M Lvl/name                 OctLoc.c.b A Datatyp(siz) R M Lvl/name

     0-0-0/w PTR               1 PREV_01_QLT$

  ****  Section 011 LblCom QLT_

  ****  Scalars and arrays  ****
OctLoc.c.b A Datatyp(siz) R M Lvl/name                 OctLoc.c.b A Datatyp(siz) R M Lvl/name

     0-0-0/w STRC(180)         1 QLT_

  ****  Section 012 LblCom P_ADDRESS

  ****  Scalars and arrays  ****
OctLoc.c.b A Datatyp(siz) R M Lvl/name                 OctLoc.c.b A Datatyp(siz) R M Lvl/name

     0-0-0/w SBIN        r     1 P_ADDRESS

  ****  Section 013 LblCom P_ADDRESS_TYPE

  ****  Scalars and arrays  ****
OctLoc.c.b A Datatyp(siz) R M Lvl/name                 OctLoc.c.b A Datatyp(siz) R M Lvl/name

     0-0-0/w SBIN        r     1 P_ADDRESS_TYPE

  ****  Section 014 LblCom P_DATA_TYPE

  ****  Scalars and arrays  ****
OctLoc.c.b A Datatyp(siz) R M Lvl/name                 OctLoc.c.b A Datatyp(siz) R M Lvl/name

     0-0-0/w SBIN        r     1 P_DATA_TYPE

  ****  Section 015 LblCom P_REF_FLAG

  ****  Scalars and arrays  ****
OctLoc.c.b A Datatyp(siz) R M Lvl/name                 OctLoc.c.b A Datatyp(siz) R M Lvl/name
PL6.E3A0      #003=Z9IO$CALC_SCHEMA_INFO File=Z9IO.:Z8A6TSI                      SAT 08/09/97 14:07 Page:268

     0-0-0/b BIT         r     1 P_REF_FLAG

  ****  Section 016 LblCom P_MODIFIED_FLAG

  ****  Scalars and arrays  ****
OctLoc.c.b A Datatyp(siz) R M Lvl/name                 OctLoc.c.b A Datatyp(siz) R M Lvl/name

     0-0-0/b BIT         r     1 P_MODIFIED_FLAG

  ****  Section 017 LblCom P_LOG_SIZE

  ****  Scalars and arrays  ****
OctLoc.c.b A Datatyp(siz) R M Lvl/name                 OctLoc.c.b A Datatyp(siz) R M Lvl/name

     0-0-0/w SBIN        r     1 P_LOG_SIZE

  ****  Section 018 LblCom P_ALIGNMENT_TYPE

  ****  Scalars and arrays  ****
OctLoc.c.b A Datatyp(siz) R M Lvl/name                 OctLoc.c.b A Datatyp(siz) R M Lvl/name

     0-0-0/w SBIN        r     1 P_ALIGNMENT_TYPE

  ****  Section 019 LblCom P_SIZE_TYPE_FLAG

  ****  Scalars and arrays  ****
OctLoc.c.b A Datatyp(siz) R M Lvl/name                 OctLoc.c.b A Datatyp(siz) R M Lvl/name

     0-0-0/b BIT         r     1 P_SIZE_TYPE_FLAG

  ****  Section 020 LblCom P_ARRAY_TYPE

  ****  Scalars and arrays  ****
OctLoc.c.b A Datatyp(siz) R M Lvl/name                 OctLoc.c.b A Datatyp(siz) R M Lvl/name

     0-0-0/w SBIN        r     1 P_ARRAY_TYPE
PL6.E3A0      #003=Z9IO$CALC_SCHEMA_INFO File=Z9IO.:Z8A6TSI                      SAT 08/09/97 14:07 Page:269

  ****  Section 021 LblCom P_OPERND_TYPE

  ****  Scalars and arrays  ****
OctLoc.c.b A Datatyp(siz) R M Lvl/name                 OctLoc.c.b A Datatyp(siz) R M Lvl/name

     0-0-0/w SBIN        r     1 P_OPERND_TYPE

  ****  Section 022 LblCom P_IMPLIED_POINTER

  ****  Scalars and arrays  ****
OctLoc.c.b A Datatyp(siz) R M Lvl/name                 OctLoc.c.b A Datatyp(siz) R M Lvl/name

     0-0-0/w SBIN        r     1 P_IMPLIED_POINTER

  ****  Section 023 LblCom P_OPERAND

  ****  Scalars and arrays  ****
OctLoc.c.b A Datatyp(siz) R M Lvl/name                 OctLoc.c.b A Datatyp(siz) R M Lvl/name

     0-0-0/w SBIN        r     1 P_OPERAND

  ****  Section 024 LblCom P_ELEMENT_SIZE

  ****  Scalars and arrays  ****
OctLoc.c.b A Datatyp(siz) R M Lvl/name                 OctLoc.c.b A Datatyp(siz) R M Lvl/name

     0-0-0/w SBIN        r     1 P_ELEMENT_SIZE

  ****  Section 025 LblCom P_SCALE_FACTOR

  ****  Scalars and arrays  ****
OctLoc.c.b A Datatyp(siz) R M Lvl/name                 OctLoc.c.b A Datatyp(siz) R M Lvl/name

     0-0-0/w SBIN        r     1 P_SCALE_FACTOR

  ****  Section 026 LblCom P_DIMENSIONS
PL6.E3A0      #003=Z9IO$CALC_SCHEMA_INFO File=Z9IO.:Z8A6TSI                      SAT 08/09/97 14:07 Page:270

  ****  Scalars and arrays  ****
OctLoc.c.b A Datatyp(siz) R M Lvl/name                 OctLoc.c.b A Datatyp(siz) R M Lvl/name

     0-0-0/w SBIN        r     1 P_DIMENSIONS

  ****  Auto variables  ****

  ****  Scalars and arrays  ****
OctLoc.c.b A Datatyp(siz) R M Lvl/name                 OctLoc.c.b A Datatyp(siz) R M Lvl/name

     3-0-0/w PTR         r     1 @STP$                      7-0-0/w PTR         r     1 DIMP$
     5-0-0/w SBIN        r     1 DIVVAL                    10-0-0/w PTR         r     1 LONGP$
     6-0-0/w SBIN        r     1 MODVAL                     4-0-0/w SBIN              1 P_LEVEL_NUMBER
    *0-0-0/w PTR         r     1 STP$

  ****  SYMREF variables  ****

  ****  Scalars and arrays  ****
OctLoc.c.b A Datatyp(siz) R M Lvl/name                 OctLoc.c.b A Datatyp(siz) R M Lvl/name

     0-0-0/d STRC(13248) r     1 COMCOM
     0-0-0/w UBIN              1 LTS_STEP(0:37)
     0-0-0/w SBIN        r     1 Z9IO$PTRLOC

  ****  BASED and DCB variables  ****

  ****  Scalars and arrays  ****
OctLoc.c.b A Datatyp(siz) R M Lvl/name                 OctLoc.c.b A Datatyp(siz) R M Lvl/name

     0-0-0/w STRC(396)         1 ALPHABET                   0-0-0/w STRC(144)         1 ALTER_LTS
     0-0-0/w STRC(3672)        1 ALT_KEY                    0-0-0/w STRC(36864)       1 ARGLIST
     0-0-0/w STRC(396)   r     1 ARRAY                      0-0-0/w STRC(180)         1 ARRAY_PRESET_LTS
     0-0-0/w STRC(288)         1 BASE_LTS                   0-0-0/w STRC(396)         1 BLOCK
     0-0-0/w STRC(144)         1 BT                         0-0-0/w STRC(396)         1 CD
     0-0-0/w STRC(288)         1 CD_LTS                     0-0-0/w CHAR(4096)        1 CHARS
     0-0-0/w STRC(396)         1 CLASS                      0-0-0/w STRC(396)         1 CONDITION
PL6.E3A0      #003=Z9IO$CALC_SCHEMA_INFO File=Z9IO.:Z8A6TSI                      SAT 08/09/97 14:07 Page:271
     0-0-0/w STRC(396)         1 CONST                      0-0-0/w STRC(72)          1 CONT
     0-0-0/w STRC(540)         1 CONTROL_NAME_LTS           0-0-0/w STRC(1872)        1 COPY_FILE
     0-0-0/w STRC(396)         1 DB                         0-0-0/w STRC(396)         1 DCB_
     0-0-0/w STRC(108)         1 DEPENDING_SIZE             0-0-0/w STRC(5472)  r     1 DIMS
     0-0-0/w STRC(396)         1 DML_ITEM                   0-0-0/w STRC(216)         1 DML_REC
     0-0-0/w ASTR(180)   r     1 DNT                        0-0-0/w STRC(73836)       1 EVALUATE
     0-0-0/w STRC(396)         1 FD                         0-0-0/w STRC(1692)        1 FILE_LTS
     0-0-0/w STRC(108)         1 INDEXES                    0-0-0/w STRC(360)         1 INIT_LTS
     0-0-0/w STRC(396)         1 INTDEF                     0-0-0/w STRC(180)         1 IO_RESTORE_CHAIN
     0-0-0/w STRC(144)         1 KEY                        0-0-0/w STRC(396)         1 LABEL
     0-0-0/w STRC(36864)       1 LCNST                      0-0-0/w STRC(72)    r     1 LONG
     0-0-0/w STRC        r     1 LTS                        0-0-0/w STRC(360)   r     1 LTSS
     0-0-0/w STRC(36936)       1 LTS_PTR_ARRAY              0-0-0/w STRC(396)         1 MNEMONIC
     0-0-0/w STRC(144)         1 NEL                        0-0-0/w STRC(216)         1 OPEN_LTS
     0-0-0/w STRC(36864)       1 PAGE                       0-0-0/w STRC(396)         1 PARA
     0-0-0/w STRC(144)         1 PRIME                      0-0-0/w STRC(396)         1 PROC_
     0-0-0/w STRC(396)         1 PROC_DEF                   0-0-0/w STRC(900)         1 PROC_SUPP
     0-0-0/w STRC(216)   r     1 QLT                        0-0-0/w STRC(396)         1 RD
     0-0-0/w STRC(216)         1 REF                        0-0-0/w STRC(108)         1 RENAMES
     0-0-0/w STRC(720)         1 REPORT_01_LTS              0-0-0/w STRC(432)         1 REPORT_ELEM_LTS
     0-0-0/w STRC(252)         1 REPORT_GRP_LTS             0-0-0/w STRC(1332)        1 REPORT_LTS
     0-0-0/w STRC(144)         1 RVA_LTS                    0-0-0/w STRC(396)         1 SCALAR
     0-0-0/w STRC(396)         1 SD                         0-0-0/w STRC(396)         1 SECTION
     0-0-0/w STRC(396)         1 SEGMENT                    0-0-0/w STRC(360)         1 SEGMENT_LTS
     0-0-0/w STRC(396)   r     1 ST                         0-0-0/w STRC(252)         1 SUM_LTS
     0-0-0/w STRC(396)         1 SWITCH                     0-0-0/w STRC(396)         1 SYMBOLIC_CHAR
     0-0-0/w STRC(396)         1 SYMDEF_                    0-0-0/w STRC(396)         1 SYMREF_
     0-0-0/w STRC(396)         1 TEMP                       0-0-0/d STRC(612)         1 USE
     0-0-0/w STRC(252)         1 USE_SUPP                   0-0-0/w STRC(396)   r     1 VARIABLE


   Procedure Z9IO$CALC_SCHEMA_INFO requires 1118 words for executable code.
   Procedure Z9IO$CALC_SCHEMA_INFO requires 12 words of local(AUTO) storage.

PL6.E3A0      #004=Z9IO$SEARCH_ST_STRUCT File=Z9IO.:Z8A6TSI                      SAT 08/09/97 14:08 Page:272
     1725        1        /*T***********************************************************/
     1726        2        /*T*                                                         */
     1727        3        /*T* Copyright (c) Bull HN Information Systems Inc., 1997    */
     1728        4        /*T*                                                         */
     1729        5        /*T***********************************************************/
     1730        6        Z9IO$SEARCH_ST_STRUCT : PROC (STP$, LEVEL, ADD_PROC);
     1731        7
     1732        8        /*D*
     1733        9               NAME: Z9IO$SEARCH_ST_STRUCT
     1734       10        DESCRIPTION:
     1735       11                  Treat a symbol item as a possible structure, searching
     1736       12                  the structure through the QLT table for all applicable
     1737       13                  levels.  For each variable, call the specified routine passed as a
     1738       14                  parameter, which normally adds the variable to the debug schema.  This
     1739       15                  routine is also called to print the LSTOU data map.
     1740       16               */
     1741       17
     1742       18    1   DCL STP$ PTR;
     1743       19    1   DCL LEVEL SBIN WORD;
     1744       20    1   DCL ADD_PROC EPTR;
     1745       21
     1746       22
     1747       23        %EQU PHASE = 5;
     1748       24        %INCLUDE Z8A_DEFC;
     1749       92        %INCLUDE Z8A_SUPP_MAC;
     1750     2492        %INCLUDE Z8A_ST;
     1751     6151        %INCLUDE Z8A_QLT;
     1752     6257
     1753     6258    1   DCL QLTP$ PTR;
     1754     6259
     1755     6260    1   DCL Z9IO$CALC_SCHEMA_INFO ENTRY(1);
     1756     6261
     1757     6262
     1758     6263    1       QLTP$ = STP$ -> VARIABLE.QLT$;
     1759     6264
     1760     6265    2       DO WHILE (QLTP$ ~= ADDR(NIL));
     1761     6266
PL6.E3A0      #004=Z9IO$SEARCH_ST_STRUCT File=Z9IO.:Z8A6TSI                      SAT 08/09/97 14:08 Page:273
     1762     6267    2         CALL Z9IO$CALC_SCHEMA_INFO (QLTP$ -> QLT.ST$);
     1763     6268
     1764     6269    2         CALL ADD_PROC (QLTP$ -> QLT.ST$, LEVEL);
     1765     6270
     1766     6271    2         IF NOT QLTP$ -> QLT.B.RENAMES THEN
     1767     6272    2           IF QLTP$ -> QLT.SON ~= ADDR(NIL) THEN
     1768     6273    2             CALL Z9IO$SEARCH_ST_STRUCT (QLTP$ -> QLT.SON -> QLT.ST$,
     1769     6274    2                                         LEVEL + 1,
     1770     6275    2                                         ADD_PROC);
     1771     6276
     1772     6277    2         IF LEVEL > 1 THEN
     1773     6278    2           QLTP$ = QLTP$ -> QLT.BROTHER;
     1774     6279    2         ELSE
     1775     6280    2           QLTP$ = ADDR(NIL) ;
     1776     6281
     1777     6282    2       END; /* DO WHILE */
     1778     6283
     1779     6284    1   END Z9IO$SEARCH_ST_STRUCT;
     1780     6285        %EOD;

PL6.E3A0      #004=Z9IO$SEARCH_ST_STRUCT File=Z9IO.:Z8A6TSI                      SAT 08/09/97 14:08 Page:274
--  Include file information  --

   Z8A_QLT.:Z8A6TOU  cannot be made into a system file and is referenced.
   Z8A_ST.:Z8A6TOU  cannot be made into a system file and is referenced.
   X8A_COM_MACS.:X8A6TOU  is referenced.
   Z8A_NAMES.:Z8A6TOU  is referenced.
   Z8A_SUPP_MAC.:Z8A6TOU  is referenced.
   Z8A_DEFC.:Z8A6TOU  cannot be made into a system file and is referenced.
      No diagnostics issued in procedure Z9IO$SEARCH_ST_STRUCT.

   Procedure Z9IO$SEARCH_ST_STRUCT requires 60 words for executable code.
   Procedure Z9IO$SEARCH_ST_STRUCT requires 12 words of local(AUTO) storage.

PL6.E3A0      #004=Z9IO$SEARCH_ST_STRUCT File=Z9IO.:Z8A6TSI                      SAT 08/09/97 14:08 Page:275

 Object Unit name= Z9IO$SEARCH_ST_STRUCT                      File name= Z9IO.:Z8A6TOU
 UTS= AUG 09 '97 14:08:25.44 SAT                              Compiler= PL-6/E31         Sev=      00
 SharedLib= :SHARED_SYSTEM                                    Alt SharedLib=


    ****  Control sections  ****

 Sect   Type Bound  Init  Size OctSiz  Section name(segment info)
    0  LblCom even  none     1      1  ITERATION
    1  LblCom even  none     1      1  ST$
    2  LblCom even  none     5      5  ST_
    3  LblCom even  none     1      1  QLT$
    4  LblCom even  none     1      1  PREV_01_QLT$
    5  LblCom even  none     5      5  QLT_
    6   Proc  even  none    60     74  Z9IO$SEARCH_ST_STRUCT
    7  RoData even  none     4      4  Z9IO$SEARCH_ST_STRUCT

    ****  Entry defs  ****

                              Check   Calling
                             calling  sequence
  Sect OctLoc Primary Altret sequence   type   Parms  Name
     6      0   yes            yes      Std        3  Z9IO$SEARCH_ST_STRUCT

  ****  Entry refs  ****

         Check        Calling
        calling       sequence
Altret sequence SRef   type   Args  Name
         yes           Std       1 Z9IO$CALC_SCHEMA_INFO
                       nStd      0 X66_AUTO_3
                       nStd      0 X66_ARET
PL6.E3A0      #004=Z9IO$SEARCH_ST_STRUCT File=Z9IO.:Z8A6TSI                      SAT 08/09/97 14:08 Page:276

  ****  Segment refs  ****

  Flags:  r = read only, s = secondary
Flgs Name                             Flgs Name                             Flgs Name
     NULLSID
PL6.E3A0      #004=Z9IO$SEARCH_ST_STRUCT File=Z9IO.:Z8A6TSI                      SAT 08/09/97 14:08 Page:277


     1725        1        /*T***********************************************************/
     1726        2        /*T*                                                         */
     1727        3        /*T* Copyright (c) Bull HN Information Systems Inc., 1997    */
     1728        4        /*T*                                                         */
     1729        5        /*T***********************************************************/
     1730        6        Z9IO$SEARCH_ST_STRUCT : PROC (STP$, LEVEL, ADD_PROC);

      6  6 000000   000000 700200 xent  Z9IO$SEARCH* TSX0  ! X66_AUTO_3
         6 000001   000014 000003                    ZERO    12,3

     1731        7
     1732        8        /*D*
     1733        9               NAME: Z9IO$SEARCH_ST_STRUCT
     1734       10        DESCRIPTION:
     1735       11                  Treat a symbol item as a possible structure, searching
     1736       12                  the structure through the QLT table for all applicable
     1737       13                  levels.  For each variable, call the specified routine passed as a
     1738       14                  parameter, which normally adds the variable to the debug schema.  This
     1739       15                  routine is also called to print the LSTOU data map.
     1740       16               */
     1741       17
     1742       18    1   DCL STP$ PTR;
     1743       19    1   DCL LEVEL SBIN WORD;
     1744       20    1   DCL ADD_PROC EPTR;
     1745       21
     1746       22
     1747       23        %EQU PHASE = 5;
     1748       24        %INCLUDE Z8A_DEFC;
     1749       92        %INCLUDE Z8A_SUPP_MAC;
     1750     2492        %INCLUDE Z8A_ST;
     1751     6151        %INCLUDE Z8A_QLT;
     1752     6257
     1753     6258    1   DCL QLTP$ PTR;
     1754     6259
     1755     6260    1   DCL Z9IO$CALC_SCHEMA_INFO ENTRY(1);
     1756     6261
PL6.E3A0      #004=Z9IO$SEARCH_ST_STRUCT File=Z9IO.:Z8A6TSI                      SAT 08/09/97 14:08 Page:278
     1757     6262
     1758     6263    1       QLTP$ = STP$ -> VARIABLE.QLT$;

   6263  6 000002   200003 470500                    LDP0    @STP$,,AUTO
         6 000003   000000 471500                    LDP1    0,,PR0
         6 000004   100007 236100                    LDQ     7,,PR1
         6 000005   200006 756100                    STQ     QLTP$,,AUTO

     1759     6264
     1760     6265    2       DO WHILE (QLTP$ ~= ADDR(NIL));

   6265  6 000006   000071 710000 6                  TRA     s:6282

     1761     6266
     1762     6267    2         CALL Z9IO$CALC_SCHEMA_INFO (QLTP$ -> QLT.ST$);

   6267  6 000007   200006 236100                    LDQ     QLTP$,,AUTO
         6 000010   000004 036003                    ADLQ    4,DU
         6 000011   200010 756100                    STQ     QLTP$+2,,AUTO
         6 000012   200010 630500                    EPPR0   QLTP$+2,,AUTO
         6 000013   000000 631400 7                  EPPR1   0
         6 000014   000000 701000 xent               TSX1    Z9IO$CALC_SCHEMA_INFO
         6 000015   000000 011000                    NOP     0

     1763     6268
     1764     6269    2         CALL ADD_PROC (QLTP$ -> QLT.ST$, LEVEL);

   6269  6 000016   200004 236100                    LDQ     @LEVEL,,AUTO
         6 000017   200011 756100                    STQ     QLTP$+3,,AUTO
         6 000020   200006 236100                    LDQ     QLTP$,,AUTO
         6 000021   000004 036003                    ADLQ    4,DU
         6 000022   200010 756100                    STQ     QLTP$+2,,AUTO
         6 000023   200010 630500                    EPPR0   QLTP$+2,,AUTO
         6 000024   200005 471500                    LDP1    @ADD_PROC,,AUTO
         6 000025   100000 220100                    LDX0    0,,PR1
         6 000026   000001 631400 7                  EPPR1   1
         6 000027   000000 701010                    TSX1    0,X0
PL6.E3A0      #004=Z9IO$SEARCH_ST_STRUCT File=Z9IO.:Z8A6TSI                      SAT 08/09/97 14:08 Page:279
         6 000030   000000 011000                    NOP     0

     1765     6270
     1766     6271    2         IF NOT QLTP$ -> QLT.B.RENAMES THEN

   6271  6 000031   200006 470500                    LDP0    QLTP$,,AUTO
         6 000032   000000 236100                    LDQ     0,,PR0
         6 000033   040000 316007                    CANQ    16384,DL
         6 000034   000057 601000 6                  TNZ     s:6277

     1767     6272    2           IF QLTP$ -> QLT.SON ~= ADDR(NIL) THEN

   6272  6 000035   000003 236100                    LDQ     3,,PR0
         6 000036   000002 116000 7                  CMPQ    2
         6 000037   000057 600000 6                  TZE     s:6277

     1768     6273    2             CALL Z9IO$SEARCH_ST_STRUCT (QLTP$ -> QLT.SON -> QLT.ST$,

   6273  6 000040   000003 471500                    LDP1    3,,PR0
         6 000041   200004 473500                    LDP3    @LEVEL,,AUTO
         6 000042   300000 235100                    LDA     0,,PR3
         6 000043   000001 035007                    ADLA    1,DL
         6 000044   200010 755100                    STA     QLTP$+2,,AUTO
         6 000045   200005 236100                    LDQ     @ADD_PROC,,AUTO
         6 000046   200013 756100                    STQ     QLTP$+5,,AUTO
         6 000047   200010 634500                    EPPR4   QLTP$+2,,AUTO
         6 000050   200012 454500                    STP4    QLTP$+4,,AUTO
         6 000051   100004 635500                    EPPR5   4,,PR1
         6 000052   200011 455500                    STP5    QLTP$+3,,AUTO
         6 000053   200011 630500                    EPPR0   QLTP$+3,,AUTO
         6 000054   000003 631400 7                  EPPR1   3
         6 000055   000000 701000 6                  TSX1    s:6
         6 000056   000000 011000                    NOP     0

     1769     6274    2                                         LEVEL + 1,
     1770     6275    2                                         ADD_PROC);
     1771     6276
PL6.E3A0      #004=Z9IO$SEARCH_ST_STRUCT File=Z9IO.:Z8A6TSI                      SAT 08/09/97 14:08 Page:280
     1772     6277    2         IF LEVEL > 1 THEN

   6277  6 000057   200004 470500                    LDP0    @LEVEL,,AUTO
         6 000060   000000 235100                    LDA     0,,PR0
         6 000061   000001 115007                    CMPA    1,DL
         6 000062   000067 604400 6                  TMOZ    s:6280

     1773     6278    2           QLTP$ = QLTP$ -> QLT.BROTHER;

   6278  6 000063   200006 471500                    LDP1    QLTP$,,AUTO
         6 000064   100002 236100                    LDQ     2,,PR1
         6 000065   200006 756100                    STQ     QLTP$,,AUTO
         6 000066   000071 710000 6                  TRA     s:6282

     1774     6279    2         ELSE
     1775     6280    2           QLTP$ = ADDR(NIL) ;

   6280  6 000067   000002 236000 7                  LDQ     2
         6 000070   200006 756100                    STQ     QLTP$,,AUTO

     1776     6281
     1777     6282    2       END; /* DO WHILE */

   6282  6 000071   000002 116000 7                  CMPQ    2
         6 000072   000007 601000 6                  TNZ     s:6267

     1778     6283
     1779     6284    1   END Z9IO$SEARCH_ST_STRUCT;

   6284  6 000073   000000 702200 xent               TSX2  ! X66_ARET
     1780     6285        %EOD;

PL6.E3A0      #004=Z9IO$SEARCH_ST_STRUCT File=Z9IO.:Z8A6TSI                      SAT 08/09/97 14:08 Page:281
--  Include file information  --

   Z8A_QLT.:Z8A6TOU  cannot be made into a system file and is referenced.
   Z8A_ST.:Z8A6TOU  cannot be made into a system file and is referenced.
   X8A_COM_MACS.:X8A6TOU  is referenced.
   Z8A_NAMES.:Z8A6TOU  is referenced.
   Z8A_SUPP_MAC.:Z8A6TOU  is referenced.
   Z8A_DEFC.:Z8A6TOU  cannot be made into a system file and is referenced.
      No diagnostics issued in procedure Z9IO$SEARCH_ST_STRUCT.
PL6.E3A0      #004=Z9IO$SEARCH_ST_STRUCT File=Z9IO.:Z8A6TSI                      SAT 08/09/97 14:08 Page:282

 **** Variables and constants ****

  ****  Section 000 LblCom ITERATION

  ****  Scalars and arrays  ****
OctLoc.c.b A Datatyp(siz) R M Lvl/name                 OctLoc.c.b A Datatyp(siz) R M Lvl/name

     0-0-0/w SBIN              1 ITERATION

  ****  Section 001 LblCom ST$

  ****  Scalars and arrays  ****
OctLoc.c.b A Datatyp(siz) R M Lvl/name                 OctLoc.c.b A Datatyp(siz) R M Lvl/name

     0-0-0/w PTR         r     1 ST$

  ****  Section 002 LblCom ST_

  ****  Scalars and arrays  ****
OctLoc.c.b A Datatyp(siz) R M Lvl/name                 OctLoc.c.b A Datatyp(siz) R M Lvl/name

     0-0-0/w STRC(180)         1 ST_

  ****  Section 003 LblCom QLT$

  ****  Scalars and arrays  ****
OctLoc.c.b A Datatyp(siz) R M Lvl/name                 OctLoc.c.b A Datatyp(siz) R M Lvl/name

     0-0-0/w PTR         r     1 QLT$

  ****  Section 004 LblCom PREV_01_QLT$

  ****  Scalars and arrays  ****
OctLoc.c.b A Datatyp(siz) R M Lvl/name                 OctLoc.c.b A Datatyp(siz) R M Lvl/name

     0-0-0/w PTR               1 PREV_01_QLT$

PL6.E3A0      #004=Z9IO$SEARCH_ST_STRUCT File=Z9IO.:Z8A6TSI                      SAT 08/09/97 14:08 Page:283
  ****  Section 005 LblCom QLT_

  ****  Scalars and arrays  ****
OctLoc.c.b A Datatyp(siz) R M Lvl/name                 OctLoc.c.b A Datatyp(siz) R M Lvl/name

     0-0-0/w STRC(180)         1 QLT_

  ****  Auto variables  ****

  ****  Scalars and arrays  ****
OctLoc.c.b A Datatyp(siz) R M Lvl/name                 OctLoc.c.b A Datatyp(siz) R M Lvl/name

     5-0-0/w PTR         r     1 @ADD_PROC                  4-0-0/w PTR         r     1 @LEVEL
     3-0-0/w PTR         r     1 @STP$                     *0-0-0/w EPTR        r     1 ADD_PROC
    *0-0-0/w SBIN        r     1 LEVEL                      6-0-0/w PTR         r     1 QLTP$
    *0-0-0/w PTR         r     1 STP$

  ****  BASED and DCB variables  ****

  ****  Scalars and arrays  ****
OctLoc.c.b A Datatyp(siz) R M Lvl/name                 OctLoc.c.b A Datatyp(siz) R M Lvl/name

     0-0-0/w STRC(396)         1 ALPHABET                   0-0-0/w STRC(396)         1 ARRAY
     0-0-0/w STRC(396)         1 BLOCK                      0-0-0/w STRC(396)         1 CD
     0-0-0/w CHAR(4096)        1 CHARS                      0-0-0/w STRC(396)         1 CLASS
     0-0-0/w STRC(396)         1 CONDITION                  0-0-0/w STRC(396)         1 CONST
     0-0-0/w STRC(72)          1 CONT                       0-0-0/w STRC(396)         1 DB
     0-0-0/w STRC(396)         1 DCB_                       0-0-0/w STRC(396)         1 DML_ITEM
     0-0-0/w STRC(396)         1 FD                         0-0-0/w STRC(396)         1 INTDEF
     0-0-0/w STRC(396)         1 LABEL                      0-0-0/w STRC(396)         1 MNEMONIC
     0-0-0/w STRC(36864)       1 PAGE                       0-0-0/w STRC(396)         1 PARA
     0-0-0/w STRC(396)         1 PROC_                      0-0-0/w STRC(396)         1 PROC_DEF
     0-0-0/w STRC(216)   r     1 QLT                        0-0-0/w STRC(396)         1 RD
     0-0-0/w STRC(396)         1 SCALAR                     0-0-0/w STRC(396)         1 SD
     0-0-0/w STRC(396)         1 SECTION                    0-0-0/w STRC(396)         1 SEGMENT
     0-0-0/w STRC(396)         1 ST                         0-0-0/w STRC(396)         1 SWITCH
     0-0-0/w STRC(396)         1 SYMBOLIC_CHAR              0-0-0/w STRC(396)         1 SYMDEF_
PL6.E3A0      #004=Z9IO$SEARCH_ST_STRUCT File=Z9IO.:Z8A6TSI                      SAT 08/09/97 14:08 Page:284
     0-0-0/w STRC(396)         1 SYMREF_                    0-0-0/w STRC(396)         1 TEMP
     0-0-0/w STRC(396)   r     1 VARIABLE


   Procedure Z9IO$SEARCH_ST_STRUCT requires 60 words for executable code.
   Procedure Z9IO$SEARCH_ST_STRUCT requires 12 words of local(AUTO) storage.

PL6.E3A0      #005=Z9IO$SCAN_SYMBOL_TABLE File=Z9IO.:Z8A6TSI                     SAT 08/09/97 14:08 Page:285
     1781        1        /*T***********************************************************/
     1782        2        /*T*                                                         */
     1783        3        /*T* Copyright (c) Bull HN Information Systems Inc., 1997    */
     1784        4        /*T*                                                         */
     1785        5        /*T***********************************************************/
     1786        6        Z9IO$SCAN_SYMBOL_TABLE : PROC(PROC$);
     1787        7
     1788        8        /*D*
     1789        9               NAME: Z9IO$SCAN_SYMBOL_TABLE
     1790       10        DESCRIPTION:
     1791       11                  Accept a pointer to a PROC_ item.  Scan the symbol table
     1792       12                  pointed to by the PROC_ item for all information to be
     1793       13                  included in the debug schema.
     1794       14               */
     1795       15        %EQU PHASE = 5;
     1796       16        %INCLUDE Z8A_DEFC;
     1797       84        %INCLUDE Z8A_SUPP_MAC;
     1798     2484        %INCLUDE Z8A_ERR_NUMS;
     1799     3248        %INCLUDE Z8A_ETT;
     1800     3549        %INCLUDE Z8A_ST;
     1801     7208        %INCLUDE Z8A_LTS;
     1802     9285        %INCLUDE Z8A_QLT;
     1803     9391
     1804     9392    1   DCL Z9IO$SEARCH_ST_STRUCT ENTRY (3);
     1805     9393    1   DCL Z9IO$ADD_TO_SCHEMA ENTRY(2);
     1806     9394    1   DCL Z8AE$ERROR ENTRY(12);
     1807     9395
     1808     9396    1   DCL PROC$ PTR;
     1809     9397    1   DCL ARGS$ PTR;
     1810     9398    1   DCL Z9IO$PTRLOC SBIN STATIC SYMDEF;
     1811     9399
     1812     9400    1   ARGS$ = PROC$ -> PROC_.PROC_DEF$ -> PROC_DEF.ARGLIST$;
     1813     9401
     1814     9402    1   ST$ = PROC$ -> PROC_.PROC_SUPP$ -> PROC_SUPP.HEAD$;
     1815     9403
     1816     9404    2   DO WHILE ST$ ~= ADDR(NIL);
     1817     9405
PL6.E3A0      #005=Z9IO$SCAN_SYMBOL_TABLE File=Z9IO.:Z8A6TSI                     SAT 08/09/97 14:08 Page:286
     1818     9406    2   IF ST$ -> VARIABLE.QLT$ ~= ADDR(NIL)  THEN
     1819     9407    2   CASE_STMT:
     1820     9408    3     DO CASE(ST$ -> ST.ID);
     1821     9409
     1822     9410
     1823     9411    3       CASE ( %SCALAR, %ARRAY, %FD, %SD, %CD, %RD, %DB);
     1824     9412
     1825     9413    3         IF ST$ -> VARIABLE.B.COMPILER_CREATED = %FALSE    THEN
     1826     9414    3           IF ST$ -> VARIABLE.QLT$ -> QLT.FATHER = ADDR(NIL) THEN
     1827     9415    4             DO;
     1828     9416
     1829     9417    4               IF ST$ -> VARIABLE.B.LINKAGE AND NOT ST$ -> VARIABLE.B.REDEF_SUB THEN
     1830     9418    5                 DO;
     1831     9419                        %GET_LTS(@ID = %BASE_LTS,
     1832     9420                                 @ST$ = ST$,
     1833     9421                                 @RETURN$ = ARGS$);
     1834     9464
     1835     9465    5                   IF ARGS$ = ADDR(NIL) OR   /* Not a based variable */
     1836     9466    5                     PROC$ -> PROC_.PSEUDO_STACK$ = ADDR(NIL) THEN
     1837     9467    5                     EXIT CASE_STMT;
     1838     9468
     1839     9469    5                   Z9IO$PTRLOC = ARGS$ -> BASE_LTS.SEQ# + PROC$ -> PROC_.PSEUDO_STACK$
     1840     9470    5                                    -> ETT.LOP -> VARIABLE.SA;
     1841     9471    5                   CALL Z9IO$SEARCH_ST_STRUCT(ST$,1,ENTADDR(Z9IO$ADD_TO_SCHEMA));
     1842     9472    5                 END;
     1843     9473
     1844     9474    4               ELSE
     1845     9475    4                 CALL Z9IO$SEARCH_ST_STRUCT (ST$, 1, ENTADDR(Z9IO$ADD_TO_SCHEMA));
     1846     9476
     1847     9477    4             END;
     1848     9478
     1849     9479
     1850     9480    3     END;  /* Case on ID */
     1851     9481
     1852     9482
     1853     9483    2     ST$ = ST$ -> ST.LINK;
     1854     9484
PL6.E3A0      #005=Z9IO$SCAN_SYMBOL_TABLE File=Z9IO.:Z8A6TSI                     SAT 08/09/97 14:08 Page:287
     1855     9485    2   END;   /* While */
     1856     9486
     1857     9487
     1858     9488    1   END Z9IO$SCAN_SYMBOL_TABLE;
     1859     9489        %EOD;

PL6.E3A0      #005=Z9IO$SCAN_SYMBOL_TABLE File=Z9IO.:Z8A6TSI                     SAT 08/09/97 14:08 Page:288
--  Include file information  --

   Z8A_QLT.:Z8A6TOU  cannot be made into a system file and is referenced.
   Z8A_LTS.:Z8A6TOU  cannot be made into a system file and is referenced.
   Z8A_ST.:Z8A6TOU  cannot be made into a system file and is referenced.
   Z8A_ETT.:Z8A6TOU  cannot be made into a system file and is referenced.
   Z8A_ERR_NUMS.:Z8A6TOU  is referenced.
   X8A_COM_MACS.:X8A6TOU  is referenced.
   Z8A_NAMES.:Z8A6TOU  is referenced.
   Z8A_SUPP_MAC.:Z8A6TOU  is referenced.
   Z8A_DEFC.:Z8A6TOU  cannot be made into a system file and is referenced.
      No diagnostics issued in procedure Z9IO$SCAN_SYMBOL_TABLE.

   Procedure Z9IO$SCAN_SYMBOL_TABLE requires 116 words for executable code.
   Procedure Z9IO$SCAN_SYMBOL_TABLE requires 10 words of local(AUTO) storage.

PL6.E3A0      #005=Z9IO$SCAN_SYMBOL_TABLE File=Z9IO.:Z8A6TSI                     SAT 08/09/97 14:08 Page:289

 Object Unit name= Z9IO$SCAN_SYMBOL_TABLE                     File name= Z9IO.:Z8A6TOU
 UTS= AUG 09 '97 14:08:50.32 SAT                              Compiler= PL-6/E31         Sev=      00
 SharedLib= :SHARED_SYSTEM                                    Alt SharedLib=


    ****  Control sections  ****

 Sect   Type Bound  Init  Size OctSiz  Section name(segment info)
    0  LblCom even  none     1      1  ITERATION
    1  LblCom even  none     1      1  ETT$
    2  LblCom even  none     1      1  HEAD_ETT$
    3  LblCom even  none   512   1000  ETT_BUCKETS
    4  LblCom even  none     5      5  ETT_
    5  LblCom even  none     1      1  ST$
    6  LblCom even  none     5      5  ST_
    7  LblCom even  none     1      1  LTS$
    8  LblCom even  none     5      5  LTS_
    9  LblCom even  none     1      1  QLT$
   10  LblCom even  none     1      1  PREV_01_QLT$
   11  LblCom even  none     5      5  QLT_
   12   Data  even  none     1      1  Z9IO$SCAN_SYMBOL_TABLE
   13   Proc  even  none   116    164  Z9IO$SCAN_SYMBOL_TABLE
   14  RoData even  none     5      5  Z9IO$SCAN_SYMBOL_TABLE

    ****  Entry defs  ****

                              Check   Calling
                             calling  sequence
  Sect OctLoc Primary Altret sequence   type   Parms  Name
    13      0   yes            yes      Std        1  Z9IO$SCAN_SYMBOL_TABLE

  ****  Data defs  ****

 Sect OctLoc  Name                           Sect OctLoc  Name
   12      0  Z9IO$PTRLOC
PL6.E3A0      #005=Z9IO$SCAN_SYMBOL_TABLE File=Z9IO.:Z8A6TSI                     SAT 08/09/97 14:08 Page:290

  ****  Entry refs  ****

         Check        Calling
        calling       sequence
Altret sequence SRef   type   Args  Name
         yes           Std       2 Z9IO$ADD_TO_SCHEMA
         yes           Std       3 Z9IO$SEARCH_ST_STRUCT
                       nStd      0 X66_AUTO_1
                       nStd      0 X66_ARET

  ****  Data refs  ****

  Flags:  r = read only, s = secondary
Flgs Name                             Flgs Name                             Flgs Name
r    LTS_STEP

  ****  Segment refs  ****

  Flags:  r = read only, s = secondary
Flgs Name                             Flgs Name                             Flgs Name
     NULLSID                               ISSID
PL6.E3A0      #005=Z9IO$SCAN_SYMBOL_TABLE File=Z9IO.:Z8A6TSI                     SAT 08/09/97 14:08 Page:291


     1781        1        /*T***********************************************************/
     1782        2        /*T*                                                         */
     1783        3        /*T* Copyright (c) Bull HN Information Systems Inc., 1997    */
     1784        4        /*T*                                                         */
     1785        5        /*T***********************************************************/
     1786        6        Z9IO$SCAN_SYMBOL_TABLE : PROC(PROC$);

      6 13 000000   000000 700200 xent  Z9IO$SCAN_S* TSX0  ! X66_AUTO_1
        13 000001   000012 000001                    ZERO    10,1

     1787        7
     1788        8        /*D*
     1789        9               NAME: Z9IO$SCAN_SYMBOL_TABLE
     1790       10        DESCRIPTION:
     1791       11                  Accept a pointer to a PROC_ item.  Scan the symbol table
     1792       12                  pointed to by the PROC_ item for all information to be
     1793       13                  included in the debug schema.
     1794       14               */
     1795       15        %EQU PHASE = 5;
     1796       16        %INCLUDE Z8A_DEFC;
     1797       84        %INCLUDE Z8A_SUPP_MAC;
     1798     2484        %INCLUDE Z8A_ERR_NUMS;
     1799     3248        %INCLUDE Z8A_ETT;
     1800     3549        %INCLUDE Z8A_ST;
     1801     7208        %INCLUDE Z8A_LTS;
     1802     9285        %INCLUDE Z8A_QLT;
     1803     9391
     1804     9392    1   DCL Z9IO$SEARCH_ST_STRUCT ENTRY (3);
     1805     9393    1   DCL Z9IO$ADD_TO_SCHEMA ENTRY(2);
     1806     9394    1   DCL Z8AE$ERROR ENTRY(12);
     1807     9395
     1808     9396    1   DCL PROC$ PTR;
     1809     9397    1   DCL ARGS$ PTR;
     1810     9398    1   DCL Z9IO$PTRLOC SBIN STATIC SYMDEF;
     1811     9399
     1812     9400    1   ARGS$ = PROC$ -> PROC_.PROC_DEF$ -> PROC_DEF.ARGLIST$;
PL6.E3A0      #005=Z9IO$SCAN_SYMBOL_TABLE File=Z9IO.:Z8A6TSI                     SAT 08/09/97 14:08 Page:292

   9400 13 000002   200003 470500                    LDP0    @PROC$,,AUTO
        13 000003   000000 471500                    LDP1    0,,PR0
        13 000004   100006 473500                    LDP3    6,,PR1
        13 000005   300005 236100                    LDQ     5,,PR3
        13 000006   200004 756100                    STQ     ARGS$,,AUTO

     1813     9401
     1814     9402    1   ST$ = PROC$ -> PROC_.PROC_SUPP$ -> PROC_SUPP.HEAD$;

   9402 13 000007   100001 474500                    LDP4    1,,PR1
        13 000010   400011 236100                    LDQ     9,,PR4
        13 000011   000000 756000 5                  STQ     ST$

     1815     9403
     1816     9404    2   DO WHILE ST$ ~= ADDR(NIL);

   9404 13 000012   000161 710000 13                 TRA     s:9485

     1817     9405
     1818     9406    2   IF ST$ -> VARIABLE.QLT$ ~= ADDR(NIL)  THEN

   9406 13 000013   000000 470400 5                  LDP0    ST$
        13 000014   000007 236100                    LDQ     7,,PR0
        13 000015   000000 116000 14                 CMPQ    0
        13 000016   000156 600000 13                 TZE     s:9483

     1819     9407    2   CASE_STMT:
     1820     9408    3     DO CASE(ST$ -> ST.ID);

   9408 13 000017   000000 236100       CASE_STMT    LDQ     0,,PR0
        13 000020   000022 772000                    QRL     18
        13 000021   000765 136007                    SBLQ    501,DL
        13 000022   000022 116007                    CMPQ    18,DL
        13 000023   000025 602006 13                 TNC     CASE_STMT+6,QL
        13 000024   000156 710000 13                 TRA     s:9483
        13 000025   000047 710000 13                 TRA     s:9413
PL6.E3A0      #005=Z9IO$SCAN_SYMBOL_TABLE File=Z9IO.:Z8A6TSI                     SAT 08/09/97 14:08 Page:293
        13 000026   000047 710000 13                 TRA     s:9413
        13 000027   000156 710000 13                 TRA     s:9483
        13 000030   000156 710000 13                 TRA     s:9483
        13 000031   000156 710000 13                 TRA     s:9483
        13 000032   000156 710000 13                 TRA     s:9483
        13 000033   000156 710000 13                 TRA     s:9483
        13 000034   000156 710000 13                 TRA     s:9483
        13 000035   000156 710000 13                 TRA     s:9483
        13 000036   000156 710000 13                 TRA     s:9483
        13 000037   000156 710000 13                 TRA     s:9483
        13 000040   000156 710000 13                 TRA     s:9483
        13 000041   000156 710000 13                 TRA     s:9483
        13 000042   000047 710000 13                 TRA     s:9413
        13 000043   000047 710000 13                 TRA     s:9413
        13 000044   000047 710000 13                 TRA     s:9413
        13 000045   000047 710000 13                 TRA     s:9413
        13 000046   000047 710000 13                 TRA     s:9413

     1821     9409
     1822     9410
     1823     9411    3       CASE ( %SCALAR, %ARRAY, %FD, %SD, %CD, %RD, %DB);

     1824     9412
     1825     9413    3         IF ST$ -> VARIABLE.B.COMPILER_CREATED = %FALSE    THEN

   9413 13 000047   000003 236100                    LDQ     3,,PR0
        13 000050   100000 316003                    CANQ    32768,DU
        13 000051   000156 601000 13                 TNZ     s:9483

     1826     9414    3           IF ST$ -> VARIABLE.QLT$ -> QLT.FATHER = ADDR(NIL) THEN

   9414 13 000052   000007 471500                    LDP1    7,,PR0
        13 000053   100001 236100                    LDQ     1,,PR1
        13 000054   000000 116000 14                 CMPQ    0
        13 000055   000156 601000 13                 TNZ     s:9483

     1827     9415    4             DO;
PL6.E3A0      #005=Z9IO$SCAN_SYMBOL_TABLE File=Z9IO.:Z8A6TSI                     SAT 08/09/97 14:08 Page:294

     1828     9416
     1829     9417    4               IF ST$ -> VARIABLE.B.LINKAGE AND NOT ST$ -> VARIABLE.B.REDEF_SUB THEN

   9417 13 000056   000003 236100                    LDQ     3,,PR0
        13 000057   000002 316003                    CANQ    2,DU
        13 000060   000142 600000 13                 TZE     s:9475
        13 000061   000003 430100                    FSZN    3,,PR0
        13 000062   000142 604000 13                 TMI     s:9475

     1830     9418    5                 DO;

     1831     9419                        %GET_LTS(@ID = %BASE_LTS,
     1832     9420                                 @ST$ = ST$,
     1833     9421                                 @RETURN$ = ARGS$);

   9423 13 000063   000005 236100                    LDQ     5,,PR0
        13 000064   000000 116000 14                 CMPQ    0
        13 000065   000075 600000 13                 TZE     s:9457
        13 000066   000005 473500                    LDP3    5,,PR0
        13 000067   300000 220100                    LDX0    0,,PR3
        13 000070   001105 100003                    CMPX0   581,DU
        13 000071   000075 601000 13                 TNZ     s:9457

   9451 13 000072   300010 236100                    LDQ     8,,PR3
        13 000073   200004 756100                    STQ     ARGS$,,AUTO

   9455 13 000074   000107 710000 13                 TRA     s:9465

   9457 13 000075   000000 116000 14                 CMPQ    0
        13 000076   000105 600000 13                 TZE     s:9461
        13 000077   000005 473500                    LDP3    5,,PR0
        13 000100   300000 220100                    LDX0    0,,PR3
        13 000101   001066 100003                    CMPX0   566,DU
        13 000102   000105 601000 13                 TNZ     s:9461

   9459 13 000103   200004 756100                    STQ     ARGS$,,AUTO
PL6.E3A0      #005=Z9IO$SCAN_SYMBOL_TABLE File=Z9IO.:Z8A6TSI                     SAT 08/09/97 14:08 Page:295
        13 000104   000107 710000 13                 TRA     s:9465

   9461 13 000105   000000 236000 14                 LDQ     0
        13 000106   200004 756100                    STQ     ARGS$,,AUTO

     1834     9464
     1835     9465    5                   IF ARGS$ = ADDR(NIL) OR   /* Not a based variable */

   9465 13 000107   000000 116000 14                 CMPQ    0
        13 000110   000156 600000 13                 TZE     s:9483
        13 000111   200003 473500                    LDP3    @PROC$,,AUTO
        13 000112   300000 474500                    LDP4    0,,PR3
        13 000113   400004 236100                    LDQ     4,,PR4
        13 000114   000000 116000 14                 CMPQ    0
        13 000115   000156 600000 13                 TZE     s:9483

     1836     9466    5                     PROC$ -> PROC_.PSEUDO_STACK$ = ADDR(NIL) THEN
     1837     9467    5                     EXIT CASE_STMT;
     1838     9468
     1839     9469    5                   Z9IO$PTRLOC = ARGS$ -> BASE_LTS.SEQ# + PROC$ -> PROC_.PSEUDO_STACK$

   9469 13 000116   400004 475500                    LDP5    4,,PR4
        13 000117   500001 476500                    LDP6    1,,PR5
        13 000120   200004 477500                    LDP7    ARGS$,,AUTO
        13 000121   600001 236100                    LDQ     1,,PR6
        13 000122   000022 772000                    QRL     18
        13 000123   700003 036100                    ADLQ    3,,PR7
        13 000124   000000 756000 12                 STQ     Z9IO$PTRLOC

     1840     9470    5                                    -> ETT.LOP -> VARIABLE.SA;
     1841     9471    5                   CALL Z9IO$SEARCH_ST_STRUCT(ST$,1,ENTADDR(Z9IO$ADD_TO_SCHEMA));

   9471 13 000125   000000 636000 xent               EAQ     Z9IO$ADD_TO_SCHEMA
        13 000126   200006 756100                    STQ     ARGS$+2,,AUTO
        13 000127   200006 634500                    EPPR4   ARGS$+2,,AUTO
        13 000130   200011 454500                    STP4    ARGS$+5,,AUTO
        13 000131   000003 236000 14                 LDQ     3
PL6.E3A0      #005=Z9IO$SCAN_SYMBOL_TABLE File=Z9IO.:Z8A6TSI                     SAT 08/09/97 14:08 Page:296
        13 000132   200010 756100                    STQ     ARGS$+4,,AUTO
        13 000133   000004 236000 14                 LDQ     4
        13 000134   200007 756100                    STQ     ARGS$+3,,AUTO
        13 000135   200007 630500                    EPPR0   ARGS$+3,,AUTO
        13 000136   000001 631400 14                 EPPR1   1
        13 000137   000000 701000 xent               TSX1    Z9IO$SEARCH_ST_STRUCT
        13 000140   000000 011000                    NOP     0

     1842     9472    5                 END;

   9472 13 000141   000156 710000 13                 TRA     s:9483

     1843     9473
     1844     9474    4               ELSE
     1845     9475    4                 CALL Z9IO$SEARCH_ST_STRUCT (ST$, 1, ENTADDR(Z9IO$ADD_TO_SCHEMA));

   9475 13 000142   000000 636000 xent               EAQ     Z9IO$ADD_TO_SCHEMA
        13 000143   200006 756100                    STQ     ARGS$+2,,AUTO
        13 000144   200006 633500                    EPPR3   ARGS$+2,,AUTO
        13 000145   200011 453500                    STP3    ARGS$+5,,AUTO
        13 000146   000003 236000 14                 LDQ     3
        13 000147   200010 756100                    STQ     ARGS$+4,,AUTO
        13 000150   000004 236000 14                 LDQ     4
        13 000151   200007 756100                    STQ     ARGS$+3,,AUTO
        13 000152   200007 630500                    EPPR0   ARGS$+3,,AUTO
        13 000153   000001 631400 14                 EPPR1   1
        13 000154   000000 701000 xent               TSX1    Z9IO$SEARCH_ST_STRUCT
        13 000155   000000 011000                    NOP     0

     1846     9476
     1847     9477    4             END;

     1848     9478
     1849     9479
     1850     9480    3     END;  /* Case on ID */

     1851     9481
PL6.E3A0      #005=Z9IO$SCAN_SYMBOL_TABLE File=Z9IO.:Z8A6TSI                     SAT 08/09/97 14:08 Page:297
     1852     9482
     1853     9483    2     ST$ = ST$ -> ST.LINK;

   9483 13 000156   000000 470400 5                  LDP0    ST$
        13 000157   000012 236100                    LDQ     10,,PR0
        13 000160   000000 756000 5                  STQ     ST$

     1854     9484
     1855     9485    2   END;   /* While */

   9485 13 000161   000000 116000 14                 CMPQ    0
        13 000162   000013 601000 13                 TNZ     s:9406

     1856     9486
     1857     9487
     1858     9488    1   END Z9IO$SCAN_SYMBOL_TABLE;

   9488 13 000163   000000 702200 xent               TSX2  ! X66_ARET
     1859     9489        %EOD;

PL6.E3A0      #005=Z9IO$SCAN_SYMBOL_TABLE File=Z9IO.:Z8A6TSI                     SAT 08/09/97 14:08 Page:298
--  Include file information  --

   Z8A_QLT.:Z8A6TOU  cannot be made into a system file and is referenced.
   Z8A_LTS.:Z8A6TOU  cannot be made into a system file and is referenced.
   Z8A_ST.:Z8A6TOU  cannot be made into a system file and is referenced.
   Z8A_ETT.:Z8A6TOU  cannot be made into a system file and is referenced.
   Z8A_ERR_NUMS.:Z8A6TOU  is referenced.
   X8A_COM_MACS.:X8A6TOU  is referenced.
   Z8A_NAMES.:Z8A6TOU  is referenced.
   Z8A_SUPP_MAC.:Z8A6TOU  is referenced.
   Z8A_DEFC.:Z8A6TOU  cannot be made into a system file and is referenced.
      No diagnostics issued in procedure Z9IO$SCAN_SYMBOL_TABLE.
PL6.E3A0      #005=Z9IO$SCAN_SYMBOL_TABLE File=Z9IO.:Z8A6TSI                     SAT 08/09/97 14:08 Page:299

 **** Variables and constants ****

  ****  Section 000 LblCom ITERATION

  ****  Scalars and arrays  ****
OctLoc.c.b A Datatyp(siz) R M Lvl/name                 OctLoc.c.b A Datatyp(siz) R M Lvl/name

     0-0-0/w SBIN              1 ITERATION

  ****  Section 001 LblCom ETT$

  ****  Scalars and arrays  ****
OctLoc.c.b A Datatyp(siz) R M Lvl/name                 OctLoc.c.b A Datatyp(siz) R M Lvl/name

     0-0-0/w PTR         r     1 ETT$

  ****  Section 002 LblCom HEAD_ETT$

  ****  Scalars and arrays  ****
OctLoc.c.b A Datatyp(siz) R M Lvl/name                 OctLoc.c.b A Datatyp(siz) R M Lvl/name

     0-0-0/w PTR               1 HEAD_ETT$

  ****  Section 003 LblCom ETT_BUCKETS

  ****  Scalars and arrays  ****
OctLoc.c.b A Datatyp(siz) R M Lvl/name                 OctLoc.c.b A Datatyp(siz) R M Lvl/name

     0-0-0/w PTR               1 ETT_BUCKETS(0:511)

  ****  Section 004 LblCom ETT_

  ****  Scalars and arrays  ****
OctLoc.c.b A Datatyp(siz) R M Lvl/name                 OctLoc.c.b A Datatyp(siz) R M Lvl/name

     0-0-0/w STRC(180)         1 ETT_

PL6.E3A0      #005=Z9IO$SCAN_SYMBOL_TABLE File=Z9IO.:Z8A6TSI                     SAT 08/09/97 14:08 Page:300
  ****  Section 005 LblCom ST$

  ****  Scalars and arrays  ****
OctLoc.c.b A Datatyp(siz) R M Lvl/name                 OctLoc.c.b A Datatyp(siz) R M Lvl/name

     0-0-0/w PTR         r     1 ST$

  ****  Section 006 LblCom ST_

  ****  Scalars and arrays  ****
OctLoc.c.b A Datatyp(siz) R M Lvl/name                 OctLoc.c.b A Datatyp(siz) R M Lvl/name

     0-0-0/w STRC(180)         1 ST_

  ****  Section 007 LblCom LTS$

  ****  Scalars and arrays  ****
OctLoc.c.b A Datatyp(siz) R M Lvl/name                 OctLoc.c.b A Datatyp(siz) R M Lvl/name

     0-0-0/w PTR               1 LONG_ITEM$                 0-0-0/w PTR         r     1 LTS$

  ****  Section 008 LblCom LTS_

  ****  Scalars and arrays  ****
OctLoc.c.b A Datatyp(siz) R M Lvl/name                 OctLoc.c.b A Datatyp(siz) R M Lvl/name

     0-0-0/w STRC(180)         1 LTS_

  ****  Section 009 LblCom QLT$

  ****  Scalars and arrays  ****
OctLoc.c.b A Datatyp(siz) R M Lvl/name                 OctLoc.c.b A Datatyp(siz) R M Lvl/name

     0-0-0/w PTR         r     1 QLT$

  ****  Section 010 LblCom PREV_01_QLT$

PL6.E3A0      #005=Z9IO$SCAN_SYMBOL_TABLE File=Z9IO.:Z8A6TSI                     SAT 08/09/97 14:08 Page:301
  ****  Scalars and arrays  ****
OctLoc.c.b A Datatyp(siz) R M Lvl/name                 OctLoc.c.b A Datatyp(siz) R M Lvl/name

     0-0-0/w PTR               1 PREV_01_QLT$

  ****  Section 011 LblCom QLT_

  ****  Scalars and arrays  ****
OctLoc.c.b A Datatyp(siz) R M Lvl/name                 OctLoc.c.b A Datatyp(siz) R M Lvl/name

     0-0-0/w STRC(180)         1 QLT_

  ****  Section 012  Data  Z9IO$SCAN_SYMBOL_TABLE

  ****  Scalars and arrays  ****
OctLoc.c.b A Datatyp(siz) R M Lvl/name                 OctLoc.c.b A Datatyp(siz) R M Lvl/name

     0-0-0/w SBIN        r     1 Z9IO$PTRLOC

  ****  Auto variables  ****

  ****  Scalars and arrays  ****
OctLoc.c.b A Datatyp(siz) R M Lvl/name                 OctLoc.c.b A Datatyp(siz) R M Lvl/name

     3-0-0/w PTR         r     1 @PROC$                     4-0-0/w PTR         r     1 ARGS$
    *0-0-0/w PTR         r     1 PROC$

  ****  SYMREF variables  ****

  ****  Scalars and arrays  ****
OctLoc.c.b A Datatyp(siz) R M Lvl/name                 OctLoc.c.b A Datatyp(siz) R M Lvl/name

     0-0-0/w UBIN              1 LTS_STEP(0:37)

  ****  BASED and DCB variables  ****

  ****  Scalars and arrays  ****
PL6.E3A0      #005=Z9IO$SCAN_SYMBOL_TABLE File=Z9IO.:Z8A6TSI                     SAT 08/09/97 14:08 Page:302
OctLoc.c.b A Datatyp(siz) R M Lvl/name                 OctLoc.c.b A Datatyp(siz) R M Lvl/name

     0-0-0/w STRC(396)         1 ALPHABET                   0-0-0/w STRC(144)         1 ALTER_LTS
     0-0-0/w STRC(3672)        1 ALT_KEY                    0-0-0/w STRC(36864)       1 ARGLIST
     0-0-0/w STRC(396)         1 ARRAY                      0-0-0/w STRC(180)         1 ARRAY_PRESET_LTS
     0-0-0/w STRC(288)   r     1 BASE_LTS                   0-0-0/w STRC(396)         1 BLOCK
     0-0-0/w STRC(144)         1 BT                         0-0-0/w STRC(396)         1 CD
     0-0-0/w STRC(288)         1 CD_LTS                     0-0-0/w CHAR(4096)        1 CHARS
     0-0-0/w STRC(396)         1 CLASS                      0-0-0/w STRC(396)         1 CONDITION
     0-0-0/w STRC(396)         1 CONST                      0-0-0/w STRC(72)          1 CONT
     0-0-0/w STRC(540)         1 CONTROL_NAME_LTS           0-0-0/w STRC(1872)        1 COPY_FILE
     0-0-0/w STRC(396)         1 DB                         0-0-0/w STRC(396)         1 DCB_
     0-0-0/w STRC(108)         1 DEPENDING_SIZE             0-0-0/w STRC(5472)        1 DIMS
     0-0-0/w STRC(396)         1 DML_ITEM                   0-0-0/w STRC(216)         1 DML_REC
     0-0-0/w STRC(180)   r     1 ETT                        0-0-0/w STRC(73836)       1 EVALUATE
     0-0-0/w STRC(396)         1 FD                         0-0-0/w STRC(1692)        1 FILE_LTS
     0-0-0/w STRC(108)         1 INDEXES                    0-0-0/w STRC(360)         1 INIT_LTS
     0-0-0/w STRC(396)         1 INTDEF                     0-0-0/w STRC(180)         1 IO_RESTORE_CHAIN
     0-0-0/w STRC(144)         1 KEY                        0-0-0/w STRC(396)         1 LABEL
     0-0-0/w STRC(36864)       1 LCNST                      0-0-0/w STRC(72)          1 LONG
     0-0-0/w STRC        r     1 LTS                        0-0-0/w STRC(360)   r     1 LTSS
     0-0-0/w STRC(36936)       1 LTS_PTR_ARRAY              0-0-0/w STRC(396)         1 MNEMONIC
     0-0-0/w STRC(144)         1 NEL                        0-0-0/w STRC(216)         1 OPEN_LTS
     0-0-0/w STRC(36864)       1 PAGE                       0-0-0/w STRC(396)         1 PARA
     0-0-0/w STRC(144)         1 PRIME                      0-0-0/w STRC(396)   r     1 PROC_
     0-0-0/w STRC(396)   r     1 PROC_DEF                   0-0-0/w STRC(900)   r     1 PROC_SUPP
     0-0-0/w STRC(216)   r     1 QLT                        0-0-0/w STRC(396)         1 RD
     0-0-0/w STRC(216)         1 REF                        0-0-0/w STRC(108)         1 RENAMES
     0-0-0/w STRC(720)         1 REPORT_01_LTS              0-0-0/w STRC(432)         1 REPORT_ELEM_LTS
     0-0-0/w STRC(252)         1 REPORT_GRP_LTS             0-0-0/w STRC(1332)        1 REPORT_LTS
     0-0-0/w STRC(144)         1 RVA_LTS                    0-0-0/w STRC(396)         1 SCALAR
     0-0-0/w STRC(396)         1 SD                         0-0-0/w STRC(396)         1 SECTION
     0-0-0/w STRC(396)         1 SEGMENT                    0-0-0/w STRC(360)         1 SEGMENT_LTS
     0-0-0/w STRC(396)   r     1 ST                         0-0-0/w STRC(252)         1 SUM_LTS
     0-0-0/w STRC(396)         1 SWITCH                     0-0-0/w STRC(396)         1 SYMBOLIC_CHAR
     0-0-0/w STRC(396)         1 SYMDEF_                    0-0-0/w STRC(396)         1 SYMREF_
     0-0-0/w STRC(396)         1 TEMP                       0-0-0/d STRC(612)         1 USE
PL6.E3A0      #005=Z9IO$SCAN_SYMBOL_TABLE File=Z9IO.:Z8A6TSI                     SAT 08/09/97 14:08 Page:303
     0-0-0/w STRC(252)         1 USE_SUPP                   0-0-0/w STRC(396)   r     1 VARIABLE


   Procedure Z9IO$SCAN_SYMBOL_TABLE requires 116 words for executable code.
   Procedure Z9IO$SCAN_SYMBOL_TABLE requires 10 words of local(AUTO) storage.

PL6.E3A0      #006=Z9IO$OUTPUT_WORD File=Z9IO.:Z8A6TSI                           SAT 08/09/97 14:09 Page:304
     1860        1        /*T***********************************************************/
     1861        2        /*T*                                                         */
     1862        3        /*T* Copyright (c) Bull HN Information Systems Inc., 1997    */
     1863        4        /*T*                                                         */
     1864        5        /*T***********************************************************/
     1865        6
     1866        7         /*================*/
     1867        8           Z9IO$OUTPUT_WORD: PROC (SECT_NUMBER, OFFSET, OU_WORD);
     1868        9         /*================*/
     1869       10
     1870       11        %EQU PHASE = 5;
     1871       12
     1872       13        %INCLUDE Z8A_DEFC;
     1873       81        %INCLUDE XUO$ENTRIES;
     1874      132        %INCLUDE Z8A_ERR_NUMS;
     1875      896
     1876      897    1   DCL Z8AE$ERROR    ENTRY (12);
     1877      898    1   DCL SECT_NUMBER   UBIN WORD;
     1878      899    1   DCL OFFSET        UBIN WORD;
     1879      900    1   DCL OU_WORD       UBIN WORD;
     1880      901
     1881      902
     1882      903
     1883      904    1      CALL XUO$PRGM (SECT_NUMBER,
     1884      905    1                     OFFSET,
     1885      906    1                     OU_WORD)
     1886      907    1        WHENALTRETURN
     1887      908    2          DO;
     1888      909    2            CALL Z8AE$ERROR(%E$ANNOTATOR_ABORT);
     1889      910    2          END;
     1890      911
     1891      912    1    END Z9IO$OUTPUT_WORD;
     1892      913

PL6.E3A0      #006=Z9IO$OUTPUT_WORD File=Z9IO.:Z8A6TSI                           SAT 08/09/97 14:09 Page:305
--  Include file information  --

   Z8A_ERR_NUMS.:Z8A6TOU  is referenced.
   XUO$ENTRIES.:LIB_E04  cannot be made into a system file and is referenced.
   Z8A_DEFC.:Z8A6TOU  cannot be made into a system file and is referenced.
      No diagnostics issued in procedure Z9IO$OUTPUT_WORD.

   Procedure Z9IO$OUTPUT_WORD requires 12 words for executable code.
   Procedure Z9IO$OUTPUT_WORD requires 6 words of local(AUTO) storage.

    No errors detected in file Z9IO.:Z8A6TSI    .

PL6.E3A0      #006=Z9IO$OUTPUT_WORD File=Z9IO.:Z8A6TSI                           SAT 08/09/97 14:09 Page:306

 Object Unit name= Z9IO$OUTPUT_WORD                           File name= Z9IO.:Z8A6TOU
 UTS= AUG 09 '97 14:09:27.80 SAT                              Compiler= PL-6/E31         Sev=      00
 SharedLib= :SHARED_SYSTEM                                    Alt SharedLib=


    ****  Control sections  ****

 Sect   Type Bound  Init  Size OctSiz  Section name(segment info)
    0  LblCom even  none     1      1  ITERATION
    1   Proc  even  none    12     14  Z9IO$OUTPUT_WORD
    2  RoData even  none     4      4  Z9IO$OUTPUT_WORD

    ****  Entry defs  ****

                              Check   Calling
                             calling  sequence
  Sect OctLoc Primary Altret sequence   type   Parms  Name
     1      0   yes            yes      Std        3  Z9IO$OUTPUT_WORD

  ****  Entry refs  ****

         Check        Calling
        calling       sequence
Altret sequence SRef   type   Args  Name
 yes     yes           Std       3 XUO$PRGM
         yes           Std      12 Z8AE$ERROR
                       nStd      0 X66_AUTO_3
                       nStd      0 X66_ARET

  ****  Segment refs  ****

  Flags:  r = read only, s = secondary
Flgs Name                             Flgs Name                             Flgs Name
     ISSID
PL6.E3A0      #006=Z9IO$OUTPUT_WORD File=Z9IO.:Z8A6TSI                           SAT 08/09/97 14:09 Page:307


     1860        1        /*T***********************************************************/
     1861        2        /*T*                                                         */
     1862        3        /*T* Copyright (c) Bull HN Information Systems Inc., 1997    */
     1863        4        /*T*                                                         */
     1864        5        /*T***********************************************************/
     1865        6
     1866        7         /*================*/
     1867        8           Z9IO$OUTPUT_WORD: PROC (SECT_NUMBER, OFFSET, OU_WORD);

      8  1 000000   000000 700200 xent  Z9IO$OUTPUT* TSX0  ! X66_AUTO_3
         1 000001   000006 000003                    ZERO    6,3

     1868        9         /*================*/
     1869       10
     1870       11        %EQU PHASE = 5;
     1871       12
     1872       13        %INCLUDE Z8A_DEFC;
     1873       81        %INCLUDE XUO$ENTRIES;
     1874      132        %INCLUDE Z8A_ERR_NUMS;
     1875      896
     1876      897    1   DCL Z8AE$ERROR    ENTRY (12);
     1877      898    1   DCL SECT_NUMBER   UBIN WORD;
     1878      899    1   DCL OFFSET        UBIN WORD;
     1879      900    1   DCL OU_WORD       UBIN WORD;
     1880      901
     1881      902
     1882      903
     1883      904    1      CALL XUO$PRGM (SECT_NUMBER,

    904  1 000002   200003 630500                    EPPR0   @SECT_NUMBER,,AUTO
         1 000003   000000 631400 2                  EPPR1   0
         1 000004   000000 701000 xent               TSX1    XUO$PRGM
         1 000005   000007 702000 1                  TSX2    s:909
         1 000006   000013 710000 1                  TRA     s:912

     1884      905    1                     OFFSET,
PL6.E3A0      #006=Z9IO$OUTPUT_WORD File=Z9IO.:Z8A6TSI                           SAT 08/09/97 14:09 Page:308
     1885      906    1                     OU_WORD)
     1886      907    1        WHENALTRETURN
     1887      908    2          DO;

     1888      909    2            CALL Z8AE$ERROR(%E$ANNOTATOR_ABORT);

    909  1 000007   000003 630400 2                  EPPR0   3
         1 000010   000001 631400 2                  EPPR1   1
         1 000011   000000 701000 xent               TSX1    Z8AE$ERROR
         1 000012   000000 011000                    NOP     0

     1889      910    2          END;

     1890      911
     1891      912    1    END Z9IO$OUTPUT_WORD;

    912  1 000013   000000 702200 xent               TSX2  ! X66_ARET
     1892      913

PL6.E3A0      #006=Z9IO$OUTPUT_WORD File=Z9IO.:Z8A6TSI                           SAT 08/09/97 14:09 Page:309
--  Include file information  --

   Z8A_ERR_NUMS.:Z8A6TOU  is referenced.
   XUO$ENTRIES.:LIB_E04  cannot be made into a system file and is referenced.
   Z8A_DEFC.:Z8A6TOU  cannot be made into a system file and is referenced.
      No diagnostics issued in procedure Z9IO$OUTPUT_WORD.
PL6.E3A0      #006=Z9IO$OUTPUT_WORD File=Z9IO.:Z8A6TSI                           SAT 08/09/97 14:09 Page:310

 **** Variables and constants ****

  ****  Section 000 LblCom ITERATION

  ****  Scalars and arrays  ****
OctLoc.c.b A Datatyp(siz) R M Lvl/name                 OctLoc.c.b A Datatyp(siz) R M Lvl/name

     0-0-0/w SBIN              1 ITERATION

  ****  Auto variables  ****

  ****  Scalars and arrays  ****
OctLoc.c.b A Datatyp(siz) R M Lvl/name                 OctLoc.c.b A Datatyp(siz) R M Lvl/name

     4-0-0/w PTR         r     1 @OFFSET                    5-0-0/w PTR         r     1 @OU_WORD
     3-0-0/w PTR         r     1 @SECT_NUMBER              *0-0-0/w UBIN        r     1 OFFSET
    *0-0-0/w UBIN        r     1 OU_WORD                   *0-0-0/w UBIN        r     1 SECT_NUMBER

  ****  BASED and DCB variables  ****

  ****  Scalars and arrays  ****
OctLoc.c.b A Datatyp(siz) R M Lvl/name                 OctLoc.c.b A Datatyp(siz) R M Lvl/name

     0-0-0/w CHAR(4096)        1 CHARS                      0-0-0/w STRC(72)          1 CONT
     0-0-0/w STRC(36864)       1 PAGE


   Procedure Z9IO$OUTPUT_WORD requires 12 words for executable code.
   Procedure Z9IO$OUTPUT_WORD requires 6 words of local(AUTO) storage.

    No errors detected in file Z9IO.:Z8A6TSI    .
