PL6.E3A0      #001=Z9IO$OUTPUT_OU File=Z9IO.:Z8A6TSI                             SAT 08/09/97 14:02 Page:1
        1        1        /*M* Z9IO Annotator Object Unit Routines */
        2        2        /*T***********************************************************/
        3        3        /*T*                                                         */
        4        4        /*T* Copyright (c) Bull HN Information Systems Inc., 1997    */
        5        5        /*T*                                                         */
        6        6        /*T***********************************************************/
        7        7
        8        8
        9        9        /*P*
       10       10               NAME: Z9IO
       11       11            PURPOSE: System dependent code to produce object unit.
       12       12        */
       13       13
       14       14
       15       15        /*D*
       16       16               NAME: Z9IO$OUTPUT_OU
       17       17        DESCRIPTION: Produce a CP6 OU from compiler tables.  The
       18       18                     monitor service routines XUO$  are used in this
       19       19                     implementation.
       20       20        */
       21       21
       22       22        Z9IO$OUTPUT_OU : PROC;
       23       23
       24       24        %EQU PHASE = 5;
       25       25
       26       26               /* Include files */
       27       27
       28       28        %INCLUDE Z8A_DEFC;
       29       96        %INCLUDE Z8A_SUPP_MAC;
       30     2496        %INCLUDE Z8A_ERR_NUMS;
       31     3260        %INCLUDE Z8A_OBJ;
       32     3757        %INCLUDE Z8A_COMCOM;
       33     4407        %INCLUDE Z8A_ST;
       34     8066        %INCLUDE Z8A_LTS;
       35    10143        %INCLUDE Z8A_DNT;
       36    10364        %INCLUDE Z8A_ERR;
       37    10433        %INCLUDE Z9A_SUPP_MAC;
PL6.E3A0      #001=Z9IO$OUTPUT_OU File=Z9IO.:Z8A6TSI                             SAT 08/09/97 14:02 Page:2
       38    10722        %INCLUDE Z8E_STATEMNT;
       39    10791        %INCLUDE Z8A_SYS_FILE;
       40    17066        %INCLUDE B$OBJECT_C;
       41    20496        %INCLUDE Z9I_PREPROC;
       42    20516        %INCLUDE Z8I_ERR_SEV;
       43    20550        %EQU Z8I_LISTING_INIT = '0'B;
       44    20551        %INCLUDE Z8I_LISTING;
       45    20639
       46    20640               /* External References */
       47    20641
       48    20642        %INCLUDE XUO$ENTRIES;
       49    20693    1   DCL Z9IO$SCAN_SYMBOL_TABLE ENTRY(1);
       50    20694    1   DCL Z8AE$ERROR ENTRY(12);
       51    20695    1   DCL Z8IO$PROCESS_ARRAY  ENTRY (2);
       52    20696
       53    20697               /* External data */
       54    20698
       55    20699        %B$STTYPESUBS;
       56    20768
       57    20769    1   DCL P_VREBL_NUMBER           SBIN WORD EXT;
       58    20770
       59    20771    1   DCL P_OU_CLOSE_REQUIRED      BIT(1) CONSTANT INIT('1'B);
       60    20772    1   DCL P_SCHEMA_REQUIRED_FLAG   BIT(1) CONSTANT INIT('1'B);
       61    20773    1   DCL P_COMPILER_ID            UBIN WORD CONSTANT INIT(3);  /* COBOL */
       62    20774
       63    20775    1   DCL 1 P_VERSION CONSTANT,
       64    20776    1         2 LETTER     CHAR(1) INIT(%VERSION_LETTER),
       65    20777    1         2 NUMBER     UBIN BYTE UNAL INIT(%VERSION_NUMBER);
       66    20778
       67    20779    1   DCL 1 P_LIBRARY_NAME CONSTANT,
       68    20780    1         2 SIZE UBIN BYTE UNAL INIT (SIZEC (':SHARED_COBOL85')),
       69    20781    1         2 TEXT CHAR(0) INIT(':SHARED_COBOL85');
       70    20782
       71    20783    1   DCL 1 IDS_LIBRARY_NAME  CONSTANT,
       72    20784    1         2 SIZE UBIN BYTE UNAL INIT(3),
       73    20785    1         2 TEXT CHAR(3) INIT('IDS');
       74    20786
PL6.E3A0      #001=Z9IO$OUTPUT_OU File=Z9IO.:Z8A6TSI                             SAT 08/09/97 14:02 Page:3
       75    20787
       76    20788    1   DCL P_OU_UTS UBIN WORD;
       77    20789    1   DCL P_WORDSIZE               SBIN ALIGNED CONSTANT INIT(36);
       78    20790    1   DCL SEVERITY_INDEX           SBIN WORD;
       79    20791    1   DCL P_LOGBLK_NUMBER          SBIN WORD;
       80    20792    1   DCL P_EXST_NUMBER            SBIN WORD;
       81    20793    1   DCL LAST_LINE_NUMBER         SBIN WORD;
       82    20794    1   DCL COUNT                    SBIN WORD;
       83    20795    1   DCL PROG_NAME_POINTER        SBIN WORD;
       84    20796    1   DCL PROC_NAME_POINTER        SBIN WORD;
       85    20797
       86    20798    1   DCL OBJ_SECT_NUMBER          SBIN WORD; /* Initially .PROC. */
       87    20799    1   DCL OBJ_SECT_TYPE_R          SBIN WORD; /* R field of ST --
       88    20800                                                                   1 => SEGMENT,
       89    20801                                                                   3 => BLOCK */
       90    20802        %DCBPTR;
       91    20826
       92    20827    1   DCL 1 P_NAME_HEAD,
       93    20828    1         2 SIZE UBIN HALF UNAL,
       94    20829    1         2 TEXT CHAR(%(LENGTHC(%DEFAULT_PROG_NAME))) UNAL;
       95    20830
       96    20831    1   DCL SECTIONS_ALLOCATED SBIN WORD;
       97    20832
       98    20833    1   DCL SECTION$ PTR;
       99    20834    1   DCL TYPE SBIN WORD;
      100    20835
      101    20836    1   DCL STATEMENT_TYPE SBIN WORD;
      102    20837
      103    20838    1   DCL LOBJ$ PTR;
      104    20839    1   DCL SV_LOBJ$ PTR;
      105    20840    1   DCL SV_EIS_BUFFER_LEN SBIN;
      106    20841
      107    20842    1   DCL CURRENT_SCOPE$ PTR;
      108    20843    1   DCL NEW_SCOPE$ PTR;
      109    20844    1   DCL LOGICAL_BLOCK_COUNT SBIN WORD;
      110    20845        %EJECT;
PL6.E3A0      #001=Z9IO$OUTPUT_OU File=Z9IO.:Z8A6TSI                             SAT 08/09/97 14:02 Page:4
      111    20846        /*------------------*/
      112    20847    1     SPECIFY_OU_SECTION : PROC (SECTION$);
      113    20848        /*------------------*/
      114    20849
      115    20850        /*I*
      116    20851               NAME: SPECIFY_OU_SECTION
      117    20852        DESCRIPTION:
      118    20853                  Accept a pointer to a block ,segment, or symref symbol
      119    20854                  table item and enter that data into the appropriate
      120    20855                  OU section or external reference table.
      121    20856        */
      122    20857
      123    20858        %B$SECTIONSUBS;
      124    20873
      125    20874    2   DCL SECTION$ PTR;      /* Pointer to ST item */
      126    20875    2   DCL EREF_INDEX SBIN WORD;     /* External reference table index*/
      127    20876
      128    20877    2   DCL 01 P_SECTION_UTS_ZERO CONSTANT,
      129    20878    2          02  ZERO BIT(1) UNAL INIT(TRUE),
      130    20879    2          02  UTS  BIT(1) UNAL INIT(FALSE),
      131    20880    2          02  *    BIT(6) UNAL INIT(FALSE);
      132    20881
      133    20882    2   DCL SECT_NAME_INDEX SBIN WORD;
      134    20883         %EJECT;
PL6.E3A0      #001=Z9IO$OUTPUT_OU File=Z9IO.:Z8A6TSI                             SAT 08/09/97 14:02 Page:5
      135    20884        /*+++++++++++++++++++*/
      136    20885    2     SETUP_BLOCK_SEGMENT: PROC (TYPE);
      137    20886        /*+++++++++++++++++++*/
      138    20887
      139    20888    3     DCL TYPE SBIN;  /* Section type code */
      140    20889
      141    20890
      142    20891    3       CALL XUO$DNAME (SECTION$->ST.DNT$->DNT.TEXT,
      143    20892    3                       SECT_NAME_INDEX);
      144    20893
      145    20894    4       DO SELECT(TYPE);
      146    20895
      147    20896    4         SELECT(%DATASECTION, %ROSECTION);
      148    20897
      149    20898    4           CALL XUO$SECTBUILD (TYPE,
      150    20899    4                               SECT_NAME_INDEX,
      151    20900    4                               SECTIONS_ALLOCATED,
      152    20901    4                               P_SECTION_UTS_ZERO,   /* Initialize with zeroes */
      153    20902    4                               ,   /* Even word starting location */
      154    20903    4                              )   /* NSAB reserved for future use */
      155    20904    4               WHENALTRETURN
      156    20905    5                     DO;
      157    20906    5                       CALL Z8AE$ERROR(%E$ANNOTATOR_ABORT);
      158    20907    5                     END;
      159    20908
      160    20909    4         SELECT(ELSE);
      161    20910
      162    20911    4           CALL XUO$SECTBUILD (TYPE,
      163    20912    4                               SECT_NAME_INDEX,
      164    20913    4                               SECTIONS_ALLOCATED,
      165    20914    4                               ,   /* Initialize with zeroes */
      166    20915    4                               ,   /* Even word starting location */
      167    20916    4                              )   /* NSAB reserved for future use */
      168    20917    4               WHENALTRETURN
      169    20918    5                     DO;
      170    20919    5                       CALL Z8AE$ERROR(%E$ANNOTATOR_ABORT);
      171    20920    5                     END;
PL6.E3A0      #001=Z9IO$OUTPUT_OU File=Z9IO.:Z8A6TSI                             SAT 08/09/97 14:02 Page:6
      172    20921    4       END;  /* Do select */
      173    20922
      174    20923    3       CALL XUO$SECTSIZE (SECTIONS_ALLOCATED,
      175    20924    3                              BINBIT(SECTION$ -> BLOCK.SIZE, 36))
      176    20925    3           WHENALTRETURN
      177    20926    4                 DO;
      178    20927    4                   CALL Z8AE$ERROR(%E$ANNOTATOR_ABORT);
      179    20928    4                 END;
      180    20929            /* There is no need to CALL XUO$SECTNAME, since the section name is
      181    20930               passed to XUO$SECTBUILD. */
      182    20931
      183    20932    3       SECTION$ -> ST.OU_INDEX = SECTIONS_ALLOCATED;
      184    20933
      185    20934    3   END SETUP_BLOCK_SEGMENT;
      186    20935        %EJECT;
PL6.E3A0      #001=Z9IO$OUTPUT_OU File=Z9IO.:Z8A6TSI                             SAT 08/09/97 14:02 Page:7
      187    20936    3   DO CASE (SECTION$ -> ST.ID);
      188    20937
      189    20938    3     CASE (%BLOCK);
      190    20939    3       IF SECTION$ = COMCOM.BLOCK$ THEN
      191    20940    3         CALL SETUP_BLOCK_SEGMENT(%DATASECTION);
      192    20941    3       ELSE
      193    20942    3         CALL SETUP_BLOCK_SEGMENT(%LCOMSECTION);
      194    20943
      195    20944    3     CASE (%SEGMENT);
      196    20945    3       CALL SETUP_BLOCK_SEGMENT(%CODESECTION);
      197    20946
      198    20947
      199    20948    3     CASE (%SYMREF_);
      200    20949
      201    20950    3       CALL XUO$RNAME (SECTION$ -> ST.DNT$ -> DNT.TEXT,
      202    20951    3                      SECT_NAME_INDEX);
      203    20952
      204    20953    3       CALL XUO$EREF (SECT_NAME_INDEX,
      205    20954    3                      '0'B,        /* PRIMARY REFERENCE */
      206    20955    3                      '0'B,          /* No altret */
      207    20956    3                      '0'B,         /* NO ARG CHECK */
      208    20957    3                      0,            /* STD CP6 callable procedure */
      209    20958    3                      0,             /* no args */
      210    20959    3                      EREF_INDEX);    /* ENTREF table index */
      211    20960
      212    20961    3       SECTION$ -> ST.OU_INDEX = EREF_INDEX;
      213    20962
      214    20963    3     CASE (%DCB_);
      215    20964
      216    20965    3       CALL SETUP_BLOCK_SEGMENT(%DCBSECTION);
      217    20966
      218    20967
      219    20968    3   END;  /* case on ST.ID */
      220    20969
      221    20970    2   END SPECIFY_OU_SECTION;
      222    20971        %EJECT;
PL6.E3A0      #001=Z9IO$OUTPUT_OU File=Z9IO.:Z8A6TSI                             SAT 08/09/97 14:02 Page:8
      223    20972        /*-----------*/
      224    20973    1     INIT_OU_GEN : PROC ALTRET;
      225    20974        /*-----------*/
      226    20975
      227    20976        /*I*
      228    20977               NAME: INIT_OU_GEN
      229    20978        DESCRIPTION: Initalize OU generation by calling the appropriate
      230    20979                       XUO routines.
      231    20980        */
      232    20981
      233    20982    2   DCL Z9AE$ISSUE_SYSTEM_ERROR ENTRY(2);
      234    20983
      235    20984    2   DCL P_OPERND_TYPE     UBIN;
      236    20985    2   DCL SYMDEF$            PTR;
      237    20986    2   DCL START_OFFSET UBIN;
      238    20987    2   DCL 1 VECT             DALIGNED,
      239    20988    2         2  VECTOR_       BIT(72)  UNAL,
      240    20989    2         2  INFO   REDEF VECTOR_ UNAL,
      241    20990    2           3 BOUND_       UBIN (18)  UNAL,
      242    20991    2           3 *            BIT  (54)  UNAL;
      243    20992    2   DCL SEC_COUNT          SBIN;
      244    20993
      245    20994        %FPT_FDS (FPTN = FPT_FDS, STCLASS = AUTO);
      246    21009        %EJECT;
PL6.E3A0      #001=Z9IO$OUTPUT_OU File=Z9IO.:Z8A6TSI                             SAT 08/09/97 14:02 Page:9
      247    21010        /*+++++++++++++*/
      248    21011    2     SECTION_COUNT :  PROC  ( COUNT );                 /*#30694*/
      249    21012        /*+++++++++++++*/
      250    21013
      251    21014    3   DCL COUNT      SBIN;
      252    21015    3   DCL SECTION$   PTR;
      253    21016
      254    21017    3   COUNT = COMCOM.SEGMENTC;
      255    21018    3   SECTION$ = COMCOM.BLOCK$;
      256    21019
      257    21020    4   DO WHILE SECTION$ ~= ADDR(NIL);
      258    21021
      259    21022    4     COUNT = COUNT + 1;
      260    21023    4     SECTION$ = SECTION$ -> BLOCK.NEXT;
      261    21024
      262    21025    4   END;
      263    21026
      264    21027    3   END SECTION_COUNT;
      265    21028        %EJECT;
PL6.E3A0      #001=Z9IO$OUTPUT_OU File=Z9IO.:Z8A6TSI                             SAT 08/09/97 14:02 Page:10
      266    21029    2   IF COMCOM.OB.VIRTUAL THEN
      267    21030    3     DO;    /* For saving a few pages real memory to back up the    */
      268    21031                 /* virtual memory, Z9AM$GET_VIRTUAL_SPACE reserves only */
      269    21032                 /* 12K memory for the auto storage, this 12k will be    */
      270    21033                 /* used up before phase 5, and XUO$OUINIT needs 10K real*/
      271    21034                 /* space, so, some space is freed from the auto segment.*/
      272    21035
      273    21036    3       FPT_FDS.V_ = VECTOR(FPT_FDS.V);
      274    21037    3       FPT_FDS.RESULTS_ = VECTOR (VECT.VECTOR_);
      275    21038    3       FPT_FDS.V.AUTOSEG# = '1'B;
      276    21039    3       FPT_FDS.V.SEGSIZE# = 0;
      277    21040
      278    21041    3       CALL M$FDS (FPT_FDS);
      279    21042
      280    21043    3       IF VECT.INFO.BOUND_ > 3071 THEN
      281    21044    4         DO;
      282    21045    4           FPT_FDS.V.SEGSIZE# = VECT.INFO.BOUND_ - 3071;
      283    21046
      284    21047    4           CALL M$FDS (FPT_FDS);
      285    21048    4         END;
      286    21049    3     END;
      287    21050
      288    21051    2    CALL SECTION_COUNT( SEC_COUNT );                   /*#30694*/
      289    21052    2   SECTIONS_ALLOCATED = 0;
      290    21053    2   OBJ_SECT_NUMBER = 0;
      291    21054    2   OBJ_SECT_TYPE_R = 1;
      292    21055    2   START_OFFSET = 0;
      293    21056    2   COMCOM.CURRENT.LINE = 0;
      294    21057    2   COMCOM.CURRENT.COLUMN = 0;
      295    21058
      296    21059    2   CALL XUO$BUFINIT(,,SEC_COUNT,,,,,,,,,COMCOM.LOGICAL_BLOCK_CNT,,,,,3);
      297    21060
      298    21061    2   IF COMCOM.IDS_SUB_SCHEMA = %TRUE  THEN
      299    21062    2       CALL XUO$OUINIT ( Z9A8$M$OU#,
      300    21063    2                         P_OU_CLOSE_REQUIRED,
      301    21064    2                         P_SCHEMA_REQUIRED_FLAG,
      302    21065    2                         P_COMPILER_ID,
PL6.E3A0      #001=Z9IO$OUTPUT_OU File=Z9IO.:Z8A6TSI                             SAT 08/09/97 14:02 Page:11
      303    21066    2                         P_VERSION,
      304    21067    2                         P_LIBRARY_NAME,
      305    21068    2                         COMCOM.COMPILE.UTS,
      306    21069    2                         ENTADDR(Z9AE$ISSUE_SYSTEM_ERROR),
      307    21070    2                         P_WORDSIZE,
      308    21071    2                         TRUE, /* backtracking for XUO$PRGM allowed */
      309    21072    2                         IDS_LIBRARY_NAME )
      310    21073
      311    21074    2           WHENALTRETURN
      312    21075    3                 DO;
      313    21076    3                   CALL Z8AE$ERROR(%E$ANNOTATOR_ABORT);
      314    21077    3                   ALTRETURN; /* Abandom attempt to generate OU */ /*#35094*/
      315    21078    3                 END;
      316    21079
      317    21080    2   ELSE
      318    21081    2       CALL XUO$OUINIT ( Z9A8$M$OU#,
      319    21082    2                         P_OU_CLOSE_REQUIRED,
      320    21083    2                         P_SCHEMA_REQUIRED_FLAG,
      321    21084    2                         P_COMPILER_ID,
      322    21085    2                         P_VERSION,
      323    21086    2                         P_LIBRARY_NAME,
      324    21087    2                         COMCOM.COMPILE.UTS,
      325    21088    2                         ENTADDR(Z9AE$ISSUE_SYSTEM_ERROR),
      326    21089    2                         P_WORDSIZE,
      327    21090    2                         TRUE, /* backtracking for XUO$PRGM allowed */
      328    21091    2                          /* No alternate shared lib */ )
      329    21092
      330    21093    2           WHENALTRETURN
      331    21094    3                 DO;
      332    21095    3                   CALL Z8AE$ERROR(%E$ANNOTATOR_ABORT);
      333    21096    3                   ALTRETURN; /* Abandom attempt to generate OU */ /*#35094*/
      334    21097    3                 END;
      335    21098
      336    21099        /*
      337    21100           If there is a main program in the source file, then
      338    21101           the OU we create will be a main prog.  To find this
      339    21102           we walk the symdef chain for a main_program bit set.
PL6.E3A0      #001=Z9IO$OUTPUT_OU File=Z9IO.:Z8A6TSI                             SAT 08/09/97 14:02 Page:12
      340    21103        */
      341    21104
      342    21105    2   SYMDEF$ = COMCOM.SYMDEF$;
      343    21106
      344    21107    2   P_OPERND_TYPE = 1; /* Section */
      345    21108
      346    21109    3   DO WHILE (SYMDEF$ ~= ADDR(NIL));
      347    21110    3     IF SYMDEF$ -> SYMDEF_.B.MAIN_PROGRAM THEN
      348    21111    3       EXIT;
      349    21112
      350    21113    3     SYMDEF$ = SYMDEF$ -> SYMDEF_.NEXT;
      351    21114    3   END; /* While */
      352    21115
      353    21116    2   IF SYMDEF$ = ADDR(NIL) THEN
      354    21117    2     P_OPERND_TYPE = 0; /* Not a main program */
      355    21118    2     ELSE START_OFFSET = SYMDEF$ -> SYMDEF_.SA; /* Main program entry address */
      356    21119
      357    21120    2   CALL XUO$HEADSTART (P_OPERND_TYPE,
      358    21121    2                       0,   /* P_OPERAND = 0 */
      359    21122    2                       START_OFFSET);  /* P_OFFSET = 0 or main program start address */
      360    21123
      361    21124    2   IF COMCOM.OU_EXTERNAL_NAME$ ~= ADDR(NIL) THEN
      362    21125    2       CALL XUO$HEADNAME (COMCOM.OU_EXTERNAL_NAME$ -> DNT.TEXT);
      363    21126    2   ELSE
      364    21127    3     DO;
      365    21128    3       P_NAME_HEAD.SIZE = LENGTHC(%DEFAULT_PROG_NAME);
      366    21129    3       P_NAME_HEAD.TEXT = %DEFAULT_PROG_NAME;
      367    21130    3       CALL XUO$HEADNAME (P_NAME_HEAD);
      368    21131    3     END;
      369    21132
      370    21133    2   SEVERITY_INDEX = COMCOM.MAX_ERROR / 100;
      371    21134    2   IF SEVERITY_OF_ERROR(SEVERITY_INDEX) < 4 THEN
      372    21135    2     CALL XUO$HEAD_SEVERITY(0);
      373    21136    2   ELSE
      374    21137    2     CALL XUO$HEAD_SEVERITY(11);
      375    21138
      376    21139    2   CURRENT_SCOPE$ = COMCOM.FIRST_PROC$;
PL6.E3A0      #001=Z9IO$OUTPUT_OU File=Z9IO.:Z8A6TSI                             SAT 08/09/97 14:02 Page:13
      377    21140
      378    21141    2   LOGICAL_BLOCK_COUNT = 0;
      379    21142
      380    21143    2   END INIT_OU_GEN;
      381    21144        %EJECT;
PL6.E3A0      #001=Z9IO$OUTPUT_OU File=Z9IO.:Z8A6TSI                             SAT 08/09/97 14:02 Page:14
      382    21145        /*-----------------*/
      383    21146    1     INIT_ALL_SECTIONS : PROC;
      384    21147        /*-----------------*/
      385    21148
      386    21149        /*I*
      387    21150               NAME: INIT_ALL_SECTIONS
      388    21151        DESCRIPTION: Initialize XUO tables by entering all COBOL
      389    21152                       sections and data blocks into tables.  SPECIFY_OU_SECTION
      390    21153                       is called.
      391    21154        */
      392    21155
      393    21156        /* Add all procedure sections to OU */
      394    21157
      395    21158    3   DO COUNT = 0 TO COMCOM.SEGMENTC - 1;
      396    21159    3     CALL SPECIFY_OU_SECTION (COMCOM.SEGMENT$(COUNT));
      397    21160    3   END; /* do */
      398    21161
      399    21162        /* Add all data blocks to OU */
      400    21163
      401    21164    2   SECTION$ = COMCOM.BLOCK$;
      402    21165    3   DO WHILE (SECTION$ ~= ADDR(NIL));
      403    21166    3     CALL SPECIFY_OU_SECTION (SECTION$);
      404    21167    3     SECTION$ = SECTION$ -> BLOCK.NEXT;
      405    21168    3   END;  /* do while */
      406    21169        /* Add all SYMREF's to OU */
      407    21170
      408    21171    2   SECTION$ = COMCOM.SYMREF$;
      409    21172
      410    21173    3   DO WHILE (SECTION$ ~= ADDR(NIL));
      411    21174    3     CALL SPECIFY_OU_SECTION (SECTION$);
      412    21175    3     SECTION$ = SECTION$ -> SYMREF_.NEXT;
      413    21176    3   END; /* While */
      414    21177
      415    21178    2   END INIT_ALL_SECTIONS;
      416    21179        %EJECT;
PL6.E3A0      #001=Z9IO$OUTPUT_OU File=Z9IO.:Z8A6TSI                             SAT 08/09/97 14:02 Page:15
      417    21180        /*------------------*/
      418    21181    1     ENTER_SYMDEF_NAMES : PROC;
      419    21182        /*------------------*/
      420    21183
      421    21184             %SUB_CST;   /* Subs for CALL_TYPE found in B$OBJECT_C */
      422    21200
      423    21201    2        DCL SYMDEF$       PTR;
      424    21202    2        DCL PRIMARY_NAME  BIT (1);
      425    21203    2        DCL CALL_TYPE     UBIN;
      426    21204    2        DCL NUMBER_ARGUMENTS UBIN;
      427    21205    2        DCL SECTION_OFFSET   UBIN;
      428    21206
      429    21207
      430    21208    2        SYMDEF$ = COMCOM.SYMDEF$;
      431    21209
      432    21210    3        DO WHILE (SYMDEF$ ~= ADDR(NIL));
      433    21211
      434    21212    3          CALL XUO$DNAME (SYMDEF$ -> SYMDEF_.DNT$ -> DNT.TEXT,
      435    21213    3                          PROG_NAME_POINTER);
      436    21214
      437    21215    3          IF COMCOM.OU_EXTERNAL_NAME$ = SYMDEF$ -> SYMDEF_.DNT$ THEN
      438    21216    4            DO;
      439    21217    4              PRIMARY_NAME = TRUE;
      440    21218
      441    21219    4            END;
      442    21220    3          ELSE
      443    21221    3            PRIMARY_NAME = FALSE;
      444    21222
      445    21223    3          IF SYMDEF$ -> SYMDEF_.B.MAIN_PROGRAM THEN
      446    21224    3            CALL_TYPE = %MAIN#;
      447    21225    3          ELSE
      448    21226    3            CALL_TYPE = %STD#;
      449    21227
      450    21228    3          IF SYMDEF$ -> SYMDEF_.ARGLIST$ = ADDR(NIL) THEN
      451    21229    3            NUMBER_ARGUMENTS = 0;
      452    21230    3          ELSE
      453    21231    3            NUMBER_ARGUMENTS = SYMDEF$ -> SYMDEF_.ARGLIST$ -> ARGLIST.N - 1;
PL6.E3A0      #001=Z9IO$OUTPUT_OU File=Z9IO.:Z8A6TSI                             SAT 08/09/97 14:02 Page:16
      454    21232
      455    21233    3          SECTION_OFFSET = SYMDEF$ -> SYMDEF_.SA;
      456    21234
      457    21235    3          CALL XUO$EDEF ( 0,            /* Section */ /*N* Consider segmentation */
      458    21236    3                          SECTION_OFFSET,
      459    21237    3                          PROG_NAME_POINTER,
      460    21238    3                          PRIMARY_NAME,
      461    21239    3                          '0'B,         /* No altreturn */
      462    21240    3                          '1'B,         /* No arg check */
      463    21241    3                          CALL_TYPE,
      464    21242    3                          NUMBER_ARGUMENTS);
      465    21243
      466    21244    3          SYMDEF$ = SYMDEF$ -> SYMDEF_.NEXT;
      467    21245
      468    21246    3        END; /* While */
      469    21247
      470    21248    2   END ENTER_SYMDEF_NAMES;
      471    21249        %EJECT;
PL6.E3A0      #001=Z9IO$OUTPUT_OU File=Z9IO.:Z8A6TSI                             SAT 08/09/97 14:02 Page:17
      472    21250        /*------------------*/
      473    21251    1     OPEN_LOGICAL_BLOCK : PROC (PROC$);
      474    21252        /*------------------*/
      475    21253
      476    21254        /*I*
      477    21255                NAME: OPEN_LOGICAL_BLOCK
      478    21256        DESCRIPTION: Accept a pointer (PROC$) to a PROC_ item.  Enter the
      479    21257                     name of the PROC_ item in debug schema.  Allocate
      480    21258                     a logical block and put all the symbols from the
      481    21259                     ST items in the PROC_ item's scope into the schema.
      482    21260                     If the PROC_ item is for an internal procedure, then
      483    21261                     create an INTNTRY schema record for the item and all
      484    21262                     its entry points.
      485    21263        */
      486    21264    2       DCL PROC$ PTR;
      487    21265
      488    21266    2       DCL LINE_START UBIN WORD;
      489    21267    2       DCL LEXICAL_LEVEL UBIN WORD;
      490    21268    2       DCL LBLK_NAME_POINTER SBIN WORD;
      491    21269    2       DCL LOG_BLK_NUMBER SBIN;
      492    21270
      493    21271    2       DCL P$ PTR;
      494    21272    2       DCL PRIMARY_NAME_FLAG BOOLEAN;
      495    21273    2       DCL NUMBER_OF_ARGS UBIN;
      496    21274    2       DCL SECTION_OFFSET SBIN;
      497    21275
      498    21276    2       CALL XUO$DBGNAME (PROC$ -> PROC_.PROC_DEF$ -> SYMDEF_.DNT$ ->
      499    21277    2                                    DNT.TEXT,
      500    21278    2                        LBLK_NAME_POINTER);
      501    21279
      502    21280    2       CALL XUO$LOGBLKALLOC (P_LOGBLK_NUMBER)
      503    21281    2          WHENALTRETURN
      504    21282    3                 DO;
      505    21283    3                   CALL Z8AE$ERROR(%E$ANNOTATOR_ABORT);
      506    21284    3                 END;
      507    21285
      508    21286    2       LOG_BLK_NUMBER = P_LOGBLK_NUMBER;
PL6.E3A0      #001=Z9IO$OUTPUT_OU File=Z9IO.:Z8A6TSI                             SAT 08/09/97 14:02 Page:18
      509    21287
      510    21288    2       LOGICAL_BLOCK_COUNT = LOGICAL_BLOCK_COUNT + 1;
      511    21289
      512    21290    2       CALL XUO$VREBLNUM (P_VREBL_NUMBER);
      513    21291    2       CALL XUO$LOGBLKVREBLINIT (P_LOGBLK_NUMBER,
      514    21292    2                                 P_VREBL_NUMBER)
      515    21293    2          WHENALTRETURN
      516    21294    3                 DO;
      517    21295    3                   CALL Z8AE$ERROR(%E$ANNOTATOR_ABORT);
      518    21296    3                 END;
      519    21297
      520    21298    2       CALL Z9IO$SCAN_SYMBOL_TABLE(PROC$);
      521    21299
      522    21300    2       CALL XUO$VREBLNUM (P_VREBL_NUMBER);
      523    21301
      524    21302    2       PROC$ -> PROC_.LOG_BLK_NUMBER = LOG_BLK_NUMBER;
      525    21303
      526    21304    2       CALL XUO$LOGBLKVREBLTERM (PROC$ -> PROC_.LOG_BLK_NUMBER,
      527    21305    2                                 P_VREBL_NUMBER)
      528    21306    2          WHENALTRETURN
      529    21307    3                 DO;
      530    21308    3                   CALL Z8AE$ERROR(%E$ANNOTATOR_ABORT);
      531    21309    3                 END;
      532    21310
      533    21311    2       CALL XUO$EXSTNUM (P_EXST_NUMBER);
      534    21312
      535    21313    2       LINE_START = PROC$ -> PROC_.LINE_START;
      536    21314    2       LEXICAL_LEVEL = PROC$ -> PROC_.LEVEL;
      537    21315
      538    21316    2       CALL XUO$LOGBLKEXSTINIT (P_LOGBLK_NUMBER,
      539    21317    2                                P_EXST_NUMBER,
      540    21318    2                                LINE_START,
      541    21319    2                                LBLK_NAME_POINTER,
      542    21320    2                                LEXICAL_LEVEL)
      543    21321    2          WHENALTRETURN
      544    21322    3                 DO;
      545    21323    3                   CALL Z8AE$ERROR(%E$ANNOTATOR_ABORT);
PL6.E3A0      #001=Z9IO$OUTPUT_OU File=Z9IO.:Z8A6TSI                             SAT 08/09/97 14:02 Page:19
      546    21324    3                 END;
      547    21325
      548    21326        /* For compatibility with GCOS Object Deck generator, the above
      549    21327           code to prepare to put statement info on the Object Unit, must
      550    21328           not be executed until all variables info for the same logical
      551    21329           block has already been written. */
      552    21330    2       IF PROC$ -> PROC_.PROC_DEF$ -> ST.ID = %INTDEF    OR
      553    21331    2         (PROC$ -> PROC_.PROC_DEF$ -> ST.ID = %SYMDEF_   AND
      554    21332    2         NOT PROC$ -> PROC_.PROC_DEF$ -> SYMDEF_.B.MAIN_PROGRAM )   THEN
      555    21333    3         DO;
      556    21334    3           P$ = PROC$ -> PROC_.PROC_DEF$;
      557    21335
      558    21336    3           IF P$ -> INTDEF.ARGLIST$ = ADDR(NIL) THEN
      559    21337    3             NUMBER_OF_ARGS = 0;
      560    21338    3           ELSE
      561    21339    3             NUMBER_OF_ARGS = P$ -> INTDEF.ARGLIST$ -> ARGLIST.N - 1;
      562    21340
      563    21341    3           PRIMARY_NAME_FLAG = TRUE;
      564    21342
      565    21343    4           DO UNTIL P$ = ADDR(NIL);
      566    21344    4             SECTION_OFFSET = P$ -> INTDEF.SA;
      567    21345
      568    21346    4             CALL XUO$INTNTRY(P_LOGBLK_NUMBER,
      569    21347    4                              0,   /* SECTION NUMBER: may need update */
      570    21348    4                              SECTION_OFFSET,
      571    21349    4                              LBLK_NAME_POINTER,
      572    21350    4                              PRIMARY_NAME_FLAG,
      573    21351    4                              '0'B,   /* ALTRET FLAG */
      574    21352    4                              '1'B,   /* CHECK ARGS FLAG */
      575    21353    4                              0,      /* CALL TYPE: STD  */
      576    21354    4                              NUMBER_OF_ARGS);
      577    21355    4             PRIMARY_NAME_FLAG = FALSE;
      578    21356
      579    21357    4             P$ = P$ -> INTDEF.ENTRYS$;
      580    21358    4           END; /* Do Until */
      581    21359    3         END;
      582    21360
PL6.E3A0      #001=Z9IO$OUTPUT_OU File=Z9IO.:Z8A6TSI                             SAT 08/09/97 14:02 Page:20
      583    21361    2   END OPEN_LOGICAL_BLOCK;
      584    21362        %EJECT;
PL6.E3A0      #001=Z9IO$OUTPUT_OU File=Z9IO.:Z8A6TSI                             SAT 08/09/97 14:02 Page:21
      585    21363        /*-------------------*/
      586    21364    1     CLOSE_LOGICAL_BLOCK : PROC(PROC$);
      587    21365        /*-------------------*/
      588    21366
      589    21367        /*I*
      590    21368                NAME: CLOSE_LOGICAL_BLOCK
      591    21369        DESCRIPTION: Close the logical blocks created by OPEN_LOGICAL_BLOCK.
      592    21370                       As OPEN_LOGICAL_BLOCK is expanded, this routine
      593    21371                       must be kept in sync.
      594    21372        */
      595    21373
      596    21374    2       DCL PROC$ PTR;
      597    21375
      598    21376    2       CALL XUO$EXSTNUM (P_EXST_NUMBER);
      599    21377
      600    21378    2       CALL XUO$LOGBLKEXSTTERM (PROC$ -> PROC_.LOG_BLK_NUMBER,
      601    21379    2                                 P_EXST_NUMBER,
      602    21380    2                                 LAST_LINE_NUMBER)
      603    21381    2           WHENALTRETURN
      604    21382    3                 DO;
      605    21383    3                   CALL Z8AE$ERROR(%E$ANNOTATOR_ABORT);
      606    21384    3                 END;
      607    21385
      608    21386    2       LOGICAL_BLOCK_COUNT = LOGICAL_BLOCK_COUNT - 1;
      609    21387
      610    21388
      611    21389    2   END CLOSE_LOGICAL_BLOCK;
      612    21390        %EJECT;
PL6.E3A0      #001=Z9IO$OUTPUT_OU File=Z9IO.:Z8A6TSI                             SAT 08/09/97 14:02 Page:22
      613    21391        /*---------------------------*/
      614    21392    1     CLOSE_NESTED_LOGICAL_BLOCKS : PROC(PROC$, NEXT_SCOPE$);
      615    21393        /*---------------------------*/
      616    21394
      617    21395        /*I*
      618    21396                 NAME: CLOSE_NESTED_LOGICAL_BLOCKS
      619    21397          DESCRIPTION: Accept two pointer arguments: PROC$ and NEXT_SCOPE$.
      620    21398                       PROC$ will point to a proc item that is the inner
      621    21399                       most block of a nested block structure.  NEXT_SCOPE$
      622    21400                       points to the next block that will be opened
      623    21401                       (or it should be nil for PROC$ without brothers).
      624    21402                       This procedure will close all the open blocks with a
      625    21403                       nesting level less than or equal to the level of
      626    21404                       NEXT_SCOPE$.
      627    21405        */
      628    21406
      629    21407    2   DCL PROC$ PTR;
      630    21408    2   DCL NEXT_SCOPE$ PTR;
      631    21409    2   DCL P$ PTR;
      632    21410
      633    21411
      634    21412    2       P$ = PROC$;
      635    21413
      636    21414    3       DO WHILE (P$ -> PROC_.FATHER ~= ADDR(NIL)) AND
      637    21415    3                (P$ -> PROC_.BROTHER ~= NEXT_SCOPE$);
      638    21416    3         CALL CLOSE_LOGICAL_BLOCK(P$);
      639    21417
      640    21418    3         P$ = P$ -> PROC_.FATHER;
      641    21419    3       END; /* Do while */
      642    21420
      643    21421    2       CALL CLOSE_LOGICAL_BLOCK(P$);
      644    21422
      645    21423            /*
      646    21424                    If NEXT_SCOPE$ was nil there may still be open
      647    21425                    blocks that need to be closed.
      648    21426            */
      649    21427    3       DO WHILE (P$ -> PROC_.BROTHER = ADDR(NIL)) AND
PL6.E3A0      #001=Z9IO$OUTPUT_OU File=Z9IO.:Z8A6TSI                             SAT 08/09/97 14:02 Page:23
      650    21428    3                (P$ -> PROC_.FATHER ~= ADDR(NIL));
      651    21429    3         P$ = P$ -> PROC_.FATHER;
      652    21430    3         CALL CLOSE_LOGICAL_BLOCK(P$);
      653    21431    3       END; /* Do While */
      654    21432
      655    21433
      656    21434    2   END CLOSE_NESTED_LOGICAL_BLOCKS;
      657    21435        %EJECT;
PL6.E3A0      #001=Z9IO$OUTPUT_OU File=Z9IO.:Z8A6TSI                             SAT 08/09/97 14:02 Page:24
      658    21436        /*------------------------*/
      659    21437    1     TERMINATE_LOGICAL_BLOCKS : PROC;
      660    21438        /*------------------------*/
      661    21439
      662    21440        /*I*
      663    21441              NAME: TERMINATE_LOGICAL_BLOCKS
      664    21442        DESCRIPTION: Finish processing of logical blocks.
      665    21443        */
      666    21444
      667    21445    2       CALL XUO$LOGBLKTERM
      668    21446    2          WHENALTRETURN
      669    21447    3                 DO;
      670    21448    3                   CALL Z8AE$ERROR(%E$ANNOTATOR_ABORT);
      671    21449    3                 END;
      672    21450
      673    21451    2       IF LOGICAL_BLOCK_COUNT ~= 0 THEN
      674    21452    2         CALL Z8AE$ERROR(%E$ANNOTATOR_ABORT);
      675    21453
      676    21454    2   END TERMINATE_LOGICAL_BLOCKS;
      677    21455        %EJECT;
PL6.E3A0      #001=Z9IO$OUTPUT_OU File=Z9IO.:Z8A6TSI                             SAT 08/09/97 14:02 Page:25
      678    21456        /*-------------------*/
      679    21457    1     PROCESS_OBJECT_CODE : PROC;
      680    21458        /*--------------------*/
      681    21459
      682    21460        /*I*
      683    21461               NAME: PROCESS_OBJECT_CODE
      684    21462        DESCRIPTION: Sequence through the OBJ table and generate the OU using
      685    21463                       XUO routines.
      686    21464        */
      687    21465
      688    21466
      689    21467    2   DCL I SBIN WORD;
      690    21468    2   DCL BS_OU_INDEX SBIN;
      691    21469    2   DCL BS_OU_INDEX_TYPE SBIN;
      692    21470    2   DCL LABEL_INDEX SBIN WORD;
      693    21471    2   DCL SECT_NAME_INDEX UBIN WORD;
      694    21472    2   DCL SREF_INDEX UBIN WORD;
      695    21473
      696    21474        %DCL_EIS_BUFFER;
      697    21512
      698    21513        %EJECT;
PL6.E3A0      #001=Z9IO$OUTPUT_OU File=Z9IO.:Z8A6TSI                             SAT 08/09/97 14:02 Page:26
      699    21514        /*+++++++++++++++++++++++++*/
      700    21515    2     TRANSLATE_STATEMENT_TYPES : PROC (COBOL_TYPE, CP6_TYPE);
      701    21516        /*+++++++++++++++++++++++++*/
      702    21517
      703    21518    3     DCL COBOL_TYPE SBIN WORD;
      704    21519    3     DCL CP6_TYPE SBIN WORD;
      705    21520
      706    21521    4   DO CASE(COBOL_TYPE);
      707    21522
      708    21523    4     CASE(%S_TYPE_LABEL_DEF, %S_TYPE_VALUE_IS);
      709    21524
      710    21525    4       CP6_TYPE = %S@NULL;
      711    21526
      712    21527    4     CASE(%S_TYPE_ALTER);
      713    21528    4       CP6_TYPE = %S@ALTER;
      714    21529
      715    21530    4     CASE(%S_TYPE_CALL);
      716    21531
      717    21532    4       CP6_TYPE = %S@CALL;
      718    21533
      719    21534    4     CASE(%S_TYPE_CANCEL);
      720    21535
      721    21536    4       CP6_TYPE = %S@CANCEL;
      722    21537
      723    21538    4     CASE(%S_TYPE_ENTRY);
      724    21539
      725    21540    4       CP6_TYPE = %S@ENTRY;
      726    21541
      727    21542    4     CASE(%S_TYPE_EVALUATE);
      728    21543
      729    21544    4       CP6_TYPE = %S@EVALUATE;
      730    21545
      731    21546    4     CASE(%S_TYPE_EXIT, %S_TYPE_EXIT_PROGRAM);
      732    21547
      733    21548    4       CP6_TYPE = %S@EXIT;
      734    21549
      735    21550    4     CASE(%S_TYPE_GO_TO);
PL6.E3A0      #001=Z9IO$OUTPUT_OU File=Z9IO.:Z8A6TSI                             SAT 08/09/97 14:02 Page:27
      736    21551
      737    21552    4       CP6_TYPE = %S@GOTO;
      738    21553
      739    21554    4     CASE(%S_TYPE_IF);
      740    21555
      741    21556    4       CP6_TYPE = %S@IF;
      742    21557
      743    21558    4     CASE(%S_TYPE_INSPECT);
      744    21559
      745    21560    4       CP6_TYPE = %S@INSPECT;
      746    21561
      747    21562    4     CASE(%S_TYPE_MERGE);
      748    21563
      749    21564    4       CP6_TYPE = %S@MERGE;
      750    21565
      751    21566    4     CASE(%S_TYPE_PERFORM);
      752    21567
      753    21568    4       CP6_TYPE = %S@PERFORM;
      754    21569
      755    21570    4     CASE(%S_TYPE_PROC);
      756    21571    4       CP6_TYPE = %S@PROC;
      757    21572
      758    21573    4     CASE(%S_TYPE_RECEIVE);
      759    21574
      760    21575    4       CP6_TYPE = %S@RECEIVE;
      761    21576
      762    21577    4     CASE (%S_TYPE_RELEASE);
      763    21578
      764    21579    4       CP6_TYPE = %S@RELEASE;
      765    21580
      766    21581    4     CASE(%S_TYPE_RETURN);
      767    21582
      768    21583    4       CP6_TYPE = %S@RETURN;
      769    21584
      770    21585    4     CASE (%S_TYPE_SEND);
      771    21586
      772    21587    4       CP6_TYPE = %S@SEND;
PL6.E3A0      #001=Z9IO$OUTPUT_OU File=Z9IO.:Z8A6TSI                             SAT 08/09/97 14:02 Page:28
      773    21588
      774    21589    4     CASE(%S_TYPE_SET);
      775    21590
      776    21591    4       CP6_TYPE = %S@SET;
      777    21592
      778    21593    4     CASE(%S_TYPE_SORT);
      779    21594
      780    21595    4       CP6_TYPE = %S@SORT;
      781    21596
      782    21597
      783    21598    4     CASE(%S_TYPE_STRING);
      784    21599
      785    21600    4       CP6_TYPE = %S@STRING;
      786    21601
      787    21602    4     CASE(%S_TYPE_STOP);
      788    21603
      789    21604    4       CP6_TYPE = %S@STOP;
      790    21605
      791    21606    4     CASE(%S_TYPE_UNSTRING);
      792    21607
      793    21608    4       CP6_TYPE = %S@UNSTRING;
      794    21609
      795    21610    4     CASE(%S_TYPE_SEARCH);
      796    21611
      797    21612    4       CP6_TYPE = %S@SEARCH;
      798    21613
      799    21614    4     CASE (%S_TYPE_DML_ACCEPT, %S_TYPE_DML_CONNECT, %S_TYPE_DML_DISCONNECT,
      800    21615    4           %S_TYPE_DML_ERASE,  %S_TYPE_DML_FIND,    %S_TYPE_DML_FINISH,
      801    21616    4           %S_TYPE_DML_GET,        %S_TYPE_DML_MODIFY,      %S_TYPE_DML_READY,
      802    21617    4           %S_TYPE_DML_SET,        %S_TYPE_DML_STORE);
      803    21618
      804    21619    4       CP6_TYPE = %S@DATA_BASE;
      805    21620
      806    21621    4     CASE (%S_TYPE_ADD,  %S_TYPE_COMPUTE,  %S_TYPE_DIVIDE,  %S_TYPE_MOVE,
      807    21622    4           %S_TYPE_MULTIPLY,  %S_TYPE_SUBTRACT);
      808    21623
      809    21624    4       CP6_TYPE = %S@ASSIGNMENT;
PL6.E3A0      #001=Z9IO$OUTPUT_OU File=Z9IO.:Z8A6TSI                             SAT 08/09/97 14:02 Page:29
      810    21625
      811    21626    4     CASE(%S_TYPE_ACCEPT,  %S_TYPE_CLOSE,  %S_TYPE_DELETE,  %S_TYPE_DISPLAY,
      812    21627    4          %S_TYPE_OPEN,    %S_TYPE_PURGE,  %S_TYPE_READ,    %S_TYPE_READ_LABEL,
      813    21628    4          %S_TYPE_REWRITE,  %S_TYPE_START,  %S_TYPE_WRITE,
      814    21629    4          %S_TYPE_WRITE_LABEL);
      815    21630
      816    21631    4       CP6_TYPE = %S@I_O;
      817    21632
      818    21633    4     CASE(%S_TYPE_GENERATE, %S_TYPE_INITIATE, %S_TYPE_SUPPRESS,
      819    21634    4          %S_TYPE_TERMINATE);
      820    21635
      821    21636    4       CP6_TYPE = %S@REPORT_WRITER;
      822    21637
      823    21638    4     CASE(%S_TYPE_INITIALIZE);
      824    21639
      825    21640    4       CP6_TYPE = %S@INITIALIZE;
      826    21641
      827    21642    4     CASE(ELSE);
      828    21643
      829    21644    4       CP6_TYPE = %S@MISC;
      830    21645
      831    21646    4   END;
      832    21647
      833    21648    3   END TRANSLATE_STATEMENT_TYPES;
      834    21649        %EJECT;
PL6.E3A0      #001=Z9IO$OUTPUT_OU File=Z9IO.:Z8A6TSI                             SAT 08/09/97 14:02 Page:30
      835    21650        /*++++++++++++++++++*/
      836    21651    2     GET_SECTION_NUMBER : PROC;
      837    21652        /*++++++++++++++++++*/
      838    21653
      839    21654    3     DCL BS_ST$ PTR;
      840    21655    3     DCL I SBIN;
      841    21656
      842    21657    4     DO CASE (LOBJ$ -> OBJ_WORD.ST$ -> ST.ID);
      843    21658
      844    21659    4       CASE(%BLOCK, %SEGMENT);
      845    21660
      846    21661    4         BS_OU_INDEX = LOBJ$ -> OBJ_WORD.ST$ -> ST.OU_INDEX;
      847    21662    4         BS_OU_INDEX_TYPE = 1;
      848    21663
      849    21664    4       CASE(%SYMREF_);
      850    21665
      851    21666    4         BS_OU_INDEX = LOBJ$ -> OBJ_WORD.ST$ -> ST.OU_INDEX;
      852    21667    4         BS_OU_INDEX_TYPE = 2;
      853    21668
      854    21669    4       CASE(ELSE);
      855    21670
      856    21671    5         DO CASE(LOBJ$ -> OBJ_WORD.ST$ -> VARIABLE.R);
      857    21672
      858    21673    5           CASE(%ABSOLUTE);
      859    21674    5             CALL Z8AE$ERROR (%E$ANNOTATOR_ABORT);
      860    21675
      861    21676    5           CASE(%PROGRAM);
      862    21677
      863    21678    5             BS_OU_INDEX = COMCOM.SEGMENT$ (LOBJ$ -> OBJ_WORD.ST$ -> VARIABLE.COUNT)
      864    21679    5                               -> ST.OU_INDEX;
      865    21680    5             BS_OU_INDEX_TYPE = 1;
      866    21681
      867    21682    5           CASE(%BLOCK_);
      868    21683
      869    21684    5             BS_ST$ = COMCOM.BLOCK$;
      870    21685    6             DO I = 1 TO LOBJ$ -> OBJ_WORD.ST$ -> VARIABLE.COUNT -1;
      871    21686    6               BS_ST$ = BS_ST$ -> VARIABLE.NEXT;
PL6.E3A0      #001=Z9IO$OUTPUT_OU File=Z9IO.:Z8A6TSI                             SAT 08/09/97 14:02 Page:31
      872    21687    6             END;
      873    21688    5             BS_OU_INDEX = BS_ST$ -> ST.OU_INDEX;
      874    21689    5             BS_OU_INDEX_TYPE = 1;
      875    21690
      876    21691    5           CASE(%EXT_PROGRAM);
      877    21692
      878    21693    5             BS_ST$ = COMCOM.SYMREF$;
      879    21694    6             DO I = 1 TO LOBJ$ -> OBJ_WORD.ST$ -> VARIABLE.COUNT - 1;
      880    21695    6               BS_ST$ = BS_ST$ -> VARIABLE.NEXT;
      881    21696    6             END;
      882    21697    5             BS_OU_INDEX = BS_ST$ -> ST.OU_INDEX;
      883    21698    5             BS_OU_INDEX_TYPE = 2;
      884    21699    5         END;
      885    21700    4     END;
      886    21701
      887    21702    3   END GET_SECTION_NUMBER;
      888    21703        %EJECT;
PL6.E3A0      #001=Z9IO$OUTPUT_OU File=Z9IO.:Z8A6TSI                             SAT 08/09/97 14:02 Page:32
      889    21704        /*++++++++++*/
      890    21705    2     RELOCATION : PROC;
      891    21706        /*++++++++++*/
      892    21707
      893    21708    3     DCL SHORT_FLAG BOOLEAN;
      894    21709
      895    21710          /* Check for Half word relocation */
      896    21711
      897    21712    3     IF LOBJ$ -> OBJ_WORD.B.HALF_REL THEN
      898    21713    4       DO;
      899    21714    4         CALL GET_SECTION_NUMBER;
      900    21715    4         SHORT_FLAG = FALSE;
      901    21716
      902    21717    5         DO CASE (EIS_BUFFER_LEN);
      903    21718
      904    21719    5           CASE(0);
      905    21720    5             IF LOCAL_OBJ_WORD.AR THEN
      906    21721    5               SHORT_FLAG = TRUE;
      907    21722
      908    21723    5           CASE(1);
      909    21724    5             IF EIS_BUFFER.EWORD.INST.AR1 THEN
      910    21725    5               SHORT_FLAG = TRUE;
      911    21726
      912    21727    5           CASE(2);
      913    21728    5             IF EIS_BUFFER.EWORD.INST.AR2 THEN
      914    21729    5               SHORT_FLAG = TRUE;
      915    21730
      916    21731    5           CASE(3);
      917    21732    5             IF EIS_BUFFER.EWORD.INST.AR3 THEN
      918    21733    5               SHORT_FLAG = TRUE;
      919    21734    5         END;
      920    21735
      921    21736    4         IF SHORT_FLAG THEN
      922    21737    4           CALL XUO$RELOC (OBJ_SECT_NUMBER,
      923    21738    4                           LOBJ$ -> OBJ_WORD.OFFSET,
      924    21739    4                           BS_OU_INDEX_TYPE,
      925    21740    4                           BS_OU_INDEX,
PL6.E3A0      #001=Z9IO$OUTPUT_OU File=Z9IO.:Z8A6TSI                             SAT 08/09/97 14:02 Page:33
      926    21741    4                           1,
      927    21742    4                           3,
      928    21743    4                           17,
      929    21744    4                           , )
      930    21745    4               WHENALTRETURN
      931    21746    5                     DO;
      932    21747    5                       CALL Z8AE$ERROR(%E$ANNOTATOR_ABORT);
      933    21748    5                     END;
      934    21749    4         ELSE
      935    21750    4           CALL XUO$RELOC (OBJ_SECT_NUMBER,
      936    21751    4                           LOBJ$ -> OBJ_WORD.OFFSET,
      937    21752    4                           BS_OU_INDEX_TYPE,
      938    21753    4                           BS_OU_INDEX,
      939    21754    4                           1,
      940    21755    4                           0,
      941    21756    4                           17,
      942    21757    4                           , )
      943    21758    4               WHENALTRETURN
      944    21759    5                     DO;
      945    21760    5                       CALL Z8AE$ERROR(%E$ANNOTATOR_ABORT);
      946    21761    5                     END;
      947    21762    4       END;
      948    21763
      949    21764          /* Check for full word pointer relocation */
      950    21765
      951    21766    3     IF LOBJ$ -> OBJ_WORD.B.WORD_REL THEN
      952    21767    4       DO CASE (LOBJ$ -> OBJ_WORD.ST$ -> ST.ID);
      953    21768
      954    21769    4         CASE (%BLOCK, %SEGMENT);
      955    21770
      956    21771    4           CALL XUO$RELOC (OBJ_SECT_NUMBER,
      957    21772    4                           LOBJ$ -> OBJ_WORD.OFFSET,
      958    21773    4                           1,     /* Section */
      959    21774    4                           BINBIT(LOBJ$ -> OBJ_WORD.ST$ -> ST.OU_INDEX, 36),
      960    21775    4                           1,     /* Add relocations */
      961    21776    4                           0,      /* Word portion of pointer */
      962    21777    4                           17,
PL6.E3A0      #001=Z9IO$OUTPUT_OU File=Z9IO.:Z8A6TSI                             SAT 08/09/97 14:02 Page:34
      963    21778    4                           , )
      964    21779    4               WHENALTRETURN
      965    21780    5                     DO;
      966    21781    5                       CALL Z8AE$ERROR(%E$ANNOTATOR_ABORT);
      967    21782    5                     END;
      968    21783    4           CALL XUO$RELOC (OBJ_SECT_NUMBER,
      969    21784    4                           LOBJ$ -> OBJ_WORD.OFFSET,
      970    21785    4                           5,     /* Segid */
      971    21786    4                           BINBIT(LOBJ$ -> OBJ_WORD.ST$ -> ST.OU_INDEX, 36),
      972    21787    4                           1,     /* Add relocations */
      973    21788    4                           0,     /* Full word reloc */
      974    21789    4                           35,
      975    21790    4                           , )
      976    21791    4               WHENALTRETURN
      977    21792    5                     DO;
      978    21793    5                       CALL Z8AE$ERROR(%E$ANNOTATOR_ABORT);
      979    21794    5                     END;
      980    21795
      981    21796    4         CASE (%SYMREF_);
      982    21797
      983    21798    4           CALL XUO$RELOC (OBJ_SECT_NUMBER,
      984    21799    4                          LOBJ$ -> OBJ_WORD.OFFSET,
      985    21800    4                          2,      /* ENTREF */
      986    21801    4                          BINBIT (LOBJ$ -> OBJ_WORD.ST$ -> ST.OU_INDEX, 36),
      987    21802    4                          1,      /* ADD RELOCATION */
      988    21803    4                          0,      /* Full word relocation */
      989    21804    4                          17,
      990    21805    4                           , )
      991    21806    4               WHENALTRETURN
      992    21807    5                     DO;
      993    21808    5                       CALL Z8AE$ERROR(%E$ANNOTATOR_ABORT);
      994    21809    5                     END;
      995    21810    4           CALL XUO$RELOC (OBJ_SECT_NUMBER,
      996    21811    4                           LOBJ$ -> OBJ_WORD.OFFSET,
      997    21812    4                           5,        /* SEGID */
      998    21813    4                           BINBIT(COMCOM.SEGMENT$(0)->ST.OU_INDEX, 36),
      999    21814    4                           1,           /* Add reloc */
PL6.E3A0      #001=Z9IO$OUTPUT_OU File=Z9IO.:Z8A6TSI                             SAT 08/09/97 14:02 Page:35
     1000    21815    4                           0,
     1001    21816    4                           35,
     1002    21817    4                           ,);
     1003    21818
     1004    21819    4         CASE (%DCB_);
     1005    21820
     1006    21821    4           CALL XUO$RNAME (LOBJ$ -> OBJ_WORD.ST$ -> ST.DNT$ -> DNT.TEXT,
     1007    21822    4                           SECT_NAME_INDEX);
     1008    21823
     1009    21824    4           CALL XUO$SREF (SECT_NAME_INDEX,
     1010    21825    4                          '1'B,
     1011    21826    4                          SREF_INDEX,
     1012    21827    4                          '1'B);
     1013    21828
     1014    21829    4           CALL XUO$RELOC (OBJ_SECT_NUMBER,
     1015    21830    4                          LOBJ$ -> OBJ_WORD.OFFSET,
     1016    21831    4                          3,      /* Kludge -- SYMREF */
     1017    21832    4                          SREF_INDEX,
     1018    21833    4                          1,      /* ADD RELOCATION */
     1019    21834    4                          0,      /* Half word relocation */
     1020    21835    4                          17,
     1021    21836    4                           , )
     1022    21837    4               WHENALTRETURN
     1023    21838    5                     DO;
     1024    21839    5                       CALL Z8AE$ERROR(%E$ANNOTATOR_ABORT);
     1025    21840    5                     END;
     1026    21841
     1027    21842    4         CASE (%PARA, %SECTION, %INTDEF, %SYMDEF_,
     1028    21843                     %ST_ITEMS_WITH_STORAGE;
     1029    21855    4              );
     1030    21856
     1031    21857                /* Get block/segment for ST item */
     1032    21858
     1033    21859    4           CALL GET_SECTION_NUMBER;
     1034    21860
     1035    21861    4           CALL XUO$RELOC (OBJ_SECT_NUMBER,
     1036    21862    4                           LOBJ$ -> OBJ_WORD.OFFSET,
PL6.E3A0      #001=Z9IO$OUTPUT_OU File=Z9IO.:Z8A6TSI                             SAT 08/09/97 14:02 Page:36
     1037    21863    4                           BS_OU_INDEX_TYPE,     /* Section */
     1038    21864    4                           BS_OU_INDEX,
     1039    21865    4                           1,     /* Add relocations */
     1040    21866    4                           0,      /* Word portion of pointer */
     1041    21867    4                           17,
     1042    21868    4                           , )
     1043    21869    4               WHENALTRETURN
     1044    21870    5                     DO;
     1045    21871    5                       CALL Z8AE$ERROR(%E$ANNOTATOR_ABORT);
     1046    21872    5                     END;
     1047    21873    4           CALL XUO$RELOC (OBJ_SECT_NUMBER,
     1048    21874    4                           LOBJ$ -> OBJ_WORD.OFFSET,
     1049    21875    4                           5,     /* Segid */
     1050    21876    4                           BS_OU_INDEX,
     1051    21877    4                           1,     /* Add relocations */
     1052    21878    4                           0,     /* Full word reloc */
     1053    21879    4                           35,
     1054    21880    4                           , )
     1055    21881    4               WHENALTRETURN
     1056    21882    5                     DO;
     1057    21883    5                       CALL Z8AE$ERROR(%E$ANNOTATOR_ABORT);
     1058    21884    5                     END;
     1059    21885
     1060    21886    4         CASE (ELSE);
     1061    21887
     1062    21888    4           CALL Z8AE$ERROR(%E$ANNOTATOR_ABORT);
     1063    21889
     1064    21890    4        END;  /* case on ST.ID */
     1065    21891
     1066    21892
     1067    21893    3   END RELOCATION;
     1068    21894        %EJECT;
PL6.E3A0      #001=Z9IO$OUTPUT_OU File=Z9IO.:Z8A6TSI                             SAT 08/09/97 14:02 Page:37
     1069    21895
     1070    21896
     1071    21897    2   EIS_BUFFER_LEN = 0;
     1072    21898
     1073    21899        %TOP_OBJ(POINTER = LOBJ$);
     1074    21915
     1075    21916    3   DO WHILE LOBJ$ ~= ADDR(NIL);
     1076    21917
     1077    21918    4     DO CASE (LOBJ$ -> OBJ.ID);
     1078    21919
     1079    21920    4       CASE (%WORD);    /* Instruction */
     1080    21921
     1081    21922              %APPLY_RESOLVE_ADDRESS (@POINTER = LOBJ$);
     1082    21958
     1083    21959              %APPLY_IC (@POINTER = LOBJ$);
     1084    21998
     1085    21999
     1086    22000    4         IF LOBJ$ -> OBJ_WORD.B.BUFFER THEN
     1087    22001    5           DO;
     1088    22002    5             EIS_BUFFER.QUEUE(EIS_BUFFER_LEN) = LOBJ$ -> OBJ_WORD;
     1089    22003    5             EIS_BUFFER.QUEUE.INST(EIS_BUFFER_LEN) = BITBIN(LOCAL_OBJ_WORD);
     1090    22004    5             EIS_BUFFER_LEN = EIS_BUFFER_LEN + 1;
     1091    22005    5           END;
     1092    22006    4         ELSE
     1093    22007    4           IF EIS_BUFFER_LEN ~= 0 THEN
     1094    22008    5             DO;
     1095    22009    5               EIS_BUFFER.QUEUE(EIS_BUFFER_LEN) = LOBJ$ -> OBJ_WORD;
     1096    22010    5               EIS_BUFFER.QUEUE.INST(EIS_BUFFER_LEN) = BITBIN(LOCAL_OBJ_WORD);
     1097    22011    5               SV_EIS_BUFFER_LEN = EIS_BUFFER_LEN;
     1098    22012    5               SV_LOBJ$ = LOBJ$;
     1099    22013
     1100    22014                    /* CLEAR EIS BUFFER */
     1101    22015    6               DO EIS_BUFFER_LEN = 0 TO SV_EIS_BUFFER_LEN;
     1102    22016
     1103    22017    6                 LOBJ$ = ADDR(EIS_BUFFER.QUEUE(EIS_BUFFER_LEN));
     1104    22018    6                 LOCAL_OBJ_WORD = BINBIT(EIS_BUFFER.QUEUE.INST(EIS_BUFFER_LEN), 36);
     1105    22019
PL6.E3A0      #001=Z9IO$OUTPUT_OU File=Z9IO.:Z8A6TSI                             SAT 08/09/97 14:02 Page:38
     1106    22020    6                 CALL XUO$PRGM (OBJ_SECT_NUMBER,
     1107    22021    6                                LOBJ$ -> OBJ_WORD.OFFSET,
     1108    22022    6                                LOCAL_OBJ_WORD)
     1109    22023    6                   WHENALTRETURN
     1110    22024    7                     DO;
     1111    22025    7                       CALL Z8AE$ERROR(%E$ANNOTATOR_ABORT);
     1112    22026    7                     END;
     1113    22027
     1114    22028    6                 CALL RELOCATION;
     1115    22029    6               END;
     1116    22030
     1117    22031    5               EIS_BUFFER_LEN = 0;
     1118    22032    5               LOBJ$ = SV_LOBJ$;
     1119    22033    5             END;
     1120    22034    4           ELSE
     1121    22035    5             DO;
     1122    22036    5               CALL XUO$PRGM (OBJ_SECT_NUMBER,
     1123    22037    5                              LOBJ$ -> OBJ_WORD.OFFSET,
     1124    22038    5                              LOCAL_OBJ_WORD)
     1125    22039    5                 WHENALTRETURN
     1126    22040    6                   DO;
     1127    22041    6                     CALL Z8AE$ERROR(%E$ANNOTATOR_ABORT);
     1128    22042    6                   END;
     1129    22043    5               CALL RELOCATION;
     1130    22044    5             END;
     1131    22045
     1132    22046
     1133    22047
     1134    22048    4       CASE (%LINE);     /* Line item */
     1135    22049
     1136    22050
     1137    22051    4           IF LOBJ$ -> OBJ_LINE.TYPE ~= 0 THEN
     1138    22052    5             DO;
     1139    22053    5               COMCOM.CURRENT.LINE = LOBJ$ -> OBJ_LINE.NUMBER;
     1140    22054
     1141    22055    5               IF COMCOM.OB.DSS THEN
     1142    22056    5                IF OBJ_SECT_TYPE_R = 1 THEN  /* SEGMENT */
PL6.E3A0      #001=Z9IO$OUTPUT_OU File=Z9IO.:Z8A6TSI                             SAT 08/09/97 14:02 Page:39
     1143    22057    6                 DO;
     1144    22058    6                   CALL TRANSLATE_STATEMENT_TYPES (BINBIT(LOBJ$ -> OBJ_LINE.TYPE,36),
     1145    22059    6                                                   STATEMENT_TYPE);
     1146    22060
     1147    22061    6                   IF STATEMENT_TYPE ~= %S@NULL THEN
     1148    22062    6                       CALL XUO$EXST ( OBJ_SECT_NUMBER,
     1149    22063    6                                       LOBJ$ -> OBJ_LINE.OFFSET,
     1150    22064    6                                       -1,
     1151    22065    6                                       CURRENT_SCOPE$ -> PROC_.LOG_BLK_NUMBER,
     1152    22066    6                                       '0'B,  /* No compiler opt */
     1153    22067    6                                       STATEMENT_TYPE,
     1154    22068    6                                      LOBJ$ -> OBJ_LINE.NUMBER,
     1155    22069    6                                       '0'B,  /* No label array */
     1156    22070    6                                       0);  /* No label subscript */
     1157    22071    6                 END;
     1158    22072    5               LAST_LINE_NUMBER = LOBJ$ -> OBJ_LINE.NUMBER;
     1159    22073    5             END;
     1160    22074
     1161    22075    4       CASE (%LAB);     /* Label */
     1162    22076
     1163    22077    4           IF COMCOM.OB.DSS AND (LOBJ$ -> OBJ_LAB.ST$ ~= ADDR(NIL)) THEN
     1164    22078    4             IF NOT LOBJ$ -> OBJ_LAB.ST$ -> LABEL.B.COMPILER_CREATED THEN
     1165    22079    4               IF LOBJ$ -> OBJ_LAB.ST$ -> LABEL.R = 1
     1166    22080    4                    AND OBJ_SECT_TYPE_R = 1  THEN /* Segment */
     1167    22081    5                 DO;
     1168    22082    5                   CALL XUO$DBGNAME (LOBJ$ -> OBJ_LAB.ST$ -> LABEL.DNT$ -> DNT.TEXT,
     1169    22083    5                                      LABEL_INDEX);
     1170    22084    5                   CALL XUO$EXST (OBJ_SECT_NUMBER,
     1171    22085    5                                  BINBIT(LOBJ$ -> OBJ_LAB.ST$ -> LABEL.DESC.SA, 36),
     1172    22086    5                                  LABEL_INDEX,
     1173    22087    5                                  CURRENT_SCOPE$ -> PROC_.LOG_BLK_NUMBER,
     1174    22088    5                                  '0'B,
     1175    22089    5                                  STATEMENT_TYPE,
     1176    22090    5                                  LAST_LINE_NUMBER,
     1177    22091    5                                  '0'B,
     1178    22092    5                                  0);
     1179    22093    5                 END;
PL6.E3A0      #001=Z9IO$OUTPUT_OU File=Z9IO.:Z8A6TSI                             SAT 08/09/97 14:02 Page:40
     1180    22094
     1181    22095    4           IF LOBJ$ -> OBJ_LAB.ST$ -> SCALAR.B.ARRAY_PRESET THEN
     1182    22096    4             CALL Z8IO$PROCESS_ARRAY (LOBJ$, OBJ_SECT_NUMBER);
     1183    22097
     1184    22098    4       CASE (%ORG);     /* Org */
     1185    22099
     1186    22100    4           OBJ_SECT_NUMBER = LOBJ$ -> OBJ_ORG.ST$ -> ST.OU_INDEX;
     1187    22101    4           OBJ_SECT_TYPE_R = LOBJ$ -> OBJ_ORG.ST$ -> ST.R;
     1188    22102
     1189    22103
     1190    22104    4       CASE (%OBJ_SCOPE);   /* Scope */
     1191    22105
     1192    22106    4           NEW_SCOPE$ = LOBJ$ -> OBJ_SCOPE.PROC$;
     1193    22107
     1194    22108    4           IF CURRENT_SCOPE$ -> PROC_.SON ~= NEW_SCOPE$ THEN
     1195    22109    4             CALL CLOSE_NESTED_LOGICAL_BLOCKS(CURRENT_SCOPE$,NEW_SCOPE$);
     1196    22110
     1197    22111    4           CALL OPEN_LOGICAL_BLOCK(NEW_SCOPE$);
     1198    22112
     1199    22113    4           CURRENT_SCOPE$ = NEW_SCOPE$;
     1200    22114
     1201    22115
     1202    22116    4     END;  /* do case */
     1203    22117
     1204    22118          %STEP_OBJ (POINTER = LOBJ$);
     1205    22142
     1206    22143    3   END;  /* do while */
     1207    22144
     1208    22145    2   END PROCESS_OBJECT_CODE;
     1209    22146        %EJECT;
PL6.E3A0      #001=Z9IO$OUTPUT_OU File=Z9IO.:Z8A6TSI                             SAT 08/09/97 14:02 Page:41
     1210    22147               /* Main body of Z9IO$OUTPUT_OU */
     1211    22148
     1212    22149    1   CALL INIT_OU_GEN ALTRET(CANT_OUTPUT_OU);
     1213    22150
     1214    22151    1   CALL INIT_ALL_SECTIONS;
     1215    22152
     1216    22153    1   CALL ENTER_SYMDEF_NAMES;
     1217    22154
     1218    22155    1   IF COMCOM.OB.DSS AND CURRENT_SCOPE$ ~= ADDR(NIL) THEN
     1219    22156    1     CALL OPEN_LOGICAL_BLOCK(CURRENT_SCOPE$);
     1220    22157
     1221    22158    1   CALL PROCESS_OBJECT_CODE;
     1222    22159
     1223    22160    1   IF COMCOM.OB.DSS AND CURRENT_SCOPE$ ~= ADDR(NIL) THEN
     1224    22161    2     DO;
     1225    22162    2       CALL CLOSE_NESTED_LOGICAL_BLOCKS(CURRENT_SCOPE$, ADDR(NIL));
     1226    22163    2       CALL TERMINATE_LOGICAL_BLOCKS;
     1227    22164    2     END;
     1228    22165
     1229    22166               /* Terminate OU Generation */
     1230    22167
     1231    22168    1   CALL XUO$OUTERM;
     1232    22169
     1233    22170    1   CANT_OUTPUT_OU:
     1234    22171    1   END Z9IO$OUTPUT_OU;
     1235    22172        %EOD;

PL6.E3A0      #001=Z9IO$OUTPUT_OU File=Z9IO.:Z8A6TSI                             SAT 08/09/97 14:02 Page:42
--  Include file information  --

   XUO$ENTRIES.:LIB_E04  cannot be made into a system file and is referenced.
   Z8I_LISTING.:Z8A6TOU  cannot be made into a system file and is referenced.
   Z8I_ERR_SEV.:Z8A6TOU  cannot be made into a system file and is referenced.
   Z9I_PREPROC.:Z8A6TOU  is referenced.
   B$OBJECT_C.:LIB_E04  is referenced.
   CP_6_SUBS.:LIB_E04  is referenced.
   CP_6_C.:LIB_E04  is referenced.
   CP_6.:LIB_E04  cannot be made into a system file and is referenced.
   Z9A_FLAGS.:Z8A6TOU  is referenced.
   Z8A_SYS_FILE.:Z8A6TOU  is referenced.
   Z8E_STATEMNT.:Z8A6TOU  is referenced.
   Z9A_SUPP_MAC.:Z8A6TOU  is referenced.
   Z8A_ERR.:Z8A6TOU  cannot be made into a system file and is referenced.
   Z8A_DNT.:Z8A6TOU  cannot be made into a system file and is referenced.
   Z8A_LTS.:Z8A6TOU  cannot be made into a system file and is referenced.
   Z8A_ST.:Z8A6TOU  cannot be made into a system file and is referenced.
   Z8A_COMCOM.:Z8A6TOU  cannot be made into a system file and is referenced.
   Z8A_OBJ.:Z8A6TOU  cannot be made into a system file and is referenced.
   Z8A_ERR_NUMS.:Z8A6TOU  is referenced.
   X8A_COM_MACS.:X8A6TOU  is referenced.
   Z8A_NAMES.:Z8A6TOU  is referenced.
   Z8A_SUPP_MAC.:Z8A6TOU  is referenced.
   Z8A_DEFC.:Z8A6TOU  cannot be made into a system file and is referenced.
      No diagnostics issued in procedure Z9IO$OUTPUT_OU.

   Procedure Z9IO$OUTPUT_OU requires 1890 words for executable code.
   Procedure Z9IO$OUTPUT_OU requires 84 words of local(AUTO) storage.

PL6.E3A0      #001=Z9IO$OUTPUT_OU File=Z9IO.:Z8A6TSI                             SAT 08/09/97 14:02 Page:43

 Object Unit name= Z9IO$OUTPUT_OU                             File name= Z9IO.:Z8A6TOU
 UTS= AUG 09 '97 14:02:19.28 SAT                              Compiler= PL-6/E31         Sev=      00
 SharedLib= :SHARED_SYSTEM                                    Alt SharedLib=


    ****  Control sections  ****

 Sect   Type Bound  Init  Size OctSiz  Section name(segment info)
    0  LblCom even  none     1      1  ITERATION
    1  LblCom even  none     1      1  OBJ$
    2  LblCom even  none     1      1  PAGING_OBJ
    3  LblCom even  none     1      1  OBJ_PAGE_COUNT
    4  LblCom even  none     1      1  OBJ_FINISHED
    5  LblCom even  none     1      1  OBJ_SEG_SIZE
    6  LblCom even  none     1      1  OBJ_TOP_NEW_SEG
    7  LblCom even  none     1      1  OBJ_LAST_REGULAR_PAGE
    8  LblCom even  none     5      5  OBJ_
    9  LblCom even  none     1      1  ST$
   10  LblCom even  none     5      5  ST_
   11  LblCom even  none     1      1  LTS$
   12  LblCom even  none     5      5  LTS_
   13  LblCom even  none     1      1  DNT$
   14  LblCom even  none     5      5  DNT_
   15  LblCom even  none     1      1  DNT_BUCKET_NUMBER
   16  LblCom even  none     1      1  DNT_OF_1$
   17  LblCom even  none     1      1  ERR$
   18  LblCom even  none     1      1  ERR_HEAD
   19  LblCom even  none     1      1  ERR_TAIL
   20  LblCom even  none     1      1  MAX_ERROR_GENERATED
   21  LblCom even  none     5      5  ERR_
   22   DCB   even  none     0      0  M$UC
   23  RoData even  UTS     23     27  Z9IO$OUTPUT_OU
   24  LblCom even  none     1      1  SUB_HEADING_ADDR
   25  LblCom even  none     1      1  SUB_HEADING_LEN
   26  LblCom even  none     1      1  SUB_HEADING_ADDR1
   27  LblCom even  none     1      1  SUB_HEADING_LEN1
   28  LblCom even  none     1      1  SUB_HEADING_ADDR2
PL6.E3A0      #001=Z9IO$OUTPUT_OU File=Z9IO.:Z8A6TSI                             SAT 08/09/97 14:02 Page:44
   29  LblCom even  none     1      1  SUB_HEADING_LEN2
   30  LblCom even  none     1      1  MAX_LINES_PER_PAGE
   31  LblCom even  none     1      1  LISTING_LINES_ON_PAGE
   32  LblCom even  none     1      1  LISTING_PAGE_NUMBER
   33  LblCom even  none    28     34  PLINE
   34  LblCom even  none     1      1  PLINE_LEN
   35  LblCom even  none     1      1  P_VREBL_NUMBER
   36   Proc  even  none  1890   3542  Z9IO$OUTPUT_OU
   37  RoData even  none    71    107  Z9IO$OUTPUT_OU

    ****  Entry defs  ****

                              Check   Calling
                             calling  sequence
  Sect OctLoc Primary Altret sequence   type   Parms  Name
    36      0   yes            yes      Std        0  Z9IO$OUTPUT_OU

  ****  Entry refs  ****

         Check        Calling
        calling       sequence
Altret sequence SRef   type   Args  Name
         yes           Std       0 XUO$OUTERM
         yes           Std       2 XUO$RNAME
         yes           Std       7 XUO$EREF
         yes           Std       2 XUO$DNAME
         yes           Std      12 Z8AE$ERROR
 yes     yes           Std       6 XUO$SECTBUILD
 yes     yes           Std       2 XUO$SECTSIZE
         yes           Std      17 XUO$BUFINIT
         yes           Std       2 Z9AE$ISSUE_SYSTEM_ERROR
         yes           Std       1 XUO$HEADNAME
 yes     yes           Std      11 XUO$OUINIT
         yes           Std       3 XUO$HEADSTART
         yes           Std       1 XUO$HEAD_SEVERITY
         yes           Std       8 XUO$EDEF
         yes           Std       2 XUO$DBGNAME
PL6.E3A0      #001=Z9IO$OUTPUT_OU File=Z9IO.:Z8A6TSI                             SAT 08/09/97 14:02 Page:45
         yes           Std       1 XUO$VREBLNUM
 yes     yes           Std       5 XUO$LOGBLKEXSTINIT
 yes     yes           Std       2 XUO$LOGBLKVREBLINIT
         yes           Std       1 Z9IO$SCAN_SYMBOL_TABLE
 yes     yes           Std       1 XUO$LOGBLKALLOC
         yes           Std       1 XUO$EXSTNUM
         yes           Std       9 XUO$INTNTRY
 yes     yes           Std       2 XUO$LOGBLKVREBLTERM
 yes     yes           Std       3 XUO$LOGBLKEXSTTERM
 yes     yes           Std       0 XUO$LOGBLKTERM
         yes           Std       1 Z9HF$WRITE_OBJ_PAGE
         yes           Std       0 Z9HF$CLOSE_OBJ
         yes           Std       0 Z9HF$OPEN_OBJ_INPUT
 yes     yes           Std       0 Z9HF$READ_OBJ_PAGE
 yes     yes           Std       3 XUO$PRGM
         yes           Std       9 XUO$EXST
         yes           Std       2 Z8IO$PROCESS_ARRAY
         yes           Std       4 XUO$SREF
 yes     yes           Std       9 XUO$RELOC
                       nStd      0 X66_AUTO_0
                       nStd      0 X66_ARET

  ****  Data refs  ****

  Flags:  r = read only, s = secondary
Flgs Name                             Flgs Name                             Flgs Name
r    OBJ_STEP                              COMCOM                           r    LTS_STEP
     M$UC                             r    DEF_LISTING_SUB_HEADING          r    BLANK
r    PLINE_PTR$                            Z9A8$M$ES$                            Z9A8$M$SI$
     Z9A8$M$UI$                            Z9A8$M$SO$                            Z9A8$M$OU$
     Z9A8$M$LO$                            Z9A8$M$ME$                            Z9A8$M$DO$
     Z9A8$M$OBJFILE$                       Z9A8$M$ES#                            Z9A8$M$SI#
     Z9A8$M$UI#                            Z9A8$M$SO#                            Z9A8$M$OU#
     Z9A8$M$LO#                            Z9A8$M$ME#                            Z9A8$M$DO#
     Z9A8$M$OBJFILE#
PL6.E3A0      #001=Z9IO$OUTPUT_OU File=Z9IO.:Z8A6TSI                             SAT 08/09/97 14:02 Page:46

  ****  Segment refs  ****

  Flags:  r = read only, s = secondary
Flgs Name                             Flgs Name                             Flgs Name
     NULLSID                               ISSID
PL6.E3A0      #001=Z9IO$OUTPUT_OU File=Z9IO.:Z8A6TSI                             SAT 08/09/97 14:02 Page:47


        1        1        /*M* Z9IO Annotator Object Unit Routines */
        2        2        /*T***********************************************************/
        3        3        /*T*                                                         */
        4        4        /*T* Copyright (c) Bull HN Information Systems Inc., 1997    */
        5        5        /*T*                                                         */
        6        6        /*T***********************************************************/
        7        7
        8        8
        9        9        /*P*
       10       10               NAME: Z9IO
       11       11            PURPOSE: System dependent code to produce object unit.
       12       12        */
       13       13
       14       14
       15       15        /*D*
       16       16               NAME: Z9IO$OUTPUT_OU
       17       17        DESCRIPTION: Produce a CP6 OU from compiler tables.  The
       18       18                     monitor service routines XUO$  are used in this
       19       19                     implementation.
       20       20        */
       21       21
       22       22        Z9IO$OUTPUT_OU : PROC;

     22 36 000000   000000 700200 xent  Z9IO$OUTPUT* TSX0  ! X66_AUTO_0
        36 000001   000124 000000                    ZERO    84,0
        36 000002   003476 710000 36                 TRA     s:22149

       23       23
       24       24        %EQU PHASE = 5;
       25       25
       26       26               /* Include files */
       27       27
       28       28        %INCLUDE Z8A_DEFC;
       29       96        %INCLUDE Z8A_SUPP_MAC;
       30     2496        %INCLUDE Z8A_ERR_NUMS;
       31     3260        %INCLUDE Z8A_OBJ;
PL6.E3A0      #001=Z9IO$OUTPUT_OU File=Z9IO.:Z8A6TSI                             SAT 08/09/97 14:02 Page:48
       32     3757        %INCLUDE Z8A_COMCOM;
       33     4407        %INCLUDE Z8A_ST;
       34     8066        %INCLUDE Z8A_LTS;
       35    10143        %INCLUDE Z8A_DNT;
       36    10364        %INCLUDE Z8A_ERR;
       37    10433        %INCLUDE Z9A_SUPP_MAC;
       38    10722        %INCLUDE Z8E_STATEMNT;
       39    10791        %INCLUDE Z8A_SYS_FILE;
       40    17066        %INCLUDE B$OBJECT_C;
       41    20496        %INCLUDE Z9I_PREPROC;
       42    20516        %INCLUDE Z8I_ERR_SEV;
       43    20550        %EQU Z8I_LISTING_INIT = '0'B;
       44    20551        %INCLUDE Z8I_LISTING;
       45    20639
       46    20640               /* External References */
       47    20641
       48    20642        %INCLUDE XUO$ENTRIES;
       49    20693    1   DCL Z9IO$SCAN_SYMBOL_TABLE ENTRY(1);
       50    20694    1   DCL Z8AE$ERROR ENTRY(12);
       51    20695    1   DCL Z8IO$PROCESS_ARRAY  ENTRY (2);
       52    20696
       53    20697               /* External data */
       54    20698
       55    20699        %B$STTYPESUBS;
       56    20768
       57    20769    1   DCL P_VREBL_NUMBER           SBIN WORD EXT;
       58    20770
       59    20771    1   DCL P_OU_CLOSE_REQUIRED      BIT(1) CONSTANT INIT('1'B);
       60    20772    1   DCL P_SCHEMA_REQUIRED_FLAG   BIT(1) CONSTANT INIT('1'B);
       61    20773    1   DCL P_COMPILER_ID            UBIN WORD CONSTANT INIT(3);  /* COBOL */
       62    20774
       63    20775    1   DCL 1 P_VERSION CONSTANT,
       64    20776    1         2 LETTER     CHAR(1) INIT(%VERSION_LETTER),
       65    20777    1         2 NUMBER     UBIN BYTE UNAL INIT(%VERSION_NUMBER);
       66    20778
       67    20779    1   DCL 1 P_LIBRARY_NAME CONSTANT,
       68    20780    1         2 SIZE UBIN BYTE UNAL INIT (SIZEC (':SHARED_COBOL85')),
PL6.E3A0      #001=Z9IO$OUTPUT_OU File=Z9IO.:Z8A6TSI                             SAT 08/09/97 14:02 Page:49
       69    20781    1         2 TEXT CHAR(0) INIT(':SHARED_COBOL85');
       70    20782
       71    20783    1   DCL 1 IDS_LIBRARY_NAME  CONSTANT,
       72    20784    1         2 SIZE UBIN BYTE UNAL INIT(3),
       73    20785    1         2 TEXT CHAR(3) INIT('IDS');
       74    20786
       75    20787
       76    20788    1   DCL P_OU_UTS UBIN WORD;
       77    20789    1   DCL P_WORDSIZE               SBIN ALIGNED CONSTANT INIT(36);
       78    20790    1   DCL SEVERITY_INDEX           SBIN WORD;
       79    20791    1   DCL P_LOGBLK_NUMBER          SBIN WORD;
       80    20792    1   DCL P_EXST_NUMBER            SBIN WORD;
       81    20793    1   DCL LAST_LINE_NUMBER         SBIN WORD;
       82    20794    1   DCL COUNT                    SBIN WORD;
       83    20795    1   DCL PROG_NAME_POINTER        SBIN WORD;
       84    20796    1   DCL PROC_NAME_POINTER        SBIN WORD;
       85    20797
       86    20798    1   DCL OBJ_SECT_NUMBER          SBIN WORD; /* Initially .PROC. */
       87    20799    1   DCL OBJ_SECT_TYPE_R          SBIN WORD; /* R field of ST --
       88    20800                                                                   1 => SEGMENT,
       89    20801                                                                   3 => BLOCK */
       90    20802        %DCBPTR;
       91    20826
       92    20827    1   DCL 1 P_NAME_HEAD,
       93    20828    1         2 SIZE UBIN HALF UNAL,
       94    20829    1         2 TEXT CHAR(%(LENGTHC(%DEFAULT_PROG_NAME))) UNAL;
       95    20830
       96    20831    1   DCL SECTIONS_ALLOCATED SBIN WORD;
       97    20832
       98    20833    1   DCL SECTION$ PTR;
       99    20834    1   DCL TYPE SBIN WORD;
      100    20835
      101    20836    1   DCL STATEMENT_TYPE SBIN WORD;
      102    20837
      103    20838    1   DCL LOBJ$ PTR;
      104    20839    1   DCL SV_LOBJ$ PTR;
      105    20840    1   DCL SV_EIS_BUFFER_LEN SBIN;
PL6.E3A0      #001=Z9IO$OUTPUT_OU File=Z9IO.:Z8A6TSI                             SAT 08/09/97 14:02 Page:50
      106    20841
      107    20842    1   DCL CURRENT_SCOPE$ PTR;
      108    20843    1   DCL NEW_SCOPE$ PTR;
      109    20844    1   DCL LOGICAL_BLOCK_COUNT SBIN WORD;
      110    20845        %EJECT;
PL6.E3A0      #001=Z9IO$OUTPUT_OU File=Z9IO.:Z8A6TSI                             SAT 08/09/97 14:02 Page:51
      111    20846        /*------------------*/
      112    20847    1     SPECIFY_OU_SECTION : PROC (SECTION$);

  20847 36 000003   200034 741300       SPECIFY_OU_* STX1  ! I+1,,AUTO
        36 000004   000122 710000 36                 TRA     s:20936

      113    20848        /*------------------*/
      114    20849
      115    20850        /*I*
      116    20851               NAME: SPECIFY_OU_SECTION
      117    20852        DESCRIPTION:
      118    20853                  Accept a pointer to a block ,segment, or symref symbol
      119    20854                  table item and enter that data into the appropriate
      120    20855                  OU section or external reference table.
      121    20856        */
      122    20857
      123    20858        %B$SECTIONSUBS;
      124    20873
      125    20874    2   DCL SECTION$ PTR;      /* Pointer to ST item */
      126    20875    2   DCL EREF_INDEX SBIN WORD;     /* External reference table index*/
      127    20876
      128    20877    2   DCL 01 P_SECTION_UTS_ZERO CONSTANT,
      129    20878    2          02  ZERO BIT(1) UNAL INIT(TRUE),
      130    20879    2          02  UTS  BIT(1) UNAL INIT(FALSE),
      131    20880    2          02  *    BIT(6) UNAL INIT(FALSE);
      132    20881
      133    20882    2   DCL SECT_NAME_INDEX SBIN WORD;
      134    20883         %EJECT;
PL6.E3A0      #001=Z9IO$OUTPUT_OU File=Z9IO.:Z8A6TSI                             SAT 08/09/97 14:02 Page:52
      135    20884        /*+++++++++++++++++++*/
      136    20885    2     SETUP_BLOCK_SEGMENT: PROC (TYPE);

  20885 36 000005   200040 741300       SETUP_BLOCK* STX1  ! SECT_NAME_INDEX+1,,AUTO

      137    20886        /*+++++++++++++++++++*/
      138    20887
      139    20888    3     DCL TYPE SBIN;  /* Section type code */
      140    20889
      141    20890
      142    20891    3       CALL XUO$DNAME (SECTION$->ST.DNT$->DNT.TEXT,

  20891 36 000006   200035 470500                    LDP0    @SECTION$,,AUTO
        36 000007   000000 471500                    LDP1    0,,PR0
        36 000010   100006 473500                    LDP3    6,,PR1
        36 000011   200037 634500                    EPPR4   SECT_NAME_INDEX,,AUTO
        36 000012   200077 454500                    STP4    SECTION_OFFSET+2,,AUTO
        36 000013   300004 631500                    EPPR1   4,,PR3
        36 000014   200076 451500                    STP1    SECTION_OFFSET+1,,AUTO
        36 000015   200076 630500                    EPPR0   SECTION_OFFSET+1,,AUTO
        36 000016   000000 631400 37                 EPPR1   0
        36 000017   000000 701000 xent               TSX1    XUO$DNAME
        36 000020   000000 011000                    NOP     0

      143    20892    3                       SECT_NAME_INDEX);
      144    20893
      145    20894    4       DO SELECT(TYPE);

  20894 36 000021   200041 470500                    LDP0    @TYPE,,AUTO
        36 000022   000000 236100                    LDQ     0,,PR0
        36 000023   000000 116003                    CMPQ    0,DU
        36 000024   000053 604000 36                 TMI     s:20911
        36 000025   000031 600000 36                 TZE     s:20898
        36 000026   000006 116007                    CMPQ    6,DL
        36 000027   000053 601000 36                 TNZ     s:20911
        36 000030   000031 710000 36                 TRA     s:20898

PL6.E3A0      #001=Z9IO$OUTPUT_OU File=Z9IO.:Z8A6TSI                             SAT 08/09/97 14:02 Page:53
      146    20895
      147    20896    4         SELECT(%DATASECTION, %ROSECTION);

      148    20897
      149    20898    4           CALL XUO$SECTBUILD (TYPE,

  20898 36 000031   000002 236000 37                 LDQ     2
        36 000032   200101 756100                    STQ     SECTION_OFFSET+4,,AUTO
        36 000033   200020 631500                    EPPR1   SECTIONS_ALLOCATED,,AUTO
        36 000034   200100 451500                    STP1    SECTION_OFFSET+3,,AUTO
        36 000035   200037 633500                    EPPR3   SECT_NAME_INDEX,,AUTO
        36 000036   200077 453500                    STP3    SECTION_OFFSET+2,,AUTO
        36 000037   200041 236100                    LDQ     @TYPE,,AUTO
        36 000040   200076 756100                    STQ     SECTION_OFFSET+1,,AUTO
        36 000041   200076 630500                    EPPR0   SECTION_OFFSET+1,,AUTO
        36 000042   000001 631400 37                 EPPR1   1
        36 000043   000000 701000 xent               TSX1    XUO$SECTBUILD
        36 000044   000046 702000 36                 TSX2    s:20906
        36 000045   000052 710000 36                 TRA     s:20907

      150    20899    4                               SECT_NAME_INDEX,
      151    20900    4                               SECTIONS_ALLOCATED,
      152    20901    4                               P_SECTION_UTS_ZERO,   /* Initialize with zeroes */
      153    20902    4                               ,   /* Even word starting location */
      154    20903    4                              )   /* NSAB reserved for future use */
      155    20904    4               WHENALTRETURN
      156    20905    5                     DO;

      157    20906    5                       CALL Z8AE$ERROR(%E$ANNOTATOR_ABORT);

  20906 36 000046   000005 630400 37                 EPPR0   5
        36 000047   000003 631400 37                 EPPR1   3
        36 000050   000000 701000 xent               TSX1    Z8AE$ERROR
        36 000051   000000 011000                    NOP     0

      158    20907    5                     END;

PL6.E3A0      #001=Z9IO$OUTPUT_OU File=Z9IO.:Z8A6TSI                             SAT 08/09/97 14:02 Page:54
  20907 36 000052   000072 710000 36                 TRA     s:20923

      159    20908
      160    20909    4         SELECT(ELSE);

      161    20910
      162    20911    4           CALL XUO$SECTBUILD (TYPE,

  20911 36 000053   200020 631500                    EPPR1   SECTIONS_ALLOCATED,,AUTO
        36 000054   200100 451500                    STP1    SECTION_OFFSET+3,,AUTO
        36 000055   200037 633500                    EPPR3   SECT_NAME_INDEX,,AUTO
        36 000056   200077 453500                    STP3    SECTION_OFFSET+2,,AUTO
        36 000057   200041 236100                    LDQ     @TYPE,,AUTO
        36 000060   200076 756100                    STQ     SECTION_OFFSET+1,,AUTO
        36 000061   200076 630500                    EPPR0   SECTION_OFFSET+1,,AUTO
        36 000062   000006 631400 37                 EPPR1   6
        36 000063   000000 701000 xent               TSX1    XUO$SECTBUILD
        36 000064   000066 702000 36                 TSX2    s:20919
        36 000065   000072 710000 36                 TRA     s:20923

      163    20912    4                               SECT_NAME_INDEX,
      164    20913    4                               SECTIONS_ALLOCATED,
      165    20914    4                               ,   /* Initialize with zeroes */
      166    20915    4                               ,   /* Even word starting location */
      167    20916    4                              )   /* NSAB reserved for future use */
      168    20917    4               WHENALTRETURN
      169    20918    5                     DO;

      170    20919    5                       CALL Z8AE$ERROR(%E$ANNOTATOR_ABORT);

  20919 36 000066   000005 630400 37                 EPPR0   5
        36 000067   000003 631400 37                 EPPR1   3
        36 000070   000000 701000 xent               TSX1    Z8AE$ERROR
        36 000071   000000 011000                    NOP     0

      171    20920    5                     END;

PL6.E3A0      #001=Z9IO$OUTPUT_OU File=Z9IO.:Z8A6TSI                             SAT 08/09/97 14:02 Page:55
      172    20921    4       END;  /* Do select */

      173    20922
      174    20923    3       CALL XUO$SECTSIZE (SECTIONS_ALLOCATED,

  20923 36 000072   200035 470500                    LDP0    @SECTION$,,AUTO
        36 000073   000000 471500                    LDP1    0,,PR0
        36 000074   100002 236100                    LDQ     2,,PR1
        36 000075   000022 772000                    QRL     18
        36 000076   200076 756100                    STQ     SECTION_OFFSET+1,,AUTO
        36 000077   200076 631500                    EPPR1   SECTION_OFFSET+1,,AUTO
        36 000100   200101 451500                    STP1    SECTION_OFFSET+4,,AUTO
        36 000101   200020 633500                    EPPR3   SECTIONS_ALLOCATED,,AUTO
        36 000102   200100 453500                    STP3    SECTION_OFFSET+3,,AUTO
        36 000103   200100 630500                    EPPR0   SECTION_OFFSET+3,,AUTO
        36 000104   000000 631400 37                 EPPR1   0
        36 000105   000000 701000 xent               TSX1    XUO$SECTSIZE
        36 000106   000110 702000 36                 TSX2    s:20927
        36 000107   000114 710000 36                 TRA     s:20932

      175    20924    3                              BINBIT(SECTION$ -> BLOCK.SIZE, 36))
      176    20925    3           WHENALTRETURN
      177    20926    4                 DO;

      178    20927    4                   CALL Z8AE$ERROR(%E$ANNOTATOR_ABORT);

  20927 36 000110   000005 630400 37                 EPPR0   5
        36 000111   000003 631400 37                 EPPR1   3
        36 000112   000000 701000 xent               TSX1    Z8AE$ERROR
        36 000113   000000 011000                    NOP     0

      179    20928    4                 END;

      180    20929            /* There is no need to CALL XUO$SECTNAME, since the section name is
      181    20930               passed to XUO$SECTBUILD. */
      182    20931
      183    20932    3       SECTION$ -> ST.OU_INDEX = SECTIONS_ALLOCATED;
PL6.E3A0      #001=Z9IO$OUTPUT_OU File=Z9IO.:Z8A6TSI                             SAT 08/09/97 14:02 Page:56

  20932 36 000114   200035 470500                    LDP0    @SECTION$,,AUTO
        36 000115   000000 471500                    LDP1    0,,PR0
        36 000116   200020 720100                    LXL0    SECTIONS_ALLOCATED,,AUTO
        36 000117   100001 440100                    SXL0    1,,PR1

      184    20933
      185    20934    3   END SETUP_BLOCK_SEGMENT;

  20934 36 000120   200040 221300                    LDX1  ! SECT_NAME_INDEX+1,,AUTO
        36 000121   000001 702211                    TSX2  ! 1,X1

      186    20935        %EJECT;
PL6.E3A0      #001=Z9IO$OUTPUT_OU File=Z9IO.:Z8A6TSI                             SAT 08/09/97 14:02 Page:57
      187    20936    3   DO CASE (SECTION$ -> ST.ID);

  20936 36 000122   200035 470500                    LDP0    @SECTION$,,AUTO
        36 000123   000000 471500                    LDP1    0,,PR0
        36 000124   100000 236100                    LDQ     0,,PR1
        36 000125   000022 772000                    QRL     18
        36 000126   000772 136007                    SBLQ    506,DL
        36 000127   000016 116007                    CMPQ    14,DL
        36 000130   000132 602006 36                 TNC     s:20936+8,QL
        36 000131   000232 710000 36                 TRA     s:20970
        36 000132   000172 710000 36                 TRA     s:20950
        36 000133   000232 710000 36                 TRA     s:20970
        36 000134   000150 710000 36                 TRA     s:20939
        36 000135   000232 710000 36                 TRA     s:20970
        36 000136   000232 710000 36                 TRA     s:20970
        36 000137   000232 710000 36                 TRA     s:20970
        36 000140   000165 710000 36                 TRA     s:20945
        36 000141   000232 710000 36                 TRA     s:20970
        36 000142   000232 710000 36                 TRA     s:20970
        36 000143   000232 710000 36                 TRA     s:20970
        36 000144   000232 710000 36                 TRA     s:20970
        36 000145   000232 710000 36                 TRA     s:20970
        36 000146   000232 710000 36                 TRA     s:20970
        36 000147   000226 710000 36                 TRA     s:20965

      188    20937
      189    20938    3     CASE (%BLOCK);

      190    20939    3       IF SECTION$ = COMCOM.BLOCK$ THEN

  20939 36 000150   000000 236100                    LDQ     0,,PR0
        36 000151   000145 116000 xsym               CMPQ    COMCOM+101
        36 000152   000160 601000 36                 TNZ     s:20942

      191    20940    3         CALL SETUP_BLOCK_SEGMENT(%DATASECTION);

  20940 36 000153   000010 236000 37                 LDQ     8
PL6.E3A0      #001=Z9IO$OUTPUT_OU File=Z9IO.:Z8A6TSI                             SAT 08/09/97 14:02 Page:58
        36 000154   200041 756100                    STQ     SREF_INDEX+1,,AUTO
        36 000155   000005 701000 36                 TSX1    SETUP_BLOCK_SEGMENT
        36 000156   000000 011000                    NOP     0
        36 000157   000232 710000 36                 TRA     s:20970

      192    20941    3       ELSE
      193    20942    3         CALL SETUP_BLOCK_SEGMENT(%LCOMSECTION);

  20942 36 000160   000012 236000 37                 LDQ     10
        36 000161   200041 756100                    STQ     SREF_INDEX+1,,AUTO
        36 000162   000005 701000 36                 TSX1    SETUP_BLOCK_SEGMENT
        36 000163   000000 011000                    NOP     0
        36 000164   000232 710000 36                 TRA     s:20970

      194    20943
      195    20944    3     CASE (%SEGMENT);

      196    20945    3       CALL SETUP_BLOCK_SEGMENT(%CODESECTION);

  20945 36 000165   000014 236000 37                 LDQ     12
        36 000166   200041 756100                    STQ     SREF_INDEX+1,,AUTO
        36 000167   000005 701000 36                 TSX1    SETUP_BLOCK_SEGMENT
        36 000170   000000 011000                    NOP     0
        36 000171   000232 710000 36                 TRA     s:20970

      197    20946
      198    20947
      199    20948    3     CASE (%SYMREF_);

      200    20949
      201    20950    3       CALL XUO$RNAME (SECTION$ -> ST.DNT$ -> DNT.TEXT,

  20950 36 000172   100006 473500                    LDP3    6,,PR1
        36 000173   200037 634500                    EPPR4   SECT_NAME_INDEX,,AUTO
        36 000174   200077 454500                    STP4    SECTION_OFFSET+2,,AUTO
        36 000175   300004 631500                    EPPR1   4,,PR3
        36 000176   200076 451500                    STP1    SECTION_OFFSET+1,,AUTO
PL6.E3A0      #001=Z9IO$OUTPUT_OU File=Z9IO.:Z8A6TSI                             SAT 08/09/97 14:02 Page:59
        36 000177   200076 630500                    EPPR0   SECTION_OFFSET+1,,AUTO
        36 000200   000000 631400 37                 EPPR1   0
        36 000201   000000 701000 xent               TSX1    XUO$RNAME
        36 000202   000000 011000                    NOP     0

      202    20951    3                      SECT_NAME_INDEX);
      203    20952
      204    20953    3       CALL XUO$EREF (SECT_NAME_INDEX,

  20953 36 000203   200036 630500                    EPPR0   EREF_INDEX,,AUTO
        36 000204   200104 450500                    STP0    SECTION_OFFSET+7,,AUTO
        36 000205   000016 237000 37                 LDAQ    14
        36 000206   200102 757100                    STAQ    SECTION_OFFSET+5,,AUTO
        36 000207   000016 237000 37                 LDAQ    14
        36 000210   200100 757100                    STAQ    SECTION_OFFSET+3,,AUTO
        36 000211   000010 236000 37                 LDQ     8
        36 000212   200077 756100                    STQ     SECTION_OFFSET+2,,AUTO
        36 000213   200037 631500                    EPPR1   SECT_NAME_INDEX,,AUTO
        36 000214   200076 451500                    STP1    SECTION_OFFSET+1,,AUTO
        36 000215   200076 630500                    EPPR0   SECTION_OFFSET+1,,AUTO
        36 000216   000015 631400 37                 EPPR1   13
        36 000217   000000 701000 xent               TSX1    XUO$EREF
        36 000220   000000 011000                    NOP     0

      205    20954    3                      '0'B,        /* PRIMARY REFERENCE */
      206    20955    3                      '0'B,          /* No altret */
      207    20956    3                      '0'B,         /* NO ARG CHECK */
      208    20957    3                      0,            /* STD CP6 callable procedure */
      209    20958    3                      0,             /* no args */
      210    20959    3                      EREF_INDEX);    /* ENTREF table index */
      211    20960
      212    20961    3       SECTION$ -> ST.OU_INDEX = EREF_INDEX;

  20961 36 000221   200035 470500                    LDP0    @SECTION$,,AUTO
        36 000222   000000 471500                    LDP1    0,,PR0
        36 000223   200036 720100                    LXL0    EREF_INDEX,,AUTO
        36 000224   100001 440100                    SXL0    1,,PR1
PL6.E3A0      #001=Z9IO$OUTPUT_OU File=Z9IO.:Z8A6TSI                             SAT 08/09/97 14:02 Page:60
        36 000225   000232 710000 36                 TRA     s:20970

      213    20962
      214    20963    3     CASE (%DCB_);

      215    20964
      216    20965    3       CALL SETUP_BLOCK_SEGMENT(%DCBSECTION);

  20965 36 000226   000021 236000 37                 LDQ     17
        36 000227   200041 756100                    STQ     SREF_INDEX+1,,AUTO
        36 000230   000005 701000 36                 TSX1    SETUP_BLOCK_SEGMENT
        36 000231   000000 011000                    NOP     0

      217    20966
      218    20967
      219    20968    3   END;  /* case on ST.ID */

      220    20969
      221    20970    2   END SPECIFY_OU_SECTION;

  20970 36 000232   200034 221300                    LDX1  ! I+1,,AUTO
        36 000233   000001 702211                    TSX2  ! 1,X1

      222    20971        %EJECT;
PL6.E3A0      #001=Z9IO$OUTPUT_OU File=Z9IO.:Z8A6TSI                             SAT 08/09/97 14:02 Page:61
      223    20972        /*-----------*/
      224    20973    1     INIT_OU_GEN : PROC ALTRET;

  20973 36 000234   200032 741300       INIT_OU_GEN  STX1  ! LOGICAL_BLOCK_COUNT+1,,AUTO
        36 000235   000256 710000 36                 TRA     s:21029

      225    20974        /*-----------*/
      226    20975
      227    20976        /*I*
      228    20977               NAME: INIT_OU_GEN
      229    20978        DESCRIPTION: Initalize OU generation by calling the appropriate
      230    20979                       XUO routines.
      231    20980        */
      232    20981
      233    20982    2   DCL Z9AE$ISSUE_SYSTEM_ERROR ENTRY(2);
      234    20983
      235    20984    2   DCL P_OPERND_TYPE     UBIN;
      236    20985    2   DCL SYMDEF$            PTR;
      237    20986    2   DCL START_OFFSET UBIN;
      238    20987    2   DCL 1 VECT             DALIGNED,
      239    20988    2         2  VECTOR_       BIT(72)  UNAL,
      240    20989    2         2  INFO   REDEF VECTOR_ UNAL,
      241    20990    2           3 BOUND_       UBIN (18)  UNAL,
      242    20991    2           3 *            BIT  (54)  UNAL;
      243    20992    2   DCL SEC_COUNT          SBIN;
      244    20993
      245    20994        %FPT_FDS (FPTN = FPT_FDS, STCLASS = AUTO);
      246    21009        %EJECT;
PL6.E3A0      #001=Z9IO$OUTPUT_OU File=Z9IO.:Z8A6TSI                             SAT 08/09/97 14:02 Page:62
      247    21010        /*+++++++++++++*/
      248    21011    2     SECTION_COUNT :  PROC  ( COUNT );                 /*#30694*/

  21011 36 000236   200050 741300       SECTION_COU* STX1  ! EIS_BUFFER+6,,AUTO

      249    21012        /*+++++++++++++*/
      250    21013
      251    21014    3   DCL COUNT      SBIN;
      252    21015    3   DCL SECTION$   PTR;
      253    21016
      254    21017    3   COUNT = COMCOM.SEGMENTC;

  21017 36 000237   200051 470500                    LDP0    @COUNT,,AUTO
        36 000240   000314 235000 xsym               LDA     COMCOM+204
        36 000241   000000 755100                    STA     0,,PR0

      255    21018    3   SECTION$ = COMCOM.BLOCK$;

  21018 36 000242   000145 236000 xsym               LDQ     COMCOM+101
        36 000243   200052 756100                    STQ     SECTION$,,AUTO

      256    21019
      257    21020    4   DO WHILE SECTION$ ~= ADDR(NIL);

  21020 36 000244   000252 710000 36                 TRA     s:21025

      258    21021
      259    21022    4     COUNT = COUNT + 1;

  21022 36 000245   200051 470500                    LDP0    @COUNT,,AUTO
        36 000246   000000 054100                    AOS     0,,PR0

      260    21023    4     SECTION$ = SECTION$ -> BLOCK.NEXT;

  21023 36 000247   200052 471500                    LDP1    SECTION$,,AUTO
        36 000250   100004 236100                    LDQ     4,,PR1
        36 000251   200052 756100                    STQ     SECTION$,,AUTO
PL6.E3A0      #001=Z9IO$OUTPUT_OU File=Z9IO.:Z8A6TSI                             SAT 08/09/97 14:02 Page:63

      261    21024
      262    21025    4   END;

  21025 36 000252   000022 116000 37                 CMPQ    18
        36 000253   000245 601000 36                 TNZ     s:21022

      263    21026
      264    21027    3   END SECTION_COUNT;

  21027 36 000254   200050 221300                    LDX1  ! EIS_BUFFER+6,,AUTO
        36 000255   000001 702211                    TSX2  ! 1,X1

      265    21028        %EJECT;
PL6.E3A0      #001=Z9IO$OUTPUT_OU File=Z9IO.:Z8A6TSI                             SAT 08/09/97 14:02 Page:64
      266    21029    2   IF COMCOM.OB.VIRTUAL THEN

  21029 36 000256   000110 234000 xsym               SZN     COMCOM+72
        36 000257   000311 605000 36                 TPL     s:21051

      267    21030    3     DO;    /* For saving a few pages real memory to back up the    */

      268    21031                 /* virtual memory, Z9AM$GET_VIRTUAL_SPACE reserves only */
      269    21032                 /* 12K memory for the auto storage, this 12k will be    */
      270    21033                 /* used up before phase 5, and XUO$OUINIT needs 10K real*/
      271    21034                 /* space, so, some space is freed from the auto segment.*/
      272    21035
      273    21036    3       FPT_FDS.V_ = VECTOR(FPT_FDS.V);

  21036 36 000260   000023 235000 37                 LDA     19
        36 000261   200076 452500                    STP2    SECTION_OFFSET+1,,AUTO
        36 000262   200076 236100                    LDQ     SECTION_OFFSET+1,,AUTO
        36 000263   000046 036003                    ADLQ    38,DU
        36 000264   200042 757100                    STAQ    FPT_FDS,,AUTO

      274    21037    3       FPT_FDS.RESULTS_ = VECTOR (VECT.VECTOR_);

  21037 36 000265   000023 235000 37                 LDA     19
        36 000266   200076 452500                    STP2    SECTION_OFFSET+1,,AUTO
        36 000267   200076 236100                    LDQ     SECTION_OFFSET+1,,AUTO
        36 000270   000036 036003                    ADLQ    30,DU
        36 000271   200044 757100                    STAQ    EIS_BUFFER+2,,AUTO

      275    21038    3       FPT_FDS.V.AUTOSEG# = '1'B;

  21038 36 000272   400000 236003                    LDQ     -131072,DU
        36 000273   200046 256100                    ORSQ    EIS_BUFFER+4,,AUTO

      276    21039    3       FPT_FDS.V.SEGSIZE# = 0;

  21039 36 000274   000000 220003                    LDX0    0,DU
        36 000275   200046 440100                    SXL0    EIS_BUFFER+4,,AUTO
PL6.E3A0      #001=Z9IO$OUTPUT_OU File=Z9IO.:Z8A6TSI                             SAT 08/09/97 14:02 Page:65

      277    21040
      278    21041    3       CALL M$FDS (FPT_FDS);

  21041 36 000276   200042 630500                    EPPR0   FPT_FDS,,AUTO
        36 000277   030002 713400                    CLIMB   fds
        36 000300   400400 401760                    pmme    nvectors=2

      279    21042
      280    21043    3       IF VECT.INFO.BOUND_ > 3071 THEN

  21043 36 000301   200036 220100                    LDX0    VECT,,AUTO
        36 000302   006000 100003                    CMPX0   3072,DU
        36 000303   000311 602000 36                 TNC     s:21051

      281    21044    4         DO;

      282    21045    4           FPT_FDS.V.SEGSIZE# = VECT.INFO.BOUND_ - 3071;

  21045 36 000304   772001 621010                    EAX1    -3071,X0
        36 000305   200046 441100                    SXL1    EIS_BUFFER+4,,AUTO

      283    21046
      284    21047    4           CALL M$FDS (FPT_FDS);

  21047 36 000306   200042 630500                    EPPR0   FPT_FDS,,AUTO
        36 000307   030002 713400                    CLIMB   fds
        36 000310   400400 401760                    pmme    nvectors=2

      285    21048    4         END;

      286    21049    3     END;

      287    21050
      288    21051    2    CALL SECTION_COUNT( SEC_COUNT );                   /*#30694*/

  21051 36 000311   200040 630500                    EPPR0   SEC_COUNT,,AUTO
PL6.E3A0      #001=Z9IO$OUTPUT_OU File=Z9IO.:Z8A6TSI                             SAT 08/09/97 14:02 Page:66
        36 000312   200051 450500                    STP0    EIS_BUFFER+7,,AUTO
        36 000313   000236 701000 36                 TSX1    SECTION_COUNT
        36 000314   000000 011000                    NOP     0

      289    21052    2   SECTIONS_ALLOCATED = 0;

  21052 36 000315   200020 450100                    STZ     SECTIONS_ALLOCATED,,AUTO

      290    21053    2   OBJ_SECT_NUMBER = 0;

  21053 36 000316   200013 450100                    STZ     OBJ_SECT_NUMBER,,AUTO

      291    21054    2   OBJ_SECT_TYPE_R = 1;

  21054 36 000317   000001 235007                    LDA     1,DL
        36 000320   200014 755100                    STA     OBJ_SECT_TYPE_R,,AUTO

      292    21055    2   START_OFFSET = 0;

  21055 36 000321   200035 450100                    STZ     START_OFFSET,,AUTO

      293    21056    2   COMCOM.CURRENT.LINE = 0;

  21056 36 000322   000133 450000 xsym               STZ     COMCOM+91

      294    21057    2   COMCOM.CURRENT.COLUMN = 0;

  21057 36 000323   000134 450000 xsym               STZ     COMCOM+92

      295    21058
      296    21059    2   CALL XUO$BUFINIT(,,SEC_COUNT,,,,,,,,,COMCOM.LOGICAL_BLOCK_CNT,,,,,3);

  21059 36 000324   000026 236000 37                 LDQ     22
        36 000325   200116 756100                    STQ     SECTION_OFFSET+17,,AUTO
        36 000326   000022 236000 37                 LDQ     18
        36 000327   000022 235000 37                 LDA     18
        36 000330   200114 757100                    STAQ    SECTION_OFFSET+15,,AUTO
PL6.E3A0      #001=Z9IO$OUTPUT_OU File=Z9IO.:Z8A6TSI                             SAT 08/09/97 14:02 Page:67
        36 000331   000022 236000 37                 LDQ     18
        36 000332   000022 235000 37                 LDA     18
        36 000333   200112 757100                    STAQ    SECTION_OFFSET+13,,AUTO
        36 000334   000027 236000 37                 LDQ     23
        36 000335   000022 235000 37                 LDA     18
        36 000336   200110 757100                    STAQ    SECTION_OFFSET+11,,AUTO
        36 000337   000022 236000 37                 LDQ     18
        36 000340   000022 235000 37                 LDA     18
        36 000341   200106 757100                    STAQ    SECTION_OFFSET+9,,AUTO
        36 000342   000022 236000 37                 LDQ     18
        36 000343   000022 235000 37                 LDA     18
        36 000344   200104 757100                    STAQ    SECTION_OFFSET+7,,AUTO
        36 000345   000022 236000 37                 LDQ     18
        36 000346   000022 235000 37                 LDA     18
        36 000347   200102 757100                    STAQ    SECTION_OFFSET+5,,AUTO
        36 000350   000022 236000 37                 LDQ     18
        36 000351   200101 756100                    STQ     SECTION_OFFSET+4,,AUTO
        36 000352   200040 630500                    EPPR0   SEC_COUNT,,AUTO
        36 000353   200100 450500                    STP0    SECTION_OFFSET+3,,AUTO
        36 000354   000022 235000 37                 LDA     18
        36 000355   200076 757100                    STAQ    SECTION_OFFSET+1,,AUTO
        36 000356   200076 630500                    EPPR0   SECTION_OFFSET+1,,AUTO
        36 000357   000024 631400 37                 EPPR1   20
        36 000360   000000 701000 xent               TSX1    XUO$BUFINIT
        36 000361   000000 011000                    NOP     0

      297    21060
      298    21061    2   IF COMCOM.IDS_SUB_SCHEMA = %TRUE  THEN

  21061 36 000362   000477 234000 xsym               SZN     COMCOM+319
        36 000363   000420 605000 36                 TPL     s:21081

      299    21062    2       CALL XUO$OUINIT ( Z9A8$M$OU#,

  21062 36 000364   000000 636000 xent               EAQ     Z9AE$ISSUE_SYSTEM_ERROR
        36 000365   200076 756100                    STQ     SECTION_OFFSET+1,,AUTO
        36 000366   000032 237000 37                 LDAQ    26
PL6.E3A0      #001=Z9IO$OUTPUT_OU File=Z9IO.:Z8A6TSI                             SAT 08/09/97 14:02 Page:68
        36 000367   200110 757100                    STAQ    SECTION_OFFSET+11,,AUTO
        36 000370   000034 236000 37                 LDQ     28
        36 000371   200107 756100                    STQ     SECTION_OFFSET+10,,AUTO
        36 000372   200076 630500                    EPPR0   SECTION_OFFSET+1,,AUTO
        36 000373   200106 450500                    STP0    SECTION_OFFSET+9,,AUTO
        36 000374   000036 237000 37                 LDAQ    30
        36 000375   200104 757100                    STAQ    SECTION_OFFSET+7,,AUTO
        36 000376   000040 237000 37                 LDAQ    32
        36 000377   200102 757100                    STAQ    SECTION_OFFSET+5,,AUTO
        36 000400   000042 237000 37                 LDAQ    34
        36 000401   200100 757100                    STAQ    SECTION_OFFSET+3,,AUTO
        36 000402   000044 236000 37                 LDQ     36
        36 000403   200077 756100                    STQ     SECTION_OFFSET+2,,AUTO
        36 000404   200077 630500                    EPPR0   SECTION_OFFSET+2,,AUTO
        36 000405   000030 631400 37                 EPPR1   24
        36 000406   000000 701000 xent               TSX1    XUO$OUINIT
        36 000407   000411 702000 36                 TSX2    s:21076
        36 000410   000417 710000 36                 TRA     s:21077+2

      300    21063    2                         P_OU_CLOSE_REQUIRED,
      301    21064    2                         P_SCHEMA_REQUIRED_FLAG,
      302    21065    2                         P_COMPILER_ID,
      303    21066    2                         P_VERSION,
      304    21067    2                         P_LIBRARY_NAME,
      305    21068    2                         COMCOM.COMPILE.UTS,
      306    21069    2                         ENTADDR(Z9AE$ISSUE_SYSTEM_ERROR),
      307    21070    2                         P_WORDSIZE,
      308    21071    2                         TRUE, /* backtracking for XUO$PRGM allowed */
      309    21072    2                         IDS_LIBRARY_NAME )
      310    21073
      311    21074    2           WHENALTRETURN
      312    21075    3                 DO;

      313    21076    3                   CALL Z8AE$ERROR(%E$ANNOTATOR_ABORT);

  21076 36 000411   000005 630400 37                 EPPR0   5
        36 000412   000003 631400 37                 EPPR1   3
PL6.E3A0      #001=Z9IO$OUTPUT_OU File=Z9IO.:Z8A6TSI                             SAT 08/09/97 14:02 Page:69
        36 000413   000000 701000 xent               TSX1    Z8AE$ERROR
        36 000414   000000 011000                    NOP     0

      314    21077    3                   ALTRETURN; /* Abandom attempt to generate OU */ /*#35094*/

  21077 36 000415   200032 221300                    LDX1  ! LOGICAL_BLOCK_COUNT+1,,AUTO
        36 000416   000000 702211                    TSX2  ! 0,X1
        36 000417   000451 710000 36                 TRA     s:21105

      315    21078    3                 END;
      316    21079
      317    21080    2   ELSE
      318    21081    2       CALL XUO$OUINIT ( Z9A8$M$OU#,

  21081 36 000420   000000 636000 xent               EAQ     Z9AE$ISSUE_SYSTEM_ERROR
        36 000421   200076 756100                    STQ     SECTION_OFFSET+1,,AUTO
        36 000422   000034 237000 37                 LDAQ    28
        36 000423   200110 757100                    STAQ    SECTION_OFFSET+11,,AUTO
        36 000424   200076 630500                    EPPR0   SECTION_OFFSET+1,,AUTO
        36 000425   200107 450500                    STP0    SECTION_OFFSET+10,,AUTO
        36 000426   000037 236000 37                 LDQ     31
        36 000427   200106 756100                    STQ     SECTION_OFFSET+9,,AUTO
        36 000430   000046 237000 37                 LDAQ    38
        36 000431   200104 757100                    STAQ    SECTION_OFFSET+7,,AUTO
        36 000432   000050 237000 37                 LDAQ    40
        36 000433   200102 757100                    STAQ    SECTION_OFFSET+5,,AUTO
        36 000434   000052 237000 37                 LDAQ    42
        36 000435   200100 757100                    STAQ    SECTION_OFFSET+3,,AUTO
        36 000436   200100 630500                    EPPR0   SECTION_OFFSET+3,,AUTO
        36 000437   000045 631400 37                 EPPR1   37
        36 000440   000000 701000 xent               TSX1    XUO$OUINIT
        36 000441   000443 702000 36                 TSX2    s:21095
        36 000442   000451 710000 36                 TRA     s:21105

      319    21082    2                         P_OU_CLOSE_REQUIRED,
      320    21083    2                         P_SCHEMA_REQUIRED_FLAG,
      321    21084    2                         P_COMPILER_ID,
PL6.E3A0      #001=Z9IO$OUTPUT_OU File=Z9IO.:Z8A6TSI                             SAT 08/09/97 14:02 Page:70
      322    21085    2                         P_VERSION,
      323    21086    2                         P_LIBRARY_NAME,
      324    21087    2                         COMCOM.COMPILE.UTS,
      325    21088    2                         ENTADDR(Z9AE$ISSUE_SYSTEM_ERROR),
      326    21089    2                         P_WORDSIZE,
      327    21090    2                         TRUE, /* backtracking for XUO$PRGM allowed */
      328    21091    2                          /* No alternate shared lib */ )
      329    21092
      330    21093    2           WHENALTRETURN
      331    21094    3                 DO;

      332    21095    3                   CALL Z8AE$ERROR(%E$ANNOTATOR_ABORT);

  21095 36 000443   000005 630400 37                 EPPR0   5
        36 000444   000003 631400 37                 EPPR1   3
        36 000445   000000 701000 xent               TSX1    Z8AE$ERROR
        36 000446   000000 011000                    NOP     0

      333    21096    3                   ALTRETURN; /* Abandom attempt to generate OU */ /*#35094*/

  21096 36 000447   200032 221300                    LDX1  ! LOGICAL_BLOCK_COUNT+1,,AUTO
        36 000450   000000 702211                    TSX2  ! 0,X1

      334    21097    3                 END;
      335    21098
      336    21099        /*
      337    21100           If there is a main program in the source file, then
      338    21101           the OU we create will be a main prog.  To find this
      339    21102           we walk the symdef chain for a main_program bit set.
      340    21103        */
      341    21104
      342    21105    2   SYMDEF$ = COMCOM.SYMDEF$;

  21105 36 000451   000316 236000 xsym               LDQ     COMCOM+206
        36 000452   200034 756100                    STQ     SYMDEF$,,AUTO

      343    21106
PL6.E3A0      #001=Z9IO$OUTPUT_OU File=Z9IO.:Z8A6TSI                             SAT 08/09/97 14:02 Page:71
      344    21107    2   P_OPERND_TYPE = 1; /* Section */

  21107 36 000453   000001 235007                    LDA     1,DL
        36 000454   200033 755100                    STA     P_OPERND_TYPE,,AUTO

      345    21108
      346    21109    3   DO WHILE (SYMDEF$ ~= ADDR(NIL));

  21109 36 000455   000463 710000 36                 TRA     s:21114

      347    21110    3     IF SYMDEF$ -> SYMDEF_.B.MAIN_PROGRAM THEN

  21110 36 000456   200034 470500                    LDP0    SYMDEF$,,AUTO
        36 000457   000003 234100                    SZN     3,,PR0
        36 000460   000465 604000 36                 TMI     s:21116

      348    21111    3       EXIT;
      349    21112
      350    21113    3     SYMDEF$ = SYMDEF$ -> SYMDEF_.NEXT;

  21113 36 000461   000004 236100                    LDQ     4,,PR0
        36 000462   200034 756100                    STQ     SYMDEF$,,AUTO

      351    21114    3   END; /* While */

  21114 36 000463   000022 116000 37                 CMPQ    18
        36 000464   000456 601000 36                 TNZ     s:21110

      352    21115
      353    21116    2   IF SYMDEF$ = ADDR(NIL) THEN

  21116 36 000465   200034 236100                    LDQ     SYMDEF$,,AUTO
        36 000466   000022 116000 37                 CMPQ    18
        36 000467   000472 601000 36                 TNZ     s:21118

      354    21117    2     P_OPERND_TYPE = 0; /* Not a main program */

PL6.E3A0      #001=Z9IO$OUTPUT_OU File=Z9IO.:Z8A6TSI                             SAT 08/09/97 14:02 Page:72
  21117 36 000470   200033 450100                    STZ     P_OPERND_TYPE,,AUTO
        36 000471   000476 710000 36                 TRA     s:21120

      355    21118    2     ELSE START_OFFSET = SYMDEF$ -> SYMDEF_.SA; /* Main program entry address */

  21118 36 000472   200034 470500                    LDP0    SYMDEF$,,AUTO
        36 000473   000001 236100                    LDQ     1,,PR0
        36 000474   000022 772000                    QRL     18
        36 000475   200035 756100                    STQ     START_OFFSET,,AUTO

      356    21119
      357    21120    2   CALL XUO$HEADSTART (P_OPERND_TYPE,

  21120 36 000476   200035 630500                    EPPR0   START_OFFSET,,AUTO
        36 000477   200100 450500                    STP0    SECTION_OFFSET+3,,AUTO
        36 000500   000010 236000 37                 LDQ     8
        36 000501   200077 756100                    STQ     SECTION_OFFSET+2,,AUTO
        36 000502   200033 631500                    EPPR1   P_OPERND_TYPE,,AUTO
        36 000503   200076 451500                    STP1    SECTION_OFFSET+1,,AUTO
        36 000504   200076 630500                    EPPR0   SECTION_OFFSET+1,,AUTO
        36 000505   000006 631400 37                 EPPR1   6
        36 000506   000000 701000 xent               TSX1    XUO$HEADSTART
        36 000507   000000 011000                    NOP     0

      358    21121    2                       0,   /* P_OPERAND = 0 */
      359    21122    2                       START_OFFSET); /* P_OFFSET = 0 or main program start address */
      360    21123
      361    21124    2   IF COMCOM.OU_EXTERNAL_NAME$ ~= ADDR(NIL) THEN

  21124 36 000510   000146 236000 xsym               LDQ     COMCOM+102
        36 000511   000022 116000 37                 CMPQ    18
        36 000512   000522 600000 36                 TZE     s:21128

      362    21125    2       CALL XUO$HEADNAME (COMCOM.OU_EXTERNAL_NAME$ -> DNT.TEXT);

  21125 36 000513   000004 036003                    ADLQ    4,DU
        36 000514   200076 756100                    STQ     SECTION_OFFSET+1,,AUTO
PL6.E3A0      #001=Z9IO$OUTPUT_OU File=Z9IO.:Z8A6TSI                             SAT 08/09/97 14:02 Page:73
        36 000515   200076 630500                    EPPR0   SECTION_OFFSET+1,,AUTO
        36 000516   000003 631400 37                 EPPR1   3
        36 000517   000000 701000 xent               TSX1    XUO$HEADNAME
        36 000520   000000 011000                    NOP     0
        36 000521   000535 710000 36                 TRA     s:21133

      363    21126    2   ELSE
      364    21127    3     DO;

      365    21128    3       P_NAME_HEAD.SIZE = LENGTHC(%DEFAULT_PROG_NAME);

  21128 36 000522   000007 220003                    LDX0    7,DU
        36 000523   200015 740100                    STX0    P_NAME_HEAD,,AUTO

      366    21129    3       P_NAME_HEAD.TEXT = %DEFAULT_PROG_NAME;

  21129 36 000524   040100 100400                    MLR     fill='040'O
        36 000525   000025 000007 23                 ADSC9   P_SECTION_UTS_ZERO+1     cn=0,n=7
        36 000526   200015 400007                    ADSC9   P_NAME_HEAD,,AUTO        cn=2,n=7

      367    21130    3       CALL XUO$HEADNAME (P_NAME_HEAD);

  21130 36 000527   200015 630500                    EPPR0   P_NAME_HEAD,,AUTO
        36 000530   200076 450500                    STP0    SECTION_OFFSET+1,,AUTO
        36 000531   200076 630500                    EPPR0   SECTION_OFFSET+1,,AUTO
        36 000532   000003 631400 37                 EPPR1   3
        36 000533   000000 701000 xent               TSX1    XUO$HEADNAME
        36 000534   000000 011000                    NOP     0

      368    21131    3     END;

      369    21132
      370    21133    2   SEVERITY_INDEX = COMCOM.MAX_ERROR / 100;

  21133 36 000535   000002 236000 xsym               LDQ     COMCOM+2
        36 000536   000144 506007                    DIV     100,DL
        36 000537   200004 756100                    STQ     SEVERITY_INDEX,,AUTO
PL6.E3A0      #001=Z9IO$OUTPUT_OU File=Z9IO.:Z8A6TSI                             SAT 08/09/97 14:02 Page:74

      371    21134    2   IF SEVERITY_OF_ERROR(SEVERITY_INDEX) < 4 THEN

  21134 36 000540   000000 235006 23                 LDA     SEVERITY_OF_ERROR,QL
        36 000541   000004 115007                    CMPA    4,DL
        36 000542   000550 605000 36                 TPL     s:21137

      372    21135    2     CALL XUO$HEAD_SEVERITY(0);

  21135 36 000543   000010 630400 37                 EPPR0   8
        36 000544   000003 631400 37                 EPPR1   3
        36 000545   000000 701000 xent               TSX1    XUO$HEAD_SEVERITY
        36 000546   000000 011000                    NOP     0
        36 000547   000554 710000 36                 TRA     s:21139

      373    21136    2   ELSE
      374    21137    2     CALL XUO$HEAD_SEVERITY(11);

  21137 36 000550   000055 630400 37                 EPPR0   45
        36 000551   000003 631400 37                 EPPR1   3
        36 000552   000000 701000 xent               TSX1    XUO$HEAD_SEVERITY
        36 000553   000000 011000                    NOP     0

      375    21138
      376    21139    2   CURRENT_SCOPE$ = COMCOM.FIRST_PROC$;

  21139 36 000554   000136 236000 xsym               LDQ     COMCOM+94
        36 000555   200027 756100                    STQ     CURRENT_SCOPE$,,AUTO

      377    21140
      378    21141    2   LOGICAL_BLOCK_COUNT = 0;

  21141 36 000556   200031 450100                    STZ     LOGICAL_BLOCK_COUNT,,AUTO

      379    21142
      380    21143    2   END INIT_OU_GEN;

PL6.E3A0      #001=Z9IO$OUTPUT_OU File=Z9IO.:Z8A6TSI                             SAT 08/09/97 14:02 Page:75
  21143 36 000557   200032 221300                    LDX1  ! LOGICAL_BLOCK_COUNT+1,,AUTO
        36 000560   000001 702211                    TSX2  ! 1,X1

      381    21144        %EJECT;
PL6.E3A0      #001=Z9IO$OUTPUT_OU File=Z9IO.:Z8A6TSI                             SAT 08/09/97 14:02 Page:76
      382    21145        /*-----------------*/
      383    21146    1     INIT_ALL_SECTIONS : PROC;

  21146 36 000561   200032 741300       INIT_ALL_SE* STX1  ! LOGICAL_BLOCK_COUNT+1,,AUTO

      384    21147        /*-----------------*/
      385    21148
      386    21149        /*I*
      387    21150               NAME: INIT_ALL_SECTIONS
      388    21151        DESCRIPTION: Initialize XUO tables by entering all COBOL
      389    21152                       sections and data blocks into tables.  SPECIFY_OU_SECTION
      390    21153                       is called.
      391    21154        */
      392    21155
      393    21156        /* Add all procedure sections to OU */
      394    21157
      395    21158    3   DO COUNT = 0 TO COMCOM.SEGMENTC - 1;

  21158 36 000562   200010 450100                    STZ     COUNT,,AUTO
        36 000563   000572 710000 36                 TRA     s:21160+1

      396    21159    3     CALL SPECIFY_OU_SECTION (COMCOM.SEGMENT$(COUNT));

  21159 36 000564   200010 720100                    LXL0    COUNT,,AUTO
        36 000565   000150 630410 xsym               EPPR0   COMCOM+104,X0
        36 000566   200035 450500                    STP0    START_OFFSET,,AUTO
        36 000567   000003 701000 36                 TSX1    SPECIFY_OU_SECTION
        36 000570   000000 011000                    NOP     0

      397    21160    3   END; /* do */

  21160 36 000571   200010 054100                    AOS     COUNT,,AUTO
        36 000572   200010 236100                    LDQ     COUNT,,AUTO
        36 000573   000314 116000 xsym               CMPQ    COMCOM+204
        36 000574   000564 604000 36                 TMI     s:21159

      398    21161
PL6.E3A0      #001=Z9IO$OUTPUT_OU File=Z9IO.:Z8A6TSI                             SAT 08/09/97 14:02 Page:77
      399    21162        /* Add all data blocks to OU */
      400    21163
      401    21164    2   SECTION$ = COMCOM.BLOCK$;

  21164 36 000575   000145 236000 xsym               LDQ     COMCOM+101
        36 000576   200021 756100                    STQ     SECTION$,,AUTO

      402    21165    3   DO WHILE (SECTION$ ~= ADDR(NIL));

  21165 36 000577   000607 710000 36                 TRA     s:21168

      403    21166    3     CALL SPECIFY_OU_SECTION (SECTION$);

  21166 36 000600   200021 630500                    EPPR0   SECTION$,,AUTO
        36 000601   200035 450500                    STP0    START_OFFSET,,AUTO
        36 000602   000003 701000 36                 TSX1    SPECIFY_OU_SECTION
        36 000603   000000 011000                    NOP     0

      404    21167    3     SECTION$ = SECTION$ -> BLOCK.NEXT;

  21167 36 000604   200021 470500                    LDP0    SECTION$,,AUTO
        36 000605   000004 236100                    LDQ     4,,PR0
        36 000606   200021 756100                    STQ     SECTION$,,AUTO

      405    21168    3   END;  /* do while */

  21168 36 000607   000022 116000 37                 CMPQ    18
        36 000610   000600 601000 36                 TNZ     s:21166

      406    21169        /* Add all SYMREF's to OU */
      407    21170
      408    21171    2   SECTION$ = COMCOM.SYMREF$;

  21171 36 000611   000436 236000 xsym               LDQ     COMCOM+286
        36 000612   200021 756100                    STQ     SECTION$,,AUTO

      409    21172
PL6.E3A0      #001=Z9IO$OUTPUT_OU File=Z9IO.:Z8A6TSI                             SAT 08/09/97 14:02 Page:78
      410    21173    3   DO WHILE (SECTION$ ~= ADDR(NIL));

  21173 36 000613   000623 710000 36                 TRA     s:21176

      411    21174    3     CALL SPECIFY_OU_SECTION (SECTION$);

  21174 36 000614   200021 630500                    EPPR0   SECTION$,,AUTO
        36 000615   200035 450500                    STP0    START_OFFSET,,AUTO
        36 000616   000003 701000 36                 TSX1    SPECIFY_OU_SECTION
        36 000617   000000 011000                    NOP     0

      412    21175    3     SECTION$ = SECTION$ -> SYMREF_.NEXT;

  21175 36 000620   200021 470500                    LDP0    SECTION$,,AUTO
        36 000621   000004 236100                    LDQ     4,,PR0
        36 000622   200021 756100                    STQ     SECTION$,,AUTO

      413    21176    3   END; /* While */

  21176 36 000623   000022 116000 37                 CMPQ    18
        36 000624   000614 601000 36                 TNZ     s:21174

      414    21177
      415    21178    2   END INIT_ALL_SECTIONS;

  21178 36 000625   200032 221300                    LDX1  ! LOGICAL_BLOCK_COUNT+1,,AUTO
        36 000626   000001 702211                    TSX2  ! 1,X1

      416    21179        %EJECT;
PL6.E3A0      #001=Z9IO$OUTPUT_OU File=Z9IO.:Z8A6TSI                             SAT 08/09/97 14:02 Page:79
      417    21180        /*------------------*/
      418    21181    1     ENTER_SYMDEF_NAMES : PROC;

  21181 36 000627   200032 741300       ENTER_SYMDE* STX1  ! LOGICAL_BLOCK_COUNT+1,,AUTO

      419    21182        /*------------------*/
      420    21183
      421    21184             %SUB_CST;   /* Subs for CALL_TYPE found in B$OBJECT_C */
      422    21200
      423    21201    2        DCL SYMDEF$       PTR;
      424    21202    2        DCL PRIMARY_NAME  BIT (1);
      425    21203    2        DCL CALL_TYPE     UBIN;
      426    21204    2        DCL NUMBER_ARGUMENTS UBIN;
      427    21205    2        DCL SECTION_OFFSET   UBIN;
      428    21206
      429    21207
      430    21208    2        SYMDEF$ = COMCOM.SYMDEF$;

  21208 36 000630   000316 236000 xsym               LDQ     COMCOM+206
        36 000631   200033 756100                    STQ     SYMDEF$,,AUTO

      431    21209
      432    21210    3        DO WHILE (SYMDEF$ ~= ADDR(NIL));

  21210 36 000632   000725 710000 36                 TRA     s:21246

      433    21211
      434    21212    3          CALL XUO$DNAME (SYMDEF$ -> SYMDEF_.DNT$ -> DNT.TEXT,

  21212 36 000633   200033 470500                    LDP0    SYMDEF$,,AUTO
        36 000634   000006 471500                    LDP1    6,,PR0
        36 000635   200011 633500                    EPPR3   PROG_NAME_POINTER,,AUTO
        36 000636   200077 453500                    STP3    SECTION_OFFSET+2,,AUTO
        36 000637   100004 634500                    EPPR4   4,,PR1
        36 000640   200076 454500                    STP4    SECTION_OFFSET+1,,AUTO
        36 000641   200076 630500                    EPPR0   SECTION_OFFSET+1,,AUTO
        36 000642   000000 631400 37                 EPPR1   0
PL6.E3A0      #001=Z9IO$OUTPUT_OU File=Z9IO.:Z8A6TSI                             SAT 08/09/97 14:02 Page:80
        36 000643   000000 701000 xent               TSX1    XUO$DNAME
        36 000644   000000 011000                    NOP     0

      435    21213    3                          PROG_NAME_POINTER);
      436    21214
      437    21215    3          IF COMCOM.OU_EXTERNAL_NAME$ = SYMDEF$ -> SYMDEF_.DNT$ THEN

  21215 36 000645   200033 470500                    LDP0    SYMDEF$,,AUTO
        36 000646   000146 236000 xsym               LDQ     COMCOM+102
        36 000647   000006 116100                    CMPQ    6,,PR0
        36 000650   000654 601000 36                 TNZ     s:21221

      438    21216    4            DO;

      439    21217    4              PRIMARY_NAME = TRUE;

  21217 36 000651   400000 236003                    LDQ     -131072,DU
        36 000652   200034 756100                    STQ     PRIMARY_NAME,,AUTO

      440    21218
      441    21219    4            END;

  21219 36 000653   000655 710000 36                 TRA     s:21223

      442    21220    3          ELSE
      443    21221    3            PRIMARY_NAME = FALSE;

  21221 36 000654   200034 450100                    STZ     PRIMARY_NAME,,AUTO

      444    21222
      445    21223    3          IF SYMDEF$ -> SYMDEF_.B.MAIN_PROGRAM THEN

  21223 36 000655   000003 234100                    SZN     3,,PR0
        36 000656   000662 605000 36                 TPL     s:21226

      446    21224    3            CALL_TYPE = %MAIN#;

PL6.E3A0      #001=Z9IO$OUTPUT_OU File=Z9IO.:Z8A6TSI                             SAT 08/09/97 14:02 Page:81
  21224 36 000657   000002 235007                    LDA     2,DL
        36 000660   200035 755100                    STA     CALL_TYPE,,AUTO
        36 000661   000663 710000 36                 TRA     s:21228

      447    21225    3          ELSE
      448    21226    3            CALL_TYPE = %STD#;

  21226 36 000662   200035 450100                    STZ     CALL_TYPE,,AUTO

      449    21227
      450    21228    3          IF SYMDEF$ -> SYMDEF_.ARGLIST$ = ADDR(NIL) THEN

  21228 36 000663   000005 236100                    LDQ     5,,PR0
        36 000664   000022 116000 37                 CMPQ    18
        36 000665   000670 601000 36                 TNZ     s:21231

      451    21229    3            NUMBER_ARGUMENTS = 0;

  21229 36 000666   200036 450100                    STZ     NUMBER_ARGUMENTS,,AUTO
        36 000667   000675 710000 36                 TRA     s:21233

      452    21230    3          ELSE
      453    21231    3            NUMBER_ARGUMENTS = SYMDEF$ -> SYMDEF_.ARGLIST$ -> ARGLIST.N - 1;

  21231 36 000670   000005 471500                    LDP1    5,,PR0
        36 000671   100000 236100                    LDQ     0,,PR1
        36 000672   777777 376007                    ANQ     -1,DL
        36 000673   000001 136007                    SBLQ    1,DL
        36 000674   200036 756100                    STQ     NUMBER_ARGUMENTS,,AUTO

      454    21232
      455    21233    3          SECTION_OFFSET = SYMDEF$ -> SYMDEF_.SA;

  21233 36 000675   000001 236100                    LDQ     1,,PR0
        36 000676   000022 772000                    QRL     18
        36 000677   200037 756100                    STQ     SECTION_OFFSET,,AUTO

PL6.E3A0      #001=Z9IO$OUTPUT_OU File=Z9IO.:Z8A6TSI                             SAT 08/09/97 14:02 Page:82
      456    21234
      457    21235    3          CALL XUO$EDEF ( 0,            /* Section */ /*N* Consider segmentation */

  21235 36 000700   200036 631500                    EPPR1   NUMBER_ARGUMENTS,,AUTO
        36 000701   200105 451500                    STP1    SECTION_OFFSET+8,,AUTO
        36 000702   200035 633500                    EPPR3   CALL_TYPE,,AUTO
        36 000703   200104 453500                    STP3    SECTION_OFFSET+7,,AUTO
        36 000704   000060 237000 37                 LDAQ    48
        36 000705   200102 757100                    STAQ    SECTION_OFFSET+5,,AUTO
        36 000706   200034 634500                    EPPR4   PRIMARY_NAME,,AUTO
        36 000707   200101 454500                    STP4    SECTION_OFFSET+4,,AUTO
        36 000710   200011 635500                    EPPR5   PROG_NAME_POINTER,,AUTO
        36 000711   200100 455500                    STP5    SECTION_OFFSET+3,,AUTO
        36 000712   200037 636500                    EPPR6   SECTION_OFFSET,,AUTO
        36 000713   200077 456500                    STP6    SECTION_OFFSET+2,,AUTO
        36 000714   000010 236000 37                 LDQ     8
        36 000715   200076 756100                    STQ     SECTION_OFFSET+1,,AUTO
        36 000716   200076 630500                    EPPR0   SECTION_OFFSET+1,,AUTO
        36 000717   000056 631400 37                 EPPR1   46
        36 000720   000000 701000 xent               TSX1    XUO$EDEF
        36 000721   000000 011000                    NOP     0

      458    21236    3                          SECTION_OFFSET,
      459    21237    3                          PROG_NAME_POINTER,
      460    21238    3                          PRIMARY_NAME,
      461    21239    3                          '0'B,         /* No altreturn */
      462    21240    3                          '1'B,         /* No arg check */
      463    21241    3                          CALL_TYPE,
      464    21242    3                          NUMBER_ARGUMENTS);
      465    21243
      466    21244    3          SYMDEF$ = SYMDEF$ -> SYMDEF_.NEXT;

  21244 36 000722   200033 470500                    LDP0    SYMDEF$,,AUTO
        36 000723   000004 236100                    LDQ     4,,PR0
        36 000724   200033 756100                    STQ     SYMDEF$,,AUTO

      467    21245
PL6.E3A0      #001=Z9IO$OUTPUT_OU File=Z9IO.:Z8A6TSI                             SAT 08/09/97 14:02 Page:83
      468    21246    3        END; /* While */

  21246 36 000725   000022 116000 37                 CMPQ    18
        36 000726   000633 601000 36                 TNZ     s:21212

      469    21247
      470    21248    2   END ENTER_SYMDEF_NAMES;

  21248 36 000727   200032 221300                    LDX1  ! LOGICAL_BLOCK_COUNT+1,,AUTO
        36 000730   000001 702211                    TSX2  ! 1,X1

      471    21249        %EJECT;
PL6.E3A0      #001=Z9IO$OUTPUT_OU File=Z9IO.:Z8A6TSI                             SAT 08/09/97 14:02 Page:84
      472    21250        /*------------------*/
      473    21251    1     OPEN_LOGICAL_BLOCK : PROC (PROC$);

  21251 36 000731   200064 741300       OPEN_LOGICA* STX1  ! LOCAL_OBJ_WORD+2,,AUTO

      474    21252        /*------------------*/
      475    21253
      476    21254        /*I*
      477    21255                NAME: OPEN_LOGICAL_BLOCK
      478    21256        DESCRIPTION: Accept a pointer (PROC$) to a PROC_ item.  Enter the
      479    21257                     name of the PROC_ item in debug schema.  Allocate
      480    21258                     a logical block and put all the symbols from the
      481    21259                     ST items in the PROC_ item's scope into the schema.
      482    21260                     If the PROC_ item is for an internal procedure, then
      483    21261                     create an INTNTRY schema record for the item and all
      484    21262                     its entry points.
      485    21263        */
      486    21264    2       DCL PROC$ PTR;
      487    21265
      488    21266    2       DCL LINE_START UBIN WORD;
      489    21267    2       DCL LEXICAL_LEVEL UBIN WORD;
      490    21268    2       DCL LBLK_NAME_POINTER SBIN WORD;
      491    21269    2       DCL LOG_BLK_NUMBER SBIN;
      492    21270
      493    21271    2       DCL P$ PTR;
      494    21272    2       DCL PRIMARY_NAME_FLAG BOOLEAN;
      495    21273    2       DCL NUMBER_OF_ARGS UBIN;
      496    21274    2       DCL SECTION_OFFSET SBIN;
      497    21275
      498    21276    2       CALL XUO$DBGNAME (PROC$ -> PROC_.PROC_DEF$ -> SYMDEF_.DNT$ ->

  21276 36 000732   200065 470500                    LDP0    @PROC$,,AUTO
        36 000733   000000 471500                    LDP1    0,,PR0
        36 000734   100006 473500                    LDP3    6,,PR1
        36 000735   300006 474500                    LDP4    6,,PR3
        36 000736   200070 635500                    EPPR5   LBLK_NAME_POINTER,,AUTO
        36 000737   200077 455500                    STP5    SECTION_OFFSET+2,,AUTO
PL6.E3A0      #001=Z9IO$OUTPUT_OU File=Z9IO.:Z8A6TSI                             SAT 08/09/97 14:02 Page:85
        36 000740   400004 631500                    EPPR1   4,,PR4
        36 000741   200076 451500                    STP1    SECTION_OFFSET+1,,AUTO
        36 000742   200076 630500                    EPPR0   SECTION_OFFSET+1,,AUTO
        36 000743   000000 631400 37                 EPPR1   0
        36 000744   000000 701000 xent               TSX1    XUO$DBGNAME
        36 000745   000000 011000                    NOP     0

      499    21277    2                                    DNT.TEXT,
      500    21278    2                        LBLK_NAME_POINTER);
      501    21279
      502    21280    2       CALL XUO$LOGBLKALLOC (P_LOGBLK_NUMBER)

  21280 36 000746   200005 630500                    EPPR0   P_LOGBLK_NUMBER,,AUTO
        36 000747   200076 450500                    STP0    SECTION_OFFSET+1,,AUTO
        36 000750   200076 630500                    EPPR0   SECTION_OFFSET+1,,AUTO
        36 000751   000003 631400 37                 EPPR1   3
        36 000752   000000 701000 xent               TSX1    XUO$LOGBLKALLOC
        36 000753   000755 702000 36                 TSX2    s:21283
        36 000754   000761 710000 36                 TRA     s:21286

      503    21281    2          WHENALTRETURN
      504    21282    3                 DO;

      505    21283    3                   CALL Z8AE$ERROR(%E$ANNOTATOR_ABORT);

  21283 36 000755   000005 630400 37                 EPPR0   5
        36 000756   000003 631400 37                 EPPR1   3
        36 000757   000000 701000 xent               TSX1    Z8AE$ERROR
        36 000760   000000 011000                    NOP     0

      506    21284    3                 END;

      507    21285
      508    21286    2       LOG_BLK_NUMBER = P_LOGBLK_NUMBER;

  21286 36 000761   200005 235100                    LDA     P_LOGBLK_NUMBER,,AUTO
        36 000762   200071 755100                    STA     LOG_BLK_NUMBER,,AUTO
PL6.E3A0      #001=Z9IO$OUTPUT_OU File=Z9IO.:Z8A6TSI                             SAT 08/09/97 14:02 Page:86

      509    21287
      510    21288    2       LOGICAL_BLOCK_COUNT = LOGICAL_BLOCK_COUNT + 1;

  21288 36 000763   200031 054100                    AOS     LOGICAL_BLOCK_COUNT,,AUTO

      511    21289
      512    21290    2       CALL XUO$VREBLNUM (P_VREBL_NUMBER);

  21290 36 000764   000057 630400 37                 EPPR0   47
        36 000765   000003 631400 37                 EPPR1   3
        36 000766   000000 701000 xent               TSX1    XUO$VREBLNUM
        36 000767   000000 011000                    NOP     0

      513    21291    2       CALL XUO$LOGBLKVREBLINIT (P_LOGBLK_NUMBER,

  21291 36 000770   000057 236000 37                 LDQ     47
        36 000771   200077 756100                    STQ     SECTION_OFFSET+2,,AUTO
        36 000772   200005 630500                    EPPR0   P_LOGBLK_NUMBER,,AUTO
        36 000773   200076 450500                    STP0    SECTION_OFFSET+1,,AUTO
        36 000774   200076 630500                    EPPR0   SECTION_OFFSET+1,,AUTO
        36 000775   000000 631400 37                 EPPR1   0
        36 000776   000000 701000 xent               TSX1    XUO$LOGBLKVREBLINIT
        36 000777   001001 702000 36                 TSX2    s:21295
        36 001000   001005 710000 36                 TRA     s:21298

      514    21292    2                                 P_VREBL_NUMBER)
      515    21293    2          WHENALTRETURN
      516    21294    3                 DO;

      517    21295    3                   CALL Z8AE$ERROR(%E$ANNOTATOR_ABORT);

  21295 36 001001   000005 630400 37                 EPPR0   5
        36 001002   000003 631400 37                 EPPR1   3
        36 001003   000000 701000 xent               TSX1    Z8AE$ERROR
        36 001004   000000 011000                    NOP     0

PL6.E3A0      #001=Z9IO$OUTPUT_OU File=Z9IO.:Z8A6TSI                             SAT 08/09/97 14:02 Page:87
      518    21296    3                 END;

      519    21297
      520    21298    2       CALL Z9IO$SCAN_SYMBOL_TABLE(PROC$);

  21298 36 001005   200065 630500                    EPPR0   @PROC$,,AUTO
        36 001006   000003 631400 37                 EPPR1   3
        36 001007   000000 701000 xent               TSX1    Z9IO$SCAN_SYMBOL_TABLE
        36 001010   000000 011000                    NOP     0

      521    21299
      522    21300    2       CALL XUO$VREBLNUM (P_VREBL_NUMBER);

  21300 36 001011   000057 630400 37                 EPPR0   47
        36 001012   000003 631400 37                 EPPR1   3
        36 001013   000000 701000 xent               TSX1    XUO$VREBLNUM
        36 001014   000000 011000                    NOP     0

      523    21301
      524    21302    2       PROC$ -> PROC_.LOG_BLK_NUMBER = LOG_BLK_NUMBER;

  21302 36 001015   200065 470500                    LDP0    @PROC$,,AUTO
        36 001016   000000 471500                    LDP1    0,,PR0
        36 001017   200071 235100                    LDA     LOG_BLK_NUMBER,,AUTO
        36 001020   100004 755100                    STA     4,,PR1

      525    21303
      526    21304    2       CALL XUO$LOGBLKVREBLTERM (PROC$ -> PROC_.LOG_BLK_NUMBER,

  21304 36 001021   000000 471500                    LDP1    0,,PR0
        36 001022   000057 236000 37                 LDQ     47
        36 001023   200077 756100                    STQ     SECTION_OFFSET+2,,AUTO
        36 001024   100004 633500                    EPPR3   4,,PR1
        36 001025   200076 453500                    STP3    SECTION_OFFSET+1,,AUTO
        36 001026   200076 630500                    EPPR0   SECTION_OFFSET+1,,AUTO
        36 001027   000000 631400 37                 EPPR1   0
        36 001030   000000 701000 xent               TSX1    XUO$LOGBLKVREBLTERM
PL6.E3A0      #001=Z9IO$OUTPUT_OU File=Z9IO.:Z8A6TSI                             SAT 08/09/97 14:02 Page:88
        36 001031   001033 702000 36                 TSX2    s:21308
        36 001032   001037 710000 36                 TRA     s:21311

      527    21305    2                                 P_VREBL_NUMBER)
      528    21306    2          WHENALTRETURN
      529    21307    3                 DO;

      530    21308    3                   CALL Z8AE$ERROR(%E$ANNOTATOR_ABORT);

  21308 36 001033   000005 630400 37                 EPPR0   5
        36 001034   000003 631400 37                 EPPR1   3
        36 001035   000000 701000 xent               TSX1    Z8AE$ERROR
        36 001036   000000 011000                    NOP     0

      531    21309    3                 END;

      532    21310
      533    21311    2       CALL XUO$EXSTNUM (P_EXST_NUMBER);

  21311 36 001037   200006 630500                    EPPR0   P_EXST_NUMBER,,AUTO
        36 001040   200076 450500                    STP0    SECTION_OFFSET+1,,AUTO
        36 001041   200076 630500                    EPPR0   SECTION_OFFSET+1,,AUTO
        36 001042   000003 631400 37                 EPPR1   3
        36 001043   000000 701000 xent               TSX1    XUO$EXSTNUM
        36 001044   000000 011000                    NOP     0

      534    21312
      535    21313    2       LINE_START = PROC$ -> PROC_.LINE_START;

  21313 36 001045   200065 470500                    LDP0    @PROC$,,AUTO
        36 001046   000000 471500                    LDP1    0,,PR0
        36 001047   100002 236100                    LDQ     2,,PR1
        36 001050   000022 772000                    QRL     18
        36 001051   200066 756100                    STQ     LINE_START,,AUTO

      536    21314    2       LEXICAL_LEVEL = PROC$ -> PROC_.LEVEL;

PL6.E3A0      #001=Z9IO$OUTPUT_OU File=Z9IO.:Z8A6TSI                             SAT 08/09/97 14:02 Page:89
  21314 36 001052   000000 471500                    LDP1    0,,PR0
        36 001053   100000 236100                    LDQ     0,,PR1
        36 001054   777777 376007                    ANQ     -1,DL
        36 001055   200067 756100                    STQ     LEXICAL_LEVEL,,AUTO

      537    21315
      538    21316    2       CALL XUO$LOGBLKEXSTINIT (P_LOGBLK_NUMBER,

  21316 36 001056   200067 631500                    EPPR1   LEXICAL_LEVEL,,AUTO
        36 001057   200102 451500                    STP1    SECTION_OFFSET+5,,AUTO
        36 001060   200070 633500                    EPPR3   LBLK_NAME_POINTER,,AUTO
        36 001061   200101 453500                    STP3    SECTION_OFFSET+4,,AUTO
        36 001062   200066 634500                    EPPR4   LINE_START,,AUTO
        36 001063   200100 454500                    STP4    SECTION_OFFSET+3,,AUTO
        36 001064   200006 635500                    EPPR5   P_EXST_NUMBER,,AUTO
        36 001065   200077 455500                    STP5    SECTION_OFFSET+2,,AUTO
        36 001066   200005 636500                    EPPR6   P_LOGBLK_NUMBER,,AUTO
        36 001067   200076 456500                    STP6    SECTION_OFFSET+1,,AUTO
        36 001070   200076 630500                    EPPR0   SECTION_OFFSET+1,,AUTO
        36 001071   000062 631400 37                 EPPR1   50
        36 001072   000000 701000 xent               TSX1    XUO$LOGBLKEXSTINIT
        36 001073   001075 702000 36                 TSX2    s:21323
        36 001074   001101 710000 36                 TRA     s:21330

      539    21317    2                                P_EXST_NUMBER,
      540    21318    2                                LINE_START,
      541    21319    2                                LBLK_NAME_POINTER,
      542    21320    2                                LEXICAL_LEVEL)
      543    21321    2          WHENALTRETURN
      544    21322    3                 DO;

      545    21323    3                   CALL Z8AE$ERROR(%E$ANNOTATOR_ABORT);

  21323 36 001075   000005 630400 37                 EPPR0   5
        36 001076   000003 631400 37                 EPPR1   3
        36 001077   000000 701000 xent               TSX1    Z8AE$ERROR
        36 001100   000000 011000                    NOP     0
PL6.E3A0      #001=Z9IO$OUTPUT_OU File=Z9IO.:Z8A6TSI                             SAT 08/09/97 14:02 Page:90

      546    21324    3                 END;

      547    21325
      548    21326        /* For compatibility with GCOS Object Deck generator, the above
      549    21327           code to prepare to put statement info on the Object Unit, must
      550    21328           not be executed until all variables info for the same logical
      551    21329           block has already been written. */
      552    21330    2       IF PROC$ -> PROC_.PROC_DEF$ -> ST.ID = %INTDEF    OR

  21330 36 001101   200065 470500                    LDP0    @PROC$,,AUTO
        36 001102   000000 471500                    LDP1    0,,PR0
        36 001103   100006 473500                    LDP3    6,,PR1
        36 001104   300000 220100                    LDX0    0,,PR3
        36 001105   000776 100003                    CMPX0   510,DU
        36 001106   001113 600000 36                 TZE     s:21334
        36 001107   000773 100003                    CMPX0   507,DU
        36 001110   001167 601000 36                 TNZ     s:21361
        36 001111   300003 234100                    SZN     3,,PR3
        36 001112   001167 604000 36                 TMI     s:21361

      553    21331    2         (PROC$ -> PROC_.PROC_DEF$ -> ST.ID = %SYMDEF_   AND
      554    21332    2         NOT PROC$ -> PROC_.PROC_DEF$ -> SYMDEF_.B.MAIN_PROGRAM )   THEN
      555    21333    3         DO;

      556    21334    3           P$ = PROC$ -> PROC_.PROC_DEF$;

  21334 36 001113   100006 236100                    LDQ     6,,PR1
        36 001114   200072 756100                    STQ     P$,,AUTO

      557    21335
      558    21336    3           IF P$ -> INTDEF.ARGLIST$ = ADDR(NIL) THEN

  21336 36 001115   200072 474500                    LDP4    P$,,AUTO
        36 001116   400005 236100                    LDQ     5,,PR4
        36 001117   000022 116000 37                 CMPQ    18
        36 001120   001123 601000 36                 TNZ     s:21339
PL6.E3A0      #001=Z9IO$OUTPUT_OU File=Z9IO.:Z8A6TSI                             SAT 08/09/97 14:02 Page:91

      559    21337    3             NUMBER_OF_ARGS = 0;

  21337 36 001121   200074 450100                    STZ     NUMBER_OF_ARGS,,AUTO
        36 001122   001130 710000 36                 TRA     s:21341

      560    21338    3           ELSE
      561    21339    3             NUMBER_OF_ARGS = P$ -> INTDEF.ARGLIST$ -> ARGLIST.N - 1;

  21339 36 001123   400005 475500                    LDP5    5,,PR4
        36 001124   500000 236100                    LDQ     0,,PR5
        36 001125   777777 376007                    ANQ     -1,DL
        36 001126   000001 136007                    SBLQ    1,DL
        36 001127   200074 756100                    STQ     NUMBER_OF_ARGS,,AUTO

      562    21340
      563    21341    3           PRIMARY_NAME_FLAG = TRUE;

  21341 36 001130   400000 236003                    LDQ     -131072,DU
        36 001131   200073 756100                    STQ     PRIMARY_NAME_FLAG,,AUTO

      564    21342
      565    21343    4           DO UNTIL P$ = ADDR(NIL);

      566    21344    4             SECTION_OFFSET = P$ -> INTDEF.SA;

  21344 36 001132   200072 470500                    LDP0    P$,,AUTO
        36 001133   000001 236100                    LDQ     1,,PR0
        36 001134   000022 772000                    QRL     18
        36 001135   200075 756100                    STQ     SECTION_OFFSET,,AUTO

      567    21345
      568    21346    4             CALL XUO$INTNTRY(P_LOGBLK_NUMBER,

  21346 36 001136   200074 631500                    EPPR1   NUMBER_OF_ARGS,,AUTO
        36 001137   200106 451500                    STP1    SECTION_OFFSET+9,,AUTO
        36 001140   000064 237000 37                 LDAQ    52
PL6.E3A0      #001=Z9IO$OUTPUT_OU File=Z9IO.:Z8A6TSI                             SAT 08/09/97 14:02 Page:92
        36 001141   200104 757100                    STAQ    SECTION_OFFSET+7,,AUTO
        36 001142   000010 236000 37                 LDQ     8
        36 001143   200103 756100                    STQ     SECTION_OFFSET+6,,AUTO
        36 001144   200073 633500                    EPPR3   PRIMARY_NAME_FLAG,,AUTO
        36 001145   200102 453500                    STP3    SECTION_OFFSET+5,,AUTO
        36 001146   200070 634500                    EPPR4   LBLK_NAME_POINTER,,AUTO
        36 001147   200101 454500                    STP4    SECTION_OFFSET+4,,AUTO
        36 001150   200075 635500                    EPPR5   SECTION_OFFSET,,AUTO
        36 001151   200100 455500                    STP5    SECTION_OFFSET+3,,AUTO
        36 001152   200077 756100                    STQ     SECTION_OFFSET+2,,AUTO
        36 001153   200005 636500                    EPPR6   P_LOGBLK_NUMBER,,AUTO
        36 001154   200076 456500                    STP6    SECTION_OFFSET+1,,AUTO
        36 001155   200076 630500                    EPPR0   SECTION_OFFSET+1,,AUTO
        36 001156   000063 631400 37                 EPPR1   51
        36 001157   000000 701000 xent               TSX1    XUO$INTNTRY
        36 001160   000000 011000                    NOP     0

      569    21347    4                              0,   /* SECTION NUMBER: may need update */
      570    21348    4                              SECTION_OFFSET,
      571    21349    4                              LBLK_NAME_POINTER,
      572    21350    4                              PRIMARY_NAME_FLAG,
      573    21351    4                              '0'B,   /* ALTRET FLAG */
      574    21352    4                              '1'B,   /* CHECK ARGS FLAG */
      575    21353    4                              0,      /* CALL TYPE: STD  */
      576    21354    4                              NUMBER_OF_ARGS);
      577    21355    4             PRIMARY_NAME_FLAG = FALSE;

  21355 36 001161   200073 450100                    STZ     PRIMARY_NAME_FLAG,,AUTO

      578    21356
      579    21357    4             P$ = P$ -> INTDEF.ENTRYS$;

  21357 36 001162   200072 470500                    LDP0    P$,,AUTO
        36 001163   000007 236100                    LDQ     7,,PR0
        36 001164   200072 756100                    STQ     P$,,AUTO

      580    21358    4           END; /* Do Until */
PL6.E3A0      #001=Z9IO$OUTPUT_OU File=Z9IO.:Z8A6TSI                             SAT 08/09/97 14:02 Page:93

  21358 36 001165   000022 116000 37                 CMPQ    18
        36 001166   001132 601000 36                 TNZ     s:21344

      581    21359    3         END;

      582    21360
      583    21361    2   END OPEN_LOGICAL_BLOCK;

  21361 36 001167   200064 221300                    LDX1  ! LOCAL_OBJ_WORD+2,,AUTO
        36 001170   000001 702211                    TSX2  ! 1,X1

      584    21362        %EJECT;
PL6.E3A0      #001=Z9IO$OUTPUT_OU File=Z9IO.:Z8A6TSI                             SAT 08/09/97 14:02 Page:94
      585    21363        /*-------------------*/
      586    21364    1     CLOSE_LOGICAL_BLOCK : PROC(PROC$);

  21364 36 001171   200070 741300       CLOSE_LOGIC* STX1  ! LBLK_NAME_POINTER,,AUTO

      587    21365        /*-------------------*/
      588    21366
      589    21367        /*I*
      590    21368                NAME: CLOSE_LOGICAL_BLOCK
      591    21369        DESCRIPTION: Close the logical blocks created by OPEN_LOGICAL_BLOCK.
      592    21370                       As OPEN_LOGICAL_BLOCK is expanded, this routine
      593    21371                       must be kept in sync.
      594    21372        */
      595    21373
      596    21374    2       DCL PROC$ PTR;
      597    21375
      598    21376    2       CALL XUO$EXSTNUM (P_EXST_NUMBER);

  21376 36 001172   200006 630500                    EPPR0   P_EXST_NUMBER,,AUTO
        36 001173   200076 450500                    STP0    SECTION_OFFSET+1,,AUTO
        36 001174   200076 630500                    EPPR0   SECTION_OFFSET+1,,AUTO
        36 001175   000003 631400 37                 EPPR1   3
        36 001176   000000 701000 xent               TSX1    XUO$EXSTNUM
        36 001177   000000 011000                    NOP     0

      599    21377
      600    21378    2       CALL XUO$LOGBLKEXSTTERM (PROC$ -> PROC_.LOG_BLK_NUMBER,

  21378 36 001200   200071 470500                    LDP0    @PROC$,,AUTO
        36 001201   000000 471500                    LDP1    0,,PR0
        36 001202   200007 633500                    EPPR3   LAST_LINE_NUMBER,,AUTO
        36 001203   200100 453500                    STP3    SECTION_OFFSET+3,,AUTO
        36 001204   200006 634500                    EPPR4   P_EXST_NUMBER,,AUTO
        36 001205   200077 454500                    STP4    SECTION_OFFSET+2,,AUTO
        36 001206   100004 635500                    EPPR5   4,,PR1
        36 001207   200076 455500                    STP5    SECTION_OFFSET+1,,AUTO
        36 001210   200076 630500                    EPPR0   SECTION_OFFSET+1,,AUTO
PL6.E3A0      #001=Z9IO$OUTPUT_OU File=Z9IO.:Z8A6TSI                             SAT 08/09/97 14:02 Page:95
        36 001211   000006 631400 37                 EPPR1   6
        36 001212   000000 701000 xent               TSX1    XUO$LOGBLKEXSTTERM
        36 001213   001215 702000 36                 TSX2    s:21383
        36 001214   001221 710000 36                 TRA     s:21386

      601    21379    2                                 P_EXST_NUMBER,
      602    21380    2                                 LAST_LINE_NUMBER)
      603    21381    2           WHENALTRETURN
      604    21382    3                 DO;

      605    21383    3                   CALL Z8AE$ERROR(%E$ANNOTATOR_ABORT);

  21383 36 001215   000005 630400 37                 EPPR0   5
        36 001216   000003 631400 37                 EPPR1   3
        36 001217   000000 701000 xent               TSX1    Z8AE$ERROR
        36 001220   000000 011000                    NOP     0

      606    21384    3                 END;

      607    21385
      608    21386    2       LOGICAL_BLOCK_COUNT = LOGICAL_BLOCK_COUNT - 1;

  21386 36 001221   000001 336007                    LCQ     1,DL
        36 001222   200031 056100                    ASQ     LOGICAL_BLOCK_COUNT,,AUTO

      609    21387
      610    21388
      611    21389    2   END CLOSE_LOGICAL_BLOCK;

  21389 36 001223   200070 221300                    LDX1  ! LBLK_NAME_POINTER,,AUTO
        36 001224   000001 702211                    TSX2  ! 1,X1

      612    21390        %EJECT;
PL6.E3A0      #001=Z9IO$OUTPUT_OU File=Z9IO.:Z8A6TSI                             SAT 08/09/97 14:02 Page:96
      613    21391        /*---------------------------*/
      614    21392    1     CLOSE_NESTED_LOGICAL_BLOCKS : PROC(PROC$, NEXT_SCOPE$);

  21392 36 001225   200064 741300       CLOSE_NESTE* STX1  ! LOCAL_OBJ_WORD+2,,AUTO

      615    21393        /*---------------------------*/
      616    21394
      617    21395        /*I*
      618    21396                 NAME: CLOSE_NESTED_LOGICAL_BLOCKS
      619    21397          DESCRIPTION: Accept two pointer arguments: PROC$ and NEXT_SCOPE$.
      620    21398                       PROC$ will point to a proc item that is the inner
      621    21399                       most block of a nested block structure.  NEXT_SCOPE$
      622    21400                       points to the next block that will be opened
      623    21401                       (or it should be nil for PROC$ without brothers).
      624    21402                       This procedure will close all the open blocks with a
      625    21403                       nesting level less than or equal to the level of
      626    21404                       NEXT_SCOPE$.
      627    21405        */
      628    21406
      629    21407    2   DCL PROC$ PTR;
      630    21408    2   DCL NEXT_SCOPE$ PTR;
      631    21409    2   DCL P$ PTR;
      632    21410
      633    21411
      634    21412    2       P$ = PROC$;

  21412 36 001226   200065 470500                    LDP0    @PROC$,,AUTO
        36 001227   000000 236100                    LDQ     0,,PR0
        36 001230   200067 756100                    STQ     P$,,AUTO

      635    21413
      636    21414    3       DO WHILE (P$ -> PROC_.FATHER ~= ADDR(NIL)) AND

  21414 36 001231   001241 710000 36                 TRA     s:21419

      637    21415    3                (P$ -> PROC_.BROTHER ~= NEXT_SCOPE$);
      638    21416    3         CALL CLOSE_LOGICAL_BLOCK(P$);
PL6.E3A0      #001=Z9IO$OUTPUT_OU File=Z9IO.:Z8A6TSI                             SAT 08/09/97 14:02 Page:97

  21416 36 001232   200067 630500                    EPPR0   P$,,AUTO
        36 001233   200071 450500                    STP0    @PROC$,,AUTO
        36 001234   001171 701000 36                 TSX1    CLOSE_LOGICAL_BLOCK
        36 001235   000000 011000                    NOP     0

      639    21417
      640    21418    3         P$ = P$ -> PROC_.FATHER;

  21418 36 001236   200067 470500                    LDP0    P$,,AUTO
        36 001237   000011 236100                    LDQ     9,,PR0
        36 001240   200067 756100                    STQ     P$,,AUTO

      641    21419    3       END; /* Do while */

  21419 36 001241   200067 470500                    LDP0    P$,,AUTO
        36 001242   000011 236100                    LDQ     9,,PR0
        36 001243   000022 116000 37                 CMPQ    18
        36 001244   001251 600000 36                 TZE     s:21421
        36 001245   200066 471500                    LDP1    @NEXT_SCOPE$,,AUTO
        36 001246   000010 236100                    LDQ     8,,PR0
        36 001247   100000 116100                    CMPQ    0,,PR1
        36 001250   001232 601000 36                 TNZ     s:21416

      642    21420
      643    21421    2       CALL CLOSE_LOGICAL_BLOCK(P$);

  21421 36 001251   200067 631500                    EPPR1   P$,,AUTO
        36 001252   200071 451500                    STP1    @PROC$,,AUTO
        36 001253   001171 701000 36                 TSX1    CLOSE_LOGICAL_BLOCK
        36 001254   000000 011000                    NOP     0

      644    21422
      645    21423            /*
      646    21424                    If NEXT_SCOPE$ was nil there may still be open
      647    21425                    blocks that need to be closed.
      648    21426            */
PL6.E3A0      #001=Z9IO$OUTPUT_OU File=Z9IO.:Z8A6TSI                             SAT 08/09/97 14:02 Page:98
      649    21427    3       DO WHILE (P$ -> PROC_.BROTHER = ADDR(NIL)) AND

  21427 36 001255   001265 710000 36                 TRA     s:21431

      650    21428    3                (P$ -> PROC_.FATHER ~= ADDR(NIL));
      651    21429    3         P$ = P$ -> PROC_.FATHER;

  21429 36 001256   200067 470500                    LDP0    P$,,AUTO
        36 001257   000011 236100                    LDQ     9,,PR0
        36 001260   200067 756100                    STQ     P$,,AUTO

      652    21430    3         CALL CLOSE_LOGICAL_BLOCK(P$);

  21430 36 001261   200067 630500                    EPPR0   P$,,AUTO
        36 001262   200071 450500                    STP0    @PROC$,,AUTO
        36 001263   001171 701000 36                 TSX1    CLOSE_LOGICAL_BLOCK
        36 001264   000000 011000                    NOP     0

      653    21431    3       END; /* Do While */

  21431 36 001265   200067 470500                    LDP0    P$,,AUTO
        36 001266   000010 236100                    LDQ     8,,PR0
        36 001267   000022 116000 37                 CMPQ    18
        36 001270   001274 601000 36                 TNZ     s:21434
        36 001271   000011 236100                    LDQ     9,,PR0
        36 001272   000022 116000 37                 CMPQ    18
        36 001273   001256 601000 36                 TNZ     s:21429

      654    21432
      655    21433
      656    21434    2   END CLOSE_NESTED_LOGICAL_BLOCKS;

  21434 36 001274   200064 221300                    LDX1  ! LOCAL_OBJ_WORD+2,,AUTO
        36 001275   000001 702211                    TSX2  ! 1,X1

      657    21435        %EJECT;
PL6.E3A0      #001=Z9IO$OUTPUT_OU File=Z9IO.:Z8A6TSI                             SAT 08/09/97 14:02 Page:99
      658    21436        /*------------------------*/
      659    21437    1     TERMINATE_LOGICAL_BLOCKS : PROC;

  21437 36 001276   200032 741300       TERMINATE_L* STX1  ! LOGICAL_BLOCK_COUNT+1,,AUTO

      660    21438        /*------------------------*/
      661    21439
      662    21440        /*I*
      663    21441              NAME: TERMINATE_LOGICAL_BLOCKS
      664    21442        DESCRIPTION: Finish processing of logical blocks.
      665    21443        */
      666    21444
      667    21445    2       CALL XUO$LOGBLKTERM

  21445 36 001277   000007 631400 37                 EPPR1   7
        36 001300   000000 701000 xent               TSX1    XUO$LOGBLKTERM
        36 001301   001303 702000 36                 TSX2    s:21448
        36 001302   001307 710000 36                 TRA     s:21451

      668    21446    2          WHENALTRETURN
      669    21447    3                 DO;

      670    21448    3                   CALL Z8AE$ERROR(%E$ANNOTATOR_ABORT);

  21448 36 001303   000005 630400 37                 EPPR0   5
        36 001304   000003 631400 37                 EPPR1   3
        36 001305   000000 701000 xent               TSX1    Z8AE$ERROR
        36 001306   000000 011000                    NOP     0

      671    21449    3                 END;

      672    21450
      673    21451    2       IF LOGICAL_BLOCK_COUNT ~= 0 THEN

  21451 36 001307   200031 235100                    LDA     LOGICAL_BLOCK_COUNT,,AUTO
        36 001310   001315 600000 36                 TZE     s:21454

PL6.E3A0      #001=Z9IO$OUTPUT_OU File=Z9IO.:Z8A6TSI                             SAT 08/09/97 14:02 Page:100
      674    21452    2         CALL Z8AE$ERROR(%E$ANNOTATOR_ABORT);

  21452 36 001311   000005 630400 37                 EPPR0   5
        36 001312   000003 631400 37                 EPPR1   3
        36 001313   000000 701000 xent               TSX1    Z8AE$ERROR
        36 001314   000000 011000                    NOP     0

      675    21453
      676    21454    2   END TERMINATE_LOGICAL_BLOCKS;

  21454 36 001315   200032 221300                    LDX1  ! LOGICAL_BLOCK_COUNT+1,,AUTO
        36 001316   000001 702211                    TSX2  ! 1,X1

      677    21455        %EJECT;
PL6.E3A0      #001=Z9IO$OUTPUT_OU File=Z9IO.:Z8A6TSI                             SAT 08/09/97 14:02 Page:101
      678    21456        /*-------------------*/
      679    21457    1     PROCESS_OBJECT_CODE : PROC;

  21457 36 001317   200032 741300       PROCESS_OBJ* STX1  ! LOGICAL_BLOCK_COUNT+1,,AUTO
        36 001320   002471 710000 36                 TRA     s:21897

      680    21458        /*--------------------*/
      681    21459
      682    21460        /*I*
      683    21461               NAME: PROCESS_OBJECT_CODE
      684    21462        DESCRIPTION: Sequence through the OBJ table and generate the OU using
      685    21463                       XUO routines.
      686    21464        */
      687    21465
      688    21466
      689    21467    2   DCL I SBIN WORD;
      690    21468    2   DCL BS_OU_INDEX SBIN;
      691    21469    2   DCL BS_OU_INDEX_TYPE SBIN;
      692    21470    2   DCL LABEL_INDEX SBIN WORD;
      693    21471    2   DCL SECT_NAME_INDEX UBIN WORD;
      694    21472    2   DCL SREF_INDEX UBIN WORD;
      695    21473
      696    21474        %DCL_EIS_BUFFER;
      697    21512
      698    21513        %EJECT;
PL6.E3A0      #001=Z9IO$OUTPUT_OU File=Z9IO.:Z8A6TSI                             SAT 08/09/97 14:02 Page:102
      699    21514        /*+++++++++++++++++++++++++*/
      700    21515    2     TRANSLATE_STATEMENT_TYPES : PROC (COBOL_TYPE, CP6_TYPE);

  21515 36 001321   200064 741300       TRANSLATE_S* STX1  ! LOCAL_OBJ_WORD+2,,AUTO

      701    21516        /*+++++++++++++++++++++++++*/
      702    21517
      703    21518    3     DCL COBOL_TYPE SBIN WORD;
      704    21519    3     DCL CP6_TYPE SBIN WORD;
      705    21520
      706    21521    4   DO CASE(COBOL_TYPE);

  21521 36 001322   200065 470500                    LDP0    @COBOL_TYPE,,AUTO
        36 001323   000000 235100                    LDA     0,,PR0
        36 001324   000100 115007                    CMPA    64,DL
        36 001325   001327 602005 36                 TNC     s:21521+5,AL
        36 001326   001606 710000 36                 TRA     s:21644
        36 001327   001606 710000 36                 TRA     s:21644
        36 001330   001572 710000 36                 TRA     s:21631
        36 001331   001566 710000 36                 TRA     s:21624
        36 001332   001432 710000 36                 TRA     s:21528
        36 001333   001436 710000 36                 TRA     s:21532
        36 001334   001442 710000 36                 TRA     s:21536
        36 001335   001572 710000 36                 TRA     s:21631
        36 001336   001566 710000 36                 TRA     s:21624
        36 001337   001606 710000 36                 TRA     s:21644
        36 001340   001572 710000 36                 TRA     s:21631
        36 001341   001606 710000 36                 TRA     s:21644
        36 001342   001572 710000 36                 TRA     s:21631
        36 001343   001566 710000 36                 TRA     s:21624
        36 001344   001606 710000 36                 TRA     s:21644
        36 001345   001446 710000 36                 TRA     s:21540
        36 001346   001452 710000 36                 TRA     s:21544
        36 001347   001606 710000 36                 TRA     s:21644
        36 001350   001456 710000 36                 TRA     s:21548
        36 001351   001456 710000 36                 TRA     s:21548
        36 001352   001462 710000 36                 TRA     s:21552
PL6.E3A0      #001=Z9IO$OUTPUT_OU File=Z9IO.:Z8A6TSI                             SAT 08/09/97 14:02 Page:103
        36 001353   001576 710000 36                 TRA     s:21636
        36 001354   001466 710000 36                 TRA     s:21556
        36 001355   001576 710000 36                 TRA     s:21636
        36 001356   001472 710000 36                 TRA     s:21560
        36 001357   001476 710000 36                 TRA     s:21564
        36 001360   001566 710000 36                 TRA     s:21624
        36 001361   001566 710000 36                 TRA     s:21624
        36 001362   001572 710000 36                 TRA     s:21631
        36 001363   001502 710000 36                 TRA     s:21568
        36 001364   001572 710000 36                 TRA     s:21631
        36 001365   001572 710000 36                 TRA     s:21631
        36 001366   001572 710000 36                 TRA     s:21631
        36 001367   001512 710000 36                 TRA     s:21575
        36 001370   001516 710000 36                 TRA     s:21579
        36 001371   001522 710000 36                 TRA     s:21583
        36 001372   001572 710000 36                 TRA     s:21631
        36 001373   001526 710000 36                 TRA     s:21587
        36 001374   001532 710000 36                 TRA     s:21591
        36 001375   001536 710000 36                 TRA     s:21595
        36 001376   001572 710000 36                 TRA     s:21631
        36 001377   001542 710000 36                 TRA     s:21600
        36 001400   001546 710000 36                 TRA     s:21604
        36 001401   001566 710000 36                 TRA     s:21624
        36 001402   001576 710000 36                 TRA     s:21636
        36 001403   001576 710000 36                 TRA     s:21636
        36 001404   001552 710000 36                 TRA     s:21608
        36 001405   001572 710000 36                 TRA     s:21631
        36 001406   001572 710000 36                 TRA     s:21631
        36 001407   001556 710000 36                 TRA     s:21612
        36 001410   001562 710000 36                 TRA     s:21619
        36 001411   001562 710000 36                 TRA     s:21619
        36 001412   001562 710000 36                 TRA     s:21619
        36 001413   001562 710000 36                 TRA     s:21619
        36 001414   001562 710000 36                 TRA     s:21619
        36 001415   001562 710000 36                 TRA     s:21619
        36 001416   001562 710000 36                 TRA     s:21619
        36 001417   001562 710000 36                 TRA     s:21619
PL6.E3A0      #001=Z9IO$OUTPUT_OU File=Z9IO.:Z8A6TSI                             SAT 08/09/97 14:02 Page:104
        36 001420   001562 710000 36                 TRA     s:21619
        36 001421   001562 710000 36                 TRA     s:21619
        36 001422   001562 710000 36                 TRA     s:21619
        36 001423   001602 710000 36                 TRA     s:21640
        36 001424   001427 710000 36                 TRA     s:21525
        36 001425   001427 710000 36                 TRA     s:21525
        36 001426   001506 710000 36                 TRA     s:21571

      707    21522
      708    21523    4     CASE(%S_TYPE_LABEL_DEF, %S_TYPE_VALUE_IS);

      709    21524
      710    21525    4       CP6_TYPE = %S@NULL;

  21525 36 001427   200066 471500                    LDP1    @CP6_TYPE,,AUTO
        36 001430   100000 450100                    STZ     0,,PR1
        36 001431   001611 710000 36                 TRA     s:21648

      711    21526
      712    21527    4     CASE(%S_TYPE_ALTER);

      713    21528    4       CP6_TYPE = %S@ALTER;

  21528 36 001432   000016 236007                    LDQ     14,DL
        36 001433   200066 471500                    LDP1    @CP6_TYPE,,AUTO
        36 001434   100000 756100                    STQ     0,,PR1
        36 001435   001611 710000 36                 TRA     s:21648

      714    21529
      715    21530    4     CASE(%S_TYPE_CALL);

      716    21531
      717    21532    4       CP6_TYPE = %S@CALL;

  21532 36 001436   000002 236007                    LDQ     2,DL
        36 001437   200066 471500                    LDP1    @CP6_TYPE,,AUTO
        36 001440   100000 756100                    STQ     0,,PR1
PL6.E3A0      #001=Z9IO$OUTPUT_OU File=Z9IO.:Z8A6TSI                             SAT 08/09/97 14:02 Page:105
        36 001441   001611 710000 36                 TRA     s:21648

      718    21533
      719    21534    4     CASE(%S_TYPE_CANCEL);

      720    21535
      721    21536    4       CP6_TYPE = %S@CANCEL;

  21536 36 001442   000064 236007                    LDQ     52,DL
        36 001443   200066 471500                    LDP1    @CP6_TYPE,,AUTO
        36 001444   100000 756100                    STQ     0,,PR1
        36 001445   001611 710000 36                 TRA     s:21648

      722    21537
      723    21538    4     CASE(%S_TYPE_ENTRY);

      724    21539
      725    21540    4       CP6_TYPE = %S@ENTRY;

  21540 36 001446   000147 236007                    LDQ     103,DL
        36 001447   200066 471500                    LDP1    @CP6_TYPE,,AUTO
        36 001450   100000 756100                    STQ     0,,PR1
        36 001451   001611 710000 36                 TRA     s:21648

      726    21541
      727    21542    4     CASE(%S_TYPE_EVALUATE);

      728    21543
      729    21544    4       CP6_TYPE = %S@EVALUATE;

  21544 36 001452   000017 236007                    LDQ     15,DL
        36 001453   200066 471500                    LDP1    @CP6_TYPE,,AUTO
        36 001454   100000 756100                    STQ     0,,PR1
        36 001455   001611 710000 36                 TRA     s:21648

      730    21545
      731    21546    4     CASE(%S_TYPE_EXIT, %S_TYPE_EXIT_PROGRAM);
PL6.E3A0      #001=Z9IO$OUTPUT_OU File=Z9IO.:Z8A6TSI                             SAT 08/09/97 14:02 Page:106

      732    21547
      733    21548    4       CP6_TYPE = %S@EXIT;

  21548 36 001456   000050 236007                    LDQ     40,DL
        36 001457   200066 471500                    LDP1    @CP6_TYPE,,AUTO
        36 001460   100000 756100                    STQ     0,,PR1
        36 001461   001611 710000 36                 TRA     s:21648

      734    21549
      735    21550    4     CASE(%S_TYPE_GO_TO);

      736    21551
      737    21552    4       CP6_TYPE = %S@GOTO;

  21552 36 001462   000010 236007                    LDQ     8,DL
        36 001463   200066 471500                    LDP1    @CP6_TYPE,,AUTO
        36 001464   100000 756100                    STQ     0,,PR1
        36 001465   001611 710000 36                 TRA     s:21648

      738    21553
      739    21554    4     CASE(%S_TYPE_IF);

      740    21555
      741    21556    4       CP6_TYPE = %S@IF;

  21556 36 001466   000005 236007                    LDQ     5,DL
        36 001467   200066 471500                    LDP1    @CP6_TYPE,,AUTO
        36 001470   100000 756100                    STQ     0,,PR1
        36 001471   001611 710000 36                 TRA     s:21648

      742    21557
      743    21558    4     CASE(%S_TYPE_INSPECT);

      744    21559
      745    21560    4       CP6_TYPE = %S@INSPECT;

PL6.E3A0      #001=Z9IO$OUTPUT_OU File=Z9IO.:Z8A6TSI                             SAT 08/09/97 14:02 Page:107
  21560 36 001472   000040 236007                    LDQ     32,DL
        36 001473   200066 471500                    LDP1    @CP6_TYPE,,AUTO
        36 001474   100000 756100                    STQ     0,,PR1
        36 001475   001611 710000 36                 TRA     s:21648

      746    21561
      747    21562    4     CASE(%S_TYPE_MERGE);

      748    21563
      749    21564    4       CP6_TYPE = %S@MERGE;

  21564 36 001476   000066 236007                    LDQ     54,DL
        36 001477   200066 471500                    LDP1    @CP6_TYPE,,AUTO
        36 001500   100000 756100                    STQ     0,,PR1
        36 001501   001611 710000 36                 TRA     s:21648

      750    21565
      751    21566    4     CASE(%S_TYPE_PERFORM);

      752    21567
      753    21568    4       CP6_TYPE = %S@PERFORM;

  21568 36 001502   000027 236007                    LDQ     23,DL
        36 001503   200066 471500                    LDP1    @CP6_TYPE,,AUTO
        36 001504   100000 756100                    STQ     0,,PR1
        36 001505   001611 710000 36                 TRA     s:21648

      754    21569
      755    21570    4     CASE(%S_TYPE_PROC);

      756    21571    4       CP6_TYPE = %S@PROC;

  21571 36 001506   000145 236007                    LDQ     101,DL
        36 001507   200066 471500                    LDP1    @CP6_TYPE,,AUTO
        36 001510   100000 756100                    STQ     0,,PR1
        36 001511   001611 710000 36                 TRA     s:21648

PL6.E3A0      #001=Z9IO$OUTPUT_OU File=Z9IO.:Z8A6TSI                             SAT 08/09/97 14:02 Page:108
      757    21572
      758    21573    4     CASE(%S_TYPE_RECEIVE);

      759    21574
      760    21575    4       CP6_TYPE = %S@RECEIVE;

  21575 36 001512   000067 236007                    LDQ     55,DL
        36 001513   200066 471500                    LDP1    @CP6_TYPE,,AUTO
        36 001514   100000 756100                    STQ     0,,PR1
        36 001515   001611 710000 36                 TRA     s:21648

      761    21576
      762    21577    4     CASE (%S_TYPE_RELEASE);

      763    21578
      764    21579    4       CP6_TYPE = %S@RELEASE;

  21579 36 001516   000061 236007                    LDQ     49,DL
        36 001517   200066 471500                    LDP1    @CP6_TYPE,,AUTO
        36 001520   100000 756100                    STQ     0,,PR1
        36 001521   001611 710000 36                 TRA     s:21648

      765    21580
      766    21581    4     CASE(%S_TYPE_RETURN);

      767    21582
      768    21583    4       CP6_TYPE = %S@RETURN;

  21583 36 001522   000011 236007                    LDQ     9,DL
        36 001523   200066 471500                    LDP1    @CP6_TYPE,,AUTO
        36 001524   100000 756100                    STQ     0,,PR1
        36 001525   001611 710000 36                 TRA     s:21648

      769    21584
      770    21585    4     CASE (%S_TYPE_SEND);

      771    21586
PL6.E3A0      #001=Z9IO$OUTPUT_OU File=Z9IO.:Z8A6TSI                             SAT 08/09/97 14:02 Page:109
      772    21587    4       CP6_TYPE = %S@SEND;

  21587 36 001526   000062 236007                    LDQ     50,DL
        36 001527   200066 471500                    LDP1    @CP6_TYPE,,AUTO
        36 001530   100000 756100                    STQ     0,,PR1
        36 001531   001611 710000 36                 TRA     s:21648

      773    21588
      774    21589    4     CASE(%S_TYPE_SET);

      775    21590
      776    21591    4       CP6_TYPE = %S@SET;

  21591 36 001532   000047 236007                    LDQ     39,DL
        36 001533   200066 471500                    LDP1    @CP6_TYPE,,AUTO
        36 001534   100000 756100                    STQ     0,,PR1
        36 001535   001611 710000 36                 TRA     s:21648

      777    21592
      778    21593    4     CASE(%S_TYPE_SORT);

      779    21594
      780    21595    4       CP6_TYPE = %S@SORT;

  21595 36 001536   000071 236007                    LDQ     57,DL
        36 001537   200066 471500                    LDP1    @CP6_TYPE,,AUTO
        36 001540   100000 756100                    STQ     0,,PR1
        36 001541   001611 710000 36                 TRA     s:21648

      781    21596
      782    21597
      783    21598    4     CASE(%S_TYPE_STRING);

      784    21599
      785    21600    4       CP6_TYPE = %S@STRING;

  21600 36 001542   000072 236007                    LDQ     58,DL
PL6.E3A0      #001=Z9IO$OUTPUT_OU File=Z9IO.:Z8A6TSI                             SAT 08/09/97 14:02 Page:110
        36 001543   200066 471500                    LDP1    @CP6_TYPE,,AUTO
        36 001544   100000 756100                    STQ     0,,PR1
        36 001545   001611 710000 36                 TRA     s:21648

      786    21601
      787    21602    4     CASE(%S_TYPE_STOP);

      788    21603
      789    21604    4       CP6_TYPE = %S@STOP;

  21604 36 001546   000030 236007                    LDQ     24,DL
        36 001547   200066 471500                    LDP1    @CP6_TYPE,,AUTO
        36 001550   100000 756100                    STQ     0,,PR1
        36 001551   001611 710000 36                 TRA     s:21648

      790    21605
      791    21606    4     CASE(%S_TYPE_UNSTRING);

      792    21607
      793    21608    4       CP6_TYPE = %S@UNSTRING;

  21608 36 001552   000073 236007                    LDQ     59,DL
        36 001553   200066 471500                    LDP1    @CP6_TYPE,,AUTO
        36 001554   100000 756100                    STQ     0,,PR1
        36 001555   001611 710000 36                 TRA     s:21648

      794    21609
      795    21610    4     CASE(%S_TYPE_SEARCH);

      796    21611
      797    21612    4       CP6_TYPE = %S@SEARCH;

  21612 36 001556   000070 236007                    LDQ     56,DL
        36 001557   200066 471500                    LDP1    @CP6_TYPE,,AUTO
        36 001560   100000 756100                    STQ     0,,PR1
        36 001561   001611 710000 36                 TRA     s:21648

PL6.E3A0      #001=Z9IO$OUTPUT_OU File=Z9IO.:Z8A6TSI                             SAT 08/09/97 14:02 Page:111
      798    21613
      799    21614    4     CASE (%S_TYPE_DML_ACCEPT, %S_TYPE_DML_CONNECT, %S_TYPE_DML_DISCONNECT,

      800    21615    4           %S_TYPE_DML_ERASE,  %S_TYPE_DML_FIND,    %S_TYPE_DML_FINISH,
      801    21616    4           %S_TYPE_DML_GET,        %S_TYPE_DML_MODIFY,      %S_TYPE_DML_READY,
      802    21617    4           %S_TYPE_DML_SET,        %S_TYPE_DML_STORE);
      803    21618
      804    21619    4       CP6_TYPE = %S@DATA_BASE;

  21619 36 001562   000063 236007                    LDQ     51,DL
        36 001563   200066 471500                    LDP1    @CP6_TYPE,,AUTO
        36 001564   100000 756100                    STQ     0,,PR1
        36 001565   001611 710000 36                 TRA     s:21648

      805    21620
      806    21621    4     CASE (%S_TYPE_ADD,  %S_TYPE_COMPUTE,  %S_TYPE_DIVIDE,  %S_TYPE_MOVE,

      807    21622    4           %S_TYPE_MULTIPLY,  %S_TYPE_SUBTRACT);
      808    21623
      809    21624    4       CP6_TYPE = %S@ASSIGNMENT;

  21624 36 001566   000001 236007                    LDQ     1,DL
        36 001567   200066 471500                    LDP1    @CP6_TYPE,,AUTO
        36 001570   100000 756100                    STQ     0,,PR1
        36 001571   001611 710000 36                 TRA     s:21648

      810    21625
      811    21626    4     CASE(%S_TYPE_ACCEPT,  %S_TYPE_CLOSE,  %S_TYPE_DELETE,  %S_TYPE_DISPLAY,

      812    21627    4          %S_TYPE_OPEN,    %S_TYPE_PURGE,  %S_TYPE_READ,    %S_TYPE_READ_LABEL,
      813    21628    4          %S_TYPE_REWRITE,  %S_TYPE_START,  %S_TYPE_WRITE,
      814    21629    4          %S_TYPE_WRITE_LABEL);
      815    21630
      816    21631    4       CP6_TYPE = %S@I_O;

  21631 36 001572   000031 236007                    LDQ     25,DL
        36 001573   200066 471500                    LDP1    @CP6_TYPE,,AUTO
PL6.E3A0      #001=Z9IO$OUTPUT_OU File=Z9IO.:Z8A6TSI                             SAT 08/09/97 14:02 Page:112
        36 001574   100000 756100                    STQ     0,,PR1
        36 001575   001611 710000 36                 TRA     s:21648

      817    21632
      818    21633    4     CASE(%S_TYPE_GENERATE, %S_TYPE_INITIATE, %S_TYPE_SUPPRESS,

      819    21634    4          %S_TYPE_TERMINATE);
      820    21635
      821    21636    4       CP6_TYPE = %S@REPORT_WRITER;

  21636 36 001576   000015 236007                    LDQ     13,DL
        36 001577   200066 471500                    LDP1    @CP6_TYPE,,AUTO
        36 001600   100000 756100                    STQ     0,,PR1
        36 001601   001611 710000 36                 TRA     s:21648

      822    21637
      823    21638    4     CASE(%S_TYPE_INITIALIZE);

      824    21639
      825    21640    4       CP6_TYPE = %S@INITIALIZE;

  21640 36 001602   000065 236007                    LDQ     53,DL
        36 001603   200066 471500                    LDP1    @CP6_TYPE,,AUTO
        36 001604   100000 756100                    STQ     0,,PR1
        36 001605   001611 710000 36                 TRA     s:21648

      826    21641
      827    21642    4     CASE(ELSE);

      828    21643
      829    21644    4       CP6_TYPE = %S@MISC;

  21644 36 001606   000150 236007                    LDQ     104,DL
        36 001607   200066 471500                    LDP1    @CP6_TYPE,,AUTO
        36 001610   100000 756100                    STQ     0,,PR1

      830    21645
PL6.E3A0      #001=Z9IO$OUTPUT_OU File=Z9IO.:Z8A6TSI                             SAT 08/09/97 14:02 Page:113
      831    21646    4   END;

      832    21647
      833    21648    3   END TRANSLATE_STATEMENT_TYPES;

  21648 36 001611   200064 221300                    LDX1  ! LOCAL_OBJ_WORD+2,,AUTO
        36 001612   000001 702211                    TSX2  ! 1,X1

      834    21649        %EJECT;
PL6.E3A0      #001=Z9IO$OUTPUT_OU File=Z9IO.:Z8A6TSI                             SAT 08/09/97 14:02 Page:114
      835    21650        /*++++++++++++++++++*/
      836    21651    2     GET_SECTION_NUMBER : PROC;

  21651 36 001613   200066 741300       GET_SECTION* STX1  ! @CP6_TYPE,,AUTO

      837    21652        /*++++++++++++++++++*/
      838    21653
      839    21654    3     DCL BS_ST$ PTR;
      840    21655    3     DCL I SBIN;
      841    21656
      842    21657    4     DO CASE (LOBJ$ -> OBJ_WORD.ST$ -> ST.ID);

  21657 36 001614   200024 470500                    LDP0    LOBJ$,,AUTO
        36 001615   000002 471500                    LDP1    2,,PR0
        36 001616   100000 236100                    LDQ     0,,PR1
        36 001617   000022 772000                    QRL     18
        36 001620   000772 136007                    SBLQ    506,DL
        36 001621   000007 116007                    CMPQ    7,DL
        36 001622   001624 602006 36                 TNC     s:21657+8,QL
        36 001623   001651 710000 36                 TRA     s:21671
        36 001624   001642 710000 36                 TRA     s:21666
        36 001625   001651 710000 36                 TRA     s:21671
        36 001626   001633 710000 36                 TRA     s:21661
        36 001627   001651 710000 36                 TRA     s:21671
        36 001630   001651 710000 36                 TRA     s:21671
        36 001631   001651 710000 36                 TRA     s:21671
        36 001632   001633 710000 36                 TRA     s:21661

      843    21658
      844    21659    4       CASE(%BLOCK, %SEGMENT);

      845    21660
      846    21661    4         BS_OU_INDEX = LOBJ$ -> OBJ_WORD.ST$ -> ST.OU_INDEX;

  21661 36 001633   100001 236100                    LDQ     1,,PR1
        36 001634   000022 736000                    QLS     18
        36 001635   000022 732000                    QRS     18
PL6.E3A0      #001=Z9IO$OUTPUT_OU File=Z9IO.:Z8A6TSI                             SAT 08/09/97 14:02 Page:115
        36 001636   200034 756100                    STQ     BS_OU_INDEX,,AUTO

      847    21662    4         BS_OU_INDEX_TYPE = 1;

  21662 36 001637   000001 235007                    LDA     1,DL
        36 001640   200035 755100                    STA     BS_OU_INDEX_TYPE,,AUTO
        36 001641   001757 710000 36                 TRA     s:21702

      848    21663
      849    21664    4       CASE(%SYMREF_);

      850    21665
      851    21666    4         BS_OU_INDEX = LOBJ$ -> OBJ_WORD.ST$ -> ST.OU_INDEX;

  21666 36 001642   100001 236100                    LDQ     1,,PR1
        36 001643   000022 736000                    QLS     18
        36 001644   000022 732000                    QRS     18
        36 001645   200034 756100                    STQ     BS_OU_INDEX,,AUTO

      852    21667    4         BS_OU_INDEX_TYPE = 2;

  21667 36 001646   000002 235007                    LDA     2,DL
        36 001647   200035 755100                    STA     BS_OU_INDEX_TYPE,,AUTO
        36 001650   001757 710000 36                 TRA     s:21702

      853    21668
      854    21669    4       CASE(ELSE);

      855    21670
      856    21671    5         DO CASE(LOBJ$ -> OBJ_WORD.ST$ -> VARIABLE.R);

  21671 36 001651   100000 236100                    LDQ     0,,PR1
        36 001652   000011 772000                    QRL     9
        36 001653   000777 376007                    ANQ     511,DL
        36 001654   000004 116007                    CMPQ    4,DL
        36 001655   001657 602006 36                 TNC     s:21671+6,QL
        36 001656   001757 710000 36                 TRA     s:21702
PL6.E3A0      #001=Z9IO$OUTPUT_OU File=Z9IO.:Z8A6TSI                             SAT 08/09/97 14:02 Page:116
        36 001657   001663 710000 36                 TRA     s:21674
        36 001660   001670 710000 36                 TRA     s:21678
        36 001661   001731 710000 36                 TRA     s:21693
        36 001662   001702 710000 36                 TRA     s:21684

      857    21672
      858    21673    5           CASE(%ABSOLUTE);

      859    21674    5             CALL Z8AE$ERROR (%E$ANNOTATOR_ABORT);

  21674 36 001663   000005 630400 37                 EPPR0   5
        36 001664   000003 631400 37                 EPPR1   3
        36 001665   000000 701000 xent               TSX1    Z8AE$ERROR
        36 001666   000000 011000                    NOP     0
        36 001667   001757 710000 36                 TRA     s:21702

      860    21675
      861    21676    5           CASE(%PROGRAM);

      862    21677
      863    21678    5             BS_OU_INDEX = COMCOM.SEGMENT$ (LOBJ$ -> OBJ_WORD.ST$ -> VARIABLE.COUNT)

  21678 36 001670   100000 720100                    LXL0    0,,PR1
        36 001671   000777 360003                    ANX0    511,DU
        36 001672   000150 473410 xsym               LDP3    COMCOM+104,X0
        36 001673   300001 236100                    LDQ     1,,PR3
        36 001674   000022 736000                    QLS     18
        36 001675   000022 732000                    QRS     18
        36 001676   200034 756100                    STQ     BS_OU_INDEX,,AUTO

      864    21679    5                               -> ST.OU_INDEX;
      865    21680    5             BS_OU_INDEX_TYPE = 1;

  21680 36 001677   000001 235007                    LDA     1,DL
        36 001700   200035 755100                    STA     BS_OU_INDEX_TYPE,,AUTO
        36 001701   001757 710000 36                 TRA     s:21702

PL6.E3A0      #001=Z9IO$OUTPUT_OU File=Z9IO.:Z8A6TSI                             SAT 08/09/97 14:02 Page:117
      866    21681
      867    21682    5           CASE(%BLOCK_);

      868    21683
      869    21684    5             BS_ST$ = COMCOM.BLOCK$;

  21684 36 001702   000145 236000 xsym               LDQ     COMCOM+101
        36 001703   200067 756100                    STQ     BS_ST$,,AUTO

      870    21685    6             DO I = 1 TO LOBJ$ -> OBJ_WORD.ST$ -> VARIABLE.COUNT -1;

  21685 36 001704   000001 235007                    LDA     1,DL
        36 001705   200070 755100                    STA     I,,AUTO
        36 001706   001713 710000 36                 TRA     s:21687+1

      871    21686    6               BS_ST$ = BS_ST$ -> VARIABLE.NEXT;

  21686 36 001707   200067 470500                    LDP0    BS_ST$,,AUTO
        36 001710   000004 236100                    LDQ     4,,PR0
        36 001711   200067 756100                    STQ     BS_ST$,,AUTO

      872    21687    6             END;

  21687 36 001712   200070 054100                    AOS     I,,AUTO
        36 001713   200024 470500                    LDP0    LOBJ$,,AUTO
        36 001714   000002 471500                    LDP1    2,,PR0
        36 001715   100000 236100                    LDQ     0,,PR1
        36 001716   000777 376007                    ANQ     511,DL
        36 001717   200070 116100                    CMPQ    I,,AUTO
        36 001720   001707 605400 36                 TPNZ    s:21686

      873    21688    5             BS_OU_INDEX = BS_ST$ -> ST.OU_INDEX;

  21688 36 001721   200067 473500                    LDP3    BS_ST$,,AUTO
        36 001722   300001 236100                    LDQ     1,,PR3
        36 001723   000022 736000                    QLS     18
        36 001724   000022 732000                    QRS     18
PL6.E3A0      #001=Z9IO$OUTPUT_OU File=Z9IO.:Z8A6TSI                             SAT 08/09/97 14:02 Page:118
        36 001725   200034 756100                    STQ     BS_OU_INDEX,,AUTO

      874    21689    5             BS_OU_INDEX_TYPE = 1;

  21689 36 001726   000001 235007                    LDA     1,DL
        36 001727   200035 755100                    STA     BS_OU_INDEX_TYPE,,AUTO
        36 001730   001757 710000 36                 TRA     s:21702

      875    21690
      876    21691    5           CASE(%EXT_PROGRAM);

      877    21692
      878    21693    5             BS_ST$ = COMCOM.SYMREF$;

  21693 36 001731   000436 236000 xsym               LDQ     COMCOM+286
        36 001732   200067 756100                    STQ     BS_ST$,,AUTO

      879    21694    6             DO I = 1 TO LOBJ$ -> OBJ_WORD.ST$ -> VARIABLE.COUNT - 1;

  21694 36 001733   000001 235007                    LDA     1,DL
        36 001734   200070 755100                    STA     I,,AUTO
        36 001735   001742 710000 36                 TRA     s:21696+1

      880    21695    6               BS_ST$ = BS_ST$ -> VARIABLE.NEXT;

  21695 36 001736   200067 470500                    LDP0    BS_ST$,,AUTO
        36 001737   000004 236100                    LDQ     4,,PR0
        36 001740   200067 756100                    STQ     BS_ST$,,AUTO

      881    21696    6             END;

  21696 36 001741   200070 054100                    AOS     I,,AUTO
        36 001742   200024 470500                    LDP0    LOBJ$,,AUTO
        36 001743   000002 471500                    LDP1    2,,PR0
        36 001744   100000 236100                    LDQ     0,,PR1
        36 001745   000777 376007                    ANQ     511,DL
        36 001746   200070 116100                    CMPQ    I,,AUTO
PL6.E3A0      #001=Z9IO$OUTPUT_OU File=Z9IO.:Z8A6TSI                             SAT 08/09/97 14:02 Page:119
        36 001747   001736 605400 36                 TPNZ    s:21695

      882    21697    5             BS_OU_INDEX = BS_ST$ -> ST.OU_INDEX;

  21697 36 001750   200067 473500                    LDP3    BS_ST$,,AUTO
        36 001751   300001 236100                    LDQ     1,,PR3
        36 001752   000022 736000                    QLS     18
        36 001753   000022 732000                    QRS     18
        36 001754   200034 756100                    STQ     BS_OU_INDEX,,AUTO

      883    21698    5             BS_OU_INDEX_TYPE = 2;

  21698 36 001755   000002 235007                    LDA     2,DL
        36 001756   200035 755100                    STA     BS_OU_INDEX_TYPE,,AUTO

      884    21699    5         END;

      885    21700    4     END;

      886    21701
      887    21702    3   END GET_SECTION_NUMBER;

  21702 36 001757   200066 221300                    LDX1  ! @CP6_TYPE,,AUTO
        36 001760   000001 702211                    TSX2  ! 1,X1

      888    21703        %EJECT;
PL6.E3A0      #001=Z9IO$OUTPUT_OU File=Z9IO.:Z8A6TSI                             SAT 08/09/97 14:02 Page:120
      889    21704        /*++++++++++*/
      890    21705    2     RELOCATION : PROC;

  21705 36 001761   200064 741300       RELOCATION   STX1  ! LOCAL_OBJ_WORD+2,,AUTO

      891    21706        /*++++++++++*/
      892    21707
      893    21708    3     DCL SHORT_FLAG BOOLEAN;
      894    21709
      895    21710          /* Check for Half word relocation */
      896    21711
      897    21712    3     IF LOBJ$ -> OBJ_WORD.B.HALF_REL THEN

  21712 36 001762   200024 470500                    LDP0    LOBJ$,,AUTO
        36 001763   000000 236100                    LDQ     0,,PR0
        36 001764   040000 316007                    CANQ    16384,DL
        36 001765   002107 600000 36                 TZE     s:21766

      898    21713    4       DO;

      899    21714    4         CALL GET_SECTION_NUMBER;

  21714 36 001766   001613 701000 36                 TSX1    GET_SECTION_NUMBER
        36 001767   000000 011000                    NOP     0

      900    21715    4         SHORT_FLAG = FALSE;

  21715 36 001770   200065 450100                    STZ     SHORT_FLAG,,AUTO

      901    21716
      902    21717    5         DO CASE (EIS_BUFFER_LEN);

  21717 36 001771   200041 235100                    LDA     EIS_BUFFER_LEN,,AUTO
        36 001772   000004 115007                    CMPA    4,DL
        36 001773   001775 602005 36                 TNC     s:21717+4,AL
        36 001774   002030 710000 36                 TRA     s:21736
        36 001775   002001 710000 36                 TRA     s:21720
PL6.E3A0      #001=Z9IO$OUTPUT_OU File=Z9IO.:Z8A6TSI                             SAT 08/09/97 14:02 Page:121
        36 001776   002007 710000 36                 TRA     s:21724
        36 001777   002015 710000 36                 TRA     s:21728
        36 002000   002023 710000 36                 TRA     s:21732

      903    21718
      904    21719    5           CASE(0);

      905    21720    5             IF LOCAL_OBJ_WORD.AR THEN

  21720 36 002001   200062 236100                    LDQ     LOCAL_OBJ_WORD,,AUTO
        36 002002   000100 316007                    CANQ    64,DL
        36 002003   002030 600000 36                 TZE     s:21736

      906    21721    5               SHORT_FLAG = TRUE;

  21721 36 002004   400000 236003                    LDQ     -131072,DU
        36 002005   200065 756100                    STQ     SHORT_FLAG,,AUTO
        36 002006   002030 710000 36                 TRA     s:21736

      907    21722
      908    21723    5           CASE(1);

      909    21724    5             IF EIS_BUFFER.EWORD.INST.AR1 THEN

  21724 36 002007   200045 236100                    LDQ     EIS_BUFFER+3,,AUTO
        36 002010   000100 316007                    CANQ    64,DL
        36 002011   002030 600000 36                 TZE     s:21736

      910    21725    5               SHORT_FLAG = TRUE;

  21725 36 002012   400000 236003                    LDQ     -131072,DU
        36 002013   200065 756100                    STQ     SHORT_FLAG,,AUTO
        36 002014   002030 710000 36                 TRA     s:21736

      911    21726
      912    21727    5           CASE(2);

PL6.E3A0      #001=Z9IO$OUTPUT_OU File=Z9IO.:Z8A6TSI                             SAT 08/09/97 14:02 Page:122
      913    21728    5             IF EIS_BUFFER.EWORD.INST.AR2 THEN

  21728 36 002015   200045 236100                    LDQ     EIS_BUFFER+3,,AUTO
        36 002016   000100 316003                    CANQ    64,DU
        36 002017   002030 600000 36                 TZE     s:21736

      914    21729    5               SHORT_FLAG = TRUE;

  21729 36 002020   400000 236003                    LDQ     -131072,DU
        36 002021   200065 756100                    STQ     SHORT_FLAG,,AUTO
        36 002022   002030 710000 36                 TRA     s:21736

      915    21730
      916    21731    5           CASE(3);

      917    21732    5             IF EIS_BUFFER.EWORD.INST.AR3 THEN

  21732 36 002023   200045 236100                    LDQ     EIS_BUFFER+3,,AUTO
        36 002024   100000 316003                    CANQ    32768,DU
        36 002025   002030 600000 36                 TZE     s:21736

      918    21733    5               SHORT_FLAG = TRUE;

  21733 36 002026   400000 236003                    LDQ     -131072,DU
        36 002027   200065 756100                    STQ     SHORT_FLAG,,AUTO

      919    21734    5         END;

      920    21735
      921    21736    4         IF SHORT_FLAG THEN

  21736 36 002030   200065 234100                    SZN     SHORT_FLAG,,AUTO
        36 002031   002061 605000 36                 TPL     s:21750

      922    21737    4           CALL XUO$RELOC (OBJ_SECT_NUMBER,

  21737 36 002032   000067 236000 37                 LDQ     55
PL6.E3A0      #001=Z9IO$OUTPUT_OU File=Z9IO.:Z8A6TSI                             SAT 08/09/97 14:02 Page:123
        36 002033   200104 756100                    STQ     SECTION_OFFSET+7,,AUTO
        36 002034   000070 237000 37                 LDAQ    56
        36 002035   200102 757100                    STAQ    SECTION_OFFSET+5,,AUTO
        36 002036   200034 630500                    EPPR0   BS_OU_INDEX,,AUTO
        36 002037   200101 450500                    STP0    SECTION_OFFSET+4,,AUTO
        36 002040   200035 631500                    EPPR1   BS_OU_INDEX_TYPE,,AUTO
        36 002041   200100 451500                    STP1    SECTION_OFFSET+3,,AUTO
        36 002042   200024 236100                    LDQ     LOBJ$,,AUTO
        36 002043   000001 036003                    ADLQ    1,DU
        36 002044   200077 756100                    STQ     SECTION_OFFSET+2,,AUTO
        36 002045   200013 633500                    EPPR3   OBJ_SECT_NUMBER,,AUTO
        36 002046   200076 453500                    STP3    SECTION_OFFSET+1,,AUTO
        36 002047   200076 630500                    EPPR0   SECTION_OFFSET+1,,AUTO
        36 002050   000015 631400 37                 EPPR1   13
        36 002051   000000 701000 xent               TSX1    XUO$RELOC
        36 002052   002054 702000 36                 TSX2    s:21747
        36 002053   002060 710000 36                 TRA     s:21748

      923    21738    4                           LOBJ$ -> OBJ_WORD.OFFSET,
      924    21739    4                           BS_OU_INDEX_TYPE,
      925    21740    4                           BS_OU_INDEX,
      926    21741    4                           1,
      927    21742    4                           3,
      928    21743    4                           17,
      929    21744    4                           , )
      930    21745    4               WHENALTRETURN
      931    21746    5                     DO;

      932    21747    5                       CALL Z8AE$ERROR(%E$ANNOTATOR_ABORT);

  21747 36 002054   000005 630400 37                 EPPR0   5
        36 002055   000003 631400 37                 EPPR1   3
        36 002056   000000 701000 xent               TSX1    Z8AE$ERROR
        36 002057   000000 011000                    NOP     0

      933    21748    5                     END;

PL6.E3A0      #001=Z9IO$OUTPUT_OU File=Z9IO.:Z8A6TSI                             SAT 08/09/97 14:02 Page:124
  21748 36 002060   002107 710000 36                 TRA     s:21766

      934    21749    4         ELSE
      935    21750    4           CALL XUO$RELOC (OBJ_SECT_NUMBER,

  21750 36 002061   000067 236000 37                 LDQ     55
        36 002062   200104 756100                    STQ     SECTION_OFFSET+7,,AUTO
        36 002063   000072 237000 37                 LDAQ    58
        36 002064   200102 757100                    STAQ    SECTION_OFFSET+5,,AUTO
        36 002065   200034 630500                    EPPR0   BS_OU_INDEX,,AUTO
        36 002066   200101 450500                    STP0    SECTION_OFFSET+4,,AUTO
        36 002067   200035 631500                    EPPR1   BS_OU_INDEX_TYPE,,AUTO
        36 002070   200100 451500                    STP1    SECTION_OFFSET+3,,AUTO
        36 002071   200024 236100                    LDQ     LOBJ$,,AUTO
        36 002072   000001 036003                    ADLQ    1,DU
        36 002073   200077 756100                    STQ     SECTION_OFFSET+2,,AUTO
        36 002074   200013 633500                    EPPR3   OBJ_SECT_NUMBER,,AUTO
        36 002075   200076 453500                    STP3    SECTION_OFFSET+1,,AUTO
        36 002076   200076 630500                    EPPR0   SECTION_OFFSET+1,,AUTO
        36 002077   000015 631400 37                 EPPR1   13
        36 002100   000000 701000 xent               TSX1    XUO$RELOC
        36 002101   002103 702000 36                 TSX2    s:21760
        36 002102   002107 710000 36                 TRA     s:21766

      936    21751    4                           LOBJ$ -> OBJ_WORD.OFFSET,
      937    21752    4                           BS_OU_INDEX_TYPE,
      938    21753    4                           BS_OU_INDEX,
      939    21754    4                           1,
      940    21755    4                           0,
      941    21756    4                           17,
      942    21757    4                           , )
      943    21758    4               WHENALTRETURN
      944    21759    5                     DO;

      945    21760    5                       CALL Z8AE$ERROR(%E$ANNOTATOR_ABORT);

  21760 36 002103   000005 630400 37                 EPPR0   5
PL6.E3A0      #001=Z9IO$OUTPUT_OU File=Z9IO.:Z8A6TSI                             SAT 08/09/97 14:02 Page:125
        36 002104   000003 631400 37                 EPPR1   3
        36 002105   000000 701000 xent               TSX1    Z8AE$ERROR
        36 002106   000000 011000                    NOP     0

      946    21761    5                     END;

      947    21762    4       END;

      948    21763
      949    21764          /* Check for full word pointer relocation */
      950    21765
      951    21766    3     IF LOBJ$ -> OBJ_WORD.B.WORD_REL THEN

  21766 36 002107   200024 470500                    LDP0    LOBJ$,,AUTO
        36 002110   000000 236100                    LDQ     0,,PR0
        36 002111   002000 316007                    CANQ    1024,DL
        36 002112   002467 600000 36                 TZE     s:21893

      952    21767    4       DO CASE (LOBJ$ -> OBJ_WORD.ST$ -> ST.ID);

  21767 36 002113   000002 471500                    LDP1    2,,PR0
        36 002114   100000 236100                    LDQ     0,,PR1
        36 002115   000022 772000                    QRL     18
        36 002116   000751 136007                    SBLQ    489,DL
        36 002117   000037 116007                    CMPQ    31,DL
        36 002120   002122 602006 36                 TNC     s:21767+7,QL
        36 002121   002463 710000 36                 TRA     s:21888
        36 002122   002404 710000 36                 TRA     s:21859
        36 002123   002463 710000 36                 TRA     s:21888
        36 002124   002463 710000 36                 TRA     s:21888
        36 002125   002463 710000 36                 TRA     s:21888
        36 002126   002463 710000 36                 TRA     s:21888
        36 002127   002463 710000 36                 TRA     s:21888
        36 002130   002463 710000 36                 TRA     s:21888
        36 002131   002404 710000 36                 TRA     s:21859
        36 002132   002463 710000 36                 TRA     s:21888
        36 002133   002463 710000 36                 TRA     s:21888
PL6.E3A0      #001=Z9IO$OUTPUT_OU File=Z9IO.:Z8A6TSI                             SAT 08/09/97 14:02 Page:126
        36 002134   002463 710000 36                 TRA     s:21888
        36 002135   002463 710000 36                 TRA     s:21888
        36 002136   002404 710000 36                 TRA     s:21859
        36 002137   002404 710000 36                 TRA     s:21859
        36 002140   002404 710000 36                 TRA     s:21859
        36 002141   002404 710000 36                 TRA     s:21859
        36 002142   002404 710000 36                 TRA     s:21859
        36 002143   002250 710000 36                 TRA     s:21798
        36 002144   002404 710000 36                 TRA     s:21859
        36 002145   002161 710000 36                 TRA     s:21771
        36 002146   002463 710000 36                 TRA     s:21888
        36 002147   002404 710000 36                 TRA     s:21859
        36 002150   002404 710000 36                 TRA     s:21859
        36 002151   002161 710000 36                 TRA     s:21771
        36 002152   002463 710000 36                 TRA     s:21888
        36 002153   002404 710000 36                 TRA     s:21859
        36 002154   002404 710000 36                 TRA     s:21859
        36 002155   002404 710000 36                 TRA     s:21859
        36 002156   002404 710000 36                 TRA     s:21859
        36 002157   002463 710000 36                 TRA     s:21888
        36 002160   002331 710000 36                 TRA     s:21821

      953    21768
      954    21769    4         CASE (%BLOCK, %SEGMENT);

      955    21770
      956    21771    4           CALL XUO$RELOC (OBJ_SECT_NUMBER,

  21771 36 002161   100001 236100                    LDQ     1,,PR1
        36 002162   000022 736000                    QLS     18
        36 002163   000022 732000                    QRS     18
        36 002164   200076 756100                    STQ     SECTION_OFFSET+1,,AUTO
        36 002165   000067 236000 37                 LDQ     55
        36 002166   200106 756100                    STQ     SECTION_OFFSET+9,,AUTO
        36 002167   000072 237000 37                 LDAQ    58
        36 002170   200104 757100                    STAQ    SECTION_OFFSET+7,,AUTO
        36 002171   200076 631500                    EPPR1   SECTION_OFFSET+1,,AUTO
PL6.E3A0      #001=Z9IO$OUTPUT_OU File=Z9IO.:Z8A6TSI                             SAT 08/09/97 14:02 Page:127
        36 002172   200103 451500                    STP1    SECTION_OFFSET+6,,AUTO
        36 002173   000014 236000 37                 LDQ     12
        36 002174   200102 756100                    STQ     SECTION_OFFSET+5,,AUTO
        36 002175   200024 236100                    LDQ     LOBJ$,,AUTO
        36 002176   000001 036003                    ADLQ    1,DU
        36 002177   200101 756100                    STQ     SECTION_OFFSET+4,,AUTO
        36 002200   200013 633500                    EPPR3   OBJ_SECT_NUMBER,,AUTO
        36 002201   200100 453500                    STP3    SECTION_OFFSET+3,,AUTO
        36 002202   200100 630500                    EPPR0   SECTION_OFFSET+3,,AUTO
        36 002203   000015 631400 37                 EPPR1   13
        36 002204   000000 701000 xent               TSX1    XUO$RELOC
        36 002205   002207 702000 36                 TSX2    s:21781
        36 002206   002213 710000 36                 TRA     s:21783

      957    21772    4                           LOBJ$ -> OBJ_WORD.OFFSET,
      958    21773    4                           1,     /* Section */
      959    21774    4                           BINBIT(LOBJ$ -> OBJ_WORD.ST$ -> ST.OU_INDEX, 36),
      960    21775    4                           1,     /* Add relocations */
      961    21776    4                           0,      /* Word portion of pointer */
      962    21777    4                           17,
      963    21778    4                           , )
      964    21779    4               WHENALTRETURN
      965    21780    5                     DO;

      966    21781    5                       CALL Z8AE$ERROR(%E$ANNOTATOR_ABORT);

  21781 36 002207   000005 630400 37                 EPPR0   5
        36 002210   000003 631400 37                 EPPR1   3
        36 002211   000000 701000 xent               TSX1    Z8AE$ERROR
        36 002212   000000 011000                    NOP     0

      967    21782    5                     END;

      968    21783    4           CALL XUO$RELOC (OBJ_SECT_NUMBER,

  21783 36 002213   200024 470500                    LDP0    LOBJ$,,AUTO
        36 002214   000002 471500                    LDP1    2,,PR0
PL6.E3A0      #001=Z9IO$OUTPUT_OU File=Z9IO.:Z8A6TSI                             SAT 08/09/97 14:02 Page:128
        36 002215   100001 236100                    LDQ     1,,PR1
        36 002216   000022 736000                    QLS     18
        36 002217   000022 732000                    QRS     18
        36 002220   200076 756100                    STQ     SECTION_OFFSET+1,,AUTO
        36 002221   000075 236000 37                 LDQ     61
        36 002222   200106 756100                    STQ     SECTION_OFFSET+9,,AUTO
        36 002223   000072 237000 37                 LDAQ    58
        36 002224   200104 757100                    STAQ    SECTION_OFFSET+7,,AUTO
        36 002225   200076 631500                    EPPR1   SECTION_OFFSET+1,,AUTO
        36 002226   200103 451500                    STP1    SECTION_OFFSET+6,,AUTO
        36 002227   000021 236000 37                 LDQ     17
        36 002230   200102 756100                    STQ     SECTION_OFFSET+5,,AUTO
        36 002231   200024 236100                    LDQ     LOBJ$,,AUTO
        36 002232   000001 036003                    ADLQ    1,DU
        36 002233   200101 756100                    STQ     SECTION_OFFSET+4,,AUTO
        36 002234   200013 633500                    EPPR3   OBJ_SECT_NUMBER,,AUTO
        36 002235   200100 453500                    STP3    SECTION_OFFSET+3,,AUTO
        36 002236   200100 630500                    EPPR0   SECTION_OFFSET+3,,AUTO
        36 002237   000015 631400 37                 EPPR1   13
        36 002240   000000 701000 xent               TSX1    XUO$RELOC
        36 002241   002243 702000 36                 TSX2    s:21793
        36 002242   002247 710000 36                 TRA     s:21794

      969    21784    4                           LOBJ$ -> OBJ_WORD.OFFSET,
      970    21785    4                           5,     /* Segid */
      971    21786    4                           BINBIT(LOBJ$ -> OBJ_WORD.ST$ -> ST.OU_INDEX, 36),
      972    21787    4                           1,     /* Add relocations */
      973    21788    4                           0,     /* Full word reloc */
      974    21789    4                           35,
      975    21790    4                           , )
      976    21791    4               WHENALTRETURN
      977    21792    5                     DO;

      978    21793    5                       CALL Z8AE$ERROR(%E$ANNOTATOR_ABORT);

  21793 36 002243   000005 630400 37                 EPPR0   5
        36 002244   000003 631400 37                 EPPR1   3
PL6.E3A0      #001=Z9IO$OUTPUT_OU File=Z9IO.:Z8A6TSI                             SAT 08/09/97 14:02 Page:129
        36 002245   000000 701000 xent               TSX1    Z8AE$ERROR
        36 002246   000000 011000                    NOP     0

      979    21794    5                     END;

  21794 36 002247   002467 710000 36                 TRA     s:21893

      980    21795
      981    21796    4         CASE (%SYMREF_);

      982    21797
      983    21798    4           CALL XUO$RELOC (OBJ_SECT_NUMBER,

  21798 36 002250   100001 236100                    LDQ     1,,PR1
        36 002251   000022 736000                    QLS     18
        36 002252   000022 732000                    QRS     18
        36 002253   200076 756100                    STQ     SECTION_OFFSET+1,,AUTO
        36 002254   000067 236000 37                 LDQ     55
        36 002255   200106 756100                    STQ     SECTION_OFFSET+9,,AUTO
        36 002256   000072 237000 37                 LDAQ    58
        36 002257   200104 757100                    STAQ    SECTION_OFFSET+7,,AUTO
        36 002260   200076 631500                    EPPR1   SECTION_OFFSET+1,,AUTO
        36 002261   200103 451500                    STP1    SECTION_OFFSET+6,,AUTO
        36 002262   000077 236000 37                 LDQ     63
        36 002263   200102 756100                    STQ     SECTION_OFFSET+5,,AUTO
        36 002264   200024 236100                    LDQ     LOBJ$,,AUTO
        36 002265   000001 036003                    ADLQ    1,DU
        36 002266   200101 756100                    STQ     SECTION_OFFSET+4,,AUTO
        36 002267   200013 633500                    EPPR3   OBJ_SECT_NUMBER,,AUTO
        36 002270   200100 453500                    STP3    SECTION_OFFSET+3,,AUTO
        36 002271   200100 630500                    EPPR0   SECTION_OFFSET+3,,AUTO
        36 002272   000015 631400 37                 EPPR1   13
        36 002273   000000 701000 xent               TSX1    XUO$RELOC
        36 002274   002276 702000 36                 TSX2    s:21808
        36 002275   002302 710000 36                 TRA     s:21810

      984    21799    4                          LOBJ$ -> OBJ_WORD.OFFSET,
PL6.E3A0      #001=Z9IO$OUTPUT_OU File=Z9IO.:Z8A6TSI                             SAT 08/09/97 14:02 Page:130
      985    21800    4                          2,      /* ENTREF */
      986    21801    4                          BINBIT (LOBJ$ -> OBJ_WORD.ST$ -> ST.OU_INDEX, 36),
      987    21802    4                          1,      /* ADD RELOCATION */
      988    21803    4                          0,      /* Full word relocation */
      989    21804    4                          17,
      990    21805    4                           , )
      991    21806    4               WHENALTRETURN
      992    21807    5                     DO;

      993    21808    5                       CALL Z8AE$ERROR(%E$ANNOTATOR_ABORT);

  21808 36 002276   000005 630400 37                 EPPR0   5
        36 002277   000003 631400 37                 EPPR1   3
        36 002300   000000 701000 xent               TSX1    Z8AE$ERROR
        36 002301   000000 011000                    NOP     0

      994    21809    5                     END;

      995    21810    4           CALL XUO$RELOC (OBJ_SECT_NUMBER,

  21810 36 002302   000150 470400 xsym               LDP0    COMCOM+104
        36 002303   000001 236100                    LDQ     1,,PR0
        36 002304   000022 736000                    QLS     18
        36 002305   000022 732000                    QRS     18
        36 002306   200076 756100                    STQ     SECTION_OFFSET+1,,AUTO
        36 002307   000075 236000 37                 LDQ     61
        36 002310   200106 756100                    STQ     SECTION_OFFSET+9,,AUTO
        36 002311   000072 237000 37                 LDAQ    58
        36 002312   200104 757100                    STAQ    SECTION_OFFSET+7,,AUTO
        36 002313   200076 631500                    EPPR1   SECTION_OFFSET+1,,AUTO
        36 002314   200103 451500                    STP1    SECTION_OFFSET+6,,AUTO
        36 002315   000021 236000 37                 LDQ     17
        36 002316   200102 756100                    STQ     SECTION_OFFSET+5,,AUTO
        36 002317   200024 236100                    LDQ     LOBJ$,,AUTO
        36 002320   000001 036003                    ADLQ    1,DU
        36 002321   200101 756100                    STQ     SECTION_OFFSET+4,,AUTO
        36 002322   200013 633500                    EPPR3   OBJ_SECT_NUMBER,,AUTO
PL6.E3A0      #001=Z9IO$OUTPUT_OU File=Z9IO.:Z8A6TSI                             SAT 08/09/97 14:02 Page:131
        36 002323   200100 453500                    STP3    SECTION_OFFSET+3,,AUTO
        36 002324   200100 630500                    EPPR0   SECTION_OFFSET+3,,AUTO
        36 002325   000015 631400 37                 EPPR1   13
        36 002326   000000 701000 xent               TSX1    XUO$RELOC
        36 002327   000000 011000                    NOP     0
        36 002330   002467 710000 36                 TRA     s:21893

      996    21811    4                           LOBJ$ -> OBJ_WORD.OFFSET,
      997    21812    4                           5,        /* SEGID */
      998    21813    4                           BINBIT(COMCOM.SEGMENT$(0)->ST.OU_INDEX, 36),
      999    21814    4                           1,           /* Add reloc */
     1000    21815    4                           0,
     1001    21816    4                           35,
     1002    21817    4                           ,);
     1003    21818
     1004    21819    4         CASE (%DCB_);

     1005    21820
     1006    21821    4           CALL XUO$RNAME (LOBJ$ -> OBJ_WORD.ST$ -> ST.DNT$ -> DNT.TEXT,

  21821 36 002331   100006 473500                    LDP3    6,,PR1
        36 002332   200037 634500                    EPPR4   SECT_NAME_INDEX,,AUTO
        36 002333   200077 454500                    STP4    SECTION_OFFSET+2,,AUTO
        36 002334   300004 631500                    EPPR1   4,,PR3
        36 002335   200076 451500                    STP1    SECTION_OFFSET+1,,AUTO
        36 002336   200076 630500                    EPPR0   SECTION_OFFSET+1,,AUTO
        36 002337   000000 631400 37                 EPPR1   0
        36 002340   000000 701000 xent               TSX1    XUO$RNAME
        36 002341   000000 011000                    NOP     0

     1007    21822    4                           SECT_NAME_INDEX);
     1008    21823
     1009    21824    4           CALL XUO$SREF (SECT_NAME_INDEX,

  21824 36 002342   000032 236000 37                 LDQ     26
        36 002343   200101 756100                    STQ     SECTION_OFFSET+4,,AUTO
        36 002344   200040 630500                    EPPR0   SREF_INDEX,,AUTO
PL6.E3A0      #001=Z9IO$OUTPUT_OU File=Z9IO.:Z8A6TSI                             SAT 08/09/97 14:02 Page:132
        36 002345   200100 450500                    STP0    SECTION_OFFSET+3,,AUTO
        36 002346   200077 756100                    STQ     SECTION_OFFSET+2,,AUTO
        36 002347   200037 631500                    EPPR1   SECT_NAME_INDEX,,AUTO
        36 002350   200076 451500                    STP1    SECTION_OFFSET+1,,AUTO
        36 002351   200076 630500                    EPPR0   SECTION_OFFSET+1,,AUTO
        36 002352   000001 631400 37                 EPPR1   1
        36 002353   000000 701000 xent               TSX1    XUO$SREF
        36 002354   000000 011000                    NOP     0

     1010    21825    4                          '1'B,
     1011    21826    4                          SREF_INDEX,
     1012    21827    4                          '1'B);
     1013    21828
     1014    21829    4           CALL XUO$RELOC (OBJ_SECT_NUMBER,

  21829 36 002355   000067 236000 37                 LDQ     55
        36 002356   200104 756100                    STQ     SECTION_OFFSET+7,,AUTO
        36 002357   000072 237000 37                 LDAQ    58
        36 002360   200102 757100                    STAQ    SECTION_OFFSET+5,,AUTO
        36 002361   200040 630500                    EPPR0   SREF_INDEX,,AUTO
        36 002362   200101 450500                    STP0    SECTION_OFFSET+4,,AUTO
        36 002363   000026 236000 37                 LDQ     22
        36 002364   200100 756100                    STQ     SECTION_OFFSET+3,,AUTO
        36 002365   200024 236100                    LDQ     LOBJ$,,AUTO
        36 002366   000001 036003                    ADLQ    1,DU
        36 002367   200077 756100                    STQ     SECTION_OFFSET+2,,AUTO
        36 002370   200013 631500                    EPPR1   OBJ_SECT_NUMBER,,AUTO
        36 002371   200076 451500                    STP1    SECTION_OFFSET+1,,AUTO
        36 002372   200076 630500                    EPPR0   SECTION_OFFSET+1,,AUTO
        36 002373   000015 631400 37                 EPPR1   13
        36 002374   000000 701000 xent               TSX1    XUO$RELOC
        36 002375   002377 702000 36                 TSX2    s:21839
        36 002376   002403 710000 36                 TRA     s:21840

     1015    21830    4                          LOBJ$ -> OBJ_WORD.OFFSET,
     1016    21831    4                          3,      /* Kludge -- SYMREF */
     1017    21832    4                          SREF_INDEX,
PL6.E3A0      #001=Z9IO$OUTPUT_OU File=Z9IO.:Z8A6TSI                             SAT 08/09/97 14:02 Page:133
     1018    21833    4                          1,      /* ADD RELOCATION */
     1019    21834    4                          0,      /* Half word relocation */
     1020    21835    4                          17,
     1021    21836    4                           , )
     1022    21837    4               WHENALTRETURN
     1023    21838    5                     DO;

     1024    21839    5                       CALL Z8AE$ERROR(%E$ANNOTATOR_ABORT);

  21839 36 002377   000005 630400 37                 EPPR0   5
        36 002400   000003 631400 37                 EPPR1   3
        36 002401   000000 701000 xent               TSX1    Z8AE$ERROR
        36 002402   000000 011000                    NOP     0

     1025    21840    5                     END;

  21840 36 002403   002467 710000 36                 TRA     s:21893

     1026    21841
     1027    21842    4         CASE (%PARA, %SECTION, %INTDEF, %SYMDEF_,

     1028    21843                     %ST_ITEMS_WITH_STORAGE;
     1029    21855    4              );
     1030    21856
     1031    21857                /* Get block/segment for ST item */
     1032    21858
     1033    21859    4           CALL GET_SECTION_NUMBER;

  21859 36 002404   001613 701000 36                 TSX1    GET_SECTION_NUMBER
        36 002405   000000 011000                    NOP     0

     1034    21860
     1035    21861    4           CALL XUO$RELOC (OBJ_SECT_NUMBER,

  21861 36 002406   000067 236000 37                 LDQ     55
        36 002407   200104 756100                    STQ     SECTION_OFFSET+7,,AUTO
        36 002410   000072 237000 37                 LDAQ    58
PL6.E3A0      #001=Z9IO$OUTPUT_OU File=Z9IO.:Z8A6TSI                             SAT 08/09/97 14:02 Page:134
        36 002411   200102 757100                    STAQ    SECTION_OFFSET+5,,AUTO
        36 002412   200034 630500                    EPPR0   BS_OU_INDEX,,AUTO
        36 002413   200101 450500                    STP0    SECTION_OFFSET+4,,AUTO
        36 002414   200035 631500                    EPPR1   BS_OU_INDEX_TYPE,,AUTO
        36 002415   200100 451500                    STP1    SECTION_OFFSET+3,,AUTO
        36 002416   200024 236100                    LDQ     LOBJ$,,AUTO
        36 002417   000001 036003                    ADLQ    1,DU
        36 002420   200077 756100                    STQ     SECTION_OFFSET+2,,AUTO
        36 002421   200013 633500                    EPPR3   OBJ_SECT_NUMBER,,AUTO
        36 002422   200076 453500                    STP3    SECTION_OFFSET+1,,AUTO
        36 002423   200076 630500                    EPPR0   SECTION_OFFSET+1,,AUTO
        36 002424   000015 631400 37                 EPPR1   13
        36 002425   000000 701000 xent               TSX1    XUO$RELOC
        36 002426   002430 702000 36                 TSX2    s:21871
        36 002427   002434 710000 36                 TRA     s:21873

     1036    21862    4                           LOBJ$ -> OBJ_WORD.OFFSET,
     1037    21863    4                           BS_OU_INDEX_TYPE,     /* Section */
     1038    21864    4                           BS_OU_INDEX,
     1039    21865    4                           1,     /* Add relocations */
     1040    21866    4                           0,      /* Word portion of pointer */
     1041    21867    4                           17,
     1042    21868    4                           , )
     1043    21869    4               WHENALTRETURN
     1044    21870    5                     DO;

     1045    21871    5                       CALL Z8AE$ERROR(%E$ANNOTATOR_ABORT);

  21871 36 002430   000005 630400 37                 EPPR0   5
        36 002431   000003 631400 37                 EPPR1   3
        36 002432   000000 701000 xent               TSX1    Z8AE$ERROR
        36 002433   000000 011000                    NOP     0

     1046    21872    5                     END;

     1047    21873    4           CALL XUO$RELOC (OBJ_SECT_NUMBER,

PL6.E3A0      #001=Z9IO$OUTPUT_OU File=Z9IO.:Z8A6TSI                             SAT 08/09/97 14:02 Page:135
  21873 36 002434   000075 236000 37                 LDQ     61
        36 002435   200104 756100                    STQ     SECTION_OFFSET+7,,AUTO
        36 002436   000072 237000 37                 LDAQ    58
        36 002437   200102 757100                    STAQ    SECTION_OFFSET+5,,AUTO
        36 002440   200034 630500                    EPPR0   BS_OU_INDEX,,AUTO
        36 002441   200101 450500                    STP0    SECTION_OFFSET+4,,AUTO
        36 002442   000021 236000 37                 LDQ     17
        36 002443   200100 756100                    STQ     SECTION_OFFSET+3,,AUTO
        36 002444   200024 236100                    LDQ     LOBJ$,,AUTO
        36 002445   000001 036003                    ADLQ    1,DU
        36 002446   200077 756100                    STQ     SECTION_OFFSET+2,,AUTO
        36 002447   200013 631500                    EPPR1   OBJ_SECT_NUMBER,,AUTO
        36 002450   200076 451500                    STP1    SECTION_OFFSET+1,,AUTO
        36 002451   200076 630500                    EPPR0   SECTION_OFFSET+1,,AUTO
        36 002452   000015 631400 37                 EPPR1   13
        36 002453   000000 701000 xent               TSX1    XUO$RELOC
        36 002454   002456 702000 36                 TSX2    s:21883
        36 002455   002462 710000 36                 TRA     s:21884

     1048    21874    4                           LOBJ$ -> OBJ_WORD.OFFSET,
     1049    21875    4                           5,     /* Segid */
     1050    21876    4                           BS_OU_INDEX,
     1051    21877    4                           1,     /* Add relocations */
     1052    21878    4                           0,     /* Full word reloc */
     1053    21879    4                           35,
     1054    21880    4                           , )
     1055    21881    4               WHENALTRETURN
     1056    21882    5                     DO;

     1057    21883    5                       CALL Z8AE$ERROR(%E$ANNOTATOR_ABORT);

  21883 36 002456   000005 630400 37                 EPPR0   5
        36 002457   000003 631400 37                 EPPR1   3
        36 002460   000000 701000 xent               TSX1    Z8AE$ERROR
        36 002461   000000 011000                    NOP     0

     1058    21884    5                     END;
PL6.E3A0      #001=Z9IO$OUTPUT_OU File=Z9IO.:Z8A6TSI                             SAT 08/09/97 14:02 Page:136

  21884 36 002462   002467 710000 36                 TRA     s:21893

     1059    21885
     1060    21886    4         CASE (ELSE);

     1061    21887
     1062    21888    4           CALL Z8AE$ERROR(%E$ANNOTATOR_ABORT);

  21888 36 002463   000005 630400 37                 EPPR0   5
        36 002464   000003 631400 37                 EPPR1   3
        36 002465   000000 701000 xent               TSX1    Z8AE$ERROR
        36 002466   000000 011000                    NOP     0

     1063    21889
     1064    21890    4        END;  /* case on ST.ID */

     1065    21891
     1066    21892
     1067    21893    3   END RELOCATION;

  21893 36 002467   200064 221300                    LDX1  ! LOCAL_OBJ_WORD+2,,AUTO
        36 002470   000001 702211                    TSX2  ! 1,X1

     1068    21894        %EJECT;
PL6.E3A0      #001=Z9IO$OUTPUT_OU File=Z9IO.:Z8A6TSI                             SAT 08/09/97 14:02 Page:137
     1069    21895
     1070    21896
     1071    21897    2   EIS_BUFFER_LEN = 0;

  21897 36 002471   200041 450100                    STZ     EIS_BUFFER_LEN,,AUTO

     1072    21898
     1073    21899        %TOP_OBJ(POINTER = LOBJ$);

  21901 36 002472   000000 234000 2                  SZN     PAGING_OBJ
        36 002473   002517 605000 36                 TPL     s:21912

  21903 36 002474   000000 236000 4                  LDQ     OBJ_FINISHED
        36 002475   400000 376003                    ANQ     -131072,DU
        36 002476   400000 676003                    ERQ     -131072,DU
        36 002477   002506 600000 36                 TZE     s:21908

  21905 36 002500   000100 630400 37                 EPPR0   64
        36 002501   000003 631400 37                 EPPR1   3
        36 002502   000000 701000 xent               TSX1    Z9HF$WRITE_OBJ_PAGE
        36 002503   000000 011000                    NOP     0

  21906 36 002504   400000 236003                    LDQ     -131072,DU
        36 002505   000000 756000 4                  STQ     OBJ_FINISHED

  21908 36 002506   000007 631400 37                 EPPR1   7
        36 002507   000000 701000 xent               TSX1    Z9HF$CLOSE_OBJ
        36 002510   000000 011000                    NOP     0

  21909 36 002511   000007 631400 37                 EPPR1   7
        36 002512   000000 701000 xent               TSX1    Z9HF$OPEN_OBJ_INPUT
        36 002513   000000 011000                    NOP     0

  21910 36 002514   000007 631400 37                 EPPR1   7
        36 002515   000000 701000 xent               TSX1    Z9HF$READ_OBJ_PAGE
        36 002516   000000 011000                    NOP     0

PL6.E3A0      #001=Z9IO$OUTPUT_OU File=Z9IO.:Z8A6TSI                             SAT 08/09/97 14:02 Page:138
  21912 36 002517   000000 236000 8                  LDQ     OBJ_
        36 002520   200024 756100                    STQ     LOBJ$,,AUTO

     1074    21915
     1075    21916    3   DO WHILE LOBJ$ ~= ADDR(NIL);

  21916 36 002521   003472 710000 36                 TRA     s:22143

     1076    21917
     1077    21918    4     DO CASE (LOBJ$ -> OBJ.ID);

  21918 36 002522   200024 470500                    LDP0    LOBJ$,,AUTO
        36 002523   000000 236100                    LDQ     0,,PR0
        36 002524   000022 772000                    QRL     18
        36 002525   001010 136007                    SBLQ    520,DL
        36 002526   000005 116007                    CMPQ    5,DL
        36 002527   002531 602006 36                 TNC     s:21918+7,QL
        36 002530   003431 710000 36                 TRA     s:22120
        36 002531   003213 710000 36                 TRA     s:22051
        36 002532   003274 710000 36                 TRA     s:22077
        36 002533   002536 710000 36                 TRA     s:21924
        36 002534   003375 710000 36                 TRA     s:22100
        36 002535   003410 710000 36                 TRA     s:22106

     1078    21919
     1079    21920    4       CASE (%WORD);    /* Instruction */

     1080    21921
     1081    21922              %APPLY_RESOLVE_ADDRESS (@POINTER = LOBJ$);

  21924 36 002536   000003 236100                    LDQ     3,,PR0
        36 002537   200062 756100                    STQ     LOCAL_OBJ_WORD,,AUTO

  21925 36 002540   000000 236100                    LDQ     0,,PR0
        36 002541   020000 316007                    CANQ    8192,DL
        36 002542   002722 600000 36                 TZE     s:21961

PL6.E3A0      #001=Z9IO$OUTPUT_OU File=Z9IO.:Z8A6TSI                             SAT 08/09/97 14:02 Page:139
  21926 36 002543   200041 235100                    LDA     EIS_BUFFER_LEN,,AUTO
        36 002544   000004 115007                    CMPA    4,DL
        36 002545   002547 602005 36                 TNC     s:21926+4,AL
        36 002546   002722 710000 36                 TRA     s:21961
        36 002547   002553 710000 36                 TRA     s:21928
        36 002550   002605 710000 36                 TRA     s:21935
        36 002551   002637 710000 36                 TRA     s:21942
        36 002552   002671 710000 36                 TRA     s:21949

  21928 36 002553   200062 236100                    LDQ     LOCAL_OBJ_WORD,,AUTO
        36 002554   000100 316007                    CANQ    64,DL
        36 002555   002573 600000 36                 TZE     s:21932

  21929 36 002556   000002 471500                    LDP1    2,,PR0
        36 002557   100001 236100                    LDQ     1,,PR1
        36 002560   000022 772000                    QRL     18
        36 002561   200076 756100                    STQ     SECTION_OFFSET+1,,AUTO
        36 002562   200062 236100                    LDQ     LOCAL_OBJ_WORD,,AUTO
        36 002563   000003 736000                    QLS     3
        36 002564   000025 732000                    QRS     21
        36 002565   200076 036100                    ADLQ    SECTION_OFFSET+1,,AUTO
        36 002566   000022 736000                    QLS     18
        36 002567   200062 676100                    ERQ     LOCAL_OBJ_WORD,,AUTO
        36 002570   077777 376003                    ANQ     32767,DU
        36 002571   200062 656100                    ERSQ    LOCAL_OBJ_WORD,,AUTO
        36 002572   002722 710000 36                 TRA     s:21961

  21932 36 002573   000002 471500                    LDP1    2,,PR0
        36 002574   100001 236100                    LDQ     1,,PR1
        36 002575   000022 772000                    QRL     18
        36 002576   200076 756100                    STQ     SECTION_OFFSET+1,,AUTO
        36 002577   200062 236100                    LDQ     LOCAL_OBJ_WORD,,AUTO
        36 002600   000022 772000                    QRL     18
        36 002601   200076 036100                    ADLQ    SECTION_OFFSET+1,,AUTO
        36 002602   000000 620006                    EAX0    0,QL
        36 002603   200062 740100                    STX0    LOCAL_OBJ_WORD,,AUTO
        36 002604   002722 710000 36                 TRA     s:21961
PL6.E3A0      #001=Z9IO$OUTPUT_OU File=Z9IO.:Z8A6TSI                             SAT 08/09/97 14:02 Page:140

  21935 36 002605   200045 236100                    LDQ     EIS_BUFFER+3,,AUTO
        36 002606   000100 316007                    CANQ    64,DL
        36 002607   002625 600000 36                 TZE     s:21939

  21936 36 002610   000002 471500                    LDP1    2,,PR0
        36 002611   100001 236100                    LDQ     1,,PR1
        36 002612   000022 772000                    QRL     18
        36 002613   200076 756100                    STQ     SECTION_OFFSET+1,,AUTO
        36 002614   200062 236100                    LDQ     LOCAL_OBJ_WORD,,AUTO
        36 002615   000003 736000                    QLS     3
        36 002616   000025 732000                    QRS     21
        36 002617   200076 036100                    ADLQ    SECTION_OFFSET+1,,AUTO
        36 002620   000022 736000                    QLS     18
        36 002621   200062 676100                    ERQ     LOCAL_OBJ_WORD,,AUTO
        36 002622   077777 376003                    ANQ     32767,DU
        36 002623   200062 656100                    ERSQ    LOCAL_OBJ_WORD,,AUTO
        36 002624   002722 710000 36                 TRA     s:21961

  21939 36 002625   000002 471500                    LDP1    2,,PR0
        36 002626   100001 236100                    LDQ     1,,PR1
        36 002627   000022 772000                    QRL     18
        36 002630   200076 756100                    STQ     SECTION_OFFSET+1,,AUTO
        36 002631   200062 236100                    LDQ     LOCAL_OBJ_WORD,,AUTO
        36 002632   000022 772000                    QRL     18
        36 002633   200076 036100                    ADLQ    SECTION_OFFSET+1,,AUTO
        36 002634   000000 620006                    EAX0    0,QL
        36 002635   200062 740100                    STX0    LOCAL_OBJ_WORD,,AUTO
        36 002636   002722 710000 36                 TRA     s:21961

  21942 36 002637   200045 236100                    LDQ     EIS_BUFFER+3,,AUTO
        36 002640   000100 316003                    CANQ    64,DU
        36 002641   002657 600000 36                 TZE     s:21946

  21943 36 002642   000002 471500                    LDP1    2,,PR0
        36 002643   100001 236100                    LDQ     1,,PR1
        36 002644   000022 772000                    QRL     18
PL6.E3A0      #001=Z9IO$OUTPUT_OU File=Z9IO.:Z8A6TSI                             SAT 08/09/97 14:02 Page:141
        36 002645   200076 756100                    STQ     SECTION_OFFSET+1,,AUTO
        36 002646   200062 236100                    LDQ     LOCAL_OBJ_WORD,,AUTO
        36 002647   000003 736000                    QLS     3
        36 002650   000025 732000                    QRS     21
        36 002651   200076 036100                    ADLQ    SECTION_OFFSET+1,,AUTO
        36 002652   000022 736000                    QLS     18
        36 002653   200062 676100                    ERQ     LOCAL_OBJ_WORD,,AUTO
        36 002654   077777 376003                    ANQ     32767,DU
        36 002655   200062 656100                    ERSQ    LOCAL_OBJ_WORD,,AUTO
        36 002656   002722 710000 36                 TRA     s:21961

  21946 36 002657   000002 471500                    LDP1    2,,PR0
        36 002660   100001 236100                    LDQ     1,,PR1
        36 002661   000022 772000                    QRL     18
        36 002662   200076 756100                    STQ     SECTION_OFFSET+1,,AUTO
        36 002663   200062 236100                    LDQ     LOCAL_OBJ_WORD,,AUTO
        36 002664   000022 772000                    QRL     18
        36 002665   200076 036100                    ADLQ    SECTION_OFFSET+1,,AUTO
        36 002666   000000 620006                    EAX0    0,QL
        36 002667   200062 740100                    STX0    LOCAL_OBJ_WORD,,AUTO
        36 002670   002722 710000 36                 TRA     s:21961

  21949 36 002671   200045 236100                    LDQ     EIS_BUFFER+3,,AUTO
        36 002672   100000 316003                    CANQ    32768,DU
        36 002673   002711 600000 36                 TZE     s:21953

  21950 36 002674   000002 471500                    LDP1    2,,PR0
        36 002675   100001 236100                    LDQ     1,,PR1
        36 002676   000022 772000                    QRL     18
        36 002677   200076 756100                    STQ     SECTION_OFFSET+1,,AUTO
        36 002700   200062 236100                    LDQ     LOCAL_OBJ_WORD,,AUTO
        36 002701   000003 736000                    QLS     3
        36 002702   000025 732000                    QRS     21
        36 002703   200076 036100                    ADLQ    SECTION_OFFSET+1,,AUTO
        36 002704   000022 736000                    QLS     18
        36 002705   200062 676100                    ERQ     LOCAL_OBJ_WORD,,AUTO
        36 002706   077777 376003                    ANQ     32767,DU
PL6.E3A0      #001=Z9IO$OUTPUT_OU File=Z9IO.:Z8A6TSI                             SAT 08/09/97 14:02 Page:142
        36 002707   200062 656100                    ERSQ    LOCAL_OBJ_WORD,,AUTO
        36 002710   002722 710000 36                 TRA     s:21961

  21953 36 002711   000002 471500                    LDP1    2,,PR0
        36 002712   100001 236100                    LDQ     1,,PR1
        36 002713   000022 772000                    QRL     18
        36 002714   200076 756100                    STQ     SECTION_OFFSET+1,,AUTO
        36 002715   200062 236100                    LDQ     LOCAL_OBJ_WORD,,AUTO
        36 002716   000022 772000                    QRL     18
        36 002717   200076 036100                    ADLQ    SECTION_OFFSET+1,,AUTO
        36 002720   000000 620006                    EAX0    0,QL
        36 002721   200062 740100                    STX0    LOCAL_OBJ_WORD,,AUTO

     1082    21958
     1083    21959              %APPLY_IC (@POINTER = LOBJ$);

  21961 36 002722   000000 236100                    LDQ     0,,PR0
        36 002723   001000 316007                    CANQ    512,DL
        36 002724   003072 600000 36                 TZE     s:22000

  21962 36 002725   200041 235100                    LDA     EIS_BUFFER_LEN,,AUTO
        36 002726   000004 115007                    CMPA    4,DL
        36 002727   002731 602005 36                 TNC     s:21962+4,AL
        36 002730   003072 710000 36                 TRA     s:22000
        36 002731   002735 710000 36                 TRA     s:21964
        36 002732   002763 710000 36                 TRA     s:21972
        36 002733   003013 710000 36                 TRA     s:21980
        36 002734   003043 710000 36                 TRA     s:21988

  21964 36 002735   200062 236100                    LDQ     LOCAL_OBJ_WORD,,AUTO
        36 002736   000100 316007                    CANQ    64,DL
        36 002737   002751 600000 36                 TZE     s:21968

  21965 36 002740   200062 236100                    LDQ     LOCAL_OBJ_WORD,,AUTO
        36 002741   000003 736000                    QLS     3
        36 002742   000025 732000                    QRS     21
        36 002743   000001 136100                    SBLQ    1,,PR0
PL6.E3A0      #001=Z9IO$OUTPUT_OU File=Z9IO.:Z8A6TSI                             SAT 08/09/97 14:02 Page:143
        36 002744   000022 736000                    QLS     18
        36 002745   200062 676100                    ERQ     LOCAL_OBJ_WORD,,AUTO
        36 002746   077777 376003                    ANQ     32767,DU
        36 002747   200062 656100                    ERSQ    LOCAL_OBJ_WORD,,AUTO
        36 002750   002756 710000 36                 TRA     s:21970

  21968 36 002751   200062 236100                    LDQ     LOCAL_OBJ_WORD,,AUTO
        36 002752   000022 772000                    QRL     18
        36 002753   000001 136100                    SBLQ    1,,PR0
        36 002754   000000 620006                    EAX0    0,QL
        36 002755   200062 740100                    STX0    LOCAL_OBJ_WORD,,AUTO

  21970 36 002756   200062 236100                    LDQ     LOCAL_OBJ_WORD,,AUTO
        36 002757   000101 376000 37                 ANQ     65
        36 002760   000004 276007                    ORQ     4,DL
        36 002761   200062 756100                    STQ     LOCAL_OBJ_WORD,,AUTO
        36 002762   003072 710000 36                 TRA     s:22000

  21972 36 002763   200045 236100                    LDQ     EIS_BUFFER+3,,AUTO
        36 002764   000100 316007                    CANQ    64,DL
        36 002765   003000 600000 36                 TZE     s:21976

  21973 36 002766   200062 236100                    LDQ     LOCAL_OBJ_WORD,,AUTO
        36 002767   000003 736000                    QLS     3
        36 002770   000025 732000                    QRS     21
        36 002771   000001 136100                    SBLQ    1,,PR0
        36 002772   200041 036100                    ADLQ    EIS_BUFFER_LEN,,AUTO
        36 002773   000022 736000                    QLS     18
        36 002774   200062 676100                    ERQ     LOCAL_OBJ_WORD,,AUTO
        36 002775   077777 376003                    ANQ     32767,DU
        36 002776   200062 656100                    ERSQ    LOCAL_OBJ_WORD,,AUTO
        36 002777   003006 710000 36                 TRA     s:21978

  21976 36 003000   200062 236100                    LDQ     LOCAL_OBJ_WORD,,AUTO
        36 003001   000022 772000                    QRL     18
        36 003002   000001 136100                    SBLQ    1,,PR0
        36 003003   200041 036100                    ADLQ    EIS_BUFFER_LEN,,AUTO
PL6.E3A0      #001=Z9IO$OUTPUT_OU File=Z9IO.:Z8A6TSI                             SAT 08/09/97 14:02 Page:144
        36 003004   000000 620006                    EAX0    0,QL
        36 003005   200062 740100                    STX0    LOCAL_OBJ_WORD,,AUTO

  21978 36 003006   200045 236100                    LDQ     EIS_BUFFER+3,,AUTO
        36 003007   000101 376000 37                 ANQ     65
        36 003010   000004 276007                    ORQ     4,DL
        36 003011   200045 756100                    STQ     EIS_BUFFER+3,,AUTO
        36 003012   003072 710000 36                 TRA     s:22000

  21980 36 003013   200045 236100                    LDQ     EIS_BUFFER+3,,AUTO
        36 003014   000100 316003                    CANQ    64,DU
        36 003015   003030 600000 36                 TZE     s:21984

  21981 36 003016   200062 236100                    LDQ     LOCAL_OBJ_WORD,,AUTO
        36 003017   000003 736000                    QLS     3
        36 003020   000025 732000                    QRS     21
        36 003021   000001 136100                    SBLQ    1,,PR0
        36 003022   200041 036100                    ADLQ    EIS_BUFFER_LEN,,AUTO
        36 003023   000022 736000                    QLS     18
        36 003024   200062 676100                    ERQ     LOCAL_OBJ_WORD,,AUTO
        36 003025   077777 376003                    ANQ     32767,DU
        36 003026   200062 656100                    ERSQ    LOCAL_OBJ_WORD,,AUTO
        36 003027   003036 710000 36                 TRA     s:21986

  21984 36 003030   200062 236100                    LDQ     LOCAL_OBJ_WORD,,AUTO
        36 003031   000022 772000                    QRL     18
        36 003032   000001 136100                    SBLQ    1,,PR0
        36 003033   200041 036100                    ADLQ    EIS_BUFFER_LEN,,AUTO
        36 003034   000000 620006                    EAX0    0,QL
        36 003035   200062 740100                    STX0    LOCAL_OBJ_WORD,,AUTO

  21986 36 003036   200045 236100                    LDQ     EIS_BUFFER+3,,AUTO
        36 003037   000102 376000 37                 ANQ     66
        36 003040   000004 276003                    ORQ     4,DU
        36 003041   200045 756100                    STQ     EIS_BUFFER+3,,AUTO
        36 003042   003072 710000 36                 TRA     s:22000

PL6.E3A0      #001=Z9IO$OUTPUT_OU File=Z9IO.:Z8A6TSI                             SAT 08/09/97 14:02 Page:145
  21988 36 003043   200045 236100                    LDQ     EIS_BUFFER+3,,AUTO
        36 003044   100000 316003                    CANQ    32768,DU
        36 003045   003060 600000 36                 TZE     s:21992

  21989 36 003046   200062 236100                    LDQ     LOCAL_OBJ_WORD,,AUTO
        36 003047   000003 736000                    QLS     3
        36 003050   000025 732000                    QRS     21
        36 003051   000001 136100                    SBLQ    1,,PR0
        36 003052   200041 036100                    ADLQ    EIS_BUFFER_LEN,,AUTO
        36 003053   000022 736000                    QLS     18
        36 003054   200062 676100                    ERQ     LOCAL_OBJ_WORD,,AUTO
        36 003055   077777 376003                    ANQ     32767,DU
        36 003056   200062 656100                    ERSQ    LOCAL_OBJ_WORD,,AUTO
        36 003057   003066 710000 36                 TRA     s:21994

  21992 36 003060   200062 236100                    LDQ     LOCAL_OBJ_WORD,,AUTO
        36 003061   000022 772000                    QRL     18
        36 003062   000001 136100                    SBLQ    1,,PR0
        36 003063   200041 036100                    ADLQ    EIS_BUFFER_LEN,,AUTO
        36 003064   000000 620006                    EAX0    0,QL
        36 003065   200062 740100                    STX0    LOCAL_OBJ_WORD,,AUTO

  21994 36 003066   200045 236100                    LDQ     EIS_BUFFER+3,,AUTO
        36 003067   000103 376000 37                 ANQ     67
        36 003070   004000 276003                    ORQ     2048,DU
        36 003071   200045 756100                    STQ     EIS_BUFFER+3,,AUTO

     1084    21998
     1085    21999
     1086    22000    4         IF LOBJ$ -> OBJ_WORD.B.BUFFER THEN

  22000 36 003072   000000 236100                    LDQ     0,,PR0
        36 003073   004000 316007                    CANQ    2048,DL
        36 003074   003110 600000 36                 TZE     s:22007

     1087    22001    5           DO;

PL6.E3A0      #001=Z9IO$OUTPUT_OU File=Z9IO.:Z8A6TSI                             SAT 08/09/97 14:02 Page:146
     1088    22002    5             EIS_BUFFER.QUEUE(EIS_BUFFER_LEN) = LOBJ$ -> OBJ_WORD;

  22002 36 003075   200041 235100                    LDA     EIS_BUFFER_LEN,,AUTO
        36 003076   000004 735000                    ALS     4
        36 003077   000105 100500                    MLR     fill='000'O
        36 003100   000000 000020                    ADSC9   0,,PR0                   cn=0,n=16
        36 003101   200042 000020                    ADSC9   EIS_BUFFER,A,AUTO        cn=0,n=16

     1089    22003    5             EIS_BUFFER.QUEUE.INST(EIS_BUFFER_LEN) = BITBIN(LOCAL_OBJ_WORD);

  22003 36 003102   200041 236100                    LDQ     EIS_BUFFER_LEN,,AUTO
        36 003103   000002 736000                    QLS     2
        36 003104   200062 235100                    LDA     LOCAL_OBJ_WORD,,AUTO
        36 003105   200045 755106                    STA     EIS_BUFFER+3,QL,AUTO

     1090    22004    5             EIS_BUFFER_LEN = EIS_BUFFER_LEN + 1;

  22004 36 003106   200041 054100                    AOS     EIS_BUFFER_LEN,,AUTO

     1091    22005    5           END;

  22005 36 003107   003431 710000 36                 TRA     s:22120

     1092    22006    4         ELSE
     1093    22007    4           IF EIS_BUFFER_LEN ~= 0 THEN

  22007 36 003110   200041 235100                    LDA     EIS_BUFFER_LEN,,AUTO
        36 003111   003170 600000 36                 TZE     s:22036

     1094    22008    5             DO;

     1095    22009    5               EIS_BUFFER.QUEUE(EIS_BUFFER_LEN) = LOBJ$ -> OBJ_WORD;

  22009 36 003112   000004 735000                    ALS     4
        36 003113   000105 100500                    MLR     fill='000'O
        36 003114   000000 000020                    ADSC9   0,,PR0                   cn=0,n=16
        36 003115   200042 000020                    ADSC9   EIS_BUFFER,A,AUTO        cn=0,n=16
PL6.E3A0      #001=Z9IO$OUTPUT_OU File=Z9IO.:Z8A6TSI                             SAT 08/09/97 14:02 Page:147

     1096    22010    5               EIS_BUFFER.QUEUE.INST(EIS_BUFFER_LEN) = BITBIN(LOCAL_OBJ_WORD);

  22010 36 003116   200041 236100                    LDQ     EIS_BUFFER_LEN,,AUTO
        36 003117   000002 736000                    QLS     2
        36 003120   200062 235100                    LDA     LOCAL_OBJ_WORD,,AUTO
        36 003121   200045 755106                    STA     EIS_BUFFER+3,QL,AUTO

     1097    22011    5               SV_EIS_BUFFER_LEN = EIS_BUFFER_LEN;

  22011 36 003122   200041 235100                    LDA     EIS_BUFFER_LEN,,AUTO
        36 003123   200026 755100                    STA     SV_EIS_BUFFER_LEN,,AUTO

     1098    22012    5               SV_LOBJ$ = LOBJ$;

  22012 36 003124   200024 236100                    LDQ     LOBJ$,,AUTO
        36 003125   200025 756100                    STQ     SV_LOBJ$,,AUTO

     1099    22013
     1100    22014                    /* CLEAR EIS BUFFER */
     1101    22015    6               DO EIS_BUFFER_LEN = 0 TO SV_EIS_BUFFER_LEN;

  22015 36 003126   200041 450100                    STZ     EIS_BUFFER_LEN,,AUTO
        36 003127   003161 710000 36                 TRA     s:22029+1

     1102    22016
     1103    22017    6                 LOBJ$ = ADDR(EIS_BUFFER.QUEUE(EIS_BUFFER_LEN));

  22017 36 003130   200041 235100                    LDA     EIS_BUFFER_LEN,,AUTO
        36 003131   000002 735000                    ALS     2
        36 003132   200042 630505                    EPPR0   EIS_BUFFER,AL,AUTO
        36 003133   200024 450500                    STP0    LOBJ$,,AUTO

     1104    22018    6                 LOCAL_OBJ_WORD = BINBIT(EIS_BUFFER.QUEUE.INST(EIS_BUFFER_LEN), 36);

  22018 36 003134   200045 236105                    LDQ     EIS_BUFFER+3,AL,AUTO
        36 003135   200062 756100                    STQ     LOCAL_OBJ_WORD,,AUTO
PL6.E3A0      #001=Z9IO$OUTPUT_OU File=Z9IO.:Z8A6TSI                             SAT 08/09/97 14:02 Page:148

     1105    22019
     1106    22020    6                 CALL XUO$PRGM (OBJ_SECT_NUMBER,

  22020 36 003136   200062 631500                    EPPR1   LOCAL_OBJ_WORD,,AUTO
        36 003137   200100 451500                    STP1    SECTION_OFFSET+3,,AUTO
        36 003140   200024 236100                    LDQ     LOBJ$,,AUTO
        36 003141   000001 036003                    ADLQ    1,DU
        36 003142   200077 756100                    STQ     SECTION_OFFSET+2,,AUTO
        36 003143   200013 633500                    EPPR3   OBJ_SECT_NUMBER,,AUTO
        36 003144   200076 453500                    STP3    SECTION_OFFSET+1,,AUTO
        36 003145   200076 630500                    EPPR0   SECTION_OFFSET+1,,AUTO
        36 003146   000006 631400 37                 EPPR1   6
        36 003147   000000 701000 xent               TSX1    XUO$PRGM
        36 003150   003152 702000 36                 TSX2    s:22025
        36 003151   003156 710000 36                 TRA     s:22028

     1107    22021    6                                LOBJ$ -> OBJ_WORD.OFFSET,
     1108    22022    6                                LOCAL_OBJ_WORD)
     1109    22023    6                   WHENALTRETURN
     1110    22024    7                     DO;

     1111    22025    7                       CALL Z8AE$ERROR(%E$ANNOTATOR_ABORT);

  22025 36 003152   000005 630400 37                 EPPR0   5
        36 003153   000003 631400 37                 EPPR1   3
        36 003154   000000 701000 xent               TSX1    Z8AE$ERROR
        36 003155   000000 011000                    NOP     0

     1112    22026    7                     END;

     1113    22027
     1114    22028    6                 CALL RELOCATION;

  22028 36 003156   001761 701000 36                 TSX1    RELOCATION
        36 003157   000000 011000                    NOP     0

PL6.E3A0      #001=Z9IO$OUTPUT_OU File=Z9IO.:Z8A6TSI                             SAT 08/09/97 14:02 Page:149
     1115    22029    6               END;

  22029 36 003160   200041 054100                    AOS     EIS_BUFFER_LEN,,AUTO
        36 003161   200041 236100                    LDQ     EIS_BUFFER_LEN,,AUTO
        36 003162   200026 116100                    CMPQ    SV_EIS_BUFFER_LEN,,AUTO
        36 003163   003130 604400 36                 TMOZ    s:22017

     1116    22030
     1117    22031    5               EIS_BUFFER_LEN = 0;

  22031 36 003164   200041 450100                    STZ     EIS_BUFFER_LEN,,AUTO

     1118    22032    5               LOBJ$ = SV_LOBJ$;

  22032 36 003165   200025 236100                    LDQ     SV_LOBJ$,,AUTO
        36 003166   200024 756100                    STQ     LOBJ$,,AUTO

     1119    22033    5             END;

  22033 36 003167   003431 710000 36                 TRA     s:22120

     1120    22034    4           ELSE
     1121    22035    5             DO;

     1122    22036    5               CALL XUO$PRGM (OBJ_SECT_NUMBER,

  22036 36 003170   200062 631500                    EPPR1   LOCAL_OBJ_WORD,,AUTO
        36 003171   200100 451500                    STP1    SECTION_OFFSET+3,,AUTO
        36 003172   200024 236100                    LDQ     LOBJ$,,AUTO
        36 003173   000001 036003                    ADLQ    1,DU
        36 003174   200077 756100                    STQ     SECTION_OFFSET+2,,AUTO
        36 003175   200013 633500                    EPPR3   OBJ_SECT_NUMBER,,AUTO
        36 003176   200076 453500                    STP3    SECTION_OFFSET+1,,AUTO
        36 003177   200076 630500                    EPPR0   SECTION_OFFSET+1,,AUTO
        36 003200   000006 631400 37                 EPPR1   6
        36 003201   000000 701000 xent               TSX1    XUO$PRGM
        36 003202   003204 702000 36                 TSX2    s:22041
PL6.E3A0      #001=Z9IO$OUTPUT_OU File=Z9IO.:Z8A6TSI                             SAT 08/09/97 14:02 Page:150
        36 003203   003210 710000 36                 TRA     s:22043

     1123    22037    5                              LOBJ$ -> OBJ_WORD.OFFSET,
     1124    22038    5                              LOCAL_OBJ_WORD)
     1125    22039    5                 WHENALTRETURN
     1126    22040    6                   DO;

     1127    22041    6                     CALL Z8AE$ERROR(%E$ANNOTATOR_ABORT);

  22041 36 003204   000005 630400 37                 EPPR0   5
        36 003205   000003 631400 37                 EPPR1   3
        36 003206   000000 701000 xent               TSX1    Z8AE$ERROR
        36 003207   000000 011000                    NOP     0

     1128    22042    6                   END;

     1129    22043    5               CALL RELOCATION;

  22043 36 003210   001761 701000 36                 TSX1    RELOCATION
        36 003211   000000 011000                    NOP     0

     1130    22044    5             END;

  22044 36 003212   003431 710000 36                 TRA     s:22120

     1131    22045
     1132    22046
     1133    22047
     1134    22048    4       CASE (%LINE);     /* Line item */

     1135    22049
     1136    22050
     1137    22051    4           IF LOBJ$ -> OBJ_LINE.TYPE ~= 0 THEN

  22051 36 003213   000000 720100                    LXL0    0,,PR0
        36 003214   003431 600000 36                 TZE     s:22120

PL6.E3A0      #001=Z9IO$OUTPUT_OU File=Z9IO.:Z8A6TSI                             SAT 08/09/97 14:02 Page:151
     1138    22052    5             DO;

     1139    22053    5               COMCOM.CURRENT.LINE = LOBJ$ -> OBJ_LINE.NUMBER;

  22053 36 003215   000002 236100                    LDQ     2,,PR0
        36 003216   777777 376007                    ANQ     -1,DL
        36 003217   000133 756000 xsym               STQ     COMCOM+91

     1140    22054
     1141    22055    5               IF COMCOM.OB.DSS THEN

  22055 36 003220   000024 234000 xsym               SZN     COMCOM+20
        36 003221   003267 605000 36                 TPL     s:22072

     1142    22056    5                IF OBJ_SECT_TYPE_R = 1 THEN  /* SEGMENT */

  22056 36 003222   200014 235100                    LDA     OBJ_SECT_TYPE_R,,AUTO
        36 003223   000001 115007                    CMPA    1,DL
        36 003224   003267 601000 36                 TNZ     s:22072

     1143    22057    6                 DO;

     1144    22058    6                   CALL TRANSLATE_STATEMENT_TYPES (BINBIT(LOBJ$ -> OBJ_LINE.TYPE,36),

  22058 36 003225   000000 236100                    LDQ     0,,PR0
        36 003226   777777 376007                    ANQ     -1,DL
        36 003227   200120 756100                    STQ     SECTION_OFFSET+19,,AUTO
        36 003230   200023 631500                    EPPR1   STATEMENT_TYPE,,AUTO
        36 003231   200066 451500                    STP1    @NEXT_SCOPE$,,AUTO
        36 003232   200120 633500                    EPPR3   SECTION_OFFSET+19,,AUTO
        36 003233   200065 453500                    STP3    @PROC$,,AUTO
        36 003234   001321 701000 36                 TSX1    TRANSLATE_STATEMENT_TYPES
        36 003235   000000 011000                    NOP     0

     1145    22059    6                                                   STATEMENT_TYPE);
     1146    22060
     1147    22061    6                   IF STATEMENT_TYPE ~= %S@NULL THEN
PL6.E3A0      #001=Z9IO$OUTPUT_OU File=Z9IO.:Z8A6TSI                             SAT 08/09/97 14:02 Page:152

  22061 36 003236   200023 235100                    LDA     STATEMENT_TYPE,,AUTO
        36 003237   003267 600000 36                 TZE     s:22072

     1148    22062    6                       CALL XUO$EXST ( OBJ_SECT_NUMBER,

  22062 36 003240   000010 236000 37                 LDQ     8
        36 003241   200106 756100                    STQ     SECTION_OFFSET+9,,AUTO
        36 003242   200105 756100                    STQ     SECTION_OFFSET+8,,AUTO
        36 003243   200024 236100                    LDQ     LOBJ$,,AUTO
        36 003244   000105 036000 37                 ADLQ    69
        36 003245   200104 756100                    STQ     SECTION_OFFSET+7,,AUTO
        36 003246   200023 630500                    EPPR0   STATEMENT_TYPE,,AUTO
        36 003247   200103 450500                    STP0    SECTION_OFFSET+6,,AUTO
        36 003250   000010 236000 37                 LDQ     8
        36 003251   200102 756100                    STQ     SECTION_OFFSET+5,,AUTO
        36 003252   200027 236100                    LDQ     CURRENT_SCOPE$,,AUTO
        36 003253   000004 036003                    ADLQ    4,DU
        36 003254   000106 235000 37                 LDA     70
        36 003255   200100 757100                    STAQ    SECTION_OFFSET+3,,AUTO
        36 003256   200024 236100                    LDQ     LOBJ$,,AUTO
        36 003257   000001 036003                    ADLQ    1,DU
        36 003260   200077 756100                    STQ     SECTION_OFFSET+2,,AUTO
        36 003261   200013 631500                    EPPR1   OBJ_SECT_NUMBER,,AUTO
        36 003262   200076 451500                    STP1    SECTION_OFFSET+1,,AUTO
        36 003263   200076 630500                    EPPR0   SECTION_OFFSET+1,,AUTO
        36 003264   000063 631400 37                 EPPR1   51
        36 003265   000000 701000 xent               TSX1    XUO$EXST
        36 003266   000000 011000                    NOP     0

     1149    22063    6                                       LOBJ$ -> OBJ_LINE.OFFSET,
     1150    22064    6                                       -1,
     1151    22065    6                                       CURRENT_SCOPE$ -> PROC_.LOG_BLK_NUMBER,
     1152    22066    6                                       '0'B,  /* No compiler opt */
     1153    22067    6                                       STATEMENT_TYPE,
     1154    22068    6                                      LOBJ$ -> OBJ_LINE.NUMBER,
     1155    22069    6                                       '0'B,  /* No label array */
PL6.E3A0      #001=Z9IO$OUTPUT_OU File=Z9IO.:Z8A6TSI                             SAT 08/09/97 14:02 Page:153
     1156    22070    6                                       0);  /* No label subscript */
     1157    22071    6                 END;

     1158    22072    5               LAST_LINE_NUMBER = LOBJ$ -> OBJ_LINE.NUMBER;

  22072 36 003267   200024 470500                    LDP0    LOBJ$,,AUTO
        36 003270   000002 236100                    LDQ     2,,PR0
        36 003271   777777 376007                    ANQ     -1,DL
        36 003272   200007 756100                    STQ     LAST_LINE_NUMBER,,AUTO

     1159    22073    5             END;

  22073 36 003273   003431 710000 36                 TRA     s:22120

     1160    22074
     1161    22075    4       CASE (%LAB);     /* Label */

     1162    22076
     1163    22077    4           IF COMCOM.OB.DSS AND (LOBJ$ -> OBJ_LAB.ST$ ~= ADDR(NIL)) THEN

  22077 36 003274   000024 234000 xsym               SZN     COMCOM+20
        36 003275   003357 605000 36                 TPL     s:22095
        36 003276   000001 236100                    LDQ     1,,PR0
        36 003277   000022 116000 37                 CMPQ    18
        36 003300   003357 600000 36                 TZE     s:22095

     1164    22078    4             IF NOT LOBJ$ -> OBJ_LAB.ST$ -> LABEL.B.COMPILER_CREATED THEN

  22078 36 003301   000001 471500                    LDP1    1,,PR0
        36 003302   100003 236100                    LDQ     3,,PR1
        36 003303   100000 316003                    CANQ    32768,DU
        36 003304   003357 601000 36                 TNZ     s:22095

     1165    22079    4               IF LOBJ$ -> OBJ_LAB.ST$ -> LABEL.R = 1

  22079 36 003305   100000 236100                    LDQ     0,,PR1
        36 003306   777000 376007                    ANQ     -512,DL
PL6.E3A0      #001=Z9IO$OUTPUT_OU File=Z9IO.:Z8A6TSI                             SAT 08/09/97 14:02 Page:154
        36 003307   001000 116007                    CMPQ    512,DL
        36 003310   003357 601000 36                 TNZ     s:22095
        36 003311   200014 235100                    LDA     OBJ_SECT_TYPE_R,,AUTO
        36 003312   000001 115007                    CMPA    1,DL
        36 003313   003357 601000 36                 TNZ     s:22095

     1166    22080    4                    AND OBJ_SECT_TYPE_R = 1  THEN /* Segment */
     1167    22081    5                 DO;

     1168    22082    5                   CALL XUO$DBGNAME (LOBJ$ -> OBJ_LAB.ST$ -> LABEL.DNT$ -> DNT.TEXT,

  22082 36 003314   100006 473500                    LDP3    6,,PR1
        36 003315   200036 634500                    EPPR4   LABEL_INDEX,,AUTO
        36 003316   200077 454500                    STP4    SECTION_OFFSET+2,,AUTO
        36 003317   300004 631500                    EPPR1   4,,PR3
        36 003320   200076 451500                    STP1    SECTION_OFFSET+1,,AUTO
        36 003321   200076 630500                    EPPR0   SECTION_OFFSET+1,,AUTO
        36 003322   000000 631400 37                 EPPR1   0
        36 003323   000000 701000 xent               TSX1    XUO$DBGNAME
        36 003324   000000 011000                    NOP     0

     1169    22083    5                                      LABEL_INDEX);
     1170    22084    5                   CALL XUO$EXST (OBJ_SECT_NUMBER,

  22084 36 003325   200024 470500                    LDP0    LOBJ$,,AUTO
        36 003326   000001 471500                    LDP1    1,,PR0
        36 003327   100001 236100                    LDQ     1,,PR1
        36 003330   000022 772000                    QRL     18
        36 003331   200076 756100                    STQ     SECTION_OFFSET+1,,AUTO
        36 003332   000010 236000 37                 LDQ     8
        36 003333   200110 756100                    STQ     SECTION_OFFSET+11,,AUTO
        36 003334   200107 756100                    STQ     SECTION_OFFSET+10,,AUTO
        36 003335   200007 631500                    EPPR1   LAST_LINE_NUMBER,,AUTO
        36 003336   200106 451500                    STP1    SECTION_OFFSET+9,,AUTO
        36 003337   200023 633500                    EPPR3   STATEMENT_TYPE,,AUTO
        36 003340   200105 453500                    STP3    SECTION_OFFSET+8,,AUTO
        36 003341   200104 756100                    STQ     SECTION_OFFSET+7,,AUTO
PL6.E3A0      #001=Z9IO$OUTPUT_OU File=Z9IO.:Z8A6TSI                             SAT 08/09/97 14:02 Page:155
        36 003342   200027 236100                    LDQ     CURRENT_SCOPE$,,AUTO
        36 003343   000004 036003                    ADLQ    4,DU
        36 003344   200103 756100                    STQ     SECTION_OFFSET+6,,AUTO
        36 003345   200036 634500                    EPPR4   LABEL_INDEX,,AUTO
        36 003346   200102 454500                    STP4    SECTION_OFFSET+5,,AUTO
        36 003347   200076 635500                    EPPR5   SECTION_OFFSET+1,,AUTO
        36 003350   200101 455500                    STP5    SECTION_OFFSET+4,,AUTO
        36 003351   200013 636500                    EPPR6   OBJ_SECT_NUMBER,,AUTO
        36 003352   200100 456500                    STP6    SECTION_OFFSET+3,,AUTO
        36 003353   200100 630500                    EPPR0   SECTION_OFFSET+3,,AUTO
        36 003354   000063 631400 37                 EPPR1   51
        36 003355   000000 701000 xent               TSX1    XUO$EXST
        36 003356   000000 011000                    NOP     0

     1171    22085    5                                  BINBIT(LOBJ$ -> OBJ_LAB.ST$ -> LABEL.DESC.SA, 36),
     1172    22086    5                                  LABEL_INDEX,
     1173    22087    5                                  CURRENT_SCOPE$ -> PROC_.LOG_BLK_NUMBER,
     1174    22088    5                                  '0'B,
     1175    22089    5                                  STATEMENT_TYPE,
     1176    22090    5                                  LAST_LINE_NUMBER,
     1177    22091    5                                  '0'B,
     1178    22092    5                                  0);
     1179    22093    5                 END;

     1180    22094
     1181    22095    4           IF LOBJ$ -> OBJ_LAB.ST$ -> SCALAR.B.ARRAY_PRESET THEN

  22095 36 003357   200024 470500                    LDP0    LOBJ$,,AUTO
        36 003360   000001 471500                    LDP1    1,,PR0
        36 003361   100003 236100                    LDQ     3,,PR1
        36 003362   000020 316007                    CANQ    16,DL
        36 003363   003431 600000 36                 TZE     s:22120

     1182    22096    4             CALL Z8IO$PROCESS_ARRAY (LOBJ$, OBJ_SECT_NUMBER);

  22096 36 003364   200013 633500                    EPPR3   OBJ_SECT_NUMBER,,AUTO
        36 003365   200077 453500                    STP3    SECTION_OFFSET+2,,AUTO
PL6.E3A0      #001=Z9IO$OUTPUT_OU File=Z9IO.:Z8A6TSI                             SAT 08/09/97 14:02 Page:156
        36 003366   200024 631500                    EPPR1   LOBJ$,,AUTO
        36 003367   200076 451500                    STP1    SECTION_OFFSET+1,,AUTO
        36 003370   200076 630500                    EPPR0   SECTION_OFFSET+1,,AUTO
        36 003371   000000 631400 37                 EPPR1   0
        36 003372   000000 701000 xent               TSX1    Z8IO$PROCESS_ARRAY
        36 003373   000000 011000                    NOP     0
        36 003374   003431 710000 36                 TRA     s:22120

     1183    22097
     1184    22098    4       CASE (%ORG);     /* Org */

     1185    22099
     1186    22100    4           OBJ_SECT_NUMBER = LOBJ$ -> OBJ_ORG.ST$ -> ST.OU_INDEX;

  22100 36 003375   000001 471500                    LDP1    1,,PR0
        36 003376   100001 236100                    LDQ     1,,PR1
        36 003377   000022 736000                    QLS     18
        36 003400   000022 732000                    QRS     18
        36 003401   200013 756100                    STQ     OBJ_SECT_NUMBER,,AUTO

     1187    22101    4           OBJ_SECT_TYPE_R = LOBJ$ -> OBJ_ORG.ST$ -> ST.R;

  22101 36 003402   000001 471500                    LDP1    1,,PR0
        36 003403   100000 236100                    LDQ     0,,PR1
        36 003404   000011 772000                    QRL     9
        36 003405   000777 376007                    ANQ     511,DL
        36 003406   200014 756100                    STQ     OBJ_SECT_TYPE_R,,AUTO
        36 003407   003431 710000 36                 TRA     s:22120

     1188    22102
     1189    22103
     1190    22104    4       CASE (%OBJ_SCOPE);   /* Scope */

     1191    22105
     1192    22106    4           NEW_SCOPE$ = LOBJ$ -> OBJ_SCOPE.PROC$;

  22106 36 003410   000001 236100                    LDQ     1,,PR0
PL6.E3A0      #001=Z9IO$OUTPUT_OU File=Z9IO.:Z8A6TSI                             SAT 08/09/97 14:02 Page:157
        36 003411   200030 756100                    STQ     NEW_SCOPE$,,AUTO

     1193    22107
     1194    22108    4           IF CURRENT_SCOPE$ -> PROC_.SON ~= NEW_SCOPE$ THEN

  22108 36 003412   200027 471500                    LDP1    CURRENT_SCOPE$,,AUTO
        36 003413   100007 116100                    CMPQ    7,,PR1
        36 003414   003423 600000 36                 TZE     s:22111

     1195    22109    4             CALL CLOSE_NESTED_LOGICAL_BLOCKS(CURRENT_SCOPE$,NEW_SCOPE$);

  22109 36 003415   200030 633500                    EPPR3   NEW_SCOPE$,,AUTO
        36 003416   200066 453500                    STP3    @NEXT_SCOPE$,,AUTO
        36 003417   200027 634500                    EPPR4   CURRENT_SCOPE$,,AUTO
        36 003420   200065 454500                    STP4    @PROC$,,AUTO
        36 003421   001225 701000 36                 TSX1    CLOSE_NESTED_LOGICAL_BLOCKS
        36 003422   000000 011000                    NOP     0

     1196    22110
     1197    22111    4           CALL OPEN_LOGICAL_BLOCK(NEW_SCOPE$);

  22111 36 003423   200030 630500                    EPPR0   NEW_SCOPE$,,AUTO
        36 003424   200065 450500                    STP0    @PROC$,,AUTO
        36 003425   000731 701000 36                 TSX1    OPEN_LOGICAL_BLOCK
        36 003426   000000 011000                    NOP     0

     1198    22112
     1199    22113    4           CURRENT_SCOPE$ = NEW_SCOPE$;

  22113 36 003427   200030 236100                    LDQ     NEW_SCOPE$,,AUTO
        36 003430   200027 756100                    STQ     CURRENT_SCOPE$,,AUTO

     1200    22114
     1201    22115
     1202    22116    4     END;  /* do case */

     1203    22117
PL6.E3A0      #001=Z9IO$OUTPUT_OU File=Z9IO.:Z8A6TSI                             SAT 08/09/97 14:02 Page:158
     1204    22118          %STEP_OBJ (POINTER = LOBJ$);

  22120 36 003431   200024 470500                    LDP0    LOBJ$,,AUTO
        36 003432   000000 220100                    LDX0    0,,PR0
        36 003433   776770 721010 xsym               LXL1    OBJ_STEP-520,X0
        36 003434   000000 636011                    EAQ     0,X1
        36 003435   200024 036100                    ADLQ    LOBJ$,,AUTO
        36 003436   200024 756100                    STQ     LOBJ$,,AUTO

  22121 36 003437   200024 470500                    LDP0    LOBJ$,,AUTO
        36 003440   000000 220100                    LDX0    0,,PR0
        36 003441   003472 601000 36                 TNZ     s:22143

  22123 36 003442   000000 234000 2                  SZN     PAGING_OBJ
        36 003443   003460 605000 36                 TPL     s:22135

  22125 36 003444   000007 631400 37                 EPPR1   7
        36 003445   000000 701000 xent               TSX1    Z9HF$READ_OBJ_PAGE
        36 003446   003452 702000 36                 TSX2    s:22130

  22127 36 003447   000001 236000 8                  LDQ     OBJ_+1
        36 003450   200024 756100                    STQ     LOBJ$,,AUTO

  22128 36 003451   003457 710000 36                 TRA     s:22133

  22130 36 003452   000007 631400 37                 EPPR1   7
        36 003453   000000 701000 xent               TSX1    Z9HF$CLOSE_OBJ
        36 003454   000000 011000                    NOP     0

  22131 36 003455   000022 236000 37                 LDQ     18
        36 003456   200024 756100                    STQ     LOBJ$,,AUTO

  22133 36 003457   003472 710000 36                 TRA     s:22143

  22135 36 003460   000002 236000 8                  LDQ     OBJ_+2
        36 003461   000022 736000                    QLS     18
        36 003462   000001 036000 8                  ADLQ    OBJ_+1
PL6.E3A0      #001=Z9IO$OUTPUT_OU File=Z9IO.:Z8A6TSI                             SAT 08/09/97 14:02 Page:159
        36 003463   200024 116100                    CMPQ    LOBJ$,,AUTO
        36 003464   003470 601000 36                 TNZ     s:22138

  22136 36 003465   000022 236000 37                 LDQ     18
        36 003466   200024 756100                    STQ     LOBJ$,,AUTO
        36 003467   003472 710000 36                 TRA     s:22143

  22138 36 003470   000001 236100                    LDQ     1,,PR0
        36 003471   200024 756100                    STQ     LOBJ$,,AUTO

     1205    22142
     1206    22143    3   END;  /* do while */

  22143 36 003472   000022 116000 37                 CMPQ    18
        36 003473   002522 601000 36                 TNZ     s:21918

     1207    22144
     1208    22145    2   END PROCESS_OBJECT_CODE;

  22145 36 003474   200032 221300                    LDX1  ! LOGICAL_BLOCK_COUNT+1,,AUTO
        36 003475   000001 702211                    TSX2  ! 1,X1

     1209    22146        %EJECT;
PL6.E3A0      #001=Z9IO$OUTPUT_OU File=Z9IO.:Z8A6TSI                             SAT 08/09/97 14:02 Page:160
     1210    22147               /* Main body of Z9IO$OUTPUT_OU */
     1211    22148
     1212    22149    1   CALL INIT_OU_GEN ALTRET(CANT_OUTPUT_OU);

  22149 36 003476   000234 701000 36                 TSX1    INIT_OU_GEN
        36 003477   003541 702000 36                 TSX2    CANT_OUTPUT_OU

     1213    22150
     1214    22151    1   CALL INIT_ALL_SECTIONS;

  22151 36 003500   000561 701000 36                 TSX1    INIT_ALL_SECTIONS
        36 003501   000000 011000                    NOP     0

     1215    22152
     1216    22153    1   CALL ENTER_SYMDEF_NAMES;

  22153 36 003502   000627 701000 36                 TSX1    ENTER_SYMDEF_NAMES
        36 003503   000000 011000                    NOP     0

     1217    22154
     1218    22155    1   IF COMCOM.OB.DSS AND CURRENT_SCOPE$ ~= ADDR(NIL) THEN

  22155 36 003504   000024 234000 xsym               SZN     COMCOM+20
        36 003505   003515 605000 36                 TPL     s:22158
        36 003506   200027 236100                    LDQ     CURRENT_SCOPE$,,AUTO
        36 003507   000022 116000 37                 CMPQ    18
        36 003510   003515 600000 36                 TZE     s:22158

     1219    22156    1     CALL OPEN_LOGICAL_BLOCK(CURRENT_SCOPE$);

  22156 36 003511   200027 630500                    EPPR0   CURRENT_SCOPE$,,AUTO
        36 003512   200065 450500                    STP0    LOCAL_OBJ_WORD+3,,AUTO
        36 003513   000731 701000 36                 TSX1    OPEN_LOGICAL_BLOCK
        36 003514   000000 011000                    NOP     0

     1220    22157
     1221    22158    1   CALL PROCESS_OBJECT_CODE;
PL6.E3A0      #001=Z9IO$OUTPUT_OU File=Z9IO.:Z8A6TSI                             SAT 08/09/97 14:02 Page:161

  22158 36 003515   001317 701000 36                 TSX1    PROCESS_OBJECT_CODE
        36 003516   000000 011000                    NOP     0

     1222    22159
     1223    22160    1   IF COMCOM.OB.DSS AND CURRENT_SCOPE$ ~= ADDR(NIL) THEN

  22160 36 003517   000024 234000 xsym               SZN     COMCOM+20
        36 003520   003536 605000 36                 TPL     s:22168
        36 003521   200027 236100                    LDQ     CURRENT_SCOPE$,,AUTO
        36 003522   000022 116000 37                 CMPQ    18
        36 003523   003536 600000 36                 TZE     s:22168

     1224    22161    2     DO;

     1225    22162    2       CALL CLOSE_NESTED_LOGICAL_BLOCKS(CURRENT_SCOPE$, ADDR(NIL));

  22162 36 003524   000022 236000 37                 LDQ     18
        36 003525   200122 756100                    STQ     SECTION_OFFSET+21,,AUTO
        36 003526   200122 630500                    EPPR0   SECTION_OFFSET+21,,AUTO
        36 003527   200066 450500                    STP0    SHORT_FLAG+1,,AUTO
        36 003530   200027 631500                    EPPR1   CURRENT_SCOPE$,,AUTO
        36 003531   200065 451500                    STP1    LOCAL_OBJ_WORD+3,,AUTO
        36 003532   001225 701000 36                 TSX1    CLOSE_NESTED_LOGICAL_BLOCKS
        36 003533   000000 011000                    NOP     0

     1226    22163    2       CALL TERMINATE_LOGICAL_BLOCKS;

  22163 36 003534   001276 701000 36                 TSX1    TERMINATE_LOGICAL_BLOCKS
        36 003535   000000 011000                    NOP     0

     1227    22164    2     END;

     1228    22165
     1229    22166               /* Terminate OU Generation */
     1230    22167
     1231    22168    1   CALL XUO$OUTERM;
PL6.E3A0      #001=Z9IO$OUTPUT_OU File=Z9IO.:Z8A6TSI                             SAT 08/09/97 14:02 Page:162

  22168 36 003536   000007 631400 37                 EPPR1   7
        36 003537   000000 701000 xent               TSX1    XUO$OUTERM
        36 003540   000000 011000                    NOP     0

     1232    22169
     1233    22170    1   CANT_OUTPUT_OU:
     1234    22171    1   END Z9IO$OUTPUT_OU;

  22171 36 003541                       CANT_OUTPUT* null
  22171 36 003541   000000 702200 xent               TSX2  ! X66_ARET
     1235    22172        %EOD;

PL6.E3A0      #001=Z9IO$OUTPUT_OU File=Z9IO.:Z8A6TSI                             SAT 08/09/97 14:02 Page:163
--  Include file information  --

   XUO$ENTRIES.:LIB_E04  cannot be made into a system file and is referenced.
   Z8I_LISTING.:Z8A6TOU  cannot be made into a system file and is referenced.
   Z8I_ERR_SEV.:Z8A6TOU  cannot be made into a system file and is referenced.
   Z9I_PREPROC.:Z8A6TOU  is referenced.
   B$OBJECT_C.:LIB_E04  is referenced.
   CP_6_SUBS.:LIB_E04  is referenced.
   CP_6_C.:LIB_E04  is referenced.
   CP_6.:LIB_E04  cannot be made into a system file and is referenced.
   Z9A_FLAGS.:Z8A6TOU  is referenced.
   Z8A_SYS_FILE.:Z8A6TOU  is referenced.
   Z8E_STATEMNT.:Z8A6TOU  is referenced.
   Z9A_SUPP_MAC.:Z8A6TOU  is referenced.
   Z8A_ERR.:Z8A6TOU  cannot be made into a system file and is referenced.
   Z8A_DNT.:Z8A6TOU  cannot be made into a system file and is referenced.
   Z8A_LTS.:Z8A6TOU  cannot be made into a system file and is referenced.
   Z8A_ST.:Z8A6TOU  cannot be made into a system file and is referenced.
   Z8A_COMCOM.:Z8A6TOU  cannot be made into a system file and is referenced.
   Z8A_OBJ.:Z8A6TOU  cannot be made into a system file and is referenced.
   Z8A_ERR_NUMS.:Z8A6TOU  is referenced.
   X8A_COM_MACS.:X8A6TOU  is referenced.
   Z8A_NAMES.:Z8A6TOU  is referenced.
   Z8A_SUPP_MAC.:Z8A6TOU  is referenced.
   Z8A_DEFC.:Z8A6TOU  cannot be made into a system file and is referenced.
      No diagnostics issued in procedure Z9IO$OUTPUT_OU.
PL6.E3A0      #001=Z9IO$OUTPUT_OU File=Z9IO.:Z8A6TSI                             SAT 08/09/97 14:02 Page:164

 **** Variables and constants ****

  ****  Section 000 LblCom ITERATION

  ****  Scalars and arrays  ****
OctLoc.c.b A Datatyp(siz) R M Lvl/name                 OctLoc.c.b A Datatyp(siz) R M Lvl/name

     0-0-0/w SBIN              1 ITERATION

  ****  Section 001 LblCom OBJ$

  ****  Scalars and arrays  ****
OctLoc.c.b A Datatyp(siz) R M Lvl/name                 OctLoc.c.b A Datatyp(siz) R M Lvl/name

     0-0-0/w PTR         r     1 OBJ$

  ****  Section 002 LblCom PAGING_OBJ

  ****  Scalars and arrays  ****
OctLoc.c.b A Datatyp(siz) R M Lvl/name                 OctLoc.c.b A Datatyp(siz) R M Lvl/name

     0-0-0/w BIT         r     1 PAGING_OBJ

  ****  Section 003 LblCom OBJ_PAGE_COUNT

  ****  Scalars and arrays  ****
OctLoc.c.b A Datatyp(siz) R M Lvl/name                 OctLoc.c.b A Datatyp(siz) R M Lvl/name

     0-0-0/w SBIN              1 OBJ_PAGE_COUNT

  ****  Section 004 LblCom OBJ_FINISHED

  ****  Scalars and arrays  ****
OctLoc.c.b A Datatyp(siz) R M Lvl/name                 OctLoc.c.b A Datatyp(siz) R M Lvl/name

     0-0-0/w BIT         r     1 OBJ_FINISHED

PL6.E3A0      #001=Z9IO$OUTPUT_OU File=Z9IO.:Z8A6TSI                             SAT 08/09/97 14:02 Page:165
  ****  Section 005 LblCom OBJ_SEG_SIZE

  ****  Scalars and arrays  ****
OctLoc.c.b A Datatyp(siz) R M Lvl/name                 OctLoc.c.b A Datatyp(siz) R M Lvl/name

     0-0-0/w SBIN              1 OBJ_SEG_SIZE

  ****  Section 006 LblCom OBJ_TOP_NEW_SEG

  ****  Scalars and arrays  ****
OctLoc.c.b A Datatyp(siz) R M Lvl/name                 OctLoc.c.b A Datatyp(siz) R M Lvl/name

     0-0-0/w PTR               1 OBJ_TOP_NEW_SEG

  ****  Section 007 LblCom OBJ_LAST_REGULAR_PAGE

  ****  Scalars and arrays  ****
OctLoc.c.b A Datatyp(siz) R M Lvl/name                 OctLoc.c.b A Datatyp(siz) R M Lvl/name

     0-0-0/w PTR               1 OBJ_LAST_REGULAR_PAGE

  ****  Section 008 LblCom OBJ_

  ****  Scalars and arrays  ****
OctLoc.c.b A Datatyp(siz) R M Lvl/name                 OctLoc.c.b A Datatyp(siz) R M Lvl/name

     0-0-0/w STRC(180)   r     1 OBJ_

  ****  Section 009 LblCom ST$

  ****  Scalars and arrays  ****
OctLoc.c.b A Datatyp(siz) R M Lvl/name                 OctLoc.c.b A Datatyp(siz) R M Lvl/name

     0-0-0/w PTR         r     1 ST$

  ****  Section 010 LblCom ST_

PL6.E3A0      #001=Z9IO$OUTPUT_OU File=Z9IO.:Z8A6TSI                             SAT 08/09/97 14:02 Page:166
  ****  Scalars and arrays  ****
OctLoc.c.b A Datatyp(siz) R M Lvl/name                 OctLoc.c.b A Datatyp(siz) R M Lvl/name

     0-0-0/w STRC(180)         1 ST_

  ****  Section 011 LblCom LTS$

  ****  Scalars and arrays  ****
OctLoc.c.b A Datatyp(siz) R M Lvl/name                 OctLoc.c.b A Datatyp(siz) R M Lvl/name

     0-0-0/w PTR               1 LONG_ITEM$                 0-0-0/w PTR         r     1 LTS$

  ****  Section 012 LblCom LTS_

  ****  Scalars and arrays  ****
OctLoc.c.b A Datatyp(siz) R M Lvl/name                 OctLoc.c.b A Datatyp(siz) R M Lvl/name

     0-0-0/w STRC(180)         1 LTS_

  ****  Section 013 LblCom DNT$

  ****  Scalars and arrays  ****
OctLoc.c.b A Datatyp(siz) R M Lvl/name                 OctLoc.c.b A Datatyp(siz) R M Lvl/name

     0-0-0/w PTR         r     1 DNT$

  ****  Section 014 LblCom DNT_

  ****  Scalars and arrays  ****
OctLoc.c.b A Datatyp(siz) R M Lvl/name                 OctLoc.c.b A Datatyp(siz) R M Lvl/name

     0-0-0/w STRC(180)         1 DNT_

  ****  Section 015 LblCom DNT_BUCKET_NUMBER

  ****  Scalars and arrays  ****
OctLoc.c.b A Datatyp(siz) R M Lvl/name                 OctLoc.c.b A Datatyp(siz) R M Lvl/name
PL6.E3A0      #001=Z9IO$OUTPUT_OU File=Z9IO.:Z8A6TSI                             SAT 08/09/97 14:02 Page:167

     0-0-0/w UBIN              1 DNT_BUCKET_NUMBER

  ****  Section 016 LblCom DNT_OF_1$

  ****  Scalars and arrays  ****
OctLoc.c.b A Datatyp(siz) R M Lvl/name                 OctLoc.c.b A Datatyp(siz) R M Lvl/name

     0-0-0/w PTR               1 DNT_OF_1$

  ****  Section 017 LblCom ERR$

  ****  Scalars and arrays  ****
OctLoc.c.b A Datatyp(siz) R M Lvl/name                 OctLoc.c.b A Datatyp(siz) R M Lvl/name

     0-0-0/w PTR         r     1 ERR$

  ****  Section 018 LblCom ERR_HEAD

  ****  Scalars and arrays  ****
OctLoc.c.b A Datatyp(siz) R M Lvl/name                 OctLoc.c.b A Datatyp(siz) R M Lvl/name

     0-0-0/w PTR               1 ERR_HEAD

  ****  Section 019 LblCom ERR_TAIL

  ****  Scalars and arrays  ****
OctLoc.c.b A Datatyp(siz) R M Lvl/name                 OctLoc.c.b A Datatyp(siz) R M Lvl/name

     0-0-0/w PTR               1 ERR_TAIL

  ****  Section 020 LblCom MAX_ERROR_GENERATED

  ****  Scalars and arrays  ****
OctLoc.c.b A Datatyp(siz) R M Lvl/name                 OctLoc.c.b A Datatyp(siz) R M Lvl/name

     0-0-0/w SBIN              1 MAX_ERROR_GENERATED
PL6.E3A0      #001=Z9IO$OUTPUT_OU File=Z9IO.:Z8A6TSI                             SAT 08/09/97 14:02 Page:168

  ****  Section 021 LblCom ERR_

  ****  Scalars and arrays  ****
OctLoc.c.b A Datatyp(siz) R M Lvl/name                 OctLoc.c.b A Datatyp(siz) R M Lvl/name

     0-0-0/w STRC(180)         1 ERR_

  ****  Section 023 RoData Z9IO$OUTPUT_OU

  ****  Scalars and arrays  ****
OctLoc.c.b A Datatyp(siz) R M Lvl/name                 OctLoc.c.b A Datatyp(siz) R M Lvl/name

    22-0-0/c STRC        r     1 IDS_LIBRARY_NAME          14-0-0/w UBIN        r     1 P_COMPILER_ID
    16-0-0/c STRC(144)   r     1 P_LIBRARY_NAME            12-0-0/b BIT         r     1 P_OU_CLOSE_REQUIRED
    13-0-0/b BIT         r     1 P_SCHEMA_REQUIRED_FLAG
    24-0-0/b STRC(8)     r     1 P_SECTION_UTS_ZERO        15-0-0/c STRC(18)    r     1 P_VERSION
    23-0-0/w SBIN        r     1 P_WORDSIZE
     0-0-0/w SBIN        r     1 SEVERITY_OF_ERROR(0:9)

  ****  Section 024 LblCom SUB_HEADING_ADDR

  ****  Scalars and arrays  ****
OctLoc.c.b A Datatyp(siz) R M Lvl/name                 OctLoc.c.b A Datatyp(siz) R M Lvl/name

     0-0-0/w PTR         r     1 SUB_HEADING_ADDR

  ****  Section 025 LblCom SUB_HEADING_LEN

  ****  Scalars and arrays  ****
OctLoc.c.b A Datatyp(siz) R M Lvl/name                 OctLoc.c.b A Datatyp(siz) R M Lvl/name

     0-0-0/w SBIN        r     1 SUB_HEADING_LEN

  ****  Section 026 LblCom SUB_HEADING_ADDR1

  ****  Scalars and arrays  ****
PL6.E3A0      #001=Z9IO$OUTPUT_OU File=Z9IO.:Z8A6TSI                             SAT 08/09/97 14:02 Page:169
OctLoc.c.b A Datatyp(siz) R M Lvl/name                 OctLoc.c.b A Datatyp(siz) R M Lvl/name

     0-0-0/w PTR         r     1 SUB_HEADING_ADDR1

  ****  Section 027 LblCom SUB_HEADING_LEN1

  ****  Scalars and arrays  ****
OctLoc.c.b A Datatyp(siz) R M Lvl/name                 OctLoc.c.b A Datatyp(siz) R M Lvl/name

     0-0-0/w SBIN        r     1 SUB_HEADING_LEN1

  ****  Section 028 LblCom SUB_HEADING_ADDR2

  ****  Scalars and arrays  ****
OctLoc.c.b A Datatyp(siz) R M Lvl/name                 OctLoc.c.b A Datatyp(siz) R M Lvl/name

     0-0-0/w PTR         r     1 SUB_HEADING_ADDR2

  ****  Section 029 LblCom SUB_HEADING_LEN2

  ****  Scalars and arrays  ****
OctLoc.c.b A Datatyp(siz) R M Lvl/name                 OctLoc.c.b A Datatyp(siz) R M Lvl/name

     0-0-0/w SBIN        r     1 SUB_HEADING_LEN2

  ****  Section 030 LblCom MAX_LINES_PER_PAGE

  ****  Scalars and arrays  ****
OctLoc.c.b A Datatyp(siz) R M Lvl/name                 OctLoc.c.b A Datatyp(siz) R M Lvl/name

     0-0-0/w SBIN              1 MAX_LINES_PER_PAGE

  ****  Section 031 LblCom LISTING_LINES_ON_PAGE

  ****  Scalars and arrays  ****
OctLoc.c.b A Datatyp(siz) R M Lvl/name                 OctLoc.c.b A Datatyp(siz) R M Lvl/name

PL6.E3A0      #001=Z9IO$OUTPUT_OU File=Z9IO.:Z8A6TSI                             SAT 08/09/97 14:02 Page:170
     0-0-0/w SBIN              1 LISTING_LINES_ON_PAGE

  ****  Section 032 LblCom LISTING_PAGE_NUMBER

  ****  Scalars and arrays  ****
OctLoc.c.b A Datatyp(siz) R M Lvl/name                 OctLoc.c.b A Datatyp(siz) R M Lvl/name

     0-0-0/w SBIN              1 LISTING_PAGE_NUMBER

  ****  Section 033 LblCom PLINE

  ****  Scalars and arrays  ****
OctLoc.c.b A Datatyp(siz) R M Lvl/name                 OctLoc.c.b A Datatyp(siz) R M Lvl/name

     0-0-0/c CHAR(109)         1 PLINE
     0-0-0/c CHAR              1 PLINE_CHAR(0:108)
     0-0-0/c STRC(981)         1 PLINE_REDEF_FIELDS

  ****  Section 034 LblCom PLINE_LEN

  ****  Scalars and arrays  ****
OctLoc.c.b A Datatyp(siz) R M Lvl/name                 OctLoc.c.b A Datatyp(siz) R M Lvl/name

     0-0-0/w SBIN              1 PLINE_LEN

  ****  Section 035 LblCom P_VREBL_NUMBER

  ****  Scalars and arrays  ****
OctLoc.c.b A Datatyp(siz) R M Lvl/name                 OctLoc.c.b A Datatyp(siz) R M Lvl/name

     0-0-0/w SBIN        r     1 P_VREBL_NUMBER

  ****  Auto variables  ****

  ****  Scalars and arrays  ****
OctLoc.c.b A Datatyp(siz) R M Lvl/name                 OctLoc.c.b A Datatyp(siz) R M Lvl/name

PL6.E3A0      #001=Z9IO$OUTPUT_OU File=Z9IO.:Z8A6TSI                             SAT 08/09/97 14:02 Page:171
    65-0-0/w PTR         r     1 @COBOL_TYPE               51-0-0/w PTR         r     1 @COUNT
    66-0-0/w PTR         r     1 @CP6_TYPE                 66-0-0/w PTR         r     1 @NEXT_SCOPE$
    65-0-0/w PTR         r     1 @PROC$                    71-0-0/w PTR         r     1 @PROC$
    65-0-0/w PTR         r     1 @PROC$                    35-0-0/w PTR         r     1 @SECTION$
    41-0-0/w PTR         r     1 @TYPE                     34-0-0/w SBIN        r     1 BS_OU_INDEX
    35-0-0/w SBIN        r     1 BS_OU_INDEX_TYPE          67-0-0/w PTR         r     1 BS_ST$
    35-0-0/w UBIN        r     1 CALL_TYPE                 *0-0-0/w SBIN        r     1 COBOL_TYPE
    10-0-0/w SBIN        r     1 COUNT                     *0-0-0/w SBIN        r     1 COUNT
    *0-0-0/w SBIN        r     1 CP6_TYPE                  27-0-0/w PTR         r     1 CURRENT_SCOPE$
    42-0-0/w STRC(576)   r     1 EIS_BUFFER                41-0-0/w SBIN        r     1 EIS_BUFFER_LEN
    36-0-0/w SBIN        r     1 EREF_INDEX                42-0-0/d STRC(216)   r     1 FPT_FDS
    33-0-0/w SBIN              1 I                         70-0-0/w SBIN        r     1 I
    36-0-0/w SBIN        r     1 LABEL_INDEX                7-0-0/w SBIN        r     1 LAST_LINE_NUMBER
    70-0-0/w SBIN        r     1 LBLK_NAME_POINTER         67-0-0/w UBIN        r     1 LEXICAL_LEVEL
    66-0-0/w UBIN        r     1 LINE_START                24-0-0/w PTR         r     1 LOBJ$
    62-0-0/w STRC        r     1 LOCAL_OBJ_WORD            31-0-0/w SBIN        r     1 LOGICAL_BLOCK_COUNT
    71-0-0/w SBIN        r     1 LOG_BLK_NUMBER            30-0-0/w PTR         r     1 NEW_SCOPE$
    *0-0-0/w PTR         r     1 NEXT_SCOPE$               36-0-0/w UBIN        r     1 NUMBER_ARGUMENTS
    74-0-0/w UBIN        r     1 NUMBER_OF_ARGS            13-0-0/w SBIN        r     1 OBJ_SECT_NUMBER
    14-0-0/w SBIN        r     1 OBJ_SECT_TYPE_R           72-0-0/w PTR         r     1 P$
    67-0-0/w PTR         r     1 P$                        34-0-0/b BIT         r     1 PRIMARY_NAME
    73-0-0/b BIT         r     1 PRIMARY_NAME_FLAG         *0-0-0/w PTR         r     1 PROC$
    *0-0-0/w PTR         r     1 PROC$                     *0-0-0/w PTR         r     1 PROC$
    12-0-0/w SBIN              1 PROC_NAME_POINTER         11-0-0/w SBIN        r     1 PROG_NAME_POINTER
     6-0-0/w SBIN        r     1 P_EXST_NUMBER              5-0-0/w SBIN        r     1 P_LOGBLK_NUMBER
    15-0-0/c STRC(81)    r     1 P_NAME_HEAD               33-0-0/w UBIN        r     1 P_OPERND_TYPE
     3-0-0/w UBIN              1 P_OU_UTS                  21-0-0/w PTR         r     1 SECTION$
    *0-0-0/w PTR         r     1 SECTION$                  52-0-0/w PTR         r     1 SECTION$
    20-0-0/w SBIN        r     1 SECTIONS_ALLOCATED        37-0-0/w UBIN        r     1 SECTION_OFFSET
    75-0-0/w SBIN        r     1 SECTION_OFFSET            37-0-0/w SBIN        r     1 SECT_NAME_INDEX
    37-0-0/w UBIN        r     1 SECT_NAME_INDEX           40-0-0/w SBIN        r     1 SEC_COUNT
     4-0-0/w SBIN        r     1 SEVERITY_INDEX            65-0-0/b BIT         r     1 SHORT_FLAG
    40-0-0/w UBIN        r     1 SREF_INDEX                35-0-0/w UBIN        r     1 START_OFFSET
    23-0-0/w SBIN        r     1 STATEMENT_TYPE            26-0-0/w SBIN        r     1 SV_EIS_BUFFER_LEN
    25-0-0/w PTR         r     1 SV_LOBJ$                  34-0-0/w PTR         r     1 SYMDEF$
    33-0-0/w PTR         r     1 SYMDEF$                   22-0-0/w SBIN              1 TYPE
    *0-0-0/w SBIN        r     1 TYPE                      36-0-0/d STRC(72)    r     1 VECT
PL6.E3A0      #001=Z9IO$OUTPUT_OU File=Z9IO.:Z8A6TSI                             SAT 08/09/97 14:02 Page:172

  ****  SYMREF variables  ****

  ****  Scalars and arrays  ****
OctLoc.c.b A Datatyp(siz) R M Lvl/name                 OctLoc.c.b A Datatyp(siz) R M Lvl/name

     0-0-0/c CHAR              1 BLANK                      0-0-0/d STRC(13248) r     1 COMCOM
     0-0-0/c STRC(297)         1 DEF_LISTING_SUB_HEADING
     0-0-0/w UBIN              1 LTS_STEP(0:37)
     0-0-0/w UBIN        r     1 OBJ_STEP(0:4)
     0-0-0/w PTR               1 PLINE_PTR$                 0-0-0/w UBIN              1 Z9A8$M$DO#
     0-0-0/w PTR               1 Z9A8$M$DO$                 0-0-0/w UBIN              1 Z9A8$M$ES#
     0-0-0/w PTR               1 Z9A8$M$ES$                 0-0-0/w UBIN              1 Z9A8$M$LO#
     0-0-0/w PTR               1 Z9A8$M$LO$                 0-0-0/w UBIN              1 Z9A8$M$ME#
     0-0-0/w PTR               1 Z9A8$M$ME$                 0-0-0/w UBIN              1 Z9A8$M$OBJFILE#
     0-0-0/w PTR               1 Z9A8$M$OBJFILE$            0-0-0/w UBIN        r     1 Z9A8$M$OU#
     0-0-0/w PTR               1 Z9A8$M$OU$                 0-0-0/w UBIN              1 Z9A8$M$SI#
     0-0-0/w PTR               1 Z9A8$M$SI$                 0-0-0/w UBIN              1 Z9A8$M$SO#
     0-0-0/w PTR               1 Z9A8$M$SO$                 0-0-0/w UBIN              1 Z9A8$M$UI#
     0-0-0/w PTR               1 Z9A8$M$UI$

  ****  BASED and DCB variables  ****

  ****  Scalars and arrays  ****
OctLoc.c.b A Datatyp(siz) R M Lvl/name                 OctLoc.c.b A Datatyp(siz) R M Lvl/name

     0-0-0/w STRC(396)         1 ALPHABET                   0-0-0/w STRC(144)         1 ALTER_LTS
     0-0-0/w STRC(3672)        1 ALT_KEY                    0-0-0/w STRC(36864) r     1 ARGLIST
     0-0-0/w STRC(396)         1 ARRAY                      0-0-0/w STRC(180)         1 ARRAY_PRESET_LTS
     0-0-0/w STRC(288)         1 BASE_LTS                   0-0-0/w STRC(396)   r     1 BLOCK
     0-0-0/w STRC(144)         1 BT                         0-0-0/w STRC(396)         1 CD
     0-0-0/w STRC(288)         1 CD_LTS                     0-0-0/w CHAR(4096)        1 CHARS
     0-0-0/w STRC(396)         1 CLASS                      0-0-0/w STRC(396)         1 CONDITION
     0-0-0/w STRC(396)         1 CONST                      0-0-0/w STRC(72)    r     1 CONT
     0-0-0/w STRC(540)         1 CONTROL_NAME_LTS           0-0-0/w STRC(1872)        1 COPY_FILE
     0-0-0/w STRC(396)         1 DB                         0-0-0/w STRC(396)         1 DCB_
     0-0-0/w STRC(108)         1 DEPENDING_SIZE             0-0-0/w STRC(5472)        1 DIMS
PL6.E3A0      #001=Z9IO$OUTPUT_OU File=Z9IO.:Z8A6TSI                             SAT 08/09/97 14:02 Page:173
     0-0-0/w STRC(396)         1 DML_ITEM                   0-0-0/w STRC(216)         1 DML_REC
     0-0-0/w ASTR(180)   r     1 DNT                        0-0-0/w STRC(540)         1 ERR
     0-0-0/w STRC(73836)       1 EVALUATE                   0-0-0/w STRC(396)         1 FD
     0-0-0/w STRC(1692)        1 FILE_LTS                   0-0-0/w STRC(108)         1 INDEXES
     0-0-0/w STRC(360)         1 INIT_LTS                   0-0-0/w STRC(396)   r     1 INTDEF
     0-0-0/w STRC(180)         1 IO_RESTORE_CHAIN           0-0-0/w STRC(144)         1 KEY
     0-0-0/w STRC(396)   r     1 LABEL                      0-0-0/w STRC(36864)       1 LCNST
     0-0-0/c ACHR              1 LISTING_SUB_HEADING        0-0-0/c ACHR              1 LISTING_SUB_HEADING1
     0-0-0/c ACHR              1 LISTING_SUB_HEADING2       0-0-0/w STRC(72)          1 LONG
     0-0-0/w STRC              1 LTS                        0-0-0/w STRC(360)         1 LTSS
     0-0-0/w STRC(36936)       1 LTS_PTR_ARRAY              0-0-0N  NULL        r     1 M$UC
     0-0-0/w STRC(396)         1 MNEMONIC                   0-0-0/w STRC(144)         1 NEL
     0-0-0/w STRC        r     1 OBJ                        0-0-0/w STRC(72)    r     1 OBJ_LAB
     0-0-0/w STRC(108)   r     1 OBJ_LINE                   0-0-0/w STRC(72)    r     1 OBJ_ORG
     0-0-0/w STRC(72)    r     1 OBJ_SCOPE                  0-0-0/w STRC(144)   r     1 OBJ_WORD
     0-0-0/w STRC(216)         1 OPEN_LTS                   0-0-0/w STRC(36864)       1 PAGE
     0-0-0/w STRC(396)         1 PARA                       0-0-0/w STRC(144)         1 PRIME
     0-0-0/w STRC(396)   r     1 PROC_                      0-0-0/w STRC(396)         1 PROC_DEF
     0-0-0/w STRC(900)         1 PROC_SUPP                  0-0-0/w STRC(396)         1 RD
     0-0-0/w STRC(216)         1 REF                        0-0-0/w STRC(108)         1 RENAMES
     0-0-0/w STRC(720)         1 REPORT_01_LTS              0-0-0/w STRC(432)         1 REPORT_ELEM_LTS
     0-0-0/w STRC(252)         1 REPORT_GRP_LTS             0-0-0/w STRC(1332)        1 REPORT_LTS
     0-0-0/w STRC(144)         1 RVA_LTS                    0-0-0/w STRC(396)   r     1 SCALAR
     0-0-0/w STRC(396)         1 SD                         0-0-0/w STRC(396)         1 SECTION
     0-0-0/w STRC(396)         1 SEGMENT                    0-0-0/w STRC(360)         1 SEGMENT_LTS
     0-0-0/w STRC(396)   r     1 ST                         0-0-0/w STRC(252)         1 SUM_LTS
     0-0-0/w STRC(396)         1 SWITCH                     0-0-0/w STRC(396)         1 SYMBOLIC_CHAR
     0-0-0/w STRC(396)   r     1 SYMDEF_                    0-0-0/w STRC(396)   r     1 SYMREF_
     0-0-0/w STRC(396)         1 TEMP                       0-0-0/d STRC(612)         1 USE
     0-0-0/w STRC(252)         1 USE_SUPP                   0-0-0/w STRC(396)   r     1 VARIABLE


   Procedure Z9IO$OUTPUT_OU requires 1890 words for executable code.
   Procedure Z9IO$OUTPUT_OU requires 84 words of local(AUTO) storage.

