VERSION A06

PL6.E3A0      #001=Z9JS$START File=Z9JS.:Z8A6TSI                                 SAT 08/09/97 14:04 Page:1
        1        1        /*T***********************************************************/
        2        2        /*T*                                                         */
        3        3        /*T* Copyright (c) Bull HN Information Systems Inc., 1997    */
        4        4        /*T*                                                         */
        5        5        /*T***********************************************************/
        6        6        Z9JS$START: PROC( P$ );
        7        7
        8        8            %INCLUDE Z8A_SYS_FILE;
        9     6283
       10     6284            %FPT_INT   (UENTRY = Z9JB$BREAK);
       11     6298
       12     6299    1       DCL Z9JB$BREAK     ENTRY ASYNC;
       13     6300    1       DCL PROC$          EPTR EXT;
       14     6301    1       DCL P$             EPTR;
       15     6302
       16     6303    1       PROC$ = P$;
       17     6304    1       CALL M$INT(FPT_INT);
       18     6305
       19     6306    1   END Z9JS$START; /* PROC */
       20     6307        %EJECT;
PL6.E3A0      #001=Z9JS$START File=Z9JS.:Z8A6TSI                                 SAT 08/09/97 14:04 Page:2
       21     6308        %EOD;

PL6.E3A0      #001=Z9JS$START File=Z9JS.:Z8A6TSI                                 SAT 08/09/97 14:04 Page:3
--  Include file information  --

   CP_6_SUBS.:LIB_E04  is referenced.
   CP_6_C.:LIB_E04  is referenced.
   CP_6.:LIB_E04  cannot be made into a system file and is referenced.
   Z9A_FLAGS.:Z8A6TOU  is referenced.
   Z8A_SYS_FILE.:Z8A6TOU  is referenced.
      No diagnostics issued in procedure Z9JS$START.

   Procedure Z9JS$START requires 9 words for executable code.
   Procedure Z9JS$START requires 4 words of local(AUTO) storage.

PL6.E3A0      #001=Z9JS$START File=Z9JS.:Z8A6TSI                                 SAT 08/09/97 14:04 Page:4

 Object Unit name= Z9JS$START                                 File name= Z9JS.:Z8A6TOU
 UTS= AUG 09 '97 14:04:50.28 SAT                              Compiler= PL-6/E31         Sev=      00
 SharedLib= :SHARED_SYSTEM                                    Alt SharedLib=


    ****  Control sections  ****

 Sect   Type Bound  Init  Size OctSiz  Section name(segment info)
    0   DCB   even  none     0      0  M$UC
    1   Data  even  none     4      4  Z9JS$START
    2  LblCom even  none     1      1  PROC$
    3   Proc  even  none     9     11  Z9JS$START

    ****  Entry defs  ****

                              Check   Calling
                             calling  sequence
  Sect OctLoc Primary Altret sequence   type   Parms  Name
     3      0   yes            yes      Std        1  Z9JS$START

  ****  Entry refs  ****

         Check        Calling
        calling       sequence
Altret sequence SRef   type   Args  Name
         yes          Async      0 Z9JB$BREAK
                       nStd      0 X66_AUTO_1
                       nStd      0 X66_ARET

  ****  Data refs  ****

  Flags:  r = read only, s = secondary
Flgs Name                             Flgs Name                             Flgs Name
     M$UC
PL6.E3A0      #001=Z9JS$START File=Z9JS.:Z8A6TSI                                 SAT 08/09/97 14:04 Page:5

  ****  Segment refs  ****

  Flags:  r = read only, s = secondary
Flgs Name                             Flgs Name                             Flgs Name
     ISSID
PL6.E3A0      #001=Z9JS$START File=Z9JS.:Z8A6TSI                                 SAT 08/09/97 14:04 Page:6


        1        1        /*T***********************************************************/
        2        2        /*T*                                                         */
        3        3        /*T* Copyright (c) Bull HN Information Systems Inc., 1997    */
        4        4        /*T*                                                         */
        5        5        /*T***********************************************************/
        6        6        Z9JS$START: PROC( P$ );

      6  3 000000   000000 700200 xent  Z9JS$START   TSX0  ! X66_AUTO_1
         3 000001   000004 000001                    ZERO    4,1

        7        7
        8        8            %INCLUDE Z8A_SYS_FILE;
        9     6283
       10     6284            %FPT_INT   (UENTRY = Z9JB$BREAK);
       11     6298
       12     6299    1       DCL Z9JB$BREAK     ENTRY ASYNC;
       13     6300    1       DCL PROC$          EPTR EXT;
       14     6301    1       DCL P$             EPTR;
       15     6302
       16     6303    1       PROC$ = P$;

   6303  3 000002   200003 470500                    LDP0    @P$,,AUTO
         3 000003   000000 236100                    LDQ     0,,PR0
         3 000004   000000 756000 2                  STQ     PROC$

       17     6304    1       CALL M$INT(FPT_INT);

   6304  3 000005   000000 630400 1                  EPPR0   FPT_INT
         3 000006   010002 713400                    CLIMB   4098
         3 000007   400000 401760                    pmme    nvectors=1

       18     6305
       19     6306    1   END Z9JS$START; /* PROC */

   6306  3 000010   000000 702200 xent               TSX2  ! X66_ARET
       20     6307        %EJECT;
PL6.E3A0      #001=Z9JS$START File=Z9JS.:Z8A6TSI                                 SAT 08/09/97 14:04 Page:7
       21     6308        %EOD;

PL6.E3A0      #001=Z9JS$START File=Z9JS.:Z8A6TSI                                 SAT 08/09/97 14:04 Page:8
--  Include file information  --

   CP_6_SUBS.:LIB_E04  is referenced.
   CP_6_C.:LIB_E04  is referenced.
   CP_6.:LIB_E04  cannot be made into a system file and is referenced.
   Z9A_FLAGS.:Z8A6TOU  is referenced.
   Z8A_SYS_FILE.:Z8A6TOU  is referenced.
      No diagnostics issued in procedure Z9JS$START.
PL6.E3A0      #001=Z9JS$START File=Z9JS.:Z8A6TSI                                 SAT 08/09/97 14:04 Page:9

 **** Variables and constants ****

  ****  Section 001  Data  Z9JS$START

  ****  Scalars and arrays  ****
OctLoc.c.b A Datatyp(siz) R M Lvl/name                 OctLoc.c.b A Datatyp(siz) R M Lvl/name

     0-0-0/d STRC(144)   r     1 FPT_INT

  ****  Section 002 LblCom PROC$

  ****  Scalars and arrays  ****
OctLoc.c.b A Datatyp(siz) R M Lvl/name                 OctLoc.c.b A Datatyp(siz) R M Lvl/name

     0-0-0/w EPTR        r     1 PROC$

  ****  Auto variables  ****

  ****  Scalars and arrays  ****
OctLoc.c.b A Datatyp(siz) R M Lvl/name                 OctLoc.c.b A Datatyp(siz) R M Lvl/name

     3-0-0/w PTR         r     1 @P$                       *0-0-0/w EPTR        r     1 P$

  ****  BASED and DCB variables  ****

  ****  Scalars and arrays  ****
OctLoc.c.b A Datatyp(siz) R M Lvl/name                 OctLoc.c.b A Datatyp(siz) R M Lvl/name

     0-0-0N  NULL        r     1 M$UC


   Procedure Z9JS$START requires 9 words for executable code.
   Procedure Z9JS$START requires 4 words of local(AUTO) storage.

PL6.E3A0      #002=Z9JS$SCAN_POINTER File=Z9JS.:Z8A6TSI                          SAT 08/09/97 14:05 Page:10
       22        1        /*M*  Z9JS$SCAN_POINTER                                                     */
       23        2        /*T***********************************************************/
       24        3        /*T*                                                         */
       25        4        /*T* Copyright (c) Bull HN Information Systems Inc., 1997    */
       26        5        /*T*                                                         */
       27        6        /*T***********************************************************/
       28        7
       29        8
       30        9        /*P*
       31       10
       32       11                   NAME: Z9JS$SCAN_POINTER
       33       12                PURPOSE: TO BUILD THE POINTER REQUESTED BY INTERACTIVE
       34       13                         USERS.
       35       14        */
       36       15        /*D*
       37       16                   NAME: Z9JS$SCAN_POINTER
       38       17                   CALL: CALL Z9JS$SCAN_POINTER(POINTER$, VALID_PTR);
       39       18
       40       19              INTERFACE:
       41       20                          Z8JS$START_TREEWALKER  -- Calling routine.
       42       21                          CONVERT_TO_PTR$        -- Internal.
       43       22
       44       23                  INPUT:  INBUF  -- CONTAINS THE ELEMENTS FROM WHICH THE
       45       24                                    POINTER WILL BE CONSTRUCTED.
       46       25                 OUTPUT:  POINTER$  -- POINTER CONSTRUCTED FROM INBUF REQUEST.
       47       26                                       SET = TO ADDR(NIL) IF POINTER CAN
       48       27                                       NOT BE CONSTRUCTED.
       49       28                                              FALSE IF POINTER IS BAD.
       50       29                SCRATCH: NONE
       51       30              REFERENCE:
       52       31        */
       53       32        /*F*
       54       33                NAME  :   Z9JS$SCAN_POINTER
       55       34           DESCRIPTION:
       56       35                        THIS MODULE SCANS INBUF AND BUILDS A POINTER
       57       36               FROM THE COMPONENTS FOUND.  FIRST, THE WORD OFFSET IS
       58       37               removed, validated, and converted to binary.  Then, this
PL6.E3A0      #002=Z9JS$SCAN_POINTER File=Z9JS.:Z8A6TSI                          SAT 08/09/97 14:05 Page:11
       59       38               result is placed into the word offset portion of the
       60       39               POINTER.  NEXT, THE SEGID IS REMOVED, VALIDATED AND
       61       40               TRANSLATED FROM CHARACTER AND PLACED IN THE SEGID PORTION
       62       41               OF THE POINTER.  THIS COMPLETED POINTER IS THEN RETURNED.
       63       42
       64       43        */
       65       44        %EJECT;
PL6.E3A0      #002=Z9JS$SCAN_POINTER File=Z9JS.:Z8A6TSI                          SAT 08/09/97 14:05 Page:12
       66       45        Z9JS$SCAN_POINTER:  PROC(POINTER$);
       67       46
       68       47            %EQU PHASE = 6;
       69       48            %INCLUDE B_SEGIDS_C;
       70      587            %INCLUDE Z8A_DEFC;
       71      655
       72      656
       73      657
       74      658            %EQU LS0   = 'LS0';
       75      659            %EQU LS4   = 'LS4';
       76      660            %EQU LS5   = 'LS5';
       77      661            %EQU LS6   = 'LS6';
       78      662            %EQU LS7   = 'LS7';
       79      663            %EQU LS8   = 'LS8';
       80      664            %EQU LS9   = 'LS9';
       81      665            %EQU LS10  = 'LS10';
       82      666            %EQU LS11  = 'LS11';
       83      667            %EQU BLANK = ' ';
       84      668
       85      669    1       DCL I          SBIN WORD;
       86      670    1       DCL SEGID      CHAR(4);
       87      671    1       DCL OBUF       CHAR(120) EXT;
       88      672    1       DCL INBUF      CHAR(80)  EXT;
       89      673    1       DCL TEMP_PTR   CHAR(6);
       90      674    1       DCL POINTER$   PTR;
       91      675    1       DCL 1 POINTER  REDEF POINTER$,
       92      676    1           2 WD_OFF   UBIN HALF UNAL,
       93      677    1           2 C        BIT(2)    UNAL,
       94      678    1           2 B        BIT(4)    UNAL,
       95      679    1           2 SEGID    BIT(12)   UNAL;
       96      680
       97      681    1       DCL START      SBIN WORD;
       98      682    1       DCL PTR_FOUND  BIT(1);
       99      683    1       DCL PTR_LEN    UBIN WORD;
      100      684
      101      685
      102      686        %EJECT;
PL6.E3A0      #002=Z9JS$SCAN_POINTER File=Z9JS.:Z8A6TSI                          SAT 08/09/97 14:05 Page:13
      103      687            /*V*  VALIDATE THE WORD OFFSET PORTION OF THE POINTER. */
      104      688
      105      689    1       PTR_LEN = 1;
      106      690    1       PTR_FOUND = FALSE;
      107      691    1       POINTER$ = ADDR(NIL);
      108      692    2   LOOP:  DO I = 0 TO 79;
      109      693    3            DO SELECT (SUBSTR (INBUF,I,1) );
      110      694    3              SELECT ( '0', '1', '2', '3', '4', '5', '6', '7');
      111      695    3                IF NOT  PTR_FOUND THEN
      112      696    4                  DO;
      113      697    4                    PTR_FOUND = TRUE;
      114      698    4                    START = I;
      115      699    4                  END;
      116      700    3                ELSE
      117      701    3                  PTR_LEN = PTR_LEN + 1;
      118      702
      119      703    3              SELECT ('.');
      120      704                     /* Ignore this symbol */
      121      705
      122      706    3              SELECT (' ');
      123      707    3                IF PTR_FOUND THEN
      124      708    3                  EXIT LOOP;
      125      709    3              SELECT (',');
      126      710    3                IF PTR_FOUND THEN
      127      711    3                  EXIT LOOP;
      128      712    3                ELSE
      129      713    4                  DO;
      130      714    4                    POINTER$ = ADDR(NIL);
      131      715    4                    RETURN;
      132      716    4                  END;
      133      717
      134      718
      135      719            /* ALL THE REMAINING CHARACTERS ARE ILLEGAL, SO FLAG AN ERROR
      136      720               AND REPROMPT FOR POINTER */
      137      721
      138      722    3              SELECT ( ELSE );
      139      723    3                POINTER$ = ADDR(NIL);
PL6.E3A0      #002=Z9JS$SCAN_POINTER File=Z9JS.:Z8A6TSI                          SAT 08/09/97 14:05 Page:14
      140      724    3                RETURN;
      141      725    3            END;  /* SELECT */
      142      726    2          END; /* INDEX */
      143      727
      144      728    1       IF PTR_LEN < 6 THEN
      145      729    2         DO;
      146      730    2           TEMP_PTR = '000000';
      147      731    2           SUBSTR( TEMP_PTR, 6 - PTR_LEN, PTR_LEN ) = SUBSTR( INBUF,START,PTR_LEN );
      148      732    2           CALL CONVERT_TO_PTR$( TEMP_PTR );
      149      733    2         END;
      150      734    1       ELSE
      151      735    1         CALL CONVERT_TO_PTR$( SUBSTR( INBUF,START,PTR_LEN ) );
      152      736        %EJECT;
PL6.E3A0      #002=Z9JS$SCAN_POINTER File=Z9JS.:Z8A6TSI                          SAT 08/09/97 14:05 Page:15
      153      737            /*V*  VALIDATE THE SEGID PORTION OF THE REQUESTED POINTER,
      154      738                  IF BLANK -- SET THE DEFAULT SEGID
      155      739            */
      156      740    1       IF SUBSTR (INBUF, START + PTR_LEN + 1, 1)  = '$' THEN
      157      741    1         SEGID = SUBSTR(INBUF,START+PTR_LEN+2,4);
      158      742    1       ELSE
      159      743    1         IF SUBSTR(INBUF,START+PTR_LEN,79 -(START + PTR_LEN) ) = ' ' THEN
      160      744    1           SEGID = ' ';
      161      745    1         ELSE
      162      746    2           DO;
      163      747    2             POINTER$ = ADDR(NIL);
      164      748    2             RETURN;
      165      749    2           END;
      166      750
      167      751    2       DO SELECT (SEGID);
      168      752    2         SELECT(%LS0, %BLANK );    /* DEFAULT IS $LS0 */
      169      753    2           POINTER.SEGID = %ISSID;
      170      754    2         SELECT (%LS4);
      171      755    2           POINTER.SEGID = %DS1SID;
      172      756    2         SELECT  (%LS5);
      173      757    2           POINTER.SEGID = %DS2SID;
      174      758    2         SELECT (%LS6);
      175      759    2           POINTER.SEGID = %DS3SID;
      176      760    2         SELECT (%LS7);
      177      761    2           POINTER.SEGID = %DS4SID;
      178      762    2         SELECT (%LS8);
      179      763    2           POINTER.SEGID = %DS5SID;
      180      764    2         SELECT (%LS9);
      181      765    2           POINTER.SEGID = %DS6SID;
      182      766    2         SELECT (%LS10);
      183      767    2           POINTER.SEGID = %DS7SID;
      184      768    2         SELECT (%LS11);
      185      769    2           POINTER.SEGID = %DS8SID;
      186      770    2         SELECT ( ELSE );
      187      771    2           POINTER$ = ADDR(NIL);
      188      772    2           RETURN;
      189      773    2       END; /*SELECT */
PL6.E3A0      #002=Z9JS$SCAN_POINTER File=Z9JS.:Z8A6TSI                          SAT 08/09/97 14:05 Page:16
      190      774        %EJECT;
PL6.E3A0      #002=Z9JS$SCAN_POINTER File=Z9JS.:Z8A6TSI                          SAT 08/09/97 14:05 Page:17
      191      775    1     CONVERT_TO_PTR$: PROC( CHAR6 );
      192      776
      193      777    2       DCL CHAR6          CHAR(6);
      194      778    2       DCL BIN1           UBIN WORD;
      195      779    2       POINTER.WD_OFF = 0;        /*  CLEAR FIRST HALF OF POINTER */
      196      780
      197      781    3       DO I = 0 TO 4;             /*  Convert to pointer          */
      198      782    3         CALL CHARBIN (BIN1, SUBSTR (CHAR6, I, 1) );
      199      783    3         POINTER.WD_OFF = ( POINTER.WD_OFF + BIN1 ) * 8;
      200      784    3       END;
      201      785    2       CALL CHARBIN (BIN1, SUBSTR (CHAR6, 5, 1) );
      202      786    2       POINTER.WD_OFF = POINTER.WD_OFF + BIN1;
      203      787
      204      788    2     END CONVERT_TO_PTR$;    /* proc */
      205      789
      206      790    1     END Z9JS$SCAN_POINTER;  /* PROC */
      207      791        %EJECT;
PL6.E3A0      #002=Z9JS$SCAN_POINTER File=Z9JS.:Z8A6TSI                          SAT 08/09/97 14:05 Page:18

PL6.E3A0      #002=Z9JS$SCAN_POINTER File=Z9JS.:Z8A6TSI                          SAT 08/09/97 14:05 Page:19
--  Include file information  --

   Z8A_DEFC.:Z8A6TOU  cannot be made into a system file and is referenced.
   B_SEGIDS_C.:LIB_E04  is referenced.
      No diagnostics issued in procedure Z9JS$SCAN_POINTER.

   Procedure Z9JS$SCAN_POINTER requires 268 words for executable code.
   Procedure Z9JS$SCAN_POINTER requires 18 words of local(AUTO) storage.

    No errors detected in file Z9JS.:Z8A6TSI    .

PL6.E3A0      #002=Z9JS$SCAN_POINTER File=Z9JS.:Z8A6TSI                          SAT 08/09/97 14:05 Page:20

 Object Unit name= Z9JS$SCAN_POINTER                          File name= Z9JS.:Z8A6TOU
 UTS= AUG 09 '97 14:05:28.92 SAT                              Compiler= PL-6/E31         Sev=      00
 SharedLib= :SHARED_SYSTEM                                    Alt SharedLib=


    ****  Control sections  ****

 Sect   Type Bound  Init  Size OctSiz  Section name(segment info)
    0  LblCom even  none     1      1  ITERATION
    1  LblCom even  none    30     36  OBUF
    2  LblCom even  none    20     24  INBUF
    3  RoData even  UTS     11     13  Z9JS$SCAN_POINTER
    4   Proc  even  none   268    414  Z9JS$SCAN_POINTER
    5  RoData even  none    14     16  Z9JS$SCAN_POINTER

    ****  Entry defs  ****

                              Check   Calling
                             calling  sequence
  Sect OctLoc Primary Altret sequence   type   Parms  Name
     4      0   yes            yes      Std        1  Z9JS$SCAN_POINTER

  ****  Entry refs  ****

         Check        Calling
        calling       sequence
Altret sequence SRef   type   Args  Name
                       nStd      0 X66_AUTO_1
                       nStd      0 X66_ARET

  ****  Segment refs  ****

  Flags:  r = read only, s = secondary
Flgs Name                             Flgs Name                             Flgs Name
     NULLSID                               ISSID
PL6.E3A0      #002=Z9JS$SCAN_POINTER File=Z9JS.:Z8A6TSI                          SAT 08/09/97 14:05 Page:21


       22        1        /*M*  Z9JS$SCAN_POINTER                                                     */
       23        2        /*T***********************************************************/
       24        3        /*T*                                                         */
       25        4        /*T* Copyright (c) Bull HN Information Systems Inc., 1997    */
       26        5        /*T*                                                         */
       27        6        /*T***********************************************************/
       28        7
       29        8
       30        9        /*P*
       31       10
       32       11                   NAME: Z9JS$SCAN_POINTER
       33       12                PURPOSE: TO BUILD THE POINTER REQUESTED BY INTERACTIVE
       34       13                         USERS.
       35       14        */
       36       15        /*D*
       37       16                   NAME: Z9JS$SCAN_POINTER
       38       17                   CALL: CALL Z9JS$SCAN_POINTER(POINTER$, VALID_PTR);
       39       18
       40       19              INTERFACE:
       41       20                          Z8JS$START_TREEWALKER  -- Calling routine.
       42       21                          CONVERT_TO_PTR$        -- Internal.
       43       22
       44       23                  INPUT:  INBUF  -- CONTAINS THE ELEMENTS FROM WHICH THE
       45       24                                    POINTER WILL BE CONSTRUCTED.
       46       25                 OUTPUT:  POINTER$  -- POINTER CONSTRUCTED FROM INBUF REQUEST.
       47       26                                       SET = TO ADDR(NIL) IF POINTER CAN
       48       27                                       NOT BE CONSTRUCTED.
       49       28                                              FALSE IF POINTER IS BAD.
       50       29                SCRATCH: NONE
       51       30              REFERENCE:
       52       31        */
       53       32        /*F*
       54       33                NAME  :   Z9JS$SCAN_POINTER
       55       34           DESCRIPTION:
       56       35                        THIS MODULE SCANS INBUF AND BUILDS A POINTER
       57       36               FROM THE COMPONENTS FOUND.  FIRST, THE WORD OFFSET IS
PL6.E3A0      #002=Z9JS$SCAN_POINTER File=Z9JS.:Z8A6TSI                          SAT 08/09/97 14:05 Page:22
       58       37               removed, validated, and converted to binary.  Then, this
       59       38               result is placed into the word offset portion of the
       60       39               POINTER.  NEXT, THE SEGID IS REMOVED, VALIDATED AND
       61       40               TRANSLATED FROM CHARACTER AND PLACED IN THE SEGID PORTION
       62       41               OF THE POINTER.  THIS COMPLETED POINTER IS THEN RETURNED.
       63       42
       64       43        */
       65       44        %EJECT;
PL6.E3A0      #002=Z9JS$SCAN_POINTER File=Z9JS.:Z8A6TSI                          SAT 08/09/97 14:05 Page:23
       66       45        Z9JS$SCAN_POINTER:  PROC(POINTER$);

     45  4 000000   000000 700200 xent  Z9JS$SCAN_P* TSX0  ! X66_AUTO_1
         4 000001   000022 000001                    ZERO    18,1

       67       46
       68       47            %EQU PHASE = 6;
       69       48            %INCLUDE B_SEGIDS_C;
       70      587            %INCLUDE Z8A_DEFC;
       71      655
       72      656
       73      657
       74      658            %EQU LS0   = 'LS0';
       75      659            %EQU LS4   = 'LS4';
       76      660            %EQU LS5   = 'LS5';
       77      661            %EQU LS6   = 'LS6';
       78      662            %EQU LS7   = 'LS7';
       79      663            %EQU LS8   = 'LS8';
       80      664            %EQU LS9   = 'LS9';
       81      665            %EQU LS10  = 'LS10';
       82      666            %EQU LS11  = 'LS11';
       83      667            %EQU BLANK = ' ';
       84      668
       85      669    1       DCL I          SBIN WORD;
       86      670    1       DCL SEGID      CHAR(4);
       87      671    1       DCL OBUF       CHAR(120) EXT;
       88      672    1       DCL INBUF      CHAR(80)  EXT;
       89      673    1       DCL TEMP_PTR   CHAR(6);
       90      674    1       DCL POINTER$   PTR;
       91      675    1       DCL 1 POINTER  REDEF POINTER$,
       92      676    1           2 WD_OFF   UBIN HALF UNAL,
       93      677    1           2 C        BIT(2)    UNAL,
       94      678    1           2 B        BIT(4)    UNAL,
       95      679    1           2 SEGID    BIT(12)   UNAL;
       96      680
       97      681    1       DCL START      SBIN WORD;
       98      682    1       DCL PTR_FOUND  BIT(1);
PL6.E3A0      #002=Z9JS$SCAN_POINTER File=Z9JS.:Z8A6TSI                          SAT 08/09/97 14:05 Page:24
       99      683    1       DCL PTR_LEN    UBIN WORD;
      100      684
      101      685
      102      686        %EJECT;
PL6.E3A0      #002=Z9JS$SCAN_POINTER File=Z9JS.:Z8A6TSI                          SAT 08/09/97 14:05 Page:25
      103      687            /*V*  VALIDATE THE WORD OFFSET PORTION OF THE POINTER. */
      104      688
      105      689    1       PTR_LEN = 1;

    689  4 000002   000001 235007                    LDA     1,DL
         4 000003   200012 755100                    STA     PTR_LEN,,AUTO

      106      690    1       PTR_FOUND = FALSE;

    690  4 000004   200011 450100                    STZ     PTR_FOUND,,AUTO

      107      691    1       POINTER$ = ADDR(NIL);

    691  4 000005   000000 236000 5                  LDQ     0
         4 000006   200003 470500                    LDP0    @POINTER$,,AUTO
         4 000007   000000 756100                    STQ     0,,PR0

      108      692    2   LOOP:  DO I = 0 TO 79;

    692  4 000010   200004 450100       LOOP         STZ     I,,AUTO

      109      693    3            DO SELECT (SUBSTR (INBUF,I,1) );

    693  4 000011   200004 235100                    LDA     I,,AUTO
         4 000012   040000 106405                    CMPC    fill='040'O
         4 000013   000000 000001 2                  ADSC9   INBUF,A                  cn=0,n=1
         4 000014   000001 000001 5                  ADSC9   1                        cn=0,n=1
         4 000015   000043 602000 4                  TNC     s:693+26
         4 000016   000101 600000 4                  TZE     s:695
         4 000017   040000 106405                    CMPC    fill='040'O
         4 000020   000000 000001 2                  ADSC9   INBUF,A                  cn=0,n=1
         4 000021   000002 000001 5                  ADSC9   2                        cn=0,n=1
         4 000022   000036 602000 4                  TNC     s:693+21
         4 000023   000101 600000 4                  TZE     s:695
         4 000024   040000 106405                    CMPC    fill='040'O
         4 000025   000000 000001 2                  ADSC9   INBUF,A                  cn=0,n=1
         4 000026   000003 000001 5                  ADSC9   3                        cn=0,n=1
PL6.E3A0      #002=Z9JS$SCAN_POINTER File=Z9JS.:Z8A6TSI                          SAT 08/09/97 14:05 Page:26
         4 000027   000125 602000 4                  TNC     s:723
         4 000030   000101 600000 4                  TZE     s:695
         4 000031   040000 106405                    CMPC    fill='040'O
         4 000032   000000 000001 2                  ADSC9   INBUF,A                  cn=0,n=1
         4 000033   000004 000001 5                  ADSC9   4                        cn=0,n=1
         4 000034   000125 601000 4                  TNZ     s:723
         4 000035   000101 710000 4                  TRA     s:695
         4 000036   040000 106405                    CMPC    fill='040'O
         4 000037   000000 000001 2                  ADSC9   INBUF,A                  cn=0,n=1
         4 000040   000005 000001 5                  ADSC9   5                        cn=0,n=1
         4 000041   000125 601000 4                  TNZ     s:723
         4 000042   000101 710000 4                  TRA     s:695
         4 000043   040000 106405                    CMPC    fill='040'O
         4 000044   000000 000001 2                  ADSC9   INBUF,A                  cn=0,n=1
         4 000045   000006 000001 5                  ADSC9   6                        cn=0,n=1
         4 000046   000067 602000 4                  TNC     s:693+46
         4 000047   000113 600000 4                  TZE     s:703
         4 000050   040000 106405                    CMPC    fill='040'O
         4 000051   000000 000001 2                  ADSC9   INBUF,A                  cn=0,n=1
         4 000052   000007 000001 5                  ADSC9   7                        cn=0,n=1
         4 000053   000062 602000 4                  TNC     s:693+41
         4 000054   000101 600000 4                  TZE     s:695
         4 000055   040000 106405                    CMPC    fill='040'O
         4 000056   000000 000001 2                  ADSC9   INBUF,A                  cn=0,n=1
         4 000057   000010 000001 5                  ADSC9   8                        cn=0,n=1
         4 000060   000125 601000 4                  TNZ     s:723
         4 000061   000101 710000 4                  TRA     s:695
         4 000062   040000 106405                    CMPC    fill='040'O
         4 000063   000000 000001 2                  ADSC9   INBUF,A                  cn=0,n=1
         4 000064   000011 000001 5                  ADSC9   9                        cn=0,n=1
         4 000065   000125 601000 4                  TNZ     s:723
         4 000066   000101 710000 4                  TRA     s:695
         4 000067   040000 106405                    CMPC    fill='040'O
         4 000070   000000 000001 2                  ADSC9   INBUF,A                  cn=0,n=1
         4 000071   000012 000001 5                  ADSC9   10                       cn=0,n=1
         4 000072   000125 602000 4                  TNC     s:723
         4 000073   000114 600000 4                  TZE     s:707
PL6.E3A0      #002=Z9JS$SCAN_POINTER File=Z9JS.:Z8A6TSI                          SAT 08/09/97 14:05 Page:27
         4 000074   040000 106405                    CMPC    fill='040'O
         4 000075   000000 000001 2                  ADSC9   INBUF,A                  cn=0,n=1
         4 000076   000013 000001 5                  ADSC9   11                       cn=0,n=1
         4 000077   000125 601000 4                  TNZ     s:723
         4 000100   000117 710000 4                  TRA     s:710

      110      694    3              SELECT ( '0', '1', '2', '3', '4', '5', '6', '7');

      111      695    3                IF NOT  PTR_FOUND THEN

    695  4 000101   200011 234100                    SZN     PTR_FOUND,,AUTO
         4 000102   000107 604000 4                  TMI     s:701

      112      696    4                  DO;

      113      697    4                    PTR_FOUND = TRUE;

    697  4 000103   400000 236003                    LDQ     -131072,DU
         4 000104   200011 756100                    STQ     PTR_FOUND,,AUTO

      114      698    4                    START = I;

    698  4 000105   200010 755100                    STA     START,,AUTO

      115      699    4                  END;

    699  4 000106   000131 710000 4                  TRA     s:726

      116      700    3                ELSE
      117      701    3                  PTR_LEN = PTR_LEN + 1;

    701  4 000107   200012 236100                    LDQ     PTR_LEN,,AUTO
         4 000110   000001 036007                    ADLQ    1,DL
         4 000111   200012 756100                    STQ     PTR_LEN,,AUTO
         4 000112   000131 710000 4                  TRA     s:726

      118      702
PL6.E3A0      #002=Z9JS$SCAN_POINTER File=Z9JS.:Z8A6TSI                          SAT 08/09/97 14:05 Page:28
      119      703    3              SELECT ('.');

    703  4 000113   000131 710000 4                  TRA     s:726

      120      704                     /* Ignore this symbol */
      121      705
      122      706    3              SELECT (' ');

      123      707    3                IF PTR_FOUND THEN

    707  4 000114   200011 234100                    SZN     PTR_FOUND,,AUTO
         4 000115   000135 604000 4                  TMI     s:728
         4 000116   000131 710000 4                  TRA     s:726

      124      708    3                  EXIT LOOP;
      125      709    3              SELECT (',');

      126      710    3                IF PTR_FOUND THEN

    710  4 000117   200011 234100                    SZN     PTR_FOUND,,AUTO
         4 000120   000135 604000 4                  TMI     s:728

      127      711    3                  EXIT LOOP;
      128      712    3                ELSE
      129      713    4                  DO;

      130      714    4                    POINTER$ = ADDR(NIL);

    714  4 000121   000000 236000 5                  LDQ     0
         4 000122   200003 470500                    LDP0    @POINTER$,,AUTO
         4 000123   000000 756100                    STQ     0,,PR0

      131      715    4                    RETURN;

    715  4 000124   000000 702200 xent               TSX2  ! X66_ARET

      132      716    4                  END;
PL6.E3A0      #002=Z9JS$SCAN_POINTER File=Z9JS.:Z8A6TSI                          SAT 08/09/97 14:05 Page:29
      133      717
      134      718
      135      719            /* ALL THE REMAINING CHARACTERS ARE ILLEGAL, SO FLAG AN ERROR
      136      720               AND REPROMPT FOR POINTER */
      137      721
      138      722    3              SELECT ( ELSE );

      139      723    3                POINTER$ = ADDR(NIL);

    723  4 000125   000000 236000 5                  LDQ     0
         4 000126   200003 470500                    LDP0    @POINTER$,,AUTO
         4 000127   000000 756100                    STQ     0,,PR0

      140      724    3                RETURN;

    724  4 000130   000000 702200 xent               TSX2  ! X66_ARET

      141      725    3            END;  /* SELECT */

      142      726    2          END; /* INDEX */

    726  4 000131   200004 054100                    AOS     I,,AUTO
         4 000132   200004 235100                    LDA     I,,AUTO
         4 000133   000117 115007                    CMPA    79,DL
         4 000134   000011 604400 4                  TMOZ    s:693

      143      727
      144      728    1       IF PTR_LEN < 6 THEN

    728  4 000135   200012 236100                    LDQ     PTR_LEN,,AUTO
         4 000136   000006 116007                    CMPQ    6,DL
         4 000137   000160 603000 4                  TRC     s:735

      145      729    2         DO;

      146      730    2           TEMP_PTR = '000000';

PL6.E3A0      #002=Z9JS$SCAN_POINTER File=Z9JS.:Z8A6TSI                          SAT 08/09/97 14:05 Page:30
    730  4 000140   040100 100400                    MLR     fill='040'O
         4 000141   000000 000006 3                  ADSC9   0                        cn=0,n=6
         4 000142   200006 000006                    ADSC9   TEMP_PTR,,AUTO           cn=0,n=6

      147      731    2           SUBSTR( TEMP_PTR, 6 - PTR_LEN, PTR_LEN ) = SUBSTR( INBUF,START,PTR_LEN );

    731  4 000143   000000 235003                    LDA     0,DU
         4 000144   200012 135100                    SBLA    PTR_LEN,,AUTO
         4 000145   000000 620006                    EAX0    0,QL
         4 000146   200010 236100                    LDQ     START,,AUTO
         4 000147   200012 721100                    LXL1    PTR_LEN,,AUTO
         4 000150   040145 100446                    MLR     fill='040'O
         4 000151   000000 000010 2                  ADSC9   INBUF,Q                  cn=0,n=*X0
         4 000152   200007 400011                    ADSC9   TEMP_PTR+1,A,AUTO        cn=2,n=*X1

      148      732    2           CALL CONVERT_TO_PTR$( TEMP_PTR );

    732  4 000153   200006 630500                    EPPR0   TEMP_PTR,,AUTO
         4 000154   200015 450500                    STP0    PTR_LEN+3,,AUTO
         4 000155   000354 701000 4                  TSX1    CONVERT_TO_PTR$
         4 000156   000000 011000                    NOP     0

      149      733    2         END;

    733  4 000157   000166 710000 4                  TRA     s:740

      150      734    1       ELSE
      151      735    1         CALL CONVERT_TO_PTR$( SUBSTR( INBUF,START,PTR_LEN ) );

    735  4 000160   200010 236100                    LDQ     START,,AUTO
         4 000161   000020 736000                    QLS     16
         4 000162   000014 036000 5                  ADLQ    12
         4 000163   200015 756100                    STQ     PTR_LEN+3,,AUTO
         4 000164   000354 701000 4                  TSX1    CONVERT_TO_PTR$
         4 000165   000000 011000                    NOP     0

      152      736        %EJECT;
PL6.E3A0      #002=Z9JS$SCAN_POINTER File=Z9JS.:Z8A6TSI                          SAT 08/09/97 14:05 Page:31
      153      737            /*V*  VALIDATE THE SEGID PORTION OF THE REQUESTED POINTER,
      154      738                  IF BLANK -- SET THE DEFAULT SEGID
      155      739            */
      156      740    1       IF SUBSTR (INBUF, START + PTR_LEN + 1, 1)  = '$' THEN

    740  4 000166   200010 236100                    LDQ     START,,AUTO
         4 000167   200012 036100                    ADLQ    PTR_LEN,,AUTO
         4 000170   040000 106406                    CMPC    fill='040'O
         4 000171   000000 200001 2                  ADSC9   INBUF,Q                  cn=1,n=1
         4 000172   000015 000001 5                  ADSC9   13                       cn=0,n=1
         4 000173   000202 601000 4                  TNZ     s:743

      157      741    1         SEGID = SUBSTR(INBUF,START+PTR_LEN+2,4);

    741  4 000174   200010 236100                    LDQ     START,,AUTO
         4 000175   200012 036100                    ADLQ    PTR_LEN,,AUTO
         4 000176   040100 100406                    MLR     fill='040'O
         4 000177   000000 400004 2                  ADSC9   INBUF,Q                  cn=2,n=4
         4 000200   200005 000004                    ADSC9   SEGID,,AUTO              cn=0,n=4
         4 000201   000225 710000 4                  TRA     s:751

      158      742    1       ELSE
      159      743    1         IF SUBSTR(INBUF,START+PTR_LEN,79 -(START + PTR_LEN) ) = ' ' THEN

    743  4 000202   200010 236100                    LDQ     START,,AUTO
         4 000203   200012 036100                    ADLQ    PTR_LEN,,AUTO
         4 000204   200020 756100                    STQ     BIN1+2,,AUTO
         4 000205   200010 236100                    LDQ     START,,AUTO
         4 000206   200012 036100                    ADLQ    PTR_LEN,,AUTO
         4 000207   777660 620006                    EAX0    -80,QL
         4 000210   777777 660003                    ERX0    -1,DU
         4 000211   200020 235100                    LDA     BIN1+2,,AUTO
         4 000212   040000 106445                    CMPC    fill='040'O
         4 000213   000000 000010 2                  ADSC9   INBUF,A                  cn=0,n=*X0
         4 000214   000012 000001 5                  ADSC9   10                       cn=0,n=1
         4 000215   000221 601000 4                  TNZ     s:747

PL6.E3A0      #002=Z9JS$SCAN_POINTER File=Z9JS.:Z8A6TSI                          SAT 08/09/97 14:05 Page:32
      160      744    1           SEGID = ' ';

    744  4 000216   000012 236000 5                  LDQ     10
         4 000217   200005 756100                    STQ     SEGID,,AUTO
         4 000220   000225 710000 4                  TRA     s:751

      161      745    1         ELSE
      162      746    2           DO;

      163      747    2             POINTER$ = ADDR(NIL);

    747  4 000221   000000 236000 5                  LDQ     0
         4 000222   200003 470500                    LDP0    @POINTER$,,AUTO
         4 000223   000000 756100                    STQ     0,,PR0

      164      748    2             RETURN;

    748  4 000224   000000 702200 xent               TSX2  ! X66_ARET

      165      749    2           END;
      166      750
      167      751    2       DO SELECT (SEGID);

    751  4 000225   040000 106500                    CMPC    fill='040'O
         4 000226   200005 000004                    ADSC9   SEGID,,AUTO              cn=0,n=4
         4 000227   000002 000003 3                  ADSC9   2                        cn=0,n=3
         4 000230   000256 602000 4                  TNC     s:751+25
         4 000231   000313 600000 4                  TZE     s:757
         4 000232   040000 106500                    CMPC    fill='040'O
         4 000233   200005 000004                    ADSC9   SEGID,,AUTO              cn=0,n=4
         4 000234   000003 000003 3                  ADSC9   3                        cn=0,n=3
         4 000235   000251 602000 4                  TNC     s:751+20
         4 000236   000323 600000 4                  TZE     s:761
         4 000237   040000 106500                    CMPC    fill='040'O
         4 000240   200005 000004                    ADSC9   SEGID,,AUTO              cn=0,n=4
         4 000241   000004 000003 3                  ADSC9   4                        cn=0,n=3
         4 000242   000347 602000 4                  TNC     s:771
PL6.E3A0      #002=Z9JS$SCAN_POINTER File=Z9JS.:Z8A6TSI                          SAT 08/09/97 14:05 Page:33
         4 000243   000327 600000 4                  TZE     s:763
         4 000244   040000 106500                    CMPC    fill='040'O
         4 000245   200005 000004                    ADSC9   SEGID,,AUTO              cn=0,n=4
         4 000246   000005 000003 3                  ADSC9   5                        cn=0,n=3
         4 000247   000347 601000 4                  TNZ     s:771
         4 000250   000333 710000 4                  TRA     s:765
         4 000251   040000 106500                    CMPC    fill='040'O
         4 000252   200005 000004                    ADSC9   SEGID,,AUTO              cn=0,n=4
         4 000253   000006 000003 3                  ADSC9   6                        cn=0,n=3
         4 000254   000347 601000 4                  TNZ     s:771
         4 000255   000317 710000 4                  TRA     s:759
         4 000256   040000 106500                    CMPC    fill='040'O
         4 000257   200005 000004                    ADSC9   SEGID,,AUTO              cn=0,n=4
         4 000260   000007 000003 3                  ADSC9   7                        cn=0,n=3
         4 000261   000277 602000 4                  TNC     s:751+42
         4 000262   000303 600000 4                  TZE     s:753
         4 000263   200005 236100                    LDQ     SEGID,,AUTO
         4 000264   000010 116000 3                  CMPQ    8
         4 000265   000274 602000 4                  TNC     s:751+39
         4 000266   000343 600000 4                  TZE     s:769
         4 000267   040000 106500                    CMPC    fill='040'O
         4 000270   200005 000004                    ADSC9   SEGID,,AUTO              cn=0,n=4
         4 000271   000011 000003 3                  ADSC9   9                        cn=0,n=3
         4 000272   000347 601000 4                  TNZ     s:771
         4 000273   000307 710000 4                  TRA     s:755
         4 000274   000012 116000 3                  CMPQ    10
         4 000275   000347 601000 4                  TNZ     s:771
         4 000276   000337 710000 4                  TRA     s:767
         4 000277   200005 236100                    LDQ     SEGID,,AUTO
         4 000300   000012 116000 5                  CMPQ    10
         4 000301   000347 601000 4                  TNZ     s:771
         4 000302   000303 710000 4                  TRA     s:753

      168      752    2         SELECT(%LS0, %BLANK );    /* DEFAULT IS $LS0 */

      169      753    2           POINTER.SEGID = %ISSID;

PL6.E3A0      #002=Z9JS$SCAN_POINTER File=Z9JS.:Z8A6TSI                          SAT 08/09/97 14:05 Page:34
    753  4 000303   200003 470500                    LDP0    @POINTER$,,AUTO
         4 000304   006000 236007                    LDQ     3072,DL
         4 000305   000000 752103                    STCQ    0,'03'O,PR0
         4 000306   000353 710000 4                  TRA     s:773

      170      754    2         SELECT (%LS4);

      171      755    2           POINTER.SEGID = %DS1SID;

    755  4 000307   200003 470500                    LDP0    @POINTER$,,AUTO
         4 000310   006004 236007                    LDQ     3076,DL
         4 000311   000000 752103                    STCQ    0,'03'O,PR0
         4 000312   000353 710000 4                  TRA     s:773

      172      756    2         SELECT  (%LS5);

      173      757    2           POINTER.SEGID = %DS2SID;

    757  4 000313   200003 470500                    LDP0    @POINTER$,,AUTO
         4 000314   006005 236007                    LDQ     3077,DL
         4 000315   000000 752103                    STCQ    0,'03'O,PR0
         4 000316   000353 710000 4                  TRA     s:773

      174      758    2         SELECT (%LS6);

      175      759    2           POINTER.SEGID = %DS3SID;

    759  4 000317   200003 470500                    LDP0    @POINTER$,,AUTO
         4 000320   006006 236007                    LDQ     3078,DL
         4 000321   000000 752103                    STCQ    0,'03'O,PR0
         4 000322   000353 710000 4                  TRA     s:773

      176      760    2         SELECT (%LS7);

      177      761    2           POINTER.SEGID = %DS4SID;

    761  4 000323   200003 470500                    LDP0    @POINTER$,,AUTO
PL6.E3A0      #002=Z9JS$SCAN_POINTER File=Z9JS.:Z8A6TSI                          SAT 08/09/97 14:05 Page:35
         4 000324   006007 236007                    LDQ     3079,DL
         4 000325   000000 752103                    STCQ    0,'03'O,PR0
         4 000326   000353 710000 4                  TRA     s:773

      178      762    2         SELECT (%LS8);

      179      763    2           POINTER.SEGID = %DS5SID;

    763  4 000327   200003 470500                    LDP0    @POINTER$,,AUTO
         4 000330   006010 236007                    LDQ     3080,DL
         4 000331   000000 752103                    STCQ    0,'03'O,PR0
         4 000332   000353 710000 4                  TRA     s:773

      180      764    2         SELECT (%LS9);

      181      765    2           POINTER.SEGID = %DS6SID;

    765  4 000333   200003 470500                    LDP0    @POINTER$,,AUTO
         4 000334   006011 236007                    LDQ     3081,DL
         4 000335   000000 752103                    STCQ    0,'03'O,PR0
         4 000336   000353 710000 4                  TRA     s:773

      182      766    2         SELECT (%LS10);

      183      767    2           POINTER.SEGID = %DS7SID;

    767  4 000337   200003 470500                    LDP0    @POINTER$,,AUTO
         4 000340   006012 236007                    LDQ     3082,DL
         4 000341   000000 752103                    STCQ    0,'03'O,PR0
         4 000342   000353 710000 4                  TRA     s:773

      184      768    2         SELECT (%LS11);

      185      769    2           POINTER.SEGID = %DS8SID;

    769  4 000343   200003 470500                    LDP0    @POINTER$,,AUTO
         4 000344   006013 236007                    LDQ     3083,DL
PL6.E3A0      #002=Z9JS$SCAN_POINTER File=Z9JS.:Z8A6TSI                          SAT 08/09/97 14:05 Page:36
         4 000345   000000 752103                    STCQ    0,'03'O,PR0
         4 000346   000353 710000 4                  TRA     s:773

      186      770    2         SELECT ( ELSE );

      187      771    2           POINTER$ = ADDR(NIL);

    771  4 000347   000000 236000 5                  LDQ     0
         4 000350   200003 470500                    LDP0    @POINTER$,,AUTO
         4 000351   000000 756100                    STQ     0,,PR0

      188      772    2           RETURN;

    772  4 000352   000000 702200 xent               TSX2  ! X66_ARET

      189      773    2       END; /*SELECT */

    773  4 000353   000413 710000 4                  TRA     s:790

      190      774        %EJECT;
PL6.E3A0      #002=Z9JS$SCAN_POINTER File=Z9JS.:Z8A6TSI                          SAT 08/09/97 14:05 Page:37
      191      775    1     CONVERT_TO_PTR$: PROC( CHAR6 );

    775  4 000354   200014 741300       CONVERT_TO_* STX1  ! PTR_LEN+2,,AUTO

      192      776
      193      777    2       DCL CHAR6          CHAR(6);
      194      778    2       DCL BIN1           UBIN WORD;
      195      779    2       POINTER.WD_OFF = 0;        /*  CLEAR FIRST HALF OF POINTER */

    779  4 000355   000000 220003                    LDX0    0,DU
         4 000356   200003 470500                    LDP0    @POINTER$,,AUTO
         4 000357   000000 740100                    STX0    0,,PR0

      196      780
      197      781    3       DO I = 0 TO 4;             /*  Convert to pointer          */

    781  4 000360   200004 450100                    STZ     I,,AUTO

      198      782    3         CALL CHARBIN (BIN1, SUBSTR (CHAR6, I, 1) );

    782  4 000361   200015 470500                    LDP0    @CHAR6,,AUTO
         4 000362   200004 235100                    LDA     I,,AUTO
         4 000363   000100 305505                    DTB
         4 000364   000000 030001                    NDSC9   0,A,PR0                  cn=0,s=nosgn,sf=0,n=1
         4 000365   200016 000004                    NDSC9   BIN1,,AUTO               cn=0,s=lsgnf,sf=0,n=4

      199      783    3         POINTER.WD_OFF = ( POINTER.WD_OFF + BIN1 ) * 8;

    783  4 000366   200003 471500                    LDP1    @POINTER$,,AUTO
         4 000367   100000 236100                    LDQ     0,,PR1
         4 000370   000022 772000                    QRL     18
         4 000371   200016 036100                    ADLQ    BIN1,,AUTO
         4 000372   000003 736000                    QLS     3
         4 000373   000000 620006                    EAX0    0,QL
         4 000374   100000 740100                    STX0    0,,PR1

      200      784    3       END;
PL6.E3A0      #002=Z9JS$SCAN_POINTER File=Z9JS.:Z8A6TSI                          SAT 08/09/97 14:05 Page:38

    784  4 000375   200004 054100                    AOS     I,,AUTO
         4 000376   200004 235100                    LDA     I,,AUTO
         4 000377   000004 115007                    CMPA    4,DL
         4 000400   000361 604400 4                  TMOZ    s:782

      201      785    2       CALL CHARBIN (BIN1, SUBSTR (CHAR6, 5, 1) );

    785  4 000401   000100 305500                    DTB
         4 000402   000001 230001                    NDSC9   1,,PR0                   cn=1,s=nosgn,sf=0,n=1
         4 000403   200016 000004                    NDSC9   BIN1,,AUTO               cn=0,s=lsgnf,sf=0,n=4

      202      786    2       POINTER.WD_OFF = POINTER.WD_OFF + BIN1;

    786  4 000404   100000 236100                    LDQ     0,,PR1
         4 000405   000022 772000                    QRL     18
         4 000406   200016 036100                    ADLQ    BIN1,,AUTO
         4 000407   000000 621006                    EAX1    0,QL
         4 000410   100000 741100                    STX1    0,,PR1

      203      787
      204      788    2     END CONVERT_TO_PTR$;    /* proc */

    788  4 000411   200014 221300                    LDX1  ! PTR_LEN+2,,AUTO
         4 000412   000001 702211                    TSX2  ! 1,X1

      205      789
      206      790    1     END Z9JS$SCAN_POINTER;  /* PROC */

    790  4 000413   000000 702200 xent               TSX2  ! X66_ARET
      207      791        %EJECT;
PL6.E3A0      #002=Z9JS$SCAN_POINTER File=Z9JS.:Z8A6TSI                          SAT 08/09/97 14:05 Page:39

PL6.E3A0      #002=Z9JS$SCAN_POINTER File=Z9JS.:Z8A6TSI                          SAT 08/09/97 14:05 Page:40
--  Include file information  --

   Z8A_DEFC.:Z8A6TOU  cannot be made into a system file and is referenced.
   B_SEGIDS_C.:LIB_E04  is referenced.
      No diagnostics issued in procedure Z9JS$SCAN_POINTER.
PL6.E3A0      #002=Z9JS$SCAN_POINTER File=Z9JS.:Z8A6TSI                          SAT 08/09/97 14:05 Page:41

 **** Variables and constants ****

  ****  Section 000 LblCom ITERATION

  ****  Scalars and arrays  ****
OctLoc.c.b A Datatyp(siz) R M Lvl/name                 OctLoc.c.b A Datatyp(siz) R M Lvl/name

     0-0-0/w SBIN              1 ITERATION

  ****  Section 001 LblCom OBUF

  ****  Scalars and arrays  ****
OctLoc.c.b A Datatyp(siz) R M Lvl/name                 OctLoc.c.b A Datatyp(siz) R M Lvl/name

     0-0-0/c CHAR(120)         1 OBUF

  ****  Section 002 LblCom INBUF

  ****  Scalars and arrays  ****
OctLoc.c.b A Datatyp(siz) R M Lvl/name                 OctLoc.c.b A Datatyp(siz) R M Lvl/name

     0-0-0/c CHAR(80)    r     1 INBUF

  ****  Auto variables  ****

  ****  Scalars and arrays  ****
OctLoc.c.b A Datatyp(siz) R M Lvl/name                 OctLoc.c.b A Datatyp(siz) R M Lvl/name

    15-0-0/w PTR         r     1 @CHAR6                     3-0-0/w PTR         r     1 @POINTER$
    16-0-0/w UBIN        r     1 BIN1                      *0-0-0/c CHAR(6)     r     1 CHAR6
     4-0-0/w SBIN        r     1 I                         *0-0-0/w STRC        r     1 POINTER
    *0-0-0/w PTR         r     1 POINTER$                  11-0-0/b BIT         r     1 PTR_FOUND
    12-0-0/w UBIN        r     1 PTR_LEN                    5-0-0/c CHAR(4)     r     1 SEGID
    10-0-0/w SBIN        r     1 START                      6-0-0/c CHAR(6)     r     1 TEMP_PTR

  ****  BASED and DCB variables  ****

PL6.E3A0      #002=Z9JS$SCAN_POINTER File=Z9JS.:Z8A6TSI                          SAT 08/09/97 14:05 Page:42
  ****  Scalars and arrays  ****
OctLoc.c.b A Datatyp(siz) R M Lvl/name                 OctLoc.c.b A Datatyp(siz) R M Lvl/name

     0-0-0/w CHAR(4096)        1 CHARS                      0-0-0/w STRC(72)          1 CONT
     0-0-0/w STRC(36864)       1 PAGE


   Procedure Z9JS$SCAN_POINTER requires 268 words for executable code.
   Procedure Z9JS$SCAN_POINTER requires 18 words of local(AUTO) storage.

    No errors detected in file Z9JS.:Z8A6TSI    .
