VERSION A06

PL6.E3A0      #001=Z9P1$INIT File=Z9P1.:Z8A6TSI                                  SAT 08/09/97 09:45 Page:1
        1        1        /*M*   Z9P1$INIT   CP/6_specific initialization            */
        2        2        /*T***********************************************************/
        3        3        /*T*                                                         */
        4        4        /*T* Copyright (c) Bull HN Information Systems Inc., 1997    */
        5        5        /*T*                                                         */
        6        6        /*T***********************************************************/
        7        7        /*X*   MCL=5,MOC,CLM=40,CRM=80,CCC,
        8        8               PLM=0,IND=3,SDI=2,CTI=6,AND,DCI=6,CSU=3,ECU=3,THI=3,DTI=6,STI=3  */
        9        9        /*P*   NAME:           Z9P1$INIT
       10       10               PURPOSE:        Initialize CP-6-specific stuff.
       11       11               DESCRIPTION:    Calls Z9P8$DCB to initialize DCB pointers
       12       12                               numbers.
       13       13                                                                                */
       14       14        /*D*   NAME:           Z9P1$INIT
       15       15               CALL:           CALL Z9P1$INIT ALTRET(label);
       16       16               INTERFACE:      Calls Z9P8$DCBS
       17       17
       18       18               INPUT:          None.
       19       19               OUTPUT:         none
       20       20                                                                                */
       21       21        %EJECT;
PL6.E3A0      #001=Z9P1$INIT File=Z9P1.:Z8A6TSI                                  SAT 08/09/97 09:45 Page:2
       22       22        Z9P1$INIT:PROC;
       23       23        %INCLUDE Z8A_SYS_FILE;
       24     6298    1   DCL Z9P8$DCBS ENTRY;
       25     6299
       26     6300        %PAGE( ARG = INIT PROCEDURE, PAGE = YES );

PL6.E3A0      #001=Z9P1$INIT File=Z9P1.:Z8A6TSI                                  SAT 08/09/97 09:45 Page:3
              6313    1   /*******************************************************************************
              6314    1   *                                                                              *
              6315    1   *        INIT PROCEDURE              INIT PROCEDURE                                *
              6316    1   *                                                                              *
              6317    1   *******************************************************************************/

       27     6321    1   CALL Z9P8$DCBS;
       28     6322
       29     6323    1   END Z9P1$INIT;

PL6.E3A0      #001=Z9P1$INIT File=Z9P1.:Z8A6TSI                                  SAT 08/09/97 09:45 Page:4
--  Include file information  --

   CP_6_SUBS.:LIB_E04  is referenced.
   CP_6_C.:LIB_E04  is referenced.
   CP_6.:LIB_E04  cannot be made into a system file and is referenced.
   Z9A_FLAGS.:Z8A6TOU  is referenced.
   Z8A_SYS_FILE.:Z8A6TOU  is referenced.
      No diagnostics issued in procedure Z9P1$INIT.

   Procedure Z9P1$INIT requires 6 words for executable code.
   Procedure Z9P1$INIT requires 4 words of local(AUTO) storage.

    No errors detected in file Z9P1.:Z8A6TSI    .

PL6.E3A0      #001=Z9P1$INIT File=Z9P1.:Z8A6TSI                                  SAT 08/09/97 09:45 Page:5

 Object Unit name= Z9P1$INIT                                  File name= Z9P1.:Z8A6TOU
 UTS= AUG 09 '97 09:45:55.76 SAT                              Compiler= PL-6/E31         Sev=      00
 SharedLib= :SHARED_SYSTEM                                    Alt SharedLib=


    ****  Control sections  ****

 Sect   Type Bound  Init  Size OctSiz  Section name(segment info)
    0   DCB   even  none     0      0  M$UC
    1   Proc  even  none     6      6  Z9P1$INIT
    2  RoData even  none     1      1  Z9P1$INIT

    ****  Entry defs  ****

                              Check   Calling
                             calling  sequence
  Sect OctLoc Primary Altret sequence   type   Parms  Name
     1      0   yes            yes      Std        0  Z9P1$INIT

  ****  Entry refs  ****

         Check        Calling
        calling       sequence
Altret sequence SRef   type   Args  Name
         yes           Std       0 Z9P8$DCBS
                       nStd      0 X66_AUTO_0
                       nStd      0 X66_ARET

  ****  Data refs  ****

  Flags:  r = read only, s = secondary
Flgs Name                             Flgs Name                             Flgs Name
     M$UC
PL6.E3A0      #001=Z9P1$INIT File=Z9P1.:Z8A6TSI                                  SAT 08/09/97 09:45 Page:6


        1        1        /*M*   Z9P1$INIT   CP/6_specific initialization            */
        2        2        /*T***********************************************************/
        3        3        /*T*                                                         */
        4        4        /*T* Copyright (c) Bull HN Information Systems Inc., 1997    */
        5        5        /*T*                                                         */
        6        6        /*T***********************************************************/
        7        7        /*X*   MCL=5,MOC,CLM=40,CRM=80,CCC,
        8        8               PLM=0,IND=3,SDI=2,CTI=6,AND,DCI=6,CSU=3,ECU=3,THI=3,DTI=6,STI=3  */
        9        9        /*P*   NAME:           Z9P1$INIT
       10       10               PURPOSE:        Initialize CP-6-specific stuff.
       11       11               DESCRIPTION:    Calls Z9P8$DCB to initialize DCB pointers
       12       12                               numbers.
       13       13                                                                                */
       14       14        /*D*   NAME:           Z9P1$INIT
       15       15               CALL:           CALL Z9P1$INIT ALTRET(label);
       16       16               INTERFACE:      Calls Z9P8$DCBS
       17       17
       18       18               INPUT:          None.
       19       19               OUTPUT:         none
       20       20                                                                                */
       21       21        %EJECT;
PL6.E3A0      #001=Z9P1$INIT File=Z9P1.:Z8A6TSI                                  SAT 08/09/97 09:45 Page:7
       22       22        Z9P1$INIT:PROC;

     22  1 000000   000000 700200 xent  Z9P1$INIT    TSX0  ! X66_AUTO_0
         1 000001   000004 000000                    ZERO    4,0

       23       23        %INCLUDE Z8A_SYS_FILE;
       24     6298    1   DCL Z9P8$DCBS ENTRY;
       25     6299
       26     6300        %PAGE( ARG = INIT PROCEDURE, PAGE = YES );

PL6.E3A0      #001=Z9P1$INIT File=Z9P1.:Z8A6TSI                                  SAT 08/09/97 09:45 Page:8
              6313    1   /*******************************************************************************
              6314    1   *                                                                              *
              6315    1   *        INIT PROCEDURE              INIT PROCEDURE                               *
              6316    1   *                                                                              *
              6317    1   *******************************************************************************/

       27     6321    1   CALL Z9P8$DCBS;

   6321  1 000002   000000 631400 2                  EPPR1   0
         1 000003   000000 701000 xent               TSX1    Z9P8$DCBS
         1 000004   000000 011000                    NOP     0

       28     6322
       29     6323    1   END Z9P1$INIT;

   6323  1 000005   000000 702200 xent               TSX2  ! X66_ARET

PL6.E3A0      #001=Z9P1$INIT File=Z9P1.:Z8A6TSI                                  SAT 08/09/97 09:45 Page:9
--  Include file information  --

   CP_6_SUBS.:LIB_E04  is referenced.
   CP_6_C.:LIB_E04  is referenced.
   CP_6.:LIB_E04  cannot be made into a system file and is referenced.
   Z9A_FLAGS.:Z8A6TOU  is referenced.
   Z8A_SYS_FILE.:Z8A6TOU  is referenced.
      No diagnostics issued in procedure Z9P1$INIT.
PL6.E3A0      #001=Z9P1$INIT File=Z9P1.:Z8A6TSI                                  SAT 08/09/97 09:45 Page:10

 **** Variables and constants ****

  ****  BASED and DCB variables  ****

  ****  Scalars and arrays  ****
OctLoc.c.b A Datatyp(siz) R M Lvl/name                 OctLoc.c.b A Datatyp(siz) R M Lvl/name

     0-0-0N  NULL        r     1 M$UC


   Procedure Z9P1$INIT requires 6 words for executable code.
   Procedure Z9P1$INIT requires 4 words of local(AUTO) storage.

    No errors detected in file Z9P1.:Z8A6TSI    .
