VERSION A06

PL6.E3A0      #001=Z9P8$DCBS File=Z9P8.:Z8A6TSI                                  SAT 08/09/97 09:46 Page:1
        1        1         /*M* Z9P8$DCBS -- Definition and initialization of DCBs */
        2        2        /*T***********************************************************/
        3        3        /*T*                                                         */
        4        4        /*T* Copyright (c) Bull HN Information Systems Inc., 1997    */
        5        5        /*T*                                                         */
        6        6        /*T***********************************************************/
        7        7         /*X*   MCL=5,MOC,CLM=40,CRM=80,CCC,
        8        8                PLM=0,IND=3,SDI=2,CTI=6,AND,DCI=6,CSU=3,ECU=3,THI=6,STI=3 */
        9        9         /*P*   NAME:           Z9P8$DCBS
       10       10                PURPOSE:        Definition of DCBs and DCB pointers used by the
       11       11                                COBOL-8X Pseudocode Assembler.
       12       12                DESCRIPTION:    Invokes the %M$DCB macro to define a DCB for each
       13       13                                file used by the PCA. Initializes the DCB pointer
       14       14                                and number for each one.
       15       15                                                                                 */
       16       16         /*D*   NAME:           Z9P8$DCBS
       17       17                CALL:
       18       18                                CALL Z9P8$DCBS;
       19       19                                     (Called only by Z9P1$INIT)
       20       20                INTERFACE:      None.
       21       21                INPUT:          None.
       22       22                OUTPUT:         Sets Z9P8$XXXX# to n
       23       23                                Sets Z9P8$XXXX$ to ADDR(XXXX)
       24       24                                Sets Z9P1$DCB.ADDR$(n) to ADDR(XXXX),
       25       25                                          where XXXX is the DCB name
       26       26                                          and n is the number.
       27       27                DESCRIPTION:    Invokes %INIT$DCB macro to initialize.
       28       28                                                                                 */
       29       29         %EJECT;
PL6.E3A0      #001=Z9P8$DCBS File=Z9P8.:Z8A6TSI                                  SAT 08/09/97 09:46 Page:2
       30       30        Z9P8$DCBS:PROC;
       31       31
       32       32         %SET LISTSUB='1'B;
       33       33         %SET LISTEXP='1'B;
       34       34         %SET LISTMAC='1'B;
       35       35         %RESUB M$OU=F$OU;
       36       36         %RESUB M$SO=F$SO;
       37       37         %RESUB M$LO=F$LO;
       38       38         %RESUB M$SI=F$SI;
       39       39         %RESUB M$UI=F$UI;
       40       40         %RESUB M$DO=F$DO;
       41       41         %INCLUDE Z8A_SYS_FILE;
       42     6316         %INCLUDE Z9P_IO_EXT;
       43     6377         %RESUB M$OU=M$OU;
       44     6378         %RESUB M$SO=M$SO;
       45     6379         %RESUB M$LO=M$LO;
       46     6380         %RESUB M$SI=M$SI;
       47     6381         %RESUB M$UI=M$UI;
       48     6382         %RESUB M$DO=M$DO;
       49     6383         %IF '0'B;
       50     6384 C       %PAGE(ARG=M$SI,PAGE=YES);
       51     6385 C       %M$DCB(DCBN=M$SI,
       52     6386 C             FC='S*',
       53     6387 C             BLKL=1280);
       54     6388 C       %PAGE(ARG=M$UI,PAGE=YES);
       55     6389 C       %M$DCB(DCBN=M$UI,
       56     6390 C             FC='A*',
       57     6391 C             BLKL=1280);
       58     6392 C       %PAGE(ARG=M$SO,PAGE=YES);
       59     6393 C       %M$DCB(DCBN=M$SO,
       60     6394 C             FC='K*',
       61     6395 C             FUN=CREATE,
       62     6396 C             XTNSIZE=12,
       63     6397 C             BLKL=1280);
       64     6398 C       %PAGE(ARG=M$OU,PAGE=YES);
       65     6399 C       %M$DCB(DCBN=M$OU,
       66     6400 C             FC='*S',
PL6.E3A0      #001=Z9P8$DCBS File=Z9P8.:Z8A6TSI                                  SAT 08/09/97 09:46 Page:3
       67     6401 C             ACS=SEQUEN,
       68     6402 C             FUN=CREATE,
       69     6403 C             ORG=CONSEC,
       70     6404 C             IXTNSIZE=12,
       71     6405 C             XTNSIZE=12,
       72     6406 C             BLKL=1280);
       73     6407 C       %PAGE(ARG=M$LO,PAGE=YES);
       74     6408 C       %M$DCB(DCBN=M$LO,
       75     6409 C             FC='P*',
       76     6410 C             ORG=CONSEC,
       77     6411 C             ACS=SEQUEN,
       78     6412 C             MEDIA=PRINT,
       79     6413 C             FUN=CREATE,
       80     6414 C             XTNSIZE=12,
       81     6415 C             IXTNSIZE=60,
       82     6416 C             BLKL=1280);
       83     6417 C       %PAGE(ARG=M$DO,PAGE=YES);
       84     6418 C       %M$DCB(DCBN=M$DO,
       85     6419 C             FC='DO',
       86     6420 C             ORG=CONSEC,
       87     6421 C             ACS=SEQUEN,
       88     6422 C             MEDIA=PRINT,
       89     6423 C             FUN=CREATE,
       90     6424 C             REPORT=59,
       91     6425 C             XTNSIZE=12,
       92     6426 C             BLKL=1280);
       93     6427 C       %PAGE(ARG=M$OPTION,PAGE=YES);
       94     6428 C       %M$DCB(DCBN=M$OPTION,
       95     6429 C             FC='D*',
       96     6430 C             BLKL=1280);
       97     6431 C       %PAGE(ARG=M$ER,PAGE=YES);
       98     6432 C       %M$DCB(DCBN=M$ER,
       99     6433 C             FC="'E,'",
      100     6434 C             BLKL=1280);
      101     6435 C       %PAGE(ARG=M$DEBUGO,PAGE=YES);
      102     6436 C       %M$DCB(DCBN=M$DEBUGO,
      103     6437 C             FC='*5',
PL6.E3A0      #001=Z9P8$DCBS File=Z9P8.:Z8A6TSI                                  SAT 08/09/97 09:46 Page:4
      104     6438 C             BLKL=1280);
      105     6439 C       %PAGE(ARG=M$DF,PAGE=YES);
      106     6440 C       %M$DCB(DCBN=M$DF,FC='*6',ORG=KEYED,ACS=DIRECT,FUN=CREATE,BLKL=4096);
      107     6441 C       %PAGE(ARG=M$UM,PAGE=YES);
      108     6442 C       %M$DCB(DCBN=M$UM,
      109     6443 C             FC='*1',
      110     6444 C             ACS=DIRECT,
      111     6445 C             ORG=KEYED,
      112     6446 C             FUN=CREATE,
      113     6447 C             IXTNSIZE=12,
      114     6448 C             XTNSIZE=12,
      115     6449 C             BLKL=4096);
      116     6450 C       %PAGE(ARG=M$UP,PAGE=YES);
      117     6451 C       %M$DCB(DCBN=M$UP,
      118     6452 C             FC='A$',
      119     6453 C             ACS=SEQUEN,
      120     6454 C             ORG=CONSEC,
      121     6455 C             BLKL=1280);
      122     6456 C       %PAGE(ARG=M$INCLUDE,PAGE=YES);
      123     6457 C       %M$DCB(DCBN=M$INCLUDE,
      124     6458 C             FC="',0'",
      125     6459 C             FUN=IN,
      126     6460 C             ACS=SEQUEN,
      127     6461 C             ORG=CONSEC,
      128     6462 C             BLKL=1280);
      129     6463 C       %PAGE(ARG=M$UO,PAGE=YES);
      130     6464 C       %M$DCB(DCBN=M$UO,
      131     6465 C             FC='*A',
      132     6466 C             FUN=CREATE,
      133     6467 C             ACS=SEQUEN,
      134     6468 C             ORG=CONSEC,
      135     6469 C             BLKL=1280);
      136     6470         %ENDIF;
      137     6471         %IF '1'B;
      138     6472         %MACRO INIT$DCB(DCBN=,FCG=);
      139     6473         %CHARTEXT(CONCAT(TEXTCHAR(%FCG),'$',TEXTCHAR(%DCBN),'#'))=DCBNUM(DCBN);
      140     6474         %CHARTEXT(CONCAT(TEXTCHAR(%FCG),'$',TEXTCHAR(%DCBN),'$'))=DCBADDR(DCBNUM(DCBN));
PL6.E3A0      #001=Z9P8$DCBS File=Z9P8.:Z8A6TSI                                  SAT 08/09/97 09:46 Page:5
      141     6475        ZV1$DCB.ADDR$(DCBNUM(DCBN))=DCBADDR(DCBNUM(DCBN));
      142     6476         %MEND;
      143     6477        %PAGE(ARG=M$SI);
              6478        %LSET LISTDIR='0'B;

              6490    1   /*******************************************************************************
              6491    1   *                                                                              *
              6492    1   *        M$SI              M$SI                                                  *
              6493    1   *                                                                              *
              6494    1   *******************************************************************************/

      144     6498        %M$DCB(DCBN=M$SI,
      145     6499        ASN=DEVICE,
      146     6500        RES='SI',
      147     6501        FUN=IN,
      148     6502        ACS=SEQUEN);
              6503    1   DCL 1 M$SI DCB,2 ARS# SBIN INIT(0),2 FLPW# REDEF ARS# BIT(36),2 * UBIN INIT(0),2 TYC
              6503            ,3 EGV# BIT(1)INIT('0'B*0),3 OPER# BIT(1)
              6504    1   INIT('0'B*0),3 EOT# BIT(1)INIT('0'B*0),3 BOT# BIT(1)INIT('0'B*0),3 BOF# BIT(1)INIT(
              6504            '0'B*0),3 BLNKTP# BIT(1)INIT('0'B*0),3 EOF# BIT
              6505    1   (1)INIT('0'B*0),3 LD# BIT(1)INIT('0'B*0),3 IOERR# BIT(1)INIT('0'B*0),3 DI# BIT(1)
              6505            INIT('0'B*0),3 EOD# BIT(1)INIT('0'B*0),3 MTRAP# BIT
              6506    1   (1)INIT('0'B*0),3 LDISC# BIT(1)INIT('0'B*0),3 DACT# BIT(1)INIT('0'B*0),3 TIMO# BIT(1
              6506            )INIT('0'B*0),3 PROT# BIT(1)INIT('0'B*0),3 FRAW#
              6507    1   BIT(1)INIT('0'B*0),3 LAST# BIT(1)INIT('0'B*0),3 CDALRT# BIT(1)INIT('0'B*0),3 XTRARD
              6507            BIT(1)INIT('0'B*0),3 CGKEYV BIT(1)INIT('0'B*0),3
              6508    1   CGLWRV BIT(1)INIT('0'B*0),3 CGFULL BIT(1)INIT('0'B*0),3 CGCRCW BIT(1)INIT('0'B*0),3
              6508            CGCWRV BIT(1)INIT('0'B*0),3 * BIT(11)INIT
              6509    1   ('0'B*0),2 DVBYTE,3 TOP# BIT(1)INIT('0'B),3 * BIT(1)INIT('0'B),3 VFC# BIT(1)INIT(
              6509            '0'B),3 BIN# BIT(1)INIT('0'B),3 TRANS# BIT(1)INIT
              6510    1   ('0'B),3 * BIT(3)INIT('0'B),2 BUPF BIT(1)INIT('0'B),2 RDL0# UBIN(9)UNAL INIT(0),2
              6510            SLIDE# UBIN(9)UNAL INIT(0),2 EOMCHAR# CHAR(1)INIT
              6511    1   (BITASC('501'O)),2 EOMVAL# REDEF EOMCHAR# UNAL,3 VFLG# BIT(1),3 VALUE# UBIN(8)UNAL,2
              6511            FFLG,3 READ# BIT(1)INIT('0'B),3 DELR# BIT(1)
              6512    1   INIT('0'B),3 WNEW# BIT(1)INIT('0'B),3 UPD# BIT(1)INIT('0'B),3 DELF# BIT(1)INIT('0'B)
              6512            ,3 NOLIST# BIT(1)INIT('0'B),3 REATTR# BIT(1)INIT
              6513    1   ('0'B),3 EXEC# BIT(1)INIT('0'B),3 CREATE# BIT(1)INIT('0'B),3 AU# BIT(1)INIT('0'B),3
PL6.E3A0      #001=Z9P8$DCBS File=Z9P8.:Z8A6TSI                                  SAT 08/09/97 09:46 Page:6
              6513            AURD# BIT(1)INIT('0'B),3 TCTL# BIT(1)INIT('0'B),
              6514    1   3 * BIT(6)INIT('0'B),2 DDEV,3 LP# BIT(1)INIT('0'B),3 CP# BIT(1)INIT('0'B),3 IC# BIT(
              6514            1)INIT('0'B),3 XEQ# BIT(1)INIT('0'B),3 UCOUT#
              6515    1   BIT(1)INIT('0'B),3 GR# BIT(1)INIT('0'B),3 * BIT(3)INIT('0'B),2 WIDTH# UBIN(9)UNAL
              6515            INIT(0),2 RETRYCNT# UBIN(18)HALIGNED INIT(0),2
              6516    1   DESC,3 DELF# BIT(1)INIT('0'B),3 NOLIST# BIT(1)INIT('0'B),3 BUF# BIT(1)INIT('0'B),3
              6516            ODSTOW# BIT(1)INIT('0'B),3 BAD# BIT(1)INIT('0'B),
              6517    1   3 QS# BIT(1)INIT('0'B),3 * BIT(2)INIT('0'B),3 ARCHIVE# BIT(1)INIT('0'B),3 BUPM# BIT(
              6517            1)INIT('0'B),3 NBUF# BIT(1)INIT('0'B),3 ACTIVE#
              6518    1   BIT(1)INIT('0'B),3 TPB# BIT(1)INIT('0'B),3 TERMINATE# BIT(1)INIT('0'B),3 FETCH# BIT(
              6518            1)INIT('0'B),3 * BIT(3)INIT('0'B),2 SETSTA$ PTR
              6519    1   INIT(ADDR(NIL)),2 LASTSTA$ PTR INIT(ADDR(NIL)),2 TDEXTST$ REDEF LASTSTA$ PTR,2 NAME#
              6519            ,3 L UBIN(9)UNAL INIT(SIZEC(' ')),3 C CHAR(31)
              6520    1   INIT(' '),3 C17 REDEF C UNAL,4 CC CHAR(17),4 * CHAR(14),2 ACCT# CHAR(8)INIT(' '),2
              6520            PASS# CHAR(8)INIT(' '),2 PSN# CHAR(6)INIT
              6521    1   (' '),2 TYPE# CHAR(2)INIT(' '),2 RES# CHAR(4)INIT('SI'),2 RESNT REDEF RES# UNAL,3
              6521            TYP CHAR(2),3 NUM CHAR(2),2 WSN# CHAR(8)ALIGNED
              6522    1   INIT(' '),2 TDSTAT# REDEF WSN# BIT(72),2 IGNOREFSN# BIT(1)INIT('0'B),2 AU# BIT(1)
              6522            INIT('0'B),2 QISS# BIT(1)INIT('0'B),2 LOAD# BIT
              6523    1   (1)INIT('0'B),2 IOERROK# BIT(1)INIT('0'B),2 AMRSETSTA BIT(1)INIT('0'B),2 LSTAOR# BIT
              6523            (1)INIT('0'B),2 VOLACCESS# UBIN(2)UNAL INIT
              6524    1   (0),2 UOPT#(0:8)BIT(1)INIT('0'B,'0'B,'0'B,'0'B,'0'B,'0'B,'0'B,'0'B,'0'B),2 PASSF#
              6524            BIT(1)INIT('0'B),2 CNVRT# BIT(1)
              6525    1   INIT('1'B),2 EBCDIC# BIT(1)INIT('0'B),2 FCI# BIT(1)INIT('0'B),2 FCD# BIT(1)INIT('0'B
              6525            ),2 AMR# BIT(1)INIT('0'B),2 CTG# BIT(1)INIT
              6526    1   ('0'B),2 EXIST# UBIN(2)UNAL INIT(3),2 SHARE# UBIN(2)UNAL INIT(0),2 COMP# BIT(1)INIT(
              6526            '0'B),2 XTEND# BIT(1)INIT('0'B),2 CVOL#
              6527    1   BIT(1)INIT('0'B),2 BLOCKED# BIT(1)INIT('1'B),2 SPANNED# BIT(1)INIT('1'B),2 BUPM# BIT
              6527            (2)INIT('01'B),2 ORG# UBIN(9)UNAL INIT
              6528    1   (0),2 DVTYPE# REDEF ORG# UBIN(9)UNAL,2 FUN# UBIN(9)UNAL INIT(2),2 ASN# UBIN(9)UNAL
              6528            INIT(3),2 DISP# UBIN(9)UNAL INIT(0),2
              6529    1   BLKL# UBIN(18)UNAL INIT(0),2 RECL# UBIN(18)UNAL INIT(0),2 FSN# UBIN(18)UNAL INIT(0),
              6529            2 DBGDCBNO# REDEF FSN# UBIN(18)UNAL,2
              6530    1   DBGSYSID# REDEF FSN# UBIN(18)UNAL,2 SYSID# REDEF FSN# UBIN(18)UNAL,2 FEXTX UBIN(9)
              6530            UNAL INIT(0),2 BOL# UBIN(9)UNAL INIT(0),2 EXPIRE#
              6531    1   SBIN INIT(0),2 KEYX# UBIN(18)UNAL INIT(0),2 KEYL# UBIN(9)UNAL INIT(0),2 ACS# UBIN(9)
              6531            UNAL INIT(1),2 XTNSIZE# UBIN(18)
PL6.E3A0      #001=Z9P8$DCBS File=Z9P8.:Z8A6TSI                                  SAT 08/09/97 09:46 Page:7
              6532    1   UNAL INIT(2),2 LSLIDE# UBIN(9)UNAL INIT(510),2 LRDL0# UBIN(9)UNAL INIT(3),2 SPARE#
              6532            UBIN(9)UNAL INIT(1),2 WSR# UBIN
              6533    1   (9)UNAL INIT(0),2 ATTR# BIT(18) INIT('0'B)/* '0'B */,2 ATTR REDEF ATTR#,3 DENS# BIT(
              6533            9),3
              6534    1   GRLGL# BIT(1),3 TRANSLGL# BIT(1),3 NOXLATE# BIT(1),3 UPPERCASE# BIT(1),3 NATL# BIT(1
              6534            ),3 TRUOVRPRT# BIT(1),3 APL# BIT(1),3 BIN# BIT
              6535    1   (1),3 LOWERCASE# BIT(1),2 TDFLG REDEF ATTR#/*'0'B */,3 SDSK# BIT(1),3 * BIT(17),2
              6535            IXTNSIZE# SBIN WORD INIT
              6536    1   (2),2 CONNCT# REDEF IXTNSIZE# SBIN,2 NRECS# SBIN INIT(0),2 CHANTIME# REDEF NRECS#
              6536            SBIN,2 VOL# UBIN(9)UNAL INIT(0),2
              6537    1   MAXVOL# UBIN(9)UNAL INIT(0),2 CHAIN# UBIN(9)UNAL INIT(0),2 DENSITY# UBIN(9)UNAL INIT
              6537            (0),2 LINES# UBIN(18)UNAL INIT
              6538    1   (0),2 DVFC# CHAR(1)INIT(BINASC(0)),2 SEQ# BIT(1)INIT('0'B),2 SEQCOL# UBIN(8)UNAL
              6538            INIT(73),2 SEQID# CHAR(4)INIT(' '),2 HEADER$
              6539    1   PTR INIT(ADDR(NIL)),2 DQH$ REDEF HEADER$ PTR,2 TAB$ PTR INIT(ADDR(NIL)),2 DCT$ REDEF
              6539            TAB$ PTR,2 FORM$ PTR INIT(ADDR(NIL)),2 MPC$
              6540    1   REDEF FORM$ PTR,2 LDCTX UBIN(18)UNAL INIT(0),2 SETX UBIN(18)UNAL INIT(0),2 DEVADR
              6540            REDEF SETX,3 DVN# UBIN(6)UNAL,3 IOM# UBIN(3)UNAL,3
              6541    1   CHAN# UBIN(9)CALIGNED,2 * BIT(9)CALIGNED INIT('0'B),2 JRNLBYPASS# BIT(1)INIT('0'B),2
              6541            * BIT(4)INIT('0'B),2 GHSTACS# UBIN(4)INIT
              6542    1   (0)UNAL,2 ALTKEYX UBIN(18)UNAL INIT(0),2 CODE16$ PTR INIT(ADDR(NIL)),2 FPRGX UBIN
              6542            HALF HALIGNED INIT(0),2 FIELDX UBIN HALF
              6543    1   HALIGNED INIT(0),2 EVENT SBIN INIT(0),2 VFCCHAR# CHAR(1)CALIGNED INIT(BINASC(0)),2
              6543            KEYTYPE# UBIN(9)CALIGNED INIT(0),2 KFIELDX
              6544    1   UBIN(18)HALIGNED INIT(0),2 STARTX UBIN(18)HALIGNED INIT(0),2 ACTPOS UBIN(18)HALIGNED
              6544            INIT(0),2 AUTHFFLG REDEF ACTPOS,3 READ# BIT(1),
              6545    1   3 DELR# BIT(1),3 WNEW# BIT(1),3 UPD# BIT(1),3 DELF# BIT(1),3 NOLIST# BIT(1),3
              6545            REATTR# BIT(1),3 EXEC# BIT(1),3 CREATE# BIT(1),3 AU#
              6546    1   BIT(1),3 AURD# BIT(1),3 TCTL# BIT(1),3 * BIT(6),2 DCB# UBIN(9)CALIGNED INIT(0),2 *
              6546            BIT(14)INIT('0'B),2 ANSISPANSEQ# BIT(1)INIT
              6547    1   ('1'B),2 PATH,3 IOM# UBIN(3)UNAL INIT(0),3 CHAN# UBIN(9)UNAL INIT(0),2 IRRECX UBIN(
              6547            18)HALIGNED INIT(0),2 FLDID UBIN(18)
              6548    1   HALIGNED INIT(0),2 BADARS# REDEF FLDID UBIN(18)HALIGNED,2 SEED# BIT(36)INIT('0'B),2
              6548            * UBIN INIT(0),2 FEXT BIT(1)INIT('0'B),2 STARF
              6549    1   BIT(1)INIT('0'B),2 SHARED BIT(1)INIT('0'B),2 FMOD BIT(1)INIT('0'B),2 GTYP UBIN(3)
              6549            UNAL INIT(0),2 EOP UBIN(2)UNAL INIT(0),2 AMFLG,3
              6550    1   ACCF BIT(1)INIT('0'B),3 ACSF BIT(1)INIT('0'B),3 INSF BIT(1)INIT('0'B),3 USRF BIT(1)
PL6.E3A0      #001=Z9P8$DCBS File=Z9P8.:Z8A6TSI                                  SAT 08/09/97 09:46 Page:8
              6550            INIT('0'B),3 SNLF BIT(1)INIT('0'B),3 PROF BIT(1)
              6551    1   INIT('0'B),2 SEZ_OK BIT(1)INIT('0'B),2 MUST_CVOL BIT(1)INIT('0'B),2 NEW_FSECT BIT(1)
              6551            INIT('0'B),2 NOEOF BIT(1)INIT('0'B),2 MOUNT
              6552    1   REDEF NOEOF BIT(1),2 OHDR BIT(1)INIT('0'B),2 LDFLG REDEF OHDR BIT(1),2 SPAN BIT(1)
              6552            INIT('0'B),2 OWNER BIT(1)INIT('0'B),2 RA BIT(1)
              6553    1   INIT('0'B),2 RPOS BIT(1)INIT('0'B),2 STARX UBIN(3)UNAL INIT(0),2 CACHE BIT(1)INIT(
              6553            '0'B),2 ENQF BIT(1)INIT('0'B),2 GRPOS BIT(1)INIT
              6554    1   ('0'B),2 CONT BIT(1)INIT('0'B),2 WAIT UBIN(1)UNAL INIT(1),2 TRNC UBIN(2)UNAL INIT(0)
              6554            ,2 AFTRBLK BIT(1)INIT('0'B),2 LSTBLK BIT(1)INIT
              6555    1   ('0'B),2 BORROW SBIN INIT(0),2 LASTKEY$ REDEF BORROW PTR,2 LASTKEY REDEF BORROW SBIN
              6555            ,2 FTAM REDEF BORROW,3 CTX UBIN HALF UNAL,3 USR
              6556    1   UBIN BYTE UNAL,3 PMME UBIN(9)UNAL,2 CFU$ PTR INIT(ADDR(NIL)),2 TDALVL UBIN(3)UNAL
              6556            INIT(0),2 LVL UBIN(3)UNAL INIT(0),2 LPOOL REDEF
              6557    1   LVL UBIN(3)UNAL,2 WRCMP BIT(1)INIT('0'B),2 WCDATA BIT(1)INIT('0'B),2 UCOUT BIT(1)
              6557            INIT('0'B),2 TAPTYP,3 RWASC BIT(1)INIT('0'B),3 CP6F
              6558    1   BIT(1)INIT('0'B),3 USRBUF BIT(1)INIT('0'B),3 HAVLASTKEY BIT(1)INIT('0'B),3 NOCVOL
              6558            BIT(1)INIT('0'B),3 MANAGED BIT(1)INIT('0'B),3
              6559    1   PASTFM BIT(1)INIT('0'B),3 * BIT(2)INIT('0'B),2 CRECX UBIN(18)UNAL INIT(0),2 CBUFNUM
              6559            UBIN(3)UNAL INIT(0),2 IORG UBIN(6)UNAL INIT(0),2
              6560    1   TDA UBIN(27)UNAL INIT(0),2 BYTESLEFT REDEF TDA UBIN(27)UNAL,2 CRECNO SBIN INIT(0),2
              6560            PRECNO SBIN INIT(0),2 CSEED REDEF PRECNO SBIN,2
              6561    1   HASH UBIN(27)UNAL INIT(0),2 FDCM UBIN(9)UNAL INIT(0),2 FCN(0:1),3 F BIT(1)INIT('0'B,
              6561            '0'B),3 CNT UBIN(8)UNAL INIT(0,0),2 BLKLEN UBIN
              6562    1   (18)UNAL INIT(0),2 UB$ PTR INIT(ADDR(NIL)),2 UBYTES UBIN INIT(0),2 FSECT UBIN(18)
              6562            UNAL INIT(0),2 INDX REDEF FSECT UBIN(18)UNAL,2
              6563    1   FPSTR UBIN(9)UNAL INIT(0),2 STR# UBIN(9)UNAL INIT(0),2 NRECX UBIN(18)UNAL INIT(0),2
              6563            MODCNT REDEF NRECX UBIN(18)UNAL,2 SEGX UBIN(18)
              6564    1   UNAL INIT(0),2 GDISP UBIN INIT(0),2 LOGSEC BIT(1)INIT('0'B),2 PRIVOPN BIT(1)INIT(
              6564            '0'B),2 OLDIOERR UBIN(2)UNAL INIT(0),2 * BIT(21)
              6565    1   INIT('0'B),2 REALSPAN BIT(1),2 DECRYPT BIT(1)INIT('0'B),2 PGINGRAN UBIN BYTE UNAL
              6565            INIT(0),2 IFMT UBIN(9)UNAL INIT(0),2 MEDIA UBIN(9)
              6566    1   UNAL INIT(0),2 IWL,3 TABIWL BIT(1)INIT('0'B),3 SEQIWL BIT(1)INIT('0'B),3 HDRIWL BIT(
              6566            1)INIT('0'B),3 * BIT(3)INIT('0'B),2 CTLCMDIN BIT
              6567    1   (1)INIT('0'B),2 UNIQUEBLD BIT(1)INIT('0'B),2 UPDCNT BIT(1)INIT('0'B),2 IASN UBIN(9)
              6567            UNAL INIT(0),2 MOVED SBIN(18)HALIGNED,2 * UBIN(9)
              6568    1   CALIGNED,2 CX UBIN(9)CALIGNED,2 CWORD CHAR(4)ALIGNED,2 RCSZ UBIN INIT(0),2 FEPSIZ
              6568            REDEF RCSZ,3 BUF UBIN HALF UNAL,3 KEY UBIN HALF
PL6.E3A0      #001=Z9P8$DCBS File=Z9P8.:Z8A6TSI                                  SAT 08/09/97 09:46 Page:9
              6569    1   UNAL,2 ID ALIGNED,3 GX UBIN(10)UNAL,3 DA UBIN(26)UNAL,2 FEPIO,3 EVENT UBIN INIT(0),3
              6569            KEYX/* 0 */ UBIN
              6570    1   HALF HALIGNED INIT(0),3 BUFX UBIN HALF HALIGNED INIT(0),3 BPP(0:1)BIT(18)INIT('0'B*0
              6570            ),3 KPP(0:1)BIT(18)INIT('0'B*0),2 AGE SBIN INIT
              6571    1   (0),2 BFR(0:4),3 BUFUP BIT(1)INIT('0'B*0),3 SCRUB BIT(1)INIT('0'B*0),3 CHNG BIT(1)
              6571            INIT('0'B*0),3 CVM BIT(1)INIT('0'B*0),3 BUFX UBIN
              6572    1   (5)UNAL INIT(0*0),3 DA UBIN(27)UNAL INIT(0*0),2 BFR1(0:4)ALIGNED,3 FLAGS,4
              6572            ONE_WORD_HEADER BIT(1)INIT('0'B*0),4 * BIT(8)INIT
              6573    1   ('0'B*0),3 SIZ UBIN(9)UNAL INIT(0*0),3 CX UBIN(18)UNAL INIT(0*0),2 FEPIO2(0:3)UBIN
              6573            ALIGNED,2 FEPIO3(0:3)UBIN ALIGNED,2 * SBIN INIT
              6574    1   (29127),2 DCBNAME DALIGNED,3 X UBIN(3)UNAL,3 S BIT(1),3 L UBIN(5)UNAL,3 N CHAR(M$SI.
              6574            DCBNAME.L);
      149     6576        %PAGE(ARG=M$UI);
              6577        %LSET LISTDIR='0'B;

              6589    1   /*******************************************************************************
              6590    1   *                                                                              *
              6591    1   *        M$UI              M$UI                                                  *
              6592    1   *                                                                              *
              6593    1   *******************************************************************************/

      150     6597        %M$DCB(DCBN=M$UI,
      151     6598        ASN=DEVICE,
      152     6599        RES='NO',
      153     6600        FUN=IN,
      154     6601        ACS=SEQUEN);
              6602    1   DCL 1 M$UI DCB,2 ARS# SBIN INIT(0),2 FLPW# REDEF ARS# BIT(36),2 * UBIN INIT(0),2 TYC
              6602            ,3 EGV# BIT(1)INIT('0'B*0),3 OPER# BIT(1)
              6603    1   INIT('0'B*0),3 EOT# BIT(1)INIT('0'B*0),3 BOT# BIT(1)INIT('0'B*0),3 BOF# BIT(1)INIT(
              6603            '0'B*0),3 BLNKTP# BIT(1)INIT('0'B*0),3 EOF# BIT
              6604    1   (1)INIT('0'B*0),3 LD# BIT(1)INIT('0'B*0),3 IOERR# BIT(1)INIT('0'B*0),3 DI# BIT(1)
              6604            INIT('0'B*0),3 EOD# BIT(1)INIT('0'B*0),3 MTRAP# BIT
              6605    1   (1)INIT('0'B*0),3 LDISC# BIT(1)INIT('0'B*0),3 DACT# BIT(1)INIT('0'B*0),3 TIMO# BIT(1
              6605            )INIT('0'B*0),3 PROT# BIT(1)INIT('0'B*0),3 FRAW#
              6606    1   BIT(1)INIT('0'B*0),3 LAST# BIT(1)INIT('0'B*0),3 CDALRT# BIT(1)INIT('0'B*0),3 XTRARD
              6606            BIT(1)INIT('0'B*0),3 CGKEYV BIT(1)INIT('0'B*0),3
              6607    1   CGLWRV BIT(1)INIT('0'B*0),3 CGFULL BIT(1)INIT('0'B*0),3 CGCRCW BIT(1)INIT('0'B*0),3
PL6.E3A0      #001=Z9P8$DCBS File=Z9P8.:Z8A6TSI                                  SAT 08/09/97 09:46 Page:10
              6607            CGCWRV BIT(1)INIT('0'B*0),3 * BIT(11)INIT
              6608    1   ('0'B*0),2 DVBYTE,3 TOP# BIT(1)INIT('0'B),3 * BIT(1)INIT('0'B),3 VFC# BIT(1)INIT(
              6608            '0'B),3 BIN# BIT(1)INIT('0'B),3 TRANS# BIT(1)INIT
              6609    1   ('0'B),3 * BIT(3)INIT('0'B),2 BUPF BIT(1)INIT('0'B),2 RDL0# UBIN(9)UNAL INIT(0),2
              6609            SLIDE# UBIN(9)UNAL INIT(0),2 EOMCHAR# CHAR(1)INIT
              6610    1   (BITASC('501'O)),2 EOMVAL# REDEF EOMCHAR# UNAL,3 VFLG# BIT(1),3 VALUE# UBIN(8)UNAL,2
              6610            FFLG,3 READ# BIT(1)INIT('0'B),3 DELR# BIT(1)
              6611    1   INIT('0'B),3 WNEW# BIT(1)INIT('0'B),3 UPD# BIT(1)INIT('0'B),3 DELF# BIT(1)INIT('0'B)
              6611            ,3 NOLIST# BIT(1)INIT('0'B),3 REATTR# BIT(1)INIT
              6612    1   ('0'B),3 EXEC# BIT(1)INIT('0'B),3 CREATE# BIT(1)INIT('0'B),3 AU# BIT(1)INIT('0'B),3
              6612            AURD# BIT(1)INIT('0'B),3 TCTL# BIT(1)INIT('0'B),
              6613    1   3 * BIT(6)INIT('0'B),2 DDEV,3 LP# BIT(1)INIT('0'B),3 CP# BIT(1)INIT('0'B),3 IC# BIT(
              6613            1)INIT('0'B),3 XEQ# BIT(1)INIT('0'B),3 UCOUT#
              6614    1   BIT(1)INIT('0'B),3 GR# BIT(1)INIT('0'B),3 * BIT(3)INIT('0'B),2 WIDTH# UBIN(9)UNAL
              6614            INIT(0),2 RETRYCNT# UBIN(18)HALIGNED INIT(0),2
              6615    1   DESC,3 DELF# BIT(1)INIT('0'B),3 NOLIST# BIT(1)INIT('0'B),3 BUF# BIT(1)INIT('0'B),3
              6615            ODSTOW# BIT(1)INIT('0'B),3 BAD# BIT(1)INIT('0'B),
              6616    1   3 QS# BIT(1)INIT('0'B),3 * BIT(2)INIT('0'B),3 ARCHIVE# BIT(1)INIT('0'B),3 BUPM# BIT(
              6616            1)INIT('0'B),3 NBUF# BIT(1)INIT('0'B),3 ACTIVE#
              6617    1   BIT(1)INIT('0'B),3 TPB# BIT(1)INIT('0'B),3 TERMINATE# BIT(1)INIT('0'B),3 FETCH# BIT(
              6617            1)INIT('0'B),3 * BIT(3)INIT('0'B),2 SETSTA$ PTR
              6618    1   INIT(ADDR(NIL)),2 LASTSTA$ PTR INIT(ADDR(NIL)),2 TDEXTST$ REDEF LASTSTA$ PTR,2 NAME#
              6618            ,3 L UBIN(9)UNAL INIT(SIZEC(' ')),3 C CHAR(31)
              6619    1   INIT(' '),3 C17 REDEF C UNAL,4 CC CHAR(17),4 * CHAR(14),2 ACCT# CHAR(8)INIT(' '),2
              6619            PASS# CHAR(8)INIT(' '),2 PSN# CHAR(6)INIT
              6620    1   (' '),2 TYPE# CHAR(2)INIT(' '),2 RES# CHAR(4)INIT('NO'),2 RESNT REDEF RES# UNAL,3
              6620            TYP CHAR(2),3 NUM CHAR(2),2 WSN# CHAR(8)ALIGNED
              6621    1   INIT(' '),2 TDSTAT# REDEF WSN# BIT(72),2 IGNOREFSN# BIT(1)INIT('0'B),2 AU# BIT(1)
              6621            INIT('0'B),2 QISS# BIT(1)INIT('0'B),2 LOAD# BIT
              6622    1   (1)INIT('0'B),2 IOERROK# BIT(1)INIT('0'B),2 AMRSETSTA BIT(1)INIT('0'B),2 LSTAOR# BIT
              6622            (1)INIT('0'B),2 VOLACCESS# UBIN(2)UNAL INIT
              6623    1   (0),2 UOPT#(0:8)BIT(1)INIT('0'B,'0'B,'0'B,'0'B,'0'B,'0'B,'0'B,'0'B,'0'B),2 PASSF#
              6623            BIT(1)INIT('0'B),2 CNVRT# BIT(1)
              6624    1   INIT('1'B),2 EBCDIC# BIT(1)INIT('0'B),2 FCI# BIT(1)INIT('0'B),2 FCD# BIT(1)INIT('0'B
              6624            ),2 AMR# BIT(1)INIT('0'B),2 CTG# BIT(1)INIT
              6625    1   ('0'B),2 EXIST# UBIN(2)UNAL INIT(3),2 SHARE# UBIN(2)UNAL INIT(0),2 COMP# BIT(1)INIT(
              6625            '0'B),2 XTEND# BIT(1)INIT('0'B),2 CVOL#
PL6.E3A0      #001=Z9P8$DCBS File=Z9P8.:Z8A6TSI                                  SAT 08/09/97 09:46 Page:11
              6626    1   BIT(1)INIT('0'B),2 BLOCKED# BIT(1)INIT('1'B),2 SPANNED# BIT(1)INIT('1'B),2 BUPM# BIT
              6626            (2)INIT('01'B),2 ORG# UBIN(9)UNAL INIT
              6627    1   (0),2 DVTYPE# REDEF ORG# UBIN(9)UNAL,2 FUN# UBIN(9)UNAL INIT(2),2 ASN# UBIN(9)UNAL
              6627            INIT(3),2 DISP# UBIN(9)UNAL INIT(0),2
              6628    1   BLKL# UBIN(18)UNAL INIT(0),2 RECL# UBIN(18)UNAL INIT(0),2 FSN# UBIN(18)UNAL INIT(0),
              6628            2 DBGDCBNO# REDEF FSN# UBIN(18)UNAL,2
              6629    1   DBGSYSID# REDEF FSN# UBIN(18)UNAL,2 SYSID# REDEF FSN# UBIN(18)UNAL,2 FEXTX UBIN(9)
              6629            UNAL INIT(0),2 BOL# UBIN(9)UNAL INIT(0),2 EXPIRE#
              6630    1   SBIN INIT(0),2 KEYX# UBIN(18)UNAL INIT(0),2 KEYL# UBIN(9)UNAL INIT(0),2 ACS# UBIN(9)
              6630            UNAL INIT(1),2 XTNSIZE# UBIN(18)
              6631    1   UNAL INIT(2),2 LSLIDE# UBIN(9)UNAL INIT(510),2 LRDL0# UBIN(9)UNAL INIT(3),2 SPARE#
              6631            UBIN(9)UNAL INIT(1),2 WSR# UBIN
              6632    1   (9)UNAL INIT(0),2 ATTR# BIT(18) INIT('0'B)/* '0'B */,2 ATTR REDEF ATTR#,3 DENS# BIT(
              6632            9),3
              6633    1   GRLGL# BIT(1),3 TRANSLGL# BIT(1),3 NOXLATE# BIT(1),3 UPPERCASE# BIT(1),3 NATL# BIT(1
              6633            ),3 TRUOVRPRT# BIT(1),3 APL# BIT(1),3 BIN# BIT
              6634    1   (1),3 LOWERCASE# BIT(1),2 TDFLG REDEF ATTR#/*'0'B */,3 SDSK# BIT(1),3 * BIT(17),2
              6634            IXTNSIZE# SBIN WORD INIT
              6635    1   (2),2 CONNCT# REDEF IXTNSIZE# SBIN,2 NRECS# SBIN INIT(0),2 CHANTIME# REDEF NRECS#
              6635            SBIN,2 VOL# UBIN(9)UNAL INIT(0),2
              6636    1   MAXVOL# UBIN(9)UNAL INIT(0),2 CHAIN# UBIN(9)UNAL INIT(0),2 DENSITY# UBIN(9)UNAL INIT
              6636            (0),2 LINES# UBIN(18)UNAL INIT
              6637    1   (0),2 DVFC# CHAR(1)INIT(BINASC(0)),2 SEQ# BIT(1)INIT('0'B),2 SEQCOL# UBIN(8)UNAL
              6637            INIT(73),2 SEQID# CHAR(4)INIT(' '),2 HEADER$
              6638    1   PTR INIT(ADDR(NIL)),2 DQH$ REDEF HEADER$ PTR,2 TAB$ PTR INIT(ADDR(NIL)),2 DCT$ REDEF
              6638            TAB$ PTR,2 FORM$ PTR INIT(ADDR(NIL)),2 MPC$
              6639    1   REDEF FORM$ PTR,2 LDCTX UBIN(18)UNAL INIT(0),2 SETX UBIN(18)UNAL INIT(0),2 DEVADR
              6639            REDEF SETX,3 DVN# UBIN(6)UNAL,3 IOM# UBIN(3)UNAL,3
              6640    1   CHAN# UBIN(9)CALIGNED,2 * BIT(9)CALIGNED INIT('0'B),2 JRNLBYPASS# BIT(1)INIT('0'B),2
              6640            * BIT(4)INIT('0'B),2 GHSTACS# UBIN(4)INIT
              6641    1   (0)UNAL,2 ALTKEYX UBIN(18)UNAL INIT(0),2 CODE16$ PTR INIT(ADDR(NIL)),2 FPRGX UBIN
              6641            HALF HALIGNED INIT(0),2 FIELDX UBIN HALF
              6642    1   HALIGNED INIT(0),2 EVENT SBIN INIT(0),2 VFCCHAR# CHAR(1)CALIGNED INIT(BINASC(0)),2
              6642            KEYTYPE# UBIN(9)CALIGNED INIT(0),2 KFIELDX
              6643    1   UBIN(18)HALIGNED INIT(0),2 STARTX UBIN(18)HALIGNED INIT(0),2 ACTPOS UBIN(18)HALIGNED
              6643            INIT(0),2 AUTHFFLG REDEF ACTPOS,3 READ# BIT(1),
              6644    1   3 DELR# BIT(1),3 WNEW# BIT(1),3 UPD# BIT(1),3 DELF# BIT(1),3 NOLIST# BIT(1),3
PL6.E3A0      #001=Z9P8$DCBS File=Z9P8.:Z8A6TSI                                  SAT 08/09/97 09:46 Page:12
              6644            REATTR# BIT(1),3 EXEC# BIT(1),3 CREATE# BIT(1),3 AU#
              6645    1   BIT(1),3 AURD# BIT(1),3 TCTL# BIT(1),3 * BIT(6),2 DCB# UBIN(9)CALIGNED INIT(0),2 *
              6645            BIT(14)INIT('0'B),2 ANSISPANSEQ# BIT(1)INIT
              6646    1   ('1'B),2 PATH,3 IOM# UBIN(3)UNAL INIT(0),3 CHAN# UBIN(9)UNAL INIT(0),2 IRRECX UBIN(
              6646            18)HALIGNED INIT(0),2 FLDID UBIN(18)
              6647    1   HALIGNED INIT(0),2 BADARS# REDEF FLDID UBIN(18)HALIGNED,2 SEED# BIT(36)INIT('0'B),2
              6647            * UBIN INIT(0),2 FEXT BIT(1)INIT('0'B),2 STARF
              6648    1   BIT(1)INIT('0'B),2 SHARED BIT(1)INIT('0'B),2 FMOD BIT(1)INIT('0'B),2 GTYP UBIN(3)
              6648            UNAL INIT(0),2 EOP UBIN(2)UNAL INIT(0),2 AMFLG,3
              6649    1   ACCF BIT(1)INIT('0'B),3 ACSF BIT(1)INIT('0'B),3 INSF BIT(1)INIT('0'B),3 USRF BIT(1)
              6649            INIT('0'B),3 SNLF BIT(1)INIT('0'B),3 PROF BIT(1)
              6650    1   INIT('0'B),2 SEZ_OK BIT(1)INIT('0'B),2 MUST_CVOL BIT(1)INIT('0'B),2 NEW_FSECT BIT(1)
              6650            INIT('0'B),2 NOEOF BIT(1)INIT('0'B),2 MOUNT
              6651    1   REDEF NOEOF BIT(1),2 OHDR BIT(1)INIT('0'B),2 LDFLG REDEF OHDR BIT(1),2 SPAN BIT(1)
              6651            INIT('0'B),2 OWNER BIT(1)INIT('0'B),2 RA BIT(1)
              6652    1   INIT('0'B),2 RPOS BIT(1)INIT('0'B),2 STARX UBIN(3)UNAL INIT(0),2 CACHE BIT(1)INIT(
              6652            '0'B),2 ENQF BIT(1)INIT('0'B),2 GRPOS BIT(1)INIT
              6653    1   ('0'B),2 CONT BIT(1)INIT('0'B),2 WAIT UBIN(1)UNAL INIT(1),2 TRNC UBIN(2)UNAL INIT(0)
              6653            ,2 AFTRBLK BIT(1)INIT('0'B),2 LSTBLK BIT(1)INIT
              6654    1   ('0'B),2 BORROW SBIN INIT(0),2 LASTKEY$ REDEF BORROW PTR,2 LASTKEY REDEF BORROW SBIN
              6654            ,2 FTAM REDEF BORROW,3 CTX UBIN HALF UNAL,3 USR
              6655    1   UBIN BYTE UNAL,3 PMME UBIN(9)UNAL,2 CFU$ PTR INIT(ADDR(NIL)),2 TDALVL UBIN(3)UNAL
              6655            INIT(0),2 LVL UBIN(3)UNAL INIT(0),2 LPOOL REDEF
              6656    1   LVL UBIN(3)UNAL,2 WRCMP BIT(1)INIT('0'B),2 WCDATA BIT(1)INIT('0'B),2 UCOUT BIT(1)
              6656            INIT('0'B),2 TAPTYP,3 RWASC BIT(1)INIT('0'B),3 CP6F
              6657    1   BIT(1)INIT('0'B),3 USRBUF BIT(1)INIT('0'B),3 HAVLASTKEY BIT(1)INIT('0'B),3 NOCVOL
              6657            BIT(1)INIT('0'B),3 MANAGED BIT(1)INIT('0'B),3
              6658    1   PASTFM BIT(1)INIT('0'B),3 * BIT(2)INIT('0'B),2 CRECX UBIN(18)UNAL INIT(0),2 CBUFNUM
              6658            UBIN(3)UNAL INIT(0),2 IORG UBIN(6)UNAL INIT(0),2
              6659    1   TDA UBIN(27)UNAL INIT(0),2 BYTESLEFT REDEF TDA UBIN(27)UNAL,2 CRECNO SBIN INIT(0),2
              6659            PRECNO SBIN INIT(0),2 CSEED REDEF PRECNO SBIN,2
              6660    1   HASH UBIN(27)UNAL INIT(0),2 FDCM UBIN(9)UNAL INIT(0),2 FCN(0:1),3 F BIT(1)INIT('0'B,
              6660            '0'B),3 CNT UBIN(8)UNAL INIT(0,0),2 BLKLEN UBIN
              6661    1   (18)UNAL INIT(0),2 UB$ PTR INIT(ADDR(NIL)),2 UBYTES UBIN INIT(0),2 FSECT UBIN(18)
              6661            UNAL INIT(0),2 INDX REDEF FSECT UBIN(18)UNAL,2
              6662    1   FPSTR UBIN(9)UNAL INIT(0),2 STR# UBIN(9)UNAL INIT(0),2 NRECX UBIN(18)UNAL INIT(0),2
              6662            MODCNT REDEF NRECX UBIN(18)UNAL,2 SEGX UBIN(18)
PL6.E3A0      #001=Z9P8$DCBS File=Z9P8.:Z8A6TSI                                  SAT 08/09/97 09:46 Page:13
              6663    1   UNAL INIT(0),2 GDISP UBIN INIT(0),2 LOGSEC BIT(1)INIT('0'B),2 PRIVOPN BIT(1)INIT(
              6663            '0'B),2 OLDIOERR UBIN(2)UNAL INIT(0),2 * BIT(21)
              6664    1   INIT('0'B),2 REALSPAN BIT(1),2 DECRYPT BIT(1)INIT('0'B),2 PGINGRAN UBIN BYTE UNAL
              6664            INIT(0),2 IFMT UBIN(9)UNAL INIT(0),2 MEDIA UBIN(9)
              6665    1   UNAL INIT(0),2 IWL,3 TABIWL BIT(1)INIT('0'B),3 SEQIWL BIT(1)INIT('0'B),3 HDRIWL BIT(
              6665            1)INIT('0'B),3 * BIT(3)INIT('0'B),2 CTLCMDIN BIT
              6666    1   (1)INIT('0'B),2 UNIQUEBLD BIT(1)INIT('0'B),2 UPDCNT BIT(1)INIT('0'B),2 IASN UBIN(9)
              6666            UNAL INIT(0),2 MOVED SBIN(18)HALIGNED,2 * UBIN(9)
              6667    1   CALIGNED,2 CX UBIN(9)CALIGNED,2 CWORD CHAR(4)ALIGNED,2 RCSZ UBIN INIT(0),2 FEPSIZ
              6667            REDEF RCSZ,3 BUF UBIN HALF UNAL,3 KEY UBIN HALF
              6668    1   UNAL,2 ID ALIGNED,3 GX UBIN(10)UNAL,3 DA UBIN(26)UNAL,2 FEPIO,3 EVENT UBIN INIT(0),3
              6668            KEYX/* 0 */ UBIN
              6669    1   HALF HALIGNED INIT(0),3 BUFX UBIN HALF HALIGNED INIT(0),3 BPP(0:1)BIT(18)INIT('0'B*0
              6669            ),3 KPP(0:1)BIT(18)INIT('0'B*0),2 AGE SBIN INIT
              6670    1   (0),2 BFR(0:4),3 BUFUP BIT(1)INIT('0'B*0),3 SCRUB BIT(1)INIT('0'B*0),3 CHNG BIT(1)
              6670            INIT('0'B*0),3 CVM BIT(1)INIT('0'B*0),3 BUFX UBIN
              6671    1   (5)UNAL INIT(0*0),3 DA UBIN(27)UNAL INIT(0*0),2 BFR1(0:4)ALIGNED,3 FLAGS,4
              6671            ONE_WORD_HEADER BIT(1)INIT('0'B*0),4 * BIT(8)INIT
              6672    1   ('0'B*0),3 SIZ UBIN(9)UNAL INIT(0*0),3 CX UBIN(18)UNAL INIT(0*0),2 FEPIO2(0:3)UBIN
              6672            ALIGNED,2 FEPIO3(0:3)UBIN ALIGNED,2 * SBIN INIT
              6673    1   (29127),2 DCBNAME DALIGNED,3 X UBIN(3)UNAL,3 S BIT(1),3 L UBIN(5)UNAL,3 N CHAR(M$UI.
              6673            DCBNAME.L);
      155     6675        %PAGE(ARG=M$SO);
              6676        %LSET LISTDIR='0'B;

              6688    1   /*******************************************************************************
              6689    1   *                                                                              *
              6690    1   *        M$SO              M$SO                                                  *
              6691    1   *                                                                              *
              6692    1   *******************************************************************************/

      156     6696        %M$DCB(DCBN=M$SO,
      157     6697        CTG=YES,
      158     6698        EXIST=NEWFILE,
      159     6699        FUN=CREATE,
      160     6700        ORG=CONSEC);
              6701    1   DCL 1 M$SO DCB,2 ARS# SBIN INIT(0),2 FLPW# REDEF ARS# BIT(36),2 * UBIN INIT(0),2 TYC
PL6.E3A0      #001=Z9P8$DCBS File=Z9P8.:Z8A6TSI                                  SAT 08/09/97 09:46 Page:14
              6701            ,3 EGV# BIT(1)INIT('0'B*0),3 OPER# BIT(1)
              6702    1   INIT('0'B*0),3 EOT# BIT(1)INIT('0'B*0),3 BOT# BIT(1)INIT('0'B*0),3 BOF# BIT(1)INIT(
              6702            '0'B*0),3 BLNKTP# BIT(1)INIT('0'B*0),3 EOF# BIT
              6703    1   (1)INIT('0'B*0),3 LD# BIT(1)INIT('0'B*0),3 IOERR# BIT(1)INIT('0'B*0),3 DI# BIT(1)
              6703            INIT('0'B*0),3 EOD# BIT(1)INIT('0'B*0),3 MTRAP# BIT
              6704    1   (1)INIT('0'B*0),3 LDISC# BIT(1)INIT('0'B*0),3 DACT# BIT(1)INIT('0'B*0),3 TIMO# BIT(1
              6704            )INIT('0'B*0),3 PROT# BIT(1)INIT('0'B*0),3 FRAW#
              6705    1   BIT(1)INIT('0'B*0),3 LAST# BIT(1)INIT('0'B*0),3 CDALRT# BIT(1)INIT('0'B*0),3 XTRARD
              6705            BIT(1)INIT('0'B*0),3 CGKEYV BIT(1)INIT('0'B*0),3
              6706    1   CGLWRV BIT(1)INIT('0'B*0),3 CGFULL BIT(1)INIT('0'B*0),3 CGCRCW BIT(1)INIT('0'B*0),3
              6706            CGCWRV BIT(1)INIT('0'B*0),3 * BIT(11)INIT
              6707    1   ('0'B*0),2 DVBYTE,3 TOP# BIT(1)INIT('0'B),3 * BIT(1)INIT('0'B),3 VFC# BIT(1)INIT(
              6707            '0'B),3 BIN# BIT(1)INIT('0'B),3 TRANS# BIT(1)INIT
              6708    1   ('0'B),3 * BIT(3)INIT('0'B),2 BUPF BIT(1)INIT('0'B),2 RDL0# UBIN(9)UNAL INIT(0),2
              6708            SLIDE# UBIN(9)UNAL INIT(0),2 EOMCHAR# CHAR(1)INIT
              6709    1   (BITASC('501'O)),2 EOMVAL# REDEF EOMCHAR# UNAL,3 VFLG# BIT(1),3 VALUE# UBIN(8)UNAL,2
              6709            FFLG,3 READ# BIT(1)INIT('0'B),3 DELR# BIT(1)
              6710    1   INIT('0'B),3 WNEW# BIT(1)INIT('0'B),3 UPD# BIT(1)INIT('0'B),3 DELF# BIT(1)INIT('0'B)
              6710            ,3 NOLIST# BIT(1)INIT('0'B),3 REATTR# BIT(1)INIT
              6711    1   ('0'B),3 EXEC# BIT(1)INIT('0'B),3 CREATE# BIT(1)INIT('0'B),3 AU# BIT(1)INIT('0'B),3
              6711            AURD# BIT(1)INIT('0'B),3 TCTL# BIT(1)INIT('0'B),
              6712    1   3 * BIT(6)INIT('0'B),2 DDEV,3 LP# BIT(1)INIT('0'B),3 CP# BIT(1)INIT('0'B),3 IC# BIT(
              6712            1)INIT('0'B),3 XEQ# BIT(1)INIT('0'B),3 UCOUT#
              6713    1   BIT(1)INIT('0'B),3 GR# BIT(1)INIT('0'B),3 * BIT(3)INIT('0'B),2 WIDTH# UBIN(9)UNAL
              6713            INIT(0),2 RETRYCNT# UBIN(18)HALIGNED INIT(0),2
              6714    1   DESC,3 DELF# BIT(1)INIT('0'B),3 NOLIST# BIT(1)INIT('0'B),3 BUF# BIT(1)INIT('0'B),3
              6714            ODSTOW# BIT(1)INIT('0'B),3 BAD# BIT(1)INIT('0'B),
              6715    1   3 QS# BIT(1)INIT('0'B),3 * BIT(2)INIT('0'B),3 ARCHIVE# BIT(1)INIT('0'B),3 BUPM# BIT(
              6715            1)INIT('0'B),3 NBUF# BIT(1)INIT('0'B),3 ACTIVE#
              6716    1   BIT(1)INIT('0'B),3 TPB# BIT(1)INIT('0'B),3 TERMINATE# BIT(1)INIT('0'B),3 FETCH# BIT(
              6716            1)INIT('0'B),3 * BIT(3)INIT('0'B),2 SETSTA$ PTR
              6717    1   INIT(ADDR(NIL)),2 LASTSTA$ PTR INIT(ADDR(NIL)),2 TDEXTST$ REDEF LASTSTA$ PTR,2 NAME#
              6717            ,3 L UBIN(9)UNAL INIT(SIZEC(' ')),3 C CHAR(31)
              6718    1   INIT(' '),3 C17 REDEF C UNAL,4 CC CHAR(17),4 * CHAR(14),2 ACCT# CHAR(8)INIT(' '),2
              6718            PASS# CHAR(8)INIT(' '),2 PSN# CHAR(6)INIT
              6719    1   (' '),2 TYPE# CHAR(2)INIT(' '),2 RES# CHAR(4)INIT('ME'),2 RESNT REDEF RES# UNAL,3
              6719            TYP CHAR(2),3 NUM CHAR(2),2 WSN# CHAR(8)ALIGNED
PL6.E3A0      #001=Z9P8$DCBS File=Z9P8.:Z8A6TSI                                  SAT 08/09/97 09:46 Page:15
              6720    1   INIT(' '),2 TDSTAT# REDEF WSN# BIT(72),2 IGNOREFSN# BIT(1)INIT('0'B),2 AU# BIT(1)
              6720            INIT('0'B),2 QISS# BIT(1)INIT('0'B),2 LOAD# BIT
              6721    1   (1)INIT('0'B),2 IOERROK# BIT(1)INIT('0'B),2 AMRSETSTA BIT(1)INIT('0'B),2 LSTAOR# BIT
              6721            (1)INIT('0'B),2 VOLACCESS# UBIN(2)UNAL INIT
              6722    1   (0),2 UOPT#(0:8)BIT(1)INIT('0'B,'0'B,'0'B,'0'B,'0'B,'0'B,'0'B,'0'B,'0'B),2 PASSF#
              6722            BIT(1)INIT('0'B),2 CNVRT# BIT(1)
              6723    1   INIT('1'B),2 EBCDIC# BIT(1)INIT('0'B),2 FCI# BIT(1)INIT('0'B),2 FCD# BIT(1)INIT('0'B
              6723            ),2 AMR# BIT(1)INIT('0'B),2 CTG# BIT(1)INIT
              6724    1   ('1'B),2 EXIST# UBIN(2)UNAL INIT(3),2 SHARE# UBIN(2)UNAL INIT(0),2 COMP# BIT(1)INIT(
              6724            '0'B),2 XTEND# BIT(1)INIT('0'B),2 CVOL#
              6725    1   BIT(1)INIT('0'B),2 BLOCKED# BIT(1)INIT('1'B),2 SPANNED# BIT(1)INIT('1'B),2 BUPM# BIT
              6725            (2)INIT('01'B),2 ORG# UBIN(9)UNAL INIT
              6726    1   (1),2 DVTYPE# REDEF ORG# UBIN(9)UNAL,2 FUN# UBIN(9)UNAL INIT(3),2 ASN# UBIN(9)UNAL
              6726            INIT(3),2 DISP# UBIN(9)UNAL INIT(0),2
              6727    1   BLKL# UBIN(18)UNAL INIT(0),2 RECL# UBIN(18)UNAL INIT(0),2 FSN# UBIN(18)UNAL INIT(0),
              6727            2 DBGDCBNO# REDEF FSN# UBIN(18)UNAL,2
              6728    1   DBGSYSID# REDEF FSN# UBIN(18)UNAL,2 SYSID# REDEF FSN# UBIN(18)UNAL,2 FEXTX UBIN(9)
              6728            UNAL INIT(0),2 BOL# UBIN(9)UNAL INIT(0),2 EXPIRE#
              6729    1   SBIN INIT(0),2 KEYX# UBIN(18)UNAL INIT(0),2 KEYL# UBIN(9)UNAL INIT(0),2 ACS# UBIN(9)
              6729            UNAL INIT(0),2 XTNSIZE# UBIN(18)
              6730    1   UNAL INIT(2),2 LSLIDE# UBIN(9)UNAL INIT(510),2 LRDL0# UBIN(9)UNAL INIT(3),2 SPARE#
              6730            UBIN(9)UNAL INIT(1),2 WSR# UBIN
              6731    1   (9)UNAL INIT(0),2 ATTR# BIT(18) INIT('0'B)/* '0'B */,2 ATTR REDEF ATTR#,3 DENS# BIT(
              6731            9),3
              6732    1   GRLGL# BIT(1),3 TRANSLGL# BIT(1),3 NOXLATE# BIT(1),3 UPPERCASE# BIT(1),3 NATL# BIT(1
              6732            ),3 TRUOVRPRT# BIT(1),3 APL# BIT(1),3 BIN# BIT
              6733    1   (1),3 LOWERCASE# BIT(1),2 TDFLG REDEF ATTR#/*'0'B */,3 SDSK# BIT(1),3 * BIT(17),2
              6733            IXTNSIZE# SBIN WORD INIT
              6734    1   (2),2 CONNCT# REDEF IXTNSIZE# SBIN,2 NRECS# SBIN INIT(0),2 CHANTIME# REDEF NRECS#
              6734            SBIN,2 VOL# UBIN(9)UNAL INIT(0),2
              6735    1   MAXVOL# UBIN(9)UNAL INIT(0),2 CHAIN# UBIN(9)UNAL INIT(0),2 DENSITY# UBIN(9)UNAL INIT
              6735            (0),2 LINES# UBIN(18)UNAL INIT
              6736    1   (0),2 DVFC# CHAR(1)INIT(BINASC(0)),2 SEQ# BIT(1)INIT('0'B),2 SEQCOL# UBIN(8)UNAL
              6736            INIT(73),2 SEQID# CHAR(4)INIT(' '),2 HEADER$
              6737    1   PTR INIT(ADDR(NIL)),2 DQH$ REDEF HEADER$ PTR,2 TAB$ PTR INIT(ADDR(NIL)),2 DCT$ REDEF
              6737            TAB$ PTR,2 FORM$ PTR INIT(ADDR(NIL)),2 MPC$
              6738    1   REDEF FORM$ PTR,2 LDCTX UBIN(18)UNAL INIT(0),2 SETX UBIN(18)UNAL INIT(0),2 DEVADR
PL6.E3A0      #001=Z9P8$DCBS File=Z9P8.:Z8A6TSI                                  SAT 08/09/97 09:46 Page:16
              6738            REDEF SETX,3 DVN# UBIN(6)UNAL,3 IOM# UBIN(3)UNAL,3
              6739    1   CHAN# UBIN(9)CALIGNED,2 * BIT(9)CALIGNED INIT('0'B),2 JRNLBYPASS# BIT(1)INIT('0'B),2
              6739            * BIT(4)INIT('0'B),2 GHSTACS# UBIN(4)INIT
              6740    1   (0)UNAL,2 ALTKEYX UBIN(18)UNAL INIT(0),2 CODE16$ PTR INIT(ADDR(NIL)),2 FPRGX UBIN
              6740            HALF HALIGNED INIT(0),2 FIELDX UBIN HALF
              6741    1   HALIGNED INIT(0),2 EVENT SBIN INIT(0),2 VFCCHAR# CHAR(1)CALIGNED INIT(BINASC(0)),2
              6741            KEYTYPE# UBIN(9)CALIGNED INIT(0),2 KFIELDX
              6742    1   UBIN(18)HALIGNED INIT(0),2 STARTX UBIN(18)HALIGNED INIT(0),2 ACTPOS UBIN(18)HALIGNED
              6742            INIT(0),2 AUTHFFLG REDEF ACTPOS,3 READ# BIT(1),
              6743    1   3 DELR# BIT(1),3 WNEW# BIT(1),3 UPD# BIT(1),3 DELF# BIT(1),3 NOLIST# BIT(1),3
              6743            REATTR# BIT(1),3 EXEC# BIT(1),3 CREATE# BIT(1),3 AU#
              6744    1   BIT(1),3 AURD# BIT(1),3 TCTL# BIT(1),3 * BIT(6),2 DCB# UBIN(9)CALIGNED INIT(0),2 *
              6744            BIT(14)INIT('0'B),2 ANSISPANSEQ# BIT(1)INIT
              6745    1   ('1'B),2 PATH,3 IOM# UBIN(3)UNAL INIT(0),3 CHAN# UBIN(9)UNAL INIT(0),2 IRRECX UBIN(
              6745            18)HALIGNED INIT(0),2 FLDID UBIN(18)
              6746    1   HALIGNED INIT(0),2 BADARS# REDEF FLDID UBIN(18)HALIGNED,2 SEED# BIT(36)INIT('0'B),2
              6746            * UBIN INIT(0),2 FEXT BIT(1)INIT('0'B),2 STARF
              6747    1   BIT(1)INIT('0'B),2 SHARED BIT(1)INIT('0'B),2 FMOD BIT(1)INIT('0'B),2 GTYP UBIN(3)
              6747            UNAL INIT(0),2 EOP UBIN(2)UNAL INIT(0),2 AMFLG,3
              6748    1   ACCF BIT(1)INIT('0'B),3 ACSF BIT(1)INIT('0'B),3 INSF BIT(1)INIT('0'B),3 USRF BIT(1)
              6748            INIT('0'B),3 SNLF BIT(1)INIT('0'B),3 PROF BIT(1)
              6749    1   INIT('0'B),2 SEZ_OK BIT(1)INIT('0'B),2 MUST_CVOL BIT(1)INIT('0'B),2 NEW_FSECT BIT(1)
              6749            INIT('0'B),2 NOEOF BIT(1)INIT('0'B),2 MOUNT
              6750    1   REDEF NOEOF BIT(1),2 OHDR BIT(1)INIT('0'B),2 LDFLG REDEF OHDR BIT(1),2 SPAN BIT(1)
              6750            INIT('0'B),2 OWNER BIT(1)INIT('0'B),2 RA BIT(1)
              6751    1   INIT('0'B),2 RPOS BIT(1)INIT('0'B),2 STARX UBIN(3)UNAL INIT(0),2 CACHE BIT(1)INIT(
              6751            '0'B),2 ENQF BIT(1)INIT('0'B),2 GRPOS BIT(1)INIT
              6752    1   ('0'B),2 CONT BIT(1)INIT('0'B),2 WAIT UBIN(1)UNAL INIT(1),2 TRNC UBIN(2)UNAL INIT(0)
              6752            ,2 AFTRBLK BIT(1)INIT('0'B),2 LSTBLK BIT(1)INIT
              6753    1   ('0'B),2 BORROW SBIN INIT(0),2 LASTKEY$ REDEF BORROW PTR,2 LASTKEY REDEF BORROW SBIN
              6753            ,2 FTAM REDEF BORROW,3 CTX UBIN HALF UNAL,3 USR
              6754    1   UBIN BYTE UNAL,3 PMME UBIN(9)UNAL,2 CFU$ PTR INIT(ADDR(NIL)),2 TDALVL UBIN(3)UNAL
              6754            INIT(0),2 LVL UBIN(3)UNAL INIT(0),2 LPOOL REDEF
              6755    1   LVL UBIN(3)UNAL,2 WRCMP BIT(1)INIT('0'B),2 WCDATA BIT(1)INIT('0'B),2 UCOUT BIT(1)
              6755            INIT('0'B),2 TAPTYP,3 RWASC BIT(1)INIT('0'B),3 CP6F
              6756    1   BIT(1)INIT('0'B),3 USRBUF BIT(1)INIT('0'B),3 HAVLASTKEY BIT(1)INIT('0'B),3 NOCVOL
              6756            BIT(1)INIT('0'B),3 MANAGED BIT(1)INIT('0'B),3
PL6.E3A0      #001=Z9P8$DCBS File=Z9P8.:Z8A6TSI                                  SAT 08/09/97 09:46 Page:17
              6757    1   PASTFM BIT(1)INIT('0'B),3 * BIT(2)INIT('0'B),2 CRECX UBIN(18)UNAL INIT(0),2 CBUFNUM
              6757            UBIN(3)UNAL INIT(0),2 IORG UBIN(6)UNAL INIT(0),2
              6758    1   TDA UBIN(27)UNAL INIT(0),2 BYTESLEFT REDEF TDA UBIN(27)UNAL,2 CRECNO SBIN INIT(0),2
              6758            PRECNO SBIN INIT(0),2 CSEED REDEF PRECNO SBIN,2
              6759    1   HASH UBIN(27)UNAL INIT(0),2 FDCM UBIN(9)UNAL INIT(0),2 FCN(0:1),3 F BIT(1)INIT('0'B,
              6759            '0'B),3 CNT UBIN(8)UNAL INIT(0,0),2 BLKLEN UBIN
              6760    1   (18)UNAL INIT(0),2 UB$ PTR INIT(ADDR(NIL)),2 UBYTES UBIN INIT(0),2 FSECT UBIN(18)
              6760            UNAL INIT(0),2 INDX REDEF FSECT UBIN(18)UNAL,2
              6761    1   FPSTR UBIN(9)UNAL INIT(0),2 STR# UBIN(9)UNAL INIT(0),2 NRECX UBIN(18)UNAL INIT(0),2
              6761            MODCNT REDEF NRECX UBIN(18)UNAL,2 SEGX UBIN(18)
              6762    1   UNAL INIT(0),2 GDISP UBIN INIT(0),2 LOGSEC BIT(1)INIT('0'B),2 PRIVOPN BIT(1)INIT(
              6762            '0'B),2 OLDIOERR UBIN(2)UNAL INIT(0),2 * BIT(21)
              6763    1   INIT('0'B),2 REALSPAN BIT(1),2 DECRYPT BIT(1)INIT('0'B),2 PGINGRAN UBIN BYTE UNAL
              6763            INIT(0),2 IFMT UBIN(9)UNAL INIT(0),2 MEDIA UBIN(9)
              6764    1   UNAL INIT(0),2 IWL,3 TABIWL BIT(1)INIT('0'B),3 SEQIWL BIT(1)INIT('0'B),3 HDRIWL BIT(
              6764            1)INIT('0'B),3 * BIT(3)INIT('0'B),2 CTLCMDIN BIT
              6765    1   (1)INIT('0'B),2 UNIQUEBLD BIT(1)INIT('0'B),2 UPDCNT BIT(1)INIT('0'B),2 IASN UBIN(9)
              6765            UNAL INIT(0),2 MOVED SBIN(18)HALIGNED,2 * UBIN(9)
              6766    1   CALIGNED,2 CX UBIN(9)CALIGNED,2 CWORD CHAR(4)ALIGNED,2 RCSZ UBIN INIT(0),2 FEPSIZ
              6766            REDEF RCSZ,3 BUF UBIN HALF UNAL,3 KEY UBIN HALF
              6767    1   UNAL,2 ID ALIGNED,3 GX UBIN(10)UNAL,3 DA UBIN(26)UNAL,2 FEPIO,3 EVENT UBIN INIT(0),3
              6767            KEYX/* 0 */ UBIN
              6768    1   HALF HALIGNED INIT(0),3 BUFX UBIN HALF HALIGNED INIT(0),3 BPP(0:1)BIT(18)INIT('0'B*0
              6768            ),3 KPP(0:1)BIT(18)INIT('0'B*0),2 AGE SBIN INIT
              6769    1   (0),2 BFR(0:4),3 BUFUP BIT(1)INIT('0'B*0),3 SCRUB BIT(1)INIT('0'B*0),3 CHNG BIT(1)
              6769            INIT('0'B*0),3 CVM BIT(1)INIT('0'B*0),3 BUFX UBIN
              6770    1   (5)UNAL INIT(0*0),3 DA UBIN(27)UNAL INIT(0*0),2 BFR1(0:4)ALIGNED,3 FLAGS,4
              6770            ONE_WORD_HEADER BIT(1)INIT('0'B*0),4 * BIT(8)INIT
              6771    1   ('0'B*0),3 SIZ UBIN(9)UNAL INIT(0*0),3 CX UBIN(18)UNAL INIT(0*0),2 FEPIO2(0:3)UBIN
              6771            ALIGNED,2 FEPIO3(0:3)UBIN ALIGNED,2 * SBIN INIT
              6772    1   (29127),2 DCBNAME DALIGNED,3 X UBIN(3)UNAL,3 S BIT(1),3 L UBIN(5)UNAL,3 N CHAR(M$SO.
              6772            DCBNAME.L);
      161     6774        %PAGE(ARG=M$OU);
              6775        %LSET LISTDIR='0'B;

              6787    1   /*******************************************************************************
              6788    1   *                                                                              *
PL6.E3A0      #001=Z9P8$DCBS File=Z9P8.:Z8A6TSI                                  SAT 08/09/97 09:46 Page:18
              6789    1   *        M$OU              M$OU                                                  *
              6790    1   *                                                                              *
              6791    1   *******************************************************************************/

      162     6795        %M$DCB(DCBN=M$OU,
      163     6796        CTG=YES,
      164     6797        ORG=CONSEC,
      165     6798        FUN=CREATE,
      166     6799        EXIST=NEWFILE);
              6800    1   DCL 1 M$OU DCB,2 ARS# SBIN INIT(0),2 FLPW# REDEF ARS# BIT(36),2 * UBIN INIT(0),2 TYC
              6800            ,3 EGV# BIT(1)INIT('0'B*0),3 OPER# BIT(1)
              6801    1   INIT('0'B*0),3 EOT# BIT(1)INIT('0'B*0),3 BOT# BIT(1)INIT('0'B*0),3 BOF# BIT(1)INIT(
              6801            '0'B*0),3 BLNKTP# BIT(1)INIT('0'B*0),3 EOF# BIT
              6802    1   (1)INIT('0'B*0),3 LD# BIT(1)INIT('0'B*0),3 IOERR# BIT(1)INIT('0'B*0),3 DI# BIT(1)
              6802            INIT('0'B*0),3 EOD# BIT(1)INIT('0'B*0),3 MTRAP# BIT
              6803    1   (1)INIT('0'B*0),3 LDISC# BIT(1)INIT('0'B*0),3 DACT# BIT(1)INIT('0'B*0),3 TIMO# BIT(1
              6803            )INIT('0'B*0),3 PROT# BIT(1)INIT('0'B*0),3 FRAW#
              6804    1   BIT(1)INIT('0'B*0),3 LAST# BIT(1)INIT('0'B*0),3 CDALRT# BIT(1)INIT('0'B*0),3 XTRARD
              6804            BIT(1)INIT('0'B*0),3 CGKEYV BIT(1)INIT('0'B*0),3
              6805    1   CGLWRV BIT(1)INIT('0'B*0),3 CGFULL BIT(1)INIT('0'B*0),3 CGCRCW BIT(1)INIT('0'B*0),3
              6805            CGCWRV BIT(1)INIT('0'B*0),3 * BIT(11)INIT
              6806    1   ('0'B*0),2 DVBYTE,3 TOP# BIT(1)INIT('0'B),3 * BIT(1)INIT('0'B),3 VFC# BIT(1)INIT(
              6806            '0'B),3 BIN# BIT(1)INIT('0'B),3 TRANS# BIT(1)INIT
              6807    1   ('0'B),3 * BIT(3)INIT('0'B),2 BUPF BIT(1)INIT('0'B),2 RDL0# UBIN(9)UNAL INIT(0),2
              6807            SLIDE# UBIN(9)UNAL INIT(0),2 EOMCHAR# CHAR(1)INIT
              6808    1   (BITASC('501'O)),2 EOMVAL# REDEF EOMCHAR# UNAL,3 VFLG# BIT(1),3 VALUE# UBIN(8)UNAL,2
              6808            FFLG,3 READ# BIT(1)INIT('0'B),3 DELR# BIT(1)
              6809    1   INIT('0'B),3 WNEW# BIT(1)INIT('0'B),3 UPD# BIT(1)INIT('0'B),3 DELF# BIT(1)INIT('0'B)
              6809            ,3 NOLIST# BIT(1)INIT('0'B),3 REATTR# BIT(1)INIT
              6810    1   ('0'B),3 EXEC# BIT(1)INIT('0'B),3 CREATE# BIT(1)INIT('0'B),3 AU# BIT(1)INIT('0'B),3
              6810            AURD# BIT(1)INIT('0'B),3 TCTL# BIT(1)INIT('0'B),
              6811    1   3 * BIT(6)INIT('0'B),2 DDEV,3 LP# BIT(1)INIT('0'B),3 CP# BIT(1)INIT('0'B),3 IC# BIT(
              6811            1)INIT('0'B),3 XEQ# BIT(1)INIT('0'B),3 UCOUT#
              6812    1   BIT(1)INIT('0'B),3 GR# BIT(1)INIT('0'B),3 * BIT(3)INIT('0'B),2 WIDTH# UBIN(9)UNAL
              6812            INIT(0),2 RETRYCNT# UBIN(18)HALIGNED INIT(0),2
              6813    1   DESC,3 DELF# BIT(1)INIT('0'B),3 NOLIST# BIT(1)INIT('0'B),3 BUF# BIT(1)INIT('0'B),3
              6813            ODSTOW# BIT(1)INIT('0'B),3 BAD# BIT(1)INIT('0'B),
PL6.E3A0      #001=Z9P8$DCBS File=Z9P8.:Z8A6TSI                                  SAT 08/09/97 09:46 Page:19
              6814    1   3 QS# BIT(1)INIT('0'B),3 * BIT(2)INIT('0'B),3 ARCHIVE# BIT(1)INIT('0'B),3 BUPM# BIT(
              6814            1)INIT('0'B),3 NBUF# BIT(1)INIT('0'B),3 ACTIVE#
              6815    1   BIT(1)INIT('0'B),3 TPB# BIT(1)INIT('0'B),3 TERMINATE# BIT(1)INIT('0'B),3 FETCH# BIT(
              6815            1)INIT('0'B),3 * BIT(3)INIT('0'B),2 SETSTA$ PTR
              6816    1   INIT(ADDR(NIL)),2 LASTSTA$ PTR INIT(ADDR(NIL)),2 TDEXTST$ REDEF LASTSTA$ PTR,2 NAME#
              6816            ,3 L UBIN(9)UNAL INIT(SIZEC(' ')),3 C CHAR(31)
              6817    1   INIT(' '),3 C17 REDEF C UNAL,4 CC CHAR(17),4 * CHAR(14),2 ACCT# CHAR(8)INIT(' '),2
              6817            PASS# CHAR(8)INIT(' '),2 PSN# CHAR(6)INIT
              6818    1   (' '),2 TYPE# CHAR(2)INIT(' '),2 RES# CHAR(4)INIT('ME'),2 RESNT REDEF RES# UNAL,3
              6818            TYP CHAR(2),3 NUM CHAR(2),2 WSN# CHAR(8)ALIGNED
              6819    1   INIT(' '),2 TDSTAT# REDEF WSN# BIT(72),2 IGNOREFSN# BIT(1)INIT('0'B),2 AU# BIT(1)
              6819            INIT('0'B),2 QISS# BIT(1)INIT('0'B),2 LOAD# BIT
              6820    1   (1)INIT('0'B),2 IOERROK# BIT(1)INIT('0'B),2 AMRSETSTA BIT(1)INIT('0'B),2 LSTAOR# BIT
              6820            (1)INIT('0'B),2 VOLACCESS# UBIN(2)UNAL INIT
              6821    1   (0),2 UOPT#(0:8)BIT(1)INIT('0'B,'0'B,'0'B,'0'B,'0'B,'0'B,'0'B,'0'B,'0'B),2 PASSF#
              6821            BIT(1)INIT('0'B),2 CNVRT# BIT(1)
              6822    1   INIT('1'B),2 EBCDIC# BIT(1)INIT('0'B),2 FCI# BIT(1)INIT('0'B),2 FCD# BIT(1)INIT('0'B
              6822            ),2 AMR# BIT(1)INIT('0'B),2 CTG# BIT(1)INIT
              6823    1   ('1'B),2 EXIST# UBIN(2)UNAL INIT(3),2 SHARE# UBIN(2)UNAL INIT(0),2 COMP# BIT(1)INIT(
              6823            '0'B),2 XTEND# BIT(1)INIT('0'B),2 CVOL#
              6824    1   BIT(1)INIT('0'B),2 BLOCKED# BIT(1)INIT('1'B),2 SPANNED# BIT(1)INIT('1'B),2 BUPM# BIT
              6824            (2)INIT('01'B),2 ORG# UBIN(9)UNAL INIT
              6825    1   (1),2 DVTYPE# REDEF ORG# UBIN(9)UNAL,2 FUN# UBIN(9)UNAL INIT(3),2 ASN# UBIN(9)UNAL
              6825            INIT(3),2 DISP# UBIN(9)UNAL INIT(0),2
              6826    1   BLKL# UBIN(18)UNAL INIT(0),2 RECL# UBIN(18)UNAL INIT(0),2 FSN# UBIN(18)UNAL INIT(0),
              6826            2 DBGDCBNO# REDEF FSN# UBIN(18)UNAL,2
              6827    1   DBGSYSID# REDEF FSN# UBIN(18)UNAL,2 SYSID# REDEF FSN# UBIN(18)UNAL,2 FEXTX UBIN(9)
              6827            UNAL INIT(0),2 BOL# UBIN(9)UNAL INIT(0),2 EXPIRE#
              6828    1   SBIN INIT(0),2 KEYX# UBIN(18)UNAL INIT(0),2 KEYL# UBIN(9)UNAL INIT(0),2 ACS# UBIN(9)
              6828            UNAL INIT(0),2 XTNSIZE# UBIN(18)
              6829    1   UNAL INIT(2),2 LSLIDE# UBIN(9)UNAL INIT(510),2 LRDL0# UBIN(9)UNAL INIT(3),2 SPARE#
              6829            UBIN(9)UNAL INIT(1),2 WSR# UBIN
              6830    1   (9)UNAL INIT(0),2 ATTR# BIT(18) INIT('0'B)/* '0'B */,2 ATTR REDEF ATTR#,3 DENS# BIT(
              6830            9),3
              6831    1   GRLGL# BIT(1),3 TRANSLGL# BIT(1),3 NOXLATE# BIT(1),3 UPPERCASE# BIT(1),3 NATL# BIT(1
              6831            ),3 TRUOVRPRT# BIT(1),3 APL# BIT(1),3 BIN# BIT
              6832    1   (1),3 LOWERCASE# BIT(1),2 TDFLG REDEF ATTR#/*'0'B */,3 SDSK# BIT(1),3 * BIT(17),2
PL6.E3A0      #001=Z9P8$DCBS File=Z9P8.:Z8A6TSI                                  SAT 08/09/97 09:46 Page:20
              6832            IXTNSIZE# SBIN WORD INIT
              6833    1   (2),2 CONNCT# REDEF IXTNSIZE# SBIN,2 NRECS# SBIN INIT(0),2 CHANTIME# REDEF NRECS#
              6833            SBIN,2 VOL# UBIN(9)UNAL INIT(0),2
              6834    1   MAXVOL# UBIN(9)UNAL INIT(0),2 CHAIN# UBIN(9)UNAL INIT(0),2 DENSITY# UBIN(9)UNAL INIT
              6834            (0),2 LINES# UBIN(18)UNAL INIT
              6835    1   (0),2 DVFC# CHAR(1)INIT(BINASC(0)),2 SEQ# BIT(1)INIT('0'B),2 SEQCOL# UBIN(8)UNAL
              6835            INIT(73),2 SEQID# CHAR(4)INIT(' '),2 HEADER$
              6836    1   PTR INIT(ADDR(NIL)),2 DQH$ REDEF HEADER$ PTR,2 TAB$ PTR INIT(ADDR(NIL)),2 DCT$ REDEF
              6836            TAB$ PTR,2 FORM$ PTR INIT(ADDR(NIL)),2 MPC$
              6837    1   REDEF FORM$ PTR,2 LDCTX UBIN(18)UNAL INIT(0),2 SETX UBIN(18)UNAL INIT(0),2 DEVADR
              6837            REDEF SETX,3 DVN# UBIN(6)UNAL,3 IOM# UBIN(3)UNAL,3
              6838    1   CHAN# UBIN(9)CALIGNED,2 * BIT(9)CALIGNED INIT('0'B),2 JRNLBYPASS# BIT(1)INIT('0'B),2
              6838            * BIT(4)INIT('0'B),2 GHSTACS# UBIN(4)INIT
              6839    1   (0)UNAL,2 ALTKEYX UBIN(18)UNAL INIT(0),2 CODE16$ PTR INIT(ADDR(NIL)),2 FPRGX UBIN
              6839            HALF HALIGNED INIT(0),2 FIELDX UBIN HALF
              6840    1   HALIGNED INIT(0),2 EVENT SBIN INIT(0),2 VFCCHAR# CHAR(1)CALIGNED INIT(BINASC(0)),2
              6840            KEYTYPE# UBIN(9)CALIGNED INIT(0),2 KFIELDX
              6841    1   UBIN(18)HALIGNED INIT(0),2 STARTX UBIN(18)HALIGNED INIT(0),2 ACTPOS UBIN(18)HALIGNED
              6841            INIT(0),2 AUTHFFLG REDEF ACTPOS,3 READ# BIT(1),
              6842    1   3 DELR# BIT(1),3 WNEW# BIT(1),3 UPD# BIT(1),3 DELF# BIT(1),3 NOLIST# BIT(1),3
              6842            REATTR# BIT(1),3 EXEC# BIT(1),3 CREATE# BIT(1),3 AU#
              6843    1   BIT(1),3 AURD# BIT(1),3 TCTL# BIT(1),3 * BIT(6),2 DCB# UBIN(9)CALIGNED INIT(0),2 *
              6843            BIT(14)INIT('0'B),2 ANSISPANSEQ# BIT(1)INIT
              6844    1   ('1'B),2 PATH,3 IOM# UBIN(3)UNAL INIT(0),3 CHAN# UBIN(9)UNAL INIT(0),2 IRRECX UBIN(
              6844            18)HALIGNED INIT(0),2 FLDID UBIN(18)
              6845    1   HALIGNED INIT(0),2 BADARS# REDEF FLDID UBIN(18)HALIGNED,2 SEED# BIT(36)INIT('0'B),2
              6845            * UBIN INIT(0),2 FEXT BIT(1)INIT('0'B),2 STARF
              6846    1   BIT(1)INIT('0'B),2 SHARED BIT(1)INIT('0'B),2 FMOD BIT(1)INIT('0'B),2 GTYP UBIN(3)
              6846            UNAL INIT(0),2 EOP UBIN(2)UNAL INIT(0),2 AMFLG,3
              6847    1   ACCF BIT(1)INIT('0'B),3 ACSF BIT(1)INIT('0'B),3 INSF BIT(1)INIT('0'B),3 USRF BIT(1)
              6847            INIT('0'B),3 SNLF BIT(1)INIT('0'B),3 PROF BIT(1)
              6848    1   INIT('0'B),2 SEZ_OK BIT(1)INIT('0'B),2 MUST_CVOL BIT(1)INIT('0'B),2 NEW_FSECT BIT(1)
              6848            INIT('0'B),2 NOEOF BIT(1)INIT('0'B),2 MOUNT
              6849    1   REDEF NOEOF BIT(1),2 OHDR BIT(1)INIT('0'B),2 LDFLG REDEF OHDR BIT(1),2 SPAN BIT(1)
              6849            INIT('0'B),2 OWNER BIT(1)INIT('0'B),2 RA BIT(1)
              6850    1   INIT('0'B),2 RPOS BIT(1)INIT('0'B),2 STARX UBIN(3)UNAL INIT(0),2 CACHE BIT(1)INIT(
              6850            '0'B),2 ENQF BIT(1)INIT('0'B),2 GRPOS BIT(1)INIT
PL6.E3A0      #001=Z9P8$DCBS File=Z9P8.:Z8A6TSI                                  SAT 08/09/97 09:46 Page:21
              6851    1   ('0'B),2 CONT BIT(1)INIT('0'B),2 WAIT UBIN(1)UNAL INIT(1),2 TRNC UBIN(2)UNAL INIT(0)
              6851            ,2 AFTRBLK BIT(1)INIT('0'B),2 LSTBLK BIT(1)INIT
              6852    1   ('0'B),2 BORROW SBIN INIT(0),2 LASTKEY$ REDEF BORROW PTR,2 LASTKEY REDEF BORROW SBIN
              6852            ,2 FTAM REDEF BORROW,3 CTX UBIN HALF UNAL,3 USR
              6853    1   UBIN BYTE UNAL,3 PMME UBIN(9)UNAL,2 CFU$ PTR INIT(ADDR(NIL)),2 TDALVL UBIN(3)UNAL
              6853            INIT(0),2 LVL UBIN(3)UNAL INIT(0),2 LPOOL REDEF
              6854    1   LVL UBIN(3)UNAL,2 WRCMP BIT(1)INIT('0'B),2 WCDATA BIT(1)INIT('0'B),2 UCOUT BIT(1)
              6854            INIT('0'B),2 TAPTYP,3 RWASC BIT(1)INIT('0'B),3 CP6F
              6855    1   BIT(1)INIT('0'B),3 USRBUF BIT(1)INIT('0'B),3 HAVLASTKEY BIT(1)INIT('0'B),3 NOCVOL
              6855            BIT(1)INIT('0'B),3 MANAGED BIT(1)INIT('0'B),3
              6856    1   PASTFM BIT(1)INIT('0'B),3 * BIT(2)INIT('0'B),2 CRECX UBIN(18)UNAL INIT(0),2 CBUFNUM
              6856            UBIN(3)UNAL INIT(0),2 IORG UBIN(6)UNAL INIT(0),2
              6857    1   TDA UBIN(27)UNAL INIT(0),2 BYTESLEFT REDEF TDA UBIN(27)UNAL,2 CRECNO SBIN INIT(0),2
              6857            PRECNO SBIN INIT(0),2 CSEED REDEF PRECNO SBIN,2
              6858    1   HASH UBIN(27)UNAL INIT(0),2 FDCM UBIN(9)UNAL INIT(0),2 FCN(0:1),3 F BIT(1)INIT('0'B,
              6858            '0'B),3 CNT UBIN(8)UNAL INIT(0,0),2 BLKLEN UBIN
              6859    1   (18)UNAL INIT(0),2 UB$ PTR INIT(ADDR(NIL)),2 UBYTES UBIN INIT(0),2 FSECT UBIN(18)
              6859            UNAL INIT(0),2 INDX REDEF FSECT UBIN(18)UNAL,2
              6860    1   FPSTR UBIN(9)UNAL INIT(0),2 STR# UBIN(9)UNAL INIT(0),2 NRECX UBIN(18)UNAL INIT(0),2
              6860            MODCNT REDEF NRECX UBIN(18)UNAL,2 SEGX UBIN(18)
              6861    1   UNAL INIT(0),2 GDISP UBIN INIT(0),2 LOGSEC BIT(1)INIT('0'B),2 PRIVOPN BIT(1)INIT(
              6861            '0'B),2 OLDIOERR UBIN(2)UNAL INIT(0),2 * BIT(21)
              6862    1   INIT('0'B),2 REALSPAN BIT(1),2 DECRYPT BIT(1)INIT('0'B),2 PGINGRAN UBIN BYTE UNAL
              6862            INIT(0),2 IFMT UBIN(9)UNAL INIT(0),2 MEDIA UBIN(9)
              6863    1   UNAL INIT(0),2 IWL,3 TABIWL BIT(1)INIT('0'B),3 SEQIWL BIT(1)INIT('0'B),3 HDRIWL BIT(
              6863            1)INIT('0'B),3 * BIT(3)INIT('0'B),2 CTLCMDIN BIT
              6864    1   (1)INIT('0'B),2 UNIQUEBLD BIT(1)INIT('0'B),2 UPDCNT BIT(1)INIT('0'B),2 IASN UBIN(9)
              6864            UNAL INIT(0),2 MOVED SBIN(18)HALIGNED,2 * UBIN(9)
              6865    1   CALIGNED,2 CX UBIN(9)CALIGNED,2 CWORD CHAR(4)ALIGNED,2 RCSZ UBIN INIT(0),2 FEPSIZ
              6865            REDEF RCSZ,3 BUF UBIN HALF UNAL,3 KEY UBIN HALF
              6866    1   UNAL,2 ID ALIGNED,3 GX UBIN(10)UNAL,3 DA UBIN(26)UNAL,2 FEPIO,3 EVENT UBIN INIT(0),3
              6866            KEYX/* 0 */ UBIN
              6867    1   HALF HALIGNED INIT(0),3 BUFX UBIN HALF HALIGNED INIT(0),3 BPP(0:1)BIT(18)INIT('0'B*0
              6867            ),3 KPP(0:1)BIT(18)INIT('0'B*0),2 AGE SBIN INIT
              6868    1   (0),2 BFR(0:4),3 BUFUP BIT(1)INIT('0'B*0),3 SCRUB BIT(1)INIT('0'B*0),3 CHNG BIT(1)
              6868            INIT('0'B*0),3 CVM BIT(1)INIT('0'B*0),3 BUFX UBIN
              6869    1   (5)UNAL INIT(0*0),3 DA UBIN(27)UNAL INIT(0*0),2 BFR1(0:4)ALIGNED,3 FLAGS,4
PL6.E3A0      #001=Z9P8$DCBS File=Z9P8.:Z8A6TSI                                  SAT 08/09/97 09:46 Page:22
              6869            ONE_WORD_HEADER BIT(1)INIT('0'B*0),4 * BIT(8)INIT
              6870    1   ('0'B*0),3 SIZ UBIN(9)UNAL INIT(0*0),3 CX UBIN(18)UNAL INIT(0*0),2 FEPIO2(0:3)UBIN
              6870            ALIGNED,2 FEPIO3(0:3)UBIN ALIGNED,2 * SBIN INIT
              6871    1   (29127),2 DCBNAME DALIGNED,3 X UBIN(3)UNAL,3 S BIT(1),3 L UBIN(5)UNAL,3 N CHAR(M$OU.
              6871            DCBNAME.L);
      167     6873        %PAGE(ARG=M$LO);
              6874        %LSET LISTDIR='0'B;

              6886    1   /*******************************************************************************
              6887    1   *                                                                              *
              6888    1   *        M$LO              M$LO                                                  *
              6889    1   *                                                                              *
              6890    1   *******************************************************************************/

      168     6894        %M$DCB(DCBN=M$LO,
      169     6895        CTG=YES,
      170     6896        ACS=SEQUEN,
      171     6897        FUN=CREATE,
      172     6898        EXIST=NEWFILE,
      173     6899        ORG=UR);
              6900    1   DCL 1 M$LO DCB,2 ARS# SBIN INIT(0),2 FLPW# REDEF ARS# BIT(36),2 * UBIN INIT(0),2 TYC
              6900            ,3 EGV# BIT(1)INIT('0'B*0),3 OPER# BIT(1)
              6901    1   INIT('0'B*0),3 EOT# BIT(1)INIT('0'B*0),3 BOT# BIT(1)INIT('0'B*0),3 BOF# BIT(1)INIT(
              6901            '0'B*0),3 BLNKTP# BIT(1)INIT('0'B*0),3 EOF# BIT
              6902    1   (1)INIT('0'B*0),3 LD# BIT(1)INIT('0'B*0),3 IOERR# BIT(1)INIT('0'B*0),3 DI# BIT(1)
              6902            INIT('0'B*0),3 EOD# BIT(1)INIT('0'B*0),3 MTRAP# BIT
              6903    1   (1)INIT('0'B*0),3 LDISC# BIT(1)INIT('0'B*0),3 DACT# BIT(1)INIT('0'B*0),3 TIMO# BIT(1
              6903            )INIT('0'B*0),3 PROT# BIT(1)INIT('0'B*0),3 FRAW#
              6904    1   BIT(1)INIT('0'B*0),3 LAST# BIT(1)INIT('0'B*0),3 CDALRT# BIT(1)INIT('0'B*0),3 XTRARD
              6904            BIT(1)INIT('0'B*0),3 CGKEYV BIT(1)INIT('0'B*0),3
              6905    1   CGLWRV BIT(1)INIT('0'B*0),3 CGFULL BIT(1)INIT('0'B*0),3 CGCRCW BIT(1)INIT('0'B*0),3
              6905            CGCWRV BIT(1)INIT('0'B*0),3 * BIT(11)INIT
              6906    1   ('0'B*0),2 DVBYTE,3 TOP# BIT(1)INIT('0'B),3 * BIT(1)INIT('0'B),3 VFC# BIT(1)INIT(
              6906            '0'B),3 BIN# BIT(1)INIT('0'B),3 TRANS# BIT(1)INIT
              6907    1   ('0'B),3 * BIT(3)INIT('0'B),2 BUPF BIT(1)INIT('0'B),2 RDL0# UBIN(9)UNAL INIT(0),2
              6907            SLIDE# UBIN(9)UNAL INIT(0),2 EOMCHAR# CHAR(1)INIT
              6908    1   (BITASC('501'O)),2 EOMVAL# REDEF EOMCHAR# UNAL,3 VFLG# BIT(1),3 VALUE# UBIN(8)UNAL,2
PL6.E3A0      #001=Z9P8$DCBS File=Z9P8.:Z8A6TSI                                  SAT 08/09/97 09:46 Page:23
              6908            FFLG,3 READ# BIT(1)INIT('0'B),3 DELR# BIT(1)
              6909    1   INIT('0'B),3 WNEW# BIT(1)INIT('0'B),3 UPD# BIT(1)INIT('0'B),3 DELF# BIT(1)INIT('0'B)
              6909            ,3 NOLIST# BIT(1)INIT('0'B),3 REATTR# BIT(1)INIT
              6910    1   ('0'B),3 EXEC# BIT(1)INIT('0'B),3 CREATE# BIT(1)INIT('0'B),3 AU# BIT(1)INIT('0'B),3
              6910            AURD# BIT(1)INIT('0'B),3 TCTL# BIT(1)INIT('0'B),
              6911    1   3 * BIT(6)INIT('0'B),2 DDEV,3 LP# BIT(1)INIT('0'B),3 CP# BIT(1)INIT('0'B),3 IC# BIT(
              6911            1)INIT('0'B),3 XEQ# BIT(1)INIT('0'B),3 UCOUT#
              6912    1   BIT(1)INIT('0'B),3 GR# BIT(1)INIT('0'B),3 * BIT(3)INIT('0'B),2 WIDTH# UBIN(9)UNAL
              6912            INIT(0),2 RETRYCNT# UBIN(18)HALIGNED INIT(0),2
              6913    1   DESC,3 DELF# BIT(1)INIT('0'B),3 NOLIST# BIT(1)INIT('0'B),3 BUF# BIT(1)INIT('0'B),3
              6913            ODSTOW# BIT(1)INIT('0'B),3 BAD# BIT(1)INIT('0'B),
              6914    1   3 QS# BIT(1)INIT('0'B),3 * BIT(2)INIT('0'B),3 ARCHIVE# BIT(1)INIT('0'B),3 BUPM# BIT(
              6914            1)INIT('0'B),3 NBUF# BIT(1)INIT('0'B),3 ACTIVE#
              6915    1   BIT(1)INIT('0'B),3 TPB# BIT(1)INIT('0'B),3 TERMINATE# BIT(1)INIT('0'B),3 FETCH# BIT(
              6915            1)INIT('0'B),3 * BIT(3)INIT('0'B),2 SETSTA$ PTR
              6916    1   INIT(ADDR(NIL)),2 LASTSTA$ PTR INIT(ADDR(NIL)),2 TDEXTST$ REDEF LASTSTA$ PTR,2 NAME#
              6916            ,3 L UBIN(9)UNAL INIT(SIZEC(' ')),3 C CHAR(31)
              6917    1   INIT(' '),3 C17 REDEF C UNAL,4 CC CHAR(17),4 * CHAR(14),2 ACCT# CHAR(8)INIT(' '),2
              6917            PASS# CHAR(8)INIT(' '),2 PSN# CHAR(6)INIT
              6918    1   (' '),2 TYPE# CHAR(2)INIT(' '),2 RES# CHAR(4)INIT('ME'),2 RESNT REDEF RES# UNAL,3
              6918            TYP CHAR(2),3 NUM CHAR(2),2 WSN# CHAR(8)ALIGNED
              6919    1   INIT(' '),2 TDSTAT# REDEF WSN# BIT(72),2 IGNOREFSN# BIT(1)INIT('0'B),2 AU# BIT(1)
              6919            INIT('0'B),2 QISS# BIT(1)INIT('0'B),2 LOAD# BIT
              6920    1   (1)INIT('0'B),2 IOERROK# BIT(1)INIT('0'B),2 AMRSETSTA BIT(1)INIT('0'B),2 LSTAOR# BIT
              6920            (1)INIT('0'B),2 VOLACCESS# UBIN(2)UNAL INIT
              6921    1   (0),2 UOPT#(0:8)BIT(1)INIT('0'B,'0'B,'0'B,'0'B,'0'B,'0'B,'0'B,'0'B,'0'B),2 PASSF#
              6921            BIT(1)INIT('0'B),2 CNVRT# BIT(1)
              6922    1   INIT('1'B),2 EBCDIC# BIT(1)INIT('0'B),2 FCI# BIT(1)INIT('0'B),2 FCD# BIT(1)INIT('0'B
              6922            ),2 AMR# BIT(1)INIT('0'B),2 CTG# BIT(1)INIT
              6923    1   ('1'B),2 EXIST# UBIN(2)UNAL INIT(3),2 SHARE# UBIN(2)UNAL INIT(0),2 COMP# BIT(1)INIT(
              6923            '0'B),2 XTEND# BIT(1)INIT('0'B),2 CVOL#
              6924    1   BIT(1)INIT('0'B),2 BLOCKED# BIT(1)INIT('1'B),2 SPANNED# BIT(1)INIT('1'B),2 BUPM# BIT
              6924            (2)INIT('01'B),2 ORG# UBIN(9)UNAL INIT
              6925    1   (4),2 DVTYPE# REDEF ORG# UBIN(9)UNAL,2 FUN# UBIN(9)UNAL INIT(3),2 ASN# UBIN(9)UNAL
              6925            INIT(3),2 DISP# UBIN(9)UNAL INIT(0),2
              6926    1   BLKL# UBIN(18)UNAL INIT(0),2 RECL# UBIN(18)UNAL INIT(0),2 FSN# UBIN(18)UNAL INIT(0),
              6926            2 DBGDCBNO# REDEF FSN# UBIN(18)UNAL,2
PL6.E3A0      #001=Z9P8$DCBS File=Z9P8.:Z8A6TSI                                  SAT 08/09/97 09:46 Page:24
              6927    1   DBGSYSID# REDEF FSN# UBIN(18)UNAL,2 SYSID# REDEF FSN# UBIN(18)UNAL,2 FEXTX UBIN(9)
              6927            UNAL INIT(0),2 BOL# UBIN(9)UNAL INIT(0),2 EXPIRE#
              6928    1   SBIN INIT(0),2 KEYX# UBIN(18)UNAL INIT(0),2 KEYL# UBIN(9)UNAL INIT(0),2 ACS# UBIN(9)
              6928            UNAL INIT(1),2 XTNSIZE# UBIN(18)
              6929    1   UNAL INIT(2),2 LSLIDE# UBIN(9)UNAL INIT(510),2 LRDL0# UBIN(9)UNAL INIT(3),2 SPARE#
              6929            UBIN(9)UNAL INIT(1),2 WSR# UBIN
              6930    1   (9)UNAL INIT(0),2 ATTR# BIT(18) INIT('0'B)/* '0'B */,2 ATTR REDEF ATTR#,3 DENS# BIT(
              6930            9),3
              6931    1   GRLGL# BIT(1),3 TRANSLGL# BIT(1),3 NOXLATE# BIT(1),3 UPPERCASE# BIT(1),3 NATL# BIT(1
              6931            ),3 TRUOVRPRT# BIT(1),3 APL# BIT(1),3 BIN# BIT
              6932    1   (1),3 LOWERCASE# BIT(1),2 TDFLG REDEF ATTR#/*'0'B */,3 SDSK# BIT(1),3 * BIT(17),2
              6932            IXTNSIZE# SBIN WORD INIT
              6933    1   (2),2 CONNCT# REDEF IXTNSIZE# SBIN,2 NRECS# SBIN INIT(0),2 CHANTIME# REDEF NRECS#
              6933            SBIN,2 VOL# UBIN(9)UNAL INIT(0),2
              6934    1   MAXVOL# UBIN(9)UNAL INIT(0),2 CHAIN# UBIN(9)UNAL INIT(0),2 DENSITY# UBIN(9)UNAL INIT
              6934            (0),2 LINES# UBIN(18)UNAL INIT
              6935    1   (0),2 DVFC# CHAR(1)INIT(BINASC(0)),2 SEQ# BIT(1)INIT('0'B),2 SEQCOL# UBIN(8)UNAL
              6935            INIT(73),2 SEQID# CHAR(4)INIT(' '),2 HEADER$
              6936    1   PTR INIT(ADDR(NIL)),2 DQH$ REDEF HEADER$ PTR,2 TAB$ PTR INIT(ADDR(NIL)),2 DCT$ REDEF
              6936            TAB$ PTR,2 FORM$ PTR INIT(ADDR(NIL)),2 MPC$
              6937    1   REDEF FORM$ PTR,2 LDCTX UBIN(18)UNAL INIT(0),2 SETX UBIN(18)UNAL INIT(0),2 DEVADR
              6937            REDEF SETX,3 DVN# UBIN(6)UNAL,3 IOM# UBIN(3)UNAL,3
              6938    1   CHAN# UBIN(9)CALIGNED,2 * BIT(9)CALIGNED INIT('0'B),2 JRNLBYPASS# BIT(1)INIT('0'B),2
              6938            * BIT(4)INIT('0'B),2 GHSTACS# UBIN(4)INIT
              6939    1   (0)UNAL,2 ALTKEYX UBIN(18)UNAL INIT(0),2 CODE16$ PTR INIT(ADDR(NIL)),2 FPRGX UBIN
              6939            HALF HALIGNED INIT(0),2 FIELDX UBIN HALF
              6940    1   HALIGNED INIT(0),2 EVENT SBIN INIT(0),2 VFCCHAR# CHAR(1)CALIGNED INIT(BINASC(0)),2
              6940            KEYTYPE# UBIN(9)CALIGNED INIT(0),2 KFIELDX
              6941    1   UBIN(18)HALIGNED INIT(0),2 STARTX UBIN(18)HALIGNED INIT(0),2 ACTPOS UBIN(18)HALIGNED
              6941            INIT(0),2 AUTHFFLG REDEF ACTPOS,3 READ# BIT(1),
              6942    1   3 DELR# BIT(1),3 WNEW# BIT(1),3 UPD# BIT(1),3 DELF# BIT(1),3 NOLIST# BIT(1),3
              6942            REATTR# BIT(1),3 EXEC# BIT(1),3 CREATE# BIT(1),3 AU#
              6943    1   BIT(1),3 AURD# BIT(1),3 TCTL# BIT(1),3 * BIT(6),2 DCB# UBIN(9)CALIGNED INIT(0),2 *
              6943            BIT(14)INIT('0'B),2 ANSISPANSEQ# BIT(1)INIT
              6944    1   ('1'B),2 PATH,3 IOM# UBIN(3)UNAL INIT(0),3 CHAN# UBIN(9)UNAL INIT(0),2 IRRECX UBIN(
              6944            18)HALIGNED INIT(0),2 FLDID UBIN(18)
              6945    1   HALIGNED INIT(0),2 BADARS# REDEF FLDID UBIN(18)HALIGNED,2 SEED# BIT(36)INIT('0'B),2
PL6.E3A0      #001=Z9P8$DCBS File=Z9P8.:Z8A6TSI                                  SAT 08/09/97 09:46 Page:25
              6945            * UBIN INIT(0),2 FEXT BIT(1)INIT('0'B),2 STARF
              6946    1   BIT(1)INIT('0'B),2 SHARED BIT(1)INIT('0'B),2 FMOD BIT(1)INIT('0'B),2 GTYP UBIN(3)
              6946            UNAL INIT(0),2 EOP UBIN(2)UNAL INIT(0),2 AMFLG,3
              6947    1   ACCF BIT(1)INIT('0'B),3 ACSF BIT(1)INIT('0'B),3 INSF BIT(1)INIT('0'B),3 USRF BIT(1)
              6947            INIT('0'B),3 SNLF BIT(1)INIT('0'B),3 PROF BIT(1)
              6948    1   INIT('0'B),2 SEZ_OK BIT(1)INIT('0'B),2 MUST_CVOL BIT(1)INIT('0'B),2 NEW_FSECT BIT(1)
              6948            INIT('0'B),2 NOEOF BIT(1)INIT('0'B),2 MOUNT
              6949    1   REDEF NOEOF BIT(1),2 OHDR BIT(1)INIT('0'B),2 LDFLG REDEF OHDR BIT(1),2 SPAN BIT(1)
              6949            INIT('0'B),2 OWNER BIT(1)INIT('0'B),2 RA BIT(1)
              6950    1   INIT('0'B),2 RPOS BIT(1)INIT('0'B),2 STARX UBIN(3)UNAL INIT(0),2 CACHE BIT(1)INIT(
              6950            '0'B),2 ENQF BIT(1)INIT('0'B),2 GRPOS BIT(1)INIT
              6951    1   ('0'B),2 CONT BIT(1)INIT('0'B),2 WAIT UBIN(1)UNAL INIT(1),2 TRNC UBIN(2)UNAL INIT(0)
              6951            ,2 AFTRBLK BIT(1)INIT('0'B),2 LSTBLK BIT(1)INIT
              6952    1   ('0'B),2 BORROW SBIN INIT(0),2 LASTKEY$ REDEF BORROW PTR,2 LASTKEY REDEF BORROW SBIN
              6952            ,2 FTAM REDEF BORROW,3 CTX UBIN HALF UNAL,3 USR
              6953    1   UBIN BYTE UNAL,3 PMME UBIN(9)UNAL,2 CFU$ PTR INIT(ADDR(NIL)),2 TDALVL UBIN(3)UNAL
              6953            INIT(0),2 LVL UBIN(3)UNAL INIT(0),2 LPOOL REDEF
              6954    1   LVL UBIN(3)UNAL,2 WRCMP BIT(1)INIT('0'B),2 WCDATA BIT(1)INIT('0'B),2 UCOUT BIT(1)
              6954            INIT('0'B),2 TAPTYP,3 RWASC BIT(1)INIT('0'B),3 CP6F
              6955    1   BIT(1)INIT('0'B),3 USRBUF BIT(1)INIT('0'B),3 HAVLASTKEY BIT(1)INIT('0'B),3 NOCVOL
              6955            BIT(1)INIT('0'B),3 MANAGED BIT(1)INIT('0'B),3
              6956    1   PASTFM BIT(1)INIT('0'B),3 * BIT(2)INIT('0'B),2 CRECX UBIN(18)UNAL INIT(0),2 CBUFNUM
              6956            UBIN(3)UNAL INIT(0),2 IORG UBIN(6)UNAL INIT(0),2
              6957    1   TDA UBIN(27)UNAL INIT(0),2 BYTESLEFT REDEF TDA UBIN(27)UNAL,2 CRECNO SBIN INIT(0),2
              6957            PRECNO SBIN INIT(0),2 CSEED REDEF PRECNO SBIN,2
              6958    1   HASH UBIN(27)UNAL INIT(0),2 FDCM UBIN(9)UNAL INIT(0),2 FCN(0:1),3 F BIT(1)INIT('0'B,
              6958            '0'B),3 CNT UBIN(8)UNAL INIT(0,0),2 BLKLEN UBIN
              6959    1   (18)UNAL INIT(0),2 UB$ PTR INIT(ADDR(NIL)),2 UBYTES UBIN INIT(0),2 FSECT UBIN(18)
              6959            UNAL INIT(0),2 INDX REDEF FSECT UBIN(18)UNAL,2
              6960    1   FPSTR UBIN(9)UNAL INIT(0),2 STR# UBIN(9)UNAL INIT(0),2 NRECX UBIN(18)UNAL INIT(0),2
              6960            MODCNT REDEF NRECX UBIN(18)UNAL,2 SEGX UBIN(18)
              6961    1   UNAL INIT(0),2 GDISP UBIN INIT(0),2 LOGSEC BIT(1)INIT('0'B),2 PRIVOPN BIT(1)INIT(
              6961            '0'B),2 OLDIOERR UBIN(2)UNAL INIT(0),2 * BIT(21)
              6962    1   INIT('0'B),2 REALSPAN BIT(1),2 DECRYPT BIT(1)INIT('0'B),2 PGINGRAN UBIN BYTE UNAL
              6962            INIT(0),2 IFMT UBIN(9)UNAL INIT(0),2 MEDIA UBIN(9)
              6963    1   UNAL INIT(0),2 IWL,3 TABIWL BIT(1)INIT('0'B),3 SEQIWL BIT(1)INIT('0'B),3 HDRIWL BIT(
              6963            1)INIT('0'B),3 * BIT(3)INIT('0'B),2 CTLCMDIN BIT
PL6.E3A0      #001=Z9P8$DCBS File=Z9P8.:Z8A6TSI                                  SAT 08/09/97 09:46 Page:26
              6964    1   (1)INIT('0'B),2 UNIQUEBLD BIT(1)INIT('0'B),2 UPDCNT BIT(1)INIT('0'B),2 IASN UBIN(9)
              6964            UNAL INIT(0),2 MOVED SBIN(18)HALIGNED,2 * UBIN(9)
              6965    1   CALIGNED,2 CX UBIN(9)CALIGNED,2 CWORD CHAR(4)ALIGNED,2 RCSZ UBIN INIT(0),2 FEPSIZ
              6965            REDEF RCSZ,3 BUF UBIN HALF UNAL,3 KEY UBIN HALF
              6966    1   UNAL,2 ID ALIGNED,3 GX UBIN(10)UNAL,3 DA UBIN(26)UNAL,2 FEPIO,3 EVENT UBIN INIT(0),3
              6966            KEYX/* 0 */ UBIN
              6967    1   HALF HALIGNED INIT(0),3 BUFX UBIN HALF HALIGNED INIT(0),3 BPP(0:1)BIT(18)INIT('0'B*0
              6967            ),3 KPP(0:1)BIT(18)INIT('0'B*0),2 AGE SBIN INIT
              6968    1   (0),2 BFR(0:4),3 BUFUP BIT(1)INIT('0'B*0),3 SCRUB BIT(1)INIT('0'B*0),3 CHNG BIT(1)
              6968            INIT('0'B*0),3 CVM BIT(1)INIT('0'B*0),3 BUFX UBIN
              6969    1   (5)UNAL INIT(0*0),3 DA UBIN(27)UNAL INIT(0*0),2 BFR1(0:4)ALIGNED,3 FLAGS,4
              6969            ONE_WORD_HEADER BIT(1)INIT('0'B*0),4 * BIT(8)INIT
              6970    1   ('0'B*0),3 SIZ UBIN(9)UNAL INIT(0*0),3 CX UBIN(18)UNAL INIT(0*0),2 FEPIO2(0:3)UBIN
              6970            ALIGNED,2 FEPIO3(0:3)UBIN ALIGNED,2 * SBIN INIT
              6971    1   (29127),2 DCBNAME DALIGNED,3 X UBIN(3)UNAL,3 S BIT(1),3 L UBIN(5)UNAL,3 N CHAR(M$LO.
              6971            DCBNAME.L);
      174     6973    1   DCL M$DO DCB;
      175     6974         %EQU HIDCB=20;
      176     6975         %ENDIF;
      177     6976         %DCBPTR;
              6977    1   DCL Z8PS$M$OU$ PTR SYMREF;
              6978    1   DCL Z8PS$M$LO$ PTR SYMREF;
              6979    1   DCL Z8PS$M$DO$ PTR SYMREF;
              6980    1   DCL Z8PS$M$SO$ PTR SYMREF;
              6981    1   DCL Z8PS$M$OU# UBIN SYMREF;
              6982    1   DCL Z8PS$M$LO# UBIN SYMREF;
              6983    1   DCL Z8PS$M$DO# UBIN SYMREF;
              6984    1   DCL Z8PS$M$SO# UBIN SYMREF;
      178     6986         %PAGE(ARG=DCBADDR ARRAY);
              6987        %LSET LISTDIR='0'B;

              6999    1   /*******************************************************************************
              7000    1   *                                                                              *
              7001    1   *        DCBADDR ARRAY              DCBADDR ARRAY                                  *
              7002    1   *                                                                              *
              7003    1   *******************************************************************************/

PL6.E3A0      #001=Z9P8$DCBS File=Z9P8.:Z8A6TSI                                  SAT 08/09/97 09:46 Page:27
      179     7007         %DCB$ADDR(STCLASS=STATIC SYMDEF);
              7008        %LSET LISTDIR='0'B;
              7013        %IF '1'B;
              7015        %ELSE;
              7016 C      %LSET INIT=CHARTEXT('/*');
              7017        %ENDIF;
              7018    1   DCL 1 ZV1$DCB STATIC SYMDEF ALIGNED,
              7019    1         2 N UBIN(36) INIT(20)/**/,
              7020    1         2 ADDR$(0:20) PTR INIT(ADDR(NIL)*21)/**/;
      180     7022         %IF '0'B;
      181     7023 C       %PAGE(ARG=WIRE DCBS,PAGE=YES);
      182     7024 C      DCL ZVZ$CALDMM ENTRY(1);
      183     7025 C       %P_CALDMM(NAME=WIRE_DCB);
      184     7026         %ENDIF;
      185     7027         %PAGE(ARG=INITIALIZE DCB POINTERS,PAGE=YES);
              7028        %LSET LISTDIR='0'B;

PL6.E3A0      #001=Z9P8$DCBS File=Z9P8.:Z8A6TSI                                  SAT 08/09/97 09:46 Page:28
              7040    1   /*******************************************************************************
              7041    1   *                                                                              *
              7042    1   *        INITIALIZE DCB POINTERS              INITIALIZE DCB POINTERS              *
              7043    1   *                                                                              *
              7044    1   *******************************************************************************/

      186     7048         %INIT$DCB(DCBN=M$OU,FCG=Z8PS);
              7049    1    Z8PS$M$OU#=DCBNUM(M$OU);
              7050    1    Z8PS$M$OU$=DCBADDR(DCBNUM(M$OU));
              7051    1   ZV1$DCB.ADDR$(DCBNUM(M$OU))=DCBADDR(DCBNUM(M$OU));
      187     7053         %INIT$DCB(DCBN=M$LO,FCG=Z8PS);
              7054    1    Z8PS$M$LO#=DCBNUM(M$LO);
              7055    1    Z8PS$M$LO$=DCBADDR(DCBNUM(M$LO));
              7056    1   ZV1$DCB.ADDR$(DCBNUM(M$LO))=DCBADDR(DCBNUM(M$LO));
      188     7058         %INIT$DCB(DCBN=M$DO,FCG=Z8PS);
              7059    1    Z8PS$M$DO#=DCBNUM(M$DO);
              7060    1    Z8PS$M$DO$=DCBADDR(DCBNUM(M$DO));
              7061    1   ZV1$DCB.ADDR$(DCBNUM(M$DO))=DCBADDR(DCBNUM(M$DO));
      189     7063         %IF '1'B;
      190     7064         %INIT$DCB(DCBN=M$SO,FCG=Z8PS);
              7065    1    Z8PS$M$SO#=DCBNUM(M$SO);
              7066    1    Z8PS$M$SO$=DCBADDR(DCBNUM(M$SO));
              7067    1   ZV1$DCB.ADDR$(DCBNUM(M$SO))=DCBADDR(DCBNUM(M$SO));
      191     7069         %ENDIF;
      192     7070         %IF '0'B;
      193     7071 C       %INIT$DCB(DCBN=M$SO,FCG=ZVU);
      194     7072 C       %INIT$DCB(DCBN=M$SI,FCG=ZVU);
      195     7073 C       %INIT$DCB(DCBN=M$UI,FCG=ZVU);
      196     7074 C       %INIT$DCB(DCBN=M$OPTION,FCG=Z8PS);
      197     7075 C       %INIT$DCB(DCBN=M$ER,FCG=ZVM);
      198     7076 C       %INIT$DCB(DCBN=M$UM,FCG=ZVU);
      199     7077 C       %INIT$DCB(DCBN=M$UP,FCG=ZVU);
      200     7078 C       %INIT$DCB(DCBN=M$INCLUDE,FCG=ZVU);
      201     7079 C       %INIT$DCB(DCBN=M$UO,FCG=ZVU);
      202     7080 C       %INIT$DCB(DCBN=M$DEBUGO,FCG=ZWI);
      203     7081 C       %INIT$DCB(DCBN=M$DF,FCG=ZWI);
      204     7082         %ENDIF;
PL6.E3A0      #001=Z9P8$DCBS File=Z9P8.:Z8A6TSI                                  SAT 08/09/97 09:46 Page:29
      205     7083    1   RETURN;
      206     7084    1   END Z9P8$DCBS;

PL6.E3A0      #001=Z9P8$DCBS File=Z9P8.:Z8A6TSI                                  SAT 08/09/97 09:46 Page:30
--  Include file information  --

   Z9P_IO_EXT.:Z8A6TOU  cannot be made into a system file and is referenced.
   CP_6_SUBS.:LIB_E04  is referenced.
   CP_6_C.:LIB_E04  is referenced.
   CP_6.:LIB_E04  cannot be made into a system file and is referenced.
   Z9A_FLAGS.:Z8A6TOU  is referenced.
   Z8A_SYS_FILE.:Z8A6TOU  is referenced.
      No diagnostics issued in procedure Z9P8$DCBS.

   Procedure Z9P8$DCBS requires 49 words for executable code.
   Procedure Z9P8$DCBS requires 6 words of local(AUTO) storage.

    No errors detected in file Z9P8.:Z8A6TSI    .

PL6.E3A0      #001=Z9P8$DCBS File=Z9P8.:Z8A6TSI                                  SAT 08/09/97 09:46 Page:31

 Object Unit name= Z9P8$DCBS                                  File name= Z9P8.:Z8A6TOU
 UTS= AUG 09 '97 09:46:16.24 SAT                              Compiler= PL-6/E31         Sev=      00
 SharedLib= :SHARED_SYSTEM                                    Alt SharedLib=


    ****  Control sections  ****

 Sect   Type Bound  Init  Size OctSiz  Section name(segment info)
    0   DCB   even  none     0      0  M$UC
    1  LblCom even  none     1      1  OUT_DCBN
    2  LblCom even  none     1      1  SAVE_OUT_DCBN
    3  LblCom even  none     1      1  SAVE_DCBN2
    4   DCB   even  none     0      0  F$OU
    5   DCB   even  none     0      0  F$SO
    6   DCB   even  none     0      0  F$LO
    7   DCB   even  none     0      0  F$SI
    8   DCB   even  none     0      0  F$UI
    9   DCB   even  none     0      0  F$DO
   10   DCB   even  none    98    142  M$SI
   11   DCB   even  none    98    142  M$UI
   12   DCB   even  none    98    142  M$SO
   13   DCB   even  none    98    142  M$OU
   14   DCB   even  none    98    142  M$LO
   15   DCB   even  none     0      0  M$DO
   16   Data  even  none    22     26  Z9P8$DCBS
   17   Proc  even  none    49     61  Z9P8$DCBS
   18  RoData even  none     1      1  Z9P8$DCBS

    ****  Entry defs  ****

                              Check   Calling
                             calling  sequence
  Sect OctLoc Primary Altret sequence   type   Parms  Name
    17      0   yes            yes      Std        0  Z9P8$DCBS
PL6.E3A0      #001=Z9P8$DCBS File=Z9P8.:Z8A6TSI                                  SAT 08/09/97 09:46 Page:32

  ****  Data defs  ****

 Sect OctLoc  Name                           Sect OctLoc  Name
   16      0  ZV1$DCB

  ****  Entry refs  ****

         Check        Calling
        calling       sequence
Altret sequence SRef   type   Args  Name
                       nStd      0 X66_AUTO_0
                       nStd      0 X66_ARET

  ****  Data refs  ****

  Flags:  r = read only, s = secondary
Flgs Name                             Flgs Name                             Flgs Name
     M$UC                                  F$OU                                  F$SO
     F$LO                                  F$SI                                  F$UI
     F$DO                                  M$SI                                  M$UI
     M$SO                                  M$OU                                  M$LO
     M$DO                                  Z8PS$M$OU$                            Z8PS$M$LO$
     Z8PS$M$DO$                            Z8PS$M$SO$                            Z8PS$M$OU#
     Z8PS$M$LO#                            Z8PS$M$DO#                            Z8PS$M$SO#

  ****  Segment refs  ****

  Flags:  r = read only, s = secondary
Flgs Name                             Flgs Name                             Flgs Name
     NULLSID                               ROSID
PL6.E3A0      #001=Z9P8$DCBS File=Z9P8.:Z8A6TSI                                  SAT 08/09/97 09:46 Page:33


        1        1         /*M* Z9P8$DCBS -- Definition and initialization of DCBs */
        2        2        /*T***********************************************************/
        3        3        /*T*                                                         */
        4        4        /*T* Copyright (c) Bull HN Information Systems Inc., 1997    */
        5        5        /*T*                                                         */
        6        6        /*T***********************************************************/
        7        7         /*X*   MCL=5,MOC,CLM=40,CRM=80,CCC,
        8        8                PLM=0,IND=3,SDI=2,CTI=6,AND,DCI=6,CSU=3,ECU=3,THI=6,STI=3 */
        9        9         /*P*   NAME:           Z9P8$DCBS
       10       10                PURPOSE:        Definition of DCBs and DCB pointers used by the
       11       11                                COBOL-8X Pseudocode Assembler.
       12       12                DESCRIPTION:    Invokes the %M$DCB macro to define a DCB for each
       13       13                                file used by the PCA. Initializes the DCB pointer
       14       14                                and number for each one.
       15       15                                                                                 */
       16       16         /*D*   NAME:           Z9P8$DCBS
       17       17                CALL:
       18       18                                CALL Z9P8$DCBS;
       19       19                                     (Called only by Z9P1$INIT)
       20       20                INTERFACE:      None.
       21       21                INPUT:          None.
       22       22                OUTPUT:         Sets Z9P8$XXXX# to n
       23       23                                Sets Z9P8$XXXX$ to ADDR(XXXX)
       24       24                                Sets Z9P1$DCB.ADDR$(n) to ADDR(XXXX),
       25       25                                          where XXXX is the DCB name
       26       26                                          and n is the number.
       27       27                DESCRIPTION:    Invokes %INIT$DCB macro to initialize.
       28       28                                                                                 */
       29       29         %EJECT;
PL6.E3A0      #001=Z9P8$DCBS File=Z9P8.:Z8A6TSI                                  SAT 08/09/97 09:46 Page:34
       30       30        Z9P8$DCBS:PROC;

     30 17 000000   000000 700200 xent  Z9P8$DCBS    TSX0  ! X66_AUTO_0
        17 000001   000006 000000                    ZERO    6,0

       31       31
       32       32         %SET LISTSUB='1'B;
       33       33         %SET LISTEXP='1'B;
       34       34         %SET LISTMAC='1'B;
       35       35         %RESUB M$OU=F$OU;
       36       36         %RESUB M$SO=F$SO;
       37       37         %RESUB M$LO=F$LO;
       38       38         %RESUB M$SI=F$SI;
       39       39         %RESUB M$UI=F$UI;
       40       40         %RESUB M$DO=F$DO;
       41       41         %INCLUDE Z8A_SYS_FILE;
       42     6316         %INCLUDE Z9P_IO_EXT;
       43     6377         %RESUB M$OU=M$OU;
       44     6378         %RESUB M$SO=M$SO;
       45     6379         %RESUB M$LO=M$LO;
       46     6380         %RESUB M$SI=M$SI;
       47     6381         %RESUB M$UI=M$UI;
       48     6382         %RESUB M$DO=M$DO;
       49     6383         %IF '0'B;
       50     6384 C       %PAGE(ARG=M$SI,PAGE=YES);
       51     6385 C       %M$DCB(DCBN=M$SI,
       52     6386 C             FC='S*',
       53     6387 C             BLKL=1280);
       54     6388 C       %PAGE(ARG=M$UI,PAGE=YES);
       55     6389 C       %M$DCB(DCBN=M$UI,
       56     6390 C             FC='A*',
       57     6391 C             BLKL=1280);
       58     6392 C       %PAGE(ARG=M$SO,PAGE=YES);
       59     6393 C       %M$DCB(DCBN=M$SO,
       60     6394 C             FC='K*',
       61     6395 C             FUN=CREATE,
       62     6396 C             XTNSIZE=12,
PL6.E3A0      #001=Z9P8$DCBS File=Z9P8.:Z8A6TSI                                  SAT 08/09/97 09:46 Page:35
       63     6397 C             BLKL=1280);
       64     6398 C       %PAGE(ARG=M$OU,PAGE=YES);
       65     6399 C       %M$DCB(DCBN=M$OU,
       66     6400 C             FC='*S',
       67     6401 C             ACS=SEQUEN,
       68     6402 C             FUN=CREATE,
       69     6403 C             ORG=CONSEC,
       70     6404 C             IXTNSIZE=12,
       71     6405 C             XTNSIZE=12,
       72     6406 C             BLKL=1280);
       73     6407 C       %PAGE(ARG=M$LO,PAGE=YES);
       74     6408 C       %M$DCB(DCBN=M$LO,
       75     6409 C             FC='P*',
       76     6410 C             ORG=CONSEC,
       77     6411 C             ACS=SEQUEN,
       78     6412 C             MEDIA=PRINT,
       79     6413 C             FUN=CREATE,
       80     6414 C             XTNSIZE=12,
       81     6415 C             IXTNSIZE=60,
       82     6416 C             BLKL=1280);
       83     6417 C       %PAGE(ARG=M$DO,PAGE=YES);
       84     6418 C       %M$DCB(DCBN=M$DO,
       85     6419 C             FC='DO',
       86     6420 C             ORG=CONSEC,
       87     6421 C             ACS=SEQUEN,
       88     6422 C             MEDIA=PRINT,
       89     6423 C             FUN=CREATE,
       90     6424 C             REPORT=59,
       91     6425 C             XTNSIZE=12,
       92     6426 C             BLKL=1280);
       93     6427 C       %PAGE(ARG=M$OPTION,PAGE=YES);
       94     6428 C       %M$DCB(DCBN=M$OPTION,
       95     6429 C             FC='D*',
       96     6430 C             BLKL=1280);
       97     6431 C       %PAGE(ARG=M$ER,PAGE=YES);
       98     6432 C       %M$DCB(DCBN=M$ER,
       99     6433 C             FC="'E,'",
PL6.E3A0      #001=Z9P8$DCBS File=Z9P8.:Z8A6TSI                                  SAT 08/09/97 09:46 Page:36
      100     6434 C             BLKL=1280);
      101     6435 C       %PAGE(ARG=M$DEBUGO,PAGE=YES);
      102     6436 C       %M$DCB(DCBN=M$DEBUGO,
      103     6437 C             FC='*5',
      104     6438 C             BLKL=1280);
      105     6439 C       %PAGE(ARG=M$DF,PAGE=YES);
      106     6440 C       %M$DCB(DCBN=M$DF,FC='*6',ORG=KEYED,ACS=DIRECT,FUN=CREATE,BLKL=4096);
      107     6441 C       %PAGE(ARG=M$UM,PAGE=YES);
      108     6442 C       %M$DCB(DCBN=M$UM,
      109     6443 C             FC='*1',
      110     6444 C             ACS=DIRECT,
      111     6445 C             ORG=KEYED,
      112     6446 C             FUN=CREATE,
      113     6447 C             IXTNSIZE=12,
      114     6448 C             XTNSIZE=12,
      115     6449 C             BLKL=4096);
      116     6450 C       %PAGE(ARG=M$UP,PAGE=YES);
      117     6451 C       %M$DCB(DCBN=M$UP,
      118     6452 C             FC='A$',
      119     6453 C             ACS=SEQUEN,
      120     6454 C             ORG=CONSEC,
      121     6455 C             BLKL=1280);
      122     6456 C       %PAGE(ARG=M$INCLUDE,PAGE=YES);
      123     6457 C       %M$DCB(DCBN=M$INCLUDE,
      124     6458 C             FC="',0'",
      125     6459 C             FUN=IN,
      126     6460 C             ACS=SEQUEN,
      127     6461 C             ORG=CONSEC,
      128     6462 C             BLKL=1280);
      129     6463 C       %PAGE(ARG=M$UO,PAGE=YES);
      130     6464 C       %M$DCB(DCBN=M$UO,
      131     6465 C             FC='*A',
      132     6466 C             FUN=CREATE,
      133     6467 C             ACS=SEQUEN,
      134     6468 C             ORG=CONSEC,
      135     6469 C             BLKL=1280);
      136     6470         %ENDIF;
PL6.E3A0      #001=Z9P8$DCBS File=Z9P8.:Z8A6TSI                                  SAT 08/09/97 09:46 Page:37
      137     6471         %IF '1'B;
      138     6472         %MACRO INIT$DCB(DCBN=,FCG=);
      139     6473         %CHARTEXT(CONCAT(TEXTCHAR(%FCG),'$',TEXTCHAR(%DCBN),'#'))=DCBNUM(DCBN);
      140     6474         %CHARTEXT(CONCAT(TEXTCHAR(%FCG),'$',TEXTCHAR(%DCBN),'$'))=DCBADDR(DCBNUM(DCBN));
      141     6475        ZV1$DCB.ADDR$(DCBNUM(DCBN))=DCBADDR(DCBNUM(DCBN));
      142     6476         %MEND;
      143     6477        %PAGE(ARG=M$SI);
              6478        %LSET LISTDIR='0'B;

              6490    1   /*******************************************************************************
              6491    1   *                                                                              *
              6492    1   *        M$SI              M$SI                                                  *
              6493    1   *                                                                              *
              6494    1   *******************************************************************************/

      144     6498        %M$DCB(DCBN=M$SI,
      145     6499        ASN=DEVICE,
      146     6500        RES='SI',
      147     6501        FUN=IN,
      148     6502        ACS=SEQUEN);
              6503    1  DCL 1 M$SI DCB,2 ARS# SBIN INIT(0),2 FLPW# REDEF ARS# BIT(36),2 * UBIN INIT(0),2 TYC
              6503            ,3 EGV# BIT(1)INIT('0'B*0),3 OPER# BIT(1)
              6504    1   INIT('0'B*0),3 EOT# BIT(1)INIT('0'B*0),3 BOT# BIT(1)INIT('0'B*0),3 BOF# BIT(1)INIT(
              6504            '0'B*0),3 BLNKTP# BIT(1)INIT('0'B*0),3 EOF# BIT
              6505    1   (1)INIT('0'B*0),3 LD# BIT(1)INIT('0'B*0),3 IOERR# BIT(1)INIT('0'B*0),3 DI# BIT(1)
              6505            INIT('0'B*0),3 EOD# BIT(1)INIT('0'B*0),3 MTRAP# BIT
              6506    1  (1)INIT('0'B*0),3 LDISC# BIT(1)INIT('0'B*0),3 DACT# BIT(1)INIT('0'B*0),3 TIMO# BIT(1
              6506            )INIT('0'B*0),3 PROT# BIT(1)INIT('0'B*0),3 FRAW#
              6507    1   BIT(1)INIT('0'B*0),3 LAST# BIT(1)INIT('0'B*0),3 CDALRT# BIT(1)INIT('0'B*0),3 XTRARD
              6507            BIT(1)INIT('0'B*0),3 CGKEYV BIT(1)INIT('0'B*0),3
              6508    1   CGLWRV BIT(1)INIT('0'B*0),3 CGFULL BIT(1)INIT('0'B*0),3 CGCRCW BIT(1)INIT('0'B*0),3
              6508            CGCWRV BIT(1)INIT('0'B*0),3 * BIT(11)INIT
              6509    1   ('0'B*0),2 DVBYTE,3 TOP# BIT(1)INIT('0'B),3 * BIT(1)INIT('0'B),3 VFC# BIT(1)INIT(
              6509            '0'B),3 BIN# BIT(1)INIT('0'B),3 TRANS# BIT(1)INIT
              6510    1   ('0'B),3 * BIT(3)INIT('0'B),2 BUPF BIT(1)INIT('0'B),2 RDL0# UBIN(9)UNAL INIT(0),2
              6510            SLIDE# UBIN(9)UNAL INIT(0),2 EOMCHAR# CHAR(1)INIT
              6511    1  (BITASC('501'O)),2 EOMVAL# REDEF EOMCHAR# UNAL,3 VFLG# BIT(1),3 VALUE# UBIN(8)UNAL,2
PL6.E3A0      #001=Z9P8$DCBS File=Z9P8.:Z8A6TSI                                  SAT 08/09/97 09:46 Page:38
              6511            FFLG,3 READ# BIT(1)INIT('0'B),3 DELR# BIT(1)
              6512    1  INIT('0'B),3 WNEW# BIT(1)INIT('0'B),3 UPD# BIT(1)INIT('0'B),3 DELF# BIT(1)INIT('0'B)
              6512            ,3 NOLIST# BIT(1)INIT('0'B),3 REATTR# BIT(1)INIT
              6513    1   ('0'B),3 EXEC# BIT(1)INIT('0'B),3 CREATE# BIT(1)INIT('0'B),3 AU# BIT(1)INIT('0'B),3
              6513            AURD# BIT(1)INIT('0'B),3 TCTL# BIT(1)INIT('0'B),
              6514    1  3 * BIT(6)INIT('0'B),2 DDEV,3 LP# BIT(1)INIT('0'B),3 CP# BIT(1)INIT('0'B),3 IC# BIT(
              6514            1)INIT('0'B),3 XEQ# BIT(1)INIT('0'B),3 UCOUT#
              6515    1   BIT(1)INIT('0'B),3 GR# BIT(1)INIT('0'B),3 * BIT(3)INIT('0'B),2 WIDTH# UBIN(9)UNAL
              6515            INIT(0),2 RETRYCNT# UBIN(18)HALIGNED INIT(0),2
              6516    1   DESC,3 DELF# BIT(1)INIT('0'B),3 NOLIST# BIT(1)INIT('0'B),3 BUF# BIT(1)INIT('0'B),3
              6516            ODSTOW# BIT(1)INIT('0'B),3 BAD# BIT(1)INIT('0'B),
              6517    1  3 QS# BIT(1)INIT('0'B),3 * BIT(2)INIT('0'B),3 ARCHIVE# BIT(1)INIT('0'B),3 BUPM# BIT(
              6517            1)INIT('0'B),3 NBUF# BIT(1)INIT('0'B),3 ACTIVE#
              6518    1  BIT(1)INIT('0'B),3 TPB# BIT(1)INIT('0'B),3 TERMINATE# BIT(1)INIT('0'B),3 FETCH# BIT(
              6518            1)INIT('0'B),3 * BIT(3)INIT('0'B),2 SETSTA$ PTR
              6519    1  INIT(ADDR(NIL)),2 LASTSTA$ PTR INIT(ADDR(NIL)),2 TDEXTST$ REDEF LASTSTA$ PTR,2 NAME#
              6519            ,3 L UBIN(9)UNAL INIT(SIZEC(' ')),3 C CHAR(31)
              6520    1   INIT(' '),3 C17 REDEF C UNAL,4 CC CHAR(17),4 * CHAR(14),2 ACCT# CHAR(8)INIT(' '),2
              6520            PASS# CHAR(8)INIT(' '),2 PSN# CHAR(6)INIT
              6521    1   (' '),2 TYPE# CHAR(2)INIT(' '),2 RES# CHAR(4)INIT('SI'),2 RESNT REDEF RES# UNAL,3
              6521            TYP CHAR(2),3 NUM CHAR(2),2 WSN# CHAR(8)ALIGNED
              6522    1   INIT(' '),2 TDSTAT# REDEF WSN# BIT(72),2 IGNOREFSN# BIT(1)INIT('0'B),2 AU# BIT(1)
              6522            INIT('0'B),2 QISS# BIT(1)INIT('0'B),2 LOAD# BIT
              6523    1  (1)INIT('0'B),2 IOERROK# BIT(1)INIT('0'B),2 AMRSETSTA BIT(1)INIT('0'B),2 LSTAOR# BIT
              6523            (1)INIT('0'B),2 VOLACCESS# UBIN(2)UNAL INIT
              6524    1   (0),2 UOPT#(0:8)BIT(1)INIT('0'B,'0'B,'0'B,'0'B,'0'B,'0'B,'0'B,'0'B,'0'B),2 PASSF#
              6524            BIT(1)INIT('0'B),2 CNVRT# BIT(1)
              6525    1  INIT('1'B),2 EBCDIC# BIT(1)INIT('0'B),2 FCI# BIT(1)INIT('0'B),2 FCD# BIT(1)INIT('0'B
              6525            ),2 AMR# BIT(1)INIT('0'B),2 CTG# BIT(1)INIT
              6526    1  ('0'B),2 EXIST# UBIN(2)UNAL INIT(3),2 SHARE# UBIN(2)UNAL INIT(0),2 COMP# BIT(1)INIT(
              6526            '0'B),2 XTEND# BIT(1)INIT('0'B),2 CVOL#
              6527    1  BIT(1)INIT('0'B),2 BLOCKED# BIT(1)INIT('1'B),2 SPANNED# BIT(1)INIT('1'B),2 BUPM# BIT
              6527            (2)INIT('01'B),2 ORG# UBIN(9)UNAL INIT
              6528    1   (0),2 DVTYPE# REDEF ORG# UBIN(9)UNAL,2 FUN# UBIN(9)UNAL INIT(2),2 ASN# UBIN(9)UNAL
              6528            INIT(3),2 DISP# UBIN(9)UNAL INIT(0),2
              6529    1  BLKL# UBIN(18)UNAL INIT(0),2 RECL# UBIN(18)UNAL INIT(0),2 FSN# UBIN(18)UNAL INIT(0),
              6529            2 DBGDCBNO# REDEF FSN# UBIN(18)UNAL,2
PL6.E3A0      #001=Z9P8$DCBS File=Z9P8.:Z8A6TSI                                  SAT 08/09/97 09:46 Page:39
              6530    1   DBGSYSID# REDEF FSN# UBIN(18)UNAL,2 SYSID# REDEF FSN# UBIN(18)UNAL,2 FEXTX UBIN(9)
              6530            UNAL INIT(0),2 BOL# UBIN(9)UNAL INIT(0),2 EXPIRE#
              6531    1  SBIN INIT(0),2 KEYX# UBIN(18)UNAL INIT(0),2 KEYL# UBIN(9)UNAL INIT(0),2 ACS# UBIN(9)
              6531            UNAL INIT(1),2 XTNSIZE# UBIN(18)
              6532    1   UNAL INIT(2),2 LSLIDE# UBIN(9)UNAL INIT(510),2 LRDL0# UBIN(9)UNAL INIT(3),2 SPARE#
              6532            UBIN(9)UNAL INIT(1),2 WSR# UBIN
              6533    1  (9)UNAL INIT(0),2 ATTR# BIT(18) INIT('0'B)/* '0'B */,2 ATTR REDEF ATTR#,3 DENS# BIT(
              6533            9),3
              6534    1  GRLGL# BIT(1),3 TRANSLGL# BIT(1),3 NOXLATE# BIT(1),3 UPPERCASE# BIT(1),3 NATL# BIT(1
              6534            ),3 TRUOVRPRT# BIT(1),3 APL# BIT(1),3 BIN# BIT
              6535    1   (1),3 LOWERCASE# BIT(1),2 TDFLG REDEF ATTR#/*'0'B */,3 SDSK# BIT(1),3 * BIT(17),2
              6535            IXTNSIZE# SBIN WORD INIT
              6536    1   (2),2 CONNCT# REDEF IXTNSIZE# SBIN,2 NRECS# SBIN INIT(0),2 CHANTIME# REDEF NRECS#
              6536            SBIN,2 VOL# UBIN(9)UNAL INIT(0),2
              6537    1  MAXVOL# UBIN(9)UNAL INIT(0),2 CHAIN# UBIN(9)UNAL INIT(0),2 DENSITY# UBIN(9)UNAL INIT
              6537            (0),2 LINES# UBIN(18)UNAL INIT
              6538    1   (0),2 DVFC# CHAR(1)INIT(BINASC(0)),2 SEQ# BIT(1)INIT('0'B),2 SEQCOL# UBIN(8)UNAL
              6538            INIT(73),2 SEQID# CHAR(4)INIT(' '),2 HEADER$
              6539    1  PTR INIT(ADDR(NIL)),2 DQH$ REDEF HEADER$ PTR,2 TAB$ PTR INIT(ADDR(NIL)),2 DCT$ REDEF
              6539            TAB$ PTR,2 FORM$ PTR INIT(ADDR(NIL)),2 MPC$
              6540    1   REDEF FORM$ PTR,2 LDCTX UBIN(18)UNAL INIT(0),2 SETX UBIN(18)UNAL INIT(0),2 DEVADR
              6540            REDEF SETX,3 DVN# UBIN(6)UNAL,3 IOM# UBIN(3)UNAL,3
              6541    1  CHAN# UBIN(9)CALIGNED,2 * BIT(9)CALIGNED INIT('0'B),2 JRNLBYPASS# BIT(1)INIT('0'B),2
              6541            * BIT(4)INIT('0'B),2 GHSTACS# UBIN(4)INIT
              6542    1   (0)UNAL,2 ALTKEYX UBIN(18)UNAL INIT(0),2 CODE16$ PTR INIT(ADDR(NIL)),2 FPRGX UBIN
              6542            HALF HALIGNED INIT(0),2 FIELDX UBIN HALF
              6543    1   HALIGNED INIT(0),2 EVENT SBIN INIT(0),2 VFCCHAR# CHAR(1)CALIGNED INIT(BINASC(0)),2
              6543            KEYTYPE# UBIN(9)CALIGNED INIT(0),2 KFIELDX
              6544    1  UBIN(18)HALIGNED INIT(0),2 STARTX UBIN(18)HALIGNED INIT(0),2 ACTPOS UBIN(18)HALIGNED
              6544            INIT(0),2 AUTHFFLG REDEF ACTPOS,3 READ# BIT(1),
              6545    1   3 DELR# BIT(1),3 WNEW# BIT(1),3 UPD# BIT(1),3 DELF# BIT(1),3 NOLIST# BIT(1),3
              6545            REATTR# BIT(1),3 EXEC# BIT(1),3 CREATE# BIT(1),3 AU#
              6546    1   BIT(1),3 AURD# BIT(1),3 TCTL# BIT(1),3 * BIT(6),2 DCB# UBIN(9)CALIGNED INIT(0),2 *
              6546            BIT(14)INIT('0'B),2 ANSISPANSEQ# BIT(1)INIT
              6547    1   ('1'B),2 PATH,3 IOM# UBIN(3)UNAL INIT(0),3 CHAN# UBIN(9)UNAL INIT(0),2 IRRECX UBIN(
              6547            18)HALIGNED INIT(0),2 FLDID UBIN(18)
              6548    1   HALIGNED INIT(0),2 BADARS# REDEF FLDID UBIN(18)HALIGNED,2 SEED# BIT(36)INIT('0'B),2
PL6.E3A0      #001=Z9P8$DCBS File=Z9P8.:Z8A6TSI                                  SAT 08/09/97 09:46 Page:40
              6548            * UBIN INIT(0),2 FEXT BIT(1)INIT('0'B),2 STARF
              6549    1   BIT(1)INIT('0'B),2 SHARED BIT(1)INIT('0'B),2 FMOD BIT(1)INIT('0'B),2 GTYP UBIN(3)
              6549            UNAL INIT(0),2 EOP UBIN(2)UNAL INIT(0),2 AMFLG,3
              6550    1   ACCF BIT(1)INIT('0'B),3 ACSF BIT(1)INIT('0'B),3 INSF BIT(1)INIT('0'B),3 USRF BIT(1)
              6550            INIT('0'B),3 SNLF BIT(1)INIT('0'B),3 PROF BIT(1)
              6551    1  INIT('0'B),2 SEZ_OK BIT(1)INIT('0'B),2 MUST_CVOL BIT(1)INIT('0'B),2 NEW_FSECT BIT(1)
              6551            INIT('0'B),2 NOEOF BIT(1)INIT('0'B),2 MOUNT
              6552    1   REDEF NOEOF BIT(1),2 OHDR BIT(1)INIT('0'B),2 LDFLG REDEF OHDR BIT(1),2 SPAN BIT(1)
              6552            INIT('0'B),2 OWNER BIT(1)INIT('0'B),2 RA BIT(1)
              6553    1   INIT('0'B),2 RPOS BIT(1)INIT('0'B),2 STARX UBIN(3)UNAL INIT(0),2 CACHE BIT(1)INIT(
              6553            '0'B),2 ENQF BIT(1)INIT('0'B),2 GRPOS BIT(1)INIT
              6554    1  ('0'B),2 CONT BIT(1)INIT('0'B),2 WAIT UBIN(1)UNAL INIT(1),2 TRNC UBIN(2)UNAL INIT(0)
              6554            ,2 AFTRBLK BIT(1)INIT('0'B),2 LSTBLK BIT(1)INIT
              6555    1  ('0'B),2 BORROW SBIN INIT(0),2 LASTKEY$ REDEF BORROW PTR,2 LASTKEY REDEF BORROW SBIN
              6555            ,2 FTAM REDEF BORROW,3 CTX UBIN HALF UNAL,3 USR
              6556    1   UBIN BYTE UNAL,3 PMME UBIN(9)UNAL,2 CFU$ PTR INIT(ADDR(NIL)),2 TDALVL UBIN(3)UNAL
              6556            INIT(0),2 LVL UBIN(3)UNAL INIT(0),2 LPOOL REDEF
              6557    1   LVL UBIN(3)UNAL,2 WRCMP BIT(1)INIT('0'B),2 WCDATA BIT(1)INIT('0'B),2 UCOUT BIT(1)
              6557            INIT('0'B),2 TAPTYP,3 RWASC BIT(1)INIT('0'B),3 CP6F
              6558    1   BIT(1)INIT('0'B),3 USRBUF BIT(1)INIT('0'B),3 HAVLASTKEY BIT(1)INIT('0'B),3 NOCVOL
              6558            BIT(1)INIT('0'B),3 MANAGED BIT(1)INIT('0'B),3
              6559    1   PASTFM BIT(1)INIT('0'B),3 * BIT(2)INIT('0'B),2 CRECX UBIN(18)UNAL INIT(0),2 CBUFNUM
              6559            UBIN(3)UNAL INIT(0),2 IORG UBIN(6)UNAL INIT(0),2
              6560    1   TDA UBIN(27)UNAL INIT(0),2 BYTESLEFT REDEF TDA UBIN(27)UNAL,2 CRECNO SBIN INIT(0),2
              6560            PRECNO SBIN INIT(0),2 CSEED REDEF PRECNO SBIN,2
              6561    1  HASH UBIN(27)UNAL INIT(0),2 FDCM UBIN(9)UNAL INIT(0),2 FCN(0:1),3 F BIT(1)INIT('0'B,
              6561            '0'B),3 CNT UBIN(8)UNAL INIT(0,0),2 BLKLEN UBIN
              6562    1   (18)UNAL INIT(0),2 UB$ PTR INIT(ADDR(NIL)),2 UBYTES UBIN INIT(0),2 FSECT UBIN(18)
              6562            UNAL INIT(0),2 INDX REDEF FSECT UBIN(18)UNAL,2
              6563    1   FPSTR UBIN(9)UNAL INIT(0),2 STR# UBIN(9)UNAL INIT(0),2 NRECX UBIN(18)UNAL INIT(0),2
              6563            MODCNT REDEF NRECX UBIN(18)UNAL,2 SEGX UBIN(18)
              6564    1   UNAL INIT(0),2 GDISP UBIN INIT(0),2 LOGSEC BIT(1)INIT('0'B),2 PRIVOPN BIT(1)INIT(
              6564            '0'B),2 OLDIOERR UBIN(2)UNAL INIT(0),2 * BIT(21)
              6565    1   INIT('0'B),2 REALSPAN BIT(1),2 DECRYPT BIT(1)INIT('0'B),2 PGINGRAN UBIN BYTE UNAL
              6565            INIT(0),2 IFMT UBIN(9)UNAL INIT(0),2 MEDIA UBIN(9)
              6566    1  UNAL INIT(0),2 IWL,3 TABIWL BIT(1)INIT('0'B),3 SEQIWL BIT(1)INIT('0'B),3 HDRIWL BIT(
              6566            1)INIT('0'B),3 * BIT(3)INIT('0'B),2 CTLCMDIN BIT
PL6.E3A0      #001=Z9P8$DCBS File=Z9P8.:Z8A6TSI                                  SAT 08/09/97 09:46 Page:41
              6567    1   (1)INIT('0'B),2 UNIQUEBLD BIT(1)INIT('0'B),2 UPDCNT BIT(1)INIT('0'B),2 IASN UBIN(9)
              6567            UNAL INIT(0),2 MOVED SBIN(18)HALIGNED,2 * UBIN(9)
              6568    1   CALIGNED,2 CX UBIN(9)CALIGNED,2 CWORD CHAR(4)ALIGNED,2 RCSZ UBIN INIT(0),2 FEPSIZ
              6568            REDEF RCSZ,3 BUF UBIN HALF UNAL,3 KEY UBIN HALF
              6569    1  UNAL,2 ID ALIGNED,3 GX UBIN(10)UNAL,3 DA UBIN(26)UNAL,2 FEPIO,3 EVENT UBIN INIT(0),3
              6569            KEYX/* 0 */ UBIN
              6570    1  HALF HALIGNED INIT(0),3 BUFX UBIN HALF HALIGNED INIT(0),3 BPP(0:1)BIT(18)INIT('0'B*0
              6570            ),3 KPP(0:1)BIT(18)INIT('0'B*0),2 AGE SBIN INIT
              6571    1   (0),2 BFR(0:4),3 BUFUP BIT(1)INIT('0'B*0),3 SCRUB BIT(1)INIT('0'B*0),3 CHNG BIT(1)
              6571            INIT('0'B*0),3 CVM BIT(1)INIT('0'B*0),3 BUFX UBIN
              6572    1   (5)UNAL INIT(0*0),3 DA UBIN(27)UNAL INIT(0*0),2 BFR1(0:4)ALIGNED,3 FLAGS,4
              6572            ONE_WORD_HEADER BIT(1)INIT('0'B*0),4 * BIT(8)INIT
              6573    1   ('0'B*0),3 SIZ UBIN(9)UNAL INIT(0*0),3 CX UBIN(18)UNAL INIT(0*0),2 FEPIO2(0:3)UBIN
              6573            ALIGNED,2 FEPIO3(0:3)UBIN ALIGNED,2 * SBIN INIT
              6574    1  (29127),2 DCBNAME DALIGNED,3 X UBIN(3)UNAL,3 S BIT(1),3 L UBIN(5)UNAL,3 N CHAR(M$SI.
              6574            DCBNAME.L);
      149     6576        %PAGE(ARG=M$UI);
              6577        %LSET LISTDIR='0'B;

              6589    1   /*******************************************************************************
              6590    1   *                                                                              *
              6591    1   *        M$UI              M$UI                                                  *
              6592    1   *                                                                              *
              6593    1   *******************************************************************************/

      150     6597        %M$DCB(DCBN=M$UI,
      151     6598        ASN=DEVICE,
      152     6599        RES='NO',
      153     6600        FUN=IN,
      154     6601        ACS=SEQUEN);
              6602    1  DCL 1 M$UI DCB,2 ARS# SBIN INIT(0),2 FLPW# REDEF ARS# BIT(36),2 * UBIN INIT(0),2 TYC
              6602            ,3 EGV# BIT(1)INIT('0'B*0),3 OPER# BIT(1)
              6603    1   INIT('0'B*0),3 EOT# BIT(1)INIT('0'B*0),3 BOT# BIT(1)INIT('0'B*0),3 BOF# BIT(1)INIT(
              6603            '0'B*0),3 BLNKTP# BIT(1)INIT('0'B*0),3 EOF# BIT
              6604    1   (1)INIT('0'B*0),3 LD# BIT(1)INIT('0'B*0),3 IOERR# BIT(1)INIT('0'B*0),3 DI# BIT(1)
              6604            INIT('0'B*0),3 EOD# BIT(1)INIT('0'B*0),3 MTRAP# BIT
              6605    1  (1)INIT('0'B*0),3 LDISC# BIT(1)INIT('0'B*0),3 DACT# BIT(1)INIT('0'B*0),3 TIMO# BIT(1
PL6.E3A0      #001=Z9P8$DCBS File=Z9P8.:Z8A6TSI                                  SAT 08/09/97 09:46 Page:42
              6605            )INIT('0'B*0),3 PROT# BIT(1)INIT('0'B*0),3 FRAW#
              6606    1   BIT(1)INIT('0'B*0),3 LAST# BIT(1)INIT('0'B*0),3 CDALRT# BIT(1)INIT('0'B*0),3 XTRARD
              6606            BIT(1)INIT('0'B*0),3 CGKEYV BIT(1)INIT('0'B*0),3
              6607    1   CGLWRV BIT(1)INIT('0'B*0),3 CGFULL BIT(1)INIT('0'B*0),3 CGCRCW BIT(1)INIT('0'B*0),3
              6607            CGCWRV BIT(1)INIT('0'B*0),3 * BIT(11)INIT
              6608    1   ('0'B*0),2 DVBYTE,3 TOP# BIT(1)INIT('0'B),3 * BIT(1)INIT('0'B),3 VFC# BIT(1)INIT(
              6608            '0'B),3 BIN# BIT(1)INIT('0'B),3 TRANS# BIT(1)INIT
              6609    1   ('0'B),3 * BIT(3)INIT('0'B),2 BUPF BIT(1)INIT('0'B),2 RDL0# UBIN(9)UNAL INIT(0),2
              6609            SLIDE# UBIN(9)UNAL INIT(0),2 EOMCHAR# CHAR(1)INIT
              6610    1  (BITASC('501'O)),2 EOMVAL# REDEF EOMCHAR# UNAL,3 VFLG# BIT(1),3 VALUE# UBIN(8)UNAL,2
              6610            FFLG,3 READ# BIT(1)INIT('0'B),3 DELR# BIT(1)
              6611    1  INIT('0'B),3 WNEW# BIT(1)INIT('0'B),3 UPD# BIT(1)INIT('0'B),3 DELF# BIT(1)INIT('0'B)
              6611            ,3 NOLIST# BIT(1)INIT('0'B),3 REATTR# BIT(1)INIT
              6612    1   ('0'B),3 EXEC# BIT(1)INIT('0'B),3 CREATE# BIT(1)INIT('0'B),3 AU# BIT(1)INIT('0'B),3
              6612            AURD# BIT(1)INIT('0'B),3 TCTL# BIT(1)INIT('0'B),
              6613    1  3 * BIT(6)INIT('0'B),2 DDEV,3 LP# BIT(1)INIT('0'B),3 CP# BIT(1)INIT('0'B),3 IC# BIT(
              6613            1)INIT('0'B),3 XEQ# BIT(1)INIT('0'B),3 UCOUT#
              6614    1   BIT(1)INIT('0'B),3 GR# BIT(1)INIT('0'B),3 * BIT(3)INIT('0'B),2 WIDTH# UBIN(9)UNAL
              6614            INIT(0),2 RETRYCNT# UBIN(18)HALIGNED INIT(0),2
              6615    1   DESC,3 DELF# BIT(1)INIT('0'B),3 NOLIST# BIT(1)INIT('0'B),3 BUF# BIT(1)INIT('0'B),3
              6615            ODSTOW# BIT(1)INIT('0'B),3 BAD# BIT(1)INIT('0'B),
              6616    1  3 QS# BIT(1)INIT('0'B),3 * BIT(2)INIT('0'B),3 ARCHIVE# BIT(1)INIT('0'B),3 BUPM# BIT(
              6616            1)INIT('0'B),3 NBUF# BIT(1)INIT('0'B),3 ACTIVE#
              6617    1  BIT(1)INIT('0'B),3 TPB# BIT(1)INIT('0'B),3 TERMINATE# BIT(1)INIT('0'B),3 FETCH# BIT(
              6617            1)INIT('0'B),3 * BIT(3)INIT('0'B),2 SETSTA$ PTR
              6618    1  INIT(ADDR(NIL)),2 LASTSTA$ PTR INIT(ADDR(NIL)),2 TDEXTST$ REDEF LASTSTA$ PTR,2 NAME#
              6618            ,3 L UBIN(9)UNAL INIT(SIZEC(' ')),3 C CHAR(31)
              6619    1   INIT(' '),3 C17 REDEF C UNAL,4 CC CHAR(17),4 * CHAR(14),2 ACCT# CHAR(8)INIT(' '),2
              6619            PASS# CHAR(8)INIT(' '),2 PSN# CHAR(6)INIT
              6620    1   (' '),2 TYPE# CHAR(2)INIT(' '),2 RES# CHAR(4)INIT('NO'),2 RESNT REDEF RES# UNAL,3
              6620            TYP CHAR(2),3 NUM CHAR(2),2 WSN# CHAR(8)ALIGNED
              6621    1   INIT(' '),2 TDSTAT# REDEF WSN# BIT(72),2 IGNOREFSN# BIT(1)INIT('0'B),2 AU# BIT(1)
              6621            INIT('0'B),2 QISS# BIT(1)INIT('0'B),2 LOAD# BIT
              6622    1  (1)INIT('0'B),2 IOERROK# BIT(1)INIT('0'B),2 AMRSETSTA BIT(1)INIT('0'B),2 LSTAOR# BIT
              6622            (1)INIT('0'B),2 VOLACCESS# UBIN(2)UNAL INIT
              6623    1   (0),2 UOPT#(0:8)BIT(1)INIT('0'B,'0'B,'0'B,'0'B,'0'B,'0'B,'0'B,'0'B,'0'B),2 PASSF#
              6623            BIT(1)INIT('0'B),2 CNVRT# BIT(1)
PL6.E3A0      #001=Z9P8$DCBS File=Z9P8.:Z8A6TSI                                  SAT 08/09/97 09:46 Page:43
              6624    1  INIT('1'B),2 EBCDIC# BIT(1)INIT('0'B),2 FCI# BIT(1)INIT('0'B),2 FCD# BIT(1)INIT('0'B
              6624            ),2 AMR# BIT(1)INIT('0'B),2 CTG# BIT(1)INIT
              6625    1  ('0'B),2 EXIST# UBIN(2)UNAL INIT(3),2 SHARE# UBIN(2)UNAL INIT(0),2 COMP# BIT(1)INIT(
              6625            '0'B),2 XTEND# BIT(1)INIT('0'B),2 CVOL#
              6626    1  BIT(1)INIT('0'B),2 BLOCKED# BIT(1)INIT('1'B),2 SPANNED# BIT(1)INIT('1'B),2 BUPM# BIT
              6626            (2)INIT('01'B),2 ORG# UBIN(9)UNAL INIT
              6627    1   (0),2 DVTYPE# REDEF ORG# UBIN(9)UNAL,2 FUN# UBIN(9)UNAL INIT(2),2 ASN# UBIN(9)UNAL
              6627            INIT(3),2 DISP# UBIN(9)UNAL INIT(0),2
              6628    1  BLKL# UBIN(18)UNAL INIT(0),2 RECL# UBIN(18)UNAL INIT(0),2 FSN# UBIN(18)UNAL INIT(0),
              6628            2 DBGDCBNO# REDEF FSN# UBIN(18)UNAL,2
              6629    1   DBGSYSID# REDEF FSN# UBIN(18)UNAL,2 SYSID# REDEF FSN# UBIN(18)UNAL,2 FEXTX UBIN(9)
              6629            UNAL INIT(0),2 BOL# UBIN(9)UNAL INIT(0),2 EXPIRE#
              6630    1  SBIN INIT(0),2 KEYX# UBIN(18)UNAL INIT(0),2 KEYL# UBIN(9)UNAL INIT(0),2 ACS# UBIN(9)
              6630            UNAL INIT(1),2 XTNSIZE# UBIN(18)
              6631    1   UNAL INIT(2),2 LSLIDE# UBIN(9)UNAL INIT(510),2 LRDL0# UBIN(9)UNAL INIT(3),2 SPARE#
              6631            UBIN(9)UNAL INIT(1),2 WSR# UBIN
              6632    1  (9)UNAL INIT(0),2 ATTR# BIT(18) INIT('0'B)/* '0'B */,2 ATTR REDEF ATTR#,3 DENS# BIT(
              6632            9),3
              6633    1  GRLGL# BIT(1),3 TRANSLGL# BIT(1),3 NOXLATE# BIT(1),3 UPPERCASE# BIT(1),3 NATL# BIT(1
              6633            ),3 TRUOVRPRT# BIT(1),3 APL# BIT(1),3 BIN# BIT
              6634    1   (1),3 LOWERCASE# BIT(1),2 TDFLG REDEF ATTR#/*'0'B */,3 SDSK# BIT(1),3 * BIT(17),2
              6634            IXTNSIZE# SBIN WORD INIT
              6635    1   (2),2 CONNCT# REDEF IXTNSIZE# SBIN,2 NRECS# SBIN INIT(0),2 CHANTIME# REDEF NRECS#
              6635            SBIN,2 VOL# UBIN(9)UNAL INIT(0),2
              6636    1  MAXVOL# UBIN(9)UNAL INIT(0),2 CHAIN# UBIN(9)UNAL INIT(0),2 DENSITY# UBIN(9)UNAL INIT
              6636            (0),2 LINES# UBIN(18)UNAL INIT
              6637    1   (0),2 DVFC# CHAR(1)INIT(BINASC(0)),2 SEQ# BIT(1)INIT('0'B),2 SEQCOL# UBIN(8)UNAL
              6637            INIT(73),2 SEQID# CHAR(4)INIT(' '),2 HEADER$
              6638    1  PTR INIT(ADDR(NIL)),2 DQH$ REDEF HEADER$ PTR,2 TAB$ PTR INIT(ADDR(NIL)),2 DCT$ REDEF
              6638            TAB$ PTR,2 FORM$ PTR INIT(ADDR(NIL)),2 MPC$
              6639    1   REDEF FORM$ PTR,2 LDCTX UBIN(18)UNAL INIT(0),2 SETX UBIN(18)UNAL INIT(0),2 DEVADR
              6639            REDEF SETX,3 DVN# UBIN(6)UNAL,3 IOM# UBIN(3)UNAL,3
              6640    1  CHAN# UBIN(9)CALIGNED,2 * BIT(9)CALIGNED INIT('0'B),2 JRNLBYPASS# BIT(1)INIT('0'B),2
              6640            * BIT(4)INIT('0'B),2 GHSTACS# UBIN(4)INIT
              6641    1   (0)UNAL,2 ALTKEYX UBIN(18)UNAL INIT(0),2 CODE16$ PTR INIT(ADDR(NIL)),2 FPRGX UBIN
              6641            HALF HALIGNED INIT(0),2 FIELDX UBIN HALF
              6642    1   HALIGNED INIT(0),2 EVENT SBIN INIT(0),2 VFCCHAR# CHAR(1)CALIGNED INIT(BINASC(0)),2
PL6.E3A0      #001=Z9P8$DCBS File=Z9P8.:Z8A6TSI                                  SAT 08/09/97 09:46 Page:44
              6642            KEYTYPE# UBIN(9)CALIGNED INIT(0),2 KFIELDX
              6643    1  UBIN(18)HALIGNED INIT(0),2 STARTX UBIN(18)HALIGNED INIT(0),2 ACTPOS UBIN(18)HALIGNED
              6643            INIT(0),2 AUTHFFLG REDEF ACTPOS,3 READ# BIT(1),
              6644    1   3 DELR# BIT(1),3 WNEW# BIT(1),3 UPD# BIT(1),3 DELF# BIT(1),3 NOLIST# BIT(1),3
              6644            REATTR# BIT(1),3 EXEC# BIT(1),3 CREATE# BIT(1),3 AU#
              6645    1   BIT(1),3 AURD# BIT(1),3 TCTL# BIT(1),3 * BIT(6),2 DCB# UBIN(9)CALIGNED INIT(0),2 *
              6645            BIT(14)INIT('0'B),2 ANSISPANSEQ# BIT(1)INIT
              6646    1   ('1'B),2 PATH,3 IOM# UBIN(3)UNAL INIT(0),3 CHAN# UBIN(9)UNAL INIT(0),2 IRRECX UBIN(
              6646            18)HALIGNED INIT(0),2 FLDID UBIN(18)
              6647    1   HALIGNED INIT(0),2 BADARS# REDEF FLDID UBIN(18)HALIGNED,2 SEED# BIT(36)INIT('0'B),2
              6647            * UBIN INIT(0),2 FEXT BIT(1)INIT('0'B),2 STARF
              6648    1   BIT(1)INIT('0'B),2 SHARED BIT(1)INIT('0'B),2 FMOD BIT(1)INIT('0'B),2 GTYP UBIN(3)
              6648            UNAL INIT(0),2 EOP UBIN(2)UNAL INIT(0),2 AMFLG,3
              6649    1   ACCF BIT(1)INIT('0'B),3 ACSF BIT(1)INIT('0'B),3 INSF BIT(1)INIT('0'B),3 USRF BIT(1)
              6649            INIT('0'B),3 SNLF BIT(1)INIT('0'B),3 PROF BIT(1)
              6650    1  INIT('0'B),2 SEZ_OK BIT(1)INIT('0'B),2 MUST_CVOL BIT(1)INIT('0'B),2 NEW_FSECT BIT(1)
              6650            INIT('0'B),2 NOEOF BIT(1)INIT('0'B),2 MOUNT
              6651    1   REDEF NOEOF BIT(1),2 OHDR BIT(1)INIT('0'B),2 LDFLG REDEF OHDR BIT(1),2 SPAN BIT(1)
              6651            INIT('0'B),2 OWNER BIT(1)INIT('0'B),2 RA BIT(1)
              6652    1   INIT('0'B),2 RPOS BIT(1)INIT('0'B),2 STARX UBIN(3)UNAL INIT(0),2 CACHE BIT(1)INIT(
              6652            '0'B),2 ENQF BIT(1)INIT('0'B),2 GRPOS BIT(1)INIT
              6653    1  ('0'B),2 CONT BIT(1)INIT('0'B),2 WAIT UBIN(1)UNAL INIT(1),2 TRNC UBIN(2)UNAL INIT(0)
              6653            ,2 AFTRBLK BIT(1)INIT('0'B),2 LSTBLK BIT(1)INIT
              6654    1  ('0'B),2 BORROW SBIN INIT(0),2 LASTKEY$ REDEF BORROW PTR,2 LASTKEY REDEF BORROW SBIN
              6654            ,2 FTAM REDEF BORROW,3 CTX UBIN HALF UNAL,3 USR
              6655    1   UBIN BYTE UNAL,3 PMME UBIN(9)UNAL,2 CFU$ PTR INIT(ADDR(NIL)),2 TDALVL UBIN(3)UNAL
              6655            INIT(0),2 LVL UBIN(3)UNAL INIT(0),2 LPOOL REDEF
              6656    1   LVL UBIN(3)UNAL,2 WRCMP BIT(1)INIT('0'B),2 WCDATA BIT(1)INIT('0'B),2 UCOUT BIT(1)
              6656            INIT('0'B),2 TAPTYP,3 RWASC BIT(1)INIT('0'B),3 CP6F
              6657    1   BIT(1)INIT('0'B),3 USRBUF BIT(1)INIT('0'B),3 HAVLASTKEY BIT(1)INIT('0'B),3 NOCVOL
              6657            BIT(1)INIT('0'B),3 MANAGED BIT(1)INIT('0'B),3
              6658    1   PASTFM BIT(1)INIT('0'B),3 * BIT(2)INIT('0'B),2 CRECX UBIN(18)UNAL INIT(0),2 CBUFNUM
              6658            UBIN(3)UNAL INIT(0),2 IORG UBIN(6)UNAL INIT(0),2
              6659    1   TDA UBIN(27)UNAL INIT(0),2 BYTESLEFT REDEF TDA UBIN(27)UNAL,2 CRECNO SBIN INIT(0),2
              6659            PRECNO SBIN INIT(0),2 CSEED REDEF PRECNO SBIN,2
              6660    1  HASH UBIN(27)UNAL INIT(0),2 FDCM UBIN(9)UNAL INIT(0),2 FCN(0:1),3 F BIT(1)INIT('0'B,
              6660            '0'B),3 CNT UBIN(8)UNAL INIT(0,0),2 BLKLEN UBIN
PL6.E3A0      #001=Z9P8$DCBS File=Z9P8.:Z8A6TSI                                  SAT 08/09/97 09:46 Page:45
              6661    1   (18)UNAL INIT(0),2 UB$ PTR INIT(ADDR(NIL)),2 UBYTES UBIN INIT(0),2 FSECT UBIN(18)
              6661            UNAL INIT(0),2 INDX REDEF FSECT UBIN(18)UNAL,2
              6662    1   FPSTR UBIN(9)UNAL INIT(0),2 STR# UBIN(9)UNAL INIT(0),2 NRECX UBIN(18)UNAL INIT(0),2
              6662            MODCNT REDEF NRECX UBIN(18)UNAL,2 SEGX UBIN(18)
              6663    1   UNAL INIT(0),2 GDISP UBIN INIT(0),2 LOGSEC BIT(1)INIT('0'B),2 PRIVOPN BIT(1)INIT(
              6663            '0'B),2 OLDIOERR UBIN(2)UNAL INIT(0),2 * BIT(21)
              6664    1   INIT('0'B),2 REALSPAN BIT(1),2 DECRYPT BIT(1)INIT('0'B),2 PGINGRAN UBIN BYTE UNAL
              6664            INIT(0),2 IFMT UBIN(9)UNAL INIT(0),2 MEDIA UBIN(9)
              6665    1  UNAL INIT(0),2 IWL,3 TABIWL BIT(1)INIT('0'B),3 SEQIWL BIT(1)INIT('0'B),3 HDRIWL BIT(
              6665            1)INIT('0'B),3 * BIT(3)INIT('0'B),2 CTLCMDIN BIT
              6666    1   (1)INIT('0'B),2 UNIQUEBLD BIT(1)INIT('0'B),2 UPDCNT BIT(1)INIT('0'B),2 IASN UBIN(9)
              6666            UNAL INIT(0),2 MOVED SBIN(18)HALIGNED,2 * UBIN(9)
              6667    1   CALIGNED,2 CX UBIN(9)CALIGNED,2 CWORD CHAR(4)ALIGNED,2 RCSZ UBIN INIT(0),2 FEPSIZ
              6667            REDEF RCSZ,3 BUF UBIN HALF UNAL,3 KEY UBIN HALF
              6668    1  UNAL,2 ID ALIGNED,3 GX UBIN(10)UNAL,3 DA UBIN(26)UNAL,2 FEPIO,3 EVENT UBIN INIT(0),3
              6668            KEYX/* 0 */ UBIN
              6669    1  HALF HALIGNED INIT(0),3 BUFX UBIN HALF HALIGNED INIT(0),3 BPP(0:1)BIT(18)INIT('0'B*0
              6669            ),3 KPP(0:1)BIT(18)INIT('0'B*0),2 AGE SBIN INIT
              6670    1   (0),2 BFR(0:4),3 BUFUP BIT(1)INIT('0'B*0),3 SCRUB BIT(1)INIT('0'B*0),3 CHNG BIT(1)
              6670            INIT('0'B*0),3 CVM BIT(1)INIT('0'B*0),3 BUFX UBIN
              6671    1   (5)UNAL INIT(0*0),3 DA UBIN(27)UNAL INIT(0*0),2 BFR1(0:4)ALIGNED,3 FLAGS,4
              6671            ONE_WORD_HEADER BIT(1)INIT('0'B*0),4 * BIT(8)INIT
              6672    1   ('0'B*0),3 SIZ UBIN(9)UNAL INIT(0*0),3 CX UBIN(18)UNAL INIT(0*0),2 FEPIO2(0:3)UBIN
              6672            ALIGNED,2 FEPIO3(0:3)UBIN ALIGNED,2 * SBIN INIT
              6673    1  (29127),2 DCBNAME DALIGNED,3 X UBIN(3)UNAL,3 S BIT(1),3 L UBIN(5)UNAL,3 N CHAR(M$UI.
              6673            DCBNAME.L);
      155     6675        %PAGE(ARG=M$SO);
              6676        %LSET LISTDIR='0'B;

              6688    1   /*******************************************************************************
              6689    1   *                                                                              *
              6690    1   *        M$SO              M$SO                                                  *
              6691    1   *                                                                              *
              6692    1   *******************************************************************************/

      156     6696        %M$DCB(DCBN=M$SO,
      157     6697        CTG=YES,
PL6.E3A0      #001=Z9P8$DCBS File=Z9P8.:Z8A6TSI                                  SAT 08/09/97 09:46 Page:46
      158     6698        EXIST=NEWFILE,
      159     6699        FUN=CREATE,
      160     6700        ORG=CONSEC);
              6701    1  DCL 1 M$SO DCB,2 ARS# SBIN INIT(0),2 FLPW# REDEF ARS# BIT(36),2 * UBIN INIT(0),2 TYC
              6701            ,3 EGV# BIT(1)INIT('0'B*0),3 OPER# BIT(1)
              6702    1   INIT('0'B*0),3 EOT# BIT(1)INIT('0'B*0),3 BOT# BIT(1)INIT('0'B*0),3 BOF# BIT(1)INIT(
              6702            '0'B*0),3 BLNKTP# BIT(1)INIT('0'B*0),3 EOF# BIT
              6703    1   (1)INIT('0'B*0),3 LD# BIT(1)INIT('0'B*0),3 IOERR# BIT(1)INIT('0'B*0),3 DI# BIT(1)
              6703            INIT('0'B*0),3 EOD# BIT(1)INIT('0'B*0),3 MTRAP# BIT
              6704    1  (1)INIT('0'B*0),3 LDISC# BIT(1)INIT('0'B*0),3 DACT# BIT(1)INIT('0'B*0),3 TIMO# BIT(1
              6704            )INIT('0'B*0),3 PROT# BIT(1)INIT('0'B*0),3 FRAW#
              6705    1   BIT(1)INIT('0'B*0),3 LAST# BIT(1)INIT('0'B*0),3 CDALRT# BIT(1)INIT('0'B*0),3 XTRARD
              6705            BIT(1)INIT('0'B*0),3 CGKEYV BIT(1)INIT('0'B*0),3
              6706    1   CGLWRV BIT(1)INIT('0'B*0),3 CGFULL BIT(1)INIT('0'B*0),3 CGCRCW BIT(1)INIT('0'B*0),3
              6706            CGCWRV BIT(1)INIT('0'B*0),3 * BIT(11)INIT
              6707    1   ('0'B*0),2 DVBYTE,3 TOP# BIT(1)INIT('0'B),3 * BIT(1)INIT('0'B),3 VFC# BIT(1)INIT(
              6707            '0'B),3 BIN# BIT(1)INIT('0'B),3 TRANS# BIT(1)INIT
              6708    1   ('0'B),3 * BIT(3)INIT('0'B),2 BUPF BIT(1)INIT('0'B),2 RDL0# UBIN(9)UNAL INIT(0),2
              6708            SLIDE# UBIN(9)UNAL INIT(0),2 EOMCHAR# CHAR(1)INIT
              6709    1  (BITASC('501'O)),2 EOMVAL# REDEF EOMCHAR# UNAL,3 VFLG# BIT(1),3 VALUE# UBIN(8)UNAL,2
              6709            FFLG,3 READ# BIT(1)INIT('0'B),3 DELR# BIT(1)
              6710    1  INIT('0'B),3 WNEW# BIT(1)INIT('0'B),3 UPD# BIT(1)INIT('0'B),3 DELF# BIT(1)INIT('0'B)
              6710            ,3 NOLIST# BIT(1)INIT('0'B),3 REATTR# BIT(1)INIT
              6711    1   ('0'B),3 EXEC# BIT(1)INIT('0'B),3 CREATE# BIT(1)INIT('0'B),3 AU# BIT(1)INIT('0'B),3
              6711            AURD# BIT(1)INIT('0'B),3 TCTL# BIT(1)INIT('0'B),
              6712    1  3 * BIT(6)INIT('0'B),2 DDEV,3 LP# BIT(1)INIT('0'B),3 CP# BIT(1)INIT('0'B),3 IC# BIT(
              6712            1)INIT('0'B),3 XEQ# BIT(1)INIT('0'B),3 UCOUT#
              6713    1   BIT(1)INIT('0'B),3 GR# BIT(1)INIT('0'B),3 * BIT(3)INIT('0'B),2 WIDTH# UBIN(9)UNAL
              6713            INIT(0),2 RETRYCNT# UBIN(18)HALIGNED INIT(0),2
              6714    1   DESC,3 DELF# BIT(1)INIT('0'B),3 NOLIST# BIT(1)INIT('0'B),3 BUF# BIT(1)INIT('0'B),3
              6714            ODSTOW# BIT(1)INIT('0'B),3 BAD# BIT(1)INIT('0'B),
              6715    1  3 QS# BIT(1)INIT('0'B),3 * BIT(2)INIT('0'B),3 ARCHIVE# BIT(1)INIT('0'B),3 BUPM# BIT(
              6715            1)INIT('0'B),3 NBUF# BIT(1)INIT('0'B),3 ACTIVE#
              6716    1  BIT(1)INIT('0'B),3 TPB# BIT(1)INIT('0'B),3 TERMINATE# BIT(1)INIT('0'B),3 FETCH# BIT(
              6716            1)INIT('0'B),3 * BIT(3)INIT('0'B),2 SETSTA$ PTR
              6717    1  INIT(ADDR(NIL)),2 LASTSTA$ PTR INIT(ADDR(NIL)),2 TDEXTST$ REDEF LASTSTA$ PTR,2 NAME#
              6717            ,3 L UBIN(9)UNAL INIT(SIZEC(' ')),3 C CHAR(31)
PL6.E3A0      #001=Z9P8$DCBS File=Z9P8.:Z8A6TSI                                  SAT 08/09/97 09:46 Page:47
              6718    1   INIT(' '),3 C17 REDEF C UNAL,4 CC CHAR(17),4 * CHAR(14),2 ACCT# CHAR(8)INIT(' '),2
              6718            PASS# CHAR(8)INIT(' '),2 PSN# CHAR(6)INIT
              6719    1   (' '),2 TYPE# CHAR(2)INIT(' '),2 RES# CHAR(4)INIT('ME'),2 RESNT REDEF RES# UNAL,3
              6719            TYP CHAR(2),3 NUM CHAR(2),2 WSN# CHAR(8)ALIGNED
              6720    1   INIT(' '),2 TDSTAT# REDEF WSN# BIT(72),2 IGNOREFSN# BIT(1)INIT('0'B),2 AU# BIT(1)
              6720            INIT('0'B),2 QISS# BIT(1)INIT('0'B),2 LOAD# BIT
              6721    1  (1)INIT('0'B),2 IOERROK# BIT(1)INIT('0'B),2 AMRSETSTA BIT(1)INIT('0'B),2 LSTAOR# BIT
              6721            (1)INIT('0'B),2 VOLACCESS# UBIN(2)UNAL INIT
              6722    1   (0),2 UOPT#(0:8)BIT(1)INIT('0'B,'0'B,'0'B,'0'B,'0'B,'0'B,'0'B,'0'B,'0'B),2 PASSF#
              6722            BIT(1)INIT('0'B),2 CNVRT# BIT(1)
              6723    1  INIT('1'B),2 EBCDIC# BIT(1)INIT('0'B),2 FCI# BIT(1)INIT('0'B),2 FCD# BIT(1)INIT('0'B
              6723            ),2 AMR# BIT(1)INIT('0'B),2 CTG# BIT(1)INIT
              6724    1  ('1'B),2 EXIST# UBIN(2)UNAL INIT(3),2 SHARE# UBIN(2)UNAL INIT(0),2 COMP# BIT(1)INIT(
              6724            '0'B),2 XTEND# BIT(1)INIT('0'B),2 CVOL#
              6725    1  BIT(1)INIT('0'B),2 BLOCKED# BIT(1)INIT('1'B),2 SPANNED# BIT(1)INIT('1'B),2 BUPM# BIT
              6725            (2)INIT('01'B),2 ORG# UBIN(9)UNAL INIT
              6726    1   (1),2 DVTYPE# REDEF ORG# UBIN(9)UNAL,2 FUN# UBIN(9)UNAL INIT(3),2 ASN# UBIN(9)UNAL
              6726            INIT(3),2 DISP# UBIN(9)UNAL INIT(0),2
              6727    1  BLKL# UBIN(18)UNAL INIT(0),2 RECL# UBIN(18)UNAL INIT(0),2 FSN# UBIN(18)UNAL INIT(0),
              6727            2 DBGDCBNO# REDEF FSN# UBIN(18)UNAL,2
              6728    1   DBGSYSID# REDEF FSN# UBIN(18)UNAL,2 SYSID# REDEF FSN# UBIN(18)UNAL,2 FEXTX UBIN(9)
              6728            UNAL INIT(0),2 BOL# UBIN(9)UNAL INIT(0),2 EXPIRE#
              6729    1  SBIN INIT(0),2 KEYX# UBIN(18)UNAL INIT(0),2 KEYL# UBIN(9)UNAL INIT(0),2 ACS# UBIN(9)
              6729            UNAL INIT(0),2 XTNSIZE# UBIN(18)
              6730    1   UNAL INIT(2),2 LSLIDE# UBIN(9)UNAL INIT(510),2 LRDL0# UBIN(9)UNAL INIT(3),2 SPARE#
              6730            UBIN(9)UNAL INIT(1),2 WSR# UBIN
              6731    1  (9)UNAL INIT(0),2 ATTR# BIT(18) INIT('0'B)/* '0'B */,2 ATTR REDEF ATTR#,3 DENS# BIT(
              6731            9),3
              6732    1  GRLGL# BIT(1),3 TRANSLGL# BIT(1),3 NOXLATE# BIT(1),3 UPPERCASE# BIT(1),3 NATL# BIT(1
              6732            ),3 TRUOVRPRT# BIT(1),3 APL# BIT(1),3 BIN# BIT
              6733    1   (1),3 LOWERCASE# BIT(1),2 TDFLG REDEF ATTR#/*'0'B */,3 SDSK# BIT(1),3 * BIT(17),2
              6733            IXTNSIZE# SBIN WORD INIT
              6734    1   (2),2 CONNCT# REDEF IXTNSIZE# SBIN,2 NRECS# SBIN INIT(0),2 CHANTIME# REDEF NRECS#
              6734            SBIN,2 VOL# UBIN(9)UNAL INIT(0),2
              6735    1  MAXVOL# UBIN(9)UNAL INIT(0),2 CHAIN# UBIN(9)UNAL INIT(0),2 DENSITY# UBIN(9)UNAL INIT
              6735            (0),2 LINES# UBIN(18)UNAL INIT
              6736    1   (0),2 DVFC# CHAR(1)INIT(BINASC(0)),2 SEQ# BIT(1)INIT('0'B),2 SEQCOL# UBIN(8)UNAL
PL6.E3A0      #001=Z9P8$DCBS File=Z9P8.:Z8A6TSI                                  SAT 08/09/97 09:46 Page:48
              6736            INIT(73),2 SEQID# CHAR(4)INIT(' '),2 HEADER$
              6737    1  PTR INIT(ADDR(NIL)),2 DQH$ REDEF HEADER$ PTR,2 TAB$ PTR INIT(ADDR(NIL)),2 DCT$ REDEF
              6737            TAB$ PTR,2 FORM$ PTR INIT(ADDR(NIL)),2 MPC$
              6738    1   REDEF FORM$ PTR,2 LDCTX UBIN(18)UNAL INIT(0),2 SETX UBIN(18)UNAL INIT(0),2 DEVADR
              6738            REDEF SETX,3 DVN# UBIN(6)UNAL,3 IOM# UBIN(3)UNAL,3
              6739    1  CHAN# UBIN(9)CALIGNED,2 * BIT(9)CALIGNED INIT('0'B),2 JRNLBYPASS# BIT(1)INIT('0'B),2
              6739            * BIT(4)INIT('0'B),2 GHSTACS# UBIN(4)INIT
              6740    1   (0)UNAL,2 ALTKEYX UBIN(18)UNAL INIT(0),2 CODE16$ PTR INIT(ADDR(NIL)),2 FPRGX UBIN
              6740            HALF HALIGNED INIT(0),2 FIELDX UBIN HALF
              6741    1   HALIGNED INIT(0),2 EVENT SBIN INIT(0),2 VFCCHAR# CHAR(1)CALIGNED INIT(BINASC(0)),2
              6741            KEYTYPE# UBIN(9)CALIGNED INIT(0),2 KFIELDX
              6742    1  UBIN(18)HALIGNED INIT(0),2 STARTX UBIN(18)HALIGNED INIT(0),2 ACTPOS UBIN(18)HALIGNED
              6742            INIT(0),2 AUTHFFLG REDEF ACTPOS,3 READ# BIT(1),
              6743    1   3 DELR# BIT(1),3 WNEW# BIT(1),3 UPD# BIT(1),3 DELF# BIT(1),3 NOLIST# BIT(1),3
              6743            REATTR# BIT(1),3 EXEC# BIT(1),3 CREATE# BIT(1),3 AU#
              6744    1   BIT(1),3 AURD# BIT(1),3 TCTL# BIT(1),3 * BIT(6),2 DCB# UBIN(9)CALIGNED INIT(0),2 *
              6744            BIT(14)INIT('0'B),2 ANSISPANSEQ# BIT(1)INIT
              6745    1   ('1'B),2 PATH,3 IOM# UBIN(3)UNAL INIT(0),3 CHAN# UBIN(9)UNAL INIT(0),2 IRRECX UBIN(
              6745            18)HALIGNED INIT(0),2 FLDID UBIN(18)
              6746    1   HALIGNED INIT(0),2 BADARS# REDEF FLDID UBIN(18)HALIGNED,2 SEED# BIT(36)INIT('0'B),2
              6746            * UBIN INIT(0),2 FEXT BIT(1)INIT('0'B),2 STARF
              6747    1   BIT(1)INIT('0'B),2 SHARED BIT(1)INIT('0'B),2 FMOD BIT(1)INIT('0'B),2 GTYP UBIN(3)
              6747            UNAL INIT(0),2 EOP UBIN(2)UNAL INIT(0),2 AMFLG,3
              6748    1   ACCF BIT(1)INIT('0'B),3 ACSF BIT(1)INIT('0'B),3 INSF BIT(1)INIT('0'B),3 USRF BIT(1)
              6748            INIT('0'B),3 SNLF BIT(1)INIT('0'B),3 PROF BIT(1)
              6749    1  INIT('0'B),2 SEZ_OK BIT(1)INIT('0'B),2 MUST_CVOL BIT(1)INIT('0'B),2 NEW_FSECT BIT(1)
              6749            INIT('0'B),2 NOEOF BIT(1)INIT('0'B),2 MOUNT
              6750    1   REDEF NOEOF BIT(1),2 OHDR BIT(1)INIT('0'B),2 LDFLG REDEF OHDR BIT(1),2 SPAN BIT(1)
              6750            INIT('0'B),2 OWNER BIT(1)INIT('0'B),2 RA BIT(1)
              6751    1   INIT('0'B),2 RPOS BIT(1)INIT('0'B),2 STARX UBIN(3)UNAL INIT(0),2 CACHE BIT(1)INIT(
              6751            '0'B),2 ENQF BIT(1)INIT('0'B),2 GRPOS BIT(1)INIT
              6752    1  ('0'B),2 CONT BIT(1)INIT('0'B),2 WAIT UBIN(1)UNAL INIT(1),2 TRNC UBIN(2)UNAL INIT(0)
              6752            ,2 AFTRBLK BIT(1)INIT('0'B),2 LSTBLK BIT(1)INIT
              6753    1  ('0'B),2 BORROW SBIN INIT(0),2 LASTKEY$ REDEF BORROW PTR,2 LASTKEY REDEF BORROW SBIN
              6753            ,2 FTAM REDEF BORROW,3 CTX UBIN HALF UNAL,3 USR
              6754    1   UBIN BYTE UNAL,3 PMME UBIN(9)UNAL,2 CFU$ PTR INIT(ADDR(NIL)),2 TDALVL UBIN(3)UNAL
              6754            INIT(0),2 LVL UBIN(3)UNAL INIT(0),2 LPOOL REDEF
PL6.E3A0      #001=Z9P8$DCBS File=Z9P8.:Z8A6TSI                                  SAT 08/09/97 09:46 Page:49
              6755    1   LVL UBIN(3)UNAL,2 WRCMP BIT(1)INIT('0'B),2 WCDATA BIT(1)INIT('0'B),2 UCOUT BIT(1)
              6755            INIT('0'B),2 TAPTYP,3 RWASC BIT(1)INIT('0'B),3 CP6F
              6756    1   BIT(1)INIT('0'B),3 USRBUF BIT(1)INIT('0'B),3 HAVLASTKEY BIT(1)INIT('0'B),3 NOCVOL
              6756            BIT(1)INIT('0'B),3 MANAGED BIT(1)INIT('0'B),3
              6757    1   PASTFM BIT(1)INIT('0'B),3 * BIT(2)INIT('0'B),2 CRECX UBIN(18)UNAL INIT(0),2 CBUFNUM
              6757            UBIN(3)UNAL INIT(0),2 IORG UBIN(6)UNAL INIT(0),2
              6758    1   TDA UBIN(27)UNAL INIT(0),2 BYTESLEFT REDEF TDA UBIN(27)UNAL,2 CRECNO SBIN INIT(0),2
              6758            PRECNO SBIN INIT(0),2 CSEED REDEF PRECNO SBIN,2
              6759    1  HASH UBIN(27)UNAL INIT(0),2 FDCM UBIN(9)UNAL INIT(0),2 FCN(0:1),3 F BIT(1)INIT('0'B,
              6759            '0'B),3 CNT UBIN(8)UNAL INIT(0,0),2 BLKLEN UBIN
              6760    1   (18)UNAL INIT(0),2 UB$ PTR INIT(ADDR(NIL)),2 UBYTES UBIN INIT(0),2 FSECT UBIN(18)
              6760            UNAL INIT(0),2 INDX REDEF FSECT UBIN(18)UNAL,2
              6761    1   FPSTR UBIN(9)UNAL INIT(0),2 STR# UBIN(9)UNAL INIT(0),2 NRECX UBIN(18)UNAL INIT(0),2
              6761            MODCNT REDEF NRECX UBIN(18)UNAL,2 SEGX UBIN(18)
              6762    1   UNAL INIT(0),2 GDISP UBIN INIT(0),2 LOGSEC BIT(1)INIT('0'B),2 PRIVOPN BIT(1)INIT(
              6762            '0'B),2 OLDIOERR UBIN(2)UNAL INIT(0),2 * BIT(21)
              6763    1   INIT('0'B),2 REALSPAN BIT(1),2 DECRYPT BIT(1)INIT('0'B),2 PGINGRAN UBIN BYTE UNAL
              6763            INIT(0),2 IFMT UBIN(9)UNAL INIT(0),2 MEDIA UBIN(9)
              6764    1  UNAL INIT(0),2 IWL,3 TABIWL BIT(1)INIT('0'B),3 SEQIWL BIT(1)INIT('0'B),3 HDRIWL BIT(
              6764            1)INIT('0'B),3 * BIT(3)INIT('0'B),2 CTLCMDIN BIT
              6765    1   (1)INIT('0'B),2 UNIQUEBLD BIT(1)INIT('0'B),2 UPDCNT BIT(1)INIT('0'B),2 IASN UBIN(9)
              6765            UNAL INIT(0),2 MOVED SBIN(18)HALIGNED,2 * UBIN(9)
              6766    1   CALIGNED,2 CX UBIN(9)CALIGNED,2 CWORD CHAR(4)ALIGNED,2 RCSZ UBIN INIT(0),2 FEPSIZ
              6766            REDEF RCSZ,3 BUF UBIN HALF UNAL,3 KEY UBIN HALF
              6767    1  UNAL,2 ID ALIGNED,3 GX UBIN(10)UNAL,3 DA UBIN(26)UNAL,2 FEPIO,3 EVENT UBIN INIT(0),3
              6767            KEYX/* 0 */ UBIN
              6768    1  HALF HALIGNED INIT(0),3 BUFX UBIN HALF HALIGNED INIT(0),3 BPP(0:1)BIT(18)INIT('0'B*0
              6768            ),3 KPP(0:1)BIT(18)INIT('0'B*0),2 AGE SBIN INIT
              6769    1   (0),2 BFR(0:4),3 BUFUP BIT(1)INIT('0'B*0),3 SCRUB BIT(1)INIT('0'B*0),3 CHNG BIT(1)
              6769            INIT('0'B*0),3 CVM BIT(1)INIT('0'B*0),3 BUFX UBIN
              6770    1   (5)UNAL INIT(0*0),3 DA UBIN(27)UNAL INIT(0*0),2 BFR1(0:4)ALIGNED,3 FLAGS,4
              6770            ONE_WORD_HEADER BIT(1)INIT('0'B*0),4 * BIT(8)INIT
              6771    1   ('0'B*0),3 SIZ UBIN(9)UNAL INIT(0*0),3 CX UBIN(18)UNAL INIT(0*0),2 FEPIO2(0:3)UBIN
              6771            ALIGNED,2 FEPIO3(0:3)UBIN ALIGNED,2 * SBIN INIT
              6772    1  (29127),2 DCBNAME DALIGNED,3 X UBIN(3)UNAL,3 S BIT(1),3 L UBIN(5)UNAL,3 N CHAR(M$SO.
              6772            DCBNAME.L);
      161     6774        %PAGE(ARG=M$OU);
PL6.E3A0      #001=Z9P8$DCBS File=Z9P8.:Z8A6TSI                                  SAT 08/09/97 09:46 Page:50
              6775        %LSET LISTDIR='0'B;

              6787    1   /*******************************************************************************
              6788    1   *                                                                              *
              6789    1   *        M$OU              M$OU                                                  *
              6790    1   *                                                                              *
              6791    1   *******************************************************************************/

      162     6795        %M$DCB(DCBN=M$OU,
      163     6796        CTG=YES,
      164     6797        ORG=CONSEC,
      165     6798        FUN=CREATE,
      166     6799        EXIST=NEWFILE);
              6800    1  DCL 1 M$OU DCB,2 ARS# SBIN INIT(0),2 FLPW# REDEF ARS# BIT(36),2 * UBIN INIT(0),2 TYC
              6800            ,3 EGV# BIT(1)INIT('0'B*0),3 OPER# BIT(1)
              6801    1   INIT('0'B*0),3 EOT# BIT(1)INIT('0'B*0),3 BOT# BIT(1)INIT('0'B*0),3 BOF# BIT(1)INIT(
              6801            '0'B*0),3 BLNKTP# BIT(1)INIT('0'B*0),3 EOF# BIT
              6802    1   (1)INIT('0'B*0),3 LD# BIT(1)INIT('0'B*0),3 IOERR# BIT(1)INIT('0'B*0),3 DI# BIT(1)
              6802            INIT('0'B*0),3 EOD# BIT(1)INIT('0'B*0),3 MTRAP# BIT
              6803    1  (1)INIT('0'B*0),3 LDISC# BIT(1)INIT('0'B*0),3 DACT# BIT(1)INIT('0'B*0),3 TIMO# BIT(1
              6803            )INIT('0'B*0),3 PROT# BIT(1)INIT('0'B*0),3 FRAW#
              6804    1   BIT(1)INIT('0'B*0),3 LAST# BIT(1)INIT('0'B*0),3 CDALRT# BIT(1)INIT('0'B*0),3 XTRARD
              6804            BIT(1)INIT('0'B*0),3 CGKEYV BIT(1)INIT('0'B*0),3
              6805    1   CGLWRV BIT(1)INIT('0'B*0),3 CGFULL BIT(1)INIT('0'B*0),3 CGCRCW BIT(1)INIT('0'B*0),3
              6805            CGCWRV BIT(1)INIT('0'B*0),3 * BIT(11)INIT
              6806    1   ('0'B*0),2 DVBYTE,3 TOP# BIT(1)INIT('0'B),3 * BIT(1)INIT('0'B),3 VFC# BIT(1)INIT(
              6806            '0'B),3 BIN# BIT(1)INIT('0'B),3 TRANS# BIT(1)INIT
              6807    1   ('0'B),3 * BIT(3)INIT('0'B),2 BUPF BIT(1)INIT('0'B),2 RDL0# UBIN(9)UNAL INIT(0),2
              6807            SLIDE# UBIN(9)UNAL INIT(0),2 EOMCHAR# CHAR(1)INIT
              6808    1  (BITASC('501'O)),2 EOMVAL# REDEF EOMCHAR# UNAL,3 VFLG# BIT(1),3 VALUE# UBIN(8)UNAL,2
              6808            FFLG,3 READ# BIT(1)INIT('0'B),3 DELR# BIT(1)
              6809    1  INIT('0'B),3 WNEW# BIT(1)INIT('0'B),3 UPD# BIT(1)INIT('0'B),3 DELF# BIT(1)INIT('0'B)
              6809            ,3 NOLIST# BIT(1)INIT('0'B),3 REATTR# BIT(1)INIT
              6810    1   ('0'B),3 EXEC# BIT(1)INIT('0'B),3 CREATE# BIT(1)INIT('0'B),3 AU# BIT(1)INIT('0'B),3
              6810            AURD# BIT(1)INIT('0'B),3 TCTL# BIT(1)INIT('0'B),
              6811    1  3 * BIT(6)INIT('0'B),2 DDEV,3 LP# BIT(1)INIT('0'B),3 CP# BIT(1)INIT('0'B),3 IC# BIT(
              6811            1)INIT('0'B),3 XEQ# BIT(1)INIT('0'B),3 UCOUT#
PL6.E3A0      #001=Z9P8$DCBS File=Z9P8.:Z8A6TSI                                  SAT 08/09/97 09:46 Page:51
              6812    1   BIT(1)INIT('0'B),3 GR# BIT(1)INIT('0'B),3 * BIT(3)INIT('0'B),2 WIDTH# UBIN(9)UNAL
              6812            INIT(0),2 RETRYCNT# UBIN(18)HALIGNED INIT(0),2
              6813    1   DESC,3 DELF# BIT(1)INIT('0'B),3 NOLIST# BIT(1)INIT('0'B),3 BUF# BIT(1)INIT('0'B),3
              6813            ODSTOW# BIT(1)INIT('0'B),3 BAD# BIT(1)INIT('0'B),
              6814    1  3 QS# BIT(1)INIT('0'B),3 * BIT(2)INIT('0'B),3 ARCHIVE# BIT(1)INIT('0'B),3 BUPM# BIT(
              6814            1)INIT('0'B),3 NBUF# BIT(1)INIT('0'B),3 ACTIVE#
              6815    1  BIT(1)INIT('0'B),3 TPB# BIT(1)INIT('0'B),3 TERMINATE# BIT(1)INIT('0'B),3 FETCH# BIT(
              6815            1)INIT('0'B),3 * BIT(3)INIT('0'B),2 SETSTA$ PTR
              6816    1  INIT(ADDR(NIL)),2 LASTSTA$ PTR INIT(ADDR(NIL)),2 TDEXTST$ REDEF LASTSTA$ PTR,2 NAME#
              6816            ,3 L UBIN(9)UNAL INIT(SIZEC(' ')),3 C CHAR(31)
              6817    1   INIT(' '),3 C17 REDEF C UNAL,4 CC CHAR(17),4 * CHAR(14),2 ACCT# CHAR(8)INIT(' '),2
              6817            PASS# CHAR(8)INIT(' '),2 PSN# CHAR(6)INIT
              6818    1   (' '),2 TYPE# CHAR(2)INIT(' '),2 RES# CHAR(4)INIT('ME'),2 RESNT REDEF RES# UNAL,3
              6818            TYP CHAR(2),3 NUM CHAR(2),2 WSN# CHAR(8)ALIGNED
              6819    1   INIT(' '),2 TDSTAT# REDEF WSN# BIT(72),2 IGNOREFSN# BIT(1)INIT('0'B),2 AU# BIT(1)
              6819            INIT('0'B),2 QISS# BIT(1)INIT('0'B),2 LOAD# BIT
              6820    1  (1)INIT('0'B),2 IOERROK# BIT(1)INIT('0'B),2 AMRSETSTA BIT(1)INIT('0'B),2 LSTAOR# BIT
              6820            (1)INIT('0'B),2 VOLACCESS# UBIN(2)UNAL INIT
              6821    1   (0),2 UOPT#(0:8)BIT(1)INIT('0'B,'0'B,'0'B,'0'B,'0'B,'0'B,'0'B,'0'B,'0'B),2 PASSF#
              6821            BIT(1)INIT('0'B),2 CNVRT# BIT(1)
              6822    1  INIT('1'B),2 EBCDIC# BIT(1)INIT('0'B),2 FCI# BIT(1)INIT('0'B),2 FCD# BIT(1)INIT('0'B
              6822            ),2 AMR# BIT(1)INIT('0'B),2 CTG# BIT(1)INIT
              6823    1  ('1'B),2 EXIST# UBIN(2)UNAL INIT(3),2 SHARE# UBIN(2)UNAL INIT(0),2 COMP# BIT(1)INIT(
              6823            '0'B),2 XTEND# BIT(1)INIT('0'B),2 CVOL#
              6824    1  BIT(1)INIT('0'B),2 BLOCKED# BIT(1)INIT('1'B),2 SPANNED# BIT(1)INIT('1'B),2 BUPM# BIT
              6824            (2)INIT('01'B),2 ORG# UBIN(9)UNAL INIT
              6825    1   (1),2 DVTYPE# REDEF ORG# UBIN(9)UNAL,2 FUN# UBIN(9)UNAL INIT(3),2 ASN# UBIN(9)UNAL
              6825            INIT(3),2 DISP# UBIN(9)UNAL INIT(0),2
              6826    1  BLKL# UBIN(18)UNAL INIT(0),2 RECL# UBIN(18)UNAL INIT(0),2 FSN# UBIN(18)UNAL INIT(0),
              6826            2 DBGDCBNO# REDEF FSN# UBIN(18)UNAL,2
              6827    1   DBGSYSID# REDEF FSN# UBIN(18)UNAL,2 SYSID# REDEF FSN# UBIN(18)UNAL,2 FEXTX UBIN(9)
              6827            UNAL INIT(0),2 BOL# UBIN(9)UNAL INIT(0),2 EXPIRE#
              6828    1  SBIN INIT(0),2 KEYX# UBIN(18)UNAL INIT(0),2 KEYL# UBIN(9)UNAL INIT(0),2 ACS# UBIN(9)
              6828            UNAL INIT(0),2 XTNSIZE# UBIN(18)
              6829    1   UNAL INIT(2),2 LSLIDE# UBIN(9)UNAL INIT(510),2 LRDL0# UBIN(9)UNAL INIT(3),2 SPARE#
              6829            UBIN(9)UNAL INIT(1),2 WSR# UBIN
              6830    1  (9)UNAL INIT(0),2 ATTR# BIT(18) INIT('0'B)/* '0'B */,2 ATTR REDEF ATTR#,3 DENS# BIT(
PL6.E3A0      #001=Z9P8$DCBS File=Z9P8.:Z8A6TSI                                  SAT 08/09/97 09:46 Page:52
              6830            9),3
              6831    1  GRLGL# BIT(1),3 TRANSLGL# BIT(1),3 NOXLATE# BIT(1),3 UPPERCASE# BIT(1),3 NATL# BIT(1
              6831            ),3 TRUOVRPRT# BIT(1),3 APL# BIT(1),3 BIN# BIT
              6832    1   (1),3 LOWERCASE# BIT(1),2 TDFLG REDEF ATTR#/*'0'B */,3 SDSK# BIT(1),3 * BIT(17),2
              6832            IXTNSIZE# SBIN WORD INIT
              6833    1   (2),2 CONNCT# REDEF IXTNSIZE# SBIN,2 NRECS# SBIN INIT(0),2 CHANTIME# REDEF NRECS#
              6833            SBIN,2 VOL# UBIN(9)UNAL INIT(0),2
              6834    1  MAXVOL# UBIN(9)UNAL INIT(0),2 CHAIN# UBIN(9)UNAL INIT(0),2 DENSITY# UBIN(9)UNAL INIT
              6834            (0),2 LINES# UBIN(18)UNAL INIT
              6835    1   (0),2 DVFC# CHAR(1)INIT(BINASC(0)),2 SEQ# BIT(1)INIT('0'B),2 SEQCOL# UBIN(8)UNAL
              6835            INIT(73),2 SEQID# CHAR(4)INIT(' '),2 HEADER$
              6836    1  PTR INIT(ADDR(NIL)),2 DQH$ REDEF HEADER$ PTR,2 TAB$ PTR INIT(ADDR(NIL)),2 DCT$ REDEF
              6836            TAB$ PTR,2 FORM$ PTR INIT(ADDR(NIL)),2 MPC$
              6837    1   REDEF FORM$ PTR,2 LDCTX UBIN(18)UNAL INIT(0),2 SETX UBIN(18)UNAL INIT(0),2 DEVADR
              6837            REDEF SETX,3 DVN# UBIN(6)UNAL,3 IOM# UBIN(3)UNAL,3
              6838    1  CHAN# UBIN(9)CALIGNED,2 * BIT(9)CALIGNED INIT('0'B),2 JRNLBYPASS# BIT(1)INIT('0'B),2
              6838            * BIT(4)INIT('0'B),2 GHSTACS# UBIN(4)INIT
              6839    1   (0)UNAL,2 ALTKEYX UBIN(18)UNAL INIT(0),2 CODE16$ PTR INIT(ADDR(NIL)),2 FPRGX UBIN
              6839            HALF HALIGNED INIT(0),2 FIELDX UBIN HALF
              6840    1   HALIGNED INIT(0),2 EVENT SBIN INIT(0),2 VFCCHAR# CHAR(1)CALIGNED INIT(BINASC(0)),2
              6840            KEYTYPE# UBIN(9)CALIGNED INIT(0),2 KFIELDX
              6841    1  UBIN(18)HALIGNED INIT(0),2 STARTX UBIN(18)HALIGNED INIT(0),2 ACTPOS UBIN(18)HALIGNED
              6841            INIT(0),2 AUTHFFLG REDEF ACTPOS,3 READ# BIT(1),
              6842    1   3 DELR# BIT(1),3 WNEW# BIT(1),3 UPD# BIT(1),3 DELF# BIT(1),3 NOLIST# BIT(1),3
              6842            REATTR# BIT(1),3 EXEC# BIT(1),3 CREATE# BIT(1),3 AU#
              6843    1   BIT(1),3 AURD# BIT(1),3 TCTL# BIT(1),3 * BIT(6),2 DCB# UBIN(9)CALIGNED INIT(0),2 *
              6843            BIT(14)INIT('0'B),2 ANSISPANSEQ# BIT(1)INIT
              6844    1   ('1'B),2 PATH,3 IOM# UBIN(3)UNAL INIT(0),3 CHAN# UBIN(9)UNAL INIT(0),2 IRRECX UBIN(
              6844            18)HALIGNED INIT(0),2 FLDID UBIN(18)
              6845    1   HALIGNED INIT(0),2 BADARS# REDEF FLDID UBIN(18)HALIGNED,2 SEED# BIT(36)INIT('0'B),2
              6845            * UBIN INIT(0),2 FEXT BIT(1)INIT('0'B),2 STARF
              6846    1   BIT(1)INIT('0'B),2 SHARED BIT(1)INIT('0'B),2 FMOD BIT(1)INIT('0'B),2 GTYP UBIN(3)
              6846            UNAL INIT(0),2 EOP UBIN(2)UNAL INIT(0),2 AMFLG,3
              6847    1   ACCF BIT(1)INIT('0'B),3 ACSF BIT(1)INIT('0'B),3 INSF BIT(1)INIT('0'B),3 USRF BIT(1)
              6847            INIT('0'B),3 SNLF BIT(1)INIT('0'B),3 PROF BIT(1)
              6848    1  INIT('0'B),2 SEZ_OK BIT(1)INIT('0'B),2 MUST_CVOL BIT(1)INIT('0'B),2 NEW_FSECT BIT(1)
              6848            INIT('0'B),2 NOEOF BIT(1)INIT('0'B),2 MOUNT
PL6.E3A0      #001=Z9P8$DCBS File=Z9P8.:Z8A6TSI                                  SAT 08/09/97 09:46 Page:53
              6849    1   REDEF NOEOF BIT(1),2 OHDR BIT(1)INIT('0'B),2 LDFLG REDEF OHDR BIT(1),2 SPAN BIT(1)
              6849            INIT('0'B),2 OWNER BIT(1)INIT('0'B),2 RA BIT(1)
              6850    1   INIT('0'B),2 RPOS BIT(1)INIT('0'B),2 STARX UBIN(3)UNAL INIT(0),2 CACHE BIT(1)INIT(
              6850            '0'B),2 ENQF BIT(1)INIT('0'B),2 GRPOS BIT(1)INIT
              6851    1  ('0'B),2 CONT BIT(1)INIT('0'B),2 WAIT UBIN(1)UNAL INIT(1),2 TRNC UBIN(2)UNAL INIT(0)
              6851            ,2 AFTRBLK BIT(1)INIT('0'B),2 LSTBLK BIT(1)INIT
              6852    1  ('0'B),2 BORROW SBIN INIT(0),2 LASTKEY$ REDEF BORROW PTR,2 LASTKEY REDEF BORROW SBIN
              6852            ,2 FTAM REDEF BORROW,3 CTX UBIN HALF UNAL,3 USR
              6853    1   UBIN BYTE UNAL,3 PMME UBIN(9)UNAL,2 CFU$ PTR INIT(ADDR(NIL)),2 TDALVL UBIN(3)UNAL
              6853            INIT(0),2 LVL UBIN(3)UNAL INIT(0),2 LPOOL REDEF
              6854    1   LVL UBIN(3)UNAL,2 WRCMP BIT(1)INIT('0'B),2 WCDATA BIT(1)INIT('0'B),2 UCOUT BIT(1)
              6854            INIT('0'B),2 TAPTYP,3 RWASC BIT(1)INIT('0'B),3 CP6F
              6855    1   BIT(1)INIT('0'B),3 USRBUF BIT(1)INIT('0'B),3 HAVLASTKEY BIT(1)INIT('0'B),3 NOCVOL
              6855            BIT(1)INIT('0'B),3 MANAGED BIT(1)INIT('0'B),3
              6856    1   PASTFM BIT(1)INIT('0'B),3 * BIT(2)INIT('0'B),2 CRECX UBIN(18)UNAL INIT(0),2 CBUFNUM
              6856            UBIN(3)UNAL INIT(0),2 IORG UBIN(6)UNAL INIT(0),2
              6857    1   TDA UBIN(27)UNAL INIT(0),2 BYTESLEFT REDEF TDA UBIN(27)UNAL,2 CRECNO SBIN INIT(0),2
              6857            PRECNO SBIN INIT(0),2 CSEED REDEF PRECNO SBIN,2
              6858    1  HASH UBIN(27)UNAL INIT(0),2 FDCM UBIN(9)UNAL INIT(0),2 FCN(0:1),3 F BIT(1)INIT('0'B,
              6858            '0'B),3 CNT UBIN(8)UNAL INIT(0,0),2 BLKLEN UBIN
              6859    1   (18)UNAL INIT(0),2 UB$ PTR INIT(ADDR(NIL)),2 UBYTES UBIN INIT(0),2 FSECT UBIN(18)
              6859            UNAL INIT(0),2 INDX REDEF FSECT UBIN(18)UNAL,2
              6860    1   FPSTR UBIN(9)UNAL INIT(0),2 STR# UBIN(9)UNAL INIT(0),2 NRECX UBIN(18)UNAL INIT(0),2
              6860            MODCNT REDEF NRECX UBIN(18)UNAL,2 SEGX UBIN(18)
              6861    1   UNAL INIT(0),2 GDISP UBIN INIT(0),2 LOGSEC BIT(1)INIT('0'B),2 PRIVOPN BIT(1)INIT(
              6861            '0'B),2 OLDIOERR UBIN(2)UNAL INIT(0),2 * BIT(21)
              6862    1   INIT('0'B),2 REALSPAN BIT(1),2 DECRYPT BIT(1)INIT('0'B),2 PGINGRAN UBIN BYTE UNAL
              6862            INIT(0),2 IFMT UBIN(9)UNAL INIT(0),2 MEDIA UBIN(9)
              6863    1  UNAL INIT(0),2 IWL,3 TABIWL BIT(1)INIT('0'B),3 SEQIWL BIT(1)INIT('0'B),3 HDRIWL BIT(
              6863            1)INIT('0'B),3 * BIT(3)INIT('0'B),2 CTLCMDIN BIT
              6864    1   (1)INIT('0'B),2 UNIQUEBLD BIT(1)INIT('0'B),2 UPDCNT BIT(1)INIT('0'B),2 IASN UBIN(9)
              6864            UNAL INIT(0),2 MOVED SBIN(18)HALIGNED,2 * UBIN(9)
              6865    1   CALIGNED,2 CX UBIN(9)CALIGNED,2 CWORD CHAR(4)ALIGNED,2 RCSZ UBIN INIT(0),2 FEPSIZ
              6865            REDEF RCSZ,3 BUF UBIN HALF UNAL,3 KEY UBIN HALF
              6866    1  UNAL,2 ID ALIGNED,3 GX UBIN(10)UNAL,3 DA UBIN(26)UNAL,2 FEPIO,3 EVENT UBIN INIT(0),3
              6866            KEYX/* 0 */ UBIN
              6867    1  HALF HALIGNED INIT(0),3 BUFX UBIN HALF HALIGNED INIT(0),3 BPP(0:1)BIT(18)INIT('0'B*0
PL6.E3A0      #001=Z9P8$DCBS File=Z9P8.:Z8A6TSI                                  SAT 08/09/97 09:46 Page:54
              6867            ),3 KPP(0:1)BIT(18)INIT('0'B*0),2 AGE SBIN INIT
              6868    1   (0),2 BFR(0:4),3 BUFUP BIT(1)INIT('0'B*0),3 SCRUB BIT(1)INIT('0'B*0),3 CHNG BIT(1)
              6868            INIT('0'B*0),3 CVM BIT(1)INIT('0'B*0),3 BUFX UBIN
              6869    1   (5)UNAL INIT(0*0),3 DA UBIN(27)UNAL INIT(0*0),2 BFR1(0:4)ALIGNED,3 FLAGS,4
              6869            ONE_WORD_HEADER BIT(1)INIT('0'B*0),4 * BIT(8)INIT
              6870    1   ('0'B*0),3 SIZ UBIN(9)UNAL INIT(0*0),3 CX UBIN(18)UNAL INIT(0*0),2 FEPIO2(0:3)UBIN
              6870            ALIGNED,2 FEPIO3(0:3)UBIN ALIGNED,2 * SBIN INIT
              6871    1  (29127),2 DCBNAME DALIGNED,3 X UBIN(3)UNAL,3 S BIT(1),3 L UBIN(5)UNAL,3 N CHAR(M$OU.
              6871            DCBNAME.L);
      167     6873        %PAGE(ARG=M$LO);
              6874        %LSET LISTDIR='0'B;

              6886    1   /*******************************************************************************
              6887    1   *                                                                              *
              6888    1   *        M$LO              M$LO                                                  *
              6889    1   *                                                                              *
              6890    1   *******************************************************************************/

      168     6894        %M$DCB(DCBN=M$LO,
      169     6895        CTG=YES,
      170     6896        ACS=SEQUEN,
      171     6897        FUN=CREATE,
      172     6898        EXIST=NEWFILE,
      173     6899        ORG=UR);
              6900    1  DCL 1 M$LO DCB,2 ARS# SBIN INIT(0),2 FLPW# REDEF ARS# BIT(36),2 * UBIN INIT(0),2 TYC
              6900            ,3 EGV# BIT(1)INIT('0'B*0),3 OPER# BIT(1)
              6901    1   INIT('0'B*0),3 EOT# BIT(1)INIT('0'B*0),3 BOT# BIT(1)INIT('0'B*0),3 BOF# BIT(1)INIT(
              6901            '0'B*0),3 BLNKTP# BIT(1)INIT('0'B*0),3 EOF# BIT
              6902    1   (1)INIT('0'B*0),3 LD# BIT(1)INIT('0'B*0),3 IOERR# BIT(1)INIT('0'B*0),3 DI# BIT(1)
              6902            INIT('0'B*0),3 EOD# BIT(1)INIT('0'B*0),3 MTRAP# BIT
              6903    1  (1)INIT('0'B*0),3 LDISC# BIT(1)INIT('0'B*0),3 DACT# BIT(1)INIT('0'B*0),3 TIMO# BIT(1
              6903            )INIT('0'B*0),3 PROT# BIT(1)INIT('0'B*0),3 FRAW#
              6904    1   BIT(1)INIT('0'B*0),3 LAST# BIT(1)INIT('0'B*0),3 CDALRT# BIT(1)INIT('0'B*0),3 XTRARD
              6904            BIT(1)INIT('0'B*0),3 CGKEYV BIT(1)INIT('0'B*0),3
              6905    1   CGLWRV BIT(1)INIT('0'B*0),3 CGFULL BIT(1)INIT('0'B*0),3 CGCRCW BIT(1)INIT('0'B*0),3
              6905            CGCWRV BIT(1)INIT('0'B*0),3 * BIT(11)INIT
              6906    1   ('0'B*0),2 DVBYTE,3 TOP# BIT(1)INIT('0'B),3 * BIT(1)INIT('0'B),3 VFC# BIT(1)INIT(
PL6.E3A0      #001=Z9P8$DCBS File=Z9P8.:Z8A6TSI                                  SAT 08/09/97 09:46 Page:55
              6906            '0'B),3 BIN# BIT(1)INIT('0'B),3 TRANS# BIT(1)INIT
              6907    1   ('0'B),3 * BIT(3)INIT('0'B),2 BUPF BIT(1)INIT('0'B),2 RDL0# UBIN(9)UNAL INIT(0),2
              6907            SLIDE# UBIN(9)UNAL INIT(0),2 EOMCHAR# CHAR(1)INIT
              6908    1  (BITASC('501'O)),2 EOMVAL# REDEF EOMCHAR# UNAL,3 VFLG# BIT(1),3 VALUE# UBIN(8)UNAL,2
              6908            FFLG,3 READ# BIT(1)INIT('0'B),3 DELR# BIT(1)
              6909    1  INIT('0'B),3 WNEW# BIT(1)INIT('0'B),3 UPD# BIT(1)INIT('0'B),3 DELF# BIT(1)INIT('0'B)
              6909            ,3 NOLIST# BIT(1)INIT('0'B),3 REATTR# BIT(1)INIT
              6910    1   ('0'B),3 EXEC# BIT(1)INIT('0'B),3 CREATE# BIT(1)INIT('0'B),3 AU# BIT(1)INIT('0'B),3
              6910            AURD# BIT(1)INIT('0'B),3 TCTL# BIT(1)INIT('0'B),
              6911    1  3 * BIT(6)INIT('0'B),2 DDEV,3 LP# BIT(1)INIT('0'B),3 CP# BIT(1)INIT('0'B),3 IC# BIT(
              6911            1)INIT('0'B),3 XEQ# BIT(1)INIT('0'B),3 UCOUT#
              6912    1   BIT(1)INIT('0'B),3 GR# BIT(1)INIT('0'B),3 * BIT(3)INIT('0'B),2 WIDTH# UBIN(9)UNAL
              6912            INIT(0),2 RETRYCNT# UBIN(18)HALIGNED INIT(0),2
              6913    1   DESC,3 DELF# BIT(1)INIT('0'B),3 NOLIST# BIT(1)INIT('0'B),3 BUF# BIT(1)INIT('0'B),3
              6913            ODSTOW# BIT(1)INIT('0'B),3 BAD# BIT(1)INIT('0'B),
              6914    1  3 QS# BIT(1)INIT('0'B),3 * BIT(2)INIT('0'B),3 ARCHIVE# BIT(1)INIT('0'B),3 BUPM# BIT(
              6914            1)INIT('0'B),3 NBUF# BIT(1)INIT('0'B),3 ACTIVE#
              6915    1  BIT(1)INIT('0'B),3 TPB# BIT(1)INIT('0'B),3 TERMINATE# BIT(1)INIT('0'B),3 FETCH# BIT(
              6915            1)INIT('0'B),3 * BIT(3)INIT('0'B),2 SETSTA$ PTR
              6916    1  INIT(ADDR(NIL)),2 LASTSTA$ PTR INIT(ADDR(NIL)),2 TDEXTST$ REDEF LASTSTA$ PTR,2 NAME#
              6916            ,3 L UBIN(9)UNAL INIT(SIZEC(' ')),3 C CHAR(31)
              6917    1   INIT(' '),3 C17 REDEF C UNAL,4 CC CHAR(17),4 * CHAR(14),2 ACCT# CHAR(8)INIT(' '),2
              6917            PASS# CHAR(8)INIT(' '),2 PSN# CHAR(6)INIT
              6918    1   (' '),2 TYPE# CHAR(2)INIT(' '),2 RES# CHAR(4)INIT('ME'),2 RESNT REDEF RES# UNAL,3
              6918            TYP CHAR(2),3 NUM CHAR(2),2 WSN# CHAR(8)ALIGNED
              6919    1   INIT(' '),2 TDSTAT# REDEF WSN# BIT(72),2 IGNOREFSN# BIT(1)INIT('0'B),2 AU# BIT(1)
              6919            INIT('0'B),2 QISS# BIT(1)INIT('0'B),2 LOAD# BIT
              6920    1  (1)INIT('0'B),2 IOERROK# BIT(1)INIT('0'B),2 AMRSETSTA BIT(1)INIT('0'B),2 LSTAOR# BIT
              6920            (1)INIT('0'B),2 VOLACCESS# UBIN(2)UNAL INIT
              6921    1   (0),2 UOPT#(0:8)BIT(1)INIT('0'B,'0'B,'0'B,'0'B,'0'B,'0'B,'0'B,'0'B,'0'B),2 PASSF#
              6921            BIT(1)INIT('0'B),2 CNVRT# BIT(1)
              6922    1  INIT('1'B),2 EBCDIC# BIT(1)INIT('0'B),2 FCI# BIT(1)INIT('0'B),2 FCD# BIT(1)INIT('0'B
              6922            ),2 AMR# BIT(1)INIT('0'B),2 CTG# BIT(1)INIT
              6923    1  ('1'B),2 EXIST# UBIN(2)UNAL INIT(3),2 SHARE# UBIN(2)UNAL INIT(0),2 COMP# BIT(1)INIT(
              6923            '0'B),2 XTEND# BIT(1)INIT('0'B),2 CVOL#
              6924    1  BIT(1)INIT('0'B),2 BLOCKED# BIT(1)INIT('1'B),2 SPANNED# BIT(1)INIT('1'B),2 BUPM# BIT
              6924            (2)INIT('01'B),2 ORG# UBIN(9)UNAL INIT
PL6.E3A0      #001=Z9P8$DCBS File=Z9P8.:Z8A6TSI                                  SAT 08/09/97 09:46 Page:56
              6925    1   (4),2 DVTYPE# REDEF ORG# UBIN(9)UNAL,2 FUN# UBIN(9)UNAL INIT(3),2 ASN# UBIN(9)UNAL
              6925            INIT(3),2 DISP# UBIN(9)UNAL INIT(0),2
              6926    1  BLKL# UBIN(18)UNAL INIT(0),2 RECL# UBIN(18)UNAL INIT(0),2 FSN# UBIN(18)UNAL INIT(0),
              6926            2 DBGDCBNO# REDEF FSN# UBIN(18)UNAL,2
              6927    1   DBGSYSID# REDEF FSN# UBIN(18)UNAL,2 SYSID# REDEF FSN# UBIN(18)UNAL,2 FEXTX UBIN(9)
              6927            UNAL INIT(0),2 BOL# UBIN(9)UNAL INIT(0),2 EXPIRE#
              6928    1  SBIN INIT(0),2 KEYX# UBIN(18)UNAL INIT(0),2 KEYL# UBIN(9)UNAL INIT(0),2 ACS# UBIN(9)
              6928            UNAL INIT(1),2 XTNSIZE# UBIN(18)
              6929    1   UNAL INIT(2),2 LSLIDE# UBIN(9)UNAL INIT(510),2 LRDL0# UBIN(9)UNAL INIT(3),2 SPARE#
              6929            UBIN(9)UNAL INIT(1),2 WSR# UBIN
              6930    1  (9)UNAL INIT(0),2 ATTR# BIT(18) INIT('0'B)/* '0'B */,2 ATTR REDEF ATTR#,3 DENS# BIT(
              6930            9),3
              6931    1  GRLGL# BIT(1),3 TRANSLGL# BIT(1),3 NOXLATE# BIT(1),3 UPPERCASE# BIT(1),3 NATL# BIT(1
              6931            ),3 TRUOVRPRT# BIT(1),3 APL# BIT(1),3 BIN# BIT
              6932    1   (1),3 LOWERCASE# BIT(1),2 TDFLG REDEF ATTR#/*'0'B */,3 SDSK# BIT(1),3 * BIT(17),2
              6932            IXTNSIZE# SBIN WORD INIT
              6933    1   (2),2 CONNCT# REDEF IXTNSIZE# SBIN,2 NRECS# SBIN INIT(0),2 CHANTIME# REDEF NRECS#
              6933            SBIN,2 VOL# UBIN(9)UNAL INIT(0),2
              6934    1  MAXVOL# UBIN(9)UNAL INIT(0),2 CHAIN# UBIN(9)UNAL INIT(0),2 DENSITY# UBIN(9)UNAL INIT
              6934            (0),2 LINES# UBIN(18)UNAL INIT
              6935    1   (0),2 DVFC# CHAR(1)INIT(BINASC(0)),2 SEQ# BIT(1)INIT('0'B),2 SEQCOL# UBIN(8)UNAL
              6935            INIT(73),2 SEQID# CHAR(4)INIT(' '),2 HEADER$
              6936    1  PTR INIT(ADDR(NIL)),2 DQH$ REDEF HEADER$ PTR,2 TAB$ PTR INIT(ADDR(NIL)),2 DCT$ REDEF
              6936            TAB$ PTR,2 FORM$ PTR INIT(ADDR(NIL)),2 MPC$
              6937    1   REDEF FORM$ PTR,2 LDCTX UBIN(18)UNAL INIT(0),2 SETX UBIN(18)UNAL INIT(0),2 DEVADR
              6937            REDEF SETX,3 DVN# UBIN(6)UNAL,3 IOM# UBIN(3)UNAL,3
              6938    1  CHAN# UBIN(9)CALIGNED,2 * BIT(9)CALIGNED INIT('0'B),2 JRNLBYPASS# BIT(1)INIT('0'B),2
              6938            * BIT(4)INIT('0'B),2 GHSTACS# UBIN(4)INIT
              6939    1   (0)UNAL,2 ALTKEYX UBIN(18)UNAL INIT(0),2 CODE16$ PTR INIT(ADDR(NIL)),2 FPRGX UBIN
              6939            HALF HALIGNED INIT(0),2 FIELDX UBIN HALF
              6940    1   HALIGNED INIT(0),2 EVENT SBIN INIT(0),2 VFCCHAR# CHAR(1)CALIGNED INIT(BINASC(0)),2
              6940            KEYTYPE# UBIN(9)CALIGNED INIT(0),2 KFIELDX
              6941    1  UBIN(18)HALIGNED INIT(0),2 STARTX UBIN(18)HALIGNED INIT(0),2 ACTPOS UBIN(18)HALIGNED
              6941            INIT(0),2 AUTHFFLG REDEF ACTPOS,3 READ# BIT(1),
              6942    1   3 DELR# BIT(1),3 WNEW# BIT(1),3 UPD# BIT(1),3 DELF# BIT(1),3 NOLIST# BIT(1),3
              6942            REATTR# BIT(1),3 EXEC# BIT(1),3 CREATE# BIT(1),3 AU#
              6943    1   BIT(1),3 AURD# BIT(1),3 TCTL# BIT(1),3 * BIT(6),2 DCB# UBIN(9)CALIGNED INIT(0),2 *
PL6.E3A0      #001=Z9P8$DCBS File=Z9P8.:Z8A6TSI                                  SAT 08/09/97 09:46 Page:57
              6943            BIT(14)INIT('0'B),2 ANSISPANSEQ# BIT(1)INIT
              6944    1   ('1'B),2 PATH,3 IOM# UBIN(3)UNAL INIT(0),3 CHAN# UBIN(9)UNAL INIT(0),2 IRRECX UBIN(
              6944            18)HALIGNED INIT(0),2 FLDID UBIN(18)
              6945    1   HALIGNED INIT(0),2 BADARS# REDEF FLDID UBIN(18)HALIGNED,2 SEED# BIT(36)INIT('0'B),2
              6945            * UBIN INIT(0),2 FEXT BIT(1)INIT('0'B),2 STARF
              6946    1   BIT(1)INIT('0'B),2 SHARED BIT(1)INIT('0'B),2 FMOD BIT(1)INIT('0'B),2 GTYP UBIN(3)
              6946            UNAL INIT(0),2 EOP UBIN(2)UNAL INIT(0),2 AMFLG,3
              6947    1   ACCF BIT(1)INIT('0'B),3 ACSF BIT(1)INIT('0'B),3 INSF BIT(1)INIT('0'B),3 USRF BIT(1)
              6947            INIT('0'B),3 SNLF BIT(1)INIT('0'B),3 PROF BIT(1)
              6948    1  INIT('0'B),2 SEZ_OK BIT(1)INIT('0'B),2 MUST_CVOL BIT(1)INIT('0'B),2 NEW_FSECT BIT(1)
              6948            INIT('0'B),2 NOEOF BIT(1)INIT('0'B),2 MOUNT
              6949    1   REDEF NOEOF BIT(1),2 OHDR BIT(1)INIT('0'B),2 LDFLG REDEF OHDR BIT(1),2 SPAN BIT(1)
              6949            INIT('0'B),2 OWNER BIT(1)INIT('0'B),2 RA BIT(1)
              6950    1   INIT('0'B),2 RPOS BIT(1)INIT('0'B),2 STARX UBIN(3)UNAL INIT(0),2 CACHE BIT(1)INIT(
              6950            '0'B),2 ENQF BIT(1)INIT('0'B),2 GRPOS BIT(1)INIT
              6951    1  ('0'B),2 CONT BIT(1)INIT('0'B),2 WAIT UBIN(1)UNAL INIT(1),2 TRNC UBIN(2)UNAL INIT(0)
              6951            ,2 AFTRBLK BIT(1)INIT('0'B),2 LSTBLK BIT(1)INIT
              6952    1  ('0'B),2 BORROW SBIN INIT(0),2 LASTKEY$ REDEF BORROW PTR,2 LASTKEY REDEF BORROW SBIN
              6952            ,2 FTAM REDEF BORROW,3 CTX UBIN HALF UNAL,3 USR
              6953    1   UBIN BYTE UNAL,3 PMME UBIN(9)UNAL,2 CFU$ PTR INIT(ADDR(NIL)),2 TDALVL UBIN(3)UNAL
              6953            INIT(0),2 LVL UBIN(3)UNAL INIT(0),2 LPOOL REDEF
              6954    1   LVL UBIN(3)UNAL,2 WRCMP BIT(1)INIT('0'B),2 WCDATA BIT(1)INIT('0'B),2 UCOUT BIT(1)
              6954            INIT('0'B),2 TAPTYP,3 RWASC BIT(1)INIT('0'B),3 CP6F
              6955    1   BIT(1)INIT('0'B),3 USRBUF BIT(1)INIT('0'B),3 HAVLASTKEY BIT(1)INIT('0'B),3 NOCVOL
              6955            BIT(1)INIT('0'B),3 MANAGED BIT(1)INIT('0'B),3
              6956    1   PASTFM BIT(1)INIT('0'B),3 * BIT(2)INIT('0'B),2 CRECX UBIN(18)UNAL INIT(0),2 CBUFNUM
              6956            UBIN(3)UNAL INIT(0),2 IORG UBIN(6)UNAL INIT(0),2
              6957    1   TDA UBIN(27)UNAL INIT(0),2 BYTESLEFT REDEF TDA UBIN(27)UNAL,2 CRECNO SBIN INIT(0),2
              6957            PRECNO SBIN INIT(0),2 CSEED REDEF PRECNO SBIN,2
              6958    1  HASH UBIN(27)UNAL INIT(0),2 FDCM UBIN(9)UNAL INIT(0),2 FCN(0:1),3 F BIT(1)INIT('0'B,
              6958            '0'B),3 CNT UBIN(8)UNAL INIT(0,0),2 BLKLEN UBIN
              6959    1   (18)UNAL INIT(0),2 UB$ PTR INIT(ADDR(NIL)),2 UBYTES UBIN INIT(0),2 FSECT UBIN(18)
              6959            UNAL INIT(0),2 INDX REDEF FSECT UBIN(18)UNAL,2
              6960    1   FPSTR UBIN(9)UNAL INIT(0),2 STR# UBIN(9)UNAL INIT(0),2 NRECX UBIN(18)UNAL INIT(0),2
              6960            MODCNT REDEF NRECX UBIN(18)UNAL,2 SEGX UBIN(18)
              6961    1   UNAL INIT(0),2 GDISP UBIN INIT(0),2 LOGSEC BIT(1)INIT('0'B),2 PRIVOPN BIT(1)INIT(
              6961            '0'B),2 OLDIOERR UBIN(2)UNAL INIT(0),2 * BIT(21)
PL6.E3A0      #001=Z9P8$DCBS File=Z9P8.:Z8A6TSI                                  SAT 08/09/97 09:46 Page:58
              6962    1   INIT('0'B),2 REALSPAN BIT(1),2 DECRYPT BIT(1)INIT('0'B),2 PGINGRAN UBIN BYTE UNAL
              6962            INIT(0),2 IFMT UBIN(9)UNAL INIT(0),2 MEDIA UBIN(9)
              6963    1  UNAL INIT(0),2 IWL,3 TABIWL BIT(1)INIT('0'B),3 SEQIWL BIT(1)INIT('0'B),3 HDRIWL BIT(
              6963            1)INIT('0'B),3 * BIT(3)INIT('0'B),2 CTLCMDIN BIT
              6964    1   (1)INIT('0'B),2 UNIQUEBLD BIT(1)INIT('0'B),2 UPDCNT BIT(1)INIT('0'B),2 IASN UBIN(9)
              6964            UNAL INIT(0),2 MOVED SBIN(18)HALIGNED,2 * UBIN(9)
              6965    1   CALIGNED,2 CX UBIN(9)CALIGNED,2 CWORD CHAR(4)ALIGNED,2 RCSZ UBIN INIT(0),2 FEPSIZ
              6965            REDEF RCSZ,3 BUF UBIN HALF UNAL,3 KEY UBIN HALF
              6966    1  UNAL,2 ID ALIGNED,3 GX UBIN(10)UNAL,3 DA UBIN(26)UNAL,2 FEPIO,3 EVENT UBIN INIT(0),3
              6966            KEYX/* 0 */ UBIN
              6967    1  HALF HALIGNED INIT(0),3 BUFX UBIN HALF HALIGNED INIT(0),3 BPP(0:1)BIT(18)INIT('0'B*0
              6967            ),3 KPP(0:1)BIT(18)INIT('0'B*0),2 AGE SBIN INIT
              6968    1   (0),2 BFR(0:4),3 BUFUP BIT(1)INIT('0'B*0),3 SCRUB BIT(1)INIT('0'B*0),3 CHNG BIT(1)
              6968            INIT('0'B*0),3 CVM BIT(1)INIT('0'B*0),3 BUFX UBIN
              6969    1   (5)UNAL INIT(0*0),3 DA UBIN(27)UNAL INIT(0*0),2 BFR1(0:4)ALIGNED,3 FLAGS,4
              6969            ONE_WORD_HEADER BIT(1)INIT('0'B*0),4 * BIT(8)INIT
              6970    1   ('0'B*0),3 SIZ UBIN(9)UNAL INIT(0*0),3 CX UBIN(18)UNAL INIT(0*0),2 FEPIO2(0:3)UBIN
              6970            ALIGNED,2 FEPIO3(0:3)UBIN ALIGNED,2 * SBIN INIT
              6971    1  (29127),2 DCBNAME DALIGNED,3 X UBIN(3)UNAL,3 S BIT(1),3 L UBIN(5)UNAL,3 N CHAR(M$LO.
              6971            DCBNAME.L);
      174     6973    1   DCL M$DO DCB;
      175     6974         %EQU HIDCB=20;
      176     6975         %ENDIF;
      177     6976         %DCBPTR;
              6977    1   DCL Z8PS$M$OU$ PTR SYMREF;
              6978    1   DCL Z8PS$M$LO$ PTR SYMREF;
              6979    1   DCL Z8PS$M$DO$ PTR SYMREF;
              6980    1   DCL Z8PS$M$SO$ PTR SYMREF;
              6981    1   DCL Z8PS$M$OU# UBIN SYMREF;
              6982    1   DCL Z8PS$M$LO# UBIN SYMREF;
              6983    1   DCL Z8PS$M$DO# UBIN SYMREF;
              6984    1   DCL Z8PS$M$SO# UBIN SYMREF;
      178     6986         %PAGE(ARG=DCBADDR ARRAY);
              6987        %LSET LISTDIR='0'B;

              6999    1   /*******************************************************************************
              7000    1   *                                                                              *
PL6.E3A0      #001=Z9P8$DCBS File=Z9P8.:Z8A6TSI                                  SAT 08/09/97 09:46 Page:59
              7001    1   *        DCBADDR ARRAY              DCBADDR ARRAY                                 *
              7002    1   *                                                                              *
              7003    1   *******************************************************************************/

      179     7007         %DCB$ADDR(STCLASS=STATIC SYMDEF);
              7008        %LSET LISTDIR='0'B;
              7013        %IF '1'B;
              7015        %ELSE;
              7016 C      %LSET INIT=CHARTEXT('/*');
              7017        %ENDIF;
              7018    1   DCL 1 ZV1$DCB STATIC SYMDEF ALIGNED,
              7019    1         2 N UBIN(36) INIT(20)/**/,
              7020    1         2 ADDR$(0:20) PTR INIT(ADDR(NIL)*21)/**/;
      180     7022         %IF '0'B;
      181     7023 C       %PAGE(ARG=WIRE DCBS,PAGE=YES);
      182     7024 C      DCL ZVZ$CALDMM ENTRY(1);
      183     7025 C       %P_CALDMM(NAME=WIRE_DCB);
      184     7026         %ENDIF;
      185     7027         %PAGE(ARG=INITIALIZE DCB POINTERS,PAGE=YES);
              7028        %LSET LISTDIR='0'B;

PL6.E3A0      #001=Z9P8$DCBS File=Z9P8.:Z8A6TSI                                  SAT 08/09/97 09:46 Page:60
              7040    1   /*******************************************************************************
              7041    1   *                                                                              *
              7042    1   *        INITIALIZE DCB POINTERS              INITIALIZE DCB POINTERS             *
              7043    1   *                                                                              *
              7044    1   *******************************************************************************/

      186     7048         %INIT$DCB(DCBN=M$OU,FCG=Z8PS);
              7049    1    Z8PS$M$OU#=DCBNUM(M$OU);

   7049 17 000002   000000 236007 xsym               LDQ     M$OU,DL
        17 000003   000000 756000 xsym               STQ     Z8PS$M$OU#

              7050    1    Z8PS$M$OU$=DCBADDR(DCBNUM(M$OU));

   7050 17 000004   000000 236007 xsym               LDQ     M$OU,DL
        17 000005   000000 470400 18                 LDP0    0
        17 000006   000000 471500                    LDP1    0,,PR0
        17 000007   100000 236106                    LDQ     0,QL,PR1
        17 000010   000000 756000 xsym               STQ     Z8PS$M$OU$

              7051    1   ZV1$DCB.ADDR$(DCBNUM(M$OU))=DCBADDR(DCBNUM(M$OU));

   7051 17 000011   000000 236007 xsym               LDQ     M$OU,DL
        17 000012   200004 756100                    STQ     4,,AUTO
        17 000013   000000 236007 xsym               LDQ     M$OU,DL
        17 000014   100000 236106                    LDQ     0,QL,PR1
        17 000015   200004 720100                    LXL0    4,,AUTO
        17 000016   000001 756010 16                 STQ     ZV1$DCB+1,X0

      187     7053         %INIT$DCB(DCBN=M$LO,FCG=Z8PS);
              7054    1    Z8PS$M$LO#=DCBNUM(M$LO);

   7054 17 000017   000000 236007 xsym               LDQ     M$LO,DL
        17 000020   000000 756000 xsym               STQ     Z8PS$M$LO#

              7055    1    Z8PS$M$LO$=DCBADDR(DCBNUM(M$LO));

PL6.E3A0      #001=Z9P8$DCBS File=Z9P8.:Z8A6TSI                                  SAT 08/09/97 09:46 Page:61
   7055 17 000021   000000 236007 xsym               LDQ     M$LO,DL
        17 000022   100000 236106                    LDQ     0,QL,PR1
        17 000023   000000 756000 xsym               STQ     Z8PS$M$LO$

              7056    1   ZV1$DCB.ADDR$(DCBNUM(M$LO))=DCBADDR(DCBNUM(M$LO));

   7056 17 000024   000000 236007 xsym               LDQ     M$LO,DL
        17 000025   200004 756100                    STQ     4,,AUTO
        17 000026   000000 236007 xsym               LDQ     M$LO,DL
        17 000027   100000 236106                    LDQ     0,QL,PR1
        17 000030   200004 720100                    LXL0    4,,AUTO
        17 000031   000001 756010 16                 STQ     ZV1$DCB+1,X0

      188     7058         %INIT$DCB(DCBN=M$DO,FCG=Z8PS);
              7059    1    Z8PS$M$DO#=DCBNUM(M$DO);

   7059 17 000032   000000 236007 xsym               LDQ     M$DO,DL
        17 000033   000000 756000 xsym               STQ     Z8PS$M$DO#

              7060    1    Z8PS$M$DO$=DCBADDR(DCBNUM(M$DO));

   7060 17 000034   000000 236007 xsym               LDQ     M$DO,DL
        17 000035   100000 236106                    LDQ     0,QL,PR1
        17 000036   000000 756000 xsym               STQ     Z8PS$M$DO$

              7061    1   ZV1$DCB.ADDR$(DCBNUM(M$DO))=DCBADDR(DCBNUM(M$DO));

   7061 17 000037   000000 236007 xsym               LDQ     M$DO,DL
        17 000040   200004 756100                    STQ     4,,AUTO
        17 000041   000000 236007 xsym               LDQ     M$DO,DL
        17 000042   100000 236106                    LDQ     0,QL,PR1
        17 000043   200004 720100                    LXL0    4,,AUTO
        17 000044   000001 756010 16                 STQ     ZV1$DCB+1,X0

      189     7063         %IF '1'B;
      190     7064         %INIT$DCB(DCBN=M$SO,FCG=Z8PS);
              7065    1    Z8PS$M$SO#=DCBNUM(M$SO);
PL6.E3A0      #001=Z9P8$DCBS File=Z9P8.:Z8A6TSI                                  SAT 08/09/97 09:46 Page:62

   7065 17 000045   000000 236007 xsym               LDQ     M$SO,DL
        17 000046   000000 756000 xsym               STQ     Z8PS$M$SO#

              7066    1    Z8PS$M$SO$=DCBADDR(DCBNUM(M$SO));

   7066 17 000047   000000 236007 xsym               LDQ     M$SO,DL
        17 000050   100000 236106                    LDQ     0,QL,PR1
        17 000051   000000 756000 xsym               STQ     Z8PS$M$SO$

              7067    1   ZV1$DCB.ADDR$(DCBNUM(M$SO))=DCBADDR(DCBNUM(M$SO));

   7067 17 000052   000000 236007 xsym               LDQ     M$SO,DL
        17 000053   200004 756100                    STQ     4,,AUTO
        17 000054   000000 236007 xsym               LDQ     M$SO,DL
        17 000055   100000 236106                    LDQ     0,QL,PR1
        17 000056   200004 720100                    LXL0    4,,AUTO
        17 000057   000001 756010 16                 STQ     ZV1$DCB+1,X0

      191     7069         %ENDIF;
      192     7070         %IF '0'B;
      193     7071 C       %INIT$DCB(DCBN=M$SO,FCG=ZVU);
      194     7072 C       %INIT$DCB(DCBN=M$SI,FCG=ZVU);
      195     7073 C       %INIT$DCB(DCBN=M$UI,FCG=ZVU);
      196     7074 C       %INIT$DCB(DCBN=M$OPTION,FCG=Z8PS);
      197     7075 C       %INIT$DCB(DCBN=M$ER,FCG=ZVM);
      198     7076 C       %INIT$DCB(DCBN=M$UM,FCG=ZVU);
      199     7077 C       %INIT$DCB(DCBN=M$UP,FCG=ZVU);
      200     7078 C       %INIT$DCB(DCBN=M$INCLUDE,FCG=ZVU);
      201     7079 C       %INIT$DCB(DCBN=M$UO,FCG=ZVU);
      202     7080 C       %INIT$DCB(DCBN=M$DEBUGO,FCG=ZWI);
      203     7081 C       %INIT$DCB(DCBN=M$DF,FCG=ZWI);
      204     7082         %ENDIF;
      205     7083    1   RETURN;

   7083 17 000060   000000 702200 xent               TSX2  ! X66_ARET
      206     7084    1   END Z9P8$DCBS;
PL6.E3A0      #001=Z9P8$DCBS File=Z9P8.:Z8A6TSI                                  SAT 08/09/97 09:46 Page:63

PL6.E3A0      #001=Z9P8$DCBS File=Z9P8.:Z8A6TSI                                  SAT 08/09/97 09:46 Page:64
--  Include file information  --

   Z9P_IO_EXT.:Z8A6TOU  cannot be made into a system file and is referenced.
   CP_6_SUBS.:LIB_E04  is referenced.
   CP_6_C.:LIB_E04  is referenced.
   CP_6.:LIB_E04  cannot be made into a system file and is referenced.
   Z9A_FLAGS.:Z8A6TOU  is referenced.
   Z8A_SYS_FILE.:Z8A6TOU  is referenced.
      No diagnostics issued in procedure Z9P8$DCBS.
PL6.E3A0      #001=Z9P8$DCBS File=Z9P8.:Z8A6TSI                                  SAT 08/09/97 09:46 Page:65

 **** Variables and constants ****

  ****  Section 001 LblCom OUT_DCBN

  ****  Scalars and arrays  ****
OctLoc.c.b A Datatyp(siz) R M Lvl/name                 OctLoc.c.b A Datatyp(siz) R M Lvl/name

     0-0-0/w SBIN              1 OUT_DCBN

  ****  Section 002 LblCom SAVE_OUT_DCBN

  ****  Scalars and arrays  ****
OctLoc.c.b A Datatyp(siz) R M Lvl/name                 OctLoc.c.b A Datatyp(siz) R M Lvl/name

     0-0-0/w SBIN              1 SAVE_OUT_DCBN

  ****  Section 003 LblCom SAVE_DCBN2

  ****  Scalars and arrays  ****
OctLoc.c.b A Datatyp(siz) R M Lvl/name                 OctLoc.c.b A Datatyp(siz) R M Lvl/name

     0-0-0/w SBIN              1 SAVE_DCBN2

  ****  Section 016  Data  Z9P8$DCBS

  ****  Scalars and arrays  ****
OctLoc.c.b A Datatyp(siz) R M Lvl/name                 OctLoc.c.b A Datatyp(siz) R M Lvl/name

     0-0-0/w STRC(792)   r     1 ZV1$DCB

  ****  SYMREF variables  ****

  ****  Scalars and arrays  ****
OctLoc.c.b A Datatyp(siz) R M Lvl/name                 OctLoc.c.b A Datatyp(siz) R M Lvl/name

     0-0-0/w UBIN        r     1 Z8PS$M$DO#                 0-0-0/w PTR         r     1 Z8PS$M$DO$
     0-0-0/w UBIN        r     1 Z8PS$M$LO#                 0-0-0/w PTR         r     1 Z8PS$M$LO$
PL6.E3A0      #001=Z9P8$DCBS File=Z9P8.:Z8A6TSI                                  SAT 08/09/97 09:46 Page:66
     0-0-0/w UBIN        r     1 Z8PS$M$OU#                 0-0-0/w PTR         r     1 Z8PS$M$OU$
     0-0-0/w UBIN        r     1 Z8PS$M$SO#                 0-0-0/w PTR         r     1 Z8PS$M$SO$

  ****  BASED and DCB variables  ****

  ****  Scalars and arrays  ****
OctLoc.c.b A Datatyp(siz) R M Lvl/name                 OctLoc.c.b A Datatyp(siz) R M Lvl/name

     0-0-0N  NULL        r     1 F$DO                       0-0-0N  NULL        r     1 F$LO
     0-0-0N  NULL        r     1 F$OU                       0-0-0N  NULL        r     1 F$SI
     0-0-0N  NULL        r     1 F$SO                       0-0-0N  NULL        r     1 F$UI
     0-0-0N  NULL        r     1 M$DO                       0-0-0/d ASTR(3528)  r     1 M$LO
     0-0-0/d ASTR(3528)  r     1 M$OU                       0-0-0/d ASTR(3528)  r     1 M$SI
     0-0-0/d ASTR(3528)  r     1 M$SO                       0-0-0N  NULL        r     1 M$UC
     0-0-0/d ASTR(3528)  r     1 M$UI


   Procedure Z9P8$DCBS requires 49 words for executable code.
   Procedure Z9P8$DCBS requires 6 words of local(AUTO) storage.

    No errors detected in file Z9P8.:Z8A6TSI    .
