
 10:08 08/22/97  FILE=zb6$xuo_vector:a                                                                   1    BMAP - B00
                                         1  *m*   NAME: zb6$xuo_vector:g
                                         2  *     PURPOSE: This routine is simply transfers control to
                                         3  *     the xuo routines. It is an interface routine to get to
                                         4  *     the xuo library routines without doing anything special
                                         5  *     in this routine.
                                         6  *
                                         7        ENTREF XUO$BUFINIT
                                         8        ENTREF XUO$EDEF
                                         9        ENTREF XUO$EREF
                                        10        ENTREF XUO$HEAD_SEVERITY
                                        11        ENTREF XUO$PRGM
                                        12        ENTREF XUO$RELOC
                                        13        ENTREF XUO$SDEF
                                        14        ENTREF XUO$SECTBUILD
                                        15        ENTREF XUO$INTNTRY
                                        16        ENTREF XUO$SECTNAME
                                        17        ENTREF XUO$SECTSIZE
                                        18        ENTREF XUO$SEGREF
                                        19        ENTREF XUO$SREF
                                        20        ENTREF XUO$LOGBLKALLOC
                                        21        ENTREF XUO$EXSTNUM
                                        22        ENTREF XUO$LOGBLKTERM
                                        23        ENTREF XUO$LOGBLKEXSTINIT
                                        24        ENTREF XUO$LOGBLKEXSTTERM
                                        25        ENTREF XUO$EXST
                                        26        ENTREF XUO$VREBLNUM
                                        27        ENTREF XUO$LOGBLKVREBLINIT
                                        28        ENTREF XUO$LOGBLKVREBLTERM
                                        29        ENTREF XUO$HEADNAME
                                        30        ENTREF XUO$OUTERM
                                        31        ENTREF XUO$OUINIT
                                        32        ENTREF XUO$FRWD_REF
                                        33        ENTREF ZPC$UNGMAP
                                        34        ENTREF XUO$DNAME
                                        35        ENTREF XUO$RNAME
                                        36        ENTREF XUO$HEADSTART
                                        37        ENTREF XUO$VREBL
 10:08 08/22/97  FILE=zb6$xuo_vector:a                                                                   2    BMAP - B00
                                        38        ENTREF XUO$VREBL_CONT
                                        39        ENTREF XUO$VREBL_CONT_ET
                                        40        ENTREF XUO$DBGNAME
                                        41
                                        42  *    ENTRY POINT DEFS FOLLOW...
                                        43        ENTDEF XUO_BUFINIT
                                        44        ENTDEF XUO_EDEF
                                        45        ENTDEF XUO_EREF
                                        46        ENTDEF XUO_HEAD_SEVERITY
                                        47        ENTDEF XUO_PRGM
                                        48        ENTDEF XUO_RELOC
                                        49        ENTDEF XUO_SDEF
                                        50        ENTDEF XUO_SECTBUILD
                                        51        ENTDEF XUO_INTNTRY
                                        52        ENTDEF XUO_SECTNAME
                                        53        ENTDEF XUO_SECTSIZE
                                        54        ENTDEF XUO_SEGREF
                                        55        ENTDEF XUO_SREF
                                        56        ENTDEF XUO_LOGBLKALLOC
                                        57        ENTDEF XUO_EXSTNUM
                                        58        ENTDEF XUO_LOGBLKTERM
                                        59        ENTDEF XUO_LOGBLKEXSTINIT
                                        60        ENTDEF XUO_LOGBLKEXSTTERM
                                        61        ENTDEF XUO_EXST
                                        62        ENTDEF XUO_VREBLNUM
                                        63        ENTDEF XUO_LOGBLKVREBLINIT
                                        64        ENTDEF XUO_LOGBLKVREBLTERM
                                        65        ENTDEF XUO_HEADNAME
                                        66        ENTDEF XUO_OUTERM
                                        67        ENTDEF XUO_FRWD_REF
                                        68        ENTDEF ZPC_UNGMAP
                                        69        ENTDEF XUO_DNAME
                                        70        ENTDEF XUO_RNAME
                                        71        ENTDEF XUO_HEADSTART
                                        72        ENTDEF XUO_VREBL
                                        73        ENTDEF XUO_VREBL_CONT
                                        74        ENTDEF XUO_VREBL_CONT_ET
 10:08 08/22/97  FILE=zb6$xuo_vector:a                                                                   3    BMAP - B00
                                        75        ENTDEF XUO_DBGNAME
                                        76  *    Code follows that the entry points will transfer to...
                                        77  *
 0 000000                               78  XUO_BUFINIT   NULL
   000000  X 000000 7100 00             79       TRA   XUO$BUFINIT
   000001                               80  XUO_EDEF   NULL
   000001  X 000000 7100 00             81       TRA   XUO$EDEF
                                        82        ENTDEF XUO_OUINIT
   000002                               83  XUO_EREF   NULL
   000002  X 000000 7100 00             84       TRA   XUO$EREF
   000003                               85  XUO_HEAD_SEVERITY   NULL
   000003  X 000000 7100 00             86       TRA   XUO$HEAD_SEVERITY
   000004                               87  XUO_PRGM   NULL
   000004  X 000000 7100 00             88       TRA   XUO$PRGM
   000005                               89  XUO_RELOC   NULL
   000005  X 000000 7100 00             90       TRA   XUO$RELOC
   000006                               91  XUO_SDEF   NULL
   000006  X 000000 7100 00             92       TRA   XUO$SDEF
   000007                               93  XUO_SECTBUILD   NULL
   000007  X 000000 7100 00             94       TRA   XUO$SECTBUILD
   000010                               95  XUO_INTNTRY   NULL
   000010  X 000000 7100 00             96       TRA   XUO$INTNTRY
   000011                               97  XUO_SECTNAME   NULL
   000011  X 000000 7100 00             98       TRA   XUO$SECTNAME
   000012                               99  XUO_SECTSIZE   NULL
   000012  X 000000 7100 00            100       TRA   XUO$SECTSIZE
   000013                              101  XUO_SEGREF   NULL
   000013  X 000000 7100 00            102       TRA   XUO$SEGREF
   000014                              103  XUO_SREF   NULL
   000014  X 000000 7100 00            104       TRA   XUO$SREF
   000015                              105  XUO_LOGBLKALLOC   NULL
   000015  X 000000 7100 00            106       TRA   XUO$LOGBLKALLOC
   000016                              107  XUO_EXSTNUM   NULL
   000016  X 000000 7100 00            108       TRA   XUO$EXSTNUM
   000017                              109  XUO_LOGBLKTERM   NULL
   000017  X 000000 7100 00            110       TRA   XUO$LOGBLKTERM
   000020                              111  XUO_LOGBLKEXSTINIT   NULL
 10:08 08/22/97  FILE=zb6$xuo_vector:a                                                                   4    BMAP - B00
   000020  X 000000 7100 00            112       TRA   XUO$LOGBLKEXSTINIT
   000021                              113  XUO_LOGBLKEXSTTERM   NULL
   000021  X 000000 7100 00            114       TRA   XUO$LOGBLKEXSTTERM
   000022                              115  XUO_EXST   NULL
   000022  X 000000 7100 00            116       TRA   XUO$EXST
   000023                              117  XUO_VREBLNUM   NULL
   000023  X 000000 7100 00            118       TRA   XUO$VREBLNUM
   000024                              119  XUO_LOGBLKVREBLINIT   NULL
   000024  X 000000 7100 00            120       TRA   XUO$LOGBLKVREBLINIT
   000025                              121  XUO_LOGBLKVREBLTERM   NULL
   000025  X 000000 7100 00            122       TRA   XUO$LOGBLKVREBLTERM
   000026                              123  XUO_HEADNAME   NULL
   000026  X 000000 7100 00            124       TRA   XUO$HEADNAME
   000027                              125  XUO_OUTERM   NULL
   000027  X 000000 7100 00            126       TRA   XUO$OUTERM
   000030                              127  XUO_OUINIT   NULL
   000030  X 000000 7100 00            128       TRA   XUO$OUINIT
   000031                              129  XUO_FRWD_REF   NULL
   000031  X 000000 7100 00            130       TRA   XUO$FRWD_REF
   000032                              131  ZPC_UNGMAP   NULL
   000032  X 000000 7100 00            132       TRA   ZPC$UNGMAP
   000033                              133  XUO_DNAME   NULL
   000033  X 000000 7100 00            134       TRA   XUO$DNAME
   000034                              135  XUO_RNAME   NULL
   000034  X 000000 7100 00            136       TRA   XUO$RNAME
   000035                              137  XUO_HEADSTART   NULL
   000035  X 000000 7100 00            138       TRA   XUO$HEADSTART
   000036                              139  XUO_VREBL   NULL
   000036  X 000000 7100 00            140       TRA   XUO$VREBL
   000037                              141  XUO_VREBL_CONT   NULL
   000037  X 000000 7100 00            142       TRA   XUO$VREBL_CONT
   000040                              143  XUO_VREBL_CONT_ET   NULL
   000040  X 000000 7100 00            144       TRA   XUO$VREBL_CONT_ET
   000041                              145  XUO_DBGNAME   NULL
   000041  X 000000 7100 00            146       TRA   XUO$DBGNAME
                                       147       END

 10:08 08/22/97  FILE=zb6$xuo_vector:a                                                                   5    BMAP - B00
  CONTROL SECTION TABLE

   0 CODE   EVEN  000042
   1 RODATA EVEN  000000 LITERALS

      68 SYMBOLS

       0 MACROS

    SYMBOL SPACE USED   570 WORDS
     MACRO SPACE USED     0 WORDS
   INPUT RECORDS READ   294
 STATEMENTS PROCESSED   172
         ELAPSED TIME  0:00.92
             CPU TIME     0.66 SEC.
        ASSEMBLY RATE 15636 STATEMENTS/CPU MIN.

      NO ERRORS

