

CC.C03    File=zbc$expression:c.:ZBC3TOU                                            Fri Aug 22 1997  Page=1
        1         1             /* LLgen generated code from source zbc$expression:c.:ZBC3TOU */
        2         2             /* $Header: incl,v 2.2 87/02/16 21:35:40 ceriel Exp $ */
        3         3             #ifdef LL_DEBUG
        4         4   *S*       #define LL_assert(x) if(!(x)) LL_badassertion("x",__FILE__,__LINE__)
        5         5   *S*       #else
        6         6             #define LL_assert(x)  /* nothing */
        7         7             #endif
        8         8
        9         9             extern int LLsymb;
       10        10             extern char LLsets[];
       11        11
       12        12             #define LL_SAFE(x) /* Nothing */
       13        13             #define LL_SSCANDONE(x)  if (LLsymb != x) LLerror(x); else
       14        14             #define LL_SCANDONE(x)   if (LLsymb != x) LLerror(x); else
       15        15             #define LL_T_NOSCANDONE(x)  LLscan(x)
       16        16
       17        17             # include "Lpars:h"
       18        18
       19        19             extern unsigned int LLscnt[];
       20        20             extern unsigned int LLtcnt[];
       21        21             extern int LLcsymb;
       22        22             extern int LL_symb;
       23        23
       24        24             #define LLsdecr(d) {LL_assert(LLscnt[d] > 0); LLscnt[d]--;}
       25        25             #define LLtdecr(d) {LL_assert(LLtcnt[d] > 0); LLtcnt[d]--;}
       26        26             #define LLsincr(d) LLscnt[d]++
       27        27             #define LLtincr(d) LLtcnt[d]++
       28        28
       29        29             #define first_of_type_specifier(x) LLfirst((x), 0)
       30        30             # line 8 "zbc$expression:g.:ZBC3TOU"
       31        31
       32        32             #include "arith:h"
       33        33             #include "LLlex:h"
       34        34             #include "type:h"
       35        35             #include "idf:h"
       36        36             #include "label:h"
       37        37             #include "expr:h"
CC.C03    File=zbc$expression:c.:ZBC3TOU                                            Fri Aug 22 1997  Page=2
       38        38             #include "noRoption:h"
       39        39             #include "declar:h"
       40        40
       41        41             extern char options[];
       42        42             extern struct expr *intexpr();
       43        43             L52_primary (
       44        44             # line 23 "zbc$expression:g.:ZBC3TOU"
       45        45              expp) register struct expr **expp; {
       46        46    1        # line 23 "zbc$expression:g.:ZBC3TOU"
       47        47    1        register int first_time = 1;
       48        48    1        switch(LLcsymb) {
       49        49    2        default:
       50        50    2        LL_SSCANDONE(IDENTIFIER);
       51        51    2        # line 25 "zbc$expression:g.:ZBC3TOU"
       52        52    2        {dot2expr(expp);}
       53        53    2        LLread();
       54        54    2        break;
       55        55    2        case /*  INTEGER  */ 5 : ;
       56        56    2        case /*  FLOATING  */ 6 : ;
       57        57    2        L53_constant(
       58        58    2        # line 27 "zbc$expression:g.:ZBC3TOU"
       59        59    2        expp);
       60        60    2        LLread();
       61        61    2        break;
       62        62    2        case /*  STRING  */ 3 : ;
       63        63    2        LLtincr(3);
       64        64    2        for (;;) {
       65        65    3        LL_SAFE(STRING);
       66        66    3        # line 31 "zbc$expression:g.:ZBC3TOU"
       67        67    3        {
       68        68    4           if (first_time) {
       69        69    5              dot2expr(expp);
       70        70    5              first_time = 0;
       71        71    5           }
       72        72    4           else {
       73        73    5              concat2expr(expp);
       74        74    5           }
CC.C03    File=zbc$expression:c.:ZBC3TOU                                            Fri Aug 22 1997  Page=3
       75        75    4         }
       76        76    3        LLread();
       77        77    3        L_4 : switch(LLcsymb) {
       78        78    4        case /*  EOFILE  */ 0 : ;
       79        79    4        case /*  TYPE_IDENTIFIER  */ 2 : ;
       80        80    4        case /*  NOTEQUAL  */ 7 : ;
       81        81    4        case /*  AND  */ 8 : ;
       82        82    4        case /*  PLUSPLUS  */ 9 : ;
       83        83    4        case /*  MINMIN  */ 10 : ;
       84        84    4        case /*  ARROW  */ 11 : ;
       85        85    4        case /*  LEFT  */ 12 : ;
       86        86    4        case /*  LESSEQ  */ 13 : ;
       87        87    4        case /*  EQUAL  */ 14 : ;
       88        88    4        case /*  GREATEREQ  */ 15 : ;
       89        89    4        case /*  RIGHT  */ 16 : ;
       90        90    4        case /*  OR  */ 17 : ;
       91        91    4        case /*  AUTO  */ 19 : ;
       92        92    4        case /*  ENUM  */ 26 : ;
       93        93    4        case /*  EXTERN  */ 27 : ;
       94        94    4        case /*  LONG  */ 31 : ;
       95        95    4        case /*  REGISTER  */ 32 : ;
       96        96    4        case /*  SHORT  */ 34 : ;
       97        97    4        case /*  STATIC  */ 37 : ;
       98        98    4        case /*  STRUCT  */ 38 : ;
       99        99    4        case /*  TYPEDEF  */ 40 : ;
      100       100    4        case /*  UNION  */ 41 : ;
      101       101    4        case /*  UNSIGNED  */ 42 : ;
      102       102    4        case /*  SIGNED  */ 44 : ;
      103       103    4        case /*  CONST  */ 45 : ;
      104       104    4        case /*  VOLATILE  */ 46 : ;
      105       105    4        case /*  PLUSAB  */ 72 : ;
      106       106    4        case /*  MINAB  */ 73 : ;
      107       107    4        case /*  TIMESAB  */ 74 : ;
      108       108    4        case /*  DIVAB  */ 75 : ;
      109       109    4        case /*  MODAB  */ 76 : ;
      110       110    4        case /*  LEFTAB  */ 77 : ;
      111       111    4        case /*  RIGHTAB  */ 78 : ;
CC.C03    File=zbc$expression:c.:ZBC3TOU                                            Fri Aug 22 1997  Page=4
      112       112    4        case /*  ANDAB  */ 79 : ;
      113       113    4        case /*  XORAB  */ 80 : ;
      114       114    4        case /*  ORAB  */ 81 : ;
      115       115    4        case /* ';' */ 89 : ;
      116       116    4        case /* ',' */ 90 : ;
      117       117    4        case /* '=' */ 91 : ;
      118       118    4        case /* '(' */ 92 : ;
      119       119    4        case /* ')' */ 93 : ;
      120       120    4        case /* '*' */ 94 : ;
      121       121    4        case /* '[' */ 95 : ;
      122       122    4        case /* ']' */ 96 : ;
      123       123    4        case /* '}' */ 98 : ;
      124       124    4        case /* ':' */ 99 : ;
      125       125    4        case /* '.' */ 100 : ;
      126       126    4        case /* '?' */ 101 : ;
      127       127    4        case /* '&' */ 102 : ;
      128       128    4        case /* '-' */ 103 : ;
      129       129    4        case /* '+' */ 104 : ;
      130       130    4        case /* '/' */ 107 : ;
      131       131    4        case /* '%' */ 108 : ;
      132       132    4        case /* '<' */ 109 : ;
      133       133    4        case /* '>' */ 110 : ;
      134       134    4        case /* '^' */ 111 : ;
      135       135    4        case /* '|' */ 112 : ;
      136       136    4        break;
      137       137    4        default:{int LL_22=LLnext(259);
      138       138    5        ;if (!LL_22) {
      139       139    6        break;
      140       140    6        }
      141       141    5        else if (LL_22 & 1) goto L_4;}
      142       142    4        case /*  STRING  */ 3 : ;
      143       143    4        continue;
      144       144    4        }
      145       145    3        LLtdecr(3);
      146       146    3        break;
      147       147    3        }
      148       148    2        break;
CC.C03    File=zbc$expression:c.:ZBC3TOU                                            Fri Aug 22 1997  Page=5
      149       149    2        case /* '(' */ 92 : ;
      150       150    2        LLtincr(93);
      151       151    2        LL_SAFE('(');
      152       152    2        LLread();
      153       153    2        L51_expression(
      154       154    2        # line 42 "zbc$expression:g.:ZBC3TOU"
      155       155    2        expp);
      156       156    2        LLtdecr(93);
      157       157    2        LL_SCANDONE(')');
      158       158    2        # line 43 "zbc$expression:g.:ZBC3TOU"
      159       159    2        {(*expp)->ex_flags |= EX_PARENS;}
      160       160    2        LLread();
      161       161    2        break;
      162       162    2        }
      163       163    1        }
      164       164             L54_secundary (
      165       165             # line 46 "zbc$expression:g.:ZBC3TOU"
      166       166              expp) register struct expr **expp; {
      167       167    1        # line 47 "zbc$expression:g.:ZBC3TOU"
      168       168    1        int oper;
      169       169    1        LLsincr(20);
      170       170    1        L52_primary(
      171       171    1        # line 49 "zbc$expression:g.:ZBC3TOU"
      172       172    1        expp);
      173       173    1        for (;;) {
      174       174    2        L_1 : switch(LLcsymb) {
      175       175    3        case /*  EOFILE  */ 0 : ;
      176       176    3        case /*  TYPE_IDENTIFIER  */ 2 : ;
      177       177    3        case /*  NOTEQUAL  */ 7 : ;
      178       178    3        case /*  AND  */ 8 : ;
      179       179    3        case /*  LEFT  */ 12 : ;
      180       180    3        case /*  LESSEQ  */ 13 : ;
      181       181    3        case /*  EQUAL  */ 14 : ;
      182       182    3        case /*  GREATEREQ  */ 15 : ;
      183       183    3        case /*  RIGHT  */ 16 : ;
      184       184    3        case /*  OR  */ 17 : ;
      185       185    3        case /*  AUTO  */ 19 : ;
CC.C03    File=zbc$expression:c.:ZBC3TOU                                            Fri Aug 22 1997  Page=6
      186       186    3        case /*  ENUM  */ 26 : ;
      187       187    3        case /*  EXTERN  */ 27 : ;
      188       188    3        case /*  LONG  */ 31 : ;
      189       189    3        case /*  REGISTER  */ 32 : ;
      190       190    3        case /*  SHORT  */ 34 : ;
      191       191    3        case /*  STATIC  */ 37 : ;
      192       192    3        case /*  STRUCT  */ 38 : ;
      193       193    3        case /*  TYPEDEF  */ 40 : ;
      194       194    3        case /*  UNION  */ 41 : ;
      195       195    3        case /*  UNSIGNED  */ 42 : ;
      196       196    3        case /*  SIGNED  */ 44 : ;
      197       197    3        case /*  CONST  */ 45 : ;
      198       198    3        case /*  VOLATILE  */ 46 : ;
      199       199    3        case /*  PLUSAB  */ 72 : ;
      200       200    3        case /*  MINAB  */ 73 : ;
      201       201    3        case /*  TIMESAB  */ 74 : ;
      202       202    3        case /*  DIVAB  */ 75 : ;
      203       203    3        case /*  MODAB  */ 76 : ;
      204       204    3        case /*  LEFTAB  */ 77 : ;
      205       205    3        case /*  RIGHTAB  */ 78 : ;
      206       206    3        case /*  ANDAB  */ 79 : ;
      207       207    3        case /*  XORAB  */ 80 : ;
      208       208    3        case /*  ORAB  */ 81 : ;
      209       209    3        case /* ';' */ 89 : ;
      210       210    3        case /* ',' */ 90 : ;
      211       211    3        case /* '=' */ 91 : ;
      212       212    3        case /* ')' */ 93 : ;
      213       213    3        case /* '*' */ 94 : ;
      214       214    3        case /* ']' */ 96 : ;
      215       215    3        case /* '}' */ 98 : ;
      216       216    3        case /* ':' */ 99 : ;
      217       217    3        case /* '?' */ 101 : ;
      218       218    3        case /* '&' */ 102 : ;
      219       219    3        case /* '-' */ 103 : ;
      220       220    3        case /* '+' */ 104 : ;
      221       221    3        case /* '/' */ 107 : ;
      222       222    3        case /* '%' */ 108 : ;
CC.C03    File=zbc$expression:c.:ZBC3TOU                                            Fri Aug 22 1997  Page=7
      223       223    3        case /* '<' */ 109 : ;
      224       224    3        case /* '>' */ 110 : ;
      225       225    3        case /* '^' */ 111 : ;
      226       226    3        case /* '|' */ 112 : ;
      227       227    3        break;
      228       228    3        default:{int LL_23=LLnext(-300);
      229       229    4        ;if (!LL_23) {
      230       230    5        break;
      231       231    5        }
      232       232    4        else if (LL_23 & 1) goto L_1;}
      233       233    3        case /*  PLUSPLUS  */ 9 : ;
      234       234    3        case /*  MINMIN  */ 10 : ;
      235       235    3        case /*  ARROW  */ 11 : ;
      236       236    3        case /* '(' */ 92 : ;
      237       237    3        case /* '[' */ 95 : ;
      238       238    3        case /* '.' */ 100 : ;
      239       239    3        switch(LLcsymb) {
      240       240    4        case /* '[' */ 95 : ;
      241       241    4        L55_index_pack(
      242       242    4        # line 51 "zbc$expression:g.:ZBC3TOU"
      243       243    4        expp);
      244       244    4        break;
      245       245    4        case /* '(' */ 92 : ;
      246       246    4        L56_parameter_pack(
      247       247    4        # line 53 "zbc$expression:g.:ZBC3TOU"
      248       248    4        expp);
      249       249    4        break;
      250       250    4        case /*  ARROW  */ 11 : ;
      251       251    4        case /* '.' */ 100 : ;
      252       252    4        L57_selection(
      253       253    4        # line 55 "zbc$expression:g.:ZBC3TOU"
      254       254    4        expp);
      255       255    4        break;
      256       256    4        default:
      257       257    4        L58_postop(
      258       258    4        # line 57 "zbc$expression:g.:ZBC3TOU"
      259       259    4        &oper);
CC.C03    File=zbc$expression:c.:ZBC3TOU                                            Fri Aug 22 1997  Page=8
      260       260    4        # line 58 "zbc$expression:g.:ZBC3TOU"
      261       261    4        {ch7incr(expp, oper);}
      262       262    4        break;
      263       263    4        }
      264       264    3        LLread();
      265       265    3        continue;
      266       266    3        }
      267       267    2        LLsdecr(20);
      268       268    2        break;
      269       269    2        }
      270       270    1        }
      271       271             L55_index_pack (
      272       272             # line 62 "zbc$expression:g.:ZBC3TOU"
      273       273              expp) struct expr **expp; {
      274       274    1        # line 63 "zbc$expression:g.:ZBC3TOU"
      275       275    1        struct expr *e1;
      276       276    1        LLtincr(96);
      277       277    1        LL_SAFE('[');
      278       278    1        LLread();
      279       279    1        L51_expression(
      280       280    1        # line 65 "zbc$expression:g.:ZBC3TOU"
      281       281    1        &e1);
      282       282    1        LLtdecr(96);
      283       283    1        LL_SCANDONE(']');
      284       284    1        # line 66 "zbc$expression:g.:ZBC3TOU"
      285       285    1        {ch7bin(expp, '[', e1);}
      286       286    1        }
      287       287             L56_parameter_pack (
      288       288             # line 69 "zbc$expression:g.:ZBC3TOU"
      289       289              expp) struct expr **expp; {
      290       290    1        # line 70 "zbc$expression:g.:ZBC3TOU"
      291       291    1        struct expr *e1 = 0;
      292       292    1          struct type *tp = (*expp)->ex_type;
      293       293    1          struct type *tx = tp;
      294       294    1          struct formallist *fm;
      295       295    1        LLsincr(11);
      296       296    1        LLtincr(93);
CC.C03    File=zbc$expression:c.:ZBC3TOU                                            Fri Aug 22 1997  Page=9
      297       297    1        # line 75 "zbc$expression:g.:ZBC3TOU"
      298       298    1        {
      299       299    2            while (tx->tp_fund == POINTER)
      300       300    2               tx = tx->tp_up;
      301       301    2            fm = tx->tp_formal;
      302       302    2         }
      303       303    1        LL_SAFE('(');
      304       304    1        LLread();
      305       305    1        L_1 : switch(LLcsymb) {
      306       306    2        case /* ')' */ 93 : ;
      307       307    2        LLsdecr(11);
      308       308    2        break;
      309       309    2        default:{int LL_24=LLnext(-165);
      310       310    3        ;if (!LL_24) {
      311       311    4        LLsdecr(11);
      312       312    4        break;
      313       313    4        }
      314       314    3        else if (LL_24 & 1) goto L_1;}
      315       315    2        case /*  IDENTIFIER  */ 1 : ;
      316       316    2        case /*  STRING  */ 3 : ;
      317       317    2        case /*  INTEGER  */ 5 : ;
      318       318    2        case /*  FLOATING  */ 6 : ;
      319       319    2        case /*  PLUSPLUS  */ 9 : ;
      320       320    2        case /*  MINMIN  */ 10 : ;
      321       321    2        case /*  SIZEOF  */ 35 : ;
      322       322    2        case /*  ALIGNOF  */ 36 : ;
      323       323    2        case /* '(' */ 92 : ;
      324       324    2        case /* '*' */ 94 : ;
      325       325    2        case /* '&' */ 102 : ;
      326       326    2        case /* '-' */ 103 : ;
      327       327    2        case /* '+' */ 104 : ;
      328       328    2        case /* '!' */ 105 : ;
      329       329    2        case /* '~' */ 106 : ;
      330       330    2        LLsdecr(11);
      331       331    2        L59_parameter_list(
      332       332    2        # line 80 "zbc$expression:g.:ZBC3TOU"
      333       333    2        &e1, fm);
CC.C03    File=zbc$expression:c.:ZBC3TOU                                            Fri Aug 22 1997  Page=10
      334       334    2        }
      335       335    1        LLtdecr(93);
      336       336    1        LL_SCANDONE(')');
      337       337    1        # line 81 "zbc$expression:g.:ZBC3TOU"
      338       338    1        {ch7bin(expp, '(', e1);}
      339       339    1        }
      340       340             L57_selection (
      341       341             # line 84 "zbc$expression:g.:ZBC3TOU"
      342       342              expp) struct expr **expp; {
      343       343    1        # line 85 "zbc$expression:g.:ZBC3TOU"
      344       344    1        int oper; struct idf *idf;
      345       345    1        LLsincr(21);
      346       346    1        switch(LLcsymb) {
      347       347    2        case /* '.' */ 100 : ;
      348       348    2        LL_SAFE('.');
      349       349    2        break;
      350       350    2        default:
      351       351    2        LL_SAFE(ARROW);
      352       352    2        break;
      353       353    2        }
      354       354    1        # line 88 "zbc$expression:g.:ZBC3TOU"
      355       355    1        {oper = DOT;}
      356       356    1        LLread();
      357       357    1        LLsdecr(21);
      358       358    1        L18_identifier(
      359       359    1        # line 89 "zbc$expression:g.:ZBC3TOU"
      360       360    1        &idf);
      361       361    1        # line 90 "zbc$expression:g.:ZBC3TOU"
      362       362    1        {ch7sel(expp, oper, idf);}
      363       363    1        }
      364       364             L59_parameter_list (
      365       365             # line 93 "zbc$expression:g.:ZBC3TOU"
      366       366              expp,fm) struct expr **expp; struct formallist *fm; {
      367       367    1        # line 94 "zbc$expression:g.:ZBC3TOU"
      368       368    1        struct expr *e1 = 0;
      369       369    1          int got_fm = (fm == (struct formallist *)0)? 0 : 1;
      370       370    1          int elips = ((got_fm) ? fm->fl_elips : 0), fmi = 0;
CC.C03    File=zbc$expression:c.:ZBC3TOU                                            Fri Aug 22 1997  Page=11
      371       371    1          struct type *tp = (got_fm) ? fm->fl_type[fmi] : (struct type *)0;
      372       372    1
      373       373    1        LLtincr(90);
      374       374    1        L60_assignment_expression(
      375       375    1        # line 100 "zbc$expression:g.:ZBC3TOU"
      376       376    1        expp);
      377       377    1        # line 101 "zbc$expression:g.:ZBC3TOU"
      378       378    1        {any2formal(expp, PARCOMMA, tp);
      379       379    2         }
      380       380    1        for (;;) {
      381       381    2        L_1 : switch(LLcsymb) {
      382       382    3        case /* ')' */ 93 : ;
      383       383    3        break;
      384       384    3        default:{int LL_25=LLnext(44);
      385       385    4        ;if (!LL_25) {
      386       386    5        break;
      387       387    5        }
      388       388    4        else if (LL_25 & 1) goto L_1;}
      389       389    3        case /* ',' */ 90 : ;
      390       390    3        LL_SAFE(',');
      391       391    3        LLread();
      392       392    3        L60_assignment_expression(
      393       393    3        # line 104 "zbc$expression:g.:ZBC3TOU"
      394       394    3        &e1);
      395       395    3        # line 105 "zbc$expression:g.:ZBC3TOU"
      396       396    3        {if (got_fm)
      397       397    4               if (++fmi >= fm->fl_num)  {
      398       398    5                if (!elips)
      399       399    5                 expr_error(*expp,"Too many arguments supplied for function");
      400       400    5                got_fm = 0, tp = (struct type *)0;
      401       401    5               }
      402       402    4               else tp = fm->fl_type[fmi];
      403       403    4             any2formal(&e1, PARCOMMA, tp);
      404       404    4            }
      405       405    3        # line 114 "zbc$expression:g.:ZBC3TOU"
      406       406    3        {ch7bin(expp, PARCOMMA, e1);}
      407       407    3        continue;
CC.C03    File=zbc$expression:c.:ZBC3TOU                                            Fri Aug 22 1997  Page=12
      408       408    3        }
      409       409    2        LLtdecr(90);
      410       410    2        break;
      411       411    2        }
      412       412    1        # line 116 "zbc$expression:g.:ZBC3TOU"
      413       413    1        { if (got_fm && fm->fl_num > ++fmi)
      414       414    2               expr_error(*expp,"function requires additional arguments");
      415       415    2         }
      416       416    1        }
      417       417             L61_unary (
      418       418             # line 123 "zbc$expression:g.:ZBC3TOU"
      419       419              expp) register struct expr **expp; {
      420       420    1        # line 124 "zbc$expression:g.:ZBC3TOU"
      421       421    1        struct type *tp; int oper;
      422       422    1        L_2:
      423       423    1        switch(LLcsymb) {
      424       424    2        case /* '(' */ 92 : ;
      425       425    2        # line 126 "zbc$expression:g.:ZBC3TOU"
      426       426    2        if (!(first_of_type_specifier(AHEAD))) goto L_1;
      427       427    2        L33_cast(
      428       428    2        # line 127 "zbc$expression:g.:ZBC3TOU"
      429       429    2        &tp);
      430       430    2        LLread();
      431       431    2        L61_unary(
      432       432    2        # line 127 "zbc$expression:g.:ZBC3TOU"
      433       433    2        expp);
      434       434    2        # line 128 "zbc$expression:g.:ZBC3TOU"
      435       435    2        {  ch7cast(expp, CAST, tp);
      436       436    3            (*expp)->ex_flags |= EX_CAST;
      437       437    3         }
      438       438    2        break;
      439       439    2        L_1 : ;
      440       440    2        default:
      441       441    2        switch(LLcsymb) {
      442       442    3        default: if (LLskip()) goto L_2;
      443       443    3        goto L_6;
      444       444    3        case /*  IDENTIFIER  */ 1 : ;
CC.C03    File=zbc$expression:c.:ZBC3TOU                                            Fri Aug 22 1997  Page=13
      445       445    3        case /*  STRING  */ 3 : ;
      446       446    3        case /*  INTEGER  */ 5 : ;
      447       447    3        case /*  FLOATING  */ 6 : ;
      448       448    3        case /* '(' */ 92 : ;
      449       449    3        L_6: ;
      450       450    3        LLsdecr(22);
      451       451    3        L54_secundary(
      452       452    3        # line 132 "zbc$expression:g.:ZBC3TOU"
      453       453    3        expp);
      454       454    3        break;
      455       455    3        case /*  PLUSPLUS  */ 9 : ;
      456       456    3        case /*  MINMIN  */ 10 : ;
      457       457    3        case /* '*' */ 94 : ;
      458       458    3        case /* '&' */ 102 : ;
      459       459    3        case /* '-' */ 103 : ;
      460       460    3        case /* '+' */ 104 : ;
      461       461    3        case /* '!' */ 105 : ;
      462       462    3        case /* '~' */ 106 : ;
      463       463    3        L62_unop(
      464       464    3        # line 134 "zbc$expression:g.:ZBC3TOU"
      465       465    3        &oper);
      466       466    3        LLread();
      467       467    3        L61_unary(
      468       468    3        # line 134 "zbc$expression:g.:ZBC3TOU"
      469       469    3        expp);
      470       470    3        # line 135 "zbc$expression:g.:ZBC3TOU"
      471       471    3        {ch7mon(oper, expp);}
      472       472    3        break;
      473       473    3        case /*  SIZEOF  */ 35 : ;
      474       474    3        case /*  ALIGNOF  */ 36 : ;
      475       475    3        LLsdecr(22);
      476       476    3        L63_size_of(
      477       477    3        # line 137 "zbc$expression:g.:ZBC3TOU"
      478       478    3        expp);
      479       479    3        break;
      480       480    3        }
      481       481    2        }
CC.C03    File=zbc$expression:c.:ZBC3TOU                                            Fri Aug 22 1997  Page=14
      482       482    1        }
      483       483             L63_size_of (
      484       484             # line 140 "zbc$expression:g.:ZBC3TOU"
      485       485              expp) register struct expr **expp; {
      486       486    1        # line 141 "zbc$expression:g.:ZBC3TOU"
      487       487    1         struct type *tp; int func_id;
      488       488    1        LLsincr(22);
      489       489    1        switch(LLcsymb) {
      490       490    2        default:
      491       491    2        LL_SAFE(SIZEOF);
      492       492    2        break;
      493       493    2        case /*  ALIGNOF  */ 36 : ;
      494       494    2        LL_SAFE(ALIGNOF);
      495       495    2        break;
      496       496    2        }
      497       497    1        # line 144 "zbc$expression:g.:ZBC3TOU"
      498       498    1        {  func_id = DOT; }
      499       499    1        LLread();
      500       500    1        L_5:
      501       501    1        switch(LLcsymb) {
      502       502    2        case /* '(' */ 92 : ;
      503       503    2        # line 145 "zbc$expression:g.:ZBC3TOU"
      504       504    2        if (!(first_of_type_specifier(AHEAD))) goto L_4;
      505       505    2        LLsdecr(22);
      506       506    2        L33_cast(
      507       507    2        # line 146 "zbc$expression:g.:ZBC3TOU"
      508       508    2        &tp);
      509       509    2        # line 147 "zbc$expression:g.:ZBC3TOU"
      510       510    2        {
      511       511    3                if (func_id == SIZEOF)
      512       512    3                  *expp = intexpr(size_of_type(tp, "type"), INT);
      513       513    3               else  *expp = intexpr(align_of_type(tp, "type"), INT);
      514       514    3               (*expp)->ex_flags |= EX_SIZEOF;
      515       515    3            }
      516       516    2        LLread();
      517       517    2        break;
      518       518    2        L_4 : ;
CC.C03    File=zbc$expression:c.:ZBC3TOU                                            Fri Aug 22 1997  Page=15
      519       519    2        default: if (LLskip()) goto L_5;
      520       520    2        goto L_6;
      521       521    2        case /*  IDENTIFIER  */ 1 : ;
      522       522    2        case /*  STRING  */ 3 : ;
      523       523    2        case /*  INTEGER  */ 5 : ;
      524       524    2        case /*  FLOATING  */ 6 : ;
      525       525    2        case /*  PLUSPLUS  */ 9 : ;
      526       526    2        case /*  MINMIN  */ 10 : ;
      527       527    2        case /*  SIZEOF  */ 35 : ;
      528       528    2        case /*  ALIGNOF  */ 36 : ;
      529       529    2        case /* '*' */ 94 : ;
      530       530    2        case /* '&' */ 102 : ;
      531       531    2        case /* '-' */ 103 : ;
      532       532    2        case /* '+' */ 104 : ;
      533       533    2        case /* '!' */ 105 : ;
      534       534    2        case /* '~' */ 106 : ;
      535       535    2        L_6: ;
      536       536    2        L61_unary(
      537       537    2        # line 154 "zbc$expression:g.:ZBC3TOU"
      538       538    2        expp);
      539       539    2        # line 155 "zbc$expression:g.:ZBC3TOU"
      540       540    2        {ch7mon(func_id, expp);}
      541       541    2        break;
      542       542    2        }
      543       543    1        }
      544       544             L64_binary_expression (
      545       545             # line 194 "zbc$expression:g.:ZBC3TOU"
      546       546              maxrank,expp) int maxrank; struct expr **expp; {
      547       547    1        # line 195 "zbc$expression:g.:ZBC3TOU"
      548       548    1        int oper; struct expr *e1;
      549       549    1        LLsincr(22);
      550       550    1        LLsincr(23);
      551       551    1        L61_unary(
      552       552    1        # line 197 "zbc$expression:g.:ZBC3TOU"
      553       553    1        expp);
      554       554    1        for (;;) {
      555       555    2        L_1 : switch(LLcsymb) {
CC.C03    File=zbc$expression:c.:ZBC3TOU                                            Fri Aug 22 1997  Page=16
      556       556    3        case /*  NOTEQUAL  */ 7 : ;
      557       557    3        case /*  AND  */ 8 : ;
      558       558    3        case /*  LEFT  */ 12 : ;
      559       559    3        case /*  LESSEQ  */ 13 : ;
      560       560    3        case /*  EQUAL  */ 14 : ;
      561       561    3        case /*  GREATEREQ  */ 15 : ;
      562       562    3        case /*  RIGHT  */ 16 : ;
      563       563    3        case /*  OR  */ 17 : ;
      564       564    3        case /* '*' */ 94 : ;
      565       565    3        case /* '&' */ 102 : ;
      566       566    3        case /* '-' */ 103 : ;
      567       567    3        case /* '+' */ 104 : ;
      568       568    3        case /* '/' */ 107 : ;
      569       569    3        case /* '%' */ 108 : ;
      570       570    3        case /* '<' */ 109 : ;
      571       571    3        case /* '>' */ 110 : ;
      572       572    3        case /* '^' */ 111 : ;
      573       573    3        case /* '|' */ 112 : ;
      574       574    3        # line 198 "zbc$expression:g.:ZBC3TOU"
      575       575    3        if ((rank_of(DOT) <= maxrank && AHEAD != '=')) goto L_2;
      576       576    3        case /*  EOFILE  */ 0 : ;
      577       577    3        case /*  TYPE_IDENTIFIER  */ 2 : ;
      578       578    3        case /*  AUTO  */ 19 : ;
      579       579    3        case /*  ENUM  */ 26 : ;
      580       580    3        case /*  EXTERN  */ 27 : ;
      581       581    3        case /*  LONG  */ 31 : ;
      582       582    3        case /*  REGISTER  */ 32 : ;
      583       583    3        case /*  SHORT  */ 34 : ;
      584       584    3        case /*  STATIC  */ 37 : ;
      585       585    3        case /*  STRUCT  */ 38 : ;
      586       586    3        case /*  TYPEDEF  */ 40 : ;
      587       587    3        case /*  UNION  */ 41 : ;
      588       588    3        case /*  UNSIGNED  */ 42 : ;
      589       589    3        case /*  SIGNED  */ 44 : ;
      590       590    3        case /*  CONST  */ 45 : ;
      591       591    3        case /*  VOLATILE  */ 46 : ;
      592       592    3        case /*  PLUSAB  */ 72 : ;
CC.C03    File=zbc$expression:c.:ZBC3TOU                                            Fri Aug 22 1997  Page=17
      593       593    3        case /*  MINAB  */ 73 : ;
      594       594    3        case /*  TIMESAB  */ 74 : ;
      595       595    3        case /*  DIVAB  */ 75 : ;
      596       596    3        case /*  MODAB  */ 76 : ;
      597       597    3        case /*  LEFTAB  */ 77 : ;
      598       598    3        case /*  RIGHTAB  */ 78 : ;
      599       599    3        case /*  ANDAB  */ 79 : ;
      600       600    3        case /*  XORAB  */ 80 : ;
      601       601    3        case /*  ORAB  */ 81 : ;
      602       602    3        case /* ';' */ 89 : ;
      603       603    3        case /* ',' */ 90 : ;
      604       604    3        case /* '=' */ 91 : ;
      605       605    3        case /* ')' */ 93 : ;
      606       606    3        case /* ']' */ 96 : ;
      607       607    3        case /* '}' */ 98 : ;
      608       608    3        case /* ':' */ 99 : ;
      609       609    3        case /* '?' */ 101 : ;
      610       610    3        break;
      611       611    3        default:{int LL_26=LLnext(-345);
      612       612    4        ;if (!LL_26) {
      613       613    5        break;
      614       614    5        }
      615       615    4        else if (LL_26 & 1) goto L_1;}
      616       616    3        L_2 : ;
      617       617    3        LLsincr(24);
      618       618    3        L65_binop(
      619       619    3        # line 203 "zbc$expression:g.:ZBC3TOU"
      620       620    3        &oper);
      621       621    3        LLread();
      622       622    3        LLsdecr(24);
      623       623    3        L64_binary_expression(
      624       624    3        # line 204 "zbc$expression:g.:ZBC3TOU"
      625       625    3        rank_of(oper)-1, &e1);
      626       626    3        # line 205 "zbc$expression:g.:ZBC3TOU"
      627       627    3        {
      628       628    4               ch7bin(expp, oper, e1);
      629       629    4            }
CC.C03    File=zbc$expression:c.:ZBC3TOU                                            Fri Aug 22 1997  Page=18
      630       630    3        continue;
      631       631    3        }
      632       632    2        LLsdecr(23);
      633       633    2        break;
      634       634    2        }
      635       635    1        }
      636       636             L66_conditional_expression (
      637       637             # line 212 "zbc$expression:g.:ZBC3TOU"
      638       638              expp) struct expr **expp; {
      639       639    1        # line 220 "zbc$expression:g.:ZBC3TOU"
      640       640    1        struct expr *e1 = 0, *e2 = 0;
      641       641    1        LLtincr(101);
      642       642    1        L64_binary_expression(
      643       643    1        # line 223 "zbc$expression:g.:ZBC3TOU"
      644       644    1        rank_of('?') - 1, expp);
      645       645    1        L_1 : switch(LLcsymb) {
      646       646    2        case /*  EOFILE  */ 0 : ;
      647       647    2        case /*  TYPE_IDENTIFIER  */ 2 : ;
      648       648    2        case /*  LEFT  */ 12 : ;
      649       649    2        case /*  RIGHT  */ 16 : ;
      650       650    2        case /*  AUTO  */ 19 : ;
      651       651    2        case /*  ENUM  */ 26 : ;
      652       652    2        case /*  EXTERN  */ 27 : ;
      653       653    2        case /*  LONG  */ 31 : ;
      654       654    2        case /*  REGISTER  */ 32 : ;
      655       655    2        case /*  SHORT  */ 34 : ;
      656       656    2        case /*  STATIC  */ 37 : ;
      657       657    2        case /*  STRUCT  */ 38 : ;
      658       658    2        case /*  TYPEDEF  */ 40 : ;
      659       659    2        case /*  UNION  */ 41 : ;
      660       660    2        case /*  UNSIGNED  */ 42 : ;
      661       661    2        case /*  SIGNED  */ 44 : ;
      662       662    2        case /*  CONST  */ 45 : ;
      663       663    2        case /*  VOLATILE  */ 46 : ;
      664       664    2        case /*  PLUSAB  */ 72 : ;
      665       665    2        case /*  MINAB  */ 73 : ;
      666       666    2        case /*  TIMESAB  */ 74 : ;
CC.C03    File=zbc$expression:c.:ZBC3TOU                                            Fri Aug 22 1997  Page=19
      667       667    2        case /*  DIVAB  */ 75 : ;
      668       668    2        case /*  MODAB  */ 76 : ;
      669       669    2        case /*  LEFTAB  */ 77 : ;
      670       670    2        case /*  RIGHTAB  */ 78 : ;
      671       671    2        case /*  ANDAB  */ 79 : ;
      672       672    2        case /*  XORAB  */ 80 : ;
      673       673    2        case /*  ORAB  */ 81 : ;
      674       674    2        case /* ';' */ 89 : ;
      675       675    2        case /* ',' */ 90 : ;
      676       676    2        case /* '=' */ 91 : ;
      677       677    2        case /* ')' */ 93 : ;
      678       678    2        case /* '*' */ 94 : ;
      679       679    2        case /* ']' */ 96 : ;
      680       680    2        case /* '}' */ 98 : ;
      681       681    2        case /* ':' */ 99 : ;
      682       682    2        case /* '&' */ 102 : ;
      683       683    2        case /* '-' */ 103 : ;
      684       684    2        case /* '+' */ 104 : ;
      685       685    2        case /* '/' */ 107 : ;
      686       686    2        case /* '%' */ 108 : ;
      687       687    2        case /* '^' */ 111 : ;
      688       688    2        case /* '|' */ 112 : ;
      689       689    2        LLtdecr(101);
      690       690    2        break;
      691       691    2        default:{int LL_27=LLnext(63);
      692       692    3        ;if (!LL_27) {
      693       693    4        LLtdecr(101);
      694       694    4        break;
      695       695    4        }
      696       696    3        else if (LL_27 & 1) goto L_1;}
      697       697    2        case /* '?' */ 101 : ;
      698       698    2        LLtdecr(101);
      699       699    2        LLtincr(99);
      700       700    2        LLsincr(25);
      701       701    2        LL_SAFE('?');
      702       702    2        LLread();
      703       703    2        L51_expression(
CC.C03    File=zbc$expression:c.:ZBC3TOU                                            Fri Aug 22 1997  Page=20
      704       704    2        # line 225 "zbc$expression:g.:ZBC3TOU"
      705       705    2        &e1);
      706       706    2        # line 226 "zbc$expression:g.:ZBC3TOU"
      707       707    2        {
      708       708    3        #ifndef NOROPTION
      709       709    3               check_conditional(e1, '?', "between ? and :");
      710       710    3        #endif
      711       711    3            }
      712       712    2        LLtdecr(99);
      713       713    2        LL_SCANDONE(':');
      714       714    2        LLread();
      715       715    2        LLsdecr(25);
      716       716    2        L60_assignment_expression(
      717       717    2        # line 232 "zbc$expression:g.:ZBC3TOU"
      718       718    2        &e2);
      719       719    2        # line 233 "zbc$expression:g.:ZBC3TOU"
      720       720    2        {
      721       721    3        #ifndef NOROPTION
      722       722    3               check_conditional(e2, '=', "after :");
      723       723    3        #endif
      724       724    3               ch7bin(&e1, ':', e2);
      725       725    3               opnd2test(expp, '?');
      726       726    3               ch7bin(expp, '?', e1);
      727       727    3            }
      728       728    2        }
      729       729    1        }
      730       730             L60_assignment_expression (
      731       731             # line 245 "zbc$expression:g.:ZBC3TOU"
      732       732              expp) struct expr **expp; {
      733       733    1        # line 246 "zbc$expression:g.:ZBC3TOU"
      734       734    1
      735       735    1            int oper;
      736       736    1            struct expr *e1 = 0;
      737       737    1
      738       738    1        LLsincr(26);
      739       739    1        L66_conditional_expression(
      740       740    1        # line 251 "zbc$expression:g.:ZBC3TOU"
CC.C03    File=zbc$expression:c.:ZBC3TOU                                            Fri Aug 22 1997  Page=21
      741       741    1        expp);
      742       742    1        L_2:
      743       743    1        switch(LLcsymb) {
      744       744    2        case /*  LEFT  */ 12 : ;
      745       745    2        case /*  RIGHT  */ 16 : ;
      746       746    2        case /*  PLUSAB  */ 72 : ;
      747       747    2        case /*  MINAB  */ 73 : ;
      748       748    2        case /*  TIMESAB  */ 74 : ;
      749       749    2        case /*  DIVAB  */ 75 : ;
      750       750    2        case /*  MODAB  */ 76 : ;
      751       751    2        case /*  LEFTAB  */ 77 : ;
      752       752    2        case /*  RIGHTAB  */ 78 : ;
      753       753    2        case /*  ANDAB  */ 79 : ;
      754       754    2        case /*  XORAB  */ 80 : ;
      755       755    2        case /*  ORAB  */ 81 : ;
      756       756    2        case /* '=' */ 91 : ;
      757       757    2        case /* '*' */ 94 : ;
      758       758    2        case /* '&' */ 102 : ;
      759       759    2        case /* '-' */ 103 : ;
      760       760    2        case /* '+' */ 104 : ;
      761       761    2        case /* '/' */ 107 : ;
      762       762    2        case /* '%' */ 108 : ;
      763       763    2        case /* '^' */ 111 : ;
      764       764    2        case /* '|' */ 112 : ;
      765       765    2        LLsdecr(26);
      766       766    2        LLsincr(25);
      767       767    2        L67_asgnop(
      768       768    2        # line 253 "zbc$expression:g.:ZBC3TOU"
      769       769    2        &oper);
      770       770    2        LLread();
      771       771    2        LLsdecr(25);
      772       772    2        L60_assignment_expression(
      773       773    2        # line 254 "zbc$expression:g.:ZBC3TOU"
      774       774    2        &e1);
      775       775    2        # line 255 "zbc$expression:g.:ZBC3TOU"
      776       776    2        {ch7asgn(expp, oper, e1);}
      777       777    2        break;
CC.C03    File=zbc$expression:c.:ZBC3TOU                                            Fri Aug 22 1997  Page=22
      778       778    2        default: if (LLskip()) goto L_2;
      779       779    2        goto L_3;
      780       780    2        case /*  EOFILE  */ 0 : ;
      781       781    2        case /*  TYPE_IDENTIFIER  */ 2 : ;
      782       782    2        case /*  AUTO  */ 19 : ;
      783       783    2        case /*  ENUM  */ 26 : ;
      784       784    2        case /*  EXTERN  */ 27 : ;
      785       785    2        case /*  LONG  */ 31 : ;
      786       786    2        case /*  REGISTER  */ 32 : ;
      787       787    2        case /*  SHORT  */ 34 : ;
      788       788    2        case /*  STATIC  */ 37 : ;
      789       789    2        case /*  STRUCT  */ 38 : ;
      790       790    2        case /*  TYPEDEF  */ 40 : ;
      791       791    2        case /*  UNION  */ 41 : ;
      792       792    2        case /*  UNSIGNED  */ 42 : ;
      793       793    2        case /*  SIGNED  */ 44 : ;
      794       794    2        case /*  CONST  */ 45 : ;
      795       795    2        case /*  VOLATILE  */ 46 : ;
      796       796    2        case /* ';' */ 89 : ;
      797       797    2        case /* ',' */ 90 : ;
      798       798    2        case /* ')' */ 93 : ;
      799       799    2        case /* ']' */ 96 : ;
      800       800    2        case /* '}' */ 98 : ;
      801       801    2        case /* ':' */ 99 : ;
      802       802    2        L_3: ;
      803       803    2        LLsdecr(26);
      804       804    2        break;
      805       805    2        }
      806       806    1        }
      807       807             L51_expression (
      808       808             # line 262 "zbc$expression:g.:ZBC3TOU"
      809       809              expp) struct expr **expp; {
      810       810    1        # line 263 "zbc$expression:g.:ZBC3TOU"
      811       811    1        struct expr *e1;
      812       812    1        LLtincr(90);
      813       813    1        L60_assignment_expression(
      814       814    1        # line 265 "zbc$expression:g.:ZBC3TOU"
CC.C03    File=zbc$expression:c.:ZBC3TOU                                            Fri Aug 22 1997  Page=23
      815       815    1        expp);
      816       816    1        for (;;) {
      817       817    2        L_1 : switch(LLcsymb) {
      818       818    3        case /* ';' */ 89 : ;
      819       819    3        case /* ')' */ 93 : ;
      820       820    3        case /* ']' */ 96 : ;
      821       821    3        case /* ':' */ 99 : ;
      822       822    3        break;
      823       823    3        default:{int LL_28=LLnext(44);
      824       824    4        ;if (!LL_28) {
      825       825    5        break;
      826       826    5        }
      827       827    4        else if (LL_28 & 1) goto L_1;}
      828       828    3        case /* ',' */ 90 : ;
      829       829    3        LL_SAFE(',');
      830       830    3        LLread();
      831       831    3        L60_assignment_expression(
      832       832    3        # line 267 "zbc$expression:g.:ZBC3TOU"
      833       833    3        &e1);
      834       834    3        # line 268 "zbc$expression:g.:ZBC3TOU"
      835       835    3        {
      836       836    4               ch7bin(expp, ',', e1);
      837       837    4            }
      838       838    3        continue;
      839       839    3        }
      840       840    2        LLtdecr(90);
      841       841    2        break;
      842       842    2        }
      843       843    1        }
      844       844             L62_unop (
      845       845             # line 274 "zbc$expression:g.:ZBC3TOU"
      846       846              oper) int *oper; {
      847       847    1        switch(LLcsymb) {
      848       848    2        case /* '*' */ 94 : ;
      849       849    2        LL_SAFE('*');
      850       850    2        break;
      851       851    2        case /* '&' */ 102 : ;
CC.C03    File=zbc$expression:c.:ZBC3TOU                                            Fri Aug 22 1997  Page=24
      852       852    2        LL_SAFE('&');
      853       853    2        break;
      854       854    2        case /* '-' */ 103 : ;
      855       855    2        LL_SAFE('-');
      856       856    2        break;
      857       857    2        case /* '+' */ 104 : ;
      858       858    2        LL_SAFE('+');
      859       859    2        break;
      860       860    2        case /* '!' */ 105 : ;
      861       861    2        LL_SAFE('!');
      862       862    2        break;
      863       863    2        case /* '~' */ 106 : ;
      864       864    2        LL_SAFE('~');
      865       865    2        break;
      866       866    2        default:
      867       867    2        LL_SAFE(PLUSPLUS);
      868       868    2        break;
      869       869    2        case /*  MINMIN  */ 10 : ;
      870       870    2        LL_SAFE(MINMIN);
      871       871    2        break;
      872       872    2        }
      873       873    1        # line 276 "zbc$expression:g.:ZBC3TOU"
      874       874    1        {*oper = DOT;}
      875       875    1        }
      876       876             L58_postop (
      877       877             # line 279 "zbc$expression:g.:ZBC3TOU"
      878       878              oper) int *oper; {
      879       879    1        switch(LLcsymb) {
      880       880    2        default:
      881       881    2        LL_SAFE(PLUSPLUS);
      882       882    2        # line 280 "zbc$expression:g.:ZBC3TOU"
      883       883    2        {*oper = POSTINCR;}
      884       884    2        break;
      885       885    2        case /*  MINMIN  */ 10 : ;
      886       886    2        LL_SAFE(MINMIN);
      887       887    2        # line 282 "zbc$expression:g.:ZBC3TOU"
      888       888    2        {*oper = POSTDECR;}
CC.C03    File=zbc$expression:c.:ZBC3TOU                                            Fri Aug 22 1997  Page=25
      889       889    2        break;
      890       890    2        }
      891       891    1        }
      892       892             L68_multop (
      893       893             ) {
      894       894    1        switch(LLcsymb) {
      895       895    2        default:
      896       896    2        LL_SAFE('*');
      897       897    2        break;
      898       898    2        case /* '/' */ 107 : ;
      899       899    2        LL_SAFE('/');
      900       900    2        break;
      901       901    2        case /* '%' */ 108 : ;
      902       902    2        LL_SAFE('%');
      903       903    2        break;
      904       904    2        }
      905       905    1        }
      906       906             L69_addop (
      907       907             ) {
      908       908    1        switch(LLcsymb) {
      909       909    2        case /* '+' */ 104 : ;
      910       910    2        LL_SAFE('+');
      911       911    2        break;
      912       912    2        default:
      913       913    2        LL_SAFE('-');
      914       914    2        break;
      915       915    2        }
      916       916    1        }
      917       917             L70_shiftop (
      918       918             ) {
      919       919    1        switch(LLcsymb) {
      920       920    2        default:
      921       921    2        LL_SAFE(LEFT);
      922       922    2        break;
      923       923    2        case /*  RIGHT  */ 16 : ;
      924       924    2        LL_SAFE(RIGHT);
      925       925    2        break;
CC.C03    File=zbc$expression:c.:ZBC3TOU                                            Fri Aug 22 1997  Page=26
      926       926    2        }
      927       927    1        }
      928       928             L71_relop (
      929       929             ) {
      930       930    1        switch(LLcsymb) {
      931       931    2        case /* '<' */ 109 : ;
      932       932    2        LL_SAFE('<');
      933       933    2        break;
      934       934    2        case /* '>' */ 110 : ;
      935       935    2        LL_SAFE('>');
      936       936    2        break;
      937       937    2        default:
      938       938    2        LL_SAFE(LESSEQ);
      939       939    2        break;
      940       940    2        case /*  GREATEREQ  */ 15 : ;
      941       941    2        LL_SAFE(GREATEREQ);
      942       942    2        break;
      943       943    2        }
      944       944    1        }
      945       945             L72_eqop (
      946       946             ) {
      947       947    1        switch(LLcsymb) {
      948       948    2        case /*  EQUAL  */ 14 : ;
      949       949    2        LL_SAFE(EQUAL);
      950       950    2        break;
      951       951    2        default:
      952       952    2        LL_SAFE(NOTEQUAL);
      953       953    2        break;
      954       954    2        }
      955       955    1        }
      956       956             L73_arithop (
      957       957             ) {
      958       958    1        switch(LLcsymb) {
      959       959    2        case /* '*' */ 94 : ;
      960       960    2        case /* '/' */ 107 : ;
      961       961    2        case /* '%' */ 108 : ;
      962       962    2        L68_multop(
CC.C03    File=zbc$expression:c.:ZBC3TOU                                            Fri Aug 22 1997  Page=27
      963       963    2        );
      964       964    2        break;
      965       965    2        case /* '-' */ 103 : ;
      966       966    2        case /* '+' */ 104 : ;
      967       967    2        L69_addop(
      968       968    2        );
      969       969    2        break;
      970       970    2        default:
      971       971    2        L70_shiftop(
      972       972    2        );
      973       973    2        break;
      974       974    2        case /* '&' */ 102 : ;
      975       975    2        LL_SAFE('&');
      976       976    2        break;
      977       977    2        case /* '^' */ 111 : ;
      978       978    2        LL_SAFE('^');
      979       979    2        break;
      980       980    2        case /* '|' */ 112 : ;
      981       981    2        LL_SAFE('|');
      982       982    2        break;
      983       983    2        }
      984       984    1        }
      985       985             L65_binop (
      986       986             # line 311 "zbc$expression:g.:ZBC3TOU"
      987       987              oper) int *oper; {
      988       988    1        switch(LLcsymb) {
      989       989    2        case /*  LEFT  */ 12 : ;
      990       990    2        case /*  RIGHT  */ 16 : ;
      991       991    2        case /* '*' */ 94 : ;
      992       992    2        case /* '&' */ 102 : ;
      993       993    2        case /* '-' */ 103 : ;
      994       994    2        case /* '+' */ 104 : ;
      995       995    2        case /* '/' */ 107 : ;
      996       996    2        case /* '%' */ 108 : ;
      997       997    2        case /* '^' */ 111 : ;
      998       998    2        case /* '|' */ 112 : ;
      999       999    2        L73_arithop(
CC.C03    File=zbc$expression:c.:ZBC3TOU                                            Fri Aug 22 1997  Page=28
     1000      1000    2        );
     1001      1001    2        break;
     1002      1002    2        case /*  LESSEQ  */ 13 : ;
     1003      1003    2        case /*  GREATEREQ  */ 15 : ;
     1004      1004    2        case /* '<' */ 109 : ;
     1005      1005    2        case /* '>' */ 110 : ;
     1006      1006    2        L71_relop(
     1007      1007    2        );
     1008      1008    2        break;
     1009      1009    2        default:
     1010      1010    2        L72_eqop(
     1011      1011    2        );
     1012      1012    2        break;
     1013      1013    2        case /*  AND  */ 8 : ;
     1014      1014    2        LL_SAFE(AND);
     1015      1015    2        break;
     1016      1016    2        case /*  OR  */ 17 : ;
     1017      1017    2        LL_SAFE(OR);
     1018      1018    2        break;
     1019      1019    2        }
     1020      1020    1        # line 313 "zbc$expression:g.:ZBC3TOU"
     1021      1021    1        {*oper = DOT;}
     1022      1022    1        }
     1023      1023             L67_asgnop (
     1024      1024             # line 316 "zbc$expression:g.:ZBC3TOU"
     1025      1025              oper) register int *oper; {
     1026      1026    1        switch(LLcsymb) {
     1027      1027    2        case /* '=' */ 91 : ;
     1028      1028    2        LL_SAFE('=');
     1029      1029    2        # line 317 "zbc$expression:g.:ZBC3TOU"
     1030      1030    2        {*oper = DOT;}
     1031      1031    2        break;
     1032      1032    2        case /*  LEFT  */ 12 : ;
     1033      1033    2        case /*  RIGHT  */ 16 : ;
     1034      1034    2        case /* '*' */ 94 : ;
     1035      1035    2        case /* '&' */ 102 : ;
     1036      1036    2        case /* '-' */ 103 : ;
CC.C03    File=zbc$expression:c.:ZBC3TOU                                            Fri Aug 22 1997  Page=29
     1037      1037    2        case /* '+' */ 104 : ;
     1038      1038    2        case /* '/' */ 107 : ;
     1039      1039    2        case /* '%' */ 108 : ;
     1040      1040    2        case /* '^' */ 111 : ;
     1041      1041    2        case /* '|' */ 112 : ;
     1042      1042    2        switch(LLcsymb) {
     1043      1043    3        case /* '+' */ 104 : ;
     1044      1044    3        LL_SAFE('+');
     1045      1045    3        LL_T_NOSCANDONE('=');
     1046      1046    3        # line 320 "zbc$expression:g.:ZBC3TOU"
     1047      1047    3        {*oper = PLUSAB;}
     1048      1048    3        break;
     1049      1049    3        case /* '-' */ 103 : ;
     1050      1050    3        LL_SAFE('-');
     1051      1051    3        LL_T_NOSCANDONE('=');
     1052      1052    3        # line 322 "zbc$expression:g.:ZBC3TOU"
     1053      1053    3        {*oper = MINAB;}
     1054      1054    3        break;
     1055      1055    3        case /* '*' */ 94 : ;
     1056      1056    3        LL_SAFE('*');
     1057      1057    3        LL_T_NOSCANDONE('=');
     1058      1058    3        # line 324 "zbc$expression:g.:ZBC3TOU"
     1059      1059    3        {*oper = TIMESAB;}
     1060      1060    3        break;
     1061      1061    3        case /* '/' */ 107 : ;
     1062      1062    3        LL_SAFE('/');
     1063      1063    3        LL_T_NOSCANDONE('=');
     1064      1064    3        # line 326 "zbc$expression:g.:ZBC3TOU"
     1065      1065    3        {*oper = DIVAB;}
     1066      1066    3        break;
     1067      1067    3        case /* '%' */ 108 : ;
     1068      1068    3        LL_SAFE('%');
     1069      1069    3        LL_T_NOSCANDONE('=');
     1070      1070    3        # line 328 "zbc$expression:g.:ZBC3TOU"
     1071      1071    3        {*oper = MODAB;}
     1072      1072    3        break;
     1073      1073    3        default:
CC.C03    File=zbc$expression:c.:ZBC3TOU                                            Fri Aug 22 1997  Page=30
     1074      1074    3        LL_SAFE(LEFT);
     1075      1075    3        LL_T_NOSCANDONE('=');
     1076      1076    3        # line 330 "zbc$expression:g.:ZBC3TOU"
     1077      1077    3        {*oper = LEFTAB;}
     1078      1078    3        break;
     1079      1079    3        case /*  RIGHT  */ 16 : ;
     1080      1080    3        LL_SAFE(RIGHT);
     1081      1081    3        LL_T_NOSCANDONE('=');
     1082      1082    3        # line 332 "zbc$expression:g.:ZBC3TOU"
     1083      1083    3        {*oper = RIGHTAB;}
     1084      1084    3        break;
     1085      1085    3        case /* '&' */ 102 : ;
     1086      1086    3        LL_SAFE('&');
     1087      1087    3        LL_T_NOSCANDONE('=');
     1088      1088    3        # line 334 "zbc$expression:g.:ZBC3TOU"
     1089      1089    3        {*oper = ANDAB;}
     1090      1090    3        break;
     1091      1091    3        case /* '^' */ 111 : ;
     1092      1092    3        LL_SAFE('^');
     1093      1093    3        LL_T_NOSCANDONE('=');
     1094      1094    3        # line 336 "zbc$expression:g.:ZBC3TOU"
     1095      1095    3        {*oper = XORAB;}
     1096      1096    3        break;
     1097      1097    3        case /* '|' */ 112 : ;
     1098      1098    3        LL_SAFE('|');
     1099      1099    3        LL_T_NOSCANDONE('=');
     1100      1100    3        # line 338 "zbc$expression:g.:ZBC3TOU"
     1101      1101    3        {*oper = ORAB;}
     1102      1102    3        break;
     1103      1103    3        }
     1104      1104    2        # line 340 "zbc$expression:g.:ZBC3TOU"
     1105      1105    2        {
     1106      1106    3         char *symbol2str();
     1107      1107    3         warning("assignment operator %s had white spaces between the operator and =",
                                symbol2str(*oper));
     1108      1108    3        }
     1109      1109    2        break;
CC.C03    File=zbc$expression:c.:ZBC3TOU                                            Fri Aug 22 1997  Page=31
     1110      1110    2        default:
     1111      1111    2        switch(LLcsymb) {
     1112      1112    3        default:
     1113      1113    3        LL_SAFE(PLUSAB);
     1114      1114    3        break;
     1115      1115    3        case /*  MINAB  */ 73 : ;
     1116      1116    3        LL_SAFE(MINAB);
     1117      1117    3        break;
     1118      1118    3        case /*  TIMESAB  */ 74 : ;
     1119      1119    3        LL_SAFE(TIMESAB);
     1120      1120    3        break;
     1121      1121    3        case /*  DIVAB  */ 75 : ;
     1122      1122    3        LL_SAFE(DIVAB);
     1123      1123    3        break;
     1124      1124    3        case /*  MODAB  */ 76 : ;
     1125      1125    3        LL_SAFE(MODAB);
     1126      1126    3        break;
     1127      1127    3        case /*  LEFTAB  */ 77 : ;
     1128      1128    3        LL_SAFE(LEFTAB);
     1129      1129    3        break;
     1130      1130    3        case /*  RIGHTAB  */ 78 : ;
     1131      1131    3        LL_SAFE(RIGHTAB);
     1132      1132    3        break;
     1133      1133    3        case /*  ANDAB  */ 79 : ;
     1134      1134    3        LL_SAFE(ANDAB);
     1135      1135    3        break;
     1136      1136    3        case /*  XORAB  */ 80 : ;
     1137      1137    3        LL_SAFE(XORAB);
     1138      1138    3        break;
     1139      1139    3        case /*  ORAB  */ 81 : ;
     1140      1140    3        LL_SAFE(ORAB);
     1141      1141    3        break;
     1142      1142    3        }
     1143      1143    2        # line 348 "zbc$expression:g.:ZBC3TOU"
     1144      1144    2        {
     1145      1145    3
     1146      1146    3               *oper = DOT;
CC.C03    File=zbc$expression:c.:ZBC3TOU                                            Fri Aug 22 1997  Page=32
     1147      1147    3            }
     1148      1148    2        break;
     1149      1149    2        }
     1150      1150    1        }
     1151      1151             L53_constant (
     1152      1152             # line 354 "zbc$expression:g.:ZBC3TOU"
     1153      1153              expp) struct expr **expp; {
     1154      1154    1        switch(LLcsymb) {
     1155      1155    2        default:
     1156      1156    2        LL_SAFE(INTEGER);
     1157      1157    2        break;
     1158      1158    2        case /*  FLOATING  */ 6 : ;
     1159      1159    2        LL_SAFE(FLOATING);
     1160      1160    2        break;
     1161      1161    2        }
     1162      1162    1        # line 359 "zbc$expression:g.:ZBC3TOU"
     1163      1163    1        {dot2expr(expp);}
     1164      1164    1        }
     1165      1165             L19_constant_expression (
     1166      1166             # line 363 "zbc$expression:g.:ZBC3TOU"
     1167      1167              expp) struct expr **expp; {
     1168      1168    1        L60_assignment_expression(
     1169      1169    1        # line 364 "zbc$expression:g.:ZBC3TOU"
     1170      1170    1        expp);
     1171      1171    1        # line 365 "zbc$expression:g.:ZBC3TOU"
     1172      1172    1        {chk_cst_expr(expp);}
     1173      1173    1        }
     1174      1174             L18_identifier (
     1175      1175             # line 368 "zbc$expression:g.:ZBC3TOU"
     1176      1176              idfp) struct idf **idfp; {
     1177      1177    1        LLsincr(21);
     1178      1178    1        L_2:
     1179      1179    1        switch(LLcsymb) {
     1180      1180    2        default: if (LLskip()) goto L_2;
     1181      1181    2        goto L_3;
     1182      1182    2        case /*  IDENTIFIER  */ 1 : ;
     1183      1183    2        L_3: ;
CC.C03    File=zbc$expression:c.:ZBC3TOU                                            Fri Aug 22 1997  Page=33
     1184      1184    2        LLsdecr(21);
     1185      1185    2        LL_SSCANDONE(IDENTIFIER);
     1186      1186    2        break;
     1187      1187    2        case /*  TYPE_IDENTIFIER  */ 2 : ;
     1188      1188    2        LLsdecr(21);
     1189      1189    2        LL_SAFE(TYPE_IDENTIFIER);
     1190      1190    2        break;
     1191      1191    2        }
     1192      1192    1        # line 374 "zbc$expression:g.:ZBC3TOU"
     1193      1193    1        {*idfp = dot.tk_idf;}
     1194      1194    1        }
     1195      1195
     1196      1196
---  Include file information  ---

   zbc$Lpars:h.:ZBC3TOU. is referenced
   zbc$arith:h.:ZBC3TOU. is referenced
   zbc$spec_arith:h.:ZBC3TOU. is referenced
   em_arith:h.:ZBC3TOU. is referenced
   zbc$LLlex:h.:ZBC3TOU. is referenced
   zbc$nofloat:h.:ZBC3TOU. is referenced
   zbc$file_info:h.:ZBC3TOU. is referenced
   zbc$nopp:h.:ZBC3TOU. is referenced
   zbc$type:h.:ZBC3TOU. is referenced
   zbc$nobitfield:h.:ZBC3TOU. is referenced
   zbc$idf:h.:ZBC3TOU. is referenced
   zbc$label:h.:ZBC3TOU. is referenced
   em_label:h.:ZBC3TOU. is referenced
   zbc$expr:h.:ZBC3TOU. is referenced
   zbc$noRoption:h.:ZBC3TOU. is referenced
   zbc$declar:h.:ZBC3TOU. is referenced

No diagnostics were issued in the file zbc$expression:c.:ZBC3TOU
