
 10:13 08/22/97  FILE=zbc$zb_ovchk:a.:ZBC3TSI                                                            1    BMAP - B00
                                         1  *M*  zb_ovchk:a    --    compile time arithmetic
                                         2  *
                                         3  *
                                         4  *D*  NAME:          ZB_DPS8_OVCHK
                                         5  *,*  PURPOSE:       To return the sum of two int's with indication
                                         6  *,*                 of overflows.
                                         7  *,*
                                         8  *,*  DESCRIPTION:
                                         9  *,*     Overflow is detected for addition and subtraction by
                                        10  *,*     turning off the trap on overflow mask and zeroing
                                        11  *,*     the overflow indicator.
                                        12  *,*
                                        13  *,*     The addition/subtraction occurs, the overflow indicator
                                        14  *,*     is tested and the sum is returned to the caller.  If
                                        15  *,*     an overflow has occured, the result is ZB_OVERFLOW being
                                        16  *,*     incrimented by 1.
                                        17  *
                                        18          ENTDEF      ZB_DPS8_OVCHK
                                        19          ENTDEF      ZB_DPS8_ADD
                                        20          ENTDEF      ZB_DPS8_SUB
                                        21          ENTDEF      ZB_DPS8_MULT
                                        22          ENTDEF      ZB_DPS8_DFAD
                                        23          ENTDEF      ZB_DPS8_DFSB
                                        24          ENTDEF      ZB_DPS8_DFMP
                                        25          ENTDEF      ZB_DPS8_DFDV
                                        26  *
                                        27          SYMDEF      ZB_DPS8_OVCHK_
                                        28          SYMDEF      ZB_OVERFLOW
                                        29  *
 0 000000                               30  ZB_DPS8_OVCHK NULL
                                        31  *
                                        32  *
   000000                               33  SETUP_IR NULL
   000000    0 00002 2341 00            34          SZN         2,,0           Unsigned arith?
   000001    000000 6010 10             35          TNZ         0,0               Yes, IR not involved!
   000002                               36  DFSETUP NULL                          f.p. setup startshere
   000002 (2)000000 7540 00             37          STI         IRBITS            No, save IR and mask traps.
 10:13 08/22/97  FILE=zbc$zb_ovchk:a.:ZBC3TSI                                                            2    BMAP - B00
   000003 (2)000000 2350 00             38          LDA         IRBITS
   000004    003777 3750 07             39          ANA        =O003777,DL     Off w/zero,neg,carry,ovfl,exp?
   000005    004000 2750 07             40          ORA        =O004000,DL     On  w/overflow mask
   000006 (2)000001 7550 00             41          STA         NIRBITS           and save
   000007 (2)000001 6340 00             42          LDI         NIRBITS        Now we won't trap on overflow!
   000010    000001 7100 10             43          TRA         1,0               return to caller+1
                                        44  *
   000011                               45  IROVFL  NULL
   000011 (2)000002 0540 00             46          AOS         ZB_OVERFLOW    Incriment overflow flag
   000012 (2)000000 6340 00             47          LDI         IRBITS         restore  original IR
   000013    000001 7100 11             48          TRA         1,1               and return to caller
                                        49  *
                                        50  *
                                        51  *
   000014                               52  ZB_DPS8_ADD   NULL
                                        53  *
   000014 (0)000000 7000 00             54          TSX0        SETUP_IR       Setup IR, return unsigned/signed
   000015 (0)000023 7100 00             55          TRA         ZB_DPS8_ADL       @  unsigned
   000016    0 00000 2361 00            56          LDQ         0,,0              @  signed:    l/lhs
   000017    0 00001 0761 00            57          ADQ         1,,0                          add/rhs
   000020 (0)000011 6170 00             58          TOV         IROVFL            brif overflow occured
   000021 (2)000000 6340 00             59          LDI         IRBITS            restore original IR
   000022    000001 7100 11             60          TRA         1,1                  and return to caller
                                        61  *
   000023                               62  ZB_DPS8_ADL NULL
   000023    0 00000 2361 00            63          LDQ         0,,0           Unsigned:   l/lhs
   000024    0 00001 0361 00            64          ADLQ        1,,0                     add/rhs
                                        65  *       TNC         ADD1           brif no overflow
                                        66  *       AOS         ZB_OVERFLOW       else incriment overflow flag
   000025    000001 7100 11             67  ADD1    TRA         1,1            and return to caller
                                        68  *
                                        69  *
   000026                               70  ZB_DPS8_SUB   NULL
                                        71  *
   000026 (0)000000 7000 00             72          TSX0        SETUP_IR       Setup IR, return unsigned/signed
   000027 (0)000035 7100 00             73          TRA         ZB_DPS8_SBL       @  unsigned
   000030    0 00000 2361 00            74          LDQ         0,,0              @  signed:     l/lhs
 10:13 08/22/97  FILE=zbc$zb_ovchk:a.:ZBC3TSI                                                            3    BMAP - B00
   000031    0 00001 1761 00            75          SBQ         1,,0                           sub/rhs
   000032 (0)000011 6170 00             76          TOV         IROVFL               brif overflow occured
   000033 (2)000000 6340 00             77          LDI         IRBITS               restore original IR
   000034    000001 7100 11             78          TRA         1,1                     and return to caller
                                        79  *
   000035                               80  ZB_DPS8_SBL   NULL
   000035    0 00000 2361 00            81          LDQ         0,,0           Unsigned:   l/lhs
   000036    0 00001 1361 00            82          SBLQ        1,,0                     sub/rhs
                                        83  *       CMPQ        0,,0           overflow?
                                        84  *       TNC         SUB1              No.
                                        85  *       AOS         ZB_OVERFLOW       else incriment overflow flag
   000037    000001 7100 11             86  SUB1    TRA         1,1               and return to caller
                                        87  *
                                        88  *
   000040                               89  ZB_DPS8_MULT  NULL
                                        90  *
   000040    0 00000 2361 00            91          LDQ         0,,0              l/lhs
   000041    0 00001 4021 00            92          MPY         1,,0           mult/rhs
   000042    0 00002 2341 00            93          SZN         2,,0           chk for unsigned
   000043 (0)000051 6010 00             94          TNZ         ZB_DPS8_MLU       brif unsigned
   000044    000044 7370 00             95          LLS         36             chk for signed overflow
   000045 (0)000047 6020 00             96          TNC         MULT1             brif no overflow
   000046 (2)000002 0540 00             97          AOS         ZB_OVERFLOW       else incriment overflow flag
   000047    000044 7330 00             98  MULT1   LRS         36             restore original result
   000050    000001 7100 11             99          TRA         1,1            and return to caller
                                       100  *
   000051                              101  ZB_DPS8_MLU NULL
   000051    000043 7370 00            102          LLS         35             chk for unsigned overflow
   000052 (0)000054 6020 00            103          TNC         MULT2             brif no overflow
   000053 (2)000002 0540 00            104          AOS         ZB_OVERFLOW       else incriment overflow flag
   000054    000043 7330 00            105  MULT2   LRS         35             restore original result
   000055    000001 7100 11            106          TRA         1,1            and return to caller.
                                       107  *
                                       108  *F*  NAME:    ZB_DPS8_DFAD
                                       109  *,*  NAME:    ZB_DPS8_DFSB
                                       110  *,*  NAME:    ZB_DPS8_DFMP
                                       111  *,*  NAME:    ZB_DPS8_DFDV
 10:13 08/22/97  FILE=zbc$zb_ovchk:a.:ZBC3TSI                                                            4    BMAP - B00
                                       112  *,*  PURPOSE: To add two double values and return the result.
                                       113  *,*  DESCRIPTION:
                                       114  *,*     In order to not crash and burn when there is a f.p.
                                       115  *,*     overflow, we want to disable the trap on overflow
                                       116  *,*     perform the operation and explicitely check for an
                                       117  *,*     overflow.
                                       118  *,*
                                       119  *
   000056                              120  ZB_DPS8_DFAD NULL
   000056 (0)000002 7000 00            121          TSX0        DFSETUP        Reset trap on overflow mask
   000057    000000 2360 07            122          LDQ         0,DL           *NOP*
   000060    0 00000 4331 00           123          DFLD        0,,0           L/lhs
   000061    0 00002 4771 00           124          DFAD        2,,0                 + rhs
   000062 (0)000011 6170 00            125          TOV         IROVFL         brif overflow has occured
   000063 (2)000000 6340 00            126          LDI         IRBITS            restore indicator register
   000064    000001 7100 11            127          TRA         1,1
                                       128  *
   000065                              129  ZB_DPS8_DFSB NULL
   000065 (0)000002 7000 00            130          TSX0        DFSETUP        Reset trap on overflow mask
   000066    000000 2360 07            131          LDQ         0,DL           *NOP*
   000067    0 00000 4331 00           132          DFLD        0,,0           L/lhs
   000070    0 00002 5771 00           133          DFSB        2,,0                 - rhs
   000071 (0)000011 6170 00            134          TOV         IROVFL
   000072 (2)000000 6340 00            135          LDI         IRBITS            restore indicator register
   000073    000001 7100 11            136          TRA         1,1            Return w/result in EAQ
                                       137  *
   000074                              138  ZB_DPS8_DFMP NULL
   000074 (0)000002 7000 00            139          TSX0        DFSETUP        Reset trap on overflow mask
   000075    000000 2360 07            140          LDQ         0,DL           *NOP*
   000076    0 00000 4331 00           141          DFLD        0,,0           L/lhs
   000077    0 00002 4631 00           142          DFMP        2,,0                 * rhs
   000100 (0)000011 6170 00            143          TOV         IROVFL
   000101 (2)000000 6340 00            144          LDI         IRBITS            restore indicator register
   000102    000001 7100 11            145          TRA         1,1            Return w/result in EAQ
                                       146  *
   000103                              147  ZB_DPS8_DFDV NULL
   000103 (0)000002 7000 00            148          TSX0        DFSETUP        Reset trap on overflow mask
 10:13 08/22/97  FILE=zbc$zb_ovchk:a.:ZBC3TSI                                                            5    BMAP - B00
   000104    000000 2360 07            149          LDQ         0,DL           *NOP*
   000105    0 00000 4331 00           150          DFLD        0,,0           L/lhs
   000106    0 00002 5671 00           151          DFDV        2,,0                 / rhs
   000107 (0)000011 6170 00            152          TOV         IROVFL
   000110 (2)000000 6340 00            153          LDI         IRBITS            restore indicator register
   000111    000001 7100 11            154          TRA         1,1            Return w/result in EAQ
                                       155  *
                                       156  *
 2 000000                              157          USE   ZB_DPS8_OVCHK_,0
   000000                              158  ZB_DPS8_OVCHK_ NULL
                                       159  *
   000000                              160  IRBITS  BSS         1              Caller's IR
   000001                              161  NIRBITS BSS         1              Our munged IR
   000002    000000000000              162  ZB_OVERFLOW DEC     0              Our overflow flag
                                       163  *
                                       164          END

  CONTROL SECTION TABLE

   0 CODE   EVEN  000112
   1 RODATA EVEN  000000 LITERALS
   2 DATA   EVEN  000003 ZB_DPS8_OVCHK_

      22 SYMBOLS

       0 MACROS

    SYMBOL SPACE USED   176 WORDS
     MACRO SPACE USED     0 WORDS
   INPUT RECORDS READ   328
 STATEMENTS PROCESSED   124
         ELAPSED TIME  0:00.92
             CPU TIME     0.64 SEC.
        ASSEMBLY RATE 11625 STATEMENTS/CPU MIN.

      NO ERRORS

