

CC.C03    File=zbd$table:c.:ZBC3TOU                                                 Fri Aug 22 1997  Page=1
        1         1             const char coderules[] = {
        2         2    1        /* "*table", line 560 */ 21,130,45,83,45,1,2,11,5,22,2,14,1,0,15,
        3         3    1        /* "*table", line 563 */ 21,130,48,83,50,2,1,14,1,0,15,
        4         4    1        /* "*table", line 566 */ 21,130,51,51,98,2,22,2,14,5,0,15,
        5         5    1        /* "*table", line 570 */ 21,130,54,51,99,1,14,5,0,15,
        6         6    1        /* "*table", line 573 */ 21,130,58,83,45,3,4,11,1,83,45,5,6,11,3,22,6,14,2,0,1
                               5,
        7         7    1        /* "*table", line 576 */ 21,130,61,83,45,3,7,11,1,83,45,5,8,11,3,22,8,14,2,0,1
                               5,
        8         8    1        /* "*table", line 579 */ 21,130,64,83,45,3,9,11,1,83,45,5,10,11,3,22,10,14,2,0
                               ,15,
        9         9    1        /* "*table", line 582 */ 21,130,67,83,45,3,11,11,1,83,45,5,12,11,3,22,12,14,2,
                               0,15,
       10        10    1        /* "*table", line 585 */ 21,130,70,83,45,3,13,11,1,83,45,5,14,11,3,22,14,14,2,
                               0,15,
       11        11    1        /* "*table", line 588 */ 21,130,73,83,45,3,15,11,1,83,45,5,16,11,3,22,16,14,2,
                               0,15,
       12        12    1        /* "*table", line 592 */ 21,130,76,83,45,3,17,11,1,83,45,5,18,11,3,22,18,14,2,
                               0,15,
       13        13    1        /* "*table", line 595 */ 21,130,80,83,50,3,19,83,50,5,20,14,2,0,15,
       14        14    1        /* "*table", line 598 */ 21,130,83,83,50,3,21,83,50,5,22,14,2,0,15,
       15        15    1        /* "*table", line 601 */ 21,130,86,83,50,3,23,83,50,5,24,14,2,0,15,
       16        16    1        /* "*table", line 604 */ 21,130,89,83,50,3,25,83,50,5,26,14,2,0,15,
       17        17    1        /* "*table", line 607 */ 21,130,92,83,50,3,27,83,50,5,28,14,2,0,15,
       18        18    1        /* "*table", line 610 */ 21,130,95,83,50,3,29,83,50,5,30,14,2,0,15,
       19        19    1        /* "*table", line 615 */ 21,130,98,83,50,3,31,83,50,5,32,14,2,0,15,
       20        20    1        /* "*table", line 618 */ 21,130,103,18,3,51,88,2,11,3,22,2,14,5,0,15,
       21        21    1        /* "*table", line 621 */ 21,130,106,51,89,1,14,5,0,15,
       22        22    1        /* "*table", line 623 */ 21,130,109,83,123,2,1,14,3,0,15,
       23        23    1        /* "*table", line 625 */ 21,130,111,83,123,33,1,14,3,0,15,
       24        24    1        /* "*table", line 628 */ 21,130,113,83,123,34,1,14,3,0,15,
       25        25    1        /* "*table", line 631 */ 21,130,116,83,124,2,1,14,3,0,15,
       26        26    1        /* "*table", line 634 */ 21,130,119,83,113,2,1,14,3,0,15,
       27        27    1        /* "*table", line 637 */ 21,130,122,83,113,2,1,14,3,0,15,
       28        28    1        /* "*table", line 639 */ 21,130,125,83,128,132,1,2,11,5,14,1,0,15,
       29        29    1        /* "*table", line 642 */ 21,130,127,83,128,132,1,35,11,5,51,128,139,36,14,2,0,
                               15,
CC.C03    File=zbd$table:c.:ZBC3TOU                                                 Fri Aug 22 1997  Page=2
       30        30    1        /* "*table", line 646 */ 21,130,130,51,128,138,37,83,128,136,1,38,11,5,51,128,
                               139,36,14,3,0,15,
       31        31    1        /* "*table", line 649 */ 21,130,134,51,128,135,2,14,1,0,15,
       32        32    1        /* "*table", line 653 */ 21,130,137,83,128,132,1,39,11,5,51,127,40,51,128,140,
                               1,11,5,14,3,0,15,
       33        33    1        /* "*table", line 657 */ 21,130,141,83,128,132,1,41,11,5,51,127,40,51,128,140,
                               1,11,5,14,3,0,15,
       34        34    1        /* "*table", line 661 */ 21,130,145,83,128,132,1,39,11,5,83,55,42,43,11,14,51,
                               128,139,44,22,43,14,3,0,15,
       35        35    1        /* "*table", line 665 */ 21,130,149,83,128,132,1,41,11,5,83,55,45,43,11,27,51,
                               128,139,46,22,43,14,3,0,15,
       36        36    1        /* "*table", line 669 */ 21,130,153,83,128,132,1,35,11,5,51,127,40,51,128,140,
                               1,11,5,14,3,0,15,
       37        37    1        /* "*table", line 673 */ 21,130,157,83,128,132,1,47,11,5,83,55,48,43,11,11,51,
                               128,139,49,22,43,14,3,0,15,
       38        38    1        /* "*table", line 679 */ 21,130,161,51,128,138,37,83,128,136,1,38,11,5,83,55,4
                               8,43,11,11,51,128,139,49,22,43,14,4,0,15,
       39        39    1        /* "*table", line 683 */ 21,130,167,51,128,135,39,51,127,40,51,128,141,50,14,3
                               ,0,15,
       40        40    1        /* "*table", line 687 */ 21,130,171,51,128,135,41,51,127,40,51,128,141,50,14,3
                               ,0,15,
       41        41    1        /* "*table", line 691 */ 21,130,175,51,128,135,39,83,55,42,43,11,14,51,128,139
                               ,51,22,43,14,3,0,15,
       42        42    1        /* "*table", line 695 */ 21,130,179,51,128,135,41,83,55,45,43,11,27,51,128,139
                               ,52,22,43,14,3,0,15,
       43        43    1        /* "*table", line 699 */ 21,130,183,51,128,135,35,51,127,40,51,128,141,50,14,3
                               ,0,15,
       44        44    1        /* "*table", line 703 */ 21,130,187,51,128,135,47,83,55,48,43,11,11,51,128,139
                               ,53,22,43,14,3,0,15,
       45        45    1        /* "*table", line 707 */ 21,130,191,83,55,48,43,11,11,51,128,139,53,22,43,14,2
                               ,0,15,
       46        46    1        /* "*table", line 710 */ 21,130,195,83,128,136,1,2,11,5,14,1,0,15,
       47        47    1        /* "*table", line 713 */ 21,130,198,83,128,137,2,1,14,1,0,15,
       48        48    1        /* "*table", line 716 */ 21,130,201,83,128,128,1,2,11,5,14,1,0,15,
       49        49    1        /* "*table", line 719 */ 21,130,204,83,126,1,2,11,5,14,1,0,15,
       50        50    1        /* "*table", line 722 */ 21,130,207,83,128,130,1,54,11,5,14,1,0,15,
       51        51    1        /* "*table", line 725 */ 21,130,210,83,128,131,1,55,11,5,14,1,0,15,
CC.C03    File=zbd$table:c.:ZBC3TOU                                                 Fri Aug 22 1997  Page=3
       52        52    1        /* "*table", line 729 */ 21,130,213,83,128,129,2,1,14,1,0,15,
       53        53    1        /* "*table", line 734 */ 21,130,220,83,70,56,57,22,57,14,1,0,15,
       54        54    1        /* "*table", line 736 */ 21,130,222,51,68,56,22,56,14,1,0,15,
       55        55    1        /* "*table", line 738 */ 21,130,224,51,71,57,22,57,14,1,0,15,
       56        56    1        /* "*table", line 740 */ 21,130,226,51,71,57,22,57,14,1,0,15,
       57        57    1        /* "*table", line 744 */ 21,130,228,51,96,56,22,56,14,1,0,15,
       58        58    1        /* "*table", line 750 */ 21,130,235,33,19,83,50,56,37,12,14,1,0,15,
       59        59    1        /* "*table", line 753 */ 21,130,238,33,26,83,128,137,56,37,12,14,1,0,15,
       60        60    1        /* "*table", line 756 */ 21,130,241,33,20,83,128,129,56,37,12,14,1,0,15,
       61        61    1        /* "*table", line 759 */ 21,130,244,33,42,51,89,37,12,14,5,0,15,
       62        62    1        /* "*table", line 762 */ 21,130,247,33,33,51,99,58,12,14,5,0,15,
       63        63    1        /* "*table", line 765 */ 21,130,250,33,35,51,112,58,12,14,1,0,15,
       64        64    1        /* "*table", line 768 */ 21,130,253,33,60,51,52,37,12,14,1,0,15,
       65        65    1        /* "*table", line 772 */ 21,131,0,33,61,51,52,37,51,59,59,22,59,12,14,2,0,15,
       66        66    1        /* "*table", line 777 */ 21,131,4,33,5,10,56,60,10,60,37,12,15,
       67        67    1        /* "*table", line 780 */ 21,131,9,33,43,83,123,56,37,12,14,3,0,15,
       68        68    1        /* "*table", line 783 */ 21,131,12,33,62,83,123,61,37,12,14,3,0,15,
       69        69    1        /* "*table", line 786 */ 21,131,15,33,45,83,123,62,37,12,14,3,0,15,
       70        70    1        /* "*table", line 789 */ 21,131,18,33,63,83,123,56,37,12,14,3,0,15,
       71        71    1        /* "*table", line 794 */ 21,131,21,33,7,10,56,60,10,60,58,12,15,
       72        72    1        /* "*table", line 797 */ 21,131,26,33,7,83,124,56,58,12,14,3,0,15,
       73        73    1        /* "*table", line 801 */ 21,131,29,33,9,51,52,37,83,113,56,63,12,14,4,0,15,
       74        74    1        /* "*table", line 803 */ 21,131,33,33,64,83,113,56,64,12,14,3,0,15,
       75        75    1        /* "*table", line 805 */ 21,131,35,33,65,83,113,56,65,12,14,3,0,15,
       76        76    1        /* "*table", line 807 */ 21,131,37,33,66,83,113,56,66,12,14,3,0,15,
       77        77    1        /* "*table", line 809 */ 21,131,39,33,67,83,113,56,65,12,14,3,0,15,
       78        78    1        /* "*table", line 811 */ 21,131,41,33,68,83,113,56,66,12,14,3,0,15,
       79        79    1        /* "*table", line 814 */ 21,131,43,33,69,83,113,56,67,12,14,3,0,15,
       80        80    1        /* "*table", line 817 */ 21,131,46,33,70,51,128,135,56,51,128,138,37,12,14,2,0
                               ,15,
       81        81    1        /* "*table", line 820 */ 21,131,49,33,71,83,128,137,68,37,12,14,1,0,15,
       82        82    1        /* "*table", line 824 */ 21,131,52,33,4,10,56,69,51,128,138,37,12,14,1,0,15,
       83        83    1        /* "*table", line 827 */ 21,131,56,33,48,51,128,139,56,83,128,137,70,37,12,14,
                               2,0,15,
       84        84    1        /* "*table", line 831 */ 21,131,59,33,49,51,128,139,56,51,128,138,37,12,14,2,0
                               ,15,
       85        85    1        /* "*table", line 835 */ 21,131,63,33,72,51,128,143,71,12,15,
CC.C03    File=zbd$table:c.:ZBC3TOU                                                 Fri Aug 22 1997  Page=4
       86        86    1        /* "*table", line 843 */ 21,131,70,16,7,0,10,38,60,44,60,15,
       87        87    1        /* "*table", line 848 */ 21,131,75,16,7,3,10,72,60,44,60,15,
       88        88    1        /* "*table", line 853 */ 21,131,80,16,7,4,10,38,60,44,60,15,
       89        89    1        /* "*table", line 858 */ 21,131,85,16,7,9,10,38,60,44,60,15,
       90        90    1        /* "*table", line 861 */ 21,131,90,16,7,9,10,38,60,44,73,15,
       91        91    1        /* "*table", line 866 */ 21,131,95,16,7,9,10,38,60,44,74,15,
       92        92    1        /* "*table", line 873 */ 21,131,100,16,7,8,10,38,60,44,60,15,
       93        93    1        /* "*table", line 878 */ 21,131,105,16,7,6,10,72,60,44,60,15,
       94        94    1        /* "*table", line 882 */ 21,131,110,33,5,7,0,10,56,60,44,60,15,
       95        95    1        /* "*table", line 886 */ 21,131,114,33,7,7,3,10,56,60,44,60,15,
       96        96    1        /* "*table", line 890 */ 21,131,118,33,7,7,6,10,56,60,44,60,15,
       97        97    1        /* "*table", line 894 */ 21,131,122,33,5,7,4,10,56,60,44,60,15,
       98        98    1        /* "*table", line 898 */ 21,131,126,33,5,7,8,10,56,60,44,60,15,
       99        99    1        /* "*table", line 904 */ 21,131,130,33,73,7,0,51,52,37,83,113,56,63,10,38,60,4
                               4,60,14,4,0,15,
      100       100    1        /* "*table", line 910 */ 21,131,136,33,74,7,0,10,75,60,83,83,60,76,11,43,83,73
                               ,60,77,11,43,22,77,44,60,14,2,0,15,
      101       101    1        /* "*table", line 917 */ 21,131,142,33,75,7,0,10,78,60,83,83,60,79,11,43,83,73
                               ,60,77,11,43,22,77,44,60,14,2,0,15,
      102       102    1        /* "*table", line 921 */ 21,131,149,33,19,7,8,10,56,60,44,60,15,
      103       103    1        /* "*table", line 926 */ 21,131,153,33,76,18,1,18,2,7,1,51,86,80,11,1,11,2,44,
                               5,14,1,0,15,
      104       104    1        /* "*table", line 931 */ 21,131,158,33,77,18,3,18,4,7,2,51,85,80,11,3,11,4,44,
                               3,14,1,0,15,
      105       105    1        /* "*table", line 937 */ 21,131,163,33,26,7,0,10,56,37,10,38,60,44,60,15,
      106       106    1        /* "*table", line 940 */ 21,131,169,33,11,7,9,10,56,60,44,73,15,
      107       107    1        /* "*table", line 944 */ 21,131,172,33,11,7,9,10,56,60,44,74,15,
      108       108    1        /* "*table", line 948 */ 21,131,176,33,64,7,9,10,81,60,44,73,15,
      109       109    1        /* "*table", line 952 */ 21,131,180,33,64,7,9,10,81,60,44,74,15,
      110       110    1        /* "*table", line 956 */ 21,131,184,33,64,7,0,10,81,60,44,60,15,
      111       111    1        /* "*table", line 960 */ 21,131,188,33,64,7,8,10,81,60,44,60,15,
      112       112    1        /* "*table", line 963 */ 21,131,192,33,64,44,81,15,
      113       113    1        /* "*table", line 967 */ 21,131,195,33,19,7,9,10,56,37,83,128,136,60,38,11,43,
                               44,73,14,1,0,15,
      114       114    1        /* "*table", line 972 */ 21,131,199,33,19,7,9,10,56,37,83,128,136,60,38,11,43,
                               44,74,14,1,0,15,
      115       115    1        /* "*table", line 976 */ 21,131,204,33,71,44,68,15,
CC.C03    File=zbd$table:c.:ZBC3TOU                                                 Fri Aug 22 1997  Page=5
      116       116    1        /* "*table", line 982 */ 21,131,208,33,78,7,9,10,56,60,44,73,15,
      117       117    1        /* "*table", line 988 */ 21,131,214,33,78,7,9,10,56,60,44,60,15,
      118       118    1        /* "*table", line 995 */ 21,131,220,33,79,7,0,10,68,60,83,83,60,82,11,43,44,83
                               ,14,1,0,15,
      119       119    1        /* "*table", line 997 */ 21,131,227,33,80,44,84,15,
      120       120    1        /* "*table", line 999 */ 21,131,229,33,81,44,85,15,
      121       121    1        /* "*table", line 1004 */ 21,131,231,33,82,7,0,83,128,131,60,86,11,43,83,81,60
                               ,82,11,43,44,87,14,2,0,15,
      122       122    1        /* "*table", line 1009 */ 21,131,236,33,83,7,0,83,128,131,60,88,11,43,83,81,60
                               ,82,11,43,44,89,14,2,0,15,
      123       123    1        /* "*table", line 1011 */ 21,131,241,33,71,44,90,15,
      124       124    1        /* "*table", line 1016 */ 21,131,243,33,79,7,0,10,68,60,83,81,60,82,11,43,44,9
                               1,14,1,0,15,
      125       125    1        /* "*table", line 1018 */ 21,131,248,33,48,44,92,15,
      126       126    1        /* "*table", line 1022 */ 21,131,250,33,49,44,93,15,
      127       127    1        /* "*table", line 1028 */ 21,131,254,33,84,7,0,51,128,135,56,51,128,138,37,83,
                               45,60,38,11,43,22,38,44,60,14,3,0,15,
      128       128    1        /* "*table", line 1032 */ 21,132,4,33,81,7,0,10,94,60,44,60,15,
      129       129    1        /* "*table", line 1039 */ 21,132,8,33,83,7,0,83,128,131,60,88,11,43,83,55,60,9
                               4,11,43,22,94,44,60,14,2,0,15,
      130       130    1        /* "*table", line 1044 */ 21,132,15,33,48,83,78,68,82,11,32,83,128,137,70,37,8
                               3,55,68,38,11,32,22,38,44,68,14,3,0,15,
      131       131    1        /* "*table", line 1051 */ 21,132,20,33,49,83,78,68,82,11,32,51,128,138,37,83,5
                               5,68,38,11,32,22,38,44,68,14,3,0,15,
      132       132    1        /* "*table", line 1058 */ 21,132,27,33,50,7,0,51,128,135,95,51,128,138,37,83,4
                               5,60,38,11,43,83,55,60,96,11,43,22,96,44,60,14,4,0,15,
      133       133    1        /* "*table", line 1065 */ 21,132,34,33,52,83,78,97,82,11,36,51,128,135,95,51,1
                               28,138,37,83,55,97,38,11,36,83,55,97,96,11,36,22,96,44,97,14,5,0,15,
      134       134    1        /* "*table", line 1069 */ 21,132,41,33,51,7,0,10,98,60,44,60,15,
      135       135    1        /* "*table", line 1074 */ 21,132,45,33,53,83,78,99,82,11,38,83,55,99,98,11,38,
                               22,98,44,99,14,2,0,15,
      136       136    1        /* "*table", line 1077 */ 21,132,50,33,1,44,100,15,
      137       137    1        /* "*table", line 1087 */ 21,132,53,33,28,7,0,51,53,37,83,45,60,38,11,43,83,83
                               ,60,101,11,43,83,73,60,102,11,43,83,45,60,103,11,43,22,103,44,60,14,5,0,15,
      138       138    1        /* "*table", line 1095 */ 21,132,70,44,104,0,
      139       139    1        /* "*table", line 1096 */ 21,132,71,44,105,0,
      140       140    1        /* "*table", line 1097 */ 21,132,72,44,106,0,
CC.C03    File=zbd$table:c.:ZBC3TOU                                                 Fri Aug 22 1997  Page=6
      141       141    1        /* "*table", line 1099 */ 21,132,73,44,107,0,
      142       142    1        /* "*table", line 1101 */ 21,132,76,77,58,75,72,24,0,
      143       143    1        /* "*table", line 1103 */ 21,132,78,44,108,0,
      144       144    1        /* "*table", line 1105 */ 21,132,80,77,57,75,72,24,0,
      145       145    1        /* "*table", line 1108 */ 21,132,82,44,109,0,
      146       146    1        /* "*table", line 1113 */ 21,132,85,7,9,10,108,60,44,110,0,
      147       147    1        /* "*table", line 1117 */ 21,132,90,33,71,44,111,0,
      148       148    1        /* "*table", line 1118 */ 21,132,93,44,112,0,
      149       149    1        /* "*table", line 1119 */ 21,132,94,44,113,0,
      150       150    1        /* "*table", line 1121 */ 21,132,95,44,114,0,
      151       151    1        /* "*table", line 1123 */ 21,132,98,44,115,0,
      152       152    1        /* "*table", line 1125 */ 21,132,100,44,116,0,
      153       153    1        /* "*table", line 1129 */ 21,132,102,44,117,0,
      154       154    1        /* "*table", line 1132 */ 21,132,106,33,80,44,118,0,
      155       155    1        /* "*table", line 1134 */ 21,132,108,33,81,44,119,0,
      156       156    1        /* "*table", line 1136 */ 21,132,110,33,71,44,120,0,
      157       157    1        /* "*table", line 1138 */ 21,132,112,33,82,44,121,0,
      158       158    1        /* "*table", line 1140 */ 21,132,114,33,83,44,122,0,
      159       159    1        /* "*table", line 1143 */ 21,132,116,33,48,44,123,0,
      160       160    1        /* "*table", line 1146 */ 21,132,120,33,85,44,124,0,
      161       161    1        /* "*table", line 1148 */ 21,132,122,33,86,44,125,0,
      162       162    1        /* "*table", line 1153 */ 21,132,124,33,87,7,3,51,46,118,51,47,6,22,6,44,126,1
                               4,2,0,0,
      163       163    1        /* "*table", line 1155 */ 21,132,129,33,71,44,120,0,
      164       164    1        /* "*table", line 1157 */ 21,132,131,33,88,44,127,0,
      165       165    1        /* "*table", line 1159 */ 21,132,133,33,89,44,128,128,0,
      166       166    1        /* "*table", line 1164 */ 21,132,135,33,90,7,3,51,46,121,51,47,14,22,14,44,126
                               ,14,2,0,0,
      167       167    1        /* "*table", line 1167 */ 21,132,140,33,48,44,123,0,
      168       168    1        /* "*table", line 1170 */ 21,132,144,33,50,44,128,129,0,
      169       169    1        /* "*table", line 1172 */ 21,132,146,33,51,44,128,130,0,
      170       170    1        /* "*table", line 1174 */ 21,132,148,33,52,44,128,131,0,
      171       171    1        /* "*table", line 1176 */ 21,132,150,33,53,44,128,132,0,
      172       172    1        /* "*table", line 1178 */ 21,132,152,33,26,44,128,133,0,
      173       173    1        /* "*table", line 1180 */ 21,132,154,33,71,44,128,134,0,
      174       174    1        /* "*table", line 1183 */ 21,132,156,33,48,44,128,135,0,
      175       175    1        /* "*table", line 1186 */ 21,132,160,33,50,44,128,136,0,
CC.C03    File=zbd$table:c.:ZBC3TOU                                                 Fri Aug 22 1997  Page=7
      176       176    1        /* "*table", line 1188 */ 21,132,162,33,51,44,128,137,0,
      177       177    1        /* "*table", line 1190 */ 21,132,164,33,52,44,128,138,0,
      178       178    1        /* "*table", line 1192 */ 21,132,166,33,53,44,128,139,0,
      179       179    1        /* "*table", line 1194 */ 21,132,168,33,26,44,128,140,0,
      180       180    1        /* "*table", line 1196 */ 21,132,170,33,71,44,120,0,
      181       181    1        /* "*table", line 1199 */ 21,132,172,33,48,44,123,0,
      182       182    1        /* "*table", line 1201 */ 21,132,176,77,58,75,72,29,0,
      183       183    1        /* "*table", line 1203 */ 21,132,178,44,128,141,0,
      184       184    1        /* "*table", line 1205 */ 21,132,180,77,57,75,72,29,0,
      185       185    1        /* "*table", line 1208 */ 21,132,182,44,128,142,0,
      186       186    1        /* "*table", line 1212 */ 21,132,185,33,71,44,128,143,0,
      187       187    1        /* "*table", line 1217 */ 21,132,189,44,128,144,0,
      188       188    1        /* "*table", line 1219 */ 21,132,194,77,58,75,112,24,0,
      189       189    1        /* "*table", line 1224 */ 21,132,196,33,15,4,12,36,91,110,10,2,108,12,0,
      190       190    1        /* "*table", line 1226 */ 21,132,201,77,57,75,112,24,0,
      191       191    1        /* "*table", line 1231 */ 21,132,203,33,15,4,12,36,92,111,10,2,109,12,0,
      192       192    1        /* "*table", line 1238 */ 21,132,208,33,15,4,18,7,9,10,108,60,10,2,110,12,0,
      193       193    1        /* "*table", line 1243 */ 21,132,215,65,71,15,4,18,10,1,111,12,0,
      194       194    1        /* "*table", line 1247 */ 21,132,220,65,80,15,4,18,10,1,118,12,0,
      195       195    1        /* "*table", line 1250 */ 21,132,223,65,81,15,4,18,10,1,119,12,0,
      196       196    1        /* "*table", line 1253 */ 21,132,226,65,71,10,4,18,10,1,120,12,0,
      197       197    1        /* "*table", line 1256 */ 21,132,229,65,71,93,4,18,10,1,128,145,12,0,
      198       198    1        /* "*table", line 1259 */ 21,132,232,65,71,15,4,18,10,1,128,145,12,0,
      199       199    1        /* "*table", line 1262 */ 21,132,235,65,82,15,4,18,10,1,121,12,0,
      200       200    1        /* "*table", line 1265 */ 21,132,238,65,83,15,4,18,10,1,122,12,0,
      201       201    1        /* "*table", line 1268 */ 21,132,241,65,48,10,4,18,10,1,123,12,0,
      202       202    1        /* "*table", line 1273 */ 21,132,244,65,79,93,4,18,7,0,10,1,60,10,60,128,146,1
                               2,0,
      203       203    1        /* "*table", line 1276 */ 21,132,249,65,79,15,4,18,10,1,128,146,12,0,
      204       204    1        /* "*table", line 1278 */ 21,132,252,33,48,4,0,10,128,147,123,12,0,
      205       205    1        /* "*table", line 1283 */ 21,132,254,33,79,4,0,7,0,10,38,60,10,60,128,146,12,0
                               ,
      206       206    1        /* "*table", line 1287 */ 21,133,4,65,85,16,4,18,10,1,124,12,0,
      207       207    1        /* "*table", line 1290 */ 21,133,7,65,86,16,4,18,10,1,125,12,0,
      208       208    1        /* "*table", line 1294 */ 21,133,10,65,87,16,4,18,83,50,3,118,83,50,5,6,12,14,
                               2,0,0,
      209       209    1        /* "*table", line 1297 */ 21,133,14,65,71,10,4,18,10,1,120,12,0,
CC.C03    File=zbd$table:c.:ZBC3TOU                                                 Fri Aug 22 1997  Page=8
      210       210    1        /* "*table", line 1300 */ 21,133,17,65,71,94,4,18,10,1,128,148,12,0,
      211       211    1        /* "*table", line 1303 */ 21,133,20,65,71,16,4,18,10,1,128,148,12,0,
      212       212    1        /* "*table", line 1306 */ 21,133,23,65,88,16,4,18,10,1,127,12,0,
      213       213    1        /* "*table", line 1309 */ 21,133,26,65,89,16,4,18,10,1,128,128,12,0,
      214       214    1        /* "*table", line 1313 */ 21,133,29,65,90,16,4,18,83,50,3,121,83,50,5,14,12,14
                               ,2,0,0,
      215       215    1        /* "*table", line 1316 */ 21,133,33,65,48,10,4,18,10,1,123,12,0,
      216       216    1        /* "*table", line 1321 */ 21,133,36,65,79,94,4,18,7,3,10,1,60,10,60,128,149,12
                               ,0,
      217       217    1        /* "*table", line 1324 */ 21,133,41,65,79,16,4,18,10,1,128,149,12,0,
      218       218    1        /* "*table", line 1326 */ 21,133,44,33,48,4,0,10,128,147,123,12,0,
      219       219    1        /* "*table", line 1331 */ 21,133,46,33,79,4,0,7,3,10,72,60,10,60,128,149,12,0,

      220       220    1        /* "*table", line 1335 */ 21,133,52,65,50,9,4,18,10,1,128,129,12,0,
      221       221    1        /* "*table", line 1338 */ 21,133,55,65,51,9,4,18,10,1,128,130,12,0,
      222       222    1        /* "*table", line 1341 */ 21,133,58,65,52,9,4,18,10,1,128,131,12,0,
      223       223    1        /* "*table", line 1344 */ 21,133,61,65,53,9,4,18,10,1,128,132,12,0,
      224       224    1        /* "*table", line 1347 */ 21,133,64,65,26,9,4,18,10,1,128,133,12,0,
      225       225    1        /* "*table", line 1350 */ 21,133,67,65,71,9,4,18,10,1,128,134,12,0,
      226       226    1        /* "*table", line 1353 */ 21,133,70,65,48,9,4,18,10,1,128,135,12,0,
      227       227    1        /* "*table", line 1357 */ 21,133,73,65,50,19,4,18,10,1,37,10,128,150,128,129,1
                               2,0,
      228       228    1        /* "*table", line 1361 */ 21,133,77,65,51,19,4,18,10,1,37,10,128,150,128,130,1
                               2,0,
      229       229    1        /* "*table", line 1365 */ 21,133,81,65,52,19,4,18,10,1,37,10,128,150,128,131,1
                               2,0,
      230       230    1        /* "*table", line 1369 */ 21,133,85,65,53,19,4,18,10,1,37,10,128,150,128,132,1
                               2,0,
      231       231    1        /* "*table", line 1373 */ 21,133,89,65,26,19,4,18,10,1,37,10,128,150,128,133,1
                               2,0,
      232       232    1        /* "*table", line 1377 */ 21,133,93,65,71,19,4,18,10,1,37,10,128,150,128,134,1
                               2,0,
      233       233    1        /* "*table", line 1381 */ 21,133,97,65,48,19,4,18,10,1,37,10,128,150,128,135,1
                               2,0,
      234       234    1        /* "*table", line 1383 */ 21,133,101,33,71,4,0,10,128,150,128,134,12,0,
      235       235    1        /* "*table", line 1386 */ 21,133,103,33,48,4,0,10,128,150,128,135,12,0,
      236       236    1        /* "*table", line 1390 */ 21,133,107,33,78,12,0,
CC.C03    File=zbd$table:c.:ZBC3TOU                                                 Fri Aug 22 1997  Page=9
      237       237    1        /* "*table", line 1394 */ 21,133,111,65,50,10,4,18,10,1,128,136,12,0,
      238       238    1        /* "*table", line 1397 */ 21,133,114,65,51,10,4,18,10,1,128,137,12,0,
      239       239    1        /* "*table", line 1400 */ 21,133,117,65,52,10,4,18,10,1,128,138,12,0,
      240       240    1        /* "*table", line 1403 */ 21,133,120,65,53,10,4,18,10,1,128,139,12,0,
      241       241    1        /* "*table", line 1406 */ 21,133,123,65,26,10,4,18,10,1,128,140,12,0,
      242       242    1        /* "*table", line 1409 */ 21,133,126,65,71,10,4,18,10,1,120,12,0,
      243       243    1        /* "*table", line 1412 */ 21,133,129,65,48,10,4,18,10,1,123,12,0,
      244       244    1        /* "*table", line 1414 */ 21,133,132,33,71,4,0,10,128,147,120,12,0,
      245       245    1        /* "*table", line 1417 */ 21,133,134,33,48,4,0,10,128,147,123,12,0,
      246       246    1        /* "*table", line 1419 */ 21,133,138,77,58,75,112,29,0,
      247       247    1        /* "*table", line 1424 */ 21,133,140,33,16,4,12,36,34,110,10,2,128,141,12,0,
      248       248    1        /* "*table", line 1426 */ 21,133,145,77,57,75,112,29,0,
      249       249    1        /* "*table", line 1431 */ 21,133,147,33,16,4,12,36,36,111,10,2,128,142,12,0,
      250       250    1        /* "*table", line 1438 */ 21,133,152,65,71,16,4,18,10,1,128,143,12,0,
      251       251    1        /* "*table", line 1441 */ 21,133,159,65,5,32,83,54,1,2,11,5,22,2,44,1,14,1,0,0
                               ,
      252       252    1        /* "*table", line 1443 */ 21,133,161,65,32,5,83,54,2,1,11,28,22,1,44,2,14,1,0,
                               0,
      253       253    1        /* "*table", line 1445 */ 21,133,163,33,32,4,0,83,54,2,38,11,28,22,38,44,2,14,
                               1,0,0,
      254       254    1        /* "*table", line 1450 */ 21,133,165,4,0,7,0,83,45,60,128,151,11,43,83,54,60,1
                               28,152,11,43,22,128,152,44,60,14,2,0,0,
      255       255    1        /* "*table", line 1453 */ 21,133,171,65,5,32,83,60,1,2,11,5,22,2,44,1,14,1,0,0
                               ,
      256       256    1        /* "*table", line 1456 */ 21,133,173,65,95,5,83,60,2,1,11,28,51,69,50,22,1,44,
                               2,14,2,0,0,
      257       257    1        /* "*table", line 1460 */ 21,133,176,65,19,32,83,50,2,37,83,60,1,38,11,5,22,38
                               ,44,1,14,2,0,0,
      258       258    1        /* "*table", line 1463 */ 21,133,180,33,95,4,0,83,60,2,38,11,28,51,69,50,22,38
                               ,44,2,14,2,0,0,
      259       259    1        /* "*table", line 1468 */ 21,133,183,4,0,7,0,83,45,60,128,151,11,43,83,60,60,1
                               28,152,11,43,22,128,152,44,60,14,2,0,0,
      260       260    1        /* "*table", line 1472 */ 21,133,189,33,32,83,78,2,128,153,11,28,44,2,14,1,0,0
                               ,
      261       261    1        /* "*table", line 1476 */ 21,133,193,33,32,83,78,2,128,154,11,28,44,2,14,1,0,0
                               ,
      262       262    1        /* "*table", line 1480 */ 21,133,197,33,32,83,78,2,128,155,11,28,44,2,14,1,0,0
CC.C03    File=zbd$table:c.:ZBC3TOU                                                 Fri Aug 22 1997  Page=10
                               ,
      263       263    1        /* "*table", line 1483 */ 21,133,201,65,5,77,18,1,18,2,51,65,2,11,1,11,2,44,5,
                               14,1,0,0,
      264       264    1        /* "*table", line 1485 */ 21,133,203,65,77,5,18,1,18,2,51,65,1,11,1,11,2,44,5,
                               14,1,0,0,
      265       265    1        /* "*table", line 1488 */ 21,133,205,65,76,77,18,1,18,2,83,50,2,37,51,65,38,11
                               ,1,11,2,44,5,14,2,0,0,
      266       266    1        /* "*table", line 1490 */ 21,133,208,33,77,4,0,18,1,18,2,51,65,38,11,1,11,2,44
                               ,5,14,1,0,0,
      267       267    1        /* "*table", line 1494 */ 21,133,210,4,0,18,1,18,2,83,45,5,128,151,11,3,51,65,
                               128,152,11,1,11,2,22,128,151,44,5,14,2,0,0,
      268       268    1        /* "*table", line 1498 */ 21,133,215,33,32,83,81,2,128,153,11,28,44,2,14,1,0,0
                               ,
      269       269    1        /* "*table", line 1502 */ 21,133,219,33,32,83,81,2,128,154,11,28,44,2,14,1,0,0
                               ,
      270       270    1        /* "*table", line 1506 */ 21,133,223,33,32,83,81,2,128,155,11,28,44,2,14,1,0,0
                               ,
      271       271    1        /* "*table", line 1509 */ 21,133,227,65,5,77,18,1,18,2,51,66,2,11,1,11,2,44,5,
                               14,1,0,0,
      272       272    1        /* "*table", line 1513 */ 21,133,229,65,19,5,18,1,18,2,83,50,2,37,83,45,5,1,11
                               ,3,51,66,38,11,1,11,2,22,1,44,5,14,3,0,0,
      273       273    1        /* "*table", line 1517 */ 21,133,233,33,19,4,0,18,1,18,2,83,50,2,37,83,45,5,12
                               8,151,11,3,51,66,128,152,11,1,11,2,22,128,151,44,5,14,3,0,0,
      274       274    1        /* "*table", line 1521 */ 21,133,237,4,0,18,1,18,2,83,45,5,128,151,11,3,51,66,
                               128,152,11,1,11,2,22,128,151,44,5,14,2,0,0,
      275       275    1        /* "*table", line 1524 */ 21,133,242,65,5,77,18,1,18,2,51,66,2,11,1,11,2,44,3,
                               14,1,0,0,
      276       276    1        /* "*table", line 1528 */ 21,133,244,65,19,5,18,1,18,2,83,50,2,37,83,45,5,1,11
                               ,3,51,66,38,11,1,11,2,22,1,44,3,14,3,0,0,
      277       277    1        /* "*table", line 1532 */ 21,133,248,33,19,4,0,18,1,18,2,83,50,2,37,83,45,5,12
                               8,151,11,3,51,66,128,152,11,1,11,2,22,128,151,44,3,14,3,0,0,
      278       278    1        /* "*table", line 1536 */ 21,133,252,4,0,18,1,18,2,83,45,5,128,151,11,3,51,66,
                               128,152,11,1,11,2,22,128,151,44,3,14,2,0,0,
      279       279    1        /* "*table", line 1540 */ 21,134,1,33,76,51,69,50,44,2,14,1,0,0,
      280       280    1        /* "*table", line 1543 */ 21,134,5,65,1,32,83,78,1,128,156,11,5,44,1,14,1,0,0,

      281       281    1        /* "*table", line 1546 */ 21,134,7,65,19,32,83,78,1,54,11,5,44,1,14,1,0,0,
CC.C03    File=zbd$table:c.:ZBC3TOU                                                 Fri Aug 22 1997  Page=11
      282       282    1        /* "*table", line 1549 */ 21,134,11,65,1,32,83,81,1,128,156,11,5,44,1,14,1,0,0
                               ,
      283       283    1        /* "*table", line 1554 */ 21,134,13,65,19,32,83,81,1,54,11,5,44,1,14,1,0,0,
      284       284    1        /* "*table", line 1557 */ 21,134,19,65,5,32,83,55,1,2,11,5,22,2,44,1,14,1,0,0,

      285       285    1        /* "*table", line 1559 */ 21,134,21,65,32,5,83,55,2,1,11,28,22,1,44,2,14,1,0,0
                               ,
      286       286    1        /* "*table", line 1561 */ 21,134,23,33,32,4,0,83,55,2,38,11,28,22,38,44,2,14,1
                               ,0,0,
      287       287    1        /* "*table", line 1566 */ 21,134,25,4,0,7,0,83,45,60,128,151,11,43,83,55,60,12
                               8,152,11,43,22,128,152,44,60,14,2,0,0,
      288       288    1        /* "*table", line 1569 */ 21,134,31,65,5,32,83,62,1,2,11,5,22,2,44,1,14,1,0,0,

      289       289    1        /* "*table", line 1573 */ 21,134,33,65,32,5,83,76,2,128,157,11,28,83,55,2,105,
                               11,28,83,55,2,1,11,28,22,1,44,2,14,3,0,0,
      290       290    1        /* "*table", line 1577 */ 21,134,37,65,19,32,83,50,2,37,83,62,1,38,11,5,22,38,
                               44,1,14,2,0,0,
      291       291    1        /* "*table", line 1581 */ 21,134,41,33,32,4,0,83,76,2,128,157,11,28,83,55,2,10
                               5,11,28,83,55,2,38,11,28,22,38,44,2,14,3,0,0,
      292       292    1        /* "*table", line 1586 */ 21,134,45,4,0,7,0,83,45,60,128,151,11,43,83,62,60,12
                               8,152,11,43,22,128,152,44,60,14,2,0,0,
      293       293    1        /* "*table", line 1588 */ 21,134,50,77,69,75,81,118,0,
      294       294    1        /* "*table", line 1590 */ 21,134,52,45,81,75,0,
      295       295    1        /* "*table", line 1594 */ 21,134,55,33,32,83,83,2,128,153,11,28,44,2,14,1,0,0,

      296       296    1        /* "*table", line 1598 */ 21,134,59,33,32,83,83,2,128,154,11,28,44,2,14,1,0,0,

      297       297    1        /* "*table", line 1602 */ 21,134,63,33,32,83,83,2,128,155,11,28,44,2,14,1,0,0,

      298       298    1        /* "*table", line 1627 */ 21,134,67,4,0,18,3,18,4,18,1,18,2,51,47,128,151,51,1
                               28,149,128,158,51,46,59,51,128,148,128,159,51,71,128,160,51,128,150,128,161,51
                               ,46,57,51,85,128,153,11,3,11,4,51,67,59,11,1,11,2,51,86,80,11,1,11,2,51,128,14
                               7,128,162,51,72,
      299       299    1        59,51,128,151,128,163,51,47,128,160,51,128,147,128,164,51,46,59,51,128,149,128
                               ,165,51,47,57,51,128,147,128,166,51,66,128,152,11,1,11,2,22,57,44,5,14,20,0,0,

      300       300    1        /* "*table", line 1631 */ 21,134,92,33,32,83,73,2,128,160,11,28,22,128,160,44,
CC.C03    File=zbd$table:c.:ZBC3TOU                                                 Fri Aug 22 1997  Page=12
                               2,14,1,0,0,
      301       301    1        /* "*table", line 1635 */ 21,134,96,33,32,83,73,2,128,167,11,28,22,128,167,44,
                               2,14,1,0,0,
      302       302    1        /* "*table", line 1639 */ 21,134,100,33,32,83,73,2,102,11,28,22,102,44,2,14,1,
                               0,0,
      303       303    1        /* "*table", line 1664 */ 21,134,104,4,0,18,3,18,4,18,1,18,2,51,47,128,151,51,
                               128,149,128,161,51,46,59,51,128,148,128,168,51,71,128,160,51,128,150,128,169,5
                               1,46,57,51,85,128,153,11,3,11,4,51,67,59,11,1,11,2,51,128,147,128,170,51,72,59
                               ,51,128,151,128,
      304       304    1        169,51,61,59,51,128,147,128,168,51,47,57,51,128,147,128,163,51,46,59,51,128,14
                               8,128,165,51,66,128,152,11,1,11,2,51,86,80,11,1,11,2,22,59,44,5,14,20,0,0,
      305       305    1        /* "*table", line 1666 */ 21,134,128,45,106,75,0,
      306       306    1        /* "*table", line 1669 */ 21,134,131,65,1,32,83,83,1,128,156,11,5,44,1,14,1,0,
                               0,
      307       307    1        /* "*table", line 1674 */ 21,134,133,65,19,32,83,83,1,54,11,5,44,1,14,1,0,0,
      308       308    1        /* "*table", line 1677 */ 21,134,139,65,7,33,51,100,2,22,2,44,1,14,1,0,0,
      309       309    1        /* "*table", line 1679 */ 21,134,141,65,33,7,51,100,1,22,1,44,2,14,1,0,0,
      310       310    1        /* "*table", line 1682 */ 21,134,143,33,33,4,0,51,100,72,22,72,44,2,14,1,0,0,
      311       311    1        /* "*table", line 1685 */ 21,134,147,65,7,33,51,101,2,22,2,44,1,14,1,0,0,
      312       312    1        /* "*table", line 1688 */ 21,134,149,65,33,7,51,101,1,51,97,50,22,1,44,2,14,2,
                               0,0,
      313       313    1        /* "*table", line 1692 */ 21,134,152,33,33,4,0,51,101,72,51,97,50,22,72,44,2,1
                               4,2,0,0,
      314       314    1        /* "*table", line 1695 */ 21,134,157,65,7,33,51,102,2,22,2,44,1,14,1,0,0,
      315       315    1        /* "*table", line 1697 */ 21,134,159,65,33,7,51,102,1,22,1,44,2,14,1,0,0,
      316       316    1        /* "*table", line 1700 */ 21,134,161,33,33,4,0,51,102,72,22,72,44,2,14,1,0,0,
      317       317    1        /* "*table", line 1703 */ 21,134,165,65,7,33,51,103,2,22,2,44,1,14,1,0,0,
      318       318    1        /* "*table", line 1705 */ 21,134,167,65,33,7,51,104,1,22,1,44,2,14,1,0,0,
      319       319    1        /* "*table", line 1708 */ 21,134,169,33,33,4,0,51,104,72,22,72,44,2,14,1,0,0,
      320       320    1        /* "*table", line 1712 */ 21,134,173,33,33,51,97,50,44,2,14,1,0,0,
      321       321    1        /* "*table", line 1715 */ 21,134,177,65,5,42,18,3,51,90,2,11,3,22,2,44,1,14,1,
                               0,0,
      322       322    1        /* "*table", line 1717 */ 21,134,179,65,42,5,18,3,51,90,1,11,3,22,1,44,2,14,1,
                               0,0,
      323       323    1        /* "*table", line 1720 */ 21,134,181,33,42,4,0,18,3,51,90,38,11,3,22,38,44,2,1
                               4,1,0,0,
      324       324    1        /* "*table", line 1723 */ 21,134,185,65,5,42,18,3,51,91,2,11,3,22,2,44,1,14,1,
CC.C03    File=zbd$table:c.:ZBC3TOU                                                 Fri Aug 22 1997  Page=13
                               0,0,
      325       325    1        /* "*table", line 1726 */ 21,134,187,65,42,5,18,3,51,91,1,11,3,51,97,50,11,3,2
                               2,1,44,2,14,2,0,0,
      326       326    1        /* "*table", line 1730 */ 21,134,190,33,42,4,0,18,3,51,91,38,11,3,51,97,50,11,
                               3,22,38,44,2,14,2,0,0,
      327       327    1        /* "*table", line 1733 */ 21,134,195,65,5,42,18,3,51,92,2,11,3,22,2,44,1,14,1,
                               0,0,
      328       328    1        /* "*table", line 1735 */ 21,134,197,65,42,5,18,3,51,92,1,11,3,22,1,44,2,14,1,
                               0,0,
      329       329    1        /* "*table", line 1738 */ 21,134,199,33,42,4,0,18,3,51,92,38,11,3,22,38,44,2,1
                               4,1,0,0,
      330       330    1        /* "*table", line 1741 */ 21,134,203,65,5,42,18,3,51,93,2,11,3,22,2,44,1,14,1,
                               0,0,
      331       331    1        /* "*table", line 1743 */ 21,134,205,65,42,5,18,3,51,94,1,11,3,22,1,44,2,14,1,
                               0,0,
      332       332    1        /* "*table", line 1746 */ 21,134,207,33,42,4,0,18,3,51,94,38,11,3,22,38,44,2,1
                               4,1,0,0,
      333       333    1        /* "*table", line 1752 */ 21,134,211,33,42,18,3,51,97,50,11,3,44,2,14,1,0,0,
      334       334    1        /* "*table", line 1756 */ 21,134,217,33,32,83,55,2,128,171,11,28,22,128,171,44
                               ,2,14,1,0,0,
      335       335    1        /* "*table", line 1758 */ 21,134,220,33,50,44,128,172,0,
      336       336    1        /* "*table", line 1760 */ 21,134,222,33,51,44,128,173,0,
      337       337    1        /* "*table", line 1762 */ 21,134,224,33,52,44,128,174,0,
      338       338    1        /* "*table", line 1764 */ 21,134,226,33,53,44,128,175,0,
      339       339    1        /* "*table", line 1768 */ 21,134,228,33,96,83,55,128,176,107,11,6,22,107,44,2,
                               14,1,0,0,
      340       340    1        /* "*table", line 1771 */ 21,134,233,65,20,80,44,128,177,0,
      341       341    1        /* "*table", line 1773 */ 21,134,235,65,20,81,44,128,178,0,
      342       342    1        /* "*table", line 1775 */ 21,134,237,65,20,26,44,128,179,0,
      343       343    1        /* "*table", line 1777 */ 21,134,239,65,20,71,44,128,180,0,
      344       344    1        /* "*table", line 1782 */ 21,134,241,33,20,4,0,7,9,10,38,60,44,128,181,0,
      345       345    1        /* "*table", line 1788 */ 21,134,247,65,32,87,7,8,83,78,2,128,182,11,28,10,2,6
                               0,44,128,183,14,1,0,0,
      346       346    1        /* "*table", line 1793 */ 21,134,252,65,32,97,7,8,83,78,2,128,182,11,28,10,2,6
                               0,44,128,184,14,1,0,0,
      347       347    1        /* "*table", line 1798 */ 21,135,1,65,32,85,7,8,83,78,2,128,182,11,28,10,2,60,
                               44,128,185,14,1,0,0,
CC.C03    File=zbd$table:c.:ZBC3TOU                                                 Fri Aug 22 1997  Page=14
      348       348    1        /* "*table", line 1803 */ 21,135,6,65,32,86,7,8,83,78,2,128,182,11,28,10,2,60,
                               44,128,186,14,1,0,0,
      349       349    1        /* "*table", line 1808 */ 21,135,11,65,32,26,7,8,83,78,2,128,182,11,28,10,2,60
                               ,44,128,187,14,1,0,0,
      350       350    1        /* "*table", line 1813 */ 21,135,16,65,32,71,7,8,83,78,2,128,182,11,28,10,2,60
                               ,44,128,188,14,1,0,0,
      351       351    1        /* "*table", line 1820 */ 21,135,21,33,32,4,0,7,8,7,9,83,78,2,128,182,11,28,10
                               ,2,60,10,38,128,189,44,128,190,14,1,0,0,
      352       352    1        /* "*table", line 1826 */ 21,135,29,65,77,85,18,1,18,2,7,8,51,65,128,191,11,1,
                               11,2,10,2,60,44,128,185,14,1,0,0,
      353       353    1        /* "*table", line 1831 */ 21,135,34,65,77,86,18,1,18,2,7,8,51,65,128,191,11,1,
                               11,2,10,2,60,44,128,186,14,1,0,0,
      354       354    1        /* "*table", line 1836 */ 21,135,39,65,77,26,18,1,18,2,7,8,51,65,128,191,11,1,
                               11,2,10,2,60,44,128,187,14,1,0,0,
      355       355    1        /* "*table", line 1841 */ 21,135,44,65,77,71,18,1,18,2,7,8,51,65,128,191,11,1,
                               11,2,10,2,60,44,128,188,14,1,0,0,
      356       356    1        /* "*table", line 1848 */ 21,135,49,33,77,4,0,18,1,18,2,7,8,7,9,51,65,128,191,
                               11,1,11,2,10,2,60,10,38,128,189,44,128,190,14,1,0,0,
      357       357    1        /* "*table", line 1854 */ 21,135,57,65,77,80,18,1,18,2,7,8,51,65,128,191,11,1,
                               11,2,10,2,60,44,128,183,14,1,0,0,
      358       358    1        /* "*table", line 1859 */ 21,135,62,65,77,81,18,1,18,2,7,8,51,65,128,191,11,1,
                               11,2,10,2,60,44,128,184,14,1,0,0,
      359       359    1        /* "*table", line 1864 */ 21,135,67,65,77,26,18,1,18,2,7,8,51,65,128,191,11,1,
                               11,2,10,2,60,44,128,187,14,1,0,0,
      360       360    1        /* "*table", line 1869 */ 21,135,72,65,77,71,18,1,18,2,7,8,51,65,128,191,11,1,
                               11,2,10,2,60,44,128,188,14,1,0,0,
      361       361    1        /* "*table", line 1876 */ 21,135,77,33,77,4,0,18,1,18,2,7,8,7,9,51,65,128,191,
                               11,1,11,2,10,2,60,10,38,128,189,44,128,190,14,1,0,0,
      362       362    1        /* "*table", line 1879 */ 21,135,85,65,20,80,44,128,177,0,
      363       363    1        /* "*table", line 1881 */ 21,135,87,65,20,81,44,128,178,0,
      364       364    1        /* "*table", line 1883 */ 21,135,89,65,20,26,44,128,179,0,
      365       365    1        /* "*table", line 1885 */ 21,135,91,65,20,71,44,128,180,0,
      366       366    1        /* "*table", line 1890 */ 21,135,93,33,20,4,0,7,9,10,38,60,44,128,181,0,
      367       367    1        /* "*table", line 1896 */ 21,135,99,65,32,87,7,8,83,78,2,128,182,11,28,10,2,60
                               ,44,128,183,14,1,0,0,
      368       368    1        /* "*table", line 1901 */ 21,135,104,65,32,97,7,8,83,78,2,128,182,11,28,10,2,6
                               0,44,128,184,14,1,0,0,
CC.C03    File=zbd$table:c.:ZBC3TOU                                                 Fri Aug 22 1997  Page=15
      369       369    1        /* "*table", line 1906 */ 21,135,109,65,32,85,7,8,83,78,2,128,182,11,28,10,2,6
                               0,44,128,185,14,1,0,0,
      370       370    1        /* "*table", line 1911 */ 21,135,114,65,32,86,7,8,83,78,2,128,182,11,28,10,2,6
                               0,44,128,186,14,1,0,0,
      371       371    1        /* "*table", line 1916 */ 21,135,119,65,32,26,7,8,83,78,2,128,182,11,28,10,2,6
                               0,44,128,187,14,1,0,0,
      372       372    1        /* "*table", line 1921 */ 21,135,124,65,32,71,7,8,83,78,2,128,182,11,28,10,2,6
                               0,44,128,188,14,1,0,0,
      373       373    1        /* "*table", line 1928 */ 21,135,129,33,32,4,0,7,8,7,9,83,78,2,128,182,11,28,1
                               0,2,60,10,38,128,189,44,128,190,14,1,0,0,
      374       374    1        /* "*table", line 1934 */ 21,135,137,65,77,85,18,1,18,2,7,8,51,65,128,191,11,1
                               ,11,2,10,2,60,44,128,185,14,1,0,0,
      375       375    1        /* "*table", line 1939 */ 21,135,142,65,77,86,18,1,18,2,7,8,51,65,128,191,11,1
                               ,11,2,10,2,60,44,128,186,14,1,0,0,
      376       376    1        /* "*table", line 1944 */ 21,135,147,65,77,26,18,1,18,2,7,8,51,65,128,191,11,1
                               ,11,2,10,2,60,44,128,187,14,1,0,0,
      377       377    1        /* "*table", line 1949 */ 21,135,152,65,77,71,18,1,18,2,7,8,51,65,128,191,11,1
                               ,11,2,10,2,60,44,128,188,14,1,0,0,
      378       378    1        /* "*table", line 1956 */ 21,135,157,33,77,4,0,18,1,18,2,7,8,7,9,51,65,128,191
                               ,11,1,11,2,10,2,60,10,38,128,189,44,128,190,14,1,0,0,
      379       379    1        /* "*table", line 1962 */ 21,135,165,65,77,80,18,1,18,2,7,8,51,65,128,191,11,1
                               ,11,2,10,2,60,44,128,183,14,1,0,0,
      380       380    1        /* "*table", line 1967 */ 21,135,170,65,77,81,18,1,18,2,7,8,51,65,128,191,11,1
                               ,11,2,10,2,60,44,128,184,14,1,0,0,
      381       381    1        /* "*table", line 1972 */ 21,135,175,65,77,26,18,1,18,2,7,8,51,65,128,191,11,1
                               ,11,2,10,2,60,44,128,187,14,1,0,0,
      382       382    1        /* "*table", line 1977 */ 21,135,180,65,77,71,18,1,18,2,7,8,51,65,128,191,11,1
                               ,11,2,10,2,60,44,128,188,14,1,0,0,
      383       383    1        /* "*table", line 1984 */ 21,135,185,33,77,4,0,18,1,18,2,7,8,7,9,51,65,128,191
                               ,11,1,11,2,10,2,60,10,38,128,189,44,128,190,14,1,0,0,
      384       384    1        /* "*table", line 1990 */ 21,135,193,65,5,64,7,9,7,0,10,128,192,60,10,2,128,18
                               9,44,128,193,0,
      385       385    1        /* "*table", line 1994 */ 21,135,198,65,5,80,7,0,83,45,60,2,11,43,22,2,44,128,
                               194,14,1,0,0,
      386       386    1        /* "*table", line 1998 */ 21,135,202,65,5,81,7,0,83,45,60,2,11,43,22,2,44,128,
                               195,14,1,0,0,
      387       387    1        /* "*table", line 2000 */ 21,135,206,65,19,80,44,128,196,0,
CC.C03    File=zbd$table:c.:ZBC3TOU                                                 Fri Aug 22 1997  Page=16
      388       388    1        /* "*table", line 2002 */ 21,135,208,65,19,81,44,128,197,0,
      389       389    1        /* "*table", line 2006 */ 21,135,210,65,5,50,7,0,83,45,60,2,11,43,22,2,44,128,
                               198,14,1,0,0,
      390       390    1        /* "*table", line 2010 */ 21,135,214,65,5,51,7,0,83,45,60,2,11,43,22,2,44,128,
                               199,14,1,0,0,
      391       391    1        /* "*table", line 2012 */ 21,135,218,65,19,50,44,128,200,0,
      392       392    1        /* "*table", line 2014 */ 21,135,220,65,19,51,44,128,201,0,
      393       393    1        /* "*table", line 2017 */ 21,135,222,65,5,52,83,55,128,202,2,11,21,22,2,44,1,1
                               4,1,0,0,
      394       394    1        /* "*table", line 2020 */ 21,135,225,65,5,53,83,55,128,203,2,11,128,152,22,2,4
                               4,1,14,1,0,0,
      395       395    1        /* "*table", line 2024 */ 21,135,228,65,19,52,10,2,37,83,55,128,202,38,11,21,2
                               2,38,44,1,14,1,0,0,
      396       396    1        /* "*table", line 2028 */ 21,135,232,65,19,53,10,2,37,83,55,128,203,38,11,128,
                               152,22,38,44,1,14,1,0,0,
      397       397    1        /* "*table", line 2030 */ 21,135,236,65,19,71,44,128,204,0,
      398       398    1        /* "*table", line 2034 */ 21,135,238,65,19,48,83,50,2,37,83,55,128,205,38,11,1
                               5,22,38,44,1,14,2,0,0,
      399       399    1        /* "*table", line 2037 */ 21,135,242,65,19,26,51,128,139,128,206,44,128,207,14
                               ,1,0,0,
      400       400    1        /* "*table", line 2041 */ 21,135,245,33,19,4,0,7,9,10,38,60,44,128,208,0,
      401       401    1        /* "*table", line 2046 */ 21,135,249,35,5,4,0,7,0,7,9,10,2,60,10,38,128,189,44
                               ,128,209,0,
      402       402    1        /* "*table", line 2050 */ 21,135,254,65,32,5,83,78,2,82,11,28,83,55,2,1,11,28,
                               22,1,44,2,14,2,0,0,
      403       403    1        /* "*table", line 2056 */ 21,136,2,65,32,19,83,78,2,82,11,28,10,1,37,83,55,2,3
                               8,11,28,22,38,44,2,14,2,0,0,
      404       404    1        /* "*table", line 2058 */ 21,136,9,45,97,24,0,
      405       405    1        /* "*table", line 2059 */ 21,136,10,109,98,24,69,128,160,108,24,0,
      406       406    1        /* "*table", line 2060 */ 21,136,11,109,98,24,69,22,108,24,0,
      407       407    1        /* "*table", line 2061 */ 21,136,12,109,98,24,69,128,165,108,24,0,
      408       408    1        /* "*table", line 2065 */ 21,136,13,109,98,24,69,65,108,24,0,
      409       409    1        /* "*table", line 2068 */ 21,136,18,33,32,83,54,2,128,160,11,28,22,128,160,44,
                               2,14,1,0,0,
      410       410    1        /* "*table", line 2071 */ 21,136,20,4,0,51,59,59,22,59,14,1,0,0,
      411       411    1        /* "*table", line 2077 */ 21,136,24,7,0,83,45,60,108,11,43,51,59,108,22,108,44
                               ,60,14,2,0,0,
CC.C03    File=zbd$table:c.:ZBC3TOU                                                 Fri Aug 22 1997  Page=17
      412       412    1        /* "*table", line 2081 */ 21,136,30,4,12,36,91,110,51,59,108,22,108,14,1,0,0,
      413       413    1        /* "*table", line 2087 */ 21,136,34,7,0,83,45,60,109,11,43,51,59,109,22,109,44
                               ,60,14,2,0,0,
      414       414    1        /* "*table", line 2091 */ 21,136,40,4,12,36,92,111,51,59,109,22,109,14,1,0,0,
      415       415    1        /* "*table", line 2094 */ 21,136,44,33,32,83,60,2,128,160,11,28,22,128,160,44,
                               2,14,1,0,0,
      416       416    1        /* "*table", line 2099 */ 21,136,46,4,0,7,0,83,48,60,128,160,11,43,83,57,60,59
                               ,11,43,22,59,12,14,2,0,0,
      417       417    1        /* "*table", line 2106 */ 21,136,52,7,0,7,0,83,45,60,108,11,43,83,48,128,189,1
                               28,160,11,128,147,83,57,128,189,108,11,128,147,22,108,44,60,14,3,0,0,
      418       418    1        /* "*table", line 2112 */ 21,136,59,4,12,36,91,110,7,0,83,48,60,128,160,11,43,
                               83,57,60,108,11,43,22,108,12,14,2,0,0,
      419       419    1        /* "*table", line 2119 */ 21,136,65,7,0,7,0,83,45,60,109,11,43,83,48,128,189,1
                               28,160,11,128,147,83,57,128,189,109,11,128,147,22,109,44,60,14,3,0,0,
      420       420    1        /* "*table", line 2125 */ 21,136,72,4,12,36,92,111,7,0,83,48,60,128,160,11,43,
                               83,57,60,109,11,43,22,109,12,14,2,0,0,
      421       421    1        /* "*table", line 2129 */ 21,136,78,4,12,36,91,110,51,52,108,14,1,0,0,
      422       422    1        /* "*table", line 2133 */ 21,136,82,4,12,36,92,111,51,52,109,14,1,0,0,
      423       423    1        /* "*table", line 2138 */ 21,136,86,4,77,18,3,7,4,51,88,128,210,11,3,22,128,21
                               0,44,60,14,5,0,0,
      424       424    1        /* "*table", line 2149 */ 21,136,91,18,3,7,6,51,88,128,210,11,3,22,128,210,44,
                               60,14,5,0,0,
      425       425    1        /* "*table", line 2151 */ 21,136,102,109,69,128,170,69,128,171,83,0,0,
      426       426    1        /* "*table", line 2153 */ 21,136,104,109,73,128,170,69,128,171,83,0,0,
      427       427    1        /* "*table", line 2155 */ 21,136,106,109,70,128,170,69,128,171,83,0,0,
      428       428    1        /* "*table", line 2157 */ 21,136,108,109,69,128,170,69,128,171,83,0,0,
      429       429    1        /* "*table", line 2159 */ 21,136,110,109,73,128,170,69,128,171,83,0,0,
      430       430    1        /* "*table", line 2164 */ 21,136,112,109,70,128,170,69,128,171,83,0,0,
      431       431    1        /* "*table", line 2165 */ 21,136,117,0,
      432       432    1        /* "*table", line 2166 */ 21,136,118,0,
      433       433    1        /* "*table", line 2167 */ 21,136,119,0,
      434       434    1        /* "*table", line 2169 */ 21,136,121,0,
      435       435    1        /* "*table", line 2170 */ 21,136,121,109,69,9,69,24,37,0,0,
      436       436    1        /* "*table", line 2172 */ 21,136,122,109,69,9,69,24,37,0,0,
      437       437    1        /* "*table", line 2179 */ 21,136,125,33,73,7,0,83,113,2,128,211,10,38,60,83,81
                               ,60,128,212,11,43,44,60,14,4,0,0,
      438       438    1        /* "*table", line 2185 */ 21,136,131,33,74,7,0,10,128,213,60,83,78,60,128,214,
CC.C03    File=zbd$table:c.:ZBC3TOU                                                 Fri Aug 22 1997  Page=18
                               11,43,83,81,60,128,212,11,43,44,60,14,2,0,0,
      439       439    1        /* "*table", line 2191 */ 21,136,137,33,75,7,0,10,128,215,60,83,78,60,128,216,
                               11,43,83,81,60,128,212,11,43,44,60,14,2,0,0,
      440       440    1        /* "*table", line 2196 */ 21,136,143,33,32,83,78,2,128,212,11,28,83,81,2,128,2
                               12,11,28,44,2,14,2,0,0,
      441       441    1        /* "*table", line 2203 */ 21,136,149,33,73,7,0,51,52,37,83,113,2,63,10,38,60,4
                               4,60,14,4,0,0,
      442       442    1        /* "*table", line 2209 */ 21,136,155,33,74,7,0,10,128,213,60,83,83,60,128,217,
                               11,43,83,73,60,77,11,43,22,77,44,60,14,2,0,0,
      443       443    1        /* "*table", line 2215 */ 21,136,161,33,75,7,0,10,128,215,60,83,83,60,128,218,
                               11,43,83,73,60,77,11,43,22,77,44,60,14,2,0,0,
      444       444    1        /* "*table", line 2223 */ 21,136,167,33,32,83,73,2,77,11,28,22,77,44,2,14,1,0,
                               0,
      445       445    1        /* "*table", line 2227 */ 21,136,176,18,3,7,4,51,107,128,219,11,3,44,60,14,1,0
                               ,0,
      446       446    1        /* "*table", line 2232 */ 21,136,180,18,3,7,6,51,108,128,219,11,3,44,60,14,1,0
                               ,0,
      447       447    1        /* "*table", line 2236 */ 21,136,185,18,3,7,4,51,107,128,220,11,3,44,60,14,1,0
                               ,0,
      448       448    1        /* "*table", line 2241 */ 21,136,189,18,3,7,6,51,108,128,220,11,3,44,60,14,1,0
                               ,0,
      449       449    1        /* "*table", line 2245 */ 21,136,194,18,3,7,4,51,109,128,221,11,3,44,60,14,1,0
                               ,0,
      450       450    1        /* "*table", line 2250 */ 21,136,198,18,3,7,6,51,110,128,221,11,3,44,60,14,1,0
                               ,0,
      451       451    1        /* "*table", line 2254 */ 21,136,203,18,3,7,4,51,109,128,220,11,3,44,60,14,1,0
                               ,0,
      452       452    1        /* "*table", line 2260 */ 21,136,207,18,3,7,6,51,110,128,220,11,3,44,60,14,1,0
                               ,0,
      453       453    1        /* "*table", line 2268 */ 21,136,213,33,76,18,3,18,4,18,1,18,2,51,47,57,51,85,
                               128,212,11,3,11,4,51,86,128,222,11,1,11,2,51,49,128,223,51,90,128,224,11,3,22,
                               128,224,44,128,225,14,5,0,0,
      454       454    1        /* "*table", line 2277 */ 21,136,221,33,76,18,3,18,4,18,1,18,2,51,47,57,51,85,
                               128,212,11,3,11,4,51,86,128,222,11,1,11,2,51,49,128,223,51,90,128,224,11,3,22,
                               128,224,44,128,226,14,5,0,0,
      455       455    1        /* "*table", line 2284 */ 21,136,230,33,76,18,1,18,2,18,3,51,47,57,51,86,128,1
                               53,11,1,11,2,51,49,128,223,51,90,128,224,11,3,22,128,224,44,128,225,14,4,0,0,
CC.C03    File=zbd$table:c.:ZBC3TOU                                                 Fri Aug 22 1997  Page=19
      456       456    1        /* "*table", line 2292 */ 21,136,237,33,76,18,1,18,2,18,3,51,47,57,51,86,128,1
                               53,11,1,11,2,51,49,128,223,51,90,128,224,11,3,22,128,224,44,128,226,14,4,0,0,
      457       457    1        /* "*table", line 2300 */ 21,136,245,33,95,18,1,18,2,18,3,83,73,2,77,11,28,51,
                               47,57,51,86,128,153,11,1,11,2,51,49,128,223,51,90,128,224,11,3,22,128,224,44,1
                               28,225,14,5,0,0,
      458       458    1        /* "*table", line 2309 */ 21,136,253,33,95,18,1,18,2,18,3,83,73,2,77,11,28,51,
                               47,57,51,86,128,153,11,1,11,2,51,49,128,223,51,90,128,224,11,3,22,128,224,44,1
                               28,226,14,5,0,0,
      459       459    1        /* "*table", line 2316 */ 21,137,6,33,76,18,1,18,2,18,3,51,47,57,51,87,128,153
                               ,11,1,11,2,51,49,128,223,51,90,128,224,11,3,22,128,224,44,128,225,14,4,0,0,
      460       460    1        /* "*table", line 2326 */ 21,137,13,33,76,18,1,18,2,18,3,51,47,57,51,87,128,15
                               3,11,1,11,2,51,49,128,223,51,90,128,224,11,3,22,128,224,44,128,226,14,4,0,0,
      461       461    1        /* "*table", line 2328 */ 21,137,22,109,69,75,69,118,22,0,0,
      462       462    1        /* "*table", line 2333 */ 21,137,25,33,42,18,3,18,4,51,106,128,223,11,3,51,85,
                               128,153,11,3,11,4,22,128,223,44,3,14,2,0,0,
      463       463    1        /* "*table", line 2341 */ 21,137,30,33,33,18,3,18,4,51,106,128,223,11,3,51,85,
                               128,153,11,3,11,4,22,128,223,44,3,14,2,0,0,
      464       464    1        /* "*table", line 2342 */ 21,137,38,0,
      465       465    1        /* "*table", line 2344 */ 21,137,40,0,
      466       466    1        /* "*table", line 2346 */ 21,137,41,33,42,44,128,226,0,
      467       467    1        /* "*table", line 2351 */ 21,137,43,33,33,44,128,225,0,
      468       468    1        /* "*table", line 2354 */ 21,137,48,65,5,32,83,73,1,2,11,5,22,2,44,1,14,1,0,0,

      469       469    1        /* "*table", line 2356 */ 21,137,50,65,32,5,83,73,2,1,11,28,22,1,44,2,14,1,0,0
                               ,
      470       470    1        /* "*table", line 2359 */ 21,137,52,33,32,4,0,83,73,2,38,11,28,22,38,44,2,14,1
                               ,0,0,
      471       471    1        /* "*table", line 2362 */ 21,137,56,65,5,32,83,75,1,2,11,5,22,2,44,1,14,1,0,0,

      472       472    1        /* "*table", line 2364 */ 21,137,58,65,32,5,83,75,2,1,11,28,22,1,44,2,14,1,0,0
                               ,
      473       473    1        /* "*table", line 2367 */ 21,137,60,33,32,4,0,83,75,2,38,11,28,22,38,44,2,14,1
                               ,0,0,
      474       474    1        /* "*table", line 2370 */ 21,137,64,65,5,32,83,76,1,2,11,5,22,2,44,1,14,1,0,0,

      475       475    1        /* "*table", line 2372 */ 21,137,66,65,32,5,83,76,2,1,11,28,22,1,44,2,14,1,0,0
                               ,
CC.C03    File=zbd$table:c.:ZBC3TOU                                                 Fri Aug 22 1997  Page=20
      476       476    1        /* "*table", line 2375 */ 21,137,68,33,32,4,0,83,76,2,38,11,28,22,38,44,2,14,1
                               ,0,0,
      477       477    1        /* "*table", line 2379 */ 21,137,72,33,32,83,76,2,128,157,11,28,22,128,157,44,
                               2,14,1,0,0,
      478       478    1        /* "*table", line 2382 */ 21,137,76,65,1,32,83,80,1,128,156,11,5,44,1,14,1,0,0
                               ,
      479       479    1        /* "*table", line 2385 */ 21,137,78,65,19,32,83,83,1,54,11,5,44,1,14,1,0,0,
      480       480    1        /* "*table", line 2388 */ 21,137,82,65,1,32,83,80,1,128,227,11,5,44,1,14,1,0,0
                               ,
      481       481    1        /* "*table", line 2399 */ 21,137,84,65,32,32,83,76,2,128,157,11,28,83,55,2,128
                               ,228,11,28,83,83,1,54,11,5,22,128,228,44,1,14,3,0,0,
      482       482    1        /* "*table", line 2403 */ 21,137,96,65,5,19,4,0,83,70,1,2,22,2,44,128,229,14,1
                               ,0,0,
      483       483    1        /* "*table", line 2406 */ 21,137,99,65,19,5,4,0,83,70,2,1,22,1,44,128,230,14,1
                               ,0,0,
      484       484    1        /* "*table", line 2409 */ 21,137,102,33,19,4,0,83,70,2,38,22,38,44,128,230,14,
                               1,0,0,
      485       485    1        /* "*table", line 2412 */ 21,137,105,65,60,5,4,0,51,68,1,22,1,44,128,229,14,1,
                               0,0,
      486       486    1        /* "*table", line 2416 */ 21,137,108,65,5,60,4,0,51,68,2,22,2,44,128,230,14,1,
                               0,0,
      487       487    1        /* "*table", line 2417 */ 21,137,112,45,31,24,0,
      488       488    1        /* "*table", line 2419 */ 21,137,113,45,31,24,0,
      489       489    1        /* "*table", line 2423 */ 21,137,116,65,5,19,4,0,83,70,1,2,22,2,44,128,231,14,
                               1,0,0,
      490       490    1        /* "*table", line 2426 */ 21,137,119,65,19,5,4,0,83,70,2,1,22,1,44,128,232,14,
                               1,0,0,
      491       491    1        /* "*table", line 2431 */ 21,137,122,33,19,4,0,83,70,2,38,22,38,44,128,232,14,
                               1,0,0,
      492       492    1        /* "*table", line 2435 */ 21,137,128,65,5,42,4,0,51,95,2,22,2,44,128,229,14,1,
                               0,0,
      493       493    1        /* "*table", line 2438 */ 21,137,131,65,42,5,4,0,51,95,1,22,1,44,128,230,14,1,
                               0,0,
      494       494    1        /* "*table", line 2441 */ 21,137,134,33,42,4,0,51,95,38,22,38,44,128,230,14,1,
                               0,0,
      495       495    1        /* "*table", line 2445 */ 21,137,137,33,64,4,0,18,3,51,88,128,145,11,3,51,95,3
                               8,22,38,44,128,230,14,6,0,0,
CC.C03    File=zbd$table:c.:ZBC3TOU                                                 Fri Aug 22 1997  Page=21
      496       496    1        /* "*table", line 2448 */ 21,137,141,65,98,64,4,0,51,96,128,192,22,128,192,44,
                               128,229,14,1,0,0,
      497       497    1        /* "*table", line 2451 */ 21,137,144,65,98,5,4,0,51,96,1,22,1,44,128,229,14,1,
                               0,0,
      498       498    1        /* "*table", line 2454 */ 21,137,147,65,5,98,4,0,51,96,2,22,2,44,128,230,14,1,
                               0,0,
      499       499    1        /* "*table", line 2458 */ 21,137,150,65,98,42,4,0,51,71,104,22,104,44,128,229,
                               14,1,0,0,
      500       500    1        /* "*table", line 2462 */ 21,137,155,65,7,33,4,0,51,105,2,22,2,44,128,229,14,1
                               ,0,0,
      501       501    1        /* "*table", line 2465 */ 21,137,158,65,33,7,4,0,51,105,1,22,1,44,128,230,14,1
                               ,0,0,
      502       502    1        /* "*table", line 2468 */ 21,137,161,33,33,4,0,51,105,72,22,72,44,128,230,14,1
                               ,0,0,
      503       503    1        /* "*table", line 2472 */ 21,137,164,33,64,4,0,51,98,128,148,51,105,72,22,72,4
                               4,128,230,14,6,0,0,
      504       504    1        /* "*table", line 2475 */ 21,137,168,65,98,64,4,0,51,96,128,233,22,128,233,44,
                               128,229,14,1,0,0,
      505       505    1        /* "*table", line 2478 */ 21,137,171,65,98,7,4,0,51,96,1,22,1,44,128,229,14,1,
                               0,0,
      506       506    1        /* "*table", line 2481 */ 21,137,174,65,7,98,4,0,51,96,2,22,2,44,128,230,14,1,
                               0,0,
      507       507    1        /* "*table", line 2485 */ 21,137,177,65,98,33,4,0,51,71,104,22,104,44,128,229,
                               14,1,0,0,
      508       508    1        /* "*table", line 2493 */ 21,137,182,33,32,83,70,2,57,83,167,17,128,229,128,16
                               5,83,45,2,57,11,28,51,128,147,128,166,83,45,2,128,160,11,28,22,128,160,44,2,14
                               ,5,0,0,
      509       509    1        /* "*table", line 2501 */ 21,137,189,33,5,7,0,51,68,2,83,167,17,128,229,128,16
                               5,83,45,60,57,11,43,51,128,147,128,166,83,45,60,128,160,11,43,22,128,160,44,60
                               ,14,5,0,0,
      510       510    1        /* "*table", line 2511 */ 21,137,197,33,28,7,0,83,167,17,2,128,165,83,45,60,57
                               ,11,43,51,128,147,128,166,83,45,60,128,160,11,43,22,128,160,44,60,14,4,0,0,
      511       511    1        /* "*table", line 2520 */ 21,137,215,33,99,44,104,0,
      512       512    1        /* "*table", line 2521 */ 21,137,216,45,116,0,0,
      513       513    1        /* "*table", line 2522 */ 21,137,217,33,99,44,105,0,
      514       514    1        /* "*table", line 2524 */ 21,137,218,45,121,0,0,
      515       515    1        /* "*table", line 2525 */ 21,137,220,109,69,7,31,24,116,0,0,
CC.C03    File=zbd$table:c.:ZBC3TOU                                                 Fri Aug 22 1997  Page=22
      516       516    1        /* "*table", line 2527 */ 21,137,221,109,69,7,31,24,121,0,0,
      517       517    1        /* "*table", line 2528 */ 21,137,223,44,128,234,77,27,75,120,0,0,
      518       518    1        /* "*table", line 2529 */ 21,137,224,44,128,234,77,27,75,119,0,0,
      519       519    1        /* "*table", line 2530 */ 21,137,225,44,128,234,77,27,75,116,0,0,
      520       520    1        /* "*table", line 2531 */ 21,137,226,44,128,234,77,27,75,121,0,0,
      521       521    1        /* "*table", line 2532 */ 21,137,227,44,128,234,77,27,75,117,0,0,
      522       522    1        /* "*table", line 2536 */ 21,137,228,44,128,234,77,27,75,118,0,0,
      523       523    1        /* "*table", line 2540 */ 21,137,233,4,0,51,128,147,128,235,14,1,0,0,
      524       524    1        /* "*table", line 2544 */ 21,137,237,33,19,4,0,83,70,2,57,83,167,17,128,229,12
                               8,235,22,57,12,14,2,0,0,
      525       525    1        /* "*table", line 2547 */ 21,137,240,33,5,4,0,51,68,2,83,167,17,128,229,128,23
                               5,22,2,12,14,2,0,0,
      526       526    1        /* "*table", line 2552 */ 21,137,243,33,28,4,0,83,167,17,2,128,235,12,14,1,0,0
                               ,
      527       527    1        /* "*table", line 2553 */ 21,137,248,77,28,24,128,129,75,0,
      528       528    1        /* "*table", line 2554 */ 21,137,249,77,28,24,128,128,75,0,
      529       529    1        /* "*table", line 2555 */ 21,137,250,77,28,24,124,75,0,
      530       530    1        /* "*table", line 2556 */ 21,137,251,77,28,24,128,130,75,0,
      531       531    1        /* "*table", line 2557 */ 21,137,252,77,28,24,126,75,0,
      532       532    1        /* "*table", line 2559 */ 21,137,253,77,28,24,127,75,0,
      533       533    1        /* "*table", line 2568 */ 21,138,7,33,99,12,0,
      534       534    1        /* "*table", line 2569 */ 21,138,8,45,124,128,140,0,
      535       535    1        /* "*table", line 2570 */ 21,138,9,33,99,12,45,18,128,140,0,
      536       536    1        /* "*table", line 2572 */ 21,138,10,45,128,130,128,140,0,
      537       537    1        /* "*table", line 2573 */ 21,138,12,109,69,7,31,24,124,128,140,0,
      538       538    1        /* "*table", line 2575 */ 21,138,13,109,69,7,31,24,128,130,128,140,0,
      539       539    1        /* "*table", line 2576 */ 21,138,15,44,128,234,77,27,75,128,129,128,140,0,
      540       540    1        /* "*table", line 2577 */ 21,138,16,44,128,234,77,27,75,128,128,128,140,0,
      541       541    1        /* "*table", line 2578 */ 21,138,17,44,128,234,77,27,75,124,128,140,0,
      542       542    1        /* "*table", line 2579 */ 21,138,18,44,128,234,77,27,75,128,130,128,140,0,
      543       543    1        /* "*table", line 2580 */ 21,138,19,44,128,234,77,27,75,126,128,140,0,
      544       544    1        /* "*table", line 2584 */ 21,138,20,44,128,234,77,27,75,127,128,140,0,
      545       545    1        /* "*table", line 2590 */ 21,138,25,65,2,80,4,0,51,128,133,1,51,128,134,128,23
                               6,51,128,144,128,237,51,47,57,22,57,12,14,4,0,0,
      546       546    1        /* "*table", line 2595 */ 21,138,30,33,2,4,0,51,128,134,128,236,51,128,144,128
                               ,237,51,47,57,22,57,12,14,3,0,0,
      547       547    1        /* "*table", line 2601 */ 21,138,36,97,76,2,80,4,0,51,128,133,128,238,51,128,1
CC.C03    File=zbd$table:c.:ZBC3TOU                                                 Fri Aug 22 1997  Page=23
                               34,128,239,51,128,144,128,240,51,47,57,22,57,12,14,4,0,0,
      548       548    1        /* "*table", line 2605 */ 21,138,41,65,76,2,4,0,51,128,134,128,239,51,128,144,
                               128,240,51,47,57,22,57,12,14,3,0,0,
      549       549    1        /* "*table", line 2610 */ 21,138,45,97,77,2,80,4,0,51,128,133,128,238,51,128,1
                               34,128,239,51,128,144,128,241,51,47,57,22,57,12,14,4,0,0,
      550       550    1        /* "*table", line 2615 */ 21,138,50,65,77,2,4,0,51,128,134,128,239,51,128,144,
                               128,241,51,47,57,22,57,12,14,3,0,0,
      551       551    1        /* "*table", line 2616 */ 21,138,55,44,5,0,
      552       552    1        /* "*table", line 2617 */ 21,138,56,44,128,226,0,
      553       553    1        /* "*table", line 2619 */ 21,138,57,44,5,0,
      554       554    1        /* "*table", line 2623 */ 21,138,60,4,0,17,0,
      555       555    1        /* "*table", line 2626 */ 21,138,64,33,77,4,0,17,12,0,
      556       556    1        /* "*table", line 2629 */ 21,138,66,33,42,4,0,17,12,0,
      557       557    1        /* "*table", line 2633 */ 21,138,70,33,33,4,0,17,12,0,
      558       558    1        /* "*table", line 2640 */ 21,138,74,33,100,4,0,83,73,2,77,11,28,17,22,77,12,14
                               ,1,0,0,
      559       559    1        /* "*table", line 2642 */ 21,138,81,33,101,12,0,
      560       560    1        /* "*table", line 2645 */ 21,138,83,33,102,12,0,
      561       561    1        /* "*table", line 2649 */ 21,138,86,65,71,71,83,113,128,242,120,12,14,3,0,0,
      562       562    1        /* "*table", line 2652 */ 21,138,90,33,103,76,2,2,0,
      563       563    1        /* "*table", line 2654 */ 21,138,92,33,7,76,2,2,0,
      564       564    1        /* "*table", line 2657 */ 21,138,94,33,15,4,0,10,2,37,44,2,0,
      565       565    1        /* "*table", line 2661 */ 21,138,97,33,16,4,0,10,2,58,44,2,0,
      566       566    1        /* "*table", line 2664 */ 21,138,102,51,128,155,128,237,0,
      567       567    1        /* "*table", line 2667 */ 21,138,105,51,128,156,128,220,0,
      568       568    1        /* "*table", line 2670 */ 21,138,108,51,128,157,50,0,
      569       569    1        /* "*table", line 2676 */ 21,138,116,0,
      570       570    1        /* "*table", line 2693 */ 21,138,117,33,81,4,0,51,46,38,51,63,8,51,128,148,128
                               ,163,51,71,128,243,51,128,152,128,165,51,46,128,244,51,128,147,128,240,51,46,7
                               ,51,128,147,128,240,22,7,12,14,9,0,0,
      571       571    1        /* "*table", line 2719 */ 21,138,134,33,81,4,0,51,46,59,51,47,128,245,51,51,59
                               ,51,47,8,51,79,128,153,51,51,37,51,56,128,151,51,82,128,153,51,74,128,245,51,7
                               2,128,151,51,128,150,128,169,51,71,128,246,51,128,148,128,247,51,128,152,128,1
                               65,51,46,128,248,
      572       572    1        51,128,147,128,240,51,51,128,151,51,56,128,152,51,128,147,128,249,51,46,7,51,1
                               28,147,128,240,22,7,12,14,21,0,0,
      573       573    1        /* "*table", line 2724 */ 21,138,160,65,4,71,147,113,2,128,220,128,250,128,220
CC.C03    File=zbd$table:c.:ZBC3TOU                                                 Fri Aug 22 1997  Page=24
                               ,44,1,14,3,0,0,
      574       574    1        /* "*table", line 2729 */ 21,138,165,97,19,4,71,147,114,1,2,128,251,2,44,128,2
                               38,14,3,0,0,
      575       575    1        /* "*table", line 2733 */ 21,138,170,65,4,4,147,113,2,128,220,1,128,220,12,14,
                               3,0,0,
      576       576    1        /* "*table", line 2738 */ 21,138,174,97,19,4,4,147,114,1,2,128,238,2,12,14,3,0
                               ,0,
      577       577    1        /* "*table", line 2751 */ 21,138,179,65,71,71,7,0,83,128,137,128,176,37,83,128
                               ,137,128,205,37,83,45,60,59,11,43,83,70,60,128,252,51,128,151,128,163,147,115,
                               128,253,128,220,128,250,128,220,51,128,147,128,254,147,113,128,253,128,220,128
                               ,250,128,220,22,
      578       578    1        128,252,44,60,14,12,0,0,
      579       579    1        /* "*table", line 2764 */ 21,138,192,97,19,71,71,7,0,83,128,137,128,205,37,83,
                               128,137,128,255,37,83,45,60,59,11,43,83,70,60,128,252,51,128,151,128,163,147,1
                               16,128,250,2,128,251,2,51,128,147,128,254,147,114,128,250,2,128,251,2,22,128,2
                               52,44,60,14,12,0,
      580       580    1        0,
      581       581    1        /* "*table", line 2776 */ 21,138,205,65,71,71,7,0,83,128,137,128,176,37,83,128
                               ,137,128,205,37,83,45,60,59,11,43,83,70,60,128,252,51,128,151,128,163,147,115,
                               128,253,128,220,128,250,128,220,51,128,147,128,254,147,113,128,253,128,220,128
                               ,250,128,220,22,
      582       582    1        128,252,12,14,12,0,0,
      583       583    1        /* "*table", line 2778 */ 21,138,217,97,19,4,4,12,0,
      584       584    1        /* "*table", line 2790 */ 21,138,218,97,19,71,71,7,0,83,128,137,128,205,37,83,
                               128,137,128,255,37,83,45,60,59,11,43,83,70,60,128,252,51,128,151,128,163,147,1
                               16,128,250,2,128,251,2,51,128,147,128,254,147,114,128,250,2,128,251,2,22,128,2
                               52,12,14,12,0,0,
      585       585    1
      586       586    1        /* "*table", line 2795 */ 21,138,231,33,71,179,113,129,0,129,1,128,253,129,2,1
                               28,220,44,2,14,3,0,0,
      587       587    1        /* "*table", line 2799 */ 21,138,236,97,19,2,71,179,114,129,0,129,1,128,251,2,
                               129,3,44,128,238,14,3,0,0,
      588       588    1        /* "*table", line 2805 */ 21,138,239,97,76,77,71,51,128,134,128,238,51,128,144
                               ,129,4,51,128,142,50,22,0,44,128,238,14,3,0,0,
      589       589    1        /* "*table", line 2809 */ 21,138,246,33,71,179,113,129,0,129,1,128,253,129,2,1
                               28,220,12,14,3,0,0,
      590       590    1        /* "*table", line 2812 */ 21,138,250,97,19,2,71,179,114,129,0,129,1,128,251,2,
CC.C03    File=zbd$table:c.:ZBC3TOU                                                 Fri Aug 22 1997  Page=25
                               129,3,12,14,3,0,0,
      591       591    1        /* "*table", line 2818 */ 21,138,252,97,76,77,71,51,128,134,128,238,51,128,144
                               ,129,4,51,128,142,50,22,0,12,14,3,0,0,
      592       592    1        /* "*table", line 2829 */ 21,139,3,65,4,4,7,0,147,117,1,128,220,2,128,220,51,5
                               3,37,83,45,60,38,11,43,83,83,60,101,11,43,83,73,60,102,11,43,83,45,60,129,5,11
                               ,43,22,129,5,44,60,14,8,0,0,
      593       593    1        /* "*table", line 2839 */ 21,139,14,97,32,4,4,147,118,128,238,2,1,2,51,53,37,8
                               3,45,2,38,11,28,83,83,2,101,11,28,83,73,2,102,11,28,83,45,2,129,6,11,28,22,129
                               ,6,44,2,14,8,0,0,
      594       594    1        /* "*table", line 2842 */ 21,139,24,65,4,4,12,0,
      595       595    1        /* "*table", line 2848 */ 21,139,27,97,19,4,4,12,0,
      596       596    1        /* "*table", line 2855 */ 21,139,33,33,71,7,0,147,119,128,253,129,2,129,7,37,5
                               1,128,153,128,254,83,45,60,38,11,43,51,128,139,129,8,51,128,147,128,166,83,128
                               ,136,128,176,129,9,11,6,22,38,44,2,14,8,0,0,
      597       597    1        /* "*table", line 2861 */ 21,139,40,65,9,71,7,0,147,119,128,250,128,220,2,37,5
                               1,128,153,128,254,83,45,60,38,11,43,51,128,139,129,10,51,128,147,128,166,83,12
                               8,136,128,205,129,9,11,15,22,38,44,1,14,8,0,0,
      598       598    1        /* "*table", line 2867 */ 21,139,45,65,32,71,83,50,2,37,147,119,128,250,128,22
                               0,63,37,51,128,153,128,254,83,45,2,128,152,11,28,51,128,139,129,11,51,128,147,
                               128,166,83,128,136,128,205,129,9,11,15,22,128,152,44,1,14,9,0,0,
      599       599    1        /* "*table", line 2872 */ 21,139,52,97,32,2,71,147,120,128,251,2,129,12,37,51,
                               128,153,128,254,83,45,2,38,11,28,51,128,139,129,13,51,128,147,128,166,83,128,1
                               36,128,255,129,9,11,128,223,22,38,44,128,238,14,8,0,0,
      600       600    1        /* "*table", line 2876 */ 21,139,56,97,32,9,71,147,120,128,251,2,1,37,51,128,1
                               53,128,254,83,45,2,38,11,28,51,128,139,129,13,51,128,147,128,166,83,128,136,12
                               8,255,129,9,11,128,223,22,38,44,128,238,14,8,0,0,
      601       601    1        /* "*table", line 2882 */ 21,139,60,97,32,19,71,83,50,1,37,147,120,128,251,2,6
                               3,37,51,128,153,128,254,83,45,2,128,152,11,28,51,128,139,129,13,51,128,147,128
                               ,166,83,128,136,128,255,129,9,11,128,223,22,128,152,44,128,238,14,9,0,0,
      602       602    1        /* "*table", line 2889 */ 21,139,67,97,19,19,4,12,0,
      603       603    1        /* "*table", line 2896 */ 21,139,74,33,71,7,0,147,121,128,253,129,2,129,7,37,5
                               1,128,153,128,163,83,45,60,129,14,11,43,83,62,60,38,11,43,51,128,139,129,8,51,
                               128,147,128,166,83,128,136,128,176,129,9,11,6,22,38,44,2,14,9,0,0,
      604       604    1        /* "*table", line 2902 */ 21,139,81,65,9,71,7,0,147,121,128,250,128,220,2,37,5
                               1,128,153,128,163,83,45,60,129,15,11,43,83,62,60,38,11,43,51,128,139,129,10,51
                               ,128,147,128,166,83,128,136,128,205,129,9,11,15,22,38,44,1,14,9,0,0,
      605       605    1        /* "*table", line 2908 */ 21,139,86,65,32,71,83,50,2,37,147,121,128,250,128,22
CC.C03    File=zbd$table:c.:ZBC3TOU                                                 Fri Aug 22 1997  Page=26
                               0,63,37,51,128,153,128,163,83,45,2,129,15,11,28,83,62,2,128,152,11,28,51,128,1
                               39,129,11,51,128,147,128,166,83,128,136,128,205,129,9,11,15,22,128,152,44,1,14
                               ,10,0,0,
      606       606    1        /* "*table", line 2913 */ 21,139,93,97,32,2,71,147,122,128,251,2,129,12,37,51,
                               128,153,128,163,83,62,2,128,160,11,28,83,62,2,38,11,28,51,128,139,129,13,51,12
                               8,147,128,166,83,128,136,128,255,129,9,11,128,223,22,38,44,128,238,14,9,0,0,
      607       607    1        /* "*table", line 2917 */ 21,139,97,97,32,9,71,147,122,128,251,2,1,37,51,128,1
                               53,128,163,83,62,2,128,160,11,28,83,62,2,38,11,28,51,128,139,129,13,51,128,147
                               ,128,166,83,128,136,128,255,129,9,11,128,223,22,38,44,128,238,14,9,0,0,
      608       608    1        /* "*table", line 2923 */ 21,139,101,97,32,19,71,83,50,1,37,147,122,128,251,2,
                               63,37,51,128,153,128,163,83,62,2,128,160,11,28,83,62,2,128,152,11,28,51,128,13
                               9,129,13,51,128,147,128,166,83,128,136,128,255,129,9,11,128,223,22,128,152,44,
                               128,238,14,10,0,
      609       609    1        0,
      610       610    1        /* "*table", line 2929 */ 21,139,108,97,19,19,4,12,0,
      611       611    1        /* "*table", line 2930 */ 21,139,113,33,33,51,128,144,129,16,51,128,144,129,17
                               ,22,0,12,14,2,0,0,
      612       612    1        /* "*table", line 2931 */ 21,139,114,33,33,51,128,144,129,18,51,128,144,129,17
                               ,22,0,12,14,2,0,0,
      613       613    1        /* "*table", line 2932 */ 21,139,115,33,33,51,128,144,129,19,51,128,144,129,17
                               ,22,0,12,14,2,0,0,
      614       614    1        /* "*table", line 2933 */ 21,139,116,33,33,51,128,144,129,20,51,128,144,129,17
                               ,22,0,12,14,2,0,0,
      615       615    1        /* "*table", line 2934 */ 21,139,117,33,33,51,128,144,129,21,51,128,144,129,17
                               ,22,0,12,14,2,0,0,
      616       616    1        /* "*table", line 2935 */ 21,139,118,33,33,51,128,144,129,22,51,128,144,129,17
                               ,22,0,12,14,2,0,0,
      617       617    1        /* "*table", line 2936 */ 21,139,119,33,33,51,128,144,129,23,51,128,144,129,17
                               ,22,0,12,14,2,0,0,
      618       618    1        /* "*table", line 2937 */ 21,139,120,33,33,51,128,144,129,24,51,128,144,129,17
                               ,22,0,12,14,2,0,0,
      619       619    1        /* "*table", line 2941 */ 21,139,121,33,33,51,128,144,129,25,51,128,144,129,17
                               ,22,0,12,14,2,0,0,
      620       620    1        /* "*table", line 2942 */ 21,139,125,33,33,51,71,57,51,128,150,128,254,51,128,
                               144,129,26,51,128,144,129,17,51,128,147,128,166,51,128,144,129,27,22,0,12,14,6
                               ,0,0,
      621       621    1        /* "*table", line 2947 */ 21,139,126,33,33,51,71,57,51,128,150,128,254,51,128,
CC.C03    File=zbd$table:c.:ZBC3TOU                                                 Fri Aug 22 1997  Page=27
                               144,129,28,51,128,144,129,17,51,128,147,128,166,51,128,144,129,27,22,0,12,14,6
                               ,0,0,
      622       622    1        /* "*table", line 2947 */ 21,139,131,65,7,33,51,128,135,2,51,128,144,129,29,51
                               ,128,144,129,17,22,0,12,14,3,0,0,
      623       623    1        /* "*table", line 2947 */ 21,139,131,65,33,7,51,99,58,51,98,1,51,128,135,72,51
                               ,128,144,129,29,51,128,144,129,17,22,0,12,14,13,0,0,
      624       624    1        /* "*table", line 2948 */ 21,139,131,33,33,4,0,51,99,58,51,98,129,30,51,128,13
                               5,129,31,51,128,144,129,29,51,128,144,129,17,22,0,12,14,13,0,0,
      625       625    1        /* "*table", line 2948 */ 21,139,132,65,7,33,51,128,135,2,51,128,144,129,32,51
                               ,128,144,129,17,22,0,12,14,3,0,0,
      626       626    1        /* "*table", line 2948 */ 21,139,132,65,33,7,51,99,58,51,98,1,51,128,135,72,51
                               ,128,144,129,32,51,128,144,129,17,22,0,12,14,13,0,0,
      627       627    1        /* "*table", line 2951 */ 21,139,132,33,33,4,0,51,99,58,51,98,129,30,51,128,13
                               5,129,31,51,128,144,129,32,51,128,144,129,17,22,0,12,14,13,0,0,
      628       628    1        /* "*table", line 2957 */ 21,139,136,33,33,18,3,51,95,57,51,128,149,128,166,51
                               ,97,50,11,3,22,57,12,14,3,0,0,
      629       629    1        /* "*table", line 2963 */ 21,139,142,33,76,51,71,57,51,128,149,128,166,51,69,5
                               0,22,57,44,3,14,3,0,0,
      630       630    1        /* "*table", line 2970 */ 21,139,147,33,77,51,72,57,51,128,149,128,165,83,76,5
                               ,129,33,11,3,83,54,5,128,160,11,3,22,128,160,44,5,14,4,0,0,
      631       631    1        /* "*table", line 2976 */ 21,139,155,33,19,12,0,
      632       632    1        /* "*table", line 2982 */ 21,139,161,33,71,7,0,7,0,83,128,137,128,176,37,83,45
                               ,60,59,11,43,83,83,60,82,11,43,83,73,60,129,34,11,43,83,76,60,129,34,11,43,83,
                               55,60,128,160,11,43,83,45,128,189,57,11,128,147,147,120,128,253,60,129,35,37,5
                               1,128,139,129,8,
      633       633    1        83,45,60,129,36,11,43,83,55,128,189,128,152,11,128,147,51,128,153,128,247,22,1
                               28,152,44,128,189,14,14,0,0,
      634       634    1        /* "*table", line 2986 */ 21,139,167,33,71,12,0,
      635       635    1        /* "*table", line 2996 */ 21,139,171,65,71,71,7,0,7,0,83,128,137,128,176,37,83
                               ,45,60,59,11,43,83,83,60,82,11,43,83,73,60,129,34,11,43,83,76,60,129,34,11,43,
                               83,55,60,128,160,11,43,83,45,128,189,57,11,128,147,147,120,128,253,60,129,35,3
                               7,51,128,139,129,
      636       636    1        8,83,45,60,129,36,11,43,83,55,128,189,59,11,128,147,51,128,153,128,247,83,128,
                               136,128,176,128,252,11,6,83,55,128,189,128,160,11,128,147,147,114,128,253,128,
                               189,128,250,128,189,22,128,160,44,1,14,19,0,0,
      637       637    1        /* "*table", line 3006 */ 21,139,181,65,71,71,7,0,7,0,83,128,137,128,176,37,83
                               ,45,60,59,11,43,83,83,60,82,11,43,83,73,60,129,34,11,43,83,76,60,129,34,11,43,
CC.C03    File=zbd$table:c.:ZBC3TOU                                                 Fri Aug 22 1997  Page=28
                               83,55,60,128,160,11,43,83,45,128,189,57,11,128,147,147,120,128,253,60,129,35,3
                               7,51,128,139,129,
      638       638    1        8,83,45,60,129,36,11,43,83,55,128,189,59,11,128,147,51,128,153,128,247,83,128,
                               136,128,176,128,252,11,6,83,55,128,189,128,160,11,128,147,147,114,128,253,128,
                               189,128,250,128,189,22,128,160,12,14,19,0,0,
      639       639    1        /* "*table", line 3024 */ 21,139,191,65,71,71,7,0,7,0,83,128,137,128,176,37,83
                               ,45,60,59,11,43,83,83,60,82,11,43,83,73,60,129,34,11,43,83,76,60,129,34,11,43,
                               83,55,60,128,160,11,43,83,45,128,189,57,11,128,147,147,120,128,253,60,129,35,3
                               7,51,128,139,129,
      640       640    1        8,83,45,60,129,36,11,43,83,55,128,189,59,11,128,147,51,128,153,128,247,83,50,1
                               28,189,59,83,128,137,128,205,37,83,45,60,59,11,43,83,83,60,82,11,43,83,73,60,1
                               29,34,11,43,83,76,60,129,34,11,43,83,55,60,128,160,11,43,83,45,128,189,57,11,1
                               28,147,147,120,
      641       641    1        128,250,60,129,35,37,51,128,139,129,10,83,45,60,129,36,11,43,83,55,128,189,59,
                               11,128,147,51,128,153,128,247,83,128,136,128,176,129,37,11,6,83,45,60,129,38,1
                               1,43,83,128,136,128,205,128,151,11,15,51,128,139,129,39,83,55,60,128,160,11,43
                               ,147,114,128,253,
      642       642    1        60,128,250,60,83,128,136,128,205,129,40,11,15,22,128,160,44,1,14,38,0,0,
      643       643    1        /* "*table", line 3040 */ 21,139,209,65,71,71,7,0,7,0,83,128,137,128,176,37,83
                               ,45,60,59,11,43,83,83,60,82,11,43,83,73,60,129,34,11,43,83,76,60,129,34,11,43,
                               83,55,60,128,160,11,43,83,45,128,189,57,11,128,147,147,120,128,253,60,129,35,3
                               7,51,128,139,129,
      644       644    1        8,83,45,60,129,36,11,43,83,55,128,189,59,11,128,147,51,128,153,128,247,83,50,1
                               28,189,59,83,128,137,128,205,37,83,45,60,59,11,43,83,83,60,82,11,43,83,73,60,1
                               29,34,11,43,83,76,60,129,34,11,43,83,55,60,128,160,11,43,83,45,128,189,57,11,1
                               28,147,147,120,
      645       645    1        128,250,60,129,35,37,51,128,139,129,10,83,45,60,129,36,11,43,83,55,128,189,59,
                               11,128,147,51,128,153,128,247,83,128,136,128,176,129,37,11,6,83,45,60,129,38,1
                               1,43,83,128,136,128,205,129,40,11,15,51,128,139,129,39,83,55,60,128,160,11,43,
                               147,114,128,253,
      646       646    1        60,128,250,60,22,128,160,12,14,37,0,0,
      647       647    1        /* "*table", line 3063 */ 21,139,225,65,71,71,7,0,7,0,83,128,137,128,205,37,83
                               ,45,60,59,11,43,83,83,60,82,11,43,83,73,60,129,34,11,43,83,76,60,129,34,11,43,
                               83,55,60,128,160,11,43,83,45,128,189,57,11,128,147,147,120,128,250,60,129,35,3
                               7,51,128,139,129,
      648       648    1        10,83,45,60,129,36,11,43,83,55,128,189,59,11,128,147,51,128,153,128,247,83,50,
                               128,189,59,83,128,137,128,176,37,83,45,60,59,11,43,83,83,60,82,11,43,83,73,60,
CC.C03    File=zbd$table:c.:ZBC3TOU                                                 Fri Aug 22 1997  Page=29
                               129,34,11,43,83,76,60,129,34,11,43,83,55,60,128,160,11,43,83,45,128,189,57,11,
                               128,147,147,120,
      649       649    1        128,253,60,129,35,37,51,128,139,129,8,83,45,60,129,36,11,43,83,55,128,189,59,1
                               1,128,147,51,128,153,128,247,83,128,136,128,205,129,37,11,15,83,128,136,128,17
                               6,128,151,11,6,83,70,128,189,129,38,51,128,148,128,166,83,45,128,189,129,38,11
                               ,128,147,83,55,
      650       650    1        128,189,128,160,11,128,147,147,118,128,250,128,189,128,253,128,189,51,53,59,83
                               ,45,60,129,41,11,43,83,83,60,101,11,43,83,73,60,102,11,43,83,45,60,129,5,11,43
                               ,22,129,5,44,60,14,43,0,0,
      651       651    1        /* "*table", line 3067 */ 21,139,248,65,4,4,12,0,
      652       652    1        /* "*table", line 3077 */ 21,139,252,33,71,7,0,7,0,83,128,137,128,176,37,83,45
                               ,60,59,11,43,83,83,60,82,11,43,83,73,60,129,34,11,43,83,76,60,129,34,11,43,83,
                               55,60,128,160,11,43,83,45,128,189,57,11,128,147,147,120,128,253,60,129,35,37,5
                               1,128,139,129,8,
      653       653    1        83,45,60,129,36,11,43,83,55,128,189,59,11,128,147,51,128,153,128,247,83,55,128
                               ,189,128,160,11,128,147,83,128,136,128,176,128,151,11,6,147,120,128,253,128,18
                               9,129,7,37,51,128,153,128,254,83,45,60,129,42,11,43,51,128,139,129,8,51,128,14
                               7,128,166,83,128,
      654       654    1        136,128,176,129,9,11,6,22,129,42,44,2,14,24,0,0,
      655       655    1        /* "*table", line 3086 */ 21,140,6,65,9,71,7,0,7,0,83,128,137,128,205,37,83,45
                               ,60,59,11,43,83,83,60,82,11,43,83,73,60,129,34,11,43,83,76,60,129,34,11,43,83,
                               55,60,128,160,11,43,83,45,128,189,57,11,128,147,147,120,128,250,60,129,35,37,5
                               1,128,139,129,10,
      656       656    1        83,45,60,129,36,11,43,83,55,128,189,59,11,128,147,51,128,153,128,247,83,55,128
                               ,189,128,160,11,128,147,83,128,136,128,205,128,151,11,15,147,120,128,250,128,1
                               89,2,37,51,128,153,128,254,83,45,60,129,42,11,43,51,128,139,129,10,51,128,147,
                               128,166,83,128,
      657       657    1        136,128,205,129,9,11,15,22,129,42,44,1,14,24,0,0,
      658       658    1        /* "*table", line 3096 */ 21,140,14,65,32,71,7,0,83,50,2,37,83,128,137,128,205
                               ,37,83,45,2,59,11,28,83,83,2,82,11,28,83,73,2,129,34,11,28,83,76,2,129,34,11,2
                               8,83,55,2,128,160,11,28,83,45,60,57,11,43,147,120,128,250,2,129,35,37,51,128,1
                               39,129,11,83,45,
      659       659    1        2,129,36,11,28,83,55,60,59,11,43,51,128,153,128,247,83,55,60,128,160,11,43,83,
                               128,136,128,205,128,151,11,15,147,120,128,250,60,129,43,37,51,128,153,128,254,
                               83,45,60,129,41,11,43,51,128,139,129,10,51,128,147,128,166,83,128,136,128,205,
                               129,9,11,15,22,
      660       660    1        129,41,44,1,14,25,0,0,
CC.C03    File=zbd$table:c.:ZBC3TOU                                                 Fri Aug 22 1997  Page=30
      661       661    1        /* "*table", line 3100 */ 21,140,25,97,19,19,4,12,0,
      662       662    1        /* "*table", line 3110 */ 21,140,29,33,71,7,0,7,0,83,128,137,128,176,37,83,45,
                               60,59,11,43,83,83,60,82,11,43,83,73,60,129,34,11,43,83,76,60,129,34,11,43,83,5
                               5,60,128,160,11,43,83,45,128,189,57,11,128,147,147,120,128,253,60,129,35,37,51
                               ,128,139,129,8,
      663       663    1        83,45,60,129,36,11,43,83,55,128,189,59,11,128,147,51,128,153,128,247,83,55,128
                               ,189,128,160,11,128,147,83,128,136,128,176,128,151,11,6,147,122,128,253,128,18
                               9,129,7,37,51,128,153,128,163,83,62,128,189,128,160,11,128,147,83,62,128,189,1
                               29,42,11,128,147,
      664       664    1        51,128,139,129,44,51,128,147,128,166,83,128,136,128,176,129,9,11,6,22,129,42,4
                               4,2,14,25,0,0,
      665       665    1        /* "*table", line 3119 */ 21,140,39,65,9,71,7,0,7,0,83,128,137,128,205,37,83,4
                               5,60,59,11,43,83,83,60,82,11,43,83,73,60,129,34,11,43,83,76,60,129,34,11,43,83
                               ,55,60,128,160,11,43,83,45,128,189,57,11,128,147,147,120,128,250,60,129,35,37,
                               51,128,139,129,
      666       666    1        10,83,45,60,129,36,11,43,83,55,128,189,59,11,128,147,51,128,153,128,247,83,55,
                               128,189,128,160,11,128,147,83,128,136,128,205,128,151,11,15,147,122,128,250,12
                               8,189,2,37,51,128,153,128,163,83,62,60,128,160,11,43,83,62,60,129,42,11,43,51,
                               128,139,129,10,
      667       667    1        51,128,147,128,166,83,128,136,128,205,129,9,11,15,22,129,42,44,1,14,25,0,0,
      668       668    1        /* "*table", line 3129 */ 21,140,47,65,32,71,7,0,83,50,2,37,83,128,137,128,205
                               ,37,83,45,2,59,11,28,83,83,2,82,11,28,83,73,2,129,34,11,28,83,76,2,129,34,11,2
                               8,83,55,2,128,160,11,28,83,45,60,57,11,43,147,120,128,250,2,129,35,37,51,128,1
                               39,129,11,83,45,
      669       669    1        2,129,36,11,28,83,55,60,59,11,43,51,128,153,128,247,83,55,60,128,160,11,43,83,
                               128,136,128,205,128,151,11,15,147,122,128,250,60,129,43,37,51,128,153,128,163,
                               83,62,60,128,160,11,43,83,62,60,129,41,11,43,51,128,139,129,10,51,128,147,128,
                               166,83,128,136,
      670       670    1        128,205,129,9,11,15,22,129,41,44,1,14,26,0,0,
      671       671    1        /* "*table", line 3134 */ 21,140,58,97,19,19,4,12,0,
      672       672    1        /* "*table", line 3139 */ 21,140,63,33,32,4,12,36,91,110,83,57,2,108,11,28,22,
                               108,12,14,1,0,0,
      673       673    1        /* "*table", line 3144 */ 21,140,68,33,32,4,12,36,92,111,83,57,2,109,11,28,22,
                               109,12,14,1,0,0,
      674       674    1        /* "*table", line 3149 */ 21,140,73,33,32,4,12,36,91,110,83,57,2,108,11,28,22,
                               108,12,14,1,0,0,
      675       675    1        /* "*table", line 3154 */ 21,140,78,33,32,4,12,36,92,111,83,57,2,109,11,28,22,
CC.C03    File=zbd$table:c.:ZBC3TOU                                                 Fri Aug 22 1997  Page=31
                               109,12,14,1,0,0,
      676       676    1        /* "*table", line 3163 */ 21,140,83,4,12,36,91,110,7,0,83,45,60,108,11,43,83,5
                               5,60,129,45,11,43,83,50,60,108,83,62,60,129,45,11,43,22,129,45,44,60,14,4,0,0,

      677       677    1        /* "*table", line 3170 */ 21,140,92,4,12,36,91,110,7,0,83,45,60,129,46,11,43,8
                               3,55,60,108,11,43,83,50,60,108,22,108,12,14,3,0,0,
      678       678    1        /* "*table", line 3179 */ 21,140,99,4,12,36,92,111,7,0,83,45,60,109,11,43,83,5
                               5,60,129,45,11,43,83,50,60,109,83,62,60,129,45,11,43,22,129,45,44,60,14,4,0,0,

      679       679    1        /* "*table", line 3186 */ 21,140,108,4,12,36,92,111,7,0,83,45,60,129,46,11,43,
                               83,55,60,109,11,43,83,50,60,109,22,109,12,14,3,0,0,
      680       680    1        /* "*table", line 3193 */ 21,140,115,33,32,4,12,36,91,129,78,83,76,2,129,47,11
                               ,28,83,73,2,129,48,11,28,83,77,2,129,47,22,129,47,12,14,3,0,0,
      681       681    1        /* "*table", line 3200 */ 21,140,122,33,32,4,12,36,92,129,82,83,76,2,129,49,11
                               ,28,83,73,2,129,48,11,28,83,77,2,129,49,22,129,49,12,14,3,0,0,
      682       682    1        /* "*table", line 3206 */ 21,140,129,33,15,4,12,36,91,110,10,2,108,44,2,0,
      683       683    1        /* "*table", line 3212 */ 21,140,135,33,15,4,12,36,92,111,10,2,109,44,2,0,
      684       684    1        /* "*table", line 3218 */ 21,140,141,33,16,4,12,36,34,110,10,2,128,141,44,2,0,

      685       685    1        /* "*table", line 3224 */ 21,140,147,33,16,4,12,36,36,111,10,2,128,142,44,2,0,

      686       686    1        /* "*table", line 3227 */ 21,140,153,141,69,129,91,3,24,69,115,106,24,0,
      687       687    1        /* "*table", line 3230 */ 21,140,156,141,69,129,98,3,24,69,52,106,24,0,
      688       688    1        /* "*table", line 3233 */ 21,140,159,141,69,129,91,96,24,69,115,106,24,0,
      689       689    1        /* "*table", line 3236 */ 21,140,162,141,69,129,98,96,24,69,52,106,24,0,
      690       690    1        };
      691       691
      692       692             const char wrd_fmt[]= "%ld";
      693       693             #include "param.h"
      694       694             #include "tables.h"
      695       695             #include "types.h"
      696       696             #include <cgg_cg.h>
      697       697             #include "data.h"
      698       698             const char stregclass[] = {
      699       699    1        	0,
      700       700    1        	1,
      701       701    1        	2,
CC.C03    File=zbd$table:c.:ZBC3TOU                                                 Fri Aug 22 1997  Page=32
      702       702    1        	3,
      703       703    1        	4,
      704       704    1        	5,
      705       705    1        	6,
      706       706    1        	7,
      707       707    1        	8,
      708       708    1        	9,
      709       709    1        	10,
      710       710    1        	11,
      711       711    1        	12,
      712       712    1        	13,
      713       713    1        	14,
      714       714    1        	15,
      715       715    1        };
      716       716
      717       717             struct reginfo machregs[] = {
      718       718    1        {0},
      719       719    1        {181,4,{0,0,},{072,},0},
      720       720    1        {182,4,{0,0,},{034,},0},
      721       721    1        {183,8,{1,2,},{076,},0},
      722       722    1        {184,8,{1,2,},{076,},0},
      723       723    1        {185,4,{1,0,},{072,},0},
      724       724    1        {186,4,{0,0,},{0100,},0},
      725       725    1        {187,4,{0,0,},{0200,},0},
      726       726    1        {188,4,{0,0,},{0400,},0},
      727       727    1        {189,4,{0,0,},{01000,},0},
      728       728    1        {190,4,{0,0,},{02000,},0},
      729       729    1        {191,4,{0,0,},{04000,},0},
      730       730    1        {192,4,{0,0,},{010000,},0},
      731       731    1        {193,4,{0,0,},{020000,},0},
      732       732    1        {194,4,{0,0,},{040000,},0},
      733       733    1        {195,77,{0,0,},{0100000,},1},
      734       734    1        };
      735       735
      736       736             tkdef_t tokens[] = {{0},
      737       737    1        {4,{0,0},{0,0,0,0,0,},0},
      738       738    1        {4,{0,0},{1,0,0,0,0,},1},
CC.C03    File=zbd$table:c.:ZBC3TOU                                                 Fri Aug 22 1997  Page=33
      739       739    1        {4,{0,0},{3,0,0,0,0,},1},
      740       740    1        {4,{0,0},{3,0,0,0,0,},1},
      741       741    1        {4,{0,0},{1,0,0,0,0,},2},
      742       742    1        {4,{0,0},{1,0,0,0,0,},1},
      743       743    1        {4,{0,0},{0,0,0,0,0,},-1},
      744       744    1        {4,{0,0},{3,1,0,0,0,},3},
      745       745    1        {4,{0,0},{3,0,0,0,0,},4},
      746       746    1        {4,{0,0},{0,0,0,0,0,},5},
      747       747    1        {4,{0,0},{1,0,0,0,0,},6},
      748       748    1        {4,{0,0},{1,0,0,0,0,},6},
      749       749    1        {4,{0,0},{1,0,0,0,0,},6},
      750       750    1        {4,{0,0},{1,0,0,0,0,},7},
      751       751    1        {4,{0,0},{1,0,0,0,0,},8},
      752       752    1        {4,{0,0},{1,0,0,0,0,},9},
      753       753    1        {4,{0,0},{1,0,0,0,0,},10},
      754       754    1        {4,{0,0},{3,1,0,0,0,},11},
      755       755    1        {4,{0,0},{2,0,0,0,0,},12},
      756       756    1        {4,{0,0},{1,2,0,0,0,},13},
      757       757    1        {4,{0,0},{1,2,0,0,0,},14},
      758       758    1        {4,{0,0},{3,1,2,0,0,},15},
      759       759    1        {4,{0,0},{3,1,2,0,0,},15},
      760       760    1        {4,{0,0},{2,2,0,0,0,},16},
      761       761    1        {4,{0,0},{1,2,2,0,0,},17},
      762       762    1        {8,{0,0},{1,0,0,0,0,},10},
      763       763    1        {8,{0,0},{3,1,0,0,0,},11},
      764       764    1        {8,{0,0},{2,0,0,0,0,},12},
      765       765    1        {8,{0,0},{1,2,0,0,0,},13},
      766       766    1        {8,{0,0},{1,2,0,0,0,},14},
      767       767    1        {8,{0,0},{3,1,2,0,0,},15},
      768       768    1        {8,{0,0},{2,2,0,0,0,},16},
      769       769    1        {4,{0,0},{1,0,0,0,0,},18},
      770       770    1        {4,{0,0},{2,0,0,0,0,},19},
      771       771    1        {4,{0,0},{1,1,0,0,0,},20},
      772       772    1        {4,{0,0},{3,1,1,0,0,},21},
      773       773    1        {4,{0,0},{1,1,2,0,0,},22},
      774       774    1        {4,{0,0},{3,1,1,2,0,},23},
      775       775    1        {4,{0,0},{2,2,0,0,0,},24},
CC.C03    File=zbd$table:c.:ZBC3TOU                                                 Fri Aug 22 1997  Page=34
      776       776    1        {4,{0,0},{1,0,0,0,0,},25},
      777       777    1        {4,{0,0},{2,1,0,0,0,},26},
      778       778    1        {4,{0,0},{1,1,1,0,0,},27},
      779       779    1        {4,{0,0},{3,1,1,1,0,},28},
      780       780    1        {4,{0,0},{2,2,1,0,0,},29},
      781       781    1        {4,{0,0},{1,1,2,1,0,},30},
      782       782    1        {4,{0,0},{3,1,1,2,1,},31},
      783       783    1        {4,{0,0},{1,0,0,0,0,},10},
      784       784    1        {4,{0,0},{3,1,0,0,0,},11},
      785       785    1        {4,{0,0},{1,2,0,0,0,},14},
      786       786    1        {4,{0,0},{3,1,2,0,0,},15},
      787       787    1        {4,{0,0},{1,0,0,0,0,},10},
      788       788    1        {4,{0,0},{3,1,0,0,0,},11},
      789       789    1        {4,{0,0},{1,2,0,0,0,},14},
      790       790    1        {4,{0,0},{3,1,2,0,0,},15},
      791       791    1        {4,{0,0},{1,1,0,0,0,},32},
      792       792    1        {4,{0,0},{1,3,1,0,0,},33},
      793       793    1        {4,{0,0},{1,1,2,0,0,},34},
      794       794    1        {4,{0,0},{1,3,1,2,0,},35},
      795       795    1        {4,{0,0},{1,2,0,0,0,},36},
      796       796    1        {4,{0,0},{1,2,2,0,0,},37},
      797       797    1        {4,{0,0},{1,2,0,0,0,},38},
      798       798    1        {4,{0,0},{2,0,0,0,0,},39},
      799       799    1        {4,{0,0},{2,0,0,0,0,},39},
      800       800    1        {4,{0,0},{2,2,0,0,0,},40},
      801       801    1        {4,{0,0},{0,0,0,0,0,},41},
      802       802    1        {4,{0,0},{0,0,0,0,0,},42},
      803       803    1        {4,{0,0},{2,0,0,0,0,},43},
      804       804    1        {4,{0,0},{2,2,0,0,0,},40},
      805       805    1        {4,{0,0},{2,2,0,0,0,},40},
      806       806    1        {4,{0,0},{2,0,0,0,0,},44},
      807       807    1        {0}};
      808       808
      809       809             const node_t enodes[] = {
      810       810    1        {2,0,0},
      811       811    1        {36,1,0},
      812       812    1        {36,5,0},
CC.C03    File=zbd$table:c.:ZBC3TOU                                                 Fri Aug 22 1997  Page=35
      813       813    1        {36,2,0},
      814       814    1        {36,4,0},
      815       815    1        {33,2,0},
      816       816    1        {0,1,1},
      817       817    1        {2,0,0},
      818       818    1        {20,6,7},
      819       819    1        {2,1,0},
      820       820    1        {20,6,9},
      821       821    1        {0,1,2},
      822       822    1        {20,11,7},
      823       823    1        {20,11,9},
      824       824    1        {0,1,3},
      825       825    1        {0,2,1},
      826       826    1        {20,15,7},
      827       827    1        {20,15,9},
      828       828    1        {0,2,2},
      829       829    1        {20,18,7},
      830       830    1        {20,18,9},
      831       831    1        {0,2,3},
      832       832    1        {2,18,0},
      833       833    1        {26,6,22},
      834       834    1        {2,4,0},
      835       835    1        {46,24,0},
      836       836    1        {47,7,9},
      837       837    1        {0,1,4},
      838       838    1        {33,1,0},
      839       839    1        {2,8,0},
      840       840    1        {46,29,0},
      841       841    1        {47,7,7},
      842       842    1        {0,0,1},
      843       843    1        {26,32,22},
      844       844    1        {0,0,2},
      845       845    1        {46,34,0},
      846       846    1        {0,0,3},
      847       847    1        {46,36,0},
      848       848    1        {0,0,4},
      849       849    1        {46,38,0},
CC.C03    File=zbd$table:c.:ZBC3TOU                                                 Fri Aug 22 1997  Page=36
      850       850    1        {0,0,5},
      851       851    1        {46,40,0},
      852       852    1        {2,9999,0},
      853       853    1        {3,1,0},
      854       854    1        {2,2048,0},
      855       855    1        {20,34,44},
      856       856    1        {24,45,24},
      857       857    1        {20,32,46},
      858       858    1        {2,512,0},
      859       859    1        {22,47,48},
      860       860    1        {2,2047,0},
      861       861    1        {22,50,34},
      862       862    1        {2,3,0},
      863       863    1        {43,51,52},
      864       864    1        {2,9,0},
      865       865    1        {23,53,54},
      866       866    1        {2,511,0},
      867       867    1        {20,36,44},
      868       868    1        {24,57,24},
      869       869    1        {20,34,58},
      870       870    1        {22,59,48},
      871       871    1        {22,50,36},
      872       872    1        {43,61,52},
      873       873    1        {23,62,54},
      874       874    1        {2,36,0},
      875       875    1        {2,16,0},
      876       876    1        {23,24,34},
      877       877    1        {26,32,65},
      878       878    1        {23,24,36},
      879       879    1        {20,68,32},
      880       880    1        {2,15,0},
      881       881    1        {2,7,0},
      882       882    1        {31,158,0},
      883       883    1        {22,32,9},
      884       884    1        {26,73,52},
      885       885    1        {1,1,0},
      886       886    1        {8,75,7},
CC.C03    File=zbd$table:c.:ZBC3TOU                                                 Fri Aug 22 1997  Page=37
      887       887    1        {8,75,9},
      888       888    1        {14,75,9},
      889       889    1        {6,75,22},
      890       890    1        {19,78,79},
      891       891    1        {28,79,0},
      892       892    1        {43,52,75},
      893       893    1        {11,82,7},
      894       894    1        {8,82,7},
      895       895    1        {48,75,0},
      896       896    1        {44,75,0},
      897       897    1        {43,52,86},
      898       898    1        {11,87,7},
      899       899    1        {8,87,7},
      900       900    1        {45,75,0},
      901       901    1        {2,65532,-1},
      902       902    1        {43,91,86},
      903       903    1        {24,92,24},
      904       904    1        {24,75,24},
      905       905    1        {43,71,75},
      906       906    1        {8,95,7},
      907       907    1        {8,95,24},
      908       908    1        {43,71,86},
      909       909    1        {8,98,7},
      910       910    1        {8,98,24},
      911       911    1        {8,75,24},
      912       912    1        {8,75,29},
      913       913    1        {11,75,24},
      914       914    1        {11,75,29},
      915       915    1        {19,103,104},
      916       916    1        {11,75,9},
      917       917    1        {19,105,106},
      918       918    1        {11,95,7},
      919       919    1        {11,98,7},
      920       920    1        {8,32,85},
      921       921    1        {9,32,90},
      922       922    1        {11,75,7},
      923       923    1        {19,107,112},
CC.C03    File=zbd$table:c.:ZBC3TOU                                                 Fri Aug 22 1997  Page=38
      924       924    1        {47,9,7},
      925       925    1        {2,2,0},
      926       926    1        {47,7,115},
      927       927    1        {8,75,115},
      928       928    1        {1,2,0},
      929       929    1        {8,118,24},
      930       930    1        {19,117,119},
      931       931    1        {19,101,119},
      932       932    1        {19,102,119},
      933       933    1        {2,65535,-1},
      934       934    1        {2,14,0},
      935       935    1        {2,10,0},
      936       936    1        {2,5,0},
      937       937    1        {2,6,0},
      938       938    1        {2,11,0},
      939       939    1        {26,75,65},
      940       940    1        {20,6,75},
      941       941    1        {2,4000,0},
      942       942    1        {20,130,131},
      943       943    1        {43,132,52},
      944       944    1        {24,132,24},
      945       945    1        {20,11,134},
      946       946    1        {2,1000,0},
      947       947    1        {22,135,136},
      948       948    1        {20,14,134},
      949       949    1        {22,138,136},
      950       950    1        {1,3,0},
      951       951    1        {8,140,24},
      952       952    1        {19,120,141},
      953       953    1        {15,75,52},
      954       954    1        {19,143,119},
      955       955    1        {19,144,141},
      956       956    1        {22,75,115},
      957       957    1        {3,2,0},
      958       958    1        {19,96,119},
      959       959    1        {19,148,141},
      960       960    1        {19,84,119},
CC.C03    File=zbd$table:c.:ZBC3TOU                                                 Fri Aug 22 1997  Page=39
      961       961    1        {19,150,141},
      962       962    1        {0,2,4},
      963       963    1        {2,3084,0},
      964       964    1        {8,118,153},
      965       965    1        {19,101,154},
      966       966    1        {19,155,141},
      967       967    1        {8,118,115},
      968       968    1        {19,101,157},
      969       969    1        {19,158,141},
      970       970    1        {2,17,0},
      971       971    1        {19,121,141},
      972       972    1        {8,118,29},
      973       973    1        {19,101,162},
      974       974    1        {19,163,141},
      975       975    1        {2,19,0},
      976       976    1        {8,75,118},
      977       977    1        {9,75,118},
      978       978    1        {2,0,1024},
      979       979    1        {19,77,119},
      980       980    1        {1,4,0},
      981       981    1        {1,5,0},
      982       982    1        {2,27,0},
      983       983    1        {20,11,44},
      984       984    1        {24,173,24},
      985       985    1        {20,6,174},
      986       986    1        {22,175,48},
      987       987    1        {20,44,11},
      988       988    1        {43,177,52},
      989       989    1        {23,178,54},
      990       990    1        {20,14,44},
      991       991    1        {24,180,24},
      992       992    1        {20,11,181},
      993       993    1        {22,182,48},
      994       994    1        {20,44,14},
      995       995    1        {43,184,52},
      996       996    1        {23,185,54},
      997       997    1        {22,50,11},
CC.C03    File=zbd$table:c.:ZBC3TOU                                                 Fri Aug 22 1997  Page=40
      998       998    1        {43,187,52},
      999       999    1        {23,188,54},
     1000      1000    1        {22,50,14},
     1001      1001    1        {43,190,52},
     1002      1002    1        {23,191,54},
     1003      1003    1        {8,118,9},
     1004      1004    1        {19,193,141},
     1005      1005    1        {26,75,172},
     1006      1006    1        {27,195,172},
     1007      1007    1        {8,140,29},
     1008      1008    1        {19,193,197},
     1009      1009    1        {19,119,141},
     1010      1010    1        {19,119,197},
     1011      1011    1        {43,75,56},
     1012      1012    1        {2,28,0},
     1013      1013    1        {2,9216,0},
     1014      1014    1        {2,0,2},
     1015      1015    1        {19,77,162},
     1016      1016    1        {19,102,162},
     1017      1017    1        {22,64,6},
     1018      1018    1        {2,37,0},
     1019      1019    1        {19,76,119},
     1020      1020    1        {26,6,65},
     1021      1021    1        {26,15,65},
     1022      1022    1        {20,11,115},
     1023      1023    1        {20,11,52},
     1024      1024    1        {22,7,115},
     1025      1025    1        {22,7,71},
     1026      1026    1        {22,7,128},
     1027      1027    1        {2,12,0},
     1028      1028    1        {6,75,217},
     1029      1029    1        {2,64,0},
     1030      1030    1        {8,118,219},
     1031      1031    1        {19,218,220},
     1032      1032    1        {8,75,219},
     1033      1033    1        {0,3,1},
     1034      1034    1        {2,68,0},
CC.C03    File=zbd$table:c.:ZBC3TOU                                                 Fri Aug 22 1997  Page=41
     1035      1035    1        {8,118,224},
     1036      1036    1        {19,218,225},
     1037      1037    1        {47,9,115},
     1038      1038    1        {8,75,224},
     1039      1039    1        {6,118,217},
     1040      1040    1        {2,67,0},
     1041      1041    1        {8,140,230},
     1042      1042    1        {19,229,231},
     1043      1043    1        {8,75,230},
     1044      1044    1        {31,165,0},
     1045      1045    1        {2,66,0},
     1046      1046    1        {8,118,235},
     1047      1047    1        {19,218,236},
     1048      1048    1        {8,75,235},
     1049      1049    1        {2,65,0},
     1050      1050    1        {8,140,239},
     1051      1051    1        {19,229,240},
     1052      1052    1        {26,75,54},
     1053      1053    1        {8,118,239},
     1054      1054    1        {19,218,243},
     1055      1055    1        {8,75,239},
     1056      1056    1        {26,15,54},
     1057      1057    1        {2,69,0},
     1058      1058    1        {8,140,247},
     1059      1059    1        {19,229,248},
     1060      1060    1        {22,118,9},
     1061      1061    1        {8,118,247},
     1062      1062    1        {19,218,251},
     1063      1063    1        {22,75,9},
     1064      1064    1        {8,75,247},
     1065      1065    1        {2,70,0},
     1066      1066    1        {8,75,255},
     1067      1067    1        {31,166,0},
     1068      1068    1        {31,167,0},
     1069      1069    1        {2,72,0},
     1070      1070    1        {8,75,259},
     1071      1071    1        {31,168,0},
CC.C03    File=zbd$table:c.:ZBC3TOU                                                 Fri Aug 22 1997  Page=42
     1072      1072    1        {2,73,0},
     1073      1073    1        {8,75,262},
     1074      1074    1        {31,169,0},
     1075      1075    1        {2,74,0},
     1076      1076    1        {8,75,265},
     1077      1077    1        {31,170,0},
     1078      1078    1        {2,75,0},
     1079      1079    1        {8,75,268},
     1080      1080    1        {31,171,0},
     1081      1081    1        {2,76,0},
     1082      1082    1        {8,75,271},
     1083      1083    1        {31,172,0},
     1084      1084    1        {2,77,0},
     1085      1085    1        {8,75,274},
     1086      1086    1        {31,173,0},
     1087      1087    1        {2,78,0},
     1088      1088    1        {8,75,277},
     1089      1089    1        {31,174,0},
     1090      1090    1        {2,82,0},
     1091      1091    1        {8,75,280},
     1092      1092    1        {31,175,0},
     1093      1093    1        {2,79,0},
     1094      1094    1        {8,75,283},
     1095      1095    1        {31,176,0},
     1096      1096    1        {31,177,0},
     1097      1097    1        {2,80,0},
     1098      1098    1        {8,75,287},
     1099      1099    1        {31,178,0},
     1100      1100    1        {2,71,0},
     1101      1101    1        {8,75,290},
     1102      1102    1        {31,179,0},
     1103      1103    1        {2,81,0},
     1104      1104    1        {8,75,293},
     1105      1105    1        {31,180,0},
     1106      1106    1        {2,83,0},
     1107      1107    1        {8,75,296},
     1108      1108    1        {2,84,0},
CC.C03    File=zbd$table:c.:ZBC3TOU                                                 Fri Aug 22 1997  Page=43
     1109      1109    1        {8,75,298},
     1110      1110    1        {22,7,9},
     1111      1111    1        {2,85,0},
     1112      1112    1        {8,75,301},
     1113      1113    1        {2,4095,0},
     1114      1114    1        {2,4096,0},
     1115      1115    1        {2,86,0},
     1116      1116    1        {8,75,305},
     1117      1117    1        {2,87,0},
     1118      1118    1        {8,75,307},
     1119      1119    1        {47,52,7},
     1120      1120    1        {47,115,7},
     1121      1121    1        {47,9,24},
     1122      1122    1        {2,88,0},
     1123      1123    1        {8,75,312},
     1124      1124    1        {47,7,24},
     1125      1125    1        {2,89,0},
     1126      1126    1        {8,118,315},
     1127      1127    1        {47,7,52},
     1128      1128    1        {8,75,315},
     1129      1129    1        {2,90,0},
     1130      1130    1        {8,118,319},
     1131      1131    1        {8,75,319},
     1132      1132    1        {8,75,140},
     1133      1133    1        {19,322,119},
     1134      1134    1        {9,75,140},
     1135      1135    1        {19,324,119},
     1136      1136    1        {8,118,170},
     1137      1137    1        {19,166,326},
     1138      1138    1        {26,140,65},
     1139      1139    1        {26,118,65},
     1140      1140    1        {9,118,170},
     1141      1141    1        {19,167,330},
     1142      1142    1        {8,118,171},
     1143      1143    1        {48,118,0},
     1144      1144    1        {8,32,333},
     1145      1145    1        {42,123,75},
CC.C03    File=zbd$table:c.:ZBC3TOU                                                 Fri Aug 22 1997  Page=44
     1146      1146    1        {9,118,171},
     1147      1147    1        {45,118,0},
     1148      1148    1        {9,32,337},
     1149      1149    1        {44,118,0},
     1150      1150    1        {43,91,339},
     1151      1151    1        {24,340,24},
     1152      1152    1        {43,52,140},
     1153      1153    1        {8,7,342},
     1154      1154    1        {19,120,343},
     1155      1155    1        {8,170,24},
     1156      1156    1        {19,344,345},
     1157      1157    1        {24,140,24},
     1158      1158    1        {8,75,52},
     1159      1159    1        {19,348,119},
     1160      1160    1        {43,71,140},
     1161      1161    1        {8,7,350},
     1162      1162    1        {19,349,351},
     1163      1163    1        {19,352,345},
     1164      1164    1        {24,140,29},
     1165      1165    1        };
     1166      1166
     1167      1167             char *const tablename = "*table";
     1168      1168             const string codestrings[] = {
     1169      1169    1        	" ",
     1170      1170    1        	"\001",
     1171      1171    1        	"\001,4",
     1172      1172    1        	"=\001+\002,,",
     1173      1173    1        	"=&\001",
     1174      1174    1        	"23",
     1175      1175    1        	"\001,7",
     1176      1176    1        	"\001,3",
     1177      1177    1        	"=\001,,",
     1178      1178    1        	"=\001,3,,,1",
     1179      1179    1        	"\001,,18",
     1180      1180    1        	"\001+\002,,",
     1181      1181    1        	"0,,\001",
     1182      1182    1        	"\001,,\002",
CC.C03    File=zbd$table:c.:ZBC3TOU                                                 Fri Aug 22 1997  Page=45
     1183      1183    1        	"\001,\002,18",
     1184      1184    1        	"\001+\002,\003,",
     1185      1185    1        	"0,\001,\002",
     1186      1186    1        	"\001,\002,\003",
     1187      1187    1        	"\001,3,,18,1",
     1188      1188    1        	"0,,,\001,1",
     1189      1189    1        	"\001,\002,,18,1",
     1190      1190    1        	"\001+\002,\003,,,1",
     1191      1191    1        	"\001,\002,\003,18,1",
     1192      1192    1        	"\001+\002,\003,\004,,1",
     1193      1193    1        	"0,0,\001,\002,1",
     1194      1194    1        	"\001,,3,,1",
     1195      1195    1        	"0,,,\001,\002",
     1196      1196    1        	"\001,\002,,18,\003",
     1197      1197    1        	"\001+\002,\003,,,\004",
     1198      1198    1        	"0,0,\001,\002,\003",
     1199      1199    1        	"\001,\002,\003,18,\004",
     1200      1200    1        	"\001+\002,\003,\004,,\005",
     1201      1201    1        	"\002,\001,,18",
     1202      1202    1        	"\002+\003,\001,,",
     1203      1203    1        	"\002,\001,\003,18",
     1204      1204    1        	"\002+\003,\001,\004,",
     1205      1205    1        	",\001,,\002",
     1206      1206    1        	",\001,\002,\003",
     1207      1207    1        	",\001,\002,23",
     1208      1208    1        	",\001,",
     1209      1209    1        	",\001,\002",
     1210      1210    1        	",1,",
     1211      1211    1        	",2,",
     1212      1212    1        	",,\001",
     1213      1213    1        	",\001,23",
     1214      1214    1        	"31",
     1215      1215    1        	"59",
     1216      1216    1        	"60",
     1217      1217    1        	"32",
     1218      1218    1        	"69",
     1219      1219    1        	"33",
CC.C03    File=zbd$table:c.:ZBC3TOU                                                 Fri Aug 22 1997  Page=46
     1220      1220    1        	"61",
     1221      1221    1        	"70",
     1222      1222    1        	"73",
     1223      1223    1        	"45",
     1224      1224    1        	"46",
     1225      1225    1        	"62",
     1226      1226    1        	"49",
     1227      1227    1        	"37",
     1228      1228    1        	"71",
     1229      1229    1        	"47",
     1230      1230    1        	"63",
     1231      1231    1        	"48",
     1232      1232    1        	"64",
     1233      1233    1        	"65",
     1234      1234    1        	"74",
     1235      1235    1        	"75",
     1236      1236    1        	"76",
     1237      1237    1        	"72",
     1238      1238    1        	"77",
     1239      1239    1        	"50",
     1240      1240    1        	"78",
     1241      1241    1        	"79",
     1242      1242    1        	"51",
     1243      1243    1        	"66",
     1244      1244    1        	"52",
     1245      1245    1        	"53",
     1246      1246    1        	"54",
     1247      1247    1        	"55",
     1248      1248    1        	"67",
     1249      1249    1        	"56",
     1250      1250    1        	"57",
     1251      1251    1        	"68",
     1252      1252    1        	"58",
     1253      1253    1        	"80",
     1254      1254    1        	"81",
     1255      1255    1        	"82",
     1256      1256    1        	"83",
CC.C03    File=zbd$table:c.:ZBC3TOU                                                 Fri Aug 22 1997  Page=47
     1257      1257    1        	"84",
     1258      1258    1        	"85",
     1259      1259    1        	"86",
     1260      1260    1        	"87",
     1261      1261    1        	"88",
     1262      1262    1        	"89",
     1263      1263    1        	"90",
     1264      1264    1        	"91",
     1265      1265    1        	"92",
     1266      1266    1        	"101",
     1267      1267    1        	"93",
     1268      1268    1        	"94",
     1269      1269    1        	"95",
     1270      1270    1        	"96",
     1271      1271    1        	"97",
     1272      1272    1        	"98",
     1273      1273    1        	"99",
     1274      1274    1        	"100",
     1275      1275    1        	"102",
     1276      1276    1        	"153",
     1277      1277    1        	"155",
     1278      1278    1        	"154",
     1279      1279    1        	"156",
     1280      1280    1        	"103",
     1281      1281    1        	"104",
     1282      1282    1        	"137",
     1283      1283    1        	"138",
     1284      1284    1        	"139",
     1285      1285    1        	"140",
     1286      1286    1        	"141",
     1287      1287    1        	"142",
     1288      1288    1        	"143",
     1289      1289    1        	"144",
     1290      1290    1        	"145",
     1291      1291    1        	"146",
     1292      1292    1        	"134",
     1293      1293    1        	"135",
CC.C03    File=zbd$table:c.:ZBC3TOU                                                 Fri Aug 22 1997  Page=48
     1294      1294    1        	"136",
     1295      1295    1        	"34",
     1296      1296    1        	"106",
     1297      1297    1        	"38",
     1298      1298    1        	"39",
     1299      1299    1        	"40",
     1300      1300    1        	"41",
     1301      1301    1        	"44",
     1302      1302    1        	"107",
     1303      1303    1        	"108",
     1304      1304    1        	"109",
     1305      1305    1        	"42",
     1306      1306    1        	"43",
     1307      1307    1        	"112",
     1308      1308    1        	"113",
     1309      1309    1        	"132",
     1310      1310    1        	"133",
     1311      1311    1        	"114",
     1312      1312    1        	"176",
     1313      1313    1        	"116",
     1314      1314    1        	"117",
     1315      1315    1        	"bogus",
     1316      1316    1        	"131",
     1317      1317    1        	"118",
     1318      1318    1        	"122",
     1319      1319    1        	"123",
     1320      1320    1        	"124",
     1321      1321    1        	"130",
     1322      1322    1        	"126",
     1323      1323    1        	"127",
     1324      1324    1        	"162",
     1325      1325    1        	"163",
     1326      1326    1        	"164",
     1327      1327    1        	"__INDTBL",
     1328      1328    1        	"147",
     1329      1329    1        	"148",
     1330      1330    1        	"149",
CC.C03    File=zbd$table:c.:ZBC3TOU                                                 Fri Aug 22 1997  Page=49
     1331      1331    1        	"150",
     1332      1332    1        	"151",
     1333      1333    1        	"152",
     1334      1334    1        	"_memset1",
     1335      1335    1        	"XPE_9DATAN",
     1336      1336    1        	"_XPE$ERR",
     1337      1337    1        	"XPE_9DCOS",
     1338      1338    1        	"XPE_9DSIN",
     1339      1339    1        	"XPE_9DTAN",
     1340      1340    1        	"XPE_9DCOSH",
     1341      1341    1        	"XPE_9DSINH",
     1342      1342    1        	"XPE_9DTANH",
     1343      1343    1        	"XPE_9DEXP",
     1344      1344    1        	"XPE_9DSQRT",
     1345      1345    1        	"XPE_9DLOG",
     1346      1346    1        	"_XPE$ERR_RANGE",
     1347      1347    1        	"XPE_9DLOG10",
     1348      1348    1        	"XPE_9DATAN2",
     1349      1349    1        	"XPE_9PWRDD",
     1350      1350    1        	"5",
     1351      1351    1        	"6",
     1352      1352    1        	"aq",
     1353      1353    1        	"eaq",
     1354      1354    1        	"eaq4",
     1355      1355    1        	"10",
     1356      1356    1        	"11",
     1357      1357    1        	"12",
     1358      1358    1        	"13",
     1359      1359    1        	"14",
     1360      1360    1        	"19",
     1361      1361    1        	"20",
     1362      1362    1        	"21",
     1363      1363    1        	"22",
     1364      1364    1        	"rv",
     1365      1365    1        };
     1366      1366
     1367      1367             const set_t machsets[] = {
CC.C03    File=zbd$table:c.:ZBC3TOU                                                 Fri Aug 22 1997  Page=50
     1368      1368    1        {  0,{0xffff,0xffff,0xffff,0xffff,0xffff,0x7f,}},
     1369      1369    1        {  4,{0x0,0x3800,0x0,0x0,0x0,0x0,}},
     1370      1370    1        {  4,{0x0,0xf800,0x0,0x0,0x0,0x0,}},
     1371      1371    1        {  4,{0x0,0x0,0x0,0x8000,0xc07f,0x7f,}},
     1372      1372    1        {  4,{0x0,0x0,0x0,0x0,0x3f80,0x0,}},
     1373      1373    1        {  4,{0x0,0xfb00,0x3fe,0x0,0x0,0x0,}},
     1374      1374    1        {  4,{0x0,0x0,0x3e0,0x0,0x0,0x0,}},
     1375      1375    1        {  8,{0x0,0x0,0xfc00,0x1,0x0,0x0,}},
     1376      1376    1        {  8,{0x0,0x0,0xc000,0x1,0x0,0x0,}},
     1377      1377    1        {  4,{0x0,0x0,0x1,0x1fe,0x0,0x0,}},
     1378      1378    1        {  4,{0x0,0x0,0x0,0x7e00,0x0,0x0,}},
     1379      1379    1        {  4,{0x0,0x0,0x1fe,0x0,0x0,0x0,}},
     1380      1380    1        {  0,{0x0,0x0,0x3118,0x1285,0x0,0x0,}},
     1381      1381    1        {  0,{0x0,0x0,0x88c4,0x4850,0x0,0x0,}},
     1382      1382    1        {  0,{0x0,0x8,0xb9dc,0x5ad5,0x0,0x0,}},
     1383      1383    1        {  4,{0x7fe7,0x0,0x0,0x0,0x0,0x0,}},
     1384      1384    1        {  8,{0x19,0x0,0x0,0x0,0x0,0x0,}},
     1385      1385    1        {  0,{0x7fff,0x0,0x0,0x0,0x0,0x0,}},
     1386      1386    1        {  0,{0x8001,0x7ff,0xffff,0x7fff,0x0,0x0,}},
     1387      1387    1        {  4,{0x7,0x0,0x0,0x0,0x0,0x0,}},
     1388      1388    1        {  4,{0x7c1,0x0,0x0,0x0,0x0,0x0,}},
     1389      1389    1        {  4,{0x0,0x2,0x0,0x0,0x0,0x0,}},
     1390      1390    1        {  4,{0x0,0x4,0x0,0x0,0x0,0x0,}},
     1391      1391    1        {  4,{0x0,0x0,0x0,0x0,0x8000,0x0,}},
     1392      1392    1        {  4,{0x0,0x0,0x0,0x0,0x4000,0x0,}},
     1393      1393    1        {  4,{0x0,0x8,0x0,0x0,0x0,0x0,}},
     1394      1394    1        {  4,{0x7801,0x0,0x0,0x0,0x0,0x0,}},
     1395      1395    1        {  4,{0x0,0x400,0x0,0x0,0x0,0x0,}},
     1396      1396    1        {  4,{0x0,0x40,0x0,0x0,0x0,0x0,}},
     1397      1397    1        {  4,{0x0,0x30,0x0,0x0,0x0,0x0,}},
     1398      1398    1        {  4,{0x0,0x10,0x0,0x0,0x0,0x0,}},
     1399      1399    1        {  4,{0x0,0x30,0x0,0x8000,0xc07f,0x7f,}},
     1400      1400    1        {  4,{0x6,0x0,0x0,0x0,0x0,0x0,}},
     1401      1401    1        {  8,{0x11,0x0,0x0,0x0,0x0,0x0,}},
     1402      1402    1        {  8,{0x0,0x0,0x400,0x0,0x0,0x0,}},
     1403      1403    1        {  8,{0x9,0x0,0x0,0x0,0x0,0x0,}},
     1404      1404    1        {  8,{0x0,0x0,0x800,0x0,0x0,0x0,}},
CC.C03    File=zbd$table:c.:ZBC3TOU                                                 Fri Aug 22 1997  Page=51
     1405      1405    1        {  8,{0x0,0x0,0x1000,0x0,0x0,0x0,}},
     1406      1406    1        {  8,{0x0,0x0,0x2000,0x0,0x0,0x0,}},
     1407      1407    1        {  8,{0x0,0x0,0x4000,0x0,0x0,0x0,}},
     1408      1408    1        {  8,{0x0,0x0,0x8000,0x0,0x0,0x0,}},
     1409      1409    1        {  8,{0x0,0x0,0x0,0x1,0x0,0x0,}},
     1410      1410    1        {  4,{0x21,0x0,0x0,0x0,0x0,0x0,}},
     1411      1411    1        {  4,{0x0,0x300,0x3fe,0x0,0x0,0x0,}},
     1412      1412    1        {  4,{0x0,0xb800,0x0,0x0,0x0,0x0,}},
     1413      1413    1        {  4,{0x0,0x4000,0x0,0x0,0x0,0x0,}},
     1414      1414    1        {  4,{0x0,0x0,0x0,0x8000,0xc07f,0x1f,}},
     1415      1415    1        {  4,{0x7800,0x0,0x0,0x0,0x0,0x0,}},
     1416      1416    1        {  4,{0x0,0x0,0x0,0x0,0x0,0x20,}},
     1417      1417    1        {  4,{0x0,0x0,0x0,0x0,0x0,0x40,}},
     1418      1418    1        {  4,{0x0,0x0,0x0,0x0,0x80,0x0,}},
     1419      1419    1        {  4,{0x0,0x0,0x0,0x0,0x100,0x0,}},
     1420      1420    1        {  4,{0x0,0x0,0x0,0x0,0x200,0x0,}},
     1421      1421    1        {  4,{0x0,0x0,0x0,0x0,0x400,0x0,}},
     1422      1422    1        {  4,{0x0,0x0,0x0,0x0,0x800,0x0,}},
     1423      1423    1        {  4,{0x0,0x0,0x0,0x0,0x1000,0x0,}},
     1424      1424    1        {  4,{0x0,0x0,0x0,0x0,0x2000,0x0,}},
     1425      1425    1        {  4,{0x0,0xf900,0x3fe,0x0,0x0,0x0,}},
     1426      1426    1        {  4,{0x7c0,0x0,0x0,0x0,0x0,0x0,}},
     1427      1427    1        {  4,{0x0,0x200,0x0,0x0,0x0,0x0,}},
     1428      1428    1        {  4,{0x0,0x800,0x0,0x0,0x0,0x0,}},
     1429      1429    1        {  4,{0x0,0x1000,0x0,0x0,0x0,0x0,}},
     1430      1430    1        {  4,{0x0,0xa000,0x0,0x0,0x0,0x0,}},
     1431      1431    1        {  4,{0x0,0x300,0x0,0x0,0x0,0x0,}},
     1432      1432    1        {  4,{0x0,0x0,0x0,0x200,0x0,0x0,}},
     1433      1433    1        {  4,{0x0,0x0,0x0,0x400,0x0,0x0,}},
     1434      1434    1        {  4,{0x0,0x0,0x0,0x800,0x0,0x0,}},
     1435      1435    1        {  4,{0x0,0x0,0x0,0x1000,0x0,0x0,}},
     1436      1436    1        {  4,{0x0,0x0,0x0,0x2000,0x0,0x0,}},
     1437      1437    1        {  4,{0x0,0x0,0x0,0x4000,0x0,0x0,}},
     1438      1438    1        {  4,{0x0,0x0,0x0,0x8000,0xc07f,0x77,}},
     1439      1439    1        {  4,{0x0,0x0,0x0,0x0,0x0,0x8,}},
     1440      1440    1        {  4,{0x0,0xc0,0x0,0x0,0x0,0x0,}},
     1441      1441    1        {  4,{0x0,0x0,0x1,0x1e6,0x0,0x0,}},
CC.C03    File=zbd$table:c.:ZBC3TOU                                                 Fri Aug 22 1997  Page=52
     1442      1442    1        {  4,{0x0,0x0,0x0,0x8,0x0,0x0,}},
     1443      1443    1        {  4,{0x0,0x0,0x0,0x10,0x0,0x0,}},
     1444      1444    1        {  4,{0x3,0x0,0x0,0x0,0x0,0x0,}},
     1445      1445    1        {  4,{0x5,0x0,0x0,0x0,0x0,0x0,}},
     1446      1446    1        {  4,{0x0,0x0,0x0,0x8000,0xffff,0x7f,}},
     1447      1447    1        {  4,{0x0,0x0,0x0,0x0,0x0,0x10,}},
     1448      1448    1        {  4,{0x0,0x0,0x0,0x8000,0x8,0x0,}},
     1449      1449    1        {  4,{0x0,0x0,0x0,0x0,0x11,0x0,}},
     1450      1450    1        {  4,{0x0,0x0,0x0,0x0,0x22,0x0,}},
     1451      1451    1        {  4,{0x0,0x0,0x0,0x0,0x44,0x0,}},
     1452      1452    1        {  4,{0x0,0x0,0x0,0x8000,0x2a,0x0,}},
     1453      1453    1        {  4,{0x0,0x0,0x0,0x0,0x8,0x0,}},
     1454      1454    1        {  4,{0x0,0x0,0x0,0x0,0x10,0x0,}},
     1455      1455    1        {  4,{0x0,0x0,0x0,0x8000,0x0,0x0,}},
     1456      1456    1        {  4,{0x0,0x0,0x0,0x0,0x20,0x0,}},
     1457      1457    1        {  4,{0x0,0x0,0x0,0x0,0x40,0x0,}},
     1458      1458    1        {  4,{0x0,0x0,0x0,0x0,0x2,0x0,}},
     1459      1459    1        {  4,{0x0,0x0,0x2,0x0,0x0,0x0,}},
     1460      1460    1        {  4,{0x0,0x0,0x4,0x0,0x0,0x0,}},
     1461      1461    1        {  4,{0x0,0xfb00,0x1e,0x0,0x0,0x0,}},
     1462      1462    1        {  8,{0x0,0x0,0x3c00,0x0,0x0,0x0,}},
     1463      1463    1        {  4,{0x2,0x0,0x0,0x0,0x0,0x0,}},
     1464      1464    1        {  4,{0x0,0x0,0x0,0x0,0x0,0x60,}},
     1465      1465    1        {  4,{0x0,0x0,0x0,0x0,0x1,0x0,}},
     1466      1466    1        {  4,{0x0,0x80,0x0,0x0,0x0,0x0,}},
     1467      1467    1        {  4,{0x7,0xfb00,0x3fe,0x0,0x0,0x0,}},
     1468      1468    1        {  4,{0x4,0x0,0x0,0x0,0x0,0x0,}},
     1469      1469    1        {  4,{0x7fe7,0xfb00,0x3ff,0x1fe,0x0,0x0,}},
     1470      1470    1        {  8,{0x19,0x0,0xfc00,0x1,0x0,0x0,}},
     1471      1471    1        {  4,{0x0,0xfb00,0x3ff,0x7ffe,0x0,0x0,}},
     1472      1472    1        };
     1473      1473
     1474      1474             const inst_t tokeninstances[] = {
     1475      1475    1        { 0, {0,0,0,0,0,0,}},
     1476      1476    1        { 1, {2,0,0,0,0,0,}},
     1477      1477    1        { 1, {1,0,0,0,0,0,}},
     1478      1478    1        { 3, {1,0,0,0,0,0,}},
CC.C03    File=zbd$table:c.:ZBC3TOU                                                 Fri Aug 22 1997  Page=53
     1479      1479    1        { 5, {17,8,0,0,0,0,}},
     1480      1480    1        { 3, {2,0,0,0,0,0,}},
     1481      1481    1        { 5, {17,10,0,0,0,0,}},
     1482      1482    1        { 5, {18,6,12,0,0,0,}},
     1483      1483    1        { 5, {18,6,13,0,0,0,}},
     1484      1484    1        { 5, {20,7,6,0,0,0,}},
     1485      1485    1        { 5, {20,9,6,0,0,0,}},
     1486      1486    1        { 5, {20,8,11,0,0,0,}},
     1487      1487    1        { 5, {20,10,11,0,0,0,}},
     1488      1488    1        { 5, {21,8,11,0,0,0,}},
     1489      1489    1        { 5, {21,10,11,0,0,0,}},
     1490      1490    1        { 5, {22,6,12,14,0,0,}},
     1491      1491    1        { 5, {22,6,13,14,0,0,}},
     1492      1492    1        { 5, {25,7,6,11,0,0,}},
     1493      1493    1        { 5, {25,9,6,11,0,0,}},
     1494      1494    1        { 5, {17,16,0,0,0,0,}},
     1495      1495    1        { 5, {17,17,0,0,0,0,}},
     1496      1496    1        { 5, {18,15,19,0,0,0,}},
     1497      1497    1        { 5, {18,15,20,0,0,0,}},
     1498      1498    1        { 5, {20,7,15,0,0,0,}},
     1499      1499    1        { 5, {20,9,15,0,0,0,}},
     1500      1500    1        { 5, {20,16,18,0,0,0,}},
     1501      1501    1        { 5, {20,17,18,0,0,0,}},
     1502      1502    1        { 5, {21,16,18,0,0,0,}},
     1503      1503    1        { 5, {21,17,18,0,0,0,}},
     1504      1504    1        { 5, {22,15,19,21,0,0,}},
     1505      1505    1        { 5, {22,15,20,21,0,0,}},
     1506      1506    1        { 5, {25,7,15,18,0,0,}},
     1507      1507    1        { 5, {25,9,15,18,0,0,}},
     1508      1508    1        { 5, {15,6,0,0,0,0,}},
     1509      1509    1        { 5, {15,23,0,0,0,0,}},
     1510      1510    1        { 5, {67,11,0,0,0,0,}},
     1511      1511    1        { 5, {69,6,5,0,0,0,}},
     1512      1512    1        { 5, {17,25,0,0,0,0,}},
     1513      1513    1        { 5, {17,26,0,0,0,0,}},
     1514      1514    1        { 5, {47,11,0,0,0,0,}},
     1515      1515    1        { 5, {14,6,0,0,0,0,}},
CC.C03    File=zbd$table:c.:ZBC3TOU                                                 Fri Aug 22 1997  Page=54
     1516      1516    1        { 5, {48,11,14,0,0,0,}},
     1517      1517    1        { 2, {1,3,0,0,0,0,}},
     1518      1518    1        { 5, {13,6,0,0,0,0,}},
     1519      1519    1        { 5, {69,14,5,0,0,0,}},
     1520      1520    1        { 2, {1,4,0,0,0,0,}},
     1521      1521    1        { 5, {69,27,5,0,0,0,}},
     1522      1522    1        { 5, {67,14,0,0,0,0,}},
     1523      1523    1        { 2, {1,2,0,0,0,0,}},
     1524      1524    1        { 5, {69,11,5,0,0,0,}},
     1525      1525    1        { 5, {1,0,0,0,0,0,}},
     1526      1526    1        { 5, {70,14,0,0,0,0,}},
     1527      1527    1        { 5, {70,27,0,0,0,0,}},
     1528      1528    1        { 5, {70,11,0,0,0,0,}},
     1529      1529    1        { 5, {63,28,0,0,0,0,}},
     1530      1530    1        { 5, {62,28,0,0,0,0,}},
     1531      1531    1        { 1, {0,0,0,0,0,0,}},
     1532      1532    1        { 5, {13,7,0,0,0,0,}},
     1533      1533    1        { 5, {26,30,0,0,0,0,}},
     1534      1534    1        { 5, {17,31,0,0,0,0,}},
     1535      1535    1        { 4, {0,0,0,0,0,0,}},
     1536      1536    1        { 5, {15,32,0,0,0,0,}},
     1537      1537    1        { 5, {15,33,0,0,0,0,}},
     1538      1538    1        { 5, {33,31,0,0,0,0,}},
     1539      1539    1        { 5, {42,35,7,34,0,0,}},
     1540      1540    1        { 5, {42,37,7,36,0,0,}},
     1541      1541    1        { 5, {42,39,7,38,0,0,}},
     1542      1542    1        { 5, {42,41,7,40,0,0,}},
     1543      1543    1        { 2, {0,1,0,0,0,0,}},
     1544      1544    1        { 5, {10,0,0,0,0,0,}},
     1545      1545    1        { 2, {0,2,0,0,0,0,}},
     1546      1546    1        { 5, {2,42,0,0,0,0,}},
     1547      1547    1        { 5, {26,26,0,0,0,0,}},
     1548      1548    1        { 5, {67,43,0,0,0,0,}},
     1549      1549    1        { 5, {59,7,43,0,0,0,}},
     1550      1550    1        { 5, {17,49,0,0,0,0,}},
     1551      1551    1        { 5, {2,55,0,0,0,0,}},
     1552      1552    1        { 5, {13,56,0,0,0,0,}},
CC.C03    File=zbd$table:c.:ZBC3TOU                                                 Fri Aug 22 1997  Page=55
     1553      1553    1        { 5, {18,32,60,0,0,0,}},
     1554      1554    1        { 5, {2,63,0,0,0,0,}},
     1555      1555    1        { 5, {2,64,0,0,0,0,}},
     1556      1556    1        { 5, {19,32,0,0,0,0,}},
     1557      1557    1        { 5, {2,65,0,0,0,0,}},
     1558      1558    1        { 5, {69,43,34,0,0,0,}},
     1559      1559    1        { 5, {55,7,32,0,0,0,}},
     1560      1560    1        { 5, {56,7,32,34,0,0,}},
     1561      1561    1        { 5, {62,34,0,0,0,0,}},
     1562      1562    1        { 5, {57,7,32,43,0,0,}},
     1563      1563    1        { 5, {62,36,0,0,0,0,}},
     1564      1564    1        { 5, {58,7,32,34,43,0,}},
     1565      1565    1        { 5, {59,7,32,0,0,0,}},
     1566      1566    1        { 5, {60,7,43,34,0,0,}},
     1567      1567    1        { 5, {60,7,32,34,0,0,}},
     1568      1568    1        { 5, {61,7,32,0,0,0,}},
     1569      1569    1        { 5, {8,32,66,0,0,0,}},
     1570      1570    1        { 5, {47,34,0,0,0,0,}},
     1571      1571    1        { 5, {13,67,0,0,0,0,}},
     1572      1572    1        { 2, {0,3,0,0,0,0,}},
     1573      1573    1        { 5, {8,34,69,0,0,0,}},
     1574      1574    1        { 2, {0,4,0,0,0,0,}},
     1575      1575    1        { 5, {16,32,0,0,0,0,}},
     1576      1576    1        { 5, {2,70,0,0,0,0,}},
     1577      1577    1        { 5, {13,71,0,0,0,0,}},
     1578      1578    1        { 5, {23,72,74,43,0,0,}},
     1579      1579    1        { 5, {11,7,0,0,0,0,}},
     1580      1580    1        { 5, {12,9,0,0,0,0,}},
     1581      1581    1        { 5, {13,75,0,0,0,0,}},
     1582      1582    1        { 5, {15,75,0,0,0,0,}},
     1583      1583    1        { 5, {17,85,0,0,0,0,}},
     1584      1584    1        { 5, {18,90,93,0,0,0,}},
     1585      1585    1        { 5, {19,43,0,0,0,0,}},
     1586      1586    1        { 5, {20,94,6,0,0,0,}},
     1587      1587    1        { 5, {51,85,0,0,0,0,}},
     1588      1588    1        { 5, {47,85,0,0,0,0,}},
     1589      1589    1        { 5, {55,82,85,0,0,0,}},
CC.C03    File=zbd$table:c.:ZBC3TOU                                                 Fri Aug 22 1997  Page=56
     1590      1590    1        { 5, {52,90,93,0,0,0,}},
     1591      1591    1        { 5, {48,90,93,0,0,0,}},
     1592      1592    1        { 5, {56,87,90,93,0,0,}},
     1593      1593    1        { 5, {17,6,0,0,0,0,}},
     1594      1594    1        { 5, {18,6,11,0,0,0,}},
     1595      1595    1        { 5, {41,6,75,0,0,0,}},
     1596      1596    1        { 5, {21,6,11,0,0,0,}},
     1597      1597    1        { 5, {22,6,11,14,0,0,}},
     1598      1598    1        { 5, {44,6,11,75,0,0,}},
     1599      1599    1        { 5, {26,6,0,0,0,0,}},
     1600      1600    1        { 5, {27,6,11,0,0,0,}},
     1601      1601    1        { 3, {3,0,0,0,0,0,}},
     1602      1602    1        { 5, {30,6,11,0,0,0,}},
     1603      1603    1        { 5, {31,6,11,14,0,0,}},
     1604      1604    1        { 5, {35,11,6,0,0,0,}},
     1605      1605    1        { 5, {36,11,14,6,0,0,}},
     1606      1606    1        { 5, {37,11,6,14,0,0,}},
     1607      1607    1        { 5, {38,11,14,6,27,0,}},
     1608      1608    1        { 5, {34,28,0,0,0,0,}},
     1609      1609    1        { 5, {34,6,0,0,0,0,}},
     1610      1610    1        { 5, {39,6,11,0,0,0,}},
     1611      1611    1        { 5, {42,11,6,75,0,0,}},
     1612      1612    1        { 5, {43,11,14,6,75,0,}},
     1613      1613    1        { 5, {45,11,6,14,75,0,}},
     1614      1614    1        { 5, {46,11,14,6,27,75,}},
     1615      1615    1        { 5, {41,28,75,0,0,0,}},
     1616      1616    1        { 5, {26,85,0,0,0,0,}},
     1617      1617    1        { 5, {27,90,93,0,0,0,}},
     1618      1618    1        { 5, {29,94,6,0,0,0,}},
     1619      1619    1        { 5, {9,75,0,0,0,0,}},
     1620      1620    1        { 5, {19,6,0,0,0,0,}},
     1621      1621    1        { 5, {24,6,11,0,0,0,}},
     1622      1622    1        { 5, {42,26,7,75,0,0,}},
     1623      1623    1        { 5, {28,6,0,0,0,0,}},
     1624      1624    1        { 5, {32,6,11,0,0,0,}},
     1625      1625    1        { 5, {33,26,0,0,0,0,}},
     1626      1626    1        { 5, {17,114,0,0,0,0,}},
CC.C03    File=zbd$table:c.:ZBC3TOU                                                 Fri Aug 22 1997  Page=57
     1627      1627    1        { 5, {17,116,0,0,0,0,}},
     1628      1628    1        { 5, {2,9,0,0,0,0,}},
     1629      1629    1        { 5, {2,115,0,0,0,0,}},
     1630      1630    1        { 5, {2,52,0,0,0,0,}},
     1631      1631    1        { 5, {2,6,0,0,0,0,}},
     1632      1632    1        { 5, {15,123,0,0,0,0,}},
     1633      1633    1        { 5, {5,124,0,0,0,0,}},
     1634      1634    1        { 5, {5,29,0,0,0,0,}},
     1635      1635    1        { 5, {13,9,0,0,0,0,}},
     1636      1636    1        { 5, {5,70,0,0,0,0,}},
     1637      1637    1        { 5, {5,125,0,0,0,0,}},
     1638      1638    1        { 5, {5,126,0,0,0,0,}},
     1639      1639    1        { 5, {5,127,0,0,0,0,}},
     1640      1640    1        { 5, {5,52,0,0,0,0,}},
     1641      1641    1        { 5, {5,115,0,0,0,0,}},
     1642      1642    1        { 5, {13,52,0,0,0,0,}},
     1643      1643    1        { 5, {5,71,0,0,0,0,}},
     1644      1644    1        { 5, {5,54,0,0,0,0,}},
     1645      1645    1        { 5, {5,128,0,0,0,0,}},
     1646      1646    1        { 5, {15,129,0,0,0,0,}},
     1647      1647    1        { 5, {55,133,137,0,0,0,}},
     1648      1648    1        { 5, {56,133,11,139,0,0,}},
     1649      1649    1        { 5, {57,133,137,14,0,0,}},
     1650      1650    1        { 5, {58,133,11,139,27,0,}},
     1651      1651    1        { 2, {1,1,0,0,0,0,}},
     1652      1652    1        { 5, {49,15,28,0,0,0,}},
     1653      1653    1        { 5, {50,15,18,28,0,0,}},
     1654      1654    1        { 5, {68,28,5,0,0,0,}},
     1655      1655    1        { 5, {68,28,15,0,0,0,}},
     1656      1656    1        { 5, {68,28,43,0,0,0,}},
     1657      1657    1        { 5, {2,146,0,0,0,0,}},
     1658      1658    1        { 5, {49,15,43,0,0,0,}},
     1659      1659    1        { 5, {50,15,18,43,0,0,}},
     1660      1660    1        { 5, {53,15,43,0,0,0,}},
     1661      1661    1        { 5, {54,15,18,43,0,0,}},
     1662      1662    1        { 5, {68,43,5,0,0,0,}},
     1663      1663    1        { 5, {68,43,15,0,0,0,}},
CC.C03    File=zbd$table:c.:ZBC3TOU                                                 Fri Aug 22 1997  Page=58
     1664      1664    1        { 4, {1,0,0,0,0,0,}},
     1665      1665    1        { 5, {68,43,147,0,0,0,}},
     1666      1666    1        { 5, {15,94,0,0,0,0,}},
     1667      1667    1        { 5, {19,15,0,0,0,0,}},
     1668      1668    1        { 5, {69,147,43,0,0,0,}},
     1669      1669    1        { 5, {57,7,15,43,0,0,}},
     1670      1670    1        { 5, {58,7,15,18,43,0,}},
     1671      1671    1        { 5, {57,7,15,28,0,0,}},
     1672      1672    1        { 5, {58,7,15,18,28,0,}},
     1673      1673    1        { 5, {57,15,18,43,0,0,}},
     1674      1674    1        { 5, {58,15,18,21,43,0,}},
     1675      1675    1        { 5, {57,15,18,28,0,0,}},
     1676      1676    1        { 5, {58,15,18,21,28,0,}},
     1677      1677    1        { 2, {2,3,0,0,0,0,}},
     1678      1678    1        { 2, {2,4,0,0,0,0,}},
     1679      1679    1        { 5, {69,28,15,0,0,0,}},
     1680      1680    1        { 2, {2,1,0,0,0,0,}},
     1681      1681    1        { 5, {69,28,5,0,0,0,}},
     1682      1682    1        { 5, {67,5,0,0,0,0,}},
     1683      1683    1        { 5, {69,28,43,0,0,0,}},
     1684      1684    1        { 5, {69,43,147,0,0,0,}},
     1685      1685    1        { 5, {14,168,0,0,0,0,}},
     1686      1686    1        { 5, {35,25,7,0,0,0,}},
     1687      1687    1        { 5, {2,172,0,0,0,0,}},
     1688      1688    1        { 5, {17,176,0,0,0,0,}},
     1689      1689    1        { 5, {2,179,0,0,0,0,}},
     1690      1690    1        { 5, {18,6,183,0,0,0,}},
     1691      1691    1        { 5, {2,186,0,0,0,0,}},
     1692      1692    1        { 5, {2,189,0,0,0,0,}},
     1693      1693    1        { 5, {2,192,0,0,0,0,}},
     1694      1694    1        { 5, {2,196,0,0,0,0,}},
     1695      1695    1        { 5, {2,75,0,0,0,0,}},
     1696      1696    1        { 5, {2,201,0,0,0,0,}},
     1697      1697    1        { 5, {2,202,0,0,0,0,}},
     1698      1698    1        { 5, {14,203,0,0,0,0,}},
     1699      1699    1        { 5, {14,204,0,0,0,0,}},
     1700      1700    1        { 3, {5,0,0,0,0,0,}},
CC.C03    File=zbd$table:c.:ZBC3TOU                                                 Fri Aug 22 1997  Page=59
     1701      1701    1        { 3, {4,0,0,0,0,0,}},
     1702      1702    1        { 5, {2,207,0,0,0,0,}},
     1703      1703    1        { 5, {13,208,0,0,0,0,}},
     1704      1704    1        { 5, {6,9,0,0,0,0,}},
     1705      1705    1        { 5, {6,115,0,0,0,0,}},
     1706      1706    1        { 5, {6,52,0,0,0,0,}},
     1707      1707    1        { 5, {6,24,0,0,0,0,}},
     1708      1708    1        { 5, {28,15,0,0,0,0,}},
     1709      1709    1        { 5, {7,0,0,0,0,0,}},
     1710      1710    1        { 5, {4,75,0,0,0,0,}},
     1711      1711    1        { 5, {15,210,0,0,0,0,}},
     1712      1712    1        { 5, {3,75,0,0,0,0,}},
     1713      1713    1        { 1, {3,0,0,0,0,0,}},
     1714      1714    1        { 5, {15,211,0,0,0,0,}},
     1715      1715    1        { 5, {65,0,0,0,0,0,}},
     1716      1716    1        { 5, {66,0,0,0,0,0,}},
     1717      1717    1        { 5, {41,15,75,0,0,0,}},
     1718      1718    1        { 5, {18,6,212,0,0,0,}},
     1719      1719    1        { 5, {23,6,213,1,0,0,}},
     1720      1720    1        { 5, {15,214,0,0,0,0,}},
     1721      1721    1        { 5, {23,6,212,3,0,0,}},
     1722      1722    1        { 5, {5,215,0,0,0,0,}},
     1723      1723    1        { 5, {23,6,213,3,0,0,}},
     1724      1724    1        { 5, {5,216,0,0,0,0,}},
     1725      1725    1        { 5, {59,7,15,0,0,0,}},
     1726      1726    1        { 5, {59,7,223,0,0,0,}},
     1727      1727    1        { 5, {17,227,0,0,0,0,}},
     1728      1728    1        { 5, {59,7,6,0,0,0,}},
     1729      1729    1        { 5, {5,24,0,0,0,0,}},
     1730      1730    1        { 2, {3,1,0,0,0,0,}},
     1731      1731    1        { 5, {55,7,7,0,0,0,}},
     1732      1732    1        { 5, {2,7,0,0,0,0,}},
     1733      1733    1        { 5, {2,118,0,0,0,0,}},
     1734      1734    1        { 5, {2,15,0,0,0,0,}},
     1735      1735    1        { 5, {3,234,0,0,0,0,}},
     1736      1736    1        { 5, {23,72,65,43,0,0,}},
     1737      1737    1        { 5, {23,72,65,28,0,0,}},
CC.C03    File=zbd$table:c.:ZBC3TOU                                                 Fri Aug 22 1997  Page=60
     1738      1738    1        { 5, {40,242,0,0,0,0,}},
     1739      1739    1        { 5, {64,43,6,0,0,0,}},
     1740      1740    1        { 5, {13,153,0,0,0,0,}},
     1741      1741    1        { 5, {64,43,15,0,0,0,}},
     1742      1742    1        { 5, {64,28,15,0,0,0,}},
     1743      1743    1        { 5, {40,246,0,0,0,0,}},
     1744      1744    1        { 5, {64,28,223,0,0,0,}},
     1745      1745    1        { 5, {13,250,0,0,0,0,}},
     1746      1746    1        { 5, {13,253,0,0,0,0,}},
     1747      1747    1        { 5, {3,257,0,0,0,0,}},
     1748      1748    1        { 5, {3,258,0,0,0,0,}},
     1749      1749    1        { 5, {3,261,0,0,0,0,}},
     1750      1750    1        { 5, {3,264,0,0,0,0,}},
     1751      1751    1        { 5, {3,267,0,0,0,0,}},
     1752      1752    1        { 5, {3,270,0,0,0,0,}},
     1753      1753    1        { 5, {3,273,0,0,0,0,}},
     1754      1754    1        { 5, {3,276,0,0,0,0,}},
     1755      1755    1        { 5, {3,279,0,0,0,0,}},
     1756      1756    1        { 5, {3,282,0,0,0,0,}},
     1757      1757    1        { 5, {3,285,0,0,0,0,}},
     1758      1758    1        { 5, {3,286,0,0,0,0,}},
     1759      1759    1        { 5, {3,289,0,0,0,0,}},
     1760      1760    1        { 5, {3,292,0,0,0,0,}},
     1761      1761    1        { 5, {26,114,0,0,0,0,}},
     1762      1762    1        { 5, {26,116,0,0,0,0,}},
     1763      1763    1        { 5, {3,295,0,0,0,0,}},
     1764      1764    1        { 5, {15,300,0,0,0,0,}},
     1765      1765    1        { 5, {13,303,0,0,0,0,}},
     1766      1766    1        { 5, {40,7,0,0,0,0,}},
     1767      1767    1        { 5, {13,304,0,0,0,0,}},
     1768      1768    1        { 5, {17,309,0,0,0,0,}},
     1769      1769    1        { 5, {17,310,0,0,0,0,}},
     1770      1770    1        { 5, {64,147,15,0,0,0,}},
     1771      1771    1        { 5, {17,311,0,0,0,0,}},
     1772      1772    1        { 5, {17,314,0,0,0,0,}},
     1773      1773    1        { 5, {17,317,0,0,0,0,}},
     1774      1774    1        { 5, {33,310,0,0,0,0,}},
CC.C03    File=zbd$table:c.:ZBC3TOU                                                 Fri Aug 22 1997  Page=61
     1775      1775    1        { 5, {64,147,6,0,0,0,}},
     1776      1776    1        { 5, {15,328,0,0,0,0,}},
     1777      1777    1        { 5, {15,329,0,0,0,0,}},
     1778      1778    1        { 5, {17,333,0,0,0,0,}},
     1779      1779    1        { 5, {15,335,0,0,0,0,}},
     1780      1780    1        { 5, {18,337,341,0,0,0,}},
     1781      1781    1        };
     1782      1782
     1783      1783             const move_t moves[] = {
     1784      1784    1        {5,0,19,0,0},
     1785      1785    1        {19,0,5,0,15},
     1786      1786    1        {7,0,33,0,26},
     1787      1787    1        {33,0,7,0,38},
     1788      1788    1        {34,0,35,0,48},
     1789      1789    1        {36,0,35,0,69},
     1790      1790    1        {37,0,35,0,90},
     1791      1791    1        {38,0,35,0,111},
     1792      1792    1        {39,0,35,0,132},
     1793      1793    1        {40,0,35,0,153},
     1794      1794    1        {41,0,35,0,174},
     1795      1795    1        {35,0,34,0,195},
     1796      1796    1        {35,0,36,0,210},
     1797      1797    1        {35,0,37,0,225},
     1798      1798    1        {35,0,38,0,240},
     1799      1799    1        {35,0,39,0,255},
     1800      1800    1        {35,0,40,0,270},
     1801      1801    1        {35,0,41,0,285},
     1802      1802    1        {5,0,42,0,300},
     1803      1803    1        {42,0,5,0,316},
     1804      1804    1        {43,0,5,0,326},
     1805      1805    1        {44,0,5,0,337},
     1806      1806    1        {45,0,5,0,348},
     1807      1807    1        {7,0,7,0,359},
     1808      1808    1        {9,0,9,0,370},
     1809      1809    1        {10,0,10,0,381},
     1810      1810    1        {46,0,26,0,392},
     1811      1811    1        {48,0,26,0,406},
CC.C03    File=zbd$table:c.:ZBC3TOU                                                 Fri Aug 22 1997  Page=62
     1812      1812    1        {49,0,26,0,424},
     1813      1813    1        {7,0,27,0,446},
     1814      1814    1        {50,0,26,0,457},
     1815      1815    1        {51,0,26,0,480},
     1816      1816    1        {52,0,26,0,503},
     1817      1817    1        {53,0,26,0,529},
     1818      1818    1        {54,0,26,0,555},
     1819      1819    1        {55,0,26,0,578},
     1820      1820    1        {56,0,26,0,604},
     1821      1821    1        {50,0,27,0,634},
     1822      1822    1        {51,0,27,0,652},
     1823      1823    1        {52,0,27,0,670},
     1824      1824    1        {53,0,27,0,693},
     1825      1825    1        {54,0,27,0,716},
     1826      1826    1        {55,0,27,0,734},
     1827      1827    1        {56,0,27,0,757},
     1828      1828    1        {11,0,26,0,776},
     1829      1829    1        {26,0,11,0,790},
     1830      1830    1        {57,0,20,0,802},
     1831      1831    1        {59,0,20,0,816},
     1832      1832    1        {19,0,20,0,829},
     1833      1833    1        {20,0,19,0,843},
     1834      1834    1        {20,0,5,0,857},
     1835      1835    1        {-1}
     1836      1836    1        };
     1837      1837
     1838      1838             const test_t tests[] = {
     1839      1839    1        {19,0,869},
     1840      1840    1        {5,0,882},
     1841      1841    1        {42,0,894},
     1842      1842    1        {33,0,906},
     1843      1843    1        {7,0,918},
     1844      1844    1        {-1}
     1845      1845    1        };
     1846      1846
     1847      1847             const c1_t c1coercs[] = {
     1848      1848    1        {19,0,-1,930},
CC.C03    File=zbd$table:c.:ZBC3TOU                                                 Fri Aug 22 1997  Page=63
     1849      1849    1        {26,0,-1,944},
     1850      1850    1        {20,0,-1,959},
     1851      1851    1        {42,0,-1,974},
     1852      1852    1        {33,0,-1,987},
     1853      1853    1        {35,0,-1,1000},
     1854      1854    1        {60,0,-1,1013},
     1855      1855    1        {61,0,-1,1026},
     1856      1856    1        {5,0,0,1044},
     1857      1857    1        {43,0,-1,1057},
     1858      1858    1        {62,0,-1,1071},
     1859      1859    1        {45,0,-1,1085},
     1860      1860    1        {63,0,-1,1099},
     1861      1861    1        {7,0,3,1113},
     1862      1862    1        {7,0,-1,1126},
     1863      1863    1        {9,0,-1,1140},
     1864      1864    1        {64,0,-1,1157},
     1865      1865    1        {65,0,-1,1171},
     1866      1866    1        {66,0,-1,1185},
     1867      1867    1        {67,0,-1,1199},
     1868      1868    1        {68,0,-1,1213},
     1869      1869    1        {69,0,-1,1227},
     1870      1870    1        {70,0,-1,1241},
     1871      1871    1        {71,0,-1,1259},
     1872      1872    1        {4,0,-1,1274},
     1873      1873    1        {48,0,-1,1291},
     1874      1874    1        {49,0,-1,1310},
     1875      1875    1        {72,0,-1,1328},
     1876      1876    1        {-1}
     1877      1877    1        };
     1878      1878
     1879      1879             const c3_t c3coercs[] = {
     1880      1880    1        {0,0,0,60,1339},
     1881      1881    1        {0,0,3,60,1351},
     1882      1882    1        {0,0,4,60,1363},
     1883      1883    1        {0,0,9,60,1375},
     1884      1884    1        {0,0,9,73,1387},
     1885      1885    1        {0,0,9,74,1399},
CC.C03    File=zbd$table:c.:ZBC3TOU                                                 Fri Aug 22 1997  Page=64
     1886      1886    1        {0,0,8,60,1411},
     1887      1887    1        {0,0,6,60,1423},
     1888      1888    1        {5,0,0,60,1435},
     1889      1889    1        {7,0,3,60,1448},
     1890      1890    1        {7,0,6,60,1461},
     1891      1891    1        {5,0,4,60,1474},
     1892      1892    1        {5,0,8,60,1487},
     1893      1893    1        {73,0,0,60,1500},
     1894      1894    1        {74,0,0,60,1523},
     1895      1895    1        {75,0,0,60,1553},
     1896      1896    1        {19,0,8,60,1583},
     1897      1897    1        {76,0,1,5,1596},
     1898      1898    1        {77,0,2,3,1620},
     1899      1899    1        {26,0,0,60,1644},
     1900      1900    1        {11,0,9,73,1660},
     1901      1901    1        {11,0,9,74,1673},
     1902      1902    1        {64,0,9,73,1686},
     1903      1903    1        {64,0,9,74,1699},
     1904      1904    1        {64,0,0,60,1712},
     1905      1905    1        {64,0,8,60,1725},
     1906      1906    1        {64,0,-1,81,1738},
     1907      1907    1        {19,0,9,73,1746},
     1908      1908    1        {19,0,9,74,1769},
     1909      1909    1        {71,0,-1,68,1792},
     1910      1910    1        {78,0,9,73,1800},
     1911      1911    1        {78,0,9,60,1813},
     1912      1912    1        {79,0,0,83,1826},
     1913      1913    1        {80,0,-1,84,1848},
     1914      1914    1        {81,0,-1,85,1856},
     1915      1915    1        {82,0,0,87,1864},
     1916      1916    1        {83,0,0,89,1890},
     1917      1917    1        {71,0,-1,90,1916},
     1918      1918    1        {79,0,0,91,1924},
     1919      1919    1        {48,0,-1,92,1946},
     1920      1920    1        {49,0,-1,93,1954},
     1921      1921    1        {84,0,0,60,1962},
     1922      1922    1        {81,0,0,60,1991},
CC.C03    File=zbd$table:c.:ZBC3TOU                                                 Fri Aug 22 1997  Page=65
     1923      1923    1        {83,0,0,60,2004},
     1924      1924    1        {48,0,-1,68,2032},
     1925      1925    1        {49,0,-1,68,2062},
     1926      1926    1        {50,0,0,60,2091},
     1927      1927    1        {52,0,-1,97,2126},
     1928      1928    1        {51,0,0,60,2165},
     1929      1929    1        {53,0,-1,99,2178},
     1930      1930    1        {1,0,-1,100,2203},
     1931      1931    1        {28,0,0,60,2211},
     1932      1932    1        {-1}
     1933      1933    1        };
     1934      1934
     1935      1935             const struct reginfo *const rlist0[] = {
     1936      1936    1        &machregs[1],
"zbd$table:c.:ZBC3TOU", line 1936: (warning) incompatible pointers in =
     1937      1937    1        &machregs[2],
"zbd$table:c.:ZBC3TOU", line 1937: (warning) incompatible pointers in =
     1938      1938    1        0
     1939      1939    1        };
     1940      1940             const struct reginfo *const rlist1[] = {
     1941      1941    1        &machregs[2],
"zbd$table:c.:ZBC3TOU", line 1941: (warning) incompatible pointers in =
     1942      1942    1        0
     1943      1943    1        };
     1944      1944             const struct reginfo *const rlist2[] = {
     1945      1945    1        &machregs[1],
"zbd$table:c.:ZBC3TOU", line 1945: (warning) incompatible pointers in =
     1946      1946    1        0
     1947      1947    1        };
     1948      1948             const struct reginfo *const rlist3[] = {
     1949      1949    1        &machregs[3],
"zbd$table:c.:ZBC3TOU", line 1949: (warning) incompatible pointers in =
     1950      1950    1        0
     1951      1951    1        };
     1952      1952             const struct reginfo *const rlist4[] = {
     1953      1953    1        &machregs[5],
"zbd$table:c.:ZBC3TOU", line 1953: (warning) incompatible pointers in =
CC.C03    File=zbd$table:c.:ZBC3TOU                                                 Fri Aug 22 1997  Page=66
     1954      1954    1        0
     1955      1955    1        };
     1956      1956             const struct reginfo *const rlist5[] = {
     1957      1957    1        &machregs[5],
"zbd$table:c.:ZBC3TOU", line 1957: (warning) incompatible pointers in =
     1958      1958    1        0
     1959      1959    1        };
     1960      1960             const struct reginfo *const rlist6[] = {
     1961      1961    1        &machregs[4],
"zbd$table:c.:ZBC3TOU", line 1961: (warning) incompatible pointers in =
     1962      1962    1        0
     1963      1963    1        };
     1964      1964             const struct reginfo *const rlist7[] = {
     1965      1965    1        &machregs[4],
"zbd$table:c.:ZBC3TOU", line 1965: (warning) incompatible pointers in =
     1966      1966    1        0
     1967      1967    1        };
     1968      1968             const struct reginfo *const rlist8[] = {
     1969      1969    1        &machregs[6],
"zbd$table:c.:ZBC3TOU", line 1969: (warning) incompatible pointers in =
     1970      1970    1        &machregs[7],
"zbd$table:c.:ZBC3TOU", line 1970: (warning) incompatible pointers in =
     1971      1971    1        &machregs[8],
"zbd$table:c.:ZBC3TOU", line 1971: (warning) incompatible pointers in =
     1972      1972    1        &machregs[9],
"zbd$table:c.:ZBC3TOU", line 1972: (warning) incompatible pointers in =
     1973      1973    1        &machregs[10],
"zbd$table:c.:ZBC3TOU", line 1973: (warning) incompatible pointers in =
     1974      1974    1        0
     1975      1975    1        };
     1976      1976             const struct reginfo *const rlist9[] = {
     1977      1977    1        &machregs[11],
"zbd$table:c.:ZBC3TOU", line 1977: (warning) incompatible pointers in =
     1978      1978    1        &machregs[12],
"zbd$table:c.:ZBC3TOU", line 1978: (warning) incompatible pointers in =
     1979      1979    1        &machregs[13],
"zbd$table:c.:ZBC3TOU", line 1979: (warning) incompatible pointers in =
CC.C03    File=zbd$table:c.:ZBC3TOU                                                 Fri Aug 22 1997  Page=67
     1980      1980    1        &machregs[14],
"zbd$table:c.:ZBC3TOU", line 1980: (warning) incompatible pointers in =
     1981      1981    1        0
     1982      1982    1        };
     1983      1983             const struct reginfo *const rlist10[] = {
     1984      1984    1        &machregs[15],
"zbd$table:c.:ZBC3TOU", line 1984: (warning) incompatible pointers in =
     1985      1985    1        0
     1986      1986    1        };
     1987      1987             const struct reginfo **const reglist[] = {
     1988      1988    1        rlist0,
"zbd$table:c.:ZBC3TOU", line 1988: (warning) incompatible pointers in =
     1989      1989    1        rlist1,
"zbd$table:c.:ZBC3TOU", line 1989: (warning) incompatible pointers in =
     1990      1990    1        rlist2,
"zbd$table:c.:ZBC3TOU", line 1990: (warning) incompatible pointers in =
     1991      1991    1        rlist3,
"zbd$table:c.:ZBC3TOU", line 1991: (warning) incompatible pointers in =
     1992      1992    1        rlist4,
"zbd$table:c.:ZBC3TOU", line 1992: (warning) incompatible pointers in =
     1993      1993    1        rlist5,
"zbd$table:c.:ZBC3TOU", line 1993: (warning) incompatible pointers in =
     1994      1994    1        rlist6,
"zbd$table:c.:ZBC3TOU", line 1994: (warning) incompatible pointers in =
     1995      1995    1        rlist7,
"zbd$table:c.:ZBC3TOU", line 1995: (warning) incompatible pointers in =
     1996      1996    1        rlist8,
"zbd$table:c.:ZBC3TOU", line 1996: (warning) incompatible pointers in =
     1997      1997    1        rlist9,
"zbd$table:c.:ZBC3TOU", line 1997: (warning) incompatible pointers in =
     1998      1998    1        rlist10,
"zbd$table:c.:ZBC3TOU", line 1998: (warning) incompatible pointers in =
     1999      1999    1        };
     2000      2000
     2001      2001             const unsigned cc1 = 1;
     2002      2002             const unsigned cc2 = 2;
     2003      2003             const unsigned cc3 = 1;
CC.C03    File=zbd$table:c.:ZBC3TOU                                                 Fri Aug 22 1997  Page=68
     2004      2004             const unsigned cc4 = 1;
     2005      2005             #include "regvar.h"
     2006      2006             const int nregvar[4] = { 1, 0, 0, 0, };
     2007      2007             const struct regassigned ratar0[1];
     2008      2008             const int rvtar0[] = {15,};
     2009      2009
     2010      2010             const int *rvnumbers[] = {
     2011      2011    1        	rvtar0,
     2012      2012    1        	0,
     2013      2013    1        	0,
     2014      2014    1        	0,
     2015      2015    1        };
     2016      2016
     2017      2017             const struct regassigned *const regassigned[] = {
     2018      2018    1        	ratar0,
     2019      2019    1        	0,
     2020      2020    1        	0,
     2021      2021    1        	0,
     2022      2022    1        };
     2023      2023             const char pattern[3604]={
     2024      2024    1        0, 0, 10, 0, 1, 69, 76, 1, 136, 205, 0, 19, 0, 1, 69, 77,
     2025      2025    1        1, 136, 211, 0, 28, 0, 1, 69, 80, 1, 136, 217, 0, 24, 7, 1,
     2026      2026    1        69, 81, 1, 136, 223, 0, 46, 0, 1, 73, 83, 1, 136, 229, 0, 111,
     2027      2027    1        5, 1, 73, 84, 1, 136, 238, 0, 64, 0, 1, 70, 88, 1, 136, 244,
     2028      2028    1        0, 2, 7, 1, 70, 89, 1, 136, 253, 0, 54, 13, 1, 65, 0, 1,
     2029      2029    1        137, 3, 0, 247, 6, 1, 71, 0, 1, 137, 14, 0, 100, 0, 1, 58,
     2030      2030    1        96, 1, 137, 22, 0, 109, 0, 1, 58, 97, 1, 137, 28, 0, 0, 0,
     2031      2031    1        1, 58, 83, 1, 137, 34, 0, 127, 0, 1, 57, 99, 1, 137, 40, 0,
     2032      2032    1        136, 0, 1, 57, 100, 1, 137, 46, 0, 0, 0, 1, 57, 88, 1, 137,
     2033      2033    1        52, 0, 164, 0, 1, 72, 101, 6, 137, 58, 137, 66, 137, 74, 137, 82,
     2034      2034    1        137, 90, 137, 98, 0, 187, 0, 1, 72, 102, 8, 137, 106, 137, 114, 137,
     2035      2035    1        122, 137, 143, 137, 151, 137, 159, 137, 168, 137, 189, 0, 208, 0, 1, 72,
     2036      2036    1        77, 7, 137, 197, 137, 206, 137, 215, 137, 224, 137, 233, 137, 242, 137, 251,
     2037      2037    1        0, 55, 5, 1, 72, 107, 7, 138, 4, 138, 13, 138, 22, 138, 31, 138,
     2038      2038    1        40, 138, 49, 138, 57, 0, 238, 0, 1, 63, 108, 1, 138, 65, 0, 0,
     2039      2039    1        0, 1, 63, 96, 1, 138, 74, 0, 0, 1, 1, 61, 109, 1, 138, 81,
     2040      2040    1        0, 0, 0, 1, 61, 99, 1, 138, 90, 0, 0, 0, 1, 62, 0, 1,
CC.C03    File=zbd$table:c.:ZBC3TOU                                                 Fri Aug 22 1997  Page=69
     2041      2041    1        138, 97, 0, 0, 0, 1, 77, 0, 1, 138, 106, 0, 36, 1, 1, 113,
     2042      2042    1        83, 1, 138, 113, 0, 83, 9, 1, 113, 84, 1, 138, 122, 0, 54, 1,
     2043      2043    1        1, 110, 88, 1, 138, 137, 0, 0, 0, 1, 110, 89, 1, 138, 146, 0,
     2044      2044    1        0, 0, 1, 104, 0, 1, 138, 161, 0, 202, 13, 1, 111, 0, 1, 138,
     2045      2045    1        178, 0, 112, 1, 1, 112, 101, 12, 138, 191, 138, 204, 138, 217, 138, 230,
     2046      2046    1        138, 244, 139, 2, 139, 15, 139, 28, 139, 41, 139, 60, 139, 74, 139, 87,
     2047      2047    1        0, 147, 1, 1, 112, 102, 14, 139, 105, 139, 118, 139, 131, 139, 152, 139,
     2048      2048    1        165, 139, 179, 139, 193, 139, 206, 139, 220, 139, 241, 139, 254, 140, 17, 140,

     2049      2049    1        31, 140, 44, 0, 186, 1, 1, 112, 77, 16, 140, 62, 140, 76, 140, 90,
     2050      2050    1        140, 104, 140, 118, 140, 132, 140, 146, 140, 160, 140, 178, 140, 196, 140, 214
                               ,
     2051      2051    1        140, 232, 140, 250, 141, 12, 141, 30, 141, 44, 0, 195, 1, 1, 112, 76,
     2052      2052    1        1, 141, 58, 0, 94, 9, 1, 112, 113, 9, 141, 65, 141, 79, 141, 93,
     2053      2053    1        141, 107, 141, 121, 141, 135, 141, 148, 141, 161, 141, 174, 0, 229, 1, 1,
     2054      2054    1        101, 108, 1, 141, 187, 0, 0, 0, 1, 101, 96, 1, 141, 196, 0, 247,
     2055      2055    1        1, 1, 99, 109, 1, 141, 212, 0, 0, 0, 1, 99, 99, 1, 141, 221,
     2056      2056    1        0, 127, 13, 1, 100, 0, 1, 141, 237, 0, 154, 10, 1, 3, 101, 4,
     2057      2057    1        141, 251, 142, 15, 142, 35, 142, 56, 0, 0, 0, 1, 96, 101, 5, 142,
     2058      2058    1        86, 142, 106, 142, 129, 142, 153, 142, 177, 4, 51, 2, 2, 69, 81, 120,
     2059      2059    1        1, 142, 207, 4, 61, 2, 2, 69, 81, 121, 1, 142, 225, 4, 0, 0,
     2060      2060    1        2, 69, 81, 122, 1, 142, 243, 0, 0, 0, 1, 81, 101, 5, 143, 5,
     2061      2061    1        143, 28, 143, 51, 143, 78, 143, 102, 4, 98, 2, 2, 69, 45, 120, 1,
     2062      2062    1        143, 135, 4, 108, 2, 2, 69, 45, 121, 1, 143, 153, 4, 184, 4, 2,
     2063      2063    1        69, 45, 122, 1, 143, 171, 0, 0, 0, 1, 45, 101, 4, 143, 189, 143,
     2064      2064    1        212, 143, 247, 144, 30, 0, 180, 13, 1, 89, 101, 4, 144, 63, 144, 86,
     2065      2065    1        144, 121, 144, 160, 0, 4, 5, 1, 85, 101, 1, 144, 193, 0, 0, 0,
     2066      2066    1        1, 106, 101, 2, 144, 207, 144, 226, 0, 0, 0, 1, 108, 101, 2, 144,
     2067      2067    1        244, 145, 7, 0, 0, 0, 1, 6, 101, 4, 145, 25, 145, 45, 145, 65,
     2068      2068    1        145, 86, 0, 139, 9, 1, 98, 101, 5, 145, 116, 145, 136, 145, 169, 145,
     2069      2069    1        193, 145, 227, 4, 72, 3, 2, 69, 82, 0, 1, 146, 1, 0, 0, 0,
     2070      2070    1        1, 82, 0, 1, 146, 10, 4, 240, 2, 2, 69, 46, 120, 1, 146, 17,
     2071      2071    1        4, 250, 2, 2, 69, 46, 121, 1, 146, 35, 4, 59, 9, 2, 69, 46,
     2072      2072    1        122, 1, 146, 53, 0, 140, 13, 1, 46, 101, 1, 146, 71, 4, 23, 3,
     2073      2073    1        2, 69, 90, 120, 1, 146, 189, 4, 33, 3, 2, 69, 90, 121, 1, 146,
     2074      2074    1        210, 4, 231, 8, 2, 69, 90, 122, 1, 146, 231, 0, 0, 0, 1, 90,
     2075      2075    1        101, 1, 146, 250, 0, 0, 0, 1, 107, 0, 1, 147, 111, 0, 0, 0,
CC.C03    File=zbd$table:c.:ZBC3TOU                                                 Fri Aug 22 1997  Page=70
     2076      2076    1        1, 109, 101, 2, 147, 118, 147, 137, 0, 133, 3, 1, 2, 102, 3, 147,
     2077      2077    1        155, 147, 172, 147, 189, 0, 146, 3, 1, 95, 102, 3, 147, 207, 147, 224,
     2078      2078    1        147, 244, 0, 159, 3, 1, 80, 102, 3, 148, 9, 148, 26, 148, 43, 0,
     2079      2079    1        172, 3, 1, 44, 102, 3, 148, 61, 148, 78, 148, 95, 0, 185, 3, 1,
     2080      2080    1        84, 102, 1, 148, 113, 0, 0, 0, 1, 2, 101, 3, 148, 127, 148, 148,
     2081      2081    1        148, 169, 0, 0, 0, 1, 95, 101, 3, 148, 191, 148, 212, 148, 238, 0,
     2082      2082    1        0, 0, 1, 80, 101, 3, 149, 9, 149, 30, 149, 51, 0, 0, 0, 1,
     2083      2083    1        44, 101, 3, 149, 73, 149, 94, 149, 115, 0, 0, 0, 1, 84, 101, 1,
     2084      2084    1        149, 137, 0, 0, 0, 1, 4, 0, 6, 149, 155, 149, 176, 149, 185, 149,
     2085      2085    1        194, 149, 203, 149, 212, 67, 233, 3, 3, 69, 106, 5, 128, 142, 5, 149,
     2086      2086    1        232, 149, 242, 149, 252, 150, 6, 150, 16, 67, 0, 0, 3, 69, 106, 5,
     2087      2087    1        128, 145, 7, 150, 32, 150, 57, 150, 82, 150, 107, 150, 132, 150, 157, 150,
     2088      2088    1        182, 64, 21, 4, 3, 69, 81, 5, 128, 149, 5, 150, 214, 150, 244, 151,
     2089      2089    1        18, 151, 48, 151, 78, 64, 49, 6, 3, 69, 81, 5, 128, 151, 5, 151,
     2090      2090    1        115, 151, 145, 151, 175, 151, 205, 151, 235, 67, 61, 4, 3, 69, 107, 5,
     2091      2091    1        128, 142, 5, 152, 16, 152, 26, 152, 36, 152, 46, 152, 56, 67, 0, 0,
     2092      2092    1        3, 69, 107, 5, 128, 145, 7, 152, 72, 152, 97, 152, 122, 152, 147, 152,
     2093      2093    1        172, 152, 197, 152, 222, 64, 105, 4, 3, 69, 82, 5, 128, 149, 5, 152,
     2094      2094    1        254, 153, 28, 153, 58, 153, 88, 153, 118, 64, 0, 0, 3, 69, 82, 5,
     2095      2095    1        128, 151, 5, 153, 155, 153, 185, 153, 215, 153, 245, 154, 19, 0, 0, 0,
     2096      2096    1        1, 5, 101, 20, 154, 56, 154, 78, 154, 101, 154, 124, 154, 134, 154, 144,
     2097      2097    1        154, 167, 154, 190, 154, 200, 154, 210, 154, 231, 154, 253, 155, 21, 155, 46,
     2098      2098    1        155, 56, 155, 81, 155, 99, 155, 115, 155, 137, 155, 163, 101, 0, 0, 3,
     2099      2099    1        97, 69, 123, 128, 156, 1, 155, 192, 101, 196, 4, 3, 97, 69, 45, 128,
     2100      2100    1        159, 1, 155, 199, 101, 208, 4, 3, 97, 69, 45, 128, 161, 1, 155, 211,
     2101      2101    1        101, 0, 0, 3, 97, 69, 45, 128, 164, 1, 155, 222, 0, 0, 0, 1,
     2102      2102    1        97, 101, 1, 155, 234, 0, 0, 0, 1, 52, 0, 2, 155, 245, 156, 10,
     2103      2103    1        4, 191, 13, 2, 73, 54, 128, 166, 1, 156, 24, 0, 0, 0, 1, 54,
     2104      2104    1        0, 1, 156, 46, 4, 0, 0, 2, 70, 53, 128, 167, 1, 156, 63, 0,
     2105      2105    1        0, 0, 1, 53, 0, 1, 156, 85, 0, 0, 0, 1, 39, 0, 2, 156,
     2106      2106    1        102, 156, 123, 4, 0, 0, 2, 73, 41, 128, 166, 1, 156, 150, 0, 0,
     2107      2107    1        0, 1, 41, 0, 1, 156, 188, 4, 153, 6, 2, 70, 40, 128, 167, 1,
     2108      2108    1        156, 218, 0, 0, 0, 1, 40, 0, 1, 157, 0, 0, 79, 8, 1, 133,
     2109      2109    1        0, 1, 157, 30, 0, 0, 0, 1, 131, 0, 1, 157, 45, 0, 102, 5,
     2110      2110    1        1, 132, 101, 1, 157, 60, 0, 0, 0, 1, 132, 102, 1, 157, 84, 65,
     2111      2111    1        126, 5, 6, 69, 69, 25, 69, 69, 83, 128, 169, 1, 157, 106, 65, 141,
     2112      2112    1        5, 6, 69, 69, 25, 73, 69, 83, 128, 169, 1, 157, 119, 65, 201, 5,
CC.C03    File=zbd$table:c.:ZBC3TOU                                                 Fri Aug 22 1997  Page=71
     2113      2113    1        6, 69, 69, 25, 70, 69, 83, 128, 169, 1, 157, 132, 65, 171, 5, 6,
     2114      2114    1        69, 69, 36, 69, 69, 83, 128, 169, 1, 157, 145, 65, 186, 5, 6, 69,
     2115      2115    1        69, 36, 73, 69, 83, 128, 169, 1, 157, 158, 65, 223, 5, 6, 69, 69,
     2116      2116    1        36, 70, 69, 83, 128, 169, 1, 157, 171, 65, 13, 6, 3, 69, 69, 25,
     2117      2117    1        121, 1, 157, 184, 65, 245, 5, 3, 69, 69, 26, 121, 1, 157, 188, 65,
     2118      2118    1        1, 6, 3, 69, 69, 36, 121, 1, 157, 192, 65, 31, 6, 3, 69, 69,
     2119      2119    1        37, 121, 1, 157, 196, 65, 0, 0, 3, 69, 69, 26, 128, 169, 1, 157,
     2120      2120    1        200, 65, 9, 8, 3, 69, 69, 36, 128, 169, 1, 157, 211, 65, 0, 0,
     2121      2121    1        3, 69, 69, 25, 128, 169, 4, 157, 222, 157, 250, 158, 25, 158, 56, 65,
     2122      2122    1        33, 8, 3, 69, 69, 37, 128, 169, 4, 158, 81, 158, 104, 158, 136, 158,
     2123      2123    1        168, 65, 62, 6, 4, 69, 69, 69, 24, 128, 194, 1, 158, 187, 65, 75,
     2124      2124    1        6, 4, 69, 69, 69, 24, 128, 198, 1, 158, 206, 65, 88, 6, 4, 69,
     2125      2125    1        69, 69, 24, 128, 199, 1, 158, 225, 65, 101, 6, 4, 69, 69, 69, 24,
     2126      2126    1        128, 200, 1, 158, 244, 65, 114, 6, 4, 69, 69, 69, 35, 128, 194, 1,
     2127      2127    1        159, 7, 65, 127, 6, 4, 69, 69, 69, 35, 128, 198, 1, 159, 26, 65,
     2128      2128    1        140, 6, 4, 69, 69, 69, 35, 128, 199, 1, 159, 45, 65, 252, 10, 4,
     2129      2129    1        69, 69, 69, 35, 128, 200, 1, 159, 64, 65, 165, 6, 3, 69, 69, 24,
     2130      2130    1        128, 169, 1, 159, 83, 65, 177, 6, 3, 69, 69, 24, 128, 205, 1, 159,
     2131      2131    1        135, 65, 188, 6, 3, 69, 69, 24, 121, 1, 159, 187, 65, 0, 0, 3,
     2132      2132    1        69, 69, 24, 128, 163, 1, 159, 229, 65, 212, 6, 3, 69, 69, 35, 128,
     2133      2133    1        169, 1, 160, 15, 65, 224, 6, 3, 69, 69, 35, 128, 205, 1, 160, 63,
     2134      2134    1        65, 235, 6, 3, 69, 69, 35, 121, 1, 160, 111, 65, 0, 0, 3, 69,
     2135      2135    1        69, 35, 128, 163, 1, 160, 153, 65, 0, 0, 3, 69, 69, 23, 0, 1,
     2136      2136    1        160, 195, 65, 13, 7, 3, 69, 69, 22, 121, 1, 160, 206, 65, 0, 0,
     2137      2137    1        3, 69, 69, 22, 122, 1, 160, 238, 65, 35, 7, 3, 69, 69, 21, 121,
     2138      2138    1        1, 161, 14, 65, 47, 7, 3, 69, 69, 21, 128, 206, 1, 161, 18, 65,
     2139      2139    1        59, 7, 3, 69, 69, 21, 128, 163, 1, 161, 22, 65, 0, 0, 3, 69,
     2140      2140    1        69, 21, 122, 1, 161, 31, 0, 0, 0, 1, 7, 101, 3, 161, 40, 161,
     2141      2141    1        60, 161, 80, 0, 0, 0, 1, 56, 101, 3, 161, 101, 161, 121, 161, 141,
     2142      2142    1        0, 0, 0, 1, 123, 101, 3, 161, 162, 161, 182, 161, 202, 0, 0, 0,
     2143      2143    1        1, 32, 101, 1, 161, 223, 0, 0, 0, 1, 91, 101, 2, 161, 244, 162,
     2144      2144    1        7, 0, 0, 0, 1, 92, 101, 2, 162, 25, 162, 44, 0, 0, 0, 1,
     2145      2145    1        28, 101, 5, 162, 79, 162, 100, 162, 121, 162, 141, 162, 161, 0, 0, 0,
     2146      2146    1        1, 30, 101, 1, 162, 181, 0, 0, 0, 1, 29, 0, 1, 162, 188, 0,
     2147      2147    1        0, 0, 1, 31, 101, 3, 162, 195, 162, 216, 162, 237, 0, 211, 7, 1,
     2148      2148    1        27, 101, 8, 163, 1, 163, 21, 163, 41, 163, 60, 163, 87, 163, 109, 163,
     2149      2149    1        129, 163, 149, 0, 0, 0, 1, 27, 102, 8, 163, 169, 163, 189, 163, 209,
CC.C03    File=zbd$table:c.:ZBC3TOU                                                 Fri Aug 22 1997  Page=72
     2150      2150    1        163, 228, 163, 251, 164, 17, 164, 37, 164, 57, 3, 164, 77, 164, 120, 164,
     2151      2151    1        164, 0, 0, 0, 1, 120, 0, 0, 135, 234, 128, 159, 0, 0, 0, 0,
     2152      2152    1        1, 119, 0, 0, 135, 234, 128, 160, 0, 0, 0, 0, 1, 116, 0, 0,
     2153      2153    1        135, 234, 128, 161, 0, 0, 0, 0, 1, 121, 0, 0, 135, 234, 128, 162,
     2154      2154    1        0, 0, 0, 0, 1, 117, 0, 0, 135, 234, 128, 163, 0, 0, 0, 0,
     2155      2155    1        1, 118, 0, 0, 135, 234, 128, 164, 0, 68, 0, 0, 3, 69, 31, 120,
     2156      2156    1        76, 1, 164, 204, 68, 0, 0, 3, 69, 31, 119, 76, 1, 164, 212, 68,
     2157      2157    1        0, 0, 3, 69, 31, 117, 76, 1, 164, 219, 68, 0, 0, 3, 69, 31,
     2158      2158    1        118, 76, 1, 164, 227, 68, 102, 13, 3, 69, 30, 116, 128, 209, 1, 164,
     2159      2159    1        234, 68, 0, 0, 3, 69, 30, 121, 128, 209, 1, 164, 245, 133, 0, 0,
     2160      2160    1        3, 132, 27, 120, 128, 166, 1, 165, 0, 133, 0, 0, 3, 132, 27, 119,
     2161      2161    1        128, 166, 1, 165, 12, 133, 0, 0, 3, 132, 27, 116, 128, 166, 1, 165,
     2162      2162    1        24, 133, 0, 0, 3, 132, 27, 121, 128, 166, 1, 165, 36, 133, 0, 0,
     2163      2163    1        3, 132, 27, 117, 128, 166, 1, 165, 48, 133, 0, 0, 3, 132, 27, 118,
     2164      2164    1        128, 166, 1, 165, 60, 0, 0, 0, 1, 18, 0, 1, 165, 72, 3, 165,
     2165      2165    1        86, 165, 111, 165, 135, 0, 0, 0, 1, 16, 0, 1, 165, 153, 0, 213,
     2166      2166    1        13, 1, 13, 0, 1, 165, 163, 0, 0, 0, 1, 10, 0, 1, 165, 173,
     2167      2167    1        0, 78, 13, 1, 17, 0, 1, 165, 182, 0, 0, 0, 1, 11, 0, 1,
     2168      2168    1        165, 192, 0, 0, 0, 1, 12, 0, 1, 165, 201, 0, 0, 0, 1, 129,
     2169      2169    1        0, 0, 136, 206, 128, 159, 0, 0, 0, 0, 1, 128, 0, 0, 136, 206,
     2170      2170    1        128, 160, 0, 0, 0, 0, 1, 124, 0, 0, 136, 206, 128, 161, 0, 0,
     2171      2171    1        0, 0, 1, 130, 0, 0, 136, 206, 128, 162, 0, 0, 0, 0, 1, 126,
     2172      2172    1        0, 0, 136, 206, 128, 163, 0, 0, 0, 0, 1, 127, 0, 0, 136, 206,
     2173      2173    1        128, 164, 0, 68, 0, 0, 3, 69, 31, 129, 76, 1, 165, 210, 68, 167,
     2174      2174    1        10, 3, 69, 31, 128, 76, 1, 165, 217, 68, 0, 0, 3, 69, 31, 126,
     2175      2175    1        76, 1, 165, 225, 68, 0, 0, 3, 69, 31, 127, 76, 1, 165, 236, 68,
     2176      2176    1        0, 0, 3, 69, 30, 124, 128, 209, 1, 165, 245, 68, 0, 0, 3, 69,
     2177      2177    1        30, 130, 128, 209, 1, 166, 1, 133, 115, 13, 3, 132, 27, 129, 128, 166,
     2178      2178    1        1, 166, 14, 133, 0, 0, 3, 132, 27, 128, 128, 166, 1, 166, 28, 133,
     2179      2179    1        0, 0, 3, 132, 27, 124, 128, 166, 1, 166, 42, 133, 100, 10, 3, 132,
     2180      2180    1        27, 130, 128, 166, 1, 166, 55, 133, 0, 0, 3, 132, 27, 126, 128, 166,
     2181      2181    1        1, 166, 69, 133, 0, 0, 3, 132, 27, 127, 128, 166, 1, 166, 82, 0,
     2182      2182    1        0, 0, 1, 20, 0, 2, 166, 95, 166, 127, 0, 0, 0, 1, 19, 0,
     2183      2183    1        4, 166, 154, 166, 188, 166, 216, 166, 250, 0, 2, 10, 1, 64, 101, 1,
     2184      2184    1        167, 22, 0, 11, 10, 1, 64, 102, 1, 167, 28, 0, 0, 0, 1, 64,
     2185      2185    1        77, 1, 167, 35, 0, 29, 10, 1, 88, 76, 1, 167, 41, 0, 40, 10,
     2186      2186    1        1, 88, 101, 2, 167, 48, 167, 58, 0, 49, 10, 1, 88, 102, 1, 167,
CC.C03    File=zbd$table:c.:ZBC3TOU                                                 Fri Aug 22 1997  Page=73
     2187      2187    1        68, 0, 0, 0, 1, 88, 77, 1, 167, 78, 0, 67, 10, 1, 8, 101,
     2188      2188    1        1, 167, 99, 0, 0, 0, 1, 8, 102, 1, 167, 106, 0, 90, 13, 1,
     2189      2189    1        14, 0, 1, 167, 113, 0, 0, 0, 1, 42, 0, 4, 167, 129, 167, 138,
     2190      2190    1        167, 147, 167, 160, 0, 0, 0, 1, 50, 0, 1, 167, 173, 0, 0, 0,
     2191      2191    1        1, 67, 0, 1, 167, 182, 0, 0, 0, 1, 68, 0, 1, 167, 191, 0,
     2192      2192    1        0, 0, 1, 86, 0, 1, 167, 199, 0, 0, 0, 1, 33, 101, 1, 167,
     2193      2193    1        203, 0, 0, 0, 1, 34, 101, 1, 167, 254, 65, 179, 10, 4, 69, 69,
     2194      2194    1        83, 64, 128, 221, 1, 168, 97, 64, 215, 10, 3, 69, 83, 64, 128, 222,
     2195      2195    1        1, 168, 118, 65, 191, 10, 3, 69, 69, 83, 128, 221, 1, 168, 139, 4,
     2196      2196    1        202, 10, 2, 69, 83, 128, 222, 1, 168, 158, 65, 227, 10, 4, 69, 69,
     2197      2197    1        83, 64, 128, 226, 1, 168, 177, 64, 10, 11, 3, 69, 83, 64, 128, 228,
     2198      2198    1        1, 168, 247, 65, 239, 10, 3, 69, 69, 83, 128, 226, 1, 169, 58, 4,
     2199      2199    1        37, 11, 2, 69, 83, 128, 228, 2, 169, 127, 169, 136, 65, 24, 11, 5,
     2200      2200    1        69, 69, 69, 83, 64, 128, 232, 1, 169, 202, 64, 63, 11, 3, 69, 83,
     2201      2201    1        64, 128, 233, 2, 169, 225, 169, 250, 65, 98, 11, 4, 69, 69, 69, 83,
     2202      2202    1        128, 232, 1, 170, 24, 4, 50, 11, 2, 69, 83, 128, 233, 2, 170, 46,
     2203      2203    1        170, 69, 65, 75, 11, 4, 69, 69, 83, 64, 128, 237, 1, 170, 97, 64,
     2204      2204    1        127, 11, 3, 69, 83, 64, 128, 238, 1, 170, 150, 65, 87, 11, 3, 69,
     2205      2205    1        69, 83, 128, 237, 1, 170, 201, 4, 112, 11, 2, 69, 83, 128, 238, 1,
     2206      2206    1        170, 209, 65, 154, 11, 5, 69, 69, 69, 83, 64, 128, 241, 1, 170, 218,
     2207      2207    1        65, 143, 11, 4, 69, 69, 83, 64, 128, 244, 2, 171, 16, 171, 70, 64,
     2208      2208    1        183, 11, 3, 69, 83, 64, 128, 245, 3, 171, 128, 171, 183, 171, 237, 4,
     2209      2209    1        168, 11, 2, 69, 83, 128, 245, 1, 172, 41, 65, 0, 0, 5, 69, 69,
     2210      2210    1        69, 83, 64, 128, 249, 1, 172, 50, 65, 199, 11, 4, 69, 69, 83, 64,
     2211      2211    1        128, 252, 2, 172, 111, 172, 172, 64, 116, 12, 3, 69, 83, 64, 128, 254,
     2212      2212    1        3, 172, 237, 173, 43, 173, 104, 4, 210, 11, 2, 69, 83, 128, 254, 1,
     2213      2213    1        173, 171, 4, 221, 11, 2, 69, 83, 129, 0, 1, 173, 180, 4, 232, 11,
     2214      2214    1        2, 69, 83, 129, 4, 1, 173, 202, 4, 243, 11, 2, 69, 83, 129, 7,
     2215      2215    1        1, 173, 224, 4, 254, 11, 2, 69, 83, 129, 10, 1, 173, 246, 4, 9,
     2216      2216    1        12, 2, 69, 83, 129, 13, 1, 174, 12, 4, 20, 12, 2, 69, 83, 129,
     2217      2217    1        16, 1, 174, 34, 4, 31, 12, 2, 69, 83, 129, 19, 1, 174, 56, 4,
     2218      2218    1        42, 12, 2, 69, 83, 129, 22, 1, 174, 78, 4, 53, 12, 2, 69, 83,
     2219      2219    1        129, 25, 1, 174, 100, 4, 64, 12, 2, 69, 83, 129, 28, 1, 174, 122,
     2220      2220    1        4, 75, 12, 2, 69, 83, 129, 32, 1, 174, 162, 4, 90, 12, 2, 69,
     2221      2221    1        83, 129, 35, 3, 174, 202, 174, 229, 175, 6, 4, 105, 12, 2, 69, 83,
     2222      2222    1        129, 38, 3, 175, 42, 175, 69, 175, 102, 4, 130, 12, 2, 69, 83, 129,
     2223      2223    1        41, 1, 175, 138, 64, 141, 12, 3, 69, 83, 64, 129, 43, 2, 175, 165,
CC.C03    File=zbd$table:c.:ZBC3TOU                                                 Fri Aug 22 1997  Page=74
     2224      2224    1        175, 189, 4, 153, 12, 2, 69, 83, 129, 43, 1, 175, 225, 64, 164, 12,
     2225      2225    1        3, 69, 83, 64, 129, 46, 1, 175, 232, 4, 176, 12, 2, 69, 83, 129,
     2226      2226    1        46, 1, 176, 76, 64, 187, 12, 3, 69, 83, 64, 129, 50, 1, 176, 83,
     2227      2227    1        4, 199, 12, 2, 69, 83, 129, 50, 1, 176, 210, 64, 210, 12, 3, 69,
     2228      2228    1        83, 64, 129, 52, 1, 177, 80, 4, 222, 12, 2, 69, 83, 129, 52, 1,
     2229      2229    1        178, 62, 64, 246, 12, 3, 69, 83, 64, 129, 57, 1, 179, 34, 4, 233,
     2230      2230    1        12, 2, 69, 83, 129, 57, 1, 180, 48, 65, 4, 13, 4, 69, 69, 83,
     2231      2231    1        64, 129, 60, 1, 180, 56, 64, 0, 0, 3, 69, 83, 64, 129, 62, 2,
     2232      2232    1        180, 212, 181, 112, 4, 15, 13, 2, 69, 83, 129, 62, 1, 182, 8, 65,
     2233      2233    1        28, 13, 4, 69, 69, 83, 64, 129, 64, 1, 182, 17, 65, 43, 13, 4,
     2234      2234    1        69, 69, 83, 64, 129, 65, 2, 182, 184, 183, 91, 4, 0, 0, 2, 69,
     2235      2235    1        83, 129, 65, 1, 183, 250, 73, 0, 0, 3, 73, 3, 113, 129, 67, 1,
     2236      2236    1        184, 3, 70, 0, 0, 3, 70, 3, 110, 129, 69, 1, 184, 26, 73, 0,
     2237      2237    1        0, 3, 73, 6, 113, 129, 67, 1, 184, 49, 70, 0, 0, 3, 70, 6,
     2238      2238    1        110, 129, 69, 1, 184, 72, 77, 0, 0, 4, 73, 73, 4, 113, 129, 71,
     2239      2239    1        1, 184, 95, 73, 0, 0, 3, 73, 4, 113, 129, 66, 1, 184, 138, 66,
     2240      2240    1        0, 0, 4, 70, 70, 4, 110, 129, 75, 1, 184, 172, 70, 0, 0, 3,
     2241      2241    1        70, 4, 110, 129, 68, 1, 184, 215, 65, 0, 0, 5, 69, 73, 7, 56,
     2242      2242    1        113, 129, 76, 1, 184, 249, 65, 0, 0, 5, 69, 70, 7, 56, 110, 129,
     2243      2243    1        80, 1, 185, 31, 7, 0, 0, 2, 113, 73, 128, 166, 1, 185, 69, 6,
     2244      2244    1        0, 0, 2, 110, 70, 128, 167, 1, 185, 85, 6, 0, 0, 2, 101, 63,
     2245      2245    1        128, 166, 1, 185, 101, 6, 0, 0, 2, 99, 61, 128, 167, 1, 185, 118,
     2246      2246    1        67, 237, 13, 4, 69, 106, 69, 3, 129, 90, 1, 185, 135, 67, 250, 13,
     2247      2247    1        4, 69, 106, 69, 3, 129, 97, 1, 185, 149, 67, 7, 14, 4, 69, 106,
     2248      2248    1        69, 96, 129, 90, 1, 185, 163, 67, 0, 0, 4, 69, 106, 69, 96, 129,
     2249      2249    1        97, 1, 185, 177, };
     2250      2250
     2251      2251             const int pathash[256]={
     2252      2252    1        0, 553, 723, 521, 962, 1149, 691, 1862, 2618, 0,
     2253      2253    1        781, 2297, 2306, 2270, 2636, 0, 2261, 2288, 2245, 2538,
     2254      2254    1        2527, 1025, 0, 0, 0, 0, 0, 1980, 1932, 1958,
     2255      2255    1        1949, 1967, 1901, 2696, 2705, 0, 0, 1109, 0, 1304,
     2256      2256    1        1346, 1326, 2645, 1196, 879, 630, 772, 0, 2467, 2455,
     2257      2257    1        2491, 0, 1253, 1295, 1275, 0, 1875, 118, 91, 0,
     2258      2258    1        0, 247, 265, 229, 2553, 73, 0, 2669, 2678, 1,
     2259      2259    1        55, 82, 145, 37, 1492, 0, 0, 274, 0, 0,
     2260      2260    1        866, 583, 733, 0, 892, 660, 2687, 0, 2580, 645,
CC.C03    File=zbd$table:c.:ZBC3TOU                                                 Fri Aug 22 1997  Page=75
     2261      2261    1        811, 1910, 1921, 0, 3394, 853, 536, 1244, 706, 494,
     2262      2262    1        512, 476, 0, 3494, 319, 0, 669, 820, 680, 829,
     2263      2263    1        301, 328, 337, 283, 0, 1736, 1436, 1514, 2093, 2045,
     2264      2264    1        2033, 2069, 0, 1888, 2339, 600, 742, 2375, 2327, 2315,
     2265      2265    1        2351, 1364, 1373, 1355, 2138, 2116, 2105, 0, 0, 0,
     2266      2266    1        0, 0, 2409, 2420, 0, 0, 0, 0, 2149, 0,
     2267      2267    1        0, 3480, 0, 2161, 0, 0, 2431, 0, 0, 0,
     2268      2268    1        0, 0, 0, 0, 0, 981, 1264, 0, 0, 0,
     2269      2269    1        0, 0, 0, 0, 0, 0, 0, 0, 0, 0,
     2270      2270    1        0, 1065, 0, 0, 0, 1315, 0, 0, 0, 0,
     2271      2271    1        0, 0, 0, 0, 0, 0, 2197, 2221, 2233, 2185,
     2272      2272    1        2173, 2209, 0, 0, 2479, 0, 2503, 2515, 0, 0,
     2273      2273    1        0, 0, 0, 0, 0, 0, 0, 0, 0, 0,
     2274      2274    1        0, 0, 0, 0, 0, 0, 0, 0, 0, 3552,
     2275      2275    1        0, 0, 0, 0, 0, 0, 0, 0, 0, 0,
     2276      2276    1        0, 0, 0, 0, 0, 0, 0, 0, 0, 0,
     2277      2277    1        0, 0, 0, 0, 0, 0, };
---  Include file information  ---

   zbg$param:h.:ZBC3TOU. is referenced
   tables:h.:ZBC3TOU. is referenced
   zbg$types:h.:ZBC3TOU. is referenced
   cgg_cg:h.:ZBC3TOU. is referenced
   zbg$data:h.:ZBC3TOU. is referenced
   zbg$regvar:h.:ZBC3TOU. is referenced

30 warnings were detected in the file zbd$table:c.:ZBC3TOU
