
 10:52 08/22/97  FILE=zbe$arith:a.:ZBC3TSI                                                               1    BMAP - B00
                                         1  *F*      NAME: zbe$arith:a
                                         2  *,*
                                         3  *,*      PURPOSE*  MODULE CONTAINS THE AITHMETIC ROUTINES
                                         4  *,*                 TO DO THE ACTUAL ARITHMETIC OPERATIONS FOR THE
                                         5  *,*                 COMPILE TIME ARITHEMATIC. THE OPERATIONS
                                         6  *,*                 ARE PERFORMED ON BINARY INTEGER DATA..

 10:52 08/22/97  FILE=zbe$arith:a.:ZBC3TSI                                                               2    BMAP - B00
                                         7         EJECT
                                         8  *I*      NAME:          IARITH
                                         9  *        PURPOSE:       Fixed point arithmetic.
                                        10  *        DESCRIPTION:   Does fixed point arithmetic by cases and
                                        11  *                       Altrets on error.
                                        12  *        INPUT:         LEFT_OP$   ptr, left conspool constant.
                                        13  *                       RIGHT_OP$  ptr, right conspool constant.
                                        14  *                       OP_CODE    sbin, arithmetic operation.
                                        15  *        OUTPUT:        RESULT_OP$ ptr, result  constant
                                        16  *        CALL:          IARITH(RESULT_OP$,LEFT_OP,RIGHT_OP,OP_CODE);
                                        17  *                       RETURNED COMPLETION CODE: 0  - NO ERRORS
                                        18  *                                                 NON ZERO - OVERFLOW
                                        19  *
                                        20  *
                                        21           ENTDEF    IARITH
                                        22           ENTREF    X66_FARET
                                        23           ENTREF    X66_AUTO_4
                                        24
                                        25  *     EQUA VALUES FOR REGISTER STUFF
             000000000010               26  ZG_ARITH1_IND  EQU  8
             000000000011               27  ERROR_CODE    EQU  9
             000000000006               28  OP_CODE       EQU  6
             000000000004               29  LEFT_VAL      EQU  4
             000000000005               30  RIGHT_VAL     EQU  5
             000000000003               31  RESULT        EQU  3
                                        32
                                        33
                                        34
 0 000000                               35  IARITH   NULL
   000000 (0)000076 7070 00             36           TSX7      ISETPT         Arg pointer setup
   000001 (0)000071 7000 00             37           TSX0      SETOV          set overflow mask so no fault
   000002    2 00011 4501 00            38           STZ       ERROR_CODE,,2        initialize error code to 0.
   000003    2 00006 2351 00            39           LDA       6,,2
   000004    000010 1150 07             40           CMPA      8,DL           Do Case on op_code
   000005 (0)000007 6020 05             41           TNC       *+2,AL         this code is PL6's do case
   000006 (0)000006 7100 00             42           TRA       *              A >= 8 or A < 0
   000007 (0)000007 7100 00             43           TRA       *              A = 0
 10:52 08/22/97  FILE=zbe$arith:a.:ZBC3TSI                                                               3    BMAP - B00
   000010 (0)000017 7100 00             44           TRA       CASE1ADD       A = 1
   000011 (0)000037 7100 00             45           TRA       CASE1DIV       A = 2
   000012 (0)000012 7100 00             46           TRA       *              A = 3
   000013 (0)000031 7100 00             47           TRA       CASE1MUL       A = 4
   000014 (0)000024 7100 00             48           TRA       CASE1SUB       A = 5
   000015 (0)000044 7100 00             49           TRA       CASE1NEG       A = 6
   000016 (0)000102 7100 00             50           TRA       IDONE          A = 7
                                        51
   000017                               52  CASE1ADD NULL                     Integer add
   000017    2 00004 2351 00            53           LDA       4,,2                Left operand
   000020    2 00005 0751 00            54           ADA       5,,2                Right operand
   000021 (0)000065 6170 00             55           TOV       OVERFLOW1
   000022    3 00000 7551 00            56           STA       0,,3                Result
   000023 (0)000102 7100 00             57           TRA       IDONE
                                        58
   000024                               59  CASE1SUB NULL                     Integer subtract
   000024    2 00004 2351 00            60           LDA       4,,2
   000025    2 00005 1751 00            61           SBA       5,,2
   000026 (0)000065 6170 00             62           TOV       OVERFLOW1
   000027    3 00000 7551 00            63           STA       0,,3
   000030 (0)000102 7100 00             64           TRA       IDONE
                                        65
   000031                               66  CASE1MUL NULL                     Integer multiply
   000031    2 00004 2361 00            67           LDQ       4,,2                Left operand
   000032    2 00005 4021 00            68           MPY       5,,2                Right operand
   000033    000044 7370 00             69           LLS       36                  Carry set if result > 36 bits
   000034 (0)000065 6030 00             70           TRC       OVERFLOW1
   000035    3 00000 7551 00            71           STA       0,,3                Result
   000036 (0)000102 7100 00             72           TRA       IDONE
                                        73
   000037                               74  CASE1DIV NULL                     Integer division
   000037    2 00004 2361 00            75           LDQ       4,,2
   000040 (0)000051 7000 00             76           TSX0      DIV_CHK             Divide check test routine
   000041    2 00005 5061 00            77           DIV       5,,2
   000042    3 00000 7561 00            78           STQ       0,,3
   000043 (0)000102 7100 00             79           TRA       IDONE
                                        80
 10:52 08/22/97  FILE=zbe$arith:a.:ZBC3TSI                                                               4    BMAP - B00
   000044                               81  CASE1NEG NULL                     Integer negation
   000044    2 00004 2351 00            82           LDA       4,,2                Left operand
   000045    000000 5310 00             83           NEG
   000046 (0)000065 6170 00             84           TOV       OVERFLOW1
   000047    3 00000 7551 00            85           STA       0,,3                Result
   000050 (0)000102 7100 00             86           TRA       IDONE
                                        87
                                        88
   000051                               89  DIV_CHK  NULL
                                        90  *                                 Divide check occurs if dividend is
                                        91  *                                 -2**35 and divisor is 1,0,-1. 1 and
                                        92  *                                 -1 cases are treated as overflow.
   000051    2 00005 2351 00            93           LDA       5,,2           Load divisor.
   000052 (0)000067 6000 00             94           TZE       DIVIDE01       Divide by 0.
   000053    400000 1160 03             95           CMPQ      =O400000,DU    Max negative
   000054    000000 6010 10             96           TNZ       0,0            Return to divide, everything ok.
   000055    000001 1150 07             97           CMPA      1,DL           -2**35/1 causes divide check.
   000056 (0)000061 6010 00             98           TNZ       *+3
   000057    777777 2360 03             99           LDQ       -1,DU          Force indicator negative.
   000060 (0)000065 7100 00            100           TRA       OVERFLOW1
   000061 (1)000000 1150 00            101           CMPA      =-1            -2**35/-1 causes divide check.
   000062    000000 6010 10            102           TNZ       0,0            Return to divide everything ok.
   000063    777777 2360 03            103           LDQ       -1,DU          Force indicator negative.
   000064 (0)000065 7100 00            104           TRA       OVERFLOW1
                                       105
   000065                              106  OVERFLOW1 NULL                    Overflow
   000065    777777 2360 07            107           LDQ -1,DL         RETURN ERROR CODE OF NON ZERO
   000066  X 000000 7020 00            108           TSX2 X66_FARET
                                       109
                                       110
   000067                              111  DIVIDE01 NULL                     Divide by zero.
   000067    777777 2360 07            112           LDQ  -1,DL        RETURN ERROR CODE OF NON ZERO
   000070  X 000000 7020 00            113           TSX2  X66_FARET
                                       114
                                       115
                                       116

 10:52 08/22/97  FILE=zbe$arith:a.:ZBC3TSI                                                               5    BMAP - B00
                                       117         EJECT
                                       118  *      SET OVERFLOW MASK
   000071                              119  SETOV  NULL
   000071    2 00010 7541 00           120         STI      ZG_ARITH1_IND,,2
   000072    004000 2360 07            121         LDQ      =O004000,DL
   000073    2 00010 2561 00           122         ORSQ     ZG_ARITH1_IND,,2
   000074    2 00010 6341 00           123         LDI      ZG_ARITH1_IND,,2
   000075    000000 7100 10            124         TRA      0,0          RETURN TO THE CALLER
                                       125  *      Set-up pointers to args for IARITH,DARITH, and KARITH.
   000076                              126  ISETPT NULL
   000076  X 000000 7000 00            127         TSX0     X66_AUTO_4
   000077    000012 000004             128         ZERO     10,4
   000100    2 00003 4735 00           129         LDP3     3,,2
   000101    000000 7100 17            130         TRA      0,7          Local return
                                       131
                                       132
   000102                              133  IDONE  NULL
   000102    000000 2360 07            134         LDQ   0,DL
   000103  X 000000 7020 00            135         TSX2  X66_FARET
                                       136
                                       137         END
 1 000000    777777777777

  CONTROL SECTION TABLE

   0 CODE   EVEN  000104
   1 RODATA EVEN  000001 LITERALS

      20 SYMBOLS

       0 MACROS

    SYMBOL SPACE USED   159 WORDS
     MACRO SPACE USED     0 WORDS
   INPUT RECORDS READ   274
 STATEMENTS PROCESSED   111
         ELAPSED TIME  0:00.92
 10:52 08/22/97  FILE=zbe$arith:a.:ZBC3TSI                                                               6    BMAP - B00
             CPU TIME     0.59 SEC.
        ASSEMBLY RATE 11288 STATEMENTS/CPU MIN.

      NO ERRORS

