 XUX-00721-0  "zbk$.:ZBC3TOU" is not a valid SRCH account.
 XUX-00721-0  "zbk$.:ZBC3OU" is not a valid SRCH account.

PL6.E3A0      #001=ZB_CLOSE_OU_FILE File=zbk$ZB_CLOSE_OU_FILE:6.:ZBC3TSI         FRI 08/22/97 10:58 Page:1
        1        1        /*M* NAME:ZB_CLOSE_OU_FILE - ROUTINE CLOSES THE OU FILE FOR C O.U.OUTPUT
        2        2        */
        3        3        /*P*
        4        4              NAME: ZB_CLOSE_OU_FILE
        5        5              PURPOSE: This routine closes the o.u.s for C compilations.
        6        6              PL-6 routine.
        7        7        */
        8        8        ZB_CLOSE_OU_FILE: PROC ;
        9        9        %INCLUDE CP_6 ;
       10     5569        %INCLUDE CP_6_SUBS;
       11     6109        %F$DCB ;
       12     6166    1   DCL M$OU  DCB;
       13     6167
       14     6168        %FPT_CLOSE (FPTN = CLOSE_FPT,
       15     6169              STCLASS = CONSTANT);
       16     6211        %FPT_CLOSE (FPTN = CLOSE$FPT, STCLASS=AUTO);
       17     6253
       18     6254
       19     6255    1         CLOSE$FPT = CLOSE_FPT;
       20     6256    1         CLOSE$FPT.V_ = VECTOR(CLOSE$FPT.V);
       21     6257    1         CLOSE$FPT.V.DCB# = DCBNUM(M$OU) ;
       22     6258    1         CLOSE$FPT.V.DISP# = %SAVE# ;
       23     6259    1         CLOSE$FPT.V.OPER.RELG# = %YES#;
       24     6260
       25     6261    1         CALL M$CLOSE (CLOSE$FPT) ;
       26     6262
       27     6263
       28     6264    1         RETURN;
       29     6265    1   END  ZB_CLOSE_OU_FILE;
       30     6266

PL6.E3A0      #001=ZB_CLOSE_OU_FILE File=zbk$ZB_CLOSE_OU_FILE:6.:ZBC3TSI         FRI 08/22/97 10:58 Page:2
--  Include file information  --

   CP_6_SUBS.:LIBRARY  is referenced.
   CP_6_C.:LIBRARY  is referenced.
   CP_6.:LIBRARY  cannot be made into a system file and is referenced.
      No diagnostics issued in procedure ZB_CLOSE_OU_FILE.

   Procedure ZB_CLOSE_OU_FILE requires 21 words for executable code.
   Procedure ZB_CLOSE_OU_FILE requires 36 words of local(AUTO) storage.

    No errors detected in file zbk$ZB_CLOSE_OU_FILE:6.:ZBC3TSI    .

PL6.E3A0      #001=ZB_CLOSE_OU_FILE File=zbk$ZB_CLOSE_OU_FILE:6.:ZBC3TSI         FRI 08/22/97 10:58 Page:3
          *** CROSS REFERENCE LISTING ***
**     DENOTES     IDENTIFIER DEFINITION
<<                 IDENTIFIER'S VALUE SET
>>                 IDENTIFIER'S VALUE USED
<>                 IDENTIFIER SET AND/OR USED
--                 IDENTIFIER REFERENCED
PL6.E3A0      #001=ZB_CLOSE_OU_FILE File=zbk$ZB_CLOSE_OU_FILE:6.:ZBC3TSI         FRI 08/22/97 10:58 Page:4
          MINI XREF LISTING

CLOSE$FPT
      6234**DCL      6255<<ASSIGN   6261<>CALL
CLOSE$FPT.SN_
      6234**DCL      6234--REDEF
CLOSE$FPT.UTL_
      6235**DCL      6235--REDEF
CLOSE$FPT.V
      6239**DCL      6256--ASSIGN
CLOSE$FPT.V.DCB#
      6240**DCL      6257<<ASSIGN
CLOSE$FPT.V.DISP#
      6243**DCL      6258<<ASSIGN
CLOSE$FPT.V.EXPIRE#
      6249**DCL      6249--REDEF
CLOSE$FPT.V.OPER.RELG#
      6240**DCL      6259<<ASSIGN
CLOSE$FPT.V.TYPE#
      6247**DCL      6247--REDEF
CLOSE$FPT.V.XTNSIZE#
      6244**DCL      6244--REDEF    6246--REDEF
CLOSE$FPT.V_
      6234**DCL      6256<<ASSIGN
CLOSE_FPT
      6192**DCL      6255>>ASSIGN
CLOSE_FPT.SN_
      6192**DCL      6192--REDEF
CLOSE_FPT.UTL_
      6193**DCL      6193--REDEF
CLOSE_FPT.V
      6197**DCL      6192--DCLINIT
CLOSE_FPT.V.EXPIRE#
      6207**DCL      6207--REDEF
PL6.E3A0      #001=ZB_CLOSE_OU_FILE File=zbk$ZB_CLOSE_OU_FILE:6.:ZBC3TSI         FRI 08/22/97 10:58 Page:5
CLOSE_FPT.V.TYPE#
      6205**DCL      6205--REDEF
CLOSE_FPT.V.XTNSIZE#
      6202**DCL      6202--REDEF    6204--REDEF
F$DCB.ACTPOS
      6142**DCL      6142--REDEF
F$DCB.ARS#
      6116**DCL      6116--REDEF
F$DCB.ATTR
      6135**DCL      6136--REDEF
F$DCB.BORROW
      6150**DCL      6150--REDEF    6150--REDEF    6150--REDEF
F$DCB.DCBNAME.L
      6164**DCL      6164--IMP-SIZ
F$DCB.EOMCHAR#
      6120**DCL      6120--REDEF
F$DCB.FLDID
      6145**DCL      6145--REDEF
F$DCB.FORM$
      6139**DCL      6139--REDEF
F$DCB.FSECT
      6155**DCL      6155--REDEF
F$DCB.FSN#
      6132**DCL      6132--REDEF    6132--REDEF    6133--REDEF
F$DCB.HEADER$
      6138**DCL      6138--REDEF
F$DCB.IXTNSIZE#
      6136**DCL      6136--REDEF
F$DCB.LASTSTA$
      6125**DCL      6125--REDEF
F$DCB.LVL
      6151**DCL      6151--REDEF
F$DCB.NAME#.C
      6126**DCL      6126--REDEF
F$DCB.NOEOF
      6148**DCL      6148--REDEF
PL6.E3A0      #001=ZB_CLOSE_OU_FILE File=zbk$ZB_CLOSE_OU_FILE:6.:ZBC3TSI         FRI 08/22/97 10:58 Page:6
F$DCB.NRECS#
      6137**DCL      6137--REDEF
F$DCB.NRECX
      6156**DCL      6156--REDEF
F$DCB.OHDR
      6148**DCL      6148--REDEF
F$DCB.ORG#
      6131**DCL      6131--REDEF
F$DCB.PRECNO
      6154**DCL      6154--REDEF
F$DCB.RCSZ
      6160**DCL      6160--REDEF
F$DCB.RES#
      6127**DCL      6127--REDEF
F$DCB.SETX
      6139**DCL      6139--REDEF
F$DCB.TAB$
      6139**DCL      6139--REDEF
F$DCB.TDA
      6153**DCL      6154--REDEF
F$DCB.WSN#
      6127**DCL      6127--REDEF
M$CLOSE
      5497**DCL-ENT  6261--CALL
M$OU
      6166**DCL      6257>>ASSIGN
