 XUX-00721-0  "zbk$.:ZBC3TOU" is not a valid SRCH account.
 XUX-00721-0  "zbk$.:ZBC3OU" is not a valid SRCH account.

PL6.E3A0      #001=ZB_OPEN_OU_FILE File=zbk$ZB_OPEN_OU_FILE:6.:ZBC3TSI           FRI 08/22/97 10:57 Page:1
        1        1        /*M* NAME:ZB_OPEN_OU_FILE - ROUTINE OPENS THE OU FILE FOR C O.U.OUTPUT
        2        2        */
        3        3        /*P*
        4        4              NAME: ZB_OPEN_OU_FILE
        5        5              PURPOSE: This routine opens the o.u.s for C compilations.
        6        6              PL-6 routine.
        7        7        */
        8        8        ZB_OPEN_OU_FILE: PROC (NAME,DCB_NUM, DCBPTR$);
        9        9        %INCLUDE CP_6 ;
       10     5569        %INCLUDE CP_6_SUBS;
       11     6109        %F$DCB ;
       12     6166    1   DCL 1 NAME ,
       13     6167    1         2 LEN UBIN(9) UNAL,
       14     6168    1         2 TEXT CHAR(NAME.LEN);
       15     6169    1   DCL DCB_NUM UBIN;
       16     6170    1   DCL DCBPTR$ PTR;
       17     6171    1   DCL M$OU  DCB;
       18     6172    1   DCL 1 LOC_NAME,
       19     6173    1         2 LENGTH UBIN(9) UNAL,
       20     6174    1         2 TEXT CHAR(31);
       21     6175    1   DCL ACCT CHAR(8) ALIGNED;
       22     6176    1   DCL PASS CHAR(8) ALIGNED;
       23     6177    1   DCL WSN CHAR(8) ALIGNED;
       24     6178
       25     6179        %FPT_FID (SNAME = YES,SACCT=YES,SPASS=YES,SSN=YES,SWSN=YES,SRES=YES,
       26     6180                          STCLASS=CONSTANT);
       27     6203        %FPT_FID(FPTN=FPT$FID, STCLASS=);
       28     6226        %VLR_FID(STCLASS=);
       29     6245        %FPT_OPEN (FPTN = OPEN_FPT,
       30     6246              EXIST = NEWFILE,
       31     6247              DISP = NAMED,
       32     6248              STCLASS = CONSTANT);
       33     6357        %FPT_OPEN (FPTN = OPEN$FPT, STCLASS=);
       34     6466
       35     6467
       36     6468    1         OPEN$FPT = OPEN_FPT;
       37     6469    1         FPT$FID = FPT_FID;
PL6.E3A0      #001=ZB_OPEN_OU_FILE File=zbk$ZB_OPEN_OU_FILE:6.:ZBC3TSI           FRI 08/22/97 10:57 Page:2
       38     6470    1         FPT$FID.V_ = VECTOR(FPT$FID.V);
       39     6471    1         FPT$FID.TEXTFID_ = VECTOR(NAME.TEXT);
       40     6472    1         FPT$FID.NAME_ = VECTOR(LOC_NAME);
       41     6473    1         FPT$FID.ACCT_ = VECTOR(ACCT);
       42     6474    1         FPT$FID.PASS_ = VECTOR(PASS);
       43     6475    1         FPT$FID.WSN_ = VECTOR(WSN);
       44     6476    1         FPT$FID.ASN_= VECTOR(OPEN$FPT.V.ASN#);
       45     6477    1         FPT$FID.RES_= VECTOR(OPEN$FPT.V.RES#);
       46     6478    1         FPT$FID.RESULTS_ = VECTOR(VLR_FID);
       47     6479    1         CALL M$FID(FPT$FID);
       48     6480
       49     6481    1         OPEN$FPT.V_ = VECTOR(OPEN$FPT.V);
       50     6482    1         OPEN$FPT.V.DCB# = DCBNUM(M$OU) ;
       51     6483    1         OPEN$FPT.V.ORG# = %KEYED# ; /* KEYED */
       52     6484    1         OPEN$FPT.V.FUN# = %CREATE# ; /* CREATE  */
       53     6485    1         OPEN$FPT.V.TYPE# = 'Oc' ;/* C  TYPE OF O.U. FILE. */
       54     6486    1         OPEN$FPT.NAME_ = VECTOR(LOC_NAME) ;
       55     6487    1         OPEN$FPT.ACCT_ = VECTOR(ACCT);
       56     6488    1         OPEN$FPT.PASS_ = VECTOR(PASS);
       57     6489    1         OPEN$FPT.V.ACS# = %DIRECT# ; /* DIRECT */
       58     6490    1         OPEN$FPT.V.SETDCB# = '0'B ;
       59     6491
       60     6492    1         CALL M$OPEN (OPEN$FPT) ;
       61     6493
       62     6494    1         DCB_NUM = DCBNUM(M$OU) ;
       63     6495    1         DCBPTR$ = DCBADDR(DCBNUM(M$OU));
       64     6496
       65     6497    1         RETURN;
       66     6498    1   END  ZB_OPEN_OU_FILE;
       67     6499        %EOD;

PL6.E3A0      #001=ZB_OPEN_OU_FILE File=zbk$ZB_OPEN_OU_FILE:6.:ZBC3TSI           FRI 08/22/97 10:57 Page:3
--  Include file information  --

   CP_6_SUBS.:LIBRARY  is referenced.
   CP_6_C.:LIBRARY  is referenced.
   CP_6.:LIBRARY  cannot be made into a system file and is referenced.
      No diagnostics issued in procedure ZB_OPEN_OU_FILE.

   Procedure ZB_OPEN_OU_FILE requires 108 words for executable code.
   Procedure ZB_OPEN_OU_FILE requires 114 words of local(AUTO) storage.

PL6.E3A0      #001=ZB_OPEN_OU_FILE File=zbk$ZB_OPEN_OU_FILE:6.:ZBC3TSI           FRI 08/22/97 10:57 Page:4
          *** CROSS REFERENCE LISTING ***
**     DENOTES     IDENTIFIER DEFINITION
<<                 IDENTIFIER'S VALUE SET
>>                 IDENTIFIER'S VALUE USED
<>                 IDENTIFIER SET AND/OR USED
--                 IDENTIFIER REFERENCED
PL6.E3A0      #001=ZB_OPEN_OU_FILE File=zbk$ZB_OPEN_OU_FILE:6.:ZBC3TSI           FRI 08/22/97 10:57 Page:5
          MINI XREF LISTING

ACCT
      6175**DCL      6473--ASSIGN   6487--ASSIGN
DCBPTR$
      6170**DCL         8--PROC     6495<<ASSIGN
DCB_NUM
      6169**DCL         8--PROC     6494<<ASSIGN
F$DCB.ACTPOS
      6142**DCL      6142--REDEF
F$DCB.ARS#
      6116**DCL      6116--REDEF
F$DCB.ATTR
      6135**DCL      6136--REDEF
F$DCB.BORROW
      6150**DCL      6150--REDEF    6150--REDEF    6150--REDEF
F$DCB.DCBNAME.L
      6164**DCL      6164--IMP-SIZ
F$DCB.EOMCHAR#
      6120**DCL      6120--REDEF
F$DCB.FLDID
      6145**DCL      6145--REDEF
F$DCB.FORM$
      6139**DCL      6139--REDEF
F$DCB.FSECT
      6155**DCL      6155--REDEF
F$DCB.FSN#
      6132**DCL      6132--REDEF    6132--REDEF    6133--REDEF
F$DCB.HEADER$
      6138**DCL      6138--REDEF
F$DCB.IXTNSIZE#
      6136**DCL      6136--REDEF
F$DCB.LASTSTA$
      6125**DCL      6125--REDEF
PL6.E3A0      #001=ZB_OPEN_OU_FILE File=zbk$ZB_OPEN_OU_FILE:6.:ZBC3TSI           FRI 08/22/97 10:57 Page:6
F$DCB.LVL
      6151**DCL      6151--REDEF
F$DCB.NAME#.C
      6126**DCL      6126--REDEF
F$DCB.NOEOF
      6148**DCL      6148--REDEF
F$DCB.NRECS#
      6137**DCL      6137--REDEF
F$DCB.NRECX
      6156**DCL      6156--REDEF
F$DCB.OHDR
      6148**DCL      6148--REDEF
F$DCB.ORG#
      6131**DCL      6131--REDEF
F$DCB.PRECNO
      6154**DCL      6154--REDEF
F$DCB.RCSZ
      6160**DCL      6160--REDEF
F$DCB.RES#
      6127**DCL      6127--REDEF
F$DCB.SETX
      6139**DCL      6139--REDEF
F$DCB.TAB$
      6139**DCL      6139--REDEF
F$DCB.TDA
      6153**DCL      6154--REDEF
F$DCB.WSN#
      6127**DCL      6127--REDEF
FPT$FID
      6214**DCL      6469<<ASSIGN   6479<>CALL
FPT$FID.ACCT_
      6215**DCL      6473<<ASSIGN
FPT$FID.ASN_
      6217**DCL      6476<<ASSIGN
FPT$FID.NAME_
      6215**DCL      6472<<ASSIGN
PL6.E3A0      #001=ZB_OPEN_OU_FILE File=zbk$ZB_OPEN_OU_FILE:6.:ZBC3TSI           FRI 08/22/97 10:57 Page:7
FPT$FID.PASS_
      6215**DCL      6474<<ASSIGN
FPT$FID.RESULTS_
      6217**DCL      6478<<ASSIGN
FPT$FID.RES_
      6217**DCL      6477<<ASSIGN
FPT$FID.TEXTFID_
      6214**DCL      6471<<ASSIGN
FPT$FID.V
      6218**DCL      6470--ASSIGN
FPT$FID.V_
      6214**DCL      6470<<ASSIGN
FPT$FID.WSN_
      6216**DCL      6475<<ASSIGN
FPT_FID
      6191**DCL      6469>>ASSIGN
FPT_FID.V
      6195**DCL      6191--DCLINIT
LOC_NAME
      6172**DCL      6472--ASSIGN   6486--ASSIGN
M$FID
      5560**DCL-ENT  6479--CALL
M$OPEN
      5497**DCL-ENT  6492--CALL
M$OU
      6171**DCL      6482>>ASSIGN   6494>>ASSIGN   6495--ASSIGN
NAME
      6166**DCL         8--PROC
NAME.LEN
      6167**DCL      6168--IMP-SIZ  6471>>ASSIGN
NAME.TEXT
      6168**DCL      6471--ASSIGN
OPEN$FPT
      6422**DCL      6468<<ASSIGN   6492<>CALL
OPEN$FPT.ACCT_
      6426**DCL      6487<<ASSIGN
PL6.E3A0      #001=ZB_OPEN_OU_FILE File=zbk$ZB_OPEN_OU_FILE:6.:ZBC3TSI           FRI 08/22/97 10:57 Page:8
OPEN$FPT.ACSVEH_
      6424**DCL      6425--REDEF
OPEN$FPT.ALTKEYS_
      6430**DCL      6431--REDEF    6431--REDEF
OPEN$FPT.HDR_
      6429**DCL      6430--REDEF
OPEN$FPT.NAME_
      6423**DCL      6486<<ASSIGN
OPEN$FPT.PASS_
      6424**DCL      6488<<ASSIGN
OPEN$FPT.TAB_
      6428**DCL      6429--REDEF
OPEN$FPT.UHL_
      6422**DCL      6423--REDEF    6423--REDEF
OPEN$FPT.V
      6431**DCL      6481--ASSIGN
OPEN$FPT.V.ACS#
      6442**DCL      6489<<ASSIGN
OPEN$FPT.V.ASN#
      6441**DCL      6476--ASSIGN
OPEN$FPT.V.DCB#
      6431**DCL      6482<<ASSIGN
OPEN$FPT.V.FSN#
      6462**DCL      6462--REDEF    6462--REDEF
OPEN$FPT.V.FUN#
      6441**DCL      6484<<ASSIGN
OPEN$FPT.V.ORG#
      6442**DCL      6483<<ASSIGN
OPEN$FPT.V.RES#
      6446**DCL      6477--ASSIGN
OPEN$FPT.V.SETDCB#
      6432**DCL      6490<<ASSIGN
OPEN$FPT.V.TYPE#
      6443**DCL      6485<<ASSIGN
OPEN$FPT.V_
      6422**DCL      6481<<ASSIGN
PL6.E3A0      #001=ZB_OPEN_OU_FILE File=zbk$ZB_OPEN_OU_FILE:6.:ZBC3TSI           FRI 08/22/97 10:57 Page:9
OPEN$FPT.WSN_
      6428**DCL      6428--REDEF
OPEN_FPT
      6313**DCL      6468>>ASSIGN
OPEN_FPT.ACSVEH_
      6315**DCL      6316--REDEF
OPEN_FPT.ALTKEYS_
      6321**DCL      6322--REDEF    6322--REDEF
OPEN_FPT.HDR_
      6320**DCL      6321--REDEF
OPEN_FPT.TAB_
      6319**DCL      6320--REDEF
OPEN_FPT.UHL_
      6313**DCL      6314--REDEF    6314--REDEF
OPEN_FPT.V
      6322**DCL      6313--DCLINIT
OPEN_FPT.V.FSN#
      6353**DCL      6353--REDEF    6353--REDEF
OPEN_FPT.WSN_
      6319**DCL      6319--REDEF
PASS
      6176**DCL      6474--ASSIGN   6488--ASSIGN
VLR_FID
      6237**DCL      6478--ASSIGN
WSN
      6177**DCL      6475--ASSIGN

PL6.E3A0      #002=ZB_OPEN_OU_IMPLICIT File=zbk$ZB_OPEN_OU_FILE:6.:ZBC3TSI       FRI 08/22/97 10:58 Page:10
       68        1        ZB_OPEN_OU_IMPLICIT : PROC (DCB_NUM, DCBPTR$) ALTRET;
       69        2        %INCLUDE CP_6;
       70     5562
       71     5563    1   DCL DCB_NUM UBIN;
       72     5564    1   DCL DCBPTR$ PTR;
       73     5565    1   DCL   M$OU    DCB;
       74     5566
       75     5567    1   DCL XBI_SET_ERRNO ENTRY (1);
       76     5568
       77     5569        %FPT_OPEN(FPTN = OPEN_OU,
       78     5570                  STCLASS = "");
       79     5679        %FPT_OPEN(FPTN = OPEN_OU_CONST,
       80     5680                  STCLASS = CONSTANT,
       81     5681                  ORG = KEYED,
       82     5682                  TYPE = 'Oc',
       83     5683                  ACS = DIRECT,
       84     5684                  DCB = M$OU);
       85     5793
       86     5794    1   DCB_NUM = DCBNUM(M$OU) ;
       87     5795    1   DCBPTR$ = DCBADDR(DCBNUM(M$OU));
       88     5796
       89     5797    1   CALL M$OPEN(OPEN_OU_CONST)
       90     5798    2         WHENALTRETURN DO;
       91     5799    2            CALL XBI_SET_ERRNO();
       92     5800    2            ALTRETURN;
       93     5801    2         END;
       94     5802    1   RETURN;
       95     5803
       96     5804    1   END ZB_OPEN_OU_IMPLICIT;

PL6.E3A0      #002=ZB_OPEN_OU_IMPLICIT File=zbk$ZB_OPEN_OU_FILE:6.:ZBC3TSI       FRI 08/22/97 10:58 Page:11
--  Include file information  --

   CP_6_C.:LIBRARY  is referenced.
   CP_6.:LIBRARY  cannot be made into a system file and is referenced.
      No diagnostics issued in procedure ZB_OPEN_OU_IMPLICIT.

   Procedure ZB_OPEN_OU_IMPLICIT requires 21 words for executable code.
   Procedure ZB_OPEN_OU_IMPLICIT requires 64 words of local(AUTO) storage.

    No errors detected in file zbk$ZB_OPEN_OU_FILE:6.:ZBC3TSI    .

PL6.E3A0      #002=ZB_OPEN_OU_IMPLICIT File=zbk$ZB_OPEN_OU_FILE:6.:ZBC3TSI       FRI 08/22/97 10:58 Page:12
          *** CROSS REFERENCE LISTING ***
**     DENOTES     IDENTIFIER DEFINITION
<<                 IDENTIFIER'S VALUE SET
>>                 IDENTIFIER'S VALUE USED
<>                 IDENTIFIER SET AND/OR USED
--                 IDENTIFIER REFERENCED
PL6.E3A0      #002=ZB_OPEN_OU_IMPLICIT File=zbk$ZB_OPEN_OU_FILE:6.:ZBC3TSI       FRI 08/22/97 10:58 Page:13
          MINI XREF LISTING

DCBPTR$
      5564**DCL         1--PROC     5795<<ASSIGN
DCB_NUM
      5563**DCL         1--PROC     5794<<ASSIGN
M$OPEN
      5490**DCL-ENT  5797--CALL
M$OU
      5565**DCL      5794>>ASSIGN   5795--ASSIGN
OPEN_OU.ACSVEH_
      5637**DCL      5638--REDEF
OPEN_OU.ALTKEYS_
      5643**DCL      5644--REDEF    5644--REDEF
OPEN_OU.HDR_
      5642**DCL      5643--REDEF
OPEN_OU.TAB_
      5641**DCL      5642--REDEF
OPEN_OU.UHL_
      5635**DCL      5636--REDEF    5636--REDEF
OPEN_OU.V.FSN#
      5675**DCL      5675--REDEF    5675--REDEF
OPEN_OU.WSN_
      5641**DCL      5641--REDEF
OPEN_OU_CONST
      5749**DCL      5797<>CALL
OPEN_OU_CONST.ACSVEH_
      5751**DCL      5752--REDEF
OPEN_OU_CONST.ALTKEYS_
      5757**DCL      5758--REDEF    5758--REDEF
OPEN_OU_CONST.HDR_
      5756**DCL      5757--REDEF
OPEN_OU_CONST.TAB_
      5755**DCL      5756--REDEF
PL6.E3A0      #002=ZB_OPEN_OU_IMPLICIT File=zbk$ZB_OPEN_OU_FILE:6.:ZBC3TSI       FRI 08/22/97 10:58 Page:14
OPEN_OU_CONST.UHL_
      5749**DCL      5750--REDEF    5750--REDEF
OPEN_OU_CONST.V
      5758**DCL      5749--DCLINIT
OPEN_OU_CONST.V.FSN#
      5789**DCL      5789--REDEF    5789--REDEF
OPEN_OU_CONST.WSN_
      5755**DCL      5755--REDEF
XBI_SET_ERRNO
      5567**DCL-ENT  5799--CALL
