

CC.C03    File=zbl$LLgen:c.:ZBC3TOU                                                 Fri Aug 22 1997  Page=1
        1         1             /* LLgen generated code from source zbl$LLgen:c.:ZBC3TOU */
        2         2             /* $Header: incl,v 2.2 87/02/16 21:35:40 ceriel Exp $ */
        3         3             #ifdef LL_DEBUG
        4         4   *S*       #define LL_assert(x) if(!(x)) LL_badassertion("x",__FILE__,__LINE__)
        5         5   *S*       #else
        6         6             #define LL_assert(x)  /* nothing */
        7         7             #endif
        8         8
        9         9             extern int LLsymb;
       10        10             extern char LLsets[];
       11        11
       12        12             #define LL_SAFE(x) /* Nothing */
       13        13             #define LL_SSCANDONE(x)  if (LLsymb != x) LLerror(x); else
       14        14             #define LL_SCANDONE(x)   if (LLsymb != x) LLerror(x); else
       15        15             #define LL_T_NOSCANDONE(x)  LLscan(x)
       16        16
       17        17             # include "Lpars:h"
       18        18
       19        19             extern unsigned int LLscnt[];
       20        20             extern unsigned int LLtcnt[];
       21        21             extern int LLcsymb;
       22        22             extern int LL_symb;
       23        23
       24        24             #define LLsdecr(d) {LL_assert(LLscnt[d] > 0); LLscnt[d]--;}
       25        25             #define LLtdecr(d) {LL_assert(LLtcnt[d] > 0); LLtcnt[d]--;}
       26        26             #define LLsincr(d) LLscnt[d]++
       27        27             #define LLtincr(d) LLtcnt[d]++
       28        28
       29        29             # line 21 "zbl$LLgen:g.:ZBC3TOU"
       30        30
       31        31             # include "types:h"
       32        32             # include "io:h"
       33        33             # include "extern:h"
       34        34             # include "assert:h"
       35        35             # include "cclass:h"
       36        36
       37        37             # ifndef NORCSID
CC.C03    File=zbl$LLgen:c.:ZBC3TOU                                                 Fri Aug 22 1997  Page=2
       38        38             static string   rcsid = "$Header: LLgen.g,v 2.5 87/03/16 08:56:31 ceriel Exp $
                               ";
       39        39             # endif
       40        40             p_mem     alloc(), new_mem();
       41        41             string    store();
       42        42             p_gram    search();
       43        43
       44        44             static int   nparams;
       45        45             static int   acount;
       46        46             static t_info   term_info = {0, 0, 0, 0, 0, 0};
       47        47             static t_info   link_info = {0, 0, 0, 0, 0, 0};
       48        48             static p_order  order,
       49        49                 maxorder;
       50        50
       51        51
       52        52             extern    a_init();
       53        53             STATIC p_order  neworder();
       54        54             STATIC    copyact();
       55        55             STATIC    mkalt();
       56        56             STATIC    mkterm();
       57        57             STATIC p_gram   copyrule();
       58        58
       59        59
       60        60             a_init() {
       61        61    1         term_info.i_esize = sizeof (t_term);
       62        62    1         term_info.i_incr = 100;
       63        63    1         link_info.i_esize = sizeof (t_link);
       64        64    1         link_info.i_incr = 100;
       65        65    1         name_init();
       66        66    1        }
       67        67
       68        68             STATIC p_order
       69        69             neworder(index) {
       70        70    1         register p_order po;
       71        71    1
       72        72    1         if ((po = order) == maxorder) {
       73        73    2            po = (p_order) alloc(20 * sizeof(*order));
CC.C03    File=zbl$LLgen:c.:ZBC3TOU                                                 Fri Aug 22 1997  Page=3
       74        74    2            maxorder = po + 20;
       75        75    2         }
       76        76    1         order = po + 1;
       77        77    1         po->o_next = 0;
       78        78    1         po->o_index = index;
       79        79    1         if (porder) {
       80        80    2            porder->o_next = po;
       81        81    2         }
       82        82    1         else  sorder = po;
       83        83    1         return po;
       84        84    1        }
       85        85             L0_spec (
       86        86             ) {
       87        87    1        LLsincr(0);
       88        88    1        # line 80 "zbl$LLgen:g.:ZBC3TOU"
       89        89    1        {  acount = 0; }
       90        90    1        for (;;) {
       91        91    2        L_1 : switch(LLcsymb) {
       92        92    3        case /*  EOFILE  */ 0 : ;
       93        93    3        break;
       94        94    3        default:{int LL_1=LLnext(0);
       95        95    4        ;if (!LL_1) {
       96        96    5        break;
       97        97    5        }
       98        98    4        else if (LL_1 & 1) goto L_1;}
       99        99    3        case /*  C_IDENT  */ 1 : ;
      100       100    3        case /*  C_TOKEN  */ 4 : ;
      101       101    3        case /*  C_START  */ 5 : ;
      102       102    3        case /*  C_FIRST  */ 9 : ;
      103       103    3        case /*  C_LEXICAL  */ 10 : ;
      104       104    3        case /*  C_ONERROR  */ 11 : ;
      105       105    3        case /* '{' */ 18 : ;
      106       106    3        case /* '}' */ 19 : ;
      107       107    3        L1_def(
      108       108    3        );
      109       109    3        LLread();
      110       110    3        continue;
CC.C03    File=zbl$LLgen:c.:ZBC3TOU                                                 Fri Aug 22 1997  Page=4
      111       111    3        }
      112       112    2        LLsdecr(0);
      113       113    2        break;
      114       114    2        }
      115       115    1        # line 82 "zbl$LLgen:g.:ZBC3TOU"
      116       116    1        {
      117       117    2
      118       118    2
      119       119    2                  putc('\0', fact);
      120       120    2                  putc('\0', fact);
      121       121    2               }
      122       122    1        }
      123       123             L1_def (
      124       124             ) {
      125       125    1        # line 90 "zbl$LLgen:g.:ZBC3TOU"
      126       126    1          register string p;
      127       127    1        switch(LLcsymb) {
      128       128    2        case /*  C_IDENT  */ 1 : ;
      129       129    2        L2_rule(
      130       130    2        );
      131       131    2        break;
      132       132    2        case /*  C_TOKEN  */ 4 : ;
      133       133    2        LLtincr(15);
      134       134    2        LLtincr(16);
      135       135    2        LL_SAFE(C_TOKEN);
      136       136    2        L3_listel(
      137       137    2        );
      138       138    2        LLread();
      139       139    2        for (;;) {
      140       140    3        L_4 : switch(LLcsymb) {
      141       141    4        case /* ';' */ 16 : ;
      142       142    4        break;
      143       143    4        default:{int LL_2=LLnext(44);
      144       144    5        ;if (!LL_2) {
      145       145    6        break;
      146       146    6        }
      147       147    5        else if (LL_2 & 1) goto L_4;}
CC.C03    File=zbl$LLgen:c.:ZBC3TOU                                                 Fri Aug 22 1997  Page=5
      148       148    4        case /* ',' */ 15 : ;
      149       149    4        LL_SAFE(',');
      150       150    4        L3_listel(
      151       151    4        );
      152       152    4        LLread();
      153       153    4        continue;
      154       154    4        }
      155       155    3        LLtdecr(15);
      156       156    3        break;
      157       157    3        }
      158       158    2        LLtdecr(16);
      159       159    2        LL_SSCANDONE(';');
      160       160    2        break;
      161       161    2        case /*  C_START  */ 5 : ;
      162       162    2        LLtincr(15);
      163       163    2        LLtincr(1);
      164       164    2        LLtincr(16);
      165       165    2        LL_SAFE(C_START);
      166       166    2        LL_T_NOSCANDONE(C_IDENT);
      167       167    2        # line 100 "zbl$LLgen:g.:ZBC3TOU"
      168       168    2        {  p = store(lextoken.t_string); }
      169       169    2        LLtdecr(15);
      170       170    2        LL_T_NOSCANDONE(',');
      171       171    2        LLtdecr(1);
      172       172    2        LL_T_NOSCANDONE(C_IDENT);
      173       173    2        LLtdecr(16);
      174       174    2        LL_T_NOSCANDONE(';');
      175       175    2        # line 105 "zbl$LLgen:g.:ZBC3TOU"
      176       176    2        {
      177       177    3
      178       178    3
      179       179    3
      180       180    3                  register p_gram temp;
      181       181    3                  register p_start ff;
      182       182    3
      183       183    3                  temp = search(NONTERM,lextoken.t_string,BOTH);
      184       184    3                  ff = (p_start) alloc(sizeof(t_start));
CC.C03    File=zbl$LLgen:c.:ZBC3TOU                                                 Fri Aug 22 1997  Page=6
      185       185    3                  ff->ff_nont = g_getnont(temp);
      186       186    3                  ff->ff_name = p;
      187       187    3                  ff->ff_next = start;
      188       188    3                  start = ff;
      189       189    3               }
      190       190    2        break;
      191       191    2        case /*  C_LEXICAL  */ 10 : ;
      192       192    2        LLtincr(16);
      193       193    2        LL_SAFE(C_LEXICAL);
      194       194    2        LL_T_NOSCANDONE(C_IDENT);
      195       195    2        # line 124 "zbl$LLgen:g.:ZBC3TOU"
      196       196    2        {  if (!lexical) {
      197       197    4                     lexical = store(lextoken.t_string);
      198       198    4                  }
      199       199    3                  else  error(linecount,"Duplicate %%lexical");
      200       200    3               }
      201       201    2        LLtdecr(16);
      202       202    2        LL_T_NOSCANDONE(';');
      203       203    2        break;
      204       204    2        case /*  C_ONERROR  */ 11 : ;
      205       205    2        LLtincr(16);
      206       206    2        LL_SAFE(C_ONERROR);
      207       207    2        LL_T_NOSCANDONE(C_IDENT);
      208       208    2        # line 131 "zbl$LLgen:g.:ZBC3TOU"
      209       209    2        {  if (! onerror) {
      210       210    4                     onerror = store(lextoken.t_string);
      211       211    4                  }
      212       212    3                  else  error(linecount,"Duplicate %%onerror");
      213       213    3               }
      214       214    2        LLtdecr(16);
      215       215    2        LL_T_NOSCANDONE(';');
      216       216    2        break;
      217       217    2        default:
      218       218    2        L4_action(
      219       219    2        # line 137 "zbl$LLgen:g.:ZBC3TOU"
      220       220    2        0);
      221       221    2        # line 137 "zbl$LLgen:g.:ZBC3TOU"
CC.C03    File=zbl$LLgen:c.:ZBC3TOU                                                 Fri Aug 22 1997  Page=7
      222       222    2        {  acount++; }
      223       223    2        break;
      224       224    2        case /*  C_FIRST  */ 9 : ;
      225       225    2        L5_firsts(
      226       226    2        );
      227       227    2        break;
      228       228    2        }
      229       229    1        }
      230       230             L3_listel (
      231       231             ) {
      232       232    1        LL_T_NOSCANDONE(C_IDENT);
      233       233    1        # line 147 "zbl$LLgen:g.:ZBC3TOU"
      234       234    1        {  search(TERMINAL,lextoken.t_string,ENTERING); }
      235       235    1        }
      236       236             L2_rule (
      237       237             ) {
      238       238    1        # line 150 "zbl$LLgen:g.:ZBC3TOU"
      239       239    1          register p_nont p;
      240       240    1                  p_gram rr;
      241       241    1                  register p_gram temp;
      242       242    1
      243       243    1        LLtincr(23);
      244       244    1        LLtincr(18);
      245       245    1        LLtincr(17);
      246       246    1        LLsincr(1);
      247       247    1        LLtincr(16);
      248       248    1        LL_SAFE(C_IDENT);
      249       249    1        # line 157 "zbl$LLgen:g.:ZBC3TOU"
      250       250    1        {  temp = search(NONTERM,lextoken.t_string,BOTH);
      251       251    2                  p = &nonterms[g_getnont(temp)];
      252       252    2                  if (p->n_rule) {
      253       253    3                     error(linecount,
      254       254    3        "nonterminal %s already defined", lextoken.t_string);
      255       255    3                  }
      256       256    2
      257       257    2
      258       258    2
CC.C03    File=zbl$LLgen:c.:ZBC3TOU                                                 Fri Aug 22 1997  Page=8
      259       259    2
      260       260    2
      261       261    2
      262       262    2                  porder = neworder(p - nonterms);
      263       263    2                  p->n_count = acount;
      264       264    2                  acount = 0;
      265       265    2                  p->n_lineno = linecount;
      266       266    2               }
      267       267    1        LLread();
      268       268    1        L_1 : switch(LLcsymb) {
      269       269    2        case /* ':' */ 17 : ;
      270       270    2        case /* '{' */ 18 : ;
      271       271    2        LLtdecr(23);
      272       272    2        break;
      273       273    2        default:{int LL_3=LLnext(40);
      274       274    3        ;if (!LL_3) {
      275       275    4        LLtdecr(23);
      276       276    4        break;
      277       277    4        }
      278       278    3        else if (LL_3 & 1) goto L_1;}
      279       279    2        case /* '(' */ 23 : ;
      280       280    2        LLtdecr(23);
      281       281    2        L6_params(
      282       282    2        # line 174 "zbl$LLgen:g.:ZBC3TOU"
      283       283    2        2);
      284       284    2        # line 174 "zbl$LLgen:g.:ZBC3TOU"
      285       285    2        {  p->n_flags |= PARAMS;
      286       286    3                  if (nparams > 15) {
      287       287    4                     error(linecount,"Too many parameters");
      288       288    4                  }
      289       289    3                  else  setntparams(p,nparams);
      290       290    3               }
      291       291    2        LLread();
      292       292    2        }
      293       293    1        L_2 : switch(LLcsymb) {
      294       294    2        case /* ':' */ 17 : ;
      295       295    2        LLtdecr(18);
CC.C03    File=zbl$LLgen:c.:ZBC3TOU                                                 Fri Aug 22 1997  Page=9
      296       296    2        break;
      297       297    2        default:{int LL_4=LLnext(123);
      298       298    3        ;if (!LL_4) {
      299       299    4        LLtdecr(18);
      300       300    4        break;
      301       301    4        }
      302       302    3        else if (LL_4 & 1) goto L_2;}
      303       303    2        case /* '{' */ 18 : ;
      304       304    2        LLtdecr(18);
      305       305    2        L4_action(
      306       306    2        # line 181 "zbl$LLgen:g.:ZBC3TOU"
      307       307    2        0);
      308       308    2        # line 181 "zbl$LLgen:g.:ZBC3TOU"
      309       309    2        {  p->n_flags |= LOCALS; }
      310       310    2        LLread();
      311       311    2        }
      312       312    1        LLtdecr(17);
      313       313    1        LL_SCANDONE(':');
      314       314    1        LLread();
      315       315    1        LLsdecr(1);
      316       316    1        L7_productions(
      317       317    1        # line 183 "zbl$LLgen:g.:ZBC3TOU"
      318       318    1        &rr);
      319       319    1        LLtdecr(16);
      320       320    1        LL_SCANDONE(';');
      321       321    1        # line 188 "zbl$LLgen:g.:ZBC3TOU"
      322       322    1        {  nonterms[g_getnont(temp)].n_rule = rr;}
      323       323    1        }
      324       324             L4_action (
      325       325             # line 191 "zbl$LLgen:g.:ZBC3TOU"
      326       326              n) int n; {
      327       327    1        LL_SSCANDONE('{');
      328       328    1        # line 196 "zbl$LLgen:g.:ZBC3TOU"
      329       329    1        {  copyact('{','}',n,0); }
      330       330    1        LL_T_NOSCANDONE('}');
      331       331    1        }
      332       332             L7_productions (
CC.C03    File=zbl$LLgen:c.:ZBC3TOU                                                 Fri Aug 22 1997  Page=10
      333       333             # line 200 "zbl$LLgen:g.:ZBC3TOU"
      334       334              p) p_gram *p; {
      335       335    1        # line 204 "zbl$LLgen:g.:ZBC3TOU"
      336       336    1          p_gram      prod;
      337       337    1            int      conflres = 0;
      338       338    1            int      t = 0;
      339       339    1            int      haddefault = 0;
      340       340    1            t_gram      alts[100];
      341       341    1            register p_gram   p_alts = alts;
      342       342    1            int      o_lc, n_lc;
      343       343    1
      344       344    1        LLtincr(20);
      345       345    1        # line 212 "zbl$LLgen:g.:ZBC3TOU"
      346       346    1        {  o_lc = linecount; }
      347       347    1        L8_simpleproduction(
      348       348    1        # line 213 "zbl$LLgen:g.:ZBC3TOU"
      349       349    1        p,&conflres);
      350       350    1        # line 214 "zbl$LLgen:g.:ZBC3TOU"
      351       351    1        {  if (conflres & DEF) haddefault = 1; }
      352       352    1        L_2:
      353       353    1        switch(LLcsymb) {
      354       354    2        case /* '|' */ 20 : ;
      355       355    2        LLtdecr(20);
      356       356    2        LLsincr(1);
      357       357    2        LLsdecr(1);
      358       358    2        LLtincr(20);
      359       359    2        for (;;) {
      360       360    3        LL_SAFE('|');
      361       361    3        # line 216 "zbl$LLgen:g.:ZBC3TOU"
      362       362    3        {  n_lc = linecount; }
      363       363    3        LLread();
      364       364    3        L8_simpleproduction(
      365       365    3        # line 217 "zbl$LLgen:g.:ZBC3TOU"
      366       366    3        &prod,&t);
      367       367    3        # line 218 "zbl$LLgen:g.:ZBC3TOU"
      368       368    3        {  if (p_alts - alts >= 97) {
      369       369    5                     error(n_lc,"Too many alternatives");
CC.C03    File=zbl$LLgen:c.:ZBC3TOU                                                 Fri Aug 22 1997  Page=11
      370       370    5                     p_alts = alts;
      371       371    5                  }
      372       372    4                  if (t & DEF) {
      373       373    5                     if (haddefault) {
      374       374    6                        error(n_lc,
      375       375    6            "More than one %%default in alternation");
      376       376    6                     }
      377       377    5                     haddefault = 1;
      378       378    5                  }
      379       379    4                  mkalt(*p,conflres,o_lc,p_alts++);
      380       380    4                  o_lc = n_lc;
      381       381    4                  conflres = t;
      382       382    4                  t = 0;
      383       383    4                  *p = prod;
      384       384    4               }
      385       385    3        L_4 : switch(LLcsymb) {
      386       386    4        case /* ';' */ 16 : ;
      387       387    4        case /* ']' */ 22 : ;
      388       388    4        break;
      389       389    4        default:{int LL_5=LLnext(124);
      390       390    5        ;if (!LL_5) {
      391       391    6        break;
      392       392    6        }
      393       393    5        else if (LL_5 & 1) goto L_4;}
      394       394    4        case /* '|' */ 20 : ;
      395       395    4        continue;
      396       396    4        }
      397       397    3        LLtdecr(20);
      398       398    3        break;
      399       399    3        }
      400       400    2        # line 235 "zbl$LLgen:g.:ZBC3TOU"
      401       401    2        {  if (conflres & ~DEF) {
      402       402    4                     error(n_lc,
      403       403    4            "Resolver on last alternative not allowed");
      404       404    4                  }
      405       405    3                  mkalt(*p,conflres,n_lc,p_alts++);
      406       406    3                  g_settype(p_alts,EORULE);
CC.C03    File=zbl$LLgen:c.:ZBC3TOU                                                 Fri Aug 22 1997  Page=12
      407       407    3                  *p = copyrule(alts,p_alts+1-alts);
      408       408    3               }
      409       409    2        break;
      410       410    2        default: if (LLskip()) goto L_2;
      411       411    2        goto L_3;
      412       412    2        case /* ';' */ 16 : ;
      413       413    2        case /* ']' */ 22 : ;
      414       414    2        L_3: ;
      415       415    2        LLtdecr(20);
      416       416    2        # line 244 "zbl$LLgen:g.:ZBC3TOU"
      417       417    2        {  if (conflres & ~DEF) {
      418       418    4                     error(o_lc,
      419       419    4            "No alternation conflict resolver allowed here");
      420       420    4                  }
      421       421    3
      422       422    3
      423       423    3
      424       424    3
      425       425    3
      426       426    3
      427       427    3               }
      428       428    2        break;
      429       429    2        }
      430       430    1        }
      431       431             # line 257 "zbl$LLgen:g.:ZBC3TOU"
      432       432
      433       433
      434       434             STATIC
      435       435             mkalt(prod,condition,lc,res) p_gram prod; register p_gram res; {
      436       436    1
      437       437    1
      438       438    1
      439       439    1         register int      hulp;
      440       440    1         register p_link      l;
      441       441    1
      442       442    1         l = (p_link) new_mem(&link_info);
      443       443    1         links = (p_link) link_info.i_ptr;
CC.C03    File=zbl$LLgen:c.:ZBC3TOU                                                 Fri Aug 22 1997  Page=13
      444       444    1         hulp = l - links;
      445       445    1         l->l_rule = prod;
      446       446    1         l->l_flag = condition;
      447       447    1         g_setcont(res,hulp);
      448       448    1         g_settype(res,ALTERNATION);
      449       449    1         res->g_lineno = lc;
      450       450    1        }
      451       451             L8_simpleproduction (
      452       452             # line 278 "zbl$LLgen:g.:ZBC3TOU"
      453       453              p,conflres) p_gram *p; register int *conflres; {
      454       454    1        # line 279 "zbl$LLgen:g.:ZBC3TOU"
      455       455    1          t_gram      rule[100];
      456       456    1            t_gram      elem;
      457       457    1            register p_gram   p_rule = rule;
      458       458    1            int      cnt, kind;
      459       459    1
      460       460    1        LLtincr(14);
      461       461    1        LLsincr(2);
      462       462    1        LLsincr(3);
      463       463    1        L_1 : switch(LLcsymb) {
      464       464    2        case /*  C_IDENT  */ 1 : ;
      465       465    2        case /*  C_LITERAL  */ 3 : ;
      466       466    2        case /*  C_IF  */ 6 : ;
      467       467    2        case /*  C_AVOID  */ 12 : ;
      468       468    2        case /*  C_PREFER  */ 13 : ;
      469       469    2        case /* ';' */ 16 : ;
      470       470    2        case /* '{' */ 18 : ;
      471       471    2        case /* '|' */ 20 : ;
      472       472    2        case /* '[' */ 21 : ;
      473       473    2        case /* ']' */ 22 : ;
      474       474    2        LLtdecr(14);
      475       475    2        break;
      476       476    2        default:{int LL_6=LLnext(270);
      477       477    3        ;if (!LL_6) {
      478       478    4        LLtdecr(14);
      479       479    4        break;
      480       480    4        }
CC.C03    File=zbl$LLgen:c.:ZBC3TOU                                                 Fri Aug 22 1997  Page=14
      481       481    3        else if (LL_6 & 1) goto L_1;}
      482       482    2        case /*  C_DEFAULT  */ 14 : ;
      483       483    2        LLtdecr(14);
      484       484    2        LL_SAFE(C_DEFAULT);
      485       485    2        # line 284 "zbl$LLgen:g.:ZBC3TOU"
      486       486    2        {  *conflres = DEF; }
      487       487    2        LLread();
      488       488    2        }
      489       489    1        L_2 : switch(LLcsymb) {
      490       490    2        case /*  C_IDENT  */ 1 : ;
      491       491    2        case /*  C_LITERAL  */ 3 : ;
      492       492    2        case /* ';' */ 16 : ;
      493       493    2        case /* '{' */ 18 : ;
      494       494    2        case /* '|' */ 20 : ;
      495       495    2        case /* '[' */ 21 : ;
      496       496    2        case /* ']' */ 22 : ;
      497       497    2        LLsdecr(2);
      498       498    2        break;
      499       499    2        default:{int LL_7=LLnext(-8);
      500       500    3        ;if (!LL_7) {
      501       501    4        LLsdecr(2);
      502       502    4        break;
      503       503    4        }
      504       504    3        else if (LL_7 & 1) goto L_2;}
      505       505    2        case /*  C_IF  */ 6 : ;
      506       506    2        case /*  C_AVOID  */ 12 : ;
      507       507    2        case /*  C_PREFER  */ 13 : ;
      508       508    2        LLsdecr(2);
      509       509    2        switch(LLcsymb) {
      510       510    3        case /*  C_IF  */ 6 : ;
      511       511    3        LL_SAFE(C_IF);
      512       512    3        L9_expr(
      513       513    3        );
      514       514    3        # line 290 "zbl$LLgen:g.:ZBC3TOU"
      515       515    3        {  *conflres |= COND; }
      516       516    3        break;
      517       517    3        case /*  C_PREFER  */ 13 : ;
CC.C03    File=zbl$LLgen:c.:ZBC3TOU                                                 Fri Aug 22 1997  Page=15
      518       518    3        LL_SAFE(C_PREFER);
      519       519    3        # line 291 "zbl$LLgen:g.:ZBC3TOU"
      520       520    3        {  *conflres |= PREFERING; }
      521       521    3        break;
      522       522    3        default:
      523       523    3        LL_SAFE(C_AVOID);
      524       524    3        # line 292 "zbl$LLgen:g.:ZBC3TOU"
      525       525    3        {  *conflres |= AVOIDING; }
      526       526    3        break;
      527       527    3        }
      528       528    2        LLread();
      529       529    2        }
      530       530    1        for (;;) {
      531       531    2        L_6 : switch(LLcsymb) {
      532       532    3        case /* ';' */ 16 : ;
      533       533    3        case /* '|' */ 20 : ;
      534       534    3        case /* ']' */ 22 : ;
      535       535    3        break;
      536       536    3        default:{int LL_8=LLnext(-12);
      537       537    4        ;if (!LL_8) {
      538       538    5        break;
      539       539    5        }
      540       540    4        else if (LL_8 & 1) goto L_6;}
      541       541    3        case /*  C_IDENT  */ 1 : ;
      542       542    3        case /*  C_NUMBER  */ 2 : ;
      543       543    3        case /*  C_LITERAL  */ 3 : ;
      544       544    3        case /* '{' */ 18 : ;
      545       545    3        case /* '[' */ 21 : ;
      546       546    3        case /* '?' */ 25 : ;
      547       547    3        case /* '*' */ 26 : ;
      548       548    3        case /* '+' */ 27 : ;
      549       549    3        LLsincr(4);
      550       550    3        L10_elem(
      551       551    3        # line 294 "zbl$LLgen:g.:ZBC3TOU"
      552       552    3        &elem);
      553       553    3        # line 295 "zbl$LLgen:g.:ZBC3TOU"
      554       554    3        {  if (p_rule - rule >= 98) {
CC.C03    File=zbl$LLgen:c.:ZBC3TOU                                                 Fri Aug 22 1997  Page=16
      555       555    5                     error(linecount,"Production too long");
      556       556    5                     p_rule = rule;
      557       557    5                  }
      558       558    4                  kind = FIXED;
      559       559    4                  cnt = 0;
      560       560    4               }
      561       561    3        L_7 : switch(LLcsymb) {
      562       562    4        case /*  C_IDENT  */ 1 : ;
      563       563    4        case /*  C_LITERAL  */ 3 : ;
      564       564    4        case /* ';' */ 16 : ;
      565       565    4        case /* '{' */ 18 : ;
      566       566    4        case /* '|' */ 20 : ;
      567       567    4        case /* '[' */ 21 : ;
      568       568    4        case /* ']' */ 22 : ;
      569       569    4        LLsdecr(4);
      570       570    4        break;
      571       571    4        default:{int LL_9=LLnext(-16);
      572       572    5        ;if (!LL_9) {
      573       573    6        LLsdecr(4);
      574       574    6        break;
      575       575    6        }
      576       576    5        else if (LL_9 & 1) goto L_7;}
      577       577    4        case /*  C_NUMBER  */ 2 : ;
      578       578    4        case /* '?' */ 25 : ;
      579       579    4        case /* '*' */ 26 : ;
      580       580    4        case /* '+' */ 27 : ;
      581       581    4        LLsdecr(4);
      582       582    4        L11_repeats(
      583       583    4        # line 302 "zbl$LLgen:g.:ZBC3TOU"
      584       584    4        &kind, &cnt);
      585       585    4        # line 303 "zbl$LLgen:g.:ZBC3TOU"
      586       586    4        {  if (g_gettype(&elem) != TERM) {
      587       587    6                     *p_rule = elem;
      588       588    6                     g_settype(p_rule+1,EORULE);
      589       589    6                     mkterm(copyrule(p_rule,2),
      590       590    6                            0,
      591       591    6                            p_rule->g_lineno,
CC.C03    File=zbl$LLgen:c.:ZBC3TOU                                                 Fri Aug 22 1997  Page=17
      592       592    6                            &elem);
      593       593    6                  }
      594       594    5               }
      595       595    4        }
      596       596    3        # line 312 "zbl$LLgen:g.:ZBC3TOU"
      597       597    3        {  if (g_gettype(&elem) == TERM) {
      598       598    5                     register p_term q;
      599       599    5
      600       600    5                     q = &terms[g_getcont(&elem)];
      601       601    5                     r_setkind(q,kind);
      602       602    5                     r_setnum(q,cnt);
      603       603    5                     if ((q->t_flags & RESOLVER) &&
      604       604    5                         (kind == PLUS || kind == FIXED)) {
      605       605    6                        error(linecount,
      606       606    6            "%%while not allowed in this term");
      607       607    6                     }
      608       608    5
      609       609    5
      610       610    5
      611       611    5
      612       612    5
      613       613    5
      614       614    5
      615       615    5
      616       616    5
      617       617    5
      618       618    5                  }
      619       619    4                  *p_rule++ = elem;
      620       620    4               }
      621       621    3        continue;
      622       622    3        }
      623       623    2        LLsdecr(3);
      624       624    2        break;
      625       625    2        }
      626       626    1        # line 336 "zbl$LLgen:g.:ZBC3TOU"
      627       627    1        {  register p_term q;
      628       628    2
CC.C03    File=zbl$LLgen:c.:ZBC3TOU                                                 Fri Aug 22 1997  Page=18
      629       629    2                  g_settype(p_rule,EORULE);
      630       630    2                  *p = 0;
      631       631    2                  if (g_gettype(&rule[0]) == TERM &&
      632       632    2                      p_rule-rule == 1) {
      633       633    3                        q = &terms[g_getcont(&rule[0])];
      634       634    3                     if (r_getkind(q) == FIXED &&
      635       635    3                         r_getnum(q) == 0) {
      636       636    4                           *p = q->t_rule;
      637       637    4                     }
      638       638    3                  }
      639       639    2                  if (!*p) *p = copyrule(rule,p_rule-rule+1);
      640       640    2               }
      641       641    1        }
      642       642             # line 351 "zbl$LLgen:g.:ZBC3TOU"
      643       643
      644       644
      645       645             STATIC
      646       646             mkterm(prod,flags,lc, result) p_gram prod; register p_gram result; {
      647       647    1
      648       648    1
      649       649    1
      650       650    1
      651       651    1         register p_term      q;
      652       652    1         unsigned    hulp;
      653       653    1
      654       654    1         q = (p_term) new_mem(&term_info);
      655       655    1         terms = (p_term) term_info.i_ptr;
      656       656    1         hulp = q - terms;
      657       657    1         q->t_rule = prod;
      658       658    1         q->t_contains = 0;
      659       659    1         q->t_flags = flags;
      660       660    1         g_settype(result,TERM);
      661       661    1         g_setcont(result,hulp);
      662       662    1         result->g_lineno = lc;
      663       663    1        }
      664       664             L10_elem (
      665       665             # line 374 "zbl$LLgen:g.:ZBC3TOU"
CC.C03    File=zbl$LLgen:c.:ZBC3TOU                                                 Fri Aug 22 1997  Page=19
      666       666              pres) register p_gram pres; {
      667       667    1        # line 375 "zbl$LLgen:g.:ZBC3TOU"
      668       668    1          register short t = 0;
      669       669    1            p_gram      p1;
      670       670    1            int      ln;
      671       671    1            p_gram      pe;
      672       672    1
      673       673    1        switch(LLcsymb) {
      674       674    2        case /* '[' */ 21 : ;
      675       675    2        LLtincr(7);
      676       676    2        LLtincr(8);
      677       677    2        LLsincr(1);
      678       678    2        LLtincr(22);
      679       679    2        LL_SAFE('[');
      680       680    2        # line 380 "zbl$LLgen:g.:ZBC3TOU"
      681       681    2        {  ln = linecount; }
      682       682    2        LLread();
      683       683    2        L_4 : switch(LLcsymb) {
      684       684    3        case /*  C_IDENT  */ 1 : ;
      685       685    3        case /*  C_LITERAL  */ 3 : ;
      686       686    3        case /*  C_IF  */ 6 : ;
      687       687    3        case /*  C_PERSISTENT  */ 8 : ;
      688       688    3        case /*  C_AVOID  */ 12 : ;
      689       689    3        case /*  C_PREFER  */ 13 : ;
      690       690    3        case /*  C_DEFAULT  */ 14 : ;
      691       691    3        case /* '{' */ 18 : ;
      692       692    3        case /* '|' */ 20 : ;
      693       693    3        case /* '[' */ 21 : ;
      694       694    3        case /* ']' */ 22 : ;
      695       695    3        LLtdecr(7);
      696       696    3        break;
      697       697    3        default:{int LL_10=LLnext(263);
      698       698    4        ;if (!LL_10) {
      699       699    5        LLtdecr(7);
      700       700    5        break;
      701       701    5        }
      702       702    4        else if (LL_10 & 1) goto L_4;}
CC.C03    File=zbl$LLgen:c.:ZBC3TOU                                                 Fri Aug 22 1997  Page=20
      703       703    3        case /*  C_WHILE  */ 7 : ;
      704       704    3        LLtdecr(7);
      705       705    3        LL_SAFE(C_WHILE);
      706       706    3        L9_expr(
      707       707    3        );
      708       708    3        # line 381 "zbl$LLgen:g.:ZBC3TOU"
      709       709    3        {  t |= RESOLVER; }
      710       710    3        LLread();
      711       711    3        }
      712       712    2        L_5 : switch(LLcsymb) {
      713       713    3        case /*  C_IDENT  */ 1 : ;
      714       714    3        case /*  C_LITERAL  */ 3 : ;
      715       715    3        case /*  C_IF  */ 6 : ;
      716       716    3        case /*  C_AVOID  */ 12 : ;
      717       717    3        case /*  C_PREFER  */ 13 : ;
      718       718    3        case /*  C_DEFAULT  */ 14 : ;
      719       719    3        case /* '{' */ 18 : ;
      720       720    3        case /* '|' */ 20 : ;
      721       721    3        case /* '[' */ 21 : ;
      722       722    3        case /* ']' */ 22 : ;
      723       723    3        LLtdecr(8);
      724       724    3        break;
      725       725    3        default:{int LL_11=LLnext(264);
      726       726    4        ;if (!LL_11) {
      727       727    5        LLtdecr(8);
      728       728    5        break;
      729       729    5        }
      730       730    4        else if (LL_11 & 1) goto L_5;}
      731       731    3        case /*  C_PERSISTENT  */ 8 : ;
      732       732    3        LLtdecr(8);
      733       733    3        LL_SAFE(C_PERSISTENT);
      734       734    3        # line 383 "zbl$LLgen:g.:ZBC3TOU"
      735       735    3        {  t |= PERSISTENT; }
      736       736    3        LLread();
      737       737    3        }
      738       738    2        LLsdecr(1);
      739       739    2        L7_productions(
CC.C03    File=zbl$LLgen:c.:ZBC3TOU                                                 Fri Aug 22 1997  Page=21
      740       740    2        # line 385 "zbl$LLgen:g.:ZBC3TOU"
      741       741    2        &p1);
      742       742    2        LLtdecr(22);
      743       743    2        LL_SCANDONE(']');
      744       744    2        # line 386 "zbl$LLgen:g.:ZBC3TOU"
      745       745    2        {
      746       746    3                  mkterm(p1,t,ln,pres);
      747       747    3               }
      748       748    2        LLread();
      749       749    2        break;
      750       750    2        case /*  C_IDENT  */ 1 : ;
      751       751    2        LLtincr(23);
      752       752    2        LL_SAFE(C_IDENT);
      753       753    2        # line 390 "zbl$LLgen:g.:ZBC3TOU"
      754       754    2        {  pe = search(UNKNOWN,lextoken.t_string,BOTH);
      755       755    3                  *pres = *pe;
      756       756    3               }
      757       757    2        LLread();
      758       758    2        L_6 : switch(LLcsymb) {
      759       759    3        case /*  C_IDENT  */ 1 : ;
      760       760    3        case /*  C_NUMBER  */ 2 : ;
      761       761    3        case /*  C_LITERAL  */ 3 : ;
      762       762    3        case /* ';' */ 16 : ;
      763       763    3        case /* '{' */ 18 : ;
      764       764    3        case /* '|' */ 20 : ;
      765       765    3        case /* '[' */ 21 : ;
      766       766    3        case /* ']' */ 22 : ;
      767       767    3        case /* '?' */ 25 : ;
      768       768    3        case /* '*' */ 26 : ;
      769       769    3        case /* '+' */ 27 : ;
      770       770    3        LLtdecr(23);
      771       771    3        break;
      772       772    3        default:{int LL_12=LLnext(40);
      773       773    4        ;if (!LL_12) {
      774       774    5        LLtdecr(23);
      775       775    5        break;
      776       776    5        }
CC.C03    File=zbl$LLgen:c.:ZBC3TOU                                                 Fri Aug 22 1997  Page=22
      777       777    4        else if (LL_12 & 1) goto L_6;}
      778       778    3        case /* '(' */ 23 : ;
      779       779    3        LLtdecr(23);
      780       780    3        L6_params(
      781       781    3        # line 393 "zbl$LLgen:g.:ZBC3TOU"
      782       782    3        0);
      783       783    3        # line 393 "zbl$LLgen:g.:ZBC3TOU"
      784       784    3        {  if (nparams > 14) {
      785       785    5                     error(linecount,"Too many parameters");
      786       786    5                  } else   g_setnpar(pres,nparams+1);
      787       787    4                  if (g_gettype(pres) == TERMINAL) {
      788       788    5                     error(linecount,
      789       789    5                        "Terminal with parameters");
      790       790    5                  }
      791       791    4               }
      792       792    3        LLread();
      793       793    3        }
      794       794    2        break;
      795       795    2        default:
      796       796    2        LL_SSCANDONE(C_LITERAL);
      797       797    2        # line 402 "zbl$LLgen:g.:ZBC3TOU"
      798       798    2        {  pe = search(LITERAL,lextoken.t_string,BOTH);
      799       799    3                  *pres = *pe;
      800       800    3               }
      801       801    2        LLread();
      802       802    2        break;
      803       803    2        case /* '{' */ 18 : ;
      804       804    2        # line 405 "zbl$LLgen:g.:ZBC3TOU"
      805       805    2        {  g_settype(pres,ACTION);
      806       806    3                  pres->g_lineno = linecount;
      807       807    3               }
      808       808    2        L4_action(
      809       809    2        # line 408 "zbl$LLgen:g.:ZBC3TOU"
      810       810    2        1);
      811       811    2        LLread();
      812       812    2        break;
      813       813    2        }
CC.C03    File=zbl$LLgen:c.:ZBC3TOU                                                 Fri Aug 22 1997  Page=23
      814       814    1        }
      815       815             L6_params (
      816       816             # line 411 "zbl$LLgen:g.:ZBC3TOU"
      817       817              n) int n; {
      818       818    1        LL_SAFE('(');
      819       819    1        # line 412 "zbl$LLgen:g.:ZBC3TOU"
      820       820    1        {  copyact('(',')',n,0); }
      821       821    1        LL_T_NOSCANDONE(')');
      822       822    1        }
      823       823             L9_expr (
      824       824             ) {
      825       825    1        LLtincr(24);
      826       826    1        LL_T_NOSCANDONE('(');
      827       827    1        # line 416 "zbl$LLgen:g.:ZBC3TOU"
      828       828    1        {  copyact('(',')',1,0); }
      829       829    1        LLtdecr(24);
      830       830    1        LL_T_NOSCANDONE(')');
      831       831    1        }
      832       832             L11_repeats (
      833       833             # line 420 "zbl$LLgen:g.:ZBC3TOU"
      834       834              kind,cnt) int *kind, *cnt; {
      835       835    1        # line 420 "zbl$LLgen:g.:ZBC3TOU"
      836       836    1          int t1 = 0;
      837       837    1        switch(LLcsymb) {
      838       838    2        case /* '?' */ 25 : ;
      839       839    2        LL_SAFE('?');
      840       840    2        # line 422 "zbl$LLgen:g.:ZBC3TOU"
      841       841    2        {  *kind = OPT; }
      842       842    2        LLread();
      843       843    2        break;
      844       844    2        case /* '*' */ 26 : ;
      845       845    2        case /* '+' */ 27 : ;
      846       846    2        LLtincr(2);
      847       847    2        switch(LLcsymb) {
      848       848    3        default:
      849       849    3        LL_SAFE('*');
      850       850    3        # line 423 "zbl$LLgen:g.:ZBC3TOU"
CC.C03    File=zbl$LLgen:c.:ZBC3TOU                                                 Fri Aug 22 1997  Page=24
      851       851    3        {  *kind = STAR; }
      852       852    3        break;
      853       853    3        case /* '+' */ 27 : ;
      854       854    3        LL_SAFE('+');
      855       855    3        # line 424 "zbl$LLgen:g.:ZBC3TOU"
      856       856    3        {  *kind = PLUS; }
      857       857    3        break;
      858       858    3        }
      859       859    2        LLread();
      860       860    2        L_7 : switch(LLcsymb) {
      861       861    3        case /*  C_IDENT  */ 1 : ;
      862       862    3        case /*  C_LITERAL  */ 3 : ;
      863       863    3        case /* ';' */ 16 : ;
      864       864    3        case /* '{' */ 18 : ;
      865       865    3        case /* '|' */ 20 : ;
      866       866    3        case /* '[' */ 21 : ;
      867       867    3        case /* ']' */ 22 : ;
      868       868    3        LLtdecr(2);
      869       869    3        break;
      870       870    3        default:{int LL_13=LLnext(258);
      871       871    4        ;if (!LL_13) {
      872       872    5        LLtdecr(2);
      873       873    5        break;
      874       874    5        }
      875       875    4        else if (LL_13 & 1) goto L_7;}
      876       876    3        case /*  C_NUMBER  */ 2 : ;
      877       877    3        LLtdecr(2);
      878       878    3        L12_number(
      879       879    3        # line 426 "zbl$LLgen:g.:ZBC3TOU"
      880       880    3        &t1);
      881       881    3        LLread();
      882       882    3        }
      883       883    2        # line 427 "zbl$LLgen:g.:ZBC3TOU"
      884       884    2        {  if (t1 == 1) {
      885       885    4                     t1 = 0;
      886       886    4                     if (*kind == STAR) *kind = OPT;
      887       887    4                     if (*kind == PLUS) *kind = FIXED;
CC.C03    File=zbl$LLgen:c.:ZBC3TOU                                                 Fri Aug 22 1997  Page=25
      888       888    4                  }
      889       889    3               }
      890       890    2        break;
      891       891    2        default:
      892       892    2        L12_number(
      893       893    2        # line 433 "zbl$LLgen:g.:ZBC3TOU"
      894       894    2        &t1);
      895       895    2        LLread();
      896       896    2        break;
      897       897    2        }
      898       898    1        # line 434 "zbl$LLgen:g.:ZBC3TOU"
      899       899    1        {  *cnt = t1; }
      900       900    1        }
      901       901             L12_number (
      902       902             # line 437 "zbl$LLgen:g.:ZBC3TOU"
      903       903              t) int *t; {
      904       904    1        LL_SAFE(C_NUMBER);
      905       905    1        # line 439 "zbl$LLgen:g.:ZBC3TOU"
      906       906    1        {  *t = lextoken.t_num;
      907       907    2                  if (*t <= 0 || *t >= 8192) {
      908       908    3                     error(linecount,"Illegal number");
      909       909    3                  }
      910       910    2               }
      911       911    1        }
      912       912             L5_firsts (
      913       913             ) {
      914       914    1        # line 446 "zbl$LLgen:g.:ZBC3TOU"
      915       915    1          register string p;
      916       916    1        LLtincr(15);
      917       917    1        LLtincr(1);
      918       918    1        LLtincr(16);
      919       919    1        LL_SAFE(C_FIRST);
      920       920    1        LL_T_NOSCANDONE(C_IDENT);
      921       921    1        # line 448 "zbl$LLgen:g.:ZBC3TOU"
      922       922    1        {  p = store(lextoken.t_string); }
      923       923    1        LLtdecr(15);
      924       924    1        LL_T_NOSCANDONE(',');
CC.C03    File=zbl$LLgen:c.:ZBC3TOU                                                 Fri Aug 22 1997  Page=26
      925       925    1        LLtdecr(1);
      926       926    1        LL_T_NOSCANDONE(C_IDENT);
      927       927    1        LLtdecr(16);
      928       928    1        LL_T_NOSCANDONE(';');
      929       929    1        # line 450 "zbl$LLgen:g.:ZBC3TOU"
      930       930    1        {
      931       931    2
      932       932    2
      933       933    2
      934       934    2                  p_gram temp;
      935       935    2                  register p_first ff;
      936       936    2
      937       937    2                  temp = search(NONTERM,lextoken.t_string,BOTH);
      938       938    2                  ff = (p_first) alloc(sizeof(t_first));
      939       939    2                  ff->ff_nont = g_getnont(temp);
      940       940    2                  ff->ff_name = p;
      941       941    2                  ff->ff_next = pfile->f_firsts;
      942       942    2                  pfile->f_firsts = ff;
      943       943    2               }
      944       944    1        }
      945       945
      946       946             # line 465 "zbl$LLgen:g.:ZBC3TOU"
      947       947
      948       948
      949       949             STATIC
      950       950             copyact(ch1,ch2,flag,level) char ch1,ch2; {
      951       951    1
      952       952    1
      953       953    1
      954       954    1
      955       955    1
      956       956    1
      957       957    1
      958       958    1         register FILE *f;
      959       959    1         register ch;
      960       960    1         register match;
      961       961    1         int      saved;
CC.C03    File=zbl$LLgen:c.:ZBC3TOU                                                 Fri Aug 22 1997  Page=27
      962       962    1         int      semicolon = 0;
      963       963    1
      964       964    1         f = fact;
      965       965    1         if (!level) {
      966       966    2            saved = linecount;
      967       967    2            nparams = 0;
      968       968    2            putc('\0',f);
      969       969    2            fprintf(f,"# line %d \"%s\"\n", linecount,f_input);
      970       970    2         }
      971       971    1         if (level || flag == 1) putc(ch1,f);
      972       972    1         for (;;) {
      973       973    2            ch = input();
      974       974    2            if (ch == ch2) {
      975       975    3               if (!level) unput(ch);
      976       976    3               if (level || flag == 1) putc(ch,f);
      977       977    3               if ((!level) && flag == 2 && !semicolon) {
      978       978    4                  error(linecount,"missing ';'");
      979       979    4               }
      980       980    3               return;
      981       981    3            }
      982       982    2            if (c_class[ch] != ISSPA) semicolon = 0;
      983       983    2            switch(ch) {
      984       984    3              case ')':
      985       985    3              case '}':
      986       986    3              case ']':
      987       987    3               error(linecount,"Parentheses mismatch");
      988       988    3               break;
      989       989    3              case '(':
      990       990    3               copyact('(',')',flag,level+1);
      991       991    3               continue;
      992       992    3              case '{':
      993       993    3               copyact('{','}',flag,level+1);
      994       994    3               continue;
      995       995    3              case '[':
      996       996    3               copyact('[',']',flag,level+1);
      997       997    3               continue;
      998       998    3              case '/':
CC.C03    File=zbl$LLgen:c.:ZBC3TOU                                                 Fri Aug 22 1997  Page=28
      999       999    3               ch = input();
     1000      1000    3               unput(ch);
     1001      1001    3               if (ch == '*') {
     1002      1002    4                  skipcomment(1);
     1003      1003    4                  continue;
     1004      1004    4               }
     1005      1005    3               ch = '/';
     1006      1006    3               break;
     1007      1007    3              case ';':
     1008      1008    3               semicolon = 1;
     1009      1009    3
     1010      1010    3              case ',':
     1011      1011    3               if (!level) {
     1012      1012    4
     1013      1013    4
     1014      1014    4
     1015      1015    4                  nparams++;
     1016      1016    4               }
     1017      1017    3               break;
     1018      1018    3              case '\'':
     1019      1019    3              case '"' :
     1020      1020    3
     1021      1021    3
     1022      1022    3
     1023      1023    3
     1024      1024    3               match = ch;
     1025      1025    3               putc(ch,f);
     1026      1026    3               while((ch = input())) {
     1027      1027    4                  if (ch == match) break;
     1028      1028    4                  if (ch == '\\') {
     1029      1029    5                     putc(ch,f);
     1030      1030    5                     ch = input();
     1031      1031    5                  }
     1032      1032    4                  if (ch == '\n') {
     1033      1033    5                     error(linecount,"newline in string");
     1034      1034    5                     unput(match);
     1035      1035    5                  }
CC.C03    File=zbl$LLgen:c.:ZBC3TOU                                                 Fri Aug 22 1997  Page=29
     1036      1036    4                  putc(ch,f);
     1037      1037    4               }
     1038      1038    3               if (ch == match) break;
     1039      1039    3
     1040      1040    3                case EOF :
     1041      1041    3               if (!level) error(saved,"Action does not terminate");
     1042      1042    3               return;
     1043      1043    3            }
     1044      1044    2            putc(ch,f);
     1045      1045    2         }
     1046      1046    1        }
     1047      1047
     1048      1048             STATIC p_gram
     1049      1049             copyrule(p,length) register p_gram p; {
     1050      1050    1
     1051      1051    1
     1052      1052    1
     1053      1053    1
     1054      1054    1         register p_gram t;
     1055      1055    1         p_gram rule;
     1056      1056    1
     1057      1057    1         t = (p_gram) alloc((unsigned) length * sizeof(t_gram));
     1058      1058    1         rule = t;
     1059      1059    1         while (length--) {
     1060      1060    2            *t++ = *p++;
     1061      1061    2         }
     1062      1062    1         return rule;
     1063      1063    1        }
     1064      1064
---  Include file information  ---

   zbl$Lpars:h.:ZBC3TOU. is referenced
   zbl$types:h.:ZBC3TOU. is referenced
   zbl$io:h.:ZBC3TOU. is referenced
   stdio:h.:LIB_E05. is referenced
   zbl$extern:h.:ZBC3TOU. is referenced
   zbl$assert:h.:ZBC3TOU. is referenced
CC.C03    File=zbl$LLgen:c.:ZBC3TOU                                                 Fri Aug 22 1997  Page=30
   zbl$cclass:h.:ZBC3TOU. is referenced

No diagnostics were issued in the file zbl$LLgen:c.:ZBC3TOU
