

CC.C03    File=zbn$cgg:c.:ZBC3TOU                                                   Fri Aug 22 1997  Page=1
        1         1
        2         2             /*  A Bison parser, made from zbn$cgg:y.:ZBC3TSI  */
        3         3
        4         4             #define	PROPERTIES	258
        5         5             #define	REGISTERS	259
        6         6             #define	TOKENS	260
        7         7             #define	SETS	261
        8         8             #define	MOVES	262
        9         9             #define	TESTS	263
       10        10             #define	STACKINGRULES	264
       11        11             #define	COERCIONS	265
       12        12             #define	INSTRUCTIONS	266
       13        13             #define	PROC	267
       14        14             #define	CALL	268
       15        15             #define	EXAMPLE	269
       16        16             #define	FROM	270
       17        17             #define	TO	271
       18        18             #define	TEST	272
       19        19             #define	MOVE	273
       20        20             #define	STACK	274
       21        21             #define	RETURN	275
       22        22             #define	PATTERNS	276
       23        23             #define	PAT	277
       24        24             #define	WITH	278
       25        25             #define	EXACT	279
       26        26             #define	KILLS	280
       27        27             #define	USES	281
       28        28             #define	REUSING	282
       29        29             #define	GEN	283
       30        30             #define	YIELDS	284
       31        31             #define	LEAVING	285
       32        32             #define	DEFINED	286
       33        33             #define	SAMESIGN	287
       34        34             #define	SFIT	288
       35        35             #define	UFIT	289
       36        36             #define	ROM	290
       37        37             #define	LOWW	291
CC.C03    File=zbn$cgg:c.:ZBC3TOU                                                   Fri Aug 22 1997  Page=2
       38        38             #define	HIGHW	292
       39        39             #define	GET_NAME_OFFSET	293
       40        40             #define	GET_NAME	294
       41        41             #define	GET_ADDR	295
       42        42             #define	GET_TEMP	296
       43        43             #define	ADDR_TEMP	297
       44        44             #define	CMPEQ	298
       45        45             #define	CMPNE	299
       46        46             #define	CMPLT	300
       47        47             #define	CMPGT	301
       48        48             #define	CMPLE	302
       49        49             #define	CMPGE	303
       50        50             #define	OR2	304
       51        51             #define	AND2	305
       52        52             #define	LSHIFT	306
       53        53             #define	RSHIFT	307
       54        54             #define	NOT	308
       55        55             #define	COMP	309
       56        56             #define	INREG	310
       57        57             #define	REGVAR	311
       58        58             #define	REG_ANY	312
       59        59             #define	REG_FLOAT	313
       60        60             #define	REG_LOOP	314
       61        61             #define	REG_POINTER	315
       62        62             #define	ADORNACCESS	316
       63        63             #define	ADORNCC	317
       64        64             #define	INT	318
       65        65             #define	ADDR	319
       66        66             #define	EMMNEM	320
       67        67             #define	NUMBER	321
       68        68             #define	DOLLAR	322
       69        69             #define	PERCENT	323
       70        70             #define	ALLREG	324
       71        71             #define	IDENT	325
       72        72             #define	PERC_IDENT	326
       73        73             #define	STRING	327
       74        74             #define	TIMEFACTOR	328
CC.C03    File=zbn$cgg:c.:ZBC3TOU                                                   Fri Aug 22 1997  Page=3
       75        75             #define	SIZEFACTOR	329
       76        76             #define	COST	330
       77        77             #define	UMINUS	331
       78        78
       79        79             #line 5 "zbn$cgg:y.:ZBC3TSI"
       80        80
       81        81             #ifndef NORCSID
       82        82             static char rcsid[]= "$Header: cgg.y,v 0.10 87/03/09 18:56:53 ceriel Exp $";
       83        83             #endif
       84        84
       85        85             #include "param:h"
       86        86             #include "varinfo:h"
       87        87             #include "lookup:h"
       88        88             #include "set:h"
       89        89             #include "iocc:h"
       90        90             #include "instruct:h"
       91        91             #include "expr:h"
       92        92             #include "extern:h"
       93        93             #include <cgg_cg:h>
       94        94             #include <em_reg:h>
       95        95
       96        96             extern int lineno;
       97        97             int instline,saveline;
       98        98             int startline;
       99        99             int npatterns;
      100       100             int att_type;
      101       101             int patindex[MAXPATTERNS];
      102       102             extern set_t l_sets[];
      103       103
      104       104             int emhere=0;   /* lexical analyzer flag */
      105       105             int optexact=0; /* Inside "with exact" rule */
      106       106             int optstack=0; /* Inside with <blah> STACK rule */
      107       107             int saferulefound=0;
      108       108             int maxempatlen=0;
      109       109             int maxrule=0;
      110       110             struct varinfo *defcost = 0;
      111       111             int Xstackflag=0; /* set in coercions, moves, and tests. %1 means something
CC.C03    File=zbn$cgg:c.:ZBC3TOU                                                   Fri Aug 22 1997  Page=4
      112       112                      different then.
      113       113                    */
      114       114
      115       115             struct varinfo *gen_inst(),*gen_move(),*gen_test(),*gen_preturn(),*gen_tlab();

      116       116             struct varinfo *make_erase();
      117       117             extern struct varinfo null_varinfo;
      118       118             extern struct operand null_operand;
      119       119             expr_t make_expr(),ident_expr(),subreg_expr(),tokm_expr(),all_expr();
      120       120             expr_t perc_ident_expr(),sum_expr(),regvar_expr();
      121       121             expr_t  make_get_name_expr(), make_get_nameoffs_expr();
      122       122
      123       123             set_t ident_to_set(),setproduct(),setsum(),setdiff();
      124       124
      125       125             iocc_t subr_iocc(),tokm_iocc(),ident_iocc(),all_iocc(),percident_iocc(), descr
                               _iocc();
      126       126
      127       127             extern int narexpr;
      128       128             extern expr_t arexp[];
      129       129
      130       130             int niops;
      131       131             iocc_t iops[20];
      132       132
      133       133             #line 59 "zbn$cgg:y.:ZBC3TSI"
      134       134             typedef union {
      135       135    1         int yy_int;
      136       136    1         char * yy_str;
      137       137    1         struct varinfo *yy_varinfo;
      138       138    1         set_t yy_set;
      139       139    1         struct operand *yy_oplist;
      140       140    1         expr_t yy_expr;
      141       141    1         iocc_t yy_iocc;
      142       142    1        } YYSTYPE;
      143       143
      144       144             #ifndef YYLTYPE
      145       145             typedef
      146       146               struct yyltype
CC.C03    File=zbn$cgg:c.:ZBC3TOU                                                   Fri Aug 22 1997  Page=5
      147       147                 {
      148       148    1              int timestamp;
      149       149    1              int first_line;
      150       150    1              int first_column;
      151       151    1              int last_line;
      152       152    1              int last_column;
      153       153    1              char *text;
      154       154    1           }
      155       155               yyltype;
      156       156
      157       157             #define YYLTYPE yyltype
      158       158             #endif
      159       159
      160       160             #include <stdio.h>
      161       161
      162       162             #ifndef __STDC__
      163       163   *S*       #define const
      164       164   *S*       #endif
      165       165
      166       166
      167       167
      168       168             #define	YYFINAL		493
      169       169             #define	YYFLAG		-32768
      170       170             #define	YYNTBASE	96
      171       171
      172       172             #define YYTRANSLATE(x) ((unsigned)(x) <= 331 ? yytranslate[x] : 225)
      173       173
      174       174             static const char yytranslate[] = {     0,
      175       175    1             2,     2,     2,     2,     2,     2,     2,     2,     2,     2,
      176       176    1             2,     2,     2,     2,     2,     2,     2,     2,     2,     2,
      177       177    1             2,     2,     2,     2,     2,     2,     2,     2,     2,     2,
      178       178    1             2,     2,     2,     2,     2,     2,    83,    78,     2,    86,
      179       179    1            87,    81,    79,    93,    80,    89,    82,     2,     2,     2,
      180       180    1             2,     2,     2,     2,     2,     2,     2,    88,    92,     2,
      181       181    1            85,     2,     2,     2,     2,     2,     2,     2,     2,     2,
      182       182    1             2,     2,     2,     2,     2,     2,     2,     2,     2,     2,
      183       183    1             2,     2,     2,     2,     2,     2,     2,     2,     2,     2,
CC.C03    File=zbn$cgg:c.:ZBC3TOU                                                   Fri Aug 22 1997  Page=6
      184       184    1            94,     2,    95,    77,     2,     2,     2,     2,     2,     2,
      185       185    1             2,     2,     2,     2,     2,     2,     2,     2,     2,     2,
      186       186    1             2,     2,     2,     2,     2,     2,     2,     2,     2,     2,
      187       187    1             2,     2,    90,    76,    91,     2,     2,     2,     2,     2,
      188       188    1             2,     2,     2,     2,     2,     2,     2,     2,     2,     2,
      189       189    1             2,     2,     2,     2,     2,     2,     2,     2,     2,     2,
      190       190    1             2,     2,     2,     2,     2,     2,     2,     2,     2,     2,
      191       191    1             2,     2,     2,     2,     2,     2,     2,     2,     2,     2,
      192       192    1             2,     2,     2,     2,     2,     2,     2,     2,     2,     2,
      193       193    1             2,     2,     2,     2,     2,     2,     2,     2,     2,     2,
      194       194    1             2,     2,     2,     2,     2,     2,     2,     2,     2,     2,
      195       195    1             2,     2,     2,     2,     2,     2,     2,     2,     2,     2,
      196       196    1             2,     2,     2,     2,     2,     2,     2,     2,     2,     2,
      197       197    1             2,     2,     2,     2,     2,     2,     2,     2,     2,     2,
      198       198    1             2,     2,     2,     2,     2,     2,     2,     2,     2,     2,
      199       199    1             2,     2,     2,     2,     2,     2,     2,     2,     2,     2,
      200       200    1             2,     2,     2,     2,     2,     1,     2,     3,     4,     5,
      201       201    1             6,     7,     8,     9,    10,    11,    12,    13,    14,    15,
      202       202    1            16,    17,    18,    19,    20,    21,    22,    23,    24,    25,
      203       203    1            26,    27,    28,    29,    30,    31,    32,    33,    34,    35,
      204       204    1            36,    37,    38,    39,    40,    41,    42,    43,    44,    45,
      205       205    1            46,    47,    48,    49,    50,    51,    52,    53,    54,    55,
      206       206    1            56,    57,    58,    59,    60,    61,    62,    63,    64,    65,
      207       207    1            66,    67,    68,    69,    70,    71,    72,    73,    74,    75,
      208       208    1            84
      209       209    1        };
      210       210
      211       211             static const short yyrline[] = {     0,
      212       212    1           132,   138,   150,   153,   154,   157,   159,   161,   163,   165,
      213       213    1           172,   173,   175,   176,   179,   181,   189,   192,   193,   196,
      214       214    1           198,   201,   203,   205,   210,   212,   214,   216,   221,   222,
      215       215    1           226,   232,   238,   246,   248,   252,   261,   262,   266,   276,
      216       216    1           289,   292,   293,   296,   303,   306,   310,   312,   318,   321,
      217       217    1           325,   326,   330,   338,   340,   342,   345,   353,   360,   362,
      218       218    1           368,   376,   377,   383,   386,   387,   390,   392,   395,   399,
      219       219    1           401,   403,   405,   407,   412,   416,   417,   420,   422,   425,
      220       220    1           427,   428,   432,   441,   443,   448,   452,   454,   458,   460,
CC.C03    File=zbn$cgg:c.:ZBC3TOU                                                   Fri Aug 22 1997  Page=7
      221       221    1           464,   466,   476,   478,   481,   482,   485,   488,   492,   495,
      222       222    1           504,   507,   513,   519,   522,   523,   526,   527,   530,   532,
      223       223    1           538,   545,   551,   554,   557,   558,   561,   564,   569,   577,
      224       224    1           579,   586,   589,   592,   593,   596,   598,   604,   607,   613,
      225       225    1           626,   629,   630,   633,   633,   634,   641,   645,   648,   652,
      226       226    1           656,   658,   658,   661,   663,   669,   673,   678,   690,   692,
      227       227    1           697,   700,   713,   714,   714,   715,   718,   730,   732,   735,
      228       228    1           737,   741,   743,   748,   750,   760,   762,   769,   770,   774,
      229       229    1           775,   781,   790,   792,   796,   798,   802,   804,   809,   819,
      230       230    1           821,   825,   827,   840,   840,   845,   847,   849,   851,   855,
      231       231    1           857,   859,   863,   865,   867,   872,   874,   878,   880,   889,
      232       232    1           891,   892,   895,   896,   900,   909,   911,   914,   916,   921,
      233       233    1           923,   925,   927,   929,   936,   940,   942,   947,   954,   964,
      234       234    1           966,   976,   984,   987,   989,   991,   993,   995,   997,   999,
      235       235    1          1006,  1008,  1010,  1012,  1014,  1016,  1018,  1020,  1022,  1024,
      236       236    1          1026,  1028,  1037,  1039,  1041,  1043,  1045,  1047,  1049,  1051,
      237       237    1          1053,  1055,  1057,  1059,  1061,  1063,  1065,  1067,  1069,  1071,
      238       238    1          1073,  1075,  1077,  1079,  1081,  1083,  1087,  1092,  1094
      239       239    1        };
      240       240
      241       241             static const char * const yytname[] = {     0,
      242       242    1        "error","$illegal.","PROPERTIES","REGISTERS","TOKENS","SETS","MOVES","TESTS","
                               STACKINGRULES","COERCIONS",
      243       243    1        "INSTRUCTIONS","PROC","CALL","EXAMPLE","FROM","TO","TEST","MOVE","STACK","RETU
                               RN",
      244       244    1        "PATTERNS","PAT","WITH","EXACT","KILLS","USES","REUSING","GEN","YIELDS","LEAVI
                               NG",
      245       245    1        "DEFINED","SAMESIGN","SFIT","UFIT","ROM","LOWW","HIGHW","GET_NAME_OFFSET","GET
                               _NAME","GET_ADDR",
      246       246    1        "GET_TEMP","ADDR_TEMP","CMPEQ","CMPNE","CMPLT","CMPGT","CMPLE","CMPGE","OR2","
                               AND2",
      247       247    1        "LSHIFT","RSHIFT","NOT","COMP","INREG","REGVAR","REG_ANY","REG_FLOAT","REG_LOO
                               P","REG_POINTER",
      248       248    1        "ADORNACCESS","ADORNCC","INT","ADDR","EMMNEM","NUMBER","DOLLAR","PERCENT","ALL
                               REG","IDENT",
      249       249    1        "PERC_IDENT","STRING","TIMEFACTOR","SIZEFACTOR","COST","'|'","'^'","'&'","'+'"
                               ,"'-'",
CC.C03    File=zbn$cgg:c.:ZBC3TOU                                                   Fri Aug 22 1997  Page=8
      250       250    1        "'*'","'/'","'%'","UMINUS","'='","'('","')'","':'","'.'","'{'",
      251       251    1        "'}'","';'","','","'['","']'","machtable"
      252       252    1        };
      253       253
      254       254             static const short yyr1[] = {     0,
      255       255    1            97,    96,    98,    99,    99,   100,   100,   100,   100,   100,
      256       256    1           102,   101,   103,   103,   104,   104,   105,   106,   106,   107,
      257       257    1           107,   108,   108,   108,   109,   109,   109,   109,   110,   110,
      258       258    1           111,   111,   111,   112,   112,   113,   114,   114,   115,   116,
      259       259    1           117,   118,   118,   119,   119,   120,   121,   121,   123,   122,
      260       260    1           124,   124,   125,   126,   126,   126,   127,   127,   128,   128,
      261       261    1           128,   129,   129,   130,   131,   131,   132,   132,   133,   134,
      262       262    1           134,   134,   134,   134,   135,   136,   136,   137,   137,   138,
      263       263    1           138,   138,   139,   140,   140,   140,   141,   141,   142,   142,
      264       264    1           143,   143,   144,   144,   145,   145,   147,   148,   149,   150,
      265       265    1           151,   146,   146,   153,   152,   152,   154,   154,   156,   157,
      266       266    1           155,   155,   159,   158,   160,   160,   162,   163,   161,   164,
      267       267    1           164,   166,   165,   167,   167,   169,   168,   170,   171,   168,
      268       268    1           172,   173,   173,   175,   176,   177,   174,   178,   174,   174,
      269       269    1           179,   180,   179,   181,   181,   182,   182,   182,   183,   183,
      270       270    1           185,   184,   187,   186,   188,   186,   189,   191,   190,   192,
      271       271    1           192,   193,   193,   194,   194,   195,   195,   196,   196,   198,
      272       272    1           197,   197,   199,   199,   200,   200,   201,   201,   201,   202,
      273       273    1           202,   203,   203,   205,   204,   204,   204,   204,   204,   206,
      274       274    1           206,   206,   207,   207,   207,   208,   208,   209,   209,   210,
      275       275    1           211,   210,   212,   212,   213,   214,   214,   215,   215,   216,
      276       276    1           216,   216,   216,   216,   216,   217,   217,   218,   219,   220,
      277       277    1           220,   221,   222,   222,   222,   222,   222,   222,   222,   222,
      278       278    1           222,   222,   222,   222,   222,   222,   222,   222,   222,   222,
      279       279    1           222,   222,   222,   222,   222,   222,   222,   222,   222,   222,
      280       280    1           222,   222,   222,   222,   222,   222,   222,   222,   222,   222,
      281       281    1           222,   222,   222,   222,   222,   222,   223,   224,   224
      282       282    1        };
      283       283
      284       284             static const short yyr2[] = {     0,
      285       285    1             0,    12,     1,     0,     2,     3,     3,     5,     5,     1,
      286       286    1             0,     3,     1,     3,     1,     4,     2,     1,     2,     5,
CC.C03    File=zbn$cgg:c.:ZBC3TOU                                                   Fri Aug 22 1997  Page=9
      287       287    1             2,     0,     1,     4,     1,     1,     1,     1,     1,     3,
      288       288    1             2,     4,     6,     0,     3,     1,     1,     3,     1,     1,
      289       289    1             2,     1,     2,     7,     2,     3,     0,     2,     0,     4,
      290       290    1             1,     3,     1,     1,     1,     1,     0,     6,     0,     2,
      291       291    1             2,     1,     0,     2,     1,     2,     4,     2,     1,     1,
      292       292    1             3,     3,     3,     3,     3,     1,     2,     6,     2,     0,
      293       293    1             1,     3,     2,     0,     2,     2,     0,     2,     1,     2,
      294       294    1             1,     1,     2,     0,     1,     2,     0,     0,     0,     0,
      295       295    1             0,    13,     1,     0,     3,     0,     1,     2,     0,     0,
      296       296    1             8,     1,     0,     3,     1,     2,     0,     0,    10,     0,
      297       297    1             2,     0,     3,     1,     2,     0,     7,     0,     0,     8,
      298       298    1             2,     1,     2,     0,     0,     0,     7,     0,     5,     1,
      299       299    1             0,     0,     3,     1,     2,     1,     1,     6,     0,     2,
      300       300    1             0,     6,     0,     2,     0,     3,     6,     0,     5,     0,
      301       301    1             1,     0,     1,     0,     2,     0,     2,     1,     3,     0,
      302       302    1             3,     1,     0,     2,     1,     3,     1,     3,     2,     0,
      303       303    1             2,     0,     2,     0,     4,     2,     4,     2,     1,     0,
      304       304    1             1,     3,     1,     1,     3,     0,     2,     0,     2,     0,
      305       305    1             0,     3,     1,     2,     2,     0,     1,     0,     1,     2,
      306       306    1             3,     1,     2,     1,     4,     0,     3,     1,     1,     0,
      307       307    1             2,     1,     1,     1,     1,     1,     2,     3,     2,     1,
      308       308    1             4,     6,     6,     6,     6,     4,     4,     4,     4,     4,
      309       309    1             4,     6,     3,     3,     3,     3,     3,     3,     3,     3,
      310       310    1             3,     3,     3,     3,     3,     3,     3,     3,     3,     3,
      311       311    1             3,     2,     2,     4,     1,     1,     5,     0,     2
      312       312    1        };
      313       313
      314       314             static const short yydefact[] = {     4,
      315       315    1             0,     0,    11,     0,    10,     0,     0,     0,     5,     0,
      316       316    1             0,     0,     0,     0,     0,    15,    12,    13,     0,    34,
      317       317    1             0,    18,    63,    29,     0,     1,     6,     7,     0,     0,
      318       318    1             0,    62,     0,    21,     0,    31,    19,     0,     0,     0,
      319       319    1             0,     0,    42,     0,     0,     0,     0,    14,     0,     0,
      320       320    1            39,    22,    37,    30,    45,     0,    43,     0,     0,     8,
      321       321    1             9,    16,    35,    36,    32,    23,     0,     0,    47,     0,
      322       322    1             0,     0,     0,    65,    57,    94,     0,     0,    20,    38,
      323       323    1            54,    55,    40,    56,     0,    47,    49,    57,    68,     0,
CC.C03    File=zbn$cgg:c.:ZBC3TOU                                                   Fri Aug 22 1997  Page=10
      324       324    1            66,     0,     0,     0,   106,    33,    25,    26,    27,    28,
      325       325    1             0,    46,    48,     0,    59,    70,     0,     0,    69,     0,
      326       326    1             0,   206,     0,    76,   103,    97,     0,    95,   104,     0,
      327       327    1            24,    53,     0,    51,    59,    59,     0,     0,    67,     0,
      328       328    1             0,     0,     0,    79,   207,    80,    77,     0,    96,     0,
      329       329    1           113,     0,    50,     0,    61,    60,    44,    74,    72,    73,
      330       330    1            71,     0,    84,    87,    81,    98,   112,   109,     0,   107,
      331       331    1             0,   122,     0,    52,     0,    84,    84,    83,     0,    57,
      332       332    1            80,   208,     0,   108,   117,   114,   115,     0,     0,     2,
      333       333    1            58,    85,    86,    92,    91,    88,    89,     0,    82,     0,
      334       334    1             0,     0,     0,     0,     0,     0,     0,     0,     0,     0,
      335       335    1             0,     0,     0,     0,     0,   223,   218,   219,   222,   226,
      336       336    1           230,   225,     0,   265,    99,   224,   220,   220,   209,   266,
      337       337    1             0,     0,   116,   128,   123,   124,   140,     0,   134,     0,
      338       338    1           132,    90,    78,     0,     0,     0,     0,     0,     0,     0,
      339       339    1             0,     0,     0,     0,     0,   262,   263,     0,     0,     0,
      340       340    1             0,     0,   227,     0,   229,     0,     0,     0,     0,     0,
      341       341    1             0,     0,     0,     0,     0,     0,     0,     0,     0,     0,
      342       342    1             0,     0,     0,   110,   118,     0,     0,   125,   141,     0,
      343       343    1           133,     0,     0,     0,     0,     0,     0,     0,     0,     0,
      344       344    1             0,     0,     0,     0,   268,   243,     0,   221,   228,   244,
      345       345    1           245,   246,   247,   248,   249,   250,   251,   260,   261,   252,
      346       346    1           253,   254,   255,   256,   257,   258,   259,   208,   208,   173,
      347       347    1           129,   142,   138,   144,   135,   231,     0,     0,     0,     0,
      348       348    1           236,   237,   239,   238,   240,   241,     0,   264,     0,     0,
      349       349    1           100,     0,     0,     0,   180,   208,     0,   151,   145,   208,
      350       350    1             0,     0,     0,     0,     0,   269,   267,   208,   182,     0,
      351       351    1             0,   177,   174,   175,   182,     0,   173,   143,     0,   139,
      352       352    1           146,   166,   147,     0,   136,   232,   233,   234,   235,   242,
      353       353    1           101,     0,     0,   189,     0,   111,   182,     0,   120,   212,
      354       354    1           214,     0,   179,   220,   220,     0,     0,   181,     0,   180,
      355       355    1             0,     0,   173,     0,   160,   154,   166,   151,     0,   188,
      356       356    1             0,   186,   183,   190,     0,     0,   216,     0,   210,   213,
      357       357    1           178,   176,   127,   196,     0,   170,   167,   168,   172,   180,
      358       358    1           156,   161,   158,   173,   137,   182,     0,   191,     0,     0,
      359       359    1           121,   182,     0,   211,   198,   130,   149,   208,     0,   196,
      360       360    1           164,   180,   102,   187,     0,   193,   185,   194,   119,   215,
CC.C03    File=zbn$cgg:c.:ZBC3TOU                                                   Fri Aug 22 1997  Page=11
      361       361    1             0,   197,   198,     0,     0,   171,   169,   200,   162,   196,
      362       362    1           192,     0,   217,   199,   150,   148,   201,   152,   163,   165,
      363       363    1           159,   200,   195,     0,   157,   208,   202,   203,   205,   204,
      364       364    1             0,     0,     0
      365       365    1        };
      366       366
      367       367             static const short yydefgoto[] = {   491,
      368       368    1            44,     1,     2,     9,     4,    10,    17,    18,    12,    21,
      369       369    1            22,    67,   214,    23,    24,    36,    65,    52,   362,    84,
      370       370    1            26,    42,    43,    70,    85,    86,   104,   123,   124,    87,
      371       371    1            93,   127,    33,    59,    73,    74,   153,   109,    76,   113,
      372       372    1           114,   154,   155,   168,   170,   186,   187,    95,   117,   118,
      373       373    1           138,   172,   251,   358,   409,   120,   140,   159,   160,   173,
      374       374    1           318,   142,   161,   176,   177,   222,   319,   416,   163,   178,
      375       375    1           225,   226,   276,   277,   346,   180,   230,   231,   280,   350,
      376       376    1           408,   348,   323,   347,   325,   370,   465,   371,   372,   373,
      377       377    1           374,   404,   406,   407,   451,   433,   481,   469,   403,   427,
      378       378    1           428,   448,   345,   363,   364,   366,   386,   387,   388,   440,
      379       379    1           457,   446,   462,   478,   484,   487,   488,   136,   215,   463,
      380       380    1           443,   216,   217,   253,   218,   219,   220,   340
      381       381    1        };
      382       382
      383       383             static const short yypact[] = {-32768,
      384       384    1            13,    25,-32768,    84,-32768,    66,    76,    91,-32768,    74,
      385       385    1            32,   116,    88,   130,   133,   142,   -30,-32768,   140,   225,
      386       386    1            31,-32768,    30,-32768,    34,-32768,-32768,-32768,   236,   237,
      387       387    1           172,-32768,    74,-32768,   249,   238,-32768,   252,   254,   253,
      388       388    1           240,    21,-32768,   320,   275,   279,   259,-32768,   270,   288,
      389       389    1        -32768,    59,-32768,-32768,-32768,   278,-32768,    36,   358,-32768,
      390       390    1        -32768,-32768,-32768,-32768,   291,   290,   289,   252,   127,   322,
      391       391    1           300,   305,    23,-32768,   316,   385,   288,   257,-32768,-32768,
      392       392    1        -32768,-32768,-32768,-32768,   302,   127,-32768,   316,-32768,    44,
      393       393    1        -32768,   308,    37,   152,   387,-32768,-32768,-32768,-32768,-32768,
      394       394    1           309,-32768,-32768,   338,   -12,-32768,    44,   321,   186,   343,
      395       395    1           323,   339,    22,-32768,-32768,-32768,     5,-32768,-32768,   404,
      396       396    1        -32768,-32768,   334,   335,   -12,   -12,   325,   114,-32768,    44,
      397       397    1            44,    44,   336,-32768,-32768,    44,-32768,    44,-32768,   156,
CC.C03    File=zbn$cgg:c.:ZBC3TOU                                                   Fri Aug 22 1997  Page=12
      398       398    1        -32768,   405,-32768,   338,-32768,-32768,-32768,-32768,   346,   346,
      399       399    1        -32768,   364,   124,   414,   347,-32768,-32768,-32768,   161,-32768,
      400       400    1           426,-32768,   421,-32768,   356,   124,   124,-32768,   -55,   316,
      401       401    1            44,   177,   427,-32768,-32768,   426,-32768,   431,   104,-32768,
      402       402    1        -32768,-32768,-32768,-32768,-32768,-32768,   -55,   368,-32768,   359,
      403       403    1           361,   372,   386,   397,   398,   399,   400,   401,   402,   403,
      404       404    1           406,   177,   177,   407,   416,-32768,-32768,-32768,-32768,-32768,
      405       405    1        -32768,-32768,   177,-32768,-32768,-32768,   370,   382,   703,-32768,
      406       406    1            44,    44,-32768,   471,   431,-32768,-32768,   433,-32768,   147,
      407       407    1        -32768,-32768,-32768,   177,   177,   177,   177,   424,   424,   424,
      408       408    1           177,   177,   177,   177,   177,-32768,-32768,   177,   177,   373,
      409       409    1           488,   198,-32768,   448,-32768,   177,   177,   177,   177,   177,
      410       410    1           177,   177,   177,   177,   177,   177,   177,   177,   177,   177,
      411       411    1           177,   177,   177,-32768,-32768,   496,    44,-32768,   502,   463,
      412       412    1        -32768,   418,   207,   227,   284,   436,   453,   454,   430,   475,
      413       413    1           487,   532,   304,   544,   355,-32768,    44,-32768,-32768,   292,
      414       414    1           292,   123,   123,   123,   123,   713,   723,   144,   144,   764,
      415       415    1           774,   784,   199,   199,-32768,-32768,-32768,   177,   177,   516,
      416       416    1        -32768,-32768,-32768,-32768,   478,-32768,   177,   177,   177,   479,
      417       417    1        -32768,-32768,-32768,-32768,-32768,-32768,   177,-32768,   257,   457,
      418       418    1        -32768,   518,   531,   -23,   520,   177,   463,    -5,-32768,   177,
      419       419    1           589,   601,   646,   462,   658,-32768,-32768,   177,   122,   540,
      420       420    1           223,   465,-32768,   467,   122,   542,   516,   478,   491,-32768,
      421       421    1        -32768,   547,   550,   562,-32768,-32768,-32768,-32768,-32768,-32768,
      422       422    1        -32768,   223,   223,-32768,   498,-32768,   122,   527,   572,-32768,
      423       423    1        -32768,   529,-32768,   511,   382,   223,   -23,-32768,   223,   520,
      424       424    1           515,    64,   516,   562,   578,-32768,   547,    -5,   575,-32768,
      425       425    1           512,-32768,-32768,    62,   534,   579,-32768,   229,-32768,-32768,
      426       426    1        -32768,-32768,-32768,   577,   545,-32768,-32768,   523,-32768,   520,
      427       427    1        -32768,-32768,-32768,   516,-32768,   122,   223,-32768,   552,   171,
      428       428    1        -32768,   122,    26,-32768,   223,-32768,   535,   177,    64,   577,
      429       429    1        -32768,   520,-32768,-32768,   548,-32768,   536,-32768,-32768,-32768,
      430       430    1           177,-32768,   223,   558,   555,-32768,-32768,   624,    42,   577,
      431       431    1        -32768,   223,   703,-32768,-32768,-32768,-32768,-32768,-32768,-32768,
      432       432    1        -32768,   624,-32768,   590,-32768,   177,-32768,   590,-32768,-32768,
      433       433    1           656,   657,-32768
      434       434    1        };
CC.C03    File=zbn$cgg:c.:ZBC3TOU                                                   Fri Aug 22 1997  Page=13
      435       435
      436       436             static const short yypgoto[] = {-32768,
      437       437    1        -32768,-32768,-32768,-32768,-32768,-32768,-32768,   625,-32768,-32768,
      438       438    1           638,-32768,   -77,-32768,   621,-32768,   584,-32768,   -29,   247,
      439       439    1        -32768,-32768,   622,-32768,   587,-32768,-32768,   519,-32768,-32768,
      440       440    1           -85,    95,    -6,-32768,-32768,   602,   -90,    51,-32768,-32768,
      441       441    1           561,   514,-32768,   135,-32768,   499,-32768,-32768,-32768,   570,
      442       442    1        -32768,-32768,-32768,-32768,-32768,-32768,-32768,-32768,   541,-32768,
      443       443    1        -32768,-32768,-32768,-32768,   537,-32768,-32768,-32768,-32768,-32768,
      444       444    1        -32768,   474,-32768,-32768,-32768,-32768,-32768,   481,-32768,-32768,
      445       445    1        -32768,-32768,-32768,-32768,   365,   306,-32768,-32768,-32768,-32768,
      446       446    1        -32768,-32768,   311,-32768,-32768,-32768,-32768,-32768,   310,   267,
      447       447    1        -32768,-32768,  -254,   324,-32768,  -297,  -346,-32768,-32768,-32768,
      448       448    1        -32768,  -445,   255,   248,-32768,   231,-32768,-32768,  -264,  -272,
      449       449    1        -32768,    58,  -299,  -216,  -274,  -192,  -390,-32768
      450       450    1        };
      451       451
      452       452
      453       453             #define	YYLAST		867
      454       454
      455       455
      456       456             static const short yytable[] = {   108,
      457       457    1           101,   255,   105,   361,   468,   115,   184,   369,    53,   246,
      458       458    1           247,   429,   -93,   -93,   185,     3,    39,  -153,   398,   116,
      459       459    1           250,    40,   111,    71,   482,     5,   -41,    -3,   -75,   -75,
      460       460    1           -75,    19,    19,   -64,    40,   -17,    71,   111,    80,   -63,
      461       461    1           413,   282,   283,   284,   285,    68,    51,   156,   289,   290,
      462       462    1           291,   292,   293,   342,   343,   294,   295,   125,   429,   126,
      463       463    1           479,   394,    32,   300,   301,   302,   303,   304,   305,   306,
      464       464    1           307,   308,   309,   310,   311,   312,   313,   314,   315,   316,
      465       465    1           317,   367,   394,   394,   188,   375,   395,    11,   393,   453,
      466       466    1            41,   112,    72,   381,     6,   459,   394,     7,     8,   394,
      467       467    1            20,    20,   424,    41,   227,    72,   112,   395,   395,   410,
      468       468    1           411,   106,   400,   106,    66,   228,   460,    38,   461,   205,
      469       469    1            25,   395,    32,   421,   395,   229,   423,   107,   -63,   107,
      470       470    1           274,   275,   450,   106,   351,   352,   353,   394,   382,   383,
      471       471    1           394,   384,   438,    16,   355,   394,  -131,   227,   430,   107,
CC.C03    File=zbn$cgg:c.:ZBC3TOU                                                   Fri Aug 22 1997  Page=14
      472       472    1            13,    32,   115,    27,   470,   439,   157,   128,   228,    28,
      473       473    1            14,   157,   395,   394,   454,   395,   116,   458,   229,  -105,
      474       474    1           395,   158,   394,   264,   265,    15,   158,   419,   420,   452,
      475       475    1           149,   150,   151,   466,   166,   167,   321,   385,   395,    81,
      476       476    1            82,  -184,   130,   131,   132,    29,    83,   395,    30,   483,
      477       477    1           148,   269,   270,   271,   272,   273,   341,   190,   191,   192,
      478       478    1           193,   194,   195,   196,   197,   198,   199,   200,   201,   145,
      479       479    1           146,   489,   269,   270,   271,   272,   273,    31,    34,   202,
      480       480    1           203,   204,   205,    97,    98,    99,   100,    47,   208,   209,
      481       481    1           390,   391,   206,   207,   208,   209,   210,   211,   212,   256,
      482       482    1           257,   258,   259,   260,   261,   262,   263,   264,   265,   456,
      483       483    1           392,   356,   213,   298,   130,   131,   132,   299,   473,   256,
      484       484    1           257,   258,   259,   260,   261,   262,   263,   264,   265,   271,
      485       485    1           272,   273,   266,   267,   268,   269,   270,   271,   272,   273,
      486       486    1           208,   209,   390,   391,   298,   286,   287,   288,   444,   327,
      487       487    1           182,   183,   266,   267,   268,   269,   270,   271,   272,   273,
      488       488    1            35,   426,   392,    97,    98,    99,   100,    45,    46,   328,
      489       489    1            49,    51,    50,    20,    56,    58,   256,   257,   258,   259,
      490       490    1           260,   261,   262,   263,   264,   265,   258,   259,   260,   261,
      491       491    1            60,    55,   264,   265,    61,    62,   256,   257,   258,   259,
      492       492    1           260,   261,   262,   263,   264,   265,    63,    64,   426,   266,
      493       493    1           267,   268,   269,   270,   271,   272,   273,    69,    75,    77,
      494       494    1           269,   270,   271,   272,   273,    78,   329,    79,   480,   266,
      495       495    1           267,   268,   269,   270,   271,   272,   273,    88,    89,    90,
      496       496    1            92,    94,   102,   110,   119,   121,   337,   256,   257,   258,
      497       497    1           259,   260,   261,   262,   263,   264,   265,   122,   133,   129,
      498       498    1           135,   134,   141,   147,   162,   256,   257,   258,   259,   260,
      499       499    1           261,   262,   263,   264,   265,   143,   132,   144,   152,   165,
      500       500    1           266,   267,   268,   269,   270,   271,   272,   273,   169,   171,
      501       501    1           175,   179,   181,   221,   234,   224,   235,   339,   266,   267,
      502       502    1           268,   269,   270,   271,   272,   273,   233,   236,   252,   296,
      503       503    1           256,   257,   258,   259,   260,   261,   262,   263,   264,   265,
      504       504    1           254,   237,   256,   257,   258,   259,   260,   261,   262,   263,
      505       505    1           264,   265,   238,   239,   240,   241,   242,   243,   244,  -126,
      506       506    1           207,   245,   248,   266,   267,   268,   269,   270,   271,   272,
      507       507    1           273,   249,   279,   297,   326,   266,   267,   268,   269,   270,
      508       508    1           271,   272,   273,   298,   320,   322,   333,   256,   257,   258,
CC.C03    File=zbn$cgg:c.:ZBC3TOU                                                   Fri Aug 22 1997  Page=15
      509       509    1           259,   260,   261,   262,   263,   264,   265,   324,   330,   256,
      510       510    1           257,   258,   259,   260,   261,   262,   263,   264,   265,   331,
      511       511    1           332,   344,   349,   357,   354,   359,   360,   365,   379,   396,
      512       512    1           266,   267,   268,   269,   270,   271,   272,   273,   389,   397,
      513       513    1           401,   334,   266,   267,   268,   269,   270,   271,   272,   273,
      514       514    1           399,   402,  -155,   335,   256,   257,   258,   259,   260,   261,
      515       515    1           262,   263,   264,   265,   405,   412,   256,   257,   258,   259,
      516       516    1           260,   261,   262,   263,   264,   265,   414,   415,   417,   418,
      517       517    1           425,   432,   436,    83,   437,   445,   442,   266,   267,   268,
      518       518    1           269,   270,   271,   272,   273,   449,   447,   455,   336,   266,
      519       519    1           267,   268,   269,   270,   271,   272,   273,   464,   472,   475,
      520       520    1           338,   256,   257,   258,   259,   260,   261,   262,   263,   264,
      521       521    1           265,   476,   471,   256,   257,   258,   259,   260,   261,   262,
      522       522    1           263,   264,   265,   477,   486,   492,   493,    48,    37,    54,
      523       523    1            96,   441,   164,    57,   266,   267,   268,   269,   270,   271,
      524       524    1           272,   273,   103,   137,    91,   376,   266,   267,   268,   269,
      525       525    1           270,   271,   272,   273,   189,   232,   139,   377,   256,   257,
      526       526    1           258,   259,   260,   261,   262,   263,   264,   265,   278,   174,
      527       527    1           256,   257,   258,   259,   260,   261,   262,   263,   264,   265,
      528       528    1           281,   368,   223,   435,   431,   467,   434,   474,   490,     0,
      529       529    1           422,   266,   267,   268,   269,   270,   271,   272,   273,   485,
      530       530    1             0,     0,   378,   266,   267,   268,   269,   270,   271,   272,
      531       531    1           273,     0,     0,     0,   380,   256,   257,   258,   259,   260,
      532       532    1           261,   262,   263,   264,   265,   256,   257,   258,   259,   260,
      533       533    1           261,     0,   263,   264,   265,   256,   257,   258,   259,   260,
      534       534    1           261,     0,     0,   264,   265,     0,     0,     0,   266,   267,
      535       535    1           268,   269,   270,   271,   272,   273,     0,     0,   266,   267,
      536       536    1           268,   269,   270,   271,   272,   273,     0,     0,   266,   267,
      537       537    1           268,   269,   270,   271,   272,   273,   256,   257,   258,   259,
      538       538    1           260,   261,     0,     0,   264,   265,   256,   257,   258,   259,
      539       539    1           260,   261,     0,     0,   264,   265,   256,   257,   258,   259,
      540       540    1           260,   261,     0,     0,   264,   265,     0,     0,     0,     0,
      541       541    1           267,   268,   269,   270,   271,   272,   273,     0,     0,     0,
      542       542    1             0,   268,   269,   270,   271,   272,   273,     0,     0,     0,
      543       543    1             0,     0,   269,   270,   271,   272,   273
      544       544    1        };
      545       545
CC.C03    File=zbn$cgg:c.:ZBC3TOU                                                   Fri Aug 22 1997  Page=16
      546       546             static const short yycheck[] = {    90,
      547       547    1            78,   218,    88,    27,   450,     1,    62,    13,    38,   202,
      548       548    1           203,   402,     8,     9,    70,     3,    23,    23,   365,    15,
      549       549    1           213,     1,     1,     1,   470,     1,     6,     3,     7,     8,
      550       550    1             9,     1,     1,    11,     1,     5,     1,     1,    68,    70,
      551       551    1           387,   234,   235,   236,   237,    52,    70,   138,   241,   242,
      552       552    1           243,   244,   245,   318,   319,   248,   249,    70,   449,    72,
      553       553    1            19,   361,    93,   256,   257,   258,   259,   260,   261,   262,
      554       554    1           263,   264,   265,   266,   267,   268,   269,   270,   271,   272,
      555       555    1           273,   346,   382,   383,   170,   350,   361,     4,   361,   436,
      556       556    1            70,    70,    70,   358,    70,   442,   396,    73,    74,   399,
      557       557    1            70,    70,   400,    70,     1,    70,    70,   382,   383,   382,
      558       558    1           383,    70,   367,    70,    56,    12,    91,    88,    93,    56,
      559       559    1             5,   396,    93,   396,   399,    22,   399,    86,    70,    86,
      560       560    1           221,   222,   430,    70,   327,   328,   329,   437,    17,    18,
      561       561    1           440,    20,    81,    70,   337,   445,     0,     1,   403,    86,
      562       562    1            85,    93,     1,    66,   452,    94,     1,   107,    12,    72,
      563       563    1            85,     1,   437,   463,   437,   440,    15,   440,    22,     9,
      564       564    1           445,    16,   472,    51,    52,    85,    16,   394,   395,   434,
      565       565    1           130,   131,   132,   448,    61,    62,   277,    66,   463,    63,
      566       566    1            64,    70,    79,    80,    81,    66,    70,   472,    66,   472,
      567       567    1            87,    79,    80,    81,    82,    83,   297,    31,    32,    33,
      568       568    1            34,    35,    36,    37,    38,    39,    40,    41,    42,   125,
      569       569    1           126,   486,    79,    80,    81,    82,    83,    86,    89,    53,
      570       570    1            54,    55,    56,    57,    58,    59,    60,    66,    68,    69,
      571       571    1            70,    71,    66,    67,    68,    69,    70,    71,    72,    43,
      572       572    1            44,    45,    46,    47,    48,    49,    50,    51,    52,    89,
      573       573    1            90,   339,    86,    66,    79,    80,    81,    70,   461,    43,
      574       574    1            44,    45,    46,    47,    48,    49,    50,    51,    52,    81,
      575       575    1            82,    83,    76,    77,    78,    79,    80,    81,    82,    83,
      576       576    1            68,    69,    70,    71,    66,   238,   239,   240,    70,    93,
      577       577    1           166,   167,    76,    77,    78,    79,    80,    81,    82,    83,
      578       578    1            86,   402,    90,    57,    58,    59,    60,    82,    82,    93,
      579       579    1            72,    70,    85,    70,    85,     6,    43,    44,    45,    46,
      580       580    1            47,    48,    49,    50,    51,    52,    45,    46,    47,    48,
      581       581    1            66,    89,    51,    52,    66,    87,    43,    44,    45,    46,
      582       582    1            47,    48,    49,    50,    51,    52,    87,    70,   449,    76,
CC.C03    File=zbn$cgg:c.:ZBC3TOU                                                   Fri Aug 22 1997  Page=17
      583       583    1            77,    78,    79,    80,    81,    82,    83,    90,    11,    79,
      584       584    1            79,    80,    81,    82,    83,    86,    93,    89,   469,    76,
      585       585    1            77,    78,    79,    80,    81,    82,    83,    66,    89,    85,
      586       586    1            75,     7,    91,    86,     8,    87,    93,    43,    44,    45,
      587       587    1            46,    47,    48,    49,    50,    51,    52,    70,    66,    89,
      588       588    1            72,    89,     9,    89,    10,    43,    44,    45,    46,    47,
      589       589    1            48,    49,    50,    51,    52,    92,    81,    93,    93,    66,
      590       590    1            76,    77,    78,    79,    80,    81,    82,    83,    25,    93,
      591       591    1            15,    21,    87,    17,    86,    15,    86,    93,    76,    77,
      592       592    1            78,    79,    80,    81,    82,    83,    89,    86,    89,    87,
      593       593    1            43,    44,    45,    46,    47,    48,    49,    50,    51,    52,
      594       594    1            89,    86,    43,    44,    45,    46,    47,    48,    49,    50,
      595       595    1            51,    52,    86,    86,    86,    86,    86,    86,    86,    19,
      596       596    1            67,    86,    86,    76,    77,    78,    79,    80,    81,    82,
      597       597    1            83,    86,    70,    16,    87,    76,    77,    78,    79,    80,
      598       598    1            81,    82,    83,    66,    19,    14,    87,    43,    44,    45,
      599       599    1            46,    47,    48,    49,    50,    51,    52,    65,    93,    43,
      600       600    1            44,    45,    46,    47,    48,    49,    50,    51,    52,    87,
      601       601    1            87,    26,    65,    87,    66,    28,    16,    28,    87,    85,
      602       602    1            76,    77,    78,    79,    80,    81,    82,    83,    19,    93,
      603       603    1            70,    87,    76,    77,    78,    79,    80,    81,    82,    83,
      604       604    1            29,    25,    23,    87,    43,    44,    45,    46,    47,    48,
      605       605    1            49,    50,    51,    52,    23,    88,    43,    44,    45,    46,
      606       606    1            47,    48,    49,    50,    51,    52,    70,    26,    70,    89,
      607       607    1            86,    24,    28,    70,    93,    29,    28,    76,    77,    78,
      608       608    1            79,    80,    81,    82,    83,    93,    72,    66,    87,    76,
      609       609    1            77,    78,    79,    80,    81,    82,    83,    93,    93,    72,
      610       610    1            87,    43,    44,    45,    46,    47,    48,    49,    50,    51,
      611       611    1            52,    87,    95,    43,    44,    45,    46,    47,    48,    49,
      612       612    1            50,    51,    52,    30,    65,     0,     0,    33,    21,    39,
      613       613    1            77,   415,   144,    42,    76,    77,    78,    79,    80,    81,
      614       614    1            82,    83,    86,   113,    73,    87,    76,    77,    78,    79,
      615       615    1            80,    81,    82,    83,   171,   187,   117,    87,    43,    44,
      616       616    1            45,    46,    47,    48,    49,    50,    51,    52,   225,   159,
      617       617    1            43,    44,    45,    46,    47,    48,    49,    50,    51,    52,
      618       618    1           230,   347,   176,   408,   404,   449,   407,   463,   488,    -1,
      619       619    1           397,    76,    77,    78,    79,    80,    81,    82,    83,   482,
CC.C03    File=zbn$cgg:c.:ZBC3TOU                                                   Fri Aug 22 1997  Page=18
      620       620    1            -1,    -1,    87,    76,    77,    78,    79,    80,    81,    82,
      621       621    1            83,    -1,    -1,    -1,    87,    43,    44,    45,    46,    47,
      622       622    1            48,    49,    50,    51,    52,    43,    44,    45,    46,    47,
      623       623    1            48,    -1,    50,    51,    52,    43,    44,    45,    46,    47,
      624       624    1            48,    -1,    -1,    51,    52,    -1,    -1,    -1,    76,    77,
      625       625    1            78,    79,    80,    81,    82,    83,    -1,    -1,    76,    77,
      626       626    1            78,    79,    80,    81,    82,    83,    -1,    -1,    76,    77,
      627       627    1            78,    79,    80,    81,    82,    83,    43,    44,    45,    46,
      628       628    1            47,    48,    -1,    -1,    51,    52,    43,    44,    45,    46,
      629       629    1            47,    48,    -1,    -1,    51,    52,    43,    44,    45,    46,
      630       630    1            47,    48,    -1,    -1,    51,    52,    -1,    -1,    -1,    -1,
      631       631    1            77,    78,    79,    80,    81,    82,    83,    -1,    -1,    -1,
      632       632    1            -1,    78,    79,    80,    81,    82,    83,    -1,    -1,    -1,
      633       633    1            -1,    -1,    79,    80,    81,    82,    83
      634       634    1        };
      635       635             #define YYPURE 1
      636       636
      637       637             /* -*-C-*-  Note some compilers choke on comments on `#line' lines.  */
      638       638             #line 3 "bison.simple"
      639       639
      640       640             /* Skeleton output parser for bison,
      641       641                Copyright (C) 1984 Bob Corbett and Richard Stallman
      642       642
      643       643                This program is free software; you can redistribute it and/or modify
      644       644                it under the terms of the GNU General Public License as published by
      645       645                the Free Software Foundation; either version 1, or (at your option)
      646       646                any later version.
      647       647
      648       648                This program is distributed in the hope that it will be useful,
      649       649                but WITHOUT ANY WARRANTY; without even the implied warranty of
      650       650                MERCHANTABILITY or FITNESS FOR A PARTICULAR PURPOSE.  See the
      651       651                GNU General Public License for more details.
      652       652
      653       653                You should have received a copy of the GNU General Public License
      654       654                along with this program; if not, write to the Free Software
      655       655                Foundation, Inc., 675 Mass Ave, Cambridge, MA 02139, USA.  */
      656       656
CC.C03    File=zbn$cgg:c.:ZBC3TOU                                                   Fri Aug 22 1997  Page=19
      657       657
      658       658             #if (!defined (__STDC__) && defined (sparc)) || defined (__sparc__)
      659       659   *S*       #include <alloca.h>
      660       660   *S*       #endif
      661       661
      662       662             #if   __STDC__
      663       663             #include    <stdlib.h>
      664       664             extern void *alloca(int);
      665       665             #endif
      666       666
      667       667             /* This is the parser code that is written into each bison parser
      668       668               when the %semantic_parser declaration is not specified in the grammar.
      669       669               It was written by Richard Stallman by simplifying the hairy parser
      670       670               used when %semantic_parser is specified.  */
      671       671
      672       672             /* Note: there must be only one dollar sign in this file.
      673       673                It is replaced by the list of actions, each action
      674       674                as one case of the switch.  */
      675       675
      676       676             #define yyerrok		(yyerrstatus = 0)
      677       677             #define yyclearin	(yychar = YYEMPTY)
      678       678             #define YYEMPTY		-2
      679       679             #define YYEOF		0
      680       680             #define YYFAIL		goto yyerrlab;
      681       681             #define YYACCEPT	return(0)
      682       682             #define YYABORT 	return(1)
      683       683             #define YYERROR		goto yyerrlab
      684       684
      685       685             #define YYTERROR	1
      686       686             #define YYERRCODE	256
      687       687
      688       688             #ifndef YYIMPURE
      689       689             #define YYLEX		yylex()
      690       690             #endif
      691       691
      692       692             #ifndef YYPURE
      693       693   *S*       #define YYLEX		yylex(&yylval, &yylloc)
CC.C03    File=zbn$cgg:c.:ZBC3TOU                                                   Fri Aug 22 1997  Page=20
      694       694   *S*       #endif
      695       695
      696       696             /* If nonreentrant, generate the variables here */
      697       697
      698       698             #ifndef YYIMPURE
      699       699
      700       700             int	yychar;			/*  the lookahead symbol		*/
      701       701             YYSTYPE	yylval;			/*  the semantic value of the		*/
      702       702             				/*  lookahead symbol			*/
      703       703
      704       704             YYLTYPE yylloc;			/*  location data for the lookahead	*/
      705       705             				/*  symbol				*/
      706       706
      707       707             int yynerrs;			/*  number of parse errors so far       */
      708       708             #endif  /* YYIMPURE */
      709       709
      710       710             #if YYDEBUG != 0
      711       711   *S*       int yydebug;			/*  nonzero means print parse trace	*/
      712       712   *S*       /* Since this is uninitialized, it does not stop multiple parsers
      713       713   *S*          from coexisting.  */
      714       714   *S*       #endif
      715       715
      716       716             /*  YYMAXDEPTH indicates the initial size of the parser's stacks	*/
      717       717
      718       718             #ifndef	YYMAXDEPTH
      719       719             #define YYMAXDEPTH 200
      720       720             #endif
      721       721
      722       722             /*  YYMAXLIMIT is the maximum size the stacks can grow to
      723       723                 (effective only if the built-in stack extension method is used).  */
      724       724
      725       725             #ifndef YYMAXLIMIT
      726       726             #define YYMAXLIMIT 10000
      727       727             #endif
      728       728
      729       729
      730       730             #line 90 "bison.simple"
CC.C03    File=zbn$cgg:c.:ZBC3TOU                                                   Fri Aug 22 1997  Page=21
      731       731             int
      732       732             yyparse()
      733       733             {
      734       734    1          register int yystate;
      735       735    1          register int yyn;
      736       736    1          register short *yyssp;
      737       737    1          register YYSTYPE *yyvsp;
      738       738    1          YYLTYPE *yylsp;
      739       739    1          int yyerrstatus;	/*  number of tokens to shift before error messages enabled
                                */
      740       740    1          int yychar1;		/*  lookahead token as an internal (translated) token number *
                               /
      741       741    1
      742       742    1          short	yyssa[YYMAXDEPTH];	/*  the state stack			*/
      743       743    1          YYSTYPE yyvsa[YYMAXDEPTH];	/*  the semantic value stack		*/
      744       744    1          YYLTYPE yylsa[YYMAXDEPTH];	/*  the location stack			*/
      745       745    1
      746       746    1          short *yyss = yyssa;		/*  refer to the stacks thru separate pointers */
      747       747    1          YYSTYPE *yyvs = yyvsa;	/*  to allow yyoverflow to reallocate them elsewhere
                               */
      748       748    1          YYLTYPE *yyls = yylsa;
      749       749    1
      750       750    1          int yymaxdepth = YYMAXDEPTH;
      751       751    1
      752       752    1        #ifndef YYPURE
      753       753   *S*         int yychar;
      754       754   *S*         YYSTYPE yylval;
      755       755   *S*         YYLTYPE yylloc;
      756       756   *S*         int yynerrs;
      757       757   *S*       #endif
      758       758    1
      759       759    1          YYSTYPE yyval;		/*  the variable used to return		*/
      760       760    1        				/*  semantic values from the action	*/
      761       761    1        				/*  routines				*/
      762       762    1
      763       763    1          int yylen;
      764       764    1
CC.C03    File=zbn$cgg:c.:ZBC3TOU                                                   Fri Aug 22 1997  Page=22
      765       765    1        #if YYDEBUG != 0
      766       766   *S*         if (yydebug)
      767       767   *S*           fprintf(stderr, "Starting parse\n");
      768       768   *S*       #endif
      769       769    1
      770       770    1          yystate = 0;
      771       771    1          yyerrstatus = 0;
      772       772    1          yynerrs = 0;
      773       773    1          yychar = YYEMPTY;		/* Cause a token to be read.  */
      774       774    1
      775       775    1          /* Initialize stack pointers.
      776       776    1             Waste one element of value and location stack
      777       777    1             so that they stay on the same level as the state stack.  */
      778       778    1
      779       779    1          yyssp = yyss - 1;
      780       780    1          yyvsp = yyvs;
      781       781    1          yylsp = yyls;
      782       782    1
      783       783    1        /* Push a new state, which is found in  yystate  .  */
      784       784    1        /* In all cases, when you get here, the value and location stacks
      785       785    1           have just been pushed. so pushing a state here evens the stacks.  */
      786       786    1        yynewstate:
      787       787    1
      788       788    1          *++yyssp = yystate;
      789       789    1
      790       790    1          if (yyssp >= yyss + yymaxdepth - 1)
      791       791    1            {
      792       792    2              /* Give user a chance to reallocate the stack */
      793       793    2              /* Use copies of these so that the &'s don't force the real ones into me
                               mory. */
      794       794    2              YYSTYPE *yyvs1 = yyvs;
      795       795    2              YYLTYPE *yyls1 = yyls;
"bison.simple", line 154: (warning) identifier "yyls1" is not used
      796       796    2              short *yyss1 = yyss;
      797       797    2
      798       798    2              /* Get the current used size of the three stacks, in elements.  */
      799       799    2              int size = yyssp - yyss + 1;
CC.C03    File=zbn$cgg:c.:ZBC3TOU                                                   Fri Aug 22 1997  Page=23
      800       800    2
      801       801    2        #ifdef yyoverflow
      802       802   *S*             /* Each stack pointer address is followed by the size of
      803       803   *S*       	 the data in use in that stack, in bytes.  */
      804       804   *S*             yyoverflow("parser stack overflow",
      805       805   *S*       		 &yyss1, size * sizeof (*yyssp),
      806       806   *S*       		 &yyvs1, size * sizeof (*yyvsp),
      807       807   *S*       		 &yyls1, size * sizeof (*yylsp),
      808       808   *S*       		 &yymaxdepth);
      809       809   *S*
      810       810   *S*             yyss = yyss1; yyvs = yyvs1; yyls = yyls1;
      811       811   *S*       #else /* no yyoverflow */
      812       812    2              /* Extend the stack our own way.  */
      813       813    2              if (yymaxdepth >= YYMAXLIMIT)
      814       814    2        	yyerror("parser stack overflow");
      815       815    2              yymaxdepth *= 2;
      816       816    2              if (yymaxdepth > YYMAXLIMIT)
      817       817    2        	yymaxdepth = YYMAXLIMIT;
      818       818    2              yyss = (short *) alloca (yymaxdepth * sizeof (*yyssp));
      819       819    2              memcpy ((char *)yyss1, (char *)yyss, size * sizeof (*yyssp));
      820       820    2              yyvs = (YYSTYPE *) alloca (yymaxdepth * sizeof (*yyvsp));
      821       821    2              memcpy ((char *)yyvs1, (char *)yyvs, size * sizeof (*yyvsp));
      822       822    2        #ifdef YYLSP_NEEDED
      823       823   *S*             yyls = (YYLTYPE *) alloca (yymaxdepth * sizeof (*yylsp));
      824       824   *S*             memcpy ((char *)yyls1, (char *)yyls, size * sizeof (*yylsp));
      825       825   *S*       #endif
      826       826    2        #endif /* no yyoverflow */
      827       827    2
      828       828    2              yyssp = yyss + size - 1;
      829       829    2              yyvsp = yyvs + size - 1;
      830       830    2        #ifdef YYLSP_NEEDED
      831       831   *S*             yylsp = yyls + size - 1;
      832       832   *S*       #endif
      833       833    2
      834       834    2        #if YYDEBUG != 0
      835       835   *S*             if (yydebug)
      836       836   *S*       	fprintf(stderr, "Stack size increased to %d\n", yymaxdepth);
CC.C03    File=zbn$cgg:c.:ZBC3TOU                                                   Fri Aug 22 1997  Page=24
      837       837   *S*       #endif
      838       838    2
      839       839    2              if (yyssp >= yyss + yymaxdepth - 1)
      840       840    2        	YYABORT;
      841       841    2            }
      842       842    1
      843       843    1        #if YYDEBUG != 0
      844       844   *S*         if (yydebug)
      845       845   *S*           fprintf(stderr, "Entering state %d\n", yystate);
      846       846   *S*       #endif
      847       847    1
      848       848    1        /* Do appropriate processing given the current state.  */
      849       849    1        /* Read a lookahead token if we need one and don't already have one.  */
      850       850    1        yyresume:
"bison.simple", line 209: (warning) label yyresume is not used
      851       851    1
      852       852    1          /* First try to decide what to do without reference to lookahead token.  */
      853       853    1
      854       854    1          yyn = yypact[yystate];
      855       855    1          if (yyn == YYFLAG)
      856       856    1            goto yydefault;
      857       857    1
      858       858    1          /* Not known => get a lookahead token if don't already have one.  */
      859       859    1
      860       860    1          /* yychar is either YYEMPTY or YYEOF
      861       861    1             or a valid token in external form.  */
      862       862    1
      863       863    1          if (yychar == YYEMPTY)
      864       864    1            {
      865       865    2        #if YYDEBUG != 0
      866       866   *S*             if (yydebug)
      867       867   *S*       	fprintf(stderr, "Reading a token: ");
      868       868   *S*       #endif
      869       869    2              yychar = YYLEX;
      870       870    2            }
      871       871    1
      872       872    1          /* Convert token to internal form (in yychar1) for indexing tables with */
CC.C03    File=zbn$cgg:c.:ZBC3TOU                                                   Fri Aug 22 1997  Page=25
      873       873    1
      874       874    1          if (yychar <= 0)		/* This means end of input. */
      875       875    1            {
      876       876    2              yychar1 = 0;
      877       877    2              yychar = YYEOF;		/* Don't call YYLEX any more */
      878       878    2
      879       879    2        #if YYDEBUG != 0
      880       880   *S*             if (yydebug)
      881       881   *S*       	fprintf(stderr, "Now at end of input.\n");
      882       882   *S*       #endif
      883       883    2            }
      884       884    1          else
      885       885    1            {
      886       886    2              yychar1 = YYTRANSLATE(yychar);
      887       887    2
      888       888    2        #if YYDEBUG != 0
      889       889   *S*             if (yydebug)
      890       890   *S*       	fprintf(stderr, "Next token is %d (%s)\n", yychar, yytname[yychar1]);
      891       891   *S*       #endif
      892       892    2            }
      893       893    1
      894       894    1          yyn += yychar1;
      895       895    1          if (yyn < 0 || yyn > YYLAST || yycheck[yyn] != yychar1)
      896       896    1            goto yydefault;
      897       897    1
      898       898    1          yyn = yytable[yyn];
      899       899    1
      900       900    1          /* yyn is what to do for this token type in this state.
      901       901    1             Negative => reduce, -yyn is rule number.
      902       902    1             Positive => shift, yyn is new state.
      903       903    1               New state is final state => don't bother to shift,
      904       904    1               just return success.
      905       905    1             0, or most negative number => error.  */
      906       906    1
      907       907    1          if (yyn < 0)
      908       908    1            {
      909       909    2              if (yyn == YYFLAG)
CC.C03    File=zbn$cgg:c.:ZBC3TOU                                                   Fri Aug 22 1997  Page=26
      910       910    2        	goto yyerrlab;
      911       911    2              yyn = -yyn;
      912       912    2              goto yyreduce;
      913       913    2            }
      914       914    1          else if (yyn == 0)
      915       915    1            goto yyerrlab;
      916       916    1
      917       917    1          if (yyn == YYFINAL)
      918       918    1            YYACCEPT;
      919       919    1
      920       920    1          /* Shift the lookahead token.  */
      921       921    1
      922       922    1        #if YYDEBUG != 0
      923       923   *S*         if (yydebug)
      924       924   *S*           fprintf(stderr, "Shifting token %d (%s), ", yychar, yytname[yychar1]);
      925       925   *S*       #endif
      926       926    1
      927       927    1          /* Discard the token being shifted unless it is eof.  */
      928       928    1          if (yychar != YYEOF)
      929       929    1            yychar = YYEMPTY;
      930       930    1
      931       931    1          *++yyvsp = yylval;
      932       932    1        #ifdef YYLSP_NEEDED
      933       933   *S*         *++yylsp = yylloc;
      934       934   *S*       #endif
      935       935    1
      936       936    1          /* count tokens shifted since error; after three, turn off error status.  */

      937       937    1          if (yyerrstatus) yyerrstatus--;
      938       938    1
      939       939    1          yystate = yyn;
      940       940    1          goto yynewstate;
      941       941    1
      942       942    1        /* Do the default action for the current state.  */
      943       943    1        yydefault:
      944       944    1
      945       945    1          yyn = yydefact[yystate];
CC.C03    File=zbn$cgg:c.:ZBC3TOU                                                   Fri Aug 22 1997  Page=27
      946       946    1          if (yyn == 0)
      947       947    1            goto yyerrlab;
      948       948    1
      949       949    1        /* Do a reduction.  yyn is the number of a rule to reduce with.  */
      950       950    1        yyreduce:
      951       951    1          yylen = yyr2[yyn];
      952       952    1          yyval = yyvsp[1-yylen]; /* implement default value of the action */
      953       953    1
      954       954    1        #if YYDEBUG != 0
      955       955   *S*         if (yydebug)
      956       956   *S*           {
      957       957   *S*             if (yylen == 1)
      958       958   *S*       	fprintf (stderr, "Reducing 1 value via line %d, ",
      959       959   *S*       		 yyrline[yyn]);
      960       960   *S*             else
      961       961   *S*       	fprintf (stderr, "Reducing %d values via line %d, ",
      962       962   *S*       		 yylen, yyrline[yyn]);
      963       963   *S*           }
      964       964   *S*       #endif
      965       965    1
      966       966    1
      967       967    1          switch (yyn) {
      968       968    2
      969       969    2        case 1:
      970       970    2        #line 136 "zbn$cgg:y.:ZBC3TSI"
      971       971    2        { make_std_sets(); ;
      972       972    3            break;}
      973       973    2        case 6:
      974       974    2        #line 158 "zbn$cgg:y.:ZBC3TSI"
      975       975    2        { n_const(yyvsp[-2].yy_str,yyvsp[0].yy_int); free(yyvsp[-2].yy_str); ;
      976       976    3            break;}
      977       977    2        case 7:
      978       978    2        #line 160 "zbn$cgg:y.:ZBC3TSI"
      979       979    2        { n_sconst(yyvsp[-2].yy_str,yyvsp[0].yy_str); free(yyvsp[-2].yy_str); free(yyv
                               sp[0].yy_str); ;
      980       980    3            break;}
      981       981    2        case 8:
CC.C03    File=zbn$cgg:c.:ZBC3TOU                                                   Fri Aug 22 1997  Page=28
      982       982    2        #line 162 "zbn$cgg:y.:ZBC3TSI"
      983       983    2        { fc1 = yyvsp[-2].yy_int; fc2 = yyvsp[0].yy_int; ;
      984       984    3            break;}
      985       985    2        case 9:
      986       986    2        #line 164 "zbn$cgg:y.:ZBC3TSI"
      987       987    2        { fc3 = yyvsp[-2].yy_int; fc4 = yyvsp[0].yy_int; ;
      988       988    3            break;}
      989       989    2        case 11:
      990       990    2        #line 172 "zbn$cgg:y.:ZBC3TSI"
      991       991    2        { make_const(); ;
      992       992    3            break;}
      993       993    2        case 15:
      994       994    2        #line 180 "zbn$cgg:y.:ZBC3TSI"
      995       995    2        { n_prop(yyvsp[0].yy_str,wordsize); free(yyvsp[0].yy_str); ;
      996       996    3            break;}
      997       997    2        case 16:
      998       998    2        #line 182 "zbn$cgg:y.:ZBC3TSI"
      999       999    2        { n_prop(yyvsp[-3].yy_str,yyvsp[-1].yy_int); free(yyvsp[-3].yy_str); ;
     1000      1000    3            break;}
     1001      1001    2        case 20:
     1002      1002    2        #line 197 "zbn$cgg:y.:ZBC3TSI"
     1003      1003    2        { regline(yyvsp[-4].yy_varinfo,yyvsp[-2].yy_varinfo,yyvsp[-1].yy_int); free((c
                               har *) yyvsp[-4].yy_varinfo); free((char *) yyvsp[-2].yy_varinfo); ;
     1004      1004    3            break;}
     1005      1005    2        case 22:
     1006      1006    2        #line 202 "zbn$cgg:y.:ZBC3TSI"
     1007      1007    2        { yyval.yy_int = -1; ;
     1008      1008    3            break;}
     1009      1009    2        case 23:
     1010      1010    2        #line 204 "zbn$cgg:y.:ZBC3TSI"
     1011      1011    2        { yyval.yy_int = reg_any; ;
     1012      1012    3            break;}
     1013      1013    2        case 24:
     1014      1014    2        #line 206 "zbn$cgg:y.:ZBC3TSI"
     1015      1015    2        { yyval.yy_int = yyvsp[-1].yy_int; ;
     1016      1016    3            break;}
     1017      1017    2        case 25:
CC.C03    File=zbn$cgg:c.:ZBC3TOU                                                   Fri Aug 22 1997  Page=29
     1018      1018    2        #line 211 "zbn$cgg:y.:ZBC3TSI"
     1019      1019    2        { yyval.yy_int = reg_any;;
     1020      1020    3            break;}
     1021      1021    2        case 26:
     1022      1022    2        #line 213 "zbn$cgg:y.:ZBC3TSI"
     1023      1023    2        { yyval.yy_int = reg_float;;
     1024      1024    3            break;}
     1025      1025    2        case 27:
     1026      1026    2        #line 215 "zbn$cgg:y.:ZBC3TSI"
     1027      1027    2        { yyval.yy_int = reg_loop;;
     1028      1028    3            break;}
     1029      1029    2        case 28:
     1030      1030    2        #line 217 "zbn$cgg:y.:ZBC3TSI"
     1031      1031    2        { yyval.yy_int = reg_pointer;;
     1032      1032    3            break;}
     1033      1033    2        case 30:
     1034      1034    2        #line 223 "zbn$cgg:y.:ZBC3TSI"
     1035      1035    2        { yyvsp[0].yy_varinfo->vi_next = yyvsp[-2].yy_varinfo; yyval.yy_varinfo = yyvs
                               p[0].yy_varinfo; ;
     1036      1036    3            break;}
     1037      1037    2        case 31:
     1038      1038    2        #line 227 "zbn$cgg:y.:ZBC3TSI"
     1039      1039    2        { NEW(yyval.yy_varinfo,struct varinfo,null_varinfo);
     1040      1040    3              yyval.yy_varinfo->vi_next = 0;
     1041      1041    3              yyval.yy_varinfo->vi_int[0] = n_reg(yyvsp[-1].yy_str,yyvsp[0].yy_str,0,0
                               ,0);
     1042      1042    3              free(yyvsp[-1].yy_str); if(yyvsp[0].yy_str!=0) free(yyvsp[0].yy_str);
     1043      1043    3            ;
     1044      1044    3            break;}
     1045      1045    2        case 32:
     1046      1046    2        #line 233 "zbn$cgg:y.:ZBC3TSI"
     1047      1047    2        { NEW(yyval.yy_varinfo,struct varinfo,null_varinfo);
     1048      1048    3              yyval.yy_varinfo->vi_next = 0;
     1049      1049    3              yyval.yy_varinfo->vi_int[0] = n_reg(yyvsp[-3].yy_str,yyvsp[-2].yy_str,1,
                               yyvsp[0].yy_int,0);
     1050      1050    3              free(yyvsp[-3].yy_str); if(yyvsp[-2].yy_str!=0) free(yyvsp[-2].yy_str);
     1051      1051    3            ;
CC.C03    File=zbn$cgg:c.:ZBC3TOU                                                   Fri Aug 22 1997  Page=30
     1052      1052    3            break;}
     1053      1053    2        case 33:
     1054      1054    2        #line 239 "zbn$cgg:y.:ZBC3TSI"
     1055      1055    2        { NEW(yyval.yy_varinfo,struct varinfo,null_varinfo);
     1056      1056    3              yyval.yy_varinfo->vi_next = 0;
     1057      1057    3              yyval.yy_varinfo->vi_int[0] = n_reg(yyvsp[-5].yy_str,yyvsp[-4].yy_str,2,
                               yyvsp[-2].yy_int,yyvsp[0].yy_int);
     1058      1058    3              free(yyvsp[-5].yy_str); if(yyvsp[-4].yy_str!=0) free(yyvsp[-4].yy_str);
     1059      1059    3            ;
     1060      1060    3            break;}
     1061      1061    2        case 34:
     1062      1062    2        #line 247 "zbn$cgg:y.:ZBC3TSI"
     1063      1063    2        { yyval.yy_str = 0; ;
     1064      1064    3            break;}
     1065      1065    2        case 35:
     1066      1066    2        #line 249 "zbn$cgg:y.:ZBC3TSI"
     1067      1067    2        { yyval.yy_str = yyvsp[-1].yy_str; ;
     1068      1068    3            break;}
     1069      1069    2        case 36:
     1070      1070    2        #line 253 "zbn$cgg:y.:ZBC3TSI"
     1071      1071    2        { register symbol *sy_p;
     1072      1072    3
     1073      1073    3              sy_p = lookup(yyvsp[0].yy_str,symreg,mustexist);
     1074      1074    3              yyval.yy_int = sy_p->sy_value.syv_regno;
     1075      1075    3              free(yyvsp[0].yy_str);
     1076      1076    3            ;
     1077      1077    3            break;}
     1078      1078    2        case 38:
     1079      1079    2        #line 263 "zbn$cgg:y.:ZBC3TSI"
     1080      1080    2        { yyvsp[0].yy_varinfo->vi_next = yyvsp[-2].yy_varinfo; yyval.yy_varinfo = yyvs
                               p[0].yy_varinfo; ;
     1081      1081    3            break;}
     1082      1082    2        case 39:
     1083      1083    2        #line 267 "zbn$cgg:y.:ZBC3TSI"
     1084      1084    2        { register symbol *sy_p;
     1085      1085    3              sy_p = lookup(yyvsp[0].yy_str,symprop,mustexist);
     1086      1086    3              NEW(yyval.yy_varinfo,struct varinfo,null_varinfo);
CC.C03    File=zbn$cgg:c.:ZBC3TOU                                                   Fri Aug 22 1997  Page=31
     1087      1087    3              yyval.yy_varinfo->vi_next=0;
     1088      1088    3              yyval.yy_varinfo->vi_int[0]=sy_p->sy_value.syv_propno;
     1089      1089    3              free(yyvsp[0].yy_str);
     1090      1090    3            ;
     1091      1091    3            break;}
     1092      1092    2        case 40:
     1093      1093    2        #line 277 "zbn$cgg:y.:ZBC3TSI"
     1094      1094    2        { register symbol *sy_p;
     1095      1095    3              sy_p = lookup(yyvsp[0].yy_str,symprop,mustexist);
     1096      1096    3              yyval.yy_int = sy_p->sy_value.syv_propno;
     1097      1097    3              free(yyvsp[0].yy_str);
     1098      1098    3            ;
     1099      1099    3            break;}
     1100      1100    2        case 44:
     1101      1101    2        #line 297 "zbn$cgg:y.:ZBC3TSI"
     1102      1102    2        { n_tok(yyvsp[-6].yy_str,yyvsp[-4].yy_varinfo,yyvsp[-3].yy_int,yyvsp[-2].yy_va
                               rinfo,yyvsp[-1].yy_varinfo);
     1103      1103    3              free(yyvsp[-6].yy_str);
     1104      1104    3              freevi(yyvsp[-4].yy_varinfo);
     1105      1105    3              freevi(yyvsp[-2].yy_varinfo);
     1106      1106    3              freevi(yyvsp[-1].yy_varinfo);
     1107      1107    3            ;
     1108      1108    3            break;}
     1109      1109    2        case 46:
     1110      1110    2        #line 307 "zbn$cgg:y.:ZBC3TSI"
     1111      1111    2        { yyval.yy_varinfo = yyvsp[-1].yy_varinfo; ;
     1112      1112    3            break;}
     1113      1113    2        case 47:
     1114      1114    2        #line 311 "zbn$cgg:y.:ZBC3TSI"
     1115      1115    2        { yyval.yy_varinfo = 0; ;
     1116      1116    3            break;}
     1117      1117    2        case 48:
     1118      1118    2        #line 313 "zbn$cgg:y.:ZBC3TSI"
     1119      1119    2        { yyval.yy_varinfo = yyvsp[-1].yy_varinfo; while (yyval.yy_varinfo->vi_next) y
                               yval.yy_varinfo = yyval.yy_varinfo->vi_next;
     1120      1120    3              yyval.yy_varinfo->vi_next = yyvsp[0].yy_varinfo; yyval.yy_varinfo = yyvs
                               p[-1].yy_varinfo;
CC.C03    File=zbn$cgg:c.:ZBC3TOU                                                   Fri Aug 22 1997  Page=32
     1121      1121    3            ;
     1122      1122    3            break;}
     1123      1123    2        case 49:
     1124      1124    2        #line 319 "zbn$cgg:y.:ZBC3TSI"
     1125      1125    2        { att_type = yyvsp[0].yy_int; ;
     1126      1126    3            break;}
     1127      1127    2        case 50:
     1128      1128    2        #line 322 "zbn$cgg:y.:ZBC3TSI"
     1129      1129    2        { yyval.yy_varinfo = yyvsp[-1].yy_varinfo; ;
     1130      1130    3            break;}
     1131      1131    2        case 52:
     1132      1132    2        #line 327 "zbn$cgg:y.:ZBC3TSI"
     1133      1133    2        { yyvsp[-2].yy_varinfo->vi_next = yyvsp[0].yy_varinfo; yyval.yy_varinfo = yyvs
                               p[-2].yy_varinfo; ;
     1134      1134    3            break;}
     1135      1135    2        case 53:
     1136      1136    2        #line 331 "zbn$cgg:y.:ZBC3TSI"
     1137      1137    2        { NEW(yyval.yy_varinfo, struct varinfo,null_varinfo);
     1138      1138    3              yyval.yy_varinfo->vi_next = 0;
     1139      1139    3              yyval.yy_varinfo->vi_int[0] = att_type;
     1140      1140    3              yyval.yy_varinfo->vi_str[0] = yyvsp[0].yy_str;
     1141      1141    3            ;
     1142      1142    3            break;}
     1143      1143    2        case 54:
     1144      1144    2        #line 339 "zbn$cgg:y.:ZBC3TSI"
     1145      1145    2        { yyval.yy_int = -1; ;
     1146      1146    3            break;}
     1147      1147    2        case 55:
     1148      1148    2        #line 341 "zbn$cgg:y.:ZBC3TSI"
     1149      1149    2        { yyval.yy_int = -2; ;
     1150      1150    3            break;}
     1151      1151    2        case 57:
     1152      1152    2        #line 346 "zbn$cgg:y.:ZBC3TSI"
     1153      1153    2        { if (defcost==VI_NULL)
     1154      1154    3               yyval.yy_varinfo=VI_NULL;
     1155      1155    3              else {
     1156      1156    4               NEW(yyval.yy_varinfo,struct varinfo,null_varinfo);
CC.C03    File=zbn$cgg:c.:ZBC3TOU                                                   Fri Aug 22 1997  Page=33
     1157      1157    4               *yyval.yy_varinfo = *defcost;
     1158      1158    4              }
     1159      1159    3            ;
     1160      1160    3            break;}
     1161      1161    2        case 58:
     1162      1162    2        #line 354 "zbn$cgg:y.:ZBC3TSI"
     1163      1163    2        { NEW (yyval.yy_varinfo,struct varinfo,null_varinfo);
     1164      1164    3              yyval.yy_varinfo->vi_int[0] = yyvsp[-3].yy_int;
     1165      1165    3              yyval.yy_varinfo->vi_int[1] = yyvsp[-1].yy_int;
     1166      1166    3            ;
     1167      1167    3            break;}
     1168      1168    2        case 59:
     1169      1169    2        #line 361 "zbn$cgg:y.:ZBC3TSI"
     1170      1170    2        { yyval.yy_varinfo = 0; ;
     1171      1171    3            break;}
     1172      1172    2        case 60:
     1173      1173    2        #line 363 "zbn$cgg:y.:ZBC3TSI"
     1174      1174    2        { NEW(yyval.yy_varinfo,struct varinfo,null_varinfo);
     1175      1175    3              yyval.yy_varinfo->vi_next = yyvsp[0].yy_varinfo;
     1176      1176    3              yyval.yy_varinfo->vi_int[0] = 0;
     1177      1177    3              yyval.yy_varinfo->vi_str[0] = yyvsp[-1].yy_str;
     1178      1178    3            ;
     1179      1179    3            break;}
     1180      1180    2        case 61:
     1181      1181    2        #line 369 "zbn$cgg:y.:ZBC3TSI"
     1182      1182    2        { NEW(yyval.yy_varinfo,struct varinfo,null_varinfo);
     1183      1183    3              yyval.yy_varinfo->vi_next = yyvsp[0].yy_varinfo;
     1184      1184    3              yyval.yy_varinfo->vi_int[0] = 1;
     1185      1185    3              yyval.yy_varinfo->vi_str[0] = yyvsp[-1].yy_str;
     1186      1186    3            ;
     1187      1187    3            break;}
     1188      1188    2        case 67:
     1189      1189    2        #line 391 "zbn$cgg:y.:ZBC3TSI"
     1190      1190    2        { n_set(yyvsp[-3].yy_str,yyvsp[-1].yy_int); free(yyvsp[-3].yy_str); ;
     1191      1191    3            break;}
     1192      1192    2        case 69:
     1193      1193    2        #line 396 "zbn$cgg:y.:ZBC3TSI"
CC.C03    File=zbn$cgg:c.:ZBC3TOU                                                   Fri Aug 22 1997  Page=34
     1194      1194    2        { yyval.yy_int = setlookup(yyvsp[0].yy_set); ;
     1195      1195    3            break;}
     1196      1196    2        case 70:
     1197      1197    2        #line 400 "zbn$cgg:y.:ZBC3TSI"
     1198      1198    2        { yyval.yy_set = ident_to_set(yyvsp[0].yy_str); free(yyvsp[0].yy_str); ;
     1199      1199    3            break;}
     1200      1200    2        case 71:
     1201      1201    2        #line 402 "zbn$cgg:y.:ZBC3TSI"
     1202      1202    2        { yyval.yy_set = setproduct(yyvsp[-2].yy_set,yyvsp[0].yy_set); ;
     1203      1203    3            break;}
     1204      1204    2        case 72:
     1205      1205    2        #line 404 "zbn$cgg:y.:ZBC3TSI"
     1206      1206    2        { yyval.yy_set = setsum(yyvsp[-2].yy_set,yyvsp[0].yy_set); ;
     1207      1207    3            break;}
     1208      1208    2        case 73:
     1209      1209    2        #line 406 "zbn$cgg:y.:ZBC3TSI"
     1210      1210    2        { yyval.yy_set = setdiff(yyvsp[-2].yy_set,yyvsp[0].yy_set); ;
     1211      1211    3            break;}
     1212      1212    2        case 74:
     1213      1213    2        #line 408 "zbn$cgg:y.:ZBC3TSI"
     1214      1214    2        { yyval.yy_set = yyvsp[-1].yy_set; ;
     1215      1215    3            break;}
     1216      1216    2        case 75:
     1217      1217    2        #line 413 "zbn$cgg:y.:ZBC3TSI"
     1218      1218    2        { defcost = yyvsp[-1].yy_varinfo; ;
     1219      1219    3            break;}
     1220      1220    2        case 78:
     1221      1221    2        #line 421 "zbn$cgg:y.:ZBC3TSI"
     1222      1222    2        { n_instr(yyvsp[-5].yy_str,yyvsp[-4].yy_str,yyvsp[-3].yy_oplist,yyvsp[-2].yy_v
                               arinfo,yyvsp[-1].yy_varinfo); freevi(yyvsp[-1].yy_varinfo); ;
     1223      1223    3            break;}
     1224      1224    2        case 80:
     1225      1225    2        #line 426 "zbn$cgg:y.:ZBC3TSI"
     1226      1226    2        { yyval.yy_oplist = 0; ;
     1227      1227    3            break;}
     1228      1228    2        case 82:
     1229      1229    2        #line 429 "zbn$cgg:y.:ZBC3TSI"
CC.C03    File=zbn$cgg:c.:ZBC3TOU                                                   Fri Aug 22 1997  Page=35
     1230      1230    2        { yyval.yy_oplist = yyvsp[-2].yy_oplist; yyval.yy_oplist->o_next = yyvsp[0].yy
                               _oplist; ;
     1231      1231    3            break;}
     1232      1232    2        case 83:
     1233      1233    2        #line 433 "zbn$cgg:y.:ZBC3TSI"
     1234      1234    2        { NEW(yyval.yy_oplist,struct operand,null_operand);
     1235      1235    3              yyval.yy_oplist->o_next  = 0 ;
     1236      1236    3              yyval.yy_oplist->o_setno = yyvsp[-1].yy_int;
     1237      1237    3              yyval.yy_oplist->o_adorn = yyvsp[0].yy_int;
     1238      1238    3              checkprintformat(yyvsp[-1].yy_int);
     1239      1239    3            ;
     1240      1240    3            break;}
     1241      1241    2        case 84:
     1242      1242    2        #line 442 "zbn$cgg:y.:ZBC3TSI"
     1243      1243    2        { yyval.yy_int = 0; ;
     1244      1244    3            break;}
     1245      1245    2        case 85:
     1246      1246    2        #line 444 "zbn$cgg:y.:ZBC3TSI"
     1247      1247    2        { if (yyvsp[0].yy_int&AD_RWMASK)
     1248      1248    3               error("Only one of :ro,:wo,:rw allowed");
     1249      1249    3              yyval.yy_int = yyvsp[-1].yy_int | yyvsp[0].yy_int;
     1250      1250    3            ;
     1251      1251    3            break;}
     1252      1252    2        case 86:
     1253      1253    2        #line 449 "zbn$cgg:y.:ZBC3TSI"
     1254      1254    2        { yyval.yy_int = yyvsp[-1].yy_int|yyvsp[0].yy_int; ;
     1255      1255    3            break;}
     1256      1256    2        case 87:
     1257      1257    2        #line 453 "zbn$cgg:y.:ZBC3TSI"
     1258      1258    2        { yyval.yy_varinfo = VI_NULL;;
     1259      1259    3            break;}
     1260      1260    2        case 88:
     1261      1261    2        #line 455 "zbn$cgg:y.:ZBC3TSI"
     1262      1262    2        { yyval.yy_varinfo = yyvsp[0].yy_varinfo; ;
     1263      1263    3            break;}
     1264      1264    2        case 89:
     1265      1265    2        #line 459 "zbn$cgg:y.:ZBC3TSI"
CC.C03    File=zbn$cgg:c.:ZBC3TOU                                                   Fri Aug 22 1997  Page=36
     1266      1266    2        { yyval.yy_varinfo = yyvsp[0].yy_varinfo; ;
     1267      1267    3            break;}
     1268      1268    2        case 90:
     1269      1269    2        #line 461 "zbn$cgg:y.:ZBC3TSI"
     1270      1270    2        { yyvsp[-1].yy_varinfo->vi_next = yyvsp[0].yy_varinfo; yyval.yy_varinfo = yyvs
                               p[-1].yy_varinfo; ;
     1271      1271    3            break;}
     1272      1272    2        case 91:
     1273      1273    2        #line 465 "zbn$cgg:y.:ZBC3TSI"
     1274      1274    2        { yyval.yy_varinfo = make_erase(yyvsp[0].yy_str); ;
     1275      1275    3            break;}
     1276      1276    2        case 92:
     1277      1277    2        #line 467 "zbn$cgg:y.:ZBC3TSI"
     1278      1278    2        { NEW(yyval.yy_varinfo, struct varinfo,null_varinfo);
     1279      1279    3              yyval.yy_varinfo->vi_int[0] = -1;
     1280      1280    3              yyval.yy_varinfo->vi_next = VI_NULL;
     1281      1281    3            ;
     1282      1282    3            break;}
     1283      1283    2        case 97:
     1284      1284    2        #line 486 "zbn$cgg:y.:ZBC3TSI"
     1285      1285    2        {startline = lineno; ;
     1286      1286    3            break;}
     1287      1287    2        case 98:
     1288      1288    2        #line 488 "zbn$cgg:y.:ZBC3TSI"
     1289      1289    2        { Xstackflag = 1;
     1290      1290    3              cursetno = yyvsp[0].yy_int;
     1291      1291    3            ;
     1292      1292    3            break;}
     1293      1293    2        case 99:
     1294      1294    2        #line 492 "zbn$cgg:y.:ZBC3TSI"
     1295      1295    2        { Xstackflag = 0;
     1296      1296    3              cursetno = -1;
     1297      1297    3            ;
     1298      1298    3            break;}
     1299      1299    2        case 100:
     1300      1300    2        #line 496 "zbn$cgg:y.:ZBC3TSI"
     1301      1301    2        { cursetno = yyvsp[0].yy_int;
CC.C03    File=zbn$cgg:c.:ZBC3TOU                                                   Fri Aug 22 1997  Page=37
     1302      1302    3              tokpatlen=2;
     1303      1303    3              tokpatset[0] = yyvsp[-5].yy_int;
     1304      1304    3              tokpatset[1] = yyvsp[0].yy_int;
     1305      1305    3              tokpatro[0] = 1;
     1306      1306    3              Xstackflag = 1;
     1307      1307    3            ;
     1308      1308    3            break;}
     1309      1309    2        case 101:
     1310      1310    2        #line 504 "zbn$cgg:y.:ZBC3TSI"
     1311      1311    2        { Xstackflag = 0;
     1312      1312    3              cursetno = -1;
     1313      1313    3            ;
     1314      1314    3            break;}
     1315      1315    2        case 102:
     1316      1316    2        #line 508 "zbn$cgg:y.:ZBC3TSI"
     1317      1317    2        { tokpatlen=0;
     1318      1318    3              tokpatro[0]=0;
     1319      1319    3              n_move(yyvsp[-10].yy_int,yyvsp[-8].yy_int,yyvsp[-5].yy_int,yyvsp[-3].yy_
                               int,yyvsp[0].yy_varinfo);
     1320      1320    3              freevi(yyvsp[0].yy_varinfo);
     1321      1321    3            ;
     1322      1322    3            break;}
     1323      1323    2        case 104:
     1324      1324    2        #line 520 "zbn$cgg:y.:ZBC3TSI"
     1325      1325    2        { Xstackflag = 1; ;
     1326      1326    3            break;}
     1327      1327    2        case 105:
     1328      1328    2        #line 522 "zbn$cgg:y.:ZBC3TSI"
     1329      1329    2        { Xstackflag = 0; ;
     1330      1330    3            break;}
     1331      1331    2        case 109:
     1332      1332    2        #line 531 "zbn$cgg:y.:ZBC3TSI"
     1333      1333    2        { startline = lineno;;
     1334      1334    3            break;}
     1335      1335    2        case 110:
     1336      1336    2        #line 533 "zbn$cgg:y.:ZBC3TSI"
     1337      1337    2        { cursetno = yyvsp[0].yy_int;
CC.C03    File=zbn$cgg:c.:ZBC3TOU                                                   Fri Aug 22 1997  Page=38
     1338      1338    3              tokpatlen=1;
     1339      1339    3              tokpatset[0]=yyvsp[0].yy_int;
     1340      1340    3              tokpatro[0] = 1;
     1341      1341    3            ;
     1342      1342    3            break;}
     1343      1343    2        case 111:
     1344      1344    2        #line 539 "zbn$cgg:y.:ZBC3TSI"
     1345      1345    2        { tokpatlen=0;
     1346      1346    3              tokpatro[0] = 0;
     1347      1347    3              n_test(yyvsp[-4].yy_int,yyvsp[-2].yy_int,yyvsp[0].yy_varinfo);
     1348      1348    3              freevi(yyvsp[0].yy_varinfo);
     1349      1349    3              cursetno = -1;
     1350      1350    3            ;
     1351      1351    3            break;}
     1352      1352    2        case 113:
     1353      1353    2        #line 552 "zbn$cgg:y.:ZBC3TSI"
     1354      1354    2        { Xstackflag = 1; ;
     1355      1355    3            break;}
     1356      1356    2        case 114:
     1357      1357    2        #line 554 "zbn$cgg:y.:ZBC3TSI"
     1358      1358    2        { Xstackflag = 0; ;
     1359      1359    3            break;}
     1360      1360    2        case 117:
     1361      1361    2        #line 562 "zbn$cgg:y.:ZBC3TSI"
     1362      1362    2        {startline = lineno;;
     1363      1363    3            break;}
     1364      1364    2        case 118:
     1365      1365    2        #line 564 "zbn$cgg:y.:ZBC3TSI"
     1366      1366    2        { cursetno = yyvsp[0].yy_int;
     1367      1367    3              tokpatlen=1;
     1368      1368    3              tokpatset[0] = yyvsp[0].yy_int;
     1369      1369    3              tokpatro[0] = 1;
     1370      1370    3            ;
     1371      1371    3            break;}
     1372      1372    2        case 119:
     1373      1373    2        #line 570 "zbn$cgg:y.:ZBC3TSI"
     1374      1374    2        { tokpatro[0] = 0;
CC.C03    File=zbn$cgg:c.:ZBC3TOU                                                   Fri Aug 22 1997  Page=39
     1375      1375    3              n_stack(yyvsp[-7].yy_int,yyvsp[-5].yy_int,yyvsp[-2].yy_int,yyvsp[0].yy_v
                               arinfo);
     1376      1376    3              freevi(yyvsp[0].yy_varinfo);
     1377      1377    3              cursetno = -1;
     1378      1378    3            ;
     1379      1379    3            break;}
     1380      1380    2        case 120:
     1381      1381    2        #line 578 "zbn$cgg:y.:ZBC3TSI"
     1382      1382    2        { yyval.yy_int = -1; nallreg=0;;
     1383      1383    3            break;}
     1384      1384    2        case 121:
     1385      1385    2        #line 580 "zbn$cgg:y.:ZBC3TSI"
     1386      1386    2        { yyval.yy_int = yyvsp[0].yy_int; nallreg = 1; allreg[0] = yyvsp[0].yy_int; ;
     1387      1387    3            break;}
     1388      1388    2        case 122:
     1389      1389    2        #line 587 "zbn$cgg:y.:ZBC3TSI"
     1390      1390    2        { Xstackflag = 1; ;
     1391      1391    3            break;}
     1392      1392    2        case 123:
     1393      1393    2        #line 589 "zbn$cgg:y.:ZBC3TSI"
     1394      1394    2        { Xstackflag = 0; ;
     1395      1395    3            break;}
     1396      1396    2        case 126:
     1397      1397    2        #line 597 "zbn$cgg:y.:ZBC3TSI"
     1398      1398    2        {startline = lineno; tokpatlen=0; inithall();;
     1399      1399    3            break;}
     1400      1400    2        case 127:
     1401      1401    2        #line 599 "zbn$cgg:y.:ZBC3TSI"
     1402      1402    2        { checkhall();
     1403      1403    3              n_coerc(0,0,yyvsp[-3].yy_varinfo,yyvsp[-2].yy_varinfo,(struct varinfo *)
                                0,yyvsp[0].yy_iocc);
     1404      1404    3              freevi(yyvsp[-3].yy_varinfo);
     1405      1405    3              freevi(yyvsp[-2].yy_varinfo);
     1406      1406    3            ;
     1407      1407    3            break;}
     1408      1408    2        case 128:
     1409      1409    2        #line 605 "zbn$cgg:y.:ZBC3TSI"
CC.C03    File=zbn$cgg:c.:ZBC3TOU                                                   Fri Aug 22 1997  Page=40
     1410      1410    2        {startline = lineno;;
     1411      1411    3            break;}
     1412      1412    2        case 129:
     1413      1413    2        #line 607 "zbn$cgg:y.:ZBC3TSI"
     1414      1414    2        { cursetno = yyvsp[0].yy_int;
     1415      1415    3              tokpatlen=1;
     1416      1416    3              tokpatset[0]=yyvsp[0].yy_int;
     1417      1417    3              tokpatro[0] = 1;
     1418      1418    3              inithall();
     1419      1419    3            ;
     1420      1420    3            break;}
     1421      1421    2        case 130:
     1422      1422    2        #line 614 "zbn$cgg:y.:ZBC3TSI"
     1423      1423    2        { tokpatro[0] = 0;
     1424      1424    3              checkhall();
     1425      1425    3              n_coerc(yyvsp[-5].yy_int,yyvsp[-3].yy_int,yyvsp[-2].yy_varinfo,yyvsp[-1]
                               .yy_varinfo,yyvsp[0].yy_varinfo);
     1426      1426    3              freevi(yyvsp[-2].yy_varinfo);
     1427      1427    3              freevi(yyvsp[-1].yy_varinfo);
     1428      1428    3              cursetno = -1;
     1429      1429    3            ;
     1430      1430    3            break;}
     1431      1431    2        case 134:
     1432      1432    2        #line 633 "zbn$cgg:y.:ZBC3TSI"
     1433      1433    2        {emhere=1;;
     1434      1434    3            break;}
     1435      1435    2        case 135:
     1436      1436    2        #line 633 "zbn$cgg:y.:ZBC3TSI"
     1437      1437    2        {emhere=0;;
     1438      1438    3            break;}
     1439      1439    2        case 136:
     1440      1440    2        #line 634 "zbn$cgg:y.:ZBC3TSI"
     1441      1441    2        { empatexpr = yyvsp[0].yy_int;
     1442      1442    3              npatterns = 0;
     1443      1443    3              saferulefound=0;
     1444      1444    3              if (empatlen>maxempatlen)
     1445      1445    3               maxempatlen=empatlen;
CC.C03    File=zbn$cgg:c.:ZBC3TOU                                                   Fri Aug 22 1997  Page=41
     1446      1446    3            ;
     1447      1447    3            break;}
     1448      1448    2        case 137:
     1449      1449    2        #line 641 "zbn$cgg:y.:ZBC3TSI"
     1450      1450    2        { if (!saferulefound)
     1451      1451    3               error("Previous rule impossible on empty stack");
     1452      1452    3              outpatterns();
     1453      1453    3            ;
     1454      1454    3            break;}
     1455      1455    2        case 138:
     1456      1456    2        #line 646 "zbn$cgg:y.:ZBC3TSI"
     1457      1457    2        { npatterns = 0; saferulefound=0; inproc=1; n_proc(yyvsp[-1].yy_str); ;
     1458      1458    3            break;}
     1459      1459    2        case 139:
     1460      1460    2        #line 648 "zbn$cgg:y.:ZBC3TSI"
     1461      1461    2        { if (!saferulefound)
     1462      1462    3               error("Previous rule impossible on empty stack");
     1463      1463    3              outpatterns(); inproc=0;
     1464      1464    3            ;
     1465      1465    3            break;}
     1466      1466    2        case 140:
     1467      1467    2        #line 653 "zbn$cgg:y.:ZBC3TSI"
     1468      1468    2        { skipupto(PAT,"pat"); yyerrok; yyclearin; ;
     1469      1469    3            break;}
     1470      1470    2        case 141:
     1471      1471    2        #line 657 "zbn$cgg:y.:ZBC3TSI"
     1472      1472    2        { empatlen = 0; ;
     1473      1473    3            break;}
     1474      1474    2        case 142:
     1475      1475    2        #line 658 "zbn$cgg:y.:ZBC3TSI"
     1476      1476    2        {emhere=1;;
     1477      1477    3            break;}
     1478      1478    2        case 143:
     1479      1479    2        #line 658 "zbn$cgg:y.:ZBC3TSI"
     1480      1480    2        {emhere=0;;
     1481      1481    3            break;}
     1482      1482    2        case 144:
CC.C03    File=zbn$cgg:c.:ZBC3TOU                                                   Fri Aug 22 1997  Page=42
     1483      1483    2        #line 662 "zbn$cgg:y.:ZBC3TSI"
     1484      1484    2        { empatlen = 1; emmnem[0] = yyvsp[0].yy_int; ;
     1485      1485    3            break;}
     1486      1486    2        case 145:
     1487      1487    2        #line 664 "zbn$cgg:y.:ZBC3TSI"
     1488      1488    2        { NEXT(empatlen,EMPATMAX,"Em pattern");
     1489      1489    3              emmnem[empatlen-1] = yyvsp[0].yy_int;
     1490      1490    3            ;
     1491      1491    3            break;}
     1492      1492    2        case 146:
     1493      1493    2        #line 670 "zbn$cgg:y.:ZBC3TSI"
     1494      1494    2        { saferulefound=1;
     1495      1495    3              callproc=0;
     1496      1496    3            ;
     1497      1497    3            break;}
     1498      1498    2        case 147:
     1499      1499    2        #line 674 "zbn$cgg:y.:ZBC3TSI"
     1500      1500    2        { callproc=0;
     1501      1501    3              if (npatterns>maxrule)
     1502      1502    3               maxrule=npatterns;
     1503      1503    3            ;
     1504      1504    3            break;}
     1505      1505    2        case 148:
     1506      1506    2        #line 679 "zbn$cgg:y.:ZBC3TSI"
     1507      1507    2        { register symbol *sy_p;
     1508      1508    3              saferulefound=1;
     1509      1509    3              sy_p=lookup(yyvsp[-4].yy_str,symproc,mustexist);
     1510      1510    3              callproc=sy_p->sy_value.syv_procoff;
     1511      1511    3              procarg[0] = strlookup(yyvsp[-2].yy_str);
     1512      1512    3              procarg[1] = yyvsp[-1].yy_int;
     1513      1513    3              free(yyvsp[-4].yy_str);
     1514      1514    3              free(yyvsp[-2].yy_str);
     1515      1515    3            ;
     1516      1516    3            break;}
     1517      1517    2        case 149:
     1518      1518    2        #line 691 "zbn$cgg:y.:ZBC3TSI"
     1519      1519    2        { yyval.yy_int = 0; ;
CC.C03    File=zbn$cgg:c.:ZBC3TOU                                                   Fri Aug 22 1997  Page=43
     1520      1520    3            break;}
     1521      1521    2        case 150:
     1522      1522    2        #line 693 "zbn$cgg:y.:ZBC3TSI"
     1523      1523    2        { yyval.yy_int = strlookup(yyvsp[0].yy_str); free(yyvsp[0].yy_str); ;
     1524      1524    3            break;}
     1525      1525    2        case 151:
     1526      1526    2        #line 697 "zbn$cgg:y.:ZBC3TSI"
     1527      1527    2        { inithall(); startline=lineno;
     1528      1528    3              tokpatlen=0; optexact=0; optstack=0;
     1529      1529    3            ;
     1530      1530    3            break;}
     1531      1531    2        case 152:
     1532      1532    2        #line 701 "zbn$cgg:y.:ZBC3TSI"
     1533      1533    2        {
     1534      1534    3              patindex[npatterns++]=codeindex;
     1535      1535    3              checkhall();
     1536      1536    3              dopattern(0,yyvsp[-4].yy_varinfo,yyvsp[-3].yy_varinfo,yyvsp[-2].yy_varin
                               fo,yyvsp[-1].yy_varinfo,yyvsp[0].yy_varinfo);
     1537      1537    3              freevi(yyvsp[-4].yy_varinfo);
     1538      1538    3              freevi(yyvsp[-3].yy_varinfo);
     1539      1539    3              freevi(yyvsp[-2].yy_varinfo);
     1540      1540    3              freevi(yyvsp[-1].yy_varinfo);
     1541      1541    3              freevi(yyvsp[0].yy_varinfo);
     1542      1542    3            ;
     1543      1543    3            break;}
     1544      1544    2        case 153:
     1545      1545    2        #line 713 "zbn$cgg:y.:ZBC3TSI"
     1546      1546    2        { inithall(); ;
     1547      1547    3            break;}
     1548      1548    2        case 155:
     1549      1549    2        #line 714 "zbn$cgg:y.:ZBC3TSI"
     1550      1550    2        { inithall(); ;
     1551      1551    3            break;}
     1552      1552    2        case 157:
     1553      1553    2        #line 719 "zbn$cgg:y.:ZBC3TSI"
     1554      1554    2        { patindex[NEXT(npatterns,MAXPATTERNS,"Patterns")]=codeindex;
     1555      1555    3              if (hall() && !optexact) saferulefound=1;
CC.C03    File=zbn$cgg:c.:ZBC3TOU                                                   Fri Aug 22 1997  Page=44
     1556      1556    3              dopattern(0,yyvsp[-4].yy_varinfo,yyvsp[-3].yy_varinfo,yyvsp[-2].yy_varin
                               fo,yyvsp[-1].yy_varinfo,yyvsp[0].yy_varinfo);
     1557      1557    3              freevi(yyvsp[-4].yy_varinfo);
     1558      1558    3              freevi(yyvsp[-3].yy_varinfo);
     1559      1559    3              freevi(yyvsp[-2].yy_varinfo);
     1560      1560    3              freevi(yyvsp[-1].yy_varinfo);
     1561      1561    3              freevi(yyvsp[0].yy_varinfo);
     1562      1562    3            ;
     1563      1563    3            break;}
     1564      1564    2        case 158:
     1565      1565    2        #line 731 "zbn$cgg:y.:ZBC3TSI"
     1566      1566    2        { startline = lineno; ;
     1567      1567    3            break;}
     1568      1568    2        case 160:
     1569      1569    2        #line 736 "zbn$cgg:y.:ZBC3TSI"
     1570      1570    2        { yyval.yy_int = optexact = 0; ;
     1571      1571    3            break;}
     1572      1572    2        case 161:
     1573      1573    2        #line 738 "zbn$cgg:y.:ZBC3TSI"
     1574      1574    2        { yyval.yy_int = optexact = 1; ;
     1575      1575    3            break;}
     1576      1576    2        case 162:
     1577      1577    2        #line 742 "zbn$cgg:y.:ZBC3TSI"
     1578      1578    2        { yyval.yy_int = optstack = 0; ;
     1579      1579    3            break;}
     1580      1580    2        case 163:
     1581      1581    2        #line 744 "zbn$cgg:y.:ZBC3TSI"
     1582      1582    2        { yyval.yy_int = optstack = 1; ;
     1583      1583    3            break;}
     1584      1584    2        case 164:
     1585      1585    2        #line 749 "zbn$cgg:y.:ZBC3TSI"
     1586      1586    2        { tokpatlen = 0; ;
     1587      1587    3            break;}
     1588      1588    2        case 165:
     1589      1589    2        #line 751 "zbn$cgg:y.:ZBC3TSI"
     1590      1590    2        { NEXT(tokpatlen,TOKPATMAX,"Stack pattern");
     1591      1591    3              tokpatset[tokpatlen-1] = yyvsp[0].yy_int;
CC.C03    File=zbn$cgg:c.:ZBC3TOU                                                   Fri Aug 22 1997  Page=45
     1592      1592    3              checkunstacking(yyvsp[0].yy_int);
     1593      1593    3              if (l_sets[yyvsp[0].yy_int].set_size == 0) {
     1594      1594    4               error("Tokenset is empty or has elements with different sizes");
     1595      1595    4              }
     1596      1596    3            ;
     1597      1597    3            break;}
     1598      1598    2        case 166:
     1599      1599    2        #line 761 "zbn$cgg:y.:ZBC3TSI"
     1600      1600    2        { yyval.yy_varinfo = 0; ;
     1601      1601    3            break;}
     1602      1602    2        case 167:
     1603      1603    2        #line 763 "zbn$cgg:y.:ZBC3TSI"
     1604      1604    2        { yyval.yy_varinfo = yyvsp[0].yy_varinfo;
     1605      1605    3              if (optstack)
     1606      1606    3               error("No sense in giving kills in this pattern");
     1607      1607    3            ;
     1608      1608    3            break;}
     1609      1609    2        case 169:
     1610      1610    2        #line 771 "zbn$cgg:y.:ZBC3TSI"
     1611      1611    2        { yyval.yy_varinfo=yyvsp[-2].yy_varinfo; yyval.yy_varinfo->vi_next = yyvsp[0].
                               yy_varinfo; ;
     1612      1612    3            break;}
     1613      1613    2        case 170:
     1614      1614    2        #line 774 "zbn$cgg:y.:ZBC3TSI"
     1615      1615    2        { cursetno=yyvsp[0].yy_int; ;
     1616      1616    3            break;}
     1617      1617    2        case 171:
     1618      1618    2        #line 775 "zbn$cgg:y.:ZBC3TSI"
     1619      1619    2        { NEW(yyval.yy_varinfo,struct varinfo,null_varinfo);
     1620      1620    3              yyval.yy_varinfo->vi_next = 0;
     1621      1621    3              yyval.yy_varinfo->vi_int[0]=yyvsp[-2].yy_int;
     1622      1622    3              yyval.yy_varinfo->vi_int[1]=yyvsp[0].yy_int;
     1623      1623    3              cursetno = -1;
     1624      1624    3            ;
     1625      1625    3            break;}
     1626      1626    2        case 172:
     1627      1627    2        #line 782 "zbn$cgg:y.:ZBC3TSI"
CC.C03    File=zbn$cgg:c.:ZBC3TOU                                                   Fri Aug 22 1997  Page=46
     1628      1628    2        { NEW(yyval.yy_varinfo,struct varinfo,null_varinfo);
     1629      1629    3              yyval.yy_varinfo->vi_next = 0;
     1630      1630    3              yyval.yy_varinfo->vi_int[0] = -(yyvsp[0].yy_expr.ex_index + 1);
     1631      1631    3              yyval.yy_varinfo->vi_int[1] = 0;
     1632      1632    3            ;
     1633      1633    3            break;}
     1634      1634    2        case 173:
     1635      1635    2        #line 791 "zbn$cgg:y.:ZBC3TSI"
     1636      1636    2        { yyval.yy_varinfo = 0; nallreg=0;;
     1637      1637    3            break;}
     1638      1638    2        case 174:
     1639      1639    2        #line 793 "zbn$cgg:y.:ZBC3TSI"
     1640      1640    2        { yyval.yy_varinfo = yyvsp[0].yy_varinfo; setallreg(yyvsp[0].yy_varinfo); ;
     1641      1641    3            break;}
     1642      1642    2        case 175:
     1643      1643    2        #line 797 "zbn$cgg:y.:ZBC3TSI"
     1644      1644    2        { prophall(yyvsp[0].yy_varinfo->vi_int[0]); ;
     1645      1645    3            break;}
     1646      1646    2        case 176:
     1647      1647    2        #line 799 "zbn$cgg:y.:ZBC3TSI"
     1648      1648    2        { prophall(yyvsp[-2].yy_varinfo->vi_int[0]); yyval.yy_varinfo=yyvsp[-2].yy_var
                               info; yyval.yy_varinfo->vi_next=yyvsp[0].yy_varinfo; ;
     1649      1649    3            break;}
     1650      1650    2        case 177:
     1651      1651    2        #line 803 "zbn$cgg:y.:ZBC3TSI"
     1652      1652    2        { yyval.yy_varinfo=yyvsp[0].yy_varinfo; yyval.yy_varinfo->vi_int[1] = 0; ;
     1653      1653    3            break;}
     1654      1654    2        case 178:
     1655      1655    2        #line 805 "zbn$cgg:y.:ZBC3TSI"
     1656      1656    2        { if (!existalmove(yyvsp[0].yy_iocc,yyval.yy_varinfo->vi_int[0]))
     1657      1657    3               error("No such move defined");
     1658      1658    3              yyval.yy_varinfo=yyvsp[-2].yy_varinfo; yyval.yy_varinfo->vi_int[1] = yyv
                               sp[0].yy_iocc.in_index;
     1659      1659    3            ;
     1660      1660    3            break;}
     1661      1661    2        case 179:
     1662      1662    2        #line 810 "zbn$cgg:y.:ZBC3TSI"
CC.C03    File=zbn$cgg:c.:ZBC3TOU                                                   Fri Aug 22 1997  Page=47
     1663      1663    2        { NEW(yyval.yy_varinfo,struct varinfo,null_varinfo);
     1664      1664    3              yyval.yy_varinfo->vi_next = 0;
     1665      1665    3              yyval.yy_varinfo->vi_int[0] = -1;
     1666      1666    3              yyval.yy_varinfo->vi_int[1] = yyvsp[0].yy_iocc.in_index;
     1667      1667    3            ;
     1668      1668    3            break;}
     1669      1669    2        case 180:
     1670      1670    2        #line 820 "zbn$cgg:y.:ZBC3TSI"
     1671      1671    2        { yyval.yy_varinfo = 0; ;
     1672      1672    3            break;}
     1673      1673    2        case 181:
     1674      1674    2        #line 822 "zbn$cgg:y.:ZBC3TSI"
     1675      1675    2        { yyval.yy_varinfo = yyvsp[0].yy_varinfo; ;
     1676      1676    3            break;}
     1677      1677    2        case 182:
     1678      1678    2        #line 826 "zbn$cgg:y.:ZBC3TSI"
     1679      1679    2        { yyval.yy_varinfo = 0; ;
     1680      1680    3            break;}
     1681      1681    2        case 183:
     1682      1682    2        #line 828 "zbn$cgg:y.:ZBC3TSI"
     1683      1683    2        { if (yyvsp[-1].yy_varinfo!=0) {
     1684      1684    4               register struct varinfo *tvip;
     1685      1685    4               yyval.yy_varinfo=tvip=yyvsp[-1].yy_varinfo;
     1686      1686    4               while (tvip->vi_next!=VI_NULL)
     1687      1687    4                  tvip=tvip->vi_next;
     1688      1688    4               tvip->vi_next = yyvsp[0].yy_varinfo;
     1689      1689    4              } else {
     1690      1690    4               yyval.yy_varinfo = yyvsp[0].yy_varinfo;
     1691      1691    4              }
     1692      1692    3            ;
     1693      1693    3            break;}
     1694      1694    2        case 184:
     1695      1695    2        #line 840 "zbn$cgg:y.:ZBC3TSI"
     1696      1696    2        {instline = lineno; ;
     1697      1697    3            break;}
     1698      1698    2        case 185:
     1699      1699    2        #line 841 "zbn$cgg:y.:ZBC3TSI"
CC.C03    File=zbn$cgg:c.:ZBC3TOU                                                   Fri Aug 22 1997  Page=48
     1700      1700    2        { saveline =lineno; lineno=instline;
     1701      1701    3              yyval.yy_varinfo = gen_inst(yyvsp[-2].yy_str,yyvsp[-1].yy_int); free(yyv
                               sp[-2].yy_str);
     1702      1702    3              lineno = saveline;
     1703      1703    3            ;
     1704      1704    3            break;}
     1705      1705    2        case 186:
     1706      1706    2        #line 846 "zbn$cgg:y.:ZBC3TSI"
     1707      1707    2        { yyval.yy_varinfo = gen_tlab(yyvsp[-1].yy_int); ;
     1708      1708    3            break;}
     1709      1709    2        case 187:
     1710      1710    2        #line 848 "zbn$cgg:y.:ZBC3TSI"
     1711      1711    2        { yyval.yy_varinfo = gen_move(yyvsp[-2].yy_iocc,yyvsp[0].yy_iocc); ;
     1712      1712    3            break;}
     1713      1713    2        case 188:
     1714      1714    2        #line 850 "zbn$cgg:y.:ZBC3TSI"
     1715      1715    2        { yyval.yy_varinfo = gen_test(yyvsp[0].yy_iocc);;
     1716      1716    3            break;}
     1717      1717    2        case 189:
     1718      1718    2        #line 852 "zbn$cgg:y.:ZBC3TSI"
     1719      1719    2        { yyval.yy_varinfo = gen_preturn(); ;
     1720      1720    3            break;}
     1721      1721    2        case 190:
     1722      1722    2        #line 856 "zbn$cgg:y.:ZBC3TSI"
     1723      1723    2        { yyval.yy_int=0; ;
     1724      1724    3            break;}
     1725      1725    2        case 191:
     1726      1726    2        #line 858 "zbn$cgg:y.:ZBC3TSI"
     1727      1727    2        { yyval.yy_int=1; ;
     1728      1728    3            break;}
     1729      1729    2        case 192:
     1730      1730    2        #line 860 "zbn$cgg:y.:ZBC3TSI"
     1731      1731    2        { yyval.yy_int=yyvsp[-1].yy_int; ;
     1732      1732    3            break;}
     1733      1733    2        case 193:
     1734      1734    2        #line 864 "zbn$cgg:y.:ZBC3TSI"
     1735      1735    2        { niops=0; ;
CC.C03    File=zbn$cgg:c.:ZBC3TOU                                                   Fri Aug 22 1997  Page=49
     1736      1736    3            break;}
     1737      1737    2        case 194:
     1738      1738    2        #line 866 "zbn$cgg:y.:ZBC3TSI"
     1739      1739    2        { niops=1;iops[0]=yyvsp[0].yy_iocc; ;
     1740      1740    3            break;}
     1741      1741    2        case 195:
     1742      1742    2        #line 868 "zbn$cgg:y.:ZBC3TSI"
     1743      1743    2        { iops[niops++] = yyvsp[0].yy_iocc; ;
     1744      1744    3            break;}
     1745      1745    2        case 196:
     1746      1746    2        #line 873 "zbn$cgg:y.:ZBC3TSI"
     1747      1747    2        { yyval.yy_varinfo = 0; ;
     1748      1748    3            break;}
     1749      1749    2        case 197:
     1750      1750    2        #line 875 "zbn$cgg:y.:ZBC3TSI"
     1751      1751    2        { yyval.yy_varinfo = yyvsp[0].yy_varinfo; ;
     1752      1752    3            break;}
     1753      1753    2        case 198:
     1754      1754    2        #line 879 "zbn$cgg:y.:ZBC3TSI"
     1755      1755    2        { yyval.yy_varinfo = 0; ;
     1756      1756    3            break;}
     1757      1757    2        case 199:
     1758      1758    2        #line 881 "zbn$cgg:y.:ZBC3TSI"
     1759      1759    2        { checkstacking(yyvsp[-1].yy_iocc.in_set);
     1760      1760    3              NEW(yyval.yy_varinfo,struct varinfo,null_varinfo);
     1761      1761    3              yyval.yy_varinfo->vi_next = yyvsp[0].yy_varinfo;
     1762      1762    3              yyval.yy_varinfo->vi_int[0] = yyvsp[-1].yy_iocc.in_index;
     1763      1763    3            ;
     1764      1764    3            break;}
     1765      1765    2        case 200:
     1766      1766    2        #line 890 "zbn$cgg:y.:ZBC3TSI"
     1767      1767    2        { yyval.yy_varinfo = 0; ;
     1768      1768    3            break;}
     1769      1769    2        case 201:
     1770      1770    2        #line 891 "zbn$cgg:y.:ZBC3TSI"
     1771      1771    2        {emhere=1; ;
     1772      1772    3            break;}
CC.C03    File=zbn$cgg:c.:ZBC3TOU                                                   Fri Aug 22 1997  Page=50
     1773      1773    2        case 202:
     1774      1774    2        #line 892 "zbn$cgg:y.:ZBC3TSI"
     1775      1775    2        { emhere=0; yyval.yy_varinfo = yyvsp[0].yy_varinfo; ;
     1776      1776    3            break;}
     1777      1777    2        case 204:
     1778      1778    2        #line 897 "zbn$cgg:y.:ZBC3TSI"
     1779      1779    2        { yyval.yy_varinfo=yyvsp[-1].yy_varinfo; yyval.yy_varinfo->vi_next=yyvsp[0].yy
                               _varinfo; ;
     1780      1780    3            break;}
     1781      1781    2        case 205:
     1782      1782    2        #line 901 "zbn$cgg:y.:ZBC3TSI"
     1783      1783    2        { NEW(yyval.yy_varinfo,struct varinfo,null_varinfo);
     1784      1784    3              yyval.yy_varinfo->vi_next=0;
     1785      1785    3              yyval.yy_varinfo->vi_int[0] = yyvsp[-1].yy_int;
     1786      1786    3              yyval.yy_varinfo->vi_int[1] = yyvsp[0].yy_int;
     1787      1787    3            ;
     1788      1788    3            break;}
     1789      1789    2        case 206:
     1790      1790    2        #line 910 "zbn$cgg:y.:ZBC3TSI"
     1791      1791    2        { yyval.yy_str = 0; ;
     1792      1792    3            break;}
     1793      1793    2        case 208:
     1794      1794    2        #line 915 "zbn$cgg:y.:ZBC3TSI"
     1795      1795    2        { yyval.yy_int = 0; ;
     1796      1796    3            break;}
     1797      1797    2        case 209:
     1798      1798    2        #line 917 "zbn$cgg:y.:ZBC3TSI"
     1799      1799    2        { yyval.yy_int = yyvsp[0].yy_expr.ex_index; ;
     1800      1800    3            break;}
     1801      1801    2        case 210:
     1802      1802    2        #line 922 "zbn$cgg:y.:ZBC3TSI"
     1803      1803    2        { yyval.yy_iocc = subr_iocc(yyvsp[-1].yy_int,yyvsp[0].yy_int); ;
     1804      1804    3            break;}
     1805      1805    2        case 211:
     1806      1806    2        #line 924 "zbn$cgg:y.:ZBC3TSI"
     1807      1807    2        { yyval.yy_iocc = tokm_iocc(yyvsp[-2].yy_int,yyvsp[0].yy_str); free(yyvsp[0].y
                               y_str); ;
CC.C03    File=zbn$cgg:c.:ZBC3TOU                                                   Fri Aug 22 1997  Page=51
     1808      1808    3            break;}
     1809      1809    2        case 212:
     1810      1810    2        #line 926 "zbn$cgg:y.:ZBC3TSI"
     1811      1811    2        { yyval.yy_iocc = ident_iocc(yyvsp[0].yy_str); free(yyvsp[0].yy_str);;
     1812      1812    3            break;}
     1813      1813    2        case 213:
     1814      1814    2        #line 928 "zbn$cgg:y.:ZBC3TSI"
     1815      1815    2        { yyval.yy_iocc = all_iocc(yyvsp[-1].yy_int,yyvsp[0].yy_int); ;
     1816      1816    3            break;}
     1817      1817    2        case 214:
     1818      1818    2        #line 930 "zbn$cgg:y.:ZBC3TSI"
     1819      1819    2        { if (cursetno < 0) {
     1820      1820    4               error("%%<ident> not allowed here");
     1821      1821    4              }
     1822      1822    3              yyval.yy_iocc = percident_iocc(yyvsp[0].yy_str);
     1823      1823    3              free(yyvsp[0].yy_str);
     1824      1824    3            ;
     1825      1825    3            break;}
     1826      1826    2        case 215:
     1827      1827    2        #line 937 "zbn$cgg:y.:ZBC3TSI"
     1828      1828    2        { yyval.yy_iocc = descr_iocc(yyvsp[-2].yy_str); free(yyvsp[-2].yy_str); ;
     1829      1829    3            break;}
     1830      1830    2        case 216:
     1831      1831    2        #line 941 "zbn$cgg:y.:ZBC3TSI"
     1832      1832    2        { narexpr = 0; ;
     1833      1833    3            break;}
     1834      1834    2        case 217:
     1835      1835    2        #line 943 "zbn$cgg:y.:ZBC3TSI"
     1836      1836    2        { arexp[narexpr++] = yyvsp[0].yy_expr; ;
     1837      1837    3            break;}
     1838      1838    2        case 218:
     1839      1839    2        #line 948 "zbn$cgg:y.:ZBC3TSI"
     1840      1840    2        { if (yyvsp[0].yy_int<1 || yyvsp[0].yy_int>empatlen)
     1841      1841    3               error("Only %d instructions in pattern",empatlen);
     1842      1842    3              yyval.yy_int = yyvsp[0].yy_int;
     1843      1843    3            ;
     1844      1844    3            break;}
CC.C03    File=zbn$cgg:c.:ZBC3TOU                                                   Fri Aug 22 1997  Page=52
     1845      1845    2        case 219:
     1846      1846    2        #line 955 "zbn$cgg:y.:ZBC3TSI"
     1847      1847    2        { yyval.yy_int = yyvsp[0].yy_int;
     1848      1848    3              if (yyvsp[0].yy_int<1 || yyvsp[0].yy_int>tokpatlen) {
     1849      1849    4               error("Only %d tokens in stackpattern",tokpatlen);
     1850      1850    4               yyval.yy_int =1;
     1851      1851    4              }
     1852      1852    3              if (Xstackflag) yyval.yy_int = 0;
     1853      1853    3            ;
     1854      1854    3            break;}
     1855      1855    2        case 220:
     1856      1856    2        #line 965 "zbn$cgg:y.:ZBC3TSI"
     1857      1857    2        { yyval.yy_int = 0; ;
     1858      1858    3            break;}
     1859      1859    2        case 221:
     1860      1860    2        #line 967 "zbn$cgg:y.:ZBC3TSI"
     1861      1861    2        { if (yyvsp[0].yy_int<1 || yyvsp[0].yy_int>2) {
     1862      1862    4               error("Only 2 subregisters allowed");
     1863      1863    4               yyval.yy_int = 1;
     1864      1864    4              } else {
     1865      1865    4               yyval.yy_int = yyvsp[0].yy_int;
     1866      1866    4              }
     1867      1867    3            ;
     1868      1868    3            break;}
     1869      1869    2        case 222:
     1870      1870    2        #line 977 "zbn$cgg:y.:ZBC3TSI"
     1871      1871    2        { if (yyvsp[0].yy_int>=nallreg)
     1872      1872    3               fatal("Only %d registers allocated",nallreg);
     1873      1873    3              yyval.yy_int = yyvsp[0].yy_int;
     1874      1874    3            ;
     1875      1875    3            break;}
     1876      1876    2        case 223:
     1877      1877    2        #line 985 "zbn$cgg:y.:ZBC3TSI"
     1878      1878    2        { yyval.yy_expr = make_expr(TYPINT,EX_CON, (int) (yyvsp[0].yy_int & 0xFFFF), (
                               int) (yyvsp[0].yy_int>>16));
     1879      1879    3            ;
     1880      1880    3            break;}
CC.C03    File=zbn$cgg:c.:ZBC3TOU                                                   Fri Aug 22 1997  Page=53
     1881      1881    2        case 224:
     1882      1882    2        #line 988 "zbn$cgg:y.:ZBC3TSI"
     1883      1883    2        { yyval.yy_expr = make_expr(argtyp(emmnem[yyvsp[0].yy_int-1]),EX_ARG,yyvsp[0].
                               yy_int,0); ;
     1884      1884    3            break;}
     1885      1885    2        case 225:
     1886      1886    2        #line 990 "zbn$cgg:y.:ZBC3TSI"
     1887      1887    2        { yyval.yy_expr = make_expr(TYPADDR,EX_STRING,strlookup(yyvsp[0].yy_str),0); f
                               ree(yyvsp[0].yy_str); ;
     1888      1888    3            break;}
     1889      1889    2        case 226:
     1890      1890    2        #line 992 "zbn$cgg:y.:ZBC3TSI"
     1891      1891    2        { yyval.yy_expr = ident_expr(yyvsp[0].yy_str); free(yyvsp[0].yy_str); ;
     1892      1892    3            break;}
     1893      1893    2        case 227:
     1894      1894    2        #line 994 "zbn$cgg:y.:ZBC3TSI"
     1895      1895    2        { yyval.yy_expr = subreg_expr(yyvsp[-1].yy_int,yyvsp[0].yy_int); ;
     1896      1896    3            break;}
     1897      1897    2        case 228:
     1898      1898    2        #line 996 "zbn$cgg:y.:ZBC3TSI"
     1899      1899    2        { yyval.yy_expr = tokm_expr(yyvsp[-2].yy_int,yyvsp[0].yy_str); free(yyvsp[0].y
                               y_str); ;
     1900      1900    3            break;}
     1901      1901    2        case 229:
     1902      1902    2        #line 998 "zbn$cgg:y.:ZBC3TSI"
     1903      1903    2        { yyval.yy_expr = all_expr(yyvsp[-1].yy_int,yyvsp[0].yy_int); ;
     1904      1904    3            break;}
     1905      1905    2        case 230:
     1906      1906    2        #line 1000 "zbn$cgg:y.:ZBC3TSI"
     1907      1907    2        { if (cursetno < 0) {
     1908      1908    4               error("%%<ident> not allowed here");
     1909      1909    4              }
     1910      1910    3              yyval.yy_expr = perc_ident_expr(yyvsp[0].yy_str);
     1911      1911    3              free(yyvsp[0].yy_str);
     1912      1912    3            ;
     1913      1913    3            break;}
     1914      1914    2        case 231:
CC.C03    File=zbn$cgg:c.:ZBC3TOU                                                   Fri Aug 22 1997  Page=54
     1915      1915    2        #line 1007 "zbn$cgg:y.:ZBC3TSI"
     1916      1916    2        { yyval.yy_expr = make_expr(TYPBOOL,EX_DEFINED,i_expr(yyvsp[-1].yy_expr),0); ;

     1917      1917    3            break;}
     1918      1918    2        case 232:
     1919      1919    2        #line 1009 "zbn$cgg:y.:ZBC3TSI"
     1920      1920    2        { yyval.yy_expr = make_expr(TYPBOOL,EX_SAMESIGN,i_expr(yyvsp[-3].yy_expr),i_ex
                               pr(yyvsp[-1].yy_expr)); ;
     1921      1921    3            break;}
     1922      1922    2        case 233:
     1923      1923    2        #line 1011 "zbn$cgg:y.:ZBC3TSI"
     1924      1924    2        { yyval.yy_expr = make_expr(TYPBOOL,EX_SFIT,i_expr(yyvsp[-3].yy_expr),i_expr(y
                               yvsp[-1].yy_expr)); ;
     1925      1925    3            break;}
     1926      1926    2        case 234:
     1927      1927    2        #line 1013 "zbn$cgg:y.:ZBC3TSI"
     1928      1928    2        { yyval.yy_expr = make_expr(TYPBOOL,EX_UFIT,i_expr(yyvsp[-3].yy_expr),i_expr(y
                               yvsp[-1].yy_expr)); ;
     1929      1929    3            break;}
     1930      1930    2        case 235:
     1931      1931    2        #line 1015 "zbn$cgg:y.:ZBC3TSI"
     1932      1932    2        { yyval.yy_expr = make_expr(TYPINT,EX_ROM,yyvsp[-3].yy_int-1,chkincl(yyvsp[-1]
                               .yy_int,1,3)-1); ;
     1933      1933    3            break;}
     1934      1934    2        case 236:
     1935      1935    2        #line 1017 "zbn$cgg:y.:ZBC3TSI"
     1936      1936    2        { yyval.yy_expr = make_expr(TYPINT,EX_LOWW,yyvsp[-1].yy_int-1,0); ;
     1937      1937    3            break;}
     1938      1938    2        case 237:
     1939      1939    2        #line 1019 "zbn$cgg:y.:ZBC3TSI"
     1940      1940    2        { yyval.yy_expr = make_expr(TYPINT,EX_HIGHW,yyvsp[-1].yy_int-1,0); ;
     1941      1941    3            break;}
     1942      1942    2        case 238:
     1943      1943    2        #line 1021 "zbn$cgg:y.:ZBC3TSI"
     1944      1944    2        { yyval.yy_expr = make_get_name_expr(TYPADDR,EX_GNM,yyvsp[-1].yy_expr); ;
     1945      1945    3            break;}
     1946      1946    2        case 239:
CC.C03    File=zbn$cgg:c.:ZBC3TOU                                                   Fri Aug 22 1997  Page=55
     1947      1947    2        #line 1023 "zbn$cgg:y.:ZBC3TSI"
     1948      1948    2        { yyval.yy_expr = make_get_name_expr(TYPINT,EX_GNMOFFS,yyvsp[-1].yy_expr); ;
     1949      1949    3            break;}
     1950      1950    2        case 240:
     1951      1951    2        #line 1025 "zbn$cgg:y.:ZBC3TSI"
     1952      1952    2        { yyval.yy_expr = make_expr(TYPINT,EX_GETADDR,i_expr(yyvsp[-1].yy_expr),0); ;
     1953      1953    3            break;}
     1954      1954    2        case 241:
     1955      1955    2        #line 1027 "zbn$cgg:y.:ZBC3TSI"
     1956      1956    2        { yyval.yy_expr = make_expr(TYPINT,EX_GETTEMP,i_expr(yyvsp[-1].yy_expr),0); ;
     1957      1957    3            break;}
     1958      1958    2        case 242:
     1959      1959    2        #line 1029 "zbn$cgg:y.:ZBC3TSI"
     1960      1960    2        { yyval.yy_expr = make_expr(TYPINT,EX_ADDRTEMP,i_expr(yyvsp[-3].yy_expr),i_exp
                               r(yyvsp[-1].yy_expr)); ;
     1961      1961    3            break;}
     1962      1962    2        case 243:
     1963      1963    2        #line 1038 "zbn$cgg:y.:ZBC3TSI"
     1964      1964    2        { yyval.yy_expr = yyvsp[-1].yy_expr; ;
     1965      1965    3            break;}
     1966      1966    2        case 244:
     1967      1967    2        #line 1040 "zbn$cgg:y.:ZBC3TSI"
     1968      1968    2        { yyval.yy_expr = make_expr(TYPBOOL,eq2expr(yyvsp[-2].yy_expr,yyvsp[0].yy_expr
                               ),yyvsp[-2].yy_expr.ex_index,yyvsp[0].yy_expr.ex_index); ;
     1969      1969    3            break;}
     1970      1970    2        case 245:
     1971      1971    2        #line 1042 "zbn$cgg:y.:ZBC3TSI"
     1972      1972    2        { yyval.yy_expr = make_expr(TYPBOOL,ne2expr(yyvsp[-2].yy_expr,yyvsp[0].yy_expr
                               ),yyvsp[-2].yy_expr.ex_index,yyvsp[0].yy_expr.ex_index); ;
     1973      1973    3            break;}
     1974      1974    2        case 246:
     1975      1975    2        #line 1044 "zbn$cgg:y.:ZBC3TSI"
     1976      1976    2        { yyval.yy_expr = make_expr(TYPBOOL,EX_NCPLT,i_expr(yyvsp[-2].yy_expr),i_expr(
                               yyvsp[0].yy_expr)); ;
     1977      1977    3            break;}
     1978      1978    2        case 247:
     1979      1979    2        #line 1046 "zbn$cgg:y.:ZBC3TSI"
CC.C03    File=zbn$cgg:c.:ZBC3TOU                                                   Fri Aug 22 1997  Page=56
     1980      1980    2        { yyval.yy_expr = make_expr(TYPBOOL,EX_NCPGT,i_expr(yyvsp[-2].yy_expr),i_expr(
                               yyvsp[0].yy_expr)); ;
     1981      1981    3            break;}
     1982      1982    2        case 248:
     1983      1983    2        #line 1048 "zbn$cgg:y.:ZBC3TSI"
     1984      1984    2        { yyval.yy_expr = make_expr(TYPBOOL,EX_NCPLE,i_expr(yyvsp[-2].yy_expr),i_expr(
                               yyvsp[0].yy_expr)); ;
     1985      1985    3            break;}
     1986      1986    2        case 249:
     1987      1987    2        #line 1050 "zbn$cgg:y.:ZBC3TSI"
     1988      1988    2        { yyval.yy_expr = make_expr(TYPBOOL,EX_NCPGE,i_expr(yyvsp[-2].yy_expr),i_expr(
                               yyvsp[0].yy_expr)); ;
     1989      1989    3            break;}
     1990      1990    2        case 250:
     1991      1991    2        #line 1052 "zbn$cgg:y.:ZBC3TSI"
     1992      1992    2        { yyval.yy_expr = make_expr(TYPBOOL,EX_OR2,b_expr(yyvsp[-2].yy_expr),b_expr(yy
                               vsp[0].yy_expr)); ;
     1993      1993    3            break;}
     1994      1994    2        case 251:
     1995      1995    2        #line 1054 "zbn$cgg:y.:ZBC3TSI"
     1996      1996    2        { yyval.yy_expr = make_expr(TYPBOOL,EX_AND2,b_expr(yyvsp[-2].yy_expr),b_expr(y
                               yvsp[0].yy_expr)); ;
     1997      1997    3            break;}
     1998      1998    2        case 252:
     1999      1999    2        #line 1056 "zbn$cgg:y.:ZBC3TSI"
     2000      2000    2        { yyval.yy_expr = make_expr(TYPINT,EX_OR,i_expr(yyvsp[-2].yy_expr),i_expr(yyvs
                               p[0].yy_expr)); ;
     2001      2001    3            break;}
     2002      2002    2        case 253:
     2003      2003    2        #line 1058 "zbn$cgg:y.:ZBC3TSI"
     2004      2004    2        { yyval.yy_expr = make_expr(TYPINT,EX_XOR,i_expr(yyvsp[-2].yy_expr),i_expr(yyv
                               sp[0].yy_expr)); ;
     2005      2005    3            break;}
     2006      2006    2        case 254:
     2007      2007    2        #line 1060 "zbn$cgg:y.:ZBC3TSI"
     2008      2008    2        { yyval.yy_expr = make_expr(TYPINT,EX_AND,i_expr(yyvsp[-2].yy_expr),i_expr(yyv
                               sp[0].yy_expr)); ;
CC.C03    File=zbn$cgg:c.:ZBC3TOU                                                   Fri Aug 22 1997  Page=57
     2009      2009    3            break;}
     2010      2010    2        case 255:
     2011      2011    2        #line 1062 "zbn$cgg:y.:ZBC3TSI"
     2012      2012    2        { yyval.yy_expr = sum_expr(yyvsp[-2].yy_expr,yyvsp[0].yy_expr); ;
     2013      2013    3            break;}
     2014      2014    2        case 256:
     2015      2015    2        #line 1064 "zbn$cgg:y.:ZBC3TSI"
     2016      2016    2        { yyval.yy_expr = make_expr(TYPINT,EX_MINUS,i_expr(yyvsp[-2].yy_expr),i_expr(y
                               yvsp[0].yy_expr)); ;
     2017      2017    3            break;}
     2018      2018    2        case 257:
     2019      2019    2        #line 1066 "zbn$cgg:y.:ZBC3TSI"
     2020      2020    2        { yyval.yy_expr = make_expr(TYPINT,EX_TIMES,i_expr(yyvsp[-2].yy_expr),i_expr(y
                               yvsp[0].yy_expr)); ;
     2021      2021    3            break;}
     2022      2022    2        case 258:
     2023      2023    2        #line 1068 "zbn$cgg:y.:ZBC3TSI"
     2024      2024    2        { yyval.yy_expr = make_expr(TYPINT,EX_DIVIDE,i_expr(yyvsp[-2].yy_expr),i_expr(
                               yyvsp[0].yy_expr)); ;
     2025      2025    3            break;}
     2026      2026    2        case 259:
     2027      2027    2        #line 1070 "zbn$cgg:y.:ZBC3TSI"
     2028      2028    2        { yyval.yy_expr = make_expr(TYPINT,EX_MOD,i_expr(yyvsp[-2].yy_expr),i_expr(yyv
                               sp[0].yy_expr)); ;
     2029      2029    3            break;}
     2030      2030    2        case 260:
     2031      2031    2        #line 1072 "zbn$cgg:y.:ZBC3TSI"
     2032      2032    2        { yyval.yy_expr = make_expr(TYPINT,EX_LSHIFT,i_expr(yyvsp[-2].yy_expr),i_expr(
                               yyvsp[0].yy_expr)); ;
     2033      2033    3            break;}
     2034      2034    2        case 261:
     2035      2035    2        #line 1074 "zbn$cgg:y.:ZBC3TSI"
     2036      2036    2        { yyval.yy_expr = make_expr(TYPINT,EX_RSHIFT,i_expr(yyvsp[-2].yy_expr),i_expr(
                               yyvsp[0].yy_expr)); ;
     2037      2037    3            break;}
     2038      2038    2        case 262:
     2039      2039    2        #line 1076 "zbn$cgg:y.:ZBC3TSI"
CC.C03    File=zbn$cgg:c.:ZBC3TOU                                                   Fri Aug 22 1997  Page=58
     2040      2040    2        { yyval.yy_expr = make_expr(TYPBOOL,EX_NOT,b_expr(yyvsp[0].yy_expr),0); ;
     2041      2041    3            break;}
     2042      2042    2        case 263:
     2043      2043    2        #line 1078 "zbn$cgg:y.:ZBC3TSI"
     2044      2044    2        { yyval.yy_expr = make_expr(TYPINT,EX_COMP,i_expr(yyvsp[0].yy_expr),0); ;
     2045      2045    3            break;}
     2046      2046    2        case 264:
     2047      2047    2        #line 1080 "zbn$cgg:y.:ZBC3TSI"
     2048      2048    2        { yyval.yy_expr = make_expr(TYPINT,EX_INREG,i_expr(yyvsp[-1].yy_expr),0); ;
     2049      2049    3            break;}
     2050      2050    2        case 265:
     2051      2051    2        #line 1082 "zbn$cgg:y.:ZBC3TSI"
     2052      2052    2        { yyval.yy_expr = make_expr(TYPINT,EX_CON, yyvsp[0].yy_int+1, 0); ;
     2053      2053    3            break;}
     2054      2054    2        case 267:
     2055      2055    2        #line 1088 "zbn$cgg:y.:ZBC3TSI"
     2056      2056    2        { yyval.yy_expr = regvar_expr(yyvsp[-2].yy_expr,yyvsp[-1].yy_int); ;
     2057      2057    3            break;}
     2058      2058    2        case 268:
     2059      2059    2        #line 1093 "zbn$cgg:y.:ZBC3TSI"
     2060      2060    2        { yyval.yy_int = reg_any; ;
     2061      2061    3            break;}
     2062      2062    2        case 269:
     2063      2063    2        #line 1095 "zbn$cgg:y.:ZBC3TSI"
     2064      2064    2        { yyval.yy_int = yyvsp[0].yy_int; ;
     2065      2065    3            break;}
     2066      2066    2        }
     2067      2067    1           /* the action file gets copied in in place of this dollarsign */
     2068      2068    1        #line 327 "bison.simple"
     2069      2069    1
     2070      2070    1
     2071      2071    1          yyvsp -= yylen;
     2072      2072    1          yyssp -= yylen;
     2073      2073    1        #ifdef YYLSP_NEEDED
     2074      2074   *S*         yylsp -= yylen;
     2075      2075   *S*       #endif
     2076      2076    1
CC.C03    File=zbn$cgg:c.:ZBC3TOU                                                   Fri Aug 22 1997  Page=59
     2077      2077    1        #if YYDEBUG != 0
     2078      2078   *S*         if (yydebug)
     2079      2079   *S*           {
     2080      2080   *S*             short *ssp1 = yyss - 1;
     2081      2081   *S*             fprintf (stderr, "state stack now");
     2082      2082   *S*             while (ssp1 != yyssp)
     2083      2083   *S*       	fprintf (stderr, " %d", *++ssp1);
     2084      2084   *S*             fprintf (stderr, "\n");
     2085      2085   *S*           }
     2086      2086   *S*       #endif
     2087      2087    1
     2088      2088    1          *++yyvsp = yyval;
     2089      2089    1
     2090      2090    1        #ifdef YYLSP_NEEDED
     2091      2091   *S*         yylsp++;
     2092      2092   *S*         if (yylen == 0)
     2093      2093   *S*           {
     2094      2094   *S*             yylsp->first_line = yylloc.first_line;
     2095      2095   *S*             yylsp->first_column = yylloc.first_column;
     2096      2096   *S*             yylsp->last_line = (yylsp-1)->last_line;
     2097      2097   *S*             yylsp->last_column = (yylsp-1)->last_column;
     2098      2098   *S*             yylsp->text = 0;
     2099      2099   *S*           }
     2100      2100   *S*         else
     2101      2101   *S*           {
     2102      2102   *S*             yylsp->last_line = (yylsp+yylen-1)->last_line;
     2103      2103   *S*             yylsp->last_column = (yylsp+yylen-1)->last_column;
     2104      2104   *S*           }
     2105      2105   *S*       #endif
     2106      2106    1
     2107      2107    1          /* Now "shift" the result of the reduction.
     2108      2108    1             Determine what state that goes to,
     2109      2109    1             based on the state we popped back to
     2110      2110    1             and the rule number reduced by.  */
     2111      2111    1
     2112      2112    1          yyn = yyr1[yyn];
     2113      2113    1
CC.C03    File=zbn$cgg:c.:ZBC3TOU                                                   Fri Aug 22 1997  Page=60
     2114      2114    1          yystate = yypgoto[yyn - YYNTBASE] + *yyssp;
     2115      2115    1          if (yystate >= 0 && yystate <= YYLAST && yycheck[yystate] == *yyssp)
     2116      2116    1            yystate = yytable[yystate];
     2117      2117    1          else
     2118      2118    1            yystate = yydefgoto[yyn - YYNTBASE];
     2119      2119    1
     2120      2120    1          goto yynewstate;
     2121      2121    1
     2122      2122    1        yyerrlab:   /* here on detecting error */
     2123      2123    1
     2124      2124    1          if (! yyerrstatus)
     2125      2125    1            /* If not already recovering from an error, report this error.  */
     2126      2126    1            {
     2127      2127    2              ++yynerrs;
     2128      2128    2              yyerror("parse error");
     2129      2129    2              if ((yyn = yypact[yystate]) > YYFLAG && yyn < YYLAST) {
     2130      2130    3                 int x, count;
     2131      2131    3                 count = 0;
     2132      2132    3                 for (x = 0; x < (sizeof(yytname) / sizeof(char *)); x++) {
     2133      2133    4                    if ((yycheck[x + yyn] == x) && (yytname[x])) {
     2134      2134    5                       fprintf(stderr, "%s %s",
     2135      2135    5                              count == 0 ? "expecting:" : " or",
     2136      2136    5                              yytname[x]);
     2137      2137    5                       count++;
     2138      2138    5                    }
     2139      2139    4                 }
     2140      2140    3                 fprintf(stderr, "%s", count > 0 ? "\n" : "");
     2141      2141    3              }
     2142      2142    2            }
     2143      2143    1
     2144      2144    1          if (yyerrstatus == 3)
     2145      2145    1            {
     2146      2146    2              /* if just tried and failed to reuse lookahead token after an error, dis
                               card it.  */
     2147      2147    2
     2148      2148    2              /* return failure if at end of input */
     2149      2149    2              if (yychar == YYEOF)
CC.C03    File=zbn$cgg:c.:ZBC3TOU                                                   Fri Aug 22 1997  Page=61
     2150      2150    2        	YYABORT;
     2151      2151    2
     2152      2152    2        #if YYDEBUG != 0
     2153      2153   *S*             if (yydebug)
     2154      2154   *S*       	fprintf(stderr, "Discarding token %d (%s).\n", yychar, yytname[yychar1]);
     2155      2155   *S*       #endif
     2156      2156    2
     2157      2157    2              yychar = YYEMPTY;
     2158      2158    2            }
     2159      2159    1
     2160      2160    1          /* Else will try to reuse lookahead token
     2161      2161    1             after shifting the error token.  */
     2162      2162    1
     2163      2163    1          yyerrstatus = 3;		/* Each real token shifted decrements this */
     2164      2164    1
     2165      2165    1          goto yyerrhandle;
     2166      2166    1
     2167      2167    1        yyerrdefault:  /* current state does not do anything special for the error tok
                               en. */
     2168      2168    1
     2169      2169    1        #if 0
     2170      2170   *S*         /* This is wrong; only states that explicitly want error tokens
     2171      2171   *S*            should shift them.  */
     2172      2172   *S*         yyn = yydefact[yystate];  /* If its default is to accept any token, ok.  Oth
                               erwise pop it.*/
     2173      2173   *S*         if (yyn) goto yydefault;
     2174      2174   *S*       #endif
     2175      2175    1
     2176      2176    1        yyerrpop:   /* pop the current state because it cannot handle the error token
                               */
     2177      2177    1
     2178      2178    1          if (yyssp == yyss) YYABORT;
     2179      2179    1          yyvsp--;
     2180      2180    1          yystate = *--yyssp;
     2181      2181    1        #ifdef YYLSP_NEEDED
     2182      2182   *S*         yylsp--;
     2183      2183   *S*       #endif
CC.C03    File=zbn$cgg:c.:ZBC3TOU                                                   Fri Aug 22 1997  Page=62
     2184      2184    1
     2185      2185    1        #if YYDEBUG != 0
     2186      2186   *S*         if (yydebug)
     2187      2187   *S*           {
     2188      2188   *S*             short *ssp1 = yyss - 1;
     2189      2189   *S*             fprintf (stderr, "Error: state stack now");
     2190      2190   *S*             while (ssp1 != yyssp)
     2191      2191   *S*       	fprintf (stderr, " %d", *++ssp1);
     2192      2192   *S*             fprintf (stderr, "\n");
     2193      2193   *S*           }
     2194      2194   *S*       #endif
     2195      2195    1
     2196      2196    1        yyerrhandle:
     2197      2197    1
     2198      2198    1          yyn = yypact[yystate];
     2199      2199    1          if (yyn == YYFLAG)
     2200      2200    1            goto yyerrdefault;
     2201      2201    1
     2202      2202    1          yyn += YYTERROR;
     2203      2203    1          if (yyn < 0 || yyn > YYLAST || yycheck[yyn] != YYTERROR)
     2204      2204    1            goto yyerrdefault;
     2205      2205    1
     2206      2206    1          yyn = yytable[yyn];
     2207      2207    1          if (yyn < 0)
     2208      2208    1            {
     2209      2209    2              if (yyn == YYFLAG)
     2210      2210    2        	goto yyerrpop;
     2211      2211    2              yyn = -yyn;
     2212      2212    2              goto yyreduce;
     2213      2213    2            }
     2214      2214    1          else if (yyn == 0)
     2215      2215    1            goto yyerrpop;
     2216      2216    1
     2217      2217    1          if (yyn == YYFINAL)
     2218      2218    1            YYACCEPT;
     2219      2219    1
     2220      2220    1        #if YYDEBUG != 0
CC.C03    File=zbn$cgg:c.:ZBC3TOU                                                   Fri Aug 22 1997  Page=63
     2221      2221   *S*         if (yydebug)
     2222      2222   *S*           fprintf(stderr, "Shifting error token, ");
     2223      2223   *S*       #endif
     2224      2224    1
     2225      2225    1          *++yyvsp = yylval;
     2226      2226    1        #ifdef YYLSP_NEEDED
     2227      2227   *S*         *++yylsp = yylloc;
     2228      2228   *S*       #endif
     2229      2229    1
     2230      2230    1          yystate = yyn;
     2231      2231    1          goto yynewstate;
     2232      2232    1        }
     2233      2233
     2234      2234             #line 1097 "zbn$cgg:y.:ZBC3TSI"
     2235      2235
     2236      2236             #include "scan:c"
"zbn$scan:c.:ZBC3TOU.", line 104: (warning) no global register variable allowed
"zbn$scan:l.:ZBC3TSI", line 186: (warning) function yylex called before prototype definition
     2237      3119
---  Include file information  ---

   zbn$param:h.:ZBC3TOU. is referenced
   zbm$local:h.:ZBC3TOU. is referenced
   zbn$varinfo:h.:ZBC3TOU. is referenced
   zbn$lookup:h.:ZBC3TOU. is referenced
   zbn$set:h.:ZBC3TOU. is referenced
   zbn$iocc:h.:ZBC3TOU. is referenced
   zbn$instruct:h.:ZBC3TOU. is referenced
   zbn$cost:h.:ZBC3TOU. is referenced
   zbn$expr:h.:ZBC3TOU. is referenced
   zbn$extern:h.:ZBC3TOU. is referenced
   cgg_cg:h.:ZBC3TOU. is referenced
   em_reg:h.:ZBC3TOU. is referenced
   stdio:h.:LIB_E05. is referenced
   stdlib:h.:LIB_E05. is referenced
   zbn$scan:c.:ZBC3TOU. is referenced

CC.C03    File=zbn$cgg:c.:ZBC3TOU                                                   Fri Aug 22 1997  Page=64
4 warnings were detected in the file zbn$cgg:c.:ZBC3TOU
