
PL6.E3A0      #001=IDSSET File=IDSSET.:ZIC0TSI                                   FRI 09/05/97 11:32 Page:1
        1        1        /*M*     IDSSET    TO ALLOW A SET TO BE DONE AT RUN TIME */
        2        2        /*T***********************************************************/
        3        3        /*T*                                                         */
        4        4        /*T* Copyright (c) Bull HN Information Systems Inc., 1997    */
        5        5        /*T*                                                         */
        6        6        /*T***********************************************************/
        7        7        /*P*
        8        8        NAME:    IDSSET
        9        9        PURPOSE: TO ALLOW THE COBOL AND FORTRAN USER TO DO A SET
       10       10                 AT RUN TIME.
       11       11                 THE PROGRAM IS CALLED AND PASSED TWO PARAMETERS
       12       12                 THE FIRST PARAMETER:
       13       13                      IS A STRING OF 255 CHARACTERS THAT HAS THE SET
       14       14                      CMD IN THE STRING.
       15       15                      EXAMPLE. ' !SET M$LO LP '
       16       16                      THE STRING CONTAINS THREE FIELDS:
       17       17                           1. THE STRING '!SET' OR 'SET'
       18       18                           2. THE DCB TO BE SET
       19       19                           3. THE FID THAT THE DCB IS TO BE SET TO.
       20       20                      LIMITS:
       21       21                           1. EACH FIELD MUST BE TERMINATED BY AT LEAST
       22       22                                ONE BLANK.
       23       23                           2. NO FIELD CAN CONTAIN A BLANK.
       24       24                      NOTE:
       25       25                           1. THE THIRD FIELD CAN BE TERMINATED BY A '. '
       26       26                                AND THE '.' WILL BE REPLACED BY A ' '.
       27       27                           2. THE FIRST ARG. WILL NOT BE CHANGED.
       28       28                           3. ONLY SET CMDS ARE ALLOWED.
       29       29                 SECOND PARAMETER:
       30       30                      IS A UBIN (36) (ONE WORD) ERROR CODE.
       31       31                      THIS IS A ERROR CODE THAT IS RETURNED TO THE CALLING
       32       32                      CALLING PROGRAM.
       33       33                      NOTE:
       34       34                           1. IF ERROR CODE EQUALS ZERO THEN THE SET CMD
       35       35                                WAS PROCESSED.
       36       36                           2. IF ERROR CODE DOESN'T EQUAL ZERO THEN THE
       37       37                                SET CMD WASN'T PROCESSED AND THE SYSTEM
PL6.E3A0      #001=IDSSET File=IDSSET.:ZIC0TSI                                   FRI 09/05/97 11:32 Page:2
       38       38                                ERROR CODE IS RETURNED.
       39       39        */
       40       40        IDSSET:
       41       41            PROC (SET_CMD,ERROR_CODE);
       42       42    1   DCL SET_CMD CHAR (256);
       43       43    1   DCL ERROR_CODE UBIN (36);
       44       44    1   DCL WORD_ UBIN (36) BASED;
       45       45    1   DCL B$TCB$ PTR SYMREF;
       46       46    1   DCL 1 SET_CMD_S CHAR (256) AUTO;
       47       47    1   DCL I UBIN (36) AUTO;
       48       48    1   DCL START UBIN (36) AUTO;
       49       49         %INCLUDE CP_6;
       50      130         %INCLUDE CP_6_SUBS;
       51      670         %FPT_YC;
       52      687         %B$TCB;
       53      690         %B$EXCFR;
       54      708         %EJECT;
PL6.E3A0      #001=IDSSET File=IDSSET.:ZIC0TSI                                   FRI 09/05/97 11:32 Page:3
       55      709    1       FPT_YC.CMD_ = VECTOR(SET_CMD_S);
       56      710    1       I=0;
       57      711    1       CALL SKIP_BLANKS;
       58      712    1       IF SUBSTR(SET_CMD,I,1)='!'
       59      713    2       THEN DO;
       60      714    2           I=I+1;
       61      715    2           CALL SKIP_BLANKS;
       62      716    2           END;
       63      717    1       START=I;
       64      718    1       IF SUBSTR(SET_CMD,I,4)='SET '
       65      719    2       THEN DO;
       66      720    2           I=I+4;
       67      721    2           CALL SKIP_BLANKS;
       68      722    2           CALL NEXT_BLANK;
       69      723    2           CALL SKIP_BLANKS;
       70      724    2           CALL NEXT_BLANK;
       71      725    2           IF SUBSTR(SET_CMD,I-1,1)='.' THEN I=I-2;
       72      726    2           SET_CMD_S=SUBSTR(SET_CMD,START,I-START);
       73      727    2           END;
       74      728    2       ELSE DO;
       75      729    2           SET_CMD_S=' ';
       76      730    2           END;
       77      731    1       CALL M$YC (FPT_YC) ALTRET (ERROR_);
       78      732    1       ERROR_CODE=0;
       79      733    1       RETURN;
       80      734    1   ERROR_:
       81      735    1       ERROR_CODE=ADDR(B$TCB$->B$TCB.ALT$->B$EXCFR.ERR.FCG)->WORD_;
       82      736    1       RETURN;
       83      737         %EJECT;
PL6.E3A0      #001=IDSSET File=IDSSET.:ZIC0TSI                                   FRI 09/05/97 11:32 Page:4
       84      738    1   SKIP_BLANKS:
       85      739    1       PROC;
       86      740    3       DO WHILE (SUBSTR(SET_CMD,I,1)=' '&I<255);
       87      741    3           I=I+1;
       88      742    3           END;
       89      743    2       RETURN;
       90      744    2   END SKIP_BLANKS;
       91      745    1   NEXT_BLANK:
       92      746    1       PROC;
       93      747    3       DO WHILE (SUBSTR(SET_CMD,I,1)~=' '&I<255);
       94      748    3           I=I+1;
       95      749    4           IF SUBSTR (SET_CMD, I-1, 1) = '''' THEN DO;
       96      750    4               CALL NEXT_QUOTE;
       97      751    4               RETURN;
       98      752    4               END;
       99      753    3           END;
      100      754    2       RETURN;
      101      755    2   END NEXT_BLANK;
      102      756    1   NEXT_QUOTE: PROC;
      103      757    3       DO WHILE (SUBSTR (SET_CMD, I, 1) ~= '''' & I<255);
      104      758    3           I = I + 1;
      105      759    3           END;
      106      760    2       I = I + 1;
      107      761    2       RETURN;
      108      762    2   END NEXT_QUOTE;
      109      763    1   END IDSSET;
      110      764        %EOD;

PL6.E3A0      #001=IDSSET File=IDSSET.:ZIC0TSI                                   FRI 09/05/97 11:32 Page:5
--  Include file information  --

   CP_6_SUBS.:LIB_E05  is referenced.
   CP_6.:LIB_E05  cannot be made into a system file and is referenced.
   B$JIT_C.:E05TOU  was found in the system file and is never referenced.
   CP_6_C.:E05TOU  was found in the system file and is referenced.
      No diagnostics issued in procedure IDSSET.

   Procedure IDSSET requires 152 words for executable code.
   Procedure IDSSET requires 78 words of local(AUTO) storage.

PL6.E3A0      #001=IDSSET File=IDSSET.:ZIC0TSI                                   FRI 09/05/97 11:32 Page:6

 Object Unit name= IDSSET                                     File name= IDSSET.:ZIC0TOU
 UTS= SEP 05 '97 11:32:41.68 FRI                              Compiler= PL-6/E31         Sev=      00
 SharedLib= :SHARED_SYSTEM                                    Alt SharedLib=


    ****  Control sections  ****

 Sect   Type Bound  Init  Size OctSiz  Section name(segment info)
    0   DCB   even  none     0      0  M$UC
    1   Data  even  none     8     10  IDSSET
    2  RoData even  UTS      1      1  IDSSET
    3   Proc  even  none   152    230  IDSSET
    4  RoData even  none     5      5  IDSSET

    ****  Entry defs  ****

                              Check   Calling
                             calling  sequence
  Sect OctLoc Primary Altret sequence   type   Parms  Name
     3      0   yes            yes      Std        2  IDSSET

  ****  Entry refs  ****

         Check        Calling
        calling       sequence
Altret sequence SRef   type   Args  Name
                       nStd      0 X66_AUTO_2
                       nStd      0 X66_ARET

  ****  Data refs  ****

  Flags:  r = read only, s = secondary
Flgs Name                             Flgs Name                             Flgs Name
     B$TCB$                                M$UC
PL6.E3A0      #001=IDSSET File=IDSSET.:ZIC0TSI                                   FRI 09/05/97 11:32 Page:7

  ****  Segment refs  ****

  Flags:  r = read only, s = secondary
Flgs Name                             Flgs Name                             Flgs Name
     NULLSID                               ISSID
PL6.E3A0      #001=IDSSET File=IDSSET.:ZIC0TSI                                   FRI 09/05/97 11:32 Page:8


        1        1        /*M*     IDSSET    TO ALLOW A SET TO BE DONE AT RUN TIME */
        2        2        /*T***********************************************************/
        3        3        /*T*                                                         */
        4        4        /*T* Copyright (c) Bull HN Information Systems Inc., 1997    */
        5        5        /*T*                                                         */
        6        6        /*T***********************************************************/
        7        7        /*P*
        8        8        NAME:    IDSSET
        9        9        PURPOSE: TO ALLOW THE COBOL AND FORTRAN USER TO DO A SET
       10       10                 AT RUN TIME.
       11       11                 THE PROGRAM IS CALLED AND PASSED TWO PARAMETERS
       12       12                 THE FIRST PARAMETER:
       13       13                      IS A STRING OF 255 CHARACTERS THAT HAS THE SET
       14       14                      CMD IN THE STRING.
       15       15                      EXAMPLE. ' !SET M$LO LP '
       16       16                      THE STRING CONTAINS THREE FIELDS:
       17       17                           1. THE STRING '!SET' OR 'SET'
       18       18                           2. THE DCB TO BE SET
       19       19                           3. THE FID THAT THE DCB IS TO BE SET TO.
       20       20                      LIMITS:
       21       21                           1. EACH FIELD MUST BE TERMINATED BY AT LEAST
       22       22                                ONE BLANK.
       23       23                           2. NO FIELD CAN CONTAIN A BLANK.
       24       24                      NOTE:
       25       25                           1. THE THIRD FIELD CAN BE TERMINATED BY A '. '
       26       26                                AND THE '.' WILL BE REPLACED BY A ' '.
       27       27                           2. THE FIRST ARG. WILL NOT BE CHANGED.
       28       28                           3. ONLY SET CMDS ARE ALLOWED.
       29       29                 SECOND PARAMETER:
       30       30                      IS A UBIN (36) (ONE WORD) ERROR CODE.
       31       31                      THIS IS A ERROR CODE THAT IS RETURNED TO THE CALLING
       32       32                      CALLING PROGRAM.
       33       33                      NOTE:
       34       34                           1. IF ERROR CODE EQUALS ZERO THEN THE SET CMD
       35       35                                WAS PROCESSED.
       36       36                           2. IF ERROR CODE DOESN'T EQUAL ZERO THEN THE
PL6.E3A0      #001=IDSSET File=IDSSET.:ZIC0TSI                                   FRI 09/05/97 11:32 Page:9
       37       37                                SET CMD WASN'T PROCESSED AND THE SYSTEM
       38       38                                ERROR CODE IS RETURNED.
       39       39        */
       40       40        IDSSET:
       41       41            PROC (SET_CMD,ERROR_CODE);

     41  3 000000   000000 700200 xent  IDSSET       TSX0  ! X66_AUTO_2
         3 000001   000116 000002                    ZERO    78,2

       42       42    1   DCL SET_CMD CHAR (256);
       43       43    1   DCL ERROR_CODE UBIN (36);
       44       44    1   DCL WORD_ UBIN (36) BASED;
       45       45    1   DCL B$TCB$ PTR SYMREF;
       46       46    1   DCL 1 SET_CMD_S CHAR (256) AUTO;
       47       47    1   DCL I UBIN (36) AUTO;
       48       48    1   DCL START UBIN (36) AUTO;
       49       49         %INCLUDE CP_6;
       50      130         %INCLUDE CP_6_SUBS;
       51      670         %FPT_YC;
       52      687         %B$TCB;
       53      690         %B$EXCFR;
       54      708         %EJECT;
PL6.E3A0      #001=IDSSET File=IDSSET.:ZIC0TSI                                   FRI 09/05/97 11:32 Page:10
       55      709    1       FPT_YC.CMD_ = VECTOR(SET_CMD_S);

    709  3 000002   000000 235000 4                  LDA     0
         3 000003   200114 452500                    STP2    START+6,,AUTO
         3 000004   200114 236100                    LDQ     START+6,,AUTO
         3 000005   000005 036003                    ADLQ    5,DU
         3 000006   000000 757000 1                  STAQ    FPT_YC

       56      710    1       I=0;

    710  3 000007   200105 450100                    STZ     I,,AUTO

       57      711    1       CALL SKIP_BLANKS;

    711  3 000010   000105 701000 3                  TSX1    SKIP_BLANKS
         3 000011   000000 011000                    NOP     0

       58      712    1       IF SUBSTR(SET_CMD,I,1)='!'

    712  3 000012   200003 470500                    LDP0    @SET_CMD,,AUTO
         3 000013   200105 235100                    LDA     I,,AUTO
         3 000014   040000 106505                    CMPC    fill='040'O
         3 000015   000000 000001                    ADSC9   0,A,PR0                  cn=0,n=1
         3 000016   000001 000001 4                  ADSC9   1                        cn=0,n=1
         3 000017   000024 601000 3                  TNZ     s:717

       59      713    2       THEN DO;

       60      714    2           I=I+1;

    714  3 000020   000001 035007                    ADLA    1,DL
         3 000021   200105 755100                    STA     I,,AUTO

       61      715    2           CALL SKIP_BLANKS;

    715  3 000022   000105 701000 3                  TSX1    SKIP_BLANKS
         3 000023   000000 011000                    NOP     0
PL6.E3A0      #001=IDSSET File=IDSSET.:ZIC0TSI                                   FRI 09/05/97 11:32 Page:11

       62      716    2           END;

       63      717    1       START=I;

    717  3 000024   200105 235100                    LDA     I,,AUTO
         3 000025   200106 755100                    STA     START,,AUTO

       64      718    1       IF SUBSTR(SET_CMD,I,4)='SET '

    718  3 000026   200003 470500                    LDP0    @SET_CMD,,AUTO
         3 000027   040000 106505                    CMPC    fill='040'O
         3 000030   000000 000004                    ADSC9   0,A,PR0                  cn=0,n=4
         3 000031   000000 000004 2                  ADSC9   0                        cn=0,n=4
         3 000032   000065 601000 3                  TNZ     s:729

       65      719    2       THEN DO;

       66      720    2           I=I+4;

    720  3 000033   000004 035007                    ADLA    4,DL
         3 000034   200105 755100                    STA     I,,AUTO

       67      721    2           CALL SKIP_BLANKS;

    721  3 000035   000105 701000 3                  TSX1    SKIP_BLANKS
         3 000036   000000 011000                    NOP     0

       68      722    2           CALL NEXT_BLANK;

    722  3 000037   000135 701000 3                  TSX1    NEXT_BLANK
         3 000040   000000 011000                    NOP     0

       69      723    2           CALL SKIP_BLANKS;

    723  3 000041   000105 701000 3                  TSX1    SKIP_BLANKS
         3 000042   000000 011000                    NOP     0
PL6.E3A0      #001=IDSSET File=IDSSET.:ZIC0TSI                                   FRI 09/05/97 11:32 Page:12

       70      724    2           CALL NEXT_BLANK;

    724  3 000043   000135 701000 3                  TSX1    NEXT_BLANK
         3 000044   000000 011000                    NOP     0

       71      725    2           IF SUBSTR(SET_CMD,I-1,1)='.' THEN I=I-2;

    725  3 000045   200003 470500                    LDP0    @SET_CMD,,AUTO
         3 000046   200105 235100                    LDA     I,,AUTO
         3 000047   040000 106505                    CMPC    fill='040'O
         3 000050   077777 600001                    ADSC9   -1,A,PR0                 cn=3,n=1
         3 000051   000002 000001 4                  ADSC9   2                        cn=0,n=1
         3 000052   000055 601000 3                  TNZ     s:726

    725  3 000053   000002 135007                    SBLA    2,DL
         3 000054   200105 755100                    STA     I,,AUTO

       72      726    2           SET_CMD_S=SUBSTR(SET_CMD,START,I-START);

    726  3 000055   200105 236100                    LDQ     I,,AUTO
         3 000056   200106 136100                    SBLQ    START,,AUTO
         3 000057   000000 620006                    EAX0    0,QL
         3 000060   200106 236100                    LDQ     START,,AUTO
         3 000061   040100 100546                    MLR     fill='040'O
         3 000062   000000 000010                    ADSC9   0,Q,PR0                  cn=0,n=*X0
         3 000063   200005 000400                    ADSC9   SET_CMD_S,,AUTO          cn=0,n=256

       73      727    2           END;

    727  3 000064   000070 710000 3                  TRA     s:731

       74      728    2       ELSE DO;

       75      729    2           SET_CMD_S=' ';

    729  3 000065   040100 100400                    MLR     fill='040'O
PL6.E3A0      #001=IDSSET File=IDSSET.:ZIC0TSI                                   FRI 09/05/97 11:32 Page:13
         3 000066   000003 000001 4                  ADSC9   3                        cn=0,n=1
         3 000067   200005 000400                    ADSC9   SET_CMD_S,,AUTO          cn=0,n=256

       76      730    2           END;

       77      731    1       CALL M$YC (FPT_YC) ALTRET (ERROR_);

    731  3 000070   000000 630400 1                  EPPR0   FPT_YC
         3 000071   400011 713400                    CLIMB   alt,+9
         3 000072   401000 401760                    pmme    nvectors=3
         3 000073   000077 702000 3                  TSX2    ERROR_

       78      732    1       ERROR_CODE=0;

    732  3 000074   200004 470500                    LDP0    @ERROR_CODE,,AUTO
         3 000075   000000 450100                    STZ     0,,PR0

       79      733    1       RETURN;

    733  3 000076   000000 702200 xent               TSX2  ! X66_ARET

       80      734    1   ERROR_:
       81      735    1       ERROR_CODE=ADDR(B$TCB$->B$TCB.ALT$->B$EXCFR.ERR.FCG)->WORD_;

    735  3 000077   000000 470400 xsym  ERROR_       LDP0    B$TCB$
         3 000100   000000 471500                    LDP1    0,,PR0
         3 000101   200004 473500                    LDP3    @ERROR_CODE,,AUTO
         3 000102   100102 235100                    LDA     66,,PR1
         3 000103   300000 755100                    STA     0,,PR3

       82      736    1       RETURN;

    736  3 000104   000000 702200 xent               TSX2  ! X66_ARET

       83      737         %EJECT;
PL6.E3A0      #001=IDSSET File=IDSSET.:ZIC0TSI                                   FRI 09/05/97 11:32 Page:14
       84      738    1   SKIP_BLANKS:

    738  3 000105   200110 741300       SKIP_BLANKS  STX1  ! START+2,,AUTO

       85      739    1       PROC;
       86      740    3       DO WHILE (SUBSTR(SET_CMD,I,1)=' '&I<255);

    740  3 000106   000112 710000 3                  TRA     s:742

       87      741    3           I=I+1;

    741  3 000107   200105 235100                    LDA     I,,AUTO
         3 000110   000001 035007                    ADLA    1,DL
         3 000111   200105 755100                    STA     I,,AUTO

       88      742    3           END;

    742  3 000112   400000 220003                    LDX0    -131072,DU
         3 000113   200003 470500                    LDP0    @SET_CMD,,AUTO
         3 000114   200105 235100                    LDA     I,,AUTO
         3 000115   040000 106505                    CMPC    fill='040'O
         3 000116   000000 000001                    ADSC9   0,A,PR0                  cn=0,n=1
         3 000117   000003 000001 4                  ADSC9   3                        cn=0,n=1
         3 000120   000122 600000 3                  TZE     s:742+8
         3 000121   000000 220003                    LDX0    0,DU
         3 000122   400000 221003                    LDX1    -131072,DU
         3 000123   000377 115007                    CMPA    255,DL
         3 000124   000126 602000 3                  TNC     s:742+12
         3 000125   000000 221003                    LDX1    0,DU
         3 000126   000000 636011                    EAQ     0,X1
         3 000127   200114 756100                    STQ     START+6,,AUTO
         3 000130   000000 636010                    EAQ     0,X0
         3 000131   200114 376100                    ANQ     START+6,,AUTO
         3 000132   000107 601000 3                  TNZ     s:741

       89      743    2       RETURN;

PL6.E3A0      #001=IDSSET File=IDSSET.:ZIC0TSI                                   FRI 09/05/97 11:32 Page:15
    743  3 000133   200110 221300                    LDX1  ! START+2,,AUTO
         3 000134   000001 702211                    TSX2  ! 1,X1

       90      744    2   END SKIP_BLANKS;
       91      745    1   NEXT_BLANK:

    745  3 000135   200110 741300       NEXT_BLANK   STX1  ! START+2,,AUTO

       92      746    1       PROC;
       93      747    3       DO WHILE (SUBSTR(SET_CMD,I,1)~=' '&I<255);

    747  3 000136   000153 710000 3                  TRA     s:753

       94      748    3           I=I+1;

    748  3 000137   200105 235100                    LDA     I,,AUTO
         3 000140   000001 035007                    ADLA    1,DL
         3 000141   200105 755100                    STA     I,,AUTO

       95      749    4           IF SUBSTR (SET_CMD, I-1, 1) = '''' THEN DO;

    749  3 000142   200003 470500                    LDP0    @SET_CMD,,AUTO
         3 000143   040000 106505                    CMPC    fill='040'O
         3 000144   077777 600001                    ADSC9   -1,A,PR0                 cn=3,n=1
         3 000145   000004 000001 4                  ADSC9   4                        cn=0,n=1
         3 000146   000153 601000 3                  TNZ     s:753

       96      750    4               CALL NEXT_QUOTE;

    750  3 000147   000176 701000 3                  TSX1    NEXT_QUOTE
         3 000150   000000 011000                    NOP     0

       97      751    4               RETURN;

    751  3 000151   200110 221300                    LDX1  ! START+2,,AUTO
         3 000152   000001 702211                    TSX2  ! 1,X1

PL6.E3A0      #001=IDSSET File=IDSSET.:ZIC0TSI                                   FRI 09/05/97 11:32 Page:16
       98      752    4               END;
       99      753    3           END;

    753  3 000153   400000 220003                    LDX0    -131072,DU
         3 000154   200003 470500                    LDP0    @SET_CMD,,AUTO
         3 000155   200105 235100                    LDA     I,,AUTO
         3 000156   040000 106505                    CMPC    fill='040'O
         3 000157   000000 000001                    ADSC9   0,A,PR0                  cn=0,n=1
         3 000160   000003 000001 4                  ADSC9   3                        cn=0,n=1
         3 000161   000163 601000 3                  TNZ     s:753+8
         3 000162   000000 220003                    LDX0    0,DU
         3 000163   400000 221003                    LDX1    -131072,DU
         3 000164   000377 115007                    CMPA    255,DL
         3 000165   000167 602000 3                  TNC     s:753+12
         3 000166   000000 221003                    LDX1    0,DU
         3 000167   000000 636011                    EAQ     0,X1
         3 000170   200114 756100                    STQ     START+6,,AUTO
         3 000171   000000 636010                    EAQ     0,X0
         3 000172   200114 376100                    ANQ     START+6,,AUTO
         3 000173   000137 601000 3                  TNZ     s:748

      100      754    2       RETURN;

    754  3 000174   200110 221300                    LDX1  ! START+2,,AUTO
         3 000175   000001 702211                    TSX2  ! 1,X1

      101      755    2   END NEXT_BLANK;
      102      756    1   NEXT_QUOTE: PROC;

    756  3 000176   200112 741300       NEXT_QUOTE   STX1  ! START+4,,AUTO

      103      757    3       DO WHILE (SUBSTR (SET_CMD, I, 1) ~= '''' & I<255);

    757  3 000177   000203 710000 3                  TRA     s:759

      104      758    3           I = I + 1;

PL6.E3A0      #001=IDSSET File=IDSSET.:ZIC0TSI                                   FRI 09/05/97 11:32 Page:17
    758  3 000200   200105 235100                    LDA     I,,AUTO
         3 000201   000001 035007                    ADLA    1,DL
         3 000202   200105 755100                    STA     I,,AUTO

      105      759    3           END;

    759  3 000203   400000 220003                    LDX0    -131072,DU
         3 000204   200003 470500                    LDP0    @SET_CMD,,AUTO
         3 000205   200105 235100                    LDA     I,,AUTO
         3 000206   040000 106505                    CMPC    fill='040'O
         3 000207   000000 000001                    ADSC9   0,A,PR0                  cn=0,n=1
         3 000210   000004 000001 4                  ADSC9   4                        cn=0,n=1
         3 000211   000213 601000 3                  TNZ     s:759+8
         3 000212   000000 220003                    LDX0    0,DU
         3 000213   400000 221003                    LDX1    -131072,DU
         3 000214   000377 115007                    CMPA    255,DL
         3 000215   000217 602000 3                  TNC     s:759+12
         3 000216   000000 221003                    LDX1    0,DU
         3 000217   000000 636011                    EAQ     0,X1
         3 000220   200114 756100                    STQ     START+6,,AUTO
         3 000221   000000 636010                    EAQ     0,X0
         3 000222   200114 376100                    ANQ     START+6,,AUTO
         3 000223   000200 601000 3                  TNZ     s:758

      106      760    2       I = I + 1;

    760  3 000224   000001 035007                    ADLA    1,DL
         3 000225   200105 755100                    STA     I,,AUTO

      107      761    2       RETURN;

    761  3 000226   200112 221300                    LDX1  ! START+4,,AUTO
         3 000227   000001 702211                    TSX2  ! 1,X1

FPT_YC
 Sect OctLoc
   1     000   000000 177640   000000 006014   000001 777640   000006 006000    ................
PL6.E3A0      #001=IDSSET File=IDSSET.:ZIC0TSI                                   FRI 09/05/97 11:32 Page:18
   1     004   000000 177640   000000 006014   000000 000000   0***** ******    ................

(unnamed)
 Sect OctLoc
   2     000   123105 124040                                                    SET

(unnamed)
 Sect OctLoc
   4     000   000077 777640   041040 040040   056040 040040   040040 040040    .?..!   .
   4     004   047040 040040                                                    '
      108      762    2   END NEXT_QUOTE;
      109      763    1   END IDSSET;
      110      764        %EOD;

PL6.E3A0      #001=IDSSET File=IDSSET.:ZIC0TSI                                   FRI 09/05/97 11:32 Page:19
--  Include file information  --

   CP_6_SUBS.:LIB_E05  is referenced.
   CP_6.:LIB_E05  cannot be made into a system file and is referenced.
   B$JIT_C.:E05TOU  was found in the system file and is never referenced.
   CP_6_C.:E05TOU  was found in the system file and is referenced.
      No diagnostics issued in procedure IDSSET.

   Procedure IDSSET requires 152 words for executable code.
   Procedure IDSSET requires 78 words of local(AUTO) storage.
PL6.E3A0      #001=IDSSET File=IDSSET.:ZIC0TSI                                   FRI 09/05/97 11:32 Page:20
          *** CROSS REFERENCE LISTING ***
**     DENOTES     IDENTIFIER DEFINITION
<<                 IDENTIFIER'S VALUE SET
>>                 IDENTIFIER'S VALUE USED
<>                 IDENTIFIER SET AND/OR USED
--                 IDENTIFIER REFERENCED
PL6.E3A0      #001=IDSSET File=IDSSET.:ZIC0TSI                                   FRI 09/05/97 11:32 Page:21
          MINI XREF LISTING

B$EXCFR.ASL
       691**DCL       691--REDEF
B$EXCFR.ERR.ERR#
       705**DCL       705--REDEF
B$EXCFR.ERR.FCG
       705**DCL       735--ASSIGN
B$EXCFR.EVID
       704**DCL       704--REDEF     705--REDEF
B$EXCFR.IR
       692**DCL       692--REDEF
B$EXCFR.PREVSZ
       691**DCL       691--REDEF
B$EXCFR.SUBC
       703**DCL       703--REDEF     704--REDEF     704--REDEF
B$TCB.ALT$
       688**DCL       735>>ASSIGN
B$TCB$
        45**DCL       735>>ASSIGN
ERROR_
       735**LABEL     731--CALLALT
ERROR_CODE
        43**DCL        40--PROC      732<<ASSIGN    735<<ASSIGN
FPT_YC
       683**DCL       731<>CALL
FPT_YC.CMD_
       683**DCL       709<<ASSIGN
FPT_YC.V
       684**DCL       683--DCLINIT
I
        47**DCL       710<<ASSIGN    712>>IF        714<<ASSIGN    714>>ASSIGN    717>>ASSIGN    718>>IF
       720<<ASSIGN    720>>ASSIGN    725>>IF        725<<ASSIGN    725>>ASSIGN    726>>ASSIGN    740>>DOWHILE
       740>>DOWHILE   741<<ASSIGN    741>>ASSIGN    747>>DOWHILE   747>>DOWHILE   748<<ASSIGN    748>>ASSIGN
PL6.E3A0      #001=IDSSET File=IDSSET.:ZIC0TSI                                   FRI 09/05/97 11:32 Page:22
       749>>IF        757>>DOWHILE   757>>DOWHILE   758<<ASSIGN    758>>ASSIGN    760<<ASSIGN    760>>ASSIGN
M$YC
        72**DCL-ENT   731--CALL
NEXT_BLANK
       746**PROC      722--CALL      724--CALL
NEXT_QUOTE
       756**PROC      750--CALL
SET_CMD
        42**DCL        40--PROC      712>>IF        718>>IF        725>>IF        726>>ASSIGN    740>>DOWHILE
       747>>DOWHILE   749>>IF        757>>DOWHILE
SET_CMD_S
        46**DCL       709--ASSIGN    726<<ASSIGN    729<<ASSIGN
SKIP_BLANKS
       739**PROC      711--CALL      715--CALL      721--CALL      723--CALL
START
        48**DCL       717<<ASSIGN    726>>ASSIGN    726>>ASSIGN
WORD_
        44**DCL       735>>ASSIGN

PL6.E3A0      #002=IDSSYSERROR File=IDSSET.:ZIC0TSI                              FRI 09/05/97 11:33 Page:23
      111        1        /*T***********************************************************/
      112        2        /*T*                                                         */
      113        3        /*T* Copyright (c) Bull HN Information Systems Inc., 1997    */
      114        4        /*T*                                                         */
      115        5        /*T***********************************************************/
      116        6        IDSSYSERROR: PROC(FLAG,ERROR);
      117        7        %INCLUDE CP_6;
      118       88        %INCLUDE CP_6_SUBS;
      119      628         %FPT_ERRMSG(FPTN=FPT_ERRMSG,STCLASS=CONSTANT,VFC='a',TYC=YES,
      120      629         CODE=IDSSYSERR,
      121      630         OUTDCB1=M$DO,
      122      631         INCLCODE=YES);
      123      658         %FPT_ERRMSG(FPTN=FPT$ERRMSG,STCLASS=AUTO);
      124      685    1   DCL 1 FLAG UBIN(36);
      125      686    1   DCL 1 ERROR UBIN(36);
      126      687    1   DCL BUFFER CHAR(120);
      127      688    1   DCL 1 IDSSYSERR UBIN(36) SYMREF;
      128      689    1   DCL 1 IDSSYSDCB UBIN(36) SYMREF;
      129      690    1   DCL M$DO DCB;
      130      691    1       ERROR=IDSSYSERR;
      131      692    2       IF FLAG~=0 AND IDSSYSERR~=0 THEN DO;
      132      693    2           FPT$ERRMSG=FPT_ERRMSG;
      133      694    2           FPT$ERRMSG.V_=VECTOR(FPT$ERRMSG.V);
      134      695    2           FPT$ERRMSG.BUF_=VECTOR(BUFFER);
      135      696    2           FPT$ERRMSG.V.DCB#=IDSSYSDCB;
      136      697    2           CALL M$ERRMSG(FPT$ERRMSG) ALTRET(ALT);
      137      698    2           END;
      138      699    1   ALT: RETURN;
      139      700    1   END IDSSYSERROR;
      140      701        %EOD;

PL6.E3A0      #002=IDSSYSERROR File=IDSSET.:ZIC0TSI                              FRI 09/05/97 11:33 Page:24
--  Include file information  --

   CP_6_SUBS.:LIB_E05  is referenced.
   CP_6.:LIB_E05  cannot be made into a system file and is referenced.
   B$JIT_C.:E05TOU  was found in the system file and is never referenced.
   CP_6_C.:E05TOU  was found in the system file and is referenced.
      No diagnostics issued in procedure IDSSYSERROR.

   Procedure IDSSYSERROR requires 30 words for executable code.
   Procedure IDSSYSERROR requires 64 words of local(AUTO) storage.

PL6.E3A0      #002=IDSSYSERROR File=IDSSET.:ZIC0TSI                              FRI 09/05/97 11:33 Page:25

 Object Unit name= IDSSYSERROR                                File name= IDSSET.:ZIC0TOU
 UTS= SEP 05 '97 11:33:00.88 FRI                              Compiler= PL-6/E31         Sev=      00
 SharedLib= :SHARED_SYSTEM                                    Alt SharedLib=


    ****  Control sections  ****

 Sect   Type Bound  Init  Size OctSiz  Section name(segment info)
    0   DCB   even  none     0      0  M$UC
    1  RoData even  UTS     26     32  IDSSYSERROR
    2   DCB   even  none     0      0  M$DO
    3   Proc  even  none    30     36  IDSSYSERROR
    4  RoData even  none     2      2  IDSSYSERROR

    ****  Entry defs  ****

                              Check   Calling
                             calling  sequence
  Sect OctLoc Primary Altret sequence   type   Parms  Name
     3      0   yes            yes      Std        2  IDSSYSERROR

  ****  Entry refs  ****

         Check        Calling
        calling       sequence
Altret sequence SRef   type   Args  Name
                       nStd      0 X66_AUTO_2
                       nStd      0 X66_ARET

  ****  Data refs  ****

  Flags:  r = read only, s = secondary
Flgs Name                             Flgs Name                             Flgs Name
     M$UC                                  IDSSYSERR                             IDSSYSDCB
     M$DO
PL6.E3A0      #002=IDSSYSERROR File=IDSSET.:ZIC0TSI                              FRI 09/05/97 11:33 Page:26

  ****  Segment refs  ****

  Flags:  r = read only, s = secondary
Flgs Name                             Flgs Name                             Flgs Name
     ISSID                                 NULLSID
PL6.E3A0      #002=IDSSYSERROR File=IDSSET.:ZIC0TSI                              FRI 09/05/97 11:33 Page:27


      111        1        /*T***********************************************************/
      112        2        /*T*                                                         */
      113        3        /*T* Copyright (c) Bull HN Information Systems Inc., 1997    */
      114        4        /*T*                                                         */
      115        5        /*T***********************************************************/
      116        6        IDSSYSERROR: PROC(FLAG,ERROR);

      6  3 000000   000000 700200 xent  IDSSYSERROR  TSX0  ! X66_AUTO_2
         3 000001   000100 000002                    ZERO    64,2

      117        7        %INCLUDE CP_6;
      118       88        %INCLUDE CP_6_SUBS;
      119      628         %FPT_ERRMSG(FPTN=FPT_ERRMSG,STCLASS=CONSTANT,VFC='a',TYC=YES,
      120      629         CODE=IDSSYSERR,
      121      630         OUTDCB1=M$DO,
      122      631         INCLCODE=YES);
      123      658         %FPT_ERRMSG(FPTN=FPT$ERRMSG,STCLASS=AUTO);
      124      685    1   DCL 1 FLAG UBIN(36);
      125      686    1   DCL 1 ERROR UBIN(36);
      126      687    1   DCL BUFFER CHAR(120);
      127      688    1   DCL 1 IDSSYSERR UBIN(36) SYMREF;
      128      689    1   DCL 1 IDSSYSDCB UBIN(36) SYMREF;
      129      690    1   DCL M$DO DCB;
      130      691    1       ERROR=IDSSYSERR;

    691  3 000002   200004 470500                    LDP0    @ERROR,,AUTO
         3 000003   000000 235000 xsym               LDA     IDSSYSERR
         3 000004   000000 755100                    STA     0,,PR0

      131      692    2       IF FLAG~=0 AND IDSSYSERR~=0 THEN DO;

    692  3 000005   200003 471500                    LDP1    @FLAG,,AUTO
         3 000006   100000 235100                    LDA     0,,PR1
         3 000007   000035 600000 3                  TZE     ALT
         3 000010   000000 236000 xsym               LDQ     IDSSYSERR
         3 000011   000035 600000 3                  TZE     ALT
PL6.E3A0      #002=IDSSYSERROR File=IDSSET.:ZIC0TSI                              FRI 09/05/97 11:33 Page:28

      132      693    2           FPT$ERRMSG=FPT_ERRMSG;

    693  3 000012   000100 100400                    MLR     fill='000'O
         3 000013   000000 000150 1                  ADSC9   FPT_ERRMSG               cn=0,n=104
         3 000014   200006 000150                    ADSC9   FPT$ERRMSG,,AUTO         cn=0,n=104

      133      694    2           FPT$ERRMSG.V_=VECTOR(FPT$ERRMSG.V);

    694  3 000015   000000 235000 4                  LDA     0
         3 000016   200076 452500                    STP2    BUFFER+30,,AUTO
         3 000017   200076 236100                    LDQ     BUFFER+30,,AUTO
         3 000020   000034 036003                    ADLQ    28,DU
         3 000021   200006 757100                    STAQ    FPT$ERRMSG,,AUTO

      134      695    2           FPT$ERRMSG.BUF_=VECTOR(BUFFER);

    695  3 000022   000001 235000 4                  LDA     1
         3 000023   200076 452500                    STP2    BUFFER+30,,AUTO
         3 000024   200076 236100                    LDQ     BUFFER+30,,AUTO
         3 000025   000040 036003                    ADLQ    32,DU
         3 000026   200012 757100                    STAQ    FPT$ERRMSG+4,,AUTO

      135      696    2           FPT$ERRMSG.V.DCB#=IDSSYSDCB;

    696  3 000027   000000 720000 xsym               LXL0    IDSSYSDCB
         3 000030   200034 740100                    STX0    FPT$ERRMSG+22,,AUTO

      136      697    2           CALL M$ERRMSG(FPT$ERRMSG) ALTRET(ALT);

    697  3 000031   200006 630500                    EPPR0   FPT$ERRMSG,,AUTO
         3 000032   420000 713400                    CLIMB   alt,+8192
         3 000033   405000 401760                    pmme    nvectors=11
         3 000034   000035 702000 3                  TSX2    ALT

      137      698    2           END;

PL6.E3A0      #002=IDSSYSERROR File=IDSSET.:ZIC0TSI                              FRI 09/05/97 11:33 Page:29
      138      699    1   ALT: RETURN;

    699  3 000035   000000 702200 xent  ALT          TSX2  ! X66_ARET

FPT_ERRMSG
 Sect OctLoc
   1     000   000003 777640   000026 006000   000000 777640   000000 006000    ................
   1     004   000000 177640   000000 006014   000000 177640   000000 006014    ................
   1     024*  000000 177640   000000 006014   000000 000000   000000 000141    ...............a
   1     030   377000 030001   040000 000000                                    .... ...

(unnamed)
 Sect OctLoc
   4     000   000003 777640   000035 777640                                    ........
      139      700    1   END IDSSYSERROR;
      140      701        %EOD;

PL6.E3A0      #002=IDSSYSERROR File=IDSSET.:ZIC0TSI                              FRI 09/05/97 11:33 Page:30
--  Include file information  --

   CP_6_SUBS.:LIB_E05  is referenced.
   CP_6.:LIB_E05  cannot be made into a system file and is referenced.
   B$JIT_C.:E05TOU  was found in the system file and is never referenced.
   CP_6_C.:E05TOU  was found in the system file and is referenced.
      No diagnostics issued in procedure IDSSYSERROR.

   Procedure IDSSYSERROR requires 30 words for executable code.
   Procedure IDSSYSERROR requires 64 words of local(AUTO) storage.
PL6.E3A0      #002=IDSSYSERROR File=IDSSET.:ZIC0TSI                              FRI 09/05/97 11:33 Page:31
          *** CROSS REFERENCE LISTING ***
**     DENOTES     IDENTIFIER DEFINITION
<<                 IDENTIFIER'S VALUE SET
>>                 IDENTIFIER'S VALUE USED
<>                 IDENTIFIER SET AND/OR USED
--                 IDENTIFIER REFERENCED
PL6.E3A0      #002=IDSSYSERROR File=IDSSET.:ZIC0TSI                              FRI 09/05/97 11:33 Page:32
          MINI XREF LISTING

ALT
       699**LABEL     697--CALLALT
BUFFER
       687**DCL       695--ASSIGN
ERROR
       686**DCL         6--PROC      691<<ASSIGN
FLAG
       685**DCL         6--PROC      692>>IF
FPT$ERRMSG
       669**DCL       693<<ASSIGN    697<>CALL
FPT$ERRMSG.BUF_
       669**DCL       695<<ASSIGN
FPT$ERRMSG.V
       673**DCL       694--ASSIGN
FPT$ERRMSG.V.DCB#
       673**DCL       696<<ASSIGN
FPT$ERRMSG.V_
       669**DCL       694<<ASSIGN
FPT_ERRMSG
       642**DCL       693>>ASSIGN
FPT_ERRMSG.V
       646**DCL       642--DCLINIT
IDSSYSDCB
       689**DCL       696>>ASSIGN
IDSSYSERR
       688**DCL       642--DCLINIT   691>>ASSIGN    692>>IF
M$ERRMSG
        79**DCL-ENT   697--CALL

PL6.E3A0      #003=ZII$COB_PARAM_ERR File=IDSSET.:ZIC0TSI                        FRI 09/05/97 11:33 Page:33
      141        1        /*T***********************************************************/
      142        2        /*T*                                                         */
      143        3        /*T* Copyright (c) Bull HN Information Systems Inc., 1997    */
      144        4        /*T*                                                         */
      145        5        /*T***********************************************************/
      146        6        ZII$COB_PARAM_ERR: PROC ;
      147        7    1   DCL M$DO DCB;
      148        8        %INCLUDE CP_6;
      149       89    1   DCL ERR_BUF CHAR (120) STATIC ALIGNED INIT (' ');
      150       90        %VLP_ERRCODE (FPTN=ERR_CODE,
      151       91         STCLASS=CONSTANT,
      152       92         FCG='ZI',
      153       93         MID='I',
      154       94         ERR#=195,
      155       95         SEV=3);
      156      140        %FPT_ERRMSG (FPTN=FPT_ERRMSG_C,
      157      141         OUTDCB2=M$DO,
      158      142         BUF=ERR_BUF,
      159      143         STCLASS=CONSTANT,
      160      144         FLAGLEV = 3,
      161      145         CODE=ERR_CODE,
      162      146         INCLCODE=NO);
      163      173        %FPT_ERRMSG (STCLASS=AUTO);
      164      200
      165      201        %VLP_NAME (FPTN=DCB_NAME,
      166      202         STCLASS=CONSTANT,
      167      203         LEN=4,
      168      204         NAME='M$LO');
      169      231        %FPT_GETDCB (FPTN=FPT_GETDCB_C,
      170      232         STCLASS=CONSTANT,
      171      233         DCBNAME=DCB_NAME);
      172      248        %FPT_GETDCB (STCLASS=AUTO);
      173      263
      174      264    1   DCL ZI_RETADDR UBIN WORD SYMREF;
      175      265    1   DCL 1 D_CMD STATIC,
      176      266    1         2 EVAL CHAR (2),
      177      267    1         2 IC CHAR (6),
PL6.E3A0      #003=ZII$COB_PARAM_ERR File=IDSSET.:ZIC0TSI                        FRI 09/05/97 11:33 Page:34
      178      268    1         2 FMT CHAR (2);
      179      269        %VLP_NAME (FPTN=D_PROCESSOR,
      180      270         STCLASS=CONSTANT,
      181      271         LEN=5,
      182      272         NAME='DELTA');
      183      299        %FPT_ALIB (CMD=D_CMD,
      184      300         LIBNAME=D_PROCESSOR,
      185      301         STCLASS=CONSTANT,
      186      302         RETRN=YES);
      187      319
      188      320    1       FPT_ERRMSG = FPT_ERRMSG_C;
      189      321    1       FPT_ERRMSG.V_ = VECTOR( FPT_ERRMSG.V );
      190      322    1       FPT_GETDCB = FPT_GETDCB_C;
      191      323    1       FPT_GETDCB.V_ = VECTOR( FPT_GETDCB.V );
      192      324    1       FPT_GETDCB.DCBNUM_ = VECTOR( FPT_ERRMSG.V.OUTDCB1# );
      193      325    1       CALL M$GETDCB(FPT_GETDCB) ALTRET (RET);
      194      326    1       CALL M$ERRMSG(FPT_ERRMSG) ALTRET (RET);
      195      327    1       D_CMD.EVAL = 'E ';
      196      328    1       D_CMD.FMT = '\R';
      197      329    1       CALL BINCHAR(D_CMD.IC, ZI_RETADDR);
      198      330    1       CALL M$ALIB(FPT_ALIB);
      199      331    1       CALL M$ERR;
      200      332    1   RET: RETURN;
      201      333    1   END ZII$COB_PARAM_ERR;

PL6.E3A0      #003=ZII$COB_PARAM_ERR File=IDSSET.:ZIC0TSI                        FRI 09/05/97 11:33 Page:35
--  Include file information  --

   CP_6.:LIB_E05  cannot be made into a system file and is referenced.
   B$JIT_C.:E05TOU  was found in the system file and is never referenced.
   CP_6_C.:E05TOU  was found in the system file and is referenced.
      No diagnostics issued in procedure ZII$COB_PARAM_ERR.

   Procedure ZII$COB_PARAM_ERR requires 47 words for executable code.
   Procedure ZII$COB_PARAM_ERR requires 40 words of local(AUTO) storage.

    No errors detected in file IDSSET.:ZIC0TSI    .

PL6.E3A0      #003=ZII$COB_PARAM_ERR File=IDSSET.:ZIC0TSI                        FRI 09/05/97 11:33 Page:36

 Object Unit name= ZII$COB_PARAM_ERR                          File name= IDSSET.:ZIC0TOU
 UTS= SEP 05 '97 11:33:09.16 FRI                              Compiler= PL-6/E31         Sev=      00
 SharedLib= :SHARED_SYSTEM                                    Alt SharedLib=


    ****  Control sections  ****

 Sect   Type Bound  Init  Size OctSiz  Section name(segment info)
    0   DCB   even  none     0      0  M$DO
    1   DCB   even  none     0      0  M$UC
    2   Data  even  none    33     41  ZII$COB_PARAM_ERR
    3  RoData even  UTS     52     64  ZII$COB_PARAM_ERR
    4   Proc  even  none    47     57  ZII$COB_PARAM_ERR
    5  RoData even  none     3      3  ZII$COB_PARAM_ERR

    ****  Entry defs  ****

                              Check   Calling
                             calling  sequence
  Sect OctLoc Primary Altret sequence   type   Parms  Name
     4      0   yes            yes      Std        0  ZII$COB_PARAM_ERR

  ****  Entry refs  ****

         Check        Calling
        calling       sequence
Altret sequence SRef   type   Args  Name
                       nStd      0 X66_AUTO_0
                       nStd      0 X66_ARET

  ****  Data refs  ****

  Flags:  r = read only, s = secondary
Flgs Name                             Flgs Name                             Flgs Name
     M$DO                                  M$UC                                  ZI_RETADDR
PL6.E3A0      #003=ZII$COB_PARAM_ERR File=IDSSET.:ZIC0TSI                        FRI 09/05/97 11:33 Page:37

  ****  Segment refs  ****

  Flags:  r = read only, s = secondary
Flgs Name                             Flgs Name                             Flgs Name
     ISSID                                 NULLSID
PL6.E3A0      #003=ZII$COB_PARAM_ERR File=IDSSET.:ZIC0TSI                        FRI 09/05/97 11:33 Page:38


      141        1        /*T***********************************************************/
      142        2        /*T*                                                         */
      143        3        /*T* Copyright (c) Bull HN Information Systems Inc., 1997    */
      144        4        /*T*                                                         */
      145        5        /*T***********************************************************/
      146        6        ZII$COB_PARAM_ERR: PROC ;

      6  4 000000   000000 700200 xent  ZII$COB_PAR* TSX0  ! X66_AUTO_0
         4 000001   000050 000000                    ZERO    40,0

      147        7    1   DCL M$DO DCB;
      148        8        %INCLUDE CP_6;
      149       89    1   DCL ERR_BUF CHAR (120) STATIC ALIGNED INIT (' ');
      150       90        %VLP_ERRCODE (FPTN=ERR_CODE,
      151       91         STCLASS=CONSTANT,
      152       92         FCG='ZI',
      153       93         MID='I',
      154       94         ERR#=195,
      155       95         SEV=3);
      156      140        %FPT_ERRMSG (FPTN=FPT_ERRMSG_C,
      157      141         OUTDCB2=M$DO,
      158      142         BUF=ERR_BUF,
      159      143         STCLASS=CONSTANT,
      160      144         FLAGLEV = 3,
      161      145         CODE=ERR_CODE,
      162      146         INCLCODE=NO);
      163      173        %FPT_ERRMSG (STCLASS=AUTO);
      164      200
      165      201        %VLP_NAME (FPTN=DCB_NAME,
      166      202         STCLASS=CONSTANT,
      167      203         LEN=4,
      168      204         NAME='M$LO');
      169      231        %FPT_GETDCB (FPTN=FPT_GETDCB_C,
      170      232         STCLASS=CONSTANT,
      171      233         DCBNAME=DCB_NAME);
      172      248        %FPT_GETDCB (STCLASS=AUTO);
PL6.E3A0      #003=ZII$COB_PARAM_ERR File=IDSSET.:ZIC0TSI                        FRI 09/05/97 11:33 Page:39
      173      263
      174      264    1   DCL ZI_RETADDR UBIN WORD SYMREF;
      175      265    1   DCL 1 D_CMD STATIC,
      176      266    1         2 EVAL CHAR (2),
      177      267    1         2 IC CHAR (6),
      178      268    1         2 FMT CHAR (2);
      179      269        %VLP_NAME (FPTN=D_PROCESSOR,
      180      270         STCLASS=CONSTANT,
      181      271         LEN=5,
      182      272         NAME='DELTA');
      183      299        %FPT_ALIB (CMD=D_CMD,
      184      300         LIBNAME=D_PROCESSOR,
      185      301         STCLASS=CONSTANT,
      186      302         RETRN=YES);
      187      319
      188      320    1       FPT_ERRMSG = FPT_ERRMSG_C;

    320  4 000002   000100 100400                    MLR     fill='000'O
         4 000003   000002 000150 3                  ADSC9   FPT_ERRMSG_C             cn=0,n=104
         4 000004   200004 000150                    ADSC9   FPT_ERRMSG,,AUTO         cn=0,n=104

      189      321    1       FPT_ERRMSG.V_ = VECTOR( FPT_ERRMSG.V );

    321  4 000005   000000 235000 5                  LDA     0
         4 000006   200046 452500                    STP2    FPT_GETDCB+8,,AUTO
         4 000007   200046 236100                    LDQ     FPT_GETDCB+8,,AUTO
         4 000010   000032 036003                    ADLQ    26,DU
         4 000011   200004 757100                    STAQ    FPT_ERRMSG,,AUTO

      190      322    1       FPT_GETDCB = FPT_GETDCB_C;

    322  4 000012   000100 100400                    MLR     fill='000'O
         4 000013   000036 000040 3                  ADSC9   FPT_GETDCB_C             cn=0,n=32
         4 000014   200036 000040                    ADSC9   FPT_GETDCB,,AUTO         cn=0,n=32

      191      323    1       FPT_GETDCB.V_ = VECTOR( FPT_GETDCB.V );

PL6.E3A0      #003=ZII$COB_PARAM_ERR File=IDSSET.:ZIC0TSI                        FRI 09/05/97 11:33 Page:40
    323  4 000015   000001 235000 5                  LDA     1
         4 000016   200046 452500                    STP2    FPT_GETDCB+8,,AUTO
         4 000017   200046 236100                    LDQ     FPT_GETDCB+8,,AUTO
         4 000020   000044 036003                    ADLQ    36,DU
         4 000021   200036 757100                    STAQ    FPT_GETDCB,,AUTO

      192      324    1       FPT_GETDCB.DCBNUM_ = VECTOR( FPT_ERRMSG.V.OUTDCB1# );

    324  4 000022   377640 235007                    LDA     130976,DL
         4 000023   200046 452500                    STP2    FPT_GETDCB+8,,AUTO
         4 000024   200046 236100                    LDQ     FPT_GETDCB+8,,AUTO
         4 000025   000002 036000 5                  ADLQ    2
         4 000026   200042 757100                    STAQ    FPT_GETDCB+4,,AUTO

      193      325    1       CALL M$GETDCB(FPT_GETDCB) ALTRET (RET);

    325  4 000027   200036 630500                    EPPR0   FPT_GETDCB,,AUTO
         4 000030   460002 713400                    CLIMB   alt,+24578
         4 000031   401000 401760                    pmme    nvectors=3
         4 000032   000056 702000 4                  TSX2    RET

      194      326    1       CALL M$ERRMSG(FPT_ERRMSG) ALTRET (RET);

    326  4 000033   200004 630500                    EPPR0   FPT_ERRMSG,,AUTO
         4 000034   420000 713400                    CLIMB   alt,+8192
         4 000035   405000 401760                    pmme    nvectors=11
         4 000036   000056 702000 4                  TSX2    RET

      195      327    1       D_CMD.EVAL = 'E ';

    327  4 000037   000062 220000 3                  LDX0    FPT_ALIB+10
         4 000040   000036 740000 2                  STX0    D_CMD

      196      328    1       D_CMD.FMT = '\R';

    328  4 000041   000063 221000 3                  LDX1    FPT_ALIB+11
         4 000042   000040 741000 2                  STX1    D_CMD+2
PL6.E3A0      #003=ZII$COB_PARAM_ERR File=IDSSET.:ZIC0TSI                        FRI 09/05/97 11:33 Page:41

      197      329    1       CALL BINCHAR(D_CMD.IC, ZI_RETADDR);

    329  4 000043   000000 235000 xsym               LDA     ZI_RETADDR
         4 000044   000044 773000                    LRL     36
         4 000045   200046 757100                    STAQ    FPT_GETDCB+8,,AUTO
         4 000046   000000 301500                    BTD
         4 000047   200046 000010                    NDSC9   FPT_GETDCB+8,,AUTO       cn=0,s=lsgnf,sf=0,n=8
         4 000050   000036 430006 2                  NDSC9   D_CMD                    cn=2,s=nosgn,sf=0,n=6

      198      330    1       CALL M$ALIB(FPT_ALIB);

    330  4 000051   000050 630400 3                  EPPR0   FPT_ALIB
         4 000052   000007 713400                    CLIMB   7
         4 000053   401400 401760                    pmme    nvectors=4

      199      331    1       CALL M$ERR;

    331  4 000054   000002 713400                    CLIMB   err
         4 000055   000000 401760                    pmme    nvectors=0

      200      332    1   RET: RETURN;

    332  4 000056   000000 702200 xent  RET          TSX2  ! X66_ARET

ERR_BUF
 Sect OctLoc
   2     000   040040 040040   040040 040040   040040 040040   040040 040040
   2     034*  040040 040040   040040 040040

ERR_CODE
 Sect OctLoc
   3     000   321111 003033                                                    .I..

FPT_ERRMSG_C
 Sect OctLoc
   3     002   000003 777640   000030 006000   000000 777640   000000 006000    ................
PL6.E3A0      #003=ZII$COB_PARAM_ERR File=IDSSET.:ZIC0TSI                        FRI 09/05/97 11:33 Page:42
   3     006   000035 777640   000000 006000   000000 177640   000000 006014    ................
   3     012   000000 177640   000000 006014   000000 177640   000000 006014    ................
   3     026*  000000 177640   000000 006014   000000 000000   000000 003000    ................
   3     032   371000 030001   040000 000000                                    .... ...

DCB_NAME
 Sect OctLoc
   3     034   004115 044114   117*** ******                                    .M$LO...

FPT_GETDCB_C
 Sect OctLoc
   3     036   000001 777640   000044 006000   000001 177640   000034 006000    .....$..........
   3     042   000000 177640   000000 006014   000000 000000   000000 000000    ................

D_PROCESSOR
 Sect OctLoc
   3     046   005104 105114   124101 ******                                    .DELTA..

FPT_ALIB
 Sect OctLoc
   3     050   000001 377640   000046 006000   000002 377640   000036 006000    .....&..........
   3     054   000000 177640   000000 006014   000001 777640   000060 006000    .............0..
   3     060   400000 000000   000000 000000                                    ........

(unnamed)
 Sect OctLoc
   3     062   105040 040040   134122 040040                                    E   \R

(unnamed)
 Sect OctLoc
   5     000   000003 777640   000001 777640   000032 400000                    ............
      201      333    1   END ZII$COB_PARAM_ERR;

PL6.E3A0      #003=ZII$COB_PARAM_ERR File=IDSSET.:ZIC0TSI                        FRI 09/05/97 11:33 Page:43
--  Include file information  --

   CP_6.:LIB_E05  cannot be made into a system file and is referenced.
   B$JIT_C.:E05TOU  was found in the system file and is never referenced.
   CP_6_C.:E05TOU  was found in the system file and is referenced.
      No diagnostics issued in procedure ZII$COB_PARAM_ERR.

   Procedure ZII$COB_PARAM_ERR requires 47 words for executable code.
   Procedure ZII$COB_PARAM_ERR requires 40 words of local(AUTO) storage.

    No errors detected in file IDSSET.:ZIC0TSI    .
PL6.E3A0      #003=ZII$COB_PARAM_ERR File=IDSSET.:ZIC0TSI                        FRI 09/05/97 11:33 Page:44
          *** CROSS REFERENCE LISTING ***
**     DENOTES     IDENTIFIER DEFINITION
<<                 IDENTIFIER'S VALUE SET
>>                 IDENTIFIER'S VALUE USED
<>                 IDENTIFIER SET AND/OR USED
--                 IDENTIFIER REFERENCED
PL6.E3A0      #003=ZII$COB_PARAM_ERR File=IDSSET.:ZIC0TSI                        FRI 09/05/97 11:33 Page:45
          MINI XREF LISTING

DCB_NAME
       229**DCL       244--DCLINIT
D_CMD
       265**DCL       313--DCLINIT
D_CMD.EVAL
       266**DCL       327<<ASSIGN
D_CMD.FMT
       268**DCL       328<<ASSIGN
D_CMD.IC
       267**DCL       329<<CALLBLT
D_PROCESSOR
       297**DCL       313--DCLINIT
ERR_BUF
        89**DCL       158--DCLINIT
ERR_CODE
       107**DCL       157--DCLINIT
FPT_ALIB
       313**DCL       330<>CALL
FPT_ALIB.V
       314**DCL       314--DCLINIT
FPT_ERRMSG
       184**DCL       320<<ASSIGN    326<>CALL
FPT_ERRMSG.V
       188**DCL       321--ASSIGN
FPT_ERRMSG.V.OUTDCB1#
       189**DCL       324--ASSIGN
FPT_ERRMSG.V_
       184**DCL       321<<ASSIGN
FPT_ERRMSG_C
       157**DCL       320>>ASSIGN
FPT_ERRMSG_C.V
       161**DCL       157--DCLINIT
PL6.E3A0      #003=ZII$COB_PARAM_ERR File=IDSSET.:ZIC0TSI                        FRI 09/05/97 11:33 Page:46
FPT_GETDCB
       259**DCL       322<<ASSIGN    325<>CALL
FPT_GETDCB.DCBNUM_
       259**DCL       324<<ASSIGN
FPT_GETDCB.V
       260**DCL       323--ASSIGN
FPT_GETDCB.V_
       259**DCL       323<<ASSIGN
FPT_GETDCB_C
       244**DCL       322>>ASSIGN
FPT_GETDCB_C.V
       245**DCL       244--DCLINIT
M$ALIB
        30**DCL-ENT   330--CALL
M$ERR
        29**DCL-ENT   331--CALL
M$ERRMSG
        80**DCL-ENT   326--CALL
M$GETDCB
        23**DCL-ENT   325--CALL
RET
       332**LABEL     325--CALLALT   326--CALLALT
ZI_RETADDR
       264**DCL       329>>CALLBLT
