
PL6.E3A0      #001=ZIA$IDS_INT File=ZIA$IDS_INT.:ZIC0TSI                         FRI 09/05/97 11:33 Page:1
        1        1        /*M*     ZIA$IDS_INT    I-D-S/II       DBACS */
        2        2        /*T***********************************************************/
        3        3        /*T*                                                         */
        4        4        /*T* Copyright (c) Bull HN Information Systems Inc., 1997    */
        5        5        /*T*                                                         */
        6        6        /*T***********************************************************/
        7        7        /*P*
        8        8        NAME:
        9        9        PURPOSE:
       10       10                 TO HANDLE ALL THE IDS INTERFACE SUBROUTINES
       11       11        */
       12       12        ZIA$IDS_INT: PROC (PARAM1,PARAM2,PARAM3);
       13       13        %INCLUDE ZI_SUB4_CAN;
       14      670        %RVA;
       15      947        %UWA;
       16     1282        %IA;
       17     1298        %USE_PROC;
       18     1306        %INCLUDE ZI_DBCS;
       19     1919        %ASL;
       20     1933    1   DCL PARAM1 SBIN (18) HALIGNED;
       21     1934    1   DCL PARAM2 SBIN (18) HALIGNED;
       22     1935    1   DCL PARAM3 SBIN (36) HALIGNED;
       23     1936    1   DCL WORD36 SBIN (36) BASED;
       24     1937    1   DCL BUFALOC UBIN (36) EXT;
       25     1938    1   DCL CCW UBIN (36) EXT UNAL;
       26     1939    1   DCL HIGH_SCHEMA_DBK UBIN (36) EXT;
       27     1940    1   DCL NEED_LARGER_SCHEMA BIT (1) EXT;
       28     1941    1   DCL HIGH_STORE_DBK UBIN (36) EXT;
       29     1942        %IPT_ACC(IAN=IA,UWAN=UWA,RVAN=RVA,USEPN=USE_PROC);
       30     1955        %IPT_CON(IAN=IA,UWAN=UWA,RVAN=RVA,USEPN=USE_PROC);
       31     1968        %IPT_IST(IAN=IA,UWAN=UWA,RVAN=RVA,USEPN=USE_PROC);
       32     1981        %IPT_DIS(IAN=IA,UWAN=UWA,RVAN=RVA,USEPN=USE_PROC);
       33     1994        %IPT_ERS(IAN=IA,UWAN=UWA,RVAN=RVA,USEPN=USE_PROC,EC_BIT='1'B);
       34     2006        %IPT_HIA (IAN=IA,UWAN=UWA,RVAN=RVA,USEPN=USE_PROC);
       35     2017        %IPT_RDY (IAN=IA,UWAN=UWA,RVAN=RVA,USEPN=USE_PROC,READY_OPTION=UPDATE,
       36     2018         AREAS_TO_READY=1);
       37     2032        %IPT_INA (IAN=IA,UWAN=UWA,RVAN=RVA,USEPN=USE_PROC,READY_OPTION=UPDATE,
PL6.E3A0      #001=ZIA$IDS_INT File=ZIA$IDS_INT.:ZIC0TSI                         FRI 09/05/97 11:33 Page:2
       38     2033         AREAS_TO_READY=1);
       39     2047        %IPT_FDR (IAN=IA,UWAN=UWA,RVAN=RVA,USEPN=USE_PROC);
       40     2063        %IPT_FRS (IAN=IA,UWAN=UWA,RVAN=RVA,USEPN=USE_PROC);
       41     2080        %IPT_FRI (IAN=IA,UWAN=UWA,RVAN=RVA,USEPN=USE_PROC);
       42     2097        %IPT_FOR (IAN=IA,UWAN=UWA,RVAN=RVA,USEPN=USE_PROC);
       43     2112        %IPT_GET (IAN=IA,UWAN=UWA,RVAN=RVA,USEPN=USE_PROC);
       44     2124        %IPT_NBF;
       45     2134        %IPT_FIN (IAN=IA,UWAN=UWA,RVAN=RVA,USEPN=USE_PROC,
       46     2135         AREAS_TO_READY=1);
       47     2148        %IPT_MOD(IAN=IA,UWAN=UWA,RVAN=RVA,USEPN=USE_PROC);
       48     2164        %IPT_STO(IAN=IA,UWAN=UWA,RVAN=RVA,USEPN=USE_PROC);
       49     2179        %IPT_FDC(IAN=IA,UWAN=UWA,RVAN=RVA,USEPN=USE_PROC);
       50     2194        %IPT_FCT(IAN=IA,UWAN=UWA,RVAN=RVA,USEPN=USE_PROC);
       51     2209    1   ZIA$HIA: ENTRY;
       52     2210            %CLIMB(FCN=HIA);
       53     2224    1       RETURN;
       54     2225    1   ZIA$READY: ENTRY (PARAM1);
       55     2226    1       IPT_RDY.V.AC_OFFSETS.RVA_OFFSET#(0) = POFFW(ADDR(PARAM1),ADDR(RVA));
       56     2227            %CLIMB(FCN=RDY);
       57     2241    1       RETURN;
       58     2242    1   ZIA$INA: ENTRY (PARAM1);
       59     2243    1       IPT_INA.V.AC_OFFSETS.RVA_OFFSET#(0) = POFFW(ADDR(PARAM1),ADDR(RVA));
       60     2244            %CLIMB(FCN=INA);
       61     2258    1       RETURN;
       62     2259    1   ZIA$FDR: ENTRY(PARAM1,PARAM2,PARAM3);
       63     2260    1       IF PARAM1 < 0
       64     2261    1       THEN IPT_FDR.V.RC.RC_OFFSET# = - PARAM1;
       65     2262    1       ELSE IF PARAM1 = 0
       66     2263    1           THEN IPT_FDR.V.RC.RC_OFFSET# = POFFW(ADDR(RVA.NULL),ADDR(RVA));
       67     2264    1           ELSE IPT_FDR.V.RC.RC_OFFSET#=POFFW(ADDR(PARAM1),ADDR(RVA));
       68     2265    1       IPT_FDR.DBK_=VECTOR(PARAM3);
       69     2266            %CLIMB(FCN=FDR);
       70     2280    1       RETURN;
       71     2281    1   ZIA$FRS: ENTRY(PARAM1,PARAM2,PARAM3);
       72     2282    1       IF PARAM1 = 0 THEN
       73     2283    1           IPT_FRS.V.RC.RC_OFFSET# = POFFW(ADDR(RVA.NULL),ADDR(RVA));
       74     2284    1       ELSE
PL6.E3A0      #001=ZIA$IDS_INT File=ZIA$IDS_INT.:ZIC0TSI                         FRI 09/05/97 11:33 Page:3
       75     2285    1           IF PARAM1 < 0
       76     2286    1           THEN IPT_FRS.V.RC.RC_OFFSET# = - PARAM1;
       77     2287    1           ELSE
       78     2288    1               IPT_FRS.V.RC.RC_OFFSET#=POFFW(ADDR(PARAM1),ADDR(RVA));
       79     2289    1       IF PARAM2 < 0
       80     2290    1       THEN IPT_FRS.V.SC.SC_OFFSET# = - PARAM2;
       81     2291    1       ELSE IPT_FRS.V.SC.SC_OFFSET#=POFFW(ADDR(PARAM2),ADDR(RVA));
       82     2292    1       IPT_FRS.V.FCW.RECORD_LOCATION# = PARAM3;
       83     2293            %CLIMB(FCN=FRS);
       84     2307    1       RETURN;
       85     2308    1   ZIA$FRI: ENTRY(PARAM1,PARAM2,PARAM3);
       86     2309    1       IF PARAM1 = 0 THEN
       87     2310    1           IPT_FRI.V.RC.RC_OFFSET# = POFFW(ADDR(RVA.NULL),ADDR(RVA));
       88     2311    1       ELSE IF PARAM1 < 0
       89     2312    1           THEN IPT_FRI.V.RC.RC_OFFSET# = - PARAM1;
       90     2313    1           ELSE IPT_FRI.V.RC.RC_OFFSET#=POFFW(ADDR(PARAM1),ADDR(RVA));
       91     2314    1       IF PARAM2 < 0
       92     2315    1       THEN IPT_FRI.V.SC.SC_OFFSET# = - PARAM2;
       93     2316    1       ELSE IPT_FRI.V.SC.SC_OFFSET#=POFFW(ADDR(PARAM2),ADDR(RVA));
       94     2317    1       IPT_FRI.V.FCW.RECORD_LOCATION# = PARAM3;
       95     2318            %CLIMB(FCN=FRI);
       96     2332    1       RETURN;
       97     2333    1   ZIA$FOR: ENTRY (PARAM1);
       98     2334    1       IF PARAM1 < 0
       99     2335    1       THEN IPT_FOR.V.SC.SC_OFFSET# = - PARAM1;
      100     2336    1       ELSE IPT_FOR.V.SC.SC_OFFSET#=POFFW(ADDR(PARAM1),ADDR(RVA));
      101     2337            %CLIMB(FCN=FOR);
      102     2351    1       RETURN;
      103     2352    1   ZIA$GET: ENTRY(PARAM1);
      104     2353    1       IF PARAM1 = 0 THEN
      105     2354    1           IPT_GET.V.RC.RC_OFFSET#=POFFW(ADDR(RVA.NULL),ADDR(RVA));
      106     2355    1       ELSE IF PARAM1 < 0
      107     2356    1           THEN IPT_GET.V.RC.RC_OFFSET# = - PARAM1;
      108     2357    1           ELSE IPT_GET.V.RC.RC_OFFSET#=POFFW(ADDR(PARAM1),ADDR(RVA));
      109     2358            %CLIMB(FCN=GET);
      110     2372    1       RETURN;
      111     2373    1   ZIA$NBUFFERS: ENTRY (PARAM1);
PL6.E3A0      #001=ZIA$IDS_INT File=ZIA$IDS_INT.:ZIC0TSI                         FRI 09/05/97 11:33 Page:4
      112     2374    1       IPT_NBF.BUFFS_REQ_ = VECTOR(ADDR(PARAM1) -> WORD36);
      113     2375    1       IPT_NBF.BUFFS_ALLOC_ = VECTOR(BUFALOC);
      114     2376            %CLIMB(FCN=NBF);
      115     2390    1       RETURN;
      116     2391    1   ZIA$FINISH: ENTRY (PARAM1);
      117     2392    1       IF ADDR(PARAM1) -> WORD36 = 0
      118     2393    2       THEN DO;
      119     2394    2           IPT_FIN.V.ALCW.N_AREAS# = 0;
      120     2395    2           END;
      121     2396    2       ELSE DO;
      122     2397    2           IPT_FIN.V.ALCW.N_AREAS# = 1;
      123     2398    2           IPT_FIN.V.AC_OFFSETS.RVA_OFFSET#(0) = POFFW(ADDR(PARAM1),ADDR(RVA));
      124     2399    2           END;
      125     2400            %CLIMB(FCN=FIN);
      126     2414    1       RETURN;
      127     2415    1   ZIA$MODIFY:
      128     2416    1       ENTRY (PARAM1,PARAM2);
      129     2417        /*
      130     2418                   Didn't implement modify fields
      131     2419                 for any of the modifys.
      132     2420        */
      133     2421    1       IF PARAM1 < 0
      134     2422    1       THEN IPT_MOD.V.RC.RC_OFFSET# = - PARAM1;
      135     2423    1       ELSE IPT_MOD.V.RC.RC_OFFSET# = POFFW(ADDR(PARAM1),ADDR(RVA));
      136     2424    1       IF ADDR(PARAM2) ~= ADDR(NIL)
      137     2425    2       THEN DO;
      138     2426    2           IF ADDR(PARAM2)-> WORD36 = 0
      139     2427    2           THEN IPT_MOD.V.MCW.MC_BIT1# = '0'B;
      140     2428    2           ELSE IF ADDR(PARAM2)-> WORD36 = 1
      141     2429    2               THEN IPT_MOD.V.MCW.MC_BIT1# = '1'B;
      142     2430    3               ELSE DO;
      143     2431    3                   IPT_MOD.V.MCW.MC_BIT0# = '1'B;
      144     2432    3                   IPT_MOD.V.SLCW.N_SETS# = 1;
      145     2433    3                   IF PARAM2 < 0 THEN
      146     2434    3                       IPT_MOD.V.FL_SL_LIST.RVA_OFFSET#(0) = - PARAM2;
      147     2435    3                   ELSE
      148     2436    3                       IPT_MOD.V.FL_SL_LIST.RVA_OFFSET#(0) = POFFW(ADDR(PARAM2),ADDR(
PL6.E3A0      #001=ZIA$IDS_INT File=ZIA$IDS_INT.:ZIC0TSI                         FRI 09/05/97 11:33 Page:5
              2436                                RVA));
      149     2437    3                   END;
      150     2438                %CLIMB(FCN=MOD);
      151     2452    2           IPT_MOD.V.SLCW.N_SETS# = 0;
      152     2453    2           IPT_MOD.V.MCW.MC_BIT0# = '0'B;
      153     2454    2           IPT_MOD.V.MCW.MC_BIT1# = '0'B;
      154     2455    2           END;
      155     2456    2       ELSE DO;
      156     2457                %CLIMB(FCN=MOD);
      157     2471    2           END;
      158     2472    1       RETURN;
      159     2473    1   ZIA$STORE:
      160     2474    1       ENTRY (PARAM1);
      161     2475    1       IF PARAM1 <0
      162     2476    1       THEN IPT_STO.V.RC.RC_OFFSET# = - PARAM1;
      163     2477    1       ELSE IPT_STO.V.RC.RC_OFFSET# = POFFW(ADDR(PARAM1),ADDR(RVA));
      164     2478            %CLIMB(FCN=STO);
      165     2492    1       IF UWA.DIRECT_REF > ((HIGH_SCHEMA_DBK * 2) / 3)
      166     2493    2       THEN DO;
      167     2494    2           NEED_LARGER_SCHEMA = '1'B;
      168     2495    2           END;
      169     2496    1       HIGH_STORE_DBK = UWA.DIRECT_REF;
      170     2497    1       RETURN;
      171     2498    1   ZIA$FIND_CALC:
      172     2499    1       ENTRY (PARAM1);
      173     2500        %EJECT;
PL6.E3A0      #001=ZIA$IDS_INT File=ZIA$IDS_INT.:ZIC0TSI                         FRI 09/05/97 11:33 Page:6
      174     2501    1       IF PARAM1 < 0
      175     2502    1       THEN IPT_FDC.V.RC.RC_OFFSET# = - PARAM1;
      176     2503    1       ELSE IPT_FDC.V.RC.RC_OFFSET# = POFFW(ADDR(PARAM1),ADDR(RVA));
      177     2504            %CLIMB(FCN=FDC);
      178     2518    1       RETURN;
      179     2519    1   ZIA$FIND_TYPE:
      180     2520    1       ENTRY (PARAM1);
      181     2521        /*
      182     2522              FIND CURRENT OF RECORD TYPE.
      183     2523            note:
      184     2524                 none of the retention list for set are implemented
      185     2525                 for the calls of find current of type.
      186     2526        */
      187     2527    1       IF PARAM1 < 0
      188     2528    1       THEN IPT_FCT.V.RC.RC_OFFSET# = - PARAM1;
      189     2529    1       ELSE IPT_FCT.V.RC.RC_OFFSET# = POFFW(ADDR(PARAM1),ADDR(RVA));
      190     2530            %CLIMB(FCN=FCT);
      191     2544    1       RETURN;
      192     2545    1   ZIA$CONNECT:
      193     2546    1       ENTRY(PARAM1);
      194     2547        /*
      195     2548              PARAM 1 - Is the rva offset for the set to connect up
      196     2549                         from the the current of run on both the owner
      197     2550                         and the member.
      198     2551        */
      199     2552    1       IF PARAM1 < 0
      200     2553    1       THEN IPT_CON.V.SC.SC_OFFSET# = - PARAM1;
      201     2554    1       ELSE IPT_CON.V.SC.SC_OFFSET# = POFFW(ADDR(PARAM1),ADDR(RVA));
      202     2555    1       IPT_CON.V.RC.RC_OFFSET# = POFFW(ADDR(RVA.NULL),ADDR(RVA));
      203     2556            %CLIMB(FCN=CON);
      204     2570    1       RETURN;
      205     2571    1   ZIA$DISCONN:
      206     2572    1       ENTRY(PARAM1);
      207     2573        /*
      208     2574              PARAM 1 - Is the rva offset for the set to disconnect up
      209     2575                         from the the current of run on both the owner
      210     2576                         and the member.
PL6.E3A0      #001=ZIA$IDS_INT File=ZIA$IDS_INT.:ZIC0TSI                         FRI 09/05/97 11:33 Page:7
      211     2577        */
      212     2578    1       IF PARAM1 < 0
      213     2579    1       THEN IPT_DIS.V.SC.SC_OFFSET# = - PARAM1;
      214     2580    1       ELSE IPT_DIS.V.SC.SC_OFFSET# = POFFW(ADDR(PARAM1),ADDR(RVA));
      215     2581    1       IPT_DIS.V.RC.RC_OFFSET# = POFFW(ADDR(RVA.NULL),ADDR(RVA));
      216     2582            %CLIMB(FCN=DIS);
      217     2596    1       RETURN;
      218     2597    1   ZIA$ERASE:
      219     2598    1       ENTRY(PARAM1);
      220     2599        /*
      221     2600              PARAM 1 - Is the rva offset for the set to disconnect up
      222     2601                         from the the current of run on both the owner
      223     2602                         and the member.
      224     2603        */
      225     2604    1       IF PARAM1 < 0
      226     2605    1       THEN IPT_ERS.V.RC.RC_OFFSET# = - PARAM1;
      227     2606    1       ELSE IPT_ERS.V.RC.RC_OFFSET# = POFFW(ADDR(PARAM1),ADDR(RVA));
      228     2607            %CLIMB(FCN=ERS);
      229     2621    1       RETURN;
      230     2622    1   ZIA$ACC:
      231     2623    1       ENTRY(PARAM1,PARAM2,PARAM3);
      232     2624    1       IPT_ACC.DBK_ = VECTOR(PARAM3);
      233     2625    1       IF PARAM1 < 0
      234     2626    1       THEN IPT_ACC.V.RVA_ITEM.OFFSET# = - PARAM1;
      235     2627    1       ELSE IPT_ACC.V.RVA_ITEM.OFFSET# = POFFW(ADDR(PARAM1),ADDR(RVA));
      236     2628    1       IPT_ACC.V.CCW.SCI# = CCW;
      237     2629            %CLIMB(FCN=ACC);
      238     2643    1       RETURN;
      239     2644    1   ZIA$SHAREALL:
      240     2645    1       ENTRY;
      241     2646        /*       %CLIMB(FCN=SHALL,PARAMS=0);*/
      242     2647    1       RETURN;
      243     2648    1   ZIA$SHAREIN:
      244     2649    1       ENTRY;
      245     2650        /*       %CLIMB(FCN=SHIN,PARAMS=0);*/
      246     2651    1       RETURN;
      247     2652    1   ZIA$NOSHARE:
PL6.E3A0      #001=ZIA$IDS_INT File=ZIA$IDS_INT.:ZIC0TSI                         FRI 09/05/97 11:33 Page:8
      248     2653    1       ENTRY;
      249     2654        /*       %CLIMB(FCN=SHNO,PARAMS=0);*/
      250     2655    1       RETURN;
      251     2656    1   END ZIA$IDS_INT;

PL6.E3A0      #001=ZIA$IDS_INT File=ZIA$IDS_INT.:ZIC0TSI                         FRI 09/05/97 11:33 Page:9
--  Include file information  --

   ZI_DBCS.:ZIC0TOU  is referenced.
   ZI_SUB4_CAN.:ZIC0TOU  is referenced.
   B$JIT_C.:E05TOU  was found in the system file and is never referenced.
   CP_6_C.:E05TOU  was found in the system file and is never referenced.
      No diagnostics issued in procedure ZIA$IDS_INT.

   Procedure ZIA$IDS_INT requires 691 words for executable code.
   Procedure ZIA$IDS_INT requires 8 words of local(AUTO) storage.

    No errors detected in file ZIA$IDS_INT.:ZIC0TSI    .

PL6.E3A0      #001=ZIA$IDS_INT File=ZIA$IDS_INT.:ZIC0TSI                         FRI 09/05/97 11:33 Page:10

 Object Unit name= ZIA$IDS_INT                                File name= ZIA$IDS_INT.:ZIC0TOU
 UTS= SEP 05 '97 11:33:29.24 FRI                              Compiler= PL-6/E31         Sev=      00
 SharedLib= :SHARED_SYSTEM                                    Alt SharedLib=


    ****  Control sections  ****

 Sect   Type Bound  Init  Size OctSiz  Section name(segment info)
    0  LblCom even  none   106    152  RVA
    1  LblCom even  none   656   1220  UWA
    2  LblCom even  none    46     56  IA
    3  LblCom even  none     4      4  USE_PROC
    4  LblCom even  none     1      1  BUFALOC
    5  LblCom even  none     1      1  CCW
    6  LblCom even  none     1      1  HIGH_SCHEMA_DBK
    7  LblCom even  none     1      1  NEED_LARGER_SCHEMA
    8  LblCom even  none     1      1  HIGH_STORE_DBK
    9   Data  even  none   252    374  ZIA$IDS_INT
   10   Proc  even  none   691   1263  ZIA$IDS_INT
   11  RoData even  none     7      7  ZIA$IDS_INT
PL6.E3A0      #001=ZIA$IDS_INT File=ZIA$IDS_INT.:ZIC0TSI                         FRI 09/05/97 11:33 Page:11

    ****  Entry defs  ****

                              Check   Calling
                             calling  sequence
  Sect OctLoc Primary Altret sequence   type   Parms  Name
    10      0   yes            yes      Std        3  ZIA$IDS_INT
    10      3                  yes      Std        0  ZIA$HIA
    10     11                  yes      Std        1  ZIA$READY
    10     27                  yes      Std        1  ZIA$INA
    10     45                  yes      Std        3  ZIA$FDR
    10    127                  yes      Std        3  ZIA$FRS
    10    243                  yes      Std        3  ZIA$FRI
    10    357                  yes      Std        1  ZIA$FOR
    10    416                  yes      Std        1  ZIA$GET
    10    475                  yes      Std        1  ZIA$NBUFFERS
    10    510                  yes      Std        1  ZIA$FINISH
    10    536                  yes      Std        2  ZIA$MODIFY
    10    661                  yes      Std        1  ZIA$STORE
    10    733                  yes      Std        1  ZIA$FIND_CALC
    10    772                  yes      Std        1  ZIA$FIND_TYPE
    10   1031                  yes      Std        1  ZIA$CONNECT
    10   1100                  yes      Std        1  ZIA$DISCONN
    10   1147                  yes      Std        1  ZIA$ERASE
    10   1206                  yes      Std        3  ZIA$ACC
    10   1252                  yes      Std        0  ZIA$SHAREALL
    10   1255                  yes      Std        0  ZIA$SHAREIN
    10   1260                  yes      Std        0  ZIA$NOSHARE

  ****  Entry refs  ****

         Check        Calling
        calling       sequence
Altret sequence SRef   type   Args  Name
                       nStd      0 X66_AUTO_3
                       nStd      0 X66_ARET
PL6.E3A0      #001=ZIA$IDS_INT File=ZIA$IDS_INT.:ZIC0TSI                         FRI 09/05/97 11:33 Page:12

  ****  Data refs  ****

  Flags:  r = read only, s = secondary
Flgs Name                             Flgs Name                             Flgs Name
     I$HIA                                 I$RDY                                 I$FCT
     I$ACC                                 I$FDR                                 I$FOR
     I$GET                                 I$NBF                                 I$CON
     I$ERS                                 I$FRI                                 I$MOD
     I$DIS                                 I$INA                                 I$STO
     I$FRS                                 I$FIN                                 I$FDC

  ****  Segment refs  ****

  Flags:  r = read only, s = secondary
Flgs Name                             Flgs Name                             Flgs Name
     ISSID                                 NULLSID                               ASLENTSID
PL6.E3A0      #001=ZIA$IDS_INT File=ZIA$IDS_INT.:ZIC0TSI                         FRI 09/05/97 11:33 Page:13


        1        1        /*M*     ZIA$IDS_INT    I-D-S/II       DBACS */
        2        2        /*T***********************************************************/
        3        3        /*T*                                                         */
        4        4        /*T* Copyright (c) Bull HN Information Systems Inc., 1997    */
        5        5        /*T*                                                         */
        6        6        /*T***********************************************************/
        7        7        /*P*
        8        8        NAME:
        9        9        PURPOSE:
       10       10                 TO HANDLE ALL THE IDS INTERFACE SUBROUTINES
       11       11        */
       12       12        ZIA$IDS_INT: PROC (PARAM1,PARAM2,PARAM3);

     12 10 000000   000000 700200 xent  ZIA$IDS_INT  TSX0  ! X66_AUTO_3
        10 000001   000010 000003                    ZERO    8,3
        10 000002   000005 710000 10                 TRA     s:2218

       13       13        %INCLUDE ZI_SUB4_CAN;
       14      670        %RVA;
       15      947        %UWA;
       16     1282        %IA;
       17     1298        %USE_PROC;
       18     1306        %INCLUDE ZI_DBCS;
       19     1919        %ASL;
       20     1933    1   DCL PARAM1 SBIN (18) HALIGNED;
       21     1934    1   DCL PARAM2 SBIN (18) HALIGNED;
       22     1935    1   DCL PARAM3 SBIN (36) HALIGNED;
       23     1936    1   DCL WORD36 SBIN (36) BASED;
       24     1937    1   DCL BUFALOC UBIN (36) EXT;
       25     1938    1   DCL CCW UBIN (36) EXT UNAL;
       26     1939    1   DCL HIGH_SCHEMA_DBK UBIN (36) EXT;
       27     1940    1   DCL NEED_LARGER_SCHEMA BIT (1) EXT;
       28     1941    1   DCL HIGH_STORE_DBK UBIN (36) EXT;
       29     1942        %IPT_ACC(IAN=IA,UWAN=UWA,RVAN=RVA,USEPN=USE_PROC);
       30     1955        %IPT_CON(IAN=IA,UWAN=UWA,RVAN=RVA,USEPN=USE_PROC);
       31     1968        %IPT_IST(IAN=IA,UWAN=UWA,RVAN=RVA,USEPN=USE_PROC);
PL6.E3A0      #001=ZIA$IDS_INT File=ZIA$IDS_INT.:ZIC0TSI                         FRI 09/05/97 11:33 Page:14
       32     1981        %IPT_DIS(IAN=IA,UWAN=UWA,RVAN=RVA,USEPN=USE_PROC);
       33     1994        %IPT_ERS(IAN=IA,UWAN=UWA,RVAN=RVA,USEPN=USE_PROC,EC_BIT='1'B);
       34     2006        %IPT_HIA (IAN=IA,UWAN=UWA,RVAN=RVA,USEPN=USE_PROC);
       35     2017        %IPT_RDY (IAN=IA,UWAN=UWA,RVAN=RVA,USEPN=USE_PROC,READY_OPTION=UPDATE,
       36     2018         AREAS_TO_READY=1);
       37     2032        %IPT_INA (IAN=IA,UWAN=UWA,RVAN=RVA,USEPN=USE_PROC,READY_OPTION=UPDATE,
       38     2033         AREAS_TO_READY=1);
       39     2047        %IPT_FDR (IAN=IA,UWAN=UWA,RVAN=RVA,USEPN=USE_PROC);
       40     2063        %IPT_FRS (IAN=IA,UWAN=UWA,RVAN=RVA,USEPN=USE_PROC);
       41     2080        %IPT_FRI (IAN=IA,UWAN=UWA,RVAN=RVA,USEPN=USE_PROC);
       42     2097        %IPT_FOR (IAN=IA,UWAN=UWA,RVAN=RVA,USEPN=USE_PROC);
       43     2112        %IPT_GET (IAN=IA,UWAN=UWA,RVAN=RVA,USEPN=USE_PROC);
       44     2124        %IPT_NBF;
       45     2134        %IPT_FIN (IAN=IA,UWAN=UWA,RVAN=RVA,USEPN=USE_PROC,
       46     2135         AREAS_TO_READY=1);
       47     2148        %IPT_MOD(IAN=IA,UWAN=UWA,RVAN=RVA,USEPN=USE_PROC);
       48     2164        %IPT_STO(IAN=IA,UWAN=UWA,RVAN=RVA,USEPN=USE_PROC);
       49     2179        %IPT_FDC(IAN=IA,UWAN=UWA,RVAN=RVA,USEPN=USE_PROC);
       50     2194        %IPT_FCT(IAN=IA,UWAN=UWA,RVAN=RVA,USEPN=USE_PROC);
       51     2209    1   ZIA$HIA: ENTRY;

   2209 10 000003   000000 700200 xent  ZIA$HIA      TSX0  ! X66_AUTO_3
        10 000004   000010 000003                    ZERO    8,3

       52     2210            %CLIMB(FCN=HIA);

   2218 10 000005   000100 630400 9                  EPPR0   IPT_HIA
        10 000006   000000 713400 xsym               CLIMB   I$HIA
        10 000007   402000 600000 xsid               climb   nvectors=         5

       53     2224    1       RETURN;

   2224 10 000010   000000 702200 xent               TSX2  ! X66_ARET

       54     2225    1   ZIA$READY: ENTRY (PARAM1);

   2225 10 000011   000000 700200 xent  ZIA$READY    TSX0  ! X66_AUTO_3
PL6.E3A0      #001=ZIA$IDS_INT File=ZIA$IDS_INT.:ZIC0TSI                         FRI 09/05/97 11:33 Page:15
        10 000012   000010 000003                    ZERO    8,3

       55     2226    1       IPT_RDY.V.AC_OFFSETS.RVA_OFFSET#(0) = POFFW(ADDR(PARAM1),ADDR(RVA));

   2226 10 000013   000000 236000 11                 LDQ     0
        10 000014   000022 772000                    QRL     18
        10 000015   200006 756100                    STQ     @PARAM3+1,,AUTO
        10 000016   200003 236100                    LDQ     @PARAM1,,AUTO
        10 000017   000022 772000                    QRL     18
        10 000020   200006 136100                    SBLQ    @PARAM3+1,,AUTO
        10 000021   000000 620006                    EAX0    0,QL
        10 000022   000125 740000 9                  STX0    IPT_RDY+11

       56     2227            %CLIMB(FCN=RDY);

   2235 10 000023   000112 630400 9                  EPPR0   IPT_RDY
        10 000024   000000 713400 xsym               CLIMB   I$RDY
        10 000025   402000 600000 xsid               climb   nvectors=         5

       57     2241    1       RETURN;

   2241 10 000026   000000 702200 xent               TSX2  ! X66_ARET

       58     2242    1   ZIA$INA: ENTRY (PARAM1);

   2242 10 000027   000000 700200 xent  ZIA$INA      TSX0  ! X66_AUTO_3
        10 000030   000010 000003                    ZERO    8,3

       59     2243    1       IPT_INA.V.AC_OFFSETS.RVA_OFFSET#(0) = POFFW(ADDR(PARAM1),ADDR(RVA));

   2243 10 000031   000000 236000 11                 LDQ     0
        10 000032   000022 772000                    QRL     18
        10 000033   200006 756100                    STQ     @PARAM3+1,,AUTO
        10 000034   200003 236100                    LDQ     @PARAM1,,AUTO
        10 000035   000022 772000                    QRL     18
        10 000036   200006 136100                    SBLQ    @PARAM3+1,,AUTO
        10 000037   000000 620006                    EAX0    0,QL
PL6.E3A0      #001=ZIA$IDS_INT File=ZIA$IDS_INT.:ZIC0TSI                         FRI 09/05/97 11:33 Page:16
        10 000040   000143 740000 9                  STX0    IPT_INA+11

       60     2244            %CLIMB(FCN=INA);

   2252 10 000041   000130 630400 9                  EPPR0   IPT_INA
        10 000042   000000 713400 xsym               CLIMB   I$INA
        10 000043   402000 600000 xsid               climb   nvectors=         5

       61     2258    1       RETURN;

   2258 10 000044   000000 702200 xent               TSX2  ! X66_ARET

       62     2259    1   ZIA$FDR: ENTRY(PARAM1,PARAM2,PARAM3);

   2259 10 000045   000000 700200 xent  ZIA$FDR      TSX0  ! X66_AUTO_3
        10 000046   000010 000003                    ZERO    8,3

       63     2260    1       IF PARAM1 < 0

   2260 10 000047   200003 470500                    LDP0    @PARAM1,,AUTO
        10 000050   000100 100500                    MLR     fill='000'O
        10 000051   000000 000002                    ADSC9   0,,PR0                   cn=0,n=2
        10 000052   200006 000004                    ADSC9   @PARAM3+1,,AUTO          cn=0,n=4
        10 000053   200006 236100                    LDQ     @PARAM3+1,,AUTO
        10 000054   000022 732000                    QRS     18
        10 000055   000000 116003                    CMPQ    0,DU
        10 000056   000070 605000 10                 TPL     s:2262

       64     2261    1       THEN IPT_FDR.V.RC.RC_OFFSET# = - PARAM1;

   2261 10 000057   000100 100500                    MLR     fill='000'O
        10 000060   000000 000002                    ADSC9   0,,PR0                   cn=0,n=2
        10 000061   200006 000004                    ADSC9   @PARAM3+1,,AUTO          cn=0,n=4
        10 000062   200006 236100                    LDQ     @PARAM3+1,,AUTO
        10 000063   000022 732000                    QRS     18
        10 000064   777777 620006                    EAX0    -1,QL
        10 000065   777777 660003                    ERX0    -1,DU
PL6.E3A0      #001=ZIA$IDS_INT File=ZIA$IDS_INT.:ZIC0TSI                         FRI 09/05/97 11:33 Page:17
        10 000066   000162 740000 9                  STX0    IPT_FDR+12
        10 000067   000120 710000 10                 TRA     s:2265

       65     2262    1       ELSE IF PARAM1 = 0

   2262 10 000070   000100 100500                    MLR     fill='000'O
        10 000071   000000 000002                    ADSC9   0,,PR0                   cn=0,n=2
        10 000072   200006 000004                    ADSC9   @PARAM3+1,,AUTO          cn=0,n=4
        10 000073   200006 236100                    LDQ     @PARAM3+1,,AUTO
        10 000074   000022 732000                    QRS     18
        10 000075   000000 116003                    CMPQ    0,DU
        10 000076   000110 601000 10                 TNZ     s:2264

       66     2263    1           THEN IPT_FDR.V.RC.RC_OFFSET# = POFFW(ADDR(RVA.NULL),ADDR(RVA));

   2263 10 000077   000000 236000 11                 LDQ     0
        10 000100   000022 772000                    QRL     18
        10 000101   200006 756100                    STQ     @PARAM3+1,,AUTO
        10 000102   000001 236000 11                 LDQ     1
        10 000103   000022 772000                    QRL     18
        10 000104   200006 136100                    SBLQ    @PARAM3+1,,AUTO
        10 000105   000000 620006                    EAX0    0,QL
        10 000106   000162 740000 9                  STX0    IPT_FDR+12
        10 000107   000120 710000 10                 TRA     s:2265

       67     2264    1           ELSE IPT_FDR.V.RC.RC_OFFSET#=POFFW(ADDR(PARAM1),ADDR(RVA));

   2264 10 000110   000000 236000 11                 LDQ     0
        10 000111   000022 772000                    QRL     18
        10 000112   200006 756100                    STQ     @PARAM3+1,,AUTO
        10 000113   200003 236100                    LDQ     @PARAM1,,AUTO
        10 000114   000022 772000                    QRL     18
        10 000115   200006 136100                    SBLQ    @PARAM3+1,,AUTO
        10 000116   000000 620006                    EAX0    0,QL
        10 000117   000162 740000 9                  STX0    IPT_FDR+12

       68     2265    1       IPT_FDR.DBK_=VECTOR(PARAM3);
PL6.E3A0      #001=ZIA$IDS_INT File=ZIA$IDS_INT.:ZIC0TSI                         FRI 09/05/97 11:33 Page:18

   2265 10 000120   777640 235007                    LDA     -96,DL
        10 000121   200005 236100                    LDQ     @PARAM3,,AUTO
        10 000122   000160 757000 9                  STAQ    IPT_FDR+10

       69     2266            %CLIMB(FCN=FDR);

   2274 10 000123   000146 630400 9                  EPPR0   IPT_FDR
        10 000124   000000 713400 xsym               CLIMB   I$FDR
        10 000125   402400 600000 xsid               climb   nvectors=         6

       70     2280    1       RETURN;

   2280 10 000126   000000 702200 xent               TSX2  ! X66_ARET

       71     2281    1   ZIA$FRS: ENTRY(PARAM1,PARAM2,PARAM3);

   2281 10 000127   000000 700200 xent  ZIA$FRS      TSX0  ! X66_AUTO_3
        10 000130   000010 000003                    ZERO    8,3

       72     2282    1       IF PARAM1 = 0 THEN

   2282 10 000131   200003 470500                    LDP0    @PARAM1,,AUTO
        10 000132   000100 100500                    MLR     fill='000'O
        10 000133   000000 000002                    ADSC9   0,,PR0                   cn=0,n=2
        10 000134   200006 000004                    ADSC9   @PARAM3+1,,AUTO          cn=0,n=4
        10 000135   200006 236100                    LDQ     @PARAM3+1,,AUTO
        10 000136   000022 732000                    QRS     18
        10 000137   000000 116003                    CMPQ    0,DU
        10 000140   000152 601000 10                 TNZ     s:2285

       73     2283    1           IPT_FRS.V.RC.RC_OFFSET# = POFFW(ADDR(RVA.NULL),ADDR(RVA));

   2283 10 000141   000000 236000 11                 LDQ     0
        10 000142   000022 772000                    QRL     18
        10 000143   200006 756100                    STQ     @PARAM3+1,,AUTO
        10 000144   000001 236000 11                 LDQ     1
PL6.E3A0      #001=ZIA$IDS_INT File=ZIA$IDS_INT.:ZIC0TSI                         FRI 09/05/97 11:33 Page:19
        10 000145   000022 772000                    QRL     18
        10 000146   200006 136100                    SBLQ    @PARAM3+1,,AUTO
        10 000147   000000 620006                    EAX0    0,QL
        10 000150   000201 740000 9                  STX0    IPT_FRS+11
        10 000151   000202 710000 10                 TRA     s:2289

       74     2284    1       ELSE
       75     2285    1           IF PARAM1 < 0

   2285 10 000152   000100 100500                    MLR     fill='000'O
        10 000153   000000 000002                    ADSC9   0,,PR0                   cn=0,n=2
        10 000154   200006 000004                    ADSC9   @PARAM3+1,,AUTO          cn=0,n=4
        10 000155   200006 236100                    LDQ     @PARAM3+1,,AUTO
        10 000156   000022 732000                    QRS     18
        10 000157   000000 116003                    CMPQ    0,DU
        10 000160   000172 605000 10                 TPL     s:2288

       76     2286    1           THEN IPT_FRS.V.RC.RC_OFFSET# = - PARAM1;

   2286 10 000161   000100 100500                    MLR     fill='000'O
        10 000162   000000 000002                    ADSC9   0,,PR0                   cn=0,n=2
        10 000163   200006 000004                    ADSC9   @PARAM3+1,,AUTO          cn=0,n=4
        10 000164   200006 236100                    LDQ     @PARAM3+1,,AUTO
        10 000165   000022 732000                    QRS     18
        10 000166   777777 620006                    EAX0    -1,QL
        10 000167   777777 660003                    ERX0    -1,DU
        10 000170   000201 740000 9                  STX0    IPT_FRS+11
        10 000171   000202 710000 10                 TRA     s:2289

       77     2287    1           ELSE
       78     2288    1               IPT_FRS.V.RC.RC_OFFSET#=POFFW(ADDR(PARAM1),ADDR(RVA));

   2288 10 000172   000000 236000 11                 LDQ     0
        10 000173   000022 772000                    QRL     18
        10 000174   200006 756100                    STQ     @PARAM3+1,,AUTO
        10 000175   200003 236100                    LDQ     @PARAM1,,AUTO
        10 000176   000022 772000                    QRL     18
PL6.E3A0      #001=ZIA$IDS_INT File=ZIA$IDS_INT.:ZIC0TSI                         FRI 09/05/97 11:33 Page:20
        10 000177   200006 136100                    SBLQ    @PARAM3+1,,AUTO
        10 000200   000000 620006                    EAX0    0,QL
        10 000201   000201 740000 9                  STX0    IPT_FRS+11

       79     2289    1       IF PARAM2 < 0

   2289 10 000202   200004 471500                    LDP1    @PARAM2,,AUTO
        10 000203   000100 100500                    MLR     fill='000'O
        10 000204   100000 000002                    ADSC9   0,,PR1                   cn=0,n=2
        10 000205   200006 000004                    ADSC9   @PARAM3+1,,AUTO          cn=0,n=4
        10 000206   200006 236100                    LDQ     @PARAM3+1,,AUTO
        10 000207   000022 732000                    QRS     18
        10 000210   000000 116003                    CMPQ    0,DU
        10 000211   000223 605000 10                 TPL     s:2291

       80     2290    1       THEN IPT_FRS.V.SC.SC_OFFSET# = - PARAM2;

   2290 10 000212   000100 100500                    MLR     fill='000'O
        10 000213   100000 000002                    ADSC9   0,,PR1                   cn=0,n=2
        10 000214   200006 000004                    ADSC9   @PARAM3+1,,AUTO          cn=0,n=4
        10 000215   200006 236100                    LDQ     @PARAM3+1,,AUTO
        10 000216   000022 732000                    QRS     18
        10 000217   777777 621006                    EAX1    -1,QL
        10 000220   777777 661003                    ERX1    -1,DU
        10 000221   000202 741000 9                  STX1    IPT_FRS+12
        10 000222   000233 710000 10                 TRA     s:2292

       81     2291    1       ELSE IPT_FRS.V.SC.SC_OFFSET#=POFFW(ADDR(PARAM2),ADDR(RVA));

   2291 10 000223   000000 236000 11                 LDQ     0
        10 000224   000022 772000                    QRL     18
        10 000225   200006 756100                    STQ     @PARAM3+1,,AUTO
        10 000226   200004 236100                    LDQ     @PARAM2,,AUTO
        10 000227   000022 772000                    QRL     18
        10 000230   200006 136100                    SBLQ    @PARAM3+1,,AUTO
        10 000231   000000 621006                    EAX1    0,QL
        10 000232   000202 741000 9                  STX1    IPT_FRS+12
PL6.E3A0      #001=ZIA$IDS_INT File=ZIA$IDS_INT.:ZIC0TSI                         FRI 09/05/97 11:33 Page:21

       82     2292    1       IPT_FRS.V.FCW.RECORD_LOCATION# = PARAM3;

   2292 10 000233   200005 473500                    LDP3    @PARAM3,,AUTO
        10 000234   000000 101500                    MRL     fill='000'O
        10 000235   300000 000004                    ADSC9   0,,PR3                   cn=0,n=4
        10 000236   000200 000002 9                  ADSC9   IPT_FRS+10               cn=0,n=2

       83     2293            %CLIMB(FCN=FRS);

   2301 10 000237   000166 630400 9                  EPPR0   IPT_FRS
        10 000240   000000 713400 xsym               CLIMB   I$FRS
        10 000241   402000 600000 xsid               climb   nvectors=         5

       84     2307    1       RETURN;

   2307 10 000242   000000 702200 xent               TSX2  ! X66_ARET

       85     2308    1   ZIA$FRI: ENTRY(PARAM1,PARAM2,PARAM3);

   2308 10 000243   000000 700200 xent  ZIA$FRI      TSX0  ! X66_AUTO_3
        10 000244   000010 000003                    ZERO    8,3

       86     2309    1       IF PARAM1 = 0 THEN

   2309 10 000245   200003 470500                    LDP0    @PARAM1,,AUTO
        10 000246   000100 100500                    MLR     fill='000'O
        10 000247   000000 000002                    ADSC9   0,,PR0                   cn=0,n=2
        10 000250   200006 000004                    ADSC9   @PARAM3+1,,AUTO          cn=0,n=4
        10 000251   200006 236100                    LDQ     @PARAM3+1,,AUTO
        10 000252   000022 732000                    QRS     18
        10 000253   000000 116003                    CMPQ    0,DU
        10 000254   000266 601000 10                 TNZ     s:2311

       87     2310    1           IPT_FRI.V.RC.RC_OFFSET# = POFFW(ADDR(RVA.NULL),ADDR(RVA));

   2310 10 000255   000000 236000 11                 LDQ     0
PL6.E3A0      #001=ZIA$IDS_INT File=ZIA$IDS_INT.:ZIC0TSI                         FRI 09/05/97 11:33 Page:22
        10 000256   000022 772000                    QRL     18
        10 000257   200006 756100                    STQ     @PARAM3+1,,AUTO
        10 000260   000001 236000 11                 LDQ     1
        10 000261   000022 772000                    QRL     18
        10 000262   200006 136100                    SBLQ    @PARAM3+1,,AUTO
        10 000263   000000 620006                    EAX0    0,QL
        10 000264   000221 740000 9                  STX0    IPT_FRI+11
        10 000265   000316 710000 10                 TRA     s:2314

       88     2311    1       ELSE IF PARAM1 < 0

   2311 10 000266   000100 100500                    MLR     fill='000'O
        10 000267   000000 000002                    ADSC9   0,,PR0                   cn=0,n=2
        10 000270   200006 000004                    ADSC9   @PARAM3+1,,AUTO          cn=0,n=4
        10 000271   200006 236100                    LDQ     @PARAM3+1,,AUTO
        10 000272   000022 732000                    QRS     18
        10 000273   000000 116003                    CMPQ    0,DU
        10 000274   000306 605000 10                 TPL     s:2313

       89     2312    1           THEN IPT_FRI.V.RC.RC_OFFSET# = - PARAM1;

   2312 10 000275   000100 100500                    MLR     fill='000'O
        10 000276   000000 000002                    ADSC9   0,,PR0                   cn=0,n=2
        10 000277   200006 000004                    ADSC9   @PARAM3+1,,AUTO          cn=0,n=4
        10 000300   200006 236100                    LDQ     @PARAM3+1,,AUTO
        10 000301   000022 732000                    QRS     18
        10 000302   777777 620006                    EAX0    -1,QL
        10 000303   777777 660003                    ERX0    -1,DU
        10 000304   000221 740000 9                  STX0    IPT_FRI+11
        10 000305   000316 710000 10                 TRA     s:2314

       90     2313    1           ELSE IPT_FRI.V.RC.RC_OFFSET#=POFFW(ADDR(PARAM1),ADDR(RVA));

   2313 10 000306   000000 236000 11                 LDQ     0
        10 000307   000022 772000                    QRL     18
        10 000310   200006 756100                    STQ     @PARAM3+1,,AUTO
        10 000311   200003 236100                    LDQ     @PARAM1,,AUTO
PL6.E3A0      #001=ZIA$IDS_INT File=ZIA$IDS_INT.:ZIC0TSI                         FRI 09/05/97 11:33 Page:23
        10 000312   000022 772000                    QRL     18
        10 000313   200006 136100                    SBLQ    @PARAM3+1,,AUTO
        10 000314   000000 620006                    EAX0    0,QL
        10 000315   000221 740000 9                  STX0    IPT_FRI+11

       91     2314    1       IF PARAM2 < 0

   2314 10 000316   200004 471500                    LDP1    @PARAM2,,AUTO
        10 000317   000100 100500                    MLR     fill='000'O
        10 000320   100000 000002                    ADSC9   0,,PR1                   cn=0,n=2
        10 000321   200006 000004                    ADSC9   @PARAM3+1,,AUTO          cn=0,n=4
        10 000322   200006 236100                    LDQ     @PARAM3+1,,AUTO
        10 000323   000022 732000                    QRS     18
        10 000324   000000 116003                    CMPQ    0,DU
        10 000325   000337 605000 10                 TPL     s:2316

       92     2315    1       THEN IPT_FRI.V.SC.SC_OFFSET# = - PARAM2;

   2315 10 000326   000100 100500                    MLR     fill='000'O
        10 000327   100000 000002                    ADSC9   0,,PR1                   cn=0,n=2
        10 000330   200006 000004                    ADSC9   @PARAM3+1,,AUTO          cn=0,n=4
        10 000331   200006 236100                    LDQ     @PARAM3+1,,AUTO
        10 000332   000022 732000                    QRS     18
        10 000333   777777 621006                    EAX1    -1,QL
        10 000334   777777 661003                    ERX1    -1,DU
        10 000335   000222 741000 9                  STX1    IPT_FRI+12
        10 000336   000347 710000 10                 TRA     s:2317

       93     2316    1       ELSE IPT_FRI.V.SC.SC_OFFSET#=POFFW(ADDR(PARAM2),ADDR(RVA));

   2316 10 000337   000000 236000 11                 LDQ     0
        10 000340   000022 772000                    QRL     18
        10 000341   200006 756100                    STQ     @PARAM3+1,,AUTO
        10 000342   200004 236100                    LDQ     @PARAM2,,AUTO
        10 000343   000022 772000                    QRL     18
        10 000344   200006 136100                    SBLQ    @PARAM3+1,,AUTO
        10 000345   000000 621006                    EAX1    0,QL
PL6.E3A0      #001=ZIA$IDS_INT File=ZIA$IDS_INT.:ZIC0TSI                         FRI 09/05/97 11:33 Page:24
        10 000346   000222 741000 9                  STX1    IPT_FRI+12

       94     2317    1       IPT_FRI.V.FCW.RECORD_LOCATION# = PARAM3;

   2317 10 000347   200005 473500                    LDP3    @PARAM3,,AUTO
        10 000350   000000 101500                    MRL     fill='000'O
        10 000351   300000 000004                    ADSC9   0,,PR3                   cn=0,n=4
        10 000352   000220 000002 9                  ADSC9   IPT_FRI+10               cn=0,n=2

       95     2318            %CLIMB(FCN=FRI);

   2326 10 000353   000206 630400 9                  EPPR0   IPT_FRI
        10 000354   000000 713400 xsym               CLIMB   I$FRI
        10 000355   402000 600000 xsid               climb   nvectors=         5

       96     2332    1       RETURN;

   2332 10 000356   000000 702200 xent               TSX2  ! X66_ARET

       97     2333    1   ZIA$FOR: ENTRY (PARAM1);

   2333 10 000357   000000 700200 xent  ZIA$FOR      TSX0  ! X66_AUTO_3
        10 000360   000010 000003                    ZERO    8,3

       98     2334    1       IF PARAM1 < 0

   2334 10 000361   200003 470500                    LDP0    @PARAM1,,AUTO
        10 000362   000100 100500                    MLR     fill='000'O
        10 000363   000000 000002                    ADSC9   0,,PR0                   cn=0,n=2
        10 000364   200006 000004                    ADSC9   @PARAM3+1,,AUTO          cn=0,n=4
        10 000365   200006 236100                    LDQ     @PARAM3+1,,AUTO
        10 000366   000022 732000                    QRS     18
        10 000367   000000 116003                    CMPQ    0,DU
        10 000370   000402 605000 10                 TPL     s:2336

       99     2335    1       THEN IPT_FOR.V.SC.SC_OFFSET# = - PARAM1;

PL6.E3A0      #001=ZIA$IDS_INT File=ZIA$IDS_INT.:ZIC0TSI                         FRI 09/05/97 11:33 Page:25
   2335 10 000371   000100 100500                    MLR     fill='000'O
        10 000372   000000 000002                    ADSC9   0,,PR0                   cn=0,n=2
        10 000373   200006 000004                    ADSC9   @PARAM3+1,,AUTO          cn=0,n=4
        10 000374   200006 236100                    LDQ     @PARAM3+1,,AUTO
        10 000375   000022 732000                    QRS     18
        10 000376   777777 620006                    EAX0    -1,QL
        10 000377   777777 660003                    ERX0    -1,DU
        10 000400   000240 740000 9                  STX0    IPT_FOR+10
        10 000401   000412 710000 10                 TRA     s:2345

      100     2336    1       ELSE IPT_FOR.V.SC.SC_OFFSET#=POFFW(ADDR(PARAM1),ADDR(RVA));

   2336 10 000402   000000 236000 11                 LDQ     0
        10 000403   000022 772000                    QRL     18
        10 000404   200006 756100                    STQ     @PARAM3+1,,AUTO
        10 000405   200003 236100                    LDQ     @PARAM1,,AUTO
        10 000406   000022 772000                    QRL     18
        10 000407   200006 136100                    SBLQ    @PARAM3+1,,AUTO
        10 000410   000000 620006                    EAX0    0,QL
        10 000411   000240 740000 9                  STX0    IPT_FOR+10

      101     2337            %CLIMB(FCN=FOR);

   2345 10 000412   000226 630400 9                  EPPR0   IPT_FOR
        10 000413   000000 713400 xsym               CLIMB   I$FOR
        10 000414   402000 600000 xsid               climb   nvectors=         5

      102     2351    1       RETURN;

   2351 10 000415   000000 702200 xent               TSX2  ! X66_ARET

      103     2352    1   ZIA$GET: ENTRY(PARAM1);

   2352 10 000416   000000 700200 xent  ZIA$GET      TSX0  ! X66_AUTO_3
        10 000417   000010 000003                    ZERO    8,3

      104     2353    1       IF PARAM1 = 0 THEN
PL6.E3A0      #001=ZIA$IDS_INT File=ZIA$IDS_INT.:ZIC0TSI                         FRI 09/05/97 11:33 Page:26

   2353 10 000420   200003 470500                    LDP0    @PARAM1,,AUTO
        10 000421   000100 100500                    MLR     fill='000'O
        10 000422   000000 000002                    ADSC9   0,,PR0                   cn=0,n=2
        10 000423   200006 000004                    ADSC9   @PARAM3+1,,AUTO          cn=0,n=4
        10 000424   200006 236100                    LDQ     @PARAM3+1,,AUTO
        10 000425   000022 732000                    QRS     18
        10 000426   000000 116003                    CMPQ    0,DU
        10 000427   000441 601000 10                 TNZ     s:2355

      105     2354    1           IPT_GET.V.RC.RC_OFFSET#=POFFW(ADDR(RVA.NULL),ADDR(RVA));

   2354 10 000430   000000 236000 11                 LDQ     0
        10 000431   000022 772000                    QRL     18
        10 000432   200006 756100                    STQ     @PARAM3+1,,AUTO
        10 000433   000001 236000 11                 LDQ     1
        10 000434   000022 772000                    QRL     18
        10 000435   200006 136100                    SBLQ    @PARAM3+1,,AUTO
        10 000436   000000 620006                    EAX0    0,QL
        10 000437   000256 740000 9                  STX0    IPT_GET+10
        10 000440   000471 710000 10                 TRA     s:2366

      106     2355    1       ELSE IF PARAM1 < 0

   2355 10 000441   000100 100500                    MLR     fill='000'O
        10 000442   000000 000002                    ADSC9   0,,PR0                   cn=0,n=2
        10 000443   200006 000004                    ADSC9   @PARAM3+1,,AUTO          cn=0,n=4
        10 000444   200006 236100                    LDQ     @PARAM3+1,,AUTO
        10 000445   000022 732000                    QRS     18
        10 000446   000000 116003                    CMPQ    0,DU
        10 000447   000461 605000 10                 TPL     s:2357

      107     2356    1           THEN IPT_GET.V.RC.RC_OFFSET# = - PARAM1;

   2356 10 000450   000100 100500                    MLR     fill='000'O
        10 000451   000000 000002                    ADSC9   0,,PR0                   cn=0,n=2
        10 000452   200006 000004                    ADSC9   @PARAM3+1,,AUTO          cn=0,n=4
PL6.E3A0      #001=ZIA$IDS_INT File=ZIA$IDS_INT.:ZIC0TSI                         FRI 09/05/97 11:33 Page:27
        10 000453   200006 236100                    LDQ     @PARAM3+1,,AUTO
        10 000454   000022 732000                    QRS     18
        10 000455   777777 620006                    EAX0    -1,QL
        10 000456   777777 660003                    ERX0    -1,DU
        10 000457   000256 740000 9                  STX0    IPT_GET+10
        10 000460   000471 710000 10                 TRA     s:2366

      108     2357    1           ELSE IPT_GET.V.RC.RC_OFFSET#=POFFW(ADDR(PARAM1),ADDR(RVA));

   2357 10 000461   000000 236000 11                 LDQ     0
        10 000462   000022 772000                    QRL     18
        10 000463   200006 756100                    STQ     @PARAM3+1,,AUTO
        10 000464   200003 236100                    LDQ     @PARAM1,,AUTO
        10 000465   000022 772000                    QRL     18
        10 000466   200006 136100                    SBLQ    @PARAM3+1,,AUTO
        10 000467   000000 620006                    EAX0    0,QL
        10 000470   000256 740000 9                  STX0    IPT_GET+10

      109     2358            %CLIMB(FCN=GET);

   2366 10 000471   000244 630400 9                  EPPR0   IPT_GET
        10 000472   000000 713400 xsym               CLIMB   I$GET
        10 000473   402000 600000 xsid               climb   nvectors=         5

      110     2372    1       RETURN;

   2372 10 000474   000000 702200 xent               TSX2  ! X66_ARET

      111     2373    1   ZIA$NBUFFERS: ENTRY (PARAM1);

   2373 10 000475   000000 700200 xent  ZIA$NBUFFERS TSX0  ! X66_AUTO_3
        10 000476   000010 000003                    ZERO    8,3

      112     2374    1       IPT_NBF.BUFFS_REQ_ = VECTOR(ADDR(PARAM1) -> WORD36);

   2374 10 000477   777640 235007                    LDA     -96,DL
        10 000500   200003 236100                    LDQ     @PARAM1,,AUTO
PL6.E3A0      #001=ZIA$IDS_INT File=ZIA$IDS_INT.:ZIC0TSI                         FRI 09/05/97 11:33 Page:28
        10 000501   000260 757000 9                  STAQ    IPT_NBF

      113     2375    1       IPT_NBF.BUFFS_ALLOC_ = VECTOR(BUFALOC);

   2375 10 000502   000002 237000 11                 LDAQ    2
        10 000503   000262 757000 9                  STAQ    IPT_NBF+2

      114     2376            %CLIMB(FCN=NBF);

   2384 10 000504   000260 630400 9                  EPPR0   IPT_NBF
        10 000505   000000 713400 xsym               CLIMB   I$NBF
        10 000506   400400 600000 xsid               climb   nvectors=         2

      115     2390    1       RETURN;

   2390 10 000507   000000 702200 xent               TSX2  ! X66_ARET

      116     2391    1   ZIA$FINISH: ENTRY (PARAM1);

   2391 10 000510   000000 700200 xent  ZIA$FINISH   TSX0  ! X66_AUTO_3
        10 000511   000010 000003                    ZERO    8,3

      117     2392    1       IF ADDR(PARAM1) -> WORD36 = 0

   2392 10 000512   200003 470500                    LDP0    @PARAM1,,AUTO
        10 000513   000000 235100                    LDA     0,,PR0
        10 000514   000520 601000 10                 TNZ     s:2397

      118     2393    2       THEN DO;

      119     2394    2           IPT_FIN.V.ALCW.N_AREAS# = 0;

   2394 10 000515   000000 220003                    LDX0    0,DU
        10 000516   000276 740000 9                  STX0    IPT_FIN+10

      120     2395    2           END;

PL6.E3A0      #001=ZIA$IDS_INT File=ZIA$IDS_INT.:ZIC0TSI                         FRI 09/05/97 11:33 Page:29
   2395 10 000517   000532 710000 10                 TRA     s:2408

      121     2396    2       ELSE DO;

      122     2397    2           IPT_FIN.V.ALCW.N_AREAS# = 1;

   2397 10 000520   000001 220003                    LDX0    1,DU
        10 000521   000276 740000 9                  STX0    IPT_FIN+10

      123     2398    2           IPT_FIN.V.AC_OFFSETS.RVA_OFFSET#(0) = POFFW(ADDR(PARAM1),ADDR(RVA));

   2398 10 000522   000000 236000 11                 LDQ     0
        10 000523   000022 772000                    QRL     18
        10 000524   200006 756100                    STQ     @PARAM3+1,,AUTO
        10 000525   200003 236100                    LDQ     @PARAM1,,AUTO
        10 000526   000022 772000                    QRL     18
        10 000527   200006 136100                    SBLQ    @PARAM3+1,,AUTO
        10 000530   000000 621006                    EAX1    0,QL
        10 000531   000277 741000 9                  STX1    IPT_FIN+11

      124     2399    2           END;

      125     2400            %CLIMB(FCN=FIN);

   2408 10 000532   000264 630400 9                  EPPR0   IPT_FIN
        10 000533   000000 713400 xsym               CLIMB   I$FIN
        10 000534   402000 600000 xsid               climb   nvectors=         5

      126     2414    1       RETURN;

   2414 10 000535   000000 702200 xent               TSX2  ! X66_ARET

      127     2415    1   ZIA$MODIFY:
      128     2416    1       ENTRY (PARAM1,PARAM2);

   2416 10 000536   000000 700200 xent  ZIA$MODIFY   TSX0  ! X66_AUTO_3
        10 000537   000010 000003                    ZERO    8,3
PL6.E3A0      #001=ZIA$IDS_INT File=ZIA$IDS_INT.:ZIC0TSI                         FRI 09/05/97 11:33 Page:30

      129     2417        /*
      130     2418                   Didn't implement modify fields
      131     2419                 for any of the modifys.
      132     2420        */
      133     2421    1       IF PARAM1 < 0

   2421 10 000540   200003 470500                    LDP0    @PARAM1,,AUTO
        10 000541   000100 100500                    MLR     fill='000'O
        10 000542   000000 000002                    ADSC9   0,,PR0                   cn=0,n=2
        10 000543   200006 000004                    ADSC9   @PARAM3+1,,AUTO          cn=0,n=4
        10 000544   200006 236100                    LDQ     @PARAM3+1,,AUTO
        10 000545   000022 732000                    QRS     18
        10 000546   000000 116003                    CMPQ    0,DU
        10 000547   000561 605000 10                 TPL     s:2423

      134     2422    1       THEN IPT_MOD.V.RC.RC_OFFSET# = - PARAM1;

   2422 10 000550   000100 100500                    MLR     fill='000'O
        10 000551   000000 000002                    ADSC9   0,,PR0                   cn=0,n=2
        10 000552   200006 000004                    ADSC9   @PARAM3+1,,AUTO          cn=0,n=4
        10 000553   200006 236100                    LDQ     @PARAM3+1,,AUTO
        10 000554   000022 732000                    QRS     18
        10 000555   777777 620006                    EAX0    -1,QL
        10 000556   777777 660003                    ERX0    -1,DU
        10 000557   000314 740000 9                  STX0    IPT_MOD+10
        10 000560   000571 710000 10                 TRA     s:2424

      135     2423    1       ELSE IPT_MOD.V.RC.RC_OFFSET# = POFFW(ADDR(PARAM1),ADDR(RVA));

   2423 10 000561   000000 236000 11                 LDQ     0
        10 000562   000022 772000                    QRL     18
        10 000563   200006 756100                    STQ     @PARAM3+1,,AUTO
        10 000564   200003 236100                    LDQ     @PARAM1,,AUTO
        10 000565   000022 772000                    QRL     18
        10 000566   200006 136100                    SBLQ    @PARAM3+1,,AUTO
        10 000567   000000 620006                    EAX0    0,QL
PL6.E3A0      #001=ZIA$IDS_INT File=ZIA$IDS_INT.:ZIC0TSI                         FRI 09/05/97 11:33 Page:31
        10 000570   000314 740000 9                  STX0    IPT_MOD+10

      136     2424    1       IF ADDR(PARAM2) ~= ADDR(NIL)

   2424 10 000571   200004 236100                    LDQ     @PARAM2,,AUTO
        10 000572   000004 116000 11                 CMPQ    4
        10 000573   000655 600000 10                 TZE     s:2465

      137     2425    2       THEN DO;

      138     2426    2           IF ADDR(PARAM2)-> WORD36 = 0

   2426 10 000574   200004 471500                    LDP1    @PARAM2,,AUTO
        10 000575   100000 235100                    LDA     0,,PR1
        10 000576   000602 601000 10                 TNZ     s:2428

      139     2427    2           THEN IPT_MOD.V.MCW.MC_BIT1# = '0'B;

   2427 10 000577   000005 236000 11                 LDQ     5
        10 000600   000315 356000 9                  ANSQ    IPT_MOD+11
        10 000601   000643 710000 10                 TRA     s:2446

      140     2428    2           ELSE IF ADDR(PARAM2)-> WORD36 = 1

   2428 10 000602   000001 115007                    CMPA    1,DL
        10 000603   000607 601000 10                 TNZ     s:2431

      141     2429    2               THEN IPT_MOD.V.MCW.MC_BIT1# = '1'B;

   2429 10 000604   200000 236003                    LDQ     65536,DU
        10 000605   000315 256000 9                  ORSQ    IPT_MOD+11
        10 000606   000643 710000 10                 TRA     s:2446

      142     2430    3               ELSE DO;

      143     2431    3                   IPT_MOD.V.MCW.MC_BIT0# = '1'B;

PL6.E3A0      #001=ZIA$IDS_INT File=ZIA$IDS_INT.:ZIC0TSI                         FRI 09/05/97 11:33 Page:32
   2431 10 000607   400000 236003                    LDQ     -131072,DU
        10 000610   000315 256000 9                  ORSQ    IPT_MOD+11

      144     2432    3                   IPT_MOD.V.SLCW.N_SETS# = 1;

   2432 10 000611   000001 221003                    LDX1    1,DU
        10 000612   000317 741000 9                  STX1    IPT_MOD+13

      145     2433    3                   IF PARAM2 < 0 THEN

   2433 10 000613   000100 100500                    MLR     fill='000'O
        10 000614   100000 000002                    ADSC9   0,,PR1                   cn=0,n=2
        10 000615   200006 000004                    ADSC9   @PARAM3+1,,AUTO          cn=0,n=4
        10 000616   200006 236100                    LDQ     @PARAM3+1,,AUTO
        10 000617   000022 732000                    QRS     18
        10 000620   000000 116003                    CMPQ    0,DU
        10 000621   000633 605000 10                 TPL     s:2436

      146     2434    3                       IPT_MOD.V.FL_SL_LIST.RVA_OFFSET#(0) = - PARAM2;

   2434 10 000622   000100 100500                    MLR     fill='000'O
        10 000623   100000 000002                    ADSC9   0,,PR1                   cn=0,n=2
        10 000624   200006 000004                    ADSC9   @PARAM3+1,,AUTO          cn=0,n=4
        10 000625   200006 236100                    LDQ     @PARAM3+1,,AUTO
        10 000626   000022 732000                    QRS     18
        10 000627   777777 622006                    EAX2    -1,QL
        10 000630   777777 662003                    ERX2    -1,DU
        10 000631   000320 742000 9                  STX2    IPT_MOD+14
        10 000632   000643 710000 10                 TRA     s:2446

      147     2435    3                   ELSE
      148     2436    3                       IPT_MOD.V.FL_SL_LIST.RVA_OFFSET#(0) = POFFW(ADDR(PARAM2),ADDR(
              2436                                RVA));

   2436 10 000633   000000 236000 11                 LDQ     0
        10 000634   000022 772000                    QRL     18
        10 000635   200006 756100                    STQ     @PARAM3+1,,AUTO
PL6.E3A0      #001=ZIA$IDS_INT File=ZIA$IDS_INT.:ZIC0TSI                         FRI 09/05/97 11:33 Page:33
        10 000636   200004 236100                    LDQ     @PARAM2,,AUTO
        10 000637   000022 772000                    QRL     18
        10 000640   200006 136100                    SBLQ    @PARAM3+1,,AUTO
        10 000641   000000 622006                    EAX2    0,QL
        10 000642   000320 742000 9                  STX2    IPT_MOD+14

      149     2437    3                   END;

      150     2438                %CLIMB(FCN=MOD);

   2446 10 000643   000302 630400 9                  EPPR0   IPT_MOD
        10 000644   000000 713400 xsym               CLIMB   I$MOD
        10 000645   402000 600000 xsid               climb   nvectors=         5

      151     2452    2           IPT_MOD.V.SLCW.N_SETS# = 0;

   2452 10 000646   000000 220003                    LDX0    0,DU
        10 000647   000317 740000 9                  STX0    IPT_MOD+13

      152     2453    2           IPT_MOD.V.MCW.MC_BIT0# = '0'B;

   2453 10 000650   000006 236000 11                 LDQ     6
        10 000651   000315 356000 9                  ANSQ    IPT_MOD+11

      153     2454    2           IPT_MOD.V.MCW.MC_BIT1# = '0'B;

   2454 10 000652   000005 236000 11                 LDQ     5
        10 000653   000315 356000 9                  ANSQ    IPT_MOD+11

      154     2455    2           END;

   2455 10 000654   000660 710000 10                 TRA     s:2472

      155     2456    2       ELSE DO;

      156     2457                %CLIMB(FCN=MOD);

PL6.E3A0      #001=ZIA$IDS_INT File=ZIA$IDS_INT.:ZIC0TSI                         FRI 09/05/97 11:33 Page:34
   2465 10 000655   000302 630400 9                  EPPR0   IPT_MOD
        10 000656   000000 713400 xsym               CLIMB   I$MOD
        10 000657   402000 600000 xsid               climb   nvectors=         5

      157     2471    2           END;

      158     2472    1       RETURN;

   2472 10 000660   000000 702200 xent               TSX2  ! X66_ARET

      159     2473    1   ZIA$STORE:
      160     2474    1       ENTRY (PARAM1);

   2474 10 000661   000000 700200 xent  ZIA$STORE    TSX0  ! X66_AUTO_3
        10 000662   000010 000003                    ZERO    8,3

      161     2475    1       IF PARAM1 <0

   2475 10 000663   200003 470500                    LDP0    @PARAM1,,AUTO
        10 000664   000100 100500                    MLR     fill='000'O
        10 000665   000000 000002                    ADSC9   0,,PR0                   cn=0,n=2
        10 000666   200006 000004                    ADSC9   @PARAM3+1,,AUTO          cn=0,n=4
        10 000667   200006 236100                    LDQ     @PARAM3+1,,AUTO
        10 000670   000022 732000                    QRS     18
        10 000671   000000 116003                    CMPQ    0,DU
        10 000672   000704 605000 10                 TPL     s:2477

      162     2476    1       THEN IPT_STO.V.RC.RC_OFFSET# = - PARAM1;

   2476 10 000673   000100 100500                    MLR     fill='000'O
        10 000674   000000 000002                    ADSC9   0,,PR0                   cn=0,n=2
        10 000675   200006 000004                    ADSC9   @PARAM3+1,,AUTO          cn=0,n=4
        10 000676   200006 236100                    LDQ     @PARAM3+1,,AUTO
        10 000677   000022 732000                    QRS     18
        10 000700   777777 620006                    EAX0    -1,QL
        10 000701   777777 660003                    ERX0    -1,DU
        10 000702   000334 740000 9                  STX0    IPT_STO+10
PL6.E3A0      #001=ZIA$IDS_INT File=ZIA$IDS_INT.:ZIC0TSI                         FRI 09/05/97 11:33 Page:35
        10 000703   000714 710000 10                 TRA     s:2486

      163     2477    1       ELSE IPT_STO.V.RC.RC_OFFSET# = POFFW(ADDR(PARAM1),ADDR(RVA));

   2477 10 000704   000000 236000 11                 LDQ     0
        10 000705   000022 772000                    QRL     18
        10 000706   200006 756100                    STQ     @PARAM3+1,,AUTO
        10 000707   200003 236100                    LDQ     @PARAM1,,AUTO
        10 000710   000022 772000                    QRL     18
        10 000711   200006 136100                    SBLQ    @PARAM3+1,,AUTO
        10 000712   000000 620006                    EAX0    0,QL
        10 000713   000334 740000 9                  STX0    IPT_STO+10

      164     2478            %CLIMB(FCN=STO);

   2486 10 000714   000322 630400 9                  EPPR0   IPT_STO
        10 000715   000000 713400 xsym               CLIMB   I$STO
        10 000716   402000 600000 xsid               climb   nvectors=         5

      165     2492    1       IF UWA.DIRECT_REF > ((HIGH_SCHEMA_DBK * 2) / 3)

   2492 10 000717   000000 235000 6                  LDA     HIGH_SCHEMA_DBK
        10 000720   000001 735000                    ALS     1
        10 000721   000043 773000                    LRL     35
        10 000722   000003 507007                    DVF     3,DL
        10 000723   000044 733000                    LRS     36
        10 000724   000036 116000 1                  CMPQ    UWA+30
        10 000725   000730 603000 10                 TRC     s:2496

      166     2493    2       THEN DO;

      167     2494    2           NEED_LARGER_SCHEMA = '1'B;

   2494 10 000726   400000 236003                    LDQ     -131072,DU
        10 000727   000000 756000 7                  STQ     NEED_LARGER_SCHEMA

      168     2495    2           END;
PL6.E3A0      #001=ZIA$IDS_INT File=ZIA$IDS_INT.:ZIC0TSI                         FRI 09/05/97 11:33 Page:36

      169     2496    1       HIGH_STORE_DBK = UWA.DIRECT_REF;

   2496 10 000730   000036 235000 1                  LDA     UWA+30
        10 000731   000000 755000 8                  STA     HIGH_STORE_DBK

      170     2497    1       RETURN;

   2497 10 000732   000000 702200 xent               TSX2  ! X66_ARET

      171     2498    1   ZIA$FIND_CALC:
      172     2499    1       ENTRY (PARAM1);

   2499 10 000733   000000 700200 xent  ZIA$FIND_CA* TSX0  ! X66_AUTO_3
        10 000734   000010 000003                    ZERO    8,3

      173     2500        %EJECT;
PL6.E3A0      #001=ZIA$IDS_INT File=ZIA$IDS_INT.:ZIC0TSI                         FRI 09/05/97 11:33 Page:37
      174     2501    1       IF PARAM1 < 0

   2501 10 000735   200003 470500                    LDP0    @PARAM1,,AUTO
        10 000736   000100 100500                    MLR     fill='000'O
        10 000737   000000 000002                    ADSC9   0,,PR0                   cn=0,n=2
        10 000740   200006 000004                    ADSC9   @PARAM3+1,,AUTO          cn=0,n=4
        10 000741   200006 236100                    LDQ     @PARAM3+1,,AUTO
        10 000742   000022 732000                    QRS     18
        10 000743   000000 116003                    CMPQ    0,DU
        10 000744   000756 605000 10                 TPL     s:2503

      175     2502    1       THEN IPT_FDC.V.RC.RC_OFFSET# = - PARAM1;

   2502 10 000745   000100 100500                    MLR     fill='000'O
        10 000746   000000 000002                    ADSC9   0,,PR0                   cn=0,n=2
        10 000747   200006 000004                    ADSC9   @PARAM3+1,,AUTO          cn=0,n=4
        10 000750   200006 236100                    LDQ     @PARAM3+1,,AUTO
        10 000751   000022 732000                    QRS     18
        10 000752   777777 620006                    EAX0    -1,QL
        10 000753   777777 660003                    ERX0    -1,DU
        10 000754   000352 740000 9                  STX0    IPT_FDC+10
        10 000755   000766 710000 10                 TRA     s:2512

      176     2503    1       ELSE IPT_FDC.V.RC.RC_OFFSET# = POFFW(ADDR(PARAM1),ADDR(RVA));

   2503 10 000756   000000 236000 11                 LDQ     0
        10 000757   000022 772000                    QRL     18
        10 000760   200006 756100                    STQ     @PARAM3+1,,AUTO
        10 000761   200003 236100                    LDQ     @PARAM1,,AUTO
        10 000762   000022 772000                    QRL     18
        10 000763   200006 136100                    SBLQ    @PARAM3+1,,AUTO
        10 000764   000000 620006                    EAX0    0,QL
        10 000765   000352 740000 9                  STX0    IPT_FDC+10

      177     2504            %CLIMB(FCN=FDC);

   2512 10 000766   000340 630400 9                  EPPR0   IPT_FDC
PL6.E3A0      #001=ZIA$IDS_INT File=ZIA$IDS_INT.:ZIC0TSI                         FRI 09/05/97 11:33 Page:38
        10 000767   000000 713400 xsym               CLIMB   I$FDC
        10 000770   402000 600000 xsid               climb   nvectors=         5

      178     2518    1       RETURN;

   2518 10 000771   000000 702200 xent               TSX2  ! X66_ARET

      179     2519    1   ZIA$FIND_TYPE:
      180     2520    1       ENTRY (PARAM1);

   2520 10 000772   000000 700200 xent  ZIA$FIND_TY* TSX0  ! X66_AUTO_3
        10 000773   000010 000003                    ZERO    8,3

      181     2521        /*
      182     2522              FIND CURRENT OF RECORD TYPE.
      183     2523            note:
      184     2524                 none of the retention list for set are implemented
      185     2525                 for the calls of find current of type.
      186     2526        */
      187     2527    1       IF PARAM1 < 0

   2527 10 000774   200003 470500                    LDP0    @PARAM1,,AUTO
        10 000775   000100 100500                    MLR     fill='000'O
        10 000776   000000 000002                    ADSC9   0,,PR0                   cn=0,n=2
        10 000777   200006 000004                    ADSC9   @PARAM3+1,,AUTO          cn=0,n=4
        10 001000   200006 236100                    LDQ     @PARAM3+1,,AUTO
        10 001001   000022 732000                    QRS     18
        10 001002   000000 116003                    CMPQ    0,DU
        10 001003   001015 605000 10                 TPL     s:2529

      188     2528    1       THEN IPT_FCT.V.RC.RC_OFFSET# = - PARAM1;

   2528 10 001004   000100 100500                    MLR     fill='000'O
        10 001005   000000 000002                    ADSC9   0,,PR0                   cn=0,n=2
        10 001006   200006 000004                    ADSC9   @PARAM3+1,,AUTO          cn=0,n=4
        10 001007   200006 236100                    LDQ     @PARAM3+1,,AUTO
        10 001010   000022 732000                    QRS     18
PL6.E3A0      #001=ZIA$IDS_INT File=ZIA$IDS_INT.:ZIC0TSI                         FRI 09/05/97 11:33 Page:39
        10 001011   777777 620006                    EAX0    -1,QL
        10 001012   777777 660003                    ERX0    -1,DU
        10 001013   000370 740000 9                  STX0    IPT_FCT+10
        10 001014   001025 710000 10                 TRA     s:2538

      189     2529    1       ELSE IPT_FCT.V.RC.RC_OFFSET# = POFFW(ADDR(PARAM1),ADDR(RVA));

   2529 10 001015   000000 236000 11                 LDQ     0
        10 001016   000022 772000                    QRL     18
        10 001017   200006 756100                    STQ     @PARAM3+1,,AUTO
        10 001020   200003 236100                    LDQ     @PARAM1,,AUTO
        10 001021   000022 772000                    QRL     18
        10 001022   200006 136100                    SBLQ    @PARAM3+1,,AUTO
        10 001023   000000 620006                    EAX0    0,QL
        10 001024   000370 740000 9                  STX0    IPT_FCT+10

      190     2530            %CLIMB(FCN=FCT);

   2538 10 001025   000356 630400 9                  EPPR0   IPT_FCT
        10 001026   000000 713400 xsym               CLIMB   I$FCT
        10 001027   402000 600000 xsid               climb   nvectors=         5

      191     2544    1       RETURN;

   2544 10 001030   000000 702200 xent               TSX2  ! X66_ARET

      192     2545    1   ZIA$CONNECT:
      193     2546    1       ENTRY(PARAM1);

   2546 10 001031   000000 700200 xent  ZIA$CONNECT  TSX0  ! X66_AUTO_3
        10 001032   000010 000003                    ZERO    8,3

      194     2547        /*
      195     2548              PARAM 1 - Is the rva offset for the set to connect up
      196     2549                         from the the current of run on both the owner
      197     2550                         and the member.
      198     2551        */
PL6.E3A0      #001=ZIA$IDS_INT File=ZIA$IDS_INT.:ZIC0TSI                         FRI 09/05/97 11:33 Page:40
      199     2552    1       IF PARAM1 < 0

   2552 10 001033   200003 470500                    LDP0    @PARAM1,,AUTO
        10 001034   000100 100500                    MLR     fill='000'O
        10 001035   000000 000002                    ADSC9   0,,PR0                   cn=0,n=2
        10 001036   200006 000004                    ADSC9   @PARAM3+1,,AUTO          cn=0,n=4
        10 001037   200006 236100                    LDQ     @PARAM3+1,,AUTO
        10 001040   000022 732000                    QRS     18
        10 001041   000000 116003                    CMPQ    0,DU
        10 001042   001054 605000 10                 TPL     s:2554

      200     2553    1       THEN IPT_CON.V.SC.SC_OFFSET# = - PARAM1;

   2553 10 001043   000100 100500                    MLR     fill='000'O
        10 001044   000000 000002                    ADSC9   0,,PR0                   cn=0,n=2
        10 001045   200006 000004                    ADSC9   @PARAM3+1,,AUTO          cn=0,n=4
        10 001046   200006 236100                    LDQ     @PARAM3+1,,AUTO
        10 001047   000022 732000                    QRS     18
        10 001050   777777 620006                    EAX0    -1,QL
        10 001051   777777 660003                    ERX0    -1,DU
        10 001052   000033 740000 9                  STX0    IPT_CON+11
        10 001053   001064 710000 10                 TRA     s:2555

      201     2554    1       ELSE IPT_CON.V.SC.SC_OFFSET# = POFFW(ADDR(PARAM1),ADDR(RVA));

   2554 10 001054   000000 236000 11                 LDQ     0
        10 001055   000022 772000                    QRL     18
        10 001056   200006 756100                    STQ     @PARAM3+1,,AUTO
        10 001057   200003 236100                    LDQ     @PARAM1,,AUTO
        10 001060   000022 772000                    QRL     18
        10 001061   200006 136100                    SBLQ    @PARAM3+1,,AUTO
        10 001062   000000 620006                    EAX0    0,QL
        10 001063   000033 740000 9                  STX0    IPT_CON+11

      202     2555    1       IPT_CON.V.RC.RC_OFFSET# = POFFW(ADDR(RVA.NULL),ADDR(RVA));

   2555 10 001064   000000 236000 11                 LDQ     0
PL6.E3A0      #001=ZIA$IDS_INT File=ZIA$IDS_INT.:ZIC0TSI                         FRI 09/05/97 11:33 Page:41
        10 001065   000022 772000                    QRL     18
        10 001066   200006 756100                    STQ     @PARAM3+1,,AUTO
        10 001067   000001 236000 11                 LDQ     1
        10 001070   000022 772000                    QRL     18
        10 001071   200006 136100                    SBLQ    @PARAM3+1,,AUTO
        10 001072   000000 621006                    EAX1    0,QL
        10 001073   000032 741000 9                  STX1    IPT_CON+10

      203     2556            %CLIMB(FCN=CON);

   2564 10 001074   000020 630400 9                  EPPR0   IPT_CON
        10 001075   000000 713400 xsym               CLIMB   I$CON
        10 001076   402000 600000 xsid               climb   nvectors=         5

      204     2570    1       RETURN;

   2570 10 001077   000000 702200 xent               TSX2  ! X66_ARET

      205     2571    1   ZIA$DISCONN:
      206     2572    1       ENTRY(PARAM1);

   2572 10 001100   000000 700200 xent  ZIA$DISCONN  TSX0  ! X66_AUTO_3
        10 001101   000010 000003                    ZERO    8,3

      207     2573        /*
      208     2574              PARAM 1 - Is the rva offset for the set to disconnect up
      209     2575                         from the the current of run on both the owner
      210     2576                         and the member.
      211     2577        */
      212     2578    1       IF PARAM1 < 0

   2578 10 001102   200003 470500                    LDP0    @PARAM1,,AUTO
        10 001103   000100 100500                    MLR     fill='000'O
        10 001104   000000 000002                    ADSC9   0,,PR0                   cn=0,n=2
        10 001105   200006 000004                    ADSC9   @PARAM3+1,,AUTO          cn=0,n=4
        10 001106   200006 236100                    LDQ     @PARAM3+1,,AUTO
        10 001107   000022 732000                    QRS     18
PL6.E3A0      #001=ZIA$IDS_INT File=ZIA$IDS_INT.:ZIC0TSI                         FRI 09/05/97 11:33 Page:42
        10 001110   000000 116003                    CMPQ    0,DU
        10 001111   001123 605000 10                 TPL     s:2580

      213     2579    1       THEN IPT_DIS.V.SC.SC_OFFSET# = - PARAM1;

   2579 10 001112   000100 100500                    MLR     fill='000'O
        10 001113   000000 000002                    ADSC9   0,,PR0                   cn=0,n=2
        10 001114   200006 000004                    ADSC9   @PARAM3+1,,AUTO          cn=0,n=4
        10 001115   200006 236100                    LDQ     @PARAM3+1,,AUTO
        10 001116   000022 732000                    QRS     18
        10 001117   777777 620006                    EAX0    -1,QL
        10 001120   777777 660003                    ERX0    -1,DU
        10 001121   000063 740000 9                  STX0    IPT_DIS+11
        10 001122   001133 710000 10                 TRA     s:2581

      214     2580    1       ELSE IPT_DIS.V.SC.SC_OFFSET# = POFFW(ADDR(PARAM1),ADDR(RVA));

   2580 10 001123   000000 236000 11                 LDQ     0
        10 001124   000022 772000                    QRL     18
        10 001125   200006 756100                    STQ     @PARAM3+1,,AUTO
        10 001126   200003 236100                    LDQ     @PARAM1,,AUTO
        10 001127   000022 772000                    QRL     18
        10 001130   200006 136100                    SBLQ    @PARAM3+1,,AUTO
        10 001131   000000 620006                    EAX0    0,QL
        10 001132   000063 740000 9                  STX0    IPT_DIS+11

      215     2581    1       IPT_DIS.V.RC.RC_OFFSET# = POFFW(ADDR(RVA.NULL),ADDR(RVA));

   2581 10 001133   000000 236000 11                 LDQ     0
        10 001134   000022 772000                    QRL     18
        10 001135   200006 756100                    STQ     @PARAM3+1,,AUTO
        10 001136   000001 236000 11                 LDQ     1
        10 001137   000022 772000                    QRL     18
        10 001140   200006 136100                    SBLQ    @PARAM3+1,,AUTO
        10 001141   000000 621006                    EAX1    0,QL
        10 001142   000062 741000 9                  STX1    IPT_DIS+10

PL6.E3A0      #001=ZIA$IDS_INT File=ZIA$IDS_INT.:ZIC0TSI                         FRI 09/05/97 11:33 Page:43
      216     2582            %CLIMB(FCN=DIS);

   2590 10 001143   000050 630400 9                  EPPR0   IPT_DIS
        10 001144   000000 713400 xsym               CLIMB   I$DIS
        10 001145   402000 600000 xsid               climb   nvectors=         5

      217     2596    1       RETURN;

   2596 10 001146   000000 702200 xent               TSX2  ! X66_ARET

      218     2597    1   ZIA$ERASE:
      219     2598    1       ENTRY(PARAM1);

   2598 10 001147   000000 700200 xent  ZIA$ERASE    TSX0  ! X66_AUTO_3
        10 001150   000010 000003                    ZERO    8,3

      220     2599        /*
      221     2600              PARAM 1 - Is the rva offset for the set to disconnect up
      222     2601                         from the the current of run on both the owner
      223     2602                         and the member.
      224     2603        */
      225     2604    1       IF PARAM1 < 0

   2604 10 001151   200003 470500                    LDP0    @PARAM1,,AUTO
        10 001152   000100 100500                    MLR     fill='000'O
        10 001153   000000 000002                    ADSC9   0,,PR0                   cn=0,n=2
        10 001154   200006 000004                    ADSC9   @PARAM3+1,,AUTO          cn=0,n=4
        10 001155   200006 236100                    LDQ     @PARAM3+1,,AUTO
        10 001156   000022 732000                    QRS     18
        10 001157   000000 116003                    CMPQ    0,DU
        10 001160   001172 605000 10                 TPL     s:2606

      226     2605    1       THEN IPT_ERS.V.RC.RC_OFFSET# = - PARAM1;

   2605 10 001161   000100 100500                    MLR     fill='000'O
        10 001162   000000 000002                    ADSC9   0,,PR0                   cn=0,n=2
        10 001163   200006 000004                    ADSC9   @PARAM3+1,,AUTO          cn=0,n=4
PL6.E3A0      #001=ZIA$IDS_INT File=ZIA$IDS_INT.:ZIC0TSI                         FRI 09/05/97 11:33 Page:44
        10 001164   200006 236100                    LDQ     @PARAM3+1,,AUTO
        10 001165   000022 732000                    QRS     18
        10 001166   777777 620006                    EAX0    -1,QL
        10 001167   777777 660003                    ERX0    -1,DU
        10 001170   000076 740000 9                  STX0    IPT_ERS+10
        10 001171   001202 710000 10                 TRA     s:2615

      227     2606    1       ELSE IPT_ERS.V.RC.RC_OFFSET# = POFFW(ADDR(PARAM1),ADDR(RVA));

   2606 10 001172   000000 236000 11                 LDQ     0
        10 001173   000022 772000                    QRL     18
        10 001174   200006 756100                    STQ     @PARAM3+1,,AUTO
        10 001175   200003 236100                    LDQ     @PARAM1,,AUTO
        10 001176   000022 772000                    QRL     18
        10 001177   200006 136100                    SBLQ    @PARAM3+1,,AUTO
        10 001200   000000 620006                    EAX0    0,QL
        10 001201   000076 740000 9                  STX0    IPT_ERS+10

      228     2607            %CLIMB(FCN=ERS);

   2615 10 001202   000064 630400 9                  EPPR0   IPT_ERS
        10 001203   000000 713400 xsym               CLIMB   I$ERS
        10 001204   402000 600000 xsid               climb   nvectors=         5

      229     2621    1       RETURN;

   2621 10 001205   000000 702200 xent               TSX2  ! X66_ARET

      230     2622    1   ZIA$ACC:
      231     2623    1       ENTRY(PARAM1,PARAM2,PARAM3);

   2623 10 001206   000000 700200 xent  ZIA$ACC      TSX0  ! X66_AUTO_3
        10 001207   000010 000003                    ZERO    8,3

      232     2624    1       IPT_ACC.DBK_ = VECTOR(PARAM3);

   2624 10 001210   777640 235007                    LDA     -96,DL
PL6.E3A0      #001=ZIA$IDS_INT File=ZIA$IDS_INT.:ZIC0TSI                         FRI 09/05/97 11:33 Page:45
        10 001211   200005 236100                    LDQ     @PARAM3,,AUTO
        10 001212   000012 757000 9                  STAQ    IPT_ACC+10

      233     2625    1       IF PARAM1 < 0

   2625 10 001213   200003 470500                    LDP0    @PARAM1,,AUTO
        10 001214   000100 100500                    MLR     fill='000'O
        10 001215   000000 000002                    ADSC9   0,,PR0                   cn=0,n=2
        10 001216   200006 000004                    ADSC9   @PARAM3+1,,AUTO          cn=0,n=4
        10 001217   200006 236100                    LDQ     @PARAM3+1,,AUTO
        10 001220   000022 732000                    QRS     18
        10 001221   000000 116003                    CMPQ    0,DU
        10 001222   001234 605000 10                 TPL     s:2627

      234     2626    1       THEN IPT_ACC.V.RVA_ITEM.OFFSET# = - PARAM1;

   2626 10 001223   000100 100500                    MLR     fill='000'O
        10 001224   000000 000002                    ADSC9   0,,PR0                   cn=0,n=2
        10 001225   200006 000004                    ADSC9   @PARAM3+1,,AUTO          cn=0,n=4
        10 001226   200006 236100                    LDQ     @PARAM3+1,,AUTO
        10 001227   000022 732000                    QRS     18
        10 001230   777777 620006                    EAX0    -1,QL
        10 001231   777777 660003                    ERX0    -1,DU
        10 001232   000016 740000 9                  STX0    IPT_ACC+14
        10 001233   001244 710000 10                 TRA     s:2628

      235     2627    1       ELSE IPT_ACC.V.RVA_ITEM.OFFSET# = POFFW(ADDR(PARAM1),ADDR(RVA));

   2627 10 001234   000000 236000 11                 LDQ     0
        10 001235   000022 772000                    QRL     18
        10 001236   200006 756100                    STQ     @PARAM3+1,,AUTO
        10 001237   200003 236100                    LDQ     @PARAM1,,AUTO
        10 001240   000022 772000                    QRL     18
        10 001241   200006 136100                    SBLQ    @PARAM3+1,,AUTO
        10 001242   000000 620006                    EAX0    0,QL
        10 001243   000016 740000 9                  STX0    IPT_ACC+14

PL6.E3A0      #001=ZIA$IDS_INT File=ZIA$IDS_INT.:ZIC0TSI                         FRI 09/05/97 11:33 Page:46
      236     2628    1       IPT_ACC.V.CCW.SCI# = CCW;

   2628 10 001244   000000 721000 5                  LXL1    CCW
        10 001245   000014 741000 9                  STX1    IPT_ACC+12

      237     2629            %CLIMB(FCN=ACC);

   2637 10 001246   000000 630400 9                  EPPR0   IPT_ACC
        10 001247   000000 713400 xsym               CLIMB   I$ACC
        10 001250   402400 600000 xsid               climb   nvectors=         6

      238     2643    1       RETURN;

   2643 10 001251   000000 702200 xent               TSX2  ! X66_ARET

      239     2644    1   ZIA$SHAREALL:
      240     2645    1       ENTRY;

   2645 10 001252   000000 700200 xent  ZIA$SHAREALL TSX0  ! X66_AUTO_3
        10 001253   000010 000003                    ZERO    8,3

      241     2646        /*       %CLIMB(FCN=SHALL,PARAMS=0);*/
      242     2647    1       RETURN;

   2647 10 001254   000000 702200 xent               TSX2  ! X66_ARET

      243     2648    1   ZIA$SHAREIN:
      244     2649    1       ENTRY;

   2649 10 001255   000000 700200 xent  ZIA$SHAREIN  TSX0  ! X66_AUTO_3
        10 001256   000010 000003                    ZERO    8,3

      245     2650        /*       %CLIMB(FCN=SHIN,PARAMS=0);*/
      246     2651    1       RETURN;

   2651 10 001257   000000 702200 xent               TSX2  ! X66_ARET

PL6.E3A0      #001=ZIA$IDS_INT File=ZIA$IDS_INT.:ZIC0TSI                         FRI 09/05/97 11:33 Page:47
      247     2652    1   ZIA$NOSHARE:
      248     2653    1       ENTRY;

   2653 10 001260   000000 700200 xent  ZIA$NOSHARE  TSX0  ! X66_AUTO_3
        10 001261   000010 000003                    ZERO    8,3

      249     2654        /*       %CLIMB(FCN=SHNO,PARAMS=0);*/
      250     2655    1       RETURN;

   2655 10 001262   000000 702200 xent               TSX2  ! X66_ARET

RVA
 Sect OctLoc
   0     000   000151 000000   000000 000001   000001 000002   000001 000003    .i..............
   0     004   000001 000004   000001 000005   000001 000006   000001 000007    ................
   0     010   000001 000010   000001 000011   000001 000012   000001 000013    ................
   0     014   000001 000014   000001 000015   000001 000016   000001 000017    ................
   0     020   000001 000020   000001 000021   000001 000022   000001 000023    ................
   0     024   000001 000024   000001 000025   000001 000026   000001 000027    ................
   0     030   000001 000030   000001 000031   000001 000032   000001 000033    ................
   0     034   000001 000034   000001 000035   000001 000036   000001 000037    ................
   0     040   000001 000040   000001 000041   000001 000042   000001 000043    ... ...!..."...#
   0     044   000001 000044   000001 000045   000001 000046   000001 000047    ...$...%...&...'
   0     050   000001 000050   000001 000051   000001 000052   000002 000600    ...(...)...*....
   0     054   000002 000660   000002 001040   000002 001260   000002 001460    ....... ........
   0     060   000002 001540   000002 001660   000002 001700   000002 002140    ...............`
   0     064   000002 002320   000002 002700   000002 003100   000002 003260    ...........@....
   0     070   000002 003320   000002 003540   000002 003600   000002 003740    ................
   0     074   000002 004000   000002 004060   000002 004220   000002 004400    .......0........
   0     100   000002 004540   000002 004660   000002 004720   000002 004760    ................
   0     104   000002 005000   000002 005020   000002 005220   000002 005240    ................
   0     110   000002 005500   000002 005740   000002 005760   000002 006000    ................
   0     114   000002 006020   000002 006040   000002 006220   000002 006340    ....... ........
   0     120   000002 006640   000002 006760   000002 007120   000002 007240    ...........P....
   0     124   000002 007320   000002 007420   000002 007560   000002 007640    ................
   0     130   000002 007760   000002 010120   000002 010360   000002 010460    .......P........
   0     134   000002 010620   000002 010720   000002 011060   000002 011160    ...........0...p
PL6.E3A0      #001=ZIA$IDS_INT File=ZIA$IDS_INT.:ZIC0TSI                         FRI 09/05/97 11:33 Page:48
   0     140   000002 011220   000002 011320   000002 011400   000002 011460    ................
   0     144   000002 011540   000002 011620   000002 011700   000002 011760    ................
   0     150   000002 012040   000004 000000                                    ... ....

UWA
 Sect OctLoc
   1     000   000000 000000   040040 040040   040040 040040   040040 040040    ....
   1     004   040040 040040   040040 040040   040040 040040   040040 040040
   1     010   040040 040040   040040 040040   040040 000000   040040 040040              ..
   1     014   040040 040040   040040 040040   040040 040040   040040 040040
   1     020   040040 040040   040040 040040   040040 000000   040040 040040              ..
   1     024   040040 040040   040040 040040   040040 040040   040040 040040
   1     030   040040 040040   040040 040040   040040 000000   040040 040040              ..
   1     034   040040 040040   040040 040040   000000 000000   040040 040040            ....
   1     040   040040 040040   040040 040040   040040 040040   040040 040040
   1     044   040040 040040   040040 040040   040040 000000   040040 040040              ..
   1     050   040040 040040   040040 040040   040040 040040   040040 040040
   1     054   040040 040040   040040 040040   040040 000000   000000 000000              ......
   1     060   040040 040040   040*** ******   000000 000000   000000 000000         ...........
   1     064   000000 000000   000000 000000   040040 040040   040040 040040    ........
   1     070   040040 040040   040040 040040   040040 040040   040040 040040
   1     100*  040040 ******   000000 000000   040040 040040   040040 040040      ......
   1     104   040040 040040   040040 040040   040040 040040   040040 040040
   1     124*  040040 040040   040040 040040   000000 000000   040040 040040            ....
   1     130   040040 040040   040040 040040   040040 040040   040040 040040
   1     134   040040 040040   040040 040040   040040 ******   000000 000000              ......
   1     140   040040 040040   040040 040040   040040 040040   040040 040040
   1     144   040040 040040   040040 040040   000000 000000   000000 000000            ........
   1     150   000000 000000   000000 000000   000000 000000   000000 000000    ................
   1     154   040040 040040   040040 040040   040040 040040   040040 040040
   1     160   040040 040040   040040 040040   040040 040040   040040 ******                  ..
   1     164   000000 000000   ****** ******   000000 000000   000000 000000    ................
   1     170   000000 000000   040040 040040   040040 040040   040040 040040    ....
   1     174   040040 040040   040040 040040   040040 040040   040040 040040
   1     210*  040040 040040   040040 040040   040040 040040   ****** ******                ....
   1     214   000000 000000   000000 000000   000000 000000   000000 000000    ................
   1     224*  000000 000000   000000 000000   000000 000000   040040 ******    ............  ..
PL6.E3A0      #001=ZIA$IDS_INT File=ZIA$IDS_INT.:ZIC0TSI                         FRI 09/05/97 11:33 Page:49
   1     230   000000 000000   ****** ******   000000 000000   040040 040040    ............
   1     234   000000 000000   000000 000000   000000 000000   000000 000000    ................
   1     264*  000000 000000   000000 000000   000000 000000   ****** ******    ................
   1     270   000000 000000   000000 000000   000000 000000   000000 000000    ................
   1     324*  000000 000000   ****** ******   000000 000000   000000 000000    ................
   1     330   000000 000000   000000 000000   000000 000000   000000 000000    ................
   1     350*  000000 000000   000000 000000   000000 000000   ****** ******    ................
   1     360*  000000 000000   000000 000000   000000 000000   000000 000000    ................
   1     404*  000000 000000   ****** ******   000000 000000   000000 000000    ................
   1     410   000000 000000   000000 000000   000000 000000   000000 000000    ................
   1     424*  000000 000000   000000 000000   000000 000000   040040 040040    ............
   1     430   040040 040040   040040 040040   040040 040040   040040 040040
   1     434   040040 040040   040040 040040   040040 ******   ****** ******              ......
   1     440   040040 040040   040040 040040   040040 040040   040040 040040
   1     450*  040040 040040   040040 040040   040040 ******   ****** ******              ......
   1     454   000000 000000   040040 040040   040040 040040   040040 040040    ....
   1     460   040040 040040   040040 040040   040040 040040   040040 040040
   1     464   040040 ******   ****** ******   000000 000000   000000 000000      ..............
   1     470   000000 000000   000000 000000   000000 000000   000000 000000    ................
   1     474   000000 000000   ****** ******   000000 000000   000000 000000    ................
   1     500   000000 000000   000000 000000   040040 040040   040040 040040    ........
   1     504   040040 040040   040040 040040   040040 040040   040040 040040
   1     520*  040040 040040   ****** ******   000000 000000   000000 000000        ............
   1     524   040040 040040   040040 040040   040040 040040   040040 040040
   1     574*  000000 000000   000000 000000   000000 000000   000000 000000    ................
   1     600   000000 000000   000000 000000   000000 000000   ****** ******    ................
   1     604   000000 000000   000000 000000   000000 000000   000000 000000    ................
   1     610   000000 000000   000000 000000   040040 040040   040040 040040    ........
   1     614   040040 040040   040040 040040   040040 040040   040040 040040
   1     620   040040 040040   040040 ******   040040 040040   040040 040040          ..
   1     624   040040 040040   040040 040040   040040 040040   040040 040040
   1     660*  040040 040040   040040 040040   040040 040040   ****** ******                ....
   1     664   040040 040040   040040 040040   040040 040040   040040 040040
   1     674*  040040 040040   ****** ******   040040 040040   040040 040040        ....
   1     700   040040 040040   040040 040040   040040 040040   040040 040040
   1     710*  040040 040040   ****** ******   040040 040040   040040 040040        ....
   1     714   040040 040040   040040 040040   040040 040040   040040 040040
PL6.E3A0      #001=ZIA$IDS_INT File=ZIA$IDS_INT.:ZIC0TSI                         FRI 09/05/97 11:33 Page:50
   1     720   040040 040040   040040 040040   040040 040040   ****** ******                ....
   1     724   040040 040040   040040 040040   040040 040040   040040 040040
   1     740*  040040 040040   ****** ******   040040 040040   040040 040040        ....
   1     744   040040 040040   040040 040040   040040 040040   040040 040040
   1     774*  040040 040040   ****** ******   040040 040040   040040 040040        ....
   1    1000   040040 040040   040040 040040   040040 040040   040040 040040
   1    1034*  040040 040040   ****** ******   040040 040040   040040 040040        ....
   1    1040   040040 040040   040040 040040   040040 040040   040040 040040
   1    1060*  040040 040040   ****** ******   040040 040040   040040 040040        ....
   1    1064   040040 040040   040040 040040   040040 040040   040040 040040
   1    1114*  040040 040040   ****** ******   040040 040040   040040 040040        ....
   1    1120   040040 040040   040040 040040   040040 040040   040040 040040
   1    1134*  040040 040040   040040 040040   040040 040040   ****** ******                ....
   1    1140   040040 040040   040040 040040   040040 040040   040040 040040
   1    1144   040040 040040   ****** ******   040040 040040   040040 040040        ....
   1    1150   040040 040040   040040 040040   040040 040040   ****** ******                ....
   1    1154   040040 040040   040040 040040   040040 040040   040040 040040
   1    1160   040040 040040   ****** ******   040040 040040   040040 040040        ....
   1    1164   040040 040040   040040 040040   040040 040040   ****** ******                ....
   1    1170   040040 040040   040040 040040   040040 040040   040040 040040
   1    1200*  040040 040040   040040 040040   040040 040040   ****** ******                ....
   1    1204   040040 040040   040040 040040   040040 040040   040040 040040
   1    1214*  040040 040040   040040 040040   040040 040040   040040 040040

IA
 Sect OctLoc
   2     000   000000 000000   000000 006000   000000 000000   000000 000000    ................
   2     004   000000 000000   000000 000000   000000 000000   000000 000000    ................
   2     010   000000 006000   000000 000000   104125 116107   137123 103110    ........DUNG_SCH
   2     014   040040 040040   040040 040040   040040 040040   040040 040040
   2     020   040040 040040   040040 040040   104125 116107   055123 125102            DUNG-SUB
   2     024   040040 040040   040040 040040   040040 040040   040040 040040
   2     030   040040 040040   040040 040040   000000 000000   000000 000000            ........
   2     034   000000 000000   000000 000000   000000 000000   000000 000000    ................
   2     050*  000000 000000   000000 000000   000000 000000   061476 566547    ............1...
   2     054   000000 000000   061476 527476                                    ....1...

PL6.E3A0      #001=ZIA$IDS_INT File=ZIA$IDS_INT.:ZIC0TSI                         FRI 09/05/97 11:33 Page:51
USE_PROC
 Sect OctLoc
   3     000   000001 000000   003017 204400   000000 000000                    ............

IPT_ACC
 Sect OctLoc
   9     000   000003 777640   000014 006000   000055 777640   000000 006000    .........-......
   9     004   001217 777640   000000 006000   000151 777640   000000 006000    .........i......
   9     010   000003 777640   000000 006000   000000 177640   000000 006014    ................
   9     014   000000 000000   000000 000000   000000 000000   ****** ******    ................

IPT_CON
 Sect OctLoc
   9     020   000001 777640   000032 006000   000055 777640   000000 006000    .........-......
   9     024   001217 777640   000000 006000   000151 777640   000000 006000    .........i......
   9     030   000003 777640   000000 006000   000000 000000   000000 000000    ................

IPT_IST
 Sect OctLoc
   9     034   000001 777640   000046 006000   000055 777640   000000 006000    .....&...-......
   9     040   001217 777640   000000 006000   000151 777640   000000 006000    .........i......
   9     044   000003 777640   000000 006000   000000 000000   000000 000000    ................

IPT_DIS
 Sect OctLoc
   9     050   000001 777640   000062 006000   000055 777640   000000 006000    .....2...-......
   9     054   001217 777640   000000 006000   000151 777640   000000 006000    .........i......
   9     060   000003 777640   000000 006000   000000 000000   000000 000000    ................

IPT_ERS
 Sect OctLoc
   9     064   000001 777640   000076 006000   000055 777640   000000 006000    .....>...-......
   9     070   001217 777640   000000 006000   000151 777640   000000 006000    .........i......
   9     074   000003 777640   000000 006000   000000 000000   400000 000000    ................

IPT_HIA
 Sect OctLoc
PL6.E3A0      #001=ZIA$IDS_INT File=ZIA$IDS_INT.:ZIC0TSI                         FRI 09/05/97 11:33 Page:52
   9     100   000000 177640   000000 006014   000055 777640   000000 006000    .........-......
   9     104   001217 777640   000000 006000   000151 777640   000000 006000    .........i......
   9     110   000003 777640   000000 006000                                    ........

IPT_RDY
 Sect OctLoc
   9     112   000003 777640   000124 006000   000055 777640   000000 006000    .....T...-......
   9     116   001217 777640   000000 006000   000151 777640   000000 006000    .........i......
   9     122   000003 777640   000000 006000   000010 000001   000000 000000    ................
   9     126   000000 000000   ****** ******                                    ........

IPT_INA
 Sect OctLoc
   9     130   000003 777640   000142 006000   000055 777640   000000 006000    .....b...-......
   9     134   001217 777640   000000 006000   000151 777640   000000 006000    .........i......
   9     140   000003 777640   000000 006000   000010 000001   000000 000000    ................
   9     144   000000 000000   ****** ******                                    ........

IPT_FDR
 Sect OctLoc
   9     146   000003 777640   000162 006000   000055 777640   000000 006000    .....r...-......
   9     152   001217 777640   000000 006000   000151 777640   000000 006000    .........i......
   9     156   000003 777640   000000 006000   000000 177640   000000 006014    ................
   9     162   000000 000000   000000 000000   000000 000000   000000 000000    ................

IPT_FRS
 Sect OctLoc
   9     166   000005 777640   000200 006000   000055 777640   000000 006000    .........-......
   9     172   001217 777640   000000 006000   000151 777640   000000 006000    .........i......
   9     176   000003 777640   000000 006000   000000 000000   000000 000000    ................
   9     202   000000 000000   000000 000000   000000 000000   ****** ******    ................

IPT_FRI
 Sect OctLoc
   9     206   000005 777640   000220 006000   000055 777640   000000 006000    .........-......
   9     212   001217 777640   000000 006000   000151 777640   000000 006000    .........i......
   9     216   000003 777640   000000 006000   000000 000000   000000 000000    ................
PL6.E3A0      #001=ZIA$IDS_INT File=ZIA$IDS_INT.:ZIC0TSI                         FRI 09/05/97 11:33 Page:53
   9     222   000000 000000   000000 000000   000000 000000   ****** ******    ................

IPT_FOR
 Sect OctLoc
   9     226   000003 777640   000240 006000   000055 777640   000000 006000    .........-......
   9     232   001217 777640   000000 006000   000151 777640   000000 006000    .........i......
   9     236   000003 777640   000000 006000   000000 000000   000000 000000    ................
   9     242   000000 000000   ****** ******                                    ........

IPT_GET
 Sect OctLoc
   9     244   000001 777640   000256 006000   000055 777640   000000 006000    .........-......
   9     250   001217 777640   000000 006000   000151 777640   000000 006000    .........i......
   9     254   000003 777640   000000 006000   000000 000000   ****** ******    ................

IPT_NBF
 Sect OctLoc
   9     260   000000 177640   000000 006014   000000 177640   000000 006014    ................

IPT_FIN
 Sect OctLoc
   9     264   000003 777640   000276 006000   000055 777640   000000 006000    .........-......
   9     270   001217 777640   000000 006000   000151 777640   000000 006000    .........i......
   9     274   000003 777640   000000 006000   000000 000000   000000 000000    ................
   9     300   000000 000000   ****** ******                                    ........

IPT_MOD
 Sect OctLoc
   9     302   000005 777640   000314 006000   000055 777640   000000 006000    .........-......
   9     306   001217 777640   000000 006000   000151 777640   000000 006000    .........i......
   9     312   000003 777640   000000 006000   000000 000000   000000 000000    ................
   9     316   000000 000000   000000 000000   000000 000000   ****** ******    ................

IPT_STO
 Sect OctLoc
   9     322   000003 777640   000334 006000   000055 777640   000000 006000    .........-......
   9     326   001217 777640   000000 006000   000151 777640   000000 006000    .........i......
PL6.E3A0      #001=ZIA$IDS_INT File=ZIA$IDS_INT.:ZIC0TSI                         FRI 09/05/97 11:33 Page:54
   9     332   000003 777640   000000 006000   000000 000000   000000 000000    ................
   9     336   000000 000000   ****** ******                                    ........

IPT_FDC
 Sect OctLoc
   9     340   000003 777640   000352 006000   000055 777640   000000 006000    .........-......
   9     344   001217 777640   000000 006000   000151 777640   000000 006000    .........i......
   9     350   000003 777640   000000 006000   000000 000000   000000 000000    ................
   9     354   000000 000000   ****** ******                                    ........

IPT_FCT
 Sect OctLoc
   9     356   000003 777640   000370 006000   000055 777640   000000 006000    .........-......
   9     362   001217 777640   000000 006000   000151 777640   000000 006000    .........i......
   9     366   000003 777640   000000 006000   000000 000000   000000 000000    ................
   9     372   000000 000000   ****** ******                                    ........

(unnamed)
 Sect OctLoc
  11     000   000000 006000   000151 406000   000000 777640   000000 006000    .....i..........
  11     004   000000 006014   577777 777777   377777 777777                    ............
      251     2656    1   END ZIA$IDS_INT;

PL6.E3A0      #001=ZIA$IDS_INT File=ZIA$IDS_INT.:ZIC0TSI                         FRI 09/05/97 11:33 Page:55
--  Include file information  --

   ZI_DBCS.:ZIC0TOU  is referenced.
   ZI_SUB4_CAN.:ZIC0TOU  is referenced.
   B$JIT_C.:E05TOU  was found in the system file and is never referenced.
   CP_6_C.:E05TOU  was found in the system file and is never referenced.
      No diagnostics issued in procedure ZIA$IDS_INT.

   Procedure ZIA$IDS_INT requires 691 words for executable code.
   Procedure ZIA$IDS_INT requires 8 words of local(AUTO) storage.

    No errors detected in file ZIA$IDS_INT.:ZIC0TSI    .
PL6.E3A0      #001=ZIA$IDS_INT File=ZIA$IDS_INT.:ZIC0TSI                         FRI 09/05/97 11:33 Page:56
          *** CROSS REFERENCE LISTING ***
**     DENOTES     IDENTIFIER DEFINITION
<<                 IDENTIFIER'S VALUE SET
>>                 IDENTIFIER'S VALUE USED
<>                 IDENTIFIER SET AND/OR USED
--                 IDENTIFIER REFERENCED
PL6.E3A0      #001=ZIA$IDS_INT File=ZIA$IDS_INT.:ZIC0TSI                         FRI 09/05/97 11:33 Page:57
          MINI XREF LISTING

BUFALOC
      1937**DCL      2375--ASSIGN
CCW
      1938**DCL      2628>>ASSIGN
HIGH_SCHEMA_DBK
      1939**DCL      2492>>IF
HIGH_STORE_DBK
      1941**DCL      2496<<ASSIGN
I$ACC
      1923**DCL-ENT  2637--CALL
I$CON
      1922**DCL-ENT  2564--CALL
I$DIS
      1922**DCL-ENT  2590--CALL
I$ERS
      1922**DCL-ENT  2615--CALL
I$FCT
      1925**DCL-ENT  2538--CALL
I$FDC
      1924**DCL-ENT  2512--CALL
I$FDR
      1926**DCL-ENT  2274--CALL
I$FIN
      1921**DCL-ENT  2408--CALL
I$FOR
      1925**DCL-ENT  2345--CALL
I$FRI
      1927**DCL-ENT  2326--CALL
I$FRS
      1926**DCL-ENT  2301--CALL
I$GET
      1927**DCL-ENT  2366--CALL
PL6.E3A0      #001=ZIA$IDS_INT File=ZIA$IDS_INT.:ZIC0TSI                         FRI 09/05/97 11:33 Page:58
I$HIA
      1921**DCL-ENT  2218--CALL
I$INA
      1931**DCL-ENT  2252--CALL
I$MOD
      1922**DCL-ENT  2446--CALL     2465--CALL
I$NBF
      1931**DCL-ENT  2384--CALL
I$RDY
      1921**DCL-ENT  2235--CALL
I$STO
      1921**DCL-ENT  2486--CALL
IA
      1283**DCL      1949--DCLINIT  1962--DCLINIT  1975--DCLINIT  1988--DCLINIT  2001--DCLINIT  2013--DCLINIT
      2025--DCLINIT  2040--DCLINIT  2054--DCLINIT  2070--DCLINIT  2087--DCLINIT  2104--DCLINIT  2119--DCLINIT
      2142--DCLINIT  2155--DCLINIT  2171--DCLINIT  2186--DCLINIT  2201--DCLINIT
IPT_ACC
      1949**DCL      2637<>CALL
IPT_ACC.DBK_
      1951**DCL      2624<<ASSIGN
IPT_ACC.V
      1951**DCL      1949--DCLINIT
IPT_ACC.V.CCW.SCI#
      1951**DCL      2628<<ASSIGN
IPT_ACC.V.RVA_ITEM.OFFSET#
      1952**DCL      2626<<ASSIGN   2627<<ASSIGN
IPT_CON
      1962**DCL      2564<>CALL
IPT_CON.V
      1964**DCL      1962--DCLINIT
IPT_CON.V.RC.RC_OFFSET#
      1964**DCL      2555<<ASSIGN
IPT_CON.V.SC.SC_OFFSET#
      1965**DCL      2553<<ASSIGN   2554<<ASSIGN
IPT_DIS
      1988**DCL      2590<>CALL
PL6.E3A0      #001=ZIA$IDS_INT File=ZIA$IDS_INT.:ZIC0TSI                         FRI 09/05/97 11:33 Page:59
IPT_DIS.V
      1990**DCL      1988--DCLINIT
IPT_DIS.V.RC.RC_OFFSET#
      1990**DCL      2581<<ASSIGN
IPT_DIS.V.SC.SC_OFFSET#
      1991**DCL      2579<<ASSIGN   2580<<ASSIGN
IPT_ERS
      2001**DCL      2615<>CALL
IPT_ERS.V
      2003**DCL      2001--DCLINIT
IPT_ERS.V.RC.RC_OFFSET#
      2003**DCL      2605<<ASSIGN   2606<<ASSIGN
IPT_FCT
      2201**DCL      2538<>CALL
IPT_FCT.V
      2203**DCL      2201--DCLINIT
IPT_FCT.V.RC.RC_OFFSET#
      2203**DCL      2528<<ASSIGN   2529<<ASSIGN
IPT_FDC
      2186**DCL      2512<>CALL
IPT_FDC.V
      2188**DCL      2186--DCLINIT
IPT_FDC.V.RC.RC_OFFSET#
      2188**DCL      2502<<ASSIGN   2503<<ASSIGN
IPT_FDR
      2054**DCL      2274<>CALL
IPT_FDR.DBK_
      2056**DCL      2265<<ASSIGN
IPT_FDR.V
      2056**DCL      2054--DCLINIT
IPT_FDR.V.RC.RC_OFFSET#
      2056**DCL      2261<<ASSIGN   2263<<ASSIGN   2264<<ASSIGN
IPT_FIN
      2142**DCL      2408<>CALL
IPT_FIN.V
      2144**DCL      2142--DCLINIT
PL6.E3A0      #001=ZIA$IDS_INT File=ZIA$IDS_INT.:ZIC0TSI                         FRI 09/05/97 11:33 Page:60
IPT_FIN.V.AC_OFFSETS.RVA_OFFSET#
      2145**DCL      2398<<ASSIGN
IPT_FIN.V.ALCW.N_AREAS#
      2144**DCL      2394<<ASSIGN   2397<<ASSIGN
IPT_FOR
      2104**DCL      2345<>CALL
IPT_FOR.V
      2106**DCL      2104--DCLINIT
IPT_FOR.V.SC.SC_OFFSET#
      2106**DCL      2335<<ASSIGN   2336<<ASSIGN
IPT_FRI
      2087**DCL      2326<>CALL
IPT_FRI.V
      2089**DCL      2087--DCLINIT
IPT_FRI.V.FCW.RECORD_LOCATION#
      2089**DCL      2317<<ASSIGN
IPT_FRI.V.RC.RC_OFFSET#
      2090**DCL      2310<<ASSIGN   2312<<ASSIGN   2313<<ASSIGN
IPT_FRI.V.SC.SC_OFFSET#
      2091**DCL      2315<<ASSIGN   2316<<ASSIGN
IPT_FRS
      2070**DCL      2301<>CALL
IPT_FRS.V
      2072**DCL      2070--DCLINIT
IPT_FRS.V.FCW.RECORD_LOCATION#
      2072**DCL      2292<<ASSIGN
IPT_FRS.V.RC.RC_OFFSET#
      2073**DCL      2283<<ASSIGN   2286<<ASSIGN   2288<<ASSIGN
IPT_FRS.V.SC.SC_OFFSET#
      2074**DCL      2290<<ASSIGN   2291<<ASSIGN
IPT_GET
      2119**DCL      2366<>CALL
IPT_GET.V
      2121**DCL      2119--DCLINIT
IPT_GET.V.RC.RC_OFFSET#
      2121**DCL      2354<<ASSIGN   2356<<ASSIGN   2357<<ASSIGN
PL6.E3A0      #001=ZIA$IDS_INT File=ZIA$IDS_INT.:ZIC0TSI                         FRI 09/05/97 11:33 Page:61
IPT_HIA
      2013**DCL      2218<>CALL
IPT_INA
      2040**DCL      2252<>CALL
IPT_INA.V
      2042**DCL      2040--DCLINIT
IPT_INA.V.AC_OFFSETS.RVA_OFFSET#
      2044**DCL      2243<<ASSIGN
IPT_IST.V
      1977**DCL      1975--DCLINIT
IPT_MOD
      2155**DCL      2446<>CALL     2465<>CALL
IPT_MOD.V
      2157**DCL      2155--DCLINIT
IPT_MOD.V.FL_SL_LIST.RVA_OFFSET#
      2161**DCL      2434<<ASSIGN   2436<<ASSIGN
IPT_MOD.V.MCW.MC_BIT0#
      2158**DCL      2431<<ASSIGN   2453<<ASSIGN
IPT_MOD.V.MCW.MC_BIT1#
      2158**DCL      2427<<ASSIGN   2429<<ASSIGN   2454<<ASSIGN
IPT_MOD.V.RC.RC_OFFSET#
      2157**DCL      2422<<ASSIGN   2423<<ASSIGN
IPT_MOD.V.SLCW.N_SETS#
      2160**DCL      2432<<ASSIGN   2452<<ASSIGN
IPT_NBF
      2131**DCL      2384<>CALL
IPT_NBF.BUFFS_ALLOC_
      2131**DCL      2375<<ASSIGN
IPT_NBF.BUFFS_REQ_
      2131**DCL      2374<<ASSIGN
IPT_RDY
      2025**DCL      2235<>CALL
IPT_RDY.V
      2027**DCL      2025--DCLINIT
IPT_RDY.V.AC_OFFSETS.RVA_OFFSET#
      2029**DCL      2226<<ASSIGN
PL6.E3A0      #001=ZIA$IDS_INT File=ZIA$IDS_INT.:ZIC0TSI                         FRI 09/05/97 11:33 Page:62
IPT_STO
      2171**DCL      2486<>CALL
IPT_STO.V
      2173**DCL      2171--DCLINIT
IPT_STO.V.RC.RC_OFFSET#
      2173**DCL      2476<<ASSIGN   2477<<ASSIGN
NEED_LARGER_SCHEMA
      1940**DCL      2494<<ASSIGN
PARAM1
      1933**DCL        12--PROC     2225--ENTRY    2226--ASSIGN   2242--ENTRY    2243--ASSIGN   2259--ENTRY
      2260>>IF       2261>>ASSIGN   2262>>IF       2264--ASSIGN   2281--ENTRY    2282>>IF       2285>>IF
      2286>>ASSIGN   2288--ASSIGN   2308--ENTRY    2309>>IF       2311>>IF       2312>>ASSIGN   2313--ASSIGN
      2333--ENTRY    2334>>IF       2335>>ASSIGN   2336--ASSIGN   2352--ENTRY    2353>>IF       2355>>IF
      2356>>ASSIGN   2357--ASSIGN   2373--ENTRY    2374--ASSIGN   2391--ENTRY    2392--IF       2398--ASSIGN
      2415--ENTRY    2421>>IF       2422>>ASSIGN   2423--ASSIGN   2473--ENTRY    2475>>IF       2476>>ASSIGN
      2477--ASSIGN   2498--ENTRY    2501>>IF       2502>>ASSIGN   2503--ASSIGN   2519--ENTRY    2527>>IF
      2528>>ASSIGN   2529--ASSIGN   2545--ENTRY    2552>>IF       2553>>ASSIGN   2554--ASSIGN   2571--ENTRY
      2578>>IF       2579>>ASSIGN   2580--ASSIGN   2597--ENTRY    2604>>IF       2605>>ASSIGN   2606--ASSIGN
      2622--ENTRY    2625>>IF       2626>>ASSIGN   2627--ASSIGN
PARAM2
      1934**DCL        12--PROC     2259--ENTRY    2281--ENTRY    2289>>IF       2290>>ASSIGN   2291--ASSIGN
      2308--ENTRY    2314>>IF       2315>>ASSIGN   2316--ASSIGN   2415--ENTRY    2424--IF       2426--IF
      2428--IF       2433>>IF       2434>>ASSIGN   2436--ASSIGN   2622--ENTRY
PARAM3
      1935**DCL        12--PROC     2259--ENTRY    2265--ASSIGN   2281--ENTRY    2292>>ASSIGN   2308--ENTRY
      2317>>ASSIGN   2622--ENTRY    2624--ASSIGN
RVA
       671**DCL      1289--DCLINIT  1950--DCLINIT  1963--DCLINIT  1976--DCLINIT  1989--DCLINIT  2002--DCLINIT
      2014--DCLINIT  2026--DCLINIT  2041--DCLINIT  2055--DCLINIT  2071--DCLINIT  2088--DCLINIT  2105--DCLINIT
      2120--DCLINIT  2143--DCLINIT  2156--DCLINIT  2172--DCLINIT  2187--DCLINIT  2202--DCLINIT  2226--ASSIGN
      2243--ASSIGN   2263--ASSIGN   2264--ASSIGN   2283--ASSIGN   2288--ASSIGN   2291--ASSIGN   2310--ASSIGN
      2313--ASSIGN   2316--ASSIGN   2336--ASSIGN   2354--ASSIGN   2357--ASSIGN   2398--ASSIGN   2423--ASSIGN
      2436--ASSIGN   2477--ASSIGN   2503--ASSIGN   2529--ASSIGN   2554--ASSIGN   2555--ASSIGN   2580--ASSIGN
      2581--ASSIGN   2606--ASSIGN   2627--ASSIGN
RVA.NULL
       945**DCL      2263--ASSIGN   2283--ASSIGN   2310--ASSIGN   2354--ASSIGN   2555--ASSIGN   2581--ASSIGN
PL6.E3A0      #001=ZIA$IDS_INT File=ZIA$IDS_INT.:ZIC0TSI                         FRI 09/05/97 11:33 Page:63
USE_PROC
      1299**DCL      1950--DCLINIT  1963--DCLINIT  1976--DCLINIT  1989--DCLINIT  2002--DCLINIT  2014--DCLINIT
      2026--DCLINIT  2041--DCLINIT  2055--DCLINIT  2071--DCLINIT  2088--DCLINIT  2105--DCLINIT  2120--DCLINIT
      2143--DCLINIT  2156--DCLINIT  2172--DCLINIT  2187--DCLINIT  2202--DCLINIT
UWA
       948**DCL      1285--DCLINIT  1950--DCLINIT  1963--DCLINIT  1976--DCLINIT  1989--DCLINIT  2002--DCLINIT
      2014--DCLINIT  2026--DCLINIT  2041--DCLINIT  2055--DCLINIT  2071--DCLINIT  2088--DCLINIT  2105--DCLINIT
      2120--DCLINIT  2143--DCLINIT  2156--DCLINIT  2172--DCLINIT  2187--DCLINIT  2202--DCLINIT
UWA.AC.CALC_NEXT
      1058**DCL      1059--REDEF
UWA.AC.CALC_PRIOR
      1067**DCL      1068--REDEF
UWA.AC.DEFAULTS
      1019**DCL      1020--REDEF
UWA.AC.FILE_CODE
      1024**DCL      1025--REDEF
UWA.AC.FLAG1.ERROR_TYPE
      1021**DCL      1022--REDEF
UWA.DIRECT_REF
       959**DCL      2492>>IF       2496>>ASSIGN
WORD36
      1936**DCL      2374--ASSIGN   2392>>IF       2426>>IF       2428>>IF
