
PL6.E3A0      #001=ZIA$IDS_INT File=ZIA$IDS_INT_USER.:ZIC0TSI                    FRI 09/05/97 11:34 Page:1
        1        1        /*M*     ZIA$IDS_INT    I-D-S/II       DBACS */
        2        2        /*T***********************************************************/
        3        3        /*T*                                                         */
        4        4        /*T* Copyright (c) Bull HN Information Systems Inc., 1997    */
        5        5        /*T*                                                         */
        6        6        /*T***********************************************************/
        7        7        /*P*
        8        8        NAME:
        9        9        PURPOSE:
       10       10                 TO HANDLE ALL THE IDS INTERFACE SUBROUTINES
       11       11        */
       12       12        ZIA$IDS_INT: PROC (PARAM1,PARAM2,PARAM3);
       13       13        %INCLUDE ZI_SUB4_CAN;
       14      670        %RVA;
       15      947        %UWA;
       16     1282        %IA;
       17     1298        %USE_PROC;
       18     1306        %INCLUDE ZI_DBCS;
       19     1919        %USER;
       20     1930    1   DCL PARAM1 SBIN (18) HALIGNED;
       21     1931    1   DCL PARAM2 SBIN (18) HALIGNED;
       22     1932    1   DCL PARAM3 SBIN (36) HALIGNED;
       23     1933    1   DCL WORD36 SBIN (36) BASED;
       24     1934    1   DCL BUFALOC UBIN (36) EXT;
       25     1935    1   DCL CCW UBIN (36) EXT UNAL;
       26     1936        %IPT_ACC(IAN=IA,UWAN=UWA,RVAN=RVA,USEPN=USE_PROC);
       27     1949        %IPT_CON(IAN=IA,UWAN=UWA,RVAN=RVA,USEPN=USE_PROC);
       28     1962        %IPT_IST(IAN=IA,UWAN=UWA,RVAN=RVA,USEPN=USE_PROC);
       29     1975        %IPT_DIS(IAN=IA,UWAN=UWA,RVAN=RVA,USEPN=USE_PROC);
       30     1988        %IPT_ERS(IAN=IA,UWAN=UWA,RVAN=RVA,USEPN=USE_PROC,EC_BIT='1'B);
       31     2000        %IPT_HIA (IAN=IA,UWAN=UWA,RVAN=RVA,USEPN=USE_PROC);
       32     2011        %IPT_RDY (IAN=IA,UWAN=UWA,RVAN=RVA,USEPN=USE_PROC,READY_OPTION=UPDATE,
       33     2012         AREAS_TO_READY=1);
       34     2026        %IPT_INA (IAN=IA,UWAN=UWA,RVAN=RVA,USEPN=USE_PROC,READY_OPTION=UPDATE,
       35     2027         AREAS_TO_READY=1);
       36     2041        %IPT_FDR (IAN=IA,UWAN=UWA,RVAN=RVA,USEPN=USE_PROC);
       37     2057        %IPT_FRS (IAN=IA,UWAN=UWA,RVAN=RVA,USEPN=USE_PROC);
PL6.E3A0      #001=ZIA$IDS_INT File=ZIA$IDS_INT_USER.:ZIC0TSI                    FRI 09/05/97 11:34 Page:2
       38     2074        %IPT_FRI (IAN=IA,UWAN=UWA,RVAN=RVA,USEPN=USE_PROC);
       39     2091        %IPT_FOR (IAN=IA,UWAN=UWA,RVAN=RVA,USEPN=USE_PROC);
       40     2106        %IPT_GET (IAN=IA,UWAN=UWA,RVAN=RVA,USEPN=USE_PROC);
       41     2118        %IPT_NBF;
       42     2128        %IPT_FIN (IAN=IA,UWAN=UWA,RVAN=RVA,USEPN=USE_PROC,
       43     2129         AREAS_TO_READY=1);
       44     2142        %IPT_MOD(IAN=IA,UWAN=UWA,RVAN=RVA,USEPN=USE_PROC);
       45     2158        %IPT_STO(IAN=IA,UWAN=UWA,RVAN=RVA,USEPN=USE_PROC);
       46     2173        %IPT_FDC(IAN=IA,UWAN=UWA,RVAN=RVA,USEPN=USE_PROC);
       47     2188        %IPT_FCT(IAN=IA,UWAN=UWA,RVAN=RVA,USEPN=USE_PROC);
       48     2203    1   ZIA$HIA: ENTRY;
       49     2204            %CLIMB(FCN=HIA);
       50     2218    1       RETURN;
       51     2219    1   ZIA$READY: ENTRY (PARAM1);
       52     2220    1       IPT_RDY.V.AC_OFFSETS.RVA_OFFSET#(0) = POFFW(ADDR(PARAM1),ADDR(RVA));
       53     2221            %CLIMB(FCN=RDY);
       54     2235    1       RETURN;
       55     2236    1   ZIA$INA: ENTRY (PARAM1);
       56     2237    1       IPT_INA.V.AC_OFFSETS.RVA_OFFSET#(0) = POFFW(ADDR(PARAM1),ADDR(RVA));
       57     2238            %CLIMB(FCN=INA);
       58     2252    1       RETURN;
       59     2253    1   ZIA$FDR: ENTRY(PARAM1,PARAM2,PARAM3);
       60     2254    1       IF PARAM1 < 0
       61     2255    1       THEN IPT_FDR.V.RC.RC_OFFSET# = - PARAM1;
       62     2256    1       ELSE IF PARAM1 = 0
       63     2257    1           THEN IPT_FDR.V.RC.RC_OFFSET# = POFFW(ADDR(RVA.NULL),ADDR(RVA));
       64     2258    1           ELSE IPT_FDR.V.RC.RC_OFFSET#=POFFW(ADDR(PARAM1),ADDR(RVA));
       65     2259    1       IPT_FDR.DBK_=VECTOR(PARAM3);
       66     2260            %CLIMB(FCN=FDR);
       67     2274    1       RETURN;
       68     2275    1   ZIA$FRS: ENTRY(PARAM1,PARAM2,PARAM3);
       69     2276    1       IF PARAM1 = 0 THEN
       70     2277    1           IPT_FRS.V.RC.RC_OFFSET# = POFFW(ADDR(RVA.NULL),ADDR(RVA));
       71     2278    1       ELSE
       72     2279    1           IF PARAM1 < 0
       73     2280    1           THEN IPT_FRS.V.RC.RC_OFFSET# = - PARAM1;
       74     2281    1           ELSE
PL6.E3A0      #001=ZIA$IDS_INT File=ZIA$IDS_INT_USER.:ZIC0TSI                    FRI 09/05/97 11:34 Page:3
       75     2282    1               IPT_FRS.V.RC.RC_OFFSET#=POFFW(ADDR(PARAM1),ADDR(RVA));
       76     2283    1       IF PARAM2 < 0
       77     2284    1       THEN IPT_FRS.V.SC.SC_OFFSET# = - PARAM2;
       78     2285    1       ELSE IPT_FRS.V.SC.SC_OFFSET#=POFFW(ADDR(PARAM2),ADDR(RVA));
       79     2286    1       IPT_FRS.V.FCW.RECORD_LOCATION# = PARAM3;
       80     2287            %CLIMB(FCN=FRS);
       81     2301    1       RETURN;
       82     2302    1   ZIA$FRI: ENTRY(PARAM1,PARAM2,PARAM3);
       83     2303    1       IF PARAM1 = 0 THEN
       84     2304    1           IPT_FRI.V.RC.RC_OFFSET# = POFFW(ADDR(RVA.NULL),ADDR(RVA));
       85     2305    1       ELSE IF PARAM1 < 0
       86     2306    1           THEN IPT_FRI.V.RC.RC_OFFSET# = - PARAM1;
       87     2307    1           ELSE IPT_FRI.V.RC.RC_OFFSET#=POFFW(ADDR(PARAM1),ADDR(RVA));
       88     2308    1       IF PARAM2 < 0
       89     2309    1       THEN IPT_FRI.V.SC.SC_OFFSET# = - PARAM2;
       90     2310    1       ELSE IPT_FRI.V.SC.SC_OFFSET#=POFFW(ADDR(PARAM2),ADDR(RVA));
       91     2311    1       IPT_FRI.V.FCW.RECORD_LOCATION# = PARAM3;
       92     2312            %CLIMB(FCN=FRI);
       93     2326    1       RETURN;
       94     2327    1   ZIA$FOR: ENTRY (PARAM1);
       95     2328    1       IF PARAM1 < 0
       96     2329    1       THEN IPT_FOR.V.SC.SC_OFFSET# = - PARAM1;
       97     2330    1       ELSE IPT_FOR.V.SC.SC_OFFSET#=POFFW(ADDR(PARAM1),ADDR(RVA));
       98     2331            %CLIMB(FCN=FOR);
       99     2345    1       RETURN;
      100     2346    1   ZIA$GET: ENTRY(PARAM1);
      101     2347    1       IF PARAM1 = 0 THEN
      102     2348    1           IPT_GET.V.RC.RC_OFFSET#=POFFW(ADDR(RVA.NULL),ADDR(RVA));
      103     2349    1       ELSE IF PARAM1 < 0
      104     2350    1           THEN IPT_GET.V.RC.RC_OFFSET# = - PARAM1;
      105     2351    1           ELSE IPT_GET.V.RC.RC_OFFSET#=POFFW(ADDR(PARAM1),ADDR(RVA));
      106     2352            %CLIMB(FCN=GET);
      107     2366    1       RETURN;
      108     2367    1   ZIA$NBUFFERS: ENTRY (PARAM1);
      109     2368    1       IPT_NBF.BUFFS_REQ_ = VECTOR(ADDR(PARAM1) -> WORD36);
      110     2369    1       IPT_NBF.BUFFS_ALLOC_ = VECTOR(BUFALOC);
      111     2370            %CLIMB(FCN=NBF);
PL6.E3A0      #001=ZIA$IDS_INT File=ZIA$IDS_INT_USER.:ZIC0TSI                    FRI 09/05/97 11:34 Page:4
      112     2384    1       RETURN;
      113     2385    1   ZIA$FINISH: ENTRY (PARAM1);
      114     2386    1       IF ADDR(PARAM1) -> WORD36 = 0
      115     2387    2       THEN DO;
      116     2388    2           IPT_FIN.V.ALCW.N_AREAS# = 0;
      117     2389    2           END;
      118     2390    2       ELSE DO;
      119     2391    2           IPT_FIN.V.ALCW.N_AREAS# = 1;
      120     2392    2           IPT_FIN.V.AC_OFFSETS.RVA_OFFSET#(0) = POFFW(ADDR(PARAM1),ADDR(RVA));
      121     2393    2           END;
      122     2394            %CLIMB(FCN=FIN);
      123     2408    1       RETURN;
      124     2409    1   ZIA$MODIFY:
      125     2410    1       ENTRY (PARAM1,PARAM2);
      126     2411        /*
      127     2412                   Didn't implement modify fields
      128     2413                 for any of the modifys.
      129     2414        */
      130     2415    1       IF PARAM1 < 0
      131     2416    1       THEN IPT_MOD.V.RC.RC_OFFSET# = - PARAM1;
      132     2417    1       ELSE IPT_MOD.V.RC.RC_OFFSET# = POFFW(ADDR(PARAM1),ADDR(RVA));
      133     2418    1       IF ADDR(PARAM2) ~= ADDR(NIL)
      134     2419    2       THEN DO;
      135     2420    2           IF ADDR(PARAM2)-> WORD36 = 0
      136     2421    2           THEN IPT_MOD.V.MCW.MC_BIT1# = '0'B;
      137     2422    2           ELSE IF ADDR(PARAM2)-> WORD36 = 1
      138     2423    2               THEN IPT_MOD.V.MCW.MC_BIT1# = '1'B;
      139     2424    3               ELSE DO;
      140     2425    3                   IPT_MOD.V.SLCW.N_SETS# = 1;
      141     2426    3                   IPT_MOD.V.FL_SL_LIST.RVA_OFFSET#(0) = POFFW(ADDR(PARAM2),ADDR(RVA));
      142     2427    3                   END;
      143     2428                %CLIMB(FCN=MOD);
      144     2442    2           IPT_MOD.V.SLCW.N_SETS# = 0;
      145     2443    2           IPT_MOD.V.MCW.MC_BIT1# = '0'B;
      146     2444    2           END;
      147     2445    2       ELSE DO;
      148     2446                %CLIMB(FCN=MOD);
PL6.E3A0      #001=ZIA$IDS_INT File=ZIA$IDS_INT_USER.:ZIC0TSI                    FRI 09/05/97 11:34 Page:5
      149     2460    2           END;
      150     2461    1       RETURN;
      151     2462    1   ZIA$STORE:
      152     2463    1       ENTRY (PARAM1);
      153     2464    1       IF PARAM1 <0
      154     2465    1       THEN IPT_STO.V.RC.RC_OFFSET# = - PARAM1;
      155     2466    1       ELSE IPT_STO.V.RC.RC_OFFSET# = POFFW(ADDR(PARAM1),ADDR(RVA));
      156     2467            %CLIMB(FCN=STO);
      157     2481    1       RETURN;
      158     2482    1   ZIA$FIND_CALC:
      159     2483    1       ENTRY (PARAM1);
      160     2484        %EJECT;
PL6.E3A0      #001=ZIA$IDS_INT File=ZIA$IDS_INT_USER.:ZIC0TSI                    FRI 09/05/97 11:34 Page:6
      161     2485    1       IF PARAM1 < 0
      162     2486    1       THEN IPT_FDC.V.RC.RC_OFFSET# = - PARAM1;
      163     2487    1       ELSE IPT_FDC.V.RC.RC_OFFSET# = POFFW(ADDR(PARAM1),ADDR(RVA));
      164     2488            %CLIMB(FCN=FDC);
      165     2502    1       RETURN;
      166     2503    1   ZIA$FIND_TYPE:
      167     2504    1       ENTRY (PARAM1);
      168     2505        /*
      169     2506              FIND CURRENT OF RECORD TYPE.
      170     2507            note:
      171     2508                 none of the retention list for set are implemented
      172     2509                 for the calls of find current of type.
      173     2510        */
      174     2511    1       IF PARAM1 < 0
      175     2512    1       THEN IPT_FCT.V.RC.RC_OFFSET# = - PARAM1;
      176     2513    1       ELSE IPT_FCT.V.RC.RC_OFFSET# = POFFW(ADDR(PARAM1),ADDR(RVA));
      177     2514            %CLIMB(FCN=FCT);
      178     2528    1       RETURN;
      179     2529    1   ZIA$CONNECT:
      180     2530    1       ENTRY(PARAM1);
      181     2531        /*
      182     2532              PARAM 1 - Is the rva offset for the set to connect up
      183     2533                         from the the current of run on both the owner
      184     2534                         and the member.
      185     2535        */
      186     2536    1       IF PARAM1 < 0
      187     2537    1       THEN IPT_CON.V.SC.SC_OFFSET# = - PARAM1;
      188     2538    1       ELSE IPT_CON.V.SC.SC_OFFSET# = POFFW(ADDR(PARAM1),ADDR(RVA));
      189     2539    1       IPT_CON.V.RC.RC_OFFSET# = POFFW(ADDR(RVA.NULL),ADDR(RVA));
      190     2540            %CLIMB(FCN=CON);
      191     2554    1       RETURN;
      192     2555    1   ZIA$DISCONN:
      193     2556    1       ENTRY(PARAM1);
      194     2557        /*
      195     2558              PARAM 1 - Is the rva offset for the set to disconnect up
      196     2559                         from the the current of run on both the owner
      197     2560                         and the member.
PL6.E3A0      #001=ZIA$IDS_INT File=ZIA$IDS_INT_USER.:ZIC0TSI                    FRI 09/05/97 11:34 Page:7
      198     2561        */
      199     2562    1       IF PARAM1 < 0
      200     2563    1       THEN IPT_DIS.V.SC.SC_OFFSET# = - PARAM1;
      201     2564    1       ELSE IPT_DIS.V.SC.SC_OFFSET# = POFFW(ADDR(PARAM1),ADDR(RVA));
      202     2565    1       IPT_DIS.V.RC.RC_OFFSET# = POFFW(ADDR(RVA.NULL),ADDR(RVA));
      203     2566            %CLIMB(FCN=DIS);
      204     2580    1       RETURN;
      205     2581    1   ZIA$ERASE:
      206     2582    1       ENTRY(PARAM1);
      207     2583        /*
      208     2584              PARAM 1 - Is the rva offset for the set to disconnect up
      209     2585                         from the the current of run on both the owner
      210     2586                         and the member.
      211     2587        */
      212     2588    1       IF PARAM1 < 0
      213     2589    1       THEN IPT_ERS.V.RC.RC_OFFSET# = - PARAM1;
      214     2590    1       ELSE IPT_ERS.V.RC.RC_OFFSET# = POFFW(ADDR(PARAM1),ADDR(RVA));
      215     2591            %CLIMB(FCN=ERS);
      216     2605    1       RETURN;
      217     2606    1   ZIA$ACC:
      218     2607    1       ENTRY(PARAM1,PARAM2,PARAM3);
      219     2608    1       IPT_ACC.DBK_ = VECTOR(PARAM3);
      220     2609    1       IF PARAM1 < 0
      221     2610    1       THEN IPT_ACC.V.RVA_ITEM.OFFSET# = - PARAM1;
      222     2611    1       ELSE IPT_ACC.V.RVA_ITEM.OFFSET# = POFFW(ADDR(PARAM1),ADDR(RVA));
      223     2612    1       IPT_ACC.V.CCW.SCI# = CCW;
      224     2613            %CLIMB(FCN=ACC);
      225     2627    1       RETURN;
      226     2628    1   ZIA$SHAREALL:
      227     2629    1       ENTRY;
      228     2630            %CLIMB(FCN=SHALL,PARAMS=0);
      229     2644    1       RETURN;
      230     2645    1   ZIA$SHAREIN:
      231     2646    1       ENTRY;
      232     2647            %CLIMB(FCN=SHIN,PARAMS=0);
      233     2661    1       RETURN;
      234     2662    1   ZIA$NOSHARE:
PL6.E3A0      #001=ZIA$IDS_INT File=ZIA$IDS_INT_USER.:ZIC0TSI                    FRI 09/05/97 11:34 Page:8
      235     2663    1       ENTRY;
      236     2664            %CLIMB(FCN=SHNO,PARAMS=0);
      237     2678    1       RETURN;
      238     2679    1   END ZIA$IDS_INT;

PL6.E3A0      #001=ZIA$IDS_INT File=ZIA$IDS_INT_USER.:ZIC0TSI                    FRI 09/05/97 11:34 Page:9
--  Include file information  --

   ZI_DBCS.:ZIC0TOU  is referenced.
   ZI_SUB4_CAN.:ZIC0TOU  is referenced.
   B$JIT_C.:E05TOU  was found in the system file and is never referenced.
   CP_6_C.:E05TOU  was found in the system file and is never referenced.
      No diagnostics issued in procedure ZIA$IDS_INT.

   Procedure ZIA$IDS_INT requires 688 words for executable code.
   Procedure ZIA$IDS_INT requires 8 words of local(AUTO) storage.

    No errors detected in file ZIA$IDS_INT_USER.:ZIC0TSI    .

PL6.E3A0      #001=ZIA$IDS_INT File=ZIA$IDS_INT_USER.:ZIC0TSI                    FRI 09/05/97 11:34 Page:10

 Object Unit name= ZIA$IDS_INT                                File name= ZIA$IDS_INT_USER.:ZIC0TOU
 UTS= SEP 05 '97 11:34:14.80 FRI                              Compiler= PL-6/E31         Sev=      00
 SharedLib= :SHARED_SYSTEM                                    Alt SharedLib=


    ****  Control sections  ****

 Sect   Type Bound  Init  Size OctSiz  Section name(segment info)
    0  LblCom even  none   106    152  RVA
    1  LblCom even  none   656   1220  UWA
    2  LblCom even  none    46     56  IA
    3  LblCom even  none     4      4  USE_PROC
    4  LblCom even  none     1      1  BUFALOC
    5  LblCom even  none     1      1  CCW
    6   Data  even  none   252    374  ZIA$IDS_INT
    7   Proc  even  none   688   1260  ZIA$IDS_INT
    8  RoData even  none    27     33  ZIA$IDS_INT

    ****  Entry defs  ****

                              Check   Calling
                             calling  sequence
  Sect OctLoc Primary Altret sequence   type   Parms  Name
     7      0   yes            yes      Std        3  ZIA$IDS_INT
     7      3                  yes      Std        0  ZIA$HIA
     7     12                  yes      Std        1  ZIA$READY
     7     31                  yes      Std        1  ZIA$INA
     7     50                  yes      Std        3  ZIA$FDR
     7    133                  yes      Std        3  ZIA$FRS
     7    250                  yes      Std        3  ZIA$FRI
     7    365                  yes      Std        1  ZIA$FOR
     7    425                  yes      Std        1  ZIA$GET
     7    505                  yes      Std        1  ZIA$NBUFFERS
     7    521                  yes      Std        1  ZIA$FINISH
     7    550                  yes      Std        2  ZIA$MODIFY
     7    651                  yes      Std        1  ZIA$STORE
     7    711                  yes      Std        1  ZIA$FIND_CALC
PL6.E3A0      #001=ZIA$IDS_INT File=ZIA$IDS_INT_USER.:ZIC0TSI                    FRI 09/05/97 11:34 Page:11
     7    751                  yes      Std        1  ZIA$FIND_TYPE
     7   1011                  yes      Std        1  ZIA$CONNECT
     7   1061                  yes      Std        1  ZIA$DISCONN
     7   1131                  yes      Std        1  ZIA$ERASE
     7   1171                  yes      Std        3  ZIA$ACC
     7   1236                  yes      Std        0  ZIA$SHAREALL
     7   1244                  yes      Std        0  ZIA$SHAREIN
     7   1252                  yes      Std        0  ZIA$NOSHARE

  ****  Entry refs  ****

         Check        Calling
        calling       sequence
Altret sequence SRef   type   Args  Name
         yes           Std       1 U$HIA
         yes           Std       1 U$FRS
         yes           Std       1 U$CON
         yes           Std       0 U$SHIN
         yes           Std       1 U$ACC
         yes           Std       1 U$FRI
         yes           Std       1 U$GET
         yes           Std       1 U$NBF
         yes           Std       1 U$MOD
         yes           Std       0 U$SHNO
         yes           Std       1 U$RDY
         yes           Std       1 U$FOR
         yes           Std       1 U$FDC
         yes           Std       1 U$ERS
         yes           Std       1 U$INA
         yes           Std       1 U$FDR
         yes           Std       1 U$FIN
         yes           Std       1 U$FCT
         yes           Std       1 U$DIS
         yes           Std       1 U$STO
         yes           Std       0 U$SHALL
                       nStd      0 X66_AUTO_3
                       nStd      0 X66_ARET
PL6.E3A0      #001=ZIA$IDS_INT File=ZIA$IDS_INT_USER.:ZIC0TSI                    FRI 09/05/97 11:34 Page:12

  ****  Segment refs  ****

  Flags:  r = read only, s = secondary
Flgs Name                             Flgs Name                             Flgs Name
     ISSID                                 NULLSID
PL6.E3A0      #001=ZIA$IDS_INT File=ZIA$IDS_INT_USER.:ZIC0TSI                    FRI 09/05/97 11:34 Page:13


        1        1        /*M*     ZIA$IDS_INT    I-D-S/II       DBACS */
        2        2        /*T***********************************************************/
        3        3        /*T*                                                         */
        4        4        /*T* Copyright (c) Bull HN Information Systems Inc., 1997    */
        5        5        /*T*                                                         */
        6        6        /*T***********************************************************/
        7        7        /*P*
        8        8        NAME:
        9        9        PURPOSE:
       10       10                 TO HANDLE ALL THE IDS INTERFACE SUBROUTINES
       11       11        */
       12       12        ZIA$IDS_INT: PROC (PARAM1,PARAM2,PARAM3);

     12  7 000000   000000 700200 xent  ZIA$IDS_INT  TSX0  ! X66_AUTO_3
         7 000001   000010 000003                    ZERO    8,3
         7 000002   000005 710000 7                  TRA     s:2212

       13       13        %INCLUDE ZI_SUB4_CAN;
       14      670        %RVA;
       15      947        %UWA;
       16     1282        %IA;
       17     1298        %USE_PROC;
       18     1306        %INCLUDE ZI_DBCS;
       19     1919        %USER;
       20     1930    1   DCL PARAM1 SBIN (18) HALIGNED;
       21     1931    1   DCL PARAM2 SBIN (18) HALIGNED;
       22     1932    1   DCL PARAM3 SBIN (36) HALIGNED;
       23     1933    1   DCL WORD36 SBIN (36) BASED;
       24     1934    1   DCL BUFALOC UBIN (36) EXT;
       25     1935    1   DCL CCW UBIN (36) EXT UNAL;
       26     1936        %IPT_ACC(IAN=IA,UWAN=UWA,RVAN=RVA,USEPN=USE_PROC);
       27     1949        %IPT_CON(IAN=IA,UWAN=UWA,RVAN=RVA,USEPN=USE_PROC);
       28     1962        %IPT_IST(IAN=IA,UWAN=UWA,RVAN=RVA,USEPN=USE_PROC);
       29     1975        %IPT_DIS(IAN=IA,UWAN=UWA,RVAN=RVA,USEPN=USE_PROC);
       30     1988        %IPT_ERS(IAN=IA,UWAN=UWA,RVAN=RVA,USEPN=USE_PROC,EC_BIT='1'B);
       31     2000        %IPT_HIA (IAN=IA,UWAN=UWA,RVAN=RVA,USEPN=USE_PROC);
PL6.E3A0      #001=ZIA$IDS_INT File=ZIA$IDS_INT_USER.:ZIC0TSI                    FRI 09/05/97 11:34 Page:14
       32     2011        %IPT_RDY (IAN=IA,UWAN=UWA,RVAN=RVA,USEPN=USE_PROC,READY_OPTION=UPDATE,
       33     2012         AREAS_TO_READY=1);
       34     2026        %IPT_INA (IAN=IA,UWAN=UWA,RVAN=RVA,USEPN=USE_PROC,READY_OPTION=UPDATE,
       35     2027         AREAS_TO_READY=1);
       36     2041        %IPT_FDR (IAN=IA,UWAN=UWA,RVAN=RVA,USEPN=USE_PROC);
       37     2057        %IPT_FRS (IAN=IA,UWAN=UWA,RVAN=RVA,USEPN=USE_PROC);
       38     2074        %IPT_FRI (IAN=IA,UWAN=UWA,RVAN=RVA,USEPN=USE_PROC);
       39     2091        %IPT_FOR (IAN=IA,UWAN=UWA,RVAN=RVA,USEPN=USE_PROC);
       40     2106        %IPT_GET (IAN=IA,UWAN=UWA,RVAN=RVA,USEPN=USE_PROC);
       41     2118        %IPT_NBF;
       42     2128        %IPT_FIN (IAN=IA,UWAN=UWA,RVAN=RVA,USEPN=USE_PROC,
       43     2129         AREAS_TO_READY=1);
       44     2142        %IPT_MOD(IAN=IA,UWAN=UWA,RVAN=RVA,USEPN=USE_PROC);
       45     2158        %IPT_STO(IAN=IA,UWAN=UWA,RVAN=RVA,USEPN=USE_PROC);
       46     2173        %IPT_FDC(IAN=IA,UWAN=UWA,RVAN=RVA,USEPN=USE_PROC);
       47     2188        %IPT_FCT(IAN=IA,UWAN=UWA,RVAN=RVA,USEPN=USE_PROC);
       48     2203    1   ZIA$HIA: ENTRY;

   2203  7 000003   000000 700200 xent  ZIA$HIA      TSX0  ! X66_AUTO_3
         7 000004   000010 000003                    ZERO    8,3

       49     2204            %CLIMB(FCN=HIA);

   2212  7 000005   000001 630400 8                  EPPR0   1
         7 000006   000000 631400 8                  EPPR1   0
         7 000007   000000 701000 xent               TSX1    U$HIA
         7 000010   000000 011000                    NOP     0

       50     2218    1       RETURN;

   2218  7 000011   000000 702200 xent               TSX2  ! X66_ARET

       51     2219    1   ZIA$READY: ENTRY (PARAM1);

   2219  7 000012   000000 700200 xent  ZIA$READY    TSX0  ! X66_AUTO_3
         7 000013   000010 000003                    ZERO    8,3

PL6.E3A0      #001=ZIA$IDS_INT File=ZIA$IDS_INT_USER.:ZIC0TSI                    FRI 09/05/97 11:34 Page:15
       52     2220    1       IPT_RDY.V.AC_OFFSETS.RVA_OFFSET#(0) = POFFW(ADDR(PARAM1),ADDR(RVA));

   2220  7 000014   000002 236000 8                  LDQ     2
         7 000015   000022 772000                    QRL     18
         7 000016   200006 756100                    STQ     @PARAM3+1,,AUTO
         7 000017   200003 236100                    LDQ     @PARAM1,,AUTO
         7 000020   000022 772000                    QRL     18
         7 000021   200006 136100                    SBLQ    @PARAM3+1,,AUTO
         7 000022   000000 620006                    EAX0    0,QL
         7 000023   000125 740000 6                  STX0    IPT_RDY+11

       53     2221            %CLIMB(FCN=RDY);

   2229  7 000024   000003 630400 8                  EPPR0   3
         7 000025   000000 631400 8                  EPPR1   0
         7 000026   000000 701000 xent               TSX1    U$RDY
         7 000027   000000 011000                    NOP     0

       54     2235    1       RETURN;

   2235  7 000030   000000 702200 xent               TSX2  ! X66_ARET

       55     2236    1   ZIA$INA: ENTRY (PARAM1);

   2236  7 000031   000000 700200 xent  ZIA$INA      TSX0  ! X66_AUTO_3
         7 000032   000010 000003                    ZERO    8,3

       56     2237    1       IPT_INA.V.AC_OFFSETS.RVA_OFFSET#(0) = POFFW(ADDR(PARAM1),ADDR(RVA));

   2237  7 000033   000002 236000 8                  LDQ     2
         7 000034   000022 772000                    QRL     18
         7 000035   200006 756100                    STQ     @PARAM3+1,,AUTO
         7 000036   200003 236100                    LDQ     @PARAM1,,AUTO
         7 000037   000022 772000                    QRL     18
         7 000040   200006 136100                    SBLQ    @PARAM3+1,,AUTO
         7 000041   000000 620006                    EAX0    0,QL
         7 000042   000143 740000 6                  STX0    IPT_INA+11
PL6.E3A0      #001=ZIA$IDS_INT File=ZIA$IDS_INT_USER.:ZIC0TSI                    FRI 09/05/97 11:34 Page:16

       57     2238            %CLIMB(FCN=INA);

   2246  7 000043   000004 630400 8                  EPPR0   4
         7 000044   000000 631400 8                  EPPR1   0
         7 000045   000000 701000 xent               TSX1    U$INA
         7 000046   000000 011000                    NOP     0

       58     2252    1       RETURN;

   2252  7 000047   000000 702200 xent               TSX2  ! X66_ARET

       59     2253    1   ZIA$FDR: ENTRY(PARAM1,PARAM2,PARAM3);

   2253  7 000050   000000 700200 xent  ZIA$FDR      TSX0  ! X66_AUTO_3
         7 000051   000010 000003                    ZERO    8,3

       60     2254    1       IF PARAM1 < 0

   2254  7 000052   200003 470500                    LDP0    @PARAM1,,AUTO
         7 000053   000100 100500                    MLR     fill='000'O
         7 000054   000000 000002                    ADSC9   0,,PR0                   cn=0,n=2
         7 000055   200006 000004                    ADSC9   @PARAM3+1,,AUTO          cn=0,n=4
         7 000056   200006 236100                    LDQ     @PARAM3+1,,AUTO
         7 000057   000022 732000                    QRS     18
         7 000060   000000 116003                    CMPQ    0,DU
         7 000061   000073 605000 7                  TPL     s:2256

       61     2255    1       THEN IPT_FDR.V.RC.RC_OFFSET# = - PARAM1;

   2255  7 000062   000100 100500                    MLR     fill='000'O
         7 000063   000000 000002                    ADSC9   0,,PR0                   cn=0,n=2
         7 000064   200006 000004                    ADSC9   @PARAM3+1,,AUTO          cn=0,n=4
         7 000065   200006 236100                    LDQ     @PARAM3+1,,AUTO
         7 000066   000022 732000                    QRS     18
         7 000067   777777 620006                    EAX0    -1,QL
         7 000070   777777 660003                    ERX0    -1,DU
PL6.E3A0      #001=ZIA$IDS_INT File=ZIA$IDS_INT_USER.:ZIC0TSI                    FRI 09/05/97 11:34 Page:17
         7 000071   000162 740000 6                  STX0    IPT_FDR+12
         7 000072   000123 710000 7                  TRA     s:2259

       62     2256    1       ELSE IF PARAM1 = 0

   2256  7 000073   000100 100500                    MLR     fill='000'O
         7 000074   000000 000002                    ADSC9   0,,PR0                   cn=0,n=2
         7 000075   200006 000004                    ADSC9   @PARAM3+1,,AUTO          cn=0,n=4
         7 000076   200006 236100                    LDQ     @PARAM3+1,,AUTO
         7 000077   000022 732000                    QRS     18
         7 000100   000000 116003                    CMPQ    0,DU
         7 000101   000113 601000 7                  TNZ     s:2258

       63     2257    1           THEN IPT_FDR.V.RC.RC_OFFSET# = POFFW(ADDR(RVA.NULL),ADDR(RVA));

   2257  7 000102   000002 236000 8                  LDQ     2
         7 000103   000022 772000                    QRL     18
         7 000104   200006 756100                    STQ     @PARAM3+1,,AUTO
         7 000105   000005 236000 8                  LDQ     5
         7 000106   000022 772000                    QRL     18
         7 000107   200006 136100                    SBLQ    @PARAM3+1,,AUTO
         7 000110   000000 620006                    EAX0    0,QL
         7 000111   000162 740000 6                  STX0    IPT_FDR+12
         7 000112   000123 710000 7                  TRA     s:2259

       64     2258    1           ELSE IPT_FDR.V.RC.RC_OFFSET#=POFFW(ADDR(PARAM1),ADDR(RVA));

   2258  7 000113   000002 236000 8                  LDQ     2
         7 000114   000022 772000                    QRL     18
         7 000115   200006 756100                    STQ     @PARAM3+1,,AUTO
         7 000116   200003 236100                    LDQ     @PARAM1,,AUTO
         7 000117   000022 772000                    QRL     18
         7 000120   200006 136100                    SBLQ    @PARAM3+1,,AUTO
         7 000121   000000 620006                    EAX0    0,QL
         7 000122   000162 740000 6                  STX0    IPT_FDR+12

       65     2259    1       IPT_FDR.DBK_=VECTOR(PARAM3);
PL6.E3A0      #001=ZIA$IDS_INT File=ZIA$IDS_INT_USER.:ZIC0TSI                    FRI 09/05/97 11:34 Page:18

   2259  7 000123   777640 235007                    LDA     -96,DL
         7 000124   200005 236100                    LDQ     @PARAM3,,AUTO
         7 000125   000160 757000 6                  STAQ    IPT_FDR+10

       66     2260            %CLIMB(FCN=FDR);

   2268  7 000126   000006 630400 8                  EPPR0   6
         7 000127   000000 631400 8                  EPPR1   0
         7 000130   000000 701000 xent               TSX1    U$FDR
         7 000131   000000 011000                    NOP     0

       67     2274    1       RETURN;

   2274  7 000132   000000 702200 xent               TSX2  ! X66_ARET

       68     2275    1   ZIA$FRS: ENTRY(PARAM1,PARAM2,PARAM3);

   2275  7 000133   000000 700200 xent  ZIA$FRS      TSX0  ! X66_AUTO_3
         7 000134   000010 000003                    ZERO    8,3

       69     2276    1       IF PARAM1 = 0 THEN

   2276  7 000135   200003 470500                    LDP0    @PARAM1,,AUTO
         7 000136   000100 100500                    MLR     fill='000'O
         7 000137   000000 000002                    ADSC9   0,,PR0                   cn=0,n=2
         7 000140   200006 000004                    ADSC9   @PARAM3+1,,AUTO          cn=0,n=4
         7 000141   200006 236100                    LDQ     @PARAM3+1,,AUTO
         7 000142   000022 732000                    QRS     18
         7 000143   000000 116003                    CMPQ    0,DU
         7 000144   000156 601000 7                  TNZ     s:2279

       70     2277    1           IPT_FRS.V.RC.RC_OFFSET# = POFFW(ADDR(RVA.NULL),ADDR(RVA));

   2277  7 000145   000002 236000 8                  LDQ     2
         7 000146   000022 772000                    QRL     18
         7 000147   200006 756100                    STQ     @PARAM3+1,,AUTO
PL6.E3A0      #001=ZIA$IDS_INT File=ZIA$IDS_INT_USER.:ZIC0TSI                    FRI 09/05/97 11:34 Page:19
         7 000150   000005 236000 8                  LDQ     5
         7 000151   000022 772000                    QRL     18
         7 000152   200006 136100                    SBLQ    @PARAM3+1,,AUTO
         7 000153   000000 620006                    EAX0    0,QL
         7 000154   000201 740000 6                  STX0    IPT_FRS+11
         7 000155   000206 710000 7                  TRA     s:2283

       71     2278    1       ELSE
       72     2279    1           IF PARAM1 < 0

   2279  7 000156   000100 100500                    MLR     fill='000'O
         7 000157   000000 000002                    ADSC9   0,,PR0                   cn=0,n=2
         7 000160   200006 000004                    ADSC9   @PARAM3+1,,AUTO          cn=0,n=4
         7 000161   200006 236100                    LDQ     @PARAM3+1,,AUTO
         7 000162   000022 732000                    QRS     18
         7 000163   000000 116003                    CMPQ    0,DU
         7 000164   000176 605000 7                  TPL     s:2282

       73     2280    1           THEN IPT_FRS.V.RC.RC_OFFSET# = - PARAM1;

   2280  7 000165   000100 100500                    MLR     fill='000'O
         7 000166   000000 000002                    ADSC9   0,,PR0                   cn=0,n=2
         7 000167   200006 000004                    ADSC9   @PARAM3+1,,AUTO          cn=0,n=4
         7 000170   200006 236100                    LDQ     @PARAM3+1,,AUTO
         7 000171   000022 732000                    QRS     18
         7 000172   777777 620006                    EAX0    -1,QL
         7 000173   777777 660003                    ERX0    -1,DU
         7 000174   000201 740000 6                  STX0    IPT_FRS+11
         7 000175   000206 710000 7                  TRA     s:2283

       74     2281    1           ELSE
       75     2282    1               IPT_FRS.V.RC.RC_OFFSET#=POFFW(ADDR(PARAM1),ADDR(RVA));

   2282  7 000176   000002 236000 8                  LDQ     2
         7 000177   000022 772000                    QRL     18
         7 000200   200006 756100                    STQ     @PARAM3+1,,AUTO
         7 000201   200003 236100                    LDQ     @PARAM1,,AUTO
PL6.E3A0      #001=ZIA$IDS_INT File=ZIA$IDS_INT_USER.:ZIC0TSI                    FRI 09/05/97 11:34 Page:20
         7 000202   000022 772000                    QRL     18
         7 000203   200006 136100                    SBLQ    @PARAM3+1,,AUTO
         7 000204   000000 620006                    EAX0    0,QL
         7 000205   000201 740000 6                  STX0    IPT_FRS+11

       76     2283    1       IF PARAM2 < 0

   2283  7 000206   200004 471500                    LDP1    @PARAM2,,AUTO
         7 000207   000100 100500                    MLR     fill='000'O
         7 000210   100000 000002                    ADSC9   0,,PR1                   cn=0,n=2
         7 000211   200006 000004                    ADSC9   @PARAM3+1,,AUTO          cn=0,n=4
         7 000212   200006 236100                    LDQ     @PARAM3+1,,AUTO
         7 000213   000022 732000                    QRS     18
         7 000214   000000 116003                    CMPQ    0,DU
         7 000215   000227 605000 7                  TPL     s:2285

       77     2284    1       THEN IPT_FRS.V.SC.SC_OFFSET# = - PARAM2;

   2284  7 000216   000100 100500                    MLR     fill='000'O
         7 000217   100000 000002                    ADSC9   0,,PR1                   cn=0,n=2
         7 000220   200006 000004                    ADSC9   @PARAM3+1,,AUTO          cn=0,n=4
         7 000221   200006 236100                    LDQ     @PARAM3+1,,AUTO
         7 000222   000022 732000                    QRS     18
         7 000223   777777 621006                    EAX1    -1,QL
         7 000224   777777 661003                    ERX1    -1,DU
         7 000225   000202 741000 6                  STX1    IPT_FRS+12
         7 000226   000237 710000 7                  TRA     s:2286

       78     2285    1       ELSE IPT_FRS.V.SC.SC_OFFSET#=POFFW(ADDR(PARAM2),ADDR(RVA));

   2285  7 000227   000002 236000 8                  LDQ     2
         7 000230   000022 772000                    QRL     18
         7 000231   200006 756100                    STQ     @PARAM3+1,,AUTO
         7 000232   200004 236100                    LDQ     @PARAM2,,AUTO
         7 000233   000022 772000                    QRL     18
         7 000234   200006 136100                    SBLQ    @PARAM3+1,,AUTO
         7 000235   000000 621006                    EAX1    0,QL
PL6.E3A0      #001=ZIA$IDS_INT File=ZIA$IDS_INT_USER.:ZIC0TSI                    FRI 09/05/97 11:34 Page:21
         7 000236   000202 741000 6                  STX1    IPT_FRS+12

       79     2286    1       IPT_FRS.V.FCW.RECORD_LOCATION# = PARAM3;

   2286  7 000237   200005 473500                    LDP3    @PARAM3,,AUTO
         7 000240   000000 101500                    MRL     fill='000'O
         7 000241   300000 000004                    ADSC9   0,,PR3                   cn=0,n=4
         7 000242   000200 000002 6                  ADSC9   IPT_FRS+10               cn=0,n=2

       80     2287            %CLIMB(FCN=FRS);

   2295  7 000243   000007 630400 8                  EPPR0   7
         7 000244   000000 631400 8                  EPPR1   0
         7 000245   000000 701000 xent               TSX1    U$FRS
         7 000246   000000 011000                    NOP     0

       81     2301    1       RETURN;

   2301  7 000247   000000 702200 xent               TSX2  ! X66_ARET

       82     2302    1   ZIA$FRI: ENTRY(PARAM1,PARAM2,PARAM3);

   2302  7 000250   000000 700200 xent  ZIA$FRI      TSX0  ! X66_AUTO_3
         7 000251   000010 000003                    ZERO    8,3

       83     2303    1       IF PARAM1 = 0 THEN

   2303  7 000252   200003 470500                    LDP0    @PARAM1,,AUTO
         7 000253   000100 100500                    MLR     fill='000'O
         7 000254   000000 000002                    ADSC9   0,,PR0                   cn=0,n=2
         7 000255   200006 000004                    ADSC9   @PARAM3+1,,AUTO          cn=0,n=4
         7 000256   200006 236100                    LDQ     @PARAM3+1,,AUTO
         7 000257   000022 732000                    QRS     18
         7 000260   000000 116003                    CMPQ    0,DU
         7 000261   000273 601000 7                  TNZ     s:2305

       84     2304    1           IPT_FRI.V.RC.RC_OFFSET# = POFFW(ADDR(RVA.NULL),ADDR(RVA));
PL6.E3A0      #001=ZIA$IDS_INT File=ZIA$IDS_INT_USER.:ZIC0TSI                    FRI 09/05/97 11:34 Page:22

   2304  7 000262   000002 236000 8                  LDQ     2
         7 000263   000022 772000                    QRL     18
         7 000264   200006 756100                    STQ     @PARAM3+1,,AUTO
         7 000265   000005 236000 8                  LDQ     5
         7 000266   000022 772000                    QRL     18
         7 000267   200006 136100                    SBLQ    @PARAM3+1,,AUTO
         7 000270   000000 620006                    EAX0    0,QL
         7 000271   000221 740000 6                  STX0    IPT_FRI+11
         7 000272   000323 710000 7                  TRA     s:2308

       85     2305    1       ELSE IF PARAM1 < 0

   2305  7 000273   000100 100500                    MLR     fill='000'O
         7 000274   000000 000002                    ADSC9   0,,PR0                   cn=0,n=2
         7 000275   200006 000004                    ADSC9   @PARAM3+1,,AUTO          cn=0,n=4
         7 000276   200006 236100                    LDQ     @PARAM3+1,,AUTO
         7 000277   000022 732000                    QRS     18
         7 000300   000000 116003                    CMPQ    0,DU
         7 000301   000313 605000 7                  TPL     s:2307

       86     2306    1           THEN IPT_FRI.V.RC.RC_OFFSET# = - PARAM1;

   2306  7 000302   000100 100500                    MLR     fill='000'O
         7 000303   000000 000002                    ADSC9   0,,PR0                   cn=0,n=2
         7 000304   200006 000004                    ADSC9   @PARAM3+1,,AUTO          cn=0,n=4
         7 000305   200006 236100                    LDQ     @PARAM3+1,,AUTO
         7 000306   000022 732000                    QRS     18
         7 000307   777777 620006                    EAX0    -1,QL
         7 000310   777777 660003                    ERX0    -1,DU
         7 000311   000221 740000 6                  STX0    IPT_FRI+11
         7 000312   000323 710000 7                  TRA     s:2308

       87     2307    1           ELSE IPT_FRI.V.RC.RC_OFFSET#=POFFW(ADDR(PARAM1),ADDR(RVA));

   2307  7 000313   000002 236000 8                  LDQ     2
         7 000314   000022 772000                    QRL     18
PL6.E3A0      #001=ZIA$IDS_INT File=ZIA$IDS_INT_USER.:ZIC0TSI                    FRI 09/05/97 11:34 Page:23
         7 000315   200006 756100                    STQ     @PARAM3+1,,AUTO
         7 000316   200003 236100                    LDQ     @PARAM1,,AUTO
         7 000317   000022 772000                    QRL     18
         7 000320   200006 136100                    SBLQ    @PARAM3+1,,AUTO
         7 000321   000000 620006                    EAX0    0,QL
         7 000322   000221 740000 6                  STX0    IPT_FRI+11

       88     2308    1       IF PARAM2 < 0

   2308  7 000323   200004 471500                    LDP1    @PARAM2,,AUTO
         7 000324   000100 100500                    MLR     fill='000'O
         7 000325   100000 000002                    ADSC9   0,,PR1                   cn=0,n=2
         7 000326   200006 000004                    ADSC9   @PARAM3+1,,AUTO          cn=0,n=4
         7 000327   200006 236100                    LDQ     @PARAM3+1,,AUTO
         7 000330   000022 732000                    QRS     18
         7 000331   000000 116003                    CMPQ    0,DU
         7 000332   000344 605000 7                  TPL     s:2310

       89     2309    1       THEN IPT_FRI.V.SC.SC_OFFSET# = - PARAM2;

   2309  7 000333   000100 100500                    MLR     fill='000'O
         7 000334   100000 000002                    ADSC9   0,,PR1                   cn=0,n=2
         7 000335   200006 000004                    ADSC9   @PARAM3+1,,AUTO          cn=0,n=4
         7 000336   200006 236100                    LDQ     @PARAM3+1,,AUTO
         7 000337   000022 732000                    QRS     18
         7 000340   777777 621006                    EAX1    -1,QL
         7 000341   777777 661003                    ERX1    -1,DU
         7 000342   000222 741000 6                  STX1    IPT_FRI+12
         7 000343   000354 710000 7                  TRA     s:2311

       90     2310    1       ELSE IPT_FRI.V.SC.SC_OFFSET#=POFFW(ADDR(PARAM2),ADDR(RVA));

   2310  7 000344   000002 236000 8                  LDQ     2
         7 000345   000022 772000                    QRL     18
         7 000346   200006 756100                    STQ     @PARAM3+1,,AUTO
         7 000347   200004 236100                    LDQ     @PARAM2,,AUTO
         7 000350   000022 772000                    QRL     18
PL6.E3A0      #001=ZIA$IDS_INT File=ZIA$IDS_INT_USER.:ZIC0TSI                    FRI 09/05/97 11:34 Page:24
         7 000351   200006 136100                    SBLQ    @PARAM3+1,,AUTO
         7 000352   000000 621006                    EAX1    0,QL
         7 000353   000222 741000 6                  STX1    IPT_FRI+12

       91     2311    1       IPT_FRI.V.FCW.RECORD_LOCATION# = PARAM3;

   2311  7 000354   200005 473500                    LDP3    @PARAM3,,AUTO
         7 000355   000000 101500                    MRL     fill='000'O
         7 000356   300000 000004                    ADSC9   0,,PR3                   cn=0,n=4
         7 000357   000220 000002 6                  ADSC9   IPT_FRI+10               cn=0,n=2

       92     2312            %CLIMB(FCN=FRI);

   2320  7 000360   000010 630400 8                  EPPR0   8
         7 000361   000000 631400 8                  EPPR1   0
         7 000362   000000 701000 xent               TSX1    U$FRI
         7 000363   000000 011000                    NOP     0

       93     2326    1       RETURN;

   2326  7 000364   000000 702200 xent               TSX2  ! X66_ARET

       94     2327    1   ZIA$FOR: ENTRY (PARAM1);

   2327  7 000365   000000 700200 xent  ZIA$FOR      TSX0  ! X66_AUTO_3
         7 000366   000010 000003                    ZERO    8,3

       95     2328    1       IF PARAM1 < 0

   2328  7 000367   200003 470500                    LDP0    @PARAM1,,AUTO
         7 000370   000100 100500                    MLR     fill='000'O
         7 000371   000000 000002                    ADSC9   0,,PR0                   cn=0,n=2
         7 000372   200006 000004                    ADSC9   @PARAM3+1,,AUTO          cn=0,n=4
         7 000373   200006 236100                    LDQ     @PARAM3+1,,AUTO
         7 000374   000022 732000                    QRS     18
         7 000375   000000 116003                    CMPQ    0,DU
         7 000376   000410 605000 7                  TPL     s:2330
PL6.E3A0      #001=ZIA$IDS_INT File=ZIA$IDS_INT_USER.:ZIC0TSI                    FRI 09/05/97 11:34 Page:25

       96     2329    1       THEN IPT_FOR.V.SC.SC_OFFSET# = - PARAM1;

   2329  7 000377   000100 100500                    MLR     fill='000'O
         7 000400   000000 000002                    ADSC9   0,,PR0                   cn=0,n=2
         7 000401   200006 000004                    ADSC9   @PARAM3+1,,AUTO          cn=0,n=4
         7 000402   200006 236100                    LDQ     @PARAM3+1,,AUTO
         7 000403   000022 732000                    QRS     18
         7 000404   777777 620006                    EAX0    -1,QL
         7 000405   777777 660003                    ERX0    -1,DU
         7 000406   000240 740000 6                  STX0    IPT_FOR+10
         7 000407   000420 710000 7                  TRA     s:2339

       97     2330    1       ELSE IPT_FOR.V.SC.SC_OFFSET#=POFFW(ADDR(PARAM1),ADDR(RVA));

   2330  7 000410   000002 236000 8                  LDQ     2
         7 000411   000022 772000                    QRL     18
         7 000412   200006 756100                    STQ     @PARAM3+1,,AUTO
         7 000413   200003 236100                    LDQ     @PARAM1,,AUTO
         7 000414   000022 772000                    QRL     18
         7 000415   200006 136100                    SBLQ    @PARAM3+1,,AUTO
         7 000416   000000 620006                    EAX0    0,QL
         7 000417   000240 740000 6                  STX0    IPT_FOR+10

       98     2331            %CLIMB(FCN=FOR);

   2339  7 000420   000011 630400 8                  EPPR0   9
         7 000421   000000 631400 8                  EPPR1   0
         7 000422   000000 701000 xent               TSX1    U$FOR
         7 000423   000000 011000                    NOP     0

       99     2345    1       RETURN;

   2345  7 000424   000000 702200 xent               TSX2  ! X66_ARET

      100     2346    1   ZIA$GET: ENTRY(PARAM1);

PL6.E3A0      #001=ZIA$IDS_INT File=ZIA$IDS_INT_USER.:ZIC0TSI                    FRI 09/05/97 11:34 Page:26
   2346  7 000425   000000 700200 xent  ZIA$GET      TSX0  ! X66_AUTO_3
         7 000426   000010 000003                    ZERO    8,3

      101     2347    1       IF PARAM1 = 0 THEN

   2347  7 000427   200003 470500                    LDP0    @PARAM1,,AUTO
         7 000430   000100 100500                    MLR     fill='000'O
         7 000431   000000 000002                    ADSC9   0,,PR0                   cn=0,n=2
         7 000432   200006 000004                    ADSC9   @PARAM3+1,,AUTO          cn=0,n=4
         7 000433   200006 236100                    LDQ     @PARAM3+1,,AUTO
         7 000434   000022 732000                    QRS     18
         7 000435   000000 116003                    CMPQ    0,DU
         7 000436   000450 601000 7                  TNZ     s:2349

      102     2348    1           IPT_GET.V.RC.RC_OFFSET#=POFFW(ADDR(RVA.NULL),ADDR(RVA));

   2348  7 000437   000002 236000 8                  LDQ     2
         7 000440   000022 772000                    QRL     18
         7 000441   200006 756100                    STQ     @PARAM3+1,,AUTO
         7 000442   000005 236000 8                  LDQ     5
         7 000443   000022 772000                    QRL     18
         7 000444   200006 136100                    SBLQ    @PARAM3+1,,AUTO
         7 000445   000000 620006                    EAX0    0,QL
         7 000446   000256 740000 6                  STX0    IPT_GET+10
         7 000447   000500 710000 7                  TRA     s:2360

      103     2349    1       ELSE IF PARAM1 < 0

   2349  7 000450   000100 100500                    MLR     fill='000'O
         7 000451   000000 000002                    ADSC9   0,,PR0                   cn=0,n=2
         7 000452   200006 000004                    ADSC9   @PARAM3+1,,AUTO          cn=0,n=4
         7 000453   200006 236100                    LDQ     @PARAM3+1,,AUTO
         7 000454   000022 732000                    QRS     18
         7 000455   000000 116003                    CMPQ    0,DU
         7 000456   000470 605000 7                  TPL     s:2351

      104     2350    1           THEN IPT_GET.V.RC.RC_OFFSET# = - PARAM1;
PL6.E3A0      #001=ZIA$IDS_INT File=ZIA$IDS_INT_USER.:ZIC0TSI                    FRI 09/05/97 11:34 Page:27

   2350  7 000457   000100 100500                    MLR     fill='000'O
         7 000460   000000 000002                    ADSC9   0,,PR0                   cn=0,n=2
         7 000461   200006 000004                    ADSC9   @PARAM3+1,,AUTO          cn=0,n=4
         7 000462   200006 236100                    LDQ     @PARAM3+1,,AUTO
         7 000463   000022 732000                    QRS     18
         7 000464   777777 620006                    EAX0    -1,QL
         7 000465   777777 660003                    ERX0    -1,DU
         7 000466   000256 740000 6                  STX0    IPT_GET+10
         7 000467   000500 710000 7                  TRA     s:2360

      105     2351    1           ELSE IPT_GET.V.RC.RC_OFFSET#=POFFW(ADDR(PARAM1),ADDR(RVA));

   2351  7 000470   000002 236000 8                  LDQ     2
         7 000471   000022 772000                    QRL     18
         7 000472   200006 756100                    STQ     @PARAM3+1,,AUTO
         7 000473   200003 236100                    LDQ     @PARAM1,,AUTO
         7 000474   000022 772000                    QRL     18
         7 000475   200006 136100                    SBLQ    @PARAM3+1,,AUTO
         7 000476   000000 620006                    EAX0    0,QL
         7 000477   000256 740000 6                  STX0    IPT_GET+10

      106     2352            %CLIMB(FCN=GET);

   2360  7 000500   000012 630400 8                  EPPR0   10
         7 000501   000000 631400 8                  EPPR1   0
         7 000502   000000 701000 xent               TSX1    U$GET
         7 000503   000000 011000                    NOP     0

      107     2366    1       RETURN;

   2366  7 000504   000000 702200 xent               TSX2  ! X66_ARET

      108     2367    1   ZIA$NBUFFERS: ENTRY (PARAM1);

   2367  7 000505   000000 700200 xent  ZIA$NBUFFERS TSX0  ! X66_AUTO_3
         7 000506   000010 000003                    ZERO    8,3
PL6.E3A0      #001=ZIA$IDS_INT File=ZIA$IDS_INT_USER.:ZIC0TSI                    FRI 09/05/97 11:34 Page:28

      109     2368    1       IPT_NBF.BUFFS_REQ_ = VECTOR(ADDR(PARAM1) -> WORD36);

   2368  7 000507   777640 235007                    LDA     -96,DL
         7 000510   200003 236100                    LDQ     @PARAM1,,AUTO
         7 000511   000260 757000 6                  STAQ    IPT_NBF

      110     2369    1       IPT_NBF.BUFFS_ALLOC_ = VECTOR(BUFALOC);

   2369  7 000512   000014 237000 8                  LDAQ    12
         7 000513   000262 757000 6                  STAQ    IPT_NBF+2

      111     2370            %CLIMB(FCN=NBF);

   2378  7 000514   000016 630400 8                  EPPR0   14
         7 000515   000000 631400 8                  EPPR1   0
         7 000516   000000 701000 xent               TSX1    U$NBF
         7 000517   000000 011000                    NOP     0

      112     2384    1       RETURN;

   2384  7 000520   000000 702200 xent               TSX2  ! X66_ARET

      113     2385    1   ZIA$FINISH: ENTRY (PARAM1);

   2385  7 000521   000000 700200 xent  ZIA$FINISH   TSX0  ! X66_AUTO_3
         7 000522   000010 000003                    ZERO    8,3

      114     2386    1       IF ADDR(PARAM1) -> WORD36 = 0

   2386  7 000523   200003 470500                    LDP0    @PARAM1,,AUTO
         7 000524   000000 235100                    LDA     0,,PR0
         7 000525   000531 601000 7                  TNZ     s:2391

      115     2387    2       THEN DO;

      116     2388    2           IPT_FIN.V.ALCW.N_AREAS# = 0;
PL6.E3A0      #001=ZIA$IDS_INT File=ZIA$IDS_INT_USER.:ZIC0TSI                    FRI 09/05/97 11:34 Page:29

   2388  7 000526   000000 220003                    LDX0    0,DU
         7 000527   000276 740000 6                  STX0    IPT_FIN+10

      117     2389    2           END;

   2389  7 000530   000543 710000 7                  TRA     s:2402

      118     2390    2       ELSE DO;

      119     2391    2           IPT_FIN.V.ALCW.N_AREAS# = 1;

   2391  7 000531   000001 220003                    LDX0    1,DU
         7 000532   000276 740000 6                  STX0    IPT_FIN+10

      120     2392    2           IPT_FIN.V.AC_OFFSETS.RVA_OFFSET#(0) = POFFW(ADDR(PARAM1),ADDR(RVA));

   2392  7 000533   000002 236000 8                  LDQ     2
         7 000534   000022 772000                    QRL     18
         7 000535   200006 756100                    STQ     @PARAM3+1,,AUTO
         7 000536   200003 236100                    LDQ     @PARAM1,,AUTO
         7 000537   000022 772000                    QRL     18
         7 000540   200006 136100                    SBLQ    @PARAM3+1,,AUTO
         7 000541   000000 621006                    EAX1    0,QL
         7 000542   000277 741000 6                  STX1    IPT_FIN+11

      121     2393    2           END;

      122     2394            %CLIMB(FCN=FIN);

   2402  7 000543   000017 630400 8                  EPPR0   15
         7 000544   000000 631400 8                  EPPR1   0
         7 000545   000000 701000 xent               TSX1    U$FIN
         7 000546   000000 011000                    NOP     0

      123     2408    1       RETURN;

PL6.E3A0      #001=ZIA$IDS_INT File=ZIA$IDS_INT_USER.:ZIC0TSI                    FRI 09/05/97 11:34 Page:30
   2408  7 000547   000000 702200 xent               TSX2  ! X66_ARET

      124     2409    1   ZIA$MODIFY:
      125     2410    1       ENTRY (PARAM1,PARAM2);

   2410  7 000550   000000 700200 xent  ZIA$MODIFY   TSX0  ! X66_AUTO_3
         7 000551   000010 000003                    ZERO    8,3

      126     2411        /*
      127     2412                   Didn't implement modify fields
      128     2413                 for any of the modifys.
      129     2414        */
      130     2415    1       IF PARAM1 < 0

   2415  7 000552   200003 470500                    LDP0    @PARAM1,,AUTO
         7 000553   000100 100500                    MLR     fill='000'O
         7 000554   000000 000002                    ADSC9   0,,PR0                   cn=0,n=2
         7 000555   200006 000004                    ADSC9   @PARAM3+1,,AUTO          cn=0,n=4
         7 000556   200006 236100                    LDQ     @PARAM3+1,,AUTO
         7 000557   000022 732000                    QRS     18
         7 000560   000000 116003                    CMPQ    0,DU
         7 000561   000573 605000 7                  TPL     s:2417

      131     2416    1       THEN IPT_MOD.V.RC.RC_OFFSET# = - PARAM1;

   2416  7 000562   000100 100500                    MLR     fill='000'O
         7 000563   000000 000002                    ADSC9   0,,PR0                   cn=0,n=2
         7 000564   200006 000004                    ADSC9   @PARAM3+1,,AUTO          cn=0,n=4
         7 000565   200006 236100                    LDQ     @PARAM3+1,,AUTO
         7 000566   000022 732000                    QRS     18
         7 000567   777777 620006                    EAX0    -1,QL
         7 000570   777777 660003                    ERX0    -1,DU
         7 000571   000314 740000 6                  STX0    IPT_MOD+10
         7 000572   000603 710000 7                  TRA     s:2418

      132     2417    1       ELSE IPT_MOD.V.RC.RC_OFFSET# = POFFW(ADDR(PARAM1),ADDR(RVA));

PL6.E3A0      #001=ZIA$IDS_INT File=ZIA$IDS_INT_USER.:ZIC0TSI                    FRI 09/05/97 11:34 Page:31
   2417  7 000573   000002 236000 8                  LDQ     2
         7 000574   000022 772000                    QRL     18
         7 000575   200006 756100                    STQ     @PARAM3+1,,AUTO
         7 000576   200003 236100                    LDQ     @PARAM1,,AUTO
         7 000577   000022 772000                    QRL     18
         7 000600   200006 136100                    SBLQ    @PARAM3+1,,AUTO
         7 000601   000000 620006                    EAX0    0,QL
         7 000602   000314 740000 6                  STX0    IPT_MOD+10

      133     2418    1       IF ADDR(PARAM2) ~= ADDR(NIL)

   2418  7 000603   200004 236100                    LDQ     @PARAM2,,AUTO
         7 000604   000020 116000 8                  CMPQ    16
         7 000605   000644 600000 7                  TZE     s:2454

      134     2419    2       THEN DO;

      135     2420    2           IF ADDR(PARAM2)-> WORD36 = 0

   2420  7 000606   200004 471500                    LDP1    @PARAM2,,AUTO
         7 000607   100000 235100                    LDA     0,,PR1
         7 000610   000614 601000 7                  TNZ     s:2422

      136     2421    2           THEN IPT_MOD.V.MCW.MC_BIT1# = '0'B;

   2421  7 000611   000021 236000 8                  LDQ     17
         7 000612   000315 356000 6                  ANSQ    IPT_MOD+11
         7 000613   000633 710000 7                  TRA     s:2436

      137     2422    2           ELSE IF ADDR(PARAM2)-> WORD36 = 1

   2422  7 000614   000001 115007                    CMPA    1,DL
         7 000615   000621 601000 7                  TNZ     s:2425

      138     2423    2               THEN IPT_MOD.V.MCW.MC_BIT1# = '1'B;

   2423  7 000616   200000 236003                    LDQ     65536,DU
PL6.E3A0      #001=ZIA$IDS_INT File=ZIA$IDS_INT_USER.:ZIC0TSI                    FRI 09/05/97 11:34 Page:32
         7 000617   000315 256000 6                  ORSQ    IPT_MOD+11
         7 000620   000633 710000 7                  TRA     s:2436

      139     2424    3               ELSE DO;

      140     2425    3                   IPT_MOD.V.SLCW.N_SETS# = 1;

   2425  7 000621   000001 221003                    LDX1    1,DU
         7 000622   000317 741000 6                  STX1    IPT_MOD+13

      141     2426    3                  IPT_MOD.V.FL_SL_LIST.RVA_OFFSET#(0) = POFFW(ADDR(PARAM2),ADDR(RVA));

   2426  7 000623   000002 236000 8                  LDQ     2
         7 000624   000022 772000                    QRL     18
         7 000625   200006 756100                    STQ     @PARAM3+1,,AUTO
         7 000626   200004 236100                    LDQ     @PARAM2,,AUTO
         7 000627   000022 772000                    QRL     18
         7 000630   200006 136100                    SBLQ    @PARAM3+1,,AUTO
         7 000631   000000 622006                    EAX2    0,QL
         7 000632   000320 742000 6                  STX2    IPT_MOD+14

      142     2427    3                   END;

      143     2428                %CLIMB(FCN=MOD);

   2436  7 000633   000022 630400 8                  EPPR0   18
         7 000634   000000 631400 8                  EPPR1   0
         7 000635   000000 701000 xent               TSX1    U$MOD
         7 000636   000000 011000                    NOP     0

      144     2442    2           IPT_MOD.V.SLCW.N_SETS# = 0;

   2442  7 000637   000000 220003                    LDX0    0,DU
         7 000640   000317 740000 6                  STX0    IPT_MOD+13

      145     2443    2           IPT_MOD.V.MCW.MC_BIT1# = '0'B;

PL6.E3A0      #001=ZIA$IDS_INT File=ZIA$IDS_INT_USER.:ZIC0TSI                    FRI 09/05/97 11:34 Page:33
   2443  7 000641   000021 236000 8                  LDQ     17
         7 000642   000315 356000 6                  ANSQ    IPT_MOD+11

      146     2444    2           END;

   2444  7 000643   000650 710000 7                  TRA     s:2461

      147     2445    2       ELSE DO;

      148     2446                %CLIMB(FCN=MOD);

   2454  7 000644   000022 630400 8                  EPPR0   18
         7 000645   000000 631400 8                  EPPR1   0
         7 000646   000000 701000 xent               TSX1    U$MOD
         7 000647   000000 011000                    NOP     0

      149     2460    2           END;

      150     2461    1       RETURN;

   2461  7 000650   000000 702200 xent               TSX2  ! X66_ARET

      151     2462    1   ZIA$STORE:
      152     2463    1       ENTRY (PARAM1);

   2463  7 000651   000000 700200 xent  ZIA$STORE    TSX0  ! X66_AUTO_3
         7 000652   000010 000003                    ZERO    8,3

      153     2464    1       IF PARAM1 <0

   2464  7 000653   200003 470500                    LDP0    @PARAM1,,AUTO
         7 000654   000100 100500                    MLR     fill='000'O
         7 000655   000000 000002                    ADSC9   0,,PR0                   cn=0,n=2
         7 000656   200006 000004                    ADSC9   @PARAM3+1,,AUTO          cn=0,n=4
         7 000657   200006 236100                    LDQ     @PARAM3+1,,AUTO
         7 000660   000022 732000                    QRS     18
         7 000661   000000 116003                    CMPQ    0,DU
PL6.E3A0      #001=ZIA$IDS_INT File=ZIA$IDS_INT_USER.:ZIC0TSI                    FRI 09/05/97 11:34 Page:34
         7 000662   000674 605000 7                  TPL     s:2466

      154     2465    1       THEN IPT_STO.V.RC.RC_OFFSET# = - PARAM1;

   2465  7 000663   000100 100500                    MLR     fill='000'O
         7 000664   000000 000002                    ADSC9   0,,PR0                   cn=0,n=2
         7 000665   200006 000004                    ADSC9   @PARAM3+1,,AUTO          cn=0,n=4
         7 000666   200006 236100                    LDQ     @PARAM3+1,,AUTO
         7 000667   000022 732000                    QRS     18
         7 000670   777777 620006                    EAX0    -1,QL
         7 000671   777777 660003                    ERX0    -1,DU
         7 000672   000334 740000 6                  STX0    IPT_STO+10
         7 000673   000704 710000 7                  TRA     s:2475

      155     2466    1       ELSE IPT_STO.V.RC.RC_OFFSET# = POFFW(ADDR(PARAM1),ADDR(RVA));

   2466  7 000674   000002 236000 8                  LDQ     2
         7 000675   000022 772000                    QRL     18
         7 000676   200006 756100                    STQ     @PARAM3+1,,AUTO
         7 000677   200003 236100                    LDQ     @PARAM1,,AUTO
         7 000700   000022 772000                    QRL     18
         7 000701   200006 136100                    SBLQ    @PARAM3+1,,AUTO
         7 000702   000000 620006                    EAX0    0,QL
         7 000703   000334 740000 6                  STX0    IPT_STO+10

      156     2467            %CLIMB(FCN=STO);

   2475  7 000704   000023 630400 8                  EPPR0   19
         7 000705   000000 631400 8                  EPPR1   0
         7 000706   000000 701000 xent               TSX1    U$STO
         7 000707   000000 011000                    NOP     0

      157     2481    1       RETURN;

   2481  7 000710   000000 702200 xent               TSX2  ! X66_ARET

      158     2482    1   ZIA$FIND_CALC:
PL6.E3A0      #001=ZIA$IDS_INT File=ZIA$IDS_INT_USER.:ZIC0TSI                    FRI 09/05/97 11:34 Page:35
      159     2483    1       ENTRY (PARAM1);

   2483  7 000711   000000 700200 xent  ZIA$FIND_CA* TSX0  ! X66_AUTO_3
         7 000712   000010 000003                    ZERO    8,3

      160     2484        %EJECT;
PL6.E3A0      #001=ZIA$IDS_INT File=ZIA$IDS_INT_USER.:ZIC0TSI                    FRI 09/05/97 11:34 Page:36
      161     2485    1       IF PARAM1 < 0

   2485  7 000713   200003 470500                    LDP0    @PARAM1,,AUTO
         7 000714   000100 100500                    MLR     fill='000'O
         7 000715   000000 000002                    ADSC9   0,,PR0                   cn=0,n=2
         7 000716   200006 000004                    ADSC9   @PARAM3+1,,AUTO          cn=0,n=4
         7 000717   200006 236100                    LDQ     @PARAM3+1,,AUTO
         7 000720   000022 732000                    QRS     18
         7 000721   000000 116003                    CMPQ    0,DU
         7 000722   000734 605000 7                  TPL     s:2487

      162     2486    1       THEN IPT_FDC.V.RC.RC_OFFSET# = - PARAM1;

   2486  7 000723   000100 100500                    MLR     fill='000'O
         7 000724   000000 000002                    ADSC9   0,,PR0                   cn=0,n=2
         7 000725   200006 000004                    ADSC9   @PARAM3+1,,AUTO          cn=0,n=4
         7 000726   200006 236100                    LDQ     @PARAM3+1,,AUTO
         7 000727   000022 732000                    QRS     18
         7 000730   777777 620006                    EAX0    -1,QL
         7 000731   777777 660003                    ERX0    -1,DU
         7 000732   000352 740000 6                  STX0    IPT_FDC+10
         7 000733   000744 710000 7                  TRA     s:2496

      163     2487    1       ELSE IPT_FDC.V.RC.RC_OFFSET# = POFFW(ADDR(PARAM1),ADDR(RVA));

   2487  7 000734   000002 236000 8                  LDQ     2
         7 000735   000022 772000                    QRL     18
         7 000736   200006 756100                    STQ     @PARAM3+1,,AUTO
         7 000737   200003 236100                    LDQ     @PARAM1,,AUTO
         7 000740   000022 772000                    QRL     18
         7 000741   200006 136100                    SBLQ    @PARAM3+1,,AUTO
         7 000742   000000 620006                    EAX0    0,QL
         7 000743   000352 740000 6                  STX0    IPT_FDC+10

      164     2488            %CLIMB(FCN=FDC);

   2496  7 000744   000024 630400 8                  EPPR0   20
PL6.E3A0      #001=ZIA$IDS_INT File=ZIA$IDS_INT_USER.:ZIC0TSI                    FRI 09/05/97 11:34 Page:37
         7 000745   000000 631400 8                  EPPR1   0
         7 000746   000000 701000 xent               TSX1    U$FDC
         7 000747   000000 011000                    NOP     0

      165     2502    1       RETURN;

   2502  7 000750   000000 702200 xent               TSX2  ! X66_ARET

      166     2503    1   ZIA$FIND_TYPE:
      167     2504    1       ENTRY (PARAM1);

   2504  7 000751   000000 700200 xent  ZIA$FIND_TY* TSX0  ! X66_AUTO_3
         7 000752   000010 000003                    ZERO    8,3

      168     2505        /*
      169     2506              FIND CURRENT OF RECORD TYPE.
      170     2507            note:
      171     2508                 none of the retention list for set are implemented
      172     2509                 for the calls of find current of type.
      173     2510        */
      174     2511    1       IF PARAM1 < 0

   2511  7 000753   200003 470500                    LDP0    @PARAM1,,AUTO
         7 000754   000100 100500                    MLR     fill='000'O
         7 000755   000000 000002                    ADSC9   0,,PR0                   cn=0,n=2
         7 000756   200006 000004                    ADSC9   @PARAM3+1,,AUTO          cn=0,n=4
         7 000757   200006 236100                    LDQ     @PARAM3+1,,AUTO
         7 000760   000022 732000                    QRS     18
         7 000761   000000 116003                    CMPQ    0,DU
         7 000762   000774 605000 7                  TPL     s:2513

      175     2512    1       THEN IPT_FCT.V.RC.RC_OFFSET# = - PARAM1;

   2512  7 000763   000100 100500                    MLR     fill='000'O
         7 000764   000000 000002                    ADSC9   0,,PR0                   cn=0,n=2
         7 000765   200006 000004                    ADSC9   @PARAM3+1,,AUTO          cn=0,n=4
         7 000766   200006 236100                    LDQ     @PARAM3+1,,AUTO
PL6.E3A0      #001=ZIA$IDS_INT File=ZIA$IDS_INT_USER.:ZIC0TSI                    FRI 09/05/97 11:34 Page:38
         7 000767   000022 732000                    QRS     18
         7 000770   777777 620006                    EAX0    -1,QL
         7 000771   777777 660003                    ERX0    -1,DU
         7 000772   000370 740000 6                  STX0    IPT_FCT+10
         7 000773   001004 710000 7                  TRA     s:2522

      176     2513    1       ELSE IPT_FCT.V.RC.RC_OFFSET# = POFFW(ADDR(PARAM1),ADDR(RVA));

   2513  7 000774   000002 236000 8                  LDQ     2
         7 000775   000022 772000                    QRL     18
         7 000776   200006 756100                    STQ     @PARAM3+1,,AUTO
         7 000777   200003 236100                    LDQ     @PARAM1,,AUTO
         7 001000   000022 772000                    QRL     18
         7 001001   200006 136100                    SBLQ    @PARAM3+1,,AUTO
         7 001002   000000 620006                    EAX0    0,QL
         7 001003   000370 740000 6                  STX0    IPT_FCT+10

      177     2514            %CLIMB(FCN=FCT);

   2522  7 001004   000025 630400 8                  EPPR0   21
         7 001005   000000 631400 8                  EPPR1   0
         7 001006   000000 701000 xent               TSX1    U$FCT
         7 001007   000000 011000                    NOP     0

      178     2528    1       RETURN;

   2528  7 001010   000000 702200 xent               TSX2  ! X66_ARET

      179     2529    1   ZIA$CONNECT:
      180     2530    1       ENTRY(PARAM1);

   2530  7 001011   000000 700200 xent  ZIA$CONNECT  TSX0  ! X66_AUTO_3
         7 001012   000010 000003                    ZERO    8,3

      181     2531        /*
      182     2532              PARAM 1 - Is the rva offset for the set to connect up
      183     2533                         from the the current of run on both the owner
PL6.E3A0      #001=ZIA$IDS_INT File=ZIA$IDS_INT_USER.:ZIC0TSI                    FRI 09/05/97 11:34 Page:39
      184     2534                         and the member.
      185     2535        */
      186     2536    1       IF PARAM1 < 0

   2536  7 001013   200003 470500                    LDP0    @PARAM1,,AUTO
         7 001014   000100 100500                    MLR     fill='000'O
         7 001015   000000 000002                    ADSC9   0,,PR0                   cn=0,n=2
         7 001016   200006 000004                    ADSC9   @PARAM3+1,,AUTO          cn=0,n=4
         7 001017   200006 236100                    LDQ     @PARAM3+1,,AUTO
         7 001020   000022 732000                    QRS     18
         7 001021   000000 116003                    CMPQ    0,DU
         7 001022   001034 605000 7                  TPL     s:2538

      187     2537    1       THEN IPT_CON.V.SC.SC_OFFSET# = - PARAM1;

   2537  7 001023   000100 100500                    MLR     fill='000'O
         7 001024   000000 000002                    ADSC9   0,,PR0                   cn=0,n=2
         7 001025   200006 000004                    ADSC9   @PARAM3+1,,AUTO          cn=0,n=4
         7 001026   200006 236100                    LDQ     @PARAM3+1,,AUTO
         7 001027   000022 732000                    QRS     18
         7 001030   777777 620006                    EAX0    -1,QL
         7 001031   777777 660003                    ERX0    -1,DU
         7 001032   000033 740000 6                  STX0    IPT_CON+11
         7 001033   001044 710000 7                  TRA     s:2539

      188     2538    1       ELSE IPT_CON.V.SC.SC_OFFSET# = POFFW(ADDR(PARAM1),ADDR(RVA));

   2538  7 001034   000002 236000 8                  LDQ     2
         7 001035   000022 772000                    QRL     18
         7 001036   200006 756100                    STQ     @PARAM3+1,,AUTO
         7 001037   200003 236100                    LDQ     @PARAM1,,AUTO
         7 001040   000022 772000                    QRL     18
         7 001041   200006 136100                    SBLQ    @PARAM3+1,,AUTO
         7 001042   000000 620006                    EAX0    0,QL
         7 001043   000033 740000 6                  STX0    IPT_CON+11

      189     2539    1       IPT_CON.V.RC.RC_OFFSET# = POFFW(ADDR(RVA.NULL),ADDR(RVA));
PL6.E3A0      #001=ZIA$IDS_INT File=ZIA$IDS_INT_USER.:ZIC0TSI                    FRI 09/05/97 11:34 Page:40

   2539  7 001044   000002 236000 8                  LDQ     2
         7 001045   000022 772000                    QRL     18
         7 001046   200006 756100                    STQ     @PARAM3+1,,AUTO
         7 001047   000005 236000 8                  LDQ     5
         7 001050   000022 772000                    QRL     18
         7 001051   200006 136100                    SBLQ    @PARAM3+1,,AUTO
         7 001052   000000 621006                    EAX1    0,QL
         7 001053   000032 741000 6                  STX1    IPT_CON+10

      190     2540            %CLIMB(FCN=CON);

   2548  7 001054   000026 630400 8                  EPPR0   22
         7 001055   000000 631400 8                  EPPR1   0
         7 001056   000000 701000 xent               TSX1    U$CON
         7 001057   000000 011000                    NOP     0

      191     2554    1       RETURN;

   2554  7 001060   000000 702200 xent               TSX2  ! X66_ARET

      192     2555    1   ZIA$DISCONN:
      193     2556    1       ENTRY(PARAM1);

   2556  7 001061   000000 700200 xent  ZIA$DISCONN  TSX0  ! X66_AUTO_3
         7 001062   000010 000003                    ZERO    8,3

      194     2557        /*
      195     2558              PARAM 1 - Is the rva offset for the set to disconnect up
      196     2559                         from the the current of run on both the owner
      197     2560                         and the member.
      198     2561        */
      199     2562    1       IF PARAM1 < 0

   2562  7 001063   200003 470500                    LDP0    @PARAM1,,AUTO
         7 001064   000100 100500                    MLR     fill='000'O
         7 001065   000000 000002                    ADSC9   0,,PR0                   cn=0,n=2
PL6.E3A0      #001=ZIA$IDS_INT File=ZIA$IDS_INT_USER.:ZIC0TSI                    FRI 09/05/97 11:34 Page:41
         7 001066   200006 000004                    ADSC9   @PARAM3+1,,AUTO          cn=0,n=4
         7 001067   200006 236100                    LDQ     @PARAM3+1,,AUTO
         7 001070   000022 732000                    QRS     18
         7 001071   000000 116003                    CMPQ    0,DU
         7 001072   001104 605000 7                  TPL     s:2564

      200     2563    1       THEN IPT_DIS.V.SC.SC_OFFSET# = - PARAM1;

   2563  7 001073   000100 100500                    MLR     fill='000'O
         7 001074   000000 000002                    ADSC9   0,,PR0                   cn=0,n=2
         7 001075   200006 000004                    ADSC9   @PARAM3+1,,AUTO          cn=0,n=4
         7 001076   200006 236100                    LDQ     @PARAM3+1,,AUTO
         7 001077   000022 732000                    QRS     18
         7 001100   777777 620006                    EAX0    -1,QL
         7 001101   777777 660003                    ERX0    -1,DU
         7 001102   000063 740000 6                  STX0    IPT_DIS+11
         7 001103   001114 710000 7                  TRA     s:2565

      201     2564    1       ELSE IPT_DIS.V.SC.SC_OFFSET# = POFFW(ADDR(PARAM1),ADDR(RVA));

   2564  7 001104   000002 236000 8                  LDQ     2
         7 001105   000022 772000                    QRL     18
         7 001106   200006 756100                    STQ     @PARAM3+1,,AUTO
         7 001107   200003 236100                    LDQ     @PARAM1,,AUTO
         7 001110   000022 772000                    QRL     18
         7 001111   200006 136100                    SBLQ    @PARAM3+1,,AUTO
         7 001112   000000 620006                    EAX0    0,QL
         7 001113   000063 740000 6                  STX0    IPT_DIS+11

      202     2565    1       IPT_DIS.V.RC.RC_OFFSET# = POFFW(ADDR(RVA.NULL),ADDR(RVA));

   2565  7 001114   000002 236000 8                  LDQ     2
         7 001115   000022 772000                    QRL     18
         7 001116   200006 756100                    STQ     @PARAM3+1,,AUTO
         7 001117   000005 236000 8                  LDQ     5
         7 001120   000022 772000                    QRL     18
         7 001121   200006 136100                    SBLQ    @PARAM3+1,,AUTO
PL6.E3A0      #001=ZIA$IDS_INT File=ZIA$IDS_INT_USER.:ZIC0TSI                    FRI 09/05/97 11:34 Page:42
         7 001122   000000 621006                    EAX1    0,QL
         7 001123   000062 741000 6                  STX1    IPT_DIS+10

      203     2566            %CLIMB(FCN=DIS);

   2574  7 001124   000027 630400 8                  EPPR0   23
         7 001125   000000 631400 8                  EPPR1   0
         7 001126   000000 701000 xent               TSX1    U$DIS
         7 001127   000000 011000                    NOP     0

      204     2580    1       RETURN;

   2580  7 001130   000000 702200 xent               TSX2  ! X66_ARET

      205     2581    1   ZIA$ERASE:
      206     2582    1       ENTRY(PARAM1);

   2582  7 001131   000000 700200 xent  ZIA$ERASE    TSX0  ! X66_AUTO_3
         7 001132   000010 000003                    ZERO    8,3

      207     2583        /*
      208     2584              PARAM 1 - Is the rva offset for the set to disconnect up
      209     2585                         from the the current of run on both the owner
      210     2586                         and the member.
      211     2587        */
      212     2588    1       IF PARAM1 < 0

   2588  7 001133   200003 470500                    LDP0    @PARAM1,,AUTO
         7 001134   000100 100500                    MLR     fill='000'O
         7 001135   000000 000002                    ADSC9   0,,PR0                   cn=0,n=2
         7 001136   200006 000004                    ADSC9   @PARAM3+1,,AUTO          cn=0,n=4
         7 001137   200006 236100                    LDQ     @PARAM3+1,,AUTO
         7 001140   000022 732000                    QRS     18
         7 001141   000000 116003                    CMPQ    0,DU
         7 001142   001154 605000 7                  TPL     s:2590

      213     2589    1       THEN IPT_ERS.V.RC.RC_OFFSET# = - PARAM1;
PL6.E3A0      #001=ZIA$IDS_INT File=ZIA$IDS_INT_USER.:ZIC0TSI                    FRI 09/05/97 11:34 Page:43

   2589  7 001143   000100 100500                    MLR     fill='000'O
         7 001144   000000 000002                    ADSC9   0,,PR0                   cn=0,n=2
         7 001145   200006 000004                    ADSC9   @PARAM3+1,,AUTO          cn=0,n=4
         7 001146   200006 236100                    LDQ     @PARAM3+1,,AUTO
         7 001147   000022 732000                    QRS     18
         7 001150   777777 620006                    EAX0    -1,QL
         7 001151   777777 660003                    ERX0    -1,DU
         7 001152   000076 740000 6                  STX0    IPT_ERS+10
         7 001153   001164 710000 7                  TRA     s:2599

      214     2590    1       ELSE IPT_ERS.V.RC.RC_OFFSET# = POFFW(ADDR(PARAM1),ADDR(RVA));

   2590  7 001154   000002 236000 8                  LDQ     2
         7 001155   000022 772000                    QRL     18
         7 001156   200006 756100                    STQ     @PARAM3+1,,AUTO
         7 001157   200003 236100                    LDQ     @PARAM1,,AUTO
         7 001160   000022 772000                    QRL     18
         7 001161   200006 136100                    SBLQ    @PARAM3+1,,AUTO
         7 001162   000000 620006                    EAX0    0,QL
         7 001163   000076 740000 6                  STX0    IPT_ERS+10

      215     2591            %CLIMB(FCN=ERS);

   2599  7 001164   000030 630400 8                  EPPR0   24
         7 001165   000000 631400 8                  EPPR1   0
         7 001166   000000 701000 xent               TSX1    U$ERS
         7 001167   000000 011000                    NOP     0

      216     2605    1       RETURN;

   2605  7 001170   000000 702200 xent               TSX2  ! X66_ARET

      217     2606    1   ZIA$ACC:
      218     2607    1       ENTRY(PARAM1,PARAM2,PARAM3);

   2607  7 001171   000000 700200 xent  ZIA$ACC      TSX0  ! X66_AUTO_3
PL6.E3A0      #001=ZIA$IDS_INT File=ZIA$IDS_INT_USER.:ZIC0TSI                    FRI 09/05/97 11:34 Page:44
         7 001172   000010 000003                    ZERO    8,3

      219     2608    1       IPT_ACC.DBK_ = VECTOR(PARAM3);

   2608  7 001173   777640 235007                    LDA     -96,DL
         7 001174   200005 236100                    LDQ     @PARAM3,,AUTO
         7 001175   000012 757000 6                  STAQ    IPT_ACC+10

      220     2609    1       IF PARAM1 < 0

   2609  7 001176   200003 470500                    LDP0    @PARAM1,,AUTO
         7 001177   000100 100500                    MLR     fill='000'O
         7 001200   000000 000002                    ADSC9   0,,PR0                   cn=0,n=2
         7 001201   200006 000004                    ADSC9   @PARAM3+1,,AUTO          cn=0,n=4
         7 001202   200006 236100                    LDQ     @PARAM3+1,,AUTO
         7 001203   000022 732000                    QRS     18
         7 001204   000000 116003                    CMPQ    0,DU
         7 001205   001217 605000 7                  TPL     s:2611

      221     2610    1       THEN IPT_ACC.V.RVA_ITEM.OFFSET# = - PARAM1;

   2610  7 001206   000100 100500                    MLR     fill='000'O
         7 001207   000000 000002                    ADSC9   0,,PR0                   cn=0,n=2
         7 001210   200006 000004                    ADSC9   @PARAM3+1,,AUTO          cn=0,n=4
         7 001211   200006 236100                    LDQ     @PARAM3+1,,AUTO
         7 001212   000022 732000                    QRS     18
         7 001213   777777 620006                    EAX0    -1,QL
         7 001214   777777 660003                    ERX0    -1,DU
         7 001215   000016 740000 6                  STX0    IPT_ACC+14
         7 001216   001227 710000 7                  TRA     s:2612

      222     2611    1       ELSE IPT_ACC.V.RVA_ITEM.OFFSET# = POFFW(ADDR(PARAM1),ADDR(RVA));

   2611  7 001217   000002 236000 8                  LDQ     2
         7 001220   000022 772000                    QRL     18
         7 001221   200006 756100                    STQ     @PARAM3+1,,AUTO
         7 001222   200003 236100                    LDQ     @PARAM1,,AUTO
PL6.E3A0      #001=ZIA$IDS_INT File=ZIA$IDS_INT_USER.:ZIC0TSI                    FRI 09/05/97 11:34 Page:45
         7 001223   000022 772000                    QRL     18
         7 001224   200006 136100                    SBLQ    @PARAM3+1,,AUTO
         7 001225   000000 620006                    EAX0    0,QL
         7 001226   000016 740000 6                  STX0    IPT_ACC+14

      223     2612    1       IPT_ACC.V.CCW.SCI# = CCW;

   2612  7 001227   000000 721000 5                  LXL1    CCW
         7 001230   000014 741000 6                  STX1    IPT_ACC+12

      224     2613            %CLIMB(FCN=ACC);

   2621  7 001231   000031 630400 8                  EPPR0   25
         7 001232   000000 631400 8                  EPPR1   0
         7 001233   000000 701000 xent               TSX1    U$ACC
         7 001234   000000 011000                    NOP     0

      225     2627    1       RETURN;

   2627  7 001235   000000 702200 xent               TSX2  ! X66_ARET

      226     2628    1   ZIA$SHAREALL:
      227     2629    1       ENTRY;

   2629  7 001236   000000 700200 xent  ZIA$SHAREALL TSX0  ! X66_AUTO_3
         7 001237   000010 000003                    ZERO    8,3

      228     2630            %CLIMB(FCN=SHALL,PARAMS=0);

   2641  7 001240   000032 631400 8                  EPPR1   26
         7 001241   000000 701000 xent               TSX1    U$SHALL
         7 001242   000000 011000                    NOP     0

      229     2644    1       RETURN;

   2644  7 001243   000000 702200 xent               TSX2  ! X66_ARET

PL6.E3A0      #001=ZIA$IDS_INT File=ZIA$IDS_INT_USER.:ZIC0TSI                    FRI 09/05/97 11:34 Page:46
      230     2645    1   ZIA$SHAREIN:
      231     2646    1       ENTRY;

   2646  7 001244   000000 700200 xent  ZIA$SHAREIN  TSX0  ! X66_AUTO_3
         7 001245   000010 000003                    ZERO    8,3

      232     2647            %CLIMB(FCN=SHIN,PARAMS=0);

   2658  7 001246   000032 631400 8                  EPPR1   26
         7 001247   000000 701000 xent               TSX1    U$SHIN
         7 001250   000000 011000                    NOP     0

      233     2661    1       RETURN;

   2661  7 001251   000000 702200 xent               TSX2  ! X66_ARET

      234     2662    1   ZIA$NOSHARE:
      235     2663    1       ENTRY;

   2663  7 001252   000000 700200 xent  ZIA$NOSHARE  TSX0  ! X66_AUTO_3
         7 001253   000010 000003                    ZERO    8,3

      236     2664            %CLIMB(FCN=SHNO,PARAMS=0);

   2675  7 001254   000032 631400 8                  EPPR1   26
         7 001255   000000 701000 xent               TSX1    U$SHNO
         7 001256   000000 011000                    NOP     0

      237     2678    1       RETURN;

   2678  7 001257   000000 702200 xent               TSX2  ! X66_ARET

RVA
 Sect OctLoc
   0     000   000151 000000   000000 000001   000001 000002   000001 000003    .i..............
   0     004   000001 000004   000001 000005   000001 000006   000001 000007    ................
   0     010   000001 000010   000001 000011   000001 000012   000001 000013    ................
PL6.E3A0      #001=ZIA$IDS_INT File=ZIA$IDS_INT_USER.:ZIC0TSI                    FRI 09/05/97 11:34 Page:47
   0     014   000001 000014   000001 000015   000001 000016   000001 000017    ................
   0     020   000001 000020   000001 000021   000001 000022   000001 000023    ................
   0     024   000001 000024   000001 000025   000001 000026   000001 000027    ................
   0     030   000001 000030   000001 000031   000001 000032   000001 000033    ................
   0     034   000001 000034   000001 000035   000001 000036   000001 000037    ................
   0     040   000001 000040   000001 000041   000001 000042   000001 000043    ... ...!..."...#
   0     044   000001 000044   000001 000045   000001 000046   000001 000047    ...$...%...&...'
   0     050   000001 000050   000001 000051   000001 000052   000002 000600    ...(...)...*....
   0     054   000002 000660   000002 001040   000002 001260   000002 001460    ....... ........
   0     060   000002 001540   000002 001660   000002 001700   000002 002140    ...............`
   0     064   000002 002320   000002 002700   000002 003100   000002 003260    ...........@....
   0     070   000002 003320   000002 003540   000002 003600   000002 003740    ................
   0     074   000002 004000   000002 004060   000002 004220   000002 004400    .......0........
   0     100   000002 004540   000002 004660   000002 004720   000002 004760    ................
   0     104   000002 005000   000002 005020   000002 005220   000002 005240    ................
   0     110   000002 005500   000002 005740   000002 005760   000002 006000    ................
   0     114   000002 006020   000002 006040   000002 006220   000002 006340    ....... ........
   0     120   000002 006640   000002 006760   000002 007120   000002 007240    ...........P....
   0     124   000002 007320   000002 007420   000002 007560   000002 007640    ................
   0     130   000002 007760   000002 010120   000002 010360   000002 010460    .......P........
   0     134   000002 010620   000002 010720   000002 011060   000002 011160    ...........0...p
   0     140   000002 011220   000002 011320   000002 011400   000002 011460    ................
   0     144   000002 011540   000002 011620   000002 011700   000002 011760    ................
   0     150   000002 012040   000004 000000                                    ... ....

UWA
 Sect OctLoc
   1     000   000000 000000   040040 040040   040040 040040   040040 040040    ....
   1     004   040040 040040   040040 040040   040040 040040   040040 040040
   1     010   040040 040040   040040 040040   040040 000000   040040 040040              ..
   1     014   040040 040040   040040 040040   040040 040040   040040 040040
   1     020   040040 040040   040040 040040   040040 000000   040040 040040              ..
   1     024   040040 040040   040040 040040   040040 040040   040040 040040
   1     030   040040 040040   040040 040040   040040 000000   040040 040040              ..
   1     034   040040 040040   040040 040040   000000 000000   040040 040040            ....
   1     040   040040 040040   040040 040040   040040 040040   040040 040040
   1     044   040040 040040   040040 040040   040040 000000   040040 040040              ..
PL6.E3A0      #001=ZIA$IDS_INT File=ZIA$IDS_INT_USER.:ZIC0TSI                    FRI 09/05/97 11:34 Page:48
   1     050   040040 040040   040040 040040   040040 040040   040040 040040
   1     054   040040 040040   040040 040040   040040 000000   000000 000000              ......
   1     060   040040 040040   040*** ******   000000 000000   000000 000000         ...........
   1     064   000000 000000   000000 000000   040040 040040   040040 040040    ........
   1     070   040040 040040   040040 040040   040040 040040   040040 040040
   1     100*  040040 ******   000000 000000   040040 040040   040040 040040      ......
   1     104   040040 040040   040040 040040   040040 040040   040040 040040
   1     124*  040040 040040   040040 040040   000000 000000   040040 040040            ....
   1     130   040040 040040   040040 040040   040040 040040   040040 040040
   1     134   040040 040040   040040 040040   040040 ******   000000 000000              ......
   1     140   040040 040040   040040 040040   040040 040040   040040 040040
   1     144   040040 040040   040040 040040   000000 000000   000000 000000            ........
   1     150   000000 000000   000000 000000   000000 000000   000000 000000    ................
   1     154   040040 040040   040040 040040   040040 040040   040040 040040
   1     160   040040 040040   040040 040040   040040 040040   040040 ******                  ..
   1     164   000000 000000   ****** ******   000000 000000   000000 000000    ................
   1     170   000000 000000   040040 040040   040040 040040   040040 040040    ....
   1     174   040040 040040   040040 040040   040040 040040   040040 040040
   1     210*  040040 040040   040040 040040   040040 040040   ****** ******                ....
   1     214   000000 000000   000000 000000   000000 000000   000000 000000    ................
   1     224*  000000 000000   000000 000000   000000 000000   040040 ******    ............  ..
   1     230   000000 000000   ****** ******   000000 000000   040040 040040    ............
   1     234   000000 000000   000000 000000   000000 000000   000000 000000    ................
   1     264*  000000 000000   000000 000000   000000 000000   ****** ******    ................
   1     270   000000 000000   000000 000000   000000 000000   000000 000000    ................
   1     324*  000000 000000   ****** ******   000000 000000   000000 000000    ................
   1     330   000000 000000   000000 000000   000000 000000   000000 000000    ................
   1     350*  000000 000000   000000 000000   000000 000000   ****** ******    ................
   1     360*  000000 000000   000000 000000   000000 000000   000000 000000    ................
   1     404*  000000 000000   ****** ******   000000 000000   000000 000000    ................
   1     410   000000 000000   000000 000000   000000 000000   000000 000000    ................
   1     424*  000000 000000   000000 000000   000000 000000   040040 040040    ............
   1     430   040040 040040   040040 040040   040040 040040   040040 040040
   1     434   040040 040040   040040 040040   040040 ******   ****** ******              ......
   1     440   040040 040040   040040 040040   040040 040040   040040 040040
   1     450*  040040 040040   040040 040040   040040 ******   ****** ******              ......
   1     454   000000 000000   040040 040040   040040 040040   040040 040040    ....
PL6.E3A0      #001=ZIA$IDS_INT File=ZIA$IDS_INT_USER.:ZIC0TSI                    FRI 09/05/97 11:34 Page:49
   1     460   040040 040040   040040 040040   040040 040040   040040 040040
   1     464   040040 ******   ****** ******   000000 000000   000000 000000      ..............
   1     470   000000 000000   000000 000000   000000 000000   000000 000000    ................
   1     474   000000 000000   ****** ******   000000 000000   000000 000000    ................
   1     500   000000 000000   000000 000000   040040 040040   040040 040040    ........
   1     504   040040 040040   040040 040040   040040 040040   040040 040040
   1     520*  040040 040040   ****** ******   000000 000000   000000 000000        ............
   1     524   040040 040040   040040 040040   040040 040040   040040 040040
   1     574*  000000 000000   000000 000000   000000 000000   000000 000000    ................
   1     600   000000 000000   000000 000000   000000 000000   ****** ******    ................
   1     604   000000 000000   000000 000000   000000 000000   000000 000000    ................
   1     610   000000 000000   000000 000000   040040 040040   040040 040040    ........
   1     614   040040 040040   040040 040040   040040 040040   040040 040040
   1     620   040040 040040   040040 ******   040040 040040   040040 040040          ..
   1     624   040040 040040   040040 040040   040040 040040   040040 040040
   1     660*  040040 040040   040040 040040   040040 040040   ****** ******                ....
   1     664   040040 040040   040040 040040   040040 040040   040040 040040
   1     674*  040040 040040   ****** ******   040040 040040   040040 040040        ....
   1     700   040040 040040   040040 040040   040040 040040   040040 040040
   1     710*  040040 040040   ****** ******   040040 040040   040040 040040        ....
   1     714   040040 040040   040040 040040   040040 040040   040040 040040
   1     720   040040 040040   040040 040040   040040 040040   ****** ******                ....
   1     724   040040 040040   040040 040040   040040 040040   040040 040040
   1     740*  040040 040040   ****** ******   040040 040040   040040 040040        ....
   1     744   040040 040040   040040 040040   040040 040040   040040 040040
   1     774*  040040 040040   ****** ******   040040 040040   040040 040040        ....
   1    1000   040040 040040   040040 040040   040040 040040   040040 040040
   1    1034*  040040 040040   ****** ******   040040 040040   040040 040040        ....
   1    1040   040040 040040   040040 040040   040040 040040   040040 040040
   1    1060*  040040 040040   ****** ******   040040 040040   040040 040040        ....
   1    1064   040040 040040   040040 040040   040040 040040   040040 040040
   1    1114*  040040 040040   ****** ******   040040 040040   040040 040040        ....
   1    1120   040040 040040   040040 040040   040040 040040   040040 040040
   1    1134*  040040 040040   040040 040040   040040 040040   ****** ******                ....
   1    1140   040040 040040   040040 040040   040040 040040   040040 040040
   1    1144   040040 040040   ****** ******   040040 040040   040040 040040        ....
   1    1150   040040 040040   040040 040040   040040 040040   ****** ******                ....
PL6.E3A0      #001=ZIA$IDS_INT File=ZIA$IDS_INT_USER.:ZIC0TSI                    FRI 09/05/97 11:34 Page:50
   1    1154   040040 040040   040040 040040   040040 040040   040040 040040
   1    1160   040040 040040   ****** ******   040040 040040   040040 040040        ....
   1    1164   040040 040040   040040 040040   040040 040040   ****** ******                ....
   1    1170   040040 040040   040040 040040   040040 040040   040040 040040
   1    1200*  040040 040040   040040 040040   040040 040040   ****** ******                ....
   1    1204   040040 040040   040040 040040   040040 040040   040040 040040
   1    1214*  040040 040040   040040 040040   040040 040040   040040 040040

IA
 Sect OctLoc
   2     000   000000 000000   000000 006000   000000 000000   000000 000000    ................
   2     004   000000 000000   000000 000000   000000 000000   000000 000000    ................
   2     010   000000 006000   000000 000000   104125 116107   137123 103110    ........DUNG_SCH
   2     014   040040 040040   040040 040040   040040 040040   040040 040040
   2     020   040040 040040   040040 040040   104125 116107   055123 125102            DUNG-SUB
   2     024   040040 040040   040040 040040   040040 040040   040040 040040
   2     030   040040 040040   040040 040040   000000 000000   000000 000000            ........
   2     034   000000 000000   000000 000000   000000 000000   000000 000000    ................
   2     050*  000000 000000   000000 000000   000000 000000   061476 566547    ............1...
   2     054   000000 000000   061476 527476                                    ....1...

USE_PROC
 Sect OctLoc
   3     000   000001 000000   003017 204400   000000 000000                    ............

IPT_ACC
 Sect OctLoc
   6     000   000003 777640   000014 006000   000055 777640   000000 006000    .........-......
   6     004   001217 777640   000000 006000   000151 777640   000000 006000    .........i......
   6     010   000003 777640   000000 006000   000000 177640   000000 006014    ................
   6     014   000000 000000   000000 000000   000000 000000   ****** ******    ................

IPT_CON
 Sect OctLoc
   6     020   000001 777640   000032 006000   000055 777640   000000 006000    .........-......
   6     024   001217 777640   000000 006000   000151 777640   000000 006000    .........i......
   6     030   000003 777640   000000 006000   000000 000000   000000 000000    ................
PL6.E3A0      #001=ZIA$IDS_INT File=ZIA$IDS_INT_USER.:ZIC0TSI                    FRI 09/05/97 11:34 Page:51

IPT_IST
 Sect OctLoc
   6     034   000001 777640   000046 006000   000055 777640   000000 006000    .....&...-......
   6     040   001217 777640   000000 006000   000151 777640   000000 006000    .........i......
   6     044   000003 777640   000000 006000   000000 000000   000000 000000    ................

IPT_DIS
 Sect OctLoc
   6     050   000001 777640   000062 006000   000055 777640   000000 006000    .....2...-......
   6     054   001217 777640   000000 006000   000151 777640   000000 006000    .........i......
   6     060   000003 777640   000000 006000   000000 000000   000000 000000    ................

IPT_ERS
 Sect OctLoc
   6     064   000001 777640   000076 006000   000055 777640   000000 006000    .....>...-......
   6     070   001217 777640   000000 006000   000151 777640   000000 006000    .........i......
   6     074   000003 777640   000000 006000   000000 000000   400000 000000    ................

IPT_HIA
 Sect OctLoc
   6     100   000000 177640   000000 006014   000055 777640   000000 006000    .........-......
   6     104   001217 777640   000000 006000   000151 777640   000000 006000    .........i......
   6     110   000003 777640   000000 006000                                    ........

IPT_RDY
 Sect OctLoc
   6     112   000003 777640   000124 006000   000055 777640   000000 006000    .....T...-......
   6     116   001217 777640   000000 006000   000151 777640   000000 006000    .........i......
   6     122   000003 777640   000000 006000   000010 000001   000000 000000    ................
   6     126   000000 000000   ****** ******                                    ........

IPT_INA
 Sect OctLoc
   6     130   000003 777640   000142 006000   000055 777640   000000 006000    .....b...-......
   6     134   001217 777640   000000 006000   000151 777640   000000 006000    .........i......
   6     140   000003 777640   000000 006000   000010 000001   000000 000000    ................
PL6.E3A0      #001=ZIA$IDS_INT File=ZIA$IDS_INT_USER.:ZIC0TSI                    FRI 09/05/97 11:34 Page:52
   6     144   000000 000000   ****** ******                                    ........

IPT_FDR
 Sect OctLoc
   6     146   000003 777640   000162 006000   000055 777640   000000 006000    .....r...-......
   6     152   001217 777640   000000 006000   000151 777640   000000 006000    .........i......
   6     156   000003 777640   000000 006000   000000 177640   000000 006014    ................
   6     162   000000 000000   000000 000000   000000 000000   000000 000000    ................

IPT_FRS
 Sect OctLoc
   6     166   000005 777640   000200 006000   000055 777640   000000 006000    .........-......
   6     172   001217 777640   000000 006000   000151 777640   000000 006000    .........i......
   6     176   000003 777640   000000 006000   000000 000000   000000 000000    ................
   6     202   000000 000000   000000 000000   000000 000000   ****** ******    ................

IPT_FRI
 Sect OctLoc
   6     206   000005 777640   000220 006000   000055 777640   000000 006000    .........-......
   6     212   001217 777640   000000 006000   000151 777640   000000 006000    .........i......
   6     216   000003 777640   000000 006000   000000 000000   000000 000000    ................
   6     222   000000 000000   000000 000000   000000 000000   ****** ******    ................

IPT_FOR
 Sect OctLoc
   6     226   000003 777640   000240 006000   000055 777640   000000 006000    .........-......
   6     232   001217 777640   000000 006000   000151 777640   000000 006000    .........i......
   6     236   000003 777640   000000 006000   000000 000000   000000 000000    ................
   6     242   000000 000000   ****** ******                                    ........

IPT_GET
 Sect OctLoc
   6     244   000001 777640   000256 006000   000055 777640   000000 006000    .........-......
   6     250   001217 777640   000000 006000   000151 777640   000000 006000    .........i......
   6     254   000003 777640   000000 006000   000000 000000   ****** ******    ................

IPT_NBF
PL6.E3A0      #001=ZIA$IDS_INT File=ZIA$IDS_INT_USER.:ZIC0TSI                    FRI 09/05/97 11:34 Page:53
 Sect OctLoc
   6     260   000000 177640   000000 006014   000000 177640   000000 006014    ................

IPT_FIN
 Sect OctLoc
   6     264   000003 777640   000276 006000   000055 777640   000000 006000    .........-......
   6     270   001217 777640   000000 006000   000151 777640   000000 006000    .........i......
   6     274   000003 777640   000000 006000   000000 000000   000000 000000    ................
   6     300   000000 000000   ****** ******                                    ........

IPT_MOD
 Sect OctLoc
   6     302   000005 777640   000314 006000   000055 777640   000000 006000    .........-......
   6     306   001217 777640   000000 006000   000151 777640   000000 006000    .........i......
   6     312   000003 777640   000000 006000   000000 000000   000000 000000    ................
   6     316   000000 000000   000000 000000   000000 000000   ****** ******    ................

IPT_STO
 Sect OctLoc
   6     322   000003 777640   000334 006000   000055 777640   000000 006000    .........-......
   6     326   001217 777640   000000 006000   000151 777640   000000 006000    .........i......
   6     332   000003 777640   000000 006000   000000 000000   000000 000000    ................
   6     336   000000 000000   ****** ******                                    ........

IPT_FDC
 Sect OctLoc
   6     340   000003 777640   000352 006000   000055 777640   000000 006000    .........-......
   6     344   001217 777640   000000 006000   000151 777640   000000 006000    .........i......
   6     350   000003 777640   000000 006000   000000 000000   000000 000000    ................
   6     354   000000 000000   ****** ******                                    ........

IPT_FCT
 Sect OctLoc
   6     356   000003 777640   000370 006000   000055 777640   000000 006000    .........-......
   6     362   001217 777640   000000 006000   000151 777640   000000 006000    .........i......
   6     366   000003 777640   000000 006000   000000 000000   000000 000000    ................
   6     372   000000 000000   ****** ******                                    ........
PL6.E3A0      #001=ZIA$IDS_INT File=ZIA$IDS_INT_USER.:ZIC0TSI                    FRI 09/05/97 11:34 Page:54

(unnamed)
 Sect OctLoc
   8     000   000001 000000   000100 006000   000000 006000   000112 006000    .....@.......J..
   8     004   000130 006000   000151 406000   000146 006000   000166 006000    .X...i...f...v..
   8     010   000206 006000   000226 006000   000244 006000   000000 000000    ................
   8     014   000000 777640   000000 006000   000260 006000   000264 006000    ................
   8     020   000000 006014   577777 777777   000302 006000   000322 006000    ................
   8     024   000340 006000   000356 006000   000020 006000   000050 006000    .............(..
   8     030   000064 006000   000000 006000   000000 000000                    .4..........
      238     2679    1   END ZIA$IDS_INT;

PL6.E3A0      #001=ZIA$IDS_INT File=ZIA$IDS_INT_USER.:ZIC0TSI                    FRI 09/05/97 11:34 Page:55
--  Include file information  --

   ZI_DBCS.:ZIC0TOU  is referenced.
   ZI_SUB4_CAN.:ZIC0TOU  is referenced.
   B$JIT_C.:E05TOU  was found in the system file and is never referenced.
   CP_6_C.:E05TOU  was found in the system file and is never referenced.
      No diagnostics issued in procedure ZIA$IDS_INT.

   Procedure ZIA$IDS_INT requires 688 words for executable code.
   Procedure ZIA$IDS_INT requires 8 words of local(AUTO) storage.

    No errors detected in file ZIA$IDS_INT_USER.:ZIC0TSI    .
PL6.E3A0      #001=ZIA$IDS_INT File=ZIA$IDS_INT_USER.:ZIC0TSI                    FRI 09/05/97 11:34 Page:56
          *** CROSS REFERENCE LISTING ***
**     DENOTES     IDENTIFIER DEFINITION
<<                 IDENTIFIER'S VALUE SET
>>                 IDENTIFIER'S VALUE USED
<>                 IDENTIFIER SET AND/OR USED
--                 IDENTIFIER REFERENCED
PL6.E3A0      #001=ZIA$IDS_INT File=ZIA$IDS_INT_USER.:ZIC0TSI                    FRI 09/05/97 11:34 Page:57
          MINI XREF LISTING

BUFALOC
      1934**DCL      2369--ASSIGN
CCW
      1935**DCL      2612>>ASSIGN
IA
      1283**DCL      1943--DCLINIT  1956--DCLINIT  1969--DCLINIT  1982--DCLINIT  1995--DCLINIT  2007--DCLINIT
      2019--DCLINIT  2034--DCLINIT  2048--DCLINIT  2064--DCLINIT  2081--DCLINIT  2098--DCLINIT  2113--DCLINIT
      2136--DCLINIT  2149--DCLINIT  2165--DCLINIT  2180--DCLINIT  2195--DCLINIT
IPT_ACC
      1943**DCL      2621<>CALL
IPT_ACC.DBK_
      1945**DCL      2608<<ASSIGN
IPT_ACC.V
      1945**DCL      1943--DCLINIT
IPT_ACC.V.CCW.SCI#
      1945**DCL      2612<<ASSIGN
IPT_ACC.V.RVA_ITEM.OFFSET#
      1946**DCL      2610<<ASSIGN   2611<<ASSIGN
IPT_CON
      1956**DCL      2548<>CALL
IPT_CON.V
      1958**DCL      1956--DCLINIT
IPT_CON.V.RC.RC_OFFSET#
      1958**DCL      2539<<ASSIGN
IPT_CON.V.SC.SC_OFFSET#
      1959**DCL      2537<<ASSIGN   2538<<ASSIGN
IPT_DIS
      1982**DCL      2574<>CALL
IPT_DIS.V
      1984**DCL      1982--DCLINIT
IPT_DIS.V.RC.RC_OFFSET#
      1984**DCL      2565<<ASSIGN
PL6.E3A0      #001=ZIA$IDS_INT File=ZIA$IDS_INT_USER.:ZIC0TSI                    FRI 09/05/97 11:34 Page:58
IPT_DIS.V.SC.SC_OFFSET#
      1985**DCL      2563<<ASSIGN   2564<<ASSIGN
IPT_ERS
      1995**DCL      2599<>CALL
IPT_ERS.V
      1997**DCL      1995--DCLINIT
IPT_ERS.V.RC.RC_OFFSET#
      1997**DCL      2589<<ASSIGN   2590<<ASSIGN
IPT_FCT
      2195**DCL      2522<>CALL
IPT_FCT.V
      2197**DCL      2195--DCLINIT
IPT_FCT.V.RC.RC_OFFSET#
      2197**DCL      2512<<ASSIGN   2513<<ASSIGN
IPT_FDC
      2180**DCL      2496<>CALL
IPT_FDC.V
      2182**DCL      2180--DCLINIT
IPT_FDC.V.RC.RC_OFFSET#
      2182**DCL      2486<<ASSIGN   2487<<ASSIGN
IPT_FDR
      2048**DCL      2268<>CALL
IPT_FDR.DBK_
      2050**DCL      2259<<ASSIGN
IPT_FDR.V
      2050**DCL      2048--DCLINIT
IPT_FDR.V.RC.RC_OFFSET#
      2050**DCL      2255<<ASSIGN   2257<<ASSIGN   2258<<ASSIGN
IPT_FIN
      2136**DCL      2402<>CALL
IPT_FIN.V
      2138**DCL      2136--DCLINIT
IPT_FIN.V.AC_OFFSETS.RVA_OFFSET#
      2139**DCL      2392<<ASSIGN
IPT_FIN.V.ALCW.N_AREAS#
      2138**DCL      2388<<ASSIGN   2391<<ASSIGN
PL6.E3A0      #001=ZIA$IDS_INT File=ZIA$IDS_INT_USER.:ZIC0TSI                    FRI 09/05/97 11:34 Page:59
IPT_FOR
      2098**DCL      2339<>CALL
IPT_FOR.V
      2100**DCL      2098--DCLINIT
IPT_FOR.V.SC.SC_OFFSET#
      2100**DCL      2329<<ASSIGN   2330<<ASSIGN
IPT_FRI
      2081**DCL      2320<>CALL
IPT_FRI.V
      2083**DCL      2081--DCLINIT
IPT_FRI.V.FCW.RECORD_LOCATION#
      2083**DCL      2311<<ASSIGN
IPT_FRI.V.RC.RC_OFFSET#
      2084**DCL      2304<<ASSIGN   2306<<ASSIGN   2307<<ASSIGN
IPT_FRI.V.SC.SC_OFFSET#
      2085**DCL      2309<<ASSIGN   2310<<ASSIGN
IPT_FRS
      2064**DCL      2295<>CALL
IPT_FRS.V
      2066**DCL      2064--DCLINIT
IPT_FRS.V.FCW.RECORD_LOCATION#
      2066**DCL      2286<<ASSIGN
IPT_FRS.V.RC.RC_OFFSET#
      2067**DCL      2277<<ASSIGN   2280<<ASSIGN   2282<<ASSIGN
IPT_FRS.V.SC.SC_OFFSET#
      2068**DCL      2284<<ASSIGN   2285<<ASSIGN
IPT_GET
      2113**DCL      2360<>CALL
IPT_GET.V
      2115**DCL      2113--DCLINIT
IPT_GET.V.RC.RC_OFFSET#
      2115**DCL      2348<<ASSIGN   2350<<ASSIGN   2351<<ASSIGN
IPT_HIA
      2007**DCL      2212<>CALL
IPT_INA
      2034**DCL      2246<>CALL
PL6.E3A0      #001=ZIA$IDS_INT File=ZIA$IDS_INT_USER.:ZIC0TSI                    FRI 09/05/97 11:34 Page:60
IPT_INA.V
      2036**DCL      2034--DCLINIT
IPT_INA.V.AC_OFFSETS.RVA_OFFSET#
      2038**DCL      2237<<ASSIGN
IPT_IST.V
      1971**DCL      1969--DCLINIT
IPT_MOD
      2149**DCL      2436<>CALL     2454<>CALL
IPT_MOD.V
      2151**DCL      2149--DCLINIT
IPT_MOD.V.FL_SL_LIST.RVA_OFFSET#
      2155**DCL      2426<<ASSIGN
IPT_MOD.V.MCW.MC_BIT1#
      2152**DCL      2421<<ASSIGN   2423<<ASSIGN   2443<<ASSIGN
IPT_MOD.V.RC.RC_OFFSET#
      2151**DCL      2416<<ASSIGN   2417<<ASSIGN
IPT_MOD.V.SLCW.N_SETS#
      2154**DCL      2425<<ASSIGN   2442<<ASSIGN
IPT_NBF
      2125**DCL      2378<>CALL
IPT_NBF.BUFFS_ALLOC_
      2125**DCL      2369<<ASSIGN
IPT_NBF.BUFFS_REQ_
      2125**DCL      2368<<ASSIGN
IPT_RDY
      2019**DCL      2229<>CALL
IPT_RDY.V
      2021**DCL      2019--DCLINIT
IPT_RDY.V.AC_OFFSETS.RVA_OFFSET#
      2023**DCL      2220<<ASSIGN
IPT_STO
      2165**DCL      2475<>CALL
IPT_STO.V
      2167**DCL      2165--DCLINIT
IPT_STO.V.RC.RC_OFFSET#
      2167**DCL      2465<<ASSIGN   2466<<ASSIGN
PL6.E3A0      #001=ZIA$IDS_INT File=ZIA$IDS_INT_USER.:ZIC0TSI                    FRI 09/05/97 11:34 Page:61
PARAM1
      1930**DCL        12--PROC     2219--ENTRY    2220--ASSIGN   2236--ENTRY    2237--ASSIGN   2253--ENTRY
      2254>>IF       2255>>ASSIGN   2256>>IF       2258--ASSIGN   2275--ENTRY    2276>>IF       2279>>IF
      2280>>ASSIGN   2282--ASSIGN   2302--ENTRY    2303>>IF       2305>>IF       2306>>ASSIGN   2307--ASSIGN
      2327--ENTRY    2328>>IF       2329>>ASSIGN   2330--ASSIGN   2346--ENTRY    2347>>IF       2349>>IF
      2350>>ASSIGN   2351--ASSIGN   2367--ENTRY    2368--ASSIGN   2385--ENTRY    2386--IF       2392--ASSIGN
      2409--ENTRY    2415>>IF       2416>>ASSIGN   2417--ASSIGN   2462--ENTRY    2464>>IF       2465>>ASSIGN
      2466--ASSIGN   2482--ENTRY    2485>>IF       2486>>ASSIGN   2487--ASSIGN   2503--ENTRY    2511>>IF
      2512>>ASSIGN   2513--ASSIGN   2529--ENTRY    2536>>IF       2537>>ASSIGN   2538--ASSIGN   2555--ENTRY
      2562>>IF       2563>>ASSIGN   2564--ASSIGN   2581--ENTRY    2588>>IF       2589>>ASSIGN   2590--ASSIGN
      2606--ENTRY    2609>>IF       2610>>ASSIGN   2611--ASSIGN
PARAM2
      1931**DCL        12--PROC     2253--ENTRY    2275--ENTRY    2283>>IF       2284>>ASSIGN   2285--ASSIGN
      2302--ENTRY    2308>>IF       2309>>ASSIGN   2310--ASSIGN   2409--ENTRY    2418--IF       2420--IF
      2422--IF       2426--ASSIGN   2606--ENTRY
PARAM3
      1932**DCL        12--PROC     2253--ENTRY    2259--ASSIGN   2275--ENTRY    2286>>ASSIGN   2302--ENTRY
      2311>>ASSIGN   2606--ENTRY    2608--ASSIGN
RVA
       671**DCL      1289--DCLINIT  1944--DCLINIT  1957--DCLINIT  1970--DCLINIT  1983--DCLINIT  1996--DCLINIT
      2008--DCLINIT  2020--DCLINIT  2035--DCLINIT  2049--DCLINIT  2065--DCLINIT  2082--DCLINIT  2099--DCLINIT
      2114--DCLINIT  2137--DCLINIT  2150--DCLINIT  2166--DCLINIT  2181--DCLINIT  2196--DCLINIT  2220--ASSIGN
      2237--ASSIGN   2257--ASSIGN   2258--ASSIGN   2277--ASSIGN   2282--ASSIGN   2285--ASSIGN   2304--ASSIGN
      2307--ASSIGN   2310--ASSIGN   2330--ASSIGN   2348--ASSIGN   2351--ASSIGN   2392--ASSIGN   2417--ASSIGN
      2426--ASSIGN   2466--ASSIGN   2487--ASSIGN   2513--ASSIGN   2538--ASSIGN   2539--ASSIGN   2564--ASSIGN
      2565--ASSIGN   2590--ASSIGN   2611--ASSIGN
RVA.NULL
       945**DCL      2257--ASSIGN   2277--ASSIGN   2304--ASSIGN   2348--ASSIGN   2539--ASSIGN   2565--ASSIGN
U$ACC
      1922**DCL-ENT  2621--CALL
U$CON
      1922**DCL-ENT  2548--CALL
U$DIS
      1922**DCL-ENT  2574--CALL
U$ERS
      1921**DCL-ENT  2599--CALL
PL6.E3A0      #001=ZIA$IDS_INT File=ZIA$IDS_INT_USER.:ZIC0TSI                    FRI 09/05/97 11:34 Page:62
U$FCT
      1923**DCL-ENT  2522--CALL
U$FDC
      1923**DCL-ENT  2496--CALL
U$FDR
      1924**DCL-ENT  2268--CALL
U$FIN
      1921**DCL-ENT  2402--CALL
U$FOR
      1923**DCL-ENT  2339--CALL
U$FRI
      1925**DCL-ENT  2320--CALL
U$FRS
      1924**DCL-ENT  2295--CALL
U$GET
      1925**DCL-ENT  2360--CALL
U$HIA
      1921**DCL-ENT  2212--CALL
U$INA
      1928**DCL-ENT  2246--CALL
U$MOD
      1921**DCL-ENT  2436--CALL     2454--CALL
U$NBF
      1927**DCL-ENT  2378--CALL
U$RDY
      1921**DCL-ENT  2229--CALL
U$SHALL
      1926**DCL-ENT  2641--CALL
U$SHIN
      1926**DCL-ENT  2658--CALL
U$SHNO
      1926**DCL-ENT  2675--CALL
U$STO
      1921**DCL-ENT  2475--CALL
USE_PROC
      1299**DCL      1944--DCLINIT  1957--DCLINIT  1970--DCLINIT  1983--DCLINIT  1996--DCLINIT  2008--DCLINIT
PL6.E3A0      #001=ZIA$IDS_INT File=ZIA$IDS_INT_USER.:ZIC0TSI                    FRI 09/05/97 11:34 Page:63
      2020--DCLINIT  2035--DCLINIT  2049--DCLINIT  2065--DCLINIT  2082--DCLINIT  2099--DCLINIT  2114--DCLINIT
      2137--DCLINIT  2150--DCLINIT  2166--DCLINIT  2181--DCLINIT  2196--DCLINIT
UWA
       948**DCL      1285--DCLINIT  1944--DCLINIT  1957--DCLINIT  1970--DCLINIT  1983--DCLINIT  1996--DCLINIT
      2008--DCLINIT  2020--DCLINIT  2035--DCLINIT  2049--DCLINIT  2065--DCLINIT  2082--DCLINIT  2099--DCLINIT
      2114--DCLINIT  2137--DCLINIT  2150--DCLINIT  2166--DCLINIT  2181--DCLINIT  2196--DCLINIT
UWA.AC.CALC_NEXT
      1058**DCL      1059--REDEF
UWA.AC.CALC_PRIOR
      1067**DCL      1068--REDEF
UWA.AC.DEFAULTS
      1019**DCL      1020--REDEF
UWA.AC.FILE_CODE
      1024**DCL      1025--REDEF
UWA.AC.FLAG1.ERROR_TYPE
      1021**DCL      1022--REDEF
WORD36
      1933**DCL      2368--ASSIGN   2386>>IF       2420>>IF       2422>>IF
