
 11:36 09/05/97  FILE=ZIC$DBCLC.:ZIC0TSI                                                                 1    BMAP - B00
                                         1  *M* ZIC$DBCLC    EDMS IDS CONVERSION     CALC ROUTINE             *
                                         2  *T***********************************************************
                                         3  *T*                                                         *
                                         4  *T* Copyright (c) Bull HN Information Systems Inc., 1997    *
                                         5  *T*                                                         *
                                         6  *T***********************************************************

 11:36 09/05/97  FILE=ZIC$DBCLC.:ZIC0TSI      IDS/II CALC ROUTINE                                        2    BMAP - B00
                                         7         TTL     IDS/II CALC ROUTINE
                                         8         CPR     1979
                                         9         PMC     OFF
                                        10         ENTDEF  ZIC$DBCLC
                                        11         SYMDEF  HASH
                                        12         SYMDEF  TALLY
                                        13         SYMDEF  CCHAR
                                        14         SYMDEF  CLNG
                                        15         SYMDEF  TALLY1
                                        16         SYMDEF  CDBK
                                        17         SYMDEF  PGNO
                                        18         SYMDEF  LNNO
                                        19         SYMREF  AC$
                                        20         SYMREF  RA$
                                        21         SYMREF  KEY$
                                        22         SYMREF  ITEM$
                                        23         SYMREF  REC$
                                        24           SYMREF      CALCHDRS
                                        25         LODM    ZIC_INCL
             000000400000               26         Q2SYM
             700000000000
             000000000011
             000000000010
             000000000004
             000000000003
             000000000000
             000000000001
             000000000002
             000000000003
             000000000005
             000000000004
 0 000000                               27  ZIC$DBCLC NULL
   000000 (2)000001 4500 00             28         STZ     TALLY                   INITIALIZE TALLY
   000001 (2)000005 4500 00             29         STZ     TALLY1                  INITIALIZE TALLY1
   000002 (2)000000 4500 00             30         STZ     HASH                    INITIALIZE HASH
   000003 (2)000002 4500 00             31         STZ     CCHAR                   INITIALIZE CCHAR
   000004 (2)000006 4500 00             32         STZ     CDBK                    INITIALIZE CDBK
 11:36 09/05/97  FILE=ZIC$DBCLC.:ZIC0TSI      IDS/II CALC ROUTINE                                        3    BMAP - B00
   000005  X 000000 4774 00             33         LDP     PR7,AC$                 PTR TO AC_REC
   000006  X 000000 4764 00             34         LDP     PR6,RA$                 PTR TO RA_REC
   000007  X 000000 4754 00             35         LDP     PR5,KEY$                PTR TO KEY$ARRY
   000010  X 000000 4744 00             36         LDP     PR4,ITEM$               PTR TO ITEM
   000011 (2)000001 0540 00             37  LOOP1  AOS     TALLY                   INCR TALLY BY 1
   000012    5 00000 2351 00            38         LDA   0,,PR5                    $A = KEY$ARRY(1)
   000013 (2)000001 1150 00             39         CMPA   TALLY
   000014 (0)000054 6020 00             40         TNC     LFR                     TRANS. ON TALLY > $A
   000015 (2)000001 7230 00             41         LXL     X3,TALLY                $X3 = TALLY
   000016    5 00000 2361 13            42         LDQ     0,X3,PR5                $Q = KEY$ARRY(TALLY)
   000017    000006 4020 07             43         MPY     6,DL                     # OF ELEMENTS IN ITEM TABLE
   000020 (2)000005 7560 00             44         STQ     TALLY1
   000021 (2)000005 7230 00             45         LXL     X3,TALLY1
                                        46  * FOUND THE ITEM IN THE ARRAY CONTINUE
   000022    4 00005 2351 13            47         LDA     ROFSET,X3,PR4           $A = ITEM.EIS(TALLY)
   000023    020000 3150 03             48         CANA    =O020000,DU               IS IT NUMERIC EIS DESC.
   000024 (0)000026 6010 00             49         TNZ     *+2                     NO  GO +2
   000025 (1)000000 3750 00             50         ANA     =O777777740077          MAKE IT ALPHA-NUMERIC EIS DESC.
   000026 (2)000004 7550 00             51         STA     TEIS                    STORE IT IN TEIS
   000027    007777 3750 07             52         ANA     =O7777,DL               ISOLATE SIZE OF CALC FIELD
   000030    000022 7350 00             53         ALS     18
   000031 (2)000003 7550 00             54         STA     CLNG                    STORE SIZE INTO CLNG
   000032                               55  RAND   NULL
   000032    000000 6220 00             56         EAX     X2,0                    $X2 = 0
   000033  X 000000 4734 00             57         LDP     PR3,REC$                PTR TO RECORD
   000034 (2)000000 2350 00             58         LDA     HASH                    $A = HASH
   000035                               59  LOOP2  NULL
   000035    000 0 000 1005 32          60         MLR     (1,,1,2),,0,0
   000036 (2)000004 0000 00             61         ARG     TEIS                    MOVE 1 CHAR OF CALC FIELD TO
   000037 (2)000002 6 0 0 0001          62         ADSC9   CCHAR,3,1               TO CCHAR (1 CHAR AT A TIME)
   000040 (2)000002 0350 00             63         ADLA    CCHAR
   000041    000027 7750 00             64         ALR     36-13
   000042    000001 3150 07             65         CANA    1,DL
   000043 (0)000045 6010 00             66         TNZ     *+2
   000044    400000 6750 03             67         ERA     .BO,DU                  HASH CCHAR
   000045 (2)000002 0350 00             68         ADLA    CCHAR
   000046    000027 7750 00             69         ALR     36-13
 11:36 09/05/97  FILE=ZIC$DBCLC.:ZIC0TSI      IDS/II CALC ROUTINE                                        4    BMAP - B00
   000047    000001 6220 12             70         EAX     X2,1,X2                 $X2 = $X2 +1
   000050 (2)000003 1020 00             71         CMPX    X2,CLNG                 COMPARE $X2 TO CLNG
   000051 (0)000035 6020 00             72         TNC     LOOP2                   TRANS X$ > CLNG
                                        73  * DONE WITH THIS FIELD GET NEXT ONE
   000052 (2)000000 7550 00             74         STA     HASH                    $A = HASH
   000053 (0)000011 7100 00             75         TRA     LOOP1
                                        76  *
                                        77  *  ALL FR'S HASHED - GENERATE BASIC CALC HEADER DBK
                                        78  *
   000054                               79  LFR    NULL
   000054    6 00001 2351 00            80           LDA      HIGHDBK,,PR6         High DBK in RA
   000055    7 00004 1151 00            81           CMPA     MAXDBK,,PR7          Same as in AC
   000056 (0)000061 6010 00             82           TNZ      USERA                No.  Use RA range
   000057  X 000000 2350 00             83           LDA      CALCHDRS             # of calc headers in area
   000060 (0)000062 7100 00             84           TRA      DIVIDE
   000061    6 00002 2351 00            85  USERA    LDA      NCHRS,,PR6           # of calc headers in range
   000062 (2)000011 7550 00             86  DIVIDE   STA      NCH                  Save for later
   000063    000000 6360 00             87         EAQ     0                       $Q = 0
   000064    000001 2350 07             88         LDA     1,DL                    $A = 1
   000065 (2)000011 1150 00             89         CMPA    NCH                     COMPARE $Q TO 1
   000066 (0)000074 6030 00             90         TRC     RZERO                   TRANS <=
   000067    000000 6350 00             91         EAA     0                       $A = 0
   000070 (2)000000 2360 00             92         LDQ     HASH                    $Q =HASH
   000071    000001 7370 00             93         LLS     1                       DOUBLE $Q FOR THE DIVIDE-FRACTION
   000072 (2)000011 5070 00             94         DVF     NCH                     DIVIDE-FRACTION(QUOTIENT IN $Q)
   000073    7 00011 4021 00            95         MPY     INVTL,,PR7              $Q = $Q * DBK/CALC-HDR
   000074                               96  RZERO  NULL
   000074    6 00000 0361 00            97         ADLQ    PGRNG,,PR6              $Q = $Q * LOW-DBK
   000075    6 00003 0361 00            98         ADLQ    CHRD,,PR6               $Q = $Q * # OF CALC-HDRS
   000076 (2)000006 7560 00             99         STQ     CDBK                    CDBK = $Q
   000077 (2)000001 4500 00            100         STZ    TALLY                    INIT TALLY
   000100    7 00010 2351 00           101         LDA     LPP,,PR7                $A = LINES/PAGE
   000101 (2)000001 0540 00            102  LOOP3  AOS    TALLY                    ADD 1 TO TALLY
   000102    000001 7350 00            103         ALS     1                       $A LEFT SHIFT 1 BIT
   000103 (0)000105 6040 00            104         TMI     EXT                     TRANS IF $Q IS NEGATIVE
   000104 (0)000101 7100 00            105         TRA     LOOP3
   000105                              106  EXT    NULL
 11:36 09/05/97  FILE=ZIC$DBCLC.:ZIC0TSI      IDS/II CALC ROUTINE                                        5    BMAP - B00
   000105 (2)000001 0540 00            107         AOS     TALLY                   ADD 1 TO TALLY
   000106    000000 2350 07            108         LDA     0,DL                     $A = 0
   000107 (2)000006 2360 00            109         LDQ     CDBK                     $Q = CDBK
   000110    7 00003 1361 00           110         SBLQ    DBLIM,,PR7              $Q = $Q - LOW-BK
   000111    7 00010 0361 00           111         ADLQ    LPP,,PR7                $Q = $Q * LINES/PAGE
   000112 (2)000001 7220 00            112         LXL    X2,TALLY                 $X2 = TALLY
   000113    000000 7370 12            113         LLS     ,X2                     LONG LEFT SHIFT $AQ BY $X2 BITS
   000114    000000 7720 12            114         QRL     ,X2                     RIGHT SHIFT $Q BY $X2 BITS
   000115 (2)000007 7550 00            115         STA     PGNO                    $A NOW CONTAINS THE PAGE #
   000116 (2)000010 7560 00            116         STQ     LNNO
   000117                              117  RET1   NULL                            $Q CONTAINS THE LINE #(NOT NEEDED)
   000117    000001 7100 11            118         TRA 1,X1
                                       119          USE     ZIC$DBCLC_D,0
 2 000000
   000000    000000000000              120  HASH   DEC     0
   000001    000000000000              121  TALLY  DEC     0
   000002    000000000000              122  CCHAR  DEC     0
   000003    000000000000              123  CLNG   DEC     0
   000004    000000000000              124  TEIS   DEC     0
   000005    000000000000              125  TALLY1 DEC     0
   000006    000000000000              126  CDBK   DEC     0
   000007    000000000000              127  PGNO   DEC     0
   000010    000000000000              128  LNNO   DEC     0
   000011    000000000000              129  NCH      DEC      0
                                       130         END
 1 000000    777777740077

  CONTROL SECTION TABLE

   0 CODE   EVEN  000120
   1 RODATA EVEN  000001 LITERALS
   2 DATA   EVEN  000012 ZIC$DBCLC_D

 11:36 09/05/97  FILE=ZIC$DBCLC.:ZIC0TSI      SYMBOL TABLE                                               6    BMAP - B00
 41000000 000000400000 .BO            *26        67
 40000000 700000000000 .LOG           *26
 03301000 000000000000 AC$            *19        33
 40000000 000000000004 BEIST          *26
 03301005 000000000000 CALCHDRS       *24        83
 07101002 000000000002 CCHAR           13        31        62        63        68      *122
 07101002 000000000006 CDBK            16        32        99       109      *126
 41000000 000000000003 CHRD           *26        98
 07101002 000000000003 CLNG            14        54        71      *123
 41000000 000000000003 DBLIM          *26       110
 01101000 000000000062 DIVIDE          84       *86
 01101000 000000000105 EXT            104      *106
 07101002 000000000000 HASH            11        30        58        74        92      *120
 41000000 000000000001 HIGHDBK        *26        80
 41000000 000000000011 INVTL          *26        95
 03301003 000000000000 ITEM$          *22        36
 03301002 000000000000 KEY$           *21        35
 01101000 000000000054 LFR             40       *79
 07101002 000000000010 LNNO            18       116      *128
 01101000 000000000011 LOOP1          *37        75
 01101000 000000000035 LOOP2          *59        72
 01101000 000000000101 LOOP3         *102       105
 41000000 000000000010 LPP            *26       101       111
 41000000 000000000004 MAXDBK         *26        81
 01101002 000000000011 NCH             86        89        94      *129
 41000000 000000000002 NCHRS          *26        85
 07101002 000000000007 PGNO            17       115      *127
 41000000 000000000000 PGRNG          *26        97
 40000000 000000000000 PR0            *25
 40000000 000000000001 PR1            *25
 40000000 000000000002 PR2            *25
 41000000 000000000003 PR3            *25        57
 41000000 000000000004 PR4            *25        36        47
 41000000 000000000005 PR5            *25        35        38        42
 41000000 000000000006 PR6            *25        34        80        85        97        98
 41000000 000000000007 PR7            *25        33        81        95       101       110       111
 03301001 000000000000 RA$            *20        34
 11:36 09/05/97  FILE=ZIC$DBCLC.:ZIC0TSI      SYMBOL TABLE                                               7    BMAP - B00
 00101000 000000000032 RAND           *55
 03301004 000000000000 REC$           *23        57
 00101000 000000000117 RET1          *117
 41000000 000000000005 ROFSET         *26        47
 01101000 000000000074 RZERO           90       *96
 07101002 000000000001 TALLY           12        28        37        39        41       100       102
                                      107       112      *121
 07101002 000000000005 TALLY1          15        29        44        45      *125
 01101002 000000000004 TEIS            51        61      *124
 01101000 000000000061 USERA           82       *85
 40000000 000000000000 X0             *25
 40000000 000000000001 X1             *25
 41000000 000000000002 X2             *25        56        70        71       112
 41000000 000000000003 X3             *25        41        45
 40000000 000000000004 X4             *25
 40000000 000000000005 X5             *25
 40000000 000000000006 X6             *25
 40000000 000000000007 X7             *25
 12101000 000000000000 ZIC$DBCLC       10       *27

      55 SYMBOLS

 11:36 09/05/97  FILE=ZIC$DBCLC.:ZIC0TSI      MACRO TABLE                                                8    BMAP - B00
 Q2SYM           26

       1 MACRO

    SYMBOL SPACE USED   685 WORDS
     MACRO SPACE USED    59 WORDS
   INPUT RECORDS READ   301
 STATEMENTS PROCESSED   182
         ELAPSED TIME  0:02.84
             CPU TIME     1.33 SEC.
        ASSEMBLY RATE  8211 STATEMENTS/CPU MIN.

      NO ERRORS

