
PL6.E3A0      #001=DB_FUNC_HIA File=ZIC$IDSFUNCS.:ZIC0TSI                        FRI 09/05/97 11:38 Page:1
        1        1        /*T***********************************************************/
        2        2        /*T*                                                         */
        3        3        /*T* Copyright (c) Bull HN Information Systems Inc., 1997    */
        4        4        /*T*                                                         */
        5        5        /*T***********************************************************/
        6        6        DB_FUNC_HIA: PROC(SCHNAM) ALTRET;
        7        7    1   DCL STAT_CHK ENTRY(1) ALTRET;
        8        8    1   DCL SCHNAM CHAR(30) ALIGNED;
        9        9        /**/
       10       10        %INCLUDE ZI_UWA_C;
       11      700        %ZI$UWAB;
       12     1040        %INCLUDE ZI_RVA_C;
       13     1721        %CAN_RVA_REF;
       14     2040        %IA_MAC;
       15     2051        %DB_MAC;
       16     2058        %USEP_MAC;
       17     2066        %INCLUDE ZI_DBCS;
       18     2679        %ASL;
       19     2693        %IPT_HIA (IAN=IA,UWAN=UWA,RVAN=CAN_RVA,USEPN=USEP);
       20     2704        /**/
       21     2705    1       IA.SCH=SCHNAM;
       22     2706            %CLIMB(FCN=HIA);
       23     2720    1       CALL STAT_CHK(UWA.DB_STATUS) ALTRET(ALT_HIA);
       24     2721    1       RETURN;
       25     2722    1   ALT_HIA:
       26     2723    1       ALTRETURN;
       27     2724    1   END DB_FUNC_HIA;
       28     2725        %EOD;

PL6.E3A0      #001=DB_FUNC_HIA File=ZIC$IDSFUNCS.:ZIC0TSI                        FRI 09/05/97 11:38 Page:2
--  Include file information  --

   ZI_DBCS.:ZIC0TOU  is referenced.
   ZI_RVA_C.:ZIC0TOU  is referenced.
   ZI_UWA_C.:ZIC0TOU  is referenced.
   B$JIT_C.:E05TOU  was found in the system file and is never referenced.
   CP_6_C.:E05TOU  was found in the system file and is never referenced.
      No diagnostics issued in procedure DB_FUNC_HIA.

   Procedure DB_FUNC_HIA requires 15 words for executable code.
   Procedure DB_FUNC_HIA requires 10 words of local(AUTO) storage.

PL6.E3A0      #001=DB_FUNC_HIA File=ZIC$IDSFUNCS.:ZIC0TSI                        FRI 09/05/97 11:38 Page:3

 Object Unit name= DB_FUNC_HIA                                File name= ZIC$IDSFUNCS.:ZIC0TOU
 UTS= SEP 05 '97 11:38:24.20 FRI                              Compiler= PL-6/E31         Sev=      00
 SharedLib= :SHARED_SYSTEM                                    Alt SharedLib=


    ****  Control sections  ****

 Sect   Type Bound  Init  Size OctSiz  Section name(segment info)
    0   Data  even  none    60     74  DB_FUNC_HIA
    1   Proc  even  none    15     17  DB_FUNC_HIA
    2  RoData even  none     2      2  DB_FUNC_HIA

    ****  Entry defs  ****

                              Check   Calling
                             calling  sequence
  Sect OctLoc Primary Altret sequence   type   Parms  Name
     1      0   yes    yes     yes      Std        1  DB_FUNC_HIA

  ****  Data defs  ****

 Sect OctLoc  Name                           Sect OctLoc  Name
    0      0  IA

  ****  Entry refs  ****

         Check        Calling
        calling       sequence
Altret sequence SRef   type   Args  Name
 yes     yes           Std       1 STAT_CHK
                       nStd      0 X66_AUTO_1
                       nStd      0 X66_ARET
                       nStd      0 X66_AALT
PL6.E3A0      #001=DB_FUNC_HIA File=ZIC$IDSFUNCS.:ZIC0TSI                        FRI 09/05/97 11:38 Page:4

  ****  Data refs  ****

  Flags:  r = read only, s = secondary
Flgs Name                             Flgs Name                             Flgs Name
     I$HIA                                 UWA                                   CAN_RVA

  ****  Segment refs  ****

  Flags:  r = read only, s = secondary
Flgs Name                             Flgs Name                             Flgs Name
     ISSID                                 NULLSID                               ASLENTSID
PL6.E3A0      #001=DB_FUNC_HIA File=ZIC$IDSFUNCS.:ZIC0TSI                        FRI 09/05/97 11:38 Page:5


        1        1        /*T***********************************************************/
        2        2        /*T*                                                         */
        3        3        /*T* Copyright (c) Bull HN Information Systems Inc., 1997    */
        4        4        /*T*                                                         */
        5        5        /*T***********************************************************/
        6        6        DB_FUNC_HIA: PROC(SCHNAM) ALTRET;

      6  1 000000   000000 700200 xent  DB_FUNC_HIA  TSX0  ! X66_AUTO_1
         1 000001   000012 000001                    ZERO    10,1

        7        7    1   DCL STAT_CHK ENTRY(1) ALTRET;
        8        8    1   DCL SCHNAM CHAR(30) ALIGNED;
        9        9        /**/
       10       10        %INCLUDE ZI_UWA_C;
       11      700        %ZI$UWAB;
       12     1040        %INCLUDE ZI_RVA_C;
       13     1721        %CAN_RVA_REF;
       14     2040        %IA_MAC;
       15     2051        %DB_MAC;
       16     2058        %USEP_MAC;
       17     2066        %INCLUDE ZI_DBCS;
       18     2679        %ASL;
       19     2693        %IPT_HIA (IAN=IA,UWAN=UWA,RVAN=CAN_RVA,USEPN=USEP);
       20     2704        /**/
       21     2705    1       IA.SCH=SCHNAM;

   2705  1 000002   200003 470500                    LDP0    @SCHNAM,,AUTO
         1 000003   040000 100500                    MLR     fill='040'O
         1 000004   000000 000036                    ADSC9   0,,PR0                   cn=0,n=30
         1 000005   000012 000040 0                  ADSC9   IA+10                    cn=0,n=32

       22     2706            %CLIMB(FCN=HIA);

   2714  1 000006   000062 630400 0                  EPPR0   IPT_HIA
         1 000007   000000 713400 xsym               CLIMB   I$HIA
         1 000010   402000 600000 xsid               climb   nvectors=         5
PL6.E3A0      #001=DB_FUNC_HIA File=ZIC$IDSFUNCS.:ZIC0TSI                        FRI 09/05/97 11:38 Page:6

       23     2720    1       CALL STAT_CHK(UWA.DB_STATUS) ALTRET(ALT_HIA);

   2720  1 000011   000001 630400 2                  EPPR0   1
         1 000012   000000 631400 2                  EPPR1   0
         1 000013   000000 701000 xent               TSX1    STAT_CHK
         1 000014   000016 702000 1                  TSX2    ALT_HIA

       24     2721    1       RETURN;

   2721  1 000015   000000 702200 xent               TSX2  ! X66_ARET

       25     2722    1   ALT_HIA:
       26     2723    1       ALTRETURN;

   2723  1 000016   000000 702200 xent  ALT_HIA      TSX2  ! X66_AALT

IA
 Sect OctLoc
   0     000   000000 000000   000000 006000   ****** ******   ****** ******    ................
   0     010*  000000 006000   000000 000000   ****** ******   ****** ******    ................
   0     020*  ****** ******   ****** ******   123125 102064   040040 040040    ........SUB4
   0     024   040040 040040   040040 040040   040040 040040   040040 040040
   0     030   040040 040040   040040 040040   000000 000000   000000 000000            ........
   0     034   000000 000000   000000 000000   000000 000000   000000 000000    ................
   0     050*  000000 000000   000000 000000   000000 000000   ****** ******    ................
   0     054   ****** ******   ****** ******                                    ........

USEP
 Sect OctLoc
   0     056   000001 000000   003017 204400   000000 000000                    ............

IPT_HIA
 Sect OctLoc
   0     062   000000 177640   000000 006014   000055 777640   000000 006000    .........-......
   0     066   001217 777640   000000 006000   000151 777640   000000 006000    .........i......
   0     072   000003 777640   000056 006000                                    ........
PL6.E3A0      #001=DB_FUNC_HIA File=ZIC$IDSFUNCS.:ZIC0TSI                        FRI 09/05/97 11:38 Page:7

(unnamed)
 Sect OctLoc
   2     000   000001 000000   000001 406000                                    ........
       27     2724    1   END DB_FUNC_HIA;
       28     2725        %EOD;

PL6.E3A0      #001=DB_FUNC_HIA File=ZIC$IDSFUNCS.:ZIC0TSI                        FRI 09/05/97 11:38 Page:8
--  Include file information  --

   ZI_DBCS.:ZIC0TOU  is referenced.
   ZI_RVA_C.:ZIC0TOU  is referenced.
   ZI_UWA_C.:ZIC0TOU  is referenced.
   B$JIT_C.:E05TOU  was found in the system file and is never referenced.
   CP_6_C.:E05TOU  was found in the system file and is never referenced.
      No diagnostics issued in procedure DB_FUNC_HIA.

   Procedure DB_FUNC_HIA requires 15 words for executable code.
   Procedure DB_FUNC_HIA requires 10 words of local(AUTO) storage.
PL6.E3A0      #001=DB_FUNC_HIA File=ZIC$IDSFUNCS.:ZIC0TSI                        FRI 09/05/97 11:38 Page:9
          *** CROSS REFERENCE LISTING ***
**     DENOTES     IDENTIFIER DEFINITION
<<                 IDENTIFIER'S VALUE SET
>>                 IDENTIFIER'S VALUE USED
<>                 IDENTIFIER SET AND/OR USED
--                 IDENTIFIER REFERENCED
PL6.E3A0      #001=DB_FUNC_HIA File=ZIC$IDSFUNCS.:ZIC0TSI                        FRI 09/05/97 11:38 Page:10
          MINI XREF LISTING

ALT_HIA
      2723**LABEL    2720--CALLALT
CAN_RVA
      1722**DCL      2045--DCLINIT  2701--DCLINIT
I$HIA
      2681**DCL-ENT  2714--CALL
IA
      2041**DCL      2700--DCLINIT
IA.SCH
      2047**DCL      2705<<ASSIGN
IPT_HIA
      2700**DCL      2714<>CALL
SCHNAM
         8**DCL         6--PROC     2705>>ASSIGN
STAT_CHK
         7**DCL-ENT  2720--CALL
USEP
      2059**DCL      2701--DCLINIT
UWA
       701**DCL      2043--DCLINIT  2701--DCLINIT
UWA.AC_REC.CALC_NEXT
       816**DCL       817--REDEF
UWA.AC_REC.CALC_PRIOR
       825**DCL       826--REDEF
UWA.AC_REC.DEFAULTS
       774**DCL       775--REDEF
UWA.AC_REC.FILE_CODE
       779**DCL       780--REDEF
UWA.AC_REC.FLAG1.ERROR_TYPE
       776**DCL       777--REDEF
UWA.AC_REC.PG_TYPE
       791**DCL       792--REDEF
PL6.E3A0      #001=DB_FUNC_HIA File=ZIC$IDSFUNCS.:ZIC0TSI                        FRI 09/05/97 11:38 Page:11
UWA.AD_REC.ADDATE
       756**DCL       757--REDEF
UWA.DB_STATUS
       704**DCL      2720<>CALL

PL6.E3A0      #002=DB_FUNC_READY File=ZIC$IDSFUNCS.:ZIC0TSI                      FRI 09/05/97 11:38 Page:12
       29        1        /*T***********************************************************/
       30        2        /*T*                                                         */
       31        3        /*T* Copyright (c) Bull HN Information Systems Inc., 1997    */
       32        4        /*T*                                                         */
       33        5        /*T***********************************************************/
       34        6        DB_FUNC_READY: PROC ALTRET;
       35        7    1   DCL STAT_CHK ENTRY(1) ALTRET;
       36        8        /**/
       37        9        %INCLUDE ZI_UWA_C;
       38      699        %ZI$UWAB;
       39     1039        %INCLUDE ZI_RVA_C;
       40     1720        %CAN_RVA_REF;
       41     2039        %IA$MAC;
       42     2050        %DB_MAC;
       43     2057        %USEP_MAC;
       44     2065        %INCLUDE ZI_DBCS;
       45     2678        %ASL;
       46     2692        %IPT_RDY (IAN=IA,UWAN=UWA,RVAN=CAN_RVA,USEPN=USEP,READY_OPTION=INPUT);
       47     2706        /**/
       48     2707         %CLIMB(FCN=RDY);
       49     2721    1       CALL STAT_CHK(UWA.DB_STATUS) ALTRET(ALT_RDY);
       50     2722    1       RETURN;
       51     2723    1   ALT_RDY:
       52     2724    1       ALTRETURN;
       53     2725    1   END DB_FUNC_READY;
       54     2726        %EOD;

PL6.E3A0      #002=DB_FUNC_READY File=ZIC$IDSFUNCS.:ZIC0TSI                      FRI 09/05/97 11:38 Page:13
--  Include file information  --

   ZI_DBCS.:ZIC0TOU  is referenced.
   ZI_RVA_C.:ZIC0TOU  is referenced.
   ZI_UWA_C.:ZIC0TOU  is referenced.
   B$JIT_C.:E05TOU  was found in the system file and is never referenced.
   CP_6_C.:E05TOU  was found in the system file and is never referenced.
      No diagnostics issued in procedure DB_FUNC_READY.

   Procedure DB_FUNC_READY requires 11 words for executable code.
   Procedure DB_FUNC_READY requires 8 words of local(AUTO) storage.

PL6.E3A0      #002=DB_FUNC_READY File=ZIC$IDSFUNCS.:ZIC0TSI                      FRI 09/05/97 11:38 Page:14

 Object Unit name= DB_FUNC_READY                              File name= ZIC$IDSFUNCS.:ZIC0TOU
 UTS= SEP 05 '97 11:38:35.88 FRI                              Compiler= PL-6/E31         Sev=      00
 SharedLib= :SHARED_SYSTEM                                    Alt SharedLib=


    ****  Control sections  ****

 Sect   Type Bound  Init  Size OctSiz  Section name(segment info)
    0   Data  even  none    16     20  DB_FUNC_READY
    1   Proc  even  none    11     13  DB_FUNC_READY
    2  RoData even  none     2      2  DB_FUNC_READY

    ****  Entry defs  ****

                              Check   Calling
                             calling  sequence
  Sect OctLoc Primary Altret sequence   type   Parms  Name
     1      0   yes    yes     yes      Std        0  DB_FUNC_READY

  ****  Entry refs  ****

         Check        Calling
        calling       sequence
Altret sequence SRef   type   Args  Name
 yes     yes           Std       1 STAT_CHK
                       nStd      0 X66_AUTO_0
                       nStd      0 X66_ARET
                       nStd      0 X66_AALT

  ****  Data refs  ****

  Flags:  r = read only, s = secondary
Flgs Name                             Flgs Name                             Flgs Name
     I$RDY                                 UWA                                   CAN_RVA
     IA
PL6.E3A0      #002=DB_FUNC_READY File=ZIC$IDSFUNCS.:ZIC0TSI                      FRI 09/05/97 11:38 Page:15

  ****  Segment refs  ****

  Flags:  r = read only, s = secondary
Flgs Name                             Flgs Name                             Flgs Name
     ISSID                                 ASLENTSID
PL6.E3A0      #002=DB_FUNC_READY File=ZIC$IDSFUNCS.:ZIC0TSI                      FRI 09/05/97 11:38 Page:16


       29        1        /*T***********************************************************/
       30        2        /*T*                                                         */
       31        3        /*T* Copyright (c) Bull HN Information Systems Inc., 1997    */
       32        4        /*T*                                                         */
       33        5        /*T***********************************************************/
       34        6        DB_FUNC_READY: PROC ALTRET;

      6  1 000000   000000 700200 xent  DB_FUNC_REA* TSX0  ! X66_AUTO_0
         1 000001   000010 000000                    ZERO    8,0

       35        7    1   DCL STAT_CHK ENTRY(1) ALTRET;
       36        8        /**/
       37        9        %INCLUDE ZI_UWA_C;
       38      699        %ZI$UWAB;
       39     1039        %INCLUDE ZI_RVA_C;
       40     1720        %CAN_RVA_REF;
       41     2039        %IA$MAC;
       42     2050        %DB_MAC;
       43     2057        %USEP_MAC;
       44     2065        %INCLUDE ZI_DBCS;
       45     2678        %ASL;
       46     2692        %IPT_RDY (IAN=IA,UWAN=UWA,RVAN=CAN_RVA,USEPN=USEP,READY_OPTION=INPUT);
       47     2706        /**/
       48     2707         %CLIMB(FCN=RDY);

   2715  1 000002   000004 630400 0                  EPPR0   IPT_RDY
         1 000003   000000 713400 xsym               CLIMB   I$RDY
         1 000004   402000 600000 xsid               climb   nvectors=         5

       49     2721    1       CALL STAT_CHK(UWA.DB_STATUS) ALTRET(ALT_RDY);

   2721  1 000005   000001 630400 2                  EPPR0   1
         1 000006   000000 631400 2                  EPPR1   0
         1 000007   000000 701000 xent               TSX1    STAT_CHK
         1 000010   000012 702000 1                  TSX2    ALT_RDY

PL6.E3A0      #002=DB_FUNC_READY File=ZIC$IDSFUNCS.:ZIC0TSI                      FRI 09/05/97 11:38 Page:17
       50     2722    1       RETURN;

   2722  1 000011   000000 702200 xent               TSX2  ! X66_ARET

       51     2723    1   ALT_RDY:
       52     2724    1       ALTRETURN;

   2724  1 000012   000000 702200 xent  ALT_RDY      TSX2  ! X66_AALT

USEP
 Sect OctLoc
   0     000   000001 000000   003017 204400   000000 000000                    ............

IPT_RDY
 Sect OctLoc
   0     004   000001 777640   000016 006000   000055 777640   000000 006000    .........-......
   0     010   001217 777640   000000 006000   000151 777640   000000 006000    .........i......
   0     014   000003 777640   000000 006000   000020 000000   000000 000000    ................

(unnamed)
 Sect OctLoc
   2     000   000001 000000   000001 406000                                    ........
       53     2725    1   END DB_FUNC_READY;
       54     2726        %EOD;

PL6.E3A0      #002=DB_FUNC_READY File=ZIC$IDSFUNCS.:ZIC0TSI                      FRI 09/05/97 11:38 Page:18
--  Include file information  --

   ZI_DBCS.:ZIC0TOU  is referenced.
   ZI_RVA_C.:ZIC0TOU  is referenced.
   ZI_UWA_C.:ZIC0TOU  is referenced.
   B$JIT_C.:E05TOU  was found in the system file and is never referenced.
   CP_6_C.:E05TOU  was found in the system file and is never referenced.
      No diagnostics issued in procedure DB_FUNC_READY.

   Procedure DB_FUNC_READY requires 11 words for executable code.
   Procedure DB_FUNC_READY requires 8 words of local(AUTO) storage.
PL6.E3A0      #002=DB_FUNC_READY File=ZIC$IDSFUNCS.:ZIC0TSI                      FRI 09/05/97 11:38 Page:19
          *** CROSS REFERENCE LISTING ***
**     DENOTES     IDENTIFIER DEFINITION
<<                 IDENTIFIER'S VALUE SET
>>                 IDENTIFIER'S VALUE USED
<>                 IDENTIFIER SET AND/OR USED
--                 IDENTIFIER REFERENCED
PL6.E3A0      #002=DB_FUNC_READY File=ZIC$IDSFUNCS.:ZIC0TSI                      FRI 09/05/97 11:38 Page:20
          MINI XREF LISTING

ALT_RDY
      2724**LABEL    2721--CALLALT
CAN_RVA
      1721**DCL      2700--DCLINIT
I$RDY
      2680**DCL-ENT  2715--CALL
IA
      2040**DCL      2699--DCLINIT
IPT_RDY
      2699**DCL      2715<>CALL
IPT_RDY.V
      2701**DCL      2699--DCLINIT
STAT_CHK
         7**DCL-ENT  2721--CALL
USEP
      2058**DCL      2700--DCLINIT
UWA
       700**DCL      2700--DCLINIT
UWA.AC_REC.CALC_NEXT
       815**DCL       816--REDEF
UWA.AC_REC.CALC_PRIOR
       824**DCL       825--REDEF
UWA.AC_REC.DEFAULTS
       773**DCL       774--REDEF
UWA.AC_REC.FILE_CODE
       778**DCL       779--REDEF
UWA.AC_REC.FLAG1.ERROR_TYPE
       775**DCL       776--REDEF
UWA.AC_REC.PG_TYPE
       790**DCL       791--REDEF
UWA.AD_REC.ADDATE
       755**DCL       756--REDEF
PL6.E3A0      #002=DB_FUNC_READY File=ZIC$IDSFUNCS.:ZIC0TSI                      FRI 09/05/97 11:38 Page:21
UWA.DB_STATUS
       703**DCL      2721<>CALL

PL6.E3A0      #003=DB_FUNC_FDR File=ZIC$IDSFUNCS.:ZIC0TSI                        FRI 09/05/97 11:38 Page:22
       55        1        /*T***********************************************************/
       56        2        /*T*                                                         */
       57        3        /*T* Copyright (c) Bull HN Information Systems Inc., 1997    */
       58        4        /*T*                                                         */
       59        5        /*T***********************************************************/
       60        6        DB_FUNC_FDR: PROC(RC_OFF,DB_DBK) ALTRET;
       61        7    1   DCL STAT_CHK ENTRY(1) ALTRET;
       62        8        /**/
       63        9        %INCLUDE ZI_UWA_C;
       64      699        %ZI$UWAB;
       65     1039        %INCLUDE ZI_RVA_C;
       66     1720        %CAN_RVA_REF;
       67     2039        %IA$MAC;
       68     2050        %DB_MAC;
       69     2057        %USEP_MAC;
       70     2065        %INCLUDE ZI_DBCS;
       71     2678        %ASL;
       72     2692        %IPT_FDR (IAN=IA,UWAN=UWA,RVAN=CAN_RVA,USEPN=USEP);
       73     2708        /**/
       74     2709    1       IPT_FDR.V.RC.RC_OFFSET#=POFFW(ADDR(RC_OFF),ADDR(CAN_RVA));
       75     2710    1       IPT_FDR.DBK_=VECTOR(DB_DBK);
       76     2711            %CLIMB(FCN=FDR);
       77     2725    1       CALL STAT_CHK(UWA.DB_STATUS) ALTRET(ALT_FDR);
       78     2726    1       RETURN;
       79     2727    1   ALT_FDR:
       80     2728    1       ALTRETURN;
       81     2729    1   END DB_FUNC_FDR;
       82     2730        %EOD;

PL6.E3A0      #003=DB_FUNC_FDR File=ZIC$IDSFUNCS.:ZIC0TSI                        FRI 09/05/97 11:38 Page:23
--  Include file information  --

   ZI_DBCS.:ZIC0TOU  is referenced.
   ZI_RVA_C.:ZIC0TOU  is referenced.
   ZI_UWA_C.:ZIC0TOU  is referenced.
   B$JIT_C.:E05TOU  was found in the system file and is never referenced.
   CP_6_C.:E05TOU  was found in the system file and is never referenced.
      No diagnostics issued in procedure DB_FUNC_FDR.

   Procedure DB_FUNC_FDR requires 22 words for executable code.
   Procedure DB_FUNC_FDR requires 10 words of local(AUTO) storage.

PL6.E3A0      #003=DB_FUNC_FDR File=ZIC$IDSFUNCS.:ZIC0TSI                        FRI 09/05/97 11:38 Page:24

 Object Unit name= DB_FUNC_FDR                                File name= ZIC$IDSFUNCS.:ZIC0TOU
 UTS= SEP 05 '97 11:38:47.88 FRI                              Compiler= PL-6/E31         Sev=      00
 SharedLib= :SHARED_SYSTEM                                    Alt SharedLib=


    ****  Control sections  ****

 Sect   Type Bound  Init  Size OctSiz  Section name(segment info)
    0   Data  even  none    20     24  DB_FUNC_FDR
    1   Proc  even  none    22     26  DB_FUNC_FDR
    2  RoData even  none     3      3  DB_FUNC_FDR

    ****  Entry defs  ****

                              Check   Calling
                             calling  sequence
  Sect OctLoc Primary Altret sequence   type   Parms  Name
     1      0   yes    yes     yes      Std        2  DB_FUNC_FDR

  ****  Entry refs  ****

         Check        Calling
        calling       sequence
Altret sequence SRef   type   Args  Name
 yes     yes           Std       1 STAT_CHK
                       nStd      0 X66_AUTO_2
                       nStd      0 X66_ARET
                       nStd      0 X66_AALT

  ****  Data refs  ****

  Flags:  r = read only, s = secondary
Flgs Name                             Flgs Name                             Flgs Name
     I$FDR                                 UWA                                   CAN_RVA
     IA
PL6.E3A0      #003=DB_FUNC_FDR File=ZIC$IDSFUNCS.:ZIC0TSI                        FRI 09/05/97 11:38 Page:25

  ****  Segment refs  ****

  Flags:  r = read only, s = secondary
Flgs Name                             Flgs Name                             Flgs Name
     ISSID                                 NULLSID                               ASLENTSID
PL6.E3A0      #003=DB_FUNC_FDR File=ZIC$IDSFUNCS.:ZIC0TSI                        FRI 09/05/97 11:38 Page:26


       55        1        /*T***********************************************************/
       56        2        /*T*                                                         */
       57        3        /*T* Copyright (c) Bull HN Information Systems Inc., 1997    */
       58        4        /*T*                                                         */
       59        5        /*T***********************************************************/
       60        6        DB_FUNC_FDR: PROC(RC_OFF,DB_DBK) ALTRET;

      6  1 000000   000000 700200 xent  DB_FUNC_FDR  TSX0  ! X66_AUTO_2
         1 000001   000012 000002                    ZERO    10,2

       61        7    1   DCL STAT_CHK ENTRY(1) ALTRET;
       62        8        /**/
       63        9        %INCLUDE ZI_UWA_C;
       64      699        %ZI$UWAB;
       65     1039        %INCLUDE ZI_RVA_C;
       66     1720        %CAN_RVA_REF;
       67     2039        %IA$MAC;
       68     2050        %DB_MAC;
       69     2057        %USEP_MAC;
       70     2065        %INCLUDE ZI_DBCS;
       71     2678        %ASL;
       72     2692        %IPT_FDR (IAN=IA,UWAN=UWA,RVAN=CAN_RVA,USEPN=USEP);
       73     2708        /**/
       74     2709    1       IPT_FDR.V.RC.RC_OFFSET#=POFFW(ADDR(RC_OFF),ADDR(CAN_RVA));

   2709  1 000002   000000 236000 2                  LDQ     0
         1 000003   000022 772000                    QRL     18
         1 000004   200010 756100                    STQ     RET_SET+1,,AUTO
         1 000005   200003 236100                    LDQ     @RC_OFF,,AUTO
         1 000006   000022 772000                    QRL     18
         1 000007   200010 136100                    SBLQ    RET_SET+1,,AUTO
         1 000010   000000 620006                    EAX0    0,QL
         1 000011   000020 740000 0                  STX0    IPT_FDR+12

       75     2710    1       IPT_FDR.DBK_=VECTOR(DB_DBK);

PL6.E3A0      #003=DB_FUNC_FDR File=ZIC$IDSFUNCS.:ZIC0TSI                        FRI 09/05/97 11:38 Page:27
   2710  1 000012   777640 235007                    LDA     -96,DL
         1 000013   200004 236100                    LDQ     @DB_DBK,,AUTO
         1 000014   000016 757000 0                  STAQ    IPT_FDR+10

       76     2711            %CLIMB(FCN=FDR);

   2719  1 000015   000004 630400 0                  EPPR0   IPT_FDR
         1 000016   000000 713400 xsym               CLIMB   I$FDR
         1 000017   402400 600000 xsid               climb   nvectors=         6

       77     2725    1       CALL STAT_CHK(UWA.DB_STATUS) ALTRET(ALT_FDR);

   2725  1 000020   000002 630400 2                  EPPR0   2
         1 000021   000001 631400 2                  EPPR1   1
         1 000022   000000 701000 xent               TSX1    STAT_CHK
         1 000023   000025 702000 1                  TSX2    ALT_FDR

       78     2726    1       RETURN;

   2726  1 000024   000000 702200 xent               TSX2  ! X66_ARET

       79     2727    1   ALT_FDR:
       80     2728    1       ALTRETURN;

   2728  1 000025   000000 702200 xent  ALT_FDR      TSX2  ! X66_AALT

USEP
 Sect OctLoc
   0     000   000001 000000   003017 204400   000000 000000                    ............

IPT_FDR
 Sect OctLoc
   0     004   000003 777640   000020 006000   000055 777640   000000 006000    .........-......
   0     010   001217 777640   000000 006000   000151 777640   000000 006000    .........i......
   0     014   000003 777640   000000 006000   000000 177640   000000 006014    ................
   0     020   000000 000000   000000 000000   000000 000000   000000 000000    ................

PL6.E3A0      #003=DB_FUNC_FDR File=ZIC$IDSFUNCS.:ZIC0TSI                        FRI 09/05/97 11:38 Page:28
(unnamed)
 Sect OctLoc
   2     000   000000 006000   000001 000000   000001 406000                    ............
       81     2729    1   END DB_FUNC_FDR;
       82     2730        %EOD;

PL6.E3A0      #003=DB_FUNC_FDR File=ZIC$IDSFUNCS.:ZIC0TSI                        FRI 09/05/97 11:38 Page:29
--  Include file information  --

   ZI_DBCS.:ZIC0TOU  is referenced.
   ZI_RVA_C.:ZIC0TOU  is referenced.
   ZI_UWA_C.:ZIC0TOU  is referenced.
   B$JIT_C.:E05TOU  was found in the system file and is never referenced.
   CP_6_C.:E05TOU  was found in the system file and is never referenced.
      No diagnostics issued in procedure DB_FUNC_FDR.

   Procedure DB_FUNC_FDR requires 22 words for executable code.
   Procedure DB_FUNC_FDR requires 10 words of local(AUTO) storage.
PL6.E3A0      #003=DB_FUNC_FDR File=ZIC$IDSFUNCS.:ZIC0TSI                        FRI 09/05/97 11:38 Page:30
          *** CROSS REFERENCE LISTING ***
**     DENOTES     IDENTIFIER DEFINITION
<<                 IDENTIFIER'S VALUE SET
>>                 IDENTIFIER'S VALUE USED
<>                 IDENTIFIER SET AND/OR USED
--                 IDENTIFIER REFERENCED
PL6.E3A0      #003=DB_FUNC_FDR File=ZIC$IDSFUNCS.:ZIC0TSI                        FRI 09/05/97 11:38 Page:31
          MINI XREF LISTING

ALT_FDR
      2728**LABEL    2725--CALLALT
CAN_RVA
      1721**DCL      2700--DCLINIT  2709--ASSIGN
DB_DBK
      2053**DCL         6--PROC     2710--ASSIGN
I$FDR
      2685**DCL-ENT  2719--CALL
IA
      2040**DCL      2699--DCLINIT
IPT_FDR
      2699**DCL      2719<>CALL
IPT_FDR.DBK_
      2701**DCL      2710<<ASSIGN
IPT_FDR.V
      2701**DCL      2699--DCLINIT
IPT_FDR.V.RC.RC_OFFSET#
      2701**DCL      2709<<ASSIGN
RC_OFF
      2051**DCL         6--PROC     2709--ASSIGN
STAT_CHK
         7**DCL-ENT  2725--CALL
USEP
      2058**DCL      2700--DCLINIT
UWA
       700**DCL      2700--DCLINIT
UWA.AC_REC.CALC_NEXT
       815**DCL       816--REDEF
UWA.AC_REC.CALC_PRIOR
       824**DCL       825--REDEF
UWA.AC_REC.DEFAULTS
       773**DCL       774--REDEF
PL6.E3A0      #003=DB_FUNC_FDR File=ZIC$IDSFUNCS.:ZIC0TSI                        FRI 09/05/97 11:38 Page:32
UWA.AC_REC.FILE_CODE
       778**DCL       779--REDEF
UWA.AC_REC.FLAG1.ERROR_TYPE
       775**DCL       776--REDEF
UWA.AC_REC.PG_TYPE
       790**DCL       791--REDEF
UWA.AD_REC.ADDATE
       755**DCL       756--REDEF
UWA.DB_STATUS
       703**DCL      2725<>CALL

PL6.E3A0      #004=DB_FUNC_FRS File=ZIC$IDSFUNCS.:ZIC0TSI                        FRI 09/05/97 11:39 Page:33
       83        1        /*T***********************************************************/
       84        2        /*T*                                                         */
       85        3        /*T* Copyright (c) Bull HN Information Systems Inc., 1997    */
       86        4        /*T*                                                         */
       87        5        /*T***********************************************************/
       88        6        DB_FUNC_FRS: PROC(RC_OFF,SC_OFF) ALTRET;
       89        7    1   DCL STAT_CHK ENTRY(1) ALTRET;
       90        8        /**/
       91        9        %INCLUDE ZI_UWA_C;
       92      699        %ZI$UWAB;
       93     1039        %INCLUDE ZI_RVA_C;
       94     1720        %CAN_RVA_REF;
       95     2039        %IA$MAC;
       96     2050        %DB_MAC;
       97     2057        %USEP_MAC;
       98     2065        %INCLUDE ZI_DBCS;
       99     2678        %ASL;
      100     2692        %IPT_FRS (IAN=IA,UWAN=UWA,RVAN=CAN_RVA,USEPN=USEP,RECORD_LOCATION=NEXT);
      101     2709        /**/
      102     2710    1       IF RC_OFF = 0 THEN
      103     2711    1           IPT_FRS.V.RC.RC_OFFSET# = POFFW(ADDR(CAN_RVA.NULL),ADDR(CAN_RVA));
      104     2712    1       ELSE
      105     2713    1           IPT_FRS.V.RC.RC_OFFSET#=POFFW(ADDR(RC_OFF),ADDR(CAN_RVA));
      106     2714    1       IPT_FRS.V.SC.SC_OFFSET#=POFFW(ADDR(SC_OFF),ADDR(CAN_RVA));
      107     2715            %CLIMB(FCN=FRS);
      108     2729    1       CALL STAT_CHK(UWA.DB_STATUS) ALTRET(ALT_FRS);
      109     2730    1       RETURN;
      110     2731    1   ALT_FRS:
      111     2732    1       ALTRETURN;
      112     2733    1   END DB_FUNC_FRS;
      113     2734        %EOD;

PL6.E3A0      #004=DB_FUNC_FRS File=ZIC$IDSFUNCS.:ZIC0TSI                        FRI 09/05/97 11:39 Page:34
--  Include file information  --

   ZI_DBCS.:ZIC0TOU  is referenced.
   ZI_RVA_C.:ZIC0TOU  is referenced.
   ZI_UWA_C.:ZIC0TOU  is referenced.
   B$JIT_C.:E05TOU  was found in the system file and is never referenced.
   CP_6_C.:E05TOU  was found in the system file and is never referenced.
      No diagnostics issued in procedure DB_FUNC_FRS.

   Procedure DB_FUNC_FRS requires 39 words for executable code.
   Procedure DB_FUNC_FRS requires 10 words of local(AUTO) storage.

PL6.E3A0      #004=DB_FUNC_FRS File=ZIC$IDSFUNCS.:ZIC0TSI                        FRI 09/05/97 11:39 Page:35

 Object Unit name= DB_FUNC_FRS                                File name= ZIC$IDSFUNCS.:ZIC0TOU
 UTS= SEP 05 '97 11:39:01.56 FRI                              Compiler= PL-6/E31         Sev=      00
 SharedLib= :SHARED_SYSTEM                                    Alt SharedLib=


    ****  Control sections  ****

 Sect   Type Bound  Init  Size OctSiz  Section name(segment info)
    0   Data  even  none    20     24  DB_FUNC_FRS
    1   Proc  even  none    39     47  DB_FUNC_FRS
    2  RoData even  none     4      4  DB_FUNC_FRS

    ****  Entry defs  ****

                              Check   Calling
                             calling  sequence
  Sect OctLoc Primary Altret sequence   type   Parms  Name
     1      0   yes    yes     yes      Std        2  DB_FUNC_FRS

  ****  Entry refs  ****

         Check        Calling
        calling       sequence
Altret sequence SRef   type   Args  Name
 yes     yes           Std       1 STAT_CHK
                       nStd      0 X66_AUTO_2
                       nStd      0 X66_ARET
                       nStd      0 X66_AALT

  ****  Data refs  ****

  Flags:  r = read only, s = secondary
Flgs Name                             Flgs Name                             Flgs Name
     I$FRS                                 UWA                                   CAN_RVA
     IA
PL6.E3A0      #004=DB_FUNC_FRS File=ZIC$IDSFUNCS.:ZIC0TSI                        FRI 09/05/97 11:39 Page:36

  ****  Segment refs  ****

  Flags:  r = read only, s = secondary
Flgs Name                             Flgs Name                             Flgs Name
     ISSID                                 ASLENTSID
PL6.E3A0      #004=DB_FUNC_FRS File=ZIC$IDSFUNCS.:ZIC0TSI                        FRI 09/05/97 11:39 Page:37


       83        1        /*T***********************************************************/
       84        2        /*T*                                                         */
       85        3        /*T* Copyright (c) Bull HN Information Systems Inc., 1997    */
       86        4        /*T*                                                         */
       87        5        /*T***********************************************************/
       88        6        DB_FUNC_FRS: PROC(RC_OFF,SC_OFF) ALTRET;

      6  1 000000   000000 700200 xent  DB_FUNC_FRS  TSX0  ! X66_AUTO_2
         1 000001   000012 000002                    ZERO    10,2

       89        7    1   DCL STAT_CHK ENTRY(1) ALTRET;
       90        8        /**/
       91        9        %INCLUDE ZI_UWA_C;
       92      699        %ZI$UWAB;
       93     1039        %INCLUDE ZI_RVA_C;
       94     1720        %CAN_RVA_REF;
       95     2039        %IA$MAC;
       96     2050        %DB_MAC;
       97     2057        %USEP_MAC;
       98     2065        %INCLUDE ZI_DBCS;
       99     2678        %ASL;
      100     2692        %IPT_FRS (IAN=IA,UWAN=UWA,RVAN=CAN_RVA,USEPN=USEP,RECORD_LOCATION=NEXT);
      101     2709        /**/
      102     2710    1       IF RC_OFF = 0 THEN

   2710  1 000002   200003 470500                    LDP0    @RC_OFF,,AUTO
         1 000003   000000 220100                    LDX0    0,,PR0
         1 000004   000016 601000 1                  TNZ     s:2713

      103     2711    1           IPT_FRS.V.RC.RC_OFFSET# = POFFW(ADDR(CAN_RVA.NULL),ADDR(CAN_RVA));

   2711  1 000005   000000 236000 2                  LDQ     0
         1 000006   000022 772000                    QRL     18
         1 000007   200010 756100                    STQ     RET_SET+1,,AUTO
         1 000010   000001 236000 2                  LDQ     1
         1 000011   000022 772000                    QRL     18
PL6.E3A0      #004=DB_FUNC_FRS File=ZIC$IDSFUNCS.:ZIC0TSI                        FRI 09/05/97 11:39 Page:38
         1 000012   200010 136100                    SBLQ    RET_SET+1,,AUTO
         1 000013   000000 620006                    EAX0    0,QL
         1 000014   000017 740000 0                  STX0    IPT_FRS+11
         1 000015   000026 710000 1                  TRA     s:2714

      104     2712    1       ELSE
      105     2713    1           IPT_FRS.V.RC.RC_OFFSET#=POFFW(ADDR(RC_OFF),ADDR(CAN_RVA));

   2713  1 000016   000000 236000 2                  LDQ     0
         1 000017   000022 772000                    QRL     18
         1 000020   200010 756100                    STQ     RET_SET+1,,AUTO
         1 000021   200003 236100                    LDQ     @RC_OFF,,AUTO
         1 000022   000022 772000                    QRL     18
         1 000023   200010 136100                    SBLQ    RET_SET+1,,AUTO
         1 000024   000000 620006                    EAX0    0,QL
         1 000025   000017 740000 0                  STX0    IPT_FRS+11

      106     2714    1       IPT_FRS.V.SC.SC_OFFSET#=POFFW(ADDR(SC_OFF),ADDR(CAN_RVA));

   2714  1 000026   000000 236000 2                  LDQ     0
         1 000027   000022 772000                    QRL     18
         1 000030   200010 756100                    STQ     RET_SET+1,,AUTO
         1 000031   200004 236100                    LDQ     @SC_OFF,,AUTO
         1 000032   000022 772000                    QRL     18
         1 000033   200010 136100                    SBLQ    RET_SET+1,,AUTO
         1 000034   000000 621006                    EAX1    0,QL
         1 000035   000020 741000 0                  STX1    IPT_FRS+12

      107     2715            %CLIMB(FCN=FRS);

   2723  1 000036   000004 630400 0                  EPPR0   IPT_FRS
         1 000037   000000 713400 xsym               CLIMB   I$FRS
         1 000040   402000 600000 xsid               climb   nvectors=         5

      108     2729    1       CALL STAT_CHK(UWA.DB_STATUS) ALTRET(ALT_FRS);

   2729  1 000041   000003 630400 2                  EPPR0   3
PL6.E3A0      #004=DB_FUNC_FRS File=ZIC$IDSFUNCS.:ZIC0TSI                        FRI 09/05/97 11:39 Page:39
         1 000042   000002 631400 2                  EPPR1   2
         1 000043   000000 701000 xent               TSX1    STAT_CHK
         1 000044   000046 702000 1                  TSX2    ALT_FRS

      109     2730    1       RETURN;

   2730  1 000045   000000 702200 xent               TSX2  ! X66_ARET

      110     2731    1   ALT_FRS:
      111     2732    1       ALTRETURN;

   2732  1 000046   000000 702200 xent  ALT_FRS      TSX2  ! X66_AALT

USEP
 Sect OctLoc
   0     000   000001 000000   003017 204400   000000 000000                    ............

IPT_FRS
 Sect OctLoc
   0     004   000005 777640   000016 006000   000055 777640   000000 006000    .........-......
   0     010   001217 777640   000000 006000   000151 777640   000000 006000    .........i......
   0     014   000003 777640   000000 006000   000002 000000   000000 000000    ................
   0     020   000000 000000   000000 000000   000000 000000   ****** ******    ................

(unnamed)
 Sect OctLoc
   2     000   000000 006000   000150 006000   000001 000000   000001 406000    .....h..........
      112     2733    1   END DB_FUNC_FRS;
      113     2734        %EOD;

PL6.E3A0      #004=DB_FUNC_FRS File=ZIC$IDSFUNCS.:ZIC0TSI                        FRI 09/05/97 11:39 Page:40
--  Include file information  --

   ZI_DBCS.:ZIC0TOU  is referenced.
   ZI_RVA_C.:ZIC0TOU  is referenced.
   ZI_UWA_C.:ZIC0TOU  is referenced.
   B$JIT_C.:E05TOU  was found in the system file and is never referenced.
   CP_6_C.:E05TOU  was found in the system file and is never referenced.
      No diagnostics issued in procedure DB_FUNC_FRS.

   Procedure DB_FUNC_FRS requires 39 words for executable code.
   Procedure DB_FUNC_FRS requires 10 words of local(AUTO) storage.
PL6.E3A0      #004=DB_FUNC_FRS File=ZIC$IDSFUNCS.:ZIC0TSI                        FRI 09/05/97 11:39 Page:41
          *** CROSS REFERENCE LISTING ***
**     DENOTES     IDENTIFIER DEFINITION
<<                 IDENTIFIER'S VALUE SET
>>                 IDENTIFIER'S VALUE USED
<>                 IDENTIFIER SET AND/OR USED
--                 IDENTIFIER REFERENCED
PL6.E3A0      #004=DB_FUNC_FRS File=ZIC$IDSFUNCS.:ZIC0TSI                        FRI 09/05/97 11:39 Page:42
          MINI XREF LISTING

ALT_FRS
      2732**LABEL    2729--CALLALT
CAN_RVA
      1721**DCL      2700--DCLINIT  2711--ASSIGN   2713--ASSIGN   2714--ASSIGN
CAN_RVA.NULL
      2033**DCL      2711--ASSIGN
I$FRS
      2685**DCL-ENT  2723--CALL
IA
      2040**DCL      2699--DCLINIT
IPT_FRS
      2699**DCL      2723<>CALL
IPT_FRS.V
      2701**DCL      2699--DCLINIT
IPT_FRS.V.RC.RC_OFFSET#
      2702**DCL      2711<<ASSIGN   2713<<ASSIGN
IPT_FRS.V.SC.SC_OFFSET#
      2703**DCL      2714<<ASSIGN
RC_OFF
      2051**DCL         6--PROC     2710>>IF       2713--ASSIGN
SC_OFF
      2052**DCL         6--PROC     2714--ASSIGN
STAT_CHK
         7**DCL-ENT  2729--CALL
USEP
      2058**DCL      2700--DCLINIT
UWA
       700**DCL      2700--DCLINIT
UWA.AC_REC.CALC_NEXT
       815**DCL       816--REDEF
UWA.AC_REC.CALC_PRIOR
       824**DCL       825--REDEF
PL6.E3A0      #004=DB_FUNC_FRS File=ZIC$IDSFUNCS.:ZIC0TSI                        FRI 09/05/97 11:39 Page:43
UWA.AC_REC.DEFAULTS
       773**DCL       774--REDEF
UWA.AC_REC.FILE_CODE
       778**DCL       779--REDEF
UWA.AC_REC.FLAG1.ERROR_TYPE
       775**DCL       776--REDEF
UWA.AC_REC.PG_TYPE
       790**DCL       791--REDEF
UWA.AD_REC.ADDATE
       755**DCL       756--REDEF
UWA.DB_STATUS
       703**DCL      2729<>CALL

PL6.E3A0      #005=DB_FUNC_FOR File=ZIC$IDSFUNCS.:ZIC0TSI                        FRI 09/05/97 11:39 Page:44
      114        1        /*T***********************************************************/
      115        2        /*T*                                                         */
      116        3        /*T* Copyright (c) Bull HN Information Systems Inc., 1997    */
      117        4        /*T*                                                         */
      118        5        /*T***********************************************************/
      119        6        DB_FUNC_FOR: PROC(SC_OFF) ALTRET;
      120        7    1   DCL STAT_CHK ENTRY(1) ALTRET;
      121        8        /**/
      122        9        %INCLUDE ZI_UWA_C;
      123      699        %ZI$UWAB;
      124     1039        %INCLUDE ZI_RVA_C;
      125     1720        %CAN_RVA_REF;
      126     2039        %IA$MAC;
      127     2050        %DB_MAC;
      128     2057        %USEP_MAC;
      129     2065        %INCLUDE ZI_DBCS;
      130     2678        %ASL;
      131     2692        %IPT_FOR (IAN=IA,UWAN=UWA,RVAN=CAN_RVA,USEPN=USEP);
      132     2707        /**/
      133     2708    1       IPT_FOR.V.SC.SC_OFFSET#=POFFW(ADDR(SC_OFF),ADDR(CAN_RVA));
      134     2709            %CLIMB(FCN=FOR);
      135     2723    1       CALL STAT_CHK(UWA.DB_STATUS) ALTRET(ALT_FOR);
      136     2724    1       RETURN;
      137     2725    1   ALT_FOR:
      138     2726    1       ALTRETURN;
      139     2727    1   END DB_FUNC_FOR;
      140     2728        %EOD;

PL6.E3A0      #005=DB_FUNC_FOR File=ZIC$IDSFUNCS.:ZIC0TSI                        FRI 09/05/97 11:39 Page:45
--  Include file information  --

   ZI_DBCS.:ZIC0TOU  is referenced.
   ZI_RVA_C.:ZIC0TOU  is referenced.
   ZI_UWA_C.:ZIC0TOU  is referenced.
   B$JIT_C.:E05TOU  was found in the system file and is never referenced.
   CP_6_C.:E05TOU  was found in the system file and is never referenced.
      No diagnostics issued in procedure DB_FUNC_FOR.

   Procedure DB_FUNC_FOR requires 19 words for executable code.
   Procedure DB_FUNC_FOR requires 10 words of local(AUTO) storage.

PL6.E3A0      #005=DB_FUNC_FOR File=ZIC$IDSFUNCS.:ZIC0TSI                        FRI 09/05/97 11:39 Page:46

 Object Unit name= DB_FUNC_FOR                                File name= ZIC$IDSFUNCS.:ZIC0TOU
 UTS= SEP 05 '97 11:39:15.16 FRI                              Compiler= PL-6/E31         Sev=      00
 SharedLib= :SHARED_SYSTEM                                    Alt SharedLib=


    ****  Control sections  ****

 Sect   Type Bound  Init  Size OctSiz  Section name(segment info)
    0   Data  even  none    18     22  DB_FUNC_FOR
    1   Proc  even  none    19     23  DB_FUNC_FOR
    2  RoData even  none     3      3  DB_FUNC_FOR

    ****  Entry defs  ****

                              Check   Calling
                             calling  sequence
  Sect OctLoc Primary Altret sequence   type   Parms  Name
     1      0   yes    yes     yes      Std        1  DB_FUNC_FOR

  ****  Entry refs  ****

         Check        Calling
        calling       sequence
Altret sequence SRef   type   Args  Name
 yes     yes           Std       1 STAT_CHK
                       nStd      0 X66_AUTO_1
                       nStd      0 X66_ARET
                       nStd      0 X66_AALT

  ****  Data refs  ****

  Flags:  r = read only, s = secondary
Flgs Name                             Flgs Name                             Flgs Name
     I$FOR                                 UWA                                   CAN_RVA
     IA
PL6.E3A0      #005=DB_FUNC_FOR File=ZIC$IDSFUNCS.:ZIC0TSI                        FRI 09/05/97 11:39 Page:47

  ****  Segment refs  ****

  Flags:  r = read only, s = secondary
Flgs Name                             Flgs Name                             Flgs Name
     ISSID                                 ASLENTSID
PL6.E3A0      #005=DB_FUNC_FOR File=ZIC$IDSFUNCS.:ZIC0TSI                        FRI 09/05/97 11:39 Page:48


      114        1        /*T***********************************************************/
      115        2        /*T*                                                         */
      116        3        /*T* Copyright (c) Bull HN Information Systems Inc., 1997    */
      117        4        /*T*                                                         */
      118        5        /*T***********************************************************/
      119        6        DB_FUNC_FOR: PROC(SC_OFF) ALTRET;

      6  1 000000   000000 700200 xent  DB_FUNC_FOR  TSX0  ! X66_AUTO_1
         1 000001   000012 000001                    ZERO    10,1

      120        7    1   DCL STAT_CHK ENTRY(1) ALTRET;
      121        8        /**/
      122        9        %INCLUDE ZI_UWA_C;
      123      699        %ZI$UWAB;
      124     1039        %INCLUDE ZI_RVA_C;
      125     1720        %CAN_RVA_REF;
      126     2039        %IA$MAC;
      127     2050        %DB_MAC;
      128     2057        %USEP_MAC;
      129     2065        %INCLUDE ZI_DBCS;
      130     2678        %ASL;
      131     2692        %IPT_FOR (IAN=IA,UWAN=UWA,RVAN=CAN_RVA,USEPN=USEP);
      132     2707        /**/
      133     2708    1       IPT_FOR.V.SC.SC_OFFSET#=POFFW(ADDR(SC_OFF),ADDR(CAN_RVA));

   2708  1 000002   000000 236000 2                  LDQ     0
         1 000003   000022 772000                    QRL     18
         1 000004   200010 756100                    STQ     RET_SET+1,,AUTO
         1 000005   200003 236100                    LDQ     @SC_OFF,,AUTO
         1 000006   000022 772000                    QRL     18
         1 000007   200010 136100                    SBLQ    RET_SET+1,,AUTO
         1 000010   000000 620006                    EAX0    0,QL
         1 000011   000016 740000 0                  STX0    IPT_FOR+10

      134     2709            %CLIMB(FCN=FOR);

PL6.E3A0      #005=DB_FUNC_FOR File=ZIC$IDSFUNCS.:ZIC0TSI                        FRI 09/05/97 11:39 Page:49
   2717  1 000012   000004 630400 0                  EPPR0   IPT_FOR
         1 000013   000000 713400 xsym               CLIMB   I$FOR
         1 000014   402000 600000 xsid               climb   nvectors=         5

      135     2723    1       CALL STAT_CHK(UWA.DB_STATUS) ALTRET(ALT_FOR);

   2723  1 000015   000002 630400 2                  EPPR0   2
         1 000016   000001 631400 2                  EPPR1   1
         1 000017   000000 701000 xent               TSX1    STAT_CHK
         1 000020   000022 702000 1                  TSX2    ALT_FOR

      136     2724    1       RETURN;

   2724  1 000021   000000 702200 xent               TSX2  ! X66_ARET

      137     2725    1   ALT_FOR:
      138     2726    1       ALTRETURN;

   2726  1 000022   000000 702200 xent  ALT_FOR      TSX2  ! X66_AALT

USEP
 Sect OctLoc
   0     000   000001 000000   003017 204400   000000 000000                    ............

IPT_FOR
 Sect OctLoc
   0     004   000003 777640   000016 006000   000055 777640   000000 006000    .........-......
   0     010   001217 777640   000000 006000   000151 777640   000000 006000    .........i......
   0     014   000003 777640   000000 006000   000000 000000   000000 000000    ................
   0     020   000000 000000   ****** ******                                    ........

(unnamed)
 Sect OctLoc
   2     000   000000 006000   000001 000000   000001 406000                    ............
      139     2727    1   END DB_FUNC_FOR;
      140     2728        %EOD;

PL6.E3A0      #005=DB_FUNC_FOR File=ZIC$IDSFUNCS.:ZIC0TSI                        FRI 09/05/97 11:39 Page:50
--  Include file information  --

   ZI_DBCS.:ZIC0TOU  is referenced.
   ZI_RVA_C.:ZIC0TOU  is referenced.
   ZI_UWA_C.:ZIC0TOU  is referenced.
   B$JIT_C.:E05TOU  was found in the system file and is never referenced.
   CP_6_C.:E05TOU  was found in the system file and is never referenced.
      No diagnostics issued in procedure DB_FUNC_FOR.

   Procedure DB_FUNC_FOR requires 19 words for executable code.
   Procedure DB_FUNC_FOR requires 10 words of local(AUTO) storage.
PL6.E3A0      #005=DB_FUNC_FOR File=ZIC$IDSFUNCS.:ZIC0TSI                        FRI 09/05/97 11:39 Page:51
          *** CROSS REFERENCE LISTING ***
**     DENOTES     IDENTIFIER DEFINITION
<<                 IDENTIFIER'S VALUE SET
>>                 IDENTIFIER'S VALUE USED
<>                 IDENTIFIER SET AND/OR USED
--                 IDENTIFIER REFERENCED
PL6.E3A0      #005=DB_FUNC_FOR File=ZIC$IDSFUNCS.:ZIC0TSI                        FRI 09/05/97 11:39 Page:52
          MINI XREF LISTING

ALT_FOR
      2726**LABEL    2723--CALLALT
CAN_RVA
      1721**DCL      2700--DCLINIT  2708--ASSIGN
I$FOR
      2684**DCL-ENT  2717--CALL
IA
      2040**DCL      2699--DCLINIT
IPT_FOR
      2699**DCL      2717<>CALL
IPT_FOR.V
      2701**DCL      2699--DCLINIT
IPT_FOR.V.SC.SC_OFFSET#
      2701**DCL      2708<<ASSIGN
SC_OFF
      2052**DCL         6--PROC     2708--ASSIGN
STAT_CHK
         7**DCL-ENT  2723--CALL
USEP
      2058**DCL      2700--DCLINIT
UWA
       700**DCL      2700--DCLINIT
UWA.AC_REC.CALC_NEXT
       815**DCL       816--REDEF
UWA.AC_REC.CALC_PRIOR
       824**DCL       825--REDEF
UWA.AC_REC.DEFAULTS
       773**DCL       774--REDEF
UWA.AC_REC.FILE_CODE
       778**DCL       779--REDEF
UWA.AC_REC.FLAG1.ERROR_TYPE
       775**DCL       776--REDEF
PL6.E3A0      #005=DB_FUNC_FOR File=ZIC$IDSFUNCS.:ZIC0TSI                        FRI 09/05/97 11:39 Page:53
UWA.AC_REC.PG_TYPE
       790**DCL       791--REDEF
UWA.AD_REC.ADDATE
       755**DCL       756--REDEF
UWA.DB_STATUS
       703**DCL      2723<>CALL

PL6.E3A0      #006=DB_FUNC_FOR1 File=ZIC$IDSFUNCS.:ZIC0TSI                       FRI 09/05/97 11:39 Page:54
      141        1        /*T***********************************************************/
      142        2        /*T*                                                         */
      143        3        /*T* Copyright (c) Bull HN Information Systems Inc., 1997    */
      144        4        /*T*                                                         */
      145        5        /*T***********************************************************/
      146        6        DB_FUNC_FOR1: PROC(SC_OFF,NUM_SETS,RET_SETS) ALTRET;
      147        7    1   DCL STAT_CHK ENTRY(1) ALTRET;
      148        8    1   DCL NUM_SETS UBIN WORD ALIGNED;
      149        9    1   DCL RET_SETS UBIN(18) ALIGNED;
      150       10    1   DCL I UBIN(36) STATIC ALIGNED;
      151       11        %INCLUDE ZI_UWA_C;
      152      701        %ZI$UWAB;
      153     1041        %INCLUDE ZI_RVA_C;
      154     1722        %CAN_RVA_REF;
      155     2041        %IA$MAC;
      156     2052        %DB_MAC;
      157     2059        %USEP_MAC;
      158     2067        %INCLUDE ZI_DBCS;
      159     2680        %ASL;
      160     2694        %IPT_FOR (IAN=IA,UWAN=UWA,RVAN=CAN_RVA,USEPN=USEP);
      161     2709        /**/
      162     2710    1       IPT_FOR.V.SC.SC_OFFSET#=POFFW(ADDR(SC_OFF),ADDR(CAN_RVA));
      163     2711    1       IPT_FOR.V.RLCW.N_SETS#=NUM_SETS-1;
      164     2712    2       DO I=0 TO NUM_SETS-1 BY 1;
      165     2713    2           IPT_FOR.V.RETENTION_LIST.RVA_OFFSET#(I)=RET_SETS;
      166     2714    2           END;
      167     2715            %CLIMB(FCN=FOR);
      168     2729    1       CALL STAT_CHK(UWA.DB_STATUS) ALTRET(ALT_FOR);
      169     2730    1       RETURN;
      170     2731    1   ALT_FOR:
      171     2732    1       ALTRETURN;
      172     2733    1   END DB_FUNC_FOR1;
      173     2734        %EOD;

PL6.E3A0      #006=DB_FUNC_FOR1 File=ZIC$IDSFUNCS.:ZIC0TSI                       FRI 09/05/97 11:39 Page:55
--  Include file information  --

   ZI_DBCS.:ZIC0TOU  is referenced.
   ZI_RVA_C.:ZIC0TOU  is referenced.
   ZI_UWA_C.:ZIC0TOU  is referenced.
   B$JIT_C.:E05TOU  was found in the system file and is never referenced.
   CP_6_C.:E05TOU  was found in the system file and is never referenced.
      No diagnostics issued in procedure DB_FUNC_FOR1.

   Procedure DB_FUNC_FOR1 requires 38 words for executable code.
   Procedure DB_FUNC_FOR1 requires 12 words of local(AUTO) storage.

PL6.E3A0      #006=DB_FUNC_FOR1 File=ZIC$IDSFUNCS.:ZIC0TSI                       FRI 09/05/97 11:39 Page:56

 Object Unit name= DB_FUNC_FOR1                               File name= ZIC$IDSFUNCS.:ZIC0TOU
 UTS= SEP 05 '97 11:39:27.68 FRI                              Compiler= PL-6/E31         Sev=      00
 SharedLib= :SHARED_SYSTEM                                    Alt SharedLib=


    ****  Control sections  ****

 Sect   Type Bound  Init  Size OctSiz  Section name(segment info)
    0   Data  even  none    20     24  DB_FUNC_FOR1
    1   Proc  even  none    38     46  DB_FUNC_FOR1
    2  RoData even  none     3      3  DB_FUNC_FOR1

    ****  Entry defs  ****

                              Check   Calling
                             calling  sequence
  Sect OctLoc Primary Altret sequence   type   Parms  Name
     1      0   yes    yes     yes      Std        3  DB_FUNC_FOR1

  ****  Entry refs  ****

         Check        Calling
        calling       sequence
Altret sequence SRef   type   Args  Name
 yes     yes           Std       1 STAT_CHK
                       nStd      0 X66_AUTO_3
                       nStd      0 X66_ARET
                       nStd      0 X66_AALT

  ****  Data refs  ****

  Flags:  r = read only, s = secondary
Flgs Name                             Flgs Name                             Flgs Name
     I$FOR                                 UWA                                   CAN_RVA
     IA
PL6.E3A0      #006=DB_FUNC_FOR1 File=ZIC$IDSFUNCS.:ZIC0TSI                       FRI 09/05/97 11:39 Page:57

  ****  Segment refs  ****

  Flags:  r = read only, s = secondary
Flgs Name                             Flgs Name                             Flgs Name
     ISSID                                 ASLENTSID
PL6.E3A0      #006=DB_FUNC_FOR1 File=ZIC$IDSFUNCS.:ZIC0TSI                       FRI 09/05/97 11:39 Page:58


      141        1        /*T***********************************************************/
      142        2        /*T*                                                         */
      143        3        /*T* Copyright (c) Bull HN Information Systems Inc., 1997    */
      144        4        /*T*                                                         */
      145        5        /*T***********************************************************/
      146        6        DB_FUNC_FOR1: PROC(SC_OFF,NUM_SETS,RET_SETS) ALTRET;

      6  1 000000   000000 700200 xent  DB_FUNC_FOR1 TSX0  ! X66_AUTO_3
         1 000001   000014 000003                    ZERO    12,3

      147        7    1   DCL STAT_CHK ENTRY(1) ALTRET;
      148        8    1   DCL NUM_SETS UBIN WORD ALIGNED;
      149        9    1   DCL RET_SETS UBIN(18) ALIGNED;
      150       10    1   DCL I UBIN(36) STATIC ALIGNED;
      151       11        %INCLUDE ZI_UWA_C;
      152      701        %ZI$UWAB;
      153     1041        %INCLUDE ZI_RVA_C;
      154     1722        %CAN_RVA_REF;
      155     2041        %IA$MAC;
      156     2052        %DB_MAC;
      157     2059        %USEP_MAC;
      158     2067        %INCLUDE ZI_DBCS;
      159     2680        %ASL;
      160     2694        %IPT_FOR (IAN=IA,UWAN=UWA,RVAN=CAN_RVA,USEPN=USEP);
      161     2709        /**/
      162     2710    1       IPT_FOR.V.SC.SC_OFFSET#=POFFW(ADDR(SC_OFF),ADDR(CAN_RVA));

   2710  1 000002   000000 236000 2                  LDQ     0
         1 000003   000022 772000                    QRL     18
         1 000004   200012 756100                    STQ     RET_SET+1,,AUTO
         1 000005   200003 236100                    LDQ     @SC_OFF,,AUTO
         1 000006   000022 772000                    QRL     18
         1 000007   200012 136100                    SBLQ    RET_SET+1,,AUTO
         1 000010   000000 620006                    EAX0    0,QL
         1 000011   000020 740000 0                  STX0    IPT_FOR+10

PL6.E3A0      #006=DB_FUNC_FOR1 File=ZIC$IDSFUNCS.:ZIC0TSI                       FRI 09/05/97 11:39 Page:59
      163     2711    1       IPT_FOR.V.RLCW.N_SETS#=NUM_SETS-1;

   2711  1 000012   200004 470500                    LDP0    @NUM_SETS,,AUTO
         1 000013   000000 236100                    LDQ     0,,PR0
         1 000014   000001 136007                    SBLQ    1,DL
         1 000015   000021 676000 0                  ERQ     IPT_FOR+11
         1 000016   000377 376007                    ANQ     255,DL
         1 000017   000021 656000 0                  ERSQ    IPT_FOR+11

      164     2712    2       DO I=0 TO NUM_SETS-1 BY 1;

   2712  1 000020   000000 450000 0                  STZ     I
         1 000021   000031 710000 1                  TRA     s:2714+3

      165     2713    2           IPT_FOR.V.RETENTION_LIST.RVA_OFFSET#(I)=RET_SETS;

   2713  1 000022   200005 470500                    LDP0    @RET_SETS,,AUTO
         1 000023   000000 220100                    LDX0    0,,PR0
         1 000024   000000 721000 0                  LXL1    I
         1 000025   000022 740011 0                  STX0    IPT_FOR+12,X1

      166     2714    2           END;

   2714  1 000026   000000 235000 0                  LDA     I
         1 000027   000001 035007                    ADLA    1,DL
         1 000030   000000 755000 0                  STA     I
         1 000031   200004 470500                    LDP0    @NUM_SETS,,AUTO
         1 000032   000000 236000 0                  LDQ     I
         1 000033   000000 116100                    CMPQ    0,,PR0
         1 000034   000022 602000 1                  TNC     s:2713

      167     2715            %CLIMB(FCN=FOR);

   2723  1 000035   000006 630400 0                  EPPR0   IPT_FOR
         1 000036   000000 713400 xsym               CLIMB   I$FOR
         1 000037   402000 600000 xsid               climb   nvectors=         5

PL6.E3A0      #006=DB_FUNC_FOR1 File=ZIC$IDSFUNCS.:ZIC0TSI                       FRI 09/05/97 11:39 Page:60
      168     2729    1       CALL STAT_CHK(UWA.DB_STATUS) ALTRET(ALT_FOR);

   2729  1 000040   000002 630400 2                  EPPR0   2
         1 000041   000001 631400 2                  EPPR1   1
         1 000042   000000 701000 xent               TSX1    STAT_CHK
         1 000043   000045 702000 1                  TSX2    ALT_FOR

      169     2730    1       RETURN;

   2730  1 000044   000000 702200 xent               TSX2  ! X66_ARET

      170     2731    1   ALT_FOR:
      171     2732    1       ALTRETURN;

   2732  1 000045   000000 702200 xent  ALT_FOR      TSX2  ! X66_AALT

USEP
 Sect OctLoc
   0     002   000001 000000   003017 204400   000000 000000                    ............

IPT_FOR
 Sect OctLoc
   0     006   000003 777640   000020 006000   000055 777640   000000 006000    .........-......
   0     012   001217 777640   000000 006000   000151 777640   000000 006000    .........i......
   0     016   000003 777640   000002 006000   000000 000000   000000 000000    ................
   0     022   000000 000000   ****** ******                                    ........

(unnamed)
 Sect OctLoc
   2     000   000000 006000   000001 000000   000001 406000                    ............
      172     2733    1   END DB_FUNC_FOR1;
      173     2734        %EOD;

PL6.E3A0      #006=DB_FUNC_FOR1 File=ZIC$IDSFUNCS.:ZIC0TSI                       FRI 09/05/97 11:39 Page:61
--  Include file information  --

   ZI_DBCS.:ZIC0TOU  is referenced.
   ZI_RVA_C.:ZIC0TOU  is referenced.
   ZI_UWA_C.:ZIC0TOU  is referenced.
   B$JIT_C.:E05TOU  was found in the system file and is never referenced.
   CP_6_C.:E05TOU  was found in the system file and is never referenced.
      No diagnostics issued in procedure DB_FUNC_FOR1.

   Procedure DB_FUNC_FOR1 requires 38 words for executable code.
   Procedure DB_FUNC_FOR1 requires 12 words of local(AUTO) storage.
PL6.E3A0      #006=DB_FUNC_FOR1 File=ZIC$IDSFUNCS.:ZIC0TSI                       FRI 09/05/97 11:39 Page:62
          *** CROSS REFERENCE LISTING ***
**     DENOTES     IDENTIFIER DEFINITION
<<                 IDENTIFIER'S VALUE SET
>>                 IDENTIFIER'S VALUE USED
<>                 IDENTIFIER SET AND/OR USED
--                 IDENTIFIER REFERENCED
PL6.E3A0      #006=DB_FUNC_FOR1 File=ZIC$IDSFUNCS.:ZIC0TSI                       FRI 09/05/97 11:39 Page:63
          MINI XREF LISTING

ALT_FOR
      2732**LABEL    2729--CALLALT
CAN_RVA
      1723**DCL      2702--DCLINIT  2710--ASSIGN
I
        10**DCL      2712<<DOINDEX  2713>>ASSIGN
I$FOR
      2686**DCL-ENT  2723--CALL
IA
      2042**DCL      2701--DCLINIT
IPT_FOR
      2701**DCL      2723<>CALL
IPT_FOR.V
      2703**DCL      2701--DCLINIT
IPT_FOR.V.RETENTION_LIST.RVA_OFFSET#
      2706**DCL      2713<<ASSIGN
IPT_FOR.V.RLCW.N_SETS#
      2706**DCL      2711<<ASSIGN
IPT_FOR.V.SC.SC_OFFSET#
      2703**DCL      2710<<ASSIGN
NUM_SETS
         8**DCL         6--PROC     2711>>ASSIGN   2712>>DOINDEX
RET_SETS
         9**DCL         6--PROC     2713>>ASSIGN
SC_OFF
      2054**DCL         6--PROC     2710--ASSIGN
STAT_CHK
         7**DCL-ENT  2729--CALL
USEP
      2060**DCL      2702--DCLINIT
UWA
       702**DCL      2702--DCLINIT
PL6.E3A0      #006=DB_FUNC_FOR1 File=ZIC$IDSFUNCS.:ZIC0TSI                       FRI 09/05/97 11:39 Page:64
UWA.AC_REC.CALC_NEXT
       817**DCL       818--REDEF
UWA.AC_REC.CALC_PRIOR
       826**DCL       827--REDEF
UWA.AC_REC.DEFAULTS
       775**DCL       776--REDEF
UWA.AC_REC.FILE_CODE
       780**DCL       781--REDEF
UWA.AC_REC.FLAG1.ERROR_TYPE
       777**DCL       778--REDEF
UWA.AC_REC.PG_TYPE
       792**DCL       793--REDEF
UWA.AD_REC.ADDATE
       757**DCL       758--REDEF
UWA.DB_STATUS
       705**DCL      2729<>CALL

PL6.E3A0      #007=DB_FUNC_GET File=ZIC$IDSFUNCS.:ZIC0TSI                        FRI 09/05/97 11:39 Page:65
      174        1        /*T***********************************************************/
      175        2        /*T*                                                         */
      176        3        /*T* Copyright (c) Bull HN Information Systems Inc., 1997    */
      177        4        /*T*                                                         */
      178        5        /*T***********************************************************/
      179        6        DB_FUNC_GET: PROC(RC_OFF) ALTRET;
      180        7    1   DCL STAT_CHK ENTRY(1) ALTRET;
      181        8        /**/
      182        9        %INCLUDE ZI_UWA_C;
      183      699        %ZI$UWAB;
      184     1039        %INCLUDE ZI_RVA_C;
      185     1720        %CAN_RVA_REF;
      186     2039        %IA$MAC;
      187     2050        %DB_MAC;
      188     2057        %USEP_MAC;
      189     2065        %INCLUDE ZI_DBCS;
      190     2678        %ASL;
      191     2692        %IPT_GET (IAN=IA,UWAN=UWA,RVAN=CAN_RVA,USEPN=USEP);
      192     2704        /**/
      193     2705    1       IF RC_OFF = 0 THEN
      194     2706    1           IPT_GET.V.RC.RC_OFFSET#=POFFW(ADDR(CAN_RVA.NULL),ADDR(CAN_RVA));
      195     2707    1       ELSE
      196     2708    1           IPT_GET.V.RC.RC_OFFSET#=POFFW(ADDR(RC_OFF),ADDR(CAN_RVA));
      197     2709            %CLIMB(FCN=GET);
      198     2723    1       CALL STAT_CHK(UWA.DB_STATUS) ALTRET(ALT_GET);
      199     2724    1       RETURN;
      200     2725    1   ALT_GET:
      201     2726    1       ALTRETURN;
      202     2727    1   END DB_FUNC_GET;
      203     2728        %EOD;

PL6.E3A0      #007=DB_FUNC_GET File=ZIC$IDSFUNCS.:ZIC0TSI                        FRI 09/05/97 11:39 Page:66
--  Include file information  --

   ZI_DBCS.:ZIC0TOU  is referenced.
   ZI_RVA_C.:ZIC0TOU  is referenced.
   ZI_UWA_C.:ZIC0TOU  is referenced.
   B$JIT_C.:E05TOU  was found in the system file and is never referenced.
   CP_6_C.:E05TOU  was found in the system file and is never referenced.
      No diagnostics issued in procedure DB_FUNC_GET.

   Procedure DB_FUNC_GET requires 31 words for executable code.
   Procedure DB_FUNC_GET requires 10 words of local(AUTO) storage.

PL6.E3A0      #007=DB_FUNC_GET File=ZIC$IDSFUNCS.:ZIC0TSI                        FRI 09/05/97 11:39 Page:67

 Object Unit name= DB_FUNC_GET                                File name= ZIC$IDSFUNCS.:ZIC0TOU
 UTS= SEP 05 '97 11:39:38.76 FRI                              Compiler= PL-6/E31         Sev=      00
 SharedLib= :SHARED_SYSTEM                                    Alt SharedLib=


    ****  Control sections  ****

 Sect   Type Bound  Init  Size OctSiz  Section name(segment info)
    0   Data  even  none    16     20  DB_FUNC_GET
    1   Proc  even  none    31     37  DB_FUNC_GET
    2  RoData even  none     4      4  DB_FUNC_GET

    ****  Entry defs  ****

                              Check   Calling
                             calling  sequence
  Sect OctLoc Primary Altret sequence   type   Parms  Name
     1      0   yes    yes     yes      Std        1  DB_FUNC_GET

  ****  Entry refs  ****

         Check        Calling
        calling       sequence
Altret sequence SRef   type   Args  Name
 yes     yes           Std       1 STAT_CHK
                       nStd      0 X66_AUTO_1
                       nStd      0 X66_ARET
                       nStd      0 X66_AALT

  ****  Data refs  ****

  Flags:  r = read only, s = secondary
Flgs Name                             Flgs Name                             Flgs Name
     I$GET                                 UWA                                   CAN_RVA
     IA
PL6.E3A0      #007=DB_FUNC_GET File=ZIC$IDSFUNCS.:ZIC0TSI                        FRI 09/05/97 11:39 Page:68

  ****  Segment refs  ****

  Flags:  r = read only, s = secondary
Flgs Name                             Flgs Name                             Flgs Name
     ISSID                                 ASLENTSID
PL6.E3A0      #007=DB_FUNC_GET File=ZIC$IDSFUNCS.:ZIC0TSI                        FRI 09/05/97 11:39 Page:69


      174        1        /*T***********************************************************/
      175        2        /*T*                                                         */
      176        3        /*T* Copyright (c) Bull HN Information Systems Inc., 1997    */
      177        4        /*T*                                                         */
      178        5        /*T***********************************************************/
      179        6        DB_FUNC_GET: PROC(RC_OFF) ALTRET;

      6  1 000000   000000 700200 xent  DB_FUNC_GET  TSX0  ! X66_AUTO_1
         1 000001   000012 000001                    ZERO    10,1

      180        7    1   DCL STAT_CHK ENTRY(1) ALTRET;
      181        8        /**/
      182        9        %INCLUDE ZI_UWA_C;
      183      699        %ZI$UWAB;
      184     1039        %INCLUDE ZI_RVA_C;
      185     1720        %CAN_RVA_REF;
      186     2039        %IA$MAC;
      187     2050        %DB_MAC;
      188     2057        %USEP_MAC;
      189     2065        %INCLUDE ZI_DBCS;
      190     2678        %ASL;
      191     2692        %IPT_GET (IAN=IA,UWAN=UWA,RVAN=CAN_RVA,USEPN=USEP);
      192     2704        /**/
      193     2705    1       IF RC_OFF = 0 THEN

   2705  1 000002   200003 470500                    LDP0    @RC_OFF,,AUTO
         1 000003   000000 220100                    LDX0    0,,PR0
         1 000004   000016 601000 1                  TNZ     s:2708

      194     2706    1           IPT_GET.V.RC.RC_OFFSET#=POFFW(ADDR(CAN_RVA.NULL),ADDR(CAN_RVA));

   2706  1 000005   000000 236000 2                  LDQ     0
         1 000006   000022 772000                    QRL     18
         1 000007   200010 756100                    STQ     RET_SET+1,,AUTO
         1 000010   000001 236000 2                  LDQ     1
         1 000011   000022 772000                    QRL     18
PL6.E3A0      #007=DB_FUNC_GET File=ZIC$IDSFUNCS.:ZIC0TSI                        FRI 09/05/97 11:39 Page:70
         1 000012   200010 136100                    SBLQ    RET_SET+1,,AUTO
         1 000013   000000 620006                    EAX0    0,QL
         1 000014   000016 740000 0                  STX0    IPT_GET+10
         1 000015   000026 710000 1                  TRA     s:2717

      195     2707    1       ELSE
      196     2708    1           IPT_GET.V.RC.RC_OFFSET#=POFFW(ADDR(RC_OFF),ADDR(CAN_RVA));

   2708  1 000016   000000 236000 2                  LDQ     0
         1 000017   000022 772000                    QRL     18
         1 000020   200010 756100                    STQ     RET_SET+1,,AUTO
         1 000021   200003 236100                    LDQ     @RC_OFF,,AUTO
         1 000022   000022 772000                    QRL     18
         1 000023   200010 136100                    SBLQ    RET_SET+1,,AUTO
         1 000024   000000 620006                    EAX0    0,QL
         1 000025   000016 740000 0                  STX0    IPT_GET+10

      197     2709            %CLIMB(FCN=GET);

   2717  1 000026   000004 630400 0                  EPPR0   IPT_GET
         1 000027   000000 713400 xsym               CLIMB   I$GET
         1 000030   402000 600000 xsid               climb   nvectors=         5

      198     2723    1       CALL STAT_CHK(UWA.DB_STATUS) ALTRET(ALT_GET);

   2723  1 000031   000003 630400 2                  EPPR0   3
         1 000032   000002 631400 2                  EPPR1   2
         1 000033   000000 701000 xent               TSX1    STAT_CHK
         1 000034   000036 702000 1                  TSX2    ALT_GET

      199     2724    1       RETURN;

   2724  1 000035   000000 702200 xent               TSX2  ! X66_ARET

      200     2725    1   ALT_GET:
      201     2726    1       ALTRETURN;

PL6.E3A0      #007=DB_FUNC_GET File=ZIC$IDSFUNCS.:ZIC0TSI                        FRI 09/05/97 11:39 Page:71
   2726  1 000036   000000 702200 xent  ALT_GET      TSX2  ! X66_AALT

USEP
 Sect OctLoc
   0     000   000001 000000   003017 204400   000000 000000                    ............

IPT_GET
 Sect OctLoc
   0     004   000001 777640   000016 006000   000055 777640   000000 006000    .........-......
   0     010   001217 777640   000000 006000   000151 777640   000000 006000    .........i......
   0     014   000003 777640   000000 006000   000000 000000   ****** ******    ................

(unnamed)
 Sect OctLoc
   2     000   000000 006000   000150 006000   000001 000000   000001 406000    .....h..........
      202     2727    1   END DB_FUNC_GET;
      203     2728        %EOD;

PL6.E3A0      #007=DB_FUNC_GET File=ZIC$IDSFUNCS.:ZIC0TSI                        FRI 09/05/97 11:39 Page:72
--  Include file information  --

   ZI_DBCS.:ZIC0TOU  is referenced.
   ZI_RVA_C.:ZIC0TOU  is referenced.
   ZI_UWA_C.:ZIC0TOU  is referenced.
   B$JIT_C.:E05TOU  was found in the system file and is never referenced.
   CP_6_C.:E05TOU  was found in the system file and is never referenced.
      No diagnostics issued in procedure DB_FUNC_GET.

   Procedure DB_FUNC_GET requires 31 words for executable code.
   Procedure DB_FUNC_GET requires 10 words of local(AUTO) storage.
PL6.E3A0      #007=DB_FUNC_GET File=ZIC$IDSFUNCS.:ZIC0TSI                        FRI 09/05/97 11:39 Page:73
          *** CROSS REFERENCE LISTING ***
**     DENOTES     IDENTIFIER DEFINITION
<<                 IDENTIFIER'S VALUE SET
>>                 IDENTIFIER'S VALUE USED
<>                 IDENTIFIER SET AND/OR USED
--                 IDENTIFIER REFERENCED
PL6.E3A0      #007=DB_FUNC_GET File=ZIC$IDSFUNCS.:ZIC0TSI                        FRI 09/05/97 11:39 Page:74
          MINI XREF LISTING

ALT_GET
      2726**LABEL    2723--CALLALT
CAN_RVA
      1721**DCL      2700--DCLINIT  2706--ASSIGN   2708--ASSIGN
CAN_RVA.NULL
      2033**DCL      2706--ASSIGN
I$GET
      2686**DCL-ENT  2717--CALL
IA
      2040**DCL      2699--DCLINIT
IPT_GET
      2699**DCL      2717<>CALL
IPT_GET.V
      2701**DCL      2699--DCLINIT
IPT_GET.V.RC.RC_OFFSET#
      2701**DCL      2706<<ASSIGN   2708<<ASSIGN
RC_OFF
      2051**DCL         6--PROC     2705>>IF       2708--ASSIGN
STAT_CHK
         7**DCL-ENT  2723--CALL
USEP
      2058**DCL      2700--DCLINIT
UWA
       700**DCL      2700--DCLINIT
UWA.AC_REC.CALC_NEXT
       815**DCL       816--REDEF
UWA.AC_REC.CALC_PRIOR
       824**DCL       825--REDEF
UWA.AC_REC.DEFAULTS
       773**DCL       774--REDEF
UWA.AC_REC.FILE_CODE
       778**DCL       779--REDEF
PL6.E3A0      #007=DB_FUNC_GET File=ZIC$IDSFUNCS.:ZIC0TSI                        FRI 09/05/97 11:39 Page:75
UWA.AC_REC.FLAG1.ERROR_TYPE
       775**DCL       776--REDEF
UWA.AC_REC.PG_TYPE
       790**DCL       791--REDEF
UWA.AD_REC.ADDATE
       755**DCL       756--REDEF
UWA.DB_STATUS
       703**DCL      2723<>CALL

PL6.E3A0      #008=DB_FUNC_NBF File=ZIC$IDSFUNCS.:ZIC0TSI                        FRI 09/05/97 11:39 Page:76
      204        1        /*T***********************************************************/
      205        2        /*T*                                                         */
      206        3        /*T* Copyright (c) Bull HN Information Systems Inc., 1997    */
      207        4        /*T*                                                         */
      208        5        /*T***********************************************************/
      209        6        DB_FUNC_NBF: PROC (BUFF) ALTRET;
      210        7    1   DCL STAT_CHK ENTRY(1) ALTRET;
      211        8    1   DCL BUFF SBIN(36) ALIGNED;
      212        9    1   DCL BUFALOC SBIN(36) ALIGNED;
      213       10        /**/
      214       11        %INCLUDE ZI_UWA_C;
      215      701        %ZI$UWAB;
      216     1041        %INCLUDE ZI_RVA_C;
      217     1722        %CAN_RVA_REF;
      218     2041        %IA$MAC;
      219     2052        %INCLUDE ZI_DBCS;
      220     2665        %ASL;
      221     2679        %IPT_NBF;
      222     2689        /**/
      223     2690    1       IPT_NBF.BUFFS_REQ_ = VECTOR(BUFF);
      224     2691    1       IPT_NBF.BUFFS_ALLOC_ = VECTOR(BUFALOC);
      225     2692            %CLIMB(FCN=NBF);
      226     2706    1       CALL STAT_CHK(UWA.DB_STATUS) ALTRET(ALT_NBF);
      227     2707    1       RETURN;
      228     2708    1   ALT_NBF:
      229     2709    1       ALTRETURN;
      230     2710    1   END DB_FUNC_NBF;
      231     2711        %EOD;

PL6.E3A0      #008=DB_FUNC_NBF File=ZIC$IDSFUNCS.:ZIC0TSI                        FRI 09/05/97 11:39 Page:77
--  Include file information  --

   ZI_DBCS.:ZIC0TOU  is referenced.
   ZI_RVA_C.:ZIC0TOU  is referenced.
   ZI_UWA_C.:ZIC0TOU  is referenced.
   B$JIT_C.:E05TOU  was found in the system file and is never referenced.
   CP_6_C.:E05TOU  was found in the system file and is never referenced.
      No diagnostics issued in procedure DB_FUNC_NBF.

   Procedure DB_FUNC_NBF requires 19 words for executable code.
   Procedure DB_FUNC_NBF requires 8 words of local(AUTO) storage.

PL6.E3A0      #008=DB_FUNC_NBF File=ZIC$IDSFUNCS.:ZIC0TSI                        FRI 09/05/97 11:39 Page:78

 Object Unit name= DB_FUNC_NBF                                File name= ZIC$IDSFUNCS.:ZIC0TOU
 UTS= SEP 05 '97 11:39:49.20 FRI                              Compiler= PL-6/E31         Sev=      00
 SharedLib= :SHARED_SYSTEM                                    Alt SharedLib=


    ****  Control sections  ****

 Sect   Type Bound  Init  Size OctSiz  Section name(segment info)
    0   Data  even  none     4      4  DB_FUNC_NBF
    1   Proc  even  none    19     23  DB_FUNC_NBF
    2  RoData even  none     2      2  DB_FUNC_NBF

    ****  Entry defs  ****

                              Check   Calling
                             calling  sequence
  Sect OctLoc Primary Altret sequence   type   Parms  Name
     1      0   yes    yes     yes      Std        1  DB_FUNC_NBF

  ****  Entry refs  ****

         Check        Calling
        calling       sequence
Altret sequence SRef   type   Args  Name
 yes     yes           Std       1 STAT_CHK
                       nStd      0 X66_AUTO_1
                       nStd      0 X66_ARET
                       nStd      0 X66_AALT

  ****  Data refs  ****

  Flags:  r = read only, s = secondary
Flgs Name                             Flgs Name                             Flgs Name
     I$NBF                                 UWA                                   CAN_RVA
     IA
PL6.E3A0      #008=DB_FUNC_NBF File=ZIC$IDSFUNCS.:ZIC0TSI                        FRI 09/05/97 11:39 Page:79

  ****  Segment refs  ****

  Flags:  r = read only, s = secondary
Flgs Name                             Flgs Name                             Flgs Name
     NULLSID                               ASLENTSID                             ISSID
PL6.E3A0      #008=DB_FUNC_NBF File=ZIC$IDSFUNCS.:ZIC0TSI                        FRI 09/05/97 11:39 Page:80


      204        1        /*T***********************************************************/
      205        2        /*T*                                                         */
      206        3        /*T* Copyright (c) Bull HN Information Systems Inc., 1997    */
      207        4        /*T*                                                         */
      208        5        /*T***********************************************************/
      209        6        DB_FUNC_NBF: PROC (BUFF) ALTRET;

      6  1 000000   000000 700200 xent  DB_FUNC_NBF  TSX0  ! X66_AUTO_1
         1 000001   000010 000001                    ZERO    8,1

      210        7    1   DCL STAT_CHK ENTRY(1) ALTRET;
      211        8    1   DCL BUFF SBIN(36) ALIGNED;
      212        9    1   DCL BUFALOC SBIN(36) ALIGNED;
      213       10        /**/
      214       11        %INCLUDE ZI_UWA_C;
      215      701        %ZI$UWAB;
      216     1041        %INCLUDE ZI_RVA_C;
      217     1722        %CAN_RVA_REF;
      218     2041        %IA$MAC;
      219     2052        %INCLUDE ZI_DBCS;
      220     2665        %ASL;
      221     2679        %IPT_NBF;
      222     2689        /**/
      223     2690    1       IPT_NBF.BUFFS_REQ_ = VECTOR(BUFF);

   2690  1 000002   777640 235007                    LDA     -96,DL
         1 000003   200003 236100                    LDQ     @BUFF,,AUTO
         1 000004   000000 757000 0                  STAQ    IPT_NBF

      224     2691    1       IPT_NBF.BUFFS_ALLOC_ = VECTOR(BUFALOC);

   2691  1 000005   777640 235007                    LDA     -96,DL
         1 000006   200006 452500                    STP2    BUFALOC+2,,AUTO
         1 000007   200006 236100                    LDQ     BUFALOC+2,,AUTO
         1 000010   000004 036003                    ADLQ    4,DU
         1 000011   000002 757000 0                  STAQ    IPT_NBF+2
PL6.E3A0      #008=DB_FUNC_NBF File=ZIC$IDSFUNCS.:ZIC0TSI                        FRI 09/05/97 11:39 Page:81

      225     2692            %CLIMB(FCN=NBF);

   2700  1 000012   000000 630400 0                  EPPR0   IPT_NBF
         1 000013   000000 713400 xsym               CLIMB   I$NBF
         1 000014   400400 600000 xsid               climb   nvectors=         2

      226     2706    1       CALL STAT_CHK(UWA.DB_STATUS) ALTRET(ALT_NBF);

   2706  1 000015   000001 630400 2                  EPPR0   1
         1 000016   000000 631400 2                  EPPR1   0
         1 000017   000000 701000 xent               TSX1    STAT_CHK
         1 000020   000022 702000 1                  TSX2    ALT_NBF

      227     2707    1       RETURN;

   2707  1 000021   000000 702200 xent               TSX2  ! X66_ARET

      228     2708    1   ALT_NBF:
      229     2709    1       ALTRETURN;

   2709  1 000022   000000 702200 xent  ALT_NBF      TSX2  ! X66_AALT

IPT_NBF
 Sect OctLoc
   0     000   000000 177640   000000 006014   000000 177640   000000 006014    ................

(unnamed)
 Sect OctLoc
   2     000   000001 000000   000001 406000                                    ........
      230     2710    1   END DB_FUNC_NBF;
      231     2711        %EOD;

PL6.E3A0      #008=DB_FUNC_NBF File=ZIC$IDSFUNCS.:ZIC0TSI                        FRI 09/05/97 11:39 Page:82
--  Include file information  --

   ZI_DBCS.:ZIC0TOU  is referenced.
   ZI_RVA_C.:ZIC0TOU  is referenced.
   ZI_UWA_C.:ZIC0TOU  is referenced.
   B$JIT_C.:E05TOU  was found in the system file and is never referenced.
   CP_6_C.:E05TOU  was found in the system file and is never referenced.
      No diagnostics issued in procedure DB_FUNC_NBF.

   Procedure DB_FUNC_NBF requires 19 words for executable code.
   Procedure DB_FUNC_NBF requires 8 words of local(AUTO) storage.
PL6.E3A0      #008=DB_FUNC_NBF File=ZIC$IDSFUNCS.:ZIC0TSI                        FRI 09/05/97 11:39 Page:83
          *** CROSS REFERENCE LISTING ***
**     DENOTES     IDENTIFIER DEFINITION
<<                 IDENTIFIER'S VALUE SET
>>                 IDENTIFIER'S VALUE USED
<>                 IDENTIFIER SET AND/OR USED
--                 IDENTIFIER REFERENCED
PL6.E3A0      #008=DB_FUNC_NBF File=ZIC$IDSFUNCS.:ZIC0TSI                        FRI 09/05/97 11:39 Page:84
          MINI XREF LISTING

ALT_NBF
      2709**LABEL    2706--CALLALT
BUFALOC
         9**DCL      2691--ASSIGN
BUFF
         8**DCL         6--PROC     2690--ASSIGN
I$NBF
      2677**DCL-ENT  2700--CALL
IPT_NBF
      2686**DCL      2700<>CALL
IPT_NBF.BUFFS_ALLOC_
      2686**DCL      2691<<ASSIGN
IPT_NBF.BUFFS_REQ_
      2686**DCL      2690<<ASSIGN
STAT_CHK
         7**DCL-ENT  2706--CALL
UWA.AC_REC.CALC_NEXT
       817**DCL       818--REDEF
UWA.AC_REC.CALC_PRIOR
       826**DCL       827--REDEF
UWA.AC_REC.DEFAULTS
       775**DCL       776--REDEF
UWA.AC_REC.FILE_CODE
       780**DCL       781--REDEF
UWA.AC_REC.FLAG1.ERROR_TYPE
       777**DCL       778--REDEF
UWA.AC_REC.PG_TYPE
       792**DCL       793--REDEF
UWA.AD_REC.ADDATE
       757**DCL       758--REDEF
UWA.DB_STATUS
       705**DCL      2706<>CALL

PL6.E3A0      #009=DB_FUNC_FIN File=ZIC$IDSFUNCS.:ZIC0TSI                        FRI 09/05/97 11:39 Page:85
      232        1        /*T***********************************************************/
      233        2        /*T*                                                         */
      234        3        /*T* Copyright (c) Bull HN Information Systems Inc., 1997    */
      235        4        /*T*                                                         */
      236        5        /*T***********************************************************/
      237        6        DB_FUNC_FIN: PROC ALTRET;
      238        7    1   DCL STAT_CHK ENTRY(1) ALTRET;
      239        8        /**/
      240        9        %INCLUDE ZI_UWA_C;
      241      699        %ZI$UWAB;
      242     1039        %INCLUDE ZI_RVA_C;
      243     1720        %CAN_RVA_REF;
      244     2039        %IA$MAC;
      245     2050        %DB_MAC;
      246     2057        %USEP_MAC;
      247     2065        %INCLUDE ZI_DBCS;
      248     2678        %ASL;
      249     2692        %IPT_FIN (IAN=IA,UWAN=UWA,RVAN=CAN_RVA,USEPN=USEP);
      250     2705        /**/
      251     2706         %CLIMB(FCN=FIN);
      252     2720    1       CALL STAT_CHK(UWA.DB_STATUS) ALTRET(ALT_FIN);
      253     2721    1       RETURN;
      254     2722    1   ALT_FIN:
      255     2723    1       ALTRETURN;
      256     2724    1   END DB_FUNC_FIN;
      257     2725        %EOD;

PL6.E3A0      #009=DB_FUNC_FIN File=ZIC$IDSFUNCS.:ZIC0TSI                        FRI 09/05/97 11:39 Page:86
--  Include file information  --

   ZI_DBCS.:ZIC0TOU  is referenced.
   ZI_RVA_C.:ZIC0TOU  is referenced.
   ZI_UWA_C.:ZIC0TOU  is referenced.
   B$JIT_C.:E05TOU  was found in the system file and is never referenced.
   CP_6_C.:E05TOU  was found in the system file and is never referenced.
      No diagnostics issued in procedure DB_FUNC_FIN.

   Procedure DB_FUNC_FIN requires 11 words for executable code.
   Procedure DB_FUNC_FIN requires 8 words of local(AUTO) storage.

PL6.E3A0      #009=DB_FUNC_FIN File=ZIC$IDSFUNCS.:ZIC0TSI                        FRI 09/05/97 11:39 Page:87

 Object Unit name= DB_FUNC_FIN                                File name= ZIC$IDSFUNCS.:ZIC0TOU
 UTS= SEP 05 '97 11:39:59.96 FRI                              Compiler= PL-6/E31         Sev=      00
 SharedLib= :SHARED_SYSTEM                                    Alt SharedLib=


    ****  Control sections  ****

 Sect   Type Bound  Init  Size OctSiz  Section name(segment info)
    0   Data  even  none    16     20  DB_FUNC_FIN
    1   Proc  even  none    11     13  DB_FUNC_FIN
    2  RoData even  none     2      2  DB_FUNC_FIN

    ****  Entry defs  ****

                              Check   Calling
                             calling  sequence
  Sect OctLoc Primary Altret sequence   type   Parms  Name
     1      0   yes    yes     yes      Std        0  DB_FUNC_FIN

  ****  Entry refs  ****

         Check        Calling
        calling       sequence
Altret sequence SRef   type   Args  Name
 yes     yes           Std       1 STAT_CHK
                       nStd      0 X66_AUTO_0
                       nStd      0 X66_ARET
                       nStd      0 X66_AALT

  ****  Data refs  ****

  Flags:  r = read only, s = secondary
Flgs Name                             Flgs Name                             Flgs Name
     I$FIN                                 UWA                                   CAN_RVA
     IA
PL6.E3A0      #009=DB_FUNC_FIN File=ZIC$IDSFUNCS.:ZIC0TSI                        FRI 09/05/97 11:39 Page:88

  ****  Segment refs  ****

  Flags:  r = read only, s = secondary
Flgs Name                             Flgs Name                             Flgs Name
     ISSID                                 ASLENTSID
PL6.E3A0      #009=DB_FUNC_FIN File=ZIC$IDSFUNCS.:ZIC0TSI                        FRI 09/05/97 11:39 Page:89


      232        1        /*T***********************************************************/
      233        2        /*T*                                                         */
      234        3        /*T* Copyright (c) Bull HN Information Systems Inc., 1997    */
      235        4        /*T*                                                         */
      236        5        /*T***********************************************************/
      237        6        DB_FUNC_FIN: PROC ALTRET;

      6  1 000000   000000 700200 xent  DB_FUNC_FIN  TSX0  ! X66_AUTO_0
         1 000001   000010 000000                    ZERO    8,0

      238        7    1   DCL STAT_CHK ENTRY(1) ALTRET;
      239        8        /**/
      240        9        %INCLUDE ZI_UWA_C;
      241      699        %ZI$UWAB;
      242     1039        %INCLUDE ZI_RVA_C;
      243     1720        %CAN_RVA_REF;
      244     2039        %IA$MAC;
      245     2050        %DB_MAC;
      246     2057        %USEP_MAC;
      247     2065        %INCLUDE ZI_DBCS;
      248     2678        %ASL;
      249     2692        %IPT_FIN (IAN=IA,UWAN=UWA,RVAN=CAN_RVA,USEPN=USEP);
      250     2705        /**/
      251     2706         %CLIMB(FCN=FIN);

   2714  1 000002   000004 630400 0                  EPPR0   IPT_FIN
         1 000003   000000 713400 xsym               CLIMB   I$FIN
         1 000004   402000 600000 xsid               climb   nvectors=         5

      252     2720    1       CALL STAT_CHK(UWA.DB_STATUS) ALTRET(ALT_FIN);

   2720  1 000005   000001 630400 2                  EPPR0   1
         1 000006   000000 631400 2                  EPPR1   0
         1 000007   000000 701000 xent               TSX1    STAT_CHK
         1 000010   000012 702000 1                  TSX2    ALT_FIN

PL6.E3A0      #009=DB_FUNC_FIN File=ZIC$IDSFUNCS.:ZIC0TSI                        FRI 09/05/97 11:39 Page:90
      253     2721    1       RETURN;

   2721  1 000011   000000 702200 xent               TSX2  ! X66_ARET

      254     2722    1   ALT_FIN:
      255     2723    1       ALTRETURN;

   2723  1 000012   000000 702200 xent  ALT_FIN      TSX2  ! X66_AALT

USEP
 Sect OctLoc
   0     000   000001 000000   003017 204400   000000 000000                    ............

IPT_FIN
 Sect OctLoc
   0     004   000001 777640   000016 006000   000055 777640   000000 006000    .........-......
   0     010   001217 777640   000000 006000   000151 777640   000000 006000    .........i......
   0     014   000003 777640   000000 006000   000000 000000   000000 000000    ................

(unnamed)
 Sect OctLoc
   2     000   000001 000000   000001 406000                                    ........
      256     2724    1   END DB_FUNC_FIN;
      257     2725        %EOD;

PL6.E3A0      #009=DB_FUNC_FIN File=ZIC$IDSFUNCS.:ZIC0TSI                        FRI 09/05/97 11:39 Page:91
--  Include file information  --

   ZI_DBCS.:ZIC0TOU  is referenced.
   ZI_RVA_C.:ZIC0TOU  is referenced.
   ZI_UWA_C.:ZIC0TOU  is referenced.
   B$JIT_C.:E05TOU  was found in the system file and is never referenced.
   CP_6_C.:E05TOU  was found in the system file and is never referenced.
      No diagnostics issued in procedure DB_FUNC_FIN.

   Procedure DB_FUNC_FIN requires 11 words for executable code.
   Procedure DB_FUNC_FIN requires 8 words of local(AUTO) storage.
PL6.E3A0      #009=DB_FUNC_FIN File=ZIC$IDSFUNCS.:ZIC0TSI                        FRI 09/05/97 11:39 Page:92
          *** CROSS REFERENCE LISTING ***
**     DENOTES     IDENTIFIER DEFINITION
<<                 IDENTIFIER'S VALUE SET
>>                 IDENTIFIER'S VALUE USED
<>                 IDENTIFIER SET AND/OR USED
--                 IDENTIFIER REFERENCED
PL6.E3A0      #009=DB_FUNC_FIN File=ZIC$IDSFUNCS.:ZIC0TSI                        FRI 09/05/97 11:39 Page:93
          MINI XREF LISTING

ALT_FIN
      2723**LABEL    2720--CALLALT
CAN_RVA
      1721**DCL      2700--DCLINIT
I$FIN
      2680**DCL-ENT  2714--CALL
IA
      2040**DCL      2699--DCLINIT
IPT_FIN
      2699**DCL      2714<>CALL
IPT_FIN.V
      2701**DCL      2699--DCLINIT
STAT_CHK
         7**DCL-ENT  2720--CALL
USEP
      2058**DCL      2700--DCLINIT
UWA
       700**DCL      2700--DCLINIT
UWA.AC_REC.CALC_NEXT
       815**DCL       816--REDEF
UWA.AC_REC.CALC_PRIOR
       824**DCL       825--REDEF
UWA.AC_REC.DEFAULTS
       773**DCL       774--REDEF
UWA.AC_REC.FILE_CODE
       778**DCL       779--REDEF
UWA.AC_REC.FLAG1.ERROR_TYPE
       775**DCL       776--REDEF
UWA.AC_REC.PG_TYPE
       790**DCL       791--REDEF
UWA.AD_REC.ADDATE
       755**DCL       756--REDEF
PL6.E3A0      #009=DB_FUNC_FIN File=ZIC$IDSFUNCS.:ZIC0TSI                        FRI 09/05/97 11:39 Page:94
UWA.DB_STATUS
       703**DCL      2720<>CALL

PL6.E3A0      #010=SYS_FUNC_OPEN File=ZIC$IDSFUNCS.:ZIC0TSI                      FRI 09/05/97 11:40 Page:95
      258        1        /*T***********************************************************/
      259        2        /*T*                                                         */
      260        3        /*T* Copyright (c) Bull HN Information Systems Inc., 1997    */
      261        4        /*T*                                                         */
      262        5        /*T***********************************************************/
      263        6        SYS_FUNC_OPEN: PROC /*Dcbsf,  dcb number to be opened */
      264        7         /*Orgsf,  file organization */
      265        8         /*Testsf  %YES# = test open only */
      266        9         /*Xtensizesf, granuals reserved at create */
      267       10         /*Acssf    access mode (seq,direct) */
      268       11         /*Funsf    function (in,out,update) */
      269       12         /*Anssf    1=file 2=tape 3=device */
      270       13         /*Bkupsf   create attrib ..backup of file */
      271       14         /*Acnt     list of accounts w/exec priv */
      272       15         /*Fidsf    file or dcb name */
      273       16         /*Existsf  open mode of the file */
      274       17         /*Sharesf  share options on the 'DCB' */
      275       18               ALTRET;
      276       19    1   DCL M$SI DCB;
      277       20    1   DCL SYS_FUNC_ERRMSG ENTRY ALTRET;
      278       21    1   DCL FILE_INFO (0:1023) UBIN WORD STATIC;
      279       22    1   DCL ACCOUNT# CHAR(8) BASED;
      280       23    1   DCL ACCOUNT$ PTR;
      281       24    1   DCL 1 FLNM STATIC ALIGNED,
      282       25    1         2 CNT UBIN(9) UNAL,
      283       26    1         2 FILE_NM CHAR(30) UNAL;
      284       27        %INCLUDE ZI_GLOBAL_DBUTIL;
      285      205         %SYS_FUNC;
      286      297         %MISC_DCLS;
      287      350        %INCLUDE CP_6;
      288      431        %INCLUDE CP_6_SUBS;
      289      971        %B$TCB;
      290      974        %B$EXCFR;
      291      992        %INCLUDE B_ERRORS_C;
      292     2119        %VLP_SN(N=1);
      293     2132        %FPT_OPEN(FPTN=RES_FPT);
      294     2241        %FPT_OPEN(FPTN=OPEN_FPT);
PL6.E3A0      #010=SYS_FUNC_OPEN File=ZIC$IDSFUNCS.:ZIC0TSI                      FRI 09/05/97 11:40 Page:96
      295     2350        %VLP_ATTR(FPTN=VEH);
      296     2364        %VLP_ACSVEH(READ=YES,
      297     2365         UPD=YES,
      298     2366         VEHICLE='IDS',
      299     2367         LAST=";");
      300     2384        %VLP_ATTR(FPTN=KEYVEH);
      301     2398        %VLP_ACSVEH(READ=YES,
      302     2399         WNEW=YES,
      303     2400         DELR=YES,
      304     2401         DELF=YES,
      305     2402         UPD=YES,
      306     2403         VEHICLE='IDS',
      307     2404         LAST=";");
      308     2421        %VLP_ATTR(FPTN=ACNT_ALL);
      309     2435        %VLP_ACCESS(EXEC=YES,NOLIST=YES,ACCT='ALL',LAST=";");
      310     2452        %VLP_ATTR(FPTN=ACCOUNT);
      311     2466        %VLP_ACCESS(EXEC=NO,NOLIST=YES,ACCT='ALL');
      312     2483        %VLP_ACCESS(EXEC=YES,NOLIST=NO);
      313     2500        %VLP_ACCESS(EXEC=YES,NOLIST=NO);
      314     2517        %VLP_ACCESS(EXEC=YES,NOLIST=NO);
      315     2534        %VLP_ACCESS(EXEC=YES,NOLIST=NO);
      316     2551        %VLP_ACCESS(EXEC=YES,NOLIST=NO);
      317     2568        %VLP_ACCESS(EXEC=YES,NOLIST=NO);
      318     2585        %VLP_ACCESS(EXEC=YES,NOLIST=NO);
      319     2602        %VLP_ACCESS(EXEC=YES,NOLIST=NO);
      320     2619        %VLP_ACCESS(EXEC=YES,NOLIST=NO);
      321     2636        %VLP_ACCESS(EXEC=YES,NOLIST=NO,LAST=";");
      322     2653        /**/
      323     2654        %F$DCB;
      324     2711    1       RES_FPT.V.DCB# = DCBSF;
      325     2712    1       OPEN_FPT.V.DCB# = DCBSF;
      326     2713        /*
      327     2714               Set up special opens for M$SI and M$LO.
      328     2715        */
      329     2716    1       IF DCBSF = DCBNUM(M$LO) OR DCBSF = DCBNUM(M$SI) THEN
      330     2717    2       DO;
      331     2718    2           RES_FPT.V.INITZ.SCRUB# = %YES#;
PL6.E3A0      #010=SYS_FUNC_OPEN File=ZIC$IDSFUNCS.:ZIC0TSI                      FRI 09/05/97 11:40 Page:97
      332     2719    2           RES_FPT.V.INITZ.REASSIGN# = REASGNSF ;
      333     2720    2           RES_FPT.V.CTG# = %YES# ;
      334     2721    2           CALL M$OPEN(RES_FPT) ALTRET(OPEN_ERR);
      335     2722    2           RETURN;
      336     2723    2           END;
      337     2724    1       IF FIDSF = '*SORT ' THEN
      338     2725    1           RES_FPT.V.DISP# = %SCRATCH#;
      339     2726    1       ELSE
      340     2727    1           RES_FPT.V.DISP# = 0;
      341     2728    1       OPEN_FPT.V.ORG#=ORGSF;
      342     2729    1       OPEN_FPT.V.OPER.TEST#=TESTSF;
      343     2730    1       OPEN_FPT.V.CTG#=%YES#;
      344     2731    1       OPEN_FPT.V.SHARE#=SHARESF;
      345     2732    1       OPEN_FPT.V.ACS#=ACSSF;
      346     2733    1       OPEN_FPT.V.FUN#=FUNSF;
      347     2734    1       IF REASGNSF = %NO# THEN
      348     2735    1           OPEN_FPT.V.ASN#=DCBADDR(DCBSF)->F$DCB.ASN#;
      349     2736    1       ELSE
      350     2737    1           OPEN_FPT.V.ASN# = ASNSF;
      351     2738    1       IF FUNSF = %CREATE# THEN
      352     2739    1           OPEN_FPT.V.IXTNSIZE# = XTENSIZESF;
      353     2740    1       OPEN_FPT.V.SETDCB#=%YES#;
      354     2741    1       IF FIDSF = '  ' THEN
      355     2742    1           OPEN_FPT.NAME_ = VECTOR(NIL);
      356     2743    2       ELSE DO;
      357     2744    2           CALL INDEX(I,' ',FIDSF,0);
      358     2745    2           FLNM.CNT = I;
      359     2746    2           FLNM.FILE_NM = FIDSF;
      360     2747    2           OPEN_FPT.NAME_ = VECTOR(FLNM);
      361     2748    2           END;
      362     2749    1       IF SPKY_OPNSF THEN OPEN_FPT.V.FUN#=%UPDATE#;
      363     2750    1       CALL M$OPEN(OPEN_FPT) ALTRET(OPEN_ERR);
      364     2751    1       RES_FPT.V.INITZ.SCRUB# = %NO#;
      365     2752    1       RES_FPT.V.INITZ.REASSIGN#=REASGNSF;
      366     2753    1       RES_FPT.V.SETDCB#=%NO#;
      367     2754    1       RES_FPT.V.ORG# = ORGSF;
      368     2755    1       RES_FPT.V.OPER.TEST#=TESTSF;
PL6.E3A0      #010=SYS_FUNC_OPEN File=ZIC$IDSFUNCS.:ZIC0TSI                      FRI 09/05/97 11:40 Page:98
      369     2756    1       RES_FPT.V.ACS# = ACSSF;
      370     2757    1       RES_FPT.V.FUN# = FUNSF;
      371     2758    1       IF PSNSF.VOL# > 1 THEN
      372     2759    1           RES_FPT.V.VOL# = PSNSF.VOL#;
      373     2760    1       ELSE RES_FPT.V.VOL# = 0;
      374     2761    1       IF DCBADDR(DCBSF) -> F$DCB.ASN# = %TAPE# AND REASGNSF = %NO#
      375     2762    1       THEN RES_FPT.V.OPER.NXTF# = %YES#; /* Open next on tape */
      376     2763    1       ELSE
      377     2764    1           RES_FPT.V.OPER.NXTF# = %NO#;
      378     2765    1       IF KEY_SHADWSF > 0 THEN
      379     2766    2       DO;
      380     2767    2           RES_FPT.V.ASN# = DCBADDR(KEY_SHADWSF)->F$DCB.ASN#;
      381     2768    2           RES_FPT.ACCT_ = VECTOR(DCBADDR(KEY_SHADWSF)->F$DCB.ACCT#);
      382     2769    2           RES_FPT.NAME_ = VECTOR(FLNM);
      383     2770    2           VLP_SN.SN#(0) = DCBADDR(KEY_SHADWSF)->F$DCB.PSN#;
      384     2771    2           RES_FPT.SN_ = VECTOR(VLP_SN);
      385     2772    2           END;
      386     2773    2       ELSE DO;
      387     2774    2           RES_FPT.V.ASN# = 0; /* Unspecified (get from set cmnd) */
      388     2775    2           RES_FPT.ACCT_ = VECTOR(NIL);
      389     2776    2           RES_FPT.NAME_ = VECTOR(NIL);
      390     2777    2           END;
      391     2778         /*2 opens are use to merge
      392     2779         in the set command if specified*/
      393     2780    1       IF FUNSF=%CREATE# THEN
      394     2781    2       DO; /* Install create attrib */
      395     2782    2           RES_FPT.V.EXIST#=EXISTSF;
      396     2783    2           RES_FPT.V.IXTNSIZE#=XTENSIZESF;
      397     2784    2           IF XTENSIZESF > 100 THEN
      398     2785    2               RES_FPT.V.XTNSIZE# = 100;
      399     2786    2           ELSE
      400     2787    2               RES_FPT.V.XTNSIZE# = XTENSIZESF;
      401     2788    2           IF (ORGSF = %IDS#) OR (ORGSF = %KEYED#) THEN
      402     2789    3           DO;
      403     2790    3               IF CARRY_ATTRIBUTESF = %YES# THEN
      404     2791    4               DO;
      405     2792    4                   RES_FPT.IFPARAM_ = VECTOR(FILE_INFO);
PL6.E3A0      #010=SYS_FUNC_OPEN File=ZIC$IDSFUNCS.:ZIC0TSI                      FRI 09/05/97 11:40 Page:99
      406     2793    4                   RES_FPT.FPARAM_ = VECTOR(NIL);
      407     2794    4                   IF ORGSF = %KEYED# THEN
      408     2795    4                       RES_FPT.V.TYPE# = '3I';
      409     2796    4                   ELSE
      410     2797    4                       RES_FPT.V.TYPE# = 'II';
      411     2798    4                   END;
      412     2799    4               ELSE DO;
      413     2800    4                   RES_FPT.ACSVEH_ = VECTOR(VEH);
      414     2801         /* Check acnt list - default all for following cond:
      415     2802            'ACNT(0)' = blank
      416     2803            'ALL' is an element of acnt list or
      417     2804            '?' is an element of acnt list. */
      418     2805    4                   ACNT_ALL.SIZ# = 3;
      419     2806    4                   IF ACNT(0) = '  ' THEN
      420     2807    5                   DO;
      421     2808    5                       ACNT(0) = 'ALL';
      422     2809    5                       RES_FPT.ACCESS_ = VECTOR(ACNT_ALL);
      423     2810    5                       END;
      424     2811    4                   ELSE
      425     2812    5                   DO J = 0 TO 9 BY 1;
      426     2813    5                       IF ACNT(J) = 'ALL' OR ACNT(J) = '?' THEN
      427     2814    6                       DO;
      428     2815    6                           ACNT(0) = 'ALL';
      429     2816    6                           RES_FPT.ACCESS_ = VECTOR(ACNT_ALL);
      430     2817    6                           END;
      431     2818    5                       END;
      432     2819    4                   IF ACNT(0) ~= 'ALL' THEN
      433     2820    5                   DO;
      434     2821    5                       I=0;
      435     2822    6                       DO WHILE((ACNT(I) ~= '  ') AND (I < 10));
      436     2823    6                           I = I+1;
      437     2824    6                           END;
      438     2825    5                       ACCOUNT.SIZ# = 3+((3+(10*I))/4); /* Set vector word count for
      439     2826         VLP_ATTR to 10 chrs/account-
      440     2827         each VLP_ACCESS needs 1.5 wrds*/
      441     2828    5                       IF MOD(I,2) > 0 THEN
      442     2829    5                           ACCOUNT.SIZ# = ACCOUNT.SIZ# - 1;
PL6.E3A0      #010=SYS_FUNC_OPEN File=ZIC$IDSFUNCS.:ZIC0TSI                      FRI 09/05/97 11:40 Page:100
      443     2830    5                       ACCOUNT$=ADDR(ACCOUNT);
      444     2831    5                       ACCOUNT$=PINCRC(ACCOUNT$,16); /* Adjust pointer to point
      445     2832         first account in struct */
      446     2833    6                       DO J = 0 TO I-1;
      447     2834    6                           ACCOUNT$->ACCOUNT# = ACNT(J);
      448     2835    6                           ACCOUNT$= PINCRC(ACCOUNT$,10); /* Skip to next acnt
      449     2836         in structure */
      450     2837    6                           END;
      451     2838    5                       RES_FPT.ACCESS_ = VECTOR(ACCOUNT);
      452     2839    5                       END;
      453     2840    4                   END;
      454     2841    3               END;
      455     2842    2           END;
      456     2843    2       ELSE DO;
      457     2844    2           RES_FPT.FPARAM_ = VECTOR(FILE_INFO);
      458     2845    2           RES_FPT.IFPARAM_ = VECTOR(NIL);
      459     2846    2           END;
      460     2847    1       IF SPKY_OPNSF THEN RES_FPT.V.FUN#=%UPDATE#;
      461     2848    1       IF ORGSF = %KEYED# AND FUNSF = %CREATE# THEN
      462     2849    1           RES_FPT.ACSVEH_ = VECTOR(KEYVEH);
      463     2850    1       CALL M$OPEN(RES_FPT) ALTRET(OPEN_ERR);
      464     2851    1       FIDSF = ' '; /* Blank out for next call */
      465     2852    1       REASGNSF = %YES#;
      466     2853    1       CARRY_ATTRIBUTESF = %YES#;
      467     2854    1       SPKY_OPNSF='0'B;
      468     2855    1       TESTSF = '0'B;
      469     2856    1       ACNTSF = '  ';
      470     2857    1       KEY_SHADWSF = 0;
      471     2858    1       RETURN;
      472     2859    1   OPEN_ERR:
      473     2860    1       FIDSF = ' ';
      474     2861    1       REASGNSF = %YES#;
      475     2862    1       CARRY_ATTRIBUTESF = %YES#;
      476     2863    1       SPKY_OPNSF='0'B;
      477     2864    1       TESTSF = '0'B;
      478     2865    1       ACNTSF = '  ';
      479     2866    1       KEY_SHADWSF = 0;
PL6.E3A0      #010=SYS_FUNC_OPEN File=ZIC$IDSFUNCS.:ZIC0TSI                      FRI 09/05/97 11:40 Page:101
      480     2867    1       IF B$TCB$->B$TCB.ALT$->B$EXCFR.ERR.ERR# = %E$DCBOPEN THEN
      481     2868    1           RETURN;
      482     2869    1       MONITOR_ERR = B$TCB$->B$TCB.ALT$->B$EXCFR.ERR;
      483     2870    1       INCL_ERR = %YES#;
      484     2871    1       CALL SYS_FUNC_ERRMSG;
      485     2872    1       ALTRETURN;
      486     2873    1   END SYS_FUNC_OPEN;
      487     2874        %EOD;

PL6.E3A0      #010=SYS_FUNC_OPEN File=ZIC$IDSFUNCS.:ZIC0TSI                      FRI 09/05/97 11:40 Page:102
--  Include file information  --

   B_ERRORS_C.:LIB_E05  is referenced.
   CP_6_SUBS.:LIB_E05  is referenced.
   CP_6.:LIB_E05  cannot be made into a system file and is referenced.
   ZI_GLOBAL_DBUTIL.:ZIC0TOU  is referenced.
   B$JIT_C.:E05TOU  was found in the system file and is never referenced.
   CP_6_C.:E05TOU  was found in the system file and is referenced.
      No diagnostics issued in procedure SYS_FUNC_OPEN.

   Procedure SYS_FUNC_OPEN requires 364 words for executable code.
   Procedure SYS_FUNC_OPEN requires 6 words of local(AUTO) storage.

PL6.E3A0      #010=SYS_FUNC_OPEN File=ZIC$IDSFUNCS.:ZIC0TSI                      FRI 09/05/97 11:40 Page:103

 Object Unit name= SYS_FUNC_OPEN                              File name= ZIC$IDSFUNCS.:ZIC0TOU
 UTS= SEP 05 '97 11:40:10.08 FRI                              Compiler= PL-6/E31         Sev=      00
 SharedLib= :SHARED_SYSTEM                                    Alt SharedLib=


    ****  Control sections  ****

 Sect   Type Bound  Init  Size OctSiz  Section name(segment info)
    0   DCB   even  none     0      0  M$SI
    1   Data  even  none  1191   2247  SYS_FUNC_OPEN
    2   DCB   even  none     0      0  M$LO
    3   DCB   even  none     0      0  M$UC
    4  RoData even  UTS      6      6  SYS_FUNC_OPEN
    5   Proc  even  none   364    554  SYS_FUNC_OPEN
    6  RoData even  none    27     33  SYS_FUNC_OPEN

    ****  Entry defs  ****

                              Check   Calling
                             calling  sequence
  Sect OctLoc Primary Altret sequence   type   Parms  Name
     5      0   yes    yes     yes      Std        0  SYS_FUNC_OPEN

  ****  Entry refs  ****

         Check        Calling
        calling       sequence
Altret sequence SRef   type   Args  Name
 yes     yes           Std       0 SYS_FUNC_ERRMSG
                       nStd      0 X66_AUTO_0
                       nStd      0 X66_ARET
                       nStd      0 X66_AALT
PL6.E3A0      #010=SYS_FUNC_OPEN File=ZIC$IDSFUNCS.:ZIC0TSI                      FRI 09/05/97 11:40 Page:104

  ****  Data refs  ****

  Flags:  r = read only, s = secondary
Flgs Name                             Flgs Name                             Flgs Name
     M$SI                                  BLKLSF                                KEYLSF
     KEYXSF                                DCBSF                                 ORGSF
     KEYSF                                 KEYVSF                                ACSSF
     NOTIMESF                              FUNSF                                 ASNSF
     TESTSF                                XTENSIZESF                            DISPSF
     WAITSF                                VFCSF                                 FULLSF
     BKUPSF                                BUFLNSF                               BUFSF
     SOURCESF                              DESTSF                                DATESF
     TIMESF                                UTSSF                                 DAYSF
     TSTAMPSF                              ENCRP_SEEDSF                          ERRCODESF
     MSGCODE                               INCL_ERR                              ERR_INSERT
     FIDSF_RD                              ACNT                                  EXISTSF
     SHARESF                               DCBNMSF                               KEYRSF
     NO_KEYSF                              REASGNSF                              CARRY_ATTRIBUTESF
     SUBMESSF                              SPKY_OPNSF                            POSSF
     ERRFLGSF                              MERGESF                               FSA_FLAG
     RELGSF                                UNUSED                                HELPCODE
     COUNTSF                               INDEXSF                               GAP
     PSNSF                                 ACNTSF                                KEY_SHADWSF
     REC$                                  RB                                    RE
     IE                                    IB                                    CNT
     ICNT                                  RCNT                                  SCNT
     FIRST_SET                             RETCNT                                DMPCNT
     KCNT                                  ACNT_IDX                              I
     J                                     K                                     X
     STEPCC                                I_O_BUF$                              OUT_INDX
     I_O_SIZE                              REC_DATA_LN                           M$LO
     B$TCB$                                B$ROS$                                B$JIT$
     KEYFID                                I_O_KEY                               RESTART
     BREAK_FLAG                            ICHKSUM                               ITMCNT
     GAP1                                  M$UC
PL6.E3A0      #010=SYS_FUNC_OPEN File=ZIC$IDSFUNCS.:ZIC0TSI                      FRI 09/05/97 11:40 Page:105

  ****  Segment refs  ****

  Flags:  r = read only, s = secondary
Flgs Name                             Flgs Name                             Flgs Name
     ISSID                                 NULLSID                               ROSID
PL6.E3A0      #010=SYS_FUNC_OPEN File=ZIC$IDSFUNCS.:ZIC0TSI                      FRI 09/05/97 11:40 Page:106


      258        1        /*T***********************************************************/
      259        2        /*T*                                                         */
      260        3        /*T* Copyright (c) Bull HN Information Systems Inc., 1997    */
      261        4        /*T*                                                         */
      262        5        /*T***********************************************************/
      263        6        SYS_FUNC_OPEN: PROC /*Dcbsf,  dcb number to be opened */

      6  5 000000   000000 700200 xent  SYS_FUNC_OP* TSX0  ! X66_AUTO_0
         5 000001   000006 000000                    ZERO    6,0

      264        7         /*Orgsf,  file organization */
      265        8         /*Testsf  %YES# = test open only */
      266        9         /*Xtensizesf, granuals reserved at create */
      267       10         /*Acssf    access mode (seq,direct) */
      268       11         /*Funsf    function (in,out,update) */
      269       12         /*Anssf    1=file 2=tape 3=device */
      270       13         /*Bkupsf   create attrib ..backup of file */
      271       14         /*Acnt     list of accounts w/exec priv */
      272       15         /*Fidsf    file or dcb name */
      273       16         /*Existsf  open mode of the file */
      274       17         /*Sharesf  share options on the 'DCB' */
      275       18               ALTRET;
      276       19    1   DCL M$SI DCB;
      277       20    1   DCL SYS_FUNC_ERRMSG ENTRY ALTRET;
      278       21    1   DCL FILE_INFO (0:1023) UBIN WORD STATIC;
      279       22    1   DCL ACCOUNT# CHAR(8) BASED;
      280       23    1   DCL ACCOUNT$ PTR;
      281       24    1   DCL 1 FLNM STATIC ALIGNED,
      282       25    1         2 CNT UBIN(9) UNAL,
      283       26    1         2 FILE_NM CHAR(30) UNAL;
      284       27        %INCLUDE ZI_GLOBAL_DBUTIL;
      285      205         %SYS_FUNC;
      286      297         %MISC_DCLS;
      287      350        %INCLUDE CP_6;
      288      431        %INCLUDE CP_6_SUBS;
      289      971        %B$TCB;
PL6.E3A0      #010=SYS_FUNC_OPEN File=ZIC$IDSFUNCS.:ZIC0TSI                      FRI 09/05/97 11:40 Page:107
      290      974        %B$EXCFR;
      291      992        %INCLUDE B_ERRORS_C;
      292     2119        %VLP_SN(N=1);
      293     2132        %FPT_OPEN(FPTN=RES_FPT);
      294     2241        %FPT_OPEN(FPTN=OPEN_FPT);
      295     2350        %VLP_ATTR(FPTN=VEH);
      296     2364        %VLP_ACSVEH(READ=YES,
      297     2365         UPD=YES,
      298     2366         VEHICLE='IDS',
      299     2367         LAST=";");
      300     2384        %VLP_ATTR(FPTN=KEYVEH);
      301     2398        %VLP_ACSVEH(READ=YES,
      302     2399         WNEW=YES,
      303     2400         DELR=YES,
      304     2401         DELF=YES,
      305     2402         UPD=YES,
      306     2403         VEHICLE='IDS',
      307     2404         LAST=";");
      308     2421        %VLP_ATTR(FPTN=ACNT_ALL);
      309     2435        %VLP_ACCESS(EXEC=YES,NOLIST=YES,ACCT='ALL',LAST=";");
      310     2452        %VLP_ATTR(FPTN=ACCOUNT);
      311     2466        %VLP_ACCESS(EXEC=NO,NOLIST=YES,ACCT='ALL');
      312     2483        %VLP_ACCESS(EXEC=YES,NOLIST=NO);
      313     2500        %VLP_ACCESS(EXEC=YES,NOLIST=NO);
      314     2517        %VLP_ACCESS(EXEC=YES,NOLIST=NO);
      315     2534        %VLP_ACCESS(EXEC=YES,NOLIST=NO);
      316     2551        %VLP_ACCESS(EXEC=YES,NOLIST=NO);
      317     2568        %VLP_ACCESS(EXEC=YES,NOLIST=NO);
      318     2585        %VLP_ACCESS(EXEC=YES,NOLIST=NO);
      319     2602        %VLP_ACCESS(EXEC=YES,NOLIST=NO);
      320     2619        %VLP_ACCESS(EXEC=YES,NOLIST=NO);
      321     2636        %VLP_ACCESS(EXEC=YES,NOLIST=NO,LAST=";");
      322     2653        /**/
      323     2654        %F$DCB;
      324     2711    1       RES_FPT.V.DCB# = DCBSF;

   2711  5 000002   000000 220000 xsym               LDX0    DCBSF
PL6.E3A0      #010=SYS_FUNC_OPEN File=ZIC$IDSFUNCS.:ZIC0TSI                      FRI 09/05/97 11:40 Page:108
         5 000003   002060 740000 1                  STX0    RES_FPT+36

      325     2712    1       OPEN_FPT.V.DCB# = DCBSF;

   2712  5 000004   002152 740000 1                  STX0    OPEN_FPT+36

      326     2713        /*
      327     2714               Set up special opens for M$SI and M$LO.
      328     2715        */
      329     2716    1       IF DCBSF = DCBNUM(M$LO) OR DCBSF = DCBNUM(M$SI) THEN

   2716  5 000005   000000 236007 xsym               LDQ     M$LO,DL
         5 000006   200004 756100                    STQ     ACCOUNT$+1,,AUTO
         5 000007   000000 236000 xsym               LDQ     DCBSF
         5 000010   000022 772000                    QRL     18
         5 000011   200004 116100                    CMPQ    ACCOUNT$+1,,AUTO
         5 000012   000021 600000 5                  TZE     s:2718
         5 000013   000000 236007 xsym               LDQ     M$SI,DL
         5 000014   200005 756100                    STQ     ACCOUNT$+2,,AUTO
         5 000015   000000 236000 xsym               LDQ     DCBSF
         5 000016   000022 772000                    QRL     18
         5 000017   200005 116100                    CMPQ    ACCOUNT$+2,,AUTO
         5 000020   000041 601000 5                  TNZ     s:2724

      330     2717    2       DO;

      331     2718    2           RES_FPT.V.INITZ.SCRUB# = %YES#;

   2718  5 000021   400000 236007                    LDQ     -131072,DL
         5 000022   002060 256000 1                  ORSQ    RES_FPT+36

      332     2719    2           RES_FPT.V.INITZ.REASSIGN# = REASGNSF ;

   2719  5 000023   000000 236000 xsym               LDQ     REASGNSF
         5 000024   000023 772000                    QRL     19
         5 000025   002060 676000 1                  ERQ     RES_FPT+36
         5 000026   200000 376007                    ANQ     65536,DL
PL6.E3A0      #010=SYS_FUNC_OPEN File=ZIC$IDSFUNCS.:ZIC0TSI                      FRI 09/05/97 11:40 Page:109
         5 000027   002060 656000 1                  ERSQ    RES_FPT+36

      333     2720    2           RES_FPT.V.CTG# = %YES# ;

   2720  5 000030   002060 236000 1                  LDQ     RES_FPT+36
         5 000031   000000 376000 6                  ANQ     0
         5 000032   000100 276007                    ORQ     64,DL
         5 000033   002060 756000 1                  STQ     RES_FPT+36

      334     2721    2           CALL M$OPEN(RES_FPT) ALTRET(OPEN_ERR);

   2721  5 000034   002014 630400 1                  EPPR0   RES_FPT
         5 000035   450000 713400                    CLIMB   alt,open
         5 000036   410400 401760                    pmme    nvectors=18
         5 000037   000521 702000 5                  TSX2    OPEN_ERR

      335     2722    2           RETURN;

   2722  5 000040   000000 702200 xent               TSX2  ! X66_ARET

      336     2723    2           END;
      337     2724    1       IF FIDSF = '*SORT ' THEN

   2724  5 000041   040000 106400                    CMPC    fill='040'O
         5 000042   000000 000036 xsym               ADSC9   FIDSF_RD                 cn=0,n=30
         5 000043   000000 000006 4                  ADSC9   0                        cn=0,n=6
         5 000044   000050 601000 5                  TNZ     s:2727

      338     2725    1           RES_FPT.V.DISP# = %SCRATCH#;

   2725  5 000045   000001 236007                    LDQ     1,DL
         5 000046   002065 552004 1                  STBQ    RES_FPT+41,'04'O
         5 000047   000052 710000 5                  TRA     s:2728

      339     2726    1       ELSE
      340     2727    1           RES_FPT.V.DISP# = 0;

PL6.E3A0      #010=SYS_FUNC_OPEN File=ZIC$IDSFUNCS.:ZIC0TSI                      FRI 09/05/97 11:40 Page:110
   2727  5 000050   000000 236003                    LDQ     0,DU
         5 000051   002065 552004 1                  STBQ    RES_FPT+41,'04'O

      341     2728    1       OPEN_FPT.V.ORG#=ORGSF;

   2728  5 000052   000000 236000 xsym               LDQ     ORGSF
         5 000053   000011 736000                    QLS     9
         5 000054   002154 552010 1                  STBQ    OPEN_FPT+38,'10'O

      342     2729    1       OPEN_FPT.V.OPER.TEST#=TESTSF;

   2729  5 000055   000000 236000 xsym               LDQ     TESTSF
         5 000056   000026 772000                    QRL     22
         5 000057   002152 676000 1                  ERQ     OPEN_FPT+36
         5 000060   020000 376007                    ANQ     8192,DL
         5 000061   002152 656000 1                  ERSQ    OPEN_FPT+36

      343     2730    1       OPEN_FPT.V.CTG#=%YES#;

   2730  5 000062   002152 236000 1                  LDQ     OPEN_FPT+36
         5 000063   000000 376000 6                  ANQ     0
         5 000064   000100 276007                    ORQ     64,DL
         5 000065   002152 756000 1                  STQ     OPEN_FPT+36

      344     2731    1       OPEN_FPT.V.SHARE#=SHARESF;

   2731  5 000066   000000 236000 xsym               LDQ     SHARESF
         5 000067   000037 772000                    QRL     31
         5 000070   002152 676000 1                  ERQ     OPEN_FPT+36
         5 000071   000030 376007                    ANQ     24,DL
         5 000072   002152 656000 1                  ERSQ    OPEN_FPT+36

      345     2732    1       OPEN_FPT.V.ACS#=ACSSF;

   2732  5 000073   000000 236000 xsym               LDQ     ACSSF
         5 000074   002154 552004 1                  STBQ    OPEN_FPT+38,'04'O

PL6.E3A0      #010=SYS_FUNC_OPEN File=ZIC$IDSFUNCS.:ZIC0TSI                      FRI 09/05/97 11:40 Page:111
      346     2733    1       OPEN_FPT.V.FUN#=FUNSF;

   2733  5 000075   000000 236000 xsym               LDQ     FUNSF
         5 000076   000011 736000                    QLS     9
         5 000077   002153 552010 1                  STBQ    OPEN_FPT+37,'10'O

      347     2734    1       IF REASGNSF = %NO# THEN

   2734  5 000100   000000 234000 xsym               SZN     REASGNSF
         5 000101   000111 604000 5                  TMI     s:2737

      348     2735    1           OPEN_FPT.V.ASN#=DCBADDR(DCBSF)->F$DCB.ASN#;

   2735  5 000102   000001 470400 6                  LDP0    1
         5 000103   000000 471500                    LDP1    0,,PR0
         5 000104   100000 473510                    LDP3    0,X0,PR1
         5 000105   300032 236100                    LDQ     26,,PR3
         5 000106   000011 772000                    QRL     9
         5 000107   002153 552004 1                  STBQ    OPEN_FPT+37,'04'O
         5 000110   000113 710000 5                  TRA     s:2738

      349     2736    1       ELSE
      350     2737    1           OPEN_FPT.V.ASN# = ASNSF;

   2737  5 000111   000000 236000 xsym               LDQ     ASNSF
         5 000112   002153 552004 1                  STBQ    OPEN_FPT+37,'04'O

      351     2738    1       IF FUNSF = %CREATE# THEN

   2738  5 000113   000000 235000 xsym               LDA     FUNSF
         5 000114   000003 115007                    CMPA    3,DL
         5 000115   000120 601000 5                  TNZ     s:2740

      352     2739    1           OPEN_FPT.V.IXTNSIZE# = XTENSIZESF;

   2739  5 000116   000000 236000 xsym               LDQ     XTENSIZESF
         5 000117   002163 756000 1                  STQ     OPEN_FPT+45
PL6.E3A0      #010=SYS_FUNC_OPEN File=ZIC$IDSFUNCS.:ZIC0TSI                      FRI 09/05/97 11:40 Page:112

      353     2740    1       OPEN_FPT.V.SETDCB#=%YES#;

   2740  5 000120   100000 236007                    LDQ     32768,DL
         5 000121   002152 256000 1                  ORSQ    OPEN_FPT+36

      354     2741    1       IF FIDSF = '  ' THEN

   2741  5 000122   040000 106400                    CMPC    fill='040'O
         5 000123   000000 000036 xsym               ADSC9   FIDSF_RD                 cn=0,n=30
         5 000124   000002 000002 4                  ADSC9   2                        cn=0,n=2
         5 000125   000131 601000 5                  TNZ     s:2744

      355     2742    1           OPEN_FPT.NAME_ = VECTOR(NIL);

   2742  5 000126   000002 237000 6                  LDAQ    2
         5 000127   002114 757000 1                  STAQ    OPEN_FPT+6
         5 000130   000145 710000 5                  TRA     s:2749

      356     2743    2       ELSE DO;

      357     2744    2           CALL INDEX(I,' ',FIDSF,0);

   2744  5 000131   000000 124400                    SCM     mask='000'O
         5 000132   000000 000036 xsym               ADSC9   FIDSF_RD                 cn=0,n=30
         5 000133   000004 000001 6                  ADSC9   4                        cn=0,n=1
         5 000134   000000 000000 xsym               ARG     I

      358     2745    2           FLNM.CNT = I;

   2745  5 000135   000000 236000 xsym               LDQ     I
         5 000136   000033 736000                    QLS     27
         5 000137   002000 552040 1                  STBQ    FLNM,'40'O

      359     2746    2           FLNM.FILE_NM = FIDSF;

   2746  5 000140   040000 100400                    MLR     fill='040'O
PL6.E3A0      #010=SYS_FUNC_OPEN File=ZIC$IDSFUNCS.:ZIC0TSI                      FRI 09/05/97 11:40 Page:113
         5 000141   000000 000036 xsym               ADSC9   FIDSF_RD                 cn=0,n=30
         5 000142   002000 200036 1                  ADSC9   FLNM                     cn=1,n=30

      360     2747    2           OPEN_FPT.NAME_ = VECTOR(FLNM);

   2747  5 000143   000006 237000 6                  LDAQ    6
         5 000144   002114 757000 1                  STAQ    OPEN_FPT+6

      361     2748    2           END;

      362     2749    1       IF SPKY_OPNSF THEN OPEN_FPT.V.FUN#=%UPDATE#;

   2749  5 000145   000000 234000 xsym               SZN     SPKY_OPNSF
         5 000146   000151 605000 5                  TPL     s:2750

   2749  5 000147   001000 236007                    LDQ     512,DL
         5 000150   002153 552010 1                  STBQ    OPEN_FPT+37,'10'O

      363     2750    1       CALL M$OPEN(OPEN_FPT) ALTRET(OPEN_ERR);

   2750  5 000151   002106 630400 1                  EPPR0   OPEN_FPT
         5 000152   450000 713400                    CLIMB   alt,open
         5 000153   410400 401760                    pmme    nvectors=18
         5 000154   000521 702000 5                  TSX2    OPEN_ERR

      364     2751    1       RES_FPT.V.INITZ.SCRUB# = %NO#;

   2751  5 000155   000005 236000 6                  LDQ     5
         5 000156   002060 356000 1                  ANSQ    RES_FPT+36

      365     2752    1       RES_FPT.V.INITZ.REASSIGN#=REASGNSF;

   2752  5 000157   000000 236000 xsym               LDQ     REASGNSF
         5 000160   000023 772000                    QRL     19
         5 000161   002060 676000 1                  ERQ     RES_FPT+36
         5 000162   200000 376007                    ANQ     65536,DL
         5 000163   002060 656000 1                  ERSQ    RES_FPT+36
PL6.E3A0      #010=SYS_FUNC_OPEN File=ZIC$IDSFUNCS.:ZIC0TSI                      FRI 09/05/97 11:40 Page:114

      366     2753    1       RES_FPT.V.SETDCB#=%NO#;

   2753  5 000164   000010 236000 6                  LDQ     8
         5 000165   002060 356000 1                  ANSQ    RES_FPT+36

      367     2754    1       RES_FPT.V.ORG# = ORGSF;

   2754  5 000166   000000 236000 xsym               LDQ     ORGSF
         5 000167   000011 736000                    QLS     9
         5 000170   002062 552010 1                  STBQ    RES_FPT+38,'10'O

      368     2755    1       RES_FPT.V.OPER.TEST#=TESTSF;

   2755  5 000171   000000 236000 xsym               LDQ     TESTSF
         5 000172   000026 772000                    QRL     22
         5 000173   002060 676000 1                  ERQ     RES_FPT+36
         5 000174   020000 376007                    ANQ     8192,DL
         5 000175   002060 656000 1                  ERSQ    RES_FPT+36

      369     2756    1       RES_FPT.V.ACS# = ACSSF;

   2756  5 000176   000000 236000 xsym               LDQ     ACSSF
         5 000177   002062 552004 1                  STBQ    RES_FPT+38,'04'O

      370     2757    1       RES_FPT.V.FUN# = FUNSF;

   2757  5 000200   000000 236000 xsym               LDQ     FUNSF
         5 000201   000011 736000                    QLS     9
         5 000202   002061 552010 1                  STBQ    RES_FPT+37,'10'O

      371     2758    1       IF PSNSF.VOL# > 1 THEN

   2758  5 000203   000000 236000 xsym               LDQ     PSNSF
         5 000204   777000 376003                    ANQ     -512,DU
         5 000205   002000 116003                    CMPQ    1024,DU
         5 000206   000212 602000 5                  TNC     s:2760
PL6.E3A0      #010=SYS_FUNC_OPEN File=ZIC$IDSFUNCS.:ZIC0TSI                      FRI 09/05/97 11:40 Page:115

      372     2759    1           RES_FPT.V.VOL# = PSNSF.VOL#;

   2759  5 000207   000000 236000 xsym               LDQ     PSNSF
         5 000210   002075 552040 1                  STBQ    RES_FPT+49,'40'O
         5 000211   000214 710000 5                  TRA     s:2761

      373     2760    1       ELSE RES_FPT.V.VOL# = 0;

   2760  5 000212   000000 236003                    LDQ     0,DU
         5 000213   002075 552040 1                  STBQ    RES_FPT+49,'40'O

      374     2761    1       IF DCBADDR(DCBSF) -> F$DCB.ASN# = %TAPE# AND REASGNSF = %NO#

   2761  5 000214   000001 470400 6                  LDP0    1
         5 000215   000000 471500                    LDP1    0,,PR0
         5 000216   000000 220000 xsym               LDX0    DCBSF
         5 000217   100000 473510                    LDP3    0,X0,PR1
         5 000220   300032 236100                    LDQ     26,,PR3
         5 000221   777000 376007                    ANQ     -512,DL
         5 000222   002000 116007                    CMPQ    1024,DL
         5 000223   000231 601000 5                  TNZ     s:2764
         5 000224   000000 234000 xsym               SZN     REASGNSF
         5 000225   000231 604000 5                  TMI     s:2764

      375     2762    1       THEN RES_FPT.V.OPER.NXTF# = %YES#; /* Open next on tape */

   2762  5 000226   004000 236007                    LDQ     2048,DL
         5 000227   002060 256000 1                  ORSQ    RES_FPT+36
         5 000230   000233 710000 5                  TRA     s:2765

      376     2763    1       ELSE
      377     2764    1           RES_FPT.V.OPER.NXTF# = %NO#;

   2764  5 000231   000011 236000 6                  LDQ     9
         5 000232   002060 356000 1                  ANSQ    RES_FPT+36

PL6.E3A0      #010=SYS_FUNC_OPEN File=ZIC$IDSFUNCS.:ZIC0TSI                      FRI 09/05/97 11:40 Page:116
      378     2765    1       IF KEY_SHADWSF > 0 THEN

   2765  5 000233   000000 235000 xsym               LDA     KEY_SHADWSF
         5 000234   000260 600000 5                  TZE     s:2774

      379     2766    2       DO;

      380     2767    2           RES_FPT.V.ASN# = DCBADDR(KEY_SHADWSF)->F$DCB.ASN#;

   2767  5 000235   100000 474505                    LDP4    0,AL,PR1
         5 000236   400032 236100                    LDQ     26,,PR4
         5 000237   000011 772000                    QRL     9
         5 000240   002061 552004 1                  STBQ    RES_FPT+37,'04'O

      381     2768    2           RES_FPT.ACCT_ = VECTOR(DCBADDR(KEY_SHADWSF)->F$DCB.ACCT#);

   2768  5 000241   000000 721000 xsym               LXL1    KEY_SHADWSF
         5 000242   100000 474511                    LDP4    0,X1,PR1
         5 000243   000012 235000 6                  LDA     10
         5 000244   200004 454500                    STP4    ACCOUNT$+1,,AUTO
         5 000245   200004 236100                    LDQ     ACCOUNT$+1,,AUTO
         5 000246   000020 036003                    ADLQ    16,DU
         5 000247   002040 757000 1                  STAQ    RES_FPT+20

      382     2769    2           RES_FPT.NAME_ = VECTOR(FLNM);

   2769  5 000250   000006 237000 6                  LDAQ    6
         5 000251   002022 757000 1                  STAQ    RES_FPT+6

      383     2770    2           VLP_SN.SN#(0) = DCBADDR(KEY_SHADWSF)->F$DCB.PSN#;

   2770  5 000252   040000 100500                    MLR     fill='040'O
         5 000253   400024 000006                    ADSC9   20,,PR4                  cn=0,n=6
         5 000254   002011 000006 1                  ADSC9   VLP_SN+1                 cn=0,n=6

      384     2771    2           RES_FPT.SN_ = VECTOR(VLP_SN);

PL6.E3A0      #010=SYS_FUNC_OPEN File=ZIC$IDSFUNCS.:ZIC0TSI                      FRI 09/05/97 11:40 Page:117
   2771  5 000255   000014 237000 6                  LDAQ    12
         5 000256   002016 757000 1                  STAQ    RES_FPT+2

      385     2772    2           END;

   2772  5 000257   000266 710000 5                  TRA     s:2780

      386     2773    2       ELSE DO;

      387     2774    2           RES_FPT.V.ASN# = 0; /* Unspecified (get from set cmnd) */

   2774  5 000260   000000 236003                    LDQ     0,DU
         5 000261   002061 552004 1                  STBQ    RES_FPT+37,'04'O

      388     2775    2           RES_FPT.ACCT_ = VECTOR(NIL);

   2775  5 000262   000002 237000 6                  LDAQ    2
         5 000263   002040 757000 1                  STAQ    RES_FPT+20

      389     2776    2           RES_FPT.NAME_ = VECTOR(NIL);

   2776  5 000264   000002 237000 6                  LDAQ    2
         5 000265   002022 757000 1                  STAQ    RES_FPT+6

      390     2777    2           END;

      391     2778         /*2 opens are use to merge
      392     2779         in the set command if specified*/
      393     2780    1       IF FUNSF=%CREATE# THEN

   2780  5 000266   000000 235000 xsym               LDA     FUNSF
         5 000267   000003 115007                    CMPA    3,DL
         5 000270   000460 601000 5                  TNZ     s:2844

      394     2781    2       DO; /* Install create attrib */

      395     2782    2           RES_FPT.V.EXIST#=EXISTSF;
PL6.E3A0      #010=SYS_FUNC_OPEN File=ZIC$IDSFUNCS.:ZIC0TSI                      FRI 09/05/97 11:40 Page:118

   2782  5 000271   000000 236000 xsym               LDQ     EXISTSF
         5 000272   000033 772000                    QRL     27
         5 000273   002060 676000 1                  ERQ     RES_FPT+36
         5 000274   000600 376007                    ANQ     384,DL
         5 000275   002060 656000 1                  ERSQ    RES_FPT+36

      396     2783    2           RES_FPT.V.IXTNSIZE#=XTENSIZESF;

   2783  5 000276   000000 236000 xsym               LDQ     XTENSIZESF
         5 000277   002071 756000 1                  STQ     RES_FPT+45

      397     2784    2           IF XTENSIZESF > 100 THEN

   2784  5 000300   000145 116007                    CMPQ    101,DL
         5 000301   000305 602000 5                  TNC     s:2787

      398     2785    2               RES_FPT.V.XTNSIZE# = 100;

   2785  5 000302   000144 221003                    LDX1    100,DU
         5 000303   002070 441000 1                  SXL1    RES_FPT+44
         5 000304   000307 710000 5                  TRA     s:2788

      399     2786    2           ELSE
      400     2787    2               RES_FPT.V.XTNSIZE# = XTENSIZESF;

   2787  5 000305   000000 621006                    EAX1    0,QL
         5 000306   002070 441000 1                  SXL1    RES_FPT+44

      401     2788    2           IF (ORGSF = %IDS#) OR (ORGSF = %KEYED#) THEN

   2788  5 000307   000000 236000 xsym               LDQ     ORGSF
         5 000310   000007 116007                    CMPQ    7,DL
         5 000311   000314 600000 5                  TZE     s:2790
         5 000312   000002 116007                    CMPQ    2,DL
         5 000313   000464 601000 5                  TNZ     s:2847

PL6.E3A0      #010=SYS_FUNC_OPEN File=ZIC$IDSFUNCS.:ZIC0TSI                      FRI 09/05/97 11:40 Page:119
      402     2789    3           DO;

      403     2790    3               IF CARRY_ATTRIBUTESF = %YES# THEN

   2790  5 000314   000000 234000 xsym               SZN     CARRY_ATTRIBUTESF
         5 000315   000333 605000 5                  TPL     s:2800

      404     2791    4               DO;

      405     2792    4                   RES_FPT.IFPARAM_ = VECTOR(FILE_INFO);

   2792  5 000316   000016 237000 6                  LDAQ    14
         5 000317   002042 757000 1                  STAQ    RES_FPT+22

      406     2793    4                   RES_FPT.FPARAM_ = VECTOR(NIL);

   2793  5 000320   000002 237000 6                  LDAQ    2
         5 000321   002044 757000 1                  STAQ    RES_FPT+24

      407     2794    4                   IF ORGSF = %KEYED# THEN

   2794  5 000322   000000 235000 xsym               LDA     ORGSF
         5 000323   000002 115007                    CMPA    2,DL
         5 000324   000330 601000 5                  TNZ     s:2797

      408     2795    4                       RES_FPT.V.TYPE# = '3I';

   2795  5 000325   000003 222000 4                  LDX2    3
         5 000326   002063 742000 1                  STX2    RES_FPT+39
         5 000327   000464 710000 5                  TRA     s:2847

      409     2796    4                   ELSE
      410     2797    4                       RES_FPT.V.TYPE# = 'II';

   2797  5 000330   000004 222000 4                  LDX2    4
         5 000331   002063 742000 1                  STX2    RES_FPT+39

PL6.E3A0      #010=SYS_FUNC_OPEN File=ZIC$IDSFUNCS.:ZIC0TSI                      FRI 09/05/97 11:40 Page:120
      411     2798    4                   END;

   2798  5 000332   000464 710000 5                  TRA     s:2847

      412     2799    4               ELSE DO;

      413     2800    4                   RES_FPT.ACSVEH_ = VECTOR(VEH);

   2800  5 000333   000020 237000 6                  LDAQ    16
         5 000334   002030 757000 1                  STAQ    RES_FPT+12

      414     2801         /* Check acnt list - default all for following cond:
      415     2802            'ACNT(0)' = blank
      416     2803            'ALL' is an element of acnt list or
      417     2804            '?' is an element of acnt list. */
      418     2805    4                   ACNT_ALL.SIZ# = 3;

   2805  5 000335   000003 222003                    LDX2    3,DU
         5 000336   002206 442000 1                  SXL2    ACNT_ALL

      419     2806    4                   IF ACNT(0) = '  ' THEN

   2806  5 000337   040000 106400                    CMPC    fill='040'O
         5 000340   000000 000010 xsym               ADSC9   ACNT                     cn=0,n=8
         5 000341   000002 000002 4                  ADSC9   2                        cn=0,n=2
         5 000342   000351 601000 5                  TNZ     s:2812

      420     2807    5                   DO;

      421     2808    5                       ACNT(0) = 'ALL';

   2808  5 000343   040000 100400                    MLR     fill='040'O
         5 000344   000005 000003 4                  ADSC9   5                        cn=0,n=3
         5 000345   000000 000010 xsym               ADSC9   ACNT                     cn=0,n=8

      422     2809    5                       RES_FPT.ACCESS_ = VECTOR(ACNT_ALL);

PL6.E3A0      #010=SYS_FUNC_OPEN File=ZIC$IDSFUNCS.:ZIC0TSI                      FRI 09/05/97 11:40 Page:121
   2809  5 000346   000022 237000 6                  LDAQ    18
         5 000347   002026 757000 1                  STAQ    RES_FPT+10

      423     2810    5                       END;

   2810  5 000350   000375 710000 5                  TRA     s:2819

      424     2811    4                   ELSE
      425     2812    5                   DO J = 0 TO 9 BY 1;

   2812  5 000351   000000 450000 xsym               STZ     J

      426     2813    5                       IF ACNT(J) = 'ALL' OR ACNT(J) = '?' THEN

   2813  5 000352   000000 235000 xsym               LDA     J
         5 000353   000003 735000                    ALS     3
         5 000354   040000 106405                    CMPC    fill='040'O
         5 000355   000000 000010 xsym               ADSC9   ACNT,A                   cn=0,n=8
         5 000356   000005 000003 4                  ADSC9   5                        cn=0,n=3
         5 000357   000364 600000 5                  TZE     s:2815
         5 000360   040000 106405                    CMPC    fill='040'O
         5 000361   000000 000010 xsym               ADSC9   ACNT,A                   cn=0,n=8
         5 000362   000013 000001 6                  ADSC9   11                       cn=0,n=1
         5 000363   000371 601000 5                  TNZ     s:2818

      427     2814    6                       DO;

      428     2815    6                           ACNT(0) = 'ALL';

   2815  5 000364   040000 100400                    MLR     fill='040'O
         5 000365   000005 000003 4                  ADSC9   5                        cn=0,n=3
         5 000366   000000 000010 xsym               ADSC9   ACNT                     cn=0,n=8

      429     2816    6                           RES_FPT.ACCESS_ = VECTOR(ACNT_ALL);

   2816  5 000367   000022 237000 6                  LDAQ    18
         5 000370   002026 757000 1                  STAQ    RES_FPT+10
PL6.E3A0      #010=SYS_FUNC_OPEN File=ZIC$IDSFUNCS.:ZIC0TSI                      FRI 09/05/97 11:40 Page:122

      430     2817    6                           END;

      431     2818    5                       END;

   2818  5 000371   000000 054000 xsym               AOS     J
         5 000372   000000 235000 xsym               LDA     J
         5 000373   000011 115007                    CMPA    9,DL
         5 000374   000352 604400 5                  TMOZ    s:2813

      432     2819    4                   IF ACNT(0) ~= 'ALL' THEN

   2819  5 000375   040000 106400                    CMPC    fill='040'O
         5 000376   000000 000010 xsym               ADSC9   ACNT                     cn=0,n=8
         5 000377   000005 000003 4                  ADSC9   5                        cn=0,n=3
         5 000400   000464 600000 5                  TZE     s:2847

      433     2820    5                   DO;

      434     2821    5                       I=0;

   2821  5 000401   000000 450000 xsym               STZ     I

      435     2822    6                       DO WHILE((ACNT(I) ~= '  ') AND (I < 10));

   2822  5 000402   000404 710000 5                  TRA     s:2824

      436     2823    6                           I = I+1;

   2823  5 000403   000000 054000 xsym               AOS     I

      437     2824    6                           END;

   2824  5 000404   000000 235000 xsym               LDA     I
         5 000405   000003 735000                    ALS     3
         5 000406   040000 106405                    CMPC    fill='040'O
         5 000407   000000 000010 xsym               ADSC9   ACNT,A                   cn=0,n=8
PL6.E3A0      #010=SYS_FUNC_OPEN File=ZIC$IDSFUNCS.:ZIC0TSI                      FRI 09/05/97 11:40 Page:123
         5 000410   000002 000002 4                  ADSC9   2                        cn=0,n=2
         5 000411   000415 600000 5                  TZE     s:2825
         5 000412   000000 236000 xsym               LDQ     I
         5 000413   000012 116007                    CMPQ    10,DL
         5 000414   000403 604000 5                  TMI     s:2823

      438     2825    5                       ACCOUNT.SIZ# = 3+((3+(10*I))/4); /* Set vector word count for

   2825  5 000415   000000 236000 xsym               LDQ     I
         5 000416   000012 402007                    MPY     10,DL
         5 000417   000003 036007                    ADLQ    3,DL
         5 000420   000004 506007                    DIV     4,DL
         5 000421   000003 620006                    EAX0    3,QL
         5 000422   002212 440000 1                  SXL0    ACCOUNT

      439     2826         VLP_ATTR to 10 chrs/account-
      440     2827         each VLP_ACCESS needs 1.5 wrds*/
      441     2828    5                       IF MOD(I,2) > 0 THEN

   2828  5 000423   000000 236000 xsym               LDQ     I
         5 000424   000002 506007                    DIV     2,DL
         5 000425   000044 733000                    LRS     36
         5 000426   000000 116003                    CMPQ    0,DU
         5 000427   000432 604400 5                  TMOZ    s:2830

      442     2829    5                           ACCOUNT.SIZ# = ACCOUNT.SIZ# - 1;

   2829  5 000430   777777 621010                    EAX1    -1,X0
         5 000431   002212 441000 1                  SXL1    ACCOUNT

      443     2830    5                       ACCOUNT$=ADDR(ACCOUNT);

   2830  5 000432   000024 236000 6                  LDQ     20
         5 000433   200003 756100                    STQ     ACCOUNT$,,AUTO

      444     2831    5                       ACCOUNT$=PINCRC(ACCOUNT$,16); /* Adjust pointer to point

PL6.E3A0      #010=SYS_FUNC_OPEN File=ZIC$IDSFUNCS.:ZIC0TSI                      FRI 09/05/97 11:40 Page:124
   2831  5 000434   000004 036003                    ADLQ    4,DU
         5 000435   200003 756100                    STQ     ACCOUNT$,,AUTO

      445     2832         first account in struct */
      446     2833    6                       DO J = 0 TO I-1;

   2833  5 000436   000000 450000 xsym               STZ     J
         5 000437   000452 710000 5                  TRA     s:2837+1

      447     2834    6                           ACCOUNT$->ACCOUNT# = ACNT(J);

   2834  5 000440   000000 235000 xsym               LDA     J
         5 000441   000003 735000                    ALS     3
         5 000442   200003 470500                    LDP0    ACCOUNT$,,AUTO
         5 000443   040100 100405                    MLR     fill='040'O
         5 000444   000000 000010 xsym               ADSC9   ACNT,A                   cn=0,n=8
         5 000445   000000 000010                    ADSC9   0,,PR0                   cn=0,n=8

      448     2835    6                           ACCOUNT$= PINCRC(ACCOUNT$,10); /* Skip to next acnt

   2835  5 000446   200003 236100                    LDQ     ACCOUNT$,,AUTO
         5 000447   000025 036000 6                  ADLQ    21
         5 000450   200003 756100                    STQ     ACCOUNT$,,AUTO

      449     2836         in structure */
      450     2837    6                           END;

   2837  5 000451   000000 054000 xsym               AOS     J
         5 000452   000000 236000 xsym               LDQ     J
         5 000453   000000 116000 xsym               CMPQ    I
         5 000454   000440 604000 5                  TMI     s:2834

      451     2838    5                       RES_FPT.ACCESS_ = VECTOR(ACCOUNT);

   2838  5 000455   000026 237000 6                  LDAQ    22
         5 000456   002026 757000 1                  STAQ    RES_FPT+10

PL6.E3A0      #010=SYS_FUNC_OPEN File=ZIC$IDSFUNCS.:ZIC0TSI                      FRI 09/05/97 11:40 Page:125
      452     2839    5                       END;

      453     2840    4                   END;

      454     2841    3               END;

      455     2842    2           END;

   2842  5 000457   000464 710000 5                  TRA     s:2847

      456     2843    2       ELSE DO;

      457     2844    2           RES_FPT.FPARAM_ = VECTOR(FILE_INFO);

   2844  5 000460   000016 237000 6                  LDAQ    14
         5 000461   002044 757000 1                  STAQ    RES_FPT+24

      458     2845    2           RES_FPT.IFPARAM_ = VECTOR(NIL);

   2845  5 000462   000002 237000 6                  LDAQ    2
         5 000463   002042 757000 1                  STAQ    RES_FPT+22

      459     2846    2           END;

      460     2847    1       IF SPKY_OPNSF THEN RES_FPT.V.FUN#=%UPDATE#;

   2847  5 000464   000000 234000 xsym               SZN     SPKY_OPNSF
         5 000465   000470 605000 5                  TPL     s:2848

   2847  5 000466   001000 236007                    LDQ     512,DL
         5 000467   002061 552010 1                  STBQ    RES_FPT+37,'10'O

      461     2848    1       IF ORGSF = %KEYED# AND FUNSF = %CREATE# THEN

   2848  5 000470   000000 235000 xsym               LDA     ORGSF
         5 000471   000002 115007                    CMPA    2,DL
         5 000472   000500 601000 5                  TNZ     s:2850
PL6.E3A0      #010=SYS_FUNC_OPEN File=ZIC$IDSFUNCS.:ZIC0TSI                      FRI 09/05/97 11:40 Page:126
         5 000473   000000 236000 xsym               LDQ     FUNSF
         5 000474   000003 116007                    CMPQ    3,DL
         5 000475   000500 601000 5                  TNZ     s:2850

      462     2849    1           RES_FPT.ACSVEH_ = VECTOR(KEYVEH);

   2849  5 000476   000030 237000 6                  LDAQ    24
         5 000477   002030 757000 1                  STAQ    RES_FPT+12

      463     2850    1       CALL M$OPEN(RES_FPT) ALTRET(OPEN_ERR);

   2850  5 000500   002014 630400 1                  EPPR0   RES_FPT
         5 000501   450000 713400                    CLIMB   alt,open
         5 000502   410400 401760                    pmme    nvectors=18
         5 000503   000521 702000 5                  TSX2    OPEN_ERR

      464     2851    1       FIDSF = ' '; /* Blank out for next call */

   2851  5 000504   040000 100400                    MLR     fill='040'O
         5 000505   000004 000001 6                  ADSC9   4                        cn=0,n=1
         5 000506   000000 000036 xsym               ADSC9   FIDSF_RD                 cn=0,n=30

      465     2852    1       REASGNSF = %YES#;

   2852  5 000507   400000 236003                    LDQ     -131072,DU
         5 000510   000000 756000 xsym               STQ     REASGNSF

      466     2853    1       CARRY_ATTRIBUTESF = %YES#;

   2853  5 000511   000000 756000 xsym               STQ     CARRY_ATTRIBUTESF

      467     2854    1       SPKY_OPNSF='0'B;

   2854  5 000512   000000 450000 xsym               STZ     SPKY_OPNSF

      468     2855    1       TESTSF = '0'B;

PL6.E3A0      #010=SYS_FUNC_OPEN File=ZIC$IDSFUNCS.:ZIC0TSI                      FRI 09/05/97 11:40 Page:127
   2855  5 000513   000000 450000 xsym               STZ     TESTSF

      469     2856    1       ACNTSF = '  ';

   2856  5 000514   040000 100400                    MLR     fill='040'O
         5 000515   000002 000002 4                  ADSC9   2                        cn=0,n=2
         5 000516   000000 000010 xsym               ADSC9   ACNTSF                   cn=0,n=8

      470     2857    1       KEY_SHADWSF = 0;

   2857  5 000517   000000 450000 xsym               STZ     KEY_SHADWSF

      471     2858    1       RETURN;

   2858  5 000520   000000 702200 xent               TSX2  ! X66_ARET

      472     2859    1   OPEN_ERR:
      473     2860    1       FIDSF = ' ';

   2860  5 000521   040000 100400       OPEN_ERR     MLR     fill='040'O
         5 000522   000004 000001 6                  ADSC9   4                        cn=0,n=1
         5 000523   000000 000036 xsym               ADSC9   FIDSF_RD                 cn=0,n=30

      474     2861    1       REASGNSF = %YES#;

   2861  5 000524   400000 236003                    LDQ     -131072,DU
         5 000525   000000 756000 xsym               STQ     REASGNSF

      475     2862    1       CARRY_ATTRIBUTESF = %YES#;

   2862  5 000526   000000 756000 xsym               STQ     CARRY_ATTRIBUTESF

      476     2863    1       SPKY_OPNSF='0'B;

   2863  5 000527   000000 450000 xsym               STZ     SPKY_OPNSF

      477     2864    1       TESTSF = '0'B;
PL6.E3A0      #010=SYS_FUNC_OPEN File=ZIC$IDSFUNCS.:ZIC0TSI                      FRI 09/05/97 11:40 Page:128

   2864  5 000530   000000 450000 xsym               STZ     TESTSF

      478     2865    1       ACNTSF = '  ';

   2865  5 000531   040000 100400                    MLR     fill='040'O
         5 000532   000002 000002 4                  ADSC9   2                        cn=0,n=2
         5 000533   000000 000010 xsym               ADSC9   ACNTSF                   cn=0,n=8

      479     2866    1       KEY_SHADWSF = 0;

   2866  5 000534   000000 450000 xsym               STZ     KEY_SHADWSF

      480     2867    1       IF B$TCB$->B$TCB.ALT$->B$EXCFR.ERR.ERR# = %E$DCBOPEN THEN

   2867  5 000535   000000 470400 xsym               LDP0    B$TCB$
         5 000536   000000 471500                    LDP1    0,,PR0
         5 000537   100102 236100                    LDQ     66,,PR1
         5 000540   377770 376007                    ANQ     131064,DL
         5 000541   001440 116007                    CMPQ    800,DL
         5 000542   000544 601000 5                  TNZ     s:2869

      481     2868    1           RETURN;

   2868  5 000543   000000 702200 xent               TSX2  ! X66_ARET

      482     2869    1       MONITOR_ERR = B$TCB$->B$TCB.ALT$->B$EXCFR.ERR;

   2869  5 000544   100102 236100                    LDQ     66,,PR1
         5 000545   000000 756000 xsym               STQ     MSGCODE

      483     2870    1       INCL_ERR = %YES#;

   2870  5 000546   400000 236003                    LDQ     -131072,DU
         5 000547   000000 756000 xsym               STQ     INCL_ERR

      484     2871    1       CALL SYS_FUNC_ERRMSG;
PL6.E3A0      #010=SYS_FUNC_OPEN File=ZIC$IDSFUNCS.:ZIC0TSI                      FRI 09/05/97 11:40 Page:129

   2871  5 000550   000032 631400 6                  EPPR1   26
         5 000551   000000 701000 xent               TSX1    SYS_FUNC_ERRMSG
         5 000552   000000 011000                    NOP     0

      485     2872    1       ALTRETURN;

   2872  5 000553   000000 702200 xent               TSX2  ! X66_AALT

FILE_INFO
 Sect OctLoc
   1     000   ****** ******   ****** ******   ****** ******   ****** ******    ................

FLNM
 Sect OctLoc
   1    2000   ****** ******   ****** ******   ****** ******   ****** ******    ................

VLP_SN
 Sect OctLoc
   1    2010   000000 000001   040040 040040   040040 ******                    ....      ..

RES_FPT
 Sect OctLoc
   1    2014   000025 777640   002060 006000   000000 177640   000000 006014    .....0..........
   1    2020   000000 177640   000000 006014   000000 177640   000000 006014    ................
   1    2060*  000000 000042   000000 000000   252525 000000   000040 252520    ..."......... ..
   1    2064   000040 040040   000000 000000   000000 777777   000000 000000    .   ............
   1    2070   000000 000000   000000 000000   000000 000000   000000 000000    ................
   1    2074   251000 622000   000000 000000   000000 000000   111250 000000    ............I...
   1    2100   040040 040040   000000 000000   000000 000000   000000 000000        ............
   1    2104   000000 000000   ****** ******                                    ........

OPEN_FPT
 Sect OctLoc
   1    2106   000025 777640   002152 006000   000000 177640   000000 006014    .....j..........
   1    2112   000000 177640   000000 006014   000000 177640   000000 006014    ................
   1    2152*  000000 000042   000000 000000   252525 000000   000040 252520    ..."......... ..
PL6.E3A0      #010=SYS_FUNC_OPEN File=ZIC$IDSFUNCS.:ZIC0TSI                      FRI 09/05/97 11:40 Page:130
   1    2156   000040 040040   000000 000000   000000 777777   000000 000000    .   ............
   1    2162   000000 000000   000000 000000   000000 000000   000000 000000    ................
   1    2166   251000 622000   000000 000000   000000 000000   111250 000000    ............I...
   1    2172   040040 040040   000000 000000   000000 000000   000000 000000        ............
   1    2176   000000 000000   ****** ******                                    ........

VEH
 Sect OctLoc
   1    2200   000000 000002   440000 003111   104123 ******                    .......IDS..

KEYVEH
 Sect OctLoc
   1    2203   000000 000002   760000 003111   104123 ******                    .......IDS..

ACNT_ALL
 Sect OctLoc
   1    2206   000000 000003   012000 101114   114040 040040   040040 ******    ......ALL     ..

ACCOUNT
 Sect OctLoc
   1    2212   000000 000034   010000 101114   114040 040040   040040 002000    ......ALL     ..
   1    2216   040040 040040   040040 040040   002000 040040   040040 040040            ..
   1    2222   040040 002000   040040 040040   040040 040040   002000 040040      ..        ..
   1    2226   040040 040040   040040 002000   040040 040040   040040 040040          ..
   1    2232   002000 040040   040040 040040   040040 002000   040040 040040    ..        ..
   1    2236   040040 040040   002000 040040   040040 040040   040040 002000        ..        ..
   1    2242   040040 040040   040040 040040   002000 040040   040040 040040            ..
   1    2246   040040 ******                                                      ..

(unnamed)
 Sect OctLoc
   4     000   052123 117122   124040 040040   040040 040040   063111 040040    *SORT       3I
   4     004   111111 040040   101114 114040                                    II  ALL

(unnamed)
 Sect OctLoc
   6     000   777777 777637   000000 006003   000000 177640   000000 006014    ................
PL6.E3A0      #010=SYS_FUNC_OPEN File=ZIC$IDSFUNCS.:ZIC0TSI                      FRI 09/05/97 11:40 Page:131
   6     004   040040 040040   777777 377777   000007 777640   002000 006000        ............
   6     010   777777 677777   777777 773777   000001 777640   077040 040040    ............?
   6     014   000003 777640   002010 006000   001777 777640   000000 006000    ................
   6     020   000002 777640   002200 006000   000003 777640   002206 006000    ................
   6     024   002212 006000   000002 400000   000034 777640   002212 006000    ................
   6     030   000002 777640   002203 006000   000000 000000                    ............
      486     2873    1   END SYS_FUNC_OPEN;
      487     2874        %EOD;

PL6.E3A0      #010=SYS_FUNC_OPEN File=ZIC$IDSFUNCS.:ZIC0TSI                      FRI 09/05/97 11:40 Page:132
--  Include file information  --

   B_ERRORS_C.:LIB_E05  is referenced.
   CP_6_SUBS.:LIB_E05  is referenced.
   CP_6.:LIB_E05  cannot be made into a system file and is referenced.
   ZI_GLOBAL_DBUTIL.:ZIC0TOU  is referenced.
   B$JIT_C.:E05TOU  was found in the system file and is never referenced.
   CP_6_C.:E05TOU  was found in the system file and is referenced.
      No diagnostics issued in procedure SYS_FUNC_OPEN.

   Procedure SYS_FUNC_OPEN requires 364 words for executable code.
   Procedure SYS_FUNC_OPEN requires 6 words of local(AUTO) storage.
PL6.E3A0      #010=SYS_FUNC_OPEN File=ZIC$IDSFUNCS.:ZIC0TSI                      FRI 09/05/97 11:40 Page:133
          *** CROSS REFERENCE LISTING ***
**     DENOTES     IDENTIFIER DEFINITION
<<                 IDENTIFIER'S VALUE SET
>>                 IDENTIFIER'S VALUE USED
<>                 IDENTIFIER SET AND/OR USED
--                 IDENTIFIER REFERENCED
PL6.E3A0      #010=SYS_FUNC_OPEN File=ZIC$IDSFUNCS.:ZIC0TSI                      FRI 09/05/97 11:40 Page:134
          MINI XREF LISTING

ACCOUNT
      2463**DCL      2830--ASSIGN   2838--ASSIGN
ACCOUNT.Q
      2464**DCL      2463--DCLINIT
ACCOUNT.SIZ#
      2463**DCL      2825<<ASSIGN   2829<<ASSIGN   2829>>ASSIGN
ACCOUNT#
        22**DCL      2834<<ASSIGN
ACCOUNT$
        23**DCL      2830<<ASSIGN   2831<<ASSIGN   2831>>ASSIGN   2834>>ASSIGN   2835<<ASSIGN   2835>>ASSIGN
ACNT
       264**DCL      2806>>IF       2808<<ASSIGN   2813>>IF       2813>>IF       2815<<ASSIGN   2819>>IF
      2822>>DOWHILE  2834>>ASSIGN
ACNTSF
       294**DCL      2856<<ASSIGN   2865<<ASSIGN
ACNT_ALL
      2432**DCL      2809--ASSIGN   2816--ASSIGN
ACNT_ALL.Q
      2433**DCL      2432--DCLINIT
ACNT_ALL.SIZ#
      2432**DCL      2805<<ASSIGN
ACSSF
       224**DCL      2732>>ASSIGN   2756>>ASSIGN
ASNSF
       227**DCL      2737>>ASSIGN
B$EXCFR.ASL
       975**DCL       975--REDEF
B$EXCFR.ERR
       989**DCL      2869>>ASSIGN
B$EXCFR.ERR.ERR#
       989**DCL       989--REDEF    2867>>IF
B$EXCFR.EVID
PL6.E3A0      #010=SYS_FUNC_OPEN File=ZIC$IDSFUNCS.:ZIC0TSI                      FRI 09/05/97 11:40 Page:135
       988**DCL       988--REDEF     989--REDEF
B$EXCFR.IR
       976**DCL       976--REDEF
B$EXCFR.PREVSZ
       975**DCL       975--REDEF
B$EXCFR.SUBC
       987**DCL       987--REDEF     988--REDEF     988--REDEF
B$TCB.ALT$
       972**DCL      2867>>IF       2869>>ASSIGN
B$TCB$
       334**DCL      2867>>IF       2869>>ASSIGN
CARRY_ATTRIBUTESF
       271**DCL      2790>>IF       2853<<ASSIGN   2862<<ASSIGN
COUNTSF
       286**DCL       287--REDEF
DCBSF
       215**DCL      2711>>ASSIGN   2712>>ASSIGN   2716>>IF       2716>>IF       2735--ASSIGN   2761--IF
ENCRP_SEEDSF
       244**DCL       245--REDEF
ERRCODESF
       246**DCL       251--REDEF
EXISTSF
       265**DCL      2782>>ASSIGN
F$DCB.ACCT#
      2671**DCL      2768--ASSIGN
F$DCB.ACTPOS
      2687**DCL      2687--REDEF
F$DCB.ARS#
      2661**DCL      2661--REDEF
F$DCB.ASN#
      2676**DCL      2735>>ASSIGN   2761>>IF       2767>>ASSIGN
F$DCB.ATTR
      2680**DCL      2681--REDEF
F$DCB.BORROW
      2695**DCL      2695--REDEF    2695--REDEF    2695--REDEF
F$DCB.DCBNAME.L
PL6.E3A0      #010=SYS_FUNC_OPEN File=ZIC$IDSFUNCS.:ZIC0TSI                      FRI 09/05/97 11:40 Page:136
      2709**DCL      2709--IMP-SIZ
F$DCB.EOMCHAR#
      2665**DCL      2665--REDEF
F$DCB.FLDID
      2690**DCL      2690--REDEF
F$DCB.FORM$
      2684**DCL      2684--REDEF
F$DCB.FSECT
      2700**DCL      2700--REDEF
F$DCB.FSN#
      2677**DCL      2677--REDEF    2677--REDEF    2678--REDEF
F$DCB.HEADER$
      2683**DCL      2683--REDEF
F$DCB.IXTNSIZE#
      2681**DCL      2681--REDEF
F$DCB.LASTSTA$
      2670**DCL      2670--REDEF
F$DCB.LVL
      2696**DCL      2696--REDEF
F$DCB.NAME#.C
      2671**DCL      2671--REDEF
F$DCB.NOEOF
      2693**DCL      2693--REDEF
F$DCB.NRECS#
      2682**DCL      2682--REDEF
F$DCB.NRECX
      2701**DCL      2701--REDEF
F$DCB.OHDR
      2693**DCL      2693--REDEF
F$DCB.ORG#
      2676**DCL      2676--REDEF
F$DCB.PRECNO
      2699**DCL      2699--REDEF
F$DCB.PSN#
      2671**DCL      2770>>ASSIGN
F$DCB.RCSZ
PL6.E3A0      #010=SYS_FUNC_OPEN File=ZIC$IDSFUNCS.:ZIC0TSI                      FRI 09/05/97 11:40 Page:137
      2705**DCL      2705--REDEF
F$DCB.RES#
      2672**DCL      2672--REDEF
F$DCB.SETX
      2684**DCL      2684--REDEF
F$DCB.TAB$
      2684**DCL      2684--REDEF
F$DCB.TDA
      2698**DCL      2699--REDEF
F$DCB.WSN#
      2672**DCL      2672--REDEF
FIDSF
       263**DCL      2724>>IF       2741>>IF       2744>>CALLBLT  2746>>ASSIGN   2851<<ASSIGN   2860<<ASSIGN
FIDSF_RD
       262**DCL       263--REDEF
FILE_INFO
        21**DCL      2792--ASSIGN   2844--ASSIGN
FLNM
        24**DCL      2747--ASSIGN   2769--ASSIGN
FLNM.CNT
        25**DCL      2745<<ASSIGN
FLNM.FILE_NM
        26**DCL      2746<<ASSIGN
FUNSF
       226**DCL      2733>>ASSIGN   2738>>IF       2757>>ASSIGN   2780>>IF       2848>>IF
HELPCODE
       280**DCL       285--REDEF
I
       318**DCL      2744<<CALLBLT  2745>>ASSIGN   2821<<ASSIGN   2822>>DOWHILE  2822>>DOWHILE  2823<<ASSIGN
      2823>>ASSIGN   2825>>ASSIGN   2828>>IF       2833>>DOINDEX
ICHKSUM
       345**DCL       346--REDEF
INCL_ERR
       258**DCL      2870<<ASSIGN
I_O_BUF$
       323**DCL       324--IMP-PTR
PL6.E3A0      #010=SYS_FUNC_OPEN File=ZIC$IDSFUNCS.:ZIC0TSI                      FRI 09/05/97 11:40 Page:138
J
       319**DCL      2812<<DOINDEX  2813>>IF       2813>>IF       2833<<DOINDEX  2834>>ASSIGN
KEYVEH
      2395**DCL      2849--ASSIGN
KEYVEH.Q
      2396**DCL      2395--DCLINIT
KEYVSF
       218**DCL       223--REDEF
KEYVSF.WD_ONE
       220**DCL       221--REDEF
KEY_SHADWSF
       295**DCL      2765>>IF       2767--ASSIGN   2768--ASSIGN   2770--ASSIGN   2857<<ASSIGN   2866<<ASSIGN
M$LO
       333**DCL      2716>>IF
M$OPEN
       359**DCL-ENT  2721--CALL     2750--CALL     2850--CALL
M$SI
        19**DCL      2716>>IF
MONITOR_ERR
       253**DCL      2869<<ASSIGN
MSGCODE
       252**DCL       253--REDEF
OPEN_ERR
      2860**LABEL    2721--CALLALT  2750--CALLALT  2850--CALLALT
OPEN_FPT
      2306**DCL      2750<>CALL
OPEN_FPT.ACSVEH_
      2308**DCL      2309--REDEF
OPEN_FPT.ALTKEYS_
      2314**DCL      2315--REDEF    2315--REDEF
OPEN_FPT.HDR_
      2313**DCL      2314--REDEF
OPEN_FPT.NAME_
      2307**DCL      2742<<ASSIGN   2747<<ASSIGN
OPEN_FPT.TAB_
      2312**DCL      2313--REDEF
PL6.E3A0      #010=SYS_FUNC_OPEN File=ZIC$IDSFUNCS.:ZIC0TSI                      FRI 09/05/97 11:40 Page:139
OPEN_FPT.UHL_
      2306**DCL      2307--REDEF    2307--REDEF
OPEN_FPT.V
      2315**DCL      2306--DCLINIT
OPEN_FPT.V.ACS#
      2326**DCL      2732<<ASSIGN
OPEN_FPT.V.ASN#
      2325**DCL      2735<<ASSIGN   2737<<ASSIGN
OPEN_FPT.V.CTG#
      2319**DCL      2730<<ASSIGN
OPEN_FPT.V.DCB#
      2315**DCL      2712<<ASSIGN
OPEN_FPT.V.FSN#
      2346**DCL      2346--REDEF    2346--REDEF
OPEN_FPT.V.FUN#
      2325**DCL      2733<<ASSIGN   2749<<ASSIGN
OPEN_FPT.V.IXTNSIZE#
      2334**DCL      2739<<ASSIGN
OPEN_FPT.V.OPER.TEST#
      2317**DCL      2729<<ASSIGN
OPEN_FPT.V.ORG#
      2326**DCL      2728<<ASSIGN
OPEN_FPT.V.SETDCB#
      2316**DCL      2740<<ASSIGN
OPEN_FPT.V.SHARE#
      2320**DCL      2731<<ASSIGN
OPEN_FPT.WSN_
      2312**DCL      2312--REDEF
ORGSF
       216**DCL      2728>>ASSIGN   2754>>ASSIGN   2788>>IF       2788>>IF       2794>>IF       2848>>IF
PSNSF.VOL#
       291**DCL      2758>>IF       2759>>ASSIGN
REASGNSF
       270**DCL      2719>>ASSIGN   2734>>IF       2752>>ASSIGN   2761>>IF       2852<<ASSIGN   2861<<ASSIGN
REC$
       304**DCL       327--IMP-PTR
PL6.E3A0      #010=SYS_FUNC_OPEN File=ZIC$IDSFUNCS.:ZIC0TSI                      FRI 09/05/97 11:40 Page:140
REC_DATA_LN
       332**DCL       331--IMP-SIZ
RES_FPT
      2197**DCL      2721<>CALL     2850<>CALL
RES_FPT.ACCESS_
      2199**DCL      2809<<ASSIGN   2816<<ASSIGN   2838<<ASSIGN
RES_FPT.ACCT_
      2201**DCL      2768<<ASSIGN   2775<<ASSIGN
RES_FPT.ACSVEH_
      2199**DCL      2200--REDEF    2800<<ASSIGN   2849<<ASSIGN
RES_FPT.ALTKEYS_
      2205**DCL      2206--REDEF    2206--REDEF
RES_FPT.FPARAM_
      2202**DCL      2793<<ASSIGN   2844<<ASSIGN
RES_FPT.HDR_
      2204**DCL      2205--REDEF
RES_FPT.IFPARAM_
      2202**DCL      2792<<ASSIGN   2845<<ASSIGN
RES_FPT.NAME_
      2198**DCL      2769<<ASSIGN   2776<<ASSIGN
RES_FPT.SN_
      2197**DCL      2771<<ASSIGN
RES_FPT.TAB_
      2203**DCL      2204--REDEF
RES_FPT.UHL_
      2197**DCL      2198--REDEF    2198--REDEF
RES_FPT.V
      2206**DCL      2197--DCLINIT
RES_FPT.V.ACS#
      2217**DCL      2756<<ASSIGN
RES_FPT.V.ASN#
      2216**DCL      2767<<ASSIGN   2774<<ASSIGN
RES_FPT.V.CTG#
      2210**DCL      2720<<ASSIGN
RES_FPT.V.DCB#
      2206**DCL      2711<<ASSIGN
PL6.E3A0      #010=SYS_FUNC_OPEN File=ZIC$IDSFUNCS.:ZIC0TSI                      FRI 09/05/97 11:40 Page:141
RES_FPT.V.DISP#
      2222**DCL      2725<<ASSIGN   2727<<ASSIGN
RES_FPT.V.EXIST#
      2210**DCL      2782<<ASSIGN
RES_FPT.V.FSN#
      2237**DCL      2237--REDEF    2237--REDEF
RES_FPT.V.FUN#
      2216**DCL      2757<<ASSIGN   2847<<ASSIGN
RES_FPT.V.INITZ.REASSIGN#
      2207**DCL      2719<<ASSIGN   2752<<ASSIGN
RES_FPT.V.INITZ.SCRUB#
      2207**DCL      2718<<ASSIGN   2751<<ASSIGN
RES_FPT.V.IXTNSIZE#
      2225**DCL      2783<<ASSIGN
RES_FPT.V.OPER.NXTF#
      2209**DCL      2762<<ASSIGN   2764<<ASSIGN
RES_FPT.V.OPER.TEST#
      2208**DCL      2755<<ASSIGN
RES_FPT.V.ORG#
      2217**DCL      2754<<ASSIGN
RES_FPT.V.SETDCB#
      2207**DCL      2753<<ASSIGN
RES_FPT.V.TYPE#
      2218**DCL      2795<<ASSIGN   2797<<ASSIGN
RES_FPT.V.VOL#
      2231**DCL      2759<<ASSIGN   2760<<ASSIGN
RES_FPT.V.XTNSIZE#
      2225**DCL      2785<<ASSIGN   2787<<ASSIGN
RES_FPT.WSN_
      2203**DCL      2203--REDEF
SHARESF
       266**DCL      2731>>ASSIGN
SPKY_OPNSF
       273**DCL      2749>>IF       2847>>IF       2854<<ASSIGN   2863<<ASSIGN
SYS_FUNC_ERRMSG
        20**DCL-ENT  2871--CALL
PL6.E3A0      #010=SYS_FUNC_OPEN File=ZIC$IDSFUNCS.:ZIC0TSI                      FRI 09/05/97 11:40 Page:142
TESTSF
       228**DCL      2729>>ASSIGN   2755>>ASSIGN   2855<<ASSIGN   2864<<ASSIGN
VEH
      2361**DCL      2800--ASSIGN
VEH.Q
      2362**DCL      2361--DCLINIT
VLP_SN
      2130**DCL      2771--ASSIGN
VLP_SN.SN#
      2130**DCL      2770<<ASSIGN
XTENSIZESF
       229**DCL      2739>>ASSIGN   2783>>ASSIGN   2784>>IF       2787>>ASSIGN

PL6.E3A0      #011=SYS_FUNC_CLOS File=ZIC$IDSFUNCS.:ZIC0TSI                      FRI 09/05/97 11:40 Page:143
      488        1        /*T***********************************************************/
      489        2        /*T*                                                         */
      490        3        /*T* Copyright (c) Bull HN Information Systems Inc., 1997    */
      491        4        /*T*                                                         */
      492        5        /*T***********************************************************/
      493        6        SYS_FUNC_CLOS: PROC ALTRET;
      494        7    1   DCL SYS_FUNC_ERRMSG ENTRY ALTRET;
      495        8        %INCLUDE ZI_GLOBAL_DBUTIL;
      496      186         %SYS_FUNC;
      497      278         %MISC_DCLS;
      498      331        %INCLUDE CP_6;
      499      412        %VLP_SN(FPTN=PSN,
      500      413        N=15); /* Allow a maximum of 15 SN#s to be returned */
      501      426        %INCLUDE CP_6_SUBS;
      502      966        %B$TCB;
      503      969        %B$EXCFR;
      504      987        %F$DCB;
      505     1044        %FPT_CLOSE(FPTN=CLOSE_FPT);
      506     1086    1       IF DCBADDR(DCBSF)->F$DCB.FCD# = '0'B
      507     1087    1       THEN RETURN; /* Ignore CALL..DCB is already closed */
      508     1088    1       CLOSE_FPT.V.DCB#=DCBSF;
      509     1089    1       CLOSE_FPT.V.OPER.RELG# = %YES#;
      510     1090    1       CLOSE_FPT.V.POS# = POSSF; /* Tape position on close */
      511     1091    1       CLOSE_FPT.SN_ = VECTOR(PSN);
      512     1092    1       CALL M$CLOSE(CLOSE_FPT) ALTRET(CLOSE_ERR);
      513     1093    1       POSSF = 0; /* RESET DEFAULT */
      514     1094    1       IF DCBADDR(DCBSF)->F$DCB.ASN# = %TAPE# THEN
      515     1095    2       DO;
      516     1096    2           PSNSF.SN# = PSN.SN#(0);
      517     1097    2           PSNSF.NUM# = PSN.NUM#;
      518     1098    2           PSNSF.VOL# = DCBADDR(DCBSF)->F$DCB.VOL#;
      519     1099    2           END;
      520     1100    1       RETURN;
      521     1101    1   CLOSE_ERR:
      522     1102    1       MONITOR_ERR = B$TCB$->B$TCB.ALT$->B$EXCFR.ERR;
      523     1103    1       INCL_ERR = %YES#;
      524     1104    1       CALL SYS_FUNC_ERRMSG;
PL6.E3A0      #011=SYS_FUNC_CLOS File=ZIC$IDSFUNCS.:ZIC0TSI                      FRI 09/05/97 11:40 Page:144
      525     1105    1       ALTRETURN;
      526     1106    1   END SYS_FUNC_CLOS;
      527     1107        %EOD;

PL6.E3A0      #011=SYS_FUNC_CLOS File=ZIC$IDSFUNCS.:ZIC0TSI                      FRI 09/05/97 11:40 Page:145
--  Include file information  --

   CP_6_SUBS.:LIB_E05  is referenced.
   CP_6.:LIB_E05  cannot be made into a system file and is referenced.
   ZI_GLOBAL_DBUTIL.:ZIC0TOU  is referenced.
   B$JIT_C.:E05TOU  was found in the system file and is never referenced.
   CP_6_C.:E05TOU  was found in the system file and is referenced.
      No diagnostics issued in procedure SYS_FUNC_CLOS.

   Procedure SYS_FUNC_CLOS requires 49 words for executable code.
   Procedure SYS_FUNC_CLOS requires 4 words of local(AUTO) storage.

PL6.E3A0      #011=SYS_FUNC_CLOS File=ZIC$IDSFUNCS.:ZIC0TSI                      FRI 09/05/97 11:40 Page:146

 Object Unit name= SYS_FUNC_CLOS                              File name= ZIC$IDSFUNCS.:ZIC0TOU
 UTS= SEP 05 '97 11:40:41.40 FRI                              Compiler= PL-6/E31         Sev=      00
 SharedLib= :SHARED_SYSTEM                                    Alt SharedLib=


    ****  Control sections  ****

 Sect   Type Bound  Init  Size OctSiz  Section name(segment info)
    0   DCB   even  none     0      0  M$LO
    1   DCB   even  none     0      0  M$UC
    2   Data  even  none    54     66  SYS_FUNC_CLOS
    3   Proc  even  none    49     61  SYS_FUNC_CLOS
    4  RoData even  none     5      5  SYS_FUNC_CLOS

    ****  Entry defs  ****

                              Check   Calling
                             calling  sequence
  Sect OctLoc Primary Altret sequence   type   Parms  Name
     3      0   yes    yes     yes      Std        0  SYS_FUNC_CLOS

  ****  Entry refs  ****

         Check        Calling
        calling       sequence
Altret sequence SRef   type   Args  Name
 yes     yes           Std       0 SYS_FUNC_ERRMSG
                       nStd      0 X66_AUTO_0
                       nStd      0 X66_ARET
                       nStd      0 X66_AALT
PL6.E3A0      #011=SYS_FUNC_CLOS File=ZIC$IDSFUNCS.:ZIC0TSI                      FRI 09/05/97 11:40 Page:147

  ****  Data refs  ****

  Flags:  r = read only, s = secondary
Flgs Name                             Flgs Name                             Flgs Name
     BLKLSF                                KEYLSF                                KEYXSF
     DCBSF                                 ORGSF                                 KEYSF
     KEYVSF                                ACSSF                                 NOTIMESF
     FUNSF                                 ASNSF                                 TESTSF
     XTENSIZESF                            DISPSF                                WAITSF
     VFCSF                                 FULLSF                                BKUPSF
     BUFLNSF                               BUFSF                                 SOURCESF
     DESTSF                                DATESF                                TIMESF
     UTSSF                                 DAYSF                                 TSTAMPSF
     ENCRP_SEEDSF                          ERRCODESF                             MSGCODE
     INCL_ERR                              ERR_INSERT                            FIDSF_RD
     ACNT                                  EXISTSF                               SHARESF
     DCBNMSF                               KEYRSF                                NO_KEYSF
     REASGNSF                              CARRY_ATTRIBUTESF                     SUBMESSF
     SPKY_OPNSF                            POSSF                                 ERRFLGSF
     MERGESF                               FSA_FLAG                              RELGSF
     UNUSED                                HELPCODE                              COUNTSF
     INDEXSF                               GAP                                   PSNSF
     ACNTSF                                KEY_SHADWSF                           REC$
     RB                                    RE                                    IE
     IB                                    CNT                                   ICNT
     RCNT                                  SCNT                                  FIRST_SET
     RETCNT                                DMPCNT                                KCNT
     ACNT_IDX                              I                                     J
     K                                     X                                     STEPCC
     I_O_BUF$                              OUT_INDX                              I_O_SIZE
     REC_DATA_LN                           M$LO                                  B$TCB$
     B$ROS$                                B$JIT$                                KEYFID
     I_O_KEY                               RESTART                               BREAK_FLAG
     ICHKSUM                               ITMCNT                                GAP1
     M$UC
PL6.E3A0      #011=SYS_FUNC_CLOS File=ZIC$IDSFUNCS.:ZIC0TSI                      FRI 09/05/97 11:40 Page:148

  ****  Segment refs  ****

  Flags:  r = read only, s = secondary
Flgs Name                             Flgs Name                             Flgs Name
     ISSID                                 NULLSID                               ROSID
PL6.E3A0      #011=SYS_FUNC_CLOS File=ZIC$IDSFUNCS.:ZIC0TSI                      FRI 09/05/97 11:40 Page:149


      488        1        /*T***********************************************************/
      489        2        /*T*                                                         */
      490        3        /*T* Copyright (c) Bull HN Information Systems Inc., 1997    */
      491        4        /*T*                                                         */
      492        5        /*T***********************************************************/
      493        6        SYS_FUNC_CLOS: PROC ALTRET;

      6  3 000000   000000 700200 xent  SYS_FUNC_CL* TSX0  ! X66_AUTO_0
         3 000001   000004 000000                    ZERO    4,0

      494        7    1   DCL SYS_FUNC_ERRMSG ENTRY ALTRET;
      495        8        %INCLUDE ZI_GLOBAL_DBUTIL;
      496      186         %SYS_FUNC;
      497      278         %MISC_DCLS;
      498      331        %INCLUDE CP_6;
      499      412        %VLP_SN(FPTN=PSN,
      500      413        N=15); /* Allow a maximum of 15 SN#s to be returned */
      501      426        %INCLUDE CP_6_SUBS;
      502      966        %B$TCB;
      503      969        %B$EXCFR;
      504      987        %F$DCB;
      505     1044        %FPT_CLOSE(FPTN=CLOSE_FPT);
      506     1086    1       IF DCBADDR(DCBSF)->F$DCB.FCD# = '0'B

   1086  3 000002   000000 470400 4                  LDP0    0
         3 000003   000000 471500                    LDP1    0,,PR0
         3 000004   000000 220000 xsym               LDX0    DCBSF
         3 000005   100000 473510                    LDP3    0,X0,PR1
         3 000006   300031 236100                    LDQ     25,,PR3
         3 000007   020000 316007                    CANQ    8192,DL
         3 000010   000012 601000 3                  TNZ     s:1088

      507     1087    1       THEN RETURN; /* Ignore CALL..DCB is already closed */

   1087  3 000011   000000 702200 xent               TSX2  ! X66_ARET

PL6.E3A0      #011=SYS_FUNC_CLOS File=ZIC$IDSFUNCS.:ZIC0TSI                      FRI 09/05/97 11:40 Page:150
      508     1088    1       CLOSE_FPT.V.DCB#=DCBSF;

   1088  3 000012   000062 740000 2                  STX0    CLOSE_FPT+26

      509     1089    1       CLOSE_FPT.V.OPER.RELG# = %YES#;

   1089  3 000013   200000 236007                    LDQ     65536,DL
         3 000014   000062 256000 2                  ORSQ    CLOSE_FPT+26

      510     1090    1       CLOSE_FPT.V.POS# = POSSF; /* Tape position on close */

   1090  3 000015   000000 236000 xsym               LDQ     POSSF
         3 000016   000064 552040 2                  STBQ    CLOSE_FPT+28,'40'O

      511     1091    1       CLOSE_FPT.SN_ = VECTOR(PSN);

   1091  3 000017   000002 237000 4                  LDAQ    2
         3 000020   000032 757000 2                  STAQ    CLOSE_FPT+2

      512     1092    1       CALL M$CLOSE(CLOSE_FPT) ALTRET(CLOSE_ERR);

   1092  3 000021   000030 630400 2                  EPPR0   CLOSE_FPT
         3 000022   450001 713400                    CLIMB   alt,close
         3 000023   406000 401760                    pmme    nvectors=13
         3 000024   000047 702000 3                  TSX2    CLOSE_ERR

      513     1093    1       POSSF = 0; /* RESET DEFAULT */

   1093  3 000025   000000 450000 xsym               STZ     POSSF

      514     1094    1       IF DCBADDR(DCBSF)->F$DCB.ASN# = %TAPE# THEN

   1094  3 000026   000000 470400 4                  LDP0    0
         3 000027   000000 471500                    LDP1    0,,PR0
         3 000030   000000 220000 xsym               LDX0    DCBSF
         3 000031   100000 473510                    LDP3    0,X0,PR1
         3 000032   300032 236100                    LDQ     26,,PR3
PL6.E3A0      #011=SYS_FUNC_CLOS File=ZIC$IDSFUNCS.:ZIC0TSI                      FRI 09/05/97 11:40 Page:151
         3 000033   777000 376007                    ANQ     -512,DL
         3 000034   002000 116007                    CMPQ    1024,DL
         3 000035   000046 601000 3                  TNZ     s:1100

      515     1095    2       DO;

      516     1096    2           PSNSF.SN# = PSN.SN#(0);

   1096  3 000036   040000 100400                    MLR     fill='040'O
         3 000037   000001 000006 2                  ADSC9   PSN+1                    cn=0,n=6
         3 000040   000000 400006 xsym               ADSC9   PSNSF                    cn=2,n=6

      517     1097    2           PSNSF.NUM# = PSN.NUM#;

   1097  3 000041   000000 236000 2                  LDQ     PSN
         3 000042   000022 736000                    QLS     18
         3 000043   000000 552020 xsym               STBQ    PSNSF,'20'O

      518     1098    2           PSNSF.VOL# = DCBADDR(DCBSF)->F$DCB.VOL#;

   1098  3 000044   300043 236100                    LDQ     35,,PR3
         3 000045   000000 552040 xsym               STBQ    PSNSF,'40'O

      519     1099    2           END;

      520     1100    1       RETURN;

   1100  3 000046   000000 702200 xent               TSX2  ! X66_ARET

      521     1101    1   CLOSE_ERR:
      522     1102    1       MONITOR_ERR = B$TCB$->B$TCB.ALT$->B$EXCFR.ERR;

   1102  3 000047   000000 470400 xsym  CLOSE_ERR    LDP0    B$TCB$
         3 000050   000000 471500                    LDP1    0,,PR0
         3 000051   100102 236100                    LDQ     66,,PR1
         3 000052   000000 756000 xsym               STQ     MSGCODE

PL6.E3A0      #011=SYS_FUNC_CLOS File=ZIC$IDSFUNCS.:ZIC0TSI                      FRI 09/05/97 11:40 Page:152
      523     1103    1       INCL_ERR = %YES#;

   1103  3 000053   400000 236003                    LDQ     -131072,DU
         3 000054   000000 756000 xsym               STQ     INCL_ERR

      524     1104    1       CALL SYS_FUNC_ERRMSG;

   1104  3 000055   000004 631400 4                  EPPR1   4
         3 000056   000000 701000 xent               TSX1    SYS_FUNC_ERRMSG
         3 000057   000000 011000                    NOP     0

      525     1105    1       ALTRETURN;

   1105  3 000060   000000 702200 xent               TSX2  ! X66_AALT

PSN
 Sect OctLoc
   2     000   000000 000017   040040 040040   040040 040040   040040 040040    ....
   2     004   040040 040040   040040 040040   040040 040040   040040 040040
   2     024*  040040 040040   040040 040040   040040 040040   040040 ******                  ..

CLOSE_FPT
 Sect OctLoc
   2     030   000003 777640   000062 006000   000000 177640   000000 006014    .....2..........
   2     034   000000 177640   000000 006014   000000 177640   000000 006014    ................
   2     060*  000000 177640   000000 006014   000000 000000   000000 000040    ...............
   2     064   000220 000000   000000 000000                                    ........

(unnamed)
 Sect OctLoc
   4     000   000000 006003   000000 000000   000027 777640   000000 006000    ................
   4     004   000000 000000                                                    ....
      526     1106    1   END SYS_FUNC_CLOS;
      527     1107        %EOD;

PL6.E3A0      #011=SYS_FUNC_CLOS File=ZIC$IDSFUNCS.:ZIC0TSI                      FRI 09/05/97 11:40 Page:153
--  Include file information  --

   CP_6_SUBS.:LIB_E05  is referenced.
   CP_6.:LIB_E05  cannot be made into a system file and is referenced.
   ZI_GLOBAL_DBUTIL.:ZIC0TOU  is referenced.
   B$JIT_C.:E05TOU  was found in the system file and is never referenced.
   CP_6_C.:E05TOU  was found in the system file and is referenced.
      No diagnostics issued in procedure SYS_FUNC_CLOS.

   Procedure SYS_FUNC_CLOS requires 49 words for executable code.
   Procedure SYS_FUNC_CLOS requires 4 words of local(AUTO) storage.
PL6.E3A0      #011=SYS_FUNC_CLOS File=ZIC$IDSFUNCS.:ZIC0TSI                      FRI 09/05/97 11:40 Page:154
          *** CROSS REFERENCE LISTING ***
**     DENOTES     IDENTIFIER DEFINITION
<<                 IDENTIFIER'S VALUE SET
>>                 IDENTIFIER'S VALUE USED
<>                 IDENTIFIER SET AND/OR USED
--                 IDENTIFIER REFERENCED
PL6.E3A0      #011=SYS_FUNC_CLOS File=ZIC$IDSFUNCS.:ZIC0TSI                      FRI 09/05/97 11:40 Page:155
          MINI XREF LISTING

B$EXCFR.ASL
       970**DCL       970--REDEF
B$EXCFR.ERR
       984**DCL      1102>>ASSIGN
B$EXCFR.ERR.ERR#
       984**DCL       984--REDEF
B$EXCFR.EVID
       983**DCL       983--REDEF     984--REDEF
B$EXCFR.IR
       971**DCL       971--REDEF
B$EXCFR.PREVSZ
       970**DCL       970--REDEF
B$EXCFR.SUBC
       982**DCL       982--REDEF     983--REDEF     983--REDEF
B$TCB.ALT$
       967**DCL      1102>>ASSIGN
B$TCB$
       315**DCL      1102>>ASSIGN
CLOSE_ERR
      1102**LABEL    1092--CALLALT
CLOSE_FPT
      1067**DCL      1092<>CALL
CLOSE_FPT.SN_
      1067**DCL      1067--REDEF    1091<<ASSIGN
CLOSE_FPT.UTL_
      1068**DCL      1068--REDEF
CLOSE_FPT.V
      1072**DCL      1067--DCLINIT
CLOSE_FPT.V.DCB#
      1073**DCL      1088<<ASSIGN
CLOSE_FPT.V.EXPIRE#
      1082**DCL      1082--REDEF
PL6.E3A0      #011=SYS_FUNC_CLOS File=ZIC$IDSFUNCS.:ZIC0TSI                      FRI 09/05/97 11:40 Page:156
CLOSE_FPT.V.OPER.RELG#
      1073**DCL      1089<<ASSIGN
CLOSE_FPT.V.POS#
      1080**DCL      1090<<ASSIGN
CLOSE_FPT.V.TYPE#
      1080**DCL      1080--REDEF
CLOSE_FPT.V.XTNSIZE#
      1077**DCL      1077--REDEF    1079--REDEF
COUNTSF
       267**DCL       268--REDEF
DCBSF
       196**DCL      1086--IF       1088>>ASSIGN   1094--IF       1098--ASSIGN
ENCRP_SEEDSF
       225**DCL       226--REDEF
ERRCODESF
       227**DCL       232--REDEF
F$DCB.ACTPOS
      1020**DCL      1020--REDEF
F$DCB.ARS#
       994**DCL       994--REDEF
F$DCB.ASN#
      1009**DCL      1094>>IF
F$DCB.ATTR
      1013**DCL      1014--REDEF
F$DCB.BORROW
      1028**DCL      1028--REDEF    1028--REDEF    1028--REDEF
F$DCB.DCBNAME.L
      1042**DCL      1042--IMP-SIZ
F$DCB.EOMCHAR#
       998**DCL       998--REDEF
F$DCB.FCD#
      1007**DCL      1086>>IF
F$DCB.FLDID
      1023**DCL      1023--REDEF
F$DCB.FORM$
      1017**DCL      1017--REDEF
PL6.E3A0      #011=SYS_FUNC_CLOS File=ZIC$IDSFUNCS.:ZIC0TSI                      FRI 09/05/97 11:40 Page:157
F$DCB.FSECT
      1033**DCL      1033--REDEF
F$DCB.FSN#
      1010**DCL      1010--REDEF    1010--REDEF    1011--REDEF
F$DCB.HEADER$
      1016**DCL      1016--REDEF
F$DCB.IXTNSIZE#
      1014**DCL      1014--REDEF
F$DCB.LASTSTA$
      1003**DCL      1003--REDEF
F$DCB.LVL
      1029**DCL      1029--REDEF
F$DCB.NAME#.C
      1004**DCL      1004--REDEF
F$DCB.NOEOF
      1026**DCL      1026--REDEF
F$DCB.NRECS#
      1015**DCL      1015--REDEF
F$DCB.NRECX
      1034**DCL      1034--REDEF
F$DCB.OHDR
      1026**DCL      1026--REDEF
F$DCB.ORG#
      1009**DCL      1009--REDEF
F$DCB.PRECNO
      1032**DCL      1032--REDEF
F$DCB.RCSZ
      1038**DCL      1038--REDEF
F$DCB.RES#
      1005**DCL      1005--REDEF
F$DCB.SETX
      1017**DCL      1017--REDEF
F$DCB.TAB$
      1017**DCL      1017--REDEF
F$DCB.TDA
      1031**DCL      1032--REDEF
PL6.E3A0      #011=SYS_FUNC_CLOS File=ZIC$IDSFUNCS.:ZIC0TSI                      FRI 09/05/97 11:40 Page:158
F$DCB.VOL#
      1015**DCL      1098>>ASSIGN
F$DCB.WSN#
      1005**DCL      1005--REDEF
FIDSF_RD
       243**DCL       244--REDEF
HELPCODE
       261**DCL       266--REDEF
ICHKSUM
       326**DCL       327--REDEF
INCL_ERR
       239**DCL      1103<<ASSIGN
I_O_BUF$
       304**DCL       305--IMP-PTR
KEYVSF
       199**DCL       204--REDEF
KEYVSF.WD_ONE
       201**DCL       202--REDEF
M$CLOSE
       340**DCL-ENT  1092--CALL
MONITOR_ERR
       234**DCL      1102<<ASSIGN
MSGCODE
       233**DCL       234--REDEF
POSSF
       255**DCL      1090>>ASSIGN   1093<<ASSIGN
PSN
       424**DCL      1091--ASSIGN
PSN.NUM#
       424**DCL      1097>>ASSIGN
PSN.SN#
       424**DCL      1096>>ASSIGN
PSNSF.NUM#
       273**DCL      1097<<ASSIGN
PSNSF.SN#
       274**DCL      1096<<ASSIGN
PL6.E3A0      #011=SYS_FUNC_CLOS File=ZIC$IDSFUNCS.:ZIC0TSI                      FRI 09/05/97 11:40 Page:159
PSNSF.VOL#
       272**DCL      1098<<ASSIGN
REC$
       285**DCL       308--IMP-PTR
REC_DATA_LN
       313**DCL       312--IMP-SIZ
SYS_FUNC_ERRMSG
         7**DCL-ENT  1104--CALL

PL6.E3A0      #012=SYS_FUNC_READ File=ZIC$IDSFUNCS.:ZIC0TSI                      FRI 09/05/97 11:40 Page:160
      528        1        /*T***********************************************************/
      529        2        /*T*                                                         */
      530        3        /*T* Copyright (c) Bull HN Information Systems Inc., 1997    */
      531        4        /*T*                                                         */
      532        5        /*T***********************************************************/
      533        6        SYS_FUNC_READ: PROC ALTRET;
      534        7    1   DCL SYS_FUNC_ERRMSG ENTRY ALTRET;
      535        8        %INCLUDE ZI_GLOBAL_DBUTIL;
      536      186         %SYS_FUNC;
      537      278         %MISC_DCLS;
      538      331        %INCLUDE CP_6;
      539      412        %INCLUDE CP_6_SUBS;
      540      952        %B$TCB;
      541      955        %B$EXCFR;
      542      973        %INCLUDE B_ERRORS_C;
      543     2100        %F$DCB;
      544     2157        %FPT_READ(FPTN=READ_FPT);
      545     2196    1       READ_FPT.V.DCB#=DCBSF;
      546     2197    1       READ_FPT.V.FULL#=FULLSF;
      547     2198    1       READ_FPT.V.KEYS#=KEYSF;
      548     2199    1       IF KEYSF THEN
      549     2200    2       DO;
      550     2201    2           NO_KEYSF = %NO#; /* Reset non existant key flag */
      551     2202    2           IF DCBADDR(DCBSF)->F$DCB.ORG# = %IDS# THEN
      552     2203    2               READ_FPT.KEY_ = VECTOR(KEYVSF.IDSKEY);
      553     2204    2           ELSE
      554     2205    2               READ_FPT.KEY_ = VECTOR(KEYVSF);
      555     2206    2           END;
      556     2207    2       ELSE DO;
      557     2208    2           READ_FPT.V.KEYR# = %NO#;
      558     2209    2           READ_FPT.KEY_ = VECTOR(NIL);
      559     2210    2           END;
      560     2211    1       IF KEYRSF THEN
      561     2212    2       DO;
      562     2213    2           READ_FPT.V.KEYR# = '1'B;
      563     2214    2           READ_FPT.KEY_ = VECTOR(KEYVSF);
      564     2215    2           END;
PL6.E3A0      #012=SYS_FUNC_READ File=ZIC$IDSFUNCS.:ZIC0TSI                      FRI 09/05/97 11:40 Page:161
      565     2216    1       IF BUFLNSF = 0 THEN
      566     2217    1           READ_FPT.BUF_ = VECTOR(NIL);
      567     2218    2       ELSE DO;
      568     2219    2           IF BUFLNSF > 0 THEN BUFLNSF = BUFLNSF-1; /* Zero base array*/
      569     2220    2           READ_FPT.BUF_ = BUFSF;
      570     2221    2           READ_FPT.BUF_.BOUND = BUFLNSF;
      571     2222    2           END;
      572     2223    1       READ_FPT.V.SEED#=ENCRP_SEEDSF;
      573     2224    1       CALL M$READ(READ_FPT) ALTRET(READ_ERR);
      574     2225         /*   Put in the defaults for next read */
      575     2226    1       FULLSF = %NO#;
      576     2227    1       ENCRP_SEEDSF = '0'B;
      577     2228    1       KEYSF = %NO#;
      578     2229    1       KEYRSF = %NO#;
      579     2230    1       RETURN;
      580     2231    1   READ_ERR:
      581     2232         /*   Put in the defaults for next read */
      582     2233    1       FULLSF = %NO#;
      583     2234    1       ENCRP_SEEDSF = '0'B;
      584     2235    1       KEYSF = %NO#;
      585     2236    1       KEYRSF = %NO#;
      586     2237    1       IF B$TCB$->B$TCB.ALT$->B$EXCFR.ERR.ERR# = %E$NOKEY THEN
      587     2238    2       DO;
      588     2239    2           NO_KEYSF = %YES#;
      589     2240    2           RETURN;
      590     2241    2           END;
      591     2242    1       IF B$TCB$->B$TCB.ALT$->B$EXCFR.ERR.ERR# = %E$EOF
      592     2243    1       THEN ALTRETURN;
      593     2244    2       ELSE DO;
      594     2245    2           MONITOR_ERR = B$TCB$->B$TCB.ALT$->B$EXCFR.ERR;
      595     2246    2           INCL_ERR = %YES#;
      596     2247    2           CALL SYS_FUNC_ERRMSG;
      597     2248    2           END;
      598     2249    1       ALTRETURN;
      599     2250    1   END SYS_FUNC_READ;
      600     2251        %EOD;

PL6.E3A0      #012=SYS_FUNC_READ File=ZIC$IDSFUNCS.:ZIC0TSI                      FRI 09/05/97 11:40 Page:162
--  Include file information  --

   B_ERRORS_C.:LIB_E05  is referenced.
   CP_6_SUBS.:LIB_E05  is referenced.
   CP_6.:LIB_E05  cannot be made into a system file and is referenced.
   ZI_GLOBAL_DBUTIL.:ZIC0TOU  is referenced.
   B$JIT_C.:E05TOU  was found in the system file and is never referenced.
   CP_6_C.:E05TOU  was found in the system file and is referenced.
      No diagnostics issued in procedure SYS_FUNC_READ.

   Procedure SYS_FUNC_READ requires 91 words for executable code.
   Procedure SYS_FUNC_READ requires 4 words of local(AUTO) storage.

PL6.E3A0      #012=SYS_FUNC_READ File=ZIC$IDSFUNCS.:ZIC0TSI                      FRI 09/05/97 11:40 Page:163

 Object Unit name= SYS_FUNC_READ                              File name= ZIC$IDSFUNCS.:ZIC0TOU
 UTS= SEP 05 '97 11:40:54.04 FRI                              Compiler= PL-6/E31         Sev=      00
 SharedLib= :SHARED_SYSTEM                                    Alt SharedLib=


    ****  Control sections  ****

 Sect   Type Bound  Init  Size OctSiz  Section name(segment info)
    0   DCB   even  none     0      0  M$LO
    1   DCB   even  none     0      0  M$UC
    2   Data  even  none    14     16  SYS_FUNC_READ
    3   Proc  even  none    91    133  SYS_FUNC_READ
    4  RoData even  none    11     13  SYS_FUNC_READ

    ****  Entry defs  ****

                              Check   Calling
                             calling  sequence
  Sect OctLoc Primary Altret sequence   type   Parms  Name
     3      0   yes    yes     yes      Std        0  SYS_FUNC_READ

  ****  Entry refs  ****

         Check        Calling
        calling       sequence
Altret sequence SRef   type   Args  Name
 yes     yes           Std       0 SYS_FUNC_ERRMSG
                       nStd      0 X66_AUTO_0
                       nStd      0 X66_ARET
                       nStd      0 X66_AALT
PL6.E3A0      #012=SYS_FUNC_READ File=ZIC$IDSFUNCS.:ZIC0TSI                      FRI 09/05/97 11:40 Page:164

  ****  Data refs  ****

  Flags:  r = read only, s = secondary
Flgs Name                             Flgs Name                             Flgs Name
     BLKLSF                                KEYLSF                                KEYXSF
     DCBSF                                 ORGSF                                 KEYSF
     KEYVSF                                ACSSF                                 NOTIMESF
     FUNSF                                 ASNSF                                 TESTSF
     XTENSIZESF                            DISPSF                                WAITSF
     VFCSF                                 FULLSF                                BKUPSF
     BUFLNSF                               BUFSF                                 SOURCESF
     DESTSF                                DATESF                                TIMESF
     UTSSF                                 DAYSF                                 TSTAMPSF
     ENCRP_SEEDSF                          ERRCODESF                             MSGCODE
     INCL_ERR                              ERR_INSERT                            FIDSF_RD
     ACNT                                  EXISTSF                               SHARESF
     DCBNMSF                               KEYRSF                                NO_KEYSF
     REASGNSF                              CARRY_ATTRIBUTESF                     SUBMESSF
     SPKY_OPNSF                            POSSF                                 ERRFLGSF
     MERGESF                               FSA_FLAG                              RELGSF
     UNUSED                                HELPCODE                              COUNTSF
     INDEXSF                               GAP                                   PSNSF
     ACNTSF                                KEY_SHADWSF                           REC$
     RB                                    RE                                    IE
     IB                                    CNT                                   ICNT
     RCNT                                  SCNT                                  FIRST_SET
     RETCNT                                DMPCNT                                KCNT
     ACNT_IDX                              I                                     J
     K                                     X                                     STEPCC
     I_O_BUF$                              OUT_INDX                              I_O_SIZE
     REC_DATA_LN                           M$LO                                  B$TCB$
     B$ROS$                                B$JIT$                                KEYFID
     I_O_KEY                               RESTART                               BREAK_FLAG
     ICHKSUM                               ITMCNT                                GAP1
     M$UC
PL6.E3A0      #012=SYS_FUNC_READ File=ZIC$IDSFUNCS.:ZIC0TSI                      FRI 09/05/97 11:40 Page:165

  ****  Segment refs  ****

  Flags:  r = read only, s = secondary
Flgs Name                             Flgs Name                             Flgs Name
     ISSID                                 NULLSID                               ROSID
PL6.E3A0      #012=SYS_FUNC_READ File=ZIC$IDSFUNCS.:ZIC0TSI                      FRI 09/05/97 11:40 Page:166


      528        1        /*T***********************************************************/
      529        2        /*T*                                                         */
      530        3        /*T* Copyright (c) Bull HN Information Systems Inc., 1997    */
      531        4        /*T*                                                         */
      532        5        /*T***********************************************************/
      533        6        SYS_FUNC_READ: PROC ALTRET;

      6  3 000000   000000 700200 xent  SYS_FUNC_RE* TSX0  ! X66_AUTO_0
         3 000001   000004 000000                    ZERO    4,0

      534        7    1   DCL SYS_FUNC_ERRMSG ENTRY ALTRET;
      535        8        %INCLUDE ZI_GLOBAL_DBUTIL;
      536      186         %SYS_FUNC;
      537      278         %MISC_DCLS;
      538      331        %INCLUDE CP_6;
      539      412        %INCLUDE CP_6_SUBS;
      540      952        %B$TCB;
      541      955        %B$EXCFR;
      542      973        %INCLUDE B_ERRORS_C;
      543     2100        %F$DCB;
      544     2157        %FPT_READ(FPTN=READ_FPT);
      545     2196    1       READ_FPT.V.DCB#=DCBSF;

   2196  3 000002   000000 220000 xsym               LDX0    DCBSF
         3 000003   000010 740000 2                  STX0    READ_FPT+8

      546     2197    1       READ_FPT.V.FULL#=FULLSF;

   2197  3 000004   000000 236000 xsym               LDQ     FULLSF
         3 000005   000027 772000                    QRL     23
         3 000006   000010 676000 2                  ERQ     READ_FPT+8
         3 000007   010000 376007                    ANQ     4096,DL
         3 000010   000010 656000 2                  ERSQ    READ_FPT+8

      547     2198    1       READ_FPT.V.KEYS#=KEYSF;

PL6.E3A0      #012=SYS_FUNC_READ File=ZIC$IDSFUNCS.:ZIC0TSI                      FRI 09/05/97 11:40 Page:167
   2198  3 000011   000000 236000 xsym               LDQ     KEYSF
         3 000012   000023 772000                    QRL     19
         3 000013   000010 676000 2                  ERQ     READ_FPT+8
         3 000014   200000 376007                    ANQ     65536,DL
         3 000015   000010 656000 2                  ERSQ    READ_FPT+8

      548     2199    1       IF KEYSF THEN

   2199  3 000016   000000 234000 xsym               SZN     KEYSF
         3 000017   000036 605000 3                  TPL     s:2208

      549     2200    2       DO;

      550     2201    2           NO_KEYSF = %NO#; /* Reset non existant key flag */

   2201  3 000020   000000 450000 xsym               STZ     NO_KEYSF

      551     2202    2           IF DCBADDR(DCBSF)->F$DCB.ORG# = %IDS# THEN

   2202  3 000021   000000 470400 4                  LDP0    0
         3 000022   000000 471500                    LDP1    0,,PR0
         3 000023   100000 473510                    LDP3    0,X0,PR1
         3 000024   300032 236100                    LDQ     26,,PR3
         3 000025   777000 376003                    ANQ     -512,DU
         3 000026   007000 116003                    CMPQ    3584,DU
         3 000027   000033 601000 3                  TNZ     s:2205

      552     2203    2               READ_FPT.KEY_ = VECTOR(KEYVSF.IDSKEY);

   2203  3 000030   000002 237000 4                  LDAQ    2
         3 000031   000002 757000 2                  STAQ    READ_FPT+2
         3 000032   000042 710000 3                  TRA     s:2211

      553     2204    2           ELSE
      554     2205    2               READ_FPT.KEY_ = VECTOR(KEYVSF);

   2205  3 000033   000004 237000 4                  LDAQ    4
PL6.E3A0      #012=SYS_FUNC_READ File=ZIC$IDSFUNCS.:ZIC0TSI                      FRI 09/05/97 11:40 Page:168
         3 000034   000002 757000 2                  STAQ    READ_FPT+2

      555     2206    2           END;

   2206  3 000035   000042 710000 3                  TRA     s:2211

      556     2207    2       ELSE DO;

      557     2208    2           READ_FPT.V.KEYR# = %NO#;

   2208  3 000036   000006 236000 4                  LDQ     6
         3 000037   000010 356000 2                  ANSQ    READ_FPT+8

      558     2209    2           READ_FPT.KEY_ = VECTOR(NIL);

   2209  3 000040   000010 237000 4                  LDAQ    8
         3 000041   000002 757000 2                  STAQ    READ_FPT+2

      559     2210    2           END;

      560     2211    1       IF KEYRSF THEN

   2211  3 000042   000000 234000 xsym               SZN     KEYRSF
         3 000043   000050 605000 3                  TPL     s:2216

      561     2212    2       DO;

      562     2213    2           READ_FPT.V.KEYR# = '1'B;

   2213  3 000044   100000 236007                    LDQ     32768,DL
         3 000045   000010 256000 2                  ORSQ    READ_FPT+8

      563     2214    2           READ_FPT.KEY_ = VECTOR(KEYVSF);

   2214  3 000046   000004 237000 4                  LDAQ    4
         3 000047   000002 757000 2                  STAQ    READ_FPT+2

PL6.E3A0      #012=SYS_FUNC_READ File=ZIC$IDSFUNCS.:ZIC0TSI                      FRI 09/05/97 11:40 Page:169
      564     2215    2           END;

      565     2216    1       IF BUFLNSF = 0 THEN

   2216  3 000050   000000 235000 xsym               LDA     BUFLNSF
         3 000051   000055 601000 3                  TNZ     s:2219

      566     2217    1           READ_FPT.BUF_ = VECTOR(NIL);

   2217  3 000052   000010 237000 4                  LDAQ    8
         3 000053   000004 757000 2                  STAQ    READ_FPT+4
         3 000054   000070 710000 3                  TRA     s:2223

      567     2218    2       ELSE DO;

      568     2219    2           IF BUFLNSF > 0 THEN BUFLNSF = BUFLNSF-1; /* Zero base array*/

   2219  3 000055   000060 600000 3                  TZE     s:2220

   2219  3 000056   000001 135007                    SBLA    1,DL
         3 000057   000000 755000 xsym               STA     BUFLNSF

      569     2220    2           READ_FPT.BUF_ = BUFSF;

   2220  3 000060   000000 100400                    MLR     fill='000'O
         3 000061   000000 000010 xsym               ADSC9   BUFSF                    cn=0,n=8
         3 000062   000004 000010 2                  ADSC9   READ_FPT+4               cn=0,n=8

      570     2221    2           READ_FPT.BUF_.BOUND = BUFLNSF;

   2221  3 000063   000000 236000 xsym               LDQ     BUFLNSF
         3 000064   000020 736000                    QLS     16
         3 000065   000004 676000 2                  ERQ     READ_FPT+4
         3 000066   000007 376000 4                  ANQ     7
         3 000067   000004 656000 2                  ERSQ    READ_FPT+4

      571     2222    2           END;
PL6.E3A0      #012=SYS_FUNC_READ File=ZIC$IDSFUNCS.:ZIC0TSI                      FRI 09/05/97 11:40 Page:170

      572     2223    1       READ_FPT.V.SEED#=ENCRP_SEEDSF;

   2223  3 000070   000000 236000 xsym               LDQ     ENCRP_SEEDSF
         3 000071   000012 756000 2                  STQ     READ_FPT+10

      573     2224    1       CALL M$READ(READ_FPT) ALTRET(READ_ERR);

   2224  3 000072   000000 630400 2                  EPPR0   READ_FPT
         3 000073   440000 713400                    CLIMB   alt,read
         3 000074   401400 401760                    pmme    nvectors=4
         3 000075   000103 702000 3                  TSX2    READ_ERR

      574     2225         /*   Put in the defaults for next read */
      575     2226    1       FULLSF = %NO#;

   2226  3 000076   000000 450000 xsym               STZ     FULLSF

      576     2227    1       ENCRP_SEEDSF = '0'B;

   2227  3 000077   000000 450000 xsym               STZ     ENCRP_SEEDSF

      577     2228    1       KEYSF = %NO#;

   2228  3 000100   000000 450000 xsym               STZ     KEYSF

      578     2229    1       KEYRSF = %NO#;

   2229  3 000101   000000 450000 xsym               STZ     KEYRSF

      579     2230    1       RETURN;

   2230  3 000102   000000 702200 xent               TSX2  ! X66_ARET

      580     2231    1   READ_ERR:
      581     2232         /*   Put in the defaults for next read */
      582     2233    1       FULLSF = %NO#;
PL6.E3A0      #012=SYS_FUNC_READ File=ZIC$IDSFUNCS.:ZIC0TSI                      FRI 09/05/97 11:40 Page:171

   2233  3 000103   000000 450000 xsym  READ_ERR     STZ     FULLSF

      583     2234    1       ENCRP_SEEDSF = '0'B;

   2234  3 000104   000000 450000 xsym               STZ     ENCRP_SEEDSF

      584     2235    1       KEYSF = %NO#;

   2235  3 000105   000000 450000 xsym               STZ     KEYSF

      585     2236    1       KEYRSF = %NO#;

   2236  3 000106   000000 450000 xsym               STZ     KEYRSF

      586     2237    1       IF B$TCB$->B$TCB.ALT$->B$EXCFR.ERR.ERR# = %E$NOKEY THEN

   2237  3 000107   000000 470400 xsym               LDP0    B$TCB$
         3 000110   000000 471500                    LDP1    0,,PR0
         3 000111   100102 236100                    LDQ     66,,PR1
         3 000112   377770 376007                    ANQ     131064,DL
         3 000113   001020 116007                    CMPQ    528,DL
         3 000114   000120 601000 3                  TNZ     s:2242

      587     2238    2       DO;

      588     2239    2           NO_KEYSF = %YES#;

   2239  3 000115   400000 236003                    LDQ     -131072,DU
         3 000116   000000 756000 xsym               STQ     NO_KEYSF

      589     2240    2           RETURN;

   2240  3 000117   000000 702200 xent               TSX2  ! X66_ARET

      590     2241    2           END;
      591     2242    1       IF B$TCB$->B$TCB.ALT$->B$EXCFR.ERR.ERR# = %E$EOF
PL6.E3A0      #012=SYS_FUNC_READ File=ZIC$IDSFUNCS.:ZIC0TSI                      FRI 09/05/97 11:40 Page:172

   2242  3 000120   000060 116007                    CMPQ    48,DL
         3 000121   000123 601000 3                  TNZ     s:2245

      592     2243    1       THEN ALTRETURN;

   2243  3 000122   000000 702200 xent               TSX2  ! X66_AALT

      593     2244    2       ELSE DO;

      594     2245    2           MONITOR_ERR = B$TCB$->B$TCB.ALT$->B$EXCFR.ERR;

   2245  3 000123   100102 236100                    LDQ     66,,PR1
         3 000124   000000 756000 xsym               STQ     MSGCODE

      595     2246    2           INCL_ERR = %YES#;

   2246  3 000125   400000 236003                    LDQ     -131072,DU
         3 000126   000000 756000 xsym               STQ     INCL_ERR

      596     2247    2           CALL SYS_FUNC_ERRMSG;

   2247  3 000127   000012 631400 4                  EPPR1   10
         3 000130   000000 701000 xent               TSX1    SYS_FUNC_ERRMSG
         3 000131   000000 011000                    NOP     0

      597     2248    2           END;

      598     2249    1       ALTRETURN;

   2249  3 000132   000000 702200 xent               TSX2  ! X66_AALT

READ_FPT
 Sect OctLoc
   2     000   000005 777640   000010 006000   000000 177640   000000 006014    ................
   2     004   000000 177640   000000 006014   000000 177640   000000 006014    ................
   2     010   000000 400000   000000 000000   000000 000000   000000 000000    ................
PL6.E3A0      #012=SYS_FUNC_READ File=ZIC$IDSFUNCS.:ZIC0TSI                      FRI 09/05/97 11:40 Page:173
   2     014   000000 000000   000000 000000                                    ........

(unnamed)
 Sect OctLoc
   4     000   000000 006003   000000 000000   000000 777640   000000 206000    ................
   4     004   000077 777640   000000 006000   777777 677777   777777 600000    .?..............
   4     010   000000 177640   000000 006014   000000 000000                    ............
      599     2250    1   END SYS_FUNC_READ;
      600     2251        %EOD;

PL6.E3A0      #012=SYS_FUNC_READ File=ZIC$IDSFUNCS.:ZIC0TSI                      FRI 09/05/97 11:40 Page:174
--  Include file information  --

   B_ERRORS_C.:LIB_E05  is referenced.
   CP_6_SUBS.:LIB_E05  is referenced.
   CP_6.:LIB_E05  cannot be made into a system file and is referenced.
   ZI_GLOBAL_DBUTIL.:ZIC0TOU  is referenced.
   B$JIT_C.:E05TOU  was found in the system file and is never referenced.
   CP_6_C.:E05TOU  was found in the system file and is referenced.
      No diagnostics issued in procedure SYS_FUNC_READ.

   Procedure SYS_FUNC_READ requires 91 words for executable code.
   Procedure SYS_FUNC_READ requires 4 words of local(AUTO) storage.
PL6.E3A0      #012=SYS_FUNC_READ File=ZIC$IDSFUNCS.:ZIC0TSI                      FRI 09/05/97 11:40 Page:175
          *** CROSS REFERENCE LISTING ***
**     DENOTES     IDENTIFIER DEFINITION
<<                 IDENTIFIER'S VALUE SET
>>                 IDENTIFIER'S VALUE USED
<>                 IDENTIFIER SET AND/OR USED
--                 IDENTIFIER REFERENCED
PL6.E3A0      #012=SYS_FUNC_READ File=ZIC$IDSFUNCS.:ZIC0TSI                      FRI 09/05/97 11:40 Page:176
          MINI XREF LISTING

B$EXCFR.ASL
       956**DCL       956--REDEF
B$EXCFR.ERR
       970**DCL      2245>>ASSIGN
B$EXCFR.ERR.ERR#
       970**DCL       970--REDEF    2237>>IF       2242>>IF
B$EXCFR.EVID
       969**DCL       969--REDEF     970--REDEF
B$EXCFR.IR
       957**DCL       957--REDEF
B$EXCFR.PREVSZ
       956**DCL       956--REDEF
B$EXCFR.SUBC
       968**DCL       968--REDEF     969--REDEF     969--REDEF
B$TCB.ALT$
       953**DCL      2237>>IF       2242>>IF       2245>>ASSIGN
B$TCB$
       315**DCL      2237>>IF       2242>>IF       2245>>ASSIGN
BUFLNSF
       216**DCL      2216>>IF       2219>>IF       2219<<ASSIGN   2219>>ASSIGN   2221>>ASSIGN
BUFSF
       217**DCL      2220>>ASSIGN
COUNTSF
       267**DCL       268--REDEF
DCBSF
       196**DCL      2196>>ASSIGN   2202--IF
ENCRP_SEEDSF
       225**DCL       226--REDEF    2223>>ASSIGN   2227<<ASSIGN   2234<<ASSIGN
ERRCODESF
       227**DCL       232--REDEF
F$DCB.ACTPOS
      2133**DCL      2133--REDEF
PL6.E3A0      #012=SYS_FUNC_READ File=ZIC$IDSFUNCS.:ZIC0TSI                      FRI 09/05/97 11:40 Page:177
F$DCB.ARS#
      2107**DCL      2107--REDEF
F$DCB.ATTR
      2126**DCL      2127--REDEF
F$DCB.BORROW
      2141**DCL      2141--REDEF    2141--REDEF    2141--REDEF
F$DCB.DCBNAME.L
      2155**DCL      2155--IMP-SIZ
F$DCB.EOMCHAR#
      2111**DCL      2111--REDEF
F$DCB.FLDID
      2136**DCL      2136--REDEF
F$DCB.FORM$
      2130**DCL      2130--REDEF
F$DCB.FSECT
      2146**DCL      2146--REDEF
F$DCB.FSN#
      2123**DCL      2123--REDEF    2123--REDEF    2124--REDEF
F$DCB.HEADER$
      2129**DCL      2129--REDEF
F$DCB.IXTNSIZE#
      2127**DCL      2127--REDEF
F$DCB.LASTSTA$
      2116**DCL      2116--REDEF
F$DCB.LVL
      2142**DCL      2142--REDEF
F$DCB.NAME#.C
      2117**DCL      2117--REDEF
F$DCB.NOEOF
      2139**DCL      2139--REDEF
F$DCB.NRECS#
      2128**DCL      2128--REDEF
F$DCB.NRECX
      2147**DCL      2147--REDEF
F$DCB.OHDR
      2139**DCL      2139--REDEF
PL6.E3A0      #012=SYS_FUNC_READ File=ZIC$IDSFUNCS.:ZIC0TSI                      FRI 09/05/97 11:40 Page:178
F$DCB.ORG#
      2122**DCL      2122--REDEF    2202>>IF
F$DCB.PRECNO
      2145**DCL      2145--REDEF
F$DCB.RCSZ
      2151**DCL      2151--REDEF
F$DCB.RES#
      2118**DCL      2118--REDEF
F$DCB.SETX
      2130**DCL      2130--REDEF
F$DCB.TAB$
      2130**DCL      2130--REDEF
F$DCB.TDA
      2144**DCL      2145--REDEF
F$DCB.WSN#
      2118**DCL      2118--REDEF
FIDSF_RD
       243**DCL       244--REDEF
FULLSF
       214**DCL      2197>>ASSIGN   2226<<ASSIGN   2233<<ASSIGN
HELPCODE
       261**DCL       266--REDEF
ICHKSUM
       326**DCL       327--REDEF
INCL_ERR
       239**DCL      2246<<ASSIGN
I_O_BUF$
       304**DCL       305--IMP-PTR
KEYRSF
       249**DCL      2211>>IF       2229<<ASSIGN   2236<<ASSIGN
KEYSF
       198**DCL      2198>>ASSIGN   2199>>IF       2228<<ASSIGN   2235<<ASSIGN
KEYVSF
       199**DCL       204--REDEF    2205--ASSIGN   2214--ASSIGN
KEYVSF.IDSKEY
       202**DCL      2203--ASSIGN
PL6.E3A0      #012=SYS_FUNC_READ File=ZIC$IDSFUNCS.:ZIC0TSI                      FRI 09/05/97 11:40 Page:179
KEYVSF.WD_ONE
       201**DCL       202--REDEF
M$READ
       341**DCL-ENT  2224--CALL
MONITOR_ERR
       234**DCL      2245<<ASSIGN
MSGCODE
       233**DCL       234--REDEF
NO_KEYSF
       250**DCL      2201<<ASSIGN   2239<<ASSIGN
READ_ERR
      2233**LABEL    2224--CALLALT
READ_FPT
      2174**DCL      2224<>CALL
READ_FPT.BUF_
      2176**DCL      2217<<ASSIGN   2220<<ASSIGN
READ_FPT.BUF_.BOUND
      2176**DCL      2221<<ASSIGN
READ_FPT.KEY_
      2174**DCL      2203<<ASSIGN   2205<<ASSIGN   2209<<ASSIGN   2214<<ASSIGN
READ_FPT.STATION_
      2177**DCL      2178--REDEF
READ_FPT.V
      2178**DCL      2174--DCLINIT
READ_FPT.V.DCB#
      2178**DCL      2196<<ASSIGN
READ_FPT.V.DVBYTE.REREAD#
      2189**DCL      2189--REDEF
READ_FPT.V.FULL#
      2180**DCL      2197<<ASSIGN
READ_FPT.V.INDX#
      2187**DCL      2187--REDEF
READ_FPT.V.KEYR#
      2179**DCL      2208<<ASSIGN   2213<<ASSIGN
READ_FPT.V.KEYS#
      2179**DCL      2198<<ASSIGN
PL6.E3A0      #012=SYS_FUNC_READ File=ZIC$IDSFUNCS.:ZIC0TSI                      FRI 09/05/97 11:40 Page:180
READ_FPT.V.SEED#
      2188**DCL      2223<<ASSIGN
REC$
       285**DCL       308--IMP-PTR
REC_DATA_LN
       313**DCL       312--IMP-SIZ
SYS_FUNC_ERRMSG
         7**DCL-ENT  2247--CALL

PL6.E3A0      #013=SYS_FUNC_WRIT File=ZIC$IDSFUNCS.:ZIC0TSI                      FRI 09/05/97 11:41 Page:181
      601        1        /*T***********************************************************/
      602        2        /*T*                                                         */
      603        3        /*T* Copyright (c) Bull HN Information Systems Inc., 1997    */
      604        4        /*T*                                                         */
      605        5        /*T***********************************************************/
      606        6        SYS_FUNC_WRIT: PROC ALTRET;
      607        7    1   DCL SYS_FUNC_ERRMSG ENTRY ALTRET;
      608        8        %INCLUDE ZI_GLOBAL_DBUTIL;
      609      186         %SYS_FUNC;
      610      278         %MISC_DCLS;
      611      331        %INCLUDE CP_6;
      612      412        %INCLUDE CP_6_SUBS;
      613      952        %B$TCB;
      614      955        %F$DCB;
      615     1012        %B$EXCFR;
      616     1030        %FPT_WRITE(FPTN=WRITE_FPT);
      617     1061    1       WRITE_FPT.V.DCB#=DCBSF;
      618     1062    1       IF BUFLNSF = 0 THEN
      619     1063    1           WRITE_FPT.BUF_ = VECTOR(NIL);
      620     1064    2       ELSE DO;
      621     1065    2           IF BUFLNSF > 0 THEN BUFLNSF = BUFLNSF-1; /* Zero base array*/
      622     1066    2           WRITE_FPT.BUF_ = BUFSF;
      623     1067    2           WRITE_FPT.BUF_.BOUND = BUFLNSF;
      624     1068    2           END;
      625     1069    1       WRITE_FPT.V.WAIT#=WAITSF;
      626     1070    1       WRITE_FPT.V.NOTIME#=NOTIMESF;
      627     1071    1       WRITE_FPT.V.DVBYTE.VFC#=VFCSF;
      628     1072    1       WRITE_FPT.V.FULL#=FULLSF;
      629     1073    1       WRITE_FPT.V.SEED#=ENCRP_SEEDSF;
      630     1074    1       IF KEYVSF.WD_ONE = '    ' THEN
      631     1075    1           WRITE_FPT.KEY_=VECTOR(NIL);
      632     1076    1       ELSE
      633     1077    2       DO;
      634     1078    2           IF DCBADDR(DCBSF)->F$DCB.ORG# = %IDS#
      635     1079    2           THEN WRITE_FPT.KEY_ = VECTOR(KEYVSF.IDSKEY);
      636     1080    2           ELSE
      637     1081    2               WRITE_FPT.KEY_ = VECTOR(KEYVSF);
PL6.E3A0      #013=SYS_FUNC_WRIT File=ZIC$IDSFUNCS.:ZIC0TSI                      FRI 09/05/97 11:41 Page:182
      638     1082    2           END;
      639     1083    1       CALL M$WRITE(WRITE_FPT) ALTRET(WRT_ERR);
      640     1084         /*    Put in defaults for next call */
      641     1085    1       WAITSF = %YES#;
      642     1086    1       FULLSF = %NO#;
      643     1087    1       NOTIMESF = %NO#;
      644     1088    1       VFCSF = %YES#;
      645     1089    1       ENCRP_SEEDSF = '0'B;
      646     1090    1       KEYSF = %NO#;
      647     1091    1       KEYVSF.WD_ONE = ' ';
      648     1092    1       RETURN;
      649     1093    1   WRT_ERR:
      650     1094    1       MONITOR_ERR = B$TCB$->B$TCB.ALT$->B$EXCFR.ERR;
      651     1095    1       INCL_ERR = %YES#;
      652     1096    1       CALL SYS_FUNC_ERRMSG;
      653     1097         /*    Put in defaults for next call */
      654     1098    1       WAITSF = %YES#;
      655     1099    1       FULLSF = %NO#;
      656     1100    1       NOTIMESF = %NO#;
      657     1101    1       VFCSF = %YES#;
      658     1102    1       ENCRP_SEEDSF = '0'B;
      659     1103    1       KEYSF = %NO#;
      660     1104    1       KEYVSF.WD_ONE = ' ';
      661     1105    1       ALTRETURN;
      662     1106    1   END SYS_FUNC_WRIT;
      663     1107        %EOD;

PL6.E3A0      #013=SYS_FUNC_WRIT File=ZIC$IDSFUNCS.:ZIC0TSI                      FRI 09/05/97 11:41 Page:183
--  Include file information  --

   CP_6_SUBS.:LIB_E05  is referenced.
   CP_6.:LIB_E05  cannot be made into a system file and is referenced.
   ZI_GLOBAL_DBUTIL.:ZIC0TOU  is referenced.
   B$JIT_C.:E05TOU  was found in the system file and is never referenced.
   CP_6_C.:E05TOU  was found in the system file and is referenced.
      No diagnostics issued in procedure SYS_FUNC_WRIT.

   Procedure SYS_FUNC_WRIT requires 96 words for executable code.
   Procedure SYS_FUNC_WRIT requires 4 words of local(AUTO) storage.

PL6.E3A0      #013=SYS_FUNC_WRIT File=ZIC$IDSFUNCS.:ZIC0TSI                      FRI 09/05/97 11:41 Page:184

 Object Unit name= SYS_FUNC_WRIT                              File name= ZIC$IDSFUNCS.:ZIC0TOU
 UTS= SEP 05 '97 11:41:10.16 FRI                              Compiler= PL-6/E31         Sev=      00
 SharedLib= :SHARED_SYSTEM                                    Alt SharedLib=


    ****  Control sections  ****

 Sect   Type Bound  Init  Size OctSiz  Section name(segment info)
    0   DCB   even  none     0      0  M$LO
    1   DCB   even  none     0      0  M$UC
    2   Data  even  none    12     14  SYS_FUNC_WRIT
    3  RoData even  UTS      1      1  SYS_FUNC_WRIT
    4   Proc  even  none    96    140  SYS_FUNC_WRIT
    5  RoData even  none    10     12  SYS_FUNC_WRIT

    ****  Entry defs  ****

                              Check   Calling
                             calling  sequence
  Sect OctLoc Primary Altret sequence   type   Parms  Name
     4      0   yes    yes     yes      Std        0  SYS_FUNC_WRIT

  ****  Entry refs  ****

         Check        Calling
        calling       sequence
Altret sequence SRef   type   Args  Name
 yes     yes           Std       0 SYS_FUNC_ERRMSG
                       nStd      0 X66_AUTO_0
                       nStd      0 X66_ARET
                       nStd      0 X66_AALT
PL6.E3A0      #013=SYS_FUNC_WRIT File=ZIC$IDSFUNCS.:ZIC0TSI                      FRI 09/05/97 11:41 Page:185

  ****  Data refs  ****

  Flags:  r = read only, s = secondary
Flgs Name                             Flgs Name                             Flgs Name
     BLKLSF                                KEYLSF                                KEYXSF
     DCBSF                                 ORGSF                                 KEYSF
     KEYVSF                                ACSSF                                 NOTIMESF
     FUNSF                                 ASNSF                                 TESTSF
     XTENSIZESF                            DISPSF                                WAITSF
     VFCSF                                 FULLSF                                BKUPSF
     BUFLNSF                               BUFSF                                 SOURCESF
     DESTSF                                DATESF                                TIMESF
     UTSSF                                 DAYSF                                 TSTAMPSF
     ENCRP_SEEDSF                          ERRCODESF                             MSGCODE
     INCL_ERR                              ERR_INSERT                            FIDSF_RD
     ACNT                                  EXISTSF                               SHARESF
     DCBNMSF                               KEYRSF                                NO_KEYSF
     REASGNSF                              CARRY_ATTRIBUTESF                     SUBMESSF
     SPKY_OPNSF                            POSSF                                 ERRFLGSF
     MERGESF                               FSA_FLAG                              RELGSF
     UNUSED                                HELPCODE                              COUNTSF
     INDEXSF                               GAP                                   PSNSF
     ACNTSF                                KEY_SHADWSF                           REC$
     RB                                    RE                                    IE
     IB                                    CNT                                   ICNT
     RCNT                                  SCNT                                  FIRST_SET
     RETCNT                                DMPCNT                                KCNT
     ACNT_IDX                              I                                     J
     K                                     X                                     STEPCC
     I_O_BUF$                              OUT_INDX                              I_O_SIZE
     REC_DATA_LN                           M$LO                                  B$TCB$
     B$ROS$                                B$JIT$                                KEYFID
     I_O_KEY                               RESTART                               BREAK_FLAG
     ICHKSUM                               ITMCNT                                GAP1
     M$UC
PL6.E3A0      #013=SYS_FUNC_WRIT File=ZIC$IDSFUNCS.:ZIC0TSI                      FRI 09/05/97 11:41 Page:186

  ****  Segment refs  ****

  Flags:  r = read only, s = secondary
Flgs Name                             Flgs Name                             Flgs Name
     ISSID                                 NULLSID                               ROSID
PL6.E3A0      #013=SYS_FUNC_WRIT File=ZIC$IDSFUNCS.:ZIC0TSI                      FRI 09/05/97 11:41 Page:187


      601        1        /*T***********************************************************/
      602        2        /*T*                                                         */
      603        3        /*T* Copyright (c) Bull HN Information Systems Inc., 1997    */
      604        4        /*T*                                                         */
      605        5        /*T***********************************************************/
      606        6        SYS_FUNC_WRIT: PROC ALTRET;

      6  4 000000   000000 700200 xent  SYS_FUNC_WR* TSX0  ! X66_AUTO_0
         4 000001   000004 000000                    ZERO    4,0

      607        7    1   DCL SYS_FUNC_ERRMSG ENTRY ALTRET;
      608        8        %INCLUDE ZI_GLOBAL_DBUTIL;
      609      186         %SYS_FUNC;
      610      278         %MISC_DCLS;
      611      331        %INCLUDE CP_6;
      612      412        %INCLUDE CP_6_SUBS;
      613      952        %B$TCB;
      614      955        %F$DCB;
      615     1012        %B$EXCFR;
      616     1030        %FPT_WRITE(FPTN=WRITE_FPT);
      617     1061    1       WRITE_FPT.V.DCB#=DCBSF;

   1061  4 000002   000000 220000 xsym               LDX0    DCBSF
         4 000003   000010 740000 2                  STX0    WRITE_FPT+8

      618     1062    1       IF BUFLNSF = 0 THEN

   1062  4 000004   000000 235000 xsym               LDA     BUFLNSF
         4 000005   000011 601000 4                  TNZ     s:1065

      619     1063    1           WRITE_FPT.BUF_ = VECTOR(NIL);

   1063  4 000006   000000 237000 5                  LDAQ    0
         4 000007   000004 757000 2                  STAQ    WRITE_FPT+4
         4 000010   000024 710000 4                  TRA     s:1069

PL6.E3A0      #013=SYS_FUNC_WRIT File=ZIC$IDSFUNCS.:ZIC0TSI                      FRI 09/05/97 11:41 Page:188
      620     1064    2       ELSE DO;

      621     1065    2           IF BUFLNSF > 0 THEN BUFLNSF = BUFLNSF-1; /* Zero base array*/

   1065  4 000011   000014 600000 4                  TZE     s:1066

   1065  4 000012   000001 135007                    SBLA    1,DL
         4 000013   000000 755000 xsym               STA     BUFLNSF

      622     1066    2           WRITE_FPT.BUF_ = BUFSF;

   1066  4 000014   000000 100400                    MLR     fill='000'O
         4 000015   000000 000010 xsym               ADSC9   BUFSF                    cn=0,n=8
         4 000016   000004 000010 2                  ADSC9   WRITE_FPT+4              cn=0,n=8

      623     1067    2           WRITE_FPT.BUF_.BOUND = BUFLNSF;

   1067  4 000017   000000 236000 xsym               LDQ     BUFLNSF
         4 000020   000020 736000                    QLS     16
         4 000021   000004 676000 2                  ERQ     WRITE_FPT+4
         4 000022   000002 376000 5                  ANQ     2
         4 000023   000004 656000 2                  ERSQ    WRITE_FPT+4

      624     1068    2           END;

      625     1069    1       WRITE_FPT.V.WAIT#=WAITSF;

   1069  4 000024   000000 236000 xsym               LDQ     WAITSF
         4 000025   000022 772000                    QRL     18
         4 000026   000010 676000 2                  ERQ     WRITE_FPT+8
         4 000027   400000 376007                    ANQ     -131072,DL
         4 000030   000010 656000 2                  ERSQ    WRITE_FPT+8

      626     1070    1       WRITE_FPT.V.NOTIME#=NOTIMESF;

   1070  4 000031   000000 236000 xsym               LDQ     NOTIMESF
         4 000032   000036 772000                    QRL     30
PL6.E3A0      #013=SYS_FUNC_WRIT File=ZIC$IDSFUNCS.:ZIC0TSI                      FRI 09/05/97 11:41 Page:189
         4 000033   000010 676000 2                  ERQ     WRITE_FPT+8
         4 000034   000040 376007                    ANQ     32,DL
         4 000035   000010 656000 2                  ERSQ    WRITE_FPT+8

      627     1071    1       WRITE_FPT.V.DVBYTE.VFC#=VFCSF;

   1071  4 000036   000000 236000 xsym               LDQ     VFCSF
         4 000037   000002 772000                    QRL     2
         4 000040   000013 676000 2                  ERQ     WRITE_FPT+11
         4 000041   100000 376003                    ANQ     32768,DU
         4 000042   000013 656000 2                  ERSQ    WRITE_FPT+11

      628     1072    1       WRITE_FPT.V.FULL#=FULLSF;

   1072  4 000043   000000 236000 xsym               LDQ     FULLSF
         4 000044   000027 772000                    QRL     23
         4 000045   000010 676000 2                  ERQ     WRITE_FPT+8
         4 000046   010000 376007                    ANQ     4096,DL
         4 000047   000010 656000 2                  ERSQ    WRITE_FPT+8

      629     1073    1       WRITE_FPT.V.SEED#=ENCRP_SEEDSF;

   1073  4 000050   000000 236000 xsym               LDQ     ENCRP_SEEDSF
         4 000051   000012 756000 2                  STQ     WRITE_FPT+10

      630     1074    1       IF KEYVSF.WD_ONE = '    ' THEN

   1074  4 000052   040000 106400                    CMPC    fill='040'O
         4 000053   000000 200004 xsym               ADSC9   KEYVSF                   cn=1,n=4
         4 000054   000000 000004 3                  ADSC9   0                        cn=0,n=4
         4 000055   000061 601000 4                  TNZ     s:1078

      631     1075    1           WRITE_FPT.KEY_=VECTOR(NIL);

   1075  4 000056   000000 237000 5                  LDAQ    0
         4 000057   000002 757000 2                  STAQ    WRITE_FPT+2
         4 000060   000075 710000 4                  TRA     s:1083
PL6.E3A0      #013=SYS_FUNC_WRIT File=ZIC$IDSFUNCS.:ZIC0TSI                      FRI 09/05/97 11:41 Page:190

      632     1076    1       ELSE
      633     1077    2       DO;

      634     1078    2           IF DCBADDR(DCBSF)->F$DCB.ORG# = %IDS#

   1078  4 000061   000003 470400 5                  LDP0    3
         4 000062   000000 471500                    LDP1    0,,PR0
         4 000063   100000 473510                    LDP3    0,X0,PR1
         4 000064   300032 236100                    LDQ     26,,PR3
         4 000065   777000 376003                    ANQ     -512,DU
         4 000066   007000 116003                    CMPQ    3584,DU
         4 000067   000073 601000 4                  TNZ     s:1081

      635     1079    2           THEN WRITE_FPT.KEY_ = VECTOR(KEYVSF.IDSKEY);

   1079  4 000070   000004 237000 5                  LDAQ    4
         4 000071   000002 757000 2                  STAQ    WRITE_FPT+2
         4 000072   000075 710000 4                  TRA     s:1083

      636     1080    2           ELSE
      637     1081    2               WRITE_FPT.KEY_ = VECTOR(KEYVSF);

   1081  4 000073   000006 237000 5                  LDAQ    6
         4 000074   000002 757000 2                  STAQ    WRITE_FPT+2

      638     1082    2           END;

      639     1083    1       CALL M$WRITE(WRITE_FPT) ALTRET(WRT_ERR);

   1083  4 000075   000000 630400 2                  EPPR0   WRITE_FPT
         4 000076   440001 713400                    CLIMB   alt,write
         4 000077   401400 401760                    pmme    nvectors=4
         4 000100   000114 702000 4                  TSX2    WRT_ERR

      640     1084         /*    Put in defaults for next call */
      641     1085    1       WAITSF = %YES#;
PL6.E3A0      #013=SYS_FUNC_WRIT File=ZIC$IDSFUNCS.:ZIC0TSI                      FRI 09/05/97 11:41 Page:191

   1085  4 000101   400000 236003                    LDQ     -131072,DU
         4 000102   000000 756000 xsym               STQ     WAITSF

      642     1086    1       FULLSF = %NO#;

   1086  4 000103   000000 450000 xsym               STZ     FULLSF

      643     1087    1       NOTIMESF = %NO#;

   1087  4 000104   000000 450000 xsym               STZ     NOTIMESF

      644     1088    1       VFCSF = %YES#;

   1088  4 000105   000000 756000 xsym               STQ     VFCSF

      645     1089    1       ENCRP_SEEDSF = '0'B;

   1089  4 000106   000000 450000 xsym               STZ     ENCRP_SEEDSF

      646     1090    1       KEYSF = %NO#;

   1090  4 000107   000000 450000 xsym               STZ     KEYSF

      647     1091    1       KEYVSF.WD_ONE = ' ';

   1091  4 000110   040000 100400                    MLR     fill='040'O
         4 000111   000010 000001 5                  ADSC9   8                        cn=0,n=1
         4 000112   000000 200004 xsym               ADSC9   KEYVSF                   cn=1,n=4

      648     1092    1       RETURN;

   1092  4 000113   000000 702200 xent               TSX2  ! X66_ARET

      649     1093    1   WRT_ERR:
      650     1094    1       MONITOR_ERR = B$TCB$->B$TCB.ALT$->B$EXCFR.ERR;

PL6.E3A0      #013=SYS_FUNC_WRIT File=ZIC$IDSFUNCS.:ZIC0TSI                      FRI 09/05/97 11:41 Page:192
   1094  4 000114   000000 470400 xsym  WRT_ERR      LDP0    B$TCB$
         4 000115   000000 471500                    LDP1    0,,PR0
         4 000116   100102 236100                    LDQ     66,,PR1
         4 000117   000000 756000 xsym               STQ     MSGCODE

      651     1095    1       INCL_ERR = %YES#;

   1095  4 000120   400000 236003                    LDQ     -131072,DU
         4 000121   000000 756000 xsym               STQ     INCL_ERR

      652     1096    1       CALL SYS_FUNC_ERRMSG;

   1096  4 000122   000011 631400 5                  EPPR1   9
         4 000123   000000 701000 xent               TSX1    SYS_FUNC_ERRMSG
         4 000124   000000 011000                    NOP     0

      653     1097         /*    Put in defaults for next call */
      654     1098    1       WAITSF = %YES#;

   1098  4 000125   400000 236003                    LDQ     -131072,DU
         4 000126   000000 756000 xsym               STQ     WAITSF

      655     1099    1       FULLSF = %NO#;

   1099  4 000127   000000 450000 xsym               STZ     FULLSF

      656     1100    1       NOTIMESF = %NO#;

   1100  4 000130   000000 450000 xsym               STZ     NOTIMESF

      657     1101    1       VFCSF = %YES#;

   1101  4 000131   000000 756000 xsym               STQ     VFCSF

      658     1102    1       ENCRP_SEEDSF = '0'B;

   1102  4 000132   000000 450000 xsym               STZ     ENCRP_SEEDSF
PL6.E3A0      #013=SYS_FUNC_WRIT File=ZIC$IDSFUNCS.:ZIC0TSI                      FRI 09/05/97 11:41 Page:193

      659     1103    1       KEYSF = %NO#;

   1103  4 000133   000000 450000 xsym               STZ     KEYSF

      660     1104    1       KEYVSF.WD_ONE = ' ';

   1104  4 000134   040000 100400                    MLR     fill='040'O
         4 000135   000010 000001 5                  ADSC9   8                        cn=0,n=1
         4 000136   000000 200004 xsym               ADSC9   KEYVSF                   cn=1,n=4

      661     1105    1       ALTRETURN;

   1105  4 000137   000000 702200 xent               TSX2  ! X66_AALT

WRITE_FPT
 Sect OctLoc
   2     000   000003 777640   000010 006000   000000 177640   000000 006014    ................
   2     004   000000 177640   000000 006014   000000 177640   000000 006014    ................
   2     010   000000 400400   000000 000000   000000 000000   000000 000000    ................

(unnamed)
 Sect OctLoc
   3     000   040040 040040

(unnamed)
 Sect OctLoc
   5     000   000000 177640   000000 006014   777777 600000   000000 006003    ................
   5     004   000000 777640   000000 206000   000077 777640   000000 006000    .........?......
   5     010   040040 040040   000000 000000                                        ....
      662     1106    1   END SYS_FUNC_WRIT;
      663     1107        %EOD;

PL6.E3A0      #013=SYS_FUNC_WRIT File=ZIC$IDSFUNCS.:ZIC0TSI                      FRI 09/05/97 11:41 Page:194
--  Include file information  --

   CP_6_SUBS.:LIB_E05  is referenced.
   CP_6.:LIB_E05  cannot be made into a system file and is referenced.
   ZI_GLOBAL_DBUTIL.:ZIC0TOU  is referenced.
   B$JIT_C.:E05TOU  was found in the system file and is never referenced.
   CP_6_C.:E05TOU  was found in the system file and is referenced.
      No diagnostics issued in procedure SYS_FUNC_WRIT.

   Procedure SYS_FUNC_WRIT requires 96 words for executable code.
   Procedure SYS_FUNC_WRIT requires 4 words of local(AUTO) storage.
PL6.E3A0      #013=SYS_FUNC_WRIT File=ZIC$IDSFUNCS.:ZIC0TSI                      FRI 09/05/97 11:41 Page:195
          *** CROSS REFERENCE LISTING ***
**     DENOTES     IDENTIFIER DEFINITION
<<                 IDENTIFIER'S VALUE SET
>>                 IDENTIFIER'S VALUE USED
<>                 IDENTIFIER SET AND/OR USED
--                 IDENTIFIER REFERENCED
PL6.E3A0      #013=SYS_FUNC_WRIT File=ZIC$IDSFUNCS.:ZIC0TSI                      FRI 09/05/97 11:41 Page:196
          MINI XREF LISTING

B$EXCFR.ASL
      1013**DCL      1013--REDEF
B$EXCFR.ERR
      1027**DCL      1094>>ASSIGN
B$EXCFR.ERR.ERR#
      1027**DCL      1027--REDEF
B$EXCFR.EVID
      1026**DCL      1026--REDEF    1027--REDEF
B$EXCFR.IR
      1014**DCL      1014--REDEF
B$EXCFR.PREVSZ
      1013**DCL      1013--REDEF
B$EXCFR.SUBC
      1025**DCL      1025--REDEF    1026--REDEF    1026--REDEF
B$TCB.ALT$
       953**DCL      1094>>ASSIGN
B$TCB$
       315**DCL      1094>>ASSIGN
BUFLNSF
       216**DCL      1062>>IF       1065>>IF       1065<<ASSIGN   1065>>ASSIGN   1067>>ASSIGN
BUFSF
       217**DCL      1066>>ASSIGN
COUNTSF
       267**DCL       268--REDEF
DCBSF
       196**DCL      1061>>ASSIGN   1078--IF
ENCRP_SEEDSF
       225**DCL       226--REDEF    1073>>ASSIGN   1089<<ASSIGN   1102<<ASSIGN
ERRCODESF
       227**DCL       232--REDEF
F$DCB.ACTPOS
       988**DCL       988--REDEF
PL6.E3A0      #013=SYS_FUNC_WRIT File=ZIC$IDSFUNCS.:ZIC0TSI                      FRI 09/05/97 11:41 Page:197
F$DCB.ARS#
       962**DCL       962--REDEF
F$DCB.ATTR
       981**DCL       982--REDEF
F$DCB.BORROW
       996**DCL       996--REDEF     996--REDEF     996--REDEF
F$DCB.DCBNAME.L
      1010**DCL      1010--IMP-SIZ
F$DCB.EOMCHAR#
       966**DCL       966--REDEF
F$DCB.FLDID
       991**DCL       991--REDEF
F$DCB.FORM$
       985**DCL       985--REDEF
F$DCB.FSECT
      1001**DCL      1001--REDEF
F$DCB.FSN#
       978**DCL       978--REDEF     978--REDEF     979--REDEF
F$DCB.HEADER$
       984**DCL       984--REDEF
F$DCB.IXTNSIZE#
       982**DCL       982--REDEF
F$DCB.LASTSTA$
       971**DCL       971--REDEF
F$DCB.LVL
       997**DCL       997--REDEF
F$DCB.NAME#.C
       972**DCL       972--REDEF
F$DCB.NOEOF
       994**DCL       994--REDEF
F$DCB.NRECS#
       983**DCL       983--REDEF
F$DCB.NRECX
      1002**DCL      1002--REDEF
F$DCB.OHDR
       994**DCL       994--REDEF
PL6.E3A0      #013=SYS_FUNC_WRIT File=ZIC$IDSFUNCS.:ZIC0TSI                      FRI 09/05/97 11:41 Page:198
F$DCB.ORG#
       977**DCL       977--REDEF    1078>>IF
F$DCB.PRECNO
      1000**DCL      1000--REDEF
F$DCB.RCSZ
      1006**DCL      1006--REDEF
F$DCB.RES#
       973**DCL       973--REDEF
F$DCB.SETX
       985**DCL       985--REDEF
F$DCB.TAB$
       985**DCL       985--REDEF
F$DCB.TDA
       999**DCL      1000--REDEF
F$DCB.WSN#
       973**DCL       973--REDEF
FIDSF_RD
       243**DCL       244--REDEF
FULLSF
       214**DCL      1072>>ASSIGN   1086<<ASSIGN   1099<<ASSIGN
HELPCODE
       261**DCL       266--REDEF
ICHKSUM
       326**DCL       327--REDEF
INCL_ERR
       239**DCL      1095<<ASSIGN
I_O_BUF$
       304**DCL       305--IMP-PTR
KEYSF
       198**DCL      1090<<ASSIGN   1103<<ASSIGN
KEYVSF
       199**DCL       204--REDEF    1081--ASSIGN
KEYVSF.IDSKEY
       202**DCL      1079--ASSIGN
KEYVSF.WD_ONE
       201**DCL       202--REDEF    1074>>IF       1091<<ASSIGN   1104<<ASSIGN
PL6.E3A0      #013=SYS_FUNC_WRIT File=ZIC$IDSFUNCS.:ZIC0TSI                      FRI 09/05/97 11:41 Page:199
M$WRITE
       341**DCL-ENT  1083--CALL
MONITOR_ERR
       234**DCL      1094<<ASSIGN
MSGCODE
       233**DCL       234--REDEF
NOTIMESF
       206**DCL      1070>>ASSIGN   1087<<ASSIGN   1100<<ASSIGN
REC$
       285**DCL       308--IMP-PTR
REC_DATA_LN
       313**DCL       312--IMP-SIZ
SYS_FUNC_ERRMSG
         7**DCL-ENT  1096--CALL
VFCSF
       213**DCL      1071>>ASSIGN   1088<<ASSIGN   1101<<ASSIGN
WAITSF
       212**DCL      1069>>ASSIGN   1085<<ASSIGN   1098<<ASSIGN
WRITE_FPT
      1047**DCL      1083<>CALL
WRITE_FPT.BUF_
      1047**DCL      1063<<ASSIGN   1066<<ASSIGN
WRITE_FPT.BUF_.BOUND
      1047**DCL      1067<<ASSIGN
WRITE_FPT.KEY_
      1047**DCL      1075<<ASSIGN   1079<<ASSIGN   1081<<ASSIGN
WRITE_FPT.STATION_
      1049**DCL      1049--REDEF
WRITE_FPT.V
      1050**DCL      1047--DCLINIT
WRITE_FPT.V.DCB#
      1050**DCL      1061<<ASSIGN
WRITE_FPT.V.DVBYTE.VFC#
      1056**DCL      1056--REDEF    1071<<ASSIGN
WRITE_FPT.V.FULL#
      1052**DCL      1072<<ASSIGN
PL6.E3A0      #013=SYS_FUNC_WRIT File=ZIC$IDSFUNCS.:ZIC0TSI                      FRI 09/05/97 11:41 Page:200
WRITE_FPT.V.NOTIME#
      1053**DCL      1070<<ASSIGN
WRITE_FPT.V.SEED#
      1055**DCL      1073<<ASSIGN
WRITE_FPT.V.WAIT#
      1050**DCL      1069<<ASSIGN
WRT_ERR
      1094**LABEL    1083--CALLALT

PL6.E3A0      #014=SYS_FUNC_DATE File=ZIC$IDSFUNCS.:ZIC0TSI                      FRI 09/05/97 11:41 Page:201
      664        1        /*T***********************************************************/
      665        2        /*T*                                                         */
      666        3        /*T* Copyright (c) Bull HN Information Systems Inc., 1997    */
      667        4        /*T*                                                         */
      668        5        /*T***********************************************************/
      669        6        SYS_FUNC_DATE: PROC ALTRET;
      670        7    1   DCL SYS_FUNC_ERRMSG ENTRY ALTRET;
      671        8        %INCLUDE ZI_GLOBAL_DBUTIL;
      672      186         %SYS_FUNC;
      673      278         %MISC_DCLS;
      674      331        %INCLUDE CP_6;
      675      412        %INCLUDE CP_6_SUBS;
      676      952        %B$TCB;
      677      955        %B$EXCFR;
      678      973        %FPT_TIME(FPTN=TIME_FPT);
      679      992    1       TIME_FPT.V.SOURCE#=SOURCESF;
      680      993    1       TIME_FPT.V.DEST#=DESTSF;
      681      994    1       TIME_FPT.DATE_= DATESF;
      682      995    1       IF TIME_FPT.V.SOURCE# ~= %CLOCK# THEN
      683      996    1           TIME_FPT.TSTAMP_ = UTSSF;
      684      997    1       CALL M$TIME(TIME_FPT) ALTRET(TIME_ERR);
      685      998    1       RETURN;
      686      999    1   TIME_ERR:
      687     1000    1       MONITOR_ERR = B$TCB$->B$TCB.ALT$->B$EXCFR.ERR;
      688     1001    1       INCL_ERR = %YES#;
      689     1002    1       CALL SYS_FUNC_ERRMSG;
      690     1003    1       ALTRETURN;
      691     1004    1   END SYS_FUNC_DATE;
      692     1005        %EOD;

PL6.E3A0      #014=SYS_FUNC_DATE File=ZIC$IDSFUNCS.:ZIC0TSI                      FRI 09/05/97 11:41 Page:202
--  Include file information  --

   CP_6_SUBS.:LIB_E05  is referenced.
   CP_6.:LIB_E05  cannot be made into a system file and is referenced.
   ZI_GLOBAL_DBUTIL.:ZIC0TOU  is referenced.
   B$JIT_C.:E05TOU  was found in the system file and is never referenced.
   CP_6_C.:E05TOU  was found in the system file and is referenced.
      No diagnostics issued in procedure SYS_FUNC_DATE.

   Procedure SYS_FUNC_DATE requires 32 words for executable code.
   Procedure SYS_FUNC_DATE requires 4 words of local(AUTO) storage.

PL6.E3A0      #014=SYS_FUNC_DATE File=ZIC$IDSFUNCS.:ZIC0TSI                      FRI 09/05/97 11:41 Page:203

 Object Unit name= SYS_FUNC_DATE                              File name= ZIC$IDSFUNCS.:ZIC0TOU
 UTS= SEP 05 '97 11:41:23.88 FRI                              Compiler= PL-6/E31         Sev=      00
 SharedLib= :SHARED_SYSTEM                                    Alt SharedLib=


    ****  Control sections  ****

 Sect   Type Bound  Init  Size OctSiz  Section name(segment info)
    0   DCB   even  none     0      0  M$LO
    1   DCB   even  none     0      0  M$UC
    2   Data  even  none    12     14  SYS_FUNC_DATE
    3   Proc  even  none    32     40  SYS_FUNC_DATE
    4  RoData even  none     1      1  SYS_FUNC_DATE

    ****  Entry defs  ****

                              Check   Calling
                             calling  sequence
  Sect OctLoc Primary Altret sequence   type   Parms  Name
     3      0   yes    yes     yes      Std        0  SYS_FUNC_DATE

  ****  Entry refs  ****

         Check        Calling
        calling       sequence
Altret sequence SRef   type   Args  Name
 yes     yes           Std       0 SYS_FUNC_ERRMSG
                       nStd      0 X66_AUTO_0
                       nStd      0 X66_ARET
                       nStd      0 X66_AALT
PL6.E3A0      #014=SYS_FUNC_DATE File=ZIC$IDSFUNCS.:ZIC0TSI                      FRI 09/05/97 11:41 Page:204

  ****  Data refs  ****

  Flags:  r = read only, s = secondary
Flgs Name                             Flgs Name                             Flgs Name
     BLKLSF                                KEYLSF                                KEYXSF
     DCBSF                                 ORGSF                                 KEYSF
     KEYVSF                                ACSSF                                 NOTIMESF
     FUNSF                                 ASNSF                                 TESTSF
     XTENSIZESF                            DISPSF                                WAITSF
     VFCSF                                 FULLSF                                BKUPSF
     BUFLNSF                               BUFSF                                 SOURCESF
     DESTSF                                DATESF                                TIMESF
     UTSSF                                 DAYSF                                 TSTAMPSF
     ENCRP_SEEDSF                          ERRCODESF                             MSGCODE
     INCL_ERR                              ERR_INSERT                            FIDSF_RD
     ACNT                                  EXISTSF                               SHARESF
     DCBNMSF                               KEYRSF                                NO_KEYSF
     REASGNSF                              CARRY_ATTRIBUTESF                     SUBMESSF
     SPKY_OPNSF                            POSSF                                 ERRFLGSF
     MERGESF                               FSA_FLAG                              RELGSF
     UNUSED                                HELPCODE                              COUNTSF
     INDEXSF                               GAP                                   PSNSF
     ACNTSF                                KEY_SHADWSF                           REC$
     RB                                    RE                                    IE
     IB                                    CNT                                   ICNT
     RCNT                                  SCNT                                  FIRST_SET
     RETCNT                                DMPCNT                                KCNT
     ACNT_IDX                              I                                     J
     K                                     X                                     STEPCC
     I_O_BUF$                              OUT_INDX                              I_O_SIZE
     REC_DATA_LN                           M$LO                                  B$TCB$
     B$ROS$                                B$JIT$                                KEYFID
     I_O_KEY                               RESTART                               BREAK_FLAG
     ICHKSUM                               ITMCNT                                GAP1
     M$UC
PL6.E3A0      #014=SYS_FUNC_DATE File=ZIC$IDSFUNCS.:ZIC0TSI                      FRI 09/05/97 11:41 Page:205

  ****  Segment refs  ****

  Flags:  r = read only, s = secondary
Flgs Name                             Flgs Name                             Flgs Name
     ISSID                                 NULLSID
PL6.E3A0      #014=SYS_FUNC_DATE File=ZIC$IDSFUNCS.:ZIC0TSI                      FRI 09/05/97 11:41 Page:206


      664        1        /*T***********************************************************/
      665        2        /*T*                                                         */
      666        3        /*T* Copyright (c) Bull HN Information Systems Inc., 1997    */
      667        4        /*T*                                                         */
      668        5        /*T***********************************************************/
      669        6        SYS_FUNC_DATE: PROC ALTRET;

      6  3 000000   000000 700200 xent  SYS_FUNC_DA* TSX0  ! X66_AUTO_0
         3 000001   000004 000000                    ZERO    4,0

      670        7    1   DCL SYS_FUNC_ERRMSG ENTRY ALTRET;
      671        8        %INCLUDE ZI_GLOBAL_DBUTIL;
      672      186         %SYS_FUNC;
      673      278         %MISC_DCLS;
      674      331        %INCLUDE CP_6;
      675      412        %INCLUDE CP_6_SUBS;
      676      952        %B$TCB;
      677      955        %B$EXCFR;
      678      973        %FPT_TIME(FPTN=TIME_FPT);
      679      992    1       TIME_FPT.V.SOURCE#=SOURCESF;

    992  3 000002   000000 236000 xsym               LDQ     SOURCESF
         3 000003   000033 736000                    QLS     27
         3 000004   000012 552040 2                  STBQ    TIME_FPT+10,'40'O

      680      993    1       TIME_FPT.V.DEST#=DESTSF;

    993  3 000005   000000 236000 xsym               LDQ     DESTSF
         3 000006   000022 736000                    QLS     18
         3 000007   000012 552020 2                  STBQ    TIME_FPT+10,'20'O

      681      994    1       TIME_FPT.DATE_= DATESF;

    994  3 000010   000000 100400                    MLR     fill='000'O
         3 000011   000000 000010 xsym               ADSC9   DATESF                   cn=0,n=8
         3 000012   000002 000010 2                  ADSC9   TIME_FPT+2               cn=0,n=8
PL6.E3A0      #014=SYS_FUNC_DATE File=ZIC$IDSFUNCS.:ZIC0TSI                      FRI 09/05/97 11:41 Page:207

      682      995    1       IF TIME_FPT.V.SOURCE# ~= %CLOCK# THEN

    995  3 000013   000012 236000 2                  LDQ     TIME_FPT+10
         3 000014   777000 316003                    CANQ    -512,DU
         3 000015   000021 600000 3                  TZE     s:997

      683      996    1           TIME_FPT.TSTAMP_ = UTSSF;

    996  3 000016   000000 100400                    MLR     fill='000'O
         3 000017   000000 000010 xsym               ADSC9   UTSSF                    cn=0,n=8
         3 000020   000010 000010 2                  ADSC9   TIME_FPT+8               cn=0,n=8

      684      997    1       CALL M$TIME(TIME_FPT) ALTRET(TIME_ERR);

    997  3 000021   000000 630400 2                  EPPR0   TIME_FPT
         3 000022   420004 713400                    CLIMB   alt,+8196
         3 000023   402000 401760                    pmme    nvectors=5
         3 000024   000026 702000 3                  TSX2    TIME_ERR

      685      998    1       RETURN;

    998  3 000025   000000 702200 xent               TSX2  ! X66_ARET

      686      999    1   TIME_ERR:
      687     1000    1       MONITOR_ERR = B$TCB$->B$TCB.ALT$->B$EXCFR.ERR;

   1000  3 000026   000000 470400 xsym  TIME_ERR     LDP0    B$TCB$
         3 000027   000000 471500                    LDP1    0,,PR0
         3 000030   100102 236100                    LDQ     66,,PR1
         3 000031   000000 756000 xsym               STQ     MSGCODE

      688     1001    1       INCL_ERR = %YES#;

   1001  3 000032   400000 236003                    LDQ     -131072,DU
         3 000033   000000 756000 xsym               STQ     INCL_ERR

PL6.E3A0      #014=SYS_FUNC_DATE File=ZIC$IDSFUNCS.:ZIC0TSI                      FRI 09/05/97 11:41 Page:208
      689     1002    1       CALL SYS_FUNC_ERRMSG;

   1002  3 000034   000000 631400 4                  EPPR1   0
         3 000035   000000 701000 xent               TSX1    SYS_FUNC_ERRMSG
         3 000036   000000 011000                    NOP     0

      690     1003    1       ALTRETURN;

   1003  3 000037   000000 702200 xent               TSX2  ! X66_AALT

TIME_FPT
 Sect OctLoc
   2     000   000001 777640   000012 006000   000000 177640   000000 006014    ................
   2     004   000000 177640   000000 006014   000000 177640   000000 006014    ................
   2     010   000000 177640   000000 006014   000001 000000   ****** ******    ................

(unnamed)
 Sect OctLoc
   4     000   000000 000000                                                    ....
      691     1004    1   END SYS_FUNC_DATE;
      692     1005        %EOD;

PL6.E3A0      #014=SYS_FUNC_DATE File=ZIC$IDSFUNCS.:ZIC0TSI                      FRI 09/05/97 11:41 Page:209
--  Include file information  --

   CP_6_SUBS.:LIB_E05  is referenced.
   CP_6.:LIB_E05  cannot be made into a system file and is referenced.
   ZI_GLOBAL_DBUTIL.:ZIC0TOU  is referenced.
   B$JIT_C.:E05TOU  was found in the system file and is never referenced.
   CP_6_C.:E05TOU  was found in the system file and is referenced.
      No diagnostics issued in procedure SYS_FUNC_DATE.

   Procedure SYS_FUNC_DATE requires 32 words for executable code.
   Procedure SYS_FUNC_DATE requires 4 words of local(AUTO) storage.
PL6.E3A0      #014=SYS_FUNC_DATE File=ZIC$IDSFUNCS.:ZIC0TSI                      FRI 09/05/97 11:41 Page:210
          *** CROSS REFERENCE LISTING ***
**     DENOTES     IDENTIFIER DEFINITION
<<                 IDENTIFIER'S VALUE SET
>>                 IDENTIFIER'S VALUE USED
<>                 IDENTIFIER SET AND/OR USED
--                 IDENTIFIER REFERENCED
PL6.E3A0      #014=SYS_FUNC_DATE File=ZIC$IDSFUNCS.:ZIC0TSI                      FRI 09/05/97 11:41 Page:211
          MINI XREF LISTING

B$EXCFR.ASL
       956**DCL       956--REDEF
B$EXCFR.ERR
       970**DCL      1000>>ASSIGN
B$EXCFR.ERR.ERR#
       970**DCL       970--REDEF
B$EXCFR.EVID
       969**DCL       969--REDEF     970--REDEF
B$EXCFR.IR
       957**DCL       957--REDEF
B$EXCFR.PREVSZ
       956**DCL       956--REDEF
B$EXCFR.SUBC
       968**DCL       968--REDEF     969--REDEF     969--REDEF
B$TCB.ALT$
       953**DCL      1000>>ASSIGN
B$TCB$
       315**DCL      1000>>ASSIGN
COUNTSF
       267**DCL       268--REDEF
DATESF
       220**DCL       994>>ASSIGN
DESTSF
       219**DCL       993>>ASSIGN
ENCRP_SEEDSF
       225**DCL       226--REDEF
ERRCODESF
       227**DCL       232--REDEF
FIDSF_RD
       243**DCL       244--REDEF
HELPCODE
       261**DCL       266--REDEF
PL6.E3A0      #014=SYS_FUNC_DATE File=ZIC$IDSFUNCS.:ZIC0TSI                      FRI 09/05/97 11:41 Page:212
ICHKSUM
       326**DCL       327--REDEF
INCL_ERR
       239**DCL      1001<<ASSIGN
I_O_BUF$
       304**DCL       305--IMP-PTR
KEYVSF
       199**DCL       204--REDEF
KEYVSF.WD_ONE
       201**DCL       202--REDEF
M$TIME
       407**DCL-ENT   997--CALL
MONITOR_ERR
       234**DCL      1000<<ASSIGN
MSGCODE
       233**DCL       234--REDEF
REC$
       285**DCL       308--IMP-PTR
REC_DATA_LN
       313**DCL       312--IMP-SIZ
SOURCESF
       218**DCL       992>>ASSIGN
SYS_FUNC_ERRMSG
         7**DCL-ENT  1002--CALL
TIME_ERR
      1000**LABEL     997--CALLALT
TIME_FPT
       984**DCL       997<>CALL
TIME_FPT.DATE_
       984**DCL       994<<ASSIGN
TIME_FPT.TSTAMP_
       987**DCL       996<<ASSIGN
TIME_FPT.V
       988**DCL       984--DCLINIT
TIME_FPT.V.DEST#
       988**DCL       993<<ASSIGN
PL6.E3A0      #014=SYS_FUNC_DATE File=ZIC$IDSFUNCS.:ZIC0TSI                      FRI 09/05/97 11:41 Page:213
TIME_FPT.V.SOURCE#
       988**DCL       992<<ASSIGN    995>>IF
UTSSF
       222**DCL       996>>ASSIGN

PL6.E3A0      #015=SYS_FUNC_TSTAMP File=ZIC$IDSFUNCS.:ZIC0TSI                    FRI 09/05/97 11:41 Page:214
      693        1        /*T***********************************************************/
      694        2        /*T*                                                         */
      695        3        /*T* Copyright (c) Bull HN Information Systems Inc., 1997    */
      696        4        /*T*                                                         */
      697        5        /*T***********************************************************/
      698        6        SYS_FUNC_TSTAMP: PROC ALTRET;
      699        7    1   DCL SYS_FUNC_ERRMSG ENTRY ALTRET;
      700        8        %INCLUDE ZI_GLOBAL_DBUTIL;
      701      186         %SYS_FUNC;
      702      278         %MISC_DCLS;
      703      331        %INCLUDE CP_6;
      704      412        %INCLUDE CP_6_SUBS;
      705      952        %B$TCB;
      706      955        %B$EXCFR;
      707      973        %FPT_TIME(FPTN=TIME_FPT);
      708      992    1       TIME_FPT.V.SOURCE#=SOURCESF;
      709      993    1       TIME_FPT.V.DEST#=DESTSF;
      710      994    1       TIME_FPT.TSTAMP_=TSTAMPSF;
      711      995    1       IF DATESF ~='0'B THEN
      712      996    1           TIME_FPT.DATE_=DATESF;
      713      997    1       IF TIMESF ~='0'B THEN
      714      998    1           TIME_FPT.TIME_=TIMESF;
      715      999    1       CALL M$TIME(TIME_FPT) ALTRET(TIME_ERR);
      716     1000    1       RETURN;
      717     1001    1   TIME_ERR:
      718     1002    1       MONITOR_ERR = B$TCB$->B$TCB.ALT$->B$EXCFR.ERR;
      719     1003    1       INCL_ERR = %YES#;
      720     1004    1       CALL SYS_FUNC_ERRMSG;
      721     1005    1       ALTRETURN;
      722     1006    1   END SYS_FUNC_TSTAMP;
      723     1007        %EOD;

PL6.E3A0      #015=SYS_FUNC_TSTAMP File=ZIC$IDSFUNCS.:ZIC0TSI                    FRI 09/05/97 11:41 Page:215
--  Include file information  --

   CP_6_SUBS.:LIB_E05  is referenced.
   CP_6.:LIB_E05  cannot be made into a system file and is referenced.
   ZI_GLOBAL_DBUTIL.:ZIC0TOU  is referenced.
   B$JIT_C.:E05TOU  was found in the system file and is never referenced.
   CP_6_C.:E05TOU  was found in the system file and is referenced.
      No diagnostics issued in procedure SYS_FUNC_TSTAMP.

   Procedure SYS_FUNC_TSTAMP requires 40 words for executable code.
   Procedure SYS_FUNC_TSTAMP requires 4 words of local(AUTO) storage.

PL6.E3A0      #015=SYS_FUNC_TSTAMP File=ZIC$IDSFUNCS.:ZIC0TSI                    FRI 09/05/97 11:41 Page:216

 Object Unit name= SYS_FUNC_TSTAMP                            File name= ZIC$IDSFUNCS.:ZIC0TOU
 UTS= SEP 05 '97 11:41:35.20 FRI                              Compiler= PL-6/E31         Sev=      00
 SharedLib= :SHARED_SYSTEM                                    Alt SharedLib=


    ****  Control sections  ****

 Sect   Type Bound  Init  Size OctSiz  Section name(segment info)
    0   DCB   even  none     0      0  M$LO
    1   DCB   even  none     0      0  M$UC
    2   Data  even  none    12     14  SYS_FUNC_TSTAMP
    3   Proc  even  none    40     50  SYS_FUNC_TSTAMP
    4  RoData even  none     1      1  SYS_FUNC_TSTAMP

    ****  Entry defs  ****

                              Check   Calling
                             calling  sequence
  Sect OctLoc Primary Altret sequence   type   Parms  Name
     3      0   yes    yes     yes      Std        0  SYS_FUNC_TSTAMP

  ****  Entry refs  ****

         Check        Calling
        calling       sequence
Altret sequence SRef   type   Args  Name
 yes     yes           Std       0 SYS_FUNC_ERRMSG
                       nStd      0 X66_AUTO_0
                       nStd      0 X66_ARET
                       nStd      0 X66_AALT
PL6.E3A0      #015=SYS_FUNC_TSTAMP File=ZIC$IDSFUNCS.:ZIC0TSI                    FRI 09/05/97 11:41 Page:217

  ****  Data refs  ****

  Flags:  r = read only, s = secondary
Flgs Name                             Flgs Name                             Flgs Name
     BLKLSF                                KEYLSF                                KEYXSF
     DCBSF                                 ORGSF                                 KEYSF
     KEYVSF                                ACSSF                                 NOTIMESF
     FUNSF                                 ASNSF                                 TESTSF
     XTENSIZESF                            DISPSF                                WAITSF
     VFCSF                                 FULLSF                                BKUPSF
     BUFLNSF                               BUFSF                                 SOURCESF
     DESTSF                                DATESF                                TIMESF
     UTSSF                                 DAYSF                                 TSTAMPSF
     ENCRP_SEEDSF                          ERRCODESF                             MSGCODE
     INCL_ERR                              ERR_INSERT                            FIDSF_RD
     ACNT                                  EXISTSF                               SHARESF
     DCBNMSF                               KEYRSF                                NO_KEYSF
     REASGNSF                              CARRY_ATTRIBUTESF                     SUBMESSF
     SPKY_OPNSF                            POSSF                                 ERRFLGSF
     MERGESF                               FSA_FLAG                              RELGSF
     UNUSED                                HELPCODE                              COUNTSF
     INDEXSF                               GAP                                   PSNSF
     ACNTSF                                KEY_SHADWSF                           REC$
     RB                                    RE                                    IE
     IB                                    CNT                                   ICNT
     RCNT                                  SCNT                                  FIRST_SET
     RETCNT                                DMPCNT                                KCNT
     ACNT_IDX                              I                                     J
     K                                     X                                     STEPCC
     I_O_BUF$                              OUT_INDX                              I_O_SIZE
     REC_DATA_LN                           M$LO                                  B$TCB$
     B$ROS$                                B$JIT$                                KEYFID
     I_O_KEY                               RESTART                               BREAK_FLAG
     ICHKSUM                               ITMCNT                                GAP1
     M$UC
PL6.E3A0      #015=SYS_FUNC_TSTAMP File=ZIC$IDSFUNCS.:ZIC0TSI                    FRI 09/05/97 11:41 Page:218

  ****  Segment refs  ****

  Flags:  r = read only, s = secondary
Flgs Name                             Flgs Name                             Flgs Name
     ISSID                                 NULLSID
PL6.E3A0      #015=SYS_FUNC_TSTAMP File=ZIC$IDSFUNCS.:ZIC0TSI                    FRI 09/05/97 11:41 Page:219


      693        1        /*T***********************************************************/
      694        2        /*T*                                                         */
      695        3        /*T* Copyright (c) Bull HN Information Systems Inc., 1997    */
      696        4        /*T*                                                         */
      697        5        /*T***********************************************************/
      698        6        SYS_FUNC_TSTAMP: PROC ALTRET;

      6  3 000000   000000 700200 xent  SYS_FUNC_TS* TSX0  ! X66_AUTO_0
         3 000001   000004 000000                    ZERO    4,0

      699        7    1   DCL SYS_FUNC_ERRMSG ENTRY ALTRET;
      700        8        %INCLUDE ZI_GLOBAL_DBUTIL;
      701      186         %SYS_FUNC;
      702      278         %MISC_DCLS;
      703      331        %INCLUDE CP_6;
      704      412        %INCLUDE CP_6_SUBS;
      705      952        %B$TCB;
      706      955        %B$EXCFR;
      707      973        %FPT_TIME(FPTN=TIME_FPT);
      708      992    1       TIME_FPT.V.SOURCE#=SOURCESF;

    992  3 000002   000000 236000 xsym               LDQ     SOURCESF
         3 000003   000033 736000                    QLS     27
         3 000004   000012 552040 2                  STBQ    TIME_FPT+10,'40'O

      709      993    1       TIME_FPT.V.DEST#=DESTSF;

    993  3 000005   000000 236000 xsym               LDQ     DESTSF
         3 000006   000022 736000                    QLS     18
         3 000007   000012 552020 2                  STBQ    TIME_FPT+10,'20'O

      710      994    1       TIME_FPT.TSTAMP_=TSTAMPSF;

    994  3 000010   000000 100400                    MLR     fill='000'O
         3 000011   000000 000010 xsym               ADSC9   TSTAMPSF                 cn=0,n=8
         3 000012   000010 000010 2                  ADSC9   TIME_FPT+8               cn=0,n=8
PL6.E3A0      #015=SYS_FUNC_TSTAMP File=ZIC$IDSFUNCS.:ZIC0TSI                    FRI 09/05/97 11:41 Page:220

      711      995    1       IF DATESF ~='0'B THEN

    995  3 000013   000000 106400                    CMPC    fill='000'O
         3 000014   000000 000010 xsym               ADSC9   DATESF                   cn=0,n=8
         3 000015   000000 000002 4                  ADSC9   0                        cn=0,n=2
         3 000016   000022 600000 3                  TZE     s:997

      712      996    1           TIME_FPT.DATE_=DATESF;

    996  3 000017   000000 100400                    MLR     fill='000'O
         3 000020   000000 000010 xsym               ADSC9   DATESF                   cn=0,n=8
         3 000021   000002 000010 2                  ADSC9   TIME_FPT+2               cn=0,n=8

      713      997    1       IF TIMESF ~='0'B THEN

    997  3 000022   000000 106400                    CMPC    fill='000'O
         3 000023   000000 000010 xsym               ADSC9   TIMESF                   cn=0,n=8
         3 000024   000000 000002 4                  ADSC9   0                        cn=0,n=2
         3 000025   000031 600000 3                  TZE     s:999

      714      998    1           TIME_FPT.TIME_=TIMESF;

    998  3 000026   000000 100400                    MLR     fill='000'O
         3 000027   000000 000010 xsym               ADSC9   TIMESF                   cn=0,n=8
         3 000030   000004 000010 2                  ADSC9   TIME_FPT+4               cn=0,n=8

      715      999    1       CALL M$TIME(TIME_FPT) ALTRET(TIME_ERR);

    999  3 000031   000000 630400 2                  EPPR0   TIME_FPT
         3 000032   420004 713400                    CLIMB   alt,+8196
         3 000033   402000 401760                    pmme    nvectors=5
         3 000034   000036 702000 3                  TSX2    TIME_ERR

      716     1000    1       RETURN;

   1000  3 000035   000000 702200 xent               TSX2  ! X66_ARET
PL6.E3A0      #015=SYS_FUNC_TSTAMP File=ZIC$IDSFUNCS.:ZIC0TSI                    FRI 09/05/97 11:41 Page:221

      717     1001    1   TIME_ERR:
      718     1002    1       MONITOR_ERR = B$TCB$->B$TCB.ALT$->B$EXCFR.ERR;

   1002  3 000036   000000 470400 xsym  TIME_ERR     LDP0    B$TCB$
         3 000037   000000 471500                    LDP1    0,,PR0
         3 000040   100102 236100                    LDQ     66,,PR1
         3 000041   000000 756000 xsym               STQ     MSGCODE

      719     1003    1       INCL_ERR = %YES#;

   1003  3 000042   400000 236003                    LDQ     -131072,DU
         3 000043   000000 756000 xsym               STQ     INCL_ERR

      720     1004    1       CALL SYS_FUNC_ERRMSG;

   1004  3 000044   000000 631400 4                  EPPR1   0
         3 000045   000000 701000 xent               TSX1    SYS_FUNC_ERRMSG
         3 000046   000000 011000                    NOP     0

      721     1005    1       ALTRETURN;

   1005  3 000047   000000 702200 xent               TSX2  ! X66_AALT

TIME_FPT
 Sect OctLoc
   2     000   000001 777640   000012 006000   000000 177640   000000 006014    ................
   2     004   000000 177640   000000 006014   000000 177640   000000 006014    ................
   2     010   000000 177640   000000 006014   000001 000000   ****** ******    ................

(unnamed)
 Sect OctLoc
   4     000   000000 000000                                                    ....
      722     1006    1   END SYS_FUNC_TSTAMP;
      723     1007        %EOD;

PL6.E3A0      #015=SYS_FUNC_TSTAMP File=ZIC$IDSFUNCS.:ZIC0TSI                    FRI 09/05/97 11:41 Page:222
--  Include file information  --

   CP_6_SUBS.:LIB_E05  is referenced.
   CP_6.:LIB_E05  cannot be made into a system file and is referenced.
   ZI_GLOBAL_DBUTIL.:ZIC0TOU  is referenced.
   B$JIT_C.:E05TOU  was found in the system file and is never referenced.
   CP_6_C.:E05TOU  was found in the system file and is referenced.
      No diagnostics issued in procedure SYS_FUNC_TSTAMP.

   Procedure SYS_FUNC_TSTAMP requires 40 words for executable code.
   Procedure SYS_FUNC_TSTAMP requires 4 words of local(AUTO) storage.
PL6.E3A0      #015=SYS_FUNC_TSTAMP File=ZIC$IDSFUNCS.:ZIC0TSI                    FRI 09/05/97 11:41 Page:223
          *** CROSS REFERENCE LISTING ***
**     DENOTES     IDENTIFIER DEFINITION
<<                 IDENTIFIER'S VALUE SET
>>                 IDENTIFIER'S VALUE USED
<>                 IDENTIFIER SET AND/OR USED
--                 IDENTIFIER REFERENCED
PL6.E3A0      #015=SYS_FUNC_TSTAMP File=ZIC$IDSFUNCS.:ZIC0TSI                    FRI 09/05/97 11:41 Page:224
          MINI XREF LISTING

B$EXCFR.ASL
       956**DCL       956--REDEF
B$EXCFR.ERR
       970**DCL      1002>>ASSIGN
B$EXCFR.ERR.ERR#
       970**DCL       970--REDEF
B$EXCFR.EVID
       969**DCL       969--REDEF     970--REDEF
B$EXCFR.IR
       957**DCL       957--REDEF
B$EXCFR.PREVSZ
       956**DCL       956--REDEF
B$EXCFR.SUBC
       968**DCL       968--REDEF     969--REDEF     969--REDEF
B$TCB.ALT$
       953**DCL      1002>>ASSIGN
B$TCB$
       315**DCL      1002>>ASSIGN
COUNTSF
       267**DCL       268--REDEF
DATESF
       220**DCL       995>>IF        996>>ASSIGN
DESTSF
       219**DCL       993>>ASSIGN
ENCRP_SEEDSF
       225**DCL       226--REDEF
ERRCODESF
       227**DCL       232--REDEF
FIDSF_RD
       243**DCL       244--REDEF
HELPCODE
       261**DCL       266--REDEF
PL6.E3A0      #015=SYS_FUNC_TSTAMP File=ZIC$IDSFUNCS.:ZIC0TSI                    FRI 09/05/97 11:41 Page:225
ICHKSUM
       326**DCL       327--REDEF
INCL_ERR
       239**DCL      1003<<ASSIGN
I_O_BUF$
       304**DCL       305--IMP-PTR
KEYVSF
       199**DCL       204--REDEF
KEYVSF.WD_ONE
       201**DCL       202--REDEF
M$TIME
       407**DCL-ENT   999--CALL
MONITOR_ERR
       234**DCL      1002<<ASSIGN
MSGCODE
       233**DCL       234--REDEF
REC$
       285**DCL       308--IMP-PTR
REC_DATA_LN
       313**DCL       312--IMP-SIZ
SOURCESF
       218**DCL       992>>ASSIGN
SYS_FUNC_ERRMSG
         7**DCL-ENT  1004--CALL
TIMESF
       221**DCL       997>>IF        998>>ASSIGN
TIME_ERR
      1002**LABEL     999--CALLALT
TIME_FPT
       984**DCL       999<>CALL
TIME_FPT.DATE_
       984**DCL       996<<ASSIGN
TIME_FPT.TIME_
       986**DCL       998<<ASSIGN
TIME_FPT.TSTAMP_
       987**DCL       994<<ASSIGN
PL6.E3A0      #015=SYS_FUNC_TSTAMP File=ZIC$IDSFUNCS.:ZIC0TSI                    FRI 09/05/97 11:41 Page:226
TIME_FPT.V
       988**DCL       984--DCLINIT
TIME_FPT.V.DEST#
       988**DCL       993<<ASSIGN
TIME_FPT.V.SOURCE#
       988**DCL       992<<ASSIGN
TSTAMPSF
       224**DCL       994>>ASSIGN

PL6.E3A0      #016=SYS_FUNC_GETDCB File=ZIC$IDSFUNCS.:ZIC0TSI                    FRI 09/05/97 11:41 Page:227
      724        1        /*T***********************************************************/
      725        2        /*T*                                                         */
      726        3        /*T* Copyright (c) Bull HN Information Systems Inc., 1997    */
      727        4        /*T*                                                         */
      728        5        /*T***********************************************************/
      729        6        SYS_FUNC_GETDCB: PROC ALTRET;
      730        7    1   DCL SYS_FUNC_ERRMSG ENTRY ALTRET;
      731        8        %INCLUDE ZI_GLOBAL_DBUTIL;
      732      186         %SYS_FUNC;
      733      278         %MISC_DCLS;
      734      331        %INCLUDE CP_6;
      735      412        %INCLUDE CP_6_SUBS;
      736      952        %B$TCB;
      737      955        %B$EXCFR;
      738      973        %FPT_GETDCB (FPTN=GETDCB_FPT);
      739      988    1       GETDCB_FPT.DCBNAME_=DCBNMSF;
      740      989    1       GETDCB_FPT.V.MERGE#=MERGESF;
      741      990    1       CALL M$GETDCB(GETDCB_FPT) ALTRET(GETDCB_ERR);
      742      991    1       DCBSF=GETDCB_FPT.V.DCB#;
      743      992    1       MERGESF = %NO#;
      744      993    1       RETURN;
      745      994    1   GETDCB_ERR:
      746      995    1       MERGESF = %NO#;
      747      996    1       MONITOR_ERR = B$TCB$->B$TCB.ALT$->B$EXCFR.ERR;
      748      997    1       INCL_ERR = %YES#;
      749      998    1       CALL SYS_FUNC_ERRMSG;
      750      999    1       ALTRETURN;
      751     1000    1   END SYS_FUNC_GETDCB;
      752     1001        %EOD;

PL6.E3A0      #016=SYS_FUNC_GETDCB File=ZIC$IDSFUNCS.:ZIC0TSI                    FRI 09/05/97 11:41 Page:228
--  Include file information  --

   CP_6_SUBS.:LIB_E05  is referenced.
   CP_6.:LIB_E05  cannot be made into a system file and is referenced.
   ZI_GLOBAL_DBUTIL.:ZIC0TOU  is referenced.
   B$JIT_C.:E05TOU  was found in the system file and is never referenced.
   CP_6_C.:E05TOU  was found in the system file and is referenced.
      No diagnostics issued in procedure SYS_FUNC_GETDCB.

   Procedure SYS_FUNC_GETDCB requires 29 words for executable code.
   Procedure SYS_FUNC_GETDCB requires 4 words of local(AUTO) storage.

PL6.E3A0      #016=SYS_FUNC_GETDCB File=ZIC$IDSFUNCS.:ZIC0TSI                    FRI 09/05/97 11:41 Page:229

 Object Unit name= SYS_FUNC_GETDCB                            File name= ZIC$IDSFUNCS.:ZIC0TOU
 UTS= SEP 05 '97 11:41:47.12 FRI                              Compiler= PL-6/E31         Sev=      00
 SharedLib= :SHARED_SYSTEM                                    Alt SharedLib=


    ****  Control sections  ****

 Sect   Type Bound  Init  Size OctSiz  Section name(segment info)
    0   DCB   even  none     0      0  M$LO
    1   DCB   even  none     0      0  M$UC
    2   Data  even  none     8     10  SYS_FUNC_GETDCB
    3   Proc  even  none    29     35  SYS_FUNC_GETDCB
    4  RoData even  none     1      1  SYS_FUNC_GETDCB

    ****  Entry defs  ****

                              Check   Calling
                             calling  sequence
  Sect OctLoc Primary Altret sequence   type   Parms  Name
     3      0   yes    yes     yes      Std        0  SYS_FUNC_GETDCB

  ****  Entry refs  ****

         Check        Calling
        calling       sequence
Altret sequence SRef   type   Args  Name
 yes     yes           Std       0 SYS_FUNC_ERRMSG
                       nStd      0 X66_AUTO_0
                       nStd      0 X66_ARET
                       nStd      0 X66_AALT
PL6.E3A0      #016=SYS_FUNC_GETDCB File=ZIC$IDSFUNCS.:ZIC0TSI                    FRI 09/05/97 11:41 Page:230

  ****  Data refs  ****

  Flags:  r = read only, s = secondary
Flgs Name                             Flgs Name                             Flgs Name
     BLKLSF                                KEYLSF                                KEYXSF
     DCBSF                                 ORGSF                                 KEYSF
     KEYVSF                                ACSSF                                 NOTIMESF
     FUNSF                                 ASNSF                                 TESTSF
     XTENSIZESF                            DISPSF                                WAITSF
     VFCSF                                 FULLSF                                BKUPSF
     BUFLNSF                               BUFSF                                 SOURCESF
     DESTSF                                DATESF                                TIMESF
     UTSSF                                 DAYSF                                 TSTAMPSF
     ENCRP_SEEDSF                          ERRCODESF                             MSGCODE
     INCL_ERR                              ERR_INSERT                            FIDSF_RD
     ACNT                                  EXISTSF                               SHARESF
     DCBNMSF                               KEYRSF                                NO_KEYSF
     REASGNSF                              CARRY_ATTRIBUTESF                     SUBMESSF
     SPKY_OPNSF                            POSSF                                 ERRFLGSF
     MERGESF                               FSA_FLAG                              RELGSF
     UNUSED                                HELPCODE                              COUNTSF
     INDEXSF                               GAP                                   PSNSF
     ACNTSF                                KEY_SHADWSF                           REC$
     RB                                    RE                                    IE
     IB                                    CNT                                   ICNT
     RCNT                                  SCNT                                  FIRST_SET
     RETCNT                                DMPCNT                                KCNT
     ACNT_IDX                              I                                     J
     K                                     X                                     STEPCC
     I_O_BUF$                              OUT_INDX                              I_O_SIZE
     REC_DATA_LN                           M$LO                                  B$TCB$
     B$ROS$                                B$JIT$                                KEYFID
     I_O_KEY                               RESTART                               BREAK_FLAG
     ICHKSUM                               ITMCNT                                GAP1
     M$UC
PL6.E3A0      #016=SYS_FUNC_GETDCB File=ZIC$IDSFUNCS.:ZIC0TSI                    FRI 09/05/97 11:41 Page:231

  ****  Segment refs  ****

  Flags:  r = read only, s = secondary
Flgs Name                             Flgs Name                             Flgs Name
     ISSID                                 NULLSID
PL6.E3A0      #016=SYS_FUNC_GETDCB File=ZIC$IDSFUNCS.:ZIC0TSI                    FRI 09/05/97 11:41 Page:232


      724        1        /*T***********************************************************/
      725        2        /*T*                                                         */
      726        3        /*T* Copyright (c) Bull HN Information Systems Inc., 1997    */
      727        4        /*T*                                                         */
      728        5        /*T***********************************************************/
      729        6        SYS_FUNC_GETDCB: PROC ALTRET;

      6  3 000000   000000 700200 xent  SYS_FUNC_GE* TSX0  ! X66_AUTO_0
         3 000001   000004 000000                    ZERO    4,0

      730        7    1   DCL SYS_FUNC_ERRMSG ENTRY ALTRET;
      731        8        %INCLUDE ZI_GLOBAL_DBUTIL;
      732      186         %SYS_FUNC;
      733      278         %MISC_DCLS;
      734      331        %INCLUDE CP_6;
      735      412        %INCLUDE CP_6_SUBS;
      736      952        %B$TCB;
      737      955        %B$EXCFR;
      738      973        %FPT_GETDCB (FPTN=GETDCB_FPT);
      739      988    1       GETDCB_FPT.DCBNAME_=DCBNMSF;

    988  3 000002   000000 100400                    MLR     fill='000'O
         3 000003   000000 000010 xsym               ADSC9   DCBNMSF                  cn=0,n=8
         3 000004   000002 000010 2                  ADSC9   GETDCB_FPT+2             cn=0,n=8

      740      989    1       GETDCB_FPT.V.MERGE#=MERGESF;

    989  3 000005   000000 236000 xsym               LDQ     MERGESF
         3 000006   000022 772000                    QRL     18
         3 000007   000006 676000 2                  ERQ     GETDCB_FPT+6
         3 000010   400000 376007                    ANQ     -131072,DL
         3 000011   000006 656000 2                  ERSQ    GETDCB_FPT+6

      741      990    1       CALL M$GETDCB(GETDCB_FPT) ALTRET(GETDCB_ERR);

    990  3 000012   000000 630400 2                  EPPR0   GETDCB_FPT
PL6.E3A0      #016=SYS_FUNC_GETDCB File=ZIC$IDSFUNCS.:ZIC0TSI                    FRI 09/05/97 11:41 Page:233
         3 000013   460002 713400                    CLIMB   alt,+24578
         3 000014   401000 401760                    pmme    nvectors=3
         3 000015   000022 702000 3                  TSX2    GETDCB_ERR

      742      991    1       DCBSF=GETDCB_FPT.V.DCB#;

    991  3 000016   000006 220000 2                  LDX0    GETDCB_FPT+6
         3 000017   000000 740000 xsym               STX0    DCBSF

      743      992    1       MERGESF = %NO#;

    992  3 000020   000000 450000 xsym               STZ     MERGESF

      744      993    1       RETURN;

    993  3 000021   000000 702200 xent               TSX2  ! X66_ARET

      745      994    1   GETDCB_ERR:
      746      995    1       MERGESF = %NO#;

    995  3 000022   000000 450000 xsym  GETDCB_ERR   STZ     MERGESF

      747      996    1       MONITOR_ERR = B$TCB$->B$TCB.ALT$->B$EXCFR.ERR;

    996  3 000023   000000 470400 xsym               LDP0    B$TCB$
         3 000024   000000 471500                    LDP1    0,,PR0
         3 000025   100102 236100                    LDQ     66,,PR1
         3 000026   000000 756000 xsym               STQ     MSGCODE

      748      997    1       INCL_ERR = %YES#;

    997  3 000027   400000 236003                    LDQ     -131072,DU
         3 000030   000000 756000 xsym               STQ     INCL_ERR

      749      998    1       CALL SYS_FUNC_ERRMSG;

    998  3 000031   000000 631400 4                  EPPR1   0
PL6.E3A0      #016=SYS_FUNC_GETDCB File=ZIC$IDSFUNCS.:ZIC0TSI                    FRI 09/05/97 11:41 Page:234
         3 000032   000000 701000 xent               TSX1    SYS_FUNC_ERRMSG
         3 000033   000000 011000                    NOP     0

      750      999    1       ALTRETURN;

    999  3 000034   000000 702200 xent               TSX2  ! X66_AALT

GETDCB_FPT
 Sect OctLoc
   2     000   000001 777640   000006 006000   000000 177640   000000 006014    ................
   2     004   000000 177640   000000 006014   000000 000000   000000 000000    ................

(unnamed)
 Sect OctLoc
   4     000   000000 000000                                                    ....
      751     1000    1   END SYS_FUNC_GETDCB;
      752     1001        %EOD;

PL6.E3A0      #016=SYS_FUNC_GETDCB File=ZIC$IDSFUNCS.:ZIC0TSI                    FRI 09/05/97 11:41 Page:235
--  Include file information  --

   CP_6_SUBS.:LIB_E05  is referenced.
   CP_6.:LIB_E05  cannot be made into a system file and is referenced.
   ZI_GLOBAL_DBUTIL.:ZIC0TOU  is referenced.
   B$JIT_C.:E05TOU  was found in the system file and is never referenced.
   CP_6_C.:E05TOU  was found in the system file and is referenced.
      No diagnostics issued in procedure SYS_FUNC_GETDCB.

   Procedure SYS_FUNC_GETDCB requires 29 words for executable code.
   Procedure SYS_FUNC_GETDCB requires 4 words of local(AUTO) storage.
PL6.E3A0      #016=SYS_FUNC_GETDCB File=ZIC$IDSFUNCS.:ZIC0TSI                    FRI 09/05/97 11:41 Page:236
          *** CROSS REFERENCE LISTING ***
**     DENOTES     IDENTIFIER DEFINITION
<<                 IDENTIFIER'S VALUE SET
>>                 IDENTIFIER'S VALUE USED
<>                 IDENTIFIER SET AND/OR USED
--                 IDENTIFIER REFERENCED
PL6.E3A0      #016=SYS_FUNC_GETDCB File=ZIC$IDSFUNCS.:ZIC0TSI                    FRI 09/05/97 11:41 Page:237
          MINI XREF LISTING

B$EXCFR.ASL
       956**DCL       956--REDEF
B$EXCFR.ERR
       970**DCL       996>>ASSIGN
B$EXCFR.ERR.ERR#
       970**DCL       970--REDEF
B$EXCFR.EVID
       969**DCL       969--REDEF     970--REDEF
B$EXCFR.IR
       957**DCL       957--REDEF
B$EXCFR.PREVSZ
       956**DCL       956--REDEF
B$EXCFR.SUBC
       968**DCL       968--REDEF     969--REDEF     969--REDEF
B$TCB.ALT$
       953**DCL       996>>ASSIGN
B$TCB$
       315**DCL       996>>ASSIGN
COUNTSF
       267**DCL       268--REDEF
DCBNMSF
       248**DCL       988>>ASSIGN
DCBSF
       196**DCL       991<<ASSIGN
ENCRP_SEEDSF
       225**DCL       226--REDEF
ERRCODESF
       227**DCL       232--REDEF
FIDSF_RD
       243**DCL       244--REDEF
GETDCB_ERR
       995**LABEL     990--CALLALT
PL6.E3A0      #016=SYS_FUNC_GETDCB File=ZIC$IDSFUNCS.:ZIC0TSI                    FRI 09/05/97 11:41 Page:238
GETDCB_FPT
       984**DCL       990<>CALL
GETDCB_FPT.DCBNAME_
       984**DCL       988<<ASSIGN
GETDCB_FPT.V
       985**DCL       984--DCLINIT
GETDCB_FPT.V.DCB#
       985**DCL       991>>ASSIGN
GETDCB_FPT.V.MERGE#
       985**DCL       989<<ASSIGN
HELPCODE
       261**DCL       266--REDEF
ICHKSUM
       326**DCL       327--REDEF
INCL_ERR
       239**DCL       997<<ASSIGN
I_O_BUF$
       304**DCL       305--IMP-PTR
KEYVSF
       199**DCL       204--REDEF
KEYVSF.WD_ONE
       201**DCL       202--REDEF
M$GETDCB
       346**DCL-ENT   990--CALL
MERGESF
       257**DCL       989>>ASSIGN    992<<ASSIGN    995<<ASSIGN
MONITOR_ERR
       234**DCL       996<<ASSIGN
MSGCODE
       233**DCL       234--REDEF
REC$
       285**DCL       308--IMP-PTR
REC_DATA_LN
       313**DCL       312--IMP-SIZ
SYS_FUNC_ERRMSG
         7**DCL-ENT   998--CALL

