PL6.E3A0      #017=SYS_FUNC_ERRMSG File=ZIC$IDSFUNCS.:ZIC0TSI                    FRI 09/05/97 11:41 Page:239
      753        1        /*T***********************************************************/
      754        2        /*T*                                                         */
      755        3        /*T* Copyright (c) Bull HN Information Systems Inc., 1997    */
      756        4        /*T*                                                         */
      757        5        /*T***********************************************************/
      758        6        SYS_FUNC_ERRMSG: PROC ALTRET;
      759        7    1   DCL M$DO DCB ;
      760        8    1   DCL ERR_BUFF CHAR(200) STATIC INIT(' ');
      761        9    1   DCL INITIAL_CALL BIT(1) STATIC INIT('1'B);
      762       10    1   DCL SYS_FUNC_CORRES ENTRY(2) ALTRET;
      763       11         /*      Include global defined variables */
      764       12         %INCLUDE ZI_GLOBAL_DBUTIL;
      765      190         %SYS_FUNC;
      766      282         %MISC_DCLS;
      767      335         %INCLUDE CP_6;
      768      416         %INCLUDE CP_6_SUBS;
      769      956    1   DCL DCB_ONE UBIN(18) STATIC INIT(DCBNUM(M$DO));
      770      957    1   DCL DCB_TWO UBIN(18) STATIC INIT(DCBNUM(M$LO));
      771      958    1   DCL 1 FILENAME STATIC,
      772      959    1         2 CNT UBIN(9) INIT (9) UNAL,
      773      960    1         2 TXT CHAR(9) INIT (':ZIERRMSG') UNAL;
      774      961    1   DCL FILEACCT CHAR(8) STATIC INIT(':SYS   ');
      775      962         %FPT_ERRMSG(OUTDCB1=M$DO,
      776      963         BUF=ERR_BUFF,
      777      964         RESULTS=RESULTSE,
      778      965         FLAGLEV=3);
      779      992        %VLR_ERRMSG (FPTN=RESULTSE);
      780     1014         /**/
      781     1015    1       IF INITIAL_CALL THEN
      782     1016    2       DO;
      783     1017    2           INITIAL_CALL = '0'B;
      784     1018    2           FPT_ERRMSG.FILENAME_ = VECTOR(FILENAME);
      785     1019    2           FPT_ERRMSG.FILEACCT_ = VECTOR(FILEACCT);
      786     1020    2           FPT_ERRMSG.FIELD1_ = VECTOR(ERR_INSERT(0));
      787     1021    2           FPT_ERRMSG.FIELD2_ = VECTOR(ERR_INSERT(1));
      788     1022    2           FPT_ERRMSG.FIELD3_ = VECTOR(ERR_INSERT(2));
      789     1023    2           CALL SYS_FUNC_CORRES(DCB_ONE,DCB_TWO) ALTRET(SAME);
PL6.E3A0      #017=SYS_FUNC_ERRMSG File=ZIC$IDSFUNCS.:ZIC0TSI                    FRI 09/05/97 11:41 Page:240
      790     1024    2           FPT_ERRMSG.V.OUTDCB2# = DCB_TWO;
      791     1025    2   SAME:   END;
      792     1026    1       FPT_ERRMSG.V.INCLCODE# = INCL_ERR;
      793     1027    1       FPT_ERRMSG.V.DCB# = DCBSF;
      794     1028    1       FPT_ERRMSG.CODE_ = VECTOR(MONITOR_ERR);
      795     1029    1       FPT_ERRMSG.V.SUBMESS# = SUBMESSF;
      796     1030    1       FPT_ERRMSG.V.FLAGLEV# = ERRFLGSF;
      797     1031    1       CALL M$ERRMSG(FPT_ERRMSG) ALTRET(ERR_ERRMSG);
      798     1032         /**/
      799     1033    1   RET: INCL_ERR = %NO#;
      800     1034    1       SUBMESSF = %YES# ;
      801     1035    1       ERRFLGSF = 3;
      802     1036    1       RETURN;
      803     1037    1   ERR_ERRMSG:
      804     1038    1       SUBMESSF = %YES#;
      805     1039    1       ERRFLGSF = 3;
      806     1040    1       INCL_ERR = %NO#;
      807     1041    1       IF RESULTSE.NOMSG THEN ALTRETURN;
      808     1042    1       ELSE RETURN;
      809     1043    1   END SYS_FUNC_ERRMSG;
      810     1044        %EOD;

PL6.E3A0      #017=SYS_FUNC_ERRMSG File=ZIC$IDSFUNCS.:ZIC0TSI                    FRI 09/05/97 11:41 Page:241
--  Include file information  --

   CP_6_SUBS.:LIB_E05  is referenced.
   CP_6.:LIB_E05  cannot be made into a system file and is referenced.
   ZI_GLOBAL_DBUTIL.:ZIC0TOU  is referenced.
   B$JIT_C.:E05TOU  was found in the system file and is never referenced.
   CP_6_C.:E05TOU  was found in the system file and is referenced.
      No diagnostics issued in procedure SYS_FUNC_ERRMSG.

   Procedure SYS_FUNC_ERRMSG requires 58 words for executable code.
   Procedure SYS_FUNC_ERRMSG requires 4 words of local(AUTO) storage.

PL6.E3A0      #017=SYS_FUNC_ERRMSG File=ZIC$IDSFUNCS.:ZIC0TSI                    FRI 09/05/97 11:41 Page:242

 Object Unit name= SYS_FUNC_ERRMSG                            File name= ZIC$IDSFUNCS.:ZIC0TOU
 UTS= SEP 05 '97 11:41:57.96 FRI                              Compiler= PL-6/E31         Sev=      00
 SharedLib= :SHARED_SYSTEM                                    Alt SharedLib=


    ****  Control sections  ****

 Sect   Type Bound  Init  Size OctSiz  Section name(segment info)
    0   DCB   even  none     0      0  M$DO
    1   Data  even  none    88    130  SYS_FUNC_ERRMSG
    2   DCB   even  none     0      0  M$LO
    3   DCB   even  none     0      0  M$UC
    4   Proc  even  none    58     72  SYS_FUNC_ERRMSG
    5  RoData even  none    16     20  SYS_FUNC_ERRMSG

    ****  Entry defs  ****

                              Check   Calling
                             calling  sequence
  Sect OctLoc Primary Altret sequence   type   Parms  Name
     4      0   yes    yes     yes      Std        0  SYS_FUNC_ERRMSG

  ****  Entry refs  ****

         Check        Calling
        calling       sequence
Altret sequence SRef   type   Args  Name
 yes     yes           Std       2 SYS_FUNC_CORRES
                       nStd      0 X66_AUTO_0
                       nStd      0 X66_ARET
                       nStd      0 X66_AALT
PL6.E3A0      #017=SYS_FUNC_ERRMSG File=ZIC$IDSFUNCS.:ZIC0TSI                    FRI 09/05/97 11:41 Page:243

  ****  Data refs  ****

  Flags:  r = read only, s = secondary
Flgs Name                             Flgs Name                             Flgs Name
     M$DO                                  BLKLSF                                KEYLSF
     KEYXSF                                DCBSF                                 ORGSF
     KEYSF                                 KEYVSF                                ACSSF
     NOTIMESF                              FUNSF                                 ASNSF
     TESTSF                                XTENSIZESF                            DISPSF
     WAITSF                                VFCSF                                 FULLSF
     BKUPSF                                BUFLNSF                               BUFSF
     SOURCESF                              DESTSF                                DATESF
     TIMESF                                UTSSF                                 DAYSF
     TSTAMPSF                              ENCRP_SEEDSF                          ERRCODESF
     MSGCODE                               INCL_ERR                              ERR_INSERT
     FIDSF_RD                              ACNT                                  EXISTSF
     SHARESF                               DCBNMSF                               KEYRSF
     NO_KEYSF                              REASGNSF                              CARRY_ATTRIBUTESF
     SUBMESSF                              SPKY_OPNSF                            POSSF
     ERRFLGSF                              MERGESF                               FSA_FLAG
     RELGSF                                UNUSED                                HELPCODE
     COUNTSF                               INDEXSF                               GAP
     PSNSF                                 ACNTSF                                KEY_SHADWSF
     REC$                                  RB                                    RE
     IE                                    IB                                    CNT
     ICNT                                  RCNT                                  SCNT
     FIRST_SET                             RETCNT                                DMPCNT
     KCNT                                  ACNT_IDX                              I
     J                                     K                                     X
     STEPCC                                I_O_BUF$                              OUT_INDX
     I_O_SIZE                              REC_DATA_LN                           M$LO
     B$TCB$                                B$ROS$                                B$JIT$
     KEYFID                                I_O_KEY                               RESTART
     BREAK_FLAG                            ICHKSUM                               ITMCNT
     GAP1                                  M$UC
PL6.E3A0      #017=SYS_FUNC_ERRMSG File=ZIC$IDSFUNCS.:ZIC0TSI                    FRI 09/05/97 11:41 Page:244

  ****  Segment refs  ****

  Flags:  r = read only, s = secondary
Flgs Name                             Flgs Name                             Flgs Name
     ISSID                                 NULLSID
PL6.E3A0      #017=SYS_FUNC_ERRMSG File=ZIC$IDSFUNCS.:ZIC0TSI                    FRI 09/05/97 11:41 Page:245


      753        1        /*T***********************************************************/
      754        2        /*T*                                                         */
      755        3        /*T* Copyright (c) Bull HN Information Systems Inc., 1997    */
      756        4        /*T*                                                         */
      757        5        /*T***********************************************************/
      758        6        SYS_FUNC_ERRMSG: PROC ALTRET;

      6  4 000000   000000 700200 xent  SYS_FUNC_ER* TSX0  ! X66_AUTO_0
         4 000001   000004 000000                    ZERO    4,0

      759        7    1   DCL M$DO DCB ;
      760        8    1   DCL ERR_BUFF CHAR(200) STATIC INIT(' ');
      761        9    1   DCL INITIAL_CALL BIT(1) STATIC INIT('1'B);
      762       10    1   DCL SYS_FUNC_CORRES ENTRY(2) ALTRET;
      763       11         /*      Include global defined variables */
      764       12         %INCLUDE ZI_GLOBAL_DBUTIL;
      765      190         %SYS_FUNC;
      766      282         %MISC_DCLS;
      767      335         %INCLUDE CP_6;
      768      416         %INCLUDE CP_6_SUBS;
      769      956    1   DCL DCB_ONE UBIN(18) STATIC INIT(DCBNUM(M$DO));
      770      957    1   DCL DCB_TWO UBIN(18) STATIC INIT(DCBNUM(M$LO));
      771      958    1   DCL 1 FILENAME STATIC,
      772      959    1         2 CNT UBIN(9) INIT (9) UNAL,
      773      960    1         2 TXT CHAR(9) INIT (':ZIERRMSG') UNAL;
      774      961    1   DCL FILEACCT CHAR(8) STATIC INIT(':SYS   ');
      775      962         %FPT_ERRMSG(OUTDCB1=M$DO,
      776      963         BUF=ERR_BUFF,
      777      964         RESULTS=RESULTSE,
      778      965         FLAGLEV=3);
      779      992        %VLR_ERRMSG (FPTN=RESULTSE);
      780     1014         /**/
      781     1015    1       IF INITIAL_CALL THEN

   1015  4 000002   000062 234000 1                  SZN     INITIAL_CALL
         4 000003   000025 605000 4                  TPL     SAME
PL6.E3A0      #017=SYS_FUNC_ERRMSG File=ZIC$IDSFUNCS.:ZIC0TSI                    FRI 09/05/97 11:41 Page:246

      782     1016    2       DO;

      783     1017    2           INITIAL_CALL = '0'B;

   1017  4 000004   000062 450000 1                  STZ     INITIAL_CALL

      784     1018    2           FPT_ERRMSG.FILENAME_ = VECTOR(FILENAME);

   1018  4 000005   000000 237000 5                  LDAQ    0
         4 000006   000100 757000 1                  STAQ    FPT_ERRMSG+6

      785     1019    2           FPT_ERRMSG.FILEACCT_ = VECTOR(FILEACCT);

   1019  4 000007   000002 237000 5                  LDAQ    2
         4 000010   000102 757000 1                  STAQ    FPT_ERRMSG+8

      786     1020    2           FPT_ERRMSG.FIELD1_ = VECTOR(ERR_INSERT(0));

   1020  4 000011   000004 237000 5                  LDAQ    4
         4 000012   000106 757000 1                  STAQ    FPT_ERRMSG+12

      787     1021    2           FPT_ERRMSG.FIELD2_ = VECTOR(ERR_INSERT(1));

   1021  4 000013   000006 237000 5                  LDAQ    6
         4 000014   000110 757000 1                  STAQ    FPT_ERRMSG+14

      788     1022    2           FPT_ERRMSG.FIELD3_ = VECTOR(ERR_INSERT(2));

   1022  4 000015   000010 237000 5                  LDAQ    8
         4 000016   000112 757000 1                  STAQ    FPT_ERRMSG+16

      789     1023    2           CALL SYS_FUNC_CORRES(DCB_ONE,DCB_TWO) ALTRET(SAME);

   1023  4 000017   000013 630400 5                  EPPR0   11
         4 000020   000012 631400 5                  EPPR1   10
         4 000021   000000 701000 xent               TSX1    SYS_FUNC_CORRES
PL6.E3A0      #017=SYS_FUNC_ERRMSG File=ZIC$IDSFUNCS.:ZIC0TSI                    FRI 09/05/97 11:41 Page:247
         4 000022   000025 702000 4                  TSX2    SAME

      790     1024    2           FPT_ERRMSG.V.OUTDCB2# = DCB_TWO;

   1024  4 000023   000064 220000 1                  LDX0    DCB_TWO
         4 000024   000121 740000 1                  STX0    FPT_ERRMSG+23

      791     1025    2   SAME:   END;

   1025  4 000025                       SAME         null
      792     1026    1       FPT_ERRMSG.V.INCLCODE# = INCL_ERR;

   1026  4 000025   000000 236000 xsym               LDQ     INCL_ERR
         4 000026   000006 772000                    QRL     6
         4 000027   000122 676000 1                  ERQ     FPT_ERRMSG+24
         4 000030   004000 376003                    ANQ     2048,DU
         4 000031   000122 656000 1                  ERSQ    FPT_ERRMSG+24

      793     1027    1       FPT_ERRMSG.V.DCB# = DCBSF;

   1027  4 000032   000000 220000 xsym               LDX0    DCBSF
         4 000033   000120 740000 1                  STX0    FPT_ERRMSG+22

      794     1028    1       FPT_ERRMSG.CODE_ = VECTOR(MONITOR_ERR);

   1028  4 000034   000016 237000 5                  LDAQ    14
         4 000035   000074 757000 1                  STAQ    FPT_ERRMSG+2

      795     1029    1       FPT_ERRMSG.V.SUBMESS# = SUBMESSF;

   1029  4 000036   000000 236000 xsym               LDQ     SUBMESSF
         4 000037   000010 772000                    QRL     8
         4 000040   000122 676000 1                  ERQ     FPT_ERRMSG+24
         4 000041   001000 376003                    ANQ     512,DU
         4 000042   000122 656000 1                  ERSQ    FPT_ERRMSG+24

      796     1030    1       FPT_ERRMSG.V.FLAGLEV# = ERRFLGSF;
PL6.E3A0      #017=SYS_FUNC_ERRMSG File=ZIC$IDSFUNCS.:ZIC0TSI                    FRI 09/05/97 11:41 Page:248

   1030  4 000043   000000 236000 xsym               LDQ     ERRFLGSF
         4 000044   000022 772000                    QRL     18
         4 000045   000121 552010 1                  STBQ    FPT_ERRMSG+23,'10'O

      797     1031    1       CALL M$ERRMSG(FPT_ERRMSG) ALTRET(ERR_ERRMSG);

   1031  4 000046   000072 630400 1                  EPPR0   FPT_ERRMSG
         4 000047   420000 713400                    CLIMB   alt,+8192
         4 000050   405000 401760                    pmme    nvectors=11
         4 000051   000060 702000 4                  TSX2    ERR_ERRMSG

      798     1032         /**/
      799     1033    1   RET: INCL_ERR = %NO#;

   1033  4 000052   000000 450000 xsym  RET          STZ     INCL_ERR

      800     1034    1       SUBMESSF = %YES# ;

   1034  4 000053   400000 236003                    LDQ     -131072,DU
         4 000054   000000 756000 xsym               STQ     SUBMESSF

      801     1035    1       ERRFLGSF = 3;

   1035  4 000055   003000 236003                    LDQ     1536,DU
         4 000056   000000 756000 xsym               STQ     ERRFLGSF

      802     1036    1       RETURN;

   1036  4 000057   000000 702200 xent               TSX2  ! X66_ARET

      803     1037    1   ERR_ERRMSG:
      804     1038    1       SUBMESSF = %YES#;

   1038  4 000060   400000 236003       ERR_ERRMSG   LDQ     -131072,DU
         4 000061   000000 756000 xsym               STQ     SUBMESSF

PL6.E3A0      #017=SYS_FUNC_ERRMSG File=ZIC$IDSFUNCS.:ZIC0TSI                    FRI 09/05/97 11:41 Page:249
      805     1039    1       ERRFLGSF = 3;

   1039  4 000062   003000 236003                    LDQ     1536,DU
         4 000063   000000 756000 xsym               STQ     ERRFLGSF

      806     1040    1       INCL_ERR = %NO#;

   1040  4 000064   000000 450000 xsym               STZ     INCL_ERR

      807     1041    1       IF RESULTSE.NOMSG THEN ALTRETURN;

   1041  4 000065   000124 236000 1                  LDQ     RESULTSE
         4 000066   100000 316003                    CANQ    32768,DU
         4 000067   000071 600000 4                  TZE     s:1042

   1041  4 000070   000000 702200 xent               TSX2  ! X66_AALT

      808     1042    1       ELSE RETURN;

   1042  4 000071   000000 702200 xent               TSX2  ! X66_ARET

ERR_BUFF
 Sect OctLoc
   1     000   040040 040040   040040 040040   040040 040040   040040 040040
   1     060*  040040 040040   040040 040040

INITIAL_CALL
 Sect OctLoc
   1     062   4***** ******                                                    ....

DCB_ONE
 Sect OctLoc
   1     063   000000 ******                                                    ....

DCB_TWO
 Sect OctLoc
   1     064   000000 ******                                                    ....
PL6.E3A0      #017=SYS_FUNC_ERRMSG File=ZIC$IDSFUNCS.:ZIC0TSI                    FRI 09/05/97 11:41 Page:250

FILENAME
 Sect OctLoc
   1     065   011072 132111   105122 122115   123107 ******                    .:ZIERRMSG..

FILEACCT
 Sect OctLoc
   1     070   072123 131123   040040 040040                                    :SYS

FPT_ERRMSG
 Sect OctLoc
   1     072   000003 777640   000120 006000   000000 177640   000000 006014    .....P..........
   1     076   000061 777640   000000 006000   000000 177640   000000 006014    .1..............
   1     102   000000 177640   000000 006014   000000 177640   000000 006014    ................
   1     112*  000000 177640   000000 006014   000003 777640   000124 006000    .............T..
   1     116   000000 177640   000000 006014   000000 000000   000000 003000    ................
   1     122   375000 030001   040000 000000                                    .... ...

RESULTSE
 Sect OctLoc
   1     124   00000* ***000   000000 000000   000000 000000   ****** ******    ................

(unnamed)
 Sect OctLoc
   5     000   000002 377640   000065 006000   000001 777640   000070 006000    .....5.......8..
   5     004   000007 777640   000000 006000   000007 777640   000010 006000    ................
   5     010   000007 777640   000020 006000   000002 000000   000063 006000    .............3..
   5     014   000064 006000   000000 000000   000000 777640   000000 006000    .4..............
      809     1043    1   END SYS_FUNC_ERRMSG;
      810     1044        %EOD;

PL6.E3A0      #017=SYS_FUNC_ERRMSG File=ZIC$IDSFUNCS.:ZIC0TSI                    FRI 09/05/97 11:41 Page:251
--  Include file information  --

   CP_6_SUBS.:LIB_E05  is referenced.
   CP_6.:LIB_E05  cannot be made into a system file and is referenced.
   ZI_GLOBAL_DBUTIL.:ZIC0TOU  is referenced.
   B$JIT_C.:E05TOU  was found in the system file and is never referenced.
   CP_6_C.:E05TOU  was found in the system file and is referenced.
      No diagnostics issued in procedure SYS_FUNC_ERRMSG.

   Procedure SYS_FUNC_ERRMSG requires 58 words for executable code.
   Procedure SYS_FUNC_ERRMSG requires 4 words of local(AUTO) storage.
PL6.E3A0      #017=SYS_FUNC_ERRMSG File=ZIC$IDSFUNCS.:ZIC0TSI                    FRI 09/05/97 11:41 Page:252
          *** CROSS REFERENCE LISTING ***
**     DENOTES     IDENTIFIER DEFINITION
<<                 IDENTIFIER'S VALUE SET
>>                 IDENTIFIER'S VALUE USED
<>                 IDENTIFIER SET AND/OR USED
--                 IDENTIFIER REFERENCED
PL6.E3A0      #017=SYS_FUNC_ERRMSG File=ZIC$IDSFUNCS.:ZIC0TSI                    FRI 09/05/97 11:41 Page:253
          MINI XREF LISTING

COUNTSF
       271**DCL       272--REDEF
DCBSF
       200**DCL      1027>>ASSIGN
DCB_ONE
       956**DCL      1023<>CALL
DCB_TWO
       957**DCL      1023<>CALL     1024>>ASSIGN
ENCRP_SEEDSF
       229**DCL       230--REDEF
ERRCODESF
       231**DCL       236--REDEF
ERRFLGSF
       260**DCL      1030>>ASSIGN   1035<<ASSIGN   1039<<ASSIGN
ERR_BUFF
         8**DCL       977--DCLINIT
ERR_ERRMSG
      1038**LABEL    1031--CALLALT
ERR_INSERT
       244**DCL      1020--ASSIGN   1021--ASSIGN   1022--ASSIGN
FIDSF_RD
       247**DCL       248--REDEF
FILEACCT
       961**DCL      1019--ASSIGN
FILENAME
       958**DCL      1018--ASSIGN
FPT_ERRMSG
       976**DCL      1031<>CALL
FPT_ERRMSG.CODE_
       976**DCL      1028<<ASSIGN
FPT_ERRMSG.FIELD1_
       978**DCL      1020<<ASSIGN
PL6.E3A0      #017=SYS_FUNC_ERRMSG File=ZIC$IDSFUNCS.:ZIC0TSI                    FRI 09/05/97 11:41 Page:254
FPT_ERRMSG.FIELD2_
       979**DCL      1021<<ASSIGN
FPT_ERRMSG.FIELD3_
       979**DCL      1022<<ASSIGN
FPT_ERRMSG.FILEACCT_
       977**DCL      1019<<ASSIGN
FPT_ERRMSG.FILENAME_
       977**DCL      1018<<ASSIGN
FPT_ERRMSG.V
       980**DCL       976--DCLINIT
FPT_ERRMSG.V.DCB#
       980**DCL      1027<<ASSIGN
FPT_ERRMSG.V.FLAGLEV#
       982**DCL      1030<<ASSIGN
FPT_ERRMSG.V.INCLCODE#
       985**DCL      1026<<ASSIGN
FPT_ERRMSG.V.OUTDCB2#
       981**DCL      1024<<ASSIGN
FPT_ERRMSG.V.SUBMESS#
       986**DCL      1029<<ASSIGN
HELPCODE
       265**DCL       270--REDEF
ICHKSUM
       330**DCL       331--REDEF
INCL_ERR
       243**DCL      1026>>ASSIGN   1033<<ASSIGN   1040<<ASSIGN
INITIAL_CALL
         9**DCL      1015>>IF       1017<<ASSIGN
I_O_BUF$
       308**DCL       309--IMP-PTR
KEYVSF
       203**DCL       208--REDEF
KEYVSF.WD_ONE
       205**DCL       206--REDEF
M$ERRMSG
       407**DCL-ENT  1031--CALL
PL6.E3A0      #017=SYS_FUNC_ERRMSG File=ZIC$IDSFUNCS.:ZIC0TSI                    FRI 09/05/97 11:41 Page:255
MONITOR_ERR
       238**DCL      1028--ASSIGN
MSGCODE
       237**DCL       238--REDEF
REC$
       289**DCL       312--IMP-PTR
REC_DATA_LN
       317**DCL       316--IMP-SIZ
RESULTSE
      1003**DCL       980--DCLINIT
RESULTSE.NOMSG
      1003**DCL      1041>>IF
SAME
      1025**LABEL    1023--CALLALT
SUBMESSF
       257**DCL      1029>>ASSIGN   1034<<ASSIGN   1038<<ASSIGN
SYS_FUNC_CORRES
        10**DCL-ENT  1023--CALL

PL6.E3A0      #018=SYS_FUNC_RELDCB File=ZIC$IDSFUNCS.:ZIC0TSI                    FRI 09/05/97 11:42 Page:256
      811        1        /*T***********************************************************/
      812        2        /*T*                                                         */
      813        3        /*T* Copyright (c) Bull HN Information Systems Inc., 1997    */
      814        4        /*T*                                                         */
      815        5        /*T***********************************************************/
      816        6        /************************************************************/
      817        7        /*     Release    dcb    function                           */
      818        8        /************************************************************/
      819        9        SYS_FUNC_RELDCB: PROC ALTRET;
      820       10    1   DCL SYS_FUNC_ERRMSG ENTRY ALTRET;
      821       11         %INCLUDE CP_6;
      822       92         %INCLUDE CP_6_SUBS;
      823      632         %B$TCB;
      824      635         %B$EXCFR;
      825      653         %INCLUDE B_ERRORS_C;
      826     1780         %INCLUDE ZI_GLOBAL_DBUTIL;
      827     1958         %SYS_FUNC;
      828     2050         %MISC_DCLS;
      829     2103         %FPT_RELDCB(FPTN=RELEASE);
      830     2117
      831     2118    1       RELEASE.V.DCB# = DCBSF;
      832     2119    1       CALL M$RELDCB(RELEASE) ALTRET(REL_ERR);
      833     2120    1       RETURN;
      834     2121
      835     2122    1   REL_ERR:
      836     2123    1       MONITOR_ERR = B$TCB$->B$TCB.ALT$->B$EXCFR.ERR;
      837     2124    1       INCL_ERR = %YES#;
      838     2125    1       CALL SYS_FUNC_ERRMSG;
      839     2126    1       ALTRETURN;
      840     2127    1   END SYS_FUNC_RELDCB;
      841     2128        %EOD;

PL6.E3A0      #018=SYS_FUNC_RELDCB File=ZIC$IDSFUNCS.:ZIC0TSI                    FRI 09/05/97 11:42 Page:257
--  Include file information  --

   ZI_GLOBAL_DBUTIL.:ZIC0TOU  is referenced.
   B_ERRORS_C.:LIB_E05  is referenced.
   CP_6_SUBS.:LIB_E05  is referenced.
   CP_6.:LIB_E05  cannot be made into a system file and is referenced.
   B$JIT_C.:E05TOU  was found in the system file and is never referenced.
   CP_6_C.:E05TOU  was found in the system file and is referenced.
      No diagnostics issued in procedure SYS_FUNC_RELDCB.

   Procedure SYS_FUNC_RELDCB requires 19 words for executable code.
   Procedure SYS_FUNC_RELDCB requires 4 words of local(AUTO) storage.

PL6.E3A0      #018=SYS_FUNC_RELDCB File=ZIC$IDSFUNCS.:ZIC0TSI                    FRI 09/05/97 11:42 Page:258

 Object Unit name= SYS_FUNC_RELDCB                            File name= ZIC$IDSFUNCS.:ZIC0TOU
 UTS= SEP 05 '97 11:42:10.84 FRI                              Compiler= PL-6/E31         Sev=      00
 SharedLib= :SHARED_SYSTEM                                    Alt SharedLib=


    ****  Control sections  ****

 Sect   Type Bound  Init  Size OctSiz  Section name(segment info)
    0   DCB   even  none     0      0  M$UC
    1   DCB   even  none     0      0  M$LO
    2   Data  even  none     4      4  SYS_FUNC_RELDCB
    3   Proc  even  none    19     23  SYS_FUNC_RELDCB
    4  RoData even  none     1      1  SYS_FUNC_RELDCB

    ****  Entry defs  ****

                              Check   Calling
                             calling  sequence
  Sect OctLoc Primary Altret sequence   type   Parms  Name
     3      0   yes    yes     yes      Std        0  SYS_FUNC_RELDCB

  ****  Entry refs  ****

         Check        Calling
        calling       sequence
Altret sequence SRef   type   Args  Name
 yes     yes           Std       0 SYS_FUNC_ERRMSG
                       nStd      0 X66_AUTO_0
                       nStd      0 X66_ARET
                       nStd      0 X66_AALT
PL6.E3A0      #018=SYS_FUNC_RELDCB File=ZIC$IDSFUNCS.:ZIC0TSI                    FRI 09/05/97 11:42 Page:259

  ****  Data refs  ****

  Flags:  r = read only, s = secondary
Flgs Name                             Flgs Name                             Flgs Name
     M$UC                                  BLKLSF                                KEYLSF
     KEYXSF                                DCBSF                                 ORGSF
     KEYSF                                 KEYVSF                                ACSSF
     NOTIMESF                              FUNSF                                 ASNSF
     TESTSF                                XTENSIZESF                            DISPSF
     WAITSF                                VFCSF                                 FULLSF
     BKUPSF                                BUFLNSF                               BUFSF
     SOURCESF                              DESTSF                                DATESF
     TIMESF                                UTSSF                                 DAYSF
     TSTAMPSF                              ENCRP_SEEDSF                          ERRCODESF
     MSGCODE                               INCL_ERR                              ERR_INSERT
     FIDSF_RD                              ACNT                                  EXISTSF
     SHARESF                               DCBNMSF                               KEYRSF
     NO_KEYSF                              REASGNSF                              CARRY_ATTRIBUTESF
     SUBMESSF                              SPKY_OPNSF                            POSSF
     ERRFLGSF                              MERGESF                               FSA_FLAG
     RELGSF                                UNUSED                                HELPCODE
     COUNTSF                               INDEXSF                               GAP
     PSNSF                                 ACNTSF                                KEY_SHADWSF
     REC$                                  RB                                    RE
     IE                                    IB                                    CNT
     ICNT                                  RCNT                                  SCNT
     FIRST_SET                             RETCNT                                DMPCNT
     KCNT                                  ACNT_IDX                              I
     J                                     K                                     X
     STEPCC                                I_O_BUF$                              OUT_INDX
     I_O_SIZE                              REC_DATA_LN                           M$LO
     B$TCB$                                B$ROS$                                B$JIT$
     KEYFID                                I_O_KEY                               RESTART
     BREAK_FLAG                            ICHKSUM                               ITMCNT
     GAP1
PL6.E3A0      #018=SYS_FUNC_RELDCB File=ZIC$IDSFUNCS.:ZIC0TSI                    FRI 09/05/97 11:42 Page:260

  ****  Segment refs  ****

  Flags:  r = read only, s = secondary
Flgs Name                             Flgs Name                             Flgs Name
     ISSID
PL6.E3A0      #018=SYS_FUNC_RELDCB File=ZIC$IDSFUNCS.:ZIC0TSI                    FRI 09/05/97 11:42 Page:261


      811        1        /*T***********************************************************/
      812        2        /*T*                                                         */
      813        3        /*T* Copyright (c) Bull HN Information Systems Inc., 1997    */
      814        4        /*T*                                                         */
      815        5        /*T***********************************************************/
      816        6        /************************************************************/
      817        7        /*     Release    dcb    function                           */
      818        8        /************************************************************/
      819        9        SYS_FUNC_RELDCB: PROC ALTRET;

      9  3 000000   000000 700200 xent  SYS_FUNC_RE* TSX0  ! X66_AUTO_0
         3 000001   000004 000000                    ZERO    4,0

      820       10    1   DCL SYS_FUNC_ERRMSG ENTRY ALTRET;
      821       11         %INCLUDE CP_6;
      822       92         %INCLUDE CP_6_SUBS;
      823      632         %B$TCB;
      824      635         %B$EXCFR;
      825      653         %INCLUDE B_ERRORS_C;
      826     1780         %INCLUDE ZI_GLOBAL_DBUTIL;
      827     1958         %SYS_FUNC;
      828     2050         %MISC_DCLS;
      829     2103         %FPT_RELDCB(FPTN=RELEASE);
      830     2117
      831     2118    1       RELEASE.V.DCB# = DCBSF;

   2118  3 000002   000000 220000 xsym               LDX0    DCBSF
         3 000003   000002 740000 2                  STX0    RELEASE+2

      832     2119    1       CALL M$RELDCB(RELEASE) ALTRET(REL_ERR);

   2119  3 000004   000000 630400 2                  EPPR0   RELEASE
         3 000005   460003 713400                    CLIMB   alt,+24579
         3 000006   400000 401760                    pmme    nvectors=1
         3 000007   000011 702000 3                  TSX2    REL_ERR

PL6.E3A0      #018=SYS_FUNC_RELDCB File=ZIC$IDSFUNCS.:ZIC0TSI                    FRI 09/05/97 11:42 Page:262
      833     2120    1       RETURN;

   2120  3 000010   000000 702200 xent               TSX2  ! X66_ARET

      834     2121
      835     2122    1   REL_ERR:
      836     2123    1       MONITOR_ERR = B$TCB$->B$TCB.ALT$->B$EXCFR.ERR;

   2123  3 000011   000000 470400 xsym  REL_ERR      LDP0    B$TCB$
         3 000012   000000 471500                    LDP1    0,,PR0
         3 000013   100102 236100                    LDQ     66,,PR1
         3 000014   000000 756000 xsym               STQ     MSGCODE

      837     2124    1       INCL_ERR = %YES#;

   2124  3 000015   400000 236003                    LDQ     -131072,DU
         3 000016   000000 756000 xsym               STQ     INCL_ERR

      838     2125    1       CALL SYS_FUNC_ERRMSG;

   2125  3 000017   000000 631400 4                  EPPR1   0
         3 000020   000000 701000 xent               TSX1    SYS_FUNC_ERRMSG
         3 000021   000000 011000                    NOP     0

      839     2126    1       ALTRETURN;

   2126  3 000022   000000 702200 xent               TSX2  ! X66_AALT

RELEASE
 Sect OctLoc
   2     000   000001 777640   000002 006000   000000 000000   000000 000000    ................

(unnamed)
 Sect OctLoc
   4     000   000000 000000                                                    ....
      840     2127    1   END SYS_FUNC_RELDCB;
      841     2128        %EOD;
PL6.E3A0      #018=SYS_FUNC_RELDCB File=ZIC$IDSFUNCS.:ZIC0TSI                    FRI 09/05/97 11:42 Page:263

PL6.E3A0      #018=SYS_FUNC_RELDCB File=ZIC$IDSFUNCS.:ZIC0TSI                    FRI 09/05/97 11:42 Page:264
--  Include file information  --

   ZI_GLOBAL_DBUTIL.:ZIC0TOU  is referenced.
   B_ERRORS_C.:LIB_E05  is referenced.
   CP_6_SUBS.:LIB_E05  is referenced.
   CP_6.:LIB_E05  cannot be made into a system file and is referenced.
   B$JIT_C.:E05TOU  was found in the system file and is never referenced.
   CP_6_C.:E05TOU  was found in the system file and is referenced.
      No diagnostics issued in procedure SYS_FUNC_RELDCB.

   Procedure SYS_FUNC_RELDCB requires 19 words for executable code.
   Procedure SYS_FUNC_RELDCB requires 4 words of local(AUTO) storage.
PL6.E3A0      #018=SYS_FUNC_RELDCB File=ZIC$IDSFUNCS.:ZIC0TSI                    FRI 09/05/97 11:42 Page:265
          *** CROSS REFERENCE LISTING ***
**     DENOTES     IDENTIFIER DEFINITION
<<                 IDENTIFIER'S VALUE SET
>>                 IDENTIFIER'S VALUE USED
<>                 IDENTIFIER SET AND/OR USED
--                 IDENTIFIER REFERENCED
PL6.E3A0      #018=SYS_FUNC_RELDCB File=ZIC$IDSFUNCS.:ZIC0TSI                    FRI 09/05/97 11:42 Page:266
          MINI XREF LISTING

B$EXCFR.ASL
       636**DCL       636--REDEF
B$EXCFR.ERR
       650**DCL      2123>>ASSIGN
B$EXCFR.ERR.ERR#
       650**DCL       650--REDEF
B$EXCFR.EVID
       649**DCL       649--REDEF     650--REDEF
B$EXCFR.IR
       637**DCL       637--REDEF
B$EXCFR.PREVSZ
       636**DCL       636--REDEF
B$EXCFR.SUBC
       648**DCL       648--REDEF     649--REDEF     649--REDEF
B$TCB.ALT$
       633**DCL      2123>>ASSIGN
B$TCB$
      2087**DCL      2123>>ASSIGN
COUNTSF
      2039**DCL      2040--REDEF
DCBSF
      1968**DCL      2118>>ASSIGN
ENCRP_SEEDSF
      1997**DCL      1998--REDEF
ERRCODESF
      1999**DCL      2004--REDEF
FIDSF_RD
      2015**DCL      2016--REDEF
HELPCODE
      2033**DCL      2038--REDEF
ICHKSUM
      2098**DCL      2099--REDEF
PL6.E3A0      #018=SYS_FUNC_RELDCB File=ZIC$IDSFUNCS.:ZIC0TSI                    FRI 09/05/97 11:42 Page:267
INCL_ERR
      2011**DCL      2124<<ASSIGN
I_O_BUF$
      2076**DCL      2077--IMP-PTR
KEYVSF
      1971**DCL      1976--REDEF
KEYVSF.WD_ONE
      1973**DCL      1974--REDEF
M$RELDCB
        26**DCL-ENT  2119--CALL
MONITOR_ERR
      2006**DCL      2123<<ASSIGN
MSGCODE
      2005**DCL      2006--REDEF
REC$
      2057**DCL      2080--IMP-PTR
REC_DATA_LN
      2085**DCL      2084--IMP-SIZ
RELEASE
      2114**DCL      2119<>CALL
RELEASE.V
      2114**DCL      2114--DCLINIT
RELEASE.V.DCB#
      2114**DCL      2118<<ASSIGN
REL_ERR
      2123**LABEL    2119--CALLALT
SYS_FUNC_ERRMSG
        10**DCL-ENT  2125--CALL

PL6.E3A0      #019=SYS_FUNC_CORRES File=ZIC$IDSFUNCS.:ZIC0TSI                    FRI 09/05/97 11:42 Page:268
      842        1        /*T***********************************************************/
      843        2        /*T*                                                         */
      844        3        /*T* Copyright (c) Bull HN Information Systems Inc., 1997    */
      845        4        /*T*                                                         */
      846        5        /*T***********************************************************/
      847        6        SYS_FUNC_CORRES: PROC (DCB_ONE,DCB_TWO) ALTRET;
      848        7    1   DCL DCB_ONE UBIN(18) ALIGNED;
      849        8    1   DCL DCB_TWO UBIN(18) ALIGNED;
      850        9        %INCLUDE CP_6;
      851       90        %INCLUDE CP_6_SUBS;
      852      630        %B$TCB;
      853      633        %B$EXCFR;
      854      651        %FPT_CORRES (FPTN = CORRES_FPT);
      855      665    1       CORRES_FPT.V.DCB1# = DCB_ONE;
      856      666    1       CORRES_FPT.V.DCB2# = DCB_TWO;
      857      667    1       CALL M$CORRES(CORRES_FPT) ALTRET (CORRES_ERR);
      858      668    1       RETURN;
      859      669    1   CORRES_ERR:
      860      670    1       ALTRETURN;
      861      671    1   END SYS_FUNC_CORRES;
      862      672        %EOD;

PL6.E3A0      #019=SYS_FUNC_CORRES File=ZIC$IDSFUNCS.:ZIC0TSI                    FRI 09/05/97 11:42 Page:269
--  Include file information  --

   CP_6_SUBS.:LIB_E05  is referenced.
   CP_6.:LIB_E05  cannot be made into a system file and is referenced.
   B$JIT_C.:E05TOU  was found in the system file and is never referenced.
   CP_6_C.:E05TOU  was found in the system file and is referenced.
      No diagnostics issued in procedure SYS_FUNC_CORRES.

   Procedure SYS_FUNC_CORRES requires 14 words for executable code.
   Procedure SYS_FUNC_CORRES requires 6 words of local(AUTO) storage.

PL6.E3A0      #019=SYS_FUNC_CORRES File=ZIC$IDSFUNCS.:ZIC0TSI                    FRI 09/05/97 11:42 Page:270

 Object Unit name= SYS_FUNC_CORRES                            File name= ZIC$IDSFUNCS.:ZIC0TOU
 UTS= SEP 05 '97 11:42:24.84 FRI                              Compiler= PL-6/E31         Sev=      00
 SharedLib= :SHARED_SYSTEM                                    Alt SharedLib=


    ****  Control sections  ****

 Sect   Type Bound  Init  Size OctSiz  Section name(segment info)
    0   DCB   even  none     0      0  M$UC
    1   Data  even  none     4      4  SYS_FUNC_CORRES
    2   Proc  even  none    14     16  SYS_FUNC_CORRES

    ****  Entry defs  ****

                              Check   Calling
                             calling  sequence
  Sect OctLoc Primary Altret sequence   type   Parms  Name
     2      0   yes    yes     yes      Std        2  SYS_FUNC_CORRES

  ****  Entry refs  ****

         Check        Calling
        calling       sequence
Altret sequence SRef   type   Args  Name
                       nStd      0 X66_AUTO_2
                       nStd      0 X66_ARET
                       nStd      0 X66_AALT

  ****  Data refs  ****

  Flags:  r = read only, s = secondary
Flgs Name                             Flgs Name                             Flgs Name
     M$UC
PL6.E3A0      #019=SYS_FUNC_CORRES File=ZIC$IDSFUNCS.:ZIC0TSI                    FRI 09/05/97 11:42 Page:271

  ****  Segment refs  ****

  Flags:  r = read only, s = secondary
Flgs Name                             Flgs Name                             Flgs Name
     ISSID
PL6.E3A0      #019=SYS_FUNC_CORRES File=ZIC$IDSFUNCS.:ZIC0TSI                    FRI 09/05/97 11:42 Page:272


      842        1        /*T***********************************************************/
      843        2        /*T*                                                         */
      844        3        /*T* Copyright (c) Bull HN Information Systems Inc., 1997    */
      845        4        /*T*                                                         */
      846        5        /*T***********************************************************/
      847        6        SYS_FUNC_CORRES: PROC (DCB_ONE,DCB_TWO) ALTRET;

      6  2 000000   000000 700200 xent  SYS_FUNC_CO* TSX0  ! X66_AUTO_2
         2 000001   000006 000002                    ZERO    6,2

      848        7    1   DCL DCB_ONE UBIN(18) ALIGNED;
      849        8    1   DCL DCB_TWO UBIN(18) ALIGNED;
      850        9        %INCLUDE CP_6;
      851       90        %INCLUDE CP_6_SUBS;
      852      630        %B$TCB;
      853      633        %B$EXCFR;
      854      651        %FPT_CORRES (FPTN = CORRES_FPT);
      855      665    1       CORRES_FPT.V.DCB1# = DCB_ONE;

    665  2 000002   200003 470500                    LDP0    @DCB_ONE,,AUTO
         2 000003   000000 220100                    LDX0    0,,PR0
         2 000004   000002 740000 1                  STX0    CORRES_FPT+2

      856      666    1       CORRES_FPT.V.DCB2# = DCB_TWO;

    666  2 000005   200004 471500                    LDP1    @DCB_TWO,,AUTO
         2 000006   100000 221100                    LDX1    0,,PR1
         2 000007   000002 441000 1                  SXL1    CORRES_FPT+2

      857      667    1       CALL M$CORRES(CORRES_FPT) ALTRET (CORRES_ERR);

    667  2 000010   000000 630400 1                  EPPR0   CORRES_FPT
         2 000011   460000 713400                    CLIMB   alt,+24576
         2 000012   400000 401760                    pmme    nvectors=1
         2 000013   000015 702000 2                  TSX2    CORRES_ERR

PL6.E3A0      #019=SYS_FUNC_CORRES File=ZIC$IDSFUNCS.:ZIC0TSI                    FRI 09/05/97 11:42 Page:273
      858      668    1       RETURN;

    668  2 000014   000000 702200 xent               TSX2  ! X66_ARET

      859      669    1   CORRES_ERR:
      860      670    1       ALTRETURN;

    670  2 000015   000000 702200 xent  CORRES_ERR   TSX2  ! X66_AALT

CORRES_FPT
 Sect OctLoc
   1     000   000001 777640   000002 006000   000000 000000   ****** ******    ................
      861      671    1   END SYS_FUNC_CORRES;
      862      672        %EOD;

PL6.E3A0      #019=SYS_FUNC_CORRES File=ZIC$IDSFUNCS.:ZIC0TSI                    FRI 09/05/97 11:42 Page:274
--  Include file information  --

   CP_6_SUBS.:LIB_E05  is referenced.
   CP_6.:LIB_E05  cannot be made into a system file and is referenced.
   B$JIT_C.:E05TOU  was found in the system file and is never referenced.
   CP_6_C.:E05TOU  was found in the system file and is referenced.
      No diagnostics issued in procedure SYS_FUNC_CORRES.

   Procedure SYS_FUNC_CORRES requires 14 words for executable code.
   Procedure SYS_FUNC_CORRES requires 6 words of local(AUTO) storage.
PL6.E3A0      #019=SYS_FUNC_CORRES File=ZIC$IDSFUNCS.:ZIC0TSI                    FRI 09/05/97 11:42 Page:275
          *** CROSS REFERENCE LISTING ***
**     DENOTES     IDENTIFIER DEFINITION
<<                 IDENTIFIER'S VALUE SET
>>                 IDENTIFIER'S VALUE USED
<>                 IDENTIFIER SET AND/OR USED
--                 IDENTIFIER REFERENCED
PL6.E3A0      #019=SYS_FUNC_CORRES File=ZIC$IDSFUNCS.:ZIC0TSI                    FRI 09/05/97 11:42 Page:276
          MINI XREF LISTING

B$EXCFR.ASL
       634**DCL       634--REDEF
B$EXCFR.ERR.ERR#
       648**DCL       648--REDEF
B$EXCFR.EVID
       647**DCL       647--REDEF     648--REDEF
B$EXCFR.IR
       635**DCL       635--REDEF
B$EXCFR.PREVSZ
       634**DCL       634--REDEF
B$EXCFR.SUBC
       646**DCL       646--REDEF     647--REDEF     647--REDEF
CORRES_ERR
       670**LABEL     667--CALLALT
CORRES_FPT
       662**DCL       667<>CALL
CORRES_FPT.V
       662**DCL       662--DCLINIT
CORRES_FPT.V.DCB1#
       662**DCL       665<<ASSIGN
CORRES_FPT.V.DCB2#
       663**DCL       666<<ASSIGN
DCB_ONE
         7**DCL         6--PROC      665>>ASSIGN
DCB_TWO
         8**DCL         6--PROC      666>>ASSIGN
M$CORRES
        23**DCL-ENT   667--CALL

PL6.E3A0      #020=SYS_FUNC_CHECK File=ZIC$IDSFUNCS.:ZIC0TSI                     FRI 09/05/97 11:42 Page:277
      863        1        /*T***********************************************************/
      864        2        /*T*                                                         */
      865        3        /*T* Copyright (c) Bull HN Information Systems Inc., 1997    */
      866        4        /*T*                                                         */
      867        5        /*T***********************************************************/
      868        6        SYS_FUNC_CHECK: PROC ALTRET;
      869        7    1   DCL B$TCB$ PTR SYMREF ALIGNED;
      870        8    1   DCL SYS_FUNC_ERRMSG ENTRY ALTRET;
      871        9        %INCLUDE CP_6;
      872       90        %INCLUDE CP_6_SUBS;
      873      630        %B$TCB;
      874      633        %B$EXCFR;
      875      651        %FPT_CHECK;
      876      665        %INCLUDE ZI_GLOBAL_DBUTIL;
      877      843         %SYS_FUNC;
      878      935    1       FPT_CHECK.V.DCB# = DCBSF;
      879      936    1       CALL M$CHECK(FPT_CHECK) ALTRET (CHECK_ERR);
      880      937    1       RETURN;
      881      938    1   CHECK_ERR:
      882      939    1       MONITOR_ERR = B$TCB$->B$TCB.ALT$->B$EXCFR.ERR;
      883      940    1       INCL_ERR = %YES#;
      884      941    1       CALL SYS_FUNC_ERRMSG;
      885      942    1       ALTRETURN;
      886      943    1   END SYS_FUNC_CHECK;

PL6.E3A0      #020=SYS_FUNC_CHECK File=ZIC$IDSFUNCS.:ZIC0TSI                     FRI 09/05/97 11:42 Page:278
--  Include file information  --

   ZI_GLOBAL_DBUTIL.:ZIC0TOU  is referenced.
   CP_6_SUBS.:LIB_E05  is referenced.
   CP_6.:LIB_E05  cannot be made into a system file and is referenced.
   B$JIT_C.:E05TOU  was found in the system file and is never referenced.
   CP_6_C.:E05TOU  was found in the system file and is referenced.
      No diagnostics issued in procedure SYS_FUNC_CHECK.

   Procedure SYS_FUNC_CHECK requires 19 words for executable code.
   Procedure SYS_FUNC_CHECK requires 4 words of local(AUTO) storage.

    No errors detected in file ZIC$IDSFUNCS.:ZIC0TSI    .

PL6.E3A0      #020=SYS_FUNC_CHECK File=ZIC$IDSFUNCS.:ZIC0TSI                     FRI 09/05/97 11:42 Page:279

 Object Unit name= SYS_FUNC_CHECK                             File name= ZIC$IDSFUNCS.:ZIC0TOU
 UTS= SEP 05 '97 11:42:29.64 FRI                              Compiler= PL-6/E31         Sev=      00
 SharedLib= :SHARED_SYSTEM                                    Alt SharedLib=


    ****  Control sections  ****

 Sect   Type Bound  Init  Size OctSiz  Section name(segment info)
    0   DCB   even  none     0      0  M$UC
    1   Data  even  none     4      4  SYS_FUNC_CHECK
    2   Proc  even  none    19     23  SYS_FUNC_CHECK
    3  RoData even  none     1      1  SYS_FUNC_CHECK

    ****  Entry defs  ****

                              Check   Calling
                             calling  sequence
  Sect OctLoc Primary Altret sequence   type   Parms  Name
     2      0   yes    yes     yes      Std        0  SYS_FUNC_CHECK

  ****  Entry refs  ****

         Check        Calling
        calling       sequence
Altret sequence SRef   type   Args  Name
 yes     yes           Std       0 SYS_FUNC_ERRMSG
                       nStd      0 X66_AUTO_0
                       nStd      0 X66_ARET
                       nStd      0 X66_AALT
PL6.E3A0      #020=SYS_FUNC_CHECK File=ZIC$IDSFUNCS.:ZIC0TSI                     FRI 09/05/97 11:42 Page:280

  ****  Data refs  ****

  Flags:  r = read only, s = secondary
Flgs Name                             Flgs Name                             Flgs Name
     B$TCB$                                M$UC                                  BLKLSF
     KEYLSF                                KEYXSF                                DCBSF
     ORGSF                                 KEYSF                                 KEYVSF
     ACSSF                                 NOTIMESF                              FUNSF
     ASNSF                                 TESTSF                                XTENSIZESF
     DISPSF                                WAITSF                                VFCSF
     FULLSF                                BKUPSF                                BUFLNSF
     BUFSF                                 SOURCESF                              DESTSF
     DATESF                                TIMESF                                UTSSF
     DAYSF                                 TSTAMPSF                              ENCRP_SEEDSF
     ERRCODESF                             MSGCODE                               INCL_ERR
     ERR_INSERT                            FIDSF_RD                              ACNT
     EXISTSF                               SHARESF                               DCBNMSF
     KEYRSF                                NO_KEYSF                              REASGNSF
     CARRY_ATTRIBUTESF                     SUBMESSF                              SPKY_OPNSF
     POSSF                                 ERRFLGSF                              MERGESF
     FSA_FLAG                              RELGSF                                UNUSED
     HELPCODE                              COUNTSF                               INDEXSF
     GAP                                   PSNSF                                 ACNTSF
     KEY_SHADWSF

  ****  Segment refs  ****

  Flags:  r = read only, s = secondary
Flgs Name                             Flgs Name                             Flgs Name
     ISSID
PL6.E3A0      #020=SYS_FUNC_CHECK File=ZIC$IDSFUNCS.:ZIC0TSI                     FRI 09/05/97 11:42 Page:281


      863        1        /*T***********************************************************/
      864        2        /*T*                                                         */
      865        3        /*T* Copyright (c) Bull HN Information Systems Inc., 1997    */
      866        4        /*T*                                                         */
      867        5        /*T***********************************************************/
      868        6        SYS_FUNC_CHECK: PROC ALTRET;

      6  2 000000   000000 700200 xent  SYS_FUNC_CH* TSX0  ! X66_AUTO_0
         2 000001   000004 000000                    ZERO    4,0

      869        7    1   DCL B$TCB$ PTR SYMREF ALIGNED;
      870        8    1   DCL SYS_FUNC_ERRMSG ENTRY ALTRET;
      871        9        %INCLUDE CP_6;
      872       90        %INCLUDE CP_6_SUBS;
      873      630        %B$TCB;
      874      633        %B$EXCFR;
      875      651        %FPT_CHECK;
      876      665        %INCLUDE ZI_GLOBAL_DBUTIL;
      877      843         %SYS_FUNC;
      878      935    1       FPT_CHECK.V.DCB# = DCBSF;

    935  2 000002   000000 220000 xsym               LDX0    DCBSF
         2 000003   000002 740000 1                  STX0    FPT_CHECK+2

      879      936    1       CALL M$CHECK(FPT_CHECK) ALTRET (CHECK_ERR);

    936  2 000004   000000 630400 1                  EPPR0   FPT_CHECK
         2 000005   450002 713400                    CLIMB   alt,+20482
         2 000006   400000 401760                    pmme    nvectors=1
         2 000007   000011 702000 2                  TSX2    CHECK_ERR

      880      937    1       RETURN;

    937  2 000010   000000 702200 xent               TSX2  ! X66_ARET

      881      938    1   CHECK_ERR:
PL6.E3A0      #020=SYS_FUNC_CHECK File=ZIC$IDSFUNCS.:ZIC0TSI                     FRI 09/05/97 11:42 Page:282
      882      939    1       MONITOR_ERR = B$TCB$->B$TCB.ALT$->B$EXCFR.ERR;

    939  2 000011   000000 470400 xsym  CHECK_ERR    LDP0    B$TCB$
         2 000012   000000 471500                    LDP1    0,,PR0
         2 000013   100102 236100                    LDQ     66,,PR1
         2 000014   000000 756000 xsym               STQ     MSGCODE

      883      940    1       INCL_ERR = %YES#;

    940  2 000015   400000 236003                    LDQ     -131072,DU
         2 000016   000000 756000 xsym               STQ     INCL_ERR

      884      941    1       CALL SYS_FUNC_ERRMSG;

    941  2 000017   000000 631400 3                  EPPR1   0
         2 000020   000000 701000 xent               TSX1    SYS_FUNC_ERRMSG
         2 000021   000000 011000                    NOP     0

      885      942    1       ALTRETURN;

    942  2 000022   000000 702200 xent               TSX2  ! X66_AALT

FPT_CHECK
 Sect OctLoc
   1     000   000001 777640   000002 006000   000000 000000   000000 000000    ................

(unnamed)
 Sect OctLoc
   3     000   000000 000000                                                    ....
      886      943    1   END SYS_FUNC_CHECK;

PL6.E3A0      #020=SYS_FUNC_CHECK File=ZIC$IDSFUNCS.:ZIC0TSI                     FRI 09/05/97 11:42 Page:283
--  Include file information  --

   ZI_GLOBAL_DBUTIL.:ZIC0TOU  is referenced.
   CP_6_SUBS.:LIB_E05  is referenced.
   CP_6.:LIB_E05  cannot be made into a system file and is referenced.
   B$JIT_C.:E05TOU  was found in the system file and is never referenced.
   CP_6_C.:E05TOU  was found in the system file and is referenced.
      No diagnostics issued in procedure SYS_FUNC_CHECK.

   Procedure SYS_FUNC_CHECK requires 19 words for executable code.
   Procedure SYS_FUNC_CHECK requires 4 words of local(AUTO) storage.

    No errors detected in file ZIC$IDSFUNCS.:ZIC0TSI    .
PL6.E3A0      #020=SYS_FUNC_CHECK File=ZIC$IDSFUNCS.:ZIC0TSI                     FRI 09/05/97 11:42 Page:284
          *** CROSS REFERENCE LISTING ***
**     DENOTES     IDENTIFIER DEFINITION
<<                 IDENTIFIER'S VALUE SET
>>                 IDENTIFIER'S VALUE USED
<>                 IDENTIFIER SET AND/OR USED
--                 IDENTIFIER REFERENCED
PL6.E3A0      #020=SYS_FUNC_CHECK File=ZIC$IDSFUNCS.:ZIC0TSI                     FRI 09/05/97 11:42 Page:285
          MINI XREF LISTING

B$EXCFR.ASL
       634**DCL       634--REDEF
B$EXCFR.ERR
       648**DCL       939>>ASSIGN
B$EXCFR.ERR.ERR#
       648**DCL       648--REDEF
B$EXCFR.EVID
       647**DCL       647--REDEF     648--REDEF
B$EXCFR.IR
       635**DCL       635--REDEF
B$EXCFR.PREVSZ
       634**DCL       634--REDEF
B$EXCFR.SUBC
       646**DCL       646--REDEF     647--REDEF     647--REDEF
B$TCB.ALT$
       631**DCL       939>>ASSIGN
B$TCB$
         7**DCL       939>>ASSIGN
CHECK_ERR
       939**LABEL     936--CALLALT
COUNTSF
       924**DCL       925--REDEF
DCBSF
       853**DCL       935>>ASSIGN
ENCRP_SEEDSF
       882**DCL       883--REDEF
ERRCODESF
       884**DCL       889--REDEF
FIDSF_RD
       900**DCL       901--REDEF
FPT_CHECK
       662**DCL       936<>CALL
PL6.E3A0      #020=SYS_FUNC_CHECK File=ZIC$IDSFUNCS.:ZIC0TSI                     FRI 09/05/97 11:42 Page:286
FPT_CHECK.V
       662**DCL       662--DCLINIT
FPT_CHECK.V.DCB#
       662**DCL       935<<ASSIGN
HELPCODE
       918**DCL       923--REDEF
INCL_ERR
       896**DCL       940<<ASSIGN
KEYVSF
       856**DCL       861--REDEF
KEYVSF.WD_ONE
       858**DCL       859--REDEF
M$CHECK
        20**DCL-ENT   936--CALL
MONITOR_ERR
       891**DCL       939<<ASSIGN
MSGCODE
       890**DCL       891--REDEF
SYS_FUNC_ERRMSG
         8**DCL-ENT   941--CALL
