
PL6.E3A0      #001=ZIG$COMP File=ZIG$COMP.:ZIC0TSI                               FRI 09/05/97 11:43 Page:1
        1        1        /*M*     ZIG$COMP  I-D-S/II       DBACS */
        2        2        /*T***********************************************************/
        3        3        /*T*                                                         */
        4        4        /*T* Copyright (c) Bull HN Information Systems Inc., 1997    */
        5        5        /*T*                                                         */
        6        6        /*T***********************************************************/
        7        7        /*P*
        8        8        NAME:    ZIG$COMP
        9        9        PURPOSE: TO COMPRESS A RECORD UP TO 80 CHARS BY TAKING OUT ANY
       10       10                 FIELDS OF MORE THEN 3 BLANKS.
       11       11                 THE FORMAT IT PUTS OUT THE RECORDS ARE:
       12       12                 {BLANK COUNT+CHAR FOLLOWING}{CHAR FOLLOWING}TEXT
       13       13                 A LINE IS TERMANATED BY A 127 DEC. AND THE WHOLE TEXT IS
       14       14                 TERMINATED BY A 126.
       15       15        */
       16       16        ZIG$COMP:
       17       17            PROC(SIZE,TYPE,REC);
       18       18    1   DCL SIZE UBIN (36);
       19       19    1   DCL TYPE CHAR (4);
       20       20    1   DCL REC CHAR (80);
       21       21    1   DCL P_REC CHAR (256) STATIC INIT (' ');
       22       22    1   DCL I UBIN (9) STATIC;
       23       23    1   DCL J UBIN (9) STATIC;
       24       24    1   DCL START_POS UBIN (36) STATIC INIT (0);
       25       25    1   DCL OUT_REC CHAR (240) STATIC INIT (' ');
       26       26    1   DCL BLANK_COUNT UBIN (9) STATIC;
       27       27    1   DCL WT_2STAR ENTRY (2);
       28       28    1   DCL P PTR STATIC;
       29       29    1   DCL 1 STRUC_IN BASED (P),
       30       30    1         2 BEGIN_BLANK UBIN (9) UNAL,
       31       31    1         2 CHAR_NEXT UBIN (9) UNAL,
       32       32    1         2 STRING CHAR (80) UNAL;
       33       33        %EJECT;
PL6.E3A0      #001=ZIG$COMP File=ZIG$COMP.:ZIC0TSI                               FRI 09/05/97 11:43 Page:2
       34       34    1       BLANK_COUNT=0;
       35       35    1       P=PINCRC(ADDR(OUT_REC),START_POS);
       36       36    1       IF SIZE=99
       37       37    2       THEN DO; /* End of commpressing */
       38       38    2           STRUC_IN.BEGIN_BLANK=126;
       39       39    2           P_REC=SUBSTR(OUT_REC,0,80);
       40       40    2           CALL WT_2STAR(TYPE,P_REC);
       41       41    2           START_POS=0; /* Reset things for next enter */
       42       42    2           OUT_REC=' ';
       43       43    2           RETURN;
       44       44    2           END;
       45       45    1       IF (SIZE~=0 AND REC ~= ' ')
       46       46    2       THEN DO;
       47       47    3           DO I=0 TO SIZE-1;
       48       48    3               IF (SUBSTR(REC,I,1)=' ')
       49       49    3               THEN BLANK_COUNT=BLANK_COUNT+1;
       50       50    4               ELSE DO;
       51       51    4                   J=I;
       52       52    5                   DO WHILE (SUBSTR(REC,J,3)~='   ' AND J<SIZE);
       53       53    5                       J=J+1;
       54       54    5                       END;
       55       55    4                   STRUC_IN.BEGIN_BLANK=BLANK_COUNT+J-I;
       56       56    4                   STRUC_IN.CHAR_NEXT=J-I;
       57       57    4                   STRUC_IN.STRING=SUBSTR(REC,I,J-I);
       58       58    4                   START_POS=START_POS+2+J-I;
       59       59    4                   I=J;
       60       60    4                   BLANK_COUNT=0;
       61       61    4                   P=PINCRC(ADDR(OUT_REC),START_POS);
       62       62    4                   END;
       63       63    3               END;
       64       64    2           END;
       65       65    1       P=PINCRC(ADDR(OUT_REC),START_POS);
       66       66    1       STRUC_IN.BEGIN_BLANK=127;
       67       67    1       START_POS=START_POS+1;
       68       68    2       DO WHILE (START_POS >= 79);
       69       69    2           P_REC=SUBSTR(OUT_REC,0,80);
       70       70    2           CALL WT_2STAR(TYPE,P_REC);
PL6.E3A0      #001=ZIG$COMP File=ZIG$COMP.:ZIC0TSI                               FRI 09/05/97 11:43 Page:3
       71       71    2           OUT_REC=SUBSTR(OUT_REC,79);
       72       72    2           START_POS=START_POS-79;
       73       73    2           END;
       74       74    1   END ZIG$COMP;

PL6.E3A0      #001=ZIG$COMP File=ZIG$COMP.:ZIC0TSI                               FRI 09/05/97 11:43 Page:4
--  Include file information  --

   B$JIT_C.:E05TOU  was found in the system file and is never referenced.
   CP_6_C.:E05TOU  was found in the system file and is never referenced.
      No diagnostics issued in procedure ZIG$COMP.

   Procedure ZIG$COMP requires 164 words for executable code.
   Procedure ZIG$COMP requires 10 words of local(AUTO) storage.

    No errors detected in file ZIG$COMP.:ZIC0TSI    .

PL6.E3A0      #001=ZIG$COMP File=ZIG$COMP.:ZIC0TSI                               FRI 09/05/97 11:43 Page:5

 Object Unit name= ZIG$COMP                                   File name= ZIG$COMP.:ZIC0TOU
 UTS= SEP 05 '97 11:43:08.72 FRI                              Compiler= PL-6/E31         Sev=      00
 SharedLib= :SHARED_SYSTEM                                    Alt SharedLib=


    ****  Control sections  ****

 Sect   Type Bound  Init  Size OctSiz  Section name(segment info)
    0   Data  even  none   129    201  ZIG$COMP
    1  RoData even  UTS      1      1  ZIG$COMP
    2   Proc  even  none   164    244  ZIG$COMP
    3  RoData even  none     6      6  ZIG$COMP

    ****  Entry defs  ****

                              Check   Calling
                             calling  sequence
  Sect OctLoc Primary Altret sequence   type   Parms  Name
     2      0   yes            yes      Std        3  ZIG$COMP

  ****  Entry refs  ****

         Check        Calling
        calling       sequence
Altret sequence SRef   type   Args  Name
         yes           Std       2 WT_2STAR
                       nStd      0 X66_AUTO_3
                       nStd      0 X66_ARET

  ****  Segment refs  ****

  Flags:  r = read only, s = secondary
Flgs Name                             Flgs Name                             Flgs Name
     ISSID
PL6.E3A0      #001=ZIG$COMP File=ZIG$COMP.:ZIC0TSI                               FRI 09/05/97 11:43 Page:6


        1        1        /*M*     ZIG$COMP  I-D-S/II       DBACS */
        2        2        /*T***********************************************************/
        3        3        /*T*                                                         */
        4        4        /*T* Copyright (c) Bull HN Information Systems Inc., 1997    */
        5        5        /*T*                                                         */
        6        6        /*T***********************************************************/
        7        7        /*P*
        8        8        NAME:    ZIG$COMP
        9        9        PURPOSE: TO COMPRESS A RECORD UP TO 80 CHARS BY TAKING OUT ANY
       10       10                 FIELDS OF MORE THEN 3 BLANKS.
       11       11                 THE FORMAT IT PUTS OUT THE RECORDS ARE:
       12       12                 {BLANK COUNT+CHAR FOLLOWING}{CHAR FOLLOWING}TEXT
       13       13                 A LINE IS TERMANATED BY A 127 DEC. AND THE WHOLE TEXT IS
       14       14                 TERMINATED BY A 126.
       15       15        */
       16       16        ZIG$COMP:
       17       17            PROC(SIZE,TYPE,REC);

     17  2 000000   000000 700200 xent  ZIG$COMP     TSX0  ! X66_AUTO_3
         2 000001   000012 000003                    ZERO    10,3

       18       18    1   DCL SIZE UBIN (36);
       19       19    1   DCL TYPE CHAR (4);
       20       20    1   DCL REC CHAR (80);
       21       21    1   DCL P_REC CHAR (256) STATIC INIT (' ');
       22       22    1   DCL I UBIN (9) STATIC;
       23       23    1   DCL J UBIN (9) STATIC;
       24       24    1   DCL START_POS UBIN (36) STATIC INIT (0);
       25       25    1   DCL OUT_REC CHAR (240) STATIC INIT (' ');
       26       26    1   DCL BLANK_COUNT UBIN (9) STATIC;
       27       27    1   DCL WT_2STAR ENTRY (2);
       28       28    1   DCL P PTR STATIC;
       29       29    1   DCL 1 STRUC_IN BASED (P),
       30       30    1         2 BEGIN_BLANK UBIN (9) UNAL,
       31       31    1         2 CHAR_NEXT UBIN (9) UNAL,
       32       32    1         2 STRING CHAR (80) UNAL;
PL6.E3A0      #001=ZIG$COMP File=ZIG$COMP.:ZIC0TSI                               FRI 09/05/97 11:43 Page:7
       33       33        %EJECT;
PL6.E3A0      #001=ZIG$COMP File=ZIG$COMP.:ZIC0TSI                               FRI 09/05/97 11:43 Page:8
       34       34    1       BLANK_COUNT=0;

     34  2 000002   000177 450000 0                  STZ     BLANK_COUNT

       35       35    1       P=PINCRC(ADDR(OUT_REC),START_POS);

     35  2 000003   000102 236000 0                  LDQ     START_POS
         2 000004   000020 736000                    QLS     16
         2 000005   000000 036000 3                  ADLQ    0
         2 000006   000200 756000 0                  STQ     P

       36       36    1       IF SIZE=99

     36  2 000007   200003 470500                    LDP0    @SIZE,,AUTO
         2 000010   000000 235100                    LDA     0,,PR0
         2 000011   000143 115007                    CMPA    99,DL
         2 000012   000036 601000 2                  TNZ     s:45

       37       37    2       THEN DO; /* End of commpressing */

       38       38    2           STRUC_IN.BEGIN_BLANK=126;

     38  2 000013   000200 471400 0                  LDP1    P
         2 000014   000100 101400                    MRL     fill='000'O
         2 000015   000001 000004 3                  ADSC9   1                        cn=0,n=4
         2 000016   100000 000001                    ADSC9   0,,PR1                   cn=0,n=1

       39       39    2           P_REC=SUBSTR(OUT_REC,0,80);

     39  2 000017   040000 100400                    MLR     fill='040'O
         2 000020   000103 000120 0                  ADSC9   OUT_REC                  cn=0,n=80
         2 000021   000000 000400 0                  ADSC9   P_REC                    cn=0,n=256

       40       40    2           CALL WT_2STAR(TYPE,P_REC);

     40  2 000022   000003 236000 3                  LDQ     3
         2 000023   200004 235100                    LDA     @TYPE,,AUTO
PL6.E3A0      #001=ZIG$COMP File=ZIG$COMP.:ZIC0TSI                               FRI 09/05/97 11:43 Page:9
         2 000024   200006 757100                    STAQ    @REC+1,,AUTO
         2 000025   200006 630500                    EPPR0   @REC+1,,AUTO
         2 000026   000002 631400 3                  EPPR1   2
         2 000027   000000 701000 xent               TSX1    WT_2STAR
         2 000030   000000 011000                    NOP     0

       41       41    2           START_POS=0; /* Reset things for next enter */

     41  2 000031   000102 450000 0                  STZ     START_POS

       42       42    2           OUT_REC=' ';

     42  2 000032   040000 100400                    MLR     fill='040'O
         2 000033   000004 000001 3                  ADSC9   4                        cn=0,n=1
         2 000034   000103 000360 0                  ADSC9   OUT_REC                  cn=0,n=240

       43       43    2           RETURN;

     43  2 000035   000000 702200 xent               TSX2  ! X66_ARET

       44       44    2           END;
       45       45    1       IF (SIZE~=0 AND REC ~= ' ')

     45  2 000036   000000 115003                    CMPA    0,DU
         2 000037   000204 600000 2                  TZE     s:65
         2 000040   200005 471500                    LDP1    @REC,,AUTO
         2 000041   040000 106500                    CMPC    fill='040'O
         2 000042   100000 000120                    ADSC9   0,,PR1                   cn=0,n=80
         2 000043   000004 000001 3                  ADSC9   4                        cn=0,n=1
         2 000044   000204 600000 2                  TZE     s:65

       46       46    2       THEN DO;

       47       47    3           DO I=0 TO SIZE-1;

     47  2 000045   000100 450000 0                  STZ     I
         2 000046   000177 710000 2                  TRA     s:63+3
PL6.E3A0      #001=ZIG$COMP File=ZIG$COMP.:ZIC0TSI                               FRI 09/05/97 11:43 Page:10

       48       48    3               IF (SUBSTR(REC,I,1)=' ')

     48  2 000047   000100 236000 0                  LDQ     I
         2 000050   000033 772000                    QRL     27
         2 000051   200005 470500                    LDP0    @REC,,AUTO
         2 000052   040000 106506                    CMPC    fill='040'O
         2 000053   000000 000001                    ADSC9   0,Q,PR0                  cn=0,n=1
         2 000054   000004 000001 3                  ADSC9   4                        cn=0,n=1
         2 000055   000062 601000 2                  TNZ     s:51

       49       49    3               THEN BLANK_COUNT=BLANK_COUNT+1;

     49  2 000056   000177 236000 0                  LDQ     BLANK_COUNT
         2 000057   001000 036003                    ADLQ    512,DU
         2 000060   000177 552040 0                  STBQ    BLANK_COUNT,'40'O
         2 000061   000174 710000 2                  TRA     s:63

       50       50    4               ELSE DO;

       51       51    4                   J=I;

     51  2 000062   000033 736000                    QLS     27
         2 000063   000101 756000 0                  STQ     J

       52       52    5                   DO WHILE (SUBSTR(REC,J,3)~='   ' AND J<SIZE);

     52  2 000064   000070 710000 2                  TRA     s:54

       53       53    5                       J=J+1;

     53  2 000065   000101 236000 0                  LDQ     J
         2 000066   001000 036003                    ADLQ    512,DU
         2 000067   000101 552040 0                  STBQ    J,'40'O

       54       54    5                       END;

PL6.E3A0      #001=ZIG$COMP File=ZIG$COMP.:ZIC0TSI                               FRI 09/05/97 11:43 Page:11
     54  2 000070   000101 236000 0                  LDQ     J
         2 000071   000033 772000                    QRL     27
         2 000072   200005 470500                    LDP0    @REC,,AUTO
         2 000073   040000 106506                    CMPC    fill='040'O
         2 000074   000000 000003                    ADSC9   0,Q,PR0                  cn=0,n=3
         2 000075   000000 000003 1                  ADSC9   0                        cn=0,n=3
         2 000076   000102 600000 2                  TZE     s:55
         2 000077   200003 471500                    LDP1    @SIZE,,AUTO
         2 000100   100000 116100                    CMPQ    0,,PR1
         2 000101   000065 602000 2                  TNC     s:53

       55       55    4                   STRUC_IN.BEGIN_BLANK=BLANK_COUNT+J-I;

     55  2 000102   200006 756100                    STQ     @REC+1,,AUTO
         2 000103   000177 236000 0                  LDQ     BLANK_COUNT
         2 000104   000033 772000                    QRL     27
         2 000105   200006 036100                    ADLQ    @REC+1,,AUTO
         2 000106   200007 756100                    STQ     @REC+2,,AUTO
         2 000107   000100 236000 0                  LDQ     I
         2 000110   000033 772000                    QRL     27
         2 000111   200010 756100                    STQ     @REC+3,,AUTO
         2 000112   200007 236100                    LDQ     @REC+2,,AUTO
         2 000113   200010 136100                    SBLQ    @REC+3,,AUTO
         2 000114   200011 756100                    STQ     @REC+4,,AUTO
         2 000115   000200 471400 0                  LDP1    P
         2 000116   000100 101500                    MRL     fill='000'O
         2 000117   200011 000004                    ADSC9   @REC+4,,AUTO             cn=0,n=4
         2 000120   100000 000001                    ADSC9   0,,PR1                   cn=0,n=1

       56       56    4                   STRUC_IN.CHAR_NEXT=J-I;

     56  2 000121   000100 236000 0                  LDQ     I
         2 000122   000033 772000                    QRL     27
         2 000123   200006 756100                    STQ     @REC+1,,AUTO
         2 000124   000101 236000 0                  LDQ     J
         2 000125   000033 772000                    QRL     27
         2 000126   200006 136100                    SBLQ    @REC+1,,AUTO
PL6.E3A0      #001=ZIG$COMP File=ZIG$COMP.:ZIC0TSI                               FRI 09/05/97 11:43 Page:12
         2 000127   200007 756100                    STQ     @REC+2,,AUTO
         2 000130   000100 101500                    MRL     fill='000'O
         2 000131   200007 000004                    ADSC9   @REC+2,,AUTO             cn=0,n=4
         2 000132   100000 200001                    ADSC9   0,,PR1                   cn=1,n=1

       57       57    4                   STRUC_IN.STRING=SUBSTR(REC,I,J-I);

     57  2 000133   000100 236000 0                  LDQ     I
         2 000134   000033 772000                    QRL     27
         2 000135   200006 756100                    STQ     @REC+1,,AUTO
         2 000136   000101 236000 0                  LDQ     J
         2 000137   000033 772000                    QRL     27
         2 000140   200006 136100                    SBLQ    @REC+1,,AUTO
         2 000141   200007 756100                    STQ     @REC+2,,AUTO
         2 000142   000100 236000 0                  LDQ     I
         2 000143   000033 772000                    QRL     27
         2 000144   200007 720100                    LXL0    @REC+2,,AUTO
         2 000145   040100 100546                    MLR     fill='040'O
         2 000146   000000 000010                    ADSC9   0,Q,PR0                  cn=0,n=*X0
         2 000147   100000 400120                    ADSC9   0,,PR1                   cn=2,n=80

       58       58    4                   START_POS=START_POS+2+J-I;

     58  2 000150   000101 236000 0                  LDQ     J
         2 000151   000033 772000                    QRL     27
         2 000152   000102 036000 0                  ADLQ    START_POS
         2 000153   200006 756100                    STQ     @REC+1,,AUTO
         2 000154   000100 236000 0                  LDQ     I
         2 000155   000033 772000                    QRL     27
         2 000156   200007 756100                    STQ     @REC+2,,AUTO
         2 000157   200006 236100                    LDQ     @REC+1,,AUTO
         2 000160   200007 136100                    SBLQ    @REC+2,,AUTO
         2 000161   000002 036007                    ADLQ    2,DL
         2 000162   000102 756000 0                  STQ     START_POS

       59       59    4                   I=J;

PL6.E3A0      #001=ZIG$COMP File=ZIG$COMP.:ZIC0TSI                               FRI 09/05/97 11:43 Page:13
     59  2 000163   000101 236000 0                  LDQ     J
         2 000164   000033 772000                    QRL     27
         2 000165   000033 736000                    QLS     27
         2 000166   000100 756000 0                  STQ     I

       60       60    4                   BLANK_COUNT=0;

     60  2 000167   000177 450000 0                  STZ     BLANK_COUNT

       61       61    4                   P=PINCRC(ADDR(OUT_REC),START_POS);

     61  2 000170   000102 236000 0                  LDQ     START_POS
         2 000171   000020 736000                    QLS     16
         2 000172   000000 036000 3                  ADLQ    0
         2 000173   000200 756000 0                  STQ     P

       62       62    4                   END;

       63       63    3               END;

     63  2 000174   000100 236000 0                  LDQ     I
         2 000175   001000 036003                    ADLQ    512,DU
         2 000176   000100 552040 0                  STBQ    I,'40'O
         2 000177   200003 470500                    LDP0    @SIZE,,AUTO
         2 000200   000100 236000 0                  LDQ     I
         2 000201   000033 772000                    QRL     27
         2 000202   000000 116100                    CMPQ    0,,PR0
         2 000203   000047 602000 2                  TNC     s:48

       64       64    2           END;

       65       65    1       P=PINCRC(ADDR(OUT_REC),START_POS);

     65  2 000204   000102 236000 0                  LDQ     START_POS
         2 000205   000020 736000                    QLS     16
         2 000206   000000 036000 3                  ADLQ    0
         2 000207   000200 756000 0                  STQ     P
PL6.E3A0      #001=ZIG$COMP File=ZIG$COMP.:ZIC0TSI                               FRI 09/05/97 11:43 Page:14

       66       66    1       STRUC_IN.BEGIN_BLANK=127;

     66  2 000210   000200 471400 0                  LDP1    P
         2 000211   000100 101400                    MRL     fill='000'O
         2 000212   000005 000004 3                  ADSC9   5                        cn=0,n=4
         2 000213   100000 000001                    ADSC9   0,,PR1                   cn=0,n=1

       67       67    1       START_POS=START_POS+1;

     67  2 000214   000102 235000 0                  LDA     START_POS
         2 000215   000001 035007                    ADLA    1,DL
         2 000216   000102 755000 0                  STA     START_POS

       68       68    2       DO WHILE (START_POS >= 79);

     68  2 000217   000117 115007                    CMPA    79,DL
         2 000220   000243 602000 2                  TNC     s:74

       69       69    2           P_REC=SUBSTR(OUT_REC,0,80);

     69  2 000221   040000 100400                    MLR     fill='040'O
         2 000222   000103 000120 0                  ADSC9   OUT_REC                  cn=0,n=80
         2 000223   000000 000400 0                  ADSC9   P_REC                    cn=0,n=256

       70       70    2           CALL WT_2STAR(TYPE,P_REC);

     70  2 000224   000003 236000 3                  LDQ     3
         2 000225   200004 235100                    LDA     @TYPE,,AUTO
         2 000226   200006 757100                    STAQ    @REC+1,,AUTO
         2 000227   200006 630500                    EPPR0   @REC+1,,AUTO
         2 000230   000002 631400 3                  EPPR1   2
         2 000231   000000 701000 xent               TSX1    WT_2STAR
         2 000232   000000 011000                    NOP     0

       71       71    2           OUT_REC=SUBSTR(OUT_REC,79);

PL6.E3A0      #001=ZIG$COMP File=ZIG$COMP.:ZIC0TSI                               FRI 09/05/97 11:43 Page:15
     71  2 000233   040000 100400                    MLR     fill='040'O
         2 000234   000126 600241 0                  ADSC9   OUT_REC+19               cn=3,n=161
         2 000235   000103 000360 0                  ADSC9   OUT_REC                  cn=0,n=240

       72       72    2           START_POS=START_POS-79;

     72  2 000236   000102 235000 0                  LDA     START_POS
         2 000237   000117 135007                    SBLA    79,DL
         2 000240   000102 755000 0                  STA     START_POS

       73       73    2           END;

     73  2 000241   000117 115007                    CMPA    79,DL
         2 000242   000221 603000 2                  TRC     s:69

       74       74    1   END ZIG$COMP;

     74  2 000243   000000 702200 xent               TSX2  ! X66_ARET

P_REC
 Sect OctLoc
   0     000   040040 040040   040040 040040   040040 040040   040040 040040
   0     074*  040040 040040   040040 040040   040040 040040   040040 040040

START_POS
 Sect OctLoc
   0     102   000000 000000                                                    ....

OUT_REC
 Sect OctLoc
   0     103   040040 040040   040040 040040   040040 040040   040040 040040
   0     173*  040040 040040   040040 040040   040040 040040   040040 040040

(unnamed)
 Sect OctLoc
   1     000   040040 040040

PL6.E3A0      #001=ZIG$COMP File=ZIG$COMP.:ZIC0TSI                               FRI 09/05/97 11:43 Page:16
(unnamed)
 Sect OctLoc
   3     000   000103 006000   000000 000176   000002 000000   000000 006000    .C.....~........
   3     004   040040 040040   000000 000177                                        ....

PL6.E3A0      #001=ZIG$COMP File=ZIG$COMP.:ZIC0TSI                               FRI 09/05/97 11:43 Page:17
--  Include file information  --

   B$JIT_C.:E05TOU  was found in the system file and is never referenced.
   CP_6_C.:E05TOU  was found in the system file and is never referenced.
      No diagnostics issued in procedure ZIG$COMP.

   Procedure ZIG$COMP requires 164 words for executable code.
   Procedure ZIG$COMP requires 10 words of local(AUTO) storage.

    No errors detected in file ZIG$COMP.:ZIC0TSI    .
PL6.E3A0      #001=ZIG$COMP File=ZIG$COMP.:ZIC0TSI                               FRI 09/05/97 11:43 Page:18
          *** CROSS REFERENCE LISTING ***
**     DENOTES     IDENTIFIER DEFINITION
<<                 IDENTIFIER'S VALUE SET
>>                 IDENTIFIER'S VALUE USED
<>                 IDENTIFIER SET AND/OR USED
--                 IDENTIFIER REFERENCED
PL6.E3A0      #001=ZIG$COMP File=ZIG$COMP.:ZIC0TSI                               FRI 09/05/97 11:43 Page:19
          MINI XREF LISTING

BLANK_COUNT
        26**DCL        34<<ASSIGN     49<<ASSIGN     49>>ASSIGN     55>>ASSIGN     60<<ASSIGN
I
        22**DCL        47<<DOINDEX    48>>IF         51>>ASSIGN     55>>ASSIGN     56>>ASSIGN     57>>ASSIGN
        57>>ASSIGN     58>>ASSIGN     59<<ASSIGN
J
        23**DCL        51<<ASSIGN     52>>DOWHILE    52>>DOWHILE    53<<ASSIGN     53>>ASSIGN     55>>ASSIGN
        56>>ASSIGN     57>>ASSIGN     58>>ASSIGN     59>>ASSIGN
OUT_REC
        25**DCL        35--ASSIGN     39>>ASSIGN     42<<ASSIGN     61--ASSIGN     65--ASSIGN     69>>ASSIGN
        71<<ASSIGN     71>>ASSIGN
P
        28**DCL        29--IMP-PTR    35<<ASSIGN     38>>ASSIGN     55>>ASSIGN     56>>ASSIGN     57>>ASSIGN
        61<<ASSIGN     65<<ASSIGN     66>>ASSIGN
P_REC
        21**DCL        39<<ASSIGN     40<>CALL       69<<ASSIGN     70<>CALL
REC
        20**DCL        16--PROC       45>>IF         48>>IF         52>>DOWHILE    57>>ASSIGN
SIZE
        18**DCL        16--PROC       36>>IF         45>>IF         47>>DOINDEX    52>>DOWHILE
START_POS
        24**DCL        35>>ASSIGN     41<<ASSIGN     58<<ASSIGN     58>>ASSIGN     61>>ASSIGN     65>>ASSIGN
        67<<ASSIGN     67>>ASSIGN     68>>DOWHILE    72<<ASSIGN     72>>ASSIGN
STRUC_IN.BEGIN_BLANK
        30**DCL        38<<ASSIGN     55<<ASSIGN     66<<ASSIGN
STRUC_IN.CHAR_NEXT
        31**DCL        56<<ASSIGN
STRUC_IN.STRING
        32**DCL        57<<ASSIGN
TYPE
        19**DCL        16--PROC       40<>CALL       70<>CALL
WT_2STAR
PL6.E3A0      #001=ZIG$COMP File=ZIG$COMP.:ZIC0TSI                               FRI 09/05/97 11:43 Page:20
        27**DCL-ENT    40--CALL       70--CALL
