PL6.E3A0      #001=DBA_SUMMARY File=ZIG$DDE1.:ZIC0TSI                            FRI 09/05/97 11:43 Page:1
        1        1        /*M* ZIG$DDE1         I-D-S/II            DBACS    */
        2        2        /*T***********************************************************/
        3        3        /*T*                                                         */
        4        4        /*T* Copyright (c) Bull HN Information Systems Inc., 1997    */
        5        5        /*T*                                                         */
        6        6        /*T***********************************************************/
        7        7        DBA_SUMMARY:
        8        8            PROC;
        9        9        %INCLUDE ZIG_DBA_INT;
       10       57        %INCLUDE ZIA_IDS_DCL;
       11      165        %INCLUDE ZI_ERRORS_SUBS;
       12      685        %INCLUDE ZI_SUB4_CAN;
       13     1342        %INCLUDE ZIG_GENERAL;
       14     1450        %UWA;
       15     1785    1   DCL SRNC SBIN HALF;
       16     1786    1   DCL DBK_PARAM UBIN WORD;
       17     1787    1   DCL ZT SBIN HALF;
       18     1788    1   DCL Z SBIN HALF;
       19     1789    1   DCL DBKSM UBIN WORD;
       20     1790    1   DCL Y SBIN HALF;
       21     1791    1   DCL K UBIN WORD;
       22     1792    1   DCL X1 SBIN HALF;
       23     1793    1   DCL Y1 SBIN HALF;
       24     1794    1   DCL X2 SBIN HALF;
       25     1795    1   DCL XS UBIN WORD;
       26     1796    1   DCL RC_RA_H ENTRY(2) ALTRET;
       27     1797    1   DCL C13_1 CHAR(13) STATIC;
       28     1798    1   DCL C12_3 CHAR(12) STATIC;
       29     1799    1   DCL C13_3 CHAR(13) STATIC;
       30     1800    1   DCL C13_4 CHAR(13) STATIC;
       31     1801    1   DCL C12_1 CHAR(12) STATIC;
       32     1802    1   DCL C17_1 CHAR(17) STATIC;
       33     1803    1   DCL C30 CHAR(30) STATIC ALIGNED;
       34     1804    1   DCL C34 CHAR(34);
       35     1805    1   DCL C18 CHAR(18);
       36     1806    1   DCL C14 CHAR(14);
       37     1807    1   DCL C20 CHAR(20);
PL6.E3A0      #001=DBA_SUMMARY File=ZIG$DDE1.:ZIC0TSI                            FRI 09/05/97 11:43 Page:2
       38     1808    1   DCL OSTR CHAR(12);
       39     1809    1   DCL O_L CHAR(128) STATIC;
       40     1810    1   DCL 1 O_L_64_64 REDEF O_L,
       41     1811    1         2 A CHAR(64),
       42     1812    1         2 B CHAR(64);
       43     1813    1   DCL 1 O_L_74_54 REDEF O_L,
       44     1814    1         2 A CHAR(74),
       45     1815    1         2 B CHAR(54);
       46     1816    1   DCL 1 O_L_69_59 REDEF O_L,
       47     1817    1         2 A CHAR(69),
       48     1818    1         2 B CHAR(59);
       49     1819    1   DCL C15_1 CHAR(15) STATIC;
       50     1820    1   DCL C12_2 CHAR(12) STATIC;
       51     1821    1   DCL DTYP(0: 19) CHAR(8) STATIC INIT('DBKEY', 'BINARY', 'BINARY',
       52     1822    1    'DECIMAL', 'DECIMAL', 'CHAR', 'UNDEFND', 'UNDEFND', 'UNDEFND',
       53     1823    1    'UNSPEC', ' ', 'FLT BIN', 'FLT BIN',
       54     1824    1    ' ', ' ', ' ', ' ', ' ', ' ', 'FCW');
       55     1825    1   DCL P1 PTR;
       56     1826    1   DCL P2 PTR;
       57     1827    1   DCL PE PTR;
       58     1828    1   DCL B36 BIT(36) BASED;
       59     1829    1   DCL LSTEIS BIT(36) STATIC;
       60     1830    1   DCL LSTBUFLOC SBIN WORD;
       61     1831    1   DCL DEIS BIT(36);
       62     1832    1   DCL 1 DEIS_RDEF REDEF DEIS,
       63     1833    1         2 B0_17 BIT(18),
       64     1834    1         2 B18_20 BIT(3),
       65     1835    1         2 B21_29 BIT(9),
       66     1836    1         2 B30_35 BIT(6);
       67     1837         /* Dummy eis for record within 4 byte rcw */
       68     1838    1   DCL DEIS4 BIT(36) STATIC INIT('000000000000000000000100000000001000'B);
       69     1839         /* Dummy eis for record with 8 byte rcw */
       70     1840    1   DCL DEIS8 BIT(36) STATIC INIT('000000000000000000000100000000010000'B);
       71     1841         /* Dummy eis for record with 2 byte ecw */
       72     1842    1   DCL DEIS2 BIT(36) STATIC INIT('000000000000000000000100000000000100'B);
       73     1843    1   DCL 01 EIS BASED(PE),
       74     1844    1         02 FIL1 BIT(3),
PL6.E3A0      #001=DBA_SUMMARY File=ZIG$DDE1.:ZIC0TSI                            FRI 09/05/97 11:43 Page:3
       75     1845    1         02 BWRD BIT(15),
       76     1846    1         02 BCHR BIT(3),
       77     1847    1         02 TYP BIT(1),
       78     1848    1         02 FIL2 BIT(2),
       79     1849    1         02 PREC BIT(12);
       80     1850    1   DCL 01 EIS1 BASED(PE),
       81     1851    1         02 FIL1 BIT(3),
       82     1852    1         02 BWRD BIT(15),
       83     1853    1         02 BCHR BIT(3),
       84     1854    1         02 TYP BIT(1),
       85     1855    1         02 SIGN BIT(2),
       86     1856    1         02 SCALE BIT(6),
       87     1857    1         02 PREC BIT(6);
       88     1858    1   DCL PRNT ENTRY(3);
       89     1859    1   DCL DBK UBIN WORD;
       90     1860    1   DCL TEMP_UBIN_WORD UBIN WORD;
       91     1861    1   DCL REC_NAME CHAR(30);
       92     1862    1   DCL DFR$ PTR;
       93     1863    1   DCL 01 DFR BASED(DFR$),
       94     1864    1         02 DUM BIT(18),
       95     1865    1         02 BUFLOC BIT(3);
       96     1866    1   DCL 01 AREA STATIC,
       97     1867    1         02 TOTAL_KEYS UBIN WORD,
       98     1868    1         02 AVAIL_KEYS UBIN WORD,
       99     1869    1         02 MAX_DBK_GLOB UBIN WORD,
      100     1870    1         02 MIN_DBK_GLOB UBIN WORD,
      101     1871    1         02 MAX_DBK_LOC UBIN WORD,
      102     1872    1         02 MIN_DBK_LOC UBIN WORD,
      103     1873    1         02 BASE UBIN WORD,
      104     1874    1         02 MAX_PAGE UBIN WORD,
      105     1875    1         02 DATA_PGS UBIN WORD,
      106     1876    1         02 INV_PGS UBIN WORD,
      107     1877    1         02 DBK_PAGE UBIN WORD,
      108     1878    1         02 DBK_CALC UBIN WORD,
      109     1879    1         02 CALC_HDRS UBIN WORD,
      110     1880    1         02 PAGE_SIZE SBIN HALF,
      111     1881    1         02 LLINKS SBIN HALF,
PL6.E3A0      #001=DBA_SUMMARY File=ZIG$DDE1.:ZIC0TSI                            FRI 09/05/97 11:43 Page:4
      112     1882    1         02 SECTORS UBIN WORD,
      113     1883    1         02 INV_THRESH UBIN WORD,
      114     1884    1         02 LOAD_LIM UBIN WORD;
      115     1885    1   DCL 01 RANGE STATIC,
      116     1886    1         02 TOTAL_KEYS UBIN WORD,
      117     1887    1         02 AVAIL_KEYS UBIN WORD,
      118     1888    1         02 MAX_DBK_GLOB UBIN WORD,
      119     1889    1         02 MIN_DBK_GLOB UBIN WORD,
      120     1890    1         02 MAX_DBK_LOC UBIN WORD,
      121     1891    1         02 MIN_DBK_LOC UBIN WORD,
      122     1892    1         02 CALC_OFFS UBIN WORD,
      123     1893    1         02 CALC_HDRS UBIN WORD;
      124     1894    1   DCL 01 DB STATIC,
      125     1895    1         02 AREAS SBIN HALF INIT (0),
      126     1896    1         02 RECORDS SBIN HALF INIT(0),
      127     1897    1         02 FIELDS SBIN HALF INIT(0),
      128     1898    1         02 SETS SBIN HALF INIT(0),
      129     1899    1         02 PARAMS SBIN HALF INIT(0),
      130     1900    1         02 TOTAL_KEYS UBIN WORD INIT(0),
      131     1901    1         02 SECTORS UBIN WORD INIT(0),
      132     1902    1         02 LLINKS UBIN WORD INIT(0);
      133     1903    1   DCL AREA_TYPE CHAR (2) UNAL STATIC;
      134     1904    1   DCL AREABIT$ PTR;
      135     1905    1   DCL 1 AREABIT UNAL BASED (AREABIT$),
      136     1906    1         2 CHECKSUM UNAL BIT (1),
      137     1907    1         2 ENCRYPTION UNAL BIT (1),
      138     1908    1         2 JOURNALING UNAL BIT (1),
      139     1909    1         2 TEMPLATE UNAL BIT (1),
      140     1910    1         2 BACKUP UNAL BIT (1),
      141     1911    1         2 FILL UNAL BIT (13);
      142     1912    1   DCL CALC_NXT BIT(36);
      143     1913    1   DCL CALC_PRI BIT(36);
      144     1914    1   DCL RNG UBIN WORD STATIC INIT(0);
      145     1915    1   DCL D UBIN WORD STATIC INIT(0);
      146     1916    1   DCL S1 CHAR(16);
      147     1917    1   DCL S2 CHAR(16);
      148     1918    1   DCL FXCHRV SBIN HALF;
PL6.E3A0      #001=DBA_SUMMARY File=ZIG$DDE1.:ZIC0TSI                            FRI 09/05/97 11:43 Page:5
      149     1919    1   DCL X UBIN WORD;
      150     1920    1   DCL NUMB_CALC SBIN HALF;
      151     1921    1   DCL AREA_KEYS UBIN WORD;
      152     1922    1   DCL TOTAL_PAGES UBIN WORD STATIC INIT (0);
      153     1923    1   DCL C15 CHAR(15);
      154     1924    1   DCL 1 FIELD1 EXT,
      155     1925    1         2 COUNT1 UBIN (9) UNAL,
      156     1926    1         2 TEXT1 CHAR (31) UNAL;
      157     1927    1   DCL 1 FIELD2 EXT,
      158     1928    1         2 COUNT2 UBIN (9) UNAL,
      159     1929    1         2 TEXT2 CHAR (31) UNAL;
      160     1930    1   DCL 1 FIELD3 EXT,
      161     1931    1         2 COUNT3 UBIN (9) UNAL,
      162     1932    1         2 TEXT3 CHAR (31) UNAL;
      163     1933    1   DCL LNCNT UBIN(36) SYMREF ALIGNED;
      164     1934    1       CALL SUBLST('DATA BASE STORAGE STRUCTURE SUMMARY                            ');
      165     1935    1       DEIS = '000000000000000000000100000000000000'B;
      166     1936    1       DFR$ = ADDR(UWA.FR.BUFFLOC);
      167     1937    1       AREABIT$ = ADDR(AREA_TYPE);
      168     1938    1   BLD_DB:
      169     1939    1       CALL FETCHOS_6('OA-AC   ') ALTRET(ERROR);
      170     1940    1   SUMAC:
      171     1941    1       CALL FETCHNS_6('OA-AC   ') ALTRET(PUTDB);
      172     1942    1       AREA.TOTAL_KEYS = UWA.AC.MAX_DBK - UWA.AC.BASE_DBK;
      173     1943    1       DB.TOTAL_KEYS = DB.TOTAL_KEYS + AREA.TOTAL_KEYS;
      174     1944    1       DB.SECTORS = DB.SECTORS +(UWA.AC.SECTORS_PAGE * (UWA.AC.MAX_PAGE + 1));
      175     1945    1       TOTAL_PAGES = TOTAL_PAGES + UWA.AC.MAX_PAGE + 1 ;
      176     1946    1       DB.AREAS = DB.AREAS + 1;
      177     1947    1       GOTO SUMAC;
      178     1948    1   PUTDB:
      179     1949         /**
      180     1950            Data base capacity summary
      181     1951            */
      182     1952    1       O_L = 'DATA BASE CAPACITY SUMMARY***';
      183     1953    1       CALL PRNT(O_L, 1, 0);
      184     1954    1       CALL SET_FIELD_NUM(1,DB.TOTAL_KEYS);
      185     1955    1       CALL CONCAT(O_L,'TOTAL DATA BASE KEYS ALLOCATED TO ALL AREAS IS ',SUBSTR(FIELD1.
PL6.E3A0      #001=DBA_SUMMARY File=ZIG$DDE1.:ZIC0TSI                            FRI 09/05/97 11:43 Page:6
              1955                TEXT1,0,FIELD1.COUNT1));
      186     1956    1       CALL PRNT(O_L, 2, 3);
      187     1957    1       X = UWA.OA.GLOBAL + 1;
      188     1958    1       CALL SET_FIELD_NUM(1,X);
      189     1959    1       CALL CONCAT(O_L,'GLOBAL SET POINTERS ARE ',SUBSTR(FIELD1.TEXT1,0,FIELD1.COUNT1),
              1959                ' BYTES');
      190     1960    1       CALL PRNT(O_L, 2, 3);
      191     1961    1       O_L = 'TOTAL FILE SPACE REQUIRED FOR ALL AREAS IS: ';
      192     1962    1       CALL PRNT(O_L, 2, 3);
      193     1963    1       CALL SET_FIELD_NUM(1,TOTAL_PAGES);
      194     1964    1       CALL CONCAT(O_L, 'PAGES.............' , SUBSTR(FIELD1.TEXT1,0,FIELD1.COUNT1));
      195     1965    1       CALL PRNT(O_L,1,11);
      196     1966    1   PUT_GLOBAL:
      197     1967         /**
      198     1968            Data base area summary
      199     1969            */
      200     1970    1       CALL FETCHOS_6('OA-AC   ') ALTRET(ERROR);
      201     1971    1   NXTAC:
      202     1972    1       CALL FETCHNS_6('OA-AC   ') ALTRET(REC_SUM);
      203     1973    1       O_L = ' ';
      204     1974    1       CALL PRNT(O_L, 99, 0);
      205     1975    1       AREA_TYPE=UWA.AC.FILE_CODE;
      206     1976    1       AREA.MAX_DBK_GLOB = UWA.AC.MAX_DBK;
      207     1977    1       AREA.MIN_DBK_GLOB = UWA.AC.MIN_DBK;
      208     1978    1       AREA.BASE = UWA.AC.BASE_DBK;
      209     1979    1       AREA.MAX_PAGE = UWA.AC.MAX_PAGE;
      210     1980    1       AREA.DBK_PAGE = UWA.AC.DBK_PAGE;
      211     1981    1       AREA.DBK_CALC = UWA.AC.DBK_CALC;
      212     1982    1       AREA.PAGE_SIZE = UWA.AC.PAGE_SIZE;
      213     1983    1       AREA.INV_THRESH = UWA.AC.INV_THRESH;
      214     1984    1       AREA.LOAD_LIM = UWA.AC.LOAD_LIMIT;
      215     1985    1       AREA.SECTORS = UWA.AC.SECTORS_PAGE;
      216     1986    1       AREA.SECTORS = AREA.SECTORS * (AREA.MAX_PAGE + 1);
      217     1987    1       AREA.TOTAL_KEYS = UWA.AC.KEYS_ALLOC;
      218     1988    1       RNG = AREA.MAX_DBK_GLOB - AREA.MIN_DBK_GLOB + 1;
      219     1989    1       IF UWA.AC.CALC_NULL = 0 THEN
      220     1990    1           AREA.CALC_HDRS = (RNG + AREA.DBK_CALC - 1) / AREA.DBK_CALC;
PL6.E3A0      #001=DBA_SUMMARY File=ZIG$DDE1.:ZIC0TSI                            FRI 09/05/97 11:43 Page:7
      221     1991    1       ELSE
      222     1992    2       DO;
      223     1993    2           AREA.CALC_HDRS = 0;
      224     1994    2           GOTO NXTAC1;
      225     1995    2           END;
      226     1996         /**
      227     1997            Reduce number of calc headers to
      228     1998            a prime number
      229     1999            */
      230     2000    1   PRIME:
      231     2001    1       IF AREA.CALC_HDRS > 2 THEN
      232     2002    2       DO;
      233     2003    2           IF MOD(AREA.CALC_HDRS, 2) = 0 THEN
      234     2004    2               AREA.CALC_HDRS = AREA.CALC_HDRS - 1;
      235     2005    3           DO D = 3 TO AREA.CALC_HDRS/2 BY 2 ;
      236     2006    3               X = AREA.CALC_HDRS / D;
      237     2007    3               IF X * D = AREA.CALC_HDRS THEN
      238     2008    4               DO;
      239     2009    4                   AREA.CALC_HDRS = AREA.CALC_HDRS - 1;
      240     2010    4                   GOTO PRIME;
      241     2011    4                   END;
      242     2012    3               END;
      243     2013    2           END;
      244     2014    1   NXTAC1:
      245     2015    1       IF UWA.AC.PAGE_TYP ~= 3
      246     2016    2       THEN DO;
      247     2017    2           AREA.AVAIL_KEYS = AREA.TOTAL_KEYS - AREA.CALC_HDRS;
      248     2018    2           AREA.DATA_PGS = AREA.TOTAL_KEYS / AREA.DBK_PAGE;
      249     2019    2           IF AREA.DATA_PGS * AREA.DBK_PAGE ~= AREA.TOTAL_KEYS THEN
      250     2020    2               AREA.DATA_PGS = AREA.DATA_PGS + 1;
      251     2021    2           AREA.INV_PGS = AREA.MAX_PAGE - AREA.DATA_PGS;
      252     2022    2           AREA.LLINKS = AREA.SECTORS / 5;
      253     2023    2           IF AREA.LLINKS * 5 ~= AREA.SECTORS THEN
      254     2024    2               AREA.LLINKS = AREA.LLINKS + 1;
      255     2025    2           END;
      256     2026    1       CALL FETCHOS_6('SN-SE   ') ALTRET(ERROR); /* Get sn of ac */
      257     2027    1       CALL SET_FIELDS(1,30,UWA.SN.SENAME);
PL6.E3A0      #001=DBA_SUMMARY File=ZIG$DDE1.:ZIC0TSI                            FRI 09/05/97 11:43 Page:8
      258     2028    1       CALL CONCAT(O_L , 'SUMMARY FOR AREA "',SUBSTR(FIELD1.TEXT1,0,FIELD1.COUNT1),
              2028                '" ***');
      259     2029    1       CALL PRNT(O_L, 1, 0);
      260     2030    1       IF UWA.AC.PAGE_TYP = 3 THEN
      261     2031    1           O_L = 'AREA ORGANIZATION IS INDEXED';
      262     2032    1       ELSE
      263     2033    1           O_L = 'AREA ORGANIZATION IS INTEGRATED';
      264     2034    1       CALL PRNT(O_L, 2, 3);
      265     2035    1       IF UWA.AC.PERMTYPE = 1 THEN
      266     2036    1           O_L = 'AREA CONTENT IS TEMPORARY.';
      267     2037    1       ELSE
      268     2038    1           O_L = 'AREA CONTENT IS PERMANENT.';
      269     2039    1       CALL PRNT(O_L, 1, 3);
      270     2040    1       IF AREABIT.TEMPLATE
      271     2041    2       THEN DO; O_L = 'AREA IS TEMPLATE.';
      272     2042    2           CALL PRNT(O_L,1,3);
      273     2043    2           END;
      274     2044    1       IF AREABIT.CHECKSUM
      275     2045    1       THEN O_L = 'CHECKSUMING IS REQUIRED';
      276     2046    1       ELSE O_L = 'CHECKSUMING IS NOT REQUIRED';
      277     2047    1       CALL PRNT(O_L,1,3);
      278     2048    1       IF AREABIT.ENCRYPTION
      279     2049    1       THEN O_L = 'ENCRYPTION IS REQUIRED';
      280     2050    1       ELSE O_L = 'ENCRYPTION IS NOT ALLOWED';
      281     2051    1       CALL PRNT(O_L,1,3);
      282     2052    1       IF AREABIT.JOURNALING
      283     2053    2       THEN DO; O_L = 'JOURNALING IS REQUIRED';
      284     2054    2           CALL PRNT(O_L,1,3);
      285     2055    2           END;
      286     2056    1       IF AREABIT.BACKUP
      287     2057    1       THEN O_L = 'BACKUP IS REQUIRED';
      288     2058    1       ELSE O_L = 'BACKUP IS NOT REQUIRED';
      289     2059    1       CALL PRNT(O_L,1,3);
      290     2060    1       IF UWA.AC.PAGE_TYP = 3
      291     2061    1       THEN GOTO NXTAC;
      292     2062    1       AREA.TOTAL_KEYS = AREA.MAX_DBK_GLOB - AREA.MIN_DBK_GLOB + 1;
      293     2063    1       AREA_KEYS = AREA.TOTAL_KEYS + UWA.AC.KEYS_RSRVD;
PL6.E3A0      #001=DBA_SUMMARY File=ZIG$DDE1.:ZIC0TSI                            FRI 09/05/97 11:43 Page:9
      294     2064    1       XS = 2;
      295     2065    1       IF AREA_KEYS > 262143 THEN
      296     2066    1           XS = 3;
      297     2067    1       IF AREA_KEYS > 134217727 THEN
      298     2068    1           XS = 4;
      299     2069    1       CALL SET_FIELD_NUM(1,XS);
      300     2070    1       CALL CONCAT(O_L,'LOCAL POINTER SIZE (BYTES) IS ',SUBSTR(FIELD1.TEXT1,0,FIELD1.
              2070                COUNT1));
      301     2071    1       CALL PRNT(O_L, 1, 3);
      302     2072    1       IF UWA.AC.PER_INV ~= 0 THEN
      303     2073    2       DO;
      304     2074    2           O_L = 'PAGE INVENTORY PROCESSING BEGINS WHEN AVAILABLE ';
      305     2075    2           CALL PRNT(O_L, 2, 3);
      306     2076    2           CALL SET_FIELD_NUM(1,AREA.INV_THRESH);
      307     2077    2           CALL CONCAT(O_L , 'SPACE ON A PAGE IS ' , SUBSTR(FIELD1.TEXT1,0,FIELD1.
              2077                    COUNT1),' BYTES OR LESS.');
      308     2078    2           CALL PRNT(O_L, 1, 3);
      309     2079    2           END;
      310     2080    1       ELSE
      311     2081    2       DO;
      312     2082    2           O_L = 'PAGE INVENTORY PROCESSING WILL NOT BE APPLIED';
      313     2083    2           CALL PRNT(O_L, 2, 3);
      314     2084    2           O_L = 'TO THIS AREA.';
      315     2085    2           CALL PRNT(O_L, 1, 3);
      316     2086    2           END;
      317     2087    1       IF UWA.AC.INDEX_CODE ~= '  ' THEN
      318     2088    2           IF UWA.AC.PAGE_TYP = 0 THEN DO;
      319     2089    2               O_L = 'DURING INITIAL LOADING OF THE KEY FILE (BUT NOT';
      320     2090    2               CALL PRNT(O_L,2,3);
      321     2091    2               CALL SET_FIELD_NUM(1,AREA.LOAD_LIM);
      322     2092    2               CALL CONCAT(O_L ,'THE DATA FILE), ',SUBSTR(FIELD1.TEXT1,0,FIELD1.COUNT1)
              2092                        ,' BYTES OF EACH PAGE WILL BE USED.');
      323     2093    2               CALL PRNT(O_L,1,3);
      324     2094    2               END;
      325     2095    2       IF UWA.AC.PAGE_TYP = 3 THEN DO;
      326     2096    2           O_L = 'DURING INITIAL LOADING OF BOTH THE DATA FILE AND';
      327     2097    2           CALL PRNT(O_L,2,3);
PL6.E3A0      #001=DBA_SUMMARY File=ZIG$DDE1.:ZIC0TSI                            FRI 09/05/97 11:43 Page:10
      328     2098    2           CALL SET_FIELD_NUM(1,AREA.LOAD_LIM);
      329     2099    2           CALL CONCAT(O_L ,'THE KEY FILE, ',SUBSTR(FIELD1.TEXT1,0,FIELD1.COUNT1),
              2099                    ' BYTES OF EACH PAGE WILL BE USED.');
      330     2100    2           CALL PRNT(O_L,1,3);
      331     2101    2           END;
      332     2102    1       O_L = 'AREA PAGE CAPACITY SUMMARY***';
      333     2103    1       CALL PRNT(O_L,2,0);
      334     2104    1       CALL SET_FIELD_NUM(1,AREA.DATA_PGS);
      335     2105    1       CALL CONCAT(O_L , 'NUMBER OF DATA PAGES............',SUBSTR(FIELD1.TEXT1,0,
              2105                FIELD1.COUNT1));
      336     2106    1       CALL PRNT(O_L, 2, 3);
      337     2107    1       O_L ='ATTRIBUTE PAGE .................1';
      338     2108    1       CALL PRNT(O_L,1,3);
      339     2109    1       CALL SET_FIELD_NUM(1,AREA.INV_PGS);
      340     2110    1       CALL CONCAT(O_L , 'NUMBER OF INVENTORY PAGES.......',SUBSTR(FIELD1.TEXT1,0,
              2110                FIELD1.COUNT1));
      341     2111    1       CALL PRNT(O_L, 1, 3);
      342     2112    1       K = AREA.MAX_PAGE + 1;
      343     2113    1       CALL SET_FIELD_NUM(1,K);
      344     2114    1       CALL CONCAT(O_L , 'TOTAL PAGES IN AREA.............',SUBSTR(FIELD1.TEXT1,0,
              2114                FIELD1.COUNT1));
      345     2115    1       CALL PRNT(O_L, 1, 3);
      346     2116    1       O_L = 'PAGE SIZE (BYTES)...............4096';
      347     2117    1       CALL PRNT(O_L, 1, 3);
      348     2118    1       CALL SET_FIELD_NUM(1,UWA.AC.SPACE_AVAIL);
      349     2119    1       CALL CONCAT(O_L , 'AVAILABLE PAGE SPACE(BYTES).....',SUBSTR(FIELD1.TEXT1,0,
              2119                FIELD1.COUNT1));
      350     2120    1       CALL PRNT(O_L, 1, 3);
      351     2121         /**
      352     2122            Data base key summary
      353     2123            */
      354     2124    1       O_L = 'DATA_BASE_KEY USAGE SUMMARY***';
      355     2125    1       CALL PRNT(O_L,2,0);
      356     2126    1       CALL SET_FIELD_NUM(1,AREA.TOTAL_KEYS);
      357     2127    1       CALL CONCAT(O_L , 'TOTAL KEYS ALLOCATED............',SUBSTR(FIELD1.TEXT1,0,
              2127                FIELD1.COUNT1));
      358     2128    1       CALL PRNT(O_L, 2, 3);
PL6.E3A0      #001=DBA_SUMMARY File=ZIG$DDE1.:ZIC0TSI                            FRI 09/05/97 11:43 Page:11
      359     2129    1       CALL SET_FIELD_NUM(1,UWA.AC.KEYS_RSRVD);
      360     2130    1       CALL CONCAT(O_L , 'TOTAL KEYS RESERVED.............',SUBSTR(FIELD1.TEXT1,0,
              2130                FIELD1.COUNT1));
      361     2131    1       CALL PRNT(O_L, 1, 3);
      362     2132    1       CALL SET_FIELD_NUM(1,AREA.CALC_HDRS);
      363     2133    1       CALL CONCAT(O_L , 'TOTAL CALC HEADERS..............' , SUBSTR(FIELD1.TEXT1,0,
              2133                FIELD1.COUNT1));
      364     2134    1       CALL PRNT(O_L, 1, 3);
      365     2135    1       CALL SET_FIELD_NUM(1,AREA.AVAIL_KEYS);
      366     2136    1       CALL CONCAT(O_L , 'TOTAL KEYS AVAILABLE............' , SUBSTR(FIELD1.TEXT1,0,
              2136                FIELD1.COUNT1));
      367     2137    1       CALL PRNT(O_L, 1, 3);
      368     2138    1       CALL SET_FIELD_NUM(1,AREA.MIN_DBK_GLOB);
      369     2139    1       CALL CONCAT(O_L , 'FIRST KEY IN AREA(MINK).........' , SUBSTR(FIELD1.TEXT1,0,
              2139                FIELD1.COUNT1));
      370     2140    1       CALL PRNT(O_L, 1, 3);
      371     2141    1       CALL SET_FIELD_NUM(1,AREA.DBK_PAGE);
      372     2142    1       CALL CONCAT(O_L , 'DATA BASE KEYS PER PAGE.........',SUBSTR(FIELD1.TEXT1,0,
              2142                FIELD1.COUNT1));
      373     2143    1       CALL PRNT(O_L, 1, 3);
      374     2144    1       CALL SET_FIELD_NUM(1,AREA.DBK_CALC);
      375     2145    1       CALL CONCAT(O_L , 'DATA BASE KEYS PER CALC HEADER..',SUBSTR(FIELD1.TEXT1,0,
              2145                FIELD1.COUNT1));
      376     2146    1       CALL PRNT(O_L, 1, 3);
      377     2147         /**
      378     2148            Range summary
      379     2149            */
      380     2150    1       O_L = 'AREA RANGE SUMMARY***';
      381     2151    1       CALL PRNT(O_L,4,0);
      382     2152    1       O_L = 'DATA BASE KEY RANGES';
      383     2153    1       CALL PRNT(O_L,1,12);
      384     2154    1       O_L_64_64.A = 'LOCAL                        GLOBAL                  TOTAL      '
              2154                ;
      385     2155    1       O_L_64_64.B = '  CALC        AVAIL';
      386     2156    1       CALL PRNT(O_L, 1, 4);
      387     2157    1       O_L_64_64.A = 'LOW         HIGH             LOW         HIGH           KEYS    '
              2157                ;
PL6.E3A0      #001=DBA_SUMMARY File=ZIG$DDE1.:ZIC0TSI                            FRI 09/05/97 11:43 Page:12
      388     2158    1       O_L_64_64.B = '     HDRS        KEYS    RECORDS IN RANGE';
      389     2159    1       CALL PRNT(O_L, 1, 1);
      390     2160    1       CALL FETCHOS_6('AC-RA   ') ALTRET(ERROR);
      391     2161    1       RANGE = '0'B;
      392     2162    1   NXTRA:
      393     2163    1       CALL FETCHNS_6('AC-RA   ') ALTRET(NXTAC);
      394     2164    1       IF UWA.RA.LOWDBK ~= RANGE.MIN_DBK_GLOB THEN
      395     2165    1           GOTO NEW_RNGE;
      396     2166    1       IF UWA.RA.HIGHDBK = RANGE.MAX_DBK_GLOB THEN
      397     2167    1           GOTO PUTNME;
      398     2168         /**
      399     2169            Unpack ra descriptor
      400     2170            */
      401     2171    1   NEW_RNGE:
      402     2172    1       RANGE.MIN_DBK_GLOB = UWA.RA.LOWDBK;
      403     2173    1       RANGE.MAX_DBK_GLOB = UWA.RA.HIGHDBK;
      404     2174    1       RANGE.CALC_OFFS = UWA.RA.HDR_OFFS;
      405     2175    1       RANGE.CALC_HDRS = UWA.RA.CALC_HDRS;
      406     2176    1       RANGE.MAX_DBK_LOC = RANGE.MAX_DBK_GLOB - AREA.BASE;
      407     2177    1       RANGE.MIN_DBK_LOC = RANGE.MIN_DBK_GLOB - AREA.BASE;
      408     2178    1       RANGE.TOTAL_KEYS = RANGE.MAX_DBK_GLOB - RANGE.MIN_DBK_GLOB + 1;
      409     2179    1       RANGE.AVAIL_KEYS = RANGE.TOTAL_KEYS - RANGE.CALC_HDRS;
      410     2180    1       IF RANGE.CALC_OFFS ~= 0 THEN
      411     2181    1           RANGE.AVAIL_KEYS = RANGE.AVAIL_KEYS + 1;
      412     2182    1       O_L = ' ';
      413     2183    1       CALL PRNT(O_L, 1, 0);
      414     2184         /* Pre slu of 2 between ranges */
      415     2185         /**
      416     2186            Build print line for new range
      417     2187            */
      418     2188    1       IF UWA.AC.CALC_NULL = 1 THEN
      419     2189    2       DO; /* Ino calc headers */
      420     2190    2           NUMB_CALC = 0;
      421     2191    2           GOTO PASS_CALC;
      422     2192    2           END;
      423     2193    1   PASS_CALC:
      424     2194    1       CALL SET_FIELD_NUM(1,RANGE.MIN_DBK_LOC);
PL6.E3A0      #001=DBA_SUMMARY File=ZIG$DDE1.:ZIC0TSI                            FRI 09/05/97 11:43 Page:13
      425     2195    1       C12_2 = SUBSTR(FIELD1.TEXT1,0,FIELD1.COUNT1);
      426     2196    1       CALL SET_FIELD_NUM(1,RANGE.MAX_DBK_LOC);
      427     2197    1       C17_1 = SUBSTR(FIELD1.TEXT1,0,FIELD1.COUNT1);
      428     2198    1       CALL SET_FIELD_NUM(1,RANGE.MIN_DBK_GLOB);
      429     2199    1       C12_3 = SUBSTR(FIELD1.TEXT1,0,FIELD1.COUNT1);
      430     2200    1       CALL SET_FIELD_NUM(1,RANGE.MAX_DBK_GLOB);
      431     2201    1       C15_1 = SUBSTR(FIELD1.TEXT1,0,FIELD1.COUNT1);
      432     2202    1       CALL SET_FIELD_NUM(1,RANGE.TOTAL_KEYS);
      433     2203    1       C13_3 = SUBSTR(FIELD1.TEXT1,0,FIELD1.COUNT1);
      434     2204    1       CALL SET_FIELD_NUM(1,RANGE.AVAIL_KEYS);
      435     2205    1       C13_4 = SUBSTR(FIELD1.TEXT1,0,FIELD1.COUNT1);
      436     2206    1       CALL SET_FIELD_NUM(1,RANGE.CALC_HDRS);
      437     2207    1       C12_1 = SUBSTR(FIELD1.TEXT1,0,FIELD1.COUNT1);
      438     2208    1   PUTNME:
      439     2209    1       CALL FETCHOS_6('RC-RA   ') ALTRET(ERROR); /* Get rc of this ra */
      440     2210    1       CALL FETCHOS_6('SN-SE   ') ALTRET(ERROR); /* Get sn of rc */
      441     2211    1       CALL CONCAT(O_L_69_59.A , C12_2 , C17_1 , C12_3 , C15_1 , C13_3);
      442     2212    1       CALL CONCAT(O_L_69_59.B,C12_1,C13_4,'   ',UWA.SN.SENAME);
      443     2213    1       CALL PRNT(O_L, 1, 1);
      444     2214    1       O_L =' ';
      445     2215    1       C12_2 = ' '; C17_1 = ' '; C12_3 = ' ';
      446     2216    1       C15_1 = ' '; C13_3 = ' '; C12_1 = ' '; C13_4 = ' ';
      447     2217    1       GOTO NXTRA;
      448     2218    1   REC_SUM:
      449     2219    1       TEMP_UBIN_WORD = UWA.DA.FRST_RC;
      450     2220    1       CALL FETCHD_6('SN  ', TEMP_UBIN_WORD) ALTRET(ERROR);
      451     2221    1       CALL FETCHPS_6('DA-SN   ') ALTRET(ERROR);
      452     2222    1       DBK = UWA.DIRECT_REF;
      453     2223    1   NXTRC:
      454     2224    1       TEMP_UBIN_WORD = DBK;
      455     2225    1       CALL FINDD_6('SN  ', TEMP_UBIN_WORD) ALTRET(ERROR);
      456     2226    1       CALL FETCHNS_6('DA-SN   ') ALTRET(SUM_PARAMS);
      457     2227    1       DBK = UWA.DIRECT_REF;
      458     2228    1       IF UWA.SN.SETYPE ~= 40 THEN
      459     2229    1           GOTO SUM_PARAMS;
      460     2230    1       IF UWA.SN.SENAME = '*DBPARAM' THEN DBK_PARAM = UWA.DIRECT_REF;
      461     2231    1       IF SUBSTR(UWA.SN.SENAME, 0, 1) = '*' THEN
PL6.E3A0      #001=DBA_SUMMARY File=ZIG$DDE1.:ZIC0TSI                            FRI 09/05/97 11:43 Page:14
      462     2232    1           IF SUBSTR(UWA.SN.SENAME, 0, 3) ~= '*PA' THEN
      463     2233    1               GOTO NXTRC;
      464     2234    1       CALL FETCHNS_6('SN-SE   ') ALTRET(ERROR);
      465     2235    1       ZT = 0;
      466     2236    1       Z = UWA.RC.FIXVAR;
      467     2237    2       DO WHILE(Z ~= 0);
      468     2238    2           CALL FETCHNS_6('RC-FR   ') ALTRET(NXTRC1A);
      469     2239    2           IF UWA.FR.FTYPE = 19 THEN
      470     2240    3           DO;
      471     2241    3               Z = Z - 1;
      472     2242    3               ZT = UWA.FR.PREC + ZT;
      473     2243    3               END;
      474     2244    2           END;
      475     2245    1       CALL FETCHOS_6('RC-FR   ') ALTRET(ERROR);
      476     2246    1   NXTRC1A:
      477     2247    1       IF UWA.RC.PSMODE = 4 /* Index loc mode */ OR
      478     2248    1          UWA.RC.PSMODE = 5 /* Pa record */ THEN
      479     2249    2       DO;
      480     2250    2           PE = ADDR(DEIS8);
      481     2251    2           LSTEIS = DEIS8;
      482     2252    2           END;
      483     2253    1       ELSE
      484     2254    2       DO;
      485     2255    2           PE = ADDR(DEIS4);
      486     2256    2           LSTEIS = DEIS4;
      487     2257    2           END;
      488     2258    1       O_L = ' ';
      489     2259    1       LNCNT = 9999; /* FORCE NEW PAGE */
      490     2260    1       CALL PRNT(O_L, 99, 0);
      491     2261    1       CALL SET_FIELDS(1,30,UWA.SN.SENAME);
      492     2262    1       CALL CONCAT(O_L , 'SUMMARY FOR RECORD "' , SUBSTR(FIELD1.TEXT1,0,FIELD1.COUNT1),
              2262                '" ***');
      493     2263    1       CALL PRNT(O_L, 1, 0);
      494     2264    1       CALL SET_FIELD_NUM(1,UWA.RC.RTYPE);
      495     2265    1       CALL OCT(ADDR(UWA.RC.RTYPE)->B36);
      496     2266    1       CALL CONCAT(O_L,'TYPE CODE IS ',SUBSTR(FIELD1.TEXT1,0,FIELD1.COUNT1),' (',SUBSTR
              2266                (OSTR,8,4),')');
PL6.E3A0      #001=DBA_SUMMARY File=ZIG$DDE1.:ZIC0TSI                            FRI 09/05/97 11:43 Page:15
      497     2267    1       CALL PRNT(O_L, 1, 3);
      498     2268    1       CALL SET_FIELD_NUM(1,UWA.RC.LSIZE);
      499     2269    1       IF UWA.RC.FIXVAR = 0 THEN
      500     2270    1           CALL CONCAT(O_L , 'SIZE IS ' , SUBSTR(FIELD1.TEXT1,0,FIELD1.COUNT1) ,
              2270                    ' BYTES.');
      501     2271    1       ELSE
      502     2272    2       DO;
      503     2273    2           K = UWA.RC.LSIZE - ZT;
      504     2274    2           CALL SET_FIELD_NUM(2,K);
      505     2275    2    CALL CONCAT(O_L,'MIN SIZE IS ',SUBSTR(FIELD2.TEXT2,0,FIELD2.COUNT2),
              2275             ' - MAX SIZE IS ',SUBSTR(FIELD1.TEXT1,0,FIELD1.COUNT1),' BYTES.');
      506     2276    2           END;
      507     2277    1       CALL PRNT(O_L, 1, 3);
      508     2278    1       O_L = 'RECORD FORMAT***';
      509     2279    1       CALL PRNT(O_L,2,0);
      510     2280    1       O_L = 'O F F S E T       S P A C E';
      511     2281    1       CALL PRNT(O_L, 1, 46);
      512     2282    1       O_L_64_64.A = '                                  TYPE      WORD  BYTE  BIT    ';
      513     2283    1       O_L_64_64.B = 'BYTES BITS   PREC  SCALE  SIGN';
      514     2284    1       CALL PRNT(O_L, 1, 0);
      515     2285    1       IF UWA.SN.SENAME = '*DBPARAM' THEN
      516     2286    1           GOTO DOFLDS;
      517     2287    1       IF UWA.RC.PSMODE = 4 OR /* Index record has 8 bytes rcw */
      518     2288    1          UWA.RC.PSMODE = 5 THEN /* Pa rec has 8 byte rcw */
      519     2289    1           O_L = 'RCW          0     0    0         8    0';
      520     2290    1       ELSE
      521     2291    1           O_L = 'RCW          0     0    0         4    0';
      522     2292    1       CALL PRNT(O_L, 2, 34);
      523     2293    1       O_L = '   *** SET POINTERS ***';
      524     2294    1       CALL PRNT(O_L,1,0);
      525     2295         /* Check if record is in an index area */
      526     2296    1       CALL FETCHOS_6('RC-RA   ') ALTRET(ERROR);
      527     2297    1       CALL FETCHNS_6('RC-RA   ') ALTRET(NXTRC0);
      528     2298    1       CALL FETCHOS_6('AC-RA   ') ALTRET(ERROR);
      529     2299    1       IF UWA.AC.PAGE_TYP = 3 THEN
      530     2300    1           GOTO NXTRC0;
      531     2301    1       CALL FETCHOS_6('RC-SOSM ') ALTRET(ERROR);
PL6.E3A0      #001=DBA_SUMMARY File=ZIG$DDE1.:ZIC0TSI                            FRI 09/05/97 11:43 Page:16
      532     2302    1       CALL FETCHNS_6('RC-SOSM ') ALTRET(NXTRC0);
      533     2303    1       IF UWA.RECORD_NAME = 'SM' THEN
      534     2304    2       DO;
      535     2305    2           CALL FETCHOS_6('SC-SOSM ') ALTRET(ERROR);
      536     2306    2           IF UWA.SC.SETTYPE = 2 OR UWA.SC.SETTYPE = 3 THEN
      537     2307    2               GOTO NXTSC;
      538     2308    2           END;
      539     2309    1       GOTO NXTRC1;
      540     2310    1   NXTRC0:
      541     2311    1       O_L = 'NO SET POINTERS...';
      542     2312    1       CALL PRNT(O_L,2,0);
      543     2313    1       O_L = ' ';
      544     2314    1       CALL PRNT(O_L, 1, 0);
      545     2315    1       GOTO DOFLDS;
      546     2316    1   NXTRC1:
      547     2317    1       CALL FETCHOS_6('RC-SOSM ') ALTRET(ERROR);
      548     2318    1       CALL FETCHOS_6('SC-SOSM ') ALTRET(ERROR);
      549     2319    1   NXTSC:
      550     2320    1       CALL FETCHNS_6('RC-SOSM ') ALTRET(DOFLDS);
      551     2321    1       REC_NAME = UWA.RECORD_NAME;
      552     2322    1       CALL FETCHOS_6('SC-SOSM ') ALTRET(ERROR);
      553     2323         /* Check if index record and ignore key sm's */
      554     2324    1       IF UWA.SC.SETTYPE = 2 OR UWA.SC.SETTYPE = 3 THEN
      555     2325    1           GOTO NXTSC;
      556     2326    1       CALL FETCHOS_6('SN-SE   ') ALTRET(ERROR);
      557     2327    1       C30 = UWA.SN.SENAME;
      558     2328    1       IF REC_NAME = 'SO' THEN
      559     2329    2       DO;
      560     2330         /* Record is owner of this set */
      561     2331    2           PE = ADDR(UWA.SO.NXTPNT);
      562     2332    2           CALL OFFS;
      563     2333    2           CALL SIZE;
      564     2334    2           IF UWA.SC.SETMODE = 2 THEN
      565     2335    2               IF UWA.SC.SETGLO = 1 THEN
      566     2336    2                   CALL CONCAT(O_L,C30,'    NEXT    ',C18,C14,
              2336                            '                          GLOBAL POINTERS (PNTR ARRAY)');
      567     2337    2               ELSE
PL6.E3A0      #001=DBA_SUMMARY File=ZIG$DDE1.:ZIC0TSI                            FRI 09/05/97 11:43 Page:17
      568     2338    2                   CALL CONCAT(O_L,C30,'    NEXT    ',C18,C14,
              2338                            '                          LOCAL POINTERS (PNTR ARRAY)');
      569     2339    2           ELSE
      570     2340    2               IF UWA.SC.SETGLO = 1 THEN
      571     2341    2                   CALL CONCAT(O_L,C30,'    NEXT    ',C18,C14,
              2341                            '                          GLOBAL POINTERS ');
      572     2342    2               ELSE
      573     2343    2                   CALL CONCAT(O_L,C30,'    NEXT    ',C18,C14,
              2343                            '                          LOCAL POINTERS ');
      574     2344    2           CALL PRNT(O_L, 2, 0);
      575     2345    2           PE = ADDR(UWA.SO.PRIPNT);
      576     2346    2           CALL OFFS;
      577     2347    2           CALL SIZE;
      578     2348    2           CALL CONCAT(O_L,'                                  PRIOR   ',C18,C14);
      579     2349    2           CALL PRNT(O_L, 1, 0);
      580     2350    2           END;
      581     2351    1       ELSE
      582     2352    2       DO;
      583     2353         /* Record is member of this set */
      584     2354    2           PE = ADDR(UWA.SM.NXTPNT);
      585     2355    2           CALL OFFS;
      586     2356    2           CALL SIZE;
      587     2357    2           IF UWA.SC.SETMODE = 2 &
      588     2358    2              UWA.SM.PAMEM = 0 THEN
      589     2359    2               CALL CONCAT(O_L_74_54.A,C30,'    PA-HEAD ',C18,C14);
      590     2360    2           ELSE
      591     2361    2               CALL CONCAT(O_L_74_54.A,C30,'    NEXT    ',C18,C14);
      592     2362    2           IF UWA.SC.SETMODE = 2 AND UWA.SM.PAMEM = 0 THEN
      593     2363    2               IF UWA.SC.SETGLO = 1 THEN
      594     2364    2                   O_L_74_54.B =
              2364                            '                          GLOBAL POINTERS (PNTR ARRAY)';
      595     2365    2               ELSE
      596     2366    2                   O_L_74_54.B =
              2366                            '                          LOCAL POINTERS (PNTR ARRAY)';
      597     2367    2           ELSE
      598     2368    2               IF UWA.SC.SETGLO = 1 THEN
      599     2369    2                   O_L_74_54.B = '                          GLOBAL POINTERS ';
PL6.E3A0      #001=DBA_SUMMARY File=ZIG$DDE1.:ZIC0TSI                            FRI 09/05/97 11:43 Page:18
      600     2370    2               ELSE
      601     2371    2                   O_L_74_54.B = '                          LOCAL POINTERS ';
      602     2372    2           CALL PRNT(O_L, 2, 0);
      603     2373    2           IF UWA.SM.PRIPNT ~= 0 THEN /* No prior in pa set */
      604     2374    3           DO;
      605     2375    3               PE = ADDR(UWA.SM.PRIPNT);
      606     2376    3               CALL OFFS;
      607     2377    3               CALL SIZE;
      608     2378    3               CALL CONCAT(O_L,'                                  PRIOR   ',C18,C14);
      609     2379    3               CALL PRNT(O_L, 1, 0);
      610     2380    3               END;
      611     2381    2           IF UWA.SN.SENAME = '*CALC' THEN
      612     2382    2               GOTO ENDSC;
      613     2383    2           PE = ADDR(UWA.SM.HDPNT);
      614     2384    2           CALL OFFS;
      615     2385    2           CALL SIZE;
      616     2386    2           CALL CONCAT(O_L,'                                  HEAD    ',C18,C14);
      617     2387    2           CALL PRNT(O_L, 1, 0);
      618     2388    2           IF UWA.SM.PA_MEMPNT ~= 0 THEN
      619     2389    2               GOTO DOFLDS; /* Ignore other sm's */
      620     2390    2           END;
      621     2391    1   ENDSC:
      622     2392    1       IF LSTEIS < PE -> B36 THEN
      623     2393    1           LSTEIS = PE -> B36;
      624     2394    1       GOTO NXTSC;
      625     2395    1   DOFLDS:
      626     2396    2       IF UWA.RC.PSMODE ~= 5 THEN DO;
      627     2397    2           O_L = '   *** DATA FIELDS ***';
      628     2398    2           CALL PRNT(O_L,1,0);
      629     2399    2           END;
      630     2400    1       ELSE
      631     2401    2       DO;
      632     2402    2           CALL FCURR_R_6('RC  ') ALTRET(ERROR);
      633     2403    2           CALL FETCHNS_6('RC-SOSM ') ALTRET(NXTRC);
      634     2404    2           DBKSM = UWA.DIRECT_REF;
      635     2405    2           CALL FETCHPS_6('SC-SOSM ') ALTRET(ERROR);
      636     2406    2           CALL FETCHOS_6('RC-SOSM ') ALTRET(ERROR);
PL6.E3A0      #001=DBA_SUMMARY File=ZIG$DDE1.:ZIC0TSI                            FRI 09/05/97 11:43 Page:19
      637     2407    2           CALL FETCHOS_6('SN-SE   ') ALTRET(ERROR);
      638     2408    2           CALL SET_FIELDS(1,30,UWA.SN.SENAME);
      639     2409    2           CALL CONCAT(O_L,'PA-ENTRY FORMAT FOR MEMBER "',SUBSTR(FIELD1.TEXT1,0,FIELD1.
              2409                    COUNT1),'" ***');
      640     2410    2           CALL PRNT(O_L,4,0);
      641     2411         /* Reset curr for rc-sosm */
      642     2412    2           CALL FETCHD_6('SM  ',DBKSM) ALTRET(ERROR);
      643     2413         /* Reset currency for rc-fr */
      644     2414    2           CALL FETCHOS_6('RC-SOSM ') ALTRET(ERROR);
      645     2415         /* Prev statement chnged rc-sosm so repeat */
      646     2416    2           CALL FETCHD_6('SM  ',DBKSM) ALTRET(ERROR);
      647     2417    2           CALL SET_FIELD_NUM(1,UWA.RC.PA_ENTRY);
      648     2418    2           CALL CONCAT(O_L,'PA-ENTRY SIZE IS ',SUBSTR(FIELD1.TEXT1,0,FIELD1.COUNT1),
              2418                    ' BYTES.');
      649     2419    2           CALL PRNT(O_L,1,3);
      650     2420    2           O_L = 'ECW          0     0    0         2    0';
      651     2421    2           CALL PRNT(O_L, 1, 34);
      652     2422    2           PE = ADDR(UWA.SM.PA_MEMPNT);
      653     2423    2           LSTEIS = PE->B36;
      654     2424    2           CALL OFFS;
      655     2425    2           CALL SIZE;
      656     2426    2           IF UWA.SC.SETGLO = 1 THEN
      657     2427    2               CALL CONCAT(O_L,'                                  MEMBER  ',C18,C14,
              2427                        '                          GLOBAL POINTER');
      658     2428    2           ELSE
      659     2429    2               CALL CONCAT(O_L,'                                  MEMBER  ',C18,C14,
              2429                        '                          LOCAL POINTER');
      660     2430    2           CALL PRNT(O_L,1,0);
      661     2431    2           O_L = ' *** SEQUENCE KEY FIELDS ***';
      662     2432    2           CALL PRNT(O_L,1,3);
      663     2433    2           END;
      664     2434    1       CALL FETCHOS_6('RC-FR   ') ALTRET(ERROR);
      665     2435    1       CALL FETCHNS_6('RC-FR   ') ALTRET(DOFLDS1);
      666     2436    1       GOTO DOFLDS2;
      667     2437    1   DOFLDS1:
      668     2438    1       O_L = 'NO USER DATA FIELDS...';
      669     2439    1       CALL PRNT(O_L,1,0);
PL6.E3A0      #001=DBA_SUMMARY File=ZIG$DDE1.:ZIC0TSI                            FRI 09/05/97 11:43 Page:20
      670     2440    1       GOTO NXTRC;
      671     2441    1   NXTPASM:
      672     2442    1       CALL FETCHD_6('SM  ',DBKSM) ALTRET(ERROR);
      673     2443    1       CALL FETCHNS_6('RC-SOSM ') ALTRET(NXTRC);
      674     2444    1       DBKSM = UWA.DIRECT_REF;
      675     2445    1       CALL FETCHPS_6('SC-SOSM ') ALTRET(ERROR);
      676     2446    1       CALL FETCHOS_6('RC-SOSM ') ALTRET(ERROR);
      677     2447    1       CALL FETCHOS_6('SN-SE   ') ALTRET(ERROR);
      678     2448    1       CALL SET_FIELDS(1,30,UWA.SN.SENAME);
      679     2449    1       CALL CONCAT(O_L,'PA-ENTRY FORMAT FOR MEMBER "',SUBSTR(FIELD1.TEXT1,0,FIELD1.
              2449                COUNT1),'" ***');
      680     2450    1       CALL PRNT(O_L,4,0);
      681     2451         /* Reset curr for rc-sosm */
      682     2452    1       CALL FETCHD_6('SM  ',DBKSM) ALTRET(ERROR);
      683     2453         /* Reset currency for rc-fr */
      684     2454    1       CALL FETCHOS_6('RC-SOSM ') ALTRET(ERROR);
      685     2455         /* Prev statement chnged rc-sosm so repeat */
      686     2456    1       CALL FETCHD_6('SM  ',DBKSM) ALTRET(ERROR);
      687     2457    1       CALL SET_FIELD_NUM(1,UWA.RC.PA_ENTRY);
      688     2458    1       CALL CONCAT(O_L,'PA-ENTRY SIZE IS ',SUBSTR(FIELD1.TEXT1,0,FIELD1.COUNT1),
              2458                ' BYTES.');
      689     2459    1       CALL PRNT(O_L,1,3);
      690     2460    1       O_L = 'ECW          0     0    0         2    0';
      691     2461    1       CALL PRNT(O_L, 1, 34);
      692     2462    1       PE = ADDR(UWA.SM.PA_MEMPNT);
      693     2463    1       LSTEIS = PE->B36;
      694     2464    1       CALL OFFS;
      695     2465    1       CALL SIZE;
      696     2466    1       CALL CONCAT(O_L_74_54.A,'                                  MEMBER  ',C18,C14);
      697     2467    1       IF UWA.SC.SETGLO = 1 THEN
      698     2468    1           O_L_74_54.B = '                          GLOBAL POINTER';
      699     2469    1       ELSE
      700     2470    1           O_L_74_54.B = '                          LOCAL POINTER';
      701     2471    1       CALL PRNT(O_L,1,0);
      702     2472    1       O_L = ' *** SEQUENCE KEY FIELDS ***';
      703     2473    1       CALL PRNT(O_L,1,3);
      704     2474    1       GOTO NXTFR;
PL6.E3A0      #001=DBA_SUMMARY File=ZIG$DDE1.:ZIC0TSI                            FRI 09/05/97 11:43 Page:21
      705     2475    1   DOFLDS2:
      706     2476    1       CALL FETCHOS_6('RC-FR   ') ALTRET(ERROR);
      707     2477    1       PE = ADDR(LSTEIS);
      708     2478    1       FXCHRV = 1;
      709     2479    1   NXTFR:
      710     2480    1       IF UWA.RC.PSMODE = 5 THEN
      711     2481    2       DO;
      712     2482    2           CALL FETCHNS_6('SMSS-CF ') ALTRET(NXTPASM);
      713     2483    2           CALL FETCHOS_6('FR-CFR  ') ALTRET(ERROR);
      714     2484    2           CALL FETCHOS_6('SN-SE   ') ALTRET(ERROR);
      715     2485    2           C30 = UWA.SN.SENAME;
      716     2486    2           CALL FCURR_R_6('C-F ') ALTRET(ERROR);
      717     2487    2           CALL FETCHOS_6('FR-CFS  ') ALTRET(ERROR);
      718     2488    2           END;
      719     2489    1       ELSE
      720     2490    2       DO;
      721     2491    2           CALL FETCHNS_6('RC-FR   ') ALTRET(NXTFR1);
      722     2492    2           IF UWA.FR.SYN = 1 THEN
      723     2493    2               GOTO NXTFR;
      724     2494    2           CALL FETCHOS_6('SN-SE   ') ALTRET(ERROR);
      725     2495    2           C30 = UWA.SN.SENAME;
      726     2496    2           END;
      727     2497    1       IF FXCHRV = 1 THEN
      728     2498    2       DO;
      729     2499    2           IF UWA.FR.FTYPE = 19 THEN
      730     2500    2               GOTO NXTFR;
      731     2501    2           END;
      732     2502    1       ELSE /* Process char varying fields */
      733     2503    2       DO;
      734     2504    2           IF UWA.FR.FTYPE ~= 19 THEN
      735     2505    2               GOTO NXTFR;
      736     2506    2           END;
      737     2507         /*
      738     2508            Check for filler between fields
      739     2509            */
      740     2510    1       IF EIS.TYP = '0'B THEN
      741     2511    1           X = BITBIN(EIS.PREC) * 2;
PL6.E3A0      #001=DBA_SUMMARY File=ZIG$DDE1.:ZIC0TSI                            FRI 09/05/97 11:43 Page:22
      742     2512    1       ELSE
      743     2513    1           X = BITBIN(EIS1.PREC);
      744     2514    1       X = X + BITBIN(EIS.BWRD) * 8 + BITBIN(EIS.BCHR);
      745     2515    1       DEIS_RDEF.B18_20 = DFR.BUFLOC; /* Bits 18,19,20 */
      746     2516    1       PE = ADDR(UWA.FR.BUFFLOC);
      747     2517    1       Y = BITBIN(EIS.BWRD) * 8 + BITBIN(EIS.BCHR);
      748     2518    1       IF Y - X ~= 0 THEN
      749     2519    2       DO;
      750     2520    2           PE = ADDR(DEIS);
      751     2521    2           DEIS_RDEF.B30_35 = BINBIT(Y - X, 6);
      752     2522    2           CALL SIZE;
      753     2523    2           CALL CONCAT(O_L ,
              2523                    '                                  *FILL                     ',C14);
      754     2524    2           CALL PRNT(O_L, 1, 0);
      755     2525    2           END;
      756     2526    1   NXTFR0:
      757     2527    1       LSTBUFLOC = UWA.FR.BUFFLOC;
      758     2528    1       PE = ADDR(LSTBUFLOC);
      759     2529    1       CALL OFFS;
      760     2530    1       CALL SIZE;
      761     2531    1       CALL P_S_S;
      762     2532    1       C34 = C30;
      763     2533    1       IF UWA.FR.FTYPE = 19 THEN
      764     2534    1           CALL CONCAT(O_L,C34,DTYP(UWA.FR.FTYPE),C18,C14,C20,'      CHARACTER VARYING'
              2534                    );
      765     2535    1       ELSE
      766     2536    1           CALL CONCAT(O_L,C30,'    ',DTYP(UWA.FR.FTYPE),C18,C14,C20);
      767     2537    1       CALL PRNT(O_L, 1, 0);
      768     2538    1       GOTO NXTFR;
      769     2539    1   SUM_PARAMS:
      770     2540    1       CALL FETCHD_6('SN  ',DBK_PARAM) ALTRET(ERROR);
      771     2541    1       CALL FETCHNS_6('SN-SE   ') ALTRET(ERROR);
      772     2542    1       CALL FETCHNS_6('RC-FR   ') ALTRET(PARAMS_DONE);
      773     2543    1       CALL SUBLST('DATA BASE PARAMETER SUMMARY                                     ');
      774     2544    1       O_L =
              2544           '                                  TYPE                        PREC  SCALE  SIGN'
              2544                ;
PL6.E3A0      #001=DBA_SUMMARY File=ZIG$DDE1.:ZIC0TSI                            FRI 09/05/97 11:43 Page:23
      775     2545    1       CALL PRNT(O_L,2,0);
      776     2546    1       O_L = '   *** PARAMETER ***';
      777     2547    1       CALL PRNT(O_L,1,0);
      778     2548    1   NXT_PARAM:
      779     2549    1       CALL FETCHOS_6('SN-SE   ') ALTRET(ERROR);
      780     2550    1       CALL P_S_S;
      781     2551    1       CALL CONCAT(O_L,UWA.SN.SENAME,'    ',DTYP(UWA.FR.FTYPE),'                 ',C20)
              2551                ;
      782     2552    1       CALL PRNT(O_L,1,0);
      783     2553    1       CALL FETCHNS_6('RC-FR   ') ALTRET(PARAMS_DONE);
      784     2554    1       GOTO NXT_PARAM;
      785     2555    1   PARAMS_DONE:
      786     2556    1       RETURN;
      787     2557    1   NXTFR1: /* Finished processing fixed fields*/
      788     2558    1       IF FXCHRV = 2 THEN GOTO NXTFR2;
      789     2559    1       IF UWA.RC.CV_OFFSET = 0 THEN
      790     2560    1           GOTO NXTRC;
      791     2561    1       FXCHRV = 2; /* Process char varying fields */
      792     2562    1       CALL FETCHOS_6('RC-FR   ') ALTRET(ERROR);
      793     2563    1       GOTO NXTFR;
      794     2564    1   NXTFR2: /* Finished processing char varying*/
      795     2565    1       GOTO NXTRC;
      796     2566    1   OFFS:
      797     2567    1       PROC;
      798     2568    2   DCL XWORD CHAR(6);
      799     2569    2   DCL XBYTE CHAR(6);
      800     2570    2   DCL XBIT CHAR(6);
      801     2571    2       CALL BINCHAR(XWORD,BITBIN(EIS.BWRD));
      802     2572    2       IF XWORD = '000000' THEN XWORD = '     0';
      803     2573    3       ELSE DO X = 0 TO 4; /* ZERO SUPPRESS */
      804     2574    3           IF SUBSTR(XWORD,X,1) = '0' THEN
      805     2575    3               CALL INSERT(XWORD,X,1,' ');
      806     2576    3           ELSE
      807     2577    3               X = 5;
      808     2578    3           END;
      809     2579    2       X = BITBIN(EIS.BCHR)/2;
      810     2580    2       CALL BINCHAR(XBYTE,X);
PL6.E3A0      #001=DBA_SUMMARY File=ZIG$DDE1.:ZIC0TSI                            FRI 09/05/97 11:43 Page:24
      811     2581    2       IF XBYTE = '000000' THEN XBYTE = '     0';
      812     2582    3       ELSE DO X = 0 TO 4; /* ZERO SUPPRESS */
      813     2583    3           IF SUBSTR(XBYTE,X,1) = '0' THEN
      814     2584    3               CALL INSERT(XBYTE,X,1,' ');
      815     2585    3           ELSE
      816     2586    3               X = 5;
      817     2587    3           END;
      818     2588    2       IF EIS.TYP = '0'B THEN
      819     2589    2           XBIT = '    0';
      820     2590    2       ELSE
      821     2591    3       DO;
      822     2592    3           IF EIS.BCHR = '001'B OR EIS.BCHR = '011'B OR EIS.BCHR = '101'B OR EIS.BCHR =
              2592                    '111'B THEN
      823     2593    3               XBIT = '    5';
      824     2594    3           ELSE
      825     2595    3               XBIT = '    1';
      826     2596    3           END;
      827     2597    2       CALL CONCAT(C18 , XWORD , XBYTE , XBIT);
      828     2598    2       XWORD = ' '; XBYTE = ' '; XBIT = ' ';
      829     2599    2   END OFFS;
      830     2600    1   SIZE:
      831     2601    1       PROC;
      832     2602    2   DCL BYTES CHAR(9);
      833     2603    2   DCL BITS CHAR(5);
      834     2604    2       IF EIS.TYP = '0'B THEN
      835     2605    3       DO;
      836     2606    3           CALL BINCHAR(BYTES,BITBIN(EIS.PREC));
      837     2607    3           IF BYTES = '000000000' THEN BYTES = '        0';
      838     2608    4           ELSE DO X = 0 TO 7; /*ZERO SUPPRESS*/
      839     2609    4               IF SUBSTR(BYTES,X,1) = '0' THEN
      840     2610    4                   CALL INSERT(BYTES,X,1,' ');
      841     2611    4               ELSE
      842     2612    4                   X = 8;
      843     2613    4               END;
      844     2614    3           BITS = '    0';
      845     2615    3           END;
      846     2616    2       ELSE
PL6.E3A0      #001=DBA_SUMMARY File=ZIG$DDE1.:ZIC0TSI                            FRI 09/05/97 11:43 Page:25
      847     2617    3       DO;
      848     2618    3           Y = BITBIN(EIS1.PREC);
      849     2619    3           X = Y/2;
      850     2620    3           CALL BINCHAR(BYTES,X);
      851     2621    3           IF BYTES = '000000000' THEN BYTES = '        0';
      852     2622    4           ELSE DO K = 0 TO 7; /* ZERO SUPPRESS */
      853     2623    4               IF SUBSTR(BYTES,K,1) = '0' THEN
      854     2624    4                   CALL INSERT(BYTES,K,1,' ');
      855     2625    4               ELSE
      856     2626    4                   K = 8;
      857     2627    4               END;
      858     2628    3           IF X * 2 = Y THEN
      859     2629    3               BITS = '    0';
      860     2630    3           ELSE
      861     2631    3               BITS = '    4';
      862     2632    3           END;
      863     2633    2       CALL CONCAT(C14 , BYTES , BITS);
      864     2634    2       BYTES = ' '; BITS = ' ';
      865     2635    2   END SIZE;
      866     2636    1   P_S_S:
      867     2637    1       PROC;
      868     2638    2   DCL PREC CHAR(7);
      869     2639    2   DCL SCALE CHAR(7);
      870     2640    2   DCL SIGN CHAR(6);
      871     2641    2   DCL C7V CHAR(7) ;
      872     2642    2       IF UWA.FR.FTYPE = 0 THEN
      873     2643    3       DO;
      874     2644    3           C20 = ' ';
      875     2645    3           RETURN;
      876     2646    3           END;
      877     2647    2       SCALE = ' ';
      878     2648    2       CALL BINCHAR(PREC,UWA.FR.PREC);
      879     2649    2       IF PREC = '0000000' THEN PREC = '      0';
      880     2650    3       ELSE DO X = 0 TO 5; /* ZERO SUPPRESS */
      881     2651    3           IF SUBSTR(PREC,X,1) = '0' THEN
      882     2652    3               CALL INSERT(PREC,X,1,' ');
      883     2653    3           ELSE
PL6.E3A0      #001=DBA_SUMMARY File=ZIG$DDE1.:ZIC0TSI                            FRI 09/05/97 11:43 Page:26
      884     2654    3               X = 6;
      885     2655    3           END;
      886     2656    2       IF UWA.FR.FTYPE = 1 OR UWA.FR.FTYPE = 2 OR
      887     2657    2          UWA.FR.FTYPE = 11 OR UWA.FR.FTYPE = 12 THEN
      888     2658    2           SIGN = '   YES';
      889     2659    2       ELSE
      890     2660    2           SIGN = ' ';
      891     2661    2       IF UWA.FR.FTYPE = 3 OR UWA.FR.FTYPE = 4 THEN
      892     2662    3       DO;
      893     2663    3           IF UWA.FR.F_SIGN = 1 THEN
      894     2664    3               SIGN = '   YES';
      895     2665    3           ELSE
      896     2666    3               SIGN = '    NO';
      897     2667    3           IF UWA.FR.SCALE > 32 THEN
      898     2668    4           DO;
      899     2669    4               K = 256 - UWA.FR.SCALE;
      900     2670    4               CALL BINCHAR(SCALE,K);
      901     2671    4               IF SCALE = '0000000' THEN SCALE = '      0';
      902     2672    5               ELSE DO X = 0 TO 5; /* ZERO SUP */
      903     2673    5                   IF SUBSTR(SCALE,X,1) = '0' THEN
      904     2674    5                       CALL INSERT(SCALE,X,1,' ');
      905     2675    6                   ELSE DO;
      906     2676    6                       CALL INSERT(SCALE,X-1,1,'-');
      907     2677    6                       X = 6;
      908     2678    6                       END;
      909     2679    5                   END;
      910     2680    4               END;
      911     2681    3           ELSE
      912     2682    4           DO;
      913     2683    4               CALL BINCHAR(SCALE,UWA.FR.SCALE);
      914     2684    4               IF SCALE = '0000000' THEN SCALE = '      0';
      915     2685    5               ELSE DO X = 0 TO 5; /* ZERO SUP */
      916     2686    5                   IF SUBSTR(SCALE,X,1) = '0' THEN
      917     2687    5                       CALL INSERT(SCALE,X,1,' ');
      918     2688    5                   ELSE X = 6;
      919     2689    5                   END;
      920     2690    4               END;
PL6.E3A0      #001=DBA_SUMMARY File=ZIG$DDE1.:ZIC0TSI                            FRI 09/05/97 11:43 Page:27
      921     2691    3           END;
      922     2692    2       CALL CONCAT(C20 , PREC , SCALE , SIGN);
      923     2693    2       PREC = ' '; SCALE = ' '; SIGN = ' ';
      924     2694    2   END;
      925     2695    1   ERROR:
      926     2696    1       CALL ABORT;
      927     2697    1   OCT:
      928     2698    1       PROC(DNUMB);
      929     2699    2   DCL DNUMB BIT(36);
      930     2700    2   DCL DNUMB_RDEF(0:11) REDEF DNUMB BIT(3);
      931     2701    2   DCL B3 BIT(3);
      932     2702    2   DCL ODIG(0:7) CHAR(1) STATIC INIT('0','1','2','3','4','5',
      933     2703    2    '6', '7');
      934     2704    2       X2 = 0;
      935     2705    3       DO X = 0 TO 11;
      936     2706    3           B3 = DNUMB_RDEF(X);
      937     2707    3           X1 = BITBIN(B3);
      938     2708    3           CALL INSERT(OSTR,X2,1,ODIG(X1));
      939     2709    3           X2 = X2 + 1;
      940     2710    3           END;
      941     2711    2   END OCT;
      942     2712    1   END DBA_SUMMARY;

PL6.E3A0      #001=DBA_SUMMARY File=ZIG$DDE1.:ZIC0TSI                            FRI 09/05/97 11:43 Page:28
--  Include file information  --

   ZIG_GENERAL.:ZIC0TOU  cannot be made into a system file and is referenced.
   ZI_SUB4_CAN.:ZIC0TOU  is referenced.
   ZI_ERRORS_SUBS.:ZIC0TOU  is referenced.
   ZIA_IDS_DCL.:ZIC0TOU  cannot be made into a system file and is referenced.
   ZIG_DBA_INT.:ZIC0TOU  cannot be made into a system file and is referenced.
   B$JIT_C.:E05TOU  was found in the system file and is never referenced.
   CP_6_C.:E05TOU  was found in the system file and is never referenced.
      No diagnostics issued in procedure DBA_SUMMARY.

   Procedure DBA_SUMMARY requires 2659 words for executable code.
   Procedure DBA_SUMMARY requires 90 words of local(AUTO) storage.

    No errors detected in file ZIG$DDE1.:ZIC0TSI    .

PL6.E3A0      #001=DBA_SUMMARY File=ZIG$DDE1.:ZIC0TSI                            FRI 09/05/97 11:43 Page:29

 Object Unit name= DBA_SUMMARY                                File name= ZIG$DDE1.:ZIC0TOU
 UTS= SEP 05 '97 11:43:29.92 FRI                              Compiler= PL-6/E31         Sev=      00
 SharedLib= :SHARED_SYSTEM                                    Alt SharedLib=


    ****  Control sections  ****

 Sect   Type Bound  Init  Size OctSiz  Section name(segment info)
    0  LblCom even  none     1      1  NUM_ERROR_MSG
    1  LblCom even  none     1      1  NUM_WARN_MSG
    2  LblCom even  none     1      1  ALLOCATE_END
    3  LblCom even  none     2      2  SUBSCHEMA_KEY
    4  LblCom even  none     1      1  BUFFER$
    5  LblCom even  none     1      1  ERROR_IO
    6  LblCom even  none     1      1  BUFFER_LEN
    7  LblCom even  none     2      2  UWA_KEY
    8  LblCom even  none     1      1  NEXT_UWA_SECOND_HALF
    9  LblCom even  none     2      2  RVA_KEY
   10  LblCom even  none     2      2  IA__KEY
   11  LblCom even  none     1      1  NEXT_RVA_SECOND_HALF
   12  LblCom even  none    32     40  SEARCHR_NB
   13  LblCom even  none    32     40  SEM_COM
   14  LblCom even  none    32     40  DMCL_XLATE
   15  LblCom even  none    32     40  Q2_PERCENT
   16  LblCom even  none   656   1220  UWA
   17   Data  even  none   154    232  DBA_SUMMARY
   18  LblCom even  none     8     10  FIELD1
   19  LblCom even  none     8     10  FIELD2
   20  LblCom even  none     8     10  FIELD3
   21  RoData even  UTS    759   1367  DBA_SUMMARY
   22   Proc  even  none  2659   5143  DBA_SUMMARY
   23  RoData even  none   148    224  DBA_SUMMARY
PL6.E3A0      #001=DBA_SUMMARY File=ZIG$DDE1.:ZIC0TSI                            FRI 09/05/97 11:43 Page:30

    ****  Entry defs  ****

                              Check   Calling
                             calling  sequence
  Sect OctLoc Primary Altret sequence   type   Parms  Name
    22      0   yes            yes      Std        0  DBA_SUMMARY

  ****  Entry refs  ****

         Check        Calling
        calling       sequence
Altret sequence SRef   type   Args  Name
         yes           Std       2 SUBLST
 yes     yes           Std       1 FETCHOS_6
 yes     yes           Std       1 FETCHNS_6
         yes           Std       2 SET_FIELD_NUM
 yes     yes           Std       2 FETCHD_6
         yes           Std       3 SET_FIELDS
 yes     yes           Std       2 FINDD_6
 yes     yes           Std       1 FETCHPS_6
 yes     yes           Std       1 FCURR_R_6
         yes           Std       3 PRNT
         yes           Std       0 ABORT
                       nStd      0 X66_AUTO_0
                       nStd      0 X66_ARET

  ****  Data refs  ****

  Flags:  r = read only, s = secondary
Flgs Name                             Flgs Name                             Flgs Name
     LNCNT
PL6.E3A0      #001=DBA_SUMMARY File=ZIG$DDE1.:ZIC0TSI                            FRI 09/05/97 11:43 Page:31

  ****  Segment refs  ****

  Flags:  r = read only, s = secondary
Flgs Name                             Flgs Name                             Flgs Name
     ISSID
PL6.E3A0      #001=DBA_SUMMARY File=ZIG$DDE1.:ZIC0TSI                            FRI 09/05/97 11:43 Page:32


        1        1        /*M* ZIG$DDE1         I-D-S/II            DBACS    */
        2        2        /*T***********************************************************/
        3        3        /*T*                                                         */
        4        4        /*T* Copyright (c) Bull HN Information Systems Inc., 1997    */
        5        5        /*T*                                                         */
        6        6        /*T***********************************************************/
        7        7        DBA_SUMMARY:
        8        8            PROC;

      8 22 000000   000000 700200 xent  DBA_SUMMARY  TSX0  ! X66_AUTO_0
        22 000001   000132 000000                    ZERO    90,0

        9        9        %INCLUDE ZIG_DBA_INT;
       10       57        %INCLUDE ZIA_IDS_DCL;
       11      165        %INCLUDE ZI_ERRORS_SUBS;
       12      685        %INCLUDE ZI_SUB4_CAN;
       13     1342        %INCLUDE ZIG_GENERAL;
       14     1450        %UWA;
       15     1785    1   DCL SRNC SBIN HALF;
       16     1786    1   DCL DBK_PARAM UBIN WORD;
       17     1787    1   DCL ZT SBIN HALF;
       18     1788    1   DCL Z SBIN HALF;
       19     1789    1   DCL DBKSM UBIN WORD;
       20     1790    1   DCL Y SBIN HALF;
       21     1791    1   DCL K UBIN WORD;
       22     1792    1   DCL X1 SBIN HALF;
       23     1793    1   DCL Y1 SBIN HALF;
       24     1794    1   DCL X2 SBIN HALF;
       25     1795    1   DCL XS UBIN WORD;
       26     1796    1   DCL RC_RA_H ENTRY(2) ALTRET;
       27     1797    1   DCL C13_1 CHAR(13) STATIC;
       28     1798    1   DCL C12_3 CHAR(12) STATIC;
       29     1799    1   DCL C13_3 CHAR(13) STATIC;
       30     1800    1   DCL C13_4 CHAR(13) STATIC;
       31     1801    1   DCL C12_1 CHAR(12) STATIC;
       32     1802    1   DCL C17_1 CHAR(17) STATIC;
PL6.E3A0      #001=DBA_SUMMARY File=ZIG$DDE1.:ZIC0TSI                            FRI 09/05/97 11:43 Page:33
       33     1803    1   DCL C30 CHAR(30) STATIC ALIGNED;
       34     1804    1   DCL C34 CHAR(34);
       35     1805    1   DCL C18 CHAR(18);
       36     1806    1   DCL C14 CHAR(14);
       37     1807    1   DCL C20 CHAR(20);
       38     1808    1   DCL OSTR CHAR(12);
       39     1809    1   DCL O_L CHAR(128) STATIC;
       40     1810    1   DCL 1 O_L_64_64 REDEF O_L,
       41     1811    1         2 A CHAR(64),
       42     1812    1         2 B CHAR(64);
       43     1813    1   DCL 1 O_L_74_54 REDEF O_L,
       44     1814    1         2 A CHAR(74),
       45     1815    1         2 B CHAR(54);
       46     1816    1   DCL 1 O_L_69_59 REDEF O_L,
       47     1817    1         2 A CHAR(69),
       48     1818    1         2 B CHAR(59);
       49     1819    1   DCL C15_1 CHAR(15) STATIC;
       50     1820    1   DCL C12_2 CHAR(12) STATIC;
       51     1821    1   DCL DTYP(0: 19) CHAR(8) STATIC INIT('DBKEY', 'BINARY', 'BINARY',
       52     1822    1    'DECIMAL', 'DECIMAL', 'CHAR', 'UNDEFND', 'UNDEFND', 'UNDEFND',
       53     1823    1    'UNSPEC', ' ', 'FLT BIN', 'FLT BIN',
       54     1824    1    ' ', ' ', ' ', ' ', ' ', ' ', 'FCW');
       55     1825    1   DCL P1 PTR;
       56     1826    1   DCL P2 PTR;
       57     1827    1   DCL PE PTR;
       58     1828    1   DCL B36 BIT(36) BASED;
       59     1829    1   DCL LSTEIS BIT(36) STATIC;
       60     1830    1   DCL LSTBUFLOC SBIN WORD;
       61     1831    1   DCL DEIS BIT(36);
       62     1832    1   DCL 1 DEIS_RDEF REDEF DEIS,
       63     1833    1         2 B0_17 BIT(18),
       64     1834    1         2 B18_20 BIT(3),
       65     1835    1         2 B21_29 BIT(9),
       66     1836    1         2 B30_35 BIT(6);
       67     1837         /* Dummy eis for record within 4 byte rcw */
       68     1838    1   DCL DEIS4 BIT(36) STATIC INIT('000000000000000000000100000000001000'B);
       69     1839         /* Dummy eis for record with 8 byte rcw */
PL6.E3A0      #001=DBA_SUMMARY File=ZIG$DDE1.:ZIC0TSI                            FRI 09/05/97 11:43 Page:34
       70     1840    1   DCL DEIS8 BIT(36) STATIC INIT('000000000000000000000100000000010000'B);
       71     1841         /* Dummy eis for record with 2 byte ecw */
       72     1842    1   DCL DEIS2 BIT(36) STATIC INIT('000000000000000000000100000000000100'B);
       73     1843    1   DCL 01 EIS BASED(PE),
       74     1844    1         02 FIL1 BIT(3),
       75     1845    1         02 BWRD BIT(15),
       76     1846    1         02 BCHR BIT(3),
       77     1847    1         02 TYP BIT(1),
       78     1848    1         02 FIL2 BIT(2),
       79     1849    1         02 PREC BIT(12);
       80     1850    1   DCL 01 EIS1 BASED(PE),
       81     1851    1         02 FIL1 BIT(3),
       82     1852    1         02 BWRD BIT(15),
       83     1853    1         02 BCHR BIT(3),
       84     1854    1         02 TYP BIT(1),
       85     1855    1         02 SIGN BIT(2),
       86     1856    1         02 SCALE BIT(6),
       87     1857    1         02 PREC BIT(6);
       88     1858    1   DCL PRNT ENTRY(3);
       89     1859    1   DCL DBK UBIN WORD;
       90     1860    1   DCL TEMP_UBIN_WORD UBIN WORD;
       91     1861    1   DCL REC_NAME CHAR(30);
       92     1862    1   DCL DFR$ PTR;
       93     1863    1   DCL 01 DFR BASED(DFR$),
       94     1864    1         02 DUM BIT(18),
       95     1865    1         02 BUFLOC BIT(3);
       96     1866    1   DCL 01 AREA STATIC,
       97     1867    1         02 TOTAL_KEYS UBIN WORD,
       98     1868    1         02 AVAIL_KEYS UBIN WORD,
       99     1869    1         02 MAX_DBK_GLOB UBIN WORD,
      100     1870    1         02 MIN_DBK_GLOB UBIN WORD,
      101     1871    1         02 MAX_DBK_LOC UBIN WORD,
      102     1872    1         02 MIN_DBK_LOC UBIN WORD,
      103     1873    1         02 BASE UBIN WORD,
      104     1874    1         02 MAX_PAGE UBIN WORD,
      105     1875    1         02 DATA_PGS UBIN WORD,
      106     1876    1         02 INV_PGS UBIN WORD,
PL6.E3A0      #001=DBA_SUMMARY File=ZIG$DDE1.:ZIC0TSI                            FRI 09/05/97 11:43 Page:35
      107     1877    1         02 DBK_PAGE UBIN WORD,
      108     1878    1         02 DBK_CALC UBIN WORD,
      109     1879    1         02 CALC_HDRS UBIN WORD,
      110     1880    1         02 PAGE_SIZE SBIN HALF,
      111     1881    1         02 LLINKS SBIN HALF,
      112     1882    1         02 SECTORS UBIN WORD,
      113     1883    1         02 INV_THRESH UBIN WORD,
      114     1884    1         02 LOAD_LIM UBIN WORD;
      115     1885    1   DCL 01 RANGE STATIC,
      116     1886    1         02 TOTAL_KEYS UBIN WORD,
      117     1887    1         02 AVAIL_KEYS UBIN WORD,
      118     1888    1         02 MAX_DBK_GLOB UBIN WORD,
      119     1889    1         02 MIN_DBK_GLOB UBIN WORD,
      120     1890    1         02 MAX_DBK_LOC UBIN WORD,
      121     1891    1         02 MIN_DBK_LOC UBIN WORD,
      122     1892    1         02 CALC_OFFS UBIN WORD,
      123     1893    1         02 CALC_HDRS UBIN WORD;
      124     1894    1   DCL 01 DB STATIC,
      125     1895    1         02 AREAS SBIN HALF INIT (0),
      126     1896    1         02 RECORDS SBIN HALF INIT(0),
      127     1897    1         02 FIELDS SBIN HALF INIT(0),
      128     1898    1         02 SETS SBIN HALF INIT(0),
      129     1899    1         02 PARAMS SBIN HALF INIT(0),
      130     1900    1         02 TOTAL_KEYS UBIN WORD INIT(0),
      131     1901    1         02 SECTORS UBIN WORD INIT(0),
      132     1902    1         02 LLINKS UBIN WORD INIT(0);
      133     1903    1   DCL AREA_TYPE CHAR (2) UNAL STATIC;
      134     1904    1   DCL AREABIT$ PTR;
      135     1905    1   DCL 1 AREABIT UNAL BASED (AREABIT$),
      136     1906    1         2 CHECKSUM UNAL BIT (1),
      137     1907    1         2 ENCRYPTION UNAL BIT (1),
      138     1908    1         2 JOURNALING UNAL BIT (1),
      139     1909    1         2 TEMPLATE UNAL BIT (1),
      140     1910    1         2 BACKUP UNAL BIT (1),
      141     1911    1         2 FILL UNAL BIT (13);
      142     1912    1   DCL CALC_NXT BIT(36);
      143     1913    1   DCL CALC_PRI BIT(36);
PL6.E3A0      #001=DBA_SUMMARY File=ZIG$DDE1.:ZIC0TSI                            FRI 09/05/97 11:43 Page:36
      144     1914    1   DCL RNG UBIN WORD STATIC INIT(0);
      145     1915    1   DCL D UBIN WORD STATIC INIT(0);
      146     1916    1   DCL S1 CHAR(16);
      147     1917    1   DCL S2 CHAR(16);
      148     1918    1   DCL FXCHRV SBIN HALF;
      149     1919    1   DCL X UBIN WORD;
      150     1920    1   DCL NUMB_CALC SBIN HALF;
      151     1921    1   DCL AREA_KEYS UBIN WORD;
      152     1922    1   DCL TOTAL_PAGES UBIN WORD STATIC INIT (0);
      153     1923    1   DCL C15 CHAR(15);
      154     1924    1   DCL 1 FIELD1 EXT,
      155     1925    1         2 COUNT1 UBIN (9) UNAL,
      156     1926    1         2 TEXT1 CHAR (31) UNAL;
      157     1927    1   DCL 1 FIELD2 EXT,
      158     1928    1         2 COUNT2 UBIN (9) UNAL,
      159     1929    1         2 TEXT2 CHAR (31) UNAL;
      160     1930    1   DCL 1 FIELD3 EXT,
      161     1931    1         2 COUNT3 UBIN (9) UNAL,
      162     1932    1         2 TEXT3 CHAR (31) UNAL;
      163     1933    1   DCL LNCNT UBIN(36) SYMREF ALIGNED;
      164     1934    1       CALL SUBLST('DATA BASE STORAGE STRUCTURE SUMMARY                            ');

   1934 22 000002   000001 630400 23                 EPPR0   1
        22 000003   000000 631400 23                 EPPR1   0
        22 000004   000000 701000 xent               TSX1    SUBLST
        22 000005   000000 011000                    NOP     0

      165     1935    1       DEIS = '000000000000000000000100000000000000'B;

   1935 22 000006   000020 236000 21                 LDQ     16
        22 000007   200054 756100                    STQ     DEIS,,AUTO

      166     1936    1       DFR$ = ADDR(UWA.FR.BUFFLOC);

   1936 22 000010   000002 236000 23                 LDQ     2
        22 000011   200067 756100                    STQ     DFR$,,AUTO

PL6.E3A0      #001=DBA_SUMMARY File=ZIG$DDE1.:ZIC0TSI                            FRI 09/05/97 11:43 Page:37
      167     1937    1       AREABIT$ = ADDR(AREA_TYPE);

   1937 22 000012   000003 236000 23                 LDQ     3
        22 000013   200070 756100                    STQ     AREABIT$,,AUTO

      168     1938    1   BLD_DB:
      169     1939    1       CALL FETCHOS_6('OA-AC   ') ALTRET(ERROR);

   1939 22 000014   000004 630400 23    BLD_DB       EPPR0   4
        22 000015   000000 631400 23                 EPPR1   0
        22 000016   000000 701000 xent               TSX1    FETCHOS_6
        22 000017   005100 702000 22                 TSX2    ERROR

      170     1940    1   SUMAC:
      171     1941    1       CALL FETCHNS_6('OA-AC   ') ALTRET(PUTDB);

   1941 22 000020   000004 630400 23    SUMAC        EPPR0   4
        22 000021   000000 631400 23                 EPPR1   0
        22 000022   000000 701000 xent               TSX1    FETCHNS_6
        22 000023   000046 702000 22                 TSX2    PUTDB

      172     1942    1       AREA.TOTAL_KEYS = UWA.AC.MAX_DBK - UWA.AC.BASE_DBK;

   1942 22 000024   000246 236000 16                 LDQ     UWA+166
        22 000025   000242 136000 16                 SBLQ    UWA+162
        22 000026   000162 756000 17                 STQ     AREA

      173     1943    1       DB.TOTAL_KEYS = DB.TOTAL_KEYS + AREA.TOTAL_KEYS;

   1943 22 000027   000221 036000 17                 ADLQ    DB+5
        22 000030   000221 756000 17                 STQ     DB+5

      174     1944    1       DB.SECTORS = DB.SECTORS +(UWA.AC.SECTORS_PAGE * (UWA.AC.MAX_PAGE + 1));

   1944 22 000031   000250 236000 16                 LDQ     UWA+168
        22 000032   000001 036007                    ADLQ    1,DL
        22 000033   000264 402000 16                 MPY     UWA+180
PL6.E3A0      #001=DBA_SUMMARY File=ZIG$DDE1.:ZIC0TSI                            FRI 09/05/97 11:43 Page:38
        22 000034   000222 036000 17                 ADLQ    DB+6
        22 000035   000222 756000 17                 STQ     DB+6

      175     1945    1       TOTAL_PAGES = TOTAL_PAGES + UWA.AC.MAX_PAGE + 1 ;

   1945 22 000036   000227 236000 17                 LDQ     TOTAL_PAGES
        22 000037   000250 036000 16                 ADLQ    UWA+168
        22 000040   000001 036007                    ADLQ    1,DL
        22 000041   000227 756000 17                 STQ     TOTAL_PAGES

      176     1946    1       DB.AREAS = DB.AREAS + 1;

   1946 22 000042   000214 220000 17                 LDX0    DB
        22 000043   000001 621010                    EAX1    1,X0
        22 000044   000214 741000 17                 STX1    DB

      177     1947    1       GOTO SUMAC;

   1947 22 000045   000020 710000 22                 TRA     SUMAC

      178     1948    1   PUTDB:
      179     1949         /**
      180     1950            Data base capacity summary
      181     1951            */
      182     1952    1       O_L = 'DATA BASE CAPACITY SUMMARY***';

   1952 22 000046   040000 100400       PUTDB        MLR     fill='040'O
        22 000047   000023 000035 21                 ADSC9   19                       cn=0,n=29
        22 000050   000037 000200 17                 ADSC9   O_L                      cn=0,n=128

      183     1953    1       CALL PRNT(O_L, 1, 0);

   1953 22 000051   000010 630400 23                 EPPR0   8
        22 000052   000005 631400 23                 EPPR1   5
        22 000053   000000 701000 xent               TSX1    PRNT
        22 000054   000000 011000                    NOP     0

PL6.E3A0      #001=DBA_SUMMARY File=ZIG$DDE1.:ZIC0TSI                            FRI 09/05/97 11:43 Page:39
      184     1954    1       CALL SET_FIELD_NUM(1,DB.TOTAL_KEYS);

   1954 22 000055   000014 630400 23                 EPPR0   12
        22 000056   000013 631400 23                 EPPR1   11
        22 000057   000000 701000 xent               TSX1    SET_FIELD_NUM
        22 000060   000000 011000                    NOP     0

      185     1955    1      CALL CONCAT(O_L,'TOTAL DATA BASE KEYS ALLOCATED TO ALL AREAS IS ',SUBSTR(FIELD1.
              1955                TEXT1,0,FIELD1.COUNT1));

   1955 22 000061   000000 236000 18                 LDQ     FIELD1
        22 000062   000033 772000                    QRL     27
        22 000063   040000 100400                    MLR     fill='040'O
        22 000064   000033 000057 21                 ADSC9   27                       cn=0,n=47
        22 000065   000037 000057 17                 ADSC9   O_L                      cn=0,n=47
        22 000066   000000 620006                    EAX0    0,QL
        22 000067   040000 100440                    MLR     fill='040'O
        22 000070   000000 200010 18                 ADSC9   FIELD1                   cn=1,n=*X0
        22 000071   000052 600121 17                 ADSC9   O_L+11                   cn=3,n=81

      186     1956    1       CALL PRNT(O_L, 2, 3);

   1956 22 000072   000020 630400 23                 EPPR0   16
        22 000073   000005 631400 23                 EPPR1   5
        22 000074   000000 701000 xent               TSX1    PRNT
        22 000075   000000 011000                    NOP     0

      187     1957    1       X = UWA.OA.GLOBAL + 1;

   1957 22 000076   000226 235000 16                 LDA     UWA+150
        22 000077   000001 035007                    ADLA    1,DL
        22 000100   200104 755100                    STA     X,,AUTO

      188     1958    1       CALL SET_FIELD_NUM(1,X);

   1958 22 000101   200104 630500                    EPPR0   X,,AUTO
        22 000102   200127 450500                    STP0    C7V+4,,AUTO
PL6.E3A0      #001=DBA_SUMMARY File=ZIG$DDE1.:ZIC0TSI                            FRI 09/05/97 11:43 Page:40
        22 000103   000011 236000 23                 LDQ     9
        22 000104   200126 756100                    STQ     C7V+3,,AUTO
        22 000105   200126 630500                    EPPR0   C7V+3,,AUTO
        22 000106   000013 631400 23                 EPPR1   11
        22 000107   000000 701000 xent               TSX1    SET_FIELD_NUM
        22 000110   000000 011000                    NOP     0

      189     1959    1      CALL CONCAT(O_L,'GLOBAL SET POINTERS ARE ',SUBSTR(FIELD1.TEXT1,0,FIELD1.COUNT1),
              1959                ' BYTES');

   1959 22 000111   000000 236000 18                 LDQ     FIELD1
        22 000112   000033 772000                    QRL     27
        22 000113   040000 100400                    MLR     fill='040'O
        22 000114   000047 000030 21                 ADSC9   39                       cn=0,n=24
        22 000115   000037 000030 17                 ADSC9   O_L                      cn=0,n=24
        22 000116   000000 620006                    EAX0    0,QL
        22 000117   040000 100440                    MLR     fill='040'O
        22 000120   000000 200010 18                 ADSC9   FIELD1                   cn=1,n=*X0
        22 000121   000045 000150 17                 ADSC9   O_L+6                    cn=0,n=104
        22 000122   000150 116007                    CMPQ    104,DL
        22 000123   000131 603000 22                 TRC     s:1960
        22 000124   777627 620006                    EAX0    -105,QL
        22 000125   777777 660003                    ERX0    -1,DU
        22 000126   040046 100400                    MLR     fill='040'O
        22 000127   000055 000006 21                 ADSC9   45                       cn=0,n=6
        22 000130   000045 000010 17                 ADSC9   O_L+6,Q                  cn=0,n=*X0

      190     1960    1       CALL PRNT(O_L, 2, 3);

   1960 22 000131   000020 630400 23                 EPPR0   16
        22 000132   000005 631400 23                 EPPR1   5
        22 000133   000000 701000 xent               TSX1    PRNT
        22 000134   000000 011000                    NOP     0

      191     1961    1       O_L = 'TOTAL FILE SPACE REQUIRED FOR ALL AREAS IS: ';

   1961 22 000135   040000 100400                    MLR     fill='040'O
PL6.E3A0      #001=DBA_SUMMARY File=ZIG$DDE1.:ZIC0TSI                            FRI 09/05/97 11:43 Page:41
        22 000136   000057 000054 21                 ADSC9   47                       cn=0,n=44
        22 000137   000037 000200 17                 ADSC9   O_L                      cn=0,n=128

      192     1962    1       CALL PRNT(O_L, 2, 3);

   1962 22 000140   000020 630400 23                 EPPR0   16
        22 000141   000005 631400 23                 EPPR1   5
        22 000142   000000 701000 xent               TSX1    PRNT
        22 000143   000000 011000                    NOP     0

      193     1963    1       CALL SET_FIELD_NUM(1,TOTAL_PAGES);

   1963 22 000144   000023 630400 23                 EPPR0   19
        22 000145   000013 631400 23                 EPPR1   11
        22 000146   000000 701000 xent               TSX1    SET_FIELD_NUM
        22 000147   000000 011000                    NOP     0

      194     1964    1       CALL CONCAT(O_L, 'PAGES.............' , SUBSTR(FIELD1.TEXT1,0,FIELD1.COUNT1));

   1964 22 000150   000000 236000 18                 LDQ     FIELD1
        22 000151   000033 772000                    QRL     27
        22 000152   040000 100400                    MLR     fill='040'O
        22 000153   000072 000022 21                 ADSC9   58                       cn=0,n=18
        22 000154   000037 000022 17                 ADSC9   O_L                      cn=0,n=18
        22 000155   000000 620006                    EAX0    0,QL
        22 000156   040000 100440                    MLR     fill='040'O
        22 000157   000000 200010 18                 ADSC9   FIELD1                   cn=1,n=*X0
        22 000160   000043 400156 17                 ADSC9   O_L+4                    cn=2,n=110

      195     1965    1       CALL PRNT(O_L,1,11);

   1965 22 000161   000026 630400 23                 EPPR0   22
        22 000162   000005 631400 23                 EPPR1   5
        22 000163   000000 701000 xent               TSX1    PRNT
        22 000164   000000 011000                    NOP     0

      196     1966    1   PUT_GLOBAL:
PL6.E3A0      #001=DBA_SUMMARY File=ZIG$DDE1.:ZIC0TSI                            FRI 09/05/97 11:43 Page:42
      197     1967         /**
      198     1968            Data base area summary
      199     1969            */
      200     1970    1       CALL FETCHOS_6('OA-AC   ') ALTRET(ERROR);

   1970 22 000165   000004 630400 23    PUT_GLOBAL   EPPR0   4
        22 000166   000000 631400 23                 EPPR1   0
        22 000167   000000 701000 xent               TSX1    FETCHOS_6
        22 000170   005100 702000 22                 TSX2    ERROR

      201     1971    1   NXTAC:
      202     1972    1       CALL FETCHNS_6('OA-AC   ') ALTRET(REC_SUM);

   1972 22 000171   000004 630400 23    NXTAC        EPPR0   4
        22 000172   000000 631400 23                 EPPR1   0
        22 000173   000000 701000 xent               TSX1    FETCHNS_6
        22 000174   001754 702000 22                 TSX2    REC_SUM

      203     1973    1       O_L = ' ';

   1973 22 000175   040000 100400                    MLR     fill='040'O
        22 000176   000031 000001 23                 ADSC9   25                       cn=0,n=1
        22 000177   000037 000200 17                 ADSC9   O_L                      cn=0,n=128

      204     1974    1       CALL PRNT(O_L, 99, 0);

   1974 22 000200   000033 630400 23                 EPPR0   27
        22 000201   000005 631400 23                 EPPR1   5
        22 000202   000000 701000 xent               TSX1    PRNT
        22 000203   000000 011000                    NOP     0

      205     1975    1       AREA_TYPE=UWA.AC.FILE_CODE;

   1975 22 000204   000233 220000 16                 LDX0    UWA+155
        22 000205   000224 740000 17                 STX0    AREA_TYPE

      206     1976    1       AREA.MAX_DBK_GLOB = UWA.AC.MAX_DBK;
PL6.E3A0      #001=DBA_SUMMARY File=ZIG$DDE1.:ZIC0TSI                            FRI 09/05/97 11:43 Page:43

   1976 22 000206   000246 235000 16                 LDA     UWA+166
        22 000207   000164 755000 17                 STA     AREA+2

      207     1977    1       AREA.MIN_DBK_GLOB = UWA.AC.MIN_DBK;

   1977 22 000210   000245 236000 16                 LDQ     UWA+165
        22 000211   000165 756000 17                 STQ     AREA+3

      208     1978    1       AREA.BASE = UWA.AC.BASE_DBK;

   1978 22 000212   000242 235000 16                 LDA     UWA+162
        22 000213   000170 755000 17                 STA     AREA+6

      209     1979    1       AREA.MAX_PAGE = UWA.AC.MAX_PAGE;

   1979 22 000214   000250 235000 16                 LDA     UWA+168
        22 000215   000171 755000 17                 STA     AREA+7

      210     1980    1       AREA.DBK_PAGE = UWA.AC.DBK_PAGE;

   1980 22 000216   000253 235000 16                 LDA     UWA+171
        22 000217   000174 755000 17                 STA     AREA+10

      211     1981    1       AREA.DBK_CALC = UWA.AC.DBK_CALC;

   1981 22 000220   000254 235000 16                 LDA     UWA+172
        22 000221   000175 755000 17                 STA     AREA+11

      212     1982    1       AREA.PAGE_SIZE = UWA.AC.PAGE_SIZE;

   1982 22 000222   000262 721000 16                 LXL1    UWA+178
        22 000223   000177 741000 17                 STX1    AREA+13

      213     1983    1       AREA.INV_THRESH = UWA.AC.INV_THRESH;

   1983 22 000224   000256 235000 16                 LDA     UWA+174
PL6.E3A0      #001=DBA_SUMMARY File=ZIG$DDE1.:ZIC0TSI                            FRI 09/05/97 11:43 Page:44
        22 000225   000202 755000 17                 STA     AREA+16

      214     1984    1       AREA.LOAD_LIM = UWA.AC.LOAD_LIMIT;

   1984 22 000226   000257 235000 16                 LDA     UWA+175
        22 000227   000203 755000 17                 STA     AREA+17

      215     1985    1       AREA.SECTORS = UWA.AC.SECTORS_PAGE;

   1985 22 000230   000264 235000 16                 LDA     UWA+180
        22 000231   000201 755000 17                 STA     AREA+15

      216     1986    1       AREA.SECTORS = AREA.SECTORS * (AREA.MAX_PAGE + 1);

   1986 22 000232   000171 236000 17                 LDQ     AREA+7
        22 000233   000001 036007                    ADLQ    1,DL
        22 000234   000201 402000 17                 MPY     AREA+15
        22 000235   000201 756000 17                 STQ     AREA+15

      217     1987    1       AREA.TOTAL_KEYS = UWA.AC.KEYS_ALLOC;

   1987 22 000236   000243 235000 16                 LDA     UWA+163
        22 000237   000162 755000 17                 STA     AREA

      218     1988    1       RNG = AREA.MAX_DBK_GLOB - AREA.MIN_DBK_GLOB + 1;

   1988 22 000240   000164 236000 17                 LDQ     AREA+2
        22 000241   000165 136000 17                 SBLQ    AREA+3
        22 000242   000001 036007                    ADLQ    1,DL
        22 000243   000225 756000 17                 STQ     RNG

      219     1989    1       IF UWA.AC.CALC_NULL = 0 THEN

   1989 22 000244   000241 235000 16                 LDA     UWA+161
        22 000245   000257 601000 22                 TNZ     s:1993

      220     1990    1           AREA.CALC_HDRS = (RNG + AREA.DBK_CALC - 1) / AREA.DBK_CALC;
PL6.E3A0      #001=DBA_SUMMARY File=ZIG$DDE1.:ZIC0TSI                            FRI 09/05/97 11:43 Page:45

   1990 22 000246   000175 036000 17                 ADLQ    AREA+11
        22 000247   000001 136007                    SBLQ    1,DL
        22 000250   000175 235000 17                 LDA     AREA+11
        22 000251   000254 605000 22                 TPL     s:1990+6
        22 000252   000000 236003                    LDQ     0,DU
        22 000253   000255 710000 22                 TRA     s:1990+7
        22 000254   000175 506000 17                 DIV     AREA+11
        22 000255   000176 756000 17                 STQ     AREA+12
        22 000256   000261 710000 22                 TRA     PRIME

      221     1991    1       ELSE
      222     1992    2       DO;

      223     1993    2           AREA.CALC_HDRS = 0;

   1993 22 000257   000176 450000 17                 STZ     AREA+12

      224     1994    2           GOTO NXTAC1;

   1994 22 000260   000337 710000 22                 TRA     NXTAC1

      225     1995    2           END;
      226     1996         /**
      227     1997            Reduce number of calc headers to
      228     1998            a prime number
      229     1999            */
      230     2000    1   PRIME:
      231     2001    1       IF AREA.CALC_HDRS > 2 THEN

   2001 22 000261   000176 235000 17    PRIME        LDA     AREA+12
        22 000262   000003 115007                    CMPA    3,DL
        22 000263   000337 602000 22                 TNC     NXTAC1

      232     2002    2       DO;

      233     2003    2           IF MOD(AREA.CALC_HDRS, 2) = 0 THEN
PL6.E3A0      #001=DBA_SUMMARY File=ZIG$DDE1.:ZIC0TSI                            FRI 09/05/97 11:43 Page:46

   2003 22 000264   000176 236000 17                 LDQ     AREA+12
        22 000265   000001 376007                    ANQ     1,DL
        22 000266   000271 601000 22                 TNZ     s:2005

      234     2004    2               AREA.CALC_HDRS = AREA.CALC_HDRS - 1;

   2004 22 000267   000001 135007                    SBLA    1,DL
        22 000270   000176 755000 17                 STA     AREA+12

      235     2005    3           DO D = 3 TO AREA.CALC_HDRS/2 BY 2 ;

   2005 22 000271   000003 236007                    LDQ     3,DL
        22 000272   000226 756000 17                 STQ     D
        22 000273   000333 710000 22                 TRA     s:2012+3

      236     2006    3               X = AREA.CALC_HDRS / D;

   2006 22 000274   000176 236000 17                 LDQ     AREA+12
        22 000275   000313 605000 22                 TPL     s:2006+15
        22 000276   000226 235000 17                 LDA     D
        22 000277   000307 604000 22                 TMI     s:2006+11
        22 000300   000001 115007                    CMPA    1,DL
        22 000301   000320 600000 22                 TZE     s:2006+20
        22 000302   000000 235003                    LDA     0,DU
        22 000303   000001 737000                    LLS     1
        22 000304   000226 507000 17                 DVF     D
        22 000305   000044 733000                    LRS     36
        22 000306   000320 710000 22                 TRA     s:2006+20
        22 000307   000226 116000 17                 CMPQ    D
        22 000310   000315 602000 22                 TNC     s:2006+17
        22 000311   000001 236007                    LDQ     1,DL
        22 000312   000320 710000 22                 TRA     s:2006+20
        22 000313   000226 235000 17                 LDA     D
        22 000314   000317 605000 22                 TPL     s:2006+19
        22 000315   000000 236003                    LDQ     0,DU
        22 000316   000320 710000 22                 TRA     s:2006+20
PL6.E3A0      #001=DBA_SUMMARY File=ZIG$DDE1.:ZIC0TSI                            FRI 09/05/97 11:43 Page:47
        22 000317   000226 506000 17                 DIV     D
        22 000320   200104 756100                    STQ     X,,AUTO

      237     2007    3               IF X * D = AREA.CALC_HDRS THEN

   2007 22 000321   000226 402000 17                 MPY     D
        22 000322   000176 116000 17                 CMPQ    AREA+12
        22 000323   000330 601000 22                 TNZ     s:2012

      238     2008    4               DO;

      239     2009    4                   AREA.CALC_HDRS = AREA.CALC_HDRS - 1;

   2009 22 000324   000176 235000 17                 LDA     AREA+12
        22 000325   000001 135007                    SBLA    1,DL
        22 000326   000176 755000 17                 STA     AREA+12

      240     2010    4                   GOTO PRIME;

   2010 22 000327   000261 710000 22                 TRA     PRIME

      241     2011    4                   END;
      242     2012    3               END;

   2012 22 000330   000226 235000 17                 LDA     D
        22 000331   000002 035007                    ADLA    2,DL
        22 000332   000226 755000 17                 STA     D
        22 000333   000176 236000 17                 LDQ     AREA+12
        22 000334   000001 772000                    QRL     1
        22 000335   000226 116000 17                 CMPQ    D
        22 000336   000274 603000 22                 TRC     s:2006

      243     2013    2           END;

      244     2014    1   NXTAC1:
      245     2015    1       IF UWA.AC.PAGE_TYP ~= 3

PL6.E3A0      #001=DBA_SUMMARY File=ZIG$DDE1.:ZIC0TSI                            FRI 09/05/97 11:43 Page:48
   2015 22 000337   000237 235000 16    NXTAC1       LDA     UWA+159
        22 000340   000003 115007                    CMPA    3,DL
        22 000341   000421 600000 22                 TZE     s:2026

      246     2016    2       THEN DO;

      247     2017    2           AREA.AVAIL_KEYS = AREA.TOTAL_KEYS - AREA.CALC_HDRS;

   2017 22 000342   000162 236000 17                 LDQ     AREA
        22 000343   000176 136000 17                 SBLQ    AREA+12
        22 000344   000163 756000 17                 STQ     AREA+1

      248     2018    2           AREA.DATA_PGS = AREA.TOTAL_KEYS / AREA.DBK_PAGE;

   2018 22 000345   000162 236000 17                 LDQ     AREA
        22 000346   000364 605000 22                 TPL     s:2018+15
        22 000347   000174 235000 17                 LDA     AREA+10
        22 000350   000360 604000 22                 TMI     s:2018+11
        22 000351   000001 115007                    CMPA    1,DL
        22 000352   000371 600000 22                 TZE     s:2018+20
        22 000353   000000 235003                    LDA     0,DU
        22 000354   000001 737000                    LLS     1
        22 000355   000174 507000 17                 DVF     AREA+10
        22 000356   000044 733000                    LRS     36
        22 000357   000371 710000 22                 TRA     s:2018+20
        22 000360   000174 116000 17                 CMPQ    AREA+10
        22 000361   000366 602000 22                 TNC     s:2018+17
        22 000362   000001 236007                    LDQ     1,DL
        22 000363   000371 710000 22                 TRA     s:2018+20
        22 000364   000174 235000 17                 LDA     AREA+10
        22 000365   000370 605000 22                 TPL     s:2018+19
        22 000366   000000 236003                    LDQ     0,DU
        22 000367   000371 710000 22                 TRA     s:2018+20
        22 000370   000174 506000 17                 DIV     AREA+10
        22 000371   000172 756000 17                 STQ     AREA+8

      249     2019    2           IF AREA.DATA_PGS * AREA.DBK_PAGE ~= AREA.TOTAL_KEYS THEN
PL6.E3A0      #001=DBA_SUMMARY File=ZIG$DDE1.:ZIC0TSI                            FRI 09/05/97 11:43 Page:49

   2019 22 000372   000174 402000 17                 MPY     AREA+10
        22 000373   000162 116000 17                 CMPQ    AREA
        22 000374   000400 600000 22                 TZE     s:2021

      250     2020    2               AREA.DATA_PGS = AREA.DATA_PGS + 1;

   2020 22 000375   000172 235000 17                 LDA     AREA+8
        22 000376   000001 035007                    ADLA    1,DL
        22 000377   000172 755000 17                 STA     AREA+8

      251     2021    2           AREA.INV_PGS = AREA.MAX_PAGE - AREA.DATA_PGS;

   2021 22 000400   000171 236000 17                 LDQ     AREA+7
        22 000401   000172 136000 17                 SBLQ    AREA+8
        22 000402   000173 756000 17                 STQ     AREA+9

      252     2022    2           AREA.LLINKS = AREA.SECTORS / 5;

   2022 22 000403   000201 235000 17                 LDA     AREA+15
        22 000404   000043 773000                    LRL     35
        22 000405   000005 507007                    DVF     5,DL
        22 000406   000000 620005                    EAX0    0,AL
        22 000407   000200 740000 17                 STX0    AREA+14

      253     2023    2           IF AREA.LLINKS * 5 ~= AREA.SECTORS THEN

   2023 22 000410   000200 236000 17                 LDQ     AREA+14
        22 000411   000022 732000                    QRS     18
        22 000412   000005 402007                    MPY     5,DL
        22 000413   000000 116003                    CMPQ    0,DU
        22 000414   000417 604000 22                 TMI     s:2024
        22 000415   000201 116000 17                 CMPQ    AREA+15
        22 000416   000421 600000 22                 TZE     s:2026

      254     2024    2               AREA.LLINKS = AREA.LLINKS + 1;

PL6.E3A0      #001=DBA_SUMMARY File=ZIG$DDE1.:ZIC0TSI                            FRI 09/05/97 11:43 Page:50
   2024 22 000417   000001 621010                    EAX1    1,X0
        22 000420   000200 741000 17                 STX1    AREA+14

      255     2025    2           END;

      256     2026    1       CALL FETCHOS_6('SN-SE   ') ALTRET(ERROR); /* Get sn of ac */

   2026 22 000421   000036 630400 23                 EPPR0   30
        22 000422   000000 631400 23                 EPPR1   0
        22 000423   000000 701000 xent               TSX1    FETCHOS_6
        22 000424   005100 702000 22                 TSX2    ERROR

      257     2027    1       CALL SET_FIELDS(1,30,UWA.SN.SENAME);

   2027 22 000425   000040 630400 23                 EPPR0   32
        22 000426   000005 631400 23                 EPPR1   5
        22 000427   000000 701000 xent               TSX1    SET_FIELDS
        22 000430   000000 011000                    NOP     0

      258     2028    1       CALL CONCAT(O_L , 'SUMMARY FOR AREA "',SUBSTR(FIELD1.TEXT1,0,FIELD1.COUNT1),
              2028                '" ***');

   2028 22 000431   000000 236000 18                 LDQ     FIELD1
        22 000432   000033 772000                    QRL     27
        22 000433   040000 100400                    MLR     fill='040'O
        22 000434   000101 000022 21                 ADSC9   65                       cn=0,n=18
        22 000435   000037 000022 17                 ADSC9   O_L                      cn=0,n=18
        22 000436   000000 620006                    EAX0    0,QL
        22 000437   040000 100440                    MLR     fill='040'O
        22 000440   000000 200010 18                 ADSC9   FIELD1                   cn=1,n=*X0
        22 000441   000043 400156 17                 ADSC9   O_L+4                    cn=2,n=110
        22 000442   000156 116007                    CMPQ    110,DL
        22 000443   000451 603000 22                 TRC     s:2029
        22 000444   777621 620006                    EAX0    -111,QL
        22 000445   777777 660003                    ERX0    -1,DU
        22 000446   040046 100400                    MLR     fill='040'O
        22 000447   000106 000005 21                 ADSC9   70                       cn=0,n=5
PL6.E3A0      #001=DBA_SUMMARY File=ZIG$DDE1.:ZIC0TSI                            FRI 09/05/97 11:43 Page:51
        22 000450   000043 400010 17                 ADSC9   O_L+4,Q                  cn=2,n=*X0

      259     2029    1       CALL PRNT(O_L, 1, 0);

   2029 22 000451   000010 630400 23                 EPPR0   8
        22 000452   000005 631400 23                 EPPR1   5
        22 000453   000000 701000 xent               TSX1    PRNT
        22 000454   000000 011000                    NOP     0

      260     2030    1       IF UWA.AC.PAGE_TYP = 3 THEN

   2030 22 000455   000237 235000 16                 LDA     UWA+159
        22 000456   000003 115007                    CMPA    3,DL
        22 000457   000464 601000 22                 TNZ     s:2033

      261     2031    1           O_L = 'AREA ORGANIZATION IS INDEXED';

   2031 22 000460   040000 100400                    MLR     fill='040'O
        22 000461   000110 000034 21                 ADSC9   72                       cn=0,n=28
        22 000462   000037 000200 17                 ADSC9   O_L                      cn=0,n=128
        22 000463   000467 710000 22                 TRA     s:2034

      262     2032    1       ELSE
      263     2033    1           O_L = 'AREA ORGANIZATION IS INTEGRATED';

   2033 22 000464   040000 100400                    MLR     fill='040'O
        22 000465   000117 000037 21                 ADSC9   79                       cn=0,n=31
        22 000466   000037 000200 17                 ADSC9   O_L                      cn=0,n=128

      264     2034    1       CALL PRNT(O_L, 2, 3);

   2034 22 000467   000020 630400 23                 EPPR0   16
        22 000470   000005 631400 23                 EPPR1   5
        22 000471   000000 701000 xent               TSX1    PRNT
        22 000472   000000 011000                    NOP     0

      265     2035    1       IF UWA.AC.PERMTYPE = 1 THEN
PL6.E3A0      #001=DBA_SUMMARY File=ZIG$DDE1.:ZIC0TSI                            FRI 09/05/97 11:43 Page:52

   2035 22 000473   000236 235000 16                 LDA     UWA+158
        22 000474   000001 115007                    CMPA    1,DL
        22 000475   000502 601000 22                 TNZ     s:2038

      266     2036    1           O_L = 'AREA CONTENT IS TEMPORARY.';

   2036 22 000476   040000 100400                    MLR     fill='040'O
        22 000477   000127 000032 21                 ADSC9   87                       cn=0,n=26
        22 000500   000037 000200 17                 ADSC9   O_L                      cn=0,n=128
        22 000501   000505 710000 22                 TRA     s:2039

      267     2037    1       ELSE
      268     2038    1           O_L = 'AREA CONTENT IS PERMANENT.';

   2038 22 000502   040000 100400                    MLR     fill='040'O
        22 000503   000136 000032 21                 ADSC9   94                       cn=0,n=26
        22 000504   000037 000200 17                 ADSC9   O_L                      cn=0,n=128

      269     2039    1       CALL PRNT(O_L, 1, 3);

   2039 22 000505   000043 630400 23                 EPPR0   35
        22 000506   000005 631400 23                 EPPR1   5
        22 000507   000000 701000 xent               TSX1    PRNT
        22 000510   000000 011000                    NOP     0

      270     2040    1       IF AREABIT.TEMPLATE

   2040 22 000511   200070 470500                    LDP0    AREABIT$,,AUTO
        22 000512   000000 066500                    CMPB    filb='0'B
        22 000513   000000 030001                    BDSC    0,,PR0                   by=0,bit=3,n=1
        22 000514   000007 000022 23                 BDSC    7                        by=0,bit=0,n=18
        22 000515   000525 600000 22                 TZE     s:2044

      271     2041    2       THEN DO; O_L = 'AREA IS TEMPLATE.';

   2041 22 000516   040000 100400                    MLR     fill='040'O
PL6.E3A0      #001=DBA_SUMMARY File=ZIG$DDE1.:ZIC0TSI                            FRI 09/05/97 11:43 Page:53
        22 000517   000145 000021 21                 ADSC9   101                      cn=0,n=17
        22 000520   000037 000200 17                 ADSC9   O_L                      cn=0,n=128

      272     2042    2           CALL PRNT(O_L,1,3);

   2042 22 000521   000043 630400 23                 EPPR0   35
        22 000522   000005 631400 23                 EPPR1   5
        22 000523   000000 701000 xent               TSX1    PRNT
        22 000524   000000 011000                    NOP     0

      273     2043    2           END;

      274     2044    1       IF AREABIT.CHECKSUM

   2044 22 000525   200070 470500                    LDP0    AREABIT$,,AUTO
        22 000526   000000 066500                    CMPB    filb='0'B
        22 000527   000000 000001                    BDSC    0,,PR0                   by=0,bit=0,n=1
        22 000530   000007 000022 23                 BDSC    7                        by=0,bit=0,n=18
        22 000531   000536 600000 22                 TZE     s:2046

      275     2045    1       THEN O_L = 'CHECKSUMING IS REQUIRED';

   2045 22 000532   040000 100400                    MLR     fill='040'O
        22 000533   000152 000027 21                 ADSC9   106                      cn=0,n=23
        22 000534   000037 000200 17                 ADSC9   O_L                      cn=0,n=128
        22 000535   000541 710000 22                 TRA     s:2047

      276     2046    1       ELSE O_L = 'CHECKSUMING IS NOT REQUIRED';

   2046 22 000536   040000 100400                    MLR     fill='040'O
        22 000537   000160 000033 21                 ADSC9   112                      cn=0,n=27
        22 000540   000037 000200 17                 ADSC9   O_L                      cn=0,n=128

      277     2047    1       CALL PRNT(O_L,1,3);

   2047 22 000541   000043 630400 23                 EPPR0   35
        22 000542   000005 631400 23                 EPPR1   5
PL6.E3A0      #001=DBA_SUMMARY File=ZIG$DDE1.:ZIC0TSI                            FRI 09/05/97 11:43 Page:54
        22 000543   000000 701000 xent               TSX1    PRNT
        22 000544   000000 011000                    NOP     0

      278     2048    1       IF AREABIT.ENCRYPTION

   2048 22 000545   200070 470500                    LDP0    AREABIT$,,AUTO
        22 000546   000000 066500                    CMPB    filb='0'B
        22 000547   000000 010001                    BDSC    0,,PR0                   by=0,bit=1,n=1
        22 000550   000007 000022 23                 BDSC    7                        by=0,bit=0,n=18
        22 000551   000556 600000 22                 TZE     s:2050

      279     2049    1       THEN O_L = 'ENCRYPTION IS REQUIRED';

   2049 22 000552   040000 100400                    MLR     fill='040'O
        22 000553   000167 000026 21                 ADSC9   119                      cn=0,n=22
        22 000554   000037 000200 17                 ADSC9   O_L                      cn=0,n=128
        22 000555   000561 710000 22                 TRA     s:2051

      280     2050    1       ELSE O_L = 'ENCRYPTION IS NOT ALLOWED';

   2050 22 000556   040000 100400                    MLR     fill='040'O
        22 000557   000175 000031 21                 ADSC9   125                      cn=0,n=25
        22 000560   000037 000200 17                 ADSC9   O_L                      cn=0,n=128

      281     2051    1       CALL PRNT(O_L,1,3);

   2051 22 000561   000043 630400 23                 EPPR0   35
        22 000562   000005 631400 23                 EPPR1   5
        22 000563   000000 701000 xent               TSX1    PRNT
        22 000564   000000 011000                    NOP     0

      282     2052    1       IF AREABIT.JOURNALING

   2052 22 000565   200070 470500                    LDP0    AREABIT$,,AUTO
        22 000566   000000 066500                    CMPB    filb='0'B
        22 000567   000000 020001                    BDSC    0,,PR0                   by=0,bit=2,n=1
        22 000570   000007 000022 23                 BDSC    7                        by=0,bit=0,n=18
PL6.E3A0      #001=DBA_SUMMARY File=ZIG$DDE1.:ZIC0TSI                            FRI 09/05/97 11:43 Page:55
        22 000571   000601 600000 22                 TZE     s:2056

      283     2053    2       THEN DO; O_L = 'JOURNALING IS REQUIRED';

   2053 22 000572   040000 100400                    MLR     fill='040'O
        22 000573   000204 000026 21                 ADSC9   132                      cn=0,n=22
        22 000574   000037 000200 17                 ADSC9   O_L                      cn=0,n=128

      284     2054    2           CALL PRNT(O_L,1,3);

   2054 22 000575   000043 630400 23                 EPPR0   35
        22 000576   000005 631400 23                 EPPR1   5
        22 000577   000000 701000 xent               TSX1    PRNT
        22 000600   000000 011000                    NOP     0

      285     2055    2           END;

      286     2056    1       IF AREABIT.BACKUP

   2056 22 000601   200070 470500                    LDP0    AREABIT$,,AUTO
        22 000602   000000 066500                    CMPB    filb='0'B
        22 000603   000000 040001                    BDSC    0,,PR0                   by=0,bit=4,n=1
        22 000604   000007 000022 23                 BDSC    7                        by=0,bit=0,n=18
        22 000605   000612 600000 22                 TZE     s:2058

      287     2057    1       THEN O_L = 'BACKUP IS REQUIRED';

   2057 22 000606   040000 100400                    MLR     fill='040'O
        22 000607   000212 000022 21                 ADSC9   138                      cn=0,n=18
        22 000610   000037 000200 17                 ADSC9   O_L                      cn=0,n=128
        22 000611   000615 710000 22                 TRA     s:2059

      288     2058    1       ELSE O_L = 'BACKUP IS NOT REQUIRED';

   2058 22 000612   040000 100400                    MLR     fill='040'O
        22 000613   000217 000026 21                 ADSC9   143                      cn=0,n=22
        22 000614   000037 000200 17                 ADSC9   O_L                      cn=0,n=128
PL6.E3A0      #001=DBA_SUMMARY File=ZIG$DDE1.:ZIC0TSI                            FRI 09/05/97 11:43 Page:56

      289     2059    1       CALL PRNT(O_L,1,3);

   2059 22 000615   000043 630400 23                 EPPR0   35
        22 000616   000005 631400 23                 EPPR1   5
        22 000617   000000 701000 xent               TSX1    PRNT
        22 000620   000000 011000                    NOP     0

      290     2060    1       IF UWA.AC.PAGE_TYP = 3

   2060 22 000621   000237 235000 16                 LDA     UWA+159
        22 000622   000003 115007                    CMPA    3,DL
        22 000623   000171 600000 22                 TZE     NXTAC

      291     2061    1       THEN GOTO NXTAC;
      292     2062    1       AREA.TOTAL_KEYS = AREA.MAX_DBK_GLOB - AREA.MIN_DBK_GLOB + 1;

   2062 22 000624   000164 236000 17                 LDQ     AREA+2
        22 000625   000165 136000 17                 SBLQ    AREA+3
        22 000626   000001 036007                    ADLQ    1,DL
        22 000627   000162 756000 17                 STQ     AREA

      293     2063    1       AREA_KEYS = AREA.TOTAL_KEYS + UWA.AC.KEYS_RSRVD;

   2063 22 000630   000244 036000 16                 ADLQ    UWA+164
        22 000631   200106 756100                    STQ     AREA_KEYS,,AUTO

      294     2064    1       XS = 2;

   2064 22 000632   000002 235007                    LDA     2,DL
        22 000633   200015 755100                    STA     XS,,AUTO

      295     2065    1       IF AREA_KEYS > 262143 THEN

   2065 22 000634   000001 116003                    CMPQ    1,DU
        22 000635   000640 602000 22                 TNC     s:2067

PL6.E3A0      #001=DBA_SUMMARY File=ZIG$DDE1.:ZIC0TSI                            FRI 09/05/97 11:43 Page:57
      296     2066    1           XS = 3;

   2066 22 000636   000003 235007                    LDA     3,DL
        22 000637   200015 755100                    STA     XS,,AUTO

      297     2067    1       IF AREA_KEYS > 134217727 THEN

   2067 22 000640   001000 116003                    CMPQ    512,DU
        22 000641   000644 602000 22                 TNC     s:2069

      298     2068    1           XS = 4;

   2068 22 000642   000004 235007                    LDA     4,DL
        22 000643   200015 755100                    STA     XS,,AUTO

      299     2069    1       CALL SET_FIELD_NUM(1,XS);

   2069 22 000644   200015 630500                    EPPR0   XS,,AUTO
        22 000645   200127 450500                    STP0    C7V+4,,AUTO
        22 000646   000011 236000 23                 LDQ     9
        22 000647   200126 756100                    STQ     C7V+3,,AUTO
        22 000650   200126 630500                    EPPR0   C7V+3,,AUTO
        22 000651   000013 631400 23                 EPPR1   11
        22 000652   000000 701000 xent               TSX1    SET_FIELD_NUM
        22 000653   000000 011000                    NOP     0

      300     2070    1       CALL CONCAT(O_L,'LOCAL POINTER SIZE (BYTES) IS ',SUBSTR(FIELD1.TEXT1,0,FIELD1.
              2070                COUNT1));

   2070 22 000654   000000 236000 18                 LDQ     FIELD1
        22 000655   000033 772000                    QRL     27
        22 000656   040000 100400                    MLR     fill='040'O
        22 000657   000225 000036 21                 ADSC9   149                      cn=0,n=30
        22 000660   000037 000036 17                 ADSC9   O_L                      cn=0,n=30
        22 000661   000000 620006                    EAX0    0,QL
        22 000662   040000 100440                    MLR     fill='040'O
        22 000663   000000 200010 18                 ADSC9   FIELD1                   cn=1,n=*X0
PL6.E3A0      #001=DBA_SUMMARY File=ZIG$DDE1.:ZIC0TSI                            FRI 09/05/97 11:43 Page:58
        22 000664   000046 400142 17                 ADSC9   O_L+7                    cn=2,n=98

      301     2071    1       CALL PRNT(O_L, 1, 3);

   2071 22 000665   000043 630400 23                 EPPR0   35
        22 000666   000005 631400 23                 EPPR1   5
        22 000667   000000 701000 xent               TSX1    PRNT
        22 000670   000000 011000                    NOP     0

      302     2072    1       IF UWA.AC.PER_INV ~= 0 THEN

   2072 22 000671   000240 235000 16                 LDA     UWA+160
        22 000672   000733 600000 22                 TZE     s:2082

      303     2073    2       DO;

      304     2074    2           O_L = 'PAGE INVENTORY PROCESSING BEGINS WHEN AVAILABLE ';

   2074 22 000673   040000 100400                    MLR     fill='040'O
        22 000674   000235 000060 21                 ADSC9   157                      cn=0,n=48
        22 000675   000037 000200 17                 ADSC9   O_L                      cn=0,n=128

      305     2075    2           CALL PRNT(O_L, 2, 3);

   2075 22 000676   000020 630400 23                 EPPR0   16
        22 000677   000005 631400 23                 EPPR1   5
        22 000700   000000 701000 xent               TSX1    PRNT
        22 000701   000000 011000                    NOP     0

      306     2076    2           CALL SET_FIELD_NUM(1,AREA.INV_THRESH);

   2076 22 000702   000046 630400 23                 EPPR0   38
        22 000703   000013 631400 23                 EPPR1   11
        22 000704   000000 701000 xent               TSX1    SET_FIELD_NUM
        22 000705   000000 011000                    NOP     0

      307     2077    2           CALL CONCAT(O_L , 'SPACE ON A PAGE IS ' , SUBSTR(FIELD1.TEXT1,0,FIELD1.
PL6.E3A0      #001=DBA_SUMMARY File=ZIG$DDE1.:ZIC0TSI                            FRI 09/05/97 11:43 Page:59
              2077                    COUNT1),' BYTES OR LESS.');

   2077 22 000706   000000 236000 18                 LDQ     FIELD1
        22 000707   000033 772000                    QRL     27
        22 000710   040000 100400                    MLR     fill='040'O
        22 000711   000251 000023 21                 ADSC9   169                      cn=0,n=19
        22 000712   000037 000023 17                 ADSC9   O_L                      cn=0,n=19
        22 000713   000000 620006                    EAX0    0,QL
        22 000714   040000 100440                    MLR     fill='040'O
        22 000715   000000 200010 18                 ADSC9   FIELD1                   cn=1,n=*X0
        22 000716   000043 600155 17                 ADSC9   O_L+4                    cn=3,n=109
        22 000717   000155 116007                    CMPQ    109,DL
        22 000720   000726 603000 22                 TRC     s:2078
        22 000721   777622 620006                    EAX0    -110,QL
        22 000722   777777 660003                    ERX0    -1,DU
        22 000723   040046 100400                    MLR     fill='040'O
        22 000724   000256 000017 21                 ADSC9   174                      cn=0,n=15
        22 000725   000043 600010 17                 ADSC9   O_L+4,Q                  cn=3,n=*X0

      308     2078    2           CALL PRNT(O_L, 1, 3);

   2078 22 000726   000043 630400 23                 EPPR0   35
        22 000727   000005 631400 23                 EPPR1   5
        22 000730   000000 701000 xent               TSX1    PRNT
        22 000731   000000 011000                    NOP     0

      309     2079    2           END;

   2079 22 000732   000751 710000 22                 TRA     s:2087

      310     2080    1       ELSE
      311     2081    2       DO;

      312     2082    2           O_L = 'PAGE INVENTORY PROCESSING WILL NOT BE APPLIED';

   2082 22 000733   040000 100400                    MLR     fill='040'O
        22 000734   000262 000055 21                 ADSC9   178                      cn=0,n=45
PL6.E3A0      #001=DBA_SUMMARY File=ZIG$DDE1.:ZIC0TSI                            FRI 09/05/97 11:43 Page:60
        22 000735   000037 000200 17                 ADSC9   O_L                      cn=0,n=128

      313     2083    2           CALL PRNT(O_L, 2, 3);

   2083 22 000736   000020 630400 23                 EPPR0   16
        22 000737   000005 631400 23                 EPPR1   5
        22 000740   000000 701000 xent               TSX1    PRNT
        22 000741   000000 011000                    NOP     0

      314     2084    2           O_L = 'TO THIS AREA.';

   2084 22 000742   040000 100400                    MLR     fill='040'O
        22 000743   000276 000015 21                 ADSC9   190                      cn=0,n=13
        22 000744   000037 000200 17                 ADSC9   O_L                      cn=0,n=128

      315     2085    2           CALL PRNT(O_L, 1, 3);

   2085 22 000745   000043 630400 23                 EPPR0   35
        22 000746   000005 631400 23                 EPPR1   5
        22 000747   000000 701000 xent               TSX1    PRNT
        22 000750   000000 011000                    NOP     0

      316     2086    2           END;

      317     2087    1       IF UWA.AC.INDEX_CODE ~= '  ' THEN

   2087 22 000751   000233 720000 16                 LXL0    UWA+155
        22 000752   000011 100000 21                 CMPX0   9
        22 000753   001015 600000 22                 TZE     s:2095

      318     2088    2           IF UWA.AC.PAGE_TYP = 0 THEN DO;

   2088 22 000754   000237 235000 16                 LDA     UWA+159
        22 000755   001015 601000 22                 TNZ     s:2095

      319     2089    2               O_L = 'DURING INITIAL LOADING OF THE KEY FILE (BUT NOT';

PL6.E3A0      #001=DBA_SUMMARY File=ZIG$DDE1.:ZIC0TSI                            FRI 09/05/97 11:43 Page:61
   2089 22 000756   040000 100400                    MLR     fill='040'O
        22 000757   000302 000057 21                 ADSC9   194                      cn=0,n=47
        22 000760   000037 000200 17                 ADSC9   O_L                      cn=0,n=128

      320     2090    2               CALL PRNT(O_L,2,3);

   2090 22 000761   000020 630400 23                 EPPR0   16
        22 000762   000005 631400 23                 EPPR1   5
        22 000763   000000 701000 xent               TSX1    PRNT
        22 000764   000000 011000                    NOP     0

      321     2091    2               CALL SET_FIELD_NUM(1,AREA.LOAD_LIM);

   2091 22 000765   000050 630400 23                 EPPR0   40
        22 000766   000013 631400 23                 EPPR1   11
        22 000767   000000 701000 xent               TSX1    SET_FIELD_NUM
        22 000770   000000 011000                    NOP     0

      322     2092    2              CALL CONCAT(O_L ,'THE DATA FILE), ',SUBSTR(FIELD1.TEXT1,0,FIELD1.COUNT1)
              2092                        ,' BYTES OF EACH PAGE WILL BE USED.');

   2092 22 000771   000000 236000 18                 LDQ     FIELD1
        22 000772   000033 772000                    QRL     27
        22 000773   040000 100400                    MLR     fill='040'O
        22 000774   000316 000020 21                 ADSC9   206                      cn=0,n=16
        22 000775   000037 000020 17                 ADSC9   O_L                      cn=0,n=16
        22 000776   000000 620006                    EAX0    0,QL
        22 000777   040000 100440                    MLR     fill='040'O
        22 001000   000000 200010 18                 ADSC9   FIELD1                   cn=1,n=*X0
        22 001001   000043 000160 17                 ADSC9   O_L+4                    cn=0,n=112
        22 001002   000160 116007                    CMPQ    112,DL
        22 001003   001011 603000 22                 TRC     s:2093
        22 001004   777617 620006                    EAX0    -113,QL
        22 001005   777777 660003                    ERX0    -1,DU
        22 001006   040046 100400                    MLR     fill='040'O
        22 001007   000322 000041 21                 ADSC9   210                      cn=0,n=33
        22 001010   000043 000010 17                 ADSC9   O_L+4,Q                  cn=0,n=*X0
PL6.E3A0      #001=DBA_SUMMARY File=ZIG$DDE1.:ZIC0TSI                            FRI 09/05/97 11:43 Page:62

      323     2093    2               CALL PRNT(O_L,1,3);

   2093 22 001011   000043 630400 23                 EPPR0   35
        22 001012   000005 631400 23                 EPPR1   5
        22 001013   000000 701000 xent               TSX1    PRNT
        22 001014   000000 011000                    NOP     0

      324     2094    2               END;

      325     2095    2       IF UWA.AC.PAGE_TYP = 3 THEN DO;

   2095 22 001015   000237 235000 16                 LDA     UWA+159
        22 001016   000003 115007                    CMPA    3,DL
        22 001017   001057 601000 22                 TNZ     s:2102

      326     2096    2           O_L = 'DURING INITIAL LOADING OF BOTH THE DATA FILE AND';

   2096 22 001020   040000 100400                    MLR     fill='040'O
        22 001021   000333 000060 21                 ADSC9   219                      cn=0,n=48
        22 001022   000037 000200 17                 ADSC9   O_L                      cn=0,n=128

      327     2097    2           CALL PRNT(O_L,2,3);

   2097 22 001023   000020 630400 23                 EPPR0   16
        22 001024   000005 631400 23                 EPPR1   5
        22 001025   000000 701000 xent               TSX1    PRNT
        22 001026   000000 011000                    NOP     0

      328     2098    2           CALL SET_FIELD_NUM(1,AREA.LOAD_LIM);

   2098 22 001027   000050 630400 23                 EPPR0   40
        22 001030   000013 631400 23                 EPPR1   11
        22 001031   000000 701000 xent               TSX1    SET_FIELD_NUM
        22 001032   000000 011000                    NOP     0

      329     2099    2           CALL CONCAT(O_L ,'THE KEY FILE, ',SUBSTR(FIELD1.TEXT1,0,FIELD1.COUNT1),
PL6.E3A0      #001=DBA_SUMMARY File=ZIG$DDE1.:ZIC0TSI                            FRI 09/05/97 11:43 Page:63
              2099                    ' BYTES OF EACH PAGE WILL BE USED.');

   2099 22 001033   000000 236000 18                 LDQ     FIELD1
        22 001034   000033 772000                    QRL     27
        22 001035   040000 100400                    MLR     fill='040'O
        22 001036   000347 000016 21                 ADSC9   231                      cn=0,n=14
        22 001037   000037 000016 17                 ADSC9   O_L                      cn=0,n=14
        22 001040   000000 620006                    EAX0    0,QL
        22 001041   040000 100440                    MLR     fill='040'O
        22 001042   000000 200010 18                 ADSC9   FIELD1                   cn=1,n=*X0
        22 001043   000042 400162 17                 ADSC9   O_L+3                    cn=2,n=114
        22 001044   000162 116007                    CMPQ    114,DL
        22 001045   001053 603000 22                 TRC     s:2100
        22 001046   777615 620006                    EAX0    -115,QL
        22 001047   777777 660003                    ERX0    -1,DU
        22 001050   040046 100400                    MLR     fill='040'O
        22 001051   000322 000041 21                 ADSC9   210                      cn=0,n=33
        22 001052   000042 400010 17                 ADSC9   O_L+3,Q                  cn=2,n=*X0

      330     2100    2           CALL PRNT(O_L,1,3);

   2100 22 001053   000043 630400 23                 EPPR0   35
        22 001054   000005 631400 23                 EPPR1   5
        22 001055   000000 701000 xent               TSX1    PRNT
        22 001056   000000 011000                    NOP     0

      331     2101    2           END;

      332     2102    1       O_L = 'AREA PAGE CAPACITY SUMMARY***';

   2102 22 001057   040000 100400                    MLR     fill='040'O
        22 001060   000353 000035 21                 ADSC9   235                      cn=0,n=29
        22 001061   000037 000200 17                 ADSC9   O_L                      cn=0,n=128

      333     2103    1       CALL PRNT(O_L,2,0);

   2103 22 001062   000052 630400 23                 EPPR0   42
PL6.E3A0      #001=DBA_SUMMARY File=ZIG$DDE1.:ZIC0TSI                            FRI 09/05/97 11:43 Page:64
        22 001063   000005 631400 23                 EPPR1   5
        22 001064   000000 701000 xent               TSX1    PRNT
        22 001065   000000 011000                    NOP     0

      334     2104    1       CALL SET_FIELD_NUM(1,AREA.DATA_PGS);

   2104 22 001066   000055 630400 23                 EPPR0   45
        22 001067   000013 631400 23                 EPPR1   11
        22 001070   000000 701000 xent               TSX1    SET_FIELD_NUM
        22 001071   000000 011000                    NOP     0

      335     2105    1       CALL CONCAT(O_L , 'NUMBER OF DATA PAGES............',SUBSTR(FIELD1.TEXT1,0,
              2105                FIELD1.COUNT1));

   2105 22 001072   000000 236000 18                 LDQ     FIELD1
        22 001073   000033 772000                    QRL     27
        22 001074   040000 100400                    MLR     fill='040'O
        22 001075   000363 000040 21                 ADSC9   243                      cn=0,n=32
        22 001076   000037 000040 17                 ADSC9   O_L                      cn=0,n=32
        22 001077   000000 620006                    EAX0    0,QL
        22 001100   040000 100440                    MLR     fill='040'O
        22 001101   000000 200010 18                 ADSC9   FIELD1                   cn=1,n=*X0
        22 001102   000047 000140 17                 ADSC9   O_L+8                    cn=0,n=96

      336     2106    1       CALL PRNT(O_L, 2, 3);

   2106 22 001103   000020 630400 23                 EPPR0   16
        22 001104   000005 631400 23                 EPPR1   5
        22 001105   000000 701000 xent               TSX1    PRNT
        22 001106   000000 011000                    NOP     0

      337     2107    1       O_L ='ATTRIBUTE PAGE .................1';

   2107 22 001107   040000 100400                    MLR     fill='040'O
        22 001110   000373 000041 21                 ADSC9   251                      cn=0,n=33
        22 001111   000037 000200 17                 ADSC9   O_L                      cn=0,n=128

PL6.E3A0      #001=DBA_SUMMARY File=ZIG$DDE1.:ZIC0TSI                            FRI 09/05/97 11:43 Page:65
      338     2108    1       CALL PRNT(O_L,1,3);

   2108 22 001112   000043 630400 23                 EPPR0   35
        22 001113   000005 631400 23                 EPPR1   5
        22 001114   000000 701000 xent               TSX1    PRNT
        22 001115   000000 011000                    NOP     0

      339     2109    1       CALL SET_FIELD_NUM(1,AREA.INV_PGS);

   2109 22 001116   000057 630400 23                 EPPR0   47
        22 001117   000013 631400 23                 EPPR1   11
        22 001120   000000 701000 xent               TSX1    SET_FIELD_NUM
        22 001121   000000 011000                    NOP     0

      340     2110    1       CALL CONCAT(O_L , 'NUMBER OF INVENTORY PAGES.......',SUBSTR(FIELD1.TEXT1,0,
              2110                FIELD1.COUNT1));

   2110 22 001122   000000 236000 18                 LDQ     FIELD1
        22 001123   000033 772000                    QRL     27
        22 001124   040000 100400                    MLR     fill='040'O
        22 001125   000404 000040 21                 ADSC9   260                      cn=0,n=32
        22 001126   000037 000040 17                 ADSC9   O_L                      cn=0,n=32
        22 001127   000000 620006                    EAX0    0,QL
        22 001130   040000 100440                    MLR     fill='040'O
        22 001131   000000 200010 18                 ADSC9   FIELD1                   cn=1,n=*X0
        22 001132   000047 000140 17                 ADSC9   O_L+8                    cn=0,n=96

      341     2111    1       CALL PRNT(O_L, 1, 3);

   2111 22 001133   000043 630400 23                 EPPR0   35
        22 001134   000005 631400 23                 EPPR1   5
        22 001135   000000 701000 xent               TSX1    PRNT
        22 001136   000000 011000                    NOP     0

      342     2112    1       K = AREA.MAX_PAGE + 1;

   2112 22 001137   000171 235000 17                 LDA     AREA+7
PL6.E3A0      #001=DBA_SUMMARY File=ZIG$DDE1.:ZIC0TSI                            FRI 09/05/97 11:43 Page:66
        22 001140   000001 035007                    ADLA    1,DL
        22 001141   200011 755100                    STA     K,,AUTO

      343     2113    1       CALL SET_FIELD_NUM(1,K);

   2113 22 001142   200011 630500                    EPPR0   K,,AUTO
        22 001143   200127 450500                    STP0    C7V+4,,AUTO
        22 001144   000011 236000 23                 LDQ     9
        22 001145   200126 756100                    STQ     C7V+3,,AUTO
        22 001146   200126 630500                    EPPR0   C7V+3,,AUTO
        22 001147   000013 631400 23                 EPPR1   11
        22 001150   000000 701000 xent               TSX1    SET_FIELD_NUM
        22 001151   000000 011000                    NOP     0

      344     2114    1       CALL CONCAT(O_L , 'TOTAL PAGES IN AREA.............',SUBSTR(FIELD1.TEXT1,0,
              2114                FIELD1.COUNT1));

   2114 22 001152   000000 236000 18                 LDQ     FIELD1
        22 001153   000033 772000                    QRL     27
        22 001154   040000 100400                    MLR     fill='040'O
        22 001155   000414 000040 21                 ADSC9   268                      cn=0,n=32
        22 001156   000037 000040 17                 ADSC9   O_L                      cn=0,n=32
        22 001157   000000 620006                    EAX0    0,QL
        22 001160   040000 100440                    MLR     fill='040'O
        22 001161   000000 200010 18                 ADSC9   FIELD1                   cn=1,n=*X0
        22 001162   000047 000140 17                 ADSC9   O_L+8                    cn=0,n=96

      345     2115    1       CALL PRNT(O_L, 1, 3);

   2115 22 001163   000043 630400 23                 EPPR0   35
        22 001164   000005 631400 23                 EPPR1   5
        22 001165   000000 701000 xent               TSX1    PRNT
        22 001166   000000 011000                    NOP     0

      346     2116    1       O_L = 'PAGE SIZE (BYTES)...............4096';

   2116 22 001167   040000 100400                    MLR     fill='040'O
PL6.E3A0      #001=DBA_SUMMARY File=ZIG$DDE1.:ZIC0TSI                            FRI 09/05/97 11:43 Page:67
        22 001170   000424 000044 21                 ADSC9   276                      cn=0,n=36
        22 001171   000037 000200 17                 ADSC9   O_L                      cn=0,n=128

      347     2117    1       CALL PRNT(O_L, 1, 3);

   2117 22 001172   000043 630400 23                 EPPR0   35
        22 001173   000005 631400 23                 EPPR1   5
        22 001174   000000 701000 xent               TSX1    PRNT
        22 001175   000000 011000                    NOP     0

      348     2118    1       CALL SET_FIELD_NUM(1,UWA.AC.SPACE_AVAIL);

   2118 22 001176   000061 630400 23                 EPPR0   49
        22 001177   000013 631400 23                 EPPR1   11
        22 001200   000000 701000 xent               TSX1    SET_FIELD_NUM
        22 001201   000000 011000                    NOP     0

      349     2119    1       CALL CONCAT(O_L , 'AVAILABLE PAGE SPACE(BYTES).....',SUBSTR(FIELD1.TEXT1,0,
              2119                FIELD1.COUNT1));

   2119 22 001202   000000 236000 18                 LDQ     FIELD1
        22 001203   000033 772000                    QRL     27
        22 001204   040000 100400                    MLR     fill='040'O
        22 001205   000435 000040 21                 ADSC9   285                      cn=0,n=32
        22 001206   000037 000040 17                 ADSC9   O_L                      cn=0,n=32
        22 001207   000000 620006                    EAX0    0,QL
        22 001210   040000 100440                    MLR     fill='040'O
        22 001211   000000 200010 18                 ADSC9   FIELD1                   cn=1,n=*X0
        22 001212   000047 000140 17                 ADSC9   O_L+8                    cn=0,n=96

      350     2120    1       CALL PRNT(O_L, 1, 3);

   2120 22 001213   000043 630400 23                 EPPR0   35
        22 001214   000005 631400 23                 EPPR1   5
        22 001215   000000 701000 xent               TSX1    PRNT
        22 001216   000000 011000                    NOP     0

PL6.E3A0      #001=DBA_SUMMARY File=ZIG$DDE1.:ZIC0TSI                            FRI 09/05/97 11:43 Page:68
      351     2121         /**
      352     2122            Data base key summary
      353     2123            */
      354     2124    1       O_L = 'DATA_BASE_KEY USAGE SUMMARY***';

   2124 22 001217   040000 100400                    MLR     fill='040'O
        22 001220   000445 000036 21                 ADSC9   293                      cn=0,n=30
        22 001221   000037 000200 17                 ADSC9   O_L                      cn=0,n=128

      355     2125    1       CALL PRNT(O_L,2,0);

   2125 22 001222   000052 630400 23                 EPPR0   42
        22 001223   000005 631400 23                 EPPR1   5
        22 001224   000000 701000 xent               TSX1    PRNT
        22 001225   000000 011000                    NOP     0

      356     2126    1       CALL SET_FIELD_NUM(1,AREA.TOTAL_KEYS);

   2126 22 001226   000063 630400 23                 EPPR0   51
        22 001227   000013 631400 23                 EPPR1   11
        22 001230   000000 701000 xent               TSX1    SET_FIELD_NUM
        22 001231   000000 011000                    NOP     0

      357     2127    1       CALL CONCAT(O_L , 'TOTAL KEYS ALLOCATED............',SUBSTR(FIELD1.TEXT1,0,
              2127                FIELD1.COUNT1));

   2127 22 001232   000000 236000 18                 LDQ     FIELD1
        22 001233   000033 772000                    QRL     27
        22 001234   040000 100400                    MLR     fill='040'O
        22 001235   000455 000040 21                 ADSC9   301                      cn=0,n=32
        22 001236   000037 000040 17                 ADSC9   O_L                      cn=0,n=32
        22 001237   000000 620006                    EAX0    0,QL
        22 001240   040000 100440                    MLR     fill='040'O
        22 001241   000000 200010 18                 ADSC9   FIELD1                   cn=1,n=*X0
        22 001242   000047 000140 17                 ADSC9   O_L+8                    cn=0,n=96

      358     2128    1       CALL PRNT(O_L, 2, 3);
PL6.E3A0      #001=DBA_SUMMARY File=ZIG$DDE1.:ZIC0TSI                            FRI 09/05/97 11:43 Page:69

   2128 22 001243   000020 630400 23                 EPPR0   16
        22 001244   000005 631400 23                 EPPR1   5
        22 001245   000000 701000 xent               TSX1    PRNT
        22 001246   000000 011000                    NOP     0

      359     2129    1       CALL SET_FIELD_NUM(1,UWA.AC.KEYS_RSRVD);

   2129 22 001247   000065 630400 23                 EPPR0   53
        22 001250   000013 631400 23                 EPPR1   11
        22 001251   000000 701000 xent               TSX1    SET_FIELD_NUM
        22 001252   000000 011000                    NOP     0

      360     2130    1       CALL CONCAT(O_L , 'TOTAL KEYS RESERVED.............',SUBSTR(FIELD1.TEXT1,0,
              2130                FIELD1.COUNT1));

   2130 22 001253   000000 236000 18                 LDQ     FIELD1
        22 001254   000033 772000                    QRL     27
        22 001255   040000 100400                    MLR     fill='040'O
        22 001256   000465 000040 21                 ADSC9   309                      cn=0,n=32
        22 001257   000037 000040 17                 ADSC9   O_L                      cn=0,n=32
        22 001260   000000 620006                    EAX0    0,QL
        22 001261   040000 100440                    MLR     fill='040'O
        22 001262   000000 200010 18                 ADSC9   FIELD1                   cn=1,n=*X0
        22 001263   000047 000140 17                 ADSC9   O_L+8                    cn=0,n=96

      361     2131    1       CALL PRNT(O_L, 1, 3);

   2131 22 001264   000043 630400 23                 EPPR0   35
        22 001265   000005 631400 23                 EPPR1   5
        22 001266   000000 701000 xent               TSX1    PRNT
        22 001267   000000 011000                    NOP     0

      362     2132    1       CALL SET_FIELD_NUM(1,AREA.CALC_HDRS);

   2132 22 001270   000067 630400 23                 EPPR0   55
        22 001271   000013 631400 23                 EPPR1   11
PL6.E3A0      #001=DBA_SUMMARY File=ZIG$DDE1.:ZIC0TSI                            FRI 09/05/97 11:43 Page:70
        22 001272   000000 701000 xent               TSX1    SET_FIELD_NUM
        22 001273   000000 011000                    NOP     0

      363     2133    1       CALL CONCAT(O_L , 'TOTAL CALC HEADERS..............' , SUBSTR(FIELD1.TEXT1,0,
              2133                FIELD1.COUNT1));

   2133 22 001274   000000 236000 18                 LDQ     FIELD1
        22 001275   000033 772000                    QRL     27
        22 001276   040000 100400                    MLR     fill='040'O
        22 001277   000475 000040 21                 ADSC9   317                      cn=0,n=32
        22 001300   000037 000040 17                 ADSC9   O_L                      cn=0,n=32
        22 001301   000000 620006                    EAX0    0,QL
        22 001302   040000 100440                    MLR     fill='040'O
        22 001303   000000 200010 18                 ADSC9   FIELD1                   cn=1,n=*X0
        22 001304   000047 000140 17                 ADSC9   O_L+8                    cn=0,n=96

      364     2134    1       CALL PRNT(O_L, 1, 3);

   2134 22 001305   000043 630400 23                 EPPR0   35
        22 001306   000005 631400 23                 EPPR1   5
        22 001307   000000 701000 xent               TSX1    PRNT
        22 001310   000000 011000                    NOP     0

      365     2135    1       CALL SET_FIELD_NUM(1,AREA.AVAIL_KEYS);

   2135 22 001311   000071 630400 23                 EPPR0   57
        22 001312   000013 631400 23                 EPPR1   11
        22 001313   000000 701000 xent               TSX1    SET_FIELD_NUM
        22 001314   000000 011000                    NOP     0

      366     2136    1       CALL CONCAT(O_L , 'TOTAL KEYS AVAILABLE............' , SUBSTR(FIELD1.TEXT1,0,
              2136                FIELD1.COUNT1));

   2136 22 001315   000000 236000 18                 LDQ     FIELD1
        22 001316   000033 772000                    QRL     27
        22 001317   040000 100400                    MLR     fill='040'O
        22 001320   000505 000040 21                 ADSC9   325                      cn=0,n=32
PL6.E3A0      #001=DBA_SUMMARY File=ZIG$DDE1.:ZIC0TSI                            FRI 09/05/97 11:43 Page:71
        22 001321   000037 000040 17                 ADSC9   O_L                      cn=0,n=32
        22 001322   000000 620006                    EAX0    0,QL
        22 001323   040000 100440                    MLR     fill='040'O
        22 001324   000000 200010 18                 ADSC9   FIELD1                   cn=1,n=*X0
        22 001325   000047 000140 17                 ADSC9   O_L+8                    cn=0,n=96

      367     2137    1       CALL PRNT(O_L, 1, 3);

   2137 22 001326   000043 630400 23                 EPPR0   35
        22 001327   000005 631400 23                 EPPR1   5
        22 001330   000000 701000 xent               TSX1    PRNT
        22 001331   000000 011000                    NOP     0

      368     2138    1       CALL SET_FIELD_NUM(1,AREA.MIN_DBK_GLOB);

   2138 22 001332   000073 630400 23                 EPPR0   59
        22 001333   000013 631400 23                 EPPR1   11
        22 001334   000000 701000 xent               TSX1    SET_FIELD_NUM
        22 001335   000000 011000                    NOP     0

      369     2139    1       CALL CONCAT(O_L , 'FIRST KEY IN AREA(MINK).........' , SUBSTR(FIELD1.TEXT1,0,
              2139                FIELD1.COUNT1));

   2139 22 001336   000000 236000 18                 LDQ     FIELD1
        22 001337   000033 772000                    QRL     27
        22 001340   040000 100400                    MLR     fill='040'O
        22 001341   000515 000040 21                 ADSC9   333                      cn=0,n=32
        22 001342   000037 000040 17                 ADSC9   O_L                      cn=0,n=32
        22 001343   000000 620006                    EAX0    0,QL
        22 001344   040000 100440                    MLR     fill='040'O
        22 001345   000000 200010 18                 ADSC9   FIELD1                   cn=1,n=*X0
        22 001346   000047 000140 17                 ADSC9   O_L+8                    cn=0,n=96

      370     2140    1       CALL PRNT(O_L, 1, 3);

   2140 22 001347   000043 630400 23                 EPPR0   35
        22 001350   000005 631400 23                 EPPR1   5
PL6.E3A0      #001=DBA_SUMMARY File=ZIG$DDE1.:ZIC0TSI                            FRI 09/05/97 11:43 Page:72
        22 001351   000000 701000 xent               TSX1    PRNT
        22 001352   000000 011000                    NOP     0

      371     2141    1       CALL SET_FIELD_NUM(1,AREA.DBK_PAGE);

   2141 22 001353   000075 630400 23                 EPPR0   61
        22 001354   000013 631400 23                 EPPR1   11
        22 001355   000000 701000 xent               TSX1    SET_FIELD_NUM
        22 001356   000000 011000                    NOP     0

      372     2142    1       CALL CONCAT(O_L , 'DATA BASE KEYS PER PAGE.........',SUBSTR(FIELD1.TEXT1,0,
              2142                FIELD1.COUNT1));

   2142 22 001357   000000 236000 18                 LDQ     FIELD1
        22 001360   000033 772000                    QRL     27
        22 001361   040000 100400                    MLR     fill='040'O
        22 001362   000525 000040 21                 ADSC9   341                      cn=0,n=32
        22 001363   000037 000040 17                 ADSC9   O_L                      cn=0,n=32
        22 001364   000000 620006                    EAX0    0,QL
        22 001365   040000 100440                    MLR     fill='040'O
        22 001366   000000 200010 18                 ADSC9   FIELD1                   cn=1,n=*X0
        22 001367   000047 000140 17                 ADSC9   O_L+8                    cn=0,n=96

      373     2143    1       CALL PRNT(O_L, 1, 3);

   2143 22 001370   000043 630400 23                 EPPR0   35
        22 001371   000005 631400 23                 EPPR1   5
        22 001372   000000 701000 xent               TSX1    PRNT
        22 001373   000000 011000                    NOP     0

      374     2144    1       CALL SET_FIELD_NUM(1,AREA.DBK_CALC);

   2144 22 001374   000077 630400 23                 EPPR0   63
        22 001375   000013 631400 23                 EPPR1   11
        22 001376   000000 701000 xent               TSX1    SET_FIELD_NUM
        22 001377   000000 011000                    NOP     0

PL6.E3A0      #001=DBA_SUMMARY File=ZIG$DDE1.:ZIC0TSI                            FRI 09/05/97 11:43 Page:73
      375     2145    1       CALL CONCAT(O_L , 'DATA BASE KEYS PER CALC HEADER..',SUBSTR(FIELD1.TEXT1,0,
              2145                FIELD1.COUNT1));

   2145 22 001400   000000 236000 18                 LDQ     FIELD1
        22 001401   000033 772000                    QRL     27
        22 001402   040000 100400                    MLR     fill='040'O
        22 001403   000535 000040 21                 ADSC9   349                      cn=0,n=32
        22 001404   000037 000040 17                 ADSC9   O_L                      cn=0,n=32
        22 001405   000000 620006                    EAX0    0,QL
        22 001406   040000 100440                    MLR     fill='040'O
        22 001407   000000 200010 18                 ADSC9   FIELD1                   cn=1,n=*X0
        22 001410   000047 000140 17                 ADSC9   O_L+8                    cn=0,n=96

      376     2146    1       CALL PRNT(O_L, 1, 3);

   2146 22 001411   000043 630400 23                 EPPR0   35
        22 001412   000005 631400 23                 EPPR1   5
        22 001413   000000 701000 xent               TSX1    PRNT
        22 001414   000000 011000                    NOP     0

      377     2147         /**
      378     2148            Range summary
      379     2149            */
      380     2150    1       O_L = 'AREA RANGE SUMMARY***';

   2150 22 001415   040000 100400                    MLR     fill='040'O
        22 001416   000545 000025 21                 ADSC9   357                      cn=0,n=21
        22 001417   000037 000200 17                 ADSC9   O_L                      cn=0,n=128

      381     2151    1       CALL PRNT(O_L,4,0);

   2151 22 001420   000102 630400 23                 EPPR0   66
        22 001421   000005 631400 23                 EPPR1   5
        22 001422   000000 701000 xent               TSX1    PRNT
        22 001423   000000 011000                    NOP     0

      382     2152    1       O_L = 'DATA BASE KEY RANGES';
PL6.E3A0      #001=DBA_SUMMARY File=ZIG$DDE1.:ZIC0TSI                            FRI 09/05/97 11:43 Page:74

   2152 22 001424   040000 100400                    MLR     fill='040'O
        22 001425   000553 000024 21                 ADSC9   363                      cn=0,n=20
        22 001426   000037 000200 17                 ADSC9   O_L                      cn=0,n=128

      383     2153    1       CALL PRNT(O_L,1,12);

   2153 22 001427   000106 630400 23                 EPPR0   70
        22 001430   000005 631400 23                 EPPR1   5
        22 001431   000000 701000 xent               TSX1    PRNT
        22 001432   000000 011000                    NOP     0

      384     2154    1       O_L_64_64.A = 'LOCAL                        GLOBAL                  TOTAL     '
              2154                ;

   2154 22 001433   040000 100400                    MLR     fill='040'O
        22 001434   000560 000100 21                 ADSC9   368                      cn=0,n=64
        22 001435   000037 000100 17                 ADSC9   O_L                      cn=0,n=64

      385     2155    1       O_L_64_64.B = '  CALC        AVAIL';

   2155 22 001436   040000 100400                    MLR     fill='040'O
        22 001437   000600 000023 21                 ADSC9   384                      cn=0,n=19
        22 001440   000057 000100 17                 ADSC9   O_L+16                   cn=0,n=64

      386     2156    1       CALL PRNT(O_L, 1, 4);

   2156 22 001441   000111 630400 23                 EPPR0   73
        22 001442   000005 631400 23                 EPPR1   5
        22 001443   000000 701000 xent               TSX1    PRNT
        22 001444   000000 011000                    NOP     0

      387     2157    1       O_L_64_64.A = 'LOW         HIGH             LOW         HIGH           KEYS   '
              2157                ;

   2157 22 001445   040000 100400                    MLR     fill='040'O
        22 001446   000605 000100 21                 ADSC9   389                      cn=0,n=64
PL6.E3A0      #001=DBA_SUMMARY File=ZIG$DDE1.:ZIC0TSI                            FRI 09/05/97 11:43 Page:75
        22 001447   000037 000100 17                 ADSC9   O_L                      cn=0,n=64

      388     2158    1       O_L_64_64.B = '     HDRS        KEYS    RECORDS IN RANGE';

   2158 22 001450   040000 100400                    MLR     fill='040'O
        22 001451   000625 000051 21                 ADSC9   405                      cn=0,n=41
        22 001452   000057 000100 17                 ADSC9   O_L+16                   cn=0,n=64

      389     2159    1       CALL PRNT(O_L, 1, 1);

   2159 22 001453   000114 630400 23                 EPPR0   76
        22 001454   000005 631400 23                 EPPR1   5
        22 001455   000000 701000 xent               TSX1    PRNT
        22 001456   000000 011000                    NOP     0

      390     2160    1       CALL FETCHOS_6('AC-RA   ') ALTRET(ERROR);

   2160 22 001457   000117 630400 23                 EPPR0   79
        22 001460   000000 631400 23                 EPPR1   0
        22 001461   000000 701000 xent               TSX1    FETCHOS_6
        22 001462   005100 702000 22                 TSX2    ERROR

      391     2161    1       RANGE = '0'B;

   2161 22 001463   000000 100400                    MLR     fill='000'O
        22 001464   000007 000001 23                 ADSC9   7                        cn=0,n=1
        22 001465   000204 000040 17                 ADSC9   RANGE                    cn=0,n=32

      392     2162    1   NXTRA:
      393     2163    1       CALL FETCHNS_6('AC-RA   ') ALTRET(NXTAC);

   2163 22 001466   000117 630400 23    NXTRA        EPPR0   79
        22 001467   000000 631400 23                 EPPR1   0
        22 001470   000000 701000 xent               TSX1    FETCHNS_6
        22 001471   000171 702000 22                 TSX2    NXTAC

      394     2164    1       IF UWA.RA.LOWDBK ~= RANGE.MIN_DBK_GLOB THEN
PL6.E3A0      #001=DBA_SUMMARY File=ZIG$DDE1.:ZIC0TSI                            FRI 09/05/97 11:43 Page:76

   2164 22 001472   000326 236000 16                 LDQ     UWA+214
        22 001473   001502 604000 22                 TMI     NEW_RNGE
        22 001474   000207 116000 17                 CMPQ    RANGE+3
        22 001475   001502 601000 22                 TNZ     NEW_RNGE

      395     2165    1           GOTO NEW_RNGE;
      396     2166    1       IF UWA.RA.HIGHDBK = RANGE.MAX_DBK_GLOB THEN

   2166 22 001476   000327 236000 16                 LDQ     UWA+215
        22 001477   001502 604000 22                 TMI     NEW_RNGE
        22 001500   000206 116000 17                 CMPQ    RANGE+2
        22 001501   001654 600000 22                 TZE     PUTNME

      397     2167    1           GOTO PUTNME;
      398     2168         /**
      399     2169            Unpack ra descriptor
      400     2170            */
      401     2171    1   NEW_RNGE:
      402     2172    1       RANGE.MIN_DBK_GLOB = UWA.RA.LOWDBK;

   2172 22 001502   000326 235000 16    NEW_RNGE     LDA     UWA+214
        22 001503   000207 755000 17                 STA     RANGE+3

      403     2173    1       RANGE.MAX_DBK_GLOB = UWA.RA.HIGHDBK;

   2173 22 001504   000327 236000 16                 LDQ     UWA+215
        22 001505   000206 756000 17                 STQ     RANGE+2

      404     2174    1       RANGE.CALC_OFFS = UWA.RA.HDR_OFFS;

   2174 22 001506   000331 235000 16                 LDA     UWA+217
        22 001507   000212 755000 17                 STA     RANGE+6

      405     2175    1       RANGE.CALC_HDRS = UWA.RA.CALC_HDRS;

   2175 22 001510   000330 235000 16                 LDA     UWA+216
PL6.E3A0      #001=DBA_SUMMARY File=ZIG$DDE1.:ZIC0TSI                            FRI 09/05/97 11:43 Page:77
        22 001511   000213 755000 17                 STA     RANGE+7

      406     2176    1       RANGE.MAX_DBK_LOC = RANGE.MAX_DBK_GLOB - AREA.BASE;

   2176 22 001512   000170 136000 17                 SBLQ    AREA+6
        22 001513   000210 756000 17                 STQ     RANGE+4

      407     2177    1       RANGE.MIN_DBK_LOC = RANGE.MIN_DBK_GLOB - AREA.BASE;

   2177 22 001514   000207 236000 17                 LDQ     RANGE+3
        22 001515   000170 136000 17                 SBLQ    AREA+6
        22 001516   000211 756000 17                 STQ     RANGE+5

      408     2178    1       RANGE.TOTAL_KEYS = RANGE.MAX_DBK_GLOB - RANGE.MIN_DBK_GLOB + 1;

   2178 22 001517   000206 236000 17                 LDQ     RANGE+2
        22 001520   000207 136000 17                 SBLQ    RANGE+3
        22 001521   000001 036007                    ADLQ    1,DL
        22 001522   000204 756000 17                 STQ     RANGE

      409     2179    1       RANGE.AVAIL_KEYS = RANGE.TOTAL_KEYS - RANGE.CALC_HDRS;

   2179 22 001523   000213 136000 17                 SBLQ    RANGE+7
        22 001524   000205 756000 17                 STQ     RANGE+1

      410     2180    1       IF RANGE.CALC_OFFS ~= 0 THEN

   2180 22 001525   000212 235000 17                 LDA     RANGE+6
        22 001526   001531 600000 22                 TZE     s:2182

      411     2181    1           RANGE.AVAIL_KEYS = RANGE.AVAIL_KEYS + 1;

   2181 22 001527   000001 036007                    ADLQ    1,DL
        22 001530   000205 756000 17                 STQ     RANGE+1

      412     2182    1       O_L = ' ';

PL6.E3A0      #001=DBA_SUMMARY File=ZIG$DDE1.:ZIC0TSI                            FRI 09/05/97 11:43 Page:78
   2182 22 001531   040000 100400                    MLR     fill='040'O
        22 001532   000031 000001 23                 ADSC9   25                       cn=0,n=1
        22 001533   000037 000200 17                 ADSC9   O_L                      cn=0,n=128

      413     2183    1       CALL PRNT(O_L, 1, 0);

   2183 22 001534   000010 630400 23                 EPPR0   8
        22 001535   000005 631400 23                 EPPR1   5
        22 001536   000000 701000 xent               TSX1    PRNT
        22 001537   000000 011000                    NOP     0

      414     2184         /* Pre slu of 2 between ranges */
      415     2185         /**
      416     2186            Build print line for new range
      417     2187            */
      418     2188    1       IF UWA.AC.CALC_NULL = 1 THEN

   2188 22 001540   000241 235000 16                 LDA     UWA+161
        22 001541   000001 115007                    CMPA    1,DL
        22 001542   001546 601000 22                 TNZ     PASS_CALC

      419     2189    2       DO; /* Ino calc headers */

      420     2190    2           NUMB_CALC = 0;

   2190 22 001543   000000 220003                    LDX0    0,DU
        22 001544   200105 740100                    STX0    NUMB_CALC,,AUTO

      421     2191    2           GOTO PASS_CALC;

   2191 22 001545   001546 710000 22                 TRA     PASS_CALC

      422     2192    2           END;
      423     2193    1   PASS_CALC:
      424     2194    1       CALL SET_FIELD_NUM(1,RANGE.MIN_DBK_LOC);

   2194 22 001546   000120 630400 23    PASS_CALC    EPPR0   80
PL6.E3A0      #001=DBA_SUMMARY File=ZIG$DDE1.:ZIC0TSI                            FRI 09/05/97 11:43 Page:79
        22 001547   000013 631400 23                 EPPR1   11
        22 001550   000000 701000 xent               TSX1    SET_FIELD_NUM
        22 001551   000000 011000                    NOP     0

      425     2195    1       C12_2 = SUBSTR(FIELD1.TEXT1,0,FIELD1.COUNT1);

   2195 22 001552   000000 236000 18                 LDQ     FIELD1
        22 001553   000033 772000                    QRL     27
        22 001554   000000 620006                    EAX0    0,QL
        22 001555   040000 100440                    MLR     fill='040'O
        22 001556   000000 200010 18                 ADSC9   FIELD1                   cn=1,n=*X0
        22 001557   000103 000014 17                 ADSC9   C12_2                    cn=0,n=12

      426     2196    1       CALL SET_FIELD_NUM(1,RANGE.MAX_DBK_LOC);

   2196 22 001560   000122 630400 23                 EPPR0   82
        22 001561   000013 631400 23                 EPPR1   11
        22 001562   000000 701000 xent               TSX1    SET_FIELD_NUM
        22 001563   000000 011000                    NOP     0

      427     2197    1       C17_1 = SUBSTR(FIELD1.TEXT1,0,FIELD1.COUNT1);

   2197 22 001564   000000 236000 18                 LDQ     FIELD1
        22 001565   000033 772000                    QRL     27
        22 001566   000000 620006                    EAX0    0,QL
        22 001567   040000 100440                    MLR     fill='040'O
        22 001570   000000 200010 18                 ADSC9   FIELD1                   cn=1,n=*X0
        22 001571   000022 000021 17                 ADSC9   C17_1                    cn=0,n=17

      428     2198    1       CALL SET_FIELD_NUM(1,RANGE.MIN_DBK_GLOB);

   2198 22 001572   000124 630400 23                 EPPR0   84
        22 001573   000013 631400 23                 EPPR1   11
        22 001574   000000 701000 xent               TSX1    SET_FIELD_NUM
        22 001575   000000 011000                    NOP     0

      429     2199    1       C12_3 = SUBSTR(FIELD1.TEXT1,0,FIELD1.COUNT1);
PL6.E3A0      #001=DBA_SUMMARY File=ZIG$DDE1.:ZIC0TSI                            FRI 09/05/97 11:43 Page:80

   2199 22 001576   000000 236000 18                 LDQ     FIELD1
        22 001577   000033 772000                    QRL     27
        22 001600   000000 620006                    EAX0    0,QL
        22 001601   040000 100440                    MLR     fill='040'O
        22 001602   000000 200010 18                 ADSC9   FIELD1                   cn=1,n=*X0
        22 001603   000004 000014 17                 ADSC9   C12_3                    cn=0,n=12

      430     2200    1       CALL SET_FIELD_NUM(1,RANGE.MAX_DBK_GLOB);

   2200 22 001604   000126 630400 23                 EPPR0   86
        22 001605   000013 631400 23                 EPPR1   11
        22 001606   000000 701000 xent               TSX1    SET_FIELD_NUM
        22 001607   000000 011000                    NOP     0

      431     2201    1       C15_1 = SUBSTR(FIELD1.TEXT1,0,FIELD1.COUNT1);

   2201 22 001610   000000 236000 18                 LDQ     FIELD1
        22 001611   000033 772000                    QRL     27
        22 001612   000000 620006                    EAX0    0,QL
        22 001613   040000 100440                    MLR     fill='040'O
        22 001614   000000 200010 18                 ADSC9   FIELD1                   cn=1,n=*X0
        22 001615   000077 000017 17                 ADSC9   C15_1                    cn=0,n=15

      432     2202    1       CALL SET_FIELD_NUM(1,RANGE.TOTAL_KEYS);

   2202 22 001616   000130 630400 23                 EPPR0   88
        22 001617   000013 631400 23                 EPPR1   11
        22 001620   000000 701000 xent               TSX1    SET_FIELD_NUM
        22 001621   000000 011000                    NOP     0

      433     2203    1       C13_3 = SUBSTR(FIELD1.TEXT1,0,FIELD1.COUNT1);

   2203 22 001622   000000 236000 18                 LDQ     FIELD1
        22 001623   000033 772000                    QRL     27
        22 001624   000000 620006                    EAX0    0,QL
        22 001625   040000 100440                    MLR     fill='040'O
PL6.E3A0      #001=DBA_SUMMARY File=ZIG$DDE1.:ZIC0TSI                            FRI 09/05/97 11:43 Page:81
        22 001626   000000 200010 18                 ADSC9   FIELD1                   cn=1,n=*X0
        22 001627   000007 000015 17                 ADSC9   C13_3                    cn=0,n=13

      434     2204    1       CALL SET_FIELD_NUM(1,RANGE.AVAIL_KEYS);

   2204 22 001630   000132 630400 23                 EPPR0   90
        22 001631   000013 631400 23                 EPPR1   11
        22 001632   000000 701000 xent               TSX1    SET_FIELD_NUM
        22 001633   000000 011000                    NOP     0

      435     2205    1       C13_4 = SUBSTR(FIELD1.TEXT1,0,FIELD1.COUNT1);

   2205 22 001634   000000 236000 18                 LDQ     FIELD1
        22 001635   000033 772000                    QRL     27
        22 001636   000000 620006                    EAX0    0,QL
        22 001637   040000 100440                    MLR     fill='040'O
        22 001640   000000 200010 18                 ADSC9   FIELD1                   cn=1,n=*X0
        22 001641   000013 000015 17                 ADSC9   C13_4                    cn=0,n=13

      436     2206    1       CALL SET_FIELD_NUM(1,RANGE.CALC_HDRS);

   2206 22 001642   000134 630400 23                 EPPR0   92
        22 001643   000013 631400 23                 EPPR1   11
        22 001644   000000 701000 xent               TSX1    SET_FIELD_NUM
        22 001645   000000 011000                    NOP     0

      437     2207    1       C12_1 = SUBSTR(FIELD1.TEXT1,0,FIELD1.COUNT1);

   2207 22 001646   000000 236000 18                 LDQ     FIELD1
        22 001647   000033 772000                    QRL     27
        22 001650   000000 620006                    EAX0    0,QL
        22 001651   040000 100440                    MLR     fill='040'O
        22 001652   000000 200010 18                 ADSC9   FIELD1                   cn=1,n=*X0
        22 001653   000017 000014 17                 ADSC9   C12_1                    cn=0,n=12

      438     2208    1   PUTNME:
      439     2209    1       CALL FETCHOS_6('RC-RA   ') ALTRET(ERROR); /* Get rc of this ra */
PL6.E3A0      #001=DBA_SUMMARY File=ZIG$DDE1.:ZIC0TSI                            FRI 09/05/97 11:43 Page:82

   2209 22 001654   000136 630400 23    PUTNME       EPPR0   94
        22 001655   000000 631400 23                 EPPR1   0
        22 001656   000000 701000 xent               TSX1    FETCHOS_6
        22 001657   005100 702000 22                 TSX2    ERROR

      440     2210    1       CALL FETCHOS_6('SN-SE   ') ALTRET(ERROR); /* Get sn of rc */

   2210 22 001660   000137 630400 23                 EPPR0   95
        22 001661   000000 631400 23                 EPPR1   0
        22 001662   000000 701000 xent               TSX1    FETCHOS_6
        22 001663   005100 702000 22                 TSX2    ERROR

      441     2211    1       CALL CONCAT(O_L_69_59.A , C12_2 , C17_1 , C12_3 , C15_1 , C13_3);

   2211 22 001664   040000 100400                    MLR     fill='040'O
        22 001665   000103 000014 17                 ADSC9   C12_2                    cn=0,n=12
        22 001666   000037 000014 17                 ADSC9   O_L                      cn=0,n=12
        22 001667   040000 100400                    MLR     fill='040'O
        22 001670   000022 000021 17                 ADSC9   C17_1                    cn=0,n=17
        22 001671   000042 000021 17                 ADSC9   O_L+3                    cn=0,n=17
        22 001672   040000 100400                    MLR     fill='040'O
        22 001673   000004 000014 17                 ADSC9   C12_3                    cn=0,n=12
        22 001674   000046 200014 17                 ADSC9   O_L+7                    cn=1,n=12
        22 001675   040000 100400                    MLR     fill='040'O
        22 001676   000077 000017 17                 ADSC9   C15_1                    cn=0,n=15
        22 001677   000051 200017 17                 ADSC9   O_L+10                   cn=1,n=15
        22 001700   040000 100400                    MLR     fill='040'O
        22 001701   000007 000015 17                 ADSC9   C13_3                    cn=0,n=13
        22 001702   000055 000015 17                 ADSC9   O_L+14                   cn=0,n=13

      442     2212    1       CALL CONCAT(O_L_69_59.B,C12_1,C13_4,'   ',UWA.SN.SENAME);

   2212 22 001703   040000 100400                    MLR     fill='040'O
        22 001704   000017 000014 17                 ADSC9   C12_1                    cn=0,n=12
        22 001705   000060 200014 17                 ADSC9   O_L+17                   cn=1,n=12
        22 001706   040000 100400                    MLR     fill='040'O
PL6.E3A0      #001=DBA_SUMMARY File=ZIG$DDE1.:ZIC0TSI                            FRI 09/05/97 11:43 Page:83
        22 001707   000013 000015 17                 ADSC9   C13_4                    cn=0,n=13
        22 001710   000063 200015 17                 ADSC9   O_L+20                   cn=1,n=13
        22 001711   040000 100400                    MLR     fill='040'O
        22 001712   000606 000003 21                 ADSC9   390                      cn=0,n=3
        22 001713   000066 400003 17                 ADSC9   O_L+23                   cn=2,n=3
        22 001714   040000 100400                    MLR     fill='040'O
        22 001715   000427 000036 16                 ADSC9   UWA+279                  cn=0,n=30
        22 001716   000067 200037 17                 ADSC9   O_L+24                   cn=1,n=31

      443     2213    1       CALL PRNT(O_L, 1, 1);

   2213 22 001717   000114 630400 23                 EPPR0   76
        22 001720   000005 631400 23                 EPPR1   5
        22 001721   000000 701000 xent               TSX1    PRNT
        22 001722   000000 011000                    NOP     0

      444     2214    1       O_L =' ';

   2214 22 001723   040000 100400                    MLR     fill='040'O
        22 001724   000031 000001 23                 ADSC9   25                       cn=0,n=1
        22 001725   000037 000200 17                 ADSC9   O_L                      cn=0,n=128

      445     2215    1       C12_2 = ' '; C17_1 = ' '; C12_3 = ' ';

   2215 22 001726   040000 100400                    MLR     fill='040'O
        22 001727   000031 000001 23                 ADSC9   25                       cn=0,n=1
        22 001730   000103 000014 17                 ADSC9   C12_2                    cn=0,n=12

   2215 22 001731   040000 100400                    MLR     fill='040'O
        22 001732   000031 000001 23                 ADSC9   25                       cn=0,n=1
        22 001733   000022 000021 17                 ADSC9   C17_1                    cn=0,n=17

   2215 22 001734   040000 100400                    MLR     fill='040'O
        22 001735   000031 000001 23                 ADSC9   25                       cn=0,n=1
        22 001736   000004 000014 17                 ADSC9   C12_3                    cn=0,n=12

      446     2216    1       C15_1 = ' '; C13_3 = ' '; C12_1 = ' '; C13_4 = ' ';
PL6.E3A0      #001=DBA_SUMMARY File=ZIG$DDE1.:ZIC0TSI                            FRI 09/05/97 11:43 Page:84

   2216 22 001737   040000 100400                    MLR     fill='040'O
        22 001740   000031 000001 23                 ADSC9   25                       cn=0,n=1
        22 001741   000077 000017 17                 ADSC9   C15_1                    cn=0,n=15

   2216 22 001742   040000 100400                    MLR     fill='040'O
        22 001743   000031 000001 23                 ADSC9   25                       cn=0,n=1
        22 001744   000007 000015 17                 ADSC9   C13_3                    cn=0,n=13

   2216 22 001745   040000 100400                    MLR     fill='040'O
        22 001746   000031 000001 23                 ADSC9   25                       cn=0,n=1
        22 001747   000017 000014 17                 ADSC9   C12_1                    cn=0,n=12

   2216 22 001750   040000 100400                    MLR     fill='040'O
        22 001751   000031 000001 23                 ADSC9   25                       cn=0,n=1
        22 001752   000013 000015 17                 ADSC9   C13_4                    cn=0,n=13

      447     2217    1       GOTO NXTRA;

   2217 22 001753   001466 710000 22                 TRA     NXTRA

      448     2218    1   REC_SUM:
      449     2219    1       TEMP_UBIN_WORD = UWA.DA.FRST_RC;

   2219 22 001754   000416 235000 16    REC_SUM      LDA     UWA+270
        22 001755   200056 755100                    STA     TEMP_UBIN_WORD,,AUTO

      450     2220    1       CALL FETCHD_6('SN  ', TEMP_UBIN_WORD) ALTRET(ERROR);

   2220 22 001756   200056 630500                    EPPR0   TEMP_UBIN_WORD,,AUTO
        22 001757   200127 450500                    STP0    C7V+4,,AUTO
        22 001760   000140 236000 23                 LDQ     96
        22 001761   200126 756100                    STQ     C7V+3,,AUTO
        22 001762   200126 630500                    EPPR0   C7V+3,,AUTO
        22 001763   000013 631400 23                 EPPR1   11
        22 001764   000000 701000 xent               TSX1    FETCHD_6
        22 001765   005100 702000 22                 TSX2    ERROR
PL6.E3A0      #001=DBA_SUMMARY File=ZIG$DDE1.:ZIC0TSI                            FRI 09/05/97 11:43 Page:85

      451     2221    1       CALL FETCHPS_6('DA-SN   ') ALTRET(ERROR);

   2221 22 001766   000141 630400 23                 EPPR0   97
        22 001767   000000 631400 23                 EPPR1   0
        22 001770   000000 701000 xent               TSX1    FETCHPS_6
        22 001771   005100 702000 22                 TSX2    ERROR

      452     2222    1       DBK = UWA.DIRECT_REF;

   2222 22 001772   000036 235000 16                 LDA     UWA+30
        22 001773   200055 755100                    STA     DBK,,AUTO

      453     2223    1   NXTRC:
      454     2224    1       TEMP_UBIN_WORD = DBK;

   2224 22 001774   200055 235100       NXTRC        LDA     DBK,,AUTO
        22 001775   200056 755100                    STA     TEMP_UBIN_WORD,,AUTO

      455     2225    1       CALL FINDD_6('SN  ', TEMP_UBIN_WORD) ALTRET(ERROR);

   2225 22 001776   200056 630500                    EPPR0   TEMP_UBIN_WORD,,AUTO
        22 001777   200127 450500                    STP0    C7V+4,,AUTO
        22 002000   000140 236000 23                 LDQ     96
        22 002001   200126 756100                    STQ     C7V+3,,AUTO
        22 002002   200126 630500                    EPPR0   C7V+3,,AUTO
        22 002003   000013 631400 23                 EPPR1   11
        22 002004   000000 701000 xent               TSX1    FINDD_6
        22 002005   005100 702000 22                 TSX2    ERROR

      456     2226    1       CALL FETCHNS_6('DA-SN   ') ALTRET(SUM_PARAMS);

   2226 22 002006   000141 630400 23                 EPPR0   97
        22 002007   000000 631400 23                 EPPR1   0
        22 002010   000000 701000 xent               TSX1    FETCHNS_6
        22 002011   004146 702000 22                 TSX2    SUM_PARAMS

PL6.E3A0      #001=DBA_SUMMARY File=ZIG$DDE1.:ZIC0TSI                            FRI 09/05/97 11:43 Page:86
      457     2227    1       DBK = UWA.DIRECT_REF;

   2227 22 002012   000036 235000 16                 LDA     UWA+30
        22 002013   200055 755100                    STA     DBK,,AUTO

      458     2228    1       IF UWA.SN.SETYPE ~= 40 THEN

   2228 22 002014   000424 236000 16                 LDQ     UWA+276
        22 002015   000050 116007                    CMPQ    40,DL
        22 002016   004146 601000 22                 TNZ     SUM_PARAMS

      459     2229    1           GOTO SUM_PARAMS;
      460     2230    1       IF UWA.SN.SENAME = '*DBPARAM' THEN DBK_PARAM = UWA.DIRECT_REF;

   2230 22 002017   040000 106400                    CMPC    fill='040'O
        22 002020   000427 000036 16                 ADSC9   UWA+279                  cn=0,n=30
        22 002021   000651 000010 21                 ADSC9   425                      cn=0,n=8
        22 002022   002024 601000 22                 TNZ     s:2231

   2230 22 002023   200004 755100                    STA     DBK_PARAM,,AUTO

      461     2231    1       IF SUBSTR(UWA.SN.SENAME, 0, 1) = '*' THEN

   2231 22 002024   000427 236000 16                 LDQ     UWA+279
        22 002025   777000 376003                    ANQ     -512,DU
        22 002026   052000 116003                    CMPQ    21504,DU
        22 002027   002034 601000 22                 TNZ     s:2234

      462     2232    1           IF SUBSTR(UWA.SN.SENAME, 0, 3) ~= '*PA' THEN

   2232 22 002030   000427 236000 16                 LDQ     UWA+279
        22 002031   000653 676000 21                 ERQ     427
        22 002032   000142 376000 23                 ANQ     98
        22 002033   001774 601000 22                 TNZ     NXTRC

      463     2233    1               GOTO NXTRC;
      464     2234    1       CALL FETCHNS_6('SN-SE   ') ALTRET(ERROR);
PL6.E3A0      #001=DBA_SUMMARY File=ZIG$DDE1.:ZIC0TSI                            FRI 09/05/97 11:43 Page:87

   2234 22 002034   000137 630400 23                 EPPR0   95
        22 002035   000000 631400 23                 EPPR1   0
        22 002036   000000 701000 xent               TSX1    FETCHNS_6
        22 002037   005100 702000 22                 TSX2    ERROR

      465     2235    1       ZT = 0;

   2235 22 002040   000000 220003                    LDX0    0,DU
        22 002041   200005 740100                    STX0    ZT,,AUTO

      466     2236    1       Z = UWA.RC.FIXVAR;

   2236 22 002042   000272 721000 16                 LXL1    UWA+186
        22 002043   200006 741100                    STX1    Z,,AUTO

      467     2237    2       DO WHILE(Z ~= 0);

   2237 22 002044   002066 600000 22                 TZE     s:2245

      468     2238    2           CALL FETCHNS_6('RC-FR   ') ALTRET(NXTRC1A);

   2238 22 002045   000143 630400 23                 EPPR0   99
        22 002046   000000 631400 23                 EPPR1   0
        22 002047   000000 701000 xent               TSX1    FETCHNS_6
        22 002050   002072 702000 22                 TSX2    NXTRC1A

      469     2239    2           IF UWA.FR.FTYPE = 19 THEN

   2239 22 002051   000334 235000 16                 LDA     UWA+220
        22 002052   000023 115007                    CMPA    19,DL
        22 002053   002064 601000 22                 TNZ     s:2244

      470     2240    3           DO;

      471     2241    3               Z = Z - 1;

PL6.E3A0      #001=DBA_SUMMARY File=ZIG$DDE1.:ZIC0TSI                            FRI 09/05/97 11:43 Page:88
   2241 22 002054   200006 220100                    LDX0    Z,,AUTO
        22 002055   777777 621010                    EAX1    -1,X0
        22 002056   200006 741100                    STX1    Z,,AUTO

      472     2242    3               ZT = UWA.FR.PREC + ZT;

   2242 22 002057   200005 236100                    LDQ     ZT,,AUTO
        22 002060   000022 732000                    QRS     18
        22 002061   000335 036000 16                 ADLQ    UWA+221
        22 002062   000000 620006                    EAX0    0,QL
        22 002063   200005 740100                    STX0    ZT,,AUTO

      473     2243    3               END;

      474     2244    2           END;

   2244 22 002064   200006 220100                    LDX0    Z,,AUTO
        22 002065   002045 601000 22                 TNZ     s:2238

      475     2245    1       CALL FETCHOS_6('RC-FR   ') ALTRET(ERROR);

   2245 22 002066   000143 630400 23                 EPPR0   99
        22 002067   000000 631400 23                 EPPR1   0
        22 002070   000000 701000 xent               TSX1    FETCHOS_6
        22 002071   005100 702000 22                 TSX2    ERROR

      476     2246    1   NXTRC1A:
      477     2247    1       IF UWA.RC.PSMODE = 4 /* Index loc mode */ OR

   2247 22 002072   000271 235000 16    NXTRC1A      LDA     UWA+185
        22 002073   000004 115007                    CMPA    4,DL
        22 002074   002077 600000 22                 TZE     s:2250
        22 002075   000005 115007                    CMPA    5,DL
        22 002076   002104 601000 22                 TNZ     s:2255

      478     2248    1          UWA.RC.PSMODE = 5 /* Pa record */ THEN
      479     2249    2       DO;
PL6.E3A0      #001=DBA_SUMMARY File=ZIG$DDE1.:ZIC0TSI                            FRI 09/05/97 11:43 Page:89

      480     2250    2           PE = ADDR(DEIS8);

   2250 22 002077   000144 236000 23                 LDQ     100
        22 002100   200052 756100                    STQ     PE,,AUTO

      481     2251    2           LSTEIS = DEIS8;

   2251 22 002101   000160 236000 17                 LDQ     DEIS8
        22 002102   000156 756000 17                 STQ     LSTEIS

      482     2252    2           END;

   2252 22 002103   002110 710000 22                 TRA     s:2258

      483     2253    1       ELSE
      484     2254    2       DO;

      485     2255    2           PE = ADDR(DEIS4);

   2255 22 002104   000145 236000 23                 LDQ     101
        22 002105   200052 756100                    STQ     PE,,AUTO

      486     2256    2           LSTEIS = DEIS4;

   2256 22 002106   000157 236000 17                 LDQ     DEIS4
        22 002107   000156 756000 17                 STQ     LSTEIS

      487     2257    2           END;

      488     2258    1       O_L = ' ';

   2258 22 002110   040000 100400                    MLR     fill='040'O
        22 002111   000031 000001 23                 ADSC9   25                       cn=0,n=1
        22 002112   000037 000200 17                 ADSC9   O_L                      cn=0,n=128

      489     2259    1       LNCNT = 9999; /* FORCE NEW PAGE */
PL6.E3A0      #001=DBA_SUMMARY File=ZIG$DDE1.:ZIC0TSI                            FRI 09/05/97 11:43 Page:90

   2259 22 002113   023417 235007                    LDA     9999,DL
        22 002114   000000 755000 xsym               STA     LNCNT

      490     2260    1       CALL PRNT(O_L, 99, 0);

   2260 22 002115   000033 630400 23                 EPPR0   27
        22 002116   000005 631400 23                 EPPR1   5
        22 002117   000000 701000 xent               TSX1    PRNT
        22 002120   000000 011000                    NOP     0

      491     2261    1       CALL SET_FIELDS(1,30,UWA.SN.SENAME);

   2261 22 002121   000040 630400 23                 EPPR0   32
        22 002122   000005 631400 23                 EPPR1   5
        22 002123   000000 701000 xent               TSX1    SET_FIELDS
        22 002124   000000 011000                    NOP     0

      492     2262    1      CALL CONCAT(O_L , 'SUMMARY FOR RECORD "' , SUBSTR(FIELD1.TEXT1,0,FIELD1.COUNT1),
              2262                '" ***');

   2262 22 002125   000000 236000 18                 LDQ     FIELD1
        22 002126   000033 772000                    QRL     27
        22 002127   040000 100400                    MLR     fill='040'O
        22 002130   000656 000024 21                 ADSC9   430                      cn=0,n=20
        22 002131   000037 000024 17                 ADSC9   O_L                      cn=0,n=20
        22 002132   000000 620006                    EAX0    0,QL
        22 002133   040000 100440                    MLR     fill='040'O
        22 002134   000000 200010 18                 ADSC9   FIELD1                   cn=1,n=*X0
        22 002135   000044 000154 17                 ADSC9   O_L+5                    cn=0,n=108
        22 002136   000154 116007                    CMPQ    108,DL
        22 002137   002145 603000 22                 TRC     s:2263
        22 002140   777623 620006                    EAX0    -109,QL
        22 002141   777777 660003                    ERX0    -1,DU
        22 002142   040046 100400                    MLR     fill='040'O
        22 002143   000663 000005 21                 ADSC9   435                      cn=0,n=5
        22 002144   000044 000010 17                 ADSC9   O_L+5,Q                  cn=0,n=*X0
PL6.E3A0      #001=DBA_SUMMARY File=ZIG$DDE1.:ZIC0TSI                            FRI 09/05/97 11:43 Page:91

      493     2263    1       CALL PRNT(O_L, 1, 0);

   2263 22 002145   000010 630400 23                 EPPR0   8
        22 002146   000005 631400 23                 EPPR1   5
        22 002147   000000 701000 xent               TSX1    PRNT
        22 002150   000000 011000                    NOP     0

      494     2264    1       CALL SET_FIELD_NUM(1,UWA.RC.RTYPE);

   2264 22 002151   000146 630400 23                 EPPR0   102
        22 002152   000013 631400 23                 EPPR1   11
        22 002153   000000 701000 xent               TSX1    SET_FIELD_NUM
        22 002154   000000 011000                    NOP     0

      495     2265    1       CALL OCT(ADDR(UWA.RC.RTYPE)->B36);

   2265 22 002155   000147 236000 23                 LDQ     103
        22 002156   200115 756100                    STQ     C15+6,,AUTO
        22 002157   005104 701000 22                 TSX1    OCT
        22 002160   000000 011000                    NOP     0

      496     2266    1      CALL CONCAT(O_L,'TYPE CODE IS ',SUBSTR(FIELD1.TEXT1,0,FIELD1.COUNT1),' (',SUBSTR
              2266                (OSTR,8,4),')');

   2266 22 002161   000000 236000 18                 LDQ     FIELD1
        22 002162   000033 772000                    QRL     27
        22 002163   040000 100400                    MLR     fill='040'O
        22 002164   000665 000015 21                 ADSC9   437                      cn=0,n=13
        22 002165   000037 000015 17                 ADSC9   O_L                      cn=0,n=13
        22 002166   000000 620006                    EAX0    0,QL
        22 002167   040000 100440                    MLR     fill='040'O
        22 002170   000000 200010 18                 ADSC9   FIELD1                   cn=1,n=*X0
        22 002171   000042 200163 17                 ADSC9   O_L+3                    cn=1,n=115
        22 002172   000163 116007                    CMPQ    115,DL
        22 002173   002217 603000 22                 TRC     s:2267
        22 002174   777614 620006                    EAX0    -116,QL
PL6.E3A0      #001=DBA_SUMMARY File=ZIG$DDE1.:ZIC0TSI                            FRI 09/05/97 11:43 Page:92
        22 002175   777777 660003                    ERX0    -1,DU
        22 002176   040046 100400                    MLR     fill='040'O
        22 002177   000671 000002 21                 ADSC9   441                      cn=0,n=2
        22 002200   000042 200010 17                 ADSC9   O_L+3,Q                  cn=1,n=*X0
        22 002201   000161 116007                    CMPQ    113,DL
        22 002202   002217 603000 22                 TRC     s:2267
        22 002203   777616 620006                    EAX0    -114,QL
        22 002204   777777 660003                    ERX0    -1,DU
        22 002205   040046 100500                    MLR     fill='040'O
        22 002206   200047 000004                    ADSC9   OSTR+2,,AUTO             cn=0,n=4
        22 002207   000042 600010 17                 ADSC9   O_L+3,Q                  cn=3,n=*X0
        22 002210   000155 116007                    CMPQ    109,DL
        22 002211   002217 603000 22                 TRC     s:2267
        22 002212   777622 620006                    EAX0    -110,QL
        22 002213   777777 660003                    ERX0    -1,DU
        22 002214   040046 100400                    MLR     fill='040'O
        22 002215   000150 000001 23                 ADSC9   104                      cn=0,n=1
        22 002216   000043 600010 17                 ADSC9   O_L+4,Q                  cn=3,n=*X0

      497     2267    1       CALL PRNT(O_L, 1, 3);

   2267 22 002217   000043 630400 23                 EPPR0   35
        22 002220   000005 631400 23                 EPPR1   5
        22 002221   000000 701000 xent               TSX1    PRNT
        22 002222   000000 011000                    NOP     0

      498     2268    1       CALL SET_FIELD_NUM(1,UWA.RC.LSIZE);

   2268 22 002223   000151 630400 23                 EPPR0   105
        22 002224   000013 631400 23                 EPPR1   11
        22 002225   000000 701000 xent               TSX1    SET_FIELD_NUM
        22 002226   000000 011000                    NOP     0

      499     2269    1       IF UWA.RC.FIXVAR = 0 THEN

   2269 22 002227   000272 235000 16                 LDA     UWA+186
        22 002230   002257 601000 22                 TNZ     s:2273
PL6.E3A0      #001=DBA_SUMMARY File=ZIG$DDE1.:ZIC0TSI                            FRI 09/05/97 11:43 Page:93

      500     2270    1           CALL CONCAT(O_L , 'SIZE IS ' , SUBSTR(FIELD1.TEXT1,0,FIELD1.COUNT1) ,
              2270                    ' BYTES.');

   2270 22 002231   000000 236000 18                 LDQ     FIELD1
        22 002232   000033 772000                    QRL     27
        22 002233   000000 620006                    EAX0    0,QL
        22 002234   000672 237000 21                 LDAQ    442
        22 002235   000037 755000 17                 STA     O_L
        22 002236   000040 756000 17                 STQ     O_L+1
        22 002237   040000 100440                    MLR     fill='040'O
        22 002240   000000 200010 18                 ADSC9   FIELD1                   cn=1,n=*X0
        22 002241   000041 000170 17                 ADSC9   O_L+2                    cn=0,n=120
        22 002242   000000 636010                    EAQ     0,X0
        22 002243   000022 772000                    QRL     18
        22 002244   000170 116007                    CMPQ    120,DL
        22 002245   002256 603000 22                 TRC     s:2270+21
        22 002246   200126 740100                    STX0    C7V+3,,AUTO
        22 002247   777607 620010                    EAX0    -121,X0
        22 002250   777777 660003                    ERX0    -1,DU
        22 002251   200126 236100                    LDQ     C7V+3,,AUTO
        22 002252   000022 772000                    QRL     18
        22 002253   040046 100400                    MLR     fill='040'O
        22 002254   000674 000007 21                 ADSC9   444                      cn=0,n=7
        22 002255   000041 000010 17                 ADSC9   O_L+2,Q                  cn=0,n=*X0
        22 002256   002361 710000 22                 TRA     s:2277

      501     2271    1       ELSE
      502     2272    2       DO;

      503     2273    2           K = UWA.RC.LSIZE - ZT;

   2273 22 002257   200005 236100                    LDQ     ZT,,AUTO
        22 002260   000022 732000                    QRS     18
        22 002261   200126 756100                    STQ     C7V+3,,AUTO
        22 002262   000306 236000 16                 LDQ     UWA+198
        22 002263   200126 136100                    SBLQ    C7V+3,,AUTO
PL6.E3A0      #001=DBA_SUMMARY File=ZIG$DDE1.:ZIC0TSI                            FRI 09/05/97 11:43 Page:94
        22 002264   200011 756100                    STQ     K,,AUTO

      504     2274    2           CALL SET_FIELD_NUM(2,K);

   2274 22 002265   200011 630500                    EPPR0   K,,AUTO
        22 002266   200127 450500                    STP0    C7V+4,,AUTO
        22 002267   000021 236000 23                 LDQ     17
        22 002270   200126 756100                    STQ     C7V+3,,AUTO
        22 002271   200126 630500                    EPPR0   C7V+3,,AUTO
        22 002272   000013 631400 23                 EPPR1   11
        22 002273   000000 701000 xent               TSX1    SET_FIELD_NUM
        22 002274   000000 011000                    NOP     0

      505     2275    2    CALL CONCAT(O_L,'MIN SIZE IS ',SUBSTR(FIELD2.TEXT2,0,FIELD2.COUNT2),
              2275             ' - MAX SIZE IS ',SUBSTR(FIELD1.TEXT1,0,FIELD1.COUNT1),' BYTES.');

   2275 22 002275   000000 236000 19                 LDQ     FIELD2
        22 002276   000033 772000                    QRL     27
        22 002277   000000 620006                    EAX0    0,QL
        22 002300   000000 236000 18                 LDQ     FIELD1
        22 002301   000033 772000                    QRL     27
        22 002302   040000 100400                    MLR     fill='040'O
        22 002303   000676 000014 21                 ADSC9   446                      cn=0,n=12
        22 002304   000037 000014 17                 ADSC9   O_L                      cn=0,n=12
        22 002305   040000 100440                    MLR     fill='040'O
        22 002306   000000 200010 19                 ADSC9   FIELD2                   cn=1,n=*X0
        22 002307   000042 000164 17                 ADSC9   O_L+3                    cn=0,n=116
        22 002310   000000 621006                    EAX1    0,QL
        22 002311   000000 636010                    EAQ     0,X0
        22 002312   000022 772000                    QRL     18
        22 002313   000164 116007                    CMPQ    116,DL
        22 002314   002361 603000 22                 TRC     s:2277
        22 002315   200126 740100                    STX0    C7V+3,,AUTO
        22 002316   777613 620010                    EAX0    -117,X0
        22 002317   777777 660003                    ERX0    -1,DU
        22 002320   200126 235100                    LDA     C7V+3,,AUTO
        22 002321   000022 771000                    ARL     18
PL6.E3A0      #001=DBA_SUMMARY File=ZIG$DDE1.:ZIC0TSI                            FRI 09/05/97 11:43 Page:95
        22 002322   040045 100400                    MLR     fill='040'O
        22 002323   000701 000017 21                 ADSC9   449                      cn=0,n=15
        22 002324   000042 000010 17                 ADSC9   O_L+3,A                  cn=0,n=*X0
        22 002325   200126 236100                    LDQ     C7V+3,,AUTO
        22 002326   000022 772000                    QRL     18
        22 002327   000145 116007                    CMPQ    101,DL
        22 002330   002361 603000 22                 TRC     s:2277
        22 002331   777632 620006                    EAX0    -102,QL
        22 002332   777777 660003                    ERX0    -1,DU
        22 002333   040046 100440                    MLR     fill='040'O
        22 002334   000000 200011 18                 ADSC9   FIELD1                   cn=1,n=*X1
        22 002335   000045 600010 17                 ADSC9   O_L+6,Q                  cn=3,n=*X0
        22 002336   000000 635011                    EAA     0,X1
        22 002337   000022 771000                    ARL     18
        22 002340   200127 755100                    STA     C7V+4,,AUTO
        22 002341   200127 036100                    ADLQ    C7V+4,,AUTO
        22 002342   000145 116007                    CMPQ    101,DL
        22 002343   002361 603000 22                 TRC     s:2277
        22 002344   000000 635011                    EAA     0,X1
        22 002345   000022 771000                    ARL     18
        22 002346   200130 755100                    STA     C7V+5,,AUTO
        22 002347   200131 756100                    STQ     C7V+6,,AUTO
        22 002350   200126 236100                    LDQ     C7V+3,,AUTO
        22 002351   000022 772000                    QRL     18
        22 002352   200130 036100                    ADLQ    C7V+5,,AUTO
        22 002353   200131 721100                    LXL1    C7V+6,,AUTO
        22 002354   777632 621011                    EAX1    -102,X1
        22 002355   777777 661003                    ERX1    -1,DU
        22 002356   040046 100400                    MLR     fill='040'O
        22 002357   000674 000007 21                 ADSC9   444                      cn=0,n=7
        22 002360   000045 600011 17                 ADSC9   O_L+6,Q                  cn=3,n=*X1

      506     2276    2           END;

      507     2277    1       CALL PRNT(O_L, 1, 3);

   2277 22 002361   000043 630400 23                 EPPR0   35
PL6.E3A0      #001=DBA_SUMMARY File=ZIG$DDE1.:ZIC0TSI                            FRI 09/05/97 11:43 Page:96
        22 002362   000005 631400 23                 EPPR1   5
        22 002363   000000 701000 xent               TSX1    PRNT
        22 002364   000000 011000                    NOP     0

      508     2278    1       O_L = 'RECORD FORMAT***';

   2278 22 002365   040000 100400                    MLR     fill='040'O
        22 002366   000705 000020 21                 ADSC9   453                      cn=0,n=16
        22 002367   000037 000200 17                 ADSC9   O_L                      cn=0,n=128

      509     2279    1       CALL PRNT(O_L,2,0);

   2279 22 002370   000052 630400 23                 EPPR0   42
        22 002371   000005 631400 23                 EPPR1   5
        22 002372   000000 701000 xent               TSX1    PRNT
        22 002373   000000 011000                    NOP     0

      510     2280    1       O_L = 'O F F S E T       S P A C E';

   2280 22 002374   040000 100400                    MLR     fill='040'O
        22 002375   000711 000033 21                 ADSC9   457                      cn=0,n=27
        22 002376   000037 000200 17                 ADSC9   O_L                      cn=0,n=128

      511     2281    1       CALL PRNT(O_L, 1, 46);

   2281 22 002377   000154 630400 23                 EPPR0   108
        22 002400   000005 631400 23                 EPPR1   5
        22 002401   000000 701000 xent               TSX1    PRNT
        22 002402   000000 011000                    NOP     0

      512     2282    1       O_L_64_64.A = '                                  TYPE      WORD  BYTE  BIT   ';

   2282 22 002403   040000 100400                    MLR     fill='040'O
        22 002404   000720 000077 21                 ADSC9   464                      cn=0,n=63
        22 002405   000037 000100 17                 ADSC9   O_L                      cn=0,n=64

      513     2283    1       O_L_64_64.B = 'BYTES BITS   PREC  SCALE  SIGN';
PL6.E3A0      #001=DBA_SUMMARY File=ZIG$DDE1.:ZIC0TSI                            FRI 09/05/97 11:43 Page:97

   2283 22 002406   040000 100400                    MLR     fill='040'O
        22 002407   000740 000036 21                 ADSC9   480                      cn=0,n=30
        22 002410   000057 000100 17                 ADSC9   O_L+16                   cn=0,n=64

      514     2284    1       CALL PRNT(O_L, 1, 0);

   2284 22 002411   000010 630400 23                 EPPR0   8
        22 002412   000005 631400 23                 EPPR1   5
        22 002413   000000 701000 xent               TSX1    PRNT
        22 002414   000000 011000                    NOP     0

      515     2285    1       IF UWA.SN.SENAME = '*DBPARAM' THEN

   2285 22 002415   040000 106400                    CMPC    fill='040'O
        22 002416   000427 000036 16                 ADSC9   UWA+279                  cn=0,n=30
        22 002417   000651 000010 21                 ADSC9   425                      cn=0,n=8
        22 002420   003147 600000 22                 TZE     DOFLDS

      516     2286    1           GOTO DOFLDS;
      517     2287    1       IF UWA.RC.PSMODE = 4 OR /* Index record has 8 bytes rcw */

   2287 22 002421   000271 235000 16                 LDA     UWA+185
        22 002422   000004 115007                    CMPA    4,DL
        22 002423   002426 600000 22                 TZE     s:2289
        22 002424   000005 115007                    CMPA    5,DL
        22 002425   002432 601000 22                 TNZ     s:2291

      518     2288    1          UWA.RC.PSMODE = 5 THEN /* Pa rec has 8 byte rcw */
      519     2289    1           O_L = 'RCW          0     0    0         8    0';

   2289 22 002426   040000 100400                    MLR     fill='040'O
        22 002427   000750 000050 21                 ADSC9   488                      cn=0,n=40
        22 002430   000037 000200 17                 ADSC9   O_L                      cn=0,n=128
        22 002431   002435 710000 22                 TRA     s:2292

      520     2290    1       ELSE
PL6.E3A0      #001=DBA_SUMMARY File=ZIG$DDE1.:ZIC0TSI                            FRI 09/05/97 11:43 Page:98
      521     2291    1           O_L = 'RCW          0     0    0         4    0';

   2291 22 002432   040000 100400                    MLR     fill='040'O
        22 002433   000762 000050 21                 ADSC9   498                      cn=0,n=40
        22 002434   000037 000200 17                 ADSC9   O_L                      cn=0,n=128

      522     2292    1       CALL PRNT(O_L, 2, 34);

   2292 22 002435   000160 630400 23                 EPPR0   112
        22 002436   000005 631400 23                 EPPR1   5
        22 002437   000000 701000 xent               TSX1    PRNT
        22 002440   000000 011000                    NOP     0

      523     2293    1       O_L = '   *** SET POINTERS ***';

   2293 22 002441   040000 100400                    MLR     fill='040'O
        22 002442   000774 000027 21                 ADSC9   508                      cn=0,n=23
        22 002443   000037 000200 17                 ADSC9   O_L                      cn=0,n=128

      524     2294    1       CALL PRNT(O_L,1,0);

   2294 22 002444   000010 630400 23                 EPPR0   8
        22 002445   000005 631400 23                 EPPR1   5
        22 002446   000000 701000 xent               TSX1    PRNT
        22 002447   000000 011000                    NOP     0

      525     2295         /* Check if record is in an index area */
      526     2296    1       CALL FETCHOS_6('RC-RA   ') ALTRET(ERROR);

   2296 22 002450   000136 630400 23                 EPPR0   94
        22 002451   000000 631400 23                 EPPR1   0
        22 002452   000000 701000 xent               TSX1    FETCHOS_6
        22 002453   005100 702000 22                 TSX2    ERROR

      527     2297    1       CALL FETCHNS_6('RC-RA   ') ALTRET(NXTRC0);

   2297 22 002454   000136 630400 23                 EPPR0   94
PL6.E3A0      #001=DBA_SUMMARY File=ZIG$DDE1.:ZIC0TSI                            FRI 09/05/97 11:43 Page:99
        22 002455   000000 631400 23                 EPPR1   0
        22 002456   000000 701000 xent               TSX1    FETCHNS_6
        22 002457   002515 702000 22                 TSX2    NXTRC0

      528     2298    1       CALL FETCHOS_6('AC-RA   ') ALTRET(ERROR);

   2298 22 002460   000117 630400 23                 EPPR0   79
        22 002461   000000 631400 23                 EPPR1   0
        22 002462   000000 701000 xent               TSX1    FETCHOS_6
        22 002463   005100 702000 22                 TSX2    ERROR

      529     2299    1       IF UWA.AC.PAGE_TYP = 3 THEN

   2299 22 002464   000237 235000 16                 LDA     UWA+159
        22 002465   000003 115007                    CMPA    3,DL
        22 002466   002515 600000 22                 TZE     NXTRC0

      530     2300    1           GOTO NXTRC0;
      531     2301    1       CALL FETCHOS_6('RC-SOSM ') ALTRET(ERROR);

   2301 22 002467   000163 630400 23                 EPPR0   115
        22 002470   000000 631400 23                 EPPR1   0
        22 002471   000000 701000 xent               TSX1    FETCHOS_6
        22 002472   005100 702000 22                 TSX2    ERROR

      532     2302    1       CALL FETCHNS_6('RC-SOSM ') ALTRET(NXTRC0);

   2302 22 002473   000163 630400 23                 EPPR0   115
        22 002474   000000 631400 23                 EPPR1   0
        22 002475   000000 701000 xent               TSX1    FETCHNS_6
        22 002476   002515 702000 22                 TSX2    NXTRC0

      533     2303    1       IF UWA.RECORD_NAME = 'SM' THEN

   2303 22 002477   040000 106400                    CMPC    fill='040'O
        22 002500   000023 000036 16                 ADSC9   UWA+19                   cn=0,n=30
        22 002501   001004 000002 21                 ADSC9   516                      cn=0,n=2
PL6.E3A0      #001=DBA_SUMMARY File=ZIG$DDE1.:ZIC0TSI                            FRI 09/05/97 11:43 Page:100
        22 002502   002514 601000 22                 TNZ     s:2309

      534     2304    2       DO;

      535     2305    2           CALL FETCHOS_6('SC-SOSM ') ALTRET(ERROR);

   2305 22 002503   000164 630400 23                 EPPR0   116
        22 002504   000000 631400 23                 EPPR1   0
        22 002505   000000 701000 xent               TSX1    FETCHOS_6
        22 002506   005100 702000 22                 TSX2    ERROR

      536     2306    2           IF UWA.SC.SETTYPE = 2 OR UWA.SC.SETTYPE = 3 THEN

   2306 22 002507   000310 235000 16                 LDA     UWA+200
        22 002510   000002 115007                    CMPA    2,DL
        22 002511   002544 600000 22                 TZE     NXTSC
        22 002512   000003 115007                    CMPA    3,DL
        22 002513   002544 600000 22                 TZE     NXTSC

      537     2307    2               GOTO NXTSC;
      538     2308    2           END;

      539     2309    1       GOTO NXTRC1;

   2309 22 002514   002534 710000 22                 TRA     NXTRC1

      540     2310    1   NXTRC0:
      541     2311    1       O_L = 'NO SET POINTERS...';

   2311 22 002515   040000 100400       NXTRC0       MLR     fill='040'O
        22 002516   001007 000022 21                 ADSC9   519                      cn=0,n=18
        22 002517   000037 000200 17                 ADSC9   O_L                      cn=0,n=128

      542     2312    1       CALL PRNT(O_L,2,0);

   2312 22 002520   000052 630400 23                 EPPR0   42
        22 002521   000005 631400 23                 EPPR1   5
PL6.E3A0      #001=DBA_SUMMARY File=ZIG$DDE1.:ZIC0TSI                            FRI 09/05/97 11:43 Page:101
        22 002522   000000 701000 xent               TSX1    PRNT
        22 002523   000000 011000                    NOP     0

      543     2313    1       O_L = ' ';

   2313 22 002524   040000 100400                    MLR     fill='040'O
        22 002525   000031 000001 23                 ADSC9   25                       cn=0,n=1
        22 002526   000037 000200 17                 ADSC9   O_L                      cn=0,n=128

      544     2314    1       CALL PRNT(O_L, 1, 0);

   2314 22 002527   000010 630400 23                 EPPR0   8
        22 002530   000005 631400 23                 EPPR1   5
        22 002531   000000 701000 xent               TSX1    PRNT
        22 002532   000000 011000                    NOP     0

      545     2315    1       GOTO DOFLDS;

   2315 22 002533   003147 710000 22                 TRA     DOFLDS

      546     2316    1   NXTRC1:
      547     2317    1       CALL FETCHOS_6('RC-SOSM ') ALTRET(ERROR);

   2317 22 002534   000163 630400 23    NXTRC1       EPPR0   115
        22 002535   000000 631400 23                 EPPR1   0
        22 002536   000000 701000 xent               TSX1    FETCHOS_6
        22 002537   005100 702000 22                 TSX2    ERROR

      548     2318    1       CALL FETCHOS_6('SC-SOSM ') ALTRET(ERROR);

   2318 22 002540   000164 630400 23                 EPPR0   116
        22 002541   000000 631400 23                 EPPR1   0
        22 002542   000000 701000 xent               TSX1    FETCHOS_6
        22 002543   005100 702000 22                 TSX2    ERROR

      549     2319    1   NXTSC:
      550     2320    1       CALL FETCHNS_6('RC-SOSM ') ALTRET(DOFLDS);
PL6.E3A0      #001=DBA_SUMMARY File=ZIG$DDE1.:ZIC0TSI                            FRI 09/05/97 11:43 Page:102

   2320 22 002544   000163 630400 23    NXTSC        EPPR0   115
        22 002545   000000 631400 23                 EPPR1   0
        22 002546   000000 701000 xent               TSX1    FETCHNS_6
        22 002547   003147 702000 22                 TSX2    DOFLDS

      551     2321    1       REC_NAME = UWA.RECORD_NAME;

   2321 22 002550   040100 100400                    MLR     fill='040'O
        22 002551   000023 000036 16                 ADSC9   UWA+19                   cn=0,n=30
        22 002552   200057 000036                    ADSC9   REC_NAME,,AUTO           cn=0,n=30

      552     2322    1       CALL FETCHOS_6('SC-SOSM ') ALTRET(ERROR);

   2322 22 002553   000164 630400 23                 EPPR0   116
        22 002554   000000 631400 23                 EPPR1   0
        22 002555   000000 701000 xent               TSX1    FETCHOS_6
        22 002556   005100 702000 22                 TSX2    ERROR

      553     2323         /* Check if index record and ignore key sm's */
      554     2324    1       IF UWA.SC.SETTYPE = 2 OR UWA.SC.SETTYPE = 3 THEN

   2324 22 002557   000310 235000 16                 LDA     UWA+200
        22 002560   000002 115007                    CMPA    2,DL
        22 002561   002544 600000 22                 TZE     NXTSC
        22 002562   000003 115007                    CMPA    3,DL
        22 002563   002544 600000 22                 TZE     NXTSC

      555     2325    1           GOTO NXTSC;
      556     2326    1       CALL FETCHOS_6('SN-SE   ') ALTRET(ERROR);

   2326 22 002564   000137 630400 23                 EPPR0   95
        22 002565   000000 631400 23                 EPPR1   0
        22 002566   000000 701000 xent               TSX1    FETCHOS_6
        22 002567   005100 702000 22                 TSX2    ERROR

      557     2327    1       C30 = UWA.SN.SENAME;
PL6.E3A0      #001=DBA_SUMMARY File=ZIG$DDE1.:ZIC0TSI                            FRI 09/05/97 11:43 Page:103

   2327 22 002570   040000 100400                    MLR     fill='040'O
        22 002571   000427 000036 16                 ADSC9   UWA+279                  cn=0,n=30
        22 002572   000027 000036 17                 ADSC9   C30                      cn=0,n=30

      558     2328    1       IF REC_NAME = 'SO' THEN

   2328 22 002573   040000 106500                    CMPC    fill='040'O
        22 002574   200057 000036                    ADSC9   REC_NAME,,AUTO           cn=0,n=30
        22 002575   001014 000002 21                 ADSC9   524                      cn=0,n=2
        22 002576   002745 601000 22                 TNZ     s:2354

      559     2329    2       DO;

      560     2330         /* Record is owner of this set */
      561     2331    2           PE = ADDR(UWA.SO.NXTPNT);

   2331 22 002577   000165 236000 23                 LDQ     117
        22 002600   200052 756100                    STQ     PE,,AUTO

      562     2332    2           CALL OFFS;

   2332 22 002601   004266 701000 22                 TSX1    OFFS
        22 002602   000000 011000                    NOP     0

      563     2333    2           CALL SIZE;

   2333 22 002603   004463 701000 22                 TSX1    SIZE
        22 002604   000000 011000                    NOP     0

      564     2334    2           IF UWA.SC.SETMODE = 2 THEN

   2334 22 002605   000311 235000 16                 LDA     UWA+201
        22 002606   000002 115007                    CMPA    2,DL
        22 002607   002653 601000 22                 TNZ     s:2340

      565     2335    2               IF UWA.SC.SETGLO = 1 THEN
PL6.E3A0      #001=DBA_SUMMARY File=ZIG$DDE1.:ZIC0TSI                            FRI 09/05/97 11:43 Page:104

   2335 22 002610   000313 236000 16                 LDQ     UWA+203
        22 002611   000001 116007                    CMPQ    1,DL
        22 002612   002633 601000 22                 TNZ     s:2338

      566     2336    2                   CALL CONCAT(O_L,C30,'    NEXT    ',C18,C14,
              2336                            '                          GLOBAL POINTERS (PNTR ARRAY)');

   2336 22 002613   040000 100400                    MLR     fill='040'O
        22 002614   000027 000036 17                 ADSC9   C30                      cn=0,n=30
        22 002615   000037 000036 17                 ADSC9   O_L                      cn=0,n=30
        22 002616   040000 100400                    MLR     fill='040'O
        22 002617   001015 000014 21                 ADSC9   525                      cn=0,n=12
        22 002620   000046 400014 17                 ADSC9   O_L+7                    cn=2,n=12
        22 002621   040000 100500                    MLR     fill='040'O
        22 002622   200027 000022                    ADSC9   C18,,AUTO                cn=0,n=18
        22 002623   000051 400022 17                 ADSC9   O_L+10                   cn=2,n=18
        22 002624   040000 100500                    MLR     fill='040'O
        22 002625   200034 000016                    ADSC9   C14,,AUTO                cn=0,n=14
        22 002626   000056 000016 17                 ADSC9   O_L+15                   cn=0,n=14
        22 002627   040000 100400                    MLR     fill='040'O
        22 002630   001020 000066 21                 ADSC9   528                      cn=0,n=54
        22 002631   000061 400066 17                 ADSC9   O_L+18                   cn=2,n=54
        22 002632   002715 710000 22                 TRA     s:2344

      567     2337    2               ELSE
      568     2338    2                   CALL CONCAT(O_L,C30,'    NEXT    ',C18,C14,
              2338                            '                          LOCAL POINTERS (PNTR ARRAY)');

   2338 22 002633   040000 100400                    MLR     fill='040'O
        22 002634   000027 000036 17                 ADSC9   C30                      cn=0,n=30
        22 002635   000037 000036 17                 ADSC9   O_L                      cn=0,n=30
        22 002636   040000 100400                    MLR     fill='040'O
        22 002637   001015 000014 21                 ADSC9   525                      cn=0,n=12
        22 002640   000046 400014 17                 ADSC9   O_L+7                    cn=2,n=12
        22 002641   040000 100500                    MLR     fill='040'O
        22 002642   200027 000022                    ADSC9   C18,,AUTO                cn=0,n=18
PL6.E3A0      #001=DBA_SUMMARY File=ZIG$DDE1.:ZIC0TSI                            FRI 09/05/97 11:43 Page:105
        22 002643   000051 400022 17                 ADSC9   O_L+10                   cn=2,n=18
        22 002644   040000 100500                    MLR     fill='040'O
        22 002645   200034 000016                    ADSC9   C14,,AUTO                cn=0,n=14
        22 002646   000056 000016 17                 ADSC9   O_L+15                   cn=0,n=14
        22 002647   040000 100400                    MLR     fill='040'O
        22 002650   001036 000065 21                 ADSC9   542                      cn=0,n=53
        22 002651   000061 400066 17                 ADSC9   O_L+18                   cn=2,n=54
        22 002652   002715 710000 22                 TRA     s:2344

      569     2339    2           ELSE
      570     2340    2               IF UWA.SC.SETGLO = 1 THEN

   2340 22 002653   000313 236000 16                 LDQ     UWA+203
        22 002654   000001 116007                    CMPQ    1,DL
        22 002655   002676 601000 22                 TNZ     s:2343

      571     2341    2                   CALL CONCAT(O_L,C30,'    NEXT    ',C18,C14,
              2341                            '                          GLOBAL POINTERS ');

   2341 22 002656   040000 100400                    MLR     fill='040'O
        22 002657   000027 000036 17                 ADSC9   C30                      cn=0,n=30
        22 002660   000037 000036 17                 ADSC9   O_L                      cn=0,n=30
        22 002661   040000 100400                    MLR     fill='040'O
        22 002662   001015 000014 21                 ADSC9   525                      cn=0,n=12
        22 002663   000046 400014 17                 ADSC9   O_L+7                    cn=2,n=12
        22 002664   040000 100500                    MLR     fill='040'O
        22 002665   200027 000022                    ADSC9   C18,,AUTO                cn=0,n=18
        22 002666   000051 400022 17                 ADSC9   O_L+10                   cn=2,n=18
        22 002667   040000 100500                    MLR     fill='040'O
        22 002670   200034 000016                    ADSC9   C14,,AUTO                cn=0,n=14
        22 002671   000056 000016 17                 ADSC9   O_L+15                   cn=0,n=14
        22 002672   040000 100400                    MLR     fill='040'O
        22 002673   001020 000052 21                 ADSC9   528                      cn=0,n=42
        22 002674   000061 400066 17                 ADSC9   O_L+18                   cn=2,n=54
        22 002675   002715 710000 22                 TRA     s:2344

      572     2342    2               ELSE
PL6.E3A0      #001=DBA_SUMMARY File=ZIG$DDE1.:ZIC0TSI                            FRI 09/05/97 11:43 Page:106
      573     2343    2                   CALL CONCAT(O_L,C30,'    NEXT    ',C18,C14,
              2343                            '                          LOCAL POINTERS ');

   2343 22 002676   040000 100400                    MLR     fill='040'O
        22 002677   000027 000036 17                 ADSC9   C30                      cn=0,n=30
        22 002700   000037 000036 17                 ADSC9   O_L                      cn=0,n=30
        22 002701   040000 100400                    MLR     fill='040'O
        22 002702   001015 000014 21                 ADSC9   525                      cn=0,n=12
        22 002703   000046 400014 17                 ADSC9   O_L+7                    cn=2,n=12
        22 002704   040000 100500                    MLR     fill='040'O
        22 002705   200027 000022                    ADSC9   C18,,AUTO                cn=0,n=18
        22 002706   000051 400022 17                 ADSC9   O_L+10                   cn=2,n=18
        22 002707   040000 100500                    MLR     fill='040'O
        22 002710   200034 000016                    ADSC9   C14,,AUTO                cn=0,n=14
        22 002711   000056 000016 17                 ADSC9   O_L+15                   cn=0,n=14
        22 002712   040000 100400                    MLR     fill='040'O
        22 002713   001036 000051 21                 ADSC9   542                      cn=0,n=41
        22 002714   000061 400066 17                 ADSC9   O_L+18                   cn=2,n=54

      574     2344    2           CALL PRNT(O_L, 2, 0);

   2344 22 002715   000052 630400 23                 EPPR0   42
        22 002716   000005 631400 23                 EPPR1   5
        22 002717   000000 701000 xent               TSX1    PRNT
        22 002720   000000 011000                    NOP     0

      575     2345    2           PE = ADDR(UWA.SO.PRIPNT);

   2345 22 002721   000166 236000 23                 LDQ     118
        22 002722   200052 756100                    STQ     PE,,AUTO

      576     2346    2           CALL OFFS;

   2346 22 002723   004266 701000 22                 TSX1    OFFS
        22 002724   000000 011000                    NOP     0

      577     2347    2           CALL SIZE;
PL6.E3A0      #001=DBA_SUMMARY File=ZIG$DDE1.:ZIC0TSI                            FRI 09/05/97 11:43 Page:107

   2347 22 002725   004463 701000 22                 TSX1    SIZE
        22 002726   000000 011000                    NOP     0

      578     2348    2           CALL CONCAT(O_L,'                                  PRIOR   ',C18,C14);

   2348 22 002727   040000 100400                    MLR     fill='040'O
        22 002730   001054 000052 21                 ADSC9   556                      cn=0,n=42
        22 002731   000037 000052 17                 ADSC9   O_L                      cn=0,n=42
        22 002732   040000 100500                    MLR     fill='040'O
        22 002733   200027 000022                    ADSC9   C18,,AUTO                cn=0,n=18
        22 002734   000051 400022 17                 ADSC9   O_L+10                   cn=2,n=18
        22 002735   040000 100500                    MLR     fill='040'O
        22 002736   200034 000016                    ADSC9   C14,,AUTO                cn=0,n=14
        22 002737   000056 000104 17                 ADSC9   O_L+15                   cn=0,n=68

      579     2349    2           CALL PRNT(O_L, 1, 0);

   2349 22 002740   000010 630400 23                 EPPR0   8
        22 002741   000005 631400 23                 EPPR1   5
        22 002742   000000 701000 xent               TSX1    PRNT
        22 002743   000000 011000                    NOP     0

      580     2350    2           END;

   2350 22 002744   003136 710000 22                 TRA     ENDSC

      581     2351    1       ELSE
      582     2352    2       DO;

      583     2353         /* Record is member of this set */
      584     2354    2           PE = ADDR(UWA.SM.NXTPNT);

   2354 22 002745   000167 236000 23                 LDQ     119
        22 002746   200052 756100                    STQ     PE,,AUTO

      585     2355    2           CALL OFFS;
PL6.E3A0      #001=DBA_SUMMARY File=ZIG$DDE1.:ZIC0TSI                            FRI 09/05/97 11:43 Page:108

   2355 22 002747   004266 701000 22                 TSX1    OFFS
        22 002750   000000 011000                    NOP     0

      586     2356    2           CALL SIZE;

   2356 22 002751   004463 701000 22                 TSX1    SIZE
        22 002752   000000 011000                    NOP     0

      587     2357    2           IF UWA.SC.SETMODE = 2 &

   2357 22 002753   400000 220003                    LDX0    -131072,DU
        22 002754   000311 235000 16                 LDA     UWA+201
        22 002755   000002 115007                    CMPA    2,DL
        22 002756   002760 600000 22                 TZE     s:2357+5
        22 002757   000000 220003                    LDX0    0,DU
        22 002760   400000 221003                    LDX1    -131072,DU
        22 002761   000365 236000 16                 LDQ     UWA+245
        22 002762   002764 600000 22                 TZE     s:2357+9
        22 002763   000000 221003                    LDX1    0,DU
        22 002764   000000 636011                    EAQ     0,X1
        22 002765   200126 756100                    STQ     C7V+3,,AUTO
        22 002766   000000 636010                    EAQ     0,X0
        22 002767   200126 376100                    ANQ     C7V+3,,AUTO
        22 002770   003006 600000 22                 TZE     s:2361

      588     2358    2              UWA.SM.PAMEM = 0 THEN
      589     2359    2               CALL CONCAT(O_L_74_54.A,C30,'    PA-HEAD ',C18,C14);

   2359 22 002771   040000 100400                    MLR     fill='040'O
        22 002772   000027 000036 17                 ADSC9   C30                      cn=0,n=30
        22 002773   000037 000036 17                 ADSC9   O_L                      cn=0,n=30
        22 002774   040000 100400                    MLR     fill='040'O
        22 002775   001067 000014 21                 ADSC9   567                      cn=0,n=12
        22 002776   000046 400014 17                 ADSC9   O_L+7                    cn=2,n=12
        22 002777   040000 100500                    MLR     fill='040'O
        22 003000   200027 000022                    ADSC9   C18,,AUTO                cn=0,n=18
PL6.E3A0      #001=DBA_SUMMARY File=ZIG$DDE1.:ZIC0TSI                            FRI 09/05/97 11:43 Page:109
        22 003001   000051 400022 17                 ADSC9   O_L+10                   cn=2,n=18
        22 003002   040000 100500                    MLR     fill='040'O
        22 003003   200034 000016                    ADSC9   C14,,AUTO                cn=0,n=14
        22 003004   000056 000016 17                 ADSC9   O_L+15                   cn=0,n=14
        22 003005   003022 710000 22                 TRA     s:2362

      590     2360    2           ELSE
      591     2361    2               CALL CONCAT(O_L_74_54.A,C30,'    NEXT    ',C18,C14);

   2361 22 003006   040000 100400                    MLR     fill='040'O
        22 003007   000027 000036 17                 ADSC9   C30                      cn=0,n=30
        22 003010   000037 000036 17                 ADSC9   O_L                      cn=0,n=30
        22 003011   040000 100400                    MLR     fill='040'O
        22 003012   001015 000014 21                 ADSC9   525                      cn=0,n=12
        22 003013   000046 400014 17                 ADSC9   O_L+7                    cn=2,n=12
        22 003014   040000 100500                    MLR     fill='040'O
        22 003015   200027 000022                    ADSC9   C18,,AUTO                cn=0,n=18
        22 003016   000051 400022 17                 ADSC9   O_L+10                   cn=2,n=18
        22 003017   040000 100500                    MLR     fill='040'O
        22 003020   200034 000016                    ADSC9   C14,,AUTO                cn=0,n=14
        22 003021   000056 000016 17                 ADSC9   O_L+15                   cn=0,n=14

      592     2362    2           IF UWA.SC.SETMODE = 2 AND UWA.SM.PAMEM = 0 THEN

   2362 22 003022   000311 235000 16                 LDA     UWA+201
        22 003023   000002 115007                    CMPA    2,DL
        22 003024   003042 601000 22                 TNZ     s:2368
        22 003025   000365 236000 16                 LDQ     UWA+245
        22 003026   003042 601000 22                 TNZ     s:2368

      593     2363    2               IF UWA.SC.SETGLO = 1 THEN

   2363 22 003027   000313 235000 16                 LDA     UWA+203
        22 003030   000001 115007                    CMPA    1,DL
        22 003031   003036 601000 22                 TNZ     s:2366

      594     2364    2                   O_L_74_54.B =
PL6.E3A0      #001=DBA_SUMMARY File=ZIG$DDE1.:ZIC0TSI                            FRI 09/05/97 11:43 Page:110
              2364                            '                          GLOBAL POINTERS (PNTR ARRAY)';

   2364 22 003032   040000 100400                    MLR     fill='040'O
        22 003033   001020 000066 21                 ADSC9   528                      cn=0,n=54
        22 003034   000061 400066 17                 ADSC9   O_L+18                   cn=2,n=54
        22 003035   003054 710000 22                 TRA     s:2372

      595     2365    2               ELSE
      596     2366    2                   O_L_74_54.B =
              2366                            '                          LOCAL POINTERS (PNTR ARRAY)';

   2366 22 003036   040000 100400                    MLR     fill='040'O
        22 003037   001036 000065 21                 ADSC9   542                      cn=0,n=53
        22 003040   000061 400066 17                 ADSC9   O_L+18                   cn=2,n=54
        22 003041   003054 710000 22                 TRA     s:2372

      597     2367    2           ELSE
      598     2368    2               IF UWA.SC.SETGLO = 1 THEN

   2368 22 003042   000313 236000 16                 LDQ     UWA+203
        22 003043   000001 116007                    CMPQ    1,DL
        22 003044   003051 601000 22                 TNZ     s:2371

      599     2369    2                   O_L_74_54.B = '                          GLOBAL POINTERS ';

   2369 22 003045   040000 100400                    MLR     fill='040'O
        22 003046   001020 000052 21                 ADSC9   528                      cn=0,n=42
        22 003047   000061 400066 17                 ADSC9   O_L+18                   cn=2,n=54
        22 003050   003054 710000 22                 TRA     s:2372

      600     2370    2               ELSE
      601     2371    2                   O_L_74_54.B = '                          LOCAL POINTERS ';

   2371 22 003051   040000 100400                    MLR     fill='040'O
        22 003052   001036 000051 21                 ADSC9   542                      cn=0,n=41
        22 003053   000061 400066 17                 ADSC9   O_L+18                   cn=2,n=54

PL6.E3A0      #001=DBA_SUMMARY File=ZIG$DDE1.:ZIC0TSI                            FRI 09/05/97 11:43 Page:111
      602     2372    2           CALL PRNT(O_L, 2, 0);

   2372 22 003054   000052 630400 23                 EPPR0   42
        22 003055   000005 631400 23                 EPPR1   5
        22 003056   000000 701000 xent               TSX1    PRNT
        22 003057   000000 011000                    NOP     0

      603     2373    2           IF UWA.SM.PRIPNT ~= 0 THEN /* No prior in pa set */

   2373 22 003060   000371 235000 16                 LDA     UWA+249
        22 003061   003105 600000 22                 TZE     s:2381

      604     2374    3           DO;

      605     2375    3               PE = ADDR(UWA.SM.PRIPNT);

   2375 22 003062   000170 236000 23                 LDQ     120
        22 003063   200052 756100                    STQ     PE,,AUTO

      606     2376    3               CALL OFFS;

   2376 22 003064   004266 701000 22                 TSX1    OFFS
        22 003065   000000 011000                    NOP     0

      607     2377    3               CALL SIZE;

   2377 22 003066   004463 701000 22                 TSX1    SIZE
        22 003067   000000 011000                    NOP     0

      608     2378    3               CALL CONCAT(O_L,'                                  PRIOR   ',C18,C14);

   2378 22 003070   040000 100400                    MLR     fill='040'O
        22 003071   001054 000052 21                 ADSC9   556                      cn=0,n=42
        22 003072   000037 000052 17                 ADSC9   O_L                      cn=0,n=42
        22 003073   040000 100500                    MLR     fill='040'O
        22 003074   200027 000022                    ADSC9   C18,,AUTO                cn=0,n=18
        22 003075   000051 400022 17                 ADSC9   O_L+10                   cn=2,n=18
PL6.E3A0      #001=DBA_SUMMARY File=ZIG$DDE1.:ZIC0TSI                            FRI 09/05/97 11:43 Page:112
        22 003076   040000 100500                    MLR     fill='040'O
        22 003077   200034 000016                    ADSC9   C14,,AUTO                cn=0,n=14
        22 003100   000056 000104 17                 ADSC9   O_L+15                   cn=0,n=68

      609     2379    3               CALL PRNT(O_L, 1, 0);

   2379 22 003101   000010 630400 23                 EPPR0   8
        22 003102   000005 631400 23                 EPPR1   5
        22 003103   000000 701000 xent               TSX1    PRNT
        22 003104   000000 011000                    NOP     0

      610     2380    3               END;

      611     2381    2           IF UWA.SN.SENAME = '*CALC' THEN

   2381 22 003105   040000 106400                    CMPC    fill='040'O
        22 003106   000427 000036 16                 ADSC9   UWA+279                  cn=0,n=30
        22 003107   001072 000005 21                 ADSC9   570                      cn=0,n=5
        22 003110   003136 600000 22                 TZE     ENDSC

      612     2382    2               GOTO ENDSC;
      613     2383    2           PE = ADDR(UWA.SM.HDPNT);

   2383 22 003111   000171 236000 23                 LDQ     121
        22 003112   200052 756100                    STQ     PE,,AUTO

      614     2384    2           CALL OFFS;

   2384 22 003113   004266 701000 22                 TSX1    OFFS
        22 003114   000000 011000                    NOP     0

      615     2385    2           CALL SIZE;

   2385 22 003115   004463 701000 22                 TSX1    SIZE
        22 003116   000000 011000                    NOP     0

      616     2386    2           CALL CONCAT(O_L,'                                  HEAD    ',C18,C14);
PL6.E3A0      #001=DBA_SUMMARY File=ZIG$DDE1.:ZIC0TSI                            FRI 09/05/97 11:43 Page:113

   2386 22 003117   040000 100400                    MLR     fill='040'O
        22 003120   001074 000052 21                 ADSC9   572                      cn=0,n=42
        22 003121   000037 000052 17                 ADSC9   O_L                      cn=0,n=42
        22 003122   040000 100500                    MLR     fill='040'O
        22 003123   200027 000022                    ADSC9   C18,,AUTO                cn=0,n=18
        22 003124   000051 400022 17                 ADSC9   O_L+10                   cn=2,n=18
        22 003125   040000 100500                    MLR     fill='040'O
        22 003126   200034 000016                    ADSC9   C14,,AUTO                cn=0,n=14
        22 003127   000056 000104 17                 ADSC9   O_L+15                   cn=0,n=68

      617     2387    2           CALL PRNT(O_L, 1, 0);

   2387 22 003130   000010 630400 23                 EPPR0   8
        22 003131   000005 631400 23                 EPPR1   5
        22 003132   000000 701000 xent               TSX1    PRNT
        22 003133   000000 011000                    NOP     0

      618     2388    2           IF UWA.SM.PA_MEMPNT ~= 0 THEN

   2388 22 003134   000373 235000 16                 LDA     UWA+251
        22 003135   003147 601000 22                 TNZ     DOFLDS

      619     2389    2               GOTO DOFLDS; /* Ignore other sm's */
      620     2390    2           END;

      621     2391    1   ENDSC:
      622     2392    1       IF LSTEIS < PE -> B36 THEN

   2392 22 003136   200052 470500       ENDSC        LDP0    PE,,AUTO
        22 003137   000100 066400                    CMPB    filb='0'B
        22 003140   000156 000044 17                 BDSC    LSTEIS                   by=0,bit=0,n=36
        22 003141   000000 000044                    BDSC    0,,PR0                   by=0,bit=0,n=36
        22 003142   003146 603000 22                 TRC     s:2394

      623     2393    1           LSTEIS = PE -> B36;

PL6.E3A0      #001=DBA_SUMMARY File=ZIG$DDE1.:ZIC0TSI                            FRI 09/05/97 11:43 Page:114
   2393 22 003143   003000 060500                    CSL     bolr='003'O
        22 003144   000000 000044                    BDSC    0,,PR0                   by=0,bit=0,n=36
        22 003145   000156 000044 17                 BDSC    LSTEIS                   by=0,bit=0,n=36

      624     2394    1       GOTO NXTSC;

   2394 22 003146   002544 710000 22                 TRA     NXTSC

      625     2395    1   DOFLDS:
      626     2396    2       IF UWA.RC.PSMODE ~= 5 THEN DO;

   2396 22 003147   000271 235000 16    DOFLDS       LDA     UWA+185
        22 003150   000005 115007                    CMPA    5,DL
        22 003151   003162 600000 22                 TZE     s:2402

      627     2397    2           O_L = '   *** DATA FIELDS ***';

   2397 22 003152   040000 100400                    MLR     fill='040'O
        22 003153   001107 000026 21                 ADSC9   583                      cn=0,n=22
        22 003154   000037 000200 17                 ADSC9   O_L                      cn=0,n=128

      628     2398    2           CALL PRNT(O_L,1,0);

   2398 22 003155   000010 630400 23                 EPPR0   8
        22 003156   000005 631400 23                 EPPR1   5
        22 003157   000000 701000 xent               TSX1    PRNT
        22 003160   000000 011000                    NOP     0

      629     2399    2           END;

   2399 22 003161   003404 710000 22                 TRA     s:2434

      630     2400    1       ELSE
      631     2401    2       DO;

      632     2402    2           CALL FCURR_R_6('RC  ') ALTRET(ERROR);

PL6.E3A0      #001=DBA_SUMMARY File=ZIG$DDE1.:ZIC0TSI                            FRI 09/05/97 11:43 Page:115
   2402 22 003162   000172 630400 23                 EPPR0   122
        22 003163   000000 631400 23                 EPPR1   0
        22 003164   000000 701000 xent               TSX1    FCURR_R_6
        22 003165   005100 702000 22                 TSX2    ERROR

      633     2403    2           CALL FETCHNS_6('RC-SOSM ') ALTRET(NXTRC);

   2403 22 003166   000163 630400 23                 EPPR0   115
        22 003167   000000 631400 23                 EPPR1   0
        22 003170   000000 701000 xent               TSX1    FETCHNS_6
        22 003171   001774 702000 22                 TSX2    NXTRC

      634     2404    2           DBKSM = UWA.DIRECT_REF;

   2404 22 003172   000036 235000 16                 LDA     UWA+30
        22 003173   200007 755100                    STA     DBKSM,,AUTO

      635     2405    2           CALL FETCHPS_6('SC-SOSM ') ALTRET(ERROR);

   2405 22 003174   000164 630400 23                 EPPR0   116
        22 003175   000000 631400 23                 EPPR1   0
        22 003176   000000 701000 xent               TSX1    FETCHPS_6
        22 003177   005100 702000 22                 TSX2    ERROR

      636     2406    2           CALL FETCHOS_6('RC-SOSM ') ALTRET(ERROR);

   2406 22 003200   000163 630400 23                 EPPR0   115
        22 003201   000000 631400 23                 EPPR1   0
        22 003202   000000 701000 xent               TSX1    FETCHOS_6
        22 003203   005100 702000 22                 TSX2    ERROR

      637     2407    2           CALL FETCHOS_6('SN-SE   ') ALTRET(ERROR);

   2407 22 003204   000137 630400 23                 EPPR0   95
        22 003205   000000 631400 23                 EPPR1   0
        22 003206   000000 701000 xent               TSX1    FETCHOS_6
        22 003207   005100 702000 22                 TSX2    ERROR
PL6.E3A0      #001=DBA_SUMMARY File=ZIG$DDE1.:ZIC0TSI                            FRI 09/05/97 11:43 Page:116

      638     2408    2           CALL SET_FIELDS(1,30,UWA.SN.SENAME);

   2408 22 003210   000040 630400 23                 EPPR0   32
        22 003211   000005 631400 23                 EPPR1   5
        22 003212   000000 701000 xent               TSX1    SET_FIELDS
        22 003213   000000 011000                    NOP     0

      639     2409    2          CALL CONCAT(O_L,'PA-ENTRY FORMAT FOR MEMBER "',SUBSTR(FIELD1.TEXT1,0,FIELD1.
              2409                    COUNT1),'" ***');

   2409 22 003214   000000 236000 18                 LDQ     FIELD1
        22 003215   000033 772000                    QRL     27
        22 003216   040000 100400                    MLR     fill='040'O
        22 003217   001116 000034 21                 ADSC9   590                      cn=0,n=28
        22 003220   000037 000034 17                 ADSC9   O_L                      cn=0,n=28
        22 003221   000000 620006                    EAX0    0,QL
        22 003222   040000 100440                    MLR     fill='040'O
        22 003223   000000 200010 18                 ADSC9   FIELD1                   cn=1,n=*X0
        22 003224   000046 000144 17                 ADSC9   O_L+7                    cn=0,n=100
        22 003225   000144 116007                    CMPQ    100,DL
        22 003226   003234 603000 22                 TRC     s:2410
        22 003227   777633 620006                    EAX0    -101,QL
        22 003230   777777 660003                    ERX0    -1,DU
        22 003231   040046 100400                    MLR     fill='040'O
        22 003232   001125 000005 21                 ADSC9   597                      cn=0,n=5
        22 003233   000046 000010 17                 ADSC9   O_L+7,Q                  cn=0,n=*X0

      640     2410    2           CALL PRNT(O_L,4,0);

   2410 22 003234   000102 630400 23                 EPPR0   66
        22 003235   000005 631400 23                 EPPR1   5
        22 003236   000000 701000 xent               TSX1    PRNT
        22 003237   000000 011000                    NOP     0

      641     2411         /* Reset curr for rc-sosm */
      642     2412    2           CALL FETCHD_6('SM  ',DBKSM) ALTRET(ERROR);
PL6.E3A0      #001=DBA_SUMMARY File=ZIG$DDE1.:ZIC0TSI                            FRI 09/05/97 11:43 Page:117

   2412 22 003240   200007 630500                    EPPR0   DBKSM,,AUTO
        22 003241   200127 450500                    STP0    C7V+4,,AUTO
        22 003242   000173 236000 23                 LDQ     123
        22 003243   200126 756100                    STQ     C7V+3,,AUTO
        22 003244   200126 630500                    EPPR0   C7V+3,,AUTO
        22 003245   000013 631400 23                 EPPR1   11
        22 003246   000000 701000 xent               TSX1    FETCHD_6
        22 003247   005100 702000 22                 TSX2    ERROR

      643     2413         /* Reset currency for rc-fr */
      644     2414    2           CALL FETCHOS_6('RC-SOSM ') ALTRET(ERROR);

   2414 22 003250   000174 630400 23                 EPPR0   124
        22 003251   000000 631400 23                 EPPR1   0
        22 003252   000000 701000 xent               TSX1    FETCHOS_6
        22 003253   005100 702000 22                 TSX2    ERROR

      645     2415         /* Prev statement chnged rc-sosm so repeat */
      646     2416    2           CALL FETCHD_6('SM  ',DBKSM) ALTRET(ERROR);

   2416 22 003254   200007 630500                    EPPR0   DBKSM,,AUTO
        22 003255   200127 450500                    STP0    C7V+4,,AUTO
        22 003256   000173 236000 23                 LDQ     123
        22 003257   200126 756100                    STQ     C7V+3,,AUTO
        22 003260   200126 630500                    EPPR0   C7V+3,,AUTO
        22 003261   000013 631400 23                 EPPR1   11
        22 003262   000000 701000 xent               TSX1    FETCHD_6
        22 003263   005100 702000 22                 TSX2    ERROR

      647     2417    2           CALL SET_FIELD_NUM(1,UWA.RC.PA_ENTRY);

   2417 22 003264   000175 630400 23                 EPPR0   125
        22 003265   000013 631400 23                 EPPR1   11
        22 003266   000000 701000 xent               TSX1    SET_FIELD_NUM
        22 003267   000000 011000                    NOP     0

PL6.E3A0      #001=DBA_SUMMARY File=ZIG$DDE1.:ZIC0TSI                            FRI 09/05/97 11:43 Page:118
      648     2418    2           CALL CONCAT(O_L,'PA-ENTRY SIZE IS ',SUBSTR(FIELD1.TEXT1,0,FIELD1.COUNT1),
              2418                    ' BYTES.');

   2418 22 003270   000000 236000 18                 LDQ     FIELD1
        22 003271   000033 772000                    QRL     27
        22 003272   040000 100400                    MLR     fill='040'O
        22 003273   001132 000021 21                 ADSC9   602                      cn=0,n=17
        22 003274   000037 000021 17                 ADSC9   O_L                      cn=0,n=17
        22 003275   000000 620006                    EAX0    0,QL
        22 003276   040000 100440                    MLR     fill='040'O
        22 003277   000000 200010 18                 ADSC9   FIELD1                   cn=1,n=*X0
        22 003300   000043 200157 17                 ADSC9   O_L+4                    cn=1,n=111
        22 003301   000157 116007                    CMPQ    111,DL
        22 003302   003310 603000 22                 TRC     s:2419
        22 003303   777620 620006                    EAX0    -112,QL
        22 003304   777777 660003                    ERX0    -1,DU
        22 003305   040046 100400                    MLR     fill='040'O
        22 003306   001137 000007 21                 ADSC9   607                      cn=0,n=7
        22 003307   000043 200010 17                 ADSC9   O_L+4,Q                  cn=1,n=*X0

      649     2419    2           CALL PRNT(O_L,1,3);

   2419 22 003310   000043 630400 23                 EPPR0   35
        22 003311   000005 631400 23                 EPPR1   5
        22 003312   000000 701000 xent               TSX1    PRNT
        22 003313   000000 011000                    NOP     0

      650     2420    2           O_L = 'ECW          0     0    0         2    0';

   2420 22 003314   040000 100400                    MLR     fill='040'O
        22 003315   001141 000050 21                 ADSC9   609                      cn=0,n=40
        22 003316   000037 000200 17                 ADSC9   O_L                      cn=0,n=128

      651     2421    2           CALL PRNT(O_L, 1, 34);

   2421 22 003317   000177 630400 23                 EPPR0   127
        22 003320   000005 631400 23                 EPPR1   5
PL6.E3A0      #001=DBA_SUMMARY File=ZIG$DDE1.:ZIC0TSI                            FRI 09/05/97 11:43 Page:119
        22 003321   000000 701000 xent               TSX1    PRNT
        22 003322   000000 011000                    NOP     0

      652     2422    2           PE = ADDR(UWA.SM.PA_MEMPNT);

   2422 22 003323   000202 236000 23                 LDQ     130
        22 003324   200052 756100                    STQ     PE,,AUTO

      653     2423    2           LSTEIS = PE->B36;

   2423 22 003325   200052 470500                    LDP0    PE,,AUTO
        22 003326   003000 060500                    CSL     bolr='003'O
        22 003327   000000 000044                    BDSC    0,,PR0                   by=0,bit=0,n=36
        22 003330   000156 000044 17                 BDSC    LSTEIS                   by=0,bit=0,n=36

      654     2424    2           CALL OFFS;

   2424 22 003331   004266 701000 22                 TSX1    OFFS
        22 003332   000000 011000                    NOP     0

      655     2425    2           CALL SIZE;

   2425 22 003333   004463 701000 22                 TSX1    SIZE
        22 003334   000000 011000                    NOP     0

      656     2426    2           IF UWA.SC.SETGLO = 1 THEN

   2426 22 003335   000313 235000 16                 LDA     UWA+203
        22 003336   000001 115007                    CMPA    1,DL
        22 003337   003355 601000 22                 TNZ     s:2429

      657     2427    2               CALL CONCAT(O_L,'                                  MEMBER  ',C18,C14,
              2427                        '                          GLOBAL POINTER');

   2427 22 003340   040000 100400                    MLR     fill='040'O
        22 003341   001153 000052 21                 ADSC9   619                      cn=0,n=42
        22 003342   000037 000052 17                 ADSC9   O_L                      cn=0,n=42
PL6.E3A0      #001=DBA_SUMMARY File=ZIG$DDE1.:ZIC0TSI                            FRI 09/05/97 11:43 Page:120
        22 003343   040000 100500                    MLR     fill='040'O
        22 003344   200027 000022                    ADSC9   C18,,AUTO                cn=0,n=18
        22 003345   000051 400022 17                 ADSC9   O_L+10                   cn=2,n=18
        22 003346   040000 100500                    MLR     fill='040'O
        22 003347   200034 000016                    ADSC9   C14,,AUTO                cn=0,n=14
        22 003350   000056 000016 17                 ADSC9   O_L+15                   cn=0,n=14
        22 003351   040000 100400                    MLR     fill='040'O
        22 003352   001166 000050 21                 ADSC9   630                      cn=0,n=40
        22 003353   000061 400066 17                 ADSC9   O_L+18                   cn=2,n=54
        22 003354   003371 710000 22                 TRA     s:2430

      658     2428    2           ELSE
      659     2429    2               CALL CONCAT(O_L,'                                  MEMBER  ',C18,C14,
              2429                        '                          LOCAL POINTER');

   2429 22 003355   040000 100400                    MLR     fill='040'O
        22 003356   001153 000052 21                 ADSC9   619                      cn=0,n=42
        22 003357   000037 000052 17                 ADSC9   O_L                      cn=0,n=42
        22 003360   040000 100500                    MLR     fill='040'O
        22 003361   200027 000022                    ADSC9   C18,,AUTO                cn=0,n=18
        22 003362   000051 400022 17                 ADSC9   O_L+10                   cn=2,n=18
        22 003363   040000 100500                    MLR     fill='040'O
        22 003364   200034 000016                    ADSC9   C14,,AUTO                cn=0,n=14
        22 003365   000056 000016 17                 ADSC9   O_L+15                   cn=0,n=14
        22 003366   040000 100400                    MLR     fill='040'O
        22 003367   001200 000047 21                 ADSC9   640                      cn=0,n=39
        22 003370   000061 400066 17                 ADSC9   O_L+18                   cn=2,n=54

      660     2430    2           CALL PRNT(O_L,1,0);

   2430 22 003371   000010 630400 23                 EPPR0   8
        22 003372   000005 631400 23                 EPPR1   5
        22 003373   000000 701000 xent               TSX1    PRNT
        22 003374   000000 011000                    NOP     0

      661     2431    2           O_L = ' *** SEQUENCE KEY FIELDS ***';

PL6.E3A0      #001=DBA_SUMMARY File=ZIG$DDE1.:ZIC0TSI                            FRI 09/05/97 11:43 Page:121
   2431 22 003375   040000 100400                    MLR     fill='040'O
        22 003376   001212 000034 21                 ADSC9   650                      cn=0,n=28
        22 003377   000037 000200 17                 ADSC9   O_L                      cn=0,n=128

      662     2432    2           CALL PRNT(O_L,1,3);

   2432 22 003400   000043 630400 23                 EPPR0   35
        22 003401   000005 631400 23                 EPPR1   5
        22 003402   000000 701000 xent               TSX1    PRNT
        22 003403   000000 011000                    NOP     0

      663     2433    2           END;

      664     2434    1       CALL FETCHOS_6('RC-FR   ') ALTRET(ERROR);

   2434 22 003404   000203 630400 23                 EPPR0   131
        22 003405   000000 631400 23                 EPPR1   0
        22 003406   000000 701000 xent               TSX1    FETCHOS_6
        22 003407   005100 702000 22                 TSX2    ERROR

      665     2435    1       CALL FETCHNS_6('RC-FR   ') ALTRET(DOFLDS1);

   2435 22 003410   000203 630400 23                 EPPR0   131
        22 003411   000000 631400 23                 EPPR1   0
        22 003412   000000 701000 xent               TSX1    FETCHNS_6
        22 003413   003415 702000 22                 TSX2    DOFLDS1

      666     2436    1       GOTO DOFLDS2;

   2436 22 003414   003643 710000 22                 TRA     DOFLDS2

      667     2437    1   DOFLDS1:
      668     2438    1       O_L = 'NO USER DATA FIELDS...';

   2438 22 003415   040000 100400       DOFLDS1      MLR     fill='040'O
        22 003416   001223 000026 21                 ADSC9   659                      cn=0,n=22
        22 003417   000037 000200 17                 ADSC9   O_L                      cn=0,n=128
PL6.E3A0      #001=DBA_SUMMARY File=ZIG$DDE1.:ZIC0TSI                            FRI 09/05/97 11:43 Page:122

      669     2439    1       CALL PRNT(O_L,1,0);

   2439 22 003420   000010 630400 23                 EPPR0   8
        22 003421   000005 631400 23                 EPPR1   5
        22 003422   000000 701000 xent               TSX1    PRNT
        22 003423   000000 011000                    NOP     0

      670     2440    1       GOTO NXTRC;

   2440 22 003424   001774 710000 22                 TRA     NXTRC

      671     2441    1   NXTPASM:
      672     2442    1       CALL FETCHD_6('SM  ',DBKSM) ALTRET(ERROR);

   2442 22 003425   200007 630500       NXTPASM      EPPR0   DBKSM,,AUTO
        22 003426   200127 450500                    STP0    C7V+4,,AUTO
        22 003427   000173 236000 23                 LDQ     123
        22 003430   200126 756100                    STQ     C7V+3,,AUTO
        22 003431   200126 630500                    EPPR0   C7V+3,,AUTO
        22 003432   000013 631400 23                 EPPR1   11
        22 003433   000000 701000 xent               TSX1    FETCHD_6
        22 003434   005100 702000 22                 TSX2    ERROR

      673     2443    1       CALL FETCHNS_6('RC-SOSM ') ALTRET(NXTRC);

   2443 22 003435   000174 630400 23                 EPPR0   124
        22 003436   000000 631400 23                 EPPR1   0
        22 003437   000000 701000 xent               TSX1    FETCHNS_6
        22 003440   001774 702000 22                 TSX2    NXTRC

      674     2444    1       DBKSM = UWA.DIRECT_REF;

   2444 22 003441   000036 235000 16                 LDA     UWA+30
        22 003442   200007 755100                    STA     DBKSM,,AUTO

      675     2445    1       CALL FETCHPS_6('SC-SOSM ') ALTRET(ERROR);
PL6.E3A0      #001=DBA_SUMMARY File=ZIG$DDE1.:ZIC0TSI                            FRI 09/05/97 11:43 Page:123

   2445 22 003443   000204 630400 23                 EPPR0   132
        22 003444   000000 631400 23                 EPPR1   0
        22 003445   000000 701000 xent               TSX1    FETCHPS_6
        22 003446   005100 702000 22                 TSX2    ERROR

      676     2446    1       CALL FETCHOS_6('RC-SOSM ') ALTRET(ERROR);

   2446 22 003447   000174 630400 23                 EPPR0   124
        22 003450   000000 631400 23                 EPPR1   0
        22 003451   000000 701000 xent               TSX1    FETCHOS_6
        22 003452   005100 702000 22                 TSX2    ERROR

      677     2447    1       CALL FETCHOS_6('SN-SE   ') ALTRET(ERROR);

   2447 22 003453   000205 630400 23                 EPPR0   133
        22 003454   000000 631400 23                 EPPR1   0
        22 003455   000000 701000 xent               TSX1    FETCHOS_6
        22 003456   005100 702000 22                 TSX2    ERROR

      678     2448    1       CALL SET_FIELDS(1,30,UWA.SN.SENAME);

   2448 22 003457   000040 630400 23                 EPPR0   32
        22 003460   000005 631400 23                 EPPR1   5
        22 003461   000000 701000 xent               TSX1    SET_FIELDS
        22 003462   000000 011000                    NOP     0

      679     2449    1       CALL CONCAT(O_L,'PA-ENTRY FORMAT FOR MEMBER "',SUBSTR(FIELD1.TEXT1,0,FIELD1.
              2449                COUNT1),'" ***');

   2449 22 003463   000000 236000 18                 LDQ     FIELD1
        22 003464   000033 772000                    QRL     27
        22 003465   040000 100400                    MLR     fill='040'O
        22 003466   001116 000034 21                 ADSC9   590                      cn=0,n=28
        22 003467   000037 000034 17                 ADSC9   O_L                      cn=0,n=28
        22 003470   000000 620006                    EAX0    0,QL
        22 003471   040000 100440                    MLR     fill='040'O
PL6.E3A0      #001=DBA_SUMMARY File=ZIG$DDE1.:ZIC0TSI                            FRI 09/05/97 11:43 Page:124
        22 003472   000000 200010 18                 ADSC9   FIELD1                   cn=1,n=*X0
        22 003473   000046 000144 17                 ADSC9   O_L+7                    cn=0,n=100
        22 003474   000144 116007                    CMPQ    100,DL
        22 003475   003503 603000 22                 TRC     s:2450
        22 003476   777633 620006                    EAX0    -101,QL
        22 003477   777777 660003                    ERX0    -1,DU
        22 003500   040046 100400                    MLR     fill='040'O
        22 003501   001125 000005 21                 ADSC9   597                      cn=0,n=5
        22 003502   000046 000010 17                 ADSC9   O_L+7,Q                  cn=0,n=*X0

      680     2450    1       CALL PRNT(O_L,4,0);

   2450 22 003503   000102 630400 23                 EPPR0   66
        22 003504   000005 631400 23                 EPPR1   5
        22 003505   000000 701000 xent               TSX1    PRNT
        22 003506   000000 011000                    NOP     0

      681     2451         /* Reset curr for rc-sosm */
      682     2452    1       CALL FETCHD_6('SM  ',DBKSM) ALTRET(ERROR);

   2452 22 003507   200007 630500                    EPPR0   DBKSM,,AUTO
        22 003510   200127 450500                    STP0    C7V+4,,AUTO
        22 003511   000173 236000 23                 LDQ     123
        22 003512   200126 756100                    STQ     C7V+3,,AUTO
        22 003513   200126 630500                    EPPR0   C7V+3,,AUTO
        22 003514   000013 631400 23                 EPPR1   11
        22 003515   000000 701000 xent               TSX1    FETCHD_6
        22 003516   005100 702000 22                 TSX2    ERROR

      683     2453         /* Reset currency for rc-fr */
      684     2454    1       CALL FETCHOS_6('RC-SOSM ') ALTRET(ERROR);

   2454 22 003517   000174 630400 23                 EPPR0   124
        22 003520   000000 631400 23                 EPPR1   0
        22 003521   000000 701000 xent               TSX1    FETCHOS_6
        22 003522   005100 702000 22                 TSX2    ERROR

PL6.E3A0      #001=DBA_SUMMARY File=ZIG$DDE1.:ZIC0TSI                            FRI 09/05/97 11:43 Page:125
      685     2455         /* Prev statement chnged rc-sosm so repeat */
      686     2456    1       CALL FETCHD_6('SM  ',DBKSM) ALTRET(ERROR);

   2456 22 003523   200007 630500                    EPPR0   DBKSM,,AUTO
        22 003524   200127 450500                    STP0    C7V+4,,AUTO
        22 003525   000173 236000 23                 LDQ     123
        22 003526   200126 756100                    STQ     C7V+3,,AUTO
        22 003527   200126 630500                    EPPR0   C7V+3,,AUTO
        22 003530   000013 631400 23                 EPPR1   11
        22 003531   000000 701000 xent               TSX1    FETCHD_6
        22 003532   005100 702000 22                 TSX2    ERROR

      687     2457    1       CALL SET_FIELD_NUM(1,UWA.RC.PA_ENTRY);

   2457 22 003533   000175 630400 23                 EPPR0   125
        22 003534   000013 631400 23                 EPPR1   11
        22 003535   000000 701000 xent               TSX1    SET_FIELD_NUM
        22 003536   000000 011000                    NOP     0

      688     2458    1       CALL CONCAT(O_L,'PA-ENTRY SIZE IS ',SUBSTR(FIELD1.TEXT1,0,FIELD1.COUNT1),
              2458                ' BYTES.');

   2458 22 003537   000000 236000 18                 LDQ     FIELD1
        22 003540   000033 772000                    QRL     27
        22 003541   040000 100400                    MLR     fill='040'O
        22 003542   001132 000021 21                 ADSC9   602                      cn=0,n=17
        22 003543   000037 000021 17                 ADSC9   O_L                      cn=0,n=17
        22 003544   000000 620006                    EAX0    0,QL
        22 003545   040000 100440                    MLR     fill='040'O
        22 003546   000000 200010 18                 ADSC9   FIELD1                   cn=1,n=*X0
        22 003547   000043 200157 17                 ADSC9   O_L+4                    cn=1,n=111
        22 003550   000157 116007                    CMPQ    111,DL
        22 003551   003557 603000 22                 TRC     s:2459
        22 003552   777620 620006                    EAX0    -112,QL
        22 003553   777777 660003                    ERX0    -1,DU
        22 003554   040046 100400                    MLR     fill='040'O
        22 003555   001137 000007 21                 ADSC9   607                      cn=0,n=7
PL6.E3A0      #001=DBA_SUMMARY File=ZIG$DDE1.:ZIC0TSI                            FRI 09/05/97 11:43 Page:126
        22 003556   000043 200010 17                 ADSC9   O_L+4,Q                  cn=1,n=*X0

      689     2459    1       CALL PRNT(O_L,1,3);

   2459 22 003557   000043 630400 23                 EPPR0   35
        22 003560   000005 631400 23                 EPPR1   5
        22 003561   000000 701000 xent               TSX1    PRNT
        22 003562   000000 011000                    NOP     0

      690     2460    1       O_L = 'ECW          0     0    0         2    0';

   2460 22 003563   040000 100400                    MLR     fill='040'O
        22 003564   001141 000050 21                 ADSC9   609                      cn=0,n=40
        22 003565   000037 000200 17                 ADSC9   O_L                      cn=0,n=128

      691     2461    1       CALL PRNT(O_L, 1, 34);

   2461 22 003566   000177 630400 23                 EPPR0   127
        22 003567   000005 631400 23                 EPPR1   5
        22 003570   000000 701000 xent               TSX1    PRNT
        22 003571   000000 011000                    NOP     0

      692     2462    1       PE = ADDR(UWA.SM.PA_MEMPNT);

   2462 22 003572   000202 236000 23                 LDQ     130
        22 003573   200052 756100                    STQ     PE,,AUTO

      693     2463    1       LSTEIS = PE->B36;

   2463 22 003574   200052 470500                    LDP0    PE,,AUTO
        22 003575   003000 060500                    CSL     bolr='003'O
        22 003576   000000 000044                    BDSC    0,,PR0                   by=0,bit=0,n=36
        22 003577   000156 000044 17                 BDSC    LSTEIS                   by=0,bit=0,n=36

      694     2464    1       CALL OFFS;

   2464 22 003600   004266 701000 22                 TSX1    OFFS
PL6.E3A0      #001=DBA_SUMMARY File=ZIG$DDE1.:ZIC0TSI                            FRI 09/05/97 11:43 Page:127
        22 003601   000000 011000                    NOP     0

      695     2465    1       CALL SIZE;

   2465 22 003602   004463 701000 22                 TSX1    SIZE
        22 003603   000000 011000                    NOP     0

      696     2466    1       CALL CONCAT(O_L_74_54.A,'                                  MEMBER  ',C18,C14);

   2466 22 003604   040000 100400                    MLR     fill='040'O
        22 003605   001153 000052 21                 ADSC9   619                      cn=0,n=42
        22 003606   000037 000052 17                 ADSC9   O_L                      cn=0,n=42
        22 003607   040000 100500                    MLR     fill='040'O
        22 003610   200027 000022                    ADSC9   C18,,AUTO                cn=0,n=18
        22 003611   000051 400022 17                 ADSC9   O_L+10                   cn=2,n=18
        22 003612   040000 100500                    MLR     fill='040'O
        22 003613   200034 000016                    ADSC9   C14,,AUTO                cn=0,n=14
        22 003614   000056 000016 17                 ADSC9   O_L+15                   cn=0,n=14

      697     2467    1       IF UWA.SC.SETGLO = 1 THEN

   2467 22 003615   000313 235000 16                 LDA     UWA+203
        22 003616   000001 115007                    CMPA    1,DL
        22 003617   003624 601000 22                 TNZ     s:2470

      698     2468    1           O_L_74_54.B = '                          GLOBAL POINTER';

   2468 22 003620   040000 100400                    MLR     fill='040'O
        22 003621   001166 000050 21                 ADSC9   630                      cn=0,n=40
        22 003622   000061 400066 17                 ADSC9   O_L+18                   cn=2,n=54
        22 003623   003627 710000 22                 TRA     s:2471

      699     2469    1       ELSE
      700     2470    1           O_L_74_54.B = '                          LOCAL POINTER';

   2470 22 003624   040000 100400                    MLR     fill='040'O
        22 003625   001200 000047 21                 ADSC9   640                      cn=0,n=39
PL6.E3A0      #001=DBA_SUMMARY File=ZIG$DDE1.:ZIC0TSI                            FRI 09/05/97 11:43 Page:128
        22 003626   000061 400066 17                 ADSC9   O_L+18                   cn=2,n=54

      701     2471    1       CALL PRNT(O_L,1,0);

   2471 22 003627   000010 630400 23                 EPPR0   8
        22 003630   000005 631400 23                 EPPR1   5
        22 003631   000000 701000 xent               TSX1    PRNT
        22 003632   000000 011000                    NOP     0

      702     2472    1       O_L = ' *** SEQUENCE KEY FIELDS ***';

   2472 22 003633   040000 100400                    MLR     fill='040'O
        22 003634   001212 000034 21                 ADSC9   650                      cn=0,n=28
        22 003635   000037 000200 17                 ADSC9   O_L                      cn=0,n=128

      703     2473    1       CALL PRNT(O_L,1,3);

   2473 22 003636   000043 630400 23                 EPPR0   35
        22 003637   000005 631400 23                 EPPR1   5
        22 003640   000000 701000 xent               TSX1    PRNT
        22 003641   000000 011000                    NOP     0

      704     2474    1       GOTO NXTFR;

   2474 22 003642   003653 710000 22                 TRA     NXTFR

      705     2475    1   DOFLDS2:
      706     2476    1       CALL FETCHOS_6('RC-FR   ') ALTRET(ERROR);

   2476 22 003643   000203 630400 23    DOFLDS2      EPPR0   131
        22 003644   000000 631400 23                 EPPR1   0
        22 003645   000000 701000 xent               TSX1    FETCHOS_6
        22 003646   005100 702000 22                 TSX2    ERROR

      707     2477    1       PE = ADDR(LSTEIS);

   2477 22 003647   000206 236000 23                 LDQ     134
PL6.E3A0      #001=DBA_SUMMARY File=ZIG$DDE1.:ZIC0TSI                            FRI 09/05/97 11:43 Page:129
        22 003650   200052 756100                    STQ     PE,,AUTO

      708     2478    1       FXCHRV = 1;

   2478 22 003651   000001 220003                    LDX0    1,DU
        22 003652   200103 740100                    STX0    FXCHRV,,AUTO

      709     2479    1   NXTFR:
      710     2480    1       IF UWA.RC.PSMODE = 5 THEN

   2480 22 003653   000271 235000 16    NXTFR        LDA     UWA+185
        22 003654   000005 115007                    CMPA    5,DL
        22 003655   003706 601000 22                 TNZ     s:2491

      711     2481    2       DO;

      712     2482    2           CALL FETCHNS_6('SMSS-CF ') ALTRET(NXTPASM);

   2482 22 003656   000207 630400 23                 EPPR0   135
        22 003657   000000 631400 23                 EPPR1   0
        22 003660   000000 701000 xent               TSX1    FETCHNS_6
        22 003661   003425 702000 22                 TSX2    NXTPASM

      713     2483    2           CALL FETCHOS_6('FR-CFR  ') ALTRET(ERROR);

   2483 22 003662   000210 630400 23                 EPPR0   136
        22 003663   000000 631400 23                 EPPR1   0
        22 003664   000000 701000 xent               TSX1    FETCHOS_6
        22 003665   005100 702000 22                 TSX2    ERROR

      714     2484    2           CALL FETCHOS_6('SN-SE   ') ALTRET(ERROR);

   2484 22 003666   000205 630400 23                 EPPR0   133
        22 003667   000000 631400 23                 EPPR1   0
        22 003670   000000 701000 xent               TSX1    FETCHOS_6
        22 003671   005100 702000 22                 TSX2    ERROR

PL6.E3A0      #001=DBA_SUMMARY File=ZIG$DDE1.:ZIC0TSI                            FRI 09/05/97 11:43 Page:130
      715     2485    2           C30 = UWA.SN.SENAME;

   2485 22 003672   040000 100400                    MLR     fill='040'O
        22 003673   000427 000036 16                 ADSC9   UWA+279                  cn=0,n=30
        22 003674   000027 000036 17                 ADSC9   C30                      cn=0,n=30

      716     2486    2           CALL FCURR_R_6('C-F ') ALTRET(ERROR);

   2486 22 003675   000211 630400 23                 EPPR0   137
        22 003676   000000 631400 23                 EPPR1   0
        22 003677   000000 701000 xent               TSX1    FCURR_R_6
        22 003700   005100 702000 22                 TSX2    ERROR

      717     2487    2           CALL FETCHOS_6('FR-CFS  ') ALTRET(ERROR);

   2487 22 003701   000212 630400 23                 EPPR0   138
        22 003702   000000 631400 23                 EPPR1   0
        22 003703   000000 701000 xent               TSX1    FETCHOS_6
        22 003704   005100 702000 22                 TSX2    ERROR

      718     2488    2           END;

   2488 22 003705   003724 710000 22                 TRA     s:2497

      719     2489    1       ELSE
      720     2490    2       DO;

      721     2491    2           CALL FETCHNS_6('RC-FR   ') ALTRET(NXTFR1);

   2491 22 003706   000203 630400 23                 EPPR0   131
        22 003707   000000 631400 23                 EPPR1   0
        22 003710   000000 701000 xent               TSX1    FETCHNS_6
        22 003711   004251 702000 22                 TSX2    NXTFR1

      722     2492    2           IF UWA.FR.SYN = 1 THEN

   2492 22 003712   000332 235000 16                 LDA     UWA+218
PL6.E3A0      #001=DBA_SUMMARY File=ZIG$DDE1.:ZIC0TSI                            FRI 09/05/97 11:43 Page:131
        22 003713   000001 115007                    CMPA    1,DL
        22 003714   003653 600000 22                 TZE     NXTFR

      723     2493    2               GOTO NXTFR;
      724     2494    2           CALL FETCHOS_6('SN-SE   ') ALTRET(ERROR);

   2494 22 003715   000205 630400 23                 EPPR0   133
        22 003716   000000 631400 23                 EPPR1   0
        22 003717   000000 701000 xent               TSX1    FETCHOS_6
        22 003720   005100 702000 22                 TSX2    ERROR

      725     2495    2           C30 = UWA.SN.SENAME;

   2495 22 003721   040000 100400                    MLR     fill='040'O
        22 003722   000427 000036 16                 ADSC9   UWA+279                  cn=0,n=30
        22 003723   000027 000036 17                 ADSC9   C30                      cn=0,n=30

      726     2496    2           END;

      727     2497    1       IF FXCHRV = 1 THEN

   2497 22 003724   200103 220100                    LDX0    FXCHRV,,AUTO
        22 003725   000001 100003                    CMPX0   1,DU
        22 003726   003733 601000 22                 TNZ     s:2504

      728     2498    2       DO;

      729     2499    2           IF UWA.FR.FTYPE = 19 THEN

   2499 22 003727   000334 235000 16                 LDA     UWA+220
        22 003730   000023 115007                    CMPA    19,DL
        22 003731   003653 600000 22                 TZE     NXTFR

      730     2500    2               GOTO NXTFR;
      731     2501    2           END;

   2501 22 003732   003736 710000 22                 TRA     s:2510
PL6.E3A0      #001=DBA_SUMMARY File=ZIG$DDE1.:ZIC0TSI                            FRI 09/05/97 11:43 Page:132

      732     2502    1       ELSE /* Process char varying fields */
      733     2503    2       DO;

      734     2504    2           IF UWA.FR.FTYPE ~= 19 THEN

   2504 22 003733   000334 235000 16                 LDA     UWA+220
        22 003734   000023 115007                    CMPA    19,DL
        22 003735   003653 601000 22                 TNZ     NXTFR

      735     2505    2               GOTO NXTFR;
      736     2506    2           END;

      737     2507         /*
      738     2508            Check for filler between fields
      739     2509            */
      740     2510    1       IF EIS.TYP = '0'B THEN

   2510 22 003736   200052 470500                    LDP0    PE,,AUTO
        22 003737   000000 066500                    CMPB    filb='0'B
        22 003740   000000 430001                    BDSC    0,,PR0                   by=2,bit=3,n=1
        22 003741   000007 000022 23                 BDSC    7                        by=0,bit=0,n=18
        22 003742   003752 601000 22                 TNZ     s:2513

      741     2511    1           X = BITBIN(EIS.PREC) * 2;

   2511 22 003743   003100 061500                    CSR     bolr='003'O
        22 003744   000000 460014                    BDSC    0,,PR0                   by=2,bit=6,n=12
        22 003745   200126 000044                    BDSC    C7V+3,,AUTO              by=0,bit=0,n=36
        22 003746   200126 236100                    LDQ     C7V+3,,AUTO
        22 003747   000001 736000                    QLS     1
        22 003750   200104 756100                    STQ     X,,AUTO
        22 003751   003757 710000 22                 TRA     s:2514

      742     2512    1       ELSE
      743     2513    1           X = BITBIN(EIS1.PREC);

PL6.E3A0      #001=DBA_SUMMARY File=ZIG$DDE1.:ZIC0TSI                            FRI 09/05/97 11:43 Page:133
   2513 22 003752   003100 061500                    CSR     bolr='003'O
        22 003753   000000 630006                    BDSC    0,,PR0                   by=3,bit=3,n=6
        22 003754   200126 000044                    BDSC    C7V+3,,AUTO              by=0,bit=0,n=36
        22 003755   200126 236100                    LDQ     C7V+3,,AUTO
        22 003756   200104 756100                    STQ     X,,AUTO

      744     2514    1       X = X + BITBIN(EIS.BWRD) * 8 + BITBIN(EIS.BCHR);

   2514 22 003757   003100 061500                    CSR     bolr='003'O
        22 003760   000000 030017                    BDSC    0,,PR0                   by=0,bit=3,n=15
        22 003761   200126 000044                    BDSC    C7V+3,,AUTO              by=0,bit=0,n=36
        22 003762   200126 236100                    LDQ     C7V+3,,AUTO
        22 003763   000003 736000                    QLS     3
        22 003764   200104 036100                    ADLQ    X,,AUTO
        22 003765   003100 061500                    CSR     bolr='003'O
        22 003766   000000 400003                    BDSC    0,,PR0                   by=2,bit=0,n=3
        22 003767   200127 000044                    BDSC    C7V+4,,AUTO              by=0,bit=0,n=36
        22 003770   200130 756100                    STQ     C7V+5,,AUTO
        22 003771   200127 236100                    LDQ     C7V+4,,AUTO
        22 003772   200130 036100                    ADLQ    C7V+5,,AUTO
        22 003773   200104 756100                    STQ     X,,AUTO

      745     2515    1       DEIS_RDEF.B18_20 = DFR.BUFLOC; /* Bits 18,19,20 */

   2515 22 003774   200067 471500                    LDP1    DFR$,,AUTO
        22 003775   003100 060500                    CSL     bolr='003'O
        22 003776   100000 400003                    BDSC    0,,PR1                   by=2,bit=0,n=3
        22 003777   200054 400003                    BDSC    DEIS,,AUTO               by=2,bit=0,n=3

      746     2516    1       PE = ADDR(UWA.FR.BUFFLOC);

   2516 22 004000   000002 236000 23                 LDQ     2
        22 004001   200052 756100                    STQ     PE,,AUTO

      747     2517    1       Y = BITBIN(EIS.BWRD) * 8 + BITBIN(EIS.BCHR);

   2517 22 004002   200052 470500                    LDP0    PE,,AUTO
PL6.E3A0      #001=DBA_SUMMARY File=ZIG$DDE1.:ZIC0TSI                            FRI 09/05/97 11:43 Page:134
        22 004003   003100 061500                    CSR     bolr='003'O
        22 004004   000000 030017                    BDSC    0,,PR0                   by=0,bit=3,n=15
        22 004005   200126 000044                    BDSC    C7V+3,,AUTO              by=0,bit=0,n=36
        22 004006   200126 236100                    LDQ     C7V+3,,AUTO
        22 004007   003100 061500                    CSR     bolr='003'O
        22 004010   000000 400003                    BDSC    0,,PR0                   by=2,bit=0,n=3
        22 004011   200127 000044                    BDSC    C7V+4,,AUTO              by=0,bit=0,n=36
        22 004012   200130 756100                    STQ     C7V+5,,AUTO
        22 004013   200127 236100                    LDQ     C7V+4,,AUTO
        22 004014   200131 756100                    STQ     C7V+6,,AUTO
        22 004015   200130 236100                    LDQ     C7V+5,,AUTO
        22 004016   000003 736000                    QLS     3
        22 004017   200131 036100                    ADLQ    C7V+6,,AUTO
        22 004020   000000 621006                    EAX1    0,QL
        22 004021   200010 741100                    STX1    Y,,AUTO

      748     2518    1       IF Y - X ~= 0 THEN

   2518 22 004022   200010 236100                    LDQ     Y,,AUTO
        22 004023   000022 732000                    QRS     18
        22 004024   200104 136100                    SBLQ    X,,AUTO
        22 004025   004052 600000 22                 TZE     NXTFR0

      749     2519    2       DO;

      750     2520    2           PE = ADDR(DEIS);

   2520 22 004026   200054 633500                    EPPR3   DEIS,,AUTO
        22 004027   200052 453500                    STP3    PE,,AUTO

      751     2521    2           DEIS_RDEF.B30_35 = BINBIT(Y - X, 6);

   2521 22 004030   200010 236100                    LDQ     Y,,AUTO
        22 004031   000022 732000                    QRS     18
        22 004032   200104 136100                    SBLQ    X,,AUTO
        22 004033   000036 736000                    QLS     30
        22 004034   000036 772000                    QRL     30
PL6.E3A0      #001=DBA_SUMMARY File=ZIG$DDE1.:ZIC0TSI                            FRI 09/05/97 11:43 Page:135
        22 004035   200054 752101                    STCQ    DEIS,'01'O,AUTO

      752     2522    2           CALL SIZE;

   2522 22 004036   004463 701000 22                 TSX1    SIZE
        22 004037   000000 011000                    NOP     0

      753     2523    2           CALL CONCAT(O_L ,
              2523                    '                                  *FILL                     ',C14);

   2523 22 004040   040000 100400                    MLR     fill='040'O
        22 004041   001244 000074 21                 ADSC9   676                      cn=0,n=60
        22 004042   000037 000074 17                 ADSC9   O_L                      cn=0,n=60
        22 004043   040000 100500                    MLR     fill='040'O
        22 004044   200034 000016                    ADSC9   C14,,AUTO                cn=0,n=14
        22 004045   000056 000104 17                 ADSC9   O_L+15                   cn=0,n=68

      754     2524    2           CALL PRNT(O_L, 1, 0);

   2524 22 004046   000010 630400 23                 EPPR0   8
        22 004047   000005 631400 23                 EPPR1   5
        22 004050   000000 701000 xent               TSX1    PRNT
        22 004051   000000 011000                    NOP     0

      755     2525    2           END;

      756     2526    1   NXTFR0:
      757     2527    1       LSTBUFLOC = UWA.FR.BUFFLOC;

   2527 22 004052   000351 235000 16    NXTFR0       LDA     UWA+233
        22 004053   200053 755100                    STA     LSTBUFLOC,,AUTO

      758     2528    1       PE = ADDR(LSTBUFLOC);

   2528 22 004054   200053 630500                    EPPR0   LSTBUFLOC,,AUTO
        22 004055   200052 450500                    STP0    PE,,AUTO

PL6.E3A0      #001=DBA_SUMMARY File=ZIG$DDE1.:ZIC0TSI                            FRI 09/05/97 11:43 Page:136
      759     2529    1       CALL OFFS;

   2529 22 004056   004266 701000 22                 TSX1    OFFS
        22 004057   000000 011000                    NOP     0

      760     2530    1       CALL SIZE;

   2530 22 004060   004463 701000 22                 TSX1    SIZE
        22 004061   000000 011000                    NOP     0

      761     2531    1       CALL P_S_S;

   2531 22 004062   004644 701000 22                 TSX1    P_S_S
        22 004063   000000 011000                    NOP     0

      762     2532    1       C34 = C30;

   2532 22 004064   040100 100400                    MLR     fill='040'O
        22 004065   000027 000036 17                 ADSC9   C30                      cn=0,n=30
        22 004066   200016 000042                    ADSC9   C34,,AUTO                cn=0,n=34

      763     2533    1       IF UWA.FR.FTYPE = 19 THEN

   2533 22 004067   000334 235000 16                 LDA     UWA+220
        22 004070   000023 115007                    CMPA    19,DL
        22 004071   004116 601000 22                 TNZ     s:2536

      764     2534    1           CALL CONCAT(O_L,C34,DTYP(UWA.FR.FTYPE),C18,C14,C20,'     CHARACTER VARYING'
              2534                    );

   2534 22 004072   040000 100500                    MLR     fill='040'O
        22 004073   200016 000042                    ADSC9   C34,,AUTO                cn=0,n=34
        22 004074   000037 000042 17                 ADSC9   O_L                      cn=0,n=34
        22 004075   000003 735000                    ALS     3
        22 004076   040000 100405                    MLR     fill='040'O
        22 004077   000106 000010 17                 ADSC9   DTYP,A                   cn=0,n=8
        22 004100   000047 400010 17                 ADSC9   O_L+8                    cn=2,n=8
PL6.E3A0      #001=DBA_SUMMARY File=ZIG$DDE1.:ZIC0TSI                            FRI 09/05/97 11:43 Page:137
        22 004101   040000 100500                    MLR     fill='040'O
        22 004102   200027 000022                    ADSC9   C18,,AUTO                cn=0,n=18
        22 004103   000051 400022 17                 ADSC9   O_L+10                   cn=2,n=18
        22 004104   040000 100500                    MLR     fill='040'O
        22 004105   200034 000016                    ADSC9   C14,,AUTO                cn=0,n=14
        22 004106   000056 000016 17                 ADSC9   O_L+15                   cn=0,n=14
        22 004107   040000 100500                    MLR     fill='040'O
        22 004110   200040 000024                    ADSC9   C20,,AUTO                cn=0,n=20
        22 004111   000061 400024 17                 ADSC9   O_L+18                   cn=2,n=20
        22 004112   040000 100400                    MLR     fill='040'O
        22 004113   001263 000027 21                 ADSC9   691                      cn=0,n=23
        22 004114   000066 400042 17                 ADSC9   O_L+23                   cn=2,n=34
        22 004115   004141 710000 22                 TRA     s:2537

      765     2535    1       ELSE
      766     2536    1           CALL CONCAT(O_L,C30,'    ',DTYP(UWA.FR.FTYPE),C18,C14,C20);

   2536 22 004116   040000 100400                    MLR     fill='040'O
        22 004117   000027 000036 17                 ADSC9   C30                      cn=0,n=30
        22 004120   000037 000036 17                 ADSC9   O_L                      cn=0,n=30
        22 004121   040000 100400                    MLR     fill='040'O
        22 004122   001136 000004 21                 ADSC9   606                      cn=0,n=4
        22 004123   000046 400004 17                 ADSC9   O_L+7                    cn=2,n=4
        22 004124   000003 735000                    ALS     3
        22 004125   040000 100405                    MLR     fill='040'O
        22 004126   000106 000010 17                 ADSC9   DTYP,A                   cn=0,n=8
        22 004127   000047 400010 17                 ADSC9   O_L+8                    cn=2,n=8
        22 004130   040000 100500                    MLR     fill='040'O
        22 004131   200027 000022                    ADSC9   C18,,AUTO                cn=0,n=18
        22 004132   000051 400022 17                 ADSC9   O_L+10                   cn=2,n=18
        22 004133   040000 100500                    MLR     fill='040'O
        22 004134   200034 000016                    ADSC9   C14,,AUTO                cn=0,n=14
        22 004135   000056 000016 17                 ADSC9   O_L+15                   cn=0,n=14
        22 004136   040000 100500                    MLR     fill='040'O
        22 004137   200040 000024                    ADSC9   C20,,AUTO                cn=0,n=20
        22 004140   000061 400066 17                 ADSC9   O_L+18                   cn=2,n=54

PL6.E3A0      #001=DBA_SUMMARY File=ZIG$DDE1.:ZIC0TSI                            FRI 09/05/97 11:43 Page:138
      767     2537    1       CALL PRNT(O_L, 1, 0);

   2537 22 004141   000010 630400 23                 EPPR0   8
        22 004142   000005 631400 23                 EPPR1   5
        22 004143   000000 701000 xent               TSX1    PRNT
        22 004144   000000 011000                    NOP     0

      768     2538    1       GOTO NXTFR;

   2538 22 004145   003653 710000 22                 TRA     NXTFR

      769     2539    1   SUM_PARAMS:
      770     2540    1       CALL FETCHD_6('SN  ',DBK_PARAM) ALTRET(ERROR);

   2540 22 004146   200004 630500       SUM_PARAMS   EPPR0   DBK_PARAM,,AUTO
        22 004147   200127 450500                    STP0    C7V+4,,AUTO
        22 004150   000213 236000 23                 LDQ     139
        22 004151   200126 756100                    STQ     C7V+3,,AUTO
        22 004152   200126 630500                    EPPR0   C7V+3,,AUTO
        22 004153   000013 631400 23                 EPPR1   11
        22 004154   000000 701000 xent               TSX1    FETCHD_6
        22 004155   005100 702000 22                 TSX2    ERROR

      771     2541    1       CALL FETCHNS_6('SN-SE   ') ALTRET(ERROR);

   2541 22 004156   000205 630400 23                 EPPR0   133
        22 004157   000000 631400 23                 EPPR1   0
        22 004160   000000 701000 xent               TSX1    FETCHNS_6
        22 004161   005100 702000 22                 TSX2    ERROR

      772     2542    1       CALL FETCHNS_6('RC-FR   ') ALTRET(PARAMS_DONE);

   2542 22 004162   000203 630400 23                 EPPR0   131
        22 004163   000000 631400 23                 EPPR1   0
        22 004164   000000 701000 xent               TSX1    FETCHNS_6
        22 004165   004250 702000 22                 TSX2    PARAMS_DONE

PL6.E3A0      #001=DBA_SUMMARY File=ZIG$DDE1.:ZIC0TSI                            FRI 09/05/97 11:43 Page:139
      773     2543    1       CALL SUBLST('DATA BASE PARAMETER SUMMARY                                    ');

   2543 22 004166   000214 630400 23                 EPPR0   140
        22 004167   000000 631400 23                 EPPR1   0
        22 004170   000000 701000 xent               TSX1    SUBLST
        22 004171   000000 011000                    NOP     0

      774     2544    1       O_L =
              2544           '                                  TYPE                        PREC  SCALE SIGN'
              2544                ;

   2544 22 004172   040000 100400                    MLR     fill='040'O
        22 004173   001312 000117 21                 ADSC9   714                      cn=0,n=79
        22 004174   000037 000200 17                 ADSC9   O_L                      cn=0,n=128

      775     2545    1       CALL PRNT(O_L,2,0);

   2545 22 004175   000052 630400 23                 EPPR0   42
        22 004176   000005 631400 23                 EPPR1   5
        22 004177   000000 701000 xent               TSX1    PRNT
        22 004200   000000 011000                    NOP     0

      776     2546    1       O_L = '   *** PARAMETER ***';

   2546 22 004201   040000 100400                    MLR     fill='040'O
        22 004202   001336 000024 21                 ADSC9   734                      cn=0,n=20
        22 004203   000037 000200 17                 ADSC9   O_L                      cn=0,n=128

      777     2547    1       CALL PRNT(O_L,1,0);

   2547 22 004204   000010 630400 23                 EPPR0   8
        22 004205   000005 631400 23                 EPPR1   5
        22 004206   000000 701000 xent               TSX1    PRNT
        22 004207   000000 011000                    NOP     0

      778     2548    1   NXT_PARAM:
      779     2549    1       CALL FETCHOS_6('SN-SE   ') ALTRET(ERROR);
PL6.E3A0      #001=DBA_SUMMARY File=ZIG$DDE1.:ZIC0TSI                            FRI 09/05/97 11:43 Page:140

   2549 22 004210   000205 630400 23    NXT_PARAM    EPPR0   133
        22 004211   000000 631400 23                 EPPR1   0
        22 004212   000000 701000 xent               TSX1    FETCHOS_6
        22 004213   005100 702000 22                 TSX2    ERROR

      780     2550    1       CALL P_S_S;

   2550 22 004214   004644 701000 22                 TSX1    P_S_S
        22 004215   000000 011000                    NOP     0

      781     2551    1       CALL CONCAT(O_L,UWA.SN.SENAME,'    ',DTYP(UWA.FR.FTYPE),'                ',C20)
              2551                ;

   2551 22 004216   040000 100400                    MLR     fill='040'O
        22 004217   000427 000036 16                 ADSC9   UWA+279                  cn=0,n=30
        22 004220   000037 000036 17                 ADSC9   O_L                      cn=0,n=30
        22 004221   040000 100400                    MLR     fill='040'O
        22 004222   001136 000004 21                 ADSC9   606                      cn=0,n=4
        22 004223   000046 400004 17                 ADSC9   O_L+7                    cn=2,n=4
        22 004224   000334 235000 16                 LDA     UWA+220
        22 004225   000003 735000                    ALS     3
        22 004226   040000 100405                    MLR     fill='040'O
        22 004227   000106 000010 17                 ADSC9   DTYP,A                   cn=0,n=8
        22 004230   000047 400010 17                 ADSC9   O_L+8                    cn=2,n=8
        22 004231   040000 100400                    MLR     fill='040'O
        22 004232   001153 000021 21                 ADSC9   619                      cn=0,n=17
        22 004233   000051 400021 17                 ADSC9   O_L+10                   cn=2,n=17
        22 004234   040000 100500                    MLR     fill='040'O
        22 004235   200040 000024                    ADSC9   C20,,AUTO                cn=0,n=20
        22 004236   000055 600105 17                 ADSC9   O_L+14                   cn=3,n=69

      782     2552    1       CALL PRNT(O_L,1,0);

   2552 22 004237   000010 630400 23                 EPPR0   8
        22 004240   000005 631400 23                 EPPR1   5
        22 004241   000000 701000 xent               TSX1    PRNT
PL6.E3A0      #001=DBA_SUMMARY File=ZIG$DDE1.:ZIC0TSI                            FRI 09/05/97 11:43 Page:141
        22 004242   000000 011000                    NOP     0

      783     2553    1       CALL FETCHNS_6('RC-FR   ') ALTRET(PARAMS_DONE);

   2553 22 004243   000203 630400 23                 EPPR0   131
        22 004244   000000 631400 23                 EPPR1   0
        22 004245   000000 701000 xent               TSX1    FETCHNS_6
        22 004246   004250 702000 22                 TSX2    PARAMS_DONE

      784     2554    1       GOTO NXT_PARAM;

   2554 22 004247   004210 710000 22                 TRA     NXT_PARAM

      785     2555    1   PARAMS_DONE:
      786     2556    1       RETURN;

   2556 22 004250   000000 702200 xent  PARAMS_DONE  TSX2  ! X66_ARET

      787     2557    1   NXTFR1: /* Finished processing fixed fields*/
      788     2558    1       IF FXCHRV = 2 THEN GOTO NXTFR2;

   2558 22 004251   200103 220100       NXTFR1       LDX0    FXCHRV,,AUTO
        22 004252   000002 100003                    CMPX0   2,DU
        22 004253   004265 600000 22                 TZE     NXTFR2

      789     2559    1       IF UWA.RC.CV_OFFSET = 0 THEN

   2559 22 004254   000302 235000 16                 LDA     UWA+194
        22 004255   001774 600000 22                 TZE     NXTRC

      790     2560    1           GOTO NXTRC;
      791     2561    1       FXCHRV = 2; /* Process char varying fields */

   2561 22 004256   000002 221003                    LDX1    2,DU
        22 004257   200103 741100                    STX1    FXCHRV,,AUTO

      792     2562    1       CALL FETCHOS_6('RC-FR   ') ALTRET(ERROR);
PL6.E3A0      #001=DBA_SUMMARY File=ZIG$DDE1.:ZIC0TSI                            FRI 09/05/97 11:43 Page:142

   2562 22 004260   000203 630400 23                 EPPR0   131
        22 004261   000000 631400 23                 EPPR1   0
        22 004262   000000 701000 xent               TSX1    FETCHOS_6
        22 004263   005100 702000 22                 TSX2    ERROR

      793     2563    1       GOTO NXTFR;

   2563 22 004264   003653 710000 22                 TRA     NXTFR

      794     2564    1   NXTFR2: /* Finished processing char varying*/
      795     2565    1       GOTO NXTRC;

   2565 22 004265   001774 710000 22    NXTFR2       TRA     NXTRC

      796     2566    1   OFFS:

   2566 22 004266   200114 741300       OFFS         STX1  ! C15+5,,AUTO

      797     2567    1       PROC;
      798     2568    2   DCL XWORD CHAR(6);
      799     2569    2   DCL XBYTE CHAR(6);
      800     2570    2   DCL XBIT CHAR(6);
      801     2571    2       CALL BINCHAR(XWORD,BITBIN(EIS.BWRD));

   2571 22 004267   200052 470500                    LDP0    PE,,AUTO
        22 004270   003100 061500                    CSR     bolr='003'O
        22 004271   000000 030017                    BDSC    0,,PR0                   by=0,bit=3,n=15
        22 004272   200126 000044                    BDSC    C7V+3,,AUTO              by=0,bit=0,n=36
        22 004273   200126 236100                    LDQ     C7V+3,,AUTO
        22 004274   000000 235003                    LDA     0,DU
        22 004275   200130 757100                    STAQ    C7V+5,,AUTO
        22 004276   000100 301500                    BTD
        22 004277   200130 000010                    NDSC9   C7V+5,,AUTO              cn=0,s=lsgnf,sf=0,n=8
        22 004300   200115 030006                    NDSC9   XWORD,,AUTO              cn=0,s=nosgn,sf=0,n=6

      802     2572    2       IF XWORD = '000000' THEN XWORD = '     0';
PL6.E3A0      #001=DBA_SUMMARY File=ZIG$DDE1.:ZIC0TSI                            FRI 09/05/97 11:43 Page:143

   2572 22 004301   040000 106500                    CMPC    fill='040'O
        22 004302   200115 000006                    ADSC9   XWORD,,AUTO              cn=0,n=6
        22 004303   001343 000006 21                 ADSC9   739                      cn=0,n=6
        22 004304   004311 601000 22                 TNZ     s:2573

   2572 22 004305   040100 100400                    MLR     fill='040'O
        22 004306   001143 000006 21                 ADSC9   611                      cn=0,n=6
        22 004307   200115 000006                    ADSC9   XWORD,,AUTO              cn=0,n=6
        22 004310   004332 710000 22                 TRA     s:2579

      803     2573    3       ELSE DO X = 0 TO 4; /* ZERO SUPPRESS */

   2573 22 004311   200104 450100                    STZ     X,,AUTO

      804     2574    3           IF SUBSTR(XWORD,X,1) = '0' THEN

   2574 22 004312   200104 235100                    LDA     X,,AUTO
        22 004313   040000 106505                    CMPC    fill='040'O
        22 004314   200115 000001                    ADSC9   XWORD,A,AUTO             cn=0,n=1
        22 004315   000215 000001 23                 ADSC9   141                      cn=0,n=1
        22 004316   004323 601000 22                 TNZ     s:2577

      805     2575    3               CALL INSERT(XWORD,X,1,' ');

   2575 22 004317   040105 100400                    MLR     fill='040'O
        22 004320   000031 000001 23                 ADSC9   25                       cn=0,n=1
        22 004321   200115 000001                    ADSC9   XWORD,A,AUTO             cn=0,n=1
        22 004322   004325 710000 22                 TRA     s:2578

      806     2576    3           ELSE
      807     2577    3               X = 5;

   2577 22 004323   000005 236007                    LDQ     5,DL
        22 004324   200104 756100                    STQ     X,,AUTO

      808     2578    3           END;
PL6.E3A0      #001=DBA_SUMMARY File=ZIG$DDE1.:ZIC0TSI                            FRI 09/05/97 11:43 Page:144

   2578 22 004325   200104 235100                    LDA     X,,AUTO
        22 004326   000001 035007                    ADLA    1,DL
        22 004327   200104 755100                    STA     X,,AUTO
        22 004330   000005 115007                    CMPA    5,DL
        22 004331   004312 602000 22                 TNC     s:2574

      809     2579    2       X = BITBIN(EIS.BCHR)/2;

   2579 22 004332   200052 470500                    LDP0    PE,,AUTO
        22 004333   003100 061500                    CSR     bolr='003'O
        22 004334   000000 400003                    BDSC    0,,PR0                   by=2,bit=0,n=3
        22 004335   200126 000044                    BDSC    C7V+3,,AUTO              by=0,bit=0,n=36
        22 004336   200126 236100                    LDQ     C7V+3,,AUTO
        22 004337   000001 772000                    QRL     1
        22 004340   200104 756100                    STQ     X,,AUTO

      810     2580    2       CALL BINCHAR(XBYTE,X);

   2580 22 004341   000000 235003                    LDA     0,DU
        22 004342   200126 757100                    STAQ    C7V+3,,AUTO
        22 004343   000100 301500                    BTD
        22 004344   200126 000010                    NDSC9   C7V+3,,AUTO              cn=0,s=lsgnf,sf=0,n=8
        22 004345   200117 030006                    NDSC9   XBYTE,,AUTO              cn=0,s=nosgn,sf=0,n=6

      811     2581    2       IF XBYTE = '000000' THEN XBYTE = '     0';

   2581 22 004346   040000 106500                    CMPC    fill='040'O
        22 004347   200117 000006                    ADSC9   XBYTE,,AUTO              cn=0,n=6
        22 004350   001343 000006 21                 ADSC9   739                      cn=0,n=6
        22 004351   004356 601000 22                 TNZ     s:2582

   2581 22 004352   040100 100400                    MLR     fill='040'O
        22 004353   001143 000006 21                 ADSC9   611                      cn=0,n=6
        22 004354   200117 000006                    ADSC9   XBYTE,,AUTO              cn=0,n=6
        22 004355   004377 710000 22                 TRA     s:2588

PL6.E3A0      #001=DBA_SUMMARY File=ZIG$DDE1.:ZIC0TSI                            FRI 09/05/97 11:43 Page:145
      812     2582    3       ELSE DO X = 0 TO 4; /* ZERO SUPPRESS */

   2582 22 004356   200104 450100                    STZ     X,,AUTO

      813     2583    3           IF SUBSTR(XBYTE,X,1) = '0' THEN

   2583 22 004357   200104 235100                    LDA     X,,AUTO
        22 004360   040000 106505                    CMPC    fill='040'O
        22 004361   200117 000001                    ADSC9   XBYTE,A,AUTO             cn=0,n=1
        22 004362   000215 000001 23                 ADSC9   141                      cn=0,n=1
        22 004363   004370 601000 22                 TNZ     s:2586

      814     2584    3               CALL INSERT(XBYTE,X,1,' ');

   2584 22 004364   040105 100400                    MLR     fill='040'O
        22 004365   000031 000001 23                 ADSC9   25                       cn=0,n=1
        22 004366   200117 000001                    ADSC9   XBYTE,A,AUTO             cn=0,n=1
        22 004367   004372 710000 22                 TRA     s:2587

      815     2585    3           ELSE
      816     2586    3               X = 5;

   2586 22 004370   000005 236007                    LDQ     5,DL
        22 004371   200104 756100                    STQ     X,,AUTO

      817     2587    3           END;

   2587 22 004372   200104 235100                    LDA     X,,AUTO
        22 004373   000001 035007                    ADLA    1,DL
        22 004374   200104 755100                    STA     X,,AUTO
        22 004375   000005 115007                    CMPA    5,DL
        22 004376   004357 602000 22                 TNC     s:2583

      818     2588    2       IF EIS.TYP = '0'B THEN

   2588 22 004377   200052 470500                    LDP0    PE,,AUTO
        22 004400   000000 066500                    CMPB    filb='0'B
PL6.E3A0      #001=DBA_SUMMARY File=ZIG$DDE1.:ZIC0TSI                            FRI 09/05/97 11:43 Page:146
        22 004401   000000 430001                    BDSC    0,,PR0                   by=2,bit=3,n=1
        22 004402   000007 000022 23                 BDSC    7                        by=0,bit=0,n=18
        22 004403   004410 601000 22                 TNZ     s:2592

      819     2589    2           XBIT = '    0';

   2589 22 004404   040100 100400                    MLR     fill='040'O
        22 004405   001146 000005 21                 ADSC9   614                      cn=0,n=5
        22 004406   200121 000006                    ADSC9   XBIT,,AUTO               cn=0,n=6
        22 004407   004437 710000 22                 TRA     s:2597

      820     2590    2       ELSE
      821     2591    3       DO;

      822     2592    3          IF EIS.BCHR = '001'B OR EIS.BCHR = '011'B OR EIS.BCHR = '101'B OR EIS.BCHR =
              2592                    '111'B THEN

   2592 22 004410   000000 066500                    CMPB    filb='0'B
        22 004411   000000 400003                    BDSC    0,,PR0                   by=2,bit=0,n=3
        22 004412   000216 000022 23                 BDSC    142                      by=0,bit=0,n=18
        22 004413   004430 600000 22                 TZE     s:2593
        22 004414   000000 066500                    CMPB    filb='0'B
        22 004415   000000 400003                    BDSC    0,,PR0                   by=2,bit=0,n=3
        22 004416   000217 000022 23                 BDSC    143                      by=0,bit=0,n=18
        22 004417   004430 600000 22                 TZE     s:2593
        22 004420   000000 066500                    CMPB    filb='0'B
        22 004421   000000 400003                    BDSC    0,,PR0                   by=2,bit=0,n=3
        22 004422   000220 000022 23                 BDSC    144                      by=0,bit=0,n=18
        22 004423   004430 600000 22                 TZE     s:2593
        22 004424   000000 066500                    CMPB    filb='0'B
        22 004425   000000 400003                    BDSC    0,,PR0                   by=2,bit=0,n=3
        22 004426   000221 000022 23                 BDSC    145                      by=0,bit=0,n=18
        22 004427   004434 601000 22                 TNZ     s:2595

      823     2593    3               XBIT = '    5';

   2593 22 004430   040100 100400                    MLR     fill='040'O
PL6.E3A0      #001=DBA_SUMMARY File=ZIG$DDE1.:ZIC0TSI                            FRI 09/05/97 11:43 Page:147
        22 004431   001345 000005 21                 ADSC9   741                      cn=0,n=5
        22 004432   200121 000006                    ADSC9   XBIT,,AUTO               cn=0,n=6
        22 004433   004437 710000 22                 TRA     s:2597

      824     2594    3           ELSE
      825     2595    3               XBIT = '    1';

   2595 22 004434   040100 100400                    MLR     fill='040'O
        22 004435   001347 000005 21                 ADSC9   743                      cn=0,n=5
        22 004436   200121 000006                    ADSC9   XBIT,,AUTO               cn=0,n=6

      826     2596    3           END;

      827     2597    2       CALL CONCAT(C18 , XWORD , XBYTE , XBIT);

   2597 22 004437   040100 100500                    MLR     fill='040'O
        22 004440   200115 000006                    ADSC9   XWORD,,AUTO              cn=0,n=6
        22 004441   200027 000006                    ADSC9   C18,,AUTO                cn=0,n=6
        22 004442   040100 100500                    MLR     fill='040'O
        22 004443   200117 000006                    ADSC9   XBYTE,,AUTO              cn=0,n=6
        22 004444   200030 400006                    ADSC9   C18+1,,AUTO              cn=2,n=6
        22 004445   040100 100500                    MLR     fill='040'O
        22 004446   200121 000006                    ADSC9   XBIT,,AUTO               cn=0,n=6
        22 004447   200032 000006                    ADSC9   C18+3,,AUTO              cn=0,n=6

      828     2598    2       XWORD = ' '; XBYTE = ' '; XBIT = ' ';

   2598 22 004450   040100 100400                    MLR     fill='040'O
        22 004451   000031 000001 23                 ADSC9   25                       cn=0,n=1
        22 004452   200115 000006                    ADSC9   XWORD,,AUTO              cn=0,n=6

   2598 22 004453   040100 100400                    MLR     fill='040'O
        22 004454   000031 000001 23                 ADSC9   25                       cn=0,n=1
        22 004455   200117 000006                    ADSC9   XBYTE,,AUTO              cn=0,n=6

   2598 22 004456   040100 100400                    MLR     fill='040'O
        22 004457   000031 000001 23                 ADSC9   25                       cn=0,n=1
PL6.E3A0      #001=DBA_SUMMARY File=ZIG$DDE1.:ZIC0TSI                            FRI 09/05/97 11:43 Page:148
        22 004460   200121 000006                    ADSC9   XBIT,,AUTO               cn=0,n=6

      829     2599    2   END OFFS;

   2599 22 004461   200114 221300                    LDX1  ! C15+5,,AUTO
        22 004462   000001 702211                    TSX2  ! 1,X1

      830     2600    1   SIZE:

   2600 22 004463   200114 741300       SIZE         STX1  ! C15+5,,AUTO

      831     2601    1       PROC;
      832     2602    2   DCL BYTES CHAR(9);
      833     2603    2   DCL BITS CHAR(5);
      834     2604    2       IF EIS.TYP = '0'B THEN

   2604 22 004464   200052 470500                    LDP0    PE,,AUTO
        22 004465   000000 066500                    CMPB    filb='0'B
        22 004466   000000 430001                    BDSC    0,,PR0                   by=2,bit=3,n=1
        22 004467   000007 000022 23                 BDSC    7                        by=0,bit=0,n=18
        22 004470   004537 601000 22                 TNZ     s:2618

      835     2605    3       DO;

      836     2606    3           CALL BINCHAR(BYTES,BITBIN(EIS.PREC));

   2606 22 004471   003100 061500                    CSR     bolr='003'O
        22 004472   000000 460014                    BDSC    0,,PR0                   by=2,bit=6,n=12
        22 004473   200126 000044                    BDSC    C7V+3,,AUTO              by=0,bit=0,n=36
        22 004474   200126 236100                    LDQ     C7V+3,,AUTO
        22 004475   000000 235003                    LDA     0,DU
        22 004476   200130 757100                    STAQ    C7V+5,,AUTO
        22 004477   000100 301500                    BTD
        22 004500   200130 000010                    NDSC9   C7V+5,,AUTO              cn=0,s=lsgnf,sf=0,n=8
        22 004501   200115 030011                    NDSC9   BYTES,,AUTO              cn=0,s=nosgn,sf=0,n=9

      837     2607    3           IF BYTES = '000000000' THEN BYTES = '        0';
PL6.E3A0      #001=DBA_SUMMARY File=ZIG$DDE1.:ZIC0TSI                            FRI 09/05/97 11:43 Page:149

   2607 22 004502   040000 106500                    CMPC    fill='040'O
        22 004503   200115 000011                    ADSC9   BYTES,,AUTO              cn=0,n=9
        22 004504   001351 000011 21                 ADSC9   745                      cn=0,n=9
        22 004505   004512 601000 22                 TNZ     s:2608

   2607 22 004506   040100 100400                    MLR     fill='040'O
        22 004507   001354 000011 21                 ADSC9   748                      cn=0,n=9
        22 004510   200115 000011                    ADSC9   BYTES,,AUTO              cn=0,n=9
        22 004511   004533 710000 22                 TRA     s:2614

      838     2608    4           ELSE DO X = 0 TO 7; /*ZERO SUPPRESS*/

   2608 22 004512   200104 450100                    STZ     X,,AUTO

      839     2609    4               IF SUBSTR(BYTES,X,1) = '0' THEN

   2609 22 004513   200104 235100                    LDA     X,,AUTO
        22 004514   040000 106505                    CMPC    fill='040'O
        22 004515   200115 000001                    ADSC9   BYTES,A,AUTO             cn=0,n=1
        22 004516   000215 000001 23                 ADSC9   141                      cn=0,n=1
        22 004517   004524 601000 22                 TNZ     s:2612

      840     2610    4                   CALL INSERT(BYTES,X,1,' ');

   2610 22 004520   040105 100400                    MLR     fill='040'O
        22 004521   000031 000001 23                 ADSC9   25                       cn=0,n=1
        22 004522   200115 000001                    ADSC9   BYTES,A,AUTO             cn=0,n=1
        22 004523   004526 710000 22                 TRA     s:2613

      841     2611    4               ELSE
      842     2612    4                   X = 8;

   2612 22 004524   000010 236007                    LDQ     8,DL
        22 004525   200104 756100                    STQ     X,,AUTO

      843     2613    4               END;
PL6.E3A0      #001=DBA_SUMMARY File=ZIG$DDE1.:ZIC0TSI                            FRI 09/05/97 11:43 Page:150

   2613 22 004526   200104 235100                    LDA     X,,AUTO
        22 004527   000001 035007                    ADLA    1,DL
        22 004530   200104 755100                    STA     X,,AUTO
        22 004531   000010 115007                    CMPA    8,DL
        22 004532   004513 602000 22                 TNC     s:2609

      844     2614    3           BITS = '    0';

   2614 22 004533   040100 100400                    MLR     fill='040'O
        22 004534   001146 000005 21                 ADSC9   614                      cn=0,n=5
        22 004535   200120 000005                    ADSC9   BITS,,AUTO               cn=0,n=5

      845     2615    3           END;

   2615 22 004536   004626 710000 22                 TRA     s:2633

      846     2616    2       ELSE
      847     2617    3       DO;

      848     2618    3           Y = BITBIN(EIS1.PREC);

   2618 22 004537   003100 061500                    CSR     bolr='003'O
        22 004540   000000 630006                    BDSC    0,,PR0                   by=3,bit=3,n=6
        22 004541   200126 000044                    BDSC    C7V+3,,AUTO              by=0,bit=0,n=36
        22 004542   200126 236100                    LDQ     C7V+3,,AUTO
        22 004543   000000 620006                    EAX0    0,QL
        22 004544   200010 740100                    STX0    Y,,AUTO

      849     2619    3           X = Y/2;

   2619 22 004545   200010 236100                    LDQ     Y,,AUTO
        22 004546   000022 732000                    QRS     18
        22 004547   000002 506007                    DIV     2,DL
        22 004550   200104 756100                    STQ     X,,AUTO

      850     2620    3           CALL BINCHAR(BYTES,X);
PL6.E3A0      #001=DBA_SUMMARY File=ZIG$DDE1.:ZIC0TSI                            FRI 09/05/97 11:43 Page:151

   2620 22 004551   000000 235003                    LDA     0,DU
        22 004552   200126 757100                    STAQ    C7V+3,,AUTO
        22 004553   000100 301500                    BTD
        22 004554   200126 000010                    NDSC9   C7V+3,,AUTO              cn=0,s=lsgnf,sf=0,n=8
        22 004555   200115 030011                    NDSC9   BYTES,,AUTO              cn=0,s=nosgn,sf=0,n=9

      851     2621    3           IF BYTES = '000000000' THEN BYTES = '        0';

   2621 22 004556   040000 106500                    CMPC    fill='040'O
        22 004557   200115 000011                    ADSC9   BYTES,,AUTO              cn=0,n=9
        22 004560   001351 000011 21                 ADSC9   745                      cn=0,n=9
        22 004561   004566 601000 22                 TNZ     s:2622

   2621 22 004562   040100 100400                    MLR     fill='040'O
        22 004563   001354 000011 21                 ADSC9   748                      cn=0,n=9
        22 004564   200115 000011                    ADSC9   BYTES,,AUTO              cn=0,n=9
        22 004565   004607 710000 22                 TRA     s:2628

      852     2622    4           ELSE DO K = 0 TO 7; /* ZERO SUPPRESS */

   2622 22 004566   200011 450100                    STZ     K,,AUTO

      853     2623    4               IF SUBSTR(BYTES,K,1) = '0' THEN

   2623 22 004567   200011 235100                    LDA     K,,AUTO
        22 004570   040000 106505                    CMPC    fill='040'O
        22 004571   200115 000001                    ADSC9   BYTES,A,AUTO             cn=0,n=1
        22 004572   000215 000001 23                 ADSC9   141                      cn=0,n=1
        22 004573   004600 601000 22                 TNZ     s:2626

      854     2624    4                   CALL INSERT(BYTES,K,1,' ');

   2624 22 004574   040105 100400                    MLR     fill='040'O
        22 004575   000031 000001 23                 ADSC9   25                       cn=0,n=1
        22 004576   200115 000001                    ADSC9   BYTES,A,AUTO             cn=0,n=1
        22 004577   004602 710000 22                 TRA     s:2627
PL6.E3A0      #001=DBA_SUMMARY File=ZIG$DDE1.:ZIC0TSI                            FRI 09/05/97 11:43 Page:152

      855     2625    4               ELSE
      856     2626    4                   K = 8;

   2626 22 004600   000010 236007                    LDQ     8,DL
        22 004601   200011 756100                    STQ     K,,AUTO

      857     2627    4               END;

   2627 22 004602   200011 235100                    LDA     K,,AUTO
        22 004603   000001 035007                    ADLA    1,DL
        22 004604   200011 755100                    STA     K,,AUTO
        22 004605   000010 115007                    CMPA    8,DL
        22 004606   004567 602000 22                 TNC     s:2623

      858     2628    3           IF X * 2 = Y THEN

   2628 22 004607   200010 235100                    LDA     Y,,AUTO
        22 004610   000022 731000                    ARS     18
        22 004611   200126 755100                    STA     C7V+3,,AUTO
        22 004612   200104 236100                    LDQ     X,,AUTO
        22 004613   000001 736000                    QLS     1
        22 004614   004623 604000 22                 TMI     s:2631
        22 004615   200126 116100                    CMPQ    C7V+3,,AUTO
        22 004616   004623 601000 22                 TNZ     s:2631

      859     2629    3               BITS = '    0';

   2629 22 004617   040100 100400                    MLR     fill='040'O
        22 004620   001146 000005 21                 ADSC9   614                      cn=0,n=5
        22 004621   200120 000005                    ADSC9   BITS,,AUTO               cn=0,n=5
        22 004622   004626 710000 22                 TRA     s:2633

      860     2630    3           ELSE
      861     2631    3               BITS = '    4';

   2631 22 004623   040100 100400                    MLR     fill='040'O
PL6.E3A0      #001=DBA_SUMMARY File=ZIG$DDE1.:ZIC0TSI                            FRI 09/05/97 11:43 Page:153
        22 004624   001357 000005 21                 ADSC9   751                      cn=0,n=5
        22 004625   200120 000005                    ADSC9   BITS,,AUTO               cn=0,n=5

      862     2632    3           END;

      863     2633    2       CALL CONCAT(C14 , BYTES , BITS);

   2633 22 004626   040100 100500                    MLR     fill='040'O
        22 004627   200115 000011                    ADSC9   BYTES,,AUTO              cn=0,n=9
        22 004630   200034 000011                    ADSC9   C14,,AUTO                cn=0,n=9
        22 004631   040100 100500                    MLR     fill='040'O
        22 004632   200120 000005                    ADSC9   BITS,,AUTO               cn=0,n=5
        22 004633   200036 200005                    ADSC9   C14+2,,AUTO              cn=1,n=5

      864     2634    2       BYTES = ' '; BITS = ' ';

   2634 22 004634   040100 100400                    MLR     fill='040'O
        22 004635   000031 000001 23                 ADSC9   25                       cn=0,n=1
        22 004636   200115 000011                    ADSC9   BYTES,,AUTO              cn=0,n=9

   2634 22 004637   040100 100400                    MLR     fill='040'O
        22 004640   000031 000001 23                 ADSC9   25                       cn=0,n=1
        22 004641   200120 000005                    ADSC9   BITS,,AUTO               cn=0,n=5

      865     2635    2   END SIZE;

   2635 22 004642   200114 221300                    LDX1  ! C15+5,,AUTO
        22 004643   000001 702211                    TSX2  ! 1,X1

      866     2636    1   P_S_S:

   2636 22 004644   200114 741300       P_S_S        STX1  ! C15+5,,AUTO

      867     2637    1       PROC;
      868     2638    2   DCL PREC CHAR(7);
      869     2639    2   DCL SCALE CHAR(7);
      870     2640    2   DCL SIGN CHAR(6);
PL6.E3A0      #001=DBA_SUMMARY File=ZIG$DDE1.:ZIC0TSI                            FRI 09/05/97 11:43 Page:154
      871     2641    2   DCL C7V CHAR(7) ;
      872     2642    2       IF UWA.FR.FTYPE = 0 THEN

   2642 22 004645   000334 235000 16                 LDA     UWA+220
        22 004646   004653 601000 22                 TNZ     s:2647

      873     2643    3       DO;

      874     2644    3           C20 = ' ';

   2644 22 004647   040100 100400                    MLR     fill='040'O
        22 004650   000031 000001 23                 ADSC9   25                       cn=0,n=1
        22 004651   200040 000024                    ADSC9   C20,,AUTO                cn=0,n=20

      875     2645    3           RETURN;

   2645 22 004652   000001 702211                    TSX2  ! 1,X1

      876     2646    3           END;
      877     2647    2       SCALE = ' ';

   2647 22 004653   040100 100400                    MLR     fill='040'O
        22 004654   000031 000001 23                 ADSC9   25                       cn=0,n=1
        22 004655   200117 000007                    ADSC9   SCALE,,AUTO              cn=0,n=7

      878     2648    2       CALL BINCHAR(PREC,UWA.FR.PREC);

   2648 22 004656   000100 301400                    BTD
        22 004657   000335 000004 16                 NDSC9   UWA+221                  cn=0,s=lsgnf,sf=0,n=4
        22 004660   200115 030007                    NDSC9   PREC,,AUTO               cn=0,s=nosgn,sf=0,n=7

      879     2649    2       IF PREC = '0000000' THEN PREC = '      0';

   2649 22 004661   040000 106500                    CMPC    fill='040'O
        22 004662   200115 000007                    ADSC9   PREC,,AUTO               cn=0,n=7
        22 004663   001351 000007 21                 ADSC9   745                      cn=0,n=7
        22 004664   004671 601000 22                 TNZ     s:2650
PL6.E3A0      #001=DBA_SUMMARY File=ZIG$DDE1.:ZIC0TSI                            FRI 09/05/97 11:43 Page:155

   2649 22 004665   040100 100400                    MLR     fill='040'O
        22 004666   001361 000007 21                 ADSC9   753                      cn=0,n=7
        22 004667   200115 000007                    ADSC9   PREC,,AUTO               cn=0,n=7
        22 004670   004712 710000 22                 TRA     s:2656

      880     2650    3       ELSE DO X = 0 TO 5; /* ZERO SUPPRESS */

   2650 22 004671   200104 450100                    STZ     X,,AUTO

      881     2651    3           IF SUBSTR(PREC,X,1) = '0' THEN

   2651 22 004672   200104 235100                    LDA     X,,AUTO
        22 004673   040000 106505                    CMPC    fill='040'O
        22 004674   200115 000001                    ADSC9   PREC,A,AUTO              cn=0,n=1
        22 004675   000215 000001 23                 ADSC9   141                      cn=0,n=1
        22 004676   004703 601000 22                 TNZ     s:2654

      882     2652    3               CALL INSERT(PREC,X,1,' ');

   2652 22 004677   040105 100400                    MLR     fill='040'O
        22 004700   000031 000001 23                 ADSC9   25                       cn=0,n=1
        22 004701   200115 000001                    ADSC9   PREC,A,AUTO              cn=0,n=1
        22 004702   004705 710000 22                 TRA     s:2655

      883     2653    3           ELSE
      884     2654    3               X = 6;

   2654 22 004703   000006 236007                    LDQ     6,DL
        22 004704   200104 756100                    STQ     X,,AUTO

      885     2655    3           END;

   2655 22 004705   200104 235100                    LDA     X,,AUTO
        22 004706   000001 035007                    ADLA    1,DL
        22 004707   200104 755100                    STA     X,,AUTO
        22 004710   000006 115007                    CMPA    6,DL
PL6.E3A0      #001=DBA_SUMMARY File=ZIG$DDE1.:ZIC0TSI                            FRI 09/05/97 11:43 Page:156
        22 004711   004672 602000 22                 TNC     s:2651

      886     2656    2       IF UWA.FR.FTYPE = 1 OR UWA.FR.FTYPE = 2 OR

   2656 22 004712   000334 235000 16                 LDA     UWA+220
        22 004713   000001 115007                    CMPA    1,DL
        22 004714   004723 600000 22                 TZE     s:2658
        22 004715   000002 115007                    CMPA    2,DL
        22 004716   004723 600000 22                 TZE     s:2658
        22 004717   000013 115007                    CMPA    11,DL
        22 004720   004723 600000 22                 TZE     s:2658
        22 004721   000014 115007                    CMPA    12,DL
        22 004722   004727 601000 22                 TNZ     s:2660

      887     2657    2          UWA.FR.FTYPE = 11 OR UWA.FR.FTYPE = 12 THEN
      888     2658    2           SIGN = '   YES';

   2658 22 004723   040100 100400                    MLR     fill='040'O
        22 004724   001363 000006 21                 ADSC9   755                      cn=0,n=6
        22 004725   200121 000006                    ADSC9   SIGN,,AUTO               cn=0,n=6
        22 004726   004732 710000 22                 TRA     s:2661

      889     2659    2       ELSE
      890     2660    2           SIGN = ' ';

   2660 22 004727   040100 100400                    MLR     fill='040'O
        22 004730   000031 000001 23                 ADSC9   25                       cn=0,n=1
        22 004731   200121 000006                    ADSC9   SIGN,,AUTO               cn=0,n=6

      891     2661    2       IF UWA.FR.FTYPE = 3 OR UWA.FR.FTYPE = 4 THEN

   2661 22 004732   000003 115007                    CMPA    3,DL
        22 004733   004736 600000 22                 TZE     s:2663
        22 004734   000004 115007                    CMPA    4,DL
        22 004735   005054 601000 22                 TNZ     s:2692

      892     2662    3       DO;
PL6.E3A0      #001=DBA_SUMMARY File=ZIG$DDE1.:ZIC0TSI                            FRI 09/05/97 11:43 Page:157

      893     2663    3           IF UWA.FR.F_SIGN = 1 THEN

   2663 22 004736   000337 236000 16                 LDQ     UWA+223
        22 004737   000001 116007                    CMPQ    1,DL
        22 004740   004745 601000 22                 TNZ     s:2666

      894     2664    3               SIGN = '   YES';

   2664 22 004741   040100 100400                    MLR     fill='040'O
        22 004742   001363 000006 21                 ADSC9   755                      cn=0,n=6
        22 004743   200121 000006                    ADSC9   SIGN,,AUTO               cn=0,n=6
        22 004744   004750 710000 22                 TRA     s:2667

      895     2665    3           ELSE
      896     2666    3               SIGN = '    NO';

   2666 22 004745   040100 100400                    MLR     fill='040'O
        22 004746   001365 000006 21                 ADSC9   757                      cn=0,n=6
        22 004747   200121 000006                    ADSC9   SIGN,,AUTO               cn=0,n=6

      897     2667    3           IF UWA.FR.SCALE > 32 THEN

   2667 22 004750   000336 235000 16                 LDA     UWA+222
        22 004751   000040 115007                    CMPA    32,DL
        22 004752   005020 604400 22                 TMOZ    s:2683

      898     2668    4           DO;

      899     2669    4               K = 256 - UWA.FR.SCALE;

   2669 22 004753   000222 675000 23                 ERA     146
        22 004754   000401 035007                    ADLA    257,DL
        22 004755   200011 755100                    STA     K,,AUTO

      900     2670    4               CALL BINCHAR(SCALE,K);

PL6.E3A0      #001=DBA_SUMMARY File=ZIG$DDE1.:ZIC0TSI                            FRI 09/05/97 11:43 Page:158
   2670 22 004756   000044 773000                    LRL     36
        22 004757   200126 757100                    STAQ    C7V+3,,AUTO
        22 004760   000100 301500                    BTD
        22 004761   200126 000010                    NDSC9   C7V+3,,AUTO              cn=0,s=lsgnf,sf=0,n=8
        22 004762   200117 030007                    NDSC9   SCALE,,AUTO              cn=0,s=nosgn,sf=0,n=7

      901     2671    4               IF SCALE = '0000000' THEN SCALE = '      0';

   2671 22 004763   040000 106500                    CMPC    fill='040'O
        22 004764   200117 000007                    ADSC9   SCALE,,AUTO              cn=0,n=7
        22 004765   001351 000007 21                 ADSC9   745                      cn=0,n=7
        22 004766   004773 601000 22                 TNZ     s:2672

   2671 22 004767   040100 100400                    MLR     fill='040'O
        22 004770   001361 000007 21                 ADSC9   753                      cn=0,n=7
        22 004771   200117 000007                    ADSC9   SCALE,,AUTO              cn=0,n=7
        22 004772   005054 710000 22                 TRA     s:2692

      902     2672    5               ELSE DO X = 0 TO 5; /* ZERO SUP */

   2672 22 004773   200104 450100                    STZ     X,,AUTO

      903     2673    5                   IF SUBSTR(SCALE,X,1) = '0' THEN

   2673 22 004774   200104 235100                    LDA     X,,AUTO
        22 004775   040000 106505                    CMPC    fill='040'O
        22 004776   200117 000001                    ADSC9   SCALE,A,AUTO             cn=0,n=1
        22 004777   000215 000001 23                 ADSC9   141                      cn=0,n=1
        22 005000   005005 601000 22                 TNZ     s:2676

      904     2674    5                       CALL INSERT(SCALE,X,1,' ');

   2674 22 005001   040105 100400                    MLR     fill='040'O
        22 005002   000031 000001 23                 ADSC9   25                       cn=0,n=1
        22 005003   200117 000001                    ADSC9   SCALE,A,AUTO             cn=0,n=1
        22 005004   005012 710000 22                 TRA     s:2679

PL6.E3A0      #001=DBA_SUMMARY File=ZIG$DDE1.:ZIC0TSI                            FRI 09/05/97 11:43 Page:159
      905     2675    6                   ELSE DO;

      906     2676    6                       CALL INSERT(SCALE,X-1,1,'-');

   2676 22 005005   040105 100400                    MLR     fill='040'O
        22 005006   000223 000001 23                 ADSC9   147                      cn=0,n=1
        22 005007   200116 600001                    ADSC9   @DNUMB+1,A,AUTO          cn=3,n=1

      907     2677    6                       X = 6;

   2677 22 005010   000006 236007                    LDQ     6,DL
        22 005011   200104 756100                    STQ     X,,AUTO

      908     2678    6                       END;

      909     2679    5                   END;

   2679 22 005012   200104 235100                    LDA     X,,AUTO
        22 005013   000001 035007                    ADLA    1,DL
        22 005014   200104 755100                    STA     X,,AUTO
        22 005015   000006 115007                    CMPA    6,DL
        22 005016   004774 602000 22                 TNC     s:2673

      910     2680    4               END;

   2680 22 005017   005054 710000 22                 TRA     s:2692

      911     2681    3           ELSE
      912     2682    4           DO;

      913     2683    4               CALL BINCHAR(SCALE,UWA.FR.SCALE);

   2683 22 005020   000100 301400                    BTD
        22 005021   000336 000004 16                 NDSC9   UWA+222                  cn=0,s=lsgnf,sf=0,n=4
        22 005022   200117 030007                    NDSC9   SCALE,,AUTO              cn=0,s=nosgn,sf=0,n=7

      914     2684    4               IF SCALE = '0000000' THEN SCALE = '      0';
PL6.E3A0      #001=DBA_SUMMARY File=ZIG$DDE1.:ZIC0TSI                            FRI 09/05/97 11:43 Page:160

   2684 22 005023   040000 106500                    CMPC    fill='040'O
        22 005024   200117 000007                    ADSC9   SCALE,,AUTO              cn=0,n=7
        22 005025   001351 000007 21                 ADSC9   745                      cn=0,n=7
        22 005026   005033 601000 22                 TNZ     s:2685

   2684 22 005027   040100 100400                    MLR     fill='040'O
        22 005030   001361 000007 21                 ADSC9   753                      cn=0,n=7
        22 005031   200117 000007                    ADSC9   SCALE,,AUTO              cn=0,n=7
        22 005032   005054 710000 22                 TRA     s:2692

      915     2685    5               ELSE DO X = 0 TO 5; /* ZERO SUP */

   2685 22 005033   200104 450100                    STZ     X,,AUTO

      916     2686    5                   IF SUBSTR(SCALE,X,1) = '0' THEN

   2686 22 005034   200104 235100                    LDA     X,,AUTO
        22 005035   040000 106505                    CMPC    fill='040'O
        22 005036   200117 000001                    ADSC9   SCALE,A,AUTO             cn=0,n=1
        22 005037   000215 000001 23                 ADSC9   141                      cn=0,n=1
        22 005040   005045 601000 22                 TNZ     s:2688

      917     2687    5                       CALL INSERT(SCALE,X,1,' ');

   2687 22 005041   040105 100400                    MLR     fill='040'O
        22 005042   000031 000001 23                 ADSC9   25                       cn=0,n=1
        22 005043   200117 000001                    ADSC9   SCALE,A,AUTO             cn=0,n=1
        22 005044   005047 710000 22                 TRA     s:2689

      918     2688    5                   ELSE X = 6;

   2688 22 005045   000006 236007                    LDQ     6,DL
        22 005046   200104 756100                    STQ     X,,AUTO

      919     2689    5                   END;

PL6.E3A0      #001=DBA_SUMMARY File=ZIG$DDE1.:ZIC0TSI                            FRI 09/05/97 11:43 Page:161
   2689 22 005047   200104 235100                    LDA     X,,AUTO
        22 005050   000001 035007                    ADLA    1,DL
        22 005051   200104 755100                    STA     X,,AUTO
        22 005052   000006 115007                    CMPA    6,DL
        22 005053   005034 602000 22                 TNC     s:2686

      920     2690    4               END;

      921     2691    3           END;

      922     2692    2       CALL CONCAT(C20 , PREC , SCALE , SIGN);

   2692 22 005054   040100 100500                    MLR     fill='040'O
        22 005055   200115 000007                    ADSC9   PREC,,AUTO               cn=0,n=7
        22 005056   200040 000007                    ADSC9   C20,,AUTO                cn=0,n=7
        22 005057   040100 100500                    MLR     fill='040'O
        22 005060   200117 000007                    ADSC9   SCALE,,AUTO              cn=0,n=7
        22 005061   200041 600007                    ADSC9   C20+1,,AUTO              cn=3,n=7
        22 005062   040100 100500                    MLR     fill='040'O
        22 005063   200121 000006                    ADSC9   SIGN,,AUTO               cn=0,n=6
        22 005064   200043 400006                    ADSC9   C20+3,,AUTO              cn=2,n=6

      923     2693    2       PREC = ' '; SCALE = ' '; SIGN = ' ';

   2693 22 005065   040100 100400                    MLR     fill='040'O
        22 005066   000031 000001 23                 ADSC9   25                       cn=0,n=1
        22 005067   200115 000007                    ADSC9   PREC,,AUTO               cn=0,n=7

   2693 22 005070   040100 100400                    MLR     fill='040'O
        22 005071   000031 000001 23                 ADSC9   25                       cn=0,n=1
        22 005072   200117 000007                    ADSC9   SCALE,,AUTO              cn=0,n=7

   2693 22 005073   040100 100400                    MLR     fill='040'O
        22 005074   000031 000001 23                 ADSC9   25                       cn=0,n=1
        22 005075   200121 000006                    ADSC9   SIGN,,AUTO               cn=0,n=6

      924     2694    2   END;
PL6.E3A0      #001=DBA_SUMMARY File=ZIG$DDE1.:ZIC0TSI                            FRI 09/05/97 11:43 Page:162

   2694 22 005076   200114 221300                    LDX1  ! C15+5,,AUTO
        22 005077   000001 702211                    TSX2  ! 1,X1

      925     2695    1   ERROR:
      926     2696    1       CALL ABORT;

   2696 22 005100   000007 631400 23    ERROR        EPPR1   7
        22 005101   000000 701000 xent               TSX1    ABORT
        22 005102   000000 011000                    NOP     0
        22 005103   005142 710000 22                 TRA     s:2712

      927     2697    1   OCT:

   2697 22 005104   200114 741300       OCT          STX1  ! C15+5,,AUTO

      928     2698    1       PROC(DNUMB);
      929     2699    2   DCL DNUMB BIT(36);
      930     2700    2   DCL DNUMB_RDEF(0:11) REDEF DNUMB BIT(3);
      931     2701    2   DCL B3 BIT(3);
      932     2702    2   DCL ODIG(0:7) CHAR(1) STATIC INIT('0','1','2','3','4','5',
      933     2703    2    '6', '7');
      934     2704    2       X2 = 0;

   2704 22 005105   000000 220003                    LDX0    0,DU
        22 005106   200014 740100                    STX0    X2,,AUTO

      935     2705    3       DO X = 0 TO 11;

   2705 22 005107   200104 450100                    STZ     X,,AUTO

      936     2706    3           B3 = DNUMB_RDEF(X);

   2706 22 005110   200104 236100                    LDQ     X,,AUTO
        22 005111   000003 402007                    MPY     3,DL
        22 005112   200115 470500                    LDP0    @DNUMB,,AUTO
        22 005113   003100 060506                    CSL     bolr='003'O
PL6.E3A0      #001=DBA_SUMMARY File=ZIG$DDE1.:ZIC0TSI                            FRI 09/05/97 11:43 Page:163
        22 005114   000000 000003                    BDSC    0,Q,PR0                  by=0,bit=0,n=3
        22 005115   200116 000003                    BDSC    B3,,AUTO                 by=0,bit=0,n=3

      937     2707    3           X1 = BITBIN(B3);

   2707 22 005116   200116 236100                    LDQ     B3,,AUTO
        22 005117   000041 772000                    QRL     33
        22 005120   000000 620006                    EAX0    0,QL
        22 005121   200012 740100                    STX0    X1,,AUTO

      938     2708    3           CALL INSERT(OSTR,X2,1,ODIG(X1));

   2708 22 005122   200012 235100                    LDA     X1,,AUTO
        22 005123   000022 731000                    ARS     18
        22 005124   200014 236100                    LDQ     X2,,AUTO
        22 005125   000022 732000                    QRS     18
        22 005126   040106 100405                    MLR     fill='040'O
        22 005127   000230 000001 17                 ADSC9   ODIG,A                   cn=0,n=1
        22 005130   200045 000001                    ADSC9   OSTR,Q,AUTO              cn=0,n=1

      939     2709    3           X2 = X2 + 1;

   2709 22 005131   000001 621006                    EAX1    1,QL
        22 005132   200014 741100                    STX1    X2,,AUTO

      940     2710    3           END;

   2710 22 005133   200104 236100                    LDQ     X,,AUTO
        22 005134   000001 036007                    ADLQ    1,DL
        22 005135   200104 756100                    STQ     X,,AUTO
        22 005136   000014 116007                    CMPQ    12,DL
        22 005137   005110 602000 22                 TNC     s:2706

      941     2711    2   END OCT;

   2711 22 005140   200114 221300                    LDX1  ! C15+5,,AUTO
        22 005141   000001 702211                    TSX2  ! 1,X1
PL6.E3A0      #001=DBA_SUMMARY File=ZIG$DDE1.:ZIC0TSI                            FRI 09/05/97 11:43 Page:164

      942     2712    1   END DBA_SUMMARY;

   2712 22 005142   000000 702200 xent               TSX2  ! X66_ARET

UWA_KEY
 Sect OctLoc
   7     000   007125 127101   ****** ******                                    .UWA....

RVA_KEY
 Sect OctLoc
   9     000   007122 126101   ****** ******                                    .RVA....

IA__KEY
 Sect OctLoc
  10     000   007111 101137   ****** ******                                    .IA_....

SEARCHR_NB
 Sect OctLoc
  12     000   001001 001001   001001 001001   001001 001001   001001 001001    ................
  12     010*  000001 001001   001001 001001   001001 001001   001001 001001    ................
  12     014   001001 001001   001001 001001   001001 001001   001001 001001    ................
  12     034*  001001 001001   001001 001001   001001 001001   001001 001001    ................

SEM_COM
 Sect OctLoc
  13     000   000001 002003   004005 006007   010011 012013   014015 016017    ................
  13     004   020021 022023   024025 026027   030031 032033   034035 036037    ................
  13     010   040041 042043   044045 046047   050051 052053   054055 056057     !"#$%&'()*+,-./
  13     014   060061 062063   064065 066067   070071 072040   074075 076077    0123456789: <=>?
  13     020   100101 102103   104105 106107   110111 112113   114115 116117    @ABCDEFGHIJKLMNO
  13     024   120121 122123   124125 126127   130131 132133   134135 136137    PQRSTUVWXYZ[\]^_
  13     030   140141 142143   144145 146147   150151 152153   154155 156157    `abcdefghijklmno
  13     034   160161 162163   164165 166167   170171 172173   174175 176177    pqrstuvwxyz{|}~.

DMCL_XLATE
 Sect OctLoc
PL6.E3A0      #001=DBA_SUMMARY File=ZIG$DDE1.:ZIC0TSI                            FRI 09/05/97 11:43 Page:165
  14     000   000001 002003   004005 006007   010011 012013   014015 016017    ................
  14     004   020021 022023   024025 026027   030031 032033   034035 036037    ................
  14     010   040041 041043   044045 046047   050051 052053   054055 136057     !!#$%&'()*+,-^/
  14     014   060061 062063   064065 066067   070071 072040   074075 076077    0123456789: <=>?
  14     020   100101 102103   104105 106107   110111 112113   114115 116117    @ABCDEFGHIJKLMNO
  14     024   120121 122123   124125 126127   130131 132133   134135 136137    PQRSTUVWXYZ[\]^_
  14     030   140141 142143   144145 146147   150151 152153   154155 156157    `abcdefghijklmno
  14     034   160161 162163   164165 166167   170171 172173   174175 176177    pqrstuvwxyz{|}~.

Q2_PERCENT
 Sect OctLoc
  15     000   000001 002003   004005 006007   010011 012013   014015 016017    ................
  15     004   020021 022023   024025 026027   030031 032033   034035 036037    ................
  15     010   040041 045043   044045 046047   050051 052053   054055 056057     !%#$%&'()*+,-./
  15     014   060061 062063   064065 066067   070071 072073   074075 076077    0123456789:;<=>?
  15     020   100101 102103   104105 106107   110111 112113   114115 116117    @ABCDEFGHIJKLMNO
  15     024   120121 122123   124125 126127   130131 132133   134135 136137    PQRSTUVWXYZ[\]^_
  15     030   140141 142143   144145 146147   150151 152153   154155 156157    `abcdefghijklmno
  15     034   160161 162163   164165 166167   170171 172173   174175 176177    pqrstuvwxyz{|}~.

UWA
 Sect OctLoc
  16     000   000000 000000   040040 040040   040040 040040   040040 040040    ....
  16     004   040040 040040   040040 040040   040040 040040   040040 040040
  16     010   040040 040040   040040 040040   040040 000000   040040 040040              ..
  16     014   040040 040040   040040 040040   040040 040040   040040 040040
  16     020   040040 040040   040040 040040   040040 000000   040040 040040              ..
  16     024   040040 040040   040040 040040   040040 040040   040040 040040
  16     030   040040 040040   040040 040040   040040 000000   040040 040040              ..
  16     034   040040 040040   040040 040040   000000 000000   040040 040040            ....
  16     040   040040 040040   040040 040040   040040 040040   040040 040040
  16     044   040040 040040   040040 040040   040040 000000   040040 040040              ..
  16     050   040040 040040   040040 040040   040040 040040   040040 040040
  16     054   040040 040040   040040 040040   040040 000000   000000 000000              ......
  16     060   040040 040040   040*** ******   000000 000000   000000 000000         ...........
  16     064   000000 000000   000000 000000   040040 040040   040040 040040    ........
  16     070   040040 040040   040040 040040   040040 040040   040040 040040
PL6.E3A0      #001=DBA_SUMMARY File=ZIG$DDE1.:ZIC0TSI                            FRI 09/05/97 11:43 Page:166
  16     100*  040040 ******   000000 000000   040040 040040   040040 040040      ......
  16     104   040040 040040   040040 040040   040040 040040   040040 040040
  16     124*  040040 040040   040040 040040   000000 000000   040040 040040            ....
  16     130   040040 040040   040040 040040   040040 040040   040040 040040
  16     134   040040 040040   040040 040040   040040 ******   000000 000000              ......
  16     140   040040 040040   040040 040040   040040 040040   040040 040040
  16     144   040040 040040   040040 040040   000000 000000   000000 000000            ........
  16     150   000000 000000   000000 000000   000000 000000   000000 000000    ................
  16     154   040040 040040   040040 040040   040040 040040   040040 040040
  16     160   040040 040040   040040 040040   040040 040040   040040 ******                  ..
  16     164   000000 000000   ****** ******   000000 000000   000000 000000    ................
  16     170   000000 000000   040040 040040   040040 040040   040040 040040    ....
  16     174   040040 040040   040040 040040   040040 040040   040040 040040
  16     210*  040040 040040   040040 040040   040040 040040   ****** ******                ....
  16     214   000000 000000   000000 000000   000000 000000   000000 000000    ................
  16     224*  000000 000000   000000 000000   000000 000000   040040 ******    ............  ..
  16     230   000000 000000   ****** ******   000000 000000   040040 040040    ............
  16     234   000000 000000   000000 000000   000000 000000   000000 000000    ................
  16     264*  000000 000000   000000 000000   000000 000000   ****** ******    ................
  16     270   000000 000000   000000 000000   000000 000000   000000 000000    ................
  16     324*  000000 000000   ****** ******   000000 000000   000000 000000    ................
  16     330   000000 000000   000000 000000   000000 000000   000000 000000    ................
  16     350*  000000 000000   000000 000000   000000 000000   ****** ******    ................
  16     360*  000000 000000   000000 000000   000000 000000   000000 000000    ................
  16     404*  000000 000000   ****** ******   000000 000000   000000 000000    ................
  16     410   000000 000000   000000 000000   000000 000000   000000 000000    ................
  16     424*  000000 000000   000000 000000   000000 000000   040040 040040    ............
  16     430   040040 040040   040040 040040   040040 040040   040040 040040
  16     434   040040 040040   040040 040040   040040 ******   ****** ******              ......
  16     440   040040 040040   040040 040040   040040 040040   040040 040040
  16     450*  040040 040040   040040 040040   040040 ******   ****** ******              ......
  16     454   000000 000000   040040 040040   040040 040040   040040 040040    ....
  16     460   040040 040040   040040 040040   040040 040040   040040 040040
  16     464   040040 ******   ****** ******   000000 000000   000000 000000      ..............
  16     470   000000 000000   000000 000000   000000 000000   000000 000000    ................
  16     474   000000 000000   ****** ******   000000 000000   000000 000000    ................
  16     500   000000 000000   000000 000000   040040 040040   040040 040040    ........
PL6.E3A0      #001=DBA_SUMMARY File=ZIG$DDE1.:ZIC0TSI                            FRI 09/05/97 11:43 Page:167
  16     504   040040 040040   040040 040040   040040 040040   040040 040040
  16     520*  040040 040040   ****** ******   000000 000000   000000 000000        ............
  16     524   040040 040040   040040 040040   040040 040040   040040 040040
  16     574*  000000 000000   000000 000000   000000 000000   000000 000000    ................
  16     600   000000 000000   000000 000000   000000 000000   ****** ******    ................
  16     604   000000 000000   000000 000000   000000 000000   000000 000000    ................
  16     610   000000 000000   000000 000000   040040 040040   040040 040040    ........
  16     614   040040 040040   040040 040040   040040 040040   040040 040040
  16     620   040040 040040   040040 ******   040040 040040   040040 040040          ..
  16     624   040040 040040   040040 040040   040040 040040   040040 040040
  16     660*  040040 040040   040040 040040   040040 040040   ****** ******                ....
  16     664   040040 040040   040040 040040   040040 040040   040040 040040
  16     674*  040040 040040   ****** ******   040040 040040   040040 040040        ....
  16     700   040040 040040   040040 040040   040040 040040   040040 040040
  16     710*  040040 040040   ****** ******   040040 040040   040040 040040        ....
  16     714   040040 040040   040040 040040   040040 040040   040040 040040
  16     720   040040 040040   040040 040040   040040 040040   ****** ******                ....
  16     724   040040 040040   040040 040040   040040 040040   040040 040040
  16     740*  040040 040040   ****** ******   040040 040040   040040 040040        ....
  16     744   040040 040040   040040 040040   040040 040040   040040 040040
  16     774*  040040 040040   ****** ******   040040 040040   040040 040040        ....
  16    1000   040040 040040   040040 040040   040040 040040   040040 040040
  16    1034*  040040 040040   ****** ******   040040 040040   040040 040040        ....
  16    1040   040040 040040   040040 040040   040040 040040   040040 040040
  16    1060*  040040 040040   ****** ******   040040 040040   040040 040040        ....
  16    1064   040040 040040   040040 040040   040040 040040   040040 040040
  16    1114*  040040 040040   ****** ******   040040 040040   040040 040040        ....
  16    1120   040040 040040   040040 040040   040040 040040   040040 040040
  16    1134*  040040 040040   040040 040040   040040 040040   ****** ******                ....
  16    1140   040040 040040   040040 040040   040040 040040   040040 040040
  16    1144   040040 040040   ****** ******   040040 040040   040040 040040        ....
  16    1150   040040 040040   040040 040040   040040 040040   ****** ******                ....
  16    1154   040040 040040   040040 040040   040040 040040   040040 040040
  16    1160   040040 040040   ****** ******   040040 040040   040040 040040        ....
  16    1164   040040 040040   040040 040040   040040 040040   ****** ******                ....
  16    1170   040040 040040   040040 040040   040040 040040   040040 040040
  16    1200*  040040 040040   040040 040040   040040 040040   ****** ******                ....
PL6.E3A0      #001=DBA_SUMMARY File=ZIG$DDE1.:ZIC0TSI                            FRI 09/05/97 11:43 Page:168
  16    1204   040040 040040   040040 040040   040040 040040   040040 040040
  16    1214*  040040 040040   040040 040040   040040 040040   040040 040040

C17_1
 Sect OctLoc
  17     022   ****** ******   ****** ******   ****** ******   ****** ******    ................

C30
 Sect OctLoc
  17     027   ****** ******   ****** ******   ****** ******   ****** ******    ................

O_L
 Sect OctLoc
  17     037   ****** ******   ****** ******   ****** ******   ****** ******    ................

DTYP
 Sect OctLoc
  17     106   104102 113105   131040 040040   102111 116101   122131 040040    DBKEY   BINARY
  17     112   102111 116101   122131 040040   104105 103111   115101 114040    BINARY  DECIMAL
  17     116   104105 103111   115101 114040   103110 101122   040040 040040    DECIMAL CHAR
  17     122   125116 104105   106116 104040   125116 104105   106116 104040    UNDEFND UNDEFND
  17     126   125116 104105   106116 104040   125116 123120   105103 040040    UNDEFND UNSPEC
  17     132   040040 040040   040040 040040   106114 124040   102111 116040            FLT BIN
  17     136   106114 124040   102111 116040   040040 040040   040040 040040    FLT BIN
  17     142   040040 040040   040040 040040   040040 040040   040040 040040
  17     152*  040040 040040   040040 040040   106103 127040   040040 040040            FCW

DEIS4
 Sect OctLoc
  17     157   000000 040010                                                    .. .

DEIS8
 Sect OctLoc
  17     160   000000 040020                                                    .. .

DEIS2
 Sect OctLoc
PL6.E3A0      #001=DBA_SUMMARY File=ZIG$DDE1.:ZIC0TSI                            FRI 09/05/97 11:43 Page:169
  17     161   000000 040004                                                    .. .

AREA
 Sect OctLoc
  17     162   ****** ******   ****** ******   ****** ******   ****** ******    ................

RANGE
 Sect OctLoc
  17     204   ****** ******   ****** ******   ****** ******   ****** ******    ................

DB
 Sect OctLoc
  17     214   000000 ******   000000 ******   000000 ******   000000 ******    ................
  17     220   000000 ******   000000 000000   000000 000000   000000 000000    ................

RNG
 Sect OctLoc
  17     225   000000 000000                                                    ....

D
 Sect OctLoc
  17     226   000000 000000                                                    ....

TOTAL_PAGES
 Sect OctLoc
  17     227   000000 000000                                                    ....

ODIG
 Sect OctLoc
  17     230   060061 062063   064065 066067                                    01234567

FIELD1
 Sect OctLoc
  18     000   ****** ******   ****** ******   ****** ******   ****** ******    ................

FIELD2
 Sect OctLoc
PL6.E3A0      #001=DBA_SUMMARY File=ZIG$DDE1.:ZIC0TSI                            FRI 09/05/97 11:43 Page:170
  19     000   ****** ******   ****** ******   ****** ******   ****** ******    ................

FIELD3
 Sect OctLoc
  20     000   ****** ******   ****** ******   ****** ******   ****** ******    ................

(unnamed)
 Sect OctLoc
  21     000   104101 124101   040102 101123   105040 123124   117122 101107    DATA BASE STORAG
  21     004   105040 123124   122125 103124   125122 105040   123125 115115    E STRUCTURE SUMM
  21     010   101122 131040   040040 040040   040040 040040   040040 040040    ARY
  21     014   040040 040040   040040 040040   040040 040040   040040 040040
  21     020   000000 040000   117101 055101   103040 040040   104101 124101    .. .OA-AC   DATA
  21     024   040102 101123   105040 103101   120101 103111   124131 040123     BASE CAPACITY S
  21     030   125115 115101   122131 052052   052040 040040   124117 124101    UMMARY***   TOTA
  21     034   114040 104101   124101 040102   101123 105040   113105 131123    L DATA BASE KEYS
  21     040   040101 114114   117103 101124   105104 040124   117040 101114     ALLOCATED TO AL
  21     044   114040 101122   105101 123040   111123 040040   107114 117102    L AREAS IS  GLOB
  21     050   101114 040123   105124 040120   117111 116124   105122 123040    AL SET POINTERS
  21     054   101122 105040   040102 131124   105123 040040   124117 124101    ARE  BYTES  TOTA
  21     060   114040 106111   114105 040123   120101 103105   040122 105121    L FILE SPACE REQ
  21     064   125111 122105   104040 106117   122040 101114   114040 101122    UIRED FOR ALL AR
  21     070   105101 123040   111123 072040   120101 107105   123056 056056    EAS IS: PAGES...
  21     074   056056 056056   056056 056056   056056 040040   123116 055123    ..........  SN-S
  21     100   105040 040040   123125 115115   101122 131040   106117 122040    E   SUMMARY FOR
  21     104   101122 105101   040042 040040   042040 052052   052040 040040    AREA "  " ***
  21     110   101122 105101   040117 122107   101116 111132   101124 111117    AREA ORGANIZATIO
  21     114   116040 111123   040111 116104   105130 105104   101122 105101    N IS INDEXEDAREA
  21     120   040117 122107   101116 111132   101124 111117   116040 111123     ORGANIZATION IS
  21     124   040111 116124   105107 122101   124105 104040   101122 105101     INTEGRATED AREA
  21     130   040103 117116   124105 116124   040111 123040   124105 115120     CONTENT IS TEMP
  21     134   117122 101122   131056 040040   101122 105101   040103 117116    ORARY.  AREA CON
  21     140   124105 116124   040111 123040   120105 122115   101116 105116    TENT IS PERMANEN
  21     144   124056 040040   101122 105101   040111 123040   124105 115120    T.  AREA IS TEMP
  21     150   114101 124105   056040 040040   103110 105103   113123 125115    LATE.   CHECKSUM
  21     154   111116 107040   111123 040122   105121 125111   122105 104040    ING IS REQUIRED
  21     160   103110 105103   113123 125115   111116 107040   111123 040116    CHECKSUMING IS N
PL6.E3A0      #001=DBA_SUMMARY File=ZIG$DDE1.:ZIC0TSI                            FRI 09/05/97 11:43 Page:171
  21     164   117124 040122   105121 125111   122105 104040   105116 103122    OT REQUIRED ENCR
  21     170   131120 124111   117116 040111   123040 122105   121125 111122    YPTION IS REQUIR
  21     174   105104 040040   105116 103122   131120 124111   117116 040111    ED  ENCRYPTION I
  21     200   123040 116117   124040 101114   114117 127105   104040 040040    S NOT ALLOWED
  21     204   112117 125122   116101 114111   116107 040111   123040 122105    JOURNALING IS RE
  21     210   121125 111122   105104 040040   102101 103113   125120 040111    QUIRED  BACKUP I
  21     214   123040 122105   121125 111122   105104 040040   102101 103113    S REQUIRED  BACK
  21     220   125120 040111   123040 116117   124040 122105   121125 111122    UP IS NOT REQUIR
  21     224   105104 040040   114117 103101   114040 120117   111116 124105    ED  LOCAL POINTE
  21     230   122040 123111   132105 040050   102131 124105   123051 040111    R SIZE (BYTES) I
  21     234   123040 040040   120101 107105   040111 116126   105116 124117    S   PAGE INVENTO
  21     240   122131 040120   122117 103105   123123 111116   107040 102105    RY PROCESSING BE
  21     244   107111 116123   040127 110105   116040 101126   101111 114101    GINS WHEN AVAILA
  21     250   102114 105040   123120 101103   105040 117116   040101 040120    BLE SPACE ON A P
  21     254   101107 105040   111123 040040   040102 131124   105123 040117    AGE IS   BYTES O
  21     260   122040 114105   123123 056040   120101 107105   040111 116126    R LESS. PAGE INV
  21     264   105116 124117   122131 040120   122117 103105   123123 111116    ENTORY PROCESSIN
  21     270   107040 127111   114114 040116   117124 040102   105040 101120    G WILL NOT BE AP
  21     274   120114 111105   104040 040040   124117 040124   110111 123040    PLIED   TO THIS
  21     300   101122 105101   056040 040040   104125 122111   116107 040111    AREA.   DURING I
  21     304   116111 124111   101114 040114   117101 104111   116107 040117    NITIAL LOADING O
  21     310   106040 124110   105040 113105   131040 106111   114105 040050    F THE KEY FILE (
  21     314   102125 124040   116117 124040   124110 105040   104101 124101    BUT NOT THE DATA
  21     320   040106 111114   105051 054040   040102 131124   105123 040117     FILE),  BYTES O
  21     324   106040 105101   103110 040120   101107 105040   127111 114114    F EACH PAGE WILL
  21     330   040102 105040   125123 105104   056040 040040   104125 122111     BE USED.   DURI
  21     334   116107 040111   116111 124111   101114 040114   117101 104111    NG INITIAL LOADI
  21     340   116107 040117   106040 102117   124110 040124   110105 040104    NG OF BOTH THE D
  21     344   101124 101040   106111 114105   040101 116104   124110 105040    ATA FILE ANDTHE
  21     350   113105 131040   106111 114105   054040 040040   101122 105101    KEY FILE,   AREA
  21     354   040120 101107   105040 103101   120101 103111   124131 040123     PAGE CAPACITY S
  21     360   125115 115101   122131 052052   052040 040040   116125 115102    UMMARY***   NUMB
  21     364   105122 040117   106040 104101   124101 040120   101107 105123    ER OF DATA PAGES
  21     370   056056 056056   056056 056056   056056 056056   101124 124122    ............ATTR
  21     374   111102 125124   105040 120101   107105 040056   056056 056056    IBUTE PAGE .....
  21     400   056056 056056   056056 056056   056056 056056   061040 040040    ............1
  21     404   116125 115102   105122 040117   106040 111116   126105 116124    NUMBER OF INVENT
PL6.E3A0      #001=DBA_SUMMARY File=ZIG$DDE1.:ZIC0TSI                            FRI 09/05/97 11:43 Page:172
  21     410   117122 131040   120101 107105   123056 056056   056056 056056    ORY PAGES.......
  21     414   124117 124101   114040 120101   107105 123040   111116 040101    TOTAL PAGES IN A
  21     420   122105 101056   056056 056056   056056 056056   056056 056056    REA.............
  21     424   120101 107105   040123 111132   105040 050102   131124 105123    PAGE SIZE (BYTES
  21     430   051056 056056   056056 056056   056056 056056   056056 056056    )...............
  21     434   064060 071066   101126 101111   114101 102114   105040 120101    4096AVAILABLE PA
  21     440   107105 040123   120101 103105   050102 131124   105123 051056    GE SPACE(BYTES).
  21     444   056056 056056   104101 124101   137102 101123   105137 113105    ....DATA_BASE_KE
  21     450   131040 125123   101107 105040   123125 115115   101122 131052    Y USAGE SUMMARY*
  21     454   052052 040040   124117 124101   114040 113105   131123 040101    **  TOTAL KEYS A
  21     460   114114 117103   101124 105104   056056 056056   056056 056056    LLOCATED........
  21     464   056056 056056   124117 124101   114040 113105   131123 040122    ....TOTAL KEYS R
  21     470   105123 105122   126105 104056   056056 056056   056056 056056    ESERVED.........
  21     474   056056 056056   124117 124101   114040 103101   114103 040110    ....TOTAL CALC H
  21     500   105101 104105   122123 056056   056056 056056   056056 056056    EADERS..........
  21     504   056056 056056   124117 124101   114040 113105   131123 040101    ....TOTAL KEYS A
  21     510   126101 111114   101102 114105   056056 056056   056056 056056    VAILABLE........
  21     514   056056 056056   106111 122123   124040 113105   131040 111116    ....FIRST KEY IN
  21     520   040101 122105   101050 115111   116113 051056   056056 056056     AREA(MINK).....
  21     524   056056 056056   104101 124101   040102 101123   105040 113105    ....DATA BASE KE
  21     530   131123 040120   105122 040120   101107 105056   056056 056056    YS PER PAGE.....
  21     534   056056 056056   104101 124101   040102 101123   105040 113105    ....DATA BASE KE
  21     540   131123 040120   105122 040103   101114 103040   110105 101104    YS PER CALC HEAD
  21     544   105122 056056   101122 105101   040122 101116   107105 040123    ER..AREA RANGE S
  21     550   125115 115101   122131 052052   052040 040040   104101 124101    UMMARY***   DATA
  21     554   040102 101123   105040 113105   131040 122101   116107 105123     BASE KEY RANGES
  21     560   114117 103101   114040 040040   040040 040040   040040 040040    LOCAL
  21     564   040040 040040   040040 040040   040040 040040   040107 114117                 GLO
  21     570   102101 114040   040040 040040   040040 040040   040040 040040    BAL
  21     574   040040 040040   040124 117124   101114 040040   040040 040040         TOTAL
  21     600   040040 103101   114103 040040   040040 040040   040040 101126      CALC        AV
  21     604   101111 114040   114117 127040   040040 040040   040040 040040    AIL LOW
  21     610   110111 107110   040040 040040   040040 040040   040040 040040    HIGH
  21     614   040114 117127   040040 040040   040040 040040   040110 111107     LOW         HIG
  21     620   110040 040040   040040 040040   040040 040040   113105 131123    H           KEYS
  21     624   040040 040040   040040 040040   040110 104122   123040 040040             HDRS
  21     630   040040 040040   040113 105131   123040 040040   040122 105103         KEYS    REC
PL6.E3A0      #001=DBA_SUMMARY File=ZIG$DDE1.:ZIC0TSI                            FRI 09/05/97 11:43 Page:173
  21     634   117122 104123   040111 116040   122101 116107   105040 040040    ORDS IN RANGE
  21     640   101103 055122   101040 040040   122103 055122   101040 040040    AC-RA   RC-RA
  21     644   123116 055123   105040 040040   123116 040040   104101 055123    SN-SE   SN  DA-S
  21     650   116040 040040   052104 102120   101122 101115   052120 101040    N   *DBPARAM*PA
  21     654   122103 055106   122040 040040   123125 115115   101122 131040    RC-FR   SUMMARY
  21     660   106117 122040   122105 103117   122104 040042   042040 052052    FOR RECORD "" **
  21     664   052040 040040   124131 120105   040103 117104   105040 111123    *   TYPE CODE IS
  21     670   040040 040040   040050 040040   123111 132105   040111 123040         (  SIZE IS
  21     674   040102 131124   105123 056040   115111 116040   123111 132105     BYTES. MIN SIZE
  21     700   040111 123040   040055 040115   101130 040123   111132 105040     IS  - MAX SIZE
  21     704   111123 040040   122105 103117   122104 040106   117122 115101    IS  RECORD FORMA
  21     710   124052 052052   117040 106040   106040 123040   105040 124040    T***O F F S E T
  21     714   040040 040040   040040 123040   120040 101040   103040 105040          S P A C E
  21     720   040040 040040   040040 040040   040040 040040   040040 040040
  21     730*  040040 124131   120105 040040   040040 040040   127117 122104      TYPE      WORD
  21     734   040040 102131   124105 040040   102111 124040   040040 040040      BYTE  BIT
  21     740   102131 124105   123040 102111   124123 040040   040120 122105    BYTES BITS   PRE
  21     744   103040 040123   103101 114105   040040 123111   107116 040040    C  SCALE  SIGN
  21     750   122103 127040   040040 040040   040040 040040   040060 040040    RCW          0
  21     754   040040 040060   040040 040040   060040 040040   040040 040040       0    0
  21     760   040040 070040   040040 040060   122103 127040   040040 040040      8    0RCW
  21     764   040040 040040   040060 040040   040040 040060   040040 040040         0     0
  21     770   060040 040040   040040 040040   040040 064040   040040 040060    0         4    0
  21     774   040040 040052   052052 040123   105124 040120   117111 116124       *** SET POINT
  21    1000   105122 123040   052052 052040   122103 055123   117123 115040    ERS *** RC-SOSM
  21    1004   123115 040040   123103 055123   117123 115040   116117 040123    SM  SC-SOSM NO S
  21    1010   105124 040120   117111 116124   105122 123056   056056 040040    ET POINTERS...
  21    1014   123117 040040   040040 040040   116105 130124   040040 040040    SO      NEXT
  21    1020   040040 040040   040040 040040   040040 040040   040040 040040
  21    1024   040040 040040   040040 040040   040040 107114   117102 101114              GLOBAL
  21    1030   040120 117111   116124 105122   123040 050120   116124 122040     POINTERS (PNTR
  21    1034   101122 122101   131051 040040   040040 040040   040040 040040    ARRAY)
  21    1040   040040 040040   040040 040040   040040 040040   040040 040040
  21    1044   040040 114117   103101 114040   120117 111116   124105 122123      LOCAL POINTERS
  21    1050   040050 120116   124122 040101   122122 101131   051040 040040     (PNTR ARRAY)
  21    1054   040040 040040   040040 040040   040040 040040   040040 040040
  21    1064*  040040 120122   111117 122040   040040 040040   040040 040040      PRIOR
PL6.E3A0      #001=DBA_SUMMARY File=ZIG$DDE1.:ZIC0TSI                            FRI 09/05/97 11:43 Page:174
  21    1070   120101 055110   105101 104040   052103 101114   103040 040040    PA-HEAD *CALC
  21    1074   040040 040040   040040 040040   040040 040040   040040 040040
  21    1104*  040040 110105   101104 040040   040040 040040   040040 040052      HEAD         *
  21    1110   052052 040104   101124 101040   106111 105114   104123 040052    ** DATA FIELDS *
  21    1114   052052 040040   122103 040040   120101 055105   116124 122131    **  RC  PA-ENTRY
  21    1120   040106 117122   115101 124040   106117 122040   115105 115102     FORMAT FOR MEMB
  21    1124   105122 040042   042040 052052   052040 040040   123115 040040    ER "" ***   SM
  21    1130   122103 055123   117123 115040   120101 055105   116124 122131    RC-SOSM PA-ENTRY
  21    1134   040123 111132   105040 111123   040040 040040   040102 131124     SIZE IS     BYT
  21    1140   105123 056040   105103 127040   040040 040040   040040 040040    ES. ECW
  21    1144   040060 040040   040040 040060   040040 040040   060040 040040     0     0    0
  21    1150   040040 040040   040040 062040   040040 040060   040040 040040          2    0
  21    1154   040040 040040   040040 040040   040040 040040   040040 040040
  21    1160   040040 040040   040040 040040   040040 040040   040040 115105                  ME
  21    1164   115102 105122   040040 040040   040040 040040   040040 040040    MBER
  21    1170   040040 040040   040040 040040   040040 040040   040040 040040
  21    1174   040040 107114   117102 101114   040120 117111   116124 105122      GLOBAL POINTER
  21    1200   040040 040040   040040 040040   040040 040040   040040 040040
  21    1204   040040 040040   040040 040040   040040 114117   103101 114040              LOCAL
  21    1210   120117 111116   124105 122040   040052 052052   040123 105121    POINTER  *** SEQ
  21    1214   125105 116103   105040 113105   131040 106111   105114 104123    UENCE KEY FIELDS
  21    1220   040052 052052   122103 055106   122040 040040   116117 040125     ***RC-FR   NO U
  21    1224   123105 122040   104101 124101   040106 111105   114104 123056    SER DATA FIELDS.
  21    1230   056056 040040   123103 055123   117123 115040   123116 055123    ..  SC-SOSM SN-S
  21    1234   105040 040040   123115 123123   055103 106040   106122 055103    E   SMSS-CF FR-C
  21    1240   106122 040040   103055 106040   106122 055103   106123 040040    FR  C-F FR-CFS
  21    1244   040040 040040   040040 040040   040040 040040   040040 040040
  21    1254*  040040 052106   111114 114040   040040 040040   040040 040040      *FILL
  21    1260   040040 040040   040040 040040   040040 040040   040040 040040
  21    1264   040040 103110   101122 101103   124105 122040   126101 122131      CHARACTER VARY
  21    1270   111116 107040   123116 040040   104101 124101   040102 101123    ING SN  DATA BAS
  21    1274   105040 120101   122101 115105   124105 122040   123125 115115    E PARAMETER SUMM
  21    1300   101122 131040   040040 040040   040040 040040   040040 040040    ARY
  21    1304   040040 040040   040040 040040   040040 040040   040040 040040
  21    1320*  040040 040040   040040 040040   040040 124131   120105 040040              TYPE
  21    1324   040040 040040   040040 040040   040040 040040   040040 040040
  21    1330   040040 040040   040040 120122   105103 040040   123103 101114          PREC  SCAL
PL6.E3A0      #001=DBA_SUMMARY File=ZIG$DDE1.:ZIC0TSI                            FRI 09/05/97 11:43 Page:175
  21    1334   105040 040123   111107 116040   040040 040052   052052 040120    E  SIGN    *** P
  21    1340   101122 101115   105124 105122   040052 052052   060060 060060    ARAMETER ***0000
  21    1344   060060 040040   040040 040040   065040 040040   040040 040040    00      5
  21    1350   061040 040040   060060 060060   060060 060060   060040 040040    1   000000000
  21    1354   040040 040040   040040 040040   060040 040040   040040 040040            0
  21    1360   064040 040040   040040 040040   040040 060040   040040 040131    4         0    Y
  21    1364   105123 040040   040040 040040   116117 040040                    ES      NO

(unnamed)
 Sect OctLoc
  23     000   000001 000000   000000 006000   000351 006000   000224 006000    ................
  23     004   000021 006000   000003 000000   000000 000001   000000 000000    ................
  23     010   000037 006000   000006 006000   000007 006000   000002 000000    ................
  23     014   000006 006000   000221 006000   000000 000002   000000 000003    ................
  23     020   000037 006000   000016 006000   000017 006000   000006 006000    ................
  23     024   000227 006000   000000 000013   000037 006000   000006 006000    ................
  23     030   000025 006000   040040 040040   000000 000143   000037 006000    ....    ...c....
  23     034   000032 006000   000007 006000   000077 006000   000000 000036    .........?......
  23     040   000006 006000   000037 006000   000427 006000   000037 006000    ................
  23     044   000006 006000   000017 006000   000006 006000   000202 006000    ................
  23     050   000006 006000   000203 006000   000037 006000   000016 006000    ................
  23     054   000007 006000   000006 006000   000172 006000   000006 006000    .........z......
  23     060   000173 006000   000006 006000   000263 006000   000006 006000    .{..............
  23     064   000162 006000   000006 006000   000244 006000   000006 006000    .r..............
  23     070   000176 006000   000006 006000   000163 006000   000006 006000    .~.......s......
  23     074   000165 006000   000006 006000   000174 006000   000006 006000    .u.......|......
  23     100   000175 006000   000000 000004   000037 006000   000101 006000    .}...........A..
  23     104   000007 006000   000000 000014   000037 006000   000006 006000    ................
  23     110   000105 006000   000037 006000   000006 006000   000101 006000    .E...........A..
  23     114   000037 006000   000006 006000   000006 006000   000640 006000    ................
  23     120   000006 006000   000211 006000   000006 006000   000210 006000    ................
  23     124   000006 006000   000207 006000   000006 006000   000206 006000    ................
  23     130   000006 006000   000204 006000   000006 006000   000205 006000    ................
  23     134   000006 006000   000213 006000   000642 006000   000644 006000    ................
  23     140   000646 006000   000647 006000   777777 777000   000654 006000    ................
  23     144   000160 006000   000157 006000   000006 006000   000270 006000    .p...o..........
  23     150   051040 040040   000006 006000   000306 006000   000000 000056    )   ............
PL6.E3A0      #001=DBA_SUMMARY File=ZIG$DDE1.:ZIC0TSI                            FRI 09/05/97 11:43 Page:176
  23     154   000037 006000   000006 006000   000153 006000   000000 000042    .........k....."
  23     160   000037 006000   000016 006000   000157 006000   001002 006000    .........o......
  23     164   001005 006000   000355 006000   000356 006000   000370 006000    ................
  23     170   000371 006000   000372 006000   001115 006000   001127 006000    .........M...W..
  23     174   001130 006000   000006 006000   000304 006000   000037 006000    .X..............
  23     200   000006 006000   000157 006000   000373 006000   001221 006000    .....o..........
  23     204   001231 006000   001233 006000   000156 006000   001235 006000    .........n......
  23     210   001237 006000   001241 006000   001242 006000   001271 006000    ................
  23     214   001272 006000   060040 040040   100000 000000   300000 000000    ....0   @.......
  23     220   500000 000000   700000 000000   777777 777777   055040 040040    ............-

PL6.E3A0      #001=DBA_SUMMARY File=ZIG$DDE1.:ZIC0TSI                            FRI 09/05/97 11:43 Page:177
--  Include file information  --

   ZIG_GENERAL.:ZIC0TOU  cannot be made into a system file and is referenced.
   ZI_SUB4_CAN.:ZIC0TOU  is referenced.
   ZI_ERRORS_SUBS.:ZIC0TOU  is referenced.
   ZIA_IDS_DCL.:ZIC0TOU  cannot be made into a system file and is referenced.
   ZIG_DBA_INT.:ZIC0TOU  cannot be made into a system file and is referenced.
   B$JIT_C.:E05TOU  was found in the system file and is never referenced.
   CP_6_C.:E05TOU  was found in the system file and is never referenced.
      No diagnostics issued in procedure DBA_SUMMARY.

   Procedure DBA_SUMMARY requires 2659 words for executable code.
   Procedure DBA_SUMMARY requires 90 words of local(AUTO) storage.

    No errors detected in file ZIG$DDE1.:ZIC0TSI    .
PL6.E3A0      #001=DBA_SUMMARY File=ZIG$DDE1.:ZIC0TSI                            FRI 09/05/97 11:43 Page:178
          *** CROSS REFERENCE LISTING ***
**     DENOTES     IDENTIFIER DEFINITION
<<                 IDENTIFIER'S VALUE SET
>>                 IDENTIFIER'S VALUE USED
<>                 IDENTIFIER SET AND/OR USED
--                 IDENTIFIER REFERENCED
PL6.E3A0      #001=DBA_SUMMARY File=ZIG$DDE1.:ZIC0TSI                            FRI 09/05/97 11:43 Page:179
          MINI XREF LISTING

ABORT
      1363**DCL-ENT  2696--CALL
AREA.AVAIL_KEYS
      1868**DCL      2017<<ASSIGN   2135<>CALL
AREA.BASE
      1873**DCL      1978<<ASSIGN   2176>>ASSIGN   2177>>ASSIGN
AREA.CALC_HDRS
      1879**DCL      1990<<ASSIGN   1993<<ASSIGN   2001>>IF       2003>>IF       2004<<ASSIGN   2004>>ASSIGN
      2005>>DOINDEX  2006>>ASSIGN   2007>>IF       2009<<ASSIGN   2009>>ASSIGN   2017>>ASSIGN   2132<>CALL
AREA.DATA_PGS
      1875**DCL      2018<<ASSIGN   2019>>IF       2020<<ASSIGN   2020>>ASSIGN   2021>>ASSIGN   2104<>CALL
AREA.DBK_CALC
      1878**DCL      1981<<ASSIGN   1990>>ASSIGN   1990>>ASSIGN   2144<>CALL
AREA.DBK_PAGE
      1877**DCL      1980<<ASSIGN   2018>>ASSIGN   2019>>IF       2141<>CALL
AREA.INV_PGS
      1876**DCL      2021<<ASSIGN   2109<>CALL
AREA.INV_THRESH
      1883**DCL      1983<<ASSIGN   2076<>CALL
AREA.LLINKS
      1881**DCL      2022<<ASSIGN   2023>>IF       2024<<ASSIGN   2024>>ASSIGN
AREA.LOAD_LIM
      1884**DCL      1984<<ASSIGN   2091<>CALL     2098<>CALL
AREA.MAX_DBK_GLOB
      1869**DCL      1976<<ASSIGN   1988>>ASSIGN   2062>>ASSIGN
AREA.MAX_PAGE
      1874**DCL      1979<<ASSIGN   1986>>ASSIGN   2021>>ASSIGN   2112>>ASSIGN
AREA.MIN_DBK_GLOB
      1870**DCL      1977<<ASSIGN   1988>>ASSIGN   2062>>ASSIGN   2138<>CALL
AREA.PAGE_SIZE
      1880**DCL      1982<<ASSIGN
AREA.SECTORS
PL6.E3A0      #001=DBA_SUMMARY File=ZIG$DDE1.:ZIC0TSI                            FRI 09/05/97 11:43 Page:180
      1882**DCL      1985<<ASSIGN   1986<<ASSIGN   1986>>ASSIGN   2022>>ASSIGN   2023>>IF
AREA.TOTAL_KEYS
      1867**DCL      1942<<ASSIGN   1943>>ASSIGN   1987<<ASSIGN   2017>>ASSIGN   2018>>ASSIGN   2019>>IF
      2062<<ASSIGN   2063>>ASSIGN   2126<>CALL
AREABIT.BACKUP
      1910**DCL      2056>>IF
AREABIT.CHECKSUM
      1906**DCL      2044>>IF
AREABIT.ENCRYPTION
      1907**DCL      2048>>IF
AREABIT.JOURNALING
      1908**DCL      2052>>IF
AREABIT.TEMPLATE
      1909**DCL      2040>>IF
AREABIT$
      1904**DCL      1905--IMP-PTR  1937<<ASSIGN   2040>>IF       2044>>IF       2048>>IF       2052>>IF
      2056>>IF
AREA_KEYS
      1921**DCL      2063<<ASSIGN   2065>>IF       2067>>IF
AREA_TYPE
      1903**DCL      1937--ASSIGN   1975<<ASSIGN
B3 IN PROCEDURE OCT
      2701**DCL      2706<<ASSIGN   2707>>ASSIGN
B36
      1828**DCL      2265<>CALL     2392>>IF       2393>>ASSIGN   2423>>ASSIGN   2463>>ASSIGN
BITS IN PROCEDURE SIZE
      2603**DCL      2614<<ASSIGN   2629<<ASSIGN   2631<<ASSIGN   2633>>CALLBLT  2634<<ASSIGN
BYTES IN PROCEDURE SIZE
      2602**DCL      2606<<CALLBLT  2607>>IF       2607<<ASSIGN   2609>>IF       2610<<CALLBLT  2620<<CALLBLT
      2621>>IF       2621<<ASSIGN   2623>>IF       2624<<CALLBLT  2633>>CALLBLT  2634<<ASSIGN
C12_1
      1801**DCL      2207<<ASSIGN   2212>>CALLBLT  2216<<ASSIGN
C12_2
      1820**DCL      2195<<ASSIGN   2211>>CALLBLT  2215<<ASSIGN
C12_3
      1798**DCL      2199<<ASSIGN   2211>>CALLBLT  2215<<ASSIGN
PL6.E3A0      #001=DBA_SUMMARY File=ZIG$DDE1.:ZIC0TSI                            FRI 09/05/97 11:43 Page:181
C13_3
      1799**DCL      2203<<ASSIGN   2211>>CALLBLT  2216<<ASSIGN
C13_4
      1800**DCL      2205<<ASSIGN   2212>>CALLBLT  2216<<ASSIGN
C14
      1806**DCL      2336>>CALLBLT  2338>>CALLBLT  2341>>CALLBLT  2343>>CALLBLT  2348>>CALLBLT  2359>>CALLBLT
      2361>>CALLBLT  2378>>CALLBLT  2386>>CALLBLT  2427>>CALLBLT  2429>>CALLBLT  2466>>CALLBLT  2523>>CALLBLT
      2534>>CALLBLT  2536>>CALLBLT  2633<<CALLBLT
C15_1
      1819**DCL      2201<<ASSIGN   2211>>CALLBLT  2216<<ASSIGN
C17_1
      1802**DCL      2197<<ASSIGN   2211>>CALLBLT  2215<<ASSIGN
C18
      1805**DCL      2336>>CALLBLT  2338>>CALLBLT  2341>>CALLBLT  2343>>CALLBLT  2348>>CALLBLT  2359>>CALLBLT
      2361>>CALLBLT  2378>>CALLBLT  2386>>CALLBLT  2427>>CALLBLT  2429>>CALLBLT  2466>>CALLBLT  2534>>CALLBLT
      2536>>CALLBLT  2597<<CALLBLT
C20
      1807**DCL      2534>>CALLBLT  2536>>CALLBLT  2551>>CALLBLT  2644<<ASSIGN   2692<<CALLBLT
C30
      1803**DCL      2327<<ASSIGN   2336>>CALLBLT  2338>>CALLBLT  2341>>CALLBLT  2343>>CALLBLT  2359>>CALLBLT
      2361>>CALLBLT  2485<<ASSIGN   2495<<ASSIGN   2532>>ASSIGN   2536>>CALLBLT
C34
      1804**DCL      2532<<ASSIGN   2534>>CALLBLT
D
      1915**DCL      2005<<DOINDEX  2006>>ASSIGN   2007>>IF
DB.AREAS
      1895**DCL      1946<<ASSIGN   1946>>ASSIGN
DB.SECTORS
      1901**DCL      1944<<ASSIGN   1944>>ASSIGN
DB.TOTAL_KEYS
      1900**DCL      1943<<ASSIGN   1943>>ASSIGN   1954<>CALL
DBK
      1859**DCL      2222<<ASSIGN   2224>>ASSIGN   2227<<ASSIGN
DBKSM
      1789**DCL      2404<<ASSIGN   2412<>CALL     2416<>CALL     2442<>CALL     2444<<ASSIGN   2452<>CALL
      2456<>CALL
PL6.E3A0      #001=DBA_SUMMARY File=ZIG$DDE1.:ZIC0TSI                            FRI 09/05/97 11:43 Page:182
DBK_PARAM
      1786**DCL      2230<<ASSIGN   2540<>CALL
DEIS
      1831**DCL      1832--REDEF    1935<<ASSIGN   2520--ASSIGN
DEIS4
      1838**DCL      2255--ASSIGN   2256>>ASSIGN
DEIS8
      1840**DCL      2250--ASSIGN   2251>>ASSIGN
DEIS_RDEF.B18_20
      1834**DCL      2515<<ASSIGN
DEIS_RDEF.B30_35
      1836**DCL      2521<<ASSIGN
DFR.BUFLOC
      1865**DCL      2515>>ASSIGN
DFR$
      1862**DCL      1863--IMP-PTR  1936<<ASSIGN   2515>>ASSIGN
DNUMB IN PROCEDURE OCT
      2699**DCL      2698--PROC     2700--REDEF
DNUMB_RDEF IN PROCEDURE OCT
      2700**DCL      2706>>ASSIGN
DOFLDS
      2396**LABEL    2286--GOTO     2315--GOTO     2320--CALLALT  2389--GOTO
DOFLDS1
      2438**LABEL    2435--CALLALT
DOFLDS2
      2476**LABEL    2436--GOTO
DTYP
      1821**DCL      2534>>CALLBLT  2536>>CALLBLT  2551>>CALLBLT
EIS.BCHR
      1846**DCL      2514>>ASSIGN   2517>>ASSIGN   2579>>ASSIGN   2592>>IF       2592>>IF       2592>>IF
      2592>>IF
EIS.BWRD
      1845**DCL      2514>>ASSIGN   2517>>ASSIGN   2571>>CALLBLT
EIS.PREC
      1849**DCL      2511>>ASSIGN   2606>>CALLBLT
EIS.TYP
PL6.E3A0      #001=DBA_SUMMARY File=ZIG$DDE1.:ZIC0TSI                            FRI 09/05/97 11:43 Page:183
      1847**DCL      2510>>IF       2588>>IF       2604>>IF
EIS1.PREC
      1857**DCL      2513>>ASSIGN   2618>>ASSIGN
ENDSC
      2392**LABEL    2382--GOTO
ERROR
      2696**LABEL    1939--CALLALT  1970--CALLALT  2026--CALLALT  2160--CALLALT  2209--CALLALT  2210--CALLALT
      2220--CALLALT  2221--CALLALT  2225--CALLALT  2234--CALLALT  2245--CALLALT  2296--CALLALT  2298--CALLALT
      2301--CALLALT  2305--CALLALT  2317--CALLALT  2318--CALLALT  2322--CALLALT  2326--CALLALT  2402--CALLALT
      2405--CALLALT  2406--CALLALT  2407--CALLALT  2412--CALLALT  2414--CALLALT  2416--CALLALT  2434--CALLALT
      2442--CALLALT  2445--CALLALT  2446--CALLALT  2447--CALLALT  2452--CALLALT  2454--CALLALT  2456--CALLALT
      2476--CALLALT  2483--CALLALT  2484--CALLALT  2486--CALLALT  2487--CALLALT  2494--CALLALT  2540--CALLALT
      2541--CALLALT  2549--CALLALT  2562--CALLALT
FCURR_R_6
        21**DCL-ENT  2402--CALL     2486--CALL
FETCHD_6
        19**DCL-ENT  2220--CALL     2412--CALL     2416--CALL     2442--CALL     2452--CALL     2456--CALL
      2540--CALL
FETCHNS_6
        24**DCL-ENT  1941--CALL     1972--CALL     2163--CALL     2226--CALL     2234--CALL     2238--CALL
      2297--CALL     2302--CALL     2320--CALL     2403--CALL     2435--CALL     2443--CALL     2482--CALL
      2491--CALL     2541--CALL     2542--CALL     2553--CALL
FETCHOS_6
        28**DCL-ENT  1939--CALL     1970--CALL     2026--CALL     2160--CALL     2209--CALL     2210--CALL
      2245--CALL     2296--CALL     2298--CALL     2301--CALL     2305--CALL     2317--CALL     2318--CALL
      2322--CALL     2326--CALL     2406--CALL     2407--CALL     2414--CALL     2434--CALL     2446--CALL
      2447--CALL     2454--CALL     2476--CALL     2483--CALL     2484--CALL     2487--CALL     2494--CALL
      2549--CALL     2562--CALL
FETCHPS_6
        26**DCL-ENT  2221--CALL     2405--CALL     2445--CALL
FIELD1.COUNT1
      1925**DCL      1955>>CALLBLT  1959>>CALLBLT  1964>>CALLBLT  2028>>CALLBLT  2070>>CALLBLT  2077>>CALLBLT
      2092>>CALLBLT  2099>>CALLBLT  2105>>CALLBLT  2110>>CALLBLT  2114>>CALLBLT  2119>>CALLBLT  2127>>CALLBLT
      2130>>CALLBLT  2133>>CALLBLT  2136>>CALLBLT  2139>>CALLBLT  2142>>CALLBLT  2145>>CALLBLT  2195>>ASSIGN
      2197>>ASSIGN   2199>>ASSIGN   2201>>ASSIGN   2203>>ASSIGN   2205>>ASSIGN   2207>>ASSIGN   2262>>CALLBLT
      2266>>CALLBLT  2270>>CALLBLT  2275>>CALLBLT  2409>>CALLBLT  2418>>CALLBLT  2449>>CALLBLT  2458>>CALLBLT
PL6.E3A0      #001=DBA_SUMMARY File=ZIG$DDE1.:ZIC0TSI                            FRI 09/05/97 11:43 Page:184
FIELD1.TEXT1
      1926**DCL      1955>>CALLBLT  1959>>CALLBLT  1964>>CALLBLT  2028>>CALLBLT  2070>>CALLBLT  2077>>CALLBLT
      2092>>CALLBLT  2099>>CALLBLT  2105>>CALLBLT  2110>>CALLBLT  2114>>CALLBLT  2119>>CALLBLT  2127>>CALLBLT
      2130>>CALLBLT  2133>>CALLBLT  2136>>CALLBLT  2139>>CALLBLT  2142>>CALLBLT  2145>>CALLBLT  2195>>ASSIGN
      2197>>ASSIGN   2199>>ASSIGN   2201>>ASSIGN   2203>>ASSIGN   2205>>ASSIGN   2207>>ASSIGN   2262>>CALLBLT
      2266>>CALLBLT  2270>>CALLBLT  2275>>CALLBLT  2409>>CALLBLT  2418>>CALLBLT  2449>>CALLBLT  2458>>CALLBLT
FIELD2.COUNT2
      1928**DCL      2275>>CALLBLT
FIELD2.TEXT2
      1929**DCL      2275>>CALLBLT
FINDD_6
        20**DCL-ENT  2225--CALL
FXCHRV
      1918**DCL      2478<<ASSIGN   2497>>IF       2558>>IF       2561<<ASSIGN
K
      1791**DCL      2112<<ASSIGN   2113<>CALL     2273<<ASSIGN   2274<>CALL     2622<<DOINDEX  2623>>IF
      2624>>CALLBLT  2626<<ASSIGN   2669<<ASSIGN   2670>>CALLBLT
LNCNT
      1933**DCL      2259<<ASSIGN
LSTBUFLOC
      1830**DCL      2527<<ASSIGN   2528--ASSIGN
LSTEIS
      1829**DCL      2251<<ASSIGN   2256<<ASSIGN   2392>>IF       2393<<ASSIGN   2423<<ASSIGN   2463<<ASSIGN
      2477--ASSIGN
NEW_RNGE
      2172**LABEL    2165--GOTO
NUMB_CALC
      1920**DCL      2190<<ASSIGN
NXTAC
      1972**LABEL    2061--GOTO     2163--CALLALT
NXTAC1
      2015**LABEL    1994--GOTO
NXTFR
      2480**LABEL    2474--GOTO     2493--GOTO     2500--GOTO     2505--GOTO     2538--GOTO     2563--GOTO
NXTFR1
      2558**LABEL    2491--CALLALT
PL6.E3A0      #001=DBA_SUMMARY File=ZIG$DDE1.:ZIC0TSI                            FRI 09/05/97 11:43 Page:185
NXTFR2
      2565**LABEL    2558--GOTO
NXTPASM
      2442**LABEL    2482--CALLALT
NXTRA
      2163**LABEL    2217--GOTO
NXTRC
      2224**LABEL    2233--GOTO     2403--CALLALT  2440--GOTO     2443--CALLALT  2560--GOTO     2565--GOTO
NXTRC0
      2311**LABEL    2297--CALLALT  2300--GOTO     2302--CALLALT
NXTRC1
      2317**LABEL    2309--GOTO
NXTRC1A
      2247**LABEL    2238--CALLALT
NXTSC
      2320**LABEL    2307--GOTO     2325--GOTO     2394--GOTO
NXT_PARAM
      2549**LABEL    2554--GOTO
OCT
      2698**PROC     2265--CALL
ODIG IN PROCEDURE OCT
      2702**DCL      2708>>CALLBLT
OFFS
      2567**PROC     2332--CALL     2346--CALL     2355--CALL     2376--CALL     2384--CALL     2424--CALL
      2464--CALL     2529--CALL
OSTR
      1808**DCL      2266>>CALLBLT  2708<<CALLBLT
O_L
      1809**DCL      1810--REDEF    1813--REDEF    1816--REDEF    1952<<ASSIGN   1953<>CALL     1955<<CALLBLT
      1956<>CALL     1959<<CALLBLT  1960<>CALL     1961<<ASSIGN   1962<>CALL     1964<<CALLBLT  1965<>CALL
      1973<<ASSIGN   1974<>CALL     2028<<CALLBLT  2029<>CALL     2031<<ASSIGN   2033<<ASSIGN   2034<>CALL
      2036<<ASSIGN   2038<<ASSIGN   2039<>CALL     2041<<ASSIGN   2042<>CALL     2045<<ASSIGN   2046<<ASSIGN
      2047<>CALL     2049<<ASSIGN   2050<<ASSIGN   2051<>CALL     2053<<ASSIGN   2054<>CALL     2057<<ASSIGN
      2058<<ASSIGN   2059<>CALL     2070<<CALLBLT  2071<>CALL     2074<<ASSIGN   2075<>CALL     2077<<CALLBLT
      2078<>CALL     2082<<ASSIGN   2083<>CALL     2084<<ASSIGN   2085<>CALL     2089<<ASSIGN   2090<>CALL
      2092<<CALLBLT  2093<>CALL     2096<<ASSIGN   2097<>CALL     2099<<CALLBLT  2100<>CALL     2102<<ASSIGN
PL6.E3A0      #001=DBA_SUMMARY File=ZIG$DDE1.:ZIC0TSI                            FRI 09/05/97 11:43 Page:186
      2103<>CALL     2105<<CALLBLT  2106<>CALL     2107<<ASSIGN   2108<>CALL     2110<<CALLBLT  2111<>CALL
      2114<<CALLBLT  2115<>CALL     2116<<ASSIGN   2117<>CALL     2119<<CALLBLT  2120<>CALL     2124<<ASSIGN
      2125<>CALL     2127<<CALLBLT  2128<>CALL     2130<<CALLBLT  2131<>CALL     2133<<CALLBLT  2134<>CALL
      2136<<CALLBLT  2137<>CALL     2139<<CALLBLT  2140<>CALL     2142<<CALLBLT  2143<>CALL     2145<<CALLBLT
      2146<>CALL     2150<<ASSIGN   2151<>CALL     2152<<ASSIGN   2153<>CALL     2156<>CALL     2159<>CALL
      2182<<ASSIGN   2183<>CALL     2213<>CALL     2214<<ASSIGN   2258<<ASSIGN   2260<>CALL     2262<<CALLBLT
      2263<>CALL     2266<<CALLBLT  2267<>CALL     2270<<CALLBLT  2275<<CALLBLT  2277<>CALL     2278<<ASSIGN
      2279<>CALL     2280<<ASSIGN   2281<>CALL     2284<>CALL     2289<<ASSIGN   2291<<ASSIGN   2292<>CALL
      2293<<ASSIGN   2294<>CALL     2311<<ASSIGN   2312<>CALL     2313<<ASSIGN   2314<>CALL     2336<<CALLBLT
      2338<<CALLBLT  2341<<CALLBLT  2343<<CALLBLT  2344<>CALL     2348<<CALLBLT  2349<>CALL     2372<>CALL
      2378<<CALLBLT  2379<>CALL     2386<<CALLBLT  2387<>CALL     2397<<ASSIGN   2398<>CALL     2409<<CALLBLT
      2410<>CALL     2418<<CALLBLT  2419<>CALL     2420<<ASSIGN   2421<>CALL     2427<<CALLBLT  2429<<CALLBLT
      2430<>CALL     2431<<ASSIGN   2432<>CALL     2438<<ASSIGN   2439<>CALL     2449<<CALLBLT  2450<>CALL
      2458<<CALLBLT  2459<>CALL     2460<<ASSIGN   2461<>CALL     2471<>CALL     2472<<ASSIGN   2473<>CALL
      2523<<CALLBLT  2524<>CALL     2534<<CALLBLT  2536<<CALLBLT  2537<>CALL     2544<<ASSIGN   2545<>CALL
      2546<<ASSIGN   2547<>CALL     2551<<CALLBLT  2552<>CALL
O_L_64_64.A
      1811**DCL      2154<<ASSIGN   2157<<ASSIGN   2282<<ASSIGN
O_L_64_64.B
      1812**DCL      2155<<ASSIGN   2158<<ASSIGN   2283<<ASSIGN
O_L_69_59.A
      1817**DCL      2211<<CALLBLT
O_L_69_59.B
      1818**DCL      2212<<CALLBLT
O_L_74_54.A
      1814**DCL      2359<<CALLBLT  2361<<CALLBLT  2466<<CALLBLT
O_L_74_54.B
      1815**DCL      2364<<ASSIGN   2366<<ASSIGN   2369<<ASSIGN   2371<<ASSIGN   2468<<ASSIGN   2470<<ASSIGN
PARAMS_DONE
      2556**LABEL    2542--CALLALT  2553--CALLALT
PASS_CALC
      2194**LABEL    2191--GOTO
PE
      1827**DCL      1843--IMP-PTR  1850--IMP-PTR  2250<<ASSIGN   2255<<ASSIGN   2331<<ASSIGN   2345<<ASSIGN
      2354<<ASSIGN   2375<<ASSIGN   2383<<ASSIGN   2392>>IF       2393>>ASSIGN   2422<<ASSIGN   2423>>ASSIGN
      2462<<ASSIGN   2463>>ASSIGN   2477<<ASSIGN   2510>>IF       2511>>ASSIGN   2513>>ASSIGN   2514>>ASSIGN
PL6.E3A0      #001=DBA_SUMMARY File=ZIG$DDE1.:ZIC0TSI                            FRI 09/05/97 11:43 Page:187
      2514>>ASSIGN   2516<<ASSIGN   2517>>ASSIGN   2517>>ASSIGN   2520<<ASSIGN   2528<<ASSIGN   2571>>CALLBLT
      2579>>ASSIGN   2588>>IF       2592>>IF       2592>>IF       2592>>IF       2592>>IF       2604>>IF
      2606>>CALLBLT  2618>>ASSIGN
PREC IN PROCEDURE P_S_S
      2638**DCL      2648<<CALLBLT  2649>>IF       2649<<ASSIGN   2651>>IF       2652<<CALLBLT  2692>>CALLBLT
      2693<<ASSIGN
PRIME
      2001**LABEL    2010--GOTO
PRNT
      1858**DCL-ENT  1953--CALL     1956--CALL     1960--CALL     1962--CALL     1965--CALL     1974--CALL
      2029--CALL     2034--CALL     2039--CALL     2042--CALL     2047--CALL     2051--CALL     2054--CALL
      2059--CALL     2071--CALL     2075--CALL     2078--CALL     2083--CALL     2085--CALL     2090--CALL
      2093--CALL     2097--CALL     2100--CALL     2103--CALL     2106--CALL     2108--CALL     2111--CALL
      2115--CALL     2117--CALL     2120--CALL     2125--CALL     2128--CALL     2131--CALL     2134--CALL
      2137--CALL     2140--CALL     2143--CALL     2146--CALL     2151--CALL     2153--CALL     2156--CALL
      2159--CALL     2183--CALL     2213--CALL     2260--CALL     2263--CALL     2267--CALL     2277--CALL
      2279--CALL     2281--CALL     2284--CALL     2292--CALL     2294--CALL     2312--CALL     2314--CALL
      2344--CALL     2349--CALL     2372--CALL     2379--CALL     2387--CALL     2398--CALL     2410--CALL
      2419--CALL     2421--CALL     2430--CALL     2432--CALL     2439--CALL     2450--CALL     2459--CALL
      2461--CALL     2471--CALL     2473--CALL     2524--CALL     2537--CALL     2545--CALL     2547--CALL
      2552--CALL
PUTDB
      1952**LABEL    1941--CALLALT
PUTNME
      2209**LABEL    2167--GOTO
P_S_S
      2637**PROC     2531--CALL     2550--CALL
RANGE
      1885**DCL      2161<<ASSIGN
RANGE.AVAIL_KEYS
      1887**DCL      2179<<ASSIGN   2181<<ASSIGN   2181>>ASSIGN   2204<>CALL
RANGE.CALC_HDRS
      1893**DCL      2175<<ASSIGN   2179>>ASSIGN   2206<>CALL
RANGE.CALC_OFFS
      1892**DCL      2174<<ASSIGN   2180>>IF
RANGE.MAX_DBK_GLOB
PL6.E3A0      #001=DBA_SUMMARY File=ZIG$DDE1.:ZIC0TSI                            FRI 09/05/97 11:43 Page:188
      1888**DCL      2166>>IF       2173<<ASSIGN   2176>>ASSIGN   2178>>ASSIGN   2200<>CALL
RANGE.MAX_DBK_LOC
      1890**DCL      2176<<ASSIGN   2196<>CALL
RANGE.MIN_DBK_GLOB
      1889**DCL      2164>>IF       2172<<ASSIGN   2177>>ASSIGN   2178>>ASSIGN   2198<>CALL
RANGE.MIN_DBK_LOC
      1891**DCL      2177<<ASSIGN   2194<>CALL
RANGE.TOTAL_KEYS
      1886**DCL      2178<<ASSIGN   2179>>ASSIGN   2202<>CALL
REC_NAME
      1861**DCL      2321<<ASSIGN   2328>>IF
REC_SUM
      2219**LABEL    1972--CALLALT
RNG
      1914**DCL      1988<<ASSIGN   1990>>ASSIGN
SCALE IN PROCEDURE P_S_S
      2639**DCL      2647<<ASSIGN   2670<<CALLBLT  2671>>IF       2671<<ASSIGN   2673>>IF       2674<<CALLBLT
      2676<<CALLBLT  2683<<CALLBLT  2684>>IF       2684<<ASSIGN   2686>>IF       2687<<CALLBLT  2692>>CALLBLT
      2693<<ASSIGN
SET_FIELDS
      1358**DCL-ENT  2027--CALL     2261--CALL     2408--CALL     2448--CALL
SET_FIELD_NUM
      1359**DCL-ENT  1954--CALL     1958--CALL     1963--CALL     2069--CALL     2076--CALL     2091--CALL
      2098--CALL     2104--CALL     2109--CALL     2113--CALL     2118--CALL     2126--CALL     2129--CALL
      2132--CALL     2135--CALL     2138--CALL     2141--CALL     2144--CALL     2194--CALL     2196--CALL
      2198--CALL     2200--CALL     2202--CALL     2204--CALL     2206--CALL     2264--CALL     2268--CALL
      2274--CALL     2417--CALL     2457--CALL
SIGN IN PROCEDURE P_S_S
      2640**DCL      2658<<ASSIGN   2660<<ASSIGN   2664<<ASSIGN   2666<<ASSIGN   2692>>CALLBLT  2693<<ASSIGN
SIZE
      2601**PROC     2333--CALL     2347--CALL     2356--CALL     2377--CALL     2385--CALL     2425--CALL
      2465--CALL     2522--CALL     2530--CALL
SUBLST
      1372**DCL-ENT  1934--CALL     2543--CALL
SUBSCHEMA_KEY
      1390**DCL      1391--REDEF
PL6.E3A0      #001=DBA_SUMMARY File=ZIG$DDE1.:ZIC0TSI                            FRI 09/05/97 11:43 Page:189
SUMAC
      1941**LABEL    1947--GOTO
SUM_PARAMS
      2540**LABEL    2226--CALLALT  2229--GOTO
TEMP_UBIN_WORD
      1860**DCL      2219<<ASSIGN   2220<>CALL     2224<<ASSIGN   2225<>CALL
TOTAL_PAGES
      1922**DCL      1945<<ASSIGN   1945>>ASSIGN   1963<>CALL
UWA.AC.BASE_DBK
      1542**DCL      1942>>ASSIGN   1978>>ASSIGN
UWA.AC.CALC_NEXT
      1561**DCL      1562--REDEF
UWA.AC.CALC_NULL
      1541**DCL      1989>>IF       2188>>IF
UWA.AC.CALC_PRIOR
      1570**DCL      1571--REDEF
UWA.AC.DBK_CALC
      1552**DCL      1981>>ASSIGN
UWA.AC.DBK_PAGE
      1551**DCL      1980>>ASSIGN
UWA.AC.DEFAULTS
      1522**DCL      1523--REDEF
UWA.AC.FILE_CODE
      1527**DCL      1528--REDEF    1975>>ASSIGN
UWA.AC.FLAG1.ERROR_TYPE
      1524**DCL      1525--REDEF
UWA.AC.INDEX_CODE
      1535**DCL      2087>>IF
UWA.AC.INV_THRESH
      1554**DCL      1983>>ASSIGN
UWA.AC.KEYS_ALLOC
      1543**DCL      1987>>ASSIGN
UWA.AC.KEYS_RSRVD
      1544**DCL      2063>>ASSIGN   2129<>CALL
UWA.AC.LOAD_LIMIT
      1555**DCL      1984>>ASSIGN
PL6.E3A0      #001=DBA_SUMMARY File=ZIG$DDE1.:ZIC0TSI                            FRI 09/05/97 11:43 Page:190
UWA.AC.MAX_DBK
      1546**DCL      1942>>ASSIGN   1976>>ASSIGN
UWA.AC.MAX_PAGE
      1548**DCL      1944>>ASSIGN   1945>>ASSIGN   1979>>ASSIGN
UWA.AC.MIN_DBK
      1545**DCL      1977>>ASSIGN
UWA.AC.PAGE_SIZE
      1558**DCL      1982>>ASSIGN
UWA.AC.PAGE_TYP
      1539**DCL      2015>>IF       2030>>IF       2060>>IF       2088>>IF       2095>>IF       2299>>IF
UWA.AC.PERMTYPE
      1538**DCL      2035>>IF
UWA.AC.PER_INV
      1540**DCL      2072>>IF
UWA.AC.SECTORS_PAGE
      1560**DCL      1944>>ASSIGN   1985>>ASSIGN
UWA.AC.SPACE_AVAIL
      1559**DCL      2118<>CALL
UWA.DA.FRST_RC
      1670**DCL      2219>>ASSIGN
UWA.DIRECT_REF
      1462**DCL      2222>>ASSIGN   2227>>ASSIGN   2230>>ASSIGN   2404>>ASSIGN   2444>>ASSIGN
UWA.FR.BUFFLOC
      1631**DCL      1936--ASSIGN   2516--ASSIGN   2527>>ASSIGN
UWA.FR.FTYPE
      1618**DCL      2239>>IF       2499>>IF       2504>>IF       2533>>IF       2534>>CALLBLT  2536>>CALLBLT
      2551>>CALLBLT  2642>>IF       2656>>IF       2656>>IF       2656>>IF       2656>>IF       2661>>IF
      2661>>IF
UWA.FR.F_SIGN
      1621**DCL      2663>>IF
UWA.FR.PREC
      1619**DCL      2242>>ASSIGN   2648>>CALLBLT
UWA.FR.SCALE
      1620**DCL      2667>>IF       2669>>ASSIGN   2683>>CALLBLT
UWA.FR.SYN
      1616**DCL      2492>>IF
PL6.E3A0      #001=DBA_SUMMARY File=ZIG$DDE1.:ZIC0TSI                            FRI 09/05/97 11:43 Page:191
UWA.OA.GLOBAL
      1518**DCL      1957>>ASSIGN
UWA.RA.CALC_HDRS
      1613**DCL      2175>>ASSIGN
UWA.RA.HDR_OFFS
      1614**DCL      2174>>ASSIGN
UWA.RA.HIGHDBK
      1612**DCL      2166>>IF       2173>>ASSIGN
UWA.RA.LOWDBK
      1611**DCL      2164>>IF       2172>>ASSIGN
UWA.RC.CV_OFFSET
      1590**DCL      2559>>IF
UWA.RC.FIXVAR
      1582**DCL      2236>>ASSIGN   2269>>IF
UWA.RC.LSIZE
      1594**DCL      2268<>CALL     2273>>ASSIGN
UWA.RC.PA_ENTRY
      1592**DCL      2417<>CALL     2457<>CALL
UWA.RC.PSMODE
      1581**DCL      2247>>IF       2247>>IF       2287>>IF       2287>>IF       2396>>IF       2480>>IF
UWA.RC.RTYPE
      1580**DCL      2264<>CALL     2265--CALL
UWA.RECORD_NAME
      1459**DCL      2303>>IF       2321>>ASSIGN
UWA.SC.SETGLO
      1600**DCL      2335>>IF       2340>>IF       2363>>IF       2368>>IF       2426>>IF       2467>>IF
UWA.SC.SETMODE
      1598**DCL      2334>>IF       2357>>IF       2362>>IF
UWA.SC.SETTYPE
      1597**DCL      2306>>IF       2306>>IF       2324>>IF       2324>>IF
UWA.SM.HDPNT
      1648**DCL      2383--ASSIGN
UWA.SM.NXTPNT
      1646**DCL      2354--ASSIGN
UWA.SM.PAMEM
      1643**DCL      2357>>IF       2362>>IF
PL6.E3A0      #001=DBA_SUMMARY File=ZIG$DDE1.:ZIC0TSI                            FRI 09/05/97 11:43 Page:192
UWA.SM.PA_MEMPNT
      1649**DCL      2388>>IF       2422--ASSIGN   2462--ASSIGN
UWA.SM.PRIPNT
      1647**DCL      2373>>IF       2375--ASSIGN
UWA.SN.SENAME
      1680**DCL      2027<>CALL     2212>>CALLBLT  2230>>IF       2231>>IF       2232>>IF       2261<>CALL
      2285>>IF       2327>>ASSIGN   2381>>IF       2408<>CALL     2448<>CALL     2485>>ASSIGN   2495>>ASSIGN
      2551>>CALLBLT
UWA.SN.SETYPE
      1677**DCL      2228>>IF
UWA.SO.NXTPNT
      1635**DCL      2331--ASSIGN
UWA.SO.PRIPNT
      1636**DCL      2345--ASSIGN
X
      1919**DCL      1957<<ASSIGN   1958<>CALL     2006<<ASSIGN   2007>>IF       2511<<ASSIGN   2513<<ASSIGN
      2514<<ASSIGN   2514>>ASSIGN   2518>>IF       2521>>ASSIGN   2573<<DOINDEX  2574>>IF       2575>>CALLBLT
      2577<<ASSIGN   2579<<ASSIGN   2580>>CALLBLT  2582<<DOINDEX  2583>>IF       2584>>CALLBLT  2586<<ASSIGN
      2608<<DOINDEX  2609>>IF       2610>>CALLBLT  2612<<ASSIGN   2619<<ASSIGN   2620>>CALLBLT  2628>>IF
      2650<<DOINDEX  2651>>IF       2652>>CALLBLT  2654<<ASSIGN   2672<<DOINDEX  2673>>IF       2674>>CALLBLT
      2676>>CALLBLT  2677<<ASSIGN   2685<<DOINDEX  2686>>IF       2687>>CALLBLT  2688<<ASSIGN   2705<<DOINDEX
      2706>>ASSIGN
X1
      1792**DCL      2707<<ASSIGN   2708>>CALLBLT
X2
      1794**DCL      2704<<ASSIGN   2708>>CALLBLT  2709<<ASSIGN   2709>>ASSIGN
XBIT IN PROCEDURE OFFS
      2570**DCL      2589<<ASSIGN   2593<<ASSIGN   2595<<ASSIGN   2597>>CALLBLT  2598<<ASSIGN
XBYTE IN PROCEDURE OFFS
      2569**DCL      2580<<CALLBLT  2581>>IF       2581<<ASSIGN   2583>>IF       2584<<CALLBLT  2597>>CALLBLT
      2598<<ASSIGN
XS
      1795**DCL      2064<<ASSIGN   2066<<ASSIGN   2068<<ASSIGN   2069<>CALL
XWORD IN PROCEDURE OFFS
      2568**DCL      2571<<CALLBLT  2572>>IF       2572<<ASSIGN   2574>>IF       2575<<CALLBLT  2597>>CALLBLT
      2598<<ASSIGN
PL6.E3A0      #001=DBA_SUMMARY File=ZIG$DDE1.:ZIC0TSI                            FRI 09/05/97 11:43 Page:193
Y
      1790**DCL      2517<<ASSIGN   2518>>IF       2521>>ASSIGN   2618<<ASSIGN   2619>>ASSIGN   2628>>IF
Z
      1788**DCL      2236<<ASSIGN   2237>>DOWHILE  2241<<ASSIGN   2241>>ASSIGN
ZT
      1787**DCL      2235<<ASSIGN   2242<<ASSIGN   2242>>ASSIGN   2273>>ASSIGN
