
PL6.E3A0      #001=PRNT File=ZIG$DDE2.:ZIC0TSI                                   FRI 09/05/97 11:44 Page:1
        1        1        /*M* ZIG$DDE2         I-D-S/II            DBACS    */
        2        2        /*T***********************************************************/
        3        3        /*T*                                                         */
        4        4        /*T* Copyright (c) Bull HN Information Systems Inc., 1997    */
        5        5        /*T*                                                         */
        6        6        /*T***********************************************************/
        7        7        PRNT:
        8        8            PROC(LINE,SLU,COL);
        9        9    1   DCL LINE CHAR(128);
       10       10    1   DCL SLU UBIN WORD;
       11       11    1   DCL SLU_TEMP UBIN WORD;
       12       12    1   DCL COL_TEMP UBIN WORD;
       13       13    1   DCL COL UBIN WORD;
       14       14    1   DCL O_L CHAR(128) STATIC;
       15       15    1   DCL SPACES CHAR(128) STATIC INIT(' ');
       16       16    1   DCL SPACES$ PTR;
       17       17    1   DCL SP_VAR CHAR(COL_TEMP) BASED(SPACES$);
       18       18    1   DCL LIST ENTRY(1);
       19       19    1       SPACES$ = ADDR(SPACES);
       20       20    1       SLU_TEMP = SLU;
       21       21    1       COL_TEMP = COL;
       22       22    1       IF SLU_TEMP = 99 THEN
       23       23    2       DO;
       24       24    2           O_L = '****';
       25       25    2           CALL LIST(O_L);
       26       26    2           RETURN;
       27       27    2           END;
       28       28    1       IF SLU_TEMP ~= 0 THEN SLU_TEMP = SLU_TEMP - 1;
       29       29    1       O_L = ' ';
       30       30    2       DO WHILE(SLU_TEMP ~= 0);
       31       31    2           SLU_TEMP = SLU_TEMP - 1;
       32       32    2           CALL LIST(O_L);
       33       33    2           END;
       34       34    1       IF COL ~= 0 THEN
       35       35    1           CALL CONCAT(O_L,SP_VAR,LINE);
       36       36    1       ELSE O_L = LINE;
       37       37    1       CALL LIST(O_L);
PL6.E3A0      #001=PRNT File=ZIG$DDE2.:ZIC0TSI                                   FRI 09/05/97 11:44 Page:2
       38       38    1   END;

PL6.E3A0      #001=PRNT File=ZIG$DDE2.:ZIC0TSI                                   FRI 09/05/97 11:44 Page:3
--  Include file information  --

   B$JIT_C.:E05TOU  was found in the system file and is never referenced.
   CP_6_C.:E05TOU  was found in the system file and is never referenced.
      No diagnostics issued in procedure PRNT.

   Procedure PRNT requires 66 words for executable code.
   Procedure PRNT requires 10 words of local(AUTO) storage.

    No errors detected in file ZIG$DDE2.:ZIC0TSI    .

PL6.E3A0      #001=PRNT File=ZIG$DDE2.:ZIC0TSI                                   FRI 09/05/97 11:44 Page:4

 Object Unit name= PRNT                                       File name= ZIG$DDE2.:ZIC0TOU
 UTS= SEP 05 '97 11:44:18.28 FRI                              Compiler= PL-6/E31         Sev=      00
 SharedLib= :SHARED_SYSTEM                                    Alt SharedLib=


    ****  Control sections  ****

 Sect   Type Bound  Init  Size OctSiz  Section name(segment info)
    0   Data  even  none    64    100  PRNT
    1  RoData even  UTS      1      1  PRNT
    2   Proc  even  none    66    102  PRNT
    3  RoData even  none     4      4  PRNT

    ****  Entry defs  ****

                              Check   Calling
                             calling  sequence
  Sect OctLoc Primary Altret sequence   type   Parms  Name
     2      0   yes            yes      Std        3  PRNT

  ****  Entry refs  ****

         Check        Calling
        calling       sequence
Altret sequence SRef   type   Args  Name
         yes           Std       1 LIST
                       nStd      0 X66_AUTO_3
                       nStd      0 X66_ARET

  ****  Segment refs  ****

  Flags:  r = read only, s = secondary
Flgs Name                             Flgs Name                             Flgs Name
     ISSID
PL6.E3A0      #001=PRNT File=ZIG$DDE2.:ZIC0TSI                                   FRI 09/05/97 11:44 Page:5


        1        1        /*M* ZIG$DDE2         I-D-S/II            DBACS    */
        2        2        /*T***********************************************************/
        3        3        /*T*                                                         */
        4        4        /*T* Copyright (c) Bull HN Information Systems Inc., 1997    */
        5        5        /*T*                                                         */
        6        6        /*T***********************************************************/
        7        7        PRNT:
        8        8            PROC(LINE,SLU,COL);

      8  2 000000   000000 700200 xent  PRNT         TSX0  ! X66_AUTO_3
         2 000001   000012 000003                    ZERO    10,3

        9        9    1   DCL LINE CHAR(128);
       10       10    1   DCL SLU UBIN WORD;
       11       11    1   DCL SLU_TEMP UBIN WORD;
       12       12    1   DCL COL_TEMP UBIN WORD;
       13       13    1   DCL COL UBIN WORD;
       14       14    1   DCL O_L CHAR(128) STATIC;
       15       15    1   DCL SPACES CHAR(128) STATIC INIT(' ');
       16       16    1   DCL SPACES$ PTR;
       17       17    1   DCL SP_VAR CHAR(COL_TEMP) BASED(SPACES$);
       18       18    1   DCL LIST ENTRY(1);
       19       19    1       SPACES$ = ADDR(SPACES);

     19  2 000002   000000 236000 3                  LDQ     0
         2 000003   200010 756100                    STQ     SPACES$,,AUTO

       20       20    1       SLU_TEMP = SLU;

     20  2 000004   200004 470500                    LDP0    @SLU,,AUTO
         2 000005   000000 235100                    LDA     0,,PR0
         2 000006   200006 755100                    STA     SLU_TEMP,,AUTO

       21       21    1       COL_TEMP = COL;

     21  2 000007   200005 471500                    LDP1    @COL,,AUTO
PL6.E3A0      #001=PRNT File=ZIG$DDE2.:ZIC0TSI                                   FRI 09/05/97 11:44 Page:6
         2 000010   100000 235100                    LDA     0,,PR1
         2 000011   200007 755100                    STA     COL_TEMP,,AUTO

       22       22    1       IF SLU_TEMP = 99 THEN

     22  2 000012   200006 235100                    LDA     SLU_TEMP,,AUTO
         2 000013   000143 115007                    CMPA    99,DL
         2 000014   000025 601000 2                  TNZ     s:28

       23       23    2       DO;

       24       24    2           O_L = '****';

     24  2 000015   040000 100400                    MLR     fill='040'O
         2 000016   000000 000004 1                  ADSC9   0                        cn=0,n=4
         2 000017   000000 000200 0                  ADSC9   O_L                      cn=0,n=128

       25       25    2           CALL LIST(O_L);

     25  2 000020   000002 630400 3                  EPPR0   2
         2 000021   000001 631400 3                  EPPR1   1
         2 000022   000000 701000 xent               TSX1    LIST
         2 000023   000000 011000                    NOP     0

       26       26    2           RETURN;

     26  2 000024   000000 702200 xent               TSX2  ! X66_ARET

       27       27    2           END;
       28       28    1       IF SLU_TEMP ~= 0 THEN SLU_TEMP = SLU_TEMP - 1;

     28  2 000025   000000 115003                    CMPA    0,DU
         2 000026   000031 600000 2                  TZE     s:29

     28  2 000027   000001 135007                    SBLA    1,DL
         2 000030   200006 755100                    STA     SLU_TEMP,,AUTO

PL6.E3A0      #001=PRNT File=ZIG$DDE2.:ZIC0TSI                                   FRI 09/05/97 11:44 Page:7
       29       29    1       O_L = ' ';

     29  2 000031   040000 100400                    MLR     fill='040'O
         2 000032   000003 000001 3                  ADSC9   3                        cn=0,n=1
         2 000033   000000 000200 0                  ADSC9   O_L                      cn=0,n=128

       30       30    2       DO WHILE(SLU_TEMP ~= 0);

     30  2 000034   000000 115003                    CMPA    0,DU
         2 000035   000047 600000 2                  TZE     s:34

       31       31    2           SLU_TEMP = SLU_TEMP - 1;

     31  2 000036   200006 235100                    LDA     SLU_TEMP,,AUTO
         2 000037   000001 135007                    SBLA    1,DL
         2 000040   200006 755100                    STA     SLU_TEMP,,AUTO

       32       32    2           CALL LIST(O_L);

     32  2 000041   000002 630400 3                  EPPR0   2
         2 000042   000001 631400 3                  EPPR1   1
         2 000043   000000 701000 xent               TSX1    LIST
         2 000044   000000 011000                    NOP     0

       33       33    2           END;

     33  2 000045   200006 235100                    LDA     SLU_TEMP,,AUTO
         2 000046   000036 601000 2                  TNZ     s:31

       34       34    1       IF COL ~= 0 THEN

     34  2 000047   200005 470500                    LDP0    @COL,,AUTO
         2 000050   000000 235100                    LDA     0,,PR0
         2 000051   000071 600000 2                  TZE     s:36

       35       35    1           CALL CONCAT(O_L,SP_VAR,LINE);

PL6.E3A0      #001=PRNT File=ZIG$DDE2.:ZIC0TSI                                   FRI 09/05/97 11:44 Page:8
     35  2 000052   200010 471500                    LDP1    SPACES$,,AUTO
         2 000053   200007 720100                    LXL0    COL_TEMP,,AUTO
         2 000054   040000 100540                    MLR     fill='040'O
         2 000055   100000 000010                    ADSC9   0,,PR1                   cn=0,n=*X0
         2 000056   000000 000200 0                  ADSC9   O_L                      cn=0,n=128
         2 000057   200007 236100                    LDQ     COL_TEMP,,AUTO
         2 000060   000200 116007                    CMPQ    128,DL
         2 000061   000070 603000 2                  TRC     s:35+14
         2 000062   777577 621006                    EAX1    -129,QL
         2 000063   777777 661003                    ERX1    -1,DU
         2 000064   200003 473500                    LDP3    @LINE,,AUTO
         2 000065   040046 100500                    MLR     fill='040'O
         2 000066   300000 000200                    ADSC9   0,,PR3                   cn=0,n=128
         2 000067   000000 000011 0                  ADSC9   O_L,Q                    cn=0,n=*X1
         2 000070   000075 710000 2                  TRA     s:37

       36       36    1       ELSE O_L = LINE;

     36  2 000071   200003 471500                    LDP1    @LINE,,AUTO
         2 000072   040000 100500                    MLR     fill='040'O
         2 000073   100000 000200                    ADSC9   0,,PR1                   cn=0,n=128
         2 000074   000000 000200 0                  ADSC9   O_L                      cn=0,n=128

       37       37    1       CALL LIST(O_L);

     37  2 000075   000002 630400 3                  EPPR0   2
         2 000076   000001 631400 3                  EPPR1   1
         2 000077   000000 701000 xent               TSX1    LIST
         2 000100   000000 011000                    NOP     0

       38       38    1   END;

     38  2 000101   000000 702200 xent               TSX2  ! X66_ARET

O_L
 Sect OctLoc
   0     000   ****** ******   ****** ******   ****** ******   ****** ******    ................
PL6.E3A0      #001=PRNT File=ZIG$DDE2.:ZIC0TSI                                   FRI 09/05/97 11:44 Page:9

SPACES
 Sect OctLoc
   0     040   040040 040040   040040 040040   040040 040040   040040 040040
   0     074*  040040 040040   040040 040040   040040 040040   040040 040040

(unnamed)
 Sect OctLoc
   1     000   052052 052052                                                    ****

(unnamed)
 Sect OctLoc
   3     000   000040 006000   000001 000000   000000 006000   040040 040040    . ..........

PL6.E3A0      #001=PRNT File=ZIG$DDE2.:ZIC0TSI                                   FRI 09/05/97 11:44 Page:10
--  Include file information  --

   B$JIT_C.:E05TOU  was found in the system file and is never referenced.
   CP_6_C.:E05TOU  was found in the system file and is never referenced.
      No diagnostics issued in procedure PRNT.

   Procedure PRNT requires 66 words for executable code.
   Procedure PRNT requires 10 words of local(AUTO) storage.

    No errors detected in file ZIG$DDE2.:ZIC0TSI    .
PL6.E3A0      #001=PRNT File=ZIG$DDE2.:ZIC0TSI                                   FRI 09/05/97 11:44 Page:11
          *** CROSS REFERENCE LISTING ***
**     DENOTES     IDENTIFIER DEFINITION
<<                 IDENTIFIER'S VALUE SET
>>                 IDENTIFIER'S VALUE USED
<>                 IDENTIFIER SET AND/OR USED
--                 IDENTIFIER REFERENCED
PL6.E3A0      #001=PRNT File=ZIG$DDE2.:ZIC0TSI                                   FRI 09/05/97 11:44 Page:12
          MINI XREF LISTING

COL
        13**DCL         7--PROC       21>>ASSIGN     34>>IF
COL_TEMP
        12**DCL        17--IMP-SIZ    21<<ASSIGN     35>>CALLBLT
LINE
         9**DCL         7--PROC       35>>CALLBLT    36>>ASSIGN
LIST
        18**DCL-ENT    25--CALL       32--CALL       37--CALL
O_L
        14**DCL        24<<ASSIGN     25<>CALL       29<<ASSIGN     32<>CALL       35<<CALLBLT    36<<ASSIGN
        37<>CALL
SLU
        10**DCL         7--PROC       20>>ASSIGN
SLU_TEMP
        11**DCL        20<<ASSIGN     22>>IF         28>>IF         28<<ASSIGN     28>>ASSIGN     30>>DOWHILE
        31<<ASSIGN     31>>ASSIGN
SPACES
        15**DCL        19--ASSIGN
SPACES$
        16**DCL        17--IMP-PTR    19<<ASSIGN     35>>CALLBLT
SP_VAR
        17**DCL        35>>CALLBLT
