
PL6.E3A0      #001=SET37 File=ZIG$DDE5.:ZIC0TSI                                  FRI 09/05/97 11:44 Page:1
        1        1        /*T***********************************************************/
        2        2        /*T*                                                         */
        3        3        /*T* Copyright (c) Bull HN Information Systems Inc., 1997    */
        4        4        /*T*                                                         */
        5        5        /*T***********************************************************/
        6        6        /*    This module contains all modules from gcos DDE5 that are
        7        7              converted to PL-6
        8        8        */
        9        9        SET37: PROC;
       10       10        /* No input arguments */
       11       11    1   DCL AVCORE UBIN (36) EXT;
       12       12    1   DCL B$JIT$ PTR SYMREF;
       13       13        %INCLUDE B$JIT;
       14      303    1       AVCORE = B$JIT.CURRCORE; /*  Current mem useing */
       15      304    1       RETURN;
       16      305    1   END;
       17      306        %EOD;

PL6.E3A0      #001=SET37 File=ZIG$DDE5.:ZIC0TSI                                  FRI 09/05/97 11:44 Page:2
--  Include file information  --

   B$JIT.:LIB_E05  cannot be made into a system file and is referenced.
   B$JIT_C.:E05TOU  was found in the system file and is referenced.
   CP_6_C.:E05TOU  was found in the system file and is never referenced.
      No diagnostics issued in procedure SET37.

   Procedure SET37 requires 7 words for executable code.
   Procedure SET37 requires 4 words of local(AUTO) storage.

PL6.E3A0      #001=SET37 File=ZIG$DDE5.:ZIC0TSI                                  FRI 09/05/97 11:44 Page:3

 Object Unit name= SET37                                      File name= ZIG$DDE5.:ZIC0TOU
 UTS= SEP 05 '97 11:44:28.52 FRI                              Compiler= PL-6/E31         Sev=      00
 SharedLib= :SHARED_SYSTEM                                    Alt SharedLib=


    ****  Control sections  ****

 Sect   Type Bound  Init  Size OctSiz  Section name(segment info)
    0  LblCom even  none     1      1  AVCORE
    1   Proc  even  none     7      7  SET37

    ****  Entry defs  ****

                              Check   Calling
                             calling  sequence
  Sect OctLoc Primary Altret sequence   type   Parms  Name
     1      0   yes            yes      Std        0  SET37

  ****  Entry refs  ****

         Check        Calling
        calling       sequence
Altret sequence SRef   type   Args  Name
                       nStd      0 X66_AUTO_0
                       nStd      0 X66_ARET

  ****  Data refs  ****

  Flags:  r = read only, s = secondary
Flgs Name                             Flgs Name                             Flgs Name
     B$JIT$
PL6.E3A0      #001=SET37 File=ZIG$DDE5.:ZIC0TSI                                  FRI 09/05/97 11:44 Page:4


        1        1        /*T***********************************************************/
        2        2        /*T*                                                         */
        3        3        /*T* Copyright (c) Bull HN Information Systems Inc., 1997    */
        4        4        /*T*                                                         */
        5        5        /*T***********************************************************/
        6        6        /*    This module contains all modules from gcos DDE5 that are
        7        7              converted to PL-6
        8        8        */
        9        9        SET37: PROC;

      9  1 000000   000000 700200 xent  SET37        TSX0  ! X66_AUTO_0
         1 000001   000004 000000                    ZERO    4,0

       10       10        /* No input arguments */
       11       11    1   DCL AVCORE UBIN (36) EXT;
       12       12    1   DCL B$JIT$ PTR SYMREF;
       13       13        %INCLUDE B$JIT;
       14      303    1       AVCORE = B$JIT.CURRCORE; /*  Current mem useing */

    303  1 000002   000000 470400 xsym               LDP0    B$JIT$
         1 000003   000210 236100                    LDQ     136,,PR0
         1 000004   777777 376007                    ANQ     -1,DL
         1 000005   000000 756000 0                  STQ     AVCORE

       15      304    1       RETURN;

    304  1 000006   000000 702200 xent               TSX2  ! X66_ARET
       16      305    1   END;
       17      306        %EOD;

PL6.E3A0      #001=SET37 File=ZIG$DDE5.:ZIC0TSI                                  FRI 09/05/97 11:44 Page:5
--  Include file information  --

   B$JIT.:LIB_E05  cannot be made into a system file and is referenced.
   B$JIT_C.:E05TOU  was found in the system file and is referenced.
   CP_6_C.:E05TOU  was found in the system file and is never referenced.
      No diagnostics issued in procedure SET37.

   Procedure SET37 requires 7 words for executable code.
   Procedure SET37 requires 4 words of local(AUTO) storage.
PL6.E3A0      #001=SET37 File=ZIG$DDE5.:ZIC0TSI                                  FRI 09/05/97 11:44 Page:6
          *** CROSS REFERENCE LISTING ***
**     DENOTES     IDENTIFIER DEFINITION
<<                 IDENTIFIER'S VALUE SET
>>                 IDENTIFIER'S VALUE USED
<>                 IDENTIFIER SET AND/OR USED
--                 IDENTIFIER REFERENCED
PL6.E3A0      #001=SET37 File=ZIG$DDE5.:ZIC0TSI                                  FRI 09/05/97 11:44 Page:7
          MINI XREF LISTING

AVCORE
        11**DCL       303<<ASSIGN
B$JIT.CPFLAGS1.SLEAZE
       121**DCL       121--REDEF
B$JIT.CURRCORE
       189**DCL       303>>ASSIGN
B$JIT.ERR.MID
        28**DCL        28--REDEF
B$JIT.JRESPEAK
       189**DCL       190--REDEF
B$JIT.ORIGINATOR_PORT.FROM_CR
       298**DCL       298--REDEF     299--REDEF
B$JIT.PNR
       202**DCL       202--REDEF
B$JIT.TSLINE
       296**DCL       297--REDEF
B$JIT$
        12**DCL        22--IMP-PTR   303>>ASSIGN

PL6.E3A0      #002=TYPEIS File=ZIG$DDE5.:ZIC0TSI                                 FRI 09/05/97 11:44 Page:8
       18        1        /*T***********************************************************/
       19        2        /*T*                                                         */
       20        3        /*T* Copyright (c) Bull HN Information Systems Inc., 1997    */
       21        4        /*T*                                                         */
       22        5        /*T***********************************************************/
       23        6        TYPEIS: PROC (IN_PTR,TEST_DATA,RETURN_VALUE);
       24        7    1   DCL IN_PTR PTR;
       25        8    1   DCL TEST_DATA UBIN (36);
       26        9    1   DCL RETURN_VALUE BIT (1);
       27       10    1   DCL TEMP_PTR PTR;
       28       11    1   DCL 1 X REDEF TEMP_PTR,
       29       12    1         2 X1 BIT (18),
       30       13    1         2 * BIT (18);
       31       14    1   DCL 1 TEMP_PTRX REDEF TEMP_PTR,
       32       15    1         2 * BIT (24),
       33       16    1         2 SEGID BIT (12);
       34       17    1   DCL IN_BUF UBIN (12) BASED (TEMP_PTR) UNAL;
       35       18        %INCLUDE B_SEGIDS_C;
       36      557    1       RETURN_VALUE = '0'B;
       37      558    1       TEMP_PTR = IN_PTR;
       38      559    1       IF X.X1 ~= '777777'O THEN
       39      560    2       DO;
       40      561    2           TEMP_PTRX.SEGID = %ISSID;
       41      562    2           IF IN_BUF = TEST_DATA THEN
       42      563    2               RETURN_VALUE = '1'B;
       43      564    2           END;
       44      565    1       RETURN;
       45      566    1   END;
       46      567        %EOD;

PL6.E3A0      #002=TYPEIS File=ZIG$DDE5.:ZIC0TSI                                 FRI 09/05/97 11:44 Page:9
--  Include file information  --

   B_SEGIDS_C.:LIB_E05  is referenced.
   B$JIT_C.:E05TOU  was found in the system file and is never referenced.
   CP_6_C.:E05TOU  was found in the system file and is never referenced.
      No diagnostics issued in procedure TYPEIS.

   Procedure TYPEIS requires 26 words for executable code.
   Procedure TYPEIS requires 10 words of local(AUTO) storage.

PL6.E3A0      #002=TYPEIS File=ZIG$DDE5.:ZIC0TSI                                 FRI 09/05/97 11:44 Page:10

 Object Unit name= TYPEIS                                     File name= ZIG$DDE5.:ZIC0TOU
 UTS= SEP 05 '97 11:44:32.04 FRI                              Compiler= PL-6/E31         Sev=      00
 SharedLib= :SHARED_SYSTEM                                    Alt SharedLib=


    ****  Control sections  ****

 Sect   Type Bound  Init  Size OctSiz  Section name(segment info)
    0   Proc  even  none    26     32  TYPEIS
    1  RoData even  none     2      2  TYPEIS

    ****  Entry defs  ****

                              Check   Calling
                             calling  sequence
  Sect OctLoc Primary Altret sequence   type   Parms  Name
     0      0   yes            yes      Std        3  TYPEIS

  ****  Entry refs  ****

         Check        Calling
        calling       sequence
Altret sequence SRef   type   Args  Name
                       nStd      0 X66_AUTO_3
                       nStd      0 X66_ARET
PL6.E3A0      #002=TYPEIS File=ZIG$DDE5.:ZIC0TSI                                 FRI 09/05/97 11:44 Page:11


       18        1        /*T***********************************************************/
       19        2        /*T*                                                         */
       20        3        /*T* Copyright (c) Bull HN Information Systems Inc., 1997    */
       21        4        /*T*                                                         */
       22        5        /*T***********************************************************/
       23        6        TYPEIS: PROC (IN_PTR,TEST_DATA,RETURN_VALUE);

      6  0 000000   000000 700200 xent  TYPEIS       TSX0  ! X66_AUTO_3
         0 000001   000012 000003                    ZERO    10,3

       24        7    1   DCL IN_PTR PTR;
       25        8    1   DCL TEST_DATA UBIN (36);
       26        9    1   DCL RETURN_VALUE BIT (1);
       27       10    1   DCL TEMP_PTR PTR;
       28       11    1   DCL 1 X REDEF TEMP_PTR,
       29       12    1         2 X1 BIT (18),
       30       13    1         2 * BIT (18);
       31       14    1   DCL 1 TEMP_PTRX REDEF TEMP_PTR,
       32       15    1         2 * BIT (24),
       33       16    1         2 SEGID BIT (12);
       34       17    1   DCL IN_BUF UBIN (12) BASED (TEMP_PTR) UNAL;
       35       18        %INCLUDE B_SEGIDS_C;
       36      557    1       RETURN_VALUE = '0'B;

    557  0 000002   200005 470500                    LDP0    @RETURN_VALUE,,AUTO
         0 000003   003100 060400                    CSL     bolr='003'O
         0 000004   000000 000001 1                  BDSC    0                        by=0,bit=0,n=1
         0 000005   000000 000001                    BDSC    0,,PR0                   by=0,bit=0,n=1

       37      558    1       TEMP_PTR = IN_PTR;

    558  0 000006   200003 471500                    LDP1    @IN_PTR,,AUTO
         0 000007   100000 236100                    LDQ     0,,PR1
         0 000010   200006 756100                    STQ     TEMP_PTR,,AUTO

       38      559    1       IF X.X1 ~= '777777'O THEN
PL6.E3A0      #002=TYPEIS File=ZIG$DDE5.:ZIC0TSI                                 FRI 09/05/97 11:44 Page:12

    559  0 000011   200006 220100                    LDX0    TEMP_PTR,,AUTO
         0 000012   777777 100003                    CMPX0   -1,DU
         0 000013   000031 600000 0                  TZE     s:565

       39      560    2       DO;

       40      561    2           TEMP_PTRX.SEGID = %ISSID;

    561  0 000014   006000 236007                    LDQ     3072,DL
         0 000015   200006 752103                    STCQ    TEMP_PTR,'03'O,AUTO

       41      562    2           IF IN_BUF = TEST_DATA THEN

    562  0 000016   200004 473500                    LDP3    @TEST_DATA,,AUTO
         0 000017   200006 474500                    LDP4    TEMP_PTR,,AUTO
         0 000020   003100 061500                    CSR     bolr='003'O
         0 000021   400000 000014                    BDSC    0,,PR4                   by=0,bit=0,n=12
         0 000022   200010 000044                    BDSC    TEMP_PTR+2,,AUTO         by=0,bit=0,n=36
         0 000023   200010 236100                    LDQ     TEMP_PTR+2,,AUTO
         0 000024   300000 116100                    CMPQ    0,,PR3
         0 000025   000031 601000 0                  TNZ     s:565

       42      563    2               RETURN_VALUE = '1'B;

    563  0 000026   003100 060400                    CSL     bolr='003'O
         0 000027   000001 000001 1                  BDSC    1                        by=0,bit=0,n=1
         0 000030   000000 000001                    BDSC    0,,PR0                   by=0,bit=0,n=1

       43      564    2           END;

       44      565    1       RETURN;

    565  0 000031   000000 702200 xent               TSX2  ! X66_ARET

(unnamed)
 Sect OctLoc
PL6.E3A0      #002=TYPEIS File=ZIG$DDE5.:ZIC0TSI                                 FRI 09/05/97 11:44 Page:13
   1     000   000000 000000   400000 000000                                    ........
       45      566    1   END;
       46      567        %EOD;

PL6.E3A0      #002=TYPEIS File=ZIG$DDE5.:ZIC0TSI                                 FRI 09/05/97 11:44 Page:14
--  Include file information  --

   B_SEGIDS_C.:LIB_E05  is referenced.
   B$JIT_C.:E05TOU  was found in the system file and is never referenced.
   CP_6_C.:E05TOU  was found in the system file and is never referenced.
      No diagnostics issued in procedure TYPEIS.

   Procedure TYPEIS requires 26 words for executable code.
   Procedure TYPEIS requires 10 words of local(AUTO) storage.
PL6.E3A0      #002=TYPEIS File=ZIG$DDE5.:ZIC0TSI                                 FRI 09/05/97 11:44 Page:15
          *** CROSS REFERENCE LISTING ***
**     DENOTES     IDENTIFIER DEFINITION
<<                 IDENTIFIER'S VALUE SET
>>                 IDENTIFIER'S VALUE USED
<>                 IDENTIFIER SET AND/OR USED
--                 IDENTIFIER REFERENCED
PL6.E3A0      #002=TYPEIS File=ZIG$DDE5.:ZIC0TSI                                 FRI 09/05/97 11:44 Page:16
          MINI XREF LISTING

IN_BUF
        17**DCL       562>>IF
IN_PTR
         7**DCL         6--PROC      558>>ASSIGN
RETURN_VALUE
         9**DCL         6--PROC      557<<ASSIGN    563<<ASSIGN
TEMP_PTR
        10**DCL        11--REDEF      14--REDEF      17--IMP-PTR   558<<ASSIGN    562>>IF
TEMP_PTRX.SEGID
        16**DCL       561<<ASSIGN
TEST_DATA
         8**DCL         6--PROC      562>>IF
X.X1
        12**DCL       559>>IF

PL6.E3A0      #003=ABORT File=ZIG$DDE5.:ZIC0TSI                                  FRI 09/05/97 11:44 Page:17
       47        1        /*T***********************************************************/
       48        2        /*T*                                                         */
       49        3        /*T* Copyright (c) Bull HN Information Systems Inc., 1997    */
       50        4        /*T*                                                         */
       51        5        /*T***********************************************************/
       52        6        ABORT: PROC;
       53        7        /* No input or output arguments */
       54        8    1   DCL CLOSEL ENTRY;
       55        9    1   DCL DUMP DCB;
       56       10    1   DCL M$LO DCB;
       57       11    1   DCL ZIG$DUMP ENTRY(3);
       58       12    1   DCL B$TCB$ PTR SYMREF;
       59       13    1   DCL IDS_CODE UBIN WORD;
       60       14    1   DCL STORED_ERROR UBIN;
       61       15    1   DCL TRANS_WORD UBIN(36) BASED;
       62       16    1   DCL ERROR_BUF CHAR(120);
       63       17    1   DCL 1 IDTCB CONSTANT,
       64       18    1         2 COUNT UBIN(9) UNAL INIT(33),
       65       19    1         2 TEXT CHAR(33) UNAL
       66       20    1    INIT('0 DBACS DUMP - task control block');
       67       21    1   DCL HELP_IDS_CODE ENTRY(1);
       68       22    1   DCL ZIG$DDER ENTRY (1);
       69       23        %INCLUDE CP_6;
       70      104        %INCLUDE CP_6_SUBS;
       71      644        %FPT_OPEN(FPTN=OPEN_FPT,DCB=DUMP,FUN=CREATE,EXIST=OLDFILE,CTG=YES,
       72      645         SETDCB=YES,XTEND=YES,RES='NO  ',SHARE=ALL,ASN=DEVICE);
       73      754        %FPT_OPEN(FPTN=RES_OPEN,REASSIGN=YES,DCB=DUMP);
       74      863        %FPT_CLOSE(FPTN=CLOSE_FPT,DCB=DUMP);
       75      905        %FPT_ERRMSG(FPTN=ERRMSG_FPT,OUTDCB1=DUMP,OUTDCB2=M$LO);
       76      932        %FPT_CORRES(STCLASS=CONSTANT,DCB1=DUMP,DCB2=M$LO);
       77      946        %B$TCB;
       78      949        %B$EXCFR;
       79      967        %B$XCON;
       80      977        %B$ALT;
       81      985        %INCLUDE ZI_SUB4_CAN;
       82     1642        %UWA;
       83     1977        %IA;
PL6.E3A0      #003=ABORT File=ZIG$DDE5.:ZIC0TSI                                  FRI 09/05/97 11:44 Page:18
       84     1993        %RVA;
       85     2270
       86     2271        %EJECT;
PL6.E3A0      #003=ABORT File=ZIG$DDE5.:ZIC0TSI                                  FRI 09/05/97 11:44 Page:19
       87     2272    1       STORED_ERROR=ADDR(B$TCB$ -> B$TCB.ALT$ -> B$EXCFR.ERR.FCG) -> TRANS_WORD;
       88     2273    1       IF UWA.DB_STATUS ~= '0000000' AND UWA.DB_STATUS ~= '       '
       89     2274    2       THEN DO;
       90     2275    2           CALL ZIG$DDER(9965);
       91     2276        /*E*     ERROR:    ZIG-9965-C
       92     2277        MESSAGE: When DBACS was calling IDS a fatal error occurred and now
       93     2278                 DBACS is aborting and the reason why is:
       94     2279        */
       95     2280    2           CALL CHARBIN( IDS_CODE, UWA.DB_STATUS );
       96     2281    2           CALL HELP_IDS_CODE( IDS_CODE );
       97     2282    2           END;
       98     2283    1       CALL M$OPEN(OPEN_FPT) ALTRET(ERR1);
       99     2284    1       CALL M$OPEN(RES_OPEN) ALTRET(ERR1);
      100     2285    1       CALL ZIG$DUMP(B$TCB$,
      101     2286    1          POFFW(B$TCB$->B$TCB.STK$,B$TCB$)
      102     2287    1          +B$TCB$->B$TCB.CURRSZ,IDTCB);
      103     2288    1       ERRMSG_FPT.V.DCB#=B$TCB$->B$TCB.ALT$->B$ALT.DCB#;
      104     2289    1       ERRMSG_FPT.CODE_=VECTOR(STORED_ERROR);
      105     2290    1       CALL M$CORRES(FPT_CORRES)
      106     2291    2       WHENALTRETURN DO;
      107     2292    2           ERRMSG_FPT.V.OUTDCB2#=0;
      108     2293    2           END;
      109     2294
      110     2295    1       ERRMSG_FPT.BUF_ = VECTOR(ERROR_BUF);
      111     2296    1       CALL M$ERRMSG(ERRMSG_FPT);
      112     2297    1       ERRMSG_FPT.CODE_ = VECTOR(IA.IDSSYSERR);
      113     2298    1       CALL M$ERRMSG(ERRMSG_FPT);
      114     2299    1       CALL M$CLOSE(CLOSE_FPT) ALTRET(ERR1);
      115     2300        /*
      116     2301            This routine closes the printer output file and aborts
      117     2302        */
      118     2303    1       CALL CLOSEL;
      119     2304    1   ERR1:
      120     2305    1       CALL M$ERR;
      121     2306    1   END;
      122     2307        %EOD;

PL6.E3A0      #003=ABORT File=ZIG$DDE5.:ZIC0TSI                                  FRI 09/05/97 11:44 Page:20
--  Include file information  --

   ZI_SUB4_CAN.:ZIC0TOU  is referenced.
   CP_6_SUBS.:LIB_E05  is referenced.
   CP_6.:LIB_E05  cannot be made into a system file and is referenced.
   B$JIT_C.:E05TOU  was found in the system file and is never referenced.
   CP_6_C.:E05TOU  was found in the system file and is referenced.
      No diagnostics issued in procedure ABORT.

   Procedure ABORT requires 100 words for executable code.
   Procedure ABORT requires 44 words of local(AUTO) storage.

PL6.E3A0      #003=ABORT File=ZIG$DDE5.:ZIC0TSI                                  FRI 09/05/97 11:44 Page:21

 Object Unit name= ABORT                                      File name= ZIG$DDE5.:ZIC0TOU
 UTS= SEP 05 '97 11:44:34.36 FRI                              Compiler= PL-6/E31         Sev=      00
 SharedLib= :SHARED_SYSTEM                                    Alt SharedLib=


    ****  Control sections  ****

 Sect   Type Bound  Init  Size OctSiz  Section name(segment info)
    0   DCB   even  none     0      0  DUMP
    1   DCB   even  none     0      0  M$LO
    2  RoData even  UTS     18     22  ABORT
    3   DCB   even  none     0      0  M$UC
    4   Data  even  none   172    254  ABORT
    5  LblCom even  none   656   1220  UWA
    6  LblCom even  none    46     56  IA
    7  LblCom even  none   106    152  RVA
    8   Proc  even  none   100    144  ABORT
    9  RoData even  none    10     12  ABORT

    ****  Entry defs  ****

                              Check   Calling
                             calling  sequence
  Sect OctLoc Primary Altret sequence   type   Parms  Name
     8      0   yes            yes      Std        0  ABORT

  ****  Entry refs  ****

         Check        Calling
        calling       sequence
Altret sequence SRef   type   Args  Name
         yes           Std       1 ZIG$DDER
         yes           Std       1 HELP_IDS_CODE
         yes           Std       0 CLOSEL
         yes           Std       3 ZIG$DUMP
                       nStd      0 X66_AUTO_0
                       nStd      0 X66_ARET
PL6.E3A0      #003=ABORT File=ZIG$DDE5.:ZIC0TSI                                  FRI 09/05/97 11:44 Page:22

  ****  Data refs  ****

  Flags:  r = read only, s = secondary
Flgs Name                             Flgs Name                             Flgs Name
     DUMP                                  M$LO                                  B$TCB$
     M$UC

  ****  Segment refs  ****

  Flags:  r = read only, s = secondary
Flgs Name                             Flgs Name                             Flgs Name
     ISSID                                 NULLSID
PL6.E3A0      #003=ABORT File=ZIG$DDE5.:ZIC0TSI                                  FRI 09/05/97 11:44 Page:23


       47        1        /*T***********************************************************/
       48        2        /*T*                                                         */
       49        3        /*T* Copyright (c) Bull HN Information Systems Inc., 1997    */
       50        4        /*T*                                                         */
       51        5        /*T***********************************************************/
       52        6        ABORT: PROC;

      6  8 000000   000000 700200 xent  ABORT        TSX0  ! X66_AUTO_0
         8 000001   000054 000000                    ZERO    44,0

       53        7        /* No input or output arguments */
       54        8    1   DCL CLOSEL ENTRY;
       55        9    1   DCL DUMP DCB;
       56       10    1   DCL M$LO DCB;
       57       11    1   DCL ZIG$DUMP ENTRY(3);
       58       12    1   DCL B$TCB$ PTR SYMREF;
       59       13    1   DCL IDS_CODE UBIN WORD;
       60       14    1   DCL STORED_ERROR UBIN;
       61       15    1   DCL TRANS_WORD UBIN(36) BASED;
       62       16    1   DCL ERROR_BUF CHAR(120);
       63       17    1   DCL 1 IDTCB CONSTANT,
       64       18    1         2 COUNT UBIN(9) UNAL INIT(33),
       65       19    1         2 TEXT CHAR(33) UNAL
       66       20    1    INIT('0 DBACS DUMP - task control block');
       67       21    1   DCL HELP_IDS_CODE ENTRY(1);
       68       22    1   DCL ZIG$DDER ENTRY (1);
       69       23        %INCLUDE CP_6;
       70      104        %INCLUDE CP_6_SUBS;
       71      644        %FPT_OPEN(FPTN=OPEN_FPT,DCB=DUMP,FUN=CREATE,EXIST=OLDFILE,CTG=YES,
       72      645         SETDCB=YES,XTEND=YES,RES='NO  ',SHARE=ALL,ASN=DEVICE);
       73      754        %FPT_OPEN(FPTN=RES_OPEN,REASSIGN=YES,DCB=DUMP);
       74      863        %FPT_CLOSE(FPTN=CLOSE_FPT,DCB=DUMP);
       75      905        %FPT_ERRMSG(FPTN=ERRMSG_FPT,OUTDCB1=DUMP,OUTDCB2=M$LO);
       76      932        %FPT_CORRES(STCLASS=CONSTANT,DCB1=DUMP,DCB2=M$LO);
       77      946        %B$TCB;
       78      949        %B$EXCFR;
PL6.E3A0      #003=ABORT File=ZIG$DDE5.:ZIC0TSI                                  FRI 09/05/97 11:44 Page:24
       79      967        %B$XCON;
       80      977        %B$ALT;
       81      985        %INCLUDE ZI_SUB4_CAN;
       82     1642        %UWA;
       83     1977        %IA;
       84     1993        %RVA;
       85     2270
       86     2271        %EJECT;
PL6.E3A0      #003=ABORT File=ZIG$DDE5.:ZIC0TSI                                  FRI 09/05/97 11:44 Page:25
       87     2272    1       STORED_ERROR=ADDR(B$TCB$ -> B$TCB.ALT$ -> B$EXCFR.ERR.FCG) -> TRANS_WORD;

   2272  8 000002   000000 470400 xsym               LDP0    B$TCB$
         8 000003   000000 471500                    LDP1    0,,PR0
         8 000004   100102 235100                    LDA     66,,PR1
         8 000005   200004 755100                    STA     STORED_ERROR,,AUTO

       88     2273    1       IF UWA.DB_STATUS ~= '0000000' AND UWA.DB_STATUS ~= '       '

   2273  8 000006   040000 106400                    CMPC    fill='040'O
         8 000007   000001 000007 5                  ADSC9   UWA+1                    cn=0,n=7
         8 000010   000016 000007 2                  ADSC9   FPT_CORRES+4             cn=0,n=7
         8 000011   000035 600000 8                  TZE     s:2283
         8 000012   040000 106400                    CMPC    fill='040'O
         8 000013   000001 000007 5                  ADSC9   UWA+1                    cn=0,n=7
         8 000014   000020 000007 2                  ADSC9   FPT_CORRES+6             cn=0,n=7
         8 000015   000035 600000 8                  TZE     s:2283

       89     2274    2       THEN DO;

       90     2275    2           CALL ZIG$DDER(9965);

   2275  8 000016   000002 630400 9                  EPPR0   2
         8 000017   000000 631400 9                  EPPR1   0
         8 000020   000000 701000 xent               TSX1    ZIG$DDER
         8 000021   000000 011000                    NOP     0

       91     2276        /*E*     ERROR:    ZIG-9965-C
       92     2277        MESSAGE: When DBACS was calling IDS a fatal error occurred and now
       93     2278                 DBACS is aborting and the reason why is:
       94     2279        */
       95     2280    2           CALL CHARBIN( IDS_CODE, UWA.DB_STATUS );

   2280  8 000022   000100 305400                    DTB
         8 000023   000001 030007 5                  NDSC9   UWA+1                    cn=0,s=nosgn,sf=0,n=7
         8 000024   200044 000010                    NDSC9   ERROR_BUF+31,,AUTO       cn=0,s=lsgnf,sf=0,n=8
         8 000025   200045 235100                    LDA     ERROR_BUF+32,,AUTO
PL6.E3A0      #003=ABORT File=ZIG$DDE5.:ZIC0TSI                                  FRI 09/05/97 11:44 Page:26
         8 000026   200003 755100                    STA     IDS_CODE,,AUTO

       96     2281    2           CALL HELP_IDS_CODE( IDS_CODE );

   2281  8 000027   200003 630500                    EPPR0   IDS_CODE,,AUTO
         8 000030   200044 450500                    STP0    ERROR_BUF+31,,AUTO
         8 000031   200044 630500                    EPPR0   ERROR_BUF+31,,AUTO
         8 000032   000000 631400 9                  EPPR1   0
         8 000033   000000 701000 xent               TSX1    HELP_IDS_CODE
         8 000034   000000 011000                    NOP     0

       97     2282    2           END;

       98     2283    1       CALL M$OPEN(OPEN_FPT) ALTRET(ERR1);

   2283  8 000035   000000 630400 4                  EPPR0   OPEN_FPT
         8 000036   450000 713400                    CLIMB   alt,open
         8 000037   410400 401760                    pmme    nvectors=18
         8 000040   000141 702000 8                  TSX2    ERR1

       99     2284    1       CALL M$OPEN(RES_OPEN) ALTRET(ERR1);

   2284  8 000041   000072 630400 4                  EPPR0   RES_OPEN
         8 000042   450000 713400                    CLIMB   alt,open
         8 000043   410400 401760                    pmme    nvectors=18
         8 000044   000141 702000 8                  TSX2    ERR1

      100     2285    1       CALL ZIG$DUMP(B$TCB$,

   2285  8 000045   000000 235000 xsym               LDA     B$TCB$
         8 000046   000022 771000                    ARL     18
         8 000047   200044 755100                    STA     ERROR_BUF+31,,AUTO
         8 000050   000000 470400 xsym               LDP0    B$TCB$
         8 000051   000001 236100                    LDQ     1,,PR0
         8 000052   000022 772000                    QRL     18
         8 000053   200044 136100                    SBLQ    ERROR_BUF+31,,AUTO
         8 000054   200045 756100                    STQ     ERROR_BUF+32,,AUTO
PL6.E3A0      #003=ABORT File=ZIG$DDE5.:ZIC0TSI                                  FRI 09/05/97 11:44 Page:27
         8 000055   000002 236100                    LDQ     2,,PR0
         8 000056   777777 376007                    ANQ     -1,DL
         8 000057   200046 756100                    STQ     ERROR_BUF+33,,AUTO
         8 000060   200045 236100                    LDQ     ERROR_BUF+32,,AUTO
         8 000061   200046 036100                    ADLQ    ERROR_BUF+33,,AUTO
         8 000062   200047 756100                    STQ     ERROR_BUF+34,,AUTO
         8 000063   000004 236000 9                  LDQ     4
         8 000064   200052 756100                    STQ     ERROR_BUF+37,,AUTO
         8 000065   200047 631500                    EPPR1   ERROR_BUF+34,,AUTO
         8 000066   200051 451500                    STP1    ERROR_BUF+36,,AUTO
         8 000067   000005 236000 9                  LDQ     5
         8 000070   200050 756100                    STQ     ERROR_BUF+35,,AUTO
         8 000071   200050 630500                    EPPR0   ERROR_BUF+35,,AUTO
         8 000072   000003 631400 9                  EPPR1   3
         8 000073   000000 701000 xent               TSX1    ZIG$DUMP
         8 000074   000000 011000                    NOP     0

      101     2286    1          POFFW(B$TCB$->B$TCB.STK$,B$TCB$)
      102     2287    1          +B$TCB$->B$TCB.CURRSZ,IDTCB);
      103     2288    1       ERRMSG_FPT.V.DCB#=B$TCB$->B$TCB.ALT$->B$ALT.DCB#;

   2288  8 000075   000000 470400 xsym               LDP0    B$TCB$
         8 000076   000000 471500                    LDP1    0,,PR0
         8 000077   100101 720100                    LXL0    65,,PR1
         8 000100   000250 740000 4                  STX0    ERRMSG_FPT+22

      104     2289    1       ERRMSG_FPT.CODE_=VECTOR(STORED_ERROR);

   2289  8 000101   777640 235007                    LDA     -96,DL
         8 000102   200044 452500                    STP2    ERROR_BUF+31,,AUTO
         8 000103   200044 236100                    LDQ     ERROR_BUF+31,,AUTO
         8 000104   000004 036003                    ADLQ    4,DU
         8 000105   000224 757000 4                  STAQ    ERRMSG_FPT+2

      105     2290    1       CALL M$CORRES(FPT_CORRES)

   2290  8 000106   000012 630400 2                  EPPR0   FPT_CORRES
PL6.E3A0      #003=ABORT File=ZIG$DDE5.:ZIC0TSI                                  FRI 09/05/97 11:44 Page:28
         8 000107   460000 713400                    CLIMB   alt,+24576
         8 000110   400000 401760                    pmme    nvectors=1
         8 000111   000113 702000 8                  TSX2    s:2292
         8 000112   000115 710000 8                  TRA     s:2295

      106     2291    2       WHENALTRETURN DO;

      107     2292    2           ERRMSG_FPT.V.OUTDCB2#=0;

   2292  8 000113   000000 220003                    LDX0    0,DU
         8 000114   000251 740000 4                  STX0    ERRMSG_FPT+23

      108     2293    2           END;

      109     2294
      110     2295    1       ERRMSG_FPT.BUF_ = VECTOR(ERROR_BUF);

   2295  8 000115   000006 235000 9                  LDA     6
         8 000116   200044 452500                    STP2    ERROR_BUF+31,,AUTO
         8 000117   200044 236100                    LDQ     ERROR_BUF+31,,AUTO
         8 000120   000005 036003                    ADLQ    5,DU
         8 000121   000226 757000 4                  STAQ    ERRMSG_FPT+4

      111     2296    1       CALL M$ERRMSG(ERRMSG_FPT);

   2296  8 000122   000222 630400 4                  EPPR0   ERRMSG_FPT
         8 000123   020000 713400                    CLIMB   8192
         8 000124   405000 401760                    pmme    nvectors=11

      112     2297    1       ERRMSG_FPT.CODE_ = VECTOR(IA.IDSSYSERR);

   2297  8 000125   000010 237000 9                  LDAQ    8
         8 000126   000224 757000 4                  STAQ    ERRMSG_FPT+2

      113     2298    1       CALL M$ERRMSG(ERRMSG_FPT);

   2298  8 000127   000222 630400 4                  EPPR0   ERRMSG_FPT
PL6.E3A0      #003=ABORT File=ZIG$DDE5.:ZIC0TSI                                  FRI 09/05/97 11:44 Page:29
         8 000130   020000 713400                    CLIMB   8192
         8 000131   405000 401760                    pmme    nvectors=11

      114     2299    1       CALL M$CLOSE(CLOSE_FPT) ALTRET(ERR1);

   2299  8 000132   000164 630400 4                  EPPR0   CLOSE_FPT
         8 000133   450001 713400                    CLIMB   alt,close
         8 000134   406000 401760                    pmme    nvectors=13
         8 000135   000141 702000 8                  TSX2    ERR1

      115     2300        /*
      116     2301            This routine closes the printer output file and aborts
      117     2302        */
      118     2303    1       CALL CLOSEL;

   2303  8 000136   000007 631400 9                  EPPR1   7
         8 000137   000000 701000 xent               TSX1    CLOSEL
         8 000140   000000 011000                    NOP     0

      119     2304    1   ERR1:
      120     2305    1       CALL M$ERR;

   2305  8 000141   000002 713400       ERR1         CLIMB   err
         8 000142   000000 401760                    pmme    nvectors=0

      121     2306    1   END;

   2306  8 000143   000000 702200 xent               TSX2  ! X66_ARET

IDTCB
 Sect OctLoc
   2     000   041060 040104   102101 103123   040104 125115   120040 055040    !0 DBACS DUMP -
   2     004   164141 163153   040143 157156   164162 157154   040142 154157    task control blo
   2     010   143153 ******                                                    ck..

FPT_CORRES
 Sect OctLoc
PL6.E3A0      #003=ABORT File=ZIG$DDE5.:ZIC0TSI                                  FRI 09/05/97 11:44 Page:30
   2     012   000001 777640   000014 006000   000000 000000   ****** ******    ................

(unnamed)
 Sect OctLoc
   2     016   060060 060060   060060 060040   040040 040040   040040 040040    0000000

OPEN_FPT
 Sect OctLoc
   4     000   000025 777640   000044 006000   000000 177640   000000 006014    .....$..........
   4     004   000000 177640   000000 006014   000000 177640   000000 006014    ................
   4     044*  000000 100512   000000 003003   252525 000000   000040 252520    ..@.......... ..
   4     050   116117 040040   000000 000000   000000 777777   000000 000000    NO  ............
   4     054   000000 000000   000000 000000   000000 000000   000000 000000    ................
   4     060   261000 622000   000000 000000   000000 000000   111250 000000    ............I...
   4     064   040040 040040   000000 000000   000000 000000   000000 000000        ............
   4     070   000000 000000   ****** ******                                    ........

RES_OPEN
 Sect OctLoc
   4     072   000025 777640   000136 006000   000000 177640   000000 006014    .....^..........
   4     076   000000 177640   000000 006014   000000 177640   000000 006014    ................
   4     136*  000000 200042   000000 000000   252525 000000   000040 252520    ..."......... ..
   4     142   000040 040040   000000 000000   000000 777777   000000 000000    .   ............
   4     146   000000 000000   000000 000000   000000 000000   000000 000000    ................
   4     152   251000 622000   000000 000000   000000 000000   111250 000000    ............I...
   4     156   040040 040040   000000 000000   000000 000000   000000 000000        ............
   4     162   000000 000000   ****** ******                                    ........

CLOSE_FPT
 Sect OctLoc
   4     164   000003 777640   000216 006000   000000 177640   000000 006014    ................
   4     170   000000 177640   000000 006014   000000 177640   000000 006014    ................
   4     214*  000000 177640   000000 006014   000000 000000   000000 000040    ...............
   4     220   000220 000000   000000 000000                                    ........

ERRMSG_FPT
 Sect OctLoc
PL6.E3A0      #003=ABORT File=ZIG$DDE5.:ZIC0TSI                                  FRI 09/05/97 11:44 Page:31
   4     222   000003 777640   000250 006000   000000 177640   000000 006014    ................
   4     226   000000 177640   000000 006014   000000 177640   000000 006014    ................
   4     246*  000000 177640   000000 006014   000000 000000   000000 000000    ................
   4     252   375000 030001   040000 000000                                    .... ...

UWA
 Sect OctLoc
   5     000   000000 000000   040040 040040   040040 040040   040040 040040    ....
   5     004   040040 040040   040040 040040   040040 040040   040040 040040
   5     010   040040 040040   040040 040040   040040 000000   040040 040040              ..
   5     014   040040 040040   040040 040040   040040 040040   040040 040040
   5     020   040040 040040   040040 040040   040040 000000   040040 040040              ..
   5     024   040040 040040   040040 040040   040040 040040   040040 040040
   5     030   040040 040040   040040 040040   040040 000000   040040 040040              ..
   5     034   040040 040040   040040 040040   000000 000000   040040 040040            ....
   5     040   040040 040040   040040 040040   040040 040040   040040 040040
   5     044   040040 040040   040040 040040   040040 000000   040040 040040              ..
   5     050   040040 040040   040040 040040   040040 040040   040040 040040
   5     054   040040 040040   040040 040040   040040 000000   000000 000000              ......
   5     060   040040 040040   040*** ******   000000 000000   000000 000000         ...........
   5     064   000000 000000   000000 000000   040040 040040   040040 040040    ........
   5     070   040040 040040   040040 040040   040040 040040   040040 040040
   5     100*  040040 ******   000000 000000   040040 040040   040040 040040      ......
   5     104   040040 040040   040040 040040   040040 040040   040040 040040
   5     124*  040040 040040   040040 040040   000000 000000   040040 040040            ....
   5     130   040040 040040   040040 040040   040040 040040   040040 040040
   5     134   040040 040040   040040 040040   040040 ******   000000 000000              ......
   5     140   040040 040040   040040 040040   040040 040040   040040 040040
   5     144   040040 040040   040040 040040   000000 000000   000000 000000            ........
   5     150   000000 000000   000000 000000   000000 000000   000000 000000    ................
   5     154   040040 040040   040040 040040   040040 040040   040040 040040
   5     160   040040 040040   040040 040040   040040 040040   040040 ******                  ..
   5     164   000000 000000   ****** ******   000000 000000   000000 000000    ................
   5     170   000000 000000   040040 040040   040040 040040   040040 040040    ....
   5     174   040040 040040   040040 040040   040040 040040   040040 040040
   5     210*  040040 040040   040040 040040   040040 040040   ****** ******                ....
   5     214   000000 000000   000000 000000   000000 000000   000000 000000    ................
PL6.E3A0      #003=ABORT File=ZIG$DDE5.:ZIC0TSI                                  FRI 09/05/97 11:44 Page:32
   5     224*  000000 000000   000000 000000   000000 000000   040040 ******    ............  ..
   5     230   000000 000000   ****** ******   000000 000000   040040 040040    ............
   5     234   000000 000000   000000 000000   000000 000000   000000 000000    ................
   5     264*  000000 000000   000000 000000   000000 000000   ****** ******    ................
   5     270   000000 000000   000000 000000   000000 000000   000000 000000    ................
   5     324*  000000 000000   ****** ******   000000 000000   000000 000000    ................
   5     330   000000 000000   000000 000000   000000 000000   000000 000000    ................
   5     350*  000000 000000   000000 000000   000000 000000   ****** ******    ................
   5     360*  000000 000000   000000 000000   000000 000000   000000 000000    ................
   5     404*  000000 000000   ****** ******   000000 000000   000000 000000    ................
   5     410   000000 000000   000000 000000   000000 000000   000000 000000    ................
   5     424*  000000 000000   000000 000000   000000 000000   040040 040040    ............
   5     430   040040 040040   040040 040040   040040 040040   040040 040040
   5     434   040040 040040   040040 040040   040040 ******   ****** ******              ......
   5     440   040040 040040   040040 040040   040040 040040   040040 040040
   5     450*  040040 040040   040040 040040   040040 ******   ****** ******              ......
   5     454   000000 000000   040040 040040   040040 040040   040040 040040    ....
   5     460   040040 040040   040040 040040   040040 040040   040040 040040
   5     464   040040 ******   ****** ******   000000 000000   000000 000000      ..............
   5     470   000000 000000   000000 000000   000000 000000   000000 000000    ................
   5     474   000000 000000   ****** ******   000000 000000   000000 000000    ................
   5     500   000000 000000   000000 000000   040040 040040   040040 040040    ........
   5     504   040040 040040   040040 040040   040040 040040   040040 040040
   5     520*  040040 040040   ****** ******   000000 000000   000000 000000        ............
   5     524   040040 040040   040040 040040   040040 040040   040040 040040
   5     574*  000000 000000   000000 000000   000000 000000   000000 000000    ................
   5     600   000000 000000   000000 000000   000000 000000   ****** ******    ................
   5     604   000000 000000   000000 000000   000000 000000   000000 000000    ................
   5     610   000000 000000   000000 000000   040040 040040   040040 040040    ........
   5     614   040040 040040   040040 040040   040040 040040   040040 040040
   5     620   040040 040040   040040 ******   040040 040040   040040 040040          ..
   5     624   040040 040040   040040 040040   040040 040040   040040 040040
   5     660*  040040 040040   040040 040040   040040 040040   ****** ******                ....
   5     664   040040 040040   040040 040040   040040 040040   040040 040040
   5     674*  040040 040040   ****** ******   040040 040040   040040 040040        ....
   5     700   040040 040040   040040 040040   040040 040040   040040 040040
   5     710*  040040 040040   ****** ******   040040 040040   040040 040040        ....
PL6.E3A0      #003=ABORT File=ZIG$DDE5.:ZIC0TSI                                  FRI 09/05/97 11:44 Page:33
   5     714   040040 040040   040040 040040   040040 040040   040040 040040
   5     720   040040 040040   040040 040040   040040 040040   ****** ******                ....
   5     724   040040 040040   040040 040040   040040 040040   040040 040040
   5     740*  040040 040040   ****** ******   040040 040040   040040 040040        ....
   5     744   040040 040040   040040 040040   040040 040040   040040 040040
   5     774*  040040 040040   ****** ******   040040 040040   040040 040040        ....
   5    1000   040040 040040   040040 040040   040040 040040   040040 040040
   5    1034*  040040 040040   ****** ******   040040 040040   040040 040040        ....
   5    1040   040040 040040   040040 040040   040040 040040   040040 040040
   5    1060*  040040 040040   ****** ******   040040 040040   040040 040040        ....
   5    1064   040040 040040   040040 040040   040040 040040   040040 040040
   5    1114*  040040 040040   ****** ******   040040 040040   040040 040040        ....
   5    1120   040040 040040   040040 040040   040040 040040   040040 040040
   5    1134*  040040 040040   040040 040040   040040 040040   ****** ******                ....
   5    1140   040040 040040   040040 040040   040040 040040   040040 040040
   5    1144   040040 040040   ****** ******   040040 040040   040040 040040        ....
   5    1150   040040 040040   040040 040040   040040 040040   ****** ******                ....
   5    1154   040040 040040   040040 040040   040040 040040   040040 040040
   5    1160   040040 040040   ****** ******   040040 040040   040040 040040        ....
   5    1164   040040 040040   040040 040040   040040 040040   ****** ******                ....
   5    1170   040040 040040   040040 040040   040040 040040   040040 040040
   5    1200*  040040 040040   040040 040040   040040 040040   ****** ******                ....
   5    1204   040040 040040   040040 040040   040040 040040   040040 040040
   5    1214*  040040 040040   040040 040040   040040 040040   040040 040040

IA
 Sect OctLoc
   6     000   000000 000000   000000 006000   000000 000000   000000 000000    ................
   6     004   000000 000000   000000 000000   000000 000000   000000 000000    ................
   6     010   000000 006000   000000 000000   104125 116107   137123 103110    ........DUNG_SCH
   6     014   040040 040040   040040 040040   040040 040040   040040 040040
   6     020   040040 040040   040040 040040   104125 116107   055123 125102            DUNG-SUB
   6     024   040040 040040   040040 040040   040040 040040   040040 040040
   6     030   040040 040040   040040 040040   000000 000000   000000 000000            ........
   6     034   000000 000000   000000 000000   000000 000000   000000 000000    ................
   6     050*  000000 000000   000000 000000   000000 000000   061476 566547    ............1...
   6     054   000000 000000   061476 527476                                    ....1...
PL6.E3A0      #003=ABORT File=ZIG$DDE5.:ZIC0TSI                                  FRI 09/05/97 11:44 Page:34

RVA
 Sect OctLoc
   7     000   000151 000000   000000 000001   000001 000002   000001 000003    .i..............
   7     004   000001 000004   000001 000005   000001 000006   000001 000007    ................
   7     010   000001 000010   000001 000011   000001 000012   000001 000013    ................
   7     014   000001 000014   000001 000015   000001 000016   000001 000017    ................
   7     020   000001 000020   000001 000021   000001 000022   000001 000023    ................
   7     024   000001 000024   000001 000025   000001 000026   000001 000027    ................
   7     030   000001 000030   000001 000031   000001 000032   000001 000033    ................
   7     034   000001 000034   000001 000035   000001 000036   000001 000037    ................
   7     040   000001 000040   000001 000041   000001 000042   000001 000043    ... ...!..."...#
   7     044   000001 000044   000001 000045   000001 000046   000001 000047    ...$...%...&...'
   7     050   000001 000050   000001 000051   000001 000052   000002 000600    ...(...)...*....
   7     054   000002 000660   000002 001040   000002 001260   000002 001460    ....... ........
   7     060   000002 001540   000002 001660   000002 001700   000002 002140    ...............`
   7     064   000002 002320   000002 002700   000002 003100   000002 003260    ...........@....
   7     070   000002 003320   000002 003540   000002 003600   000002 003740    ................
   7     074   000002 004000   000002 004060   000002 004220   000002 004400    .......0........
   7     100   000002 004540   000002 004660   000002 004720   000002 004760    ................
   7     104   000002 005000   000002 005020   000002 005220   000002 005240    ................
   7     110   000002 005500   000002 005740   000002 005760   000002 006000    ................
   7     114   000002 006020   000002 006040   000002 006220   000002 006340    ....... ........
   7     120   000002 006640   000002 006760   000002 007120   000002 007240    ...........P....
   7     124   000002 007320   000002 007420   000002 007560   000002 007640    ................
   7     130   000002 007760   000002 010120   000002 010360   000002 010460    .......P........
   7     134   000002 010620   000002 010720   000002 011060   000002 011160    ...........0...p
   7     140   000002 011220   000002 011320   000002 011400   000002 011460    ................
   7     144   000002 011540   000002 011620   000002 011700   000002 011760    ................
   7     150   000002 012040   000004 000000                                    ... ....

(unnamed)
 Sect OctLoc
   9     000   000001 000000   000000 023355   000001 006000   000003 000000    ................
   9     004   000000 006000   000000 006000   000035 777640   000000 000000    ................
   9     010   000000 777640   000005 006000                                    ........
      122     2307        %EOD;
PL6.E3A0      #003=ABORT File=ZIG$DDE5.:ZIC0TSI                                  FRI 09/05/97 11:44 Page:35

PL6.E3A0      #003=ABORT File=ZIG$DDE5.:ZIC0TSI                                  FRI 09/05/97 11:44 Page:36
--  Include file information  --

   ZI_SUB4_CAN.:ZIC0TOU  is referenced.
   CP_6_SUBS.:LIB_E05  is referenced.
   CP_6.:LIB_E05  cannot be made into a system file and is referenced.
   B$JIT_C.:E05TOU  was found in the system file and is never referenced.
   CP_6_C.:E05TOU  was found in the system file and is referenced.
      No diagnostics issued in procedure ABORT.

   Procedure ABORT requires 100 words for executable code.
   Procedure ABORT requires 44 words of local(AUTO) storage.
PL6.E3A0      #003=ABORT File=ZIG$DDE5.:ZIC0TSI                                  FRI 09/05/97 11:44 Page:37
          *** CROSS REFERENCE LISTING ***
**     DENOTES     IDENTIFIER DEFINITION
<<                 IDENTIFIER'S VALUE SET
>>                 IDENTIFIER'S VALUE USED
<>                 IDENTIFIER SET AND/OR USED
--                 IDENTIFIER REFERENCED
PL6.E3A0      #003=ABORT File=ZIG$DDE5.:ZIC0TSI                                  FRI 09/05/97 11:44 Page:38
          MINI XREF LISTING

B$ALT.CODE
       979**DCL       979--REDEF     980--REDEF     980--REDEF
B$ALT.DCB#
       980**DCL      2288>>ASSIGN
B$ALT.ERR.ERR#
       981**DCL       981--REDEF
B$ALT.EVID
       980**DCL       980--REDEF     980--REDEF
B$EXCFR.ASL
       950**DCL       950--REDEF
B$EXCFR.ERR.ERR#
       964**DCL       964--REDEF
B$EXCFR.ERR.FCG
       964**DCL      2272--ASSIGN
B$EXCFR.EVID
       963**DCL       963--REDEF     964--REDEF
B$EXCFR.IR
       951**DCL       951--REDEF
B$EXCFR.PREVSZ
       950**DCL       950--REDEF
B$EXCFR.SUBC
       962**DCL       962--REDEF     963--REDEF     963--REDEF
B$TCB.ALT$
       947**DCL      2272>>ASSIGN   2288>>ASSIGN
B$TCB.CURRSZ
       947**DCL      2285>>CALL
B$TCB.STK$
       947**DCL      2285>>CALL
B$TCB$
        12**DCL      2272>>ASSIGN   2285<>CALL     2285>>CALL     2285>>CALL     2285>>CALL     2288>>ASSIGN
B$XCON.ERR.ERR#
       974**DCL       974--REDEF
PL6.E3A0      #003=ABORT File=ZIG$DDE5.:ZIC0TSI                                  FRI 09/05/97 11:44 Page:39
B$XCON.LIMIT.MEM
       972**DCL       972--REDEF
CLOSEL
         8**DCL-ENT  2303--CALL
CLOSE_FPT
       886**DCL      2299<>CALL
CLOSE_FPT.SN_
       886**DCL       886--REDEF
CLOSE_FPT.UTL_
       887**DCL       887--REDEF
CLOSE_FPT.V
       891**DCL       886--DCLINIT
CLOSE_FPT.V.EXPIRE#
       901**DCL       901--REDEF
CLOSE_FPT.V.TYPE#
       899**DCL       899--REDEF
CLOSE_FPT.V.XTNSIZE#
       896**DCL       896--REDEF     898--REDEF
ERR1
      2305**LABEL    2283--CALLALT  2284--CALLALT  2299--CALLALT
ERRMSG_FPT
       916**DCL      2296<>CALL     2298<>CALL
ERRMSG_FPT.BUF_
       916**DCL      2295<<ASSIGN
ERRMSG_FPT.CODE_
       916**DCL      2289<<ASSIGN   2297<<ASSIGN
ERRMSG_FPT.V
       920**DCL       916--DCLINIT
ERRMSG_FPT.V.DCB#
       920**DCL      2288<<ASSIGN
ERRMSG_FPT.V.OUTDCB2#
       921**DCL      2292<<ASSIGN
ERROR_BUF
        16**DCL      2295--ASSIGN
FPT_CORRES
       943**DCL      2290<>CALL
PL6.E3A0      #003=ABORT File=ZIG$DDE5.:ZIC0TSI                                  FRI 09/05/97 11:44 Page:40
FPT_CORRES.V
       943**DCL       943--DCLINIT
HELP_IDS_CODE
        21**DCL-ENT  2281--CALL
IA.IDSSYSERR
      1982**DCL      2297--ASSIGN
IDS_CODE
        13**DCL      2280<<CALLBLT  2281<>CALL
IDTCB
        17**DCL      2285<>CALL
M$CLOSE
        32**DCL-ENT  2299--CALL
M$CORRES
        37**DCL-ENT  2290--CALL
M$ERR
        44**DCL-ENT  2305--CALL
M$ERRMSG
        95**DCL-ENT  2296--CALL     2298--CALL
M$OPEN
        32**DCL-ENT  2283--CALL     2284--CALL
OPEN_FPT
       710**DCL      2283<>CALL
OPEN_FPT.ACSVEH_
       712**DCL       713--REDEF
OPEN_FPT.ALTKEYS_
       718**DCL       719--REDEF     719--REDEF
OPEN_FPT.HDR_
       717**DCL       718--REDEF
OPEN_FPT.TAB_
       716**DCL       717--REDEF
OPEN_FPT.UHL_
       710**DCL       711--REDEF     711--REDEF
OPEN_FPT.V
       719**DCL       710--DCLINIT
OPEN_FPT.V.FSN#
       750**DCL       750--REDEF     750--REDEF
PL6.E3A0      #003=ABORT File=ZIG$DDE5.:ZIC0TSI                                  FRI 09/05/97 11:44 Page:41
OPEN_FPT.WSN_
       716**DCL       716--REDEF
RES_OPEN
       819**DCL      2284<>CALL
RES_OPEN.ACSVEH_
       821**DCL       822--REDEF
RES_OPEN.ALTKEYS_
       827**DCL       828--REDEF     828--REDEF
RES_OPEN.HDR_
       826**DCL       827--REDEF
RES_OPEN.TAB_
       825**DCL       826--REDEF
RES_OPEN.UHL_
       819**DCL       820--REDEF     820--REDEF
RES_OPEN.V
       828**DCL       819--DCLINIT
RES_OPEN.V.FSN#
       859**DCL       859--REDEF     859--REDEF
RES_OPEN.WSN_
       825**DCL       825--REDEF
RVA
      1994**DCL      1984--DCLINIT
STORED_ERROR
        14**DCL      2272<<ASSIGN   2289--ASSIGN
TRANS_WORD
        15**DCL      2272>>ASSIGN
UWA
      1643**DCL      1980--DCLINIT
UWA.AC.CALC_NEXT
      1753**DCL      1754--REDEF
UWA.AC.CALC_PRIOR
      1762**DCL      1763--REDEF
UWA.AC.DEFAULTS
      1714**DCL      1715--REDEF
UWA.AC.FILE_CODE
      1719**DCL      1720--REDEF
PL6.E3A0      #003=ABORT File=ZIG$DDE5.:ZIC0TSI                                  FRI 09/05/97 11:44 Page:42
UWA.AC.FLAG1.ERROR_TYPE
      1716**DCL      1717--REDEF
UWA.DB_STATUS
      1645**DCL      2273>>IF       2273>>IF       2280>>CALLBLT
ZIG$DDER
        22**DCL-ENT  2275--CALL
ZIG$DUMP
        11**DCL-ENT  2285--CALL

PL6.E3A0      #004=UNSC File=ZIG$DDE5.:ZIC0TSI                                   FRI 09/05/97 11:44 Page:43
      123        1        /*M*         UNSC  I-D-S/II DBACS ROTATE LEFT 31 780629 */
      124        2        /*T***********************************************************/
      125        3        /*T*                                                         */
      126        4        /*T* Copyright (c) Bull HN Information Systems Inc., 1997    */
      127        5        /*T*                                                         */
      128        6        /*T***********************************************************/
      129        7        /*P*
      130        8        NAME:        UNSC
      131        9        PURPOSE:     ROTATE LEFT 31 BITS.
      132       10        ARGUMENTS:   IN_BUF-> INPUT BUFFER.
      133       11                     OUT_BUF-> OUTPUT BUFFER.
      134       12        CALLING PROGRAMS:
      135       13                     MAIN FUNCTION       CALLING MODULES
      136       14                     -------------       ---------------
      137       15                     DICTIONARY          DDX8
      138       16                     DISPLAY             DDX7
      139       17                     LOCKS               DDY1
      140       18                     PURGE               DDS6
      141       19                     SCHEMA DMCL ALTER   DDQ4,DDY3
      142       20        */
      143       21        UNSC: PROC (IN_BUF,OUT_BUF);
      144       22    1   DCL IN_BUF CHAR (12);
      145       23    1   DCL OUT_BUF CHAR (12);
      146       24    1   DCL IN_BUFX CHAR (12) ALIGNED;
      147       25    1   DCL 1 X REDEF IN_BUFX,
      148       26    1         2 X1 BIT (31),
      149       27    1         2 X2 BIT (5),
      150       28    1         2 X3 BIT (31),
      151       29    1         2 X4 BIT (5),
      152       30    1         2 X5 BIT (31),
      153       31    1         2 X6 BIT (5);
      154       32    1   DCL OUT_BUFX CHAR (12) ALIGNED;
      155       33    1   DCL 1 Y REDEF OUT_BUFX,
      156       34    1         2 Y1 BIT (5),
      157       35    1         2 Y2 BIT (31),
      158       36    1         2 Y3 BIT (5),
      159       37    1         2 Y4 BIT (31),
PL6.E3A0      #004=UNSC File=ZIG$DDE5.:ZIC0TSI                                   FRI 09/05/97 11:44 Page:44
      160       38    1         2 Y5 BIT (5),
      161       39    1         2 Y6 BIT (31);
      162       40    1       IN_BUFX = IN_BUF;
      163       41    1       Y.Y1 = X.X2;
      164       42    1       Y.Y2 = X.X1;
      165       43    1       Y.Y3 = X.X4;
      166       44    1       Y.Y4 = X.X3;
      167       45    1       Y.Y5 = X.X6;
      168       46    1       Y.Y6 = X.X5;
      169       47    1       OUT_BUF = OUT_BUFX;
      170       48    1       RETURN;
      171       49    1   END;
      172       50        %EOD;

PL6.E3A0      #004=UNSC File=ZIG$DDE5.:ZIC0TSI                                   FRI 09/05/97 11:44 Page:45
--  Include file information  --

   B$JIT_C.:E05TOU  was found in the system file and is never referenced.
   CP_6_C.:E05TOU  was found in the system file and is never referenced.
      No diagnostics issued in procedure UNSC.

   Procedure UNSC requires 41 words for executable code.
   Procedure UNSC requires 12 words of local(AUTO) storage.

PL6.E3A0      #004=UNSC File=ZIG$DDE5.:ZIC0TSI                                   FRI 09/05/97 11:44 Page:46

 Object Unit name= UNSC                                       File name= ZIG$DDE5.:ZIC0TOU
 UTS= SEP 05 '97 11:44:49.12 FRI                              Compiler= PL-6/E31         Sev=      00
 SharedLib= :SHARED_SYSTEM                                    Alt SharedLib=


    ****  Control sections  ****

 Sect   Type Bound  Init  Size OctSiz  Section name(segment info)
    0   Proc  even  none    41     51  UNSC
    1  RoData even  none     1      1  UNSC

    ****  Entry defs  ****

                              Check   Calling
                             calling  sequence
  Sect OctLoc Primary Altret sequence   type   Parms  Name
     0      0   yes            yes      Std        2  UNSC

  ****  Entry refs  ****

         Check        Calling
        calling       sequence
Altret sequence SRef   type   Args  Name
                       nStd      0 X66_AUTO_2
                       nStd      0 X66_ARET
PL6.E3A0      #004=UNSC File=ZIG$DDE5.:ZIC0TSI                                   FRI 09/05/97 11:44 Page:47


      123        1        /*M*         UNSC  I-D-S/II DBACS ROTATE LEFT 31 780629 */
      124        2        /*T***********************************************************/
      125        3        /*T*                                                         */
      126        4        /*T* Copyright (c) Bull HN Information Systems Inc., 1997    */
      127        5        /*T*                                                         */
      128        6        /*T***********************************************************/
      129        7        /*P*
      130        8        NAME:        UNSC
      131        9        PURPOSE:     ROTATE LEFT 31 BITS.
      132       10        ARGUMENTS:   IN_BUF-> INPUT BUFFER.
      133       11                     OUT_BUF-> OUTPUT BUFFER.
      134       12        CALLING PROGRAMS:
      135       13                     MAIN FUNCTION       CALLING MODULES
      136       14                     -------------       ---------------
      137       15                     DICTIONARY          DDX8
      138       16                     DISPLAY             DDX7
      139       17                     LOCKS               DDY1
      140       18                     PURGE               DDS6
      141       19                     SCHEMA DMCL ALTER   DDQ4,DDY3
      142       20        */
      143       21        UNSC: PROC (IN_BUF,OUT_BUF);

     21  0 000000   000000 700200 xent  UNSC         TSX0  ! X66_AUTO_2
         0 000001   000014 000002                    ZERO    12,2

      144       22    1   DCL IN_BUF CHAR (12);
      145       23    1   DCL OUT_BUF CHAR (12);
      146       24    1   DCL IN_BUFX CHAR (12) ALIGNED;
      147       25    1   DCL 1 X REDEF IN_BUFX,
      148       26    1         2 X1 BIT (31),
      149       27    1         2 X2 BIT (5),
      150       28    1         2 X3 BIT (31),
      151       29    1         2 X4 BIT (5),
      152       30    1         2 X5 BIT (31),
      153       31    1         2 X6 BIT (5);
      154       32    1   DCL OUT_BUFX CHAR (12) ALIGNED;
PL6.E3A0      #004=UNSC File=ZIG$DDE5.:ZIC0TSI                                   FRI 09/05/97 11:44 Page:48
      155       33    1   DCL 1 Y REDEF OUT_BUFX,
      156       34    1         2 Y1 BIT (5),
      157       35    1         2 Y2 BIT (31),
      158       36    1         2 Y3 BIT (5),
      159       37    1         2 Y4 BIT (31),
      160       38    1         2 Y5 BIT (5),
      161       39    1         2 Y6 BIT (31);
      162       40    1       IN_BUFX = IN_BUF;

     40  0 000002   200003 470500                    LDP0    @IN_BUF,,AUTO
         0 000003   040100 100500                    MLR     fill='040'O
         0 000004   000000 000014                    ADSC9   0,,PR0                   cn=0,n=12
         0 000005   200005 000014                    ADSC9   IN_BUFX,,AUTO            cn=0,n=12

      163       41    1       Y.Y1 = X.X2;

     41  0 000006   200005 236100                    LDQ     IN_BUFX,,AUTO
         0 000007   000037 736000                    QLS     31
         0 000010   200010 676100                    ERQ     OUT_BUFX,,AUTO
         0 000011   760000 376003                    ANQ     -8192,DU
         0 000012   200010 656100                    ERSQ    OUT_BUFX,,AUTO

      164       42    1       Y.Y2 = X.X1;

     42  0 000013   200005 236100                    LDQ     IN_BUFX,,AUTO
         0 000014   000005 772000                    QRL     5
         0 000015   200010 676100                    ERQ     OUT_BUFX,,AUTO
         0 000016   000000 376000 1                  ANQ     0
         0 000017   200010 656100                    ERSQ    OUT_BUFX,,AUTO

      165       43    1       Y.Y3 = X.X4;

     43  0 000020   200006 236100                    LDQ     IN_BUFX+1,,AUTO
         0 000021   000037 736000                    QLS     31
         0 000022   200011 676100                    ERQ     OUT_BUFX+1,,AUTO
         0 000023   760000 376003                    ANQ     -8192,DU
         0 000024   200011 656100                    ERSQ    OUT_BUFX+1,,AUTO
PL6.E3A0      #004=UNSC File=ZIG$DDE5.:ZIC0TSI                                   FRI 09/05/97 11:44 Page:49

      166       44    1       Y.Y4 = X.X3;

     44  0 000025   200006 236100                    LDQ     IN_BUFX+1,,AUTO
         0 000026   000005 772000                    QRL     5
         0 000027   200011 676100                    ERQ     OUT_BUFX+1,,AUTO
         0 000030   000000 376000 1                  ANQ     0
         0 000031   200011 656100                    ERSQ    OUT_BUFX+1,,AUTO

      167       45    1       Y.Y5 = X.X6;

     45  0 000032   200007 236100                    LDQ     IN_BUFX+2,,AUTO
         0 000033   000037 736000                    QLS     31
         0 000034   200012 676100                    ERQ     OUT_BUFX+2,,AUTO
         0 000035   760000 376003                    ANQ     -8192,DU
         0 000036   200012 656100                    ERSQ    OUT_BUFX+2,,AUTO

      168       46    1       Y.Y6 = X.X5;

     46  0 000037   200007 236100                    LDQ     IN_BUFX+2,,AUTO
         0 000040   000005 772000                    QRL     5
         0 000041   200012 676100                    ERQ     OUT_BUFX+2,,AUTO
         0 000042   000000 376000 1                  ANQ     0
         0 000043   200012 656100                    ERSQ    OUT_BUFX+2,,AUTO

      169       47    1       OUT_BUF = OUT_BUFX;

     47  0 000044   200004 471500                    LDP1    @OUT_BUF,,AUTO
         0 000045   040100 100500                    MLR     fill='040'O
         0 000046   200010 000014                    ADSC9   OUT_BUFX,,AUTO           cn=0,n=12
         0 000047   100000 000014                    ADSC9   0,,PR1                   cn=0,n=12

      170       48    1       RETURN;

     48  0 000050   000000 702200 xent               TSX2  ! X66_ARET

(unnamed)
PL6.E3A0      #004=UNSC File=ZIG$DDE5.:ZIC0TSI                                   FRI 09/05/97 11:44 Page:50
 Sect OctLoc
   1     000   017777 777777                                                    ....
      171       49    1   END;
      172       50        %EOD;

PL6.E3A0      #004=UNSC File=ZIG$DDE5.:ZIC0TSI                                   FRI 09/05/97 11:44 Page:51
--  Include file information  --

   B$JIT_C.:E05TOU  was found in the system file and is never referenced.
   CP_6_C.:E05TOU  was found in the system file and is never referenced.
      No diagnostics issued in procedure UNSC.

   Procedure UNSC requires 41 words for executable code.
   Procedure UNSC requires 12 words of local(AUTO) storage.
PL6.E3A0      #004=UNSC File=ZIG$DDE5.:ZIC0TSI                                   FRI 09/05/97 11:44 Page:52
          *** CROSS REFERENCE LISTING ***
**     DENOTES     IDENTIFIER DEFINITION
<<                 IDENTIFIER'S VALUE SET
>>                 IDENTIFIER'S VALUE USED
<>                 IDENTIFIER SET AND/OR USED
--                 IDENTIFIER REFERENCED
PL6.E3A0      #004=UNSC File=ZIG$DDE5.:ZIC0TSI                                   FRI 09/05/97 11:44 Page:53
          MINI XREF LISTING

IN_BUF
        22**DCL        21--PROC       40>>ASSIGN
IN_BUFX
        24**DCL        25--REDEF      40<<ASSIGN
OUT_BUF
        23**DCL        21--PROC       47<<ASSIGN
OUT_BUFX
        32**DCL        33--REDEF      47>>ASSIGN
X.X1
        26**DCL        42>>ASSIGN
X.X2
        27**DCL        41>>ASSIGN
X.X3
        28**DCL        44>>ASSIGN
X.X4
        29**DCL        43>>ASSIGN
X.X5
        30**DCL        46>>ASSIGN
X.X6
        31**DCL        45>>ASSIGN
Y.Y1
        34**DCL        41<<ASSIGN
Y.Y2
        35**DCL        42<<ASSIGN
Y.Y3
        36**DCL        43<<ASSIGN
Y.Y4
        37**DCL        44<<ASSIGN
Y.Y5
        38**DCL        45<<ASSIGN
Y.Y6
        39**DCL        46<<ASSIGN

PL6.E3A0      #005=ATOFB File=ZIG$DDE5.:ZIC0TSI                                  FRI 09/05/97 11:44 Page:54
      173        1        /*M*         ATOFB I-D-S/II DBACS ASCII TO BINARY 780629  */
      174        2        /*T***********************************************************/
      175        3        /*T*                                                         */
      176        4        /*T* Copyright (c) Bull HN Information Systems Inc., 1997    */
      177        5        /*T*                                                         */
      178        6        /*T***********************************************************/
      179        7        /*P*
      180        8        NAME:        ATOFB
      181        9        PURPOSE:     CONVERT ASCII TO BINARY.
      182       10        ARGUMENTS:   DEC_CHAR-> INPUT ASCII CHAR.
      183       11                     CHAR_LENGTH-> LENGTH OF ASCII CHAR.
      184       12                     BIN_CHAR-> OUTPUT BINARY CHAR.
      185       13        CALLING PROGRAMS:
      186       14                     MAIN FUNCTION             CALLING MODULES
      187       15                     -------------             ---------------
      188       16                     DIRECTIVE PROCESSOR       DDS3
      189       17                     SCHEMA DDL TRANSLATOR     DDB9,DDD1,DDE8
      190       18                     SCHEMA DMCL TRANSLATOR    DDB9,DDP1,DDP2
      191       19        */
      192       20        ATOFB: PROC (DEC_CHAR, CHAR_LENGTH, BIN_CHAR);
      193       21        /* Input arguments  */
      194       22    1   DCL DEC_CHAR CHAR (16) ALIGNED;
      195       23    1   DCL CHAR_LENGTH UBIN (36);
      196       24    1   DCL BIN_CHAR UBIN (36);
      197       25    1   DCL TEMP UBIN (36) ALIGNED;
      198       26    1       CALL CHARBIN (TEMP,SUBSTR(DEC_CHAR,0,CHAR_LENGTH));
      199       27    1       BIN_CHAR = TEMP;
      200       28    1       RETURN;
      201       29    1   END;
      202       30        %EOD;

PL6.E3A0      #005=ATOFB File=ZIG$DDE5.:ZIC0TSI                                  FRI 09/05/97 11:44 Page:55
--  Include file information  --

   B$JIT_C.:E05TOU  was found in the system file and is never referenced.
   CP_6_C.:E05TOU  was found in the system file and is never referenced.
      No diagnostics issued in procedure ATOFB.

   Procedure ATOFB requires 13 words for executable code.
   Procedure ATOFB requires 10 words of local(AUTO) storage.

PL6.E3A0      #005=ATOFB File=ZIG$DDE5.:ZIC0TSI                                  FRI 09/05/97 11:44 Page:56

 Object Unit name= ATOFB                                      File name= ZIG$DDE5.:ZIC0TOU
 UTS= SEP 05 '97 11:44:51.00 FRI                              Compiler= PL-6/E31         Sev=      00
 SharedLib= :SHARED_SYSTEM                                    Alt SharedLib=


    ****  Control sections  ****

 Sect   Type Bound  Init  Size OctSiz  Section name(segment info)
    0   Proc  even  none    13     15  ATOFB

    ****  Entry defs  ****

                              Check   Calling
                             calling  sequence
  Sect OctLoc Primary Altret sequence   type   Parms  Name
     0      0   yes            yes      Std        3  ATOFB

  ****  Entry refs  ****

         Check        Calling
        calling       sequence
Altret sequence SRef   type   Args  Name
                       nStd      0 X66_AUTO_3
                       nStd      0 X66_ARET
PL6.E3A0      #005=ATOFB File=ZIG$DDE5.:ZIC0TSI                                  FRI 09/05/97 11:44 Page:57


      173        1        /*M*         ATOFB I-D-S/II DBACS ASCII TO BINARY 780629  */
      174        2        /*T***********************************************************/
      175        3        /*T*                                                         */
      176        4        /*T* Copyright (c) Bull HN Information Systems Inc., 1997    */
      177        5        /*T*                                                         */
      178        6        /*T***********************************************************/
      179        7        /*P*
      180        8        NAME:        ATOFB
      181        9        PURPOSE:     CONVERT ASCII TO BINARY.
      182       10        ARGUMENTS:   DEC_CHAR-> INPUT ASCII CHAR.
      183       11                     CHAR_LENGTH-> LENGTH OF ASCII CHAR.
      184       12                     BIN_CHAR-> OUTPUT BINARY CHAR.
      185       13        CALLING PROGRAMS:
      186       14                     MAIN FUNCTION             CALLING MODULES
      187       15                     -------------             ---------------
      188       16                     DIRECTIVE PROCESSOR       DDS3
      189       17                     SCHEMA DDL TRANSLATOR     DDB9,DDD1,DDE8
      190       18                     SCHEMA DMCL TRANSLATOR    DDB9,DDP1,DDP2
      191       19        */
      192       20        ATOFB: PROC (DEC_CHAR, CHAR_LENGTH, BIN_CHAR);

     20  0 000000   000000 700200 xent  ATOFB        TSX0  ! X66_AUTO_3
         0 000001   000012 000003                    ZERO    10,3

      193       21        /* Input arguments  */
      194       22    1   DCL DEC_CHAR CHAR (16) ALIGNED;
      195       23    1   DCL CHAR_LENGTH UBIN (36);
      196       24    1   DCL BIN_CHAR UBIN (36);
      197       25    1   DCL TEMP UBIN (36) ALIGNED;
      198       26    1       CALL CHARBIN (TEMP,SUBSTR(DEC_CHAR,0,CHAR_LENGTH));

     26  0 000002   200004 470500                    LDP0    @CHAR_LENGTH,,AUTO
         0 000003   000000 720100                    LXL0    0,,PR0
         0 000004   200003 471500                    LDP1    @DEC_CHAR,,AUTO
         0 000005   000100 305540                    DTB
         0 000006   100000 030010                    NDSC9   0,,PR1                   cn=0,s=nosgn,sf=0,n=*X0
PL6.E3A0      #005=ATOFB File=ZIG$DDE5.:ZIC0TSI                                  FRI 09/05/97 11:44 Page:58
         0 000007   200010 000010                    NDSC9   TEMP+2,,AUTO             cn=0,s=lsgnf,sf=0,n=8
         0 000010   200011 235100                    LDA     TEMP+3,,AUTO
         0 000011   200006 755100                    STA     TEMP,,AUTO

      199       27    1       BIN_CHAR = TEMP;

     27  0 000012   200005 473500                    LDP3    @BIN_CHAR,,AUTO
         0 000013   300000 755100                    STA     0,,PR3

      200       28    1       RETURN;

     28  0 000014   000000 702200 xent               TSX2  ! X66_ARET
      201       29    1   END;
      202       30        %EOD;

PL6.E3A0      #005=ATOFB File=ZIG$DDE5.:ZIC0TSI                                  FRI 09/05/97 11:44 Page:59
--  Include file information  --

   B$JIT_C.:E05TOU  was found in the system file and is never referenced.
   CP_6_C.:E05TOU  was found in the system file and is never referenced.
      No diagnostics issued in procedure ATOFB.

   Procedure ATOFB requires 13 words for executable code.
   Procedure ATOFB requires 10 words of local(AUTO) storage.
PL6.E3A0      #005=ATOFB File=ZIG$DDE5.:ZIC0TSI                                  FRI 09/05/97 11:44 Page:60
          *** CROSS REFERENCE LISTING ***
**     DENOTES     IDENTIFIER DEFINITION
<<                 IDENTIFIER'S VALUE SET
>>                 IDENTIFIER'S VALUE USED
<>                 IDENTIFIER SET AND/OR USED
--                 IDENTIFIER REFERENCED
PL6.E3A0      #005=ATOFB File=ZIG$DDE5.:ZIC0TSI                                  FRI 09/05/97 11:44 Page:61
          MINI XREF LISTING

BIN_CHAR
        24**DCL        20--PROC       27<<ASSIGN
CHAR_LENGTH
        23**DCL        20--PROC       26>>CALLBLT
DEC_CHAR
        22**DCL        20--PROC       26>>CALLBLT
TEMP
        25**DCL        26<<CALLBLT    27>>ASSIGN

PL6.E3A0      #006=FBTOA File=ZIG$DDE5.:ZIC0TSI                                  FRI 09/05/97 11:44 Page:62
      203        1        /*M*         FBTOA I-D-S/II DBACS BINARY TO ASCII 780629  */
      204        2        /*T***********************************************************/
      205        3        /*T*                                                         */
      206        4        /*T* Copyright (c) Bull HN Information Systems Inc., 1997    */
      207        5        /*T*                                                         */
      208        6        /*T***********************************************************/
      209        7        /*P*
      210        8        NAME:        FBTOA
      211        9        PURPOSE:     CONVERT BINARY TO ASCII.
      212       10        ARGUMENTS:   BIN_CHAR-> INPUT BINARY CHAR.
      213       11                     DEC_CHAR-> OUTPUT ASCII CHAR.
      214       12        CALLING PROGRAMS:
      215       13                     MAIN FUNCTION             CALLING MODULES
      216       14                     -------------             ---------------
      217       15                     DICTIONARY                DDY4
      218       16                     DIRECTIVE PROCESSOR       DDS1
      219       17                     DISPLAY                   DDX7
      220       18                     DROOT                     DDP9
      221       19                     PURGE                     DDS6
      222       20                     SCHEMA DDL TRANSLATOR     DDA9,DDB5,DDB7,DDB9,DDD7
      223       21                     SCHEMA DMCL TRANSLATOR    DDB7,DDB9,DDC5,DDD8,DDP1
      224       22                                               DDP2,DDP8,DDP9
      225       23                     SCHEMA FILE READY/FINISH  DDE7
      226       24                     SROOT                     DDA1
      227       25                     SSROOT                    DDH8
      228       26                     STORAGE STR REPORT WRITER DDE1
      229       27                     XROOT                     DDX1
      230       28        */
      231       29        FBTOA: PROC (BIN_CHAR, DEC_CHAR);
      232       30        /* Input arguments */
      233       31    1   DCL BIN_CHAR BIT (72);
      234       32    1   DCL DEC_CHAR CHAR (16);
      235       33    1   DCL Y BIT(72) ALIGNED;
      236       34    1   DCL 1 X REDEF Y,
      237       35    1         2 X1 UBIN (36),
      238       36    1         2 X2 UBIN (36);
      239       37        %INCLUDE B_MICROPS_C;
PL6.E3A0      #006=FBTOA File=ZIG$DDE5.:ZIC0TSI                                  FRI 09/05/97 11:44 Page:63
      240      209    1   DCL MOPSTR (0:1) BIT(9) INIT(%MVZB15, %MVC1) CONSTANT;
      241      210    1       Y = BIN_CHAR;
      242      211    1       CALL BINCHAR (DEC_CHAR,X.X2);
      243      212    1       CALL EDITSTR(DEC_CHAR,0,16,MOPSTR,DEC_CHAR);
      244      213    1       RETURN;
      245      214    1   END;
      246      215        /*
      247      216           Find if we can get by only 36 or if the data needs to
      248      217           be in 72 bits.  If yes, we will have to leave this
      249      218           routine in gmap.    */

PL6.E3A0      #006=FBTOA File=ZIG$DDE5.:ZIC0TSI                                  FRI 09/05/97 11:44 Page:64
--  Include file information  --

   B_MICROPS_C.:LIB_E05  is referenced.
   B$JIT_C.:E05TOU  was found in the system file and is never referenced.
   CP_6_C.:E05TOU  was found in the system file and is never referenced.
      No diagnostics issued in procedure FBTOA.

   Procedure FBTOA requires 18 words for executable code.
   Procedure FBTOA requires 10 words of local(AUTO) storage.

    No errors detected in file ZIG$DDE5.:ZIC0TSI    .

PL6.E3A0      #006=FBTOA File=ZIG$DDE5.:ZIC0TSI                                  FRI 09/05/97 11:44 Page:65

 Object Unit name= FBTOA                                      File name= ZIG$DDE5.:ZIC0TOU
 UTS= SEP 05 '97 11:44:52.40 FRI                              Compiler= PL-6/E31         Sev=      00
 SharedLib= :SHARED_SYSTEM                                    Alt SharedLib=


    ****  Control sections  ****

 Sect   Type Bound  Init  Size OctSiz  Section name(segment info)
    0  RoData even  UTS      1      1  FBTOA
    1   Proc  even  none    18     22  FBTOA

    ****  Entry defs  ****

                              Check   Calling
                             calling  sequence
  Sect OctLoc Primary Altret sequence   type   Parms  Name
     1      0   yes            yes      Std        2  FBTOA

  ****  Entry refs  ****

         Check        Calling
        calling       sequence
Altret sequence SRef   type   Args  Name
                       nStd      0 X66_AUTO_2
                       nStd      0 X66_ARET
PL6.E3A0      #006=FBTOA File=ZIG$DDE5.:ZIC0TSI                                  FRI 09/05/97 11:44 Page:66


      203        1        /*M*         FBTOA I-D-S/II DBACS BINARY TO ASCII 780629  */
      204        2        /*T***********************************************************/
      205        3        /*T*                                                         */
      206        4        /*T* Copyright (c) Bull HN Information Systems Inc., 1997    */
      207        5        /*T*                                                         */
      208        6        /*T***********************************************************/
      209        7        /*P*
      210        8        NAME:        FBTOA
      211        9        PURPOSE:     CONVERT BINARY TO ASCII.
      212       10        ARGUMENTS:   BIN_CHAR-> INPUT BINARY CHAR.
      213       11                     DEC_CHAR-> OUTPUT ASCII CHAR.
      214       12        CALLING PROGRAMS:
      215       13                     MAIN FUNCTION             CALLING MODULES
      216       14                     -------------             ---------------
      217       15                     DICTIONARY                DDY4
      218       16                     DIRECTIVE PROCESSOR       DDS1
      219       17                     DISPLAY                   DDX7
      220       18                     DROOT                     DDP9
      221       19                     PURGE                     DDS6
      222       20                     SCHEMA DDL TRANSLATOR     DDA9,DDB5,DDB7,DDB9,DDD7
      223       21                     SCHEMA DMCL TRANSLATOR    DDB7,DDB9,DDC5,DDD8,DDP1
      224       22                                               DDP2,DDP8,DDP9
      225       23                     SCHEMA FILE READY/FINISH  DDE7
      226       24                     SROOT                     DDA1
      227       25                     SSROOT                    DDH8
      228       26                     STORAGE STR REPORT WRITER DDE1
      229       27                     XROOT                     DDX1
      230       28        */
      231       29        FBTOA: PROC (BIN_CHAR, DEC_CHAR);

     29  1 000000   000000 700200 xent  FBTOA        TSX0  ! X66_AUTO_2
         1 000001   000012 000002                    ZERO    10,2

      232       30        /* Input arguments */
      233       31    1   DCL BIN_CHAR BIT (72);
      234       32    1   DCL DEC_CHAR CHAR (16);
PL6.E3A0      #006=FBTOA File=ZIG$DDE5.:ZIC0TSI                                  FRI 09/05/97 11:44 Page:67
      235       33    1   DCL Y BIT(72) ALIGNED;
      236       34    1   DCL 1 X REDEF Y,
      237       35    1         2 X1 UBIN (36),
      238       36    1         2 X2 UBIN (36);
      239       37        %INCLUDE B_MICROPS_C;
      240      209    1   DCL MOPSTR (0:1) BIT(9) INIT(%MVZB15, %MVC1) CONSTANT;
      241      210    1       Y = BIN_CHAR;

    210  1 000002   200003 470500                    LDP0    @BIN_CHAR,,AUTO
         1 000003   003100 060500                    CSL     bolr='003'O
         1 000004   000000 000110                    BDSC    0,,PR0                   by=0,bit=0,n=72
         1 000005   200005 000110                    BDSC    Y,,AUTO                  by=0,bit=0,n=72

      242      211    1       CALL BINCHAR (DEC_CHAR,X.X2);

    211  1 000006   200006 235100                    LDA     Y+1,,AUTO
         1 000007   000044 773000                    LRL     36
         1 000010   200010 757100                    STAQ    Y+3,,AUTO
         1 000011   200004 471500                    LDP1    @DEC_CHAR,,AUTO
         1 000012   000100 301500                    BTD
         1 000013   200010 000010                    NDSC9   Y+3,,AUTO                cn=0,s=lsgnf,sf=0,n=8
         1 000014   100000 030020                    NDSC9   0,,PR1                   cn=0,s=nosgn,sf=0,n=16

      243      212    1       CALL EDITSTR(DEC_CHAR,0,16,MOPSTR,DEC_CHAR);

    212  1 000015   100000 020500                    MVE
         1 000016   100000 000020                    ADSC9   0,,PR1                   cn=0,n=16
         1 000017   000000 000002 0                  ADSC9   MOPSTR                   cn=0,n=2
         1 000020   100000 000020                    ADSC9   0,,PR1                   cn=0,n=16

      244      213    1       RETURN;

    213  1 000021   000000 702200 xent               TSX2  ! X66_ARET

MOPSTR
 Sect OctLoc
   0     000   117321 ******                                                    O...
PL6.E3A0      #006=FBTOA File=ZIG$DDE5.:ZIC0TSI                                  FRI 09/05/97 11:44 Page:68
      245      214    1   END;
      246      215        /*
      247      216           Find if we can get by only 36 or if the data needs to
      248      217           be in 72 bits.  If yes, we will have to leave this
      249      218           routine in gmap.    */

PL6.E3A0      #006=FBTOA File=ZIG$DDE5.:ZIC0TSI                                  FRI 09/05/97 11:44 Page:69
--  Include file information  --

   B_MICROPS_C.:LIB_E05  is referenced.
   B$JIT_C.:E05TOU  was found in the system file and is never referenced.
   CP_6_C.:E05TOU  was found in the system file and is never referenced.
      No diagnostics issued in procedure FBTOA.

   Procedure FBTOA requires 18 words for executable code.
   Procedure FBTOA requires 10 words of local(AUTO) storage.

    No errors detected in file ZIG$DDE5.:ZIC0TSI    .
PL6.E3A0      #006=FBTOA File=ZIG$DDE5.:ZIC0TSI                                  FRI 09/05/97 11:44 Page:70
          *** CROSS REFERENCE LISTING ***
**     DENOTES     IDENTIFIER DEFINITION
<<                 IDENTIFIER'S VALUE SET
>>                 IDENTIFIER'S VALUE USED
<>                 IDENTIFIER SET AND/OR USED
--                 IDENTIFIER REFERENCED
PL6.E3A0      #006=FBTOA File=ZIG$DDE5.:ZIC0TSI                                  FRI 09/05/97 11:44 Page:71
          MINI XREF LISTING

BIN_CHAR
        31**DCL        29--PROC      210>>ASSIGN
DEC_CHAR
        32**DCL        29--PROC      211<<CALLBLT   212<<CALLBLT   212>>CALLBLT
MOPSTR
       209**DCL       212>>CALLBLT
X.X2
        36**DCL       211>>CALLBLT
Y
        33**DCL        34--REDEF     210<<ASSIGN
