
 11:45 09/05/97  FILE=ZIG$DDE5A.:ZIC0TSI                                                                 1    BMAP - B00
                                         1  *M*      ZIG$DDE5A
                                         2  *T***********************************************************
                                         3  *T*                                                         *
                                         4  *T* Copyright (c) Bull HN Information Systems Inc., 1997    *
                                         5  *T*                                                         *
                                         6  *T***********************************************************
                                         7           ENTDEF    BFIX,FBIT,SBFIX
                                         8           ENTREF    .PFAST
 0 000000                                9  BFIX     NULL
   000000 (2)000020 7530 00             10           SREG      IREG
   000001 (2)000001 6350 00             11           EAA       ARGS
   000002  X 000000 7000 00             12           TSX0      .PFAST
   000003 (2)000001 6260 00             13           EAX6      ARGS
   000004 (2)000000 7410 00             14           STX1      RETURN
   000005    000044 2350 07             15           LDA       36,DL
   000006    000002 1350 36             16           SBLA      2,6*
   000007 (2)000010 7550 00             17           STA       SCRTH
   000010 (2)000010 7210 00             18           LXL1      SCRTH
   000011    000001 2360 36             19           LDQ       1,6*
   000012    000000 7720 11             20           QRL       0,1
   000013    000003 7560 36             21           STQ       3,6*
   000014 (2)000020 0730 00             22           LREG      IREG
   000015 (2)000000 7100 51             23           TRA       RETURN,I
   000016                               24  FBIT   NULL
   000016 (2)000020 7530 00             25         SREG    IREG
   000017 (2)000001 6350 00             26         EAA     ARGS
   000020  X 000000 7000 00             27         TSX0    .PFAST
   000021 (2)000001 6260 00             28         EAX6    ARGS
   000022 (2)000000 7410 00             29         STX1    RETURN
   000023    000044 2350 07             30         LDA     36,DL
   000024    000002 1350 36             31         SBLA    2,6*
   000025 (2)000010 7550 00             32         STA     SCRTH
   000026 (2)000010 7210 00             33         LXL1    SCRTH
   000027    000001 2360 36             34         LDQ     1,6*
   000030    000000 7360 11             35         QLS     0,1
   000031    000003 7560 36             36         STQ     3,6*
   000032 (2)000020 0730 00             37         LREG    IREG
 11:45 09/05/97  FILE=ZIG$DDE5A.:ZIC0TSI                                                                 2    BMAP - B00
   000033 (2)000000 7100 51             38         TRA     RETURN,I
   000034                               39  SBFIX  NULL
   000034 (2)000020 7530 00             40           SREG      IREG
   000035 (2)000001 6350 00             41           EAA       ARGS
   000036  X 000000 7000 00             42           TSX0      .PFAST
   000037 (2)000001 6260 00             43           EAX6      ARGS
   000040 (2)000000 7410 00             44           STX1      RETURN
   000041    000044 2350 07             45           LDA       36,DL
   000042    000002 1350 36             46           SBLA      2,6*
   000043    000001 2360 36             47           LDQ       1,6*
   000044    000000 7320 05             48           QRS       0,AL
   000045    000003 7560 36             49           STQ       3,6*
   000046 (2)000020 0730 00             50           LREG      IREG
   000047 (2)000000 7100 51             51           TRA       RETURN,I
 2 000000                               52         USE     DATA,0
   000000                               53  RETURN BSS     1
                                        54         ODD
   000001                               55  ARGS   BSS     7
   000010                               56  SCRTH  BSS     1
   000011    000007 7100 04             57         EIGHT
   000020
   000020                               58  IREG   BSS     16
                                        59         END

  CONTROL SECTION TABLE

   0 CODE   EVEN  000050
   1 RODATA EVEN  000000 LITERALS
   2 DATA   EIGHT 000040 DATA

 11:45 09/05/97  FILE=ZIG$DDE5A.:ZIC0TSI      SYMBOL TABLE                                               3    BMAP - B00
 03201000 000000000000 .PFAST          *8        12        27        42
 01101002 000000000001 ARGS            11        13        26        28        41        43       *55
 12101000 000000000000 BFIX             7        *9
 12101000 000000000016 FBIT             7       *24
 01101002 000000000020 IREG            10        22        25        37        40        50       *58
 01101002 000000000000 RETURN          14        23        29        38        44        51       *53
 12101000 000000000034 SBFIX            7       *39
 01101002 000000000010 SCRTH           17        18        32        33       *56

       8 SYMBOLS

       0 MACROS

    SYMBOL SPACE USED   130 WORDS
     MACRO SPACE USED     0 WORDS
   INPUT RECORDS READ   118
 STATEMENTS PROCESSED    64
         ELAPSED TIME  0:01.48
             CPU TIME     0.53 SEC.
        ASSEMBLY RATE  7245 STATEMENTS/CPU MIN.

      NO ERRORS

