
PL6.E3A0      #001=WT_2STAR File=ZIG$DDF3.:ZIC0TSI                               FRI 09/05/97 11:46 Page:1
        1        1        /*M* ZIG$DDF3         I-D-S/II            DBACS    */
        2        2        /*T***********************************************************/
        3        3        /*T*                                                         */
        4        4        /*T* Copyright (c) Bull HN Information Systems Inc., 1997    */
        5        5        /*T*                                                         */
        6        6        /*T***********************************************************/
        7        7        WT_2STAR:
        8        8            PROC(TYPE,STRING);
        9        9    1   DCL ABORT ENTRY;
       10       10    1   DCL STRING CHAR(256) ALIGNED;
       11       11    1   DCL TYPE CHAR(2) ALIGNED;
       12       12    1   DCL OSTRING CHAR(256) EXT;
       13       13    1   DCL X UBIN (36);
       14       14    1   DCL 1 MCS REDEF X,
       15       15    1         2 FILL1 CHAR (2) UNAL,
       16       16    1         2 FILL2 CHAR (2) UNAL;
       17       17        %INCLUDE ZI_SUB4_CAN;
       18      674        %UWA;
       19     1009    1   DCL UPUT ENTRY(3) /*(CHAR(2) aligned,pointer,fixed bin) */;
       20     1010    1       X=136;
       21     1011    2       DO WHILE (SUBSTR(STRING,X,4)='    '&X>1);
       22     1012    2           X=X-4;
       23     1013    2           END;
       24     1014    1       X = X + 4;
       25     1015    1       CALL CONCAT(OSTRING,TYPE,MCS.FILL2,SUBSTR(STRING,0,X));
       26     1016    1       X=X/4+1;
       27     1017    1       CALL UPUT('2*',ADDR(OSTRING),X);
       28     1018    1       IF TYPE = 'DD'
       29     1019    1       THEN UWA.SA.NUMB_DD = UWA.SA.NUMB_DD + 1;
       30     1020    1   END WT_2STAR;

PL6.E3A0      #001=WT_2STAR File=ZIG$DDF3.:ZIC0TSI                               FRI 09/05/97 11:46 Page:2
--  Include file information  --

   ZI_SUB4_CAN.:ZIC0TOU  is referenced.
   B$JIT_C.:E05TOU  was found in the system file and is never referenced.
   CP_6_C.:E05TOU  was found in the system file and is never referenced.
      No diagnostics issued in procedure WT_2STAR.

   Procedure WT_2STAR requires 57 words for executable code.
   Procedure WT_2STAR requires 10 words of local(AUTO) storage.

    No errors detected in file ZIG$DDF3.:ZIC0TSI    .

PL6.E3A0      #001=WT_2STAR File=ZIG$DDF3.:ZIC0TSI                               FRI 09/05/97 11:46 Page:3

 Object Unit name= WT_2STAR                                   File name= ZIG$DDF3.:ZIC0TOU
 UTS= SEP 05 '97 11:46:47.72 FRI                              Compiler= PL-6/E31         Sev=      00
 SharedLib= :SHARED_SYSTEM                                    Alt SharedLib=


    ****  Control sections  ****

 Sect   Type Bound  Init  Size OctSiz  Section name(segment info)
    0  LblCom even  none    64    100  OSTRING
    1  LblCom even  none   656   1220  UWA
    2  RoData even  UTS      3      3  WT_2STAR
    3   Proc  even  none    57     71  WT_2STAR
    4  RoData even  none     3      3  WT_2STAR

    ****  Entry defs  ****

                              Check   Calling
                             calling  sequence
  Sect OctLoc Primary Altret sequence   type   Parms  Name
     3      0   yes            yes      Std        2  WT_2STAR

  ****  Entry refs  ****

         Check        Calling
        calling       sequence
Altret sequence SRef   type   Args  Name
         yes           Std       3 UPUT
                       nStd      0 X66_AUTO_2
                       nStd      0 X66_ARET

  ****  Segment refs  ****

  Flags:  r = read only, s = secondary
Flgs Name                             Flgs Name                             Flgs Name
     ISSID
PL6.E3A0      #001=WT_2STAR File=ZIG$DDF3.:ZIC0TSI                               FRI 09/05/97 11:46 Page:4


        1        1        /*M* ZIG$DDF3         I-D-S/II            DBACS    */
        2        2        /*T***********************************************************/
        3        3        /*T*                                                         */
        4        4        /*T* Copyright (c) Bull HN Information Systems Inc., 1997    */
        5        5        /*T*                                                         */
        6        6        /*T***********************************************************/
        7        7        WT_2STAR:
        8        8            PROC(TYPE,STRING);

      8  3 000000   000000 700200 xent  WT_2STAR     TSX0  ! X66_AUTO_2
         3 000001   000012 000002                    ZERO    10,2

        9        9    1   DCL ABORT ENTRY;
       10       10    1   DCL STRING CHAR(256) ALIGNED;
       11       11    1   DCL TYPE CHAR(2) ALIGNED;
       12       12    1   DCL OSTRING CHAR(256) EXT;
       13       13    1   DCL X UBIN (36);
       14       14    1   DCL 1 MCS REDEF X,
       15       15    1         2 FILL1 CHAR (2) UNAL,
       16       16    1         2 FILL2 CHAR (2) UNAL;
       17       17        %INCLUDE ZI_SUB4_CAN;
       18      674        %UWA;
       19     1009    1   DCL UPUT ENTRY(3) /*(CHAR(2) aligned,pointer,fixed bin) */;
       20     1010    1       X=136;

   1010  3 000002   000210 235007                    LDA     136,DL
         3 000003   200005 755100                    STA     X,,AUTO

       21     1011    2       DO WHILE (SUBSTR(STRING,X,4)='    '&X>1);

   1011  3 000004   000010 710000 3                  TRA     s:1013

       22     1012    2           X=X-4;

   1012  3 000005   200005 235100                    LDA     X,,AUTO
         3 000006   000004 135007                    SBLA    4,DL
PL6.E3A0      #001=WT_2STAR File=ZIG$DDF3.:ZIC0TSI                               FRI 09/05/97 11:46 Page:5
         3 000007   200005 755100                    STA     X,,AUTO

       23     1013    2           END;

   1013  3 000010   400000 220003                    LDX0    -131072,DU
         3 000011   200004 470500                    LDP0    @STRING,,AUTO
         3 000012   040000 106505                    CMPC    fill='040'O
         3 000013   000000 000004                    ADSC9   0,A,PR0                  cn=0,n=4
         3 000014   000000 000004 2                  ADSC9   0                        cn=0,n=4
         3 000015   000017 600000 3                  TZE     s:1013+7
         3 000016   000000 220003                    LDX0    0,DU
         3 000017   400000 221003                    LDX1    -131072,DU
         3 000020   000002 115007                    CMPA    2,DL
         3 000021   000023 603000 3                  TRC     s:1013+11
         3 000022   000000 221003                    LDX1    0,DU
         3 000023   000000 636011                    EAQ     0,X1
         3 000024   200006 756100                    STQ     X+1,,AUTO
         3 000025   000000 636010                    EAQ     0,X0
         3 000026   200006 376100                    ANQ     X+1,,AUTO
         3 000027   000005 601000 3                  TNZ     s:1012

       24     1014    1       X = X + 4;

   1014  3 000030   000004 035007                    ADLA    4,DL
         3 000031   200005 755100                    STA     X,,AUTO

       25     1015    1       CALL CONCAT(OSTRING,TYPE,MCS.FILL2,SUBSTR(STRING,0,X));

   1015  3 000032   200003 471500                    LDP1    @TYPE,,AUTO
         3 000033   100000 220100                    LDX0    0,,PR1
         3 000034   000000 740000 0                  STX0    OSTRING
         3 000035   200005 721100                    LXL1    X,,AUTO
         3 000036   000000 441000 0                  SXL1    OSTRING
         3 000037   000000 622005                    EAX2    0,AL
         3 000040   040000 100540                    MLR     fill='040'O
         3 000041   000000 000012                    ADSC9   0,,PR0                   cn=0,n=*X2
         3 000042   000001 000374 0                  ADSC9   OSTRING+1                cn=0,n=252
PL6.E3A0      #001=WT_2STAR File=ZIG$DDF3.:ZIC0TSI                               FRI 09/05/97 11:46 Page:6

       26     1016    1       X=X/4+1;

   1016  3 000043   200005 236100                    LDQ     X,,AUTO
         3 000044   000002 772000                    QRL     2
         3 000045   000001 036007                    ADLQ    1,DL
         3 000046   200005 756100                    STQ     X,,AUTO

       27     1017    1       CALL UPUT('2*',ADDR(OSTRING),X);

   1017  3 000047   000001 236000 4                  LDQ     1
         3 000050   200006 756100                    STQ     X+1,,AUTO
         3 000051   200005 630500                    EPPR0   X,,AUTO
         3 000052   200011 450500                    STP0    X+4,,AUTO
         3 000053   200006 631500                    EPPR1   X+1,,AUTO
         3 000054   200010 451500                    STP1    X+3,,AUTO
         3 000055   000002 236000 4                  LDQ     2
         3 000056   200007 756100                    STQ     X+2,,AUTO
         3 000057   200007 630500                    EPPR0   X+2,,AUTO
         3 000060   000000 631400 4                  EPPR1   0
         3 000061   000000 701000 xent               TSX1    UPUT
         3 000062   000000 011000                    NOP     0

       28     1018    1       IF TYPE = 'DD'

   1018  3 000063   200003 470500                    LDP0    @TYPE,,AUTO
         3 000064   000000 220100                    LDX0    0,,PR0
         3 000065   000002 100000 2                  CMPX0   2
         3 000066   000070 601000 3                  TNZ     s:1020

       29     1019    1       THEN UWA.SA.NUMB_DD = UWA.SA.NUMB_DD + 1;

   1019  3 000067   000522 054000 1                  AOS     UWA+338

       30     1020    1   END WT_2STAR;

   1020  3 000070   000000 702200 xent               TSX2  ! X66_ARET
PL6.E3A0      #001=WT_2STAR File=ZIG$DDF3.:ZIC0TSI                               FRI 09/05/97 11:46 Page:7

OSTRING
 Sect OctLoc
   0     000   ****** ******   ****** ******   ****** ******   ****** ******    ................

UWA
 Sect OctLoc
   1     000   000000 000000   040040 040040   040040 040040   040040 040040    ....
   1     004   040040 040040   040040 040040   040040 040040   040040 040040
   1     010   040040 040040   040040 040040   040040 000000   040040 040040              ..
   1     014   040040 040040   040040 040040   040040 040040   040040 040040
   1     020   040040 040040   040040 040040   040040 000000   040040 040040              ..
   1     024   040040 040040   040040 040040   040040 040040   040040 040040
   1     030   040040 040040   040040 040040   040040 000000   040040 040040              ..
   1     034   040040 040040   040040 040040   000000 000000   040040 040040            ....
   1     040   040040 040040   040040 040040   040040 040040   040040 040040
   1     044   040040 040040   040040 040040   040040 000000   040040 040040              ..
   1     050   040040 040040   040040 040040   040040 040040   040040 040040
   1     054   040040 040040   040040 040040   040040 000000   000000 000000              ......
   1     060   040040 040040   040*** ******   000000 000000   000000 000000         ...........
   1     064   000000 000000   000000 000000   040040 040040   040040 040040    ........
   1     070   040040 040040   040040 040040   040040 040040   040040 040040
   1     100*  040040 ******   000000 000000   040040 040040   040040 040040      ......
   1     104   040040 040040   040040 040040   040040 040040   040040 040040
   1     124*  040040 040040   040040 040040   000000 000000   040040 040040            ....
   1     130   040040 040040   040040 040040   040040 040040   040040 040040
   1     134   040040 040040   040040 040040   040040 ******   000000 000000              ......
   1     140   040040 040040   040040 040040   040040 040040   040040 040040
   1     144   040040 040040   040040 040040   000000 000000   000000 000000            ........
   1     150   000000 000000   000000 000000   000000 000000   000000 000000    ................
   1     154   040040 040040   040040 040040   040040 040040   040040 040040
   1     160   040040 040040   040040 040040   040040 040040   040040 ******                  ..
   1     164   000000 000000   ****** ******   000000 000000   000000 000000    ................
   1     170   000000 000000   040040 040040   040040 040040   040040 040040    ....
   1     174   040040 040040   040040 040040   040040 040040   040040 040040
   1     210*  040040 040040   040040 040040   040040 040040   ****** ******                ....
   1     214   000000 000000   000000 000000   000000 000000   000000 000000    ................
PL6.E3A0      #001=WT_2STAR File=ZIG$DDF3.:ZIC0TSI                               FRI 09/05/97 11:46 Page:8
   1     224*  000000 000000   000000 000000   000000 000000   040040 ******    ............  ..
   1     230   000000 000000   ****** ******   000000 000000   040040 040040    ............
   1     234   000000 000000   000000 000000   000000 000000   000000 000000    ................
   1     264*  000000 000000   000000 000000   000000 000000   ****** ******    ................
   1     270   000000 000000   000000 000000   000000 000000   000000 000000    ................
   1     324*  000000 000000   ****** ******   000000 000000   000000 000000    ................
   1     330   000000 000000   000000 000000   000000 000000   000000 000000    ................
   1     350*  000000 000000   000000 000000   000000 000000   ****** ******    ................
   1     360*  000000 000000   000000 000000   000000 000000   000000 000000    ................
   1     404*  000000 000000   ****** ******   000000 000000   000000 000000    ................
   1     410   000000 000000   000000 000000   000000 000000   000000 000000    ................
   1     424*  000000 000000   000000 000000   000000 000000   040040 040040    ............
   1     430   040040 040040   040040 040040   040040 040040   040040 040040
   1     434   040040 040040   040040 040040   040040 ******   ****** ******              ......
   1     440   040040 040040   040040 040040   040040 040040   040040 040040
   1     450*  040040 040040   040040 040040   040040 ******   ****** ******              ......
   1     454   000000 000000   040040 040040   040040 040040   040040 040040    ....
   1     460   040040 040040   040040 040040   040040 040040   040040 040040
   1     464   040040 ******   ****** ******   000000 000000   000000 000000      ..............
   1     470   000000 000000   000000 000000   000000 000000   000000 000000    ................
   1     474   000000 000000   ****** ******   000000 000000   000000 000000    ................
   1     500   000000 000000   000000 000000   040040 040040   040040 040040    ........
   1     504   040040 040040   040040 040040   040040 040040   040040 040040
   1     520*  040040 040040   ****** ******   000000 000000   000000 000000        ............
   1     524   040040 040040   040040 040040   040040 040040   040040 040040
   1     574*  000000 000000   000000 000000   000000 000000   000000 000000    ................
   1     600   000000 000000   000000 000000   000000 000000   ****** ******    ................
   1     604   000000 000000   000000 000000   000000 000000   000000 000000    ................
   1     610   000000 000000   000000 000000   040040 040040   040040 040040    ........
   1     614   040040 040040   040040 040040   040040 040040   040040 040040
   1     620   040040 040040   040040 ******   040040 040040   040040 040040          ..
   1     624   040040 040040   040040 040040   040040 040040   040040 040040
   1     660*  040040 040040   040040 040040   040040 040040   ****** ******                ....
   1     664   040040 040040   040040 040040   040040 040040   040040 040040
   1     674*  040040 040040   ****** ******   040040 040040   040040 040040        ....
   1     700   040040 040040   040040 040040   040040 040040   040040 040040
   1     710*  040040 040040   ****** ******   040040 040040   040040 040040        ....
PL6.E3A0      #001=WT_2STAR File=ZIG$DDF3.:ZIC0TSI                               FRI 09/05/97 11:46 Page:9
   1     714   040040 040040   040040 040040   040040 040040   040040 040040
   1     720   040040 040040   040040 040040   040040 040040   ****** ******                ....
   1     724   040040 040040   040040 040040   040040 040040   040040 040040
   1     740*  040040 040040   ****** ******   040040 040040   040040 040040        ....
   1     744   040040 040040   040040 040040   040040 040040   040040 040040
   1     774*  040040 040040   ****** ******   040040 040040   040040 040040        ....
   1    1000   040040 040040   040040 040040   040040 040040   040040 040040
   1    1034*  040040 040040   ****** ******   040040 040040   040040 040040        ....
   1    1040   040040 040040   040040 040040   040040 040040   040040 040040
   1    1060*  040040 040040   ****** ******   040040 040040   040040 040040        ....
   1    1064   040040 040040   040040 040040   040040 040040   040040 040040
   1    1114*  040040 040040   ****** ******   040040 040040   040040 040040        ....
   1    1120   040040 040040   040040 040040   040040 040040   040040 040040
   1    1134*  040040 040040   040040 040040   040040 040040   ****** ******                ....
   1    1140   040040 040040   040040 040040   040040 040040   040040 040040
   1    1144   040040 040040   ****** ******   040040 040040   040040 040040        ....
   1    1150   040040 040040   040040 040040   040040 040040   ****** ******                ....
   1    1154   040040 040040   040040 040040   040040 040040   040040 040040
   1    1160   040040 040040   ****** ******   040040 040040   040040 040040        ....
   1    1164   040040 040040   040040 040040   040040 040040   ****** ******                ....
   1    1170   040040 040040   040040 040040   040040 040040   040040 040040
   1    1200*  040040 040040   040040 040040   040040 040040   ****** ******                ....
   1    1204   040040 040040   040040 040040   040040 040040   040040 040040
   1    1214*  040040 040040   040040 040040   040040 040040   040040 040040

(unnamed)
 Sect OctLoc
   2     000   040040 040040   062052 040040   104104 040040                        2*  DD

(unnamed)
 Sect OctLoc
   4     000   000003 000000   000000 006000   000001 006000                    ............

PL6.E3A0      #001=WT_2STAR File=ZIG$DDF3.:ZIC0TSI                               FRI 09/05/97 11:46 Page:10
--  Include file information  --

   ZI_SUB4_CAN.:ZIC0TOU  is referenced.
   B$JIT_C.:E05TOU  was found in the system file and is never referenced.
   CP_6_C.:E05TOU  was found in the system file and is never referenced.
      No diagnostics issued in procedure WT_2STAR.

   Procedure WT_2STAR requires 57 words for executable code.
   Procedure WT_2STAR requires 10 words of local(AUTO) storage.

    No errors detected in file ZIG$DDF3.:ZIC0TSI    .
PL6.E3A0      #001=WT_2STAR File=ZIG$DDF3.:ZIC0TSI                               FRI 09/05/97 11:46 Page:11
          *** CROSS REFERENCE LISTING ***
**     DENOTES     IDENTIFIER DEFINITION
<<                 IDENTIFIER'S VALUE SET
>>                 IDENTIFIER'S VALUE USED
<>                 IDENTIFIER SET AND/OR USED
--                 IDENTIFIER REFERENCED
PL6.E3A0      #001=WT_2STAR File=ZIG$DDF3.:ZIC0TSI                               FRI 09/05/97 11:46 Page:12
          MINI XREF LISTING

MCS.FILL2
        16**DCL      1015>>CALLBLT
OSTRING
        12**DCL      1015<<CALLBLT  1017--CALL
STRING
        10**DCL         7--PROC     1011>>DOWHILE  1015>>CALLBLT
TYPE
        11**DCL         7--PROC     1015>>CALLBLT  1018>>IF
UPUT
      1009**DCL-ENT  1017--CALL
UWA.AC.CALC_NEXT
       785**DCL       786--REDEF
UWA.AC.CALC_PRIOR
       794**DCL       795--REDEF
UWA.AC.DEFAULTS
       746**DCL       747--REDEF
UWA.AC.FILE_CODE
       751**DCL       752--REDEF
UWA.AC.FLAG1.ERROR_TYPE
       748**DCL       749--REDEF
UWA.SA.NUMB_DD
       929**DCL      1019<<ASSIGN   1019>>ASSIGN
X
        13**DCL        14--REDEF    1010<<ASSIGN   1011>>DOWHILE  1011>>DOWHILE  1012<<ASSIGN   1012>>ASSIGN
      1014<<ASSIGN   1014>>ASSIGN   1015>>CALLBLT  1016<<ASSIGN   1016>>ASSIGN   1017<>CALL
