
PL6.E3A0      #001=ZIG$DDS4 File=ZIG$DDS4.:ZIC0TSI                               FRI 09/05/97 11:49 Page:1
        1        1        /*M*     ZIG$DDS4       I-D-S/II DBACS DIRECTIVES PARSER */
        2        2        /*T***********************************************************/
        3        3        /*T*                                                         */
        4        4        /*T* Copyright (c) Bull HN Information Systems Inc., 1997    */
        5        5        /*T*                                                         */
        6        6        /*T***********************************************************/
        7        7        /*P*
        8        8        NAME:    ZIG$DDS4
        9        9        PURPOSE: TO GO THRU THE BLOCKS RETURNED BY X$PARSE AND FIND WHAT
       10       10            OPTION WERE IN WHICH DBACS DIRECTIVE. THEN SET THE FLAGS
       11       11            FOR THAT DIRECTIVE AND RETURN FOR THE DIRECTIVE TO BE
       12       12            PROCESSED;
       13       13        */
       14       14        ZIG$DDS4:
       15       15            PROC (BLK);
       16       16    1   DCL ACCTNAME CHAR(8) CONSTANT INIT(':SYS');
       17       17    1   DCL M$LO DCB;
       18       18    1   DCL OLD_SCHEMA_NAME CHAR (30) EXT INIT (' ');
       19       19    1   DCL SUBSCHEMA_NAME CHAR (30) EXT INIT (' ');
       20       20    1   DCL DONE BIT (1) INIT ('0'B) EXT;
       21       21    1   DCL FIVE_STAR_OPEN BIT (1) STATIC INIT ('0'B);
       22       22    1   DCL IDS_CODE UBIN WORD;
       23       23    1   DCL HELP_IDS_CODE ENTRY(1);
       24       24    1   DCL HELP_PHRASE_DDER ENTRY(1);
       25       25    1   DCL UCLOSE ENTRY (1);
       26       26    1   DCL UPUT ENTRY (2);
       27       27    1   DCL X$HELP ENTRY(1) ALTRET;
       28       28         %INCLUDE CP_6_SUBS;
       29      568         %INCLUDE XUH_MACRO_C;
       30      652         %INCLUDE XU_MACRO_C;
       31     3758         %INCLUDE XU_SUBS_C;
       32     3850         %INCLUDE ZI_SUB_LANG;
       33     5565         %GENERAL;
       34     5689         %INCLUDE ZIG_FIVESTAR_DESC;
       35     5732         %INCLUDE ZIG_DIR_STRUCS;
       36     5862         %EJECT;
PL6.E3A0      #001=ZIG$DDS4 File=ZIG$DDS4.:ZIC0TSI                               FRI 09/05/97 11:49 Page:2
       37     5863         %VLP_NAME(FPTN=DBACSX,NAME='DBACS');
       38     5890         %XUH_PARAM(NAME=HELP_PARAM,PROCNAME=DBACSX,OUTDCB1=M$LO);
       39     5951         %PARSE$OUT(NAME=OUT,STCLASS=BASED);
       40     5996         %PARSE$SYM(NAME=SYM,STCLASS=BASED);
       41     6034         %PARSE$OUT(NAME=BLK,STCLASS = " ");
       42     6079         %PLIST;
       43     6080    1   DCL I UBIN (36);
       44     6081    1   DCL J UBIN (36) EXT;
       45     6082    1   DCL K UBIN (36);
       46     6083         %EJECT;
PL6.E3A0      #001=ZIG$DDS4 File=ZIG$DDS4.:ZIC0TSI                               FRI 09/05/97 11:49 Page:3
       47     6084    1   DCL PTR_SCHEMA PTR EXT INIT (ADDR(GAR));
       48     6085    1   DCL PTR_SUBSCHEMA PTR EXT INIT (ADDR(GAR));
       49     6086    1   DCL PTR_PRIVACY_KEY PTR EXT INIT (ADDR(GAR));
       50     6087    1   DCL GAR CHAR (30) EXT;
       51     6088    1   DCL STRING_30 CHAR (30) BASED;
       52     6089    1   DCL STRING_12 CHAR (12) BASED;
       53     6090    1   DCL STRING_2 CHAR (2) BASED;
       54     6091    1   PUT_TO_FILE:
       55     6092    1       PROC (PTR_OUT);
       56     6093    2   DCL PTR_OUT PTR;
       57     6094    2   DCL UOPEN ENTRY (2);
       58     6095    2   DCL UPUT ENTRY (3);
       59     6096    2   DCL DESCSIZE UBIN (36) STATIC INIT (25);
       60     6097    2       IF ~FIVE_STAR_OPEN
       61     6098    3       THEN DO;
       62     6099    3           CALL UOPEN('5*',1); /* Creat the file *5 */
       63     6100    3           FIVE_STAR_OPEN = '1'B;
       64     6101    3           END;
       65     6102    2       CALL UPUT('5*',PTR_OUT,DESCSIZE);
       66     6103    2   END PUT_TO_FILE;
       67     6104         %EJECT;
PL6.E3A0      #001=ZIG$DDS4 File=ZIG$DDS4.:ZIC0TSI                               FRI 09/05/97 11:49 Page:4
       68     6105    2       DO CASE (BLK.CODE/100);
       69     6106    2       CASE (0);
       70     6107    3           DO CASE (BLK.CODE);
       71     6108         %EJECT;
PL6.E3A0      #001=ZIG$DDS4 File=ZIG$DDS4.:ZIC0TSI                               FRI 09/05/97 11:49 Page:5
       72     6109    3           CASE(0); /* Dbacs */
       73     6110         %EJECT;
PL6.E3A0      #001=ZIG$DDS4 File=ZIG$DDS4.:ZIC0TSI                               FRI 09/05/97 11:49 Page:6
       74     6111    3           CASE(1); /* Translate */
       75     6112         %EJECT;
PL6.E3A0      #001=ZIG$DDS4 File=ZIG$DDS4.:ZIC0TSI                               FRI 09/05/97 11:49 Page:7
       76     6113    3           CASE(2); /* Schema */
       77     6114         %EJECT;
PL6.E3A0      #001=ZIG$DDS4 File=ZIG$DDS4.:ZIC0TSI                               FRI 09/05/97 11:49 Page:8
       78     6115    3           CASE(3); /* Display  ?? */
       79     6116    3               DISPS.STATUS = '000'B;
       80     6117    3               DISPS.SDISP_TYPES = '000'B;
       81     6118    3               DISPS.SACTS_FROM_DATE = ' ';
       82     6119    3               DISPS.SACTS_THRU_DATE = ' ';
       83     6120    3               DISPS.COPY_FILE_CODE = 'SO';
       84     6121    3               DISPS.DISP_KEY = '"NULL"';
       85     6122    3               DICTS.STATUS = '000'B;
       86     6123    3               DICTS.ALL = '000000'B;
       87     6124    3               DICTS.NAMES = '00000'B;
       88     6125    3               DICTS.DISP_KEY = '"NULL"';
       89     6126         %EJECT;
PL6.E3A0      #001=ZIG$DDS4 File=ZIG$DDS4.:ZIC0TSI                               FRI 09/05/97 11:49 Page:9
       90     6127    3           CASE(5); /* Schema name */;
       91     6128    3               OLD_SCHEMA_NAME = BLK.SUBLK$(0) -> OUT.SUBLK$(0) -> SYM.TEXT;
       92     6129    3               PTR_SCHEMA -> STRING_30 = OLD_SCHEMA_NAME;
       93     6130    3               RETURN;
       94     6131         %EJECT;
PL6.E3A0      #001=ZIG$DDS4 File=ZIG$DDS4.:ZIC0TSI                               FRI 09/05/97 11:49 Page:10
       95     6132    3           CASE(6); /* Subschema name */
       96     6133    3               SUBSCHEMA_NAME = BLK.SUBLK$(0) -> OUT.SUBLK$(0) -> SYM.TEXT;
       97     6134    3               PTR_SUBSCHEMA -> STRING_30 = SUBSCHEMA_NAME;
       98     6135    3               RETURN;
       99     6136         %EJECT;
PL6.E3A0      #001=ZIG$DDS4 File=ZIG$DDS4.:ZIC0TSI                               FRI 09/05/97 11:49 Page:11
      100     6137    3           CASE(7); /* Privacy key */
      101     6138    3               PTR_PRIVACY_KEY -> STRING_12 = BLK.SUBLK$(0) -> SYM.TEXT;
      102     6139    3               RETURN;
      103     6140         %EJECT;
PL6.E3A0      #001=ZIG$DDS4 File=ZIG$DDS4.:ZIC0TSI                               FRI 09/05/97 11:49 Page:12
      104     6141    3           CASE(9); /* Copy */
      105     6142    3               RETURN;
      106     6143         %EJECT;
PL6.E3A0      #001=ZIG$DDS4 File=ZIG$DDS4.:ZIC0TSI                               FRI 09/05/97 11:49 Page:13
      107     6144    3           CASE(16); /* Ddl */
      108     6145    3               DISPS.SDISP_TYPES.DDL = '1'B;
      109     6146    3               PURGE.TYPE.DDL = '1'B;
      110     6147    3           CASE(17); /* Dmcl */
      111     6148    3               DISPS.SDISP_TYPES.DMCL= '1'B;
      112     6149    3               PURGE.TYPE.DMCL = '1'B;
      113     6150    3           CASE(18); /* Activities */
      114     6151    3               DISPS.SDISP_TYPES.SACTS = '1'B;
      115     6152    3               PURGE.TYPE.SACTS = '1'B;
      116     6153    3           CASE(19); /* Dictionary */
      117     6154    3               PURGE.TYPE.SDICT = '1'B;
      118     6155    3           CASE(20); /* End statement */
      119     6156    3               IF FIVE_STAR_OPEN
      120     6157    3               THEN CALL UCLOSE('5*');
      121     6158    3               FIVE_STAR_OPEN = '0'B;
      122     6159    3               END;
      123     6160         %EJECT;
PL6.E3A0      #001=ZIG$DDS4 File=ZIG$DDS4.:ZIC0TSI                               FRI 09/05/97 11:49 Page:14
      124     6161    2       CASE(1);
      125     6162    3           DO CASE(BLK.CODE -100);
      126     6163    3           CASE(0); /* Lang translate */
      127     6164    3               SSTRANS.STATUS = '000'B;
      128     6165    3               SSTRANS.SNAME = ' ';
      129     6166    3               PTR_SUBSCHEMA = ADDR(SSTRANS.SSNAME);
      130     6167    3               J = 5;
      131     6168    3           CASE (1); /* Schema option */
      132     6169    3               PTR_SCHEMA = ADDR(SSTRANS.SNAME);
      133     6170    3               END;
      134     6171         %EJECT;
PL6.E3A0      #001=ZIG$DDS4 File=ZIG$DDS4.:ZIC0TSI                               FRI 09/05/97 11:49 Page:15
      135     6172    2       CASE (2);
      136     6173    3           DO CASE (BLK.CODE-200);
      137     6174    3           CASE(0); /* Purge */
      138     6175    3               PURGE.STATUS = '000'B;
      139     6176    3               PURGE.TYPE = '0000'B;
      140     6177    3               PURGE.SDICT_SSNAMES = '00'B;
      141     6178    3               PURGE.SACTS_RET_DATE = ' ';
      142     6179    3               PURGE.ALTER_KEY = '"NULL"';
      143     6180    3               PTR_SCHEMA =ADDR(PURGE.SNAME);
      144     6181    3               J = 9;
      145     6182    3           CASE (1); /* Purge option */
      146     6183    3           CASE (2); /* Retention */
      147     6184    3           CASE (3); /* Year */
      148     6185    3               PURGE.SACTS_RET_DATE = BLK.SUBLK$(0) -> SYM.TEXT;
      149     6186    3               RETURN;
      150     6187    3           CASE (4); /* Subschema name */
      151     6188    3           CASE (5); /* Privacy key */
      152     6189    3               PTR_PRIVACY_KEY = ADDR(PURGE.ALTER_KEY);
      153     6190    3           CASE (6); /* Subschema names */
      154     6191    3               PURGE_DESC.SS_NAMES = BLK.SUBLK$(0) -> OUT.SUBLK$(0) ->
      155     6192    3                  OUT.SUBLK$(0) -> SYM.TEXT;
      156     6193    3               CALL PUT_TO_FILE (ADDR(PURGE_DESC));
      157     6194    3               PURGE.SDICT_SSNAMES.SSNAMES = '1'B;
      158     6195    3               RETURN;
      159     6196    3           CASE (7); /* All schema names */
      160     6197    3               PURGE.SDICT_SSNAMES.ALL = '1'B;
      161     6198    3           CASE (9); /* PURGE subschema ACTIVITIES */
      162     6199    3               J = 12; /* Set j to show that we have subschema purge. */
      163     6200    3           CASE (50); /* REPLACE schema subset shared file */
      164     6201    3               J = 13;
      165     6202    3               PTR_SUBSCHEMA = ADDR(VALIDS.SSNAME);
      166     6203    3               VALIDS.STATUS = '000'B;
      167     6204    3               VALIDS.COPY_LOCK = '0'B;
      168     6205    3               VALIDS.DIAG_LOCK = '0'B;
      169     6206    3               VALIDS.MODE = '0'B;
      170     6207    3               VALIDS.GEN_RVA = '0'B;
      171     6208    3               VALIDS.COPY_KEY = '"NULL"';
PL6.E3A0      #001=ZIG$DDS4 File=ZIG$DDS4.:ZIC0TSI                               FRI 09/05/97 11:49 Page:16
      172     6209    3               VALIDS.DIAG_KEY = '"NULL"';
      173     6210    3               PTR_SCHEMA = ADDR(VALIDS.SNAME);
      174     6211    3               END;
      175     6212         %EJECT;
PL6.E3A0      #001=ZIG$DDS4 File=ZIG$DDS4.:ZIC0TSI                               FRI 09/05/97 11:49 Page:17
      176     6213    2       CASE (3);
      177     6214    3           DO CASE (BLK.CODE-300);
      178     6215    3           CASE (0); /* Translate ddl */
      179     6216    3               STRAN.STATUS = '000'B;
      180     6217    3               STRAN.XREF = '1'B;
      181     6218    3               STRAN.SNAME = OLD_SCHEMA_NAME;
      182     6219    3               J = 3;
      183     6220    3           CASE (1); /* No xref */;
      184     6221    3               STRAN.XREF = '0'B;
      185     6222    3           CASE (2); /* Defaults for PAGE options */
      186     6223    3               STRAN.ALLOC_PG = '0'B;
      187     6224    3               STRAN.ADD_PG = '0'B;
      188     6225    3               STRAN.NUM_PG = 0;
      189     6226    3           CASE (3); /* ALLOCATE num_pg PAGES */
      190     6227    3               STRAN.ALLOC_PG = '1'B;
      191     6228    3           CASE (4); /* ADD num_pg PAGES */
      192     6229    3               STRAN.ADD_PG = '1'B;
      193     6230    3           CASE (5); /* num_pg */
      194     6231    3               CALL CHARBIN(STRAN.NUM_PG,ADDR(BLK)->SYM.TEXT);
      195     6232    3               RETURN;
      196     6233    3               END;
      197     6234         %EJECT;
PL6.E3A0      #001=ZIG$DDS4 File=ZIG$DDS4.:ZIC0TSI                               FRI 09/05/97 11:49 Page:18
      198     6235    2       CASE (4);
      199     6236    3           DO CASE(BLK.CODE-400);
      200     6237    3           CASE (0); /* Translate dmcl */
      201     6238         /* Translate dmcl */
      202     6239    3               DTRAN.STATUS = '000'B;
      203     6240    3               DTRAN.DATA = '1'B;
      204     6241    3               DTRAN.STORAGE = '1'B;
      205     6242    3               DTRAN.ALTER_MODE = '0'B;
      206     6243    3               DTRAN.SNAME = OLD_SCHEMA_NAME;
      207     6244    3               J=4;
      208     6245    3           CASE (1); /* Alter mode */
      209     6246    3               DTRAN.ALTER_MODE = '1'B;
      210     6247    3           CASE (2); /* Privacy key */
      211     6248    3               PTR_PRIVACY_KEY = ADDR(DTRAN.ALTER_KEY);
      212     6249    3           CASE (3); /* Report options */
      213     6250    3               IF BLK.NSUBLKS = 0
      214     6251    4               THEN DO;
      215     6252    4                   DTRAN.DATA = '0'B;
      216     6253    4                   DTRAN.STORAGE = '0'B;
      217     6254    4                   END;
      218     6255    3           CASE (4); /* No data structures */
      219     6256    3               DTRAN.DATA = '0'B;
      220     6257    3           CASE (5); /* No storage structures */
      221     6258    3               DTRAN.STORAGE = '0'B;
      222     6259    3               END;
      223     6260         %EJECT;
PL6.E3A0      #001=ZIG$DDS4 File=ZIG$DDS4.:ZIC0TSI                               FRI 09/05/97 11:49 Page:19
      224     6261    2       CASE (5);
      225     6262    3           DO CASE (BLK.CODE-500);
      226     6263    3           CASE (0); /* Generate */
      227     6264    3               J = 11;
      228     6265    3               SSGEN.STATUS = '000'B;
      229     6266    3               SSGEN.ALIAS_NAMES = '0'B;
      230     6267    3               SSGEN.COPY_FILE_CODE = 'SO';
      231     6268    3               SSGEN.DISP_KEY = '"NULL"';
      232     6269    3               SSGEN.SNAME = ' ';
      233     6270    3               SSGEN.MAP = '0'B; /* Default for DECIMAL mapping */
      234     6271    3               PTR_SUBSCHEMA=ADDR(SSGEN.SSNAME);
      235     6272    3           CASE (1); /* Copy option */
      236     6273    3           CASE (2); /* Schema name */
      237     6274    3               PTR_SCHEMA = ADDR(SSGEN.SNAME);
      238     6275    3           CASE (3); /* Rename option */
      239     6276    3               SSGEN.ALIAS_NAMES = '1'B;
      240     6277    3           CASE (4); /* Privacy display key */
      241     6278    3               PTR_PRIVACY_KEY = ADDR(SSGEN.DISP_KEY);
      242     6279    3           CASE (5,6,7,8);
      243     6280         /*   505 = AREA_NAME
      244     6281            506 = SET_NAME
      245     6282            507 = KEY_NAME
      246     6283            508 = RECORD_NAME
      247     6284            509 = DATA_NAME */
      248     6285    3               SSGEN_DESC.ALIAS_TYPE=ADDR(BLK) -> SYM.CODE -504;
      249     6286    3               SSGEN_DESC.S.NAME=BLK.SUBLK$(0) -> OUT.SUBLK$(0) -> SYM.TEXT;
      250     6287    3               RETURN;
      251     6288    3           CASE (9) /* DATA NAMES */;
      252     6289    3               SSGEN_DESC.ALIAS_TYPE=5; /* DATA NAME */
      253     6290    3               SSGEN_DESC.S.QUAL = ' ';
      254     6291    3               IF BLK.NSUBLKS<2
      255     6292    4               THEN DO;
      256     6293    4                   SSGEN_DESC.S.NAME=BLK.SUBLK$(0)->
      257     6294    4                      OUT.SUBLK$(0) -> SYM.TEXT;
      258     6295    4                   END;
      259     6296    4               ELSE DO;
      260     6297    4                   SSGEN_DESC.S.NAME=BLK.SUBLK$(1) ->
PL6.E3A0      #001=ZIG$DDS4 File=ZIG$DDS4.:ZIC0TSI                               FRI 09/05/97 11:49 Page:20
      261     6298    4                      OUT.SUBLK$(0) -> SYM.TEXT;
      262     6299         /*
      263     6300            THERE WAS A QUALIFIED DATA NAME GIVEN
      264     6301         */
      265     6302    4                   SSGEN_DESC.S.QUAL=BLK.SUBLK$(0) ->
      266     6303    4                      OUT.SUBLK$(0) -> OUT.SUBLK$(0) -> SYM.TEXT;
      267     6304    4                   END;
      268     6305    3               RETURN;
      269     6306    3           CASE (10); /* Alias name */
      270     6307    3               SSGEN_DESC.SS.NAME=BLK.SUBLK$(0) -> OUT.SUBLK$(0) -> SYM.TEXT;
      271     6308    3               CALL PUT_TO_FILE(ADDR(SSGEN_DESC));
      272     6309    3               RETURN;
      273     6310    3           CASE (11); /* Generate options */
      274     6311    3           CASE (12,13,14,15,16) /* In rename option */;
      275     6312        /*
      276     6313            THIS NEXT THREE ALSO ARE USED IN THE TRANSLATION COMANDS FOR
      277     6314          SUBSCHEMAS.
      278     6315        */
      279     6316    3           CASE (17) /* COBOL */;
      280     6317    3               SUB_LANGUAGE=#COBOL;
      281     6318    3           CASE (18) /* FORTRAN */;
      282     6319    3               SUB_LANGUAGE=#FORTRAN;
      283     6320    3           CASE (19) /* APL */;
      284     6321    3               SUB_LANGUAGE= #APL;
      285     6322    3           CASE (21) /* BASIC */;
      286     6323    3               SUB_LANGUAGE= #BASIC;
      287     6324    3           CASE (20) /* SET QUAL TO CORRECT NAME */;
      288     6325    3               SSGEN_DESC.S.QUAL=BLK.SUBLK$(0)->OUT.SUBLK$(0)-> SYM.TEXT;
      289     6326    3           CASE (30); /* REAL mapping */
      290     6327    3               SSGEN.MAP = '0'B;
      291     6328    3           CASE (31); /* DOUBLE PRECISION mapping */
      292     6329    3               SSGEN.MAP = '1'B;
      293     6330    3               END;
      294     6331         %EJECT;
PL6.E3A0      #001=ZIG$DDS4 File=ZIG$DDS4.:ZIC0TSI                               FRI 09/05/97 11:49 Page:21
      295     6332    2       CASE (6);
      296     6333    3           DO CASE (BLK.CODE-600);
      297     6334    3           CASE (0) /* Assign locks */;
      298     6335    3               LOCKS.STATUS = '000'B;
      299     6336    3               LOCKS.LIST = '1'B;
      300     6337    3               LOCKS.ASSIGNS = '0'B;
      301     6338    3               LOCKS.LOCKS_KEY = '"NULL"';
      302     6339    3               PTR_SCHEMA = ADDR(LOCKS.SNAME);
      303     6340    3               J = 1;
      304     6341    3           CASE (1) ; /* Options locks */
      305     6342    3           CASE (2); /* Privacy */
      306     6343    3               PTR_PRIVACY_KEY = ADDR(LOCKS.LOCKS_KEY);
      307     6344    3           CASE (3); /* No report on locks */
      308     6345    3               LOCKS.LIST = '0'B;
      309     6346    3           CASE (4); /* Set locks */
      310     6347    3               LOCKS.ASSIGNS = '1'B;
      311     6348    3           CASE (5); /* Lock name */
      312     6349    3               LOCK_DESC.LOCK_NAME = BLK.SUBLK$(0) -> SYM.TEXT;
      313     6350    3               RETURN;
      314     6351    3           CASE (6); /* Lock value */
      315     6352    3               LOCK_DESC.LOCK_VALUE = BLK.SUBLK$(0) -> SYM.TEXT;
      316     6353    3               IF BLK.SUBLK$(0) -> SYM.COUNT <13
      317     6354    3               THEN CALL PUT_TO_FILE(ADDR(LOCK_DESC));
      318     6355    3               LOCK_DESC.NULLL = '0'B;
      319     6356    3               RETURN;
      320     6357    3           CASE (7);
      321     6358    3               LOCK_DESC.NULLL = '1'B;
      322     6359    3               CALL PUT_TO_FILE(ADDR(LOCK_DESC));
      323     6360    3               RETURN;
      324     6361    3               END;
      325     6362         %EJECT;
PL6.E3A0      #001=ZIG$DDS4 File=ZIG$DDS4.:ZIC0TSI                               FRI 09/05/97 11:49 Page:22
      326     6363    2       CASE (7);
      327     6364    3           DO CASE (BLK.CODE-700);
      328     6365    3           CASE (0); /* Validator */
      329     6366    3               J= 6;
      330     6367    3               PTR_SUBSCHEMA = ADDR(VALIDS.SSNAME);
      331     6368    3               VALIDS.STATUS = '000'B;
      332     6369    3               VALIDS.XLST = '1'B;
      333     6370    3               VALIDS.ICLST = '1'B;
      334     6371    3               VALIDS.AREA_XREF = '1'B;
      335     6372    3               VALIDS.RECORD_XREF = '1'B;
      336     6373    3               VALIDS.PARAM_XREF = '1'B;
      337     6374    3               VALIDS.SET_XREF = '1'B;
      338     6375    3               VALIDS.COPY_LOCK = '0'B;
      339     6376    3               VALIDS.DIAG_LOCK = '0'B;
      340     6377    3               VALIDS.MODE = '0'B;
      341     6378    3               VALIDS.FR_NAMES = '0'B;
      342     6379    3               VALIDS.GEN_RVA = '0'B;
      343     6380    3               VALIDS.COPY_KEY = '"NULL"';
      344     6381    3               VALIDS.DIAG_KEY = '"NULL"';
      345     6382    3               VALIDS.SNAME = ' ';
      346     6383    3           CASE (1); /* Option */
      347     6384    3           CASE (2,16); /* No report on dml */
      348     6385    3               IF BLK.NSUBLKS = 0
      349     6386    4               THEN DO;
      350     6387    4                   VALIDS.ICLST = '0'B;
      351     6388    4                   VALIDS.XLST = '0'B;
      352     6389    4                   VALIDS.RECORD_XREF = '0'B;
      353     6390    4                   VALIDS.PARAM_XREF = '0'B;
      354     6391    4                   VALIDS.AREA_XREF = '0'B;
      355     6392    4                   VALIDS.SET_XREF = '0'B;
      356     6393    4                   END;
      357     6394    3           CASE (3); /* PERMITTED */
      358     6395    3               VALIDS.ICLST = '0'B;
      359     6396    3           CASE (4); /* PROHIBITED */
      360     6397    3               VALIDS.XLST = '0'B;
      361     6398    3           CASE (14); /* AREA XREF */
      362     6399    3               VALIDS.AREA_XREF = '0'B;
PL6.E3A0      #001=ZIG$DDS4 File=ZIG$DDS4.:ZIC0TSI                               FRI 09/05/97 11:49 Page:23
      363     6400    3           CASE (11); /* RECORD XREF */
      364     6401    3               VALIDS.RECORD_XREF = '0'B;
      365     6402    3           CASE (12); /* SET XREF */
      366     6403    3               VALIDS.SET_XREF = '0'B;
      367     6404    3           CASE (13); /* DATA BASE PARAMATER XREF */
      368     6405    3               VALIDS.PARAM_XREF = '0'B;
      369     6406    3           CASE (17); /* GEN RVA */
      370     6407    3               VALIDS.GEN_RVA = '1'B;
      371     6408    3           CASE (15); /* Special print mode */
      372     6409    3               J = 19;
      373     6410    3           CASE (5);
      374     6411    3               VALIDS.MODE = '1'B;
      375     6412    3           CASE (6);
      376     6413    3               VALIDS.FR_NAMES = '1'B;
      377     6414    3           CASE (7); /* Privacy key */
      378     6415    3           CASE (8); /* Privacy key */
      379     6416    3               PTR_PRIVACY_KEY = ADDR(VALIDS.COPY_KEY);
      380     6417    3           CASE (9); /* Privacy key */
      381     6418    3               PTR_PRIVACY_KEY = ADDR(VALIDS.DIAG_KEY);
      382     6419    3           CASE (10); /* Schema name */
      383     6420    3               PTR_SCHEMA = ADDR(VALIDS.SNAME);
      384     6421    3               END;
      385     6422         %EJECT;
PL6.E3A0      #001=ZIG$DDS4 File=ZIG$DDS4.:ZIC0TSI                               FRI 09/05/97 11:49 Page:24
      386     6423    2       CASE (8);
      387     6424    3           DO CASE (BLK.CODE-800);
      388     6425    3           CASE (0); /* Display schema ddl,dmcl,activities */
      389     6426    3               J=2;
      390     6427    3               DISPS.SUBSCHEMA_DISP = '0'B;
      391     6428    3               DISPS.SCHEMA_DISP = '1'B;
      392     6429    3               DISPS.SSNAME = ' ';
      393     6430    3               DISPS.SNAME = OLD_SCHEMA_NAME;
      394     6431    3           CASE (1); /* Privacy key */
      395     6432    3               PTR_PRIVACY_KEY = ADDR(DISPS.DISP_KEY);
      396     6433    3           CASE (2); /* From */
      397     6434    3           CASE (3); /* Copy */
      398     6435    3           CASE (4); /* Year 1 */
      399     6436    3               DISPS.SACTS_FROM_DATE=BLK.SUBLK$(0) -> SYM.TEXT;
      400     6437    3               RETURN;
      401     6438    3           CASE (5); /* Year 2 */
      402     6439    3               DISPS.SACTS_THRU_DATE=BLK.SUBLK$(0) -> SYM.TEXT;
      403     6440    3               RETURN;
      404     6441         %EJECT;
PL6.E3A0      #001=ZIG$DDS4 File=ZIG$DDS4.:ZIC0TSI                               FRI 09/05/97 11:49 Page:25
      405     6442    3           CASE (50); /* Display subschema ddl */
      406     6443    3               DISPS.SCHEMA_DISP = '0'B;
      407     6444    3               DISPS.SUBSCHEMA_DISP = '1'B;
      408     6445    3               DISPS.SSNAME = SUBSCHEMA_NAME;
      409     6446    3               J = 2;
      410     6447    3           CASE (52); /* Copy */
      411     6448    3           CASE (51); /* Privacy key */
      412     6449    3               PTR_PRIVACY_KEY = ADDR(DISPS.DISP_KEY);
      413     6450    3           CASE (53); /* Schema name */
      414     6451    3               PTR_SCHEMA=ADDR(DISPS.SNAME);
      415     6452    3           CASE (54); /* Display fortran include file */
      416     6453    3               DISPS.SSDISP_TYPES.FORT_INCL = '1'B;
      417     6454    3               J = 18;
      418     6455    3               END;
      419     6456         %EJECT;
PL6.E3A0      #001=ZIG$DDS4 File=ZIG$DDS4.:ZIC0TSI                               FRI 09/05/97 11:49 Page:26
      420     6457    2       CASE (9);
      421     6458    3           DO CASE (BLK.CODE-900);
      422     6459    3           CASE (0); /* Display subschema dict */
      423     6460    3               J = 7;
      424     6461    3               DICTS.SUBSCHEMA_DICT = '1'B;
      425     6462    3               DICTS.SCHEMA_DICT= '0'B;
      426     6463    3               DICTS.SSNAME = SUBSCHEMA_NAME;
      427     6464    3           CASE (1); /* Privacy key */
      428     6465    3               PTR_PRIVACY_KEY = ADDR(DICTS.DISP_KEY);
      429     6466    3           CASE (2); /* Schema name */
      430     6467    3               PTR_SCHEMA=ADDR(DICTS.SNAME);
      431     6468         %EJECT;
PL6.E3A0      #001=ZIG$DDS4 File=ZIG$DDS4.:ZIC0TSI                               FRI 09/05/97 11:49 Page:27
      432     6469    3           CASE (50); /* Display schema dict */
      433     6470    3               DICTS.SUBSCHEMA_DICT = '0'B;
      434     6471    3               DICTS.SCHEMA_DICT = '1'B;
      435     6472    3               DICTS.SSNAME = ' ';
      436     6473    3               DICTS.SNAME = OLD_SCHEMA_NAME;
      437     6474    3               DICTS.ALL = '111111'B;
      438     6475    3               J = 7;
      439     6476    3           CASE (51); /* Privacy key */
      440     6477    3               PTR_PRIVACY_KEY = ADDR(DICTS.DISP_KEY);
      441     6478    3           CASE (52); /* Report */
      442     6479    3           CASE (53); /* All */
      443     6480    3           CASE (54) /* Schema */;
      444     6481    3               IF DICTS.ALL = '111111'B THEN DICTS.ALL = '0'B;
      445     6482    3               DICTS.ALL.SCHEMAS = '1'B;
      446     6483    3           CASE (55) /* Areas */;
      447     6484    3               IF DICTS.ALL = '111111'B THEN DICTS.ALL = '0'B;
      448     6485    3               DICTS.ALL.AREAS = '1'B;
      449     6486    3           CASE (56) /* Sets */;
      450     6487    3               IF DICTS.ALL = '111111'B THEN DICTS.ALL = '0'B;
      451     6488    3               DICTS.ALL.SETS = '1'B;
      452     6489    3           CASE (57) /* Keys */;
      453     6490    3               IF DICTS.ALL = '111111'B THEN DICTS.ALL = '0'B;
      454     6491    3               DICTS.ALL.KEYS = '1'B;
      455     6492    3           CASE (58) /* Records */;
      456     6493    3               IF DICTS.ALL = '111111'B THEN DICTS.ALL = '0'B;
      457     6494    3               DICTS.ALL.RECORDS = '1'B;
      458     6495    3           CASE (59) /* Fields */;
      459     6496    3               IF DICTS.ALL = '111111'B THEN DICTS.ALL = '0'B;
      460     6497    3               DICTS.ALL.FIELDS = '1'B;
      461     6498    3           CASE (60,61,62,63);
      462     6499    3               DICT_DESC.NAME_TYPE = BLK.CODE -959;
      463     6500    3               DICT_DESC.QUAL = BLK.SUBLK$(0) -> OUT.SUBLK$(0) -> SYM.TEXT;
      464     6501    4               DO CASE (DICT_DESC.NAME_TYPE);
      465     6502    4               CASE (1);
      466     6503    4                   DICTS.NAMES.AREA_NAMES = '1'B;
      467     6504    4               CASE (2);
      468     6505    4                   DICTS.NAMES.SET_NAMES = '1'B;
PL6.E3A0      #001=ZIG$DDS4 File=ZIG$DDS4.:ZIC0TSI                               FRI 09/05/97 11:49 Page:28
      469     6506    4               CASE (3);
      470     6507    4                   DICTS.NAMES.KEY_NAMES = '1'B;
      471     6508    4               CASE (4);
      472     6509    4                   DICTS.NAMES.RECORD_NAMES = '1'B;
      473     6510    4                   END;
      474     6511    3               CALL PUT_TO_FILE(ADDR(DICT_DESC));
      475     6512    3               IF BLK.NSUBLKS=2 THEN CALL ZIG$DDS4(BLK.SUBLK$(1) -> OUT);
      476     6513    3               RETURN;
      477     6514    3           CASE (64);
      478     6515    3               DICT_DESC.NAME_TYPE= 5; /* DATA NAME */
      479     6516    3               DICTS.NAMES.DATA_NAMES= '1'B;
      480     6517    3               IF BLK.SUBLK$(0) -> OUT.CODE = 966 /* QUAL */
      481     6518    4               THEN DO;
      482     6519    4                   DICT_DESC.QUAL= BLK.SUBLK$(0) -> OUT.SUBLK$(0)
      483     6520    4                      -> OUT.SUBLK$(0) -> SYM.TEXT;
      484     6521    4                   DICT_DESC.NAME = BLK.SUBLK$(1) ->
      485     6522    4                      OUT.SUBLK$(0) -> SYM.TEXT;
      486     6523    4                   CALL PUT_TO_FILE(ADDR(DICT_DESC));
      487     6524    4                   IF BLK.NSUBLKS=3
      488     6525    4                   THEN CALL ZIG$DDS4(BLK.SUBLK$(2)-> OUT);
      489     6526    4                   END;
      490     6527    4               ELSE DO;
      491     6528    4                   DICT_DESC.QUAL = ' ';
      492     6529    4                   DICT_DESC.NAME = BLK.SUBLK$(0) ->
      493     6530    4                      OUT.SUBLK$(0) -> SYM.TEXT;
      494     6531    4                   CALL PUT_TO_FILE(ADDR(DICT_DESC));
      495     6532    4                   IF BLK.NSUBLKS=2
      496     6533    4                   THEN CALL ZIG$DDS4(BLK.SUBLK$(1) -> OUT);
      497     6534    4                   END;
      498     6535    3               RETURN;
      499     6536    3           CASE (65); /* More report */
      500     6537    3               END;
      501     6538         %EJECT;
PL6.E3A0      #001=ZIG$DDS4 File=ZIG$DDS4.:ZIC0TSI                               FRI 09/05/97 11:49 Page:29
      502     6539    2       CASE (10); /* Help commands */
      503     6540    2           J=20; /* Indicate help processor */
      504     6541    3           DO CASE( BLK.CODE );
      505     6542    3           CASE( 1000 ); /* HELP IDS CODE */
      506     6543    3               CALL CHARBIN( IDS_CODE, ADDR(BLK)->SYM.TEXT );
      507     6544    3               CALL HELP_IDS_CODE( IDS_CODE );
      508     6545    3           CASE( 1001 ); /* HELP PHRASE */
      509     6546    3               HELP_PARAM.PROCACCT_ = VECTOR( ACCTNAME );
      510     6547    3               HELP_PARAM.HELP$ = BLK.SUBLK$(0)->SYM.TEXTC$;
      511     6548    3               CALL X$HELP( HELP_PARAM ) ALTRET( ALT_HELP );
      512     6549    3           CASE( 1002 ); /* QUESTION MARK */
      513     6550    3               HELP_PARAM.MORE# = '1'B;
      514     6551    3               CALL X$HELP( HELP_PARAM ) ALTRET( ALT_HELP );
      515     6552    3           CASE( 1003 ); /* DOUBLE QUESTION MARK */
      516     6553    3               HELP_PARAM.ALL# = '1'B;
      517     6554    3               CALL X$HELP( HELP_PARAM ) ALTRET( ALT_HELP );
      518     6555    3               END;
      519     6556    2           RETURN;
      520     6557    2           END;
      521     6558        /*   End of main case statement */
      522     6559    2       IF BLK.NSUBLKS ~= 0 THEN DO;
      523     6560    3           DO K = 0 TO BLK.NSUBLKS -1;
      524     6561    3               CALL ZIG$DDS4(BLK.SUBLK$(K) -> OUT);
      525     6562    3               END;
      526     6563    2           END;
      527     6564    1       RETURN;
      528     6565    1   ALT_HELP:
      529     6566    1       CALL HELP_PHRASE_DDER( BITBIN( HELP_PARAM.ERR ) );
      530     6567    1       RETURN;
      531     6568    1   END ZIG$DDS4;

PL6.E3A0      #001=ZIG$DDS4 File=ZIG$DDS4.:ZIC0TSI                               FRI 09/05/97 11:49 Page:30
--  Include file information  --

   ZIG_DIR_STRUCS.:ZIC0TOU  cannot be made into a system file and is referenced.
   ZIG_FIVESTAR_DESC.:ZIC0TOU  cannot be made into a system file and is referenced.
   ZI_SUB_LANG.:ZIC0TOU  is referenced.
   XU_SUBS_C.:LIB_E05  is referenced.
   XU_MACRO_C.:LIB_E05  is referenced.
   XUH_MACRO_C.:LIB_E05  is referenced.
   CP_6_SUBS.:LIB_E05  is referenced.
   B$JIT_C.:E05TOU  was found in the system file and is never referenced.
   CP_6_C.:E05TOU  was found in the system file and is never referenced.
      No diagnostics issued in procedure ZIG$DDS4.

   Procedure ZIG$DDS4 requires 1222 words for executable code.
   Procedure ZIG$DDS4 requires 20 words of local(AUTO) storage.

    No errors detected in file ZIG$DDS4.:ZIC0TSI    .

PL6.E3A0      #001=ZIG$DDS4 File=ZIG$DDS4.:ZIC0TSI                               FRI 09/05/97 11:49 Page:31

 Object Unit name= ZIG$DDS4                                   File name= ZIG$DDS4.:ZIC0TOU
 UTS= SEP 05 '97 11:49:15.76 FRI                              Compiler= PL-6/E31         Sev=      00
 SharedLib= :SHARED_SYSTEM                                    Alt SharedLib=


    ****  Control sections  ****

 Sect   Type Bound  Init  Size OctSiz  Section name(segment info)
    0  RoData even  UTS      6      6  ZIG$DDS4
    1   DCB   even  none     0      0  M$LO
    2  LblCom even  none     8     10  OLD_SCHEMA_NAME
    3  LblCom even  none     8     10  SUBSCHEMA_NAME
    4  LblCom even  none     1      1  DONE
    5   Data  even  none   101    145  ZIG$DDS4
    6  LblCom even  none     5      5  LANG_ALLOWED
    7  LblCom even  none     1      1  SUB_LANGUAGE
    8  LblCom even  none    16     20  HEADING_TEXT
    9  LblCom even  none    13     15  LANG_TEXT
   10  LblCom even  none     1      1  HASH_SCHEMA_NAME
   11  LblCom even  none     1      1  CURRENT_RECORD
   12  LblCom even  none    25     31  DESC
   13  LblCom even  none    12     14  ANALS
   14  LblCom even  none    13     15  PURGE
   15  LblCom even  none    19     23  DICTS
   16  LblCom even  none    23     27  DISPS
   17  LblCom even  none    22     26  VALIDS
   18  LblCom even  none    12     14  LOCKS
   19  LblCom even  none    10     12  STRAN
   20  LblCom even  none    12     14  DTRAN
   21  LblCom even  none    16     20  SSTRANS
   22  LblCom even  none    20     24  SSGEN
   23  LblCom even  none     1      1  J
   24  LblCom even  none     1      1  PTR_SCHEMA
   25  LblCom even  none     1      1  PTR_SUBSCHEMA
   26  LblCom even  none     1      1  PTR_PRIVACY_KEY
   27  LblCom even  none     8     10  GAR
   28   Proc  even  none  1222   2306  ZIG$DDS4
PL6.E3A0      #001=ZIG$DDS4 File=ZIG$DDS4.:ZIC0TSI                               FRI 09/05/97 11:49 Page:32
   29  RoData even  none    50     62  ZIG$DDS4

    ****  Entry defs  ****

                              Check   Calling
                             calling  sequence
  Sect OctLoc Primary Altret sequence   type   Parms  Name
    28      0   yes            yes      Std        1  ZIG$DDS4

  ****  Entry refs  ****

         Check        Calling
        calling       sequence
Altret sequence SRef   type   Args  Name
         yes           Std       1 UCLOSE
         yes           Std       1 HELP_IDS_CODE
 yes     yes           Std       1 X$HELP
         yes           Std       1 HELP_PHRASE_DDER
         yes           Std       2 UOPEN
         yes           Std       3 UPUT
                       nStd      0 X66_AUTO_1
                       nStd      0 X66_ARET

  ****  Data refs  ****

  Flags:  r = read only, s = secondary
Flgs Name                             Flgs Name                             Flgs Name
     M$LO

  ****  Segment refs  ****

  Flags:  r = read only, s = secondary
Flgs Name                             Flgs Name                             Flgs Name
     ISSID                                 NULLSID
PL6.E3A0      #001=ZIG$DDS4 File=ZIG$DDS4.:ZIC0TSI                               FRI 09/05/97 11:49 Page:33


        1        1        /*M*     ZIG$DDS4       I-D-S/II DBACS DIRECTIVES PARSER */
        2        2        /*T***********************************************************/
        3        3        /*T*                                                         */
        4        4        /*T* Copyright (c) Bull HN Information Systems Inc., 1997    */
        5        5        /*T*                                                         */
        6        6        /*T***********************************************************/
        7        7        /*P*
        8        8        NAME:    ZIG$DDS4
        9        9        PURPOSE: TO GO THRU THE BLOCKS RETURNED BY X$PARSE AND FIND WHAT
       10       10            OPTION WERE IN WHICH DBACS DIRECTIVE. THEN SET THE FLAGS
       11       11            FOR THAT DIRECTIVE AND RETURN FOR THE DIRECTIVE TO BE
       12       12            PROCESSED;
       13       13        */
       14       14        ZIG$DDS4:
       15       15            PROC (BLK);

     15 28 000000   000000 700200 xent  ZIG$DDS4     TSX0  ! X66_AUTO_1
        28 000001   000024 000001                    ZERO    20,1
        28 000002   000031 710000 28                 TRA     s:6105

       16       16    1   DCL ACCTNAME CHAR(8) CONSTANT INIT(':SYS');
       17       17    1   DCL M$LO DCB;
       18       18    1   DCL OLD_SCHEMA_NAME CHAR (30) EXT INIT (' ');
       19       19    1   DCL SUBSCHEMA_NAME CHAR (30) EXT INIT (' ');
       20       20    1   DCL DONE BIT (1) INIT ('0'B) EXT;
       21       21    1   DCL FIVE_STAR_OPEN BIT (1) STATIC INIT ('0'B);
       22       22    1   DCL IDS_CODE UBIN WORD;
       23       23    1   DCL HELP_IDS_CODE ENTRY(1);
       24       24    1   DCL HELP_PHRASE_DDER ENTRY(1);
       25       25    1   DCL UCLOSE ENTRY (1);
       26       26    1   DCL UPUT ENTRY (2);
       27       27    1   DCL X$HELP ENTRY(1) ALTRET;
       28       28         %INCLUDE CP_6_SUBS;
       29      568         %INCLUDE XUH_MACRO_C;
       30      652         %INCLUDE XU_MACRO_C;
       31     3758         %INCLUDE XU_SUBS_C;
PL6.E3A0      #001=ZIG$DDS4 File=ZIG$DDS4.:ZIC0TSI                               FRI 09/05/97 11:49 Page:34
       32     3850         %INCLUDE ZI_SUB_LANG;
       33     5565         %GENERAL;
       34     5689         %INCLUDE ZIG_FIVESTAR_DESC;
       35     5732         %INCLUDE ZIG_DIR_STRUCS;
       36     5862         %EJECT;
PL6.E3A0      #001=ZIG$DDS4 File=ZIG$DDS4.:ZIC0TSI                               FRI 09/05/97 11:49 Page:35
       37     5863         %VLP_NAME(FPTN=DBACSX,NAME='DBACS');
       38     5890         %XUH_PARAM(NAME=HELP_PARAM,PROCNAME=DBACSX,OUTDCB1=M$LO);
       39     5951         %PARSE$OUT(NAME=OUT,STCLASS=BASED);
       40     5996         %PARSE$SYM(NAME=SYM,STCLASS=BASED);
       41     6034         %PARSE$OUT(NAME=BLK,STCLASS = " ");
       42     6079         %PLIST;
       43     6080    1   DCL I UBIN (36);
       44     6081    1   DCL J UBIN (36) EXT;
       45     6082    1   DCL K UBIN (36);
       46     6083         %EJECT;
PL6.E3A0      #001=ZIG$DDS4 File=ZIG$DDS4.:ZIC0TSI                               FRI 09/05/97 11:49 Page:36
       47     6084    1   DCL PTR_SCHEMA PTR EXT INIT (ADDR(GAR));
       48     6085    1   DCL PTR_SUBSCHEMA PTR EXT INIT (ADDR(GAR));
       49     6086    1   DCL PTR_PRIVACY_KEY PTR EXT INIT (ADDR(GAR));
       50     6087    1   DCL GAR CHAR (30) EXT;
       51     6088    1   DCL STRING_30 CHAR (30) BASED;
       52     6089    1   DCL STRING_12 CHAR (12) BASED;
       53     6090    1   DCL STRING_2 CHAR (2) BASED;
       54     6091    1   PUT_TO_FILE:

   6091 28 000003   200010 741300       PUT_TO_FILE  STX1  ! K+2,,AUTO

       55     6092    1       PROC (PTR_OUT);
       56     6093    2   DCL PTR_OUT PTR;
       57     6094    2   DCL UOPEN ENTRY (2);
       58     6095    2   DCL UPUT ENTRY (3);
       59     6096    2   DCL DESCSIZE UBIN (36) STATIC INIT (25);
       60     6097    2       IF ~FIVE_STAR_OPEN

   6097 28 000004   000000 236000 5                  LDQ     FIVE_STAR_OPEN
        28 000005   400000 376003                    ANQ     -131072,DU
        28 000006   400000 676003                    ERQ     -131072,DU
        28 000007   000016 600000 28                 TZE     s:6102

       61     6098    3       THEN DO;

       62     6099    3           CALL UOPEN('5*',1); /* Creat the file *5 */

   6099 28 000010   000002 630400 29                 EPPR0   2
        28 000011   000000 631400 29                 EPPR1   0
        28 000012   000000 701000 xent               TSX1    UOPEN
        28 000013   000000 011000                    NOP     0

       63     6100    3           FIVE_STAR_OPEN = '1'B;

   6100 28 000014   400000 236003                    LDQ     -131072,DU
        28 000015   000000 756000 5                  STQ     FIVE_STAR_OPEN

PL6.E3A0      #001=ZIG$DDS4 File=ZIG$DDS4.:ZIC0TSI                               FRI 09/05/97 11:49 Page:37
       64     6101    3           END;

       65     6102    2       CALL UPUT('5*',PTR_OUT,DESCSIZE);

   6102 28 000016   000005 236000 29                 LDQ     5
        28 000017   200014 756100                    STQ     @PTR_OUT+3,,AUTO
        28 000020   200011 236100                    LDQ     @PTR_OUT,,AUTO
        28 000021   000002 235000 29                 LDA     2
        28 000022   200012 757100                    STAQ    @PTR_OUT+1,,AUTO
        28 000023   200012 630500                    EPPR0   @PTR_OUT+1,,AUTO
        28 000024   000004 631400 29                 EPPR1   4
        28 000025   000000 701000 xent               TSX1    UPUT
        28 000026   000000 011000                    NOP     0

       66     6103    2   END PUT_TO_FILE;

   6103 28 000027   200010 221300                    LDX1  ! K+2,,AUTO
        28 000030   000001 702211                    TSX2  ! 1,X1

       67     6104         %EJECT;
PL6.E3A0      #001=ZIG$DDS4 File=ZIG$DDS4.:ZIC0TSI                               FRI 09/05/97 11:49 Page:38
       68     6105    2       DO CASE (BLK.CODE/100);

   6105 28 000031   200003 470500                    LDP0    @BLK,,AUTO
        28 000032   000000 236100                    LDQ     0,,PR0
        28 000033   777777 376007                    ANQ     -1,DL
        28 000034   000144 506007                    DIV     100,DL
        28 000035   000013 116007                    CMPQ    11,DL
        28 000036   000040 602006 28                 TNC     s:6105+7,QL
        28 000037   002252 710000 28                 TRA     s:6559
        28 000040   000053 710000 28                 TRA     s:6107
        28 000041   000234 710000 28                 TRA     s:6162
        28 000042   000261 710000 28                 TRA     s:6173
        28 000043   000465 710000 28                 TRA     s:6214
        28 000044   000543 710000 28                 TRA     s:6236
        28 000045   000620 710000 28                 TRA     s:6262
        28 000046   001055 710000 28                 TRA     s:6333
        28 000047   001171 710000 28                 TRA     s:6364
        28 000050   001357 710000 28                 TRA     s:6424
        28 000051   001541 710000 28                 TRA     s:6458
        28 000052   002167 710000 28                 TRA     s:6540

       69     6106    2       CASE (0);

       70     6107    3           DO CASE (BLK.CODE);

   6107 28 000053   000000 720100                    LXL0    0,,PR0
        28 000054   000025 100003                    CMPX0   21,DU
        28 000055   000057 602010 28                 TNC     s:6107+4,X0
        28 000056   002252 710000 28                 TRA     s:6559
        28 000057   000233 710000 28                 TRA     s:6159
        28 000060   000233 710000 28                 TRA     s:6159
        28 000061   000233 710000 28                 TRA     s:6159
        28 000062   000104 710000 28                 TRA     s:6116
        28 000063   000233 710000 28                 TRA     s:6159
        28 000064   000136 710000 28                 TRA     s:6128
        28 000065   000153 710000 28                 TRA     s:6133
        28 000066   000170 710000 28                 TRA     s:6138
PL6.E3A0      #001=ZIG$DDS4 File=ZIG$DDS4.:ZIC0TSI                               FRI 09/05/97 11:49 Page:39
        28 000067   000233 710000 28                 TRA     s:6159
        28 000070   000201 710000 28                 TRA     s:6142
        28 000071   000233 710000 28                 TRA     s:6159
        28 000072   000233 710000 28                 TRA     s:6159
        28 000073   000233 710000 28                 TRA     s:6159
        28 000074   000233 710000 28                 TRA     s:6159
        28 000075   000233 710000 28                 TRA     s:6159
        28 000076   000233 710000 28                 TRA     s:6159
        28 000077   000202 710000 28                 TRA     s:6145
        28 000100   000207 710000 28                 TRA     s:6148
        28 000101   000214 710000 28                 TRA     s:6151
        28 000102   000221 710000 28                 TRA     s:6154
        28 000103   000224 710000 28                 TRA     s:6156

       71     6108         %EJECT;
PL6.E3A0      #001=ZIG$DDS4 File=ZIG$DDS4.:ZIC0TSI                               FRI 09/05/97 11:49 Page:40
       72     6109    3           CASE(0); /* Dbacs */

       73     6110         %EJECT;
PL6.E3A0      #001=ZIG$DDS4 File=ZIG$DDS4.:ZIC0TSI                               FRI 09/05/97 11:49 Page:41
       74     6111    3           CASE(1); /* Translate */

       75     6112         %EJECT;
PL6.E3A0      #001=ZIG$DDS4 File=ZIG$DDS4.:ZIC0TSI                               FRI 09/05/97 11:49 Page:42
       76     6113    3           CASE(2); /* Schema */

       77     6114         %EJECT;
PL6.E3A0      #001=ZIG$DDS4 File=ZIG$DDS4.:ZIC0TSI                               FRI 09/05/97 11:49 Page:43
       78     6115    3           CASE(3); /* Display  ?? */

       79     6116    3               DISPS.STATUS = '000'B;

   6116 28 000104   000006 236000 29                 LDQ     6
        28 000105   000000 356000 16                 ANSQ    DISPS

       80     6117    3               DISPS.SDISP_TYPES = '000'B;

   6117 28 000106   000007 236000 29                 LDQ     7
        28 000107   000000 356000 16                 ANSQ    DISPS

       81     6118    3               DISPS.SACTS_FROM_DATE = ' ';

   6118 28 000110   040000 100400                    MLR     fill='040'O
        28 000111   000010 000001 29                 ADSC9   8                        cn=0,n=1
        28 000112   000001 200006 16                 ADSC9   DISPS+1                  cn=1,n=6

       82     6119    3               DISPS.SACTS_THRU_DATE = ' ';

   6119 28 000113   040000 100400                    MLR     fill='040'O
        28 000114   000010 000001 29                 ADSC9   8                        cn=0,n=1
        28 000115   000002 600006 16                 ADSC9   DISPS+2                  cn=3,n=6

       83     6120    3               DISPS.COPY_FILE_CODE = 'SO';

   6120 28 000116   000003 236000 0                  LDQ     ACCTNAME+3
        28 000117   000011 772000                    QRL     9
        28 000120   000004 552030 16                 STBQ    DISPS+4,'30'O

       84     6121    3               DISPS.DISP_KEY = '"NULL"';

   6121 28 000121   040000 100400                    MLR     fill='040'O
        28 000122   000004 000006 0                  ADSC9   ACCTNAME+4               cn=0,n=6
        28 000123   000004 600014 16                 ADSC9   DISPS+4                  cn=3,n=12

       85     6122    3               DICTS.STATUS = '000'B;
PL6.E3A0      #001=ZIG$DDS4 File=ZIG$DDS4.:ZIC0TSI                               FRI 09/05/97 11:49 Page:44

   6122 28 000124   000006 236000 29                 LDQ     6
        28 000125   000000 356000 15                 ANSQ    DICTS

       86     6123    3               DICTS.ALL = '000000'B;

   6123 28 000126   000011 236000 29                 LDQ     9
        28 000127   000000 356000 15                 ANSQ    DICTS

       87     6124    3               DICTS.NAMES = '00000'B;

   6124 28 000130   000012 236000 29                 LDQ     10
        28 000131   000000 356000 15                 ANSQ    DICTS

       88     6125    3               DICTS.DISP_KEY = '"NULL"';

   6125 28 000132   040000 100400                    MLR     fill='040'O
        28 000133   000004 000006 0                  ADSC9   ACCTNAME+4               cn=0,n=6
        28 000134   000001 000014 15                 ADSC9   DICTS+1                  cn=0,n=12
        28 000135   002252 710000 28                 TRA     s:6559

       89     6126         %EJECT;
PL6.E3A0      #001=ZIG$DDS4 File=ZIG$DDS4.:ZIC0TSI                               FRI 09/05/97 11:49 Page:45
       90     6127    3           CASE(5); /* Schema name */;

       91     6128    3               OLD_SCHEMA_NAME = BLK.SUBLK$(0) -> OUT.SUBLK$(0) -> SYM.TEXT;

   6128 28 000136   000003 471500                    LDP1    3,,PR0
        28 000137   100003 473500                    LDP3    3,,PR1
        28 000140   300004 236100                    LDQ     4,,PR3
        28 000141   000033 772000                    QRL     27
        28 000142   000000 621006                    EAX1    0,QL
        28 000143   040000 100540                    MLR     fill='040'O
        28 000144   300004 200011                    ADSC9   4,,PR3                   cn=1,n=*X1
        28 000145   000000 000036 2                  ADSC9   OLD_SCHEMA_NAME          cn=0,n=30

       92     6129    3               PTR_SCHEMA -> STRING_30 = OLD_SCHEMA_NAME;

   6129 28 000146   000000 471400 24                 LDP1    PTR_SCHEMA
        28 000147   040100 100400                    MLR     fill='040'O
        28 000150   000000 000036 2                  ADSC9   OLD_SCHEMA_NAME          cn=0,n=30
        28 000151   100000 000036                    ADSC9   0,,PR1                   cn=0,n=30

       93     6130    3               RETURN;

   6130 28 000152   000000 702200 xent               TSX2  ! X66_ARET

       94     6131         %EJECT;
PL6.E3A0      #001=ZIG$DDS4 File=ZIG$DDS4.:ZIC0TSI                               FRI 09/05/97 11:49 Page:46
       95     6132    3           CASE(6); /* Subschema name */

       96     6133    3               SUBSCHEMA_NAME = BLK.SUBLK$(0) -> OUT.SUBLK$(0) -> SYM.TEXT;

   6133 28 000153   000003 471500                    LDP1    3,,PR0
        28 000154   100003 473500                    LDP3    3,,PR1
        28 000155   300004 236100                    LDQ     4,,PR3
        28 000156   000033 772000                    QRL     27
        28 000157   000000 621006                    EAX1    0,QL
        28 000160   040000 100540                    MLR     fill='040'O
        28 000161   300004 200011                    ADSC9   4,,PR3                   cn=1,n=*X1
        28 000162   000000 000036 3                  ADSC9   SUBSCHEMA_NAME           cn=0,n=30

       97     6134    3               PTR_SUBSCHEMA -> STRING_30 = SUBSCHEMA_NAME;

   6134 28 000163   000000 471400 25                 LDP1    PTR_SUBSCHEMA
        28 000164   040100 100400                    MLR     fill='040'O
        28 000165   000000 000036 3                  ADSC9   SUBSCHEMA_NAME           cn=0,n=30
        28 000166   100000 000036                    ADSC9   0,,PR1                   cn=0,n=30

       98     6135    3               RETURN;

   6135 28 000167   000000 702200 xent               TSX2  ! X66_ARET

       99     6136         %EJECT;
PL6.E3A0      #001=ZIG$DDS4 File=ZIG$DDS4.:ZIC0TSI                               FRI 09/05/97 11:49 Page:47
      100     6137    3           CASE(7); /* Privacy key */

      101     6138    3               PTR_PRIVACY_KEY -> STRING_12 = BLK.SUBLK$(0) -> SYM.TEXT;

   6138 28 000170   000003 471500                    LDP1    3,,PR0
        28 000171   100004 236100                    LDQ     4,,PR1
        28 000172   000033 772000                    QRL     27
        28 000173   000000 621006                    EAX1    0,QL
        28 000174   000000 473400 26                 LDP3    PTR_PRIVACY_KEY
        28 000175   040100 100540                    MLR     fill='040'O
        28 000176   100004 200011                    ADSC9   4,,PR1                   cn=1,n=*X1
        28 000177   300000 000014                    ADSC9   0,,PR3                   cn=0,n=12

      102     6139    3               RETURN;

   6139 28 000200   000000 702200 xent               TSX2  ! X66_ARET

      103     6140         %EJECT;
PL6.E3A0      #001=ZIG$DDS4 File=ZIG$DDS4.:ZIC0TSI                               FRI 09/05/97 11:49 Page:48
      104     6141    3           CASE(9); /* Copy */

      105     6142    3               RETURN;

   6142 28 000201   000000 702200 xent               TSX2  ! X66_ARET

      106     6143         %EJECT;
PL6.E3A0      #001=ZIG$DDS4 File=ZIG$DDS4.:ZIC0TSI                               FRI 09/05/97 11:49 Page:49
      107     6144    3           CASE(16); /* Ddl */

      108     6145    3               DISPS.SDISP_TYPES.DDL = '1'B;

   6145 28 000202   010000 236003                    LDQ     4096,DU
        28 000203   000000 256000 16                 ORSQ    DISPS

      109     6146    3               PURGE.TYPE.DDL = '1'B;

   6146 28 000204   040000 236003                    LDQ     16384,DU
        28 000205   000000 256000 14                 ORSQ    PURGE
        28 000206   002252 710000 28                 TRA     s:6559

      110     6147    3           CASE(17); /* Dmcl */

      111     6148    3               DISPS.SDISP_TYPES.DMCL= '1'B;

   6148 28 000207   004000 236003                    LDQ     2048,DU
        28 000210   000000 256000 16                 ORSQ    DISPS

      112     6149    3               PURGE.TYPE.DMCL = '1'B;

   6149 28 000211   020000 236003                    LDQ     8192,DU
        28 000212   000000 256000 14                 ORSQ    PURGE
        28 000213   002252 710000 28                 TRA     s:6559

      113     6150    3           CASE(18); /* Activities */

      114     6151    3               DISPS.SDISP_TYPES.SACTS = '1'B;

   6151 28 000214   002000 236003                    LDQ     1024,DU
        28 000215   000000 256000 16                 ORSQ    DISPS

      115     6152    3               PURGE.TYPE.SACTS = '1'B;

   6152 28 000216   010000 236003                    LDQ     4096,DU
        28 000217   000000 256000 14                 ORSQ    PURGE
PL6.E3A0      #001=ZIG$DDS4 File=ZIG$DDS4.:ZIC0TSI                               FRI 09/05/97 11:49 Page:50
        28 000220   002252 710000 28                 TRA     s:6559

      116     6153    3           CASE(19); /* Dictionary */

      117     6154    3               PURGE.TYPE.SDICT = '1'B;

   6154 28 000221   004000 236003                    LDQ     2048,DU
        28 000222   000000 256000 14                 ORSQ    PURGE
        28 000223   002252 710000 28                 TRA     s:6559

      118     6155    3           CASE(20); /* End statement */

      119     6156    3               IF FIVE_STAR_OPEN

   6156 28 000224   000000 234000 5                  SZN     FIVE_STAR_OPEN
        28 000225   000232 605000 28                 TPL     s:6158

      120     6157    3               THEN CALL UCLOSE('5*');

   6157 28 000226   000002 630400 29                 EPPR0   2
        28 000227   000013 631400 29                 EPPR1   11
        28 000230   000000 701000 xent               TSX1    UCLOSE
        28 000231   000000 011000                    NOP     0

      121     6158    3               FIVE_STAR_OPEN = '0'B;

   6158 28 000232   000000 450000 5                  STZ     FIVE_STAR_OPEN

      122     6159    3               END;

   6159 28 000233   002252 710000 28                 TRA     s:6559

      123     6160         %EJECT;
PL6.E3A0      #001=ZIG$DDS4 File=ZIG$DDS4.:ZIC0TSI                               FRI 09/05/97 11:49 Page:51
      124     6161    2       CASE(1);

      125     6162    3           DO CASE(BLK.CODE -100);

   6162 28 000234   000000 236100                    LDQ     0,,PR0
        28 000235   777777 376007                    ANQ     -1,DL
        28 000236   000144 136007                    SBLQ    100,DL
        28 000237   000002 116007                    CMPQ    2,DL
        28 000240   000242 602006 28                 TNC     s:6162+6,QL
        28 000241   002252 710000 28                 TRA     s:6559
        28 000242   000244 710000 28                 TRA     s:6164
        28 000243   000256 710000 28                 TRA     s:6169

      126     6163    3           CASE(0); /* Lang translate */

      127     6164    3               SSTRANS.STATUS = '000'B;

   6164 28 000244   000006 236000 29                 LDQ     6
        28 000245   000000 356000 21                 ANSQ    SSTRANS

      128     6165    3               SSTRANS.SNAME = ' ';

   6165 28 000246   040000 100400                    MLR     fill='040'O
        28 000247   000010 000001 29                 ADSC9   8                        cn=0,n=1
        28 000250   000001 000036 21                 ADSC9   SSTRANS+1                cn=0,n=30

      129     6166    3               PTR_SUBSCHEMA = ADDR(SSTRANS.SSNAME);

   6166 28 000251   000014 236000 29                 LDQ     12
        28 000252   000000 756000 25                 STQ     PTR_SUBSCHEMA

      130     6167    3               J = 5;

   6167 28 000253   000005 235007                    LDA     5,DL
        28 000254   000000 755000 23                 STA     J
        28 000255   002252 710000 28                 TRA     s:6559

PL6.E3A0      #001=ZIG$DDS4 File=ZIG$DDS4.:ZIC0TSI                               FRI 09/05/97 11:49 Page:52
      131     6168    3           CASE (1); /* Schema option */

      132     6169    3               PTR_SCHEMA = ADDR(SSTRANS.SNAME);

   6169 28 000256   000015 236000 29                 LDQ     13
        28 000257   000000 756000 24                 STQ     PTR_SCHEMA

      133     6170    3               END;

   6170 28 000260   002252 710000 28                 TRA     s:6559

      134     6171         %EJECT;
PL6.E3A0      #001=ZIG$DDS4 File=ZIG$DDS4.:ZIC0TSI                               FRI 09/05/97 11:49 Page:53
      135     6172    2       CASE (2);

      136     6173    3           DO CASE (BLK.CODE-200);

   6173 28 000261   000000 236100                    LDQ     0,,PR0
        28 000262   777777 376007                    ANQ     -1,DL
        28 000263   000310 136007                    SBLQ    200,DL
        28 000264   000063 116007                    CMPQ    51,DL
        28 000265   000267 602006 28                 TNC     s:6173+6,QL
        28 000266   002252 710000 28                 TRA     s:6559
        28 000267   000352 710000 28                 TRA     s:6175
        28 000270   000464 710000 28                 TRA     s:6211
        28 000271   000464 710000 28                 TRA     s:6211
        28 000272   000373 710000 28                 TRA     s:6185
        28 000273   000464 710000 28                 TRA     s:6211
        28 000274   000403 710000 28                 TRA     s:6189
        28 000275   000406 710000 28                 TRA     s:6191
        28 000276   000430 710000 28                 TRA     s:6197
        28 000277   000464 710000 28                 TRA     s:6211
        28 000300   000433 710000 28                 TRA     s:6199
        28 000301   000464 710000 28                 TRA     s:6211
        28 000302   000464 710000 28                 TRA     s:6211
        28 000303   000464 710000 28                 TRA     s:6211
        28 000304   000464 710000 28                 TRA     s:6211
        28 000305   000464 710000 28                 TRA     s:6211
        28 000306   000464 710000 28                 TRA     s:6211
        28 000307   000464 710000 28                 TRA     s:6211
        28 000310   000464 710000 28                 TRA     s:6211
        28 000311   000464 710000 28                 TRA     s:6211
        28 000312   000464 710000 28                 TRA     s:6211
        28 000313   000464 710000 28                 TRA     s:6211
        28 000314   000464 710000 28                 TRA     s:6211
        28 000315   000464 710000 28                 TRA     s:6211
        28 000316   000464 710000 28                 TRA     s:6211
        28 000317   000464 710000 28                 TRA     s:6211
        28 000320   000464 710000 28                 TRA     s:6211
        28 000321   000464 710000 28                 TRA     s:6211
PL6.E3A0      #001=ZIG$DDS4 File=ZIG$DDS4.:ZIC0TSI                               FRI 09/05/97 11:49 Page:54
        28 000322   000464 710000 28                 TRA     s:6211
        28 000323   000464 710000 28                 TRA     s:6211
        28 000324   000464 710000 28                 TRA     s:6211
        28 000325   000464 710000 28                 TRA     s:6211
        28 000326   000464 710000 28                 TRA     s:6211
        28 000327   000464 710000 28                 TRA     s:6211
        28 000330   000464 710000 28                 TRA     s:6211
        28 000331   000464 710000 28                 TRA     s:6211
        28 000332   000464 710000 28                 TRA     s:6211
        28 000333   000464 710000 28                 TRA     s:6211
        28 000334   000464 710000 28                 TRA     s:6211
        28 000335   000464 710000 28                 TRA     s:6211
        28 000336   000464 710000 28                 TRA     s:6211
        28 000337   000464 710000 28                 TRA     s:6211
        28 000340   000464 710000 28                 TRA     s:6211
        28 000341   000464 710000 28                 TRA     s:6211
        28 000342   000464 710000 28                 TRA     s:6211
        28 000343   000464 710000 28                 TRA     s:6211
        28 000344   000464 710000 28                 TRA     s:6211
        28 000345   000464 710000 28                 TRA     s:6211
        28 000346   000464 710000 28                 TRA     s:6211
        28 000347   000464 710000 28                 TRA     s:6211
        28 000350   000464 710000 28                 TRA     s:6211
        28 000351   000436 710000 28                 TRA     s:6201

      137     6174    3           CASE(0); /* Purge */

      138     6175    3               PURGE.STATUS = '000'B;

   6175 28 000352   000006 236000 29                 LDQ     6
        28 000353   000000 356000 14                 ANSQ    PURGE

      139     6176    3               PURGE.TYPE = '0000'B;

   6176 28 000354   000016 236000 29                 LDQ     14
        28 000355   000000 356000 14                 ANSQ    PURGE

PL6.E3A0      #001=ZIG$DDS4 File=ZIG$DDS4.:ZIC0TSI                               FRI 09/05/97 11:49 Page:55
      140     6177    3               PURGE.SDICT_SSNAMES = '00'B;

   6177 28 000356   000017 236000 29                 LDQ     15
        28 000357   000000 356000 14                 ANSQ    PURGE

      141     6178    3               PURGE.SACTS_RET_DATE = ' ';

   6178 28 000360   040000 100400                    MLR     fill='040'O
        28 000361   000010 000001 29                 ADSC9   8                        cn=0,n=1
        28 000362   000001 000006 14                 ADSC9   PURGE+1                  cn=0,n=6

      142     6179    3               PURGE.ALTER_KEY = '"NULL"';

   6179 28 000363   040000 100400                    MLR     fill='040'O
        28 000364   000004 000006 0                  ADSC9   ACCTNAME+4               cn=0,n=6
        28 000365   000002 400014 14                 ADSC9   PURGE+2                  cn=2,n=12

      143     6180    3               PTR_SCHEMA =ADDR(PURGE.SNAME);

   6180 28 000366   000020 236000 29                 LDQ     16
        28 000367   000000 756000 24                 STQ     PTR_SCHEMA

      144     6181    3               J = 9;

   6181 28 000370   000011 235007                    LDA     9,DL
        28 000371   000000 755000 23                 STA     J
        28 000372   002252 710000 28                 TRA     s:6559

      145     6182    3           CASE (1); /* Purge option */

      146     6183    3           CASE (2); /* Retention */

      147     6184    3           CASE (3); /* Year */

      148     6185    3               PURGE.SACTS_RET_DATE = BLK.SUBLK$(0) -> SYM.TEXT;

   6185 28 000373   000003 471500                    LDP1    3,,PR0
PL6.E3A0      #001=ZIG$DDS4 File=ZIG$DDS4.:ZIC0TSI                               FRI 09/05/97 11:49 Page:56
        28 000374   100004 236100                    LDQ     4,,PR1
        28 000375   000033 772000                    QRL     27
        28 000376   000000 620006                    EAX0    0,QL
        28 000377   040000 100540                    MLR     fill='040'O
        28 000400   100004 200010                    ADSC9   4,,PR1                   cn=1,n=*X0
        28 000401   000001 000006 14                 ADSC9   PURGE+1                  cn=0,n=6

      149     6186    3               RETURN;

   6186 28 000402   000000 702200 xent               TSX2  ! X66_ARET

      150     6187    3           CASE (4); /* Subschema name */

      151     6188    3           CASE (5); /* Privacy key */

      152     6189    3               PTR_PRIVACY_KEY = ADDR(PURGE.ALTER_KEY);

   6189 28 000403   000021 236000 29                 LDQ     17
        28 000404   000000 756000 26                 STQ     PTR_PRIVACY_KEY
        28 000405   002252 710000 28                 TRA     s:6559

      153     6190    3           CASE (6); /* Subschema names */

      154     6191    3               PURGE_DESC.SS_NAMES = BLK.SUBLK$(0) -> OUT.SUBLK$(0) ->

   6191 28 000406   000003 471500                    LDP1    3,,PR0
        28 000407   100003 473500                    LDP3    3,,PR1
        28 000410   300003 474500                    LDP4    3,,PR3
        28 000411   400004 236100                    LDQ     4,,PR4
        28 000412   000033 772000                    QRL     27
        28 000413   000000 620006                    EAX0    0,QL
        28 000414   040000 100540                    MLR     fill='040'O
        28 000415   400004 200010                    ADSC9   4,,PR4                   cn=1,n=*X0
        28 000416   000000 000036 12                 ADSC9   DESC                     cn=0,n=30

      155     6192    3                  OUT.SUBLK$(0) -> SYM.TEXT;
      156     6193    3               CALL PUT_TO_FILE (ADDR(PURGE_DESC));
PL6.E3A0      #001=ZIG$DDS4 File=ZIG$DDS4.:ZIC0TSI                               FRI 09/05/97 11:49 Page:57

   6193 28 000417   000022 236000 29                 LDQ     18
        28 000420   200015 756100                    STQ     @PTR_OUT+4,,AUTO
        28 000421   200015 631500                    EPPR1   @PTR_OUT+4,,AUTO
        28 000422   200011 451500                    STP1    K+3,,AUTO
        28 000423   000003 701000 28                 TSX1    PUT_TO_FILE
        28 000424   000000 011000                    NOP     0

      157     6194    3               PURGE.SDICT_SSNAMES.SSNAMES = '1'B;

   6194 28 000425   001000 236003                    LDQ     512,DU
        28 000426   000000 256000 14                 ORSQ    PURGE

      158     6195    3               RETURN;

   6195 28 000427   000000 702200 xent               TSX2  ! X66_ARET

      159     6196    3           CASE (7); /* All schema names */

      160     6197    3               PURGE.SDICT_SSNAMES.ALL = '1'B;

   6197 28 000430   002000 236003                    LDQ     1024,DU
        28 000431   000000 256000 14                 ORSQ    PURGE
        28 000432   002252 710000 28                 TRA     s:6559

      161     6198    3           CASE (9); /* PURGE subschema ACTIVITIES */

      162     6199    3               J = 12; /* Set j to show that we have subschema purge. */

   6199 28 000433   000014 235007                    LDA     12,DL
        28 000434   000000 755000 23                 STA     J
        28 000435   002252 710000 28                 TRA     s:6559

      163     6200    3           CASE (50); /* REPLACE schema subset shared file */

      164     6201    3               J = 13;

PL6.E3A0      #001=ZIG$DDS4 File=ZIG$DDS4.:ZIC0TSI                               FRI 09/05/97 11:49 Page:58
   6201 28 000436   000015 235007                    LDA     13,DL
        28 000437   000000 755000 23                 STA     J

      165     6202    3               PTR_SUBSCHEMA = ADDR(VALIDS.SSNAME);

   6202 28 000440   000023 236000 29                 LDQ     19
        28 000441   000000 756000 25                 STQ     PTR_SUBSCHEMA

      166     6203    3               VALIDS.STATUS = '000'B;

   6203 28 000442   000006 236000 29                 LDQ     6
        28 000443   000000 356000 17                 ANSQ    VALIDS

      167     6204    3               VALIDS.COPY_LOCK = '0'B;

   6204 28 000444   000024 236000 29                 LDQ     20
        28 000445   000000 356000 17                 ANSQ    VALIDS

      168     6205    3               VALIDS.DIAG_LOCK = '0'B;

   6205 28 000446   000025 236000 29                 LDQ     21
        28 000447   000000 356000 17                 ANSQ    VALIDS

      169     6206    3               VALIDS.MODE = '0'B;

   6206 28 000450   000026 236000 29                 LDQ     22
        28 000451   000000 356000 17                 ANSQ    VALIDS

      170     6207    3               VALIDS.GEN_RVA = '0'B;

   6207 28 000452   000027 236000 29                 LDQ     23
        28 000453   000000 356000 17                 ANSQ    VALIDS

      171     6208    3               VALIDS.COPY_KEY = '"NULL"';

   6208 28 000454   040000 100400                    MLR     fill='040'O
        28 000455   000004 000006 0                  ADSC9   ACCTNAME+4               cn=0,n=6
PL6.E3A0      #001=ZIG$DDS4 File=ZIG$DDS4.:ZIC0TSI                               FRI 09/05/97 11:49 Page:59
        28 000456   000001 000014 17                 ADSC9   VALIDS+1                 cn=0,n=12

      172     6209    3               VALIDS.DIAG_KEY = '"NULL"';

   6209 28 000457   040000 100400                    MLR     fill='040'O
        28 000460   000004 000006 0                  ADSC9   ACCTNAME+4               cn=0,n=6
        28 000461   000004 000014 17                 ADSC9   VALIDS+4                 cn=0,n=12

      173     6210    3               PTR_SCHEMA = ADDR(VALIDS.SNAME);

   6210 28 000462   000030 236000 29                 LDQ     24
        28 000463   000000 756000 24                 STQ     PTR_SCHEMA

      174     6211    3               END;

   6211 28 000464   002252 710000 28                 TRA     s:6559

      175     6212         %EJECT;
PL6.E3A0      #001=ZIG$DDS4 File=ZIG$DDS4.:ZIC0TSI                               FRI 09/05/97 11:49 Page:60
      176     6213    2       CASE (3);

      177     6214    3           DO CASE (BLK.CODE-300);

   6214 28 000465   000000 236100                    LDQ     0,,PR0
        28 000466   777777 376007                    ANQ     -1,DL
        28 000467   000454 136007                    SBLQ    300,DL
        28 000470   000006 116007                    CMPQ    6,DL
        28 000471   000473 602006 28                 TNC     s:6214+6,QL
        28 000472   002252 710000 28                 TRA     s:6559
        28 000473   000501 710000 28                 TRA     s:6216
        28 000474   000513 710000 28                 TRA     s:6221
        28 000475   000516 710000 28                 TRA     s:6223
        28 000476   000524 710000 28                 TRA     s:6227
        28 000477   000527 710000 28                 TRA     s:6229
        28 000500   000532 710000 28                 TRA     s:6231

      178     6215    3           CASE (0); /* Translate ddl */

      179     6216    3               STRAN.STATUS = '000'B;

   6216 28 000501   000006 236000 29                 LDQ     6
        28 000502   000000 356000 19                 ANSQ    STRAN

      180     6217    3               STRAN.XREF = '1'B;

   6217 28 000503   040000 236003                    LDQ     16384,DU
        28 000504   000000 256000 19                 ORSQ    STRAN

      181     6218    3               STRAN.SNAME = OLD_SCHEMA_NAME;

   6218 28 000505   040000 100400                    MLR     fill='040'O
        28 000506   000000 000036 2                  ADSC9   OLD_SCHEMA_NAME          cn=0,n=30
        28 000507   000001 000036 19                 ADSC9   STRAN+1                  cn=0,n=30

      182     6219    3               J = 3;

PL6.E3A0      #001=ZIG$DDS4 File=ZIG$DDS4.:ZIC0TSI                               FRI 09/05/97 11:49 Page:61
   6219 28 000510   000003 235007                    LDA     3,DL
        28 000511   000000 755000 23                 STA     J
        28 000512   002252 710000 28                 TRA     s:6559

      183     6220    3           CASE (1); /* No xref */;

      184     6221    3               STRAN.XREF = '0'B;

   6221 28 000513   000031 236000 29                 LDQ     25
        28 000514   000000 356000 19                 ANSQ    STRAN
        28 000515   002252 710000 28                 TRA     s:6559

      185     6222    3           CASE (2); /* Defaults for PAGE options */

      186     6223    3               STRAN.ALLOC_PG = '0'B;

   6223 28 000516   000032 236000 29                 LDQ     26
        28 000517   000000 356000 19                 ANSQ    STRAN

      187     6224    3               STRAN.ADD_PG = '0'B;

   6224 28 000520   000024 236000 29                 LDQ     20
        28 000521   000000 356000 19                 ANSQ    STRAN

      188     6225    3               STRAN.NUM_PG = 0;

   6225 28 000522   000011 450000 19                 STZ     STRAN+9
        28 000523   002252 710000 28                 TRA     s:6559

      189     6226    3           CASE (3); /* ALLOCATE num_pg PAGES */

      190     6227    3               STRAN.ALLOC_PG = '1'B;

   6227 28 000524   020000 236003                    LDQ     8192,DU
        28 000525   000000 256000 19                 ORSQ    STRAN
        28 000526   002252 710000 28                 TRA     s:6559

PL6.E3A0      #001=ZIG$DDS4 File=ZIG$DDS4.:ZIC0TSI                               FRI 09/05/97 11:49 Page:62
      191     6228    3           CASE (4); /* ADD num_pg PAGES */

      192     6229    3               STRAN.ADD_PG = '1'B;

   6229 28 000527   010000 236003                    LDQ     4096,DU
        28 000530   000000 256000 19                 ORSQ    STRAN
        28 000531   002252 710000 28                 TRA     s:6559

      193     6230    3           CASE (5); /* num_pg */

      194     6231    3               CALL CHARBIN(STRAN.NUM_PG,ADDR(BLK)->SYM.TEXT);

   6231 28 000532   000004 236100                    LDQ     4,,PR0
        28 000533   000033 772000                    QRL     27
        28 000534   000000 620006                    EAX0    0,QL
        28 000535   000100 305540                    DTB
        28 000536   000004 230010                    NDSC9   4,,PR0                   cn=1,s=nosgn,sf=0,n=*X0
        28 000537   200012 000010                    NDSC9   @PTR_OUT+1,,AUTO         cn=0,s=lsgnf,sf=0,n=8
        28 000540   200013 235100                    LDA     @PTR_OUT+2,,AUTO
        28 000541   000011 755000 19                 STA     STRAN+9

      195     6232    3               RETURN;

   6232 28 000542   000000 702200 xent               TSX2  ! X66_ARET

      196     6233    3               END;

      197     6234         %EJECT;
PL6.E3A0      #001=ZIG$DDS4 File=ZIG$DDS4.:ZIC0TSI                               FRI 09/05/97 11:49 Page:63
      198     6235    2       CASE (4);

      199     6236    3           DO CASE(BLK.CODE-400);

   6236 28 000543   000000 236100                    LDQ     0,,PR0
        28 000544   777777 376007                    ANQ     -1,DL
        28 000545   000620 136007                    SBLQ    400,DL
        28 000546   000006 116007                    CMPQ    6,DL
        28 000547   000551 602006 28                 TNC     s:6236+6,QL
        28 000550   002252 710000 28                 TRA     s:6559
        28 000551   000557 710000 28                 TRA     s:6239
        28 000552   000575 710000 28                 TRA     s:6246
        28 000553   000600 710000 28                 TRA     s:6248
        28 000554   000603 710000 28                 TRA     s:6250
        28 000555   000612 710000 28                 TRA     s:6256
        28 000556   000615 710000 28                 TRA     s:6258

      200     6237    3           CASE (0); /* Translate dmcl */

      201     6238         /* Translate dmcl */
      202     6239    3               DTRAN.STATUS = '000'B;

   6239 28 000557   000006 236000 29                 LDQ     6
        28 000560   000000 356000 20                 ANSQ    DTRAN

      203     6240    3               DTRAN.DATA = '1'B;

   6240 28 000561   040000 236003                    LDQ     16384,DU
        28 000562   000000 256000 20                 ORSQ    DTRAN

      204     6241    3               DTRAN.STORAGE = '1'B;

   6241 28 000563   020000 236003                    LDQ     8192,DU
        28 000564   000000 256000 20                 ORSQ    DTRAN

      205     6242    3               DTRAN.ALTER_MODE = '0'B;

PL6.E3A0      #001=ZIG$DDS4 File=ZIG$DDS4.:ZIC0TSI                               FRI 09/05/97 11:49 Page:64
   6242 28 000565   000024 236000 29                 LDQ     20
        28 000566   000000 356000 20                 ANSQ    DTRAN

      206     6243    3               DTRAN.SNAME = OLD_SCHEMA_NAME;

   6243 28 000567   040000 100400                    MLR     fill='040'O
        28 000570   000000 000036 2                  ADSC9   OLD_SCHEMA_NAME          cn=0,n=30
        28 000571   000004 000036 20                 ADSC9   DTRAN+4                  cn=0,n=30

      207     6244    3               J=4;

   6244 28 000572   000004 235007                    LDA     4,DL
        28 000573   000000 755000 23                 STA     J
        28 000574   002252 710000 28                 TRA     s:6559

      208     6245    3           CASE (1); /* Alter mode */

      209     6246    3               DTRAN.ALTER_MODE = '1'B;

   6246 28 000575   010000 236003                    LDQ     4096,DU
        28 000576   000000 256000 20                 ORSQ    DTRAN
        28 000577   002252 710000 28                 TRA     s:6559

      210     6247    3           CASE (2); /* Privacy key */

      211     6248    3               PTR_PRIVACY_KEY = ADDR(DTRAN.ALTER_KEY);

   6248 28 000600   000033 236000 29                 LDQ     27
        28 000601   000000 756000 26                 STQ     PTR_PRIVACY_KEY
        28 000602   002252 710000 28                 TRA     s:6559

      212     6249    3           CASE (3); /* Report options */

      213     6250    3               IF BLK.NSUBLKS = 0

   6250 28 000603   000001 220100                    LDX0    1,,PR0
        28 000604   002252 601000 28                 TNZ     s:6559
PL6.E3A0      #001=ZIG$DDS4 File=ZIG$DDS4.:ZIC0TSI                               FRI 09/05/97 11:49 Page:65

      214     6251    4               THEN DO;

      215     6252    4                   DTRAN.DATA = '0'B;

   6252 28 000605   000031 236000 29                 LDQ     25
        28 000606   000000 356000 20                 ANSQ    DTRAN

      216     6253    4                   DTRAN.STORAGE = '0'B;

   6253 28 000607   000032 236000 29                 LDQ     26
        28 000610   000000 356000 20                 ANSQ    DTRAN

      217     6254    4                   END;

   6254 28 000611   002252 710000 28                 TRA     s:6559

      218     6255    3           CASE (4); /* No data structures */

      219     6256    3               DTRAN.DATA = '0'B;

   6256 28 000612   000031 236000 29                 LDQ     25
        28 000613   000000 356000 20                 ANSQ    DTRAN
        28 000614   002252 710000 28                 TRA     s:6559

      220     6257    3           CASE (5); /* No storage structures */

      221     6258    3               DTRAN.STORAGE = '0'B;

   6258 28 000615   000032 236000 29                 LDQ     26
        28 000616   000000 356000 20                 ANSQ    DTRAN

      222     6259    3               END;

   6259 28 000617   002252 710000 28                 TRA     s:6559

      223     6260         %EJECT;
PL6.E3A0      #001=ZIG$DDS4 File=ZIG$DDS4.:ZIC0TSI                               FRI 09/05/97 11:49 Page:66
      224     6261    2       CASE (5);

      225     6262    3           DO CASE (BLK.CODE-500);

   6262 28 000620   000000 236100                    LDQ     0,,PR0
        28 000621   777777 376007                    ANQ     -1,DL
        28 000622   000764 136007                    SBLQ    500,DL
        28 000623   000040 116007                    CMPQ    32,DL
        28 000624   000626 602006 28                 TNC     s:6262+6,QL
        28 000625   002252 710000 28                 TRA     s:6559
        28 000626   000666 710000 28                 TRA     s:6264
        28 000627   001054 710000 28                 TRA     s:6330
        28 000630   000712 710000 28                 TRA     s:6274
        28 000631   000715 710000 28                 TRA     s:6276
        28 000632   000720 710000 28                 TRA     s:6278
        28 000633   000723 710000 28                 TRA     s:6285
        28 000634   000723 710000 28                 TRA     s:6285
        28 000635   000723 710000 28                 TRA     s:6285
        28 000636   000723 710000 28                 TRA     s:6285
        28 000637   000740 710000 28                 TRA     s:6289
        28 000640   001003 710000 28                 TRA     s:6307
        28 000641   001054 710000 28                 TRA     s:6330
        28 000642   001054 710000 28                 TRA     s:6330
        28 000643   001054 710000 28                 TRA     s:6330
        28 000644   001054 710000 28                 TRA     s:6330
        28 000645   001054 710000 28                 TRA     s:6330
        28 000646   001054 710000 28                 TRA     s:6330
        28 000647   001022 710000 28                 TRA     s:6317
        28 000650   001025 710000 28                 TRA     s:6319
        28 000651   001030 710000 28                 TRA     s:6321
        28 000652   001036 710000 28                 TRA     s:6325
        28 000653   001033 710000 28                 TRA     s:6323
        28 000654   001054 710000 28                 TRA     s:6330
        28 000655   001054 710000 28                 TRA     s:6330
        28 000656   001054 710000 28                 TRA     s:6330
        28 000657   001054 710000 28                 TRA     s:6330
        28 000660   001054 710000 28                 TRA     s:6330
PL6.E3A0      #001=ZIG$DDS4 File=ZIG$DDS4.:ZIC0TSI                               FRI 09/05/97 11:49 Page:67
        28 000661   001054 710000 28                 TRA     s:6330
        28 000662   001054 710000 28                 TRA     s:6330
        28 000663   001054 710000 28                 TRA     s:6330
        28 000664   001047 710000 28                 TRA     s:6327
        28 000665   001052 710000 28                 TRA     s:6329

      226     6263    3           CASE (0); /* Generate */

      227     6264    3               J = 11;

   6264 28 000666   000013 235007                    LDA     11,DL
        28 000667   000000 755000 23                 STA     J

      228     6265    3               SSGEN.STATUS = '000'B;

   6265 28 000670   000006 236000 29                 LDQ     6
        28 000671   000000 356000 22                 ANSQ    SSGEN

      229     6266    3               SSGEN.ALIAS_NAMES = '0'B;

   6266 28 000672   000031 236000 29                 LDQ     25
        28 000673   000000 356000 22                 ANSQ    SSGEN

      230     6267    3               SSGEN.COPY_FILE_CODE = 'SO';

   6267 28 000674   000003 236000 0                  LDQ     ACCTNAME+3
        28 000675   000011 772000                    QRL     9
        28 000676   000000 552030 22                 STBQ    SSGEN,'30'O

      231     6268    3               SSGEN.DISP_KEY = '"NULL"';

   6268 28 000677   040000 100400                    MLR     fill='040'O
        28 000700   000004 000006 0                  ADSC9   ACCTNAME+4               cn=0,n=6
        28 000701   000000 600014 22                 ADSC9   SSGEN                    cn=3,n=12

      232     6269    3               SSGEN.SNAME = ' ';

PL6.E3A0      #001=ZIG$DDS4 File=ZIG$DDS4.:ZIC0TSI                               FRI 09/05/97 11:49 Page:68
   6269 28 000702   040000 100400                    MLR     fill='040'O
        28 000703   000010 000001 29                 ADSC9   8                        cn=0,n=1
        28 000704   000013 200036 22                 ADSC9   SSGEN+11                 cn=1,n=30

      233     6270    3               SSGEN.MAP = '0'B; /* Default for DECIMAL mapping */

   6270 28 000705   000034 236000 29                 LDQ     28
        28 000706   000022 356000 22                 ANSQ    SSGEN+18

      234     6271    3               PTR_SUBSCHEMA=ADDR(SSGEN.SSNAME);

   6271 28 000707   000035 236000 29                 LDQ     29
        28 000710   000000 756000 25                 STQ     PTR_SUBSCHEMA
        28 000711   002252 710000 28                 TRA     s:6559

      235     6272    3           CASE (1); /* Copy option */

      236     6273    3           CASE (2); /* Schema name */

      237     6274    3               PTR_SCHEMA = ADDR(SSGEN.SNAME);

   6274 28 000712   000036 236000 29                 LDQ     30
        28 000713   000000 756000 24                 STQ     PTR_SCHEMA
        28 000714   002252 710000 28                 TRA     s:6559

      238     6275    3           CASE (3); /* Rename option */

      239     6276    3               SSGEN.ALIAS_NAMES = '1'B;

   6276 28 000715   040000 236003                    LDQ     16384,DU
        28 000716   000000 256000 22                 ORSQ    SSGEN
        28 000717   002252 710000 28                 TRA     s:6559

      240     6277    3           CASE (4); /* Privacy display key */

      241     6278    3               PTR_PRIVACY_KEY = ADDR(SSGEN.DISP_KEY);

PL6.E3A0      #001=ZIG$DDS4 File=ZIG$DDS4.:ZIC0TSI                               FRI 09/05/97 11:49 Page:69
   6278 28 000720   000037 236000 29                 LDQ     31
        28 000721   000000 756000 26                 STQ     PTR_PRIVACY_KEY
        28 000722   002252 710000 28                 TRA     s:6559

      242     6279    3           CASE (5,6,7,8);

      243     6280         /*   505 = AREA_NAME
      244     6281            506 = SET_NAME
      245     6282            507 = KEY_NAME
      246     6283            508 = RECORD_NAME
      247     6284            509 = DATA_NAME */
      248     6285    3               SSGEN_DESC.ALIAS_TYPE=ADDR(BLK) -> SYM.CODE -504;

   6285 28 000723   000000 236100                    LDQ     0,,PR0
        28 000724   777777 376007                    ANQ     -1,DL
        28 000725   000770 136007                    SBLQ    504,DL
        28 000726   000000 756000 12                 STQ     DESC

      249     6286    3               SSGEN_DESC.S.NAME=BLK.SUBLK$(0) -> OUT.SUBLK$(0) -> SYM.TEXT;

   6286 28 000727   000003 471500                    LDP1    3,,PR0
        28 000730   100003 473500                    LDP3    3,,PR1
        28 000731   300004 236100                    LDQ     4,,PR3
        28 000732   000033 772000                    QRL     27
        28 000733   000000 620006                    EAX0    0,QL
        28 000734   040000 100540                    MLR     fill='040'O
        28 000735   300004 200010                    ADSC9   4,,PR3                   cn=1,n=*X0
        28 000736   000010 400036 12                 ADSC9   DESC+8                   cn=2,n=30

      250     6287    3               RETURN;

   6287 28 000737   000000 702200 xent               TSX2  ! X66_ARET

      251     6288    3           CASE (9) /* DATA NAMES */;

      252     6289    3               SSGEN_DESC.ALIAS_TYPE=5; /* DATA NAME */

PL6.E3A0      #001=ZIG$DDS4 File=ZIG$DDS4.:ZIC0TSI                               FRI 09/05/97 11:49 Page:70
   6289 28 000740   000005 235007                    LDA     5,DL
        28 000741   000000 755000 12                 STA     DESC

      253     6290    3               SSGEN_DESC.S.QUAL = ' ';

   6290 28 000742   040000 100400                    MLR     fill='040'O
        28 000743   000010 000001 29                 ADSC9   8                        cn=0,n=1
        28 000744   000001 000036 12                 ADSC9   DESC+1                   cn=0,n=30

      254     6291    3               IF BLK.NSUBLKS<2

   6291 28 000745   000001 220100                    LDX0    1,,PR0
        28 000746   000002 100003                    CMPX0   2,DU
        28 000747   000761 603000 28                 TRC     s:6297

      255     6292    4               THEN DO;

      256     6293    4                   SSGEN_DESC.S.NAME=BLK.SUBLK$(0)->

   6293 28 000750   000003 471500                    LDP1    3,,PR0
        28 000751   100003 473500                    LDP3    3,,PR1
        28 000752   300004 236100                    LDQ     4,,PR3
        28 000753   000033 772000                    QRL     27
        28 000754   000000 621006                    EAX1    0,QL
        28 000755   040000 100540                    MLR     fill='040'O
        28 000756   300004 200011                    ADSC9   4,,PR3                   cn=1,n=*X1
        28 000757   000010 400036 12                 ADSC9   DESC+8                   cn=2,n=30

      257     6294    4                      OUT.SUBLK$(0) -> SYM.TEXT;
      258     6295    4                   END;

   6295 28 000760   001002 710000 28                 TRA     s:6305

      259     6296    4               ELSE DO;

      260     6297    4                   SSGEN_DESC.S.NAME=BLK.SUBLK$(1) ->

PL6.E3A0      #001=ZIG$DDS4 File=ZIG$DDS4.:ZIC0TSI                               FRI 09/05/97 11:49 Page:71
   6297 28 000761   000004 471500                    LDP1    4,,PR0
        28 000762   100003 473500                    LDP3    3,,PR1
        28 000763   300004 236100                    LDQ     4,,PR3
        28 000764   000033 772000                    QRL     27
        28 000765   000000 621006                    EAX1    0,QL
        28 000766   040000 100540                    MLR     fill='040'O
        28 000767   300004 200011                    ADSC9   4,,PR3                   cn=1,n=*X1
        28 000770   000010 400036 12                 ADSC9   DESC+8                   cn=2,n=30

      261     6298    4                      OUT.SUBLK$(0) -> SYM.TEXT;
      262     6299         /*
      263     6300            THERE WAS A QUALIFIED DATA NAME GIVEN
      264     6301         */
      265     6302    4                   SSGEN_DESC.S.QUAL=BLK.SUBLK$(0) ->

   6302 28 000771   000003 471500                    LDP1    3,,PR0
        28 000772   100003 473500                    LDP3    3,,PR1
        28 000773   300003 474500                    LDP4    3,,PR3
        28 000774   400004 236100                    LDQ     4,,PR4
        28 000775   000033 772000                    QRL     27
        28 000776   000000 620006                    EAX0    0,QL
        28 000777   040000 100540                    MLR     fill='040'O
        28 001000   400004 200010                    ADSC9   4,,PR4                   cn=1,n=*X0
        28 001001   000001 000036 12                 ADSC9   DESC+1                   cn=0,n=30

      266     6303    4                      OUT.SUBLK$(0) -> OUT.SUBLK$(0) -> SYM.TEXT;
      267     6304    4                   END;

      268     6305    3               RETURN;

   6305 28 001002   000000 702200 xent               TSX2  ! X66_ARET

      269     6306    3           CASE (10); /* Alias name */

      270     6307    3               SSGEN_DESC.SS.NAME=BLK.SUBLK$(0) -> OUT.SUBLK$(0) -> SYM.TEXT;

   6307 28 001003   000003 471500                    LDP1    3,,PR0
PL6.E3A0      #001=ZIG$DDS4 File=ZIG$DDS4.:ZIC0TSI                               FRI 09/05/97 11:49 Page:72
        28 001004   100003 473500                    LDP3    3,,PR1
        28 001005   300004 236100                    LDQ     4,,PR3
        28 001006   000033 772000                    QRL     27
        28 001007   000000 620006                    EAX0    0,QL
        28 001010   040000 100540                    MLR     fill='040'O
        28 001011   300004 200010                    ADSC9   4,,PR3                   cn=1,n=*X0
        28 001012   000020 000036 12                 ADSC9   DESC+16                  cn=0,n=30

      271     6308    3               CALL PUT_TO_FILE(ADDR(SSGEN_DESC));

   6308 28 001013   000022 236000 29                 LDQ     18
        28 001014   200016 756100                    STQ     @PTR_OUT+5,,AUTO
        28 001015   200016 631500                    EPPR1   @PTR_OUT+5,,AUTO
        28 001016   200011 451500                    STP1    K+3,,AUTO
        28 001017   000003 701000 28                 TSX1    PUT_TO_FILE
        28 001020   000000 011000                    NOP     0

      272     6309    3               RETURN;

   6309 28 001021   000000 702200 xent               TSX2  ! X66_ARET

      273     6310    3           CASE (11); /* Generate options */

      274     6311    3           CASE (12,13,14,15,16) /* In rename option */;

      275     6312        /*
      276     6313            THIS NEXT THREE ALSO ARE USED IN THE TRANSLATION COMANDS FOR
      277     6314          SUBSCHEMAS.
      278     6315        */
      279     6316    3           CASE (17) /* COBOL */;

      280     6317    3               SUB_LANGUAGE=#COBOL;

   6317 28 001022   000001 235007                    LDA     1,DL
        28 001023   000000 755000 7                  STA     SUB_LANGUAGE
        28 001024   002252 710000 28                 TRA     s:6559

PL6.E3A0      #001=ZIG$DDS4 File=ZIG$DDS4.:ZIC0TSI                               FRI 09/05/97 11:49 Page:73
      281     6318    3           CASE (18) /* FORTRAN */;

      282     6319    3               SUB_LANGUAGE=#FORTRAN;

   6319 28 001025   000002 235007                    LDA     2,DL
        28 001026   000000 755000 7                  STA     SUB_LANGUAGE
        28 001027   002252 710000 28                 TRA     s:6559

      283     6320    3           CASE (19) /* APL */;

      284     6321    3               SUB_LANGUAGE= #APL;

   6321 28 001030   000003 235007                    LDA     3,DL
        28 001031   000000 755000 7                  STA     SUB_LANGUAGE
        28 001032   002252 710000 28                 TRA     s:6559

      285     6322    3           CASE (21) /* BASIC */;

      286     6323    3               SUB_LANGUAGE= #BASIC;

   6323 28 001033   000004 235007                    LDA     4,DL
        28 001034   000000 755000 7                  STA     SUB_LANGUAGE
        28 001035   002252 710000 28                 TRA     s:6559

      287     6324    3           CASE (20) /* SET QUAL TO CORRECT NAME */;

      288     6325    3               SSGEN_DESC.S.QUAL=BLK.SUBLK$(0)->OUT.SUBLK$(0)-> SYM.TEXT;

   6325 28 001036   000003 471500                    LDP1    3,,PR0
        28 001037   100003 473500                    LDP3    3,,PR1
        28 001040   300004 236100                    LDQ     4,,PR3
        28 001041   000033 772000                    QRL     27
        28 001042   000000 620006                    EAX0    0,QL
        28 001043   040000 100540                    MLR     fill='040'O
        28 001044   300004 200010                    ADSC9   4,,PR3                   cn=1,n=*X0
        28 001045   000001 000036 12                 ADSC9   DESC+1                   cn=0,n=30
        28 001046   002252 710000 28                 TRA     s:6559
PL6.E3A0      #001=ZIG$DDS4 File=ZIG$DDS4.:ZIC0TSI                               FRI 09/05/97 11:49 Page:74

      289     6326    3           CASE (30); /* REAL mapping */

      290     6327    3               SSGEN.MAP = '0'B;

   6327 28 001047   000034 236000 29                 LDQ     28
        28 001050   000022 356000 22                 ANSQ    SSGEN+18
        28 001051   002252 710000 28                 TRA     s:6559

      291     6328    3           CASE (31); /* DOUBLE PRECISION mapping */

      292     6329    3               SSGEN.MAP = '1'B;

   6329 28 001052   000400 236007                    LDQ     256,DL
        28 001053   000022 256000 22                 ORSQ    SSGEN+18

      293     6330    3               END;

   6330 28 001054   002252 710000 28                 TRA     s:6559

      294     6331         %EJECT;
PL6.E3A0      #001=ZIG$DDS4 File=ZIG$DDS4.:ZIC0TSI                               FRI 09/05/97 11:49 Page:75
      295     6332    2       CASE (6);

      296     6333    3           DO CASE (BLK.CODE-600);

   6333 28 001055   000000 236100                    LDQ     0,,PR0
        28 001056   777777 376007                    ANQ     -1,DL
        28 001057   001130 136007                    SBLQ    600,DL
        28 001060   000010 116007                    CMPQ    8,DL
        28 001061   001063 602006 28                 TNC     s:6333+6,QL
        28 001062   002252 710000 28                 TRA     s:6559
        28 001063   001073 710000 28                 TRA     s:6335
        28 001064   001170 710000 28                 TRA     s:6361
        28 001065   001111 710000 28                 TRA     s:6343
        28 001066   001114 710000 28                 TRA     s:6345
        28 001067   001117 710000 28                 TRA     s:6347
        28 001070   001122 710000 28                 TRA     s:6349
        28 001071   001132 710000 28                 TRA     s:6352
        28 001072   001157 710000 28                 TRA     s:6358

      297     6334    3           CASE (0) /* Assign locks */;

      298     6335    3               LOCKS.STATUS = '000'B;

   6335 28 001073   000006 236000 29                 LDQ     6
        28 001074   000000 356000 18                 ANSQ    LOCKS

      299     6336    3               LOCKS.LIST = '1'B;

   6336 28 001075   040000 236003                    LDQ     16384,DU
        28 001076   000000 256000 18                 ORSQ    LOCKS

      300     6337    3               LOCKS.ASSIGNS = '0'B;

   6337 28 001077   000032 236000 29                 LDQ     26
        28 001100   000000 356000 18                 ANSQ    LOCKS

      301     6338    3               LOCKS.LOCKS_KEY = '"NULL"';
PL6.E3A0      #001=ZIG$DDS4 File=ZIG$DDS4.:ZIC0TSI                               FRI 09/05/97 11:49 Page:76

   6338 28 001101   040000 100400                    MLR     fill='040'O
        28 001102   000004 000006 0                  ADSC9   ACCTNAME+4               cn=0,n=6
        28 001103   000001 000014 18                 ADSC9   LOCKS+1                  cn=0,n=12

      302     6339    3               PTR_SCHEMA = ADDR(LOCKS.SNAME);

   6339 28 001104   000040 236000 29                 LDQ     32
        28 001105   000000 756000 24                 STQ     PTR_SCHEMA

      303     6340    3               J = 1;

   6340 28 001106   000001 235007                    LDA     1,DL
        28 001107   000000 755000 23                 STA     J
        28 001110   002252 710000 28                 TRA     s:6559

      304     6341    3           CASE (1) ; /* Options locks */

      305     6342    3           CASE (2); /* Privacy */

      306     6343    3               PTR_PRIVACY_KEY = ADDR(LOCKS.LOCKS_KEY);

   6343 28 001111   000041 236000 29                 LDQ     33
        28 001112   000000 756000 26                 STQ     PTR_PRIVACY_KEY
        28 001113   002252 710000 28                 TRA     s:6559

      307     6344    3           CASE (3); /* No report on locks */

      308     6345    3               LOCKS.LIST = '0'B;

   6345 28 001114   000031 236000 29                 LDQ     25
        28 001115   000000 356000 18                 ANSQ    LOCKS
        28 001116   002252 710000 28                 TRA     s:6559

      309     6346    3           CASE (4); /* Set locks */

      310     6347    3               LOCKS.ASSIGNS = '1'B;
PL6.E3A0      #001=ZIG$DDS4 File=ZIG$DDS4.:ZIC0TSI                               FRI 09/05/97 11:49 Page:77

   6347 28 001117   020000 236003                    LDQ     8192,DU
        28 001120   000000 256000 18                 ORSQ    LOCKS
        28 001121   002252 710000 28                 TRA     s:6559

      311     6348    3           CASE (5); /* Lock name */

      312     6349    3               LOCK_DESC.LOCK_NAME = BLK.SUBLK$(0) -> SYM.TEXT;

   6349 28 001122   000003 471500                    LDP1    3,,PR0
        28 001123   100004 236100                    LDQ     4,,PR1
        28 001124   000033 772000                    QRL     27
        28 001125   000000 620006                    EAX0    0,QL
        28 001126   040000 100540                    MLR     fill='040'O
        28 001127   100004 200010                    ADSC9   4,,PR1                   cn=1,n=*X0
        28 001130   000000 200036 12                 ADSC9   DESC                     cn=1,n=30

      313     6350    3               RETURN;

   6350 28 001131   000000 702200 xent               TSX2  ! X66_ARET

      314     6351    3           CASE (6); /* Lock value */

      315     6352    3               LOCK_DESC.LOCK_VALUE = BLK.SUBLK$(0) -> SYM.TEXT;

   6352 28 001132   000003 471500                    LDP1    3,,PR0
        28 001133   100004 236100                    LDQ     4,,PR1
        28 001134   000033 772000                    QRL     27
        28 001135   000000 620006                    EAX0    0,QL
        28 001136   040000 100540                    MLR     fill='040'O
        28 001137   100004 200010                    ADSC9   4,,PR1                   cn=1,n=*X0
        28 001140   000007 600014 12                 ADSC9   DESC+7                   cn=3,n=12

      316     6353    3               IF BLK.SUBLK$(0) -> SYM.COUNT <13

   6353 28 001141   000003 471500                    LDP1    3,,PR0
        28 001142   100004 236100                    LDQ     4,,PR1
PL6.E3A0      #001=ZIG$DDS4 File=ZIG$DDS4.:ZIC0TSI                               FRI 09/05/97 11:49 Page:78
        28 001143   777000 376003                    ANQ     -512,DU
        28 001144   015000 116003                    CMPQ    6656,DU
        28 001145   001154 603000 28                 TRC     s:6355

      317     6354    3               THEN CALL PUT_TO_FILE(ADDR(LOCK_DESC));

   6354 28 001146   000022 236000 29                 LDQ     18
        28 001147   200017 756100                    STQ     @PTR_OUT+6,,AUTO
        28 001150   200017 631500                    EPPR1   @PTR_OUT+6,,AUTO
        28 001151   200011 451500                    STP1    K+3,,AUTO
        28 001152   000003 701000 28                 TSX1    PUT_TO_FILE
        28 001153   000000 011000                    NOP     0

      318     6355    3               LOCK_DESC.NULLL = '0'B;

   6355 28 001154   000042 236000 29                 LDQ     34
        28 001155   000000 356000 12                 ANSQ    DESC

      319     6356    3               RETURN;

   6356 28 001156   000000 702200 xent               TSX2  ! X66_ARET

      320     6357    3           CASE (7);

      321     6358    3               LOCK_DESC.NULLL = '1'B;

   6358 28 001157   400000 236003                    LDQ     -131072,DU
        28 001160   000000 256000 12                 ORSQ    DESC

      322     6359    3               CALL PUT_TO_FILE(ADDR(LOCK_DESC));

   6359 28 001161   000022 236000 29                 LDQ     18
        28 001162   200020 756100                    STQ     @PTR_OUT+7,,AUTO
        28 001163   200020 631500                    EPPR1   @PTR_OUT+7,,AUTO
        28 001164   200011 451500                    STP1    K+3,,AUTO
        28 001165   000003 701000 28                 TSX1    PUT_TO_FILE
        28 001166   000000 011000                    NOP     0
PL6.E3A0      #001=ZIG$DDS4 File=ZIG$DDS4.:ZIC0TSI                               FRI 09/05/97 11:49 Page:79

      323     6360    3               RETURN;

   6360 28 001167   000000 702200 xent               TSX2  ! X66_ARET

      324     6361    3               END;

   6361 28 001170   002252 710000 28                 TRA     s:6559

      325     6362         %EJECT;
PL6.E3A0      #001=ZIG$DDS4 File=ZIG$DDS4.:ZIC0TSI                               FRI 09/05/97 11:49 Page:80
      326     6363    2       CASE (7);

      327     6364    3           DO CASE (BLK.CODE-700);

   6364 28 001171   000000 236100                    LDQ     0,,PR0
        28 001172   777777 376007                    ANQ     -1,DL
        28 001173   001274 136007                    SBLQ    700,DL
        28 001174   000022 116007                    CMPQ    18,DL
        28 001175   001177 602006 28                 TNC     s:6364+6,QL
        28 001176   002252 710000 28                 TRA     s:6559
        28 001177   001221 710000 28                 TRA     s:6366
        28 001200   001356 710000 28                 TRA     s:6421
        28 001201   001267 710000 28                 TRA     s:6385
        28 001202   001306 710000 28                 TRA     s:6395
        28 001203   001311 710000 28                 TRA     s:6397
        28 001204   001336 710000 28                 TRA     s:6411
        28 001205   001343 710000 28                 TRA     s:6413
        28 001206   001356 710000 28                 TRA     s:6421
        28 001207   001346 710000 28                 TRA     s:6416
        28 001210   001351 710000 28                 TRA     s:6418
        28 001211   001354 710000 28                 TRA     s:6420
        28 001212   001317 710000 28                 TRA     s:6401
        28 001213   001322 710000 28                 TRA     s:6403
        28 001214   001325 710000 28                 TRA     s:6405
        28 001215   001314 710000 28                 TRA     s:6399
        28 001216   001333 710000 28                 TRA     s:6409
        28 001217   001267 710000 28                 TRA     s:6385
        28 001220   001330 710000 28                 TRA     s:6407

      328     6365    3           CASE (0); /* Validator */

      329     6366    3               J= 6;

   6366 28 001221   000006 235007                    LDA     6,DL
        28 001222   000000 755000 23                 STA     J

      330     6367    3               PTR_SUBSCHEMA = ADDR(VALIDS.SSNAME);
PL6.E3A0      #001=ZIG$DDS4 File=ZIG$DDS4.:ZIC0TSI                               FRI 09/05/97 11:49 Page:81

   6367 28 001223   000023 236000 29                 LDQ     19
        28 001224   000000 756000 25                 STQ     PTR_SUBSCHEMA

      331     6368    3               VALIDS.STATUS = '000'B;

   6368 28 001225   000006 236000 29                 LDQ     6
        28 001226   000000 356000 17                 ANSQ    VALIDS

      332     6369    3               VALIDS.XLST = '1'B;

   6369 28 001227   040000 236003                    LDQ     16384,DU
        28 001230   000000 256000 17                 ORSQ    VALIDS

      333     6370    3               VALIDS.ICLST = '1'B;

   6370 28 001231   020000 236003                    LDQ     8192,DU
        28 001232   000000 256000 17                 ORSQ    VALIDS

      334     6371    3               VALIDS.AREA_XREF = '1'B;

   6371 28 001233   000040 236003                    LDQ     32,DU
        28 001234   000000 256000 17                 ORSQ    VALIDS

      335     6372    3               VALIDS.RECORD_XREF = '1'B;

   6372 28 001235   000020 236003                    LDQ     16,DU
        28 001236   000000 256000 17                 ORSQ    VALIDS

      336     6373    3               VALIDS.PARAM_XREF = '1'B;

   6373 28 001237   000010 236003                    LDQ     8,DU
        28 001240   000000 256000 17                 ORSQ    VALIDS

      337     6374    3               VALIDS.SET_XREF = '1'B;

   6374 28 001241   000004 236003                    LDQ     4,DU
PL6.E3A0      #001=ZIG$DDS4 File=ZIG$DDS4.:ZIC0TSI                               FRI 09/05/97 11:49 Page:82
        28 001242   000000 256000 17                 ORSQ    VALIDS

      338     6375    3               VALIDS.COPY_LOCK = '0'B;

   6375 28 001243   000024 236000 29                 LDQ     20
        28 001244   000000 356000 17                 ANSQ    VALIDS

      339     6376    3               VALIDS.DIAG_LOCK = '0'B;

   6376 28 001245   000025 236000 29                 LDQ     21
        28 001246   000000 356000 17                 ANSQ    VALIDS

      340     6377    3               VALIDS.MODE = '0'B;

   6377 28 001247   000026 236000 29                 LDQ     22
        28 001250   000000 356000 17                 ANSQ    VALIDS

      341     6378    3               VALIDS.FR_NAMES = '0'B;

   6378 28 001251   000043 236000 29                 LDQ     35
        28 001252   000000 356000 17                 ANSQ    VALIDS

      342     6379    3               VALIDS.GEN_RVA = '0'B;

   6379 28 001253   000027 236000 29                 LDQ     23
        28 001254   000000 356000 17                 ANSQ    VALIDS

      343     6380    3               VALIDS.COPY_KEY = '"NULL"';

   6380 28 001255   040000 100400                    MLR     fill='040'O
        28 001256   000004 000006 0                  ADSC9   ACCTNAME+4               cn=0,n=6
        28 001257   000001 000014 17                 ADSC9   VALIDS+1                 cn=0,n=12

      344     6381    3               VALIDS.DIAG_KEY = '"NULL"';

   6381 28 001260   040000 100400                    MLR     fill='040'O
        28 001261   000004 000006 0                  ADSC9   ACCTNAME+4               cn=0,n=6
PL6.E3A0      #001=ZIG$DDS4 File=ZIG$DDS4.:ZIC0TSI                               FRI 09/05/97 11:49 Page:83
        28 001262   000004 000014 17                 ADSC9   VALIDS+4                 cn=0,n=12

      345     6382    3               VALIDS.SNAME = ' ';

   6382 28 001263   040000 100400                    MLR     fill='040'O
        28 001264   000010 000001 29                 ADSC9   8                        cn=0,n=1
        28 001265   000007 000036 17                 ADSC9   VALIDS+7                 cn=0,n=30
        28 001266   002252 710000 28                 TRA     s:6559

      346     6383    3           CASE (1); /* Option */

      347     6384    3           CASE (2,16); /* No report on dml */

      348     6385    3               IF BLK.NSUBLKS = 0

   6385 28 001267   000001 220100                    LDX0    1,,PR0
        28 001270   002252 601000 28                 TNZ     s:6559

      349     6386    4               THEN DO;

      350     6387    4                   VALIDS.ICLST = '0'B;

   6387 28 001271   000032 236000 29                 LDQ     26
        28 001272   000000 356000 17                 ANSQ    VALIDS

      351     6388    4                   VALIDS.XLST = '0'B;

   6388 28 001273   000031 236000 29                 LDQ     25
        28 001274   000000 356000 17                 ANSQ    VALIDS

      352     6389    4                   VALIDS.RECORD_XREF = '0'B;

   6389 28 001275   000044 236000 29                 LDQ     36
        28 001276   000000 356000 17                 ANSQ    VALIDS

      353     6390    4                   VALIDS.PARAM_XREF = '0'B;

PL6.E3A0      #001=ZIG$DDS4 File=ZIG$DDS4.:ZIC0TSI                               FRI 09/05/97 11:49 Page:84
   6390 28 001277   000045 236000 29                 LDQ     37
        28 001300   000000 356000 17                 ANSQ    VALIDS

      354     6391    4                   VALIDS.AREA_XREF = '0'B;

   6391 28 001301   000046 236000 29                 LDQ     38
        28 001302   000000 356000 17                 ANSQ    VALIDS

      355     6392    4                   VALIDS.SET_XREF = '0'B;

   6392 28 001303   000047 236000 29                 LDQ     39
        28 001304   000000 356000 17                 ANSQ    VALIDS

      356     6393    4                   END;

   6393 28 001305   002252 710000 28                 TRA     s:6559

      357     6394    3           CASE (3); /* PERMITTED */

      358     6395    3               VALIDS.ICLST = '0'B;

   6395 28 001306   000032 236000 29                 LDQ     26
        28 001307   000000 356000 17                 ANSQ    VALIDS
        28 001310   002252 710000 28                 TRA     s:6559

      359     6396    3           CASE (4); /* PROHIBITED */

      360     6397    3               VALIDS.XLST = '0'B;

   6397 28 001311   000031 236000 29                 LDQ     25
        28 001312   000000 356000 17                 ANSQ    VALIDS
        28 001313   002252 710000 28                 TRA     s:6559

      361     6398    3           CASE (14); /* AREA XREF */

      362     6399    3               VALIDS.AREA_XREF = '0'B;

PL6.E3A0      #001=ZIG$DDS4 File=ZIG$DDS4.:ZIC0TSI                               FRI 09/05/97 11:49 Page:85
   6399 28 001314   000046 236000 29                 LDQ     38
        28 001315   000000 356000 17                 ANSQ    VALIDS
        28 001316   002252 710000 28                 TRA     s:6559

      363     6400    3           CASE (11); /* RECORD XREF */

      364     6401    3               VALIDS.RECORD_XREF = '0'B;

   6401 28 001317   000044 236000 29                 LDQ     36
        28 001320   000000 356000 17                 ANSQ    VALIDS
        28 001321   002252 710000 28                 TRA     s:6559

      365     6402    3           CASE (12); /* SET XREF */

      366     6403    3               VALIDS.SET_XREF = '0'B;

   6403 28 001322   000047 236000 29                 LDQ     39
        28 001323   000000 356000 17                 ANSQ    VALIDS
        28 001324   002252 710000 28                 TRA     s:6559

      367     6404    3           CASE (13); /* DATA BASE PARAMATER XREF */

      368     6405    3               VALIDS.PARAM_XREF = '0'B;

   6405 28 001325   000045 236000 29                 LDQ     37
        28 001326   000000 356000 17                 ANSQ    VALIDS
        28 001327   002252 710000 28                 TRA     s:6559

      369     6406    3           CASE (17); /* GEN RVA */

      370     6407    3               VALIDS.GEN_RVA = '1'B;

   6407 28 001330   000002 236003                    LDQ     2,DU
        28 001331   000000 256000 17                 ORSQ    VALIDS
        28 001332   002252 710000 28                 TRA     s:6559

      371     6408    3           CASE (15); /* Special print mode */
PL6.E3A0      #001=ZIG$DDS4 File=ZIG$DDS4.:ZIC0TSI                               FRI 09/05/97 11:49 Page:86

      372     6409    3               J = 19;

   6409 28 001333   000023 235007                    LDA     19,DL
        28 001334   000000 755000 23                 STA     J
        28 001335   002252 710000 28                 TRA     s:6559

      373     6410    3           CASE (5);

      374     6411    3               VALIDS.MODE = '1'B;

   6411 28 001336   000000 236000 17                 LDQ     VALIDS
        28 001337   000026 376000 29                 ANQ     22
        28 001340   002000 276003                    ORQ     1024,DU
        28 001341   000000 756000 17                 STQ     VALIDS
        28 001342   002252 710000 28                 TRA     s:6559

      375     6412    3           CASE (6);

      376     6413    3               VALIDS.FR_NAMES = '1'B;

   6413 28 001343   000100 236003                    LDQ     64,DU
        28 001344   000000 256000 17                 ORSQ    VALIDS
        28 001345   002252 710000 28                 TRA     s:6559

      377     6414    3           CASE (7); /* Privacy key */

      378     6415    3           CASE (8); /* Privacy key */

      379     6416    3               PTR_PRIVACY_KEY = ADDR(VALIDS.COPY_KEY);

   6416 28 001346   000050 236000 29                 LDQ     40
        28 001347   000000 756000 26                 STQ     PTR_PRIVACY_KEY
        28 001350   002252 710000 28                 TRA     s:6559

      380     6417    3           CASE (9); /* Privacy key */

PL6.E3A0      #001=ZIG$DDS4 File=ZIG$DDS4.:ZIC0TSI                               FRI 09/05/97 11:49 Page:87
      381     6418    3               PTR_PRIVACY_KEY = ADDR(VALIDS.DIAG_KEY);

   6418 28 001351   000051 236000 29                 LDQ     41
        28 001352   000000 756000 26                 STQ     PTR_PRIVACY_KEY
        28 001353   002252 710000 28                 TRA     s:6559

      382     6419    3           CASE (10); /* Schema name */

      383     6420    3               PTR_SCHEMA = ADDR(VALIDS.SNAME);

   6420 28 001354   000030 236000 29                 LDQ     24
        28 001355   000000 756000 24                 STQ     PTR_SCHEMA

      384     6421    3               END;

   6421 28 001356   002252 710000 28                 TRA     s:6559

      385     6422         %EJECT;
PL6.E3A0      #001=ZIG$DDS4 File=ZIG$DDS4.:ZIC0TSI                               FRI 09/05/97 11:49 Page:88
      386     6423    2       CASE (8);

      387     6424    3           DO CASE (BLK.CODE-800);

   6424 28 001357   000000 236100                    LDQ     0,,PR0
        28 001360   777777 376007                    ANQ     -1,DL
        28 001361   001440 136007                    SBLQ    800,DL
        28 001362   000067 116007                    CMPQ    55,DL
        28 001363   001365 602006 28                 TNC     s:6424+6,QL
        28 001364   002252 710000 28                 TRA     s:6559
        28 001365   001454 710000 28                 TRA     s:6426
        28 001366   001471 710000 28                 TRA     s:6432
        28 001367   001540 710000 28                 TRA     s:6455
        28 001370   001540 710000 28                 TRA     s:6455
        28 001371   001474 710000 28                 TRA     s:6436
        28 001372   001504 710000 28                 TRA     s:6439
        28 001373   001540 710000 28                 TRA     s:6455
        28 001374   001540 710000 28                 TRA     s:6455
        28 001375   001540 710000 28                 TRA     s:6455
        28 001376   001540 710000 28                 TRA     s:6455
        28 001377   001540 710000 28                 TRA     s:6455
        28 001400   001540 710000 28                 TRA     s:6455
        28 001401   001540 710000 28                 TRA     s:6455
        28 001402   001540 710000 28                 TRA     s:6455
        28 001403   001540 710000 28                 TRA     s:6455
        28 001404   001540 710000 28                 TRA     s:6455
        28 001405   001540 710000 28                 TRA     s:6455
        28 001406   001540 710000 28                 TRA     s:6455
        28 001407   001540 710000 28                 TRA     s:6455
        28 001410   001540 710000 28                 TRA     s:6455
        28 001411   001540 710000 28                 TRA     s:6455
        28 001412   001540 710000 28                 TRA     s:6455
        28 001413   001540 710000 28                 TRA     s:6455
        28 001414   001540 710000 28                 TRA     s:6455
        28 001415   001540 710000 28                 TRA     s:6455
        28 001416   001540 710000 28                 TRA     s:6455
        28 001417   001540 710000 28                 TRA     s:6455
PL6.E3A0      #001=ZIG$DDS4 File=ZIG$DDS4.:ZIC0TSI                               FRI 09/05/97 11:49 Page:89
        28 001420   001540 710000 28                 TRA     s:6455
        28 001421   001540 710000 28                 TRA     s:6455
        28 001422   001540 710000 28                 TRA     s:6455
        28 001423   001540 710000 28                 TRA     s:6455
        28 001424   001540 710000 28                 TRA     s:6455
        28 001425   001540 710000 28                 TRA     s:6455
        28 001426   001540 710000 28                 TRA     s:6455
        28 001427   001540 710000 28                 TRA     s:6455
        28 001430   001540 710000 28                 TRA     s:6455
        28 001431   001540 710000 28                 TRA     s:6455
        28 001432   001540 710000 28                 TRA     s:6455
        28 001433   001540 710000 28                 TRA     s:6455
        28 001434   001540 710000 28                 TRA     s:6455
        28 001435   001540 710000 28                 TRA     s:6455
        28 001436   001540 710000 28                 TRA     s:6455
        28 001437   001540 710000 28                 TRA     s:6455
        28 001440   001540 710000 28                 TRA     s:6455
        28 001441   001540 710000 28                 TRA     s:6455
        28 001442   001540 710000 28                 TRA     s:6455
        28 001443   001540 710000 28                 TRA     s:6455
        28 001444   001540 710000 28                 TRA     s:6455
        28 001445   001540 710000 28                 TRA     s:6455
        28 001446   001540 710000 28                 TRA     s:6455
        28 001447   001514 710000 28                 TRA     s:6443
        28 001450   001526 710000 28                 TRA     s:6449
        28 001451   001540 710000 28                 TRA     s:6455
        28 001452   001531 710000 28                 TRA     s:6451
        28 001453   001534 710000 28                 TRA     s:6453

      388     6425    3           CASE (0); /* Display schema ddl,dmcl,activities */

      389     6426    3               J=2;

   6426 28 001454   000002 235007                    LDA     2,DL
        28 001455   000000 755000 23                 STA     J

      390     6427    3               DISPS.SUBSCHEMA_DISP = '0'B;
PL6.E3A0      #001=ZIG$DDS4 File=ZIG$DDS4.:ZIC0TSI                               FRI 09/05/97 11:49 Page:90

   6427 28 001456   000032 236000 29                 LDQ     26
        28 001457   000000 356000 16                 ANSQ    DISPS

      391     6428    3               DISPS.SCHEMA_DISP = '1'B;

   6428 28 001460   040000 236003                    LDQ     16384,DU
        28 001461   000000 256000 16                 ORSQ    DISPS

      392     6429    3               DISPS.SSNAME = ' ';

   6429 28 001462   040000 100400                    MLR     fill='040'O
        28 001463   000010 000001 29                 ADSC9   8                        cn=0,n=1
        28 001464   000017 200036 16                 ADSC9   DISPS+15                 cn=1,n=30

      393     6430    3               DISPS.SNAME = OLD_SCHEMA_NAME;

   6430 28 001465   040000 100400                    MLR     fill='040'O
        28 001466   000000 000036 2                  ADSC9   OLD_SCHEMA_NAME          cn=0,n=30
        28 001467   000007 600036 16                 ADSC9   DISPS+7                  cn=3,n=30
        28 001470   002252 710000 28                 TRA     s:6559

      394     6431    3           CASE (1); /* Privacy key */

      395     6432    3               PTR_PRIVACY_KEY = ADDR(DISPS.DISP_KEY);

   6432 28 001471   000052 236000 29                 LDQ     42
        28 001472   000000 756000 26                 STQ     PTR_PRIVACY_KEY
        28 001473   002252 710000 28                 TRA     s:6559

      396     6433    3           CASE (2); /* From */

      397     6434    3           CASE (3); /* Copy */

      398     6435    3           CASE (4); /* Year 1 */

      399     6436    3               DISPS.SACTS_FROM_DATE=BLK.SUBLK$(0) -> SYM.TEXT;
PL6.E3A0      #001=ZIG$DDS4 File=ZIG$DDS4.:ZIC0TSI                               FRI 09/05/97 11:49 Page:91

   6436 28 001474   000003 471500                    LDP1    3,,PR0
        28 001475   100004 236100                    LDQ     4,,PR1
        28 001476   000033 772000                    QRL     27
        28 001477   000000 620006                    EAX0    0,QL
        28 001500   040000 100540                    MLR     fill='040'O
        28 001501   100004 200010                    ADSC9   4,,PR1                   cn=1,n=*X0
        28 001502   000001 200006 16                 ADSC9   DISPS+1                  cn=1,n=6

      400     6437    3               RETURN;

   6437 28 001503   000000 702200 xent               TSX2  ! X66_ARET

      401     6438    3           CASE (5); /* Year 2 */

      402     6439    3               DISPS.SACTS_THRU_DATE=BLK.SUBLK$(0) -> SYM.TEXT;

   6439 28 001504   000003 471500                    LDP1    3,,PR0
        28 001505   100004 236100                    LDQ     4,,PR1
        28 001506   000033 772000                    QRL     27
        28 001507   000000 620006                    EAX0    0,QL
        28 001510   040000 100540                    MLR     fill='040'O
        28 001511   100004 200010                    ADSC9   4,,PR1                   cn=1,n=*X0
        28 001512   000002 600006 16                 ADSC9   DISPS+2                  cn=3,n=6

      403     6440    3               RETURN;

   6440 28 001513   000000 702200 xent               TSX2  ! X66_ARET

      404     6441         %EJECT;
PL6.E3A0      #001=ZIG$DDS4 File=ZIG$DDS4.:ZIC0TSI                               FRI 09/05/97 11:49 Page:92
      405     6442    3           CASE (50); /* Display subschema ddl */

      406     6443    3               DISPS.SCHEMA_DISP = '0'B;

   6443 28 001514   000031 236000 29                 LDQ     25
        28 001515   000000 356000 16                 ANSQ    DISPS

      407     6444    3               DISPS.SUBSCHEMA_DISP = '1'B;

   6444 28 001516   020000 236003                    LDQ     8192,DU
        28 001517   000000 256000 16                 ORSQ    DISPS

      408     6445    3               DISPS.SSNAME = SUBSCHEMA_NAME;

   6445 28 001520   040000 100400                    MLR     fill='040'O
        28 001521   000000 000036 3                  ADSC9   SUBSCHEMA_NAME           cn=0,n=30
        28 001522   000017 200036 16                 ADSC9   DISPS+15                 cn=1,n=30

      409     6446    3               J = 2;

   6446 28 001523   000002 235007                    LDA     2,DL
        28 001524   000000 755000 23                 STA     J
        28 001525   002252 710000 28                 TRA     s:6559

      410     6447    3           CASE (52); /* Copy */

      411     6448    3           CASE (51); /* Privacy key */

      412     6449    3               PTR_PRIVACY_KEY = ADDR(DISPS.DISP_KEY);

   6449 28 001526   000052 236000 29                 LDQ     42
        28 001527   000000 756000 26                 STQ     PTR_PRIVACY_KEY
        28 001530   002252 710000 28                 TRA     s:6559

      413     6450    3           CASE (53); /* Schema name */

      414     6451    3               PTR_SCHEMA=ADDR(DISPS.SNAME);
PL6.E3A0      #001=ZIG$DDS4 File=ZIG$DDS4.:ZIC0TSI                               FRI 09/05/97 11:49 Page:93

   6451 28 001531   000053 236000 29                 LDQ     43
        28 001532   000000 756000 24                 STQ     PTR_SCHEMA
        28 001533   002252 710000 28                 TRA     s:6559

      415     6452    3           CASE (54); /* Display fortran include file */

      416     6453    3               DISPS.SSDISP_TYPES.FORT_INCL = '1'B;

   6453 28 001534   001000 236003                    LDQ     512,DU
        28 001535   000000 256000 16                 ORSQ    DISPS

      417     6454    3               J = 18;

   6454 28 001536   000022 235007                    LDA     18,DL
        28 001537   000000 755000 23                 STA     J

      418     6455    3               END;

   6455 28 001540   002252 710000 28                 TRA     s:6559

      419     6456         %EJECT;
PL6.E3A0      #001=ZIG$DDS4 File=ZIG$DDS4.:ZIC0TSI                               FRI 09/05/97 11:49 Page:94
      420     6457    2       CASE (9);

      421     6458    3           DO CASE (BLK.CODE-900);

   6458 28 001541   000000 236100                    LDQ     0,,PR0
        28 001542   777777 376007                    ANQ     -1,DL
        28 001543   001604 136007                    SBLQ    900,DL
        28 001544   000101 116007                    CMPQ    65,DL
        28 001545   001547 602006 28                 TNC     s:6458+6,QL
        28 001546   002252 710000 28                 TRA     s:6559
        28 001547   001650 710000 28                 TRA     s:6460
        28 001550   001662 710000 28                 TRA     s:6465
        28 001551   001665 710000 28                 TRA     s:6467
        28 001552   002166 710000 28                 TRA     s:6537
        28 001553   002166 710000 28                 TRA     s:6537
        28 001554   002166 710000 28                 TRA     s:6537
        28 001555   002166 710000 28                 TRA     s:6537
        28 001556   002166 710000 28                 TRA     s:6537
        28 001557   002166 710000 28                 TRA     s:6537
        28 001560   002166 710000 28                 TRA     s:6537
        28 001561   002166 710000 28                 TRA     s:6537
        28 001562   002166 710000 28                 TRA     s:6537
        28 001563   002166 710000 28                 TRA     s:6537
        28 001564   002166 710000 28                 TRA     s:6537
        28 001565   002166 710000 28                 TRA     s:6537
        28 001566   002166 710000 28                 TRA     s:6537
        28 001567   002166 710000 28                 TRA     s:6537
        28 001570   002166 710000 28                 TRA     s:6537
        28 001571   002166 710000 28                 TRA     s:6537
        28 001572   002166 710000 28                 TRA     s:6537
        28 001573   002166 710000 28                 TRA     s:6537
        28 001574   002166 710000 28                 TRA     s:6537
        28 001575   002166 710000 28                 TRA     s:6537
        28 001576   002166 710000 28                 TRA     s:6537
        28 001577   002166 710000 28                 TRA     s:6537
        28 001600   002166 710000 28                 TRA     s:6537
        28 001601   002166 710000 28                 TRA     s:6537
PL6.E3A0      #001=ZIG$DDS4 File=ZIG$DDS4.:ZIC0TSI                               FRI 09/05/97 11:49 Page:95
        28 001602   002166 710000 28                 TRA     s:6537
        28 001603   002166 710000 28                 TRA     s:6537
        28 001604   002166 710000 28                 TRA     s:6537
        28 001605   002166 710000 28                 TRA     s:6537
        28 001606   002166 710000 28                 TRA     s:6537
        28 001607   002166 710000 28                 TRA     s:6537
        28 001610   002166 710000 28                 TRA     s:6537
        28 001611   002166 710000 28                 TRA     s:6537
        28 001612   002166 710000 28                 TRA     s:6537
        28 001613   002166 710000 28                 TRA     s:6537
        28 001614   002166 710000 28                 TRA     s:6537
        28 001615   002166 710000 28                 TRA     s:6537
        28 001616   002166 710000 28                 TRA     s:6537
        28 001617   002166 710000 28                 TRA     s:6537
        28 001620   002166 710000 28                 TRA     s:6537
        28 001621   002166 710000 28                 TRA     s:6537
        28 001622   002166 710000 28                 TRA     s:6537
        28 001623   002166 710000 28                 TRA     s:6537
        28 001624   002166 710000 28                 TRA     s:6537
        28 001625   002166 710000 28                 TRA     s:6537
        28 001626   002166 710000 28                 TRA     s:6537
        28 001627   002166 710000 28                 TRA     s:6537
        28 001630   002166 710000 28                 TRA     s:6537
        28 001631   001670 710000 28                 TRA     s:6470
        28 001632   001707 710000 28                 TRA     s:6477
        28 001633   002166 710000 28                 TRA     s:6537
        28 001634   002166 710000 28                 TRA     s:6537
        28 001635   001712 710000 28                 TRA     s:6481
        28 001636   001723 710000 28                 TRA     s:6484
        28 001637   001734 710000 28                 TRA     s:6487
        28 001640   001745 710000 28                 TRA     s:6490
        28 001641   001756 710000 28                 TRA     s:6493
        28 001642   001767 710000 28                 TRA     s:6496
        28 001643   002000 710000 28                 TRA     s:6499
        28 001644   002000 710000 28                 TRA     s:6499
        28 001645   002000 710000 28                 TRA     s:6499
        28 001646   002000 710000 28                 TRA     s:6499
PL6.E3A0      #001=ZIG$DDS4 File=ZIG$DDS4.:ZIC0TSI                               FRI 09/05/97 11:49 Page:96
        28 001647   002061 710000 28                 TRA     s:6515

      422     6459    3           CASE (0); /* Display subschema dict */

      423     6460    3               J = 7;

   6460 28 001650   000007 235007                    LDA     7,DL
        28 001651   000000 755000 23                 STA     J

      424     6461    3               DICTS.SUBSCHEMA_DICT = '1'B;

   6461 28 001652   020000 236003                    LDQ     8192,DU
        28 001653   000000 256000 15                 ORSQ    DICTS

      425     6462    3               DICTS.SCHEMA_DICT= '0'B;

   6462 28 001654   000031 236000 29                 LDQ     25
        28 001655   000000 356000 15                 ANSQ    DICTS

      426     6463    3               DICTS.SSNAME = SUBSCHEMA_NAME;

   6463 28 001656   040000 100400                    MLR     fill='040'O
        28 001657   000000 000036 3                  ADSC9   SUBSCHEMA_NAME           cn=0,n=30
        28 001660   000013 400036 15                 ADSC9   DICTS+11                 cn=2,n=30
        28 001661   002252 710000 28                 TRA     s:6559

      427     6464    3           CASE (1); /* Privacy key */

      428     6465    3               PTR_PRIVACY_KEY = ADDR(DICTS.DISP_KEY);

   6465 28 001662   000054 236000 29                 LDQ     44
        28 001663   000000 756000 26                 STQ     PTR_PRIVACY_KEY
        28 001664   002252 710000 28                 TRA     s:6559

      429     6466    3           CASE (2); /* Schema name */

      430     6467    3               PTR_SCHEMA=ADDR(DICTS.SNAME);
PL6.E3A0      #001=ZIG$DDS4 File=ZIG$DDS4.:ZIC0TSI                               FRI 09/05/97 11:49 Page:97

   6467 28 001665   000055 236000 29                 LDQ     45
        28 001666   000000 756000 24                 STQ     PTR_SCHEMA
        28 001667   002252 710000 28                 TRA     s:6559

      431     6468         %EJECT;
PL6.E3A0      #001=ZIG$DDS4 File=ZIG$DDS4.:ZIC0TSI                               FRI 09/05/97 11:49 Page:98
      432     6469    3           CASE (50); /* Display schema dict */

      433     6470    3               DICTS.SUBSCHEMA_DICT = '0'B;

   6470 28 001670   000032 236000 29                 LDQ     26
        28 001671   000000 356000 15                 ANSQ    DICTS

      434     6471    3               DICTS.SCHEMA_DICT = '1'B;

   6471 28 001672   040000 236003                    LDQ     16384,DU
        28 001673   000000 256000 15                 ORSQ    DICTS

      435     6472    3               DICTS.SSNAME = ' ';

   6472 28 001674   040000 100400                    MLR     fill='040'O
        28 001675   000010 000001 29                 ADSC9   8                        cn=0,n=1
        28 001676   000013 400036 15                 ADSC9   DICTS+11                 cn=2,n=30

      436     6473    3               DICTS.SNAME = OLD_SCHEMA_NAME;

   6473 28 001677   040000 100400                    MLR     fill='040'O
        28 001700   000000 000036 2                  ADSC9   OLD_SCHEMA_NAME          cn=0,n=30
        28 001701   000004 000036 15                 ADSC9   DICTS+4                  cn=0,n=30

      437     6474    3               DICTS.ALL = '111111'B;

   6474 28 001702   017600 236003                    LDQ     8064,DU
        28 001703   000000 256000 15                 ORSQ    DICTS

      438     6475    3               J = 7;

   6475 28 001704   000007 235007                    LDA     7,DL
        28 001705   000000 755000 23                 STA     J
        28 001706   002252 710000 28                 TRA     s:6559

      439     6476    3           CASE (51); /* Privacy key */

PL6.E3A0      #001=ZIG$DDS4 File=ZIG$DDS4.:ZIC0TSI                               FRI 09/05/97 11:49 Page:99
      440     6477    3               PTR_PRIVACY_KEY = ADDR(DICTS.DISP_KEY);

   6477 28 001707   000054 236000 29                 LDQ     44
        28 001710   000000 756000 26                 STQ     PTR_PRIVACY_KEY
        28 001711   002252 710000 28                 TRA     s:6559

      441     6478    3           CASE (52); /* Report */

      442     6479    3           CASE (53); /* All */

      443     6480    3           CASE (54) /* Schema */;

      444     6481    3               IF DICTS.ALL = '111111'B THEN DICTS.ALL = '0'B;

   6481 28 001712   000000 236000 15                 LDQ     DICTS
        28 001713   017600 376003                    ANQ     8064,DU
        28 001714   017600 116003                    CMPQ    8064,DU
        28 001715   001720 601000 28                 TNZ     s:6482

   6481 28 001716   000011 236000 29                 LDQ     9
        28 001717   000000 356000 15                 ANSQ    DICTS

      445     6482    3               DICTS.ALL.SCHEMAS = '1'B;

   6482 28 001720   010000 236003                    LDQ     4096,DU
        28 001721   000000 256000 15                 ORSQ    DICTS
        28 001722   002252 710000 28                 TRA     s:6559

      446     6483    3           CASE (55) /* Areas */;

      447     6484    3               IF DICTS.ALL = '111111'B THEN DICTS.ALL = '0'B;

   6484 28 001723   000000 236000 15                 LDQ     DICTS
        28 001724   017600 376003                    ANQ     8064,DU
        28 001725   017600 116003                    CMPQ    8064,DU
        28 001726   001731 601000 28                 TNZ     s:6485

PL6.E3A0      #001=ZIG$DDS4 File=ZIG$DDS4.:ZIC0TSI                               FRI 09/05/97 11:49 Page:100
   6484 28 001727   000011 236000 29                 LDQ     9
        28 001730   000000 356000 15                 ANSQ    DICTS

      448     6485    3               DICTS.ALL.AREAS = '1'B;

   6485 28 001731   004000 236003                    LDQ     2048,DU
        28 001732   000000 256000 15                 ORSQ    DICTS
        28 001733   002252 710000 28                 TRA     s:6559

      449     6486    3           CASE (56) /* Sets */;

      450     6487    3               IF DICTS.ALL = '111111'B THEN DICTS.ALL = '0'B;

   6487 28 001734   000000 236000 15                 LDQ     DICTS
        28 001735   017600 376003                    ANQ     8064,DU
        28 001736   017600 116003                    CMPQ    8064,DU
        28 001737   001742 601000 28                 TNZ     s:6488

   6487 28 001740   000011 236000 29                 LDQ     9
        28 001741   000000 356000 15                 ANSQ    DICTS

      451     6488    3               DICTS.ALL.SETS = '1'B;

   6488 28 001742   002000 236003                    LDQ     1024,DU
        28 001743   000000 256000 15                 ORSQ    DICTS
        28 001744   002252 710000 28                 TRA     s:6559

      452     6489    3           CASE (57) /* Keys */;

      453     6490    3               IF DICTS.ALL = '111111'B THEN DICTS.ALL = '0'B;

   6490 28 001745   000000 236000 15                 LDQ     DICTS
        28 001746   017600 376003                    ANQ     8064,DU
        28 001747   017600 116003                    CMPQ    8064,DU
        28 001750   001753 601000 28                 TNZ     s:6491

   6490 28 001751   000011 236000 29                 LDQ     9
PL6.E3A0      #001=ZIG$DDS4 File=ZIG$DDS4.:ZIC0TSI                               FRI 09/05/97 11:49 Page:101
        28 001752   000000 356000 15                 ANSQ    DICTS

      454     6491    3               DICTS.ALL.KEYS = '1'B;

   6491 28 001753   001000 236003                    LDQ     512,DU
        28 001754   000000 256000 15                 ORSQ    DICTS
        28 001755   002252 710000 28                 TRA     s:6559

      455     6492    3           CASE (58) /* Records */;

      456     6493    3               IF DICTS.ALL = '111111'B THEN DICTS.ALL = '0'B;

   6493 28 001756   000000 236000 15                 LDQ     DICTS
        28 001757   017600 376003                    ANQ     8064,DU
        28 001760   017600 116003                    CMPQ    8064,DU
        28 001761   001764 601000 28                 TNZ     s:6494

   6493 28 001762   000011 236000 29                 LDQ     9
        28 001763   000000 356000 15                 ANSQ    DICTS

      457     6494    3               DICTS.ALL.RECORDS = '1'B;

   6494 28 001764   000400 236003                    LDQ     256,DU
        28 001765   000000 256000 15                 ORSQ    DICTS
        28 001766   002252 710000 28                 TRA     s:6559

      458     6495    3           CASE (59) /* Fields */;

      459     6496    3               IF DICTS.ALL = '111111'B THEN DICTS.ALL = '0'B;

   6496 28 001767   000000 236000 15                 LDQ     DICTS
        28 001770   017600 376003                    ANQ     8064,DU
        28 001771   017600 116003                    CMPQ    8064,DU
        28 001772   001775 601000 28                 TNZ     s:6497

   6496 28 001773   000011 236000 29                 LDQ     9
        28 001774   000000 356000 15                 ANSQ    DICTS
PL6.E3A0      #001=ZIG$DDS4 File=ZIG$DDS4.:ZIC0TSI                               FRI 09/05/97 11:49 Page:102

      460     6497    3               DICTS.ALL.FIELDS = '1'B;

   6497 28 001775   000200 236003                    LDQ     128,DU
        28 001776   000000 256000 15                 ORSQ    DICTS
        28 001777   002252 710000 28                 TRA     s:6559

      461     6498    3           CASE (60,61,62,63);

      462     6499    3               DICT_DESC.NAME_TYPE = BLK.CODE -959;

   6499 28 002000   000000 236100                    LDQ     0,,PR0
        28 002001   777777 376007                    ANQ     -1,DL
        28 002002   001677 136007                    SBLQ    959,DL
        28 002003   000000 756000 12                 STQ     DESC

      463     6500    3               DICT_DESC.QUAL = BLK.SUBLK$(0) -> OUT.SUBLK$(0) -> SYM.TEXT;

   6500 28 002004   000003 471500                    LDP1    3,,PR0
        28 002005   100003 473500                    LDP3    3,,PR1
        28 002006   300004 236100                    LDQ     4,,PR3
        28 002007   000033 772000                    QRL     27
        28 002010   000000 620006                    EAX0    0,QL
        28 002011   040000 100540                    MLR     fill='040'O
        28 002012   300004 200010                    ADSC9   4,,PR3                   cn=1,n=*X0
        28 002013   000001 000036 12                 ADSC9   DESC+1                   cn=0,n=30

      464     6501    4               DO CASE (DICT_DESC.NAME_TYPE);

   6501 28 002014   000000 235000 12                 LDA     DESC
        28 002015   000005 115007                    CMPA    5,DL
        28 002016   002020 602005 28                 TNC     s:6501+4,AL
        28 002017   002040 710000 28                 TRA     s:6511
        28 002020   002040 710000 28                 TRA     s:6511
        28 002021   002025 710000 28                 TRA     s:6503
        28 002022   002030 710000 28                 TRA     s:6505
        28 002023   002033 710000 28                 TRA     s:6507
PL6.E3A0      #001=ZIG$DDS4 File=ZIG$DDS4.:ZIC0TSI                               FRI 09/05/97 11:49 Page:103
        28 002024   002036 710000 28                 TRA     s:6509

      465     6502    4               CASE (1);

      466     6503    4                   DICTS.NAMES.AREA_NAMES = '1'B;

   6503 28 002025   000100 236003                    LDQ     64,DU
        28 002026   000000 256000 15                 ORSQ    DICTS
        28 002027   002040 710000 28                 TRA     s:6511

      467     6504    4               CASE (2);

      468     6505    4                   DICTS.NAMES.SET_NAMES = '1'B;

   6505 28 002030   000040 236003                    LDQ     32,DU
        28 002031   000000 256000 15                 ORSQ    DICTS
        28 002032   002040 710000 28                 TRA     s:6511

      469     6506    4               CASE (3);

      470     6507    4                   DICTS.NAMES.KEY_NAMES = '1'B;

   6507 28 002033   000020 236003                    LDQ     16,DU
        28 002034   000000 256000 15                 ORSQ    DICTS
        28 002035   002040 710000 28                 TRA     s:6511

      471     6508    4               CASE (4);

      472     6509    4                   DICTS.NAMES.RECORD_NAMES = '1'B;

   6509 28 002036   000010 236003                    LDQ     8,DU
        28 002037   000000 256000 15                 ORSQ    DICTS

      473     6510    4                   END;

      474     6511    3               CALL PUT_TO_FILE(ADDR(DICT_DESC));

PL6.E3A0      #001=ZIG$DDS4 File=ZIG$DDS4.:ZIC0TSI                               FRI 09/05/97 11:49 Page:104
   6511 28 002040   000022 236000 29                 LDQ     18
        28 002041   200021 756100                    STQ     @PTR_OUT+8,,AUTO
        28 002042   200021 631500                    EPPR1   @PTR_OUT+8,,AUTO
        28 002043   200011 451500                    STP1    K+3,,AUTO
        28 002044   000003 701000 28                 TSX1    PUT_TO_FILE
        28 002045   000000 011000                    NOP     0

      475     6512    3               IF BLK.NSUBLKS=2 THEN CALL ZIG$DDS4(BLK.SUBLK$(1) -> OUT);

   6512 28 002046   200003 470500                    LDP0    @BLK,,AUTO
        28 002047   000001 220100                    LDX0    1,,PR0
        28 002050   000002 100003                    CMPX0   2,DU
        28 002051   002060 601000 28                 TNZ     s:6513

   6512 28 002052   000004 471500                    LDP1    4,,PR0
        28 002053   200012 451500                    STP1    @PTR_OUT+1,,AUTO
        28 002054   200012 630500                    EPPR0   @PTR_OUT+1,,AUTO
        28 002055   000013 631400 29                 EPPR1   11
        28 002056   000000 701000 28                 TSX1    s:15
        28 002057   000000 011000                    NOP     0

      476     6513    3               RETURN;

   6513 28 002060   000000 702200 xent               TSX2  ! X66_ARET

      477     6514    3           CASE (64);

      478     6515    3               DICT_DESC.NAME_TYPE= 5; /* DATA NAME */

   6515 28 002061   000005 235007                    LDA     5,DL
        28 002062   000000 755000 12                 STA     DESC

      479     6516    3               DICTS.NAMES.DATA_NAMES= '1'B;

   6516 28 002063   000004 236003                    LDQ     4,DU
        28 002064   000000 256000 15                 ORSQ    DICTS

PL6.E3A0      #001=ZIG$DDS4 File=ZIG$DDS4.:ZIC0TSI                               FRI 09/05/97 11:49 Page:105
      480     6517    3               IF BLK.SUBLK$(0) -> OUT.CODE = 966 /* QUAL */

   6517 28 002065   000003 471500                    LDP1    3,,PR0
        28 002066   100000 720100                    LXL0    0,,PR1
        28 002067   001706 100003                    CMPX0   966,DU
        28 002070   002132 601000 28                 TNZ     s:6528

      481     6518    4               THEN DO;

      482     6519    4                   DICT_DESC.QUAL= BLK.SUBLK$(0) -> OUT.SUBLK$(0)

   6519 28 002071   100003 473500                    LDP3    3,,PR1
        28 002072   300003 474500                    LDP4    3,,PR3
        28 002073   400004 236100                    LDQ     4,,PR4
        28 002074   000033 772000                    QRL     27
        28 002075   000000 621006                    EAX1    0,QL
        28 002076   040000 100540                    MLR     fill='040'O
        28 002077   400004 200011                    ADSC9   4,,PR4                   cn=1,n=*X1
        28 002100   000001 000036 12                 ADSC9   DESC+1                   cn=0,n=30

      483     6520    4                      -> OUT.SUBLK$(0) -> SYM.TEXT;
      484     6521    4                   DICT_DESC.NAME = BLK.SUBLK$(1) ->

   6521 28 002101   000004 471500                    LDP1    4,,PR0
        28 002102   100003 473500                    LDP3    3,,PR1
        28 002103   300004 236100                    LDQ     4,,PR3
        28 002104   000033 772000                    QRL     27
        28 002105   000000 620006                    EAX0    0,QL
        28 002106   040000 100540                    MLR     fill='040'O
        28 002107   300004 200010                    ADSC9   4,,PR3                   cn=1,n=*X0
        28 002110   000010 400036 12                 ADSC9   DESC+8                   cn=2,n=30

      485     6522    4                      OUT.SUBLK$(0) -> SYM.TEXT;
      486     6523    4                   CALL PUT_TO_FILE(ADDR(DICT_DESC));

   6523 28 002111   000022 236000 29                 LDQ     18
        28 002112   200022 756100                    STQ     @PTR_OUT+9,,AUTO
PL6.E3A0      #001=ZIG$DDS4 File=ZIG$DDS4.:ZIC0TSI                               FRI 09/05/97 11:49 Page:106
        28 002113   200022 631500                    EPPR1   @PTR_OUT+9,,AUTO
        28 002114   200011 451500                    STP1    K+3,,AUTO
        28 002115   000003 701000 28                 TSX1    PUT_TO_FILE
        28 002116   000000 011000                    NOP     0

      487     6524    4                   IF BLK.NSUBLKS=3

   6524 28 002117   200003 470500                    LDP0    @BLK,,AUTO
        28 002120   000001 220100                    LDX0    1,,PR0
        28 002121   000003 100003                    CMPX0   3,DU
        28 002122   002165 601000 28                 TNZ     s:6535

      488     6525    4                   THEN CALL ZIG$DDS4(BLK.SUBLK$(2)-> OUT);

   6525 28 002123   000005 471500                    LDP1    5,,PR0
        28 002124   200012 451500                    STP1    @PTR_OUT+1,,AUTO
        28 002125   200012 630500                    EPPR0   @PTR_OUT+1,,AUTO
        28 002126   000013 631400 29                 EPPR1   11
        28 002127   000000 701000 28                 TSX1    s:15
        28 002130   000000 011000                    NOP     0

      489     6526    4                   END;

   6526 28 002131   002165 710000 28                 TRA     s:6535

      490     6527    4               ELSE DO;

      491     6528    4                   DICT_DESC.QUAL = ' ';

   6528 28 002132   040000 100400                    MLR     fill='040'O
        28 002133   000010 000001 29                 ADSC9   8                        cn=0,n=1
        28 002134   000001 000036 12                 ADSC9   DESC+1                   cn=0,n=30

      492     6529    4                   DICT_DESC.NAME = BLK.SUBLK$(0) ->

   6529 28 002135   000003 471500                    LDP1    3,,PR0
        28 002136   100003 473500                    LDP3    3,,PR1
PL6.E3A0      #001=ZIG$DDS4 File=ZIG$DDS4.:ZIC0TSI                               FRI 09/05/97 11:49 Page:107
        28 002137   300004 236100                    LDQ     4,,PR3
        28 002140   000033 772000                    QRL     27
        28 002141   000000 620006                    EAX0    0,QL
        28 002142   040000 100540                    MLR     fill='040'O
        28 002143   300004 200010                    ADSC9   4,,PR3                   cn=1,n=*X0
        28 002144   000010 400036 12                 ADSC9   DESC+8                   cn=2,n=30

      493     6530    4                      OUT.SUBLK$(0) -> SYM.TEXT;
      494     6531    4                   CALL PUT_TO_FILE(ADDR(DICT_DESC));

   6531 28 002145   000022 236000 29                 LDQ     18
        28 002146   200023 756100                    STQ     @PTR_OUT+10,,AUTO
        28 002147   200023 631500                    EPPR1   @PTR_OUT+10,,AUTO
        28 002150   200011 451500                    STP1    K+3,,AUTO
        28 002151   000003 701000 28                 TSX1    PUT_TO_FILE
        28 002152   000000 011000                    NOP     0

      495     6532    4                   IF BLK.NSUBLKS=2

   6532 28 002153   200003 470500                    LDP0    @BLK,,AUTO
        28 002154   000001 220100                    LDX0    1,,PR0
        28 002155   000002 100003                    CMPX0   2,DU
        28 002156   002165 601000 28                 TNZ     s:6535

      496     6533    4                   THEN CALL ZIG$DDS4(BLK.SUBLK$(1) -> OUT);

   6533 28 002157   000004 471500                    LDP1    4,,PR0
        28 002160   200012 451500                    STP1    @PTR_OUT+1,,AUTO
        28 002161   200012 630500                    EPPR0   @PTR_OUT+1,,AUTO
        28 002162   000013 631400 29                 EPPR1   11
        28 002163   000000 701000 28                 TSX1    s:15
        28 002164   000000 011000                    NOP     0

      497     6534    4                   END;

      498     6535    3               RETURN;

PL6.E3A0      #001=ZIG$DDS4 File=ZIG$DDS4.:ZIC0TSI                               FRI 09/05/97 11:49 Page:108
   6535 28 002165   000000 702200 xent               TSX2  ! X66_ARET

      499     6536    3           CASE (65); /* More report */

      500     6537    3               END;

   6537 28 002166   002252 710000 28                 TRA     s:6559

      501     6538         %EJECT;
PL6.E3A0      #001=ZIG$DDS4 File=ZIG$DDS4.:ZIC0TSI                               FRI 09/05/97 11:49 Page:109
      502     6539    2       CASE (10); /* Help commands */

      503     6540    2           J=20; /* Indicate help processor */

   6540 28 002167   000024 235007                    LDA     20,DL
        28 002170   000000 755000 23                 STA     J

      504     6541    3           DO CASE( BLK.CODE );

   6541 28 002171   000000 236100                    LDQ     0,,PR0
        28 002172   777777 376007                    ANQ     -1,DL
        28 002173   001750 136007                    SBLQ    1000,DL
        28 002174   000004 116007                    CMPQ    4,DL
        28 002175   002177 602006 28                 TNC     s:6541+6,QL
        28 002176   002251 710000 28                 TRA     s:6556
        28 002177   002203 710000 28                 TRA     s:6543
        28 002200   002222 710000 28                 TRA     s:6546
        28 002201   002234 710000 28                 TRA     s:6550
        28 002202   002243 710000 28                 TRA     s:6553

      505     6542    3           CASE( 1000 ); /* HELP IDS CODE */

      506     6543    3               CALL CHARBIN( IDS_CODE, ADDR(BLK)->SYM.TEXT );

   6543 28 002203   000004 236100                    LDQ     4,,PR0
        28 002204   000033 772000                    QRL     27
        28 002205   000000 620006                    EAX0    0,QL
        28 002206   000100 305540                    DTB
        28 002207   000004 230010                    NDSC9   4,,PR0                   cn=1,s=nosgn,sf=0,n=*X0
        28 002210   200012 000010                    NDSC9   @PTR_OUT+1,,AUTO         cn=0,s=lsgnf,sf=0,n=8
        28 002211   200013 236100                    LDQ     @PTR_OUT+2,,AUTO
        28 002212   200004 756100                    STQ     IDS_CODE,,AUTO

      507     6544    3               CALL HELP_IDS_CODE( IDS_CODE );

   6544 28 002213   200004 631500                    EPPR1   IDS_CODE,,AUTO
        28 002214   200012 451500                    STP1    @PTR_OUT+1,,AUTO
PL6.E3A0      #001=ZIG$DDS4 File=ZIG$DDS4.:ZIC0TSI                               FRI 09/05/97 11:49 Page:110
        28 002215   200012 630500                    EPPR0   @PTR_OUT+1,,AUTO
        28 002216   000013 631400 29                 EPPR1   11
        28 002217   000000 701000 xent               TSX1    HELP_IDS_CODE
        28 002220   000000 011000                    NOP     0
        28 002221   002251 710000 28                 TRA     s:6556

      508     6545    3           CASE( 1001 ); /* HELP PHRASE */

      509     6546    3               HELP_PARAM.PROCACCT_ = VECTOR( ACCTNAME );

   6546 28 002222   000056 237000 29                 LDAQ    46
        28 002223   000054 757000 5                  STAQ    HELP_PARAM+2

      510     6547    3               HELP_PARAM.HELP$ = BLK.SUBLK$(0)->SYM.TEXTC$;

   6547 28 002224   000003 471500                    LDP1    3,,PR0
        28 002225   100003 236100                    LDQ     3,,PR1
        28 002226   000063 756000 5                  STQ     HELP_PARAM+9

      511     6548    3               CALL X$HELP( HELP_PARAM ) ALTRET( ALT_HELP );

   6548 28 002227   000060 630400 29                 EPPR0   48
        28 002230   000013 631400 29                 EPPR1   11
        28 002231   000000 701000 xent               TSX1    X$HELP
        28 002232   002301 702000 28                 TSX2    ALT_HELP
        28 002233   002251 710000 28                 TRA     s:6556

      512     6549    3           CASE( 1002 ); /* QUESTION MARK */

      513     6550    3               HELP_PARAM.MORE# = '1'B;

   6550 28 002234   000200 236003                    LDQ     128,DU
        28 002235   000064 256000 5                  ORSQ    HELP_PARAM+10

      514     6551    3               CALL X$HELP( HELP_PARAM ) ALTRET( ALT_HELP );

   6551 28 002236   000060 630400 29                 EPPR0   48
PL6.E3A0      #001=ZIG$DDS4 File=ZIG$DDS4.:ZIC0TSI                               FRI 09/05/97 11:49 Page:111
        28 002237   000013 631400 29                 EPPR1   11
        28 002240   000000 701000 xent               TSX1    X$HELP
        28 002241   002301 702000 28                 TSX2    ALT_HELP
        28 002242   002251 710000 28                 TRA     s:6556

      515     6552    3           CASE( 1003 ); /* DOUBLE QUESTION MARK */

      516     6553    3               HELP_PARAM.ALL# = '1'B;

   6553 28 002243   000400 236003                    LDQ     256,DU
        28 002244   000064 256000 5                  ORSQ    HELP_PARAM+10

      517     6554    3               CALL X$HELP( HELP_PARAM ) ALTRET( ALT_HELP );

   6554 28 002245   000060 630400 29                 EPPR0   48
        28 002246   000013 631400 29                 EPPR1   11
        28 002247   000000 701000 xent               TSX1    X$HELP
        28 002250   002301 702000 28                 TSX2    ALT_HELP

      518     6555    3               END;

      519     6556    2           RETURN;

   6556 28 002251   000000 702200 xent               TSX2  ! X66_ARET

      520     6557    2           END;

      521     6558        /*   End of main case statement */
      522     6559    2       IF BLK.NSUBLKS ~= 0 THEN DO;

   6559 28 002252   200003 470500                    LDP0    @BLK,,AUTO
        28 002253   000001 220100                    LDX0    1,,PR0
        28 002254   002300 600000 28                 TZE     s:6564

      523     6560    3           DO K = 0 TO BLK.NSUBLKS -1;

   6560 28 002255   200006 450100                    STZ     K,,AUTO
PL6.E3A0      #001=ZIG$DDS4 File=ZIG$DDS4.:ZIC0TSI                               FRI 09/05/97 11:49 Page:112
        28 002256   002272 710000 28                 TRA     s:6562+3

      524     6561    3               CALL ZIG$DDS4(BLK.SUBLK$(K) -> OUT);

   6561 28 002257   200003 470500                    LDP0    @BLK,,AUTO
        28 002260   200006 720100                    LXL0    K,,AUTO
        28 002261   000003 471510                    LDP1    3,X0,PR0
        28 002262   200012 451500                    STP1    @PTR_OUT+1,,AUTO
        28 002263   200012 630500                    EPPR0   @PTR_OUT+1,,AUTO
        28 002264   000013 631400 29                 EPPR1   11
        28 002265   000000 701000 28                 TSX1    s:15
        28 002266   000000 011000                    NOP     0

      525     6562    3               END;

   6562 28 002267   200006 235100                    LDA     K,,AUTO
        28 002270   000001 035007                    ADLA    1,DL
        28 002271   200006 755100                    STA     K,,AUTO
        28 002272   200003 470500                    LDP0    @BLK,,AUTO
        28 002273   000001 236100                    LDQ     1,,PR0
        28 002274   000022 772000                    QRL     18
        28 002275   200006 116100                    CMPQ    K,,AUTO
        28 002276   002300 600000 28                 TZE     s:6564
        28 002277   002257 603000 28                 TRC     s:6561

      526     6563    2           END;

      527     6564    1       RETURN;

   6564 28 002300   000000 702200 xent               TSX2  ! X66_ARET

      528     6565    1   ALT_HELP:
      529     6566    1       CALL HELP_PHRASE_DDER( BITBIN( HELP_PARAM.ERR ) );

   6566 28 002301   000061 630400 29    ALT_HELP     EPPR0   49
        28 002302   000013 631400 29                 EPPR1   11
        28 002303   000000 701000 xent               TSX1    HELP_PHRASE_DDER
PL6.E3A0      #001=ZIG$DDS4 File=ZIG$DDS4.:ZIC0TSI                               FRI 09/05/97 11:49 Page:113
        28 002304   000000 011000                    NOP     0

      530     6567    1       RETURN;

   6567 28 002305   000000 702200 xent               TSX2  ! X66_ARET

ACCTNAME
 Sect OctLoc
   0     000   072123 131123   040040 040040                                    :SYS

(unnamed)
 Sect OctLoc
   0     002   065052 040040   123117 040040   042116 125114   114042 040040    5*  SO  "NULL"

OLD_SCHEMA_NAME
 Sect OctLoc
   2     000   040040 040040   040040 040040   040040 040040   040040 040040
   2     004   040040 040040   040040 040040   040040 040040   040040 ******                  ..

SUBSCHEMA_NAME
 Sect OctLoc
   3     000   040040 040040   040040 040040   040040 040040   040040 040040
   3     004   040040 040040   040040 040040   040040 040040   040040 ******                  ..

DONE
 Sect OctLoc
   4     000   0***** ******                                                    ....

FIVE_STAR_OPEN
 Sect OctLoc
   5     000   0***** ******                                                    ....

TYPE_NAME
 Sect OctLoc
   5     001   101122 105101   137116 101115   105040 040040   040040 040040    AREA_NAME
   5     005   040040 040040   040040 040040   040040 040040   040040 123105                  SE
   5     011   124137 116101   115105 040040   040040 040040   040040 040040    T_NAME
PL6.E3A0      #001=ZIG$DDS4 File=ZIG$DDS4.:ZIC0TSI                               FRI 09/05/97 11:49 Page:114
   5     015   040040 040040   040040 040040   040040 040040   113105 131137                KEY_
   5     021   116101 115105   040040 040040   040040 040040   040040 040040    NAME
   5     025   040040 040040   040040 040040   040040 122105   103117 122104              RECORD
   5     031   137116 101115   105040 040040   040040 040040   040040 040040    _NAME
   5     035   040040 040040   040040 040040   104101 124101   137116 101115            DATA_NAM
   5     041   105040 040040   040040 040040   040040 040040   040040 040040    E
   5     045   040040 040040   040040 ******                                          ..

DBACSX
 Sect OctLoc
   5     047   005104 102101   103123 ******                                    .DBACS..

HELP_PARAM
 Sect OctLoc
   5     052   000001 377640   000047 006000   000000 177640   000000 006014    .....'..........
   5     056   000000 177640   000000 006014   000000 177640   000000 006014    ................
   5     062   000000 000000   000000 006014   000000 000000   0***** ******    ................
   5     066   000000 000000   000000 000000   003040 040040   040040 040040    .........
   5     072   040040 040040   040040 040040   040040 040040   040040 040040
   5     076   040040 040040   040040 040040   040040 040000   040040 040040               .
   5     102   040040 040040   040040 040040   040040 040040   040040 040040
   5     116*  040*** ******   ****** ******   000000 177640   000000 006014     ...............
   5     122   000000 177640   000000 006014   000000 177640   000000 006014    ................
   5     126   000000 177640   000000 006014   000000 361101   000000 000000    ...........A....
   5     132   000000 000000   000000 000000   000000 000000   000000 000000    ................
   5     142*  000000 000000                                                    ....

DESCSIZE
 Sect OctLoc
   5     144   000000 000031                                                    ....

LANG_ALLOWED
 Sect OctLoc
   6     000   ****** ******   ****** ******   ****** ******   ****** ******    ................

HEADING_TEXT
 Sect OctLoc
PL6.E3A0      #001=ZIG$DDS4 File=ZIG$DDS4.:ZIC0TSI                               FRI 09/05/97 11:49 Page:115
   8     000   ****** ******   ****** ******   ****** ******   ****** ******    ................

LANG_TEXT
 Sect OctLoc
   9     000   116117 124040   125123 105104   040040 103117   102117 114040    NOT USED  COBOL
   9     004   040040 040040   106117 122124   122101 116040   040040 101120        FORTRAN   AP
   9     010   114040 040040   040040 040040   102101 123111   103040 040040    L       BASIC
   9     014   040040 ******                                                      ..

HASH_SCHEMA_NAME
 Sect OctLoc
  10     000   0***** ******                                                    ....

DESC
 Sect OctLoc
  12     000   ****** ******   ****** ******   ****** ******   ****** ******    ................

ANALS
 Sect OctLoc
  13     000   ****** ******   ****** ******   ****** ******   ****** ******    ................

PURGE
 Sect OctLoc
  14     000   ****** ******   ****** ******   ****** ******   ****** ******    ................

DICTS
 Sect OctLoc
  15     000   ****** ******   ****** ******   ****** ******   ****** ******    ................

DISPS
 Sect OctLoc
  16     000   ***00* ******   ****** ******   ****** ******   ****** ******    ................
  16     024*  ****** ******   ****** ******   ****** ******                    ............

VALIDS
 Sect OctLoc
  17     000   ****** ******   ****** ******   ****** ******   ****** ******    ................
PL6.E3A0      #001=ZIG$DDS4 File=ZIG$DDS4.:ZIC0TSI                               FRI 09/05/97 11:49 Page:116

LOCKS
 Sect OctLoc
  18     000   ****** ******   ****** ******   ****** ******   ****** ******    ................

STRAN
 Sect OctLoc
  19     000   ****** ******   ****** ******   ****** ******   ****** ******    ................

DTRAN
 Sect OctLoc
  20     000   ****** ******   ****** ******   ****** ******   ****** ******    ................

SSTRANS
 Sect OctLoc
  21     000   ****** ******   ****** ******   ****** ******   ****** ******    ................

SSGEN
 Sect OctLoc
  22     000   ****** ******   ****** ******   ****** ******   ****** ******    ................

PTR_SCHEMA
 Sect OctLoc
  24     000   000000 006000                                                    ....

PTR_SUBSCHEMA
 Sect OctLoc
  25     000   000000 006000                                                    ....

PTR_PRIVACY_KEY
 Sect OctLoc
  26     000   000000 006000                                                    ....

GAR
 Sect OctLoc
  27     000   ****** ******   ****** ******   ****** ******   ****** ******    ................

PL6.E3A0      #001=ZIG$DDS4 File=ZIG$DDS4.:ZIC0TSI                               FRI 09/05/97 11:49 Page:117
(unnamed)
 Sect OctLoc
  29     000   000002 000000   000000 000001   000002 006000   000001 006000    ................
  29     004   000003 000000   000144 006000   077777 777777   761777 777777    .....d..?.......
  29     010   040040 040040   760177 777777   777603 777777   000001 000000        ............
  29     014   000010 406000   000001 006000   703777 777777   774777 777777    ................
  29     020   000005 406000   000002 406000   000000 006000   000016 406000    ................
  29     024   767777 777777   773777 777777   774177 777777   777775 777777    ................
  29     030   000007 006000   737777 777777   757777 777777   000001 006000    ................
  29     034   777777 777377   000003 606000   000013 206000   000000 606000    ................
  29     040   000004 006000   000001 006000   377777 777777   777677 777777    ................
  29     044   777757 777777   777767 777777   777737 777777   777773 777777    ................
  29     050   000001 006000   000004 006000   000004 606000   000007 606000    ................
  29     054   000001 006000   000004 006000   000001 777640   000000 006000    ................
  29     060   000052 006000   000065 006000                                    .*...5..
      531     6568    1   END ZIG$DDS4;

PL6.E3A0      #001=ZIG$DDS4 File=ZIG$DDS4.:ZIC0TSI                               FRI 09/05/97 11:49 Page:118
--  Include file information  --

   ZIG_DIR_STRUCS.:ZIC0TOU  cannot be made into a system file and is referenced.
   ZIG_FIVESTAR_DESC.:ZIC0TOU  cannot be made into a system file and is referenced.
   ZI_SUB_LANG.:ZIC0TOU  is referenced.
   XU_SUBS_C.:LIB_E05  is referenced.
   XU_MACRO_C.:LIB_E05  is referenced.
   XUH_MACRO_C.:LIB_E05  is referenced.
   CP_6_SUBS.:LIB_E05  is referenced.
   B$JIT_C.:E05TOU  was found in the system file and is never referenced.
   CP_6_C.:E05TOU  was found in the system file and is never referenced.
      No diagnostics issued in procedure ZIG$DDS4.

   Procedure ZIG$DDS4 requires 1222 words for executable code.
   Procedure ZIG$DDS4 requires 20 words of local(AUTO) storage.

    No errors detected in file ZIG$DDS4.:ZIC0TSI    .
PL6.E3A0      #001=ZIG$DDS4 File=ZIG$DDS4.:ZIC0TSI                               FRI 09/05/97 11:49 Page:119
          *** CROSS REFERENCE LISTING ***
**     DENOTES     IDENTIFIER DEFINITION
<<                 IDENTIFIER'S VALUE SET
>>                 IDENTIFIER'S VALUE USED
<>                 IDENTIFIER SET AND/OR USED
--                 IDENTIFIER REFERENCED
PL6.E3A0      #001=ZIG$DDS4 File=ZIG$DDS4.:ZIC0TSI                               FRI 09/05/97 11:49 Page:120
          MINI XREF LISTING

ACCTNAME
        16**DCL      6546--ASSIGN
ALT_HELP
      6566**LABEL    6548--CALLALT  6551--CALLALT  6554--CALLALT
BLK
      6040**DCL        14--PROC     6231--CALLBLT  6231--CALLBLT  6285--ASSIGN   6543--CALLBLT  6543--CALLBLT
BLK.CODE
      6048**DCL      6105>>DOCASE   6107>>DOCASE   6162>>DOCASE   6173>>DOCASE   6214>>DOCASE   6236>>DOCASE
      6262>>DOCASE   6333>>DOCASE   6364>>DOCASE   6424>>DOCASE   6458>>DOCASE   6499>>ASSIGN   6541>>DOCASE
BLK.NSUBLKS
      6052**DCL      6250>>IF       6291>>IF       6385>>IF       6512>>IF       6524>>IF       6532>>IF
      6559>>IF       6560>>DOINDEX
BLK.SUBLK$
      6073**DCL      6128>>ASSIGN   6128>>ASSIGN   6133>>ASSIGN   6133>>ASSIGN   6138>>ASSIGN   6138>>ASSIGN
      6185>>ASSIGN   6185>>ASSIGN   6191>>ASSIGN   6191>>ASSIGN   6286>>ASSIGN   6286>>ASSIGN   6293>>ASSIGN
      6293>>ASSIGN   6297>>ASSIGN   6297>>ASSIGN   6302>>ASSIGN   6302>>ASSIGN   6307>>ASSIGN   6307>>ASSIGN
      6325>>ASSIGN   6325>>ASSIGN   6349>>ASSIGN   6349>>ASSIGN   6352>>ASSIGN   6352>>ASSIGN   6353>>IF
      6436>>ASSIGN   6436>>ASSIGN   6439>>ASSIGN   6439>>ASSIGN   6500>>ASSIGN   6500>>ASSIGN   6512>>CALL
      6517>>IF       6519>>ASSIGN   6519>>ASSIGN   6521>>ASSIGN   6521>>ASSIGN   6525>>CALL     6529>>ASSIGN
      6529>>ASSIGN   6533>>CALL     6547>>ASSIGN   6561>>CALL
DBACSX
      5888**DCL      5914--DCLINIT
DESC
      5702**DCL      5703--REDEF    5712--REDEF    5715--REDEF    5720--REDEF
DESCSIZE IN PROCEDURE PUT_TO_FILE
      6096**DCL      6102<>CALL
DICTS.ALL
      5769**DCL      6123<<ASSIGN   6474<<ASSIGN   6481>>IF       6481<<ASSIGN   6484>>IF       6484<<ASSIGN
      6487>>IF       6487<<ASSIGN   6490>>IF       6490<<ASSIGN   6493>>IF       6493<<ASSIGN   6496>>IF
      6496<<ASSIGN
DICTS.ALL.AREAS
      5771**DCL      6485<<ASSIGN
PL6.E3A0      #001=ZIG$DDS4 File=ZIG$DDS4.:ZIC0TSI                               FRI 09/05/97 11:49 Page:121
DICTS.ALL.FIELDS
      5775**DCL      6497<<ASSIGN
DICTS.ALL.KEYS
      5773**DCL      6491<<ASSIGN
DICTS.ALL.RECORDS
      5774**DCL      6494<<ASSIGN
DICTS.ALL.SCHEMAS
      5770**DCL      6482<<ASSIGN
DICTS.ALL.SETS
      5772**DCL      6488<<ASSIGN
DICTS.DISP_KEY
      5783**DCL      6125<<ASSIGN   6465--ASSIGN   6477--ASSIGN
DICTS.NAMES
      5776**DCL      6124<<ASSIGN
DICTS.NAMES.AREA_NAMES
      5777**DCL      6503<<ASSIGN
DICTS.NAMES.DATA_NAMES
      5781**DCL      6516<<ASSIGN
DICTS.NAMES.KEY_NAMES
      5779**DCL      6507<<ASSIGN
DICTS.NAMES.RECORD_NAMES
      5780**DCL      6509<<ASSIGN
DICTS.NAMES.SET_NAMES
      5778**DCL      6505<<ASSIGN
DICTS.SCHEMA_DICT
      5767**DCL      6462<<ASSIGN   6471<<ASSIGN
DICTS.SNAME
      5784**DCL      6467--ASSIGN   6473<<ASSIGN
DICTS.SSNAME
      5785**DCL      6463<<ASSIGN   6472<<ASSIGN
DICTS.STATUS
      5766**DCL      6122<<ASSIGN
DICTS.SUBSCHEMA_DICT
      5768**DCL      6461<<ASSIGN   6470<<ASSIGN
DICT_DESC
      5703**DCL      6511--CALL     6523--CALL     6531--CALL
PL6.E3A0      #001=ZIG$DDS4 File=ZIG$DDS4.:ZIC0TSI                               FRI 09/05/97 11:49 Page:122
DICT_DESC.NAME
      5710**DCL      6521<<ASSIGN   6529<<ASSIGN
DICT_DESC.NAME_TYPE
      5704**DCL      6499<<ASSIGN   6501>>DOCASE   6515<<ASSIGN
DICT_DESC.QUAL
      5709**DCL      6500<<ASSIGN   6519<<ASSIGN   6528<<ASSIGN
DISPS.COPY_FILE_CODE
      5802**DCL      6120<<ASSIGN
DISPS.DISP_KEY
      5803**DCL      6121<<ASSIGN   6432--ASSIGN   6449--ASSIGN
DISPS.SACTS_FROM_DATE
      5800**DCL      6118<<ASSIGN   6436<<ASSIGN
DISPS.SACTS_THRU_DATE
      5801**DCL      6119<<ASSIGN   6439<<ASSIGN
DISPS.SCHEMA_DISP
      5788**DCL      6428<<ASSIGN   6443<<ASSIGN
DISPS.SDISP_TYPES
      5790**DCL      6117<<ASSIGN
DISPS.SDISP_TYPES.DDL
      5791**DCL      6145<<ASSIGN
DISPS.SDISP_TYPES.DMCL
      5792**DCL      6148<<ASSIGN
DISPS.SDISP_TYPES.SACTS
      5793**DCL      6151<<ASSIGN
DISPS.SNAME
      5804**DCL      6430<<ASSIGN   6451--ASSIGN
DISPS.SSDISP_TYPES.FORT_INCL
      5795**DCL      6453<<ASSIGN
DISPS.SSNAME
      5805**DCL      6429<<ASSIGN   6445<<ASSIGN
DISPS.STATUS
      5787**DCL      6116<<ASSIGN
DISPS.SUBSCHEMA_DISP
      5789**DCL      6427<<ASSIGN   6444<<ASSIGN
DTRAN.ALTER_KEY
      5846**DCL      6248--ASSIGN
PL6.E3A0      #001=ZIG$DDS4 File=ZIG$DDS4.:ZIC0TSI                               FRI 09/05/97 11:49 Page:123
DTRAN.ALTER_MODE
      5844**DCL      6242<<ASSIGN   6246<<ASSIGN
DTRAN.DATA
      5842**DCL      6240<<ASSIGN   6252<<ASSIGN   6256<<ASSIGN
DTRAN.SNAME
      5847**DCL      6243<<ASSIGN
DTRAN.STATUS
      5841**DCL      6239<<ASSIGN
DTRAN.STORAGE
      5843**DCL      6241<<ASSIGN   6253<<ASSIGN   6258<<ASSIGN
FIVE_STAR_OPEN
        21**DCL      6097>>IF       6100<<ASSIGN   6156>>IF       6158<<ASSIGN
GAR
      6087**DCL      6084--DCLINIT  6085--DCLINIT  6086--DCLINIT
HELP_IDS_CODE
        23**DCL-ENT  6544--CALL
HELP_PARAM
      5910**DCL      6548<>CALL     6551<>CALL     6554<>CALL
HELP_PARAM.ALL#
      5922**DCL      6553<<ASSIGN
HELP_PARAM.ERR
      5927**DCL      6566<>CALL
HELP_PARAM.HELP$
      5920**DCL      6547<<ASSIGN
HELP_PARAM.MORE#
      5923**DCL      6550<<ASSIGN
HELP_PARAM.PROCACCT_
      5915**DCL      6546<<ASSIGN
HELP_PHRASE_DDER
        24**DCL-ENT  6566--CALL
IDS_CODE
        22**DCL      6543<<CALLBLT  6544<>CALL
J
      6081**DCL      6167<<ASSIGN   6181<<ASSIGN   6199<<ASSIGN   6201<<ASSIGN   6219<<ASSIGN   6244<<ASSIGN
      6264<<ASSIGN   6340<<ASSIGN   6366<<ASSIGN   6409<<ASSIGN   6426<<ASSIGN   6446<<ASSIGN   6454<<ASSIGN
      6460<<ASSIGN   6475<<ASSIGN   6540<<ASSIGN
PL6.E3A0      #001=ZIG$DDS4 File=ZIG$DDS4.:ZIC0TSI                               FRI 09/05/97 11:49 Page:124
K
      6082**DCL      6560<<DOINDEX  6561>>CALL
LOCKS.ASSIGNS
      5827**DCL      6337<<ASSIGN   6347<<ASSIGN
LOCKS.LIST
      5826**DCL      6336<<ASSIGN   6345<<ASSIGN
LOCKS.LOCKS_KEY
      5830**DCL      6338<<ASSIGN   6343--ASSIGN
LOCKS.SNAME
      5831**DCL      6339--ASSIGN
LOCKS.STATUS
      5825**DCL      6335<<ASSIGN
LOCK_DESC
      5715**DCL      6354--CALL     6359--CALL
LOCK_DESC.LOCK_NAME
      5717**DCL      6349<<ASSIGN
LOCK_DESC.LOCK_VALUE
      5718**DCL      6352<<ASSIGN
LOCK_DESC.NULLL
      5716**DCL      6355<<ASSIGN   6358<<ASSIGN
OLD_SCHEMA_NAME
        18**DCL      6128<<ASSIGN   6129>>ASSIGN   6218>>ASSIGN   6243>>ASSIGN   6430>>ASSIGN   6473>>ASSIGN
OUT
      5957**DCL      6512<>CALL     6525<>CALL     6533<>CALL     6561<>CALL
OUT.CODE
      5965**DCL      6517>>IF
OUT.SUBLK$
      5990**DCL      6128>>ASSIGN   6128>>ASSIGN   6133>>ASSIGN   6133>>ASSIGN   6191>>ASSIGN   6191>>ASSIGN
      6191>>ASSIGN   6191>>ASSIGN   6286>>ASSIGN   6286>>ASSIGN   6293>>ASSIGN   6293>>ASSIGN   6297>>ASSIGN
      6297>>ASSIGN   6302>>ASSIGN   6302>>ASSIGN   6302>>ASSIGN   6302>>ASSIGN   6307>>ASSIGN   6307>>ASSIGN
      6325>>ASSIGN   6325>>ASSIGN   6500>>ASSIGN   6500>>ASSIGN   6519>>ASSIGN   6519>>ASSIGN   6519>>ASSIGN
      6519>>ASSIGN   6521>>ASSIGN   6521>>ASSIGN   6529>>ASSIGN   6529>>ASSIGN
PTR_OUT IN PROCEDURE PUT_TO_FILE
      6093**DCL      6092--PROC     6102<>CALL
PTR_PRIVACY_KEY
      6086**DCL      6138>>ASSIGN   6189<<ASSIGN   6248<<ASSIGN   6278<<ASSIGN   6343<<ASSIGN   6416<<ASSIGN
PL6.E3A0      #001=ZIG$DDS4 File=ZIG$DDS4.:ZIC0TSI                               FRI 09/05/97 11:49 Page:125
      6418<<ASSIGN   6432<<ASSIGN   6449<<ASSIGN   6465<<ASSIGN   6477<<ASSIGN
PTR_SCHEMA
      6084**DCL      6129>>ASSIGN   6169<<ASSIGN   6180<<ASSIGN   6210<<ASSIGN   6274<<ASSIGN   6339<<ASSIGN
      6420<<ASSIGN   6451<<ASSIGN   6467<<ASSIGN
PTR_SUBSCHEMA
      6085**DCL      6134>>ASSIGN   6166<<ASSIGN   6202<<ASSIGN   6271<<ASSIGN   6367<<ASSIGN
PURGE.ALTER_KEY
      5763**DCL      6179<<ASSIGN   6189--ASSIGN
PURGE.SACTS_RET_DATE
      5762**DCL      6178<<ASSIGN   6185<<ASSIGN
PURGE.SDICT_SSNAMES
      5758**DCL      6177<<ASSIGN
PURGE.SDICT_SSNAMES.ALL
      5759**DCL      6197<<ASSIGN
PURGE.SDICT_SSNAMES.SSNAMES
      5760**DCL      6194<<ASSIGN
PURGE.SNAME
      5764**DCL      6180--ASSIGN
PURGE.STATUS
      5752**DCL      6175<<ASSIGN
PURGE.TYPE
      5753**DCL      6176<<ASSIGN
PURGE.TYPE.DDL
      5754**DCL      6146<<ASSIGN
PURGE.TYPE.DMCL
      5755**DCL      6149<<ASSIGN
PURGE.TYPE.SACTS
      5756**DCL      6152<<ASSIGN
PURGE.TYPE.SDICT
      5757**DCL      6154<<ASSIGN
PURGE_DESC
      5712**DCL      6193--CALL
PURGE_DESC.SS_NAMES
      5713**DCL      6191<<ASSIGN
PUT_TO_FILE
      6092**PROC     6193--CALL     6308--CALL     6354--CALL     6359--CALL     6511--CALL     6523--CALL
PL6.E3A0      #001=ZIG$DDS4 File=ZIG$DDS4.:ZIC0TSI                               FRI 09/05/97 11:49 Page:126
      6531--CALL
SSGEN.ALIAS_NAMES
      5855**DCL      6266<<ASSIGN   6276<<ASSIGN
SSGEN.COPY_FILE_CODE
      5856**DCL      6267<<ASSIGN
SSGEN.DISP_KEY
      5857**DCL      6268<<ASSIGN   6278--ASSIGN
SSGEN.MAP
      5860**DCL      6270<<ASSIGN   6327<<ASSIGN   6329<<ASSIGN
SSGEN.SNAME
      5859**DCL      6269<<ASSIGN   6274--ASSIGN
SSGEN.SSNAME
      5858**DCL      6271--ASSIGN
SSGEN.STATUS
      5854**DCL      6265<<ASSIGN
SSGEN_DESC
      5720**DCL      6308--CALL
SSGEN_DESC.ALIAS_TYPE
      5721**DCL      6285<<ASSIGN   6289<<ASSIGN
SSGEN_DESC.S.NAME
      5724**DCL      6286<<ASSIGN   6293<<ASSIGN   6297<<ASSIGN
SSGEN_DESC.S.QUAL
      5723**DCL      6290<<ASSIGN   6302<<ASSIGN   6325<<ASSIGN
SSGEN_DESC.SS.NAME
      5726**DCL      6307<<ASSIGN
SSTRANS.SNAME
      5851**DCL      6165<<ASSIGN   6169--ASSIGN
SSTRANS.SSNAME
      5852**DCL      6166--ASSIGN
SSTRANS.STATUS
      5849**DCL      6164<<ASSIGN
STRAN.ADD_PG
      5836**DCL      6224<<ASSIGN   6229<<ASSIGN
STRAN.ALLOC_PG
      5835**DCL      6223<<ASSIGN   6227<<ASSIGN
STRAN.NUM_PG
PL6.E3A0      #001=ZIG$DDS4 File=ZIG$DDS4.:ZIC0TSI                               FRI 09/05/97 11:49 Page:127
      5839**DCL      6225<<ASSIGN   6231<<CALLBLT
STRAN.SNAME
      5838**DCL      6218<<ASSIGN
STRAN.STATUS
      5833**DCL      6216<<ASSIGN
STRAN.XREF
      5834**DCL      6217<<ASSIGN   6221<<ASSIGN
STRING_12
      6089**DCL      6138<<ASSIGN
STRING_30
      6088**DCL      6129<<ASSIGN   6134<<ASSIGN
SUBSCHEMA_NAME
        19**DCL      6133<<ASSIGN   6134>>ASSIGN   6445>>ASSIGN   6463>>ASSIGN
SUB_LANGUAGE
      5573**DCL      6317<<ASSIGN   6319<<ASSIGN   6321<<ASSIGN   6323<<ASSIGN
SYM.CODE
      6009**DCL      6285>>ASSIGN
SYM.COUNT
      6026**DCL      6029--IMP-SIZ  6128>>ASSIGN   6133>>ASSIGN   6138>>ASSIGN   6185>>ASSIGN   6191>>ASSIGN
      6231>>CALLBLT  6286>>ASSIGN   6293>>ASSIGN   6297>>ASSIGN   6302>>ASSIGN   6307>>ASSIGN   6325>>ASSIGN
      6349>>ASSIGN   6352>>ASSIGN   6353>>IF       6436>>ASSIGN   6439>>ASSIGN   6500>>ASSIGN   6519>>ASSIGN
      6521>>ASSIGN   6529>>ASSIGN   6543>>CALLBLT
SYM.TEXT
      6029**DCL      6128>>ASSIGN   6133>>ASSIGN   6138>>ASSIGN   6185>>ASSIGN   6191>>ASSIGN   6231>>CALLBLT
      6286>>ASSIGN   6293>>ASSIGN   6297>>ASSIGN   6302>>ASSIGN   6307>>ASSIGN   6325>>ASSIGN   6349>>ASSIGN
      6352>>ASSIGN   6436>>ASSIGN   6439>>ASSIGN   6500>>ASSIGN   6519>>ASSIGN   6521>>ASSIGN   6529>>ASSIGN
      6543>>CALLBLT
SYM.TEXTC$
      6021**DCL      6547>>ASSIGN
UCLOSE
        25**DCL-ENT  6157--CALL
UOPEN IN PROCEDURE PUT_TO_FILE
      6094**DCL-ENT  6099--CALL
UPUT IN PROCEDURE PUT_TO_FILE
      6095**DCL-ENT  6102--CALL
VALIDS.AREA_XREF
PL6.E3A0      #001=ZIG$DDS4 File=ZIG$DDS4.:ZIC0TSI                               FRI 09/05/97 11:49 Page:128
      5814**DCL      6371<<ASSIGN   6391<<ASSIGN   6399<<ASSIGN
VALIDS.COPY_KEY
      5820**DCL      6208<<ASSIGN   6380<<ASSIGN   6416--ASSIGN
VALIDS.COPY_LOCK
      5810**DCL      6204<<ASSIGN   6375<<ASSIGN
VALIDS.DIAG_KEY
      5821**DCL      6209<<ASSIGN   6381<<ASSIGN   6418--ASSIGN
VALIDS.DIAG_LOCK
      5811**DCL      6205<<ASSIGN   6376<<ASSIGN
VALIDS.FR_NAMES
      5813**DCL      6378<<ASSIGN   6413<<ASSIGN
VALIDS.GEN_RVA
      5818**DCL      6207<<ASSIGN   6379<<ASSIGN   6407<<ASSIGN
VALIDS.ICLST
      5809**DCL      6370<<ASSIGN   6387<<ASSIGN   6395<<ASSIGN
VALIDS.MODE
      5812**DCL      6206<<ASSIGN   6377<<ASSIGN   6411<<ASSIGN
VALIDS.PARAM_XREF
      5816**DCL      6373<<ASSIGN   6390<<ASSIGN   6405<<ASSIGN
VALIDS.RECORD_XREF
      5815**DCL      6372<<ASSIGN   6389<<ASSIGN   6401<<ASSIGN
VALIDS.SET_XREF
      5817**DCL      6374<<ASSIGN   6392<<ASSIGN   6403<<ASSIGN
VALIDS.SNAME
      5822**DCL      6210--ASSIGN   6382<<ASSIGN   6420--ASSIGN
VALIDS.SSNAME
      5823**DCL      6202--ASSIGN   6367--ASSIGN
VALIDS.STATUS
      5807**DCL      6203<<ASSIGN   6368<<ASSIGN
VALIDS.XLST
      5808**DCL      6369<<ASSIGN   6388<<ASSIGN   6397<<ASSIGN
X$HELP
        27**DCL-ENT  6548--CALL     6551--CALL     6554--CALL
ZIG$DDS4
        14**PROC     6512--CALL     6525--CALL     6533--CALL     6561--CALL
