
PL6.E3A0      #001=COMPRD File=ZIG$DDS5.:ZIC0TSI                                 FRI 09/05/97 11:49 Page:1
        1        1        /*M*     ZIG$DDS5       TO READ THROW M$SI */
        2        2        /*T***********************************************************/
        3        3        /*T*                                                         */
        4        4        /*T* Copyright (c) Bull HN Information Systems Inc., 1997    */
        5        5        /*T*                                                         */
        6        6        /*T***********************************************************/
        7        7        /*P*
        8        8            NAME:     COMPRD.
        9        9            PURPOSE:  IT IS TO READ THROW M$SI BY CALLING EXREAD AND SET THE
       10       10                 FLAG NCS TO SHOW IF WE HAVE THE START OF A NEW DIRECTIVE.
       11       11        */
       12       12        COMPRD:
       13       13            PROC;
       14       14        %INCLUDE B$TABLES_C;
       15      122        %B$SR_NON_BLANK;
       16      126        %B$XL_UPPER;
       17      130    1   DCL EOFFLG UBIN (36) EXT;
       18      131    1   DCL EXREAD ENTRY;
       19      132    1   DCL NCS UBIN (36) EXT;
       20      133    1   DCL REC CHAR (80) EXT;
       21      134    1   DCL UPPER_REC CHAR (80);
       22      135    1   DCL NUM_CHAR_READ UBIN (36) EXT;
       23      136    1   DCL I UBIN (36) ;
       24      137    1   DCL J UBIN WORD;
       25      138    1   DCL DISP_STR CHAR(9) CONSTANT INIT('DISPLAY  ');
       26      139    1   DCL GEN_STR CHAR(9) CONSTANT INIT('GENERATE ');
       27      140    1   DCL TRANS_STR CHAR(9) CONSTANT INIT('TRANSLATE');
       28      141    1   DCL VALID_STR CHAR(9) CONSTANT INIT('VALIDATE ');
       29      142    1   DCL RDWORD BIT (1) EXT;
       30      143    1   DCL FOUND_PER BIT (1) STATIC SYMDEF;
       31      144         %EJECT;
PL6.E3A0      #001=COMPRD File=ZIG$DDS5.:ZIC0TSI                                 FRI 09/05/97 11:49 Page:2
       32      145    1   ZIG$DDS5: ENTRY;
       33      146    1       IF EOFFLG = 0 & RDWORD
       34      147    2       THEN DO;
       35      148        /**************
       36      149                 Read the next line if we don't already have a
       37      150                 unused line in rec.
       38      151                 Rdword tells use if we have used the line or not.
       39      152        **************/
       40      153    2           CALL EXREAD;
       41      154    2           END;
       42      155    1       IF EOFFLG ~= 0
       43      156    2       THEN DO;
       44      157    2           NCS=1;
       45      158    2           RETURN;
       46      159    2           END;
       47      160    1       CALL SEARCH(I,J,B$SR_NON_BLANK,SUBSTR(REC,0,NUM_CHAR_READ))
       48      161    2       WHENALTRETURN DO;
       49      162    2           NCS = 0;
       50      163    2           RETURN;
       51      164    2           END;
       52      165    1       CALL INDEX(J,' ',SUBSTR(REC,I,NUM_CHAR_READ-I));
       53      166        /*
       54      167            The longest directive keyword at this time is 9 chars.
       55      168        */
       56      169    1       IF J > 9
       57      170    2       THEN DO;
       58      171    2           NCS = 0;
       59      172    2           RETURN;
       60      173    2           END;
       61      174    1       CALL XLATE(UPPER_REC,B$XL_UPPER,REC);
       62      175        /*
       63      176            REC has been converted to all capital letters for comparison to
       64      177            keywords either in their entirety or with at least the minimum
       65      178            number of letters in abbreviations.
       66      179        */
       67      180    1       IF SUBSTR(UPPER_REC,I,1) = '?' OR
       68      181    1          SUBSTR(UPPER_REC,I,J) = 'ASSIGN' OR
PL6.E3A0      #001=COMPRD File=ZIG$DDS5.:ZIC0TSI                                 FRI 09/05/97 11:49 Page:3
       69      182    1          SUBSTR(UPPER_REC,I,J) = 'DBACS' OR
       70      183    1          SUBSTR(UPPER_REC,I,J) = SUBSTR(DISP_STR,0,MAXIMUM(4,J)) OR
       71      184    1          SUBSTR(UPPER_REC,I,J) = SUBSTR(GEN_STR,0,MAXIMUM(3,J)) OR
       72      185    1          SUBSTR(UPPER_REC,I,J) = 'HELP' OR
       73      186    1          SUBSTR(UPPER_REC,I,J) = 'PURGE' OR
       74      187    1          SUBSTR(UPPER_REC,I,J) = 'REPLACE' OR
       75      188    1          SUBSTR(UPPER_REC,I,J) = SUBSTR(TRANS_STR,0,MAXIMUM(5,J)) OR
       76      189    1          SUBSTR(UPPER_REC,I,J) = SUBSTR(VALID_STR,0,MAXIMUM(5,J))
       77      190    1       THEN
       78      191    1           NCS = 1;
       79      192    1       ELSE
       80      193    1           NCS = 0;
       81      194    1       RETURN;
       82      195    1   END COMPRD;
       83      196         %EOD;

PL6.E3A0      #001=COMPRD File=ZIG$DDS5.:ZIC0TSI                                 FRI 09/05/97 11:49 Page:4
--  Include file information  --

   B$TABLES_C.:LIB_E05  cannot be made into a system file and is referenced.
   B$JIT_C.:E05TOU  was found in the system file and is never referenced.
   CP_6_C.:E05TOU  was found in the system file and is never referenced.
      No diagnostics issued in procedure COMPRD.

   Procedure COMPRD requires 124 words for executable code.
   Procedure COMPRD requires 28 words of local(AUTO) storage.

PL6.E3A0      #001=COMPRD File=ZIG$DDS5.:ZIC0TSI                                 FRI 09/05/97 11:49 Page:5

 Object Unit name= COMPRD                                     File name= ZIG$DDS5.:ZIC0TOU
 UTS= SEP 05 '97 11:49:59.32 FRI                              Compiler= PL-6/E31         Sev=      00
 SharedLib= :SHARED_SYSTEM                                    Alt SharedLib=


    ****  Control sections  ****

 Sect   Type Bound  Init  Size OctSiz  Section name(segment info)
    0  LblCom even  none     1      1  EOFFLG
    1  LblCom even  none     1      1  NCS
    2  LblCom even  none    20     24  REC
    3  LblCom even  none     1      1  NUM_CHAR_READ
    4  RoData even  UTS     21     25  COMPRD
    5  LblCom even  none     1      1  RDWORD
    6   Data  even  none     1      1  COMPRD
    7   Proc  even  none   124    174  COMPRD
    8  RoData even  none     3      3  COMPRD

    ****  Entry defs  ****

                              Check   Calling
                             calling  sequence
  Sect OctLoc Primary Altret sequence   type   Parms  Name
     7      0   yes            yes      Std        0  COMPRD
     7      3                  yes      Std        0  ZIG$DDS5

  ****  Data defs  ****

 Sect OctLoc  Name                           Sect OctLoc  Name
    6      0  FOUND_PER
PL6.E3A0      #001=COMPRD File=ZIG$DDS5.:ZIC0TSI                                 FRI 09/05/97 11:49 Page:6

  ****  Entry refs  ****

         Check        Calling
        calling       sequence
Altret sequence SRef   type   Args  Name
         yes          ~proc      0 B_POINTER
         yes           Std       0 EXREAD
                       nStd      0 X66_AUTO_0
                       nStd      0 X66_ARET

  ****  Data refs  ****

  Flags:  r = read only, s = secondary
Flgs Name                             Flgs Name                             Flgs Name
r    B$SR_NON_BLANK$                  r    B$XL_UPPER$
PL6.E3A0      #001=COMPRD File=ZIG$DDS5.:ZIC0TSI                                 FRI 09/05/97 11:49 Page:7


        1        1        /*M*     ZIG$DDS5       TO READ THROW M$SI */
        2        2        /*T***********************************************************/
        3        3        /*T*                                                         */
        4        4        /*T* Copyright (c) Bull HN Information Systems Inc., 1997    */
        5        5        /*T*                                                         */
        6        6        /*T***********************************************************/
        7        7        /*P*
        8        8            NAME:     COMPRD.
        9        9            PURPOSE:  IT IS TO READ THROW M$SI BY CALLING EXREAD AND SET THE
       10       10                 FLAG NCS TO SHOW IF WE HAVE THE START OF A NEW DIRECTIVE.
       11       11        */
       12       12        COMPRD:
       13       13            PROC;

     13  7 000000   000000 700200 xent  COMPRD       TSX0  ! X66_AUTO_0
         7 000001   000034 000000                    ZERO    28,0
         7 000002   000005 710000 7                  TRA     s:146

       14       14        %INCLUDE B$TABLES_C;
       15      122        %B$SR_NON_BLANK;
       16      126        %B$XL_UPPER;
       17      130    1   DCL EOFFLG UBIN (36) EXT;
       18      131    1   DCL EXREAD ENTRY;
       19      132    1   DCL NCS UBIN (36) EXT;
       20      133    1   DCL REC CHAR (80) EXT;
       21      134    1   DCL UPPER_REC CHAR (80);
       22      135    1   DCL NUM_CHAR_READ UBIN (36) EXT;
       23      136    1   DCL I UBIN (36) ;
       24      137    1   DCL J UBIN WORD;
       25      138    1   DCL DISP_STR CHAR(9) CONSTANT INIT('DISPLAY  ');
       26      139    1   DCL GEN_STR CHAR(9) CONSTANT INIT('GENERATE ');
       27      140    1   DCL TRANS_STR CHAR(9) CONSTANT INIT('TRANSLATE');
       28      141    1   DCL VALID_STR CHAR(9) CONSTANT INIT('VALIDATE ');
       29      142    1   DCL RDWORD BIT (1) EXT;
       30      143    1   DCL FOUND_PER BIT (1) STATIC SYMDEF;
       31      144         %EJECT;
PL6.E3A0      #001=COMPRD File=ZIG$DDS5.:ZIC0TSI                                 FRI 09/05/97 11:49 Page:8
       32      145    1   ZIG$DDS5: ENTRY;

    145  7 000003   000000 700200 xent  ZIG$DDS5     TSX0  ! X66_AUTO_0
         7 000004   000034 000000                    ZERO    28,0

       33      146    1       IF EOFFLG = 0 & RDWORD

    146  7 000005   400000 220003                    LDX0    -131072,DU
         7 000006   000000 235000 0                  LDA     EOFFLG
         7 000007   000011 600000 7                  TZE     s:146+4
         7 000010   000000 220003                    LDX0    0,DU
         7 000011   000000 236000 5                  LDQ     RDWORD
         7 000012   400000 376003                    ANQ     -131072,DU
         7 000013   200032 756100                    STQ     J+2,,AUTO
         7 000014   000000 636010                    EAQ     0,X0
         7 000015   200032 376100                    ANQ     J+2,,AUTO
         7 000016   000022 600000 7                  TZE     s:155

       34      147    2       THEN DO;

       35      148        /**************
       36      149                 Read the next line if we don't already have a
       37      150                 unused line in rec.
       38      151                 Rdword tells use if we have used the line or not.
       39      152        **************/
       40      153    2           CALL EXREAD;

    153  7 000017   000000 631400 8                  EPPR1   0
         7 000020   000000 701000 xent               TSX1    EXREAD
         7 000021   000000 011000                    NOP     0

       41      154    2           END;

       42      155    1       IF EOFFLG ~= 0

    155  7 000022   000000 235000 0                  LDA     EOFFLG
         7 000023   000027 600000 7                  TZE     s:160
PL6.E3A0      #001=COMPRD File=ZIG$DDS5.:ZIC0TSI                                 FRI 09/05/97 11:49 Page:9

       43      156    2       THEN DO;

       44      157    2           NCS=1;

    157  7 000024   000001 236007                    LDQ     1,DL
         7 000025   000000 756000 1                  STQ     NCS

       45      158    2           RETURN;

    158  7 000026   000000 702200 xent               TSX2  ! X66_ARET

       46      159    2           END;
       47      160    1       CALL SEARCH(I,J,B$SR_NON_BLANK,SUBSTR(REC,0,NUM_CHAR_READ))

    160  7 000027   000000 470400 xsym               LDP0    B$SR_NON_BLANK$
         7 000030   000000 720000 3                  LXL0    NUM_CHAR_READ
         7 000031   000000 164440                    TCT
         7 000032   000000 000010 2                  ADSC9   REC                      cn=0,n=*X0
         7 000033   000000 000100                    ARG     0,,PR0
         7 000034   200027 000100                    ARG     I,,AUTO
         7 000035   200027 236100                    LDQ     I,,AUTO
         7 000036   000044 737000                    LLS     36
         7 000037   000033 771000                    ARL     27
         7 000040   200030 755100                    STA     J,,AUTO
         7 000041   200027 551140                    STBA    I,'40'O,AUTO
         7 000042   000044 606400 7                  TTN     s:162
         7 000043   000046 710000 7                  TRA     s:165

       48      161    2       WHENALTRETURN DO;

       49      162    2           NCS = 0;

    162  7 000044   000000 450000 1                  STZ     NCS

       50      163    2           RETURN;

PL6.E3A0      #001=COMPRD File=ZIG$DDS5.:ZIC0TSI                                 FRI 09/05/97 11:49 Page:10
    163  7 000045   000000 702200 xent               TSX2  ! X66_ARET

       51      164    2           END;
       52      165    1       CALL INDEX(J,' ',SUBSTR(REC,I,NUM_CHAR_READ-I));

    165  7 000046   000000 236000 3                  LDQ     NUM_CHAR_READ
         7 000047   200027 136100                    SBLQ    I,,AUTO
         7 000050   000000 621006                    EAX1    0,QL
         7 000051   200027 236100                    LDQ     I,,AUTO
         7 000052   000000 124446                    SCM     mask='000'O
         7 000053   000000 000011 2                  ADSC9   REC,Q                    cn=0,n=*X1
         7 000054   000001 000001 8                  ADSC9   1                        cn=0,n=1
         7 000055   200030 000100                    ARG     J,,AUTO

       53      166        /*
       54      167            The longest directive keyword at this time is 9 chars.
       55      168        */
       56      169    1       IF J > 9

    169  7 000056   200030 235100                    LDA     J,,AUTO
         7 000057   000012 115007                    CMPA    10,DL
         7 000060   000063 602000 7                  TNC     s:174

       57      170    2       THEN DO;

       58      171    2           NCS = 0;

    171  7 000061   000000 450000 1                  STZ     NCS

       59      172    2           RETURN;

    172  7 000062   000000 702200 xent               TSX2  ! X66_ARET

       60      173    2           END;
       61      174    1       CALL XLATE(UPPER_REC,B$XL_UPPER,REC);

    174  7 000063   000000 471400 xsym               LDP1    B$XL_UPPER$
PL6.E3A0      #001=COMPRD File=ZIG$DDS5.:ZIC0TSI                                 FRI 09/05/97 11:49 Page:11
         7 000064   040100 160400                    MVT     fill='040'O
         7 000065   000000 000120 2                  ADSC9   REC                      cn=0,n=80
         7 000066   200003 000120                    ADSC9   UPPER_REC,,AUTO          cn=0,n=80
         7 000067   100000 000100                    ARG     0,,PR1

       62      175        /*
       63      176            REC has been converted to all capital letters for comparison to
       64      177            keywords either in their entirety or with at least the minimum
       65      178            number of letters in abbreviations.
       66      179        */
       67      180    1       IF SUBSTR(UPPER_REC,I,1) = '?' OR

    180  7 000070   040000 106506                    CMPC    fill='040'O
         7 000071   200003 000001                    ADSC9   UPPER_REC,Q,AUTO         cn=0,n=1
         7 000072   000002 000001 8                  ADSC9   2                        cn=0,n=1
         7 000073   000167 600000 7                  TZE     s:191
         7 000074   000000 621005                    EAX1    0,AL
         7 000075   040000 106546                    CMPC    fill='040'O
         7 000076   200003 000011                    ADSC9   UPPER_REC,Q,AUTO         cn=0,n=*X1
         7 000077   000014 000006 4                  ADSC9   VALID_STR+3              cn=0,n=6
         7 000100   000167 600000 7                  TZE     s:191
         7 000101   200030 721100                    LXL1    J,,AUTO
         7 000102   040000 106546                    CMPC    fill='040'O
         7 000103   200003 000011                    ADSC9   UPPER_REC,Q,AUTO         cn=0,n=*X1
         7 000104   000016 000005 4                  ADSC9   VALID_STR+5              cn=0,n=5
         7 000105   000167 600000 7                  TZE     s:191
         7 000106   200030 236100                    LDQ     J,,AUTO
         7 000107   000004 116007                    CMPQ    4,DL
         7 000110   000112 603000 7                  TRC     s:180+18
         7 000111   000004 236007                    LDQ     4,DL
         7 000112   200027 235100                    LDA     I,,AUTO
         7 000113   000000 622006                    EAX2    0,QL
         7 000114   040040 106545                    CMPC    fill='040'O
         7 000115   200003 000011                    ADSC9   UPPER_REC,A,AUTO         cn=0,n=*X1
         7 000116   000000 000012 4                  ADSC9   DISP_STR                 cn=0,n=*X2
         7 000117   000167 600000 7                  TZE     s:191
         7 000120   200030 236100                    LDQ     J,,AUTO
PL6.E3A0      #001=COMPRD File=ZIG$DDS5.:ZIC0TSI                                 FRI 09/05/97 11:49 Page:12
         7 000121   000003 116007                    CMPQ    3,DL
         7 000122   000124 603000 7                  TRC     s:180+28
         7 000123   000003 236007                    LDQ     3,DL
         7 000124   000000 622006                    EAX2    0,QL
         7 000125   040040 106545                    CMPC    fill='040'O
         7 000126   200003 000011                    ADSC9   UPPER_REC,A,AUTO         cn=0,n=*X1
         7 000127   000003 000012 4                  ADSC9   GEN_STR                  cn=0,n=*X2
         7 000130   000167 600000 7                  TZE     s:191
         7 000131   040000 106545                    CMPC    fill='040'O
         7 000132   200003 000011                    ADSC9   UPPER_REC,A,AUTO         cn=0,n=*X1
         7 000133   000020 000004 4                  ADSC9   VALID_STR+7              cn=0,n=4
         7 000134   000167 600000 7                  TZE     s:191
         7 000135   040000 106545                    CMPC    fill='040'O
         7 000136   200003 000011                    ADSC9   UPPER_REC,A,AUTO         cn=0,n=*X1
         7 000137   000021 000005 4                  ADSC9   VALID_STR+8              cn=0,n=5
         7 000140   000167 600000 7                  TZE     s:191
         7 000141   040000 106545                    CMPC    fill='040'O
         7 000142   200003 000011                    ADSC9   UPPER_REC,A,AUTO         cn=0,n=*X1
         7 000143   000023 000007 4                  ADSC9   VALID_STR+10             cn=0,n=7
         7 000144   000167 600000 7                  TZE     s:191
         7 000145   200030 236100                    LDQ     J,,AUTO
         7 000146   000005 116007                    CMPQ    5,DL
         7 000147   000151 603000 7                  TRC     s:180+49
         7 000150   000005 236007                    LDQ     5,DL
         7 000151   000000 622006                    EAX2    0,QL
         7 000152   040040 106545                    CMPC    fill='040'O
         7 000153   200003 000011                    ADSC9   UPPER_REC,A,AUTO         cn=0,n=*X1
         7 000154   000006 000012 4                  ADSC9   TRANS_STR                cn=0,n=*X2
         7 000155   000167 600000 7                  TZE     s:191
         7 000156   200030 236100                    LDQ     J,,AUTO
         7 000157   000005 116007                    CMPQ    5,DL
         7 000160   000162 603000 7                  TRC     s:180+58
         7 000161   000005 236007                    LDQ     5,DL
         7 000162   000000 622006                    EAX2    0,QL
         7 000163   040040 106545                    CMPC    fill='040'O
         7 000164   200003 000011                    ADSC9   UPPER_REC,A,AUTO         cn=0,n=*X1
         7 000165   000011 000012 4                  ADSC9   VALID_STR                cn=0,n=*X2
PL6.E3A0      #001=COMPRD File=ZIG$DDS5.:ZIC0TSI                                 FRI 09/05/97 11:49 Page:13
         7 000166   000172 601000 7                  TNZ     s:193

       68      181    1          SUBSTR(UPPER_REC,I,J) = 'ASSIGN' OR
       69      182    1          SUBSTR(UPPER_REC,I,J) = 'DBACS' OR
       70      183    1          SUBSTR(UPPER_REC,I,J) = SUBSTR(DISP_STR,0,MAXIMUM(4,J)) OR
       71      184    1          SUBSTR(UPPER_REC,I,J) = SUBSTR(GEN_STR,0,MAXIMUM(3,J)) OR
       72      185    1          SUBSTR(UPPER_REC,I,J) = 'HELP' OR
       73      186    1          SUBSTR(UPPER_REC,I,J) = 'PURGE' OR
       74      187    1          SUBSTR(UPPER_REC,I,J) = 'REPLACE' OR
       75      188    1          SUBSTR(UPPER_REC,I,J) = SUBSTR(TRANS_STR,0,MAXIMUM(5,J)) OR
       76      189    1          SUBSTR(UPPER_REC,I,J) = SUBSTR(VALID_STR,0,MAXIMUM(5,J))
       77      190    1       THEN
       78      191    1           NCS = 1;

    191  7 000167   000001 235007                    LDA     1,DL
         7 000170   000000 755000 1                  STA     NCS
         7 000171   000173 710000 7                  TRA     s:194

       79      192    1       ELSE
       80      193    1           NCS = 0;

    193  7 000172   000000 450000 1                  STZ     NCS

       81      194    1       RETURN;

    194  7 000173   000000 702200 xent               TSX2  ! X66_ARET

REC
 Sect OctLoc
   2     000   ****** ******   ****** ******   ****** ******   ****** ******    ................

DISP_STR
 Sect OctLoc
   4     000   104111 123120   114101 131040   040*** ******                    DISPLAY  ...

GEN_STR
 Sect OctLoc
PL6.E3A0      #001=COMPRD File=ZIG$DDS5.:ZIC0TSI                                 FRI 09/05/97 11:49 Page:14
   4     003   107105 116105   122101 124105   040*** ******                    GENERATE ...

TRANS_STR
 Sect OctLoc
   4     006   124122 101116   123114 101124   105*** ******                    TRANSLATE...

VALID_STR
 Sect OctLoc
   4     011   126101 114111   104101 124105   040*** ******                    VALIDATE ...

(unnamed)
 Sect OctLoc
   4     014   101123 123111   107116 040040   104102 101103   123040 040040    ASSIGN  DBACS
   4     020   110105 114120   120125 122107   105040 040040   122105 120114    HELPPURGE   REPL
   4     024   101103 105040                                                    ACE

(unnamed)
 Sect OctLoc
   8     000   000000 000000   040040 040040   077040 040040                    ....    ?
       82      195    1   END COMPRD;
       83      196         %EOD;

PL6.E3A0      #001=COMPRD File=ZIG$DDS5.:ZIC0TSI                                 FRI 09/05/97 11:49 Page:15
--  Include file information  --

   B$TABLES_C.:LIB_E05  cannot be made into a system file and is referenced.
   B$JIT_C.:E05TOU  was found in the system file and is never referenced.
   CP_6_C.:E05TOU  was found in the system file and is never referenced.
      No diagnostics issued in procedure COMPRD.

   Procedure COMPRD requires 124 words for executable code.
   Procedure COMPRD requires 28 words of local(AUTO) storage.
PL6.E3A0      #001=COMPRD File=ZIG$DDS5.:ZIC0TSI                                 FRI 09/05/97 11:49 Page:16
          *** CROSS REFERENCE LISTING ***
**     DENOTES     IDENTIFIER DEFINITION
<<                 IDENTIFIER'S VALUE SET
>>                 IDENTIFIER'S VALUE USED
<>                 IDENTIFIER SET AND/OR USED
--                 IDENTIFIER REFERENCED
PL6.E3A0      #001=COMPRD File=ZIG$DDS5.:ZIC0TSI                                 FRI 09/05/97 11:49 Page:17
          MINI XREF LISTING

B$SR_NON_BLANK
       124**DCL       160>>CALLBLT
B$SR_NON_BLANK$
       123**DCL       124--IMP-PTR   160>>CALLBLT
B$XL_UPPER
       128**DCL       174>>CALLBLT
B$XL_UPPER$
       127**DCL       128--IMP-PTR   174>>CALLBLT
DISP_STR
       138**DCL       180>>IF
EOFFLG
       130**DCL       146>>IF        155>>IF
EXREAD
       131**DCL-ENT   153--CALL
GEN_STR
       139**DCL       180>>IF
I
       136**DCL       160<<CALLBLT   165>>CALLBLT   165>>CALLBLT   180>>IF        180>>IF        180>>IF
       180>>IF        180>>IF        180>>IF        180>>IF        180>>IF        180>>IF        180>>IF
J
       137**DCL       160<<CALLBLT   165<<CALLBLT   169>>IF        180>>IF        180>>IF        180>>IF
       180>>IF        180>>IF        180>>IF        180>>IF        180>>IF        180>>IF        180>>IF
       180>>IF        180>>IF        180>>IF
NCS
       132**DCL       157<<ASSIGN    162<<ASSIGN    171<<ASSIGN    191<<ASSIGN    193<<ASSIGN
NUM_CHAR_READ
       135**DCL       160>>CALLBLT   165>>CALLBLT
RDWORD
       142**DCL       146>>IF
REC
       133**DCL       160>>CALLBLT   165>>CALLBLT   174>>CALLBLT
TRANS_STR
PL6.E3A0      #001=COMPRD File=ZIG$DDS5.:ZIC0TSI                                 FRI 09/05/97 11:49 Page:18
       140**DCL       180>>IF
UPPER_REC
       134**DCL       174<<CALLBLT   180>>IF        180>>IF        180>>IF        180>>IF        180>>IF
       180>>IF        180>>IF        180>>IF        180>>IF        180>>IF
VALID_STR
       141**DCL       180>>IF

PL6.E3A0      #002=INITIAL_ONLINE File=ZIG$DDS5.:ZIC0TSI                         FRI 09/05/97 11:50 Page:19
       84        1        /*T***********************************************************/
       85        2        /*T*                                                         */
       86        3        /*T* Copyright (c) Bull HN Information Systems Inc., 1997    */
       87        4        /*T*                                                         */
       88        5        /*T***********************************************************/
       89        6        INITIAL_ONLINE:
       90        7            PROC;
       91        8    1   DCL ONLINE BIT (1) EXT;
       92        9    1   DCL M$SI DCB;
       93       10         %INCLUDE CP_6;
       94       91         %F$DCB;
       95      148    1       IF DCBADDR(DCBNUM(M$SI)) -> F$DCB.DDEV.IC#
       96      149    1       THEN ONLINE = '1'B;
       97      150    1       ELSE ONLINE = '0'B;
       98      151    1       RETURN;
       99      152    1   END INITIAL_ONLINE;
      100      153         %EOD;

PL6.E3A0      #002=INITIAL_ONLINE File=ZIG$DDS5.:ZIC0TSI                         FRI 09/05/97 11:50 Page:20
--  Include file information  --

   CP_6.:LIB_E05  cannot be made into a system file and is referenced.
   B$JIT_C.:E05TOU  was found in the system file and is never referenced.
   CP_6_C.:E05TOU  was found in the system file and is referenced.
      No diagnostics issued in procedure INITIAL_ONLINE.

   Procedure INITIAL_ONLINE requires 14 words for executable code.
   Procedure INITIAL_ONLINE requires 4 words of local(AUTO) storage.

PL6.E3A0      #002=INITIAL_ONLINE File=ZIG$DDS5.:ZIC0TSI                         FRI 09/05/97 11:50 Page:21

 Object Unit name= INITIAL_ONLINE                             File name= ZIG$DDS5.:ZIC0TOU
 UTS= SEP 05 '97 11:50:03.96 FRI                              Compiler= PL-6/E31         Sev=      00
 SharedLib= :SHARED_SYSTEM                                    Alt SharedLib=


    ****  Control sections  ****

 Sect   Type Bound  Init  Size OctSiz  Section name(segment info)
    0  LblCom even  none     1      1  ONLINE
    1   DCB   even  none     0      0  M$SI
    2   DCB   even  none     0      0  M$UC
    3   Proc  even  none    14     16  INITIAL_ONLINE
    4  RoData even  none     1      1  INITIAL_ONLINE

    ****  Entry defs  ****

                              Check   Calling
                             calling  sequence
  Sect OctLoc Primary Altret sequence   type   Parms  Name
     3      0   yes            yes      Std        0  INITIAL_ONLINE

  ****  Entry refs  ****

         Check        Calling
        calling       sequence
Altret sequence SRef   type   Args  Name
                       nStd      0 X66_AUTO_0
                       nStd      0 X66_ARET

  ****  Data refs  ****

  Flags:  r = read only, s = secondary
Flgs Name                             Flgs Name                             Flgs Name
     M$SI                                  M$UC
PL6.E3A0      #002=INITIAL_ONLINE File=ZIG$DDS5.:ZIC0TSI                         FRI 09/05/97 11:50 Page:22

  ****  Segment refs  ****

  Flags:  r = read only, s = secondary
Flgs Name                             Flgs Name                             Flgs Name
     ROSID
PL6.E3A0      #002=INITIAL_ONLINE File=ZIG$DDS5.:ZIC0TSI                         FRI 09/05/97 11:50 Page:23


       84        1        /*T***********************************************************/
       85        2        /*T*                                                         */
       86        3        /*T* Copyright (c) Bull HN Information Systems Inc., 1997    */
       87        4        /*T*                                                         */
       88        5        /*T***********************************************************/
       89        6        INITIAL_ONLINE:
       90        7            PROC;

      7  3 000000   000000 700200 xent  INITIAL_ONL* TSX0  ! X66_AUTO_0
         3 000001   000004 000000                    ZERO    4,0

       91        8    1   DCL ONLINE BIT (1) EXT;
       92        9    1   DCL M$SI DCB;
       93       10         %INCLUDE CP_6;
       94       91         %F$DCB;
       95      148    1       IF DCBADDR(DCBNUM(M$SI)) -> F$DCB.DDEV.IC#

    148  3 000002   000000 236007 xsym               LDQ     M$SI,DL
         3 000003   000000 470400 4                  LDP0    0
         3 000004   000000 471500                    LDP1    0,,PR0
         3 000005   100000 473506                    LDP3    0,QL,PR1
         3 000006   300004 236100                    LDQ     4,,PR3
         3 000007   100000 316007                    CANQ    32768,DL
         3 000010   000014 600000 3                  TZE     s:150

       96      149    1       THEN ONLINE = '1'B;

    149  3 000011   400000 236003                    LDQ     -131072,DU
         3 000012   000000 756000 0                  STQ     ONLINE
         3 000013   000015 710000 3                  TRA     s:151

       97      150    1       ELSE ONLINE = '0'B;

    150  3 000014   000000 450000 0                  STZ     ONLINE

       98      151    1       RETURN;
PL6.E3A0      #002=INITIAL_ONLINE File=ZIG$DDS5.:ZIC0TSI                         FRI 09/05/97 11:50 Page:24

    151  3 000015   000000 702200 xent               TSX2  ! X66_ARET

(unnamed)
 Sect OctLoc
   4     000   000000 006003                                                    ....
       99      152    1   END INITIAL_ONLINE;
      100      153         %EOD;

PL6.E3A0      #002=INITIAL_ONLINE File=ZIG$DDS5.:ZIC0TSI                         FRI 09/05/97 11:50 Page:25
--  Include file information  --

   CP_6.:LIB_E05  cannot be made into a system file and is referenced.
   B$JIT_C.:E05TOU  was found in the system file and is never referenced.
   CP_6_C.:E05TOU  was found in the system file and is referenced.
      No diagnostics issued in procedure INITIAL_ONLINE.

   Procedure INITIAL_ONLINE requires 14 words for executable code.
   Procedure INITIAL_ONLINE requires 4 words of local(AUTO) storage.
PL6.E3A0      #002=INITIAL_ONLINE File=ZIG$DDS5.:ZIC0TSI                         FRI 09/05/97 11:50 Page:26
          *** CROSS REFERENCE LISTING ***
**     DENOTES     IDENTIFIER DEFINITION
<<                 IDENTIFIER'S VALUE SET
>>                 IDENTIFIER'S VALUE USED
<>                 IDENTIFIER SET AND/OR USED
--                 IDENTIFIER REFERENCED
PL6.E3A0      #002=INITIAL_ONLINE File=ZIG$DDS5.:ZIC0TSI                         FRI 09/05/97 11:50 Page:27
          MINI XREF LISTING

F$DCB.ACTPOS
       124**DCL       124--REDEF
F$DCB.ARS#
        98**DCL        98--REDEF
F$DCB.ATTR
       117**DCL       118--REDEF
F$DCB.BORROW
       132**DCL       132--REDEF     132--REDEF     132--REDEF
F$DCB.DCBNAME.L
       146**DCL       146--IMP-SIZ
F$DCB.DDEV.IC#
       104**DCL       148>>IF
F$DCB.EOMCHAR#
       102**DCL       102--REDEF
F$DCB.FLDID
       127**DCL       127--REDEF
F$DCB.FORM$
       121**DCL       121--REDEF
F$DCB.FSECT
       137**DCL       137--REDEF
F$DCB.FSN#
       114**DCL       114--REDEF     114--REDEF     115--REDEF
F$DCB.HEADER$
       120**DCL       120--REDEF
F$DCB.IXTNSIZE#
       118**DCL       118--REDEF
F$DCB.LASTSTA$
       107**DCL       107--REDEF
F$DCB.LVL
       133**DCL       133--REDEF
F$DCB.NAME#.C
       108**DCL       108--REDEF
PL6.E3A0      #002=INITIAL_ONLINE File=ZIG$DDS5.:ZIC0TSI                         FRI 09/05/97 11:50 Page:28
F$DCB.NOEOF
       130**DCL       130--REDEF
F$DCB.NRECS#
       119**DCL       119--REDEF
F$DCB.NRECX
       138**DCL       138--REDEF
F$DCB.OHDR
       130**DCL       130--REDEF
F$DCB.ORG#
       113**DCL       113--REDEF
F$DCB.PRECNO
       136**DCL       136--REDEF
F$DCB.RCSZ
       142**DCL       142--REDEF
F$DCB.RES#
       109**DCL       109--REDEF
F$DCB.SETX
       121**DCL       121--REDEF
F$DCB.TAB$
       121**DCL       121--REDEF
F$DCB.TDA
       135**DCL       136--REDEF
F$DCB.WSN#
       109**DCL       109--REDEF
M$SI
         9**DCL       148--IF
ONLINE
         8**DCL       149<<ASSIGN    150<<ASSIGN

PL6.E3A0      #003=PUT_OUT_LINE File=ZIG$DDS5.:ZIC0TSI                           FRI 09/05/97 11:50 Page:29
      101        1        /*M*     PUT_OUT_LINE   I-D-S/II   DBACS */
      102        2        /*T***********************************************************/
      103        3        /*T*                                                         */
      104        4        /*T* Copyright (c) Bull HN Information Systems Inc., 1997    */
      105        5        /*T*                                                         */
      106        6        /*T***********************************************************/
      107        7        /*P*
      108        8        NAME:    PUT_OUT_LINE
      109        9        PURPOSE: PUT A LINE OUT TO M$LO;
      110       10        */
      111       11        PUT_OUT_LINE:
      112       12            PROC(COUNT,REC_OUT);
      113       13    1   DCL COUNT UBIN (36);
      114       14    1   DCL REC_OUT CHAR (80);
      115       15    1   DCL LAST_COUNT UBIN (36) STATIC SYMDEF; /*COUNT OF CHARACTERS IN LINE*/
      116       16    1   DCL LIST_STRING CHAR (128) EXT;
      117       17    1   DCL LINE_NUM CHAR (7);
      118       18    1   DCL LIST ENTRY (1);
      119       19    1   DCL I UBIN (36);
      120       20    1       CALL BINCHAR(LINE_NUM,COUNT);
      121       21    1       I=0;
      122       22    2       DO WHILE (SUBSTR(LINE_NUM,I,1)='0' AND I<6);
      123       23    2           CALL INSERT(LINE_NUM,I,1,' ');
      124       24    2           I=I+1;
      125       25    2           END;
      126       26    1       LIST_STRING = ' ';
      127       27    1       CALL CONCAT(LIST_STRING,LINE_NUM,'    ',REC_OUT);
      128       28    1       CALL LIST (LIST_STRING);
      129       29    1   END PUT_OUT_LINE;
      130       30        %EOD;

PL6.E3A0      #003=PUT_OUT_LINE File=ZIG$DDS5.:ZIC0TSI                           FRI 09/05/97 11:50 Page:30
--  Include file information  --

   B$JIT_C.:E05TOU  was found in the system file and is never referenced.
   CP_6_C.:E05TOU  was found in the system file and is never referenced.
      No diagnostics issued in procedure PUT_OUT_LINE.

   Procedure PUT_OUT_LINE requires 42 words for executable code.
   Procedure PUT_OUT_LINE requires 10 words of local(AUTO) storage.

PL6.E3A0      #003=PUT_OUT_LINE File=ZIG$DDS5.:ZIC0TSI                           FRI 09/05/97 11:50 Page:31

 Object Unit name= PUT_OUT_LINE                               File name= ZIG$DDS5.:ZIC0TOU
 UTS= SEP 05 '97 11:50:09.40 FRI                              Compiler= PL-6/E31         Sev=      00
 SharedLib= :SHARED_SYSTEM                                    Alt SharedLib=


    ****  Control sections  ****

 Sect   Type Bound  Init  Size OctSiz  Section name(segment info)
    0   Data  even  none     1      1  PUT_OUT_LINE
    1  LblCom even  none    32     40  LIST_STRING
    2  RoData even  UTS      1      1  PUT_OUT_LINE
    3   Proc  even  none    42     52  PUT_OUT_LINE
    4  RoData even  none     4      4  PUT_OUT_LINE

    ****  Entry defs  ****

                              Check   Calling
                             calling  sequence
  Sect OctLoc Primary Altret sequence   type   Parms  Name
     3      0   yes            yes      Std        2  PUT_OUT_LINE

  ****  Data defs  ****

 Sect OctLoc  Name                           Sect OctLoc  Name
    0      0  LAST_COUNT

  ****  Entry refs  ****

         Check        Calling
        calling       sequence
Altret sequence SRef   type   Args  Name
         yes           Std       1 LIST
                       nStd      0 X66_AUTO_2
                       nStd      0 X66_ARET
PL6.E3A0      #003=PUT_OUT_LINE File=ZIG$DDS5.:ZIC0TSI                           FRI 09/05/97 11:50 Page:32

  ****  Segment refs  ****

  Flags:  r = read only, s = secondary
Flgs Name                             Flgs Name                             Flgs Name
     ISSID
PL6.E3A0      #003=PUT_OUT_LINE File=ZIG$DDS5.:ZIC0TSI                           FRI 09/05/97 11:50 Page:33


      101        1        /*M*     PUT_OUT_LINE   I-D-S/II   DBACS */
      102        2        /*T***********************************************************/
      103        3        /*T*                                                         */
      104        4        /*T* Copyright (c) Bull HN Information Systems Inc., 1997    */
      105        5        /*T*                                                         */
      106        6        /*T***********************************************************/
      107        7        /*P*
      108        8        NAME:    PUT_OUT_LINE
      109        9        PURPOSE: PUT A LINE OUT TO M$LO;
      110       10        */
      111       11        PUT_OUT_LINE:
      112       12            PROC(COUNT,REC_OUT);

     12  3 000000   000000 700200 xent  PUT_OUT_LINE TSX0  ! X66_AUTO_2
         3 000001   000012 000002                    ZERO    10,2

      113       13    1   DCL COUNT UBIN (36);
      114       14    1   DCL REC_OUT CHAR (80);
      115       15    1   DCL LAST_COUNT UBIN (36) STATIC SYMDEF; /*COUNT OF CHARACTERS IN LINE*/
      116       16    1   DCL LIST_STRING CHAR (128) EXT;
      117       17    1   DCL LINE_NUM CHAR (7);
      118       18    1   DCL LIST ENTRY (1);
      119       19    1   DCL I UBIN (36);
      120       20    1       CALL BINCHAR(LINE_NUM,COUNT);

     20  3 000002   200003 470500                    LDP0    @COUNT,,AUTO
         3 000003   000000 235100                    LDA     0,,PR0
         3 000004   000044 773000                    LRL     36
         3 000005   200010 757100                    STAQ    I+1,,AUTO
         3 000006   000100 301500                    BTD
         3 000007   200010 000010                    NDSC9   I+1,,AUTO                cn=0,s=lsgnf,sf=0,n=8
         3 000010   200005 030007                    NDSC9   LINE_NUM,,AUTO           cn=0,s=nosgn,sf=0,n=7

      121       21    1       I=0;

     21  3 000011   200007 450100                    STZ     I,,AUTO
PL6.E3A0      #003=PUT_OUT_LINE File=ZIG$DDS5.:ZIC0TSI                           FRI 09/05/97 11:50 Page:34

      122       22    2       DO WHILE (SUBSTR(LINE_NUM,I,1)='0' AND I<6);

     22  3 000012   000021 710000 3                  TRA     s:25

      123       23    2           CALL INSERT(LINE_NUM,I,1,' ');

     23  3 000013   200007 235100                    LDA     I,,AUTO
         3 000014   040105 100400                    MLR     fill='040'O
         3 000015   000000 000001 4                  ADSC9   0                        cn=0,n=1
         3 000016   200005 000001                    ADSC9   LINE_NUM,A,AUTO          cn=0,n=1

      124       24    2           I=I+1;

     24  3 000017   000001 035007                    ADLA    1,DL
         3 000020   200007 755100                    STA     I,,AUTO

      125       25    2           END;

     25  3 000021   200007 235100                    LDA     I,,AUTO
         3 000022   040000 106505                    CMPC    fill='040'O
         3 000023   200005 000001                    ADSC9   LINE_NUM,A,AUTO          cn=0,n=1
         3 000024   000001 000001 4                  ADSC9   1                        cn=0,n=1
         3 000025   000030 601000 3                  TNZ     s:26
         3 000026   000006 115007                    CMPA    6,DL
         3 000027   000013 602000 3                  TNC     s:23

      126       26    1       LIST_STRING = ' ';

     26  3 000030   040000 100400                    MLR     fill='040'O
         3 000031   000000 000001 4                  ADSC9   0                        cn=0,n=1
         3 000032   000000 000200 1                  ADSC9   LIST_STRING              cn=0,n=128

      127       27    1       CALL CONCAT(LIST_STRING,LINE_NUM,'    ',REC_OUT);

     27  3 000033   040000 100500                    MLR     fill='040'O
         3 000034   200005 000007                    ADSC9   LINE_NUM,,AUTO           cn=0,n=7
PL6.E3A0      #003=PUT_OUT_LINE File=ZIG$DDS5.:ZIC0TSI                           FRI 09/05/97 11:50 Page:35
         3 000035   000000 000007 1                  ADSC9   LIST_STRING              cn=0,n=7
         3 000036   040000 100400                    MLR     fill='040'O
         3 000037   000000 000004 2                  ADSC9   0                        cn=0,n=4
         3 000040   000001 600004 1                  ADSC9   LIST_STRING+1            cn=3,n=4
         3 000041   200004 470500                    LDP0    @REC_OUT,,AUTO
         3 000042   040000 100500                    MLR     fill='040'O
         3 000043   000000 000120                    ADSC9   0,,PR0                   cn=0,n=80
         3 000044   000002 600165 1                  ADSC9   LIST_STRING+2            cn=3,n=117

      128       28    1       CALL LIST (LIST_STRING);

     28  3 000045   000003 630400 4                  EPPR0   3
         3 000046   000002 631400 4                  EPPR1   2
         3 000047   000000 701000 xent               TSX1    LIST
         3 000050   000000 011000                    NOP     0

      129       29    1   END PUT_OUT_LINE;

     29  3 000051   000000 702200 xent               TSX2  ! X66_ARET

LIST_STRING
 Sect OctLoc
   1     000   ****** ******   ****** ******   ****** ******   ****** ******    ................

(unnamed)
 Sect OctLoc
   2     000   040040 040040

(unnamed)
 Sect OctLoc
   4     000   040040 040040   060040 040040   000001 000000   000000 006000        0   ........
      130       30        %EOD;

PL6.E3A0      #003=PUT_OUT_LINE File=ZIG$DDS5.:ZIC0TSI                           FRI 09/05/97 11:50 Page:36
--  Include file information  --

   B$JIT_C.:E05TOU  was found in the system file and is never referenced.
   CP_6_C.:E05TOU  was found in the system file and is never referenced.
      No diagnostics issued in procedure PUT_OUT_LINE.

   Procedure PUT_OUT_LINE requires 42 words for executable code.
   Procedure PUT_OUT_LINE requires 10 words of local(AUTO) storage.
PL6.E3A0      #003=PUT_OUT_LINE File=ZIG$DDS5.:ZIC0TSI                           FRI 09/05/97 11:50 Page:37
          *** CROSS REFERENCE LISTING ***
**     DENOTES     IDENTIFIER DEFINITION
<<                 IDENTIFIER'S VALUE SET
>>                 IDENTIFIER'S VALUE USED
<>                 IDENTIFIER SET AND/OR USED
--                 IDENTIFIER REFERENCED
PL6.E3A0      #003=PUT_OUT_LINE File=ZIG$DDS5.:ZIC0TSI                           FRI 09/05/97 11:50 Page:38
          MINI XREF LISTING

COUNT
        13**DCL        11--PROC       20>>CALLBLT
I
        19**DCL        21<<ASSIGN     22>>DOWHILE    22>>DOWHILE    23>>CALLBLT    24<<ASSIGN     24>>ASSIGN
LINE_NUM
        17**DCL        20<<CALLBLT    22>>DOWHILE    23<<CALLBLT    27>>CALLBLT
LIST
        18**DCL-ENT    28--CALL
LIST_STRING
        16**DCL        26<<ASSIGN     27<<CALLBLT    28<>CALL
REC_OUT
        14**DCL        11--PROC       27>>CALLBLT

PL6.E3A0      #004=M_EXIT File=ZIG$DDS5.:ZIC0TSI                                 FRI 09/05/97 11:50 Page:39
      131        1        /*M*     M_EXIT    I-D-S/II  DBACS */
      132        2        /*T***********************************************************/
      133        3        /*T*                                                         */
      134        4        /*T* Copyright (c) Bull HN Information Systems Inc., 1997    */
      135        5        /*T*                                                         */
      136        6        /*T***********************************************************/
      137        7        /*P*
      138        8        NAME:    M_EXIT
      139        9        PURPOSE: TO DO A M$EXIT AND SET THE STEPCC
      140       10        */
      141       11        M_EXIT:
      142       12            PROC (STEPCC);
      143       13    1   DCL STEPCC UBIN (36);
      144       14        %INCLUDE CP_6;
      145       95        %FPT_EXIT;
      146      110    1       FPT_EXIT.V.STEPCC#=STEPCC;
      147      111    1       CALL M$EXIT(FPT_EXIT);
      148      112    1   END M_EXIT;
      149      113        %EOD;

PL6.E3A0      #004=M_EXIT File=ZIG$DDS5.:ZIC0TSI                                 FRI 09/05/97 11:50 Page:40
--  Include file information  --

   CP_6.:LIB_E05  cannot be made into a system file and is referenced.
   B$JIT_C.:E05TOU  was found in the system file and is never referenced.
   CP_6_C.:E05TOU  was found in the system file and is referenced.
      No diagnostics issued in procedure M_EXIT.

   Procedure M_EXIT requires 10 words for executable code.
   Procedure M_EXIT requires 4 words of local(AUTO) storage.

PL6.E3A0      #004=M_EXIT File=ZIG$DDS5.:ZIC0TSI                                 FRI 09/05/97 11:50 Page:41

 Object Unit name= M_EXIT                                     File name= ZIG$DDS5.:ZIC0TOU
 UTS= SEP 05 '97 11:50:11.76 FRI                              Compiler= PL-6/E31         Sev=      00
 SharedLib= :SHARED_SYSTEM                                    Alt SharedLib=


    ****  Control sections  ****

 Sect   Type Bound  Init  Size OctSiz  Section name(segment info)
    0   DCB   even  none     0      0  M$UC
    1   Data  even  none     6      6  M_EXIT
    2   Proc  even  none    10     12  M_EXIT

    ****  Entry defs  ****

                              Check   Calling
                             calling  sequence
  Sect OctLoc Primary Altret sequence   type   Parms  Name
     2      0   yes            yes      Std        1  M_EXIT

  ****  Entry refs  ****

         Check        Calling
        calling       sequence
Altret sequence SRef   type   Args  Name
                       nStd      0 X66_AUTO_1
                       nStd      0 X66_ARET

  ****  Data refs  ****

  Flags:  r = read only, s = secondary
Flgs Name                             Flgs Name                             Flgs Name
     M$UC
PL6.E3A0      #004=M_EXIT File=ZIG$DDS5.:ZIC0TSI                                 FRI 09/05/97 11:50 Page:42

  ****  Segment refs  ****

  Flags:  r = read only, s = secondary
Flgs Name                             Flgs Name                             Flgs Name
     ISSID                                 NULLSID
PL6.E3A0      #004=M_EXIT File=ZIG$DDS5.:ZIC0TSI                                 FRI 09/05/97 11:50 Page:43


      131        1        /*M*     M_EXIT    I-D-S/II  DBACS */
      132        2        /*T***********************************************************/
      133        3        /*T*                                                         */
      134        4        /*T* Copyright (c) Bull HN Information Systems Inc., 1997    */
      135        5        /*T*                                                         */
      136        6        /*T***********************************************************/
      137        7        /*P*
      138        8        NAME:    M_EXIT
      139        9        PURPOSE: TO DO A M$EXIT AND SET THE STEPCC
      140       10        */
      141       11        M_EXIT:
      142       12            PROC (STEPCC);

     12  2 000000   000000 700200 xent  M_EXIT       TSX0  ! X66_AUTO_1
         2 000001   000004 000001                    ZERO    4,1

      143       13    1   DCL STEPCC UBIN (36);
      144       14        %INCLUDE CP_6;
      145       95        %FPT_EXIT;
      146      110    1       FPT_EXIT.V.STEPCC#=STEPCC;

    110  2 000002   200003 470500                    LDP0    @STEPCC,,AUTO
         2 000003   000000 236100                    LDQ     0,,PR0
         2 000004   000033 736000                    QLS     27
         2 000005   000004 552040 1                  STBQ    FPT_EXIT+4,'40'O

      147      111    1       CALL M$EXIT(FPT_EXIT);

    111  2 000006   000000 630400 1                  EPPR0   FPT_EXIT
         2 000007   000001 713400                    CLIMB   exit
         2 000010   400400 401760                    pmme    nvectors=2

      148      112    1   END M_EXIT;

    112  2 000011   000000 702200 xent               TSX2  ! X66_ARET

PL6.E3A0      #004=M_EXIT File=ZIG$DDS5.:ZIC0TSI                                 FRI 09/05/97 11:50 Page:44
FPT_EXIT
 Sect OctLoc
   1     000   000001 777640   000004 006000   000000 177640   000000 006014    ................
   1     004   000000 000000   000000 000000                                    ........
      149      113        %EOD;

PL6.E3A0      #004=M_EXIT File=ZIG$DDS5.:ZIC0TSI                                 FRI 09/05/97 11:50 Page:45
--  Include file information  --

   CP_6.:LIB_E05  cannot be made into a system file and is referenced.
   B$JIT_C.:E05TOU  was found in the system file and is never referenced.
   CP_6_C.:E05TOU  was found in the system file and is referenced.
      No diagnostics issued in procedure M_EXIT.

   Procedure M_EXIT requires 10 words for executable code.
   Procedure M_EXIT requires 4 words of local(AUTO) storage.
PL6.E3A0      #004=M_EXIT File=ZIG$DDS5.:ZIC0TSI                                 FRI 09/05/97 11:50 Page:46
          *** CROSS REFERENCE LISTING ***
**     DENOTES     IDENTIFIER DEFINITION
<<                 IDENTIFIER'S VALUE SET
>>                 IDENTIFIER'S VALUE USED
<>                 IDENTIFIER SET AND/OR USED
--                 IDENTIFIER REFERENCED
PL6.E3A0      #004=M_EXIT File=ZIG$DDS5.:ZIC0TSI                                 FRI 09/05/97 11:50 Page:47
          MINI XREF LISTING

FPT_EXIT
       106**DCL       111<>CALL
FPT_EXIT.V
       106**DCL       106--DCLINIT
FPT_EXIT.V.STEPCC#
       107**DCL       107--REDEF     110<<ASSIGN
M$EXIT
        35**DCL-ENT   111--CALL
STEPCC
        13**DCL        11--PROC      110>>ASSIGN

PL6.E3A0      #005=UN_TIME File=ZIG$DDS5.:ZIC0TSI                                FRI 09/05/97 11:50 Page:48
      150        1        /*M*     UN_TIME   I-D-S/II       DBACS */
      151        2        /*T***********************************************************/
      152        3        /*T*                                                         */
      153        4        /*T* Copyright (c) Bull HN Information Systems Inc., 1997    */
      154        5        /*T*                                                         */
      155        6        /*T***********************************************************/
      156        7        /*P*
      157        8        NAME:    UN_TIME
      158        9        PURPOSE: TO UNPACK A UTS TIME FORMAT TO A SET OF CHAR STRINGS.
      159       10        */
      160       11        UN_TIME:
      161       12            PROC(UTS,DATE,DAY,TIME);
      162       13    1   DCL UTS UBIN (36);
      163       14    1   DCL DATE CHAR (10);
      164       15    1   DCL DAY CHAR (3);
      165       16    1   DCL TIME CHAR (11);
      166       17        %INCLUDE CP_6;
      167       98        %FPT_TIME(DEST=EXT,SOURCE=UTS);
      168      117    1       FPT_TIME.DATE_=VECTOR(DATE);
      169      118    1       FPT_TIME.DAY_=VECTOR(DAY);
      170      119    1       FPT_TIME.TIME_=VECTOR(TIME);
      171      120    1       FPT_TIME.TSTAMP_=VECTOR(UTS);
      172      121    1       CALL M$TIME(FPT_TIME) ALTRET (RET);
      173      122    1   RET: RETURN;
      174      123    1   END UN_TIME;
      175      124        %EOD;

PL6.E3A0      #005=UN_TIME File=ZIG$DDS5.:ZIC0TSI                                FRI 09/05/97 11:50 Page:49
--  Include file information  --

   CP_6.:LIB_E05  cannot be made into a system file and is referenced.
   B$JIT_C.:E05TOU  was found in the system file and is never referenced.
   CP_6_C.:E05TOU  was found in the system file and is referenced.
      No diagnostics issued in procedure UN_TIME.

   Procedure UN_TIME requires 19 words for executable code.
   Procedure UN_TIME requires 8 words of local(AUTO) storage.

PL6.E3A0      #005=UN_TIME File=ZIG$DDS5.:ZIC0TSI                                FRI 09/05/97 11:50 Page:50

 Object Unit name= UN_TIME                                    File name= ZIG$DDS5.:ZIC0TOU
 UTS= SEP 05 '97 11:50:15.28 FRI                              Compiler= PL-6/E31         Sev=      00
 SharedLib= :SHARED_SYSTEM                                    Alt SharedLib=


    ****  Control sections  ****

 Sect   Type Bound  Init  Size OctSiz  Section name(segment info)
    0   DCB   even  none     0      0  M$UC
    1   Data  even  none    12     14  UN_TIME
    2   Proc  even  none    19     23  UN_TIME
    3  RoData even  none     2      2  UN_TIME

    ****  Entry defs  ****

                              Check   Calling
                             calling  sequence
  Sect OctLoc Primary Altret sequence   type   Parms  Name
     2      0   yes            yes      Std        4  UN_TIME

  ****  Entry refs  ****

         Check        Calling
        calling       sequence
Altret sequence SRef   type   Args  Name
                       nStd      0 X66_AUTO_4
                       nStd      0 X66_ARET

  ****  Data refs  ****

  Flags:  r = read only, s = secondary
Flgs Name                             Flgs Name                             Flgs Name
     M$UC
PL6.E3A0      #005=UN_TIME File=ZIG$DDS5.:ZIC0TSI                                FRI 09/05/97 11:50 Page:51

  ****  Segment refs  ****

  Flags:  r = read only, s = secondary
Flgs Name                             Flgs Name                             Flgs Name
     ISSID                                 NULLSID
PL6.E3A0      #005=UN_TIME File=ZIG$DDS5.:ZIC0TSI                                FRI 09/05/97 11:50 Page:52


      150        1        /*M*     UN_TIME   I-D-S/II       DBACS */
      151        2        /*T***********************************************************/
      152        3        /*T*                                                         */
      153        4        /*T* Copyright (c) Bull HN Information Systems Inc., 1997    */
      154        5        /*T*                                                         */
      155        6        /*T***********************************************************/
      156        7        /*P*
      157        8        NAME:    UN_TIME
      158        9        PURPOSE: TO UNPACK A UTS TIME FORMAT TO A SET OF CHAR STRINGS.
      159       10        */
      160       11        UN_TIME:
      161       12            PROC(UTS,DATE,DAY,TIME);

     12  2 000000   000000 700200 xent  UN_TIME      TSX0  ! X66_AUTO_4
         2 000001   000010 000004                    ZERO    8,4

      162       13    1   DCL UTS UBIN (36);
      163       14    1   DCL DATE CHAR (10);
      164       15    1   DCL DAY CHAR (3);
      165       16    1   DCL TIME CHAR (11);
      166       17        %INCLUDE CP_6;
      167       98        %FPT_TIME(DEST=EXT,SOURCE=UTS);
      168      117    1       FPT_TIME.DATE_=VECTOR(DATE);

    117  2 000002   000000 235000 3                  LDA     0
         2 000003   200004 236100                    LDQ     @DATE,,AUTO
         2 000004   000002 757000 1                  STAQ    FPT_TIME+2

      169      118    1       FPT_TIME.DAY_=VECTOR(DAY);

    118  2 000005   577640 235007                    LDA     -65632,DL
         2 000006   200005 236100                    LDQ     @DAY,,AUTO
         2 000007   000006 757000 1                  STAQ    FPT_TIME+6

      170      119    1       FPT_TIME.TIME_=VECTOR(TIME);

PL6.E3A0      #005=UN_TIME File=ZIG$DDS5.:ZIC0TSI                                FRI 09/05/97 11:50 Page:53
    119  2 000010   000001 235000 3                  LDA     1
         2 000011   200006 236100                    LDQ     @TIME,,AUTO
         2 000012   000004 757000 1                  STAQ    FPT_TIME+4

      171      120    1       FPT_TIME.TSTAMP_=VECTOR(UTS);

    120  2 000013   777640 235007                    LDA     -96,DL
         2 000014   200003 236100                    LDQ     @UTS,,AUTO
         2 000015   000010 757000 1                  STAQ    FPT_TIME+8

      172      121    1       CALL M$TIME(FPT_TIME) ALTRET (RET);

    121  2 000016   000000 630400 1                  EPPR0   FPT_TIME
         2 000017   420004 713400                    CLIMB   alt,+8196
         2 000020   402000 401760                    pmme    nvectors=5
         2 000021   000022 702000 2                  TSX2    RET

      173      122    1   RET: RETURN;

    122  2 000022   000000 702200 xent  RET          TSX2  ! X66_ARET

FPT_TIME
 Sect OctLoc
   1     000   000001 777640   000012 006000   000000 177640   000000 006014    ................
   1     004   000000 177640   000000 006014   000000 177640   000000 006014    ................
   1     010   000000 177640   000000 006014   004001 000000   ****** ******    ................

(unnamed)
 Sect OctLoc
   3     000   000002 377640   000002 577640                                    ........
      174      123    1   END UN_TIME;
      175      124        %EOD;

PL6.E3A0      #005=UN_TIME File=ZIG$DDS5.:ZIC0TSI                                FRI 09/05/97 11:50 Page:54
--  Include file information  --

   CP_6.:LIB_E05  cannot be made into a system file and is referenced.
   B$JIT_C.:E05TOU  was found in the system file and is never referenced.
   CP_6_C.:E05TOU  was found in the system file and is referenced.
      No diagnostics issued in procedure UN_TIME.

   Procedure UN_TIME requires 19 words for executable code.
   Procedure UN_TIME requires 8 words of local(AUTO) storage.
PL6.E3A0      #005=UN_TIME File=ZIG$DDS5.:ZIC0TSI                                FRI 09/05/97 11:50 Page:55
          *** CROSS REFERENCE LISTING ***
**     DENOTES     IDENTIFIER DEFINITION
<<                 IDENTIFIER'S VALUE SET
>>                 IDENTIFIER'S VALUE USED
<>                 IDENTIFIER SET AND/OR USED
--                 IDENTIFIER REFERENCED
PL6.E3A0      #005=UN_TIME File=ZIG$DDS5.:ZIC0TSI                                FRI 09/05/97 11:50 Page:56
          MINI XREF LISTING

DATE
        14**DCL        11--PROC      117--ASSIGN
DAY
        15**DCL        11--PROC      118--ASSIGN
FPT_TIME
       109**DCL       121<>CALL
FPT_TIME.DATE_
       109**DCL       117<<ASSIGN
FPT_TIME.DAY_
       112**DCL       118<<ASSIGN
FPT_TIME.TIME_
       111**DCL       119<<ASSIGN
FPT_TIME.TSTAMP_
       112**DCL       120<<ASSIGN
FPT_TIME.V
       113**DCL       109--DCLINIT
M$TIME
        93**DCL-ENT   121--CALL
RET
       122**LABEL     121--CALLALT
TIME
        16**DCL        11--PROC      119--ASSIGN
UTS
        13**DCL        11--PROC      120--ASSIGN

PL6.E3A0      #006=GET_TIME File=ZIG$DDS5.:ZIC0TSI                               FRI 09/05/97 11:50 Page:57
      176        1        /*M*     GET_TIME       DBACS     I-D-S/II  */
      177        2        /*T***********************************************************/
      178        3        /*T*                                                         */
      179        4        /*T* Copyright (c) Bull HN Information Systems Inc., 1997    */
      180        5        /*T*                                                         */
      181        6        /*T***********************************************************/
      182        7        /*P*
      183        8        NAME:    GET_TIME
      184        9        PURPOSE: TO RETURN THE TIME TO THE PL6 USER IN THE FORMAT
      185       10                 THAT THE ACTIVITIES RECORDS WANTS IT.
      186       11        */
      187       12        GET_TIME:
      188       13            PROC(TIME_DATE);
      189       14    1   DCL TIME_DATE CHAR (12);
      190       15    1   DCL TIME_R CHAR (8) STATIC;
      191       16    1   DCL DATE_R CHAR (6) STATIC;
      192       17    1   DCL ABORT ENTRY;
      193       18        %INCLUDE CP_6;
      194       99        %FPT_TIME(DATE=DATE_R,TIME=TIME_R,DEST=ANS,SOURCE=CLOCK);
      195      118    1       CALL M$TIME(FPT_TIME) ALTRET (TIME_ERR);
      196      119    1       CALL CONCAT(TIME_DATE,DATE_R,SUBSTR(TIME_R,0,6));
      197      120    1       RETURN;
      198      121    1   TIME_ERR:
      199      122    1       CALL ABORT;
      200      123    1   END GET_TIME;
      201      124        %EOD;

PL6.E3A0      #006=GET_TIME File=ZIG$DDS5.:ZIC0TSI                               FRI 09/05/97 11:50 Page:58
--  Include file information  --

   CP_6.:LIB_E05  cannot be made into a system file and is referenced.
   B$JIT_C.:E05TOU  was found in the system file and is never referenced.
   CP_6_C.:E05TOU  was found in the system file and is referenced.
      No diagnostics issued in procedure GET_TIME.

   Procedure GET_TIME requires 18 words for executable code.
   Procedure GET_TIME requires 4 words of local(AUTO) storage.

PL6.E3A0      #006=GET_TIME File=ZIG$DDS5.:ZIC0TSI                               FRI 09/05/97 11:50 Page:59

 Object Unit name= GET_TIME                                   File name= ZIG$DDS5.:ZIC0TOU
 UTS= SEP 05 '97 11:50:19.36 FRI                              Compiler= PL-6/E31         Sev=      00
 SharedLib= :SHARED_SYSTEM                                    Alt SharedLib=


    ****  Control sections  ****

 Sect   Type Bound  Init  Size OctSiz  Section name(segment info)
    0   Data  even  none    16     20  GET_TIME
    1   DCB   even  none     0      0  M$UC
    2   Proc  even  none    18     22  GET_TIME
    3  RoData even  none     1      1  GET_TIME

    ****  Entry defs  ****

                              Check   Calling
                             calling  sequence
  Sect OctLoc Primary Altret sequence   type   Parms  Name
     2      0   yes            yes      Std        1  GET_TIME

  ****  Entry refs  ****

         Check        Calling
        calling       sequence
Altret sequence SRef   type   Args  Name
         yes           Std       0 ABORT
                       nStd      0 X66_AUTO_1
                       nStd      0 X66_ARET

  ****  Data refs  ****

  Flags:  r = read only, s = secondary
Flgs Name                             Flgs Name                             Flgs Name
     M$UC
PL6.E3A0      #006=GET_TIME File=ZIG$DDS5.:ZIC0TSI                               FRI 09/05/97 11:50 Page:60

  ****  Segment refs  ****

  Flags:  r = read only, s = secondary
Flgs Name                             Flgs Name                             Flgs Name
     ISSID                                 NULLSID
PL6.E3A0      #006=GET_TIME File=ZIG$DDS5.:ZIC0TSI                               FRI 09/05/97 11:50 Page:61


      176        1        /*M*     GET_TIME       DBACS     I-D-S/II  */
      177        2        /*T***********************************************************/
      178        3        /*T*                                                         */
      179        4        /*T* Copyright (c) Bull HN Information Systems Inc., 1997    */
      180        5        /*T*                                                         */
      181        6        /*T***********************************************************/
      182        7        /*P*
      183        8        NAME:    GET_TIME
      184        9        PURPOSE: TO RETURN THE TIME TO THE PL6 USER IN THE FORMAT
      185       10                 THAT THE ACTIVITIES RECORDS WANTS IT.
      186       11        */
      187       12        GET_TIME:
      188       13            PROC(TIME_DATE);

     13  2 000000   000000 700200 xent  GET_TIME     TSX0  ! X66_AUTO_1
         2 000001   000004 000001                    ZERO    4,1

      189       14    1   DCL TIME_DATE CHAR (12);
      190       15    1   DCL TIME_R CHAR (8) STATIC;
      191       16    1   DCL DATE_R CHAR (6) STATIC;
      192       17    1   DCL ABORT ENTRY;
      193       18        %INCLUDE CP_6;
      194       99        %FPT_TIME(DATE=DATE_R,TIME=TIME_R,DEST=ANS,SOURCE=CLOCK);
      195      118    1       CALL M$TIME(FPT_TIME) ALTRET (TIME_ERR);

    118  2 000002   000004 630400 0                  EPPR0   FPT_TIME
         2 000003   420004 713400                    CLIMB   alt,+8196
         2 000004   402000 401760                    pmme    nvectors=5
         2 000005   000016 702000 2                  TSX2    TIME_ERR

      196      119    1       CALL CONCAT(TIME_DATE,DATE_R,SUBSTR(TIME_R,0,6));

    119  2 000006   200003 470500                    LDP0    @TIME_DATE,,AUTO
         2 000007   040100 100400                    MLR     fill='040'O
         2 000010   000002 000006 0                  ADSC9   DATE_R                   cn=0,n=6
         2 000011   000000 000006                    ADSC9   0,,PR0                   cn=0,n=6
PL6.E3A0      #006=GET_TIME File=ZIG$DDS5.:ZIC0TSI                               FRI 09/05/97 11:50 Page:62
         2 000012   040100 100400                    MLR     fill='040'O
         2 000013   000000 000006 0                  ADSC9   TIME_R                   cn=0,n=6
         2 000014   000001 400006                    ADSC9   1,,PR0                   cn=2,n=6

      197      120    1       RETURN;

    120  2 000015   000000 702200 xent               TSX2  ! X66_ARET

      198      121    1   TIME_ERR:
      199      122    1       CALL ABORT;

    122  2 000016   000000 631400 3     TIME_ERR     EPPR1   0
         2 000017   000000 701000 xent               TSX1    ABORT
         2 000020   000000 011000                    NOP     0

      200      123    1   END GET_TIME;

    123  2 000021   000000 702200 xent               TSX2  ! X66_ARET

FPT_TIME
 Sect OctLoc
   0     004   000001 777640   000016 006000   000001 377640   000002 006000    ................
   0     010   000001 777640   000000 006000   000000 177640   000000 006014    ................
   0     014   000000 177640   000000 006014   000002 000000   ****** ******    ................

(unnamed)
 Sect OctLoc
   3     000   000000 000000                                                    ....
      201      124        %EOD;

PL6.E3A0      #006=GET_TIME File=ZIG$DDS5.:ZIC0TSI                               FRI 09/05/97 11:50 Page:63
--  Include file information  --

   CP_6.:LIB_E05  cannot be made into a system file and is referenced.
   B$JIT_C.:E05TOU  was found in the system file and is never referenced.
   CP_6_C.:E05TOU  was found in the system file and is referenced.
      No diagnostics issued in procedure GET_TIME.

   Procedure GET_TIME requires 18 words for executable code.
   Procedure GET_TIME requires 4 words of local(AUTO) storage.
PL6.E3A0      #006=GET_TIME File=ZIG$DDS5.:ZIC0TSI                               FRI 09/05/97 11:50 Page:64
          *** CROSS REFERENCE LISTING ***
**     DENOTES     IDENTIFIER DEFINITION
<<                 IDENTIFIER'S VALUE SET
>>                 IDENTIFIER'S VALUE USED
<>                 IDENTIFIER SET AND/OR USED
--                 IDENTIFIER REFERENCED
PL6.E3A0      #006=GET_TIME File=ZIG$DDS5.:ZIC0TSI                               FRI 09/05/97 11:50 Page:65
          MINI XREF LISTING

ABORT
        17**DCL-ENT   122--CALL
DATE_R
        16**DCL       110--DCLINIT   111--DCLINIT   119>>CALLBLT
FPT_TIME
       110**DCL       118<>CALL
FPT_TIME.V
       114**DCL       110--DCLINIT
M$TIME
        94**DCL-ENT   118--CALL
TIME_DATE
        14**DCL        12--PROC      119<<CALLBLT
TIME_ERR
       122**LABEL     118--CALLALT
TIME_R
        15**DCL       112--DCLINIT   113--DCLINIT   119>>CALLBLT

PL6.E3A0      #007=ANS_TIME File=ZIG$DDS5.:ZIC0TSI                               FRI 09/05/97 11:50 Page:66
      202        1        /*M*     ANS_TIME       DBACS     I-D-S/II  */
      203        2        /*T***********************************************************/
      204        3        /*T*                                                         */
      205        4        /*T* Copyright (c) Bull HN Information Systems Inc., 1997    */
      206        5        /*T*                                                         */
      207        6        /*T***********************************************************/
      208        7        /*P*
      209        8        NAME:    ANS_TIME
      210        9        PURPOSE: TO RETURN THE TIME TO THE PL6 USER IN THE FORMAT
      211       10                 THAT THE ACTIVITIES RECORDS WANTS IT.
      212       11        */
      213       12        ANS_TIME:
      214       13            PROC(DATE_R,UTS);
      215       14    1   DCL UTS UBIN (36);
      216       15    1   DCL TIME_R CHAR (8) STATIC INIT ('00000000');
      217       16    1   DCL DATE_R CHAR (6);
      218       17    1   DCL ABORT ENTRY;
      219       18        %INCLUDE CP_6;
      220       99        %FPT_TIME(TIME=TIME_R,DEST=UTS,SOURCE=ANS);
      221      118    1       FPT_TIME.TSTAMP_ = VECTOR(UTS);
      222      119    1       FPT_TIME.DATE_ = VECTOR(DATE_R);
      223      120    1       CALL M$TIME(FPT_TIME) ALTRET (TIME_ERR);
      224      121    1       RETURN;
      225      122    1   TIME_ERR:
      226      123    1       CALL ABORT;
      227      124    1   END ANS_TIME;

PL6.E3A0      #007=ANS_TIME File=ZIG$DDS5.:ZIC0TSI                               FRI 09/05/97 11:50 Page:67
--  Include file information  --

   CP_6.:LIB_E05  cannot be made into a system file and is referenced.
   B$JIT_C.:E05TOU  was found in the system file and is never referenced.
   CP_6_C.:E05TOU  was found in the system file and is referenced.
      No diagnostics issued in procedure ANS_TIME.

   Procedure ANS_TIME requires 17 words for executable code.
   Procedure ANS_TIME requires 6 words of local(AUTO) storage.

    No errors detected in file ZIG$DDS5.:ZIC0TSI    .

PL6.E3A0      #007=ANS_TIME File=ZIG$DDS5.:ZIC0TSI                               FRI 09/05/97 11:50 Page:68

 Object Unit name= ANS_TIME                                   File name= ZIG$DDS5.:ZIC0TOU
 UTS= SEP 05 '97 11:50:23.44 FRI                              Compiler= PL-6/E31         Sev=      00
 SharedLib= :SHARED_SYSTEM                                    Alt SharedLib=


    ****  Control sections  ****

 Sect   Type Bound  Init  Size OctSiz  Section name(segment info)
    0   Data  even  none    14     16  ANS_TIME
    1   DCB   even  none     0      0  M$UC
    2   Proc  even  none    17     21  ANS_TIME
    3  RoData even  none     2      2  ANS_TIME

    ****  Entry defs  ****

                              Check   Calling
                             calling  sequence
  Sect OctLoc Primary Altret sequence   type   Parms  Name
     2      0   yes            yes      Std        2  ANS_TIME

  ****  Entry refs  ****

         Check        Calling
        calling       sequence
Altret sequence SRef   type   Args  Name
         yes           Std       0 ABORT
                       nStd      0 X66_AUTO_2
                       nStd      0 X66_ARET

  ****  Data refs  ****

  Flags:  r = read only, s = secondary
Flgs Name                             Flgs Name                             Flgs Name
     M$UC
PL6.E3A0      #007=ANS_TIME File=ZIG$DDS5.:ZIC0TSI                               FRI 09/05/97 11:50 Page:69

  ****  Segment refs  ****

  Flags:  r = read only, s = secondary
Flgs Name                             Flgs Name                             Flgs Name
     ISSID                                 NULLSID
PL6.E3A0      #007=ANS_TIME File=ZIG$DDS5.:ZIC0TSI                               FRI 09/05/97 11:50 Page:70


      202        1        /*M*     ANS_TIME       DBACS     I-D-S/II  */
      203        2        /*T***********************************************************/
      204        3        /*T*                                                         */
      205        4        /*T* Copyright (c) Bull HN Information Systems Inc., 1997    */
      206        5        /*T*                                                         */
      207        6        /*T***********************************************************/
      208        7        /*P*
      209        8        NAME:    ANS_TIME
      210        9        PURPOSE: TO RETURN THE TIME TO THE PL6 USER IN THE FORMAT
      211       10                 THAT THE ACTIVITIES RECORDS WANTS IT.
      212       11        */
      213       12        ANS_TIME:
      214       13            PROC(DATE_R,UTS);

     13  2 000000   000000 700200 xent  ANS_TIME     TSX0  ! X66_AUTO_2
         2 000001   000006 000002                    ZERO    6,2

      215       14    1   DCL UTS UBIN (36);
      216       15    1   DCL TIME_R CHAR (8) STATIC INIT ('00000000');
      217       16    1   DCL DATE_R CHAR (6);
      218       17    1   DCL ABORT ENTRY;
      219       18        %INCLUDE CP_6;
      220       99        %FPT_TIME(TIME=TIME_R,DEST=UTS,SOURCE=ANS);
      221      118    1       FPT_TIME.TSTAMP_ = VECTOR(UTS);

    118  2 000002   777640 235007                    LDA     -96,DL
         2 000003   200004 236100                    LDQ     @UTS,,AUTO
         2 000004   000012 757000 0                  STAQ    FPT_TIME+8

      222      119    1       FPT_TIME.DATE_ = VECTOR(DATE_R);

    119  2 000005   000000 235000 3                  LDA     0
         2 000006   200003 236100                    LDQ     @DATE_R,,AUTO
         2 000007   000004 757000 0                  STAQ    FPT_TIME+2

      223      120    1       CALL M$TIME(FPT_TIME) ALTRET (TIME_ERR);
PL6.E3A0      #007=ANS_TIME File=ZIG$DDS5.:ZIC0TSI                               FRI 09/05/97 11:50 Page:71

    120  2 000010   000002 630400 0                  EPPR0   FPT_TIME
         2 000011   420004 713400                    CLIMB   alt,+8196
         2 000012   402000 401760                    pmme    nvectors=5
         2 000013   000015 702000 2                  TSX2    TIME_ERR

      224      121    1       RETURN;

    121  2 000014   000000 702200 xent               TSX2  ! X66_ARET

      225      122    1   TIME_ERR:
      226      123    1       CALL ABORT;

    123  2 000015   000001 631400 3     TIME_ERR     EPPR1   1
         2 000016   000000 701000 xent               TSX1    ABORT
         2 000017   000000 011000                    NOP     0

      227      124    1   END ANS_TIME;

    124  2 000020   000000 702200 xent               TSX2  ! X66_ARET

TIME_R
 Sect OctLoc
   0     000   060060 060060   060060 060060                                    00000000

FPT_TIME
 Sect OctLoc
   0     002   000001 777640   000014 006000   000000 177640   000000 006014    ................
   0     006   000001 777640   000000 006000   000000 177640   000000 006014    ................
   0     012   000000 177640   000000 006014   002004 000000   ****** ******    ................

(unnamed)
 Sect OctLoc
   3     000   000001 377640   000000 000000                                    ........

PL6.E3A0      #007=ANS_TIME File=ZIG$DDS5.:ZIC0TSI                               FRI 09/05/97 11:50 Page:72
--  Include file information  --

   CP_6.:LIB_E05  cannot be made into a system file and is referenced.
   B$JIT_C.:E05TOU  was found in the system file and is never referenced.
   CP_6_C.:E05TOU  was found in the system file and is referenced.
      No diagnostics issued in procedure ANS_TIME.

   Procedure ANS_TIME requires 17 words for executable code.
   Procedure ANS_TIME requires 6 words of local(AUTO) storage.

    No errors detected in file ZIG$DDS5.:ZIC0TSI    .
PL6.E3A0      #007=ANS_TIME File=ZIG$DDS5.:ZIC0TSI                               FRI 09/05/97 11:50 Page:73
          *** CROSS REFERENCE LISTING ***
**     DENOTES     IDENTIFIER DEFINITION
<<                 IDENTIFIER'S VALUE SET
>>                 IDENTIFIER'S VALUE USED
<>                 IDENTIFIER SET AND/OR USED
--                 IDENTIFIER REFERENCED
PL6.E3A0      #007=ANS_TIME File=ZIG$DDS5.:ZIC0TSI                               FRI 09/05/97 11:50 Page:74
          MINI XREF LISTING

ABORT
        17**DCL-ENT   123--CALL
DATE_R
        16**DCL        12--PROC      119--ASSIGN
FPT_TIME
       110**DCL       120<>CALL
FPT_TIME.DATE_
       110**DCL       119<<ASSIGN
FPT_TIME.TSTAMP_
       113**DCL       118<<ASSIGN
FPT_TIME.V
       114**DCL       110--DCLINIT
M$TIME
        94**DCL-ENT   120--CALL
TIME_ERR
       123**LABEL     120--CALLALT
TIME_R
        15**DCL       112--DCLINIT   113--DCLINIT
UTS
        14**DCL        12--PROC      118--ASSIGN
