
PL6.E3A0      #001=WRITERECORD_TO_SEQ_FILE File=ZIG$DDS7.:ZIC0TSI                FRI 09/05/97 11:51 Page:1
        1        1        /*M*         3WFILE I-D-S/II WRITE TO SEQ FILE 780622 */
        2        2        /*T***********************************************************/
        3        3        /*T*                                                         */
        4        4        /*T* Copyright (c) Bull HN Information Systems Inc., 1997    */
        5        5        /*T*                                                         */
        6        6        /*T***********************************************************/
        7        7        /*P*
        8        8        NAME:        3WFILE
        9        9        PURPOSE:     WRITE TO SEQ FILE.
       10       10        ARGUMENTS:   NONE
       11       11        CALLING PROGRAMS:
       12       12                     MAIN FUNCTION   CALLING MODULES
       13       13                     -------------   ---------------
       14       14                     DISPLAY         DDX7
       15       15        */
       16       16        WRITERECORD_TO_SEQ_FILE: PROC;
       17       17    1   DCL I SBIN(36) STATIC ALIGNED;
       18       18    1   DCL RECORD_SIZE UBIN (36) EXT;
       19       19    1   DCL RECORD_POINTER PTR EXT;
       20       20    1   DCL ABORT ENTRY;
       21       21    1   DCL TEMP_PTR PTR STATIC;
       22       22    1   DCL 1 TEMP_PTRX REDEF TEMP_PTR ALIGNED,
       23       23    1         2 * BIT (24) UNAL,
       24       24    1         2 SEGID BIT (12) UNAL;
       25       25    1   DCL M$SO DCB;
       26       26    1   DCL 1 SO_KEY STATIC ALIGNED,
       27       27    1         2 LEN UBIN(9) INIT(BITBIN('3'O)) UNAL,
       28       28    1         2 ACTUAL_KEY UBIN(27) INIT(0) UNAL;
       29       29    1   DCL TEMP_BUF CHAR (80) BASED;
       30       30    1   DCL SO_LOW_KEY UBIN (36) CONSTANT INIT(BITBIN('3000000000'O));
       31       31    1   DCL SO_HIGH_KEY(0:255) BIT(9) CONSTANT INIT(BINBIT(255),'777'O*255);
       32       32        %INCLUDE CP_6;
       33      113        %INCLUDE B_SEGIDS_C;
       34      652        %FPT_WRITE (FPTN=WRITE_FPT);
       35      683        %FPT_DELREC (FPTN = DELREC_FPT,
       36      684         KEY = SO_LOW_KEY,
       37      685         LKEY = SO_HIGH_KEY,
PL6.E3A0      #001=WRITERECORD_TO_SEQ_FILE File=ZIG$DDS7.:ZIC0TSI                FRI 09/05/97 11:51 Page:2
       38      686         DCB = M$SO);
       39      705    1       TEMP_PTR = RECORD_POINTER;
       40      706    1       TEMP_PTRX.SEGID = %ISSID;
       41      707    1       WRITE_FPT.V.DCB#=DCBNUM(M$SO);
       42      708    1       IF SO_KEY.ACTUAL_KEY = 0 THEN /* If first rec in *SO file, delete old records */
       43      709    2       DO;
       44      710    2           CALL M$DELREC(DELREC_FPT) ALTRET(NO_SO);
       45      711    2           END;
       46      712    1   NO_SO: SO_KEY.ACTUAL_KEY=SO_KEY.ACTUAL_KEY+1000;
       47      713    1       WRITE_FPT.KEY_=VECTOR(SO_KEY);
       48      714    1       I=79;
       49      715    2       DO WHILE ((SUBSTR(TEMP_PTR->TEMP_BUF,I,1)=' ') AND (I > 0));
       50      716    2           I=I-1;
       51      717    2           END;
       52      718    1       WRITE_FPT.BUF_.BOUND=I+1;
       53      719    1       WRITE_FPT.BUF_.BUF$ = TEMP_PTR;
       54      720    1       CALL M$WRITE (WRITE_FPT) ALTRET (ERR1);
       55      721    1       RETURN;
       56      722    1   ERR1:
       57      723    1       CALL ABORT;
       58      724    1   END;

PL6.E3A0      #001=WRITERECORD_TO_SEQ_FILE File=ZIG$DDS7.:ZIC0TSI                FRI 09/05/97 11:51 Page:3
--  Include file information  --

   B_SEGIDS_C.:LIB_E05  is referenced.
   CP_6.:LIB_E05  cannot be made into a system file and is referenced.
   B$JIT_C.:E05TOU  was found in the system file and is never referenced.
   CP_6_C.:E05TOU  was found in the system file and is referenced.
      No diagnostics issued in procedure WRITERECORD_TO_SEQ_FILE.

   Procedure WRITERECORD_TO_SEQ_FILE requires 51 words for executable code.
   Procedure WRITERECORD_TO_SEQ_FILE requires 4 words of local(AUTO) storage.

    No errors detected in file ZIG$DDS7.:ZIC0TSI    .

PL6.E3A0      #001=WRITERECORD_TO_SEQ_FILE File=ZIG$DDS7.:ZIC0TSI                FRI 09/05/97 11:51 Page:4

 Object Unit name= WRITERECORD_TO_SEQ_FILE                    File name= ZIG$DDS7.:ZIC0TOU
 UTS= SEP 05 '97 11:51:22.76 FRI                              Compiler= PL-6/E31         Sev=      00
 SharedLib= :SHARED_SYSTEM                                    Alt SharedLib=


    ****  Control sections  ****

 Sect   Type Bound  Init  Size OctSiz  Section name(segment info)
    0   Data  even  none    26     32  WRITERECORD_TO_SEQ_FILE
    1  LblCom even  none     1      1  RECORD_SIZE
    2  LblCom even  none     1      1  RECORD_POINTER
    3   DCB   even  none     0      0  M$SO
    4  RoData even  UTS     65    101  WRITERECORD_TO_SEQ_FILE
    5   DCB   even  none     0      0  M$UC
    6   Proc  even  none    51     63  WRITERECORD_TO_SEQ_FILE
    7  RoData even  none     6      6  WRITERECORD_TO_SEQ_FILE

    ****  Entry defs  ****

                              Check   Calling
                             calling  sequence
  Sect OctLoc Primary Altret sequence   type   Parms  Name
     6      0   yes            yes      Std        0  WRITERECORD_TO_SEQ_FILE

  ****  Entry refs  ****

         Check        Calling
        calling       sequence
Altret sequence SRef   type   Args  Name
         yes           Std       0 ABORT
                       nStd      0 X66_AUTO_0
                       nStd      0 X66_ARET
PL6.E3A0      #001=WRITERECORD_TO_SEQ_FILE File=ZIG$DDS7.:ZIC0TSI                FRI 09/05/97 11:51 Page:5

  ****  Data refs  ****

  Flags:  r = read only, s = secondary
Flgs Name                             Flgs Name                             Flgs Name
     M$SO                                  M$UC

  ****  Segment refs  ****

  Flags:  r = read only, s = secondary
Flgs Name                             Flgs Name                             Flgs Name
     ISSID                                 NULLSID
PL6.E3A0      #001=WRITERECORD_TO_SEQ_FILE File=ZIG$DDS7.:ZIC0TSI                FRI 09/05/97 11:51 Page:6


        1        1        /*M*         3WFILE I-D-S/II WRITE TO SEQ FILE 780622 */
        2        2        /*T***********************************************************/
        3        3        /*T*                                                         */
        4        4        /*T* Copyright (c) Bull HN Information Systems Inc., 1997    */
        5        5        /*T*                                                         */
        6        6        /*T***********************************************************/
        7        7        /*P*
        8        8        NAME:        3WFILE
        9        9        PURPOSE:     WRITE TO SEQ FILE.
       10       10        ARGUMENTS:   NONE
       11       11        CALLING PROGRAMS:
       12       12                     MAIN FUNCTION   CALLING MODULES
       13       13                     -------------   ---------------
       14       14                     DISPLAY         DDX7
       15       15        */
       16       16        WRITERECORD_TO_SEQ_FILE: PROC;

     16  6 000000   000000 700200 xent  WRITERECORD* TSX0  ! X66_AUTO_0
         6 000001   000004 000000                    ZERO    4,0

       17       17    1   DCL I SBIN(36) STATIC ALIGNED;
       18       18    1   DCL RECORD_SIZE UBIN (36) EXT;
       19       19    1   DCL RECORD_POINTER PTR EXT;
       20       20    1   DCL ABORT ENTRY;
       21       21    1   DCL TEMP_PTR PTR STATIC;
       22       22    1   DCL 1 TEMP_PTRX REDEF TEMP_PTR ALIGNED,
       23       23    1         2 * BIT (24) UNAL,
       24       24    1         2 SEGID BIT (12) UNAL;
       25       25    1   DCL M$SO DCB;
       26       26    1   DCL 1 SO_KEY STATIC ALIGNED,
       27       27    1         2 LEN UBIN(9) INIT(BITBIN('3'O)) UNAL,
       28       28    1         2 ACTUAL_KEY UBIN(27) INIT(0) UNAL;
       29       29    1   DCL TEMP_BUF CHAR (80) BASED;
       30       30    1   DCL SO_LOW_KEY UBIN (36) CONSTANT INIT(BITBIN('3000000000'O));
       31       31    1   DCL SO_HIGH_KEY(0:255) BIT(9) CONSTANT INIT(BINBIT(255),'777'O*255);
       32       32        %INCLUDE CP_6;
PL6.E3A0      #001=WRITERECORD_TO_SEQ_FILE File=ZIG$DDS7.:ZIC0TSI                FRI 09/05/97 11:51 Page:7
       33      113        %INCLUDE B_SEGIDS_C;
       34      652        %FPT_WRITE (FPTN=WRITE_FPT);
       35      683        %FPT_DELREC (FPTN = DELREC_FPT,
       36      684         KEY = SO_LOW_KEY,
       37      685         LKEY = SO_HIGH_KEY,
       38      686         DCB = M$SO);
       39      705    1       TEMP_PTR = RECORD_POINTER;

    705  6 000002   000000 236000 2                  LDQ     RECORD_POINTER
         6 000003   000001 756000 0                  STQ     TEMP_PTR

       40      706    1       TEMP_PTRX.SEGID = %ISSID;

    706  6 000004   006000 236007                    LDQ     3072,DL
         6 000005   000001 752003 0                  STCQ    TEMP_PTR,'03'O

       41      707    1       WRITE_FPT.V.DCB#=DCBNUM(M$SO);

    707  6 000006   000000 236007 xsym               LDQ     M$SO,DL
         6 000007   000000 620006                    EAX0    0,QL
         6 000010   000014 740000 0                  STX0    WRITE_FPT+8

       42      708    1      IF SO_KEY.ACTUAL_KEY = 0 THEN /* If first rec in *SO file, delete old records */

    708  6 000011   000002 236000 0                  LDQ     SO_KEY
         6 000012   000000 316000 7                  CANQ    0
         6 000013   000020 601000 6                  TNZ     NO_SO

       43      709    2       DO;

       44      710    2           CALL M$DELREC(DELREC_FPT) ALTRET(NO_SO);

    710  6 000014   000020 630400 0                  EPPR0   DELREC_FPT
         6 000015   440002 713400                    CLIMB   alt,+16386
         6 000016   401400 401760                    pmme    nvectors=4
         6 000017   000020 702000 6                  TSX2    NO_SO

PL6.E3A0      #001=WRITERECORD_TO_SEQ_FILE File=ZIG$DDS7.:ZIC0TSI                FRI 09/05/97 11:51 Page:8
       45      711    2           END;

       46      712    1   NO_SO: SO_KEY.ACTUAL_KEY=SO_KEY.ACTUAL_KEY+1000;

    712  6 000020   000002 236000 0     NO_SO        LDQ     SO_KEY
         6 000021   001750 036007                    ADLQ    1000,DL
         6 000022   000002 552034 0                  STBQ    SO_KEY,'34'O

       47      713    1       WRITE_FPT.KEY_=VECTOR(SO_KEY);

    713  6 000023   000002 237000 7                  LDAQ    2
         6 000024   000006 757000 0                  STAQ    WRITE_FPT+2

       48      714    1       I=79;

    714  6 000025   000117 235007                    LDA     79,DL
         6 000026   000000 755000 0                  STA     I

       49      715    2       DO WHILE ((SUBSTR(TEMP_PTR->TEMP_BUF,I,1)=' ') AND (I > 0));

    715  6 000027   000032 710000 6                  TRA     s:717

       50      716    2           I=I-1;

    716  6 000030   000001 336007                    LCQ     1,DL
         6 000031   000000 056000 0                  ASQ     I

       51      717    2           END;

    717  6 000032   000001 470400 0                  LDP0    TEMP_PTR
         6 000033   000000 235000 0                  LDA     I
         6 000034   040000 106505                    CMPC    fill='040'O
         6 000035   000000 000001                    ADSC9   0,A,PR0                  cn=0,n=1
         6 000036   000001 000001 7                  ADSC9   1                        cn=0,n=1
         6 000037   000042 601000 6                  TNZ     s:718
         6 000040   000000 115003                    CMPA    0,DU
         6 000041   000030 605400 6                  TPNZ    s:716
PL6.E3A0      #001=WRITERECORD_TO_SEQ_FILE File=ZIG$DDS7.:ZIC0TSI                FRI 09/05/97 11:51 Page:9

       52      718    1       WRITE_FPT.BUF_.BOUND=I+1;

    718  6 000042   000000 236000 0                  LDQ     I
         6 000043   000001 036007                    ADLQ    1,DL
         6 000044   000020 736000                    QLS     16
         6 000045   000010 676000 0                  ERQ     WRITE_FPT+4
         6 000046   000004 376000 7                  ANQ     4
         6 000047   000010 656000 0                  ERSQ    WRITE_FPT+4

       53      719    1       WRITE_FPT.BUF_.BUF$ = TEMP_PTR;

    719  6 000050   000001 236000 0                  LDQ     TEMP_PTR
         6 000051   000011 756000 0                  STQ     WRITE_FPT+5

       54      720    1       CALL M$WRITE (WRITE_FPT) ALTRET (ERR1);

    720  6 000052   000004 630400 0                  EPPR0   WRITE_FPT
         6 000053   440001 713400                    CLIMB   alt,write
         6 000054   401400 401760                    pmme    nvectors=4
         6 000055   000057 702000 6                  TSX2    ERR1

       55      721    1       RETURN;

    721  6 000056   000000 702200 xent               TSX2  ! X66_ARET

       56      722    1   ERR1:
       57      723    1       CALL ABORT;

    723  6 000057   000005 631400 7     ERR1         EPPR1   5
         6 000060   000000 701000 xent               TSX1    ABORT
         6 000061   000000 011000                    NOP     0

       58      724    1   END;

    724  6 000062   000000 702200 xent               TSX2  ! X66_ARET

PL6.E3A0      #001=WRITERECORD_TO_SEQ_FILE File=ZIG$DDS7.:ZIC0TSI                FRI 09/05/97 11:51 Page:10
SO_KEY
 Sect OctLoc
   0     002   003000 000000                                                    ....

WRITE_FPT
 Sect OctLoc
   0     004   000003 777640   000014 006000   000000 177640   000000 006014    ................
   0     010   000000 177640   000000 006014   000000 177640   000000 006014    ................
   0     014   000000 400400   000000 000000   000000 000000   000000 000000    ................

DELREC_FPT
 Sect OctLoc
   0     020   000001 777640   000030 006000   000000 777640   000000 006000    ................
   0     024   000077 777640   000001 006000   000000 177640   000000 006014    .?..............
   0     030   000000 000000   000000 000000                                    ........

SO_LOW_KEY
 Sect OctLoc
   4     000   003000 000000                                                    ....

SO_HIGH_KEY
 Sect OctLoc
   4     001   377777 777777   777777 777777   777777 777777   777777 777777    ................
   4     005   777777 777777   777777 777777   777777 777777   777777 777777    ................
   4     075*  777777 777777   777777 777777   777777 777777   777777 777777    ................

(unnamed)
 Sect OctLoc
   7     000   000777 777777   040040 040040   000000 777640   000002 006000    ....    ........
   7     004   777777 600000   000000 000000                                    ........

PL6.E3A0      #001=WRITERECORD_TO_SEQ_FILE File=ZIG$DDS7.:ZIC0TSI                FRI 09/05/97 11:51 Page:11
--  Include file information  --

   B_SEGIDS_C.:LIB_E05  is referenced.
   CP_6.:LIB_E05  cannot be made into a system file and is referenced.
   B$JIT_C.:E05TOU  was found in the system file and is never referenced.
   CP_6_C.:E05TOU  was found in the system file and is referenced.
      No diagnostics issued in procedure WRITERECORD_TO_SEQ_FILE.

   Procedure WRITERECORD_TO_SEQ_FILE requires 51 words for executable code.
   Procedure WRITERECORD_TO_SEQ_FILE requires 4 words of local(AUTO) storage.

    No errors detected in file ZIG$DDS7.:ZIC0TSI    .
PL6.E3A0      #001=WRITERECORD_TO_SEQ_FILE File=ZIG$DDS7.:ZIC0TSI                FRI 09/05/97 11:51 Page:12
          *** CROSS REFERENCE LISTING ***
**     DENOTES     IDENTIFIER DEFINITION
<<                 IDENTIFIER'S VALUE SET
>>                 IDENTIFIER'S VALUE USED
<>                 IDENTIFIER SET AND/OR USED
--                 IDENTIFIER REFERENCED
PL6.E3A0      #001=WRITERECORD_TO_SEQ_FILE File=ZIG$DDS7.:ZIC0TSI                FRI 09/05/97 11:51 Page:13
          MINI XREF LISTING

ABORT
        20**DCL-ENT   723--CALL
DELREC_FPT
       697**DCL       710<>CALL
DELREC_FPT.V
       700**DCL       697--DCLINIT
ERR1
       723**LABEL     720--CALLALT
I
        17**DCL       714<<ASSIGN    715>>DOWHILE   715>>DOWHILE   716<<ASSIGN    716>>ASSIGN    718>>ASSIGN
M$DELREC
        43**DCL-ENT   710--CALL
M$SO
        25**DCL       707>>ASSIGN
M$WRITE
        42**DCL-ENT   720--CALL
NO_SO
       712**LABEL     710--CALLALT
RECORD_POINTER
        19**DCL       705>>ASSIGN
SO_HIGH_KEY
        31**DCL       699--DCLINIT   700--DCLINIT
SO_KEY
        26**DCL       713--ASSIGN
SO_KEY.ACTUAL_KEY
        28**DCL       708>>IF        712<<ASSIGN    712>>ASSIGN
SO_LOW_KEY
        30**DCL       697--DCLINIT   698--DCLINIT
TEMP_BUF
        29**DCL       715>>DOWHILE
TEMP_PTR
        21**DCL        22--REDEF     705<<ASSIGN    715>>DOWHILE   719>>ASSIGN
PL6.E3A0      #001=WRITERECORD_TO_SEQ_FILE File=ZIG$DDS7.:ZIC0TSI                FRI 09/05/97 11:51 Page:14
TEMP_PTRX.SEGID
        24**DCL       706<<ASSIGN
WRITE_FPT
       669**DCL       720<>CALL
WRITE_FPT.BUF_.BOUND
       669**DCL       718<<ASSIGN
WRITE_FPT.BUF_.BUF$
       671**DCL       719<<ASSIGN
WRITE_FPT.KEY_
       669**DCL       713<<ASSIGN
WRITE_FPT.STATION_
       671**DCL       671--REDEF
WRITE_FPT.V
       672**DCL       669--DCLINIT
WRITE_FPT.V.DCB#
       672**DCL       707<<ASSIGN
WRITE_FPT.V.DVBYTE.VFC#
       678**DCL       678--REDEF
