
PL6.E3A0      #001=RDYPL File=ZIG$DDX0.:ZIC0TSI                                  FRI 09/05/97 11:51 Page:1
        1        1        /*M* ZIG$DDX0         I-D-S/II            DBACS    */
        2        2        /*T***********************************************************/
        3        3        /*T*                                                         */
        4        4        /*T* Copyright (c) Bull HN Information Systems Inc., 1997    */
        5        5        /*T*                                                         */
        6        6        /*T***********************************************************/
        7        7        RDYPL:
        8        8            PROC;
        9        9    1   DCL SDREF UBIN WORD;
       10       10    1   DCL DEBUG BIT(1) EXT;
       11       11    1   DCL REC CHAR(80) EXT;
       12       12    1   DCL NCS UBIN (36);
       13       13        %INCLUDE ZIG_GENERAL;
       14      121        %INCLUDE ZI_SUB4_CAN;
       15      778        %UWA;
       16     1113        %INCLUDE ZIG_DBA_INT;
       17     1161        %INCLUDE ZIG_DIR_STRUCS;
       18     1291    1   DCL COMPRD ENTRY;
       19     1292         /* Read routine */
       20     1293         /* Internal environment */
       21     1294    1   DCL BIT36 BIT(36) BASED;
       22     1295    1   DCL NOLK SBIN WORD STATIC INIT(0);
       23     1296    1   DCL TYPE BIT(36);
       24     1297         /* */
       25     1298    1   DCL R SBIN WORD STATIC INIT(0);
       26     1299    1   DCL S SBIN WORD STATIC INIT(0);
       27     1300    1   DCL T SBIN WORD STATIC INIT(0);
       28     1301    1   DCL LNAME CHAR(30);
       29     1302         /* This procedure will set the locked field in the si
       30     1303         elements */
       31     1304    1       CALL FETCHD_6('SF      ',2) ALTRET(CALL_ABORT);
       32     1305    1       CALL FETCHD_6('DA      ', UWA.SF.DBKEY_DA) ALTRET(CALL_ABORT);
       33     1306    1   RPL1:
       34     1307         /*      Each lk with a non null valuemust be processed */
       35     1308    1       CALL FETCHNS_6('DA-LK   ') ALTRET(L20);
       36     1309    1       IF UWA.LK.PLVALUE = '"NULL"' THEN GOTO RPL1;
       37     1310         /* Get lock type(lt) descriptor */
PL6.E3A0      #001=RDYPL File=ZIG$DDX0.:ZIC0TSI                                  FRI 09/05/97 11:51 Page:2
       38     1311    1   RPL1A:
       39     1312    1       CALL FETCHNS_6('LK-LT   ') ALTRET(NEXT_LK);
       40     1313         /* Save currency within the lk-lt set */
       41     1314    1       SDREF = UWA.DIRECT_REF;
       42     1315    1       TYPE = ADDR(UWA.LT.PLOCKS)->BIT36;
       43     1316         /* Get sn to begin check for 'OR' lock condition
       44     1317         */
       45     1318    1       CALL FETCHOS_6('SN-LT   ') ALTRET(CALL_ABORT);
       46     1319    1   RPL1B:
       47     1320    1       CALL FETCHNS_6('SN-LT   ') ALTRET(SET_SI);
       48     1321    2       IF TYPE = ADDR(UWA.LT.PLOCKS)->BIT36 THEN DO;
       49     1322    2           CALL FETCHOS_6('LK-LT   ') ALTRET(CALL_ABORT);
       50     1323    2           IF UWA.LK.PLVALUE = '"NULL"' THEN GOTO RESET;
       51     1324    2           END;
       52     1325    1       GOTO RPL1B;
       53     1326    1   SET_SI:
       54     1327    1       IF UWA.DB_STATUS ~= '0502100' THEN CALL ABORT;
       55     1328    1       CALL FCURR_R_6('SN      ') ALTRET(CALL_ABORT);
       56     1329    1       ADDR(UWA.SN.ACTLCKS)->BIT36 = ADDR(UWA.SN.ACTLCKS)->BIT36
       57     1330    1          | TYPE;
       58     1331    1       CALL MODIFY_6('SN      ') ALTRET(CALL_ABORT);
       59     1332    1   SET_SI_1:
       60     1333         /*      Mark all the si's in the sn-si set */
       61     1334         /*      Get si */
       62     1335    1       CALL FETCHNS_6('SN-SI   ') ALTRET(END_SN_SI);
       63     1336         /* Mark locked */
       64     1337    1       ADDR(UWA.SI.LOCKED)->BIT36 =
       65     1338    1          ADDR(UWA.SI.LOCKED)->BIT36 | TYPE;
       66     1339    1       CALL MODIFY_6('SI      ') ALTRET(CALL_ABORT);
       67     1340    1       GOTO SET_SI_1;
       68     1341    1   END_SN_SI:
       69     1342    1       IF UWA.DB_STATUS ~= '0502100' THEN CALL ABORT;
       70     1343    1   RESET:
       71     1344    1       CALL FETCHD_6('LT      ',SDREF) ALTRET(CALL_ABORT);
       72     1345    1       GOTO RPL1A;
       73     1346    1   NEXT_LK:
       74     1347    1       IF UWA.DB_STATUS ~= '0502100' THEN CALL ABORT;
PL6.E3A0      #001=RDYPL File=ZIG$DDX0.:ZIC0TSI                                  FRI 09/05/97 11:51 Page:3
       75     1348    1       CALL FETCHOS_6('LK-LT   ') ALTRET(CALL_ABORT);
       76     1349    1       GOTO RPL1;
       77     1350         /* */
       78     1351         /* Error messages */
       79     1352         /* */
       80     1353    1   CALL_ABORT: CALL ABORT;
       81     1354    1   L20:
       82     1355    1       IF UWA.DB_STATUS ~= '0502100' THEN CALL ABORT;
       83     1356    1   END;

PL6.E3A0      #001=RDYPL File=ZIG$DDX0.:ZIC0TSI                                  FRI 09/05/97 11:51 Page:4
--  Include file information  --

   ZIG_DIR_STRUCS.:ZIC0TOU  cannot be made into a system file and is referenced.
   ZIG_DBA_INT.:ZIC0TOU  cannot be made into a system file and is referenced.
   ZI_SUB4_CAN.:ZIC0TOU  is referenced.
   ZIG_GENERAL.:ZIC0TOU  cannot be made into a system file and is referenced.
   B$JIT_C.:E05TOU  was found in the system file and is never referenced.
   CP_6_C.:E05TOU  was found in the system file and is never referenced.
      No diagnostics issued in procedure RDYPL.

   Procedure RDYPL requires 115 words for executable code.
   Procedure RDYPL requires 16 words of local(AUTO) storage.

    No errors detected in file ZIG$DDX0.:ZIC0TSI    .

PL6.E3A0      #001=RDYPL File=ZIG$DDX0.:ZIC0TSI                                  FRI 09/05/97 11:51 Page:5

 Object Unit name= RDYPL                                      File name= ZIG$DDX0.:ZIC0TOU
 UTS= SEP 05 '97 11:51:39.60 FRI                              Compiler= PL-6/E31         Sev=      00
 SharedLib= :SHARED_SYSTEM                                    Alt SharedLib=


    ****  Control sections  ****

 Sect   Type Bound  Init  Size OctSiz  Section name(segment info)
    0  LblCom even  none     1      1  DEBUG
    1  LblCom even  none    20     24  REC
    2  LblCom even  none     1      1  NUM_ERROR_MSG
    3  LblCom even  none     1      1  NUM_WARN_MSG
    4  LblCom even  none     1      1  ALLOCATE_END
    5  LblCom even  none     2      2  SUBSCHEMA_KEY
    6  LblCom even  none     1      1  BUFFER$
    7  LblCom even  none     1      1  ERROR_IO
    8  LblCom even  none     1      1  BUFFER_LEN
    9  LblCom even  none     2      2  UWA_KEY
   10  LblCom even  none     1      1  NEXT_UWA_SECOND_HALF
   11  LblCom even  none     2      2  RVA_KEY
   12  LblCom even  none     2      2  IA__KEY
   13  LblCom even  none     1      1  NEXT_RVA_SECOND_HALF
   14  LblCom even  none    32     40  SEARCHR_NB
   15  LblCom even  none    32     40  SEM_COM
   16  LblCom even  none    32     40  DMCL_XLATE
   17  LblCom even  none    32     40  Q2_PERCENT
   18  LblCom even  none   656   1220  UWA
   19  LblCom even  none    12     14  ANALS
   20  LblCom even  none    13     15  PURGE
   21  LblCom even  none    19     23  DICTS
   22  LblCom even  none    23     27  DISPS
   23  LblCom even  none    22     26  VALIDS
   24  LblCom even  none    12     14  LOCKS
   25  LblCom even  none    10     12  STRAN
   26  LblCom even  none    12     14  DTRAN
   27  LblCom even  none    16     20  SSTRANS
   28  LblCom even  none    20     24  SSGEN
PL6.E3A0      #001=RDYPL File=ZIG$DDX0.:ZIC0TSI                                  FRI 09/05/97 11:51 Page:6
   29   Data  even  none     4      4  RDYPL
   30  RoData even  UTS     22     26  RDYPL
   31   Proc  even  none   115    163  RDYPL
   32  RoData even  none    15     17  RDYPL

    ****  Entry defs  ****

                              Check   Calling
                             calling  sequence
  Sect OctLoc Primary Altret sequence   type   Parms  Name
    31      0   yes            yes      Std        0  RDYPL

  ****  Entry refs  ****

         Check        Calling
        calling       sequence
Altret sequence SRef   type   Args  Name
 yes     yes           Std       2 FETCHD_6
 yes     yes           Std       1 FETCHOS_6
 yes     yes           Std       1 FETCHNS_6
 yes     yes           Std       1 FCURR_R_6
         yes           Std       0 ABORT
 yes     yes           Std       1 MODIFY_6
                       nStd      0 X66_AUTO_0
                       nStd      0 X66_ARET

  ****  Segment refs  ****

  Flags:  r = read only, s = secondary
Flgs Name                             Flgs Name                             Flgs Name
     ISSID
PL6.E3A0      #001=RDYPL File=ZIG$DDX0.:ZIC0TSI                                  FRI 09/05/97 11:51 Page:7


        1        1        /*M* ZIG$DDX0         I-D-S/II            DBACS    */
        2        2        /*T***********************************************************/
        3        3        /*T*                                                         */
        4        4        /*T* Copyright (c) Bull HN Information Systems Inc., 1997    */
        5        5        /*T*                                                         */
        6        6        /*T***********************************************************/
        7        7        RDYPL:
        8        8            PROC;

      8 31 000000   000000 700200 xent  RDYPL        TSX0  ! X66_AUTO_0
        31 000001   000020 000000                    ZERO    16,0

        9        9    1   DCL SDREF UBIN WORD;
       10       10    1   DCL DEBUG BIT(1) EXT;
       11       11    1   DCL REC CHAR(80) EXT;
       12       12    1   DCL NCS UBIN (36);
       13       13        %INCLUDE ZIG_GENERAL;
       14      121        %INCLUDE ZI_SUB4_CAN;
       15      778        %UWA;
       16     1113        %INCLUDE ZIG_DBA_INT;
       17     1161        %INCLUDE ZIG_DIR_STRUCS;
       18     1291    1   DCL COMPRD ENTRY;
       19     1292         /* Read routine */
       20     1293         /* Internal environment */
       21     1294    1   DCL BIT36 BIT(36) BASED;
       22     1295    1   DCL NOLK SBIN WORD STATIC INIT(0);
       23     1296    1   DCL TYPE BIT(36);
       24     1297         /* */
       25     1298    1   DCL R SBIN WORD STATIC INIT(0);
       26     1299    1   DCL S SBIN WORD STATIC INIT(0);
       27     1300    1   DCL T SBIN WORD STATIC INIT(0);
       28     1301    1   DCL LNAME CHAR(30);
       29     1302         /* This procedure will set the locked field in the si
       30     1303         elements */
       31     1304    1       CALL FETCHD_6('SF      ',2) ALTRET(CALL_ABORT);

PL6.E3A0      #001=RDYPL File=ZIG$DDX0.:ZIC0TSI                                  FRI 09/05/97 11:51 Page:8
   1304 31 000002   000002 630400 32                 EPPR0   2
        31 000003   000000 631400 32                 EPPR1   0
        31 000004   000000 701000 xent               TSX1    FETCHD_6
        31 000005   000150 702000 31                 TSX2    CALL_ABORT

       32     1305    1       CALL FETCHD_6('DA      ', UWA.SF.DBKEY_DA) ALTRET(CALL_ABORT);

   1305 31 000006   000004 630400 32                 EPPR0   4
        31 000007   000000 631400 32                 EPPR1   0
        31 000010   000000 701000 xent               TSX1    FETCHD_6
        31 000011   000150 702000 31                 TSX2    CALL_ABORT

       33     1306    1   RPL1:
       34     1307         /*      Each lk with a non null valuemust be processed */
       35     1308    1       CALL FETCHNS_6('DA-LK   ') ALTRET(L20);

   1308 31 000012   000007 630400 32    RPL1         EPPR0   7
        31 000013   000006 631400 32                 EPPR1   6
        31 000014   000000 701000 xent               TSX1    FETCHNS_6
        31 000015   000153 702000 31                 TSX2    L20

       36     1309    1       IF UWA.LK.PLVALUE = '"NULL"' THEN GOTO RPL1;

   1309 31 000016   040000 106400                    CMPC    fill='040'O
        31 000017   000447 400014 18                 ADSC9   UWA+295                  cn=2,n=12
        31 000020   000006 000006 30                 ADSC9   6                        cn=0,n=6
        31 000021   000012 600000 31                 TZE     RPL1

       37     1310         /* Get lock type(lt) descriptor */
       38     1311    1   RPL1A:
       39     1312    1       CALL FETCHNS_6('LK-LT   ') ALTRET(NEXT_LK);

   1312 31 000022   000010 630400 32    RPL1A        EPPR0   8
        31 000023   000006 631400 32                 EPPR1   6
        31 000024   000000 701000 xent               TSX1    FETCHNS_6
        31 000025   000134 702000 31                 TSX2    NEXT_LK

PL6.E3A0      #001=RDYPL File=ZIG$DDX0.:ZIC0TSI                                  FRI 09/05/97 11:51 Page:9
       40     1313         /* Save currency within the lk-lt set */
       41     1314    1       SDREF = UWA.DIRECT_REF;

   1314 31 000026   000036 235000 18                 LDA     UWA+30
        31 000027   200003 755100                    STA     SDREF,,AUTO

       42     1315    1       TYPE = ADDR(UWA.LT.PLOCKS)->BIT36;

   1315 31 000030   000473 236000 18                 LDQ     UWA+315
        31 000031   200005 756100                    STQ     TYPE,,AUTO

       43     1316         /* Get sn to begin check for 'OR' lock condition
       44     1317         */
       45     1318    1       CALL FETCHOS_6('SN-LT   ') ALTRET(CALL_ABORT);

   1318 31 000032   000011 630400 32                 EPPR0   9
        31 000033   000006 631400 32                 EPPR1   6
        31 000034   000000 701000 xent               TSX1    FETCHOS_6
        31 000035   000150 702000 31                 TSX2    CALL_ABORT

       46     1319    1   RPL1B:
       47     1320    1       CALL FETCHNS_6('SN-LT   ') ALTRET(SET_SI);

   1320 31 000036   000011 630400 32    RPL1B        EPPR0   9
        31 000037   000006 631400 32                 EPPR1   6
        31 000040   000000 701000 xent               TSX1    FETCHNS_6
        31 000041   000056 702000 31                 TSX2    SET_SI

       48     1321    2       IF TYPE = ADDR(UWA.LT.PLOCKS)->BIT36 THEN DO;

   1321 31 000042   200005 236100                    LDQ     TYPE,,AUTO
        31 000043   000473 116000 18                 CMPQ    UWA+315
        31 000044   000055 601000 31                 TNZ     s:1325

       49     1322    2           CALL FETCHOS_6('LK-LT   ') ALTRET(CALL_ABORT);

   1322 31 000045   000010 630400 32                 EPPR0   8
PL6.E3A0      #001=RDYPL File=ZIG$DDX0.:ZIC0TSI                                  FRI 09/05/97 11:51 Page:10
        31 000046   000006 631400 32                 EPPR1   6
        31 000047   000000 701000 xent               TSX1    FETCHOS_6
        31 000050   000150 702000 31                 TSX2    CALL_ABORT

       50     1323    2           IF UWA.LK.PLVALUE = '"NULL"' THEN GOTO RESET;

   1323 31 000051   040000 106400                    CMPC    fill='040'O
        31 000052   000447 400014 18                 ADSC9   UWA+295                  cn=2,n=12
        31 000053   000006 000006 30                 ADSC9   6                        cn=0,n=6
        31 000054   000123 600000 31                 TZE     RESET

       51     1324    2           END;

       52     1325    1       GOTO RPL1B;

   1325 31 000055   000036 710000 31                 TRA     RPL1B

       53     1326    1   SET_SI:
       54     1327    1       IF UWA.DB_STATUS ~= '0502100' THEN CALL ABORT;

   1327 31 000056   040000 106400       SET_SI       CMPC    fill='040'O
        31 000057   000001 000007 18                 ADSC9   UWA+1                    cn=0,n=7
        31 000060   000014 000007 30                 ADSC9   12                       cn=0,n=7
        31 000061   000065 600000 31                 TZE     s:1328

   1327 31 000062   000012 631400 32                 EPPR1   10
        31 000063   000000 701000 xent               TSX1    ABORT
        31 000064   000000 011000                    NOP     0

       55     1328    1       CALL FCURR_R_6('SN      ') ALTRET(CALL_ABORT);

   1328 31 000065   000013 630400 32                 EPPR0   11
        31 000066   000006 631400 32                 EPPR1   6
        31 000067   000000 701000 xent               TSX1    FCURR_R_6
        31 000070   000150 702000 31                 TSX2    CALL_ABORT

       56     1329    1       ADDR(UWA.SN.ACTLCKS)->BIT36 = ADDR(UWA.SN.ACTLCKS)->BIT36
PL6.E3A0      #001=RDYPL File=ZIG$DDX0.:ZIC0TSI                                  FRI 09/05/97 11:51 Page:11

   1329 31 000071   000426 236000 18                 LDQ     UWA+278
        31 000072   200005 276100                    ORQ     TYPE,,AUTO
        31 000073   000426 756000 18                 STQ     UWA+278

       57     1330    1          | TYPE;
       58     1331    1       CALL MODIFY_6('SN      ') ALTRET(CALL_ABORT);

   1331 31 000074   000013 630400 32                 EPPR0   11
        31 000075   000006 631400 32                 EPPR1   6
        31 000076   000000 701000 xent               TSX1    MODIFY_6
        31 000077   000150 702000 31                 TSX2    CALL_ABORT

       59     1332    1   SET_SI_1:
       60     1333         /*      Mark all the si's in the sn-si set */
       61     1334         /*      Get si */
       62     1335    1       CALL FETCHNS_6('SN-SI   ') ALTRET(END_SN_SI);

   1335 31 000100   000014 630400 32    SET_SI_1     EPPR0   12
        31 000101   000006 631400 32                 EPPR1   6
        31 000102   000000 701000 xent               TSX1    FETCHNS_6
        31 000103   000114 702000 31                 TSX2    END_SN_SI

       63     1336         /* Mark locked */
       64     1337    1       ADDR(UWA.SI.LOCKED)->BIT36 =

   1337 31 000104   000146 236000 18                 LDQ     UWA+102
        31 000105   200005 276100                    ORQ     TYPE,,AUTO
        31 000106   000146 756000 18                 STQ     UWA+102

       65     1338    1          ADDR(UWA.SI.LOCKED)->BIT36 | TYPE;
       66     1339    1       CALL MODIFY_6('SI      ') ALTRET(CALL_ABORT);

   1339 31 000107   000015 630400 32                 EPPR0   13
        31 000110   000006 631400 32                 EPPR1   6
        31 000111   000000 701000 xent               TSX1    MODIFY_6
        31 000112   000150 702000 31                 TSX2    CALL_ABORT
PL6.E3A0      #001=RDYPL File=ZIG$DDX0.:ZIC0TSI                                  FRI 09/05/97 11:51 Page:12

       67     1340    1       GOTO SET_SI_1;

   1340 31 000113   000100 710000 31                 TRA     SET_SI_1

       68     1341    1   END_SN_SI:
       69     1342    1       IF UWA.DB_STATUS ~= '0502100' THEN CALL ABORT;

   1342 31 000114   040000 106400       END_SN_SI    CMPC    fill='040'O
        31 000115   000001 000007 18                 ADSC9   UWA+1                    cn=0,n=7
        31 000116   000014 000007 30                 ADSC9   12                       cn=0,n=7
        31 000117   000123 600000 31                 TZE     RESET

   1342 31 000120   000012 631400 32                 EPPR1   10
        31 000121   000000 701000 xent               TSX1    ABORT
        31 000122   000000 011000                    NOP     0

       70     1343    1   RESET:
       71     1344    1       CALL FETCHD_6('LT      ',SDREF) ALTRET(CALL_ABORT);

   1344 31 000123   200003 630500       RESET        EPPR0   SDREF,,AUTO
        31 000124   200017 450500                    STP0    LNAME+9,,AUTO
        31 000125   000016 236000 32                 LDQ     14
        31 000126   200016 756100                    STQ     LNAME+8,,AUTO
        31 000127   200016 630500                    EPPR0   LNAME+8,,AUTO
        31 000130   000000 631400 32                 EPPR1   0
        31 000131   000000 701000 xent               TSX1    FETCHD_6
        31 000132   000150 702000 31                 TSX2    CALL_ABORT

       72     1345    1       GOTO RPL1A;

   1345 31 000133   000022 710000 31                 TRA     RPL1A

       73     1346    1   NEXT_LK:
       74     1347    1       IF UWA.DB_STATUS ~= '0502100' THEN CALL ABORT;

   1347 31 000134   040000 106400       NEXT_LK      CMPC    fill='040'O
PL6.E3A0      #001=RDYPL File=ZIG$DDX0.:ZIC0TSI                                  FRI 09/05/97 11:51 Page:13
        31 000135   000001 000007 18                 ADSC9   UWA+1                    cn=0,n=7
        31 000136   000014 000007 30                 ADSC9   12                       cn=0,n=7
        31 000137   000143 600000 31                 TZE     s:1348

   1347 31 000140   000012 631400 32                 EPPR1   10
        31 000141   000000 701000 xent               TSX1    ABORT
        31 000142   000000 011000                    NOP     0

       75     1348    1       CALL FETCHOS_6('LK-LT   ') ALTRET(CALL_ABORT);

   1348 31 000143   000010 630400 32                 EPPR0   8
        31 000144   000006 631400 32                 EPPR1   6
        31 000145   000000 701000 xent               TSX1    FETCHOS_6
        31 000146   000150 702000 31                 TSX2    CALL_ABORT

       76     1349    1       GOTO RPL1;

   1349 31 000147   000012 710000 31                 TRA     RPL1

       77     1350         /* */
       78     1351         /* Error messages */
       79     1352         /* */
       80     1353    1   CALL_ABORT: CALL ABORT;

   1353 31 000150   000012 631400 32    CALL_ABORT   EPPR1   10
        31 000151   000000 701000 xent               TSX1    ABORT
        31 000152   000000 011000                    NOP     0

       81     1354    1   L20:
       82     1355    1       IF UWA.DB_STATUS ~= '0502100' THEN CALL ABORT;

   1355 31 000153   040000 106400       L20          CMPC    fill='040'O
        31 000154   000001 000007 18                 ADSC9   UWA+1                    cn=0,n=7
        31 000155   000014 000007 30                 ADSC9   12                       cn=0,n=7
        31 000156   000162 600000 31                 TZE     s:1356

   1355 31 000157   000012 631400 32                 EPPR1   10
PL6.E3A0      #001=RDYPL File=ZIG$DDX0.:ZIC0TSI                                  FRI 09/05/97 11:51 Page:14
        31 000160   000000 701000 xent               TSX1    ABORT
        31 000161   000000 011000                    NOP     0

       83     1356    1   END;

   1356 31 000162   000000 702200 xent               TSX2  ! X66_ARET

REC
 Sect OctLoc
   1     000   ****** ******   ****** ******   ****** ******   ****** ******    ................

UWA_KEY
 Sect OctLoc
   9     000   007125 127101   ****** ******                                    .UWA....

RVA_KEY
 Sect OctLoc
  11     000   007122 126101   ****** ******                                    .RVA....

IA__KEY
 Sect OctLoc
  12     000   007111 101137   ****** ******                                    .IA_....

SEARCHR_NB
 Sect OctLoc
  14     000   001001 001001   001001 001001   001001 001001   001001 001001    ................
  14     010*  000001 001001   001001 001001   001001 001001   001001 001001    ................
  14     014   001001 001001   001001 001001   001001 001001   001001 001001    ................
  14     034*  001001 001001   001001 001001   001001 001001   001001 001001    ................

SEM_COM
 Sect OctLoc
  15     000   000001 002003   004005 006007   010011 012013   014015 016017    ................
  15     004   020021 022023   024025 026027   030031 032033   034035 036037    ................
  15     010   040041 042043   044045 046047   050051 052053   054055 056057     !"#$%&'()*+,-./
  15     014   060061 062063   064065 066067   070071 072040   074075 076077    0123456789: <=>?
  15     020   100101 102103   104105 106107   110111 112113   114115 116117    @ABCDEFGHIJKLMNO
PL6.E3A0      #001=RDYPL File=ZIG$DDX0.:ZIC0TSI                                  FRI 09/05/97 11:51 Page:15
  15     024   120121 122123   124125 126127   130131 132133   134135 136137    PQRSTUVWXYZ[\]^_
  15     030   140141 142143   144145 146147   150151 152153   154155 156157    `abcdefghijklmno
  15     034   160161 162163   164165 166167   170171 172173   174175 176177    pqrstuvwxyz{|}~.

DMCL_XLATE
 Sect OctLoc
  16     000   000001 002003   004005 006007   010011 012013   014015 016017    ................
  16     004   020021 022023   024025 026027   030031 032033   034035 036037    ................
  16     010   040041 041043   044045 046047   050051 052053   054055 136057     !!#$%&'()*+,-^/
  16     014   060061 062063   064065 066067   070071 072040   074075 076077    0123456789: <=>?
  16     020   100101 102103   104105 106107   110111 112113   114115 116117    @ABCDEFGHIJKLMNO
  16     024   120121 122123   124125 126127   130131 132133   134135 136137    PQRSTUVWXYZ[\]^_
  16     030   140141 142143   144145 146147   150151 152153   154155 156157    `abcdefghijklmno
  16     034   160161 162163   164165 166167   170171 172173   174175 176177    pqrstuvwxyz{|}~.

Q2_PERCENT
 Sect OctLoc
  17     000   000001 002003   004005 006007   010011 012013   014015 016017    ................
  17     004   020021 022023   024025 026027   030031 032033   034035 036037    ................
  17     010   040041 045043   044045 046047   050051 052053   054055 056057     !%#$%&'()*+,-./
  17     014   060061 062063   064065 066067   070071 072073   074075 076077    0123456789:;<=>?
  17     020   100101 102103   104105 106107   110111 112113   114115 116117    @ABCDEFGHIJKLMNO
  17     024   120121 122123   124125 126127   130131 132133   134135 136137    PQRSTUVWXYZ[\]^_
  17     030   140141 142143   144145 146147   150151 152153   154155 156157    `abcdefghijklmno
  17     034   160161 162163   164165 166167   170171 172173   174175 176177    pqrstuvwxyz{|}~.

UWA
 Sect OctLoc
  18     000   000000 000000   040040 040040   040040 040040   040040 040040    ....
  18     004   040040 040040   040040 040040   040040 040040   040040 040040
  18     010   040040 040040   040040 040040   040040 000000   040040 040040              ..
  18     014   040040 040040   040040 040040   040040 040040   040040 040040
  18     020   040040 040040   040040 040040   040040 000000   040040 040040              ..
  18     024   040040 040040   040040 040040   040040 040040   040040 040040
  18     030   040040 040040   040040 040040   040040 000000   040040 040040              ..
  18     034   040040 040040   040040 040040   000000 000000   040040 040040            ....
  18     040   040040 040040   040040 040040   040040 040040   040040 040040
PL6.E3A0      #001=RDYPL File=ZIG$DDX0.:ZIC0TSI                                  FRI 09/05/97 11:51 Page:16
  18     044   040040 040040   040040 040040   040040 000000   040040 040040              ..
  18     050   040040 040040   040040 040040   040040 040040   040040 040040
  18     054   040040 040040   040040 040040   040040 000000   000000 000000              ......
  18     060   040040 040040   040*** ******   000000 000000   000000 000000         ...........
  18     064   000000 000000   000000 000000   040040 040040   040040 040040    ........
  18     070   040040 040040   040040 040040   040040 040040   040040 040040
  18     100*  040040 ******   000000 000000   040040 040040   040040 040040      ......
  18     104   040040 040040   040040 040040   040040 040040   040040 040040
  18     124*  040040 040040   040040 040040   000000 000000   040040 040040            ....
  18     130   040040 040040   040040 040040   040040 040040   040040 040040
  18     134   040040 040040   040040 040040   040040 ******   000000 000000              ......
  18     140   040040 040040   040040 040040   040040 040040   040040 040040
  18     144   040040 040040   040040 040040   000000 000000   000000 000000            ........
  18     150   000000 000000   000000 000000   000000 000000   000000 000000    ................
  18     154   040040 040040   040040 040040   040040 040040   040040 040040
  18     160   040040 040040   040040 040040   040040 040040   040040 ******                  ..
  18     164   000000 000000   ****** ******   000000 000000   000000 000000    ................
  18     170   000000 000000   040040 040040   040040 040040   040040 040040    ....
  18     174   040040 040040   040040 040040   040040 040040   040040 040040
  18     210*  040040 040040   040040 040040   040040 040040   ****** ******                ....
  18     214   000000 000000   000000 000000   000000 000000   000000 000000    ................
  18     224*  000000 000000   000000 000000   000000 000000   040040 ******    ............  ..
  18     230   000000 000000   ****** ******   000000 000000   040040 040040    ............
  18     234   000000 000000   000000 000000   000000 000000   000000 000000    ................
  18     264*  000000 000000   000000 000000   000000 000000   ****** ******    ................
  18     270   000000 000000   000000 000000   000000 000000   000000 000000    ................
  18     324*  000000 000000   ****** ******   000000 000000   000000 000000    ................
  18     330   000000 000000   000000 000000   000000 000000   000000 000000    ................
  18     350*  000000 000000   000000 000000   000000 000000   ****** ******    ................
  18     360*  000000 000000   000000 000000   000000 000000   000000 000000    ................
  18     404*  000000 000000   ****** ******   000000 000000   000000 000000    ................
  18     410   000000 000000   000000 000000   000000 000000   000000 000000    ................
  18     424*  000000 000000   000000 000000   000000 000000   040040 040040    ............
  18     430   040040 040040   040040 040040   040040 040040   040040 040040
  18     434   040040 040040   040040 040040   040040 ******   ****** ******              ......
  18     440   040040 040040   040040 040040   040040 040040   040040 040040
  18     450*  040040 040040   040040 040040   040040 ******   ****** ******              ......
PL6.E3A0      #001=RDYPL File=ZIG$DDX0.:ZIC0TSI                                  FRI 09/05/97 11:51 Page:17
  18     454   000000 000000   040040 040040   040040 040040   040040 040040    ....
  18     460   040040 040040   040040 040040   040040 040040   040040 040040
  18     464   040040 ******   ****** ******   000000 000000   000000 000000      ..............
  18     470   000000 000000   000000 000000   000000 000000   000000 000000    ................
  18     474   000000 000000   ****** ******   000000 000000   000000 000000    ................
  18     500   000000 000000   000000 000000   040040 040040   040040 040040    ........
  18     504   040040 040040   040040 040040   040040 040040   040040 040040
  18     520*  040040 040040   ****** ******   000000 000000   000000 000000        ............
  18     524   040040 040040   040040 040040   040040 040040   040040 040040
  18     574*  000000 000000   000000 000000   000000 000000   000000 000000    ................
  18     600   000000 000000   000000 000000   000000 000000   ****** ******    ................
  18     604   000000 000000   000000 000000   000000 000000   000000 000000    ................
  18     610   000000 000000   000000 000000   040040 040040   040040 040040    ........
  18     614   040040 040040   040040 040040   040040 040040   040040 040040
  18     620   040040 040040   040040 ******   040040 040040   040040 040040          ..
  18     624   040040 040040   040040 040040   040040 040040   040040 040040
  18     660*  040040 040040   040040 040040   040040 040040   ****** ******                ....
  18     664   040040 040040   040040 040040   040040 040040   040040 040040
  18     674*  040040 040040   ****** ******   040040 040040   040040 040040        ....
  18     700   040040 040040   040040 040040   040040 040040   040040 040040
  18     710*  040040 040040   ****** ******   040040 040040   040040 040040        ....
  18     714   040040 040040   040040 040040   040040 040040   040040 040040
  18     720   040040 040040   040040 040040   040040 040040   ****** ******                ....
  18     724   040040 040040   040040 040040   040040 040040   040040 040040
  18     740*  040040 040040   ****** ******   040040 040040   040040 040040        ....
  18     744   040040 040040   040040 040040   040040 040040   040040 040040
  18     774*  040040 040040   ****** ******   040040 040040   040040 040040        ....
  18    1000   040040 040040   040040 040040   040040 040040   040040 040040
  18    1034*  040040 040040   ****** ******   040040 040040   040040 040040        ....
  18    1040   040040 040040   040040 040040   040040 040040   040040 040040
  18    1060*  040040 040040   ****** ******   040040 040040   040040 040040        ....
  18    1064   040040 040040   040040 040040   040040 040040   040040 040040
  18    1114*  040040 040040   ****** ******   040040 040040   040040 040040        ....
  18    1120   040040 040040   040040 040040   040040 040040   040040 040040
  18    1134*  040040 040040   040040 040040   040040 040040   ****** ******                ....
  18    1140   040040 040040   040040 040040   040040 040040   040040 040040
  18    1144   040040 040040   ****** ******   040040 040040   040040 040040        ....
PL6.E3A0      #001=RDYPL File=ZIG$DDX0.:ZIC0TSI                                  FRI 09/05/97 11:51 Page:18
  18    1150   040040 040040   040040 040040   040040 040040   ****** ******                ....
  18    1154   040040 040040   040040 040040   040040 040040   040040 040040
  18    1160   040040 040040   ****** ******   040040 040040   040040 040040        ....
  18    1164   040040 040040   040040 040040   040040 040040   ****** ******                ....
  18    1170   040040 040040   040040 040040   040040 040040   040040 040040
  18    1200*  040040 040040   040040 040040   040040 040040   ****** ******                ....
  18    1204   040040 040040   040040 040040   040040 040040   040040 040040
  18    1214*  040040 040040   040040 040040   040040 040040   040040 040040

ANALS
 Sect OctLoc
  19     000   ****** ******   ****** ******   ****** ******   ****** ******    ................

PURGE
 Sect OctLoc
  20     000   ****** ******   ****** ******   ****** ******   ****** ******    ................

DICTS
 Sect OctLoc
  21     000   ****** ******   ****** ******   ****** ******   ****** ******    ................

DISPS
 Sect OctLoc
  22     000   ***00* ******   ****** ******   ****** ******   ****** ******    ................
  22     024*  ****** ******   ****** ******   ****** ******                    ............

VALIDS
 Sect OctLoc
  23     000   ****** ******   ****** ******   ****** ******   ****** ******    ................

LOCKS
 Sect OctLoc
  24     000   ****** ******   ****** ******   ****** ******   ****** ******    ................

STRAN
 Sect OctLoc
  25     000   ****** ******   ****** ******   ****** ******   ****** ******    ................
PL6.E3A0      #001=RDYPL File=ZIG$DDX0.:ZIC0TSI                                  FRI 09/05/97 11:51 Page:19

DTRAN
 Sect OctLoc
  26     000   ****** ******   ****** ******   ****** ******   ****** ******    ................

SSTRANS
 Sect OctLoc
  27     000   ****** ******   ****** ******   ****** ******   ****** ******    ................

SSGEN
 Sect OctLoc
  28     000   ****** ******   ****** ******   ****** ******   ****** ******    ................

NOLK
 Sect OctLoc
  29     000   000000 000000                                                    ....

R
 Sect OctLoc
  29     001   000000 000000                                                    ....

S
 Sect OctLoc
  29     002   000000 000000                                                    ....

T
 Sect OctLoc
  29     003   000000 000000                                                    ....

(unnamed)
 Sect OctLoc
  30     000   123106 040040   040040 040040   104101 040040   040040 040040    SF      DA
  30     004   104101 055114   113040 040040   042116 125114   114042 040040    DA-LK   "NULL"
  30     010   114113 055114   124040 040040   123116 055114   124040 040040    LK-LT   SN-LT
  30     014   060065 060062   061060 060040   123116 040040   040040 040040    0502100 SN
  30     020   123116 055123   111040 040040   123111 040040   040040 040040    SN-SI   SI
  30     024   114124 040040   040040 040040                                    LT
PL6.E3A0      #001=RDYPL File=ZIG$DDX0.:ZIC0TSI                                  FRI 09/05/97 11:51 Page:20

(unnamed)
 Sect OctLoc
  32     000   000002 000000   000000 000002   000000 006000   000001 006000    ................
  32     004   000002 006000   000064 006000   000001 000000   000004 006000    .....4..........
  32     010   000010 006000   000012 006000   000000 000000   000016 006000    ................
  32     014   000020 006000   000022 006000   000024 006000                    ............

PL6.E3A0      #001=RDYPL File=ZIG$DDX0.:ZIC0TSI                                  FRI 09/05/97 11:51 Page:21
--  Include file information  --

   ZIG_DIR_STRUCS.:ZIC0TOU  cannot be made into a system file and is referenced.
   ZIG_DBA_INT.:ZIC0TOU  cannot be made into a system file and is referenced.
   ZI_SUB4_CAN.:ZIC0TOU  is referenced.
   ZIG_GENERAL.:ZIC0TOU  cannot be made into a system file and is referenced.
   B$JIT_C.:E05TOU  was found in the system file and is never referenced.
   CP_6_C.:E05TOU  was found in the system file and is never referenced.
      No diagnostics issued in procedure RDYPL.

   Procedure RDYPL requires 115 words for executable code.
   Procedure RDYPL requires 16 words of local(AUTO) storage.

    No errors detected in file ZIG$DDX0.:ZIC0TSI    .
PL6.E3A0      #001=RDYPL File=ZIG$DDX0.:ZIC0TSI                                  FRI 09/05/97 11:51 Page:22
          *** CROSS REFERENCE LISTING ***
**     DENOTES     IDENTIFIER DEFINITION
<<                 IDENTIFIER'S VALUE SET
>>                 IDENTIFIER'S VALUE USED
<>                 IDENTIFIER SET AND/OR USED
--                 IDENTIFIER REFERENCED
PL6.E3A0      #001=RDYPL File=ZIG$DDX0.:ZIC0TSI                                  FRI 09/05/97 11:51 Page:23
          MINI XREF LISTING

ABORT
        34**DCL-ENT  1327--CALL     1342--CALL     1347--CALL     1353--CALL     1355--CALL
BIT36
      1294**DCL      1315>>ASSIGN   1321>>IF       1329<<ASSIGN   1329>>ASSIGN   1337<<ASSIGN   1337>>ASSIGN
CALL_ABORT
      1353**LABEL    1304--CALLALT  1305--CALLALT  1318--CALLALT  1322--CALLALT  1328--CALLALT  1331--CALLALT
      1339--CALLALT  1344--CALLALT  1348--CALLALT
END_SN_SI
      1342**LABEL    1335--CALLALT
FCURR_R_6
      1125**DCL-ENT  1328--CALL
FETCHD_6
      1123**DCL-ENT  1304--CALL     1305--CALL     1344--CALL
FETCHNS_6
      1128**DCL-ENT  1308--CALL     1312--CALL     1320--CALL     1335--CALL
FETCHOS_6
      1132**DCL-ENT  1318--CALL     1322--CALL     1348--CALL
L20
      1355**LABEL    1308--CALLALT
MODIFY_6
      1126**DCL-ENT  1331--CALL     1339--CALL
NEXT_LK
      1347**LABEL    1312--CALLALT
RESET
      1344**LABEL    1323--GOTO
RPL1
      1308**LABEL    1309--GOTO     1349--GOTO
RPL1A
      1312**LABEL    1345--GOTO
RPL1B
      1320**LABEL    1325--GOTO
SDREF
PL6.E3A0      #001=RDYPL File=ZIG$DDX0.:ZIC0TSI                                  FRI 09/05/97 11:51 Page:24
         9**DCL      1314<<ASSIGN   1344<>CALL
SET_SI
      1327**LABEL    1320--CALLALT
SET_SI_1
      1335**LABEL    1340--GOTO
SUBSCHEMA_KEY
        61**DCL        62--REDEF
TYPE
      1296**DCL      1315<<ASSIGN   1321>>IF       1329>>ASSIGN   1337>>ASSIGN
UWA.AC.CALC_NEXT
       889**DCL       890--REDEF
UWA.AC.CALC_PRIOR
       898**DCL       899--REDEF
UWA.AC.DEFAULTS
       850**DCL       851--REDEF
UWA.AC.FILE_CODE
       855**DCL       856--REDEF
UWA.AC.FLAG1.ERROR_TYPE
       852**DCL       853--REDEF
UWA.DB_STATUS
       781**DCL      1327>>IF       1342>>IF       1347>>IF       1355>>IF
UWA.DIRECT_REF
       790**DCL      1314>>ASSIGN
UWA.LK.PLVALUE
      1011**DCL      1309>>IF       1323>>IF
UWA.LT.PLOCKS
      1022**DCL      1315--ASSIGN   1321--IF
UWA.SF.DBKEY_DA
       800**DCL      1305<>CALL
UWA.SI.LOCKED
       819**DCL      1337--ASSIGN   1337--ASSIGN
UWA.SN.ACTLCKS
      1007**DCL      1329--ASSIGN   1329--ASSIGN
