
PL6.E3A0      #001=EXEC File=ZIG$DDX1.:ZIC0TSI                                   FRI 09/05/97 11:51 Page:1
        1        1        /*M* ZIG$DDX1         I-D-S/II            DBACS    */
        2        2        /*T***********************************************************/
        3        3        /*T*                                                         */
        4        4        /*T* Copyright (c) Bull HN Information Systems Inc., 1997    */
        5        5        /*T*                                                         */
        6        6        /*T***********************************************************/
        7        7        EXEC:
        8        8            PROC MAIN;
        9        9        %INCLUDE ZIG_DIR_STRUCS;
       10      139        %INCLUDE ZI_ERRORS_SUBS;
       11      659    1   DCL SUB_LANGUAGE SBIN WORD EXT INIT (0);
       12      660    1   DCL ZIG$MEM_LIM ENTRY(1);
       13      661    1   DCL ZIG$SS_GEN ENTRY;
       14      662    1   DCL ZIG$FREE ENTRY(2) ALTRET;
       15      663    1   DCL ZIG$INIT_HAS ENTRY;
       16      664    1   DCL HAS_TABLE (0:808) PTR EXT;
       17      665    1   DCL STEPCC SBIN WORD STATIC;
       18      666    1   DCL STORE_AD SBIN WORD EXT INIT (0);
       19      667    1   DCL M_EXIT ENTRY (1);
       20      668    1   DCL SAVESW BIT (1) EXT INIT ('0'B);
       21      669    1   DCL CLOSE_64 ENTRY;
       22      670    1   DCL STARTSW BIT (1) STATIC;
       23      671    1   DCL LINE_COUNT SBIN EXT INIT (0);
       24      672    1   DCL LINE CHAR (4000) EXT INIT (' ');
       25      673    1   DCL ZIG$DDS1 ENTRY;
       26      674    1   DCL ZIG$DDS2 ENTRY;
       27      675    1   DCL INITIAL_ONLINE ENTRY;
       28      676    1   DCL RDWORD BIT (1) EXT INIT ('1'B);
       29      677    1   DCL ZIG$DDS5 ENTRY;
       30      678    1   DCL ZIG$DDER ENTRY(1);
       31      679    1   DCL INIT1 BIT(1) STATIC;
       32      680    1   DCL NOT_ENOUGH_MEMORY BIT(1);
       33      681    1   DCL ONLINE BIT (1) EXT INIT ('1'B);
       34      682    1   DCL FIRST_TIME_CALLED BIT(1) EXT INIT('1'B);
       35      683    1   DCL INCR SBIN WORD;
       36      684    1   DCL NPP SBIN EXT INIT (0);
       37      685    1   DCL PNPP PTR EXT;
PL6.E3A0      #001=EXEC File=ZIG$DDX1.:ZIC0TSI                                   FRI 09/05/97 11:51 Page:2
       38      686    1   DCL NSN SBIN HALF EXT INIT(0);
       39      687    1   DCL NSE SBIN EXT INIT (0);
       40      688    1   DCL PSEDBK PTR EXT;
       41      689    1   DCL PSNDBK PTR EXT;
       42      690    1   DCL STORE_DYNAMIC_MEM_VAL SBIN WORD EXT INIT (0);
       43      691    1   DCL SN_BY_REF SBIN EXT INIT (0);
       44      692    1   DCL INDEX_RESERVE UBIN WORD EXT INIT (0);
       45      693    1   DCL NO_ERRORS BIT(1) EXT INIT ('1'B);
       46      694    1   DCL 01 SF_SZ EXT,
       47      695    1         02 RLINKS SBIN WORD,
       48      696    1         02 RLLINKS SBIN WORD,
       49      697    1         02 MINUS_36 SBIN WORD,
       50      698    1         02 DBK_PAGE SBIN WORD,
       51      699    1         02 LINE_BITS SBIN WORD,
       52      700    1         02 MAX_PAGE SBIN WORD;
       53      701         /* Internal declarations */
       54      702    1   DCL X SBIN;
       55      703    1   DCL I UBIN WORD;
       56      704    1   DCL AVCORE SBIN EXT INIT (0);
       57      705    1   DCL SF_OPEN ENTRY(2);
       58      706    1   DCL PFREE_TOKEN PTR EXT;
       59      707    1   DCL SF_CLOSE ENTRY(2);
       60      708    1   DCL UOPEN ENTRY(2);
       61      709    1   DCL UCLOSE ENTRY(1);
       62      710    1   DCL STATUS SBIN EXT INIT (0);
       63      711    1   DCL CLOSEL ENTRY;
       64      712    1   DCL J UBIN WORD EXT INIT(0);
       65      713    1   DCL EOFFLG UBIN WORD EXT INIT(0);
       66      714    1   DCL NCS UBIN WORD EXT INIT (0);
       67      715    1   DCL DISP ENTRY;
       68      716    1   DCL DICT ENTRY;
       69      717    1   DCL ZIG$D_EXEC ENTRY ALTRET;
       70      718    1   DCL ZIG$SS_PDRI ENTRY;
       71      719    1   DCL ZIG$V_DRIVER ENTRY;
       72      720    1   DCL PURJ ENTRY;
       73      721    1   DCL ZIG$PURGE_SUB ENTRY;
       74      722    1   DCL LOCK ENTRY;
PL6.E3A0      #001=EXEC File=ZIG$DDX1.:ZIC0TSI                                   FRI 09/05/97 11:51 Page:3
       75      723    1   DCL ZIG$F_LOCKS ENTRY;
       76      724    1   DCL TFTOSF_DDL ENTRY;
       77      725    1   DCL DDY7 ENTRY;
       78      726    1   DCL SET37 ENTRY;
       79      727    1   DCL ABORT ENTRY;
       80      728    1   DCL EXEC_M ENTRY;
       81      729    1   DCL DBA_SUMMARY ENTRY;
       82      730    1   DCL FIXPOINTER ENTRY;
       83      731    1   DCL STAT SBIN EXT INIT (0);
       84      732    1   DCL REC ALIGNED CHAR(80) EXT INIT (' ');
       85      733    1   DCL SUBHD ENTRY(2);
       86      734    1   DCL LIST ENTRY(1);
       87      735    1   DCL HLIST ENTRY(1);
       88      736    1   DCL SUBLST ENTRY(1);
       89      737    1   DCL ERROR ENTRY(1);
       90      738    1   DCL PRVAL ENTRY;
       91      739         /* Code to ref ext structure */
       92      740    1   DCL DKEY CHAR(12) EXT INIT (' ');
       93      741    1   DCL MEMORY_SIZE_WORDS UBIN WORD EXT INIT(0);
       94      742    1   DCL MEMORY_USED_WORDS UBIN WORD EXT INIT(0);
       95      743    1   DCL MEMORY_USED_SSS UBIN WORD EXT INIT(0);
       96      744    1   DCL ALLOCATE_END UBIN WORD EXT INIT(0);
       97      745    1   DCL DS5 UBIN STATIC INIT(4);
       98      746    1   DCL 1 FIELD1 EXT,
       99      747    1         2 COUNT1 UBIN (9) UNAL,
      100      748    1         2 TEXT1 CHAR (31) UNAL;
      101      749    1   DCL 1 FIELD2 EXT,
      102      750    1         2 COUNT2 UBIN (9) UNAL,
      103      751    1         2 TEXT2 CHAR (31) UNAL;
      104      752    1   DCL SET_FIELD_NUM ENTRY(2);
      105      753    1   DCL DMALTR ENTRY;
      106      754    1   DCL SEVERITY SBIN WORD EXT INIT (0);
      107      755    1   DCL OPEN_M$SO ENTRY;
      108      756    1   DCL FIR_SW SBIN WORD EXT INIT(0); /* SWITCH FOR READ64 */
      109      757    1   DCL SUBMESS CHAR(0) CONSTANT INIT('DBACS DIRECTIVE PROCESSOR');
      110      758    1   DCL 1 B_VERSION ALIGNED SYMREF,
      111      759    1         2 L UBIN BYTE CALIGNED,
PL6.E3A0      #001=EXEC File=ZIG$DDX1.:ZIC0TSI                                   FRI 09/05/97 11:51 Page:4
      112      760    1         2 C CHAR(B_VERSION.L);
      113      761    1   DCL C128 CHAR(128);
      114      762    1   DCL ZIG$ZERO_TABLE ENTRY;
      115      763    1   DCL ZIG$V_PRINT ENTRY;
      116      764    1   DCL ZIG$D_FORT_INCL ENTRY;
      117      765    1   DCL NUM_WARN_MSG SBIN WORD EXT INIT (0);
      118      766    1   DCL NUM_ERROR_MSG SBIN WORD EXT INIT (0);
      119      767    1   DCL WRITE_SHADOW_FILE ENTRY (2);
      120      768    1   DCL SSS$ PTR EXT;
      121      769    1   DCL FIRST_SCHEMA_MADE BIT (1) EXT;
      122      770    1   DCL HIGH_SCHEMA_DBK UBIN (36) EXT;
      123      771    1   DCL NEED_LARGER_SCHEMA BIT (1) EXT;
      124      772        %EJECT;
PL6.E3A0      #001=EXEC File=ZIG$DDX1.:ZIC0TSI                                   FRI 09/05/97 11:51 Page:5
      125      773        /****************************************************************/
      126      774    1       NOT_ENOUGH_MEMORY = '0'B;
      127      775    1       CALL ZIG$MEM_LIM(NOT_ENOUGH_MEMORY);
      128      776         /* If the memory size is < 99 */
      129      777         /* then after prints out the subheader */
      130      778         /* issues the error message and quit */
      131      779    1       IF FIRST_TIME_CALLED THEN
      132      780    1           STRAN.STATUS = '000'B;
      133      781    1       FIRST_TIME_CALLED = '0'B;
      134      782    1       RDWORD = '1'B;
      135      783    1       STAT = 0;
      136      784    1       INIT1 = '1'B;
      137      785    1       SEVERITY=0;
      138      786    1       STEPCC=0;
      139      787    1       CALL CONCAT( C128, ' BULL HN    I-D-S/II    DBACS    VERS: ', B_VERSION.C );
      140      788    1       CALL HLIST (C128);
      141      789    1       CALL OPEN_M$SO;
      142      790    1   L0:
      143      791    1       CALL SET37;
      144      792    1       CALL ZIG$FREE(7,0) ALTRET(ALT_END); /* FREE ALL */
      145      793    1       PFREE_TOKEN = ADDR(NIL);
      146      794        /*
      147      795                 Set thing to show that no dynamic storage is out
      148      796                 at this time.
      149      797        */
      150      798    1       J=0; NCS=0; FIR_SW=0;
      151      799    1       NSN=0; NSE=0;
      152      800    1       FIRST_SCHEMA_MADE = '1'B;
      153      801    1       HIGH_SCHEMA_DBK = 0;
      154      802    1       NEED_LARGER_SCHEMA= '0'B;
      155      803    1       NPP = 0;
      156      804    1       PNPP = ADDR(NIL);
      157      805    1       PSEDBK = ADDR(NIL); PSNDBK = ADDR(NIL);
      158      806    1       SN_BY_REF = 0;
      159      807    1       NO_ERRORS = '1'B;
      160      808    1       NUM_ERROR_MSG = 0;
      161      809    1       NUM_WARN_MSG = 0;
PL6.E3A0      #001=EXEC File=ZIG$DDX1.:ZIC0TSI                                   FRI 09/05/97 11:51 Page:6
      162      810    1       SF_SZ.RLINKS = 0;
      163      811    1       CALL SUBHD(SUBMESS,LENGTHC(SUBMESS));
      164      812    1       IF NOT_ENOUGH_MEMORY THEN
      165      813    2       DO;
      166      814    2           CALL ERROR(9601);
      167      815        /*E*  ERROR:   ZIG-ZIG_NOT_ENOUGH_MEM-C
      168      816         MESSAGE:      Sorry, the user does not have enough memory.
      169      817                       Please allocate more and try again.
      170      818        */
      171      819    2           RETURN;
      172      820    2           END;
      173      821    1       STARTSW = '0'B;
      174      822    1       SAVESW = '0'B;
      175      823    1       CALL GET_DIRECTIVE;
      176      824    2       DO WHILE (EOFFLG = 0);
      177      825    2           CALL ZIG$DDS1;
      178      826    2           IF STATUS ~= 0
      179      827    3           THEN DO;
      180      828    3               C128 = 'DIRECTIVE NOT PROCESSED';
      181      829    3               CALL LIST (C128);
      182      830    3               CALL GET_DIRECTIVE;
      183      831    3               END;
      184      832    3           ELSE DO;
      185      833    3               NCS = 1;
      186      834    3               RDWORD = '0'B;
      187      835    3               CALL ZIG$DDS2;
      188      836    4               DO CASE(J);
      189      837    4               CASE(1); /* ASSIGN LOCKS */
      190      838    4                   CALL SF_OPEN(3,STATUS);
      191      839    4                   IF STATUS ~= 0 THEN GOTO SETSTAT;
      192      840    4                   CALL LOCK;
      193      841    4                   GOTO SFCLOSE;
      194      842    4               CASE(2); /* DISPLAY ACTIVITIES */
      195      843    4                   CALL SFOPEN ALTRET(BYPASS);
      196      844    4                   CALL DISP;
      197      845    4                   GOTO SFCLOSE;
      198      846    4               CASE(3); /* TRANSLATE DDL */
PL6.E3A0      #001=EXEC File=ZIG$DDX1.:ZIC0TSI                                   FRI 09/05/97 11:51 Page:7
      199      847    5                   DO I = 0 TO 808;
      200      848    5                       HAS_TABLE(I) = ADDR(NIL);
      201      849    5                       END;
      202      850    4                   CALL ZIG$D_EXEC ALTRET(ALT_END);
      203      851    4                   CALL SF_CLOSE(1,STATUS);
      204      852    4                   IF STATUS ~= 0 THEN CALL ABORT;
      205      853    4                   IF NO_ERRORS AND STRAN.STATUS = '000'B
      206      854    5                   THEN DO;
      207      855    5                       C128 = ' ';
      208      856    5                       CALL LIST(C128);
      209      857    5                       C128 = 'SCHEMA FILE INITIALIZED FOR DMCL';
      210      858    5                       CALL LIST(C128);
      211      859    5                       END;
      212      860    5                   ELSE DO;
      213      861    5                       CALL ZIG$DDER(4000);
      214      862        /*E*     ERROR:    ZIG-4000-C
      215      863        MESSAGE: The DDL has fatal errors in it.  Therefore, the schema
      216      864                 file will not be built, and all tasks performed
      217      865                 using this schema will fail until corrected.
      218      866        */
      219      867    5                       STEPCC=11;
      220      868    5                       END;
      221      869    4                   GOTO CORUSD;
      222      870    4               CASE(4); /* TRANSLATE DMCL */
      223      871    4                   IF STRAN.STATUS = '000'B THEN
      224      872    5                   DO;
      225      873    5                       CALL SF_OPEN(3, STATUS);
      226      874    5                       IF STATUS ~= 0 THEN
      227      875    5                           GOTO SETSTAT;
      228      876    5                       CALL DMALTR;
      229      877    5                       IF NO_ERRORS THEN
      230      878    6                       DO;
      231      879    6                           CALL EXEC_M;
      232      880    6                           IF NO_ERRORS AND DTRAN.STATUS = '000'B THEN
      233      881    7                           DO;
      234      882    7                               IF DTRAN.STORAGE THEN
      235      883    8                               DO;
PL6.E3A0      #001=EXEC File=ZIG$DDX1.:ZIC0TSI                                   FRI 09/05/97 11:51 Page:8
      236      884    8                                   CALL DBA_SUMMARY;
      237      885    8                                   END;
      238      886    7                               IF DTRAN.DATA THEN
      239      887    8                               DO;
      240      888    8                                   CALL DDY7;
      241      889    8                                   END;
      242      890    7                               END;
      243      891    7                           ELSE DO;
      244      892    7                               STEPCC=7;
      245      893    7                               END;
      246      894    6                           END;
      247      895    5                       GOTO SFCLOSE;
      248      896    5                       END;
      249      897    4                   ELSE
      250      898    5                   DO;
      251      899    5   SETSTAT:
      252      900    5                       STAT = 1;
      253      901    5                       CALL ZIG$DDER(4001);
      254      902        /*E*     ERROR:    ZIG-4001-C
      255      903        MESSAGE: The DMCL was bypassed because either the schema file does
      256      904                 not exist or the schema DDL had syntax errors.
      257      905        */
      258      906    5                       STEPCC=10;
      259      907    5                       END;
      260      908    4               CASE(5); /* TRANSLATE SUBSCHEMA DDL */
      261      909    4                   CALL ZIG$ZERO_TABLE;
      262      910    4                   CALL ZIG$INIT_HAS;
      263      911    4                   CALL ZIG$SS_PDRI;
      264      912    4                   CALL CLOSE_64;
      265      913    4                   CALL UCLOSE('2*');
      266      914    4                   GOTO CORUSD;
      267      915    4               CASE(6); /* VALIDATE */
      268      916    4                   CALL SFOPEN ALTRET(BYPASS);
      269      917    4                   CALL PRVAL;
      270      918    4                   IF VALIDS.STATUS = '000'B
      271      919    5                   THEN DO;
      272      920    5                       CALL ZIG$ZERO_TABLE;
PL6.E3A0      #001=EXEC File=ZIG$DDX1.:ZIC0TSI                                   FRI 09/05/97 11:51 Page:9
      273      921    5                       CALL ZIG$F_LOCKS;
      274      922    5                       CALL ZIG$V_DRIVER;
      275      923    5                       CALL CLOSE_64;
      276      924    5                       IF NO_ERRORS
      277      925    6                       THEN DO;
      278      926    6                           CALL WRITE_SHADOW_FILE(SSS$, MEMORY_USED_SSS);
      279      927    6                           END;
      280      928        /*
      281      929              This is the validater driver.
      282      930        */
      283      931    5                       END;
      284      932    4                   IF VALIDS.STATUS ~= '000'B
      285      933    4                   THEN STEPCC=5;
      286      934    4                   GOTO SFCLOSE;
      287      935    4               CASE(7); /* DISPLAY DICT */
      288      936    4                   CALL SFOPEN ALTRET(BYPASS);
      289      937    4                   CALL DICT;
      290      938    4                   GOTO SFCLOSE;
      291      939    4               CASE(9); /* PURGE */
      292      940    4                   CALL SFOPEN ALTRET(BYPASS);
      293      941    4                   CALL PURJ;
      294      942    4                   GOTO SFCLOSE;
      295      943    4               CASE(11); /* GENERATE SUBSCHEMA DDL */
      296      944    4                   CALL SFOPEN ALTRET(BYPASS);
      297      945    4                   CALL ZIG$ZERO_TABLE;
      298      946    4                   CALL ZIG$INIT_HAS;
      299      947    4                   CALL ZIG$SS_GEN;
      300      948    4                   GOTO SFCLOSE;
      301      949    4               CASE(12); /* PURGE ACTIVITIES */
      302      950    4                   CALL ZIG$PURGE_SUB;
      303      951    4                   GOTO L0;
      304      952    4               CASE(13); /* REPLACE */
      305      953    4                   CALL ZIG$V_PRINT;
      306      954    4                   CALL WRITE_SHADOW_FILE(SSS$,MEMORY_USED_SSS);
      307      955    4                   GOTO L0;
      308      956    4               CASE(18); /* DISPLAY FORTRAN INCLUDE */
      309      957    4                   CALL ZIG$D_FORT_INCL;
PL6.E3A0      #001=EXEC File=ZIG$DDX1.:ZIC0TSI                                   FRI 09/05/97 11:51 Page:10
      310      958    4                   GOTO L0;
      311      959    4               CASE(19); /* PRINT MODE */
      312      960    4                   CALL ZIG$V_PRINT;
      313      961    4                   GOTO L0;
      314      962    4               CASE(20); /* HELP */
      315      963    4                   GOTO L0;
      316      964    4                   END; /* END CASE */
      317      965    3               CALL ZIG$FREE(7,0) ALTRET(ALT_END); /* FREE ALL */
      318      966    3               END; /* ELSE DO */
      319      967    2           END; /* DO WHILE */
      320      968        %EJECT;
PL6.E3A0      #001=EXEC File=ZIG$DDX1.:ZIC0TSI                                   FRI 09/05/97 11:51 Page:11
      321      969    1       C128 = 'I-D-S/II COMPLETED ';
      322      970    1       CALL LIST (C128);
      323      971    1       CALL CLOSEL;
      324      972    1       CALL M_EXIT(STEPCC);
      325      973    1   BYPASS: C128 = 'DIRECTIVE NOT PROCESSED';
      326      974    1       CALL LIST (C128);
      327      975    1       GOTO L0;
      328      976    1   SFOPEN:
      329      977    1       PROC ALTRET;
      330      978    2       CALL SF_OPEN(0,STATUS);
      331      979    2       IF STATUS ~= 0 THEN
      332      980    2           ALTRETURN;
      333      981    2       RETURN;
      334      982    2   END; /*Sfopen*/
      335      983    1   SFCLOSE:
      336      984    1       CALL SF_CLOSE(0,STATUS);
      337      985    1       IF STATUS ~= 0 THEN
      338      986    1           CALL ABORT;
      339      987    1   CORUSD:
      340      988    1       C128 = ' ';
      341      989    1       CALL LIST(C128);
      342      990    1       CALL SET_FIELD_NUM(1,MEMORY_USED_WORDS);
      343      991    1       CALL SET_FIELD_NUM(2,MEMORY_SIZE_WORDS);
      344      992    1       CALL CONCAT(C128,SUBSTR(FIELD1.TEXT1,0,FIELD1.COUNT1),
      345      993    1          ' WORDS OF DYNAMIC MEMORY USED OUT OF ',
      346      994    1          SUBSTR(FIELD2.TEXT2,0,FIELD2.COUNT2),
      347      995    1          ' POSSIBLE');
      348      996    1       CALL LIST(C128);
      349      997    1       CALL SET_FIELD_NUM(1,AVCORE);
      350      998    1       CALL CONCAT(C128,SUBSTR(FIELD1.TEXT1,0,FIELD1.COUNT1),
      351      999    1          'K OF MEMORY USED THRU THIS DBACS STEP');
      352     1000    1       CALL LIST(C128);
      353     1001    1       IF STEPCC>8 THEN CALL M_EXIT(STEPCC);
      354     1002    1       GOTO L0;
      355     1003    1   GET_DIRECTIVE:
      356     1004    1       PROC;
      357     1005    2       NCS=0;
PL6.E3A0      #001=EXEC File=ZIG$DDX1.:ZIC0TSI                                   FRI 09/05/97 11:51 Page:12
      358     1006    2       LINE_COUNT=0;
      359     1007    3       DO WHILE (NCS = 0 AND EOFFLG = 0);
      360     1008    3           IF ONLINE AND LINE_COUNT = 1
      361     1009    4           THEN DO;
      362     1010    4               C128 = REC;
      363     1011    4               CALL LIST(C128);
      364     1012    4               SAVESW = '0'B;
      365     1013    4               CALL ZIG$DDER(9997);
      366     1014        /*E*     ERROR:    ZIG-ZER$START_DBACS-C
      367     1015            MESSAGE:  The directive must start with the keyword DBACS
      368     1016                      or one of the directive types.
      369     1017        */
      370     1018    4               END;
      371     1019    3           LINE_COUNT = 0;
      372     1020    3           LINE=' ';
      373     1021    3           CALL ZIG$DDS2;
      374     1022    3           IF INIT1
      375     1023    4           THEN DO;
      376     1024    4               CALL INITIAL_ONLINE;
      377     1025    4               INIT1 = '0'B;
      378     1026    4               END;
      379     1027    3           IF NCS=0 THEN STARTSW='1'B;
      380     1028    3           END;
      381     1029    2       IF ~ONLINE AND STARTSW AND (EOFFLG=0)
      382     1030    3       THEN DO;
      383     1031    3           IF STEPCC<4 THEN STEPCC=4;
      384     1032    3           CALL ZIG$DDER(9996);
      385     1033        /*E*     ERROR:    ZIG-ZER$DATA_BYPASSED-C
      386     1034            MESSAGE:  The above data was bypassed.
      387     1035        */
      388     1036    3           END;
      389     1037    2       STARTSW = '1'B;
      390     1038    2       RETURN;
      391     1039    2   END GET_DIRECTIVE;
      392     1040    1   ALT_END: CALL ABORT;
      393     1041    1   END EXEC;

PL6.E3A0      #001=EXEC File=ZIG$DDX1.:ZIC0TSI                                   FRI 09/05/97 11:51 Page:13
--  Include file information  --

   ZI_ERRORS_SUBS.:ZIC0TOU  is referenced.
   ZIG_DIR_STRUCS.:ZIC0TOU  cannot be made into a system file and is referenced.
   B$JIT_C.:E05TOU  was found in the system file and is never referenced.
   CP_6_C.:E05TOU  was found in the system file and is never referenced.
      No diagnostics issued in procedure EXEC.

   Procedure EXEC requires 565 words for executable code.
   Procedure EXEC requires 46 words of local(AUTO) storage.

    No errors detected in file ZIG$DDX1.:ZIC0TSI    .

PL6.E3A0      #001=EXEC File=ZIG$DDX1.:ZIC0TSI                                   FRI 09/05/97 11:51 Page:14

 Object Unit name= EXEC                                       File name= ZIG$DDX1.:ZIC0TOU
 UTS= SEP 05 '97 11:51:58.00 FRI                              Compiler= PL-6/E31         Sev=      00
 SharedLib= :SHARED_SYSTEM                                    Alt SharedLib=


    ****  Control sections  ****

 Sect   Type Bound  Init  Size OctSiz  Section name(segment info)
    0  LblCom even  none    12     14  ANALS
    1  LblCom even  none    13     15  PURGE
    2  LblCom even  none    19     23  DICTS
    3  LblCom even  none    23     27  DISPS
    4  LblCom even  none    22     26  VALIDS
    5  LblCom even  none    12     14  LOCKS
    6  LblCom even  none    10     12  STRAN
    7  LblCom even  none    12     14  DTRAN
    8  LblCom even  none    16     20  SSTRANS
    9  LblCom even  none    20     24  SSGEN
   10  LblCom even  none     1      1  SUB_LANGUAGE
   11  LblCom even  none   809   1451  HAS_TABLE
   12   Data  even  none     4      4  EXEC
   13  LblCom even  none     1      1  STORE_AD
   14  LblCom even  none     1      1  SAVESW
   15  LblCom even  none     1      1  LINE_COUNT
   16  LblCom even  none  1000   1750  LINE
   17  LblCom even  none     1      1  RDWORD
   18  LblCom even  none     1      1  ONLINE
   19  LblCom even  none     1      1  FIRST_TIME_CALLED
   20  LblCom even  none     1      1  NPP
   21  LblCom even  none     1      1  PNPP
   22  LblCom even  none     1      1  NSN
   23  LblCom even  none     1      1  NSE
   24  LblCom even  none     1      1  PSEDBK
   25  LblCom even  none     1      1  PSNDBK
   26  LblCom even  none     1      1  STORE_DYNAMIC_MEM_VAL
   27  LblCom even  none     1      1  SN_BY_REF
   28  LblCom even  none     1      1  INDEX_RESERVE
PL6.E3A0      #001=EXEC File=ZIG$DDX1.:ZIC0TSI                                   FRI 09/05/97 11:51 Page:15
   29  LblCom even  none     1      1  NO_ERRORS
   30  LblCom even  none     6      6  SF_SZ
   31  LblCom even  none     1      1  AVCORE
   32  LblCom even  none     1      1  PFREE_TOKEN
   33  LblCom even  none     1      1  STATUS
   34  LblCom even  none     1      1  J
   35  LblCom even  none     1      1  EOFFLG
   36  LblCom even  none     1      1  NCS
   37  LblCom even  none     1      1  STAT
   38  LblCom even  none    20     24  REC
   39  LblCom even  none     3      3  DKEY
   40  LblCom even  none     1      1  MEMORY_SIZE_WORDS
   41  LblCom even  none     1      1  MEMORY_USED_WORDS
   42  LblCom even  none     1      1  MEMORY_USED_SSS
   43  LblCom even  none     1      1  ALLOCATE_END
   44  LblCom even  none     8     10  FIELD1
   45  LblCom even  none     8     10  FIELD2
   46  LblCom even  none     1      1  SEVERITY
   47  LblCom even  none     1      1  FIR_SW
   48  RoData even  UTS     60     74  EXEC
   49  LblCom even  none     1      1  NUM_WARN_MSG
   50  LblCom even  none     1      1  NUM_ERROR_MSG
   51  LblCom even  none     1      1  SSS$
   52  LblCom even  none     1      1  FIRST_SCHEMA_MADE
   53  LblCom even  none     1      1  HIGH_SCHEMA_DBK
   54  LblCom even  none     1      1  NEED_LARGER_SCHEMA
   55   Proc  even  none   565   1065  EXEC
   56  RoData even  none    41     51  EXEC

    ****  Entry defs  ****

                              Check   Calling
                             calling  sequence
  Sect OctLoc Primary Altret sequence   type   Parms  Name
    55      0   yes            yes      Main       0  EXEC
PL6.E3A0      #001=EXEC File=ZIG$DDX1.:ZIC0TSI                                   FRI 09/05/97 11:51 Page:16

  ****  Entry refs  ****

         Check        Calling
        calling       sequence
Altret sequence SRef   type   Args  Name
         yes           Std       1 ZIG$MEM_LIM
         yes           Std       1 HLIST
         yes           Std       0 DMALTR
         yes           Std       1 M_EXIT
         yes           Std       0 ZIG$V_PRINT
         yes           Std       2 SF_OPEN
         yes           Std       0 DDY7
         yes           Std       0 ZIG$F_LOCKS
         yes           Std       0 OPEN_M$SO
         yes           Std       2 SET_FIELD_NUM
         yes           Std       0 SET37
 yes     yes           Std       2 ZIG$FREE
         yes           Std       2 SUBHD
         yes           Std       0 DISP
 yes     yes           Std       0 ZIG$D_EXEC
         yes           Std       0 CLOSE_64
         yes           Std       0 DICT
         yes           Std       0 PURJ
         yes           Std       0 CLOSEL
         yes           Std       0 PRVAL
         yes           Std       0 ZIG$DDS1
         yes           Std       1 LIST
         yes           Std       0 ZIG$SS_GEN
         yes           Std       0 ZIG$PURGE_SUB
         yes           Std       0 LOCK
         yes           Std       1 ZIG$DDER
         yes           Std       2 WRITE_SHADOW_FILE
         yes           Std       2 SF_CLOSE
         yes           Std       0 ZIG$V_DRIVER
         yes           Std       0 ZIG$D_FORT_INCL
         yes           Std       1 ERROR
         yes           Std       0 ZIG$DDS2
PL6.E3A0      #001=EXEC File=ZIG$DDX1.:ZIC0TSI                                   FRI 09/05/97 11:51 Page:17
         yes           Std       0 ABORT
         yes           Std       0 EXEC_M
         yes           Std       0 ZIG$INIT_HAS
         yes           Std       1 UCLOSE
         yes           Std       0 ZIG$ZERO_TABLE
         yes           Std       0 DBA_SUMMARY
         yes           Std       0 ZIG$SS_PDRI
         yes           Std       0 INITIAL_ONLINE
                       nStd      0 X66_MAUTO
                       nStd      0 X66_MARET

  ****  Data refs  ****

  Flags:  r = read only, s = secondary
Flgs Name                             Flgs Name                             Flgs Name
     B_VERSION

  ****  Segment refs  ****

  Flags:  r = read only, s = secondary
Flgs Name                             Flgs Name                             Flgs Name
     NULLSID                               ISSID
PL6.E3A0      #001=EXEC File=ZIG$DDX1.:ZIC0TSI                                   FRI 09/05/97 11:51 Page:18


        1        1        /*M* ZIG$DDX1         I-D-S/II            DBACS    */
        2        2        /*T***********************************************************/
        3        3        /*T*                                                         */
        4        4        /*T* Copyright (c) Bull HN Information Systems Inc., 1997    */
        5        5        /*T*                                                         */
        6        6        /*T***********************************************************/
        7        7        EXEC:
        8        8            PROC MAIN;

      8 55 000000   000000 700200 xent  EXEC         TSX0  ! X66_MAUTO
        55 000001   000056 000000                    ZERO    46,0

        9        9        %INCLUDE ZIG_DIR_STRUCS;
       10      139        %INCLUDE ZI_ERRORS_SUBS;
       11      659    1   DCL SUB_LANGUAGE SBIN WORD EXT INIT (0);
       12      660    1   DCL ZIG$MEM_LIM ENTRY(1);
       13      661    1   DCL ZIG$SS_GEN ENTRY;
       14      662    1   DCL ZIG$FREE ENTRY(2) ALTRET;
       15      663    1   DCL ZIG$INIT_HAS ENTRY;
       16      664    1   DCL HAS_TABLE (0:808) PTR EXT;
       17      665    1   DCL STEPCC SBIN WORD STATIC;
       18      666    1   DCL STORE_AD SBIN WORD EXT INIT (0);
       19      667    1   DCL M_EXIT ENTRY (1);
       20      668    1   DCL SAVESW BIT (1) EXT INIT ('0'B);
       21      669    1   DCL CLOSE_64 ENTRY;
       22      670    1   DCL STARTSW BIT (1) STATIC;
       23      671    1   DCL LINE_COUNT SBIN EXT INIT (0);
       24      672    1   DCL LINE CHAR (4000) EXT INIT (' ');
       25      673    1   DCL ZIG$DDS1 ENTRY;
       26      674    1   DCL ZIG$DDS2 ENTRY;
       27      675    1   DCL INITIAL_ONLINE ENTRY;
       28      676    1   DCL RDWORD BIT (1) EXT INIT ('1'B);
       29      677    1   DCL ZIG$DDS5 ENTRY;
       30      678    1   DCL ZIG$DDER ENTRY(1);
       31      679    1   DCL INIT1 BIT(1) STATIC;
       32      680    1   DCL NOT_ENOUGH_MEMORY BIT(1);
PL6.E3A0      #001=EXEC File=ZIG$DDX1.:ZIC0TSI                                   FRI 09/05/97 11:51 Page:19
       33      681    1   DCL ONLINE BIT (1) EXT INIT ('1'B);
       34      682    1   DCL FIRST_TIME_CALLED BIT(1) EXT INIT('1'B);
       35      683    1   DCL INCR SBIN WORD;
       36      684    1   DCL NPP SBIN EXT INIT (0);
       37      685    1   DCL PNPP PTR EXT;
       38      686    1   DCL NSN SBIN HALF EXT INIT(0);
       39      687    1   DCL NSE SBIN EXT INIT (0);
       40      688    1   DCL PSEDBK PTR EXT;
       41      689    1   DCL PSNDBK PTR EXT;
       42      690    1   DCL STORE_DYNAMIC_MEM_VAL SBIN WORD EXT INIT (0);
       43      691    1   DCL SN_BY_REF SBIN EXT INIT (0);
       44      692    1   DCL INDEX_RESERVE UBIN WORD EXT INIT (0);
       45      693    1   DCL NO_ERRORS BIT(1) EXT INIT ('1'B);
       46      694    1   DCL 01 SF_SZ EXT,
       47      695    1         02 RLINKS SBIN WORD,
       48      696    1         02 RLLINKS SBIN WORD,
       49      697    1         02 MINUS_36 SBIN WORD,
       50      698    1         02 DBK_PAGE SBIN WORD,
       51      699    1         02 LINE_BITS SBIN WORD,
       52      700    1         02 MAX_PAGE SBIN WORD;
       53      701         /* Internal declarations */
       54      702    1   DCL X SBIN;
       55      703    1   DCL I UBIN WORD;
       56      704    1   DCL AVCORE SBIN EXT INIT (0);
       57      705    1   DCL SF_OPEN ENTRY(2);
       58      706    1   DCL PFREE_TOKEN PTR EXT;
       59      707    1   DCL SF_CLOSE ENTRY(2);
       60      708    1   DCL UOPEN ENTRY(2);
       61      709    1   DCL UCLOSE ENTRY(1);
       62      710    1   DCL STATUS SBIN EXT INIT (0);
       63      711    1   DCL CLOSEL ENTRY;
       64      712    1   DCL J UBIN WORD EXT INIT(0);
       65      713    1   DCL EOFFLG UBIN WORD EXT INIT(0);
       66      714    1   DCL NCS UBIN WORD EXT INIT (0);
       67      715    1   DCL DISP ENTRY;
       68      716    1   DCL DICT ENTRY;
       69      717    1   DCL ZIG$D_EXEC ENTRY ALTRET;
PL6.E3A0      #001=EXEC File=ZIG$DDX1.:ZIC0TSI                                   FRI 09/05/97 11:51 Page:20
       70      718    1   DCL ZIG$SS_PDRI ENTRY;
       71      719    1   DCL ZIG$V_DRIVER ENTRY;
       72      720    1   DCL PURJ ENTRY;
       73      721    1   DCL ZIG$PURGE_SUB ENTRY;
       74      722    1   DCL LOCK ENTRY;
       75      723    1   DCL ZIG$F_LOCKS ENTRY;
       76      724    1   DCL TFTOSF_DDL ENTRY;
       77      725    1   DCL DDY7 ENTRY;
       78      726    1   DCL SET37 ENTRY;
       79      727    1   DCL ABORT ENTRY;
       80      728    1   DCL EXEC_M ENTRY;
       81      729    1   DCL DBA_SUMMARY ENTRY;
       82      730    1   DCL FIXPOINTER ENTRY;
       83      731    1   DCL STAT SBIN EXT INIT (0);
       84      732    1   DCL REC ALIGNED CHAR(80) EXT INIT (' ');
       85      733    1   DCL SUBHD ENTRY(2);
       86      734    1   DCL LIST ENTRY(1);
       87      735    1   DCL HLIST ENTRY(1);
       88      736    1   DCL SUBLST ENTRY(1);
       89      737    1   DCL ERROR ENTRY(1);
       90      738    1   DCL PRVAL ENTRY;
       91      739         /* Code to ref ext structure */
       92      740    1   DCL DKEY CHAR(12) EXT INIT (' ');
       93      741    1   DCL MEMORY_SIZE_WORDS UBIN WORD EXT INIT(0);
       94      742    1   DCL MEMORY_USED_WORDS UBIN WORD EXT INIT(0);
       95      743    1   DCL MEMORY_USED_SSS UBIN WORD EXT INIT(0);
       96      744    1   DCL ALLOCATE_END UBIN WORD EXT INIT(0);
       97      745    1   DCL DS5 UBIN STATIC INIT(4);
       98      746    1   DCL 1 FIELD1 EXT,
       99      747    1         2 COUNT1 UBIN (9) UNAL,
      100      748    1         2 TEXT1 CHAR (31) UNAL;
      101      749    1   DCL 1 FIELD2 EXT,
      102      750    1         2 COUNT2 UBIN (9) UNAL,
      103      751    1         2 TEXT2 CHAR (31) UNAL;
      104      752    1   DCL SET_FIELD_NUM ENTRY(2);
      105      753    1   DCL DMALTR ENTRY;
      106      754    1   DCL SEVERITY SBIN WORD EXT INIT (0);
PL6.E3A0      #001=EXEC File=ZIG$DDX1.:ZIC0TSI                                   FRI 09/05/97 11:51 Page:21
      107      755    1   DCL OPEN_M$SO ENTRY;
      108      756    1   DCL FIR_SW SBIN WORD EXT INIT(0); /* SWITCH FOR READ64 */
      109      757    1   DCL SUBMESS CHAR(0) CONSTANT INIT('DBACS DIRECTIVE PROCESSOR');
      110      758    1   DCL 1 B_VERSION ALIGNED SYMREF,
      111      759    1         2 L UBIN BYTE CALIGNED,
      112      760    1         2 C CHAR(B_VERSION.L);
      113      761    1   DCL C128 CHAR(128);
      114      762    1   DCL ZIG$ZERO_TABLE ENTRY;
      115      763    1   DCL ZIG$V_PRINT ENTRY;
      116      764    1   DCL ZIG$D_FORT_INCL ENTRY;
      117      765    1   DCL NUM_WARN_MSG SBIN WORD EXT INIT (0);
      118      766    1   DCL NUM_ERROR_MSG SBIN WORD EXT INIT (0);
      119      767    1   DCL WRITE_SHADOW_FILE ENTRY (2);
      120      768    1   DCL SSS$ PTR EXT;
      121      769    1   DCL FIRST_SCHEMA_MADE BIT (1) EXT;
      122      770    1   DCL HIGH_SCHEMA_DBK UBIN (36) EXT;
      123      771    1   DCL NEED_LARGER_SCHEMA BIT (1) EXT;
      124      772        %EJECT;
PL6.E3A0      #001=EXEC File=ZIG$DDX1.:ZIC0TSI                                   FRI 09/05/97 11:51 Page:22
      125      773        /****************************************************************/
      126      774    1       NOT_ENOUGH_MEMORY = '0'B;

    774 55 000002   200003 450100                    STZ     NOT_ENOUGH_MEMORY,,AUTO

      127      775    1       CALL ZIG$MEM_LIM(NOT_ENOUGH_MEMORY);

    775 55 000003   200003 630500                    EPPR0   NOT_ENOUGH_MEMORY,,AUTO
        55 000004   200052 450500                    STP0    C128+35,,AUTO
        55 000005   200052 630500                    EPPR0   C128+35,,AUTO
        55 000006   000000 631400 56                 EPPR1   0
        55 000007   000000 701000 xent               TSX1    ZIG$MEM_LIM
        55 000010   000000 011000                    NOP     0

      128      776         /* If the memory size is < 99 */
      129      777         /* then after prints out the subheader */
      130      778         /* issues the error message and quit */
      131      779    1       IF FIRST_TIME_CALLED THEN

    779 55 000011   000000 234000 19                 SZN     FIRST_TIME_CALLED
        55 000012   000015 605000 55                 TPL     s:781

      132      780    1           STRAN.STATUS = '000'B;

    780 55 000013   000001 236000 56                 LDQ     1
        55 000014   000000 356000 6                  ANSQ    STRAN

      133      781    1       FIRST_TIME_CALLED = '0'B;

    781 55 000015   000000 450000 19                 STZ     FIRST_TIME_CALLED

      134      782    1       RDWORD = '1'B;

    782 55 000016   400000 236003                    LDQ     -131072,DU
        55 000017   000000 756000 17                 STQ     RDWORD

      135      783    1       STAT = 0;
PL6.E3A0      #001=EXEC File=ZIG$DDX1.:ZIC0TSI                                   FRI 09/05/97 11:51 Page:23

    783 55 000020   000000 450000 37                 STZ     STAT

      136      784    1       INIT1 = '1'B;

    784 55 000021   000002 756000 12                 STQ     INIT1

      137      785    1       SEVERITY=0;

    785 55 000022   000000 450000 46                 STZ     SEVERITY

      138      786    1       STEPCC=0;

    786 55 000023   000000 450000 12                 STZ     STEPCC

      139      787    1       CALL CONCAT( C128, ' BULL HN    I-D-S/II    DBACS    VERS: ', B_VERSION.C );

    787 55 000024   000000 236000 xsym               LDQ     B_VERSION
        55 000025   000033 772000                    QRL     27
        55 000026   040100 100400                    MLR     fill='040'O
        55 000027   000007 000047 48                 ADSC9   SUBMESS+7                cn=0,n=39
        55 000030   200007 000047                    ADSC9   C128,,AUTO               cn=0,n=39
        55 000031   000000 620006                    EAX0    0,QL
        55 000032   040100 100440                    MLR     fill='040'O
        55 000033   000000 200010 xsym               ADSC9   B_VERSION                cn=1,n=*X0
        55 000034   200020 600131                    ADSC9   C128+9,,AUTO             cn=3,n=89

      140      788    1       CALL HLIST (C128);

    788 55 000035   200007 630500                    EPPR0   C128,,AUTO
        55 000036   200052 450500                    STP0    C128+35,,AUTO
        55 000037   200052 630500                    EPPR0   C128+35,,AUTO
        55 000040   000000 631400 56                 EPPR1   0
        55 000041   000000 701000 xent               TSX1    HLIST
        55 000042   000000 011000                    NOP     0

      141      789    1       CALL OPEN_M$SO;
PL6.E3A0      #001=EXEC File=ZIG$DDX1.:ZIC0TSI                                   FRI 09/05/97 11:51 Page:24

    789 55 000043   000002 631400 56                 EPPR1   2
        55 000044   000000 701000 xent               TSX1    OPEN_M$SO
        55 000045   000000 011000                    NOP     0

      142      790    1   L0:
      143      791    1       CALL SET37;

    791 55 000046   000002 631400 56    L0           EPPR1   2
        55 000047   000000 701000 xent               TSX1    SET37
        55 000050   000000 011000                    NOP     0

      144      792    1       CALL ZIG$FREE(7,0) ALTRET(ALT_END); /* FREE ALL */

    792 55 000051   000005 630400 56                 EPPR0   5
        55 000052   000003 631400 56                 EPPR1   3
        55 000053   000000 701000 xent               TSX1    ZIG$FREE
        55 000054   001061 702000 55                 TSX2    ALT_END

      145      793    1       PFREE_TOKEN = ADDR(NIL);

    793 55 000055   000007 236000 56                 LDQ     7
        55 000056   000000 756000 32                 STQ     PFREE_TOKEN

      146      794        /*
      147      795                 Set thing to show that no dynamic storage is out
      148      796                 at this time.
      149      797        */
      150      798    1       J=0; NCS=0; FIR_SW=0;

    798 55 000057   000000 450000 34                 STZ     J

    798 55 000060   000000 450000 36                 STZ     NCS

    798 55 000061   000000 450000 47                 STZ     FIR_SW

      151      799    1       NSN=0; NSE=0;
PL6.E3A0      #001=EXEC File=ZIG$DDX1.:ZIC0TSI                                   FRI 09/05/97 11:51 Page:25

    799 55 000062   000000 220003                    LDX0    0,DU
        55 000063   000000 740000 22                 STX0    NSN

    799 55 000064   000000 450000 23                 STZ     NSE

      152      800    1       FIRST_SCHEMA_MADE = '1'B;

    800 55 000065   400000 236003                    LDQ     -131072,DU
        55 000066   000000 756000 52                 STQ     FIRST_SCHEMA_MADE

      153      801    1       HIGH_SCHEMA_DBK = 0;

    801 55 000067   000000 450000 53                 STZ     HIGH_SCHEMA_DBK

      154      802    1       NEED_LARGER_SCHEMA= '0'B;

    802 55 000070   000000 450000 54                 STZ     NEED_LARGER_SCHEMA

      155      803    1       NPP = 0;

    803 55 000071   000000 450000 20                 STZ     NPP

      156      804    1       PNPP = ADDR(NIL);

    804 55 000072   000007 236000 56                 LDQ     7
        55 000073   000000 756000 21                 STQ     PNPP

      157      805    1       PSEDBK = ADDR(NIL); PSNDBK = ADDR(NIL);

    805 55 000074   000000 756000 24                 STQ     PSEDBK

    805 55 000075   000000 756000 25                 STQ     PSNDBK

      158      806    1       SN_BY_REF = 0;

    806 55 000076   000000 450000 27                 STZ     SN_BY_REF
PL6.E3A0      #001=EXEC File=ZIG$DDX1.:ZIC0TSI                                   FRI 09/05/97 11:51 Page:26

      159      807    1       NO_ERRORS = '1'B;

    807 55 000077   400000 236003                    LDQ     -131072,DU
        55 000100   000000 756000 29                 STQ     NO_ERRORS

      160      808    1       NUM_ERROR_MSG = 0;

    808 55 000101   000000 450000 50                 STZ     NUM_ERROR_MSG

      161      809    1       NUM_WARN_MSG = 0;

    809 55 000102   000000 450000 49                 STZ     NUM_WARN_MSG

      162      810    1       SF_SZ.RLINKS = 0;

    810 55 000103   000000 450000 30                 STZ     SF_SZ

      163      811    1       CALL SUBHD(SUBMESS,LENGTHC(SUBMESS));

    811 55 000104   000011 630400 56                 EPPR0   9
        55 000105   000003 631400 56                 EPPR1   3
        55 000106   000000 701000 xent               TSX1    SUBHD
        55 000107   000000 011000                    NOP     0

      164      812    1       IF NOT_ENOUGH_MEMORY THEN

    812 55 000110   200003 234100                    SZN     NOT_ENOUGH_MEMORY,,AUTO
        55 000111   000117 605000 55                 TPL     s:821

      165      813    2       DO;

      166      814    2           CALL ERROR(9601);

    814 55 000112   000014 630400 56                 EPPR0   12
        55 000113   000000 631400 56                 EPPR1   0
        55 000114   000000 701000 xent               TSX1    ERROR
PL6.E3A0      #001=EXEC File=ZIG$DDX1.:ZIC0TSI                                   FRI 09/05/97 11:51 Page:27
        55 000115   000000 011000                    NOP     0

      167      815        /*E*  ERROR:   ZIG-ZIG_NOT_ENOUGH_MEM-C
      168      816         MESSAGE:      Sorry, the user does not have enough memory.
      169      817                       Please allocate more and try again.
      170      818        */
      171      819    2           RETURN;

    819 55 000116   000000 702200 xent               TSX2  ! X66_MARET

      172      820    2           END;
      173      821    1       STARTSW = '0'B;

    821 55 000117   000001 450000 12                 STZ     STARTSW

      174      822    1       SAVESW = '0'B;

    822 55 000120   000000 450000 14                 STZ     SAVESW

      175      823    1       CALL GET_DIRECTIVE;

    823 55 000121   000760 701000 55                 TSX1    GET_DIRECTIVE
        55 000122   000000 011000                    NOP     0

      176      824    2       DO WHILE (EOFFLG = 0);

    824 55 000123   000000 235000 35                 LDA     EOFFLG
        55 000124   000533 601000 55                 TNZ     s:969

      177      825    2           CALL ZIG$DDS1;

    825 55 000125   000002 631400 56                 EPPR1   2
        55 000126   000000 701000 xent               TSX1    ZIG$DDS1
        55 000127   000000 011000                    NOP     0

      178      826    2           IF STATUS ~= 0

PL6.E3A0      #001=EXEC File=ZIG$DDX1.:ZIC0TSI                                   FRI 09/05/97 11:51 Page:28
    826 55 000130   000000 235000 33                 LDA     STATUS
        55 000131   000146 600000 55                 TZE     s:833

      179      827    3           THEN DO;

      180      828    3               C128 = 'DIRECTIVE NOT PROCESSED';

    828 55 000132   040100 100400                    MLR     fill='040'O
        55 000133   000021 000027 48                 ADSC9   SUBMESS+17               cn=0,n=23
        55 000134   200007 000200                    ADSC9   C128,,AUTO               cn=0,n=128

      181      829    3               CALL LIST (C128);

    829 55 000135   200007 630500                    EPPR0   C128,,AUTO
        55 000136   200052 450500                    STP0    C128+35,,AUTO
        55 000137   200052 630500                    EPPR0   C128+35,,AUTO
        55 000140   000000 631400 56                 EPPR1   0
        55 000141   000000 701000 xent               TSX1    LIST
        55 000142   000000 011000                    NOP     0

      182      830    3               CALL GET_DIRECTIVE;

    830 55 000143   000760 701000 55                 TSX1    GET_DIRECTIVE
        55 000144   000000 011000                    NOP     0

      183      831    3               END;

    831 55 000145   000531 710000 55                 TRA     s:967

      184      832    3           ELSE DO;

      185      833    3               NCS = 1;

    833 55 000146   000001 236007                    LDQ     1,DL
        55 000147   000000 756000 36                 STQ     NCS

      186      834    3               RDWORD = '0'B;
PL6.E3A0      #001=EXEC File=ZIG$DDX1.:ZIC0TSI                                   FRI 09/05/97 11:51 Page:29

    834 55 000150   000000 450000 17                 STZ     RDWORD

      187      835    3               CALL ZIG$DDS2;

    835 55 000151   000002 631400 56                 EPPR1   2
        55 000152   000000 701000 xent               TSX1    ZIG$DDS2
        55 000153   000000 011000                    NOP     0

      188      836    4               DO CASE(J);

    836 55 000154   000000 235000 34                 LDA     J
        55 000155   000025 115007                    CMPA    21,DL
        55 000156   000160 602005 55                 TNC     s:836+4,AL
        55 000157   000525 710000 55                 TRA     s:965
        55 000160   000525 710000 55                 TRA     s:965
        55 000161   000205 710000 55                 TRA     s:838
        55 000162   000217 710000 55                 TRA     s:843
        55 000163   000225 710000 55                 TRA     s:847
        55 000164   000311 710000 55                 TRA     s:871
        55 000165   000367 710000 55                 TRA     s:909
        55 000166   000410 710000 55                 TRA     s:916
        55 000167   000450 710000 55                 TRA     s:936
        55 000170   000525 710000 55                 TRA     s:965
        55 000171   000456 710000 55                 TRA     s:940
        55 000172   000525 710000 55                 TRA     s:965
        55 000173   000464 710000 55                 TRA     s:944
        55 000174   000500 710000 55                 TRA     s:950
        55 000175   000504 710000 55                 TRA     s:953
        55 000176   000525 710000 55                 TRA     s:965
        55 000177   000525 710000 55                 TRA     s:965
        55 000200   000525 710000 55                 TRA     s:965
        55 000201   000525 710000 55                 TRA     s:965
        55 000202   000514 710000 55                 TRA     s:957
        55 000203   000520 710000 55                 TRA     s:960
        55 000204   000524 710000 55                 TRA     s:963

PL6.E3A0      #001=EXEC File=ZIG$DDX1.:ZIC0TSI                                   FRI 09/05/97 11:51 Page:30
      189      837    4               CASE(1); /* ASSIGN LOCKS */

      190      838    4                   CALL SF_OPEN(3,STATUS);

    838 55 000205   000016 630400 56                 EPPR0   14
        55 000206   000003 631400 56                 EPPR1   3
        55 000207   000000 701000 xent               TSX1    SF_OPEN
        55 000210   000000 011000                    NOP     0

      191      839    4                   IF STATUS ~= 0 THEN GOTO SETSTAT;

    839 55 000211   000000 235000 33                 LDA     STATUS
        55 000212   000356 601000 55                 TNZ     SETSTAT

      192      840    4                   CALL LOCK;

    840 55 000213   000002 631400 56                 EPPR1   2
        55 000214   000000 701000 xent               TSX1    LOCK
        55 000215   000000 011000                    NOP     0

      193      841    4                   GOTO SFCLOSE;

    841 55 000216   000600 710000 55                 TRA     SFCLOSE

      194      842    4               CASE(2); /* DISPLAY ACTIVITIES */

      195      843    4                   CALL SFOPEN ALTRET(BYPASS);

    843 55 000217   000565 701000 55                 TSX1    SFOPEN
        55 000220   000553 702000 55                 TSX2    BYPASS

      196      844    4                   CALL DISP;

    844 55 000221   000002 631400 56                 EPPR1   2
        55 000222   000000 701000 xent               TSX1    DISP
        55 000223   000000 011000                    NOP     0

PL6.E3A0      #001=EXEC File=ZIG$DDX1.:ZIC0TSI                                   FRI 09/05/97 11:51 Page:31
      197      845    4                   GOTO SFCLOSE;

    845 55 000224   000600 710000 55                 TRA     SFCLOSE

      198      846    4               CASE(3); /* TRANSLATE DDL */

      199      847    5                   DO I = 0 TO 808;

    847 55 000225   200006 450100                    STZ     I,,AUTO

      200      848    5                       HAS_TABLE(I) = ADDR(NIL);

    848 55 000226   000007 236000 56                 LDQ     7
        55 000227   200006 720100                    LXL0    I,,AUTO
        55 000230   000000 756010 11                 STQ     HAS_TABLE,X0

      201      849    5                       END;

    849 55 000231   200006 235100                    LDA     I,,AUTO
        55 000232   000001 035007                    ADLA    1,DL
        55 000233   200006 755100                    STA     I,,AUTO
        55 000234   001451 115007                    CMPA    809,DL
        55 000235   000226 602000 55                 TNC     s:848

      202      850    4                   CALL ZIG$D_EXEC ALTRET(ALT_END);

    850 55 000236   000002 631400 56                 EPPR1   2
        55 000237   000000 701000 xent               TSX1    ZIG$D_EXEC
        55 000240   001061 702000 55                 TSX2    ALT_END

      203      851    4                   CALL SF_CLOSE(1,STATUS);

    851 55 000241   000021 630400 56                 EPPR0   17
        55 000242   000003 631400 56                 EPPR1   3
        55 000243   000000 701000 xent               TSX1    SF_CLOSE
        55 000244   000000 011000                    NOP     0

PL6.E3A0      #001=EXEC File=ZIG$DDX1.:ZIC0TSI                                   FRI 09/05/97 11:51 Page:32
      204      852    4                   IF STATUS ~= 0 THEN CALL ABORT;

    852 55 000245   000000 235000 33                 LDA     STATUS
        55 000246   000252 600000 55                 TZE     s:853

    852 55 000247   000002 631400 56                 EPPR1   2
        55 000250   000000 701000 xent               TSX1    ABORT
        55 000251   000000 011000                    NOP     0

      205      853    4                   IF NO_ERRORS AND STRAN.STATUS = '000'B

    853 55 000252   000000 234000 29                 SZN     NO_ERRORS
        55 000253   000302 605000 55                 TPL     s:861
        55 000254   000000 236000 6                  LDQ     STRAN
        55 000255   700000 316003                    CANQ    -32768,DU
        55 000256   000302 601000 55                 TNZ     s:861

      206      854    5                   THEN DO;

      207      855    5                       C128 = ' ';

    855 55 000257   040100 100400                    MLR     fill='040'O
        55 000260   000023 000001 56                 ADSC9   19                       cn=0,n=1
        55 000261   200007 000200                    ADSC9   C128,,AUTO               cn=0,n=128

      208      856    5                       CALL LIST(C128);

    856 55 000262   200007 630500                    EPPR0   C128,,AUTO
        55 000263   200052 450500                    STP0    C128+35,,AUTO
        55 000264   200052 630500                    EPPR0   C128+35,,AUTO
        55 000265   000000 631400 56                 EPPR1   0
        55 000266   000000 701000 xent               TSX1    LIST
        55 000267   000000 011000                    NOP     0

      209      857    5                       C128 = 'SCHEMA FILE INITIALIZED FOR DMCL';

    857 55 000270   040100 100400                    MLR     fill='040'O
PL6.E3A0      #001=EXEC File=ZIG$DDX1.:ZIC0TSI                                   FRI 09/05/97 11:51 Page:33
        55 000271   000027 000040 48                 ADSC9   SUBMESS+23               cn=0,n=32
        55 000272   200007 000200                    ADSC9   C128,,AUTO               cn=0,n=128

      210      858    5                       CALL LIST(C128);

    858 55 000273   200007 630500                    EPPR0   C128,,AUTO
        55 000274   200052 450500                    STP0    C128+35,,AUTO
        55 000275   200052 630500                    EPPR0   C128+35,,AUTO
        55 000276   000000 631400 56                 EPPR1   0
        55 000277   000000 701000 xent               TSX1    LIST
        55 000300   000000 011000                    NOP     0

      211      859    5                       END;

    859 55 000301   000310 710000 55                 TRA     s:869

      212      860    5                   ELSE DO;

      213      861    5                       CALL ZIG$DDER(4000);

    861 55 000302   000025 630400 56                 EPPR0   21
        55 000303   000000 631400 56                 EPPR1   0
        55 000304   000000 701000 xent               TSX1    ZIG$DDER
        55 000305   000000 011000                    NOP     0

      214      862        /*E*     ERROR:    ZIG-4000-C
      215      863        MESSAGE: The DDL has fatal errors in it.  Therefore, the schema
      216      864                 file will not be built, and all tasks performed
      217      865                 using this schema will fail until corrected.
      218      866        */
      219      867    5                       STEPCC=11;

    867 55 000306   000013 235007                    LDA     11,DL
        55 000307   000000 755000 12                 STA     STEPCC

      220      868    5                       END;

PL6.E3A0      #001=EXEC File=ZIG$DDX1.:ZIC0TSI                                   FRI 09/05/97 11:51 Page:34
      221      869    4                   GOTO CORUSD;

    869 55 000310   000611 710000 55                 TRA     CORUSD

      222      870    4               CASE(4); /* TRANSLATE DMCL */

      223      871    4                   IF STRAN.STATUS = '000'B THEN

    871 55 000311   000000 236000 6                  LDQ     STRAN
        55 000312   700000 316003                    CANQ    -32768,DU
        55 000313   000356 601000 55                 TNZ     SETSTAT

      224      872    5                   DO;

      225      873    5                       CALL SF_OPEN(3, STATUS);

    873 55 000314   000016 630400 56                 EPPR0   14
        55 000315   000003 631400 56                 EPPR1   3
        55 000316   000000 701000 xent               TSX1    SF_OPEN
        55 000317   000000 011000                    NOP     0

      226      874    5                       IF STATUS ~= 0 THEN

    874 55 000320   000000 235000 33                 LDA     STATUS
        55 000321   000356 601000 55                 TNZ     SETSTAT

      227      875    5                           GOTO SETSTAT;
      228      876    5                       CALL DMALTR;

    876 55 000322   000002 631400 56                 EPPR1   2
        55 000323   000000 701000 xent               TSX1    DMALTR
        55 000324   000000 011000                    NOP     0

      229      877    5                       IF NO_ERRORS THEN

    877 55 000325   000000 234000 29                 SZN     NO_ERRORS
        55 000326   000355 605000 55                 TPL     s:895
PL6.E3A0      #001=EXEC File=ZIG$DDX1.:ZIC0TSI                                   FRI 09/05/97 11:51 Page:35

      230      878    6                       DO;

      231      879    6                           CALL EXEC_M;

    879 55 000327   000002 631400 56                 EPPR1   2
        55 000330   000000 701000 xent               TSX1    EXEC_M
        55 000331   000000 011000                    NOP     0

      232      880    6                           IF NO_ERRORS AND DTRAN.STATUS = '000'B THEN

    880 55 000332   000000 234000 29                 SZN     NO_ERRORS
        55 000333   000353 605000 55                 TPL     s:892
        55 000334   000000 236000 7                  LDQ     DTRAN
        55 000335   700000 316003                    CANQ    -32768,DU
        55 000336   000353 601000 55                 TNZ     s:892

      233      881    7                           DO;

      234      882    7                               IF DTRAN.STORAGE THEN

    882 55 000337   020000 316003                    CANQ    8192,DU
        55 000340   000344 600000 55                 TZE     s:886

      235      883    8                               DO;

      236      884    8                                   CALL DBA_SUMMARY;

    884 55 000341   000002 631400 56                 EPPR1   2
        55 000342   000000 701000 xent               TSX1    DBA_SUMMARY
        55 000343   000000 011000                    NOP     0

      237      885    8                                   END;

      238      886    7                               IF DTRAN.DATA THEN

    886 55 000344   000000 236000 7                  LDQ     DTRAN
PL6.E3A0      #001=EXEC File=ZIG$DDX1.:ZIC0TSI                                   FRI 09/05/97 11:51 Page:36
        55 000345   040000 316003                    CANQ    16384,DU
        55 000346   000355 600000 55                 TZE     s:895

      239      887    8                               DO;

      240      888    8                                   CALL DDY7;

    888 55 000347   000002 631400 56                 EPPR1   2
        55 000350   000000 701000 xent               TSX1    DDY7
        55 000351   000000 011000                    NOP     0

      241      889    8                                   END;

      242      890    7                               END;

    890 55 000352   000355 710000 55                 TRA     s:895

      243      891    7                           ELSE DO;

      244      892    7                               STEPCC=7;

    892 55 000353   000007 235007                    LDA     7,DL
        55 000354   000000 755000 12                 STA     STEPCC

      245      893    7                               END;

      246      894    6                           END;

      247      895    5                       GOTO SFCLOSE;

    895 55 000355   000600 710000 55                 TRA     SFCLOSE

      248      896    5                       END;
      249      897    4                   ELSE
      250      898    5                   DO;

      251      899    5   SETSTAT:
PL6.E3A0      #001=EXEC File=ZIG$DDX1.:ZIC0TSI                                   FRI 09/05/97 11:51 Page:37
      252      900    5                       STAT = 1;

    900 55 000356   000001 235007       SETSTAT      LDA     1,DL
        55 000357   000000 755000 37                 STA     STAT

      253      901    5                       CALL ZIG$DDER(4001);

    901 55 000360   000027 630400 56                 EPPR0   23
        55 000361   000000 631400 56                 EPPR1   0
        55 000362   000000 701000 xent               TSX1    ZIG$DDER
        55 000363   000000 011000                    NOP     0

      254      902        /*E*     ERROR:    ZIG-4001-C
      255      903        MESSAGE: The DMCL was bypassed because either the schema file does
      256      904                 not exist or the schema DDL had syntax errors.
      257      905        */
      258      906    5                       STEPCC=10;

    906 55 000364   000012 235007                    LDA     10,DL
        55 000365   000000 755000 12                 STA     STEPCC

      259      907    5                       END;

    907 55 000366   000525 710000 55                 TRA     s:965

      260      908    4               CASE(5); /* TRANSLATE SUBSCHEMA DDL */

      261      909    4                   CALL ZIG$ZERO_TABLE;

    909 55 000367   000002 631400 56                 EPPR1   2
        55 000370   000000 701000 xent               TSX1    ZIG$ZERO_TABLE
        55 000371   000000 011000                    NOP     0

      262      910    4                   CALL ZIG$INIT_HAS;

    910 55 000372   000002 631400 56                 EPPR1   2
        55 000373   000000 701000 xent               TSX1    ZIG$INIT_HAS
PL6.E3A0      #001=EXEC File=ZIG$DDX1.:ZIC0TSI                                   FRI 09/05/97 11:51 Page:38
        55 000374   000000 011000                    NOP     0

      263      911    4                   CALL ZIG$SS_PDRI;

    911 55 000375   000002 631400 56                 EPPR1   2
        55 000376   000000 701000 xent               TSX1    ZIG$SS_PDRI
        55 000377   000000 011000                    NOP     0

      264      912    4                   CALL CLOSE_64;

    912 55 000400   000002 631400 56                 EPPR1   2
        55 000401   000000 701000 xent               TSX1    CLOSE_64
        55 000402   000000 011000                    NOP     0

      265      913    4                   CALL UCLOSE('2*');

    913 55 000403   000030 630400 56                 EPPR0   24
        55 000404   000000 631400 56                 EPPR1   0
        55 000405   000000 701000 xent               TSX1    UCLOSE
        55 000406   000000 011000                    NOP     0

      266      914    4                   GOTO CORUSD;

    914 55 000407   000611 710000 55                 TRA     CORUSD

      267      915    4               CASE(6); /* VALIDATE */

      268      916    4                   CALL SFOPEN ALTRET(BYPASS);

    916 55 000410   000565 701000 55                 TSX1    SFOPEN
        55 000411   000553 702000 55                 TSX2    BYPASS

      269      917    4                   CALL PRVAL;

    917 55 000412   000002 631400 56                 EPPR1   2
        55 000413   000000 701000 xent               TSX1    PRVAL
        55 000414   000000 011000                    NOP     0
PL6.E3A0      #001=EXEC File=ZIG$DDX1.:ZIC0TSI                                   FRI 09/05/97 11:51 Page:39

      270      918    4                   IF VALIDS.STATUS = '000'B

    918 55 000415   000000 236000 4                  LDQ     VALIDS
        55 000416   700000 316003                    CANQ    -32768,DU
        55 000417   000442 601000 55                 TNZ     s:932

      271      919    5                   THEN DO;

      272      920    5                       CALL ZIG$ZERO_TABLE;

    920 55 000420   000002 631400 56                 EPPR1   2
        55 000421   000000 701000 xent               TSX1    ZIG$ZERO_TABLE
        55 000422   000000 011000                    NOP     0

      273      921    5                       CALL ZIG$F_LOCKS;

    921 55 000423   000002 631400 56                 EPPR1   2
        55 000424   000000 701000 xent               TSX1    ZIG$F_LOCKS
        55 000425   000000 011000                    NOP     0

      274      922    5                       CALL ZIG$V_DRIVER;

    922 55 000426   000002 631400 56                 EPPR1   2
        55 000427   000000 701000 xent               TSX1    ZIG$V_DRIVER
        55 000430   000000 011000                    NOP     0

      275      923    5                       CALL CLOSE_64;

    923 55 000431   000002 631400 56                 EPPR1   2
        55 000432   000000 701000 xent               TSX1    CLOSE_64
        55 000433   000000 011000                    NOP     0

      276      924    5                       IF NO_ERRORS

    924 55 000434   000000 234000 29                 SZN     NO_ERRORS
        55 000435   000442 605000 55                 TPL     s:932
PL6.E3A0      #001=EXEC File=ZIG$DDX1.:ZIC0TSI                                   FRI 09/05/97 11:51 Page:40

      277      925    6                       THEN DO;

      278      926    6                           CALL WRITE_SHADOW_FILE(SSS$, MEMORY_USED_SSS);

    926 55 000436   000031 630400 56                 EPPR0   25
        55 000437   000003 631400 56                 EPPR1   3
        55 000440   000000 701000 xent               TSX1    WRITE_SHADOW_FILE
        55 000441   000000 011000                    NOP     0

      279      927    6                           END;

      280      928        /*
      281      929              This is the validater driver.
      282      930        */
      283      931    5                       END;

      284      932    4                   IF VALIDS.STATUS ~= '000'B

    932 55 000442   000000 236000 4                  LDQ     VALIDS
        55 000443   700000 316003                    CANQ    -32768,DU
        55 000444   000447 600000 55                 TZE     s:934

      285      933    4                   THEN STEPCC=5;

    933 55 000445   000005 235007                    LDA     5,DL
        55 000446   000000 755000 12                 STA     STEPCC

      286      934    4                   GOTO SFCLOSE;

    934 55 000447   000600 710000 55                 TRA     SFCLOSE

      287      935    4               CASE(7); /* DISPLAY DICT */

      288      936    4                   CALL SFOPEN ALTRET(BYPASS);

    936 55 000450   000565 701000 55                 TSX1    SFOPEN
PL6.E3A0      #001=EXEC File=ZIG$DDX1.:ZIC0TSI                                   FRI 09/05/97 11:51 Page:41
        55 000451   000553 702000 55                 TSX2    BYPASS

      289      937    4                   CALL DICT;

    937 55 000452   000002 631400 56                 EPPR1   2
        55 000453   000000 701000 xent               TSX1    DICT
        55 000454   000000 011000                    NOP     0

      290      938    4                   GOTO SFCLOSE;

    938 55 000455   000600 710000 55                 TRA     SFCLOSE

      291      939    4               CASE(9); /* PURGE */

      292      940    4                   CALL SFOPEN ALTRET(BYPASS);

    940 55 000456   000565 701000 55                 TSX1    SFOPEN
        55 000457   000553 702000 55                 TSX2    BYPASS

      293      941    4                   CALL PURJ;

    941 55 000460   000002 631400 56                 EPPR1   2
        55 000461   000000 701000 xent               TSX1    PURJ
        55 000462   000000 011000                    NOP     0

      294      942    4                   GOTO SFCLOSE;

    942 55 000463   000600 710000 55                 TRA     SFCLOSE

      295      943    4               CASE(11); /* GENERATE SUBSCHEMA DDL */

      296      944    4                   CALL SFOPEN ALTRET(BYPASS);

    944 55 000464   000565 701000 55                 TSX1    SFOPEN
        55 000465   000553 702000 55                 TSX2    BYPASS

      297      945    4                   CALL ZIG$ZERO_TABLE;
PL6.E3A0      #001=EXEC File=ZIG$DDX1.:ZIC0TSI                                   FRI 09/05/97 11:51 Page:42

    945 55 000466   000002 631400 56                 EPPR1   2
        55 000467   000000 701000 xent               TSX1    ZIG$ZERO_TABLE
        55 000470   000000 011000                    NOP     0

      298      946    4                   CALL ZIG$INIT_HAS;

    946 55 000471   000002 631400 56                 EPPR1   2
        55 000472   000000 701000 xent               TSX1    ZIG$INIT_HAS
        55 000473   000000 011000                    NOP     0

      299      947    4                   CALL ZIG$SS_GEN;

    947 55 000474   000002 631400 56                 EPPR1   2
        55 000475   000000 701000 xent               TSX1    ZIG$SS_GEN
        55 000476   000000 011000                    NOP     0

      300      948    4                   GOTO SFCLOSE;

    948 55 000477   000600 710000 55                 TRA     SFCLOSE

      301      949    4               CASE(12); /* PURGE ACTIVITIES */

      302      950    4                   CALL ZIG$PURGE_SUB;

    950 55 000500   000002 631400 56                 EPPR1   2
        55 000501   000000 701000 xent               TSX1    ZIG$PURGE_SUB
        55 000502   000000 011000                    NOP     0

      303      951    4                   GOTO L0;

    951 55 000503   000046 710000 55                 TRA     L0

      304      952    4               CASE(13); /* REPLACE */

      305      953    4                   CALL ZIG$V_PRINT;

PL6.E3A0      #001=EXEC File=ZIG$DDX1.:ZIC0TSI                                   FRI 09/05/97 11:51 Page:43
    953 55 000504   000002 631400 56                 EPPR1   2
        55 000505   000000 701000 xent               TSX1    ZIG$V_PRINT
        55 000506   000000 011000                    NOP     0

      306      954    4                   CALL WRITE_SHADOW_FILE(SSS$,MEMORY_USED_SSS);

    954 55 000507   000031 630400 56                 EPPR0   25
        55 000510   000003 631400 56                 EPPR1   3
        55 000511   000000 701000 xent               TSX1    WRITE_SHADOW_FILE
        55 000512   000000 011000                    NOP     0

      307      955    4                   GOTO L0;

    955 55 000513   000046 710000 55                 TRA     L0

      308      956    4               CASE(18); /* DISPLAY FORTRAN INCLUDE */

      309      957    4                   CALL ZIG$D_FORT_INCL;

    957 55 000514   000002 631400 56                 EPPR1   2
        55 000515   000000 701000 xent               TSX1    ZIG$D_FORT_INCL
        55 000516   000000 011000                    NOP     0

      310      958    4                   GOTO L0;

    958 55 000517   000046 710000 55                 TRA     L0

      311      959    4               CASE(19); /* PRINT MODE */

      312      960    4                   CALL ZIG$V_PRINT;

    960 55 000520   000002 631400 56                 EPPR1   2
        55 000521   000000 701000 xent               TSX1    ZIG$V_PRINT
        55 000522   000000 011000                    NOP     0

      313      961    4                   GOTO L0;

PL6.E3A0      #001=EXEC File=ZIG$DDX1.:ZIC0TSI                                   FRI 09/05/97 11:51 Page:44
    961 55 000523   000046 710000 55                 TRA     L0

      314      962    4               CASE(20); /* HELP */

      315      963    4                   GOTO L0;

    963 55 000524   000046 710000 55                 TRA     L0

      316      964    4                   END; /* END CASE */

      317      965    3               CALL ZIG$FREE(7,0) ALTRET(ALT_END); /* FREE ALL */

    965 55 000525   000005 630400 56                 EPPR0   5
        55 000526   000003 631400 56                 EPPR1   3
        55 000527   000000 701000 xent               TSX1    ZIG$FREE
        55 000530   001061 702000 55                 TSX2    ALT_END

      318      966    3               END; /* ELSE DO */

      319      967    2           END; /* DO WHILE */

    967 55 000531   000000 235000 35                 LDA     EOFFLG
        55 000532   000125 600000 55                 TZE     s:825

      320      968        %EJECT;
PL6.E3A0      #001=EXEC File=ZIG$DDX1.:ZIC0TSI                                   FRI 09/05/97 11:51 Page:45
      321      969    1       C128 = 'I-D-S/II COMPLETED ';

    969 55 000533   040100 100400                    MLR     fill='040'O
        55 000534   000040 000023 48                 ADSC9   SUBMESS+32               cn=0,n=19
        55 000535   200007 000200                    ADSC9   C128,,AUTO               cn=0,n=128

      322      970    1       CALL LIST (C128);

    970 55 000536   200007 630500                    EPPR0   C128,,AUTO
        55 000537   200052 450500                    STP0    C128+35,,AUTO
        55 000540   200052 630500                    EPPR0   C128+35,,AUTO
        55 000541   000000 631400 56                 EPPR1   0
        55 000542   000000 701000 xent               TSX1    LIST
        55 000543   000000 011000                    NOP     0

      323      971    1       CALL CLOSEL;

    971 55 000544   000002 631400 56                 EPPR1   2
        55 000545   000000 701000 xent               TSX1    CLOSEL
        55 000546   000000 011000                    NOP     0

      324      972    1       CALL M_EXIT(STEPCC);

    972 55 000547   000033 630400 56                 EPPR0   27
        55 000550   000000 631400 56                 EPPR1   0
        55 000551   000000 701000 xent               TSX1    M_EXIT
        55 000552   000000 011000                    NOP     0

      325      973    1   BYPASS: C128 = 'DIRECTIVE NOT PROCESSED';

    973 55 000553   040100 100400       BYPASS       MLR     fill='040'O
        55 000554   000021 000027 48                 ADSC9   SUBMESS+17               cn=0,n=23
        55 000555   200007 000200                    ADSC9   C128,,AUTO               cn=0,n=128

      326      974    1       CALL LIST (C128);

    974 55 000556   200007 630500                    EPPR0   C128,,AUTO
PL6.E3A0      #001=EXEC File=ZIG$DDX1.:ZIC0TSI                                   FRI 09/05/97 11:51 Page:46
        55 000557   200052 450500                    STP0    C128+35,,AUTO
        55 000560   200052 630500                    EPPR0   C128+35,,AUTO
        55 000561   000000 631400 56                 EPPR1   0
        55 000562   000000 701000 xent               TSX1    LIST
        55 000563   000000 011000                    NOP     0

      327      975    1       GOTO L0;

    975 55 000564   000046 710000 55                 TRA     L0

      328      976    1   SFOPEN:

    976 55 000565   200050 741300       SFOPEN       STX1  ! C128+33,,AUTO

      329      977    1       PROC ALTRET;
      330      978    2       CALL SF_OPEN(0,STATUS);

    978 55 000566   000034 630400 56                 EPPR0   28
        55 000567   000003 631400 56                 EPPR1   3
        55 000570   000000 701000 xent               TSX1    SF_OPEN
        55 000571   000000 011000                    NOP     0

      331      979    2       IF STATUS ~= 0 THEN

    979 55 000572   000000 235000 33                 LDA     STATUS
        55 000573   000576 600000 55                 TZE     s:981

      332      980    2           ALTRETURN;

    980 55 000574   200050 221300                    LDX1  ! C128+33,,AUTO
        55 000575   000000 702211                    TSX2  ! 0,X1

      333      981    2       RETURN;

    981 55 000576   200050 221300                    LDX1  ! C128+33,,AUTO
        55 000577   000001 702211                    TSX2  ! 1,X1

PL6.E3A0      #001=EXEC File=ZIG$DDX1.:ZIC0TSI                                   FRI 09/05/97 11:51 Page:47
      334      982    2   END; /*Sfopen*/
      335      983    1   SFCLOSE:
      336      984    1       CALL SF_CLOSE(0,STATUS);

    984 55 000600   000034 630400 56    SFCLOSE      EPPR0   28
        55 000601   000003 631400 56                 EPPR1   3
        55 000602   000000 701000 xent               TSX1    SF_CLOSE
        55 000603   000000 011000                    NOP     0

      337      985    1       IF STATUS ~= 0 THEN

    985 55 000604   000000 235000 33                 LDA     STATUS
        55 000605   000611 600000 55                 TZE     CORUSD

      338      986    1           CALL ABORT;

    986 55 000606   000002 631400 56                 EPPR1   2
        55 000607   000000 701000 xent               TSX1    ABORT
        55 000610   000000 011000                    NOP     0

      339      987    1   CORUSD:
      340      988    1       C128 = ' ';

    988 55 000611   040100 100400       CORUSD       MLR     fill='040'O
        55 000612   000023 000001 56                 ADSC9   19                       cn=0,n=1
        55 000613   200007 000200                    ADSC9   C128,,AUTO               cn=0,n=128

      341      989    1       CALL LIST(C128);

    989 55 000614   200007 630500                    EPPR0   C128,,AUTO
        55 000615   200052 450500                    STP0    C128+35,,AUTO
        55 000616   200052 630500                    EPPR0   C128+35,,AUTO
        55 000617   000000 631400 56                 EPPR1   0
        55 000620   000000 701000 xent               TSX1    LIST
        55 000621   000000 011000                    NOP     0

      342      990    1       CALL SET_FIELD_NUM(1,MEMORY_USED_WORDS);
PL6.E3A0      #001=EXEC File=ZIG$DDX1.:ZIC0TSI                                   FRI 09/05/97 11:51 Page:48

    990 55 000622   000036 630400 56                 EPPR0   30
        55 000623   000003 631400 56                 EPPR1   3
        55 000624   000000 701000 xent               TSX1    SET_FIELD_NUM
        55 000625   000000 011000                    NOP     0

      343      991    1       CALL SET_FIELD_NUM(2,MEMORY_SIZE_WORDS);

    991 55 000626   000041 630400 56                 EPPR0   33
        55 000627   000003 631400 56                 EPPR1   3
        55 000630   000000 701000 xent               TSX1    SET_FIELD_NUM
        55 000631   000000 011000                    NOP     0

      344      992    1       CALL CONCAT(C128,SUBSTR(FIELD1.TEXT1,0,FIELD1.COUNT1),

    992 55 000632   000000 236000 44                 LDQ     FIELD1
        55 000633   000033 772000                    QRL     27
        55 000634   000000 620006                    EAX0    0,QL
        55 000635   000000 236000 45                 LDQ     FIELD2
        55 000636   000033 772000                    QRL     27
        55 000637   040100 100440                    MLR     fill='040'O
        55 000640   000000 200010 44                 ADSC9   FIELD1                   cn=1,n=*X0
        55 000641   200007 000200                    ADSC9   C128,,AUTO               cn=0,n=128
        55 000642   000000 621006                    EAX1    0,QL
        55 000643   000000 636010                    EAQ     0,X0
        55 000644   000022 772000                    QRL     18
        55 000645   000200 116007                    CMPQ    128,DL
        55 000646   000713 603000 55                 TRC     s:996
        55 000647   200052 740100                    STX0    C128+35,,AUTO
        55 000650   777577 620010                    EAX0    -129,X0
        55 000651   777777 660003                    ERX0    -1,DU
        55 000652   200052 235100                    LDA     C128+35,,AUTO
        55 000653   000022 771000                    ARL     18
        55 000654   040145 100400                    MLR     fill='040'O
        55 000655   000045 000045 48                 ADSC9   SUBMESS+37               cn=0,n=37
        55 000656   200007 000010                    ADSC9   C128,A,AUTO              cn=0,n=*X0
        55 000657   200052 236100                    LDQ     C128+35,,AUTO
PL6.E3A0      #001=EXEC File=ZIG$DDX1.:ZIC0TSI                                   FRI 09/05/97 11:51 Page:49
        55 000660   000022 772000                    QRL     18
        55 000661   000133 116007                    CMPQ    91,DL
        55 000662   000713 603000 55                 TRC     s:996
        55 000663   777644 620006                    EAX0    -92,QL
        55 000664   777777 660003                    ERX0    -1,DU
        55 000665   040146 100440                    MLR     fill='040'O
        55 000666   000000 200011 45                 ADSC9   FIELD2                   cn=1,n=*X1
        55 000667   200020 200010                    ADSC9   C128+9,Q,AUTO            cn=1,n=*X0
        55 000670   000000 635011                    EAA     0,X1
        55 000671   000022 771000                    ARL     18
        55 000672   200053 755100                    STA     C128+36,,AUTO
        55 000673   200053 036100                    ADLQ    C128+36,,AUTO
        55 000674   000133 116007                    CMPQ    91,DL
        55 000675   000713 603000 55                 TRC     s:996
        55 000676   000000 635011                    EAA     0,X1
        55 000677   000022 771000                    ARL     18
        55 000700   200054 755100                    STA     C128+37,,AUTO
        55 000701   200055 756100                    STQ     C128+38,,AUTO
        55 000702   200052 236100                    LDQ     C128+35,,AUTO
        55 000703   000022 772000                    QRL     18
        55 000704   200054 036100                    ADLQ    C128+37,,AUTO
        55 000705   200055 721100                    LXL1    C128+38,,AUTO
        55 000706   777644 621011                    EAX1    -92,X1
        55 000707   777777 661003                    ERX1    -1,DU
        55 000710   040146 100400                    MLR     fill='040'O
        55 000711   000057 000011 48                 ADSC9   SUBMESS+47               cn=0,n=9
        55 000712   200020 200011                    ADSC9   C128+9,Q,AUTO            cn=1,n=*X1

      345      993    1          ' WORDS OF DYNAMIC MEMORY USED OUT OF ',
      346      994    1          SUBSTR(FIELD2.TEXT2,0,FIELD2.COUNT2),
      347      995    1          ' POSSIBLE');
      348      996    1       CALL LIST(C128);

    996 55 000713   200007 630500                    EPPR0   C128,,AUTO
        55 000714   200052 450500                    STP0    C128+35,,AUTO
        55 000715   200052 630500                    EPPR0   C128+35,,AUTO
        55 000716   000000 631400 56                 EPPR1   0
PL6.E3A0      #001=EXEC File=ZIG$DDX1.:ZIC0TSI                                   FRI 09/05/97 11:51 Page:50
        55 000717   000000 701000 xent               TSX1    LIST
        55 000720   000000 011000                    NOP     0

      349      997    1       CALL SET_FIELD_NUM(1,AVCORE);

    997 55 000721   000043 630400 56                 EPPR0   35
        55 000722   000003 631400 56                 EPPR1   3
        55 000723   000000 701000 xent               TSX1    SET_FIELD_NUM
        55 000724   000000 011000                    NOP     0

      350      998    1       CALL CONCAT(C128,SUBSTR(FIELD1.TEXT1,0,FIELD1.COUNT1),

    998 55 000725   000000 236000 44                 LDQ     FIELD1
        55 000726   000033 772000                    QRL     27
        55 000727   000000 620006                    EAX0    0,QL
        55 000730   040100 100440                    MLR     fill='040'O
        55 000731   000000 200010 44                 ADSC9   FIELD1                   cn=1,n=*X0
        55 000732   200007 000200                    ADSC9   C128,,AUTO               cn=0,n=128
        55 000733   000200 116007                    CMPQ    128,DL
        55 000734   000742 603000 55                 TRC     s:1000
        55 000735   777577 620006                    EAX0    -129,QL
        55 000736   777777 660003                    ERX0    -1,DU
        55 000737   040146 100400                    MLR     fill='040'O
        55 000740   000062 000045 48                 ADSC9   SUBMESS+50               cn=0,n=37
        55 000741   200007 000010                    ADSC9   C128,Q,AUTO              cn=0,n=*X0

      351      999    1          'K OF MEMORY USED THRU THIS DBACS STEP');
      352     1000    1       CALL LIST(C128);

   1000 55 000742   200007 630500                    EPPR0   C128,,AUTO
        55 000743   200052 450500                    STP0    C128+35,,AUTO
        55 000744   200052 630500                    EPPR0   C128+35,,AUTO
        55 000745   000000 631400 56                 EPPR1   0
        55 000746   000000 701000 xent               TSX1    LIST
        55 000747   000000 011000                    NOP     0

      353     1001    1       IF STEPCC>8 THEN CALL M_EXIT(STEPCC);
PL6.E3A0      #001=EXEC File=ZIG$DDX1.:ZIC0TSI                                   FRI 09/05/97 11:51 Page:51

   1001 55 000750   000000 235000 12                 LDA     STEPCC
        55 000751   000010 115007                    CMPA    8,DL
        55 000752   000757 604400 55                 TMOZ    s:1002

   1001 55 000753   000033 630400 56                 EPPR0   27
        55 000754   000000 631400 56                 EPPR1   0
        55 000755   000000 701000 xent               TSX1    M_EXIT
        55 000756   000000 011000                    NOP     0

      354     1002    1       GOTO L0;

   1002 55 000757   000046 710000 55                 TRA     L0

      355     1003    1   GET_DIRECTIVE:

   1003 55 000760   200050 741300       GET_DIRECTI* STX1  ! C128+33,,AUTO

      356     1004    1       PROC;
      357     1005    2       NCS=0;

   1005 55 000761   000000 450000 36                 STZ     NCS

      358     1006    2       LINE_COUNT=0;

   1006 55 000762   000000 450000 15                 STZ     LINE_COUNT

      359     1007    3       DO WHILE (NCS = 0 AND EOFFLG = 0);

   1007 55 000763   001030 710000 55                 TRA     s:1028

      360     1008    3           IF ONLINE AND LINE_COUNT = 1

   1008 55 000764   000000 234000 18                 SZN     ONLINE
        55 000765   001007 605000 55                 TPL     s:1019
        55 000766   000000 235000 15                 LDA     LINE_COUNT
        55 000767   000001 115007                    CMPA    1,DL
PL6.E3A0      #001=EXEC File=ZIG$DDX1.:ZIC0TSI                                   FRI 09/05/97 11:51 Page:52
        55 000770   001007 601000 55                 TNZ     s:1019

      361     1009    4           THEN DO;

      362     1010    4               C128 = REC;

   1010 55 000771   040100 100400                    MLR     fill='040'O
        55 000772   000000 000120 38                 ADSC9   REC                      cn=0,n=80
        55 000773   200007 000200                    ADSC9   C128,,AUTO               cn=0,n=128

      363     1011    4               CALL LIST(C128);

   1011 55 000774   200007 630500                    EPPR0   C128,,AUTO
        55 000775   200052 450500                    STP0    C128+35,,AUTO
        55 000776   200052 630500                    EPPR0   C128+35,,AUTO
        55 000777   000000 631400 56                 EPPR1   0
        55 001000   000000 701000 xent               TSX1    LIST
        55 001001   000000 011000                    NOP     0

      364     1012    4               SAVESW = '0'B;

   1012 55 001002   000000 450000 14                 STZ     SAVESW

      365     1013    4               CALL ZIG$DDER(9997);

   1013 55 001003   000046 630400 56                 EPPR0   38
        55 001004   000000 631400 56                 EPPR1   0
        55 001005   000000 701000 xent               TSX1    ZIG$DDER
        55 001006   000000 011000                    NOP     0

      366     1014        /*E*     ERROR:    ZIG-ZER$START_DBACS-C
      367     1015            MESSAGE:  The directive must start with the keyword DBACS
      368     1016                      or one of the directive types.
      369     1017        */
      370     1018    4               END;

      371     1019    3           LINE_COUNT = 0;
PL6.E3A0      #001=EXEC File=ZIG$DDX1.:ZIC0TSI                                   FRI 09/05/97 11:51 Page:53

   1019 55 001007   000000 450000 15                 STZ     LINE_COUNT

      372     1020    3           LINE=' ';

   1020 55 001010   040000 100400                    MLR     fill='040'O
        55 001011   000023 000001 56                 ADSC9   19                       cn=0,n=1
        55 001012   000000 007640 16                 ADSC9   LINE                     cn=0,n=4000

      373     1021    3           CALL ZIG$DDS2;

   1021 55 001013   000002 631400 56                 EPPR1   2
        55 001014   000000 701000 xent               TSX1    ZIG$DDS2
        55 001015   000000 011000                    NOP     0

      374     1022    3           IF INIT1

   1022 55 001016   000002 234000 12                 SZN     INIT1
        55 001017   001024 605000 55                 TPL     s:1027

      375     1023    4           THEN DO;

      376     1024    4               CALL INITIAL_ONLINE;

   1024 55 001020   000002 631400 56                 EPPR1   2
        55 001021   000000 701000 xent               TSX1    INITIAL_ONLINE
        55 001022   000000 011000                    NOP     0

      377     1025    4               INIT1 = '0'B;

   1025 55 001023   000002 450000 12                 STZ     INIT1

      378     1026    4               END;

      379     1027    3           IF NCS=0 THEN STARTSW='1'B;

   1027 55 001024   000000 235000 36                 LDA     NCS
PL6.E3A0      #001=EXEC File=ZIG$DDX1.:ZIC0TSI                                   FRI 09/05/97 11:51 Page:54
        55 001025   001030 601000 55                 TNZ     s:1028

   1027 55 001026   400000 236003                    LDQ     -131072,DU
        55 001027   000001 756000 12                 STQ     STARTSW

      380     1028    3           END;

   1028 55 001030   000000 235000 36                 LDA     NCS
        55 001031   001034 601000 55                 TNZ     s:1029
        55 001032   000000 236000 35                 LDQ     EOFFLG
        55 001033   000764 600000 55                 TZE     s:1008

      381     1029    2       IF ~ONLINE AND STARTSW AND (EOFFLG=0)

   1029 55 001034   000000 236000 18                 LDQ     ONLINE
        55 001035   400000 376003                    ANQ     -131072,DU
        55 001036   400000 676003                    ERQ     -131072,DU
        55 001037   001055 600000 55                 TZE     s:1037
        55 001040   000001 234000 12                 SZN     STARTSW
        55 001041   001055 605000 55                 TPL     s:1037
        55 001042   000000 236000 35                 LDQ     EOFFLG
        55 001043   001055 601000 55                 TNZ     s:1037

      382     1030    3       THEN DO;

      383     1031    3           IF STEPCC<4 THEN STEPCC=4;

   1031 55 001044   000000 235000 12                 LDA     STEPCC
        55 001045   000004 115007                    CMPA    4,DL
        55 001046   001051 605000 55                 TPL     s:1032

   1031 55 001047   000004 235007                    LDA     4,DL
        55 001050   000000 755000 12                 STA     STEPCC

      384     1032    3           CALL ZIG$DDER(9996);

   1032 55 001051   000050 630400 56                 EPPR0   40
PL6.E3A0      #001=EXEC File=ZIG$DDX1.:ZIC0TSI                                   FRI 09/05/97 11:51 Page:55
        55 001052   000000 631400 56                 EPPR1   0
        55 001053   000000 701000 xent               TSX1    ZIG$DDER
        55 001054   000000 011000                    NOP     0

      385     1033        /*E*     ERROR:    ZIG-ZER$DATA_BYPASSED-C
      386     1034            MESSAGE:  The above data was bypassed.
      387     1035        */
      388     1036    3           END;

      389     1037    2       STARTSW = '1'B;

   1037 55 001055   400000 236003                    LDQ     -131072,DU
        55 001056   000001 756000 12                 STQ     STARTSW

      390     1038    2       RETURN;

   1038 55 001057   200050 221300                    LDX1  ! C128+33,,AUTO
        55 001060   000001 702211                    TSX2  ! 1,X1

      391     1039    2   END GET_DIRECTIVE;
      392     1040    1   ALT_END: CALL ABORT;

   1040 55 001061   000002 631400 56    ALT_END      EPPR1   2
        55 001062   000000 701000 xent               TSX1    ABORT
        55 001063   000000 011000                    NOP     0

      393     1041    1   END EXEC;

   1041 55 001064   000000 702200 xent               TSX2  ! X66_MARET

ANALS
 Sect OctLoc
   0     000   ****** ******   ****** ******   ****** ******   ****** ******    ................

PURGE
 Sect OctLoc
   1     000   ****** ******   ****** ******   ****** ******   ****** ******    ................
PL6.E3A0      #001=EXEC File=ZIG$DDX1.:ZIC0TSI                                   FRI 09/05/97 11:51 Page:56

DICTS
 Sect OctLoc
   2     000   ****** ******   ****** ******   ****** ******   ****** ******    ................

DISPS
 Sect OctLoc
   3     000   ***00* ******   ****** ******   ****** ******   ****** ******    ................
   3     024*  ****** ******   ****** ******   ****** ******                    ............

VALIDS
 Sect OctLoc
   4     000   ****** ******   ****** ******   ****** ******   ****** ******    ................

LOCKS
 Sect OctLoc
   5     000   ****** ******   ****** ******   ****** ******   ****** ******    ................

STRAN
 Sect OctLoc
   6     000   ****** ******   ****** ******   ****** ******   ****** ******    ................

DTRAN
 Sect OctLoc
   7     000   ****** ******   ****** ******   ****** ******   ****** ******    ................

SSTRANS
 Sect OctLoc
   8     000   ****** ******   ****** ******   ****** ******   ****** ******    ................

SSGEN
 Sect OctLoc
   9     000   ****** ******   ****** ******   ****** ******   ****** ******    ................

SUB_LANGUAGE
 Sect OctLoc
  10     000   000000 000000                                                    ....
PL6.E3A0      #001=EXEC File=ZIG$DDX1.:ZIC0TSI                                   FRI 09/05/97 11:51 Page:57

HAS_TABLE
 Sect OctLoc
  11     000   ****** ******   ****** ******   ****** ******   ****** ******    ................

DS5
 Sect OctLoc
  12     003   000000 000004                                                    ....

STORE_AD
 Sect OctLoc
  13     000   000000 000000                                                    ....

SAVESW
 Sect OctLoc
  14     000   0***** ******                                                    ....

LINE_COUNT
 Sect OctLoc
  15     000   000000 000000                                                    ....

LINE
 Sect OctLoc
  16     000   040040 040040   040040 040040   040040 040040   040040 040040
  16    1744*  040040 040040   040040 040040   040040 040040   040040 040040

RDWORD
 Sect OctLoc
  17     000   4***** ******                                                    ....

ONLINE
 Sect OctLoc
  18     000   4***** ******                                                    ....

FIRST_TIME_CALLED
 Sect OctLoc
  19     000   4***** ******                                                    ....
PL6.E3A0      #001=EXEC File=ZIG$DDX1.:ZIC0TSI                                   FRI 09/05/97 11:51 Page:58

NPP
 Sect OctLoc
  20     000   000000 000000                                                    ....

NSN
 Sect OctLoc
  22     000   000000 ******                                                    ....

NSE
 Sect OctLoc
  23     000   000000 000000                                                    ....

STORE_DYNAMIC_MEM_VAL
 Sect OctLoc
  26     000   000000 000000                                                    ....

SN_BY_REF
 Sect OctLoc
  27     000   000000 000000                                                    ....

INDEX_RESERVE
 Sect OctLoc
  28     000   000000 000000                                                    ....

NO_ERRORS
 Sect OctLoc
  29     000   4***** ******                                                    ....

SF_SZ
 Sect OctLoc
  30     000   ****** ******   ****** ******   ****** ******   ****** ******    ................

AVCORE
 Sect OctLoc
  31     000   000000 000000                                                    ....

PL6.E3A0      #001=EXEC File=ZIG$DDX1.:ZIC0TSI                                   FRI 09/05/97 11:51 Page:59
STATUS
 Sect OctLoc
  33     000   000000 000000                                                    ....

J
 Sect OctLoc
  34     000   000000 000000                                                    ....

EOFFLG
 Sect OctLoc
  35     000   000000 000000                                                    ....

NCS
 Sect OctLoc
  36     000   000000 000000                                                    ....

STAT
 Sect OctLoc
  37     000   000000 000000                                                    ....

REC
 Sect OctLoc
  38     000   040040 040040   040040 040040   040040 040040   040040 040040
  38     020*  040040 040040   040040 040040   040040 040040   040040 040040

DKEY
 Sect OctLoc
  39     000   040040 040040   040040 040040   040040 040040

MEMORY_SIZE_WORDS
 Sect OctLoc
  40     000   000000 000000                                                    ....

MEMORY_USED_WORDS
 Sect OctLoc
  41     000   000000 000000                                                    ....

PL6.E3A0      #001=EXEC File=ZIG$DDX1.:ZIC0TSI                                   FRI 09/05/97 11:51 Page:60
MEMORY_USED_SSS
 Sect OctLoc
  42     000   000000 000000                                                    ....

ALLOCATE_END
 Sect OctLoc
  43     000   000000 000000                                                    ....

FIELD1
 Sect OctLoc
  44     000   ****** ******   ****** ******   ****** ******   ****** ******    ................

FIELD2
 Sect OctLoc
  45     000   ****** ******   ****** ******   ****** ******   ****** ******    ................

SEVERITY
 Sect OctLoc
  46     000   000000 000000                                                    ....

FIR_SW
 Sect OctLoc
  47     000   000000 000000                                                    ....

SUBMESS
 Sect OctLoc
  48     000   104102 101103   123040 104111   122105 103124   111126 105040    DBACS DIRECTIVE
  48     004   120122 117103   105123 123117   122*** ******                    PROCESSOR...

(unnamed)
 Sect OctLoc
  48     007   040102 125114   114040 110116   040040 040040   111055 104055     BULL HN    I-D-
  48     013   123057 111111   040040 040040   104102 101103   123040 040040    S/II    DBACS
  48     017   040126 105122   123072 040040   104111 122105   103124 111126     VERS:  DIRECTIV
  48     023   105040 116117   124040 120122   117103 105123   123105 104040    E NOT PROCESSED
  48     027   123103 110105   115101 040106   111114 105040   111116 111124    SCHEMA FILE INIT
  48     033   111101 114111   132105 104040   106117 122040   104115 103114    IALIZED FOR DMCL
PL6.E3A0      #001=EXEC File=ZIG$DDX1.:ZIC0TSI                                   FRI 09/05/97 11:51 Page:61
  48     037   062052 040040   111055 104055   123057 111111   040103 117115    2*  I-D-S/II COM
  48     043   120114 105124   105104 040040   040127 117122   104123 040117    PLETED   WORDS O
  48     047   106040 104131   116101 115111   103040 115105   115117 122131    F DYNAMIC MEMORY
  48     053   040125 123105   104040 117125   124040 117106   040040 040040     USED OUT OF
  48     057   040120 117123   123111 102114   105040 040040   113040 117106     POSSIBLE   K OF
  48     063   040115 105115   117122 131040   125123 105104   040124 110122     MEMORY USED THR
  48     067   125040 124110   111123 040104   102101 103123   040123 124105    U THIS DBACS STE
  48     073   120040 040040                                                    P

NUM_WARN_MSG
 Sect OctLoc
  49     000   000000 000000                                                    ....

NUM_ERROR_MSG
 Sect OctLoc
  50     000   000000 000000                                                    ....

(unnamed)
 Sect OctLoc
  56     000   000001 000000   077777 777777   000000 000000   000002 000000    ....?...........
  56     004   000000 000007   000004 006000   000002 006000   000000 006014    ................
  56     010   000000 000031   000000 006000   000010 006000   000000 022601    ................
  56     014   000013 006000   000000 000003   000015 006000   000000 006000    ................
  56     020   000000 000001   000020 006000   000000 006000   040040 040040    ............
  56     024   000000 007640   000024 006000   000000 007641   000026 006000    ................
  56     030   000037 006000   000000 006000   000000 006000   000000 006000    ................
  56     034   000002 006000   000000 006000   000020 006000   000000 006000    ................
  56     040   000000 000002   000040 006000   000000 006000   000020 006000    ..... ..........
  56     044   000000 006000   000000 023415   000045 006000   000000 023414    .........%......
  56     050   000047 006000                                                    .'..

PL6.E3A0      #001=EXEC File=ZIG$DDX1.:ZIC0TSI                                   FRI 09/05/97 11:51 Page:62
--  Include file information  --

   ZI_ERRORS_SUBS.:ZIC0TOU  is referenced.
   ZIG_DIR_STRUCS.:ZIC0TOU  cannot be made into a system file and is referenced.
   B$JIT_C.:E05TOU  was found in the system file and is never referenced.
   CP_6_C.:E05TOU  was found in the system file and is never referenced.
      No diagnostics issued in procedure EXEC.

   Procedure EXEC requires 565 words for executable code.
   Procedure EXEC requires 46 words of local(AUTO) storage.

    No errors detected in file ZIG$DDX1.:ZIC0TSI    .
PL6.E3A0      #001=EXEC File=ZIG$DDX1.:ZIC0TSI                                   FRI 09/05/97 11:51 Page:63
          *** CROSS REFERENCE LISTING ***
**     DENOTES     IDENTIFIER DEFINITION
<<                 IDENTIFIER'S VALUE SET
>>                 IDENTIFIER'S VALUE USED
<>                 IDENTIFIER SET AND/OR USED
--                 IDENTIFIER REFERENCED
PL6.E3A0      #001=EXEC File=ZIG$DDX1.:ZIC0TSI                                   FRI 09/05/97 11:51 Page:64
          MINI XREF LISTING

ABORT
       727**DCL-ENT   852--CALL      986--CALL     1040--CALL
ALT_END
      1040**LABEL     792--CALLALT   850--CALLALT   965--CALLALT
AVCORE
       704**DCL       997<>CALL
BYPASS
       973**LABEL     843--CALLALT   916--CALLALT   936--CALLALT   940--CALLALT   944--CALLALT
B_VERSION.C
       760**DCL       787>>CALLBLT
B_VERSION.L
       759**DCL       760--IMP-SIZ   787>>CALLBLT
C128
       761**DCL       787<<CALLBLT   788<>CALL      828<<ASSIGN    829<>CALL      855<<ASSIGN    856<>CALL
       857<<ASSIGN    858<>CALL      969<<ASSIGN    970<>CALL      973<<ASSIGN    974<>CALL      988<<ASSIGN
       989<>CALL      992<<CALLBLT   996<>CALL      998<<CALLBLT  1000<>CALL     1010<<ASSIGN   1011<>CALL
CLOSEL
       711**DCL-ENT   971--CALL
CLOSE_64
       669**DCL-ENT   912--CALL      923--CALL
CORUSD
       988**LABEL     869--GOTO      914--GOTO
DBA_SUMMARY
       729**DCL-ENT   884--CALL
DDY7
       725**DCL-ENT   888--CALL
DICT
       716**DCL-ENT   937--CALL
DISP
       715**DCL-ENT   844--CALL
DMALTR
       753**DCL-ENT   876--CALL
PL6.E3A0      #001=EXEC File=ZIG$DDX1.:ZIC0TSI                                   FRI 09/05/97 11:51 Page:65
DTRAN.DATA
       119**DCL       886>>IF
DTRAN.STATUS
       118**DCL       880>>IF
DTRAN.STORAGE
       120**DCL       882>>IF
EOFFLG
       713**DCL       824>>DOWHILE  1007>>DOWHILE  1029>>IF
ERROR
       737**DCL-ENT   814--CALL
EXEC_M
       728**DCL-ENT   879--CALL
FIELD1.COUNT1
       747**DCL       992>>CALLBLT   998>>CALLBLT
FIELD1.TEXT1
       748**DCL       992>>CALLBLT   998>>CALLBLT
FIELD2.COUNT2
       750**DCL       992>>CALLBLT
FIELD2.TEXT2
       751**DCL       992>>CALLBLT
FIRST_SCHEMA_MADE
       769**DCL       800<<ASSIGN
FIRST_TIME_CALLED
       682**DCL       779>>IF        781<<ASSIGN
FIR_SW
       756**DCL       798<<ASSIGN
GET_DIRECTIVE
      1004**PROC      823--CALL      830--CALL
HAS_TABLE
       664**DCL       848<<ASSIGN
HIGH_SCHEMA_DBK
       770**DCL       801<<ASSIGN
HLIST
       735**DCL-ENT   788--CALL
I
       703**DCL       847<<DOINDEX   848>>ASSIGN
PL6.E3A0      #001=EXEC File=ZIG$DDX1.:ZIC0TSI                                   FRI 09/05/97 11:51 Page:66
INIT1
       679**DCL       784<<ASSIGN   1022>>IF       1025<<ASSIGN
INITIAL_ONLINE
       675**DCL-ENT  1024--CALL
J
       712**DCL       798<<ASSIGN    836>>DOCASE
L0
       791**LABEL     951--GOTO      955--GOTO      958--GOTO      961--GOTO      963--GOTO      975--GOTO
      1002--GOTO
LINE
       672**DCL      1020<<ASSIGN
LINE_COUNT
       671**DCL      1006<<ASSIGN   1008>>IF       1019<<ASSIGN
LIST
       734**DCL-ENT   829--CALL      856--CALL      858--CALL      970--CALL      974--CALL      989--CALL
       996--CALL     1000--CALL     1011--CALL
LOCK
       722**DCL-ENT   840--CALL
MEMORY_SIZE_WORDS
       741**DCL       991<>CALL
MEMORY_USED_SSS
       743**DCL       926<>CALL      954<>CALL
MEMORY_USED_WORDS
       742**DCL       990<>CALL
M_EXIT
       667**DCL-ENT   972--CALL     1001--CALL
NCS
       714**DCL       798<<ASSIGN    833<<ASSIGN   1005<<ASSIGN   1007>>DOWHILE  1027>>IF
NEED_LARGER_SCHEMA
       771**DCL       802<<ASSIGN
NOT_ENOUGH_MEMORY
       680**DCL       774<<ASSIGN    775<>CALL      812>>IF
NO_ERRORS
       693**DCL       807<<ASSIGN    853>>IF        877>>IF        880>>IF        924>>IF
NPP
       684**DCL       803<<ASSIGN
PL6.E3A0      #001=EXEC File=ZIG$DDX1.:ZIC0TSI                                   FRI 09/05/97 11:51 Page:67
NSE
       687**DCL       799<<ASSIGN
NSN
       686**DCL       799<<ASSIGN
NUM_ERROR_MSG
       766**DCL       808<<ASSIGN
NUM_WARN_MSG
       765**DCL       809<<ASSIGN
ONLINE
       681**DCL      1008>>IF       1029>>IF
OPEN_M$SO
       755**DCL-ENT   789--CALL
PFREE_TOKEN
       706**DCL       793<<ASSIGN
PNPP
       685**DCL       804<<ASSIGN
PRVAL
       738**DCL-ENT   917--CALL
PSEDBK
       688**DCL       805<<ASSIGN
PSNDBK
       689**DCL       805<<ASSIGN
PURJ
       720**DCL-ENT   941--CALL
RDWORD
       676**DCL       782<<ASSIGN    834<<ASSIGN
REC
       732**DCL      1010>>ASSIGN
SAVESW
       668**DCL       822<<ASSIGN   1012<<ASSIGN
SET37
       726**DCL-ENT   791--CALL
SETSTAT
       900**LABEL     839--GOTO      875--GOTO
SET_FIELD_NUM
       752**DCL-ENT   990--CALL      991--CALL      997--CALL
PL6.E3A0      #001=EXEC File=ZIG$DDX1.:ZIC0TSI                                   FRI 09/05/97 11:51 Page:68
SEVERITY
       754**DCL       785<<ASSIGN
SFCLOSE
       984**LABEL     841--GOTO      845--GOTO      895--GOTO      934--GOTO      938--GOTO      942--GOTO
       948--GOTO
SFOPEN
       977**PROC      843--CALL      916--CALL      936--CALL      940--CALL      944--CALL
SF_CLOSE
       707**DCL-ENT   851--CALL      984--CALL
SF_OPEN
       705**DCL-ENT   838--CALL      873--CALL      978--CALL
SF_SZ.RLINKS
       695**DCL       810<<ASSIGN
SN_BY_REF
       691**DCL       806<<ASSIGN
SSS$
       768**DCL       926<>CALL      954<>CALL
STARTSW
       670**DCL       821<<ASSIGN   1027<<ASSIGN   1029>>IF       1037<<ASSIGN
STAT
       731**DCL       783<<ASSIGN    900<<ASSIGN
STATUS
       710**DCL       826>>IF        838<>CALL      839>>IF        851<>CALL      852>>IF        873<>CALL
       874>>IF        978<>CALL      979>>IF        984<>CALL      985>>IF
STEPCC
       665**DCL       786<<ASSIGN    867<<ASSIGN    892<<ASSIGN    906<<ASSIGN    933<<ASSIGN    972<>CALL
      1001>>IF       1001<>CALL     1031>>IF       1031<<ASSIGN
STRAN.STATUS
       110**DCL       780<<ASSIGN    853>>IF        871>>IF
SUBHD
       733**DCL-ENT   811--CALL
SUBMESS
       757**DCL       811<>CALL      811--CALL
UCLOSE
       709**DCL-ENT   913--CALL
VALIDS.STATUS
PL6.E3A0      #001=EXEC File=ZIG$DDX1.:ZIC0TSI                                   FRI 09/05/97 11:51 Page:69
        84**DCL       918>>IF        932>>IF
WRITE_SHADOW_FILE
       767**DCL-ENT   926--CALL      954--CALL
ZIG$DDER
       678**DCL-ENT   861--CALL      901--CALL     1013--CALL     1032--CALL
ZIG$DDS1
       673**DCL-ENT   825--CALL
ZIG$DDS2
       674**DCL-ENT   835--CALL     1021--CALL
ZIG$D_EXEC
       717**DCL-ENT   850--CALL
ZIG$D_FORT_INCL
       764**DCL-ENT   957--CALL
ZIG$FREE
       662**DCL-ENT   792--CALL      965--CALL
ZIG$F_LOCKS
       723**DCL-ENT   921--CALL
ZIG$INIT_HAS
       663**DCL-ENT   910--CALL      946--CALL
ZIG$MEM_LIM
       660**DCL-ENT   775--CALL
ZIG$PURGE_SUB
       721**DCL-ENT   950--CALL
ZIG$SS_GEN
       661**DCL-ENT   947--CALL
ZIG$SS_PDRI
       718**DCL-ENT   911--CALL
ZIG$V_DRIVER
       719**DCL-ENT   922--CALL
ZIG$V_PRINT
       763**DCL-ENT   953--CALL      960--CALL
ZIG$ZERO_TABLE
       762**DCL-ENT   909--CALL      920--CALL      945--CALL
