
PL6.E3A0      #001=HLIST File=ZIG$DDX4.:ZIC0TSI                                  FRI 09/05/97 11:52 Page:1
        1        1        /*M*         HLIST  IDS/II DBACS DBCS MOVE HEADER INFO  INTO PRINT BUFF 790401 */
        2        2        /*T***********************************************************/
        3        3        /*T*                                                         */
        4        4        /*T* Copyright (c) Bull HN Information Systems Inc., 1997    */
        5        5        /*T*                                                         */
        6        6        /*T***********************************************************/
        7        7        /*P*
        8        8        NAME:        HLIST
        9        9        PURPOSE:     MOVE HEADER INFORMATION INTO PRINT BUFFER.
       10       10        ARGUMENTS:   IN_BUF-> CALLER'S BUFFER.
       11       11        CALLING PROGRAMS:
       12       12                     MAIN FUNCTION        CALLING MODULES
       13       13                     -------------        ---------------
       14       14                     EXECUTIVE ROOT       DDX1
       15       15        */
       16       16        HLIST: PROC (INBUF);
       17       17        /*   Input argument */
       18       18    1   DCL INBUF CHAR (50);
       19       19    1   DCL NLINES UBIN (36) STATIC SYMDEF ALIGNED;
       20       20    1   DCL PGNO UBIN (36) STATIC SYMDEF INIT (0) ALIGNED;
       21       21    1   DCL PROPN UBIN (36) STATIC SYMDEF INIT (0) ALIGNED;
       22       22    1   DCL 1 TTLN STATIC SYMDEF ALIGNED,
       23       23    1         2 LVFC CHAR (1) INIT ('0') UNAL, /* Carriage control */
       24       24    1         2 DATE CHAR (8) UNAL,
       25       25    1         2 * CHAR (2) INIT (' ') UNAL,
       26       26    1         2 TIME CHAR (5) UNAL,
       27       27    1         2 * CHAR (2) INIT (' ') UNAL,
       28       28    1         2 TITLE CHAR (50) UNAL, /* Sub title */
       29       29    1         2 * CHAR (6) INIT (' PAGE ') UNAL,
       30       30    1         2 PGNO CHAR (6) UNAL;
       31       31    1   DCL M$LO DCB;
       32       32        %INCLUDE CP_6;
       33      113        %F$DCB;
       34      170        %FPT_OPEN (FPTN=OPEN_LO,FUN=CREATE,EXIST=NEWFILE,DCB=M$LO
       35      171         ,CTG=YES,ORG=UR);
       36      280        %EJECT;
PL6.E3A0      #001=HLIST File=ZIG$DDX4.:ZIC0TSI                                  FRI 09/05/97 11:52 Page:2
       37      281    1       IF PROPN = 0 /* Check if output file is opened? */
       38      282    2       THEN DO;
       39      283    2           OPEN_LO.V.LINES# = DCBADDR(DCBNUM(M$LO))-> F$DCB.LINES#;
       40      284    2           CALL M$OPEN (OPEN_LO) ALTRET (ERR1); /* Open print file */
       41      285    2           PROPN = 1; /* Set file opened flag */
       42      286    2           NLINES=DCBADDR(DCBNUM(M$LO))->F$DCB.LINES#; /*Vertical page height */
       43      287    2           IF NLINES = 0 THEN NLINES = 9999; /* Infinite */
       44      288    2           END;
       45      289    1       TTLN.TITLE = INBUF; /* Move title info to output buffer */
       46      290    1       PGNO = 0; /* Set page number to zero */
       47      291    1       RETURN;
       48      292    1   ERR1:
       49      293    1       PROPN = 0;
       50      294    1       RETURN; /* To be expanded later */
       51      295    1   END;
       52      296        %EOD;

PL6.E3A0      #001=HLIST File=ZIG$DDX4.:ZIC0TSI                                  FRI 09/05/97 11:52 Page:3
--  Include file information  --

   CP_6.:LIB_E05  cannot be made into a system file and is referenced.
   B$JIT_C.:E05TOU  was found in the system file and is never referenced.
   CP_6_C.:E05TOU  was found in the system file and is referenced.
      No diagnostics issued in procedure HLIST.

   Procedure HLIST requires 34 words for executable code.
   Procedure HLIST requires 4 words of local(AUTO) storage.

PL6.E3A0      #001=HLIST File=ZIG$DDX4.:ZIC0TSI                                  FRI 09/05/97 11:52 Page:4

 Object Unit name= HLIST                                      File name= ZIG$DDX4.:ZIC0TOU
 UTS= SEP 05 '97 11:52:18.44 FRI                              Compiler= PL-6/E31         Sev=      00
 SharedLib= :SHARED_SYSTEM                                    Alt SharedLib=


    ****  Control sections  ****

 Sect   Type Bound  Init  Size OctSiz  Section name(segment info)
    0   Data  even  none    82    122  HLIST
    1   DCB   even  none     0      0  M$LO
    2   DCB   even  none     0      0  M$UC
    3   Proc  even  none    34     42  HLIST
    4  RoData even  none     1      1  HLIST

    ****  Entry defs  ****

                              Check   Calling
                             calling  sequence
  Sect OctLoc Primary Altret sequence   type   Parms  Name
     3      0   yes            yes      Std        1  HLIST

  ****  Data defs  ****

 Sect OctLoc  Name                           Sect OctLoc  Name
    0      0  NLINES                             0      1  PGNO
    0      2  PROPN                              0      3  TTLN

  ****  Entry refs  ****

         Check        Calling
        calling       sequence
Altret sequence SRef   type   Args  Name
                       nStd      0 X66_AUTO_1
                       nStd      0 X66_ARET
PL6.E3A0      #001=HLIST File=ZIG$DDX4.:ZIC0TSI                                  FRI 09/05/97 11:52 Page:5

  ****  Data refs  ****

  Flags:  r = read only, s = secondary
Flgs Name                             Flgs Name                             Flgs Name
     M$LO                                  M$UC

  ****  Segment refs  ****

  Flags:  r = read only, s = secondary
Flgs Name                             Flgs Name                             Flgs Name
     ISSID                                 NULLSID                               ROSID
PL6.E3A0      #001=HLIST File=ZIG$DDX4.:ZIC0TSI                                  FRI 09/05/97 11:52 Page:6


        1        1        /*M*         HLIST  IDS/II DBACS DBCS MOVE HEADER INFO  INTO PRINT BUFF 790401 */
        2        2        /*T***********************************************************/
        3        3        /*T*                                                         */
        4        4        /*T* Copyright (c) Bull HN Information Systems Inc., 1997    */
        5        5        /*T*                                                         */
        6        6        /*T***********************************************************/
        7        7        /*P*
        8        8        NAME:        HLIST
        9        9        PURPOSE:     MOVE HEADER INFORMATION INTO PRINT BUFFER.
       10       10        ARGUMENTS:   IN_BUF-> CALLER'S BUFFER.
       11       11        CALLING PROGRAMS:
       12       12                     MAIN FUNCTION        CALLING MODULES
       13       13                     -------------        ---------------
       14       14                     EXECUTIVE ROOT       DDX1
       15       15        */
       16       16        HLIST: PROC (INBUF);

     16  3 000000   000000 700200 xent  HLIST        TSX0  ! X66_AUTO_1
         3 000001   000004 000001                    ZERO    4,1

       17       17        /*   Input argument */
       18       18    1   DCL INBUF CHAR (50);
       19       19    1   DCL NLINES UBIN (36) STATIC SYMDEF ALIGNED;
       20       20    1   DCL PGNO UBIN (36) STATIC SYMDEF INIT (0) ALIGNED;
       21       21    1   DCL PROPN UBIN (36) STATIC SYMDEF INIT (0) ALIGNED;
       22       22    1   DCL 1 TTLN STATIC SYMDEF ALIGNED,
       23       23    1         2 LVFC CHAR (1) INIT ('0') UNAL, /* Carriage control */
       24       24    1         2 DATE CHAR (8) UNAL,
       25       25    1         2 * CHAR (2) INIT (' ') UNAL,
       26       26    1         2 TIME CHAR (5) UNAL,
       27       27    1         2 * CHAR (2) INIT (' ') UNAL,
       28       28    1         2 TITLE CHAR (50) UNAL, /* Sub title */
       29       29    1         2 * CHAR (6) INIT (' PAGE ') UNAL,
       30       30    1         2 PGNO CHAR (6) UNAL;
       31       31    1   DCL M$LO DCB;
       32       32        %INCLUDE CP_6;
PL6.E3A0      #001=HLIST File=ZIG$DDX4.:ZIC0TSI                                  FRI 09/05/97 11:52 Page:7
       33      113        %F$DCB;
       34      170        %FPT_OPEN (FPTN=OPEN_LO,FUN=CREATE,EXIST=NEWFILE,DCB=M$LO
       35      171         ,CTG=YES,ORG=UR);
       36      280        %EJECT;
PL6.E3A0      #001=HLIST File=ZIG$DDX4.:ZIC0TSI                                  FRI 09/05/97 11:52 Page:8
       37      281    1       IF PROPN = 0 /* Check if output file is opened? */

    281  3 000002   000002 235000 0                  LDA     PROPN
         3 000003   000032 601000 3                  TNZ     s:289

       38      282    2       THEN DO;

       39      283    2           OPEN_LO.V.LINES# = DCBADDR(DCBNUM(M$LO))-> F$DCB.LINES#;

    283  3 000004   000000 236007 xsym               LDQ     M$LO,DL
         3 000005   000000 470400 4                  LDP0    0
         3 000006   000000 471500                    LDP1    0,,PR0
         3 000007   100000 473506                    LDP3    0,QL,PR1
         3 000010   300044 220100                    LDX0    36,,PR3
         3 000011   000113 440000 0                  SXL0    OPEN_LO+51

       40      284    2           CALL M$OPEN (OPEN_LO) ALTRET (ERR1); /* Open print file */

    284  3 000012   000030 630400 0                  EPPR0   OPEN_LO
         3 000013   450000 713400                    CLIMB   alt,open
         3 000014   410400 401760                    pmme    nvectors=18
         3 000015   000040 702000 3                  TSX2    ERR1

       41      285    2           PROPN = 1; /* Set file opened flag */

    285  3 000016   000001 235007                    LDA     1,DL
         3 000017   000002 755000 0                  STA     PROPN

       42      286    2           NLINES=DCBADDR(DCBNUM(M$LO))->F$DCB.LINES#; /*Vertical page height */

    286  3 000020   000000 236007 xsym               LDQ     M$LO,DL
         3 000021   000000 470400 4                  LDP0    0
         3 000022   000000 471500                    LDP1    0,,PR0
         3 000023   100000 473506                    LDP3    0,QL,PR1
         3 000024   300044 236100                    LDQ     36,,PR3
         3 000025   000022 772000                    QRL     18
         3 000026   000000 756000 0                  STQ     NLINES
PL6.E3A0      #001=HLIST File=ZIG$DDX4.:ZIC0TSI                                  FRI 09/05/97 11:52 Page:9

       43      287    2           IF NLINES = 0 THEN NLINES = 9999; /* Infinite */

    287  3 000027   000032 601000 3                  TNZ     s:289

    287  3 000030   023417 235007                    LDA     9999,DL
         3 000031   000000 755000 0                  STA     NLINES

       44      288    2           END;

       45      289    1       TTLN.TITLE = INBUF; /* Move title info to output buffer */

    289  3 000032   200003 470500                    LDP0    @INBUF,,AUTO
         3 000033   040000 100500                    MLR     fill='040'O
         3 000034   000000 000062                    ADSC9   0,,PR0                   cn=0,n=50
         3 000035   000007 400062 0                  ADSC9   TTLN+4                   cn=2,n=50

       46      290    1       PGNO = 0; /* Set page number to zero */

    290  3 000036   000001 450000 0                  STZ     PGNO

       47      291    1       RETURN;

    291  3 000037   000000 702200 xent               TSX2  ! X66_ARET

       48      292    1   ERR1:
       49      293    1       PROPN = 0;

    293  3 000040   000002 450000 0     ERR1         STZ     PROPN

       50      294    1       RETURN; /* To be expanded later */

    294  3 000041   000000 702200 xent               TSX2  ! X66_ARET

PGNO
 Sect OctLoc
   0     001   000000 000000                                                    ....
PL6.E3A0      #001=HLIST File=ZIG$DDX4.:ZIC0TSI                                  FRI 09/05/97 11:52 Page:10

PROPN
 Sect OctLoc
   0     002   000000 000000                                                    ....

TTLN
 Sect OctLoc
   0     003   060*** ******   ****** ******   ***040 040***   ****** ******    0........  .....
   0     007   040040 ******   ****** ******   ****** ******   ****** ******      ..............
   0     023*  ****** ******   040120 101107   105040 ******   ****** ******    .... PAGE ......

OPEN_LO
 Sect OctLoc
   0     030   000025 777640   000074 006000   000000 177640   000000 006014    .....<..........
   0     034   000000 177640   000000 006014   000000 177640   000000 006014    ................
   0     074*  000000 000702   000000 003000   252525 004000   000040 252520    ............. ..
   0     100   000040 040040   000000 000000   000000 777777   000000 000000    .   ............
   0     104   000000 000000   000000 000000   000000 000000   000000 000000    ................
   0     110   251000 622000   000000 000000   000000 000000   111250 000000    ............I...
   0     114   040040 040040   000000 000000   000000 000000   000000 000000        ............
   0     120   000000 000000   ****** ******                                    ........

(unnamed)
 Sect OctLoc
   4     000   000000 006003                                                    ....
       51      295    1   END;
       52      296        %EOD;

PL6.E3A0      #001=HLIST File=ZIG$DDX4.:ZIC0TSI                                  FRI 09/05/97 11:52 Page:11
--  Include file information  --

   CP_6.:LIB_E05  cannot be made into a system file and is referenced.
   B$JIT_C.:E05TOU  was found in the system file and is never referenced.
   CP_6_C.:E05TOU  was found in the system file and is referenced.
      No diagnostics issued in procedure HLIST.

   Procedure HLIST requires 34 words for executable code.
   Procedure HLIST requires 4 words of local(AUTO) storage.
PL6.E3A0      #001=HLIST File=ZIG$DDX4.:ZIC0TSI                                  FRI 09/05/97 11:52 Page:12
          *** CROSS REFERENCE LISTING ***
**     DENOTES     IDENTIFIER DEFINITION
<<                 IDENTIFIER'S VALUE SET
>>                 IDENTIFIER'S VALUE USED
<>                 IDENTIFIER SET AND/OR USED
--                 IDENTIFIER REFERENCED
PL6.E3A0      #001=HLIST File=ZIG$DDX4.:ZIC0TSI                                  FRI 09/05/97 11:52 Page:13
          MINI XREF LISTING

ERR1
       293**LABEL     284--CALLALT
F$DCB.ACTPOS
       146**DCL       146--REDEF
F$DCB.ARS#
       120**DCL       120--REDEF
F$DCB.ATTR
       139**DCL       140--REDEF
F$DCB.BORROW
       154**DCL       154--REDEF     154--REDEF     154--REDEF
F$DCB.DCBNAME.L
       168**DCL       168--IMP-SIZ
F$DCB.EOMCHAR#
       124**DCL       124--REDEF
F$DCB.FLDID
       149**DCL       149--REDEF
F$DCB.FORM$
       143**DCL       143--REDEF
F$DCB.FSECT
       159**DCL       159--REDEF
F$DCB.FSN#
       136**DCL       136--REDEF     136--REDEF     137--REDEF
F$DCB.HEADER$
       142**DCL       142--REDEF
F$DCB.IXTNSIZE#
       140**DCL       140--REDEF
F$DCB.LASTSTA$
       129**DCL       129--REDEF
F$DCB.LINES#
       142**DCL       283>>ASSIGN    286>>ASSIGN
F$DCB.LVL
       155**DCL       155--REDEF
PL6.E3A0      #001=HLIST File=ZIG$DDX4.:ZIC0TSI                                  FRI 09/05/97 11:52 Page:14
F$DCB.NAME#.C
       130**DCL       130--REDEF
F$DCB.NOEOF
       152**DCL       152--REDEF
F$DCB.NRECS#
       141**DCL       141--REDEF
F$DCB.NRECX
       160**DCL       160--REDEF
F$DCB.OHDR
       152**DCL       152--REDEF
F$DCB.ORG#
       135**DCL       135--REDEF
F$DCB.PRECNO
       158**DCL       158--REDEF
F$DCB.RCSZ
       164**DCL       164--REDEF
F$DCB.RES#
       131**DCL       131--REDEF
F$DCB.SETX
       143**DCL       143--REDEF
F$DCB.TAB$
       143**DCL       143--REDEF
F$DCB.TDA
       157**DCL       158--REDEF
F$DCB.WSN#
       131**DCL       131--REDEF
INBUF
        18**DCL        16--PROC      289>>ASSIGN
M$LO
        31**DCL       283--ASSIGN    286--ASSIGN
M$OPEN
        41**DCL-ENT   284--CALL
NLINES
        19**DCL       286<<ASSIGN    287>>IF        287<<ASSIGN
OPEN_LO
       236**DCL       284<>CALL
PL6.E3A0      #001=HLIST File=ZIG$DDX4.:ZIC0TSI                                  FRI 09/05/97 11:52 Page:15
OPEN_LO.ACSVEH_
       238**DCL       239--REDEF
OPEN_LO.ALTKEYS_
       244**DCL       245--REDEF     245--REDEF
OPEN_LO.HDR_
       243**DCL       244--REDEF
OPEN_LO.TAB_
       242**DCL       243--REDEF
OPEN_LO.UHL_
       236**DCL       237--REDEF     237--REDEF
OPEN_LO.V
       245**DCL       236--DCLINIT
OPEN_LO.V.FSN#
       276**DCL       276--REDEF     276--REDEF
OPEN_LO.V.LINES#
       275**DCL       283<<ASSIGN
OPEN_LO.WSN_
       242**DCL       242--REDEF
PGNO
        20**DCL       290<<ASSIGN
PROPN
        21**DCL       281>>IF        285<<ASSIGN    293<<ASSIGN
TTLN.TITLE
        28**DCL       289<<ASSIGN

PL6.E3A0      #002=SUBHD File=ZIG$DDX4.:ZIC0TSI                                  FRI 09/05/97 11:52 Page:16
       53        1        /*M*         SUBHD and SUBLST  IDS/II DBACS PRINT HEADER AND SUBHEAD INFO 790401  */
       54        2        /*T***********************************************************/
       55        3        /*T*                                                         */
       56        4        /*T* Copyright (c) Bull HN Information Systems Inc., 1997    */
       57        5        /*T*                                                         */
       58        6        /*T***********************************************************/
       59        7        /*P*
       60        8        NAME:        SUBHD AND SUBLST
       61        9        PURPOSE:     MOVE SUB-TITLE INFORMATION INTO PRINT BUFFER, PRINT HEADER,
       62       10                     PRINT HEADER AND SUBHEADER LINES AFTER TOF.
       63       11        ARGUMENTS:   INBUF-> CALLER'S BUFFER.
       64       12        CALLING PROGRAMS:
       65       13                     MAIN FUNCTION                 CALLING MODULES
       66       14                     -------------                 ---------------
       67       15          SUBHD      DATA STRUCTURE REPORT WRITER  DDY7
       68       16                     DIRECTIVE PROCESSOR           DDS1
       69       17                     XROOT                         DDX1
       70       18          SUBLST     DICTIONARY                    DDX8
       71       19                     DISPLAY                       DDX7
       72       20                     DROOT                         DDP4
       73       21                     LOCKS                         DDY1
       74       22                     PURGE                         DDS6
       75       23                     SCHEMA DDL TRANSLATOR         DDC8,DDD1,DDD5,DDD7
       76       24                     SSCHEMA DESCRIPTOR BUILDER    DDY2
       77       25                     SSROOT                        DDJ5
       78       26                     STORAGE STCTR  REPORT WRITER  DDE1
       79       27                     VALIDATOR                     DDK0,DDL8,DDL9,DDDM1,DDM8
       80       28                     XROOT                         DDX1
       81       29                     ?????                         DN30
       82       30        */
       83       31        SUBHD: PROC (INBUF,P_L);
       84       32        /*  Input arguments  */
       85       33    1   DCL INBUF CHAR (64);
       86       34    1   DCL P_L SBIN;
       87       35    1   DCL L SBIN;
       88       36    1   DCL PGNO UBIN (36) SYMREF ALIGNED;
       89       37    1   DCL TIMES CHAR (11) STATIC;
PL6.E3A0      #002=SUBHD File=ZIG$DDX4.:ZIC0TSI                                  FRI 09/05/97 11:52 Page:17
       90       38    1   DCL 1 LOCAL REDEF TIMES,
       91       39    1         2 TIME CHAR (5),
       92       40    1         2 * CHAR (6);
       93       41    1   DCL 1 TTLN SYMREF ALIGNED,
       94       42    1         2 LVFC CHAR (1) UNAL, /* Carriage control */
       95       43    1         2 DTE CHAR (8) UNAL, /* Mo/da/yr */
       96       44    1         2 * CHAR (2) UNAL,
       97       45    1         2 TIME CHAR (5) UNAL, /* HH:MM */
       98       46    1         2 * CHAR (2) UNAL,
       99       47    1         2 TITLE CHAR (50) UNAL, /* Sub title */
      100       48    1         2 * CHAR (6) UNAL,
      101       49    1         2 PGNO CHAR (6) UNAL; /* Xxxxxx */
      102       50    1   DCL BLANK_LINE CHAR (4) INIT ('A   ') STATIC SYMDEF ALIGNED;
      103       51    1   DCL TOPSW UBIN (36) STATIC SYMDEF INIT (0) ALIGNED;
      104       52    1   DCL LNCNT UBIN (36) STATIC SYMDEF ALIGNED;
      105       53    1   DCL 1 SUBHED STATIC SYMDEF ALIGNED,
      106       54    1         2 LVFC CHAR (1) INIT ('b') UNAL, /* Carriage control */
      107       55    1         2 HED CHAR (64) UNAL,
      108       56    1         2 * CHAR (3) INIT('   ') UNAL;
      109       57    1   DCL M$LO DCB;
      110       58        %INCLUDE CP_6;
      111      139        %FPT_TIME (FPTN=TIME_FPT,DEST=LOCAL,DATE=TTLN.DTE,TIME=TIMES);
      112      158        %FPT_WRITE (FPTN=WRITE_LO,DCB=M$LO,VFC=YES);
      113      189        %EJECT;
PL6.E3A0      #002=SUBHD File=ZIG$DDX4.:ZIC0TSI                                  FRI 09/05/97 11:52 Page:18
      114      190    1   SUBLST: ENTRY (INBUF,P_L);
      115      191    1       CALL M$TIME (TIME_FPT) ALTRET (ERR2);
      116      192    1       TTLN.TIME = LOCAL.TIME;
      117      193    1       PGNO = PGNO + 1;
      118      194    1       CALL BINCHAR (TTLN.PGNO,PGNO);
      119      195    1       WRITE_LO.BUF_ = VECTOR(TTLN);
      120      196    1       CALL M$WRITE (WRITE_LO) ALTRET (ERR1);
      121      197    1       IF ADDR(P_L) = ADDR(NIL)
      122      198    1       THEN
      123      199    1           L = 64;
      124      200    1       ELSE
      125      201    1           L = P_L;
      126      202    1       SUBHED.HED = SUBSTR(INBUF,0,L);
      127      203    1       WRITE_LO.BUF_ = VECTOR(SUBHED);
      128      204    1       CALL M$WRITE (WRITE_LO) ALTRET (ERR1);
      129      205    1       WRITE_LO.BUF_ = VECTOR(BLANK_LINE);
      130      206    1       CALL M$WRITE (WRITE_LO) ALTRET (ERR1);
      131      207    1       LNCNT = 5;
      132      208    1       TOPSW = 1;
      133      209    1       RETURN;
      134      210    1   ERR1:
      135      211    1       RETURN;
      136      212    1   ERR2:
      137      213    1       RETURN;
      138      214    1   END;
      139      215        %EOD;

PL6.E3A0      #002=SUBHD File=ZIG$DDX4.:ZIC0TSI                                  FRI 09/05/97 11:52 Page:19
--  Include file information  --

   CP_6.:LIB_E05  cannot be made into a system file and is referenced.
   B$JIT_C.:E05TOU  was found in the system file and is never referenced.
   CP_6_C.:E05TOU  was found in the system file and is referenced.
      No diagnostics issued in procedure SUBHD.

   Procedure SUBHD requires 59 words for executable code.
   Procedure SUBHD requires 8 words of local(AUTO) storage.

PL6.E3A0      #002=SUBHD File=ZIG$DDX4.:ZIC0TSI                                  FRI 09/05/97 11:52 Page:20

 Object Unit name= SUBHD                                      File name= ZIG$DDX4.:ZIC0TOU
 UTS= SEP 05 '97 11:52:24.68 FRI                              Compiler= PL-6/E31         Sev=      00
 SharedLib= :SHARED_SYSTEM                                    Alt SharedLib=


    ****  Control sections  ****

 Sect   Type Bound  Init  Size OctSiz  Section name(segment info)
    0   Data  even  none    48     60  SUBHD
    1   DCB   even  none     0      0  M$LO
    2   DCB   even  none     0      0  M$UC
    3   Proc  even  none    59     73  SUBHD
    4  RoData even  none     8     10  SUBHD

    ****  Entry defs  ****

                              Check   Calling
                             calling  sequence
  Sect OctLoc Primary Altret sequence   type   Parms  Name
     3      0   yes            yes      Std        2  SUBHD
     3      3                  yes      Std        2  SUBLST

  ****  Data defs  ****

 Sect OctLoc  Name                           Sect OctLoc  Name
    0      3  BLANK_LINE                         0      4  TOPSW
    0      5  LNCNT                              0      6  SUBHED

  ****  Entry refs  ****

         Check        Calling
        calling       sequence
Altret sequence SRef   type   Args  Name
                       nStd      0 X66_AUTO_2
                       nStd      0 X66_ARET
PL6.E3A0      #002=SUBHD File=ZIG$DDX4.:ZIC0TSI                                  FRI 09/05/97 11:52 Page:21

  ****  Data refs  ****

  Flags:  r = read only, s = secondary
Flgs Name                             Flgs Name                             Flgs Name
     PGNO                                  TTLN                                  M$LO
     M$UC

  ****  Segment refs  ****

  Flags:  r = read only, s = secondary
Flgs Name                             Flgs Name                             Flgs Name
     ISSID                                 NULLSID
PL6.E3A0      #002=SUBHD File=ZIG$DDX4.:ZIC0TSI                                  FRI 09/05/97 11:52 Page:22


       53        1        /*M*         SUBHD and SUBLST  IDS/II DBACS PRINT HEADER AND SUBHEAD INFO 790401 */
       54        2        /*T***********************************************************/
       55        3        /*T*                                                         */
       56        4        /*T* Copyright (c) Bull HN Information Systems Inc., 1997    */
       57        5        /*T*                                                         */
       58        6        /*T***********************************************************/
       59        7        /*P*
       60        8        NAME:        SUBHD AND SUBLST
       61        9        PURPOSE:     MOVE SUB-TITLE INFORMATION INTO PRINT BUFFER, PRINT HEADER,
       62       10                     PRINT HEADER AND SUBHEADER LINES AFTER TOF.
       63       11        ARGUMENTS:   INBUF-> CALLER'S BUFFER.
       64       12        CALLING PROGRAMS:
       65       13                     MAIN FUNCTION                 CALLING MODULES
       66       14                     -------------                 ---------------
       67       15          SUBHD      DATA STRUCTURE REPORT WRITER  DDY7
       68       16                     DIRECTIVE PROCESSOR           DDS1
       69       17                     XROOT                         DDX1
       70       18          SUBLST     DICTIONARY                    DDX8
       71       19                     DISPLAY                       DDX7
       72       20                     DROOT                         DDP4
       73       21                     LOCKS                         DDY1
       74       22                     PURGE                         DDS6
       75       23                     SCHEMA DDL TRANSLATOR         DDC8,DDD1,DDD5,DDD7
       76       24                     SSCHEMA DESCRIPTOR BUILDER    DDY2
       77       25                     SSROOT                        DDJ5
       78       26                     STORAGE STCTR  REPORT WRITER  DDE1
       79       27                     VALIDATOR                     DDK0,DDL8,DDL9,DDDM1,DDM8
       80       28                     XROOT                         DDX1
       81       29                     ?????                         DN30
       82       30        */
       83       31        SUBHD: PROC (INBUF,P_L);

     31  3 000000   000000 700200 xent  SUBHD        TSX0  ! X66_AUTO_2
         3 000001   000010 000002                    ZERO    8,2
         3 000002   000005 710000 3                  TRA     s:191

PL6.E3A0      #002=SUBHD File=ZIG$DDX4.:ZIC0TSI                                  FRI 09/05/97 11:52 Page:23
       84       32        /*  Input arguments  */
       85       33    1   DCL INBUF CHAR (64);
       86       34    1   DCL P_L SBIN;
       87       35    1   DCL L SBIN;
       88       36    1   DCL PGNO UBIN (36) SYMREF ALIGNED;
       89       37    1   DCL TIMES CHAR (11) STATIC;
       90       38    1   DCL 1 LOCAL REDEF TIMES,
       91       39    1         2 TIME CHAR (5),
       92       40    1         2 * CHAR (6);
       93       41    1   DCL 1 TTLN SYMREF ALIGNED,
       94       42    1         2 LVFC CHAR (1) UNAL, /* Carriage control */
       95       43    1         2 DTE CHAR (8) UNAL, /* Mo/da/yr */
       96       44    1         2 * CHAR (2) UNAL,
       97       45    1         2 TIME CHAR (5) UNAL, /* HH:MM */
       98       46    1         2 * CHAR (2) UNAL,
       99       47    1         2 TITLE CHAR (50) UNAL, /* Sub title */
      100       48    1         2 * CHAR (6) UNAL,
      101       49    1         2 PGNO CHAR (6) UNAL; /* Xxxxxx */
      102       50    1   DCL BLANK_LINE CHAR (4) INIT ('A   ') STATIC SYMDEF ALIGNED;
      103       51    1   DCL TOPSW UBIN (36) STATIC SYMDEF INIT (0) ALIGNED;
      104       52    1   DCL LNCNT UBIN (36) STATIC SYMDEF ALIGNED;
      105       53    1   DCL 1 SUBHED STATIC SYMDEF ALIGNED,
      106       54    1         2 LVFC CHAR (1) INIT ('b') UNAL, /* Carriage control */
      107       55    1         2 HED CHAR (64) UNAL,
      108       56    1         2 * CHAR (3) INIT('   ') UNAL;
      109       57    1   DCL M$LO DCB;
      110       58        %INCLUDE CP_6;
      111      139        %FPT_TIME (FPTN=TIME_FPT,DEST=LOCAL,DATE=TTLN.DTE,TIME=TIMES);
      112      158        %FPT_WRITE (FPTN=WRITE_LO,DCB=M$LO,VFC=YES);
      113      189        %EJECT;
PL6.E3A0      #002=SUBHD File=ZIG$DDX4.:ZIC0TSI                                  FRI 09/05/97 11:52 Page:24
      114      190    1   SUBLST: ENTRY (INBUF,P_L);

    190  3 000003   000000 700200 xent  SUBLST       TSX0  ! X66_AUTO_2
         3 000004   000010 000002                    ZERO    8,2

      115      191    1       CALL M$TIME (TIME_FPT) ALTRET (ERR2);

    191  3 000005   000030 630400 0                  EPPR0   TIME_FPT
         3 000006   420004 713400                    CLIMB   alt,+8196
         3 000007   402000 401760                    pmme    nvectors=5
         3 000010   000072 702000 3                  TSX2    ERR2

      116      192    1       TTLN.TIME = LOCAL.TIME;

    192  3 000011   040000 100400                    MLR     fill='040'O
         3 000012   000000 000005 0                  ADSC9   TIMES                    cn=0,n=5
         3 000013   000002 600005 xsym               ADSC9   TTLN+2                   cn=3,n=5

      117      193    1       PGNO = PGNO + 1;

    193  3 000014   000000 235000 xsym               LDA     PGNO
         3 000015   000001 035007                    ADLA    1,DL
         3 000016   000000 755000 xsym               STA     PGNO

      118      194    1       CALL BINCHAR (TTLN.PGNO,PGNO);

    194  3 000017   000044 773000                    LRL     36
         3 000020   200006 757100                    STAQ    L+1,,AUTO
         3 000021   000000 301500                    BTD
         3 000022   200006 000010                    NDSC9   L+1,,AUTO                cn=0,s=lsgnf,sf=0,n=8
         3 000023   000022 430006 xsym               NDSC9   TTLN+18                  cn=2,s=nosgn,sf=0,n=6

      119      195    1       WRITE_LO.BUF_ = VECTOR(TTLN);

    195  3 000024   000000 237000 4                  LDAQ    0
         3 000025   000050 757000 0                  STAQ    WRITE_LO+4

PL6.E3A0      #002=SUBHD File=ZIG$DDX4.:ZIC0TSI                                  FRI 09/05/97 11:52 Page:25
      120      196    1       CALL M$WRITE (WRITE_LO) ALTRET (ERR1);

    196  3 000026   000044 630400 0                  EPPR0   WRITE_LO
         3 000027   440001 713400                    CLIMB   alt,write
         3 000030   401400 401760                    pmme    nvectors=4
         3 000031   000071 702000 3                  TSX2    ERR1

      121      197    1       IF ADDR(P_L) = ADDR(NIL)

    197  3 000032   200004 236100                    LDQ     @P_L,,AUTO
         3 000033   000002 116000 4                  CMPQ    2
         3 000034   000040 601000 3                  TNZ     s:201

      122      198    1       THEN
      123      199    1           L = 64;

    199  3 000035   000100 235007                    LDA     64,DL
         3 000036   200005 755100                    STA     L,,AUTO
         3 000037   000043 710000 3                  TRA     s:202

      124      200    1       ELSE
      125      201    1           L = P_L;

    201  3 000040   200004 470500                    LDP0    @P_L,,AUTO
         3 000041   000000 235100                    LDA     0,,PR0
         3 000042   200005 755100                    STA     L,,AUTO

      126      202    1       SUBHED.HED = SUBSTR(INBUF,0,L);

    202  3 000043   200003 470500                    LDP0    @INBUF,,AUTO
         3 000044   000000 620005                    EAX0    0,AL
         3 000045   040000 100540                    MLR     fill='040'O
         3 000046   000000 000010                    ADSC9   0,,PR0                   cn=0,n=*X0
         3 000047   000006 200100 0                  ADSC9   SUBHED                   cn=1,n=64

      127      203    1       WRITE_LO.BUF_ = VECTOR(SUBHED);

PL6.E3A0      #002=SUBHD File=ZIG$DDX4.:ZIC0TSI                                  FRI 09/05/97 11:52 Page:26
    203  3 000050   000004 237000 4                  LDAQ    4
         3 000051   000050 757000 0                  STAQ    WRITE_LO+4

      128      204    1       CALL M$WRITE (WRITE_LO) ALTRET (ERR1);

    204  3 000052   000044 630400 0                  EPPR0   WRITE_LO
         3 000053   440001 713400                    CLIMB   alt,write
         3 000054   401400 401760                    pmme    nvectors=4
         3 000055   000071 702000 3                  TSX2    ERR1

      129      205    1       WRITE_LO.BUF_ = VECTOR(BLANK_LINE);

    205  3 000056   000006 237000 4                  LDAQ    6
         3 000057   000050 757000 0                  STAQ    WRITE_LO+4

      130      206    1       CALL M$WRITE (WRITE_LO) ALTRET (ERR1);

    206  3 000060   000044 630400 0                  EPPR0   WRITE_LO
         3 000061   440001 713400                    CLIMB   alt,write
         3 000062   401400 401760                    pmme    nvectors=4
         3 000063   000071 702000 3                  TSX2    ERR1

      131      207    1       LNCNT = 5;

    207  3 000064   000005 235007                    LDA     5,DL
         3 000065   000005 755000 0                  STA     LNCNT

      132      208    1       TOPSW = 1;

    208  3 000066   000001 236007                    LDQ     1,DL
         3 000067   000004 756000 0                  STQ     TOPSW

      133      209    1       RETURN;

    209  3 000070   000000 702200 xent               TSX2  ! X66_ARET

      134      210    1   ERR1:
PL6.E3A0      #002=SUBHD File=ZIG$DDX4.:ZIC0TSI                                  FRI 09/05/97 11:52 Page:27
      135      211    1       RETURN;

    211  3 000071   000000 702200 xent  ERR1         TSX2  ! X66_ARET

      136      212    1   ERR2:
      137      213    1       RETURN;

    213  3 000072   000000 702200 xent  ERR2         TSX2  ! X66_ARET

BLANK_LINE
 Sect OctLoc
   0     003   101040 040040                                                    A

TOPSW
 Sect OctLoc
   0     004   000000 000000                                                    ....

SUBHED
 Sect OctLoc
   0     006   142*** ******   ****** ******   ****** ******   ****** ******    b...............
   0     026*  ***040 040040                                                    .

TIME_FPT
 Sect OctLoc
   0     030   000001 777640   000042 006000   000001 777640   000000 206000    ....."..........
   0     034   000002 577640   000000 006000   000000 177640   000000 006014    ................
   0     040   000000 177640   000000 006014   000003 000000   ****** ******    ................

WRITE_LO
 Sect OctLoc
   0     044   000003 777640   000054 006000   000000 177640   000000 006014    .....,..........
   0     050   000000 177640   000000 006014   000000 177640   000000 006014    ................
   0     054   000000 400400   000000 000000   000000 000000   100000 000000    ............@...

(unnamed)
 Sect OctLoc
   4     000   000023 777640   000000 006000   000000 006014   000000 000000    ................
PL6.E3A0      #002=SUBHD File=ZIG$DDX4.:ZIC0TSI                                  FRI 09/05/97 11:52 Page:28
   4     004   000020 777640   000006 006000   000000 777640   000003 006000    ................
      138      214    1   END;
      139      215        %EOD;

PL6.E3A0      #002=SUBHD File=ZIG$DDX4.:ZIC0TSI                                  FRI 09/05/97 11:52 Page:29
--  Include file information  --

   CP_6.:LIB_E05  cannot be made into a system file and is referenced.
   B$JIT_C.:E05TOU  was found in the system file and is never referenced.
   CP_6_C.:E05TOU  was found in the system file and is referenced.
      No diagnostics issued in procedure SUBHD.

   Procedure SUBHD requires 59 words for executable code.
   Procedure SUBHD requires 8 words of local(AUTO) storage.
PL6.E3A0      #002=SUBHD File=ZIG$DDX4.:ZIC0TSI                                  FRI 09/05/97 11:52 Page:30
          *** CROSS REFERENCE LISTING ***
**     DENOTES     IDENTIFIER DEFINITION
<<                 IDENTIFIER'S VALUE SET
>>                 IDENTIFIER'S VALUE USED
<>                 IDENTIFIER SET AND/OR USED
--                 IDENTIFIER REFERENCED
PL6.E3A0      #002=SUBHD File=ZIG$DDX4.:ZIC0TSI                                  FRI 09/05/97 11:52 Page:31
          MINI XREF LISTING

BLANK_LINE
        50**DCL       205--ASSIGN
ERR1
       211**LABEL     196--CALLALT   204--CALLALT   206--CALLALT
ERR2
       213**LABEL     191--CALLALT
INBUF
        33**DCL        31--PROC      190--ENTRY     202>>ASSIGN
L
        35**DCL       199<<ASSIGN    201<<ASSIGN    202>>ASSIGN
LNCNT
        52**DCL       207<<ASSIGN
LOCAL.TIME
        39**DCL       192>>ASSIGN
M$TIME
       134**DCL-ENT   191--CALL
M$WRITE
        68**DCL-ENT   196--CALL      204--CALL      206--CALL
PGNO
        36**DCL       193<<ASSIGN    193>>ASSIGN    194>>CALLBLT
P_L
        34**DCL        31--PROC      190--ENTRY     197--IF        201>>ASSIGN
SUBHED
        53**DCL       203--ASSIGN
SUBHED.HED
        55**DCL       202<<ASSIGN
TIMES
        37**DCL        38--REDEF     152--DCLINIT   153--DCLINIT
TIME_FPT
       150**DCL       191<>CALL
TIME_FPT.V
       154**DCL       150--DCLINIT
PL6.E3A0      #002=SUBHD File=ZIG$DDX4.:ZIC0TSI                                  FRI 09/05/97 11:52 Page:32
TOPSW
        51**DCL       208<<ASSIGN
TTLN
        41**DCL       195--ASSIGN
TTLN.DTE
        43**DCL       150--DCLINIT   151--DCLINIT
TTLN.PGNO
        49**DCL       194<<CALLBLT
TTLN.TIME
        45**DCL       192<<ASSIGN
WRITE_LO
       175**DCL       196<>CALL      204<>CALL      206<>CALL
WRITE_LO.BUF_
       175**DCL       195<<ASSIGN    203<<ASSIGN    205<<ASSIGN
WRITE_LO.STATION_
       177**DCL       177--REDEF
WRITE_LO.V
       178**DCL       175--DCLINIT
WRITE_LO.V.DVBYTE.VFC#
       184**DCL       184--REDEF

PL6.E3A0      #003=LIST File=ZIG$DDX4.:ZIC0TSI                                   FRI 09/05/97 11:52 Page:33
      140        1        /*T***********************************************************/
      141        2        /*T*                                                         */
      142        3        /*T* Copyright (c) Bull HN Information Systems Inc., 1997    */
      143        4        /*T*                                                         */
      144        5        /*T***********************************************************/
      145        6        LIST: PROC (INBUF);
      146        7        /* Input arguments  */
      147        8    1   DCL INBUF CHAR (128);
      148        9    1   DCL PGNO UBIN (36) SYMREF ALIGNED;
      149       10    1   DCL PROPN UBIN (36) SYMREF ALIGNED;
      150       11    1   DCL LNCNT UBIN (36) SYMREF ALIGNED;
      151       12    1   DCL TOPSW UBIN (36) SYMREF ALIGNED;
      152       13    1   DCL NLINES UBIN (36) SYMREF ALIGNED;
      153       14    1   DCL SUBHED CHAR (68) SYMREF ALIGNED;
      154       15    1   DCL BLANK_LINE CHAR (4) SYMREF ALIGNED;
      155       16    1   DCL 1 TTLN SYMREF ALIGNED,
      156       17    1         2 LVFC CHAR (1) UNAL, /* Carriage control */
      157       18    1         2 DATE CHAR (8) UNAL, /* Mo-da-yr */
      158       19    1         2 * CHAR (2) UNAL,
      159       20    1         2 TIME CHAR (5) UNAL, /* HH:MM */
      160       21    1         2 * CHAR (2) UNAL,
      161       22    1         2 TITLE CHAR (50) UNAL, /* Title */
      162       23    1         2 * CHAR (6) UNAL,
      163       24    1         2 PGNO CHAR (6) UNAL; /* Xxxxxx */
      164       25    1   DCL 1 LINE STATIC ALIGNED,
      165       26    1         2 LVFC CHAR (1) INIT ('A') UNAL,
      166       27    1         2 CONTENT CHAR (128) UNAL,
      167       28    1         2 * CHAR (3) INIT('   ') UNAL;
      168       29    1   DCL ABORT ENTRY;
      169       30    1   DCL M$LO DCB;
      170       31        %INCLUDE CP_6;
      171      112        %FPT_WRITE (FPTN=WRITE_LO,DCB=M$LO,VFC=YES);
      172      143        %EJECT;
PL6.E3A0      #003=LIST File=ZIG$DDX4.:ZIC0TSI                                   FRI 09/05/97 11:52 Page:34
      173      144    1       IF TOPSW = 0 THEN
      174      145    2       DO;
      175      146    2           CALL ABORT;
      176      147    2           RETURN;
      177      148    2           END;
      178      149    1       IF LNCNT >= NLINES THEN
      179      150    2       DO;
      180      151    2           PGNO = PGNO + 1;
      181      152    2           CALL BINCHAR (TTLN.PGNO,PGNO);
      182      153    2           WRITE_LO.BUF_.BOUND = SIZEV(TTLN);
      183      154    2           WRITE_LO.BUF_.BUF$ = ADDR (TTLN);
      184      155    2           CALL M$WRITE (WRITE_LO) ALTRET (ERR);
      185      156    2           WRITE_LO.BUF_.BOUND = SIZEV(SUBHED);
      186      157    2           WRITE_LO.BUF_.BUF$ = ADDR (SUBHED);
      187      158    2           CALL M$WRITE (WRITE_LO) ALTRET (ERR);
      188      159    2           WRITE_LO.BUF_.BOUND = SIZEV (BLANK_LINE);
      189      160    2           WRITE_LO.BUF_.BUF$ = ADDR (BLANK_LINE);
      190      161    2           CALL M$WRITE(WRITE_LO) ALTRET (ERR);
      191      162    2           LNCNT = 5;
      192      163    2           END;
      193      164    1       LINE.CONTENT = INBUF;
      194      165    1       WRITE_LO.BUF_.BOUND = SIZEV(LINE);
      195      166    1       WRITE_LO.BUF_.BUF$ = ADDR (LINE);
      196      167    1       CALL M$WRITE (WRITE_LO) ALTRET (ERR);
      197      168    1       LNCNT = LNCNT + 1;
      198      169    1       RETURN;
      199      170    1   ERR:
      200      171    1       RETURN;
      201      172    1   END;
      202      173        %EOD;

PL6.E3A0      #003=LIST File=ZIG$DDX4.:ZIC0TSI                                   FRI 09/05/97 11:52 Page:35
--  Include file information  --

   CP_6.:LIB_E05  cannot be made into a system file and is referenced.
   B$JIT_C.:E05TOU  was found in the system file and is never referenced.
   CP_6_C.:E05TOU  was found in the system file and is referenced.
      No diagnostics issued in procedure LIST.

   Procedure LIST requires 70 words for executable code.
   Procedure LIST requires 6 words of local(AUTO) storage.

PL6.E3A0      #003=LIST File=ZIG$DDX4.:ZIC0TSI                                   FRI 09/05/97 11:52 Page:36

 Object Unit name= LIST                                       File name= ZIG$DDX4.:ZIC0TOU
 UTS= SEP 05 '97 11:52:28.84 FRI                              Compiler= PL-6/E31         Sev=      00
 SharedLib= :SHARED_SYSTEM                                    Alt SharedLib=


    ****  Control sections  ****

 Sect   Type Bound  Init  Size OctSiz  Section name(segment info)
    0   Data  even  none    46     56  LIST
    1   DCB   even  none     0      0  M$LO
    2   DCB   even  none     0      0  M$UC
    3   Proc  even  none    70    106  LIST
    4  RoData even  none     8     10  LIST

    ****  Entry defs  ****

                              Check   Calling
                             calling  sequence
  Sect OctLoc Primary Altret sequence   type   Parms  Name
     3      0   yes            yes      Std        1  LIST

  ****  Entry refs  ****

         Check        Calling
        calling       sequence
Altret sequence SRef   type   Args  Name
         yes           Std       0 ABORT
                       nStd      0 X66_AUTO_1
                       nStd      0 X66_ARET
PL6.E3A0      #003=LIST File=ZIG$DDX4.:ZIC0TSI                                   FRI 09/05/97 11:52 Page:37

  ****  Data refs  ****

  Flags:  r = read only, s = secondary
Flgs Name                             Flgs Name                             Flgs Name
     PGNO                                  PROPN                                 LNCNT
     TOPSW                                 NLINES                                SUBHED
     BLANK_LINE                            TTLN                                  M$LO
     M$UC

  ****  Segment refs  ****

  Flags:  r = read only, s = secondary
Flgs Name                             Flgs Name                             Flgs Name
     ISSID                                 NULLSID
PL6.E3A0      #003=LIST File=ZIG$DDX4.:ZIC0TSI                                   FRI 09/05/97 11:52 Page:38


      140        1        /*T***********************************************************/
      141        2        /*T*                                                         */
      142        3        /*T* Copyright (c) Bull HN Information Systems Inc., 1997    */
      143        4        /*T*                                                         */
      144        5        /*T***********************************************************/
      145        6        LIST: PROC (INBUF);

      6  3 000000   000000 700200 xent  LIST         TSX0  ! X66_AUTO_1
         3 000001   000006 000001                    ZERO    6,1

      146        7        /* Input arguments  */
      147        8    1   DCL INBUF CHAR (128);
      148        9    1   DCL PGNO UBIN (36) SYMREF ALIGNED;
      149       10    1   DCL PROPN UBIN (36) SYMREF ALIGNED;
      150       11    1   DCL LNCNT UBIN (36) SYMREF ALIGNED;
      151       12    1   DCL TOPSW UBIN (36) SYMREF ALIGNED;
      152       13    1   DCL NLINES UBIN (36) SYMREF ALIGNED;
      153       14    1   DCL SUBHED CHAR (68) SYMREF ALIGNED;
      154       15    1   DCL BLANK_LINE CHAR (4) SYMREF ALIGNED;
      155       16    1   DCL 1 TTLN SYMREF ALIGNED,
      156       17    1         2 LVFC CHAR (1) UNAL, /* Carriage control */
      157       18    1         2 DATE CHAR (8) UNAL, /* Mo-da-yr */
      158       19    1         2 * CHAR (2) UNAL,
      159       20    1         2 TIME CHAR (5) UNAL, /* HH:MM */
      160       21    1         2 * CHAR (2) UNAL,
      161       22    1         2 TITLE CHAR (50) UNAL, /* Title */
      162       23    1         2 * CHAR (6) UNAL,
      163       24    1         2 PGNO CHAR (6) UNAL; /* Xxxxxx */
      164       25    1   DCL 1 LINE STATIC ALIGNED,
      165       26    1         2 LVFC CHAR (1) INIT ('A') UNAL,
      166       27    1         2 CONTENT CHAR (128) UNAL,
      167       28    1         2 * CHAR (3) INIT('   ') UNAL;
      168       29    1   DCL ABORT ENTRY;
      169       30    1   DCL M$LO DCB;
      170       31        %INCLUDE CP_6;
      171      112        %FPT_WRITE (FPTN=WRITE_LO,DCB=M$LO,VFC=YES);
PL6.E3A0      #003=LIST File=ZIG$DDX4.:ZIC0TSI                                   FRI 09/05/97 11:52 Page:39
      172      143        %EJECT;
PL6.E3A0      #003=LIST File=ZIG$DDX4.:ZIC0TSI                                   FRI 09/05/97 11:52 Page:40
      173      144    1       IF TOPSW = 0 THEN

    144  3 000002   000000 235000 xsym               LDA     TOPSW
         3 000003   000010 601000 3                  TNZ     s:149

      174      145    2       DO;

      175      146    2           CALL ABORT;

    146  3 000004   000000 631400 4                  EPPR1   0
         3 000005   000000 701000 xent               TSX1    ABORT
         3 000006   000000 011000                    NOP     0

      176      147    2           RETURN;

    147  3 000007   000000 702200 xent               TSX2  ! X66_ARET

      177      148    2           END;
      178      149    1       IF LNCNT >= NLINES THEN

    149  3 000010   000000 236000 xsym               LDQ     LNCNT
         3 000011   000000 116000 xsym               CMPQ    NLINES
         3 000012   000063 602000 3                  TNC     s:164

      179      150    2       DO;

      180      151    2           PGNO = PGNO + 1;

    151  3 000013   000000 235000 xsym               LDA     PGNO
         3 000014   000001 035007                    ADLA    1,DL
         3 000015   000000 755000 xsym               STA     PGNO

      181      152    2           CALL BINCHAR (TTLN.PGNO,PGNO);

    152  3 000016   000044 773000                    LRL     36
         3 000017   200004 757100                    STAQ    @INBUF+1,,AUTO
         3 000020   000000 301500                    BTD
PL6.E3A0      #003=LIST File=ZIG$DDX4.:ZIC0TSI                                   FRI 09/05/97 11:52 Page:41
         3 000021   200004 000010                    NDSC9   @INBUF+1,,AUTO           cn=0,s=lsgnf,sf=0,n=8
         3 000022   000022 430006 xsym               NDSC9   TTLN+18                  cn=2,s=nosgn,sf=0,n=6

      182      153    2           WRITE_LO.BUF_.BOUND = SIZEV(TTLN);

    153  3 000023   000046 236000 0                  LDQ     WRITE_LO+4
         3 000024   177777 376007                    ANQ     65535,DL
         3 000025   000001 276000 4                  ORQ     1
         3 000026   000046 756000 0                  STQ     WRITE_LO+4

      183      154    2           WRITE_LO.BUF_.BUF$ = ADDR (TTLN);

    154  3 000027   000002 236000 4                  LDQ     2
         3 000030   000047 756000 0                  STQ     WRITE_LO+5

      184      155    2           CALL M$WRITE (WRITE_LO) ALTRET (ERR);

    155  3 000031   000042 630400 0                  EPPR0   WRITE_LO
         3 000032   440001 713400                    CLIMB   alt,write
         3 000033   401400 401760                    pmme    nvectors=4
         3 000034   000105 702000 3                  TSX2    ERR

      185      156    2           WRITE_LO.BUF_.BOUND = SIZEV(SUBHED);

    156  3 000035   000046 236000 0                  LDQ     WRITE_LO+4
         3 000036   177777 376007                    ANQ     65535,DL
         3 000037   000003 276000 4                  ORQ     3
         3 000040   000046 756000 0                  STQ     WRITE_LO+4

      186      157    2           WRITE_LO.BUF_.BUF$ = ADDR (SUBHED);

    157  3 000041   000004 236000 4                  LDQ     4
         3 000042   000047 756000 0                  STQ     WRITE_LO+5

      187      158    2           CALL M$WRITE (WRITE_LO) ALTRET (ERR);

    158  3 000043   000042 630400 0                  EPPR0   WRITE_LO
PL6.E3A0      #003=LIST File=ZIG$DDX4.:ZIC0TSI                                   FRI 09/05/97 11:52 Page:42
         3 000044   440001 713400                    CLIMB   alt,write
         3 000045   401400 401760                    pmme    nvectors=4
         3 000046   000105 702000 3                  TSX2    ERR

      188      159    2           WRITE_LO.BUF_.BOUND = SIZEV (BLANK_LINE);

    159  3 000047   000046 236000 0                  LDQ     WRITE_LO+4
         3 000050   177777 376007                    ANQ     65535,DL
         3 000051   600000 276007                    ORQ     -65536,DL
         3 000052   000046 756000 0                  STQ     WRITE_LO+4

      189      160    2           WRITE_LO.BUF_.BUF$ = ADDR (BLANK_LINE);

    160  3 000053   000005 236000 4                  LDQ     5
         3 000054   000047 756000 0                  STQ     WRITE_LO+5

      190      161    2           CALL M$WRITE(WRITE_LO) ALTRET (ERR);

    161  3 000055   000042 630400 0                  EPPR0   WRITE_LO
         3 000056   440001 713400                    CLIMB   alt,write
         3 000057   401400 401760                    pmme    nvectors=4
         3 000060   000105 702000 3                  TSX2    ERR

      191      162    2           LNCNT = 5;

    162  3 000061   000005 235007                    LDA     5,DL
         3 000062   000000 755000 xsym               STA     LNCNT

      192      163    2           END;

      193      164    1       LINE.CONTENT = INBUF;

    164  3 000063   200003 470500                    LDP0    @INBUF,,AUTO
         3 000064   040000 100500                    MLR     fill='040'O
         3 000065   000000 000200                    ADSC9   0,,PR0                   cn=0,n=128
         3 000066   000000 200200 0                  ADSC9   LINE                     cn=1,n=128

PL6.E3A0      #003=LIST File=ZIG$DDX4.:ZIC0TSI                                   FRI 09/05/97 11:52 Page:43
      194      165    1       WRITE_LO.BUF_.BOUND = SIZEV(LINE);

    165  3 000067   000046 236000 0                  LDQ     WRITE_LO+4
         3 000070   177777 376007                    ANQ     65535,DL
         3 000071   000006 276000 4                  ORQ     6
         3 000072   000046 756000 0                  STQ     WRITE_LO+4

      195      166    1       WRITE_LO.BUF_.BUF$ = ADDR (LINE);

    166  3 000073   000007 236000 4                  LDQ     7
         3 000074   000047 756000 0                  STQ     WRITE_LO+5

      196      167    1       CALL M$WRITE (WRITE_LO) ALTRET (ERR);

    167  3 000075   000042 630400 0                  EPPR0   WRITE_LO
         3 000076   440001 713400                    CLIMB   alt,write
         3 000077   401400 401760                    pmme    nvectors=4
         3 000100   000105 702000 3                  TSX2    ERR

      197      168    1       LNCNT = LNCNT + 1;

    168  3 000101   000000 235000 xsym               LDA     LNCNT
         3 000102   000001 035007                    ADLA    1,DL
         3 000103   000000 755000 xsym               STA     LNCNT

      198      169    1       RETURN;

    169  3 000104   000000 702200 xent               TSX2  ! X66_ARET

      199      170    1   ERR:
      200      171    1       RETURN;

    171  3 000105   000000 702200 xent  ERR          TSX2  ! X66_ARET

LINE
 Sect OctLoc
   0     000   101*** ******   ****** ******   ****** ******   ****** ******    A...............
PL6.E3A0      #003=LIST File=ZIG$DDX4.:ZIC0TSI                                   FRI 09/05/97 11:52 Page:44
   0     040*  ***040 040040                                                    .

WRITE_LO
 Sect OctLoc
   0     042   000003 777640   000052 006000   000000 177640   000000 006014    .....*..........
   0     046   000000 177640   000000 006014   000000 177640   000000 006014    ................
   0     052   000000 400400   000000 000000   000000 000000   100000 000000    ............@...

(unnamed)
 Sect OctLoc
   4     000   000000 000000   000023 600000   000000 006000   000020 600000    ................
   4     004   000000 006000   000000 006000   000040 600000   000000 006000    ......... ......
      201      172    1   END;
      202      173        %EOD;

PL6.E3A0      #003=LIST File=ZIG$DDX4.:ZIC0TSI                                   FRI 09/05/97 11:52 Page:45
--  Include file information  --

   CP_6.:LIB_E05  cannot be made into a system file and is referenced.
   B$JIT_C.:E05TOU  was found in the system file and is never referenced.
   CP_6_C.:E05TOU  was found in the system file and is referenced.
      No diagnostics issued in procedure LIST.

   Procedure LIST requires 70 words for executable code.
   Procedure LIST requires 6 words of local(AUTO) storage.
PL6.E3A0      #003=LIST File=ZIG$DDX4.:ZIC0TSI                                   FRI 09/05/97 11:52 Page:46
          *** CROSS REFERENCE LISTING ***
**     DENOTES     IDENTIFIER DEFINITION
<<                 IDENTIFIER'S VALUE SET
>>                 IDENTIFIER'S VALUE USED
<>                 IDENTIFIER SET AND/OR USED
--                 IDENTIFIER REFERENCED
PL6.E3A0      #003=LIST File=ZIG$DDX4.:ZIC0TSI                                   FRI 09/05/97 11:52 Page:47
          MINI XREF LISTING

ABORT
        29**DCL-ENT   146--CALL
BLANK_LINE
        15**DCL       159--ASSIGN    160--ASSIGN
ERR
       171**LABEL     155--CALLALT   158--CALLALT   161--CALLALT   167--CALLALT
INBUF
         8**DCL         6--PROC      164>>ASSIGN
LINE
        25**DCL       165--ASSIGN    166--ASSIGN
LINE.CONTENT
        27**DCL       164<<ASSIGN
LNCNT
        11**DCL       149>>IF        162<<ASSIGN    168<<ASSIGN    168>>ASSIGN
M$WRITE
        41**DCL-ENT   155--CALL      158--CALL      161--CALL      167--CALL
NLINES
        13**DCL       149>>IF
PGNO
         9**DCL       151<<ASSIGN    151>>ASSIGN    152>>CALLBLT
SUBHED
        14**DCL       156--ASSIGN    157--ASSIGN
TOPSW
        12**DCL       144>>IF
TTLN
        16**DCL       153--ASSIGN    154--ASSIGN
TTLN.PGNO
        24**DCL       152<<CALLBLT
WRITE_LO
       129**DCL       155<>CALL      158<>CALL      161<>CALL      167<>CALL
WRITE_LO.BUF_.BOUND
       129**DCL       153<<ASSIGN    156<<ASSIGN    159<<ASSIGN    165<<ASSIGN
PL6.E3A0      #003=LIST File=ZIG$DDX4.:ZIC0TSI                                   FRI 09/05/97 11:52 Page:48
WRITE_LO.BUF_.BUF$
       131**DCL       154<<ASSIGN    157<<ASSIGN    160<<ASSIGN    166<<ASSIGN
WRITE_LO.STATION_
       131**DCL       131--REDEF
WRITE_LO.V
       132**DCL       129--DCLINIT
WRITE_LO.V.DVBYTE.VFC#
       138**DCL       138--REDEF

PL6.E3A0      #004=CLOSEL File=ZIG$DDX4.:ZIC0TSI                                 FRI 09/05/97 11:52 Page:49
      203        1        /*M*         CLOSEL IDS/II DBACS CLOSE PRINTER OUTPUT FILE 790401 */
      204        2        /*T***********************************************************/
      205        3        /*T*                                                         */
      206        4        /*T* Copyright (c) Bull HN Information Systems Inc., 1997    */
      207        5        /*T*                                                         */
      208        6        /*T***********************************************************/
      209        7        /*P*
      210        8        NAME:        CLOSEL
      211        9        PURPOSE:     CLOSE THE PRINT FILE.
      212       10        ARGUMENTS:   NONE.
      213       11        CALLING PROGRAMS:
      214       12                     MAIN FUNCTION        CALLING MODULES
      215       13                     -------------        ---------------
      216       14                     XROOT                DDE5,DDX1
      217       15        */
      218       16        CLOSEL: PROC;
      219       17    1   DCL PROPN UBIN (36) SYMREF;
      220       18    1   DCL M$LO DCB;
      221       19    1   DCL M$SO DCB;
      222       20        %INCLUDE CP_6;
      223      101        %FPT_CLOSE (FPTN = CLOSE_LO,DCB = M$LO,DISP=SAVE);
      224      143    1       IF PROPN = 0 THEN RETURN;
      225      144    1       CALL M$CLOSE (CLOSE_LO) ALTRET (ERR1);
      226      145    1   ERR1: PROPN = 0;
      227      146    1       CLOSE_LO.V.DCB#=DCBNUM(M$SO);
      228      147    1       CALL M$CLOSE (CLOSE_LO) ALTRET (RET);
      229      148    1   RET: RETURN;
      230      149    1   END;

PL6.E3A0      #004=CLOSEL File=ZIG$DDX4.:ZIC0TSI                                 FRI 09/05/97 11:52 Page:50
--  Include file information  --

   CP_6.:LIB_E05  cannot be made into a system file and is referenced.
   B$JIT_C.:E05TOU  was found in the system file and is never referenced.
   CP_6_C.:E05TOU  was found in the system file and is referenced.
      No diagnostics issued in procedure CLOSEL.

   Procedure CLOSEL requires 18 words for executable code.
   Procedure CLOSEL requires 4 words of local(AUTO) storage.

    No errors detected in file ZIG$DDX4.:ZIC0TSI    .

PL6.E3A0      #004=CLOSEL File=ZIG$DDX4.:ZIC0TSI                                 FRI 09/05/97 11:52 Page:51

 Object Unit name= CLOSEL                                     File name= ZIG$DDX4.:ZIC0TOU
 UTS= SEP 05 '97 11:52:32.68 FRI                              Compiler= PL-6/E31         Sev=      00
 SharedLib= :SHARED_SYSTEM                                    Alt SharedLib=


    ****  Control sections  ****

 Sect   Type Bound  Init  Size OctSiz  Section name(segment info)
    0   DCB   even  none     0      0  M$LO
    1   DCB   even  none     0      0  M$SO
    2   DCB   even  none     0      0  M$UC
    3   Data  even  none    30     36  CLOSEL
    4   Proc  even  none    18     22  CLOSEL

    ****  Entry defs  ****

                              Check   Calling
                             calling  sequence
  Sect OctLoc Primary Altret sequence   type   Parms  Name
     4      0   yes            yes      Std        0  CLOSEL

  ****  Entry refs  ****

         Check        Calling
        calling       sequence
Altret sequence SRef   type   Args  Name
                       nStd      0 X66_AUTO_0
                       nStd      0 X66_ARET

  ****  Data refs  ****

  Flags:  r = read only, s = secondary
Flgs Name                             Flgs Name                             Flgs Name
     PROPN                                 M$LO                                  M$SO
     M$UC
PL6.E3A0      #004=CLOSEL File=ZIG$DDX4.:ZIC0TSI                                 FRI 09/05/97 11:52 Page:52

  ****  Segment refs  ****

  Flags:  r = read only, s = secondary
Flgs Name                             Flgs Name                             Flgs Name
     ISSID                                 NULLSID
PL6.E3A0      #004=CLOSEL File=ZIG$DDX4.:ZIC0TSI                                 FRI 09/05/97 11:52 Page:53


      203        1        /*M*         CLOSEL IDS/II DBACS CLOSE PRINTER OUTPUT FILE 790401 */
      204        2        /*T***********************************************************/
      205        3        /*T*                                                         */
      206        4        /*T* Copyright (c) Bull HN Information Systems Inc., 1997    */
      207        5        /*T*                                                         */
      208        6        /*T***********************************************************/
      209        7        /*P*
      210        8        NAME:        CLOSEL
      211        9        PURPOSE:     CLOSE THE PRINT FILE.
      212       10        ARGUMENTS:   NONE.
      213       11        CALLING PROGRAMS:
      214       12                     MAIN FUNCTION        CALLING MODULES
      215       13                     -------------        ---------------
      216       14                     XROOT                DDE5,DDX1
      217       15        */
      218       16        CLOSEL: PROC;

     16  4 000000   000000 700200 xent  CLOSEL       TSX0  ! X66_AUTO_0
         4 000001   000004 000000                    ZERO    4,0

      219       17    1   DCL PROPN UBIN (36) SYMREF;
      220       18    1   DCL M$LO DCB;
      221       19    1   DCL M$SO DCB;
      222       20        %INCLUDE CP_6;
      223      101        %FPT_CLOSE (FPTN = CLOSE_LO,DCB = M$LO,DISP=SAVE);
      224      143    1       IF PROPN = 0 THEN RETURN;

    143  4 000002   000000 235000 xsym               LDA     PROPN
         4 000003   000005 601000 4                  TNZ     s:144

    143  4 000004   000000 702200 xent               TSX2  ! X66_ARET

      225      144    1       CALL M$CLOSE (CLOSE_LO) ALTRET (ERR1);

    144  4 000005   000000 630400 3                  EPPR0   CLOSE_LO
         4 000006   450001 713400                    CLIMB   alt,close
PL6.E3A0      #004=CLOSEL File=ZIG$DDX4.:ZIC0TSI                                 FRI 09/05/97 11:52 Page:54
         4 000007   406000 401760                    pmme    nvectors=13
         4 000010   000011 702000 4                  TSX2    ERR1

      226      145    1   ERR1: PROPN = 0;

    145  4 000011   000000 450000 xsym  ERR1         STZ     PROPN

      227      146    1       CLOSE_LO.V.DCB#=DCBNUM(M$SO);

    146  4 000012   000000 236007 xsym               LDQ     M$SO,DL
         4 000013   000000 620006                    EAX0    0,QL
         4 000014   000032 740000 3                  STX0    CLOSE_LO+26

      228      147    1       CALL M$CLOSE (CLOSE_LO) ALTRET (RET);

    147  4 000015   000000 630400 3                  EPPR0   CLOSE_LO
         4 000016   450001 713400                    CLIMB   alt,close
         4 000017   406000 401760                    pmme    nvectors=13
         4 000020   000021 702000 4                  TSX2    RET

      229      148    1   RET: RETURN;

    148  4 000021   000000 702200 xent  RET          TSX2  ! X66_ARET

CLOSE_LO
 Sect OctLoc
   3     000   000003 777640   000032 006000   000000 177640   000000 006014    ................
   3     004   000000 177640   000000 006014   000000 177640   000000 006014    ................
   3     030*  000000 177640   000000 006014   000000 000002   000000 000040    ...............
   3     034   000220 000000   000000 000000                                    ........
      230      149    1   END;

PL6.E3A0      #004=CLOSEL File=ZIG$DDX4.:ZIC0TSI                                 FRI 09/05/97 11:52 Page:55
--  Include file information  --

   CP_6.:LIB_E05  cannot be made into a system file and is referenced.
   B$JIT_C.:E05TOU  was found in the system file and is never referenced.
   CP_6_C.:E05TOU  was found in the system file and is referenced.
      No diagnostics issued in procedure CLOSEL.

   Procedure CLOSEL requires 18 words for executable code.
   Procedure CLOSEL requires 4 words of local(AUTO) storage.

    No errors detected in file ZIG$DDX4.:ZIC0TSI    .
PL6.E3A0      #004=CLOSEL File=ZIG$DDX4.:ZIC0TSI                                 FRI 09/05/97 11:52 Page:56
          *** CROSS REFERENCE LISTING ***
**     DENOTES     IDENTIFIER DEFINITION
<<                 IDENTIFIER'S VALUE SET
>>                 IDENTIFIER'S VALUE USED
<>                 IDENTIFIER SET AND/OR USED
--                 IDENTIFIER REFERENCED
PL6.E3A0      #004=CLOSEL File=ZIG$DDX4.:ZIC0TSI                                 FRI 09/05/97 11:52 Page:57
          MINI XREF LISTING

CLOSE_LO
       124**DCL       144<>CALL      147<>CALL
CLOSE_LO.SN_
       124**DCL       124--REDEF
CLOSE_LO.UTL_
       125**DCL       125--REDEF
CLOSE_LO.V
       129**DCL       124--DCLINIT
CLOSE_LO.V.DCB#
       130**DCL       146<<ASSIGN
CLOSE_LO.V.EXPIRE#
       139**DCL       139--REDEF
CLOSE_LO.V.TYPE#
       137**DCL       137--REDEF
CLOSE_LO.V.XTNSIZE#
       134**DCL       134--REDEF     136--REDEF
ERR1
       145**LABEL     144--CALLALT
M$CLOSE
        29**DCL-ENT   144--CALL      147--CALL
M$SO
        19**DCL       146>>ASSIGN
PROPN
        17**DCL       143>>IF        145<<ASSIGN
RET
       148**LABEL     147--CALLALT
