
PL6.E3A0      #001=DISP File=ZIG$DDX7.:ZIC0TSI                                   FRI 09/05/97 11:53 Page:1
        1        1        /*M* ZIG$DDX7         I-D-S/II            DBACS    */
        2        2        /*T***********************************************************/
        3        3        /*T*                                                         */
        4        4        /*T* Copyright (c) Bull HN Information Systems Inc., 1997    */
        5        5        /*T*                                                         */
        6        6        /*T***********************************************************/
        7        7        DISP:
        8        8            PROC;
        9        9    1   DCL RECORD_POINTER PTR EXT;
       10       10    1   DCL RECORD_SIZE UBIN (36) EXT;
       11       11    1   DCL FILE_CODE CHAR(2) EXT;
       12       12    1   DCL Y(0:71) CHAR(1) BASED (RECORD_POINTER);
       13       13    1   DCL COL SBIN;
       14       14    1   DCL BIT36 BIT(36) BASED;
       15       15    1   DCL 01 BIT36_RDEF,
       16       16    1         02 B0 BIT(1),
       17       17    1         02 B1 BIT(1),
       18       18    1         02 B2_35 BIT(34);
       19       19    1   DCL PP PTR;
       20       20    1   DCL MSK_18B(0:5) BIT(18) BASED;
       21       21    1   DCL X SBIN STATIC INIT(0);
       22       22    1   DCL UNSC ENTRY(2);
       23       23    1   DCL LKV CHAR(12);
       24       24    1   DCL FUNCMESS(0:9) CHAR(30) STATIC INIT(
       25       25    1    'UNSUCCESSFUL DMCL TRANSLATION',
       26       26    1    'SCHEMA DDL TRANSLATION',
       27       27    1    'SCHEMA DMCL TRANSLATION',
       28       28    1    'SUBSCHEMA VALIDATION',
       29       29    1    'LOCKS PROCESSOR',
       30       30    1    'DISPLAY PROCESSOR',
       31       31    1    'DICTIONARY PROCESSOR',
       32       32    1    'PURGE PROCESSOR',
       33       33    1    'RESTRUCTURING PROCESSOR',
       34       34    1    'SUBSCHEMA GENERATOR'
       35       35    1    );
       36       36    1   DCL 01 TEXT BASED(BLKPTR),
       37       37    1         02 LINE_NO SBIN WORD,
PL6.E3A0      #001=DISP File=ZIG$DDX7.:ZIC0TSI                                   FRI 09/05/97 11:53 Page:2
       38       38    1         02 WD(0:1) SBIN WORD,
       39       39    1         02 TYPE SBIN WORD,
       40       40    1         02 FILL2 SBIN WORD,
       41       41    1         02 CNT SBIN WORD,
       42       42    1         02 BUFF CHAR(128);
       43       43    1   DCL RECNO2 UBIN WORD;
       44       44    1   DCL BP SBIN WORD;
       45       45    1   DCL 01 EOF_REC BASED(BLKPTR),
       46       46    1         02 EOF_WD CHAR(12);
       47       47    1   DCL L1 CHAR(0) STATIC
       48       48    1    INIT('** PROGRAM SHOULD BE RECOMPILED-SUBSCHEMA WAS CHANGED SINCE LAST COMPILATION'
                48             );
       49       49    1   DCL FN SBIN STATIC INIT(0);
       50       50    1   DCL LC SBIN STATIC INIT(2);
       51       51    1   DCL C1 CHAR(9);
       52       52    1   DCL H1 CHAR(128) STATIC
       53       53    1   INIT('                 PROGRAM ID                              COMPILATION DATE
                53          TIME');
       54       54    1   DCL ATIME CHAR(6);
       55       55    1   DCL FLAG CHAR(2);
       56       56    1   DCL 01 ASCI_DATE(0:1),
       57       57    1         02 MO CHAR(2),
       58       58    1         02 DAY CHAR(2),
       59       59    1         02 YR CHAR(2);
       60       60    1   DCL READ64 ENTRY(2);
       61       61    1   DCL BLKPTR PTR;
       62       62    1   DCL BUFFPTR PTR;
       63       63    1   DCL 01 CBLKNO,
       64       64    1         02 BLK BIT(35),
       65       65    1         02 REC2 BIT(1);
       66       66    1   DCL B1 REDEF CBLKNO BIT(36);
       67       67    1   DCL TS CHAR(12);
       68       68        %INCLUDE ZIG_DBA_INT;
       69      116        %INCLUDE ZI_SUB_LANG;
       70     1831        %CONTROL_BLOCK;
       71     1939        %INCLUDE ZIG_DIR_STRUCS;
       72     2069        %INCLUDE ZIA_IDS_DCL;
PL6.E3A0      #001=DISP File=ZIG$DDX7.:ZIC0TSI                                   FRI 09/05/97 11:53 Page:3
       73     2177        %INCLUDE ZI_ERRORS_SUBS;
       74     2697        %INCLUDE ZI_SUB4_CAN;
       75     3354        %INCLUDE ZIG_GENERAL;
       76     3462        %UWA;
       77     3797    1   DCL LINE ALIGNED CHAR(128);
       78     3798    1   DCL LK3 SBIN HALF;
       79     3799    1   DCL LN SBIN STATIC INIT(0);
       80     3800    1   DCL SSSNAME CHAR(30) STATIC;
       81     3801    1   DCL LANG_LEN UBIN HALF;
       82     3802    1   DCL LANG CHAR(LANG_LEN) BASED(LANG$);
       83     3803    1   DCL LANG$ PTR;
       84     3804    1   DCL C32 CHAR(32);
       85     3805    1   DCL CLN CHAR(5);
       86     3806    1   DCL DDL SBIN STATIC INIT(3) ALIGNED;
       87     3807    1   DCL DMCL SBIN STATIC INIT(4) ALIGNED;
       88     3808    1   DCL LNGTH SBIN STATIC INIT(80);
       89     3809    1   DCL TLINE CHAR(80) STATIC INIT(' ');
       90     3810    1   DCL C16 CHAR(16) STATIC ALIGNED;
       91     3811    1   DCL C64 CHAR(64);
       92     3812    1   DCL OL CHAR(128);
       93     3813    1   DCL 01 OL_RDEF REDEF OL,
       94     3814    1         02 C67 CHAR(67),
       95     3815    1         02 C61 CHAR(61);
       96     3816    1   DCL FRST_TIME BIT(1) STATIC INIT('1'B);
       97     3817    1   DCL ZIG$DECOMP ENTRY (3);
       98     3818    1   DCL ZIG$V_DESC ENTRY;
       99     3819    1   DCL DONE UBIN WORD;
      100     3820    1   DCL DATE_ CHAR(10);
      101     3821    1   DCL TIME_ CHAR(11);
      102     3822    1   DCL DAY_ CHAR(3);
      103     3823    1   DCL UN_TIME ENTRY (4);
      104     3824        /******************************************************************/
      105     3825        /*  TEMP VARIABLES FOR DATE STRINGS USED FOR YEAR 2000 CHANGES    */
      106     3826        /******************************************************************/
      107     3827    1   DCL DT1_R CHAR (7) AUTO UNAL; /* 7-CHAR. DATE -> CYYMMDD, C=CENT. */
      108     3828    1   DCL 1 DT1 REDEF DT1_R, /* TEMP STORAGE FOR FROM DATE YYMMDD */
      109     3829    1         2 CEN CHAR (1), /* CENTURY INDICATOR */
PL6.E3A0      #001=DISP File=ZIG$DDX7.:ZIC0TSI                                   FRI 09/05/97 11:53 Page:4
      110     3830    1         2 DT_R CHAR(6), /* YYMMDD DATE */
      111     3831    1         2 DT REDEF DT_R, /* YYMMDD DATE */
      112     3832    1           3 YR CHAR (2), /* YEAR */
      113     3833    1           3 * CHAR (4); /* MMDD */
      114     3834
      115     3835    1   DCL DT2_R CHAR (7) AUTO UNAL; /* 7-CHAR. DATE -> CYYMMDD, C=CENT. */
      116     3836    1   DCL 1 DT2 REDEF DT2_R, /* TEMP STORAGE FOR THRU DATE YYMMDD */
      117     3837    1         2 CEN CHAR (1), /* CENTURY INDICATOR */
      118     3838    1         2 DT_R CHAR(6), /* YYMMDD DATE */
      119     3839    1         2 DT REDEF DT_R, /* YYMMDD DATE */
      120     3840    1           3 YR CHAR (2), /* YEAR */
      121     3841    1           3 * CHAR (4); /* MMDD */
      122     3842
      123     3843    1   DCL DT3_R CHAR (7) AUTO UNAL; /* 7-CHAR. DATE -> CYYMMDD, C=CENT. */
      124     3844    1   DCL 1 DT3 REDEF DT3_R, /* TEMP STORAGE FOR CURRENT DATE YYMMDD */
      125     3845    1         2 CEN CHAR (1), /* CENTURY INDICATOR */
      126     3846    1         2 DT_R CHAR(6), /* YYMMDD DATE */
      127     3847    1         2 DT REDEF DT_R, /* YYMMDD DATE */
      128     3848    1           3 YR CHAR (2), /* YEAR */
      129     3849    1           3 * CHAR (4); /* MMDD */
      130     3850        /******************************************************************/
      131     3851    1       LANG$ = ADDR(C32);
      132     3852    1       C64 = 'DISPLAY PROCESSOR';
      133     3853    1       CALL SUBLST(C64);
      134     3854         /* Ready data base */
      135     3855         /* Get sf */
      136     3856    1       CALL FETCHD_6('SF  ', 2) ALTRET(DBCSERR);
      137     3857        /* Get da                                                             */
      138     3858    1       CALL FETCHD_6('DA  ', UWA.SF.DBKEY_DA) ALTRET( DBCSERR);
      139     3859        /* Get sn element                                                     */
      140     3860    1       UWA.SN.SETYPE = 0;
      141     3861    2       DO WHILE(UWA.SN.SETYPE ~= 10);
      142     3862    2           CALL FETCHNS_6('DA-SN   ') ALTRET(DBCSERR);
      143     3863    2           END;
      144     3864    1       IF DISPS.SNAME ~= ' ' THEN /* */
      145     3865    1           IF UWA.SN.SENAME ~= DISPS.SNAME THEN /* */
      146     3866    2           DO;
PL6.E3A0      #001=DISP File=ZIG$DDX7.:ZIC0TSI                                   FRI 09/05/97 11:53 Page:5
      147     3867    2               CALL CONCAT(OL,DISPS.SNAME,' IS NOT NAME OF ASSIGNED SCHEMA FILE');
      148     3868    2               CALL LIST(OL);
      149     3869    2               RETURN;
      150     3870    2               END;
      151     3871    1       IF DISPS.SCHEMA_DISP THEN /* */
      152     3872    2       DO;
      153     3873         /* Record display function attempted on schema file*/
      154     3874    2           UWA.A_D.AD_FUNCTION = 5;
      155     3875    2           CALL GET_TIME(UWA.A_D.AD_DATE);
      156     3876    2           UWA.A_D.AD_IDENT = ' ';
      157     3877    2           X = 54;
      158     3878    2           ADDR(PP) -> MSK_18B(1) = ADDR(X) -> MSK_18B(2);
      159     3879    2           CALL STRE_6('A-D ') ALTRET(DBCSERR);
      160     3880    2           END;
      161     3881    1       X = 0;
      162     3882        /* Get lk element                                                     */
      163     3883        /* Mark lock on disps not found                                       */
      164     3884    1       LK3 = 0;
      165     3885    2       DO WHILE(DISPS.DISP_KEY ~= LKV);
      166     3886    2           CALL FETCHNS_6('SN-LT   ') ALTRET(L3);
      167     3887    2           BIT36_RDEF = ADDR(UWA.LT.PLOCKS) -> BIT36;
      168     3888    2           IF BIT36_RDEF.B1 = '1'B THEN /* */
      169     3889    3           DO;
      170     3890        /* There is a lock for display                                        */
      171     3891    3               LK3 = 1;
      172     3892        /* Get lk element                                                     */
      173     3893    3               CALL FETCHOS_6('LK-LT   ') ALTRET(DBCSERR);
      174     3894    3               IF UWA.LK.PLVALUE = '"NULL"' THEN /* */
      175     3895    3                   GOTO B2;
      176     3896    3               ELSE /* */
      177     3897    3                   CALL UNSC(UWA.LK.PLVALUE,LKV);
      178     3898    3               END;
      179     3899    2           END;
      180     3900    1   B2:
      181     3901    1       IF DISPS.SCHEMA_DISP THEN /* */
      182     3902    2       DO;
      183     3903         /* Get sa */
PL6.E3A0      #001=DISP File=ZIG$DDX7.:ZIC0TSI                                   FRI 09/05/97 11:53 Page:6
      184     3904    2           CALL FETCHD_6('SA  ', UWA.SF.DBKEY_SA) ALTRET(DBCSERR);
      185     3905    2           IF DISPS.SDISP_TYPES.DDL = '1'B THEN /* */
      186     3906    3           DO;
      187     3907    3               IF UWA.SA.NUMB_DD = 0 THEN /* */
      188     3908    4               DO;
      189     3909    4                   OL = 'SCHEMA DDL NOT RECORDED ON SCHEMA FILE';
      190     3910    4                   CALL LIST(OL);
      191     3911    4                   GOTO CKDMCL;
      192     3912    4                   END;
      193     3913        /* *                                                                  */
      194     3914    3               FRST_TIME = '0'B;
      195     3915    3               OL = ' ';
      196     3916    3               CALL LIST( OL);
      197     3917    3               OL = 'SCHEMA DDL TEXT LISTING***';
      198     3918    3               CALL LIST(OL);
      199     3919    3               OL = ' ';
      200     3920    3               CALL LIST(OL);
      201     3921    3               CALL ZIG$DECOMP(TLINE,'SA-DD   ',DONE);
      202     3922    4               DO WHILE (DONE=0);
      203     3923         /* Get dd */
      204     3924    4                   LN = LN + 1;
      205     3925    4                   CALL BINCHAR(CLN,LN);
      206     3926    5                   DO X = 0 TO 4;
      207     3927    5                       IF SUBSTR(CLN,X,1) = '0'
      208     3928    5                       THEN CALL INSERT(CLN,X,1,' ');
      209     3929    5                       ELSE X = 5;
      210     3930    5                       END;
      211     3931    4                   CALL CONCAT(OL,CLN,'     ',TLINE);
      212     3932    4                   CALL LIST(OL);
      213     3933    4                   CALL WRITE_USER_FILE;
      214     3934    4                   CALL ZIG$DECOMP(TLINE,'SA-DD   ',DONE);
      215     3935    4                   END;
      216     3936    3   L10:
      217     3937    3               IF UWA.DB_STATUS ~= '0000000' THEN /* */
      218     3938    3                   GOTO DBCSERR;
      219     3939    3               END;
      220     3940    2   CKDMCL:
PL6.E3A0      #001=DISP File=ZIG$DDX7.:ZIC0TSI                                   FRI 09/05/97 11:53 Page:7
      221     3941    2           IF DISPS.SDISP_TYPES.DMCL = '1'B THEN /* */
      222     3942    3           DO;
      223     3943    3               IF UWA.SA.NUMB_DM = 0 THEN /* */
      224     3944    4               DO;
      225     3945    4                   OL = 'SCHEMA DMCL NOT RECORDED ON SCHEMA FILE';
      226     3946    4                   CALL LIST(OL);
      227     3947    4                   GOTO CKACTS;
      228     3948    4                   END;
      229     3949    3               OL = '****';
      230     3950    3               IF FRST_TIME THEN FRST_TIME = '0'B;
      231     3951    3               ELSE CALL LIST(OL);
      232     3952    3               OL = ' ';
      233     3953    3               CALL LIST(OL);
      234     3954    3               OL = 'SCHEMA DMCL TEXT LISTING***';
      235     3955    3               CALL LIST(OL);
      236     3956    3               OL = ' ';
      237     3957    3               CALL LIST(OL);
      238     3958    3               CALL ZIG$DECOMP(TLINE,'SA-DM   ',DONE);
      239     3959    3               LN = 0;
      240     3960         /* Get dm */
      241     3961    4               DO WHILE (DONE=0) ;
      242     3962    4                   LN = LN + 1;
      243     3963    4                   CALL BINCHAR(CLN,LN);
      244     3964    5                   DO X = 0 TO 4;
      245     3965    5                       IF SUBSTR(CLN,X,1) = '0'
      246     3966    5                       THEN CALL INSERT(CLN,X,1,' ');
      247     3967    5                       ELSE X = 5;
      248     3968    5                       END;
      249     3969    4                   CALL CONCAT(OL,CLN,'     ',TLINE);
      250     3970    4                   CALL LIST(OL);
      251     3971    4                   CALL WRITE_USER_FILE;
      252     3972    4                   CALL ZIG$DECOMP(TLINE,'SA-DM   ',DONE);
      253     3973    4                   END;
      254     3974    3   L11:
      255     3975    3               IF UWA.DB_STATUS ~= '0000000' THEN /* */
      256     3976    3                   GOTO DBCSERR;
      257     3977    3               END;
PL6.E3A0      #001=DISP File=ZIG$DDX7.:ZIC0TSI                                   FRI 09/05/97 11:53 Page:8
      258     3978    2   CKACTS:
      259     3979    2           IF DISPS.SDISP_TYPES.SACTS THEN /* */
      260     3980    3           DO;
      261     3981    3               OL = '****';
      262     3982    3               IF FRST_TIME THEN /* */
      263     3983    3                   FRST_TIME = '0'B;
      264     3984    3               ELSE /* */
      265     3985    3                   CALL LIST(OL);
      266     3986    3               OL = ' ';
      267     3987    3               CALL LIST(OL);
      268     3988    3               OL = 'SCHEMA ACTIVITIES REPORT***';
      269     3989    3               CALL LIST(OL);
      270     3990    3               OL = ' ';
      271     3991    3               CALL LIST(OL);
      272     3992    3               DT1.DT_R = DISPS.SACTS_FROM_DATE; /* FROM DATE YYMMDD */
      273     3993    3               DT2.DT_R = DISPS.SACTS_THRU_DATE; /* THRU DATE YYMMDD */
      274     3994    3               DT3.DT_R = UWA.A_D.AD_DATE; /*    CURRENT DATE YYMMDD */
      275     3995    3               IF DT1.DT_R = ' ' THEN /* IF FROM DATE IS BLANK SET... */
      276     3996    3                   DT1_R = ' 000000'; /* DATE TO ZERO & CENT. TO SPACE */
      277     3997    3               ELSE IF DT1.DT.YR >= '00' AND DT1.DT.YR < '21' THEN
      278     3998    3                       DT1.CEN = '0';/* ELSE SET CENTURY TO '0' OR ' ' */
      279     3999    3                   ELSE DT1.CEN = ' ';/* DEPENDING IF 19xx OR 20xx */
      280     4000    3               IF DT2.DT_R = ' ' THEN /* IF THRU DATE IS BLANK SET... */
      281     4001    3                   DT2_R = '0191231'; /* DATE TO 0211231 (HIGH VALUES) */
      282     4002    3               ELSE IF DT2.DT.YR >= '00' AND DT2.DT.YR < '21' THEN
      283     4003    3                       DT2.CEN = '0';/* ELSE SET CENTURY TO '0' OR ' ' */
      284     4004    3                   ELSE DT2.CEN = ' ';/* DEPENDING IF 19xx OR 20xx */
      285     4005    3               IF DT3.DT.YR >= '00' AND DT3.DT.YR < '21' THEN
      286     4006    3                   DT3.CEN = '0'; /* SET CENTURY TO '0' OR ' ' */
      287     4007    3               ELSE DT3.CEN = ' ';/* DEPENDING IF 19xx OR 20xx */
      288     4008    3               CALL FETCHNS_6('SF-AD   ') ALTRET(LXX);
      289     4009    4               DO WHILE(UWA.DB_STATUS ~= '0502100');
      290     4010    4                   IF DT3_R >= DT1_R THEN /* CURRENT DATE >= FROM DATE */
      291     4011    4                       IF DT3_R <= DT2_R THEN /* CUR. DATE <=THRU DATE */
      292     4012    5                       DO;
      293     4013    5                           CALL CONCAT(OL,'FUNCTION: ' , FUNCMESS(UWA.A_D.AD_FUNCTION))
              4013                                    ;
PL6.E3A0      #001=DISP File=ZIG$DDX7.:ZIC0TSI                                   FRI 09/05/97 11:53 Page:9
      294     4014    5                           CALL LIST(OL);
      295     4015    5                           CALL CONCAT(OL,'DATE:     ',SUBSTR(UWA.A_D.AD_DATE,0,6));
      296     4016    5                           CALL LIST(OL);
      297     4017    5    CALL CONCAT(OL,'TIME:     ',SUBSTR(UWA.A_D.AD_DATE,6,2),':',SUBSTR(UWA.A_D.AD_DATE,
              4017             8,2),':',SUBSTR(UWA.A_D.AD_DATE,10,2));
      298     4018    5                           CALL LIST(OL);
      299     4019    5                           CALL CONCAT(OL,'IDENT:    ',UWA.A_D.AD_IDENT);
      300     4020    5                           CALL LIST(OL);
      301     4021    5                           OL = ' ';
      302     4022    5                           CALL LIST(OL);
      303     4023    5                           END;
      304     4024    4                   CALL FETCHNS_6('SF-AD   ') ALTRET(LYY);
      305     4025    4                   END;
      306     4026    3   LXX:
      307     4027    4               IF UWA.DB_STATUS ~= '0502100' THEN DO; /* */
      308     4028    4                   OL = 'NO SCHEMA ACTIVITIES RECORDED';
      309     4029    4                   CALL LIST(OL);
      310     4030    4                   END;
      311     4031    3               ELSE /* */
      312     4032    3   LYY:
      313     4033    3                   IF UWA.DB_STATUS ~= '0502100' THEN /* */
      314     4034    4                   DO;
      315     4035    4                       OL = 'IDS2 ERROR, - ACTIVITIES REPORT SUSPENDED';
      316     4036    4                       CALL LIST(OL);
      317     4037    4                       GOTO DBCSERR;
      318     4038    4                       END;
      319     4039    4                   ELSE DO; /* */
      320     4040    4                       OL = 'END OF SCHEMA ACTIVITIES REPORT';
      321     4041    4                       CALL LIST(OL);
      322     4042    4                       END;
      323     4043    3               END;
      324     4044    2           END;
      325     4045         /* Print major heading */
      326     4046    1   SUB_DISP:
      327     4047    1       IF DISPS.SUBSCHEMA_DISP = '1'B THEN /* */
      328     4048    2       DO;
      329     4049    2           BUFFPTR = ADDR(CONTROL);
PL6.E3A0      #001=DISP File=ZIG$DDX7.:ZIC0TSI                                   FRI 09/05/97 11:53 Page:10
      330     4050         /* / read control segment */
      331     4051    2           CALL READ64(0, BUFFPTR);
      332     4052    2           OL = '****';
      333     4053    2           IF FRST_TIME THEN FRST_TIME = '0'B;
      334     4054    2           ELSE CALL LIST(OL);
      335     4055    2           OL = ' ';
      336     4056    2           CALL LIST(OL);
      337     4057    2           CALL LANGT;
      338     4058    2           CALL CONCAT(OL,LANG,'SUBSCHEMA TEXT LISTING***');
      339     4059    2           OL = ' ';
      340     4060    2           CALL LIST(OL);
      341     4061    2           IF CONTROL.TYPE30 ~= 30 & CONTROL.TYPE100 ~= 100 THEN /* */
      342     4062    3           DO;
      343     4063    3               OL = '6* NOT RECOGNIZED AS SUBSCHEMA FILE';
      344     4064    3               RETURN;
      345     4065    3               END;
      346     4066    2           IF DISPS.SSNAME ~= ' ' THEN /* */
      347     4067    3           DO;
      348     4068    3               SSSNAME = DISPS.SSNAME;
      349     4069    3               CALL INDEX1(X,'_',SSSNAME);
      350     4070    4               DO WHILE(X ~= LENGTHC(SSSNAME));
      351     4071    4                   CALL INSERT(SSSNAME,X,1,'-');
      352     4072    4                   CALL INDEX1(X,'_',SSSNAME);
      353     4073    4                   END;
      354     4074    3               END;
      355     4075         /* check fortran include option bit */
      356     4076    2           IF DISPS.SSDISP_TYPES.FORT_INCL THEN
      357     4077    3           DO;
      358     4078    3               CALL ZIG$V_DESC;
      359     4079    3               DISPS.SSDISP_TYPES.FORT_INCL = '0'B;
      360     4080    3               GOTO FINISH_DISP;
      361     4081    3               END;
      362     4082         /* Print subheading */
      363     4083    2           OL = ' ';
      364     4084    2           CALL LIST(OL);
      365     4085    2           CALL CONCAT(OL,'     SUBSCHEMA NAME IS ',SSSNAME);
      366     4086    2           CALL LIST(OL);
PL6.E3A0      #001=DISP File=ZIG$DDX7.:ZIC0TSI                                   FRI 09/05/97 11:53 Page:11
      367     4087    2           CALL CONCAT(OL,'SCHEMA NAME IS ',DISPS.SNAME);
      368     4088    2           CALL LIST(OL);
      369     4089         /* Print translation status */
      370     4090    2           IF CONTROL.TRANSLATION_STATUS = 1 THEN /* */
      371     4091    2               TS ='UNSUCCESSFUL';
      372     4092    2           ELSE /* */
      373     4093    2               TS = 'SUCCESSFUL';
      374     4094    2           CALL UN_TIME(CONTROL.SUBSCHEMA_UTS,DATE_,DAY_,TIME_);
      375     4095    2           CALL CONCAT(OL_RDEF.C67,'SUBSCHEMA TRANSLATION WAS ',TS,' ON ',DATE_,' AT ',
              4095                    TIME_);
      376     4096    2           OL_RDEF.C61 = ' HRS.';
      377     4097    2           CALL LIST(OL);
      378     4098    2           CALL CONCAT(OL,'LANGUAGE IS ',LANG);
      379     4099    2           CALL LIST(OL);
      380     4100    2           OL = ' ';
      381     4101    2           CALL LIST (OL);
      382     4102         /* Produce listing of subschema text */
      383     4103    2           RECNO2 = CONTROL.FIRST_NF_RECORD ;
      384     4104    2           BP = MOD (RECNO2, 2);
      385     4105    2           RECNO2 = RECNO2/2;
      386     4106    2           CALL READ64(RECNO2 , BUFFPTR);
      387     4107    3           DO WHILE (RECNO2 ~= 0);
      388     4108    3               IF BP ~= 0 THEN /* */
      389     4109    3                   BLKPTR = ADDR(CONTROL.TYPE100) ;
      390     4110    3               ELSE /* */
      391     4111    3                   BLKPTR = BUFFPTR ;
      392     4112    3               IF TEXT.TYPE = 6 THEN /* */
      393     4113         /* Print text */
      394     4114    4               DO;
      395     4115    4                   OL = SUBSTR(TEXT.BUFF, 0, TEXT.CNT - 1);
      396     4116    4                   CALL LIST(OL);
      397     4117    4                   CALL WRITE_USER_FILE;
      398     4118    4                   END;
      399     4119    3               IF EOF_REC.EOF_WD ~= '/*/*/*/*/*/*' THEN /* */
      400     4120    4               DO;
      401     4121    4                   IF BP = 0 THEN /* */
      402     4122    4                       BP = 1 ;
PL6.E3A0      #001=DISP File=ZIG$DDX7.:ZIC0TSI                                   FRI 09/05/97 11:53 Page:12
      403     4123    4                   ELSE /* */
      404     4124    5                   DO ;
      405     4125    5                       RECNO2= RECNO2+ 1;
      406     4126    5                       BP = 0;
      407     4127    5                       CALL READ64(RECNO2 , BUFFPTR);
      408     4128    5                       END;
      409     4129    4                   END;
      410     4130    3               ELSE /* */
      411     4131    4               DO;
      412     4132        /* End of file                                                        */
      413     4133    4                   OL = 'END OF SUBSCHEMA TEXT ';
      414     4134    4                   CALL LIST(OL);
      415     4135    4                   RECNO2 = 0;
      416     4136    4                   END;
      417     4137    3               END;
      418     4138    2           END;
      419     4139    1       RETURN;
      420     4140    1   L3:
      421     4141    1       IF UWA.DB_STATUS ~= '0502100' THEN /* */
      422     4142    1           GOTO DBCSERR;
      423     4143    1       IF LK3 = 0 THEN /* */
      424     4144    1           GOTO B2;
      425     4145    1       CALL CONCAT(OL,'ILLEGAL PRIVACY KEY FOR DISPLAY - ',DISPS.DISP_KEY);
      426     4146    1       CALL LIST(OL);
      427     4147    1       RETURN;
      428     4148    1   DBCSERR: CALL ABORT;
      429     4149    1   LANGT: PROC;
      430     4150    3       DO CASE(CONTROL.LANGUAGE);
      431     4151    3       CASE(1);
      432     4152    3           LANG_LEN = 6;
      433     4153    3           LANG = 'COBOL ';
      434     4154    3       CASE(2);
      435     4155    3           LANG_LEN = 8;
      436     4156    3           LANG = 'FORTRAN ';
      437     4157    3       CASE(3);
      438     4158    3           LANG_LEN = 4;
      439     4159    3           LANG = 'APL ';
PL6.E3A0      #001=DISP File=ZIG$DDX7.:ZIC0TSI                                   FRI 09/05/97 11:53 Page:13
      440     4160    3       CASE(4);
      441     4161    3           LANG_LEN = 6;
      442     4162    3           LANG = 'BASIC ';
      443     4163    3       CASE(ELSE);
      444     4164    3           LANG_LEN = 4;
      445     4165    3           LANG = '****';
      446     4166    3           END;
      447     4167    2       RETURN;
      448     4168    2   END LANGT;
      449     4169    1   WRITE_USER_FILE:
      450     4170    1       PROC;
      451     4171    2       IF DISPS.SUBSCHEMA_DISP
      452     4172    2       THEN RECORD_POINTER = ADDR(TEXT.BUFF);
      453     4173    2       ELSE RECORD_POINTER = ADDR(TLINE);
      454     4174    2       COL = 71;
      455     4175    3       DO WHILE (Y(COL) = ' ');
      456     4176    3           COL = COL - 1;
      457     4177    3           END;
      458     4178    2       RECORD_SIZE = COL + MOD(-COL,6);
      459     4179    2       CALL WRITERECORD_TO_SEQ_FILE;
      460     4180    2   END WRITE_USER_FILE;
      461     4181    1   FINISH_DISP:
      462     4182    1   END DISP;

PL6.E3A0      #001=DISP File=ZIG$DDX7.:ZIC0TSI                                   FRI 09/05/97 11:53 Page:14
--  Include file information  --

   ZIG_GENERAL.:ZIC0TOU  cannot be made into a system file and is referenced.
   ZI_SUB4_CAN.:ZIC0TOU  is referenced.
   ZI_ERRORS_SUBS.:ZIC0TOU  is referenced.
   ZIA_IDS_DCL.:ZIC0TOU  cannot be made into a system file and is referenced.
   ZIG_DIR_STRUCS.:ZIC0TOU  cannot be made into a system file and is referenced.
   ZI_SUB_LANG.:ZIC0TOU  is referenced.
   ZIG_DBA_INT.:ZIC0TOU  cannot be made into a system file and is referenced.
   B$JIT_C.:E05TOU  was found in the system file and is never referenced.
   CP_6_C.:E05TOU  was found in the system file and is never referenced.
      No diagnostics issued in procedure DISP.

   Procedure DISP requires 971 words for executable code.
   Procedure DISP requires 140 words of local(AUTO) storage.

    No errors detected in file ZIG$DDX7.:ZIC0TSI    .

PL6.E3A0      #001=DISP File=ZIG$DDX7.:ZIC0TSI                                   FRI 09/05/97 11:53 Page:15

 Object Unit name= DISP                                       File name= ZIG$DDX7.:ZIC0TOU
 UTS= SEP 05 '97 11:53:04.88 FRI                              Compiler= PL-6/E31         Sev=      00
 SharedLib= :SHARED_SYSTEM                                    Alt SharedLib=


    ****  Control sections  ****

 Sect   Type Bound  Init  Size OctSiz  Section name(segment info)
    0  LblCom even  none     1      1  RECORD_POINTER
    1  LblCom even  none     1      1  RECORD_SIZE
    2  LblCom even  none     1      1  FILE_CODE
    3   Data  even  none   166    246  DISP
    4  LblCom even  none    64    100  CONTROL
    5  LblCom even  none    12     14  ANALS
    6  LblCom even  none    13     15  PURGE
    7  LblCom even  none    19     23  DICTS
    8  LblCom even  none    23     27  DISPS
    9  LblCom even  none    22     26  VALIDS
   10  LblCom even  none    12     14  LOCKS
   11  LblCom even  none    10     12  STRAN
   12  LblCom even  none    12     14  DTRAN
   13  LblCom even  none    16     20  SSTRANS
   14  LblCom even  none    20     24  SSGEN
   15  LblCom even  none     1      1  NUM_ERROR_MSG
   16  LblCom even  none     1      1  NUM_WARN_MSG
   17  LblCom even  none     1      1  ALLOCATE_END
   18  LblCom even  none     2      2  SUBSCHEMA_KEY
   19  LblCom even  none     1      1  BUFFER$
   20  LblCom even  none     1      1  ERROR_IO
   21  LblCom even  none     1      1  BUFFER_LEN
   22  LblCom even  none     2      2  UWA_KEY
   23  LblCom even  none     1      1  NEXT_UWA_SECOND_HALF
   24  LblCom even  none     2      2  RVA_KEY
   25  LblCom even  none     2      2  IA__KEY
   26  LblCom even  none     1      1  NEXT_RVA_SECOND_HALF
   27  LblCom even  none    32     40  SEARCHR_NB
   28  LblCom even  none    32     40  SEM_COM
PL6.E3A0      #001=DISP File=ZIG$DDX7.:ZIC0TSI                                   FRI 09/05/97 11:53 Page:16
   29  LblCom even  none    32     40  DMCL_XLATE
   30  LblCom even  none    32     40  Q2_PERCENT
   31  LblCom even  none   656   1220  UWA
   32  RoData even  UTS    190    276  DISP
   33   Proc  even  none   971   1713  DISP
   34  RoData even  none    32     40  DISP

    ****  Entry defs  ****

                              Check   Calling
                             calling  sequence
  Sect OctLoc Primary Altret sequence   type   Parms  Name
    33      0   yes            yes      Std        0  DISP

  ****  Entry refs  ****

         Check        Calling
        calling       sequence
Altret sequence SRef   type   Args  Name
         yes           Std       2 SUBLST
 yes     yes           Std       2 FETCHD_6
 yes     yes           Std       1 FETCHOS_6
 yes     yes           Std       1 FETCHNS_6
         yes           Std       1 LIST
 yes     yes           Std       1 STRE_6
         yes           Std       2 UNSC
         yes           Std       0 ZIG$V_DESC
         yes           Std       2 READ64
         yes           Std       1 GET_TIME
         yes           Std       3 ZIG$DECOMP
         yes           Std       0 ABORT
         yes           Std       4 UN_TIME
         yes           Std       0 WRITERECORD_TO_SEQ_FILE
                       nStd      0 X66_AUTO_0
                       nStd      0 X66_ARET
PL6.E3A0      #001=DISP File=ZIG$DDX7.:ZIC0TSI                                   FRI 09/05/97 11:53 Page:17

  ****  Segment refs  ****

  Flags:  r = read only, s = secondary
Flgs Name                             Flgs Name                             Flgs Name
     ISSID
PL6.E3A0      #001=DISP File=ZIG$DDX7.:ZIC0TSI                                   FRI 09/05/97 11:53 Page:18


        1        1        /*M* ZIG$DDX7         I-D-S/II            DBACS    */
        2        2        /*T***********************************************************/
        3        3        /*T*                                                         */
        4        4        /*T* Copyright (c) Bull HN Information Systems Inc., 1997    */
        5        5        /*T*                                                         */
        6        6        /*T***********************************************************/
        7        7        DISP:
        8        8            PROC;

      8 33 000000   000000 700200 xent  DISP         TSX0  ! X66_AUTO_0
        33 000001   000214 000000                    ZERO    140,0

        9        9    1   DCL RECORD_POINTER PTR EXT;
       10       10    1   DCL RECORD_SIZE UBIN (36) EXT;
       11       11    1   DCL FILE_CODE CHAR(2) EXT;
       12       12    1   DCL Y(0:71) CHAR(1) BASED (RECORD_POINTER);
       13       13    1   DCL COL SBIN;
       14       14    1   DCL BIT36 BIT(36) BASED;
       15       15    1   DCL 01 BIT36_RDEF,
       16       16    1         02 B0 BIT(1),
       17       17    1         02 B1 BIT(1),
       18       18    1         02 B2_35 BIT(34);
       19       19    1   DCL PP PTR;
       20       20    1   DCL MSK_18B(0:5) BIT(18) BASED;
       21       21    1   DCL X SBIN STATIC INIT(0);
       22       22    1   DCL UNSC ENTRY(2);
       23       23    1   DCL LKV CHAR(12);
       24       24    1   DCL FUNCMESS(0:9) CHAR(30) STATIC INIT(
       25       25    1    'UNSUCCESSFUL DMCL TRANSLATION',
       26       26    1    'SCHEMA DDL TRANSLATION',
       27       27    1    'SCHEMA DMCL TRANSLATION',
       28       28    1    'SUBSCHEMA VALIDATION',
       29       29    1    'LOCKS PROCESSOR',
       30       30    1    'DISPLAY PROCESSOR',
       31       31    1    'DICTIONARY PROCESSOR',
       32       32    1    'PURGE PROCESSOR',
PL6.E3A0      #001=DISP File=ZIG$DDX7.:ZIC0TSI                                   FRI 09/05/97 11:53 Page:19
       33       33    1    'RESTRUCTURING PROCESSOR',
       34       34    1    'SUBSCHEMA GENERATOR'
       35       35    1    );
       36       36    1   DCL 01 TEXT BASED(BLKPTR),
       37       37    1         02 LINE_NO SBIN WORD,
       38       38    1         02 WD(0:1) SBIN WORD,
       39       39    1         02 TYPE SBIN WORD,
       40       40    1         02 FILL2 SBIN WORD,
       41       41    1         02 CNT SBIN WORD,
       42       42    1         02 BUFF CHAR(128);
       43       43    1   DCL RECNO2 UBIN WORD;
       44       44    1   DCL BP SBIN WORD;
       45       45    1   DCL 01 EOF_REC BASED(BLKPTR),
       46       46    1         02 EOF_WD CHAR(12);
       47       47    1   DCL L1 CHAR(0) STATIC
       48       48    1   INIT('** PROGRAM SHOULD BE RECOMPILED-SUBSCHEMA WAS CHANGED SINCE LAST COMPILATION'
                48             );
       49       49    1   DCL FN SBIN STATIC INIT(0);
       50       50    1   DCL LC SBIN STATIC INIT(2);
       51       51    1   DCL C1 CHAR(9);
       52       52    1   DCL H1 CHAR(128) STATIC
       53       53    1   INIT('                 PROGRAM ID                              COMPILATION DATE
                53          TIME');
       54       54    1   DCL ATIME CHAR(6);
       55       55    1   DCL FLAG CHAR(2);
       56       56    1   DCL 01 ASCI_DATE(0:1),
       57       57    1         02 MO CHAR(2),
       58       58    1         02 DAY CHAR(2),
       59       59    1         02 YR CHAR(2);
       60       60    1   DCL READ64 ENTRY(2);
       61       61    1   DCL BLKPTR PTR;
       62       62    1   DCL BUFFPTR PTR;
       63       63    1   DCL 01 CBLKNO,
       64       64    1         02 BLK BIT(35),
       65       65    1         02 REC2 BIT(1);
       66       66    1   DCL B1 REDEF CBLKNO BIT(36);
       67       67    1   DCL TS CHAR(12);
PL6.E3A0      #001=DISP File=ZIG$DDX7.:ZIC0TSI                                   FRI 09/05/97 11:53 Page:20
       68       68        %INCLUDE ZIG_DBA_INT;
       69      116        %INCLUDE ZI_SUB_LANG;
       70     1831        %CONTROL_BLOCK;
       71     1939        %INCLUDE ZIG_DIR_STRUCS;
       72     2069        %INCLUDE ZIA_IDS_DCL;
       73     2177        %INCLUDE ZI_ERRORS_SUBS;
       74     2697        %INCLUDE ZI_SUB4_CAN;
       75     3354        %INCLUDE ZIG_GENERAL;
       76     3462        %UWA;
       77     3797    1   DCL LINE ALIGNED CHAR(128);
       78     3798    1   DCL LK3 SBIN HALF;
       79     3799    1   DCL LN SBIN STATIC INIT(0);
       80     3800    1   DCL SSSNAME CHAR(30) STATIC;
       81     3801    1   DCL LANG_LEN UBIN HALF;
       82     3802    1   DCL LANG CHAR(LANG_LEN) BASED(LANG$);
       83     3803    1   DCL LANG$ PTR;
       84     3804    1   DCL C32 CHAR(32);
       85     3805    1   DCL CLN CHAR(5);
       86     3806    1   DCL DDL SBIN STATIC INIT(3) ALIGNED;
       87     3807    1   DCL DMCL SBIN STATIC INIT(4) ALIGNED;
       88     3808    1   DCL LNGTH SBIN STATIC INIT(80);
       89     3809    1   DCL TLINE CHAR(80) STATIC INIT(' ');
       90     3810    1   DCL C16 CHAR(16) STATIC ALIGNED;
       91     3811    1   DCL C64 CHAR(64);
       92     3812    1   DCL OL CHAR(128);
       93     3813    1   DCL 01 OL_RDEF REDEF OL,
       94     3814    1         02 C67 CHAR(67),
       95     3815    1         02 C61 CHAR(61);
       96     3816    1   DCL FRST_TIME BIT(1) STATIC INIT('1'B);
       97     3817    1   DCL ZIG$DECOMP ENTRY (3);
       98     3818    1   DCL ZIG$V_DESC ENTRY;
       99     3819    1   DCL DONE UBIN WORD;
      100     3820    1   DCL DATE_ CHAR(10);
      101     3821    1   DCL TIME_ CHAR(11);
      102     3822    1   DCL DAY_ CHAR(3);
      103     3823    1   DCL UN_TIME ENTRY (4);
      104     3824        /******************************************************************/
PL6.E3A0      #001=DISP File=ZIG$DDX7.:ZIC0TSI                                   FRI 09/05/97 11:53 Page:21
      105     3825        /*  TEMP VARIABLES FOR DATE STRINGS USED FOR YEAR 2000 CHANGES    */
      106     3826        /******************************************************************/
      107     3827    1   DCL DT1_R CHAR (7) AUTO UNAL; /* 7-CHAR. DATE -> CYYMMDD, C=CENT. */
      108     3828    1   DCL 1 DT1 REDEF DT1_R, /* TEMP STORAGE FOR FROM DATE YYMMDD */
      109     3829    1         2 CEN CHAR (1), /* CENTURY INDICATOR */
      110     3830    1         2 DT_R CHAR(6), /* YYMMDD DATE */
      111     3831    1         2 DT REDEF DT_R, /* YYMMDD DATE */
      112     3832    1           3 YR CHAR (2), /* YEAR */
      113     3833    1           3 * CHAR (4); /* MMDD */
      114     3834
      115     3835    1   DCL DT2_R CHAR (7) AUTO UNAL; /* 7-CHAR. DATE -> CYYMMDD, C=CENT. */
      116     3836    1   DCL 1 DT2 REDEF DT2_R, /* TEMP STORAGE FOR THRU DATE YYMMDD */
      117     3837    1         2 CEN CHAR (1), /* CENTURY INDICATOR */
      118     3838    1         2 DT_R CHAR(6), /* YYMMDD DATE */
      119     3839    1         2 DT REDEF DT_R, /* YYMMDD DATE */
      120     3840    1           3 YR CHAR (2), /* YEAR */
      121     3841    1           3 * CHAR (4); /* MMDD */
      122     3842
      123     3843    1   DCL DT3_R CHAR (7) AUTO UNAL; /* 7-CHAR. DATE -> CYYMMDD, C=CENT. */
      124     3844    1   DCL 1 DT3 REDEF DT3_R, /* TEMP STORAGE FOR CURRENT DATE YYMMDD */
      125     3845    1         2 CEN CHAR (1), /* CENTURY INDICATOR */
      126     3846    1         2 DT_R CHAR(6), /* YYMMDD DATE */
      127     3847    1         2 DT REDEF DT_R, /* YYMMDD DATE */
      128     3848    1           3 YR CHAR (2), /* YEAR */
      129     3849    1           3 * CHAR (4); /* MMDD */
      130     3850        /******************************************************************/
      131     3851    1       LANG$ = ADDR(C32);

   3851 33 000002   200075 630500                    EPPR0   C32,,AUTO
        33 000003   200074 450500                    STP0    LANG$,,AUTO

      132     3852    1       C64 = 'DISPLAY PROCESSOR';

   3852 33 000004   040100 100400                    MLR     fill='040'O
        33 000005   000000 000021 32                 ADSC9   0                        cn=0,n=17
        33 000006   200107 000100                    ADSC9   C64,,AUTO                cn=0,n=64

PL6.E3A0      #001=DISP File=ZIG$DDX7.:ZIC0TSI                                   FRI 09/05/97 11:53 Page:22
      133     3853    1       CALL SUBLST(C64);

   3853 33 000007   200107 631500                    EPPR1   C64,,AUTO
        33 000010   200210 451500                    STP1    DT3_R+5,,AUTO
        33 000011   200210 630500                    EPPR0   DT3_R+5,,AUTO
        33 000012   000000 631400 34                 EPPR1   0
        33 000013   000000 701000 xent               TSX1    SUBLST
        33 000014   000000 011000                    NOP     0

      134     3854         /* Ready data base */
      135     3855         /* Get sf */
      136     3856    1       CALL FETCHD_6('SF  ', 2) ALTRET(DBCSERR);

   3856 33 000015   000003 630400 34                 EPPR0   3
        33 000016   000001 631400 34                 EPPR1   1
        33 000017   000000 701000 xent               TSX1    FETCHD_6
        33 000020   001565 702000 33                 TSX2    DBCSERR

      137     3857        /* Get da                                                             */
      138     3858    1       CALL FETCHD_6('DA  ', UWA.SF.DBKEY_DA) ALTRET( DBCSERR);

   3858 33 000021   000005 630400 34                 EPPR0   5
        33 000022   000001 631400 34                 EPPR1   1
        33 000023   000000 701000 xent               TSX1    FETCHD_6
        33 000024   001565 702000 33                 TSX2    DBCSERR

      139     3859        /* Get sn element                                                     */
      140     3860    1       UWA.SN.SETYPE = 0;

   3860 33 000025   000424 450000 31                 STZ     UWA+276

      141     3861    2       DO WHILE(UWA.SN.SETYPE ~= 10);

   3861 33 000026   000424 235000 31                 LDA     UWA+276
        33 000027   000012 115007                    CMPA    10,DL
        33 000030   000040 600000 33                 TZE     s:3864

PL6.E3A0      #001=DISP File=ZIG$DDX7.:ZIC0TSI                                   FRI 09/05/97 11:53 Page:23
      142     3862    2           CALL FETCHNS_6('DA-SN   ') ALTRET(DBCSERR);

   3862 33 000031   000007 630400 34                 EPPR0   7
        33 000032   000000 631400 34                 EPPR1   0
        33 000033   000000 701000 xent               TSX1    FETCHNS_6
        33 000034   001565 702000 33                 TSX2    DBCSERR

      143     3863    2           END;

   3863 33 000035   000424 235000 31                 LDA     UWA+276
        33 000036   000012 115007                    CMPA    10,DL
        33 000037   000031 601000 33                 TNZ     s:3862

      144     3864    1       IF DISPS.SNAME ~= ' ' THEN /* */

   3864 33 000040   040000 106400                    CMPC    fill='040'O
        33 000041   000007 600036 8                  ADSC9   DISPS+7                  cn=3,n=30
        33 000042   000010 000001 34                 ADSC9   8                        cn=0,n=1
        33 000043   000065 600000 33                 TZE     s:3871

      145     3865    1           IF UWA.SN.SENAME ~= DISPS.SNAME THEN /* */

   3865 33 000044   040000 106400                    CMPC    fill='040'O
        33 000045   000427 000036 31                 ADSC9   UWA+279                  cn=0,n=30
        33 000046   000007 600036 8                  ADSC9   DISPS+7                  cn=3,n=30
        33 000047   000065 600000 33                 TZE     s:3871

      146     3866    2           DO;

      147     3867    2               CALL CONCAT(OL,DISPS.SNAME,' IS NOT NAME OF ASSIGNED SCHEMA FILE');

   3867 33 000050   040100 100400                    MLR     fill='040'O
        33 000051   000007 600036 8                  ADSC9   DISPS+7                  cn=3,n=30
        33 000052   200127 000036                    ADSC9   OL,,AUTO                 cn=0,n=30
        33 000053   040100 100400                    MLR     fill='040'O
        33 000054   000011 000044 32                 ADSC9   9                        cn=0,n=36
        33 000055   200136 400142                    ADSC9   OL+7,,AUTO               cn=2,n=98
PL6.E3A0      #001=DISP File=ZIG$DDX7.:ZIC0TSI                                   FRI 09/05/97 11:53 Page:24

      148     3868    2               CALL LIST(OL);

   3868 33 000056   200127 630500                    EPPR0   OL,,AUTO
        33 000057   200210 450500                    STP0    DT3_R+5,,AUTO
        33 000060   200210 630500                    EPPR0   DT3_R+5,,AUTO
        33 000061   000000 631400 34                 EPPR1   0
        33 000062   000000 701000 xent               TSX1    LIST
        33 000063   000000 011000                    NOP     0

      149     3869    2               RETURN;

   3869 33 000064   000000 702200 xent               TSX2  ! X66_ARET

      150     3870    2               END;
      151     3871    1       IF DISPS.SCHEMA_DISP THEN /* */

   3871 33 000065   000000 236000 8                  LDQ     DISPS
        33 000066   040000 316003                    CANQ    16384,DU
        33 000067   000111 600000 33                 TZE     s:3881

      152     3872    2       DO;

      153     3873         /* Record display function attempted on schema file*/
      154     3874    2           UWA.A_D.AD_FUNCTION = 5;

   3874 33 000070   000005 235007                    LDA     5,DL
        33 000071   000170 755000 31                 STA     UWA+120

      155     3875    2           CALL GET_TIME(UWA.A_D.AD_DATE);

   3875 33 000072   000011 630400 34                 EPPR0   9
        33 000073   000000 631400 34                 EPPR1   0
        33 000074   000000 701000 xent               TSX1    GET_TIME
        33 000075   000000 011000                    NOP     0

      156     3876    2           UWA.A_D.AD_IDENT = ' ';
PL6.E3A0      #001=DISP File=ZIG$DDX7.:ZIC0TSI                                   FRI 09/05/97 11:53 Page:25

   3876 33 000076   040000 100400                    MLR     fill='040'O
        33 000077   000010 000001 34                 ADSC9   8                        cn=0,n=1
        33 000100   000174 000074 31                 ADSC9   UWA+124                  cn=0,n=60

      157     3877    2           X = 54;

   3877 33 000101   000066 235007                    LDA     54,DL
        33 000102   000000 755000 3                  STA     X

      158     3878    2           ADDR(PP) -> MSK_18B(1) = ADDR(X) -> MSK_18B(2);

   3878 33 000103   000001 220000 3                  LDX0    FUNCMESS
        33 000104   200005 440100                    SXL0    PP,,AUTO

      159     3879    2           CALL STRE_6('A-D ') ALTRET(DBCSERR);

   3879 33 000105   000012 630400 34                 EPPR0   10
        33 000106   000000 631400 34                 EPPR1   0
        33 000107   000000 701000 xent               TSX1    STRE_6
        33 000110   001565 702000 33                 TSX2    DBCSERR

      160     3880    2           END;

      161     3881    1       X = 0;

   3881 33 000111   000000 450000 3                  STZ     X

      162     3882        /* Get lk element                                                     */
      163     3883        /* Mark lock on disps not found                                       */
      164     3884    1       LK3 = 0;

   3884 33 000112   000000 220003                    LDX0    0,DU
        33 000113   200072 740100                    STX0    LK3,,AUTO

      165     3885    2       DO WHILE(DISPS.DISP_KEY ~= LKV);

PL6.E3A0      #001=DISP File=ZIG$DDX7.:ZIC0TSI                                   FRI 09/05/97 11:53 Page:26
   3885 33 000114   040100 106400                    CMPC    fill='040'O
        33 000115   000004 600014 8                  ADSC9   DISPS+4                  cn=3,n=12
        33 000116   200006 000014                    ADSC9   LKV,,AUTO                cn=0,n=12
        33 000117   000156 600000 33                 TZE     B2

      166     3886    2           CALL FETCHNS_6('SN-LT   ') ALTRET(L3);

   3886 33 000120   000013 630400 34                 EPPR0   11
        33 000121   000000 631400 34                 EPPR1   0
        33 000122   000000 701000 xent               TSX1    FETCHNS_6
        33 000123   001542 702000 33                 TSX2    L3

      167     3887    2           BIT36_RDEF = ADDR(UWA.LT.PLOCKS) -> BIT36;

   3887 33 000124   000473 236000 31                 LDQ     UWA+315
        33 000125   200004 756100                    STQ     BIT36_RDEF,,AUTO

      168     3888    2           IF BIT36_RDEF.B1 = '1'B THEN /* */

   3888 33 000126   200000 316003                    CANQ    65536,DU
        33 000127   000152 600000 33                 TZE     s:3899

      169     3889    3           DO;

      170     3890        /* There is a lock for display                                        */
      171     3891    3               LK3 = 1;

   3891 33 000130   000001 220003                    LDX0    1,DU
        33 000131   200072 740100                    STX0    LK3,,AUTO

      172     3892        /* Get lk element                                                     */
      173     3893    3               CALL FETCHOS_6('LK-LT   ') ALTRET(DBCSERR);

   3893 33 000132   000014 630400 34                 EPPR0   12
        33 000133   000000 631400 34                 EPPR1   0
        33 000134   000000 701000 xent               TSX1    FETCHOS_6
        33 000135   001565 702000 33                 TSX2    DBCSERR
PL6.E3A0      #001=DISP File=ZIG$DDX7.:ZIC0TSI                                   FRI 09/05/97 11:53 Page:27

      174     3894    3               IF UWA.LK.PLVALUE = '"NULL"' THEN /* */

   3894 33 000136   040000 106400                    CMPC    fill='040'O
        33 000137   000447 400014 31                 ADSC9   UWA+295                  cn=2,n=12
        33 000140   000027 000006 32                 ADSC9   23                       cn=0,n=6
        33 000141   000156 600000 33                 TZE     B2

      175     3895    3                   GOTO B2;
      176     3896    3               ELSE /* */
      177     3897    3                   CALL UNSC(UWA.LK.PLVALUE,LKV);

   3897 33 000142   200006 630500                    EPPR0   LKV,,AUTO
        33 000143   200211 450500                    STP0    DT3_R+6,,AUTO
        33 000144   000015 236000 34                 LDQ     13
        33 000145   200210 756100                    STQ     DT3_R+5,,AUTO
        33 000146   200210 630500                    EPPR0   DT3_R+5,,AUTO
        33 000147   000001 631400 34                 EPPR1   1
        33 000150   000000 701000 xent               TSX1    UNSC
        33 000151   000000 011000                    NOP     0

      178     3898    3               END;

      179     3899    2           END;

   3899 33 000152   040100 106400                    CMPC    fill='040'O
        33 000153   000004 600014 8                  ADSC9   DISPS+4                  cn=3,n=12
        33 000154   200006 000014                    ADSC9   LKV,,AUTO                cn=0,n=12
        33 000155   000120 601000 33                 TNZ     s:3886

      180     3900    1   B2:
      181     3901    1       IF DISPS.SCHEMA_DISP THEN /* */

   3901 33 000156   000000 236000 8     B2           LDQ     DISPS
        33 000157   040000 316003                    CANQ    16384,DU
        33 000160   001076 600000 33                 TZE     SUB_DISP

PL6.E3A0      #001=DISP File=ZIG$DDX7.:ZIC0TSI                                   FRI 09/05/97 11:53 Page:28
      182     3902    2       DO;

      183     3903         /* Get sa */
      184     3904    2           CALL FETCHD_6('SA  ', UWA.SF.DBKEY_SA) ALTRET(DBCSERR);

   3904 33 000161   000016 630400 34                 EPPR0   14
        33 000162   000001 631400 34                 EPPR1   1
        33 000163   000000 701000 xent               TSX1    FETCHD_6
        33 000164   001565 702000 33                 TSX2    DBCSERR

      185     3905    2           IF DISPS.SDISP_TYPES.DDL = '1'B THEN /* */

   3905 33 000165   000000 236000 8                  LDQ     DISPS
        33 000166   010000 316003                    CANQ    4096,DU
        33 000167   000335 600000 33                 TZE     CKDMCL

      186     3906    3           DO;

      187     3907    3               IF UWA.SA.NUMB_DD = 0 THEN /* */

   3907 33 000170   000522 235000 31                 LDA     UWA+338
        33 000171   000204 601000 33                 TNZ     s:3914

      188     3908    4               DO;

      189     3909    4                   OL = 'SCHEMA DDL NOT RECORDED ON SCHEMA FILE';

   3909 33 000172   040100 100400                    MLR     fill='040'O
        33 000173   000032 000046 32                 ADSC9   26                       cn=0,n=38
        33 000174   200127 000200                    ADSC9   OL,,AUTO                 cn=0,n=128

      190     3910    4                   CALL LIST(OL);

   3910 33 000175   200127 630500                    EPPR0   OL,,AUTO
        33 000176   200210 450500                    STP0    DT3_R+5,,AUTO
        33 000177   200210 630500                    EPPR0   DT3_R+5,,AUTO
        33 000200   000000 631400 34                 EPPR1   0
PL6.E3A0      #001=DISP File=ZIG$DDX7.:ZIC0TSI                                   FRI 09/05/97 11:53 Page:29
        33 000201   000000 701000 xent               TSX1    LIST
        33 000202   000000 011000                    NOP     0

      191     3911    4                   GOTO CKDMCL;

   3911 33 000203   000335 710000 33                 TRA     CKDMCL

      192     3912    4                   END;
      193     3913        /* *                                                                  */
      194     3914    3               FRST_TIME = '0'B;

   3914 33 000204   000245 450000 3                  STZ     FRST_TIME

      195     3915    3               OL = ' ';

   3915 33 000205   040100 100400                    MLR     fill='040'O
        33 000206   000010 000001 34                 ADSC9   8                        cn=0,n=1
        33 000207   200127 000200                    ADSC9   OL,,AUTO                 cn=0,n=128

      196     3916    3               CALL LIST( OL);

   3916 33 000210   200127 630500                    EPPR0   OL,,AUTO
        33 000211   200210 450500                    STP0    DT3_R+5,,AUTO
        33 000212   200210 630500                    EPPR0   DT3_R+5,,AUTO
        33 000213   000000 631400 34                 EPPR1   0
        33 000214   000000 701000 xent               TSX1    LIST
        33 000215   000000 011000                    NOP     0

      197     3917    3               OL = 'SCHEMA DDL TEXT LISTING***';

   3917 33 000216   040100 100400                    MLR     fill='040'O
        33 000217   000044 000032 32                 ADSC9   36                       cn=0,n=26
        33 000220   200127 000200                    ADSC9   OL,,AUTO                 cn=0,n=128

      198     3918    3               CALL LIST(OL);

   3918 33 000221   200127 630500                    EPPR0   OL,,AUTO
PL6.E3A0      #001=DISP File=ZIG$DDX7.:ZIC0TSI                                   FRI 09/05/97 11:53 Page:30
        33 000222   200210 450500                    STP0    DT3_R+5,,AUTO
        33 000223   200210 630500                    EPPR0   DT3_R+5,,AUTO
        33 000224   000000 631400 34                 EPPR1   0
        33 000225   000000 701000 xent               TSX1    LIST
        33 000226   000000 011000                    NOP     0

      199     3919    3               OL = ' ';

   3919 33 000227   040100 100400                    MLR     fill='040'O
        33 000230   000010 000001 34                 ADSC9   8                        cn=0,n=1
        33 000231   200127 000200                    ADSC9   OL,,AUTO                 cn=0,n=128

      200     3920    3               CALL LIST(OL);

   3920 33 000232   200127 630500                    EPPR0   OL,,AUTO
        33 000233   200210 450500                    STP0    DT3_R+5,,AUTO
        33 000234   200210 630500                    EPPR0   DT3_R+5,,AUTO
        33 000235   000000 631400 34                 EPPR1   0
        33 000236   000000 701000 xent               TSX1    LIST
        33 000237   000000 011000                    NOP     0

      201     3921    3               CALL ZIG$DECOMP(TLINE,'SA-DD   ',DONE);

   3921 33 000240   200167 630500                    EPPR0   DONE,,AUTO
        33 000241   200212 450500                    STP0    DT3_R+7,,AUTO
        33 000242   000022 237000 34                 LDAQ    18
        33 000243   200210 757100                    STAQ    DT3_R+5,,AUTO
        33 000244   200210 630500                    EPPR0   DT3_R+5,,AUTO
        33 000245   000020 631400 34                 EPPR1   16
        33 000246   000000 701000 xent               TSX1    ZIG$DECOMP
        33 000247   000000 011000                    NOP     0

      202     3922    4               DO WHILE (DONE=0);

   3922 33 000250   200167 235100                    LDA     DONE,,AUTO
        33 000251   000331 601000 33                 TNZ     L10

PL6.E3A0      #001=DISP File=ZIG$DDX7.:ZIC0TSI                                   FRI 09/05/97 11:53 Page:31
      203     3923         /* Get dd */
      204     3924    4                   LN = LN + 1;

   3924 33 000252   000201 054000 3                  AOS     LN

      205     3925    4                   CALL BINCHAR(CLN,LN);

   3925 33 000253   000100 301400                    BTD
        33 000254   000201 000004 3                  NDSC9   LN                       cn=0,s=lsgnf,sf=0,n=4
        33 000255   200105 030005                    NDSC9   CLN,,AUTO                cn=0,s=nosgn,sf=0,n=5

      206     3926    5                   DO X = 0 TO 4;

   3926 33 000256   000000 450000 3                  STZ     X

      207     3927    5                       IF SUBSTR(CLN,X,1) = '0'

   3927 33 000257   000000 235000 3                  LDA     X
        33 000260   040000 106505                    CMPC    fill='040'O
        33 000261   200105 000001                    ADSC9   CLN,A,AUTO               cn=0,n=1
        33 000262   000021 000001 34                 ADSC9   17                       cn=0,n=1
        33 000263   000270 601000 33                 TNZ     s:3929

      208     3928    5                       THEN CALL INSERT(CLN,X,1,' ');

   3928 33 000264   040105 100400                    MLR     fill='040'O
        33 000265   000010 000001 34                 ADSC9   8                        cn=0,n=1
        33 000266   200105 000001                    ADSC9   CLN,A,AUTO               cn=0,n=1
        33 000267   000272 710000 33                 TRA     s:3930

      209     3929    5                       ELSE X = 5;

   3929 33 000270   000005 236007                    LDQ     5,DL
        33 000271   000000 756000 3                  STQ     X

      210     3930    5                       END;

PL6.E3A0      #001=DISP File=ZIG$DDX7.:ZIC0TSI                                   FRI 09/05/97 11:53 Page:32
   3930 33 000272   000000 054000 3                  AOS     X
        33 000273   000000 235000 3                  LDA     X
        33 000274   000004 115007                    CMPA    4,DL
        33 000275   000257 604400 33                 TMOZ    s:3927

      211     3931    4                   CALL CONCAT(OL,CLN,'     ',TLINE);

   3931 33 000276   040100 100500                    MLR     fill='040'O
        33 000277   200105 000005                    ADSC9   CLN,,AUTO                cn=0,n=5
        33 000300   200127 000005                    ADSC9   OL,,AUTO                 cn=0,n=5
        33 000301   040100 100400                    MLR     fill='040'O
        33 000302   000055 000005 32                 ADSC9   45                       cn=0,n=5
        33 000303   200130 200005                    ADSC9   OL+1,,AUTO               cn=1,n=5
        33 000304   040100 100400                    MLR     fill='040'O
        33 000305   000215 000120 3                  ADSC9   TLINE                    cn=0,n=80
        33 000306   200131 400166                    ADSC9   OL+2,,AUTO               cn=2,n=118

      212     3932    4                   CALL LIST(OL);

   3932 33 000307   200127 630500                    EPPR0   OL,,AUTO
        33 000310   200210 450500                    STP0    DT3_R+5,,AUTO
        33 000311   200210 630500                    EPPR0   DT3_R+5,,AUTO
        33 000312   000000 631400 34                 EPPR1   0
        33 000313   000000 701000 xent               TSX1    LIST
        33 000314   000000 011000                    NOP     0

      213     3933    4                   CALL WRITE_USER_FILE;

   3933 33 000315   001647 701000 33                 TSX1    WRITE_USER_FILE
        33 000316   000000 011000                    NOP     0

      214     3934    4                   CALL ZIG$DECOMP(TLINE,'SA-DD   ',DONE);

   3934 33 000317   200167 630500                    EPPR0   DONE,,AUTO
        33 000320   200212 450500                    STP0    DT3_R+7,,AUTO
        33 000321   000022 237000 34                 LDAQ    18
        33 000322   200210 757100                    STAQ    DT3_R+5,,AUTO
PL6.E3A0      #001=DISP File=ZIG$DDX7.:ZIC0TSI                                   FRI 09/05/97 11:53 Page:33
        33 000323   200210 630500                    EPPR0   DT3_R+5,,AUTO
        33 000324   000020 631400 34                 EPPR1   16
        33 000325   000000 701000 xent               TSX1    ZIG$DECOMP
        33 000326   000000 011000                    NOP     0

      215     3935    4                   END;

   3935 33 000327   200167 235100                    LDA     DONE,,AUTO
        33 000330   000252 600000 33                 TZE     s:3924

      216     3936    3   L10:
      217     3937    3               IF UWA.DB_STATUS ~= '0000000' THEN /* */

   3937 33 000331   040000 106400       L10          CMPC    fill='040'O
        33 000332   000001 000007 31                 ADSC9   UWA+1                    cn=0,n=7
        33 000333   000057 000007 32                 ADSC9   47                       cn=0,n=7
        33 000334   001565 601000 33                 TNZ     DBCSERR

      218     3938    3                   GOTO DBCSERR;
      219     3939    3               END;

      220     3940    2   CKDMCL:
      221     3941    2           IF DISPS.SDISP_TYPES.DMCL = '1'B THEN /* */

   3941 33 000335   000000 236000 8     CKDMCL       LDQ     DISPS
        33 000336   004000 316003                    CANQ    2048,DU
        33 000337   000522 600000 33                 TZE     CKACTS

      222     3942    3           DO;

      223     3943    3               IF UWA.SA.NUMB_DM = 0 THEN /* */

   3943 33 000340   000523 235000 31                 LDA     UWA+339
        33 000341   000354 601000 33                 TNZ     s:3949

      224     3944    4               DO;

PL6.E3A0      #001=DISP File=ZIG$DDX7.:ZIC0TSI                                   FRI 09/05/97 11:53 Page:34
      225     3945    4                   OL = 'SCHEMA DMCL NOT RECORDED ON SCHEMA FILE';

   3945 33 000342   040100 100400                    MLR     fill='040'O
        33 000343   000061 000047 32                 ADSC9   49                       cn=0,n=39
        33 000344   200127 000200                    ADSC9   OL,,AUTO                 cn=0,n=128

      226     3946    4                   CALL LIST(OL);

   3946 33 000345   200127 630500                    EPPR0   OL,,AUTO
        33 000346   200210 450500                    STP0    DT3_R+5,,AUTO
        33 000347   200210 630500                    EPPR0   DT3_R+5,,AUTO
        33 000350   000000 631400 34                 EPPR1   0
        33 000351   000000 701000 xent               TSX1    LIST
        33 000352   000000 011000                    NOP     0

      227     3947    4                   GOTO CKACTS;

   3947 33 000353   000522 710000 33                 TRA     CKACTS

      228     3948    4                   END;
      229     3949    3               OL = '****';

   3949 33 000354   040100 100400                    MLR     fill='040'O
        33 000355   000073 000004 32                 ADSC9   59                       cn=0,n=4
        33 000356   200127 000200                    ADSC9   OL,,AUTO                 cn=0,n=128

      230     3950    3               IF FRST_TIME THEN FRST_TIME = '0'B;

   3950 33 000357   000245 234000 3                  SZN     FRST_TIME
        33 000360   000363 605000 33                 TPL     s:3951

   3950 33 000361   000245 450000 3                  STZ     FRST_TIME
        33 000362   000371 710000 33                 TRA     s:3952

      231     3951    3               ELSE CALL LIST(OL);

   3951 33 000363   200127 630500                    EPPR0   OL,,AUTO
PL6.E3A0      #001=DISP File=ZIG$DDX7.:ZIC0TSI                                   FRI 09/05/97 11:53 Page:35
        33 000364   200210 450500                    STP0    DT3_R+5,,AUTO
        33 000365   200210 630500                    EPPR0   DT3_R+5,,AUTO
        33 000366   000000 631400 34                 EPPR1   0
        33 000367   000000 701000 xent               TSX1    LIST
        33 000370   000000 011000                    NOP     0

      232     3952    3               OL = ' ';

   3952 33 000371   040100 100400                    MLR     fill='040'O
        33 000372   000010 000001 34                 ADSC9   8                        cn=0,n=1
        33 000373   200127 000200                    ADSC9   OL,,AUTO                 cn=0,n=128

      233     3953    3               CALL LIST(OL);

   3953 33 000374   200127 630500                    EPPR0   OL,,AUTO
        33 000375   200210 450500                    STP0    DT3_R+5,,AUTO
        33 000376   200210 630500                    EPPR0   DT3_R+5,,AUTO
        33 000377   000000 631400 34                 EPPR1   0
        33 000400   000000 701000 xent               TSX1    LIST
        33 000401   000000 011000                    NOP     0

      234     3954    3               OL = 'SCHEMA DMCL TEXT LISTING***';

   3954 33 000402   040100 100400                    MLR     fill='040'O
        33 000403   000074 000033 32                 ADSC9   60                       cn=0,n=27
        33 000404   200127 000200                    ADSC9   OL,,AUTO                 cn=0,n=128

      235     3955    3               CALL LIST(OL);

   3955 33 000405   200127 630500                    EPPR0   OL,,AUTO
        33 000406   200210 450500                    STP0    DT3_R+5,,AUTO
        33 000407   200210 630500                    EPPR0   DT3_R+5,,AUTO
        33 000410   000000 631400 34                 EPPR1   0
        33 000411   000000 701000 xent               TSX1    LIST
        33 000412   000000 011000                    NOP     0

      236     3956    3               OL = ' ';
PL6.E3A0      #001=DISP File=ZIG$DDX7.:ZIC0TSI                                   FRI 09/05/97 11:53 Page:36

   3956 33 000413   040100 100400                    MLR     fill='040'O
        33 000414   000010 000001 34                 ADSC9   8                        cn=0,n=1
        33 000415   200127 000200                    ADSC9   OL,,AUTO                 cn=0,n=128

      237     3957    3               CALL LIST(OL);

   3957 33 000416   200127 630500                    EPPR0   OL,,AUTO
        33 000417   200210 450500                    STP0    DT3_R+5,,AUTO
        33 000420   200210 630500                    EPPR0   DT3_R+5,,AUTO
        33 000421   000000 631400 34                 EPPR1   0
        33 000422   000000 701000 xent               TSX1    LIST
        33 000423   000000 011000                    NOP     0

      238     3958    3               CALL ZIG$DECOMP(TLINE,'SA-DM   ',DONE);

   3958 33 000424   200167 630500                    EPPR0   DONE,,AUTO
        33 000425   200212 450500                    STP0    DT3_R+7,,AUTO
        33 000426   000024 237000 34                 LDAQ    20
        33 000427   200210 757100                    STAQ    DT3_R+5,,AUTO
        33 000430   200210 630500                    EPPR0   DT3_R+5,,AUTO
        33 000431   000020 631400 34                 EPPR1   16
        33 000432   000000 701000 xent               TSX1    ZIG$DECOMP
        33 000433   000000 011000                    NOP     0

      239     3959    3               LN = 0;

   3959 33 000434   000201 450000 3                  STZ     LN

      240     3960         /* Get dm */
      241     3961    4               DO WHILE (DONE=0) ;

   3961 33 000435   200167 235100                    LDA     DONE,,AUTO
        33 000436   000516 601000 33                 TNZ     L11

      242     3962    4                   LN = LN + 1;

PL6.E3A0      #001=DISP File=ZIG$DDX7.:ZIC0TSI                                   FRI 09/05/97 11:53 Page:37
   3962 33 000437   000201 054000 3                  AOS     LN

      243     3963    4                   CALL BINCHAR(CLN,LN);

   3963 33 000440   000100 301400                    BTD
        33 000441   000201 000004 3                  NDSC9   LN                       cn=0,s=lsgnf,sf=0,n=4
        33 000442   200105 030005                    NDSC9   CLN,,AUTO                cn=0,s=nosgn,sf=0,n=5

      244     3964    5                   DO X = 0 TO 4;

   3964 33 000443   000000 450000 3                  STZ     X

      245     3965    5                       IF SUBSTR(CLN,X,1) = '0'

   3965 33 000444   000000 235000 3                  LDA     X
        33 000445   040000 106505                    CMPC    fill='040'O
        33 000446   200105 000001                    ADSC9   CLN,A,AUTO               cn=0,n=1
        33 000447   000021 000001 34                 ADSC9   17                       cn=0,n=1
        33 000450   000455 601000 33                 TNZ     s:3967

      246     3966    5                       THEN CALL INSERT(CLN,X,1,' ');

   3966 33 000451   040105 100400                    MLR     fill='040'O
        33 000452   000010 000001 34                 ADSC9   8                        cn=0,n=1
        33 000453   200105 000001                    ADSC9   CLN,A,AUTO               cn=0,n=1
        33 000454   000457 710000 33                 TRA     s:3968

      247     3967    5                       ELSE X = 5;

   3967 33 000455   000005 236007                    LDQ     5,DL
        33 000456   000000 756000 3                  STQ     X

      248     3968    5                       END;

   3968 33 000457   000000 054000 3                  AOS     X
        33 000460   000000 235000 3                  LDA     X
        33 000461   000004 115007                    CMPA    4,DL
PL6.E3A0      #001=DISP File=ZIG$DDX7.:ZIC0TSI                                   FRI 09/05/97 11:53 Page:38
        33 000462   000444 604400 33                 TMOZ    s:3965

      249     3969    4                   CALL CONCAT(OL,CLN,'     ',TLINE);

   3969 33 000463   040100 100500                    MLR     fill='040'O
        33 000464   200105 000005                    ADSC9   CLN,,AUTO                cn=0,n=5
        33 000465   200127 000005                    ADSC9   OL,,AUTO                 cn=0,n=5
        33 000466   040100 100400                    MLR     fill='040'O
        33 000467   000055 000005 32                 ADSC9   45                       cn=0,n=5
        33 000470   200130 200005                    ADSC9   OL+1,,AUTO               cn=1,n=5
        33 000471   040100 100400                    MLR     fill='040'O
        33 000472   000215 000120 3                  ADSC9   TLINE                    cn=0,n=80
        33 000473   200131 400166                    ADSC9   OL+2,,AUTO               cn=2,n=118

      250     3970    4                   CALL LIST(OL);

   3970 33 000474   200127 630500                    EPPR0   OL,,AUTO
        33 000475   200210 450500                    STP0    DT3_R+5,,AUTO
        33 000476   200210 630500                    EPPR0   DT3_R+5,,AUTO
        33 000477   000000 631400 34                 EPPR1   0
        33 000500   000000 701000 xent               TSX1    LIST
        33 000501   000000 011000                    NOP     0

      251     3971    4                   CALL WRITE_USER_FILE;

   3971 33 000502   001647 701000 33                 TSX1    WRITE_USER_FILE
        33 000503   000000 011000                    NOP     0

      252     3972    4                   CALL ZIG$DECOMP(TLINE,'SA-DM   ',DONE);

   3972 33 000504   200167 630500                    EPPR0   DONE,,AUTO
        33 000505   200212 450500                    STP0    DT3_R+7,,AUTO
        33 000506   000024 237000 34                 LDAQ    20
        33 000507   200210 757100                    STAQ    DT3_R+5,,AUTO
        33 000510   200210 630500                    EPPR0   DT3_R+5,,AUTO
        33 000511   000020 631400 34                 EPPR1   16
        33 000512   000000 701000 xent               TSX1    ZIG$DECOMP
PL6.E3A0      #001=DISP File=ZIG$DDX7.:ZIC0TSI                                   FRI 09/05/97 11:53 Page:39
        33 000513   000000 011000                    NOP     0

      253     3973    4                   END;

   3973 33 000514   200167 235100                    LDA     DONE,,AUTO
        33 000515   000437 600000 33                 TZE     s:3962

      254     3974    3   L11:
      255     3975    3               IF UWA.DB_STATUS ~= '0000000' THEN /* */

   3975 33 000516   040000 106400       L11          CMPC    fill='040'O
        33 000517   000001 000007 31                 ADSC9   UWA+1                    cn=0,n=7
        33 000520   000057 000007 32                 ADSC9   47                       cn=0,n=7
        33 000521   001565 601000 33                 TNZ     DBCSERR

      256     3976    3                   GOTO DBCSERR;
      257     3977    3               END;

      258     3978    2   CKACTS:
      259     3979    2           IF DISPS.SDISP_TYPES.SACTS THEN /* */

   3979 33 000522   000000 236000 8     CKACTS       LDQ     DISPS
        33 000523   002000 316003                    CANQ    1024,DU
        33 000524   001076 600000 33                 TZE     SUB_DISP

      260     3980    3           DO;

      261     3981    3               OL = '****';

   3981 33 000525   040100 100400                    MLR     fill='040'O
        33 000526   000073 000004 32                 ADSC9   59                       cn=0,n=4
        33 000527   200127 000200                    ADSC9   OL,,AUTO                 cn=0,n=128

      262     3982    3               IF FRST_TIME THEN /* */

   3982 33 000530   000245 234000 3                  SZN     FRST_TIME
        33 000531   000534 605000 33                 TPL     s:3985
PL6.E3A0      #001=DISP File=ZIG$DDX7.:ZIC0TSI                                   FRI 09/05/97 11:53 Page:40

      263     3983    3                   FRST_TIME = '0'B;

   3983 33 000532   000245 450000 3                  STZ     FRST_TIME
        33 000533   000542 710000 33                 TRA     s:3986

      264     3984    3               ELSE /* */
      265     3985    3                   CALL LIST(OL);

   3985 33 000534   200127 630500                    EPPR0   OL,,AUTO
        33 000535   200210 450500                    STP0    DT3_R+5,,AUTO
        33 000536   200210 630500                    EPPR0   DT3_R+5,,AUTO
        33 000537   000000 631400 34                 EPPR1   0
        33 000540   000000 701000 xent               TSX1    LIST
        33 000541   000000 011000                    NOP     0

      266     3986    3               OL = ' ';

   3986 33 000542   040100 100400                    MLR     fill='040'O
        33 000543   000010 000001 34                 ADSC9   8                        cn=0,n=1
        33 000544   200127 000200                    ADSC9   OL,,AUTO                 cn=0,n=128

      267     3987    3               CALL LIST(OL);

   3987 33 000545   200127 630500                    EPPR0   OL,,AUTO
        33 000546   200210 450500                    STP0    DT3_R+5,,AUTO
        33 000547   200210 630500                    EPPR0   DT3_R+5,,AUTO
        33 000550   000000 631400 34                 EPPR1   0
        33 000551   000000 701000 xent               TSX1    LIST
        33 000552   000000 011000                    NOP     0

      268     3988    3               OL = 'SCHEMA ACTIVITIES REPORT***';

   3988 33 000553   040100 100400                    MLR     fill='040'O
        33 000554   000105 000033 32                 ADSC9   69                       cn=0,n=27
        33 000555   200127 000200                    ADSC9   OL,,AUTO                 cn=0,n=128

PL6.E3A0      #001=DISP File=ZIG$DDX7.:ZIC0TSI                                   FRI 09/05/97 11:53 Page:41
      269     3989    3               CALL LIST(OL);

   3989 33 000556   200127 630500                    EPPR0   OL,,AUTO
        33 000557   200210 450500                    STP0    DT3_R+5,,AUTO
        33 000560   200210 630500                    EPPR0   DT3_R+5,,AUTO
        33 000561   000000 631400 34                 EPPR1   0
        33 000562   000000 701000 xent               TSX1    LIST
        33 000563   000000 011000                    NOP     0

      270     3990    3               OL = ' ';

   3990 33 000564   040100 100400                    MLR     fill='040'O
        33 000565   000010 000001 34                 ADSC9   8                        cn=0,n=1
        33 000566   200127 000200                    ADSC9   OL,,AUTO                 cn=0,n=128

      271     3991    3               CALL LIST(OL);

   3991 33 000567   200127 630500                    EPPR0   OL,,AUTO
        33 000570   200210 450500                    STP0    DT3_R+5,,AUTO
        33 000571   200210 630500                    EPPR0   DT3_R+5,,AUTO
        33 000572   000000 631400 34                 EPPR1   0
        33 000573   000000 701000 xent               TSX1    LIST
        33 000574   000000 011000                    NOP     0

      272     3992    3               DT1.DT_R = DISPS.SACTS_FROM_DATE; /* FROM DATE YYMMDD */

   3992 33 000575   040100 100400                    MLR     fill='040'O
        33 000576   000001 200006 8                  ADSC9   DISPS+1                  cn=1,n=6
        33 000577   200177 200006                    ADSC9   DT1_R,,AUTO              cn=1,n=6

      273     3993    3               DT2.DT_R = DISPS.SACTS_THRU_DATE; /* THRU DATE YYMMDD */

   3993 33 000600   040100 100400                    MLR     fill='040'O
        33 000601   000002 600006 8                  ADSC9   DISPS+2                  cn=3,n=6
        33 000602   200201 200006                    ADSC9   DT2_R,,AUTO              cn=1,n=6

      274     3994    3               DT3.DT_R = UWA.A_D.AD_DATE; /*    CURRENT DATE YYMMDD */
PL6.E3A0      #001=DISP File=ZIG$DDX7.:ZIC0TSI                                   FRI 09/05/97 11:53 Page:42

   3994 33 000603   040100 100400                    MLR     fill='040'O
        33 000604   000171 000006 31                 ADSC9   UWA+121                  cn=0,n=6
        33 000605   200203 200006                    ADSC9   DT3_R,,AUTO              cn=1,n=6

      275     3995    3               IF DT1.DT_R = ' ' THEN /* IF FROM DATE IS BLANK SET... */

   3995 33 000606   040000 106500                    CMPC    fill='040'O
        33 000607   200177 200006                    ADSC9   DT1_R,,AUTO              cn=1,n=6
        33 000610   000010 000001 34                 ADSC9   8                        cn=0,n=1
        33 000611   000616 601000 33                 TNZ     s:3997

      276     3996    3                   DT1_R = ' 000000'; /* DATE TO ZERO & CENT. TO SPACE */

   3996 33 000612   040100 100400                    MLR     fill='040'O
        33 000613   000114 000007 32                 ADSC9   76                       cn=0,n=7
        33 000614   200177 000007                    ADSC9   DT1_R,,AUTO              cn=0,n=7
        33 000615   000633 710000 33                 TRA     s:4000

      277     3997    3               ELSE IF DT1.DT.YR >= '00' AND DT1.DT.YR < '21' THEN

   3997 33 000616   040000 106500                    CMPC    fill='040'O
        33 000617   200177 200002                    ADSC9   DT1_R,,AUTO              cn=1,n=2
        33 000620   000057 000002 32                 ADSC9   47                       cn=0,n=2
        33 000621   000631 602000 33                 TNC     s:3999
        33 000622   040000 106500                    CMPC    fill='040'O
        33 000623   200177 200002                    ADSC9   DT1_R,,AUTO              cn=1,n=2
        33 000624   000116 000002 32                 ADSC9   78                       cn=0,n=2
        33 000625   000631 603000 33                 TRC     s:3999

      278     3998    3                       DT1.CEN = '0';/* ELSE SET CENTURY TO '0' OR ' ' */

   3998 33 000626   060000 236003                    LDQ     24576,DU
        33 000627   200177 552140                    STBQ    DT1_R,'40'O,AUTO
        33 000630   000633 710000 33                 TRA     s:4000

      279     3999    3                   ELSE DT1.CEN = ' ';/* DEPENDING IF 19xx OR 20xx */
PL6.E3A0      #001=DISP File=ZIG$DDX7.:ZIC0TSI                                   FRI 09/05/97 11:53 Page:43

   3999 33 000631   040000 236003                    LDQ     16384,DU
        33 000632   200177 552140                    STBQ    DT1_R,'40'O,AUTO

      280     4000    3               IF DT2.DT_R = ' ' THEN /* IF THRU DATE IS BLANK SET... */

   4000 33 000633   040000 106500                    CMPC    fill='040'O
        33 000634   200201 200006                    ADSC9   DT2_R,,AUTO              cn=1,n=6
        33 000635   000010 000001 34                 ADSC9   8                        cn=0,n=1
        33 000636   000643 601000 33                 TNZ     s:4002

      281     4001    3                   DT2_R = '0191231'; /* DATE TO 0211231 (HIGH VALUES) */

   4001 33 000637   040100 100400                    MLR     fill='040'O
        33 000640   000117 000007 32                 ADSC9   79                       cn=0,n=7
        33 000641   200201 000007                    ADSC9   DT2_R,,AUTO              cn=0,n=7
        33 000642   000660 710000 33                 TRA     s:4005

      282     4002    3               ELSE IF DT2.DT.YR >= '00' AND DT2.DT.YR < '21' THEN

   4002 33 000643   040000 106500                    CMPC    fill='040'O
        33 000644   200201 200002                    ADSC9   DT2_R,,AUTO              cn=1,n=2
        33 000645   000057 000002 32                 ADSC9   47                       cn=0,n=2
        33 000646   000656 602000 33                 TNC     s:4004
        33 000647   040000 106500                    CMPC    fill='040'O
        33 000650   200201 200002                    ADSC9   DT2_R,,AUTO              cn=1,n=2
        33 000651   000116 000002 32                 ADSC9   78                       cn=0,n=2
        33 000652   000656 603000 33                 TRC     s:4004

      283     4003    3                       DT2.CEN = '0';/* ELSE SET CENTURY TO '0' OR ' ' */

   4003 33 000653   060000 236003                    LDQ     24576,DU
        33 000654   200201 552140                    STBQ    DT2_R,'40'O,AUTO
        33 000655   000660 710000 33                 TRA     s:4005

      284     4004    3                   ELSE DT2.CEN = ' ';/* DEPENDING IF 19xx OR 20xx */

PL6.E3A0      #001=DISP File=ZIG$DDX7.:ZIC0TSI                                   FRI 09/05/97 11:53 Page:44
   4004 33 000656   040000 236003                    LDQ     16384,DU
        33 000657   200201 552140                    STBQ    DT2_R,'40'O,AUTO

      285     4005    3               IF DT3.DT.YR >= '00' AND DT3.DT.YR < '21' THEN

   4005 33 000660   040000 106500                    CMPC    fill='040'O
        33 000661   200203 200002                    ADSC9   DT3_R,,AUTO              cn=1,n=2
        33 000662   000057 000002 32                 ADSC9   47                       cn=0,n=2
        33 000663   000673 602000 33                 TNC     s:4007
        33 000664   040000 106500                    CMPC    fill='040'O
        33 000665   200203 200002                    ADSC9   DT3_R,,AUTO              cn=1,n=2
        33 000666   000116 000002 32                 ADSC9   78                       cn=0,n=2
        33 000667   000673 603000 33                 TRC     s:4007

      286     4006    3                   DT3.CEN = '0'; /* SET CENTURY TO '0' OR ' ' */

   4006 33 000670   060000 236003                    LDQ     24576,DU
        33 000671   200203 552140                    STBQ    DT3_R,'40'O,AUTO
        33 000672   000675 710000 33                 TRA     s:4008

      287     4007    3               ELSE DT3.CEN = ' ';/* DEPENDING IF 19xx OR 20xx */

   4007 33 000673   040000 236003                    LDQ     16384,DU
        33 000674   200203 552140                    STBQ    DT3_R,'40'O,AUTO

      288     4008    3               CALL FETCHNS_6('SF-AD   ') ALTRET(LXX);

   4008 33 000675   000026 630400 34                 EPPR0   22
        33 000676   000000 631400 34                 EPPR1   0
        33 000677   000000 701000 xent               TSX1    FETCHNS_6
        33 000700   001031 702000 33                 TSX2    LXX

      289     4009    4               DO WHILE(UWA.DB_STATUS ~= '0502100');

   4009 33 000701   040000 106400                    CMPC    fill='040'O
        33 000702   000001 000007 31                 ADSC9   UWA+1                    cn=0,n=7
        33 000703   000123 000007 32                 ADSC9   83                       cn=0,n=7
PL6.E3A0      #001=DISP File=ZIG$DDX7.:ZIC0TSI                                   FRI 09/05/97 11:53 Page:45
        33 000704   001031 600000 33                 TZE     LXX

      290     4010    4                   IF DT3_R >= DT1_R THEN /* CURRENT DATE >= FROM DATE */

   4010 33 000705   040100 106500                    CMPC    fill='040'O
        33 000706   200203 000007                    ADSC9   DT3_R,,AUTO              cn=0,n=7
        33 000707   200177 000007                    ADSC9   DT1_R,,AUTO              cn=0,n=7
        33 000710   001021 602000 33                 TNC     s:4024

      291     4011    4                       IF DT3_R <= DT2_R THEN /* CUR. DATE <=THRU DATE */

   4011 33 000711   040100 106500                    CMPC    fill='040'O
        33 000712   200201 000007                    ADSC9   DT2_R,,AUTO              cn=0,n=7
        33 000713   200203 000007                    ADSC9   DT3_R,,AUTO              cn=0,n=7
        33 000714   001021 602000 33                 TNC     s:4024

      292     4012    5                       DO;

      293     4013    5                          CALL CONCAT(OL,'FUNCTION: ' , FUNCMESS(UWA.A_D.AD_FUNCTION))
              4013                                    ;

   4013 33 000715   040100 100400                    MLR     fill='040'O
        33 000716   000125 000012 32                 ADSC9   85                       cn=0,n=10
        33 000717   200127 000012                    ADSC9   OL,,AUTO                 cn=0,n=10
        33 000720   000170 236000 31                 LDQ     UWA+120
        33 000721   000036 402007                    MPY     30,DL
        33 000722   040100 100406                    MLR     fill='040'O
        33 000723   000001 000036 3                  ADSC9   FUNCMESS,Q               cn=0,n=30
        33 000724   200131 400166                    ADSC9   OL+2,,AUTO               cn=2,n=118

      294     4014    5                           CALL LIST(OL);

   4014 33 000725   200127 630500                    EPPR0   OL,,AUTO
        33 000726   200210 450500                    STP0    DT3_R+5,,AUTO
        33 000727   200210 630500                    EPPR0   DT3_R+5,,AUTO
        33 000730   000000 631400 34                 EPPR1   0
        33 000731   000000 701000 xent               TSX1    LIST
PL6.E3A0      #001=DISP File=ZIG$DDX7.:ZIC0TSI                                   FRI 09/05/97 11:53 Page:46
        33 000732   000000 011000                    NOP     0

      295     4015    5                           CALL CONCAT(OL,'DATE:     ',SUBSTR(UWA.A_D.AD_DATE,0,6));

   4015 33 000733   040100 100400                    MLR     fill='040'O
        33 000734   000130 000012 32                 ADSC9   88                       cn=0,n=10
        33 000735   200127 000012                    ADSC9   OL,,AUTO                 cn=0,n=10
        33 000736   040100 100400                    MLR     fill='040'O
        33 000737   000171 000006 31                 ADSC9   UWA+121                  cn=0,n=6
        33 000740   200131 400166                    ADSC9   OL+2,,AUTO               cn=2,n=118

      296     4016    5                           CALL LIST(OL);

   4016 33 000741   200127 630500                    EPPR0   OL,,AUTO
        33 000742   200210 450500                    STP0    DT3_R+5,,AUTO
        33 000743   200210 630500                    EPPR0   DT3_R+5,,AUTO
        33 000744   000000 631400 34                 EPPR1   0
        33 000745   000000 701000 xent               TSX1    LIST
        33 000746   000000 011000                    NOP     0

      297     4017    5    CALL CONCAT(OL,'TIME:    ',SUBSTR(UWA.A_D.AD_DATE,6,2),':',SUBSTR(UWA.A_D.AD_DATE,
              4017             8,2),':',SUBSTR(UWA.A_D.AD_DATE,10,2));

   4017 33 000747   040100 100400                    MLR     fill='040'O
        33 000750   000133 000012 32                 ADSC9   91                       cn=0,n=10
        33 000751   200127 000012                    ADSC9   OL,,AUTO                 cn=0,n=10
        33 000752   000172 720000 31                 LXL0    UWA+122
        33 000753   200131 440100                    SXL0    OL+2,,AUTO
        33 000754   072000 236003                    LDQ     29696,DU
        33 000755   200132 552140                    STBQ    OL+3,'40'O,AUTO
        33 000756   000173 236000 31                 LDQ     UWA+123
        33 000757   000011 772000                    QRL     9
        33 000760   200132 552130                    STBQ    OL+3,'30'O,AUTO
        33 000761   000072 236007                    LDQ     58,DL
        33 000762   200132 552104                    STBQ    OL+3,'04'O,AUTO
        33 000763   040100 100400                    MLR     fill='040'O
        33 000764   000173 400002 31                 ADSC9   UWA+123                  cn=2,n=2
PL6.E3A0      #001=DISP File=ZIG$DDX7.:ZIC0TSI                                   FRI 09/05/97 11:53 Page:47
        33 000765   200133 000160                    ADSC9   OL+4,,AUTO               cn=0,n=112

      298     4018    5                           CALL LIST(OL);

   4018 33 000766   200127 630500                    EPPR0   OL,,AUTO
        33 000767   200210 450500                    STP0    DT3_R+5,,AUTO
        33 000770   200210 630500                    EPPR0   DT3_R+5,,AUTO
        33 000771   000000 631400 34                 EPPR1   0
        33 000772   000000 701000 xent               TSX1    LIST
        33 000773   000000 011000                    NOP     0

      299     4019    5                           CALL CONCAT(OL,'IDENT:    ',UWA.A_D.AD_IDENT);

   4019 33 000774   040100 100400                    MLR     fill='040'O
        33 000775   000136 000012 32                 ADSC9   94                       cn=0,n=10
        33 000776   200127 000012                    ADSC9   OL,,AUTO                 cn=0,n=10
        33 000777   040100 100400                    MLR     fill='040'O
        33 001000   000174 000074 31                 ADSC9   UWA+124                  cn=0,n=60
        33 001001   200131 400166                    ADSC9   OL+2,,AUTO               cn=2,n=118

      300     4020    5                           CALL LIST(OL);

   4020 33 001002   200127 630500                    EPPR0   OL,,AUTO
        33 001003   200210 450500                    STP0    DT3_R+5,,AUTO
        33 001004   200210 630500                    EPPR0   DT3_R+5,,AUTO
        33 001005   000000 631400 34                 EPPR1   0
        33 001006   000000 701000 xent               TSX1    LIST
        33 001007   000000 011000                    NOP     0

      301     4021    5                           OL = ' ';

   4021 33 001010   040100 100400                    MLR     fill='040'O
        33 001011   000010 000001 34                 ADSC9   8                        cn=0,n=1
        33 001012   200127 000200                    ADSC9   OL,,AUTO                 cn=0,n=128

      302     4022    5                           CALL LIST(OL);

PL6.E3A0      #001=DISP File=ZIG$DDX7.:ZIC0TSI                                   FRI 09/05/97 11:53 Page:48
   4022 33 001013   200127 630500                    EPPR0   OL,,AUTO
        33 001014   200210 450500                    STP0    DT3_R+5,,AUTO
        33 001015   200210 630500                    EPPR0   DT3_R+5,,AUTO
        33 001016   000000 631400 34                 EPPR1   0
        33 001017   000000 701000 xent               TSX1    LIST
        33 001020   000000 011000                    NOP     0

      303     4023    5                           END;

      304     4024    4                   CALL FETCHNS_6('SF-AD   ') ALTRET(LYY);

   4024 33 001021   000026 630400 34                 EPPR0   22
        33 001022   000000 631400 34                 EPPR1   0
        33 001023   000000 701000 xent               TSX1    FETCHNS_6
        33 001024   001047 702000 33                 TSX2    LYY

      305     4025    4                   END;

   4025 33 001025   040000 106400                    CMPC    fill='040'O
        33 001026   000001 000007 31                 ADSC9   UWA+1                    cn=0,n=7
        33 001027   000123 000007 32                 ADSC9   83                       cn=0,n=7
        33 001030   000705 601000 33                 TNZ     s:4010

      306     4026    3   LXX:
      307     4027    4               IF UWA.DB_STATUS ~= '0502100' THEN DO; /* */

   4027 33 001031   040000 106400       LXX          CMPC    fill='040'O
        33 001032   000001 000007 31                 ADSC9   UWA+1                    cn=0,n=7
        33 001033   000123 000007 32                 ADSC9   83                       cn=0,n=7
        33 001034   001047 600000 33                 TZE     LYY

      308     4028    4                   OL = 'NO SCHEMA ACTIVITIES RECORDED';

   4028 33 001035   040100 100400                    MLR     fill='040'O
        33 001036   000141 000035 32                 ADSC9   97                       cn=0,n=29
        33 001037   200127 000200                    ADSC9   OL,,AUTO                 cn=0,n=128

PL6.E3A0      #001=DISP File=ZIG$DDX7.:ZIC0TSI                                   FRI 09/05/97 11:53 Page:49
      309     4029    4                   CALL LIST(OL);

   4029 33 001040   200127 630500                    EPPR0   OL,,AUTO
        33 001041   200210 450500                    STP0    DT3_R+5,,AUTO
        33 001042   200210 630500                    EPPR0   DT3_R+5,,AUTO
        33 001043   000000 631400 34                 EPPR1   0
        33 001044   000000 701000 xent               TSX1    LIST
        33 001045   000000 011000                    NOP     0

      310     4030    4                   END;

   4030 33 001046   001076 710000 33                 TRA     SUB_DISP

      311     4031    3               ELSE /* */
      312     4032    3   LYY:
      313     4033    3                   IF UWA.DB_STATUS ~= '0502100' THEN /* */

   4033 33 001047   040000 106400       LYY          CMPC    fill='040'O
        33 001050   000001 000007 31                 ADSC9   UWA+1                    cn=0,n=7
        33 001051   000123 000007 32                 ADSC9   83                       cn=0,n=7
        33 001052   001065 600000 33                 TZE     s:4040

      314     4034    4                   DO;

      315     4035    4                       OL = 'IDS2 ERROR, - ACTIVITIES REPORT SUSPENDED';

   4035 33 001053   040100 100400                    MLR     fill='040'O
        33 001054   000151 000051 32                 ADSC9   105                      cn=0,n=41
        33 001055   200127 000200                    ADSC9   OL,,AUTO                 cn=0,n=128

      316     4036    4                       CALL LIST(OL);

   4036 33 001056   200127 630500                    EPPR0   OL,,AUTO
        33 001057   200210 450500                    STP0    DT3_R+5,,AUTO
        33 001060   200210 630500                    EPPR0   DT3_R+5,,AUTO
        33 001061   000000 631400 34                 EPPR1   0
        33 001062   000000 701000 xent               TSX1    LIST
PL6.E3A0      #001=DISP File=ZIG$DDX7.:ZIC0TSI                                   FRI 09/05/97 11:53 Page:50
        33 001063   000000 011000                    NOP     0

      317     4037    4                       GOTO DBCSERR;

   4037 33 001064   001565 710000 33                 TRA     DBCSERR

      318     4038    4                       END;
      319     4039    4                   ELSE DO; /* */

      320     4040    4                       OL = 'END OF SCHEMA ACTIVITIES REPORT';

   4040 33 001065   040100 100400                    MLR     fill='040'O
        33 001066   000164 000037 32                 ADSC9   116                      cn=0,n=31
        33 001067   200127 000200                    ADSC9   OL,,AUTO                 cn=0,n=128

      321     4041    4                       CALL LIST(OL);

   4041 33 001070   200127 630500                    EPPR0   OL,,AUTO
        33 001071   200210 450500                    STP0    DT3_R+5,,AUTO
        33 001072   200210 630500                    EPPR0   DT3_R+5,,AUTO
        33 001073   000000 631400 34                 EPPR1   0
        33 001074   000000 701000 xent               TSX1    LIST
        33 001075   000000 011000                    NOP     0

      322     4042    4                       END;

      323     4043    3               END;

      324     4044    2           END;

      325     4045         /* Print major heading */
      326     4046    1   SUB_DISP:
      327     4047    1       IF DISPS.SUBSCHEMA_DISP = '1'B THEN /* */

   4047 33 001076   000000 236000 8     SUB_DISP     LDQ     DISPS
        33 001077   020000 316003                    CANQ    8192,DU
        33 001100   001541 600000 33                 TZE     s:4139
PL6.E3A0      #001=DISP File=ZIG$DDX7.:ZIC0TSI                                   FRI 09/05/97 11:53 Page:51

      328     4048    2       DO;

      329     4049    2           BUFFPTR = ADDR(CONTROL);

   4049 33 001101   000027 236000 34                 LDQ     23
        33 001102   200025 756100                    STQ     BUFFPTR,,AUTO

      330     4050         /* / read control segment */
      331     4051    2           CALL READ64(0, BUFFPTR);

   4051 33 001103   200025 630500                    EPPR0   BUFFPTR,,AUTO
        33 001104   200211 450500                    STP0    DT3_R+6,,AUTO
        33 001105   000031 236000 34                 LDQ     25
        33 001106   200210 756100                    STQ     DT3_R+5,,AUTO
        33 001107   200210 630500                    EPPR0   DT3_R+5,,AUTO
        33 001110   000001 631400 34                 EPPR1   1
        33 001111   000000 701000 xent               TSX1    READ64
        33 001112   000000 011000                    NOP     0

      332     4052    2           OL = '****';

   4052 33 001113   040100 100400                    MLR     fill='040'O
        33 001114   000073 000004 32                 ADSC9   59                       cn=0,n=4
        33 001115   200127 000200                    ADSC9   OL,,AUTO                 cn=0,n=128

      333     4053    2           IF FRST_TIME THEN FRST_TIME = '0'B;

   4053 33 001116   000245 234000 3                  SZN     FRST_TIME
        33 001117   001122 605000 33                 TPL     s:4054

   4053 33 001120   000245 450000 3                  STZ     FRST_TIME
        33 001121   001130 710000 33                 TRA     s:4055

      334     4054    2           ELSE CALL LIST(OL);

   4054 33 001122   200127 630500                    EPPR0   OL,,AUTO
PL6.E3A0      #001=DISP File=ZIG$DDX7.:ZIC0TSI                                   FRI 09/05/97 11:53 Page:52
        33 001123   200210 450500                    STP0    DT3_R+5,,AUTO
        33 001124   200210 630500                    EPPR0   DT3_R+5,,AUTO
        33 001125   000000 631400 34                 EPPR1   0
        33 001126   000000 701000 xent               TSX1    LIST
        33 001127   000000 011000                    NOP     0

      335     4055    2           OL = ' ';

   4055 33 001130   040100 100400                    MLR     fill='040'O
        33 001131   000010 000001 34                 ADSC9   8                        cn=0,n=1
        33 001132   200127 000200                    ADSC9   OL,,AUTO                 cn=0,n=128

      336     4056    2           CALL LIST(OL);

   4056 33 001133   200127 630500                    EPPR0   OL,,AUTO
        33 001134   200210 450500                    STP0    DT3_R+5,,AUTO
        33 001135   200210 630500                    EPPR0   DT3_R+5,,AUTO
        33 001136   000000 631400 34                 EPPR1   0
        33 001137   000000 701000 xent               TSX1    LIST
        33 001140   000000 011000                    NOP     0

      337     4057    2           CALL LANGT;

   4057 33 001141   001571 701000 33                 TSX1    LANGT
        33 001142   000000 011000                    NOP     0

      338     4058    2           CALL CONCAT(OL,LANG,'SUBSCHEMA TEXT LISTING***');

   4058 33 001143   200074 470500                    LDP0    LANG$,,AUTO
        33 001144   200073 220100                    LDX0    LANG_LEN,,AUTO
        33 001145   040100 100540                    MLR     fill='040'O
        33 001146   000000 000010                    ADSC9   0,,PR0                   cn=0,n=*X0
        33 001147   200127 000200                    ADSC9   OL,,AUTO                 cn=0,n=128
        33 001150   200073 236100                    LDQ     LANG_LEN,,AUTO
        33 001151   000022 772000                    QRL     18
        33 001152   000200 116007                    CMPQ    128,DL
        33 001153   001161 603000 33                 TRC     s:4059
PL6.E3A0      #001=DISP File=ZIG$DDX7.:ZIC0TSI                                   FRI 09/05/97 11:53 Page:53
        33 001154   777577 621006                    EAX1    -129,QL
        33 001155   777777 661003                    ERX1    -1,DU
        33 001156   040146 100400                    MLR     fill='040'O
        33 001157   000174 000031 32                 ADSC9   124                      cn=0,n=25
        33 001160   200127 000011                    ADSC9   OL,Q,AUTO                cn=0,n=*X1

      339     4059    2           OL = ' ';

   4059 33 001161   040100 100400                    MLR     fill='040'O
        33 001162   000010 000001 34                 ADSC9   8                        cn=0,n=1
        33 001163   200127 000200                    ADSC9   OL,,AUTO                 cn=0,n=128

      340     4060    2           CALL LIST(OL);

   4060 33 001164   200127 631500                    EPPR1   OL,,AUTO
        33 001165   200210 451500                    STP1    DT3_R+5,,AUTO
        33 001166   200210 630500                    EPPR0   DT3_R+5,,AUTO
        33 001167   000000 631400 34                 EPPR1   0
        33 001170   000000 701000 xent               TSX1    LIST
        33 001171   000000 011000                    NOP     0

      341     4061    2           IF CONTROL.TYPE30 ~= 30 & CONTROL.TYPE100 ~= 100 THEN /* */

   4061 33 001172   400000 220003                    LDX0    -131072,DU
        33 001173   000003 235000 4                  LDA     CONTROL+3
        33 001174   000036 115007                    CMPA    30,DL
        33 001175   001177 601000 33                 TNZ     s:4061+5
        33 001176   000000 220003                    LDX0    0,DU
        33 001177   400000 221003                    LDX1    -131072,DU
        33 001200   000040 236000 4                  LDQ     CONTROL+32
        33 001201   000144 116007                    CMPQ    100,DL
        33 001202   001204 601000 33                 TNZ     s:4061+10
        33 001203   000000 221003                    LDX1    0,DU
        33 001204   000000 636011                    EAQ     0,X1
        33 001205   200210 756100                    STQ     DT3_R+5,,AUTO
        33 001206   000000 636010                    EAQ     0,X0
        33 001207   200210 376100                    ANQ     DT3_R+5,,AUTO
PL6.E3A0      #001=DISP File=ZIG$DDX7.:ZIC0TSI                                   FRI 09/05/97 11:53 Page:54
        33 001210   001215 600000 33                 TZE     s:4066

      342     4062    3           DO;

      343     4063    3               OL = '6* NOT RECOGNIZED AS SUBSCHEMA FILE';

   4063 33 001211   040100 100400                    MLR     fill='040'O
        33 001212   000203 000043 32                 ADSC9   131                      cn=0,n=35
        33 001213   200127 000200                    ADSC9   OL,,AUTO                 cn=0,n=128

      344     4064    3               RETURN;

   4064 33 001214   000000 702200 xent               TSX2  ! X66_ARET

      345     4065    3               END;
      346     4066    2           IF DISPS.SSNAME ~= ' ' THEN /* */

   4066 33 001215   040000 106400                    CMPC    fill='040'O
        33 001216   000017 200036 8                  ADSC9   DISPS+15                 cn=1,n=30
        33 001217   000010 000001 34                 ADSC9   8                        cn=0,n=1
        33 001220   001244 600000 33                 TZE     s:4076

      347     4067    3           DO;

      348     4068    3               SSSNAME = DISPS.SSNAME;

   4068 33 001221   040000 100400                    MLR     fill='040'O
        33 001222   000017 200036 8                  ADSC9   DISPS+15                 cn=1,n=30
        33 001223   000202 000036 3                  ADSC9   SSSNAME                  cn=0,n=30

      349     4069    3               CALL INDEX1(X,'_',SSSNAME);

   4069 33 001224   000000 124400                    SCM     mask='000'O
        33 001225   000202 000036 3                  ADSC9   SSSNAME                  cn=0,n=30
        33 001226   000032 000001 34                 ADSC9   26                       cn=0,n=1
        33 001227   000000 000000 3                  ARG     X

PL6.E3A0      #001=DISP File=ZIG$DDX7.:ZIC0TSI                                   FRI 09/05/97 11:53 Page:55
      350     4070    4               DO WHILE(X ~= LENGTHC(SSSNAME));

   4070 33 001230   001241 710000 33                 TRA     s:4073

      351     4071    4                   CALL INSERT(SSSNAME,X,1,'-');

   4071 33 001231   000000 235000 3                  LDA     X
        33 001232   040005 100400                    MLR     fill='040'O
        33 001233   000033 000001 34                 ADSC9   27                       cn=0,n=1
        33 001234   000202 000001 3                  ADSC9   SSSNAME,A                cn=0,n=1

      352     4072    4                   CALL INDEX1(X,'_',SSSNAME);

   4072 33 001235   000000 124400                    SCM     mask='000'O
        33 001236   000202 000036 3                  ADSC9   SSSNAME                  cn=0,n=30
        33 001237   000032 000001 34                 ADSC9   26                       cn=0,n=1
        33 001240   000000 000000 3                  ARG     X

      353     4073    4                   END;

   4073 33 001241   000000 235000 3                  LDA     X
        33 001242   000036 115007                    CMPA    30,DL
        33 001243   001231 601000 33                 TNZ     s:4071

      354     4074    3               END;

      355     4075         /* check fortran include option bit */
      356     4076    2           IF DISPS.SSDISP_TYPES.FORT_INCL THEN

   4076 33 001244   000000 430000 8                  FSZN    DISPS
        33 001245   001254 605000 33                 TPL     s:4083

      357     4077    3           DO;

      358     4078    3               CALL ZIG$V_DESC;

   4078 33 001246   000030 631400 34                 EPPR1   24
PL6.E3A0      #001=DISP File=ZIG$DDX7.:ZIC0TSI                                   FRI 09/05/97 11:53 Page:56
        33 001247   000000 701000 xent               TSX1    ZIG$V_DESC
        33 001250   000000 011000                    NOP     0

      359     4079    3               DISPS.SSDISP_TYPES.FORT_INCL = '0'B;

   4079 33 001251   000034 236000 34                 LDQ     28
        33 001252   000000 356000 8                  ANSQ    DISPS

      360     4080    3               GOTO FINISH_DISP;

   4080 33 001253   001712 710000 33                 TRA     FINISH_DISP

      361     4081    3               END;
      362     4082         /* Print subheading */
      363     4083    2           OL = ' ';

   4083 33 001254   040100 100400                    MLR     fill='040'O
        33 001255   000010 000001 34                 ADSC9   8                        cn=0,n=1
        33 001256   200127 000200                    ADSC9   OL,,AUTO                 cn=0,n=128

      364     4084    2           CALL LIST(OL);

   4084 33 001257   200127 630500                    EPPR0   OL,,AUTO
        33 001260   200210 450500                    STP0    DT3_R+5,,AUTO
        33 001261   200210 630500                    EPPR0   DT3_R+5,,AUTO
        33 001262   000000 631400 34                 EPPR1   0
        33 001263   000000 701000 xent               TSX1    LIST
        33 001264   000000 011000                    NOP     0

      365     4085    2           CALL CONCAT(OL,'     SUBSCHEMA NAME IS ',SSSNAME);

   4085 33 001265   040100 100400                    MLR     fill='040'O
        33 001266   000214 000027 32                 ADSC9   140                      cn=0,n=23
        33 001267   200127 000027                    ADSC9   OL,,AUTO                 cn=0,n=23
        33 001270   040100 100400                    MLR     fill='040'O
        33 001271   000202 000036 3                  ADSC9   SSSNAME                  cn=0,n=30
        33 001272   200134 600151                    ADSC9   OL+5,,AUTO               cn=3,n=105
PL6.E3A0      #001=DISP File=ZIG$DDX7.:ZIC0TSI                                   FRI 09/05/97 11:53 Page:57

      366     4086    2           CALL LIST(OL);

   4086 33 001273   200127 630500                    EPPR0   OL,,AUTO
        33 001274   200210 450500                    STP0    DT3_R+5,,AUTO
        33 001275   200210 630500                    EPPR0   DT3_R+5,,AUTO
        33 001276   000000 631400 34                 EPPR1   0
        33 001277   000000 701000 xent               TSX1    LIST
        33 001300   000000 011000                    NOP     0

      367     4087    2           CALL CONCAT(OL,'SCHEMA NAME IS ',DISPS.SNAME);

   4087 33 001301   040100 100400                    MLR     fill='040'O
        33 001302   000216 000017 32                 ADSC9   142                      cn=0,n=15
        33 001303   200127 000017                    ADSC9   OL,,AUTO                 cn=0,n=15
        33 001304   040100 100400                    MLR     fill='040'O
        33 001305   000007 600036 8                  ADSC9   DISPS+7                  cn=3,n=30
        33 001306   200132 600161                    ADSC9   OL+3,,AUTO               cn=3,n=113

      368     4088    2           CALL LIST(OL);

   4088 33 001307   200127 630500                    EPPR0   OL,,AUTO
        33 001310   200210 450500                    STP0    DT3_R+5,,AUTO
        33 001311   200210 630500                    EPPR0   DT3_R+5,,AUTO
        33 001312   000000 631400 34                 EPPR1   0
        33 001313   000000 701000 xent               TSX1    LIST
        33 001314   000000 011000                    NOP     0

      369     4089         /* Print translation status */
      370     4090    2           IF CONTROL.TRANSLATION_STATUS = 1 THEN /* */

   4090 33 001315   000001 235000 4                  LDA     CONTROL+1
        33 001316   000001 115007                    CMPA    1,DL
        33 001317   001324 601000 33                 TNZ     s:4093

      371     4091    2               TS ='UNSUCCESSFUL';

PL6.E3A0      #001=DISP File=ZIG$DDX7.:ZIC0TSI                                   FRI 09/05/97 11:53 Page:58
   4091 33 001320   040100 100400                    MLR     fill='040'O
        33 001321   000222 000014 32                 ADSC9   146                      cn=0,n=12
        33 001322   200027 000014                    ADSC9   TS,,AUTO                 cn=0,n=12
        33 001323   001327 710000 33                 TRA     s:4094

      372     4092    2           ELSE /* */
      373     4093    2               TS = 'SUCCESSFUL';

   4093 33 001324   040100 100400                    MLR     fill='040'O
        33 001325   000225 000012 32                 ADSC9   149                      cn=0,n=10
        33 001326   200027 000014                    ADSC9   TS,,AUTO                 cn=0,n=12

      374     4094    2           CALL UN_TIME(CONTROL.SUBSCHEMA_UTS,DATE_,DAY_,TIME_);

   4094 33 001327   200173 630500                    EPPR0   TIME_,,AUTO
        33 001330   200213 450500                    STP0    DT3_R+8,,AUTO
        33 001331   200176 631500                    EPPR1   DAY_,,AUTO
        33 001332   200212 451500                    STP1    DT3_R+7,,AUTO
        33 001333   200170 633500                    EPPR3   DATE_,,AUTO
        33 001334   200211 453500                    STP3    DT3_R+6,,AUTO
        33 001335   000036 236000 34                 LDQ     30
        33 001336   200210 756100                    STQ     DT3_R+5,,AUTO
        33 001337   200210 630500                    EPPR0   DT3_R+5,,AUTO
        33 001340   000035 631400 34                 EPPR1   29
        33 001341   000000 701000 xent               TSX1    UN_TIME
        33 001342   000000 011000                    NOP     0

      375     4095    2          CALL CONCAT(OL_RDEF.C67,'SUBSCHEMA TRANSLATION WAS ',TS,' ON ',DATE_,' AT ',
              4095                    TIME_);

   4095 33 001343   040100 100400                    MLR     fill='040'O
        33 001344   000230 000032 32                 ADSC9   152                      cn=0,n=26
        33 001345   200127 000032                    ADSC9   OL,,AUTO                 cn=0,n=26
        33 001346   040100 100500                    MLR     fill='040'O
        33 001347   200027 000014                    ADSC9   TS,,AUTO                 cn=0,n=12
        33 001350   200135 400014                    ADSC9   OL+6,,AUTO               cn=2,n=12
        33 001351   040100 100400                    MLR     fill='040'O
PL6.E3A0      #001=DISP File=ZIG$DDX7.:ZIC0TSI                                   FRI 09/05/97 11:53 Page:59
        33 001352   000067 000004 32                 ADSC9   55                       cn=0,n=4
        33 001353   200140 400004                    ADSC9   OL+9,,AUTO               cn=2,n=4
        33 001354   040100 100500                    MLR     fill='040'O
        33 001355   200170 000012                    ADSC9   DATE_,,AUTO              cn=0,n=10
        33 001356   200141 400012                    ADSC9   OL+10,,AUTO              cn=2,n=10
        33 001357   000237 236000 32                 LDQ     159
        33 001360   200144 756100                    STQ     OL+13,,AUTO
        33 001361   040100 100500                    MLR     fill='040'O
        33 001362   200173 000013                    ADSC9   TIME_,,AUTO              cn=0,n=11
        33 001363   200145 000013                    ADSC9   OL+14,,AUTO              cn=0,n=11

      376     4096    2           OL_RDEF.C61 = ' HRS.';

   4096 33 001364   040100 100400                    MLR     fill='040'O
        33 001365   000240 000005 32                 ADSC9   160                      cn=0,n=5
        33 001366   200147 600075                    ADSC9   OL+16,,AUTO              cn=3,n=61

      377     4097    2           CALL LIST(OL);

   4097 33 001367   200127 630500                    EPPR0   OL,,AUTO
        33 001370   200210 450500                    STP0    DT3_R+5,,AUTO
        33 001371   200210 630500                    EPPR0   DT3_R+5,,AUTO
        33 001372   000000 631400 34                 EPPR1   0
        33 001373   000000 701000 xent               TSX1    LIST
        33 001374   000000 011000                    NOP     0

      378     4098    2           CALL CONCAT(OL,'LANGUAGE IS ',LANG);

   4098 33 001375   040100 100400                    MLR     fill='040'O
        33 001376   000242 000014 32                 ADSC9   162                      cn=0,n=12
        33 001377   200127 000014                    ADSC9   OL,,AUTO                 cn=0,n=12
        33 001400   200074 470500                    LDP0    LANG$,,AUTO
        33 001401   200073 220100                    LDX0    LANG_LEN,,AUTO
        33 001402   040100 100540                    MLR     fill='040'O
        33 001403   000000 000010                    ADSC9   0,,PR0                   cn=0,n=*X0
        33 001404   200132 000164                    ADSC9   OL+3,,AUTO               cn=0,n=116

PL6.E3A0      #001=DISP File=ZIG$DDX7.:ZIC0TSI                                   FRI 09/05/97 11:53 Page:60
      379     4099    2           CALL LIST(OL);

   4099 33 001405   200127 630500                    EPPR0   OL,,AUTO
        33 001406   200210 450500                    STP0    DT3_R+5,,AUTO
        33 001407   200210 630500                    EPPR0   DT3_R+5,,AUTO
        33 001410   000000 631400 34                 EPPR1   0
        33 001411   000000 701000 xent               TSX1    LIST
        33 001412   000000 011000                    NOP     0

      380     4100    2           OL = ' ';

   4100 33 001413   040100 100400                    MLR     fill='040'O
        33 001414   000010 000001 34                 ADSC9   8                        cn=0,n=1
        33 001415   200127 000200                    ADSC9   OL,,AUTO                 cn=0,n=128

      381     4101    2           CALL LIST (OL);

   4101 33 001416   200127 630500                    EPPR0   OL,,AUTO
        33 001417   200210 450500                    STP0    DT3_R+5,,AUTO
        33 001420   200210 630500                    EPPR0   DT3_R+5,,AUTO
        33 001421   000000 631400 34                 EPPR1   0
        33 001422   000000 701000 xent               TSX1    LIST
        33 001423   000000 011000                    NOP     0

      382     4102         /* Produce listing of subschema text */
      383     4103    2           RECNO2 = CONTROL.FIRST_NF_RECORD ;

   4103 33 001424   000074 235000 4                  LDA     CONTROL+60
        33 001425   200011 755100                    STA     RECNO2,,AUTO

      384     4104    2           BP = MOD (RECNO2, 2);

   4104 33 001426   200011 236100                    LDQ     RECNO2,,AUTO
        33 001427   000001 376007                    ANQ     1,DL
        33 001430   200012 756100                    STQ     BP,,AUTO

      385     4105    2           RECNO2 = RECNO2/2;
PL6.E3A0      #001=DISP File=ZIG$DDX7.:ZIC0TSI                                   FRI 09/05/97 11:53 Page:61

   4105 33 001431   200011 236100                    LDQ     RECNO2,,AUTO
        33 001432   000001 772000                    QRL     1
        33 001433   200011 756100                    STQ     RECNO2,,AUTO

      386     4106    2           CALL READ64(RECNO2 , BUFFPTR);

   4106 33 001434   200025 630500                    EPPR0   BUFFPTR,,AUTO
        33 001435   200211 450500                    STP0    DT3_R+6,,AUTO
        33 001436   200011 631500                    EPPR1   RECNO2,,AUTO
        33 001437   200210 451500                    STP1    DT3_R+5,,AUTO
        33 001440   200210 630500                    EPPR0   DT3_R+5,,AUTO
        33 001441   000001 631400 34                 EPPR1   1
        33 001442   000000 701000 xent               TSX1    READ64
        33 001443   000000 011000                    NOP     0

      387     4107    3           DO WHILE (RECNO2 ~= 0);

   4107 33 001444   200011 235100                    LDA     RECNO2,,AUTO
        33 001445   001541 600000 33                 TZE     s:4139

      388     4108    3               IF BP ~= 0 THEN /* */

   4108 33 001446   200012 235100                    LDA     BP,,AUTO
        33 001447   001453 600000 33                 TZE     s:4111

      389     4109    3                   BLKPTR = ADDR(CONTROL.TYPE100) ;

   4109 33 001450   000037 236000 34                 LDQ     31
        33 001451   200024 756100                    STQ     BLKPTR,,AUTO
        33 001452   001455 710000 33                 TRA     s:4112

      390     4110    3               ELSE /* */
      391     4111    3                   BLKPTR = BUFFPTR ;

   4111 33 001453   200025 236100                    LDQ     BUFFPTR,,AUTO
        33 001454   200024 756100                    STQ     BLKPTR,,AUTO
PL6.E3A0      #001=DISP File=ZIG$DDX7.:ZIC0TSI                                   FRI 09/05/97 11:53 Page:62

      392     4112    3               IF TEXT.TYPE = 6 THEN /* */

   4112 33 001455   200024 470500                    LDP0    BLKPTR,,AUTO
        33 001456   000003 235100                    LDA     3,,PR0
        33 001457   000006 115007                    CMPA    6,DL
        33 001460   001476 601000 33                 TNZ     s:4119

      393     4113         /* Print text */
      394     4114    4               DO;

      395     4115    4                   OL = SUBSTR(TEXT.BUFF, 0, TEXT.CNT - 1);

   4115 33 001461   000005 720100                    LXL0    5,,PR0
        33 001462   777777 621010                    EAX1    -1,X0
        33 001463   040100 100540                    MLR     fill='040'O
        33 001464   000006 000011                    ADSC9   6,,PR0                   cn=0,n=*X1
        33 001465   200127 000200                    ADSC9   OL,,AUTO                 cn=0,n=128

      396     4116    4                   CALL LIST(OL);

   4116 33 001466   200127 631500                    EPPR1   OL,,AUTO
        33 001467   200210 451500                    STP1    DT3_R+5,,AUTO
        33 001470   200210 630500                    EPPR0   DT3_R+5,,AUTO
        33 001471   000000 631400 34                 EPPR1   0
        33 001472   000000 701000 xent               TSX1    LIST
        33 001473   000000 011000                    NOP     0

      397     4117    4                   CALL WRITE_USER_FILE;

   4117 33 001474   001647 701000 33                 TSX1    WRITE_USER_FILE
        33 001475   000000 011000                    NOP     0

      398     4118    4                   END;

      399     4119    3               IF EOF_REC.EOF_WD ~= '/*/*/*/*/*/*' THEN /* */

PL6.E3A0      #001=DISP File=ZIG$DDX7.:ZIC0TSI                                   FRI 09/05/97 11:53 Page:63
   4119 33 001476   200024 470500                    LDP0    BLKPTR,,AUTO
        33 001477   040000 106500                    CMPC    fill='040'O
        33 001500   000000 000014                    ADSC9   0,,PR0                   cn=0,n=12
        33 001501   000245 000014 32                 ADSC9   165                      cn=0,n=12
        33 001502   001525 600000 33                 TZE     s:4133

      400     4120    4               DO;

      401     4121    4                   IF BP = 0 THEN /* */

   4121 33 001503   200012 235100                    LDA     BP,,AUTO
        33 001504   001510 601000 33                 TNZ     s:4125

      402     4122    4                       BP = 1 ;

   4122 33 001505   000001 236007                    LDQ     1,DL
        33 001506   200012 756100                    STQ     BP,,AUTO
        33 001507   001537 710000 33                 TRA     s:4137

      403     4123    4                   ELSE /* */
      404     4124    5                   DO ;

      405     4125    5                       RECNO2= RECNO2+ 1;

   4125 33 001510   200011 236100                    LDQ     RECNO2,,AUTO
        33 001511   000001 036007                    ADLQ    1,DL
        33 001512   200011 756100                    STQ     RECNO2,,AUTO

      406     4126    5                       BP = 0;

   4126 33 001513   200012 450100                    STZ     BP,,AUTO

      407     4127    5                       CALL READ64(RECNO2 , BUFFPTR);

   4127 33 001514   200025 631500                    EPPR1   BUFFPTR,,AUTO
        33 001515   200211 451500                    STP1    DT3_R+6,,AUTO
        33 001516   200011 633500                    EPPR3   RECNO2,,AUTO
PL6.E3A0      #001=DISP File=ZIG$DDX7.:ZIC0TSI                                   FRI 09/05/97 11:53 Page:64
        33 001517   200210 453500                    STP3    DT3_R+5,,AUTO
        33 001520   200210 630500                    EPPR0   DT3_R+5,,AUTO
        33 001521   000001 631400 34                 EPPR1   1
        33 001522   000000 701000 xent               TSX1    READ64
        33 001523   000000 011000                    NOP     0

      408     4128    5                       END;

      409     4129    4                   END;

   4129 33 001524   001537 710000 33                 TRA     s:4137

      410     4130    3               ELSE /* */
      411     4131    4               DO;

      412     4132        /* End of file                                                        */
      413     4133    4                   OL = 'END OF SUBSCHEMA TEXT ';

   4133 33 001525   040100 100400                    MLR     fill='040'O
        33 001526   000250 000026 32                 ADSC9   168                      cn=0,n=22
        33 001527   200127 000200                    ADSC9   OL,,AUTO                 cn=0,n=128

      414     4134    4                   CALL LIST(OL);

   4134 33 001530   200127 631500                    EPPR1   OL,,AUTO
        33 001531   200210 451500                    STP1    DT3_R+5,,AUTO
        33 001532   200210 630500                    EPPR0   DT3_R+5,,AUTO
        33 001533   000000 631400 34                 EPPR1   0
        33 001534   000000 701000 xent               TSX1    LIST
        33 001535   000000 011000                    NOP     0

      415     4135    4                   RECNO2 = 0;

   4135 33 001536   200011 450100                    STZ     RECNO2,,AUTO

      416     4136    4                   END;

PL6.E3A0      #001=DISP File=ZIG$DDX7.:ZIC0TSI                                   FRI 09/05/97 11:53 Page:65
      417     4137    3               END;

   4137 33 001537   200011 235100                    LDA     RECNO2,,AUTO
        33 001540   001446 601000 33                 TNZ     s:4108

      418     4138    2           END;

      419     4139    1       RETURN;

   4139 33 001541   000000 702200 xent               TSX2  ! X66_ARET

      420     4140    1   L3:
      421     4141    1       IF UWA.DB_STATUS ~= '0502100' THEN /* */

   4141 33 001542   040000 106400       L3           CMPC    fill='040'O
        33 001543   000001 000007 31                 ADSC9   UWA+1                    cn=0,n=7
        33 001544   000123 000007 32                 ADSC9   83                       cn=0,n=7
        33 001545   001565 601000 33                 TNZ     DBCSERR

      422     4142    1           GOTO DBCSERR;
      423     4143    1       IF LK3 = 0 THEN /* */

   4143 33 001546   200072 220100                    LDX0    LK3,,AUTO
        33 001547   000156 600000 33                 TZE     B2

      424     4144    1           GOTO B2;
      425     4145    1       CALL CONCAT(OL,'ILLEGAL PRIVACY KEY FOR DISPLAY - ',DISPS.DISP_KEY);

   4145 33 001550   040100 100400                    MLR     fill='040'O
        33 001551   000256 000042 32                 ADSC9   174                      cn=0,n=34
        33 001552   200127 000042                    ADSC9   OL,,AUTO                 cn=0,n=34
        33 001553   040100 100400                    MLR     fill='040'O
        33 001554   000004 600014 8                  ADSC9   DISPS+4                  cn=3,n=12
        33 001555   200137 400136                    ADSC9   OL+8,,AUTO               cn=2,n=94

      426     4146    1       CALL LIST(OL);

PL6.E3A0      #001=DISP File=ZIG$DDX7.:ZIC0TSI                                   FRI 09/05/97 11:53 Page:66
   4146 33 001556   200127 630500                    EPPR0   OL,,AUTO
        33 001557   200210 450500                    STP0    DT3_R+5,,AUTO
        33 001560   200210 630500                    EPPR0   DT3_R+5,,AUTO
        33 001561   000000 631400 34                 EPPR1   0
        33 001562   000000 701000 xent               TSX1    LIST
        33 001563   000000 011000                    NOP     0

      427     4147    1       RETURN;

   4147 33 001564   000000 702200 xent               TSX2  ! X66_ARET

      428     4148    1   DBCSERR: CALL ABORT;

   4148 33 001565   000030 631400 34    DBCSERR      EPPR1   24
        33 001566   000000 701000 xent               TSX1    ABORT
        33 001567   000000 011000                    NOP     0
        33 001570   001712 710000 33                 TRA     FINISH_DISP

      429     4149    1   LANGT: PROC;

   4149 33 001571   200206 741300       LANGT        STX1  ! DT3_R+3,,AUTO

      430     4150    3       DO CASE(CONTROL.LANGUAGE);

   4150 33 001572   000041 235000 4                  LDA     CONTROL+33
        33 001573   000005 115007                    CMPA    5,DL
        33 001574   001576 602005 33                 TNC     s:4150+4,AL
        33 001575   001637 710000 33                 TRA     s:4164
        33 001576   001637 710000 33                 TRA     s:4164
        33 001577   001603 710000 33                 TRA     s:4152
        33 001600   001612 710000 33                 TRA     s:4155
        33 001601   001621 710000 33                 TRA     s:4158
        33 001602   001630 710000 33                 TRA     s:4161

      431     4151    3       CASE(1);

      432     4152    3           LANG_LEN = 6;
PL6.E3A0      #001=DISP File=ZIG$DDX7.:ZIC0TSI                                   FRI 09/05/97 11:53 Page:67

   4152 33 001603   000006 220003                    LDX0    6,DU
        33 001604   200073 740100                    STX0    LANG_LEN,,AUTO

      433     4153    3           LANG = 'COBOL ';

   4153 33 001605   200074 470500                    LDP0    LANG$,,AUTO
        33 001606   040140 100400                    MLR     fill='040'O
        33 001607   000267 000006 32                 ADSC9   183                      cn=0,n=6
        33 001610   000000 000010                    ADSC9   0,,PR0                   cn=0,n=*X0
        33 001611   001645 710000 33                 TRA     s:4167

      434     4154    3       CASE(2);

      435     4155    3           LANG_LEN = 8;

   4155 33 001612   000010 220003                    LDX0    8,DU
        33 001613   200073 740100                    STX0    LANG_LEN,,AUTO

      436     4156    3           LANG = 'FORTRAN ';

   4156 33 001614   200074 470500                    LDP0    LANG$,,AUTO
        33 001615   040140 100400                    MLR     fill='040'O
        33 001616   000271 000010 32                 ADSC9   185                      cn=0,n=8
        33 001617   000000 000010                    ADSC9   0,,PR0                   cn=0,n=*X0
        33 001620   001645 710000 33                 TRA     s:4167

      437     4157    3       CASE(3);

      438     4158    3           LANG_LEN = 4;

   4158 33 001621   000004 220003                    LDX0    4,DU
        33 001622   200073 740100                    STX0    LANG_LEN,,AUTO

      439     4159    3           LANG = 'APL ';

   4159 33 001623   200074 470500                    LDP0    LANG$,,AUTO
PL6.E3A0      #001=DISP File=ZIG$DDX7.:ZIC0TSI                                   FRI 09/05/97 11:53 Page:68
        33 001624   040140 100400                    MLR     fill='040'O
        33 001625   000273 000004 32                 ADSC9   187                      cn=0,n=4
        33 001626   000000 000010                    ADSC9   0,,PR0                   cn=0,n=*X0
        33 001627   001645 710000 33                 TRA     s:4167

      440     4160    3       CASE(4);

      441     4161    3           LANG_LEN = 6;

   4161 33 001630   000006 220003                    LDX0    6,DU
        33 001631   200073 740100                    STX0    LANG_LEN,,AUTO

      442     4162    3           LANG = 'BASIC ';

   4162 33 001632   200074 470500                    LDP0    LANG$,,AUTO
        33 001633   040140 100400                    MLR     fill='040'O
        33 001634   000274 000006 32                 ADSC9   188                      cn=0,n=6
        33 001635   000000 000010                    ADSC9   0,,PR0                   cn=0,n=*X0
        33 001636   001645 710000 33                 TRA     s:4167

      443     4163    3       CASE(ELSE);

      444     4164    3           LANG_LEN = 4;

   4164 33 001637   000004 220003                    LDX0    4,DU
        33 001640   200073 740100                    STX0    LANG_LEN,,AUTO

      445     4165    3           LANG = '****';

   4165 33 001641   200074 470500                    LDP0    LANG$,,AUTO
        33 001642   040140 100400                    MLR     fill='040'O
        33 001643   000073 000004 32                 ADSC9   59                       cn=0,n=4
        33 001644   000000 000010                    ADSC9   0,,PR0                   cn=0,n=*X0

      446     4166    3           END;

      447     4167    2       RETURN;
PL6.E3A0      #001=DISP File=ZIG$DDX7.:ZIC0TSI                                   FRI 09/05/97 11:53 Page:69

   4167 33 001645   200206 221300                    LDX1  ! DT3_R+3,,AUTO
        33 001646   000001 702211                    TSX2  ! 1,X1

      448     4168    2   END LANGT;
      449     4169    1   WRITE_USER_FILE:

   4169 33 001647   200206 741300       WRITE_USER_* STX1  ! DT3_R+3,,AUTO

      450     4170    1       PROC;
      451     4171    2       IF DISPS.SUBSCHEMA_DISP

   4171 33 001650   000000 236000 8                  LDQ     DISPS
        33 001651   020000 316003                    CANQ    8192,DU
        33 001652   001657 600000 33                 TZE     s:4173

      452     4172    2       THEN RECORD_POINTER = ADDR(TEXT.BUFF);

   4172 33 001653   200024 236100                    LDQ     BLKPTR,,AUTO
        33 001654   000006 036003                    ADLQ    6,DU
        33 001655   000000 756000 0                  STQ     RECORD_POINTER
        33 001656   001661 710000 33                 TRA     s:4174

      453     4173    2       ELSE RECORD_POINTER = ADDR(TLINE);

   4173 33 001657   000022 236000 34                 LDQ     18
        33 001660   000000 756000 0                  STQ     RECORD_POINTER

      454     4174    2       COL = 71;

   4174 33 001661   000107 235007                    LDA     71,DL
        33 001662   200003 755100                    STA     COL,,AUTO

      455     4175    3       DO WHILE (Y(COL) = ' ');

   4175 33 001663   000000 470400 0                  LDP0    RECORD_POINTER
        33 001664   040000 106505                    CMPC    fill='040'O
PL6.E3A0      #001=DISP File=ZIG$DDX7.:ZIC0TSI                                   FRI 09/05/97 11:53 Page:70
        33 001665   000000 000001                    ADSC9   0,A,PR0                  cn=0,n=1
        33 001666   000010 000001 34                 ADSC9   8                        cn=0,n=1
        33 001667   001700 601000 33                 TNZ     s:4178

      456     4176    3           COL = COL - 1;

   4176 33 001670   000001 336007                    LCQ     1,DL
        33 001671   200003 056100                    ASQ     COL,,AUTO

      457     4177    3           END;

   4177 33 001672   000000 470400 0                  LDP0    RECORD_POINTER
        33 001673   200003 235100                    LDA     COL,,AUTO
        33 001674   040000 106505                    CMPC    fill='040'O
        33 001675   000000 000001                    ADSC9   0,A,PR0                  cn=0,n=1
        33 001676   000010 000001 34                 ADSC9   8                        cn=0,n=1
        33 001677   001670 600000 33                 TZE     s:4176

      458     4178    2       RECORD_SIZE = COL + MOD(-COL,6);

   4178 33 001700   200003 336100                    LCQ     COL,,AUTO
        33 001701   000006 506007                    DIV     6,DL
        33 001702   000044 733000                    LRS     36
        33 001703   200003 036100                    ADLQ    COL,,AUTO
        33 001704   000000 756000 1                  STQ     RECORD_SIZE

      459     4179    2       CALL WRITERECORD_TO_SEQ_FILE;

   4179 33 001705   000030 631400 34                 EPPR1   24
        33 001706   000000 701000 xent               TSX1    WRITERECORD_TO_SEQ_FILE
        33 001707   000000 011000                    NOP     0

      460     4180    2   END WRITE_USER_FILE;

   4180 33 001710   200206 221300                    LDX1  ! DT3_R+3,,AUTO
        33 001711   000001 702211                    TSX2  ! 1,X1

PL6.E3A0      #001=DISP File=ZIG$DDX7.:ZIC0TSI                                   FRI 09/05/97 11:53 Page:71
      461     4181    1   FINISH_DISP:
      462     4182    1   END DISP;

   4182 33 001712                       FINISH_DISP  null
   4182 33 001712   000000 702200 xent               TSX2  ! X66_ARET

X
 Sect OctLoc
   3     000   000000 000000                                                    ....

FUNCMESS
 Sect OctLoc
   3     001   125116 123125   103103 105123   123106 125114   040104 115103    UNSUCCESSFUL DMC
   3     005   114040 124122   101116 123114   101124 111117   116040 123103    L TRANSLATION SC
   3     011   110105 115101   040104 104114   040124 122101   116123 114101    HEMA DDL TRANSLA
   3     015   124111 117116   040040 040040   040040 040040   123103 110105    TION        SCHE
   3     021   115101 040104   115103 114040   124122 101116   123114 101124    MA DMCL TRANSLAT
   3     025   111117 116040   040040 040040   040040 123125   102123 103110    ION       SUBSCH
   3     031   105115 101040   126101 114111   104101 124111   117116 040040    EMA VALIDATION
   3     035   040040 040040   040040 040040   114117 103113   123040 120122            LOCKS PR
   3     041   117103 105123   123117 122040   040040 040040   040040 040040    OCESSOR
   3     045   040040 040040   040040 104111   123120 114101   131040 120122          DISPLAY PR
   3     051   117103 105123   123117 122040   040040 040040   040040 040040    OCESSOR
   3     055   040040 040040   104111 103124   111117 116101   122131 040120        DICTIONARY P
   3     061   122117 103105   123123 117122   040040 040040   040040 040040    ROCESSOR
   3     065   040040 120125   122107 105040   120122 117103   105123 123117      PURGE PROCESSO
   3     071   122040 040040   040040 040040   040040 040040   040040 040040    R
   3     075   122105 123124   122125 103124   125122 111116   107040 120122    RESTRUCTURING PR
   3     101   117103 105123   123117 122040   040040 040040   040040 123125    OCESSOR       SU
   3     105   102123 103110   105115 101040   107105 116105   122101 124117    BSCHEMA GENERATO
   3     111   122040 040040   040040 040040   040040 040040                    R

L1
 Sect OctLoc
   3     114   052052 040120   122117 107122   101115 040123   110117 125114    ** PROGRAM SHOUL
   3     120   104040 102105   040122 105103   117115 120111   114105 104055    D BE RECOMPILED-
   3     124   123125 102123   103110 105115   101040 127101   123040 103110    SUBSCHEMA WAS CH
PL6.E3A0      #001=DISP File=ZIG$DDX7.:ZIC0TSI                                   FRI 09/05/97 11:53 Page:72
   3     130   101116 107105   104040 123111   116103 105040   114101 123124    ANGED SINCE LAST
   3     134   040103 117115   120111 114101   124111 117116                     COMPILATION

FN
 Sect OctLoc
   3     137   000000 000000                                                    ....

LC
 Sect OctLoc
   3     140   000000 000002                                                    ....

H1
 Sect OctLoc
   3     141   040040 040040   040040 040040   040040 040040   040040 040040
   3     145   040120 122117   107122 101115   040111 104040   040040 040040     PROGRAM ID
   3     151   040040 040040   040040 040040   040040 040040   040040 040040
   3     155   040040 040040   040040 040040   040103 117115   120111 114101             COMPILA
   3     161   124111 117116   040104 101124   105040 040040   040040 040040    TION DATE
   3     165   124111 115105   040040 040040   040040 040040   040040 040040    TIME
   3     171   040040 040040   040040 040040   040040 040040   040040 040040
   3     175   040040 040040   040040 040040   040040 040040   040040 040040

LN
 Sect OctLoc
   3     201   000000 000000                                                    ....

SSSNAME
 Sect OctLoc
   3     202   ****** ******   ****** ******   ****** ******   ****** ******    ................

DDL
 Sect OctLoc
   3     212   000000 000003                                                    ....

DMCL
 Sect OctLoc
   3     213   000000 000004                                                    ....
PL6.E3A0      #001=DISP File=ZIG$DDX7.:ZIC0TSI                                   FRI 09/05/97 11:53 Page:73

LNGTH
 Sect OctLoc
   3     214   000000 000120                                                    ...P

TLINE
 Sect OctLoc
   3     215   040040 040040   040040 040040   040040 040040   040040 040040
   3     235*  040040 040040   040040 040040   040040 040040   040040 040040

FRST_TIME
 Sect OctLoc
   3     245   4***** ******                                                    ....

CONTROL
 Sect OctLoc
   4     000   777777 777777   000000 000001   000000 000000   000000 000036    ................
   4     004   000000 000060   000000 000000   000000 000000   000000 000000    ...0............
   4     010   000000 000000   000000 000000   000000 000000   000000 000000    ................
   4     020*  040040 040040   040040 040040   040040 040040   040040 040040
   4     040*  000000 000144   000000 000000   400000 000000   042116 125114    ...d........"NUL
   4     044   114042 040040   040040 040040   042116 125114   114042 040040    L"      "NULL"
   4     050   040040 040040   000000 000060   000000 000000   000000 000000        ...0........
   4     054   000000 000000   000000 000000   000000 000000   000000 000000    ................
   4     064*  000000 000000   040040 040040   040040 040040   040040 040040    ....
   4     070   000000 000000   000000 000000   000000 000000   000000 000000    ................
   4     074   000000 000002   000000 000000   000000 000000   000000 000000    ................

ANALS
 Sect OctLoc
   5     000   ****** ******   ****** ******   ****** ******   ****** ******    ................

PURGE
 Sect OctLoc
   6     000   ****** ******   ****** ******   ****** ******   ****** ******    ................

DICTS
PL6.E3A0      #001=DISP File=ZIG$DDX7.:ZIC0TSI                                   FRI 09/05/97 11:53 Page:74
 Sect OctLoc
   7     000   ****** ******   ****** ******   ****** ******   ****** ******    ................

DISPS
 Sect OctLoc
   8     000   ***00* ******   ****** ******   ****** ******   ****** ******    ................
   8     024*  ****** ******   ****** ******   ****** ******                    ............

VALIDS
 Sect OctLoc
   9     000   ****** ******   ****** ******   ****** ******   ****** ******    ................

LOCKS
 Sect OctLoc
  10     000   ****** ******   ****** ******   ****** ******   ****** ******    ................

STRAN
 Sect OctLoc
  11     000   ****** ******   ****** ******   ****** ******   ****** ******    ................

DTRAN
 Sect OctLoc
  12     000   ****** ******   ****** ******   ****** ******   ****** ******    ................

SSTRANS
 Sect OctLoc
  13     000   ****** ******   ****** ******   ****** ******   ****** ******    ................

SSGEN
 Sect OctLoc
  14     000   ****** ******   ****** ******   ****** ******   ****** ******    ................

UWA_KEY
 Sect OctLoc
  22     000   007125 127101   ****** ******                                    .UWA....

RVA_KEY
PL6.E3A0      #001=DISP File=ZIG$DDX7.:ZIC0TSI                                   FRI 09/05/97 11:53 Page:75
 Sect OctLoc
  24     000   007122 126101   ****** ******                                    .RVA....

IA__KEY
 Sect OctLoc
  25     000   007111 101137   ****** ******                                    .IA_....

SEARCHR_NB
 Sect OctLoc
  27     000   001001 001001   001001 001001   001001 001001   001001 001001    ................
  27     010*  000001 001001   001001 001001   001001 001001   001001 001001    ................
  27     014   001001 001001   001001 001001   001001 001001   001001 001001    ................
  27     034*  001001 001001   001001 001001   001001 001001   001001 001001    ................

SEM_COM
 Sect OctLoc
  28     000   000001 002003   004005 006007   010011 012013   014015 016017    ................
  28     004   020021 022023   024025 026027   030031 032033   034035 036037    ................
  28     010   040041 042043   044045 046047   050051 052053   054055 056057     !"#$%&'()*+,-./
  28     014   060061 062063   064065 066067   070071 072040   074075 076077    0123456789: <=>?
  28     020   100101 102103   104105 106107   110111 112113   114115 116117    @ABCDEFGHIJKLMNO
  28     024   120121 122123   124125 126127   130131 132133   134135 136137    PQRSTUVWXYZ[\]^_
  28     030   140141 142143   144145 146147   150151 152153   154155 156157    `abcdefghijklmno
  28     034   160161 162163   164165 166167   170171 172173   174175 176177    pqrstuvwxyz{|}~.

DMCL_XLATE
 Sect OctLoc
  29     000   000001 002003   004005 006007   010011 012013   014015 016017    ................
  29     004   020021 022023   024025 026027   030031 032033   034035 036037    ................
  29     010   040041 041043   044045 046047   050051 052053   054055 136057     !!#$%&'()*+,-^/
  29     014   060061 062063   064065 066067   070071 072040   074075 076077    0123456789: <=>?
  29     020   100101 102103   104105 106107   110111 112113   114115 116117    @ABCDEFGHIJKLMNO
  29     024   120121 122123   124125 126127   130131 132133   134135 136137    PQRSTUVWXYZ[\]^_
  29     030   140141 142143   144145 146147   150151 152153   154155 156157    `abcdefghijklmno
  29     034   160161 162163   164165 166167   170171 172173   174175 176177    pqrstuvwxyz{|}~.

Q2_PERCENT
PL6.E3A0      #001=DISP File=ZIG$DDX7.:ZIC0TSI                                   FRI 09/05/97 11:53 Page:76
 Sect OctLoc
  30     000   000001 002003   004005 006007   010011 012013   014015 016017    ................
  30     004   020021 022023   024025 026027   030031 032033   034035 036037    ................
  30     010   040041 045043   044045 046047   050051 052053   054055 056057     !%#$%&'()*+,-./
  30     014   060061 062063   064065 066067   070071 072073   074075 076077    0123456789:;<=>?
  30     020   100101 102103   104105 106107   110111 112113   114115 116117    @ABCDEFGHIJKLMNO
  30     024   120121 122123   124125 126127   130131 132133   134135 136137    PQRSTUVWXYZ[\]^_
  30     030   140141 142143   144145 146147   150151 152153   154155 156157    `abcdefghijklmno
  30     034   160161 162163   164165 166167   170171 172173   174175 176177    pqrstuvwxyz{|}~.

UWA
 Sect OctLoc
  31     000   000000 000000   040040 040040   040040 040040   040040 040040    ....
  31     004   040040 040040   040040 040040   040040 040040   040040 040040
  31     010   040040 040040   040040 040040   040040 000000   040040 040040              ..
  31     014   040040 040040   040040 040040   040040 040040   040040 040040
  31     020   040040 040040   040040 040040   040040 000000   040040 040040              ..
  31     024   040040 040040   040040 040040   040040 040040   040040 040040
  31     030   040040 040040   040040 040040   040040 000000   040040 040040              ..
  31     034   040040 040040   040040 040040   000000 000000   040040 040040            ....
  31     040   040040 040040   040040 040040   040040 040040   040040 040040
  31     044   040040 040040   040040 040040   040040 000000   040040 040040              ..
  31     050   040040 040040   040040 040040   040040 040040   040040 040040
  31     054   040040 040040   040040 040040   040040 000000   000000 000000              ......
  31     060   040040 040040   040*** ******   000000 000000   000000 000000         ...........
  31     064   000000 000000   000000 000000   040040 040040   040040 040040    ........
  31     070   040040 040040   040040 040040   040040 040040   040040 040040
  31     100*  040040 ******   000000 000000   040040 040040   040040 040040      ......
  31     104   040040 040040   040040 040040   040040 040040   040040 040040
  31     124*  040040 040040   040040 040040   000000 000000   040040 040040            ....
  31     130   040040 040040   040040 040040   040040 040040   040040 040040
  31     134   040040 040040   040040 040040   040040 ******   000000 000000              ......
  31     140   040040 040040   040040 040040   040040 040040   040040 040040
  31     144   040040 040040   040040 040040   000000 000000   000000 000000            ........
  31     150   000000 000000   000000 000000   000000 000000   000000 000000    ................
  31     154   040040 040040   040040 040040   040040 040040   040040 040040
  31     160   040040 040040   040040 040040   040040 040040   040040 ******                  ..
PL6.E3A0      #001=DISP File=ZIG$DDX7.:ZIC0TSI                                   FRI 09/05/97 11:53 Page:77
  31     164   000000 000000   ****** ******   000000 000000   000000 000000    ................
  31     170   000000 000000   040040 040040   040040 040040   040040 040040    ....
  31     174   040040 040040   040040 040040   040040 040040   040040 040040
  31     210*  040040 040040   040040 040040   040040 040040   ****** ******                ....
  31     214   000000 000000   000000 000000   000000 000000   000000 000000    ................
  31     224*  000000 000000   000000 000000   000000 000000   040040 ******    ............  ..
  31     230   000000 000000   ****** ******   000000 000000   040040 040040    ............
  31     234   000000 000000   000000 000000   000000 000000   000000 000000    ................
  31     264*  000000 000000   000000 000000   000000 000000   ****** ******    ................
  31     270   000000 000000   000000 000000   000000 000000   000000 000000    ................
  31     324*  000000 000000   ****** ******   000000 000000   000000 000000    ................
  31     330   000000 000000   000000 000000   000000 000000   000000 000000    ................
  31     350*  000000 000000   000000 000000   000000 000000   ****** ******    ................
  31     360*  000000 000000   000000 000000   000000 000000   000000 000000    ................
  31     404*  000000 000000   ****** ******   000000 000000   000000 000000    ................
  31     410   000000 000000   000000 000000   000000 000000   000000 000000    ................
  31     424*  000000 000000   000000 000000   000000 000000   040040 040040    ............
  31     430   040040 040040   040040 040040   040040 040040   040040 040040
  31     434   040040 040040   040040 040040   040040 ******   ****** ******              ......
  31     440   040040 040040   040040 040040   040040 040040   040040 040040
  31     450*  040040 040040   040040 040040   040040 ******   ****** ******              ......
  31     454   000000 000000   040040 040040   040040 040040   040040 040040    ....
  31     460   040040 040040   040040 040040   040040 040040   040040 040040
  31     464   040040 ******   ****** ******   000000 000000   000000 000000      ..............
  31     470   000000 000000   000000 000000   000000 000000   000000 000000    ................
  31     474   000000 000000   ****** ******   000000 000000   000000 000000    ................
  31     500   000000 000000   000000 000000   040040 040040   040040 040040    ........
  31     504   040040 040040   040040 040040   040040 040040   040040 040040
  31     520*  040040 040040   ****** ******   000000 000000   000000 000000        ............
  31     524   040040 040040   040040 040040   040040 040040   040040 040040
  31     574*  000000 000000   000000 000000   000000 000000   000000 000000    ................
  31     600   000000 000000   000000 000000   000000 000000   ****** ******    ................
  31     604   000000 000000   000000 000000   000000 000000   000000 000000    ................
  31     610   000000 000000   000000 000000   040040 040040   040040 040040    ........
  31     614   040040 040040   040040 040040   040040 040040   040040 040040
  31     620   040040 040040   040040 ******   040040 040040   040040 040040          ..
  31     624   040040 040040   040040 040040   040040 040040   040040 040040
PL6.E3A0      #001=DISP File=ZIG$DDX7.:ZIC0TSI                                   FRI 09/05/97 11:53 Page:78
  31     660*  040040 040040   040040 040040   040040 040040   ****** ******                ....
  31     664   040040 040040   040040 040040   040040 040040   040040 040040
  31     674*  040040 040040   ****** ******   040040 040040   040040 040040        ....
  31     700   040040 040040   040040 040040   040040 040040   040040 040040
  31     710*  040040 040040   ****** ******   040040 040040   040040 040040        ....
  31     714   040040 040040   040040 040040   040040 040040   040040 040040
  31     720   040040 040040   040040 040040   040040 040040   ****** ******                ....
  31     724   040040 040040   040040 040040   040040 040040   040040 040040
  31     740*  040040 040040   ****** ******   040040 040040   040040 040040        ....
  31     744   040040 040040   040040 040040   040040 040040   040040 040040
  31     774*  040040 040040   ****** ******   040040 040040   040040 040040        ....
  31    1000   040040 040040   040040 040040   040040 040040   040040 040040
  31    1034*  040040 040040   ****** ******   040040 040040   040040 040040        ....
  31    1040   040040 040040   040040 040040   040040 040040   040040 040040
  31    1060*  040040 040040   ****** ******   040040 040040   040040 040040        ....
  31    1064   040040 040040   040040 040040   040040 040040   040040 040040
  31    1114*  040040 040040   ****** ******   040040 040040   040040 040040        ....
  31    1120   040040 040040   040040 040040   040040 040040   040040 040040
  31    1134*  040040 040040   040040 040040   040040 040040   ****** ******                ....
  31    1140   040040 040040   040040 040040   040040 040040   040040 040040
  31    1144   040040 040040   ****** ******   040040 040040   040040 040040        ....
  31    1150   040040 040040   040040 040040   040040 040040   ****** ******                ....
  31    1154   040040 040040   040040 040040   040040 040040   040040 040040
  31    1160   040040 040040   ****** ******   040040 040040   040040 040040        ....
  31    1164   040040 040040   040040 040040   040040 040040   ****** ******                ....
  31    1170   040040 040040   040040 040040   040040 040040   040040 040040
  31    1200*  040040 040040   040040 040040   040040 040040   ****** ******                ....
  31    1204   040040 040040   040040 040040   040040 040040   040040 040040
  31    1214*  040040 040040   040040 040040   040040 040040   040040 040040

(unnamed)
 Sect OctLoc
  32     000   104111 123120   114101 131040   120122 117103   105123 123117    DISPLAY PROCESSO
  32     004   122040 040040   123106 040040   104101 040040   104101 055123    R   SF  DA  DA-S
  32     010   116040 040040   040111 123040   116117 124040   116101 115105    N    IS NOT NAME
  32     014   040117 106040   101123 123111   107116 105104   040123 103110     OF ASSIGNED SCH
  32     020   105115 101040   106111 114105   101055 104040   123116 055114    EMA FILEA-D SN-L
PL6.E3A0      #001=DISP File=ZIG$DDX7.:ZIC0TSI                                   FRI 09/05/97 11:53 Page:79
  32     024   124040 040040   114113 055114   124040 040040   042116 125114    T   LK-LT   "NUL
  32     030   114042 040040   123101 040040   123103 110105   115101 040104    L"  SA  SCHEMA D
  32     034   104114 040116   117124 040122   105103 117122   104105 104040    DL NOT RECORDED
  32     040   117116 040123   103110 105115   101040 106111   114105 040040    ON SCHEMA FILE
  32     044   123103 110105   115101 040104   104114 040124   105130 124040    SCHEMA DDL TEXT
  32     050   114111 123124   111116 107052   052052 040040   123101 055104    LISTING***  SA-D
  32     054   104040 040040   040040 040040   040040 040040   060060 060060    D           0000
  32     060   060060 060040   123103 110105   115101 040104   115103 114040    000 SCHEMA DMCL
  32     064   116117 124040   122105 103117   122104 105104   040117 116040    NOT RECORDED ON
  32     070   123103 110105   115101 040106   111114 105040   052052 052052    SCHEMA FILE ****
  32     074   123103 110105   115101 040104   115103 114040   124105 130124    SCHEMA DMCL TEXT
  32     100   040114 111123   124111 116107   052052 052040   123101 055104     LISTING*** SA-D
  32     104   115040 040040   123103 110105   115101 040101   103124 111126    M   SCHEMA ACTIV
  32     110   111124 111105   123040 122105   120117 122124   052052 052040    ITIES REPORT***
  32     114   040060 060060   060060 060040   062061 040040   060061 071061     000000 21  0191
  32     120   062063 061040   123106 055101   104040 040040   060065 060062    231 SF-AD   0502
  32     124   061060 060040   106125 116103   124111 117116   072040 040040    100 FUNCTION:
  32     130   104101 124105   072040 040040   040040 040040   124111 115105    DATE:       TIME
  32     134   072040 040040   040040 040040   111104 105116   124072 040040    :       IDENT:
  32     140   040040 040040   116117 040123   103110 105115   101040 101103        NO SCHEMA AC
  32     144   124111 126111   124111 105123   040122 105103   117122 104105    TIVITIES RECORDE
  32     150   104040 040040   111104 123062   040105 122122   117122 054040    D   IDS2 ERROR,
  32     154   055040 101103   124111 126111   124111 105123   040122 105120    - ACTIVITIES REP
  32     160   117122 124040   123125 123120   105116 104105   104040 040040    ORT SUSPENDED
  32     164   105116 104040   117106 040123   103110 105115   101040 101103    END OF SCHEMA AC
  32     170   124111 126111   124111 105123   040122 105120   117122 124040    TIVITIES REPORT
  32     174   123125 102123   103110 105115   101040 124105   130124 040114    SUBSCHEMA TEXT L
  32     200   111123 124111   116107 052052   052040 040040   066052 040116    ISTING***   6* N
  32     204   117124 040122   105103 117107   116111 132105   104040 101123    OT RECOGNIZED AS
  32     210   040123 125102   123103 110105   115101 040106   111114 105040     SUBSCHEMA FILE
  32     214   040040 040040   040123 125102   123103 110105   115101 040116         SUBSCHEMA N
  32     220   101115 105040   111123 040040   125116 123125   103103 105123    AME IS  UNSUCCES
  32     224   123106 125114   123125 103103   105123 123106   125114 040040    SFULSUCCESSFUL
  32     230   123125 102123   103110 105115   101040 124122   101116 123114    SUBSCHEMA TRANSL
  32     234   101124 111117   116040 127101   123040 040040   040101 124040    ATION WAS    AT
  32     240   040110 122123   056040 040040   114101 116107   125101 107105     HRS.   LANGUAGE
  32     244   040111 123040   057052 057052   057052 057052   057052 057052     IS /*/*/*/*/*/*
PL6.E3A0      #001=DISP File=ZIG$DDX7.:ZIC0TSI                                   FRI 09/05/97 11:53 Page:80
  32     250   105116 104040   117106 040123   125102 123103   110105 115101    END OF SUBSCHEMA
  32     254   040124 105130   124040 040040   111114 114105   107101 114040     TEXT   ILLEGAL
  32     260   120122 111126   101103 131040   113105 131040   106117 122040    PRIVACY KEY FOR
  32     264   104111 123120   114101 131040   055040 040040   103117 102117    DISPLAY -   COBO
  32     270   114040 040040   106117 122124   122101 116040   101120 114040    L   FORTRAN APL
  32     274   102101 123111   103040 040040                                    BASIC

(unnamed)
 Sect OctLoc
  34     000   000001 000000   000002 000000   000000 000002   000005 006000    ................
  34     004   000002 006000   000006 006000   000064 006000   000007 006000    .........4......
  34     010   040040 040040   000171 006000   000022 006000   000023 006000        .y..........
  34     014   000025 006000   000447 406000   000031 006000   000062 006000    .............2..
  34     020   000003 000000   060040 040040   000215 006000   000053 006000    ....0   .....+..
  34     024   000215 006000   000103 006000   000121 006000   000000 006000    .....C...Q......
  34     030   000000 000000   000030 006000   137040 040040   055040 040040    ........_   -
  34     034   776777 777777   000004 000000   000053 006000   000040 006000    .........+... ..

PL6.E3A0      #001=DISP File=ZIG$DDX7.:ZIC0TSI                                   FRI 09/05/97 11:53 Page:81
--  Include file information  --

   ZIG_GENERAL.:ZIC0TOU  cannot be made into a system file and is referenced.
   ZI_SUB4_CAN.:ZIC0TOU  is referenced.
   ZI_ERRORS_SUBS.:ZIC0TOU  is referenced.
   ZIA_IDS_DCL.:ZIC0TOU  cannot be made into a system file and is referenced.
   ZIG_DIR_STRUCS.:ZIC0TOU  cannot be made into a system file and is referenced.
   ZI_SUB_LANG.:ZIC0TOU  is referenced.
   ZIG_DBA_INT.:ZIC0TOU  cannot be made into a system file and is referenced.
   B$JIT_C.:E05TOU  was found in the system file and is never referenced.
   CP_6_C.:E05TOU  was found in the system file and is never referenced.
      No diagnostics issued in procedure DISP.

   Procedure DISP requires 971 words for executable code.
   Procedure DISP requires 140 words of local(AUTO) storage.

    No errors detected in file ZIG$DDX7.:ZIC0TSI    .
PL6.E3A0      #001=DISP File=ZIG$DDX7.:ZIC0TSI                                   FRI 09/05/97 11:53 Page:82
          *** CROSS REFERENCE LISTING ***
**     DENOTES     IDENTIFIER DEFINITION
<<                 IDENTIFIER'S VALUE SET
>>                 IDENTIFIER'S VALUE USED
<>                 IDENTIFIER SET AND/OR USED
--                 IDENTIFIER REFERENCED
PL6.E3A0      #001=DISP File=ZIG$DDX7.:ZIC0TSI                                   FRI 09/05/97 11:53 Page:83
          MINI XREF LISTING

ABORT
      3375**DCL-ENT  4148--CALL
B2
      3901**LABEL    3895--GOTO     4144--GOTO
BIT36
        14**DCL      3887>>ASSIGN
BIT36_RDEF
        15**DCL      3887<<ASSIGN
BIT36_RDEF.B1
        17**DCL      3888>>IF
BLKPTR
        61**DCL        36--IMP-PTR    45--IMP-PTR  4109<<ASSIGN   4111<<ASSIGN   4112>>IF       4115>>ASSIGN
      4115>>ASSIGN   4119>>IF       4172>>ASSIGN
BP
        44**DCL      4104<<ASSIGN   4108>>IF       4121>>IF       4122<<ASSIGN   4126<<ASSIGN
BUFFPTR
        62**DCL      4049<<ASSIGN   4051<>CALL     4106<>CALL     4111>>ASSIGN   4127<>CALL
C32
      3804**DCL      3851--ASSIGN
C64
      3811**DCL      3852<<ASSIGN   3853<>CALL
CBLKNO
        63**DCL        66--REDEF
CKACTS
      3979**LABEL    3947--GOTO
CKDMCL
      3941**LABEL    3911--GOTO
CLN
      3805**DCL      3925<<CALLBLT  3927>>IF       3928<<CALLBLT  3931>>CALLBLT  3963<<CALLBLT  3965>>IF
      3966<<CALLBLT  3969>>CALLBLT
COL
        13**DCL      4174<<ASSIGN   4175>>DOWHILE  4176<<ASSIGN   4176>>ASSIGN   4178>>ASSIGN   4178>>ASSIGN
PL6.E3A0      #001=DISP File=ZIG$DDX7.:ZIC0TSI                                   FRI 09/05/97 11:53 Page:84
CONTROL
      1896**DCL      4049--ASSIGN
CONTROL.FIRST_NF_RECORD
      1934**DCL      4103>>ASSIGN
CONTROL.LANGUAGE
      1914**DCL      4150>>DOCASE
CONTROL.SUBSCHEMA_UTS
      1920**DCL      4094<>CALL
CONTROL.TRANSLATION_STATUS
      1898**DCL      4090>>IF
CONTROL.TYPE100
      1913**DCL      4061>>IF       4109--ASSIGN
CONTROL.TYPE30
      1900**DCL      4061>>IF
DATE_
      3820**DCL      4094<>CALL     4095>>CALLBLT
DAY_
      3822**DCL      4094<>CALL
DBCSERR
      4148**LABEL    3856--CALLALT  3858--CALLALT  3862--CALLALT  3879--CALLALT  3893--CALLALT  3904--CALLALT
      3938--GOTO     3976--GOTO     4037--GOTO     4142--GOTO
DISPS.DISP_KEY
      2010**DCL      3885>>DOWHILE  4145>>CALLBLT
DISPS.SACTS_FROM_DATE
      2007**DCL      3992>>ASSIGN
DISPS.SACTS_THRU_DATE
      2008**DCL      3993>>ASSIGN
DISPS.SCHEMA_DISP
      1995**DCL      3871>>IF       3901>>IF
DISPS.SDISP_TYPES.DDL
      1998**DCL      3905>>IF
DISPS.SDISP_TYPES.DMCL
      1999**DCL      3941>>IF
DISPS.SDISP_TYPES.SACTS
      2000**DCL      3979>>IF
DISPS.SNAME
PL6.E3A0      #001=DISP File=ZIG$DDX7.:ZIC0TSI                                   FRI 09/05/97 11:53 Page:85
      2011**DCL      3864>>IF       3865>>IF       3867>>CALLBLT  4087>>CALLBLT
DISPS.SSDISP_TYPES.FORT_INCL
      2002**DCL      4076>>IF       4079<<ASSIGN
DISPS.SSNAME
      2012**DCL      4066>>IF       4068>>ASSIGN
DISPS.SUBSCHEMA_DISP
      1996**DCL      4047>>IF       4171>>IF
DONE
      3819**DCL      3921<>CALL     3922>>DOWHILE  3934<>CALL     3958<>CALL     3961>>DOWHILE  3972<>CALL
DT1.CEN
      3829**DCL      3998<<ASSIGN   3999<<ASSIGN
DT1.DT.YR
      3832**DCL      3997>>IF       3997>>IF
DT1.DT_R
      3830**DCL      3831--REDEF    3992<<ASSIGN   3995>>IF
DT1_R
      3827**DCL      3828--REDEF    3996<<ASSIGN   4010>>IF
DT2.CEN
      3837**DCL      4003<<ASSIGN   4004<<ASSIGN
DT2.DT.YR
      3840**DCL      4002>>IF       4002>>IF
DT2.DT_R
      3838**DCL      3839--REDEF    3993<<ASSIGN   4000>>IF
DT2_R
      3835**DCL      3836--REDEF    4001<<ASSIGN   4011>>IF
DT3.CEN
      3845**DCL      4006<<ASSIGN   4007<<ASSIGN
DT3.DT.YR
      3848**DCL      4005>>IF       4005>>IF
DT3.DT_R
      3846**DCL      3847--REDEF    3994<<ASSIGN
DT3_R
      3843**DCL      3844--REDEF    4010>>IF       4011>>IF
EOF_REC.EOF_WD
        46**DCL      4119>>IF
FETCHD_6
PL6.E3A0      #001=DISP File=ZIG$DDX7.:ZIC0TSI                                   FRI 09/05/97 11:53 Page:86
        78**DCL-ENT  3856--CALL     3858--CALL     3904--CALL
FETCHNS_6
        83**DCL-ENT  3862--CALL     3886--CALL     4008--CALL     4024--CALL
FETCHOS_6
        87**DCL-ENT  3893--CALL
FINISH_DISP
      4182**LABEL    4080--GOTO
FRST_TIME
      3816**DCL      3914<<ASSIGN   3950>>IF       3950<<ASSIGN   3982>>IF       3983<<ASSIGN   4053>>IF
      4053<<ASSIGN
FUNCMESS
        24**DCL      4013>>CALLBLT
GET_TIME
      3386**DCL-ENT  3875--CALL
L3
      4141**LABEL    3886--CALLALT
LANG
      3802**DCL      4058>>CALLBLT  4098>>CALLBLT  4153<<ASSIGN   4156<<ASSIGN   4159<<ASSIGN   4162<<ASSIGN
      4165<<ASSIGN
LANG$
      3803**DCL      3802--IMP-PTR  3851<<ASSIGN   4058>>CALLBLT  4098>>CALLBLT  4153>>ASSIGN   4156>>ASSIGN
      4159>>ASSIGN   4162>>ASSIGN   4165>>ASSIGN
LANGT
      4149**PROC     4057--CALL
LANG_LEN
      3801**DCL      3802--IMP-SIZ  4058>>CALLBLT  4098>>CALLBLT  4152<<ASSIGN   4153>>ASSIGN   4155<<ASSIGN
      4156>>ASSIGN   4158<<ASSIGN   4159>>ASSIGN   4161<<ASSIGN   4162>>ASSIGN   4164<<ASSIGN   4165>>ASSIGN
LIST
      3382**DCL-ENT  3868--CALL     3910--CALL     3916--CALL     3918--CALL     3920--CALL     3932--CALL
      3946--CALL     3951--CALL     3953--CALL     3955--CALL     3957--CALL     3970--CALL     3985--CALL
      3987--CALL     3989--CALL     3991--CALL     4014--CALL     4016--CALL     4018--CALL     4020--CALL
      4022--CALL     4029--CALL     4036--CALL     4041--CALL     4054--CALL     4056--CALL     4060--CALL
      4084--CALL     4086--CALL     4088--CALL     4097--CALL     4099--CALL     4101--CALL     4116--CALL
      4134--CALL     4146--CALL
LK3
      3798**DCL      3884<<ASSIGN   3891<<ASSIGN   4143>>IF
PL6.E3A0      #001=DISP File=ZIG$DDX7.:ZIC0TSI                                   FRI 09/05/97 11:53 Page:87
LKV
        23**DCL      3885>>DOWHILE  3897<>CALL
LN
      3799**DCL      3924<<ASSIGN   3924>>ASSIGN   3925>>CALLBLT  3959<<ASSIGN   3962<<ASSIGN   3962>>ASSIGN
      3963>>CALLBLT
LXX
      4027**LABEL    4008--CALLALT
LYY
      4033**LABEL    4024--CALLALT
MSK_18B
        20**DCL      3878<<ASSIGN   3878>>ASSIGN
OL
      3812**DCL      3813--REDEF    3867<<CALLBLT  3868<>CALL     3909<<ASSIGN   3910<>CALL     3915<<ASSIGN
      3916<>CALL     3917<<ASSIGN   3918<>CALL     3919<<ASSIGN   3920<>CALL     3931<<CALLBLT  3932<>CALL
      3945<<ASSIGN   3946<>CALL     3949<<ASSIGN   3951<>CALL     3952<<ASSIGN   3953<>CALL     3954<<ASSIGN
      3955<>CALL     3956<<ASSIGN   3957<>CALL     3969<<CALLBLT  3970<>CALL     3981<<ASSIGN   3985<>CALL
      3986<<ASSIGN   3987<>CALL     3988<<ASSIGN   3989<>CALL     3990<<ASSIGN   3991<>CALL     4013<<CALLBLT
      4014<>CALL     4015<<CALLBLT  4016<>CALL     4017<<CALLBLT  4018<>CALL     4019<<CALLBLT  4020<>CALL
      4021<<ASSIGN   4022<>CALL     4028<<ASSIGN   4029<>CALL     4035<<ASSIGN   4036<>CALL     4040<<ASSIGN
      4041<>CALL     4052<<ASSIGN   4054<>CALL     4055<<ASSIGN   4056<>CALL     4058<<CALLBLT  4059<<ASSIGN
      4060<>CALL     4063<<ASSIGN   4083<<ASSIGN   4084<>CALL     4085<<CALLBLT  4086<>CALL     4087<<CALLBLT
      4088<>CALL     4097<>CALL     4098<<CALLBLT  4099<>CALL     4100<<ASSIGN   4101<>CALL     4115<<ASSIGN
      4116<>CALL     4133<<ASSIGN   4134<>CALL     4145<<CALLBLT  4146<>CALL
OL_RDEF.C61
      3815**DCL      4096<<ASSIGN
OL_RDEF.C67
      3814**DCL      4095<<CALLBLT
PP
        19**DCL      3878--ASSIGN
READ64
        60**DCL-ENT  4051--CALL     4106--CALL     4127--CALL
RECNO2
        43**DCL      4103<<ASSIGN   4104>>ASSIGN   4105<<ASSIGN   4105>>ASSIGN   4106<>CALL     4107>>DOWHILE
      4125<<ASSIGN   4125>>ASSIGN   4127<>CALL     4135<<ASSIGN
RECORD_POINTER
         9**DCL        12--IMP-PTR  4172<<ASSIGN   4173<<ASSIGN   4175>>DOWHILE
PL6.E3A0      #001=DISP File=ZIG$DDX7.:ZIC0TSI                                   FRI 09/05/97 11:53 Page:88
RECORD_SIZE
        10**DCL      4178<<ASSIGN
SSSNAME
      3800**DCL      4068<<ASSIGN   4069>>CALLBLT  4070--DOWHILE  4071<<CALLBLT  4072>>CALLBLT  4085>>CALLBLT
STRE_6
        75**DCL-ENT  3879--CALL
SUBLST
      3384**DCL-ENT  3853--CALL
SUBSCHEMA_KEY
      3402**DCL      3403--REDEF
TEXT.BUFF
        42**DCL      4115>>ASSIGN   4172--ASSIGN
TEXT.CNT
        41**DCL      4115>>ASSIGN
TEXT.TYPE
        39**DCL      4112>>IF
TIME_
      3821**DCL      4094<>CALL     4095>>CALLBLT
TLINE
      3809**DCL      3921<>CALL     3931>>CALLBLT  3934<>CALL     3958<>CALL     3969>>CALLBLT  3972<>CALL
      4173--ASSIGN
TS
        67**DCL      4091<<ASSIGN   4093<<ASSIGN   4095>>CALLBLT
UNSC
        22**DCL-ENT  3897--CALL
UN_TIME
      3823**DCL-ENT  4094--CALL
UWA.AC.CALC_NEXT
      3573**DCL      3574--REDEF
UWA.AC.CALC_PRIOR
      3582**DCL      3583--REDEF
UWA.AC.DEFAULTS
      3534**DCL      3535--REDEF
UWA.AC.FILE_CODE
      3539**DCL      3540--REDEF
UWA.AC.FLAG1.ERROR_TYPE
PL6.E3A0      #001=DISP File=ZIG$DDX7.:ZIC0TSI                                   FRI 09/05/97 11:53 Page:89
      3536**DCL      3537--REDEF
UWA.A_D.AD_DATE
      3517**DCL      3875<>CALL     3994>>ASSIGN   4015>>CALLBLT  4017>>CALLBLT  4017>>CALLBLT  4017>>CALLBLT
UWA.A_D.AD_FUNCTION
      3516**DCL      3874<<ASSIGN   4013>>CALLBLT
UWA.A_D.AD_IDENT
      3518**DCL      3876<<ASSIGN   4019>>CALLBLT
UWA.DB_STATUS
      3465**DCL      3937>>IF       3975>>IF       4009>>DOWHILE  4027>>IF       4033>>IF       4141>>IF
UWA.LK.PLVALUE
      3695**DCL      3894>>IF       3897<>CALL
UWA.LT.PLOCKS
      3706**DCL      3887--ASSIGN
UWA.SA.NUMB_DD
      3717**DCL      3907>>IF
UWA.SA.NUMB_DM
      3718**DCL      3943>>IF
UWA.SF.DBKEY_DA
      3484**DCL      3858<>CALL
UWA.SF.DBKEY_SA
      3482**DCL      3904<>CALL
UWA.SN.SENAME
      3692**DCL      3865>>IF
UWA.SN.SETYPE
      3689**DCL      3860<<ASSIGN   3861>>DOWHILE
WRITERECORD_TO_SEQ_FILE
      3380**DCL-ENT  4179--CALL
WRITE_USER_FILE
      4170**PROC     3933--CALL     3971--CALL     4117--CALL
X
        21**DCL      3877<<ASSIGN   3878--ASSIGN   3881<<ASSIGN   3926<<DOINDEX  3927>>IF       3928>>CALLBLT
      3929<<ASSIGN   3964<<DOINDEX  3965>>IF       3966>>CALLBLT  3967<<ASSIGN   4069<<CALLBLT  4070>>DOWHILE
      4071>>CALLBLT  4072<<CALLBLT
Y
        12**DCL      4175>>DOWHILE
ZIG$DECOMP
PL6.E3A0      #001=DISP File=ZIG$DDX7.:ZIC0TSI                                   FRI 09/05/97 11:53 Page:90
      3817**DCL-ENT  3921--CALL     3934--CALL     3958--CALL     3972--CALL
ZIG$V_DESC
      3818**DCL-ENT  4078--CALL
