
PL6.E3A0      #001=DICT File=ZIG$DDX8.:ZIC0TSI                                   FRI 09/05/97 11:53 Page:1
        1        1        /*M* ZIG$DDX8         I-D-S/II            DBACS    */
        2        2        /*T***********************************************************/
        3        3        /*T*                                                         */
        4        4        /*T* Copyright (c) Bull HN Information Systems Inc., 1997    */
        5        5        /*T*                                                         */
        6        6        /*T***********************************************************/
        7        7        DICT:
        8        8            PROC;
        9        9    1   DCL LANGT(0:5) CHAR(9) CONSTANT INIT('****','COBOL ','FORTRAN ','APL ','BASIC',
                 9            'COBOL TPR');
       10       10    1   DCL LK3 SBIN HALF;
       11       11    1   DCL DATE_ CHAR(10);
       12       12    1   DCL TIME_ CHAR(11);
       13       13    1   DCL TIME_HRS CHAR(16);
       14       14    1   DCL DAY_ CHAR(3);
       15       15    1   DCL UN_TIME ENTRY (4);
       16       16    1   DCL BIT36 BIT(36) BASED;
       17       17    1   DCL 01 BIT36_RDEF,
       18       18    1         02 B0 BIT(1),
       19       19    1         02 B1 BIT(1),
       20       20    1         02 B2_35 BIT(34);
       21       21    1   DCL Z SBIN STATIC;
       22       22    1   DCL PP PTR;
       23       23    1   DCL MSK_18B(0:5) BIT(18) BASED;
       24       24    1   DCL XXX SBIN STATIC INIT(0);
       25       25    1   DCL RECORD_NAME CHAR(30) EXT;
       26       26    1   DCL FIVESTAREOF UBIN WORD STATIC;
       27       27    1   DCL 1 W25 BASED(W25$),
       28       28    1         2 * CHAR(100);
       29       29    1   DCL W25$ PTR;
       30       30    1   DCL P1 PTR;
       31       31    1   DCL SSSNAME CHAR(30) STATIC;
       32       32    1   DCL 01 UAS_G BASED(P1),
       33       33    1         02 UAS_DATE CHAR(6),
       34       34    1         02 UAS_TIME CHAR(6);
       35       35    1   DCL FLAG CHAR(2);
       36       36    1   DCL COMPRD ENTRY;
PL6.E3A0      #001=DICT File=ZIG$DDX8.:ZIC0TSI                                   FRI 09/05/97 11:53 Page:2
       37       37         /* Read routine */
       38       38    1   DCL PRINTAS ENTRY(2);
       39       39    1   DCL READ64 ENTRY(2);
       40       40    1   DCL BLKPTR PTR;
       41       41    1   DCL BUFFPTR PTR;
       42       42    1   DCL BUFSZ UBIN WORD STATIC INIT(25);
       43       43    1   DCL Y SBIN STATIC INIT(0);
       44       44    1   DCL 01 CBLKNO,
       45       45    1         02 BLK BIT(35),
       46       46    1         02 REC2 BIT(1);
       47       47    1   DCL B1 REDEF CBLKNO BIT(36);
       48       48    1   DCL TS CHAR(12);
       49       49    1   DCL SSGTIME UBIN WORD;
       50       50    1   DCL 01 CU,
       51       51    1         02 BLKNO BIT(35),
       52       52    1         02 RECNO BIT(1);
       53       53    1   DCL 01 CU_UBIN REDEF CU UBIN WORD;
       54       54        %INCLUDE ZIG_DBA_INT;
       55      102        %INCLUDE ZIG_DIR_STRUCS;
       56      232        %INCLUDE ZI_SUB_LANG;
       57     1947        %COMPILATION_UNIT_REC (STCLASS="BASED(BLKPTR)");
       58     1980        %CONTROL_BLOCK;
       59     2088        %INCLUDE ZIG_FIVESTAR_DESC;
       60     2131        %INCLUDE ZIA_IDS_DCL;
       61     2239        %INCLUDE ZI_SUB4_CAN;
       62     2896        %INCLUDE ZIG_GENERAL;
       63     3004        %UWA;
       64     3339    1   DCL OL CHAR(128);
       65     3340    1   DCL UNSC ENTRY(2);
       66     3341    1   DCL LKV CHAR(12);
       67     3342    1   DCL C64 CHAR(64);
       68     3343    1       C64 = 'DICTIONARY PROCESSOR';
       69     3344    1       CALL SUBLST(C64);
       70     3345         /* Ready data base */
       71     3346         /* Get sf */
       72     3347    1       CALL FETCHD_6('SF  ',2) ALTRET(DBCSERR);
       73     3348         /* Get da */
PL6.E3A0      #001=DICT File=ZIG$DDX8.:ZIC0TSI                                   FRI 09/05/97 11:53 Page:3
       74     3349    1       CALL FETCHD_6('DA  ', UWA.SF.DBKEY_DA) ALTRET(DBCSERR);
       75     3350         /* Get sn element */
       76     3351    1       UWA.SN.SETYPE = 0;
       77     3352    2       DO WHILE(UWA.SN.SETYPE ~= 10);
       78     3353    2           CALL FETCHNS_6('DA-SN   ') ALTRET(DBCSERR);
       79     3354    2           END;
       80     3355    1       IF DICTS.SNAME ~= ' ' THEN
       81     3356    2           IF UWA.SN.SENAME ~= DICTS.SNAME THEN DO;
       82     3357    2               CALL CONCAT(OL,DICTS.SNAME, ' IS NOT NAME OF ASSIGNED SCHEMA FILE');
       83     3358    2               CALL LIST(OL);
       84     3359    2               RETURN;
       85     3360    2               END;
       86     3361    1       IF DICTS.SCHEMA_DICT THEN
       87     3362    2       DO;
       88     3363         /*Record dict function attempted against schema*/
       89     3364    2           UWA.A_D.AD_FUNCTION = 6;
       90     3365    2           CALL GET_TIME(UWA.A_D.AD_DATE);
       91     3366    2           UWA.A_D.AD_IDENT = ' ';
       92     3367    2           XXX = 54;
       93     3368    2           ADDR(PP)->MSK_18B(1) = ADDR(XXX)->MSK_18B(2);
       94     3369    2           CALL STRE_6('A-D ') ALTRET(DBCSERR);
       95     3370    2           END;
       96     3371         /* Get lk element */
       97     3372         /* Mark lock on dicts not found */
       98     3373    1       LK3 = 0;
       99     3374    2       DO WHILE(DICTS.DISP_KEY ~= LKV);
      100     3375    2           CALL FETCHNS_6('SN-LT   ') ALTRET(L30);
      101     3376    2           BIT36_RDEF = ADDR(UWA.LT.PLOCKS) -> BIT36;
      102     3377    2           IF BIT36_RDEF.B1 = '1'B
      103     3378    3           THEN DO;
      104     3379         /* There is a lock for display */
      105     3380    3               LK3 = 1;
      106     3381         /* Get lk element */
      107     3382    3               CALL FETCHOS_6('LK-LT   ') ALTRET(DBCSERR);
      108     3383    3               IF UWA.LK.PLVALUE = '"NULL"' THEN
      109     3384    3                   GOTO A1;
      110     3385    3               ELSE CALL UNSC(UWA.LK.PLVALUE,LKV);
PL6.E3A0      #001=DICT File=ZIG$DDX8.:ZIC0TSI                                   FRI 09/05/97 11:53 Page:4
      111     3386    3               END;
      112     3387    2           END;
      113     3388    1   A1:
      114     3389    1       IF DICTS.SCHEMA_DICT THEN
      115     3390    2       DO;
      116     3391    2           IF DICTS.ALL.SCHEMAS THEN
      117     3392    3           DO;
      118     3393         /* Produce listing of subschemas translated against
      119     3394         schema */
      120     3395    3               OL = 'SCHEMA/SUBSCHEMA CROSS REFERENCE***';
      121     3396    3               CALL LIST(OL);
      122     3397    3               OL = ' ';
      123     3398    3               CALL LIST(OL);
      124     3399    4               DO WHILE(Y = 0);
      125     3400    4                   CALL FETCHNS_6('SF-AS   ') ALTRET(L3);
      126     3401    4                   CALL UN_TIME(UWA.AS.SS_TIME,DATE_,DAY_,TIME_);
      127     3402    4                   CALL CONCAT(TIME_HRS,TIME_,' HRS.');
      128     3403    4                   CALL CONCAT(OL,'SUBSCHEMA  ',UWA.AS.SS_NAME ,' WAS TRANSLATED ON ',
              3403                            DATE_,' AT ',TIME_HRS);
      129     3404    4                   CALL LIST(OL);
      130     3405    4                   END;
      131     3406    3   L3:
      132     3407    3               IF UWA.DB_STATUS ~= '0502100' THEN
      133     3408    3                   GOTO DBCSERR;
      134     3409    3               END;
      135     3410    2           IF DICTS.ALL.AREAS THEN
      136     3411    2               CALL PRINTAS('ALL                           ',1);
      137     3412    2           IF DICTS.ALL.SETS THEN
      138     3413    2               CALL PRINTAS('ALL                           ',2);
      139     3414    2           IF DICTS.ALL.KEYS THEN
      140     3415    2               CALL PRINTAS('ALL                           ',3);
      141     3416    2           IF DICTS.ALL.RECORDS THEN
      142     3417    2               CALL PRINTAS('ALL                           ',4);
      143     3418    2           IF DICTS.ALL.FIELDS THEN
      144     3419    2               CALL PRINTAS('ALL                           ',5);
      145     3420         /* * */
      146     3421    2           IF DICTS.NAMES ~= '0'B THEN
PL6.E3A0      #001=DICT File=ZIG$DDX8.:ZIC0TSI                                   FRI 09/05/97 11:53 Page:5
      147     3422    3           DO;
      148     3423    3               CALL UOPEN('5*',0);
      149     3424    3               CALL UGET('5*',W25$,FIVESTAREOF,BUFSZ);
      150     3425    3               DICT_DESC = W25;
      151     3426    4               DO WHILE(FIVESTAREOF = 0);
      152     3427    4                   IF DICT_DESC.NAME_TYPE = 5 THEN
      153     3428    5                   DO;
      154     3429    5                       RECORD_NAME = DICT_DESC.QUAL;
      155     3430    5                       CALL PRINTAS(DICT_DESC.NAME,DICT_DESC.NAME_TYPE);
      156     3431    5                       END;
      157     3432    4                   ELSE
      158     3433    4                       CALL PRINTAS(DICT_DESC.QUAL,DICT_DESC.NAME_TYPE);
      159     3434    4                   CALL UGET('5*',W25$,FIVESTAREOF,BUFSZ);
      160     3435    4                   DICT_DESC = W25;
      161     3436    4                   END;
      162     3437    3               CALL UCLOSE('5*');
      163     3438    3               END;
      164     3439    2           END;
      165     3440    1       IF DICTS.SUBSCHEMA_DICT THEN
      166     3441    2       DO;
      167     3442    2           OL = 'SUBSCHEMA/PROGRAM CROSS REFERENCE***';
      168     3443    2           CALL LIST(OL);
      169     3444    2           OL = ' ';
      170     3445    2           CALL LIST(OL);
      171     3446    2           BUFFPTR = ADDR(CONTROL);
      172     3447         /* / read control segment */
      173     3448    2           CALL READ64(0, BUFFPTR);
      174     3449    2           IF CONTROL.TYPE30 ~= 30 &
      175     3450    2              CONTROL.TYPE100 ~= 100 THEN
      176     3451    3           DO;
      177     3452    3               OL = '6* NOT RECOGNIZED AS SUBSCHEMA FILE';
      178     3453    3               CALL LIST(OL);
      179     3454    3               RETURN;
      180     3455    3               END;
      181     3456    2           IF DICTS.SSNAME ~= ' ' THEN
      182     3457    3           DO;
      183     3458    3               SSSNAME = DICTS.SSNAME;
PL6.E3A0      #001=DICT File=ZIG$DDX8.:ZIC0TSI                                   FRI 09/05/97 11:53 Page:6
      184     3459    4               IF SSSNAME ~= CONTROL.SUBSCHEMA_NAME THEN DO;
      185     3460    4                   CALL CONCAT(OL, 'GIVEN SUBSCHEMA NAME ' ,SSSNAME ,
              3460                            ' NOT EQUAL SUBSCHEMA NAME ON 6*');
      186     3461    4                   CALL LIST(OL);
      187     3462    4                   RETURN;
      188     3463    4                   END;
      189     3464    3               END;
      190     3465         /* Print subheading */
      191     3466    2           CALL CONCAT(C64,'     SUBSCHEMA NAME IS ', CONTROL.SUBSCHEMA_NAME);
      192     3467    2           CALL SUBLST(C64);
      193     3468    2           IF CONTROL.TRANSLATION_STATUS = 1 THEN /* */
      194     3469    2               TS ='UNSUCCESSFUL';
      195     3470    2           ELSE /* */
      196     3471    2               TS = 'SUCCESSFUL';
      197     3472    2           CALL UN_TIME(CONTROL.SUBSCHEMA_UTS,DATE_,DAY_,TIME_);
      198     3473    2           CALL CONCAT(TIME_HRS,TIME_,' HRS.');
      199     3474    2           CALL CONCAT(OL,'SUBSCHEMA TRANSLATION WAS ',TS,' ON ',DATE_,' AT ',TIME_HRS)
              3474                    ;
      200     3475    2           CALL LIST(OL);
      201     3476    2           CALL CONCAT(OL,'LANGUAGE IS ',LANGT(CONTROL.LANGUAGE));
      202     3477    2           CALL LIST(OL);
      203     3478    2           OL = ' ';
      204     3479    2           CALL LIST (OL);
      205     3480    2           IF CONTROL.VALIDATION_UTS~=0
      206     3481    3           THEN DO;
      207     3482    3               IF CONTROL.VALIDATION_STATUS=30
      208     3483    3               THEN TS='SUCCESSFUL';
      209     3484    3               ELSE TS='UNSUCCESSFUL';
      210     3485    3               CALL UN_TIME(CONTROL.VALIDATION_UTS,DATE_,DAY_,TIME_);
      211     3486    3               CALL CONCAT(TIME_HRS,TIME_,' HRS.');
      212     3487    3               CALL CONCAT(OL,'VALIDATION WAS ',TS,' ON ',DATE_,' AT ',TIME_HRS);
      213     3488    3               CALL LIST(OL);
      214     3489    3               END;
      215     3490         /* Verify language */
      216     3491    2           CALL CONCAT(OL,'LANGUAGE IS ',LANGT(CONTROL.LANGUAGE));
      217     3492    2           CALL LIST(OL);
      218     3493    2           OL = ' ';
PL6.E3A0      #001=DICT File=ZIG$DDX8.:ZIC0TSI                                   FRI 09/05/97 11:53 Page:7
      219     3494    2           CALL LIST(OL);
      220     3495    2           SSGTIME=CONTROL.SUBSCHEMA_UTS;
      221     3496    2           B1 = BINBIT(CONTROL.FIRST_CU_RECORD,36);
      222     3497    2           IF CONTROL.FIRST_CU_RECORD ~= 0 THEN CALL
      223     3498    2                  READ64(CONTROL.FIRST_CU_RECORD/2 , BUFFPTR);
      224     3499    2           ELSE GOTO D60;
      225     3500    2           OL =
              3500                    '   PROGRAM ID                         COMPILATION DATE            TIME'
              3500                    ;
      226     3501    2           CALL LIST(OL);
      227     3502    2           OL = ' ';
      228     3503    2           CALL LIST(OL);
      229     3504    2   PRINT:
      230     3505    2           IF CBLKNO.REC2 = '1'B THEN BLKPTR = ADDR(CONTROL.TYPE100);
      231     3506    2           ELSE BLKPTR = ADDR(CONTROL);
      232     3507    3           IF COMPILATION_UNIT_REC.TYPE ~= 1000 THEN DO;
      233     3508    3               OL = 'ILLEGAL TYPE FOR COMPILATION_UNIT_REC RECORD';
      234     3509    3               CALL LIST(OL);
      235     3510    3               RETURN;
      236     3511    3               END;
      237     3512    2           IF COMPILATION_UNIT_REC.TRN_UTS ~= SSGTIME
      238     3513    2           THEN FLAG = '**';
      239     3514    2           ELSE FLAG = '  ';
      240     3515    2           CALL UN_TIME(COMPILATION_UNIT_REC.COMP_UTS,DATE_,DAY_,TIME_);
      241     3516    2           CALL CONCAT(TIME_HRS,TIME_,' HRS.');
      242     3517    2           CALL CONCAT(OL,FLAG,COMPILATION_UNIT_REC.PROGRAM_ID,'     ',DATE_,
              3517                    '           ',TIME_HRS);
      243     3518    2           CALL LIST(OL);
      244     3519         /* Check for end of area */
      245     3520    3           IF COMPILATION_UNIT_REC.NEXT_CU_RECORD = 0 THEN DO;
      246     3521    3               OL = ' ';
      247     3522    3               CALL LIST(OL);
      248     3523    3               OL = '** The subschema has changed since these programs were compiled.';
      249     3524    3               CALL LIST(OL);
      250     3525    3   D60:
      251     3526    3               OL = 'END OF COMPILATIONS/SUBSCHEMA LISTING';
      252     3527    3               CALL LIST(OL);
PL6.E3A0      #001=DICT File=ZIG$DDX8.:ZIC0TSI                                   FRI 09/05/97 11:53 Page:8
      253     3528    3               RETURN;
      254     3529    3               END;
      255     3530         /* Save record number of next cu */
      256     3531    2           CU_UBIN = COMPILATION_UNIT_REC.NEXT_CU_RECORD;
      257     3532    2           IF CU.BLKNO ~= CBLKNO.BLK THEN CALL
      258     3533    2                  READ64(BITBIN(CU.BLKNO), BUFFPTR);
      259     3534    2           B1 = CU;
      260     3535    2           GOTO PRINT;
      261     3536    2           END;
      262     3537    1       RETURN;
      263     3538    1   DBCSERR: CALL ABORT;
      264     3539    1   L30:
      265     3540    1       IF UWA.DB_STATUS ~= '0502100' THEN GOTO DBCSERR;
      266     3541    1       IF LK3 = 0 THEN GOTO A1;
      267     3542    1       CALL CONCAT(OL,'ILLEGAL PRIVACY KEY FOR DISPLAY - ',DICTS.DISP_KEY);
      268     3543    1       CALL LIST(OL);
      269     3544    1       RETURN;
      270     3545    1   END;

PL6.E3A0      #001=DICT File=ZIG$DDX8.:ZIC0TSI                                   FRI 09/05/97 11:53 Page:9
--  Include file information  --

   ZIG_GENERAL.:ZIC0TOU  cannot be made into a system file and is referenced.
   ZI_SUB4_CAN.:ZIC0TOU  is referenced.
   ZIA_IDS_DCL.:ZIC0TOU  cannot be made into a system file and is referenced.
   ZIG_FIVESTAR_DESC.:ZIC0TOU  cannot be made into a system file and is referenced.
   ZI_SUB_LANG.:ZIC0TOU  is referenced.
   ZIG_DIR_STRUCS.:ZIC0TOU  cannot be made into a system file and is referenced.
   ZIG_DBA_INT.:ZIC0TOU  cannot be made into a system file and is referenced.
   B$JIT_C.:E05TOU  was found in the system file and is never referenced.
   CP_6_C.:E05TOU  was found in the system file and is never referenced.
      No diagnostics issued in procedure DICT.

   Procedure DICT requires 716 words for executable code.
   Procedure DICT requires 84 words of local(AUTO) storage.

    No errors detected in file ZIG$DDX8.:ZIC0TSI    .

PL6.E3A0      #001=DICT File=ZIG$DDX8.:ZIC0TSI                                   FRI 09/05/97 11:53 Page:10

 Object Unit name= DICT                                       File name= ZIG$DDX8.:ZIC0TOU
 UTS= SEP 05 '97 11:53:34.88 FRI                              Compiler= PL-6/E31         Sev=      00
 SharedLib= :SHARED_SYSTEM                                    Alt SharedLib=


    ****  Control sections  ****

 Sect   Type Bound  Init  Size OctSiz  Section name(segment info)
    0  RoData even  UTS    195    303  DICT
    1   Data  even  none    51     63  DICT
    2  LblCom even  none     8     10  RECORD_NAME
    3  LblCom even  none    12     14  ANALS
    4  LblCom even  none    13     15  PURGE
    5  LblCom even  none    19     23  DICTS
    6  LblCom even  none    23     27  DISPS
    7  LblCom even  none    22     26  VALIDS
    8  LblCom even  none    12     14  LOCKS
    9  LblCom even  none    10     12  STRAN
   10  LblCom even  none    12     14  DTRAN
   11  LblCom even  none    16     20  SSTRANS
   12  LblCom even  none    20     24  SSGEN
   13  LblCom even  none    64    100  CONTROL
   14  LblCom even  none    25     31  DESC
   15  LblCom even  none     1      1  NUM_ERROR_MSG
   16  LblCom even  none     1      1  NUM_WARN_MSG
   17  LblCom even  none     1      1  ALLOCATE_END
   18  LblCom even  none     2      2  SUBSCHEMA_KEY
   19  LblCom even  none     1      1  BUFFER$
   20  LblCom even  none     1      1  ERROR_IO
   21  LblCom even  none     1      1  BUFFER_LEN
   22  LblCom even  none     2      2  UWA_KEY
   23  LblCom even  none     1      1  NEXT_UWA_SECOND_HALF
   24  LblCom even  none     2      2  RVA_KEY
   25  LblCom even  none     2      2  IA__KEY
   26  LblCom even  none     1      1  NEXT_RVA_SECOND_HALF
   27  LblCom even  none    32     40  SEARCHR_NB
   28  LblCom even  none    32     40  SEM_COM
PL6.E3A0      #001=DICT File=ZIG$DDX8.:ZIC0TSI                                   FRI 09/05/97 11:53 Page:11
   29  LblCom even  none    32     40  DMCL_XLATE
   30  LblCom even  none    32     40  Q2_PERCENT
   31  LblCom even  none   656   1220  UWA
   32   Proc  even  none   716   1314  DICT
   33  RoData even  none    45     55  DICT

    ****  Entry defs  ****

                              Check   Calling
                             calling  sequence
  Sect OctLoc Primary Altret sequence   type   Parms  Name
    32      0   yes            yes      Std        0  DICT

  ****  Entry refs  ****

         Check        Calling
        calling       sequence
Altret sequence SRef   type   Args  Name
         yes           Std       2 SUBLST
 yes     yes           Std       2 FETCHD_6
 yes     yes           Std       1 FETCHOS_6
         yes           Std       2 UOPEN
         yes           Std       4 UGET
 yes     yes           Std       1 FETCHNS_6
         yes           Std       1 LIST
 yes     yes           Std       1 STRE_6
         yes           Std       2 UNSC
         yes           Std       2 READ64
         yes           Std       1 GET_TIME
         yes           Std       2 PRINTAS
         yes           Std       1 UCLOSE
         yes           Std       0 ABORT
         yes           Std       4 UN_TIME
                       nStd      0 X66_AUTO_0
                       nStd      0 X66_ARET
PL6.E3A0      #001=DICT File=ZIG$DDX8.:ZIC0TSI                                   FRI 09/05/97 11:53 Page:12

  ****  Segment refs  ****

  Flags:  r = read only, s = secondary
Flgs Name                             Flgs Name                             Flgs Name
     ISSID
PL6.E3A0      #001=DICT File=ZIG$DDX8.:ZIC0TSI                                   FRI 09/05/97 11:53 Page:13


        1        1        /*M* ZIG$DDX8         I-D-S/II            DBACS    */
        2        2        /*T***********************************************************/
        3        3        /*T*                                                         */
        4        4        /*T* Copyright (c) Bull HN Information Systems Inc., 1997    */
        5        5        /*T*                                                         */
        6        6        /*T***********************************************************/
        7        7        DICT:
        8        8            PROC;

      8 32 000000   000000 700200 xent  DICT         TSX0  ! X66_AUTO_0
        32 000001   000124 000000                    ZERO    84,0

        9        9    1   DCL LANGT(0:5) CHAR(9) CONSTANT INIT('****','COBOL ','FORTRAN ','APL ','BASIC',
                 9            'COBOL TPR');
       10       10    1   DCL LK3 SBIN HALF;
       11       11    1   DCL DATE_ CHAR(10);
       12       12    1   DCL TIME_ CHAR(11);
       13       13    1   DCL TIME_HRS CHAR(16);
       14       14    1   DCL DAY_ CHAR(3);
       15       15    1   DCL UN_TIME ENTRY (4);
       16       16    1   DCL BIT36 BIT(36) BASED;
       17       17    1   DCL 01 BIT36_RDEF,
       18       18    1         02 B0 BIT(1),
       19       19    1         02 B1 BIT(1),
       20       20    1         02 B2_35 BIT(34);
       21       21    1   DCL Z SBIN STATIC;
       22       22    1   DCL PP PTR;
       23       23    1   DCL MSK_18B(0:5) BIT(18) BASED;
       24       24    1   DCL XXX SBIN STATIC INIT(0);
       25       25    1   DCL RECORD_NAME CHAR(30) EXT;
       26       26    1   DCL FIVESTAREOF UBIN WORD STATIC;
       27       27    1   DCL 1 W25 BASED(W25$),
       28       28    1         2 * CHAR(100);
       29       29    1   DCL W25$ PTR;
       30       30    1   DCL P1 PTR;
       31       31    1   DCL SSSNAME CHAR(30) STATIC;
PL6.E3A0      #001=DICT File=ZIG$DDX8.:ZIC0TSI                                   FRI 09/05/97 11:53 Page:14
       32       32    1   DCL 01 UAS_G BASED(P1),
       33       33    1         02 UAS_DATE CHAR(6),
       34       34    1         02 UAS_TIME CHAR(6);
       35       35    1   DCL FLAG CHAR(2);
       36       36    1   DCL COMPRD ENTRY;
       37       37         /* Read routine */
       38       38    1   DCL PRINTAS ENTRY(2);
       39       39    1   DCL READ64 ENTRY(2);
       40       40    1   DCL BLKPTR PTR;
       41       41    1   DCL BUFFPTR PTR;
       42       42    1   DCL BUFSZ UBIN WORD STATIC INIT(25);
       43       43    1   DCL Y SBIN STATIC INIT(0);
       44       44    1   DCL 01 CBLKNO,
       45       45    1         02 BLK BIT(35),
       46       46    1         02 REC2 BIT(1);
       47       47    1   DCL B1 REDEF CBLKNO BIT(36);
       48       48    1   DCL TS CHAR(12);
       49       49    1   DCL SSGTIME UBIN WORD;
       50       50    1   DCL 01 CU,
       51       51    1         02 BLKNO BIT(35),
       52       52    1         02 RECNO BIT(1);
       53       53    1   DCL 01 CU_UBIN REDEF CU UBIN WORD;
       54       54        %INCLUDE ZIG_DBA_INT;
       55      102        %INCLUDE ZIG_DIR_STRUCS;
       56      232        %INCLUDE ZI_SUB_LANG;
       57     1947        %COMPILATION_UNIT_REC (STCLASS="BASED(BLKPTR)");
       58     1980        %CONTROL_BLOCK;
       59     2088        %INCLUDE ZIG_FIVESTAR_DESC;
       60     2131        %INCLUDE ZIA_IDS_DCL;
       61     2239        %INCLUDE ZI_SUB4_CAN;
       62     2896        %INCLUDE ZIG_GENERAL;
       63     3004        %UWA;
       64     3339    1   DCL OL CHAR(128);
       65     3340    1   DCL UNSC ENTRY(2);
       66     3341    1   DCL LKV CHAR(12);
       67     3342    1   DCL C64 CHAR(64);
       68     3343    1       C64 = 'DICTIONARY PROCESSOR';
PL6.E3A0      #001=DICT File=ZIG$DDX8.:ZIC0TSI                                   FRI 09/05/97 11:53 Page:15

   3343 32 000002   040100 100400                    MLR     fill='040'O
        32 000003   000016 000024 0                  ADSC9   LANGT+14                 cn=0,n=20
        32 000004   200077 000100                    ADSC9   C64,,AUTO                cn=0,n=64

       69     3344    1       CALL SUBLST(C64);

   3344 32 000005   200077 630500                    EPPR0   C64,,AUTO
        32 000006   200120 450500                    STP0    C64+17,,AUTO
        32 000007   200120 630500                    EPPR0   C64+17,,AUTO
        32 000010   000000 631400 33                 EPPR1   0
        32 000011   000000 701000 xent               TSX1    SUBLST
        32 000012   000000 011000                    NOP     0

       70     3345         /* Ready data base */
       71     3346         /* Get sf */
       72     3347    1       CALL FETCHD_6('SF  ',2) ALTRET(DBCSERR);

   3347 32 000013   000003 630400 33                 EPPR0   3
        32 000014   000001 631400 33                 EPPR1   1
        32 000015   000000 701000 xent               TSX1    FETCHD_6
        32 000016   001266 702000 32                 TSX2    DBCSERR

       73     3348         /* Get da */
       74     3349    1       CALL FETCHD_6('DA  ', UWA.SF.DBKEY_DA) ALTRET(DBCSERR);

   3349 32 000017   000005 630400 33                 EPPR0   5
        32 000020   000001 631400 33                 EPPR1   1
        32 000021   000000 701000 xent               TSX1    FETCHD_6
        32 000022   001266 702000 32                 TSX2    DBCSERR

       75     3350         /* Get sn element */
       76     3351    1       UWA.SN.SETYPE = 0;

   3351 32 000023   000424 450000 31                 STZ     UWA+276

       77     3352    2       DO WHILE(UWA.SN.SETYPE ~= 10);
PL6.E3A0      #001=DICT File=ZIG$DDX8.:ZIC0TSI                                   FRI 09/05/97 11:53 Page:16

   3352 32 000024   000424 235000 31                 LDA     UWA+276
        32 000025   000012 115007                    CMPA    10,DL
        32 000026   000036 600000 32                 TZE     s:3355

       78     3353    2           CALL FETCHNS_6('DA-SN   ') ALTRET(DBCSERR);

   3353 32 000027   000007 630400 33                 EPPR0   7
        32 000030   000000 631400 33                 EPPR1   0
        32 000031   000000 701000 xent               TSX1    FETCHNS_6
        32 000032   001266 702000 32                 TSX2    DBCSERR

       79     3354    2           END;

   3354 32 000033   000424 235000 31                 LDA     UWA+276
        32 000034   000012 115007                    CMPA    10,DL
        32 000035   000027 601000 32                 TNZ     s:3353

       80     3355    1       IF DICTS.SNAME ~= ' ' THEN

   3355 32 000036   040000 106400                    CMPC    fill='040'O
        32 000037   000004 000036 5                  ADSC9   DICTS+4                  cn=0,n=30
        32 000040   000010 000001 33                 ADSC9   8                        cn=0,n=1
        32 000041   000063 600000 32                 TZE     s:3361

       81     3356    2           IF UWA.SN.SENAME ~= DICTS.SNAME THEN DO;

   3356 32 000042   040000 106400                    CMPC    fill='040'O
        32 000043   000427 000036 31                 ADSC9   UWA+279                  cn=0,n=30
        32 000044   000004 000036 5                  ADSC9   DICTS+4                  cn=0,n=30
        32 000045   000063 600000 32                 TZE     s:3361

       82     3357    2               CALL CONCAT(OL,DICTS.SNAME, ' IS NOT NAME OF ASSIGNED SCHEMA FILE');

   3357 32 000046   040100 100400                    MLR     fill='040'O
        32 000047   000004 000036 5                  ADSC9   DICTS+4                  cn=0,n=30
        32 000050   200034 000036                    ADSC9   OL,,AUTO                 cn=0,n=30
PL6.E3A0      #001=DICT File=ZIG$DDX8.:ZIC0TSI                                   FRI 09/05/97 11:53 Page:17
        32 000051   040100 100400                    MLR     fill='040'O
        32 000052   000027 000044 0                  ADSC9   LANGT+23                 cn=0,n=36
        32 000053   200043 400142                    ADSC9   OL+7,,AUTO               cn=2,n=98

       83     3358    2               CALL LIST(OL);

   3358 32 000054   200034 630500                    EPPR0   OL,,AUTO
        32 000055   200120 450500                    STP0    C64+17,,AUTO
        32 000056   200120 630500                    EPPR0   C64+17,,AUTO
        32 000057   000000 631400 33                 EPPR1   0
        32 000060   000000 701000 xent               TSX1    LIST
        32 000061   000000 011000                    NOP     0

       84     3359    2               RETURN;

   3359 32 000062   000000 702200 xent               TSX2  ! X66_ARET

       85     3360    2               END;
       86     3361    1       IF DICTS.SCHEMA_DICT THEN

   3361 32 000063   000000 236000 5                  LDQ     DICTS
        32 000064   040000 316003                    CANQ    16384,DU
        32 000065   000107 600000 32                 TZE     s:3373

       87     3362    2       DO;

       88     3363         /*Record dict function attempted against schema*/
       89     3364    2           UWA.A_D.AD_FUNCTION = 6;

   3364 32 000066   000006 235007                    LDA     6,DL
        32 000067   000170 755000 31                 STA     UWA+120

       90     3365    2           CALL GET_TIME(UWA.A_D.AD_DATE);

   3365 32 000070   000011 630400 33                 EPPR0   9
        32 000071   000000 631400 33                 EPPR1   0
        32 000072   000000 701000 xent               TSX1    GET_TIME
PL6.E3A0      #001=DICT File=ZIG$DDX8.:ZIC0TSI                                   FRI 09/05/97 11:53 Page:18
        32 000073   000000 011000                    NOP     0

       91     3366    2           UWA.A_D.AD_IDENT = ' ';

   3366 32 000074   040000 100400                    MLR     fill='040'O
        32 000075   000010 000001 33                 ADSC9   8                        cn=0,n=1
        32 000076   000174 000074 31                 ADSC9   UWA+124                  cn=0,n=60

       92     3367    2           XXX = 54;

   3367 32 000077   000066 235007                    LDA     54,DL
        32 000100   000001 755000 1                  STA     XXX

       93     3368    2           ADDR(PP)->MSK_18B(1) = ADDR(XXX)->MSK_18B(2);

   3368 32 000101   000002 220000 1                  LDX0    FIVESTAREOF
        32 000102   200020 440100                    SXL0    PP,,AUTO

       94     3369    2           CALL STRE_6('A-D ') ALTRET(DBCSERR);

   3369 32 000103   000012 630400 33                 EPPR0   10
        32 000104   000000 631400 33                 EPPR1   0
        32 000105   000000 701000 xent               TSX1    STRE_6
        32 000106   001266 702000 32                 TSX2    DBCSERR

       95     3370    2           END;

       96     3371         /* Get lk element */
       97     3372         /* Mark lock on dicts not found */
       98     3373    1       LK3 = 0;

   3373 32 000107   000000 220003                    LDX0    0,DU
        32 000110   200003 740100                    STX0    LK3,,AUTO

       99     3374    2       DO WHILE(DICTS.DISP_KEY ~= LKV);

   3374 32 000111   040100 106400                    CMPC    fill='040'O
PL6.E3A0      #001=DICT File=ZIG$DDX8.:ZIC0TSI                                   FRI 09/05/97 11:53 Page:19
        32 000112   000001 000014 5                  ADSC9   DICTS+1                  cn=0,n=12
        32 000113   200074 000014                    ADSC9   LKV,,AUTO                cn=0,n=12
        32 000114   000153 600000 32                 TZE     A1

      100     3375    2           CALL FETCHNS_6('SN-LT   ') ALTRET(L30);

   3375 32 000115   000013 630400 33                 EPPR0   11
        32 000116   000000 631400 33                 EPPR1   0
        32 000117   000000 701000 xent               TSX1    FETCHNS_6
        32 000120   001271 702000 32                 TSX2    L30

      101     3376    2           BIT36_RDEF = ADDR(UWA.LT.PLOCKS) -> BIT36;

   3376 32 000121   000473 236000 31                 LDQ     UWA+315
        32 000122   200017 756100                    STQ     BIT36_RDEF,,AUTO

      102     3377    2           IF BIT36_RDEF.B1 = '1'B

   3377 32 000123   200000 316003                    CANQ    65536,DU
        32 000124   000147 600000 32                 TZE     s:3387

      103     3378    3           THEN DO;

      104     3379         /* There is a lock for display */
      105     3380    3               LK3 = 1;

   3380 32 000125   000001 220003                    LDX0    1,DU
        32 000126   200003 740100                    STX0    LK3,,AUTO

      106     3381         /* Get lk element */
      107     3382    3               CALL FETCHOS_6('LK-LT   ') ALTRET(DBCSERR);

   3382 32 000127   000014 630400 33                 EPPR0   12
        32 000130   000000 631400 33                 EPPR1   0
        32 000131   000000 701000 xent               TSX1    FETCHOS_6
        32 000132   001266 702000 32                 TSX2    DBCSERR

PL6.E3A0      #001=DICT File=ZIG$DDX8.:ZIC0TSI                                   FRI 09/05/97 11:53 Page:20
      108     3383    3               IF UWA.LK.PLVALUE = '"NULL"' THEN

   3383 32 000133   040000 106400                    CMPC    fill='040'O
        32 000134   000447 400014 31                 ADSC9   UWA+295                  cn=2,n=12
        32 000135   000045 000006 0                  ADSC9   LANGT+37                 cn=0,n=6
        32 000136   000153 600000 32                 TZE     A1

      109     3384    3                   GOTO A1;
      110     3385    3               ELSE CALL UNSC(UWA.LK.PLVALUE,LKV);

   3385 32 000137   200074 630500                    EPPR0   LKV,,AUTO
        32 000140   200121 450500                    STP0    C64+18,,AUTO
        32 000141   000015 236000 33                 LDQ     13
        32 000142   200120 756100                    STQ     C64+17,,AUTO
        32 000143   200120 630500                    EPPR0   C64+17,,AUTO
        32 000144   000001 631400 33                 EPPR1   1
        32 000145   000000 701000 xent               TSX1    UNSC
        32 000146   000000 011000                    NOP     0

      111     3386    3               END;

      112     3387    2           END;

   3387 32 000147   040100 106400                    CMPC    fill='040'O
        32 000150   000001 000014 5                  ADSC9   DICTS+1                  cn=0,n=12
        32 000151   200074 000014                    ADSC9   LKV,,AUTO                cn=0,n=12
        32 000152   000115 601000 32                 TNZ     s:3375

      113     3388    1   A1:
      114     3389    1       IF DICTS.SCHEMA_DICT THEN

   3389 32 000153   000000 236000 5     A1           LDQ     DICTS
        32 000154   040000 316003                    CANQ    16384,DU
        32 000155   000424 600000 32                 TZE     s:3440

      115     3390    2       DO;

PL6.E3A0      #001=DICT File=ZIG$DDX8.:ZIC0TSI                                   FRI 09/05/97 11:53 Page:21
      116     3391    2           IF DICTS.ALL.SCHEMAS THEN

   3391 32 000156   010000 316003                    CANQ    4096,DU
        32 000157   000270 600000 32                 TZE     s:3410

      117     3392    3           DO;

      118     3393         /* Produce listing of subschemas translated against
      119     3394         schema */
      120     3395    3               OL = 'SCHEMA/SUBSCHEMA CROSS REFERENCE***';

   3395 32 000160   040100 100400                    MLR     fill='040'O
        32 000161   000047 000043 0                  ADSC9   LANGT+39                 cn=0,n=35
        32 000162   200034 000200                    ADSC9   OL,,AUTO                 cn=0,n=128

      121     3396    3               CALL LIST(OL);

   3396 32 000163   200034 630500                    EPPR0   OL,,AUTO
        32 000164   200120 450500                    STP0    C64+17,,AUTO
        32 000165   200120 630500                    EPPR0   C64+17,,AUTO
        32 000166   000000 631400 33                 EPPR1   0
        32 000167   000000 701000 xent               TSX1    LIST
        32 000170   000000 011000                    NOP     0

      122     3397    3               OL = ' ';

   3397 32 000171   040100 100400                    MLR     fill='040'O
        32 000172   000010 000001 33                 ADSC9   8                        cn=0,n=1
        32 000173   200034 000200                    ADSC9   OL,,AUTO                 cn=0,n=128

      123     3398    3               CALL LIST(OL);

   3398 32 000174   200034 630500                    EPPR0   OL,,AUTO
        32 000175   200120 450500                    STP0    C64+17,,AUTO
        32 000176   200120 630500                    EPPR0   C64+17,,AUTO
        32 000177   000000 631400 33                 EPPR1   0
        32 000200   000000 701000 xent               TSX1    LIST
PL6.E3A0      #001=DICT File=ZIG$DDX8.:ZIC0TSI                                   FRI 09/05/97 11:53 Page:22
        32 000201   000000 011000                    NOP     0

      124     3399    4               DO WHILE(Y = 0);

   3399 32 000202   000014 235000 1                  LDA     Y
        32 000203   000264 601000 32                 TNZ     L3

      125     3400    4                   CALL FETCHNS_6('SF-AS   ') ALTRET(L3);

   3400 32 000204   000016 630400 33                 EPPR0   14
        32 000205   000000 631400 33                 EPPR1   0
        32 000206   000000 701000 xent               TSX1    FETCHNS_6
        32 000207   000264 702000 32                 TSX2    L3

      126     3401    4                   CALL UN_TIME(UWA.AS.SS_TIME,DATE_,DAY_,TIME_);

   3401 32 000210   200007 630500                    EPPR0   TIME_,,AUTO
        32 000211   200123 450500                    STP0    C64+20,,AUTO
        32 000212   200016 631500                    EPPR1   DAY_,,AUTO
        32 000213   200122 451500                    STP1    C64+19,,AUTO
        32 000214   200004 633500                    EPPR3   DATE_,,AUTO
        32 000215   200121 453500                    STP3    C64+18,,AUTO
        32 000216   000020 236000 33                 LDQ     16
        32 000217   200120 756100                    STQ     C64+17,,AUTO
        32 000220   200120 630500                    EPPR0   C64+17,,AUTO
        32 000221   000017 631400 33                 EPPR1   15
        32 000222   000000 701000 xent               TSX1    UN_TIME
        32 000223   000000 011000                    NOP     0

      127     3402    4                   CALL CONCAT(TIME_HRS,TIME_,' HRS.');

   3402 32 000224   040100 100500                    MLR     fill='040'O
        32 000225   200007 000013                    ADSC9   TIME_,,AUTO              cn=0,n=11
        32 000226   200012 000013                    ADSC9   TIME_HRS,,AUTO           cn=0,n=11
        32 000227   040100 100400                    MLR     fill='040'O
        32 000230   000062 000005 0                  ADSC9   LANGT+50                 cn=0,n=5
        32 000231   200014 600005                    ADSC9   TIME_HRS+2,,AUTO         cn=3,n=5
PL6.E3A0      #001=DICT File=ZIG$DDX8.:ZIC0TSI                                   FRI 09/05/97 11:53 Page:23

      128     3403    4                   CALL CONCAT(OL,'SUBSCHEMA  ',UWA.AS.SS_NAME ,' WAS TRANSLATED ON ',
              3403                            DATE_,' AT ',TIME_HRS);

   3403 32 000232   040100 100400                    MLR     fill='040'O
        32 000233   000064 000013 0                  ADSC9   LANGT+52                 cn=0,n=11
        32 000234   200034 000013                    ADSC9   OL,,AUTO                 cn=0,n=11
        32 000235   040100 100400                    MLR     fill='040'O
        32 000236   000066 000036 31                 ADSC9   UWA+54                   cn=0,n=30
        32 000237   200036 600036                    ADSC9   OL+2,,AUTO               cn=3,n=30
        32 000240   040100 100400                    MLR     fill='040'O
        32 000241   000067 000023 0                  ADSC9   LANGT+55                 cn=0,n=19
        32 000242   200046 200023                    ADSC9   OL+10,,AUTO              cn=1,n=19
        32 000243   040100 100500                    MLR     fill='040'O
        32 000244   200004 000012                    ADSC9   DATE_,,AUTO              cn=0,n=10
        32 000245   200053 000012                    ADSC9   OL+15,,AUTO              cn=0,n=10
        32 000246   040100 100400                    MLR     fill='040'O
        32 000247   000074 000004 0                  ADSC9   LANGT+60                 cn=0,n=4
        32 000250   200055 400004                    ADSC9   OL+17,,AUTO              cn=2,n=4
        32 000251   040100 100500                    MLR     fill='040'O
        32 000252   200012 000020                    ADSC9   TIME_HRS,,AUTO           cn=0,n=16
        32 000253   200056 400066                    ADSC9   OL+18,,AUTO              cn=2,n=54

      129     3404    4                   CALL LIST(OL);

   3404 32 000254   200034 630500                    EPPR0   OL,,AUTO
        32 000255   200120 450500                    STP0    C64+17,,AUTO
        32 000256   200120 630500                    EPPR0   C64+17,,AUTO
        32 000257   000000 631400 33                 EPPR1   0
        32 000260   000000 701000 xent               TSX1    LIST
        32 000261   000000 011000                    NOP     0

      130     3405    4                   END;

   3405 32 000262   000014 235000 1                  LDA     Y
        32 000263   000204 600000 32                 TZE     s:3400

PL6.E3A0      #001=DICT File=ZIG$DDX8.:ZIC0TSI                                   FRI 09/05/97 11:53 Page:24
      131     3406    3   L3:
      132     3407    3               IF UWA.DB_STATUS ~= '0502100' THEN

   3407 32 000264   040000 106400       L3           CMPC    fill='040'O
        32 000265   000001 000007 31                 ADSC9   UWA+1                    cn=0,n=7
        32 000266   000075 000007 0                  ADSC9   LANGT+61                 cn=0,n=7
        32 000267   001266 601000 32                 TNZ     DBCSERR

      133     3408    3                   GOTO DBCSERR;
      134     3409    3               END;

      135     3410    2           IF DICTS.ALL.AREAS THEN

   3410 32 000270   000000 236000 5                  LDQ     DICTS
        32 000271   004000 316003                    CANQ    2048,DU
        32 000272   000277 600000 32                 TZE     s:3412

      136     3411    2               CALL PRINTAS('ALL                           ',1);

   3411 32 000273   000022 630400 33                 EPPR0   18
        32 000274   000001 631400 33                 EPPR1   1
        32 000275   000000 701000 xent               TSX1    PRINTAS
        32 000276   000000 011000                    NOP     0

      137     3412    2           IF DICTS.ALL.SETS THEN

   3412 32 000277   000000 236000 5                  LDQ     DICTS
        32 000300   002000 316003                    CANQ    1024,DU
        32 000301   000306 600000 32                 TZE     s:3414

      138     3413    2               CALL PRINTAS('ALL                           ',2);

   3413 32 000302   000024 630400 33                 EPPR0   20
        32 000303   000001 631400 33                 EPPR1   1
        32 000304   000000 701000 xent               TSX1    PRINTAS
        32 000305   000000 011000                    NOP     0

PL6.E3A0      #001=DICT File=ZIG$DDX8.:ZIC0TSI                                   FRI 09/05/97 11:53 Page:25
      139     3414    2           IF DICTS.ALL.KEYS THEN

   3414 32 000306   000000 430000 5                  FSZN    DICTS
        32 000307   000314 605000 32                 TPL     s:3416

      140     3415    2               CALL PRINTAS('ALL                           ',3);

   3415 32 000310   000027 630400 33                 EPPR0   23
        32 000311   000001 631400 33                 EPPR1   1
        32 000312   000000 701000 xent               TSX1    PRINTAS
        32 000313   000000 011000                    NOP     0

      141     3416    2           IF DICTS.ALL.RECORDS THEN

   3416 32 000314   000000 236000 5                  LDQ     DICTS
        32 000315   000400 316003                    CANQ    256,DU
        32 000316   000323 600000 32                 TZE     s:3418

      142     3417    2               CALL PRINTAS('ALL                           ',4);

   3417 32 000317   000032 630400 33                 EPPR0   26
        32 000320   000001 631400 33                 EPPR1   1
        32 000321   000000 701000 xent               TSX1    PRINTAS
        32 000322   000000 011000                    NOP     0

      143     3418    2           IF DICTS.ALL.FIELDS THEN

   3418 32 000323   000000 236000 5                  LDQ     DICTS
        32 000324   000200 316003                    CANQ    128,DU
        32 000325   000332 600000 32                 TZE     s:3421

      144     3419    2               CALL PRINTAS('ALL                           ',5);

   3419 32 000326   000035 630400 33                 EPPR0   29
        32 000327   000001 631400 33                 EPPR1   1
        32 000330   000000 701000 xent               TSX1    PRINTAS
        32 000331   000000 011000                    NOP     0
PL6.E3A0      #001=DICT File=ZIG$DDX8.:ZIC0TSI                                   FRI 09/05/97 11:53 Page:26

      145     3420         /* * */
      146     3421    2           IF DICTS.NAMES ~= '0'B THEN

   3421 32 000332   000000 236000 5                  LDQ     DICTS
        32 000333   000174 316003                    CANQ    124,DU
        32 000334   000424 600000 32                 TZE     s:3440

      147     3422    3           DO;

      148     3423    3               CALL UOPEN('5*',0);

   3423 32 000335   000040 630400 33                 EPPR0   32
        32 000336   000001 631400 33                 EPPR1   1
        32 000337   000000 701000 xent               TSX1    UOPEN
        32 000340   000000 011000                    NOP     0

      149     3424    3               CALL UGET('5*',W25$,FIVESTAREOF,BUFSZ);

   3424 32 000341   000042 237000 33                 LDAQ    34
        32 000342   200122 757100                    STAQ    C64+19,,AUTO
        32 000343   200021 630500                    EPPR0   W25$,,AUTO
        32 000344   200121 450500                    STP0    C64+18,,AUTO
        32 000345   000040 236000 33                 LDQ     32
        32 000346   200120 756100                    STQ     C64+17,,AUTO
        32 000347   200120 630500                    EPPR0   C64+17,,AUTO
        32 000350   000017 631400 33                 EPPR1   15
        32 000351   000000 701000 xent               TSX1    UGET
        32 000352   000000 011000                    NOP     0

      150     3425    3               DICT_DESC = W25;

   3425 32 000353   200021 470500                    LDP0    W25$,,AUTO
        32 000354   000000 100500                    MLR     fill='000'O
        32 000355   000000 000144                    ADSC9   0,,PR0                   cn=0,n=100
        32 000356   000000 000144 14                 ADSC9   DESC                     cn=0,n=100

PL6.E3A0      #001=DICT File=ZIG$DDX8.:ZIC0TSI                                   FRI 09/05/97 11:53 Page:27
      151     3426    4               DO WHILE(FIVESTAREOF = 0);

   3426 32 000357   000002 235000 1                  LDA     FIVESTAREOF
        32 000360   000420 601000 32                 TNZ     s:3437

      152     3427    4                   IF DICT_DESC.NAME_TYPE = 5 THEN

   3427 32 000361   000000 235000 14                 LDA     DESC
        32 000362   000005 115007                    CMPA    5,DL
        32 000363   000374 601000 32                 TNZ     s:3433

      153     3428    5                   DO;

      154     3429    5                       RECORD_NAME = DICT_DESC.QUAL;

   3429 32 000364   040000 100400                    MLR     fill='040'O
        32 000365   000001 000036 14                 ADSC9   DESC+1                   cn=0,n=30
        32 000366   000000 000036 2                  ADSC9   RECORD_NAME              cn=0,n=30

      155     3430    5                       CALL PRINTAS(DICT_DESC.NAME,DICT_DESC.NAME_TYPE);

   3430 32 000367   000044 630400 33                 EPPR0   36
        32 000370   000001 631400 33                 EPPR1   1
        32 000371   000000 701000 xent               TSX1    PRINTAS
        32 000372   000000 011000                    NOP     0

      156     3431    5                       END;

   3431 32 000373   000400 710000 32                 TRA     s:3434

      157     3432    4                   ELSE
      158     3433    4                       CALL PRINTAS(DICT_DESC.QUAL,DICT_DESC.NAME_TYPE);

   3433 32 000374   000046 630400 33                 EPPR0   38
        32 000375   000001 631400 33                 EPPR1   1
        32 000376   000000 701000 xent               TSX1    PRINTAS
        32 000377   000000 011000                    NOP     0
PL6.E3A0      #001=DICT File=ZIG$DDX8.:ZIC0TSI                                   FRI 09/05/97 11:53 Page:28

      159     3434    4                   CALL UGET('5*',W25$,FIVESTAREOF,BUFSZ);

   3434 32 000400   000042 237000 33                 LDAQ    34
        32 000401   200122 757100                    STAQ    C64+19,,AUTO
        32 000402   200021 630500                    EPPR0   W25$,,AUTO
        32 000403   200121 450500                    STP0    C64+18,,AUTO
        32 000404   000040 236000 33                 LDQ     32
        32 000405   200120 756100                    STQ     C64+17,,AUTO
        32 000406   200120 630500                    EPPR0   C64+17,,AUTO
        32 000407   000017 631400 33                 EPPR1   15
        32 000410   000000 701000 xent               TSX1    UGET
        32 000411   000000 011000                    NOP     0

      160     3435    4                   DICT_DESC = W25;

   3435 32 000412   200021 470500                    LDP0    W25$,,AUTO
        32 000413   000000 100500                    MLR     fill='000'O
        32 000414   000000 000144                    ADSC9   0,,PR0                   cn=0,n=100
        32 000415   000000 000144 14                 ADSC9   DESC                     cn=0,n=100

      161     3436    4                   END;

   3436 32 000416   000002 235000 1                  LDA     FIVESTAREOF
        32 000417   000361 600000 32                 TZE     s:3427

      162     3437    3               CALL UCLOSE('5*');

   3437 32 000420   000040 630400 33                 EPPR0   32
        32 000421   000000 631400 33                 EPPR1   0
        32 000422   000000 701000 xent               TSX1    UCLOSE
        32 000423   000000 011000                    NOP     0

      163     3438    3               END;

      164     3439    2           END;

PL6.E3A0      #001=DICT File=ZIG$DDX8.:ZIC0TSI                                   FRI 09/05/97 11:53 Page:29
      165     3440    1       IF DICTS.SUBSCHEMA_DICT THEN

   3440 32 000424   000000 236000 5                  LDQ     DICTS
        32 000425   020000 316003                    CANQ    8192,DU
        32 000426   001265 600000 32                 TZE     s:3537

      166     3441    2       DO;

      167     3442    2           OL = 'SUBSCHEMA/PROGRAM CROSS REFERENCE***';

   3442 32 000427   040100 100400                    MLR     fill='040'O
        32 000430   000110 000044 0                  ADSC9   LANGT+72                 cn=0,n=36
        32 000431   200034 000200                    ADSC9   OL,,AUTO                 cn=0,n=128

      168     3443    2           CALL LIST(OL);

   3443 32 000432   200034 630500                    EPPR0   OL,,AUTO
        32 000433   200120 450500                    STP0    C64+17,,AUTO
        32 000434   200120 630500                    EPPR0   C64+17,,AUTO
        32 000435   000000 631400 33                 EPPR1   0
        32 000436   000000 701000 xent               TSX1    LIST
        32 000437   000000 011000                    NOP     0

      169     3444    2           OL = ' ';

   3444 32 000440   040100 100400                    MLR     fill='040'O
        32 000441   000010 000001 33                 ADSC9   8                        cn=0,n=1
        32 000442   200034 000200                    ADSC9   OL,,AUTO                 cn=0,n=128

      170     3445    2           CALL LIST(OL);

   3445 32 000443   200034 630500                    EPPR0   OL,,AUTO
        32 000444   200120 450500                    STP0    C64+17,,AUTO
        32 000445   200120 630500                    EPPR0   C64+17,,AUTO
        32 000446   000000 631400 33                 EPPR1   0
        32 000447   000000 701000 xent               TSX1    LIST
        32 000450   000000 011000                    NOP     0
PL6.E3A0      #001=DICT File=ZIG$DDX8.:ZIC0TSI                                   FRI 09/05/97 11:53 Page:30

      171     3446    2           BUFFPTR = ADDR(CONTROL);

   3446 32 000451   000050 236000 33                 LDQ     40
        32 000452   200025 756100                    STQ     BUFFPTR,,AUTO

      172     3447         /* / read control segment */
      173     3448    2           CALL READ64(0, BUFFPTR);

   3448 32 000453   200025 630500                    EPPR0   BUFFPTR,,AUTO
        32 000454   200121 450500                    STP0    C64+18,,AUTO
        32 000455   000041 236000 33                 LDQ     33
        32 000456   200120 756100                    STQ     C64+17,,AUTO
        32 000457   200120 630500                    EPPR0   C64+17,,AUTO
        32 000460   000001 631400 33                 EPPR1   1
        32 000461   000000 701000 xent               TSX1    READ64
        32 000462   000000 011000                    NOP     0

      174     3449    2           IF CONTROL.TYPE30 ~= 30 &

   3449 32 000463   400000 220003                    LDX0    -131072,DU
        32 000464   000003 235000 13                 LDA     CONTROL+3
        32 000465   000036 115007                    CMPA    30,DL
        32 000466   000470 601000 32                 TNZ     s:3449+5
        32 000467   000000 220003                    LDX0    0,DU
        32 000470   400000 221003                    LDX1    -131072,DU
        32 000471   000040 236000 13                 LDQ     CONTROL+32
        32 000472   000144 116007                    CMPQ    100,DL
        32 000473   000475 601000 32                 TNZ     s:3449+10
        32 000474   000000 221003                    LDX1    0,DU
        32 000475   000000 636011                    EAQ     0,X1
        32 000476   200120 756100                    STQ     C64+17,,AUTO
        32 000477   000000 636010                    EAQ     0,X0
        32 000500   200120 376100                    ANQ     C64+17,,AUTO
        32 000501   000514 600000 32                 TZE     s:3456

      175     3450    2              CONTROL.TYPE100 ~= 100 THEN
PL6.E3A0      #001=DICT File=ZIG$DDX8.:ZIC0TSI                                   FRI 09/05/97 11:53 Page:31
      176     3451    3           DO;

      177     3452    3               OL = '6* NOT RECOGNIZED AS SUBSCHEMA FILE';

   3452 32 000502   040100 100400                    MLR     fill='040'O
        32 000503   000121 000043 0                  ADSC9   LANGT+81                 cn=0,n=35
        32 000504   200034 000200                    ADSC9   OL,,AUTO                 cn=0,n=128

      178     3453    3               CALL LIST(OL);

   3453 32 000505   200034 630500                    EPPR0   OL,,AUTO
        32 000506   200120 450500                    STP0    C64+17,,AUTO
        32 000507   200120 630500                    EPPR0   C64+17,,AUTO
        32 000510   000000 631400 33                 EPPR1   0
        32 000511   000000 701000 xent               TSX1    LIST
        32 000512   000000 011000                    NOP     0

      179     3454    3               RETURN;

   3454 32 000513   000000 702200 xent               TSX2  ! X66_ARET

      180     3455    3               END;
      181     3456    2           IF DICTS.SSNAME ~= ' ' THEN

   3456 32 000514   040000 106400                    CMPC    fill='040'O
        32 000515   000013 400036 5                  ADSC9   DICTS+11                 cn=2,n=30
        32 000516   000010 000001 33                 ADSC9   8                        cn=0,n=1
        32 000517   000547 600000 32                 TZE     s:3466

      182     3457    3           DO;

      183     3458    3               SSSNAME = DICTS.SSNAME;

   3458 32 000520   040000 100400                    MLR     fill='040'O
        32 000521   000013 400036 5                  ADSC9   DICTS+11                 cn=2,n=30
        32 000522   000003 000036 1                  ADSC9   SSSNAME                  cn=0,n=30

PL6.E3A0      #001=DICT File=ZIG$DDX8.:ZIC0TSI                                   FRI 09/05/97 11:53 Page:32
      184     3459    4               IF SSSNAME ~= CONTROL.SUBSCHEMA_NAME THEN DO;

   3459 32 000523   040000 106400                    CMPC    fill='040'O
        32 000524   000003 000036 1                  ADSC9   SSSNAME                  cn=0,n=30
        32 000525   000030 000040 13                 ADSC9   CONTROL+24               cn=0,n=32
        32 000526   000547 600000 32                 TZE     s:3466

      185     3460    4                   CALL CONCAT(OL, 'GIVEN SUBSCHEMA NAME ' ,SSSNAME ,
              3460                            ' NOT EQUAL SUBSCHEMA NAME ON 6*');

   3460 32 000527   040100 100400                    MLR     fill='040'O
        32 000530   000132 000025 0                  ADSC9   LANGT+90                 cn=0,n=21
        32 000531   200034 000025                    ADSC9   OL,,AUTO                 cn=0,n=21
        32 000532   040100 100400                    MLR     fill='040'O
        32 000533   000003 000036 1                  ADSC9   SSSNAME                  cn=0,n=30
        32 000534   200041 200036                    ADSC9   OL+5,,AUTO               cn=1,n=30
        32 000535   040100 100400                    MLR     fill='040'O
        32 000536   000140 000037 0                  ADSC9   LANGT+96                 cn=0,n=31
        32 000537   200050 600115                    ADSC9   OL+12,,AUTO              cn=3,n=77

      186     3461    4                   CALL LIST(OL);

   3461 32 000540   200034 630500                    EPPR0   OL,,AUTO
        32 000541   200120 450500                    STP0    C64+17,,AUTO
        32 000542   200120 630500                    EPPR0   C64+17,,AUTO
        32 000543   000000 631400 33                 EPPR1   0
        32 000544   000000 701000 xent               TSX1    LIST
        32 000545   000000 011000                    NOP     0

      187     3462    4                   RETURN;

   3462 32 000546   000000 702200 xent               TSX2  ! X66_ARET

      188     3463    4                   END;
      189     3464    3               END;
      190     3465         /* Print subheading */
      191     3466    2           CALL CONCAT(C64,'     SUBSCHEMA NAME IS ', CONTROL.SUBSCHEMA_NAME);
PL6.E3A0      #001=DICT File=ZIG$DDX8.:ZIC0TSI                                   FRI 09/05/97 11:53 Page:33

   3466 32 000547   040100 100400                    MLR     fill='040'O
        32 000550   000150 000027 0                  ADSC9   LANGT+104                cn=0,n=23
        32 000551   200077 000027                    ADSC9   C64,,AUTO                cn=0,n=23
        32 000552   040100 100400                    MLR     fill='040'O
        32 000553   000030 000040 13                 ADSC9   CONTROL+24               cn=0,n=32
        32 000554   200104 600051                    ADSC9   C64+5,,AUTO              cn=3,n=41

      192     3467    2           CALL SUBLST(C64);

   3467 32 000555   200077 630500                    EPPR0   C64,,AUTO
        32 000556   200120 450500                    STP0    C64+17,,AUTO
        32 000557   200120 630500                    EPPR0   C64+17,,AUTO
        32 000560   000000 631400 33                 EPPR1   0
        32 000561   000000 701000 xent               TSX1    SUBLST
        32 000562   000000 011000                    NOP     0

      193     3468    2           IF CONTROL.TRANSLATION_STATUS = 1 THEN /* */

   3468 32 000563   000001 235000 13                 LDA     CONTROL+1
        32 000564   000001 115007                    CMPA    1,DL
        32 000565   000572 601000 32                 TNZ     s:3471

      194     3469    2               TS ='UNSUCCESSFUL';

   3469 32 000566   040100 100400                    MLR     fill='040'O
        32 000567   000156 000014 0                  ADSC9   LANGT+110                cn=0,n=12
        32 000570   200027 000014                    ADSC9   TS,,AUTO                 cn=0,n=12
        32 000571   000575 710000 32                 TRA     s:3472

      195     3470    2           ELSE /* */
      196     3471    2               TS = 'SUCCESSFUL';

   3471 32 000572   040100 100400                    MLR     fill='040'O
        32 000573   000161 000012 0                  ADSC9   LANGT+113                cn=0,n=10
        32 000574   200027 000014                    ADSC9   TS,,AUTO                 cn=0,n=12

PL6.E3A0      #001=DICT File=ZIG$DDX8.:ZIC0TSI                                   FRI 09/05/97 11:53 Page:34
      197     3472    2           CALL UN_TIME(CONTROL.SUBSCHEMA_UTS,DATE_,DAY_,TIME_);

   3472 32 000575   200007 630500                    EPPR0   TIME_,,AUTO
        32 000576   200123 450500                    STP0    C64+20,,AUTO
        32 000577   200016 631500                    EPPR1   DAY_,,AUTO
        32 000600   200122 451500                    STP1    C64+19,,AUTO
        32 000601   200004 633500                    EPPR3   DATE_,,AUTO
        32 000602   200121 453500                    STP3    C64+18,,AUTO
        32 000603   000051 236000 33                 LDQ     41
        32 000604   200120 756100                    STQ     C64+17,,AUTO
        32 000605   200120 630500                    EPPR0   C64+17,,AUTO
        32 000606   000017 631400 33                 EPPR1   15
        32 000607   000000 701000 xent               TSX1    UN_TIME
        32 000610   000000 011000                    NOP     0

      198     3473    2           CALL CONCAT(TIME_HRS,TIME_,' HRS.');

   3473 32 000611   040100 100500                    MLR     fill='040'O
        32 000612   200007 000013                    ADSC9   TIME_,,AUTO              cn=0,n=11
        32 000613   200012 000013                    ADSC9   TIME_HRS,,AUTO           cn=0,n=11
        32 000614   040100 100400                    MLR     fill='040'O
        32 000615   000062 000005 0                  ADSC9   LANGT+50                 cn=0,n=5
        32 000616   200014 600005                    ADSC9   TIME_HRS+2,,AUTO         cn=3,n=5

      199     3474    2          CALL CONCAT(OL,'SUBSCHEMA TRANSLATION WAS ',TS,' ON ',DATE_,' AT ',TIME_HRS)
              3474                    ;

   3474 32 000617   040100 100400                    MLR     fill='040'O
        32 000620   000164 000032 0                  ADSC9   LANGT+116                cn=0,n=26
        32 000621   200034 000032                    ADSC9   OL,,AUTO                 cn=0,n=26
        32 000622   040100 100500                    MLR     fill='040'O
        32 000623   200027 000014                    ADSC9   TS,,AUTO                 cn=0,n=12
        32 000624   200042 400014                    ADSC9   OL+6,,AUTO               cn=2,n=12
        32 000625   040100 100400                    MLR     fill='040'O
        32 000626   000173 000004 0                  ADSC9   LANGT+123                cn=0,n=4
        32 000627   200045 400004                    ADSC9   OL+9,,AUTO               cn=2,n=4
        32 000630   040100 100500                    MLR     fill='040'O
PL6.E3A0      #001=DICT File=ZIG$DDX8.:ZIC0TSI                                   FRI 09/05/97 11:53 Page:35
        32 000631   200004 000012                    ADSC9   DATE_,,AUTO              cn=0,n=10
        32 000632   200046 400012                    ADSC9   OL+10,,AUTO              cn=2,n=10
        32 000633   000074 236000 0                  LDQ     LANGT+60
        32 000634   200051 756100                    STQ     OL+13,,AUTO
        32 000635   040100 100500                    MLR     fill='040'O
        32 000636   200012 000020                    ADSC9   TIME_HRS,,AUTO           cn=0,n=16
        32 000637   200052 000110                    ADSC9   OL+14,,AUTO              cn=0,n=72

      200     3475    2           CALL LIST(OL);

   3475 32 000640   200034 630500                    EPPR0   OL,,AUTO
        32 000641   200120 450500                    STP0    C64+17,,AUTO
        32 000642   200120 630500                    EPPR0   C64+17,,AUTO
        32 000643   000000 631400 33                 EPPR1   0
        32 000644   000000 701000 xent               TSX1    LIST
        32 000645   000000 011000                    NOP     0

      201     3476    2           CALL CONCAT(OL,'LANGUAGE IS ',LANGT(CONTROL.LANGUAGE));

   3476 32 000646   040100 100400                    MLR     fill='040'O
        32 000647   000174 000014 0                  ADSC9   LANGT+124                cn=0,n=12
        32 000650   200034 000014                    ADSC9   OL,,AUTO                 cn=0,n=12
        32 000651   000041 236000 13                 LDQ     CONTROL+33
        32 000652   000011 402007                    MPY     9,DL
        32 000653   040100 100406                    MLR     fill='040'O
        32 000654   000000 000011 0                  ADSC9   LANGT,Q                  cn=0,n=9
        32 000655   200037 000164                    ADSC9   OL+3,,AUTO               cn=0,n=116

      202     3477    2           CALL LIST(OL);

   3477 32 000656   200034 630500                    EPPR0   OL,,AUTO
        32 000657   200120 450500                    STP0    C64+17,,AUTO
        32 000660   200120 630500                    EPPR0   C64+17,,AUTO
        32 000661   000000 631400 33                 EPPR1   0
        32 000662   000000 701000 xent               TSX1    LIST
        32 000663   000000 011000                    NOP     0

PL6.E3A0      #001=DICT File=ZIG$DDX8.:ZIC0TSI                                   FRI 09/05/97 11:53 Page:36
      203     3478    2           OL = ' ';

   3478 32 000664   040100 100400                    MLR     fill='040'O
        32 000665   000010 000001 33                 ADSC9   8                        cn=0,n=1
        32 000666   200034 000200                    ADSC9   OL,,AUTO                 cn=0,n=128

      204     3479    2           CALL LIST (OL);

   3479 32 000667   200034 630500                    EPPR0   OL,,AUTO
        32 000670   200120 450500                    STP0    C64+17,,AUTO
        32 000671   200120 630500                    EPPR0   C64+17,,AUTO
        32 000672   000000 631400 33                 EPPR1   0
        32 000673   000000 701000 xent               TSX1    LIST
        32 000674   000000 011000                    NOP     0

      205     3480    2           IF CONTROL.VALIDATION_UTS~=0

   3480 32 000675   000055 235000 13                 LDA     CONTROL+45
        32 000676   000763 600000 32                 TZE     s:3491

      206     3481    3           THEN DO;

      207     3482    3               IF CONTROL.VALIDATION_STATUS=30

   3482 32 000677   000000 236000 13                 LDQ     CONTROL
        32 000700   000036 116007                    CMPQ    30,DL
        32 000701   000706 601000 32                 TNZ     s:3484

      208     3483    3               THEN TS='SUCCESSFUL';

   3483 32 000702   040100 100400                    MLR     fill='040'O
        32 000703   000161 000012 0                  ADSC9   LANGT+113                cn=0,n=10
        32 000704   200027 000014                    ADSC9   TS,,AUTO                 cn=0,n=12
        32 000705   000711 710000 32                 TRA     s:3485

      209     3484    3               ELSE TS='UNSUCCESSFUL';

PL6.E3A0      #001=DICT File=ZIG$DDX8.:ZIC0TSI                                   FRI 09/05/97 11:53 Page:37
   3484 32 000706   040100 100400                    MLR     fill='040'O
        32 000707   000156 000014 0                  ADSC9   LANGT+110                cn=0,n=12
        32 000710   200027 000014                    ADSC9   TS,,AUTO                 cn=0,n=12

      210     3485    3               CALL UN_TIME(CONTROL.VALIDATION_UTS,DATE_,DAY_,TIME_);

   3485 32 000711   200007 630500                    EPPR0   TIME_,,AUTO
        32 000712   200123 450500                    STP0    C64+20,,AUTO
        32 000713   200016 631500                    EPPR1   DAY_,,AUTO
        32 000714   200122 451500                    STP1    C64+19,,AUTO
        32 000715   200004 633500                    EPPR3   DATE_,,AUTO
        32 000716   200121 453500                    STP3    C64+18,,AUTO
        32 000717   000052 236000 33                 LDQ     42
        32 000720   200120 756100                    STQ     C64+17,,AUTO
        32 000721   200120 630500                    EPPR0   C64+17,,AUTO
        32 000722   000017 631400 33                 EPPR1   15
        32 000723   000000 701000 xent               TSX1    UN_TIME
        32 000724   000000 011000                    NOP     0

      211     3486    3               CALL CONCAT(TIME_HRS,TIME_,' HRS.');

   3486 32 000725   040100 100500                    MLR     fill='040'O
        32 000726   200007 000013                    ADSC9   TIME_,,AUTO              cn=0,n=11
        32 000727   200012 000013                    ADSC9   TIME_HRS,,AUTO           cn=0,n=11
        32 000730   040100 100400                    MLR     fill='040'O
        32 000731   000062 000005 0                  ADSC9   LANGT+50                 cn=0,n=5
        32 000732   200014 600005                    ADSC9   TIME_HRS+2,,AUTO         cn=3,n=5

      212     3487    3               CALL CONCAT(OL,'VALIDATION WAS ',TS,' ON ',DATE_,' AT ',TIME_HRS);

   3487 32 000733   040100 100400                    MLR     fill='040'O
        32 000734   000177 000017 0                  ADSC9   LANGT+127                cn=0,n=15
        32 000735   200034 000017                    ADSC9   OL,,AUTO                 cn=0,n=15
        32 000736   040100 100500                    MLR     fill='040'O
        32 000737   200027 000014                    ADSC9   TS,,AUTO                 cn=0,n=12
        32 000740   200037 600014                    ADSC9   OL+3,,AUTO               cn=3,n=12
        32 000741   040100 100400                    MLR     fill='040'O
PL6.E3A0      #001=DICT File=ZIG$DDX8.:ZIC0TSI                                   FRI 09/05/97 11:53 Page:38
        32 000742   000173 000004 0                  ADSC9   LANGT+123                cn=0,n=4
        32 000743   200042 600004                    ADSC9   OL+6,,AUTO               cn=3,n=4
        32 000744   040100 100500                    MLR     fill='040'O
        32 000745   200004 000012                    ADSC9   DATE_,,AUTO              cn=0,n=10
        32 000746   200043 600012                    ADSC9   OL+7,,AUTO               cn=3,n=10
        32 000747   040100 100400                    MLR     fill='040'O
        32 000750   000074 000004 0                  ADSC9   LANGT+60                 cn=0,n=4
        32 000751   200046 200004                    ADSC9   OL+10,,AUTO              cn=1,n=4
        32 000752   040100 100500                    MLR     fill='040'O
        32 000753   200012 000020                    ADSC9   TIME_HRS,,AUTO           cn=0,n=16
        32 000754   200047 200123                    ADSC9   OL+11,,AUTO              cn=1,n=83

      213     3488    3               CALL LIST(OL);

   3488 32 000755   200034 630500                    EPPR0   OL,,AUTO
        32 000756   200120 450500                    STP0    C64+17,,AUTO
        32 000757   200120 630500                    EPPR0   C64+17,,AUTO
        32 000760   000000 631400 33                 EPPR1   0
        32 000761   000000 701000 xent               TSX1    LIST
        32 000762   000000 011000                    NOP     0

      214     3489    3               END;

      215     3490         /* Verify language */
      216     3491    2           CALL CONCAT(OL,'LANGUAGE IS ',LANGT(CONTROL.LANGUAGE));

   3491 32 000763   040100 100400                    MLR     fill='040'O
        32 000764   000174 000014 0                  ADSC9   LANGT+124                cn=0,n=12
        32 000765   200034 000014                    ADSC9   OL,,AUTO                 cn=0,n=12
        32 000766   000041 236000 13                 LDQ     CONTROL+33
        32 000767   000011 402007                    MPY     9,DL
        32 000770   040100 100406                    MLR     fill='040'O
        32 000771   000000 000011 0                  ADSC9   LANGT,Q                  cn=0,n=9
        32 000772   200037 000164                    ADSC9   OL+3,,AUTO               cn=0,n=116

      217     3492    2           CALL LIST(OL);

PL6.E3A0      #001=DICT File=ZIG$DDX8.:ZIC0TSI                                   FRI 09/05/97 11:53 Page:39
   3492 32 000773   200034 630500                    EPPR0   OL,,AUTO
        32 000774   200120 450500                    STP0    C64+17,,AUTO
        32 000775   200120 630500                    EPPR0   C64+17,,AUTO
        32 000776   000000 631400 33                 EPPR1   0
        32 000777   000000 701000 xent               TSX1    LIST
        32 001000   000000 011000                    NOP     0

      218     3493    2           OL = ' ';

   3493 32 001001   040100 100400                    MLR     fill='040'O
        32 001002   000010 000001 33                 ADSC9   8                        cn=0,n=1
        32 001003   200034 000200                    ADSC9   OL,,AUTO                 cn=0,n=128

      219     3494    2           CALL LIST(OL);

   3494 32 001004   200034 630500                    EPPR0   OL,,AUTO
        32 001005   200120 450500                    STP0    C64+17,,AUTO
        32 001006   200120 630500                    EPPR0   C64+17,,AUTO
        32 001007   000000 631400 33                 EPPR1   0
        32 001010   000000 701000 xent               TSX1    LIST
        32 001011   000000 011000                    NOP     0

      220     3495    2           SSGTIME=CONTROL.SUBSCHEMA_UTS;

   3495 32 001012   000053 235000 13                 LDA     CONTROL+43
        32 001013   200032 755100                    STA     SSGTIME,,AUTO

      221     3496    2           B1 = BINBIT(CONTROL.FIRST_CU_RECORD,36);

   3496 32 001014   000073 236000 13                 LDQ     CONTROL+59
        32 001015   200026 756100                    STQ     CBLKNO,,AUTO

      222     3497    2           IF CONTROL.FIRST_CU_RECORD ~= 0 THEN CALL

   3497 32 001016   000073 235000 13                 LDA     CONTROL+59
        32 001017   001226 600000 32                 TZE     D60

PL6.E3A0      #001=DICT File=ZIG$DDX8.:ZIC0TSI                                   FRI 09/05/97 11:53 Page:40
      223     3498    2                  READ64(CONTROL.FIRST_CU_RECORD/2 , BUFFPTR);

   3498 32 001020   000073 236000 13                 LDQ     CONTROL+59
        32 001021   000001 772000                    QRL     1
        32 001022   200120 756100                    STQ     C64+17,,AUTO
        32 001023   200025 630500                    EPPR0   BUFFPTR,,AUTO
        32 001024   200123 450500                    STP0    C64+20,,AUTO
        32 001025   200120 631500                    EPPR1   C64+17,,AUTO
        32 001026   200122 451500                    STP1    C64+19,,AUTO
        32 001027   200122 630500                    EPPR0   C64+19,,AUTO
        32 001030   000001 631400 33                 EPPR1   1
        32 001031   000000 701000 xent               TSX1    READ64
        32 001032   000000 011000                    NOP     0
        32 001033   001034 710000 32                 TRA     s:3500

      224     3499    2           ELSE GOTO D60;
      225     3500    2           OL =
              3500                    '   PROGRAM ID                         COMPILATION DATE           TIME'
              3500                    ;

   3500 32 001034   040100 100400                    MLR     fill='040'O
        32 001035   000203 000106 0                  ADSC9   LANGT+131                cn=0,n=70
        32 001036   200034 000200                    ADSC9   OL,,AUTO                 cn=0,n=128

      226     3501    2           CALL LIST(OL);

   3501 32 001037   200034 630500                    EPPR0   OL,,AUTO
        32 001040   200120 450500                    STP0    C64+17,,AUTO
        32 001041   200120 630500                    EPPR0   C64+17,,AUTO
        32 001042   000000 631400 33                 EPPR1   0
        32 001043   000000 701000 xent               TSX1    LIST
        32 001044   000000 011000                    NOP     0

      227     3502    2           OL = ' ';

   3502 32 001045   040100 100400                    MLR     fill='040'O
        32 001046   000010 000001 33                 ADSC9   8                        cn=0,n=1
PL6.E3A0      #001=DICT File=ZIG$DDX8.:ZIC0TSI                                   FRI 09/05/97 11:53 Page:41
        32 001047   200034 000200                    ADSC9   OL,,AUTO                 cn=0,n=128

      228     3503    2           CALL LIST(OL);

   3503 32 001050   200034 630500                    EPPR0   OL,,AUTO
        32 001051   200120 450500                    STP0    C64+17,,AUTO
        32 001052   200120 630500                    EPPR0   C64+17,,AUTO
        32 001053   000000 631400 33                 EPPR1   0
        32 001054   000000 701000 xent               TSX1    LIST
        32 001055   000000 011000                    NOP     0

      229     3504    2   PRINT:
      230     3505    2           IF CBLKNO.REC2 = '1'B THEN BLKPTR = ADDR(CONTROL.TYPE100);

   3505 32 001056   200026 236100       PRINT        LDQ     CBLKNO,,AUTO
        32 001057   000001 316007                    CANQ    1,DL
        32 001060   001064 600000 32                 TZE     s:3506

   3505 32 001061   000053 236000 33                 LDQ     43
        32 001062   200024 756100                    STQ     BLKPTR,,AUTO
        32 001063   001066 710000 32                 TRA     s:3507

      231     3506    2           ELSE BLKPTR = ADDR(CONTROL);

   3506 32 001064   000050 236000 33                 LDQ     40
        32 001065   200024 756100                    STQ     BLKPTR,,AUTO

      232     3507    3           IF COMPILATION_UNIT_REC.TYPE ~= 1000 THEN DO;

   3507 32 001066   200024 470500                    LDP0    BLKPTR,,AUTO
        32 001067   000100 100500                    MLR     fill='000'O
        32 001070   000003 000004                    ADSC9   3,,PR0                   cn=0,n=4
        32 001071   200120 000004                    ADSC9   C64+17,,AUTO             cn=0,n=4
        32 001072   200120 236100                    LDQ     C64+17,,AUTO
        32 001073   001750 116007                    CMPQ    1000,DL
        32 001074   001107 600000 32                 TZE     s:3512

PL6.E3A0      #001=DICT File=ZIG$DDX8.:ZIC0TSI                                   FRI 09/05/97 11:53 Page:42
      233     3508    3               OL = 'ILLEGAL TYPE FOR COMPILATION_UNIT_REC RECORD';

   3508 32 001075   040100 100400                    MLR     fill='040'O
        32 001076   000225 000054 0                  ADSC9   LANGT+149                cn=0,n=44
        32 001077   200034 000200                    ADSC9   OL,,AUTO                 cn=0,n=128

      234     3509    3               CALL LIST(OL);

   3509 32 001100   200034 631500                    EPPR1   OL,,AUTO
        32 001101   200120 451500                    STP1    C64+17,,AUTO
        32 001102   200120 630500                    EPPR0   C64+17,,AUTO
        32 001103   000000 631400 33                 EPPR1   0
        32 001104   000000 701000 xent               TSX1    LIST
        32 001105   000000 011000                    NOP     0

      235     3510    3               RETURN;

   3510 32 001106   000000 702200 xent               TSX2  ! X66_ARET

      236     3511    3               END;
      237     3512    2           IF COMPILATION_UNIT_REC.TRN_UTS ~= SSGTIME

   3512 32 001107   000100 100500                    MLR     fill='000'O
        32 001110   000027 000004                    ADSC9   23,,PR0                  cn=0,n=4
        32 001111   200120 000004                    ADSC9   C64+17,,AUTO             cn=0,n=4
        32 001112   200120 236100                    LDQ     C64+17,,AUTO
        32 001113   200032 116100                    CMPQ    SSGTIME,,AUTO
        32 001114   001120 600000 32                 TZE     s:3514

      238     3513    2           THEN FLAG = '**';

   3513 32 001115   000057 220000 0                  LDX0    LANGT+47
        32 001116   200023 740100                    STX0    FLAG,,AUTO
        32 001117   001122 710000 32                 TRA     s:3515

      239     3514    2           ELSE FLAG = '  ';

PL6.E3A0      #001=DICT File=ZIG$DDX8.:ZIC0TSI                                   FRI 09/05/97 11:53 Page:43
   3514 32 001120   000100 220000 0                  LDX0    LANGT+64
        32 001121   200023 740100                    STX0    FLAG,,AUTO

      240     3515    2           CALL UN_TIME(COMPILATION_UNIT_REC.COMP_UTS,DATE_,DAY_,TIME_);

   3515 32 001122   200007 631500                    EPPR1   TIME_,,AUTO
        32 001123   200123 451500                    STP1    C64+20,,AUTO
        32 001124   200016 633500                    EPPR3   DAY_,,AUTO
        32 001125   200122 453500                    STP3    C64+19,,AUTO
        32 001126   200004 634500                    EPPR4   DATE_,,AUTO
        32 001127   200121 454500                    STP4    C64+18,,AUTO
        32 001130   200024 236100                    LDQ     BLKPTR,,AUTO
        32 001131   000025 036003                    ADLQ    21,DU
        32 001132   200120 756100                    STQ     C64+17,,AUTO
        32 001133   200120 630500                    EPPR0   C64+17,,AUTO
        32 001134   000017 631400 33                 EPPR1   15
        32 001135   000000 701000 xent               TSX1    UN_TIME
        32 001136   000000 011000                    NOP     0

      241     3516    2           CALL CONCAT(TIME_HRS,TIME_,' HRS.');

   3516 32 001137   040100 100500                    MLR     fill='040'O
        32 001140   200007 000013                    ADSC9   TIME_,,AUTO              cn=0,n=11
        32 001141   200012 000013                    ADSC9   TIME_HRS,,AUTO           cn=0,n=11
        32 001142   040100 100400                    MLR     fill='040'O
        32 001143   000062 000005 0                  ADSC9   LANGT+50                 cn=0,n=5
        32 001144   200014 600005                    ADSC9   TIME_HRS+2,,AUTO         cn=3,n=5

      242     3517    2           CALL CONCAT(OL,FLAG,COMPILATION_UNIT_REC.PROGRAM_ID,'     ',DATE_,
              3517                    '           ',TIME_HRS);

   3517 32 001145   200023 220100                    LDX0    FLAG,,AUTO
        32 001146   200034 740100                    STX0    OL,,AUTO
        32 001147   200024 470500                    LDP0    BLKPTR,,AUTO
        32 001150   040100 100500                    MLR     fill='040'O
        32 001151   000004 000040                    ADSC9   4,,PR0                   cn=0,n=32
        32 001152   200034 400040                    ADSC9   OL,,AUTO                 cn=2,n=32
PL6.E3A0      #001=DICT File=ZIG$DDX8.:ZIC0TSI                                   FRI 09/05/97 11:53 Page:44
        32 001153   040100 100400                    MLR     fill='040'O
        32 001154   000100 000005 0                  ADSC9   LANGT+64                 cn=0,n=5
        32 001155   200044 400005                    ADSC9   OL+8,,AUTO               cn=2,n=5
        32 001156   040100 100500                    MLR     fill='040'O
        32 001157   200004 000012                    ADSC9   DATE_,,AUTO              cn=0,n=10
        32 001160   200045 600012                    ADSC9   OL+9,,AUTO               cn=3,n=10
        32 001161   040100 100400                    MLR     fill='040'O
        32 001162   000100 000013 0                  ADSC9   LANGT+64                 cn=0,n=11
        32 001163   200050 200013                    ADSC9   OL+12,,AUTO              cn=1,n=11
        32 001164   040100 100500                    MLR     fill='040'O
        32 001165   200012 000020                    ADSC9   TIME_HRS,,AUTO           cn=0,n=16
        32 001166   200053 000104                    ADSC9   OL+15,,AUTO              cn=0,n=68

      243     3518    2           CALL LIST(OL);

   3518 32 001167   200034 630500                    EPPR0   OL,,AUTO
        32 001170   200120 450500                    STP0    C64+17,,AUTO
        32 001171   200120 630500                    EPPR0   C64+17,,AUTO
        32 001172   000000 631400 33                 EPPR1   0
        32 001173   000000 701000 xent               TSX1    LIST
        32 001174   000000 011000                    NOP     0

      244     3519         /* Check for end of area */
      245     3520    3           IF COMPILATION_UNIT_REC.NEXT_CU_RECORD = 0 THEN DO;

   3520 32 001175   200024 470500                    LDP0    BLKPTR,,AUTO
        32 001176   000100 100500                    MLR     fill='000'O
        32 001177   000000 000004                    ADSC9   0,,PR0                   cn=0,n=4
        32 001200   200120 000004                    ADSC9   C64+17,,AUTO             cn=0,n=4
        32 001201   200120 236100                    LDQ     C64+17,,AUTO
        32 001202   000000 116003                    CMPQ    0,DU
        32 001203   001240 601000 32                 TNZ     s:3531

      246     3521    3               OL = ' ';

   3521 32 001204   040100 100400                    MLR     fill='040'O
        32 001205   000010 000001 33                 ADSC9   8                        cn=0,n=1
PL6.E3A0      #001=DICT File=ZIG$DDX8.:ZIC0TSI                                   FRI 09/05/97 11:53 Page:45
        32 001206   200034 000200                    ADSC9   OL,,AUTO                 cn=0,n=128

      247     3522    3               CALL LIST(OL);

   3522 32 001207   200034 631500                    EPPR1   OL,,AUTO
        32 001210   200120 451500                    STP1    C64+17,,AUTO
        32 001211   200120 630500                    EPPR0   C64+17,,AUTO
        32 001212   000000 631400 33                 EPPR1   0
        32 001213   000000 701000 xent               TSX1    LIST
        32 001214   000000 011000                    NOP     0

      248     3523    3              OL = '** The subschema has changed since these programs were compiled.';

   3523 32 001215   040100 100400                    MLR     fill='040'O
        32 001216   000240 000100 0                  ADSC9   LANGT+160                cn=0,n=64
        32 001217   200034 000200                    ADSC9   OL,,AUTO                 cn=0,n=128

      249     3524    3               CALL LIST(OL);

   3524 32 001220   200034 630500                    EPPR0   OL,,AUTO
        32 001221   200120 450500                    STP0    C64+17,,AUTO
        32 001222   200120 630500                    EPPR0   C64+17,,AUTO
        32 001223   000000 631400 33                 EPPR1   0
        32 001224   000000 701000 xent               TSX1    LIST
        32 001225   000000 011000                    NOP     0

      250     3525    3   D60:
      251     3526    3               OL = 'END OF COMPILATIONS/SUBSCHEMA LISTING';

   3526 32 001226   040100 100400       D60          MLR     fill='040'O
        32 001227   000260 000045 0                  ADSC9   LANGT+176                cn=0,n=37
        32 001230   200034 000200                    ADSC9   OL,,AUTO                 cn=0,n=128

      252     3527    3               CALL LIST(OL);

   3527 32 001231   200034 630500                    EPPR0   OL,,AUTO
        32 001232   200120 450500                    STP0    C64+17,,AUTO
PL6.E3A0      #001=DICT File=ZIG$DDX8.:ZIC0TSI                                   FRI 09/05/97 11:53 Page:46
        32 001233   200120 630500                    EPPR0   C64+17,,AUTO
        32 001234   000000 631400 33                 EPPR1   0
        32 001235   000000 701000 xent               TSX1    LIST
        32 001236   000000 011000                    NOP     0

      253     3528    3               RETURN;

   3528 32 001237   000000 702200 xent               TSX2  ! X66_ARET

      254     3529    3               END;
      255     3530         /* Save record number of next cu */
      256     3531    2           CU_UBIN = COMPILATION_UNIT_REC.NEXT_CU_RECORD;

   3531 32 001240   000100 100500                    MLR     fill='000'O
        32 001241   000000 000004                    ADSC9   0,,PR0                   cn=0,n=4
        32 001242   200033 000004                    ADSC9   CU,,AUTO                 cn=0,n=4

      257     3532    2           IF CU.BLKNO ~= CBLKNO.BLK THEN CALL

   3532 32 001243   200033 236100                    LDQ     CU,,AUTO
        32 001244   200026 676100                    ERQ     CBLKNO,,AUTO
        32 001245   000054 376000 33                 ANQ     44
        32 001246   001262 600000 32                 TZE     s:3534

      258     3533    2                  READ64(BITBIN(CU.BLKNO), BUFFPTR);

   3533 32 001247   200033 236100                    LDQ     CU,,AUTO
        32 001250   000001 772000                    QRL     1
        32 001251   200120 756100                    STQ     C64+17,,AUTO
        32 001252   200025 631500                    EPPR1   BUFFPTR,,AUTO
        32 001253   200123 451500                    STP1    C64+20,,AUTO
        32 001254   200120 633500                    EPPR3   C64+17,,AUTO
        32 001255   200122 453500                    STP3    C64+19,,AUTO
        32 001256   200122 630500                    EPPR0   C64+19,,AUTO
        32 001257   000001 631400 33                 EPPR1   1
        32 001260   000000 701000 xent               TSX1    READ64
        32 001261   000000 011000                    NOP     0
PL6.E3A0      #001=DICT File=ZIG$DDX8.:ZIC0TSI                                   FRI 09/05/97 11:53 Page:47

      259     3534    2           B1 = CU;

   3534 32 001262   200033 236100                    LDQ     CU,,AUTO
        32 001263   200026 756100                    STQ     CBLKNO,,AUTO

      260     3535    2           GOTO PRINT;

   3535 32 001264   001056 710000 32                 TRA     PRINT

      261     3536    2           END;
      262     3537    1       RETURN;

   3537 32 001265   000000 702200 xent               TSX2  ! X66_ARET

      263     3538    1   DBCSERR: CALL ABORT;

   3538 32 001266   000037 631400 33    DBCSERR      EPPR1   31
        32 001267   000000 701000 xent               TSX1    ABORT
        32 001270   000000 011000                    NOP     0

      264     3539    1   L30:
      265     3540    1       IF UWA.DB_STATUS ~= '0502100' THEN GOTO DBCSERR;

   3540 32 001271   040000 106400       L30          CMPC    fill='040'O
        32 001272   000001 000007 31                 ADSC9   UWA+1                    cn=0,n=7
        32 001273   000075 000007 0                  ADSC9   LANGT+61                 cn=0,n=7
        32 001274   001266 601000 32                 TNZ     DBCSERR

      266     3541    1       IF LK3 = 0 THEN GOTO A1;

   3541 32 001275   200003 220100                    LDX0    LK3,,AUTO
        32 001276   000153 600000 32                 TZE     A1

      267     3542    1       CALL CONCAT(OL,'ILLEGAL PRIVACY KEY FOR DISPLAY - ',DICTS.DISP_KEY);

   3542 32 001277   040100 100400                    MLR     fill='040'O
PL6.E3A0      #001=DICT File=ZIG$DDX8.:ZIC0TSI                                   FRI 09/05/97 11:53 Page:48
        32 001300   000272 000042 0                  ADSC9   LANGT+186                cn=0,n=34
        32 001301   200034 000042                    ADSC9   OL,,AUTO                 cn=0,n=34
        32 001302   040100 100400                    MLR     fill='040'O
        32 001303   000001 000014 5                  ADSC9   DICTS+1                  cn=0,n=12
        32 001304   200044 400136                    ADSC9   OL+8,,AUTO               cn=2,n=94

      268     3543    1       CALL LIST(OL);

   3543 32 001305   200034 630500                    EPPR0   OL,,AUTO
        32 001306   200120 450500                    STP0    C64+17,,AUTO
        32 001307   200120 630500                    EPPR0   C64+17,,AUTO
        32 001310   000000 631400 33                 EPPR1   0
        32 001311   000000 701000 xent               TSX1    LIST
        32 001312   000000 011000                    NOP     0

      269     3544    1       RETURN;

   3544 32 001313   000000 702200 xent               TSX2  ! X66_ARET

LANGT
 Sect OctLoc
   0     000   052052 052052   040040 040040   040103 117102   117114 040040    ****     COBOL
   0     004   040040 106117   122124 122101   116040 040101   120114 040040      FORTRAN  APL
   0     010   040040 040040   102101 123111   103040 040040   040103 117102        BASIC    COB
   0     014   117114 040124   120122 ******                                    OL TPR..

(unnamed)
 Sect OctLoc
   0     016   104111 103124   111117 116101   122131 040120   122117 103105    DICTIONARY PROCE
   0     022   123123 117122   123106 040040   104101 040040   104101 055123    SSORSF  DA  DA-S
   0     026   116040 040040   040111 123040   116117 124040   116101 115105    N    IS NOT NAME
   0     032   040117 106040   101123 123111   107116 105104   040123 103110     OF ASSIGNED SCH
   0     036   105115 101040   106111 114105   101055 104040   123116 055114    EMA FILEA-D SN-L
   0     042   124040 040040   114113 055114   124040 040040   042116 125114    T   LK-LT   "NUL
   0     046   114042 040040   123103 110105   115101 057123   125102 123103    L"  SCHEMA/SUBSC
   0     052   110105 115101   040103 122117   123123 040122   105106 105122    HEMA CROSS REFER
   0     056   105116 103105   052052 052040   123106 055101   123040 040040    ENCE*** SF-AS
PL6.E3A0      #001=DICT File=ZIG$DDX8.:ZIC0TSI                                   FRI 09/05/97 11:53 Page:49
   0     062   040110 122123   056040 040040   123125 102123   103110 105115     HRS.   SUBSCHEM
   0     066   101040 040040   040127 101123   040124 122101   116123 114101    A    WAS TRANSLA
   0     072   124105 104040   117116 040040   040101 124040   060065 060062    TED ON   AT 0502
   0     076   061060 060040   101114 114040   040040 040040   040040 040040    100 ALL
   0     102   040040 040040   040040 040040   040040 040040   040040 040040
   0     106   040040 040040   065052 040040   123125 102123   103110 105115        5*  SUBSCHEM
   0     112   101057 120122   117107 122101   115040 103122   117123 123040    A/PROGRAM CROSS
   0     116   122105 106105   122105 116103   105052 052052   066052 040116    REFERENCE***6* N
   0     122   117124 040122   105103 117107   116111 132105   104040 101123    OT RECOGNIZED AS
   0     126   040123 125102   123103 110105   115101 040106   111114 105040     SUBSCHEMA FILE
   0     132   107111 126105   116040 123125   102123 103110   105115 101040    GIVEN SUBSCHEMA
   0     136   116101 115105   040040 040040   040116 117124   040105 121125    NAME     NOT EQU
   0     142   101114 040123   125102 123103   110105 115101   040116 101115    AL SUBSCHEMA NAM
   0     146   105040 117116   040066 052040   040040 040040   040123 125102    E ON 6*      SUB
   0     152   123103 110105   115101 040116   101115 105040   111123 040040    SCHEMA NAME IS
   0     156   125116 123125   103103 105123   123106 125114   123125 103103    UNSUCCESSFULSUCC
   0     162   105123 123106   125114 040040   123125 102123   103110 105115    ESSFUL  SUBSCHEM
   0     166   101040 124122   101116 123114   101124 111117   116040 127101    A TRANSLATION WA
   0     172   123040 040040   040117 116040   114101 116107   125101 107105    S    ON LANGUAGE
   0     176   040111 123040   126101 114111   104101 124111   117116 040127     IS VALIDATION W
   0     202   101123 040040   040040 040120   122117 107122   101115 040111    AS     PROGRAM I
   0     206   104040 040040   040040 040040   040040 040040   040040 040040    D
   0     212   040040 040040   040040 040040   040040 103117   115120 111114              COMPIL
   0     216   101124 111117   116040 104101   124105 040040   040040 040040    ATION DATE
   0     222   040040 040040   040040 124111   115105 040040   111114 114105          TIME  ILLE
   0     226   107101 114040   124131 120105   040106 117122   040103 117115    GAL TYPE FOR COM
   0     232   120111 114101   124111 117116   137125 116111   124137 122105    PILATION_UNIT_RE
   0     236   103040 122105   103117 122104   052052 040124   150145 040163    C RECORD** The s
   0     242   165142 163143   150145 155141   040150 141163   040143 150141    ubschema has cha
   0     246   156147 145144   040163 151156   143145 040164   150145 163145    nged since these
   0     252   040160 162157   147162 141155   163040 167145   162145 040143     programs were c
   0     256   157155 160151   154145 144056   105116 104040   117106 040103    ompiled.END OF C
   0     262   117115 120111   114101 124111   117116 123057   123125 102123    OMPILATIONS/SUBS
   0     266   103110 105115   101040 114111   123124 111116   107040 040040    CHEMA LISTING
   0     272   111114 114105   107101 114040   120122 111126   101103 131040    ILLEGAL PRIVACY
   0     276   113105 131040   106117 122040   104111 123120   114101 131040    KEY FOR DISPLAY
   0     302   055040 040040                                                    -
PL6.E3A0      #001=DICT File=ZIG$DDX8.:ZIC0TSI                                   FRI 09/05/97 11:53 Page:50

XXX
 Sect OctLoc
   1     001   000000 000000                                                    ....

SSSNAME
 Sect OctLoc
   1     003   ****** ******   ****** ******   ****** ******   ****** ******    ................

BUFSZ
 Sect OctLoc
   1     013   000000 000031                                                    ....

Y
 Sect OctLoc
   1     014   000000 000000                                                    ....

TYPE_NAME
 Sect OctLoc
   1     015   101122 105101   137116 101115   105040 040040   040040 040040    AREA_NAME
   1     021   040040 040040   040040 040040   040040 040040   040040 123105                  SE
   1     025   124137 116101   115105 040040   040040 040040   040040 040040    T_NAME
   1     031   040040 040040   040040 040040   040040 040040   113105 131137                KEY_
   1     035   116101 115105   040040 040040   040040 040040   040040 040040    NAME
   1     041   040040 040040   040040 040040   040040 122105   103117 122104              RECORD
   1     045   137116 101115   105040 040040   040040 040040   040040 040040    _NAME
   1     051   040040 040040   040040 040040   104101 124101   137116 101115            DATA_NAM
   1     055   105040 040040   040040 040040   040040 040040   040040 040040    E
   1     061   040040 040040   040040 ******                                          ..

RECORD_NAME
 Sect OctLoc
   2     000   ****** ******   ****** ******   ****** ******   ****** ******    ................

ANALS
 Sect OctLoc
   3     000   ****** ******   ****** ******   ****** ******   ****** ******    ................
PL6.E3A0      #001=DICT File=ZIG$DDX8.:ZIC0TSI                                   FRI 09/05/97 11:53 Page:51

PURGE
 Sect OctLoc
   4     000   ****** ******   ****** ******   ****** ******   ****** ******    ................

DICTS
 Sect OctLoc
   5     000   ****** ******   ****** ******   ****** ******   ****** ******    ................

DISPS
 Sect OctLoc
   6     000   ***00* ******   ****** ******   ****** ******   ****** ******    ................
   6     024*  ****** ******   ****** ******   ****** ******                    ............

VALIDS
 Sect OctLoc
   7     000   ****** ******   ****** ******   ****** ******   ****** ******    ................

LOCKS
 Sect OctLoc
   8     000   ****** ******   ****** ******   ****** ******   ****** ******    ................

STRAN
 Sect OctLoc
   9     000   ****** ******   ****** ******   ****** ******   ****** ******    ................

DTRAN
 Sect OctLoc
  10     000   ****** ******   ****** ******   ****** ******   ****** ******    ................

SSTRANS
 Sect OctLoc
  11     000   ****** ******   ****** ******   ****** ******   ****** ******    ................

SSGEN
 Sect OctLoc
  12     000   ****** ******   ****** ******   ****** ******   ****** ******    ................
PL6.E3A0      #001=DICT File=ZIG$DDX8.:ZIC0TSI                                   FRI 09/05/97 11:53 Page:52

CONTROL
 Sect OctLoc
  13     000   777777 777777   000000 000001   000000 000000   000000 000036    ................
  13     004   000000 000060   000000 000000   000000 000000   000000 000000    ...0............
  13     010   000000 000000   000000 000000   000000 000000   000000 000000    ................
  13     020*  040040 040040   040040 040040   040040 040040   040040 040040
  13     040*  000000 000144   000000 000000   400000 000000   042116 125114    ...d........"NUL
  13     044   114042 040040   040040 040040   042116 125114   114042 040040    L"      "NULL"
  13     050   040040 040040   000000 000060   000000 000000   000000 000000        ...0........
  13     054   000000 000000   000000 000000   000000 000000   000000 000000    ................
  13     064*  000000 000000   040040 040040   040040 040040   040040 040040    ....
  13     070   000000 000000   000000 000000   000000 000000   000000 000000    ................
  13     074   000000 000002   000000 000000   000000 000000   000000 000000    ................

DESC
 Sect OctLoc
  14     000   ****** ******   ****** ******   ****** ******   ****** ******    ................

UWA_KEY
 Sect OctLoc
  22     000   007125 127101   ****** ******                                    .UWA....

RVA_KEY
 Sect OctLoc
  24     000   007122 126101   ****** ******                                    .RVA....

IA__KEY
 Sect OctLoc
  25     000   007111 101137   ****** ******                                    .IA_....

SEARCHR_NB
 Sect OctLoc
  27     000   001001 001001   001001 001001   001001 001001   001001 001001    ................
  27     010*  000001 001001   001001 001001   001001 001001   001001 001001    ................
  27     014   001001 001001   001001 001001   001001 001001   001001 001001    ................
  27     034*  001001 001001   001001 001001   001001 001001   001001 001001    ................
PL6.E3A0      #001=DICT File=ZIG$DDX8.:ZIC0TSI                                   FRI 09/05/97 11:53 Page:53

SEM_COM
 Sect OctLoc
  28     000   000001 002003   004005 006007   010011 012013   014015 016017    ................
  28     004   020021 022023   024025 026027   030031 032033   034035 036037    ................
  28     010   040041 042043   044045 046047   050051 052053   054055 056057     !"#$%&'()*+,-./
  28     014   060061 062063   064065 066067   070071 072040   074075 076077    0123456789: <=>?
  28     020   100101 102103   104105 106107   110111 112113   114115 116117    @ABCDEFGHIJKLMNO
  28     024   120121 122123   124125 126127   130131 132133   134135 136137    PQRSTUVWXYZ[\]^_
  28     030   140141 142143   144145 146147   150151 152153   154155 156157    `abcdefghijklmno
  28     034   160161 162163   164165 166167   170171 172173   174175 176177    pqrstuvwxyz{|}~.

DMCL_XLATE
 Sect OctLoc
  29     000   000001 002003   004005 006007   010011 012013   014015 016017    ................
  29     004   020021 022023   024025 026027   030031 032033   034035 036037    ................
  29     010   040041 041043   044045 046047   050051 052053   054055 136057     !!#$%&'()*+,-^/
  29     014   060061 062063   064065 066067   070071 072040   074075 076077    0123456789: <=>?
  29     020   100101 102103   104105 106107   110111 112113   114115 116117    @ABCDEFGHIJKLMNO
  29     024   120121 122123   124125 126127   130131 132133   134135 136137    PQRSTUVWXYZ[\]^_
  29     030   140141 142143   144145 146147   150151 152153   154155 156157    `abcdefghijklmno
  29     034   160161 162163   164165 166167   170171 172173   174175 176177    pqrstuvwxyz{|}~.

Q2_PERCENT
 Sect OctLoc
  30     000   000001 002003   004005 006007   010011 012013   014015 016017    ................
  30     004   020021 022023   024025 026027   030031 032033   034035 036037    ................
  30     010   040041 045043   044045 046047   050051 052053   054055 056057     !%#$%&'()*+,-./
  30     014   060061 062063   064065 066067   070071 072073   074075 076077    0123456789:;<=>?
  30     020   100101 102103   104105 106107   110111 112113   114115 116117    @ABCDEFGHIJKLMNO
  30     024   120121 122123   124125 126127   130131 132133   134135 136137    PQRSTUVWXYZ[\]^_
  30     030   140141 142143   144145 146147   150151 152153   154155 156157    `abcdefghijklmno
  30     034   160161 162163   164165 166167   170171 172173   174175 176177    pqrstuvwxyz{|}~.

UWA
 Sect OctLoc
  31     000   000000 000000   040040 040040   040040 040040   040040 040040    ....
PL6.E3A0      #001=DICT File=ZIG$DDX8.:ZIC0TSI                                   FRI 09/05/97 11:53 Page:54
  31     004   040040 040040   040040 040040   040040 040040   040040 040040
  31     010   040040 040040   040040 040040   040040 000000   040040 040040              ..
  31     014   040040 040040   040040 040040   040040 040040   040040 040040
  31     020   040040 040040   040040 040040   040040 000000   040040 040040              ..
  31     024   040040 040040   040040 040040   040040 040040   040040 040040
  31     030   040040 040040   040040 040040   040040 000000   040040 040040              ..
  31     034   040040 040040   040040 040040   000000 000000   040040 040040            ....
  31     040   040040 040040   040040 040040   040040 040040   040040 040040
  31     044   040040 040040   040040 040040   040040 000000   040040 040040              ..
  31     050   040040 040040   040040 040040   040040 040040   040040 040040
  31     054   040040 040040   040040 040040   040040 000000   000000 000000              ......
  31     060   040040 040040   040*** ******   000000 000000   000000 000000         ...........
  31     064   000000 000000   000000 000000   040040 040040   040040 040040    ........
  31     070   040040 040040   040040 040040   040040 040040   040040 040040
  31     100*  040040 ******   000000 000000   040040 040040   040040 040040      ......
  31     104   040040 040040   040040 040040   040040 040040   040040 040040
  31     124*  040040 040040   040040 040040   000000 000000   040040 040040            ....
  31     130   040040 040040   040040 040040   040040 040040   040040 040040
  31     134   040040 040040   040040 040040   040040 ******   000000 000000              ......
  31     140   040040 040040   040040 040040   040040 040040   040040 040040
  31     144   040040 040040   040040 040040   000000 000000   000000 000000            ........
  31     150   000000 000000   000000 000000   000000 000000   000000 000000    ................
  31     154   040040 040040   040040 040040   040040 040040   040040 040040
  31     160   040040 040040   040040 040040   040040 040040   040040 ******                  ..
  31     164   000000 000000   ****** ******   000000 000000   000000 000000    ................
  31     170   000000 000000   040040 040040   040040 040040   040040 040040    ....
  31     174   040040 040040   040040 040040   040040 040040   040040 040040
  31     210*  040040 040040   040040 040040   040040 040040   ****** ******                ....
  31     214   000000 000000   000000 000000   000000 000000   000000 000000    ................
  31     224*  000000 000000   000000 000000   000000 000000   040040 ******    ............  ..
  31     230   000000 000000   ****** ******   000000 000000   040040 040040    ............
  31     234   000000 000000   000000 000000   000000 000000   000000 000000    ................
  31     264*  000000 000000   000000 000000   000000 000000   ****** ******    ................
  31     270   000000 000000   000000 000000   000000 000000   000000 000000    ................
  31     324*  000000 000000   ****** ******   000000 000000   000000 000000    ................
  31     330   000000 000000   000000 000000   000000 000000   000000 000000    ................
  31     350*  000000 000000   000000 000000   000000 000000   ****** ******    ................
PL6.E3A0      #001=DICT File=ZIG$DDX8.:ZIC0TSI                                   FRI 09/05/97 11:53 Page:55
  31     360*  000000 000000   000000 000000   000000 000000   000000 000000    ................
  31     404*  000000 000000   ****** ******   000000 000000   000000 000000    ................
  31     410   000000 000000   000000 000000   000000 000000   000000 000000    ................
  31     424*  000000 000000   000000 000000   000000 000000   040040 040040    ............
  31     430   040040 040040   040040 040040   040040 040040   040040 040040
  31     434   040040 040040   040040 040040   040040 ******   ****** ******              ......
  31     440   040040 040040   040040 040040   040040 040040   040040 040040
  31     450*  040040 040040   040040 040040   040040 ******   ****** ******              ......
  31     454   000000 000000   040040 040040   040040 040040   040040 040040    ....
  31     460   040040 040040   040040 040040   040040 040040   040040 040040
  31     464   040040 ******   ****** ******   000000 000000   000000 000000      ..............
  31     470   000000 000000   000000 000000   000000 000000   000000 000000    ................
  31     474   000000 000000   ****** ******   000000 000000   000000 000000    ................
  31     500   000000 000000   000000 000000   040040 040040   040040 040040    ........
  31     504   040040 040040   040040 040040   040040 040040   040040 040040
  31     520*  040040 040040   ****** ******   000000 000000   000000 000000        ............
  31     524   040040 040040   040040 040040   040040 040040   040040 040040
  31     574*  000000 000000   000000 000000   000000 000000   000000 000000    ................
  31     600   000000 000000   000000 000000   000000 000000   ****** ******    ................
  31     604   000000 000000   000000 000000   000000 000000   000000 000000    ................
  31     610   000000 000000   000000 000000   040040 040040   040040 040040    ........
  31     614   040040 040040   040040 040040   040040 040040   040040 040040
  31     620   040040 040040   040040 ******   040040 040040   040040 040040          ..
  31     624   040040 040040   040040 040040   040040 040040   040040 040040
  31     660*  040040 040040   040040 040040   040040 040040   ****** ******                ....
  31     664   040040 040040   040040 040040   040040 040040   040040 040040
  31     674*  040040 040040   ****** ******   040040 040040   040040 040040        ....
  31     700   040040 040040   040040 040040   040040 040040   040040 040040
  31     710*  040040 040040   ****** ******   040040 040040   040040 040040        ....
  31     714   040040 040040   040040 040040   040040 040040   040040 040040
  31     720   040040 040040   040040 040040   040040 040040   ****** ******                ....
  31     724   040040 040040   040040 040040   040040 040040   040040 040040
  31     740*  040040 040040   ****** ******   040040 040040   040040 040040        ....
  31     744   040040 040040   040040 040040   040040 040040   040040 040040
  31     774*  040040 040040   ****** ******   040040 040040   040040 040040        ....
  31    1000   040040 040040   040040 040040   040040 040040   040040 040040
  31    1034*  040040 040040   ****** ******   040040 040040   040040 040040        ....
PL6.E3A0      #001=DICT File=ZIG$DDX8.:ZIC0TSI                                   FRI 09/05/97 11:53 Page:56
  31    1040   040040 040040   040040 040040   040040 040040   040040 040040
  31    1060*  040040 040040   ****** ******   040040 040040   040040 040040        ....
  31    1064   040040 040040   040040 040040   040040 040040   040040 040040
  31    1114*  040040 040040   ****** ******   040040 040040   040040 040040        ....
  31    1120   040040 040040   040040 040040   040040 040040   040040 040040
  31    1134*  040040 040040   040040 040040   040040 040040   ****** ******                ....
  31    1140   040040 040040   040040 040040   040040 040040   040040 040040
  31    1144   040040 040040   ****** ******   040040 040040   040040 040040        ....
  31    1150   040040 040040   040040 040040   040040 040040   ****** ******                ....
  31    1154   040040 040040   040040 040040   040040 040040   040040 040040
  31    1160   040040 040040   ****** ******   040040 040040   040040 040040        ....
  31    1164   040040 040040   040040 040040   040040 040040   ****** ******                ....
  31    1170   040040 040040   040040 040040   040040 040040   040040 040040
  31    1200*  040040 040040   040040 040040   040040 040040   ****** ******                ....
  31    1204   040040 040040   040040 040040   040040 040040   040040 040040
  31    1214*  040040 040040   040040 040040   040040 040040   040040 040040

(unnamed)
 Sect OctLoc
  33     000   000001 000000   000002 000000   000000 000002   000023 006000    ................
  33     004   000002 006000   000024 006000   000064 006000   000025 006000    .........4......
  33     010   040040 040040   000171 006000   000040 006000   000041 006000        .y... ...!..
  33     014   000043 006000   000447 406000   000060 006000   000004 000000    .#.......0......
  33     020   000103 006000   000000 000001   000077 006000   000021 006000    .C.......?......
  33     024   000077 006000   000002 006000   000000 000003   000077 006000    .?...........?..
  33     030   000026 006000   000000 000004   000077 006000   000031 006000    .........?......
  33     034   000000 000005   000077 006000   000034 006000   000000 000000    .....?..........
  33     040   000107 006000   000037 006000   000002 006000   000013 006000    .G..............
  33     044   000010 406000   000000 006000   000001 006000   000000 006000    ................
  33     050   000000 006000   000053 006000   000055 006000   000040 006000    .....+...-... ..
  33     054   777777 777776                                                    ....
      270     3545    1   END;

PL6.E3A0      #001=DICT File=ZIG$DDX8.:ZIC0TSI                                   FRI 09/05/97 11:53 Page:57
--  Include file information  --

   ZIG_GENERAL.:ZIC0TOU  cannot be made into a system file and is referenced.
   ZI_SUB4_CAN.:ZIC0TOU  is referenced.
   ZIA_IDS_DCL.:ZIC0TOU  cannot be made into a system file and is referenced.
   ZIG_FIVESTAR_DESC.:ZIC0TOU  cannot be made into a system file and is referenced.
   ZI_SUB_LANG.:ZIC0TOU  is referenced.
   ZIG_DIR_STRUCS.:ZIC0TOU  cannot be made into a system file and is referenced.
   ZIG_DBA_INT.:ZIC0TOU  cannot be made into a system file and is referenced.
   B$JIT_C.:E05TOU  was found in the system file and is never referenced.
   CP_6_C.:E05TOU  was found in the system file and is never referenced.
      No diagnostics issued in procedure DICT.

   Procedure DICT requires 716 words for executable code.
   Procedure DICT requires 84 words of local(AUTO) storage.

    No errors detected in file ZIG$DDX8.:ZIC0TSI    .
PL6.E3A0      #001=DICT File=ZIG$DDX8.:ZIC0TSI                                   FRI 09/05/97 11:53 Page:58
          *** CROSS REFERENCE LISTING ***
**     DENOTES     IDENTIFIER DEFINITION
<<                 IDENTIFIER'S VALUE SET
>>                 IDENTIFIER'S VALUE USED
<>                 IDENTIFIER SET AND/OR USED
--                 IDENTIFIER REFERENCED
PL6.E3A0      #001=DICT File=ZIG$DDX8.:ZIC0TSI                                   FRI 09/05/97 11:53 Page:59
          MINI XREF LISTING

A1
      3389**LABEL    3384--GOTO     3541--GOTO
ABORT
      2917**DCL-ENT  3538--CALL
B1
        47**DCL      3496<<ASSIGN   3534<<ASSIGN
BIT36
        16**DCL      3376>>ASSIGN
BIT36_RDEF
        17**DCL      3376<<ASSIGN
BIT36_RDEF.B1
        19**DCL      3377>>IF
BLKPTR
        40**DCL      1968--IMP-PTR  3505<<ASSIGN   3506<<ASSIGN   3507>>IF       3512>>IF       3515>>CALL
      3517>>CALLBLT  3520>>IF       3531>>ASSIGN
BUFFPTR
        41**DCL      3446<<ASSIGN   3448<>CALL     3498<>CALL     3533<>CALL
BUFSZ
        42**DCL      3424<>CALL     3434<>CALL
C64
      3342**DCL      3343<<ASSIGN   3344<>CALL     3466<<CALLBLT  3467<>CALL
CBLKNO
        44**DCL        47--REDEF
CBLKNO.BLK
        45**DCL      3532>>IF
CBLKNO.REC2
        46**DCL      3505>>IF
COMPILATION_UNIT_REC.COMP_UTS
      1975**DCL      3515<>CALL
COMPILATION_UNIT_REC.NEXT_CU_RECORD
      1969**DCL      3520>>IF       3531>>ASSIGN
COMPILATION_UNIT_REC.PROGRAM_ID
PL6.E3A0      #001=DICT File=ZIG$DDX8.:ZIC0TSI                                   FRI 09/05/97 11:53 Page:60
      1972**DCL      3517>>CALLBLT
COMPILATION_UNIT_REC.TRN_UTS
      1977**DCL      3512>>IF
COMPILATION_UNIT_REC.TYPE
      1971**DCL      3507>>IF
CONTROL
      2045**DCL      3446--ASSIGN   3506--ASSIGN
CONTROL.FIRST_CU_RECORD
      2082**DCL      3496>>ASSIGN   3497>>IF       3498>>CALL
CONTROL.LANGUAGE
      2063**DCL      3476>>CALLBLT  3491>>CALLBLT
CONTROL.SUBSCHEMA_NAME
      2061**DCL      3459>>IF       3466>>CALLBLT
CONTROL.SUBSCHEMA_UTS
      2069**DCL      3472<>CALL     3495>>ASSIGN
CONTROL.TRANSLATION_STATUS
      2047**DCL      3468>>IF
CONTROL.TYPE100
      2062**DCL      3449>>IF       3505--ASSIGN
CONTROL.TYPE30
      2049**DCL      3449>>IF
CONTROL.VALIDATION_STATUS
      2046**DCL      3482>>IF
CONTROL.VALIDATION_UTS
      2071**DCL      3480>>IF       3485<>CALL
CU
        50**DCL        53--REDEF    3534>>ASSIGN
CU.BLKNO
        51**DCL      3532>>IF       3533<>CALL
CU_UBIN
        53**DCL      3531<<ASSIGN
D60
      3526**LABEL    3499--GOTO
DATE_
        11**DCL      3401<>CALL     3403>>CALLBLT  3472<>CALL     3474>>CALLBLT  3485<>CALL     3487>>CALLBLT
      3515<>CALL     3517>>CALLBLT
PL6.E3A0      #001=DICT File=ZIG$DDX8.:ZIC0TSI                                   FRI 09/05/97 11:53 Page:61
DAY_
        14**DCL      3401<>CALL     3472<>CALL     3485<>CALL     3515<>CALL
DBCSERR
      3538**LABEL    3347--CALLALT  3349--CALLALT  3353--CALLALT  3369--CALLALT  3382--CALLALT  3408--GOTO
      3540--GOTO
DESC
      2101**DCL      2102--REDEF    2111--REDEF    2114--REDEF    2119--REDEF
DICTS.ALL.AREAS
       141**DCL      3410>>IF
DICTS.ALL.FIELDS
       145**DCL      3418>>IF
DICTS.ALL.KEYS
       143**DCL      3414>>IF
DICTS.ALL.RECORDS
       144**DCL      3416>>IF
DICTS.ALL.SCHEMAS
       140**DCL      3391>>IF
DICTS.ALL.SETS
       142**DCL      3412>>IF
DICTS.DISP_KEY
       153**DCL      3374>>DOWHILE  3542>>CALLBLT
DICTS.NAMES
       146**DCL      3421>>IF
DICTS.SCHEMA_DICT
       137**DCL      3361>>IF       3389>>IF
DICTS.SNAME
       154**DCL      3355>>IF       3356>>IF       3357>>CALLBLT
DICTS.SSNAME
       155**DCL      3456>>IF       3458>>ASSIGN
DICTS.SUBSCHEMA_DICT
       138**DCL      3440>>IF
DICT_DESC
      2102**DCL      3425<<ASSIGN   3435<<ASSIGN
DICT_DESC.NAME
      2109**DCL      3430<>CALL
DICT_DESC.NAME_TYPE
PL6.E3A0      #001=DICT File=ZIG$DDX8.:ZIC0TSI                                   FRI 09/05/97 11:53 Page:62
      2103**DCL      3427>>IF       3430<>CALL     3433<>CALL
DICT_DESC.QUAL
      2108**DCL      3429>>ASSIGN   3433<>CALL
FETCHD_6
        64**DCL-ENT  3347--CALL     3349--CALL
FETCHNS_6
        69**DCL-ENT  3353--CALL     3375--CALL     3400--CALL
FETCHOS_6
        73**DCL-ENT  3382--CALL
FIVESTAREOF
        26**DCL      3424<>CALL     3426>>DOWHILE  3434<>CALL
FLAG
        35**DCL      3513<<ASSIGN   3514<<ASSIGN   3517>>CALLBLT
GET_TIME
      2928**DCL-ENT  3365--CALL
L3
      3407**LABEL    3400--CALLALT
L30
      3540**LABEL    3375--CALLALT
LANGT
         9**DCL      3476>>CALLBLT  3491>>CALLBLT
LIST
      2924**DCL-ENT  3358--CALL     3396--CALL     3398--CALL     3404--CALL     3443--CALL     3445--CALL
      3453--CALL     3461--CALL     3475--CALL     3477--CALL     3479--CALL     3488--CALL     3492--CALL
      3494--CALL     3501--CALL     3503--CALL     3509--CALL     3518--CALL     3522--CALL     3524--CALL
      3527--CALL     3543--CALL
LK3
        10**DCL      3373<<ASSIGN   3380<<ASSIGN   3541>>IF
LKV
      3341**DCL      3374>>DOWHILE  3385<>CALL
MSK_18B
        23**DCL      3368<<ASSIGN   3368>>ASSIGN
OL
      3339**DCL      3357<<CALLBLT  3358<>CALL     3395<<ASSIGN   3396<>CALL     3397<<ASSIGN   3398<>CALL
      3403<<CALLBLT  3404<>CALL     3442<<ASSIGN   3443<>CALL     3444<<ASSIGN   3445<>CALL     3452<<ASSIGN
      3453<>CALL     3460<<CALLBLT  3461<>CALL     3474<<CALLBLT  3475<>CALL     3476<<CALLBLT  3477<>CALL
PL6.E3A0      #001=DICT File=ZIG$DDX8.:ZIC0TSI                                   FRI 09/05/97 11:53 Page:63
      3478<<ASSIGN   3479<>CALL     3487<<CALLBLT  3488<>CALL     3491<<CALLBLT  3492<>CALL     3493<<ASSIGN
      3494<>CALL     3500<<ASSIGN   3501<>CALL     3502<<ASSIGN   3503<>CALL     3508<<ASSIGN   3509<>CALL
      3517<<CALLBLT  3518<>CALL     3521<<ASSIGN   3522<>CALL     3523<<ASSIGN   3524<>CALL     3526<<ASSIGN
      3527<>CALL     3542<<CALLBLT  3543<>CALL
P1
        30**DCL        32--IMP-PTR
PP
        22**DCL      3368--ASSIGN
PRINT
      3505**LABEL    3535--GOTO
PRINTAS
        38**DCL-ENT  3411--CALL     3413--CALL     3415--CALL     3417--CALL     3419--CALL     3430--CALL
      3433--CALL
READ64
        39**DCL-ENT  3448--CALL     3498--CALL     3533--CALL
RECORD_NAME
        25**DCL      3429<<ASSIGN
SSGTIME
        49**DCL      3495<<ASSIGN   3512>>IF
SSSNAME
        31**DCL      3458<<ASSIGN   3459>>IF       3460>>CALLBLT
STRE_6
        61**DCL-ENT  3369--CALL
SUBLST
      2926**DCL-ENT  3344--CALL     3467--CALL
SUBSCHEMA_KEY
      2944**DCL      2945--REDEF
TIME_
        12**DCL      3401<>CALL     3402>>CALLBLT  3472<>CALL     3473>>CALLBLT  3485<>CALL     3486>>CALLBLT
      3515<>CALL     3516>>CALLBLT
TIME_HRS
        13**DCL      3402<<CALLBLT  3403>>CALLBLT  3473<<CALLBLT  3474>>CALLBLT  3486<<CALLBLT  3487>>CALLBLT
      3516<<CALLBLT  3517>>CALLBLT
TS
        48**DCL      3469<<ASSIGN   3471<<ASSIGN   3474>>CALLBLT  3483<<ASSIGN   3484<<ASSIGN   3487>>CALLBLT
UCLOSE
PL6.E3A0      #001=DICT File=ZIG$DDX8.:ZIC0TSI                                   FRI 09/05/97 11:53 Page:64
      2933**DCL-ENT  3437--CALL
UGET
      2931**DCL-ENT  3424--CALL     3434--CALL
UNSC
      3340**DCL-ENT  3385--CALL
UN_TIME
        15**DCL-ENT  3401--CALL     3472--CALL     3485--CALL     3515--CALL
UOPEN
      2930**DCL-ENT  3423--CALL
UWA.AC.CALC_NEXT
      3115**DCL      3116--REDEF
UWA.AC.CALC_PRIOR
      3124**DCL      3125--REDEF
UWA.AC.DEFAULTS
      3076**DCL      3077--REDEF
UWA.AC.FILE_CODE
      3081**DCL      3082--REDEF
UWA.AC.FLAG1.ERROR_TYPE
      3078**DCL      3079--REDEF
UWA.AS.SS_NAME
      3029**DCL      3403>>CALLBLT
UWA.AS.SS_TIME
      3033**DCL      3401<>CALL
UWA.A_D.AD_DATE
      3059**DCL      3365<>CALL
UWA.A_D.AD_FUNCTION
      3058**DCL      3364<<ASSIGN
UWA.A_D.AD_IDENT
      3060**DCL      3366<<ASSIGN
UWA.DB_STATUS
      3007**DCL      3407>>IF       3540>>IF
UWA.LK.PLVALUE
      3237**DCL      3383>>IF       3385<>CALL
UWA.LT.PLOCKS
      3248**DCL      3376--ASSIGN
UWA.SF.DBKEY_DA
PL6.E3A0      #001=DICT File=ZIG$DDX8.:ZIC0TSI                                   FRI 09/05/97 11:53 Page:65
      3026**DCL      3349<>CALL
UWA.SN.SENAME
      3234**DCL      3356>>IF
UWA.SN.SETYPE
      3231**DCL      3351<<ASSIGN   3352>>DOWHILE
W25
        27**DCL      3425>>ASSIGN   3435>>ASSIGN
W25$
        29**DCL        27--IMP-PTR  3424<>CALL     3425>>ASSIGN   3434<>CALL     3435>>ASSIGN
XXX
        24**DCL      3367<<ASSIGN   3368--ASSIGN
Y
        43**DCL      3399>>DOWHILE
