
PL6.E3A0      #001=PRVAL File=ZIG$DDY3.:ZIC0TSI                                  FRI 09/05/97 11:54 Page:1
        1        1        /*M* ZIG$DDY3         I-D-S/II            DBACS    */
        2        2        /*T***********************************************************/
        3        3        /*T*                                                         */
        4        4        /*T* Copyright (c) Bull HN Information Systems Inc., 1997    */
        5        5        /*T*                                                         */
        6        6        /*T***********************************************************/
        7        7        PRVAL:
        8        8            PROC;
        9        9    1   DCL STORE_AD SBIN WORD EXT;
       10       10    1   DCL PP PTR;
       11       11    1   DCL MSK_18B(0:5) BIT(18) BASED;
       12       12    1   DCL BIT36 BIT(36) BASED;
       13       13    1   DCL 1 BIT36_RDEF,
       14       14    1         2 B0 BIT(1),
       15       15    1         2 B1 BIT(1),
       16       16    1         2 B2_35 BIT(34);
       17       17    1   DCL UNSC ENTRY(2);
       18       18    1   DCL BUFFPTR PTR;
       19       19    1   DCL READ64 ENTRY(2);
       20       20    1   DCL ERROR_READ64 UBIN (36) EXT;
       21       21    1   DCL WRIT64 ENTRY(2);
       22       22    1   DCL SSSNAME CHAR(30) STATIC;
       23       23    1   DCL COPYKEY CHAR(12) STATIC;
       24       24    1   DCL LKV CHAR(12) STATIC;
       25       25    1   DCL DIAGKEY CHAR(12) STATIC;
       26       26    1   DCL COPYLOCK BIT(1) STATIC INIT('0'B);
       27       27    1   DCL DIAGLOCK BIT(1) STATIC INIT('0'B);
       28       28    1   DCL COPYOK BIT(1) STATIC INIT('0'B);
       29       29    1   DCL DIAGOK BIT(1) STATIC INIT('0'B);
       30       30    1   DCL X UBIN WORD;
       31       31        %INCLUDE ZI_SUB_LANG;
       32     1746        %CONTROL_BLOCK;
       33     1854        %INCLUDE ZIG_GENERAL;
       34     1962        %INCLUDE ZIG_DBA_INT;
       35     2010        %INCLUDE ZIA_IDS_DCL;
       36     2118        %INCLUDE ZI_SUB4_CAN;
       37     2775        %UWA;
PL6.E3A0      #001=PRVAL File=ZIG$DDY3.:ZIC0TSI                                  FRI 09/05/97 11:54 Page:2
       38     3110        %INCLUDE ZI_ERRORS_SUBS;
       39     3630        %INCLUDE ZIG_DIR_STRUCS;
       40     3760         /*Check proper format ssfile*/
       41     3761    1       BUFFPTR = ADDR(CONTROL);
       42     3762    1       CALL READ64(0,BUFFPTR);
       43     3763    1       IF ERROR_READ64 = 1
       44     3764    2       THEN DO;
       45     3765    2           CALL SET_FIELDS(1,30,VALIDS.SNAME);
       46     3766    2           CALL SET_FIELDS(2,30,VALIDS.SSNAME);
       47     3767    2           CALL ERROR(9057); /* ZIG_V_NO_SUBS_FILE */
       48     3768        /*E*     ERROR:    ZIG-ZIG_V_NO_SUBS_FILE-C
       49     3769        MESSAGE: Subschema file %U2 was not found for the schema %U1.
       50     3770        */
       51     3771    2           VALIDS.STATUS = '1'B;
       52     3772    2           RETURN;
       53     3773    2           END;
       54     3774    1       BIT36_RDEF = CONTROL.OPTIONS;
       55     3775    1       IF CONTROL.TYPE30 ~= 30 OR CONTROL.TYPE100 ~= 100 OR
       56     3776    1          BIT36_RDEF.B0 ~= '1'B THEN
       57     3777    2       DO;
       58     3778    2           CALL SET_FIELDS(1,30,VALIDS.SNAME);
       59     3779    2           CALL ERROR(9001);
       60     3780        /*E*     ERROR:    ZIG-ZIG_NAME_SUBSCHEMA-C
       61     3781        MESSAGE: The subschema file %U1 is not a legal subschema file.
       62     3782        */
       63     3783    2           VALIDS.STATUS = '1'B;
       64     3784    2           RETURN;
       65     3785    2           END;
       66     3786         /* Check sstrans fatals*/
       67     3787    1       IF CONTROL.TRANSLATION_STATUS ~= 0 THEN
       68     3788    2       DO;
       69     3789    2           CALL SET_FIELDS(1,30,VALIDS.SNAME);
       70     3790    2           CALL ERROR(9002);
       71     3791        /*E*     ERROR:    ZIG-ZIG_ERROR_TRANS-C
       72     3792        MESSAGE: The subschema translator has detected errors in the
       73     3793                 subschema %U1, so validation will not be attempted.
       74     3794                 Please correct the errors and retranslate the subschema.
PL6.E3A0      #001=PRVAL File=ZIG$DDY3.:ZIC0TSI                                  FRI 09/05/97 11:54 Page:3
       75     3795        */
       76     3796    2           VALIDS.STATUS = '1'B;
       77     3797    2           RETURN;
       78     3798    2           END;
       79     3799         /*Xcheck directive ssname*/
       80     3800    1       IF VALIDS.SSNAME ~= ' ' THEN
       81     3801    2       DO;
       82     3802    2           SSSNAME = VALIDS.SSNAME;
       83     3803    2           IF CONTROL.LANGUAGE = 1 /* Cobol */
       84     3804    2           THEN CALL HYPHEN;
       85     3805    2           IF SSSNAME ~= CONTROL.SUBSCHEMA_NAME THEN
       86     3806    3           DO;
       87     3807    3               CALL SET_FIELDS(1,30,SSSNAME);
       88     3808    3               CALL SET_FIELDS(2,30,CONTROL.SUBSCHEMA_NAME);
       89     3809    3               CALL ERROR(9003);
       90     3810        /*E*     ERROR:    ZIG-ZIG_NAME_DIF_SUB-C
       91     3811        MESSAGE: The subschema name %U1 is not the same
       92     3812                 as the the subschema name in the subschema file
       93     3813                 ( %U2 ).
       94     3814        */
       95     3815    3               VALIDS.STATUS = '1'B;
       96     3816    3               RETURN;
       97     3817    3               END;
       98     3818    2           END;
       99     3819    1       VALIDS.SSNAME = CONTROL.SUBSCHEMA_NAME;
      100     3820         /*Schema file checking*/
      101     3821    1       CALL FETCHD_6('SF  ',2) ALTRET(DBCSERR);
      102     3822    1       CALL FETCHD_6('DA  ',UWA.SF.DBKEY_DA) ALTRET(DBCSERR);
      103     3823    1       UWA.SN.SETYPE = 0;
      104     3824    2       DO WHILE(UWA.SN.SETYPE ~= 10);
      105     3825    2           CALL FETCHNS_6('DA-SN   ') ALTRET(DBCSERR);
      106     3826    2           END;
      107     3827    1       IF VALIDS.SNAME ~= ' ' THEN
      108     3828    1           IF UWA.SN.SENAME ~= VALIDS.SNAME THEN
      109     3829    2           DO;
      110     3830    2               CALL SET_FIELDS(1,30,UWA.SN.SENAME);
      111     3831    2               CALL SET_FIELDS(2,30,VALIDS.SNAME);
PL6.E3A0      #001=PRVAL File=ZIG$DDY3.:ZIC0TSI                                  FRI 09/05/97 11:54 Page:4
      112     3832    2               CALL ERROR(9008);
      113     3833        /*E*     ERROR:    ZIG-ZIG_NAME_SCHEMA_ERR-C
      114     3834        MESSAGE: Name of schema file (%U1) is not the one given in the
      115     3835                 the command line ( %U2 ).
      116     3836        */
      117     3837    2               VALIDS.STATUS = '1'B;
      118     3838    2               RETURN;
      119     3839    2               END;
      120     3840    1       VALIDS.SNAME = UWA.SN.SENAME;
      121     3841         /*Check sfile against  ssfile*/
      122     3842    1       SSSNAME = VALIDS.SNAME;
      123     3843    1       IF CONTROL.LANGUAGE = 1 /*Cobol */
      124     3844    1       THEN CALL HYPHEN;
      125     3845    1       IF SSSNAME ~= CONTROL.SCHEMA_NAME THEN
      126     3846    2       DO;
      127     3847    2           CALL SET_FIELDS(1,30,CONTROL.SCHEMA_NAME);
      128     3848    2           CALL SET_FIELDS(2,30,SSSNAME);
      129     3849    2           CALL ERROR(9004);
      130     3850        /*E*     ERROR:    ZIG-ZIG_NAME_DIF_SCHEMA-C
      131     3851        MESSAGE: The schema name %U2 is not the name in the schema
      132     3852                 file for that subschema.  The real name is %U1.
      133     3853        */
      134     3854    2           VALIDS.STATUS = '1'B;
      135     3855    2           RETURN;
      136     3856    2           END;
      137     3857         /*Check dmcl performed*/
      138     3858    1       CALL FETCHNS_6('SF-AD   ') ALTRET(DBCSERR);
      139     3859    2       DO WHILE(UWA.A_D.AD_FUNCTION > 2);
      140     3860    2           CALL FETCHNS_6('SF-AD   ') ALTRET(DBCSERR);
      141     3861    2           END;
      142     3862    1       IF UWA.A_D.AD_FUNCTION < 2 THEN
      143     3863    2       DO;
      144     3864    2           CALL SET_FIELDS(1,30,VALIDS.SNAME);
      145     3865    2           CALL ERROR(9005);
      146     3866        /*E*     ERROR:    ZIG-ZIG_NO_DMCL-C
      147     3867        MESSAGE: The schema %U1 has not had the DMCL specified.
      148     3868        */
PL6.E3A0      #001=PRVAL File=ZIG$DDY3.:ZIC0TSI                                  FRI 09/05/97 11:54 Page:5
      149     3869    2           VALIDS.STATUS = '1'B;
      150     3870    2           RETURN;
      151     3871    2           END;
      152     3872         /*Store ad for valid*/
      153     3873    1       UWA.A_D.AD_FUNCTION = 3;
      154     3874    1       CALL GET_TIME(UWA.A_D.AD_DATE);
      155     3875    1       CALL CONCAT(UWA.A_D.AD_IDENT,'VALIDATION WAS NOT SUCCESSFUL FOR ',SSSNAME,'.');
      156     3876    1       X = 54;
      157     3877    1       ADDR(PP)->MSK_18B(1) = ADDR(X)->MSK_18B(2);
      158     3878    1       CALL STRE_6('A-D ') ALTRET(DBCSERR);
      159     3879    1       STORE_AD=UWA.DIRECT_REF;
      160     3880         /* Check locks*/
      161     3881    1       IF VALIDS.COPY_KEY = '"NULL"' THEN
      162     3882    1           COPYKEY = CONTROL.COPY_PRIVACY_KEY;
      163     3883    1       ELSE
      164     3884    1           COPYKEY = VALIDS.COPY_KEY;
      165     3885    1       IF VALIDS.DIAG_KEY = '"NULL"' THEN
      166     3886    1           DIAGKEY = CONTROL.DIAGNOSTIC_PRIVACY_K;
      167     3887    1       ELSE
      168     3888    1           DIAGKEY = VALIDS.DIAG_KEY;
      169     3889    2       DO WHILE(UWA.DB_STATUS ~= '0502100');
      170     3890    2           CALL FETCHNS_6('SN-LT   ') ALTRET(EOS);
      171     3891    2           BIT36_RDEF = ADDR(UWA.LT.PLOCKS) -> BIT36;
      172     3892    2           IF BIT36_RDEF.B0 = '1'B OR BIT36_RDEF.B1 = '1'B THEN
      173     3893    3           DO;
      174     3894    3               CALL FETCHOS_6('LK-LT   ') ALTRET(DBCSERR);
      175     3895    3               IF UWA.LK.PLVALUE = '"NULL"' THEN
      176     3896    3                   LKV = UWA.LK.PLVALUE;
      177     3897    3               ELSE
      178     3898    3                   CALL UNSC(UWA.LK.PLVALUE,LKV);
      179     3899    3               IF BIT36_RDEF.B0 = '1'B THEN
      180     3900    4               DO;
      181     3901    4                   COPYLOCK = '1'B;
      182     3902    4                   IF LKV = '"NULL"' OR
      183     3903    4                      COPYKEY = LKV THEN
      184     3904    4                       COPYOK = '1'B;
      185     3905    4                   END;
PL6.E3A0      #001=PRVAL File=ZIG$DDY3.:ZIC0TSI                                  FRI 09/05/97 11:54 Page:6
      186     3906    3               IF BIT36_RDEF.B1 = '1'B THEN
      187     3907    4               DO;
      188     3908    4                   DIAGLOCK = '1'B;
      189     3909    4                   IF LKV = '"NULL"' OR
      190     3910    4                      DIAGKEY = LKV THEN
      191     3911    4                       DIAGOK = '1'B;
      192     3912    4                   END;
      193     3913    3               END;
      194     3914    2           END;
      195     3915    1   EOS:
      196     3916    1       IF UWA.DB_STATUS ~= '0502100' THEN
      197     3917    1           GOTO DBCSERR;
      198     3918    1       IF COPYLOCK THEN
      199     3919    1           IF ~COPYOK THEN
      200     3920    2           DO;
      201     3921    2               CALL ERROR(9006);
      202     3922        /*E*     ERROR:    ZIG-ZIG_BAD_COPY_LOCK-C
      203     3923        MESSAGE: Illegal privacy key for COPY.
      204     3924        */
      205     3925    2               VALIDS.STATUS = '1'B;
      206     3926    2               END;
      207     3927    1       IF DIAGLOCK THEN
      208     3928    1           IF ~DIAGOK THEN
      209     3929    2           DO;
      210     3930    2               VALIDS.DIAG_LOCK = '1'B;
      211     3931    2               CALL WARNING(9007);
      212     3932        /*E*     ERROR:    ZIG-ZIG_BAD_DIAG_LOCK-C
      213     3933        MESSAGE: Illegal privacy key for DIAGNOSTIC.
      214     3934                 Report on prohibited DML restricted to subschema view.
      215     3935        */
      216     3936    2               END;
      217     3937    1       IF CONTROL.LANGUAGE = 1 OR CONTROL.LANGUAGE = 5 THEN
      218     3938    2       DO;
      219     3939    2           IF VALIDS.MODE = '0'B THEN
      220     3940    2               CONTROL.LANGUAGE = 1;
      221     3941    2           ELSE
      222     3942    2               CONTROL.LANGUAGE = 5;
PL6.E3A0      #001=PRVAL File=ZIG$DDY3.:ZIC0TSI                                  FRI 09/05/97 11:54 Page:7
      223     3943    2           CALL WRIT64(0,BUFFPTR);
      224     3944    2           END;
      225     3945    1       RETURN;
      226     3946    1   HYPHEN: PROC;
      227     3947    2       CALL INDEX1(X,'_',SSSNAME);
      228     3948    3       DO WHILE (X ~= LENGTHC(SSSNAME));
      229     3949    3           CALL INSERT(SSSNAME,X,1,'-');
      230     3950    3           CALL INDEX1(X,'_',SSSNAME);
      231     3951    3           END;
      232     3952    2   END HYPHEN;
      233     3953    1   DBCSERR:
      234     3954    1       CALL ABORT;
      235     3955    1   END PRVAL;

PL6.E3A0      #001=PRVAL File=ZIG$DDY3.:ZIC0TSI                                  FRI 09/05/97 11:54 Page:8
--  Include file information  --

   ZIG_DIR_STRUCS.:ZIC0TOU  cannot be made into a system file and is referenced.
   ZI_ERRORS_SUBS.:ZIC0TOU  is referenced.
   ZI_SUB4_CAN.:ZIC0TOU  is referenced.
   ZIA_IDS_DCL.:ZIC0TOU  cannot be made into a system file and is referenced.
   ZIG_DBA_INT.:ZIC0TOU  cannot be made into a system file and is referenced.
   ZIG_GENERAL.:ZIC0TOU  cannot be made into a system file and is referenced.
   ZI_SUB_LANG.:ZIC0TOU  is referenced.
   B$JIT_C.:E05TOU  was found in the system file and is never referenced.
   CP_6_C.:E05TOU  was found in the system file and is never referenced.
      No diagnostics issued in procedure PRVAL.

   Procedure PRVAL requires 390 words for executable code.
   Procedure PRVAL requires 12 words of local(AUTO) storage.

    No errors detected in file ZIG$DDY3.:ZIC0TSI    .

PL6.E3A0      #001=PRVAL File=ZIG$DDY3.:ZIC0TSI                                  FRI 09/05/97 11:54 Page:9

 Object Unit name= PRVAL                                      File name= ZIG$DDY3.:ZIC0TOU
 UTS= SEP 05 '97 11:54:26.92 FRI                              Compiler= PL-6/E31         Sev=      00
 SharedLib= :SHARED_SYSTEM                                    Alt SharedLib=


    ****  Control sections  ****

 Sect   Type Bound  Init  Size OctSiz  Section name(segment info)
    0  LblCom even  none     1      1  STORE_AD
    1  LblCom even  none     1      1  ERROR_READ64
    2   Data  even  none    21     25  PRVAL
    3  LblCom even  none    64    100  CONTROL
    4  LblCom even  none     1      1  NUM_ERROR_MSG
    5  LblCom even  none     1      1  NUM_WARN_MSG
    6  LblCom even  none     1      1  ALLOCATE_END
    7  LblCom even  none     2      2  SUBSCHEMA_KEY
    8  LblCom even  none     1      1  BUFFER$
    9  LblCom even  none     1      1  ERROR_IO
   10  LblCom even  none     1      1  BUFFER_LEN
   11  LblCom even  none     2      2  UWA_KEY
   12  LblCom even  none     1      1  NEXT_UWA_SECOND_HALF
   13  LblCom even  none     2      2  RVA_KEY
   14  LblCom even  none     2      2  IA__KEY
   15  LblCom even  none     1      1  NEXT_RVA_SECOND_HALF
   16  LblCom even  none    32     40  SEARCHR_NB
   17  LblCom even  none    32     40  SEM_COM
   18  LblCom even  none    32     40  DMCL_XLATE
   19  LblCom even  none    32     40  Q2_PERCENT
   20  LblCom even  none   656   1220  UWA
   21  LblCom even  none    12     14  ANALS
   22  LblCom even  none    13     15  PURGE
   23  LblCom even  none    19     23  DICTS
   24  LblCom even  none    23     27  DISPS
   25  LblCom even  none    22     26  VALIDS
   26  LblCom even  none    12     14  LOCKS
   27  LblCom even  none    10     12  STRAN
   28  LblCom even  none    12     14  DTRAN
PL6.E3A0      #001=PRVAL File=ZIG$DDY3.:ZIC0TSI                                  FRI 09/05/97 11:54 Page:10
   29  LblCom even  none    16     20  SSTRANS
   30  LblCom even  none    20     24  SSGEN
   31  RoData even  UTS     24     30  PRVAL
   32   Proc  even  none   390    606  PRVAL
   33  RoData even  none    67    103  PRVAL

    ****  Entry defs  ****

                              Check   Calling
                             calling  sequence
  Sect OctLoc Primary Altret sequence   type   Parms  Name
    32      0   yes            yes      Std        0  PRVAL

  ****  Entry refs  ****

         Check        Calling
        calling       sequence
Altret sequence SRef   type   Args  Name
         yes           Std       2 READ64
         yes           Std       3 SET_FIELDS
 yes     yes           Std       1 FETCHOS_6
 yes     yes           Std       2 FETCHD_6
 yes     yes           Std       1 STRE_6
         yes           Std       2 UNSC
         yes           Std       1 ERROR
 yes     yes           Std       1 FETCHNS_6
         yes           Std       1 GET_TIME
         yes           Std       1 WARNING
         yes           Std       0 ABORT
         yes           Std       2 WRIT64
                       nStd      0 X66_AUTO_0
                       nStd      0 X66_ARET
PL6.E3A0      #001=PRVAL File=ZIG$DDY3.:ZIC0TSI                                  FRI 09/05/97 11:54 Page:11

  ****  Segment refs  ****

  Flags:  r = read only, s = secondary
Flgs Name                             Flgs Name                             Flgs Name
     ISSID
PL6.E3A0      #001=PRVAL File=ZIG$DDY3.:ZIC0TSI                                  FRI 09/05/97 11:54 Page:12


        1        1        /*M* ZIG$DDY3         I-D-S/II            DBACS    */
        2        2        /*T***********************************************************/
        3        3        /*T*                                                         */
        4        4        /*T* Copyright (c) Bull HN Information Systems Inc., 1997    */
        5        5        /*T*                                                         */
        6        6        /*T***********************************************************/
        7        7        PRVAL:
        8        8            PROC;

      8 32 000000   000000 700200 xent  PRVAL        TSX0  ! X66_AUTO_0
        32 000001   000014 000000                    ZERO    12,0

        9        9    1   DCL STORE_AD SBIN WORD EXT;
       10       10    1   DCL PP PTR;
       11       11    1   DCL MSK_18B(0:5) BIT(18) BASED;
       12       12    1   DCL BIT36 BIT(36) BASED;
       13       13    1   DCL 1 BIT36_RDEF,
       14       14    1         2 B0 BIT(1),
       15       15    1         2 B1 BIT(1),
       16       16    1         2 B2_35 BIT(34);
       17       17    1   DCL UNSC ENTRY(2);
       18       18    1   DCL BUFFPTR PTR;
       19       19    1   DCL READ64 ENTRY(2);
       20       20    1   DCL ERROR_READ64 UBIN (36) EXT;
       21       21    1   DCL WRIT64 ENTRY(2);
       22       22    1   DCL SSSNAME CHAR(30) STATIC;
       23       23    1   DCL COPYKEY CHAR(12) STATIC;
       24       24    1   DCL LKV CHAR(12) STATIC;
       25       25    1   DCL DIAGKEY CHAR(12) STATIC;
       26       26    1   DCL COPYLOCK BIT(1) STATIC INIT('0'B);
       27       27    1   DCL DIAGLOCK BIT(1) STATIC INIT('0'B);
       28       28    1   DCL COPYOK BIT(1) STATIC INIT('0'B);
       29       29    1   DCL DIAGOK BIT(1) STATIC INIT('0'B);
       30       30    1   DCL X UBIN WORD;
       31       31        %INCLUDE ZI_SUB_LANG;
       32     1746        %CONTROL_BLOCK;
PL6.E3A0      #001=PRVAL File=ZIG$DDY3.:ZIC0TSI                                  FRI 09/05/97 11:54 Page:13
       33     1854        %INCLUDE ZIG_GENERAL;
       34     1962        %INCLUDE ZIG_DBA_INT;
       35     2010        %INCLUDE ZIA_IDS_DCL;
       36     2118        %INCLUDE ZI_SUB4_CAN;
       37     2775        %UWA;
       38     3110        %INCLUDE ZI_ERRORS_SUBS;
       39     3630        %INCLUDE ZIG_DIR_STRUCS;
       40     3760         /*Check proper format ssfile*/
       41     3761    1       BUFFPTR = ADDR(CONTROL);

   3761 32 000002   000000 236000 33                 LDQ     0
        32 000003   200005 756100                    STQ     BUFFPTR,,AUTO

       42     3762    1       CALL READ64(0,BUFFPTR);

   3762 32 000004   200005 630500                    EPPR0   BUFFPTR,,AUTO
        32 000005   200013 450500                    STP0    X+5,,AUTO
        32 000006   000003 236000 33                 LDQ     3
        32 000007   200012 756100                    STQ     X+4,,AUTO
        32 000010   200012 630500                    EPPR0   X+4,,AUTO
        32 000011   000001 631400 33                 EPPR1   1
        32 000012   000000 701000 xent               TSX1    READ64
        32 000013   000000 011000                    NOP     0

       43     3763    1       IF ERROR_READ64 = 1

   3763 32 000014   000000 235000 1                  LDA     ERROR_READ64
        32 000015   000001 115007                    CMPA    1,DL
        32 000016   000040 601000 32                 TNZ     s:3774

       44     3764    2       THEN DO;

       45     3765    2           CALL SET_FIELDS(1,30,VALIDS.SNAME);

   3765 32 000017   000007 630400 33                 EPPR0   7
        32 000020   000004 631400 33                 EPPR1   4
        32 000021   000000 701000 xent               TSX1    SET_FIELDS
PL6.E3A0      #001=PRVAL File=ZIG$DDY3.:ZIC0TSI                                  FRI 09/05/97 11:54 Page:14
        32 000022   000000 011000                    NOP     0

       46     3766    2           CALL SET_FIELDS(2,30,VALIDS.SSNAME);

   3766 32 000023   000013 630400 33                 EPPR0   11
        32 000024   000004 631400 33                 EPPR1   4
        32 000025   000000 701000 xent               TSX1    SET_FIELDS
        32 000026   000000 011000                    NOP     0

       47     3767    2           CALL ERROR(9057); /* ZIG_V_NO_SUBS_FILE */

   3767 32 000027   000020 630400 33                 EPPR0   16
        32 000030   000016 631400 33                 EPPR1   14
        32 000031   000000 701000 xent               TSX1    ERROR
        32 000032   000000 011000                    NOP     0

       48     3768        /*E*     ERROR:    ZIG-ZIG_V_NO_SUBS_FILE-C
       49     3769        MESSAGE: Subschema file %U2 was not found for the schema %U1.
       50     3770        */
       51     3771    2           VALIDS.STATUS = '1'B;

   3771 32 000033   000000 236000 25                 LDQ     VALIDS
        32 000034   000021 376000 33                 ANQ     17
        32 000035   400000 276003                    ORQ     -131072,DU
        32 000036   000000 756000 25                 STQ     VALIDS

       52     3772    2           RETURN;

   3772 32 000037   000000 702200 xent               TSX2  ! X66_ARET

       53     3773    2           END;
       54     3774    1       BIT36_RDEF = CONTROL.OPTIONS;

   3774 32 000040   000042 236000 3                  LDQ     CONTROL+34
        32 000041   200004 756100                    STQ     BIT36_RDEF,,AUTO

       55     3775    1       IF CONTROL.TYPE30 ~= 30 OR CONTROL.TYPE100 ~= 100 OR
PL6.E3A0      #001=PRVAL File=ZIG$DDY3.:ZIC0TSI                                  FRI 09/05/97 11:54 Page:15

   3775 32 000042   000003 235000 3                  LDA     CONTROL+3
        32 000043   000036 115007                    CMPA    30,DL
        32 000044   000052 601000 32                 TNZ     s:3778
        32 000045   000040 235000 3                  LDA     CONTROL+32
        32 000046   000144 115007                    CMPA    100,DL
        32 000047   000052 601000 32                 TNZ     s:3778
        32 000050   200004 234100                    SZN     BIT36_RDEF,,AUTO
        32 000051   000067 604000 32                 TMI     s:3787

       56     3776    1          BIT36_RDEF.B0 ~= '1'B THEN
       57     3777    2       DO;

       58     3778    2           CALL SET_FIELDS(1,30,VALIDS.SNAME);

   3778 32 000052   000007 630400 33                 EPPR0   7
        32 000053   000004 631400 33                 EPPR1   4
        32 000054   000000 701000 xent               TSX1    SET_FIELDS
        32 000055   000000 011000                    NOP     0

       59     3779    2           CALL ERROR(9001);

   3779 32 000056   000023 630400 33                 EPPR0   19
        32 000057   000016 631400 33                 EPPR1   14
        32 000060   000000 701000 xent               TSX1    ERROR
        32 000061   000000 011000                    NOP     0

       60     3780        /*E*     ERROR:    ZIG-ZIG_NAME_SUBSCHEMA-C
       61     3781        MESSAGE: The subschema file %U1 is not a legal subschema file.
       62     3782        */
       63     3783    2           VALIDS.STATUS = '1'B;

   3783 32 000062   000000 236000 25                 LDQ     VALIDS
        32 000063   000021 376000 33                 ANQ     17
        32 000064   400000 276003                    ORQ     -131072,DU
        32 000065   000000 756000 25                 STQ     VALIDS

PL6.E3A0      #001=PRVAL File=ZIG$DDY3.:ZIC0TSI                                  FRI 09/05/97 11:54 Page:16
       64     3784    2           RETURN;

   3784 32 000066   000000 702200 xent               TSX2  ! X66_ARET

       65     3785    2           END;
       66     3786         /* Check sstrans fatals*/
       67     3787    1       IF CONTROL.TRANSLATION_STATUS ~= 0 THEN

   3787 32 000067   000001 235000 3                  LDA     CONTROL+1
        32 000070   000106 600000 32                 TZE     s:3800

       68     3788    2       DO;

       69     3789    2           CALL SET_FIELDS(1,30,VALIDS.SNAME);

   3789 32 000071   000007 630400 33                 EPPR0   7
        32 000072   000004 631400 33                 EPPR1   4
        32 000073   000000 701000 xent               TSX1    SET_FIELDS
        32 000074   000000 011000                    NOP     0

       70     3790    2           CALL ERROR(9002);

   3790 32 000075   000025 630400 33                 EPPR0   21
        32 000076   000016 631400 33                 EPPR1   14
        32 000077   000000 701000 xent               TSX1    ERROR
        32 000100   000000 011000                    NOP     0

       71     3791        /*E*     ERROR:    ZIG-ZIG_ERROR_TRANS-C
       72     3792        MESSAGE: The subschema translator has detected errors in the
       73     3793                 subschema %U1, so validation will not be attempted.
       74     3794                 Please correct the errors and retranslate the subschema.
       75     3795        */
       76     3796    2           VALIDS.STATUS = '1'B;

   3796 32 000101   000000 236000 25                 LDQ     VALIDS
        32 000102   000021 376000 33                 ANQ     17
        32 000103   400000 276003                    ORQ     -131072,DU
PL6.E3A0      #001=PRVAL File=ZIG$DDY3.:ZIC0TSI                                  FRI 09/05/97 11:54 Page:17
        32 000104   000000 756000 25                 STQ     VALIDS

       77     3797    2           RETURN;

   3797 32 000105   000000 702200 xent               TSX2  ! X66_ARET

       78     3798    2           END;
       79     3799         /*Xcheck directive ssname*/
       80     3800    1       IF VALIDS.SSNAME ~= ' ' THEN

   3800 32 000106   040000 106400                    CMPC    fill='040'O
        32 000107   000016 400036 25                 ADSC9   VALIDS+14                cn=2,n=30
        32 000110   000026 000001 33                 ADSC9   22                       cn=0,n=1
        32 000111   000147 600000 32                 TZE     s:3819

       81     3801    2       DO;

       82     3802    2           SSSNAME = VALIDS.SSNAME;

   3802 32 000112   040000 100400                    MLR     fill='040'O
        32 000113   000016 400036 25                 ADSC9   VALIDS+14                cn=2,n=30
        32 000114   000000 000036 2                  ADSC9   SSSNAME                  cn=0,n=30

       83     3803    2           IF CONTROL.LANGUAGE = 1 /* Cobol */

   3803 32 000115   000041 235000 3                  LDA     CONTROL+33
        32 000116   000001 115007                    CMPA    1,DL
        32 000117   000122 601000 32                 TNZ     s:3805

       84     3804    2           THEN CALL HYPHEN;

   3804 32 000120   000557 701000 32                 TSX1    HYPHEN
        32 000121   000000 011000                    NOP     0

       85     3805    2           IF SSSNAME ~= CONTROL.SUBSCHEMA_NAME THEN

   3805 32 000122   040000 106400                    CMPC    fill='040'O
PL6.E3A0      #001=PRVAL File=ZIG$DDY3.:ZIC0TSI                                  FRI 09/05/97 11:54 Page:18
        32 000123   000000 000036 2                  ADSC9   SSSNAME                  cn=0,n=30
        32 000124   000030 000040 3                  ADSC9   CONTROL+24               cn=0,n=32
        32 000125   000147 600000 32                 TZE     s:3819

       86     3806    3           DO;

       87     3807    3               CALL SET_FIELDS(1,30,SSSNAME);

   3807 32 000126   000027 630400 33                 EPPR0   23
        32 000127   000004 631400 33                 EPPR1   4
        32 000130   000000 701000 xent               TSX1    SET_FIELDS
        32 000131   000000 011000                    NOP     0

       88     3808    3               CALL SET_FIELDS(2,30,CONTROL.SUBSCHEMA_NAME);

   3808 32 000132   000032 630400 33                 EPPR0   26
        32 000133   000004 631400 33                 EPPR1   4
        32 000134   000000 701000 xent               TSX1    SET_FIELDS
        32 000135   000000 011000                    NOP     0

       89     3809    3               CALL ERROR(9003);

   3809 32 000136   000036 630400 33                 EPPR0   30
        32 000137   000016 631400 33                 EPPR1   14
        32 000140   000000 701000 xent               TSX1    ERROR
        32 000141   000000 011000                    NOP     0

       90     3810        /*E*     ERROR:    ZIG-ZIG_NAME_DIF_SUB-C
       91     3811        MESSAGE: The subschema name %U1 is not the same
       92     3812                 as the the subschema name in the subschema file
       93     3813                 ( %U2 ).
       94     3814        */
       95     3815    3               VALIDS.STATUS = '1'B;

   3815 32 000142   000000 236000 25                 LDQ     VALIDS
        32 000143   000021 376000 33                 ANQ     17
        32 000144   400000 276003                    ORQ     -131072,DU
PL6.E3A0      #001=PRVAL File=ZIG$DDY3.:ZIC0TSI                                  FRI 09/05/97 11:54 Page:19
        32 000145   000000 756000 25                 STQ     VALIDS

       96     3816    3               RETURN;

   3816 32 000146   000000 702200 xent               TSX2  ! X66_ARET

       97     3817    3               END;
       98     3818    2           END;
       99     3819    1       VALIDS.SSNAME = CONTROL.SUBSCHEMA_NAME;

   3819 32 000147   040000 100400                    MLR     fill='040'O
        32 000150   000030 000036 3                  ADSC9   CONTROL+24               cn=0,n=30
        32 000151   000016 400036 25                 ADSC9   VALIDS+14                cn=2,n=30

      100     3820         /*Schema file checking*/
      101     3821    1       CALL FETCHD_6('SF  ',2) ALTRET(DBCSERR);

   3821 32 000152   000037 630400 33                 EPPR0   31
        32 000153   000001 631400 33                 EPPR1   1
        32 000154   000000 701000 xent               TSX1    FETCHD_6
        32 000155   000602 702000 32                 TSX2    DBCSERR

      102     3822    1       CALL FETCHD_6('DA  ',UWA.SF.DBKEY_DA) ALTRET(DBCSERR);

   3822 32 000156   000041 630400 33                 EPPR0   33
        32 000157   000001 631400 33                 EPPR1   1
        32 000160   000000 701000 xent               TSX1    FETCHD_6
        32 000161   000602 702000 32                 TSX2    DBCSERR

      103     3823    1       UWA.SN.SETYPE = 0;

   3823 32 000162   000424 450000 20                 STZ     UWA+276

      104     3824    2       DO WHILE(UWA.SN.SETYPE ~= 10);

   3824 32 000163   000424 235000 20                 LDA     UWA+276
        32 000164   000012 115007                    CMPA    10,DL
PL6.E3A0      #001=PRVAL File=ZIG$DDY3.:ZIC0TSI                                  FRI 09/05/97 11:54 Page:20
        32 000165   000175 600000 32                 TZE     s:3827

      105     3825    2           CALL FETCHNS_6('DA-SN   ') ALTRET(DBCSERR);

   3825 32 000166   000043 630400 33                 EPPR0   35
        32 000167   000016 631400 33                 EPPR1   14
        32 000170   000000 701000 xent               TSX1    FETCHNS_6
        32 000171   000602 702000 32                 TSX2    DBCSERR

      106     3826    2           END;

   3826 32 000172   000424 235000 20                 LDA     UWA+276
        32 000173   000012 115007                    CMPA    10,DL
        32 000174   000166 601000 32                 TNZ     s:3825

      107     3827    1       IF VALIDS.SNAME ~= ' ' THEN

   3827 32 000175   040000 106400                    CMPC    fill='040'O
        32 000176   000007 000036 25                 ADSC9   VALIDS+7                 cn=0,n=30
        32 000177   000026 000001 33                 ADSC9   22                       cn=0,n=1
        32 000200   000226 600000 32                 TZE     s:3840

      108     3828    1           IF UWA.SN.SENAME ~= VALIDS.SNAME THEN

   3828 32 000201   040000 106400                    CMPC    fill='040'O
        32 000202   000427 000036 20                 ADSC9   UWA+279                  cn=0,n=30
        32 000203   000007 000036 25                 ADSC9   VALIDS+7                 cn=0,n=30
        32 000204   000226 600000 32                 TZE     s:3840

      109     3829    2           DO;

      110     3830    2               CALL SET_FIELDS(1,30,UWA.SN.SENAME);

   3830 32 000205   000044 630400 33                 EPPR0   36
        32 000206   000004 631400 33                 EPPR1   4
        32 000207   000000 701000 xent               TSX1    SET_FIELDS
        32 000210   000000 011000                    NOP     0
PL6.E3A0      #001=PRVAL File=ZIG$DDY3.:ZIC0TSI                                  FRI 09/05/97 11:54 Page:21

      111     3831    2               CALL SET_FIELDS(2,30,VALIDS.SNAME);

   3831 32 000211   000047 630400 33                 EPPR0   39
        32 000212   000004 631400 33                 EPPR1   4
        32 000213   000000 701000 xent               TSX1    SET_FIELDS
        32 000214   000000 011000                    NOP     0

      112     3832    2               CALL ERROR(9008);

   3832 32 000215   000053 630400 33                 EPPR0   43
        32 000216   000016 631400 33                 EPPR1   14
        32 000217   000000 701000 xent               TSX1    ERROR
        32 000220   000000 011000                    NOP     0

      113     3833        /*E*     ERROR:    ZIG-ZIG_NAME_SCHEMA_ERR-C
      114     3834        MESSAGE: Name of schema file (%U1) is not the one given in the
      115     3835                 the command line ( %U2 ).
      116     3836        */
      117     3837    2               VALIDS.STATUS = '1'B;

   3837 32 000221   000000 236000 25                 LDQ     VALIDS
        32 000222   000021 376000 33                 ANQ     17
        32 000223   400000 276003                    ORQ     -131072,DU
        32 000224   000000 756000 25                 STQ     VALIDS

      118     3838    2               RETURN;

   3838 32 000225   000000 702200 xent               TSX2  ! X66_ARET

      119     3839    2               END;
      120     3840    1       VALIDS.SNAME = UWA.SN.SENAME;

   3840 32 000226   040000 100400                    MLR     fill='040'O
        32 000227   000427 000036 20                 ADSC9   UWA+279                  cn=0,n=30
        32 000230   000007 000036 25                 ADSC9   VALIDS+7                 cn=0,n=30

PL6.E3A0      #001=PRVAL File=ZIG$DDY3.:ZIC0TSI                                  FRI 09/05/97 11:54 Page:22
      121     3841         /*Check sfile against  ssfile*/
      122     3842    1       SSSNAME = VALIDS.SNAME;

   3842 32 000231   040000 100400                    MLR     fill='040'O
        32 000232   000007 000036 25                 ADSC9   VALIDS+7                 cn=0,n=30
        32 000233   000000 000036 2                  ADSC9   SSSNAME                  cn=0,n=30

      123     3843    1       IF CONTROL.LANGUAGE = 1 /*Cobol */

   3843 32 000234   000041 236000 3                  LDQ     CONTROL+33
        32 000235   000001 116007                    CMPQ    1,DL
        32 000236   000241 601000 32                 TNZ     s:3845

      124     3844    1       THEN CALL HYPHEN;

   3844 32 000237   000557 701000 32                 TSX1    HYPHEN
        32 000240   000000 011000                    NOP     0

      125     3845    1       IF SSSNAME ~= CONTROL.SCHEMA_NAME THEN

   3845 32 000241   040000 106400                    CMPC    fill='040'O
        32 000242   000000 000036 2                  ADSC9   SSSNAME                  cn=0,n=30
        32 000243   000020 000040 3                  ADSC9   CONTROL+16               cn=0,n=32
        32 000244   000266 600000 32                 TZE     s:3858

      126     3846    2       DO;

      127     3847    2           CALL SET_FIELDS(1,30,CONTROL.SCHEMA_NAME);

   3847 32 000245   000054 630400 33                 EPPR0   44
        32 000246   000004 631400 33                 EPPR1   4
        32 000247   000000 701000 xent               TSX1    SET_FIELDS
        32 000250   000000 011000                    NOP     0

      128     3848    2           CALL SET_FIELDS(2,30,SSSNAME);

   3848 32 000251   000057 630400 33                 EPPR0   47
PL6.E3A0      #001=PRVAL File=ZIG$DDY3.:ZIC0TSI                                  FRI 09/05/97 11:54 Page:23
        32 000252   000004 631400 33                 EPPR1   4
        32 000253   000000 701000 xent               TSX1    SET_FIELDS
        32 000254   000000 011000                    NOP     0

      129     3849    2           CALL ERROR(9004);

   3849 32 000255   000063 630400 33                 EPPR0   51
        32 000256   000016 631400 33                 EPPR1   14
        32 000257   000000 701000 xent               TSX1    ERROR
        32 000260   000000 011000                    NOP     0

      130     3850        /*E*     ERROR:    ZIG-ZIG_NAME_DIF_SCHEMA-C
      131     3851        MESSAGE: The schema name %U2 is not the name in the schema
      132     3852                 file for that subschema.  The real name is %U1.
      133     3853        */
      134     3854    2           VALIDS.STATUS = '1'B;

   3854 32 000261   000000 236000 25                 LDQ     VALIDS
        32 000262   000021 376000 33                 ANQ     17
        32 000263   400000 276003                    ORQ     -131072,DU
        32 000264   000000 756000 25                 STQ     VALIDS

      135     3855    2           RETURN;

   3855 32 000265   000000 702200 xent               TSX2  ! X66_ARET

      136     3856    2           END;
      137     3857         /*Check dmcl performed*/
      138     3858    1       CALL FETCHNS_6('SF-AD   ') ALTRET(DBCSERR);

   3858 32 000266   000064 630400 33                 EPPR0   52
        32 000267   000016 631400 33                 EPPR1   14
        32 000270   000000 701000 xent               TSX1    FETCHNS_6
        32 000271   000602 702000 32                 TSX2    DBCSERR

      139     3859    2       DO WHILE(UWA.A_D.AD_FUNCTION > 2);

PL6.E3A0      #001=PRVAL File=ZIG$DDY3.:ZIC0TSI                                  FRI 09/05/97 11:54 Page:24
   3859 32 000272   000170 235000 20                 LDA     UWA+120
        32 000273   000002 115007                    CMPA    2,DL
        32 000274   000304 604400 32                 TMOZ    s:3862

      140     3860    2           CALL FETCHNS_6('SF-AD   ') ALTRET(DBCSERR);

   3860 32 000275   000064 630400 33                 EPPR0   52
        32 000276   000016 631400 33                 EPPR1   14
        32 000277   000000 701000 xent               TSX1    FETCHNS_6
        32 000300   000602 702000 32                 TSX2    DBCSERR

      141     3861    2           END;

   3861 32 000301   000170 235000 20                 LDA     UWA+120
        32 000302   000002 115007                    CMPA    2,DL
        32 000303   000275 605400 32                 TPNZ    s:3860

      142     3862    1       IF UWA.A_D.AD_FUNCTION < 2 THEN

   3862 32 000304   000322 605000 32                 TPL     s:3873

      143     3863    2       DO;

      144     3864    2           CALL SET_FIELDS(1,30,VALIDS.SNAME);

   3864 32 000305   000007 630400 33                 EPPR0   7
        32 000306   000004 631400 33                 EPPR1   4
        32 000307   000000 701000 xent               TSX1    SET_FIELDS
        32 000310   000000 011000                    NOP     0

      145     3865    2           CALL ERROR(9005);

   3865 32 000311   000066 630400 33                 EPPR0   54
        32 000312   000016 631400 33                 EPPR1   14
        32 000313   000000 701000 xent               TSX1    ERROR
        32 000314   000000 011000                    NOP     0

PL6.E3A0      #001=PRVAL File=ZIG$DDY3.:ZIC0TSI                                  FRI 09/05/97 11:54 Page:25
      146     3866        /*E*     ERROR:    ZIG-ZIG_NO_DMCL-C
      147     3867        MESSAGE: The schema %U1 has not had the DMCL specified.
      148     3868        */
      149     3869    2           VALIDS.STATUS = '1'B;

   3869 32 000315   000000 236000 25                 LDQ     VALIDS
        32 000316   000021 376000 33                 ANQ     17
        32 000317   400000 276003                    ORQ     -131072,DU
        32 000320   000000 756000 25                 STQ     VALIDS

      150     3870    2           RETURN;

   3870 32 000321   000000 702200 xent               TSX2  ! X66_ARET

      151     3871    2           END;
      152     3872         /*Store ad for valid*/
      153     3873    1       UWA.A_D.AD_FUNCTION = 3;

   3873 32 000322   000003 236007                    LDQ     3,DL
        32 000323   000170 756000 20                 STQ     UWA+120

      154     3874    1       CALL GET_TIME(UWA.A_D.AD_DATE);

   3874 32 000324   000067 630400 33                 EPPR0   55
        32 000325   000016 631400 33                 EPPR1   14
        32 000326   000000 701000 xent               TSX1    GET_TIME
        32 000327   000000 011000                    NOP     0

      155     3875    1       CALL CONCAT(UWA.A_D.AD_IDENT,'VALIDATION WAS NOT SUCCESSFUL FOR ',SSSNAME,'.');

   3875 32 000330   040000 100400                    MLR     fill='040'O
        32 000331   000006 000042 31                 ADSC9   6                        cn=0,n=34
        32 000332   000174 000042 20                 ADSC9   UWA+124                  cn=0,n=34
        32 000333   040000 100400                    MLR     fill='040'O
        32 000334   000000 000032 2                  ADSC9   SSSNAME                  cn=0,n=26
        32 000335   000204 400032 20                 ADSC9   UWA+132                  cn=2,n=26

PL6.E3A0      #001=PRVAL File=ZIG$DDY3.:ZIC0TSI                                  FRI 09/05/97 11:54 Page:26
      156     3876    1       X = 54;

   3876 32 000336   000066 235007                    LDA     54,DL
        32 000337   200006 755100                    STA     X,,AUTO

      157     3877    1       ADDR(PP)->MSK_18B(1) = ADDR(X)->MSK_18B(2);

   3877 32 000340   200007 220100                    LDX0    X+1,,AUTO
        32 000341   200003 440100                    SXL0    PP,,AUTO

      158     3878    1       CALL STRE_6('A-D ') ALTRET(DBCSERR);

   3878 32 000342   000070 630400 33                 EPPR0   56
        32 000343   000016 631400 33                 EPPR1   14
        32 000344   000000 701000 xent               TSX1    STRE_6
        32 000345   000602 702000 32                 TSX2    DBCSERR

      159     3879    1       STORE_AD=UWA.DIRECT_REF;

   3879 32 000346   000036 235000 20                 LDA     UWA+30
        32 000347   000000 755000 0                  STA     STORE_AD

      160     3880         /* Check locks*/
      161     3881    1       IF VALIDS.COPY_KEY = '"NULL"' THEN

   3881 32 000350   040000 106400                    CMPC    fill='040'O
        32 000351   000001 000014 25                 ADSC9   VALIDS+1                 cn=0,n=12
        32 000352   000020 000006 31                 ADSC9   16                       cn=0,n=6
        32 000353   000360 601000 32                 TNZ     s:3884

      162     3882    1           COPYKEY = CONTROL.COPY_PRIVACY_KEY;

   3882 32 000354   040000 100400                    MLR     fill='040'O
        32 000355   000043 000014 3                  ADSC9   CONTROL+35               cn=0,n=12
        32 000356   000010 000014 2                  ADSC9   COPYKEY                  cn=0,n=12
        32 000357   000363 710000 32                 TRA     s:3885

PL6.E3A0      #001=PRVAL File=ZIG$DDY3.:ZIC0TSI                                  FRI 09/05/97 11:54 Page:27
      163     3883    1       ELSE
      164     3884    1           COPYKEY = VALIDS.COPY_KEY;

   3884 32 000360   040000 100400                    MLR     fill='040'O
        32 000361   000001 000014 25                 ADSC9   VALIDS+1                 cn=0,n=12
        32 000362   000010 000014 2                  ADSC9   COPYKEY                  cn=0,n=12

      165     3885    1       IF VALIDS.DIAG_KEY = '"NULL"' THEN

   3885 32 000363   040000 106400                    CMPC    fill='040'O
        32 000364   000004 000014 25                 ADSC9   VALIDS+4                 cn=0,n=12
        32 000365   000020 000006 31                 ADSC9   16                       cn=0,n=6
        32 000366   000373 601000 32                 TNZ     s:3888

      166     3886    1           DIAGKEY = CONTROL.DIAGNOSTIC_PRIVACY_K;

   3886 32 000367   040000 100400                    MLR     fill='040'O
        32 000370   000046 000014 3                  ADSC9   CONTROL+38               cn=0,n=12
        32 000371   000016 000014 2                  ADSC9   DIAGKEY                  cn=0,n=12
        32 000372   000376 710000 32                 TRA     s:3889

      167     3887    1       ELSE
      168     3888    1           DIAGKEY = VALIDS.DIAG_KEY;

   3888 32 000373   040000 100400                    MLR     fill='040'O
        32 000374   000004 000014 25                 ADSC9   VALIDS+4                 cn=0,n=12
        32 000375   000016 000014 2                  ADSC9   DIAGKEY                  cn=0,n=12

      169     3889    2       DO WHILE(UWA.DB_STATUS ~= '0502100');

   3889 32 000376   040000 106400                    CMPC    fill='040'O
        32 000377   000001 000007 20                 ADSC9   UWA+1                    cn=0,n=7
        32 000400   000022 000007 31                 ADSC9   18                       cn=0,n=7
        32 000401   000473 600000 32                 TZE     EOS

      170     3890    2           CALL FETCHNS_6('SN-LT   ') ALTRET(EOS);

PL6.E3A0      #001=PRVAL File=ZIG$DDY3.:ZIC0TSI                                  FRI 09/05/97 11:54 Page:28
   3890 32 000402   000071 630400 33                 EPPR0   57
        32 000403   000016 631400 33                 EPPR1   14
        32 000404   000000 701000 xent               TSX1    FETCHNS_6
        32 000405   000473 702000 32                 TSX2    EOS

      171     3891    2           BIT36_RDEF = ADDR(UWA.LT.PLOCKS) -> BIT36;

   3891 32 000406   000473 236000 20                 LDQ     UWA+315
        32 000407   200004 756100                    STQ     BIT36_RDEF,,AUTO

      172     3892    2           IF BIT36_RDEF.B0 = '1'B OR BIT36_RDEF.B1 = '1'B THEN

   3892 32 000410   200004 234100                    SZN     BIT36_RDEF,,AUTO
        32 000411   000414 604000 32                 TMI     s:3894
        32 000412   200000 316003                    CANQ    65536,DU
        32 000413   000467 600000 32                 TZE     s:3914

      173     3893    3           DO;

      174     3894    3               CALL FETCHOS_6('LK-LT   ') ALTRET(DBCSERR);

   3894 32 000414   000072 630400 33                 EPPR0   58
        32 000415   000016 631400 33                 EPPR1   14
        32 000416   000000 701000 xent               TSX1    FETCHOS_6
        32 000417   000602 702000 32                 TSX2    DBCSERR

      175     3895    3               IF UWA.LK.PLVALUE = '"NULL"' THEN

   3895 32 000420   040000 106400                    CMPC    fill='040'O
        32 000421   000447 400014 20                 ADSC9   UWA+295                  cn=2,n=12
        32 000422   000020 000006 31                 ADSC9   16                       cn=0,n=6
        32 000423   000430 601000 32                 TNZ     s:3898

      176     3896    3                   LKV = UWA.LK.PLVALUE;

   3896 32 000424   040000 100400                    MLR     fill='040'O
        32 000425   000447 400014 20                 ADSC9   UWA+295                  cn=2,n=12
PL6.E3A0      #001=PRVAL File=ZIG$DDY3.:ZIC0TSI                                  FRI 09/05/97 11:54 Page:29
        32 000426   000013 000014 2                  ADSC9   LKV                      cn=0,n=12
        32 000427   000434 710000 32                 TRA     s:3899

      177     3897    3               ELSE
      178     3898    3                   CALL UNSC(UWA.LK.PLVALUE,LKV);

   3898 32 000430   000073 630400 33                 EPPR0   59
        32 000431   000001 631400 33                 EPPR1   1
        32 000432   000000 701000 xent               TSX1    UNSC
        32 000433   000000 011000                    NOP     0

      179     3899    3               IF BIT36_RDEF.B0 = '1'B THEN

   3899 32 000434   200004 234100                    SZN     BIT36_RDEF,,AUTO
        32 000435   000451 605000 32                 TPL     s:3906

      180     3900    4               DO;

      181     3901    4                   COPYLOCK = '1'B;

   3901 32 000436   400000 236003                    LDQ     -131072,DU
        32 000437   000021 756000 2                  STQ     COPYLOCK

      182     3902    4                   IF LKV = '"NULL"' OR

   3902 32 000440   040000 106400                    CMPC    fill='040'O
        32 000441   000013 000014 2                  ADSC9   LKV                      cn=0,n=12
        32 000442   000020 000006 31                 ADSC9   16                       cn=0,n=6
        32 000443   000450 600000 32                 TZE     s:3904
        32 000444   040000 106400                    CMPC    fill='040'O
        32 000445   000010 000014 2                  ADSC9   COPYKEY                  cn=0,n=12
        32 000446   000013 000014 2                  ADSC9   LKV                      cn=0,n=12
        32 000447   000451 601000 32                 TNZ     s:3906

      183     3903    4                      COPYKEY = LKV THEN
      184     3904    4                       COPYOK = '1'B;

PL6.E3A0      #001=PRVAL File=ZIG$DDY3.:ZIC0TSI                                  FRI 09/05/97 11:54 Page:30
   3904 32 000450   000023 756000 2                  STQ     COPYOK

      185     3905    4                   END;

      186     3906    3               IF BIT36_RDEF.B1 = '1'B THEN

   3906 32 000451   200004 236100                    LDQ     BIT36_RDEF,,AUTO
        32 000452   200000 316003                    CANQ    65536,DU
        32 000453   000467 600000 32                 TZE     s:3914

      187     3907    4               DO;

      188     3908    4                   DIAGLOCK = '1'B;

   3908 32 000454   400000 236003                    LDQ     -131072,DU
        32 000455   000022 756000 2                  STQ     DIAGLOCK

      189     3909    4                   IF LKV = '"NULL"' OR

   3909 32 000456   040000 106400                    CMPC    fill='040'O
        32 000457   000013 000014 2                  ADSC9   LKV                      cn=0,n=12
        32 000460   000020 000006 31                 ADSC9   16                       cn=0,n=6
        32 000461   000466 600000 32                 TZE     s:3911
        32 000462   040000 106400                    CMPC    fill='040'O
        32 000463   000016 000014 2                  ADSC9   DIAGKEY                  cn=0,n=12
        32 000464   000013 000014 2                  ADSC9   LKV                      cn=0,n=12
        32 000465   000467 601000 32                 TNZ     s:3914

      190     3910    4                      DIAGKEY = LKV THEN
      191     3911    4                       DIAGOK = '1'B;

   3911 32 000466   000024 756000 2                  STQ     DIAGOK

      192     3912    4                   END;

      193     3913    3               END;

PL6.E3A0      #001=PRVAL File=ZIG$DDY3.:ZIC0TSI                                  FRI 09/05/97 11:54 Page:31
      194     3914    2           END;

   3914 32 000467   040000 106400                    CMPC    fill='040'O
        32 000470   000001 000007 20                 ADSC9   UWA+1                    cn=0,n=7
        32 000471   000022 000007 31                 ADSC9   18                       cn=0,n=7
        32 000472   000402 601000 32                 TNZ     s:3890

      195     3915    1   EOS:
      196     3916    1       IF UWA.DB_STATUS ~= '0502100' THEN

   3916 32 000473   040000 106400       EOS          CMPC    fill='040'O
        32 000474   000001 000007 20                 ADSC9   UWA+1                    cn=0,n=7
        32 000475   000022 000007 31                 ADSC9   18                       cn=0,n=7
        32 000476   000602 601000 32                 TNZ     DBCSERR

      197     3917    1           GOTO DBCSERR;
      198     3918    1       IF COPYLOCK THEN

   3918 32 000477   000021 234000 2                  SZN     COPYLOCK
        32 000500   000515 605000 32                 TPL     s:3927

      199     3919    1           IF ~COPYOK THEN

   3919 32 000501   000023 236000 2                  LDQ     COPYOK
        32 000502   400000 376003                    ANQ     -131072,DU
        32 000503   400000 676003                    ERQ     -131072,DU
        32 000504   000515 600000 32                 TZE     s:3927

      200     3920    2           DO;

      201     3921    2               CALL ERROR(9006);

   3921 32 000505   000076 630400 33                 EPPR0   62
        32 000506   000016 631400 33                 EPPR1   14
        32 000507   000000 701000 xent               TSX1    ERROR
        32 000510   000000 011000                    NOP     0

PL6.E3A0      #001=PRVAL File=ZIG$DDY3.:ZIC0TSI                                  FRI 09/05/97 11:54 Page:32
      202     3922        /*E*     ERROR:    ZIG-ZIG_BAD_COPY_LOCK-C
      203     3923        MESSAGE: Illegal privacy key for COPY.
      204     3924        */
      205     3925    2               VALIDS.STATUS = '1'B;

   3925 32 000511   000000 236000 25                 LDQ     VALIDS
        32 000512   000021 376000 33                 ANQ     17
        32 000513   400000 276003                    ORQ     -131072,DU
        32 000514   000000 756000 25                 STQ     VALIDS

      206     3926    2               END;

      207     3927    1       IF DIAGLOCK THEN

   3927 32 000515   000022 234000 2                  SZN     DIAGLOCK
        32 000516   000531 605000 32                 TPL     s:3937

      208     3928    1           IF ~DIAGOK THEN

   3928 32 000517   000024 236000 2                  LDQ     DIAGOK
        32 000520   400000 376003                    ANQ     -131072,DU
        32 000521   400000 676003                    ERQ     -131072,DU
        32 000522   000531 600000 32                 TZE     s:3937

      209     3929    2           DO;

      210     3930    2               VALIDS.DIAG_LOCK = '1'B;

   3930 32 000523   004000 236003                    LDQ     2048,DU
        32 000524   000000 256000 25                 ORSQ    VALIDS

      211     3931    2               CALL WARNING(9007);

   3931 32 000525   000100 630400 33                 EPPR0   64
        32 000526   000016 631400 33                 EPPR1   14
        32 000527   000000 701000 xent               TSX1    WARNING
        32 000530   000000 011000                    NOP     0
PL6.E3A0      #001=PRVAL File=ZIG$DDY3.:ZIC0TSI                                  FRI 09/05/97 11:54 Page:33

      212     3932        /*E*     ERROR:    ZIG-ZIG_BAD_DIAG_LOCK-C
      213     3933        MESSAGE: Illegal privacy key for DIAGNOSTIC.
      214     3934                 Report on prohibited DML restricted to subschema view.
      215     3935        */
      216     3936    2               END;

      217     3937    1       IF CONTROL.LANGUAGE = 1 OR CONTROL.LANGUAGE = 5 THEN

   3937 32 000531   000041 235000 3                  LDA     CONTROL+33
        32 000532   000001 115007                    CMPA    1,DL
        32 000533   000536 600000 32                 TZE     s:3939
        32 000534   000005 115007                    CMPA    5,DL
        32 000535   000556 601000 32                 TNZ     s:3945

      218     3938    2       DO;

      219     3939    2           IF VALIDS.MODE = '0'B THEN

   3939 32 000536   000000 236000 25                 LDQ     VALIDS
        32 000537   003600 316003                    CANQ    1920,DU
        32 000540   000544 601000 32                 TNZ     s:3942

      220     3940    2               CONTROL.LANGUAGE = 1;

   3940 32 000541   000001 235007                    LDA     1,DL
        32 000542   000041 755000 3                  STA     CONTROL+33
        32 000543   000546 710000 32                 TRA     s:3943

      221     3941    2           ELSE
      222     3942    2               CONTROL.LANGUAGE = 5;

   3942 32 000544   000005 235007                    LDA     5,DL
        32 000545   000041 755000 3                  STA     CONTROL+33

      223     3943    2           CALL WRIT64(0,BUFFPTR);

PL6.E3A0      #001=PRVAL File=ZIG$DDY3.:ZIC0TSI                                  FRI 09/05/97 11:54 Page:34
   3943 32 000546   200005 630500                    EPPR0   BUFFPTR,,AUTO
        32 000547   200013 450500                    STP0    X+5,,AUTO
        32 000550   000003 236000 33                 LDQ     3
        32 000551   200012 756100                    STQ     X+4,,AUTO
        32 000552   200012 630500                    EPPR0   X+4,,AUTO
        32 000553   000001 631400 33                 EPPR1   1
        32 000554   000000 701000 xent               TSX1    WRIT64
        32 000555   000000 011000                    NOP     0

      224     3944    2           END;

      225     3945    1       RETURN;

   3945 32 000556   000000 702200 xent               TSX2  ! X66_ARET

      226     3946    1   HYPHEN: PROC;

   3946 32 000557   200010 741300       HYPHEN       STX1  ! X+2,,AUTO

      227     3947    2       CALL INDEX1(X,'_',SSSNAME);

   3947 32 000560   000000 124400                    SCM     mask='000'O
        32 000561   000000 000036 2                  ADSC9   SSSNAME                  cn=0,n=30
        32 000562   000101 000001 33                 ADSC9   65                       cn=0,n=1
        32 000563   200006 000100                    ARG     X,,AUTO

      228     3948    3       DO WHILE (X ~= LENGTHC(SSSNAME));

   3948 32 000564   000575 710000 32                 TRA     s:3951

      229     3949    3           CALL INSERT(SSSNAME,X,1,'-');

   3949 32 000565   200006 235100                    LDA     X,,AUTO
        32 000566   040005 100400                    MLR     fill='040'O
        32 000567   000102 000001 33                 ADSC9   66                       cn=0,n=1
        32 000570   000000 000001 2                  ADSC9   SSSNAME,A                cn=0,n=1

PL6.E3A0      #001=PRVAL File=ZIG$DDY3.:ZIC0TSI                                  FRI 09/05/97 11:54 Page:35
      230     3950    3           CALL INDEX1(X,'_',SSSNAME);

   3950 32 000571   000000 124400                    SCM     mask='000'O
        32 000572   000000 000036 2                  ADSC9   SSSNAME                  cn=0,n=30
        32 000573   000101 000001 33                 ADSC9   65                       cn=0,n=1
        32 000574   200006 000100                    ARG     X,,AUTO

      231     3951    3           END;

   3951 32 000575   200006 235100                    LDA     X,,AUTO
        32 000576   000036 115007                    CMPA    30,DL
        32 000577   000565 601000 32                 TNZ     s:3949

      232     3952    2   END HYPHEN;

   3952 32 000600   200010 221300                    LDX1  ! X+2,,AUTO
        32 000601   000001 702211                    TSX2  ! 1,X1

      233     3953    1   DBCSERR:
      234     3954    1       CALL ABORT;

   3954 32 000602   000002 631400 33    DBCSERR      EPPR1   2
        32 000603   000000 701000 xent               TSX1    ABORT
        32 000604   000000 011000                    NOP     0

      235     3955    1   END PRVAL;

   3955 32 000605   000000 702200 xent               TSX2  ! X66_ARET

SSSNAME
 Sect OctLoc
   2     000   ****** ******   ****** ******   ****** ******   ****** ******    ................

COPYLOCK
 Sect OctLoc
   2     021   0***** ******                                                    ....

PL6.E3A0      #001=PRVAL File=ZIG$DDY3.:ZIC0TSI                                  FRI 09/05/97 11:54 Page:36
DIAGLOCK
 Sect OctLoc
   2     022   0***** ******                                                    ....

COPYOK
 Sect OctLoc
   2     023   0***** ******                                                    ....

DIAGOK
 Sect OctLoc
   2     024   0***** ******                                                    ....

CONTROL
 Sect OctLoc
   3     000   777777 777777   000000 000001   000000 000000   000000 000036    ................
   3     004   000000 000060   000000 000000   000000 000000   000000 000000    ...0............
   3     010   000000 000000   000000 000000   000000 000000   000000 000000    ................
   3     020*  040040 040040   040040 040040   040040 040040   040040 040040
   3     040*  000000 000144   000000 000000   400000 000000   042116 125114    ...d........"NUL
   3     044   114042 040040   040040 040040   042116 125114   114042 040040    L"      "NULL"
   3     050   040040 040040   000000 000060   000000 000000   000000 000000        ...0........
   3     054   000000 000000   000000 000000   000000 000000   000000 000000    ................
   3     064*  000000 000000   040040 040040   040040 040040   040040 040040    ....
   3     070   000000 000000   000000 000000   000000 000000   000000 000000    ................
   3     074   000000 000002   000000 000000   000000 000000   000000 000000    ................

UWA_KEY
 Sect OctLoc
  11     000   007125 127101   ****** ******                                    .UWA....

RVA_KEY
 Sect OctLoc
  13     000   007122 126101   ****** ******                                    .RVA....

IA__KEY
 Sect OctLoc
  14     000   007111 101137   ****** ******                                    .IA_....
PL6.E3A0      #001=PRVAL File=ZIG$DDY3.:ZIC0TSI                                  FRI 09/05/97 11:54 Page:37

SEARCHR_NB
 Sect OctLoc
  16     000   001001 001001   001001 001001   001001 001001   001001 001001    ................
  16     010*  000001 001001   001001 001001   001001 001001   001001 001001    ................
  16     014   001001 001001   001001 001001   001001 001001   001001 001001    ................
  16     034*  001001 001001   001001 001001   001001 001001   001001 001001    ................

SEM_COM
 Sect OctLoc
  17     000   000001 002003   004005 006007   010011 012013   014015 016017    ................
  17     004   020021 022023   024025 026027   030031 032033   034035 036037    ................
  17     010   040041 042043   044045 046047   050051 052053   054055 056057     !"#$%&'()*+,-./
  17     014   060061 062063   064065 066067   070071 072040   074075 076077    0123456789: <=>?
  17     020   100101 102103   104105 106107   110111 112113   114115 116117    @ABCDEFGHIJKLMNO
  17     024   120121 122123   124125 126127   130131 132133   134135 136137    PQRSTUVWXYZ[\]^_
  17     030   140141 142143   144145 146147   150151 152153   154155 156157    `abcdefghijklmno
  17     034   160161 162163   164165 166167   170171 172173   174175 176177    pqrstuvwxyz{|}~.

DMCL_XLATE
 Sect OctLoc
  18     000   000001 002003   004005 006007   010011 012013   014015 016017    ................
  18     004   020021 022023   024025 026027   030031 032033   034035 036037    ................
  18     010   040041 041043   044045 046047   050051 052053   054055 136057     !!#$%&'()*+,-^/
  18     014   060061 062063   064065 066067   070071 072040   074075 076077    0123456789: <=>?
  18     020   100101 102103   104105 106107   110111 112113   114115 116117    @ABCDEFGHIJKLMNO
  18     024   120121 122123   124125 126127   130131 132133   134135 136137    PQRSTUVWXYZ[\]^_
  18     030   140141 142143   144145 146147   150151 152153   154155 156157    `abcdefghijklmno
  18     034   160161 162163   164165 166167   170171 172173   174175 176177    pqrstuvwxyz{|}~.

Q2_PERCENT
 Sect OctLoc
  19     000   000001 002003   004005 006007   010011 012013   014015 016017    ................
  19     004   020021 022023   024025 026027   030031 032033   034035 036037    ................
  19     010   040041 045043   044045 046047   050051 052053   054055 056057     !%#$%&'()*+,-./
  19     014   060061 062063   064065 066067   070071 072073   074075 076077    0123456789:;<=>?
  19     020   100101 102103   104105 106107   110111 112113   114115 116117    @ABCDEFGHIJKLMNO
PL6.E3A0      #001=PRVAL File=ZIG$DDY3.:ZIC0TSI                                  FRI 09/05/97 11:54 Page:38
  19     024   120121 122123   124125 126127   130131 132133   134135 136137    PQRSTUVWXYZ[\]^_
  19     030   140141 142143   144145 146147   150151 152153   154155 156157    `abcdefghijklmno
  19     034   160161 162163   164165 166167   170171 172173   174175 176177    pqrstuvwxyz{|}~.

UWA
 Sect OctLoc
  20     000   000000 000000   040040 040040   040040 040040   040040 040040    ....
  20     004   040040 040040   040040 040040   040040 040040   040040 040040
  20     010   040040 040040   040040 040040   040040 000000   040040 040040              ..
  20     014   040040 040040   040040 040040   040040 040040   040040 040040
  20     020   040040 040040   040040 040040   040040 000000   040040 040040              ..
  20     024   040040 040040   040040 040040   040040 040040   040040 040040
  20     030   040040 040040   040040 040040   040040 000000   040040 040040              ..
  20     034   040040 040040   040040 040040   000000 000000   040040 040040            ....
  20     040   040040 040040   040040 040040   040040 040040   040040 040040
  20     044   040040 040040   040040 040040   040040 000000   040040 040040              ..
  20     050   040040 040040   040040 040040   040040 040040   040040 040040
  20     054   040040 040040   040040 040040   040040 000000   000000 000000              ......
  20     060   040040 040040   040*** ******   000000 000000   000000 000000         ...........
  20     064   000000 000000   000000 000000   040040 040040   040040 040040    ........
  20     070   040040 040040   040040 040040   040040 040040   040040 040040
  20     100*  040040 ******   000000 000000   040040 040040   040040 040040      ......
  20     104   040040 040040   040040 040040   040040 040040   040040 040040
  20     124*  040040 040040   040040 040040   000000 000000   040040 040040            ....
  20     130   040040 040040   040040 040040   040040 040040   040040 040040
  20     134   040040 040040   040040 040040   040040 ******   000000 000000              ......
  20     140   040040 040040   040040 040040   040040 040040   040040 040040
  20     144   040040 040040   040040 040040   000000 000000   000000 000000            ........
  20     150   000000 000000   000000 000000   000000 000000   000000 000000    ................
  20     154   040040 040040   040040 040040   040040 040040   040040 040040
  20     160   040040 040040   040040 040040   040040 040040   040040 ******                  ..
  20     164   000000 000000   ****** ******   000000 000000   000000 000000    ................
  20     170   000000 000000   040040 040040   040040 040040   040040 040040    ....
  20     174   040040 040040   040040 040040   040040 040040   040040 040040
  20     210*  040040 040040   040040 040040   040040 040040   ****** ******                ....
  20     214   000000 000000   000000 000000   000000 000000   000000 000000    ................
  20     224*  000000 000000   000000 000000   000000 000000   040040 ******    ............  ..
PL6.E3A0      #001=PRVAL File=ZIG$DDY3.:ZIC0TSI                                  FRI 09/05/97 11:54 Page:39
  20     230   000000 000000   ****** ******   000000 000000   040040 040040    ............
  20     234   000000 000000   000000 000000   000000 000000   000000 000000    ................
  20     264*  000000 000000   000000 000000   000000 000000   ****** ******    ................
  20     270   000000 000000   000000 000000   000000 000000   000000 000000    ................
  20     324*  000000 000000   ****** ******   000000 000000   000000 000000    ................
  20     330   000000 000000   000000 000000   000000 000000   000000 000000    ................
  20     350*  000000 000000   000000 000000   000000 000000   ****** ******    ................
  20     360*  000000 000000   000000 000000   000000 000000   000000 000000    ................
  20     404*  000000 000000   ****** ******   000000 000000   000000 000000    ................
  20     410   000000 000000   000000 000000   000000 000000   000000 000000    ................
  20     424*  000000 000000   000000 000000   000000 000000   040040 040040    ............
  20     430   040040 040040   040040 040040   040040 040040   040040 040040
  20     434   040040 040040   040040 040040   040040 ******   ****** ******              ......
  20     440   040040 040040   040040 040040   040040 040040   040040 040040
  20     450*  040040 040040   040040 040040   040040 ******   ****** ******              ......
  20     454   000000 000000   040040 040040   040040 040040   040040 040040    ....
  20     460   040040 040040   040040 040040   040040 040040   040040 040040
  20     464   040040 ******   ****** ******   000000 000000   000000 000000      ..............
  20     470   000000 000000   000000 000000   000000 000000   000000 000000    ................
  20     474   000000 000000   ****** ******   000000 000000   000000 000000    ................
  20     500   000000 000000   000000 000000   040040 040040   040040 040040    ........
  20     504   040040 040040   040040 040040   040040 040040   040040 040040
  20     520*  040040 040040   ****** ******   000000 000000   000000 000000        ............
  20     524   040040 040040   040040 040040   040040 040040   040040 040040
  20     574*  000000 000000   000000 000000   000000 000000   000000 000000    ................
  20     600   000000 000000   000000 000000   000000 000000   ****** ******    ................
  20     604   000000 000000   000000 000000   000000 000000   000000 000000    ................
  20     610   000000 000000   000000 000000   040040 040040   040040 040040    ........
  20     614   040040 040040   040040 040040   040040 040040   040040 040040
  20     620   040040 040040   040040 ******   040040 040040   040040 040040          ..
  20     624   040040 040040   040040 040040   040040 040040   040040 040040
  20     660*  040040 040040   040040 040040   040040 040040   ****** ******                ....
  20     664   040040 040040   040040 040040   040040 040040   040040 040040
  20     674*  040040 040040   ****** ******   040040 040040   040040 040040        ....
  20     700   040040 040040   040040 040040   040040 040040   040040 040040
  20     710*  040040 040040   ****** ******   040040 040040   040040 040040        ....
  20     714   040040 040040   040040 040040   040040 040040   040040 040040
PL6.E3A0      #001=PRVAL File=ZIG$DDY3.:ZIC0TSI                                  FRI 09/05/97 11:54 Page:40
  20     720   040040 040040   040040 040040   040040 040040   ****** ******                ....
  20     724   040040 040040   040040 040040   040040 040040   040040 040040
  20     740*  040040 040040   ****** ******   040040 040040   040040 040040        ....
  20     744   040040 040040   040040 040040   040040 040040   040040 040040
  20     774*  040040 040040   ****** ******   040040 040040   040040 040040        ....
  20    1000   040040 040040   040040 040040   040040 040040   040040 040040
  20    1034*  040040 040040   ****** ******   040040 040040   040040 040040        ....
  20    1040   040040 040040   040040 040040   040040 040040   040040 040040
  20    1060*  040040 040040   ****** ******   040040 040040   040040 040040        ....
  20    1064   040040 040040   040040 040040   040040 040040   040040 040040
  20    1114*  040040 040040   ****** ******   040040 040040   040040 040040        ....
  20    1120   040040 040040   040040 040040   040040 040040   040040 040040
  20    1134*  040040 040040   040040 040040   040040 040040   ****** ******                ....
  20    1140   040040 040040   040040 040040   040040 040040   040040 040040
  20    1144   040040 040040   ****** ******   040040 040040   040040 040040        ....
  20    1150   040040 040040   040040 040040   040040 040040   ****** ******                ....
  20    1154   040040 040040   040040 040040   040040 040040   040040 040040
  20    1160   040040 040040   ****** ******   040040 040040   040040 040040        ....
  20    1164   040040 040040   040040 040040   040040 040040   ****** ******                ....
  20    1170   040040 040040   040040 040040   040040 040040   040040 040040
  20    1200*  040040 040040   040040 040040   040040 040040   ****** ******                ....
  20    1204   040040 040040   040040 040040   040040 040040   040040 040040
  20    1214*  040040 040040   040040 040040   040040 040040   040040 040040

ANALS
 Sect OctLoc
  21     000   ****** ******   ****** ******   ****** ******   ****** ******    ................

PURGE
 Sect OctLoc
  22     000   ****** ******   ****** ******   ****** ******   ****** ******    ................

DICTS
 Sect OctLoc
  23     000   ****** ******   ****** ******   ****** ******   ****** ******    ................

DISPS
PL6.E3A0      #001=PRVAL File=ZIG$DDY3.:ZIC0TSI                                  FRI 09/05/97 11:54 Page:41
 Sect OctLoc
  24     000   ***00* ******   ****** ******   ****** ******   ****** ******    ................
  24     024*  ****** ******   ****** ******   ****** ******                    ............

VALIDS
 Sect OctLoc
  25     000   ****** ******   ****** ******   ****** ******   ****** ******    ................

LOCKS
 Sect OctLoc
  26     000   ****** ******   ****** ******   ****** ******   ****** ******    ................

STRAN
 Sect OctLoc
  27     000   ****** ******   ****** ******   ****** ******   ****** ******    ................

DTRAN
 Sect OctLoc
  28     000   ****** ******   ****** ******   ****** ******   ****** ******    ................

SSTRANS
 Sect OctLoc
  29     000   ****** ******   ****** ******   ****** ******   ****** ******    ................

SSGEN
 Sect OctLoc
  30     000   ****** ******   ****** ******   ****** ******   ****** ******    ................

(unnamed)
 Sect OctLoc
  31     000   123106 040040   104101 040040   104101 055123   116040 040040    SF  DA  DA-SN
  31     004   123106 055101   104040 040040   126101 114111   104101 124111    SF-AD   VALIDATI
  31     010   117116 040127   101123 040116   117124 040123   125103 103105    ON WAS NOT SUCCE
  31     014   123123 106125   114040 106117   122040 040040   101055 104040    SSFUL FOR   A-D
  31     020   042116 125114   114042 040040   060065 060062   061060 060040    "NULL"  0502100
  31     024   123116 055114   124040 040040   114113 055114   124040 040040    SN-LT   LK-LT

PL6.E3A0      #001=PRVAL File=ZIG$DDY3.:ZIC0TSI                                  FRI 09/05/97 11:54 Page:42
(unnamed)
 Sect OctLoc
  33     000   000000 006000   000002 000000   000000 000000   000002 006000    ................
  33     004   000003 000000   000000 000001   000000 000036   000005 006000    ................
  33     010   000006 006000   000007 006000   000000 000002   000012 006000    ................
  33     014   000006 006000   000016 406000   000001 000000   000000 021541    ................
  33     020   000017 006000   077777 777777   000000 021451   000022 006000    ....?...........
  33     024   000000 021452   000024 006000   040040 040040   000005 006000    ........    ....
  33     030   000006 006000   000000 006000   000012 006000   000006 006000    ................
  33     034   000030 006000   000000 021453   000035 006000   000000 006000    ................
  33     040   000012 006000   000001 006000   000064 006000   000002 006000    .........4......
  33     044   000005 006000   000006 006000   000427 006000   000012 006000    ................
  33     050   000006 006000   000007 006000   000000 021460   000052 006000    .............*..
  33     054   000005 006000   000006 006000   000020 006000   000012 006000    ................
  33     060   000006 006000   000000 006000   000000 021454   000062 006000    .............2..
  33     064   000004 006000   000000 021455   000065 006000   000171 006000    .........5...y..
  33     070   000017 006000   000024 006000   000026 006000   000447 406000    ................
  33     074   000013 006000   000000 021456   000075 006000   000000 021457    .........=......
  33     100   000077 006000   137040 040040   055040 040040                    .?.._   -

PL6.E3A0      #001=PRVAL File=ZIG$DDY3.:ZIC0TSI                                  FRI 09/05/97 11:54 Page:43
--  Include file information  --

   ZIG_DIR_STRUCS.:ZIC0TOU  cannot be made into a system file and is referenced.
   ZI_ERRORS_SUBS.:ZIC0TOU  is referenced.
   ZI_SUB4_CAN.:ZIC0TOU  is referenced.
   ZIA_IDS_DCL.:ZIC0TOU  cannot be made into a system file and is referenced.
   ZIG_DBA_INT.:ZIC0TOU  cannot be made into a system file and is referenced.
   ZIG_GENERAL.:ZIC0TOU  cannot be made into a system file and is referenced.
   ZI_SUB_LANG.:ZIC0TOU  is referenced.
   B$JIT_C.:E05TOU  was found in the system file and is never referenced.
   CP_6_C.:E05TOU  was found in the system file and is never referenced.
      No diagnostics issued in procedure PRVAL.

   Procedure PRVAL requires 390 words for executable code.
   Procedure PRVAL requires 12 words of local(AUTO) storage.

    No errors detected in file ZIG$DDY3.:ZIC0TSI    .
PL6.E3A0      #001=PRVAL File=ZIG$DDY3.:ZIC0TSI                                  FRI 09/05/97 11:54 Page:44
          *** CROSS REFERENCE LISTING ***
**     DENOTES     IDENTIFIER DEFINITION
<<                 IDENTIFIER'S VALUE SET
>>                 IDENTIFIER'S VALUE USED
<>                 IDENTIFIER SET AND/OR USED
--                 IDENTIFIER REFERENCED
PL6.E3A0      #001=PRVAL File=ZIG$DDY3.:ZIC0TSI                                  FRI 09/05/97 11:54 Page:45
          MINI XREF LISTING

ABORT
      1875**DCL-ENT  3954--CALL
BIT36
        12**DCL      3891>>ASSIGN
BIT36_RDEF
        13**DCL      3774<<ASSIGN   3891<<ASSIGN
BIT36_RDEF.B0
        14**DCL      3775>>IF       3892>>IF       3899>>IF
BIT36_RDEF.B1
        15**DCL      3892>>IF       3906>>IF
BUFFPTR
        18**DCL      3761<<ASSIGN   3762<>CALL     3943<>CALL
CONTROL
      1811**DCL      3761--ASSIGN
CONTROL.COPY_PRIVACY_KEY
      1831**DCL      3882>>ASSIGN
CONTROL.DIAGNOSTIC_PRIVACY_K
      1832**DCL      3886>>ASSIGN
CONTROL.LANGUAGE
      1829**DCL      3803>>IF       3843>>IF       3937>>IF       3937>>IF       3940<<ASSIGN   3942<<ASSIGN
CONTROL.OPTIONS
      1830**DCL      3774>>ASSIGN
CONTROL.SCHEMA_NAME
      1826**DCL      3845>>IF       3847<>CALL
CONTROL.SUBSCHEMA_NAME
      1827**DCL      3805>>IF       3808<>CALL     3819>>ASSIGN
CONTROL.TRANSLATION_STATUS
      1813**DCL      3787>>IF
CONTROL.TYPE100
      1828**DCL      3775>>IF
CONTROL.TYPE30
      1815**DCL      3775>>IF
PL6.E3A0      #001=PRVAL File=ZIG$DDY3.:ZIC0TSI                                  FRI 09/05/97 11:54 Page:46
COPYKEY
        23**DCL      3882<<ASSIGN   3884<<ASSIGN   3902>>IF
COPYLOCK
        26**DCL      3901<<ASSIGN   3918>>IF
COPYOK
        28**DCL      3904<<ASSIGN   3919>>IF
DBCSERR
      3954**LABEL    3821--CALLALT  3822--CALLALT  3825--CALLALT  3858--CALLALT  3860--CALLALT  3878--CALLALT
      3894--CALLALT  3917--GOTO
DIAGKEY
        25**DCL      3886<<ASSIGN   3888<<ASSIGN   3909>>IF
DIAGLOCK
        27**DCL      3908<<ASSIGN   3927>>IF
DIAGOK
        29**DCL      3911<<ASSIGN   3928>>IF
EOS
      3916**LABEL    3890--CALLALT
ERROR
      1867**DCL-ENT  3767--CALL     3779--CALL     3790--CALL     3809--CALL     3832--CALL     3849--CALL
      3865--CALL     3921--CALL
ERROR_READ64
        20**DCL      3763>>IF
FETCHD_6
      1972**DCL-ENT  3821--CALL     3822--CALL
FETCHNS_6
      1977**DCL-ENT  3825--CALL     3858--CALL     3860--CALL     3890--CALL
FETCHOS_6
      1981**DCL-ENT  3894--CALL
GET_TIME
      1886**DCL-ENT  3874--CALL
HYPHEN
      3946**PROC     3804--CALL     3844--CALL
LKV
        24**DCL      3896<<ASSIGN   3898<>CALL     3902>>IF       3902>>IF       3909>>IF       3909>>IF
MSK_18B
        11**DCL      3877<<ASSIGN   3877>>ASSIGN
PL6.E3A0      #001=PRVAL File=ZIG$DDY3.:ZIC0TSI                                  FRI 09/05/97 11:54 Page:47
PP
        10**DCL      3877--ASSIGN
READ64
        19**DCL-ENT  3762--CALL
SET_FIELDS
      1870**DCL-ENT  3765--CALL     3766--CALL     3778--CALL     3789--CALL     3807--CALL     3808--CALL
      3830--CALL     3831--CALL     3847--CALL     3848--CALL     3864--CALL
SSSNAME
        22**DCL      3802<<ASSIGN   3805>>IF       3807<>CALL     3842<<ASSIGN   3845>>IF       3848<>CALL
      3875>>CALLBLT  3947>>CALLBLT  3948--DOWHILE  3949<<CALLBLT  3950>>CALLBLT
STORE_AD
         9**DCL      3879<<ASSIGN
STRE_6
      1969**DCL-ENT  3878--CALL
SUBSCHEMA_KEY
      1902**DCL      1903--REDEF
UNSC
        17**DCL-ENT  3898--CALL
UWA.AC.CALC_NEXT
      2886**DCL      2887--REDEF
UWA.AC.CALC_PRIOR
      2895**DCL      2896--REDEF
UWA.AC.DEFAULTS
      2847**DCL      2848--REDEF
UWA.AC.FILE_CODE
      2852**DCL      2853--REDEF
UWA.AC.FLAG1.ERROR_TYPE
      2849**DCL      2850--REDEF
UWA.A_D.AD_DATE
      2830**DCL      3874<>CALL
UWA.A_D.AD_FUNCTION
      2829**DCL      3859>>DOWHILE  3862>>IF       3873<<ASSIGN
UWA.A_D.AD_IDENT
      2831**DCL      3875<<CALLBLT
UWA.DB_STATUS
      2778**DCL      3889>>DOWHILE  3916>>IF
PL6.E3A0      #001=PRVAL File=ZIG$DDY3.:ZIC0TSI                                  FRI 09/05/97 11:54 Page:48
UWA.DIRECT_REF
      2787**DCL      3879>>ASSIGN
UWA.LK.PLVALUE
      3008**DCL      3895>>IF       3896>>ASSIGN   3898<>CALL
UWA.LT.PLOCKS
      3019**DCL      3891--ASSIGN
UWA.SF.DBKEY_DA
      2797**DCL      3822<>CALL
UWA.SN.SENAME
      3005**DCL      3828>>IF       3830<>CALL     3840>>ASSIGN
UWA.SN.SETYPE
      3002**DCL      3823<<ASSIGN   3824>>DOWHILE
VALIDS.COPY_KEY
      3718**DCL      3881>>IF       3884>>ASSIGN
VALIDS.DIAG_KEY
      3719**DCL      3885>>IF       3888>>ASSIGN
VALIDS.DIAG_LOCK
      3709**DCL      3930<<ASSIGN
VALIDS.MODE
      3710**DCL      3939>>IF
VALIDS.SNAME
      3720**DCL      3765<>CALL     3778<>CALL     3789<>CALL     3827>>IF       3828>>IF       3831<>CALL
      3840<<ASSIGN   3842>>ASSIGN   3864<>CALL
VALIDS.SSNAME
      3721**DCL      3766<>CALL     3800>>IF       3802>>ASSIGN   3819<<ASSIGN
VALIDS.STATUS
      3705**DCL      3771<<ASSIGN   3783<<ASSIGN   3796<<ASSIGN   3815<<ASSIGN   3837<<ASSIGN   3854<<ASSIGN
      3869<<ASSIGN   3925<<ASSIGN
WARNING
      1868**DCL-ENT  3931--CALL
WRIT64
        21**DCL-ENT  3943--CALL
X
        30**DCL      3876<<ASSIGN   3877--ASSIGN   3947<<CALLBLT  3948>>DOWHILE  3949>>CALLBLT  3950<<CALLBLT
