
PL6.E3A0      #001=PRINTAS File=ZIG$DDY4.:ZIC0TSI                                FRI 09/05/97 11:54 Page:1
        1        1        /*M* ZIG$DDY4         I-D-S/II            DBACS    */
        2        2        /*T***********************************************************/
        3        3        /*T*                                                         */
        4        4        /*T* Copyright (c) Bull HN Information Systems Inc., 1997    */
        5        5        /*T*                                                         */
        6        6        /*T***********************************************************/
        7        7        PRINTAS:
        8        8            PROC(NAME, TYPE);
        9        9    1   DCL NAME CHAR(30);
       10       10    1   DCL START UBIN WORD;
       11       11    1   DCL TYPE UBIN WORD;
       12       12    1   DCL LANG_LEN UBIN WORD;
       13       13    1   DCL LANG$ PTR;
       14       14    1   DCL LANG CHAR(LANG_LEN) BASED(LANG$);
       15       15    1   DCL TEMP_LEN UBIN WORD;
       16       16    1   DCL TEMP$ PTR;
       17       17    1   DCL TEMP CHAR(TEMP_LEN) BASED(TEMP$);
       18       18    1   DCL PNAME_LEN UBIN WORD;
       19       19    1   DCL PNAME$ PTR;
       20       20    1   DCL PNAME CHAR(PNAME_LEN) BASED(PNAME$);
       21       21    1   DCL C20 CHAR(20);
       22       22    1   DCL C12 CHAR(12);
       23       23    1   DCL C32 CHAR(32);
       24       24    1   DCL C64 CHAR(64);
       25       25    1   DCL TEMP64 CHAR(64);
       26       26    1   DCL CHR_LEN UBIN WORD;
       27       27    1   DCL CHR$ PTR;
       28       28    1   DCL CHR CHAR(CHR_LEN) BASED(CHR$);
       29       29    1   DCL TEMP88_LEN UBIN WORD;
       30       30    1   DCL TEMP88$ PTR;
       31       31    1   DCL TEMP88 CHAR(TEMP88_LEN) BASED(TEMP88$);
       32       32    1   DCL C88 CHAR(88);
       33       33    1   DCL 1 FIELD1 EXT,
       34       34    1         2 COUNT1 UBIN (9) UNAL,
       35       35    1         2 TEXT1 CHAR(31) UNAL;
       36       36    1   DCL FRST_TIME BIT(1) STATIC INIT('1'B);
       37       37         /* This proc will locate the given sn elements and
PL6.E3A0      #001=PRINTAS File=ZIG$DDY4.:ZIC0TSI                                FRI 09/05/97 11:54 Page:2
       38       38         then list the subschema name for all subschemas that
       39       39         reference the sn element */
       40       40    1   DCL OL CHAR(128);
       41       41    1   DCL STYPE UBIN WORD;
       42       42    1   DCL X SBIN STATIC INIT(0);
       43       43    1   DCL ELM_TYP(0:5) STATIC CHAR(8) INIT( ' ','AREA ', 'SET ',
       44       44    1    'KEY ', 'RECORD ', 'FIELD ');
       45       45    1   DCL ELM_TYP_LEN(0:5) STATIC UBIN HALF INIT(0,5,4,4,7,6);
       46       46    1   DCL STYPES(0:5) SBIN STATIC INIT(0,20,30,31,40,50);
       47       47        %INCLUDE ZIG_GENERAL;
       48      155        %INCLUDE ZI_SUB4_CAN;
       49      812        %INCLUDE ZIG_DBA_INT;
       50      860        %UWA;
       51     1195    1   DCL ELEMENT CHAR(ELEM_LEN) BASED(ELEM$);
       52     1196    1   DCL ELEM$ PTR;
       53     1197    1   DCL ELEM_LEN UBIN WORD;
       54     1198    1   DCL HOLD_PLACE UBIN WORD;
       55     1199    1   DCL SI_LINE CHAR(16);
       56     1200    1   DCL C16 CHAR(16) STATIC ALIGNED INIT(' ');
       57     1201    1       PNAME$ = ADDR(C64);
       58     1202    1       TEMP$ = ADDR(TEMP64);
       59     1203    1       CHR$ = ADDR(C32);
       60     1204    1       LANG$ = ADDR(C12);
       61     1205    1       TEMP88$ = ADDR(C88);
       62     1206    1       ELEM$ = ADDR(C20);
       63     1207    1       ELEM_LEN = ELM_TYP_LEN(TYPE);
       64     1208    1       ELEMENT = ELM_TYP(TYPE);
       65     1209    1       OL = ' ';
       66     1210    1       CALL LIST(OL);
       67     1211    1       OL = '****';
       68     1212    1       IF FRST_TIME THEN FRST_TIME = '0'B;
       69     1213    1       ELSE CALL LIST(OL);
       70     1214    1       OL = 'SCHEMA ELEMENT/SUBSCHEMA CROSS REFERENCE***';
       71     1215    1       CALL LIST(OL);
       72     1216    1       OL = ' ';
       73     1217    1       CALL LIST(OL);
       74     1218    1       CALL FETCHD_6('DA  ',UWA.SF.DBKEY_DA) ALTRET(DBCS_ERR);
PL6.E3A0      #001=PRINTAS File=ZIG$DDY4.:ZIC0TSI                                FRI 09/05/97 11:54 Page:3
       75     1219    2       IF NAME = 'ALL' THEN DO;
       76     1220    2           START = 0;
       77     1221    2           IF TYPE = 1 THEN START = UWA.DA.FRST_AC;
       78     1222    2           IF TYPE = 2 THEN START = UWA.DA.FRST_SC;
       79     1223    2           IF TYPE = 3 THEN START = UWA.DA.FRST_KC;
       80     1224    2           IF TYPE = 4 THEN START = UWA.DA.FRST_RC;
       81     1225    2           IF TYPE = 5 THEN START = UWA.DA.FRST_FR;
       82     1226    2           CALL FETCHD_6('SN  ',START) ALTRET(TERM_ALL);
       83     1227    2           STYPE = UWA.SN.SETYPE;
       84     1228    3           DO WHILE(STYPE = UWA.SN.SETYPE);
       85     1229    3               CALL LSTSS;
       86     1230    3               CALL FETCHNS_6('DA-SN   ') ALTRET(TERM_ALL);
       87     1231    3               END;
       88     1232    2   TERM_ALL:
       89     1233    3           IF START = 0 THEN DO;
       90     1234    3               OL = ' ';
       91     1235    3               CALL LIST(OL);
       92     1236    3               CALL CONCAT(OL,'THE SCHEMA DICTIONARY DOES NOT CONTAIN A ',ELEMENT,
              1236                        'NAME.');
       93     1237    3               CALL LIST(OL);
       94     1238    3               END;
       95     1239    2           RETURN;
       96     1240    2           END;
       97     1241    1       IF TYPE = 5 AND UWA.RECORD_NAME ~= ' ' THEN
       98     1242    2       DO;
       99     1243    2           CALL FSERCHD(UWA.RECORD_NAME,NAME) ALTRET(GOT_QFR);
      100     1244    2           CALL QTE(NAME);
      101     1245    2           TEMP_LEN = CHR_LEN;
      102     1246    2           TEMP64 = CHR;
      103     1247    2           CALL QTE(UWA.RECORD_NAME);
      104     1248    2           CALL CONCAT(OL,'THE SCHEMA FIELD ', TEMP64, ' IN ',CHR,
              1248                    ' IS NOT IN THE SCHEMA DICTIONARY.');
      105     1249    2           CALL LIST(OL);
      106     1250    2           RETURN;
      107     1251    2   GOT_QFR:
      108     1252    2           CALL LSTSS;
      109     1253    2           RETURN;
PL6.E3A0      #001=PRINTAS File=ZIG$DDY4.:ZIC0TSI                                FRI 09/05/97 11:54 Page:4
      110     1254    2           END;
      111     1255    2       ELSE DO;
      112     1256    2           CALL SERCHD(NAME,TYPE) ALTRET(GOT_NAME);
      113     1257    2           CALL QTE(NAME);
      114     1258    2           CALL CONCAT(OL,'THE SCHEMA ',ELEMENT,CHR,' IS NOT IN THE SCHEMA DICTIONARY.'
              1258                    );
      115     1259    2           CALL LIST(OL);
      116     1260    2           RETURN;
      117     1261    2   GOT_NAME:
      118     1262    2           CALL LSTSS;
      119     1263    2           IF TYPE ~= 5 THEN RETURN;
      120     1264    2           CALL FETCHNS_6('DA-SN   ') ALTRET(TERM_GOT_NAME);
      121     1265    3           DO WHILE(UWA.SN.SENAME = NAME AND UWA.SN.SETYPE = 50);
      122     1266    3               CALL LSTSS;
      123     1267    3               CALL FETCHNS_6('DA-SN   ') ALTRET(TERM_GOT_NAME);
      124     1268    3               END;
      125     1269    2   TERM_GOT_NAME:
      126     1270    2           RETURN;
      127     1271    2           END;
      128     1272    1   LSTSS:
      129     1273    1       PROC;
      130     1274    2       IF SUBSTR(UWA.SN.SENAME,0,1) = '*' THEN RETURN;
      131     1275    2       CALL QTE(UWA.SN.SENAME);
      132     1276    2       PNAME_LEN = CHR_LEN;
      133     1277    2       PNAME = CHR;
      134     1278    3       IF TYPE = 5 THEN DO;
      135     1279    3           CALL FCURR_R_6('SN  ') ALTRET(DBCS_ERR);
      136     1280    3           HOLD_PLACE = UWA.DIRECT_REF;
      137     1281    3           CALL FETCHNS_6('SN-SE   ') ALTRET(DBCS_ERR);
      138     1282    3           CALL FETCHOS_6('RC-FR   ') ALTRET(DBCS_ERR);
      139     1283    3           CALL FETCHOS_6('SN-SE   ') ALTRET(DBCS_ERR);
      140     1284    4           IF UWA.SN.SENAME = '*DBPARAM' THEN DO;
      141     1285    4               ELEM_LEN = 20;
      142     1286    4               ELEMENT = 'DATA BASE PARAMETER ';
      143     1287    4               END;
      144     1288    4           ELSE DO;
      145     1289    4               CALL QTE(UWA.SN.SENAME);
PL6.E3A0      #001=PRINTAS File=ZIG$DDY4.:ZIC0TSI                                FRI 09/05/97 11:54 Page:5
      146     1290    4               TEMP_LEN = PNAME_LEN;
      147     1291    4               TEMP = PNAME;
      148     1292    4               PNAME_LEN = PNAME_LEN + 4 + CHR_LEN;
      149     1293    4               CALL CONCAT(PNAME,TEMP,' IN ',CHR);
      150     1294    4               ELEM_LEN = 6;
      151     1295    4               ELEMENT = 'FIELD ';
      152     1296    4               END;
      153     1297    3           CALL FETCHD_6('SN  ',HOLD_PLACE) ALTRET(DBCS_ERR);
      154     1298    3           END;
      155     1299    2       OL = ' ';
      156     1300    2       CALL LIST(OL);
      157     1301    2       CALL FETCHNS_6('SN-SI   ') ALTRET(NO_REFS);
      158     1302    2       UWA.AL.DBKEY_SI = UWA.DIRECT_REF;
      159     1303    2       CALL FETCHOS_6('AS-SI   ') ALTRET(DBCS_ERR);
      160     1304    2       OL = ' ';
      161     1305    2       CALL LIST(OL);
      162     1306    2       CALL CONCAT(OL,'THE SCHEMA ',ELEMENT,PNAME,' IS REFERENCED BY SUBSCHEMA(S):');
      163     1307    2       CALL LIST(OL);
      164     1308    2       OL = ' ';
      165     1309    2       CALL LIST(OL);
      166     1310    2   NEXT_REF:
      167     1311    2       CALL SET_FIELD_NUM(1,UWA.SI.LI_NE);
      168     1312    2       CALL LANGT(UWA.AS.SS_LANG);
      169     1313    2       CALL QTE(UWA.AS.SS_NAME);
      170     1314    2       TEMP88_LEN = LANG_LEN + 10 + CHR_LEN + 16 + FIELD1.COUNT1 + 3;
      171     1315    2       CALL CONCAT(TEMP88,LANG,'SUBSCHEMA ',CHR,', REFERENCE LINE ',SUBSTR(FIELD1.TEXT1
              1315                ,0,FIELD1.COUNT1),'.  ');
      172     1316    3       IF UWA.SI.A_LIAS ~= 0 THEN DO;
      173     1317    3           CALL FETCHC_6('AL  ') ALTRET(DBCS_ERR);
      174     1318    3           CALL QTE(UWA.AL.ANAME);
      175     1319    3           CALL CONCAT(OL,TEMP88,'ALIAS NAME IS ',CHR,'.');
      176     1320    3           END;
      177     1321    2       ELSE OL = TEMP88;
      178     1322    2       CALL LIST(OL);
      179     1323    2       CALL FETCHNS_6('SN-SI   ') ALTRET(END_SI);
      180     1324    2       UWA.AL.DBKEY_SI = UWA.DIRECT_REF;
      181     1325    2       CALL FETCHOS_6('AS-SI   ') ALTRET(DBCS_ERR);
PL6.E3A0      #001=PRINTAS File=ZIG$DDY4.:ZIC0TSI                                FRI 09/05/97 11:54 Page:6
      182     1326    2       GOTO NEXT_REF;
      183     1327    2   END_SI:
      184     1328    2       RETURN;
      185     1329    2   NO_REFS:
      186     1330    2       CALL CONCAT(OL,'    THE SCHEMA ',ELEMENT,PNAME,
              1330                ' IS NOT REFERENCED BY ANY VALIDATED SUBSCHEMAS.');
      187     1331    2       CALL LIST(OL);
      188     1332    2       RETURN;
      189     1333    2   DBCS_ERR:
      190     1334    2       CALL ABORT;
      191     1335    2   END LSTSS;
      192     1336    1   DBCS_ERR:
      193     1337    1       CALL ABORT;
      194     1338    1   LANGT: PROC(X);
      195     1339    2   DCL X SBIN WORD;
      196     1340    3       DO CASE(X);
      197     1341    3       CASE(1);
      198     1342    3           LANG_LEN = 10;
      199     1343    3           LANG = '    COBOL ';
      200     1344    3       CASE(2);
      201     1345    3           LANG_LEN = 12;
      202     1346    3           LANG = '    FORTRAN ';
      203     1347    3       CASE(3);
      204     1348    3           LANG_LEN = 8;
      205     1349    3           LANG = '    APL ';
      206     1350    3       CASE(4);
      207     1351    3           LANG_LEN = 10;
      208     1352    3           LANG = '    BASIC ';
      209     1353    3       CASE(ELSE);
      210     1354    3           LANG_LEN = 8;
      211     1355    3           LANG = '    ****';
      212     1356    3           END;
      213     1357    2   END LANGT;
      214     1358    1   SERCHD:
      215     1359    1       PROC(NAME,TYPE) ALTRET;
      216     1360    2   DCL NAME CHAR(30);
      217     1361    2   DCL TYPE UBIN WORD;
PL6.E3A0      #001=PRINTAS File=ZIG$DDY4.:ZIC0TSI                                FRI 09/05/97 11:54 Page:7
      218     1362    2   DCL DBKEY UBIN WORD;
      219     1363    2       DBKEY = UWA.SF.DBKEY_DA;
      220     1364    2       STYPE = STYPES(TYPE);
      221     1365    2       IF TYPE = 1 THEN DBKEY = UWA.DA.FRST_AC;
      222     1366    2       IF TYPE = 2 THEN DBKEY = UWA.DA.FRST_SC;
      223     1367    2       IF TYPE = 3 THEN DBKEY = UWA.DA.FRST_KC;
      224     1368    2       IF TYPE = 4 THEN DBKEY = UWA.DA.FRST_RC;
      225     1369    2       IF TYPE = 5 THEN DBKEY = UWA.DA.FRST_FR;
      226     1370    2       CALL FETCHD_6('SN  ',DBKEY) ALTRET(END_SET);
      227     1371    3       DO WHILE(UWA.SN.SENAME < NAME AND UWA.SN.SETYPE = STYPE);
      228     1372    3           CALL FETCHNS_6('DA-SN   ') ALTRET(END_SET);
      229     1373    3           END;
      230     1374    2       IF UWA.SN.SENAME = NAME AND UWA.SN.SETYPE = STYPE THEN
      231     1375    2           ALTRETURN;
      232     1376    2   END_SET:
      233     1377    2       RETURN;
      234     1378    2   END;
      235     1379    1   FSERCHD:
      236     1380    1       PROC(RNAME,FNAME) ALTRET;
      237     1381    2   DCL RNAME CHAR(30);
      238     1382    2   DCL FNAME CHAR(30);
      239     1383    2       CALL SERCHD(RNAME,4) ALTRET(GOT_RC);
      240     1384    2       RETURN;
      241     1385    2   GOT_RC:
      242     1386    2       CALL FETCHNS_6('SN-SE   ') ALTRET(DBCS_ERR);
      243     1387    2   NEXT_FR:
      244     1388    2       CALL FETCHNS_6('RC-FR   ') ALTRET(NO_HIT);
      245     1389    2       IF UWA.FR.SYN = 1 THEN GOTO NEXT_FR;
      246     1390    2       CALL FETCHOS_6('SN-SE   ') ALTRET(DBCS_ERR);
      247     1391    2       IF UWA.SN.SENAME = FNAME THEN ALTRETURN;
      248     1392    2       GOTO NEXT_FR;
      249     1393    2   NO_HIT:
      250     1394    2       RETURN;
      251     1395    2   DBCS_ERR:
      252     1396    2       CALL ABORT;
      253     1397    2   END;
      254     1398    1   QTE: PROC(CST);
PL6.E3A0      #001=PRINTAS File=ZIG$DDY4.:ZIC0TSI                                FRI 09/05/97 11:54 Page:8
      255     1399    2   DCL CST CHAR(30);
      256     1400    2       CALL INDEX1(CHR_LEN,' ',CST);
      257     1401    2       CHR_LEN = CHR_LEN + 1;
      258     1402    2       CALL CONCAT(CHR,'"',CST);
      259     1403    2       CHR_LEN = CHR_LEN + 1;
      260     1404    2       CALL INSERT(CHR,CHR_LEN - 1,1,'"');
      261     1405    2   END;
      262     1406    1   L20:
      263     1407    1       CALL CONCAT(OL,'I-D-S/II DICTIONARY ABNORMAL STATUS = ' , UWA.DB_STATUS);
      264     1408    1       CALL LIST(OL);
      265     1409    1       RETURN;
      266     1410    1   END PRINTAS;

PL6.E3A0      #001=PRINTAS File=ZIG$DDY4.:ZIC0TSI                                FRI 09/05/97 11:54 Page:9
--  Include file information  --

   ZIG_DBA_INT.:ZIC0TOU  cannot be made into a system file and is referenced.
   ZI_SUB4_CAN.:ZIC0TOU  is referenced.
   ZIG_GENERAL.:ZIC0TOU  cannot be made into a system file and is referenced.
   B$JIT_C.:E05TOU  was found in the system file and is never referenced.
   CP_6_C.:E05TOU  was found in the system file and is never referenced.
      No diagnostics issued in procedure PRINTAS.

   Procedure PRINTAS requires 867 words for executable code.
   Procedure PRINTAS requires 138 words of local(AUTO) storage.

    No errors detected in file ZIG$DDY4.:ZIC0TSI    .

PL6.E3A0      #001=PRINTAS File=ZIG$DDY4.:ZIC0TSI                                FRI 09/05/97 11:54 Page:10

 Object Unit name= PRINTAS                                    File name= ZIG$DDY4.:ZIC0TOU
 UTS= SEP 05 '97 11:54:50.00 FRI                              Compiler= PL-6/E31         Sev=      00
 SharedLib= :SHARED_SYSTEM                                    Alt SharedLib=


    ****  Control sections  ****

 Sect   Type Bound  Init  Size OctSiz  Section name(segment info)
    0  LblCom even  none     8     10  FIELD1
    1   Data  even  none    30     36  PRINTAS
    2  LblCom even  none     1      1  NUM_ERROR_MSG
    3  LblCom even  none     1      1  NUM_WARN_MSG
    4  LblCom even  none     1      1  ALLOCATE_END
    5  LblCom even  none     2      2  SUBSCHEMA_KEY
    6  LblCom even  none     1      1  BUFFER$
    7  LblCom even  none     1      1  ERROR_IO
    8  LblCom even  none     1      1  BUFFER_LEN
    9  LblCom even  none     2      2  UWA_KEY
   10  LblCom even  none     1      1  NEXT_UWA_SECOND_HALF
   11  LblCom even  none     2      2  RVA_KEY
   12  LblCom even  none     2      2  IA__KEY
   13  LblCom even  none     1      1  NEXT_RVA_SECOND_HALF
   14  LblCom even  none    32     40  SEARCHR_NB
   15  LblCom even  none    32     40  SEM_COM
   16  LblCom even  none    32     40  DMCL_XLATE
   17  LblCom even  none    32     40  Q2_PERCENT
   18  LblCom even  none   656   1220  UWA
   19  RoData even  UTS    122    172  PRINTAS
   20   Proc  even  none   867   1543  PRINTAS
   21  RoData even  none    25     31  PRINTAS

    ****  Entry defs  ****

                              Check   Calling
                             calling  sequence
  Sect OctLoc Primary Altret sequence   type   Parms  Name
    20      0   yes            yes      Std        2  PRINTAS
PL6.E3A0      #001=PRINTAS File=ZIG$DDY4.:ZIC0TSI                                FRI 09/05/97 11:54 Page:11

  ****  Entry refs  ****

         Check        Calling
        calling       sequence
Altret sequence SRef   type   Args  Name
         yes           Std       1 LIST
 yes     yes           Std       2 FETCHD_6
 yes     yes           Std       1 FETCHNS_6
         yes           Std       0 ABORT
 yes     yes           Std       1 FETCHOS_6
         yes           Std       2 SET_FIELD_NUM
 yes     yes           Std       1 FETCHC_6
 yes     yes           Std       1 FCURR_R_6
                       nStd      0 X66_AUTO_2
                       nStd      0 X66_ARET

  ****  Segment refs  ****

  Flags:  r = read only, s = secondary
Flgs Name                             Flgs Name                             Flgs Name
     ISSID
PL6.E3A0      #001=PRINTAS File=ZIG$DDY4.:ZIC0TSI                                FRI 09/05/97 11:54 Page:12


        1        1        /*M* ZIG$DDY4         I-D-S/II            DBACS    */
        2        2        /*T***********************************************************/
        3        3        /*T*                                                         */
        4        4        /*T* Copyright (c) Bull HN Information Systems Inc., 1997    */
        5        5        /*T*                                                         */
        6        6        /*T***********************************************************/
        7        7        PRINTAS:
        8        8            PROC(NAME, TYPE);

      8 20 000000   000000 700200 xent  PRINTAS      TSX0  ! X66_AUTO_2
        20 000001   000212 000002                    ZERO    138,2

        9        9    1   DCL NAME CHAR(30);
       10       10    1   DCL START UBIN WORD;
       11       11    1   DCL TYPE UBIN WORD;
       12       12    1   DCL LANG_LEN UBIN WORD;
       13       13    1   DCL LANG$ PTR;
       14       14    1   DCL LANG CHAR(LANG_LEN) BASED(LANG$);
       15       15    1   DCL TEMP_LEN UBIN WORD;
       16       16    1   DCL TEMP$ PTR;
       17       17    1   DCL TEMP CHAR(TEMP_LEN) BASED(TEMP$);
       18       18    1   DCL PNAME_LEN UBIN WORD;
       19       19    1   DCL PNAME$ PTR;
       20       20    1   DCL PNAME CHAR(PNAME_LEN) BASED(PNAME$);
       21       21    1   DCL C20 CHAR(20);
       22       22    1   DCL C12 CHAR(12);
       23       23    1   DCL C32 CHAR(32);
       24       24    1   DCL C64 CHAR(64);
       25       25    1   DCL TEMP64 CHAR(64);
       26       26    1   DCL CHR_LEN UBIN WORD;
       27       27    1   DCL CHR$ PTR;
       28       28    1   DCL CHR CHAR(CHR_LEN) BASED(CHR$);
       29       29    1   DCL TEMP88_LEN UBIN WORD;
       30       30    1   DCL TEMP88$ PTR;
       31       31    1   DCL TEMP88 CHAR(TEMP88_LEN) BASED(TEMP88$);
       32       32    1   DCL C88 CHAR(88);
PL6.E3A0      #001=PRINTAS File=ZIG$DDY4.:ZIC0TSI                                FRI 09/05/97 11:54 Page:13
       33       33    1   DCL 1 FIELD1 EXT,
       34       34    1         2 COUNT1 UBIN (9) UNAL,
       35       35    1         2 TEXT1 CHAR(31) UNAL;
       36       36    1   DCL FRST_TIME BIT(1) STATIC INIT('1'B);
       37       37         /* This proc will locate the given sn elements and
       38       38         then list the subschema name for all subschemas that
       39       39         reference the sn element */
       40       40    1   DCL OL CHAR(128);
       41       41    1   DCL STYPE UBIN WORD;
       42       42    1   DCL X SBIN STATIC INIT(0);
       43       43    1   DCL ELM_TYP(0:5) STATIC CHAR(8) INIT( ' ','AREA ', 'SET ',
       44       44    1    'KEY ', 'RECORD ', 'FIELD ');
       45       45    1   DCL ELM_TYP_LEN(0:5) STATIC UBIN HALF INIT(0,5,4,4,7,6);
       46       46    1   DCL STYPES(0:5) SBIN STATIC INIT(0,20,30,31,40,50);
       47       47        %INCLUDE ZIG_GENERAL;
       48      155        %INCLUDE ZI_SUB4_CAN;
       49      812        %INCLUDE ZIG_DBA_INT;
       50      860        %UWA;
       51     1195    1   DCL ELEMENT CHAR(ELEM_LEN) BASED(ELEM$);
       52     1196    1   DCL ELEM$ PTR;
       53     1197    1   DCL ELEM_LEN UBIN WORD;
       54     1198    1   DCL HOLD_PLACE UBIN WORD;
       55     1199    1   DCL SI_LINE CHAR(16);
       56     1200    1   DCL C16 CHAR(16) STATIC ALIGNED INIT(' ');
       57     1201    1       PNAME$ = ADDR(C64);

   1201 20 000002   200034 630500                    EPPR0   C64,,AUTO
        20 000003   200013 450500                    STP0    PNAME$,,AUTO

       58     1202    1       TEMP$ = ADDR(TEMP64);

   1202 20 000004   200054 631500                    EPPR1   TEMP64,,AUTO
        20 000005   200011 451500                    STP1    TEMP$,,AUTO

       59     1203    1       CHR$ = ADDR(C32);

   1203 20 000006   200024 633500                    EPPR3   C32,,AUTO
PL6.E3A0      #001=PRINTAS File=ZIG$DDY4.:ZIC0TSI                                FRI 09/05/97 11:54 Page:14
        20 000007   200075 453500                    STP3    CHR$,,AUTO

       60     1204    1       LANG$ = ADDR(C12);

   1204 20 000010   200021 634500                    EPPR4   C12,,AUTO
        20 000011   200007 454500                    STP4    LANG$,,AUTO

       61     1205    1       TEMP88$ = ADDR(C88);

   1205 20 000012   200100 635500                    EPPR5   C88,,AUTO
        20 000013   200077 455500                    STP5    TEMP88$,,AUTO

       62     1206    1       ELEM$ = ADDR(C20);

   1206 20 000014   200014 636500                    EPPR6   C20,,AUTO
        20 000015   200167 456500                    STP6    ELEM$,,AUTO

       63     1207    1       ELEM_LEN = ELM_TYP_LEN(TYPE);

   1207 20 000016   200004 477500                    LDP7    @TYPE,,AUTO
        20 000017   700000 720100                    LXL0    0,,PR7
        20 000020   000016 236010 1                  LDQ     ELM_TYP_LEN,X0
        20 000021   000022 772000                    QRL     18
        20 000022   200170 756100                    STQ     ELEM_LEN,,AUTO

       64     1208    1       ELEMENT = ELM_TYP(TYPE);

   1208 20 000023   000000 635010                    EAA     0,X0
        20 000024   000017 771000                    ARL     15
        20 000025   000000 621006                    EAX1    0,QL
        20 000026   040140 100405                    MLR     fill='040'O
        20 000027   000002 000010 1                  ADSC9   ELM_TYP,A                cn=0,n=8
        20 000030   600000 000011                    ADSC9   0,,PR6                   cn=0,n=*X1

       65     1209    1       OL = ' ';

   1209 20 000031   040100 100400                    MLR     fill='040'O
PL6.E3A0      #001=PRINTAS File=ZIG$DDY4.:ZIC0TSI                                FRI 09/05/97 11:54 Page:15
        20 000032   000000 000001 21                 ADSC9   0                        cn=0,n=1
        20 000033   200126 000200                    ADSC9   OL,,AUTO                 cn=0,n=128

       66     1210    1       CALL LIST(OL);

   1210 20 000034   200126 630500                    EPPR0   OL,,AUTO
        20 000035   200206 450500                    STP0    DBKEY+1,,AUTO
        20 000036   200206 630500                    EPPR0   DBKEY+1,,AUTO
        20 000037   000001 631400 21                 EPPR1   1
        20 000040   000000 701000 xent               TSX1    LIST
        20 000041   000000 011000                    NOP     0

       67     1211    1       OL = '****';

   1211 20 000042   040100 100400                    MLR     fill='040'O
        20 000043   000000 000004 19                 ADSC9   0                        cn=0,n=4
        20 000044   200126 000200                    ADSC9   OL,,AUTO                 cn=0,n=128

       68     1212    1       IF FRST_TIME THEN FRST_TIME = '0'B;

   1212 20 000045   000000 234000 1                  SZN     FRST_TIME
        20 000046   000051 605000 20                 TPL     s:1213

   1212 20 000047   000000 450000 1                  STZ     FRST_TIME
        20 000050   000057 710000 20                 TRA     s:1214

       69     1213    1       ELSE CALL LIST(OL);

   1213 20 000051   200126 630500                    EPPR0   OL,,AUTO
        20 000052   200206 450500                    STP0    DBKEY+1,,AUTO
        20 000053   200206 630500                    EPPR0   DBKEY+1,,AUTO
        20 000054   000001 631400 21                 EPPR1   1
        20 000055   000000 701000 xent               TSX1    LIST
        20 000056   000000 011000                    NOP     0

       70     1214    1       OL = 'SCHEMA ELEMENT/SUBSCHEMA CROSS REFERENCE***';

PL6.E3A0      #001=PRINTAS File=ZIG$DDY4.:ZIC0TSI                                FRI 09/05/97 11:54 Page:16
   1214 20 000057   040100 100400                    MLR     fill='040'O
        20 000060   000001 000053 19                 ADSC9   1                        cn=0,n=43
        20 000061   200126 000200                    ADSC9   OL,,AUTO                 cn=0,n=128

       71     1215    1       CALL LIST(OL);

   1215 20 000062   200126 630500                    EPPR0   OL,,AUTO
        20 000063   200206 450500                    STP0    DBKEY+1,,AUTO
        20 000064   200206 630500                    EPPR0   DBKEY+1,,AUTO
        20 000065   000001 631400 21                 EPPR1   1
        20 000066   000000 701000 xent               TSX1    LIST
        20 000067   000000 011000                    NOP     0

       72     1216    1       OL = ' ';

   1216 20 000070   040100 100400                    MLR     fill='040'O
        20 000071   000000 000001 21                 ADSC9   0                        cn=0,n=1
        20 000072   200126 000200                    ADSC9   OL,,AUTO                 cn=0,n=128

       73     1217    1       CALL LIST(OL);

   1217 20 000073   200126 630500                    EPPR0   OL,,AUTO
        20 000074   200206 450500                    STP0    DBKEY+1,,AUTO
        20 000075   200206 630500                    EPPR0   DBKEY+1,,AUTO
        20 000076   000001 631400 21                 EPPR1   1
        20 000077   000000 701000 xent               TSX1    LIST
        20 000100   000000 011000                    NOP     0

       74     1218    1       CALL FETCHD_6('DA  ',UWA.SF.DBKEY_DA) ALTRET(DBCS_ERR);

   1218 20 000101   000003 630400 21                 EPPR0   3
        20 000102   000002 631400 21                 EPPR1   2
        20 000103   000000 701000 xent               TSX1    FETCHD_6
        20 000104   001231 702000 20                 TSX2    DBCS_ERR

       75     1219    2       IF NAME = 'ALL' THEN DO;

PL6.E3A0      #001=PRINTAS File=ZIG$DDY4.:ZIC0TSI                                FRI 09/05/97 11:54 Page:17
   1219 20 000105   200003 470500                    LDP0    @NAME,,AUTO
        20 000106   040000 106500                    CMPC    fill='040'O
        20 000107   000000 000036                    ADSC9   0,,PR0                   cn=0,n=30
        20 000110   000015 000003 19                 ADSC9   13                       cn=0,n=3
        20 000111   000237 601000 20                 TNZ     s:1241

       76     1220    2           START = 0;

   1220 20 000112   200005 450100                    STZ     START,,AUTO

       77     1221    2           IF TYPE = 1 THEN START = UWA.DA.FRST_AC;

   1221 20 000113   200004 471500                    LDP1    @TYPE,,AUTO
        20 000114   100000 235100                    LDA     0,,PR1
        20 000115   000001 115007                    CMPA    1,DL
        20 000116   000121 601000 20                 TNZ     s:1222

   1221 20 000117   000415 236000 18                 LDQ     UWA+269
        20 000120   200005 756100                    STQ     START,,AUTO

       78     1222    2           IF TYPE = 2 THEN START = UWA.DA.FRST_SC;

   1222 20 000121   100000 235100                    LDA     0,,PR1
        20 000122   000002 115007                    CMPA    2,DL
        20 000123   000126 601000 20                 TNZ     s:1223

   1222 20 000124   000417 236000 18                 LDQ     UWA+271
        20 000125   200005 756100                    STQ     START,,AUTO

       79     1223    2           IF TYPE = 3 THEN START = UWA.DA.FRST_KC;

   1223 20 000126   100000 235100                    LDA     0,,PR1
        20 000127   000003 115007                    CMPA    3,DL
        20 000130   000133 601000 20                 TNZ     s:1224

   1223 20 000131   000420 236000 18                 LDQ     UWA+272
        20 000132   200005 756100                    STQ     START,,AUTO
PL6.E3A0      #001=PRINTAS File=ZIG$DDY4.:ZIC0TSI                                FRI 09/05/97 11:54 Page:18

       80     1224    2           IF TYPE = 4 THEN START = UWA.DA.FRST_RC;

   1224 20 000133   100000 235100                    LDA     0,,PR1
        20 000134   000004 115007                    CMPA    4,DL
        20 000135   000140 601000 20                 TNZ     s:1225

   1224 20 000136   000416 236000 18                 LDQ     UWA+270
        20 000137   200005 756100                    STQ     START,,AUTO

       81     1225    2           IF TYPE = 5 THEN START = UWA.DA.FRST_FR;

   1225 20 000140   100000 235100                    LDA     0,,PR1
        20 000141   000005 115007                    CMPA    5,DL
        20 000142   000145 601000 20                 TNZ     s:1226

   1225 20 000143   000421 236000 18                 LDQ     UWA+273
        20 000144   200005 756100                    STQ     START,,AUTO

       82     1226    2           CALL FETCHD_6('SN  ',START) ALTRET(TERM_ALL);

   1226 20 000145   200005 633500                    EPPR3   START,,AUTO
        20 000146   200207 453500                    STP3    DBKEY+2,,AUTO
        20 000147   000005 236000 21                 LDQ     5
        20 000150   200206 756100                    STQ     DBKEY+1,,AUTO
        20 000151   200206 630500                    EPPR0   DBKEY+1,,AUTO
        20 000152   000002 631400 21                 EPPR1   2
        20 000153   000000 701000 xent               TSX1    FETCHD_6
        20 000154   000175 702000 20                 TSX2    TERM_ALL

       83     1227    2           STYPE = UWA.SN.SETYPE;

   1227 20 000155   000424 235000 18                 LDA     UWA+276
        20 000156   200166 755100                    STA     STYPE,,AUTO

       84     1228    3           DO WHILE(STYPE = UWA.SN.SETYPE);

PL6.E3A0      #001=PRINTAS File=ZIG$DDY4.:ZIC0TSI                                FRI 09/05/97 11:54 Page:19
   1228 20 000157   200166 236100                    LDQ     STYPE,,AUTO
        20 000160   000175 604000 20                 TMI     TERM_ALL
        20 000161   000424 116000 18                 CMPQ    UWA+276
        20 000162   000175 601000 20                 TNZ     TERM_ALL

       85     1229    3               CALL LSTSS;

   1229 20 000163   000446 701000 20                 TSX1    LSTSS
        20 000164   000000 011000                    NOP     0

       86     1230    3               CALL FETCHNS_6('DA-SN   ') ALTRET(TERM_ALL);

   1230 20 000165   000006 630400 21                 EPPR0   6
        20 000166   000001 631400 21                 EPPR1   1
        20 000167   000000 701000 xent               TSX1    FETCHNS_6
        20 000170   000175 702000 20                 TSX2    TERM_ALL

       87     1231    3               END;

   1231 20 000171   200166 236100                    LDQ     STYPE,,AUTO
        20 000172   000175 604000 20                 TMI     TERM_ALL
        20 000173   000424 116000 18                 CMPQ    UWA+276
        20 000174   000163 600000 20                 TZE     s:1229

       88     1232    2   TERM_ALL:
       89     1233    3           IF START = 0 THEN DO;

   1233 20 000175   200005 235100       TERM_ALL     LDA     START,,AUTO
        20 000176   000236 601000 20                 TNZ     s:1239

       90     1234    3               OL = ' ';

   1234 20 000177   040100 100400                    MLR     fill='040'O
        20 000200   000000 000001 21                 ADSC9   0                        cn=0,n=1
        20 000201   200126 000200                    ADSC9   OL,,AUTO                 cn=0,n=128

       91     1235    3               CALL LIST(OL);
PL6.E3A0      #001=PRINTAS File=ZIG$DDY4.:ZIC0TSI                                FRI 09/05/97 11:54 Page:20

   1235 20 000202   200126 630500                    EPPR0   OL,,AUTO
        20 000203   200206 450500                    STP0    DBKEY+1,,AUTO
        20 000204   200206 630500                    EPPR0   DBKEY+1,,AUTO
        20 000205   000001 631400 21                 EPPR1   1
        20 000206   000000 701000 xent               TSX1    LIST
        20 000207   000000 011000                    NOP     0

       92     1236    3               CALL CONCAT(OL,'THE SCHEMA DICTIONARY DOES NOT CONTAIN A ',ELEMENT,
              1236                        'NAME.');

   1236 20 000210   040100 100400                    MLR     fill='040'O
        20 000211   000021 000051 19                 ADSC9   17                       cn=0,n=41
        20 000212   200126 000051                    ADSC9   OL,,AUTO                 cn=0,n=41
        20 000213   200167 470500                    LDP0    ELEM$,,AUTO
        20 000214   200170 720100                    LXL0    ELEM_LEN,,AUTO
        20 000215   040100 100540                    MLR     fill='040'O
        20 000216   000000 000010                    ADSC9   0,,PR0                   cn=0,n=*X0
        20 000217   200140 200127                    ADSC9   OL+10,,AUTO              cn=1,n=87
        20 000220   200170 236100                    LDQ     ELEM_LEN,,AUTO
        20 000221   000127 116007                    CMPQ    87,DL
        20 000222   000230 603000 20                 TRC     s:1237
        20 000223   777650 621006                    EAX1    -88,QL
        20 000224   777777 661003                    ERX1    -1,DU
        20 000225   040146 100400                    MLR     fill='040'O
        20 000226   000034 000005 19                 ADSC9   28                       cn=0,n=5
        20 000227   200140 200011                    ADSC9   OL+10,Q,AUTO             cn=1,n=*X1

       93     1237    3               CALL LIST(OL);

   1237 20 000230   200126 631500                    EPPR1   OL,,AUTO
        20 000231   200206 451500                    STP1    DBKEY+1,,AUTO
        20 000232   200206 630500                    EPPR0   DBKEY+1,,AUTO
        20 000233   000001 631400 21                 EPPR1   1
        20 000234   000000 701000 xent               TSX1    LIST
        20 000235   000000 011000                    NOP     0

PL6.E3A0      #001=PRINTAS File=ZIG$DDY4.:ZIC0TSI                                FRI 09/05/97 11:54 Page:21
       94     1238    3               END;

       95     1239    2           RETURN;

   1239 20 000236   000000 702200 xent               TSX2  ! X66_ARET

       96     1240    2           END;
       97     1241    1       IF TYPE = 5 AND UWA.RECORD_NAME ~= ' ' THEN

   1241 20 000237   200004 471500                    LDP1    @TYPE,,AUTO
        20 000240   100000 235100                    LDA     0,,PR1
        20 000241   000005 115007                    CMPA    5,DL
        20 000242   000334 601000 20                 TNZ     s:1256
        20 000243   040000 106400                    CMPC    fill='040'O
        20 000244   000023 000036 18                 ADSC9   UWA+19                   cn=0,n=30
        20 000245   000000 000001 21                 ADSC9   0                        cn=0,n=1
        20 000246   000334 600000 20                 TZE     s:1256

       98     1242    2       DO;

       99     1243    2           CALL FSERCHD(UWA.RECORD_NAME,NAME) ALTRET(GOT_QFR);

   1243 20 000247   200003 236100                    LDQ     @NAME,,AUTO
        20 000250   200200 756100                    STQ     @RNAME+1,,AUTO
        20 000251   000007 236000 21                 LDQ     7
        20 000252   200177 756100                    STQ     SI_LINE+5,,AUTO
        20 000253   001423 701000 20                 TSX1    FSERCHD
        20 000254   000331 702000 20                 TSX2    GOT_QFR

      100     1244    2           CALL QTE(NAME);

   1244 20 000255   200003 236100                    LDQ     @NAME,,AUTO
        20 000256   200201 756100                    STQ     @FNAME+1,,AUTO
        20 000257   001472 701000 20                 TSX1    QTE
        20 000260   000000 011000                    NOP     0

      101     1245    2           TEMP_LEN = CHR_LEN;
PL6.E3A0      #001=PRINTAS File=ZIG$DDY4.:ZIC0TSI                                FRI 09/05/97 11:54 Page:22

   1245 20 000261   200074 235100                    LDA     CHR_LEN,,AUTO
        20 000262   200010 755100                    STA     TEMP_LEN,,AUTO

      102     1246    2           TEMP64 = CHR;

   1246 20 000263   200075 470500                    LDP0    CHR$,,AUTO
        20 000264   000000 620005                    EAX0    0,AL
        20 000265   040100 100540                    MLR     fill='040'O
        20 000266   000000 000010                    ADSC9   0,,PR0                   cn=0,n=*X0
        20 000267   200054 000100                    ADSC9   TEMP64,,AUTO             cn=0,n=64

      103     1247    2           CALL QTE(UWA.RECORD_NAME);

   1247 20 000270   000007 236000 21                 LDQ     7
        20 000271   200201 756100                    STQ     @FNAME+1,,AUTO
        20 000272   001472 701000 20                 TSX1    QTE
        20 000273   000000 011000                    NOP     0

      104     1248    2           CALL CONCAT(OL,'THE SCHEMA FIELD ', TEMP64, ' IN ',CHR,
              1248                    ' IS NOT IN THE SCHEMA DICTIONARY.');

   1248 20 000274   040100 100400                    MLR     fill='040'O
        20 000275   000036 000021 19                 ADSC9   30                       cn=0,n=17
        20 000276   200126 000021                    ADSC9   OL,,AUTO                 cn=0,n=17
        20 000277   040100 100500                    MLR     fill='040'O
        20 000300   200054 000100                    ADSC9   TEMP64,,AUTO             cn=0,n=64
        20 000301   200132 200100                    ADSC9   OL+4,,AUTO               cn=1,n=64
        20 000302   040100 100400                    MLR     fill='040'O
        20 000303   000043 000004 19                 ADSC9   35                       cn=0,n=4
        20 000304   200152 200004                    ADSC9   OL+20,,AUTO              cn=1,n=4
        20 000305   200075 470500                    LDP0    CHR$,,AUTO
        20 000306   200074 720100                    LXL0    CHR_LEN,,AUTO
        20 000307   040100 100540                    MLR     fill='040'O
        20 000310   000000 000010                    ADSC9   0,,PR0                   cn=0,n=*X0
        20 000311   200153 200053                    ADSC9   OL+21,,AUTO              cn=1,n=43
        20 000312   200074 236100                    LDQ     CHR_LEN,,AUTO
PL6.E3A0      #001=PRINTAS File=ZIG$DDY4.:ZIC0TSI                                FRI 09/05/97 11:54 Page:23
        20 000313   000053 116007                    CMPQ    43,DL
        20 000314   000322 603000 20                 TRC     s:1249
        20 000315   777724 621006                    EAX1    -44,QL
        20 000316   777777 661003                    ERX1    -1,DU
        20 000317   040146 100400                    MLR     fill='040'O
        20 000320   000044 000041 19                 ADSC9   36                       cn=0,n=33
        20 000321   200153 200011                    ADSC9   OL+21,Q,AUTO             cn=1,n=*X1

      105     1249    2           CALL LIST(OL);

   1249 20 000322   200126 631500                    EPPR1   OL,,AUTO
        20 000323   200206 451500                    STP1    DBKEY+1,,AUTO
        20 000324   200206 630500                    EPPR0   DBKEY+1,,AUTO
        20 000325   000001 631400 21                 EPPR1   1
        20 000326   000000 701000 xent               TSX1    LIST
        20 000327   000000 011000                    NOP     0

      106     1250    2           RETURN;

   1250 20 000330   000000 702200 xent               TSX2  ! X66_ARET

      107     1251    2   GOT_QFR:
      108     1252    2           CALL LSTSS;

   1252 20 000331   000446 701000 20    GOT_QFR      TSX1    LSTSS
        20 000332   000000 011000                    NOP     0

      109     1253    2           RETURN;

   1253 20 000333   000000 702200 xent               TSX2  ! X66_ARET

      110     1254    2           END;
      111     1255    2       ELSE DO;

      112     1256    2           CALL SERCHD(NAME,TYPE) ALTRET(GOT_NAME);

   1256 20 000334   200004 236100                    LDQ     @TYPE,,AUTO
PL6.E3A0      #001=PRINTAS File=ZIG$DDY4.:ZIC0TSI                                FRI 09/05/97 11:54 Page:24
        20 000335   200204 756100                    STQ     @NAME+1,,AUTO
        20 000336   200003 236100                    LDQ     @NAME,,AUTO
        20 000337   200203 756100                    STQ     @CST+2,,AUTO
        20 000340   001321 701000 20                 TSX1    SERCHD
        20 000341   000413 702000 20                 TSX2    GOT_NAME

      113     1257    2           CALL QTE(NAME);

   1257 20 000342   200003 236100                    LDQ     @NAME,,AUTO
        20 000343   200201 756100                    STQ     @FNAME+1,,AUTO
        20 000344   001472 701000 20                 TSX1    QTE
        20 000345   000000 011000                    NOP     0

      114     1258    2          CALL CONCAT(OL,'THE SCHEMA ',ELEMENT,CHR,' IS NOT IN THE SCHEMA DICTIONARY.'
              1258                    );

   1258 20 000346   040100 100400                    MLR     fill='040'O
        20 000347   000021 000013 19                 ADSC9   17                       cn=0,n=11
        20 000350   200126 000013                    ADSC9   OL,,AUTO                 cn=0,n=11
        20 000351   200167 470500                    LDP0    ELEM$,,AUTO
        20 000352   200170 720100                    LXL0    ELEM_LEN,,AUTO
        20 000353   040100 100540                    MLR     fill='040'O
        20 000354   000000 000010                    ADSC9   0,,PR0                   cn=0,n=*X0
        20 000355   200130 600165                    ADSC9   OL+2,,AUTO               cn=3,n=117
        20 000356   200170 236100                    LDQ     ELEM_LEN,,AUTO
        20 000357   000165 116007                    CMPQ    117,DL
        20 000360   000404 603000 20                 TRC     s:1259
        20 000361   777612 621006                    EAX1    -118,QL
        20 000362   777777 661003                    ERX1    -1,DU
        20 000363   200075 471500                    LDP1    CHR$,,AUTO
        20 000364   200074 722100                    LXL2    CHR_LEN,,AUTO
        20 000365   040146 100540                    MLR     fill='040'O
        20 000366   100000 000012                    ADSC9   0,,PR1                   cn=0,n=*X2
        20 000367   200130 600011                    ADSC9   OL+2,Q,AUTO              cn=3,n=*X1
        20 000370   200074 036100                    ADLQ    CHR_LEN,,AUTO
        20 000371   000165 116007                    CMPQ    117,DL
        20 000372   000404 603000 20                 TRC     s:1259
PL6.E3A0      #001=PRINTAS File=ZIG$DDY4.:ZIC0TSI                                FRI 09/05/97 11:54 Page:25
        20 000373   200206 756100                    STQ     DBKEY+1,,AUTO
        20 000374   200170 236100                    LDQ     ELEM_LEN,,AUTO
        20 000375   200074 036100                    ADLQ    CHR_LEN,,AUTO
        20 000376   200206 723100                    LXL3    DBKEY+1,,AUTO
        20 000377   777612 623013                    EAX3    -118,X3
        20 000400   777777 663003                    ERX3    -1,DU
        20 000401   040146 100400                    MLR     fill='040'O
        20 000402   000044 000041 19                 ADSC9   36                       cn=0,n=33
        20 000403   200130 600013                    ADSC9   OL+2,Q,AUTO              cn=3,n=*X3

      115     1259    2           CALL LIST(OL);

   1259 20 000404   200126 631500                    EPPR1   OL,,AUTO
        20 000405   200206 451500                    STP1    DBKEY+1,,AUTO
        20 000406   200206 630500                    EPPR0   DBKEY+1,,AUTO
        20 000407   000001 631400 21                 EPPR1   1
        20 000410   000000 701000 xent               TSX1    LIST
        20 000411   000000 011000                    NOP     0

      116     1260    2           RETURN;

   1260 20 000412   000000 702200 xent               TSX2  ! X66_ARET

      117     1261    2   GOT_NAME:
      118     1262    2           CALL LSTSS;

   1262 20 000413   000446 701000 20    GOT_NAME     TSX1    LSTSS
        20 000414   000000 011000                    NOP     0

      119     1263    2           IF TYPE ~= 5 THEN RETURN;

   1263 20 000415   200004 470500                    LDP0    @TYPE,,AUTO
        20 000416   000000 235100                    LDA     0,,PR0
        20 000417   000005 115007                    CMPA    5,DL
        20 000420   000422 600000 20                 TZE     s:1264

   1263 20 000421   000000 702200 xent               TSX2  ! X66_ARET
PL6.E3A0      #001=PRINTAS File=ZIG$DDY4.:ZIC0TSI                                FRI 09/05/97 11:54 Page:26

      120     1264    2           CALL FETCHNS_6('DA-SN   ') ALTRET(TERM_GOT_NAME);

   1264 20 000422   000006 630400 21                 EPPR0   6
        20 000423   000001 631400 21                 EPPR1   1
        20 000424   000000 701000 xent               TSX1    FETCHNS_6
        20 000425   000445 702000 20                 TSX2    TERM_GOT_NAME

      121     1265    3           DO WHILE(UWA.SN.SENAME = NAME AND UWA.SN.SETYPE = 50);

   1265 20 000426   000435 710000 20                 TRA     s:1268

      122     1266    3               CALL LSTSS;

   1266 20 000427   000446 701000 20                 TSX1    LSTSS
        20 000430   000000 011000                    NOP     0

      123     1267    3               CALL FETCHNS_6('DA-SN   ') ALTRET(TERM_GOT_NAME);

   1267 20 000431   000006 630400 21                 EPPR0   6
        20 000432   000001 631400 21                 EPPR1   1
        20 000433   000000 701000 xent               TSX1    FETCHNS_6
        20 000434   000445 702000 20                 TSX2    TERM_GOT_NAME

      124     1268    3               END;

   1268 20 000435   200003 470500                    LDP0    @NAME,,AUTO
        20 000436   040100 106400                    CMPC    fill='040'O
        20 000437   000427 000036 18                 ADSC9   UWA+279                  cn=0,n=30
        20 000440   000000 000036                    ADSC9   0,,PR0                   cn=0,n=30
        20 000441   000445 601000 20                 TNZ     TERM_GOT_NAME
        20 000442   000424 235000 18                 LDA     UWA+276
        20 000443   000062 115007                    CMPA    50,DL
        20 000444   000427 600000 20                 TZE     s:1266

      125     1269    2   TERM_GOT_NAME:
      126     1270    2           RETURN;
PL6.E3A0      #001=PRINTAS File=ZIG$DDY4.:ZIC0TSI                                FRI 09/05/97 11:54 Page:27

   1270 20 000445   000000 702200 xent  TERM_GOT_NA* TSX2  ! X66_ARET

      127     1271    2           END;
      128     1272    1   LSTSS:

   1272 20 000446   200176 741300       LSTSS        STX1  ! SI_LINE+4,,AUTO

      129     1273    1       PROC;
      130     1274    2       IF SUBSTR(UWA.SN.SENAME,0,1) = '*' THEN RETURN;

   1274 20 000447   000427 236000 18                 LDQ     UWA+279
        20 000450   777000 376003                    ANQ     -512,DU
        20 000451   052000 116003                    CMPQ    21504,DU
        20 000452   000454 601000 20                 TNZ     s:1275

   1274 20 000453   000001 702211                    TSX2  ! 1,X1

      131     1275    2       CALL QTE(UWA.SN.SENAME);

   1275 20 000454   000010 236000 21                 LDQ     8
        20 000455   200201 756100                    STQ     @FNAME+1,,AUTO
        20 000456   001472 701000 20                 TSX1    QTE
        20 000457   000000 011000                    NOP     0

      132     1276    2       PNAME_LEN = CHR_LEN;

   1276 20 000460   200074 235100                    LDA     CHR_LEN,,AUTO
        20 000461   200012 755100                    STA     PNAME_LEN,,AUTO

      133     1277    2       PNAME = CHR;

   1277 20 000462   200075 470500                    LDP0    CHR$,,AUTO
        20 000463   000000 620005                    EAX0    0,AL
        20 000464   200013 471500                    LDP1    PNAME$,,AUTO
        20 000465   200012 721100                    LXL1    PNAME_LEN,,AUTO
        20 000466   040140 100540                    MLR     fill='040'O
PL6.E3A0      #001=PRINTAS File=ZIG$DDY4.:ZIC0TSI                                FRI 09/05/97 11:54 Page:28
        20 000467   000000 000010                    ADSC9   0,,PR0                   cn=0,n=*X0
        20 000470   100000 000011                    ADSC9   0,,PR1                   cn=0,n=*X1

      134     1278    3       IF TYPE = 5 THEN DO;

   1278 20 000471   200004 473500                    LDP3    @TYPE,,AUTO
        20 000472   300000 235100                    LDA     0,,PR3
        20 000473   000005 115007                    CMPA    5,DL
        20 000474   000617 601000 20                 TNZ     s:1299

      135     1279    3           CALL FCURR_R_6('SN  ') ALTRET(DBCS_ERR);

   1279 20 000475   000005 630400 21                 EPPR0   5
        20 000476   000001 631400 21                 EPPR1   1
        20 000477   000000 701000 xent               TSX1    FCURR_R_6
        20 000500   001224 702000 20                 TSX2    DBCS_ERR

      136     1280    3           HOLD_PLACE = UWA.DIRECT_REF;

   1280 20 000501   000036 235000 18                 LDA     UWA+30
        20 000502   200171 755100                    STA     HOLD_PLACE,,AUTO

      137     1281    3           CALL FETCHNS_6('SN-SE   ') ALTRET(DBCS_ERR);

   1281 20 000503   000011 630400 21                 EPPR0   9
        20 000504   000001 631400 21                 EPPR1   1
        20 000505   000000 701000 xent               TSX1    FETCHNS_6
        20 000506   001224 702000 20                 TSX2    DBCS_ERR

      138     1282    3           CALL FETCHOS_6('RC-FR   ') ALTRET(DBCS_ERR);

   1282 20 000507   000012 630400 21                 EPPR0   10
        20 000510   000001 631400 21                 EPPR1   1
        20 000511   000000 701000 xent               TSX1    FETCHOS_6
        20 000512   001224 702000 20                 TSX2    DBCS_ERR

      139     1283    3           CALL FETCHOS_6('SN-SE   ') ALTRET(DBCS_ERR);
PL6.E3A0      #001=PRINTAS File=ZIG$DDY4.:ZIC0TSI                                FRI 09/05/97 11:54 Page:29

   1283 20 000513   000011 630400 21                 EPPR0   9
        20 000514   000001 631400 21                 EPPR1   1
        20 000515   000000 701000 xent               TSX1    FETCHOS_6
        20 000516   001224 702000 20                 TSX2    DBCS_ERR

      140     1284    4           IF UWA.SN.SENAME = '*DBPARAM' THEN DO;

   1284 20 000517   040000 106400                    CMPC    fill='040'O
        20 000520   000427 000036 18                 ADSC9   UWA+279                  cn=0,n=30
        20 000521   000061 000010 19                 ADSC9   49                       cn=0,n=8
        20 000522   000533 601000 20                 TNZ     s:1289

      141     1285    4               ELEM_LEN = 20;

   1285 20 000523   000024 235007                    LDA     20,DL
        20 000524   200170 755100                    STA     ELEM_LEN,,AUTO

      142     1286    4               ELEMENT = 'DATA BASE PARAMETER ';

   1286 20 000525   200167 470500                    LDP0    ELEM$,,AUTO
        20 000526   000000 620005                    EAX0    0,AL
        20 000527   040140 100400                    MLR     fill='040'O
        20 000530   000063 000024 19                 ADSC9   51                       cn=0,n=20
        20 000531   000000 000010                    ADSC9   0,,PR0                   cn=0,n=*X0

      143     1287    4               END;

   1287 20 000532   000607 710000 20                 TRA     s:1297

      144     1288    4           ELSE DO;

      145     1289    4               CALL QTE(UWA.SN.SENAME);

   1289 20 000533   000010 236000 21                 LDQ     8
        20 000534   200201 756100                    STQ     @FNAME+1,,AUTO
        20 000535   001472 701000 20                 TSX1    QTE
PL6.E3A0      #001=PRINTAS File=ZIG$DDY4.:ZIC0TSI                                FRI 09/05/97 11:54 Page:30
        20 000536   000000 011000                    NOP     0

      146     1290    4               TEMP_LEN = PNAME_LEN;

   1290 20 000537   200012 235100                    LDA     PNAME_LEN,,AUTO
        20 000540   200010 755100                    STA     TEMP_LEN,,AUTO

      147     1291    4               TEMP = PNAME;

   1291 20 000541   200013 470500                    LDP0    PNAME$,,AUTO
        20 000542   000000 620005                    EAX0    0,AL
        20 000543   200011 471500                    LDP1    TEMP$,,AUTO
        20 000544   200010 721100                    LXL1    TEMP_LEN,,AUTO
        20 000545   040140 100540                    MLR     fill='040'O
        20 000546   000000 000010                    ADSC9   0,,PR0                   cn=0,n=*X0
        20 000547   100000 000011                    ADSC9   0,,PR1                   cn=0,n=*X1

      148     1292    4               PNAME_LEN = PNAME_LEN + 4 + CHR_LEN;

   1292 20 000550   200012 236100                    LDQ     PNAME_LEN,,AUTO
        20 000551   200074 036100                    ADLQ    CHR_LEN,,AUTO
        20 000552   000004 036007                    ADLQ    4,DL
        20 000553   200012 756100                    STQ     PNAME_LEN,,AUTO

      149     1293    4               CALL CONCAT(PNAME,TEMP,' IN ',CHR);

   1293 20 000554   000000 620006                    EAX0    0,QL
        20 000555   040140 100540                    MLR     fill='040'O
        20 000556   100000 000011                    ADSC9   0,,PR1                   cn=0,n=*X1
        20 000557   000000 000010                    ADSC9   0,,PR0                   cn=0,n=*X0
        20 000560   200012 236100                    LDQ     PNAME_LEN,,AUTO
        20 000561   200010 136100                    SBLQ    TEMP_LEN,,AUTO
        20 000562   000600 604400 20                 TMOZ    s:1294
        20 000563   000000 620006                    EAX0    0,QL
        20 000564   200010 235100                    LDA     TEMP_LEN,,AUTO
        20 000565   040145 100400                    MLR     fill='040'O
        20 000566   000043 000004 19                 ADSC9   35                       cn=0,n=4
PL6.E3A0      #001=PRINTAS File=ZIG$DDY4.:ZIC0TSI                                FRI 09/05/97 11:54 Page:31
        20 000567   000000 000010                    ADSC9   0,A,PR0                  cn=0,n=*X0
        20 000570   000004 116007                    CMPQ    4,DL
        20 000571   000600 604400 20                 TMOZ    s:1294
        20 000572   777774 620006                    EAX0    -4,QL
        20 000573   200075 473500                    LDP3    CHR$,,AUTO
        20 000574   200074 722100                    LXL2    CHR_LEN,,AUTO
        20 000575   040145 100540                    MLR     fill='040'O
        20 000576   300000 000012                    ADSC9   0,,PR3                   cn=0,n=*X2
        20 000577   000001 000010                    ADSC9   1,A,PR0                  cn=0,n=*X0

      150     1294    4               ELEM_LEN = 6;

   1294 20 000600   000006 235007                    LDA     6,DL
        20 000601   200170 755100                    STA     ELEM_LEN,,AUTO

      151     1295    4               ELEMENT = 'FIELD ';

   1295 20 000602   200167 473500                    LDP3    ELEM$,,AUTO
        20 000603   000000 620005                    EAX0    0,AL
        20 000604   040140 100400                    MLR     fill='040'O
        20 000605   000070 000006 19                 ADSC9   56                       cn=0,n=6
        20 000606   300000 000010                    ADSC9   0,,PR3                   cn=0,n=*X0

      152     1296    4               END;

      153     1297    3           CALL FETCHD_6('SN  ',HOLD_PLACE) ALTRET(DBCS_ERR);

   1297 20 000607   200171 630500                    EPPR0   HOLD_PLACE,,AUTO
        20 000610   200207 450500                    STP0    DBKEY+2,,AUTO
        20 000611   000005 236000 21                 LDQ     5
        20 000612   200206 756100                    STQ     DBKEY+1,,AUTO
        20 000613   200206 630500                    EPPR0   DBKEY+1,,AUTO
        20 000614   000002 631400 21                 EPPR1   2
        20 000615   000000 701000 xent               TSX1    FETCHD_6
        20 000616   001224 702000 20                 TSX2    DBCS_ERR

      154     1298    3           END;
PL6.E3A0      #001=PRINTAS File=ZIG$DDY4.:ZIC0TSI                                FRI 09/05/97 11:54 Page:32

      155     1299    2       OL = ' ';

   1299 20 000617   040100 100400                    MLR     fill='040'O
        20 000620   000000 000001 21                 ADSC9   0                        cn=0,n=1
        20 000621   200126 000200                    ADSC9   OL,,AUTO                 cn=0,n=128

      156     1300    2       CALL LIST(OL);

   1300 20 000622   200126 630500                    EPPR0   OL,,AUTO
        20 000623   200206 450500                    STP0    DBKEY+1,,AUTO
        20 000624   200206 630500                    EPPR0   DBKEY+1,,AUTO
        20 000625   000001 631400 21                 EPPR1   1
        20 000626   000000 701000 xent               TSX1    LIST
        20 000627   000000 011000                    NOP     0

      157     1301    2       CALL FETCHNS_6('SN-SI   ') ALTRET(NO_REFS);

   1301 20 000630   000013 630400 21                 EPPR0   11
        20 000631   000001 631400 21                 EPPR1   1
        20 000632   000000 701000 xent               TSX1    FETCHNS_6
        20 000633   001156 702000 20                 TSX2    NO_REFS

      158     1302    2       UWA.AL.DBKEY_SI = UWA.DIRECT_REF;

   1302 20 000634   000036 235000 18                 LDA     UWA+30
        20 000635   000164 755000 18                 STA     UWA+116

      159     1303    2       CALL FETCHOS_6('AS-SI   ') ALTRET(DBCS_ERR);

   1303 20 000636   000014 630400 21                 EPPR0   12
        20 000637   000001 631400 21                 EPPR1   1
        20 000640   000000 701000 xent               TSX1    FETCHOS_6
        20 000641   001224 702000 20                 TSX2    DBCS_ERR

      160     1304    2       OL = ' ';

PL6.E3A0      #001=PRINTAS File=ZIG$DDY4.:ZIC0TSI                                FRI 09/05/97 11:54 Page:33
   1304 20 000642   040100 100400                    MLR     fill='040'O
        20 000643   000000 000001 21                 ADSC9   0                        cn=0,n=1
        20 000644   200126 000200                    ADSC9   OL,,AUTO                 cn=0,n=128

      161     1305    2       CALL LIST(OL);

   1305 20 000645   200126 630500                    EPPR0   OL,,AUTO
        20 000646   200206 450500                    STP0    DBKEY+1,,AUTO
        20 000647   200206 630500                    EPPR0   DBKEY+1,,AUTO
        20 000650   000001 631400 21                 EPPR1   1
        20 000651   000000 701000 xent               TSX1    LIST
        20 000652   000000 011000                    NOP     0

      162     1306    2       CALL CONCAT(OL,'THE SCHEMA ',ELEMENT,PNAME,' IS REFERENCED BY SUBSCHEMA(S):');

   1306 20 000653   040100 100400                    MLR     fill='040'O
        20 000654   000021 000013 19                 ADSC9   17                       cn=0,n=11
        20 000655   200126 000013                    ADSC9   OL,,AUTO                 cn=0,n=11
        20 000656   200167 470500                    LDP0    ELEM$,,AUTO
        20 000657   200170 720100                    LXL0    ELEM_LEN,,AUTO
        20 000660   040100 100540                    MLR     fill='040'O
        20 000661   000000 000010                    ADSC9   0,,PR0                   cn=0,n=*X0
        20 000662   200130 600165                    ADSC9   OL+2,,AUTO               cn=3,n=117
        20 000663   200170 236100                    LDQ     ELEM_LEN,,AUTO
        20 000664   000165 116007                    CMPQ    117,DL
        20 000665   000711 603000 20                 TRC     s:1307
        20 000666   777612 621006                    EAX1    -118,QL
        20 000667   777777 661003                    ERX1    -1,DU
        20 000670   200013 471500                    LDP1    PNAME$,,AUTO
        20 000671   200012 722100                    LXL2    PNAME_LEN,,AUTO
        20 000672   040146 100540                    MLR     fill='040'O
        20 000673   100000 000012                    ADSC9   0,,PR1                   cn=0,n=*X2
        20 000674   200130 600011                    ADSC9   OL+2,Q,AUTO              cn=3,n=*X1
        20 000675   200012 036100                    ADLQ    PNAME_LEN,,AUTO
        20 000676   000165 116007                    CMPQ    117,DL
        20 000677   000711 603000 20                 TRC     s:1307
        20 000700   200206 756100                    STQ     DBKEY+1,,AUTO
PL6.E3A0      #001=PRINTAS File=ZIG$DDY4.:ZIC0TSI                                FRI 09/05/97 11:54 Page:34
        20 000701   200170 236100                    LDQ     ELEM_LEN,,AUTO
        20 000702   200012 036100                    ADLQ    PNAME_LEN,,AUTO
        20 000703   200206 723100                    LXL3    DBKEY+1,,AUTO
        20 000704   777612 623013                    EAX3    -118,X3
        20 000705   777777 663003                    ERX3    -1,DU
        20 000706   040146 100400                    MLR     fill='040'O
        20 000707   000076 000037 19                 ADSC9   62                       cn=0,n=31
        20 000710   200130 600013                    ADSC9   OL+2,Q,AUTO              cn=3,n=*X3

      163     1307    2       CALL LIST(OL);

   1307 20 000711   200126 631500                    EPPR1   OL,,AUTO
        20 000712   200206 451500                    STP1    DBKEY+1,,AUTO
        20 000713   200206 630500                    EPPR0   DBKEY+1,,AUTO
        20 000714   000001 631400 21                 EPPR1   1
        20 000715   000000 701000 xent               TSX1    LIST
        20 000716   000000 011000                    NOP     0

      164     1308    2       OL = ' ';

   1308 20 000717   040100 100400                    MLR     fill='040'O
        20 000720   000000 000001 21                 ADSC9   0                        cn=0,n=1
        20 000721   200126 000200                    ADSC9   OL,,AUTO                 cn=0,n=128

      165     1309    2       CALL LIST(OL);

   1309 20 000722   200126 630500                    EPPR0   OL,,AUTO
        20 000723   200206 450500                    STP0    DBKEY+1,,AUTO
        20 000724   200206 630500                    EPPR0   DBKEY+1,,AUTO
        20 000725   000001 631400 21                 EPPR1   1
        20 000726   000000 701000 xent               TSX1    LIST
        20 000727   000000 011000                    NOP     0

      166     1310    2   NEXT_REF:
      167     1311    2       CALL SET_FIELD_NUM(1,UWA.SI.LI_NE);

   1311 20 000730   000016 630400 21    NEXT_REF     EPPR0   14
PL6.E3A0      #001=PRINTAS File=ZIG$DDY4.:ZIC0TSI                                FRI 09/05/97 11:54 Page:35
        20 000731   000002 631400 21                 EPPR1   2
        20 000732   000000 701000 xent               TSX1    SET_FIELD_NUM
        20 000733   000000 011000                    NOP     0

      168     1312    2       CALL LANGT(UWA.AS.SS_LANG);

   1312 20 000734   000020 236000 21                 LDQ     16
        20 000735   200201 756100                    STQ     @FNAME+1,,AUTO
        20 000736   001235 701000 20                 TSX1    LANGT
        20 000737   000000 011000                    NOP     0

      169     1313    2       CALL QTE(UWA.AS.SS_NAME);

   1313 20 000740   000021 236000 21                 LDQ     17
        20 000741   200201 756100                    STQ     @FNAME+1,,AUTO
        20 000742   001472 701000 20                 TSX1    QTE
        20 000743   000000 011000                    NOP     0

      170     1314    2       TEMP88_LEN = LANG_LEN + 10 + CHR_LEN + 16 + FIELD1.COUNT1 + 3;

   1314 20 000744   200006 236100                    LDQ     LANG_LEN,,AUTO
        20 000745   200074 036100                    ADLQ    CHR_LEN,,AUTO
        20 000746   200206 756100                    STQ     DBKEY+1,,AUTO
        20 000747   000000 236000 0                  LDQ     FIELD1
        20 000750   000033 772000                    QRL     27
        20 000751   200207 756100                    STQ     DBKEY+2,,AUTO
        20 000752   200206 236100                    LDQ     DBKEY+1,,AUTO
        20 000753   200207 036100                    ADLQ    DBKEY+2,,AUTO
        20 000754   000035 036007                    ADLQ    29,DL
        20 000755   200076 756100                    STQ     TEMP88_LEN,,AUTO

      171     1315    2      CALL CONCAT(TEMP88,LANG,'SUBSCHEMA ',CHR,', REFERENCE LINE ',SUBSTR(FIELD1.TEXT1
              1315                ,0,FIELD1.COUNT1),'.  ');

   1315 20 000756   000000 236000 0                  LDQ     FIELD1
        20 000757   000033 772000                    QRL     27
        20 000760   200007 470500                    LDP0    LANG$,,AUTO
PL6.E3A0      #001=PRINTAS File=ZIG$DDY4.:ZIC0TSI                                FRI 09/05/97 11:54 Page:36
        20 000761   200006 720100                    LXL0    LANG_LEN,,AUTO
        20 000762   200077 471500                    LDP1    TEMP88$,,AUTO
        20 000763   200076 721100                    LXL1    TEMP88_LEN,,AUTO
        20 000764   040140 100540                    MLR     fill='040'O
        20 000765   000000 000010                    ADSC9   0,,PR0                   cn=0,n=*X0
        20 000766   100000 000011                    ADSC9   0,,PR1                   cn=0,n=*X1
        20 000767   000000 622006                    EAX2    0,QL
        20 000770   200076 236100                    LDQ     TEMP88_LEN,,AUTO
        20 000771   200006 136100                    SBLQ    LANG_LEN,,AUTO
        20 000772   001053 604400 20                 TMOZ    s:1316
        20 000773   000000 623006                    EAX3    0,QL
        20 000774   200006 235100                    LDA     LANG_LEN,,AUTO
        20 000775   040145 100400                    MLR     fill='040'O
        20 000776   000106 000012 19                 ADSC9   70                       cn=0,n=10
        20 000777   100000 000013                    ADSC9   0,A,PR1                  cn=0,n=*X3
        20 001000   000012 116007                    CMPQ    10,DL
        20 001001   001053 604400 20                 TMOZ    s:1316
        20 001002   777766 623006                    EAX3    -10,QL
        20 001003   200075 473500                    LDP3    CHR$,,AUTO
        20 001004   200074 724100                    LXL4    CHR_LEN,,AUTO
        20 001005   040145 100540                    MLR     fill='040'O
        20 001006   300000 000014                    ADSC9   0,,PR3                   cn=0,n=*X4
        20 001007   100002 400013                    ADSC9   2,A,PR1                  cn=2,n=*X3
        20 001010   200074 136100                    SBLQ    CHR_LEN,,AUTO
        20 001011   000012 116007                    CMPQ    10,DL
        20 001012   001053 604400 20                 TMOZ    s:1316
        20 001013   200206 756100                    STQ     DBKEY+1,,AUTO
        20 001014   200006 236100                    LDQ     LANG_LEN,,AUTO
        20 001015   200074 036100                    ADLQ    CHR_LEN,,AUTO
        20 001016   200206 723100                    LXL3    DBKEY+1,,AUTO
        20 001017   777766 625013                    EAX5    -10,X3
        20 001020   040146 100400                    MLR     fill='040'O
        20 001021   000111 000021 19                 ADSC9   73                       cn=0,n=17
        20 001022   100002 400015                    ADSC9   2,Q,PR1                  cn=2,n=*X5
        20 001023   200207 756100                    STQ     DBKEY+2,,AUTO
        20 001024   200206 236100                    LDQ     DBKEY+1,,AUTO
        20 001025   000033 116007                    CMPQ    27,DL
PL6.E3A0      #001=PRINTAS File=ZIG$DDY4.:ZIC0TSI                                FRI 09/05/97 11:54 Page:37
        20 001026   001053 604400 20                 TMOZ    s:1316
        20 001027   777745 626006                    EAX6    -27,QL
        20 001030   200207 235100                    LDA     DBKEY+2,,AUTO
        20 001031   040145 100440                    MLR     fill='040'O
        20 001032   000000 200012 0                  ADSC9   FIELD1                   cn=1,n=*X2
        20 001033   100006 600016                    ADSC9   6,A,PR1                  cn=3,n=*X6
        20 001034   000000 635012                    EAA     0,X2
        20 001035   000022 771000                    ARL     18
        20 001036   200210 755100                    STA     DBKEY+3,,AUTO
        20 001037   200210 136100                    SBLQ    DBKEY+3,,AUTO
        20 001040   000033 116007                    CMPQ    27,DL
        20 001041   001053 604400 20                 TMOZ    s:1316
        20 001042   200211 756100                    STQ     DBKEY+4,,AUTO
        20 001043   000000 636012                    EAQ     0,X2
        20 001044   000022 772000                    QRL     18
        20 001045   200207 036100                    ADLQ    DBKEY+2,,AUTO
        20 001046   200211 722100                    LXL2    DBKEY+4,,AUTO
        20 001047   777745 627012                    EAX7    -27,X2
        20 001050   040146 100400                    MLR     fill='040'O
        20 001051   000035 000003 19                 ADSC9   29                       cn=0,n=3
        20 001052   100006 600017                    ADSC9   6,Q,PR1                  cn=3,n=*X7

      172     1316    3       IF UWA.SI.A_LIAS ~= 0 THEN DO;

   1316 20 001053   000153 235000 18                 LDA     UWA+107
        20 001054   001130 600000 20                 TZE     s:1321

      173     1317    3           CALL FETCHC_6('AL  ') ALTRET(DBCS_ERR);

   1317 20 001055   000022 630400 21                 EPPR0   18
        20 001056   000001 631400 21                 EPPR1   1
        20 001057   000000 701000 xent               TSX1    FETCHC_6
        20 001060   001224 702000 20                 TSX2    DBCS_ERR

      174     1318    3           CALL QTE(UWA.AL.ANAME);

   1318 20 001061   000023 236000 21                 LDQ     19
PL6.E3A0      #001=PRINTAS File=ZIG$DDY4.:ZIC0TSI                                FRI 09/05/97 11:54 Page:38
        20 001062   200201 756100                    STQ     @FNAME+1,,AUTO
        20 001063   001472 701000 20                 TSX1    QTE
        20 001064   000000 011000                    NOP     0

      175     1319    3           CALL CONCAT(OL,TEMP88,'ALIAS NAME IS ',CHR,'.');

   1319 20 001065   200077 470500                    LDP0    TEMP88$,,AUTO
        20 001066   200076 720100                    LXL0    TEMP88_LEN,,AUTO
        20 001067   040100 100540                    MLR     fill='040'O
        20 001070   000000 000010                    ADSC9   0,,PR0                   cn=0,n=*X0
        20 001071   200126 000200                    ADSC9   OL,,AUTO                 cn=0,n=128
        20 001072   200076 236100                    LDQ     TEMP88_LEN,,AUTO
        20 001073   000200 116007                    CMPQ    128,DL
        20 001074   001127 603000 20                 TRC     s:1320
        20 001075   777577 621006                    EAX1    -129,QL
        20 001076   777777 661003                    ERX1    -1,DU
        20 001077   040146 100400                    MLR     fill='040'O
        20 001100   000117 000016 19                 ADSC9   79                       cn=0,n=14
        20 001101   200126 000011                    ADSC9   OL,Q,AUTO                cn=0,n=*X1
        20 001102   000162 116007                    CMPQ    114,DL
        20 001103   001127 603000 20                 TRC     s:1320
        20 001104   777615 622006                    EAX2    -115,QL
        20 001105   777777 662003                    ERX2    -1,DU
        20 001106   200075 471500                    LDP1    CHR$,,AUTO
        20 001107   200074 723100                    LXL3    CHR_LEN,,AUTO
        20 001110   040146 100540                    MLR     fill='040'O
        20 001111   100000 000013                    ADSC9   0,,PR1                   cn=0,n=*X3
        20 001112   200131 400012                    ADSC9   OL+3,Q,AUTO              cn=2,n=*X2
        20 001113   200074 036100                    ADLQ    CHR_LEN,,AUTO
        20 001114   000162 116007                    CMPQ    114,DL
        20 001115   001127 603000 20                 TRC     s:1320
        20 001116   200206 756100                    STQ     DBKEY+1,,AUTO
        20 001117   200076 236100                    LDQ     TEMP88_LEN,,AUTO
        20 001120   200074 036100                    ADLQ    CHR_LEN,,AUTO
        20 001121   200206 724100                    LXL4    DBKEY+1,,AUTO
        20 001122   777615 624014                    EAX4    -115,X4
        20 001123   777777 664003                    ERX4    -1,DU
PL6.E3A0      #001=PRINTAS File=ZIG$DDY4.:ZIC0TSI                                FRI 09/05/97 11:54 Page:39
        20 001124   040146 100400                    MLR     fill='040'O
        20 001125   000024 000001 21                 ADSC9   20                       cn=0,n=1
        20 001126   200131 400014                    ADSC9   OL+3,Q,AUTO              cn=2,n=*X4

      176     1320    3           END;

   1320 20 001127   001133 710000 20                 TRA     s:1322

      177     1321    2       ELSE OL = TEMP88;

   1321 20 001130   040100 100540                    MLR     fill='040'O
        20 001131   100000 000011                    ADSC9   0,,PR1                   cn=0,n=*X1
        20 001132   200126 000200                    ADSC9   OL,,AUTO                 cn=0,n=128

      178     1322    2       CALL LIST(OL);

   1322 20 001133   200126 630500                    EPPR0   OL,,AUTO
        20 001134   200206 450500                    STP0    DBKEY+1,,AUTO
        20 001135   200206 630500                    EPPR0   DBKEY+1,,AUTO
        20 001136   000001 631400 21                 EPPR1   1
        20 001137   000000 701000 xent               TSX1    LIST
        20 001140   000000 011000                    NOP     0

      179     1323    2       CALL FETCHNS_6('SN-SI   ') ALTRET(END_SI);

   1323 20 001141   000013 630400 21                 EPPR0   11
        20 001142   000001 631400 21                 EPPR1   1
        20 001143   000000 701000 xent               TSX1    FETCHNS_6
        20 001144   001154 702000 20                 TSX2    END_SI

      180     1324    2       UWA.AL.DBKEY_SI = UWA.DIRECT_REF;

   1324 20 001145   000036 235000 18                 LDA     UWA+30
        20 001146   000164 755000 18                 STA     UWA+116

      181     1325    2       CALL FETCHOS_6('AS-SI   ') ALTRET(DBCS_ERR);

PL6.E3A0      #001=PRINTAS File=ZIG$DDY4.:ZIC0TSI                                FRI 09/05/97 11:54 Page:40
   1325 20 001147   000014 630400 21                 EPPR0   12
        20 001150   000001 631400 21                 EPPR1   1
        20 001151   000000 701000 xent               TSX1    FETCHOS_6
        20 001152   001224 702000 20                 TSX2    DBCS_ERR

      182     1326    2       GOTO NEXT_REF;

   1326 20 001153   000730 710000 20                 TRA     NEXT_REF

      183     1327    2   END_SI:
      184     1328    2       RETURN;

   1328 20 001154   200176 221300       END_SI       LDX1  ! SI_LINE+4,,AUTO
        20 001155   000001 702211                    TSX2  ! 1,X1

      185     1329    2   NO_REFS:
      186     1330    2       CALL CONCAT(OL,'    THE SCHEMA ',ELEMENT,PNAME,
              1330                ' IS NOT REFERENCED BY ANY VALIDATED SUBSCHEMAS.');

   1330 20 001156   040100 100400       NO_REFS      MLR     fill='040'O
        20 001157   000123 000017 19                 ADSC9   83                       cn=0,n=15
        20 001160   200126 000017                    ADSC9   OL,,AUTO                 cn=0,n=15
        20 001161   200167 470500                    LDP0    ELEM$,,AUTO
        20 001162   200170 720100                    LXL0    ELEM_LEN,,AUTO
        20 001163   040100 100540                    MLR     fill='040'O
        20 001164   000000 000010                    ADSC9   0,,PR0                   cn=0,n=*X0
        20 001165   200131 600161                    ADSC9   OL+3,,AUTO               cn=3,n=113
        20 001166   200170 236100                    LDQ     ELEM_LEN,,AUTO
        20 001167   000161 116007                    CMPQ    113,DL
        20 001170   001214 603000 20                 TRC     s:1331
        20 001171   777616 621006                    EAX1    -114,QL
        20 001172   777777 661003                    ERX1    -1,DU
        20 001173   200013 471500                    LDP1    PNAME$,,AUTO
        20 001174   200012 722100                    LXL2    PNAME_LEN,,AUTO
        20 001175   040146 100540                    MLR     fill='040'O
        20 001176   100000 000012                    ADSC9   0,,PR1                   cn=0,n=*X2
        20 001177   200131 600011                    ADSC9   OL+3,Q,AUTO              cn=3,n=*X1
PL6.E3A0      #001=PRINTAS File=ZIG$DDY4.:ZIC0TSI                                FRI 09/05/97 11:54 Page:41
        20 001200   200012 036100                    ADLQ    PNAME_LEN,,AUTO
        20 001201   000161 116007                    CMPQ    113,DL
        20 001202   001214 603000 20                 TRC     s:1331
        20 001203   200206 756100                    STQ     DBKEY+1,,AUTO
        20 001204   200170 236100                    LDQ     ELEM_LEN,,AUTO
        20 001205   200012 036100                    ADLQ    PNAME_LEN,,AUTO
        20 001206   200206 723100                    LXL3    DBKEY+1,,AUTO
        20 001207   777616 623013                    EAX3    -114,X3
        20 001210   777777 663003                    ERX3    -1,DU
        20 001211   040146 100400                    MLR     fill='040'O
        20 001212   000127 000057 19                 ADSC9   87                       cn=0,n=47
        20 001213   200131 600013                    ADSC9   OL+3,Q,AUTO              cn=3,n=*X3

      187     1331    2       CALL LIST(OL);

   1331 20 001214   200126 631500                    EPPR1   OL,,AUTO
        20 001215   200206 451500                    STP1    DBKEY+1,,AUTO
        20 001216   200206 630500                    EPPR0   DBKEY+1,,AUTO
        20 001217   000001 631400 21                 EPPR1   1
        20 001220   000000 701000 xent               TSX1    LIST
        20 001221   000000 011000                    NOP     0

      188     1332    2       RETURN;

   1332 20 001222   200176 221300                    LDX1  ! SI_LINE+4,,AUTO
        20 001223   000001 702211                    TSX2  ! 1,X1

      189     1333    2   DBCS_ERR:
      190     1334    2       CALL ABORT;

   1334 20 001224   000025 631400 21    DBCS_ERR     EPPR1   21
        20 001225   000000 701000 xent               TSX1    ABORT
        20 001226   000000 011000                    NOP     0

      191     1335    2   END LSTSS;

   1335 20 001227   200176 221300                    LDX1  ! SI_LINE+4,,AUTO
PL6.E3A0      #001=PRINTAS File=ZIG$DDY4.:ZIC0TSI                                FRI 09/05/97 11:54 Page:42
        20 001230   000001 702211                    TSX2  ! 1,X1

      192     1336    1   DBCS_ERR:
      193     1337    1       CALL ABORT;

   1337 20 001231   000025 631400 21    DBCS_ERR     EPPR1   21
        20 001232   000000 701000 xent               TSX1    ABORT
        20 001233   000000 011000                    NOP     0
        20 001234   001526 710000 20                 TRA     L20

      194     1338    1   LANGT: PROC(X);

   1338 20 001235   200200 741300       LANGT        STX1  ! @RNAME+1,,AUTO

      195     1339    2   DCL X SBIN WORD;
      196     1340    3       DO CASE(X);

   1340 20 001236   200201 470500                    LDP0    @X,,AUTO
        20 001237   000000 235100                    LDA     0,,PR0
        20 001240   000005 115007                    CMPA    5,DL
        20 001241   001243 602005 20                 TNC     s:1340+5,AL
        20 001242   001310 710000 20                 TRA     s:1354
        20 001243   001310 710000 20                 TRA     s:1354
        20 001244   001250 710000 20                 TRA     s:1342
        20 001245   001260 710000 20                 TRA     s:1345
        20 001246   001270 710000 20                 TRA     s:1348
        20 001247   001300 710000 20                 TRA     s:1351

      197     1341    3       CASE(1);

      198     1342    3           LANG_LEN = 10;

   1342 20 001250   000012 236007                    LDQ     10,DL
        20 001251   200006 756100                    STQ     LANG_LEN,,AUTO

      199     1343    3           LANG = '    COBOL ';

PL6.E3A0      #001=PRINTAS File=ZIG$DDY4.:ZIC0TSI                                FRI 09/05/97 11:54 Page:43
   1343 20 001252   200007 471500                    LDP1    LANG$,,AUTO
        20 001253   000000 620006                    EAX0    0,QL
        20 001254   040140 100400                    MLR     fill='040'O
        20 001255   000143 000012 19                 ADSC9   99                       cn=0,n=10
        20 001256   100000 000010                    ADSC9   0,,PR1                   cn=0,n=*X0
        20 001257   001317 710000 20                 TRA     s:1357

      200     1344    3       CASE(2);

      201     1345    3           LANG_LEN = 12;

   1345 20 001260   000014 236007                    LDQ     12,DL
        20 001261   200006 756100                    STQ     LANG_LEN,,AUTO

      202     1346    3           LANG = '    FORTRAN ';

   1346 20 001262   200007 471500                    LDP1    LANG$,,AUTO
        20 001263   000000 620006                    EAX0    0,QL
        20 001264   040140 100400                    MLR     fill='040'O
        20 001265   000146 000014 19                 ADSC9   102                      cn=0,n=12
        20 001266   100000 000010                    ADSC9   0,,PR1                   cn=0,n=*X0
        20 001267   001317 710000 20                 TRA     s:1357

      203     1347    3       CASE(3);

      204     1348    3           LANG_LEN = 8;

   1348 20 001270   000010 236007                    LDQ     8,DL
        20 001271   200006 756100                    STQ     LANG_LEN,,AUTO

      205     1349    3           LANG = '    APL ';

   1349 20 001272   200007 471500                    LDP1    LANG$,,AUTO
        20 001273   000000 620006                    EAX0    0,QL
        20 001274   040140 100400                    MLR     fill='040'O
        20 001275   000151 000010 19                 ADSC9   105                      cn=0,n=8
        20 001276   100000 000010                    ADSC9   0,,PR1                   cn=0,n=*X0
PL6.E3A0      #001=PRINTAS File=ZIG$DDY4.:ZIC0TSI                                FRI 09/05/97 11:54 Page:44
        20 001277   001317 710000 20                 TRA     s:1357

      206     1350    3       CASE(4);

      207     1351    3           LANG_LEN = 10;

   1351 20 001300   000012 236007                    LDQ     10,DL
        20 001301   200006 756100                    STQ     LANG_LEN,,AUTO

      208     1352    3           LANG = '    BASIC ';

   1352 20 001302   200007 471500                    LDP1    LANG$,,AUTO
        20 001303   000000 620006                    EAX0    0,QL
        20 001304   040140 100400                    MLR     fill='040'O
        20 001305   000153 000012 19                 ADSC9   107                      cn=0,n=10
        20 001306   100000 000010                    ADSC9   0,,PR1                   cn=0,n=*X0
        20 001307   001317 710000 20                 TRA     s:1357

      209     1353    3       CASE(ELSE);

      210     1354    3           LANG_LEN = 8;

   1354 20 001310   000010 236007                    LDQ     8,DL
        20 001311   200006 756100                    STQ     LANG_LEN,,AUTO

      211     1355    3           LANG = '    ****';

   1355 20 001312   200007 471500                    LDP1    LANG$,,AUTO
        20 001313   000000 620006                    EAX0    0,QL
        20 001314   040140 100400                    MLR     fill='040'O
        20 001315   000156 000010 19                 ADSC9   110                      cn=0,n=8
        20 001316   100000 000010                    ADSC9   0,,PR1                   cn=0,n=*X0

      212     1356    3           END;

      213     1357    2   END LANGT;

PL6.E3A0      #001=PRINTAS File=ZIG$DDY4.:ZIC0TSI                                FRI 09/05/97 11:54 Page:45
   1357 20 001317   200200 221300                    LDX1  ! @RNAME+1,,AUTO
        20 001320   000001 702211                    TSX2  ! 1,X1

      214     1358    1   SERCHD:

   1358 20 001321   200202 741300       SERCHD       STX1  ! @CST+1,,AUTO

      215     1359    1       PROC(NAME,TYPE) ALTRET;
      216     1360    2   DCL NAME CHAR(30);
      217     1361    2   DCL TYPE UBIN WORD;
      218     1362    2   DCL DBKEY UBIN WORD;
      219     1363    2       DBKEY = UWA.SF.DBKEY_DA;

   1363 20 001322   000064 235000 18                 LDA     UWA+52
        20 001323   200205 755100                    STA     DBKEY,,AUTO

      220     1364    2       STYPE = STYPES(TYPE);

   1364 20 001324   200204 470500                    LDP0    @TYPE,,AUTO
        20 001325   000000 720100                    LXL0    0,,PR0
        20 001326   000024 235010 1                  LDA     STYPES,X0
        20 001327   200166 755100                    STA     STYPE,,AUTO

      221     1365    2       IF TYPE = 1 THEN DBKEY = UWA.DA.FRST_AC;

   1365 20 001330   000000 235100                    LDA     0,,PR0
        20 001331   000001 115007                    CMPA    1,DL
        20 001332   001335 601000 20                 TNZ     s:1366

   1365 20 001333   000415 236000 18                 LDQ     UWA+269
        20 001334   200205 756100                    STQ     DBKEY,,AUTO

      222     1366    2       IF TYPE = 2 THEN DBKEY = UWA.DA.FRST_SC;

   1366 20 001335   000000 235100                    LDA     0,,PR0
        20 001336   000002 115007                    CMPA    2,DL
        20 001337   001342 601000 20                 TNZ     s:1367
PL6.E3A0      #001=PRINTAS File=ZIG$DDY4.:ZIC0TSI                                FRI 09/05/97 11:54 Page:46

   1366 20 001340   000417 236000 18                 LDQ     UWA+271
        20 001341   200205 756100                    STQ     DBKEY,,AUTO

      223     1367    2       IF TYPE = 3 THEN DBKEY = UWA.DA.FRST_KC;

   1367 20 001342   000000 235100                    LDA     0,,PR0
        20 001343   000003 115007                    CMPA    3,DL
        20 001344   001347 601000 20                 TNZ     s:1368

   1367 20 001345   000420 236000 18                 LDQ     UWA+272
        20 001346   200205 756100                    STQ     DBKEY,,AUTO

      224     1368    2       IF TYPE = 4 THEN DBKEY = UWA.DA.FRST_RC;

   1368 20 001347   000000 235100                    LDA     0,,PR0
        20 001350   000004 115007                    CMPA    4,DL
        20 001351   001354 601000 20                 TNZ     s:1369

   1368 20 001352   000416 236000 18                 LDQ     UWA+270
        20 001353   200205 756100                    STQ     DBKEY,,AUTO

      225     1369    2       IF TYPE = 5 THEN DBKEY = UWA.DA.FRST_FR;

   1369 20 001354   000000 235100                    LDA     0,,PR0
        20 001355   000005 115007                    CMPA    5,DL
        20 001356   001361 601000 20                 TNZ     s:1370

   1369 20 001357   000421 236000 18                 LDQ     UWA+273
        20 001360   200205 756100                    STQ     DBKEY,,AUTO

      226     1370    2       CALL FETCHD_6('SN  ',DBKEY) ALTRET(END_SET);

   1370 20 001361   200205 631500                    EPPR1   DBKEY,,AUTO
        20 001362   200207 451500                    STP1    DBKEY+2,,AUTO
        20 001363   000005 236000 21                 LDQ     5
        20 001364   200206 756100                    STQ     DBKEY+1,,AUTO
PL6.E3A0      #001=PRINTAS File=ZIG$DDY4.:ZIC0TSI                                FRI 09/05/97 11:54 Page:47
        20 001365   200206 630500                    EPPR0   DBKEY+1,,AUTO
        20 001366   000002 631400 21                 EPPR1   2
        20 001367   000000 701000 xent               TSX1    FETCHD_6
        20 001370   001421 702000 20                 TSX2    END_SET

      227     1371    3       DO WHILE(UWA.SN.SENAME < NAME AND UWA.SN.SETYPE = STYPE);

   1371 20 001371   001376 710000 20                 TRA     s:1373

      228     1372    3           CALL FETCHNS_6('DA-SN   ') ALTRET(END_SET);

   1372 20 001372   000006 630400 21                 EPPR0   6
        20 001373   000001 631400 21                 EPPR1   1
        20 001374   000000 701000 xent               TSX1    FETCHNS_6
        20 001375   001421 702000 20                 TSX2    END_SET

      229     1373    3           END;

   1373 20 001376   200203 470500                    LDP0    @NAME,,AUTO
        20 001377   040100 106400                    CMPC    fill='040'O
        20 001400   000427 000036 18                 ADSC9   UWA+279                  cn=0,n=30
        20 001401   000000 000036                    ADSC9   0,,PR0                   cn=0,n=30
        20 001402   001407 603000 20                 TRC     s:1374
        20 001403   000424 236000 18                 LDQ     UWA+276
        20 001404   001407 604000 20                 TMI     s:1374
        20 001405   200166 116100                    CMPQ    STYPE,,AUTO
        20 001406   001372 600000 20                 TZE     s:1372

      230     1374    2       IF UWA.SN.SENAME = NAME AND UWA.SN.SETYPE = STYPE THEN

   1374 20 001407   040100 106400                    CMPC    fill='040'O
        20 001410   000427 000036 18                 ADSC9   UWA+279                  cn=0,n=30
        20 001411   000000 000036                    ADSC9   0,,PR0                   cn=0,n=30
        20 001412   001421 601000 20                 TNZ     END_SET
        20 001413   000424 236000 18                 LDQ     UWA+276
        20 001414   001421 604000 20                 TMI     END_SET
        20 001415   200166 116100                    CMPQ    STYPE,,AUTO
PL6.E3A0      #001=PRINTAS File=ZIG$DDY4.:ZIC0TSI                                FRI 09/05/97 11:54 Page:48
        20 001416   001421 601000 20                 TNZ     END_SET

      231     1375    2           ALTRETURN;

   1375 20 001417   200202 221300                    LDX1  ! @CST+1,,AUTO
        20 001420   000000 702211                    TSX2  ! 0,X1

      232     1376    2   END_SET:
      233     1377    2       RETURN;

   1377 20 001421   200202 221300       END_SET      LDX1  ! @CST+1,,AUTO
        20 001422   000001 702211                    TSX2  ! 1,X1

      234     1378    2   END;
      235     1379    1   FSERCHD:

   1379 20 001423   200176 741300       FSERCHD      STX1  ! SI_LINE+4,,AUTO

      236     1380    1       PROC(RNAME,FNAME) ALTRET;
      237     1381    2   DCL RNAME CHAR(30);
      238     1382    2   DCL FNAME CHAR(30);
      239     1383    2       CALL SERCHD(RNAME,4) ALTRET(GOT_RC);

   1383 20 001424   000027 236000 21                 LDQ     23
        20 001425   200204 756100                    STQ     @TYPE,,AUTO
        20 001426   200177 236100                    LDQ     @RNAME,,AUTO
        20 001427   200203 756100                    STQ     @NAME,,AUTO
        20 001430   001321 701000 20                 TSX1    SERCHD
        20 001431   001434 702000 20                 TSX2    GOT_RC

      240     1384    2       RETURN;

   1384 20 001432   200176 221300                    LDX1  ! SI_LINE+4,,AUTO
        20 001433   000001 702211                    TSX2  ! 1,X1

      241     1385    2   GOT_RC:
      242     1386    2       CALL FETCHNS_6('SN-SE   ') ALTRET(DBCS_ERR);
PL6.E3A0      #001=PRINTAS File=ZIG$DDY4.:ZIC0TSI                                FRI 09/05/97 11:54 Page:49

   1386 20 001434   000011 630400 21    GOT_RC       EPPR0   9
        20 001435   000001 631400 21                 EPPR1   1
        20 001436   000000 701000 xent               TSX1    FETCHNS_6
        20 001437   001465 702000 20                 TSX2    DBCS_ERR

      243     1387    2   NEXT_FR:
      244     1388    2       CALL FETCHNS_6('RC-FR   ') ALTRET(NO_HIT);

   1388 20 001440   000012 630400 21    NEXT_FR      EPPR0   10
        20 001441   000001 631400 21                 EPPR1   1
        20 001442   000000 701000 xent               TSX1    FETCHNS_6
        20 001443   001463 702000 20                 TSX2    NO_HIT

      245     1389    2       IF UWA.FR.SYN = 1 THEN GOTO NEXT_FR;

   1389 20 001444   000332 235000 18                 LDA     UWA+218
        20 001445   000001 115007                    CMPA    1,DL
        20 001446   001440 600000 20                 TZE     NEXT_FR

      246     1390    2       CALL FETCHOS_6('SN-SE   ') ALTRET(DBCS_ERR);

   1390 20 001447   000011 630400 21                 EPPR0   9
        20 001450   000001 631400 21                 EPPR1   1
        20 001451   000000 701000 xent               TSX1    FETCHOS_6
        20 001452   001465 702000 20                 TSX2    DBCS_ERR

      247     1391    2       IF UWA.SN.SENAME = FNAME THEN ALTRETURN;

   1391 20 001453   200200 470500                    LDP0    @FNAME,,AUTO
        20 001454   040100 106400                    CMPC    fill='040'O
        20 001455   000427 000036 18                 ADSC9   UWA+279                  cn=0,n=30
        20 001456   000000 000036                    ADSC9   0,,PR0                   cn=0,n=30
        20 001457   001462 601000 20                 TNZ     s:1392

   1391 20 001460   200176 221300                    LDX1  ! SI_LINE+4,,AUTO
        20 001461   000000 702211                    TSX2  ! 0,X1
PL6.E3A0      #001=PRINTAS File=ZIG$DDY4.:ZIC0TSI                                FRI 09/05/97 11:54 Page:50

      248     1392    2       GOTO NEXT_FR;

   1392 20 001462   001440 710000 20                 TRA     NEXT_FR

      249     1393    2   NO_HIT:
      250     1394    2       RETURN;

   1394 20 001463   200176 221300       NO_HIT       LDX1  ! SI_LINE+4,,AUTO
        20 001464   000001 702211                    TSX2  ! 1,X1

      251     1395    2   DBCS_ERR:
      252     1396    2       CALL ABORT;

   1396 20 001465   000025 631400 21    DBCS_ERR     EPPR1   21
        20 001466   000000 701000 xent               TSX1    ABORT
        20 001467   000000 011000                    NOP     0

      253     1397    2   END;

   1397 20 001470   200176 221300                    LDX1  ! SI_LINE+4,,AUTO
        20 001471   000001 702211                    TSX2  ! 1,X1

      254     1398    1   QTE: PROC(CST);

   1398 20 001472   200200 741300       QTE          STX1  ! @FNAME,,AUTO

      255     1399    2   DCL CST CHAR(30);
      256     1400    2       CALL INDEX1(CHR_LEN,' ',CST);

   1400 20 001473   200201 470500                    LDP0    @CST,,AUTO
        20 001474   000000 124500                    SCM     mask='000'O
        20 001475   000000 000036                    ADSC9   0,,PR0                   cn=0,n=30
        20 001476   000000 000001 21                 ADSC9   0                        cn=0,n=1
        20 001477   200074 000100                    ARG     CHR_LEN,,AUTO

      257     1401    2       CHR_LEN = CHR_LEN + 1;
PL6.E3A0      #001=PRINTAS File=ZIG$DDY4.:ZIC0TSI                                FRI 09/05/97 11:54 Page:51

   1401 20 001500   200074 235100                    LDA     CHR_LEN,,AUTO
        20 001501   000001 035007                    ADLA    1,DL
        20 001502   200074 755100                    STA     CHR_LEN,,AUTO

      258     1402    2       CALL CONCAT(CHR,'"',CST);

   1402 20 001503   200075 471500                    LDP1    CHR$,,AUTO
        20 001504   000000 620005                    EAX0    0,AL
        20 001505   040140 100400                    MLR     fill='040'O
        20 001506   000030 000001 21                 ADSC9   24                       cn=0,n=1
        20 001507   100000 000010                    ADSC9   0,,PR1                   cn=0,n=*X0
        20 001510   200074 236100                    LDQ     CHR_LEN,,AUTO
        20 001511   000002 116007                    CMPQ    2,DL
        20 001512   001517 602000 20                 TNC     s:1403
        20 001513   777777 620006                    EAX0    -1,QL
        20 001514   040140 100500                    MLR     fill='040'O
        20 001515   000000 000036                    ADSC9   0,,PR0                   cn=0,n=30
        20 001516   100000 200010                    ADSC9   0,,PR1                   cn=1,n=*X0

      259     1403    2       CHR_LEN = CHR_LEN + 1;

   1403 20 001517   000001 036007                    ADLQ    1,DL
        20 001520   200074 756100                    STQ     CHR_LEN,,AUTO

      260     1404    2       CALL INSERT(CHR,CHR_LEN - 1,1,'"');

   1404 20 001521   040106 100400                    MLR     fill='040'O
        20 001522   000030 000001 21                 ADSC9   24                       cn=0,n=1
        20 001523   177777 600001                    ADSC9   -1,Q,PR1                 cn=3,n=1

      261     1405    2   END;

   1405 20 001524   200200 221300                    LDX1  ! @FNAME,,AUTO
        20 001525   000001 702211                    TSX2  ! 1,X1

      262     1406    1   L20:
PL6.E3A0      #001=PRINTAS File=ZIG$DDY4.:ZIC0TSI                                FRI 09/05/97 11:54 Page:52
      263     1407    1       CALL CONCAT(OL,'I-D-S/II DICTIONARY ABNORMAL STATUS = ' , UWA.DB_STATUS);

   1407 20 001526   040100 100400       L20          MLR     fill='040'O
        20 001527   000160 000046 19                 ADSC9   112                      cn=0,n=38
        20 001530   200126 000046                    ADSC9   OL,,AUTO                 cn=0,n=38
        20 001531   040100 100400                    MLR     fill='040'O
        20 001532   000001 000007 18                 ADSC9   UWA+1                    cn=0,n=7
        20 001533   200137 400132                    ADSC9   OL+9,,AUTO               cn=2,n=90

      264     1408    1       CALL LIST(OL);

   1408 20 001534   200126 630500                    EPPR0   OL,,AUTO
        20 001535   200206 450500                    STP0    DBKEY+1,,AUTO
        20 001536   200206 630500                    EPPR0   DBKEY+1,,AUTO
        20 001537   000001 631400 21                 EPPR1   1
        20 001540   000000 701000 xent               TSX1    LIST
        20 001541   000000 011000                    NOP     0

      265     1409    1       RETURN;

   1409 20 001542   000000 702200 xent               TSX2  ! X66_ARET

FIELD1
 Sect OctLoc
   0     000   ****** ******   ****** ******   ****** ******   ****** ******    ................

FRST_TIME
 Sect OctLoc
   1     000   4***** ******                                                    ....

X
 Sect OctLoc
   1     001   000000 000000                                                    ....

ELM_TYP
 Sect OctLoc
   1     002   040040 040040   040040 040040   101122 105101   040040 040040            AREA
PL6.E3A0      #001=PRINTAS File=ZIG$DDY4.:ZIC0TSI                                FRI 09/05/97 11:54 Page:53
   1     006   123105 124040   040040 040040   113105 131040   040040 040040    SET     KEY
   1     012   122105 103117   122104 040040   106111 105114   104040 040040    RECORD  FIELD

ELM_TYP_LEN
 Sect OctLoc
   1     016   000000 ******   000005 ******   000004 ******   000004 ******    ................
   1     022   000007 ******   000006 ******                                    ........

STYPES
 Sect OctLoc
   1     024   000000 000000   000000 000024   000000 000036   000000 000037    ................
   1     030   000000 000050   000000 000062                                    ...(...2

C16
 Sect OctLoc
   1     032   040040 040040   040040 040040   040040 040040   040040 040040

UWA_KEY
 Sect OctLoc
   9     000   007125 127101   ****** ******                                    .UWA....

RVA_KEY
 Sect OctLoc
  11     000   007122 126101   ****** ******                                    .RVA....

IA__KEY
 Sect OctLoc
  12     000   007111 101137   ****** ******                                    .IA_....

SEARCHR_NB
 Sect OctLoc
  14     000   001001 001001   001001 001001   001001 001001   001001 001001    ................
  14     010*  000001 001001   001001 001001   001001 001001   001001 001001    ................
  14     014   001001 001001   001001 001001   001001 001001   001001 001001    ................
  14     034*  001001 001001   001001 001001   001001 001001   001001 001001    ................

SEM_COM
PL6.E3A0      #001=PRINTAS File=ZIG$DDY4.:ZIC0TSI                                FRI 09/05/97 11:54 Page:54
 Sect OctLoc
  15     000   000001 002003   004005 006007   010011 012013   014015 016017    ................
  15     004   020021 022023   024025 026027   030031 032033   034035 036037    ................
  15     010   040041 042043   044045 046047   050051 052053   054055 056057     !"#$%&'()*+,-./
  15     014   060061 062063   064065 066067   070071 072040   074075 076077    0123456789: <=>?
  15     020   100101 102103   104105 106107   110111 112113   114115 116117    @ABCDEFGHIJKLMNO
  15     024   120121 122123   124125 126127   130131 132133   134135 136137    PQRSTUVWXYZ[\]^_
  15     030   140141 142143   144145 146147   150151 152153   154155 156157    `abcdefghijklmno
  15     034   160161 162163   164165 166167   170171 172173   174175 176177    pqrstuvwxyz{|}~.

DMCL_XLATE
 Sect OctLoc
  16     000   000001 002003   004005 006007   010011 012013   014015 016017    ................
  16     004   020021 022023   024025 026027   030031 032033   034035 036037    ................
  16     010   040041 041043   044045 046047   050051 052053   054055 136057     !!#$%&'()*+,-^/
  16     014   060061 062063   064065 066067   070071 072040   074075 076077    0123456789: <=>?
  16     020   100101 102103   104105 106107   110111 112113   114115 116117    @ABCDEFGHIJKLMNO
  16     024   120121 122123   124125 126127   130131 132133   134135 136137    PQRSTUVWXYZ[\]^_
  16     030   140141 142143   144145 146147   150151 152153   154155 156157    `abcdefghijklmno
  16     034   160161 162163   164165 166167   170171 172173   174175 176177    pqrstuvwxyz{|}~.

Q2_PERCENT
 Sect OctLoc
  17     000   000001 002003   004005 006007   010011 012013   014015 016017    ................
  17     004   020021 022023   024025 026027   030031 032033   034035 036037    ................
  17     010   040041 045043   044045 046047   050051 052053   054055 056057     !%#$%&'()*+,-./
  17     014   060061 062063   064065 066067   070071 072073   074075 076077    0123456789:;<=>?
  17     020   100101 102103   104105 106107   110111 112113   114115 116117    @ABCDEFGHIJKLMNO
  17     024   120121 122123   124125 126127   130131 132133   134135 136137    PQRSTUVWXYZ[\]^_
  17     030   140141 142143   144145 146147   150151 152153   154155 156157    `abcdefghijklmno
  17     034   160161 162163   164165 166167   170171 172173   174175 176177    pqrstuvwxyz{|}~.

UWA
 Sect OctLoc
  18     000   000000 000000   040040 040040   040040 040040   040040 040040    ....
  18     004   040040 040040   040040 040040   040040 040040   040040 040040
  18     010   040040 040040   040040 040040   040040 000000   040040 040040              ..
PL6.E3A0      #001=PRINTAS File=ZIG$DDY4.:ZIC0TSI                                FRI 09/05/97 11:54 Page:55
  18     014   040040 040040   040040 040040   040040 040040   040040 040040
  18     020   040040 040040   040040 040040   040040 000000   040040 040040              ..
  18     024   040040 040040   040040 040040   040040 040040   040040 040040
  18     030   040040 040040   040040 040040   040040 000000   040040 040040              ..
  18     034   040040 040040   040040 040040   000000 000000   040040 040040            ....
  18     040   040040 040040   040040 040040   040040 040040   040040 040040
  18     044   040040 040040   040040 040040   040040 000000   040040 040040              ..
  18     050   040040 040040   040040 040040   040040 040040   040040 040040
  18     054   040040 040040   040040 040040   040040 000000   000000 000000              ......
  18     060   040040 040040   040*** ******   000000 000000   000000 000000         ...........
  18     064   000000 000000   000000 000000   040040 040040   040040 040040    ........
  18     070   040040 040040   040040 040040   040040 040040   040040 040040
  18     100*  040040 ******   000000 000000   040040 040040   040040 040040      ......
  18     104   040040 040040   040040 040040   040040 040040   040040 040040
  18     124*  040040 040040   040040 040040   000000 000000   040040 040040            ....
  18     130   040040 040040   040040 040040   040040 040040   040040 040040
  18     134   040040 040040   040040 040040   040040 ******   000000 000000              ......
  18     140   040040 040040   040040 040040   040040 040040   040040 040040
  18     144   040040 040040   040040 040040   000000 000000   000000 000000            ........
  18     150   000000 000000   000000 000000   000000 000000   000000 000000    ................
  18     154   040040 040040   040040 040040   040040 040040   040040 040040
  18     160   040040 040040   040040 040040   040040 040040   040040 ******                  ..
  18     164   000000 000000   ****** ******   000000 000000   000000 000000    ................
  18     170   000000 000000   040040 040040   040040 040040   040040 040040    ....
  18     174   040040 040040   040040 040040   040040 040040   040040 040040
  18     210*  040040 040040   040040 040040   040040 040040   ****** ******                ....
  18     214   000000 000000   000000 000000   000000 000000   000000 000000    ................
  18     224*  000000 000000   000000 000000   000000 000000   040040 ******    ............  ..
  18     230   000000 000000   ****** ******   000000 000000   040040 040040    ............
  18     234   000000 000000   000000 000000   000000 000000   000000 000000    ................
  18     264*  000000 000000   000000 000000   000000 000000   ****** ******    ................
  18     270   000000 000000   000000 000000   000000 000000   000000 000000    ................
  18     324*  000000 000000   ****** ******   000000 000000   000000 000000    ................
  18     330   000000 000000   000000 000000   000000 000000   000000 000000    ................
  18     350*  000000 000000   000000 000000   000000 000000   ****** ******    ................
  18     360*  000000 000000   000000 000000   000000 000000   000000 000000    ................
  18     404*  000000 000000   ****** ******   000000 000000   000000 000000    ................
PL6.E3A0      #001=PRINTAS File=ZIG$DDY4.:ZIC0TSI                                FRI 09/05/97 11:54 Page:56
  18     410   000000 000000   000000 000000   000000 000000   000000 000000    ................
  18     424*  000000 000000   000000 000000   000000 000000   040040 040040    ............
  18     430   040040 040040   040040 040040   040040 040040   040040 040040
  18     434   040040 040040   040040 040040   040040 ******   ****** ******              ......
  18     440   040040 040040   040040 040040   040040 040040   040040 040040
  18     450*  040040 040040   040040 040040   040040 ******   ****** ******              ......
  18     454   000000 000000   040040 040040   040040 040040   040040 040040    ....
  18     460   040040 040040   040040 040040   040040 040040   040040 040040
  18     464   040040 ******   ****** ******   000000 000000   000000 000000      ..............
  18     470   000000 000000   000000 000000   000000 000000   000000 000000    ................
  18     474   000000 000000   ****** ******   000000 000000   000000 000000    ................
  18     500   000000 000000   000000 000000   040040 040040   040040 040040    ........
  18     504   040040 040040   040040 040040   040040 040040   040040 040040
  18     520*  040040 040040   ****** ******   000000 000000   000000 000000        ............
  18     524   040040 040040   040040 040040   040040 040040   040040 040040
  18     574*  000000 000000   000000 000000   000000 000000   000000 000000    ................
  18     600   000000 000000   000000 000000   000000 000000   ****** ******    ................
  18     604   000000 000000   000000 000000   000000 000000   000000 000000    ................
  18     610   000000 000000   000000 000000   040040 040040   040040 040040    ........
  18     614   040040 040040   040040 040040   040040 040040   040040 040040
  18     620   040040 040040   040040 ******   040040 040040   040040 040040          ..
  18     624   040040 040040   040040 040040   040040 040040   040040 040040
  18     660*  040040 040040   040040 040040   040040 040040   ****** ******                ....
  18     664   040040 040040   040040 040040   040040 040040   040040 040040
  18     674*  040040 040040   ****** ******   040040 040040   040040 040040        ....
  18     700   040040 040040   040040 040040   040040 040040   040040 040040
  18     710*  040040 040040   ****** ******   040040 040040   040040 040040        ....
  18     714   040040 040040   040040 040040   040040 040040   040040 040040
  18     720   040040 040040   040040 040040   040040 040040   ****** ******                ....
  18     724   040040 040040   040040 040040   040040 040040   040040 040040
  18     740*  040040 040040   ****** ******   040040 040040   040040 040040        ....
  18     744   040040 040040   040040 040040   040040 040040   040040 040040
  18     774*  040040 040040   ****** ******   040040 040040   040040 040040        ....
  18    1000   040040 040040   040040 040040   040040 040040   040040 040040
  18    1034*  040040 040040   ****** ******   040040 040040   040040 040040        ....
  18    1040   040040 040040   040040 040040   040040 040040   040040 040040
  18    1060*  040040 040040   ****** ******   040040 040040   040040 040040        ....
PL6.E3A0      #001=PRINTAS File=ZIG$DDY4.:ZIC0TSI                                FRI 09/05/97 11:54 Page:57
  18    1064   040040 040040   040040 040040   040040 040040   040040 040040
  18    1114*  040040 040040   ****** ******   040040 040040   040040 040040        ....
  18    1120   040040 040040   040040 040040   040040 040040   040040 040040
  18    1134*  040040 040040   040040 040040   040040 040040   ****** ******                ....
  18    1140   040040 040040   040040 040040   040040 040040   040040 040040
  18    1144   040040 040040   ****** ******   040040 040040   040040 040040        ....
  18    1150   040040 040040   040040 040040   040040 040040   ****** ******                ....
  18    1154   040040 040040   040040 040040   040040 040040   040040 040040
  18    1160   040040 040040   ****** ******   040040 040040   040040 040040        ....
  18    1164   040040 040040   040040 040040   040040 040040   ****** ******                ....
  18    1170   040040 040040   040040 040040   040040 040040   040040 040040
  18    1200*  040040 040040   040040 040040   040040 040040   ****** ******                ....
  18    1204   040040 040040   040040 040040   040040 040040   040040 040040
  18    1214*  040040 040040   040040 040040   040040 040040   040040 040040

(unnamed)
 Sect OctLoc
  19     000   052052 052052   123103 110105   115101 040105   114105 115105    ****SCHEMA ELEME
  19     004   116124 057123   125102 123103   110105 115101   040103 122117    NT/SUBSCHEMA CRO
  19     010   123123 040122   105106 105122   105116 103105   052052 052040    SS REFERENCE***
  19     014   104101 040040   101114 114040   123116 040040   104101 055123    DA  ALL SN  DA-S
  19     020   116040 040040   124110 105040   123103 110105   115101 040104    N   THE SCHEMA D
  19     024   111103 124111   117116 101122   131040 104117   105123 040116    ICTIONARY DOES N
  19     030   117124 040103   117116 124101   111116 040101   040040 040040    OT CONTAIN A
  19     034   116101 115105   056040 040040   124110 105040   123103 110105    NAME.   THE SCHE
  19     040   115101 040106   111105 114104   040040 040040   040111 116040    MA FIELD     IN
  19     044   040111 123040   116117 124040   111116 040124   110105 040123     IS NOT IN THE S
  19     050   103110 105115   101040 104111   103124 111117   116101 122131    CHEMA DICTIONARY
  19     054   056040 040040   123116 055123   105040 040040   122103 055106    .   SN-SE   RC-F
  19     060   122040 040040   052104 102120   101122 101115   104101 124101    R   *DBPARAMDATA
  19     064   040102 101123   105040 120101   122101 115105   124105 122040     BASE PARAMETER
  19     070   106111 105114   104040 040040   123116 055123   111040 040040    FIELD   SN-SI
  19     074   101123 055123   111040 040040   040111 123040   122105 106105    AS-SI    IS REFE
  19     100   122105 116103   105104 040102   131040 123125   102123 103110    RENCED BY SUBSCH
  19     104   105115 101050   123051 072040   123125 102123   103110 105115    EMA(S): SUBSCHEM
  19     110   101040 040040   054040 122105   106105 122105   116103 105040    A   , REFERENCE
  19     114   114111 116105   040040 040040   101114 040040   101114 111101    LINE    AL  ALIA
PL6.E3A0      #001=PRINTAS File=ZIG$DDY4.:ZIC0TSI                                FRI 09/05/97 11:54 Page:58
  19     120   123040 116101   115105 040111   123040 040040   040040 040040    S NAME IS
  19     124   124110 105040   123103 110105   115101 040040   040111 123040    THE SCHEMA   IS
  19     130   116117 124040   122105 106105   122105 116103   105104 040102    NOT REFERENCED B
  19     134   131040 101116   131040 126101   114111 104101   124105 104040    Y ANY VALIDATED
  19     140   123125 102123   103110 105115   101123 056040   040040 040040    SUBSCHEMAS.
  19     144   103117 102117   114040 040040   040040 040040   106117 122124    COBOL       FORT
  19     150   122101 116040   040040 040040   101120 114040   040040 040040    RAN     APL
  19     154   102101 123111   103040 040040   040040 040040   052052 052052    BASIC       ****
  19     160   111055 104055   123057 111111   040104 111103   124111 117116    I-D-S/II DICTION
  19     164   101122 131040   101102 116117   122115 101114   040123 124101    ARY ABNORMAL STA
  19     170   124125 123040   075040 040040                                    TUS =

(unnamed)
 Sect OctLoc
  21     000   040040 040040   000001 000000   000002 000000   000014 006000        ............
  21     004   000064 006000   000016 006000   000017 006000   000023 006000    .4..............
  21     010   000427 006000   000055 006000   000057 006000   000072 006000    .....-.../...:..
  21     014   000074 006000   000000 000001   000015 006000   000150 006000    .<...........h..
  21     020   000101 006000   000066 006000   000116 006000   000154 006000    .A...6...N...l..
  21     024   056040 040040   000000 000000   000000 000004   000026 006000    .   ............
  21     030   042040 040040                                                    "
      266     1410    1   END PRINTAS;

PL6.E3A0      #001=PRINTAS File=ZIG$DDY4.:ZIC0TSI                                FRI 09/05/97 11:54 Page:59
--  Include file information  --

   ZIG_DBA_INT.:ZIC0TOU  cannot be made into a system file and is referenced.
   ZI_SUB4_CAN.:ZIC0TOU  is referenced.
   ZIG_GENERAL.:ZIC0TOU  cannot be made into a system file and is referenced.
   B$JIT_C.:E05TOU  was found in the system file and is never referenced.
   CP_6_C.:E05TOU  was found in the system file and is never referenced.
      No diagnostics issued in procedure PRINTAS.

   Procedure PRINTAS requires 867 words for executable code.
   Procedure PRINTAS requires 138 words of local(AUTO) storage.

    No errors detected in file ZIG$DDY4.:ZIC0TSI    .
PL6.E3A0      #001=PRINTAS File=ZIG$DDY4.:ZIC0TSI                                FRI 09/05/97 11:54 Page:60
          *** CROSS REFERENCE LISTING ***
**     DENOTES     IDENTIFIER DEFINITION
<<                 IDENTIFIER'S VALUE SET
>>                 IDENTIFIER'S VALUE USED
<>                 IDENTIFIER SET AND/OR USED
--                 IDENTIFIER REFERENCED
PL6.E3A0      #001=PRINTAS File=ZIG$DDY4.:ZIC0TSI                                FRI 09/05/97 11:54 Page:61
          MINI XREF LISTING

ABORT
        68**DCL-ENT  1334--CALL     1337--CALL     1396--CALL
C12
        22**DCL      1204--ASSIGN
C20
        21**DCL      1206--ASSIGN
C32
        23**DCL      1203--ASSIGN
C64
        24**DCL      1201--ASSIGN
C88
        32**DCL      1205--ASSIGN
CHR
        28**DCL      1246>>ASSIGN   1248>>CALLBLT  1258>>CALLBLT  1277>>ASSIGN   1293>>CALLBLT  1315>>CALLBLT
      1319>>CALLBLT  1402<<CALLBLT  1404<<CALLBLT
CHR$
        27**DCL        28--IMP-PTR  1203<<ASSIGN   1246>>ASSIGN   1248>>CALLBLT  1258>>CALLBLT  1277>>ASSIGN
      1293>>CALLBLT  1315>>CALLBLT  1319>>CALLBLT  1402>>CALLBLT  1404>>CALLBLT
CHR_LEN
        26**DCL        28--IMP-SIZ  1245>>ASSIGN   1246>>ASSIGN   1248>>CALLBLT  1258>>CALLBLT  1276>>ASSIGN
      1277>>ASSIGN   1292>>ASSIGN   1293>>CALLBLT  1314>>ASSIGN   1315>>CALLBLT  1319>>CALLBLT  1400<<CALLBLT
      1401<<ASSIGN   1401>>ASSIGN   1402>>CALLBLT  1403<<ASSIGN   1403>>ASSIGN   1404>>CALLBLT  1404>>CALLBLT
CST IN PROCEDURE QTE
      1399**DCL      1398--PROC     1400>>CALLBLT  1402>>CALLBLT
DBCS_ERR
      1337**LABEL    1218--CALLALT
DBCS_ERR IN PROCEDURE FSERCHD
      1396**LABEL    1386--CALLALT  1390--CALLALT
DBCS_ERR IN PROCEDURE LSTSS
      1334**LABEL    1279--CALLALT  1281--CALLALT  1282--CALLALT  1283--CALLALT  1297--CALLALT  1303--CALLALT
      1317--CALLALT  1325--CALLALT
DBKEY IN PROCEDURE SERCHD
PL6.E3A0      #001=PRINTAS File=ZIG$DDY4.:ZIC0TSI                                FRI 09/05/97 11:54 Page:62
      1362**DCL      1363<<ASSIGN   1365<<ASSIGN   1366<<ASSIGN   1367<<ASSIGN   1368<<ASSIGN   1369<<ASSIGN
      1370<>CALL
ELEM$
      1196**DCL      1195--IMP-PTR  1206<<ASSIGN   1208>>ASSIGN   1236>>CALLBLT  1258>>CALLBLT  1286>>ASSIGN
      1295>>ASSIGN   1306>>CALLBLT  1330>>CALLBLT
ELEMENT
      1195**DCL      1208<<ASSIGN   1236>>CALLBLT  1258>>CALLBLT  1286<<ASSIGN   1295<<ASSIGN   1306>>CALLBLT
      1330>>CALLBLT
ELEM_LEN
      1197**DCL      1195--IMP-SIZ  1207<<ASSIGN   1208>>ASSIGN   1236>>CALLBLT  1258>>CALLBLT  1285<<ASSIGN
      1286>>ASSIGN   1294<<ASSIGN   1295>>ASSIGN   1306>>CALLBLT  1330>>CALLBLT
ELM_TYP
        43**DCL      1208>>ASSIGN
ELM_TYP_LEN
        45**DCL      1207>>ASSIGN
END_SET IN PROCEDURE SERCHD
      1377**LABEL    1370--CALLALT  1372--CALLALT
END_SI IN PROCEDURE LSTSS
      1328**LABEL    1323--CALLALT
FCURR_R_6
       824**DCL-ENT  1279--CALL
FETCHC_6
       820**DCL-ENT  1317--CALL
FETCHD_6
       822**DCL-ENT  1218--CALL     1226--CALL     1297--CALL     1370--CALL
FETCHNS_6
       827**DCL-ENT  1230--CALL     1264--CALL     1267--CALL     1281--CALL     1301--CALL     1323--CALL
      1372--CALL     1386--CALL     1388--CALL
FETCHOS_6
       831**DCL-ENT  1282--CALL     1283--CALL     1303--CALL     1325--CALL     1390--CALL
FIELD1.COUNT1
        34**DCL      1314>>ASSIGN   1315>>CALLBLT
FIELD1.TEXT1
        35**DCL      1315>>CALLBLT
FNAME IN PROCEDURE FSERCHD
      1382**DCL      1380--PROC     1391>>IF
PL6.E3A0      #001=PRINTAS File=ZIG$DDY4.:ZIC0TSI                                FRI 09/05/97 11:54 Page:63
FRST_TIME
        36**DCL      1212>>IF       1212<<ASSIGN
FSERCHD
      1380**PROC     1243--CALL
GOT_NAME
      1262**LABEL    1256--CALLALT
GOT_QFR
      1252**LABEL    1243--CALLALT
GOT_RC IN PROCEDURE FSERCHD
      1386**LABEL    1383--CALLALT
HOLD_PLACE
      1198**DCL      1280<<ASSIGN   1297<>CALL
LANG
        14**DCL      1315>>CALLBLT  1343<<ASSIGN   1346<<ASSIGN   1349<<ASSIGN   1352<<ASSIGN   1355<<ASSIGN
LANG$
        13**DCL        14--IMP-PTR  1204<<ASSIGN   1315>>CALLBLT  1343>>ASSIGN   1346>>ASSIGN   1349>>ASSIGN
      1352>>ASSIGN   1355>>ASSIGN
LANGT
      1338**PROC     1312--CALL
LANG_LEN
        12**DCL        14--IMP-SIZ  1314>>ASSIGN   1315>>CALLBLT  1342<<ASSIGN   1343>>ASSIGN   1345<<ASSIGN
      1346>>ASSIGN   1348<<ASSIGN   1349>>ASSIGN   1351<<ASSIGN   1352>>ASSIGN   1354<<ASSIGN   1355>>ASSIGN
LIST
        75**DCL-ENT  1210--CALL     1213--CALL     1215--CALL     1217--CALL     1235--CALL     1237--CALL
      1249--CALL     1259--CALL     1300--CALL     1305--CALL     1307--CALL     1309--CALL     1322--CALL
      1331--CALL     1408--CALL
LSTSS
      1273**PROC     1229--CALL     1252--CALL     1262--CALL     1266--CALL
NAME
         9**DCL         7--PROC     1219>>IF       1243<>CALL     1244<>CALL     1256<>CALL     1257<>CALL
      1265>>DOWHILE
NAME IN PROCEDURE SERCHD
      1360**DCL      1359--PROC     1371>>DOWHILE  1374>>IF
NEXT_FR IN PROCEDURE FSERCHD
      1388**LABEL    1389--GOTO     1392--GOTO
NEXT_REF IN PROCEDURE LSTSS
PL6.E3A0      #001=PRINTAS File=ZIG$DDY4.:ZIC0TSI                                FRI 09/05/97 11:54 Page:64
      1311**LABEL    1326--GOTO
NO_HIT IN PROCEDURE FSERCHD
      1394**LABEL    1388--CALLALT
NO_REFS IN PROCEDURE LSTSS
      1330**LABEL    1301--CALLALT
OL
        40**DCL      1209<<ASSIGN   1210<>CALL     1211<<ASSIGN   1213<>CALL     1214<<ASSIGN   1215<>CALL
      1216<<ASSIGN   1217<>CALL     1234<<ASSIGN   1235<>CALL     1236<<CALLBLT  1237<>CALL     1248<<CALLBLT
      1249<>CALL     1258<<CALLBLT  1259<>CALL     1299<<ASSIGN   1300<>CALL     1304<<ASSIGN   1305<>CALL
      1306<<CALLBLT  1307<>CALL     1308<<ASSIGN   1309<>CALL     1319<<CALLBLT  1321<<ASSIGN   1322<>CALL
      1330<<CALLBLT  1331<>CALL     1407<<CALLBLT  1408<>CALL
PNAME
        20**DCL      1277<<ASSIGN   1291>>ASSIGN   1293<<CALLBLT  1306>>CALLBLT  1330>>CALLBLT
PNAME$
        19**DCL        20--IMP-PTR  1201<<ASSIGN   1277>>ASSIGN   1291>>ASSIGN   1293>>CALLBLT  1306>>CALLBLT
      1330>>CALLBLT
PNAME_LEN
        18**DCL        20--IMP-SIZ  1276<<ASSIGN   1277>>ASSIGN   1290>>ASSIGN   1291>>ASSIGN   1292<<ASSIGN
      1292>>ASSIGN   1293>>CALLBLT  1306>>CALLBLT  1330>>CALLBLT
QTE
      1398**PROC     1244--CALL     1247--CALL     1257--CALL     1275--CALL     1289--CALL     1313--CALL
      1318--CALL
RNAME IN PROCEDURE FSERCHD
      1381**DCL      1380--PROC     1383<>CALL
SERCHD
      1359**PROC     1256--CALL     1383--CALL
SET_FIELD_NUM
        64**DCL-ENT  1311--CALL
START
        10**DCL      1220<<ASSIGN   1221<<ASSIGN   1222<<ASSIGN   1223<<ASSIGN   1224<<ASSIGN   1225<<ASSIGN
      1226<>CALL     1233>>IF
STYPE
        41**DCL      1227<<ASSIGN   1228>>DOWHILE  1364<<ASSIGN   1371>>DOWHILE  1374>>IF
STYPES
        46**DCL      1364>>ASSIGN
SUBSCHEMA_KEY
PL6.E3A0      #001=PRINTAS File=ZIG$DDY4.:ZIC0TSI                                FRI 09/05/97 11:54 Page:65
        95**DCL        96--REDEF
TEMP
        17**DCL      1291<<ASSIGN   1293>>CALLBLT
TEMP$
        16**DCL        17--IMP-PTR  1202<<ASSIGN   1291>>ASSIGN   1293>>CALLBLT
TEMP64
        25**DCL      1202--ASSIGN   1246<<ASSIGN   1248>>CALLBLT
TEMP88
        31**DCL      1315<<CALLBLT  1319>>CALLBLT  1321>>ASSIGN
TEMP88$
        30**DCL        31--IMP-PTR  1205<<ASSIGN   1315>>CALLBLT  1319>>CALLBLT  1321>>ASSIGN
TEMP88_LEN
        29**DCL        31--IMP-SIZ  1314<<ASSIGN   1315>>CALLBLT  1319>>CALLBLT  1321>>ASSIGN
TEMP_LEN
        15**DCL        17--IMP-SIZ  1245<<ASSIGN   1290<<ASSIGN   1291>>ASSIGN   1293>>CALLBLT
TERM_ALL
      1233**LABEL    1226--CALLALT  1230--CALLALT
TERM_GOT_NAME
      1270**LABEL    1264--CALLALT  1267--CALLALT
TYPE
        11**DCL         7--PROC     1207>>ASSIGN   1208>>ASSIGN   1221>>IF       1222>>IF       1223>>IF
      1224>>IF       1225>>IF       1241>>IF       1256<>CALL     1263>>IF       1278>>IF
TYPE IN PROCEDURE SERCHD
      1361**DCL      1359--PROC     1364>>ASSIGN   1365>>IF       1366>>IF       1367>>IF       1368>>IF
      1369>>IF
UWA.AC.CALC_NEXT
       971**DCL       972--REDEF
UWA.AC.CALC_PRIOR
       980**DCL       981--REDEF
UWA.AC.DEFAULTS
       932**DCL       933--REDEF
UWA.AC.FILE_CODE
       937**DCL       938--REDEF
UWA.AC.FLAG1.ERROR_TYPE
       934**DCL       935--REDEF
UWA.AL.ANAME
PL6.E3A0      #001=PRINTAS File=ZIG$DDY4.:ZIC0TSI                                FRI 09/05/97 11:54 Page:66
       908**DCL      1318<>CALL
UWA.AL.DBKEY_SI
       909**DCL      1302<<ASSIGN   1324<<ASSIGN
UWA.AS.SS_LANG
       887**DCL      1312<>CALL
UWA.AS.SS_NAME
       885**DCL      1313<>CALL
UWA.DA.FRST_AC
      1079**DCL      1221>>ASSIGN   1365>>ASSIGN
UWA.DA.FRST_FR
      1083**DCL      1225>>ASSIGN   1369>>ASSIGN
UWA.DA.FRST_KC
      1082**DCL      1223>>ASSIGN   1367>>ASSIGN
UWA.DA.FRST_RC
      1080**DCL      1224>>ASSIGN   1368>>ASSIGN
UWA.DA.FRST_SC
      1081**DCL      1222>>ASSIGN   1366>>ASSIGN
UWA.DB_STATUS
       863**DCL      1407>>CALLBLT
UWA.DIRECT_REF
       872**DCL      1280>>ASSIGN   1302>>ASSIGN   1324>>ASSIGN
UWA.FR.SYN
      1026**DCL      1389>>IF
UWA.RECORD_NAME
       869**DCL      1241>>IF       1243<>CALL     1247<>CALL
UWA.SF.DBKEY_DA
       882**DCL      1218<>CALL     1363>>ASSIGN
UWA.SI.A_LIAS
       906**DCL      1316>>IF
UWA.SI.LI_NE
       903**DCL      1311<>CALL
UWA.SN.SENAME
      1090**DCL      1265>>DOWHILE  1274>>IF       1275<>CALL     1284>>IF       1289<>CALL     1371>>DOWHILE
      1374>>IF       1391>>IF
UWA.SN.SETYPE
      1087**DCL      1227>>ASSIGN   1228>>DOWHILE  1265>>DOWHILE  1371>>DOWHILE  1374>>IF
PL6.E3A0      #001=PRINTAS File=ZIG$DDY4.:ZIC0TSI                                FRI 09/05/97 11:54 Page:67
X IN PROCEDURE LANGT
      1339**DCL      1338--PROC     1340>>DOCASE
