PL6.E3A0      #001=DDY7 File=ZIG$DDY7.:ZIC0TSI                                   FRI 09/05/97 11:55 Page:1
        1        1        /*M* ZIG$DDY7         I-D-S/II            DBACS    */
        2        2        /*T***********************************************************/
        3        3        /*T*                                                         */
        4        4        /*T* Copyright (c) Bull HN Information Systems Inc., 1997    */
        5        5        /*T*                                                         */
        6        6        /*T***********************************************************/
        7        7        DDY7:
        8        8            PROC;
        9        9        %INCLUDE ZIG_DBA_INT;
       10       57        %INCLUDE ZIA_IDS_DCL;
       11      165        %INCLUDE ZI_ERRORS_SUBS;
       12      685        %INCLUDE ZI_SUB4_CAN;
       13     1342        %INCLUDE ZIG_GENERAL;
       14     1450        %UWA;
       15     1785    1   DCL CLOSEL ENTRY;
       16     1786    1   DCL FO_DIU CHAR(30);
       17     1787    1   DCL TSSX SBIN WORD STATIC INIT(0);
       18     1788    1   DCL SSREFTBL(0:39) UBIN WORD STATIC INIT(0*40);
       19     1789    1   DCL SMTYPE SBIN HALF STATIC INIT(0);
       20     1790    1   DCL SS_DIR_REF SBIN WORD;
       21     1791    1   DCL X SBIN WORD STATIC INIT(0);
       22     1792    1   DCL TACX SBIN WORD STATIC INIT(0);
       23     1793    1   DCL Y SBIN WORD STATIC INIT(0);
       24     1794    1   DCL K SBIN WORD;
       25     1795    1   DCL HOLD_FR UBIN (36);
       26     1796    1   DCL ACREFTBL(0:99) UBIN WORD STATIC INIT(0*100);
       27     1797    1   DCL SUBHD ENTRY(2);
       28     1798    1   DCL PL CHAR(128);
       29     1799    1   DCL NAMEQ CHAR(36);
       30     1800    1   DCL Z SBIN HALF;
       31     1801    1   DCL SE_TYPE_LN CHAR(30);
       32     1802    1   DCL SSA_SET_FND SBIN WORD STATIC INIT(0);
       33     1803    1   DCL OWN_PROC SBIN WORD STATIC INIT(0);
       34     1804    1   DCL ACR_WA_SW SBIN WORD STATIC INIT(0);
       35     1805    1   DCL 1 CURR_DA_SN UBIN WORD;
       36     1806    1   DCL 1 CURR_OWN_RC UBIN WORD;
       37     1807    1   DCL 1 CURR_RC UBIN WORD;
PL6.E3A0      #001=DDY7 File=ZIG$DDY7.:ZIC0TSI                                   FRI 09/05/97 11:55 Page:2
       38     1808    1   DCL 1 CURR_RC_SOSM UBIN WORD;
       39     1809    1   DCL 1 CURR_FR UBIN WORD;
       40     1810    1   DCL 1 CURR_SC_SSH UBIN WORD;
       41     1811    1   DCL PROC_TYP SBIN WORD STATIC INIT(0);
       42     1812    1   DCL CURR_PT UBIN WORD STATIC INIT(0);
       43     1813    1   DCL CURR_PT1 UBIN WORD STATIC INIT(0);
       44     1814    1   DCL ENC_AG_FND SBIN WORD STATIC INIT(0);
       45     1815    1   DCL CHK_AG_FND SBIN WORD STATIC INIT(0);
       46     1816    1   DCL PROC_FND SBIN WORD STATIC INIT(0);
       47     1817    1   DCL LEN UBIN WORD STATIC INIT(0);
       48     1818    1   DCL CHAR_LEN BASED(CHAR$) CHAR(LEN);
       49     1819    1   DCL CHAR$ PTR;
       50     1820    1   DCL CHAR32 CHAR(32);
       51     1821    1   DCL CHR32 CHAR(32);
       52     1822    1   DCL C64 CHAR(64);
       53     1823    1   DCL C32 CHAR(32);
       54     1824    1   DCL LNCNT UBIN(36) SYMREF ALIGNED;
       55     1825    1   DCL SUBMESS CHAR(0) CONSTANT INIT('DATA BASE DATA STRUCTURE SUMMARY');
       56     1826    1       CHAR$ = ADDR(CHAR32);
       57     1827    1       CALL SUBHD(SUBMESS,LENGTHC(SUBMESS));
       58     1828    1       CALL FETCHD_6('SF  ',2) ALTRET(DBCS_ERR);
       59     1829    1       CALL FETCHD_6('OA  ',UWA.SF.DBKEY_OA) ALTRET(DBCS_ERR);
       60     1830    1       CALL FETCHOS_6('SN-SE   ') ALTRET(DBCS_ERR);
       61     1831    1       CALL QTE(UWA.SN.SENAME);
       62     1832    1       CALL CONCAT(PL,'SCHEMA NAME ',CHAR_LEN);
       63     1833    1       CALL LIST(PL);
       64     1834    1       PL=' ';
       65     1835    1       CALL LIST(PL);
       66     1836    1       CALL FETCHD_6('DA  ',UWA.SF.DBKEY_DA) ALTRET(DBCS_ERR);
       67     1837    1       CALL FETCHD_6('SN  ',UWA.DA.FRST_RC) ALTRET(DBCS_ERR);
       68     1838    1       GOTO NEXT_RC1;
       69     1839    1   NEXT_RC:
       70     1840    1       CALL FINDD_6('SN  ',CURR_DA_SN) ALTRET(DBCS_ERR);
       71     1841    1   NEXT_RC1:
       72     1842    1       X = 0;
       73     1843    1       Y = 0;
       74     1844    1       TSSX = 0;
PL6.E3A0      #001=DDY7 File=ZIG$DDY7.:ZIC0TSI                                   FRI 09/05/97 11:55 Page:3
       75     1845    1       TACX = 0;
       76     1846    1       SSREFTBL = '0'B;
       77     1847    1       ACREFTBL = '0'B;
       78     1848    1   NEXT_RC2:
       79     1849    1       CALL FETCHNS_6('DA-SN   ') ALTRET(END_APPL);
       80     1850    1       IF UWA.SN.SETYPE = 40 THEN GOTO NXT_RC_3;
       81     1851    1       GOTO DB_FINISH;
       82     1852    1   NXT_RC_3:
       83     1853    1       IF SUBSTR(UWA.SN.SENAME,0,1) = '*' THEN GOTO NEXT_RC2;
       84     1854    1       CURR_DA_SN = UWA.DIRECT_REF;
       85     1855    1       PL = '****';
       86     1856    1       LNCNT = 9999; /* FORCE NEW PAGE */
       87     1857    1       CALL LIST(PL);
       88     1858    1       CALL QTE(UWA.SN.SENAME);
       89     1859    1       CALL CONCAT(PL,'SUMMARY FOR RECORD ',CHAR_LEN,' ***');
       90     1860    1       CALL LIST(PL);
       91     1861    1       PL=' ';
       92     1862    1       CALL INSERT(PL,64,,'CONTROL DATA ITEMS:               DATA ITEM USAGE IS:');
       93     1863    1       CALL LIST(PL);
       94     1864    1       PL = 'DATA BASE KEY ASSIGNMENT ANALYSIS:';
       95     1865    1       CALL LIST(PL);
       96     1866    1       PL=' ';
       97     1867    1       CALL LIST(PL);
       98     1868    1       CALL FETCHNS_6('SN-SE   ') ALTRET(DBCS_ERR);
       99     1869    1       CURR_RC = UWA.DIRECT_REF;
      100     1870    1       IF UWA.RC.PSMODE = 0 THEN GOTO DIR_MODE;
      101     1871    1       IF UWA.RC.PSMODE = 1 THEN GOTO CALC_MODE;
      102     1872    1       IF UWA.RC.PSMODE = 2 THEN GOTO VIA_MODE;
      103     1873    1       IF UWA.RC.PSMODE = 4 THEN GOTO INDEX_MODE;
      104     1874    1       CALL ABORT;
      105     1875    1   DIR_MODE:
      106     1876    1       C64 = '  LOCATION MODE IS DIRECT';
      107     1877    1   DIR_B5:
      108     1878    1       CALL FETCHNS_6('RC-FR   ') ALTRET(DB5_STAT);
      109     1879    1       IF UWA.FR.F_USE ~= 3 THEN GOTO DIR_B5;
      110     1880    1       HOLD_FR = UWA.DIRECT_REF;
      111     1881    1       CALL FINDD_6('FR  ',UWA.FR.FR_FRH) ALTRET(DBCS_ERR);
PL6.E3A0      #001=DDY7 File=ZIG$DDY7.:ZIC0TSI                                   FRI 09/05/97 11:55 Page:4
      112     1882    1       CALL FETCHOS_6('SN-SE   ') ALTRET(DBCS_ERR);
      113     1883    1       CALL QTE(UWA.SN.SENAME);
      114     1884    1       C32 = CHAR_LEN;
      115     1885    1       CALL CONCAT(PL,C64,C32,'  LOC. MODE DIRECT PARAMETER');
      116     1886    1       CALL LIST(PL);
      117     1887    1       PL = ' '; C64 = ' '; C32 = ' ';
      118     1888    1       CALL FINDD_6('FR      ',HOLD_FR);
      119     1889    1       GOTO DIR_B5;
      120     1890    1   DB5_STAT:
      121     1891    1       IF UWA.DB_STATUS = '0502100' THEN GOTO WITHIN_PROC;
      122     1892    1       CALL ABORT;
      123     1893    1   INDEX_MODE:
      124     1894    1       PL = '  LOCATION MODE IS INDEXED';
      125     1895    1       CALL LIST(PL);
      126     1896    1   INDEX1X:
      127     1897    1       CALL FETCHNS_6('RC-SOSM ') ALTRET( WITHIN_PROC);
      128     1898    1       IF UWA.RECORD_NAME ~= 'SM' THEN
      129     1899    1           GOTO INDEX1X;
      130     1900
      131     1901    1       CALL FETCHOS_6('SC-SOSM ') ALTRET(DBCS_ERR);
      132     1902    1       IF UWA.SC.SETTYPE = 2 THEN /* Primary key */
      133     1903    2       DO;
      134     1904    2           CALL FETCHOS_6('SN-SE   ') ALTRET(DBCS_ERR);
      135     1905    2           PL=' ';
      136     1906    2           CALL LIST(PL);
      137     1907    2           CALL QTE(UWA.SN.SENAME);
      138     1908    2           CALL CONCAT(C64 , '  LOCATION KEY IS ', CHAR_LEN);
      139     1909    2           CALL FETCHNS_6('SMSS-CF ') ALTRET( WITHIN_PROC);
      140     1910    2           CALL FETCHOS_6('FR-CFS  ') ALTRET(DBCS_ERR); /* Get fr record */
      141     1911    2           CALL FETCHOS_6('SN-SE   ') ALTRET(DBCS_ERR); /* Get name of field */
      142     1912    2           CALL QTE(UWA.SN.SENAME);
      143     1913    2           CALL CONCAT(PL , C64, CHR32 ,'  LOCATION KEY');
      144     1914    2           CALL LIST(PL);
      145     1915    2           GOTO INDEX1X;
      146     1916
      147     1917    2           END;
      148     1918    1       ELSE
PL6.E3A0      #001=DDY7 File=ZIG$DDY7.:ZIC0TSI                                   FRI 09/05/97 11:55 Page:5
      149     1919    1           GOTO INDEX1X;
      150     1920
      151     1921    1   CALC_MODE:
      152     1922    1       IF UWA.RC.CALCDUP = 0 THEN
      153     1923    1           C64 = '  LOCATION MODE IS CALC DUPLICATES ALLOWED';
      154     1924    1       ELSE
      155     1925    1           C64 = '  LOCATION MODE IS CALC DUPLICATES NOT ALLOWED';
      156     1926    1       PL = C64;
      157     1927
      158     1928    1   CALC_A5:
      159     1929    1       CALL FETCHNS_6('RC-SOSM ') ALTRET(DBCS_ERR);
      160     1930    1       IF UWA.RECORD_NAME ~= 'SM' THEN GOTO CALC_A5;
      161     1931    1       IF UWA.SM.PSMODE ~= 1 THEN GOTO CALC_A5;
      162     1932    1   CALC_A5_CF:
      163     1933    1       CALL FETCHNS_6('SMSS-CF ') ALTRET(CALC_A5_STAT);
      164     1934    1       IF UWA.C_F.CTRLTYPE = 4 THEN GOTO A5_FIND_OWN;
      165     1935    1       CALL ABORT;
      166     1936    1   A5_FIND_OWN:
      167     1937    1       CALL FETCHOS_6('FR-CFS  ') ALTRET(DBCS_ERR);
      168     1938    1       CALL FETCHOS_6('SN-SE   ') ALTRET(DBCS_ERR);
      169     1939    1       CALL QTE(UWA.SN.SENAME);
      170     1940    1       C32 = CHAR_LEN;
      171     1941    1       CALL CONCAT(PL,C64,C32,'  CALC KEY');
      172     1942    1       CALL LIST(PL);
      173     1943    1       PL = ' '; C64 = ' ';
      174     1944    1       GOTO CALC_A5_CF;
      175     1945    1   CALC_A5_STAT:
      176     1946    1       IF UWA.DB_STATUS = '0502100' THEN GOTO WITHIN_PROC;
      177     1947    1       CALL ABORT;
      178     1948    1   VIA_MODE:
      179     1949         /* VIA SET NAME */
      180     1950    1       CALL FETCHNS_6('RC-SOSM ') ALTRET(DBCS_ERR);
      181     1951    1       IF UWA.RECORD_NAME ~= 'SM' THEN GOTO VIA_MODE;
      182     1952    1       IF UWA.SM.PSMODE ~= 1 THEN GOTO VIA_MODE;
      183     1953    1   VIA_SET:
      184     1954    1       CALL FETCHOS_6('SC-SOSM ') ALTRET(DBCS_ERR);
      185     1955    1       CALL FETCHOS_6('SN-SE   ') ALTRET(DBCS_ERR);
PL6.E3A0      #001=DDY7 File=ZIG$DDY7.:ZIC0TSI                                   FRI 09/05/97 11:55 Page:6
      186     1956    1       CALL QTE(UWA.SN.SENAME);
      187     1957    1       CALL CONCAT(PL,'  LOCATION MODE IS VIA SET NAME ',CHAR_LEN);
      188     1958    1       CALL LIST(PL);
      189     1959    1       PL=' ';
      190     1960    1       CALL LIST(PL);
      191     1961    1       PL = '          (SEE SET SELECTION ANALYSIS FOR NAMED SET)';
      192     1962    1       CALL LIST(PL);
      193     1963    1       PL=' ';
      194     1964    1       CALL LIST(PL);
      195     1965    1   WITHIN_PROC:
      196     1966    1       PL=' ';
      197     1967    1       CALL LIST(PL);
      198     1968    1       CALL FETCHOS_6('RC-SOSM ') ALTRET(DBCS_ERR);
      199     1969    1       IF UWA.RC.WITHINA = 0 THEN GOTO WSA;
      200     1970    1       PL = '  WITHIN MULTIPLE AREAS; SELECTION IS BY ';
      201     1971    1       IF UWA.RC.WITHINA = 1 THEN GOTO WMA_APPL;
      202     1972    1       IF UWA.RC.WITHINA = 2 THEN GOTO WMA_DBP;
      203     1973    1       CALL ABORT;
      204     1974    1   WSA:
      205     1975    1       PL = '  WITHIN SINGLE AREA';
      206     1976    1       CALL LIST(PL);
      207     1977    1       GOTO ENC_DEC;
      208     1978    1   WMA_APPL:
      209     1979    1       C64 = '  WITHIN MULTIPLE AREAS; SELECTION IS BY APPLICATION';
      210     1980    1   WMA_B5:
      211     1981    1       CALL FETCHNS_6('RC-FR   ') ALTRET(WMA_B5_STAT);
      212     1982    1       IF UWA.FR.F_USE ~= 2 THEN GOTO WMA_B5;
      213     1983    1   B5_A:
      214     1984    1       CALL FINDD_6('FR  ',UWA.FR.FR_FRH) ALTRET(DBCS_ERR);
      215     1985    1       CALL FETCHOS_6('SN-SE   ') ALTRET(DBCS_ERR);
      216     1986    1       CALL QTE(UWA.SN.SENAME);
      217     1987    1       CALL CONCAT(PL , C64, CHR32, '  AREA SELECTION');
      218     1988    1       CALL LIST(PL);
      219     1989    1       PL = ' '; C64 = ' ';
      220     1990    1       GOTO WMA_B5;
      221     1991    1   WMA_B5_STAT:
      222     1992    1       IF UWA.DB_STATUS = '0502100' THEN GOTO ENC_DEC;
PL6.E3A0      #001=DDY7 File=ZIG$DDY7.:ZIC0TSI                                   FRI 09/05/97 11:55 Page:7
      223     1993    1       CALL ABORT;
      224     1994    1   WMA_DBP:
      225     1995    1       CALL LIST(PL);
      226     1996    1       CALL FETCHOS_6('SN-SE   ') ALTRET(DBCS_ERR);
      227     1997    1       CALL FETCHNS_6('SNNR-PT ') ALTRET(DBCS_ERR);
      228     1998    1       IF UWA.PT.PTYPE = 22 THEN GOTO D5_FND_PN;
      229     1999    1       CALL ABORT;
      230     2000    1   D5_FND_PN:
      231     2001    1       CALL FETCHOS_6('PN-PT   ') ALTRET(DBCS_ERR);
      232     2002    1       CALL CONCAT(C64,'  DATA BASE PROCEDURE ',UWA.PN.PNAME);
      233     2003    1   D5_NXT_AG:
      234     2004    1       CALL FETCHNS_6('PN-AG   ') ALTRET(D5_CK_STAT);
      235     2005    1       IF UWA.AG.ATYPE = 1 THEN GOTO D5_C;
      236     2006    1       IF UWA.AG.ATYPE = 2 THEN GOTO D5_C;
      237     2007    1       IF UWA.AG.ATYPE = 3 THEN GOTO D5_C;
      238     2008    1       IF UWA.AG.ATYPE = 4 THEN GOTO D5_C;
      239     2009    1       GOTO D5_NXT_AG;
      240     2010    1   D5_C:
      241     2011    1       CALL FINDD_6('FR  ',UWA.AG.AG_SE) ALTRET(DBCS_ERR);
      242     2012    1       CALL FETCHOS_6('SN-SE   ') ALTRET(DBCS_ERR);
      243     2013    1       CALL QTE(UWA.SN.SENAME);
      244     2014    1       IF UWA.AG.ATYPE = 1 OR UWA.AG.ATYPE = 2 THEN /*Input*/
      245     2015    1           CALL CONCAT(PL,C64,CHR32,'  USING ARGUMENT');
      246     2016    1       ELSE
      247     2017    1           CALL CONCAT(PL,C64,CHR32,'  GIVING ARGUMENT');
      248     2018    1       CALL LIST(PL);
      249     2019    1       CALL FETCHOS_6('RC-FR   ') ALTRET(DBCS_ERR);
      250     2020    1       CALL FETCHOS_6('SN-SE   ') ALTRET(DBCS_ERR);
      251     2021    1       IF SUBSTR(UWA.SN.SENAME,0,1) = '*' THEN GOTO D5_D;
      252     2022    1       CALL QTE(UWA.SN.SENAME);
      253     2023    1       PL=' ';
      254     2024    1       CALL INSERT(PL,64,,' IN ',CHAR_LEN);
      255     2025    1       CALL LIST(PL);
      256     2026    1   D5_D:
      257     2027    1       PL = ' '; C64 = ' ';
      258     2028    1       GOTO D5_NXT_AG;
      259     2029    1   D5_CK_STAT:
PL6.E3A0      #001=DDY7 File=ZIG$DDY7.:ZIC0TSI                                   FRI 09/05/97 11:55 Page:8
      260     2030    1       IF UWA.DB_STATUS = '0502100' THEN GOTO ENC_DEC;
      261     2031    1       CALL ABORT;
      262     2032    1   ENC_DEC:
      263     2033    1       PROC_FND = 0;
      264     2034    1       CALL FETCHD_6('RC  ',CURR_RC) ALTRET(DBCS_ERR);
      265     2035    1       GOTO ENC_NXT_FR1;
      266     2036    1   ENC_NXT_FR:
      267     2037    1       CALL FINDD_6('FR  ',CURR_FR) ALTRET(DBCS_ERR);
      268     2038    1   ENC_NXT_FR1:
      269     2039    1       PROC_TYP = 0;
      270     2040    1       CALL FETCHNS_6('RC-FR   ') ALTRET(ENC_FR_STAT);
      271     2041    1       CURR_FR = UWA.DIRECT_REF;
      272     2042    1       CALL FETCHOS_6('SN-SE   ') ALTRET(DBCS_ERR);
      273     2043    1       CALL QTE(UWA.SN.SENAME);
      274     2044    1       CALL CONCAT(PL , '      DATA ITEM ' , CHAR_LEN);
      275     2045    1   ENC_NXT_PT:
      276     2046    1       CALL FETCHNS_6('SNNR-PT ') ALTRET(ENC_CK_STAT);
      277     2047    1       IF UWA.PT.PTYPE = 52 THEN GOTO ENC_A1;
      278     2048    1       IF UWA.PT.PTYPE = 54 THEN GOTO ENC_A2;
      279     2049    1       GOTO ENC_NXT_PT;
      280     2050    1   ENC_A1:
      281     2051    1       PROC_TYP = PROC_TYP + 1;
      282     2052    1       IF PROC_TYP = 3 THEN
      283     2053    2       DO;
      284     2054    2           CURR_PT1 = UWA.DIRECT_REF;
      285     2055    2           GOTO ENC_A2A1;
      286     2056    2           END;
      287     2057    1       GOTO ENC_A2A;
      288     2058    1   ENC_A2:
      289     2059    1       PROC_TYP = PROC_TYP + 2;
      290     2060    1       IF PROC_TYP = 3 THEN
      291     2061    2       DO;
      292     2062    2           CURR_PT1 = UWA.DIRECT_REF;
      293     2063    2           GOTO ENC_A2A1;
      294     2064    2           END;
      295     2065    1   ENC_A2A:
      296     2066    1       CURR_PT = UWA.DIRECT_REF;
PL6.E3A0      #001=DDY7 File=ZIG$DDY7.:ZIC0TSI                                   FRI 09/05/97 11:55 Page:9
      297     2067    1   ENC_A2A1:
      298     2068    1       IF PROC_FND = 1 THEN GOTO ENC_NXT_PT;
      299     2069    1       PL=' ';
      300     2070    1       CALL LIST(PL);
      301     2071    1       PL = 'ENCODING/DECODING, CHECK PROCEDURE(S) ANALYSIS:';
      302     2072    1       CALL LIST(PL);
      303     2073    1       PL=' ';
      304     2074    1       CALL LIST(PL);
      305     2075    1       PROC_FND = 1;
      306     2076    1       GOTO ENC_NXT_PT;
      307     2077    1   ENC_CK_STAT:
      308     2078    1       IF UWA.DB_STATUS = '0502100' THEN GOTO ENC_A3;
      309     2079    1       CALL ABORT;
      310     2080    1   ENC_A3:
      311     2081    1       IF PROC_TYP = 0 THEN GOTO CHECK_ANAL;
      312     2082    1       CALL LIST(PL);
      313     2083    1       PL=' ';
      314     2084    1       CALL LIST(PL);
      315     2085    1       IF PROC_TYP = 1 THEN GOTO ENC_PROC;
      316     2086    1       IF PROC_TYP = 2 THEN GOTO DEC_PROC;
      317     2087    1       IF PROC_TYP = 3 THEN GOTO ENC_DEC_PROC;
      318     2088    1       CALL ABORT;
      319     2089    1   ENC_PROC:
      320     2090    1       PL = '          ENCODING';
      321     2091    1       GOTO ENC_A4;
      322     2092    1   DEC_PROC:
      323     2093    1       PL = '          DECODING';
      324     2094    1       GOTO ENC_A4;
      325     2095    1   ENC_DEC_PROC:
      326     2096    1       PL = '          ENCODING/DECODING';
      327     2097    1   ENC_A4:
      328     2098    1       CALL LIST(PL);
      329     2099    1   ENC_A5:
      330     2100    1       CALL FINDD_6('PT  ',CURR_PT) ALTRET(DBCS_ERR);
      331     2101    1       CALL FETCHOS_6('PN-PT   ') ALTRET(DBCS_ERR);
      332     2102    1       CALL QTE(UWA.PN.PNAME);
      333     2103    1       CALL CONCAT(C64,'          PROCEDURE IS ',CHAR_LEN);
PL6.E3A0      #001=DDY7 File=ZIG$DDY7.:ZIC0TSI                                   FRI 09/05/97 11:55 Page:10
      334     2104    1       PL = C64;
      335     2105    1   ENC_A5_AG:
      336     2106    1       CALL FETCHNS_6('PN-AG   ') ALTRET(ENC_A5_STAT);
      337     2107    1       IF UWA.AG.ATYPE = 1 THEN GOTO ENC_A6;
      338     2108    1       IF UWA.AG.ATYPE = 2 THEN GOTO ENC_A6;
      339     2109    1       GOTO ENC_A5_AG;
      340     2110    1   ENC_A6:
      341     2111    1       CALL FINDD_6('FR  ',UWA.AG.AG_SE) ALTRET(DBCS_ERR);
      342     2112    1       CALL FETCHOS_6('SN-SE   ') ALTRET(DBCS_ERR);
      343     2113    1       ENC_AG_FND = 1;
      344     2114    1       CALL QTE(UWA.SN.SENAME);
      345     2115    1       CALL CONCAT(PL,C64,CHR32,'  USING ARGUMENT');
      346     2116    1       CALL LIST(PL);
      347     2117    1       PL = ' '; C64 = ' ';
      348     2118    1       GOTO ENC_A5_AG;
      349     2119    1   ENC_A5_STAT:
      350     2120    1       IF UWA.DB_STATUS = '0502100' THEN GOTO ENC_A7;
      351     2121    1       CALL ABORT;
      352     2122    1   ENC_A7:
      353     2123    1       IF ENC_AG_FND = 1 THEN GOTO ENC_OUT;
      354     2124    1       CALL LIST(PL);
      355     2125    1       PL=' ';
      356     2126    1       CALL LIST(PL);
      357     2127    1       PL = '                    *** NO INPUT DATA ARGUMENTS FOUND ****';
      358     2128    1       CALL LIST(PL);
      359     2129    1       PL=' ';
      360     2130    1       CALL LIST(PL);
      361     2131    1   ENC_OUT:
      362     2132    1       ENC_AG_FND = 0;
      363     2133    1       PL = ' '; C64 = ' ';
      364     2134    1       CALL FINDD_6('PT  ',CURR_PT) ALTRET(DBCS_ERR);
      365     2135    1       CALL FETCHOS_6('PN-PT   ') ALTRET(DBCS_ERR);
      366     2136    1   ENC_A8_AG:
      367     2137    1       CALL FETCHNS_6('PN-AG   ') ALTRET(ENC_A8_STAT);
      368     2138    1       IF UWA.AG.ATYPE = 3 THEN GOTO ENC_A9;
      369     2139    1       IF UWA.AG.ATYPE = 4 THEN GOTO ENC_A9;
      370     2140    1       GOTO ENC_A8_AG;
PL6.E3A0      #001=DDY7 File=ZIG$DDY7.:ZIC0TSI                                   FRI 09/05/97 11:55 Page:11
      371     2141    1   ENC_A9:
      372     2142    1       CALL FINDD_6('FR  ',UWA.AG.AG_SE) ALTRET(DBCS_ERR);
      373     2143    1       CALL FETCHOS_6('SN-SE   ') ALTRET(DBCS_ERR);
      374     2144
      375     2145    1       ENC_AG_FND = 1;
      376     2146    1       CALL QTE(UWA.SN.SENAME);
      377     2147    1       CALL CONCAT(PL,C64,CHR32,'  GIVING ARGUMENT');
      378     2148    1       CALL LIST(PL);
      379     2149    1       PL = ' '; C64 = ' ';
      380     2150    1       GOTO ENC_A8_AG;
      381     2151    1   ENC_A8_STAT:
      382     2152    1       IF UWA.DB_STATUS = '0502100' THEN GOTO ENC_A10;
      383     2153    1       CALL ABORT;
      384     2154    1   ENC_A10:
      385     2155    1       IF ENC_AG_FND = 1 THEN GOTO ENC_A11;
      386     2156    1       PL=' ';
      387     2157    1       CALL LIST(PL);
      388     2158    1       PL = '                    **** NO OUTPUT DATA ARGUMENTS FOUND ****';
      389     2159    1       CALL LIST(PL);
      390     2160    1   ENC_A11:
      391     2161    1       IF CURR_PT1 ~= 0 THEN
      392     2162    2       DO;
      393     2163    2           CURR_PT = CURR_PT1;
      394     2164    2           CURR_PT1 = 0;
      395     2165    2           PL = '  ';
      396     2166    2           GOTO ENC_A4;
      397     2167    2           END;
      398     2168
      399     2169    1       GOTO CHECK_ANAL;
      400     2170    1   ENC_FR_STAT:
      401     2171    1       IF UWA.DB_STATUS ~= '0502100' THEN CALL ABORT;
      402     2172    1       GOTO SET_STR_ANAL;
      403     2173    1   CHECK_ANAL:
      404     2174    1       CHK_AG_FND = 0;
      405     2175    1       CALL FINDD_6('FR  ',CURR_FR) ALTRET(DBCS_ERR);
      406     2176    1       CALL FETCHOS_6('SN-SE   ') ALTRET(DBCS_ERR);
      407     2177    1   CHK_NXT_PT:
PL6.E3A0      #001=DDY7 File=ZIG$DDY7.:ZIC0TSI                                   FRI 09/05/97 11:55 Page:12
      408     2178    1       CALL FETCHNS_6('SNNR-PT ') ALTRET(CHK_PT_STAT);
      409     2179    1       IF UWA.PT.PTYPE = 51 THEN GOTO CHK_PROC;
      410     2180    1       GOTO CHK_NXT_PT;
      411     2181    1   CHK_PT_STAT:
      412     2182    1       IF UWA.DB_STATUS ~= '0502100' THEN CALL ABORT;
      413     2183    1       GOTO ENC_NXT_FR;
      414     2184    1   CHK_PROC:
      415     2185    1       IF PROC_FND = 1 THEN GOTO CHK_PROC1;
      416     2186    1       PL=' ';
      417     2187    1       CALL LIST(PL);
      418     2188    1       PL = 'ENCODING/DECODING, CHECK PROCEDURE(S) ANALYSIS:';
      419     2189    1       CALL LIST(PL);
      420     2190    1   CHK_PROC1:
      421     2191    1       PROC_FND = 1;
      422     2192    1       PL=' ';
      423     2193    1       CALL LIST(PL);
      424     2194    1       PL = '          CHECK PROCEDURE IS ';
      425     2195    1       CURR_PT = UWA.DIRECT_REF;
      426     2196    1       CALL FETCHOS_6('PN-PT   ') ALTRET(DBCS_ERR);
      427     2197    1       CALL QTE(UWA.PN.PNAME);
      428     2198    1       CALL CONCAT(C64 , '          CHECK PROCEDURE IS ',CHAR_LEN);
      429     2199    1       PL = C64;
      430     2200    1   CHK_A5_AG:
      431     2201    1       CALL FETCHNS_6('PN-AG   ') ALTRET(CHK_A5_STAT);
      432     2202    1       IF UWA.AG.ATYPE = 1 THEN GOTO CHK_A6;
      433     2203    1       IF UWA.AG.ATYPE = 2 THEN GOTO CHK_A6;
      434     2204    1       GOTO CHK_A5_AG;
      435     2205    1   CHK_A6:
      436     2206    1       CALL FINDD_6('FR  ',UWA.AG.AG_SE) ALTRET(DBCS_ERR);
      437     2207    1       CALL FETCHOS_6('SN-SE   ') ALTRET(DBCS_ERR);
      438     2208    1       CHK_AG_FND = 1;
      439     2209    1       CALL QTE(UWA.SN.SENAME);
      440     2210    1       CALL CONCAT(PL,C64,CHR32,'  USING ARGUMENT');
      441     2211    1       CALL LIST(PL);
      442     2212    1       PL = ' '; C64 = ' ';
      443     2213    1       GOTO CHK_A5_AG;
      444     2214    1   CHK_A5_STAT:
PL6.E3A0      #001=DDY7 File=ZIG$DDY7.:ZIC0TSI                                   FRI 09/05/97 11:55 Page:13
      445     2215    1       IF UWA.DB_STATUS = '0502100' THEN GOTO CHK_A7;
      446     2216    1       CALL ABORT;
      447     2217    1   CHK_A7:
      448     2218    1       IF CHK_AG_FND = 1 THEN GOTO CHK_OUT;
      449     2219    1       CALL LIST(PL);
      450     2220    1       PL=' ';
      451     2221    1       CALL LIST(PL);
      452     2222    1       PL = '                    **** NO INPUT DATA ARGUMENTS FOUND ****';
      453     2223    1       CALL LIST(PL);
      454     2224    1       PL=' ';
      455     2225    1       CALL LIST(PL);
      456     2226    1   CHK_OUT:
      457     2227    1       CHK_AG_FND = 0;
      458     2228    1       PL = ' '; C64 = ' ';
      459     2229    1       CALL FINDD_6('PT  ',CURR_PT) ALTRET(DBCS_ERR);
      460     2230    1       CALL FETCHOS_6('PN-PT   ') ALTRET(DBCS_ERR);
      461     2231    1   CHK_A8_AG:
      462     2232    1       CALL FETCHNS_6('PN-AG   ') ALTRET(CHK_A8_STAT);
      463     2233    1       IF UWA.AG.ATYPE = 3 THEN GOTO CHK_A9;
      464     2234    1       IF UWA.AG.ATYPE = 4 THEN GOTO CHK_A9;
      465     2235    1       GOTO CHK_A8_AG;
      466     2236    1   CHK_A9:
      467     2237    1       CALL FINDD_6('FR  ',UWA.AG.AG_SE) ALTRET(DBCS_ERR);
      468     2238    1       CALL FETCHOS_6('SN-SE   ') ALTRET(DBCS_ERR);
      469     2239    1       CHK_AG_FND = 1;
      470     2240    1       CALL QTE(UWA.SN.SENAME);
      471     2241    1       CALL CONCAT(PL,C64,CHR32,'  GIVING ARGUMENT');
      472     2242    1       CALL LIST(PL);
      473     2243    1       PL = ' '; C64 = ' ';
      474     2244    1       GOTO CHK_A8_AG;
      475     2245    1   CHK_A8_STAT:
      476     2246    1       IF UWA.DB_STATUS = '0502100' THEN GOTO CHK_A10;
      477     2247    1       CALL ABORT;
      478     2248    1   CHK_A10:
      479     2249    1       PL=' ';
      480     2250    1       CALL LIST(PL);
      481     2251    1       IF CHK_AG_FND = 1 THEN GOTO ENC_NXT_FR;
PL6.E3A0      #001=DDY7 File=ZIG$DDY7.:ZIC0TSI                                   FRI 09/05/97 11:55 Page:14
      482     2252    1       PL = '                    **** NO OUTPUT DATA ARGUMENTS FOUND ****';
      483     2253    1       CALL LIST(PL);
      484     2254    1       PL=' ';
      485     2255    1       CALL LIST(PL);
      486     2256    1       GOTO ENC_NXT_FR;
      487     2257    1   SET_STR_ANAL:
      488     2258    1       IF UWA.RC.KEY_PRESENT = 0 THEN
      489     2259    1           GOTO SET_STR2; /* No secondary keys */
      490     2260
      491     2261    1       PL = ' '; C64 = ' ';
      492     2262    1       CALL LIST(PL);
      493     2263    1       CALL LIST(PL);
      494     2264    1       PL = 'KEY STRUCTURE ANALYSIS:';
      495     2265    1       CALL LIST(PL);
      496     2266    1       CALL FETCHOS_6('RC-SOSM ') ALTRET(DBCS_ERR);
      497     2267
      498     2268    1   SET_STR1:
      499     2269    1       CALL FETCHNS_6('RC-SOSM ') ALTRET(SET_STR2);
      500     2270    1       IF UWA.RECORD_NAME ~= 'SM' THEN
      501     2271    1           GOTO SET_STR1;
      502     2272
      503     2273    1       CALL FETCHOS_6('SC-SOSM ') ALTRET(DBCS_ERR);
      504     2274    1       IF UWA.SC.SETTYPE ~= 3 THEN /* Alternate key */
      505     2275    1           GOTO SET_STR1;
      506     2276
      507     2277    1       PL=' ';
      508     2278    1       CALL LIST(PL);
      509     2279    1       PL = '  KEY NAME IS ';
      510     2280    1       CALL FETCHOS_6('SN-SE   ') ALTRET(DBCS_ERR);
      511     2281    1       CALL QTE(UWA.SN.SENAME);
      512     2282    1       CALL CONCAT(C64,'  KEY NAME IS ',CHAR_LEN);
      513     2283    1       PL = C64;
      514     2284
      515     2285    1       CALL FETCHNS_6('SMSS-CF ') ALTRET(DBCS_ERR);
      516     2286    1       CALL FETCHOS_6('FR-CFS  ') ALTRET(DBCS_ERR);
      517     2287    1       CALL FETCHOS_6('SN-SE   ') ALTRET(DBCS_ERR);
      518     2288    1       CALL QTE(UWA.SN.SENAME);
PL6.E3A0      #001=DDY7 File=ZIG$DDY7.:ZIC0TSI                                   FRI 09/05/97 11:55 Page:15
      519     2289    1       C32 = CHAR_LEN;
      520     2290    1       CALL CONCAT(PL,C64,C32,'  ASCENDING KEY');
      521     2291    1       CALL LIST(PL);
      522     2292    1       IF UWA.SC.SEQDUP = 2 THEN
      523     2293    1           PL = '      DUPLICATES NOT ALLOWED';
      524     2294    1       ELSE
      525     2295    1           PL = '      DUPLICATES ALLOWED';
      526     2296    1       CALL LIST(PL);
      527     2297    1       GOTO SET_STR1;
      528     2298    1   SET_STR2:
      529     2299
      530     2300    1       PL=' ';
      531     2301    1       CALL LIST(PL);
      532     2302    1       PL=' ';
      533     2303    1       CALL LIST(PL);
      534     2304    1       PL = 'SET STRUCTURE ANALYSIS:';
      535     2305    1       CALL LIST(PL);
      536     2306    1       PL=' ';
      537     2307    1       CALL LIST(PL);
      538     2308    1       CALL FETCHD_6('RC  ',CURR_RC) ALTRET(DBCS_ERR);
      539     2309    1       CALL FETCHOS_6('RC-SOSM ') ALTRET(DBCS_ERR);
      540     2310    2       IF UWA.RC.SO ~= 0 THEN DO;
      541     2311    2           PL = '  OWNER OF SET(S):';
      542     2312    2           CALL LIST(PL);
      543     2313    2           PL=' ';
      544     2314    2           CALL LIST(PL);
      545     2315    2   NXT_OWNER:
      546     2316    2           CALL FETCHNS_6('RC-SOSM ') ALTRET(END_OWNERS);
      547     2317    2           IF UWA.RECORD_NAME ~= 'SO' THEN GOTO NXT_OWNER;
      548     2318    2           CALL FETCHOS_6('SC-SOSM ') ALTRET(DBCS_ERR);
      549     2319    2           CALL FETCHOS_6('SN-SE   ') ALTRET(DBCS_ERR);
      550     2320    2           CALL QTE(UWA.SN.SENAME);
      551     2321    2           CALL CONCAT(PL , '      SET NAME ' , CHAR_LEN);
      552     2322    2           CALL LIST(PL);
      553     2323    2           PL=' ';
      554     2324    2           CALL LIST(PL);
      555     2325    2           GOTO NXT_OWNER;
PL6.E3A0      #001=DDY7 File=ZIG$DDY7.:ZIC0TSI                                   FRI 09/05/97 11:55 Page:16
      556     2326    2   END_OWNERS:
      557     2327    2           CALL FETCHOS_6('RC-SOSM ') ALTRET(DBCS_ERR);
      558     2328    2           PL=' ';
      559     2329    2           CALL LIST(PL);
      560     2330    2           END;
      561     2331    2       ELSE DO;
      562     2332    2           PL = '                    **** NO SET OWNER RELATIONSHIPS DEFINED ****';
      563     2333    2           CALL LIST(PL);
      564     2334    2           PL=' ';
      565     2335    2           CALL LIST(PL);
      566     2336    2           END;
      567     2337    1       IF UWA.RC.SM ~= 0 THEN GOTO SSA_3A;
      568     2338    1       PL = '                    **** NO SET MEMBER RELATIONSHIPS DEFINED ****';
      569     2339    1       CALL LIST(PL);
      570     2340    1       PL=' ';
      571     2341    1       CALL LIST(PL);
      572     2342    1       GOTO ACR_ANAL;
      573     2343    1   SSA_3A:
      574     2344    1       PL = '  AUTOMATIC MEMBER OF SET(S):';
      575     2345    1       CALL LIST(PL);
      576     2346    1       PL=' ';
      577     2347    1       CALL LIST(PL);
      578     2348    1       TSSX = 0;
      579     2349    1       SSA_SET_FND = 0;
      580     2350    1       SMTYPE = 0;
      581     2351    1       GOTO SSA_NXT_SM1;
      582     2352    1   SSA_3B:
      583     2353    1       TSSX = 0;
      584     2354    1       SSA_SET_FND = 0;
      585     2355    1       SMTYPE = 1;
      586     2356    1       PL=' ';
      587     2357    1       CALL LIST(PL);
      588     2358    1       PL = '  MANUAL MEMBER OF SET(S):';
      589     2359    1       CALL LIST(PL);
      590     2360    1       PL=' ';
      591     2361    1       CALL LIST(PL);
      592     2362    1       CALL FETCHOS_6('RC-SOSM ') ALTRET(DBCS_ERR);
PL6.E3A0      #001=DDY7 File=ZIG$DDY7.:ZIC0TSI                                   FRI 09/05/97 11:55 Page:17
      593     2363    1       GOTO SSA_NXT_SM1;
      594     2364    1   SSA_NXT_SM:
      595     2365    1       TSSX = 0;
      596     2366    1       CALL FINDD_6('SM  ',CURR_RC_SOSM) ALTRET(DBCS_ERR);
      597     2367    1   SSA_NXT_SM1:
      598     2368    1       CALL FETCHNS_6('RC-SOSM ') ALTRET(SSA_CK_STAT);
      599     2369    1       IF UWA.RECORD_NAME ~= 'SM' THEN GOTO SSA_NXT_SM1;
      600     2370    1       CURR_RC_SOSM = UWA.DIRECT_REF;
      601     2371    1       GOTO SSA_SM_A;
      602     2372    1   SSA_CK_STAT:
      603     2373    1       IF UWA.DB_STATUS = '0502100' THEN GOTO SSA_CK_A;
      604     2374    1       CALL ABORT;
      605     2375    1   SSA_CK_A:
      606     2376    1       IF SSA_SET_FND = 1 THEN GOTO SSA_CK_A1;
      607     2377    1       IF SMTYPE = 0 THEN
      608     2378    1           PL='                    **** NO AUTOMATIC MEMBER ASSOCIATIONS DEFINED ****';
      609     2379    1       ELSE
      610     2380    1           PL='                    **** NO MANUAL MEMBER ASSOCIATIONS DEFINED ****';
      611     2381    1       CALL LIST(PL);
      612     2382    1   SSA_CK_A1:
      613     2383    1       IF SMTYPE = 0 THEN GOTO SSA_3B;
      614     2384    1       GOTO ACR_ANAL;
      615     2385    1   SSA_SM_A:
      616     2386    1       IF UWA.SM.INSTYPE = SMTYPE THEN GOTO SSA_NXT_SS;
      617     2387    1       GOTO SSA_NXT_SM1;
      618     2388    1   SSA_NXT_SS:
      619     2389    1       CALL FETCHOS_6('SC-SOSM ') ALTRET(DBCS_ERR);
      620     2390    1       CALL FETCHOS_6('SN-SE   ') ALTRET(DBCS_ERR);
      621     2391    1       IF SUBSTR(UWA.SN.SENAME,0,1) = '*' THEN GOTO SSA_NXT_SM1;
      622     2392
      623     2393         /* Check if sc is a key */
      624     2394    1       IF UWA.SC.SETTYPE = 2 OR UWA.SC.SETTYPE = 3 THEN
      625     2395    1           GOTO SSA_NXT_SM1;
      626     2396    1       SSA_SET_FND = 1;
      627     2397    1       CALL QTE(UWA.SN.SENAME);
      628     2398    1       CALL CONCAT(PL , '      SET NAME ' , CHAR_LEN);
      629     2399    1       CALL LIST(PL);
PL6.E3A0      #001=DDY7 File=ZIG$DDY7.:ZIC0TSI                                   FRI 09/05/97 11:55 Page:18
      630     2400    1       CALL FETCHNS_6('SM-SS   ') ALTRET(DBCS_ERR);
      631     2401    1   SSA_TBL_SSREF:
      632     2402    1       SSREFTBL(TSSX) = UWA.DIRECT_REF;
      633     2403    1       IF UWA.S_S.STYP = 3 THEN GOTO SSA_SA;
      634     2404    1       GOTO SEL_TBL;
      635     2405    1   SSA_SA:
      636     2406    1       TSSX = TSSX + 1;
      637     2407    1       CALL FINDD_6('SM  ',UWA.S_S.SOSM_SSH) ALTRET(DBCS_ERR);
      638     2408    1       CALL FETCHNS_6('SM-SS   ') ALTRET(DBCS_ERR);
      639     2409    1       GOTO SSA_TBL_SSREF;
      640     2410    1   SEL_TBL:
      641     2411    1       OWN_PROC = 0;
      642     2412    2       DO K = 0 TO TSSX;
      643     2413    2           X = TSSX - K;
      644     2414    2           CALL FETCHD_6('S-S ',SSREFTBL(X)) ALTRET(DBCS_ERR);
      645     2415    2           IF UWA.S_S.STYP = 3 THEN /* */
      646     2416    2   GET_SO_RET:
      647     2417    2               CALL FETCHNS_6('SM-SS   ') ALTRET(SEL_CK_SM);
      648     2418    2           IF UWA.S_S.STYP = 0 THEN
      649     2419    2               CALL FETCHNS_6('SM-SS   ') ALTRET(SEL_CK_SM);
      650     2420    2           CALL FINDD_6('SC  ',UWA.S_S.SC_SSH) ALTRET(DBCS_ERR);
      651     2421    2           CURR_SC_SSH = UWA.DIRECT_REF; /* For 'SI_ANAL' */
      652     2422    2           CALL FETCHNS_6('SC-SOSM ') ALTRET(DBCS_ERR);
      653     2423    2           CALL FETCHOS_6('RC-SOSM ') ALTRET(DBCS_ERR);
      654     2424    2           CURR_OWN_RC = UWA.DIRECT_REF;
      655     2425    2           CALL FETCHOS_6('SN-SE   ') ALTRET(DBCS_ERR);
      656     2426    2           PL=' ';
      657     2427    2           CALL LIST(PL);
      658     2428    2           CALL QTE(UWA.SN.SENAME);
      659     2429    2           CALL CONCAT(C64,'                OWNER RECORD ' , CHAR_LEN);
      660     2430    2           PL = C64;
      661     2431    2           IF OWN_PROC = 1 THEN GOTO SEL_NXT_RAN;
      662     2432    2           OWN_PROC = 1;
      663     2433    2           IF UWA.RC.PSMODE ~= 1 THEN GOTO SEL_NXT_RAN;
      664     2434    2   SMA_APPL:
      665     2435    2           IF UWA.RC.WITHINA ~= 1 THEN GOTO SMA_DBP;
      666     2436    2   SMA_B5:
PL6.E3A0      #001=DDY7 File=ZIG$DDY7.:ZIC0TSI                                   FRI 09/05/97 11:55 Page:19
      667     2437    2           CALL FETCHNS_6('RC-FR   ') ALTRET(SMA_B5_STAT);
      668     2438    2           IF UWA.FR.F_USE ~= 2 THEN GOTO SMA_B5;
      669     2439    2           CALL FINDD_6('FR  ',UWA.FR.FR_FRH) ALTRET(DBCS_ERR);
      670     2440    2           CALL FETCHOS_6('SN-SE   ') ALTRET(DBCS_ERR);
      671     2441    2           CALL QTE(UWA.SN.SENAME);
      672     2442    2           CALL CONCAT(PL,C64,CHR32,'  AREA SELECTION');
      673     2443    2           CALL LIST(PL);
      674     2444    2           PL = ' '; C64 = ' ';
      675     2445    2           GOTO SMA_B5;
      676     2446    2   SMA_B5_STAT:
      677     2447    2           PL=' ';
      678     2448    2           CALL LIST(PL);
      679     2449    2           IF UWA.DB_STATUS = '0502100' THEN GOTO SEL_NXT_RAN;
      680     2450    2           CALL ABORT;
      681     2451    2   SMA_DBP:
      682     2452    2           IF UWA.RC.WITHINA ~= 2 THEN GOTO SEL_NXT_RAN;
      683     2453    2           CALL FETCHOS_6('SN-SE   ') ALTRET(DBCS_ERR);
      684     2454    2           CALL FETCHNS_6('SNNR-PT ') ALTRET(DBCS_ERR);
      685     2455    2           IF UWA.PT.PTYPE = 22 THEN GOTO SMA_D5_PN;
      686     2456    2           CALL ABORT;
      687     2457    2   SMA_D5_PN:
      688     2458    2           CALL FETCHOS_6('PN-PT   ') ALTRET(DBCS_ERR);
      689     2459    2   SMA_D5_AG:
      690     2460    2           CALL FETCHNS_6('PN-AG   ') ALTRET(SMA_D5_STAT);
      691     2461    2           IF UWA.AG.ATYPE = 1 THEN GOTO SMA_D5_C;
      692     2462    2           IF UWA.AG.ATYPE = 2 THEN GOTO SMA_D5_C;
      693     2463    2           GOTO SMA_D5_AG;
      694     2464    2   SMA_D5_C:
      695     2465    2           CALL FINDD_6('FR  ',UWA.AG.AG_SE) ALTRET(DBCS_ERR);
      696     2466    2           CALL FETCHOS_6('SN-SE   ') ALTRET(DBCS_ERR);
      697     2467    2           CALL QTE(UWA.SN.SENAME);
      698     2468    2           CALL CONCAT(PL,C64,CHR32,'  USING ARGUMENT');
      699     2469    2           CALL LIST(PL);
      700     2470    2           CALL FETCHOS_6('RC-FR   ') ALTRET(DBCS_ERR);
      701     2471    2           CALL FETCHOS_6('SN-SE   ') ALTRET(DBCS_ERR);
      702     2472    2           IF SUBSTR(UWA.SN.SENAME,0,1) = '*' THEN GOTO SMA_D5_D;
      703     2473    2           CALL QTE(UWA.SN.SENAME);
PL6.E3A0      #001=DDY7 File=ZIG$DDY7.:ZIC0TSI                                   FRI 09/05/97 11:55 Page:20
      704     2474    2           PL=' ';
      705     2475    2           CALL INSERT(PL,64,,'IN ' , CHAR_LEN);
      706     2476    2           CALL LIST(PL);
      707     2477    2   SMA_D5_D:
      708     2478    2           PL = ' '; C64 = ' ';
      709     2479    2           GOTO SMA_D5_AG;
      710     2480    2   SMA_D5_STAT:
      711     2481    2           PL=' ';
      712     2482    2           CALL LIST(PL);
      713     2483    2           IF UWA.DB_STATUS ~= '0502100' THEN CALL ABORT;
      714     2484    2           GOTO SEL_NXT_RAN;
      715     2485    2   SEL_CK_SM:
      716     2486    2           IF UWA.DB_STATUS = '0502100' THEN GOTO SEL_TBL_END;
      717     2487    2           CALL ABORT;
      718     2488    2   SEL_NXT_RAN:
      719     2489    2           CALL FINDD_6('RC  ',CURR_OWN_RC) ALTRET(DBCS_ERR);
      720     2490    2   SEL_RAN_1:
      721     2491    2           CALL FETCHNS_6('RC-RA   ') ALTRET(SEL_TST_RC);
      722     2492    2           GOTO SEL_RAN_A;
      723     2493    2   SEL_TST_RC:
      724     2494    2           IF UWA.DB_STATUS = '0502100' THEN GOTO SEL_NXT_CF;
      725     2495    2           CALL ABORT;
      726     2496    2   SEL_RAN_A:
      727     2497    2           CALL FETCHOS_6('AC-RA   ') ALTRET(DBCS_ERR);
      728     2498    2           Y = 0;
      729     2499    2   SEL_RAN_B:
      730     2500    2           IF UWA.DIRECT_REF = ACREFTBL(Y) THEN GOTO SEL_RAN_1;
      731     2501    2           IF Y = TACX THEN GOTO SEL_STR_ACDR;
      732     2502    2           Y = Y + 1;
      733     2503    2           GOTO SEL_RAN_B;
      734     2504    2   SEL_STR_ACDR:
      735     2505    2           ACREFTBL(TACX) = UWA.DIRECT_REF;
      736     2506    2           TACX = TACX + 1;
      737     2507    2           GOTO SEL_RAN_1;
      738     2508    2   SEL_NXT_CF:
      739     2509    2           IF UWA.S_S.STYP = 2 THEN GOTO SEL_BY_APPL;
      740     2510    2           CALL FETCHNS_6('SSSM-CF ') ALTRET(SEL_CK_TYP);
PL6.E3A0      #001=DDY7 File=ZIG$DDY7.:ZIC0TSI                                   FRI 09/05/97 11:55 Page:21
      741     2511    2           GOTO SEL_CF_A;
      742     2512    2   SEL_CK_TYP:
      743     2513    2           IF UWA.DB_STATUS = '0502100' THEN GOTO GET_SO_RET;
      744     2514    2           CALL ABORT;
      745     2515    2   SEL_CF_A:
      746     2516    2           IF UWA.C_F.CTRLTYPE = 2 THEN GOTO SEL_CF_B;
      747     2517    2           GOTO SEL_NXT_CF;
      748     2518    2   SEL_CF_B:
      749     2519    2           FO_DIU = '  SET OCCURRENCE SELECTION';
      750     2520    2   SEL_OWN_CF:
      751     2521    2           CALL FETCHOS_6('FR-CFS  ') ALTRET(DBCS_ERR);
      752     2522    2           IF UWA.FR.SYN = 1 THEN GOTO SEL_OWN_B;
      753     2523    2           GOTO SEL_DIR_FR;
      754     2524    2   SEL_OWN_B:
      755     2525    2           CALL FINDD_6('FR  ',UWA.FR.FR_FRH) ALTRET(DBCS_ERR);
      756     2526    2           CALL FETCHOS_6('SN-SE   ') ALTRET(DBCS_ERR);
      757     2527    2           CALL QTE(UWA.SN.SENAME);
      758     2528    2           CALL CONCAT(PL,C64,CHR32,FO_DIU);
      759     2529    2           CALL LIST(PL);
      760     2530    2           CALL FETCHOS_6('RC-FR   ') ALTRET(DBCS_ERR);
      761     2531    2           CALL FETCHOS_6('SN-SE   ') ALTRET(DBCS_ERR);
      762     2532    2           IF SUBSTR(UWA.SN.SENAME,0,1) = '*' THEN GOTO SEL_OWN_C;
      763     2533    2           CALL QTE(UWA.SN.SENAME);
      764     2534    2           PL=' ';
      765     2535    2           CALL INSERT(PL,64,,'IN ',CHAR_LEN);
      766     2536    2           CALL LIST(PL);
      767     2537    2   SEL_OWN_C:
      768     2538    2           PL = ' '; C64 = ' ';
      769     2539    2           GOTO SEL_NXT_CF;
      770     2540    2   SEL_DIR_FR:
      771     2541    2           CALL FETCHOS_6 ('SN-SE   ') ALTRET(DBCS_ERR);
      772     2542    2           CALL QTE(UWA.SN.SENAME);
      773     2543    2           CALL CONCAT(PL,C64,CHR32,FO_DIU);
      774     2544    2           CALL LIST(PL);
      775     2545    2           PL = ' '; C64 = ' ';
      776     2546    2           GOTO SEL_NXT_CF;
      777     2547    2   SEL_BY_APPL: /* Owner ident by appl */
PL6.E3A0      #001=DDY7 File=ZIG$DDY7.:ZIC0TSI                                   FRI 09/05/97 11:55 Page:22
      778     2548    2           CALL CONCAT(PL,C64,'(IDENTIFIED BY APPLICATION)');
      779     2549    2           CALL LIST(PL);
      780     2550    2           PL=' ';
      781     2551    2           CALL LIST(PL);
      782     2552    2   SEL_TBL_END:
      783     2553    2           END;
      784     2554    1   SI_ANAL:
      785     2555    1       CALL FETCHD_6('SC  ',CURR_SC_SSH) ALTRET(DBCS_ERR);
      786     2556    1       IF UWA.SC.SETORD = 0 THEN GOTO SI_A1;
      787     2557    1       IF UWA.SC.SETORD = 1 THEN GOTO SI_A2;
      788     2558    1       IF UWA.SC.SETORD = 2 THEN GOTO SI_A3;
      789     2559    1       IF UWA.SC.SETORD = 3 THEN GOTO SI_A4;
      790     2560    1       IF UWA.SC.SETORD = 4 THEN GOTO SI_A5;
      791     2561    1       IF UWA.SC.SETORD = 6 THEN GOTO SI_A6;
      792     2562    1       CALL ABORT;
      793     2563    1   SI_A1:
      794     2564    1       PL = '                INSERTION IS FIRST';
      795     2565    1       GOTO SI_A7;
      796     2566    1   SI_A2:
      797     2567    1       PL = '                INSERTION IS LAST';
      798     2568    1       GOTO SI_A7;
      799     2569    1   SI_A3:
      800     2570    1       PL = '                INSERTION IS NEXT';
      801     2571    1       GOTO SI_A7;
      802     2572    1   SI_A4:
      803     2573    1       PL = '                INSERTION IS PRIOR';
      804     2574    1       GOTO SI_A7;
      805     2575    1   SI_A5:
      806     2576    1       PL = '                INSERTION IS SORTED BY DEFINED KEYS';
      807     2577    1       CALL LIST(PL);
      808     2578    1       GOTO SI_A8;
      809     2579    1   SI_A6:
      810     2580    1       PL = '                INSERTION IS SORTED WITHIN RECORD NAME';
      811     2581    1       CALL LIST(PL);
      812     2582    1       GOTO SI_A10;
      813     2583    1   SI_A7:
      814     2584    1       CALL LIST(PL);
PL6.E3A0      #001=DDY7 File=ZIG$DDY7.:ZIC0TSI                                   FRI 09/05/97 11:55 Page:23
      815     2585    1       GOTO DUP_ANAL;
      816     2586    1   SI_A8:
      817     2587    1       IF UWA.SC.SEQDUP = 0 THEN GOTO SI_SEQ_FST;
      818     2588    1       IF UWA.SC.SEQDUP = 1 THEN GOTO SI_SEQ_LST;
      819     2589    1       IF UWA.SC.SEQDUP = 2 THEN GOTO SI_SEQ_NA;
      820     2590    1       CALL ABORT;
      821     2591    1   SI_SEQ_FST:
      822     2592    1       C64 = '                    DUPLICATES ARE FIRST';
      823     2593    1       GOTO SI_A9;
      824     2594    1   SI_SEQ_LST:
      825     2595    1       C64 = '                    DUPLICATES ARE LAST';
      826     2596    1       GOTO SI_A9;
      827     2597    1   SI_SEQ_NA:
      828     2598    1       C64 = '                    DUPLICATES ARE NOT ALLOWED';
      829     2599    1   SI_A9:
      830     2600    1       CALL FINDD_6('SM  ',CURR_RC_SOSM) ALTRET(DBCS_ERR);
      831     2601    1   SI_NXT_CF1:
      832     2602    1       CALL FETCHNS_6('SMSS-CF ') ALTRET(SI_CK_TYP);
      833     2603    1       GOTO SI_CF2;
      834     2604    1   SI_A10:
      835     2605    1       CALL FINDD_6('SM  ',CURR_RC_SOSM) ALTRET(DBCS_ERR);
      836     2606    1       IF UWA.SM.SEQDUP = 0 THEN GOTO SI_SEQ_FST;
      837     2607    1       IF UWA.SM.SEQDUP = 1 THEN GOTO SI_SEQ_LST;
      838     2608    1       IF UWA.SM.SEQDUP = 2 THEN GOTO SI_SEQ_NA;
      839     2609    1       GOTO DBCS_ERR;
      840     2610    1   SI_CK_TYP:
      841     2611    1       IF UWA.DB_STATUS = '0502100' THEN GOTO DUP_ANAL;
      842     2612    1   SI_CF2:
      843     2613    1       IF UWA.C_F.CTRLTYPE = 0 THEN GOTO SI_CF_3;
      844     2614    1       GOTO SI_NXT_CF1;
      845     2615    1   SI_CF_3:
      846     2616    1       IF UWA.C_F.CTRLSEQ = 0 THEN GOTO SI_CF_5;
      847     2617    1   SI_CF_4:
      848     2618    1       FO_DIU = '  DESCENDING SORT KEY';
      849     2619    1       GOTO SI_CF_OWN;
      850     2620    1   SI_CF_5:
      851     2621    1       FO_DIU = '  ASCENDING SORT KEY';
PL6.E3A0      #001=DDY7 File=ZIG$DDY7.:ZIC0TSI                                   FRI 09/05/97 11:55 Page:24
      852     2622    1   SI_CF_OWN:
      853     2623    1       CALL FETCHOS_6('FR-CFS  ') ALTRET(DBCS_ERR);
      854     2624    1       IF UWA.FR.SYN = 1 THEN GOTO SI_OWN_1;
      855     2625    1       GOTO SI_DIR_FR;
      856     2626    1   SI_OWN_1:
      857     2627    1       CALL FINDD_6('FR  ',UWA.FR.FR_FRH) ALTRET(DBCS_ERR);
      858     2628    1       CALL FETCHOS_6('SN-SE   ') ALTRET(DBCS_ERR);
      859     2629    1       CALL QTE(UWA.SN.SENAME);
      860     2630    1       C32 = CHAR_LEN;
      861     2631    1       CALL CONCAT(PL,C64,C32,FO_DIU);
      862     2632    1       CALL LIST(PL);
      863     2633    1       CALL FETCHOS_6('RC-FR   ') ALTRET(DBCS_ERR);
      864     2634    1       CALL FETCHOS_6('SN-SE   ') ALTRET(DBCS_ERR);
      865     2635    1       IF SUBSTR(UWA.SN.SENAME,0,1) = '*' THEN GOTO SI_OWN_2;
      866     2636    1       CALL QTE(UWA.SN.SENAME);
      867     2637    1       PL=' ';
      868     2638    1       CALL INSERT(PL,64,,'IN ',CHAR_LEN);
      869     2639    1       CALL LIST(PL);
      870     2640    1   SI_OWN_2:
      871     2641    1       PL = ' '; C64 = ' ';
      872     2642    1       GOTO SI_NXT_CF1;
      873     2643    1   SI_DIR_FR:
      874     2644    1       CALL FETCHOS_6('SN-SE   ') ALTRET(DBCS_ERR);
      875     2645    1       CALL QTE(UWA.SN.SENAME);
      876     2646    1       C32 = CHAR_LEN;
      877     2647    1       CALL CONCAT(PL,C64,C32,FO_DIU);
      878     2648    1       CALL LIST(PL);
      879     2649    1       PL = ' '; C64 = ' ';
      880     2650    1       GOTO SI_NXT_CF1;
      881     2651    1   DUP_ANAL:
      882     2652    1       PL=' ';
      883     2653    1       CALL LIST(PL);
      884     2654    1       CALL FETCHD_6('SM  ',CURR_RC_SOSM) ALTRET(DBCS_ERR);
      885     2655    1       IF UWA.SM.MEMDUP = 0 THEN GOTO SSA_NXT_SM;
      886     2656    1       CALL CONCAT(C64,'                DUPLICATES DISALLOWED FOR:');
      887     2657    1       PL = C64;
      888     2658    1   DUP_NXT_CF2:
PL6.E3A0      #001=DDY7 File=ZIG$DDY7.:ZIC0TSI                                   FRI 09/05/97 11:55 Page:25
      889     2659    1       CALL FETCHNS_6('SMSS-CF ') ALTRET(DUP_CK_STAT);
      890     2660    1       GOTO DUP_NXT_CF3;
      891     2661    1   DUP_CK_STAT:
      892     2662    1       PL=' ';
      893     2663    1       CALL LIST(PL);
      894     2664    1       IF UWA.DB_STATUS = '0502100' THEN GOTO SSA_NXT_SM;
      895     2665    1       CALL ABORT;
      896     2666    1   DUP_NXT_CF3:
      897     2667    1       IF UWA.C_F.CTRLTYPE = 1 THEN GOTO DUP_NXT_CF4;
      898     2668    1       GOTO DUP_NXT_CF2;
      899     2669    1   DUP_NXT_CF4:
      900     2670    1       CALL FETCHOS_6('FR-CFS  ') ALTRET(DBCS_ERR);
      901     2671    1       IF UWA.FR.SYN = 1 THEN GOTO DUP_NXT_CF5;
      902     2672    1       GOTO DUP_NXT_CF6;
      903     2673    1   DUP_NXT_CF5:
      904     2674    1       CALL FINDD_6('FR  ',UWA.FR.FR_FRH) ALTRET(DBCS_ERR);
      905     2675    1       CALL FETCHOS_6('SN-SE   ') ALTRET(DBCS_ERR);
      906     2676    1       CALL QTE(UWA.SN.SENAME);
      907     2677    1       CALL CONCAT(PL,C64,CHR32,'  DUPLICATES CTL. FIELD');
      908     2678    1       CALL LIST(PL);
      909     2679    1       CALL FETCHOS_6('RC-FR   ') ALTRET(DBCS_ERR);
      910     2680    1       CALL FETCHOS_6('SN-SE   ') ALTRET(DBCS_ERR);
      911     2681    1       IF SUBSTR(UWA.SN.SENAME,0,1) = '*' THEN GOTO DUP_NXT_5A;
      912     2682    1       CALL QTE(UWA.SN.SENAME);
      913     2683    1       PL=' ';
      914     2684    1       CALL INSERT(PL,64,,'IN ',CHAR_LEN);
      915     2685    1       CALL LIST(PL);
      916     2686    1   DUP_NXT_5A:
      917     2687    1       PL = ' '; C64 = ' ';
      918     2688    1       GOTO DUP_NXT_CF2;
      919     2689    1   DUP_NXT_CF6:
      920     2690    1       CALL FETCHOS_6('SN-SE   ') ALTRET(DBCS_ERR);
      921     2691    1       CALL QTE(UWA.SN.SENAME);
      922     2692    1       CALL CONCAT(PL,C64,CHR32,'  DUPLICATES CTL. FIELD');
      923     2693    1       CALL LIST(PL);
      924     2694    1       PL = ' '; C64 = ' ';
      925     2695    1       GOTO DUP_NXT_CF2;
PL6.E3A0      #001=DDY7 File=ZIG$DDY7.:ZIC0TSI                                   FRI 09/05/97 11:55 Page:26
      926     2696    1   ACR_ANAL:
      927     2697    1       PL=' ';
      928     2698    1       CALL LIST(PL);
      929     2699    1       PL = 'AREA CROSS-REFERENCE ANALYSIS:';
      930     2700    1       CALL LIST(PL);
      931     2701    1       PL=' ';
      932     2702    1       CALL LIST(PL);
      933     2703    1       PL = '  AREA(S) REFERENCED BY';
      934     2704    1       CALL LIST(PL);
      935     2705    1       C32 = '    "WITHIN AREA NAME" CLAUSE:';
      936     2706    1       PL = C32;
      937     2707    1       CALL FINDD_6('RC  ',CURR_RC) ALTRET(DBCS_ERR);
      938     2708    1       ACR_WA_SW = 0;
      939     2709    1   ACR_ANAL1:
      940     2710    1       CALL FETCHNS_6('RC-RA   ') ALTRET(ACR_CK_STAT);
      941     2711    1       GOTO ACR_A2;
      942     2712    1   ACR_CK_STAT:
      943     2713    1       IF UWA.DB_STATUS = '0502100' THEN GOTO ACR_A3;
      944     2714    1       CALL ABORT;
      945     2715    1   ACR_A2:
      946     2716    1       ACR_WA_SW = 1;
      947     2717    1       CALL FETCHOS_6('AC-RA   ') ALTRET(DBCS_ERR);
      948     2718    1       CALL FETCHOS_6('SN-SE   ') ALTRET(DBCS_ERR);
      949     2719    1       CALL QTE(UWA.SN.SENAME);
      950     2720    1       CALL CONCAT(PL,C32,CHAR_LEN);
      951     2721    1       CALL LIST(PL);
      952     2722    1       PL = ' '; C32 = ' ';
      953     2723    1       GOTO ACR_ANAL1;
      954     2724    1   ACR_A3:
      955     2725    1       IF ACR_WA_SW = 1 THEN GOTO ACR_ANAL2;
      956     2726    1       CALL LIST(PL);
      957     2727    1       PL=' ';
      958     2728    1       CALL LIST(PL);
      959     2729    1       PL = '                    **** NONE REFERENCED ****';
      960     2730    1       CALL LIST(PL);
      961     2731    1   ACR_ANAL2:
      962     2732    1       PL=' ';
PL6.E3A0      #001=DDY7 File=ZIG$DDY7.:ZIC0TSI                                   FRI 09/05/97 11:55 Page:27
      963     2733    1       CALL LIST(PL);
      964     2734    1       PL = '  AREA(S) REFERENCED BY';
      965     2735    1       CALL LIST(PL);
      966     2736    1       C32 = '    "SET SELECTION" CLAUSE:';
      967     2737    1       PL = C32;
      968     2738    1       Y = 0;
      969     2739    1       IF ACREFTBL(Y) = 0 THEN GOTO ACR_ANAL4;
      970     2740    1   ACR_ANAL3:
      971     2741    1       CALL FINDD_6('AC  ',ACREFTBL(Y)) ALTRET(DBCS_ERR);
      972     2742    1       CALL FETCHOS_6('AC-RA   ') ALTRET(DBCS_ERR);
      973     2743    1       CALL FETCHOS_6('SN-SE   ') ALTRET(DBCS_ERR);
      974     2744    1       CALL QTE(UWA.SN.SENAME);
      975     2745    1       CALL CONCAT(PL,C32,CHAR_LEN);
      976     2746    1       CALL LIST(PL);
      977     2747    1       PL = ' '; C32 = ' ';
      978     2748    1       Y = Y + 1;
      979     2749    1       IF Y = TACX THEN GOTO ACR_ANAL5;
      980     2750    1       GOTO ACR_ANAL3;
      981     2751    1   ACR_ANAL4:
      982     2752    1       CALL LIST(PL);
      983     2753    1       PL = '                    **** NONE REFERENCED ****';
      984     2754    1       CALL LIST(PL);
      985     2755    1   ACR_ANAL5:
      986     2756    1       PL=' ';
      987     2757    1       CALL LIST(PL);
      988     2758    1       GOTO NEXT_RC;
      989     2759
      990     2760    1   END_APPL:
      991     2761    1       IF UWA.DB_STATUS = '0502100' THEN GOTO DB_FINISH;
      992     2762    1       GOTO DBCS_ERR;
      993     2763    1   DB_FINISH:
      994     2764    1       RETURN;
      995     2765    1   DBCS_ERR:
      996     2766    1       PL=' ';
      997     2767    1       CALL LIST(PL);
      998     2768    1       PL = '**** DBCS ERROR - ACTIVITY ABORTS ****';
      999     2769    1       CALL LIST(PL);
PL6.E3A0      #001=DDY7 File=ZIG$DDY7.:ZIC0TSI                                   FRI 09/05/97 11:55 Page:28
     1000     2770    1       CALL CONCAT(PL , '**** ABNORMAL STATUS = ' , UWA.DB_STATUS , ' ****');
     1001     2771    1       CALL LIST(PL);
     1002     2772    1       CALL ABORT;
     1003     2773    1   QTE:
     1004     2774    1       PROC(CST) ;
     1005     2775    2   DCL CST CHAR(30);
     1006     2776    2       CALL INDEX1(LEN,' ',CST);
     1007     2777    2       LEN=LEN+1;
     1008     2778    2       CALL CONCAT(CHAR_LEN,'"',CST);
     1009     2779    2       CALL INSERT(CHAR_LEN,LEN ,1,'"');
     1010     2780    2       LEN = LEN + 1;
     1011     2781    2       CHR32 = CHAR_LEN;
     1012     2782    2   END; /* Qte */
     1013     2783    1   END;

PL6.E3A0      #001=DDY7 File=ZIG$DDY7.:ZIC0TSI                                   FRI 09/05/97 11:55 Page:29
--  Include file information  --

   ZIG_GENERAL.:ZIC0TOU  cannot be made into a system file and is referenced.
   ZI_SUB4_CAN.:ZIC0TOU  is referenced.
   ZI_ERRORS_SUBS.:ZIC0TOU  is referenced.
   ZIA_IDS_DCL.:ZIC0TOU  cannot be made into a system file and is referenced.
   ZIG_DBA_INT.:ZIC0TOU  cannot be made into a system file and is referenced.
   B$JIT_C.:E05TOU  was found in the system file and is never referenced.
   CP_6_C.:E05TOU  was found in the system file and is never referenced.
      No diagnostics issued in procedure DDY7.

   Procedure DDY7 requires 2942 words for executable code.
   Procedure DDY7 requires 116 words of local(AUTO) storage.

    No errors detected in file ZIG$DDY7.:ZIC0TSI    .

PL6.E3A0      #001=DDY7 File=ZIG$DDY7.:ZIC0TSI                                   FRI 09/05/97 11:55 Page:30

 Object Unit name= DDY7                                       File name= ZIG$DDY7.:ZIC0TOU
 UTS= SEP 05 '97 11:55:14.68 FRI                              Compiler= PL-6/E31         Sev=      00
 SharedLib= :SHARED_SYSTEM                                    Alt SharedLib=


    ****  Control sections  ****

 Sect   Type Bound  Init  Size OctSiz  Section name(segment info)
    0  LblCom even  none     1      1  NUM_ERROR_MSG
    1  LblCom even  none     1      1  NUM_WARN_MSG
    2  LblCom even  none     1      1  ALLOCATE_END
    3  LblCom even  none     2      2  SUBSCHEMA_KEY
    4  LblCom even  none     1      1  BUFFER$
    5  LblCom even  none     1      1  ERROR_IO
    6  LblCom even  none     1      1  BUFFER_LEN
    7  LblCom even  none     2      2  UWA_KEY
    8  LblCom even  none     1      1  NEXT_UWA_SECOND_HALF
    9  LblCom even  none     2      2  RVA_KEY
   10  LblCom even  none     2      2  IA__KEY
   11  LblCom even  none     1      1  NEXT_RVA_SECOND_HALF
   12  LblCom even  none    32     40  SEARCHR_NB
   13  LblCom even  none    32     40  SEM_COM
   14  LblCom even  none    32     40  DMCL_XLATE
   15  LblCom even  none    32     40  Q2_PERCENT
   16  LblCom even  none   656   1220  UWA
   17   Data  even  none   155    233  DDY7
   18  RoData even  UTS    716   1314  DDY7
   19   Proc  even  none  2942   5576  DDY7
   20  RoData even  none    82    122  DDY7

    ****  Entry defs  ****

                              Check   Calling
                             calling  sequence
  Sect OctLoc Primary Altret sequence   type   Parms  Name
    19      0   yes            yes      Std        0  DDY7
PL6.E3A0      #001=DDY7 File=ZIG$DDY7.:ZIC0TSI                                   FRI 09/05/97 11:55 Page:31

  ****  Entry refs  ****

         Check        Calling
        calling       sequence
Altret sequence SRef   type   Args  Name
         yes           Std       2 SUBHD
 yes     yes           Std       2 FETCHD_6
 yes     yes           Std       1 FETCHOS_6
 yes     yes           Std       2 FINDD_6
         yes           Std       1 LIST
 yes     yes           Std       1 FETCHNS_6
         yes           Std       0 ABORT
                       nStd      0 X66_AUTO_0
                       nStd      0 X66_ARET

  ****  Data refs  ****

  Flags:  r = read only, s = secondary
Flgs Name                             Flgs Name                             Flgs Name
     LNCNT

  ****  Segment refs  ****

  Flags:  r = read only, s = secondary
Flgs Name                             Flgs Name                             Flgs Name
     ISSID
PL6.E3A0      #001=DDY7 File=ZIG$DDY7.:ZIC0TSI                                   FRI 09/05/97 11:55 Page:32


        1        1        /*M* ZIG$DDY7         I-D-S/II            DBACS    */
        2        2        /*T***********************************************************/
        3        3        /*T*                                                         */
        4        4        /*T* Copyright (c) Bull HN Information Systems Inc., 1997    */
        5        5        /*T*                                                         */
        6        6        /*T***********************************************************/
        7        7        DDY7:
        8        8            PROC;

      8 19 000000   000000 700200 xent  DDY7         TSX0  ! X66_AUTO_0
        19 000001   000164 000000                    ZERO    116,0

        9        9        %INCLUDE ZIG_DBA_INT;
       10       57        %INCLUDE ZIA_IDS_DCL;
       11      165        %INCLUDE ZI_ERRORS_SUBS;
       12      685        %INCLUDE ZI_SUB4_CAN;
       13     1342        %INCLUDE ZIG_GENERAL;
       14     1450        %UWA;
       15     1785    1   DCL CLOSEL ENTRY;
       16     1786    1   DCL FO_DIU CHAR(30);
       17     1787    1   DCL TSSX SBIN WORD STATIC INIT(0);
       18     1788    1   DCL SSREFTBL(0:39) UBIN WORD STATIC INIT(0*40);
       19     1789    1   DCL SMTYPE SBIN HALF STATIC INIT(0);
       20     1790    1   DCL SS_DIR_REF SBIN WORD;
       21     1791    1   DCL X SBIN WORD STATIC INIT(0);
       22     1792    1   DCL TACX SBIN WORD STATIC INIT(0);
       23     1793    1   DCL Y SBIN WORD STATIC INIT(0);
       24     1794    1   DCL K SBIN WORD;
       25     1795    1   DCL HOLD_FR UBIN (36);
       26     1796    1   DCL ACREFTBL(0:99) UBIN WORD STATIC INIT(0*100);
       27     1797    1   DCL SUBHD ENTRY(2);
       28     1798    1   DCL PL CHAR(128);
       29     1799    1   DCL NAMEQ CHAR(36);
       30     1800    1   DCL Z SBIN HALF;
       31     1801    1   DCL SE_TYPE_LN CHAR(30);
       32     1802    1   DCL SSA_SET_FND SBIN WORD STATIC INIT(0);
PL6.E3A0      #001=DDY7 File=ZIG$DDY7.:ZIC0TSI                                   FRI 09/05/97 11:55 Page:33
       33     1803    1   DCL OWN_PROC SBIN WORD STATIC INIT(0);
       34     1804    1   DCL ACR_WA_SW SBIN WORD STATIC INIT(0);
       35     1805    1   DCL 1 CURR_DA_SN UBIN WORD;
       36     1806    1   DCL 1 CURR_OWN_RC UBIN WORD;
       37     1807    1   DCL 1 CURR_RC UBIN WORD;
       38     1808    1   DCL 1 CURR_RC_SOSM UBIN WORD;
       39     1809    1   DCL 1 CURR_FR UBIN WORD;
       40     1810    1   DCL 1 CURR_SC_SSH UBIN WORD;
       41     1811    1   DCL PROC_TYP SBIN WORD STATIC INIT(0);
       42     1812    1   DCL CURR_PT UBIN WORD STATIC INIT(0);
       43     1813    1   DCL CURR_PT1 UBIN WORD STATIC INIT(0);
       44     1814    1   DCL ENC_AG_FND SBIN WORD STATIC INIT(0);
       45     1815    1   DCL CHK_AG_FND SBIN WORD STATIC INIT(0);
       46     1816    1   DCL PROC_FND SBIN WORD STATIC INIT(0);
       47     1817    1   DCL LEN UBIN WORD STATIC INIT(0);
       48     1818    1   DCL CHAR_LEN BASED(CHAR$) CHAR(LEN);
       49     1819    1   DCL CHAR$ PTR;
       50     1820    1   DCL CHAR32 CHAR(32);
       51     1821    1   DCL CHR32 CHAR(32);
       52     1822    1   DCL C64 CHAR(64);
       53     1823    1   DCL C32 CHAR(32);
       54     1824    1   DCL LNCNT UBIN(36) SYMREF ALIGNED;
       55     1825    1   DCL SUBMESS CHAR(0) CONSTANT INIT('DATA BASE DATA STRUCTURE SUMMARY');
       56     1826    1       CHAR$ = ADDR(CHAR32);

   1826 19 000002   200107 630500                    EPPR0   CHAR32,,AUTO
        19 000003   200106 450500                    STP0    CHAR$,,AUTO

       57     1827    1       CALL SUBHD(SUBMESS,LENGTHC(SUBMESS));

   1827 19 000004   000002 630400 20                 EPPR0   2
        19 000005   000000 631400 20                 EPPR1   0
        19 000006   000000 701000 xent               TSX1    SUBHD
        19 000007   000000 011000                    NOP     0

       58     1828    1       CALL FETCHD_6('SF  ',2) ALTRET(DBCS_ERR);

PL6.E3A0      #001=DDY7 File=ZIG$DDY7.:ZIC0TSI                                   FRI 09/05/97 11:55 Page:34
   1828 19 000010   000005 630400 20                 EPPR0   5
        19 000011   000000 631400 20                 EPPR1   0
        19 000012   000000 701000 xent               TSX1    FETCHD_6
        19 000013   005470 702000 19                 TSX2    DBCS_ERR

       59     1829    1       CALL FETCHD_6('OA  ',UWA.SF.DBKEY_OA) ALTRET(DBCS_ERR);

   1829 19 000014   000007 630400 20                 EPPR0   7
        19 000015   000000 631400 20                 EPPR1   0
        19 000016   000000 701000 xent               TSX1    FETCHD_6
        19 000017   005470 702000 19                 TSX2    DBCS_ERR

       60     1830    1       CALL FETCHOS_6('SN-SE   ') ALTRET(DBCS_ERR);

   1830 19 000020   000012 630400 20                 EPPR0   10
        19 000021   000011 631400 20                 EPPR1   9
        19 000022   000000 701000 xent               TSX1    FETCHOS_6
        19 000023   005470 702000 19                 TSX2    DBCS_ERR

       61     1831    1       CALL QTE(UWA.SN.SENAME);

   1831 19 000024   000013 236000 20                 LDQ     11
        19 000025   200161 756100                    STQ     C32+10,,AUTO
        19 000026   005535 701000 19                 TSX1    QTE
        19 000027   000000 011000                    NOP     0

       62     1832    1       CALL CONCAT(PL,'SCHEMA NAME ',CHAR_LEN);

   1832 19 000030   040100 100400                    MLR     fill='040'O
        19 000031   000014 000014 18                 ADSC9   SUBMESS+12               cn=0,n=12
        19 000032   200016 000014                    ADSC9   PL,,AUTO                 cn=0,n=12
        19 000033   200106 470500                    LDP0    CHAR$,,AUTO
        19 000034   000232 720000 17                 LXL0    LEN
        19 000035   040100 100540                    MLR     fill='040'O
        19 000036   000000 000010                    ADSC9   0,,PR0                   cn=0,n=*X0
        19 000037   200021 000164                    ADSC9   PL+3,,AUTO               cn=0,n=116

PL6.E3A0      #001=DDY7 File=ZIG$DDY7.:ZIC0TSI                                   FRI 09/05/97 11:55 Page:35
       63     1833    1       CALL LIST(PL);

   1833 19 000040   200016 630500                    EPPR0   PL,,AUTO
        19 000041   200162 450500                    STP0    @CST+1,,AUTO
        19 000042   200162 630500                    EPPR0   @CST+1,,AUTO
        19 000043   000011 631400 20                 EPPR1   9
        19 000044   000000 701000 xent               TSX1    LIST
        19 000045   000000 011000                    NOP     0

       64     1834    1       PL=' ';

   1834 19 000046   040100 100400                    MLR     fill='040'O
        19 000047   000014 000001 20                 ADSC9   12                       cn=0,n=1
        19 000050   200016 000200                    ADSC9   PL,,AUTO                 cn=0,n=128

       65     1835    1       CALL LIST(PL);

   1835 19 000051   200016 630500                    EPPR0   PL,,AUTO
        19 000052   200162 450500                    STP0    @CST+1,,AUTO
        19 000053   200162 630500                    EPPR0   @CST+1,,AUTO
        19 000054   000011 631400 20                 EPPR1   9
        19 000055   000000 701000 xent               TSX1    LIST
        19 000056   000000 011000                    NOP     0

       66     1836    1       CALL FETCHD_6('DA  ',UWA.SF.DBKEY_DA) ALTRET(DBCS_ERR);

   1836 19 000057   000015 630400 20                 EPPR0   13
        19 000060   000000 631400 20                 EPPR1   0
        19 000061   000000 701000 xent               TSX1    FETCHD_6
        19 000062   005470 702000 19                 TSX2    DBCS_ERR

       67     1837    1       CALL FETCHD_6('SN  ',UWA.DA.FRST_RC) ALTRET(DBCS_ERR);

   1837 19 000063   000017 630400 20                 EPPR0   15
        19 000064   000000 631400 20                 EPPR1   0
        19 000065   000000 701000 xent               TSX1    FETCHD_6
        19 000066   005470 702000 19                 TSX2    DBCS_ERR
PL6.E3A0      #001=DDY7 File=ZIG$DDY7.:ZIC0TSI                                   FRI 09/05/97 11:55 Page:36

       68     1838    1       GOTO NEXT_RC1;

   1838 19 000067   000100 710000 19                 TRA     NEXT_RC1

       69     1839    1   NEXT_RC:
       70     1840    1       CALL FINDD_6('SN  ',CURR_DA_SN) ALTRET(DBCS_ERR);

   1840 19 000070   200100 630500       NEXT_RC      EPPR0   CURR_DA_SN,,AUTO
        19 000071   200163 450500                    STP0    @CST+2,,AUTO
        19 000072   000017 236000 20                 LDQ     15
        19 000073   200162 756100                    STQ     @CST+1,,AUTO
        19 000074   200162 630500                    EPPR0   @CST+1,,AUTO
        19 000075   000000 631400 20                 EPPR1   0
        19 000076   000000 701000 xent               TSX1    FINDD_6
        19 000077   005470 702000 19                 TSX2    DBCS_ERR

       71     1841    1   NEXT_RC1:
       72     1842    1       X = 0;

   1842 19 000100   000052 450000 17    NEXT_RC1     STZ     X

       73     1843    1       Y = 0;

   1843 19 000101   000054 450000 17                 STZ     Y

       74     1844    1       TSSX = 0;

   1844 19 000102   000000 450000 17                 STZ     TSSX

       75     1845    1       TACX = 0;

   1845 19 000103   000053 450000 17                 STZ     TACX

       76     1846    1       SSREFTBL = '0'B;

   1846 19 000104   000000 100400                    MLR     fill='000'O
PL6.E3A0      #001=DDY7 File=ZIG$DDY7.:ZIC0TSI                                   FRI 09/05/97 11:55 Page:37
        19 000105   000021 000001 20                 ADSC9   17                       cn=0,n=1
        19 000106   000001 000240 17                 ADSC9   SSREFTBL                 cn=0,n=160

       77     1847    1       ACREFTBL = '0'B;

   1847 19 000107   000000 100400                    MLR     fill='000'O
        19 000110   000021 000001 20                 ADSC9   17                       cn=0,n=1
        19 000111   000055 000620 17                 ADSC9   ACREFTBL                 cn=0,n=400

       78     1848    1   NEXT_RC2:
       79     1849    1       CALL FETCHNS_6('DA-SN   ') ALTRET(END_APPL);

   1849 19 000112   000022 630400 20    NEXT_RC2     EPPR0   18
        19 000113   000011 631400 20                 EPPR1   9
        19 000114   000000 701000 xent               TSX1    FETCHNS_6
        19 000115   005462 702000 19                 TSX2    END_APPL

       80     1850    1       IF UWA.SN.SETYPE = 40 THEN GOTO NXT_RC_3;

   1850 19 000116   000424 235000 16                 LDA     UWA+276
        19 000117   000050 115007                    CMPA    40,DL
        19 000120   000122 600000 19                 TZE     NXT_RC_3

       81     1851    1       GOTO DB_FINISH;

   1851 19 000121   005467 710000 19                 TRA     DB_FINISH

       82     1852    1   NXT_RC_3:
       83     1853    1       IF SUBSTR(UWA.SN.SENAME,0,1) = '*' THEN GOTO NEXT_RC2;

   1853 19 000122   000427 236000 16    NXT_RC_3     LDQ     UWA+279
        19 000123   777000 376003                    ANQ     -512,DU
        19 000124   052000 116003                    CMPQ    21504,DU
        19 000125   000112 600000 19                 TZE     NEXT_RC2

       84     1854    1       CURR_DA_SN = UWA.DIRECT_REF;

PL6.E3A0      #001=DDY7 File=ZIG$DDY7.:ZIC0TSI                                   FRI 09/05/97 11:55 Page:38
   1854 19 000126   000036 236000 16                 LDQ     UWA+30
        19 000127   200100 756100                    STQ     CURR_DA_SN,,AUTO

       85     1855    1       PL = '****';

   1855 19 000130   040100 100400                    MLR     fill='040'O
        19 000131   000023 000004 18                 ADSC9   SUBMESS+19               cn=0,n=4
        19 000132   200016 000200                    ADSC9   PL,,AUTO                 cn=0,n=128

       86     1856    1       LNCNT = 9999; /* FORCE NEW PAGE */

   1856 19 000133   023417 235007                    LDA     9999,DL
        19 000134   000000 755000 xsym               STA     LNCNT

       87     1857    1       CALL LIST(PL);

   1857 19 000135   200016 630500                    EPPR0   PL,,AUTO
        19 000136   200162 450500                    STP0    @CST+1,,AUTO
        19 000137   200162 630500                    EPPR0   @CST+1,,AUTO
        19 000140   000011 631400 20                 EPPR1   9
        19 000141   000000 701000 xent               TSX1    LIST
        19 000142   000000 011000                    NOP     0

       88     1858    1       CALL QTE(UWA.SN.SENAME);

   1858 19 000143   000013 236000 20                 LDQ     11
        19 000144   200161 756100                    STQ     C32+10,,AUTO
        19 000145   005535 701000 19                 TSX1    QTE
        19 000146   000000 011000                    NOP     0

       89     1859    1       CALL CONCAT(PL,'SUMMARY FOR RECORD ',CHAR_LEN,' ***');

   1859 19 000147   040100 100400                    MLR     fill='040'O
        19 000150   000024 000023 18                 ADSC9   SUBMESS+20               cn=0,n=19
        19 000151   200016 000023                    ADSC9   PL,,AUTO                 cn=0,n=19
        19 000152   200106 470500                    LDP0    CHAR$,,AUTO
        19 000153   000232 720000 17                 LXL0    LEN
PL6.E3A0      #001=DDY7 File=ZIG$DDY7.:ZIC0TSI                                   FRI 09/05/97 11:55 Page:39
        19 000154   040100 100540                    MLR     fill='040'O
        19 000155   000000 000010                    ADSC9   0,,PR0                   cn=0,n=*X0
        19 000156   200022 600155                    ADSC9   PL+4,,AUTO               cn=3,n=109
        19 000157   000232 236000 17                 LDQ     LEN
        19 000160   000155 116007                    CMPQ    109,DL
        19 000161   000167 603000 19                 TRC     s:1860
        19 000162   777622 621006                    EAX1    -110,QL
        19 000163   777777 661003                    ERX1    -1,DU
        19 000164   040146 100400                    MLR     fill='040'O
        19 000165   000031 000004 18                 ADSC9   SUBMESS+25               cn=0,n=4
        19 000166   200022 600011                    ADSC9   PL+4,Q,AUTO              cn=3,n=*X1

       90     1860    1       CALL LIST(PL);

   1860 19 000167   200016 631500                    EPPR1   PL,,AUTO
        19 000170   200162 451500                    STP1    @CST+1,,AUTO
        19 000171   200162 630500                    EPPR0   @CST+1,,AUTO
        19 000172   000011 631400 20                 EPPR1   9
        19 000173   000000 701000 xent               TSX1    LIST
        19 000174   000000 011000                    NOP     0

       91     1861    1       PL=' ';

   1861 19 000175   040100 100400                    MLR     fill='040'O
        19 000176   000014 000001 20                 ADSC9   12                       cn=0,n=1
        19 000177   200016 000200                    ADSC9   PL,,AUTO                 cn=0,n=128

       92     1862    1       CALL INSERT(PL,64,,'CONTROL DATA ITEMS:               DATA ITEM USAGE IS:');

   1862 19 000200   040100 100400                    MLR     fill='040'O
        19 000201   000032 000065 18                 ADSC9   SUBMESS+26               cn=0,n=53
        19 000202   200036 000100                    ADSC9   PL+16,,AUTO              cn=0,n=64

       93     1863    1       CALL LIST(PL);

   1863 19 000203   200016 630500                    EPPR0   PL,,AUTO
        19 000204   200162 450500                    STP0    @CST+1,,AUTO
PL6.E3A0      #001=DDY7 File=ZIG$DDY7.:ZIC0TSI                                   FRI 09/05/97 11:55 Page:40
        19 000205   200162 630500                    EPPR0   @CST+1,,AUTO
        19 000206   000011 631400 20                 EPPR1   9
        19 000207   000000 701000 xent               TSX1    LIST
        19 000210   000000 011000                    NOP     0

       94     1864    1       PL = 'DATA BASE KEY ASSIGNMENT ANALYSIS:';

   1864 19 000211   040100 100400                    MLR     fill='040'O
        19 000212   000050 000042 18                 ADSC9   SUBMESS+40               cn=0,n=34
        19 000213   200016 000200                    ADSC9   PL,,AUTO                 cn=0,n=128

       95     1865    1       CALL LIST(PL);

   1865 19 000214   200016 630500                    EPPR0   PL,,AUTO
        19 000215   200162 450500                    STP0    @CST+1,,AUTO
        19 000216   200162 630500                    EPPR0   @CST+1,,AUTO
        19 000217   000011 631400 20                 EPPR1   9
        19 000220   000000 701000 xent               TSX1    LIST
        19 000221   000000 011000                    NOP     0

       96     1866    1       PL=' ';

   1866 19 000222   040100 100400                    MLR     fill='040'O
        19 000223   000014 000001 20                 ADSC9   12                       cn=0,n=1
        19 000224   200016 000200                    ADSC9   PL,,AUTO                 cn=0,n=128

       97     1867    1       CALL LIST(PL);

   1867 19 000225   200016 630500                    EPPR0   PL,,AUTO
        19 000226   200162 450500                    STP0    @CST+1,,AUTO
        19 000227   200162 630500                    EPPR0   @CST+1,,AUTO
        19 000230   000011 631400 20                 EPPR1   9
        19 000231   000000 701000 xent               TSX1    LIST
        19 000232   000000 011000                    NOP     0

       98     1868    1       CALL FETCHNS_6('SN-SE   ') ALTRET(DBCS_ERR);

PL6.E3A0      #001=DDY7 File=ZIG$DDY7.:ZIC0TSI                                   FRI 09/05/97 11:55 Page:41
   1868 19 000233   000012 630400 20                 EPPR0   10
        19 000234   000011 631400 20                 EPPR1   9
        19 000235   000000 701000 xent               TSX1    FETCHNS_6
        19 000236   005470 702000 19                 TSX2    DBCS_ERR

       99     1869    1       CURR_RC = UWA.DIRECT_REF;

   1869 19 000237   000036 235000 16                 LDA     UWA+30
        19 000240   200102 755100                    STA     CURR_RC,,AUTO

      100     1870    1       IF UWA.RC.PSMODE = 0 THEN GOTO DIR_MODE;

   1870 19 000241   000271 236000 16                 LDQ     UWA+185
        19 000242   000254 600000 19                 TZE     DIR_MODE

      101     1871    1       IF UWA.RC.PSMODE = 1 THEN GOTO CALC_MODE;

   1871 19 000243   000001 116007                    CMPQ    1,DL
        19 000244   000502 600000 19                 TZE     CALC_MODE

      102     1872    1       IF UWA.RC.PSMODE = 2 THEN GOTO VIA_MODE;

   1872 19 000245   000002 116007                    CMPQ    2,DL
        19 000246   000621 600000 19                 TZE     VIA_MODE

      103     1873    1       IF UWA.RC.PSMODE = 4 THEN GOTO INDEX_MODE;

   1873 19 000247   000004 116007                    CMPQ    4,DL
        19 000250   000361 600000 19                 TZE     INDEX_MODE

      104     1874    1       CALL ABORT;

   1874 19 000251   000021 631400 20                 EPPR1   17
        19 000252   000000 701000 xent               TSX1    ABORT
        19 000253   000000 011000                    NOP     0

      105     1875    1   DIR_MODE:
PL6.E3A0      #001=DDY7 File=ZIG$DDY7.:ZIC0TSI                                   FRI 09/05/97 11:55 Page:42
      106     1876    1       C64 = '  LOCATION MODE IS DIRECT';

   1876 19 000254   040100 100400       DIR_MODE     MLR     fill='040'O
        19 000255   000061 000031 18                 ADSC9   SUBMESS+49               cn=0,n=25
        19 000256   200127 000100                    ADSC9   C64,,AUTO                cn=0,n=64

      107     1877    1   DIR_B5:
      108     1878    1       CALL FETCHNS_6('RC-FR   ') ALTRET(DB5_STAT);

   1878 19 000257   000023 630400 20    DIR_B5       EPPR0   19
        19 000260   000011 631400 20                 EPPR1   9
        19 000261   000000 701000 xent               TSX1    FETCHNS_6
        19 000262   000352 702000 19                 TSX2    DB5_STAT

      109     1879    1       IF UWA.FR.F_USE ~= 3 THEN GOTO DIR_B5;

   1879 19 000263   000343 235000 16                 LDA     UWA+227
        19 000264   000003 115007                    CMPA    3,DL
        19 000265   000257 601000 19                 TNZ     DIR_B5

      110     1880    1       HOLD_FR = UWA.DIRECT_REF;

   1880 19 000266   000036 236000 16                 LDQ     UWA+30
        19 000267   200015 756100                    STQ     HOLD_FR,,AUTO

      111     1881    1       CALL FINDD_6('FR  ',UWA.FR.FR_FRH) ALTRET(DBCS_ERR);

   1881 19 000270   000024 630400 20                 EPPR0   20
        19 000271   000000 631400 20                 EPPR1   0
        19 000272   000000 701000 xent               TSX1    FINDD_6
        19 000273   005470 702000 19                 TSX2    DBCS_ERR

      112     1882    1       CALL FETCHOS_6('SN-SE   ') ALTRET(DBCS_ERR);

   1882 19 000274   000012 630400 20                 EPPR0   10
        19 000275   000011 631400 20                 EPPR1   9
        19 000276   000000 701000 xent               TSX1    FETCHOS_6
PL6.E3A0      #001=DDY7 File=ZIG$DDY7.:ZIC0TSI                                   FRI 09/05/97 11:55 Page:43
        19 000277   005470 702000 19                 TSX2    DBCS_ERR

      113     1883    1       CALL QTE(UWA.SN.SENAME);

   1883 19 000300   000013 236000 20                 LDQ     11
        19 000301   200161 756100                    STQ     C32+10,,AUTO
        19 000302   005535 701000 19                 TSX1    QTE
        19 000303   000000 011000                    NOP     0

      114     1884    1       C32 = CHAR_LEN;

   1884 19 000304   200106 470500                    LDP0    CHAR$,,AUTO
        19 000305   000232 720000 17                 LXL0    LEN
        19 000306   040100 100540                    MLR     fill='040'O
        19 000307   000000 000010                    ADSC9   0,,PR0                   cn=0,n=*X0
        19 000310   200147 000040                    ADSC9   C32,,AUTO                cn=0,n=32

      115     1885    1       CALL CONCAT(PL,C64,C32,'  LOC. MODE DIRECT PARAMETER');

   1885 19 000311   040100 100500                    MLR     fill='040'O
        19 000312   200127 000100                    ADSC9   C64,,AUTO                cn=0,n=64
        19 000313   200016 000100                    ADSC9   PL,,AUTO                 cn=0,n=64
        19 000314   040100 100500                    MLR     fill='040'O
        19 000315   200147 000040                    ADSC9   C32,,AUTO                cn=0,n=32
        19 000316   200036 000040                    ADSC9   PL+16,,AUTO              cn=0,n=32
        19 000317   040100 100400                    MLR     fill='040'O
        19 000320   000073 000034 18                 ADSC9   SUBMESS+59               cn=0,n=28
        19 000321   200046 000040                    ADSC9   PL+24,,AUTO              cn=0,n=32

      116     1886    1       CALL LIST(PL);

   1886 19 000322   200016 630500                    EPPR0   PL,,AUTO
        19 000323   200162 450500                    STP0    @CST+1,,AUTO
        19 000324   200162 630500                    EPPR0   @CST+1,,AUTO
        19 000325   000011 631400 20                 EPPR1   9
        19 000326   000000 701000 xent               TSX1    LIST
        19 000327   000000 011000                    NOP     0
PL6.E3A0      #001=DDY7 File=ZIG$DDY7.:ZIC0TSI                                   FRI 09/05/97 11:55 Page:44

      117     1887    1       PL = ' '; C64 = ' '; C32 = ' ';

   1887 19 000330   040100 100400                    MLR     fill='040'O
        19 000331   000014 000001 20                 ADSC9   12                       cn=0,n=1
        19 000332   200016 000200                    ADSC9   PL,,AUTO                 cn=0,n=128

   1887 19 000333   040100 100400                    MLR     fill='040'O
        19 000334   000014 000001 20                 ADSC9   12                       cn=0,n=1
        19 000335   200127 000100                    ADSC9   C64,,AUTO                cn=0,n=64

   1887 19 000336   040100 100400                    MLR     fill='040'O
        19 000337   000014 000001 20                 ADSC9   12                       cn=0,n=1
        19 000340   200147 000040                    ADSC9   C32,,AUTO                cn=0,n=32

      118     1888    1       CALL FINDD_6('FR      ',HOLD_FR);

   1888 19 000341   200015 630500                    EPPR0   HOLD_FR,,AUTO
        19 000342   200163 450500                    STP0    @CST+2,,AUTO
        19 000343   000026 236000 20                 LDQ     22
        19 000344   200162 756100                    STQ     @CST+1,,AUTO
        19 000345   200162 630500                    EPPR0   @CST+1,,AUTO
        19 000346   000000 631400 20                 EPPR1   0
        19 000347   000000 701000 xent               TSX1    FINDD_6
        19 000350   000000 011000                    NOP     0

      119     1889    1       GOTO DIR_B5;

   1889 19 000351   000257 710000 19                 TRA     DIR_B5

      120     1890    1   DB5_STAT:
      121     1891    1       IF UWA.DB_STATUS = '0502100' THEN GOTO WITHIN_PROC;

   1891 19 000352   040000 106400       DB5_STAT     CMPC    fill='040'O
        19 000353   000001 000007 16                 ADSC9   UWA+1                    cn=0,n=7
        19 000354   000104 000007 18                 ADSC9   SUBMESS+68               cn=0,n=7
        19 000355   000721 600000 19                 TZE     WITHIN_PROC
PL6.E3A0      #001=DDY7 File=ZIG$DDY7.:ZIC0TSI                                   FRI 09/05/97 11:55 Page:45

      122     1892    1       CALL ABORT;

   1892 19 000356   000021 631400 20                 EPPR1   17
        19 000357   000000 701000 xent               TSX1    ABORT
        19 000360   000000 011000                    NOP     0

      123     1893    1   INDEX_MODE:
      124     1894    1       PL = '  LOCATION MODE IS INDEXED';

   1894 19 000361   040100 100400       INDEX_MODE   MLR     fill='040'O
        19 000362   000106 000032 18                 ADSC9   SUBMESS+70               cn=0,n=26
        19 000363   200016 000200                    ADSC9   PL,,AUTO                 cn=0,n=128

      125     1895    1       CALL LIST(PL);

   1895 19 000364   200016 630500                    EPPR0   PL,,AUTO
        19 000365   200162 450500                    STP0    @CST+1,,AUTO
        19 000366   200162 630500                    EPPR0   @CST+1,,AUTO
        19 000367   000011 631400 20                 EPPR1   9
        19 000370   000000 701000 xent               TSX1    LIST
        19 000371   000000 011000                    NOP     0

      126     1896    1   INDEX1X:
      127     1897    1       CALL FETCHNS_6('RC-SOSM ') ALTRET( WITHIN_PROC);

   1897 19 000372   000027 630400 20    INDEX1X      EPPR0   23
        19 000373   000011 631400 20                 EPPR1   9
        19 000374   000000 701000 xent               TSX1    FETCHNS_6
        19 000375   000721 702000 19                 TSX2    WITHIN_PROC

      128     1898    1       IF UWA.RECORD_NAME ~= 'SM' THEN

   1898 19 000376   040000 106400                    CMPC    fill='040'O
        19 000377   000023 000036 16                 ADSC9   UWA+19                   cn=0,n=30
        19 000400   000117 000002 18                 ADSC9   SUBMESS+79               cn=0,n=2
        19 000401   000372 601000 19                 TNZ     INDEX1X
PL6.E3A0      #001=DDY7 File=ZIG$DDY7.:ZIC0TSI                                   FRI 09/05/97 11:55 Page:46

      129     1899    1           GOTO INDEX1X;
      130     1900
      131     1901    1       CALL FETCHOS_6('SC-SOSM ') ALTRET(DBCS_ERR);

   1901 19 000402   000030 630400 20                 EPPR0   24
        19 000403   000011 631400 20                 EPPR1   9
        19 000404   000000 701000 xent               TSX1    FETCHOS_6
        19 000405   005470 702000 19                 TSX2    DBCS_ERR

      132     1902    1       IF UWA.SC.SETTYPE = 2 THEN /* Primary key */

   1902 19 000406   000310 235000 16                 LDA     UWA+200
        19 000407   000002 115007                    CMPA    2,DL
        19 000410   000372 601000 19                 TNZ     INDEX1X

      133     1903    2       DO;

      134     1904    2           CALL FETCHOS_6('SN-SE   ') ALTRET(DBCS_ERR);

   1904 19 000411   000012 630400 20                 EPPR0   10
        19 000412   000011 631400 20                 EPPR1   9
        19 000413   000000 701000 xent               TSX1    FETCHOS_6
        19 000414   005470 702000 19                 TSX2    DBCS_ERR

      135     1905    2           PL=' ';

   1905 19 000415   040100 100400                    MLR     fill='040'O
        19 000416   000014 000001 20                 ADSC9   12                       cn=0,n=1
        19 000417   200016 000200                    ADSC9   PL,,AUTO                 cn=0,n=128

      136     1906    2           CALL LIST(PL);

   1906 19 000420   200016 630500                    EPPR0   PL,,AUTO
        19 000421   200162 450500                    STP0    @CST+1,,AUTO
        19 000422   200162 630500                    EPPR0   @CST+1,,AUTO
        19 000423   000011 631400 20                 EPPR1   9
PL6.E3A0      #001=DDY7 File=ZIG$DDY7.:ZIC0TSI                                   FRI 09/05/97 11:55 Page:47
        19 000424   000000 701000 xent               TSX1    LIST
        19 000425   000000 011000                    NOP     0

      137     1907    2           CALL QTE(UWA.SN.SENAME);

   1907 19 000426   000013 236000 20                 LDQ     11
        19 000427   200161 756100                    STQ     C32+10,,AUTO
        19 000430   005535 701000 19                 TSX1    QTE
        19 000431   000000 011000                    NOP     0

      138     1908    2           CALL CONCAT(C64 , '  LOCATION KEY IS ', CHAR_LEN);

   1908 19 000432   040100 100400                    MLR     fill='040'O
        19 000433   000122 000022 18                 ADSC9   SUBMESS+82               cn=0,n=18
        19 000434   200127 000022                    ADSC9   C64,,AUTO                cn=0,n=18
        19 000435   200106 470500                    LDP0    CHAR$,,AUTO
        19 000436   000232 720000 17                 LXL0    LEN
        19 000437   040100 100540                    MLR     fill='040'O
        19 000440   000000 000010                    ADSC9   0,,PR0                   cn=0,n=*X0
        19 000441   200133 400056                    ADSC9   C64+4,,AUTO              cn=2,n=46

      139     1909    2           CALL FETCHNS_6('SMSS-CF ') ALTRET( WITHIN_PROC);

   1909 19 000442   000031 630400 20                 EPPR0   25
        19 000443   000011 631400 20                 EPPR1   9
        19 000444   000000 701000 xent               TSX1    FETCHNS_6
        19 000445   000721 702000 19                 TSX2    WITHIN_PROC

      140     1910    2           CALL FETCHOS_6('FR-CFS  ') ALTRET(DBCS_ERR); /* Get fr record */

   1910 19 000446   000032 630400 20                 EPPR0   26
        19 000447   000011 631400 20                 EPPR1   9
        19 000450   000000 701000 xent               TSX1    FETCHOS_6
        19 000451   005470 702000 19                 TSX2    DBCS_ERR

      141     1911    2           CALL FETCHOS_6('SN-SE   ') ALTRET(DBCS_ERR); /* Get name of field */

PL6.E3A0      #001=DDY7 File=ZIG$DDY7.:ZIC0TSI                                   FRI 09/05/97 11:55 Page:48
   1911 19 000452   000012 630400 20                 EPPR0   10
        19 000453   000011 631400 20                 EPPR1   9
        19 000454   000000 701000 xent               TSX1    FETCHOS_6
        19 000455   005470 702000 19                 TSX2    DBCS_ERR

      142     1912    2           CALL QTE(UWA.SN.SENAME);

   1912 19 000456   000013 236000 20                 LDQ     11
        19 000457   200161 756100                    STQ     C32+10,,AUTO
        19 000460   005535 701000 19                 TSX1    QTE
        19 000461   000000 011000                    NOP     0

      143     1913    2           CALL CONCAT(PL , C64, CHR32 ,'  LOCATION KEY');

   1913 19 000462   040100 100500                    MLR     fill='040'O
        19 000463   200127 000100                    ADSC9   C64,,AUTO                cn=0,n=64
        19 000464   200016 000100                    ADSC9   PL,,AUTO                 cn=0,n=64
        19 000465   040100 100500                    MLR     fill='040'O
        19 000466   200117 000040                    ADSC9   CHR32,,AUTO              cn=0,n=32
        19 000467   200036 000040                    ADSC9   PL+16,,AUTO              cn=0,n=32
        19 000470   040100 100400                    MLR     fill='040'O
        19 000471   000122 000016 18                 ADSC9   SUBMESS+82               cn=0,n=14
        19 000472   200046 000040                    ADSC9   PL+24,,AUTO              cn=0,n=32

      144     1914    2           CALL LIST(PL);

   1914 19 000473   200016 630500                    EPPR0   PL,,AUTO
        19 000474   200162 450500                    STP0    @CST+1,,AUTO
        19 000475   200162 630500                    EPPR0   @CST+1,,AUTO
        19 000476   000011 631400 20                 EPPR1   9
        19 000477   000000 701000 xent               TSX1    LIST
        19 000500   000000 011000                    NOP     0

      145     1915    2           GOTO INDEX1X;

   1915 19 000501   000372 710000 19                 TRA     INDEX1X

PL6.E3A0      #001=DDY7 File=ZIG$DDY7.:ZIC0TSI                                   FRI 09/05/97 11:55 Page:49
      146     1916
      147     1917    2           END;
      148     1918    1       ELSE
      149     1919    1           GOTO INDEX1X;
      150     1920
      151     1921    1   CALC_MODE:
      152     1922    1       IF UWA.RC.CALCDUP = 0 THEN

   1922 19 000502   000277 235000 16    CALC_MODE    LDA     UWA+191
        19 000503   000510 601000 19                 TNZ     s:1925

      153     1923    1           C64 = '  LOCATION MODE IS CALC DUPLICATES ALLOWED';

   1923 19 000504   040100 100400                    MLR     fill='040'O
        19 000505   000133 000052 18                 ADSC9   SUBMESS+91               cn=0,n=42
        19 000506   200127 000100                    ADSC9   C64,,AUTO                cn=0,n=64
        19 000507   000513 710000 19                 TRA     s:1926

      154     1924    1       ELSE
      155     1925    1           C64 = '  LOCATION MODE IS CALC DUPLICATES NOT ALLOWED';

   1925 19 000510   040100 100400                    MLR     fill='040'O
        19 000511   000146 000056 18                 ADSC9   SUBMESS+102              cn=0,n=46
        19 000512   200127 000100                    ADSC9   C64,,AUTO                cn=0,n=64

      156     1926    1       PL = C64;

   1926 19 000513   040100 100500                    MLR     fill='040'O
        19 000514   200127 000100                    ADSC9   C64,,AUTO                cn=0,n=64
        19 000515   200016 000200                    ADSC9   PL,,AUTO                 cn=0,n=128

      157     1927
      158     1928    1   CALC_A5:
      159     1929    1       CALL FETCHNS_6('RC-SOSM ') ALTRET(DBCS_ERR);

   1929 19 000516   000027 630400 20    CALC_A5      EPPR0   23
        19 000517   000011 631400 20                 EPPR1   9
PL6.E3A0      #001=DDY7 File=ZIG$DDY7.:ZIC0TSI                                   FRI 09/05/97 11:55 Page:50
        19 000520   000000 701000 xent               TSX1    FETCHNS_6
        19 000521   005470 702000 19                 TSX2    DBCS_ERR

      160     1930    1       IF UWA.RECORD_NAME ~= 'SM' THEN GOTO CALC_A5;

   1930 19 000522   040000 106400                    CMPC    fill='040'O
        19 000523   000023 000036 16                 ADSC9   UWA+19                   cn=0,n=30
        19 000524   000117 000002 18                 ADSC9   SUBMESS+79               cn=0,n=2
        19 000525   000516 601000 19                 TNZ     CALC_A5

      161     1931    1       IF UWA.SM.PSMODE ~= 1 THEN GOTO CALC_A5;

   1931 19 000526   000366 235000 16                 LDA     UWA+246
        19 000527   000001 115007                    CMPA    1,DL
        19 000530   000516 601000 19                 TNZ     CALC_A5

      162     1932    1   CALC_A5_CF:
      163     1933    1       CALL FETCHNS_6('SMSS-CF ') ALTRET(CALC_A5_STAT);

   1933 19 000531   000031 630400 20    CALC_A5_CF   EPPR0   25
        19 000532   000011 631400 20                 EPPR1   9
        19 000533   000000 701000 xent               TSX1    FETCHNS_6
        19 000534   000612 702000 19                 TSX2    CALC_A5_STAT

      164     1934    1       IF UWA.C_F.CTRLTYPE = 4 THEN GOTO A5_FIND_OWN;

   1934 19 000535   000401 235000 16                 LDA     UWA+257
        19 000536   000004 115007                    CMPA    4,DL
        19 000537   000543 600000 19                 TZE     A5_FIND_OWN

      165     1935    1       CALL ABORT;

   1935 19 000540   000021 631400 20                 EPPR1   17
        19 000541   000000 701000 xent               TSX1    ABORT
        19 000542   000000 011000                    NOP     0

      166     1936    1   A5_FIND_OWN:
PL6.E3A0      #001=DDY7 File=ZIG$DDY7.:ZIC0TSI                                   FRI 09/05/97 11:55 Page:51
      167     1937    1       CALL FETCHOS_6('FR-CFS  ') ALTRET(DBCS_ERR);

   1937 19 000543   000032 630400 20    A5_FIND_OWN  EPPR0   26
        19 000544   000011 631400 20                 EPPR1   9
        19 000545   000000 701000 xent               TSX1    FETCHOS_6
        19 000546   005470 702000 19                 TSX2    DBCS_ERR

      168     1938    1       CALL FETCHOS_6('SN-SE   ') ALTRET(DBCS_ERR);

   1938 19 000547   000012 630400 20                 EPPR0   10
        19 000550   000011 631400 20                 EPPR1   9
        19 000551   000000 701000 xent               TSX1    FETCHOS_6
        19 000552   005470 702000 19                 TSX2    DBCS_ERR

      169     1939    1       CALL QTE(UWA.SN.SENAME);

   1939 19 000553   000013 236000 20                 LDQ     11
        19 000554   200161 756100                    STQ     C32+10,,AUTO
        19 000555   005535 701000 19                 TSX1    QTE
        19 000556   000000 011000                    NOP     0

      170     1940    1       C32 = CHAR_LEN;

   1940 19 000557   200106 470500                    LDP0    CHAR$,,AUTO
        19 000560   000232 720000 17                 LXL0    LEN
        19 000561   040100 100540                    MLR     fill='040'O
        19 000562   000000 000010                    ADSC9   0,,PR0                   cn=0,n=*X0
        19 000563   200147 000040                    ADSC9   C32,,AUTO                cn=0,n=32

      171     1941    1       CALL CONCAT(PL,C64,C32,'  CALC KEY');

   1941 19 000564   040100 100500                    MLR     fill='040'O
        19 000565   200127 000100                    ADSC9   C64,,AUTO                cn=0,n=64
        19 000566   200016 000100                    ADSC9   PL,,AUTO                 cn=0,n=64
        19 000567   040100 100500                    MLR     fill='040'O
        19 000570   200147 000040                    ADSC9   C32,,AUTO                cn=0,n=32
        19 000571   200036 000040                    ADSC9   PL+16,,AUTO              cn=0,n=32
PL6.E3A0      #001=DDY7 File=ZIG$DDY7.:ZIC0TSI                                   FRI 09/05/97 11:55 Page:52
        19 000572   040100 100400                    MLR     fill='040'O
        19 000573   000162 000012 18                 ADSC9   SUBMESS+114              cn=0,n=10
        19 000574   200046 000040                    ADSC9   PL+24,,AUTO              cn=0,n=32

      172     1942    1       CALL LIST(PL);

   1942 19 000575   200016 630500                    EPPR0   PL,,AUTO
        19 000576   200162 450500                    STP0    @CST+1,,AUTO
        19 000577   200162 630500                    EPPR0   @CST+1,,AUTO
        19 000600   000011 631400 20                 EPPR1   9
        19 000601   000000 701000 xent               TSX1    LIST
        19 000602   000000 011000                    NOP     0

      173     1943    1       PL = ' '; C64 = ' ';

   1943 19 000603   040100 100400                    MLR     fill='040'O
        19 000604   000014 000001 20                 ADSC9   12                       cn=0,n=1
        19 000605   200016 000200                    ADSC9   PL,,AUTO                 cn=0,n=128

   1943 19 000606   040100 100400                    MLR     fill='040'O
        19 000607   000014 000001 20                 ADSC9   12                       cn=0,n=1
        19 000610   200127 000100                    ADSC9   C64,,AUTO                cn=0,n=64

      174     1944    1       GOTO CALC_A5_CF;

   1944 19 000611   000531 710000 19                 TRA     CALC_A5_CF

      175     1945    1   CALC_A5_STAT:
      176     1946    1       IF UWA.DB_STATUS = '0502100' THEN GOTO WITHIN_PROC;

   1946 19 000612   040000 106400       CALC_A5_STAT CMPC    fill='040'O
        19 000613   000001 000007 16                 ADSC9   UWA+1                    cn=0,n=7
        19 000614   000104 000007 18                 ADSC9   SUBMESS+68               cn=0,n=7
        19 000615   000721 600000 19                 TZE     WITHIN_PROC

      177     1947    1       CALL ABORT;

PL6.E3A0      #001=DDY7 File=ZIG$DDY7.:ZIC0TSI                                   FRI 09/05/97 11:55 Page:53
   1947 19 000616   000021 631400 20                 EPPR1   17
        19 000617   000000 701000 xent               TSX1    ABORT
        19 000620   000000 011000                    NOP     0

      178     1948    1   VIA_MODE:
      179     1949         /* VIA SET NAME */
      180     1950    1       CALL FETCHNS_6('RC-SOSM ') ALTRET(DBCS_ERR);

   1950 19 000621   000027 630400 20    VIA_MODE     EPPR0   23
        19 000622   000011 631400 20                 EPPR1   9
        19 000623   000000 701000 xent               TSX1    FETCHNS_6
        19 000624   005470 702000 19                 TSX2    DBCS_ERR

      181     1951    1       IF UWA.RECORD_NAME ~= 'SM' THEN GOTO VIA_MODE;

   1951 19 000625   040000 106400                    CMPC    fill='040'O
        19 000626   000023 000036 16                 ADSC9   UWA+19                   cn=0,n=30
        19 000627   000117 000002 18                 ADSC9   SUBMESS+79               cn=0,n=2
        19 000630   000621 601000 19                 TNZ     VIA_MODE

      182     1952    1       IF UWA.SM.PSMODE ~= 1 THEN GOTO VIA_MODE;

   1952 19 000631   000366 235000 16                 LDA     UWA+246
        19 000632   000001 115007                    CMPA    1,DL
        19 000633   000621 601000 19                 TNZ     VIA_MODE

      183     1953    1   VIA_SET:
      184     1954    1       CALL FETCHOS_6('SC-SOSM ') ALTRET(DBCS_ERR);

   1954 19 000634   000030 630400 20    VIA_SET      EPPR0   24
        19 000635   000011 631400 20                 EPPR1   9
        19 000636   000000 701000 xent               TSX1    FETCHOS_6
        19 000637   005470 702000 19                 TSX2    DBCS_ERR

      185     1955    1       CALL FETCHOS_6('SN-SE   ') ALTRET(DBCS_ERR);

   1955 19 000640   000012 630400 20                 EPPR0   10
PL6.E3A0      #001=DDY7 File=ZIG$DDY7.:ZIC0TSI                                   FRI 09/05/97 11:55 Page:54
        19 000641   000011 631400 20                 EPPR1   9
        19 000642   000000 701000 xent               TSX1    FETCHOS_6
        19 000643   005470 702000 19                 TSX2    DBCS_ERR

      186     1956    1       CALL QTE(UWA.SN.SENAME);

   1956 19 000644   000013 236000 20                 LDQ     11
        19 000645   200161 756100                    STQ     C32+10,,AUTO
        19 000646   005535 701000 19                 TSX1    QTE
        19 000647   000000 011000                    NOP     0

      187     1957    1       CALL CONCAT(PL,'  LOCATION MODE IS VIA SET NAME ',CHAR_LEN);

   1957 19 000650   040100 100400                    MLR     fill='040'O
        19 000651   000165 000040 18                 ADSC9   SUBMESS+117              cn=0,n=32
        19 000652   200016 000040                    ADSC9   PL,,AUTO                 cn=0,n=32
        19 000653   200106 470500                    LDP0    CHAR$,,AUTO
        19 000654   000232 720000 17                 LXL0    LEN
        19 000655   040100 100540                    MLR     fill='040'O
        19 000656   000000 000010                    ADSC9   0,,PR0                   cn=0,n=*X0
        19 000657   200026 000140                    ADSC9   PL+8,,AUTO               cn=0,n=96

      188     1958    1       CALL LIST(PL);

   1958 19 000660   200016 630500                    EPPR0   PL,,AUTO
        19 000661   200162 450500                    STP0    @CST+1,,AUTO
        19 000662   200162 630500                    EPPR0   @CST+1,,AUTO
        19 000663   000011 631400 20                 EPPR1   9
        19 000664   000000 701000 xent               TSX1    LIST
        19 000665   000000 011000                    NOP     0

      189     1959    1       PL=' ';

   1959 19 000666   040100 100400                    MLR     fill='040'O
        19 000667   000014 000001 20                 ADSC9   12                       cn=0,n=1
        19 000670   200016 000200                    ADSC9   PL,,AUTO                 cn=0,n=128

PL6.E3A0      #001=DDY7 File=ZIG$DDY7.:ZIC0TSI                                   FRI 09/05/97 11:55 Page:55
      190     1960    1       CALL LIST(PL);

   1960 19 000671   200016 630500                    EPPR0   PL,,AUTO
        19 000672   200162 450500                    STP0    @CST+1,,AUTO
        19 000673   200162 630500                    EPPR0   @CST+1,,AUTO
        19 000674   000011 631400 20                 EPPR1   9
        19 000675   000000 701000 xent               TSX1    LIST
        19 000676   000000 011000                    NOP     0

      191     1961    1       PL = '          (SEE SET SELECTION ANALYSIS FOR NAMED SET)';

   1961 19 000677   040100 100400                    MLR     fill='040'O
        19 000700   000175 000064 18                 ADSC9   SUBMESS+125              cn=0,n=52
        19 000701   200016 000200                    ADSC9   PL,,AUTO                 cn=0,n=128

      192     1962    1       CALL LIST(PL);

   1962 19 000702   200016 630500                    EPPR0   PL,,AUTO
        19 000703   200162 450500                    STP0    @CST+1,,AUTO
        19 000704   200162 630500                    EPPR0   @CST+1,,AUTO
        19 000705   000011 631400 20                 EPPR1   9
        19 000706   000000 701000 xent               TSX1    LIST
        19 000707   000000 011000                    NOP     0

      193     1963    1       PL=' ';

   1963 19 000710   040100 100400                    MLR     fill='040'O
        19 000711   000014 000001 20                 ADSC9   12                       cn=0,n=1
        19 000712   200016 000200                    ADSC9   PL,,AUTO                 cn=0,n=128

      194     1964    1       CALL LIST(PL);

   1964 19 000713   200016 630500                    EPPR0   PL,,AUTO
        19 000714   200162 450500                    STP0    @CST+1,,AUTO
        19 000715   200162 630500                    EPPR0   @CST+1,,AUTO
        19 000716   000011 631400 20                 EPPR1   9
        19 000717   000000 701000 xent               TSX1    LIST
PL6.E3A0      #001=DDY7 File=ZIG$DDY7.:ZIC0TSI                                   FRI 09/05/97 11:55 Page:56
        19 000720   000000 011000                    NOP     0

      195     1965    1   WITHIN_PROC:
      196     1966    1       PL=' ';

   1966 19 000721   040100 100400       WITHIN_PROC  MLR     fill='040'O
        19 000722   000014 000001 20                 ADSC9   12                       cn=0,n=1
        19 000723   200016 000200                    ADSC9   PL,,AUTO                 cn=0,n=128

      197     1967    1       CALL LIST(PL);

   1967 19 000724   200016 630500                    EPPR0   PL,,AUTO
        19 000725   200162 450500                    STP0    @CST+1,,AUTO
        19 000726   200162 630500                    EPPR0   @CST+1,,AUTO
        19 000727   000011 631400 20                 EPPR1   9
        19 000730   000000 701000 xent               TSX1    LIST
        19 000731   000000 011000                    NOP     0

      198     1968    1       CALL FETCHOS_6('RC-SOSM ') ALTRET(DBCS_ERR);

   1968 19 000732   000027 630400 20                 EPPR0   23
        19 000733   000011 631400 20                 EPPR1   9
        19 000734   000000 701000 xent               TSX1    FETCHOS_6
        19 000735   005470 702000 19                 TSX2    DBCS_ERR

      199     1969    1       IF UWA.RC.WITHINA = 0 THEN GOTO WSA;

   1969 19 000736   000273 235000 16                 LDA     UWA+187
        19 000737   000752 600000 19                 TZE     WSA

      200     1970    1       PL = '  WITHIN MULTIPLE AREAS; SELECTION IS BY ';

   1970 19 000740   040100 100400                    MLR     fill='040'O
        19 000741   000212 000051 18                 ADSC9   SUBMESS+138              cn=0,n=41
        19 000742   200016 000200                    ADSC9   PL,,AUTO                 cn=0,n=128

      201     1971    1       IF UWA.RC.WITHINA = 1 THEN GOTO WMA_APPL;
PL6.E3A0      #001=DDY7 File=ZIG$DDY7.:ZIC0TSI                                   FRI 09/05/97 11:55 Page:57

   1971 19 000743   000001 115007                    CMPA    1,DL
        19 000744   000764 600000 19                 TZE     WMA_APPL

      202     1972    1       IF UWA.RC.WITHINA = 2 THEN GOTO WMA_DBP;

   1972 19 000745   000002 115007                    CMPA    2,DL
        19 000746   001047 600000 19                 TZE     WMA_DBP

      203     1973    1       CALL ABORT;

   1973 19 000747   000021 631400 20                 EPPR1   17
        19 000750   000000 701000 xent               TSX1    ABORT
        19 000751   000000 011000                    NOP     0

      204     1974    1   WSA:
      205     1975    1       PL = '  WITHIN SINGLE AREA';

   1975 19 000752   040100 100400       WSA          MLR     fill='040'O
        19 000753   000225 000024 18                 ADSC9   SUBMESS+149              cn=0,n=20
        19 000754   200016 000200                    ADSC9   PL,,AUTO                 cn=0,n=128

      206     1976    1       CALL LIST(PL);

   1976 19 000755   200016 630500                    EPPR0   PL,,AUTO
        19 000756   200162 450500                    STP0    @CST+1,,AUTO
        19 000757   200162 630500                    EPPR0   @CST+1,,AUTO
        19 000760   000011 631400 20                 EPPR1   9
        19 000761   000000 701000 xent               TSX1    LIST
        19 000762   000000 011000                    NOP     0

      207     1977    1       GOTO ENC_DEC;

   1977 19 000763   001253 710000 19                 TRA     ENC_DEC

      208     1978    1   WMA_APPL:
      209     1979    1       C64 = '  WITHIN MULTIPLE AREAS; SELECTION IS BY APPLICATION';
PL6.E3A0      #001=DDY7 File=ZIG$DDY7.:ZIC0TSI                                   FRI 09/05/97 11:55 Page:58

   1979 19 000764   040100 100400       WMA_APPL     MLR     fill='040'O
        19 000765   000232 000064 18                 ADSC9   SUBMESS+154              cn=0,n=52
        19 000766   200127 000100                    ADSC9   C64,,AUTO                cn=0,n=64

      210     1980    1   WMA_B5:
      211     1981    1       CALL FETCHNS_6('RC-FR   ') ALTRET(WMA_B5_STAT);

   1981 19 000767   000023 630400 20    WMA_B5       EPPR0   19
        19 000770   000011 631400 20                 EPPR1   9
        19 000771   000000 701000 xent               TSX1    FETCHNS_6
        19 000772   001040 702000 19                 TSX2    WMA_B5_STAT

      212     1982    1       IF UWA.FR.F_USE ~= 2 THEN GOTO WMA_B5;

   1982 19 000773   000343 235000 16                 LDA     UWA+227
        19 000774   000002 115007                    CMPA    2,DL
        19 000775   000767 601000 19                 TNZ     WMA_B5

      213     1983    1   B5_A:
      214     1984    1       CALL FINDD_6('FR  ',UWA.FR.FR_FRH) ALTRET(DBCS_ERR);

   1984 19 000776   000024 630400 20    B5_A         EPPR0   20
        19 000777   000000 631400 20                 EPPR1   0
        19 001000   000000 701000 xent               TSX1    FINDD_6
        19 001001   005470 702000 19                 TSX2    DBCS_ERR

      215     1985    1       CALL FETCHOS_6('SN-SE   ') ALTRET(DBCS_ERR);

   1985 19 001002   000012 630400 20                 EPPR0   10
        19 001003   000011 631400 20                 EPPR1   9
        19 001004   000000 701000 xent               TSX1    FETCHOS_6
        19 001005   005470 702000 19                 TSX2    DBCS_ERR

      216     1986    1       CALL QTE(UWA.SN.SENAME);

   1986 19 001006   000013 236000 20                 LDQ     11
PL6.E3A0      #001=DDY7 File=ZIG$DDY7.:ZIC0TSI                                   FRI 09/05/97 11:55 Page:59
        19 001007   200161 756100                    STQ     C32+10,,AUTO
        19 001010   005535 701000 19                 TSX1    QTE
        19 001011   000000 011000                    NOP     0

      217     1987    1       CALL CONCAT(PL , C64, CHR32, '  AREA SELECTION');

   1987 19 001012   040100 100500                    MLR     fill='040'O
        19 001013   200127 000100                    ADSC9   C64,,AUTO                cn=0,n=64
        19 001014   200016 000100                    ADSC9   PL,,AUTO                 cn=0,n=64
        19 001015   040100 100500                    MLR     fill='040'O
        19 001016   200117 000040                    ADSC9   CHR32,,AUTO              cn=0,n=32
        19 001017   200036 000040                    ADSC9   PL+16,,AUTO              cn=0,n=32
        19 001020   040100 100400                    MLR     fill='040'O
        19 001021   000247 000020 18                 ADSC9   SUBMESS+167              cn=0,n=16
        19 001022   200046 000040                    ADSC9   PL+24,,AUTO              cn=0,n=32

      218     1988    1       CALL LIST(PL);

   1988 19 001023   200016 630500                    EPPR0   PL,,AUTO
        19 001024   200162 450500                    STP0    @CST+1,,AUTO
        19 001025   200162 630500                    EPPR0   @CST+1,,AUTO
        19 001026   000011 631400 20                 EPPR1   9
        19 001027   000000 701000 xent               TSX1    LIST
        19 001030   000000 011000                    NOP     0

      219     1989    1       PL = ' '; C64 = ' ';

   1989 19 001031   040100 100400                    MLR     fill='040'O
        19 001032   000014 000001 20                 ADSC9   12                       cn=0,n=1
        19 001033   200016 000200                    ADSC9   PL,,AUTO                 cn=0,n=128

   1989 19 001034   040100 100400                    MLR     fill='040'O
        19 001035   000014 000001 20                 ADSC9   12                       cn=0,n=1
        19 001036   200127 000100                    ADSC9   C64,,AUTO                cn=0,n=64

      220     1990    1       GOTO WMA_B5;

PL6.E3A0      #001=DDY7 File=ZIG$DDY7.:ZIC0TSI                                   FRI 09/05/97 11:55 Page:60
   1990 19 001037   000767 710000 19                 TRA     WMA_B5

      221     1991    1   WMA_B5_STAT:
      222     1992    1       IF UWA.DB_STATUS = '0502100' THEN GOTO ENC_DEC;

   1992 19 001040   040000 106400       WMA_B5_STAT  CMPC    fill='040'O
        19 001041   000001 000007 16                 ADSC9   UWA+1                    cn=0,n=7
        19 001042   000104 000007 18                 ADSC9   SUBMESS+68               cn=0,n=7
        19 001043   001253 600000 19                 TZE     ENC_DEC

      223     1993    1       CALL ABORT;

   1993 19 001044   000021 631400 20                 EPPR1   17
        19 001045   000000 701000 xent               TSX1    ABORT
        19 001046   000000 011000                    NOP     0

      224     1994    1   WMA_DBP:
      225     1995    1       CALL LIST(PL);

   1995 19 001047   200016 630500       WMA_DBP      EPPR0   PL,,AUTO
        19 001050   200162 450500                    STP0    @CST+1,,AUTO
        19 001051   200162 630500                    EPPR0   @CST+1,,AUTO
        19 001052   000011 631400 20                 EPPR1   9
        19 001053   000000 701000 xent               TSX1    LIST
        19 001054   000000 011000                    NOP     0

      226     1996    1       CALL FETCHOS_6('SN-SE   ') ALTRET(DBCS_ERR);

   1996 19 001055   000012 630400 20                 EPPR0   10
        19 001056   000011 631400 20                 EPPR1   9
        19 001057   000000 701000 xent               TSX1    FETCHOS_6
        19 001060   005470 702000 19                 TSX2    DBCS_ERR

      227     1997    1       CALL FETCHNS_6('SNNR-PT ') ALTRET(DBCS_ERR);

   1997 19 001061   000033 630400 20                 EPPR0   27
        19 001062   000011 631400 20                 EPPR1   9
PL6.E3A0      #001=DDY7 File=ZIG$DDY7.:ZIC0TSI                                   FRI 09/05/97 11:55 Page:61
        19 001063   000000 701000 xent               TSX1    FETCHNS_6
        19 001064   005470 702000 19                 TSX2    DBCS_ERR

      228     1998    1       IF UWA.PT.PTYPE = 22 THEN GOTO D5_FND_PN;

   1998 19 001065   000476 235000 16                 LDA     UWA+318
        19 001066   000026 115007                    CMPA    22,DL
        19 001067   001073 600000 19                 TZE     D5_FND_PN

      229     1999    1       CALL ABORT;

   1999 19 001070   000021 631400 20                 EPPR1   17
        19 001071   000000 701000 xent               TSX1    ABORT
        19 001072   000000 011000                    NOP     0

      230     2000    1   D5_FND_PN:
      231     2001    1       CALL FETCHOS_6('PN-PT   ') ALTRET(DBCS_ERR);

   2001 19 001073   000034 630400 20    D5_FND_PN    EPPR0   28
        19 001074   000011 631400 20                 EPPR1   9
        19 001075   000000 701000 xent               TSX1    FETCHOS_6
        19 001076   005470 702000 19                 TSX2    DBCS_ERR

      232     2002    1       CALL CONCAT(C64,'  DATA BASE PROCEDURE ',UWA.PN.PNAME);

   2002 19 001077   040100 100400                    MLR     fill='040'O
        19 001100   000257 000026 18                 ADSC9   SUBMESS+175              cn=0,n=22
        19 001101   200127 000026                    ADSC9   C64,,AUTO                cn=0,n=22
        19 001102   040100 100400                    MLR     fill='040'O
        19 001103   000455 000036 16                 ADSC9   UWA+301                  cn=0,n=30
        19 001104   200134 400052                    ADSC9   C64+5,,AUTO              cn=2,n=42

      233     2003    1   D5_NXT_AG:
      234     2004    1       CALL FETCHNS_6('PN-AG   ') ALTRET(D5_CK_STAT);

   2004 19 001105   000035 630400 20    D5_NXT_AG    EPPR0   29
        19 001106   000011 631400 20                 EPPR1   9
PL6.E3A0      #001=DDY7 File=ZIG$DDY7.:ZIC0TSI                                   FRI 09/05/97 11:55 Page:62
        19 001107   000000 701000 xent               TSX1    FETCHNS_6
        19 001110   001244 702000 19                 TSX2    D5_CK_STAT

      235     2005    1       IF UWA.AG.ATYPE = 1 THEN GOTO D5_C;

   2005 19 001111   000500 235000 16                 LDA     UWA+320
        19 001112   000001 115007                    CMPA    1,DL
        19 001113   001123 600000 19                 TZE     D5_C

      236     2006    1       IF UWA.AG.ATYPE = 2 THEN GOTO D5_C;

   2006 19 001114   000002 115007                    CMPA    2,DL
        19 001115   001123 600000 19                 TZE     D5_C

      237     2007    1       IF UWA.AG.ATYPE = 3 THEN GOTO D5_C;

   2007 19 001116   000003 115007                    CMPA    3,DL
        19 001117   001123 600000 19                 TZE     D5_C

      238     2008    1       IF UWA.AG.ATYPE = 4 THEN GOTO D5_C;

   2008 19 001120   000004 115007                    CMPA    4,DL
        19 001121   001123 600000 19                 TZE     D5_C

      239     2009    1       GOTO D5_NXT_AG;

   2009 19 001122   001105 710000 19                 TRA     D5_NXT_AG

      240     2010    1   D5_C:
      241     2011    1       CALL FINDD_6('FR  ',UWA.AG.AG_SE) ALTRET(DBCS_ERR);

   2011 19 001123   000036 630400 20    D5_C         EPPR0   30
        19 001124   000000 631400 20                 EPPR1   0
        19 001125   000000 701000 xent               TSX1    FINDD_6
        19 001126   005470 702000 19                 TSX2    DBCS_ERR

      242     2012    1       CALL FETCHOS_6('SN-SE   ') ALTRET(DBCS_ERR);
PL6.E3A0      #001=DDY7 File=ZIG$DDY7.:ZIC0TSI                                   FRI 09/05/97 11:55 Page:63

   2012 19 001127   000012 630400 20                 EPPR0   10
        19 001130   000011 631400 20                 EPPR1   9
        19 001131   000000 701000 xent               TSX1    FETCHOS_6
        19 001132   005470 702000 19                 TSX2    DBCS_ERR

      243     2013    1       CALL QTE(UWA.SN.SENAME);

   2013 19 001133   000013 236000 20                 LDQ     11
        19 001134   200161 756100                    STQ     C32+10,,AUTO
        19 001135   005535 701000 19                 TSX1    QTE
        19 001136   000000 011000                    NOP     0

      244     2014    1       IF UWA.AG.ATYPE = 1 OR UWA.AG.ATYPE = 2 THEN /*Input*/

   2014 19 001137   000500 235000 16                 LDA     UWA+320
        19 001140   000001 115007                    CMPA    1,DL
        19 001141   001144 600000 19                 TZE     s:2015
        19 001142   000002 115007                    CMPA    2,DL
        19 001143   001156 601000 19                 TNZ     s:2017

      245     2015    1           CALL CONCAT(PL,C64,CHR32,'  USING ARGUMENT');

   2015 19 001144   040100 100500                    MLR     fill='040'O
        19 001145   200127 000100                    ADSC9   C64,,AUTO                cn=0,n=64
        19 001146   200016 000100                    ADSC9   PL,,AUTO                 cn=0,n=64
        19 001147   040100 100500                    MLR     fill='040'O
        19 001150   200117 000040                    ADSC9   CHR32,,AUTO              cn=0,n=32
        19 001151   200036 000040                    ADSC9   PL+16,,AUTO              cn=0,n=32
        19 001152   040100 100400                    MLR     fill='040'O
        19 001153   000267 000020 18                 ADSC9   SUBMESS+183              cn=0,n=16
        19 001154   200046 000040                    ADSC9   PL+24,,AUTO              cn=0,n=32
        19 001155   001167 710000 19                 TRA     s:2018

      246     2016    1       ELSE
      247     2017    1           CALL CONCAT(PL,C64,CHR32,'  GIVING ARGUMENT');

PL6.E3A0      #001=DDY7 File=ZIG$DDY7.:ZIC0TSI                                   FRI 09/05/97 11:55 Page:64
   2017 19 001156   040100 100500                    MLR     fill='040'O
        19 001157   200127 000100                    ADSC9   C64,,AUTO                cn=0,n=64
        19 001160   200016 000100                    ADSC9   PL,,AUTO                 cn=0,n=64
        19 001161   040100 100500                    MLR     fill='040'O
        19 001162   200117 000040                    ADSC9   CHR32,,AUTO              cn=0,n=32
        19 001163   200036 000040                    ADSC9   PL+16,,AUTO              cn=0,n=32
        19 001164   040100 100400                    MLR     fill='040'O
        19 001165   000273 000021 18                 ADSC9   SUBMESS+187              cn=0,n=17
        19 001166   200046 000040                    ADSC9   PL+24,,AUTO              cn=0,n=32

      248     2018    1       CALL LIST(PL);

   2018 19 001167   200016 630500                    EPPR0   PL,,AUTO
        19 001170   200162 450500                    STP0    @CST+1,,AUTO
        19 001171   200162 630500                    EPPR0   @CST+1,,AUTO
        19 001172   000011 631400 20                 EPPR1   9
        19 001173   000000 701000 xent               TSX1    LIST
        19 001174   000000 011000                    NOP     0

      249     2019    1       CALL FETCHOS_6('RC-FR   ') ALTRET(DBCS_ERR);

   2019 19 001175   000023 630400 20                 EPPR0   19
        19 001176   000011 631400 20                 EPPR1   9
        19 001177   000000 701000 xent               TSX1    FETCHOS_6
        19 001200   005470 702000 19                 TSX2    DBCS_ERR

      250     2020    1       CALL FETCHOS_6('SN-SE   ') ALTRET(DBCS_ERR);

   2020 19 001201   000012 630400 20                 EPPR0   10
        19 001202   000011 631400 20                 EPPR1   9
        19 001203   000000 701000 xent               TSX1    FETCHOS_6
        19 001204   005470 702000 19                 TSX2    DBCS_ERR

      251     2021    1       IF SUBSTR(UWA.SN.SENAME,0,1) = '*' THEN GOTO D5_D;

   2021 19 001205   000427 236000 16                 LDQ     UWA+279
        19 001206   777000 376003                    ANQ     -512,DU
PL6.E3A0      #001=DDY7 File=ZIG$DDY7.:ZIC0TSI                                   FRI 09/05/97 11:55 Page:65
        19 001207   052000 116003                    CMPQ    21504,DU
        19 001210   001235 600000 19                 TZE     D5_D

      252     2022    1       CALL QTE(UWA.SN.SENAME);

   2022 19 001211   000013 236000 20                 LDQ     11
        19 001212   200161 756100                    STQ     C32+10,,AUTO
        19 001213   005535 701000 19                 TSX1    QTE
        19 001214   000000 011000                    NOP     0

      253     2023    1       PL=' ';

   2023 19 001215   040100 100400                    MLR     fill='040'O
        19 001216   000014 000001 20                 ADSC9   12                       cn=0,n=1
        19 001217   200016 000200                    ADSC9   PL,,AUTO                 cn=0,n=128

      254     2024    1       CALL INSERT(PL,64,,' IN ',CHAR_LEN);

   2024 19 001220   000300 236000 18                 LDQ     SUBMESS+192
        19 001221   200036 756100                    STQ     PL+16,,AUTO
        19 001222   200106 470500                    LDP0    CHAR$,,AUTO
        19 001223   000232 720000 17                 LXL0    LEN
        19 001224   040100 100540                    MLR     fill='040'O
        19 001225   000000 000010                    ADSC9   0,,PR0                   cn=0,n=*X0
        19 001226   200037 000074                    ADSC9   PL+17,,AUTO              cn=0,n=60

      255     2025    1       CALL LIST(PL);

   2025 19 001227   200016 630500                    EPPR0   PL,,AUTO
        19 001230   200162 450500                    STP0    @CST+1,,AUTO
        19 001231   200162 630500                    EPPR0   @CST+1,,AUTO
        19 001232   000011 631400 20                 EPPR1   9
        19 001233   000000 701000 xent               TSX1    LIST
        19 001234   000000 011000                    NOP     0

      256     2026    1   D5_D:
      257     2027    1       PL = ' '; C64 = ' ';
PL6.E3A0      #001=DDY7 File=ZIG$DDY7.:ZIC0TSI                                   FRI 09/05/97 11:55 Page:66

   2027 19 001235   040100 100400       D5_D         MLR     fill='040'O
        19 001236   000014 000001 20                 ADSC9   12                       cn=0,n=1
        19 001237   200016 000200                    ADSC9   PL,,AUTO                 cn=0,n=128

   2027 19 001240   040100 100400                    MLR     fill='040'O
        19 001241   000014 000001 20                 ADSC9   12                       cn=0,n=1
        19 001242   200127 000100                    ADSC9   C64,,AUTO                cn=0,n=64

      258     2028    1       GOTO D5_NXT_AG;

   2028 19 001243   001105 710000 19                 TRA     D5_NXT_AG

      259     2029    1   D5_CK_STAT:
      260     2030    1       IF UWA.DB_STATUS = '0502100' THEN GOTO ENC_DEC;

   2030 19 001244   040000 106400       D5_CK_STAT   CMPC    fill='040'O
        19 001245   000001 000007 16                 ADSC9   UWA+1                    cn=0,n=7
        19 001246   000104 000007 18                 ADSC9   SUBMESS+68               cn=0,n=7
        19 001247   001253 600000 19                 TZE     ENC_DEC

      261     2031    1       CALL ABORT;

   2031 19 001250   000021 631400 20                 EPPR1   17
        19 001251   000000 701000 xent               TSX1    ABORT
        19 001252   000000 011000                    NOP     0

      262     2032    1   ENC_DEC:
      263     2033    1       PROC_FND = 0;

   2033 19 001253   000231 450000 17    ENC_DEC      STZ     PROC_FND

      264     2034    1       CALL FETCHD_6('RC  ',CURR_RC) ALTRET(DBCS_ERR);

   2034 19 001254   200102 630500                    EPPR0   CURR_RC,,AUTO
        19 001255   200163 450500                    STP0    @CST+2,,AUTO
        19 001256   000040 236000 20                 LDQ     32
PL6.E3A0      #001=DDY7 File=ZIG$DDY7.:ZIC0TSI                                   FRI 09/05/97 11:55 Page:67
        19 001257   200162 756100                    STQ     @CST+1,,AUTO
        19 001260   200162 630500                    EPPR0   @CST+1,,AUTO
        19 001261   000000 631400 20                 EPPR1   0
        19 001262   000000 701000 xent               TSX1    FETCHD_6
        19 001263   005470 702000 19                 TSX2    DBCS_ERR

      265     2035    1       GOTO ENC_NXT_FR1;

   2035 19 001264   001275 710000 19                 TRA     ENC_NXT_FR1

      266     2036    1   ENC_NXT_FR:
      267     2037    1       CALL FINDD_6('FR  ',CURR_FR) ALTRET(DBCS_ERR);

   2037 19 001265   200104 630500       ENC_NXT_FR   EPPR0   CURR_FR,,AUTO
        19 001266   200163 450500                    STP0    @CST+2,,AUTO
        19 001267   000024 236000 20                 LDQ     20
        19 001270   200162 756100                    STQ     @CST+1,,AUTO
        19 001271   200162 630500                    EPPR0   @CST+1,,AUTO
        19 001272   000000 631400 20                 EPPR1   0
        19 001273   000000 701000 xent               TSX1    FINDD_6
        19 001274   005470 702000 19                 TSX2    DBCS_ERR

      268     2038    1   ENC_NXT_FR1:
      269     2039    1       PROC_TYP = 0;

   2039 19 001275   000224 450000 17    ENC_NXT_FR1  STZ     PROC_TYP

      270     2040    1       CALL FETCHNS_6('RC-FR   ') ALTRET(ENC_FR_STAT);

   2040 19 001276   000023 630400 20                 EPPR0   19
        19 001277   000011 631400 20                 EPPR1   9
        19 001300   000000 701000 xent               TSX1    FETCHNS_6
        19 001301   002026 702000 19                 TSX2    ENC_FR_STAT

      271     2041    1       CURR_FR = UWA.DIRECT_REF;

   2041 19 001302   000036 235000 16                 LDA     UWA+30
PL6.E3A0      #001=DDY7 File=ZIG$DDY7.:ZIC0TSI                                   FRI 09/05/97 11:55 Page:68
        19 001303   200104 755100                    STA     CURR_FR,,AUTO

      272     2042    1       CALL FETCHOS_6('SN-SE   ') ALTRET(DBCS_ERR);

   2042 19 001304   000012 630400 20                 EPPR0   10
        19 001305   000011 631400 20                 EPPR1   9
        19 001306   000000 701000 xent               TSX1    FETCHOS_6
        19 001307   005470 702000 19                 TSX2    DBCS_ERR

      273     2043    1       CALL QTE(UWA.SN.SENAME);

   2043 19 001310   000013 236000 20                 LDQ     11
        19 001311   200161 756100                    STQ     C32+10,,AUTO
        19 001312   005535 701000 19                 TSX1    QTE
        19 001313   000000 011000                    NOP     0

      274     2044    1       CALL CONCAT(PL , '      DATA ITEM ' , CHAR_LEN);

   2044 19 001314   040100 100400                    MLR     fill='040'O
        19 001315   000041 000020 18                 ADSC9   SUBMESS+33               cn=0,n=16
        19 001316   200016 000020                    ADSC9   PL,,AUTO                 cn=0,n=16
        19 001317   200106 470500                    LDP0    CHAR$,,AUTO
        19 001320   000232 720000 17                 LXL0    LEN
        19 001321   040100 100540                    MLR     fill='040'O
        19 001322   000000 000010                    ADSC9   0,,PR0                   cn=0,n=*X0
        19 001323   200022 000160                    ADSC9   PL+4,,AUTO               cn=0,n=112

      275     2045    1   ENC_NXT_PT:
      276     2046    1       CALL FETCHNS_6('SNNR-PT ') ALTRET(ENC_CK_STAT);

   2046 19 001324   000033 630400 20    ENC_NXT_PT   EPPR0   27
        19 001325   000011 631400 20                 EPPR1   9
        19 001326   000000 701000 xent               TSX1    FETCHNS_6
        19 001327   001421 702000 19                 TSX2    ENC_CK_STAT

      277     2047    1       IF UWA.PT.PTYPE = 52 THEN GOTO ENC_A1;

PL6.E3A0      #001=DDY7 File=ZIG$DDY7.:ZIC0TSI                                   FRI 09/05/97 11:55 Page:69
   2047 19 001330   000476 235000 16                 LDA     UWA+318
        19 001331   000064 115007                    CMPA    52,DL
        19 001332   001336 600000 19                 TZE     ENC_A1

      278     2048    1       IF UWA.PT.PTYPE = 54 THEN GOTO ENC_A2;

   2048 19 001333   000066 115007                    CMPA    54,DL
        19 001334   001346 600000 19                 TZE     ENC_A2

      279     2049    1       GOTO ENC_NXT_PT;

   2049 19 001335   001324 710000 19                 TRA     ENC_NXT_PT

      280     2050    1   ENC_A1:
      281     2051    1       PROC_TYP = PROC_TYP + 1;

   2051 19 001336   000224 054000 17    ENC_A1       AOS     PROC_TYP

      282     2052    1       IF PROC_TYP = 3 THEN

   2052 19 001337   000224 236000 17                 LDQ     PROC_TYP
        19 001340   000003 116007                    CMPQ    3,DL
        19 001341   001345 601000 19                 TNZ     s:2057

      283     2053    2       DO;

      284     2054    2           CURR_PT1 = UWA.DIRECT_REF;

   2054 19 001342   000036 235000 16                 LDA     UWA+30
        19 001343   000226 755000 17                 STA     CURR_PT1

      285     2055    2           GOTO ENC_A2A1;

   2055 19 001344   001360 710000 19                 TRA     ENC_A2A1

      286     2056    2           END;
      287     2057    1       GOTO ENC_A2A;
PL6.E3A0      #001=DDY7 File=ZIG$DDY7.:ZIC0TSI                                   FRI 09/05/97 11:55 Page:70

   2057 19 001345   001356 710000 19                 TRA     ENC_A2A

      288     2058    1   ENC_A2:
      289     2059    1       PROC_TYP = PROC_TYP + 2;

   2059 19 001346   000002 236007       ENC_A2       LDQ     2,DL
        19 001347   000224 056000 17                 ASQ     PROC_TYP

      290     2060    1       IF PROC_TYP = 3 THEN

   2060 19 001350   000224 235000 17                 LDA     PROC_TYP
        19 001351   000003 115007                    CMPA    3,DL
        19 001352   001356 601000 19                 TNZ     ENC_A2A

      291     2061    2       DO;

      292     2062    2           CURR_PT1 = UWA.DIRECT_REF;

   2062 19 001353   000036 235000 16                 LDA     UWA+30
        19 001354   000226 755000 17                 STA     CURR_PT1

      293     2063    2           GOTO ENC_A2A1;

   2063 19 001355   001360 710000 19                 TRA     ENC_A2A1

      294     2064    2           END;
      295     2065    1   ENC_A2A:
      296     2066    1       CURR_PT = UWA.DIRECT_REF;

   2066 19 001356   000036 235000 16    ENC_A2A      LDA     UWA+30
        19 001357   000225 755000 17                 STA     CURR_PT

      297     2067    1   ENC_A2A1:
      298     2068    1       IF PROC_FND = 1 THEN GOTO ENC_NXT_PT;

   2068 19 001360   000231 236000 17    ENC_A2A1     LDQ     PROC_FND
PL6.E3A0      #001=DDY7 File=ZIG$DDY7.:ZIC0TSI                                   FRI 09/05/97 11:55 Page:71
        19 001361   000001 116007                    CMPQ    1,DL
        19 001362   001324 600000 19                 TZE     ENC_NXT_PT

      299     2069    1       PL=' ';

   2069 19 001363   040100 100400                    MLR     fill='040'O
        19 001364   000014 000001 20                 ADSC9   12                       cn=0,n=1
        19 001365   200016 000200                    ADSC9   PL,,AUTO                 cn=0,n=128

      300     2070    1       CALL LIST(PL);

   2070 19 001366   200016 630500                    EPPR0   PL,,AUTO
        19 001367   200162 450500                    STP0    @CST+1,,AUTO
        19 001370   200162 630500                    EPPR0   @CST+1,,AUTO
        19 001371   000011 631400 20                 EPPR1   9
        19 001372   000000 701000 xent               TSX1    LIST
        19 001373   000000 011000                    NOP     0

      301     2071    1       PL = 'ENCODING/DECODING, CHECK PROCEDURE(S) ANALYSIS:';

   2071 19 001374   040100 100400                    MLR     fill='040'O
        19 001375   000302 000057 18                 ADSC9   SUBMESS+194              cn=0,n=47
        19 001376   200016 000200                    ADSC9   PL,,AUTO                 cn=0,n=128

      302     2072    1       CALL LIST(PL);

   2072 19 001377   200016 630500                    EPPR0   PL,,AUTO
        19 001400   200162 450500                    STP0    @CST+1,,AUTO
        19 001401   200162 630500                    EPPR0   @CST+1,,AUTO
        19 001402   000011 631400 20                 EPPR1   9
        19 001403   000000 701000 xent               TSX1    LIST
        19 001404   000000 011000                    NOP     0

      303     2073    1       PL=' ';

   2073 19 001405   040100 100400                    MLR     fill='040'O
        19 001406   000014 000001 20                 ADSC9   12                       cn=0,n=1
PL6.E3A0      #001=DDY7 File=ZIG$DDY7.:ZIC0TSI                                   FRI 09/05/97 11:55 Page:72
        19 001407   200016 000200                    ADSC9   PL,,AUTO                 cn=0,n=128

      304     2074    1       CALL LIST(PL);

   2074 19 001410   200016 630500                    EPPR0   PL,,AUTO
        19 001411   200162 450500                    STP0    @CST+1,,AUTO
        19 001412   200162 630500                    EPPR0   @CST+1,,AUTO
        19 001413   000011 631400 20                 EPPR1   9
        19 001414   000000 701000 xent               TSX1    LIST
        19 001415   000000 011000                    NOP     0

      305     2075    1       PROC_FND = 1;

   2075 19 001416   000001 235007                    LDA     1,DL
        19 001417   000231 755000 17                 STA     PROC_FND

      306     2076    1       GOTO ENC_NXT_PT;

   2076 19 001420   001324 710000 19                 TRA     ENC_NXT_PT

      307     2077    1   ENC_CK_STAT:
      308     2078    1       IF UWA.DB_STATUS = '0502100' THEN GOTO ENC_A3;

   2078 19 001421   040000 106400       ENC_CK_STAT  CMPC    fill='040'O
        19 001422   000001 000007 16                 ADSC9   UWA+1                    cn=0,n=7
        19 001423   000104 000007 18                 ADSC9   SUBMESS+68               cn=0,n=7
        19 001424   001430 600000 19                 TZE     ENC_A3

      309     2079    1       CALL ABORT;

   2079 19 001425   000021 631400 20                 EPPR1   17
        19 001426   000000 701000 xent               TSX1    ABORT
        19 001427   000000 011000                    NOP     0

      310     2080    1   ENC_A3:
      311     2081    1       IF PROC_TYP = 0 THEN GOTO CHECK_ANAL;

PL6.E3A0      #001=DDY7 File=ZIG$DDY7.:ZIC0TSI                                   FRI 09/05/97 11:55 Page:73
   2081 19 001430   000224 235000 17    ENC_A3       LDA     PROC_TYP
        19 001431   002036 600000 19                 TZE     CHECK_ANAL

      312     2082    1       CALL LIST(PL);

   2082 19 001432   200016 630500                    EPPR0   PL,,AUTO
        19 001433   200162 450500                    STP0    @CST+1,,AUTO
        19 001434   200162 630500                    EPPR0   @CST+1,,AUTO
        19 001435   000011 631400 20                 EPPR1   9
        19 001436   000000 701000 xent               TSX1    LIST
        19 001437   000000 011000                    NOP     0

      313     2083    1       PL=' ';

   2083 19 001440   040100 100400                    MLR     fill='040'O
        19 001441   000014 000001 20                 ADSC9   12                       cn=0,n=1
        19 001442   200016 000200                    ADSC9   PL,,AUTO                 cn=0,n=128

      314     2084    1       CALL LIST(PL);

   2084 19 001443   200016 630500                    EPPR0   PL,,AUTO
        19 001444   200162 450500                    STP0    @CST+1,,AUTO
        19 001445   200162 630500                    EPPR0   @CST+1,,AUTO
        19 001446   000011 631400 20                 EPPR1   9
        19 001447   000000 701000 xent               TSX1    LIST
        19 001450   000000 011000                    NOP     0

      315     2085    1       IF PROC_TYP = 1 THEN GOTO ENC_PROC;

   2085 19 001451   000224 235000 17                 LDA     PROC_TYP
        19 001452   000001 115007                    CMPA    1,DL
        19 001453   001463 600000 19                 TZE     ENC_PROC

      316     2086    1       IF PROC_TYP = 2 THEN GOTO DEC_PROC;

   2086 19 001454   000002 115007                    CMPA    2,DL
        19 001455   001467 600000 19                 TZE     DEC_PROC
PL6.E3A0      #001=DDY7 File=ZIG$DDY7.:ZIC0TSI                                   FRI 09/05/97 11:55 Page:74

      317     2087    1       IF PROC_TYP = 3 THEN GOTO ENC_DEC_PROC;

   2087 19 001456   000003 115007                    CMPA    3,DL
        19 001457   001473 600000 19                 TZE     ENC_DEC_PROC

      318     2088    1       CALL ABORT;

   2088 19 001460   000021 631400 20                 EPPR1   17
        19 001461   000000 701000 xent               TSX1    ABORT
        19 001462   000000 011000                    NOP     0

      319     2089    1   ENC_PROC:
      320     2090    1       PL = '          ENCODING';

   2090 19 001463   040100 100400       ENC_PROC     MLR     fill='040'O
        19 001464   000316 000022 18                 ADSC9   SUBMESS+206              cn=0,n=18
        19 001465   200016 000200                    ADSC9   PL,,AUTO                 cn=0,n=128

      321     2091    1       GOTO ENC_A4;

   2091 19 001466   001476 710000 19                 TRA     ENC_A4

      322     2092    1   DEC_PROC:
      323     2093    1       PL = '          DECODING';

   2093 19 001467   040100 100400       DEC_PROC     MLR     fill='040'O
        19 001470   000323 000022 18                 ADSC9   SUBMESS+211              cn=0,n=18
        19 001471   200016 000200                    ADSC9   PL,,AUTO                 cn=0,n=128

      324     2094    1       GOTO ENC_A4;

   2094 19 001472   001476 710000 19                 TRA     ENC_A4

      325     2095    1   ENC_DEC_PROC:
      326     2096    1       PL = '          ENCODING/DECODING';

PL6.E3A0      #001=DDY7 File=ZIG$DDY7.:ZIC0TSI                                   FRI 09/05/97 11:55 Page:75
   2096 19 001473   040100 100400       ENC_DEC_PROC MLR     fill='040'O
        19 001474   000330 000033 18                 ADSC9   SUBMESS+216              cn=0,n=27
        19 001475   200016 000200                    ADSC9   PL,,AUTO                 cn=0,n=128

      327     2097    1   ENC_A4:
      328     2098    1       CALL LIST(PL);

   2098 19 001476   200016 630500       ENC_A4       EPPR0   PL,,AUTO
        19 001477   200162 450500                    STP0    @CST+1,,AUTO
        19 001500   200162 630500                    EPPR0   @CST+1,,AUTO
        19 001501   000011 631400 20                 EPPR1   9
        19 001502   000000 701000 xent               TSX1    LIST
        19 001503   000000 011000                    NOP     0

      329     2099    1   ENC_A5:
      330     2100    1       CALL FINDD_6('PT  ',CURR_PT) ALTRET(DBCS_ERR);

   2100 19 001504   000041 630400 20    ENC_A5       EPPR0   33
        19 001505   000000 631400 20                 EPPR1   0
        19 001506   000000 701000 xent               TSX1    FINDD_6
        19 001507   005470 702000 19                 TSX2    DBCS_ERR

      331     2101    1       CALL FETCHOS_6('PN-PT   ') ALTRET(DBCS_ERR);

   2101 19 001510   000043 630400 20                 EPPR0   35
        19 001511   000011 631400 20                 EPPR1   9
        19 001512   000000 701000 xent               TSX1    FETCHOS_6
        19 001513   005470 702000 19                 TSX2    DBCS_ERR

      332     2102    1       CALL QTE(UWA.PN.PNAME);

   2102 19 001514   000044 236000 20                 LDQ     36
        19 001515   200161 756100                    STQ     C32+10,,AUTO
        19 001516   005535 701000 19                 TSX1    QTE
        19 001517   000000 011000                    NOP     0

      333     2103    1       CALL CONCAT(C64,'          PROCEDURE IS ',CHAR_LEN);
PL6.E3A0      #001=DDY7 File=ZIG$DDY7.:ZIC0TSI                                   FRI 09/05/97 11:55 Page:76

   2103 19 001520   040100 100400                    MLR     fill='040'O
        19 001521   000342 000027 18                 ADSC9   SUBMESS+226              cn=0,n=23
        19 001522   200127 000027                    ADSC9   C64,,AUTO                cn=0,n=23
        19 001523   200106 470500                    LDP0    CHAR$,,AUTO
        19 001524   000232 720000 17                 LXL0    LEN
        19 001525   040100 100540                    MLR     fill='040'O
        19 001526   000000 000010                    ADSC9   0,,PR0                   cn=0,n=*X0
        19 001527   200134 600051                    ADSC9   C64+5,,AUTO              cn=3,n=41

      334     2104    1       PL = C64;

   2104 19 001530   040100 100500                    MLR     fill='040'O
        19 001531   200127 000100                    ADSC9   C64,,AUTO                cn=0,n=64
        19 001532   200016 000200                    ADSC9   PL,,AUTO                 cn=0,n=128

      335     2105    1   ENC_A5_AG:
      336     2106    1       CALL FETCHNS_6('PN-AG   ') ALTRET(ENC_A5_STAT);

   2106 19 001533   000045 630400 20    ENC_A5_AG    EPPR0   37
        19 001534   000011 631400 20                 EPPR1   9
        19 001535   000000 701000 xent               TSX1    FETCHNS_6
        19 001536   001611 702000 19                 TSX2    ENC_A5_STAT

      337     2107    1       IF UWA.AG.ATYPE = 1 THEN GOTO ENC_A6;

   2107 19 001537   000500 235000 16                 LDA     UWA+320
        19 001540   000001 115007                    CMPA    1,DL
        19 001541   001545 600000 19                 TZE     ENC_A6

      338     2108    1       IF UWA.AG.ATYPE = 2 THEN GOTO ENC_A6;

   2108 19 001542   000002 115007                    CMPA    2,DL
        19 001543   001545 600000 19                 TZE     ENC_A6

      339     2109    1       GOTO ENC_A5_AG;

PL6.E3A0      #001=DDY7 File=ZIG$DDY7.:ZIC0TSI                                   FRI 09/05/97 11:55 Page:77
   2109 19 001544   001533 710000 19                 TRA     ENC_A5_AG

      340     2110    1   ENC_A6:
      341     2111    1       CALL FINDD_6('FR  ',UWA.AG.AG_SE) ALTRET(DBCS_ERR);

   2111 19 001545   000046 630400 20    ENC_A6       EPPR0   38
        19 001546   000000 631400 20                 EPPR1   0
        19 001547   000000 701000 xent               TSX1    FINDD_6
        19 001550   005470 702000 19                 TSX2    DBCS_ERR

      342     2112    1       CALL FETCHOS_6('SN-SE   ') ALTRET(DBCS_ERR);

   2112 19 001551   000050 630400 20                 EPPR0   40
        19 001552   000011 631400 20                 EPPR1   9
        19 001553   000000 701000 xent               TSX1    FETCHOS_6
        19 001554   005470 702000 19                 TSX2    DBCS_ERR

      343     2113    1       ENC_AG_FND = 1;

   2113 19 001555   000001 235007                    LDA     1,DL
        19 001556   000227 755000 17                 STA     ENC_AG_FND

      344     2114    1       CALL QTE(UWA.SN.SENAME);

   2114 19 001557   000013 236000 20                 LDQ     11
        19 001560   200161 756100                    STQ     C32+10,,AUTO
        19 001561   005535 701000 19                 TSX1    QTE
        19 001562   000000 011000                    NOP     0

      345     2115    1       CALL CONCAT(PL,C64,CHR32,'  USING ARGUMENT');

   2115 19 001563   040100 100500                    MLR     fill='040'O
        19 001564   200127 000100                    ADSC9   C64,,AUTO                cn=0,n=64
        19 001565   200016 000100                    ADSC9   PL,,AUTO                 cn=0,n=64
        19 001566   040100 100500                    MLR     fill='040'O
        19 001567   200117 000040                    ADSC9   CHR32,,AUTO              cn=0,n=32
        19 001570   200036 000040                    ADSC9   PL+16,,AUTO              cn=0,n=32
PL6.E3A0      #001=DDY7 File=ZIG$DDY7.:ZIC0TSI                                   FRI 09/05/97 11:55 Page:78
        19 001571   040100 100400                    MLR     fill='040'O
        19 001572   000355 000020 18                 ADSC9   SUBMESS+237              cn=0,n=16
        19 001573   200046 000040                    ADSC9   PL+24,,AUTO              cn=0,n=32

      346     2116    1       CALL LIST(PL);

   2116 19 001574   200016 630500                    EPPR0   PL,,AUTO
        19 001575   200162 450500                    STP0    @CST+1,,AUTO
        19 001576   200162 630500                    EPPR0   @CST+1,,AUTO
        19 001577   000011 631400 20                 EPPR1   9
        19 001600   000000 701000 xent               TSX1    LIST
        19 001601   000000 011000                    NOP     0

      347     2117    1       PL = ' '; C64 = ' ';

   2117 19 001602   040100 100400                    MLR     fill='040'O
        19 001603   000014 000001 20                 ADSC9   12                       cn=0,n=1
        19 001604   200016 000200                    ADSC9   PL,,AUTO                 cn=0,n=128

   2117 19 001605   040100 100400                    MLR     fill='040'O
        19 001606   000014 000001 20                 ADSC9   12                       cn=0,n=1
        19 001607   200127 000100                    ADSC9   C64,,AUTO                cn=0,n=64

      348     2118    1       GOTO ENC_A5_AG;

   2118 19 001610   001533 710000 19                 TRA     ENC_A5_AG

      349     2119    1   ENC_A5_STAT:
      350     2120    1       IF UWA.DB_STATUS = '0502100' THEN GOTO ENC_A7;

   2120 19 001611   040000 106400       ENC_A5_STAT  CMPC    fill='040'O
        19 001612   000001 000007 16                 ADSC9   UWA+1                    cn=0,n=7
        19 001613   000361 000007 18                 ADSC9   SUBMESS+241              cn=0,n=7
        19 001614   001620 600000 19                 TZE     ENC_A7

      351     2121    1       CALL ABORT;

PL6.E3A0      #001=DDY7 File=ZIG$DDY7.:ZIC0TSI                                   FRI 09/05/97 11:55 Page:79
   2121 19 001615   000021 631400 20                 EPPR1   17
        19 001616   000000 701000 xent               TSX1    ABORT
        19 001617   000000 011000                    NOP     0

      352     2122    1   ENC_A7:
      353     2123    1       IF ENC_AG_FND = 1 THEN GOTO ENC_OUT;

   2123 19 001620   000227 235000 17    ENC_A7       LDA     ENC_AG_FND
        19 001621   000001 115007                    CMPA    1,DL
        19 001622   001664 600000 19                 TZE     ENC_OUT

      354     2124    1       CALL LIST(PL);

   2124 19 001623   200016 630500                    EPPR0   PL,,AUTO
        19 001624   200162 450500                    STP0    @CST+1,,AUTO
        19 001625   200162 630500                    EPPR0   @CST+1,,AUTO
        19 001626   000011 631400 20                 EPPR1   9
        19 001627   000000 701000 xent               TSX1    LIST
        19 001630   000000 011000                    NOP     0

      355     2125    1       PL=' ';

   2125 19 001631   040100 100400                    MLR     fill='040'O
        19 001632   000014 000001 20                 ADSC9   12                       cn=0,n=1
        19 001633   200016 000200                    ADSC9   PL,,AUTO                 cn=0,n=128

      356     2126    1       CALL LIST(PL);

   2126 19 001634   200016 630500                    EPPR0   PL,,AUTO
        19 001635   200162 450500                    STP0    @CST+1,,AUTO
        19 001636   200162 630500                    EPPR0   @CST+1,,AUTO
        19 001637   000011 631400 20                 EPPR1   9
        19 001640   000000 701000 xent               TSX1    LIST
        19 001641   000000 011000                    NOP     0

      357     2127    1       PL = '                    *** NO INPUT DATA ARGUMENTS FOUND ****';

PL6.E3A0      #001=DDY7 File=ZIG$DDY7.:ZIC0TSI                                   FRI 09/05/97 11:55 Page:80
   2127 19 001642   040100 100400                    MLR     fill='040'O
        19 001643   000363 000072 18                 ADSC9   SUBMESS+243              cn=0,n=58
        19 001644   200016 000200                    ADSC9   PL,,AUTO                 cn=0,n=128

      358     2128    1       CALL LIST(PL);

   2128 19 001645   200016 630500                    EPPR0   PL,,AUTO
        19 001646   200162 450500                    STP0    @CST+1,,AUTO
        19 001647   200162 630500                    EPPR0   @CST+1,,AUTO
        19 001650   000011 631400 20                 EPPR1   9
        19 001651   000000 701000 xent               TSX1    LIST
        19 001652   000000 011000                    NOP     0

      359     2129    1       PL=' ';

   2129 19 001653   040100 100400                    MLR     fill='040'O
        19 001654   000014 000001 20                 ADSC9   12                       cn=0,n=1
        19 001655   200016 000200                    ADSC9   PL,,AUTO                 cn=0,n=128

      360     2130    1       CALL LIST(PL);

   2130 19 001656   200016 630500                    EPPR0   PL,,AUTO
        19 001657   200162 450500                    STP0    @CST+1,,AUTO
        19 001660   200162 630500                    EPPR0   @CST+1,,AUTO
        19 001661   000011 631400 20                 EPPR1   9
        19 001662   000000 701000 xent               TSX1    LIST
        19 001663   000000 011000                    NOP     0

      361     2131    1   ENC_OUT:
      362     2132    1       ENC_AG_FND = 0;

   2132 19 001664   000227 450000 17    ENC_OUT      STZ     ENC_AG_FND

      363     2133    1       PL = ' '; C64 = ' ';

   2133 19 001665   040100 100400                    MLR     fill='040'O
        19 001666   000014 000001 20                 ADSC9   12                       cn=0,n=1
PL6.E3A0      #001=DDY7 File=ZIG$DDY7.:ZIC0TSI                                   FRI 09/05/97 11:55 Page:81
        19 001667   200016 000200                    ADSC9   PL,,AUTO                 cn=0,n=128

   2133 19 001670   040100 100400                    MLR     fill='040'O
        19 001671   000014 000001 20                 ADSC9   12                       cn=0,n=1
        19 001672   200127 000100                    ADSC9   C64,,AUTO                cn=0,n=64

      364     2134    1       CALL FINDD_6('PT  ',CURR_PT) ALTRET(DBCS_ERR);

   2134 19 001673   000041 630400 20                 EPPR0   33
        19 001674   000000 631400 20                 EPPR1   0
        19 001675   000000 701000 xent               TSX1    FINDD_6
        19 001676   005470 702000 19                 TSX2    DBCS_ERR

      365     2135    1       CALL FETCHOS_6('PN-PT   ') ALTRET(DBCS_ERR);

   2135 19 001677   000043 630400 20                 EPPR0   35
        19 001700   000011 631400 20                 EPPR1   9
        19 001701   000000 701000 xent               TSX1    FETCHOS_6
        19 001702   005470 702000 19                 TSX2    DBCS_ERR

      366     2136    1   ENC_A8_AG:
      367     2137    1       CALL FETCHNS_6('PN-AG   ') ALTRET(ENC_A8_STAT);

   2137 19 001703   000045 630400 20    ENC_A8_AG    EPPR0   37
        19 001704   000011 631400 20                 EPPR1   9
        19 001705   000000 701000 xent               TSX1    FETCHNS_6
        19 001706   001761 702000 19                 TSX2    ENC_A8_STAT

      368     2138    1       IF UWA.AG.ATYPE = 3 THEN GOTO ENC_A9;

   2138 19 001707   000500 235000 16                 LDA     UWA+320
        19 001710   000003 115007                    CMPA    3,DL
        19 001711   001715 600000 19                 TZE     ENC_A9

      369     2139    1       IF UWA.AG.ATYPE = 4 THEN GOTO ENC_A9;

   2139 19 001712   000004 115007                    CMPA    4,DL
PL6.E3A0      #001=DDY7 File=ZIG$DDY7.:ZIC0TSI                                   FRI 09/05/97 11:55 Page:82
        19 001713   001715 600000 19                 TZE     ENC_A9

      370     2140    1       GOTO ENC_A8_AG;

   2140 19 001714   001703 710000 19                 TRA     ENC_A8_AG

      371     2141    1   ENC_A9:
      372     2142    1       CALL FINDD_6('FR  ',UWA.AG.AG_SE) ALTRET(DBCS_ERR);

   2142 19 001715   000046 630400 20    ENC_A9       EPPR0   38
        19 001716   000000 631400 20                 EPPR1   0
        19 001717   000000 701000 xent               TSX1    FINDD_6
        19 001720   005470 702000 19                 TSX2    DBCS_ERR

      373     2143    1       CALL FETCHOS_6('SN-SE   ') ALTRET(DBCS_ERR);

   2143 19 001721   000050 630400 20                 EPPR0   40
        19 001722   000011 631400 20                 EPPR1   9
        19 001723   000000 701000 xent               TSX1    FETCHOS_6
        19 001724   005470 702000 19                 TSX2    DBCS_ERR

      374     2144
      375     2145    1       ENC_AG_FND = 1;

   2145 19 001725   000001 235007                    LDA     1,DL
        19 001726   000227 755000 17                 STA     ENC_AG_FND

      376     2146    1       CALL QTE(UWA.SN.SENAME);

   2146 19 001727   000013 236000 20                 LDQ     11
        19 001730   200161 756100                    STQ     C32+10,,AUTO
        19 001731   005535 701000 19                 TSX1    QTE
        19 001732   000000 011000                    NOP     0

      377     2147    1       CALL CONCAT(PL,C64,CHR32,'  GIVING ARGUMENT');

   2147 19 001733   040100 100500                    MLR     fill='040'O
PL6.E3A0      #001=DDY7 File=ZIG$DDY7.:ZIC0TSI                                   FRI 09/05/97 11:55 Page:83
        19 001734   200127 000100                    ADSC9   C64,,AUTO                cn=0,n=64
        19 001735   200016 000100                    ADSC9   PL,,AUTO                 cn=0,n=64
        19 001736   040100 100500                    MLR     fill='040'O
        19 001737   200117 000040                    ADSC9   CHR32,,AUTO              cn=0,n=32
        19 001740   200036 000040                    ADSC9   PL+16,,AUTO              cn=0,n=32
        19 001741   040100 100400                    MLR     fill='040'O
        19 001742   000402 000021 18                 ADSC9   SUBMESS+258              cn=0,n=17
        19 001743   200046 000040                    ADSC9   PL+24,,AUTO              cn=0,n=32

      378     2148    1       CALL LIST(PL);

   2148 19 001744   200016 630500                    EPPR0   PL,,AUTO
        19 001745   200162 450500                    STP0    @CST+1,,AUTO
        19 001746   200162 630500                    EPPR0   @CST+1,,AUTO
        19 001747   000011 631400 20                 EPPR1   9
        19 001750   000000 701000 xent               TSX1    LIST
        19 001751   000000 011000                    NOP     0

      379     2149    1       PL = ' '; C64 = ' ';

   2149 19 001752   040100 100400                    MLR     fill='040'O
        19 001753   000014 000001 20                 ADSC9   12                       cn=0,n=1
        19 001754   200016 000200                    ADSC9   PL,,AUTO                 cn=0,n=128

   2149 19 001755   040100 100400                    MLR     fill='040'O
        19 001756   000014 000001 20                 ADSC9   12                       cn=0,n=1
        19 001757   200127 000100                    ADSC9   C64,,AUTO                cn=0,n=64

      380     2150    1       GOTO ENC_A8_AG;

   2150 19 001760   001703 710000 19                 TRA     ENC_A8_AG

      381     2151    1   ENC_A8_STAT:
      382     2152    1       IF UWA.DB_STATUS = '0502100' THEN GOTO ENC_A10;

   2152 19 001761   040000 106400       ENC_A8_STAT  CMPC    fill='040'O
        19 001762   000001 000007 16                 ADSC9   UWA+1                    cn=0,n=7
PL6.E3A0      #001=DDY7 File=ZIG$DDY7.:ZIC0TSI                                   FRI 09/05/97 11:55 Page:84
        19 001763   000361 000007 18                 ADSC9   SUBMESS+241              cn=0,n=7
        19 001764   001770 600000 19                 TZE     ENC_A10

      383     2153    1       CALL ABORT;

   2153 19 001765   000021 631400 20                 EPPR1   17
        19 001766   000000 701000 xent               TSX1    ABORT
        19 001767   000000 011000                    NOP     0

      384     2154    1   ENC_A10:
      385     2155    1       IF ENC_AG_FND = 1 THEN GOTO ENC_A11;

   2155 19 001770   000227 235000 17    ENC_A10      LDA     ENC_AG_FND
        19 001771   000001 115007                    CMPA    1,DL
        19 001772   002015 600000 19                 TZE     ENC_A11

      386     2156    1       PL=' ';

   2156 19 001773   040100 100400                    MLR     fill='040'O
        19 001774   000014 000001 20                 ADSC9   12                       cn=0,n=1
        19 001775   200016 000200                    ADSC9   PL,,AUTO                 cn=0,n=128

      387     2157    1       CALL LIST(PL);

   2157 19 001776   200016 630500                    EPPR0   PL,,AUTO
        19 001777   200162 450500                    STP0    @CST+1,,AUTO
        19 002000   200162 630500                    EPPR0   @CST+1,,AUTO
        19 002001   000011 631400 20                 EPPR1   9
        19 002002   000000 701000 xent               TSX1    LIST
        19 002003   000000 011000                    NOP     0

      388     2158    1       PL = '                    **** NO OUTPUT DATA ARGUMENTS FOUND ****';

   2158 19 002004   040100 100400                    MLR     fill='040'O
        19 002005   000407 000074 18                 ADSC9   SUBMESS+263              cn=0,n=60
        19 002006   200016 000200                    ADSC9   PL,,AUTO                 cn=0,n=128

PL6.E3A0      #001=DDY7 File=ZIG$DDY7.:ZIC0TSI                                   FRI 09/05/97 11:55 Page:85
      389     2159    1       CALL LIST(PL);

   2159 19 002007   200016 630500                    EPPR0   PL,,AUTO
        19 002010   200162 450500                    STP0    @CST+1,,AUTO
        19 002011   200162 630500                    EPPR0   @CST+1,,AUTO
        19 002012   000011 631400 20                 EPPR1   9
        19 002013   000000 701000 xent               TSX1    LIST
        19 002014   000000 011000                    NOP     0

      390     2160    1   ENC_A11:
      391     2161    1       IF CURR_PT1 ~= 0 THEN

   2161 19 002015   000226 235000 17    ENC_A11      LDA     CURR_PT1
        19 002016   002025 600000 19                 TZE     s:2169

      392     2162    2       DO;

      393     2163    2           CURR_PT = CURR_PT1;

   2163 19 002017   000225 755000 17                 STA     CURR_PT

      394     2164    2           CURR_PT1 = 0;

   2164 19 002020   000226 450000 17                 STZ     CURR_PT1

      395     2165    2           PL = '  ';

   2165 19 002021   040100 100400                    MLR     fill='040'O
        19 002022   000323 000002 18                 ADSC9   SUBMESS+211              cn=0,n=2
        19 002023   200016 000200                    ADSC9   PL,,AUTO                 cn=0,n=128

      396     2166    2           GOTO ENC_A4;

   2166 19 002024   001476 710000 19                 TRA     ENC_A4

      397     2167    2           END;
      398     2168
PL6.E3A0      #001=DDY7 File=ZIG$DDY7.:ZIC0TSI                                   FRI 09/05/97 11:55 Page:86
      399     2169    1       GOTO CHECK_ANAL;

   2169 19 002025   002036 710000 19                 TRA     CHECK_ANAL

      400     2170    1   ENC_FR_STAT:
      401     2171    1       IF UWA.DB_STATUS ~= '0502100' THEN CALL ABORT;

   2171 19 002026   040000 106400       ENC_FR_STAT  CMPC    fill='040'O
        19 002027   000001 000007 16                 ADSC9   UWA+1                    cn=0,n=7
        19 002030   000361 000007 18                 ADSC9   SUBMESS+241              cn=0,n=7
        19 002031   002035 600000 19                 TZE     s:2172

   2171 19 002032   000021 631400 20                 EPPR1   17
        19 002033   000000 701000 xent               TSX1    ABORT
        19 002034   000000 011000                    NOP     0

      402     2172    1       GOTO SET_STR_ANAL;

   2172 19 002035   002457 710000 19                 TRA     SET_STR_ANAL

      403     2173    1   CHECK_ANAL:
      404     2174    1       CHK_AG_FND = 0;

   2174 19 002036   000230 450000 17    CHECK_ANAL   STZ     CHK_AG_FND

      405     2175    1       CALL FINDD_6('FR  ',CURR_FR) ALTRET(DBCS_ERR);

   2175 19 002037   200104 630500                    EPPR0   CURR_FR,,AUTO
        19 002040   200163 450500                    STP0    @CST+2,,AUTO
        19 002041   000046 236000 20                 LDQ     38
        19 002042   200162 756100                    STQ     @CST+1,,AUTO
        19 002043   200162 630500                    EPPR0   @CST+1,,AUTO
        19 002044   000000 631400 20                 EPPR1   0
        19 002045   000000 701000 xent               TSX1    FINDD_6
        19 002046   005470 702000 19                 TSX2    DBCS_ERR

      406     2176    1       CALL FETCHOS_6('SN-SE   ') ALTRET(DBCS_ERR);
PL6.E3A0      #001=DDY7 File=ZIG$DDY7.:ZIC0TSI                                   FRI 09/05/97 11:55 Page:87

   2176 19 002047   000050 630400 20                 EPPR0   40
        19 002050   000011 631400 20                 EPPR1   9
        19 002051   000000 701000 xent               TSX1    FETCHOS_6
        19 002052   005470 702000 19                 TSX2    DBCS_ERR

      407     2177    1   CHK_NXT_PT:
      408     2178    1       CALL FETCHNS_6('SNNR-PT ') ALTRET(CHK_PT_STAT);

   2178 19 002053   000051 630400 20    CHK_NXT_PT   EPPR0   41
        19 002054   000011 631400 20                 EPPR1   9
        19 002055   000000 701000 xent               TSX1    FETCHNS_6
        19 002056   002063 702000 19                 TSX2    CHK_PT_STAT

      409     2179    1       IF UWA.PT.PTYPE = 51 THEN GOTO CHK_PROC;

   2179 19 002057   000476 235000 16                 LDA     UWA+318
        19 002060   000063 115007                    CMPA    51,DL
        19 002061   002073 600000 19                 TZE     CHK_PROC

      410     2180    1       GOTO CHK_NXT_PT;

   2180 19 002062   002053 710000 19                 TRA     CHK_NXT_PT

      411     2181    1   CHK_PT_STAT:
      412     2182    1       IF UWA.DB_STATUS ~= '0502100' THEN CALL ABORT;

   2182 19 002063   040000 106400       CHK_PT_STAT  CMPC    fill='040'O
        19 002064   000001 000007 16                 ADSC9   UWA+1                    cn=0,n=7
        19 002065   000361 000007 18                 ADSC9   SUBMESS+241              cn=0,n=7
        19 002066   002072 600000 19                 TZE     s:2183

   2182 19 002067   000021 631400 20                 EPPR1   17
        19 002070   000000 701000 xent               TSX1    ABORT
        19 002071   000000 011000                    NOP     0

      413     2183    1       GOTO ENC_NXT_FR;
PL6.E3A0      #001=DDY7 File=ZIG$DDY7.:ZIC0TSI                                   FRI 09/05/97 11:55 Page:88

   2183 19 002072   001265 710000 19                 TRA     ENC_NXT_FR

      414     2184    1   CHK_PROC:
      415     2185    1       IF PROC_FND = 1 THEN GOTO CHK_PROC1;

   2185 19 002073   000231 236000 17    CHK_PROC     LDQ     PROC_FND
        19 002074   000001 116007                    CMPQ    1,DL
        19 002075   002120 600000 19                 TZE     CHK_PROC1

      416     2186    1       PL=' ';

   2186 19 002076   040100 100400                    MLR     fill='040'O
        19 002077   000014 000001 20                 ADSC9   12                       cn=0,n=1
        19 002100   200016 000200                    ADSC9   PL,,AUTO                 cn=0,n=128

      417     2187    1       CALL LIST(PL);

   2187 19 002101   200016 630500                    EPPR0   PL,,AUTO
        19 002102   200162 450500                    STP0    @CST+1,,AUTO
        19 002103   200162 630500                    EPPR0   @CST+1,,AUTO
        19 002104   000011 631400 20                 EPPR1   9
        19 002105   000000 701000 xent               TSX1    LIST
        19 002106   000000 011000                    NOP     0

      418     2188    1       PL = 'ENCODING/DECODING, CHECK PROCEDURE(S) ANALYSIS:';

   2188 19 002107   040100 100400                    MLR     fill='040'O
        19 002110   000430 000057 18                 ADSC9   SUBMESS+280              cn=0,n=47
        19 002111   200016 000200                    ADSC9   PL,,AUTO                 cn=0,n=128

      419     2189    1       CALL LIST(PL);

   2189 19 002112   200016 630500                    EPPR0   PL,,AUTO
        19 002113   200162 450500                    STP0    @CST+1,,AUTO
        19 002114   200162 630500                    EPPR0   @CST+1,,AUTO
        19 002115   000011 631400 20                 EPPR1   9
PL6.E3A0      #001=DDY7 File=ZIG$DDY7.:ZIC0TSI                                   FRI 09/05/97 11:55 Page:89
        19 002116   000000 701000 xent               TSX1    LIST
        19 002117   000000 011000                    NOP     0

      420     2190    1   CHK_PROC1:
      421     2191    1       PROC_FND = 1;

   2191 19 002120   000001 235007       CHK_PROC1    LDA     1,DL
        19 002121   000231 755000 17                 STA     PROC_FND

      422     2192    1       PL=' ';

   2192 19 002122   040100 100400                    MLR     fill='040'O
        19 002123   000014 000001 20                 ADSC9   12                       cn=0,n=1
        19 002124   200016 000200                    ADSC9   PL,,AUTO                 cn=0,n=128

      423     2193    1       CALL LIST(PL);

   2193 19 002125   200016 630500                    EPPR0   PL,,AUTO
        19 002126   200162 450500                    STP0    @CST+1,,AUTO
        19 002127   200162 630500                    EPPR0   @CST+1,,AUTO
        19 002130   000011 631400 20                 EPPR1   9
        19 002131   000000 701000 xent               TSX1    LIST
        19 002132   000000 011000                    NOP     0

      424     2194    1       PL = '          CHECK PROCEDURE IS ';

   2194 19 002133   040100 100400                    MLR     fill='040'O
        19 002134   000444 000035 18                 ADSC9   SUBMESS+292              cn=0,n=29
        19 002135   200016 000200                    ADSC9   PL,,AUTO                 cn=0,n=128

      425     2195    1       CURR_PT = UWA.DIRECT_REF;

   2195 19 002136   000036 235000 16                 LDA     UWA+30
        19 002137   000225 755000 17                 STA     CURR_PT

      426     2196    1       CALL FETCHOS_6('PN-PT   ') ALTRET(DBCS_ERR);

PL6.E3A0      #001=DDY7 File=ZIG$DDY7.:ZIC0TSI                                   FRI 09/05/97 11:55 Page:90
   2196 19 002140   000043 630400 20                 EPPR0   35
        19 002141   000011 631400 20                 EPPR1   9
        19 002142   000000 701000 xent               TSX1    FETCHOS_6
        19 002143   005470 702000 19                 TSX2    DBCS_ERR

      427     2197    1       CALL QTE(UWA.PN.PNAME);

   2197 19 002144   000044 236000 20                 LDQ     36
        19 002145   200161 756100                    STQ     C32+10,,AUTO
        19 002146   005535 701000 19                 TSX1    QTE
        19 002147   000000 011000                    NOP     0

      428     2198    1       CALL CONCAT(C64 , '          CHECK PROCEDURE IS ',CHAR_LEN);

   2198 19 002150   040100 100400                    MLR     fill='040'O
        19 002151   000444 000035 18                 ADSC9   SUBMESS+292              cn=0,n=29
        19 002152   200127 000035                    ADSC9   C64,,AUTO                cn=0,n=29
        19 002153   200106 470500                    LDP0    CHAR$,,AUTO
        19 002154   000232 720000 17                 LXL0    LEN
        19 002155   040100 100540                    MLR     fill='040'O
        19 002156   000000 000010                    ADSC9   0,,PR0                   cn=0,n=*X0
        19 002157   200136 200043                    ADSC9   C64+7,,AUTO              cn=1,n=35

      429     2199    1       PL = C64;

   2199 19 002160   040100 100500                    MLR     fill='040'O
        19 002161   200127 000100                    ADSC9   C64,,AUTO                cn=0,n=64
        19 002162   200016 000200                    ADSC9   PL,,AUTO                 cn=0,n=128

      430     2200    1   CHK_A5_AG:
      431     2201    1       CALL FETCHNS_6('PN-AG   ') ALTRET(CHK_A5_STAT);

   2201 19 002163   000045 630400 20    CHK_A5_AG    EPPR0   37
        19 002164   000011 631400 20                 EPPR1   9
        19 002165   000000 701000 xent               TSX1    FETCHNS_6
        19 002166   002241 702000 19                 TSX2    CHK_A5_STAT

PL6.E3A0      #001=DDY7 File=ZIG$DDY7.:ZIC0TSI                                   FRI 09/05/97 11:55 Page:91
      432     2202    1       IF UWA.AG.ATYPE = 1 THEN GOTO CHK_A6;

   2202 19 002167   000500 235000 16                 LDA     UWA+320
        19 002170   000001 115007                    CMPA    1,DL
        19 002171   002175 600000 19                 TZE     CHK_A6

      433     2203    1       IF UWA.AG.ATYPE = 2 THEN GOTO CHK_A6;

   2203 19 002172   000002 115007                    CMPA    2,DL
        19 002173   002175 600000 19                 TZE     CHK_A6

      434     2204    1       GOTO CHK_A5_AG;

   2204 19 002174   002163 710000 19                 TRA     CHK_A5_AG

      435     2205    1   CHK_A6:
      436     2206    1       CALL FINDD_6('FR  ',UWA.AG.AG_SE) ALTRET(DBCS_ERR);

   2206 19 002175   000046 630400 20    CHK_A6       EPPR0   38
        19 002176   000000 631400 20                 EPPR1   0
        19 002177   000000 701000 xent               TSX1    FINDD_6
        19 002200   005470 702000 19                 TSX2    DBCS_ERR

      437     2207    1       CALL FETCHOS_6('SN-SE   ') ALTRET(DBCS_ERR);

   2207 19 002201   000050 630400 20                 EPPR0   40
        19 002202   000011 631400 20                 EPPR1   9
        19 002203   000000 701000 xent               TSX1    FETCHOS_6
        19 002204   005470 702000 19                 TSX2    DBCS_ERR

      438     2208    1       CHK_AG_FND = 1;

   2208 19 002205   000001 235007                    LDA     1,DL
        19 002206   000230 755000 17                 STA     CHK_AG_FND

      439     2209    1       CALL QTE(UWA.SN.SENAME);

PL6.E3A0      #001=DDY7 File=ZIG$DDY7.:ZIC0TSI                                   FRI 09/05/97 11:55 Page:92
   2209 19 002207   000013 236000 20                 LDQ     11
        19 002210   200161 756100                    STQ     C32+10,,AUTO
        19 002211   005535 701000 19                 TSX1    QTE
        19 002212   000000 011000                    NOP     0

      440     2210    1       CALL CONCAT(PL,C64,CHR32,'  USING ARGUMENT');

   2210 19 002213   040100 100500                    MLR     fill='040'O
        19 002214   200127 000100                    ADSC9   C64,,AUTO                cn=0,n=64
        19 002215   200016 000100                    ADSC9   PL,,AUTO                 cn=0,n=64
        19 002216   040100 100500                    MLR     fill='040'O
        19 002217   200117 000040                    ADSC9   CHR32,,AUTO              cn=0,n=32
        19 002220   200036 000040                    ADSC9   PL+16,,AUTO              cn=0,n=32
        19 002221   040100 100400                    MLR     fill='040'O
        19 002222   000355 000020 18                 ADSC9   SUBMESS+237              cn=0,n=16
        19 002223   200046 000040                    ADSC9   PL+24,,AUTO              cn=0,n=32

      441     2211    1       CALL LIST(PL);

   2211 19 002224   200016 630500                    EPPR0   PL,,AUTO
        19 002225   200162 450500                    STP0    @CST+1,,AUTO
        19 002226   200162 630500                    EPPR0   @CST+1,,AUTO
        19 002227   000011 631400 20                 EPPR1   9
        19 002230   000000 701000 xent               TSX1    LIST
        19 002231   000000 011000                    NOP     0

      442     2212    1       PL = ' '; C64 = ' ';

   2212 19 002232   040100 100400                    MLR     fill='040'O
        19 002233   000014 000001 20                 ADSC9   12                       cn=0,n=1
        19 002234   200016 000200                    ADSC9   PL,,AUTO                 cn=0,n=128

   2212 19 002235   040100 100400                    MLR     fill='040'O
        19 002236   000014 000001 20                 ADSC9   12                       cn=0,n=1
        19 002237   200127 000100                    ADSC9   C64,,AUTO                cn=0,n=64

      443     2213    1       GOTO CHK_A5_AG;
PL6.E3A0      #001=DDY7 File=ZIG$DDY7.:ZIC0TSI                                   FRI 09/05/97 11:55 Page:93

   2213 19 002240   002163 710000 19                 TRA     CHK_A5_AG

      444     2214    1   CHK_A5_STAT:
      445     2215    1       IF UWA.DB_STATUS = '0502100' THEN GOTO CHK_A7;

   2215 19 002241   040000 106400       CHK_A5_STAT  CMPC    fill='040'O
        19 002242   000001 000007 16                 ADSC9   UWA+1                    cn=0,n=7
        19 002243   000361 000007 18                 ADSC9   SUBMESS+241              cn=0,n=7
        19 002244   002250 600000 19                 TZE     CHK_A7

      446     2216    1       CALL ABORT;

   2216 19 002245   000021 631400 20                 EPPR1   17
        19 002246   000000 701000 xent               TSX1    ABORT
        19 002247   000000 011000                    NOP     0

      447     2217    1   CHK_A7:
      448     2218    1       IF CHK_AG_FND = 1 THEN GOTO CHK_OUT;

   2218 19 002250   000230 235000 17    CHK_A7       LDA     CHK_AG_FND
        19 002251   000001 115007                    CMPA    1,DL
        19 002252   002314 600000 19                 TZE     CHK_OUT

      449     2219    1       CALL LIST(PL);

   2219 19 002253   200016 630500                    EPPR0   PL,,AUTO
        19 002254   200162 450500                    STP0    @CST+1,,AUTO
        19 002255   200162 630500                    EPPR0   @CST+1,,AUTO
        19 002256   000011 631400 20                 EPPR1   9
        19 002257   000000 701000 xent               TSX1    LIST
        19 002260   000000 011000                    NOP     0

      450     2220    1       PL=' ';

   2220 19 002261   040100 100400                    MLR     fill='040'O
        19 002262   000014 000001 20                 ADSC9   12                       cn=0,n=1
PL6.E3A0      #001=DDY7 File=ZIG$DDY7.:ZIC0TSI                                   FRI 09/05/97 11:55 Page:94
        19 002263   200016 000200                    ADSC9   PL,,AUTO                 cn=0,n=128

      451     2221    1       CALL LIST(PL);

   2221 19 002264   200016 630500                    EPPR0   PL,,AUTO
        19 002265   200162 450500                    STP0    @CST+1,,AUTO
        19 002266   200162 630500                    EPPR0   @CST+1,,AUTO
        19 002267   000011 631400 20                 EPPR1   9
        19 002270   000000 701000 xent               TSX1    LIST
        19 002271   000000 011000                    NOP     0

      452     2222    1       PL = '                    **** NO INPUT DATA ARGUMENTS FOUND ****';

   2222 19 002272   040100 100400                    MLR     fill='040'O
        19 002273   000454 000073 18                 ADSC9   SUBMESS+300              cn=0,n=59
        19 002274   200016 000200                    ADSC9   PL,,AUTO                 cn=0,n=128

      453     2223    1       CALL LIST(PL);

   2223 19 002275   200016 630500                    EPPR0   PL,,AUTO
        19 002276   200162 450500                    STP0    @CST+1,,AUTO
        19 002277   200162 630500                    EPPR0   @CST+1,,AUTO
        19 002300   000011 631400 20                 EPPR1   9
        19 002301   000000 701000 xent               TSX1    LIST
        19 002302   000000 011000                    NOP     0

      454     2224    1       PL=' ';

   2224 19 002303   040100 100400                    MLR     fill='040'O
        19 002304   000014 000001 20                 ADSC9   12                       cn=0,n=1
        19 002305   200016 000200                    ADSC9   PL,,AUTO                 cn=0,n=128

      455     2225    1       CALL LIST(PL);

   2225 19 002306   200016 630500                    EPPR0   PL,,AUTO
        19 002307   200162 450500                    STP0    @CST+1,,AUTO
        19 002310   200162 630500                    EPPR0   @CST+1,,AUTO
PL6.E3A0      #001=DDY7 File=ZIG$DDY7.:ZIC0TSI                                   FRI 09/05/97 11:55 Page:95
        19 002311   000011 631400 20                 EPPR1   9
        19 002312   000000 701000 xent               TSX1    LIST
        19 002313   000000 011000                    NOP     0

      456     2226    1   CHK_OUT:
      457     2227    1       CHK_AG_FND = 0;

   2227 19 002314   000230 450000 17    CHK_OUT      STZ     CHK_AG_FND

      458     2228    1       PL = ' '; C64 = ' ';

   2228 19 002315   040100 100400                    MLR     fill='040'O
        19 002316   000014 000001 20                 ADSC9   12                       cn=0,n=1
        19 002317   200016 000200                    ADSC9   PL,,AUTO                 cn=0,n=128

   2228 19 002320   040100 100400                    MLR     fill='040'O
        19 002321   000014 000001 20                 ADSC9   12                       cn=0,n=1
        19 002322   200127 000100                    ADSC9   C64,,AUTO                cn=0,n=64

      459     2229    1       CALL FINDD_6('PT  ',CURR_PT) ALTRET(DBCS_ERR);

   2229 19 002323   000041 630400 20                 EPPR0   33
        19 002324   000000 631400 20                 EPPR1   0
        19 002325   000000 701000 xent               TSX1    FINDD_6
        19 002326   005470 702000 19                 TSX2    DBCS_ERR

      460     2230    1       CALL FETCHOS_6('PN-PT   ') ALTRET(DBCS_ERR);

   2230 19 002327   000043 630400 20                 EPPR0   35
        19 002330   000011 631400 20                 EPPR1   9
        19 002331   000000 701000 xent               TSX1    FETCHOS_6
        19 002332   005470 702000 19                 TSX2    DBCS_ERR

      461     2231    1   CHK_A8_AG:
      462     2232    1       CALL FETCHNS_6('PN-AG   ') ALTRET(CHK_A8_STAT);

   2232 19 002333   000045 630400 20    CHK_A8_AG    EPPR0   37
PL6.E3A0      #001=DDY7 File=ZIG$DDY7.:ZIC0TSI                                   FRI 09/05/97 11:55 Page:96
        19 002334   000011 631400 20                 EPPR1   9
        19 002335   000000 701000 xent               TSX1    FETCHNS_6
        19 002336   002411 702000 19                 TSX2    CHK_A8_STAT

      463     2233    1       IF UWA.AG.ATYPE = 3 THEN GOTO CHK_A9;

   2233 19 002337   000500 235000 16                 LDA     UWA+320
        19 002340   000003 115007                    CMPA    3,DL
        19 002341   002345 600000 19                 TZE     CHK_A9

      464     2234    1       IF UWA.AG.ATYPE = 4 THEN GOTO CHK_A9;

   2234 19 002342   000004 115007                    CMPA    4,DL
        19 002343   002345 600000 19                 TZE     CHK_A9

      465     2235    1       GOTO CHK_A8_AG;

   2235 19 002344   002333 710000 19                 TRA     CHK_A8_AG

      466     2236    1   CHK_A9:
      467     2237    1       CALL FINDD_6('FR  ',UWA.AG.AG_SE) ALTRET(DBCS_ERR);

   2237 19 002345   000046 630400 20    CHK_A9       EPPR0   38
        19 002346   000000 631400 20                 EPPR1   0
        19 002347   000000 701000 xent               TSX1    FINDD_6
        19 002350   005470 702000 19                 TSX2    DBCS_ERR

      468     2238    1       CALL FETCHOS_6('SN-SE   ') ALTRET(DBCS_ERR);

   2238 19 002351   000050 630400 20                 EPPR0   40
        19 002352   000011 631400 20                 EPPR1   9
        19 002353   000000 701000 xent               TSX1    FETCHOS_6
        19 002354   005470 702000 19                 TSX2    DBCS_ERR

      469     2239    1       CHK_AG_FND = 1;

   2239 19 002355   000001 235007                    LDA     1,DL
PL6.E3A0      #001=DDY7 File=ZIG$DDY7.:ZIC0TSI                                   FRI 09/05/97 11:55 Page:97
        19 002356   000230 755000 17                 STA     CHK_AG_FND

      470     2240    1       CALL QTE(UWA.SN.SENAME);

   2240 19 002357   000013 236000 20                 LDQ     11
        19 002360   200161 756100                    STQ     C32+10,,AUTO
        19 002361   005535 701000 19                 TSX1    QTE
        19 002362   000000 011000                    NOP     0

      471     2241    1       CALL CONCAT(PL,C64,CHR32,'  GIVING ARGUMENT');

   2241 19 002363   040100 100500                    MLR     fill='040'O
        19 002364   200127 000100                    ADSC9   C64,,AUTO                cn=0,n=64
        19 002365   200016 000100                    ADSC9   PL,,AUTO                 cn=0,n=64
        19 002366   040100 100500                    MLR     fill='040'O
        19 002367   200117 000040                    ADSC9   CHR32,,AUTO              cn=0,n=32
        19 002370   200036 000040                    ADSC9   PL+16,,AUTO              cn=0,n=32
        19 002371   040100 100400                    MLR     fill='040'O
        19 002372   000402 000021 18                 ADSC9   SUBMESS+258              cn=0,n=17
        19 002373   200046 000040                    ADSC9   PL+24,,AUTO              cn=0,n=32

      472     2242    1       CALL LIST(PL);

   2242 19 002374   200016 630500                    EPPR0   PL,,AUTO
        19 002375   200162 450500                    STP0    @CST+1,,AUTO
        19 002376   200162 630500                    EPPR0   @CST+1,,AUTO
        19 002377   000011 631400 20                 EPPR1   9
        19 002400   000000 701000 xent               TSX1    LIST
        19 002401   000000 011000                    NOP     0

      473     2243    1       PL = ' '; C64 = ' ';

   2243 19 002402   040100 100400                    MLR     fill='040'O
        19 002403   000014 000001 20                 ADSC9   12                       cn=0,n=1
        19 002404   200016 000200                    ADSC9   PL,,AUTO                 cn=0,n=128

   2243 19 002405   040100 100400                    MLR     fill='040'O
PL6.E3A0      #001=DDY7 File=ZIG$DDY7.:ZIC0TSI                                   FRI 09/05/97 11:55 Page:98
        19 002406   000014 000001 20                 ADSC9   12                       cn=0,n=1
        19 002407   200127 000100                    ADSC9   C64,,AUTO                cn=0,n=64

      474     2244    1       GOTO CHK_A8_AG;

   2244 19 002410   002333 710000 19                 TRA     CHK_A8_AG

      475     2245    1   CHK_A8_STAT:
      476     2246    1       IF UWA.DB_STATUS = '0502100' THEN GOTO CHK_A10;

   2246 19 002411   040000 106400       CHK_A8_STAT  CMPC    fill='040'O
        19 002412   000001 000007 16                 ADSC9   UWA+1                    cn=0,n=7
        19 002413   000361 000007 18                 ADSC9   SUBMESS+241              cn=0,n=7
        19 002414   002420 600000 19                 TZE     CHK_A10

      477     2247    1       CALL ABORT;

   2247 19 002415   000021 631400 20                 EPPR1   17
        19 002416   000000 701000 xent               TSX1    ABORT
        19 002417   000000 011000                    NOP     0

      478     2248    1   CHK_A10:
      479     2249    1       PL=' ';

   2249 19 002420   040100 100400       CHK_A10      MLR     fill='040'O
        19 002421   000014 000001 20                 ADSC9   12                       cn=0,n=1
        19 002422   200016 000200                    ADSC9   PL,,AUTO                 cn=0,n=128

      480     2250    1       CALL LIST(PL);

   2250 19 002423   200016 630500                    EPPR0   PL,,AUTO
        19 002424   200162 450500                    STP0    @CST+1,,AUTO
        19 002425   200162 630500                    EPPR0   @CST+1,,AUTO
        19 002426   000011 631400 20                 EPPR1   9
        19 002427   000000 701000 xent               TSX1    LIST
        19 002430   000000 011000                    NOP     0

PL6.E3A0      #001=DDY7 File=ZIG$DDY7.:ZIC0TSI                                   FRI 09/05/97 11:55 Page:99
      481     2251    1       IF CHK_AG_FND = 1 THEN GOTO ENC_NXT_FR;

   2251 19 002431   000230 235000 17                 LDA     CHK_AG_FND
        19 002432   000001 115007                    CMPA    1,DL
        19 002433   001265 600000 19                 TZE     ENC_NXT_FR

      482     2252    1       PL = '                    **** NO OUTPUT DATA ARGUMENTS FOUND ****';

   2252 19 002434   040100 100400                    MLR     fill='040'O
        19 002435   000407 000074 18                 ADSC9   SUBMESS+263              cn=0,n=60
        19 002436   200016 000200                    ADSC9   PL,,AUTO                 cn=0,n=128

      483     2253    1       CALL LIST(PL);

   2253 19 002437   200016 630500                    EPPR0   PL,,AUTO
        19 002440   200162 450500                    STP0    @CST+1,,AUTO
        19 002441   200162 630500                    EPPR0   @CST+1,,AUTO
        19 002442   000011 631400 20                 EPPR1   9
        19 002443   000000 701000 xent               TSX1    LIST
        19 002444   000000 011000                    NOP     0

      484     2254    1       PL=' ';

   2254 19 002445   040100 100400                    MLR     fill='040'O
        19 002446   000014 000001 20                 ADSC9   12                       cn=0,n=1
        19 002447   200016 000200                    ADSC9   PL,,AUTO                 cn=0,n=128

      485     2255    1       CALL LIST(PL);

   2255 19 002450   200016 630500                    EPPR0   PL,,AUTO
        19 002451   200162 450500                    STP0    @CST+1,,AUTO
        19 002452   200162 630500                    EPPR0   @CST+1,,AUTO
        19 002453   000011 631400 20                 EPPR1   9
        19 002454   000000 701000 xent               TSX1    LIST
        19 002455   000000 011000                    NOP     0

      486     2256    1       GOTO ENC_NXT_FR;
PL6.E3A0      #001=DDY7 File=ZIG$DDY7.:ZIC0TSI                                   FRI 09/05/97 11:55 Page:100

   2256 19 002456   001265 710000 19                 TRA     ENC_NXT_FR

      487     2257    1   SET_STR_ANAL:
      488     2258    1       IF UWA.RC.KEY_PRESENT = 0 THEN

   2258 19 002457   000301 235000 16    SET_STR_ANAL LDA     UWA+193
        19 002460   002663 600000 19                 TZE     SET_STR2

      489     2259    1           GOTO SET_STR2; /* No secondary keys */
      490     2260
      491     2261    1       PL = ' '; C64 = ' ';

   2261 19 002461   040100 100400                    MLR     fill='040'O
        19 002462   000014 000001 20                 ADSC9   12                       cn=0,n=1
        19 002463   200016 000200                    ADSC9   PL,,AUTO                 cn=0,n=128

   2261 19 002464   040100 100400                    MLR     fill='040'O
        19 002465   000014 000001 20                 ADSC9   12                       cn=0,n=1
        19 002466   200127 000100                    ADSC9   C64,,AUTO                cn=0,n=64

      492     2262    1       CALL LIST(PL);

   2262 19 002467   200016 630500                    EPPR0   PL,,AUTO
        19 002470   200162 450500                    STP0    @CST+1,,AUTO
        19 002471   200162 630500                    EPPR0   @CST+1,,AUTO
        19 002472   000011 631400 20                 EPPR1   9
        19 002473   000000 701000 xent               TSX1    LIST
        19 002474   000000 011000                    NOP     0

      493     2263    1       CALL LIST(PL);

   2263 19 002475   200016 630500                    EPPR0   PL,,AUTO
        19 002476   200162 450500                    STP0    @CST+1,,AUTO
        19 002477   200162 630500                    EPPR0   @CST+1,,AUTO
        19 002500   000011 631400 20                 EPPR1   9
        19 002501   000000 701000 xent               TSX1    LIST
PL6.E3A0      #001=DDY7 File=ZIG$DDY7.:ZIC0TSI                                   FRI 09/05/97 11:55 Page:101
        19 002502   000000 011000                    NOP     0

      494     2264    1       PL = 'KEY STRUCTURE ANALYSIS:';

   2264 19 002503   040100 100400                    MLR     fill='040'O
        19 002504   000473 000027 18                 ADSC9   SUBMESS+315              cn=0,n=23
        19 002505   200016 000200                    ADSC9   PL,,AUTO                 cn=0,n=128

      495     2265    1       CALL LIST(PL);

   2265 19 002506   200016 630500                    EPPR0   PL,,AUTO
        19 002507   200162 450500                    STP0    @CST+1,,AUTO
        19 002510   200162 630500                    EPPR0   @CST+1,,AUTO
        19 002511   000011 631400 20                 EPPR1   9
        19 002512   000000 701000 xent               TSX1    LIST
        19 002513   000000 011000                    NOP     0

      496     2266    1       CALL FETCHOS_6('RC-SOSM ') ALTRET(DBCS_ERR);

   2266 19 002514   000052 630400 20                 EPPR0   42
        19 002515   000011 631400 20                 EPPR1   9
        19 002516   000000 701000 xent               TSX1    FETCHOS_6
        19 002517   005470 702000 19                 TSX2    DBCS_ERR

      497     2267
      498     2268    1   SET_STR1:
      499     2269    1       CALL FETCHNS_6('RC-SOSM ') ALTRET(SET_STR2);

   2269 19 002520   000052 630400 20    SET_STR1     EPPR0   42
        19 002521   000011 631400 20                 EPPR1   9
        19 002522   000000 701000 xent               TSX1    FETCHNS_6
        19 002523   002663 702000 19                 TSX2    SET_STR2

      500     2270    1       IF UWA.RECORD_NAME ~= 'SM' THEN

   2270 19 002524   040000 106400                    CMPC    fill='040'O
        19 002525   000023 000036 16                 ADSC9   UWA+19                   cn=0,n=30
PL6.E3A0      #001=DDY7 File=ZIG$DDY7.:ZIC0TSI                                   FRI 09/05/97 11:55 Page:102
        19 002526   000503 000002 18                 ADSC9   SUBMESS+323              cn=0,n=2
        19 002527   002520 601000 19                 TNZ     SET_STR1

      501     2271    1           GOTO SET_STR1;
      502     2272
      503     2273    1       CALL FETCHOS_6('SC-SOSM ') ALTRET(DBCS_ERR);

   2273 19 002530   000053 630400 20                 EPPR0   43
        19 002531   000011 631400 20                 EPPR1   9
        19 002532   000000 701000 xent               TSX1    FETCHOS_6
        19 002533   005470 702000 19                 TSX2    DBCS_ERR

      504     2274    1       IF UWA.SC.SETTYPE ~= 3 THEN /* Alternate key */

   2274 19 002534   000310 235000 16                 LDA     UWA+200
        19 002535   000003 115007                    CMPA    3,DL
        19 002536   002520 601000 19                 TNZ     SET_STR1

      505     2275    1           GOTO SET_STR1;
      506     2276
      507     2277    1       PL=' ';

   2277 19 002537   040100 100400                    MLR     fill='040'O
        19 002540   000014 000001 20                 ADSC9   12                       cn=0,n=1
        19 002541   200016 000200                    ADSC9   PL,,AUTO                 cn=0,n=128

      508     2278    1       CALL LIST(PL);

   2278 19 002542   200016 630500                    EPPR0   PL,,AUTO
        19 002543   200162 450500                    STP0    @CST+1,,AUTO
        19 002544   200162 630500                    EPPR0   @CST+1,,AUTO
        19 002545   000011 631400 20                 EPPR1   9
        19 002546   000000 701000 xent               TSX1    LIST
        19 002547   000000 011000                    NOP     0

      509     2279    1       PL = '  KEY NAME IS ';

PL6.E3A0      #001=DDY7 File=ZIG$DDY7.:ZIC0TSI                                   FRI 09/05/97 11:55 Page:103
   2279 19 002550   040100 100400                    MLR     fill='040'O
        19 002551   000506 000016 18                 ADSC9   SUBMESS+326              cn=0,n=14
        19 002552   200016 000200                    ADSC9   PL,,AUTO                 cn=0,n=128

      510     2280    1       CALL FETCHOS_6('SN-SE   ') ALTRET(DBCS_ERR);

   2280 19 002553   000050 630400 20                 EPPR0   40
        19 002554   000011 631400 20                 EPPR1   9
        19 002555   000000 701000 xent               TSX1    FETCHOS_6
        19 002556   005470 702000 19                 TSX2    DBCS_ERR

      511     2281    1       CALL QTE(UWA.SN.SENAME);

   2281 19 002557   000013 236000 20                 LDQ     11
        19 002560   200161 756100                    STQ     C32+10,,AUTO
        19 002561   005535 701000 19                 TSX1    QTE
        19 002562   000000 011000                    NOP     0

      512     2282    1       CALL CONCAT(C64,'  KEY NAME IS ',CHAR_LEN);

   2282 19 002563   040100 100400                    MLR     fill='040'O
        19 002564   000506 000016 18                 ADSC9   SUBMESS+326              cn=0,n=14
        19 002565   200127 000016                    ADSC9   C64,,AUTO                cn=0,n=14
        19 002566   200106 470500                    LDP0    CHAR$,,AUTO
        19 002567   000232 720000 17                 LXL0    LEN
        19 002570   040100 100540                    MLR     fill='040'O
        19 002571   000000 000010                    ADSC9   0,,PR0                   cn=0,n=*X0
        19 002572   200132 400062                    ADSC9   C64+3,,AUTO              cn=2,n=50

      513     2283    1       PL = C64;

   2283 19 002573   040100 100500                    MLR     fill='040'O
        19 002574   200127 000100                    ADSC9   C64,,AUTO                cn=0,n=64
        19 002575   200016 000200                    ADSC9   PL,,AUTO                 cn=0,n=128

      514     2284
      515     2285    1       CALL FETCHNS_6('SMSS-CF ') ALTRET(DBCS_ERR);
PL6.E3A0      #001=DDY7 File=ZIG$DDY7.:ZIC0TSI                                   FRI 09/05/97 11:55 Page:104

   2285 19 002576   000054 630400 20                 EPPR0   44
        19 002577   000011 631400 20                 EPPR1   9
        19 002600   000000 701000 xent               TSX1    FETCHNS_6
        19 002601   005470 702000 19                 TSX2    DBCS_ERR

      516     2286    1       CALL FETCHOS_6('FR-CFS  ') ALTRET(DBCS_ERR);

   2286 19 002602   000055 630400 20                 EPPR0   45
        19 002603   000011 631400 20                 EPPR1   9
        19 002604   000000 701000 xent               TSX1    FETCHOS_6
        19 002605   005470 702000 19                 TSX2    DBCS_ERR

      517     2287    1       CALL FETCHOS_6('SN-SE   ') ALTRET(DBCS_ERR);

   2287 19 002606   000050 630400 20                 EPPR0   40
        19 002607   000011 631400 20                 EPPR1   9
        19 002610   000000 701000 xent               TSX1    FETCHOS_6
        19 002611   005470 702000 19                 TSX2    DBCS_ERR

      518     2288    1       CALL QTE(UWA.SN.SENAME);

   2288 19 002612   000013 236000 20                 LDQ     11
        19 002613   200161 756100                    STQ     C32+10,,AUTO
        19 002614   005535 701000 19                 TSX1    QTE
        19 002615   000000 011000                    NOP     0

      519     2289    1       C32 = CHAR_LEN;

   2289 19 002616   200106 470500                    LDP0    CHAR$,,AUTO
        19 002617   000232 720000 17                 LXL0    LEN
        19 002620   040100 100540                    MLR     fill='040'O
        19 002621   000000 000010                    ADSC9   0,,PR0                   cn=0,n=*X0
        19 002622   200147 000040                    ADSC9   C32,,AUTO                cn=0,n=32

      520     2290    1       CALL CONCAT(PL,C64,C32,'  ASCENDING KEY');

PL6.E3A0      #001=DDY7 File=ZIG$DDY7.:ZIC0TSI                                   FRI 09/05/97 11:55 Page:105
   2290 19 002623   040100 100500                    MLR     fill='040'O
        19 002624   200127 000100                    ADSC9   C64,,AUTO                cn=0,n=64
        19 002625   200016 000100                    ADSC9   PL,,AUTO                 cn=0,n=64
        19 002626   040100 100500                    MLR     fill='040'O
        19 002627   200147 000040                    ADSC9   C32,,AUTO                cn=0,n=32
        19 002630   200036 000040                    ADSC9   PL+16,,AUTO              cn=0,n=32
        19 002631   040100 100400                    MLR     fill='040'O
        19 002632   000516 000017 18                 ADSC9   SUBMESS+334              cn=0,n=15
        19 002633   200046 000040                    ADSC9   PL+24,,AUTO              cn=0,n=32

      521     2291    1       CALL LIST(PL);

   2291 19 002634   200016 630500                    EPPR0   PL,,AUTO
        19 002635   200162 450500                    STP0    @CST+1,,AUTO
        19 002636   200162 630500                    EPPR0   @CST+1,,AUTO
        19 002637   000011 631400 20                 EPPR1   9
        19 002640   000000 701000 xent               TSX1    LIST
        19 002641   000000 011000                    NOP     0

      522     2292    1       IF UWA.SC.SEQDUP = 2 THEN

   2292 19 002642   000320 235000 16                 LDA     UWA+208
        19 002643   000002 115007                    CMPA    2,DL
        19 002644   002651 601000 19                 TNZ     s:2295

      523     2293    1           PL = '      DUPLICATES NOT ALLOWED';

   2293 19 002645   040100 100400                    MLR     fill='040'O
        19 002646   000522 000034 18                 ADSC9   SUBMESS+338              cn=0,n=28
        19 002647   200016 000200                    ADSC9   PL,,AUTO                 cn=0,n=128
        19 002650   002654 710000 19                 TRA     s:2296

      524     2294    1       ELSE
      525     2295    1           PL = '      DUPLICATES ALLOWED';

   2295 19 002651   040100 100400                    MLR     fill='040'O
        19 002652   000531 000030 18                 ADSC9   SUBMESS+345              cn=0,n=24
PL6.E3A0      #001=DDY7 File=ZIG$DDY7.:ZIC0TSI                                   FRI 09/05/97 11:55 Page:106
        19 002653   200016 000200                    ADSC9   PL,,AUTO                 cn=0,n=128

      526     2296    1       CALL LIST(PL);

   2296 19 002654   200016 630500                    EPPR0   PL,,AUTO
        19 002655   200162 450500                    STP0    @CST+1,,AUTO
        19 002656   200162 630500                    EPPR0   @CST+1,,AUTO
        19 002657   000011 631400 20                 EPPR1   9
        19 002660   000000 701000 xent               TSX1    LIST
        19 002661   000000 011000                    NOP     0

      527     2297    1       GOTO SET_STR1;

   2297 19 002662   002520 710000 19                 TRA     SET_STR1

      528     2298    1   SET_STR2:
      529     2299
      530     2300    1       PL=' ';

   2300 19 002663   040100 100400       SET_STR2     MLR     fill='040'O
        19 002664   000014 000001 20                 ADSC9   12                       cn=0,n=1
        19 002665   200016 000200                    ADSC9   PL,,AUTO                 cn=0,n=128

      531     2301    1       CALL LIST(PL);

   2301 19 002666   200016 630500                    EPPR0   PL,,AUTO
        19 002667   200162 450500                    STP0    @CST+1,,AUTO
        19 002670   200162 630500                    EPPR0   @CST+1,,AUTO
        19 002671   000011 631400 20                 EPPR1   9
        19 002672   000000 701000 xent               TSX1    LIST
        19 002673   000000 011000                    NOP     0

      532     2302    1       PL=' ';

   2302 19 002674   040100 100400                    MLR     fill='040'O
        19 002675   000014 000001 20                 ADSC9   12                       cn=0,n=1
        19 002676   200016 000200                    ADSC9   PL,,AUTO                 cn=0,n=128
PL6.E3A0      #001=DDY7 File=ZIG$DDY7.:ZIC0TSI                                   FRI 09/05/97 11:55 Page:107

      533     2303    1       CALL LIST(PL);

   2303 19 002677   200016 630500                    EPPR0   PL,,AUTO
        19 002700   200162 450500                    STP0    @CST+1,,AUTO
        19 002701   200162 630500                    EPPR0   @CST+1,,AUTO
        19 002702   000011 631400 20                 EPPR1   9
        19 002703   000000 701000 xent               TSX1    LIST
        19 002704   000000 011000                    NOP     0

      534     2304    1       PL = 'SET STRUCTURE ANALYSIS:';

   2304 19 002705   040100 100400                    MLR     fill='040'O
        19 002706   000537 000027 18                 ADSC9   SUBMESS+351              cn=0,n=23
        19 002707   200016 000200                    ADSC9   PL,,AUTO                 cn=0,n=128

      535     2305    1       CALL LIST(PL);

   2305 19 002710   200016 630500                    EPPR0   PL,,AUTO
        19 002711   200162 450500                    STP0    @CST+1,,AUTO
        19 002712   200162 630500                    EPPR0   @CST+1,,AUTO
        19 002713   000011 631400 20                 EPPR1   9
        19 002714   000000 701000 xent               TSX1    LIST
        19 002715   000000 011000                    NOP     0

      536     2306    1       PL=' ';

   2306 19 002716   040100 100400                    MLR     fill='040'O
        19 002717   000014 000001 20                 ADSC9   12                       cn=0,n=1
        19 002720   200016 000200                    ADSC9   PL,,AUTO                 cn=0,n=128

      537     2307    1       CALL LIST(PL);

   2307 19 002721   200016 630500                    EPPR0   PL,,AUTO
        19 002722   200162 450500                    STP0    @CST+1,,AUTO
        19 002723   200162 630500                    EPPR0   @CST+1,,AUTO
        19 002724   000011 631400 20                 EPPR1   9
PL6.E3A0      #001=DDY7 File=ZIG$DDY7.:ZIC0TSI                                   FRI 09/05/97 11:55 Page:108
        19 002725   000000 701000 xent               TSX1    LIST
        19 002726   000000 011000                    NOP     0

      538     2308    1       CALL FETCHD_6('RC  ',CURR_RC) ALTRET(DBCS_ERR);

   2308 19 002727   200102 630500                    EPPR0   CURR_RC,,AUTO
        19 002730   200163 450500                    STP0    @CST+2,,AUTO
        19 002731   000056 236000 20                 LDQ     46
        19 002732   200162 756100                    STQ     @CST+1,,AUTO
        19 002733   200162 630500                    EPPR0   @CST+1,,AUTO
        19 002734   000000 631400 20                 EPPR1   0
        19 002735   000000 701000 xent               TSX1    FETCHD_6
        19 002736   005470 702000 19                 TSX2    DBCS_ERR

      539     2309    1       CALL FETCHOS_6('RC-SOSM ') ALTRET(DBCS_ERR);

   2309 19 002737   000052 630400 20                 EPPR0   42
        19 002740   000011 631400 20                 EPPR1   9
        19 002741   000000 701000 xent               TSX1    FETCHOS_6
        19 002742   005470 702000 19                 TSX2    DBCS_ERR

      540     2310    2       IF UWA.RC.SO ~= 0 THEN DO;

   2310 19 002743   000274 235000 16                 LDA     UWA+188
        19 002744   003061 600000 19                 TZE     s:2332

      541     2311    2           PL = '  OWNER OF SET(S):';

   2311 19 002745   040100 100400                    MLR     fill='040'O
        19 002746   000546 000022 18                 ADSC9   SUBMESS+358              cn=0,n=18
        19 002747   200016 000200                    ADSC9   PL,,AUTO                 cn=0,n=128

      542     2312    2           CALL LIST(PL);

   2312 19 002750   200016 630500                    EPPR0   PL,,AUTO
        19 002751   200162 450500                    STP0    @CST+1,,AUTO
        19 002752   200162 630500                    EPPR0   @CST+1,,AUTO
PL6.E3A0      #001=DDY7 File=ZIG$DDY7.:ZIC0TSI                                   FRI 09/05/97 11:55 Page:109
        19 002753   000011 631400 20                 EPPR1   9
        19 002754   000000 701000 xent               TSX1    LIST
        19 002755   000000 011000                    NOP     0

      543     2313    2           PL=' ';

   2313 19 002756   040100 100400                    MLR     fill='040'O
        19 002757   000014 000001 20                 ADSC9   12                       cn=0,n=1
        19 002760   200016 000200                    ADSC9   PL,,AUTO                 cn=0,n=128

      544     2314    2           CALL LIST(PL);

   2314 19 002761   200016 630500                    EPPR0   PL,,AUTO
        19 002762   200162 450500                    STP0    @CST+1,,AUTO
        19 002763   200162 630500                    EPPR0   @CST+1,,AUTO
        19 002764   000011 631400 20                 EPPR1   9
        19 002765   000000 701000 xent               TSX1    LIST
        19 002766   000000 011000                    NOP     0

      545     2315    2   NXT_OWNER:
      546     2316    2           CALL FETCHNS_6('RC-SOSM ') ALTRET(END_OWNERS);

   2316 19 002767   000052 630400 20    NXT_OWNER    EPPR0   42
        19 002770   000011 631400 20                 EPPR1   9
        19 002771   000000 701000 xent               TSX1    FETCHNS_6
        19 002772   003043 702000 19                 TSX2    END_OWNERS

      547     2317    2           IF UWA.RECORD_NAME ~= 'SO' THEN GOTO NXT_OWNER;

   2317 19 002773   040000 106400                    CMPC    fill='040'O
        19 002774   000023 000036 16                 ADSC9   UWA+19                   cn=0,n=30
        19 002775   000553 000002 18                 ADSC9   SUBMESS+363              cn=0,n=2
        19 002776   002767 601000 19                 TNZ     NXT_OWNER

      548     2318    2           CALL FETCHOS_6('SC-SOSM ') ALTRET(DBCS_ERR);

   2318 19 002777   000053 630400 20                 EPPR0   43
PL6.E3A0      #001=DDY7 File=ZIG$DDY7.:ZIC0TSI                                   FRI 09/05/97 11:55 Page:110
        19 003000   000011 631400 20                 EPPR1   9
        19 003001   000000 701000 xent               TSX1    FETCHOS_6
        19 003002   005470 702000 19                 TSX2    DBCS_ERR

      549     2319    2           CALL FETCHOS_6('SN-SE   ') ALTRET(DBCS_ERR);

   2319 19 003003   000050 630400 20                 EPPR0   40
        19 003004   000011 631400 20                 EPPR1   9
        19 003005   000000 701000 xent               TSX1    FETCHOS_6
        19 003006   005470 702000 19                 TSX2    DBCS_ERR

      550     2320    2           CALL QTE(UWA.SN.SENAME);

   2320 19 003007   000013 236000 20                 LDQ     11
        19 003010   200161 756100                    STQ     C32+10,,AUTO
        19 003011   005535 701000 19                 TSX1    QTE
        19 003012   000000 011000                    NOP     0

      551     2321    2           CALL CONCAT(PL , '      SET NAME ' , CHAR_LEN);

   2321 19 003013   040100 100400                    MLR     fill='040'O
        19 003014   000554 000017 18                 ADSC9   SUBMESS+364              cn=0,n=15
        19 003015   200016 000017                    ADSC9   PL,,AUTO                 cn=0,n=15
        19 003016   200106 470500                    LDP0    CHAR$,,AUTO
        19 003017   000232 720000 17                 LXL0    LEN
        19 003020   040100 100540                    MLR     fill='040'O
        19 003021   000000 000010                    ADSC9   0,,PR0                   cn=0,n=*X0
        19 003022   200021 600161                    ADSC9   PL+3,,AUTO               cn=3,n=113

      552     2322    2           CALL LIST(PL);

   2322 19 003023   200016 630500                    EPPR0   PL,,AUTO
        19 003024   200162 450500                    STP0    @CST+1,,AUTO
        19 003025   200162 630500                    EPPR0   @CST+1,,AUTO
        19 003026   000011 631400 20                 EPPR1   9
        19 003027   000000 701000 xent               TSX1    LIST
        19 003030   000000 011000                    NOP     0
PL6.E3A0      #001=DDY7 File=ZIG$DDY7.:ZIC0TSI                                   FRI 09/05/97 11:55 Page:111

      553     2323    2           PL=' ';

   2323 19 003031   040100 100400                    MLR     fill='040'O
        19 003032   000014 000001 20                 ADSC9   12                       cn=0,n=1
        19 003033   200016 000200                    ADSC9   PL,,AUTO                 cn=0,n=128

      554     2324    2           CALL LIST(PL);

   2324 19 003034   200016 630500                    EPPR0   PL,,AUTO
        19 003035   200162 450500                    STP0    @CST+1,,AUTO
        19 003036   200162 630500                    EPPR0   @CST+1,,AUTO
        19 003037   000011 631400 20                 EPPR1   9
        19 003040   000000 701000 xent               TSX1    LIST
        19 003041   000000 011000                    NOP     0

      555     2325    2           GOTO NXT_OWNER;

   2325 19 003042   002767 710000 19                 TRA     NXT_OWNER

      556     2326    2   END_OWNERS:
      557     2327    2           CALL FETCHOS_6('RC-SOSM ') ALTRET(DBCS_ERR);

   2327 19 003043   000052 630400 20    END_OWNERS   EPPR0   42
        19 003044   000011 631400 20                 EPPR1   9
        19 003045   000000 701000 xent               TSX1    FETCHOS_6
        19 003046   005470 702000 19                 TSX2    DBCS_ERR

      558     2328    2           PL=' ';

   2328 19 003047   040100 100400                    MLR     fill='040'O
        19 003050   000014 000001 20                 ADSC9   12                       cn=0,n=1
        19 003051   200016 000200                    ADSC9   PL,,AUTO                 cn=0,n=128

      559     2329    2           CALL LIST(PL);

   2329 19 003052   200016 630500                    EPPR0   PL,,AUTO
PL6.E3A0      #001=DDY7 File=ZIG$DDY7.:ZIC0TSI                                   FRI 09/05/97 11:55 Page:112
        19 003053   200162 450500                    STP0    @CST+1,,AUTO
        19 003054   200162 630500                    EPPR0   @CST+1,,AUTO
        19 003055   000011 631400 20                 EPPR1   9
        19 003056   000000 701000 xent               TSX1    LIST
        19 003057   000000 011000                    NOP     0

      560     2330    2           END;

   2330 19 003060   003103 710000 19                 TRA     s:2337

      561     2331    2       ELSE DO;

      562     2332    2           PL = '                    **** NO SET OWNER RELATIONSHIPS DEFINED ****';

   2332 19 003061   040100 100400                    MLR     fill='040'O
        19 003062   000560 000100 18                 ADSC9   SUBMESS+368              cn=0,n=64
        19 003063   200016 000200                    ADSC9   PL,,AUTO                 cn=0,n=128

      563     2333    2           CALL LIST(PL);

   2333 19 003064   200016 630500                    EPPR0   PL,,AUTO
        19 003065   200162 450500                    STP0    @CST+1,,AUTO
        19 003066   200162 630500                    EPPR0   @CST+1,,AUTO
        19 003067   000011 631400 20                 EPPR1   9
        19 003070   000000 701000 xent               TSX1    LIST
        19 003071   000000 011000                    NOP     0

      564     2334    2           PL=' ';

   2334 19 003072   040100 100400                    MLR     fill='040'O
        19 003073   000014 000001 20                 ADSC9   12                       cn=0,n=1
        19 003074   200016 000200                    ADSC9   PL,,AUTO                 cn=0,n=128

      565     2335    2           CALL LIST(PL);

   2335 19 003075   200016 630500                    EPPR0   PL,,AUTO
        19 003076   200162 450500                    STP0    @CST+1,,AUTO
PL6.E3A0      #001=DDY7 File=ZIG$DDY7.:ZIC0TSI                                   FRI 09/05/97 11:55 Page:113
        19 003077   200162 630500                    EPPR0   @CST+1,,AUTO
        19 003100   000011 631400 20                 EPPR1   9
        19 003101   000000 701000 xent               TSX1    LIST
        19 003102   000000 011000                    NOP     0

      566     2336    2           END;

      567     2337    1       IF UWA.RC.SM ~= 0 THEN GOTO SSA_3A;

   2337 19 003103   000275 235000 16                 LDA     UWA+189
        19 003104   003130 601000 19                 TNZ     SSA_3A

      568     2338    1       PL = '                    **** NO SET MEMBER RELATIONSHIPS DEFINED ****';

   2338 19 003105   040100 100400                    MLR     fill='040'O
        19 003106   000600 000101 18                 ADSC9   SUBMESS+384              cn=0,n=65
        19 003107   200016 000200                    ADSC9   PL,,AUTO                 cn=0,n=128

      569     2339    1       CALL LIST(PL);

   2339 19 003110   200016 630500                    EPPR0   PL,,AUTO
        19 003111   200162 450500                    STP0    @CST+1,,AUTO
        19 003112   200162 630500                    EPPR0   @CST+1,,AUTO
        19 003113   000011 631400 20                 EPPR1   9
        19 003114   000000 701000 xent               TSX1    LIST
        19 003115   000000 011000                    NOP     0

      570     2340    1       PL=' ';

   2340 19 003116   040100 100400                    MLR     fill='040'O
        19 003117   000014 000001 20                 ADSC9   12                       cn=0,n=1
        19 003120   200016 000200                    ADSC9   PL,,AUTO                 cn=0,n=128

      571     2341    1       CALL LIST(PL);

   2341 19 003121   200016 630500                    EPPR0   PL,,AUTO
        19 003122   200162 450500                    STP0    @CST+1,,AUTO
PL6.E3A0      #001=DDY7 File=ZIG$DDY7.:ZIC0TSI                                   FRI 09/05/97 11:55 Page:114
        19 003123   200162 630500                    EPPR0   @CST+1,,AUTO
        19 003124   000011 631400 20                 EPPR1   9
        19 003125   000000 701000 xent               TSX1    LIST
        19 003126   000000 011000                    NOP     0

      572     2342    1       GOTO ACR_ANAL;

   2342 19 003127   005122 710000 19                 TRA     ACR_ANAL

      573     2343    1   SSA_3A:
      574     2344    1       PL = '  AUTOMATIC MEMBER OF SET(S):';

   2344 19 003130   040100 100400       SSA_3A       MLR     fill='040'O
        19 003131   000621 000035 18                 ADSC9   SUBMESS+401              cn=0,n=29
        19 003132   200016 000200                    ADSC9   PL,,AUTO                 cn=0,n=128

      575     2345    1       CALL LIST(PL);

   2345 19 003133   200016 630500                    EPPR0   PL,,AUTO
        19 003134   200162 450500                    STP0    @CST+1,,AUTO
        19 003135   200162 630500                    EPPR0   @CST+1,,AUTO
        19 003136   000011 631400 20                 EPPR1   9
        19 003137   000000 701000 xent               TSX1    LIST
        19 003140   000000 011000                    NOP     0

      576     2346    1       PL=' ';

   2346 19 003141   040100 100400                    MLR     fill='040'O
        19 003142   000014 000001 20                 ADSC9   12                       cn=0,n=1
        19 003143   200016 000200                    ADSC9   PL,,AUTO                 cn=0,n=128

      577     2347    1       CALL LIST(PL);

   2347 19 003144   200016 630500                    EPPR0   PL,,AUTO
        19 003145   200162 450500                    STP0    @CST+1,,AUTO
        19 003146   200162 630500                    EPPR0   @CST+1,,AUTO
        19 003147   000011 631400 20                 EPPR1   9
PL6.E3A0      #001=DDY7 File=ZIG$DDY7.:ZIC0TSI                                   FRI 09/05/97 11:55 Page:115
        19 003150   000000 701000 xent               TSX1    LIST
        19 003151   000000 011000                    NOP     0

      578     2348    1       TSSX = 0;

   2348 19 003152   000000 450000 17                 STZ     TSSX

      579     2349    1       SSA_SET_FND = 0;

   2349 19 003153   000221 450000 17                 STZ     SSA_SET_FND

      580     2350    1       SMTYPE = 0;

   2350 19 003154   000000 220003                    LDX0    0,DU
        19 003155   000051 740000 17                 STX0    SMTYPE

      581     2351    1       GOTO SSA_NXT_SM1;

   2351 19 003156   003234 710000 19                 TRA     SSA_NXT_SM1

      582     2352    1   SSA_3B:
      583     2353    1       TSSX = 0;

   2353 19 003157   000000 450000 17    SSA_3B       STZ     TSSX

      584     2354    1       SSA_SET_FND = 0;

   2354 19 003160   000221 450000 17                 STZ     SSA_SET_FND

      585     2355    1       SMTYPE = 1;

   2355 19 003161   000001 220003                    LDX0    1,DU
        19 003162   000051 740000 17                 STX0    SMTYPE

      586     2356    1       PL=' ';

   2356 19 003163   040100 100400                    MLR     fill='040'O
PL6.E3A0      #001=DDY7 File=ZIG$DDY7.:ZIC0TSI                                   FRI 09/05/97 11:55 Page:116
        19 003164   000014 000001 20                 ADSC9   12                       cn=0,n=1
        19 003165   200016 000200                    ADSC9   PL,,AUTO                 cn=0,n=128

      587     2357    1       CALL LIST(PL);

   2357 19 003166   200016 630500                    EPPR0   PL,,AUTO
        19 003167   200162 450500                    STP0    @CST+1,,AUTO
        19 003170   200162 630500                    EPPR0   @CST+1,,AUTO
        19 003171   000011 631400 20                 EPPR1   9
        19 003172   000000 701000 xent               TSX1    LIST
        19 003173   000000 011000                    NOP     0

      588     2358    1       PL = '  MANUAL MEMBER OF SET(S):';

   2358 19 003174   040100 100400                    MLR     fill='040'O
        19 003175   000631 000032 18                 ADSC9   SUBMESS+409              cn=0,n=26
        19 003176   200016 000200                    ADSC9   PL,,AUTO                 cn=0,n=128

      589     2359    1       CALL LIST(PL);

   2359 19 003177   200016 630500                    EPPR0   PL,,AUTO
        19 003200   200162 450500                    STP0    @CST+1,,AUTO
        19 003201   200162 630500                    EPPR0   @CST+1,,AUTO
        19 003202   000011 631400 20                 EPPR1   9
        19 003203   000000 701000 xent               TSX1    LIST
        19 003204   000000 011000                    NOP     0

      590     2360    1       PL=' ';

   2360 19 003205   040100 100400                    MLR     fill='040'O
        19 003206   000014 000001 20                 ADSC9   12                       cn=0,n=1
        19 003207   200016 000200                    ADSC9   PL,,AUTO                 cn=0,n=128

      591     2361    1       CALL LIST(PL);

   2361 19 003210   200016 630500                    EPPR0   PL,,AUTO
        19 003211   200162 450500                    STP0    @CST+1,,AUTO
PL6.E3A0      #001=DDY7 File=ZIG$DDY7.:ZIC0TSI                                   FRI 09/05/97 11:55 Page:117
        19 003212   200162 630500                    EPPR0   @CST+1,,AUTO
        19 003213   000011 631400 20                 EPPR1   9
        19 003214   000000 701000 xent               TSX1    LIST
        19 003215   000000 011000                    NOP     0

      592     2362    1       CALL FETCHOS_6('RC-SOSM ') ALTRET(DBCS_ERR);

   2362 19 003216   000057 630400 20                 EPPR0   47
        19 003217   000011 631400 20                 EPPR1   9
        19 003220   000000 701000 xent               TSX1    FETCHOS_6
        19 003221   005470 702000 19                 TSX2    DBCS_ERR

      593     2363    1       GOTO SSA_NXT_SM1;

   2363 19 003222   003234 710000 19                 TRA     SSA_NXT_SM1

      594     2364    1   SSA_NXT_SM:
      595     2365    1       TSSX = 0;

   2365 19 003223   000000 450000 17    SSA_NXT_SM   STZ     TSSX

      596     2366    1       CALL FINDD_6('SM  ',CURR_RC_SOSM) ALTRET(DBCS_ERR);

   2366 19 003224   200103 630500                    EPPR0   CURR_RC_SOSM,,AUTO
        19 003225   200163 450500                    STP0    @CST+2,,AUTO
        19 003226   000060 236000 20                 LDQ     48
        19 003227   200162 756100                    STQ     @CST+1,,AUTO
        19 003230   200162 630500                    EPPR0   @CST+1,,AUTO
        19 003231   000000 631400 20                 EPPR1   0
        19 003232   000000 701000 xent               TSX1    FINDD_6
        19 003233   005470 702000 19                 TSX2    DBCS_ERR

      597     2367    1   SSA_NXT_SM1:
      598     2368    1       CALL FETCHNS_6('RC-SOSM ') ALTRET(SSA_CK_STAT);

   2368 19 003234   000057 630400 20    SSA_NXT_SM1  EPPR0   47
        19 003235   000011 631400 20                 EPPR1   9
PL6.E3A0      #001=DDY7 File=ZIG$DDY7.:ZIC0TSI                                   FRI 09/05/97 11:55 Page:118
        19 003236   000000 701000 xent               TSX1    FETCHNS_6
        19 003237   003247 702000 19                 TSX2    SSA_CK_STAT

      599     2369    1       IF UWA.RECORD_NAME ~= 'SM' THEN GOTO SSA_NXT_SM1;

   2369 19 003240   040000 106400                    CMPC    fill='040'O
        19 003241   000023 000036 16                 ADSC9   UWA+19                   cn=0,n=30
        19 003242   000642 000002 18                 ADSC9   SUBMESS+418              cn=0,n=2
        19 003243   003234 601000 19                 TNZ     SSA_NXT_SM1

      600     2370    1       CURR_RC_SOSM = UWA.DIRECT_REF;

   2370 19 003244   000036 235000 16                 LDA     UWA+30
        19 003245   200103 755100                    STA     CURR_RC_SOSM,,AUTO

      601     2371    1       GOTO SSA_SM_A;

   2371 19 003246   003303 710000 19                 TRA     SSA_SM_A

      602     2372    1   SSA_CK_STAT:
      603     2373    1       IF UWA.DB_STATUS = '0502100' THEN GOTO SSA_CK_A;

   2373 19 003247   040000 106400       SSA_CK_STAT  CMPC    fill='040'O
        19 003250   000001 000007 16                 ADSC9   UWA+1                    cn=0,n=7
        19 003251   000643 000007 18                 ADSC9   SUBMESS+419              cn=0,n=7
        19 003252   003256 600000 19                 TZE     SSA_CK_A

      604     2374    1       CALL ABORT;

   2374 19 003253   000021 631400 20                 EPPR1   17
        19 003254   000000 701000 xent               TSX1    ABORT
        19 003255   000000 011000                    NOP     0

      605     2375    1   SSA_CK_A:
      606     2376    1       IF SSA_SET_FND = 1 THEN GOTO SSA_CK_A1;

   2376 19 003256   000221 235000 17    SSA_CK_A     LDA     SSA_SET_FND
PL6.E3A0      #001=DDY7 File=ZIG$DDY7.:ZIC0TSI                                   FRI 09/05/97 11:55 Page:119
        19 003257   000001 115007                    CMPA    1,DL
        19 003260   003300 600000 19                 TZE     SSA_CK_A1

      607     2377    1       IF SMTYPE = 0 THEN

   2377 19 003261   000051 220000 17                 LDX0    SMTYPE
        19 003262   003267 601000 19                 TNZ     s:2380

      608     2378    1           PL='                   **** NO AUTOMATIC MEMBER ASSOCIATIONS DEFINED ****';

   2378 19 003263   040100 100400                    MLR     fill='040'O
        19 003264   000645 000106 18                 ADSC9   SUBMESS+421              cn=0,n=70
        19 003265   200016 000200                    ADSC9   PL,,AUTO                 cn=0,n=128
        19 003266   003272 710000 19                 TRA     s:2381

      609     2379    1       ELSE
      610     2380    1           PL='                    **** NO MANUAL MEMBER ASSOCIATIONS DEFINED ****';

   2380 19 003267   040100 100400                    MLR     fill='040'O
        19 003270   000667 000103 18                 ADSC9   SUBMESS+439              cn=0,n=67
        19 003271   200016 000200                    ADSC9   PL,,AUTO                 cn=0,n=128

      611     2381    1       CALL LIST(PL);

   2381 19 003272   200016 630500                    EPPR0   PL,,AUTO
        19 003273   200162 450500                    STP0    @CST+1,,AUTO
        19 003274   200162 630500                    EPPR0   @CST+1,,AUTO
        19 003275   000011 631400 20                 EPPR1   9
        19 003276   000000 701000 xent               TSX1    LIST
        19 003277   000000 011000                    NOP     0

      612     2382    1   SSA_CK_A1:
      613     2383    1       IF SMTYPE = 0 THEN GOTO SSA_3B;

   2383 19 003300   000051 220000 17    SSA_CK_A1    LDX0    SMTYPE
        19 003301   003157 600000 19                 TZE     SSA_3B

PL6.E3A0      #001=DDY7 File=ZIG$DDY7.:ZIC0TSI                                   FRI 09/05/97 11:55 Page:120
      614     2384    1       GOTO ACR_ANAL;

   2384 19 003302   005122 710000 19                 TRA     ACR_ANAL

      615     2385    1   SSA_SM_A:
      616     2386    1       IF UWA.SM.INSTYPE = SMTYPE THEN GOTO SSA_NXT_SS;

   2386 19 003303   000051 236000 17    SSA_SM_A     LDQ     SMTYPE
        19 003304   000022 732000                    QRS     18
        19 003305   000360 116000 16                 CMPQ    UWA+240
        19 003306   003310 600000 19                 TZE     SSA_NXT_SS

      617     2387    1       GOTO SSA_NXT_SM1;

   2387 19 003307   003234 710000 19                 TRA     SSA_NXT_SM1

      618     2388    1   SSA_NXT_SS:
      619     2389    1       CALL FETCHOS_6('SC-SOSM ') ALTRET(DBCS_ERR);

   2389 19 003310   000061 630400 20    SSA_NXT_SS   EPPR0   49
        19 003311   000011 631400 20                 EPPR1   9
        19 003312   000000 701000 xent               TSX1    FETCHOS_6
        19 003313   005470 702000 19                 TSX2    DBCS_ERR

      620     2390    1       CALL FETCHOS_6('SN-SE   ') ALTRET(DBCS_ERR);

   2390 19 003314   000062 630400 20                 EPPR0   50
        19 003315   000011 631400 20                 EPPR1   9
        19 003316   000000 701000 xent               TSX1    FETCHOS_6
        19 003317   005470 702000 19                 TSX2    DBCS_ERR

      621     2391    1       IF SUBSTR(UWA.SN.SENAME,0,1) = '*' THEN GOTO SSA_NXT_SM1;

   2391 19 003320   000427 236000 16                 LDQ     UWA+279
        19 003321   777000 376003                    ANQ     -512,DU
        19 003322   052000 116003                    CMPQ    21504,DU
        19 003323   003234 600000 19                 TZE     SSA_NXT_SM1
PL6.E3A0      #001=DDY7 File=ZIG$DDY7.:ZIC0TSI                                   FRI 09/05/97 11:55 Page:121

      622     2392
      623     2393         /* Check if sc is a key */
      624     2394    1       IF UWA.SC.SETTYPE = 2 OR UWA.SC.SETTYPE = 3 THEN

   2394 19 003324   000310 235000 16                 LDA     UWA+200
        19 003325   000002 115007                    CMPA    2,DL
        19 003326   003234 600000 19                 TZE     SSA_NXT_SM1
        19 003327   000003 115007                    CMPA    3,DL
        19 003330   003234 600000 19                 TZE     SSA_NXT_SM1

      625     2395    1           GOTO SSA_NXT_SM1;
      626     2396    1       SSA_SET_FND = 1;

   2396 19 003331   000001 236007                    LDQ     1,DL
        19 003332   000221 756000 17                 STQ     SSA_SET_FND

      627     2397    1       CALL QTE(UWA.SN.SENAME);

   2397 19 003333   000013 236000 20                 LDQ     11
        19 003334   200161 756100                    STQ     C32+10,,AUTO
        19 003335   005535 701000 19                 TSX1    QTE
        19 003336   000000 011000                    NOP     0

      628     2398    1       CALL CONCAT(PL , '      SET NAME ' , CHAR_LEN);

   2398 19 003337   040100 100400                    MLR     fill='040'O
        19 003340   000714 000017 18                 ADSC9   SUBMESS+460              cn=0,n=15
        19 003341   200016 000017                    ADSC9   PL,,AUTO                 cn=0,n=15
        19 003342   200106 470500                    LDP0    CHAR$,,AUTO
        19 003343   000232 720000 17                 LXL0    LEN
        19 003344   040100 100540                    MLR     fill='040'O
        19 003345   000000 000010                    ADSC9   0,,PR0                   cn=0,n=*X0
        19 003346   200021 600161                    ADSC9   PL+3,,AUTO               cn=3,n=113

      629     2399    1       CALL LIST(PL);

PL6.E3A0      #001=DDY7 File=ZIG$DDY7.:ZIC0TSI                                   FRI 09/05/97 11:55 Page:122
   2399 19 003347   200016 630500                    EPPR0   PL,,AUTO
        19 003350   200162 450500                    STP0    @CST+1,,AUTO
        19 003351   200162 630500                    EPPR0   @CST+1,,AUTO
        19 003352   000011 631400 20                 EPPR1   9
        19 003353   000000 701000 xent               TSX1    LIST
        19 003354   000000 011000                    NOP     0

      630     2400    1       CALL FETCHNS_6('SM-SS   ') ALTRET(DBCS_ERR);

   2400 19 003355   000063 630400 20                 EPPR0   51
        19 003356   000011 631400 20                 EPPR1   9
        19 003357   000000 701000 xent               TSX1    FETCHNS_6
        19 003360   005470 702000 19                 TSX2    DBCS_ERR

      631     2401    1   SSA_TBL_SSREF:
      632     2402    1       SSREFTBL(TSSX) = UWA.DIRECT_REF;

   2402 19 003361   000000 720000 17    SSA_TBL_SSR* LXL0    TSSX
        19 003362   000036 235000 16                 LDA     UWA+30
        19 003363   000001 755010 17                 STA     SSREFTBL,X0

      633     2403    1       IF UWA.S_S.STYP = 3 THEN GOTO SSA_SA;

   2403 19 003364   000374 236000 16                 LDQ     UWA+252
        19 003365   000003 116007                    CMPQ    3,DL
        19 003366   003370 600000 19                 TZE     SSA_SA

      634     2404    1       GOTO SEL_TBL;

   2404 19 003367   003402 710000 19                 TRA     SEL_TBL

      635     2405    1   SSA_SA:
      636     2406    1       TSSX = TSSX + 1;

   2406 19 003370   000000 054000 17    SSA_SA       AOS     TSSX

      637     2407    1       CALL FINDD_6('SM  ',UWA.S_S.SOSM_SSH) ALTRET(DBCS_ERR);
PL6.E3A0      #001=DDY7 File=ZIG$DDY7.:ZIC0TSI                                   FRI 09/05/97 11:55 Page:123

   2407 19 003371   000064 630400 20                 EPPR0   52
        19 003372   000000 631400 20                 EPPR1   0
        19 003373   000000 701000 xent               TSX1    FINDD_6
        19 003374   005470 702000 19                 TSX2    DBCS_ERR

      638     2408    1       CALL FETCHNS_6('SM-SS   ') ALTRET(DBCS_ERR);

   2408 19 003375   000063 630400 20                 EPPR0   51
        19 003376   000011 631400 20                 EPPR1   9
        19 003377   000000 701000 xent               TSX1    FETCHNS_6
        19 003400   005470 702000 19                 TSX2    DBCS_ERR

      639     2409    1       GOTO SSA_TBL_SSREF;

   2409 19 003401   003361 710000 19                 TRA     SSA_TBL_SSREF

      640     2410    1   SEL_TBL:
      641     2411    1       OWN_PROC = 0;

   2411 19 003402   000222 450000 17    SEL_TBL      STZ     OWN_PROC

      642     2412    2       DO K = 0 TO TSSX;

   2412 19 003403   200014 450100                    STZ     K,,AUTO
        19 003404   004301 710000 19                 TRA     SEL_TBL_END+1

      643     2413    2           X = TSSX - K;

   2413 19 003405   000000 236000 17                 LDQ     TSSX
        19 003406   200014 136100                    SBLQ    K,,AUTO
        19 003407   000052 756000 17                 STQ     X

      644     2414    2           CALL FETCHD_6('S-S ',SSREFTBL(X)) ALTRET(DBCS_ERR);

   2414 19 003410   000001 630406 17                 EPPR0   SSREFTBL,QL
        19 003411   200163 450500                    STP0    @CST+2,,AUTO
PL6.E3A0      #001=DDY7 File=ZIG$DDY7.:ZIC0TSI                                   FRI 09/05/97 11:55 Page:124
        19 003412   000066 236000 20                 LDQ     54
        19 003413   200162 756100                    STQ     @CST+1,,AUTO
        19 003414   200162 630500                    EPPR0   @CST+1,,AUTO
        19 003415   000000 631400 20                 EPPR1   0
        19 003416   000000 701000 xent               TSX1    FETCHD_6
        19 003417   005470 702000 19                 TSX2    DBCS_ERR

      645     2415    2           IF UWA.S_S.STYP = 3 THEN /* */

   2415 19 003420   000374 235000 16                 LDA     UWA+252
        19 003421   000003 115007                    CMPA    3,DL
        19 003422   003427 601000 19                 TNZ     s:2418

      646     2416    2   GET_SO_RET:
      647     2417    2               CALL FETCHNS_6('SM-SS   ') ALTRET(SEL_CK_SM);

   2417 19 003423   000063 630400 20    GET_SO_RET   EPPR0   51
        19 003424   000011 631400 20                 EPPR1   9
        19 003425   000000 701000 xent               TSX1    FETCHNS_6
        19 003426   003777 702000 19                 TSX2    SEL_CK_SM

      648     2418    2           IF UWA.S_S.STYP = 0 THEN

   2418 19 003427   000374 235000 16                 LDA     UWA+252
        19 003430   003435 601000 19                 TNZ     s:2420

      649     2419    2               CALL FETCHNS_6('SM-SS   ') ALTRET(SEL_CK_SM);

   2419 19 003431   000063 630400 20                 EPPR0   51
        19 003432   000011 631400 20                 EPPR1   9
        19 003433   000000 701000 xent               TSX1    FETCHNS_6
        19 003434   003777 702000 19                 TSX2    SEL_CK_SM

      650     2420    2           CALL FINDD_6('SC  ',UWA.S_S.SC_SSH) ALTRET(DBCS_ERR);

   2420 19 003435   000067 630400 20                 EPPR0   55
        19 003436   000000 631400 20                 EPPR1   0
PL6.E3A0      #001=DDY7 File=ZIG$DDY7.:ZIC0TSI                                   FRI 09/05/97 11:55 Page:125
        19 003437   000000 701000 xent               TSX1    FINDD_6
        19 003440   005470 702000 19                 TSX2    DBCS_ERR

      651     2421    2           CURR_SC_SSH = UWA.DIRECT_REF; /* For 'SI_ANAL' */

   2421 19 003441   000036 235000 16                 LDA     UWA+30
        19 003442   200105 755100                    STA     CURR_SC_SSH,,AUTO

      652     2422    2           CALL FETCHNS_6('SC-SOSM ') ALTRET(DBCS_ERR);

   2422 19 003443   000061 630400 20                 EPPR0   49
        19 003444   000011 631400 20                 EPPR1   9
        19 003445   000000 701000 xent               TSX1    FETCHNS_6
        19 003446   005470 702000 19                 TSX2    DBCS_ERR

      653     2423    2           CALL FETCHOS_6('RC-SOSM ') ALTRET(DBCS_ERR);

   2423 19 003447   000057 630400 20                 EPPR0   47
        19 003450   000011 631400 20                 EPPR1   9
        19 003451   000000 701000 xent               TSX1    FETCHOS_6
        19 003452   005470 702000 19                 TSX2    DBCS_ERR

      654     2424    2           CURR_OWN_RC = UWA.DIRECT_REF;

   2424 19 003453   000036 235000 16                 LDA     UWA+30
        19 003454   200101 755100                    STA     CURR_OWN_RC,,AUTO

      655     2425    2           CALL FETCHOS_6('SN-SE   ') ALTRET(DBCS_ERR);

   2425 19 003455   000062 630400 20                 EPPR0   50
        19 003456   000011 631400 20                 EPPR1   9
        19 003457   000000 701000 xent               TSX1    FETCHOS_6
        19 003460   005470 702000 19                 TSX2    DBCS_ERR

      656     2426    2           PL=' ';

   2426 19 003461   040100 100400                    MLR     fill='040'O
PL6.E3A0      #001=DDY7 File=ZIG$DDY7.:ZIC0TSI                                   FRI 09/05/97 11:55 Page:126
        19 003462   000014 000001 20                 ADSC9   12                       cn=0,n=1
        19 003463   200016 000200                    ADSC9   PL,,AUTO                 cn=0,n=128

      657     2427    2           CALL LIST(PL);

   2427 19 003464   200016 630500                    EPPR0   PL,,AUTO
        19 003465   200162 450500                    STP0    @CST+1,,AUTO
        19 003466   200162 630500                    EPPR0   @CST+1,,AUTO
        19 003467   000011 631400 20                 EPPR1   9
        19 003470   000000 701000 xent               TSX1    LIST
        19 003471   000000 011000                    NOP     0

      658     2428    2           CALL QTE(UWA.SN.SENAME);

   2428 19 003472   000013 236000 20                 LDQ     11
        19 003473   200161 756100                    STQ     C32+10,,AUTO
        19 003474   005535 701000 19                 TSX1    QTE
        19 003475   000000 011000                    NOP     0

      659     2429    2           CALL CONCAT(C64,'                OWNER RECORD ' , CHAR_LEN);

   2429 19 003476   040100 100400                    MLR     fill='040'O
        19 003477   000724 000035 18                 ADSC9   SUBMESS+468              cn=0,n=29
        19 003500   200127 000035                    ADSC9   C64,,AUTO                cn=0,n=29
        19 003501   200106 470500                    LDP0    CHAR$,,AUTO
        19 003502   000232 720000 17                 LXL0    LEN
        19 003503   040100 100540                    MLR     fill='040'O
        19 003504   000000 000010                    ADSC9   0,,PR0                   cn=0,n=*X0
        19 003505   200136 200043                    ADSC9   C64+7,,AUTO              cn=1,n=35

      660     2430    2           PL = C64;

   2430 19 003506   040100 100500                    MLR     fill='040'O
        19 003507   200127 000100                    ADSC9   C64,,AUTO                cn=0,n=64
        19 003510   200016 000200                    ADSC9   PL,,AUTO                 cn=0,n=128

      661     2431    2           IF OWN_PROC = 1 THEN GOTO SEL_NXT_RAN;
PL6.E3A0      #001=DDY7 File=ZIG$DDY7.:ZIC0TSI                                   FRI 09/05/97 11:55 Page:127

   2431 19 003511   000222 235000 17                 LDA     OWN_PROC
        19 003512   000001 115007                    CMPA    1,DL
        19 003513   004006 600000 19                 TZE     SEL_NXT_RAN

      662     2432    2           OWN_PROC = 1;

   2432 19 003514   000001 236007                    LDQ     1,DL
        19 003515   000222 756000 17                 STQ     OWN_PROC

      663     2433    2           IF UWA.RC.PSMODE ~= 1 THEN GOTO SEL_NXT_RAN;

   2433 19 003516   000271 235000 16                 LDA     UWA+185
        19 003517   000001 115007                    CMPA    1,DL
        19 003520   004006 601000 19                 TNZ     SEL_NXT_RAN

      664     2434    2   SMA_APPL:
      665     2435    2           IF UWA.RC.WITHINA ~= 1 THEN GOTO SMA_DBP;

   2435 19 003521   000273 235000 16    SMA_APPL     LDA     UWA+187
        19 003522   000001 115007                    CMPA    1,DL
        19 003523   003615 601000 19                 TNZ     SMA_DBP

      666     2436    2   SMA_B5:
      667     2437    2           CALL FETCHNS_6('RC-FR   ') ALTRET(SMA_B5_STAT);

   2437 19 003524   000071 630400 20    SMA_B5       EPPR0   57
        19 003525   000011 631400 20                 EPPR1   9
        19 003526   000000 701000 xent               TSX1    FETCHNS_6
        19 003527   003575 702000 19                 TSX2    SMA_B5_STAT

      668     2438    2           IF UWA.FR.F_USE ~= 2 THEN GOTO SMA_B5;

   2438 19 003530   000343 235000 16                 LDA     UWA+227
        19 003531   000002 115007                    CMPA    2,DL
        19 003532   003524 601000 19                 TNZ     SMA_B5

PL6.E3A0      #001=DDY7 File=ZIG$DDY7.:ZIC0TSI                                   FRI 09/05/97 11:55 Page:128
      669     2439    2           CALL FINDD_6('FR  ',UWA.FR.FR_FRH) ALTRET(DBCS_ERR);

   2439 19 003533   000072 630400 20                 EPPR0   58
        19 003534   000000 631400 20                 EPPR1   0
        19 003535   000000 701000 xent               TSX1    FINDD_6
        19 003536   005470 702000 19                 TSX2    DBCS_ERR

      670     2440    2           CALL FETCHOS_6('SN-SE   ') ALTRET(DBCS_ERR);

   2440 19 003537   000062 630400 20                 EPPR0   50
        19 003540   000011 631400 20                 EPPR1   9
        19 003541   000000 701000 xent               TSX1    FETCHOS_6
        19 003542   005470 702000 19                 TSX2    DBCS_ERR

      671     2441    2           CALL QTE(UWA.SN.SENAME);

   2441 19 003543   000013 236000 20                 LDQ     11
        19 003544   200161 756100                    STQ     C32+10,,AUTO
        19 003545   005535 701000 19                 TSX1    QTE
        19 003546   000000 011000                    NOP     0

      672     2442    2           CALL CONCAT(PL,C64,CHR32,'  AREA SELECTION');

   2442 19 003547   040100 100500                    MLR     fill='040'O
        19 003550   200127 000100                    ADSC9   C64,,AUTO                cn=0,n=64
        19 003551   200016 000100                    ADSC9   PL,,AUTO                 cn=0,n=64
        19 003552   040100 100500                    MLR     fill='040'O
        19 003553   200117 000040                    ADSC9   CHR32,,AUTO              cn=0,n=32
        19 003554   200036 000040                    ADSC9   PL+16,,AUTO              cn=0,n=32
        19 003555   040100 100400                    MLR     fill='040'O
        19 003556   000737 000020 18                 ADSC9   SUBMESS+479              cn=0,n=16
        19 003557   200046 000040                    ADSC9   PL+24,,AUTO              cn=0,n=32

      673     2443    2           CALL LIST(PL);

   2443 19 003560   200016 630500                    EPPR0   PL,,AUTO
        19 003561   200162 450500                    STP0    @CST+1,,AUTO
PL6.E3A0      #001=DDY7 File=ZIG$DDY7.:ZIC0TSI                                   FRI 09/05/97 11:55 Page:129
        19 003562   200162 630500                    EPPR0   @CST+1,,AUTO
        19 003563   000011 631400 20                 EPPR1   9
        19 003564   000000 701000 xent               TSX1    LIST
        19 003565   000000 011000                    NOP     0

      674     2444    2           PL = ' '; C64 = ' ';

   2444 19 003566   040100 100400                    MLR     fill='040'O
        19 003567   000014 000001 20                 ADSC9   12                       cn=0,n=1
        19 003570   200016 000200                    ADSC9   PL,,AUTO                 cn=0,n=128

   2444 19 003571   040100 100400                    MLR     fill='040'O
        19 003572   000014 000001 20                 ADSC9   12                       cn=0,n=1
        19 003573   200127 000100                    ADSC9   C64,,AUTO                cn=0,n=64

      675     2445    2           GOTO SMA_B5;

   2445 19 003574   003524 710000 19                 TRA     SMA_B5

      676     2446    2   SMA_B5_STAT:
      677     2447    2           PL=' ';

   2447 19 003575   040100 100400       SMA_B5_STAT  MLR     fill='040'O
        19 003576   000014 000001 20                 ADSC9   12                       cn=0,n=1
        19 003577   200016 000200                    ADSC9   PL,,AUTO                 cn=0,n=128

      678     2448    2           CALL LIST(PL);

   2448 19 003600   200016 630500                    EPPR0   PL,,AUTO
        19 003601   200162 450500                    STP0    @CST+1,,AUTO
        19 003602   200162 630500                    EPPR0   @CST+1,,AUTO
        19 003603   000011 631400 20                 EPPR1   9
        19 003604   000000 701000 xent               TSX1    LIST
        19 003605   000000 011000                    NOP     0

      679     2449    2           IF UWA.DB_STATUS = '0502100' THEN GOTO SEL_NXT_RAN;

PL6.E3A0      #001=DDY7 File=ZIG$DDY7.:ZIC0TSI                                   FRI 09/05/97 11:55 Page:130
   2449 19 003606   040000 106400                    CMPC    fill='040'O
        19 003607   000001 000007 16                 ADSC9   UWA+1                    cn=0,n=7
        19 003610   000643 000007 18                 ADSC9   SUBMESS+419              cn=0,n=7
        19 003611   004006 600000 19                 TZE     SEL_NXT_RAN

      680     2450    2           CALL ABORT;

   2450 19 003612   000021 631400 20                 EPPR1   17
        19 003613   000000 701000 xent               TSX1    ABORT
        19 003614   000000 011000                    NOP     0

      681     2451    2   SMA_DBP:
      682     2452    2           IF UWA.RC.WITHINA ~= 2 THEN GOTO SEL_NXT_RAN;

   2452 19 003615   000273 235000 16    SMA_DBP      LDA     UWA+187
        19 003616   000002 115007                    CMPA    2,DL
        19 003617   004006 601000 19                 TNZ     SEL_NXT_RAN

      683     2453    2           CALL FETCHOS_6('SN-SE   ') ALTRET(DBCS_ERR);

   2453 19 003620   000062 630400 20                 EPPR0   50
        19 003621   000011 631400 20                 EPPR1   9
        19 003622   000000 701000 xent               TSX1    FETCHOS_6
        19 003623   005470 702000 19                 TSX2    DBCS_ERR

      684     2454    2           CALL FETCHNS_6('SNNR-PT ') ALTRET(DBCS_ERR);

   2454 19 003624   000074 630400 20                 EPPR0   60
        19 003625   000011 631400 20                 EPPR1   9
        19 003626   000000 701000 xent               TSX1    FETCHNS_6
        19 003627   005470 702000 19                 TSX2    DBCS_ERR

      685     2455    2           IF UWA.PT.PTYPE = 22 THEN GOTO SMA_D5_PN;

   2455 19 003630   000476 235000 16                 LDA     UWA+318
        19 003631   000026 115007                    CMPA    22,DL
        19 003632   003636 600000 19                 TZE     SMA_D5_PN
PL6.E3A0      #001=DDY7 File=ZIG$DDY7.:ZIC0TSI                                   FRI 09/05/97 11:55 Page:131

      686     2456    2           CALL ABORT;

   2456 19 003633   000021 631400 20                 EPPR1   17
        19 003634   000000 701000 xent               TSX1    ABORT
        19 003635   000000 011000                    NOP     0

      687     2457    2   SMA_D5_PN:
      688     2458    2           CALL FETCHOS_6('PN-PT   ') ALTRET(DBCS_ERR);

   2458 19 003636   000075 630400 20    SMA_D5_PN    EPPR0   61
        19 003637   000011 631400 20                 EPPR1   9
        19 003640   000000 701000 xent               TSX1    FETCHOS_6
        19 003641   005470 702000 19                 TSX2    DBCS_ERR

      689     2459    2   SMA_D5_AG:
      690     2460    2           CALL FETCHNS_6('PN-AG   ') ALTRET(SMA_D5_STAT);

   2460 19 003642   000076 630400 20    SMA_D5_AG    EPPR0   62
        19 003643   000011 631400 20                 EPPR1   9
        19 003644   000000 701000 xent               TSX1    FETCHNS_6
        19 003645   003756 702000 19                 TSX2    SMA_D5_STAT

      691     2461    2           IF UWA.AG.ATYPE = 1 THEN GOTO SMA_D5_C;

   2461 19 003646   000500 235000 16                 LDA     UWA+320
        19 003647   000001 115007                    CMPA    1,DL
        19 003650   003654 600000 19                 TZE     SMA_D5_C

      692     2462    2           IF UWA.AG.ATYPE = 2 THEN GOTO SMA_D5_C;

   2462 19 003651   000002 115007                    CMPA    2,DL
        19 003652   003654 600000 19                 TZE     SMA_D5_C

      693     2463    2           GOTO SMA_D5_AG;

   2463 19 003653   003642 710000 19                 TRA     SMA_D5_AG
PL6.E3A0      #001=DDY7 File=ZIG$DDY7.:ZIC0TSI                                   FRI 09/05/97 11:55 Page:132

      694     2464    2   SMA_D5_C:
      695     2465    2           CALL FINDD_6('FR  ',UWA.AG.AG_SE) ALTRET(DBCS_ERR);

   2465 19 003654   000077 630400 20    SMA_D5_C     EPPR0   63
        19 003655   000000 631400 20                 EPPR1   0
        19 003656   000000 701000 xent               TSX1    FINDD_6
        19 003657   005470 702000 19                 TSX2    DBCS_ERR

      696     2466    2           CALL FETCHOS_6('SN-SE   ') ALTRET(DBCS_ERR);

   2466 19 003660   000062 630400 20                 EPPR0   50
        19 003661   000011 631400 20                 EPPR1   9
        19 003662   000000 701000 xent               TSX1    FETCHOS_6
        19 003663   005470 702000 19                 TSX2    DBCS_ERR

      697     2467    2           CALL QTE(UWA.SN.SENAME);

   2467 19 003664   000013 236000 20                 LDQ     11
        19 003665   200161 756100                    STQ     C32+10,,AUTO
        19 003666   005535 701000 19                 TSX1    QTE
        19 003667   000000 011000                    NOP     0

      698     2468    2           CALL CONCAT(PL,C64,CHR32,'  USING ARGUMENT');

   2468 19 003670   040100 100500                    MLR     fill='040'O
        19 003671   200127 000100                    ADSC9   C64,,AUTO                cn=0,n=64
        19 003672   200016 000100                    ADSC9   PL,,AUTO                 cn=0,n=64
        19 003673   040100 100500                    MLR     fill='040'O
        19 003674   200117 000040                    ADSC9   CHR32,,AUTO              cn=0,n=32
        19 003675   200036 000040                    ADSC9   PL+16,,AUTO              cn=0,n=32
        19 003676   040100 100400                    MLR     fill='040'O
        19 003677   000751 000020 18                 ADSC9   SUBMESS+489              cn=0,n=16
        19 003700   200046 000040                    ADSC9   PL+24,,AUTO              cn=0,n=32

      699     2469    2           CALL LIST(PL);

PL6.E3A0      #001=DDY7 File=ZIG$DDY7.:ZIC0TSI                                   FRI 09/05/97 11:55 Page:133
   2469 19 003701   200016 630500                    EPPR0   PL,,AUTO
        19 003702   200162 450500                    STP0    @CST+1,,AUTO
        19 003703   200162 630500                    EPPR0   @CST+1,,AUTO
        19 003704   000011 631400 20                 EPPR1   9
        19 003705   000000 701000 xent               TSX1    LIST
        19 003706   000000 011000                    NOP     0

      700     2470    2           CALL FETCHOS_6('RC-FR   ') ALTRET(DBCS_ERR);

   2470 19 003707   000071 630400 20                 EPPR0   57
        19 003710   000011 631400 20                 EPPR1   9
        19 003711   000000 701000 xent               TSX1    FETCHOS_6
        19 003712   005470 702000 19                 TSX2    DBCS_ERR

      701     2471    2           CALL FETCHOS_6('SN-SE   ') ALTRET(DBCS_ERR);

   2471 19 003713   000062 630400 20                 EPPR0   50
        19 003714   000011 631400 20                 EPPR1   9
        19 003715   000000 701000 xent               TSX1    FETCHOS_6
        19 003716   005470 702000 19                 TSX2    DBCS_ERR

      702     2472    2           IF SUBSTR(UWA.SN.SENAME,0,1) = '*' THEN GOTO SMA_D5_D;

   2472 19 003717   000427 236000 16                 LDQ     UWA+279
        19 003720   777000 376003                    ANQ     -512,DU
        19 003721   052000 116003                    CMPQ    21504,DU
        19 003722   003747 600000 19                 TZE     SMA_D5_D

      703     2473    2           CALL QTE(UWA.SN.SENAME);

   2473 19 003723   000013 236000 20                 LDQ     11
        19 003724   200161 756100                    STQ     C32+10,,AUTO
        19 003725   005535 701000 19                 TSX1    QTE
        19 003726   000000 011000                    NOP     0

      704     2474    2           PL=' ';

PL6.E3A0      #001=DDY7 File=ZIG$DDY7.:ZIC0TSI                                   FRI 09/05/97 11:55 Page:134
   2474 19 003727   040100 100400                    MLR     fill='040'O
        19 003730   000014 000001 20                 ADSC9   12                       cn=0,n=1
        19 003731   200016 000200                    ADSC9   PL,,AUTO                 cn=0,n=128

      705     2475    2           CALL INSERT(PL,64,,'IN ' , CHAR_LEN);

   2475 19 003732   000755 236000 18                 LDQ     SUBMESS+493
        19 003733   200036 552170                    STBQ    PL+16,'70'O,AUTO
        19 003734   200106 470500                    LDP0    CHAR$,,AUTO
        19 003735   000232 720000 17                 LXL0    LEN
        19 003736   040100 100540                    MLR     fill='040'O
        19 003737   000000 000010                    ADSC9   0,,PR0                   cn=0,n=*X0
        19 003740   200036 600075                    ADSC9   PL+16,,AUTO              cn=3,n=61

      706     2476    2           CALL LIST(PL);

   2476 19 003741   200016 630500                    EPPR0   PL,,AUTO
        19 003742   200162 450500                    STP0    @CST+1,,AUTO
        19 003743   200162 630500                    EPPR0   @CST+1,,AUTO
        19 003744   000011 631400 20                 EPPR1   9
        19 003745   000000 701000 xent               TSX1    LIST
        19 003746   000000 011000                    NOP     0

      707     2477    2   SMA_D5_D:
      708     2478    2           PL = ' '; C64 = ' ';

   2478 19 003747   040100 100400       SMA_D5_D     MLR     fill='040'O
        19 003750   000014 000001 20                 ADSC9   12                       cn=0,n=1
        19 003751   200016 000200                    ADSC9   PL,,AUTO                 cn=0,n=128

   2478 19 003752   040100 100400                    MLR     fill='040'O
        19 003753   000014 000001 20                 ADSC9   12                       cn=0,n=1
        19 003754   200127 000100                    ADSC9   C64,,AUTO                cn=0,n=64

      709     2479    2           GOTO SMA_D5_AG;

   2479 19 003755   003642 710000 19                 TRA     SMA_D5_AG
PL6.E3A0      #001=DDY7 File=ZIG$DDY7.:ZIC0TSI                                   FRI 09/05/97 11:55 Page:135

      710     2480    2   SMA_D5_STAT:
      711     2481    2           PL=' ';

   2481 19 003756   040100 100400       SMA_D5_STAT  MLR     fill='040'O
        19 003757   000014 000001 20                 ADSC9   12                       cn=0,n=1
        19 003760   200016 000200                    ADSC9   PL,,AUTO                 cn=0,n=128

      712     2482    2           CALL LIST(PL);

   2482 19 003761   200016 630500                    EPPR0   PL,,AUTO
        19 003762   200162 450500                    STP0    @CST+1,,AUTO
        19 003763   200162 630500                    EPPR0   @CST+1,,AUTO
        19 003764   000011 631400 20                 EPPR1   9
        19 003765   000000 701000 xent               TSX1    LIST
        19 003766   000000 011000                    NOP     0

      713     2483    2           IF UWA.DB_STATUS ~= '0502100' THEN CALL ABORT;

   2483 19 003767   040000 106400                    CMPC    fill='040'O
        19 003770   000001 000007 16                 ADSC9   UWA+1                    cn=0,n=7
        19 003771   000643 000007 18                 ADSC9   SUBMESS+419              cn=0,n=7
        19 003772   003776 600000 19                 TZE     s:2484

   2483 19 003773   000021 631400 20                 EPPR1   17
        19 003774   000000 701000 xent               TSX1    ABORT
        19 003775   000000 011000                    NOP     0

      714     2484    2           GOTO SEL_NXT_RAN;

   2484 19 003776   004006 710000 19                 TRA     SEL_NXT_RAN

      715     2485    2   SEL_CK_SM:
      716     2486    2           IF UWA.DB_STATUS = '0502100' THEN GOTO SEL_TBL_END;

   2486 19 003777   040000 106400       SEL_CK_SM    CMPC    fill='040'O
        19 004000   000001 000007 16                 ADSC9   UWA+1                    cn=0,n=7
PL6.E3A0      #001=DDY7 File=ZIG$DDY7.:ZIC0TSI                                   FRI 09/05/97 11:55 Page:136
        19 004001   000643 000007 18                 ADSC9   SUBMESS+419              cn=0,n=7
        19 004002   004300 600000 19                 TZE     SEL_TBL_END

      717     2487    2           CALL ABORT;

   2487 19 004003   000021 631400 20                 EPPR1   17
        19 004004   000000 701000 xent               TSX1    ABORT
        19 004005   000000 011000                    NOP     0

      718     2488    2   SEL_NXT_RAN:
      719     2489    2           CALL FINDD_6('RC  ',CURR_OWN_RC) ALTRET(DBCS_ERR);

   2489 19 004006   200101 630500       SEL_NXT_RAN  EPPR0   CURR_OWN_RC,,AUTO
        19 004007   200163 450500                    STP0    @CST+2,,AUTO
        19 004010   000101 236000 20                 LDQ     65
        19 004011   200162 756100                    STQ     @CST+1,,AUTO
        19 004012   200162 630500                    EPPR0   @CST+1,,AUTO
        19 004013   000000 631400 20                 EPPR1   0
        19 004014   000000 701000 xent               TSX1    FINDD_6
        19 004015   005470 702000 19                 TSX2    DBCS_ERR

      720     2490    2   SEL_RAN_1:
      721     2491    2           CALL FETCHNS_6('RC-RA   ') ALTRET(SEL_TST_RC);

   2491 19 004016   000102 630400 20    SEL_RAN_1    EPPR0   66
        19 004017   000011 631400 20                 EPPR1   9
        19 004020   000000 701000 xent               TSX1    FETCHNS_6
        19 004021   004023 702000 19                 TSX2    SEL_TST_RC

      722     2492    2           GOTO SEL_RAN_A;

   2492 19 004022   004032 710000 19                 TRA     SEL_RAN_A

      723     2493    2   SEL_TST_RC:
      724     2494    2           IF UWA.DB_STATUS = '0502100' THEN GOTO SEL_NXT_CF;

   2494 19 004023   040000 106400       SEL_TST_RC   CMPC    fill='040'O
PL6.E3A0      #001=DDY7 File=ZIG$DDY7.:ZIC0TSI                                   FRI 09/05/97 11:55 Page:137
        19 004024   000001 000007 16                 ADSC9   UWA+1                    cn=0,n=7
        19 004025   000643 000007 18                 ADSC9   SUBMESS+419              cn=0,n=7
        19 004026   004055 600000 19                 TZE     SEL_NXT_CF

      725     2495    2           CALL ABORT;

   2495 19 004027   000021 631400 20                 EPPR1   17
        19 004030   000000 701000 xent               TSX1    ABORT
        19 004031   000000 011000                    NOP     0

      726     2496    2   SEL_RAN_A:
      727     2497    2           CALL FETCHOS_6('AC-RA   ') ALTRET(DBCS_ERR);

   2497 19 004032   000103 630400 20    SEL_RAN_A    EPPR0   67
        19 004033   000011 631400 20                 EPPR1   9
        19 004034   000000 701000 xent               TSX1    FETCHOS_6
        19 004035   005470 702000 19                 TSX2    DBCS_ERR

      728     2498    2           Y = 0;

   2498 19 004036   000054 450000 17                 STZ     Y

      729     2499    2   SEL_RAN_B:
      730     2500    2           IF UWA.DIRECT_REF = ACREFTBL(Y) THEN GOTO SEL_RAN_1;

   2500 19 004037   000054 720000 17    SEL_RAN_B    LXL0    Y
        19 004040   000036 236000 16                 LDQ     UWA+30
        19 004041   000055 116010 17                 CMPQ    ACREFTBL,X0
        19 004042   004016 600000 19                 TZE     SEL_RAN_1

      731     2501    2           IF Y = TACX THEN GOTO SEL_STR_ACDR;

   2501 19 004043   000054 236000 17                 LDQ     Y
        19 004044   000053 116000 17                 CMPQ    TACX
        19 004045   004050 600000 19                 TZE     SEL_STR_ACDR

      732     2502    2           Y = Y + 1;
PL6.E3A0      #001=DDY7 File=ZIG$DDY7.:ZIC0TSI                                   FRI 09/05/97 11:55 Page:138

   2502 19 004046   000054 054000 17                 AOS     Y

      733     2503    2           GOTO SEL_RAN_B;

   2503 19 004047   004037 710000 19                 TRA     SEL_RAN_B

      734     2504    2   SEL_STR_ACDR:
      735     2505    2           ACREFTBL(TACX) = UWA.DIRECT_REF;

   2505 19 004050   000053 721000 17    SEL_STR_ACDR LXL1    TACX
        19 004051   000036 235000 16                 LDA     UWA+30
        19 004052   000055 755011 17                 STA     ACREFTBL,X1

      736     2506    2           TACX = TACX + 1;

   2506 19 004053   000053 054000 17                 AOS     TACX

      737     2507    2           GOTO SEL_RAN_1;

   2507 19 004054   004016 710000 19                 TRA     SEL_RAN_1

      738     2508    2   SEL_NXT_CF:
      739     2509    2           IF UWA.S_S.STYP = 2 THEN GOTO SEL_BY_APPL;

   2509 19 004055   000374 235000 16    SEL_NXT_CF   LDA     UWA+252
        19 004056   000002 115007                    CMPA    2,DL
        19 004057   004253 600000 19                 TZE     SEL_BY_APPL

      740     2510    2           CALL FETCHNS_6('SSSM-CF ') ALTRET(SEL_CK_TYP);

   2510 19 004060   000104 630400 20                 EPPR0   68
        19 004061   000011 631400 20                 EPPR1   9
        19 004062   000000 701000 xent               TSX1    FETCHNS_6
        19 004063   004065 702000 19                 TSX2    SEL_CK_TYP

      741     2511    2           GOTO SEL_CF_A;
PL6.E3A0      #001=DDY7 File=ZIG$DDY7.:ZIC0TSI                                   FRI 09/05/97 11:55 Page:139

   2511 19 004064   004074 710000 19                 TRA     SEL_CF_A

      742     2512    2   SEL_CK_TYP:
      743     2513    2           IF UWA.DB_STATUS = '0502100' THEN GOTO GET_SO_RET;

   2513 19 004065   040000 106400       SEL_CK_TYP   CMPC    fill='040'O
        19 004066   000001 000007 16                 ADSC9   UWA+1                    cn=0,n=7
        19 004067   000643 000007 18                 ADSC9   SUBMESS+419              cn=0,n=7
        19 004070   003423 600000 19                 TZE     GET_SO_RET

      744     2514    2           CALL ABORT;

   2514 19 004071   000021 631400 20                 EPPR1   17
        19 004072   000000 701000 xent               TSX1    ABORT
        19 004073   000000 011000                    NOP     0

      745     2515    2   SEL_CF_A:
      746     2516    2           IF UWA.C_F.CTRLTYPE = 2 THEN GOTO SEL_CF_B;

   2516 19 004074   000401 235000 16    SEL_CF_A     LDA     UWA+257
        19 004075   000002 115007                    CMPA    2,DL
        19 004076   004100 600000 19                 TZE     SEL_CF_B

      747     2517    2           GOTO SEL_NXT_CF;

   2517 19 004077   004055 710000 19                 TRA     SEL_NXT_CF

      748     2518    2   SEL_CF_B:
      749     2519    2           FO_DIU = '  SET OCCURRENCE SELECTION';

   2519 19 004100   040100 100400       SEL_CF_B     MLR     fill='040'O
        19 004101   000765 000032 18                 ADSC9   SUBMESS+501              cn=0,n=26
        19 004102   200003 000036                    ADSC9   FO_DIU,,AUTO             cn=0,n=30

      750     2520    2   SEL_OWN_CF:
      751     2521    2           CALL FETCHOS_6('FR-CFS  ') ALTRET(DBCS_ERR);
PL6.E3A0      #001=DDY7 File=ZIG$DDY7.:ZIC0TSI                                   FRI 09/05/97 11:55 Page:140

   2521 19 004103   000105 630400 20    SEL_OWN_CF   EPPR0   69
        19 004104   000011 631400 20                 EPPR1   9
        19 004105   000000 701000 xent               TSX1    FETCHOS_6
        19 004106   005470 702000 19                 TSX2    DBCS_ERR

      752     2522    2           IF UWA.FR.SYN = 1 THEN GOTO SEL_OWN_B;

   2522 19 004107   000332 235000 16                 LDA     UWA+218
        19 004110   000001 115007                    CMPA    1,DL
        19 004111   004113 600000 19                 TZE     SEL_OWN_B

      753     2523    2           GOTO SEL_DIR_FR;

   2523 19 004112   004215 710000 19                 TRA     SEL_DIR_FR

      754     2524    2   SEL_OWN_B:
      755     2525    2           CALL FINDD_6('FR  ',UWA.FR.FR_FRH) ALTRET(DBCS_ERR);

   2525 19 004113   000072 630400 20    SEL_OWN_B    EPPR0   58
        19 004114   000000 631400 20                 EPPR1   0
        19 004115   000000 701000 xent               TSX1    FINDD_6
        19 004116   005470 702000 19                 TSX2    DBCS_ERR

      756     2526    2           CALL FETCHOS_6('SN-SE   ') ALTRET(DBCS_ERR);

   2526 19 004117   000062 630400 20                 EPPR0   50
        19 004120   000011 631400 20                 EPPR1   9
        19 004121   000000 701000 xent               TSX1    FETCHOS_6
        19 004122   005470 702000 19                 TSX2    DBCS_ERR

      757     2527    2           CALL QTE(UWA.SN.SENAME);

   2527 19 004123   000013 236000 20                 LDQ     11
        19 004124   200161 756100                    STQ     C32+10,,AUTO
        19 004125   005535 701000 19                 TSX1    QTE
        19 004126   000000 011000                    NOP     0
PL6.E3A0      #001=DDY7 File=ZIG$DDY7.:ZIC0TSI                                   FRI 09/05/97 11:55 Page:141

      758     2528    2           CALL CONCAT(PL,C64,CHR32,FO_DIU);

   2528 19 004127   040100 100500                    MLR     fill='040'O
        19 004130   200127 000100                    ADSC9   C64,,AUTO                cn=0,n=64
        19 004131   200016 000100                    ADSC9   PL,,AUTO                 cn=0,n=64
        19 004132   040100 100500                    MLR     fill='040'O
        19 004133   200117 000040                    ADSC9   CHR32,,AUTO              cn=0,n=32
        19 004134   200036 000040                    ADSC9   PL+16,,AUTO              cn=0,n=32
        19 004135   040100 100500                    MLR     fill='040'O
        19 004136   200003 000036                    ADSC9   FO_DIU,,AUTO             cn=0,n=30
        19 004137   200046 000040                    ADSC9   PL+24,,AUTO              cn=0,n=32

      759     2529    2           CALL LIST(PL);

   2529 19 004140   200016 630500                    EPPR0   PL,,AUTO
        19 004141   200162 450500                    STP0    @CST+1,,AUTO
        19 004142   200162 630500                    EPPR0   @CST+1,,AUTO
        19 004143   000011 631400 20                 EPPR1   9
        19 004144   000000 701000 xent               TSX1    LIST
        19 004145   000000 011000                    NOP     0

      760     2530    2           CALL FETCHOS_6('RC-FR   ') ALTRET(DBCS_ERR);

   2530 19 004146   000071 630400 20                 EPPR0   57
        19 004147   000011 631400 20                 EPPR1   9
        19 004150   000000 701000 xent               TSX1    FETCHOS_6
        19 004151   005470 702000 19                 TSX2    DBCS_ERR

      761     2531    2           CALL FETCHOS_6('SN-SE   ') ALTRET(DBCS_ERR);

   2531 19 004152   000062 630400 20                 EPPR0   50
        19 004153   000011 631400 20                 EPPR1   9
        19 004154   000000 701000 xent               TSX1    FETCHOS_6
        19 004155   005470 702000 19                 TSX2    DBCS_ERR

      762     2532    2           IF SUBSTR(UWA.SN.SENAME,0,1) = '*' THEN GOTO SEL_OWN_C;
PL6.E3A0      #001=DDY7 File=ZIG$DDY7.:ZIC0TSI                                   FRI 09/05/97 11:55 Page:142

   2532 19 004156   000427 236000 16                 LDQ     UWA+279
        19 004157   777000 376003                    ANQ     -512,DU
        19 004160   052000 116003                    CMPQ    21504,DU
        19 004161   004206 600000 19                 TZE     SEL_OWN_C

      763     2533    2           CALL QTE(UWA.SN.SENAME);

   2533 19 004162   000013 236000 20                 LDQ     11
        19 004163   200161 756100                    STQ     C32+10,,AUTO
        19 004164   005535 701000 19                 TSX1    QTE
        19 004165   000000 011000                    NOP     0

      764     2534    2           PL=' ';

   2534 19 004166   040100 100400                    MLR     fill='040'O
        19 004167   000014 000001 20                 ADSC9   12                       cn=0,n=1
        19 004170   200016 000200                    ADSC9   PL,,AUTO                 cn=0,n=128

      765     2535    2           CALL INSERT(PL,64,,'IN ',CHAR_LEN);

   2535 19 004171   000755 236000 18                 LDQ     SUBMESS+493
        19 004172   200036 552170                    STBQ    PL+16,'70'O,AUTO
        19 004173   200106 470500                    LDP0    CHAR$,,AUTO
        19 004174   000232 720000 17                 LXL0    LEN
        19 004175   040100 100540                    MLR     fill='040'O
        19 004176   000000 000010                    ADSC9   0,,PR0                   cn=0,n=*X0
        19 004177   200036 600075                    ADSC9   PL+16,,AUTO              cn=3,n=61

      766     2536    2           CALL LIST(PL);

   2536 19 004200   200016 630500                    EPPR0   PL,,AUTO
        19 004201   200162 450500                    STP0    @CST+1,,AUTO
        19 004202   200162 630500                    EPPR0   @CST+1,,AUTO
        19 004203   000011 631400 20                 EPPR1   9
        19 004204   000000 701000 xent               TSX1    LIST
        19 004205   000000 011000                    NOP     0
PL6.E3A0      #001=DDY7 File=ZIG$DDY7.:ZIC0TSI                                   FRI 09/05/97 11:55 Page:143

      767     2537    2   SEL_OWN_C:
      768     2538    2           PL = ' '; C64 = ' ';

   2538 19 004206   040100 100400       SEL_OWN_C    MLR     fill='040'O
        19 004207   000014 000001 20                 ADSC9   12                       cn=0,n=1
        19 004210   200016 000200                    ADSC9   PL,,AUTO                 cn=0,n=128

   2538 19 004211   040100 100400                    MLR     fill='040'O
        19 004212   000014 000001 20                 ADSC9   12                       cn=0,n=1
        19 004213   200127 000100                    ADSC9   C64,,AUTO                cn=0,n=64

      769     2539    2           GOTO SEL_NXT_CF;

   2539 19 004214   004055 710000 19                 TRA     SEL_NXT_CF

      770     2540    2   SEL_DIR_FR:
      771     2541    2           CALL FETCHOS_6 ('SN-SE   ') ALTRET(DBCS_ERR);

   2541 19 004215   000062 630400 20    SEL_DIR_FR   EPPR0   50
        19 004216   000011 631400 20                 EPPR1   9
        19 004217   000000 701000 xent               TSX1    FETCHOS_6
        19 004220   005470 702000 19                 TSX2    DBCS_ERR

      772     2542    2           CALL QTE(UWA.SN.SENAME);

   2542 19 004221   000013 236000 20                 LDQ     11
        19 004222   200161 756100                    STQ     C32+10,,AUTO
        19 004223   005535 701000 19                 TSX1    QTE
        19 004224   000000 011000                    NOP     0

      773     2543    2           CALL CONCAT(PL,C64,CHR32,FO_DIU);

   2543 19 004225   040100 100500                    MLR     fill='040'O
        19 004226   200127 000100                    ADSC9   C64,,AUTO                cn=0,n=64
        19 004227   200016 000100                    ADSC9   PL,,AUTO                 cn=0,n=64
        19 004230   040100 100500                    MLR     fill='040'O
PL6.E3A0      #001=DDY7 File=ZIG$DDY7.:ZIC0TSI                                   FRI 09/05/97 11:55 Page:144
        19 004231   200117 000040                    ADSC9   CHR32,,AUTO              cn=0,n=32
        19 004232   200036 000040                    ADSC9   PL+16,,AUTO              cn=0,n=32
        19 004233   040100 100500                    MLR     fill='040'O
        19 004234   200003 000036                    ADSC9   FO_DIU,,AUTO             cn=0,n=30
        19 004235   200046 000040                    ADSC9   PL+24,,AUTO              cn=0,n=32

      774     2544    2           CALL LIST(PL);

   2544 19 004236   200016 630500                    EPPR0   PL,,AUTO
        19 004237   200162 450500                    STP0    @CST+1,,AUTO
        19 004240   200162 630500                    EPPR0   @CST+1,,AUTO
        19 004241   000011 631400 20                 EPPR1   9
        19 004242   000000 701000 xent               TSX1    LIST
        19 004243   000000 011000                    NOP     0

      775     2545    2           PL = ' '; C64 = ' ';

   2545 19 004244   040100 100400                    MLR     fill='040'O
        19 004245   000014 000001 20                 ADSC9   12                       cn=0,n=1
        19 004246   200016 000200                    ADSC9   PL,,AUTO                 cn=0,n=128

   2545 19 004247   040100 100400                    MLR     fill='040'O
        19 004250   000014 000001 20                 ADSC9   12                       cn=0,n=1
        19 004251   200127 000100                    ADSC9   C64,,AUTO                cn=0,n=64

      776     2546    2           GOTO SEL_NXT_CF;

   2546 19 004252   004055 710000 19                 TRA     SEL_NXT_CF

      777     2547    2   SEL_BY_APPL: /* Owner ident by appl */
      778     2548    2           CALL CONCAT(PL,C64,'(IDENTIFIED BY APPLICATION)');

   2548 19 004253   040100 100500       SEL_BY_APPL  MLR     fill='040'O
        19 004254   200127 000100                    ADSC9   C64,,AUTO                cn=0,n=64
        19 004255   200016 000100                    ADSC9   PL,,AUTO                 cn=0,n=64
        19 004256   040100 100400                    MLR     fill='040'O
        19 004257   000776 000033 18                 ADSC9   SUBMESS+510              cn=0,n=27
PL6.E3A0      #001=DDY7 File=ZIG$DDY7.:ZIC0TSI                                   FRI 09/05/97 11:55 Page:145
        19 004260   200036 000100                    ADSC9   PL+16,,AUTO              cn=0,n=64

      779     2549    2           CALL LIST(PL);

   2549 19 004261   200016 630500                    EPPR0   PL,,AUTO
        19 004262   200162 450500                    STP0    @CST+1,,AUTO
        19 004263   200162 630500                    EPPR0   @CST+1,,AUTO
        19 004264   000011 631400 20                 EPPR1   9
        19 004265   000000 701000 xent               TSX1    LIST
        19 004266   000000 011000                    NOP     0

      780     2550    2           PL=' ';

   2550 19 004267   040100 100400                    MLR     fill='040'O
        19 004270   000014 000001 20                 ADSC9   12                       cn=0,n=1
        19 004271   200016 000200                    ADSC9   PL,,AUTO                 cn=0,n=128

      781     2551    2           CALL LIST(PL);

   2551 19 004272   200016 630500                    EPPR0   PL,,AUTO
        19 004273   200162 450500                    STP0    @CST+1,,AUTO
        19 004274   200162 630500                    EPPR0   @CST+1,,AUTO
        19 004275   000011 631400 20                 EPPR1   9
        19 004276   000000 701000 xent               TSX1    LIST
        19 004277   000000 011000                    NOP     0

      782     2552    2   SEL_TBL_END:
      783     2553    2           END;

   2553 19 004300   200014 054100       SEL_TBL_END  AOS     K,,AUTO
        19 004301   200014 236100                    LDQ     K,,AUTO
        19 004302   000000 116000 17                 CMPQ    TSSX
        19 004303   003405 604400 19                 TMOZ    s:2413

      784     2554    1   SI_ANAL:
      785     2555    1       CALL FETCHD_6('SC  ',CURR_SC_SSH) ALTRET(DBCS_ERR);

PL6.E3A0      #001=DDY7 File=ZIG$DDY7.:ZIC0TSI                                   FRI 09/05/97 11:55 Page:146
   2555 19 004304   200105 630500       SI_ANAL      EPPR0   CURR_SC_SSH,,AUTO
        19 004305   200163 450500                    STP0    @CST+2,,AUTO
        19 004306   000067 236000 20                 LDQ     55
        19 004307   200162 756100                    STQ     @CST+1,,AUTO
        19 004310   200162 630500                    EPPR0   @CST+1,,AUTO
        19 004311   000000 631400 20                 EPPR1   0
        19 004312   000000 701000 xent               TSX1    FETCHD_6
        19 004313   005470 702000 19                 TSX2    DBCS_ERR

      786     2556    1       IF UWA.SC.SETORD = 0 THEN GOTO SI_A1;

   2556 19 004314   000312 235000 16                 LDA     UWA+202
        19 004315   004333 600000 19                 TZE     SI_A1

      787     2557    1       IF UWA.SC.SETORD = 1 THEN GOTO SI_A2;

   2557 19 004316   000001 115007                    CMPA    1,DL
        19 004317   004337 600000 19                 TZE     SI_A2

      788     2558    1       IF UWA.SC.SETORD = 2 THEN GOTO SI_A3;

   2558 19 004320   000002 115007                    CMPA    2,DL
        19 004321   004343 600000 19                 TZE     SI_A3

      789     2559    1       IF UWA.SC.SETORD = 3 THEN GOTO SI_A4;

   2559 19 004322   000003 115007                    CMPA    3,DL
        19 004323   004347 600000 19                 TZE     SI_A4

      790     2560    1       IF UWA.SC.SETORD = 4 THEN GOTO SI_A5;

   2560 19 004324   000004 115007                    CMPA    4,DL
        19 004325   004353 600000 19                 TZE     SI_A5

      791     2561    1       IF UWA.SC.SETORD = 6 THEN GOTO SI_A6;

   2561 19 004326   000006 115007                    CMPA    6,DL
PL6.E3A0      #001=DDY7 File=ZIG$DDY7.:ZIC0TSI                                   FRI 09/05/97 11:55 Page:147
        19 004327   004365 600000 19                 TZE     SI_A6

      792     2562    1       CALL ABORT;

   2562 19 004330   000021 631400 20                 EPPR1   17
        19 004331   000000 701000 xent               TSX1    ABORT
        19 004332   000000 011000                    NOP     0

      793     2563    1   SI_A1:
      794     2564    1       PL = '                INSERTION IS FIRST';

   2564 19 004333   040100 100400       SI_A1        MLR     fill='040'O
        19 004334   001005 000042 18                 ADSC9   SUBMESS+517              cn=0,n=34
        19 004335   200016 000200                    ADSC9   PL,,AUTO                 cn=0,n=128

      795     2565    1       GOTO SI_A7;

   2565 19 004336   004377 710000 19                 TRA     SI_A7

      796     2566    1   SI_A2:
      797     2567    1       PL = '                INSERTION IS LAST';

   2567 19 004337   040100 100400       SI_A2        MLR     fill='040'O
        19 004340   001016 000041 18                 ADSC9   SUBMESS+526              cn=0,n=33
        19 004341   200016 000200                    ADSC9   PL,,AUTO                 cn=0,n=128

      798     2568    1       GOTO SI_A7;

   2568 19 004342   004377 710000 19                 TRA     SI_A7

      799     2569    1   SI_A3:
      800     2570    1       PL = '                INSERTION IS NEXT';

   2570 19 004343   040100 100400       SI_A3        MLR     fill='040'O
        19 004344   001027 000041 18                 ADSC9   SUBMESS+535              cn=0,n=33
        19 004345   200016 000200                    ADSC9   PL,,AUTO                 cn=0,n=128

PL6.E3A0      #001=DDY7 File=ZIG$DDY7.:ZIC0TSI                                   FRI 09/05/97 11:55 Page:148
      801     2571    1       GOTO SI_A7;

   2571 19 004346   004377 710000 19                 TRA     SI_A7

      802     2572    1   SI_A4:
      803     2573    1       PL = '                INSERTION IS PRIOR';

   2573 19 004347   040100 100400       SI_A4        MLR     fill='040'O
        19 004350   001040 000042 18                 ADSC9   SUBMESS+544              cn=0,n=34
        19 004351   200016 000200                    ADSC9   PL,,AUTO                 cn=0,n=128

      804     2574    1       GOTO SI_A7;

   2574 19 004352   004377 710000 19                 TRA     SI_A7

      805     2575    1   SI_A5:
      806     2576    1       PL = '                INSERTION IS SORTED BY DEFINED KEYS';

   2576 19 004353   040100 100400       SI_A5        MLR     fill='040'O
        19 004354   001051 000063 18                 ADSC9   SUBMESS+553              cn=0,n=51
        19 004355   200016 000200                    ADSC9   PL,,AUTO                 cn=0,n=128

      807     2577    1       CALL LIST(PL);

   2577 19 004356   200016 630500                    EPPR0   PL,,AUTO
        19 004357   200162 450500                    STP0    @CST+1,,AUTO
        19 004360   200162 630500                    EPPR0   @CST+1,,AUTO
        19 004361   000011 631400 20                 EPPR1   9
        19 004362   000000 701000 xent               TSX1    LIST
        19 004363   000000 011000                    NOP     0

      808     2578    1       GOTO SI_A8;

   2578 19 004364   004406 710000 19                 TRA     SI_A8

      809     2579    1   SI_A6:
      810     2580    1       PL = '                INSERTION IS SORTED WITHIN RECORD NAME';
PL6.E3A0      #001=DDY7 File=ZIG$DDY7.:ZIC0TSI                                   FRI 09/05/97 11:55 Page:149

   2580 19 004365   040100 100400       SI_A6        MLR     fill='040'O
        19 004366   001066 000066 18                 ADSC9   SUBMESS+566              cn=0,n=54
        19 004367   200016 000200                    ADSC9   PL,,AUTO                 cn=0,n=128

      811     2581    1       CALL LIST(PL);

   2581 19 004370   200016 630500                    EPPR0   PL,,AUTO
        19 004371   200162 450500                    STP0    @CST+1,,AUTO
        19 004372   200162 630500                    EPPR0   @CST+1,,AUTO
        19 004373   000011 631400 20                 EPPR1   9
        19 004374   000000 701000 xent               TSX1    LIST
        19 004375   000000 011000                    NOP     0

      812     2582    1       GOTO SI_A10;

   2582 19 004376   004447 710000 19                 TRA     SI_A10

      813     2583    1   SI_A7:
      814     2584    1       CALL LIST(PL);

   2584 19 004377   200016 630500       SI_A7        EPPR0   PL,,AUTO
        19 004400   200162 450500                    STP0    @CST+1,,AUTO
        19 004401   200162 630500                    EPPR0   @CST+1,,AUTO
        19 004402   000011 631400 20                 EPPR1   9
        19 004403   000000 701000 xent               TSX1    LIST
        19 004404   000000 011000                    NOP     0

      815     2585    1       GOTO DUP_ANAL;

   2585 19 004405   004670 710000 19                 TRA     DUP_ANAL

      816     2586    1   SI_A8:
      817     2587    1       IF UWA.SC.SEQDUP = 0 THEN GOTO SI_SEQ_FST;

   2587 19 004406   000320 235000 16    SI_A8        LDA     UWA+208
        19 004407   004417 600000 19                 TZE     SI_SEQ_FST
PL6.E3A0      #001=DDY7 File=ZIG$DDY7.:ZIC0TSI                                   FRI 09/05/97 11:55 Page:150

      818     2588    1       IF UWA.SC.SEQDUP = 1 THEN GOTO SI_SEQ_LST;

   2588 19 004410   000001 115007                    CMPA    1,DL
        19 004411   004423 600000 19                 TZE     SI_SEQ_LST

      819     2589    1       IF UWA.SC.SEQDUP = 2 THEN GOTO SI_SEQ_NA;

   2589 19 004412   000002 115007                    CMPA    2,DL
        19 004413   004427 600000 19                 TZE     SI_SEQ_NA

      820     2590    1       CALL ABORT;

   2590 19 004414   000021 631400 20                 EPPR1   17
        19 004415   000000 701000 xent               TSX1    ABORT
        19 004416   000000 011000                    NOP     0

      821     2591    1   SI_SEQ_FST:
      822     2592    1       C64 = '                    DUPLICATES ARE FIRST';

   2592 19 004417   040100 100400       SI_SEQ_FST   MLR     fill='040'O
        19 004420   001104 000050 18                 ADSC9   SUBMESS+580              cn=0,n=40
        19 004421   200127 000100                    ADSC9   C64,,AUTO                cn=0,n=64

      823     2593    1       GOTO SI_A9;

   2593 19 004422   004432 710000 19                 TRA     SI_A9

      824     2594    1   SI_SEQ_LST:
      825     2595    1       C64 = '                    DUPLICATES ARE LAST';

   2595 19 004423   040100 100400       SI_SEQ_LST   MLR     fill='040'O
        19 004424   001116 000047 18                 ADSC9   SUBMESS+590              cn=0,n=39
        19 004425   200127 000100                    ADSC9   C64,,AUTO                cn=0,n=64

      826     2596    1       GOTO SI_A9;

PL6.E3A0      #001=DDY7 File=ZIG$DDY7.:ZIC0TSI                                   FRI 09/05/97 11:55 Page:151
   2596 19 004426   004432 710000 19                 TRA     SI_A9

      827     2597    1   SI_SEQ_NA:
      828     2598    1       C64 = '                    DUPLICATES ARE NOT ALLOWED';

   2598 19 004427   040100 100400       SI_SEQ_NA    MLR     fill='040'O
        19 004430   001130 000056 18                 ADSC9   SUBMESS+600              cn=0,n=46
        19 004431   200127 000100                    ADSC9   C64,,AUTO                cn=0,n=64

      829     2599    1   SI_A9:
      830     2600    1       CALL FINDD_6('SM  ',CURR_RC_SOSM) ALTRET(DBCS_ERR);

   2600 19 004432   200103 630500       SI_A9        EPPR0   CURR_RC_SOSM,,AUTO
        19 004433   200163 450500                    STP0    @CST+2,,AUTO
        19 004434   000060 236000 20                 LDQ     48
        19 004435   200162 756100                    STQ     @CST+1,,AUTO
        19 004436   200162 630500                    EPPR0   @CST+1,,AUTO
        19 004437   000000 631400 20                 EPPR1   0
        19 004440   000000 701000 xent               TSX1    FINDD_6
        19 004441   005470 702000 19                 TSX2    DBCS_ERR

      831     2601    1   SI_NXT_CF1:
      832     2602    1       CALL FETCHNS_6('SMSS-CF ') ALTRET(SI_CK_TYP);

   2602 19 004442   000106 630400 20    SI_NXT_CF1   EPPR0   70
        19 004443   000011 631400 20                 EPPR1   9
        19 004444   000000 701000 xent               TSX1    FETCHNS_6
        19 004445   004466 702000 19                 TSX2    SI_CK_TYP

      833     2603    1       GOTO SI_CF2;

   2603 19 004446   004472 710000 19                 TRA     SI_CF2

      834     2604    1   SI_A10:
      835     2605    1       CALL FINDD_6('SM  ',CURR_RC_SOSM) ALTRET(DBCS_ERR);

   2605 19 004447   200103 630500       SI_A10       EPPR0   CURR_RC_SOSM,,AUTO
PL6.E3A0      #001=DDY7 File=ZIG$DDY7.:ZIC0TSI                                   FRI 09/05/97 11:55 Page:152
        19 004450   200163 450500                    STP0    @CST+2,,AUTO
        19 004451   000107 236000 20                 LDQ     71
        19 004452   200162 756100                    STQ     @CST+1,,AUTO
        19 004453   200162 630500                    EPPR0   @CST+1,,AUTO
        19 004454   000000 631400 20                 EPPR1   0
        19 004455   000000 701000 xent               TSX1    FINDD_6
        19 004456   005470 702000 19                 TSX2    DBCS_ERR

      836     2606    1       IF UWA.SM.SEQDUP = 0 THEN GOTO SI_SEQ_FST;

   2606 19 004457   000363 235000 16                 LDA     UWA+243
        19 004460   004417 600000 19                 TZE     SI_SEQ_FST

      837     2607    1       IF UWA.SM.SEQDUP = 1 THEN GOTO SI_SEQ_LST;

   2607 19 004461   000001 115007                    CMPA    1,DL
        19 004462   004423 600000 19                 TZE     SI_SEQ_LST

      838     2608    1       IF UWA.SM.SEQDUP = 2 THEN GOTO SI_SEQ_NA;

   2608 19 004463   000002 115007                    CMPA    2,DL
        19 004464   004427 600000 19                 TZE     SI_SEQ_NA

      839     2609    1       GOTO DBCS_ERR;

   2609 19 004465   005470 710000 19                 TRA     DBCS_ERR

      840     2610    1   SI_CK_TYP:
      841     2611    1       IF UWA.DB_STATUS = '0502100' THEN GOTO DUP_ANAL;

   2611 19 004466   040000 106400       SI_CK_TYP    CMPC    fill='040'O
        19 004467   000001 000007 16                 ADSC9   UWA+1                    cn=0,n=7
        19 004470   001147 000007 18                 ADSC9   SUBMESS+615              cn=0,n=7
        19 004471   004670 600000 19                 TZE     DUP_ANAL

      842     2612    1   SI_CF2:
      843     2613    1       IF UWA.C_F.CTRLTYPE = 0 THEN GOTO SI_CF_3;
PL6.E3A0      #001=DDY7 File=ZIG$DDY7.:ZIC0TSI                                   FRI 09/05/97 11:55 Page:153

   2613 19 004472   000401 235000 16    SI_CF2       LDA     UWA+257
        19 004473   004475 600000 19                 TZE     SI_CF_3

      844     2614    1       GOTO SI_NXT_CF1;

   2614 19 004474   004442 710000 19                 TRA     SI_NXT_CF1

      845     2615    1   SI_CF_3:
      846     2616    1       IF UWA.C_F.CTRLSEQ = 0 THEN GOTO SI_CF_5;

   2616 19 004475   000403 236000 16    SI_CF_3      LDQ     UWA+259
        19 004476   004503 600000 19                 TZE     SI_CF_5

      847     2617    1   SI_CF_4:
      848     2618    1       FO_DIU = '  DESCENDING SORT KEY';

   2618 19 004477   040100 100400       SI_CF_4      MLR     fill='040'O
        19 004500   001151 000025 18                 ADSC9   SUBMESS+617              cn=0,n=21
        19 004501   200003 000036                    ADSC9   FO_DIU,,AUTO             cn=0,n=30

      849     2619    1       GOTO SI_CF_OWN;

   2619 19 004502   004506 710000 19                 TRA     SI_CF_OWN

      850     2620    1   SI_CF_5:
      851     2621    1       FO_DIU = '  ASCENDING SORT KEY';

   2621 19 004503   040100 100400       SI_CF_5      MLR     fill='040'O
        19 004504   001157 000024 18                 ADSC9   SUBMESS+623              cn=0,n=20
        19 004505   200003 000036                    ADSC9   FO_DIU,,AUTO             cn=0,n=30

      852     2622    1   SI_CF_OWN:
      853     2623    1       CALL FETCHOS_6('FR-CFS  ') ALTRET(DBCS_ERR);

   2623 19 004506   000110 630400 20    SI_CF_OWN    EPPR0   72
        19 004507   000011 631400 20                 EPPR1   9
PL6.E3A0      #001=DDY7 File=ZIG$DDY7.:ZIC0TSI                                   FRI 09/05/97 11:55 Page:154
        19 004510   000000 701000 xent               TSX1    FETCHOS_6
        19 004511   005470 702000 19                 TSX2    DBCS_ERR

      854     2624    1       IF UWA.FR.SYN = 1 THEN GOTO SI_OWN_1;

   2624 19 004512   000332 235000 16                 LDA     UWA+218
        19 004513   000001 115007                    CMPA    1,DL
        19 004514   004516 600000 19                 TZE     SI_OWN_1

      855     2625    1       GOTO SI_DIR_FR;

   2625 19 004515   004625 710000 19                 TRA     SI_DIR_FR

      856     2626    1   SI_OWN_1:
      857     2627    1       CALL FINDD_6('FR  ',UWA.FR.FR_FRH) ALTRET(DBCS_ERR);

   2627 19 004516   000111 630400 20    SI_OWN_1     EPPR0   73
        19 004517   000000 631400 20                 EPPR1   0
        19 004520   000000 701000 xent               TSX1    FINDD_6
        19 004521   005470 702000 19                 TSX2    DBCS_ERR

      858     2628    1       CALL FETCHOS_6('SN-SE   ') ALTRET(DBCS_ERR);

   2628 19 004522   000113 630400 20                 EPPR0   75
        19 004523   000011 631400 20                 EPPR1   9
        19 004524   000000 701000 xent               TSX1    FETCHOS_6
        19 004525   005470 702000 19                 TSX2    DBCS_ERR

      859     2629    1       CALL QTE(UWA.SN.SENAME);

   2629 19 004526   000013 236000 20                 LDQ     11
        19 004527   200161 756100                    STQ     C32+10,,AUTO
        19 004530   005535 701000 19                 TSX1    QTE
        19 004531   000000 011000                    NOP     0

      860     2630    1       C32 = CHAR_LEN;

PL6.E3A0      #001=DDY7 File=ZIG$DDY7.:ZIC0TSI                                   FRI 09/05/97 11:55 Page:155
   2630 19 004532   200106 470500                    LDP0    CHAR$,,AUTO
        19 004533   000232 720000 17                 LXL0    LEN
        19 004534   040100 100540                    MLR     fill='040'O
        19 004535   000000 000010                    ADSC9   0,,PR0                   cn=0,n=*X0
        19 004536   200147 000040                    ADSC9   C32,,AUTO                cn=0,n=32

      861     2631    1       CALL CONCAT(PL,C64,C32,FO_DIU);

   2631 19 004537   040100 100500                    MLR     fill='040'O
        19 004540   200127 000100                    ADSC9   C64,,AUTO                cn=0,n=64
        19 004541   200016 000100                    ADSC9   PL,,AUTO                 cn=0,n=64
        19 004542   040100 100500                    MLR     fill='040'O
        19 004543   200147 000040                    ADSC9   C32,,AUTO                cn=0,n=32
        19 004544   200036 000040                    ADSC9   PL+16,,AUTO              cn=0,n=32
        19 004545   040100 100500                    MLR     fill='040'O
        19 004546   200003 000036                    ADSC9   FO_DIU,,AUTO             cn=0,n=30
        19 004547   200046 000040                    ADSC9   PL+24,,AUTO              cn=0,n=32

      862     2632    1       CALL LIST(PL);

   2632 19 004550   200016 630500                    EPPR0   PL,,AUTO
        19 004551   200162 450500                    STP0    @CST+1,,AUTO
        19 004552   200162 630500                    EPPR0   @CST+1,,AUTO
        19 004553   000011 631400 20                 EPPR1   9
        19 004554   000000 701000 xent               TSX1    LIST
        19 004555   000000 011000                    NOP     0

      863     2633    1       CALL FETCHOS_6('RC-FR   ') ALTRET(DBCS_ERR);

   2633 19 004556   000114 630400 20                 EPPR0   76
        19 004557   000011 631400 20                 EPPR1   9
        19 004560   000000 701000 xent               TSX1    FETCHOS_6
        19 004561   005470 702000 19                 TSX2    DBCS_ERR

      864     2634    1       CALL FETCHOS_6('SN-SE   ') ALTRET(DBCS_ERR);

   2634 19 004562   000113 630400 20                 EPPR0   75
PL6.E3A0      #001=DDY7 File=ZIG$DDY7.:ZIC0TSI                                   FRI 09/05/97 11:55 Page:156
        19 004563   000011 631400 20                 EPPR1   9
        19 004564   000000 701000 xent               TSX1    FETCHOS_6
        19 004565   005470 702000 19                 TSX2    DBCS_ERR

      865     2635    1       IF SUBSTR(UWA.SN.SENAME,0,1) = '*' THEN GOTO SI_OWN_2;

   2635 19 004566   000427 236000 16                 LDQ     UWA+279
        19 004567   777000 376003                    ANQ     -512,DU
        19 004570   052000 116003                    CMPQ    21504,DU
        19 004571   004616 600000 19                 TZE     SI_OWN_2

      866     2636    1       CALL QTE(UWA.SN.SENAME);

   2636 19 004572   000013 236000 20                 LDQ     11
        19 004573   200161 756100                    STQ     C32+10,,AUTO
        19 004574   005535 701000 19                 TSX1    QTE
        19 004575   000000 011000                    NOP     0

      867     2637    1       PL=' ';

   2637 19 004576   040100 100400                    MLR     fill='040'O
        19 004577   000014 000001 20                 ADSC9   12                       cn=0,n=1
        19 004600   200016 000200                    ADSC9   PL,,AUTO                 cn=0,n=128

      868     2638    1       CALL INSERT(PL,64,,'IN ',CHAR_LEN);

   2638 19 004601   001173 236000 18                 LDQ     SUBMESS+635
        19 004602   200036 552170                    STBQ    PL+16,'70'O,AUTO
        19 004603   200106 470500                    LDP0    CHAR$,,AUTO
        19 004604   000232 720000 17                 LXL0    LEN
        19 004605   040100 100540                    MLR     fill='040'O
        19 004606   000000 000010                    ADSC9   0,,PR0                   cn=0,n=*X0
        19 004607   200036 600075                    ADSC9   PL+16,,AUTO              cn=3,n=61

      869     2639    1       CALL LIST(PL);

   2639 19 004610   200016 630500                    EPPR0   PL,,AUTO
PL6.E3A0      #001=DDY7 File=ZIG$DDY7.:ZIC0TSI                                   FRI 09/05/97 11:55 Page:157
        19 004611   200162 450500                    STP0    @CST+1,,AUTO
        19 004612   200162 630500                    EPPR0   @CST+1,,AUTO
        19 004613   000011 631400 20                 EPPR1   9
        19 004614   000000 701000 xent               TSX1    LIST
        19 004615   000000 011000                    NOP     0

      870     2640    1   SI_OWN_2:
      871     2641    1       PL = ' '; C64 = ' ';

   2641 19 004616   040100 100400       SI_OWN_2     MLR     fill='040'O
        19 004617   000014 000001 20                 ADSC9   12                       cn=0,n=1
        19 004620   200016 000200                    ADSC9   PL,,AUTO                 cn=0,n=128

   2641 19 004621   040100 100400                    MLR     fill='040'O
        19 004622   000014 000001 20                 ADSC9   12                       cn=0,n=1
        19 004623   200127 000100                    ADSC9   C64,,AUTO                cn=0,n=64

      872     2642    1       GOTO SI_NXT_CF1;

   2642 19 004624   004442 710000 19                 TRA     SI_NXT_CF1

      873     2643    1   SI_DIR_FR:
      874     2644    1       CALL FETCHOS_6('SN-SE   ') ALTRET(DBCS_ERR);

   2644 19 004625   000113 630400 20    SI_DIR_FR    EPPR0   75
        19 004626   000011 631400 20                 EPPR1   9
        19 004627   000000 701000 xent               TSX1    FETCHOS_6
        19 004630   005470 702000 19                 TSX2    DBCS_ERR

      875     2645    1       CALL QTE(UWA.SN.SENAME);

   2645 19 004631   000013 236000 20                 LDQ     11
        19 004632   200161 756100                    STQ     C32+10,,AUTO
        19 004633   005535 701000 19                 TSX1    QTE
        19 004634   000000 011000                    NOP     0

      876     2646    1       C32 = CHAR_LEN;
PL6.E3A0      #001=DDY7 File=ZIG$DDY7.:ZIC0TSI                                   FRI 09/05/97 11:55 Page:158

   2646 19 004635   200106 470500                    LDP0    CHAR$,,AUTO
        19 004636   000232 720000 17                 LXL0    LEN
        19 004637   040100 100540                    MLR     fill='040'O
        19 004640   000000 000010                    ADSC9   0,,PR0                   cn=0,n=*X0
        19 004641   200147 000040                    ADSC9   C32,,AUTO                cn=0,n=32

      877     2647    1       CALL CONCAT(PL,C64,C32,FO_DIU);

   2647 19 004642   040100 100500                    MLR     fill='040'O
        19 004643   200127 000100                    ADSC9   C64,,AUTO                cn=0,n=64
        19 004644   200016 000100                    ADSC9   PL,,AUTO                 cn=0,n=64
        19 004645   040100 100500                    MLR     fill='040'O
        19 004646   200147 000040                    ADSC9   C32,,AUTO                cn=0,n=32
        19 004647   200036 000040                    ADSC9   PL+16,,AUTO              cn=0,n=32
        19 004650   040100 100500                    MLR     fill='040'O
        19 004651   200003 000036                    ADSC9   FO_DIU,,AUTO             cn=0,n=30
        19 004652   200046 000040                    ADSC9   PL+24,,AUTO              cn=0,n=32

      878     2648    1       CALL LIST(PL);

   2648 19 004653   200016 630500                    EPPR0   PL,,AUTO
        19 004654   200162 450500                    STP0    @CST+1,,AUTO
        19 004655   200162 630500                    EPPR0   @CST+1,,AUTO
        19 004656   000011 631400 20                 EPPR1   9
        19 004657   000000 701000 xent               TSX1    LIST
        19 004660   000000 011000                    NOP     0

      879     2649    1       PL = ' '; C64 = ' ';

   2649 19 004661   040100 100400                    MLR     fill='040'O
        19 004662   000014 000001 20                 ADSC9   12                       cn=0,n=1
        19 004663   200016 000200                    ADSC9   PL,,AUTO                 cn=0,n=128

   2649 19 004664   040100 100400                    MLR     fill='040'O
        19 004665   000014 000001 20                 ADSC9   12                       cn=0,n=1
        19 004666   200127 000100                    ADSC9   C64,,AUTO                cn=0,n=64
PL6.E3A0      #001=DDY7 File=ZIG$DDY7.:ZIC0TSI                                   FRI 09/05/97 11:55 Page:159

      880     2650    1       GOTO SI_NXT_CF1;

   2650 19 004667   004442 710000 19                 TRA     SI_NXT_CF1

      881     2651    1   DUP_ANAL:
      882     2652    1       PL=' ';

   2652 19 004670   040100 100400       DUP_ANAL     MLR     fill='040'O
        19 004671   000014 000001 20                 ADSC9   12                       cn=0,n=1
        19 004672   200016 000200                    ADSC9   PL,,AUTO                 cn=0,n=128

      883     2653    1       CALL LIST(PL);

   2653 19 004673   200016 630500                    EPPR0   PL,,AUTO
        19 004674   200162 450500                    STP0    @CST+1,,AUTO
        19 004675   200162 630500                    EPPR0   @CST+1,,AUTO
        19 004676   000011 631400 20                 EPPR1   9
        19 004677   000000 701000 xent               TSX1    LIST
        19 004700   000000 011000                    NOP     0

      884     2654    1       CALL FETCHD_6('SM  ',CURR_RC_SOSM) ALTRET(DBCS_ERR);

   2654 19 004701   200103 630500                    EPPR0   CURR_RC_SOSM,,AUTO
        19 004702   200163 450500                    STP0    @CST+2,,AUTO
        19 004703   000107 236000 20                 LDQ     71
        19 004704   200162 756100                    STQ     @CST+1,,AUTO
        19 004705   200162 630500                    EPPR0   @CST+1,,AUTO
        19 004706   000000 631400 20                 EPPR1   0
        19 004707   000000 701000 xent               TSX1    FETCHD_6
        19 004710   005470 702000 19                 TSX2    DBCS_ERR

      885     2655    1       IF UWA.SM.MEMDUP = 0 THEN GOTO SSA_NXT_SM;

   2655 19 004711   000362 235000 16                 LDA     UWA+242
        19 004712   003223 600000 19                 TZE     SSA_NXT_SM

PL6.E3A0      #001=DDY7 File=ZIG$DDY7.:ZIC0TSI                                   FRI 09/05/97 11:55 Page:160
      886     2656    1       CALL CONCAT(C64,'                DUPLICATES DISALLOWED FOR:');

   2656 19 004713   040100 100400                    MLR     fill='040'O
        19 004714   001174 000052 18                 ADSC9   SUBMESS+636              cn=0,n=42
        19 004715   200127 000100                    ADSC9   C64,,AUTO                cn=0,n=64

      887     2657    1       PL = C64;

   2657 19 004716   040100 100500                    MLR     fill='040'O
        19 004717   200127 000100                    ADSC9   C64,,AUTO                cn=0,n=64
        19 004720   200016 000200                    ADSC9   PL,,AUTO                 cn=0,n=128

      888     2658    1   DUP_NXT_CF2:
      889     2659    1       CALL FETCHNS_6('SMSS-CF ') ALTRET(DUP_CK_STAT);

   2659 19 004721   000106 630400 20    DUP_NXT_CF2  EPPR0   70
        19 004722   000011 631400 20                 EPPR1   9
        19 004723   000000 701000 xent               TSX1    FETCHNS_6
        19 004724   004726 702000 19                 TSX2    DUP_CK_STAT

      890     2660    1       GOTO DUP_NXT_CF3;

   2660 19 004725   004746 710000 19                 TRA     DUP_NXT_CF3

      891     2661    1   DUP_CK_STAT:
      892     2662    1       PL=' ';

   2662 19 004726   040100 100400       DUP_CK_STAT  MLR     fill='040'O
        19 004727   000014 000001 20                 ADSC9   12                       cn=0,n=1
        19 004730   200016 000200                    ADSC9   PL,,AUTO                 cn=0,n=128

      893     2663    1       CALL LIST(PL);

   2663 19 004731   200016 630500                    EPPR0   PL,,AUTO
        19 004732   200162 450500                    STP0    @CST+1,,AUTO
        19 004733   200162 630500                    EPPR0   @CST+1,,AUTO
        19 004734   000011 631400 20                 EPPR1   9
PL6.E3A0      #001=DDY7 File=ZIG$DDY7.:ZIC0TSI                                   FRI 09/05/97 11:55 Page:161
        19 004735   000000 701000 xent               TSX1    LIST
        19 004736   000000 011000                    NOP     0

      894     2664    1       IF UWA.DB_STATUS = '0502100' THEN GOTO SSA_NXT_SM;

   2664 19 004737   040000 106400                    CMPC    fill='040'O
        19 004740   000001 000007 16                 ADSC9   UWA+1                    cn=0,n=7
        19 004741   001147 000007 18                 ADSC9   SUBMESS+615              cn=0,n=7
        19 004742   003223 600000 19                 TZE     SSA_NXT_SM

      895     2665    1       CALL ABORT;

   2665 19 004743   000021 631400 20                 EPPR1   17
        19 004744   000000 701000 xent               TSX1    ABORT
        19 004745   000000 011000                    NOP     0

      896     2666    1   DUP_NXT_CF3:
      897     2667    1       IF UWA.C_F.CTRLTYPE = 1 THEN GOTO DUP_NXT_CF4;

   2667 19 004746   000401 235000 16    DUP_NXT_CF3  LDA     UWA+257
        19 004747   000001 115007                    CMPA    1,DL
        19 004750   004752 600000 19                 TZE     DUP_NXT_CF4

      898     2668    1       GOTO DUP_NXT_CF2;

   2668 19 004751   004721 710000 19                 TRA     DUP_NXT_CF2

      899     2669    1   DUP_NXT_CF4:
      900     2670    1       CALL FETCHOS_6('FR-CFS  ') ALTRET(DBCS_ERR);

   2670 19 004752   000110 630400 20    DUP_NXT_CF4  EPPR0   72
        19 004753   000011 631400 20                 EPPR1   9
        19 004754   000000 701000 xent               TSX1    FETCHOS_6
        19 004755   005470 702000 19                 TSX2    DBCS_ERR

      901     2671    1       IF UWA.FR.SYN = 1 THEN GOTO DUP_NXT_CF5;

PL6.E3A0      #001=DDY7 File=ZIG$DDY7.:ZIC0TSI                                   FRI 09/05/97 11:55 Page:162
   2671 19 004756   000332 235000 16                 LDA     UWA+218
        19 004757   000001 115007                    CMPA    1,DL
        19 004760   004762 600000 19                 TZE     DUP_NXT_CF5

      902     2672    1       GOTO DUP_NXT_CF6;

   2672 19 004761   005064 710000 19                 TRA     DUP_NXT_CF6

      903     2673    1   DUP_NXT_CF5:
      904     2674    1       CALL FINDD_6('FR  ',UWA.FR.FR_FRH) ALTRET(DBCS_ERR);

   2674 19 004762   000111 630400 20    DUP_NXT_CF5  EPPR0   73
        19 004763   000000 631400 20                 EPPR1   0
        19 004764   000000 701000 xent               TSX1    FINDD_6
        19 004765   005470 702000 19                 TSX2    DBCS_ERR

      905     2675    1       CALL FETCHOS_6('SN-SE   ') ALTRET(DBCS_ERR);

   2675 19 004766   000113 630400 20                 EPPR0   75
        19 004767   000011 631400 20                 EPPR1   9
        19 004770   000000 701000 xent               TSX1    FETCHOS_6
        19 004771   005470 702000 19                 TSX2    DBCS_ERR

      906     2676    1       CALL QTE(UWA.SN.SENAME);

   2676 19 004772   000013 236000 20                 LDQ     11
        19 004773   200161 756100                    STQ     C32+10,,AUTO
        19 004774   005535 701000 19                 TSX1    QTE
        19 004775   000000 011000                    NOP     0

      907     2677    1       CALL CONCAT(PL,C64,CHR32,'  DUPLICATES CTL. FIELD');

   2677 19 004776   040100 100500                    MLR     fill='040'O
        19 004777   200127 000100                    ADSC9   C64,,AUTO                cn=0,n=64
        19 005000   200016 000100                    ADSC9   PL,,AUTO                 cn=0,n=64
        19 005001   040100 100500                    MLR     fill='040'O
        19 005002   200117 000040                    ADSC9   CHR32,,AUTO              cn=0,n=32
PL6.E3A0      #001=DDY7 File=ZIG$DDY7.:ZIC0TSI                                   FRI 09/05/97 11:55 Page:163
        19 005003   200036 000040                    ADSC9   PL+16,,AUTO              cn=0,n=32
        19 005004   040100 100400                    MLR     fill='040'O
        19 005005   001207 000027 18                 ADSC9   SUBMESS+647              cn=0,n=23
        19 005006   200046 000040                    ADSC9   PL+24,,AUTO              cn=0,n=32

      908     2678    1       CALL LIST(PL);

   2678 19 005007   200016 630500                    EPPR0   PL,,AUTO
        19 005010   200162 450500                    STP0    @CST+1,,AUTO
        19 005011   200162 630500                    EPPR0   @CST+1,,AUTO
        19 005012   000011 631400 20                 EPPR1   9
        19 005013   000000 701000 xent               TSX1    LIST
        19 005014   000000 011000                    NOP     0

      909     2679    1       CALL FETCHOS_6('RC-FR   ') ALTRET(DBCS_ERR);

   2679 19 005015   000114 630400 20                 EPPR0   76
        19 005016   000011 631400 20                 EPPR1   9
        19 005017   000000 701000 xent               TSX1    FETCHOS_6
        19 005020   005470 702000 19                 TSX2    DBCS_ERR

      910     2680    1       CALL FETCHOS_6('SN-SE   ') ALTRET(DBCS_ERR);

   2680 19 005021   000113 630400 20                 EPPR0   75
        19 005022   000011 631400 20                 EPPR1   9
        19 005023   000000 701000 xent               TSX1    FETCHOS_6
        19 005024   005470 702000 19                 TSX2    DBCS_ERR

      911     2681    1       IF SUBSTR(UWA.SN.SENAME,0,1) = '*' THEN GOTO DUP_NXT_5A;

   2681 19 005025   000427 236000 16                 LDQ     UWA+279
        19 005026   777000 376003                    ANQ     -512,DU
        19 005027   052000 116003                    CMPQ    21504,DU
        19 005030   005055 600000 19                 TZE     DUP_NXT_5A

      912     2682    1       CALL QTE(UWA.SN.SENAME);

PL6.E3A0      #001=DDY7 File=ZIG$DDY7.:ZIC0TSI                                   FRI 09/05/97 11:55 Page:164
   2682 19 005031   000013 236000 20                 LDQ     11
        19 005032   200161 756100                    STQ     C32+10,,AUTO
        19 005033   005535 701000 19                 TSX1    QTE
        19 005034   000000 011000                    NOP     0

      913     2683    1       PL=' ';

   2683 19 005035   040100 100400                    MLR     fill='040'O
        19 005036   000014 000001 20                 ADSC9   12                       cn=0,n=1
        19 005037   200016 000200                    ADSC9   PL,,AUTO                 cn=0,n=128

      914     2684    1       CALL INSERT(PL,64,,'IN ',CHAR_LEN);

   2684 19 005040   001173 236000 18                 LDQ     SUBMESS+635
        19 005041   200036 552170                    STBQ    PL+16,'70'O,AUTO
        19 005042   200106 470500                    LDP0    CHAR$,,AUTO
        19 005043   000232 720000 17                 LXL0    LEN
        19 005044   040100 100540                    MLR     fill='040'O
        19 005045   000000 000010                    ADSC9   0,,PR0                   cn=0,n=*X0
        19 005046   200036 600075                    ADSC9   PL+16,,AUTO              cn=3,n=61

      915     2685    1       CALL LIST(PL);

   2685 19 005047   200016 630500                    EPPR0   PL,,AUTO
        19 005050   200162 450500                    STP0    @CST+1,,AUTO
        19 005051   200162 630500                    EPPR0   @CST+1,,AUTO
        19 005052   000011 631400 20                 EPPR1   9
        19 005053   000000 701000 xent               TSX1    LIST
        19 005054   000000 011000                    NOP     0

      916     2686    1   DUP_NXT_5A:
      917     2687    1       PL = ' '; C64 = ' ';

   2687 19 005055   040100 100400       DUP_NXT_5A   MLR     fill='040'O
        19 005056   000014 000001 20                 ADSC9   12                       cn=0,n=1
        19 005057   200016 000200                    ADSC9   PL,,AUTO                 cn=0,n=128

PL6.E3A0      #001=DDY7 File=ZIG$DDY7.:ZIC0TSI                                   FRI 09/05/97 11:55 Page:165
   2687 19 005060   040100 100400                    MLR     fill='040'O
        19 005061   000014 000001 20                 ADSC9   12                       cn=0,n=1
        19 005062   200127 000100                    ADSC9   C64,,AUTO                cn=0,n=64

      918     2688    1       GOTO DUP_NXT_CF2;

   2688 19 005063   004721 710000 19                 TRA     DUP_NXT_CF2

      919     2689    1   DUP_NXT_CF6:
      920     2690    1       CALL FETCHOS_6('SN-SE   ') ALTRET(DBCS_ERR);

   2690 19 005064   000113 630400 20    DUP_NXT_CF6  EPPR0   75
        19 005065   000011 631400 20                 EPPR1   9
        19 005066   000000 701000 xent               TSX1    FETCHOS_6
        19 005067   005470 702000 19                 TSX2    DBCS_ERR

      921     2691    1       CALL QTE(UWA.SN.SENAME);

   2691 19 005070   000013 236000 20                 LDQ     11
        19 005071   200161 756100                    STQ     C32+10,,AUTO
        19 005072   005535 701000 19                 TSX1    QTE
        19 005073   000000 011000                    NOP     0

      922     2692    1       CALL CONCAT(PL,C64,CHR32,'  DUPLICATES CTL. FIELD');

   2692 19 005074   040100 100500                    MLR     fill='040'O
        19 005075   200127 000100                    ADSC9   C64,,AUTO                cn=0,n=64
        19 005076   200016 000100                    ADSC9   PL,,AUTO                 cn=0,n=64
        19 005077   040100 100500                    MLR     fill='040'O
        19 005100   200117 000040                    ADSC9   CHR32,,AUTO              cn=0,n=32
        19 005101   200036 000040                    ADSC9   PL+16,,AUTO              cn=0,n=32
        19 005102   040100 100400                    MLR     fill='040'O
        19 005103   001207 000027 18                 ADSC9   SUBMESS+647              cn=0,n=23
        19 005104   200046 000040                    ADSC9   PL+24,,AUTO              cn=0,n=32

      923     2693    1       CALL LIST(PL);

PL6.E3A0      #001=DDY7 File=ZIG$DDY7.:ZIC0TSI                                   FRI 09/05/97 11:55 Page:166
   2693 19 005105   200016 630500                    EPPR0   PL,,AUTO
        19 005106   200162 450500                    STP0    @CST+1,,AUTO
        19 005107   200162 630500                    EPPR0   @CST+1,,AUTO
        19 005110   000011 631400 20                 EPPR1   9
        19 005111   000000 701000 xent               TSX1    LIST
        19 005112   000000 011000                    NOP     0

      924     2694    1       PL = ' '; C64 = ' ';

   2694 19 005113   040100 100400                    MLR     fill='040'O
        19 005114   000014 000001 20                 ADSC9   12                       cn=0,n=1
        19 005115   200016 000200                    ADSC9   PL,,AUTO                 cn=0,n=128

   2694 19 005116   040100 100400                    MLR     fill='040'O
        19 005117   000014 000001 20                 ADSC9   12                       cn=0,n=1
        19 005120   200127 000100                    ADSC9   C64,,AUTO                cn=0,n=64

      925     2695    1       GOTO DUP_NXT_CF2;

   2695 19 005121   004721 710000 19                 TRA     DUP_NXT_CF2

      926     2696    1   ACR_ANAL:
      927     2697    1       PL=' ';

   2697 19 005122   040100 100400       ACR_ANAL     MLR     fill='040'O
        19 005123   000014 000001 20                 ADSC9   12                       cn=0,n=1
        19 005124   200016 000200                    ADSC9   PL,,AUTO                 cn=0,n=128

      928     2698    1       CALL LIST(PL);

   2698 19 005125   200016 630500                    EPPR0   PL,,AUTO
        19 005126   200162 450500                    STP0    @CST+1,,AUTO
        19 005127   200162 630500                    EPPR0   @CST+1,,AUTO
        19 005130   000011 631400 20                 EPPR1   9
        19 005131   000000 701000 xent               TSX1    LIST
        19 005132   000000 011000                    NOP     0

PL6.E3A0      #001=DDY7 File=ZIG$DDY7.:ZIC0TSI                                   FRI 09/05/97 11:55 Page:167
      929     2699    1       PL = 'AREA CROSS-REFERENCE ANALYSIS:';

   2699 19 005133   040100 100400                    MLR     fill='040'O
        19 005134   001215 000036 18                 ADSC9   SUBMESS+653              cn=0,n=30
        19 005135   200016 000200                    ADSC9   PL,,AUTO                 cn=0,n=128

      930     2700    1       CALL LIST(PL);

   2700 19 005136   200016 630500                    EPPR0   PL,,AUTO
        19 005137   200162 450500                    STP0    @CST+1,,AUTO
        19 005140   200162 630500                    EPPR0   @CST+1,,AUTO
        19 005141   000011 631400 20                 EPPR1   9
        19 005142   000000 701000 xent               TSX1    LIST
        19 005143   000000 011000                    NOP     0

      931     2701    1       PL=' ';

   2701 19 005144   040100 100400                    MLR     fill='040'O
        19 005145   000014 000001 20                 ADSC9   12                       cn=0,n=1
        19 005146   200016 000200                    ADSC9   PL,,AUTO                 cn=0,n=128

      932     2702    1       CALL LIST(PL);

   2702 19 005147   200016 630500                    EPPR0   PL,,AUTO
        19 005150   200162 450500                    STP0    @CST+1,,AUTO
        19 005151   200162 630500                    EPPR0   @CST+1,,AUTO
        19 005152   000011 631400 20                 EPPR1   9
        19 005153   000000 701000 xent               TSX1    LIST
        19 005154   000000 011000                    NOP     0

      933     2703    1       PL = '  AREA(S) REFERENCED BY';

   2703 19 005155   040100 100400                    MLR     fill='040'O
        19 005156   001225 000027 18                 ADSC9   SUBMESS+661              cn=0,n=23
        19 005157   200016 000200                    ADSC9   PL,,AUTO                 cn=0,n=128

      934     2704    1       CALL LIST(PL);
PL6.E3A0      #001=DDY7 File=ZIG$DDY7.:ZIC0TSI                                   FRI 09/05/97 11:55 Page:168

   2704 19 005160   200016 630500                    EPPR0   PL,,AUTO
        19 005161   200162 450500                    STP0    @CST+1,,AUTO
        19 005162   200162 630500                    EPPR0   @CST+1,,AUTO
        19 005163   000011 631400 20                 EPPR1   9
        19 005164   000000 701000 xent               TSX1    LIST
        19 005165   000000 011000                    NOP     0

      935     2705    1       C32 = '    "WITHIN AREA NAME" CLAUSE:';

   2705 19 005166   040100 100400                    MLR     fill='040'O
        19 005167   001233 000036 18                 ADSC9   SUBMESS+667              cn=0,n=30
        19 005170   200147 000040                    ADSC9   C32,,AUTO                cn=0,n=32

      936     2706    1       PL = C32;

   2706 19 005171   040100 100500                    MLR     fill='040'O
        19 005172   200147 000040                    ADSC9   C32,,AUTO                cn=0,n=32
        19 005173   200016 000200                    ADSC9   PL,,AUTO                 cn=0,n=128

      937     2707    1       CALL FINDD_6('RC  ',CURR_RC) ALTRET(DBCS_ERR);

   2707 19 005174   200102 630500                    EPPR0   CURR_RC,,AUTO
        19 005175   200163 450500                    STP0    @CST+2,,AUTO
        19 005176   000115 236000 20                 LDQ     77
        19 005177   200162 756100                    STQ     @CST+1,,AUTO
        19 005200   200162 630500                    EPPR0   @CST+1,,AUTO
        19 005201   000000 631400 20                 EPPR1   0
        19 005202   000000 701000 xent               TSX1    FINDD_6
        19 005203   005470 702000 19                 TSX2    DBCS_ERR

      938     2708    1       ACR_WA_SW = 0;

   2708 19 005204   000223 450000 17                 STZ     ACR_WA_SW

      939     2709    1   ACR_ANAL1:
      940     2710    1       CALL FETCHNS_6('RC-RA   ') ALTRET(ACR_CK_STAT);
PL6.E3A0      #001=DDY7 File=ZIG$DDY7.:ZIC0TSI                                   FRI 09/05/97 11:55 Page:169

   2710 19 005205   000116 630400 20    ACR_ANAL1    EPPR0   78
        19 005206   000011 631400 20                 EPPR1   9
        19 005207   000000 701000 xent               TSX1    FETCHNS_6
        19 005210   005212 702000 19                 TSX2    ACR_CK_STAT

      941     2711    1       GOTO ACR_A2;

   2711 19 005211   005221 710000 19                 TRA     ACR_A2

      942     2712    1   ACR_CK_STAT:
      943     2713    1       IF UWA.DB_STATUS = '0502100' THEN GOTO ACR_A3;

   2713 19 005212   040000 106400       ACR_CK_STAT  CMPC    fill='040'O
        19 005213   000001 000007 16                 ADSC9   UWA+1                    cn=0,n=7
        19 005214   001147 000007 18                 ADSC9   SUBMESS+615              cn=0,n=7
        19 005215   005264 600000 19                 TZE     ACR_A3

      944     2714    1       CALL ABORT;

   2714 19 005216   000021 631400 20                 EPPR1   17
        19 005217   000000 701000 xent               TSX1    ABORT
        19 005220   000000 011000                    NOP     0

      945     2715    1   ACR_A2:
      946     2716    1       ACR_WA_SW = 1;

   2716 19 005221   000001 235007       ACR_A2       LDA     1,DL
        19 005222   000223 755000 17                 STA     ACR_WA_SW

      947     2717    1       CALL FETCHOS_6('AC-RA   ') ALTRET(DBCS_ERR);

   2717 19 005223   000117 630400 20                 EPPR0   79
        19 005224   000011 631400 20                 EPPR1   9
        19 005225   000000 701000 xent               TSX1    FETCHOS_6
        19 005226   005470 702000 19                 TSX2    DBCS_ERR

PL6.E3A0      #001=DDY7 File=ZIG$DDY7.:ZIC0TSI                                   FRI 09/05/97 11:55 Page:170
      948     2718    1       CALL FETCHOS_6('SN-SE   ') ALTRET(DBCS_ERR);

   2718 19 005227   000113 630400 20                 EPPR0   75
        19 005230   000011 631400 20                 EPPR1   9
        19 005231   000000 701000 xent               TSX1    FETCHOS_6
        19 005232   005470 702000 19                 TSX2    DBCS_ERR

      949     2719    1       CALL QTE(UWA.SN.SENAME);

   2719 19 005233   000013 236000 20                 LDQ     11
        19 005234   200161 756100                    STQ     C32+10,,AUTO
        19 005235   005535 701000 19                 TSX1    QTE
        19 005236   000000 011000                    NOP     0

      950     2720    1       CALL CONCAT(PL,C32,CHAR_LEN);

   2720 19 005237   040100 100500                    MLR     fill='040'O
        19 005240   200147 000040                    ADSC9   C32,,AUTO                cn=0,n=32
        19 005241   200016 000040                    ADSC9   PL,,AUTO                 cn=0,n=32
        19 005242   200106 470500                    LDP0    CHAR$,,AUTO
        19 005243   000232 720000 17                 LXL0    LEN
        19 005244   040100 100540                    MLR     fill='040'O
        19 005245   000000 000010                    ADSC9   0,,PR0                   cn=0,n=*X0
        19 005246   200026 000140                    ADSC9   PL+8,,AUTO               cn=0,n=96

      951     2721    1       CALL LIST(PL);

   2721 19 005247   200016 630500                    EPPR0   PL,,AUTO
        19 005250   200162 450500                    STP0    @CST+1,,AUTO
        19 005251   200162 630500                    EPPR0   @CST+1,,AUTO
        19 005252   000011 631400 20                 EPPR1   9
        19 005253   000000 701000 xent               TSX1    LIST
        19 005254   000000 011000                    NOP     0

      952     2722    1       PL = ' '; C32 = ' ';

   2722 19 005255   040100 100400                    MLR     fill='040'O
PL6.E3A0      #001=DDY7 File=ZIG$DDY7.:ZIC0TSI                                   FRI 09/05/97 11:55 Page:171
        19 005256   000014 000001 20                 ADSC9   12                       cn=0,n=1
        19 005257   200016 000200                    ADSC9   PL,,AUTO                 cn=0,n=128

   2722 19 005260   040100 100400                    MLR     fill='040'O
        19 005261   000014 000001 20                 ADSC9   12                       cn=0,n=1
        19 005262   200147 000040                    ADSC9   C32,,AUTO                cn=0,n=32

      953     2723    1       GOTO ACR_ANAL1;

   2723 19 005263   005205 710000 19                 TRA     ACR_ANAL1

      954     2724    1   ACR_A3:
      955     2725    1       IF ACR_WA_SW = 1 THEN GOTO ACR_ANAL2;

   2725 19 005264   000223 235000 17    ACR_A3       LDA     ACR_WA_SW
        19 005265   000001 115007                    CMPA    1,DL
        19 005266   005317 600000 19                 TZE     ACR_ANAL2

      956     2726    1       CALL LIST(PL);

   2726 19 005267   200016 630500                    EPPR0   PL,,AUTO
        19 005270   200162 450500                    STP0    @CST+1,,AUTO
        19 005271   200162 630500                    EPPR0   @CST+1,,AUTO
        19 005272   000011 631400 20                 EPPR1   9
        19 005273   000000 701000 xent               TSX1    LIST
        19 005274   000000 011000                    NOP     0

      957     2727    1       PL=' ';

   2727 19 005275   040100 100400                    MLR     fill='040'O
        19 005276   000014 000001 20                 ADSC9   12                       cn=0,n=1
        19 005277   200016 000200                    ADSC9   PL,,AUTO                 cn=0,n=128

      958     2728    1       CALL LIST(PL);

   2728 19 005300   200016 630500                    EPPR0   PL,,AUTO
        19 005301   200162 450500                    STP0    @CST+1,,AUTO
PL6.E3A0      #001=DDY7 File=ZIG$DDY7.:ZIC0TSI                                   FRI 09/05/97 11:55 Page:172
        19 005302   200162 630500                    EPPR0   @CST+1,,AUTO
        19 005303   000011 631400 20                 EPPR1   9
        19 005304   000000 701000 xent               TSX1    LIST
        19 005305   000000 011000                    NOP     0

      959     2729    1       PL = '                    **** NONE REFERENCED ****';

   2729 19 005306   040100 100400                    MLR     fill='040'O
        19 005307   001250 000055 18                 ADSC9   SUBMESS+680              cn=0,n=45
        19 005310   200016 000200                    ADSC9   PL,,AUTO                 cn=0,n=128

      960     2730    1       CALL LIST(PL);

   2730 19 005311   200016 630500                    EPPR0   PL,,AUTO
        19 005312   200162 450500                    STP0    @CST+1,,AUTO
        19 005313   200162 630500                    EPPR0   @CST+1,,AUTO
        19 005314   000011 631400 20                 EPPR1   9
        19 005315   000000 701000 xent               TSX1    LIST
        19 005316   000000 011000                    NOP     0

      961     2731    1   ACR_ANAL2:
      962     2732    1       PL=' ';

   2732 19 005317   040100 100400       ACR_ANAL2    MLR     fill='040'O
        19 005320   000014 000001 20                 ADSC9   12                       cn=0,n=1
        19 005321   200016 000200                    ADSC9   PL,,AUTO                 cn=0,n=128

      963     2733    1       CALL LIST(PL);

   2733 19 005322   200016 630500                    EPPR0   PL,,AUTO
        19 005323   200162 450500                    STP0    @CST+1,,AUTO
        19 005324   200162 630500                    EPPR0   @CST+1,,AUTO
        19 005325   000011 631400 20                 EPPR1   9
        19 005326   000000 701000 xent               TSX1    LIST
        19 005327   000000 011000                    NOP     0

      964     2734    1       PL = '  AREA(S) REFERENCED BY';
PL6.E3A0      #001=DDY7 File=ZIG$DDY7.:ZIC0TSI                                   FRI 09/05/97 11:55 Page:173

   2734 19 005330   040100 100400                    MLR     fill='040'O
        19 005331   001225 000027 18                 ADSC9   SUBMESS+661              cn=0,n=23
        19 005332   200016 000200                    ADSC9   PL,,AUTO                 cn=0,n=128

      965     2735    1       CALL LIST(PL);

   2735 19 005333   200016 630500                    EPPR0   PL,,AUTO
        19 005334   200162 450500                    STP0    @CST+1,,AUTO
        19 005335   200162 630500                    EPPR0   @CST+1,,AUTO
        19 005336   000011 631400 20                 EPPR1   9
        19 005337   000000 701000 xent               TSX1    LIST
        19 005340   000000 011000                    NOP     0

      966     2736    1       C32 = '    "SET SELECTION" CLAUSE:';

   2736 19 005341   040100 100400                    MLR     fill='040'O
        19 005342   001264 000033 18                 ADSC9   SUBMESS+692              cn=0,n=27
        19 005343   200147 000040                    ADSC9   C32,,AUTO                cn=0,n=32

      967     2737    1       PL = C32;

   2737 19 005344   040100 100500                    MLR     fill='040'O
        19 005345   200147 000040                    ADSC9   C32,,AUTO                cn=0,n=32
        19 005346   200016 000200                    ADSC9   PL,,AUTO                 cn=0,n=128

      968     2738    1       Y = 0;

   2738 19 005347   000054 450000 17                 STZ     Y

      969     2739    1       IF ACREFTBL(Y) = 0 THEN GOTO ACR_ANAL4;

   2739 19 005350   000054 720000 17                 LXL0    Y
        19 005351   000055 235010 17                 LDA     ACREFTBL,X0
        19 005352   005431 600000 19                 TZE     ACR_ANAL4

      970     2740    1   ACR_ANAL3:
PL6.E3A0      #001=DDY7 File=ZIG$DDY7.:ZIC0TSI                                   FRI 09/05/97 11:55 Page:174
      971     2741    1       CALL FINDD_6('AC  ',ACREFTBL(Y)) ALTRET(DBCS_ERR);

   2741 19 005353   000054 720000 17    ACR_ANAL3    LXL0    Y
        19 005354   000055 630410 17                 EPPR0   ACREFTBL,X0
        19 005355   200163 450500                    STP0    @CST+2,,AUTO
        19 005356   000120 236000 20                 LDQ     80
        19 005357   200162 756100                    STQ     @CST+1,,AUTO
        19 005360   200162 630500                    EPPR0   @CST+1,,AUTO
        19 005361   000000 631400 20                 EPPR1   0
        19 005362   000000 701000 xent               TSX1    FINDD_6
        19 005363   005470 702000 19                 TSX2    DBCS_ERR

      972     2742    1       CALL FETCHOS_6('AC-RA   ') ALTRET(DBCS_ERR);

   2742 19 005364   000117 630400 20                 EPPR0   79
        19 005365   000011 631400 20                 EPPR1   9
        19 005366   000000 701000 xent               TSX1    FETCHOS_6
        19 005367   005470 702000 19                 TSX2    DBCS_ERR

      973     2743    1       CALL FETCHOS_6('SN-SE   ') ALTRET(DBCS_ERR);

   2743 19 005370   000113 630400 20                 EPPR0   75
        19 005371   000011 631400 20                 EPPR1   9
        19 005372   000000 701000 xent               TSX1    FETCHOS_6
        19 005373   005470 702000 19                 TSX2    DBCS_ERR

      974     2744    1       CALL QTE(UWA.SN.SENAME);

   2744 19 005374   000013 236000 20                 LDQ     11
        19 005375   200161 756100                    STQ     C32+10,,AUTO
        19 005376   005535 701000 19                 TSX1    QTE
        19 005377   000000 011000                    NOP     0

      975     2745    1       CALL CONCAT(PL,C32,CHAR_LEN);

   2745 19 005400   040100 100500                    MLR     fill='040'O
        19 005401   200147 000040                    ADSC9   C32,,AUTO                cn=0,n=32
PL6.E3A0      #001=DDY7 File=ZIG$DDY7.:ZIC0TSI                                   FRI 09/05/97 11:55 Page:175
        19 005402   200016 000040                    ADSC9   PL,,AUTO                 cn=0,n=32
        19 005403   200106 470500                    LDP0    CHAR$,,AUTO
        19 005404   000232 720000 17                 LXL0    LEN
        19 005405   040100 100540                    MLR     fill='040'O
        19 005406   000000 000010                    ADSC9   0,,PR0                   cn=0,n=*X0
        19 005407   200026 000140                    ADSC9   PL+8,,AUTO               cn=0,n=96

      976     2746    1       CALL LIST(PL);

   2746 19 005410   200016 630500                    EPPR0   PL,,AUTO
        19 005411   200162 450500                    STP0    @CST+1,,AUTO
        19 005412   200162 630500                    EPPR0   @CST+1,,AUTO
        19 005413   000011 631400 20                 EPPR1   9
        19 005414   000000 701000 xent               TSX1    LIST
        19 005415   000000 011000                    NOP     0

      977     2747    1       PL = ' '; C32 = ' ';

   2747 19 005416   040100 100400                    MLR     fill='040'O
        19 005417   000014 000001 20                 ADSC9   12                       cn=0,n=1
        19 005420   200016 000200                    ADSC9   PL,,AUTO                 cn=0,n=128

   2747 19 005421   040100 100400                    MLR     fill='040'O
        19 005422   000014 000001 20                 ADSC9   12                       cn=0,n=1
        19 005423   200147 000040                    ADSC9   C32,,AUTO                cn=0,n=32

      978     2748    1       Y = Y + 1;

   2748 19 005424   000054 054000 17                 AOS     Y

      979     2749    1       IF Y = TACX THEN GOTO ACR_ANAL5;

   2749 19 005425   000054 236000 17                 LDQ     Y
        19 005426   000053 116000 17                 CMPQ    TACX
        19 005427   005450 600000 19                 TZE     ACR_ANAL5

      980     2750    1       GOTO ACR_ANAL3;
PL6.E3A0      #001=DDY7 File=ZIG$DDY7.:ZIC0TSI                                   FRI 09/05/97 11:55 Page:176

   2750 19 005430   005353 710000 19                 TRA     ACR_ANAL3

      981     2751    1   ACR_ANAL4:
      982     2752    1       CALL LIST(PL);

   2752 19 005431   200016 630500       ACR_ANAL4    EPPR0   PL,,AUTO
        19 005432   200162 450500                    STP0    @CST+1,,AUTO
        19 005433   200162 630500                    EPPR0   @CST+1,,AUTO
        19 005434   000011 631400 20                 EPPR1   9
        19 005435   000000 701000 xent               TSX1    LIST
        19 005436   000000 011000                    NOP     0

      983     2753    1       PL = '                    **** NONE REFERENCED ****';

   2753 19 005437   040100 100400                    MLR     fill='040'O
        19 005440   001250 000055 18                 ADSC9   SUBMESS+680              cn=0,n=45
        19 005441   200016 000200                    ADSC9   PL,,AUTO                 cn=0,n=128

      984     2754    1       CALL LIST(PL);

   2754 19 005442   200016 630500                    EPPR0   PL,,AUTO
        19 005443   200162 450500                    STP0    @CST+1,,AUTO
        19 005444   200162 630500                    EPPR0   @CST+1,,AUTO
        19 005445   000011 631400 20                 EPPR1   9
        19 005446   000000 701000 xent               TSX1    LIST
        19 005447   000000 011000                    NOP     0

      985     2755    1   ACR_ANAL5:
      986     2756    1       PL=' ';

   2756 19 005450   040100 100400       ACR_ANAL5    MLR     fill='040'O
        19 005451   000014 000001 20                 ADSC9   12                       cn=0,n=1
        19 005452   200016 000200                    ADSC9   PL,,AUTO                 cn=0,n=128

      987     2757    1       CALL LIST(PL);

PL6.E3A0      #001=DDY7 File=ZIG$DDY7.:ZIC0TSI                                   FRI 09/05/97 11:55 Page:177
   2757 19 005453   200016 630500                    EPPR0   PL,,AUTO
        19 005454   200162 450500                    STP0    @CST+1,,AUTO
        19 005455   200162 630500                    EPPR0   @CST+1,,AUTO
        19 005456   000011 631400 20                 EPPR1   9
        19 005457   000000 701000 xent               TSX1    LIST
        19 005460   000000 011000                    NOP     0

      988     2758    1       GOTO NEXT_RC;

   2758 19 005461   000070 710000 19                 TRA     NEXT_RC

      989     2759
      990     2760    1   END_APPL:
      991     2761    1       IF UWA.DB_STATUS = '0502100' THEN GOTO DB_FINISH;

   2761 19 005462   040000 106400       END_APPL     CMPC    fill='040'O
        19 005463   000001 000007 16                 ADSC9   UWA+1                    cn=0,n=7
        19 005464   001147 000007 18                 ADSC9   SUBMESS+615              cn=0,n=7
        19 005465   005467 600000 19                 TZE     DB_FINISH

      992     2762    1       GOTO DBCS_ERR;

   2762 19 005466   005470 710000 19                 TRA     DBCS_ERR

      993     2763    1   DB_FINISH:
      994     2764    1       RETURN;

   2764 19 005467   000000 702200 xent  DB_FINISH    TSX2  ! X66_ARET

      995     2765    1   DBCS_ERR:
      996     2766    1       PL=' ';

   2766 19 005470   040100 100400       DBCS_ERR     MLR     fill='040'O
        19 005471   000014 000001 20                 ADSC9   12                       cn=0,n=1
        19 005472   200016 000200                    ADSC9   PL,,AUTO                 cn=0,n=128

      997     2767    1       CALL LIST(PL);
PL6.E3A0      #001=DDY7 File=ZIG$DDY7.:ZIC0TSI                                   FRI 09/05/97 11:55 Page:178

   2767 19 005473   200016 630500                    EPPR0   PL,,AUTO
        19 005474   200162 450500                    STP0    @CST+1,,AUTO
        19 005475   200162 630500                    EPPR0   @CST+1,,AUTO
        19 005476   000011 631400 20                 EPPR1   9
        19 005477   000000 701000 xent               TSX1    LIST
        19 005500   000000 011000                    NOP     0

      998     2768    1       PL = '**** DBCS ERROR - ACTIVITY ABORTS ****';

   2768 19 005501   040100 100400                    MLR     fill='040'O
        19 005502   001274 000046 18                 ADSC9   SUBMESS+700              cn=0,n=38
        19 005503   200016 000200                    ADSC9   PL,,AUTO                 cn=0,n=128

      999     2769    1       CALL LIST(PL);

   2769 19 005504   200016 630500                    EPPR0   PL,,AUTO
        19 005505   200162 450500                    STP0    @CST+1,,AUTO
        19 005506   200162 630500                    EPPR0   @CST+1,,AUTO
        19 005507   000011 631400 20                 EPPR1   9
        19 005510   000000 701000 xent               TSX1    LIST
        19 005511   000000 011000                    NOP     0

     1000     2770    1       CALL CONCAT(PL , '**** ABNORMAL STATUS = ' , UWA.DB_STATUS , ' ****');

   2770 19 005512   040100 100400                    MLR     fill='040'O
        19 005513   001306 000027 18                 ADSC9   SUBMESS+710              cn=0,n=23
        19 005514   200016 000027                    ADSC9   PL,,AUTO                 cn=0,n=23
        19 005515   040100 100400                    MLR     fill='040'O
        19 005516   000001 000007 16                 ADSC9   UWA+1                    cn=0,n=7
        19 005517   200023 600007                    ADSC9   PL+5,,AUTO               cn=3,n=7
        19 005520   040100 100400                    MLR     fill='040'O
        19 005521   001262 000005 18                 ADSC9   SUBMESS+690              cn=0,n=5
        19 005522   200025 400142                    ADSC9   PL+7,,AUTO               cn=2,n=98

     1001     2771    1       CALL LIST(PL);

PL6.E3A0      #001=DDY7 File=ZIG$DDY7.:ZIC0TSI                                   FRI 09/05/97 11:55 Page:179
   2771 19 005523   200016 630500                    EPPR0   PL,,AUTO
        19 005524   200162 450500                    STP0    @CST+1,,AUTO
        19 005525   200162 630500                    EPPR0   @CST+1,,AUTO
        19 005526   000011 631400 20                 EPPR1   9
        19 005527   000000 701000 xent               TSX1    LIST
        19 005530   000000 011000                    NOP     0

     1002     2772    1       CALL ABORT;

   2772 19 005531   000021 631400 20                 EPPR1   17
        19 005532   000000 701000 xent               TSX1    ABORT
        19 005533   000000 011000                    NOP     0
        19 005534   005575 710000 19                 TRA     s:2783

     1003     2773    1   QTE:

   2773 19 005535   200160 741300       QTE          STX1  ! C32+9,,AUTO

     1004     2774    1       PROC(CST) ;
     1005     2775    2   DCL CST CHAR(30);
     1006     2776    2       CALL INDEX1(LEN,' ',CST);

   2776 19 005536   200161 470500                    LDP0    @CST,,AUTO
        19 005537   000000 124500                    SCM     mask='000'O
        19 005540   000000 000036                    ADSC9   0,,PR0                   cn=0,n=30
        19 005541   000014 000001 20                 ADSC9   12                       cn=0,n=1
        19 005542   000232 000000 17                 ARG     LEN

     1007     2777    2       LEN=LEN+1;

   2777 19 005543   000232 235000 17                 LDA     LEN
        19 005544   000001 035007                    ADLA    1,DL
        19 005545   000232 755000 17                 STA     LEN

     1008     2778    2       CALL CONCAT(CHAR_LEN,'"',CST);

   2778 19 005546   200106 471500                    LDP1    CHAR$,,AUTO
PL6.E3A0      #001=DDY7 File=ZIG$DDY7.:ZIC0TSI                                   FRI 09/05/97 11:55 Page:180
        19 005547   000000 620005                    EAX0    0,AL
        19 005550   040140 100400                    MLR     fill='040'O
        19 005551   000121 000001 20                 ADSC9   81                       cn=0,n=1
        19 005552   100000 000010                    ADSC9   0,,PR1                   cn=0,n=*X0
        19 005553   000232 236000 17                 LDQ     LEN
        19 005554   000002 116007                    CMPQ    2,DL
        19 005555   005562 602000 19                 TNC     s:2779
        19 005556   777777 620006                    EAX0    -1,QL
        19 005557   040140 100500                    MLR     fill='040'O
        19 005560   000000 000036                    ADSC9   0,,PR0                   cn=0,n=30
        19 005561   100000 200010                    ADSC9   0,,PR1                   cn=1,n=*X0

     1009     2779    2       CALL INSERT(CHAR_LEN,LEN ,1,'"');

   2779 19 005562   040106 100400                    MLR     fill='040'O
        19 005563   000121 000001 20                 ADSC9   81                       cn=0,n=1
        19 005564   100000 000001                    ADSC9   0,Q,PR1                  cn=0,n=1

     1010     2780    2       LEN = LEN + 1;

   2780 19 005565   000001 036007                    ADLQ    1,DL
        19 005566   000232 756000 17                 STQ     LEN

     1011     2781    2       CHR32 = CHAR_LEN;

   2781 19 005567   000000 620006                    EAX0    0,QL
        19 005570   040100 100540                    MLR     fill='040'O
        19 005571   100000 000010                    ADSC9   0,,PR1                   cn=0,n=*X0
        19 005572   200117 000040                    ADSC9   CHR32,,AUTO              cn=0,n=32

     1012     2782    2   END; /* Qte */

   2782 19 005573   200160 221300                    LDX1  ! C32+9,,AUTO
        19 005574   000001 702211                    TSX2  ! 1,X1

     1013     2783    1   END;

PL6.E3A0      #001=DDY7 File=ZIG$DDY7.:ZIC0TSI                                   FRI 09/05/97 11:55 Page:181
   2783 19 005575   000000 702200 xent               TSX2  ! X66_ARET

UWA_KEY
 Sect OctLoc
   7     000   007125 127101   ****** ******                                    .UWA....

RVA_KEY
 Sect OctLoc
   9     000   007122 126101   ****** ******                                    .RVA....

IA__KEY
 Sect OctLoc
  10     000   007111 101137   ****** ******                                    .IA_....

SEARCHR_NB
 Sect OctLoc
  12     000   001001 001001   001001 001001   001001 001001   001001 001001    ................
  12     010*  000001 001001   001001 001001   001001 001001   001001 001001    ................
  12     014   001001 001001   001001 001001   001001 001001   001001 001001    ................
  12     034*  001001 001001   001001 001001   001001 001001   001001 001001    ................

SEM_COM
 Sect OctLoc
  13     000   000001 002003   004005 006007   010011 012013   014015 016017    ................
  13     004   020021 022023   024025 026027   030031 032033   034035 036037    ................
  13     010   040041 042043   044045 046047   050051 052053   054055 056057     !"#$%&'()*+,-./
  13     014   060061 062063   064065 066067   070071 072040   074075 076077    0123456789: <=>?
  13     020   100101 102103   104105 106107   110111 112113   114115 116117    @ABCDEFGHIJKLMNO
  13     024   120121 122123   124125 126127   130131 132133   134135 136137    PQRSTUVWXYZ[\]^_
  13     030   140141 142143   144145 146147   150151 152153   154155 156157    `abcdefghijklmno
  13     034   160161 162163   164165 166167   170171 172173   174175 176177    pqrstuvwxyz{|}~.

DMCL_XLATE
 Sect OctLoc
  14     000   000001 002003   004005 006007   010011 012013   014015 016017    ................
  14     004   020021 022023   024025 026027   030031 032033   034035 036037    ................
  14     010   040041 041043   044045 046047   050051 052053   054055 136057     !!#$%&'()*+,-^/
PL6.E3A0      #001=DDY7 File=ZIG$DDY7.:ZIC0TSI                                   FRI 09/05/97 11:55 Page:182
  14     014   060061 062063   064065 066067   070071 072040   074075 076077    0123456789: <=>?
  14     020   100101 102103   104105 106107   110111 112113   114115 116117    @ABCDEFGHIJKLMNO
  14     024   120121 122123   124125 126127   130131 132133   134135 136137    PQRSTUVWXYZ[\]^_
  14     030   140141 142143   144145 146147   150151 152153   154155 156157    `abcdefghijklmno
  14     034   160161 162163   164165 166167   170171 172173   174175 176177    pqrstuvwxyz{|}~.

Q2_PERCENT
 Sect OctLoc
  15     000   000001 002003   004005 006007   010011 012013   014015 016017    ................
  15     004   020021 022023   024025 026027   030031 032033   034035 036037    ................
  15     010   040041 045043   044045 046047   050051 052053   054055 056057     !%#$%&'()*+,-./
  15     014   060061 062063   064065 066067   070071 072073   074075 076077    0123456789:;<=>?
  15     020   100101 102103   104105 106107   110111 112113   114115 116117    @ABCDEFGHIJKLMNO
  15     024   120121 122123   124125 126127   130131 132133   134135 136137    PQRSTUVWXYZ[\]^_
  15     030   140141 142143   144145 146147   150151 152153   154155 156157    `abcdefghijklmno
  15     034   160161 162163   164165 166167   170171 172173   174175 176177    pqrstuvwxyz{|}~.

UWA
 Sect OctLoc
  16     000   000000 000000   040040 040040   040040 040040   040040 040040    ....
  16     004   040040 040040   040040 040040   040040 040040   040040 040040
  16     010   040040 040040   040040 040040   040040 000000   040040 040040              ..
  16     014   040040 040040   040040 040040   040040 040040   040040 040040
  16     020   040040 040040   040040 040040   040040 000000   040040 040040              ..
  16     024   040040 040040   040040 040040   040040 040040   040040 040040
  16     030   040040 040040   040040 040040   040040 000000   040040 040040              ..
  16     034   040040 040040   040040 040040   000000 000000   040040 040040            ....
  16     040   040040 040040   040040 040040   040040 040040   040040 040040
  16     044   040040 040040   040040 040040   040040 000000   040040 040040              ..
  16     050   040040 040040   040040 040040   040040 040040   040040 040040
  16     054   040040 040040   040040 040040   040040 000000   000000 000000              ......
  16     060   040040 040040   040*** ******   000000 000000   000000 000000         ...........
  16     064   000000 000000   000000 000000   040040 040040   040040 040040    ........
  16     070   040040 040040   040040 040040   040040 040040   040040 040040
  16     100*  040040 ******   000000 000000   040040 040040   040040 040040      ......
  16     104   040040 040040   040040 040040   040040 040040   040040 040040
  16     124*  040040 040040   040040 040040   000000 000000   040040 040040            ....
PL6.E3A0      #001=DDY7 File=ZIG$DDY7.:ZIC0TSI                                   FRI 09/05/97 11:55 Page:183
  16     130   040040 040040   040040 040040   040040 040040   040040 040040
  16     134   040040 040040   040040 040040   040040 ******   000000 000000              ......
  16     140   040040 040040   040040 040040   040040 040040   040040 040040
  16     144   040040 040040   040040 040040   000000 000000   000000 000000            ........
  16     150   000000 000000   000000 000000   000000 000000   000000 000000    ................
  16     154   040040 040040   040040 040040   040040 040040   040040 040040
  16     160   040040 040040   040040 040040   040040 040040   040040 ******                  ..
  16     164   000000 000000   ****** ******   000000 000000   000000 000000    ................
  16     170   000000 000000   040040 040040   040040 040040   040040 040040    ....
  16     174   040040 040040   040040 040040   040040 040040   040040 040040
  16     210*  040040 040040   040040 040040   040040 040040   ****** ******                ....
  16     214   000000 000000   000000 000000   000000 000000   000000 000000    ................
  16     224*  000000 000000   000000 000000   000000 000000   040040 ******    ............  ..
  16     230   000000 000000   ****** ******   000000 000000   040040 040040    ............
  16     234   000000 000000   000000 000000   000000 000000   000000 000000    ................
  16     264*  000000 000000   000000 000000   000000 000000   ****** ******    ................
  16     270   000000 000000   000000 000000   000000 000000   000000 000000    ................
  16     324*  000000 000000   ****** ******   000000 000000   000000 000000    ................
  16     330   000000 000000   000000 000000   000000 000000   000000 000000    ................
  16     350*  000000 000000   000000 000000   000000 000000   ****** ******    ................
  16     360*  000000 000000   000000 000000   000000 000000   000000 000000    ................
  16     404*  000000 000000   ****** ******   000000 000000   000000 000000    ................
  16     410   000000 000000   000000 000000   000000 000000   000000 000000    ................
  16     424*  000000 000000   000000 000000   000000 000000   040040 040040    ............
  16     430   040040 040040   040040 040040   040040 040040   040040 040040
  16     434   040040 040040   040040 040040   040040 ******   ****** ******              ......
  16     440   040040 040040   040040 040040   040040 040040   040040 040040
  16     450*  040040 040040   040040 040040   040040 ******   ****** ******              ......
  16     454   000000 000000   040040 040040   040040 040040   040040 040040    ....
  16     460   040040 040040   040040 040040   040040 040040   040040 040040
  16     464   040040 ******   ****** ******   000000 000000   000000 000000      ..............
  16     470   000000 000000   000000 000000   000000 000000   000000 000000    ................
  16     474   000000 000000   ****** ******   000000 000000   000000 000000    ................
  16     500   000000 000000   000000 000000   040040 040040   040040 040040    ........
  16     504   040040 040040   040040 040040   040040 040040   040040 040040
  16     520*  040040 040040   ****** ******   000000 000000   000000 000000        ............
  16     524   040040 040040   040040 040040   040040 040040   040040 040040
PL6.E3A0      #001=DDY7 File=ZIG$DDY7.:ZIC0TSI                                   FRI 09/05/97 11:55 Page:184
  16     574*  000000 000000   000000 000000   000000 000000   000000 000000    ................
  16     600   000000 000000   000000 000000   000000 000000   ****** ******    ................
  16     604   000000 000000   000000 000000   000000 000000   000000 000000    ................
  16     610   000000 000000   000000 000000   040040 040040   040040 040040    ........
  16     614   040040 040040   040040 040040   040040 040040   040040 040040
  16     620   040040 040040   040040 ******   040040 040040   040040 040040          ..
  16     624   040040 040040   040040 040040   040040 040040   040040 040040
  16     660*  040040 040040   040040 040040   040040 040040   ****** ******                ....
  16     664   040040 040040   040040 040040   040040 040040   040040 040040
  16     674*  040040 040040   ****** ******   040040 040040   040040 040040        ....
  16     700   040040 040040   040040 040040   040040 040040   040040 040040
  16     710*  040040 040040   ****** ******   040040 040040   040040 040040        ....
  16     714   040040 040040   040040 040040   040040 040040   040040 040040
  16     720   040040 040040   040040 040040   040040 040040   ****** ******                ....
  16     724   040040 040040   040040 040040   040040 040040   040040 040040
  16     740*  040040 040040   ****** ******   040040 040040   040040 040040        ....
  16     744   040040 040040   040040 040040   040040 040040   040040 040040
  16     774*  040040 040040   ****** ******   040040 040040   040040 040040        ....
  16    1000   040040 040040   040040 040040   040040 040040   040040 040040
  16    1034*  040040 040040   ****** ******   040040 040040   040040 040040        ....
  16    1040   040040 040040   040040 040040   040040 040040   040040 040040
  16    1060*  040040 040040   ****** ******   040040 040040   040040 040040        ....
  16    1064   040040 040040   040040 040040   040040 040040   040040 040040
  16    1114*  040040 040040   ****** ******   040040 040040   040040 040040        ....
  16    1120   040040 040040   040040 040040   040040 040040   040040 040040
  16    1134*  040040 040040   040040 040040   040040 040040   ****** ******                ....
  16    1140   040040 040040   040040 040040   040040 040040   040040 040040
  16    1144   040040 040040   ****** ******   040040 040040   040040 040040        ....
  16    1150   040040 040040   040040 040040   040040 040040   ****** ******                ....
  16    1154   040040 040040   040040 040040   040040 040040   040040 040040
  16    1160   040040 040040   ****** ******   040040 040040   040040 040040        ....
  16    1164   040040 040040   040040 040040   040040 040040   ****** ******                ....
  16    1170   040040 040040   040040 040040   040040 040040   040040 040040
  16    1200*  040040 040040   040040 040040   040040 040040   ****** ******                ....
  16    1204   040040 040040   040040 040040   040040 040040   040040 040040
  16    1214*  040040 040040   040040 040040   040040 040040   040040 040040

PL6.E3A0      #001=DDY7 File=ZIG$DDY7.:ZIC0TSI                                   FRI 09/05/97 11:55 Page:185
TSSX
 Sect OctLoc
  17     000   000000 000000                                                    ....

SSREFTBL
 Sect OctLoc
  17     001   000000 000000   000000 000000   000000 000000   000000 000000    ................
  17     045*  000000 000000   000000 000000   000000 000000   000000 000000    ................

SMTYPE
 Sect OctLoc
  17     051   000000 ******                                                    ....

X
 Sect OctLoc
  17     052   000000 000000                                                    ....

TACX
 Sect OctLoc
  17     053   000000 000000                                                    ....

Y
 Sect OctLoc
  17     054   000000 000000                                                    ....

ACREFTBL
 Sect OctLoc
  17     055   000000 000000   000000 000000   000000 000000   000000 000000    ................
  17     215*  000000 000000   000000 000000   000000 000000   000000 000000    ................

SSA_SET_FND
 Sect OctLoc
  17     221   000000 000000                                                    ....

OWN_PROC
 Sect OctLoc
  17     222   000000 000000                                                    ....
PL6.E3A0      #001=DDY7 File=ZIG$DDY7.:ZIC0TSI                                   FRI 09/05/97 11:55 Page:186

ACR_WA_SW
 Sect OctLoc
  17     223   000000 000000                                                    ....

PROC_TYP
 Sect OctLoc
  17     224   000000 000000                                                    ....

CURR_PT
 Sect OctLoc
  17     225   000000 000000                                                    ....

CURR_PT1
 Sect OctLoc
  17     226   000000 000000                                                    ....

ENC_AG_FND
 Sect OctLoc
  17     227   000000 000000                                                    ....

CHK_AG_FND
 Sect OctLoc
  17     230   000000 000000                                                    ....

PROC_FND
 Sect OctLoc
  17     231   000000 000000                                                    ....

LEN
 Sect OctLoc
  17     232   000000 000000                                                    ....

SUBMESS
 Sect OctLoc
  18     000   104101 124101   040102 101123   105040 104101   124101 040123    DATA BASE DATA S
  18     004   124122 125103   124125 122105   040123 125115   115101 122131    TRUCTURE SUMMARY
PL6.E3A0      #001=DDY7 File=ZIG$DDY7.:ZIC0TSI                                   FRI 09/05/97 11:55 Page:187

(unnamed)
 Sect OctLoc
  18     010   123106 040040   117101 040040   123116 055123   105040 040040    SF  OA  SN-SE
  18     014   123103 110105   115101 040116   101115 105040   104101 040040    SCHEMA NAME DA
  18     020   123116 040040   104101 055123   116040 040040   052052 052052    SN  DA-SN   ****
  18     024   123125 115115   101122 131040   106117 122040   122105 103117    SUMMARY FOR RECO
  18     030   122104 040040   040052 052052   103117 116124   122117 114040    RD   ***CONTROL
  18     034   104101 124101   040111 124105   115123 072040   040040 040040    DATA ITEMS:
  18     040   040040 040040   040040 040040   040040 104101   124101 040111              DATA I
  18     044   124105 115040   125123 101107   105040 111123   072040 040040    TEM USAGE IS:
  18     050   104101 124101   040102 101123   105040 113105   131040 101123    DATA BASE KEY AS
  18     054   123111 107116   115105 116124   040101 116101   114131 123111    SIGNMENT ANALYSI
  18     060   123072 040040   040040 114117   103101 124111   117116 040115    S:    LOCATION M
  18     064   117104 105040   111123 040104   111122 105103   124040 040040    ODE IS DIRECT
  18     070   122103 055106   122040 040040   106122 040040   040040 114117    RC-FR   FR    LO
  18     074   103056 040115   117104 105040   104111 122105   103124 040120    C. MODE DIRECT P
  18     100   101122 101115   105124 105122   106122 040040   040040 040040    ARAMETERFR
  18     104   060065 060062   061060 060040   040040 114117   103101 124111    0502100   LOCATI
  18     110   117116 040115   117104 105040   111123 040111   116104 105130    ON MODE IS INDEX
  18     114   105104 040040   122103 055123   117123 115040   123115 040040    ED  RC-SOSM SM
  18     120   123103 055123   117123 115040   040040 114117   103101 124111    SC-SOSM   LOCATI
  18     124   117116 040113   105131 040111   123040 040040   123115 123123    ON KEY IS   SMSS
  18     130   055103 106040   106122 055103   106123 040040   040040 114117    -CF FR-CFS    LO
  18     134   103101 124111   117116 040115   117104 105040   111123 040103    CATION MODE IS C
  18     140   101114 103040   104125 120114   111103 101124   105123 040101    ALC DUPLICATES A
  18     144   114114 117127   105104 040040   040040 114117   103101 124111    LLOWED    LOCATI
  18     150   117116 040115   117104 105040   111123 040103   101114 103040    ON MODE IS CALC
  18     154   104125 120114   111103 101124   105123 040116   117124 040101    DUPLICATES NOT A
  18     160   114114 117127   105104 040040   040040 103101   114103 040113    LLOWED    CALC K
  18     164   105131 040040   040040 114117   103101 124111   117116 040115    EY    LOCATION M
  18     170   117104 105040   111123 040126   111101 040123   105124 040116    ODE IS VIA SET N
  18     174   101115 105040   040040 040040   040040 040040   040040 050123    AME           (S
  18     200   105105 040123   105124 040123   105114 105103   124111 117116    EE SET SELECTION
  18     204   040101 116101   114131 123111   123040 106117   122040 116101     ANALYSIS FOR NA
  18     210   115105 104040   123105 124051   040040 127111   124110 111116    MED SET)  WITHIN
  18     214   040115 125114   124111 120114   105040 101122   105101 123073     MULTIPLE AREAS;
PL6.E3A0      #001=DDY7 File=ZIG$DDY7.:ZIC0TSI                                   FRI 09/05/97 11:55 Page:188
  18     220   040123 105114   105103 124111   117116 040111   123040 102131     SELECTION IS BY
  18     224   040040 040040   040040 127111   124110 111116   040123 111116          WITHIN SIN
  18     230   107114 105040   101122 105101   040040 127111   124110 111116    GLE AREA  WITHIN
  18     234   040115 125114   124111 120114   105040 101122   105101 123073     MULTIPLE AREAS;
  18     240   040123 105114   105103 124111   117116 040111   123040 102131     SELECTION IS BY
  18     244   040101 120120   114111 103101   124111 117116   040040 101122     APPLICATION  AR
  18     250   105101 040123   105114 105103   124111 117116   123116 116122    EA SELECTIONSNNR
  18     254   055120 124040   120116 055120   124040 040040   040040 104101    -PT PN-PT     DA
  18     260   124101 040102   101123 105040   120122 117103   105104 125122    TA BASE PROCEDUR
  18     264   105040 040040   120116 055101   107040 040040   040040 125123    E   PN-AG     US
  18     270   111116 107040   101122 107125   115105 116124   040040 107111    ING ARGUMENT  GI
  18     274   126111 116107   040101 122107   125115 105116   124040 040040    VING ARGUMENT
  18     300   040111 116040   122103 040040   105116 103117   104111 116107     IN RC  ENCODING
  18     304   057104 105103   117104 111116   107054 040103   110105 103113    /DECODING, CHECK
  18     310   040120 122117   103105 104125   122105 050123   051040 101116     PROCEDURE(S) AN
  18     314   101114 131123   111123 072040   040040 040040   040040 040040    ALYSIS:
  18     320   040040 105116   103117 104111   116107 040040   040040 040040      ENCODING
  18     324   040040 040040   040040 104105   103117 104111   116107 040040          DECODING
  18     330   040040 040040   040040 040040   040040 105116   103117 104111              ENCODI
  18     334   116107 057104   105103 117104   111116 107040   120124 040040    NG/DECODING PT
  18     340   120116 055120   124040 040040   040040 040040   040040 040040    PN-PT
  18     344   040040 120122   117103 105104   125122 105040   111123 040040      PROCEDURE IS
  18     350   120116 055101   107040 040040   106122 040040   123116 055123    PN-AG   FR  SN-S
  18     354   105040 040040   040040 125123   111116 107040   101122 107125    E     USING ARGU
  18     360   115105 116124   060065 060062   061060 060040   040040 040040    MENT0502100
  18     364   040040 040040   040040 040040   040040 040040   040040 040040
  18     370   052052 052040   116117 040111   116120 125124   040104 101124    *** NO INPUT DAT
  18     374   101040 101122   107125 115105   116124 123040   106117 125116    A ARGUMENTS FOUN
  18     400   104040 052052   052052 040040   040040 107111   126111 116107    D ****    GIVING
  18     404   040101 122107   125115 105116   124040 040040   040040 040040     ARGUMENT
  18     410   040040 040040   040040 040040   040040 040040   040040 040040
  18     414   052052 052052   040116 117040   117125 124120   125124 040104    **** NO OUTPUT D
  18     420   101124 101040   101122 107125   115105 116124   123040 106117    ATA ARGUMENTS FO
  18     424   125116 104040   052052 052052   123116 116122   055120 124040    UND ****SNNR-PT
  18     430   105116 103117   104111 116107   057104 105103   117104 111116    ENCODING/DECODIN
  18     434   107054 040103   110105 103113   040120 122117   103105 104125    G, CHECK PROCEDU
  18     440   122105 050123   051040 101116   101114 131123   111123 072040    RE(S) ANALYSIS:
PL6.E3A0      #001=DDY7 File=ZIG$DDY7.:ZIC0TSI                                   FRI 09/05/97 11:55 Page:189
  18     444   040040 040040   040040 040040   040040 103110   105103 113040              CHECK
  18     450   120122 117103   105104 125122   105040 111123   040040 040040    PROCEDURE IS
  18     454   040040 040040   040040 040040   040040 040040   040040 040040
  18     460   040040 040040   052052 052052   040116 117040   111116 120125        **** NO INPU
  18     464   124040 104101   124101 040101   122107 125115   105116 124123    T DATA ARGUMENTS
  18     470   040106 117125   116104 040052   052052 052040   113105 131040     FOUND **** KEY
  18     474   123124 122125   103124 125122   105040 101116   101114 131123    STRUCTURE ANALYS
  18     500   111123 072040   122103 055123   117123 115040   123115 040040    IS: RC-SOSM SM
  18     504   123103 055123   117123 115040   040040 113105   131040 116101    SC-SOSM   KEY NA
  18     510   115105 040111   123040 040040   123115 123123   055103 106040    ME IS   SMSS-CF
  18     514   106122 055103   106123 040040   040040 101123   103105 116104    FR-CFS    ASCEND
  18     520   111116 107040   113105 131040   040040 040040   040040 104125    ING KEY       DU
  18     524   120114 111103   101124 105123   040116 117124   040101 114114    PLICATES NOT ALL
  18     530   117127 105104   040040 040040   040040 104125   120114 111103    OWED      DUPLIC
  18     534   101124 105123   040101 114114   117127 105104   123105 124040    ATES ALLOWEDSET
  18     540   123124 122125   103124 125122   105040 101116   101114 131123    STRUCTURE ANALYS
  18     544   111123 072040   122103 040040   040040 117127   116105 122040    IS: RC    OWNER
  18     550   117106 040123   105124 050123   051072 040040   123117 040040    OF SET(S):  SO
  18     554   040040 040040   040040 123105   124040 116101   115105 040040          SET NAME
  18     560   040040 040040   040040 040040   040040 040040   040040 040040
  18     564   040040 040040   052052 052052   040116 117040   123105 124040        **** NO SET
  18     570   117127 116105   122040 122105   114101 124111   117116 123110    OWNER RELATIONSH
  18     574   111120 123040   104105 106111   116105 104040   052052 052052    IPS DEFINED ****
  18     600   040040 040040   040040 040040   040040 040040   040040 040040
  18     604   040040 040040   052052 052052   040116 117040   123105 124040        **** NO SET
  18     610   115105 115102   105122 040122   105114 101124   111117 116123    MEMBER RELATIONS
  18     614   110111 120123   040104 105106   111116 105104   040052 052052    HIPS DEFINED ***
  18     620   052040 040040   040040 101125   124117 115101   124111 103040    *     AUTOMATIC
  18     624   115105 115102   105122 040117   106040 123105   124050 123051    MEMBER OF SET(S)
  18     630   072040 040040   040040 115101   116125 101114   040115 105115    :     MANUAL MEM
  18     634   102105 122040   117106 040123   105124 050123   051072 040040    BER OF SET(S):
  18     640   122103 055123   117123 115040   123115 040040   060065 060062    RC-SOSM SM  0502
  18     644   061060 060040   040040 040040   040040 040040   040040 040040    100
  18     650   040040 040040   040040 040040   052052 052052   040116 117040            **** NO
  18     654   101125 124117   115101 124111   103040 115105   115102 105122    AUTOMATIC MEMBER
  18     660   040101 123123   117103 111101   124111 117116   123040 104105     ASSOCIATIONS DE
  18     664   106111 116105   104040 052052   052052 040040   040040 040040    FINED ****
PL6.E3A0      #001=DDY7 File=ZIG$DDY7.:ZIC0TSI                                   FRI 09/05/97 11:55 Page:190
  18     670   040040 040040   040040 040040   040040 040040   040040 040040
  18     674   052052 052052   040116 117040   115101 116125   101114 040115    **** NO MANUAL M
  18     700   105115 102105   122040 101123   123117 103111   101124 111117    EMBER ASSOCIATIO
  18     704   116123 040104   105106 111116   105104 040052   052052 052040    NS DEFINED ****
  18     710   123103 055123   117123 115040   123116 055123   105040 040040    SC-SOSM SN-SE
  18     714   040040 040040   040040 123105   124040 116101   115105 040040          SET NAME
  18     720   123115 055123   123040 040040   123055 123040   123103 040040    SM-SS   S-S SC
  18     724   040040 040040   040040 040040   040040 040040   040040 040040
  18     730   117127 116105   122040 122105   103117 122104   040040 040040    OWNER RECORD
  18     734   122103 055106   122040 040040   106122 040040   040040 101122    RC-FR   FR    AR
  18     740   105101 040123   105114 105103   124111 117116   123116 116122    EA SELECTIONSNNR
  18     744   055120 124040   120116 055120   124040 040040   120116 055101    -PT PN-PT   PN-A
  18     750   107040 040040   040040 125123   111116 107040   101122 107125    G     USING ARGU
  18     754   115105 116124   111116 040040   122103 040040   122103 055122    MENTIN  RC  RC-R
  18     760   101040 040040   101103 055122   101040 040040   123123 123115    A   AC-RA   SSSM
  18     764   055103 106040   040040 123105   124040 117103   103125 122122    -CF   SET OCCURR
  18     770   105116 103105   040123 105114   105103 124111   117116 040040    ENCE SELECTION
  18     774   106122 055103   106123 040040   050111 104105   116124 111106    FR-CFS  (IDENTIF
  18    1000   111105 104040   102131 040101   120120 114111   103101 124111    IED BY APPLICATI
  18    1004   117116 051040   040040 040040   040040 040040   040040 040040    ON)
  18    1010   040040 040040   111116 123105   122124 111117   116040 111123        INSERTION IS
  18    1014   040106 111122   123124 040040   040040 040040   040040 040040     FIRST
  18    1020   040040 040040   040040 040040   111116 123105   122124 111117            INSERTIO
  18    1024   116040 111123   040114 101123   124040 040040   040040 040040    N IS LAST
  18    1030   040040 040040   040040 040040   040040 040040   111116 123105                INSE
  18    1034   122124 111117   116040 111123   040116 105130   124040 040040    RTION IS NEXT
  18    1040   040040 040040   040040 040040   040040 040040   040040 040040
  18    1044   111116 123105   122124 111117   116040 111123   040120 122111    INSERTION IS PRI
  18    1050   117122 040040   040040 040040   040040 040040   040040 040040    OR
  18    1054   040040 040040   111116 123105   122124 111117   116040 111123        INSERTION IS
  18    1060   040123 117122   124105 104040   102131 040104   105106 111116     SORTED BY DEFIN
  18    1064   105104 040113   105131 123040   040040 040040   040040 040040    ED KEYS
  18    1070   040040 040040   040040 040040   111116 123105   122124 111117            INSERTIO
  18    1074   116040 111123   040123 117122   124105 104040   127111 124110    N IS SORTED WITH
  18    1100   111116 040122   105103 117122   104040 116101   115105 040040    IN RECORD NAME
  18    1104   040040 040040   040040 040040   040040 040040   040040 040040
  18    1110   040040 040040   104125 120114   111103 101124   105123 040101        DUPLICATES A
PL6.E3A0      #001=DDY7 File=ZIG$DDY7.:ZIC0TSI                                   FRI 09/05/97 11:55 Page:191
  18    1114   122105 040106   111122 123124   040040 040040   040040 040040    RE FIRST
  18    1120   040040 040040   040040 040040   040040 040040   104125 120114                DUPL
  18    1124   111103 101124   105123 040101   122105 040114   101123 124040    ICATES ARE LAST
  18    1130   040040 040040   040040 040040   040040 040040   040040 040040
  18    1134   040040 040040   104125 120114   111103 101124   105123 040101        DUPLICATES A
  18    1140   122105 040116   117124 040101   114114 117127   105104 040040    RE NOT ALLOWED
  18    1144   123115 123123   055103 106040   123115 040040   060065 060062    SMSS-CF SM  0502
  18    1150   061060 060040   040040 104105   123103 105116   104111 116107    100   DESCENDING
  18    1154   040123 117122   124040 113105   131040 040040   040040 101123     SORT KEY     AS
  18    1160   103105 116104   111116 107040   123117 122124   040113 105131    CENDING SORT KEY
  18    1164   106122 055103   106123 040040   106122 040040   123116 055123    FR-CFS  FR  SN-S
  18    1170   105040 040040   122103 055106   122040 040040   111116 040040    E   RC-FR   IN
  18    1174   040040 040040   040040 040040   040040 040040   040040 040040
  18    1200   104125 120114   111103 101124   105123 040104   111123 101114    DUPLICATES DISAL
  18    1204   114117 127105   104040 106117   122072 040040   040040 104125    LOWED FOR:    DU
  18    1210   120114 111103   101124 105123   040103 124114   056040 106111    PLICATES CTL. FI
  18    1214   105114 104040   101122 105101   040103 122117   123123 055122    ELD AREA CROSS-R
  18    1220   105106 105122   105116 103105   040101 116101   114131 123111    EFERENCE ANALYSI
  18    1224   123072 040040   040040 101122   105101 050123   051040 122105    S:    AREA(S) RE
  18    1230   106105 122105   116103 105104   040102 131040   040040 040040    FERENCED BY
  18    1234   042127 111124   110111 116040   101122 105101   040116 101115    "WITHIN AREA NAM
  18    1240   105042 040103   114101 125123   105072 040040   122103 040040    E" CLAUSE:  RC
  18    1244   122103 055122   101040 040040   101103 055122   101040 040040    RC-RA   AC-RA
  18    1250   040040 040040   040040 040040   040040 040040   040040 040040
  18    1254   040040 040040   052052 052052   040116 117116   105040 122105        **** NONE RE
  18    1260   106105 122105   116103 105104   040052 052052   052040 040040    FERENCED ****
  18    1264   040040 040040   042123 105124   040123 105114   105103 124111        "SET SELECTI
  18    1270   117116 042040   103114 101125   123105 072040   101103 040040    ON" CLAUSE: AC
  18    1274   052052 052052   040104 102103   123040 105122   122117 122040    **** DBCS ERROR
  18    1300   055040 101103   124111 126111   124131 040101   102117 122124    - ACTIVITY ABORT
  18    1304   123040 052052   052052 040040   052052 052052   040101 102116    S ****  **** ABN
  18    1310   117122 115101   114040 123124   101124 125123   040075 040040    ORMAL STATUS =

(unnamed)
 Sect OctLoc
  20     000   000002 000000   000000 000040   000000 006000   000001 006000    ....... ........
  20     004   000000 000002   000010 006000   000004 006000   000011 006000    ................
PL6.E3A0      #001=DDY7 File=ZIG$DDY7.:ZIC0TSI                                   FRI 09/05/97 11:55 Page:192
  20     010   000063 006000   000001 000000   000012 006000   000427 006000    .3..............
  20     014   040040 040040   000017 006000   000064 006000   000020 006000        .....4......
  20     020   000416 006000   000000 000000   000021 006000   000070 006000    .............8..
  20     024   000072 006000   000352 006000   000102 006000   000115 006000    .:.......B...M..
  20     030   000120 006000   000127 006000   000131 006000   000253 006000    .P...W...Y......
  20     034   000255 006000   000265 006000   000072 006000   000501 006000    .........:......
  20     040   000301 006000   000337 006000   000225 006000   000340 006000    ................
  20     044   000455 006000   000350 006000   000352 006000   000501 006000    ................
  20     050   000353 006000   000426 006000   000501 006000   000504 006000    ................
  20     054   000512 006000   000514 006000   000545 006000   000640 006000    ................
  20     060   000642 006000   000710 006000   000712 006000   000720 006000    ................
  20     064   000642 006000   000376 006000   000722 006000   000723 006000    ................
  20     070   000375 006000   000734 006000   000736 006000   000352 006000    ................
  20     074   000743 006000   000745 006000   000747 006000   000736 006000    ................
  20     100   000501 006000   000756 006000   000757 006000   000761 006000    ................
  20     104   000763 006000   000774 006000   001144 006000   001146 006000    .........d...f..
  20     110   001164 006000   001166 006000   000352 006000   001167 006000    .t...v.......w..
  20     114   001171 006000   001243 006000   001244 006000   001246 006000    .y..............
  20     120   001273 006000   042040 040040                                    ...."

PL6.E3A0      #001=DDY7 File=ZIG$DDY7.:ZIC0TSI                                   FRI 09/05/97 11:55 Page:193
--  Include file information  --

   ZIG_GENERAL.:ZIC0TOU  cannot be made into a system file and is referenced.
   ZI_SUB4_CAN.:ZIC0TOU  is referenced.
   ZI_ERRORS_SUBS.:ZIC0TOU  is referenced.
   ZIA_IDS_DCL.:ZIC0TOU  cannot be made into a system file and is referenced.
   ZIG_DBA_INT.:ZIC0TOU  cannot be made into a system file and is referenced.
   B$JIT_C.:E05TOU  was found in the system file and is never referenced.
   CP_6_C.:E05TOU  was found in the system file and is never referenced.
      No diagnostics issued in procedure DDY7.

   Procedure DDY7 requires 2942 words for executable code.
   Procedure DDY7 requires 116 words of local(AUTO) storage.

    No errors detected in file ZIG$DDY7.:ZIC0TSI    .
PL6.E3A0      #001=DDY7 File=ZIG$DDY7.:ZIC0TSI                                   FRI 09/05/97 11:55 Page:194
          *** CROSS REFERENCE LISTING ***
**     DENOTES     IDENTIFIER DEFINITION
<<                 IDENTIFIER'S VALUE SET
>>                 IDENTIFIER'S VALUE USED
<>                 IDENTIFIER SET AND/OR USED
--                 IDENTIFIER REFERENCED
PL6.E3A0      #001=DDY7 File=ZIG$DDY7.:ZIC0TSI                                   FRI 09/05/97 11:55 Page:195
          MINI XREF LISTING

A5_FIND_OWN
      1937**LABEL    1934--GOTO
ABORT
      1363**DCL-ENT  1874--CALL     1892--CALL     1935--CALL     1947--CALL     1973--CALL     1993--CALL
      1999--CALL     2031--CALL     2079--CALL     2088--CALL     2121--CALL     2153--CALL     2171--CALL
      2182--CALL     2216--CALL     2247--CALL     2374--CALL     2450--CALL     2456--CALL     2483--CALL
      2487--CALL     2495--CALL     2514--CALL     2562--CALL     2590--CALL     2665--CALL     2714--CALL
      2772--CALL
ACREFTBL
      1796**DCL      1847<<ASSIGN   2500>>IF       2505<<ASSIGN   2739>>IF       2741<>CALL
ACR_A2
      2716**LABEL    2711--GOTO
ACR_A3
      2725**LABEL    2713--GOTO
ACR_ANAL
      2697**LABEL    2342--GOTO     2384--GOTO
ACR_ANAL1
      2710**LABEL    2723--GOTO
ACR_ANAL2
      2732**LABEL    2725--GOTO
ACR_ANAL3
      2741**LABEL    2750--GOTO
ACR_ANAL4
      2752**LABEL    2739--GOTO
ACR_ANAL5
      2756**LABEL    2749--GOTO
ACR_CK_STAT
      2713**LABEL    2710--CALLALT
ACR_WA_SW
      1804**DCL      2708<<ASSIGN   2716<<ASSIGN   2725>>IF
C32
      1823**DCL      1884<<ASSIGN   1885>>CALLBLT  1887<<ASSIGN   1940<<ASSIGN   1941>>CALLBLT  2289<<ASSIGN
PL6.E3A0      #001=DDY7 File=ZIG$DDY7.:ZIC0TSI                                   FRI 09/05/97 11:55 Page:196
      2290>>CALLBLT  2630<<ASSIGN   2631>>CALLBLT  2646<<ASSIGN   2647>>CALLBLT  2705<<ASSIGN   2706>>ASSIGN
      2720>>CALLBLT  2722<<ASSIGN   2736<<ASSIGN   2737>>ASSIGN   2745>>CALLBLT  2747<<ASSIGN
C64
      1822**DCL      1876<<ASSIGN   1885>>CALLBLT  1887<<ASSIGN   1908<<CALLBLT  1913>>CALLBLT  1923<<ASSIGN
      1925<<ASSIGN   1926>>ASSIGN   1941>>CALLBLT  1943<<ASSIGN   1979<<ASSIGN   1987>>CALLBLT  1989<<ASSIGN
      2002<<CALLBLT  2015>>CALLBLT  2017>>CALLBLT  2027<<ASSIGN   2103<<CALLBLT  2104>>ASSIGN   2115>>CALLBLT
      2117<<ASSIGN   2133<<ASSIGN   2147>>CALLBLT  2149<<ASSIGN   2198<<CALLBLT  2199>>ASSIGN   2210>>CALLBLT
      2212<<ASSIGN   2228<<ASSIGN   2241>>CALLBLT  2243<<ASSIGN   2261<<ASSIGN   2282<<CALLBLT  2283>>ASSIGN
      2290>>CALLBLT  2429<<CALLBLT  2430>>ASSIGN   2442>>CALLBLT  2444<<ASSIGN   2468>>CALLBLT  2478<<ASSIGN
      2528>>CALLBLT  2538<<ASSIGN   2543>>CALLBLT  2545<<ASSIGN   2548>>CALLBLT  2592<<ASSIGN   2595<<ASSIGN
      2598<<ASSIGN   2631>>CALLBLT  2641<<ASSIGN   2647>>CALLBLT  2649<<ASSIGN   2656<<CALLBLT  2657>>ASSIGN
      2677>>CALLBLT  2687<<ASSIGN   2692>>CALLBLT  2694<<ASSIGN
CALC_A5
      1929**LABEL    1930--GOTO     1931--GOTO
CALC_A5_CF
      1933**LABEL    1944--GOTO
CALC_A5_STAT
      1946**LABEL    1933--CALLALT
CALC_MODE
      1922**LABEL    1871--GOTO
CHAR$
      1819**DCL      1818--IMP-PTR  1826<<ASSIGN   1832>>CALLBLT  1859>>CALLBLT  1884>>ASSIGN   1908>>CALLBLT
      1940>>ASSIGN   1957>>CALLBLT  2024>>CALLBLT  2044>>CALLBLT  2103>>CALLBLT  2198>>CALLBLT  2282>>CALLBLT
      2289>>ASSIGN   2321>>CALLBLT  2398>>CALLBLT  2429>>CALLBLT  2475>>CALLBLT  2535>>CALLBLT  2630>>ASSIGN
      2638>>CALLBLT  2646>>ASSIGN   2684>>CALLBLT  2720>>CALLBLT  2745>>CALLBLT  2778>>CALLBLT  2779>>CALLBLT
      2781>>ASSIGN
CHAR32
      1820**DCL      1826--ASSIGN
CHAR_LEN
      1818**DCL      1832>>CALLBLT  1859>>CALLBLT  1884>>ASSIGN   1908>>CALLBLT  1940>>ASSIGN   1957>>CALLBLT
      2024>>CALLBLT  2044>>CALLBLT  2103>>CALLBLT  2198>>CALLBLT  2282>>CALLBLT  2289>>ASSIGN   2321>>CALLBLT
      2398>>CALLBLT  2429>>CALLBLT  2475>>CALLBLT  2535>>CALLBLT  2630>>ASSIGN   2638>>CALLBLT  2646>>ASSIGN
      2684>>CALLBLT  2720>>CALLBLT  2745>>CALLBLT  2778<<CALLBLT  2779<<CALLBLT  2781>>ASSIGN
CHECK_ANAL
      2174**LABEL    2081--GOTO     2169--GOTO
CHK_A10
PL6.E3A0      #001=DDY7 File=ZIG$DDY7.:ZIC0TSI                                   FRI 09/05/97 11:55 Page:197
      2249**LABEL    2246--GOTO
CHK_A5_AG
      2201**LABEL    2204--GOTO     2213--GOTO
CHK_A5_STAT
      2215**LABEL    2201--CALLALT
CHK_A6
      2206**LABEL    2202--GOTO     2203--GOTO
CHK_A7
      2218**LABEL    2215--GOTO
CHK_A8_AG
      2232**LABEL    2235--GOTO     2244--GOTO
CHK_A8_STAT
      2246**LABEL    2232--CALLALT
CHK_A9
      2237**LABEL    2233--GOTO     2234--GOTO
CHK_AG_FND
      1815**DCL      2174<<ASSIGN   2208<<ASSIGN   2218>>IF       2227<<ASSIGN   2239<<ASSIGN   2251>>IF
CHK_NXT_PT
      2178**LABEL    2180--GOTO
CHK_OUT
      2227**LABEL    2218--GOTO
CHK_PROC
      2185**LABEL    2179--GOTO
CHK_PROC1
      2191**LABEL    2185--GOTO
CHK_PT_STAT
      2182**LABEL    2178--CALLALT
CHR32
      1821**DCL      1913>>CALLBLT  1987>>CALLBLT  2015>>CALLBLT  2017>>CALLBLT  2115>>CALLBLT  2147>>CALLBLT
      2210>>CALLBLT  2241>>CALLBLT  2442>>CALLBLT  2468>>CALLBLT  2528>>CALLBLT  2543>>CALLBLT  2677>>CALLBLT
      2692>>CALLBLT  2781<<ASSIGN
CST IN PROCEDURE QTE
      2775**DCL      2774--PROC     2776>>CALLBLT  2778>>CALLBLT
CURR_DA_SN
      1805**DCL      1840<>CALL     1854<<ASSIGN
CURR_FR
PL6.E3A0      #001=DDY7 File=ZIG$DDY7.:ZIC0TSI                                   FRI 09/05/97 11:55 Page:198
      1809**DCL      2037<>CALL     2041<<ASSIGN   2175<>CALL
CURR_OWN_RC
      1806**DCL      2424<<ASSIGN   2489<>CALL
CURR_PT
      1812**DCL      2066<<ASSIGN   2100<>CALL     2134<>CALL     2163<<ASSIGN   2195<<ASSIGN   2229<>CALL
CURR_PT1
      1813**DCL      2054<<ASSIGN   2062<<ASSIGN   2161>>IF       2163>>ASSIGN   2164<<ASSIGN
CURR_RC
      1807**DCL      1869<<ASSIGN   2034<>CALL     2308<>CALL     2707<>CALL
CURR_RC_SOSM
      1808**DCL      2366<>CALL     2370<<ASSIGN   2600<>CALL     2605<>CALL     2654<>CALL
CURR_SC_SSH
      1810**DCL      2421<<ASSIGN   2555<>CALL
D5_C
      2011**LABEL    2005--GOTO     2006--GOTO     2007--GOTO     2008--GOTO
D5_CK_STAT
      2030**LABEL    2004--CALLALT
D5_D
      2027**LABEL    2021--GOTO
D5_FND_PN
      2001**LABEL    1998--GOTO
D5_NXT_AG
      2004**LABEL    2009--GOTO     2028--GOTO
DB5_STAT
      1891**LABEL    1878--CALLALT
DBCS_ERR
      2766**LABEL    1828--CALLALT  1829--CALLALT  1830--CALLALT  1836--CALLALT  1837--CALLALT  1840--CALLALT
      1868--CALLALT  1881--CALLALT  1882--CALLALT  1901--CALLALT  1904--CALLALT  1910--CALLALT  1911--CALLALT
      1929--CALLALT  1937--CALLALT  1938--CALLALT  1950--CALLALT  1954--CALLALT  1955--CALLALT  1968--CALLALT
      1984--CALLALT  1985--CALLALT  1996--CALLALT  1997--CALLALT  2001--CALLALT  2011--CALLALT  2012--CALLALT
      2019--CALLALT  2020--CALLALT  2034--CALLALT  2037--CALLALT  2042--CALLALT  2100--CALLALT  2101--CALLALT
      2111--CALLALT  2112--CALLALT  2134--CALLALT  2135--CALLALT  2142--CALLALT  2143--CALLALT  2175--CALLALT
      2176--CALLALT  2196--CALLALT  2206--CALLALT  2207--CALLALT  2229--CALLALT  2230--CALLALT  2237--CALLALT
      2238--CALLALT  2266--CALLALT  2273--CALLALT  2280--CALLALT  2285--CALLALT  2286--CALLALT  2287--CALLALT
      2308--CALLALT  2309--CALLALT  2318--CALLALT  2319--CALLALT  2327--CALLALT  2362--CALLALT  2366--CALLALT
      2389--CALLALT  2390--CALLALT  2400--CALLALT  2407--CALLALT  2408--CALLALT  2414--CALLALT  2420--CALLALT
PL6.E3A0      #001=DDY7 File=ZIG$DDY7.:ZIC0TSI                                   FRI 09/05/97 11:55 Page:199
      2422--CALLALT  2423--CALLALT  2425--CALLALT  2439--CALLALT  2440--CALLALT  2453--CALLALT  2454--CALLALT
      2458--CALLALT  2465--CALLALT  2466--CALLALT  2470--CALLALT  2471--CALLALT  2489--CALLALT  2497--CALLALT
      2521--CALLALT  2525--CALLALT  2526--CALLALT  2530--CALLALT  2531--CALLALT  2541--CALLALT  2555--CALLALT
      2600--CALLALT  2605--CALLALT  2609--GOTO     2623--CALLALT  2627--CALLALT  2628--CALLALT  2633--CALLALT
      2634--CALLALT  2644--CALLALT  2654--CALLALT  2670--CALLALT  2674--CALLALT  2675--CALLALT  2679--CALLALT
      2680--CALLALT  2690--CALLALT  2707--CALLALT  2717--CALLALT  2718--CALLALT  2741--CALLALT  2742--CALLALT
      2743--CALLALT  2762--GOTO
DB_FINISH
      2764**LABEL    1851--GOTO     2761--GOTO
DEC_PROC
      2093**LABEL    2086--GOTO
DIR_B5
      1878**LABEL    1879--GOTO     1889--GOTO
DIR_MODE
      1876**LABEL    1870--GOTO
DUP_ANAL
      2652**LABEL    2585--GOTO     2611--GOTO
DUP_CK_STAT
      2662**LABEL    2659--CALLALT
DUP_NXT_5A
      2687**LABEL    2681--GOTO
DUP_NXT_CF2
      2659**LABEL    2668--GOTO     2688--GOTO     2695--GOTO
DUP_NXT_CF3
      2667**LABEL    2660--GOTO
DUP_NXT_CF4
      2670**LABEL    2667--GOTO
DUP_NXT_CF5
      2674**LABEL    2671--GOTO
DUP_NXT_CF6
      2690**LABEL    2672--GOTO
ENC_A1
      2051**LABEL    2047--GOTO
ENC_A10
      2155**LABEL    2152--GOTO
ENC_A11
PL6.E3A0      #001=DDY7 File=ZIG$DDY7.:ZIC0TSI                                   FRI 09/05/97 11:55 Page:200
      2161**LABEL    2155--GOTO
ENC_A2
      2059**LABEL    2048--GOTO
ENC_A2A
      2066**LABEL    2057--GOTO
ENC_A2A1
      2068**LABEL    2055--GOTO     2063--GOTO
ENC_A3
      2081**LABEL    2078--GOTO
ENC_A4
      2098**LABEL    2091--GOTO     2094--GOTO     2166--GOTO
ENC_A5_AG
      2106**LABEL    2109--GOTO     2118--GOTO
ENC_A5_STAT
      2120**LABEL    2106--CALLALT
ENC_A6
      2111**LABEL    2107--GOTO     2108--GOTO
ENC_A7
      2123**LABEL    2120--GOTO
ENC_A8_AG
      2137**LABEL    2140--GOTO     2150--GOTO
ENC_A8_STAT
      2152**LABEL    2137--CALLALT
ENC_A9
      2142**LABEL    2138--GOTO     2139--GOTO
ENC_AG_FND
      1814**DCL      2113<<ASSIGN   2123>>IF       2132<<ASSIGN   2145<<ASSIGN   2155>>IF
ENC_CK_STAT
      2078**LABEL    2046--CALLALT
ENC_DEC
      2033**LABEL    1977--GOTO     1992--GOTO     2030--GOTO
ENC_DEC_PROC
      2096**LABEL    2087--GOTO
ENC_FR_STAT
      2171**LABEL    2040--CALLALT
ENC_NXT_FR
PL6.E3A0      #001=DDY7 File=ZIG$DDY7.:ZIC0TSI                                   FRI 09/05/97 11:55 Page:201
      2037**LABEL    2183--GOTO     2251--GOTO     2256--GOTO
ENC_NXT_FR1
      2039**LABEL    2035--GOTO
ENC_NXT_PT
      2046**LABEL    2049--GOTO     2068--GOTO     2076--GOTO
ENC_OUT
      2132**LABEL    2123--GOTO
ENC_PROC
      2090**LABEL    2085--GOTO
END_APPL
      2761**LABEL    1849--CALLALT
END_OWNERS
      2327**LABEL    2316--CALLALT
FETCHD_6
        19**DCL-ENT  1828--CALL     1829--CALL     1836--CALL     1837--CALL     2034--CALL     2308--CALL
      2414--CALL     2555--CALL     2654--CALL
FETCHNS_6
        24**DCL-ENT  1849--CALL     1868--CALL     1878--CALL     1897--CALL     1909--CALL     1929--CALL
      1933--CALL     1950--CALL     1981--CALL     1997--CALL     2004--CALL     2040--CALL     2046--CALL
      2106--CALL     2137--CALL     2178--CALL     2201--CALL     2232--CALL     2269--CALL     2285--CALL
      2316--CALL     2368--CALL     2400--CALL     2408--CALL     2417--CALL     2419--CALL     2422--CALL
      2437--CALL     2454--CALL     2460--CALL     2491--CALL     2510--CALL     2602--CALL     2659--CALL
      2710--CALL
FETCHOS_6
        28**DCL-ENT  1830--CALL     1882--CALL     1901--CALL     1904--CALL     1910--CALL     1911--CALL
      1937--CALL     1938--CALL     1954--CALL     1955--CALL     1968--CALL     1985--CALL     1996--CALL
      2001--CALL     2012--CALL     2019--CALL     2020--CALL     2042--CALL     2101--CALL     2112--CALL
      2135--CALL     2143--CALL     2176--CALL     2196--CALL     2207--CALL     2230--CALL     2238--CALL
      2266--CALL     2273--CALL     2280--CALL     2286--CALL     2287--CALL     2309--CALL     2318--CALL
      2319--CALL     2327--CALL     2362--CALL     2389--CALL     2390--CALL     2423--CALL     2425--CALL
      2440--CALL     2453--CALL     2458--CALL     2466--CALL     2470--CALL     2471--CALL     2497--CALL
      2521--CALL     2526--CALL     2530--CALL     2531--CALL     2541--CALL     2623--CALL     2628--CALL
      2633--CALL     2634--CALL     2644--CALL     2670--CALL     2675--CALL     2679--CALL     2680--CALL
      2690--CALL     2717--CALL     2718--CALL     2742--CALL     2743--CALL
FINDD_6
        20**DCL-ENT  1840--CALL     1881--CALL     1888--CALL     1984--CALL     2011--CALL     2037--CALL
PL6.E3A0      #001=DDY7 File=ZIG$DDY7.:ZIC0TSI                                   FRI 09/05/97 11:55 Page:202
      2100--CALL     2111--CALL     2134--CALL     2142--CALL     2175--CALL     2206--CALL     2229--CALL
      2237--CALL     2366--CALL     2407--CALL     2420--CALL     2439--CALL     2465--CALL     2489--CALL
      2525--CALL     2600--CALL     2605--CALL     2627--CALL     2674--CALL     2707--CALL     2741--CALL
FO_DIU
      1786**DCL      2519<<ASSIGN   2528>>CALLBLT  2543>>CALLBLT  2618<<ASSIGN   2621<<ASSIGN   2631>>CALLBLT
      2647>>CALLBLT
GET_SO_RET
      2417**LABEL    2513--GOTO
HOLD_FR
      1795**DCL      1880<<ASSIGN   1888<>CALL
INDEX1X
      1897**LABEL    1899--GOTO     1915--GOTO     1919--GOTO
INDEX_MODE
      1894**LABEL    1873--GOTO
K
      1794**DCL      2412<<DOINDEX  2413>>ASSIGN
LEN
      1817**DCL      1818--IMP-SIZ  1832>>CALLBLT  1859>>CALLBLT  1884>>ASSIGN   1908>>CALLBLT  1940>>ASSIGN
      1957>>CALLBLT  2024>>CALLBLT  2044>>CALLBLT  2103>>CALLBLT  2198>>CALLBLT  2282>>CALLBLT  2289>>ASSIGN
      2321>>CALLBLT  2398>>CALLBLT  2429>>CALLBLT  2475>>CALLBLT  2535>>CALLBLT  2630>>ASSIGN   2638>>CALLBLT
      2646>>ASSIGN   2684>>CALLBLT  2720>>CALLBLT  2745>>CALLBLT  2776<<CALLBLT  2777<<ASSIGN   2777>>ASSIGN
      2778>>CALLBLT  2779>>CALLBLT  2779>>CALLBLT  2780<<ASSIGN   2780>>ASSIGN   2781>>ASSIGN
LIST
      1370**DCL-ENT  1833--CALL     1835--CALL     1857--CALL     1860--CALL     1863--CALL     1865--CALL
      1867--CALL     1886--CALL     1895--CALL     1906--CALL     1914--CALL     1942--CALL     1958--CALL
      1960--CALL     1962--CALL     1964--CALL     1967--CALL     1976--CALL     1988--CALL     1995--CALL
      2018--CALL     2025--CALL     2070--CALL     2072--CALL     2074--CALL     2082--CALL     2084--CALL
      2098--CALL     2116--CALL     2124--CALL     2126--CALL     2128--CALL     2130--CALL     2148--CALL
      2157--CALL     2159--CALL     2187--CALL     2189--CALL     2193--CALL     2211--CALL     2219--CALL
      2221--CALL     2223--CALL     2225--CALL     2242--CALL     2250--CALL     2253--CALL     2255--CALL
      2262--CALL     2263--CALL     2265--CALL     2278--CALL     2291--CALL     2296--CALL     2301--CALL
      2303--CALL     2305--CALL     2307--CALL     2312--CALL     2314--CALL     2322--CALL     2324--CALL
      2329--CALL     2333--CALL     2335--CALL     2339--CALL     2341--CALL     2345--CALL     2347--CALL
      2357--CALL     2359--CALL     2361--CALL     2381--CALL     2399--CALL     2427--CALL     2443--CALL
      2448--CALL     2469--CALL     2476--CALL     2482--CALL     2529--CALL     2536--CALL     2544--CALL
      2549--CALL     2551--CALL     2577--CALL     2581--CALL     2584--CALL     2632--CALL     2639--CALL
PL6.E3A0      #001=DDY7 File=ZIG$DDY7.:ZIC0TSI                                   FRI 09/05/97 11:55 Page:203
      2648--CALL     2653--CALL     2663--CALL     2678--CALL     2685--CALL     2693--CALL     2698--CALL
      2700--CALL     2702--CALL     2704--CALL     2721--CALL     2726--CALL     2728--CALL     2730--CALL
      2733--CALL     2735--CALL     2746--CALL     2752--CALL     2754--CALL     2757--CALL     2767--CALL
      2769--CALL     2771--CALL
LNCNT
      1824**DCL      1856<<ASSIGN
NEXT_RC
      1840**LABEL    2758--GOTO
NEXT_RC1
      1842**LABEL    1838--GOTO
NEXT_RC2
      1849**LABEL    1853--GOTO
NXT_OWNER
      2316**LABEL    2317--GOTO     2325--GOTO
NXT_RC_3
      1853**LABEL    1850--GOTO
OWN_PROC
      1803**DCL      2411<<ASSIGN   2431>>IF       2432<<ASSIGN
PL
      1798**DCL      1832<<CALLBLT  1833<>CALL     1834<<ASSIGN   1835<>CALL     1855<<ASSIGN   1857<>CALL
      1859<<CALLBLT  1860<>CALL     1861<<ASSIGN   1862<<CALLBLT  1863<>CALL     1864<<ASSIGN   1865<>CALL
      1866<<ASSIGN   1867<>CALL     1885<<CALLBLT  1886<>CALL     1887<<ASSIGN   1894<<ASSIGN   1895<>CALL
      1905<<ASSIGN   1906<>CALL     1913<<CALLBLT  1914<>CALL     1926<<ASSIGN   1941<<CALLBLT  1942<>CALL
      1943<<ASSIGN   1957<<CALLBLT  1958<>CALL     1959<<ASSIGN   1960<>CALL     1961<<ASSIGN   1962<>CALL
      1963<<ASSIGN   1964<>CALL     1966<<ASSIGN   1967<>CALL     1970<<ASSIGN   1975<<ASSIGN   1976<>CALL
      1987<<CALLBLT  1988<>CALL     1989<<ASSIGN   1995<>CALL     2015<<CALLBLT  2017<<CALLBLT  2018<>CALL
      2023<<ASSIGN   2024<<CALLBLT  2025<>CALL     2027<<ASSIGN   2044<<CALLBLT  2069<<ASSIGN   2070<>CALL
      2071<<ASSIGN   2072<>CALL     2073<<ASSIGN   2074<>CALL     2082<>CALL     2083<<ASSIGN   2084<>CALL
      2090<<ASSIGN   2093<<ASSIGN   2096<<ASSIGN   2098<>CALL     2104<<ASSIGN   2115<<CALLBLT  2116<>CALL
      2117<<ASSIGN   2124<>CALL     2125<<ASSIGN   2126<>CALL     2127<<ASSIGN   2128<>CALL     2129<<ASSIGN
      2130<>CALL     2133<<ASSIGN   2147<<CALLBLT  2148<>CALL     2149<<ASSIGN   2156<<ASSIGN   2157<>CALL
      2158<<ASSIGN   2159<>CALL     2165<<ASSIGN   2186<<ASSIGN   2187<>CALL     2188<<ASSIGN   2189<>CALL
      2192<<ASSIGN   2193<>CALL     2194<<ASSIGN   2199<<ASSIGN   2210<<CALLBLT  2211<>CALL     2212<<ASSIGN
      2219<>CALL     2220<<ASSIGN   2221<>CALL     2222<<ASSIGN   2223<>CALL     2224<<ASSIGN   2225<>CALL
      2228<<ASSIGN   2241<<CALLBLT  2242<>CALL     2243<<ASSIGN   2249<<ASSIGN   2250<>CALL     2252<<ASSIGN
      2253<>CALL     2254<<ASSIGN   2255<>CALL     2261<<ASSIGN   2262<>CALL     2263<>CALL     2264<<ASSIGN
PL6.E3A0      #001=DDY7 File=ZIG$DDY7.:ZIC0TSI                                   FRI 09/05/97 11:55 Page:204
      2265<>CALL     2277<<ASSIGN   2278<>CALL     2279<<ASSIGN   2283<<ASSIGN   2290<<CALLBLT  2291<>CALL
      2293<<ASSIGN   2295<<ASSIGN   2296<>CALL     2300<<ASSIGN   2301<>CALL     2302<<ASSIGN   2303<>CALL
      2304<<ASSIGN   2305<>CALL     2306<<ASSIGN   2307<>CALL     2311<<ASSIGN   2312<>CALL     2313<<ASSIGN
      2314<>CALL     2321<<CALLBLT  2322<>CALL     2323<<ASSIGN   2324<>CALL     2328<<ASSIGN   2329<>CALL
      2332<<ASSIGN   2333<>CALL     2334<<ASSIGN   2335<>CALL     2338<<ASSIGN   2339<>CALL     2340<<ASSIGN
      2341<>CALL     2344<<ASSIGN   2345<>CALL     2346<<ASSIGN   2347<>CALL     2356<<ASSIGN   2357<>CALL
      2358<<ASSIGN   2359<>CALL     2360<<ASSIGN   2361<>CALL     2378<<ASSIGN   2380<<ASSIGN   2381<>CALL
      2398<<CALLBLT  2399<>CALL     2426<<ASSIGN   2427<>CALL     2430<<ASSIGN   2442<<CALLBLT  2443<>CALL
      2444<<ASSIGN   2447<<ASSIGN   2448<>CALL     2468<<CALLBLT  2469<>CALL     2474<<ASSIGN   2475<<CALLBLT
      2476<>CALL     2478<<ASSIGN   2481<<ASSIGN   2482<>CALL     2528<<CALLBLT  2529<>CALL     2534<<ASSIGN
      2535<<CALLBLT  2536<>CALL     2538<<ASSIGN   2543<<CALLBLT  2544<>CALL     2545<<ASSIGN   2548<<CALLBLT
      2549<>CALL     2550<<ASSIGN   2551<>CALL     2564<<ASSIGN   2567<<ASSIGN   2570<<ASSIGN   2573<<ASSIGN
      2576<<ASSIGN   2577<>CALL     2580<<ASSIGN   2581<>CALL     2584<>CALL     2631<<CALLBLT  2632<>CALL
      2637<<ASSIGN   2638<<CALLBLT  2639<>CALL     2641<<ASSIGN   2647<<CALLBLT  2648<>CALL     2649<<ASSIGN
      2652<<ASSIGN   2653<>CALL     2657<<ASSIGN   2662<<ASSIGN   2663<>CALL     2677<<CALLBLT  2678<>CALL
      2683<<ASSIGN   2684<<CALLBLT  2685<>CALL     2687<<ASSIGN   2692<<CALLBLT  2693<>CALL     2694<<ASSIGN
      2697<<ASSIGN   2698<>CALL     2699<<ASSIGN   2700<>CALL     2701<<ASSIGN   2702<>CALL     2703<<ASSIGN
      2704<>CALL     2706<<ASSIGN   2720<<CALLBLT  2721<>CALL     2722<<ASSIGN   2726<>CALL     2727<<ASSIGN
      2728<>CALL     2729<<ASSIGN   2730<>CALL     2732<<ASSIGN   2733<>CALL     2734<<ASSIGN   2735<>CALL
      2737<<ASSIGN   2745<<CALLBLT  2746<>CALL     2747<<ASSIGN   2752<>CALL     2753<<ASSIGN   2754<>CALL
      2756<<ASSIGN   2757<>CALL     2766<<ASSIGN   2767<>CALL     2768<<ASSIGN   2769<>CALL     2770<<CALLBLT
      2771<>CALL
PROC_FND
      1816**DCL      2033<<ASSIGN   2068>>IF       2075<<ASSIGN   2185>>IF       2191<<ASSIGN
PROC_TYP
      1811**DCL      2039<<ASSIGN   2051<<ASSIGN   2051>>ASSIGN   2052>>IF       2059<<ASSIGN   2059>>ASSIGN
      2060>>IF       2081>>IF       2085>>IF       2086>>IF       2087>>IF
QTE
      2774**PROC     1831--CALL     1858--CALL     1883--CALL     1907--CALL     1912--CALL     1939--CALL
      1956--CALL     1986--CALL     2013--CALL     2022--CALL     2043--CALL     2102--CALL     2114--CALL
      2146--CALL     2197--CALL     2209--CALL     2240--CALL     2281--CALL     2288--CALL     2320--CALL
      2397--CALL     2428--CALL     2441--CALL     2467--CALL     2473--CALL     2527--CALL     2533--CALL
      2542--CALL     2629--CALL     2636--CALL     2645--CALL     2676--CALL     2682--CALL     2691--CALL
      2719--CALL     2744--CALL
SEL_BY_APPL
      2548**LABEL    2509--GOTO
PL6.E3A0      #001=DDY7 File=ZIG$DDY7.:ZIC0TSI                                   FRI 09/05/97 11:55 Page:205
SEL_CF_A
      2516**LABEL    2511--GOTO
SEL_CF_B
      2519**LABEL    2516--GOTO
SEL_CK_SM
      2486**LABEL    2417--CALLALT  2419--CALLALT
SEL_CK_TYP
      2513**LABEL    2510--CALLALT
SEL_DIR_FR
      2541**LABEL    2523--GOTO
SEL_NXT_CF
      2509**LABEL    2494--GOTO     2517--GOTO     2539--GOTO     2546--GOTO
SEL_NXT_RAN
      2489**LABEL    2431--GOTO     2433--GOTO     2449--GOTO     2452--GOTO     2484--GOTO
SEL_OWN_B
      2525**LABEL    2522--GOTO
SEL_OWN_C
      2538**LABEL    2532--GOTO
SEL_RAN_1
      2491**LABEL    2500--GOTO     2507--GOTO
SEL_RAN_A
      2497**LABEL    2492--GOTO
SEL_RAN_B
      2500**LABEL    2503--GOTO
SEL_STR_ACDR
      2505**LABEL    2501--GOTO
SEL_TBL
      2411**LABEL    2404--GOTO
SEL_TBL_END
      2553**LABEL    2486--GOTO
SEL_TST_RC
      2494**LABEL    2491--CALLALT
SET_STR1
      2269**LABEL    2271--GOTO     2275--GOTO     2297--GOTO
SET_STR2
      2300**LABEL    2259--GOTO     2269--CALLALT
PL6.E3A0      #001=DDY7 File=ZIG$DDY7.:ZIC0TSI                                   FRI 09/05/97 11:55 Page:206
SET_STR_ANAL
      2258**LABEL    2172--GOTO
SI_A1
      2564**LABEL    2556--GOTO
SI_A10
      2605**LABEL    2582--GOTO
SI_A2
      2567**LABEL    2557--GOTO
SI_A3
      2570**LABEL    2558--GOTO
SI_A4
      2573**LABEL    2559--GOTO
SI_A5
      2576**LABEL    2560--GOTO
SI_A6
      2580**LABEL    2561--GOTO
SI_A7
      2584**LABEL    2565--GOTO     2568--GOTO     2571--GOTO     2574--GOTO
SI_A8
      2587**LABEL    2578--GOTO
SI_A9
      2600**LABEL    2593--GOTO     2596--GOTO
SI_CF2
      2613**LABEL    2603--GOTO
SI_CF_3
      2616**LABEL    2613--GOTO
SI_CF_5
      2621**LABEL    2616--GOTO
SI_CF_OWN
      2623**LABEL    2619--GOTO
SI_CK_TYP
      2611**LABEL    2602--CALLALT
SI_DIR_FR
      2644**LABEL    2625--GOTO
SI_NXT_CF1
      2602**LABEL    2614--GOTO     2642--GOTO     2650--GOTO
PL6.E3A0      #001=DDY7 File=ZIG$DDY7.:ZIC0TSI                                   FRI 09/05/97 11:55 Page:207
SI_OWN_1
      2627**LABEL    2624--GOTO
SI_OWN_2
      2641**LABEL    2635--GOTO
SI_SEQ_FST
      2592**LABEL    2587--GOTO     2606--GOTO
SI_SEQ_LST
      2595**LABEL    2588--GOTO     2607--GOTO
SI_SEQ_NA
      2598**LABEL    2589--GOTO     2608--GOTO
SMA_B5
      2437**LABEL    2438--GOTO     2445--GOTO
SMA_B5_STAT
      2447**LABEL    2437--CALLALT
SMA_D5_AG
      2460**LABEL    2463--GOTO     2479--GOTO
SMA_D5_C
      2465**LABEL    2461--GOTO     2462--GOTO
SMA_D5_D
      2478**LABEL    2472--GOTO
SMA_D5_PN
      2458**LABEL    2455--GOTO
SMA_D5_STAT
      2481**LABEL    2460--CALLALT
SMA_DBP
      2452**LABEL    2435--GOTO
SMTYPE
      1789**DCL      2350<<ASSIGN   2355<<ASSIGN   2377>>IF       2383>>IF       2386>>IF
SSA_3A
      2344**LABEL    2337--GOTO
SSA_3B
      2353**LABEL    2383--GOTO
SSA_CK_A
      2376**LABEL    2373--GOTO
SSA_CK_A1
      2383**LABEL    2376--GOTO
PL6.E3A0      #001=DDY7 File=ZIG$DDY7.:ZIC0TSI                                   FRI 09/05/97 11:55 Page:208
SSA_CK_STAT
      2373**LABEL    2368--CALLALT
SSA_NXT_SM
      2365**LABEL    2655--GOTO     2664--GOTO
SSA_NXT_SM1
      2368**LABEL    2351--GOTO     2363--GOTO     2369--GOTO     2387--GOTO     2391--GOTO     2395--GOTO
SSA_NXT_SS
      2389**LABEL    2386--GOTO
SSA_SA
      2406**LABEL    2403--GOTO
SSA_SET_FND
      1802**DCL      2349<<ASSIGN   2354<<ASSIGN   2376>>IF       2396<<ASSIGN
SSA_SM_A
      2386**LABEL    2371--GOTO
SSA_TBL_SSREF
      2402**LABEL    2409--GOTO
SSREFTBL
      1788**DCL      1846<<ASSIGN   2402<<ASSIGN   2414<>CALL
SUBHD
      1797**DCL-ENT  1827--CALL
SUBMESS
      1825**DCL      1827<>CALL     1827--CALL
SUBSCHEMA_KEY
      1390**DCL      1391--REDEF
TACX
      1792**DCL      1845<<ASSIGN   2501>>IF       2505>>ASSIGN   2506<<ASSIGN   2506>>ASSIGN   2749>>IF
TSSX
      1787**DCL      1844<<ASSIGN   2348<<ASSIGN   2353<<ASSIGN   2365<<ASSIGN   2402>>ASSIGN   2406<<ASSIGN
      2406>>ASSIGN   2412>>DOINDEX  2413>>ASSIGN
UWA.AC.CALC_NEXT
      1561**DCL      1562--REDEF
UWA.AC.CALC_PRIOR
      1570**DCL      1571--REDEF
UWA.AC.DEFAULTS
      1522**DCL      1523--REDEF
UWA.AC.FILE_CODE
PL6.E3A0      #001=DDY7 File=ZIG$DDY7.:ZIC0TSI                                   FRI 09/05/97 11:55 Page:209
      1527**DCL      1528--REDEF
UWA.AC.FLAG1.ERROR_TYPE
      1524**DCL      1525--REDEF
UWA.AG.AG_SE
      1701**DCL      2011<>CALL     2111<>CALL     2142<>CALL     2206<>CALL     2237<>CALL     2465<>CALL
UWA.AG.ATYPE
      1700**DCL      2005>>IF       2006>>IF       2007>>IF       2008>>IF       2014>>IF       2014>>IF
      2107>>IF       2108>>IF       2138>>IF       2139>>IF       2202>>IF       2203>>IF       2233>>IF
      2234>>IF       2461>>IF       2462>>IF
UWA.C_F.CTRLSEQ
      1659**DCL      2616>>IF
UWA.C_F.CTRLTYPE
      1657**DCL      1934>>IF       2516>>IF       2613>>IF       2667>>IF
UWA.DA.FRST_RC
      1670**DCL      1837<>CALL
UWA.DB_STATUS
      1453**DCL      1891>>IF       1946>>IF       1992>>IF       2030>>IF       2078>>IF       2120>>IF
      2152>>IF       2171>>IF       2182>>IF       2215>>IF       2246>>IF       2373>>IF       2449>>IF
      2483>>IF       2486>>IF       2494>>IF       2513>>IF       2611>>IF       2664>>IF       2713>>IF
      2761>>IF       2770>>CALLBLT
UWA.DIRECT_REF
      1462**DCL      1854>>ASSIGN   1869>>ASSIGN   1880>>ASSIGN   2041>>ASSIGN   2054>>ASSIGN   2062>>ASSIGN
      2066>>ASSIGN   2195>>ASSIGN   2370>>ASSIGN   2402>>ASSIGN   2421>>ASSIGN   2424>>ASSIGN   2500>>IF
      2505>>ASSIGN
UWA.FR.FR_FRH
      1632**DCL      1881<>CALL     1984<>CALL     2439<>CALL     2525<>CALL     2627<>CALL     2674<>CALL
UWA.FR.F_USE
      1625**DCL      1879>>IF       1982>>IF       2438>>IF
UWA.FR.SYN
      1616**DCL      2522>>IF       2624>>IF       2671>>IF
UWA.PN.PNAME
      1686**DCL      2002>>CALLBLT  2102<>CALL     2197<>CALL
UWA.PT.PTYPE
      1697**DCL      1998>>IF       2047>>IF       2048>>IF       2179>>IF       2455>>IF
UWA.RC.CALCDUP
      1587**DCL      1922>>IF
PL6.E3A0      #001=DDY7 File=ZIG$DDY7.:ZIC0TSI                                   FRI 09/05/97 11:55 Page:210
UWA.RC.KEY_PRESENT
      1589**DCL      2258>>IF
UWA.RC.PSMODE
      1581**DCL      1870>>IF       1871>>IF       1872>>IF       1873>>IF       2433>>IF
UWA.RC.SM
      1585**DCL      2337>>IF
UWA.RC.SO
      1584**DCL      2310>>IF
UWA.RC.WITHINA
      1583**DCL      1969>>IF       1971>>IF       1972>>IF       2435>>IF       2452>>IF
UWA.RECORD_NAME
      1459**DCL      1898>>IF       1930>>IF       1951>>IF       2270>>IF       2317>>IF       2369>>IF
UWA.SC.SEQDUP
      1605**DCL      2292>>IF       2587>>IF       2588>>IF       2589>>IF
UWA.SC.SETORD
      1599**DCL      2556>>IF       2557>>IF       2558>>IF       2559>>IF       2560>>IF       2561>>IF
UWA.SC.SETTYPE
      1597**DCL      1902>>IF       2274>>IF       2394>>IF       2394>>IF
UWA.SF.DBKEY_DA
      1472**DCL      1836<>CALL
UWA.SF.DBKEY_OA
      1471**DCL      1829<>CALL
UWA.SM.INSTYPE
      1638**DCL      2386>>IF
UWA.SM.MEMDUP
      1640**DCL      2655>>IF
UWA.SM.PSMODE
      1644**DCL      1931>>IF       1952>>IF
UWA.SM.SEQDUP
      1641**DCL      2606>>IF       2607>>IF       2608>>IF
UWA.SN.SENAME
      1680**DCL      1831<>CALL     1853>>IF       1858<>CALL     1883<>CALL     1907<>CALL     1912<>CALL
      1939<>CALL     1956<>CALL     1986<>CALL     2013<>CALL     2021>>IF       2022<>CALL     2043<>CALL
      2114<>CALL     2146<>CALL     2209<>CALL     2240<>CALL     2281<>CALL     2288<>CALL     2320<>CALL
      2391>>IF       2397<>CALL     2428<>CALL     2441<>CALL     2467<>CALL     2472>>IF       2473<>CALL
      2527<>CALL     2532>>IF       2533<>CALL     2542<>CALL     2629<>CALL     2635>>IF       2636<>CALL
PL6.E3A0      #001=DDY7 File=ZIG$DDY7.:ZIC0TSI                                   FRI 09/05/97 11:55 Page:211
      2645<>CALL     2676<>CALL     2681>>IF       2682<>CALL     2691<>CALL     2719<>CALL     2744<>CALL
UWA.SN.SETYPE
      1677**DCL      1850>>IF
UWA.S_S.SC_SSH
      1652**DCL      2420<>CALL
UWA.S_S.SOSM_SSH
      1653**DCL      2407<>CALL
UWA.S_S.STYP
      1651**DCL      2403>>IF       2415>>IF       2418>>IF       2509>>IF
VIA_MODE
      1950**LABEL    1872--GOTO     1951--GOTO     1952--GOTO
WITHIN_PROC
      1966**LABEL    1891--GOTO     1897--CALLALT  1909--CALLALT  1946--GOTO
WMA_APPL
      1979**LABEL    1971--GOTO
WMA_B5
      1981**LABEL    1982--GOTO     1990--GOTO
WMA_B5_STAT
      1992**LABEL    1981--CALLALT
WMA_DBP
      1995**LABEL    1972--GOTO
WSA
      1975**LABEL    1969--GOTO
X
      1791**DCL      1842<<ASSIGN   2413<<ASSIGN   2414>>CALL
Y
      1793**DCL      1843<<ASSIGN   2498<<ASSIGN   2500>>IF       2501>>IF       2502<<ASSIGN   2502>>ASSIGN
      2738<<ASSIGN   2739>>IF       2741>>CALL     2748<<ASSIGN   2748>>ASSIGN   2749>>IF
