
PL6.E3A0      #001=ZIG$DECOMP File=ZIG$DECOMP.:ZIC0TSI                           FRI 09/05/97 11:56 Page:1
        1        1        /*M*     ZIG$DECOMP     I-D-S/II  DBACS */
        2        2        /*T***********************************************************/
        3        3        /*T*                                                         */
        4        4        /*T* Copyright (c) Bull HN Information Systems Inc., 1997    */
        5        5        /*T*                                                         */
        6        6        /*T***********************************************************/
        7        7        /*P*
        8        8        NAME:    ZIG$DECOMP
        9        9        PURPOSE: TO DECOMPRESS RECORDS THE HAVE BEEN COMPRESSED BY THE OLD
       10       10                 GCOS COMPRESSOR OR THE NEW COMPRESSOR IN ZIG$COMP.
       11       11                 IT IS CALLED BY ZIG$DDX7 (DISP).
       12       12        */
       13       13        ZIG$DECOMP:
       14       14            PROC (REC,TYPE,DONE);
       15       15    1   DCL REC CHAR (80);
       16       16    1   DCL TYPE CHAR (8);
       17       17    1   DCL DONE UBIN (36);
       18       18    1   DCL I UBIN (36) STATIC INIT (0);
       19       19    1   DCL INIT1 BIT (1) STATIC INIT ('1'B);
       20       20    1   DCL DONT_HAVE_LINE BIT (1);
       21       21    1   DCL P PTR STATIC;
       22       22    1   DCL 1 STRUC_OUT BASED (P),
       23       23    1         2 BLANK_COUNT UBIN (9) UNAL,
       24       24    1         2 CHAR_COUNT UBIN (9) UNAL,
       25       25    1         2 STRING CHAR (80) UNAL;
       26       26    1   DCL CONTINUE BIT (1) STATIC;
       27       27    1   DCL POS UBIN (36) STATIC;
       28       28    1   DCL LEFT UBIN (36) STATIC;
       29       29    1   DCL STORE_REC CHAR (160) STATIC;
       30       30    1   DCL FLAG UBIN (36) STATIC;
       31       31        %EJECT;
PL6.E3A0      #001=ZIG$DECOMP File=ZIG$DECOMP.:ZIC0TSI                           FRI 09/05/97 11:56 Page:2
       32       32         %INCLUDE ZIG_DBA_INT;
       33       80         %INCLUDE ZI_SUB4_CAN;
       34      737         %UWA;
       35     1072         %INCLUDE ZIG_GENERAL;
       36     1180         %INCLUDE ZIG_DIR_STRUCS;
       37     1310        %EJECT;
PL6.E3A0      #001=ZIG$DECOMP File=ZIG$DECOMP.:ZIC0TSI                           FRI 09/05/97 11:56 Page:3
       38     1311    1       CONTINUE='0'B;
       39     1312    1       DONT_HAVE_LINE='1'B;
       40     1313    1       DONE=0;
       41     1314    1       POS=0;
       42     1315    1       LEFT=0;
       43     1316    1       FLAG = 0;
       44     1317    1       REC=' ';
       45     1318    1       IF INIT1
       46     1319    2       THEN DO;
       47     1320    2           CALL FETCHNS_6(TYPE);
       48     1321    2           IF TYPE = 'SA-DD   '
       49     1322    2           THEN STORE_REC=UWA.DD.DD_TXT_LINE;
       50     1323    2           ELSE STORE_REC=UWA.DM.DMCL_TXT_LINE;
       51     1324    2           INIT1 = '0'B;
       52     1325    2           I=0;
       53     1326    2           END;
       54     1327    2       DO WHILE (DONT_HAVE_LINE);
       55     1328    2           IF I>=79
       56     1329    3           THEN DO;
       57     1330    3               CALL FETCHNS_6(TYPE);
       58     1331    3               IF TYPE='SA-DD   '
       59     1332    3               THEN STORE_REC=UWA.DD.DD_TXT_LINE;
       60     1333    3               ELSE STORE_REC=UWA.DM.DMCL_TXT_LINE;
       61     1334    3               IF I=200
       62     1335    3               THEN I=0;
       63     1336    3               ELSE I=I-79;
       64     1337    3               END;
       65     1338    2           IF CONTINUE
       66     1339    3           THEN DO;
       67     1340    3               I=0;
       68     1341    3               IF FLAG = 1
       69     1342    4               THEN DO;
       70     1343    4                   I = 1;
       71     1344    4                   LEFT = LEFT - 1;
       72     1345    4                   END;
       73     1346    3               POS=POS-LEFT;
       74     1347    3               CALL INSERT(REC,POS,LEFT,SUBSTR(STORE_REC,I,LEFT));
PL6.E3A0      #001=ZIG$DECOMP File=ZIG$DECOMP.:ZIC0TSI                           FRI 09/05/97 11:56 Page:4
       75     1348    3               POS=POS+LEFT;
       76     1349    3               I=I+LEFT;
       77     1350    3               CONTINUE='0'B;
       78     1351    3               END;
       79     1352    2           P=PINCRC(ADDR(STORE_REC),I);
       80     1353    2           IF STRUC_OUT.BLANK_COUNT=126 /* End of text */
       81     1354    3           THEN DO;
       82     1355    3               DONE=1;
       83     1356    3               INIT1='1'B;
       84     1357    3               RETURN;
       85     1358    3               END;
       86     1359    2           IF STRUC_OUT.BLANK_COUNT =127 /* End of record */
       87     1360    3           THEN DO;
       88     1361    3               IF STRUC_OUT.CHAR_COUNT=0
       89     1362    3               THEN I=200;
       90     1363    3               ELSE I=I+1;
       91     1364    3               RETURN;
       92     1365    3               END;
       93     1366    2           POS=POS+STRUC_OUT.BLANK_COUNT-STRUC_OUT.CHAR_COUNT;
       94     1367    2           CALL INSERT(REC,POS,STRUC_OUT.CHAR_COUNT,
       95     1368    2              SUBSTR(STRUC_OUT.STRING,0,STRUC_OUT.CHAR_COUNT));
       96     1369    2           IF I = 78
       97     1370    2           THEN FLAG = 1;
       98     1371    2           ELSE FLAG = 0;
       99     1372    2           I=I+2+STRUC_OUT.CHAR_COUNT;
      100     1373    2           POS=POS+STRUC_OUT.CHAR_COUNT;
      101     1374    2           IF I>=79
      102     1375    3           THEN DO;
      103     1376    3               LEFT=I-79;
      104     1377    3               CONTINUE='1'B;
      105     1378    3               END;
      106     1379    2           END;
      107     1380    1   END ZIG$DECOMP;

PL6.E3A0      #001=ZIG$DECOMP File=ZIG$DECOMP.:ZIC0TSI                           FRI 09/05/97 11:56 Page:5
--  Include file information  --

   ZIG_DIR_STRUCS.:ZIC0TOU  cannot be made into a system file and is referenced.
   ZIG_GENERAL.:ZIC0TOU  cannot be made into a system file and is referenced.
   ZI_SUB4_CAN.:ZIC0TOU  is referenced.
   ZIG_DBA_INT.:ZIC0TOU  cannot be made into a system file and is referenced.
   B$JIT_C.:E05TOU  was found in the system file and is never referenced.
   CP_6_C.:E05TOU  was found in the system file and is never referenced.
      No diagnostics issued in procedure ZIG$DECOMP.

   Procedure ZIG$DECOMP requires 176 words for executable code.
   Procedure ZIG$DECOMP requires 10 words of local(AUTO) storage.

    No errors detected in file ZIG$DECOMP.:ZIC0TSI    .

PL6.E3A0      #001=ZIG$DECOMP File=ZIG$DECOMP.:ZIC0TSI                           FRI 09/05/97 11:56 Page:6

 Object Unit name= ZIG$DECOMP                                 File name= ZIG$DECOMP.:ZIC0TOU
 UTS= SEP 05 '97 11:56:32.04 FRI                              Compiler= PL-6/E31         Sev=      00
 SharedLib= :SHARED_SYSTEM                                    Alt SharedLib=


    ****  Control sections  ****

 Sect   Type Bound  Init  Size OctSiz  Section name(segment info)
    0   Data  even  none    47     57  ZIG$DECOMP
    1  LblCom even  none   656   1220  UWA
    2  LblCom even  none     1      1  NUM_ERROR_MSG
    3  LblCom even  none     1      1  NUM_WARN_MSG
    4  LblCom even  none     1      1  ALLOCATE_END
    5  LblCom even  none     2      2  SUBSCHEMA_KEY
    6  LblCom even  none     1      1  BUFFER$
    7  LblCom even  none     1      1  ERROR_IO
    8  LblCom even  none     1      1  BUFFER_LEN
    9  LblCom even  none     2      2  UWA_KEY
   10  LblCom even  none     1      1  NEXT_UWA_SECOND_HALF
   11  LblCom even  none     2      2  RVA_KEY
   12  LblCom even  none     2      2  IA__KEY
   13  LblCom even  none     1      1  NEXT_RVA_SECOND_HALF
   14  LblCom even  none    32     40  SEARCHR_NB
   15  LblCom even  none    32     40  SEM_COM
   16  LblCom even  none    32     40  DMCL_XLATE
   17  LblCom even  none    32     40  Q2_PERCENT
   18  LblCom even  none    12     14  ANALS
   19  LblCom even  none    13     15  PURGE
   20  LblCom even  none    19     23  DICTS
   21  LblCom even  none    23     27  DISPS
   22  LblCom even  none    22     26  VALIDS
   23  LblCom even  none    12     14  LOCKS
   24  LblCom even  none    10     12  STRAN
   25  LblCom even  none    12     14  DTRAN
   26  LblCom even  none    16     20  SSTRANS
   27  LblCom even  none    20     24  SSGEN
   28  RoData even  UTS      2      2  ZIG$DECOMP
PL6.E3A0      #001=ZIG$DECOMP File=ZIG$DECOMP.:ZIC0TSI                           FRI 09/05/97 11:56 Page:7
   29   Proc  even  none   176    260  ZIG$DECOMP
   30  RoData even  none     3      3  ZIG$DECOMP

    ****  Entry defs  ****

                              Check   Calling
                             calling  sequence
  Sect OctLoc Primary Altret sequence   type   Parms  Name
    29      0   yes            yes      Std        3  ZIG$DECOMP

  ****  Entry refs  ****

         Check        Calling
        calling       sequence
Altret sequence SRef   type   Args  Name
 yes     yes           Std       1 FETCHNS_6
                       nStd      0 X66_AUTO_3
                       nStd      0 X66_ARET

  ****  Segment refs  ****

  Flags:  r = read only, s = secondary
Flgs Name                             Flgs Name                             Flgs Name
     ISSID
PL6.E3A0      #001=ZIG$DECOMP File=ZIG$DECOMP.:ZIC0TSI                           FRI 09/05/97 11:56 Page:8


        1        1        /*M*     ZIG$DECOMP     I-D-S/II  DBACS */
        2        2        /*T***********************************************************/
        3        3        /*T*                                                         */
        4        4        /*T* Copyright (c) Bull HN Information Systems Inc., 1997    */
        5        5        /*T*                                                         */
        6        6        /*T***********************************************************/
        7        7        /*P*
        8        8        NAME:    ZIG$DECOMP
        9        9        PURPOSE: TO DECOMPRESS RECORDS THE HAVE BEEN COMPRESSED BY THE OLD
       10       10                 GCOS COMPRESSOR OR THE NEW COMPRESSOR IN ZIG$COMP.
       11       11                 IT IS CALLED BY ZIG$DDX7 (DISP).
       12       12        */
       13       13        ZIG$DECOMP:
       14       14            PROC (REC,TYPE,DONE);

     14 29 000000   000000 700200 xent  ZIG$DECOMP   TSX0  ! X66_AUTO_3
        29 000001   000012 000003                    ZERO    10,3

       15       15    1   DCL REC CHAR (80);
       16       16    1   DCL TYPE CHAR (8);
       17       17    1   DCL DONE UBIN (36);
       18       18    1   DCL I UBIN (36) STATIC INIT (0);
       19       19    1   DCL INIT1 BIT (1) STATIC INIT ('1'B);
       20       20    1   DCL DONT_HAVE_LINE BIT (1);
       21       21    1   DCL P PTR STATIC;
       22       22    1   DCL 1 STRUC_OUT BASED (P),
       23       23    1         2 BLANK_COUNT UBIN (9) UNAL,
       24       24    1         2 CHAR_COUNT UBIN (9) UNAL,
       25       25    1         2 STRING CHAR (80) UNAL;
       26       26    1   DCL CONTINUE BIT (1) STATIC;
       27       27    1   DCL POS UBIN (36) STATIC;
       28       28    1   DCL LEFT UBIN (36) STATIC;
       29       29    1   DCL STORE_REC CHAR (160) STATIC;
       30       30    1   DCL FLAG UBIN (36) STATIC;
       31       31        %EJECT;
PL6.E3A0      #001=ZIG$DECOMP File=ZIG$DECOMP.:ZIC0TSI                           FRI 09/05/97 11:56 Page:9
       32       32         %INCLUDE ZIG_DBA_INT;
       33       80         %INCLUDE ZI_SUB4_CAN;
       34      737         %UWA;
       35     1072         %INCLUDE ZIG_GENERAL;
       36     1180         %INCLUDE ZIG_DIR_STRUCS;
       37     1310        %EJECT;
PL6.E3A0      #001=ZIG$DECOMP File=ZIG$DECOMP.:ZIC0TSI                           FRI 09/05/97 11:56 Page:10
       38     1311    1       CONTINUE='0'B;

   1311 29 000002   000003 450000 0                  STZ     CONTINUE

       39     1312    1       DONT_HAVE_LINE='1'B;

   1312 29 000003   400000 236003                    LDQ     -131072,DU
        29 000004   200006 756100                    STQ     DONT_HAVE_LINE,,AUTO

       40     1313    1       DONE=0;

   1313 29 000005   200005 470500                    LDP0    @DONE,,AUTO
        29 000006   000000 450100                    STZ     0,,PR0

       41     1314    1       POS=0;

   1314 29 000007   000004 450000 0                  STZ     POS

       42     1315    1       LEFT=0;

   1315 29 000010   000005 450000 0                  STZ     LEFT

       43     1316    1       FLAG = 0;

   1316 29 000011   000056 450000 0                  STZ     FLAG

       44     1317    1       REC=' ';

   1317 29 000012   200003 471500                    LDP1    @REC,,AUTO
        29 000013   040100 100400                    MLR     fill='040'O
        29 000014   000000 000001 30                 ADSC9   0                        cn=0,n=1
        29 000015   100000 000120                    ADSC9   0,,PR1                   cn=0,n=80

       45     1318    1       IF INIT1

   1318 29 000016   000001 234000 0                  SZN     INIT1
        29 000017   000042 605000 29                 TPL     s:1327
PL6.E3A0      #001=ZIG$DECOMP File=ZIG$DECOMP.:ZIC0TSI                           FRI 09/05/97 11:56 Page:11

       46     1319    2       THEN DO;

       47     1320    2           CALL FETCHNS_6(TYPE);

   1320 29 000020   200004 630500                    EPPR0   @TYPE,,AUTO
        29 000021   000001 631400 30                 EPPR1   1
        29 000022   000000 701000 xent               TSX1    FETCHNS_6
        29 000023   000000 011000                    NOP     0

       48     1321    2           IF TYPE = 'SA-DD   '

   1321 29 000024   200004 470500                    LDP0    @TYPE,,AUTO
        29 000025   040000 106500                    CMPC    fill='040'O
        29 000026   000000 000010                    ADSC9   0,,PR0                   cn=0,n=8
        29 000027   000000 000010 28                 ADSC9   0                        cn=0,n=8
        29 000030   000035 601000 29                 TNZ     s:1323

       49     1322    2           THEN STORE_REC=UWA.DD.DD_TXT_LINE;

   1322 29 000031   040000 100400                    MLR     fill='040'O
        29 000032   000524 000120 1                  ADSC9   UWA+340                  cn=0,n=80
        29 000033   000006 000240 0                  ADSC9   STORE_REC                cn=0,n=160
        29 000034   000040 710000 29                 TRA     s:1324

       50     1323    2           ELSE STORE_REC=UWA.DM.DMCL_TXT_LINE;

   1323 29 000035   040000 100400                    MLR     fill='040'O
        29 000036   000550 000120 1                  ADSC9   UWA+360                  cn=0,n=80
        29 000037   000006 000240 0                  ADSC9   STORE_REC                cn=0,n=160

       51     1324    2           INIT1 = '0'B;

   1324 29 000040   000001 450000 0                  STZ     INIT1

       52     1325    2           I=0;

PL6.E3A0      #001=ZIG$DECOMP File=ZIG$DECOMP.:ZIC0TSI                           FRI 09/05/97 11:56 Page:12
   1325 29 000041   000000 450000 0                  STZ     I

       53     1326    2           END;

       54     1327    2       DO WHILE (DONT_HAVE_LINE);

   1327 29 000042   200006 234100                    SZN     DONT_HAVE_LINE,,AUTO
        29 000043   000257 605000 29                 TPL     s:1380

       55     1328    2           IF I>=79

   1328 29 000044   000000 235000 0                  LDA     I
        29 000045   000117 115007                    CMPA    79,DL
        29 000046   000076 602000 29                 TNC     s:1338

       56     1329    3           THEN DO;

       57     1330    3               CALL FETCHNS_6(TYPE);

   1330 29 000047   200004 630500                    EPPR0   @TYPE,,AUTO
        29 000050   000001 631400 30                 EPPR1   1
        29 000051   000000 701000 xent               TSX1    FETCHNS_6
        29 000052   000000 011000                    NOP     0

       58     1331    3               IF TYPE='SA-DD   '

   1331 29 000053   200004 470500                    LDP0    @TYPE,,AUTO
        29 000054   040000 106500                    CMPC    fill='040'O
        29 000055   000000 000010                    ADSC9   0,,PR0                   cn=0,n=8
        29 000056   000000 000010 28                 ADSC9   0                        cn=0,n=8
        29 000057   000064 601000 29                 TNZ     s:1333

       59     1332    3               THEN STORE_REC=UWA.DD.DD_TXT_LINE;

   1332 29 000060   040000 100400                    MLR     fill='040'O
        29 000061   000524 000120 1                  ADSC9   UWA+340                  cn=0,n=80
        29 000062   000006 000240 0                  ADSC9   STORE_REC                cn=0,n=160
PL6.E3A0      #001=ZIG$DECOMP File=ZIG$DECOMP.:ZIC0TSI                           FRI 09/05/97 11:56 Page:13
        29 000063   000067 710000 29                 TRA     s:1334

       60     1333    3               ELSE STORE_REC=UWA.DM.DMCL_TXT_LINE;

   1333 29 000064   040000 100400                    MLR     fill='040'O
        29 000065   000550 000120 1                  ADSC9   UWA+360                  cn=0,n=80
        29 000066   000006 000240 0                  ADSC9   STORE_REC                cn=0,n=160

       61     1334    3               IF I=200

   1334 29 000067   000000 235000 0                  LDA     I
        29 000070   000310 115007                    CMPA    200,DL
        29 000071   000074 601000 29                 TNZ     s:1336

       62     1335    3               THEN I=0;

   1335 29 000072   000000 450000 0                  STZ     I
        29 000073   000076 710000 29                 TRA     s:1338

       63     1336    3               ELSE I=I-79;

   1336 29 000074   000117 135007                    SBLA    79,DL
        29 000075   000000 755000 0                  STA     I

       64     1337    3               END;

       65     1338    2           IF CONTINUE

   1338 29 000076   000003 234000 0                  SZN     CONTINUE
        29 000077   000130 605000 29                 TPL     s:1352

       66     1339    3           THEN DO;

       67     1340    3               I=0;

   1340 29 000100   000000 450000 0                  STZ     I

PL6.E3A0      #001=ZIG$DECOMP File=ZIG$DECOMP.:ZIC0TSI                           FRI 09/05/97 11:56 Page:14
       68     1341    3               IF FLAG = 1

   1341 29 000101   000056 235000 0                  LDA     FLAG
        29 000102   000001 115007                    CMPA    1,DL
        29 000103   000111 601000 29                 TNZ     s:1346

       69     1342    4               THEN DO;

       70     1343    4                   I = 1;

   1343 29 000104   000001 236007                    LDQ     1,DL
        29 000105   000000 756000 0                  STQ     I

       71     1344    4                   LEFT = LEFT - 1;

   1344 29 000106   000005 235000 0                  LDA     LEFT
        29 000107   000001 135007                    SBLA    1,DL
        29 000110   000005 755000 0                  STA     LEFT

       72     1345    4                   END;

       73     1346    3               POS=POS-LEFT;

   1346 29 000111   000004 236000 0                  LDQ     POS
        29 000112   000005 136000 0                  SBLQ    LEFT
        29 000113   000004 756000 0                  STQ     POS

       74     1347    3               CALL INSERT(REC,POS,LEFT,SUBSTR(STORE_REC,I,LEFT));

   1347 29 000114   000005 720000 0                  LXL0    LEFT
        29 000115   000000 235000 0                  LDA     I
        29 000116   200003 470500                    LDP0    @REC,,AUTO
        29 000117   040146 100445                    MLR     fill='040'O
        29 000120   000006 000010 0                  ADSC9   STORE_REC,A              cn=0,n=*X0
        29 000121   000000 000010                    ADSC9   0,Q,PR0                  cn=0,n=*X0

       75     1348    3               POS=POS+LEFT;
PL6.E3A0      #001=ZIG$DECOMP File=ZIG$DECOMP.:ZIC0TSI                           FRI 09/05/97 11:56 Page:15

   1348 29 000122   000005 036000 0                  ADLQ    LEFT
        29 000123   000004 756000 0                  STQ     POS

       76     1349    3               I=I+LEFT;

   1349 29 000124   000000 236000 0                  LDQ     I
        29 000125   000005 036000 0                  ADLQ    LEFT
        29 000126   000000 756000 0                  STQ     I

       77     1350    3               CONTINUE='0'B;

   1350 29 000127   000003 450000 0                  STZ     CONTINUE

       78     1351    3               END;

       79     1352    2           P=PINCRC(ADDR(STORE_REC),I);

   1352 29 000130   000000 236000 0                  LDQ     I
        29 000131   000020 736000                    QLS     16
        29 000132   000002 036000 30                 ADLQ    2
        29 000133   000002 756000 0                  STQ     P

       80     1353    2           IF STRUC_OUT.BLANK_COUNT=126 /* End of text */

   1353 29 000134   000002 470400 0                  LDP0    P
        29 000135   000100 101500                    MRL     fill='000'O
        29 000136   000000 000001                    ADSC9   0,,PR0                   cn=0,n=1
        29 000137   200010 000004                    ADSC9   DONT_HAVE_LINE+2,,AUTO   cn=0,n=4
        29 000140   200010 236100                    LDQ     DONT_HAVE_LINE+2,,AUTO
        29 000141   000176 116007                    CMPQ    126,DL
        29 000142   000151 601000 29                 TNZ     s:1359

       81     1354    3           THEN DO;

       82     1355    3               DONE=1;

PL6.E3A0      #001=ZIG$DECOMP File=ZIG$DECOMP.:ZIC0TSI                           FRI 09/05/97 11:56 Page:16
   1355 29 000143   000001 235007                    LDA     1,DL
        29 000144   200005 471500                    LDP1    @DONE,,AUTO
        29 000145   100000 755100                    STA     0,,PR1

       83     1356    3               INIT1='1'B;

   1356 29 000146   400000 236003                    LDQ     -131072,DU
        29 000147   000001 756000 0                  STQ     INIT1

       84     1357    3               RETURN;

   1357 29 000150   000000 702200 xent               TSX2  ! X66_ARET

       85     1358    3               END;
       86     1359    2           IF STRUC_OUT.BLANK_COUNT =127 /* End of record */

   1359 29 000151   000100 101500                    MRL     fill='000'O
        29 000152   000000 000001                    ADSC9   0,,PR0                   cn=0,n=1
        29 000153   200010 000004                    ADSC9   DONT_HAVE_LINE+2,,AUTO   cn=0,n=4
        29 000154   200010 236100                    LDQ     DONT_HAVE_LINE+2,,AUTO
        29 000155   000177 116007                    CMPQ    127,DL
        29 000156   000174 601000 29                 TNZ     s:1366

       87     1360    3           THEN DO;

       88     1361    3               IF STRUC_OUT.CHAR_COUNT=0

   1361 29 000157   000100 101500                    MRL     fill='000'O
        29 000160   000000 200001                    ADSC9   0,,PR0                   cn=1,n=1
        29 000161   200010 000004                    ADSC9   DONT_HAVE_LINE+2,,AUTO   cn=0,n=4
        29 000162   200010 236100                    LDQ     DONT_HAVE_LINE+2,,AUTO
        29 000163   000000 116003                    CMPQ    0,DU
        29 000164   000170 601000 29                 TNZ     s:1363

       89     1362    3               THEN I=200;

   1362 29 000165   000310 235007                    LDA     200,DL
PL6.E3A0      #001=ZIG$DECOMP File=ZIG$DECOMP.:ZIC0TSI                           FRI 09/05/97 11:56 Page:17
        29 000166   000000 755000 0                  STA     I
        29 000167   000173 710000 29                 TRA     s:1364

       90     1363    3               ELSE I=I+1;

   1363 29 000170   000000 235000 0                  LDA     I
        29 000171   000001 035007                    ADLA    1,DL
        29 000172   000000 755000 0                  STA     I

       91     1364    3               RETURN;

   1364 29 000173   000000 702200 xent               TSX2  ! X66_ARET

       92     1365    3               END;
       93     1366    2           POS=POS+STRUC_OUT.BLANK_COUNT-STRUC_OUT.CHAR_COUNT;

   1366 29 000174   000100 101500                    MRL     fill='000'O
        29 000175   000000 000001                    ADSC9   0,,PR0                   cn=0,n=1
        29 000176   200010 000004                    ADSC9   DONT_HAVE_LINE+2,,AUTO   cn=0,n=4
        29 000177   200010 236100                    LDQ     DONT_HAVE_LINE+2,,AUTO
        29 000200   000004 036000 0                  ADLQ    POS
        29 000201   000100 101500                    MRL     fill='000'O
        29 000202   000000 200001                    ADSC9   0,,PR0                   cn=1,n=1
        29 000203   200011 000004                    ADSC9   DONT_HAVE_LINE+3,,AUTO   cn=0,n=4
        29 000204   200011 136100                    SBLQ    DONT_HAVE_LINE+3,,AUTO
        29 000205   000004 756000 0                  STQ     POS

       94     1367    2           CALL INSERT(REC,POS,STRUC_OUT.CHAR_COUNT,

   1367 29 000206   000100 101500                    MRL     fill='000'O
        29 000207   000000 200001                    ADSC9   0,,PR0                   cn=1,n=1
        29 000210   200010 000002                    ADSC9   DONT_HAVE_LINE+2,,AUTO   cn=0,n=2
        29 000211   200010 220100                    LDX0    DONT_HAVE_LINE+2,,AUTO
        29 000212   000100 101500                    MRL     fill='000'O
        29 000213   000000 200001                    ADSC9   0,,PR0                   cn=1,n=1
        29 000214   200011 000002                    ADSC9   DONT_HAVE_LINE+3,,AUTO   cn=0,n=2
        29 000215   200011 221100                    LDX1    DONT_HAVE_LINE+3,,AUTO
PL6.E3A0      #001=ZIG$DECOMP File=ZIG$DECOMP.:ZIC0TSI                           FRI 09/05/97 11:56 Page:18
        29 000216   200003 471500                    LDP1    @REC,,AUTO
        29 000217   040146 100540                    MLR     fill='040'O
        29 000220   000000 400010                    ADSC9   0,,PR0                   cn=2,n=*X0
        29 000221   100000 000011                    ADSC9   0,Q,PR1                  cn=0,n=*X1

       95     1368    2              SUBSTR(STRUC_OUT.STRING,0,STRUC_OUT.CHAR_COUNT));
       96     1369    2           IF I = 78

   1369 29 000222   000000 235000 0                  LDA     I
        29 000223   000116 115007                    CMPA    78,DL
        29 000224   000230 601000 29                 TNZ     s:1371

       97     1370    2           THEN FLAG = 1;

   1370 29 000225   000001 235007                    LDA     1,DL
        29 000226   000056 755000 0                  STA     FLAG
        29 000227   000231 710000 29                 TRA     s:1372

       98     1371    2           ELSE FLAG = 0;

   1371 29 000230   000056 450000 0                  STZ     FLAG

       99     1372    2           I=I+2+STRUC_OUT.CHAR_COUNT;

   1372 29 000231   000100 101500                    MRL     fill='000'O
        29 000232   000000 200001                    ADSC9   0,,PR0                   cn=1,n=1
        29 000233   200010 000004                    ADSC9   DONT_HAVE_LINE+2,,AUTO   cn=0,n=4
        29 000234   200010 236100                    LDQ     DONT_HAVE_LINE+2,,AUTO
        29 000235   000000 036000 0                  ADLQ    I
        29 000236   000002 036007                    ADLQ    2,DL
        29 000237   000000 756000 0                  STQ     I

      100     1373    2           POS=POS+STRUC_OUT.CHAR_COUNT;

   1373 29 000240   000100 101500                    MRL     fill='000'O
        29 000241   000000 200001                    ADSC9   0,,PR0                   cn=1,n=1
        29 000242   200010 000004                    ADSC9   DONT_HAVE_LINE+2,,AUTO   cn=0,n=4
PL6.E3A0      #001=ZIG$DECOMP File=ZIG$DECOMP.:ZIC0TSI                           FRI 09/05/97 11:56 Page:19
        29 000243   200010 236100                    LDQ     DONT_HAVE_LINE+2,,AUTO
        29 000244   000004 036000 0                  ADLQ    POS
        29 000245   000004 756000 0                  STQ     POS

      101     1374    2           IF I>=79

   1374 29 000246   000000 235000 0                  LDA     I
        29 000247   000117 115007                    CMPA    79,DL
        29 000250   000255 602000 29                 TNC     s:1379

      102     1375    3           THEN DO;

      103     1376    3               LEFT=I-79;

   1376 29 000251   000117 135007                    SBLA    79,DL
        29 000252   000005 755000 0                  STA     LEFT

      104     1377    3               CONTINUE='1'B;

   1377 29 000253   400000 236003                    LDQ     -131072,DU
        29 000254   000003 756000 0                  STQ     CONTINUE

      105     1378    3               END;

      106     1379    2           END;

   1379 29 000255   200006 234100                    SZN     DONT_HAVE_LINE,,AUTO
        29 000256   000044 604000 29                 TMI     s:1328

      107     1380    1   END ZIG$DECOMP;

   1380 29 000257   000000 702200 xent               TSX2  ! X66_ARET

I
 Sect OctLoc
   0     000   000000 000000                                                    ....

PL6.E3A0      #001=ZIG$DECOMP File=ZIG$DECOMP.:ZIC0TSI                           FRI 09/05/97 11:56 Page:20
INIT1
 Sect OctLoc
   0     001   4***** ******                                                    ....

STORE_REC
 Sect OctLoc
   0     006   ****** ******   ****** ******   ****** ******   ****** ******    ................

UWA
 Sect OctLoc
   1     000   000000 000000   040040 040040   040040 040040   040040 040040    ....
   1     004   040040 040040   040040 040040   040040 040040   040040 040040
   1     010   040040 040040   040040 040040   040040 000000   040040 040040              ..
   1     014   040040 040040   040040 040040   040040 040040   040040 040040
   1     020   040040 040040   040040 040040   040040 000000   040040 040040              ..
   1     024   040040 040040   040040 040040   040040 040040   040040 040040
   1     030   040040 040040   040040 040040   040040 000000   040040 040040              ..
   1     034   040040 040040   040040 040040   000000 000000   040040 040040            ....
   1     040   040040 040040   040040 040040   040040 040040   040040 040040
   1     044   040040 040040   040040 040040   040040 000000   040040 040040              ..
   1     050   040040 040040   040040 040040   040040 040040   040040 040040
   1     054   040040 040040   040040 040040   040040 000000   000000 000000              ......
   1     060   040040 040040   040*** ******   000000 000000   000000 000000         ...........
   1     064   000000 000000   000000 000000   040040 040040   040040 040040    ........
   1     070   040040 040040   040040 040040   040040 040040   040040 040040
   1     100*  040040 ******   000000 000000   040040 040040   040040 040040      ......
   1     104   040040 040040   040040 040040   040040 040040   040040 040040
   1     124*  040040 040040   040040 040040   000000 000000   040040 040040            ....
   1     130   040040 040040   040040 040040   040040 040040   040040 040040
   1     134   040040 040040   040040 040040   040040 ******   000000 000000              ......
   1     140   040040 040040   040040 040040   040040 040040   040040 040040
   1     144   040040 040040   040040 040040   000000 000000   000000 000000            ........
   1     150   000000 000000   000000 000000   000000 000000   000000 000000    ................
   1     154   040040 040040   040040 040040   040040 040040   040040 040040
   1     160   040040 040040   040040 040040   040040 040040   040040 ******                  ..
   1     164   000000 000000   ****** ******   000000 000000   000000 000000    ................
   1     170   000000 000000   040040 040040   040040 040040   040040 040040    ....
PL6.E3A0      #001=ZIG$DECOMP File=ZIG$DECOMP.:ZIC0TSI                           FRI 09/05/97 11:56 Page:21
   1     174   040040 040040   040040 040040   040040 040040   040040 040040
   1     210*  040040 040040   040040 040040   040040 040040   ****** ******                ....
   1     214   000000 000000   000000 000000   000000 000000   000000 000000    ................
   1     224*  000000 000000   000000 000000   000000 000000   040040 ******    ............  ..
   1     230   000000 000000   ****** ******   000000 000000   040040 040040    ............
   1     234   000000 000000   000000 000000   000000 000000   000000 000000    ................
   1     264*  000000 000000   000000 000000   000000 000000   ****** ******    ................
   1     270   000000 000000   000000 000000   000000 000000   000000 000000    ................
   1     324*  000000 000000   ****** ******   000000 000000   000000 000000    ................
   1     330   000000 000000   000000 000000   000000 000000   000000 000000    ................
   1     350*  000000 000000   000000 000000   000000 000000   ****** ******    ................
   1     360*  000000 000000   000000 000000   000000 000000   000000 000000    ................
   1     404*  000000 000000   ****** ******   000000 000000   000000 000000    ................
   1     410   000000 000000   000000 000000   000000 000000   000000 000000    ................
   1     424*  000000 000000   000000 000000   000000 000000   040040 040040    ............
   1     430   040040 040040   040040 040040   040040 040040   040040 040040
   1     434   040040 040040   040040 040040   040040 ******   ****** ******              ......
   1     440   040040 040040   040040 040040   040040 040040   040040 040040
   1     450*  040040 040040   040040 040040   040040 ******   ****** ******              ......
   1     454   000000 000000   040040 040040   040040 040040   040040 040040    ....
   1     460   040040 040040   040040 040040   040040 040040   040040 040040
   1     464   040040 ******   ****** ******   000000 000000   000000 000000      ..............
   1     470   000000 000000   000000 000000   000000 000000   000000 000000    ................
   1     474   000000 000000   ****** ******   000000 000000   000000 000000    ................
   1     500   000000 000000   000000 000000   040040 040040   040040 040040    ........
   1     504   040040 040040   040040 040040   040040 040040   040040 040040
   1     520*  040040 040040   ****** ******   000000 000000   000000 000000        ............
   1     524   040040 040040   040040 040040   040040 040040   040040 040040
   1     574*  000000 000000   000000 000000   000000 000000   000000 000000    ................
   1     600   000000 000000   000000 000000   000000 000000   ****** ******    ................
   1     604   000000 000000   000000 000000   000000 000000   000000 000000    ................
   1     610   000000 000000   000000 000000   040040 040040   040040 040040    ........
   1     614   040040 040040   040040 040040   040040 040040   040040 040040
   1     620   040040 040040   040040 ******   040040 040040   040040 040040          ..
   1     624   040040 040040   040040 040040   040040 040040   040040 040040
   1     660*  040040 040040   040040 040040   040040 040040   ****** ******                ....
   1     664   040040 040040   040040 040040   040040 040040   040040 040040
PL6.E3A0      #001=ZIG$DECOMP File=ZIG$DECOMP.:ZIC0TSI                           FRI 09/05/97 11:56 Page:22
   1     674*  040040 040040   ****** ******   040040 040040   040040 040040        ....
   1     700   040040 040040   040040 040040   040040 040040   040040 040040
   1     710*  040040 040040   ****** ******   040040 040040   040040 040040        ....
   1     714   040040 040040   040040 040040   040040 040040   040040 040040
   1     720   040040 040040   040040 040040   040040 040040   ****** ******                ....
   1     724   040040 040040   040040 040040   040040 040040   040040 040040
   1     740*  040040 040040   ****** ******   040040 040040   040040 040040        ....
   1     744   040040 040040   040040 040040   040040 040040   040040 040040
   1     774*  040040 040040   ****** ******   040040 040040   040040 040040        ....
   1    1000   040040 040040   040040 040040   040040 040040   040040 040040
   1    1034*  040040 040040   ****** ******   040040 040040   040040 040040        ....
   1    1040   040040 040040   040040 040040   040040 040040   040040 040040
   1    1060*  040040 040040   ****** ******   040040 040040   040040 040040        ....
   1    1064   040040 040040   040040 040040   040040 040040   040040 040040
   1    1114*  040040 040040   ****** ******   040040 040040   040040 040040        ....
   1    1120   040040 040040   040040 040040   040040 040040   040040 040040
   1    1134*  040040 040040   040040 040040   040040 040040   ****** ******                ....
   1    1140   040040 040040   040040 040040   040040 040040   040040 040040
   1    1144   040040 040040   ****** ******   040040 040040   040040 040040        ....
   1    1150   040040 040040   040040 040040   040040 040040   ****** ******                ....
   1    1154   040040 040040   040040 040040   040040 040040   040040 040040
   1    1160   040040 040040   ****** ******   040040 040040   040040 040040        ....
   1    1164   040040 040040   040040 040040   040040 040040   ****** ******                ....
   1    1170   040040 040040   040040 040040   040040 040040   040040 040040
   1    1200*  040040 040040   040040 040040   040040 040040   ****** ******                ....
   1    1204   040040 040040   040040 040040   040040 040040   040040 040040
   1    1214*  040040 040040   040040 040040   040040 040040   040040 040040

UWA_KEY
 Sect OctLoc
   9     000   007125 127101   ****** ******                                    .UWA....

RVA_KEY
 Sect OctLoc
  11     000   007122 126101   ****** ******                                    .RVA....

IA__KEY
PL6.E3A0      #001=ZIG$DECOMP File=ZIG$DECOMP.:ZIC0TSI                           FRI 09/05/97 11:56 Page:23
 Sect OctLoc
  12     000   007111 101137   ****** ******                                    .IA_....

SEARCHR_NB
 Sect OctLoc
  14     000   001001 001001   001001 001001   001001 001001   001001 001001    ................
  14     010*  000001 001001   001001 001001   001001 001001   001001 001001    ................
  14     014   001001 001001   001001 001001   001001 001001   001001 001001    ................
  14     034*  001001 001001   001001 001001   001001 001001   001001 001001    ................

SEM_COM
 Sect OctLoc
  15     000   000001 002003   004005 006007   010011 012013   014015 016017    ................
  15     004   020021 022023   024025 026027   030031 032033   034035 036037    ................
  15     010   040041 042043   044045 046047   050051 052053   054055 056057     !"#$%&'()*+,-./
  15     014   060061 062063   064065 066067   070071 072040   074075 076077    0123456789: <=>?
  15     020   100101 102103   104105 106107   110111 112113   114115 116117    @ABCDEFGHIJKLMNO
  15     024   120121 122123   124125 126127   130131 132133   134135 136137    PQRSTUVWXYZ[\]^_
  15     030   140141 142143   144145 146147   150151 152153   154155 156157    `abcdefghijklmno
  15     034   160161 162163   164165 166167   170171 172173   174175 176177    pqrstuvwxyz{|}~.

DMCL_XLATE
 Sect OctLoc
  16     000   000001 002003   004005 006007   010011 012013   014015 016017    ................
  16     004   020021 022023   024025 026027   030031 032033   034035 036037    ................
  16     010   040041 041043   044045 046047   050051 052053   054055 136057     !!#$%&'()*+,-^/
  16     014   060061 062063   064065 066067   070071 072040   074075 076077    0123456789: <=>?
  16     020   100101 102103   104105 106107   110111 112113   114115 116117    @ABCDEFGHIJKLMNO
  16     024   120121 122123   124125 126127   130131 132133   134135 136137    PQRSTUVWXYZ[\]^_
  16     030   140141 142143   144145 146147   150151 152153   154155 156157    `abcdefghijklmno
  16     034   160161 162163   164165 166167   170171 172173   174175 176177    pqrstuvwxyz{|}~.

Q2_PERCENT
 Sect OctLoc
  17     000   000001 002003   004005 006007   010011 012013   014015 016017    ................
  17     004   020021 022023   024025 026027   030031 032033   034035 036037    ................
  17     010   040041 045043   044045 046047   050051 052053   054055 056057     !%#$%&'()*+,-./
PL6.E3A0      #001=ZIG$DECOMP File=ZIG$DECOMP.:ZIC0TSI                           FRI 09/05/97 11:56 Page:24
  17     014   060061 062063   064065 066067   070071 072073   074075 076077    0123456789:;<=>?
  17     020   100101 102103   104105 106107   110111 112113   114115 116117    @ABCDEFGHIJKLMNO
  17     024   120121 122123   124125 126127   130131 132133   134135 136137    PQRSTUVWXYZ[\]^_
  17     030   140141 142143   144145 146147   150151 152153   154155 156157    `abcdefghijklmno
  17     034   160161 162163   164165 166167   170171 172173   174175 176177    pqrstuvwxyz{|}~.

ANALS
 Sect OctLoc
  18     000   ****** ******   ****** ******   ****** ******   ****** ******    ................

PURGE
 Sect OctLoc
  19     000   ****** ******   ****** ******   ****** ******   ****** ******    ................

DICTS
 Sect OctLoc
  20     000   ****** ******   ****** ******   ****** ******   ****** ******    ................

DISPS
 Sect OctLoc
  21     000   ***00* ******   ****** ******   ****** ******   ****** ******    ................
  21     024*  ****** ******   ****** ******   ****** ******                    ............

VALIDS
 Sect OctLoc
  22     000   ****** ******   ****** ******   ****** ******   ****** ******    ................

LOCKS
 Sect OctLoc
  23     000   ****** ******   ****** ******   ****** ******   ****** ******    ................

STRAN
 Sect OctLoc
  24     000   ****** ******   ****** ******   ****** ******   ****** ******    ................

DTRAN
 Sect OctLoc
PL6.E3A0      #001=ZIG$DECOMP File=ZIG$DECOMP.:ZIC0TSI                           FRI 09/05/97 11:56 Page:25
  25     000   ****** ******   ****** ******   ****** ******   ****** ******    ................

SSTRANS
 Sect OctLoc
  26     000   ****** ******   ****** ******   ****** ******   ****** ******    ................

SSGEN
 Sect OctLoc
  27     000   ****** ******   ****** ******   ****** ******   ****** ******    ................

(unnamed)
 Sect OctLoc
  28     000   123101 055104   104040 040040                                    SA-DD

(unnamed)
 Sect OctLoc
  30     000   040040 040040   000001 000000   000006 006000                        ........

PL6.E3A0      #001=ZIG$DECOMP File=ZIG$DECOMP.:ZIC0TSI                           FRI 09/05/97 11:56 Page:26
--  Include file information  --

   ZIG_DIR_STRUCS.:ZIC0TOU  cannot be made into a system file and is referenced.
   ZIG_GENERAL.:ZIC0TOU  cannot be made into a system file and is referenced.
   ZI_SUB4_CAN.:ZIC0TOU  is referenced.
   ZIG_DBA_INT.:ZIC0TOU  cannot be made into a system file and is referenced.
   B$JIT_C.:E05TOU  was found in the system file and is never referenced.
   CP_6_C.:E05TOU  was found in the system file and is never referenced.
      No diagnostics issued in procedure ZIG$DECOMP.

   Procedure ZIG$DECOMP requires 176 words for executable code.
   Procedure ZIG$DECOMP requires 10 words of local(AUTO) storage.

    No errors detected in file ZIG$DECOMP.:ZIC0TSI    .
PL6.E3A0      #001=ZIG$DECOMP File=ZIG$DECOMP.:ZIC0TSI                           FRI 09/05/97 11:56 Page:27
          *** CROSS REFERENCE LISTING ***
**     DENOTES     IDENTIFIER DEFINITION
<<                 IDENTIFIER'S VALUE SET
>>                 IDENTIFIER'S VALUE USED
<>                 IDENTIFIER SET AND/OR USED
--                 IDENTIFIER REFERENCED
PL6.E3A0      #001=ZIG$DECOMP File=ZIG$DECOMP.:ZIC0TSI                           FRI 09/05/97 11:56 Page:28
          MINI XREF LISTING

CONTINUE
        26**DCL      1311<<ASSIGN   1338>>IF       1350<<ASSIGN   1377<<ASSIGN
DONE
        17**DCL        13--PROC     1313<<ASSIGN   1355<<ASSIGN
DONT_HAVE_LINE
        20**DCL      1312<<ASSIGN   1327>>DOWHILE
FETCHNS_6
        47**DCL-ENT  1320--CALL     1330--CALL
FLAG
        30**DCL      1316<<ASSIGN   1341>>IF       1370<<ASSIGN   1371<<ASSIGN
I
        18**DCL      1325<<ASSIGN   1328>>IF       1334>>IF       1335<<ASSIGN   1336<<ASSIGN   1336>>ASSIGN
      1340<<ASSIGN   1343<<ASSIGN   1347>>CALLBLT  1349<<ASSIGN   1349>>ASSIGN   1352>>ASSIGN   1362<<ASSIGN
      1363<<ASSIGN   1363>>ASSIGN   1369>>IF       1372<<ASSIGN   1372>>ASSIGN   1374>>IF       1376>>ASSIGN
INIT1
        19**DCL      1318>>IF       1324<<ASSIGN   1356<<ASSIGN
LEFT
        28**DCL      1315<<ASSIGN   1344<<ASSIGN   1344>>ASSIGN   1346>>ASSIGN   1347>>CALLBLT  1347>>CALLBLT
      1348>>ASSIGN   1349>>ASSIGN   1376<<ASSIGN
P
        21**DCL        22--IMP-PTR  1352<<ASSIGN   1353>>IF       1359>>IF       1361>>IF       1366>>ASSIGN
      1366>>ASSIGN   1367>>CALLBLT  1367>>CALLBLT  1367>>CALLBLT  1372>>ASSIGN   1373>>ASSIGN
POS
        27**DCL      1314<<ASSIGN   1346<<ASSIGN   1346>>ASSIGN   1347>>CALLBLT  1348<<ASSIGN   1348>>ASSIGN
      1366<<ASSIGN   1366>>ASSIGN   1367>>CALLBLT  1373<<ASSIGN   1373>>ASSIGN
REC
        15**DCL        13--PROC     1317<<ASSIGN   1347<<CALLBLT  1367<<CALLBLT
STORE_REC
        29**DCL      1322<<ASSIGN   1323<<ASSIGN   1332<<ASSIGN   1333<<ASSIGN   1347>>CALLBLT  1352--ASSIGN
STRUC_OUT.BLANK_COUNT
        23**DCL      1353>>IF       1359>>IF       1366>>ASSIGN
STRUC_OUT.CHAR_COUNT
PL6.E3A0      #001=ZIG$DECOMP File=ZIG$DECOMP.:ZIC0TSI                           FRI 09/05/97 11:56 Page:29
        24**DCL      1361>>IF       1366>>ASSIGN   1367>>CALLBLT  1367>>CALLBLT  1372>>ASSIGN   1373>>ASSIGN
STRUC_OUT.STRING
        25**DCL      1367>>CALLBLT
SUBSCHEMA_KEY
      1120**DCL      1121--REDEF
TYPE
        16**DCL        13--PROC     1320<>CALL     1321>>IF       1330<>CALL     1331>>IF
UWA.AC.CALC_NEXT
       848**DCL       849--REDEF
UWA.AC.CALC_PRIOR
       857**DCL       858--REDEF
UWA.AC.DEFAULTS
       809**DCL       810--REDEF
UWA.AC.FILE_CODE
       814**DCL       815--REDEF
UWA.AC.FLAG1.ERROR_TYPE
       811**DCL       812--REDEF
UWA.DD.DD_TXT_LINE
       995**DCL      1322>>ASSIGN   1332>>ASSIGN
UWA.DM.DMCL_TXT_LINE
       997**DCL      1323>>ASSIGN   1333>>ASSIGN
