
PL6.E3A0      #001=ZIG$D_DIAG File=ZIG$D_DIAG.:ZIC0TSI                           FRI 09/05/97 11:57 Page:1
        1        1        /*T***********************************************************/
        2        2        /*T*                                                         */
        3        3        /*T* Copyright (c) Bull HN Information Systems Inc., 1997    */
        4        4        /*T*                                                         */
        5        5        /*T***********************************************************/
        6        6        ZIG$D_DIAG:
        7        7            PROC(LINE_NUMBER,SEVER,CODE);
        8        8        %EQU ERR_SEV = 2;
        9        9    1   DCL CODE UBIN (36);
       10       10    1   DCL SEVER UBIN (36);
       11       11    1   DCL NO_ERRORS BIT (1) EXT;
       12       12    1   DCL LINE_NUMBER UBIN (36) ;
       13       13    1   DCL 01 FIELD1 EXT,
       14       14    1         02 COUNT1 UBIN (9) UNAL,
       15       15    1         02 TEXT1 CHAR (31) UNAL;
       16       16    1   DCL 01 FIELD2 EXT,
       17       17    1         02 COUNT2 UBIN (9) UNAL,
       18       18    1         02 TEXT2 CHAR (31) UNAL;
       19       19    1   DCL 01 FIELD3 EXT,
       20       20    1         02 COUNT3 UBIN (9) UNAL,
       21       21    1         02 TEXT3 CHAR (31) UNAL;
       22       22    1   DCL ERX UBIN (36) EXT;
       23       23    1   DCL 01 ERTAB(0:100) EXT,
       24       24    1         02 COUNT1 UBIN (9),
       25       25    1         02 TEXT1 CHAR (31),
       26       26    1         02 COUNT2 UBIN (9),
       27       27    1         02 TEXT2 CHAR (31),
       28       28    1         02 COUNT3 UBIN (9),
       29       29    1         02 TEXT3 CHAR (31),
       30       30    1         02 CODE UBIN (36),
       31       31    1         02 LNUM UBIN (36),
       32       32    1         02 SEV UBIN (36);
       33       33    1       IF ERX >= 100 THEN RETURN;
       34       34    1       ERX = ERX + 1;
       35       35    1       IF SEVER = %ERR_SEV THEN NO_ERRORS = '0'B;
       36       36    1       ERTAB.CODE(ERX) = CODE;
       37       37    1       ERTAB.LNUM(ERX) = LINE_NUMBER;
PL6.E3A0      #001=ZIG$D_DIAG File=ZIG$D_DIAG.:ZIC0TSI                           FRI 09/05/97 11:57 Page:2
       38       38    1       ERTAB.SEV(ERX) = SEVER;
       39       39    1       ERTAB.COUNT1(ERX) = FIELD1.COUNT1;
       40       40    1       ERTAB.TEXT1(ERX) = FIELD1.TEXT1;
       41       41    1       ERTAB.COUNT2(ERX) = FIELD2.COUNT2;
       42       42    1       ERTAB.TEXT2(ERX) = FIELD2.TEXT2;
       43       43    1       ERTAB.COUNT3(ERX) = FIELD3.COUNT3;
       44       44    1       ERTAB.TEXT3(ERX) = FIELD3.TEXT3;
       45       45    1       RETURN;
       46       46    1   END ZIG$D_DIAG;

PL6.E3A0      #001=ZIG$D_DIAG File=ZIG$D_DIAG.:ZIC0TSI                           FRI 09/05/97 11:57 Page:3
--  Include file information  --

   B$JIT_C.:E05TOU  was found in the system file and is never referenced.
   CP_6_C.:E05TOU  was found in the system file and is never referenced.
      No diagnostics issued in procedure ZIG$D_DIAG.

   Procedure ZIG$D_DIAG requires 52 words for executable code.
   Procedure ZIG$D_DIAG requires 6 words of local(AUTO) storage.

    No errors detected in file ZIG$D_DIAG.:ZIC0TSI    .

PL6.E3A0      #001=ZIG$D_DIAG File=ZIG$D_DIAG.:ZIC0TSI                           FRI 09/05/97 11:57 Page:4

 Object Unit name= ZIG$D_DIAG                                 File name= ZIG$D_DIAG.:ZIC0TOU
 UTS= SEP 05 '97 11:57:14.76 FRI                              Compiler= PL-6/E31         Sev=      00
 SharedLib= :SHARED_SYSTEM                                    Alt SharedLib=


    ****  Control sections  ****

 Sect   Type Bound  Init  Size OctSiz  Section name(segment info)
    0  LblCom even  none     1      1  NO_ERRORS
    1  LblCom even  none     8     10  FIELD1
    2  LblCom even  none     8     10  FIELD2
    3  LblCom even  none     8     10  FIELD3
    4  LblCom even  none     1      1  ERX
    5  LblCom even  none  3030   5726  ERTAB
    6   Proc  even  none    52     64  ZIG$D_DIAG

    ****  Entry defs  ****

                              Check   Calling
                             calling  sequence
  Sect OctLoc Primary Altret sequence   type   Parms  Name
     6      0   yes            yes      Std        3  ZIG$D_DIAG

  ****  Entry refs  ****

         Check        Calling
        calling       sequence
Altret sequence SRef   type   Args  Name
                       nStd      0 X66_AUTO_3
                       nStd      0 X66_ARET
PL6.E3A0      #001=ZIG$D_DIAG File=ZIG$D_DIAG.:ZIC0TSI                           FRI 09/05/97 11:57 Page:5


        1        1        /*T***********************************************************/
        2        2        /*T*                                                         */
        3        3        /*T* Copyright (c) Bull HN Information Systems Inc., 1997    */
        4        4        /*T*                                                         */
        5        5        /*T***********************************************************/
        6        6        ZIG$D_DIAG:
        7        7            PROC(LINE_NUMBER,SEVER,CODE);

      7  6 000000   000000 700200 xent  ZIG$D_DIAG   TSX0  ! X66_AUTO_3
         6 000001   000006 000003                    ZERO    6,3

        8        8        %EQU ERR_SEV = 2;
        9        9    1   DCL CODE UBIN (36);
       10       10    1   DCL SEVER UBIN (36);
       11       11    1   DCL NO_ERRORS BIT (1) EXT;
       12       12    1   DCL LINE_NUMBER UBIN (36) ;
       13       13    1   DCL 01 FIELD1 EXT,
       14       14    1         02 COUNT1 UBIN (9) UNAL,
       15       15    1         02 TEXT1 CHAR (31) UNAL;
       16       16    1   DCL 01 FIELD2 EXT,
       17       17    1         02 COUNT2 UBIN (9) UNAL,
       18       18    1         02 TEXT2 CHAR (31) UNAL;
       19       19    1   DCL 01 FIELD3 EXT,
       20       20    1         02 COUNT3 UBIN (9) UNAL,
       21       21    1         02 TEXT3 CHAR (31) UNAL;
       22       22    1   DCL ERX UBIN (36) EXT;
       23       23    1   DCL 01 ERTAB(0:100) EXT,
       24       24    1         02 COUNT1 UBIN (9),
       25       25    1         02 TEXT1 CHAR (31),
       26       26    1         02 COUNT2 UBIN (9),
       27       27    1         02 TEXT2 CHAR (31),
       28       28    1         02 COUNT3 UBIN (9),
       29       29    1         02 TEXT3 CHAR (31),
       30       30    1         02 CODE UBIN (36),
       31       31    1         02 LNUM UBIN (36),
       32       32    1         02 SEV UBIN (36);
PL6.E3A0      #001=ZIG$D_DIAG File=ZIG$D_DIAG.:ZIC0TSI                           FRI 09/05/97 11:57 Page:6
       33       33    1       IF ERX >= 100 THEN RETURN;

     33  6 000002   000000 235000 4                  LDA     ERX
         6 000003   000144 115007                    CMPA    100,DL
         6 000004   000006 602000 6                  TNC     s:34

     33  6 000005   000000 702200 xent               TSX2  ! X66_ARET

       34       34    1       ERX = ERX + 1;

     34  6 000006   000001 035007                    ADLA    1,DL
         6 000007   000000 755000 4                  STA     ERX

       35       35    1       IF SEVER = %ERR_SEV THEN NO_ERRORS = '0'B;

     35  6 000010   200004 470500                    LDP0    @SEVER,,AUTO
         6 000011   000000 235100                    LDA     0,,PR0
         6 000012   000002 115007                    CMPA    2,DL
         6 000013   000015 601000 6                  TNZ     s:36

     35  6 000014   000000 450000 0                  STZ     NO_ERRORS

       36       36    1       ERTAB.CODE(ERX) = CODE;

     36  6 000015   000000 236000 4                  LDQ     ERX
         6 000016   000036 402007                    MPY     30,DL
         6 000017   200005 471500                    LDP1    @CODE,,AUTO
         6 000020   100000 235100                    LDA     0,,PR1
         6 000021   000033 755006 5                  STA     ERTAB+27,QL

       37       37    1       ERTAB.LNUM(ERX) = LINE_NUMBER;

     37  6 000022   200003 473500                    LDP3    @LINE_NUMBER,,AUTO
         6 000023   300000 235100                    LDA     0,,PR3
         6 000024   000034 755006 5                  STA     ERTAB+28,QL

       38       38    1       ERTAB.SEV(ERX) = SEVER;
PL6.E3A0      #001=ZIG$D_DIAG File=ZIG$D_DIAG.:ZIC0TSI                           FRI 09/05/97 11:57 Page:7

     38  6 000025   000000 235100                    LDA     0,,PR0
         6 000026   000035 755006 5                  STA     ERTAB+29,QL

       39       39    1       ERTAB.COUNT1(ERX) = FIELD1.COUNT1;

     39  6 000027   000000 620006                    EAX0    0,QL
         6 000030   000000 236000 1                  LDQ     FIELD1
         6 000031   000033 772000                    QRL     27
         6 000032   000033 736000                    QLS     27
         6 000033   000000 756010 5                  STQ     ERTAB,X0

       40       40    1       ERTAB.TEXT1(ERX) = FIELD1.TEXT1;

     40  6 000034   000000 236000 4                  LDQ     ERX
         6 000035   000170 402007                    MPY     120,DL
         6 000036   040006 100400                    MLR     fill='040'O
         6 000037   000000 200037 1                  ADSC9   FIELD1                   cn=1,n=31
         6 000040   000001 000037 5                  ADSC9   ERTAB+1,Q                cn=0,n=31

       41       41    1       ERTAB.COUNT2(ERX) = FIELD2.COUNT2;

     41  6 000041   000000 236000 2                  LDQ     FIELD2
         6 000042   000033 772000                    QRL     27
         6 000043   000033 736000                    QLS     27
         6 000044   000011 756010 5                  STQ     ERTAB+9,X0

       42       42    1       ERTAB.TEXT2(ERX) = FIELD2.TEXT2;

     42  6 000045   000000 236000 4                  LDQ     ERX
         6 000046   000170 402007                    MPY     120,DL
         6 000047   040006 100400                    MLR     fill='040'O
         6 000050   000000 200037 2                  ADSC9   FIELD2                   cn=1,n=31
         6 000051   000012 000037 5                  ADSC9   ERTAB+10,Q               cn=0,n=31

       43       43    1       ERTAB.COUNT3(ERX) = FIELD3.COUNT3;

PL6.E3A0      #001=ZIG$D_DIAG File=ZIG$D_DIAG.:ZIC0TSI                           FRI 09/05/97 11:57 Page:8
     43  6 000052   000000 236000 3                  LDQ     FIELD3
         6 000053   000033 772000                    QRL     27
         6 000054   000033 736000                    QLS     27
         6 000055   000022 756010 5                  STQ     ERTAB+18,X0

       44       44    1       ERTAB.TEXT3(ERX) = FIELD3.TEXT3;

     44  6 000056   000000 236000 4                  LDQ     ERX
         6 000057   000170 402007                    MPY     120,DL
         6 000060   040006 100400                    MLR     fill='040'O
         6 000061   000000 200037 3                  ADSC9   FIELD3                   cn=1,n=31
         6 000062   000023 000037 5                  ADSC9   ERTAB+19,Q               cn=0,n=31

       45       45    1       RETURN;

     45  6 000063   000000 702200 xent               TSX2  ! X66_ARET

FIELD1
 Sect OctLoc
   1     000   ****** ******   ****** ******   ****** ******   ****** ******    ................

FIELD2
 Sect OctLoc
   2     000   ****** ******   ****** ******   ****** ******   ****** ******    ................

FIELD3
 Sect OctLoc
   3     000   ****** ******   ****** ******   ****** ******   ****** ******    ................

ERTAB
 Sect OctLoc
   5     000   ****** ******   ****** ******   ****** ******   ****** ******    ................
       46       46    1   END ZIG$D_DIAG;

PL6.E3A0      #001=ZIG$D_DIAG File=ZIG$D_DIAG.:ZIC0TSI                           FRI 09/05/97 11:57 Page:9
--  Include file information  --

   B$JIT_C.:E05TOU  was found in the system file and is never referenced.
   CP_6_C.:E05TOU  was found in the system file and is never referenced.
      No diagnostics issued in procedure ZIG$D_DIAG.

   Procedure ZIG$D_DIAG requires 52 words for executable code.
   Procedure ZIG$D_DIAG requires 6 words of local(AUTO) storage.

    No errors detected in file ZIG$D_DIAG.:ZIC0TSI    .
PL6.E3A0      #001=ZIG$D_DIAG File=ZIG$D_DIAG.:ZIC0TSI                           FRI 09/05/97 11:57 Page:10
          *** CROSS REFERENCE LISTING ***
**     DENOTES     IDENTIFIER DEFINITION
<<                 IDENTIFIER'S VALUE SET
>>                 IDENTIFIER'S VALUE USED
<>                 IDENTIFIER SET AND/OR USED
--                 IDENTIFIER REFERENCED
PL6.E3A0      #001=ZIG$D_DIAG File=ZIG$D_DIAG.:ZIC0TSI                           FRI 09/05/97 11:57 Page:11
          MINI XREF LISTING

CODE
         9**DCL         6--PROC       36>>ASSIGN
ERTAB.CODE
        30**DCL        36<<ASSIGN
ERTAB.COUNT1
        24**DCL        39<<ASSIGN
ERTAB.COUNT2
        26**DCL        41<<ASSIGN
ERTAB.COUNT3
        28**DCL        43<<ASSIGN
ERTAB.LNUM
        31**DCL        37<<ASSIGN
ERTAB.SEV
        32**DCL        38<<ASSIGN
ERTAB.TEXT1
        25**DCL        40<<ASSIGN
ERTAB.TEXT2
        27**DCL        42<<ASSIGN
ERTAB.TEXT3
        29**DCL        44<<ASSIGN
ERX
        22**DCL        33>>IF         34<<ASSIGN     34>>ASSIGN     36>>ASSIGN     37>>ASSIGN     38>>ASSIGN
        39>>ASSIGN     40>>ASSIGN     41>>ASSIGN     42>>ASSIGN     43>>ASSIGN     44>>ASSIGN
FIELD1.COUNT1
        14**DCL        39>>ASSIGN
FIELD1.TEXT1
        15**DCL        40>>ASSIGN
FIELD2.COUNT2
        17**DCL        41>>ASSIGN
FIELD2.TEXT2
        18**DCL        42>>ASSIGN
FIELD3.COUNT3
PL6.E3A0      #001=ZIG$D_DIAG File=ZIG$D_DIAG.:ZIC0TSI                           FRI 09/05/97 11:57 Page:12
        20**DCL        43>>ASSIGN
FIELD3.TEXT3
        21**DCL        44>>ASSIGN
LINE_NUMBER
        12**DCL         6--PROC       37>>ASSIGN
NO_ERRORS
        11**DCL        35<<ASSIGN
SEVER
        10**DCL         6--PROC       35>>IF         38>>ASSIGN
