
PL6.E3A0      #001=ZIG$D_ELIST File=ZIG$D_ELIST.:ZIC0TSI                         FRI 09/05/97 11:57 Page:1
        1        1        /*T***********************************************************/
        2        2        /*T*                                                         */
        3        3        /*T* Copyright (c) Bull HN Information Systems Inc., 1997    */
        4        4        /*T*                                                         */
        5        5        /*T***********************************************************/
        6        6        ZIG$D_ELIST:
        7        7            PROC;
        8        8        %EQU WARN_SEV = 1;
        9        9        %EQU ERR_SEV = 2;
       10       10        %EQU MAX_LN_CHR = 6;
       11       11    1   DCL 01 FIELD1 EXT,
       12       12    1         02 COUNT1 UBIN (9) UNAL,
       13       13    1         02 TEXT1 CHAR (31) UNAL;
       14       14    1   DCL 01 FIELD2 EXT,
       15       15    1         02 COUNT2 UBIN (9) UNAL,
       16       16    1         02 TEXT2 CHAR (31) UNAL;
       17       17    1   DCL 01 FIELD3 EXT,
       18       18    1         02 COUNT3 UBIN (9) UNAL,
       19       19    1         02 TEXT3 CHAR (31) UNAL;
       20       20    1   DCL ERX UBIN (36) EXT;
       21       21    1   DCL 01 ERTAB(0:100) EXT,
       22       22    1         02 COUNT1 UBIN (9),
       23       23    1         02 TEXT1 CHAR (31),
       24       24    1         02 COUNT2 UBIN (9),
       25       25    1         02 TEXT2 CHAR (31),
       26       26    1         02 COUNT3 UBIN (9),
       27       27    1         02 TEXT3 CHAR (31),
       28       28    1         02 CODE UBIN (36),
       29       29    1         02 LNUM UBIN (36),
       30       30    1         02 SEV UBIN (36);
       31       31    1   DCL ATX UBIN (36);
       32       32    1   DCL POS UBIN (36);
       33       33    1   DCL 01 AT(0:100) STATIC,
       34       34    1         02 LNKEY UBIN (36),
       35       35    1         02 SEVKEY UBIN (36),
       36       36    1         02 ENTR UBIN (36);
       37       37    1   DCL NO_ERRORS BIT(1) EXT;
PL6.E3A0      #001=ZIG$D_ELIST File=ZIG$D_ELIST.:ZIC0TSI                         FRI 09/05/97 11:57 Page:2
       38       38    1   DCL X UBIN WORD STATIC INIT(0);
       39       39    1   DCL Y UBIN WORD STATIC INIT(0);
       40       40    1   DCL SEVER CHAR(7) STATIC;
       41       41    1   DCL O_L CHAR(128) STATIC;
       42       42    1   DCL BLANK5 CHAR(5) CONSTANT INIT('     ');
       43       43    1   DCL OUTLINE CHAR(5) CONSTANT INIT('LINE ');
       44       44    1   DCL OUTLNUM CHAR(%MAX_LN_CHR) STATIC;
       45       45    1   DCL C64 CHAR(64);
       46       46    1   DCL PRNT ENTRY(3);
       47       47    1   DCL SUBLST ENTRY(2);
       48       48    1   DCL ERROR ENTRY(1);
       49       49    1   DCL WARNING ENTRY(1);
       50       50    1       C64 = 'SCHEMA DDL DIAGNOSTICS';
       51       51    1       CALL SUBLST(C64);
       52       52    1       O_L = 'DIAGNOSTICS***';
       53       53    1       CALL PRNT(O_L,1,0);
       54       54    1       IF ERX = 0 THEN
       55       55    2       DO;
       56       56    2           O_L = 'THERE WERE NO ERRORS DETECTED';
       57       57    2           CALL PRNT(O_L,2,0);
       58       58    2           RETURN;
       59       59    2           END;
       60       60    2       DO X = 1 TO ERX;
       61       61    2           AT.LNKEY(X) = ERTAB.LNUM(X);
       62       62    2           AT.SEVKEY(X) = ERTAB.SEV(X);
       63       63    2           AT.ENTR(X) = X;
       64       64    2           END;
       65       65    1       IF ERX > 1 THEN
       66       66    2       DO;
       67       67    3           DO X = 1 TO ERX - 1;
       68       68    4               DO Y = X + 1 TO ERX;
       69       69    4                   IF (AT.LNKEY(X) > AT.LNKEY(Y)) OR ((AT.LNKEY(X) = AT.LNKEY(Y)) AND (
                69                            AT.SEVKEY(X) > AT.SEVKEY(Y))) THEN
       70       70    5                   DO;
       71       71    5                       AT.LNKEY(0) = AT.LNKEY(X);
       72       72    5                       AT.SEVKEY(0) = AT.SEVKEY(X);
       73       73    5                       AT.ENTR(0) = AT.ENTR(X);
PL6.E3A0      #001=ZIG$D_ELIST File=ZIG$D_ELIST.:ZIC0TSI                         FRI 09/05/97 11:57 Page:3
       74       74    5                       AT.LNKEY(X) = AT.LNKEY(Y);
       75       75    5                       AT.SEVKEY(X) = AT.SEVKEY(Y);
       76       76    5                       AT.ENTR(X) = AT.ENTR(Y);
       77       77    5                       AT.LNKEY(Y) = AT.LNKEY(0);
       78       78    5                       AT.SEVKEY(Y) = AT.SEVKEY(0);
       79       79    5                       AT.ENTR(Y) = AT.ENTR(0);
       80       80    5                       END;
       81       81    4                   END;
       82       82    3               END;
       83       83    2           END;
       84       84    2       DO ATX = 1 TO ERX;
       85       85    2           POS = AT.ENTR(ATX);
       86       86    2           FIELD1.COUNT1 = ERTAB.COUNT1(POS);
       87       87    2           FIELD1.TEXT1 = ERTAB.TEXT1(POS);
       88       88    2           FIELD2.COUNT2 = ERTAB.COUNT2(POS);
       89       89    2           FIELD2.TEXT2 = ERTAB.TEXT2(POS);
       90       90    2           FIELD3.COUNT3 = ERTAB.COUNT3(POS);
       91       91    2           FIELD3.TEXT3 = ERTAB.TEXT3(POS);
       92       92    2           IF ERTAB.SEV(POS) = %ERR_SEV THEN
       93       93    2               SEVER = 'ERROR  ';
       94       94    2           ELSE
       95       95    2               SEVER = 'WARNING';
       96       96    2           CALL BINCHAR(OUTLNUM,ERTAB.LNUM(POS));
       97       97    2           X = 0;
       98       98    3           DO WHILE (SUBSTR(OUTLNUM,X,1) = '0');
       99       99    3               X = X + 1;
      100      100    3               END;
      101      101    2           CALL CONCAT(O_L,SEVER,BLANK5,OUTLINE,SUBSTR(OUTLNUM,X,%MAX_LN_CHR - X));
      102      102    2           CALL PRNT(O_L, 2, 0);
      103      103    2           IF ERTAB.SEV(POS) = %ERR_SEV THEN
      104      104    2               CALL ERROR(ERTAB.CODE(POS));
      105      105    2           ELSE
      106      106    2               CALL WARNING(ERTAB.CODE(POS));
      107      107    2           END;
      108      108    1       RETURN;
      109      109    1   END ZIG$D_ELIST;

PL6.E3A0      #001=ZIG$D_ELIST File=ZIG$D_ELIST.:ZIC0TSI                         FRI 09/05/97 11:57 Page:4
--  Include file information  --

   B$JIT_C.:E05TOU  was found in the system file and is never referenced.
   CP_6_C.:E05TOU  was found in the system file and is never referenced.
      No diagnostics issued in procedure ZIG$D_ELIST.

   Procedure ZIG$D_ELIST requires 214 words for executable code.
   Procedure ZIG$D_ELIST requires 24 words of local(AUTO) storage.

    No errors detected in file ZIG$D_ELIST.:ZIC0TSI    .

PL6.E3A0      #001=ZIG$D_ELIST File=ZIG$D_ELIST.:ZIC0TSI                         FRI 09/05/97 11:57 Page:5

 Object Unit name= ZIG$D_ELIST                                File name= ZIG$D_ELIST.:ZIC0TOU
 UTS= SEP 05 '97 11:57:25.00 FRI                              Compiler= PL-6/E31         Sev=      00
 SharedLib= :SHARED_SYSTEM                                    Alt SharedLib=


    ****  Control sections  ****

 Sect   Type Bound  Init  Size OctSiz  Section name(segment info)
    0  LblCom even  none     8     10  FIELD1
    1  LblCom even  none     8     10  FIELD2
    2  LblCom even  none     8     10  FIELD3
    3  LblCom even  none     1      1  ERX
    4  LblCom even  none  3030   5726  ERTAB
    5   Data  even  none   341    525  ZIG$D_ELIST
    6  LblCom even  none     1      1  NO_ERRORS
    7  RoData even  UTS     26     32  ZIG$D_ELIST
    8   Proc  even  none   214    326  ZIG$D_ELIST
    9  RoData even  none    13     15  ZIG$D_ELIST

    ****  Entry defs  ****

                              Check   Calling
                             calling  sequence
  Sect OctLoc Primary Altret sequence   type   Parms  Name
     8      0   yes            yes      Std        0  ZIG$D_ELIST

  ****  Entry refs  ****

         Check        Calling
        calling       sequence
Altret sequence SRef   type   Args  Name
         yes           Std       2 SUBLST
         yes           Std       3 PRNT
         yes           Std       1 WARNING
         yes           Std       1 ERROR
                       nStd      0 X66_AUTO_0
                       nStd      0 X66_ARET
PL6.E3A0      #001=ZIG$D_ELIST File=ZIG$D_ELIST.:ZIC0TSI                         FRI 09/05/97 11:57 Page:6

  ****  Segment refs  ****

  Flags:  r = read only, s = secondary
Flgs Name                             Flgs Name                             Flgs Name
     ISSID
PL6.E3A0      #001=ZIG$D_ELIST File=ZIG$D_ELIST.:ZIC0TSI                         FRI 09/05/97 11:57 Page:7


        1        1        /*T***********************************************************/
        2        2        /*T*                                                         */
        3        3        /*T* Copyright (c) Bull HN Information Systems Inc., 1997    */
        4        4        /*T*                                                         */
        5        5        /*T***********************************************************/
        6        6        ZIG$D_ELIST:
        7        7            PROC;

      7  8 000000   000000 700200 xent  ZIG$D_ELIST  TSX0  ! X66_AUTO_0
         8 000001   000030 000000                    ZERO    24,0

        8        8        %EQU WARN_SEV = 1;
        9        9        %EQU ERR_SEV = 2;
       10       10        %EQU MAX_LN_CHR = 6;
       11       11    1   DCL 01 FIELD1 EXT,
       12       12    1         02 COUNT1 UBIN (9) UNAL,
       13       13    1         02 TEXT1 CHAR (31) UNAL;
       14       14    1   DCL 01 FIELD2 EXT,
       15       15    1         02 COUNT2 UBIN (9) UNAL,
       16       16    1         02 TEXT2 CHAR (31) UNAL;
       17       17    1   DCL 01 FIELD3 EXT,
       18       18    1         02 COUNT3 UBIN (9) UNAL,
       19       19    1         02 TEXT3 CHAR (31) UNAL;
       20       20    1   DCL ERX UBIN (36) EXT;
       21       21    1   DCL 01 ERTAB(0:100) EXT,
       22       22    1         02 COUNT1 UBIN (9),
       23       23    1         02 TEXT1 CHAR (31),
       24       24    1         02 COUNT2 UBIN (9),
       25       25    1         02 TEXT2 CHAR (31),
       26       26    1         02 COUNT3 UBIN (9),
       27       27    1         02 TEXT3 CHAR (31),
       28       28    1         02 CODE UBIN (36),
       29       29    1         02 LNUM UBIN (36),
       30       30    1         02 SEV UBIN (36);
       31       31    1   DCL ATX UBIN (36);
       32       32    1   DCL POS UBIN (36);
PL6.E3A0      #001=ZIG$D_ELIST File=ZIG$D_ELIST.:ZIC0TSI                         FRI 09/05/97 11:57 Page:8
       33       33    1   DCL 01 AT(0:100) STATIC,
       34       34    1         02 LNKEY UBIN (36),
       35       35    1         02 SEVKEY UBIN (36),
       36       36    1         02 ENTR UBIN (36);
       37       37    1   DCL NO_ERRORS BIT(1) EXT;
       38       38    1   DCL X UBIN WORD STATIC INIT(0);
       39       39    1   DCL Y UBIN WORD STATIC INIT(0);
       40       40    1   DCL SEVER CHAR(7) STATIC;
       41       41    1   DCL O_L CHAR(128) STATIC;
       42       42    1   DCL BLANK5 CHAR(5) CONSTANT INIT('     ');
       43       43    1   DCL OUTLINE CHAR(5) CONSTANT INIT('LINE ');
       44       44    1   DCL OUTLNUM CHAR(%MAX_LN_CHR) STATIC;
       45       45    1   DCL C64 CHAR(64);
       46       46    1   DCL PRNT ENTRY(3);
       47       47    1   DCL SUBLST ENTRY(2);
       48       48    1   DCL ERROR ENTRY(1);
       49       49    1   DCL WARNING ENTRY(1);
       50       50    1       C64 = 'SCHEMA DDL DIAGNOSTICS';

     50  8 000002   040100 100400                    MLR     fill='040'O
         8 000003   000004 000026 7                  ADSC9   OUTLINE+2                cn=0,n=22
         8 000004   200005 000100                    ADSC9   C64,,AUTO                cn=0,n=64

       51       51    1       CALL SUBLST(C64);

     51  8 000005   200005 630500                    EPPR0   C64,,AUTO
         8 000006   200026 450500                    STP0    C64+17,,AUTO
         8 000007   200026 630500                    EPPR0   C64+17,,AUTO
         8 000010   000000 631400 9                  EPPR1   0
         8 000011   000000 701000 xent               TSX1    SUBLST
         8 000012   000000 011000                    NOP     0

       52       52    1       O_L = 'DIAGNOSTICS***';

     52  8 000013   040000 100400                    MLR     fill='040'O
         8 000014   000012 000016 7                  ADSC9   OUTLINE+8                cn=0,n=14
         8 000015   000463 000200 5                  ADSC9   O_L                      cn=0,n=128
PL6.E3A0      #001=ZIG$D_ELIST File=ZIG$D_ELIST.:ZIC0TSI                         FRI 09/05/97 11:57 Page:9

       53       53    1       CALL PRNT(O_L,1,0);

     53  8 000016   000004 630400 9                  EPPR0   4
         8 000017   000001 631400 9                  EPPR1   1
         8 000020   000000 701000 xent               TSX1    PRNT
         8 000021   000000 011000                    NOP     0

       54       54    1       IF ERX = 0 THEN

     54  8 000022   000000 235000 3                  LDA     ERX
         8 000023   000034 601000 8                  TNZ     s:60

       55       55    2       DO;

       56       56    2           O_L = 'THERE WERE NO ERRORS DETECTED';

     56  8 000024   040000 100400                    MLR     fill='040'O
         8 000025   000016 000035 7                  ADSC9   OUTLINE+12               cn=0,n=29
         8 000026   000463 000200 5                  ADSC9   O_L                      cn=0,n=128

       57       57    2           CALL PRNT(O_L,2,0);

     57  8 000027   000010 630400 9                  EPPR0   8
         8 000030   000001 631400 9                  EPPR1   1
         8 000031   000000 701000 xent               TSX1    PRNT
         8 000032   000000 011000                    NOP     0

       58       58    2           RETURN;

     58  8 000033   000000 702200 xent               TSX2  ! X66_ARET

       59       59    2           END;
       60       60    2       DO X = 1 TO ERX;

     60  8 000034   000001 236007                    LDQ     1,DL
         8 000035   000457 756000 5                  STQ     X
PL6.E3A0      #001=ZIG$D_ELIST File=ZIG$D_ELIST.:ZIC0TSI                         FRI 09/05/97 11:57 Page:10
         8 000036   000054 710000 8                  TRA     s:64+2

       61       61    2           AT.LNKEY(X) = ERTAB.LNUM(X);

     61  8 000037   000457 236000 5                  LDQ     X
         8 000040   000003 402007                    MPY     3,DL
         8 000041   000000 620006                    EAX0    0,QL
         8 000042   000457 236000 5                  LDQ     X
         8 000043   000036 402007                    MPY     30,DL
         8 000044   000034 235006 4                  LDA     ERTAB+28,QL
         8 000045   000000 755010 5                  STA     AT,X0

       62       62    2           AT.SEVKEY(X) = ERTAB.SEV(X);

     62  8 000046   000035 235006 4                  LDA     ERTAB+29,QL
         8 000047   000001 755010 5                  STA     AT+1,X0

       63       63    2           AT.ENTR(X) = X;

     63  8 000050   000457 235000 5                  LDA     X
         8 000051   000002 755010 5                  STA     AT+2,X0

       64       64    2           END;

     64  8 000052   000001 035007                    ADLA    1,DL
         8 000053   000457 755000 5                  STA     X
         8 000054   000000 236000 3                  LDQ     ERX
         8 000055   000457 116000 5                  CMPQ    X
         8 000056   000037 603000 8                  TRC     s:61

       65       65    1       IF ERX > 1 THEN

     65  8 000057   000002 116007                    CMPQ    2,DL
         8 000060   000151 602000 8                  TNC     s:84

       66       66    2       DO;

PL6.E3A0      #001=ZIG$D_ELIST File=ZIG$D_ELIST.:ZIC0TSI                         FRI 09/05/97 11:57 Page:11
       67       67    3           DO X = 1 TO ERX - 1;

     67  8 000061   000001 235007                    LDA     1,DL
         8 000062   000457 755000 5                  STA     X
         8 000063   000146 710000 8                  TRA     s:82+3

       68       68    4               DO Y = X + 1 TO ERX;

     68  8 000064   000457 235000 5                  LDA     X
         8 000065   000001 035007                    ADLA    1,DL
         8 000066   000460 755000 5                  STA     Y
         8 000067   000140 710000 8                  TRA     s:81+3

       69       69    4                  IF (AT.LNKEY(X) > AT.LNKEY(Y)) OR ((AT.LNKEY(X) = AT.LNKEY(Y)) AND (
                69                            AT.SEVKEY(X) > AT.SEVKEY(Y))) THEN

     69  8 000070   000457 236000 5                  LDQ     X
         8 000071   000003 402007                    MPY     3,DL
         8 000072   000000 620006                    EAX0    0,QL
         8 000073   000460 236000 5                  LDQ     Y
         8 000074   000003 402007                    MPY     3,DL
         8 000075   000000 236006 5                  LDQ     AT,QL
         8 000076   000000 116010 5                  CMPQ    AT,X0
         8 000077   000111 602000 8                  TNC     s:71
         8 000100   000460 236000 5                  LDQ     Y
         8 000101   000003 402007                    MPY     3,DL
         8 000102   000000 621006                    EAX1    0,QL
         8 000103   000000 236010 5                  LDQ     AT,X0
         8 000104   000000 116011 5                  CMPQ    AT,X1
         8 000105   000135 601000 8                  TNZ     s:81
         8 000106   000001 236011 5                  LDQ     AT+1,X1
         8 000107   000001 116010 5                  CMPQ    AT+1,X0
         8 000110   000135 603000 8                  TRC     s:81

       70       70    5                   DO;

       71       71    5                       AT.LNKEY(0) = AT.LNKEY(X);
PL6.E3A0      #001=ZIG$D_ELIST File=ZIG$D_ELIST.:ZIC0TSI                         FRI 09/05/97 11:57 Page:12

     71  8 000111   000000 235010 5                  LDA     AT,X0
         8 000112   000000 755000 5                  STA     AT

       72       72    5                       AT.SEVKEY(0) = AT.SEVKEY(X);

     72  8 000113   000001 235010 5                  LDA     AT+1,X0
         8 000114   000001 755000 5                  STA     AT+1

       73       73    5                       AT.ENTR(0) = AT.ENTR(X);

     73  8 000115   000002 235010 5                  LDA     AT+2,X0
         8 000116   000002 755000 5                  STA     AT+2

       74       74    5                       AT.LNKEY(X) = AT.LNKEY(Y);

     74  8 000117   000460 236000 5                  LDQ     Y
         8 000120   000003 402007                    MPY     3,DL
         8 000121   000000 235006 5                  LDA     AT,QL
         8 000122   000000 755010 5                  STA     AT,X0

       75       75    5                       AT.SEVKEY(X) = AT.SEVKEY(Y);

     75  8 000123   000001 235006 5                  LDA     AT+1,QL
         8 000124   000001 755010 5                  STA     AT+1,X0

       76       76    5                       AT.ENTR(X) = AT.ENTR(Y);

     76  8 000125   000002 235006 5                  LDA     AT+2,QL
         8 000126   000002 755010 5                  STA     AT+2,X0

       77       77    5                       AT.LNKEY(Y) = AT.LNKEY(0);

     77  8 000127   000000 235000 5                  LDA     AT
         8 000130   000000 755006 5                  STA     AT,QL

       78       78    5                       AT.SEVKEY(Y) = AT.SEVKEY(0);
PL6.E3A0      #001=ZIG$D_ELIST File=ZIG$D_ELIST.:ZIC0TSI                         FRI 09/05/97 11:57 Page:13

     78  8 000131   000001 235000 5                  LDA     AT+1
         8 000132   000001 755006 5                  STA     AT+1,QL

       79       79    5                       AT.ENTR(Y) = AT.ENTR(0);

     79  8 000133   000002 235000 5                  LDA     AT+2
         8 000134   000002 755006 5                  STA     AT+2,QL

       80       80    5                       END;

       81       81    4                   END;

     81  8 000135   000460 235000 5                  LDA     Y
         8 000136   000001 035007                    ADLA    1,DL
         8 000137   000460 755000 5                  STA     Y
         8 000140   000000 236000 3                  LDQ     ERX
         8 000141   000460 116000 5                  CMPQ    Y
         8 000142   000070 603000 8                  TRC     s:69

       82       82    3               END;

     82  8 000143   000457 235000 5                  LDA     X
         8 000144   000001 035007                    ADLA    1,DL
         8 000145   000457 755000 5                  STA     X
         8 000146   000457 116000 5                  CMPQ    X
         8 000147   000151 600000 8                  TZE     s:84
         8 000150   000064 603000 8                  TRC     s:68

       83       83    2           END;

       84       84    2       DO ATX = 1 TO ERX;

     84  8 000151   000001 235007                    LDA     1,DL
         8 000152   200003 755100                    STA     ATX,,AUTO
         8 000153   000322 710000 8                  TRA     s:107+3

PL6.E3A0      #001=ZIG$D_ELIST File=ZIG$D_ELIST.:ZIC0TSI                         FRI 09/05/97 11:57 Page:14
       85       85    2           POS = AT.ENTR(ATX);

     85  8 000154   200003 236100                    LDQ     ATX,,AUTO
         8 000155   000003 402007                    MPY     3,DL
         8 000156   000002 235006 5                  LDA     AT+2,QL
         8 000157   200004 755100                    STA     POS,,AUTO

       86       86    2           FIELD1.COUNT1 = ERTAB.COUNT1(POS);

     86  8 000160   200004 236100                    LDQ     POS,,AUTO
         8 000161   000036 402007                    MPY     30,DL
         8 000162   000000 236006 4                  LDQ     ERTAB,QL
         8 000163   000000 552040 0                  STBQ    FIELD1,'40'O

       87       87    2           FIELD1.TEXT1 = ERTAB.TEXT1(POS);

     87  8 000164   200004 236100                    LDQ     POS,,AUTO
         8 000165   000170 402007                    MPY     120,DL
         8 000166   040000 100406                    MLR     fill='040'O
         8 000167   000001 000037 4                  ADSC9   ERTAB+1,Q                cn=0,n=31
         8 000170   000000 200037 0                  ADSC9   FIELD1                   cn=1,n=31

       88       88    2           FIELD2.COUNT2 = ERTAB.COUNT2(POS);

     88  8 000171   200004 236100                    LDQ     POS,,AUTO
         8 000172   000036 402007                    MPY     30,DL
         8 000173   000011 236006 4                  LDQ     ERTAB+9,QL
         8 000174   000000 552040 1                  STBQ    FIELD2,'40'O

       89       89    2           FIELD2.TEXT2 = ERTAB.TEXT2(POS);

     89  8 000175   200004 236100                    LDQ     POS,,AUTO
         8 000176   000170 402007                    MPY     120,DL
         8 000177   040000 100406                    MLR     fill='040'O
         8 000200   000012 000037 4                  ADSC9   ERTAB+10,Q               cn=0,n=31
         8 000201   000000 200037 1                  ADSC9   FIELD2                   cn=1,n=31

PL6.E3A0      #001=ZIG$D_ELIST File=ZIG$D_ELIST.:ZIC0TSI                         FRI 09/05/97 11:57 Page:15
       90       90    2           FIELD3.COUNT3 = ERTAB.COUNT3(POS);

     90  8 000202   200004 236100                    LDQ     POS,,AUTO
         8 000203   000036 402007                    MPY     30,DL
         8 000204   000022 236006 4                  LDQ     ERTAB+18,QL
         8 000205   000000 552040 2                  STBQ    FIELD3,'40'O

       91       91    2           FIELD3.TEXT3 = ERTAB.TEXT3(POS);

     91  8 000206   200004 236100                    LDQ     POS,,AUTO
         8 000207   000170 402007                    MPY     120,DL
         8 000210   040000 100406                    MLR     fill='040'O
         8 000211   000023 000037 4                  ADSC9   ERTAB+19,Q               cn=0,n=31
         8 000212   000000 200037 2                  ADSC9   FIELD3                   cn=1,n=31

       92       92    2           IF ERTAB.SEV(POS) = %ERR_SEV THEN

     92  8 000213   200004 236100                    LDQ     POS,,AUTO
         8 000214   000036 402007                    MPY     30,DL
         8 000215   000035 235006 4                  LDA     ERTAB+29,QL
         8 000216   000002 115007                    CMPA    2,DL
         8 000217   000224 601000 8                  TNZ     s:95

       93       93    2               SEVER = 'ERROR  ';

     93  8 000220   040000 100400                    MLR     fill='040'O
         8 000221   000026 000007 7                  ADSC9   OUTLINE+20               cn=0,n=7
         8 000222   000461 000007 5                  ADSC9   SEVER                    cn=0,n=7
         8 000223   000227 710000 8                  TRA     s:96

       94       94    2           ELSE
       95       95    2               SEVER = 'WARNING';

     95  8 000224   040000 100400                    MLR     fill='040'O
         8 000225   000030 000007 7                  ADSC9   OUTLINE+22               cn=0,n=7
         8 000226   000461 000007 5                  ADSC9   SEVER                    cn=0,n=7

PL6.E3A0      #001=ZIG$D_ELIST File=ZIG$D_ELIST.:ZIC0TSI                         FRI 09/05/97 11:57 Page:16
       96       96    2           CALL BINCHAR(OUTLNUM,ERTAB.LNUM(POS));

     96  8 000227   000034 235006 4                  LDA     ERTAB+28,QL
         8 000230   000044 773000                    LRL     36
         8 000231   200026 757100                    STAQ    C64+17,,AUTO
         8 000232   000000 301500                    BTD
         8 000233   200026 000010                    NDSC9   C64+17,,AUTO             cn=0,s=lsgnf,sf=0,n=8
         8 000234   000523 030006 5                  NDSC9   OUTLNUM                  cn=0,s=nosgn,sf=0,n=6

       97       97    2           X = 0;

     97  8 000235   000457 450000 5                  STZ     X

       98       98    3           DO WHILE (SUBSTR(OUTLNUM,X,1) = '0');

     98  8 000236   000242 710000 8                  TRA     s:100

       99       99    3               X = X + 1;

     99  8 000237   000457 235000 5                  LDA     X
         8 000240   000001 035007                    ADLA    1,DL
         8 000241   000457 755000 5                  STA     X

      100      100    3               END;

    100  8 000242   000457 235000 5                  LDA     X
         8 000243   040000 106405                    CMPC    fill='040'O
         8 000244   000523 000001 5                  ADSC9   OUTLNUM,A                cn=0,n=1
         8 000245   000013 000001 9                  ADSC9   11                       cn=0,n=1
         8 000246   000237 600000 8                  TZE     s:99

      101      101    2           CALL CONCAT(O_L,SEVER,BLANK5,OUTLINE,SUBSTR(OUTLNUM,X,%MAX_LN_CHR - X));

    101  8 000247   040000 100400                    MLR     fill='040'O
         8 000250   000461 000007 5                  ADSC9   SEVER                    cn=0,n=7
         8 000251   000463 000007 5                  ADSC9   O_L                      cn=0,n=7
         8 000252   040000 100400                    MLR     fill='040'O
PL6.E3A0      #001=ZIG$D_ELIST File=ZIG$D_ELIST.:ZIC0TSI                         FRI 09/05/97 11:57 Page:17
         8 000253   000000 000005 7                  ADSC9   BLANK5                   cn=0,n=5
         8 000254   000464 600005 5                  ADSC9   O_L+1                    cn=3,n=5
         8 000255   040000 100400                    MLR     fill='040'O
         8 000256   000002 000005 7                  ADSC9   OUTLINE                  cn=0,n=5
         8 000257   000466 000005 5                  ADSC9   O_L+3                    cn=0,n=5
         8 000260   777771 620005                    EAX0    -7,AL
         8 000261   777777 660003                    ERX0    -1,DU
         8 000262   040000 100445                    MLR     fill='040'O
         8 000263   000523 000010 5                  ADSC9   OUTLNUM,A                cn=0,n=*X0
         8 000264   000467 200157 5                  ADSC9   O_L+4                    cn=1,n=111

      102      102    2           CALL PRNT(O_L, 2, 0);

    102  8 000265   000010 630400 9                  EPPR0   8
         8 000266   000001 631400 9                  EPPR1   1
         8 000267   000000 701000 xent               TSX1    PRNT
         8 000270   000000 011000                    NOP     0

      103      103    2           IF ERTAB.SEV(POS) = %ERR_SEV THEN

    103  8 000271   200004 236100                    LDQ     POS,,AUTO
         8 000272   000036 402007                    MPY     30,DL
         8 000273   000035 235006 4                  LDA     ERTAB+29,QL
         8 000274   000002 115007                    CMPA    2,DL
         8 000275   000307 601000 8                  TNZ     s:106

      104      104    2               CALL ERROR(ERTAB.CODE(POS));

    104  8 000276   200004 236100                    LDQ     POS,,AUTO
         8 000277   000036 402003                    MPY     30,DU
         8 000300   000014 036000 9                  ADLQ    12
         8 000301   200026 756100                    STQ     C64+17,,AUTO
         8 000302   200026 630500                    EPPR0   C64+17,,AUTO
         8 000303   000000 631400 9                  EPPR1   0
         8 000304   000000 701000 xent               TSX1    ERROR
         8 000305   000000 011000                    NOP     0
         8 000306   000317 710000 8                  TRA     s:107
PL6.E3A0      #001=ZIG$D_ELIST File=ZIG$D_ELIST.:ZIC0TSI                         FRI 09/05/97 11:57 Page:18

      105      105    2           ELSE
      106      106    2               CALL WARNING(ERTAB.CODE(POS));

    106  8 000307   200004 236100                    LDQ     POS,,AUTO
         8 000310   000036 402003                    MPY     30,DU
         8 000311   000014 036000 9                  ADLQ    12
         8 000312   200026 756100                    STQ     C64+17,,AUTO
         8 000313   200026 630500                    EPPR0   C64+17,,AUTO
         8 000314   000000 631400 9                  EPPR1   0
         8 000315   000000 701000 xent               TSX1    WARNING
         8 000316   000000 011000                    NOP     0

      107      107    2           END;

    107  8 000317   200003 235100                    LDA     ATX,,AUTO
         8 000320   000001 035007                    ADLA    1,DL
         8 000321   200003 755100                    STA     ATX,,AUTO
         8 000322   000000 236000 3                  LDQ     ERX
         8 000323   200003 116100                    CMPQ    ATX,,AUTO
         8 000324   000154 603000 8                  TRC     s:85

      108      108    1       RETURN;

    108  8 000325   000000 702200 xent               TSX2  ! X66_ARET

FIELD1
 Sect OctLoc
   0     000   ****** ******   ****** ******   ****** ******   ****** ******    ................

FIELD2
 Sect OctLoc
   1     000   ****** ******   ****** ******   ****** ******   ****** ******    ................

FIELD3
 Sect OctLoc
   2     000   ****** ******   ****** ******   ****** ******   ****** ******    ................
PL6.E3A0      #001=ZIG$D_ELIST File=ZIG$D_ELIST.:ZIC0TSI                         FRI 09/05/97 11:57 Page:19

ERTAB
 Sect OctLoc
   4     000   ****** ******   ****** ******   ****** ******   ****** ******    ................

AT
 Sect OctLoc
   5     000   ****** ******   ****** ******   ****** ******   ****** ******    ................

X
 Sect OctLoc
   5     457   000000 000000                                                    ....

Y
 Sect OctLoc
   5     460   000000 000000                                                    ....

O_L
 Sect OctLoc
   5     463   ****** ******   ****** ******   ****** ******   ****** ******    ................

BLANK5
 Sect OctLoc
   7     000   040040 040040   040*** ******                                         ...

OUTLINE
 Sect OctLoc
   7     002   114111 116105   040*** ******                                    LINE ...

(unnamed)
 Sect OctLoc
   7     004   123103 110105   115101 040104   104114 040104   111101 107116    SCHEMA DDL DIAGN
   7     010   117123 124111   103123 040040   104111 101107   116117 123124    OSTICS  DIAGNOST
   7     014   111103 123052   052052 040040   124110 105122   105040 127105    ICS***  THERE WE
   7     020   122105 040116   117040 105122   122117 122123   040104 105124    RE NO ERRORS DET
   7     024   105103 124105   104040 040040   105122 122117   122040 040040    ECTED   ERROR
   7     030   127101 122116   111116 107040                                    WARNING
PL6.E3A0      #001=ZIG$D_ELIST File=ZIG$D_ELIST.:ZIC0TSI                         FRI 09/05/97 11:57 Page:20

(unnamed)
 Sect OctLoc
   9     000   000001 000000   000003 000000   000000 000001   000000 000000    ................
   9     004   000463 006000   000002 006000   000003 006000   000000 000002    ................
   9     010   000463 006000   000007 006000   000003 006000   060040 040040    ............0
   9     014   000033 006000                                                    ....
      109      109    1   END ZIG$D_ELIST;

PL6.E3A0      #001=ZIG$D_ELIST File=ZIG$D_ELIST.:ZIC0TSI                         FRI 09/05/97 11:57 Page:21
--  Include file information  --

   B$JIT_C.:E05TOU  was found in the system file and is never referenced.
   CP_6_C.:E05TOU  was found in the system file and is never referenced.
      No diagnostics issued in procedure ZIG$D_ELIST.

   Procedure ZIG$D_ELIST requires 214 words for executable code.
   Procedure ZIG$D_ELIST requires 24 words of local(AUTO) storage.

    No errors detected in file ZIG$D_ELIST.:ZIC0TSI    .
PL6.E3A0      #001=ZIG$D_ELIST File=ZIG$D_ELIST.:ZIC0TSI                         FRI 09/05/97 11:57 Page:22
          *** CROSS REFERENCE LISTING ***
**     DENOTES     IDENTIFIER DEFINITION
<<                 IDENTIFIER'S VALUE SET
>>                 IDENTIFIER'S VALUE USED
<>                 IDENTIFIER SET AND/OR USED
--                 IDENTIFIER REFERENCED
PL6.E3A0      #001=ZIG$D_ELIST File=ZIG$D_ELIST.:ZIC0TSI                         FRI 09/05/97 11:57 Page:23
          MINI XREF LISTING

AT.ENTR
        36**DCL        63<<ASSIGN     73<<ASSIGN     73>>ASSIGN     76<<ASSIGN     76>>ASSIGN     79<<ASSIGN
        79>>ASSIGN     85>>ASSIGN
AT.LNKEY
        34**DCL        61<<ASSIGN     69>>IF         69>>IF         69>>IF         69>>IF         71<<ASSIGN
        71>>ASSIGN     74<<ASSIGN     74>>ASSIGN     77<<ASSIGN     77>>ASSIGN
AT.SEVKEY
        35**DCL        62<<ASSIGN     69>>IF         69>>IF         72<<ASSIGN     72>>ASSIGN     75<<ASSIGN
        75>>ASSIGN     78<<ASSIGN     78>>ASSIGN
ATX
        31**DCL        84<<DOINDEX    85>>ASSIGN
BLANK5
        42**DCL       101>>CALLBLT
C64
        45**DCL        50<<ASSIGN     51<>CALL
ERROR
        48**DCL-ENT   104--CALL
ERTAB.CODE
        28**DCL       104<>CALL      106<>CALL
ERTAB.COUNT1
        22**DCL        86>>ASSIGN
ERTAB.COUNT2
        24**DCL        88>>ASSIGN
ERTAB.COUNT3
        26**DCL        90>>ASSIGN
ERTAB.LNUM
        29**DCL        61>>ASSIGN     96>>CALLBLT
ERTAB.SEV
        30**DCL        62>>ASSIGN     92>>IF        103>>IF
ERTAB.TEXT1
        23**DCL        87>>ASSIGN
ERTAB.TEXT2
PL6.E3A0      #001=ZIG$D_ELIST File=ZIG$D_ELIST.:ZIC0TSI                         FRI 09/05/97 11:57 Page:24
        25**DCL        89>>ASSIGN
ERTAB.TEXT3
        27**DCL        91>>ASSIGN
ERX
        20**DCL        54>>IF         60>>DOINDEX    65>>IF         67>>DOINDEX    68>>DOINDEX    84>>DOINDEX
FIELD1.COUNT1
        12**DCL        86<<ASSIGN
FIELD1.TEXT1
        13**DCL        87<<ASSIGN
FIELD2.COUNT2
        15**DCL        88<<ASSIGN
FIELD2.TEXT2
        16**DCL        89<<ASSIGN
FIELD3.COUNT3
        18**DCL        90<<ASSIGN
FIELD3.TEXT3
        19**DCL        91<<ASSIGN
OUTLINE
        43**DCL       101>>CALLBLT
OUTLNUM
        44**DCL        96<<CALLBLT    98>>DOWHILE   101>>CALLBLT
O_L
        41**DCL        52<<ASSIGN     53<>CALL       56<<ASSIGN     57<>CALL      101<<CALLBLT   102<>CALL
POS
        32**DCL        85<<ASSIGN     86>>ASSIGN     87>>ASSIGN     88>>ASSIGN     89>>ASSIGN     90>>ASSIGN
        91>>ASSIGN     92>>IF         96>>CALLBLT   103>>IF        104>>CALL      106>>CALL
PRNT
        46**DCL-ENT    53--CALL       57--CALL      102--CALL
SEVER
        40**DCL        93<<ASSIGN     95<<ASSIGN    101>>CALLBLT
SUBLST
        47**DCL-ENT    51--CALL
WARNING
        49**DCL-ENT   106--CALL
X
        38**DCL        60<<DOINDEX    61>>ASSIGN     61>>ASSIGN     62>>ASSIGN     62>>ASSIGN     63>>ASSIGN
PL6.E3A0      #001=ZIG$D_ELIST File=ZIG$D_ELIST.:ZIC0TSI                         FRI 09/05/97 11:57 Page:25
        63>>ASSIGN     67<<DOINDEX    68>>DOINDEX    69>>IF         69>>IF         69>>IF         71>>ASSIGN
        72>>ASSIGN     73>>ASSIGN     74>>ASSIGN     75>>ASSIGN     76>>ASSIGN     97<<ASSIGN     98>>DOWHILE
        99<<ASSIGN     99>>ASSIGN    101>>CALLBLT   101>>CALLBLT
Y
        39**DCL        68<<DOINDEX    69>>IF         69>>IF         69>>IF         74>>ASSIGN     75>>ASSIGN
        76>>ASSIGN     77>>ASSIGN     78>>ASSIGN     79>>ASSIGN
