
PL6.E3A0      #001=ZIG$D_EXEC File=ZIG$D_EXEC.:ZIC0TSI                           FRI 09/05/97 11:58 Page:1
        1        1        /*M* ZIG$ZIG$D_EXEC         I-D-S/II      DBACS DDL TRANS EXEC */
        2        2        /*T***********************************************************/
        3        3        /*T*                                                         */
        4        4        /*T* Copyright (c) Bull HN Information Systems Inc., 1997    */
        5        5        /*T*                                                         */
        6        6        /*T***********************************************************/
        7        7        ZIG$D_EXEC:
        8        8            PROC ALTRET;
        9        9        %INCLUDE ZIG_DIR_STRUCS;
       10      139 S      %INCLUDE B$JIT_C;
       11      140        %B$JIT0;
       12      229        %U$JIT1;
       13      303        %A$JIT6X;
       14      306    1   DCL ERX UBIN (36) EXT;
       15      307    1   DCL FIRST_HYPHEN BIT(1) EXT;
       16      308    1   DCL FIRST_SET_ERROR BIT(1) EXT;
       17      309    1   DCL ZIG$COMP ENTRY(3);
       18      310    1   DCL SUBLST ENTRY(2);
       19      311    1   DCL UOPEN ENTRY(2);
       20      312    1   DCL UCLOSE ENTRY(1);
       21      313    1   DCL ZIG$D_PDRI ENTRY;
       22      314    1   DCL ZIG$D_PAS2 ENTRY ALTRET;
       23      315    1   DCL ZIG$D_END ENTRY;
       24      316    1   DCL ZIG$D_XREF ENTRY;
       25      317    1   DCL ZIG$D_ELIST ENTRY;
       26      318    1   DCL ZIG$FREE ENTRY(2) ALTRET;
       27      319    1   DCL SYS_MSG ENTRY(1);
       28      320    1   DCL NO_ERRORS BIT(1) EXT;
       29      321    1   DCL B$JIT$ PTR SYMREF;
       30      322    1       ERX = 0;
       31      323    1       FIRST_HYPHEN = '1'B;
       32      324    1       FIRST_SET_ERROR = '1'B;
       33      325    1       CALL SUBLST('SCHEMA DDL TRANSLATOR                                           ');
       34      326    1       CALL UOPEN('2*',1);
       35      327    1       CALL ZIG$D_PDRI;
       36      328    1       CALL ZIG$COMP(99,'DD  ','  ');
       37      329    1       CALL UCLOSE('2*');
PL6.E3A0      #001=ZIG$D_EXEC File=ZIG$D_EXEC.:ZIC0TSI                           FRI 09/05/97 11:58 Page:2
       38      330    2       IF NO_ERRORS THEN DO;
       39      331    2           CALL ZIG$D_PAS2 ALTRET(ALT_FREE);
       40      332    2           CALL ZIG$D_END;
       41      333    2           END;
       42      334    1       IF STRAN.XREF = '1'B THEN
       43      335    1           CALL ZIG$D_XREF;
       44      336        /* handling the COMMENT and DONT COMMENT also LIST and DONT LIST
       45      337           command for printing or not printing the error messages.
       46      338           B$JIT.PRFLAGS.LIST and B$JIT.PRFLAGS.COMMENT are the flags.   */
       47      339
       48      340    1       IF (B$JIT$->B$JIT.PRFLAGS.LIST = '0'B) OR
       49      341    1          (B$JIT$->B$JIT.PRFLAGS.COMMENT = '0'B) THEN
       50      342    2       DO;
       51      343    2           IF NO_ERRORS THEN
       52      344    3           DO;
       53      345    3               CALL ZIG$FREE(7,0) ALTRET(ALT_FREE);
       54      346    3               END;
       55      347    2           RETURN;
       56      348    2           END;
       57      349    1       CALL ZIG$D_ELIST;
       58      350    1       IF NO_ERRORS THEN
       59      351    1           CALL ZIG$FREE(7,0) ALTRET(ALT_FREE); /* Free all memory */
       60      352    2       ELSE DO;
       61      353    2           CALL SYS_MSG(2);
       62      354    2           STRAN.STATUS = '001'B;
       63      355    2           END;
       64      356    1       RETURN;
       65      357
       66      358    1   ALT_FREE:
       67      359    1       ALTRETURN;
       68      360
       69      361    1   END ZIG$D_EXEC;

PL6.E3A0      #001=ZIG$D_EXEC File=ZIG$D_EXEC.:ZIC0TSI                           FRI 09/05/97 11:58 Page:3
--  Include file information  --

   ZIG_DIR_STRUCS.:ZIC0TOU  cannot be made into a system file and is referenced.
   B$JIT_C.:E05TOU  was found in the system file and is referenced.
   CP_6_C.:E05TOU  was found in the system file and is never referenced.
      No diagnostics issued in procedure ZIG$D_EXEC.

   Procedure ZIG$D_EXEC requires 72 words for executable code.
   Procedure ZIG$D_EXEC requires 4 words of local(AUTO) storage.

    No errors detected in file ZIG$D_EXEC.:ZIC0TSI    .

PL6.E3A0      #001=ZIG$D_EXEC File=ZIG$D_EXEC.:ZIC0TSI                           FRI 09/05/97 11:58 Page:4

 Object Unit name= ZIG$D_EXEC                                 File name= ZIG$D_EXEC.:ZIC0TOU
 UTS= SEP 05 '97 11:58:06.16 FRI                              Compiler= PL-6/E31         Sev=      00
 SharedLib= :SHARED_SYSTEM                                    Alt SharedLib=


    ****  Control sections  ****

 Sect   Type Bound  Init  Size OctSiz  Section name(segment info)
    0  LblCom even  none    12     14  ANALS
    1  LblCom even  none    13     15  PURGE
    2  LblCom even  none    19     23  DICTS
    3  LblCom even  none    23     27  DISPS
    4  LblCom even  none    22     26  VALIDS
    5  LblCom even  none    12     14  LOCKS
    6  LblCom even  none    10     12  STRAN
    7  LblCom even  none    12     14  DTRAN
    8  LblCom even  none    16     20  SSTRANS
    9  LblCom even  none    20     24  SSGEN
   10  LblCom even  none     1      1  ERX
   11  LblCom even  none     1      1  FIRST_HYPHEN
   12  LblCom even  none     1      1  FIRST_SET_ERROR
   13  LblCom even  none     1      1  NO_ERRORS
   14  RoData even  UTS     18     22  ZIG$D_EXEC
   15   Proc  even  none    72    110  ZIG$D_EXEC
   16  RoData even  none    18     22  ZIG$D_EXEC

    ****  Entry defs  ****

                              Check   Calling
                             calling  sequence
  Sect OctLoc Primary Altret sequence   type   Parms  Name
    15      0   yes    yes     yes      Std        0  ZIG$D_EXEC
PL6.E3A0      #001=ZIG$D_EXEC File=ZIG$D_EXEC.:ZIC0TSI                           FRI 09/05/97 11:58 Page:5

  ****  Entry refs  ****

         Check        Calling
        calling       sequence
Altret sequence SRef   type   Args  Name
         yes           Std       2 SUBLST
         yes           Std       2 UOPEN
         yes           Std       0 ZIG$D_PDRI
         yes           Std       3 ZIG$COMP
         yes           Std       0 ZIG$D_XREF
         yes           Std       1 UCLOSE
         yes           Std       0 ZIG$D_END
 yes     yes           Std       2 ZIG$FREE
         yes           Std       0 ZIG$D_ELIST
 yes     yes           Std       0 ZIG$D_PAS2
         yes           Std       1 SYS_MSG
                       nStd      0 X66_AUTO_0
                       nStd      0 X66_ARET
                       nStd      0 X66_AALT

  ****  Data refs  ****

  Flags:  r = read only, s = secondary
Flgs Name                             Flgs Name                             Flgs Name
     B$JIT$

  ****  Segment refs  ****

  Flags:  r = read only, s = secondary
Flgs Name                             Flgs Name                             Flgs Name
     ISSID
PL6.E3A0      #001=ZIG$D_EXEC File=ZIG$D_EXEC.:ZIC0TSI                           FRI 09/05/97 11:58 Page:6


        1        1        /*M* ZIG$ZIG$D_EXEC         I-D-S/II      DBACS DDL TRANS EXEC */
        2        2        /*T***********************************************************/
        3        3        /*T*                                                         */
        4        4        /*T* Copyright (c) Bull HN Information Systems Inc., 1997    */
        5        5        /*T*                                                         */
        6        6        /*T***********************************************************/
        7        7        ZIG$D_EXEC:
        8        8            PROC ALTRET;

      8 15 000000   000000 700200 xent  ZIG$D_EXEC   TSX0  ! X66_AUTO_0
        15 000001   000004 000000                    ZERO    4,0

        9        9        %INCLUDE ZIG_DIR_STRUCS;
       10      139 S      %INCLUDE B$JIT_C;
       11      140        %B$JIT0;
       12      229        %U$JIT1;
       13      303        %A$JIT6X;
       14      306    1   DCL ERX UBIN (36) EXT;
       15      307    1   DCL FIRST_HYPHEN BIT(1) EXT;
       16      308    1   DCL FIRST_SET_ERROR BIT(1) EXT;
       17      309    1   DCL ZIG$COMP ENTRY(3);
       18      310    1   DCL SUBLST ENTRY(2);
       19      311    1   DCL UOPEN ENTRY(2);
       20      312    1   DCL UCLOSE ENTRY(1);
       21      313    1   DCL ZIG$D_PDRI ENTRY;
       22      314    1   DCL ZIG$D_PAS2 ENTRY ALTRET;
       23      315    1   DCL ZIG$D_END ENTRY;
       24      316    1   DCL ZIG$D_XREF ENTRY;
       25      317    1   DCL ZIG$D_ELIST ENTRY;
       26      318    1   DCL ZIG$FREE ENTRY(2) ALTRET;
       27      319    1   DCL SYS_MSG ENTRY(1);
       28      320    1   DCL NO_ERRORS BIT(1) EXT;
       29      321    1   DCL B$JIT$ PTR SYMREF;
       30      322    1       ERX = 0;

    322 15 000002   000000 450000 10                 STZ     ERX
PL6.E3A0      #001=ZIG$D_EXEC File=ZIG$D_EXEC.:ZIC0TSI                           FRI 09/05/97 11:58 Page:7

       31      323    1       FIRST_HYPHEN = '1'B;

    323 15 000003   400000 236003                    LDQ     -131072,DU
        15 000004   000000 756000 11                 STQ     FIRST_HYPHEN

       32      324    1       FIRST_SET_ERROR = '1'B;

    324 15 000005   000000 756000 12                 STQ     FIRST_SET_ERROR

       33      325    1       CALL SUBLST('SCHEMA DDL TRANSLATOR                                          ');

    325 15 000006   000001 630400 16                 EPPR0   1
        15 000007   000000 631400 16                 EPPR1   0
        15 000010   000000 701000 xent               TSX1    SUBLST
        15 000011   000000 011000                    NOP     0

       34      326    1       CALL UOPEN('2*',1);

    326 15 000012   000004 630400 16                 EPPR0   4
        15 000013   000002 631400 16                 EPPR1   2
        15 000014   000000 701000 xent               TSX1    UOPEN
        15 000015   000000 011000                    NOP     0

       35      327    1       CALL ZIG$D_PDRI;

    327 15 000016   000006 631400 16                 EPPR1   6
        15 000017   000000 701000 xent               TSX1    ZIG$D_PDRI
        15 000020   000000 011000                    NOP     0

       36      328    1       CALL ZIG$COMP(99,'DD  ','  ');

    328 15 000021   000011 630400 16                 EPPR0   9
        15 000022   000007 631400 16                 EPPR1   7
        15 000023   000000 701000 xent               TSX1    ZIG$COMP
        15 000024   000000 011000                    NOP     0

PL6.E3A0      #001=ZIG$D_EXEC File=ZIG$D_EXEC.:ZIC0TSI                           FRI 09/05/97 11:58 Page:8
       37      329    1       CALL UCLOSE('2*');

    329 15 000025   000004 630400 16                 EPPR0   4
        15 000026   000000 631400 16                 EPPR1   0
        15 000027   000000 701000 xent               TSX1    UCLOSE
        15 000030   000000 011000                    NOP     0

       38      330    2       IF NO_ERRORS THEN DO;

    330 15 000031   000000 234000 13                 SZN     NO_ERRORS
        15 000032   000041 605000 15                 TPL     s:334

       39      331    2           CALL ZIG$D_PAS2 ALTRET(ALT_FREE);

    331 15 000033   000006 631400 16                 EPPR1   6
        15 000034   000000 701000 xent               TSX1    ZIG$D_PAS2
        15 000035   000107 702000 15                 TSX2    ALT_FREE

       40      332    2           CALL ZIG$D_END;

    332 15 000036   000006 631400 16                 EPPR1   6
        15 000037   000000 701000 xent               TSX1    ZIG$D_END
        15 000040   000000 011000                    NOP     0

       41      333    2           END;

       42      334    1       IF STRAN.XREF = '1'B THEN

    334 15 000041   000000 236000 6                  LDQ     STRAN
        15 000042   040000 316003                    CANQ    16384,DU
        15 000043   000047 600000 15                 TZE     s:340

       43      335    1           CALL ZIG$D_XREF;

    335 15 000044   000006 631400 16                 EPPR1   6
        15 000045   000000 701000 xent               TSX1    ZIG$D_XREF
        15 000046   000000 011000                    NOP     0
PL6.E3A0      #001=ZIG$D_EXEC File=ZIG$D_EXEC.:ZIC0TSI                           FRI 09/05/97 11:58 Page:9

       44      336        /* handling the COMMENT and DONT COMMENT also LIST and DONT LIST
       45      337           command for printing or not printing the error messages.
       46      338           B$JIT.PRFLAGS.LIST and B$JIT.PRFLAGS.COMMENT are the flags.   */
       47      339
       48      340    1       IF (B$JIT$->B$JIT.PRFLAGS.LIST = '0'B) OR

    340 15 000047   000000 470400 xsym               LDP0    B$JIT$
        15 000050   000030 236100                    LDQ     24,,PR0
        15 000051   010000 316003                    CANQ    4096,DU
        15 000052   000055 600000 15                 TZE     s:343
        15 000053   020000 316003                    CANQ    8192,DU
        15 000054   000064 601000 15                 TNZ     s:349

       49      341    1          (B$JIT$->B$JIT.PRFLAGS.COMMENT = '0'B) THEN
       50      342    2       DO;

       51      343    2           IF NO_ERRORS THEN

    343 15 000055   000000 234000 13                 SZN     NO_ERRORS
        15 000056   000063 605000 15                 TPL     s:347

       52      344    3           DO;

       53      345    3               CALL ZIG$FREE(7,0) ALTRET(ALT_FREE);

    345 15 000057   000015 630400 16                 EPPR0   13
        15 000060   000002 631400 16                 EPPR1   2
        15 000061   000000 701000 xent               TSX1    ZIG$FREE
        15 000062   000107 702000 15                 TSX2    ALT_FREE

       54      346    3               END;

       55      347    2           RETURN;

    347 15 000063   000000 702200 xent               TSX2  ! X66_ARET

PL6.E3A0      #001=ZIG$D_EXEC File=ZIG$D_EXEC.:ZIC0TSI                           FRI 09/05/97 11:58 Page:10
       56      348    2           END;
       57      349    1       CALL ZIG$D_ELIST;

    349 15 000064   000006 631400 16                 EPPR1   6
        15 000065   000000 701000 xent               TSX1    ZIG$D_ELIST
        15 000066   000000 011000                    NOP     0

       58      350    1       IF NO_ERRORS THEN

    350 15 000067   000000 234000 13                 SZN     NO_ERRORS
        15 000070   000076 605000 15                 TPL     s:353

       59      351    1           CALL ZIG$FREE(7,0) ALTRET(ALT_FREE); /* Free all memory */

    351 15 000071   000015 630400 16                 EPPR0   13
        15 000072   000002 631400 16                 EPPR1   2
        15 000073   000000 701000 xent               TSX1    ZIG$FREE
        15 000074   000107 702000 15                 TSX2    ALT_FREE
        15 000075   000106 710000 15                 TRA     s:356

       60      352    2       ELSE DO;

       61      353    2           CALL SYS_MSG(2);

    353 15 000076   000020 630400 16                 EPPR0   16
        15 000077   000000 631400 16                 EPPR1   0
        15 000100   000000 701000 xent               TSX1    SYS_MSG
        15 000101   000000 011000                    NOP     0

       62      354    2           STRAN.STATUS = '001'B;

    354 15 000102   000000 236000 6                  LDQ     STRAN
        15 000103   000021 376000 16                 ANQ     17
        15 000104   100000 276003                    ORQ     32768,DU
        15 000105   000000 756000 6                  STQ     STRAN

       63      355    2           END;
PL6.E3A0      #001=ZIG$D_EXEC File=ZIG$D_EXEC.:ZIC0TSI                           FRI 09/05/97 11:58 Page:11

       64      356    1       RETURN;

    356 15 000106   000000 702200 xent               TSX2  ! X66_ARET

       65      357
       66      358    1   ALT_FREE:
       67      359    1       ALTRETURN;

    359 15 000107   000000 702200 xent  ALT_FREE     TSX2  ! X66_AALT

ANALS
 Sect OctLoc
   0     000   ****** ******   ****** ******   ****** ******   ****** ******    ................

PURGE
 Sect OctLoc
   1     000   ****** ******   ****** ******   ****** ******   ****** ******    ................

DICTS
 Sect OctLoc
   2     000   ****** ******   ****** ******   ****** ******   ****** ******    ................

DISPS
 Sect OctLoc
   3     000   ***00* ******   ****** ******   ****** ******   ****** ******    ................
   3     024*  ****** ******   ****** ******   ****** ******                    ............

VALIDS
 Sect OctLoc
   4     000   ****** ******   ****** ******   ****** ******   ****** ******    ................

LOCKS
 Sect OctLoc
   5     000   ****** ******   ****** ******   ****** ******   ****** ******    ................

STRAN
PL6.E3A0      #001=ZIG$D_EXEC File=ZIG$D_EXEC.:ZIC0TSI                           FRI 09/05/97 11:58 Page:12
 Sect OctLoc
   6     000   ****** ******   ****** ******   ****** ******   ****** ******    ................

DTRAN
 Sect OctLoc
   7     000   ****** ******   ****** ******   ****** ******   ****** ******    ................

SSTRANS
 Sect OctLoc
   8     000   ****** ******   ****** ******   ****** ******   ****** ******    ................

SSGEN
 Sect OctLoc
   9     000   ****** ******   ****** ******   ****** ******   ****** ******    ................

(unnamed)
 Sect OctLoc
  14     000   123103 110105   115101 040104   104114 040124   122101 116123    SCHEMA DDL TRANS
  14     004   114101 124117   122040 040040   040040 040040   040040 040040    LATOR
  14     010   040040 040040   040040 040040   040040 040040   040040 040040
  14     020*  062052 040040   104104 040040                                    2*  DD

(unnamed)
 Sect OctLoc
  16     000   000001 000000   000000 006000   000002 000000   000000 000001    ................
  16     004   000020 006000   000003 006000   000000 000000   000003 000000    ................
  16     010   000000 000143   000010 006000   000021 006000   000006 006000    ...c............
  16     014   000000 000007   000014 006000   000006 006000   000000 000002    ................
  16     020   000017 006000   077777 777777                                    ....?...
       68      360
       69      361    1   END ZIG$D_EXEC;

PL6.E3A0      #001=ZIG$D_EXEC File=ZIG$D_EXEC.:ZIC0TSI                           FRI 09/05/97 11:58 Page:13
--  Include file information  --

   ZIG_DIR_STRUCS.:ZIC0TOU  cannot be made into a system file and is referenced.
   B$JIT_C.:E05TOU  was found in the system file and is referenced.
   CP_6_C.:E05TOU  was found in the system file and is never referenced.
      No diagnostics issued in procedure ZIG$D_EXEC.

   Procedure ZIG$D_EXEC requires 72 words for executable code.
   Procedure ZIG$D_EXEC requires 4 words of local(AUTO) storage.

    No errors detected in file ZIG$D_EXEC.:ZIC0TSI    .
PL6.E3A0      #001=ZIG$D_EXEC File=ZIG$D_EXEC.:ZIC0TSI                           FRI 09/05/97 11:58 Page:14
          *** CROSS REFERENCE LISTING ***
**     DENOTES     IDENTIFIER DEFINITION
<<                 IDENTIFIER'S VALUE SET
>>                 IDENTIFIER'S VALUE USED
<>                 IDENTIFIER SET AND/OR USED
--                 IDENTIFIER REFERENCED
PL6.E3A0      #001=ZIG$D_EXEC File=ZIG$D_EXEC.:ZIC0TSI                           FRI 09/05/97 11:58 Page:15
          MINI XREF LISTING

ALT_FREE
       359**LABEL     331--CALLALT   345--CALLALT   351--CALLALT
B$JIT.CPFLAGS1.SLEAZE
       240**DCL       240--REDEF
B$JIT.ERR.MID
       147**DCL       147--REDEF
B$JIT.PRFLAGS.COMMENT
       230**DCL       340>>IF
B$JIT.PRFLAGS.LIST
       230**DCL       340>>IF
B$JIT$
       321**DCL       141--IMP-PTR   340>>IF        340>>IF
ERX
       306**DCL       322<<ASSIGN
FIRST_HYPHEN
       307**DCL       323<<ASSIGN
FIRST_SET_ERROR
       308**DCL       324<<ASSIGN
NO_ERRORS
       320**DCL       330>>IF        343>>IF        350>>IF
STRAN.STATUS
       110**DCL       354<<ASSIGN
STRAN.XREF
       111**DCL       334>>IF
SUBLST
       310**DCL-ENT   325--CALL
SYS_MSG
       319**DCL-ENT   353--CALL
UCLOSE
       312**DCL-ENT   329--CALL
UOPEN
       311**DCL-ENT   326--CALL
PL6.E3A0      #001=ZIG$D_EXEC File=ZIG$D_EXEC.:ZIC0TSI                           FRI 09/05/97 11:58 Page:16
ZIG$COMP
       309**DCL-ENT   328--CALL
ZIG$D_ELIST
       317**DCL-ENT   349--CALL
ZIG$D_END
       315**DCL-ENT   332--CALL
ZIG$D_PAS2
       314**DCL-ENT   331--CALL
ZIG$D_PDRI
       313**DCL-ENT   327--CALL
ZIG$D_XREF
       316**DCL-ENT   335--CALL
ZIG$FREE
       318**DCL-ENT   345--CALL      351--CALL
