
PL6.E3A0      #001=ZIG$D_FAIL File=ZIG$D_FAIL.:ZIC0TSI                           FRI 09/05/97 11:58 Page:1
        1        1        /*M*     ZIG$D_FAIL    DDL TRANSLATE INTERFACE I-D-S/II  DBACS */
        2        2        /*T***********************************************************/
        3        3        /*T*                                                         */
        4        4        /*T* Copyright (c) Bull HN Information Systems Inc., 1997    */
        5        5        /*T*                                                         */
        6        6        /*T***********************************************************/
        7        7        /*P*
        8        8        NAME:    ZIG$D_FAIL
        9        9        PURPOSE: This subroutine is called from ZIG$D_PSET to handle parse
       10       10                 failures.
       11       11        */
       12       12        ZIG$D_FAIL:
       13       13            PROC (PARAN_CODE,PARAN);
       14       14        %INCLUDE CP_6;
       15       95        %INCLUDE CP_6_SUBS;
       16      635        %INCLUDE ZIG_DIR_STRUCS;
       17      765        %INCLUDE ZIG_GENERAL;
       18      873        %INCLUDE ZI_SUB_LANG;
       19     2588        %INCLUDE ZIG_DDL_INCL;
       20     2850         %PARSE_SCH_DDL;
       21     3009         %DDL_XLATE;
       22     3104        %INCLUDE ZIG_TYPE_SUBS;
       23     3119        %INCLUDE ZI_SUB4_CAN;
       24     3776        %UWA;
       25     4111        %INCLUDE ZIG_DBA_INT;
       26     4159        %INCLUDE ZI_ERRORS_SUBS;
       27     4679        %INCLUDE XU_MACRO_C;
       28     7785        %INCLUDE XU_SUBS_C;
       29     7877        %P$PCB(NAME=DDL_P,STCLASS=SYMREF);
       30     8078        %PARSE$PARAM(NAME=PARAN);
       31     8159        %PARSE$OUT(NAME=BLK,STCLASS=BASED);
       32     8204        %PARSE$SYM(NAME=SYM,STCLASS=BASED);
       33     8242        %EQU ERR_SEV = 2;
       34     8243        %FPT_EXIT(STEPCC=3,STCLASS=CONSTANT);
       35     8258    1   DCL ZIG$DDER ENTRY(1);
       36     8259    1   DCL ZIG$D_DIAG ENTRY(3);
       37     8260    1   DCL PARAN_CODE UBIN WORD;
PL6.E3A0      #001=ZIG$D_FAIL File=ZIG$D_FAIL.:ZIC0TSI                           FRI 09/05/97 11:58 Page:2
       38     8261    1   DCL LINE CHAR (4000) EXT;
       39     8262    1   DCL J UBIN (36);
       40     8263    1   DCL LINE_COUNT UBIN WORD EXT;
       41     8264    1       LNO = LINE_COUNT - 1;
       42     8265        /* PUT OUT ARROW INDICATOR */
       43     8266    1       J=PARAN.CHARPOS;
       44     8267    2       DO WHILE (SUBSTR(LINE,J-1,1)=' ');
       45     8268    2           J=J+1;
       46     8269    2           END;
       47     8270    2       DO WHILE (SUBSTR(LINE,J-1,1)~=' ');
       48     8271    2           J=J+1;
       49     8272    2           END;
       50     8273    1       FIELD1.COUNT1=J-PARAN.CHARPOS;
       51     8274    1       FIELD1.TEXT1=SUBSTR(LINE,PARAN.CHARPOS-1,FIELD1.COUNT1);
       52     8275    2       DO CASE(PARAN_CODE);
       53     8276    2       CASE(%SCHEMA_DDL);
       54     8277    2           FIELD1.COUNT1 = 11;
       55     8278    2           FIELD1.TEXT1 = 'SCHEMA NAME';
       56     8279    2           CALL ZIG$DDER(%CL_SYN_ERR);
       57     8280    2           CALL ZIG$DDER(%STOP_DDL_PARSE);
       58     8281         /*E*  ERROR: ZIG-%STOP_DDL_PARSE-C
       59     8282             MESSAGE: Parsing of the DDL has been stopped due to this error.
       60     8283             */
       61     8284    2           CALL M$EXIT(FPT_EXIT);
       62     8285    2       CASE(%SCH_NM);
       63     8286    2           CALL ZIG$D_DIAG(LINE_COUNT - 1,%ERR_SEV,%DDL_ILL_CHAR);
       64     8287         /*E*  ERROR: ZIG-%DDL_ILL_CHAR-C
       65     8288             MESSAGE: The name above contains an illegal character.
       66     8289              */
       67     8290    2       CASE(%ALTER,%LKS,%DISPLAY,%COPY);
       68     8291    2           CALL ZIG$D_DIAG(LINE_COUNT - 1,%ERR_SEV,%INV_SCHLK_TYPE);
       69     8292         /*E*  ERROR: ZIG-%INV_SCHLK_TYPE-C
       70     8293              MESSAGE: Valid schema lock types are LOCKS, DISPLAY, COPY,
       71     8294                       and ALTER, not %U1.
       72     8295              */
       73     8296    2       CASE(%SCH_LCK_NM);
       74     8297    2           CALL ZIG$D_DIAG(LINE_COUNT - 1,%ERR_SEV,%DDL_ILL_CHAR);
PL6.E3A0      #001=ZIG$D_FAIL File=ZIG$D_FAIL.:ZIC0TSI                           FRI 09/05/97 11:58 Page:3
       75     8298    2       CASE(%MPRIV,%RPRIV,%IPRIV,%SPRIV);
       76     8299    2           FIELD1.COUNT1 = 7;
       77     8300    2           FIELD1.TEXT1 = 'PRIVACY';
       78     8301    2           CALL ZIG$D_DIAG(LINE_COUNT - 1,%ERR_SEV,%CL_SYN_ERR);
       79     8302    2       CASE(%OTHER_DDL);
       80     8303    2           CALL ZIG$D_DIAG(LINE_COUNT - 1,%ERR_SEV,%DDL_ILL_CHAR);
       81     8304    2       CASE(%AC_ENT);
       82     8305    2           FIELD1.COUNT1 = 4;
       83     8306    2           FIELD1.TEXT1 = 'AREA';
       84     8307    2           CALL ZIG$D_DIAG(LINE_COUNT - 1,%ERR_SEV,%CL_SYN_ERR);
       85     8308    2       CASE(%AC_NM);
       86     8309    2           CALL ZIG$D_DIAG(LINE_COUNT - 1,%ERR_SEV,%DDL_ILL_CHAR);
       87     8310    2       CASE(%TEMP_CL);
       88     8311    2           FIELD1.COUNT1 = 9;
       89     8312    2           FIELD1.TEXT1 = 'TEMPORARY';
       90     8313    2           CALL ZIG$D_DIAG(LINE_COUNT - 1,%ERR_SEV,%CL_SYN_ERR);
       91     8314         /*E* ERROR: ZIG-%CL_SYN_ERR-C
       92     8315              MESSAGE: Syntax error in %U1 clause.
       93     8316              */
       94     8317    2       CASE(%REC_ENT);
       95     8318    2           FIELD1.COUNT1 = 6;
       96     8319    2           FIELD1.TEXT1 = 'RECORD';
       97     8320    2           CALL ZIG$D_DIAG(LINE_COUNT - 1,%ERR_SEV,%CL_SYN_ERR);
       98     8321    2       CASE(%REC_NM);
       99     8322    2           CALL ZIG$D_DIAG(LINE_COUNT - 1,%ERR_SEV,%DDL_ILL_CHAR);
      100     8323    2       CASE(%DIR_FR,%DIR_QRC,%DIR_QFR,%CLC_QRC,%CLC_QFR,%CLC_FR);
      101     8324    2           CALL ZIG$D_DIAG(LINE_COUNT - 1,%ERR_SEV,%DDL_ILL_CHAR);
      102     8325    2       CASE(%ANY);
      103     8326    2           FIELD1.COUNT1 = 3;
      104     8327    2           FIELD1.TEXT1 = 'ANY';
      105     8328    2           CALL ZIG$D_DIAG(LINE_COUNT - 1,%ERR_SEV,%CL_SYN_ERR);
      106     8329    2       CASE(%NOT1,%NOT2,%NOT3);
      107     8330    2           CALL ZIG$D_DIAG(LINE_COUNT - 1,%ERR_SEV,%SCHDDL_NOT);
      108     8331         /*E* ERROR: ZIG-%SCHDDL_NOT-C
      109     8332              MESSAGE: The word NOT is either misspelled or missing.
      110     8333              */
      111     8334    2       CASE(%VIA_SC_NM,%INDX_KEY_NM);
PL6.E3A0      #001=ZIG$D_FAIL File=ZIG$D_FAIL.:ZIC0TSI                           FRI 09/05/97 11:58 Page:4
      112     8335    2           CALL ZIG$D_DIAG(LINE_COUNT - 1,%ERR_SEV,%DDL_ILL_CHAR);
      113     8336    2       CASE(%W_CL,%SINGLE_AC,%MULT_ACS,%AC_LIST,%W_AC_FIR);
      114     8337    2           FIELD1.COUNT1 = 6;
      115     8338    2           FIELD1.TEXT1 = 'WITHIN';
      116     8339    2           CALL ZIG$D_DIAG(LINE_COUNT - 1,%ERR_SEV,%CL_SYN_ERR);
      117     8340    2       CASE(%W_AC_NM,%EX_AC_NM);
      118     8341    2           CALL ZIG$D_DIAG(LINE_COUNT - 1,%ERR_SEV,%DDL_ILL_CHAR);
      119     8342    2       CASE(%AC_ID);
      120     8343    2           FIELD1.COUNT1 = 10;
      121     8344    2           FIELD1.TEXT1 = 'AREA_ID IS';
      122     8345    2           CALL ZIG$D_DIAG(LINE_COUNT - 1,%ERR_SEV,%CL_SYN_ERR);
      123     8346    2       CASE(%AC_ID_NM);
      124     8347    2           CALL ZIG$D_DIAG(LINE_COUNT - 1,%ERR_SEV,%DDL_ILL_CHAR);
      125     8348    2       CASE(%INSERT,%REMOVE,%STORE,%DELETE,%GET,%MODIFY,%FIND);
      126     8349    2           CALL ZIG$D_DIAG(LINE_COUNT - 1,%ERR_SEV,%INV_RECLK_TYPE);
      127     8350         /*E* ERROR: ZIG-%INV_RECLK_TYPE-C
      128     8351              MESSAGE: Valid record lock types are INSERT, REMOVE, STORE,
      129     8352                       DELETE, GET, MODIFY, or FIND, not %U1.
      130     8353              */
      131     8354    2       CASE(%REC_LCK_NM,%ALT_KEY_NM,%AKC_QFR,%AKC_QRC,%AKC_FR);
      132     8355    2           CALL ZIG$D_DIAG(LINE_COUNT - 1,%ERR_SEV,%DDL_ILL_CHAR);
      133     8356    2       CASE(%FR_ENT);
      134     8357    2           CALL ZIG$D_DIAG(LINE_COUNT - 1,%ERR_SEV,%FR_ENTRY_ERR);
      135     8358         /*E* ERROR: ZIG-%FR_ENTRY_ERR-C
      136     8359              MESSAGE: Expected to see a level number followed by a field
      137     8360                       entry and '.'.
      138     8361              */
      139     8362    2       CASE(%LEVEL_NUM,%FR_NM);
      140     8363    2           CALL ZIG$D_DIAG(LINE_COUNT - 1,%ERR_SEV,%DDL_ILL_CHAR);
      141     8364    2       CASE(%FIXED,%FLOAT,%BINARY,%BIN_INT,%DEC_INT,%PLUS,%MINUS,
      142     8365    2              %SCALE_INT,%SIGNED,%CHAR_INT,%VARYING,%DBKEY,%UNSPEC_INT);
      143     8366    2           FIELD1.COUNT1 = 7;
      144     8367    2           FIELD1.TEXT1 = 'TYPE IS';
      145     8368    2           CALL ZIG$D_DIAG(LINE_COUNT - 1,%ERR_SEV,%CL_SYN_ERR);
      146     8369    2       CASE(%DGET,%DMODIFY);
      147     8370    2           CALL ZIG$D_DIAG(LINE_COUNT - 1,%ERR_SEV,%INV_FRLK_TYPE);
      148     8371         /*E* ERROR: ZIG-%INV_FRLK_TYPE-C
PL6.E3A0      #001=ZIG$D_FAIL File=ZIG$D_FAIL.:ZIC0TSI                           FRI 09/05/97 11:58 Page:5
      149     8372              MESSAGE: The only valid field lock types are GET or MODIFY,
      150     8373                       not %U1.
      151     8374              */
      152     8375    2       CASE(%FR_LCK_NM);
      153     8376    2           CALL ZIG$D_DIAG(LINE_COUNT - 1,%ERR_SEV,%DDL_ILL_CHAR);
      154     8377    2       CASE(%SC_ENT);
      155     8378    2           FIELD1.COUNT1 = 3;
      156     8379    2           FIELD1.TEXT1 = 'SET';
      157     8380    2           CALL ZIG$D_DIAG(LINE_COUNT - 1,%ERR_SEV,%CL_SYN_ERR);
      158     8381    2       CASE(%SC_NM,%OWN_REC_NM);
      159     8382    2           CALL ZIG$D_DIAG(LINE_COUNT - 1,%ERR_SEV,%DDL_ILL_CHAR);
      160     8383    2       CASE(%PRIOR_CL);
      161     8384    2           FIELD1.COUNT1 = 5;
      162     8385    2           FIELD1.TEXT1 = 'PRIOR';
      163     8386    2           CALL ZIG$D_DIAG(LINE_COUNT - 1,%ERR_SEV,%CL_SYN_ERR);
      164     8387    2       CASE(%ORDER_CL,%PERM);
      165     8388    2           FIELD1.COUNT1 = 5;
      166     8389    2           FIELD1.TEXT1 = 'ORDER';
      167     8390    2           CALL ZIG$D_DIAG(LINE_COUNT - 1,%ERR_SEV,%CL_SYN_ERR);
      168     8391    2       CASE(%FIRST,%LAST,%NEXT,%PRIOR,%IN_REC);
      169     8392    2           CALL ZIG$D_DIAG(LINE_COUNT - 1,%ERR_SEV,%INV_INSRT_CLS);
      170     8393         /*E* ERROR: ZIG-%INV_INSRT_CLS-C
      171     8394              MESSAGE: Accepted options are FIRST, LAST, NEXT, PRIOR, SORTED
      172     8395                       WITHIN RECORD NAME or SORTED BY DEFINED KEYS, not %U1.
      173     8396              */
      174     8397    2       CASE(%BY_KEY);
      175     8398    2           FIELD1.COUNT1 = 9;
      176     8399    2           FIELD1.TEXT1 = 'SORTED BY';
      177     8400    2           CALL ZIG$D_DIAG(LINE_COUNT - 1,%ERR_SEV,%CL_SYN_ERR);
      178     8401    2       CASE(%SFIRST,%SLAST,%S_NOT);
      179     8402    2           FIELD1.COUNT1 = 10;
      180     8403    2           FIELD1.TEXT1 = 'DUPLICATES';
      181     8404    2           CALL ZIG$D_DIAG(LINE_COUNT - 1,%ERR_SEV,%CL_SYN_ERR);
      182     8405    2       CASE(%SINSERT,%SREMOVE,%SFIND);
      183     8406    2           CALL ZIG$D_DIAG(LINE_COUNT - 1,%ERR_SEV,%INV_SETLK_TYPE);
      184     8407         /*E* ERROR: ZIG-%INV_SETLK_TYPE-C
      185     8408              MESSAGE: Valid set lock types are INSERT, REMOVE, or FIND,
PL6.E3A0      #001=ZIG$D_FAIL File=ZIG$D_FAIL.:ZIC0TSI                           FRI 09/05/97 11:58 Page:6
      186     8409                       not %U1.
      187     8410              */
      188     8411    2       CASE(%SC_LCK_NM,%MEM_REC_NM);
      189     8412    2           CALL ZIG$D_DIAG(LINE_COUNT - 1,%ERR_SEV,%DDL_ILL_CHAR);
      190     8413    2       CASE(%MEM_ENT);
      191     8414    2           FIELD1.COUNT1 = 6;
      192     8415    2           FIELD1.TEXT1 = 'MEMBER';
      193     8416    2           CALL ZIG$D_DIAG(LINE_COUNT - 1,%ERR_SEV,%CL_SYN_ERR);
      194     8417    2       CASE(%AUTO,%MANUAL);
      195     8418    2           CALL ZIG$D_DIAG(LINE_COUNT - 1,%ERR_SEV,%INV_MEM_INS_OPT);
      196     8419         /*E* ERROR: ZIG-%INV_MEM_INS_OPT-C
      197     8420              MESSAGE: Valid insertion options are AUTO[MATIC] or MAN[UAL],
      198     8421                       not %U1.
      199     8422              */
      200     8423    2       CASE(%MANDATORY,%OPTIONAL);
      201     8424    2           CALL ZIG$D_DIAG(LINE_COUNT - 1,%ERR_SEV,%INV_MEM_RET_OPT);
      202     8425         /*E* ERROR: ZIG-%INV_MEM_RET_OPT-C
      203     8426              MESSAGE: Valid retention options are MAND[ATORY] or OPT[IONAL],
      204     8427                       not %U1.
      205     8428              */
      206     8429    2       CASE(%LINKED);
      207     8430    2           FIELD1.COUNT1 = 6;
      208     8431    2           FIELD1.TEXT1 = 'LINKED';
      209     8432    2           CALL ZIG$D_DIAG(LINE_COUNT - 1,%ERR_SEV,%CL_SYN_ERR);
      210     8433    2       CASE(%DUP_QRC,%DUP_QFR,%DUP_FR);
      211     8434    2           CALL ZIG$D_DIAG(LINE_COUNT - 1,%ERR_SEV,%DDL_ILL_CHAR);
      212     8435    2       CASE(%SORTKEY_CL);
      213     8436    2           FIELD1.COUNT1 = 6;
      214     8437    2           FIELD1.TEXT1 = 'KEY IS';
      215     8438    2           CALL ZIG$D_DIAG(LINE_COUNT - 1,%ERR_SEV,%CL_SYN_ERR);
      216     8439    2       CASE(%ASCENDING,%DESCENDING);
      217     8440    2           CALL ZIG$D_DIAG(LINE_COUNT - 1,%ERR_SEV,%INV_SORTK_OPT);
      218     8441         /*E*  ERROR: ZIG-%INV_SORTK_OPT-C
      219     8442              MESSAGE: Sort keys must be in either ASCENDING or DESCENDING order.
      220     8443              */
      221     8444    2       CASE(%SKC_QFR,%SKC_QRC,%SKC_FR);
      222     8445    2           CALL ZIG$D_DIAG(LINE_COUNT - 1,%ERR_SEV,%DDL_ILL_CHAR);
PL6.E3A0      #001=ZIG$D_FAIL File=ZIG$D_FAIL.:ZIC0TSI                           FRI 09/05/97 11:58 Page:7
      223     8446    2       CASE(%MFIRST,%MLAST,%MNOT);
      224     8447    2           CALL ZIG$D_DIAG(LINE_COUNT - 1,%ERR_SEV,%INV_DUPS_ARE);
      225     8448         /*E*  ERROR: ZIG-%INV_DUPS_ARE-C
      226     8449              MESSAGE:  Duplicates must be specified as being FIRST, LAST, or
      227     8450                        NOT ALLOWED.
      228     8451              */
      229     8452    2       CASE(%SEL_PHR);
      230     8453    2           FIELD1.COUNT1 = 13;
      231     8454    2           FIELD1.TEXT1 = 'SET SELECTION';
      232     8455    2           CALL ZIG$D_DIAG(LINE_COUNT - 1,%ERR_SEV,%CL_SYN_ERR);
      233     8456    2       CASE(%FOR_SC_NM,%SEL_SC_NM);
      234     8457    2           CALL ZIG$D_DIAG(LINE_COUNT - 1,%ERR_SEV,%DDL_ILL_CHAR);
      235     8458    2       CASE(%OWN_ID_PHR,%APPLICATION,%DBK_ONLY);
      236     8459    2           FIELD1.COUNT1 = 8;
      237     8460    2           FIELD1.TEXT1 = 'OWNER ID';
      238     8461    2           CALL ZIG$D_DIAG(LINE_COUNT - 1,%ERR_SEV,%CL_SYN_ERR);
      239     8462    2       CASE(%DEQ_QRC,%DEQ_QFR,%DEQ_FR,%MEM_SEL_REC_NM,%SELEC_SC_NM,
      240     8463    2              %CEQ_QRC,%CEQ_QFR,%CEQ_FR);
      241     8464    2           CALL ZIG$D_DIAG(LINE_COUNT - 1,%ERR_SEV,%DDL_ILL_CHAR);
      242     8465    2       CASE(%WHR_QRC,%WHR_QFR,%WHR_FR,%WEQ_QRC,%WEQ_QFR,%WEQ_FR);
      243     8466    2           CALL ZIG$D_DIAG(LINE_COUNT - 1,%ERR_SEV,%DDL_ILL_CHAR);
      244     8467    2       CASE(%END_SCH);
      245     8468    2           CALL ZIG$D_DIAG(LINE_COUNT - 1,%ERR_SEV,%END_SCH_ERR);
      246     8469         /*E*  ERROR: ZIG-%END_SCH_ERR-C
      247     8470              MESSAGE: The END_SCHEMA phrase is either misspelled or missing.
      248     8471              */
      249     8472    2       CASE(%PERIOD,%SCH_PERIOD,%AC_PERIOD,%RC_PERIOD,%FR_PERIOD,
      250     8473    2              %SC_PERIOD,%MEM_PERIOD);
      251     8474    2           CALL ZIG$D_DIAG(LINE_COUNT - 1,%ERR_SEV,%SCHDDL_NO_PER);
      252     8475         /*E*  ERROR: ZIG-%SCHDDL_NO_PER-C
      253     8476              MESSAGE: A '.' (period) is required but not found.
      254     8477              */
      255     8478    2           END;
      256     8479    1       RETURN;
      257     8480    1   END ZIG$D_FAIL;

PL6.E3A0      #001=ZIG$D_FAIL File=ZIG$D_FAIL.:ZIC0TSI                           FRI 09/05/97 11:58 Page:8
--  Include file information  --

   XU_SUBS_C.:LIB_E05  is referenced.
   XU_MACRO_C.:LIB_E05  is referenced.
   ZI_ERRORS_SUBS.:ZIC0TOU  is referenced.
   ZIG_DBA_INT.:ZIC0TOU  cannot be made into a system file and is referenced.
   ZI_SUB4_CAN.:ZIC0TOU  is referenced.
   ZIG_TYPE_SUBS.:ZIC0TOU  is referenced.
   ZIG_DDL_INCL.:ZIC0TOU  is referenced.
   ZI_SUB_LANG.:ZIC0TOU  is referenced.
   ZIG_GENERAL.:ZIC0TOU  cannot be made into a system file and is referenced.
   ZIG_DIR_STRUCS.:ZIC0TOU  cannot be made into a system file and is referenced.
   CP_6_SUBS.:LIB_E05  is referenced.
   CP_6.:LIB_E05  cannot be made into a system file and is referenced.
   B$JIT_C.:E05TOU  was found in the system file and is never referenced.
   CP_6_C.:E05TOU  was found in the system file and is referenced.
      No diagnostics issued in procedure ZIG$D_FAIL.

   Procedure ZIG$D_FAIL requires 1675 words for executable code.
   Procedure ZIG$D_FAIL requires 14 words of local(AUTO) storage.

    No errors detected in file ZIG$D_FAIL.:ZIC0TSI    .

PL6.E3A0      #001=ZIG$D_FAIL File=ZIG$D_FAIL.:ZIC0TSI                           FRI 09/05/97 11:58 Page:9

 Object Unit name= ZIG$D_FAIL                                 File name= ZIG$D_FAIL.:ZIC0TOU
 UTS= SEP 05 '97 11:58:19.48 FRI                              Compiler= PL-6/E31         Sev=      00
 SharedLib= :SHARED_SYSTEM                                    Alt SharedLib=


    ****  Control sections  ****

 Sect   Type Bound  Init  Size OctSiz  Section name(segment info)
    0   DCB   even  none     0      0  M$UC
    1  LblCom even  none    12     14  ANALS
    2  LblCom even  none    13     15  PURGE
    3  LblCom even  none    19     23  DICTS
    4  LblCom even  none    23     27  DISPS
    5  LblCom even  none    22     26  VALIDS
    6  LblCom even  none    12     14  LOCKS
    7  LblCom even  none    10     12  STRAN
    8  LblCom even  none    12     14  DTRAN
    9  LblCom even  none    16     20  SSTRANS
   10  LblCom even  none    20     24  SSGEN
   11  LblCom even  none     1      1  NUM_ERROR_MSG
   12  LblCom even  none     1      1  NUM_WARN_MSG
   13  LblCom even  none     1      1  ALLOCATE_END
   14  LblCom even  none     2      2  SUBSCHEMA_KEY
   15  LblCom even  none     1      1  BUFFER$
   16  LblCom even  none     1      1  ERROR_IO
   17  LblCom even  none     1      1  BUFFER_LEN
   18  LblCom even  none     2      2  UWA_KEY
   19  LblCom even  none     1      1  NEXT_UWA_SECOND_HALF
   20  LblCom even  none     2      2  RVA_KEY
   21  LblCom even  none     2      2  IA__KEY
   22  LblCom even  none     1      1  NEXT_RVA_SECOND_HALF
   23  LblCom even  none    32     40  SEARCHR_NB
   24  LblCom even  none    32     40  SEM_COM
   25  LblCom even  none    32     40  DMCL_XLATE
   26  LblCom even  none    32     40  Q2_PERCENT
   27  LblCom even  none     1      1  NUMB_RECORD_SN
   28  LblCom even  none     1      1  NUMB_FIELD_SN
PL6.E3A0      #001=ZIG$D_FAIL File=ZIG$D_FAIL.:ZIC0TSI                           FRI 09/05/97 11:58 Page:10
   29  LblCom even  none     1      1  NUMB_SET_SN
   30  LblCom even  none     1      1  RECORD$
   31  LblCom even  none     1      1  FIELD$
   32  LblCom even  none     1      1  SET$
   33  LblCom even  none     1      1  DYNMEM_START$
   34   Data  even  none    13     15  ZIG$D_FAIL
   35  LblCom even  none     1      1  DBK_STAR_DBPARAM_RC
   36  LblCom even  none     1      1  DBK_SO_CALC
   37  LblCom even  none     1      1  LAST_DEF_SET_DBK
   38  LblCom even  none     1      1  LAST_DEF_REC_DBK
   39  LblCom even  none     8     10  FIELD1
   40  LblCom even  none   656   1220  UWA
   41  RoData even  UTS     48     60  ZIG$D_FAIL
   42  LblCom even  none  1000   1750  LINE
   43  LblCom even  none     1      1  LINE_COUNT
   44   Proc  even  none  1675   3213  ZIG$D_FAIL
   45  RoData even  none    52     64  ZIG$D_FAIL

    ****  Entry defs  ****

                              Check   Calling
                             calling  sequence
  Sect OctLoc Primary Altret sequence   type   Parms  Name
    44      0   yes            yes      Std        2  ZIG$D_FAIL

  ****  Entry refs  ****

         Check        Calling
        calling       sequence
Altret sequence SRef   type   Args  Name
         yes           Std       1 ZIG$DDER
         yes           Std       3 ZIG$D_DIAG
                       nStd      0 X66_AUTO_2
                       nStd      0 X66_ARET
PL6.E3A0      #001=ZIG$D_FAIL File=ZIG$D_FAIL.:ZIC0TSI                           FRI 09/05/97 11:58 Page:11

  ****  Data refs  ****

  Flags:  r = read only, s = secondary
Flgs Name                             Flgs Name                             Flgs Name
     M$UC                                  DDL_P

  ****  Segment refs  ****

  Flags:  r = read only, s = secondary
Flgs Name                             Flgs Name                             Flgs Name
     ISSID                                 NULLSID
PL6.E3A0      #001=ZIG$D_FAIL File=ZIG$D_FAIL.:ZIC0TSI                           FRI 09/05/97 11:58 Page:12


        1        1        /*M*     ZIG$D_FAIL    DDL TRANSLATE INTERFACE I-D-S/II  DBACS */
        2        2        /*T***********************************************************/
        3        3        /*T*                                                         */
        4        4        /*T* Copyright (c) Bull HN Information Systems Inc., 1997    */
        5        5        /*T*                                                         */
        6        6        /*T***********************************************************/
        7        7        /*P*
        8        8        NAME:    ZIG$D_FAIL
        9        9        PURPOSE: This subroutine is called from ZIG$D_PSET to handle parse
       10       10                 failures.
       11       11        */
       12       12        ZIG$D_FAIL:
       13       13            PROC (PARAN_CODE,PARAN);

     13 44 000000   000000 700200 xent  ZIG$D_FAIL   TSX0  ! X66_AUTO_2
        44 000001   000016 000002                    ZERO    14,2

       14       14        %INCLUDE CP_6;
       15       95        %INCLUDE CP_6_SUBS;
       16      635        %INCLUDE ZIG_DIR_STRUCS;
       17      765        %INCLUDE ZIG_GENERAL;
       18      873        %INCLUDE ZI_SUB_LANG;
       19     2588        %INCLUDE ZIG_DDL_INCL;
       20     2850         %PARSE_SCH_DDL;
       21     3009         %DDL_XLATE;
       22     3104        %INCLUDE ZIG_TYPE_SUBS;
       23     3119        %INCLUDE ZI_SUB4_CAN;
       24     3776        %UWA;
       25     4111        %INCLUDE ZIG_DBA_INT;
       26     4159        %INCLUDE ZI_ERRORS_SUBS;
       27     4679        %INCLUDE XU_MACRO_C;
       28     7785        %INCLUDE XU_SUBS_C;
       29     7877        %P$PCB(NAME=DDL_P,STCLASS=SYMREF);
       30     8078        %PARSE$PARAM(NAME=PARAN);
       31     8159        %PARSE$OUT(NAME=BLK,STCLASS=BASED);
       32     8204        %PARSE$SYM(NAME=SYM,STCLASS=BASED);
PL6.E3A0      #001=ZIG$D_FAIL File=ZIG$D_FAIL.:ZIC0TSI                           FRI 09/05/97 11:58 Page:13
       33     8242        %EQU ERR_SEV = 2;
       34     8243        %FPT_EXIT(STEPCC=3,STCLASS=CONSTANT);
       35     8258    1   DCL ZIG$DDER ENTRY(1);
       36     8259    1   DCL ZIG$D_DIAG ENTRY(3);
       37     8260    1   DCL PARAN_CODE UBIN WORD;
       38     8261    1   DCL LINE CHAR (4000) EXT;
       39     8262    1   DCL J UBIN (36);
       40     8263    1   DCL LINE_COUNT UBIN WORD EXT;
       41     8264    1       LNO = LINE_COUNT - 1;

   8264 44 000002   000000 235000 43                 LDA     LINE_COUNT
        44 000003   000001 135007                    SBLA    1,DL
        44 000004   200007 755100                    STA     LNO,,AUTO

       42     8265        /* PUT OUT ARROW INDICATOR */
       43     8266    1       J=PARAN.CHARPOS;

   8266 44 000005   200004 470500                    LDP0    @PARAN,,AUTO
        44 000006   000004 235100                    LDA     4,,PR0
        44 000007   200010 755100                    STA     J,,AUTO

       44     8267    2       DO WHILE (SUBSTR(LINE,J-1,1)=' ');

   8267 44 000010   000014 710000 44                 TRA     s:8269

       45     8268    2           J=J+1;

   8268 44 000011   200010 235100                    LDA     J,,AUTO
        44 000012   000001 035007                    ADLA    1,DL
        44 000013   200010 755100                    STA     J,,AUTO

       46     8269    2           END;

   8269 44 000014   040000 106405                    CMPC    fill='040'O
        44 000015   777777 600001 42                 ADSC9   LINE-1,A                 cn=3,n=1
        44 000016   000000 000001 45                 ADSC9   0                        cn=0,n=1
        44 000017   000011 600000 44                 TZE     s:8268
PL6.E3A0      #001=ZIG$D_FAIL File=ZIG$D_FAIL.:ZIC0TSI                           FRI 09/05/97 11:58 Page:14

       47     8270    2       DO WHILE (SUBSTR(LINE,J-1,1)~=' ');

   8270 44 000020   000024 710000 44                 TRA     s:8272

       48     8271    2           J=J+1;

   8271 44 000021   200010 235100                    LDA     J,,AUTO
        44 000022   000001 035007                    ADLA    1,DL
        44 000023   200010 755100                    STA     J,,AUTO

       49     8272    2           END;

   8272 44 000024   040000 106405                    CMPC    fill='040'O
        44 000025   777777 600001 42                 ADSC9   LINE-1,A                 cn=3,n=1
        44 000026   000000 000001 45                 ADSC9   0                        cn=0,n=1
        44 000027   000021 601000 44                 TNZ     s:8271

       50     8273    1       FIELD1.COUNT1=J-PARAN.CHARPOS;

   8273 44 000030   200004 470500                    LDP0    @PARAN,,AUTO
        44 000031   200010 236100                    LDQ     J,,AUTO
        44 000032   000004 136100                    SBLQ    4,,PR0
        44 000033   000033 736000                    QLS     27
        44 000034   000000 552040 39                 STBQ    FIELD1,'40'O

       51     8274    1       FIELD1.TEXT1=SUBSTR(LINE,PARAN.CHARPOS-1,FIELD1.COUNT1);

   8274 44 000035   000004 235100                    LDA     4,,PR0
        44 000036   000000 236000 39                 LDQ     FIELD1
        44 000037   000033 772000                    QRL     27
        44 000040   000000 620006                    EAX0    0,QL
        44 000041   040000 100445                    MLR     fill='040'O
        44 000042   777777 600010 42                 ADSC9   LINE-1,A                 cn=3,n=*X0
        44 000043   000000 200037 39                 ADSC9   FIELD1                   cn=1,n=31

       52     8275    2       DO CASE(PARAN_CODE);
PL6.E3A0      #001=ZIG$D_FAIL File=ZIG$D_FAIL.:ZIC0TSI                           FRI 09/05/97 11:58 Page:15

   8275 44 000044   200003 471500                    LDP1    @PARAN_CODE,,AUTO
        44 000045   100000 235100                    LDA     0,,PR1
        44 000046   001637 115007                    CMPA    927,DL
        44 000047   000051 602005 44                 TNC     s:8275+5,AL
        44 000050   003212 710000 44                 TRA     s:8479
        44 000051   001710 710000 44                 TRA     s:8277
        44 000052   001731 710000 44                 TRA     s:8286
        44 000053   001745 710000 44                 TRA     s:8291
        44 000054   001745 710000 44                 TRA     s:8291
        44 000055   001745 710000 44                 TRA     s:8291
        44 000056   001745 710000 44                 TRA     s:8291
        44 000057   001761 710000 44                 TRA     s:8297
        44 000060   002016 710000 44                 TRA     s:8303
        44 000061   002032 710000 44                 TRA     s:8305
        44 000062   002053 710000 44                 TRA     s:8309
        44 000063   002067 710000 44                 TRA     s:8311
        44 000064   002110 710000 44                 TRA     s:8318
        44 000065   002131 710000 44                 TRA     s:8322
        44 000066   003212 710000 44                 TRA     s:8479
        44 000067   003212 710000 44                 TRA     s:8479
        44 000070   003212 710000 44                 TRA     s:8479
        44 000071   003212 710000 44                 TRA     s:8479
        44 000072   003212 710000 44                 TRA     s:8479
        44 000073   002202 710000 44                 TRA     s:8330
        44 000074   002216 710000 44                 TRA     s:8335
        44 000075   002216 710000 44                 TRA     s:8335
        44 000076   002232 710000 44                 TRA     s:8337
        44 000077   002232 710000 44                 TRA     s:8337
        44 000100   002232 710000 44                 TRA     s:8337
        44 000101   002232 710000 44                 TRA     s:8337
        44 000102   002232 710000 44                 TRA     s:8337
        44 000103   002253 710000 44                 TRA     s:8341
        44 000104   002253 710000 44                 TRA     s:8341
        44 000105   002267 710000 44                 TRA     s:8343
        44 000106   002310 710000 44                 TRA     s:8347
        44 000107   003212 710000 44                 TRA     s:8479
PL6.E3A0      #001=ZIG$D_FAIL File=ZIG$D_FAIL.:ZIC0TSI                           FRI 09/05/97 11:58 Page:16
        44 000110   002324 710000 44                 TRA     s:8349
        44 000111   002324 710000 44                 TRA     s:8349
        44 000112   002324 710000 44                 TRA     s:8349
        44 000113   002324 710000 44                 TRA     s:8349
        44 000114   002324 710000 44                 TRA     s:8349
        44 000115   002324 710000 44                 TRA     s:8349
        44 000116   002324 710000 44                 TRA     s:8349
        44 000117   002340 710000 44                 TRA     s:8355
        44 000120   002340 710000 44                 TRA     s:8355
        44 000121   003212 710000 44                 TRA     s:8479
        44 000122   003212 710000 44                 TRA     s:8479
        44 000123   002202 710000 44                 TRA     s:8330
        44 000124   002354 710000 44                 TRA     s:8357
        44 000125   002370 710000 44                 TRA     s:8363
        44 000126   002370 710000 44                 TRA     s:8363
        44 000127   002404 710000 44                 TRA     s:8366
        44 000130   002404 710000 44                 TRA     s:8366
        44 000131   002404 710000 44                 TRA     s:8366
        44 000132   002404 710000 44                 TRA     s:8366
        44 000133   002404 710000 44                 TRA     s:8366
        44 000134   002404 710000 44                 TRA     s:8366
        44 000135   002404 710000 44                 TRA     s:8366
        44 000136   002404 710000 44                 TRA     s:8366
        44 000137   002404 710000 44                 TRA     s:8366
        44 000140   002404 710000 44                 TRA     s:8366
        44 000141   002404 710000 44                 TRA     s:8366
        44 000142   002404 710000 44                 TRA     s:8366
        44 000143   002404 710000 44                 TRA     s:8366
        44 000144   003212 710000 44                 TRA     s:8479
        44 000145   002425 710000 44                 TRA     s:8370
        44 000146   002425 710000 44                 TRA     s:8370
        44 000147   002441 710000 44                 TRA     s:8376
        44 000150   002455 710000 44                 TRA     s:8378
        44 000151   002476 710000 44                 TRA     s:8382
        44 000152   002476 710000 44                 TRA     s:8382
        44 000153   002554 710000 44                 TRA     s:8392
        44 000154   002554 710000 44                 TRA     s:8392
PL6.E3A0      #001=ZIG$D_FAIL File=ZIG$D_FAIL.:ZIC0TSI                           FRI 09/05/97 11:58 Page:17
        44 000155   002554 710000 44                 TRA     s:8392
        44 000156   002554 710000 44                 TRA     s:8392
        44 000157   002611 710000 44                 TRA     s:8402
        44 000160   002611 710000 44                 TRA     s:8402
        44 000161   002611 710000 44                 TRA     s:8402
        44 000162   002632 710000 44                 TRA     s:8406
        44 000163   002632 710000 44                 TRA     s:8406
        44 000164   002632 710000 44                 TRA     s:8406
        44 000165   002646 710000 44                 TRA     s:8412
        44 000166   002662 710000 44                 TRA     s:8414
        44 000167   002646 710000 44                 TRA     s:8412
        44 000170   002703 710000 44                 TRA     s:8418
        44 000171   002703 710000 44                 TRA     s:8418
        44 000172   002717 710000 44                 TRA     s:8424
        44 000173   002717 710000 44                 TRA     s:8424
        44 000174   002202 710000 44                 TRA     s:8330
        44 000175   003212 710000 44                 TRA     s:8479
        44 000176   003212 710000 44                 TRA     s:8479
        44 000177   003011 710000 44                 TRA     s:8440
        44 000200   003011 710000 44                 TRA     s:8440
        44 000201   003212 710000 44                 TRA     s:8479
        44 000202   003212 710000 44                 TRA     s:8479
        44 000203   003055 710000 44                 TRA     s:8453
        44 000204   003076 710000 44                 TRA     s:8457
        44 000205   003076 710000 44                 TRA     s:8457
        44 000206   003112 710000 44                 TRA     s:8459
        44 000207   003112 710000 44                 TRA     s:8459
        44 000210   003212 710000 44                 TRA     s:8479
        44 000211   003212 710000 44                 TRA     s:8479
        44 000212   003212 710000 44                 TRA     s:8479
        44 000213   003212 710000 44                 TRA     s:8479
        44 000214   003212 710000 44                 TRA     s:8479
        44 000215   003212 710000 44                 TRA     s:8479
        44 000216   003133 710000 44                 TRA     s:8464
        44 000217   003133 710000 44                 TRA     s:8464
        44 000220   003212 710000 44                 TRA     s:8479
        44 000221   003212 710000 44                 TRA     s:8479
PL6.E3A0      #001=ZIG$D_FAIL File=ZIG$D_FAIL.:ZIC0TSI                           FRI 09/05/97 11:58 Page:18
        44 000222   003212 710000 44                 TRA     s:8479
        44 000223   003212 710000 44                 TRA     s:8479
        44 000224   003212 710000 44                 TRA     s:8479
        44 000225   003163 710000 44                 TRA     s:8468
        44 000226   003177 710000 44                 TRA     s:8474
        44 000227   003177 710000 44                 TRA     s:8474
        44 000230   003177 710000 44                 TRA     s:8474
        44 000231   003177 710000 44                 TRA     s:8474
        44 000232   003177 710000 44                 TRA     s:8474
        44 000233   003177 710000 44                 TRA     s:8474
        44 000234   003177 710000 44                 TRA     s:8474
        44 000235   002161 710000 44                 TRA     s:8326
        44 000236   003112 710000 44                 TRA     s:8459
        44 000237   003212 710000 44                 TRA     s:8479
        44 000240   002770 710000 44                 TRA     s:8436
        44 000241   003212 710000 44                 TRA     s:8479
        44 000242   001775 710000 44                 TRA     s:8299
        44 000243   001775 710000 44                 TRA     s:8299
        44 000244   001775 710000 44                 TRA     s:8299
        44 000245   001775 710000 44                 TRA     s:8299
        44 000246   003212 710000 44                 TRA     s:8479
        44 000247   003212 710000 44                 TRA     s:8479
        44 000250   003212 710000 44                 TRA     s:8479
        44 000251   003212 710000 44                 TRA     s:8479
        44 000252   003212 710000 44                 TRA     s:8479
        44 000253   003212 710000 44                 TRA     s:8479
        44 000254   003212 710000 44                 TRA     s:8479
        44 000255   003212 710000 44                 TRA     s:8479
        44 000256   003212 710000 44                 TRA     s:8479
        44 000257   003212 710000 44                 TRA     s:8479
        44 000260   003212 710000 44                 TRA     s:8479
        44 000261   003212 710000 44                 TRA     s:8479
        44 000262   003212 710000 44                 TRA     s:8479
        44 000263   003212 710000 44                 TRA     s:8479
        44 000264   003212 710000 44                 TRA     s:8479
        44 000265   003212 710000 44                 TRA     s:8479
        44 000266   003212 710000 44                 TRA     s:8479
PL6.E3A0      #001=ZIG$D_FAIL File=ZIG$D_FAIL.:ZIC0TSI                           FRI 09/05/97 11:58 Page:19
        44 000267   003212 710000 44                 TRA     s:8479
        44 000270   003212 710000 44                 TRA     s:8479
        44 000271   003212 710000 44                 TRA     s:8479
        44 000272   003212 710000 44                 TRA     s:8479
        44 000273   003212 710000 44                 TRA     s:8479
        44 000274   003212 710000 44                 TRA     s:8479
        44 000275   003212 710000 44                 TRA     s:8479
        44 000276   003212 710000 44                 TRA     s:8479
        44 000277   003212 710000 44                 TRA     s:8479
        44 000300   003212 710000 44                 TRA     s:8479
        44 000301   003212 710000 44                 TRA     s:8479
        44 000302   003212 710000 44                 TRA     s:8479
        44 000303   003212 710000 44                 TRA     s:8479
        44 000304   003212 710000 44                 TRA     s:8479
        44 000305   003212 710000 44                 TRA     s:8479
        44 000306   003212 710000 44                 TRA     s:8479
        44 000307   003212 710000 44                 TRA     s:8479
        44 000310   003212 710000 44                 TRA     s:8479
        44 000311   003212 710000 44                 TRA     s:8479
        44 000312   003212 710000 44                 TRA     s:8479
        44 000313   003212 710000 44                 TRA     s:8479
        44 000314   003212 710000 44                 TRA     s:8479
        44 000315   003212 710000 44                 TRA     s:8479
        44 000316   003212 710000 44                 TRA     s:8479
        44 000317   003212 710000 44                 TRA     s:8479
        44 000320   003212 710000 44                 TRA     s:8479
        44 000321   003212 710000 44                 TRA     s:8479
        44 000322   003212 710000 44                 TRA     s:8479
        44 000323   003212 710000 44                 TRA     s:8479
        44 000324   003212 710000 44                 TRA     s:8479
        44 000325   003212 710000 44                 TRA     s:8479
        44 000326   003212 710000 44                 TRA     s:8479
        44 000327   003212 710000 44                 TRA     s:8479
        44 000330   003212 710000 44                 TRA     s:8479
        44 000331   003212 710000 44                 TRA     s:8479
        44 000332   003212 710000 44                 TRA     s:8479
        44 000333   003212 710000 44                 TRA     s:8479
PL6.E3A0      #001=ZIG$D_FAIL File=ZIG$D_FAIL.:ZIC0TSI                           FRI 09/05/97 11:58 Page:20
        44 000334   003212 710000 44                 TRA     s:8479
        44 000335   003212 710000 44                 TRA     s:8479
        44 000336   003212 710000 44                 TRA     s:8479
        44 000337   003212 710000 44                 TRA     s:8479
        44 000340   003212 710000 44                 TRA     s:8479
        44 000341   003212 710000 44                 TRA     s:8479
        44 000342   003212 710000 44                 TRA     s:8479
        44 000343   003212 710000 44                 TRA     s:8479
        44 000344   003212 710000 44                 TRA     s:8479
        44 000345   003212 710000 44                 TRA     s:8479
        44 000346   003212 710000 44                 TRA     s:8479
        44 000347   003212 710000 44                 TRA     s:8479
        44 000350   003212 710000 44                 TRA     s:8479
        44 000351   003212 710000 44                 TRA     s:8479
        44 000352   003212 710000 44                 TRA     s:8479
        44 000353   003212 710000 44                 TRA     s:8479
        44 000354   003212 710000 44                 TRA     s:8479
        44 000355   003212 710000 44                 TRA     s:8479
        44 000356   003212 710000 44                 TRA     s:8479
        44 000357   003212 710000 44                 TRA     s:8479
        44 000360   003212 710000 44                 TRA     s:8479
        44 000361   002533 710000 44                 TRA     s:8388
        44 000362   002512 710000 44                 TRA     s:8384
        44 000363   002533 710000 44                 TRA     s:8388
        44 000364   002733 710000 44                 TRA     s:8430
        44 000365   003212 710000 44                 TRA     s:8479
        44 000366   003212 710000 44                 TRA     s:8479
        44 000367   003212 710000 44                 TRA     s:8479
        44 000370   003212 710000 44                 TRA     s:8479
        44 000371   003212 710000 44                 TRA     s:8479
        44 000372   003212 710000 44                 TRA     s:8479
        44 000373   003212 710000 44                 TRA     s:8479
        44 000374   003212 710000 44                 TRA     s:8479
        44 000375   003212 710000 44                 TRA     s:8479
        44 000376   003212 710000 44                 TRA     s:8479
        44 000377   003212 710000 44                 TRA     s:8479
        44 000400   003212 710000 44                 TRA     s:8479
PL6.E3A0      #001=ZIG$D_FAIL File=ZIG$D_FAIL.:ZIC0TSI                           FRI 09/05/97 11:58 Page:21
        44 000401   003212 710000 44                 TRA     s:8479
        44 000402   003212 710000 44                 TRA     s:8479
        44 000403   003212 710000 44                 TRA     s:8479
        44 000404   003212 710000 44                 TRA     s:8479
        44 000405   003212 710000 44                 TRA     s:8479
        44 000406   003212 710000 44                 TRA     s:8479
        44 000407   003212 710000 44                 TRA     s:8479
        44 000410   003212 710000 44                 TRA     s:8479
        44 000411   003212 710000 44                 TRA     s:8479
        44 000412   003212 710000 44                 TRA     s:8479
        44 000413   003212 710000 44                 TRA     s:8479
        44 000414   003212 710000 44                 TRA     s:8479
        44 000415   003212 710000 44                 TRA     s:8479
        44 000416   003212 710000 44                 TRA     s:8479
        44 000417   003212 710000 44                 TRA     s:8479
        44 000420   003212 710000 44                 TRA     s:8479
        44 000421   003212 710000 44                 TRA     s:8479
        44 000422   003212 710000 44                 TRA     s:8479
        44 000423   003212 710000 44                 TRA     s:8479
        44 000424   003212 710000 44                 TRA     s:8479
        44 000425   003212 710000 44                 TRA     s:8479
        44 000426   003212 710000 44                 TRA     s:8479
        44 000427   003212 710000 44                 TRA     s:8479
        44 000430   003212 710000 44                 TRA     s:8479
        44 000431   003212 710000 44                 TRA     s:8479
        44 000432   003212 710000 44                 TRA     s:8479
        44 000433   003212 710000 44                 TRA     s:8479
        44 000434   003212 710000 44                 TRA     s:8479
        44 000435   003212 710000 44                 TRA     s:8479
        44 000436   003212 710000 44                 TRA     s:8479
        44 000437   003212 710000 44                 TRA     s:8479
        44 000440   003212 710000 44                 TRA     s:8479
        44 000441   003212 710000 44                 TRA     s:8479
        44 000442   003212 710000 44                 TRA     s:8479
        44 000443   003212 710000 44                 TRA     s:8479
        44 000444   003212 710000 44                 TRA     s:8479
        44 000445   003212 710000 44                 TRA     s:8479
PL6.E3A0      #001=ZIG$D_FAIL File=ZIG$D_FAIL.:ZIC0TSI                           FRI 09/05/97 11:58 Page:22
        44 000446   003212 710000 44                 TRA     s:8479
        44 000447   003212 710000 44                 TRA     s:8479
        44 000450   003212 710000 44                 TRA     s:8479
        44 000451   003212 710000 44                 TRA     s:8479
        44 000452   003212 710000 44                 TRA     s:8479
        44 000453   003212 710000 44                 TRA     s:8479
        44 000454   003212 710000 44                 TRA     s:8479
        44 000455   003212 710000 44                 TRA     s:8479
        44 000456   003212 710000 44                 TRA     s:8479
        44 000457   003212 710000 44                 TRA     s:8479
        44 000460   003212 710000 44                 TRA     s:8479
        44 000461   003212 710000 44                 TRA     s:8479
        44 000462   003212 710000 44                 TRA     s:8479
        44 000463   003212 710000 44                 TRA     s:8479
        44 000464   003212 710000 44                 TRA     s:8479
        44 000465   003212 710000 44                 TRA     s:8479
        44 000466   003212 710000 44                 TRA     s:8479
        44 000467   003212 710000 44                 TRA     s:8479
        44 000470   003212 710000 44                 TRA     s:8479
        44 000471   003212 710000 44                 TRA     s:8479
        44 000472   003212 710000 44                 TRA     s:8479
        44 000473   003212 710000 44                 TRA     s:8479
        44 000474   003212 710000 44                 TRA     s:8479
        44 000475   003212 710000 44                 TRA     s:8479
        44 000476   003212 710000 44                 TRA     s:8479
        44 000477   003212 710000 44                 TRA     s:8479
        44 000500   003212 710000 44                 TRA     s:8479
        44 000501   003212 710000 44                 TRA     s:8479
        44 000502   003212 710000 44                 TRA     s:8479
        44 000503   003212 710000 44                 TRA     s:8479
        44 000504   003212 710000 44                 TRA     s:8479
        44 000505   003212 710000 44                 TRA     s:8479
        44 000506   003212 710000 44                 TRA     s:8479
        44 000507   003212 710000 44                 TRA     s:8479
        44 000510   003212 710000 44                 TRA     s:8479
        44 000511   003212 710000 44                 TRA     s:8479
        44 000512   003212 710000 44                 TRA     s:8479
PL6.E3A0      #001=ZIG$D_FAIL File=ZIG$D_FAIL.:ZIC0TSI                           FRI 09/05/97 11:58 Page:23
        44 000513   003212 710000 44                 TRA     s:8479
        44 000514   003212 710000 44                 TRA     s:8479
        44 000515   003212 710000 44                 TRA     s:8479
        44 000516   003212 710000 44                 TRA     s:8479
        44 000517   003212 710000 44                 TRA     s:8479
        44 000520   003212 710000 44                 TRA     s:8479
        44 000521   003212 710000 44                 TRA     s:8479
        44 000522   003212 710000 44                 TRA     s:8479
        44 000523   003212 710000 44                 TRA     s:8479
        44 000524   003212 710000 44                 TRA     s:8479
        44 000525   002554 710000 44                 TRA     s:8392
        44 000526   002570 710000 44                 TRA     s:8398
        44 000527   003041 710000 44                 TRA     s:8447
        44 000530   003041 710000 44                 TRA     s:8447
        44 000531   003041 710000 44                 TRA     s:8447
        44 000532   003212 710000 44                 TRA     s:8479
        44 000533   003212 710000 44                 TRA     s:8479
        44 000534   003212 710000 44                 TRA     s:8479
        44 000535   003212 710000 44                 TRA     s:8479
        44 000536   003212 710000 44                 TRA     s:8479
        44 000537   003212 710000 44                 TRA     s:8479
        44 000540   003212 710000 44                 TRA     s:8479
        44 000541   003212 710000 44                 TRA     s:8479
        44 000542   003212 710000 44                 TRA     s:8479
        44 000543   003212 710000 44                 TRA     s:8479
        44 000544   003212 710000 44                 TRA     s:8479
        44 000545   003212 710000 44                 TRA     s:8479
        44 000546   003212 710000 44                 TRA     s:8479
        44 000547   003212 710000 44                 TRA     s:8479
        44 000550   003212 710000 44                 TRA     s:8479
        44 000551   003212 710000 44                 TRA     s:8479
        44 000552   003212 710000 44                 TRA     s:8479
        44 000553   003212 710000 44                 TRA     s:8479
        44 000554   003212 710000 44                 TRA     s:8479
        44 000555   003212 710000 44                 TRA     s:8479
        44 000556   003212 710000 44                 TRA     s:8479
        44 000557   003212 710000 44                 TRA     s:8479
PL6.E3A0      #001=ZIG$D_FAIL File=ZIG$D_FAIL.:ZIC0TSI                           FRI 09/05/97 11:58 Page:24
        44 000560   003212 710000 44                 TRA     s:8479
        44 000561   003212 710000 44                 TRA     s:8479
        44 000562   003212 710000 44                 TRA     s:8479
        44 000563   003212 710000 44                 TRA     s:8479
        44 000564   003212 710000 44                 TRA     s:8479
        44 000565   003212 710000 44                 TRA     s:8479
        44 000566   003212 710000 44                 TRA     s:8479
        44 000567   003212 710000 44                 TRA     s:8479
        44 000570   003212 710000 44                 TRA     s:8479
        44 000571   003212 710000 44                 TRA     s:8479
        44 000572   003212 710000 44                 TRA     s:8479
        44 000573   003212 710000 44                 TRA     s:8479
        44 000574   003212 710000 44                 TRA     s:8479
        44 000575   003212 710000 44                 TRA     s:8479
        44 000576   003212 710000 44                 TRA     s:8479
        44 000577   003212 710000 44                 TRA     s:8479
        44 000600   003212 710000 44                 TRA     s:8479
        44 000601   003212 710000 44                 TRA     s:8479
        44 000602   003212 710000 44                 TRA     s:8479
        44 000603   003212 710000 44                 TRA     s:8479
        44 000604   003212 710000 44                 TRA     s:8479
        44 000605   003212 710000 44                 TRA     s:8479
        44 000606   003212 710000 44                 TRA     s:8479
        44 000607   003212 710000 44                 TRA     s:8479
        44 000610   003212 710000 44                 TRA     s:8479
        44 000611   003212 710000 44                 TRA     s:8479
        44 000612   003212 710000 44                 TRA     s:8479
        44 000613   003212 710000 44                 TRA     s:8479
        44 000614   003212 710000 44                 TRA     s:8479
        44 000615   003212 710000 44                 TRA     s:8479
        44 000616   003212 710000 44                 TRA     s:8479
        44 000617   003212 710000 44                 TRA     s:8479
        44 000620   003212 710000 44                 TRA     s:8479
        44 000621   003212 710000 44                 TRA     s:8479
        44 000622   003212 710000 44                 TRA     s:8479
        44 000623   003212 710000 44                 TRA     s:8479
        44 000624   003212 710000 44                 TRA     s:8479
PL6.E3A0      #001=ZIG$D_FAIL File=ZIG$D_FAIL.:ZIC0TSI                           FRI 09/05/97 11:58 Page:25
        44 000625   003212 710000 44                 TRA     s:8479
        44 000626   003212 710000 44                 TRA     s:8479
        44 000627   003212 710000 44                 TRA     s:8479
        44 000630   003212 710000 44                 TRA     s:8479
        44 000631   003212 710000 44                 TRA     s:8479
        44 000632   003212 710000 44                 TRA     s:8479
        44 000633   003212 710000 44                 TRA     s:8479
        44 000634   003212 710000 44                 TRA     s:8479
        44 000635   003212 710000 44                 TRA     s:8479
        44 000636   003212 710000 44                 TRA     s:8479
        44 000637   003212 710000 44                 TRA     s:8479
        44 000640   003212 710000 44                 TRA     s:8479
        44 000641   003212 710000 44                 TRA     s:8479
        44 000642   003212 710000 44                 TRA     s:8479
        44 000643   003212 710000 44                 TRA     s:8479
        44 000644   003212 710000 44                 TRA     s:8479
        44 000645   003212 710000 44                 TRA     s:8479
        44 000646   003212 710000 44                 TRA     s:8479
        44 000647   003212 710000 44                 TRA     s:8479
        44 000650   003212 710000 44                 TRA     s:8479
        44 000651   003212 710000 44                 TRA     s:8479
        44 000652   003212 710000 44                 TRA     s:8479
        44 000653   003212 710000 44                 TRA     s:8479
        44 000654   003212 710000 44                 TRA     s:8479
        44 000655   003212 710000 44                 TRA     s:8479
        44 000656   003212 710000 44                 TRA     s:8479
        44 000657   003212 710000 44                 TRA     s:8479
        44 000660   003212 710000 44                 TRA     s:8479
        44 000661   003212 710000 44                 TRA     s:8479
        44 000662   003212 710000 44                 TRA     s:8479
        44 000663   003212 710000 44                 TRA     s:8479
        44 000664   003212 710000 44                 TRA     s:8479
        44 000665   003212 710000 44                 TRA     s:8479
        44 000666   003212 710000 44                 TRA     s:8479
        44 000667   003212 710000 44                 TRA     s:8479
        44 000670   003212 710000 44                 TRA     s:8479
        44 000671   003212 710000 44                 TRA     s:8479
PL6.E3A0      #001=ZIG$D_FAIL File=ZIG$D_FAIL.:ZIC0TSI                           FRI 09/05/97 11:58 Page:26
        44 000672   003212 710000 44                 TRA     s:8479
        44 000673   003212 710000 44                 TRA     s:8479
        44 000674   003212 710000 44                 TRA     s:8479
        44 000675   003212 710000 44                 TRA     s:8479
        44 000676   003212 710000 44                 TRA     s:8479
        44 000677   003212 710000 44                 TRA     s:8479
        44 000700   003212 710000 44                 TRA     s:8479
        44 000701   003212 710000 44                 TRA     s:8479
        44 000702   003212 710000 44                 TRA     s:8479
        44 000703   003212 710000 44                 TRA     s:8479
        44 000704   003212 710000 44                 TRA     s:8479
        44 000705   003212 710000 44                 TRA     s:8479
        44 000706   003212 710000 44                 TRA     s:8479
        44 000707   003212 710000 44                 TRA     s:8479
        44 000710   003212 710000 44                 TRA     s:8479
        44 000711   003212 710000 44                 TRA     s:8479
        44 000712   003212 710000 44                 TRA     s:8479
        44 000713   003212 710000 44                 TRA     s:8479
        44 000714   003212 710000 44                 TRA     s:8479
        44 000715   003212 710000 44                 TRA     s:8479
        44 000716   003212 710000 44                 TRA     s:8479
        44 000717   003212 710000 44                 TRA     s:8479
        44 000720   003212 710000 44                 TRA     s:8479
        44 000721   003212 710000 44                 TRA     s:8479
        44 000722   003212 710000 44                 TRA     s:8479
        44 000723   003212 710000 44                 TRA     s:8479
        44 000724   003212 710000 44                 TRA     s:8479
        44 000725   003212 710000 44                 TRA     s:8479
        44 000726   003212 710000 44                 TRA     s:8479
        44 000727   003212 710000 44                 TRA     s:8479
        44 000730   003212 710000 44                 TRA     s:8479
        44 000731   003212 710000 44                 TRA     s:8479
        44 000732   003212 710000 44                 TRA     s:8479
        44 000733   003212 710000 44                 TRA     s:8479
        44 000734   003212 710000 44                 TRA     s:8479
        44 000735   003212 710000 44                 TRA     s:8479
        44 000736   003212 710000 44                 TRA     s:8479
PL6.E3A0      #001=ZIG$D_FAIL File=ZIG$D_FAIL.:ZIC0TSI                           FRI 09/05/97 11:58 Page:27
        44 000737   003212 710000 44                 TRA     s:8479
        44 000740   003212 710000 44                 TRA     s:8479
        44 000741   003212 710000 44                 TRA     s:8479
        44 000742   003212 710000 44                 TRA     s:8479
        44 000743   003212 710000 44                 TRA     s:8479
        44 000744   003212 710000 44                 TRA     s:8479
        44 000745   003212 710000 44                 TRA     s:8479
        44 000746   003212 710000 44                 TRA     s:8479
        44 000747   003212 710000 44                 TRA     s:8479
        44 000750   003212 710000 44                 TRA     s:8479
        44 000751   003212 710000 44                 TRA     s:8479
        44 000752   003212 710000 44                 TRA     s:8479
        44 000753   003212 710000 44                 TRA     s:8479
        44 000754   003212 710000 44                 TRA     s:8479
        44 000755   003212 710000 44                 TRA     s:8479
        44 000756   003212 710000 44                 TRA     s:8479
        44 000757   003212 710000 44                 TRA     s:8479
        44 000760   003212 710000 44                 TRA     s:8479
        44 000761   003212 710000 44                 TRA     s:8479
        44 000762   003212 710000 44                 TRA     s:8479
        44 000763   003212 710000 44                 TRA     s:8479
        44 000764   003212 710000 44                 TRA     s:8479
        44 000765   003212 710000 44                 TRA     s:8479
        44 000766   003212 710000 44                 TRA     s:8479
        44 000767   003212 710000 44                 TRA     s:8479
        44 000770   003212 710000 44                 TRA     s:8479
        44 000771   003212 710000 44                 TRA     s:8479
        44 000772   003212 710000 44                 TRA     s:8479
        44 000773   003212 710000 44                 TRA     s:8479
        44 000774   003212 710000 44                 TRA     s:8479
        44 000775   003212 710000 44                 TRA     s:8479
        44 000776   003212 710000 44                 TRA     s:8479
        44 000777   003212 710000 44                 TRA     s:8479
        44 001000   003212 710000 44                 TRA     s:8479
        44 001001   003212 710000 44                 TRA     s:8479
        44 001002   003212 710000 44                 TRA     s:8479
        44 001003   003212 710000 44                 TRA     s:8479
PL6.E3A0      #001=ZIG$D_FAIL File=ZIG$D_FAIL.:ZIC0TSI                           FRI 09/05/97 11:58 Page:28
        44 001004   003212 710000 44                 TRA     s:8479
        44 001005   003212 710000 44                 TRA     s:8479
        44 001006   003212 710000 44                 TRA     s:8479
        44 001007   003212 710000 44                 TRA     s:8479
        44 001010   003212 710000 44                 TRA     s:8479
        44 001011   003212 710000 44                 TRA     s:8479
        44 001012   003212 710000 44                 TRA     s:8479
        44 001013   003212 710000 44                 TRA     s:8479
        44 001014   003212 710000 44                 TRA     s:8479
        44 001015   003212 710000 44                 TRA     s:8479
        44 001016   003212 710000 44                 TRA     s:8479
        44 001017   003212 710000 44                 TRA     s:8479
        44 001020   003212 710000 44                 TRA     s:8479
        44 001021   003212 710000 44                 TRA     s:8479
        44 001022   003212 710000 44                 TRA     s:8479
        44 001023   003212 710000 44                 TRA     s:8479
        44 001024   003212 710000 44                 TRA     s:8479
        44 001025   003212 710000 44                 TRA     s:8479
        44 001026   003212 710000 44                 TRA     s:8479
        44 001027   003212 710000 44                 TRA     s:8479
        44 001030   003212 710000 44                 TRA     s:8479
        44 001031   003212 710000 44                 TRA     s:8479
        44 001032   003212 710000 44                 TRA     s:8479
        44 001033   003212 710000 44                 TRA     s:8479
        44 001034   003212 710000 44                 TRA     s:8479
        44 001035   003212 710000 44                 TRA     s:8479
        44 001036   003212 710000 44                 TRA     s:8479
        44 001037   003212 710000 44                 TRA     s:8479
        44 001040   003212 710000 44                 TRA     s:8479
        44 001041   003212 710000 44                 TRA     s:8479
        44 001042   003212 710000 44                 TRA     s:8479
        44 001043   003212 710000 44                 TRA     s:8479
        44 001044   003212 710000 44                 TRA     s:8479
        44 001045   003212 710000 44                 TRA     s:8479
        44 001046   003212 710000 44                 TRA     s:8479
        44 001047   003212 710000 44                 TRA     s:8479
        44 001050   003212 710000 44                 TRA     s:8479
PL6.E3A0      #001=ZIG$D_FAIL File=ZIG$D_FAIL.:ZIC0TSI                           FRI 09/05/97 11:58 Page:29
        44 001051   003212 710000 44                 TRA     s:8479
        44 001052   003212 710000 44                 TRA     s:8479
        44 001053   003212 710000 44                 TRA     s:8479
        44 001054   003212 710000 44                 TRA     s:8479
        44 001055   003212 710000 44                 TRA     s:8479
        44 001056   003212 710000 44                 TRA     s:8479
        44 001057   003212 710000 44                 TRA     s:8479
        44 001060   003212 710000 44                 TRA     s:8479
        44 001061   003212 710000 44                 TRA     s:8479
        44 001062   003212 710000 44                 TRA     s:8479
        44 001063   003212 710000 44                 TRA     s:8479
        44 001064   003212 710000 44                 TRA     s:8479
        44 001065   003212 710000 44                 TRA     s:8479
        44 001066   003212 710000 44                 TRA     s:8479
        44 001067   003212 710000 44                 TRA     s:8479
        44 001070   003212 710000 44                 TRA     s:8479
        44 001071   003212 710000 44                 TRA     s:8479
        44 001072   003212 710000 44                 TRA     s:8479
        44 001073   003212 710000 44                 TRA     s:8479
        44 001074   003212 710000 44                 TRA     s:8479
        44 001075   003212 710000 44                 TRA     s:8479
        44 001076   003212 710000 44                 TRA     s:8479
        44 001077   003212 710000 44                 TRA     s:8479
        44 001100   003212 710000 44                 TRA     s:8479
        44 001101   003212 710000 44                 TRA     s:8479
        44 001102   003212 710000 44                 TRA     s:8479
        44 001103   003212 710000 44                 TRA     s:8479
        44 001104   003212 710000 44                 TRA     s:8479
        44 001105   003212 710000 44                 TRA     s:8479
        44 001106   003212 710000 44                 TRA     s:8479
        44 001107   003212 710000 44                 TRA     s:8479
        44 001110   003212 710000 44                 TRA     s:8479
        44 001111   003212 710000 44                 TRA     s:8479
        44 001112   003212 710000 44                 TRA     s:8479
        44 001113   003212 710000 44                 TRA     s:8479
        44 001114   003212 710000 44                 TRA     s:8479
        44 001115   003212 710000 44                 TRA     s:8479
PL6.E3A0      #001=ZIG$D_FAIL File=ZIG$D_FAIL.:ZIC0TSI                           FRI 09/05/97 11:58 Page:30
        44 001116   003212 710000 44                 TRA     s:8479
        44 001117   003212 710000 44                 TRA     s:8479
        44 001120   003212 710000 44                 TRA     s:8479
        44 001121   003212 710000 44                 TRA     s:8479
        44 001122   003212 710000 44                 TRA     s:8479
        44 001123   003212 710000 44                 TRA     s:8479
        44 001124   003212 710000 44                 TRA     s:8479
        44 001125   003212 710000 44                 TRA     s:8479
        44 001126   003212 710000 44                 TRA     s:8479
        44 001127   003212 710000 44                 TRA     s:8479
        44 001130   003212 710000 44                 TRA     s:8479
        44 001131   003212 710000 44                 TRA     s:8479
        44 001132   003212 710000 44                 TRA     s:8479
        44 001133   003212 710000 44                 TRA     s:8479
        44 001134   003212 710000 44                 TRA     s:8479
        44 001135   003212 710000 44                 TRA     s:8479
        44 001136   003212 710000 44                 TRA     s:8479
        44 001137   003212 710000 44                 TRA     s:8479
        44 001140   003212 710000 44                 TRA     s:8479
        44 001141   003212 710000 44                 TRA     s:8479
        44 001142   003212 710000 44                 TRA     s:8479
        44 001143   003212 710000 44                 TRA     s:8479
        44 001144   003212 710000 44                 TRA     s:8479
        44 001145   003212 710000 44                 TRA     s:8479
        44 001146   003212 710000 44                 TRA     s:8479
        44 001147   003212 710000 44                 TRA     s:8479
        44 001150   003212 710000 44                 TRA     s:8479
        44 001151   003212 710000 44                 TRA     s:8479
        44 001152   003212 710000 44                 TRA     s:8479
        44 001153   003212 710000 44                 TRA     s:8479
        44 001154   003212 710000 44                 TRA     s:8479
        44 001155   003212 710000 44                 TRA     s:8479
        44 001156   003212 710000 44                 TRA     s:8479
        44 001157   003212 710000 44                 TRA     s:8479
        44 001160   003212 710000 44                 TRA     s:8479
        44 001161   003212 710000 44                 TRA     s:8479
        44 001162   003212 710000 44                 TRA     s:8479
PL6.E3A0      #001=ZIG$D_FAIL File=ZIG$D_FAIL.:ZIC0TSI                           FRI 09/05/97 11:58 Page:31
        44 001163   003212 710000 44                 TRA     s:8479
        44 001164   003212 710000 44                 TRA     s:8479
        44 001165   003212 710000 44                 TRA     s:8479
        44 001166   003212 710000 44                 TRA     s:8479
        44 001167   003212 710000 44                 TRA     s:8479
        44 001170   003212 710000 44                 TRA     s:8479
        44 001171   003212 710000 44                 TRA     s:8479
        44 001172   003212 710000 44                 TRA     s:8479
        44 001173   003212 710000 44                 TRA     s:8479
        44 001174   003212 710000 44                 TRA     s:8479
        44 001175   003212 710000 44                 TRA     s:8479
        44 001176   003212 710000 44                 TRA     s:8479
        44 001177   003212 710000 44                 TRA     s:8479
        44 001200   003212 710000 44                 TRA     s:8479
        44 001201   003212 710000 44                 TRA     s:8479
        44 001202   003212 710000 44                 TRA     s:8479
        44 001203   003212 710000 44                 TRA     s:8479
        44 001204   003212 710000 44                 TRA     s:8479
        44 001205   003212 710000 44                 TRA     s:8479
        44 001206   003212 710000 44                 TRA     s:8479
        44 001207   003212 710000 44                 TRA     s:8479
        44 001210   003212 710000 44                 TRA     s:8479
        44 001211   003212 710000 44                 TRA     s:8479
        44 001212   003212 710000 44                 TRA     s:8479
        44 001213   003212 710000 44                 TRA     s:8479
        44 001214   003212 710000 44                 TRA     s:8479
        44 001215   003212 710000 44                 TRA     s:8479
        44 001216   003212 710000 44                 TRA     s:8479
        44 001217   003212 710000 44                 TRA     s:8479
        44 001220   003212 710000 44                 TRA     s:8479
        44 001221   003212 710000 44                 TRA     s:8479
        44 001222   003212 710000 44                 TRA     s:8479
        44 001223   003212 710000 44                 TRA     s:8479
        44 001224   003212 710000 44                 TRA     s:8479
        44 001225   003212 710000 44                 TRA     s:8479
        44 001226   003212 710000 44                 TRA     s:8479
        44 001227   003212 710000 44                 TRA     s:8479
PL6.E3A0      #001=ZIG$D_FAIL File=ZIG$D_FAIL.:ZIC0TSI                           FRI 09/05/97 11:58 Page:32
        44 001230   003212 710000 44                 TRA     s:8479
        44 001231   003212 710000 44                 TRA     s:8479
        44 001232   003212 710000 44                 TRA     s:8479
        44 001233   003212 710000 44                 TRA     s:8479
        44 001234   003212 710000 44                 TRA     s:8479
        44 001235   003212 710000 44                 TRA     s:8479
        44 001236   003212 710000 44                 TRA     s:8479
        44 001237   003212 710000 44                 TRA     s:8479
        44 001240   003212 710000 44                 TRA     s:8479
        44 001241   003212 710000 44                 TRA     s:8479
        44 001242   003212 710000 44                 TRA     s:8479
        44 001243   003212 710000 44                 TRA     s:8479
        44 001244   003212 710000 44                 TRA     s:8479
        44 001245   003212 710000 44                 TRA     s:8479
        44 001246   003212 710000 44                 TRA     s:8479
        44 001247   003212 710000 44                 TRA     s:8479
        44 001250   003212 710000 44                 TRA     s:8479
        44 001251   003212 710000 44                 TRA     s:8479
        44 001252   003212 710000 44                 TRA     s:8479
        44 001253   003212 710000 44                 TRA     s:8479
        44 001254   003212 710000 44                 TRA     s:8479
        44 001255   003212 710000 44                 TRA     s:8479
        44 001256   003212 710000 44                 TRA     s:8479
        44 001257   003212 710000 44                 TRA     s:8479
        44 001260   003212 710000 44                 TRA     s:8479
        44 001261   003212 710000 44                 TRA     s:8479
        44 001262   003212 710000 44                 TRA     s:8479
        44 001263   003212 710000 44                 TRA     s:8479
        44 001264   003212 710000 44                 TRA     s:8479
        44 001265   003212 710000 44                 TRA     s:8479
        44 001266   003212 710000 44                 TRA     s:8479
        44 001267   003212 710000 44                 TRA     s:8479
        44 001270   003212 710000 44                 TRA     s:8479
        44 001271   003212 710000 44                 TRA     s:8479
        44 001272   003212 710000 44                 TRA     s:8479
        44 001273   003212 710000 44                 TRA     s:8479
        44 001274   003212 710000 44                 TRA     s:8479
PL6.E3A0      #001=ZIG$D_FAIL File=ZIG$D_FAIL.:ZIC0TSI                           FRI 09/05/97 11:58 Page:33
        44 001275   003212 710000 44                 TRA     s:8479
        44 001276   003212 710000 44                 TRA     s:8479
        44 001277   003212 710000 44                 TRA     s:8479
        44 001300   003212 710000 44                 TRA     s:8479
        44 001301   003212 710000 44                 TRA     s:8479
        44 001302   003212 710000 44                 TRA     s:8479
        44 001303   003212 710000 44                 TRA     s:8479
        44 001304   003212 710000 44                 TRA     s:8479
        44 001305   003212 710000 44                 TRA     s:8479
        44 001306   003212 710000 44                 TRA     s:8479
        44 001307   003212 710000 44                 TRA     s:8479
        44 001310   003212 710000 44                 TRA     s:8479
        44 001311   003212 710000 44                 TRA     s:8479
        44 001312   003212 710000 44                 TRA     s:8479
        44 001313   003212 710000 44                 TRA     s:8479
        44 001314   003212 710000 44                 TRA     s:8479
        44 001315   003212 710000 44                 TRA     s:8479
        44 001316   003212 710000 44                 TRA     s:8479
        44 001317   003212 710000 44                 TRA     s:8479
        44 001320   003212 710000 44                 TRA     s:8479
        44 001321   003212 710000 44                 TRA     s:8479
        44 001322   003212 710000 44                 TRA     s:8479
        44 001323   003212 710000 44                 TRA     s:8479
        44 001324   003212 710000 44                 TRA     s:8479
        44 001325   003212 710000 44                 TRA     s:8479
        44 001326   003212 710000 44                 TRA     s:8479
        44 001327   003212 710000 44                 TRA     s:8479
        44 001330   003212 710000 44                 TRA     s:8479
        44 001331   003212 710000 44                 TRA     s:8479
        44 001332   003212 710000 44                 TRA     s:8479
        44 001333   003212 710000 44                 TRA     s:8479
        44 001334   003212 710000 44                 TRA     s:8479
        44 001335   003212 710000 44                 TRA     s:8479
        44 001336   003212 710000 44                 TRA     s:8479
        44 001337   003212 710000 44                 TRA     s:8479
        44 001340   003212 710000 44                 TRA     s:8479
        44 001341   003212 710000 44                 TRA     s:8479
PL6.E3A0      #001=ZIG$D_FAIL File=ZIG$D_FAIL.:ZIC0TSI                           FRI 09/05/97 11:58 Page:34
        44 001342   003212 710000 44                 TRA     s:8479
        44 001343   003212 710000 44                 TRA     s:8479
        44 001344   003212 710000 44                 TRA     s:8479
        44 001345   003212 710000 44                 TRA     s:8479
        44 001346   003212 710000 44                 TRA     s:8479
        44 001347   003212 710000 44                 TRA     s:8479
        44 001350   003212 710000 44                 TRA     s:8479
        44 001351   003212 710000 44                 TRA     s:8479
        44 001352   003212 710000 44                 TRA     s:8479
        44 001353   003212 710000 44                 TRA     s:8479
        44 001354   003212 710000 44                 TRA     s:8479
        44 001355   003212 710000 44                 TRA     s:8479
        44 001356   003212 710000 44                 TRA     s:8479
        44 001357   003212 710000 44                 TRA     s:8479
        44 001360   003212 710000 44                 TRA     s:8479
        44 001361   003212 710000 44                 TRA     s:8479
        44 001362   003212 710000 44                 TRA     s:8479
        44 001363   003212 710000 44                 TRA     s:8479
        44 001364   003212 710000 44                 TRA     s:8479
        44 001365   003212 710000 44                 TRA     s:8479
        44 001366   003212 710000 44                 TRA     s:8479
        44 001367   003212 710000 44                 TRA     s:8479
        44 001370   003212 710000 44                 TRA     s:8479
        44 001371   003212 710000 44                 TRA     s:8479
        44 001372   003212 710000 44                 TRA     s:8479
        44 001373   003212 710000 44                 TRA     s:8479
        44 001374   003212 710000 44                 TRA     s:8479
        44 001375   003212 710000 44                 TRA     s:8479
        44 001376   003212 710000 44                 TRA     s:8479
        44 001377   003212 710000 44                 TRA     s:8479
        44 001400   003212 710000 44                 TRA     s:8479
        44 001401   003212 710000 44                 TRA     s:8479
        44 001402   003212 710000 44                 TRA     s:8479
        44 001403   003212 710000 44                 TRA     s:8479
        44 001404   003212 710000 44                 TRA     s:8479
        44 001405   003212 710000 44                 TRA     s:8479
        44 001406   003212 710000 44                 TRA     s:8479
PL6.E3A0      #001=ZIG$D_FAIL File=ZIG$D_FAIL.:ZIC0TSI                           FRI 09/05/97 11:58 Page:35
        44 001407   003212 710000 44                 TRA     s:8479
        44 001410   003212 710000 44                 TRA     s:8479
        44 001411   003212 710000 44                 TRA     s:8479
        44 001412   003212 710000 44                 TRA     s:8479
        44 001413   003212 710000 44                 TRA     s:8479
        44 001414   003212 710000 44                 TRA     s:8479
        44 001415   003212 710000 44                 TRA     s:8479
        44 001416   003212 710000 44                 TRA     s:8479
        44 001417   003212 710000 44                 TRA     s:8479
        44 001420   003212 710000 44                 TRA     s:8479
        44 001421   003212 710000 44                 TRA     s:8479
        44 001422   003212 710000 44                 TRA     s:8479
        44 001423   003212 710000 44                 TRA     s:8479
        44 001424   003212 710000 44                 TRA     s:8479
        44 001425   003212 710000 44                 TRA     s:8479
        44 001426   003212 710000 44                 TRA     s:8479
        44 001427   003212 710000 44                 TRA     s:8479
        44 001430   003212 710000 44                 TRA     s:8479
        44 001431   003212 710000 44                 TRA     s:8479
        44 001432   003212 710000 44                 TRA     s:8479
        44 001433   003212 710000 44                 TRA     s:8479
        44 001434   003212 710000 44                 TRA     s:8479
        44 001435   003212 710000 44                 TRA     s:8479
        44 001436   003212 710000 44                 TRA     s:8479
        44 001437   003212 710000 44                 TRA     s:8479
        44 001440   003212 710000 44                 TRA     s:8479
        44 001441   003212 710000 44                 TRA     s:8479
        44 001442   003212 710000 44                 TRA     s:8479
        44 001443   003212 710000 44                 TRA     s:8479
        44 001444   003212 710000 44                 TRA     s:8479
        44 001445   003212 710000 44                 TRA     s:8479
        44 001446   003212 710000 44                 TRA     s:8479
        44 001447   003212 710000 44                 TRA     s:8479
        44 001450   003212 710000 44                 TRA     s:8479
        44 001451   003212 710000 44                 TRA     s:8479
        44 001452   003212 710000 44                 TRA     s:8479
        44 001453   003212 710000 44                 TRA     s:8479
PL6.E3A0      #001=ZIG$D_FAIL File=ZIG$D_FAIL.:ZIC0TSI                           FRI 09/05/97 11:58 Page:36
        44 001454   003212 710000 44                 TRA     s:8479
        44 001455   003212 710000 44                 TRA     s:8479
        44 001456   003212 710000 44                 TRA     s:8479
        44 001457   003212 710000 44                 TRA     s:8479
        44 001460   003212 710000 44                 TRA     s:8479
        44 001461   003212 710000 44                 TRA     s:8479
        44 001462   003212 710000 44                 TRA     s:8479
        44 001463   003212 710000 44                 TRA     s:8479
        44 001464   003212 710000 44                 TRA     s:8479
        44 001465   003212 710000 44                 TRA     s:8479
        44 001466   003212 710000 44                 TRA     s:8479
        44 001467   003212 710000 44                 TRA     s:8479
        44 001470   003212 710000 44                 TRA     s:8479
        44 001471   003212 710000 44                 TRA     s:8479
        44 001472   003212 710000 44                 TRA     s:8479
        44 001473   003212 710000 44                 TRA     s:8479
        44 001474   003212 710000 44                 TRA     s:8479
        44 001475   003212 710000 44                 TRA     s:8479
        44 001476   003212 710000 44                 TRA     s:8479
        44 001477   003212 710000 44                 TRA     s:8479
        44 001500   003212 710000 44                 TRA     s:8479
        44 001501   003212 710000 44                 TRA     s:8479
        44 001502   003212 710000 44                 TRA     s:8479
        44 001503   003212 710000 44                 TRA     s:8479
        44 001504   003212 710000 44                 TRA     s:8479
        44 001505   003212 710000 44                 TRA     s:8479
        44 001506   003212 710000 44                 TRA     s:8479
        44 001507   003212 710000 44                 TRA     s:8479
        44 001510   003212 710000 44                 TRA     s:8479
        44 001511   003212 710000 44                 TRA     s:8479
        44 001512   003212 710000 44                 TRA     s:8479
        44 001513   003212 710000 44                 TRA     s:8479
        44 001514   003212 710000 44                 TRA     s:8479
        44 001515   003212 710000 44                 TRA     s:8479
        44 001516   003212 710000 44                 TRA     s:8479
        44 001517   003212 710000 44                 TRA     s:8479
        44 001520   003212 710000 44                 TRA     s:8479
PL6.E3A0      #001=ZIG$D_FAIL File=ZIG$D_FAIL.:ZIC0TSI                           FRI 09/05/97 11:58 Page:37
        44 001521   003212 710000 44                 TRA     s:8479
        44 001522   003212 710000 44                 TRA     s:8479
        44 001523   003212 710000 44                 TRA     s:8479
        44 001524   003212 710000 44                 TRA     s:8479
        44 001525   003212 710000 44                 TRA     s:8479
        44 001526   003212 710000 44                 TRA     s:8479
        44 001527   003212 710000 44                 TRA     s:8479
        44 001530   003212 710000 44                 TRA     s:8479
        44 001531   003212 710000 44                 TRA     s:8479
        44 001532   003212 710000 44                 TRA     s:8479
        44 001533   003212 710000 44                 TRA     s:8479
        44 001534   003212 710000 44                 TRA     s:8479
        44 001535   003212 710000 44                 TRA     s:8479
        44 001536   003212 710000 44                 TRA     s:8479
        44 001537   003212 710000 44                 TRA     s:8479
        44 001540   003212 710000 44                 TRA     s:8479
        44 001541   003212 710000 44                 TRA     s:8479
        44 001542   003212 710000 44                 TRA     s:8479
        44 001543   003212 710000 44                 TRA     s:8479
        44 001544   003212 710000 44                 TRA     s:8479
        44 001545   003212 710000 44                 TRA     s:8479
        44 001546   003212 710000 44                 TRA     s:8479
        44 001547   003212 710000 44                 TRA     s:8479
        44 001550   003212 710000 44                 TRA     s:8479
        44 001551   003212 710000 44                 TRA     s:8479
        44 001552   003212 710000 44                 TRA     s:8479
        44 001553   003212 710000 44                 TRA     s:8479
        44 001554   003212 710000 44                 TRA     s:8479
        44 001555   003212 710000 44                 TRA     s:8479
        44 001556   003212 710000 44                 TRA     s:8479
        44 001557   003212 710000 44                 TRA     s:8479
        44 001560   003212 710000 44                 TRA     s:8479
        44 001561   003212 710000 44                 TRA     s:8479
        44 001562   003212 710000 44                 TRA     s:8479
        44 001563   003212 710000 44                 TRA     s:8479
        44 001564   003212 710000 44                 TRA     s:8479
        44 001565   003212 710000 44                 TRA     s:8479
PL6.E3A0      #001=ZIG$D_FAIL File=ZIG$D_FAIL.:ZIC0TSI                           FRI 09/05/97 11:58 Page:38
        44 001566   003212 710000 44                 TRA     s:8479
        44 001567   003212 710000 44                 TRA     s:8479
        44 001570   003212 710000 44                 TRA     s:8479
        44 001571   003212 710000 44                 TRA     s:8479
        44 001572   003212 710000 44                 TRA     s:8479
        44 001573   003212 710000 44                 TRA     s:8479
        44 001574   003212 710000 44                 TRA     s:8479
        44 001575   003212 710000 44                 TRA     s:8479
        44 001576   003212 710000 44                 TRA     s:8479
        44 001577   003212 710000 44                 TRA     s:8479
        44 001600   003212 710000 44                 TRA     s:8479
        44 001601   003212 710000 44                 TRA     s:8479
        44 001602   003212 710000 44                 TRA     s:8479
        44 001603   003212 710000 44                 TRA     s:8479
        44 001604   003212 710000 44                 TRA     s:8479
        44 001605   003212 710000 44                 TRA     s:8479
        44 001606   003212 710000 44                 TRA     s:8479
        44 001607   003212 710000 44                 TRA     s:8479
        44 001610   003212 710000 44                 TRA     s:8479
        44 001611   003212 710000 44                 TRA     s:8479
        44 001612   003212 710000 44                 TRA     s:8479
        44 001613   003212 710000 44                 TRA     s:8479
        44 001614   003212 710000 44                 TRA     s:8479
        44 001615   003212 710000 44                 TRA     s:8479
        44 001616   003212 710000 44                 TRA     s:8479
        44 001617   003212 710000 44                 TRA     s:8479
        44 001620   003212 710000 44                 TRA     s:8479
        44 001621   003212 710000 44                 TRA     s:8479
        44 001622   003212 710000 44                 TRA     s:8479
        44 001623   003212 710000 44                 TRA     s:8479
        44 001624   003212 710000 44                 TRA     s:8479
        44 001625   003212 710000 44                 TRA     s:8479
        44 001626   003212 710000 44                 TRA     s:8479
        44 001627   003212 710000 44                 TRA     s:8479
        44 001630   003212 710000 44                 TRA     s:8479
        44 001631   003212 710000 44                 TRA     s:8479
        44 001632   003212 710000 44                 TRA     s:8479
PL6.E3A0      #001=ZIG$D_FAIL File=ZIG$D_FAIL.:ZIC0TSI                           FRI 09/05/97 11:58 Page:39
        44 001633   003212 710000 44                 TRA     s:8479
        44 001634   003212 710000 44                 TRA     s:8479
        44 001635   003212 710000 44                 TRA     s:8479
        44 001636   003212 710000 44                 TRA     s:8479
        44 001637   003212 710000 44                 TRA     s:8479
        44 001640   003212 710000 44                 TRA     s:8479
        44 001641   003212 710000 44                 TRA     s:8479
        44 001642   003212 710000 44                 TRA     s:8479
        44 001643   003212 710000 44                 TRA     s:8479
        44 001644   003212 710000 44                 TRA     s:8479
        44 001645   003212 710000 44                 TRA     s:8479
        44 001646   003212 710000 44                 TRA     s:8479
        44 001647   003212 710000 44                 TRA     s:8479
        44 001650   003212 710000 44                 TRA     s:8479
        44 001651   003212 710000 44                 TRA     s:8479
        44 001652   003212 710000 44                 TRA     s:8479
        44 001653   003212 710000 44                 TRA     s:8479
        44 001654   003212 710000 44                 TRA     s:8479
        44 001655   002145 710000 44                 TRA     s:8324
        44 001656   002145 710000 44                 TRA     s:8324
        44 001657   002145 710000 44                 TRA     s:8324
        44 001660   002145 710000 44                 TRA     s:8324
        44 001661   002145 710000 44                 TRA     s:8324
        44 001662   002145 710000 44                 TRA     s:8324
        44 001663   002340 710000 44                 TRA     s:8355
        44 001664   002340 710000 44                 TRA     s:8355
        44 001665   002340 710000 44                 TRA     s:8355
        44 001666   002754 710000 44                 TRA     s:8434
        44 001667   002754 710000 44                 TRA     s:8434
        44 001670   002754 710000 44                 TRA     s:8434
        44 001671   003025 710000 44                 TRA     s:8445
        44 001672   003025 710000 44                 TRA     s:8445
        44 001673   003025 710000 44                 TRA     s:8445
        44 001674   003133 710000 44                 TRA     s:8464
        44 001675   003133 710000 44                 TRA     s:8464
        44 001676   003133 710000 44                 TRA     s:8464
        44 001677   003133 710000 44                 TRA     s:8464
PL6.E3A0      #001=ZIG$D_FAIL File=ZIG$D_FAIL.:ZIC0TSI                           FRI 09/05/97 11:58 Page:40
        44 001700   003133 710000 44                 TRA     s:8464
        44 001701   003133 710000 44                 TRA     s:8464
        44 001702   003147 710000 44                 TRA     s:8466
        44 001703   003147 710000 44                 TRA     s:8466
        44 001704   003147 710000 44                 TRA     s:8466
        44 001705   003147 710000 44                 TRA     s:8466
        44 001706   003147 710000 44                 TRA     s:8466
        44 001707   003147 710000 44                 TRA     s:8466

       53     8276    2       CASE(%SCHEMA_DDL);

       54     8277    2           FIELD1.COUNT1 = 11;

   8277 44 001710   013000 236003                    LDQ     5632,DU
        44 001711   000000 552040 39                 STBQ    FIELD1,'40'O

       55     8278    2           FIELD1.TEXT1 = 'SCHEMA NAME';

   8278 44 001712   040000 100400                    MLR     fill='040'O
        44 001713   000006 000013 41                 ADSC9   FPT_EXIT+6               cn=0,n=11
        44 001714   000000 200037 39                 ADSC9   FIELD1                   cn=1,n=31

       56     8279    2           CALL ZIG$DDER(%CL_SYN_ERR);

   8279 44 001715   000003 630400 45                 EPPR0   3
        44 001716   000001 631400 45                 EPPR1   1
        44 001717   000000 701000 xent               TSX1    ZIG$DDER
        44 001720   000000 011000                    NOP     0

       57     8280    2           CALL ZIG$DDER(%STOP_DDL_PARSE);

   8280 44 001721   000005 630400 45                 EPPR0   5
        44 001722   000001 631400 45                 EPPR1   1
        44 001723   000000 701000 xent               TSX1    ZIG$DDER
        44 001724   000000 011000                    NOP     0

       58     8281         /*E*  ERROR: ZIG-%STOP_DDL_PARSE-C
PL6.E3A0      #001=ZIG$D_FAIL File=ZIG$D_FAIL.:ZIC0TSI                           FRI 09/05/97 11:58 Page:41
       59     8282             MESSAGE: Parsing of the DDL has been stopped due to this error.
       60     8283             */
       61     8284    2           CALL M$EXIT(FPT_EXIT);

   8284 44 001725   000000 630400 41                 EPPR0   FPT_EXIT
        44 001726   000001 713400                    CLIMB   exit
        44 001727   400400 401760                    pmme    nvectors=2
        44 001730   003212 710000 44                 TRA     s:8479

       62     8285    2       CASE(%SCH_NM);

       63     8286    2           CALL ZIG$D_DIAG(LINE_COUNT - 1,%ERR_SEV,%DDL_ILL_CHAR);

   8286 44 001731   000000 236000 43                 LDQ     LINE_COUNT
        44 001732   000001 136007                    SBLQ    1,DL
        44 001733   200012 756100                    STQ     J+2,,AUTO
        44 001734   000012 237000 45                 LDAQ    10
        44 001735   200014 757100                    STAQ    J+4,,AUTO
        44 001736   200012 633500                    EPPR3   J+2,,AUTO
        44 001737   200013 453500                    STP3    J+3,,AUTO
        44 001740   200013 630500                    EPPR0   J+3,,AUTO
        44 001741   000006 631400 45                 EPPR1   6
        44 001742   000000 701000 xent               TSX1    ZIG$D_DIAG
        44 001743   000000 011000                    NOP     0
        44 001744   003212 710000 44                 TRA     s:8479

       64     8287         /*E*  ERROR: ZIG-%DDL_ILL_CHAR-C
       65     8288             MESSAGE: The name above contains an illegal character.
       66     8289              */
       67     8290    2       CASE(%ALTER,%LKS,%DISPLAY,%COPY);

       68     8291    2           CALL ZIG$D_DIAG(LINE_COUNT - 1,%ERR_SEV,%INV_SCHLK_TYPE);

   8291 44 001745   000000 236000 43                 LDQ     LINE_COUNT
        44 001746   000001 136007                    SBLQ    1,DL
        44 001747   200012 756100                    STQ     J+2,,AUTO
        44 001750   000014 237000 45                 LDAQ    12
PL6.E3A0      #001=ZIG$D_FAIL File=ZIG$D_FAIL.:ZIC0TSI                           FRI 09/05/97 11:58 Page:42
        44 001751   200014 757100                    STAQ    J+4,,AUTO
        44 001752   200012 633500                    EPPR3   J+2,,AUTO
        44 001753   200013 453500                    STP3    J+3,,AUTO
        44 001754   200013 630500                    EPPR0   J+3,,AUTO
        44 001755   000006 631400 45                 EPPR1   6
        44 001756   000000 701000 xent               TSX1    ZIG$D_DIAG
        44 001757   000000 011000                    NOP     0
        44 001760   003212 710000 44                 TRA     s:8479

       69     8292         /*E*  ERROR: ZIG-%INV_SCHLK_TYPE-C
       70     8293              MESSAGE: Valid schema lock types are LOCKS, DISPLAY, COPY,
       71     8294                       and ALTER, not %U1.
       72     8295              */
       73     8296    2       CASE(%SCH_LCK_NM);

       74     8297    2           CALL ZIG$D_DIAG(LINE_COUNT - 1,%ERR_SEV,%DDL_ILL_CHAR);

   8297 44 001761   000000 236000 43                 LDQ     LINE_COUNT
        44 001762   000001 136007                    SBLQ    1,DL
        44 001763   200012 756100                    STQ     J+2,,AUTO
        44 001764   000012 237000 45                 LDAQ    10
        44 001765   200014 757100                    STAQ    J+4,,AUTO
        44 001766   200012 633500                    EPPR3   J+2,,AUTO
        44 001767   200013 453500                    STP3    J+3,,AUTO
        44 001770   200013 630500                    EPPR0   J+3,,AUTO
        44 001771   000006 631400 45                 EPPR1   6
        44 001772   000000 701000 xent               TSX1    ZIG$D_DIAG
        44 001773   000000 011000                    NOP     0
        44 001774   003212 710000 44                 TRA     s:8479

       75     8298    2       CASE(%MPRIV,%RPRIV,%IPRIV,%SPRIV);

       76     8299    2           FIELD1.COUNT1 = 7;

   8299 44 001775   007000 236003                    LDQ     3584,DU
        44 001776   000000 552040 39                 STBQ    FIELD1,'40'O

PL6.E3A0      #001=ZIG$D_FAIL File=ZIG$D_FAIL.:ZIC0TSI                           FRI 09/05/97 11:58 Page:43
       77     8300    2           FIELD1.TEXT1 = 'PRIVACY';

   8300 44 001777   040000 100400                    MLR     fill='040'O
        44 002000   000011 000007 41                 ADSC9   FPT_EXIT+9               cn=0,n=7
        44 002001   000000 200037 39                 ADSC9   FIELD1                   cn=1,n=31

       78     8301    2           CALL ZIG$D_DIAG(LINE_COUNT - 1,%ERR_SEV,%CL_SYN_ERR);

   8301 44 002002   000000 235000 43                 LDA     LINE_COUNT
        44 002003   000001 135007                    SBLA    1,DL
        44 002004   200012 755100                    STA     J+2,,AUTO
        44 002005   000016 237000 45                 LDAQ    14
        44 002006   200014 757100                    STAQ    J+4,,AUTO
        44 002007   200012 633500                    EPPR3   J+2,,AUTO
        44 002010   200013 453500                    STP3    J+3,,AUTO
        44 002011   200013 630500                    EPPR0   J+3,,AUTO
        44 002012   000006 631400 45                 EPPR1   6
        44 002013   000000 701000 xent               TSX1    ZIG$D_DIAG
        44 002014   000000 011000                    NOP     0
        44 002015   003212 710000 44                 TRA     s:8479

       79     8302    2       CASE(%OTHER_DDL);

       80     8303    2           CALL ZIG$D_DIAG(LINE_COUNT - 1,%ERR_SEV,%DDL_ILL_CHAR);

   8303 44 002016   000000 236000 43                 LDQ     LINE_COUNT
        44 002017   000001 136007                    SBLQ    1,DL
        44 002020   200012 756100                    STQ     J+2,,AUTO
        44 002021   000012 237000 45                 LDAQ    10
        44 002022   200014 757100                    STAQ    J+4,,AUTO
        44 002023   200012 633500                    EPPR3   J+2,,AUTO
        44 002024   200013 453500                    STP3    J+3,,AUTO
        44 002025   200013 630500                    EPPR0   J+3,,AUTO
        44 002026   000006 631400 45                 EPPR1   6
        44 002027   000000 701000 xent               TSX1    ZIG$D_DIAG
        44 002030   000000 011000                    NOP     0
        44 002031   003212 710000 44                 TRA     s:8479
PL6.E3A0      #001=ZIG$D_FAIL File=ZIG$D_FAIL.:ZIC0TSI                           FRI 09/05/97 11:58 Page:44

       81     8304    2       CASE(%AC_ENT);

       82     8305    2           FIELD1.COUNT1 = 4;

   8305 44 002032   004000 236003                    LDQ     2048,DU
        44 002033   000000 552040 39                 STBQ    FIELD1,'40'O

       83     8306    2           FIELD1.TEXT1 = 'AREA';

   8306 44 002034   040000 100400                    MLR     fill='040'O
        44 002035   000013 000004 41                 ADSC9   FPT_EXIT+11              cn=0,n=4
        44 002036   000000 200037 39                 ADSC9   FIELD1                   cn=1,n=31

       84     8307    2           CALL ZIG$D_DIAG(LINE_COUNT - 1,%ERR_SEV,%CL_SYN_ERR);

   8307 44 002037   000000 235000 43                 LDA     LINE_COUNT
        44 002040   000001 135007                    SBLA    1,DL
        44 002041   200012 755100                    STA     J+2,,AUTO
        44 002042   000016 237000 45                 LDAQ    14
        44 002043   200014 757100                    STAQ    J+4,,AUTO
        44 002044   200012 633500                    EPPR3   J+2,,AUTO
        44 002045   200013 453500                    STP3    J+3,,AUTO
        44 002046   200013 630500                    EPPR0   J+3,,AUTO
        44 002047   000006 631400 45                 EPPR1   6
        44 002050   000000 701000 xent               TSX1    ZIG$D_DIAG
        44 002051   000000 011000                    NOP     0
        44 002052   003212 710000 44                 TRA     s:8479

       85     8308    2       CASE(%AC_NM);

       86     8309    2           CALL ZIG$D_DIAG(LINE_COUNT - 1,%ERR_SEV,%DDL_ILL_CHAR);

   8309 44 002053   000000 236000 43                 LDQ     LINE_COUNT
        44 002054   000001 136007                    SBLQ    1,DL
        44 002055   200012 756100                    STQ     J+2,,AUTO
        44 002056   000012 237000 45                 LDAQ    10
PL6.E3A0      #001=ZIG$D_FAIL File=ZIG$D_FAIL.:ZIC0TSI                           FRI 09/05/97 11:58 Page:45
        44 002057   200014 757100                    STAQ    J+4,,AUTO
        44 002060   200012 633500                    EPPR3   J+2,,AUTO
        44 002061   200013 453500                    STP3    J+3,,AUTO
        44 002062   200013 630500                    EPPR0   J+3,,AUTO
        44 002063   000006 631400 45                 EPPR1   6
        44 002064   000000 701000 xent               TSX1    ZIG$D_DIAG
        44 002065   000000 011000                    NOP     0
        44 002066   003212 710000 44                 TRA     s:8479

       87     8310    2       CASE(%TEMP_CL);

       88     8311    2           FIELD1.COUNT1 = 9;

   8311 44 002067   011000 236003                    LDQ     4608,DU
        44 002070   000000 552040 39                 STBQ    FIELD1,'40'O

       89     8312    2           FIELD1.TEXT1 = 'TEMPORARY';

   8312 44 002071   040000 100400                    MLR     fill='040'O
        44 002072   000014 000011 41                 ADSC9   FPT_EXIT+12              cn=0,n=9
        44 002073   000000 200037 39                 ADSC9   FIELD1                   cn=1,n=31

       90     8313    2           CALL ZIG$D_DIAG(LINE_COUNT - 1,%ERR_SEV,%CL_SYN_ERR);

   8313 44 002074   000000 235000 43                 LDA     LINE_COUNT
        44 002075   000001 135007                    SBLA    1,DL
        44 002076   200012 755100                    STA     J+2,,AUTO
        44 002077   000016 237000 45                 LDAQ    14
        44 002100   200014 757100                    STAQ    J+4,,AUTO
        44 002101   200012 633500                    EPPR3   J+2,,AUTO
        44 002102   200013 453500                    STP3    J+3,,AUTO
        44 002103   200013 630500                    EPPR0   J+3,,AUTO
        44 002104   000006 631400 45                 EPPR1   6
        44 002105   000000 701000 xent               TSX1    ZIG$D_DIAG
        44 002106   000000 011000                    NOP     0
        44 002107   003212 710000 44                 TRA     s:8479

PL6.E3A0      #001=ZIG$D_FAIL File=ZIG$D_FAIL.:ZIC0TSI                           FRI 09/05/97 11:58 Page:46
       91     8314         /*E* ERROR: ZIG-%CL_SYN_ERR-C
       92     8315              MESSAGE: Syntax error in %U1 clause.
       93     8316              */
       94     8317    2       CASE(%REC_ENT);

       95     8318    2           FIELD1.COUNT1 = 6;

   8318 44 002110   006000 236003                    LDQ     3072,DU
        44 002111   000000 552040 39                 STBQ    FIELD1,'40'O

       96     8319    2           FIELD1.TEXT1 = 'RECORD';

   8319 44 002112   040000 100400                    MLR     fill='040'O
        44 002113   000017 000006 41                 ADSC9   FPT_EXIT+15              cn=0,n=6
        44 002114   000000 200037 39                 ADSC9   FIELD1                   cn=1,n=31

       97     8320    2           CALL ZIG$D_DIAG(LINE_COUNT - 1,%ERR_SEV,%CL_SYN_ERR);

   8320 44 002115   000000 235000 43                 LDA     LINE_COUNT
        44 002116   000001 135007                    SBLA    1,DL
        44 002117   200012 755100                    STA     J+2,,AUTO
        44 002120   000016 237000 45                 LDAQ    14
        44 002121   200014 757100                    STAQ    J+4,,AUTO
        44 002122   200012 633500                    EPPR3   J+2,,AUTO
        44 002123   200013 453500                    STP3    J+3,,AUTO
        44 002124   200013 630500                    EPPR0   J+3,,AUTO
        44 002125   000006 631400 45                 EPPR1   6
        44 002126   000000 701000 xent               TSX1    ZIG$D_DIAG
        44 002127   000000 011000                    NOP     0
        44 002130   003212 710000 44                 TRA     s:8479

       98     8321    2       CASE(%REC_NM);

       99     8322    2           CALL ZIG$D_DIAG(LINE_COUNT - 1,%ERR_SEV,%DDL_ILL_CHAR);

   8322 44 002131   000000 236000 43                 LDQ     LINE_COUNT
        44 002132   000001 136007                    SBLQ    1,DL
PL6.E3A0      #001=ZIG$D_FAIL File=ZIG$D_FAIL.:ZIC0TSI                           FRI 09/05/97 11:58 Page:47
        44 002133   200012 756100                    STQ     J+2,,AUTO
        44 002134   000012 237000 45                 LDAQ    10
        44 002135   200014 757100                    STAQ    J+4,,AUTO
        44 002136   200012 633500                    EPPR3   J+2,,AUTO
        44 002137   200013 453500                    STP3    J+3,,AUTO
        44 002140   200013 630500                    EPPR0   J+3,,AUTO
        44 002141   000006 631400 45                 EPPR1   6
        44 002142   000000 701000 xent               TSX1    ZIG$D_DIAG
        44 002143   000000 011000                    NOP     0
        44 002144   003212 710000 44                 TRA     s:8479

      100     8323    2       CASE(%DIR_FR,%DIR_QRC,%DIR_QFR,%CLC_QRC,%CLC_QFR,%CLC_FR);

      101     8324    2           CALL ZIG$D_DIAG(LINE_COUNT - 1,%ERR_SEV,%DDL_ILL_CHAR);

   8324 44 002145   000000 236000 43                 LDQ     LINE_COUNT
        44 002146   000001 136007                    SBLQ    1,DL
        44 002147   200012 756100                    STQ     J+2,,AUTO
        44 002150   000012 237000 45                 LDAQ    10
        44 002151   200014 757100                    STAQ    J+4,,AUTO
        44 002152   200012 633500                    EPPR3   J+2,,AUTO
        44 002153   200013 453500                    STP3    J+3,,AUTO
        44 002154   200013 630500                    EPPR0   J+3,,AUTO
        44 002155   000006 631400 45                 EPPR1   6
        44 002156   000000 701000 xent               TSX1    ZIG$D_DIAG
        44 002157   000000 011000                    NOP     0
        44 002160   003212 710000 44                 TRA     s:8479

      102     8325    2       CASE(%ANY);

      103     8326    2           FIELD1.COUNT1 = 3;

   8326 44 002161   003000 236003                    LDQ     1536,DU
        44 002162   000000 552040 39                 STBQ    FIELD1,'40'O

      104     8327    2           FIELD1.TEXT1 = 'ANY';

PL6.E3A0      #001=ZIG$D_FAIL File=ZIG$D_FAIL.:ZIC0TSI                           FRI 09/05/97 11:58 Page:48
   8327 44 002163   040000 100400                    MLR     fill='040'O
        44 002164   000021 000003 41                 ADSC9   FPT_EXIT+17              cn=0,n=3
        44 002165   000000 200037 39                 ADSC9   FIELD1                   cn=1,n=31

      105     8328    2           CALL ZIG$D_DIAG(LINE_COUNT - 1,%ERR_SEV,%CL_SYN_ERR);

   8328 44 002166   000000 235000 43                 LDA     LINE_COUNT
        44 002167   000001 135007                    SBLA    1,DL
        44 002170   200012 755100                    STA     J+2,,AUTO
        44 002171   000016 237000 45                 LDAQ    14
        44 002172   200014 757100                    STAQ    J+4,,AUTO
        44 002173   200012 633500                    EPPR3   J+2,,AUTO
        44 002174   200013 453500                    STP3    J+3,,AUTO
        44 002175   200013 630500                    EPPR0   J+3,,AUTO
        44 002176   000006 631400 45                 EPPR1   6
        44 002177   000000 701000 xent               TSX1    ZIG$D_DIAG
        44 002200   000000 011000                    NOP     0
        44 002201   003212 710000 44                 TRA     s:8479

      106     8329    2       CASE(%NOT1,%NOT2,%NOT3);

      107     8330    2           CALL ZIG$D_DIAG(LINE_COUNT - 1,%ERR_SEV,%SCHDDL_NOT);

   8330 44 002202   000000 236000 43                 LDQ     LINE_COUNT
        44 002203   000001 136007                    SBLQ    1,DL
        44 002204   200012 756100                    STQ     J+2,,AUTO
        44 002205   000022 237000 45                 LDAQ    18
        44 002206   200014 757100                    STAQ    J+4,,AUTO
        44 002207   200012 633500                    EPPR3   J+2,,AUTO
        44 002210   200013 453500                    STP3    J+3,,AUTO
        44 002211   200013 630500                    EPPR0   J+3,,AUTO
        44 002212   000006 631400 45                 EPPR1   6
        44 002213   000000 701000 xent               TSX1    ZIG$D_DIAG
        44 002214   000000 011000                    NOP     0
        44 002215   003212 710000 44                 TRA     s:8479

      108     8331         /*E* ERROR: ZIG-%SCHDDL_NOT-C
PL6.E3A0      #001=ZIG$D_FAIL File=ZIG$D_FAIL.:ZIC0TSI                           FRI 09/05/97 11:58 Page:49
      109     8332              MESSAGE: The word NOT is either misspelled or missing.
      110     8333              */
      111     8334    2       CASE(%VIA_SC_NM,%INDX_KEY_NM);

      112     8335    2           CALL ZIG$D_DIAG(LINE_COUNT - 1,%ERR_SEV,%DDL_ILL_CHAR);

   8335 44 002216   000000 236000 43                 LDQ     LINE_COUNT
        44 002217   000001 136007                    SBLQ    1,DL
        44 002220   200012 756100                    STQ     J+2,,AUTO
        44 002221   000012 237000 45                 LDAQ    10
        44 002222   200014 757100                    STAQ    J+4,,AUTO
        44 002223   200012 633500                    EPPR3   J+2,,AUTO
        44 002224   200013 453500                    STP3    J+3,,AUTO
        44 002225   200013 630500                    EPPR0   J+3,,AUTO
        44 002226   000006 631400 45                 EPPR1   6
        44 002227   000000 701000 xent               TSX1    ZIG$D_DIAG
        44 002230   000000 011000                    NOP     0
        44 002231   003212 710000 44                 TRA     s:8479

      113     8336    2       CASE(%W_CL,%SINGLE_AC,%MULT_ACS,%AC_LIST,%W_AC_FIR);

      114     8337    2           FIELD1.COUNT1 = 6;

   8337 44 002232   006000 236003                    LDQ     3072,DU
        44 002233   000000 552040 39                 STBQ    FIELD1,'40'O

      115     8338    2           FIELD1.TEXT1 = 'WITHIN';

   8338 44 002234   040000 100400                    MLR     fill='040'O
        44 002235   000022 000006 41                 ADSC9   FPT_EXIT+18              cn=0,n=6
        44 002236   000000 200037 39                 ADSC9   FIELD1                   cn=1,n=31

      116     8339    2           CALL ZIG$D_DIAG(LINE_COUNT - 1,%ERR_SEV,%CL_SYN_ERR);

   8339 44 002237   000000 235000 43                 LDA     LINE_COUNT
        44 002240   000001 135007                    SBLA    1,DL
        44 002241   200012 755100                    STA     J+2,,AUTO
PL6.E3A0      #001=ZIG$D_FAIL File=ZIG$D_FAIL.:ZIC0TSI                           FRI 09/05/97 11:58 Page:50
        44 002242   000016 237000 45                 LDAQ    14
        44 002243   200014 757100                    STAQ    J+4,,AUTO
        44 002244   200012 633500                    EPPR3   J+2,,AUTO
        44 002245   200013 453500                    STP3    J+3,,AUTO
        44 002246   200013 630500                    EPPR0   J+3,,AUTO
        44 002247   000006 631400 45                 EPPR1   6
        44 002250   000000 701000 xent               TSX1    ZIG$D_DIAG
        44 002251   000000 011000                    NOP     0
        44 002252   003212 710000 44                 TRA     s:8479

      117     8340    2       CASE(%W_AC_NM,%EX_AC_NM);

      118     8341    2           CALL ZIG$D_DIAG(LINE_COUNT - 1,%ERR_SEV,%DDL_ILL_CHAR);

   8341 44 002253   000000 236000 43                 LDQ     LINE_COUNT
        44 002254   000001 136007                    SBLQ    1,DL
        44 002255   200012 756100                    STQ     J+2,,AUTO
        44 002256   000012 237000 45                 LDAQ    10
        44 002257   200014 757100                    STAQ    J+4,,AUTO
        44 002260   200012 633500                    EPPR3   J+2,,AUTO
        44 002261   200013 453500                    STP3    J+3,,AUTO
        44 002262   200013 630500                    EPPR0   J+3,,AUTO
        44 002263   000006 631400 45                 EPPR1   6
        44 002264   000000 701000 xent               TSX1    ZIG$D_DIAG
        44 002265   000000 011000                    NOP     0
        44 002266   003212 710000 44                 TRA     s:8479

      119     8342    2       CASE(%AC_ID);

      120     8343    2           FIELD1.COUNT1 = 10;

   8343 44 002267   012000 236003                    LDQ     5120,DU
        44 002270   000000 552040 39                 STBQ    FIELD1,'40'O

      121     8344    2           FIELD1.TEXT1 = 'AREA_ID IS';

   8344 44 002271   040000 100400                    MLR     fill='040'O
PL6.E3A0      #001=ZIG$D_FAIL File=ZIG$D_FAIL.:ZIC0TSI                           FRI 09/05/97 11:58 Page:51
        44 002272   000024 000012 41                 ADSC9   FPT_EXIT+20              cn=0,n=10
        44 002273   000000 200037 39                 ADSC9   FIELD1                   cn=1,n=31

      122     8345    2           CALL ZIG$D_DIAG(LINE_COUNT - 1,%ERR_SEV,%CL_SYN_ERR);

   8345 44 002274   000000 235000 43                 LDA     LINE_COUNT
        44 002275   000001 135007                    SBLA    1,DL
        44 002276   200012 755100                    STA     J+2,,AUTO
        44 002277   000016 237000 45                 LDAQ    14
        44 002300   200014 757100                    STAQ    J+4,,AUTO
        44 002301   200012 633500                    EPPR3   J+2,,AUTO
        44 002302   200013 453500                    STP3    J+3,,AUTO
        44 002303   200013 630500                    EPPR0   J+3,,AUTO
        44 002304   000006 631400 45                 EPPR1   6
        44 002305   000000 701000 xent               TSX1    ZIG$D_DIAG
        44 002306   000000 011000                    NOP     0
        44 002307   003212 710000 44                 TRA     s:8479

      123     8346    2       CASE(%AC_ID_NM);

      124     8347    2           CALL ZIG$D_DIAG(LINE_COUNT - 1,%ERR_SEV,%DDL_ILL_CHAR);

   8347 44 002310   000000 236000 43                 LDQ     LINE_COUNT
        44 002311   000001 136007                    SBLQ    1,DL
        44 002312   200012 756100                    STQ     J+2,,AUTO
        44 002313   000012 237000 45                 LDAQ    10
        44 002314   200014 757100                    STAQ    J+4,,AUTO
        44 002315   200012 633500                    EPPR3   J+2,,AUTO
        44 002316   200013 453500                    STP3    J+3,,AUTO
        44 002317   200013 630500                    EPPR0   J+3,,AUTO
        44 002320   000006 631400 45                 EPPR1   6
        44 002321   000000 701000 xent               TSX1    ZIG$D_DIAG
        44 002322   000000 011000                    NOP     0
        44 002323   003212 710000 44                 TRA     s:8479

      125     8348    2       CASE(%INSERT,%REMOVE,%STORE,%DELETE,%GET,%MODIFY,%FIND);

PL6.E3A0      #001=ZIG$D_FAIL File=ZIG$D_FAIL.:ZIC0TSI                           FRI 09/05/97 11:58 Page:52
      126     8349    2           CALL ZIG$D_DIAG(LINE_COUNT - 1,%ERR_SEV,%INV_RECLK_TYPE);

   8349 44 002324   000000 236000 43                 LDQ     LINE_COUNT
        44 002325   000001 136007                    SBLQ    1,DL
        44 002326   200012 756100                    STQ     J+2,,AUTO
        44 002327   000024 237000 45                 LDAQ    20
        44 002330   200014 757100                    STAQ    J+4,,AUTO
        44 002331   200012 633500                    EPPR3   J+2,,AUTO
        44 002332   200013 453500                    STP3    J+3,,AUTO
        44 002333   200013 630500                    EPPR0   J+3,,AUTO
        44 002334   000006 631400 45                 EPPR1   6
        44 002335   000000 701000 xent               TSX1    ZIG$D_DIAG
        44 002336   000000 011000                    NOP     0
        44 002337   003212 710000 44                 TRA     s:8479

      127     8350         /*E* ERROR: ZIG-%INV_RECLK_TYPE-C
      128     8351              MESSAGE: Valid record lock types are INSERT, REMOVE, STORE,
      129     8352                       DELETE, GET, MODIFY, or FIND, not %U1.
      130     8353              */
      131     8354    2       CASE(%REC_LCK_NM,%ALT_KEY_NM,%AKC_QFR,%AKC_QRC,%AKC_FR);

      132     8355    2           CALL ZIG$D_DIAG(LINE_COUNT - 1,%ERR_SEV,%DDL_ILL_CHAR);

   8355 44 002340   000000 236000 43                 LDQ     LINE_COUNT
        44 002341   000001 136007                    SBLQ    1,DL
        44 002342   200012 756100                    STQ     J+2,,AUTO
        44 002343   000012 237000 45                 LDAQ    10
        44 002344   200014 757100                    STAQ    J+4,,AUTO
        44 002345   200012 633500                    EPPR3   J+2,,AUTO
        44 002346   200013 453500                    STP3    J+3,,AUTO
        44 002347   200013 630500                    EPPR0   J+3,,AUTO
        44 002350   000006 631400 45                 EPPR1   6
        44 002351   000000 701000 xent               TSX1    ZIG$D_DIAG
        44 002352   000000 011000                    NOP     0
        44 002353   003212 710000 44                 TRA     s:8479

      133     8356    2       CASE(%FR_ENT);
PL6.E3A0      #001=ZIG$D_FAIL File=ZIG$D_FAIL.:ZIC0TSI                           FRI 09/05/97 11:58 Page:53

      134     8357    2           CALL ZIG$D_DIAG(LINE_COUNT - 1,%ERR_SEV,%FR_ENTRY_ERR);

   8357 44 002354   000000 236000 43                 LDQ     LINE_COUNT
        44 002355   000001 136007                    SBLQ    1,DL
        44 002356   200012 756100                    STQ     J+2,,AUTO
        44 002357   000030 237000 45                 LDAQ    24
        44 002360   200014 757100                    STAQ    J+4,,AUTO
        44 002361   200012 633500                    EPPR3   J+2,,AUTO
        44 002362   200013 453500                    STP3    J+3,,AUTO
        44 002363   200013 630500                    EPPR0   J+3,,AUTO
        44 002364   000006 631400 45                 EPPR1   6
        44 002365   000000 701000 xent               TSX1    ZIG$D_DIAG
        44 002366   000000 011000                    NOP     0
        44 002367   003212 710000 44                 TRA     s:8479

      135     8358         /*E* ERROR: ZIG-%FR_ENTRY_ERR-C
      136     8359              MESSAGE: Expected to see a level number followed by a field
      137     8360                       entry and '.'.
      138     8361              */
      139     8362    2       CASE(%LEVEL_NUM,%FR_NM);

      140     8363    2           CALL ZIG$D_DIAG(LINE_COUNT - 1,%ERR_SEV,%DDL_ILL_CHAR);

   8363 44 002370   000000 236000 43                 LDQ     LINE_COUNT
        44 002371   000001 136007                    SBLQ    1,DL
        44 002372   200012 756100                    STQ     J+2,,AUTO
        44 002373   000012 237000 45                 LDAQ    10
        44 002374   200014 757100                    STAQ    J+4,,AUTO
        44 002375   200012 633500                    EPPR3   J+2,,AUTO
        44 002376   200013 453500                    STP3    J+3,,AUTO
        44 002377   200013 630500                    EPPR0   J+3,,AUTO
        44 002400   000006 631400 45                 EPPR1   6
        44 002401   000000 701000 xent               TSX1    ZIG$D_DIAG
        44 002402   000000 011000                    NOP     0
        44 002403   003212 710000 44                 TRA     s:8479

PL6.E3A0      #001=ZIG$D_FAIL File=ZIG$D_FAIL.:ZIC0TSI                           FRI 09/05/97 11:58 Page:54
      141     8364    2       CASE(%FIXED,%FLOAT,%BINARY,%BIN_INT,%DEC_INT,%PLUS,%MINUS,

      142     8365    2              %SCALE_INT,%SIGNED,%CHAR_INT,%VARYING,%DBKEY,%UNSPEC_INT);
      143     8366    2           FIELD1.COUNT1 = 7;

   8366 44 002404   007000 236003                    LDQ     3584,DU
        44 002405   000000 552040 39                 STBQ    FIELD1,'40'O

      144     8367    2           FIELD1.TEXT1 = 'TYPE IS';

   8367 44 002406   040000 100400                    MLR     fill='040'O
        44 002407   000027 000007 41                 ADSC9   FPT_EXIT+23              cn=0,n=7
        44 002410   000000 200037 39                 ADSC9   FIELD1                   cn=1,n=31

      145     8368    2           CALL ZIG$D_DIAG(LINE_COUNT - 1,%ERR_SEV,%CL_SYN_ERR);

   8368 44 002411   000000 235000 43                 LDA     LINE_COUNT
        44 002412   000001 135007                    SBLA    1,DL
        44 002413   200012 755100                    STA     J+2,,AUTO
        44 002414   000016 237000 45                 LDAQ    14
        44 002415   200014 757100                    STAQ    J+4,,AUTO
        44 002416   200012 633500                    EPPR3   J+2,,AUTO
        44 002417   200013 453500                    STP3    J+3,,AUTO
        44 002420   200013 630500                    EPPR0   J+3,,AUTO
        44 002421   000006 631400 45                 EPPR1   6
        44 002422   000000 701000 xent               TSX1    ZIG$D_DIAG
        44 002423   000000 011000                    NOP     0
        44 002424   003212 710000 44                 TRA     s:8479

      146     8369    2       CASE(%DGET,%DMODIFY);

      147     8370    2           CALL ZIG$D_DIAG(LINE_COUNT - 1,%ERR_SEV,%INV_FRLK_TYPE);

   8370 44 002425   000000 236000 43                 LDQ     LINE_COUNT
        44 002426   000001 136007                    SBLQ    1,DL
        44 002427   200012 756100                    STQ     J+2,,AUTO
        44 002430   000032 237000 45                 LDAQ    26
PL6.E3A0      #001=ZIG$D_FAIL File=ZIG$D_FAIL.:ZIC0TSI                           FRI 09/05/97 11:58 Page:55
        44 002431   200014 757100                    STAQ    J+4,,AUTO
        44 002432   200012 633500                    EPPR3   J+2,,AUTO
        44 002433   200013 453500                    STP3    J+3,,AUTO
        44 002434   200013 630500                    EPPR0   J+3,,AUTO
        44 002435   000006 631400 45                 EPPR1   6
        44 002436   000000 701000 xent               TSX1    ZIG$D_DIAG
        44 002437   000000 011000                    NOP     0
        44 002440   003212 710000 44                 TRA     s:8479

      148     8371         /*E* ERROR: ZIG-%INV_FRLK_TYPE-C
      149     8372              MESSAGE: The only valid field lock types are GET or MODIFY,
      150     8373                       not %U1.
      151     8374              */
      152     8375    2       CASE(%FR_LCK_NM);

      153     8376    2           CALL ZIG$D_DIAG(LINE_COUNT - 1,%ERR_SEV,%DDL_ILL_CHAR);

   8376 44 002441   000000 236000 43                 LDQ     LINE_COUNT
        44 002442   000001 136007                    SBLQ    1,DL
        44 002443   200012 756100                    STQ     J+2,,AUTO
        44 002444   000012 237000 45                 LDAQ    10
        44 002445   200014 757100                    STAQ    J+4,,AUTO
        44 002446   200012 633500                    EPPR3   J+2,,AUTO
        44 002447   200013 453500                    STP3    J+3,,AUTO
        44 002450   200013 630500                    EPPR0   J+3,,AUTO
        44 002451   000006 631400 45                 EPPR1   6
        44 002452   000000 701000 xent               TSX1    ZIG$D_DIAG
        44 002453   000000 011000                    NOP     0
        44 002454   003212 710000 44                 TRA     s:8479

      154     8377    2       CASE(%SC_ENT);

      155     8378    2           FIELD1.COUNT1 = 3;

   8378 44 002455   003000 236003                    LDQ     1536,DU
        44 002456   000000 552040 39                 STBQ    FIELD1,'40'O

PL6.E3A0      #001=ZIG$D_FAIL File=ZIG$D_FAIL.:ZIC0TSI                           FRI 09/05/97 11:58 Page:56
      156     8379    2           FIELD1.TEXT1 = 'SET';

   8379 44 002457   040000 100400                    MLR     fill='040'O
        44 002460   000031 000003 41                 ADSC9   FPT_EXIT+25              cn=0,n=3
        44 002461   000000 200037 39                 ADSC9   FIELD1                   cn=1,n=31

      157     8380    2           CALL ZIG$D_DIAG(LINE_COUNT - 1,%ERR_SEV,%CL_SYN_ERR);

   8380 44 002462   000000 235000 43                 LDA     LINE_COUNT
        44 002463   000001 135007                    SBLA    1,DL
        44 002464   200012 755100                    STA     J+2,,AUTO
        44 002465   000016 237000 45                 LDAQ    14
        44 002466   200014 757100                    STAQ    J+4,,AUTO
        44 002467   200012 633500                    EPPR3   J+2,,AUTO
        44 002470   200013 453500                    STP3    J+3,,AUTO
        44 002471   200013 630500                    EPPR0   J+3,,AUTO
        44 002472   000006 631400 45                 EPPR1   6
        44 002473   000000 701000 xent               TSX1    ZIG$D_DIAG
        44 002474   000000 011000                    NOP     0
        44 002475   003212 710000 44                 TRA     s:8479

      158     8381    2       CASE(%SC_NM,%OWN_REC_NM);

      159     8382    2           CALL ZIG$D_DIAG(LINE_COUNT - 1,%ERR_SEV,%DDL_ILL_CHAR);

   8382 44 002476   000000 236000 43                 LDQ     LINE_COUNT
        44 002477   000001 136007                    SBLQ    1,DL
        44 002500   200012 756100                    STQ     J+2,,AUTO
        44 002501   000012 237000 45                 LDAQ    10
        44 002502   200014 757100                    STAQ    J+4,,AUTO
        44 002503   200012 633500                    EPPR3   J+2,,AUTO
        44 002504   200013 453500                    STP3    J+3,,AUTO
        44 002505   200013 630500                    EPPR0   J+3,,AUTO
        44 002506   000006 631400 45                 EPPR1   6
        44 002507   000000 701000 xent               TSX1    ZIG$D_DIAG
        44 002510   000000 011000                    NOP     0
        44 002511   003212 710000 44                 TRA     s:8479
PL6.E3A0      #001=ZIG$D_FAIL File=ZIG$D_FAIL.:ZIC0TSI                           FRI 09/05/97 11:58 Page:57

      160     8383    2       CASE(%PRIOR_CL);

      161     8384    2           FIELD1.COUNT1 = 5;

   8384 44 002512   005000 236003                    LDQ     2560,DU
        44 002513   000000 552040 39                 STBQ    FIELD1,'40'O

      162     8385    2           FIELD1.TEXT1 = 'PRIOR';

   8385 44 002514   040000 100400                    MLR     fill='040'O
        44 002515   000032 000005 41                 ADSC9   FPT_EXIT+26              cn=0,n=5
        44 002516   000000 200037 39                 ADSC9   FIELD1                   cn=1,n=31

      163     8386    2           CALL ZIG$D_DIAG(LINE_COUNT - 1,%ERR_SEV,%CL_SYN_ERR);

   8386 44 002517   000000 235000 43                 LDA     LINE_COUNT
        44 002520   000001 135007                    SBLA    1,DL
        44 002521   200012 755100                    STA     J+2,,AUTO
        44 002522   000016 237000 45                 LDAQ    14
        44 002523   200014 757100                    STAQ    J+4,,AUTO
        44 002524   200012 633500                    EPPR3   J+2,,AUTO
        44 002525   200013 453500                    STP3    J+3,,AUTO
        44 002526   200013 630500                    EPPR0   J+3,,AUTO
        44 002527   000006 631400 45                 EPPR1   6
        44 002530   000000 701000 xent               TSX1    ZIG$D_DIAG
        44 002531   000000 011000                    NOP     0
        44 002532   003212 710000 44                 TRA     s:8479

      164     8387    2       CASE(%ORDER_CL,%PERM);

      165     8388    2           FIELD1.COUNT1 = 5;

   8388 44 002533   005000 236003                    LDQ     2560,DU
        44 002534   000000 552040 39                 STBQ    FIELD1,'40'O

      166     8389    2           FIELD1.TEXT1 = 'ORDER';
PL6.E3A0      #001=ZIG$D_FAIL File=ZIG$D_FAIL.:ZIC0TSI                           FRI 09/05/97 11:58 Page:58

   8389 44 002535   040000 100400                    MLR     fill='040'O
        44 002536   000034 000005 41                 ADSC9   FPT_EXIT+28              cn=0,n=5
        44 002537   000000 200037 39                 ADSC9   FIELD1                   cn=1,n=31

      167     8390    2           CALL ZIG$D_DIAG(LINE_COUNT - 1,%ERR_SEV,%CL_SYN_ERR);

   8390 44 002540   000000 235000 43                 LDA     LINE_COUNT
        44 002541   000001 135007                    SBLA    1,DL
        44 002542   200012 755100                    STA     J+2,,AUTO
        44 002543   000016 237000 45                 LDAQ    14
        44 002544   200014 757100                    STAQ    J+4,,AUTO
        44 002545   200012 633500                    EPPR3   J+2,,AUTO
        44 002546   200013 453500                    STP3    J+3,,AUTO
        44 002547   200013 630500                    EPPR0   J+3,,AUTO
        44 002550   000006 631400 45                 EPPR1   6
        44 002551   000000 701000 xent               TSX1    ZIG$D_DIAG
        44 002552   000000 011000                    NOP     0
        44 002553   003212 710000 44                 TRA     s:8479

      168     8391    2       CASE(%FIRST,%LAST,%NEXT,%PRIOR,%IN_REC);

      169     8392    2           CALL ZIG$D_DIAG(LINE_COUNT - 1,%ERR_SEV,%INV_INSRT_CLS);

   8392 44 002554   000000 236000 43                 LDQ     LINE_COUNT
        44 002555   000001 136007                    SBLQ    1,DL
        44 002556   200012 756100                    STQ     J+2,,AUTO
        44 002557   000036 237000 45                 LDAQ    30
        44 002560   200014 757100                    STAQ    J+4,,AUTO
        44 002561   200012 633500                    EPPR3   J+2,,AUTO
        44 002562   200013 453500                    STP3    J+3,,AUTO
        44 002563   200013 630500                    EPPR0   J+3,,AUTO
        44 002564   000006 631400 45                 EPPR1   6
        44 002565   000000 701000 xent               TSX1    ZIG$D_DIAG
        44 002566   000000 011000                    NOP     0
        44 002567   003212 710000 44                 TRA     s:8479

PL6.E3A0      #001=ZIG$D_FAIL File=ZIG$D_FAIL.:ZIC0TSI                           FRI 09/05/97 11:58 Page:59
      170     8393         /*E* ERROR: ZIG-%INV_INSRT_CLS-C
      171     8394              MESSAGE: Accepted options are FIRST, LAST, NEXT, PRIOR, SORTED
      172     8395                       WITHIN RECORD NAME or SORTED BY DEFINED KEYS, not %U1.
      173     8396              */
      174     8397    2       CASE(%BY_KEY);

      175     8398    2           FIELD1.COUNT1 = 9;

   8398 44 002570   011000 236003                    LDQ     4608,DU
        44 002571   000000 552040 39                 STBQ    FIELD1,'40'O

      176     8399    2           FIELD1.TEXT1 = 'SORTED BY';

   8399 44 002572   040000 100400                    MLR     fill='040'O
        44 002573   000036 000011 41                 ADSC9   FPT_EXIT+30              cn=0,n=9
        44 002574   000000 200037 39                 ADSC9   FIELD1                   cn=1,n=31

      177     8400    2           CALL ZIG$D_DIAG(LINE_COUNT - 1,%ERR_SEV,%CL_SYN_ERR);

   8400 44 002575   000000 235000 43                 LDA     LINE_COUNT
        44 002576   000001 135007                    SBLA    1,DL
        44 002577   200012 755100                    STA     J+2,,AUTO
        44 002600   000016 237000 45                 LDAQ    14
        44 002601   200014 757100                    STAQ    J+4,,AUTO
        44 002602   200012 633500                    EPPR3   J+2,,AUTO
        44 002603   200013 453500                    STP3    J+3,,AUTO
        44 002604   200013 630500                    EPPR0   J+3,,AUTO
        44 002605   000006 631400 45                 EPPR1   6
        44 002606   000000 701000 xent               TSX1    ZIG$D_DIAG
        44 002607   000000 011000                    NOP     0
        44 002610   003212 710000 44                 TRA     s:8479

      178     8401    2       CASE(%SFIRST,%SLAST,%S_NOT);

      179     8402    2           FIELD1.COUNT1 = 10;

   8402 44 002611   012000 236003                    LDQ     5120,DU
PL6.E3A0      #001=ZIG$D_FAIL File=ZIG$D_FAIL.:ZIC0TSI                           FRI 09/05/97 11:58 Page:60
        44 002612   000000 552040 39                 STBQ    FIELD1,'40'O

      180     8403    2           FIELD1.TEXT1 = 'DUPLICATES';

   8403 44 002613   040000 100400                    MLR     fill='040'O
        44 002614   000041 000012 41                 ADSC9   FPT_EXIT+33              cn=0,n=10
        44 002615   000000 200037 39                 ADSC9   FIELD1                   cn=1,n=31

      181     8404    2           CALL ZIG$D_DIAG(LINE_COUNT - 1,%ERR_SEV,%CL_SYN_ERR);

   8404 44 002616   000000 235000 43                 LDA     LINE_COUNT
        44 002617   000001 135007                    SBLA    1,DL
        44 002620   200012 755100                    STA     J+2,,AUTO
        44 002621   000016 237000 45                 LDAQ    14
        44 002622   200014 757100                    STAQ    J+4,,AUTO
        44 002623   200012 633500                    EPPR3   J+2,,AUTO
        44 002624   200013 453500                    STP3    J+3,,AUTO
        44 002625   200013 630500                    EPPR0   J+3,,AUTO
        44 002626   000006 631400 45                 EPPR1   6
        44 002627   000000 701000 xent               TSX1    ZIG$D_DIAG
        44 002630   000000 011000                    NOP     0
        44 002631   003212 710000 44                 TRA     s:8479

      182     8405    2       CASE(%SINSERT,%SREMOVE,%SFIND);

      183     8406    2           CALL ZIG$D_DIAG(LINE_COUNT - 1,%ERR_SEV,%INV_SETLK_TYPE);

   8406 44 002632   000000 236000 43                 LDQ     LINE_COUNT
        44 002633   000001 136007                    SBLQ    1,DL
        44 002634   200012 756100                    STQ     J+2,,AUTO
        44 002635   000040 237000 45                 LDAQ    32
        44 002636   200014 757100                    STAQ    J+4,,AUTO
        44 002637   200012 633500                    EPPR3   J+2,,AUTO
        44 002640   200013 453500                    STP3    J+3,,AUTO
        44 002641   200013 630500                    EPPR0   J+3,,AUTO
        44 002642   000006 631400 45                 EPPR1   6
        44 002643   000000 701000 xent               TSX1    ZIG$D_DIAG
PL6.E3A0      #001=ZIG$D_FAIL File=ZIG$D_FAIL.:ZIC0TSI                           FRI 09/05/97 11:58 Page:61
        44 002644   000000 011000                    NOP     0
        44 002645   003212 710000 44                 TRA     s:8479

      184     8407         /*E* ERROR: ZIG-%INV_SETLK_TYPE-C
      185     8408              MESSAGE: Valid set lock types are INSERT, REMOVE, or FIND,
      186     8409                       not %U1.
      187     8410              */
      188     8411    2       CASE(%SC_LCK_NM,%MEM_REC_NM);

      189     8412    2           CALL ZIG$D_DIAG(LINE_COUNT - 1,%ERR_SEV,%DDL_ILL_CHAR);

   8412 44 002646   000000 236000 43                 LDQ     LINE_COUNT
        44 002647   000001 136007                    SBLQ    1,DL
        44 002650   200012 756100                    STQ     J+2,,AUTO
        44 002651   000012 237000 45                 LDAQ    10
        44 002652   200014 757100                    STAQ    J+4,,AUTO
        44 002653   200012 633500                    EPPR3   J+2,,AUTO
        44 002654   200013 453500                    STP3    J+3,,AUTO
        44 002655   200013 630500                    EPPR0   J+3,,AUTO
        44 002656   000006 631400 45                 EPPR1   6
        44 002657   000000 701000 xent               TSX1    ZIG$D_DIAG
        44 002660   000000 011000                    NOP     0
        44 002661   003212 710000 44                 TRA     s:8479

      190     8413    2       CASE(%MEM_ENT);

      191     8414    2           FIELD1.COUNT1 = 6;

   8414 44 002662   006000 236003                    LDQ     3072,DU
        44 002663   000000 552040 39                 STBQ    FIELD1,'40'O

      192     8415    2           FIELD1.TEXT1 = 'MEMBER';

   8415 44 002664   040000 100400                    MLR     fill='040'O
        44 002665   000044 000006 41                 ADSC9   FPT_EXIT+36              cn=0,n=6
        44 002666   000000 200037 39                 ADSC9   FIELD1                   cn=1,n=31

PL6.E3A0      #001=ZIG$D_FAIL File=ZIG$D_FAIL.:ZIC0TSI                           FRI 09/05/97 11:58 Page:62
      193     8416    2           CALL ZIG$D_DIAG(LINE_COUNT - 1,%ERR_SEV,%CL_SYN_ERR);

   8416 44 002667   000000 235000 43                 LDA     LINE_COUNT
        44 002670   000001 135007                    SBLA    1,DL
        44 002671   200012 755100                    STA     J+2,,AUTO
        44 002672   000016 237000 45                 LDAQ    14
        44 002673   200014 757100                    STAQ    J+4,,AUTO
        44 002674   200012 633500                    EPPR3   J+2,,AUTO
        44 002675   200013 453500                    STP3    J+3,,AUTO
        44 002676   200013 630500                    EPPR0   J+3,,AUTO
        44 002677   000006 631400 45                 EPPR1   6
        44 002700   000000 701000 xent               TSX1    ZIG$D_DIAG
        44 002701   000000 011000                    NOP     0
        44 002702   003212 710000 44                 TRA     s:8479

      194     8417    2       CASE(%AUTO,%MANUAL);

      195     8418    2           CALL ZIG$D_DIAG(LINE_COUNT - 1,%ERR_SEV,%INV_MEM_INS_OPT);

   8418 44 002703   000000 236000 43                 LDQ     LINE_COUNT
        44 002704   000001 136007                    SBLQ    1,DL
        44 002705   200012 756100                    STQ     J+2,,AUTO
        44 002706   000044 237000 45                 LDAQ    36
        44 002707   200014 757100                    STAQ    J+4,,AUTO
        44 002710   200012 633500                    EPPR3   J+2,,AUTO
        44 002711   200013 453500                    STP3    J+3,,AUTO
        44 002712   200013 630500                    EPPR0   J+3,,AUTO
        44 002713   000006 631400 45                 EPPR1   6
        44 002714   000000 701000 xent               TSX1    ZIG$D_DIAG
        44 002715   000000 011000                    NOP     0
        44 002716   003212 710000 44                 TRA     s:8479

      196     8419         /*E* ERROR: ZIG-%INV_MEM_INS_OPT-C
      197     8420              MESSAGE: Valid insertion options are AUTO[MATIC] or MAN[UAL],
      198     8421                       not %U1.
      199     8422              */
      200     8423    2       CASE(%MANDATORY,%OPTIONAL);
PL6.E3A0      #001=ZIG$D_FAIL File=ZIG$D_FAIL.:ZIC0TSI                           FRI 09/05/97 11:58 Page:63

      201     8424    2           CALL ZIG$D_DIAG(LINE_COUNT - 1,%ERR_SEV,%INV_MEM_RET_OPT);

   8424 44 002717   000000 236000 43                 LDQ     LINE_COUNT
        44 002720   000001 136007                    SBLQ    1,DL
        44 002721   200012 756100                    STQ     J+2,,AUTO
        44 002722   000046 237000 45                 LDAQ    38
        44 002723   200014 757100                    STAQ    J+4,,AUTO
        44 002724   200012 633500                    EPPR3   J+2,,AUTO
        44 002725   200013 453500                    STP3    J+3,,AUTO
        44 002726   200013 630500                    EPPR0   J+3,,AUTO
        44 002727   000006 631400 45                 EPPR1   6
        44 002730   000000 701000 xent               TSX1    ZIG$D_DIAG
        44 002731   000000 011000                    NOP     0
        44 002732   003212 710000 44                 TRA     s:8479

      202     8425         /*E* ERROR: ZIG-%INV_MEM_RET_OPT-C
      203     8426              MESSAGE: Valid retention options are MAND[ATORY] or OPT[IONAL],
      204     8427                       not %U1.
      205     8428              */
      206     8429    2       CASE(%LINKED);

      207     8430    2           FIELD1.COUNT1 = 6;

   8430 44 002733   006000 236003                    LDQ     3072,DU
        44 002734   000000 552040 39                 STBQ    FIELD1,'40'O

      208     8431    2           FIELD1.TEXT1 = 'LINKED';

   8431 44 002735   040000 100400                    MLR     fill='040'O
        44 002736   000046 000006 41                 ADSC9   FPT_EXIT+38              cn=0,n=6
        44 002737   000000 200037 39                 ADSC9   FIELD1                   cn=1,n=31

      209     8432    2           CALL ZIG$D_DIAG(LINE_COUNT - 1,%ERR_SEV,%CL_SYN_ERR);

   8432 44 002740   000000 235000 43                 LDA     LINE_COUNT
        44 002741   000001 135007                    SBLA    1,DL
PL6.E3A0      #001=ZIG$D_FAIL File=ZIG$D_FAIL.:ZIC0TSI                           FRI 09/05/97 11:58 Page:64
        44 002742   200012 755100                    STA     J+2,,AUTO
        44 002743   000016 237000 45                 LDAQ    14
        44 002744   200014 757100                    STAQ    J+4,,AUTO
        44 002745   200012 633500                    EPPR3   J+2,,AUTO
        44 002746   200013 453500                    STP3    J+3,,AUTO
        44 002747   200013 630500                    EPPR0   J+3,,AUTO
        44 002750   000006 631400 45                 EPPR1   6
        44 002751   000000 701000 xent               TSX1    ZIG$D_DIAG
        44 002752   000000 011000                    NOP     0
        44 002753   003212 710000 44                 TRA     s:8479

      210     8433    2       CASE(%DUP_QRC,%DUP_QFR,%DUP_FR);

      211     8434    2           CALL ZIG$D_DIAG(LINE_COUNT - 1,%ERR_SEV,%DDL_ILL_CHAR);

   8434 44 002754   000000 236000 43                 LDQ     LINE_COUNT
        44 002755   000001 136007                    SBLQ    1,DL
        44 002756   200012 756100                    STQ     J+2,,AUTO
        44 002757   000012 237000 45                 LDAQ    10
        44 002760   200014 757100                    STAQ    J+4,,AUTO
        44 002761   200012 633500                    EPPR3   J+2,,AUTO
        44 002762   200013 453500                    STP3    J+3,,AUTO
        44 002763   200013 630500                    EPPR0   J+3,,AUTO
        44 002764   000006 631400 45                 EPPR1   6
        44 002765   000000 701000 xent               TSX1    ZIG$D_DIAG
        44 002766   000000 011000                    NOP     0
        44 002767   003212 710000 44                 TRA     s:8479

      212     8435    2       CASE(%SORTKEY_CL);

      213     8436    2           FIELD1.COUNT1 = 6;

   8436 44 002770   006000 236003                    LDQ     3072,DU
        44 002771   000000 552040 39                 STBQ    FIELD1,'40'O

      214     8437    2           FIELD1.TEXT1 = 'KEY IS';

PL6.E3A0      #001=ZIG$D_FAIL File=ZIG$D_FAIL.:ZIC0TSI                           FRI 09/05/97 11:58 Page:65
   8437 44 002772   040000 100400                    MLR     fill='040'O
        44 002773   000050 000006 41                 ADSC9   FPT_EXIT+40              cn=0,n=6
        44 002774   000000 200037 39                 ADSC9   FIELD1                   cn=1,n=31

      215     8438    2           CALL ZIG$D_DIAG(LINE_COUNT - 1,%ERR_SEV,%CL_SYN_ERR);

   8438 44 002775   000000 235000 43                 LDA     LINE_COUNT
        44 002776   000001 135007                    SBLA    1,DL
        44 002777   200012 755100                    STA     J+2,,AUTO
        44 003000   000016 237000 45                 LDAQ    14
        44 003001   200014 757100                    STAQ    J+4,,AUTO
        44 003002   200012 633500                    EPPR3   J+2,,AUTO
        44 003003   200013 453500                    STP3    J+3,,AUTO
        44 003004   200013 630500                    EPPR0   J+3,,AUTO
        44 003005   000006 631400 45                 EPPR1   6
        44 003006   000000 701000 xent               TSX1    ZIG$D_DIAG
        44 003007   000000 011000                    NOP     0
        44 003010   003212 710000 44                 TRA     s:8479

      216     8439    2       CASE(%ASCENDING,%DESCENDING);

      217     8440    2           CALL ZIG$D_DIAG(LINE_COUNT - 1,%ERR_SEV,%INV_SORTK_OPT);

   8440 44 003011   000000 236000 43                 LDQ     LINE_COUNT
        44 003012   000001 136007                    SBLQ    1,DL
        44 003013   200012 756100                    STQ     J+2,,AUTO
        44 003014   000052 237000 45                 LDAQ    42
        44 003015   200014 757100                    STAQ    J+4,,AUTO
        44 003016   200012 633500                    EPPR3   J+2,,AUTO
        44 003017   200013 453500                    STP3    J+3,,AUTO
        44 003020   200013 630500                    EPPR0   J+3,,AUTO
        44 003021   000006 631400 45                 EPPR1   6
        44 003022   000000 701000 xent               TSX1    ZIG$D_DIAG
        44 003023   000000 011000                    NOP     0
        44 003024   003212 710000 44                 TRA     s:8479

      218     8441         /*E*  ERROR: ZIG-%INV_SORTK_OPT-C
PL6.E3A0      #001=ZIG$D_FAIL File=ZIG$D_FAIL.:ZIC0TSI                           FRI 09/05/97 11:58 Page:66
      219     8442              MESSAGE: Sort keys must be in either ASCENDING or DESCENDING order.
      220     8443              */
      221     8444    2       CASE(%SKC_QFR,%SKC_QRC,%SKC_FR);

      222     8445    2           CALL ZIG$D_DIAG(LINE_COUNT - 1,%ERR_SEV,%DDL_ILL_CHAR);

   8445 44 003025   000000 236000 43                 LDQ     LINE_COUNT
        44 003026   000001 136007                    SBLQ    1,DL
        44 003027   200012 756100                    STQ     J+2,,AUTO
        44 003030   000012 237000 45                 LDAQ    10
        44 003031   200014 757100                    STAQ    J+4,,AUTO
        44 003032   200012 633500                    EPPR3   J+2,,AUTO
        44 003033   200013 453500                    STP3    J+3,,AUTO
        44 003034   200013 630500                    EPPR0   J+3,,AUTO
        44 003035   000006 631400 45                 EPPR1   6
        44 003036   000000 701000 xent               TSX1    ZIG$D_DIAG
        44 003037   000000 011000                    NOP     0
        44 003040   003212 710000 44                 TRA     s:8479

      223     8446    2       CASE(%MFIRST,%MLAST,%MNOT);

      224     8447    2           CALL ZIG$D_DIAG(LINE_COUNT - 1,%ERR_SEV,%INV_DUPS_ARE);

   8447 44 003041   000000 236000 43                 LDQ     LINE_COUNT
        44 003042   000001 136007                    SBLQ    1,DL
        44 003043   200012 756100                    STQ     J+2,,AUTO
        44 003044   000054 237000 45                 LDAQ    44
        44 003045   200014 757100                    STAQ    J+4,,AUTO
        44 003046   200012 633500                    EPPR3   J+2,,AUTO
        44 003047   200013 453500                    STP3    J+3,,AUTO
        44 003050   200013 630500                    EPPR0   J+3,,AUTO
        44 003051   000006 631400 45                 EPPR1   6
        44 003052   000000 701000 xent               TSX1    ZIG$D_DIAG
        44 003053   000000 011000                    NOP     0
        44 003054   003212 710000 44                 TRA     s:8479

      225     8448         /*E*  ERROR: ZIG-%INV_DUPS_ARE-C
PL6.E3A0      #001=ZIG$D_FAIL File=ZIG$D_FAIL.:ZIC0TSI                           FRI 09/05/97 11:58 Page:67
      226     8449              MESSAGE:  Duplicates must be specified as being FIRST, LAST, or
      227     8450                        NOT ALLOWED.
      228     8451              */
      229     8452    2       CASE(%SEL_PHR);

      230     8453    2           FIELD1.COUNT1 = 13;

   8453 44 003055   015000 236003                    LDQ     6656,DU
        44 003056   000000 552040 39                 STBQ    FIELD1,'40'O

      231     8454    2           FIELD1.TEXT1 = 'SET SELECTION';

   8454 44 003057   040000 100400                    MLR     fill='040'O
        44 003060   000052 000015 41                 ADSC9   FPT_EXIT+42              cn=0,n=13
        44 003061   000000 200037 39                 ADSC9   FIELD1                   cn=1,n=31

      232     8455    2           CALL ZIG$D_DIAG(LINE_COUNT - 1,%ERR_SEV,%CL_SYN_ERR);

   8455 44 003062   000000 235000 43                 LDA     LINE_COUNT
        44 003063   000001 135007                    SBLA    1,DL
        44 003064   200012 755100                    STA     J+2,,AUTO
        44 003065   000016 237000 45                 LDAQ    14
        44 003066   200014 757100                    STAQ    J+4,,AUTO
        44 003067   200012 633500                    EPPR3   J+2,,AUTO
        44 003070   200013 453500                    STP3    J+3,,AUTO
        44 003071   200013 630500                    EPPR0   J+3,,AUTO
        44 003072   000006 631400 45                 EPPR1   6
        44 003073   000000 701000 xent               TSX1    ZIG$D_DIAG
        44 003074   000000 011000                    NOP     0
        44 003075   003212 710000 44                 TRA     s:8479

      233     8456    2       CASE(%FOR_SC_NM,%SEL_SC_NM);

      234     8457    2           CALL ZIG$D_DIAG(LINE_COUNT - 1,%ERR_SEV,%DDL_ILL_CHAR);

   8457 44 003076   000000 236000 43                 LDQ     LINE_COUNT
        44 003077   000001 136007                    SBLQ    1,DL
PL6.E3A0      #001=ZIG$D_FAIL File=ZIG$D_FAIL.:ZIC0TSI                           FRI 09/05/97 11:58 Page:68
        44 003100   200012 756100                    STQ     J+2,,AUTO
        44 003101   000012 237000 45                 LDAQ    10
        44 003102   200014 757100                    STAQ    J+4,,AUTO
        44 003103   200012 633500                    EPPR3   J+2,,AUTO
        44 003104   200013 453500                    STP3    J+3,,AUTO
        44 003105   200013 630500                    EPPR0   J+3,,AUTO
        44 003106   000006 631400 45                 EPPR1   6
        44 003107   000000 701000 xent               TSX1    ZIG$D_DIAG
        44 003110   000000 011000                    NOP     0
        44 003111   003212 710000 44                 TRA     s:8479

      235     8458    2       CASE(%OWN_ID_PHR,%APPLICATION,%DBK_ONLY);

      236     8459    2           FIELD1.COUNT1 = 8;

   8459 44 003112   010000 236003                    LDQ     4096,DU
        44 003113   000000 552040 39                 STBQ    FIELD1,'40'O

      237     8460    2           FIELD1.TEXT1 = 'OWNER ID';

   8460 44 003114   040000 100400                    MLR     fill='040'O
        44 003115   000056 000010 41                 ADSC9   FPT_EXIT+46              cn=0,n=8
        44 003116   000000 200037 39                 ADSC9   FIELD1                   cn=1,n=31

      238     8461    2           CALL ZIG$D_DIAG(LINE_COUNT - 1,%ERR_SEV,%CL_SYN_ERR);

   8461 44 003117   000000 235000 43                 LDA     LINE_COUNT
        44 003120   000001 135007                    SBLA    1,DL
        44 003121   200012 755100                    STA     J+2,,AUTO
        44 003122   000016 237000 45                 LDAQ    14
        44 003123   200014 757100                    STAQ    J+4,,AUTO
        44 003124   200012 633500                    EPPR3   J+2,,AUTO
        44 003125   200013 453500                    STP3    J+3,,AUTO
        44 003126   200013 630500                    EPPR0   J+3,,AUTO
        44 003127   000006 631400 45                 EPPR1   6
        44 003130   000000 701000 xent               TSX1    ZIG$D_DIAG
        44 003131   000000 011000                    NOP     0
PL6.E3A0      #001=ZIG$D_FAIL File=ZIG$D_FAIL.:ZIC0TSI                           FRI 09/05/97 11:58 Page:69
        44 003132   003212 710000 44                 TRA     s:8479

      239     8462    2       CASE(%DEQ_QRC,%DEQ_QFR,%DEQ_FR,%MEM_SEL_REC_NM,%SELEC_SC_NM,

      240     8463    2              %CEQ_QRC,%CEQ_QFR,%CEQ_FR);
      241     8464    2           CALL ZIG$D_DIAG(LINE_COUNT - 1,%ERR_SEV,%DDL_ILL_CHAR);

   8464 44 003133   000000 236000 43                 LDQ     LINE_COUNT
        44 003134   000001 136007                    SBLQ    1,DL
        44 003135   200012 756100                    STQ     J+2,,AUTO
        44 003136   000012 237000 45                 LDAQ    10
        44 003137   200014 757100                    STAQ    J+4,,AUTO
        44 003140   200012 633500                    EPPR3   J+2,,AUTO
        44 003141   200013 453500                    STP3    J+3,,AUTO
        44 003142   200013 630500                    EPPR0   J+3,,AUTO
        44 003143   000006 631400 45                 EPPR1   6
        44 003144   000000 701000 xent               TSX1    ZIG$D_DIAG
        44 003145   000000 011000                    NOP     0
        44 003146   003212 710000 44                 TRA     s:8479

      242     8465    2       CASE(%WHR_QRC,%WHR_QFR,%WHR_FR,%WEQ_QRC,%WEQ_QFR,%WEQ_FR);

      243     8466    2           CALL ZIG$D_DIAG(LINE_COUNT - 1,%ERR_SEV,%DDL_ILL_CHAR);

   8466 44 003147   000000 236000 43                 LDQ     LINE_COUNT
        44 003150   000001 136007                    SBLQ    1,DL
        44 003151   200012 756100                    STQ     J+2,,AUTO
        44 003152   000012 237000 45                 LDAQ    10
        44 003153   200014 757100                    STAQ    J+4,,AUTO
        44 003154   200012 633500                    EPPR3   J+2,,AUTO
        44 003155   200013 453500                    STP3    J+3,,AUTO
        44 003156   200013 630500                    EPPR0   J+3,,AUTO
        44 003157   000006 631400 45                 EPPR1   6
        44 003160   000000 701000 xent               TSX1    ZIG$D_DIAG
        44 003161   000000 011000                    NOP     0
        44 003162   003212 710000 44                 TRA     s:8479

PL6.E3A0      #001=ZIG$D_FAIL File=ZIG$D_FAIL.:ZIC0TSI                           FRI 09/05/97 11:58 Page:70
      244     8467    2       CASE(%END_SCH);

      245     8468    2           CALL ZIG$D_DIAG(LINE_COUNT - 1,%ERR_SEV,%END_SCH_ERR);

   8468 44 003163   000000 236000 43                 LDQ     LINE_COUNT
        44 003164   000001 136007                    SBLQ    1,DL
        44 003165   200012 756100                    STQ     J+2,,AUTO
        44 003166   000060 237000 45                 LDAQ    48
        44 003167   200014 757100                    STAQ    J+4,,AUTO
        44 003170   200012 633500                    EPPR3   J+2,,AUTO
        44 003171   200013 453500                    STP3    J+3,,AUTO
        44 003172   200013 630500                    EPPR0   J+3,,AUTO
        44 003173   000006 631400 45                 EPPR1   6
        44 003174   000000 701000 xent               TSX1    ZIG$D_DIAG
        44 003175   000000 011000                    NOP     0
        44 003176   003212 710000 44                 TRA     s:8479

      246     8469         /*E*  ERROR: ZIG-%END_SCH_ERR-C
      247     8470              MESSAGE: The END_SCHEMA phrase is either misspelled or missing.
      248     8471              */
      249     8472    2       CASE(%PERIOD,%SCH_PERIOD,%AC_PERIOD,%RC_PERIOD,%FR_PERIOD,

      250     8473    2              %SC_PERIOD,%MEM_PERIOD);
      251     8474    2           CALL ZIG$D_DIAG(LINE_COUNT - 1,%ERR_SEV,%SCHDDL_NO_PER);

   8474 44 003177   000000 236000 43                 LDQ     LINE_COUNT
        44 003200   000001 136007                    SBLQ    1,DL
        44 003201   200012 756100                    STQ     J+2,,AUTO
        44 003202   000062 237000 45                 LDAQ    50
        44 003203   200014 757100                    STAQ    J+4,,AUTO
        44 003204   200012 633500                    EPPR3   J+2,,AUTO
        44 003205   200013 453500                    STP3    J+3,,AUTO
        44 003206   200013 630500                    EPPR0   J+3,,AUTO
        44 003207   000006 631400 45                 EPPR1   6
        44 003210   000000 701000 xent               TSX1    ZIG$D_DIAG
        44 003211   000000 011000                    NOP     0

PL6.E3A0      #001=ZIG$D_FAIL File=ZIG$D_FAIL.:ZIC0TSI                           FRI 09/05/97 11:58 Page:71
      252     8475         /*E*  ERROR: ZIG-%SCHDDL_NO_PER-C
      253     8476              MESSAGE: A '.' (period) is required but not found.
      254     8477              */
      255     8478    2           END;

      256     8479    1       RETURN;

   8479 44 003212   000000 702200 xent               TSX2  ! X66_ARET

ANALS
 Sect OctLoc
   1     000   ****** ******   ****** ******   ****** ******   ****** ******    ................

PURGE
 Sect OctLoc
   2     000   ****** ******   ****** ******   ****** ******   ****** ******    ................

DICTS
 Sect OctLoc
   3     000   ****** ******   ****** ******   ****** ******   ****** ******    ................

DISPS
 Sect OctLoc
   4     000   ***00* ******   ****** ******   ****** ******   ****** ******    ................
   4     024*  ****** ******   ****** ******   ****** ******                    ............

VALIDS
 Sect OctLoc
   5     000   ****** ******   ****** ******   ****** ******   ****** ******    ................

LOCKS
 Sect OctLoc
   6     000   ****** ******   ****** ******   ****** ******   ****** ******    ................

STRAN
 Sect OctLoc
   7     000   ****** ******   ****** ******   ****** ******   ****** ******    ................
PL6.E3A0      #001=ZIG$D_FAIL File=ZIG$D_FAIL.:ZIC0TSI                           FRI 09/05/97 11:58 Page:72

DTRAN
 Sect OctLoc
   8     000   ****** ******   ****** ******   ****** ******   ****** ******    ................

SSTRANS
 Sect OctLoc
   9     000   ****** ******   ****** ******   ****** ******   ****** ******    ................

SSGEN
 Sect OctLoc
  10     000   ****** ******   ****** ******   ****** ******   ****** ******    ................

UWA_KEY
 Sect OctLoc
  18     000   007125 127101   ****** ******                                    .UWA....

RVA_KEY
 Sect OctLoc
  20     000   007122 126101   ****** ******                                    .RVA....

IA__KEY
 Sect OctLoc
  21     000   007111 101137   ****** ******                                    .IA_....

SEARCHR_NB
 Sect OctLoc
  23     000   001001 001001   001001 001001   001001 001001   001001 001001    ................
  23     010*  000001 001001   001001 001001   001001 001001   001001 001001    ................
  23     014   001001 001001   001001 001001   001001 001001   001001 001001    ................
  23     034*  001001 001001   001001 001001   001001 001001   001001 001001    ................

SEM_COM
 Sect OctLoc
  24     000   000001 002003   004005 006007   010011 012013   014015 016017    ................
  24     004   020021 022023   024025 026027   030031 032033   034035 036037    ................
  24     010   040041 042043   044045 046047   050051 052053   054055 056057     !"#$%&'()*+,-./
PL6.E3A0      #001=ZIG$D_FAIL File=ZIG$D_FAIL.:ZIC0TSI                           FRI 09/05/97 11:58 Page:73
  24     014   060061 062063   064065 066067   070071 072040   074075 076077    0123456789: <=>?
  24     020   100101 102103   104105 106107   110111 112113   114115 116117    @ABCDEFGHIJKLMNO
  24     024   120121 122123   124125 126127   130131 132133   134135 136137    PQRSTUVWXYZ[\]^_
  24     030   140141 142143   144145 146147   150151 152153   154155 156157    `abcdefghijklmno
  24     034   160161 162163   164165 166167   170171 172173   174175 176177    pqrstuvwxyz{|}~.

DMCL_XLATE
 Sect OctLoc
  25     000   000001 002003   004005 006007   010011 012013   014015 016017    ................
  25     004   020021 022023   024025 026027   030031 032033   034035 036037    ................
  25     010   040041 041043   044045 046047   050051 052053   054055 136057     !!#$%&'()*+,-^/
  25     014   060061 062063   064065 066067   070071 072040   074075 076077    0123456789: <=>?
  25     020   100101 102103   104105 106107   110111 112113   114115 116117    @ABCDEFGHIJKLMNO
  25     024   120121 122123   124125 126127   130131 132133   134135 136137    PQRSTUVWXYZ[\]^_
  25     030   140141 142143   144145 146147   150151 152153   154155 156157    `abcdefghijklmno
  25     034   160161 162163   164165 166167   170171 172173   174175 176177    pqrstuvwxyz{|}~.

Q2_PERCENT
 Sect OctLoc
  26     000   000001 002003   004005 006007   010011 012013   014015 016017    ................
  26     004   020021 022023   024025 026027   030031 032033   034035 036037    ................
  26     010   040041 045043   044045 046047   050051 052053   054055 056057     !%#$%&'()*+,-./
  26     014   060061 062063   064065 066067   070071 072073   074075 076077    0123456789:;<=>?
  26     020   100101 102103   104105 106107   110111 112113   114115 116117    @ABCDEFGHIJKLMNO
  26     024   120121 122123   124125 126127   130131 132133   134135 136137    PQRSTUVWXYZ[\]^_
  26     030   140141 142143   144145 146147   150151 152153   154155 156157    `abcdefghijklmno
  26     034   160161 162163   164165 166167   170171 172173   174175 176177    pqrstuvwxyz{|}~.

IMPLCT
 Sect OctLoc
  34     000   000000 000001                                                    ....

EXPLCT
 Sect OctLoc
  34     001   000000 000000                                                    ....

RELTYPE
PL6.E3A0      #001=ZIG$D_FAIL File=ZIG$D_FAIL.:ZIC0TSI                           FRI 09/05/97 11:58 Page:74
 Sect OctLoc
  34     003   000000 000003   000000 000004   000000 000006   000000 000007    ................
  34     007   000000 000010   000000 000011   000000 000013   000000 000021    ................
  34     013   000000 000022   000000 000143                                    .......c

FIELD1
 Sect OctLoc
  39     000   ****** ******   ****** ******   ****** ******   ****** ******    ................

UWA
 Sect OctLoc
  40     000   000000 000000   040040 040040   040040 040040   040040 040040    ....
  40     004   040040 040040   040040 040040   040040 040040   040040 040040
  40     010   040040 040040   040040 040040   040040 000000   040040 040040              ..
  40     014   040040 040040   040040 040040   040040 040040   040040 040040
  40     020   040040 040040   040040 040040   040040 000000   040040 040040              ..
  40     024   040040 040040   040040 040040   040040 040040   040040 040040
  40     030   040040 040040   040040 040040   040040 000000   040040 040040              ..
  40     034   040040 040040   040040 040040   000000 000000   040040 040040            ....
  40     040   040040 040040   040040 040040   040040 040040   040040 040040
  40     044   040040 040040   040040 040040   040040 000000   040040 040040              ..
  40     050   040040 040040   040040 040040   040040 040040   040040 040040
  40     054   040040 040040   040040 040040   040040 000000   000000 000000              ......
  40     060   040040 040040   040*** ******   000000 000000   000000 000000         ...........
  40     064   000000 000000   000000 000000   040040 040040   040040 040040    ........
  40     070   040040 040040   040040 040040   040040 040040   040040 040040
  40     100*  040040 ******   000000 000000   040040 040040   040040 040040      ......
  40     104   040040 040040   040040 040040   040040 040040   040040 040040
  40     124*  040040 040040   040040 040040   000000 000000   040040 040040            ....
  40     130   040040 040040   040040 040040   040040 040040   040040 040040
  40     134   040040 040040   040040 040040   040040 ******   000000 000000              ......
  40     140   040040 040040   040040 040040   040040 040040   040040 040040
  40     144   040040 040040   040040 040040   000000 000000   000000 000000            ........
  40     150   000000 000000   000000 000000   000000 000000   000000 000000    ................
  40     154   040040 040040   040040 040040   040040 040040   040040 040040
  40     160   040040 040040   040040 040040   040040 040040   040040 ******                  ..
  40     164   000000 000000   ****** ******   000000 000000   000000 000000    ................
PL6.E3A0      #001=ZIG$D_FAIL File=ZIG$D_FAIL.:ZIC0TSI                           FRI 09/05/97 11:58 Page:75
  40     170   000000 000000   040040 040040   040040 040040   040040 040040    ....
  40     174   040040 040040   040040 040040   040040 040040   040040 040040
  40     210*  040040 040040   040040 040040   040040 040040   ****** ******                ....
  40     214   000000 000000   000000 000000   000000 000000   000000 000000    ................
  40     224*  000000 000000   000000 000000   000000 000000   040040 ******    ............  ..
  40     230   000000 000000   ****** ******   000000 000000   040040 040040    ............
  40     234   000000 000000   000000 000000   000000 000000   000000 000000    ................
  40     264*  000000 000000   000000 000000   000000 000000   ****** ******    ................
  40     270   000000 000000   000000 000000   000000 000000   000000 000000    ................
  40     324*  000000 000000   ****** ******   000000 000000   000000 000000    ................
  40     330   000000 000000   000000 000000   000000 000000   000000 000000    ................
  40     350*  000000 000000   000000 000000   000000 000000   ****** ******    ................
  40     360*  000000 000000   000000 000000   000000 000000   000000 000000    ................
  40     404*  000000 000000   ****** ******   000000 000000   000000 000000    ................
  40     410   000000 000000   000000 000000   000000 000000   000000 000000    ................
  40     424*  000000 000000   000000 000000   000000 000000   040040 040040    ............
  40     430   040040 040040   040040 040040   040040 040040   040040 040040
  40     434   040040 040040   040040 040040   040040 ******   ****** ******              ......
  40     440   040040 040040   040040 040040   040040 040040   040040 040040
  40     450*  040040 040040   040040 040040   040040 ******   ****** ******              ......
  40     454   000000 000000   040040 040040   040040 040040   040040 040040    ....
  40     460   040040 040040   040040 040040   040040 040040   040040 040040
  40     464   040040 ******   ****** ******   000000 000000   000000 000000      ..............
  40     470   000000 000000   000000 000000   000000 000000   000000 000000    ................
  40     474   000000 000000   ****** ******   000000 000000   000000 000000    ................
  40     500   000000 000000   000000 000000   040040 040040   040040 040040    ........
  40     504   040040 040040   040040 040040   040040 040040   040040 040040
  40     520*  040040 040040   ****** ******   000000 000000   000000 000000        ............
  40     524   040040 040040   040040 040040   040040 040040   040040 040040
  40     574*  000000 000000   000000 000000   000000 000000   000000 000000    ................
  40     600   000000 000000   000000 000000   000000 000000   ****** ******    ................
  40     604   000000 000000   000000 000000   000000 000000   000000 000000    ................
  40     610   000000 000000   000000 000000   040040 040040   040040 040040    ........
  40     614   040040 040040   040040 040040   040040 040040   040040 040040
  40     620   040040 040040   040040 ******   040040 040040   040040 040040          ..
  40     624   040040 040040   040040 040040   040040 040040   040040 040040
  40     660*  040040 040040   040040 040040   040040 040040   ****** ******                ....
PL6.E3A0      #001=ZIG$D_FAIL File=ZIG$D_FAIL.:ZIC0TSI                           FRI 09/05/97 11:58 Page:76
  40     664   040040 040040   040040 040040   040040 040040   040040 040040
  40     674*  040040 040040   ****** ******   040040 040040   040040 040040        ....
  40     700   040040 040040   040040 040040   040040 040040   040040 040040
  40     710*  040040 040040   ****** ******   040040 040040   040040 040040        ....
  40     714   040040 040040   040040 040040   040040 040040   040040 040040
  40     720   040040 040040   040040 040040   040040 040040   ****** ******                ....
  40     724   040040 040040   040040 040040   040040 040040   040040 040040
  40     740*  040040 040040   ****** ******   040040 040040   040040 040040        ....
  40     744   040040 040040   040040 040040   040040 040040   040040 040040
  40     774*  040040 040040   ****** ******   040040 040040   040040 040040        ....
  40    1000   040040 040040   040040 040040   040040 040040   040040 040040
  40    1034*  040040 040040   ****** ******   040040 040040   040040 040040        ....
  40    1040   040040 040040   040040 040040   040040 040040   040040 040040
  40    1060*  040040 040040   ****** ******   040040 040040   040040 040040        ....
  40    1064   040040 040040   040040 040040   040040 040040   040040 040040
  40    1114*  040040 040040   ****** ******   040040 040040   040040 040040        ....
  40    1120   040040 040040   040040 040040   040040 040040   040040 040040
  40    1134*  040040 040040   040040 040040   040040 040040   ****** ******                ....
  40    1140   040040 040040   040040 040040   040040 040040   040040 040040
  40    1144   040040 040040   ****** ******   040040 040040   040040 040040        ....
  40    1150   040040 040040   040040 040040   040040 040040   ****** ******                ....
  40    1154   040040 040040   040040 040040   040040 040040   040040 040040
  40    1160   040040 040040   ****** ******   040040 040040   040040 040040        ....
  40    1164   040040 040040   040040 040040   040040 040040   ****** ******                ....
  40    1170   040040 040040   040040 040040   040040 040040   040040 040040
  40    1200*  040040 040040   040040 040040   040040 040040   ****** ******                ....
  40    1204   040040 040040   040040 040040   040040 040040   040040 040040
  40    1214*  040040 040040   040040 040040   040040 040040   040040 040040

FPT_EXIT
 Sect OctLoc
  41     000   000001 777640   000004 006000   000000 177640   000000 006014    ................
  41     004   003000 000000   000000 000000                                    ........

(unnamed)
 Sect OctLoc
  41     006   123103 110105   115101 040116   101115 105040   120122 111126    SCHEMA NAME PRIV
PL6.E3A0      #001=ZIG$D_FAIL File=ZIG$D_FAIL.:ZIC0TSI                           FRI 09/05/97 11:58 Page:77
  41     012   101103 131040   101122 105101   124105 115120   117122 101122    ACY AREATEMPORAR
  41     016   131040 040040   122105 103117   122104 040040   101116 131040    Y   RECORD  ANY
  41     022   127111 124110   111116 040040   101122 105101   137111 104040    WITHIN  AREA_ID
  41     026   111123 040040   124131 120105   040111 123040   123105 124040    IS  TYPE IS SET
  41     032   120122 111117   122040 040040   117122 104105   122040 040040    PRIOR   ORDER
  41     036   123117 122124   105104 040102   131040 040040   104125 120114    SORTED BY   DUPL
  41     042   111103 101124   105123 040040   115105 115102   105122 040040    ICATES  MEMBER
  41     046   114111 116113   105104 040040   113105 131040   111123 040040    LINKED  KEY IS
  41     052   123105 124040   123105 114105   103124 111117   116040 040040    SET SELECTION
  41     056   117127 116105   122040 111104                                    OWNER ID

LINE
 Sect OctLoc
  42     000   ****** ******   ****** ******   ****** ******   ****** ******    ................

(unnamed)
 Sect OctLoc
  45     000   040040 040040   000001 000000   000000 022364   000002 006000        ............
  45     004   000000 022363   000004 006000   000003 000000   000000 000002    ................
  45     010   000000 022365   000000 022366   000007 006000   000010 006000    ................
  45     014   000007 006000   000011 006000   000007 006000   000002 006000    ................
  45     020   000000 022370   000000 022371   000007 006000   000020 006000    ................
  45     024   000007 006000   000021 006000   000000 022404   000000 022372    ................
  45     030   000007 006000   000026 006000   000007 006000   000027 006000    ................
  45     034   000000 022373   000000 022374   000007 006000   000034 006000    ................
  45     040   000007 006000   000035 006000   000000 022375   000000 022376    ................
  45     044   000007 006000   000042 006000   000007 006000   000043 006000    .....".......#..
  45     050   000000 022377   000000 022405   000007 006000   000050 006000    .............(..
  45     054   000007 006000   000051 006000   000000 022400   000000 022401    .....)..........
  45     060   000007 006000   000056 006000   000007 006000   000057 006000    ............./..
      257     8480    1   END ZIG$D_FAIL;

PL6.E3A0      #001=ZIG$D_FAIL File=ZIG$D_FAIL.:ZIC0TSI                           FRI 09/05/97 11:58 Page:78
--  Include file information  --

   XU_SUBS_C.:LIB_E05  is referenced.
   XU_MACRO_C.:LIB_E05  is referenced.
   ZI_ERRORS_SUBS.:ZIC0TOU  is referenced.
   ZIG_DBA_INT.:ZIC0TOU  cannot be made into a system file and is referenced.
   ZI_SUB4_CAN.:ZIC0TOU  is referenced.
   ZIG_TYPE_SUBS.:ZIC0TOU  is referenced.
   ZIG_DDL_INCL.:ZIC0TOU  is referenced.
   ZI_SUB_LANG.:ZIC0TOU  is referenced.
   ZIG_GENERAL.:ZIC0TOU  cannot be made into a system file and is referenced.
   ZIG_DIR_STRUCS.:ZIC0TOU  cannot be made into a system file and is referenced.
   CP_6_SUBS.:LIB_E05  is referenced.
   CP_6.:LIB_E05  cannot be made into a system file and is referenced.
   B$JIT_C.:E05TOU  was found in the system file and is never referenced.
   CP_6_C.:E05TOU  was found in the system file and is referenced.
      No diagnostics issued in procedure ZIG$D_FAIL.

   Procedure ZIG$D_FAIL requires 1675 words for executable code.
   Procedure ZIG$D_FAIL requires 14 words of local(AUTO) storage.

    No errors detected in file ZIG$D_FAIL.:ZIC0TSI    .
PL6.E3A0      #001=ZIG$D_FAIL File=ZIG$D_FAIL.:ZIC0TSI                           FRI 09/05/97 11:58 Page:79
          *** CROSS REFERENCE LISTING ***
**     DENOTES     IDENTIFIER DEFINITION
<<                 IDENTIFIER'S VALUE SET
>>                 IDENTIFIER'S VALUE USED
<>                 IDENTIFIER SET AND/OR USED
--                 IDENTIFIER REFERENCED
PL6.E3A0      #001=ZIG$D_FAIL File=ZIG$D_FAIL.:ZIC0TSI                           FRI 09/05/97 11:58 Page:80
          MINI XREF LISTING

DYNMEM$
      3055**DCL      3060--IMP-PTR
FIELD1.COUNT1
      3101**DCL      8273<<ASSIGN   8274>>ASSIGN   8277<<ASSIGN   8299<<ASSIGN   8305<<ASSIGN   8311<<ASSIGN
      8318<<ASSIGN   8326<<ASSIGN   8337<<ASSIGN   8343<<ASSIGN   8366<<ASSIGN   8378<<ASSIGN   8384<<ASSIGN
      8388<<ASSIGN   8398<<ASSIGN   8402<<ASSIGN   8414<<ASSIGN   8430<<ASSIGN   8436<<ASSIGN   8453<<ASSIGN
      8459<<ASSIGN
FIELD1.TEXT1
      3102**DCL      8274<<ASSIGN   8278<<ASSIGN   8300<<ASSIGN   8306<<ASSIGN   8312<<ASSIGN   8319<<ASSIGN
      8327<<ASSIGN   8338<<ASSIGN   8344<<ASSIGN   8367<<ASSIGN   8379<<ASSIGN   8385<<ASSIGN   8389<<ASSIGN
      8399<<ASSIGN   8403<<ASSIGN   8415<<ASSIGN   8431<<ASSIGN   8437<<ASSIGN   8454<<ASSIGN   8460<<ASSIGN
FPT_EXIT
      8254**DCL      8284<>CALL
FPT_EXIT.V
      8254**DCL      8254--DCLINIT
FPT_EXIT.V.STEPCC#
      8255**DCL      8255--REDEF
J
      8262**DCL      8266<<ASSIGN   8267>>DOWHILE  8268<<ASSIGN   8268>>ASSIGN   8270>>DOWHILE  8271<<ASSIGN
      8271>>ASSIGN   8273>>ASSIGN
LINE
      8261**DCL      8267>>DOWHILE  8270>>DOWHILE  8274>>ASSIGN
LINE_COUNT
      8263**DCL      8264>>ASSIGN   8286>>CALL     8291>>CALL     8297>>CALL     8301>>CALL     8303>>CALL
      8307>>CALL     8309>>CALL     8313>>CALL     8320>>CALL     8322>>CALL     8324>>CALL     8328>>CALL
      8330>>CALL     8335>>CALL     8339>>CALL     8341>>CALL     8345>>CALL     8347>>CALL     8349>>CALL
      8355>>CALL     8357>>CALL     8363>>CALL     8368>>CALL     8370>>CALL     8376>>CALL     8380>>CALL
      8382>>CALL     8386>>CALL     8390>>CALL     8392>>CALL     8400>>CALL     8404>>CALL     8406>>CALL
      8412>>CALL     8416>>CALL     8418>>CALL     8424>>CALL     8432>>CALL     8434>>CALL     8438>>CALL
      8440>>CALL     8445>>CALL     8447>>CALL     8455>>CALL     8457>>CALL     8461>>CALL     8464>>CALL
      8466>>CALL     8468>>CALL     8474>>CALL
LNO
PL6.E3A0      #001=ZIG$D_FAIL File=ZIG$D_FAIL.:ZIC0TSI                           FRI 09/05/97 11:58 Page:81
      3067**DCL      8264<<ASSIGN
M$EXIT
        35**DCL-ENT  8284--CALL
PARAN
      8097**DCL        12--PROC
PARAN.CHARPOS
      8135**DCL      8266>>ASSIGN   8273>>ASSIGN   8274>>ASSIGN
PARAN_CODE
      8260**DCL        12--PROC     8275>>DOCASE
SUBSCHEMA_KEY
       813**DCL       814--REDEF
SYM.COUNT
      8234**DCL      8237--IMP-SIZ
UWA.AC.CALC_NEXT
      3887**DCL      3888--REDEF
UWA.AC.CALC_PRIOR
      3896**DCL      3897--REDEF
UWA.AC.DEFAULTS
      3848**DCL      3849--REDEF
UWA.AC.FILE_CODE
      3853**DCL      3854--REDEF
UWA.AC.FLAG1.ERROR_TYPE
      3850**DCL      3851--REDEF
ZIG$DDER
      8258**DCL-ENT  8279--CALL     8280--CALL
ZIG$D_DIAG
      8259**DCL-ENT  8286--CALL     8291--CALL     8297--CALL     8301--CALL     8303--CALL     8307--CALL
      8309--CALL     8313--CALL     8320--CALL     8322--CALL     8324--CALL     8328--CALL     8330--CALL
      8335--CALL     8339--CALL     8341--CALL     8345--CALL     8347--CALL     8349--CALL     8355--CALL
      8357--CALL     8363--CALL     8368--CALL     8370--CALL     8376--CALL     8380--CALL     8382--CALL
      8386--CALL     8390--CALL     8392--CALL     8400--CALL     8404--CALL     8406--CALL     8412--CALL
      8416--CALL     8418--CALL     8424--CALL     8432--CALL     8434--CALL     8438--CALL     8440--CALL
      8445--CALL     8447--CALL     8455--CALL     8457--CALL     8461--CALL     8464--CALL     8466--CALL
      8468--CALL     8474--CALL
