
PL6.E3A0      #001=ZIG$D_INIT_HAS File=ZIG$D_INIT_HAS.:ZIC0TSI                   FRI 09/05/97 11:59 Page:1
        1        1        /*M*         ZIG$D_INIT_HAS IDS/II DBACS DEFINE RESERVE NAMES 810121 */
        2        2        /*T***********************************************************/
        3        3        /*T*                                                         */
        4        4        /*T* Copyright (c) Bull HN Information Systems Inc., 1997    */
        5        5        /*T*                                                         */
        6        6        /*T***********************************************************/
        7        7        /*P*
        8        8        NAME:        ZIG$D_INIT_HAS
        9        9                     DEFINE RESERVE NAMES AND CHARACTER SET.
       10       10        ARGUMENTS:   NONE
       11       11        CALLING PROGRAMS: ZIG$D_PDRI
       12       12        PURPOSE: To init the hash table for ddl reserved words.
       13       13        */
       14       14        ZIG$D_INIT_HAS: PROC;
       15       15
       16       16    1   DCL 1 DDL_RES_WORDS EXT UNAL,
       17       17    1         2 * UBIN (18) INIT(0) UNAL,
       18       18    1         2 X101 CHAR (34) INIT ('BY') UNAL,
       19       19    1         2 * UBIN (18) INIT(0) UNAL,
       20       20    1         2 X102 CHAR (34) INIT ('IN') UNAL,
       21       21    1         2 * UBIN (18) INIT(0) UNAL,
       22       22    1         2 X103 CHAR (34) INIT ('IS') UNAL,
       23       23    1         2 * UBIN (18) INIT(0) UNAL,
       24       24    1         2 X104 CHAR (34) INIT ('OF') UNAL,
       25       25    1         2 * UBIN (18) INIT(0) UNAL,
       26       26    1         2 X105 CHAR (34) INIT ('ON') UNAL,
       27       27    1         2 * UBIN (18) INIT(0) UNAL,
       28       28    1         2 X106 CHAR (34) INIT ('OR') UNAL,
       29       29    1         2 * UBIN (18) INIT(0) UNAL,
       30       30    1         2 X107 CHAR (34) INIT ('TO') UNAL,
       31       31    1         2 * UBIN (18) INIT(0) UNAL,
       32       32    1         2 X108 CHAR (34) INIT ('ALL') UNAL,
       33       33    1         2 * UBIN (18) INIT(0) UNAL,
       34       34    1         2 X109 CHAR (34) INIT ('AND') UNAL,
       35       35    1         2 * UBIN (18) INIT(0) UNAL,
       36       36    1         2 X110 CHAR (34) INIT ('ANY') UNAL,
       37       37    1         2 * UBIN (18) INIT(0) UNAL,
PL6.E3A0      #001=ZIG$D_INIT_HAS File=ZIG$D_INIT_HAS.:ZIC0TSI                   FRI 09/05/97 11:59 Page:2
       38       38    1         2 X111 CHAR (34) INIT ('ARE') UNAL,
       39       39    1         2 * UBIN (18) INIT(0) UNAL,
       40       40    1         2 X112 CHAR (34) INIT ('ASC') UNAL,
       41       41    1         2 * UBIN (18) INIT(0) UNAL,
       42       42    1         2 X113 CHAR (34) INIT ('BIN') UNAL,
       43       43    1         2 * UBIN (18) INIT(0) UNAL,
       44       44    1         2 X114 CHAR (34) INIT ('BIT') UNAL,
       45       45    1         2 * UBIN (18) INIT(0) UNAL,
       46       46    1         2 X115 CHAR (34) INIT ('DEC') UNAL,
       47       47    1         2 * UBIN (18) INIT(0) UNAL,
       48       48    1         2 X116 CHAR (34) INIT ('FOR') UNAL,
       49       49    1         2 * UBIN (18) INIT(0) UNAL,
       50       50    1         2 X117 CHAR (34) INIT ('GET') UNAL,
       51       51    1         2 * UBIN (18) INIT(0) UNAL,
       52       52    1         2 X118 CHAR (34) INIT ('KEY') UNAL,
       53       53    1         2 * UBIN (18) INIT(0) UNAL,
       54       54    1         2 X119 CHAR (34) INIT ('LOC') UNAL,
       55       55    1         2 * UBIN (18) INIT(0) UNAL,
       56       56    1         2 X120 CHAR (34) INIT ('NOT') UNAL,
       57       57    1         2 * UBIN (18) INIT(0) UNAL,
       58       58    1         2 X121 CHAR (34) INIT ('OPT') UNAL,
       59       59    1         2 * UBIN (18) INIT(0) UNAL,
       60       60    1         2 X122 CHAR (34) INIT ('PIC') UNAL,
       61       61    1         2 * UBIN (18) INIT(0) UNAL,
       62       62    1         2 X123 CHAR (34) INIT ('SET') UNAL,
       63       63    1         2 * UBIN (18) INIT(0) UNAL,
       64       64    1         2 X124 CHAR (34) INIT ('VIA') UNAL,
       65       65    1         2 * UBIN (18) INIT(0) UNAL,
       66       66    1         2 X125 CHAR (34) INIT ('AREA') UNAL,
       67       67    1         2 * UBIN (18) INIT(0) UNAL,
       68       68    1         2 X126 CHAR (34) INIT ('AUTO') UNAL,
       69       69    1         2 * UBIN (18) INIT(0) UNAL,
       70       70    1         2 X127 CHAR (34) INIT ('CALC') UNAL,
       71       71    1         2 * UBIN (18) INIT(0) UNAL,
       72       72    1         2 X128 CHAR (34) INIT ('CALL') UNAL,
       73       73    1         2 * UBIN (18) INIT(0) UNAL,
       74       74    1         2 X129 CHAR (34) INIT ('CHAR') UNAL,
PL6.E3A0      #001=ZIG$D_INIT_HAS File=ZIG$D_INIT_HAS.:ZIC0TSI                   FRI 09/05/97 11:59 Page:3
       75       75    1         2 * UBIN (18) INIT(0) UNAL,
       76       76    1         2 X130 CHAR (34) INIT ('COPY') UNAL,
       77       77    1         2 * UBIN (18) INIT(0) UNAL,
       78       78    1         2 X131 CHAR (34) INIT ('DESC') UNAL,
       79       79    1         2 * UBIN (18) INIT(0) UNAL,
       80       80    1         2 X132 CHAR (34) INIT ('DUPS') UNAL,
       81       81    1         2 * UBIN (18) INIT(0) UNAL,
       82       82    1         2 X133 CHAR (34) INIT ('EXCL') UNAL,
       83       83    1         2 * UBIN (18) INIT(0) UNAL,
       84       84    1         2 X134 CHAR (34) INIT ('FIND') UNAL,
       85       85    1         2 * UBIN (18) INIT(0) UNAL,
       86       86    1         2 X135 CHAR (34) INIT ('KEYS') UNAL,
       87       87    1         2 * UBIN (18) INIT(0) UNAL,
       88       88    1         2 X136 CHAR (34) INIT ('LAST') UNAL,
       89       89    1         2 * UBIN (18) INIT(0) UNAL,
       90       90    1         2 X137 CHAR (34) INIT ('LOCK') UNAL,
       91       91    1         2 * UBIN (18) INIT(0) UNAL,
       92       92    1         2 X138 CHAR (34) INIT ('MAND') UNAL,
       93       93    1         2 * UBIN (18) INIT(0) UNAL,
       94       94    1         2 X139 CHAR (34) INIT ('MODE') UNAL,
       95       95    1         2 * UBIN (18) INIT(0) UNAL,
       96       96    1         2 X140 CHAR (34) INIT ('NAME') UNAL,
       97       97    1         2 * UBIN (18) INIT(0) UNAL,
       98       98    1         2 X141 CHAR (34) INIT ('NEXT') UNAL,
       99       99    1         2 * UBIN (18) INIT(0) UNAL,
      100      100    1         2 X142 CHAR (34) INIT ('NULL') UNAL,
      101      101    1         2 * UBIN (18) INIT(0) UNAL,
      102      102    1         2 X143 CHAR (34) INIT ('OPEN') UNAL,
      103      103    1         2 * UBIN (18) INIT(0) UNAL,
      104      104    1         2 X144 CHAR (34) INIT ('PERM') UNAL,
      105      105    1         2 * UBIN (18) INIT(0) UNAL,
      106      106    1         2 X145 CHAR (34) INIT ('PROC') UNAL,
      107      107    1         2 * UBIN (18) INIT(0) UNAL,
      108      108    1         2 X146 CHAR (34) INIT ('PROT') UNAL,
      109      109    1         2 * UBIN (18) INIT(0) UNAL,
      110      110    1         2 X147 CHAR (34) INIT ('REAL') UNAL,
      111      111    1         2 * UBIN (18) INIT(0) UNAL,
PL6.E3A0      #001=ZIG$D_INIT_HAS File=ZIG$D_INIT_HAS.:ZIC0TSI                   FRI 09/05/97 11:59 Page:4
      112      112    1         2 X148 CHAR (34) INIT ('RETR') UNAL,
      113      113    1         2 * UBIN (18) INIT(0) UNAL,
      114      114    1         2 X149 CHAR (34) INIT ('TEMP') UNAL,
      115      115    1         2 * UBIN (18) INIT(0) UNAL,
      116      116    1         2 X150 CHAR (34) INIT ('THEN') UNAL,
      117      117    1         2 * UBIN (18) INIT(0) UNAL,
      118      118    1         2 X151 CHAR (34) INIT ('THIS') UNAL,
      119      119    1         2 * UBIN (18) INIT(0) UNAL,
      120      120    1         2 X152 CHAR (34) INIT ('THRU') UNAL,
      121      121    1         2 * UBIN (18) INIT(0) UNAL,
      122      122    1         2 X153 CHAR (34) INIT ('TYPE') UNAL,
      123      123    1         2 * UBIN (18) INIT(0) UNAL,
      124      124    1         2 X154 CHAR (34) INIT ('AFTER') UNAL,
      125      125    1         2 * UBIN (18) INIT(0) UNAL,
      126      126    1         2 X155 CHAR (34) INIT ('ALTER') UNAL,
      127      127    1         2 * UBIN (18) INIT(0) UNAL,
      128      128    1         2 X156 CHAR (34) INIT ('CHECK') UNAL,
      129      129    1         2 * UBIN (18) INIT(0) UNAL,
      130      130    1         2 X157 CHAR (34) INIT ('CLOSE') UNAL,
      131      131    1         2 * UBIN (18) INIT(0) UNAL,
      132      132    1         2 X158 CHAR (34) INIT ('DBKEY') UNAL,
      133      133    1         2 * UBIN (18) INIT(0) UNAL,
      134      134    1         2 X159 CHAR (34) INIT ('EQUAL') UNAL,
      135      135    1         2 * UBIN (18) INIT(0) UNAL,
      136      136    1         2 X160 CHAR (34) INIT ('ERROR') UNAL,
      137      137    1         2 * UBIN (18) INIT(0) UNAL,
      138      138    1         2 X161 CHAR (34) INIT ('FIRST') UNAL,
      139      139    1         2 * UBIN (18) INIT(0) UNAL,
      140      140    1         2 X162 CHAR (34) INIT ('FIXED') UNAL,
      141      141    1         2 * UBIN (18) INIT(0) UNAL,
      142      142    1         2 X163 CHAR (34) INIT ('FLOAT') UNAL,
      143      143    1         2 * UBIN (18) INIT(0) UNAL,
      144      144    1         2 X164 CHAR (34) INIT ('INDEX') UNAL,
      145      145    1         2 * UBIN (18) INIT(0) UNAL,
      146      146    1         2 X165 CHAR (34) INIT ('LOCKS') UNAL,
      147      147    1         2 * UBIN (18) INIT(0) UNAL,
      148      148    1         2 X166 CHAR (34) INIT ('NEXCL') UNAL,
PL6.E3A0      #001=ZIG$D_INIT_HAS File=ZIG$D_INIT_HAS.:ZIC0TSI                   FRI 09/05/97 11:59 Page:5
      149      149    1         2 * UBIN (18) INIT(0) UNAL,
      150      150    1         2 X167 CHAR (34) INIT ('ORDER') UNAL,
      151      151    1         2 * UBIN (18) INIT(0) UNAL,
      152      152    1         2 X168 CHAR (34) INIT ('OWNER') UNAL,
      153      153    1         2 * UBIN (18) INIT(0) UNAL,
      154      154    1         2 X169 CHAR (34) INIT ('PRIOR') UNAL,
      155      155    1         2 * UBIN (18) INIT(0) UNAL,
      156      156    1         2 X170 CHAR (34) INIT ('RANGE') UNAL,
      157      157    1         2 * UBIN (18) INIT(0) UNAL,
      158      158    1         2 X171 CHAR (34) INIT ('STORE') UNAL,
      159      159    1         2 * UBIN (18) INIT(0) UNAL,
      160      160    1         2 X172 CHAR (34) INIT ('TIMES') UNAL,
      161      161    1         2 * UBIN (18) INIT(0) UNAL,
      162      162    1         2 X173 CHAR (34) INIT ('USING') UNAL,
      163      163    1         2 * UBIN (18) INIT(0) UNAL,
      164      164    1         2 X174 CHAR (34) INIT ('VALUE') UNAL,
      165      165    1         2 * UBIN (18) INIT(0) UNAL,
      166      166    1         2 X175 CHAR (34) INIT ('WHERE') UNAL,
      167      167    1         2 * UBIN (18) INIT(0) UNAL,
      168      168    1         2 X176 CHAR (34) INIT ('ACTUAL') UNAL,
      169      169    1         2 * UBIN (18) INIT(0) UNAL,
      170      170    1         2 X177 CHAR (34) INIT ('ALWAYS') UNAL,
      171      171    1         2 * UBIN (18) INIT(0) UNAL,
      172      172    1         2 X178 CHAR (34) INIT ('BEFORE') UNAL,
      173      173    1         2 * UBIN (18) INIT(0) UNAL,
      174      174    1         2 X179 CHAR (34) INIT ('BINARY') UNAL,
      175      175    1         2 * UBIN (18) INIT(0) UNAL,
      176      176    1         2 X180 CHAR (34) INIT ('DELETE') UNAL,
      177      177    1         2 * UBIN (18) INIT(0) UNAL,
      178      178    1         2 X181 CHAR (34) INIT ('DIRECT') UNAL,
      179      179    1         2 * UBIN (18) INIT(0) UNAL,
      180      180    1         2 X182 CHAR (34) INIT ('DURING') UNAL,
      181      181    1         2 * UBIN (18) INIT(0) UNAL,
      182      182    1         2 X183 CHAR (34) INIT ('EXCEPT') UNAL,
      183      183    1         2 * UBIN (18) INIT(0) UNAL,
      184      184    1         2 X184 CHAR (34) INIT ('INSERT') UNAL,
      185      185    1         2 * UBIN (18) INIT(0) UNAL,
PL6.E3A0      #001=ZIG$D_INIT_HAS File=ZIG$D_INIT_HAS.:ZIC0TSI                   FRI 09/05/97 11:59 Page:6
      186      186    1         2 X185 CHAR (34) INIT ('LINKED') UNAL,
      187      187    1         2 * UBIN (18) INIT(0) UNAL,
      188      188    1         2 X186 CHAR (34) INIT ('MANUAL') UNAL,
      189      189    1         2 * UBIN (18) INIT(0) UNAL,
      190      190    1         2 X187 CHAR (34) INIT ('MEMBER') UNAL,
      191      191    1         2 * UBIN (18) INIT(0) UNAL,
      192      192    1         2 X188 CHAR (34) INIT ('MODIFY') UNAL,
      193      193    1         2 * UBIN (18) INIT(0) UNAL,
      194      194    1         2 X189 CHAR (34) INIT ('OCCURS') UNAL,
      195      195    1         2 * UBIN (18) INIT(0) UNAL,
      196      196    1         2 X190 CHAR (34) INIT ('RECORD') UNAL,
      197      197    1         2 * UBIN (18) INIT(0) UNAL,
      198      198    1         2 X191 CHAR (34) INIT ('REMOVE') UNAL,
      199      199    1         2 * UBIN (18) INIT(0) UNAL,
      200      200    1         2 X192 CHAR (34) INIT ('RESULT') UNAL,
      201      201    1         2 * UBIN (18) INIT(0) UNAL,
      202      202    1         2 X193 CHAR (34) INIT ('SCHEMA') UNAL,
      203      203    1         2 * UBIN (18) INIT(0) UNAL,
      204      204    1         2 X194 CHAR (34) INIT ('SEARCH') UNAL,
      205      205    1         2 * UBIN (18) INIT(0) UNAL,
      206      206    1         2 X195 CHAR (34) INIT ('SIGNED') UNAL,
      207      207    1         2 * UBIN (18) INIT(0) UNAL,
      208      208    1         2 X196 CHAR (34) INIT ('SORTED') UNAL,
      209      209    1         2 * UBIN (18) INIT(0) UNAL,
      210      210    1         2 X197 CHAR (34) INIT ('SOURCE') UNAL,
      211      211    1         2 * UBIN (18) INIT(0) UNAL,
      212      212    1         2 X198 CHAR (34) INIT ('SYSTEM') UNAL,
      213      213    1         2 * UBIN (18) INIT(0) UNAL,
      214      214    1         2 X199 CHAR (34) INIT ('UNSPEC') UNAL,
      215      215    1         2 * UBIN (18) INIT(0) UNAL,
      216      216    1         2 X200 CHAR (34) INIT ('UPDATE') UNAL,
      217      217    1         2 * UBIN (18) INIT(0) UNAL,
      218      218    1         2 X20X1 CHAR (34) INIT ('WITHIN') UNAL,
      219      219    1         2 * UBIN (18) INIT(0) UNAL,
      220      220    1         2 X202 CHAR (34) INIT ('ALLOWED') UNAL,
      221      221    1         2 * UBIN (18) INIT(0) UNAL,
      222      222    1         2 X203 CHAR (34) INIT ('AREA_ID') UNAL,
PL6.E3A0      #001=ZIG$D_INIT_HAS File=ZIG$D_INIT_HAS.:ZIC0TSI                   FRI 09/05/97 11:59 Page:7
      223      223    1         2 * UBIN (18) INIT(0) UNAL,
      224      224    1         2 X204 CHAR (34) INIT ('COMMENT') UNAL,
      225      225    1         2 * UBIN (18) INIT(0) UNAL,
      226      226    1         2 X205 CHAR (34) INIT ('COMPLEX') UNAL,
      227      227    1         2 * UBIN (18) INIT(0) UNAL,
      228      228    1         2 X206 CHAR (34) INIT ('CURRENT') UNAL,
      229      229    1         2 * UBIN (18) INIT(0) UNAL,
      230      230    1         2 X207 CHAR (34) INIT ('DECIMAL') UNAL,
      231      231    1         2 * UBIN (18) INIT(0) UNAL,
      232      232    1         2 X208 CHAR (34) INIT ('DEFINED') UNAL,
      233      233    1         2 * UBIN (18) INIT(0) UNAL,
      234      234    1         2 X209 CHAR (34) INIT ('DISPLAY') UNAL,
      235      235    1         2 * UBIN (18) INIT(0) UNAL,
      236      236    1         2 X210 CHAR (34) INIT ('DYNAMIC') UNAL,
      237      237    1         2 * UBIN (18) INIT(0) UNAL,
      238      238    1         2 X211 CHAR (34) INIT ('INDEXED') UNAL,
      239      239    1         2 * UBIN (18) INIT(0) UNAL,
      240      240    1         2 X212 CHAR (34) INIT ('MEMBERS') UNAL,
      241      241    1         2 * UBIN (18) INIT(0) UNAL,
      242      242    1         2 X213 CHAR (34) INIT ('NONNULL') UNAL,
      243      243    1         2 * UBIN (18) INIT(0) UNAL,
      244      244    1         2 X214 CHAR (34) INIT ('PICTURE') UNAL,
      245      245    1         2 * UBIN (18) INIT(0) UNAL,
      246      246    1         2 X215 CHAR (34) INIT ('PRIVACY') UNAL,
      247      247    1         2 * UBIN (18) INIT(0) UNAL,
      248      248    1         2 X216 CHAR (34) INIT ('VARYING') UNAL,
      249      249    1         2 * UBIN (18) INIT(0) UNAL,
      250      250    1         2 X217 CHAR (34) INIT ('VIRTUAL') UNAL,
      251      251    1         2 * UBIN (18) INIT(0) UNAL,
      252      252    1         2 X218 CHAR (34) INIT ('CALC_KEY') UNAL,
      253      253    1         2 * UBIN (18) INIT(0) UNAL,
      254      254    1         2 X219 CHAR (34) INIT ('DECODING') UNAL,
      255      255    1         2 * UBIN (18) INIT(0) UNAL,
      256      256    1         2 X220 CHAR (34) INIT ('ENCODING') UNAL,
      257      257    1         2 * UBIN (18) INIT(0) UNAL,
      258      258    1         2 X221 CHAR (34) INIT ('LOCATION') UNAL,
      259      259    1         2 * UBIN (18) INIT(0) UNAL,
PL6.E3A0      #001=ZIG$D_INIT_HAS File=ZIG$D_INIT_HAS.:ZIC0TSI                   FRI 09/05/97 11:59 Page:8
      260      260    1         2 X222 CHAR (34) INIT ('OPTIONAL') UNAL,
      261      261    1         2 * UBIN (18) INIT(0) UNAL,
      262      262    1         2 X223 CHAR (34) INIT ('ASCENDING') UNAL,
      263      263    1         2 * UBIN (18) INIT(0) UNAL,
      264      264    1         2 X224 CHAR (34) INIT ('AUTOMATIC') UNAL,
      265      265    1         2 * UBIN (18) INIT(0) UNAL,
      266      266    1         2 X225 CHAR (34) INIT ('CHARACTER') UNAL,
      267      267    1         2 * UBIN (18) INIT(0) UNAL,
      268      268    1         2 X226 CHAR (34) INIT ('EXCLUSIVE') UNAL,
      269      269    1         2 * UBIN (18) INIT(0) UNAL,
      270      270    1         2 X227 CHAR (34) INIT ('INSERTION') UNAL,
      271      271    1         2 * UBIN (18) INIT(0) UNAL,
      272      272    1         2 X228 CHAR (34) INIT ('MANDATORY') UNAL,
      273      273    1         2 * UBIN (18) INIT(0) UNAL,
      274      274    1         2 X229 CHAR (34) INIT ('PERMANENT') UNAL,
      275      275    1         2 * UBIN (18) INIT(0) UNAL,
      276      276    1         2 X230 CHAR (34) INIT ('PROCEDURE') UNAL,
      277      277    1         2 * UBIN (18) INIT(0) UNAL,
      278      278    1         2 X231 CHAR (34) INIT ('PROTECTED') UNAL,
      279      279    1         2 * UBIN (18) INIT(0) UNAL,
      280      280    1         2 X232 CHAR (34) INIT ('RETENTION') UNAL,
      281      281    1         2 * UBIN (18) INIT(0) UNAL,
      282      282    1         2 X233 CHAR (34) INIT ('RETRIEVAL') UNAL,
      283      283    1         2 * UBIN (18) INIT(0) UNAL,
      284      284    1         2 X234 CHAR (34) INIT ('SELECTION') UNAL,
      285      285    1         2 * UBIN (18) INIT(0) UNAL,
      286      286    1         2 X235 CHAR (34) INIT ('TEMPORARY') UNAL,
      287      287    1         2 * UBIN (18) INIT(0) UNAL,
      288      288    1         2 X236 CHAR (34) INIT ('DESCENDING') UNAL,
      289      289    1         2 * UBIN (18) INIT(0) UNAL,
      290      290    1         2 X237 CHAR (34) INIT ('DUPLICATES') UNAL,
      291      291    1         2 * UBIN (18) INIT(0) UNAL,
      292      292    1         2 X238 CHAR (34) INIT ('IDENTIFIED') UNAL,
      293      293    1         2 * UBIN (18) INIT(0) UNAL,
      294      294    1         2 X239 CHAR (34) INIT ('APPLICATION') UNAL,
      295      295    1         2 * UBIN (18) INIT(0) UNAL,
      296      296    1         2 X240 CHAR (34) INIT ('PROCESSABLE') UNAL,
PL6.E3A0      #001=ZIG$D_INIT_HAS File=ZIG$D_INIT_HAS.:ZIC0TSI                   FRI 09/05/97 11:59 Page:9
      297      297    1         2 * UBIN (18) INIT(0) UNAL,
      298      298    1         2 X241 CHAR (34) INIT ('RECORD_NAME') UNAL,
      299      299    1         2 * UBIN (18) INIT(0) UNAL,
      300      300    1         2 X242 CHAR (34) INIT ('UNSPECIFIED') UNAL,
      301      301    1         2 * UBIN (18) INIT(0) UNAL,
      302      302    1         2 X243 CHAR (34) INIT ('NONEXCLUSIVE') UNAL,
      303      303    1         2 * UBIN (18) INIT(0) UNAL,
      304      304    1         2 X244 CHAR (34) INIT ('DATA_BASE_KEY') UNAL,
      305      305    1         2 * UBIN (18) INIT(0) UNAL,
      306      306    1         2 X245 CHAR (34) INIT ('SYSTEM_DEFAULT') UNAL;
      307      307
      308      308    1   DCL RETURN_PTR$ PTR;
      309      309    1   DCL TPTR$ PTR STATIC INIT(ADDR(DDL_RES_WORDS));
      310      310    1   DCL 1 DDL_RES_ARRAY (0:144) BASED (TPTR$),
      311      311    1         2 TYPE UBIN (6) UNAL,
      312      312    1         2 DUPS UBIN (12) UNAL,
      313      313    1         2 C_NAME CHAR(30) UNAL,
      314      314    1         2 PTR$ PTR UNAL;
      315      315
      316      316    1   DCL HAS_TABLE (0:808) PTR EXT INIT (ADDR(NIL)*809);
      317      317    1   DCL ZIG$HASH_IT ENTRY(8);
      318      318        %INCLUDE ZI_SUB_LANG;
      319     2033         %GENERAL;
      320     2157        %INCLUDE CP_6;
      321     2238
      322     2239    1   DCL I UBIN WORD;
      323     2240    1   DCL TEMP UBIN WORD;
      324     2241
      325     2242        /* add dbacs ddl reserved words to hash table */
      326     2243        /* arguments are:
      327     2244        ddl_res_array.c_name(i)...reserved word to add to table
      328     2245        #add......................add to table
      329     2246        temp......................returns results of call (0 = okay)
      330     2247        0.........................not an alias
      331     2248        3.........................???
      332     2249        0.........................space_n
      333     2250        return_ptr$...............ptr$
PL6.E3A0      #001=ZIG$D_INIT_HAS File=ZIG$D_INIT_HAS.:ZIC0TSI                   FRI 09/05/97 11:59 Page:10
      334     2251        0.........................reserved word
      335     2252        */
      336     2253    2       DO I = 0 TO 144;
      337     2254    2           CALL ZIG$HASH_IT(DDL_RES_ARRAY.C_NAME(I),#ADD,TEMP,0,3,
      338     2255    2              0,RETURN_PTR$,0);
      339     2256    2           END;
      340     2257    1   END ZIG$D_INIT_HAS;

PL6.E3A0      #001=ZIG$D_INIT_HAS File=ZIG$D_INIT_HAS.:ZIC0TSI                   FRI 09/05/97 11:59 Page:11
--  Include file information  --

   CP_6.:LIB_E05  cannot be made into a system file and is referenced.
   ZI_SUB_LANG.:ZIC0TOU  is referenced.
   B$JIT_C.:E05TOU  was found in the system file and is never referenced.
   CP_6_C.:E05TOU  was found in the system file and is referenced.
      No diagnostics issued in procedure ZIG$D_INIT_HAS.

   Procedure ZIG$D_INIT_HAS requires 29 words for executable code.
   Procedure ZIG$D_INIT_HAS requires 14 words of local(AUTO) storage.

    No errors detected in file ZIG$D_INIT_HAS.:ZIC0TSI    .

PL6.E3A0      #001=ZIG$D_INIT_HAS File=ZIG$D_INIT_HAS.:ZIC0TSI                   FRI 09/05/97 11:59 Page:12

 Object Unit name= ZIG$D_INIT_HAS                             File name= ZIG$D_INIT_HAS.:ZIC0TOU
 UTS= SEP 05 '97 11:59:02.16 FRI                              Compiler= PL-6/E31         Sev=      00
 SharedLib= :SHARED_SYSTEM                                    Alt SharedLib=


    ****  Control sections  ****

 Sect   Type Bound  Init  Size OctSiz  Section name(segment info)
    0  LblCom even  none  1305   2431  DDL_RES_WORDS
    1   Data  even  none     1      1  ZIG$D_INIT_HAS
    2  LblCom even  none   809   1451  HAS_TABLE
    3  LblCom even  none     5      5  LANG_ALLOWED
    4  LblCom even  none     1      1  SUB_LANGUAGE
    5  LblCom even  none    16     20  HEADING_TEXT
    6  LblCom even  none    13     15  LANG_TEXT
    7  LblCom even  none     1      1  HASH_SCHEMA_NAME
    8  LblCom even  none     1      1  CURRENT_RECORD
    9   DCB   even  none     0      0  M$UC
   10   Proc  even  none    29     35  ZIG$D_INIT_HAS
   11  RoData even  none     6      6  ZIG$D_INIT_HAS

    ****  Entry defs  ****

                              Check   Calling
                             calling  sequence
  Sect OctLoc Primary Altret sequence   type   Parms  Name
    10      0   yes            yes      Std        0  ZIG$D_INIT_HAS

  ****  Entry refs  ****

         Check        Calling
        calling       sequence
Altret sequence SRef   type   Args  Name
         yes           Std       8 ZIG$HASH_IT
                       nStd      0 X66_AUTO_0
                       nStd      0 X66_ARET
PL6.E3A0      #001=ZIG$D_INIT_HAS File=ZIG$D_INIT_HAS.:ZIC0TSI                   FRI 09/05/97 11:59 Page:13

  ****  Data refs  ****

  Flags:  r = read only, s = secondary
Flgs Name                             Flgs Name                             Flgs Name
     M$UC

  ****  Segment refs  ****

  Flags:  r = read only, s = secondary
Flgs Name                             Flgs Name                             Flgs Name
     ISSID                                 NULLSID
PL6.E3A0      #001=ZIG$D_INIT_HAS File=ZIG$D_INIT_HAS.:ZIC0TSI                   FRI 09/05/97 11:59 Page:14


        1        1        /*M*         ZIG$D_INIT_HAS IDS/II DBACS DEFINE RESERVE NAMES 810121 */
        2        2        /*T***********************************************************/
        3        3        /*T*                                                         */
        4        4        /*T* Copyright (c) Bull HN Information Systems Inc., 1997    */
        5        5        /*T*                                                         */
        6        6        /*T***********************************************************/
        7        7        /*P*
        8        8        NAME:        ZIG$D_INIT_HAS
        9        9                     DEFINE RESERVE NAMES AND CHARACTER SET.
       10       10        ARGUMENTS:   NONE
       11       11        CALLING PROGRAMS: ZIG$D_PDRI
       12       12        PURPOSE: To init the hash table for ddl reserved words.
       13       13        */
       14       14        ZIG$D_INIT_HAS: PROC;

     14 10 000000   000000 700200 xent  ZIG$D_INIT_* TSX0  ! X66_AUTO_0
        10 000001   000016 000000                    ZERO    14,0

       15       15
       16       16    1   DCL 1 DDL_RES_WORDS EXT UNAL,
       17       17    1         2 * UBIN (18) INIT(0) UNAL,
       18       18    1         2 X101 CHAR (34) INIT ('BY') UNAL,
       19       19    1         2 * UBIN (18) INIT(0) UNAL,
       20       20    1         2 X102 CHAR (34) INIT ('IN') UNAL,
       21       21    1         2 * UBIN (18) INIT(0) UNAL,
       22       22    1         2 X103 CHAR (34) INIT ('IS') UNAL,
       23       23    1         2 * UBIN (18) INIT(0) UNAL,
       24       24    1         2 X104 CHAR (34) INIT ('OF') UNAL,
       25       25    1         2 * UBIN (18) INIT(0) UNAL,
       26       26    1         2 X105 CHAR (34) INIT ('ON') UNAL,
       27       27    1         2 * UBIN (18) INIT(0) UNAL,
       28       28    1         2 X106 CHAR (34) INIT ('OR') UNAL,
       29       29    1         2 * UBIN (18) INIT(0) UNAL,
       30       30    1         2 X107 CHAR (34) INIT ('TO') UNAL,
       31       31    1         2 * UBIN (18) INIT(0) UNAL,
       32       32    1         2 X108 CHAR (34) INIT ('ALL') UNAL,
PL6.E3A0      #001=ZIG$D_INIT_HAS File=ZIG$D_INIT_HAS.:ZIC0TSI                   FRI 09/05/97 11:59 Page:15
       33       33    1         2 * UBIN (18) INIT(0) UNAL,
       34       34    1         2 X109 CHAR (34) INIT ('AND') UNAL,
       35       35    1         2 * UBIN (18) INIT(0) UNAL,
       36       36    1         2 X110 CHAR (34) INIT ('ANY') UNAL,
       37       37    1         2 * UBIN (18) INIT(0) UNAL,
       38       38    1         2 X111 CHAR (34) INIT ('ARE') UNAL,
       39       39    1         2 * UBIN (18) INIT(0) UNAL,
       40       40    1         2 X112 CHAR (34) INIT ('ASC') UNAL,
       41       41    1         2 * UBIN (18) INIT(0) UNAL,
       42       42    1         2 X113 CHAR (34) INIT ('BIN') UNAL,
       43       43    1         2 * UBIN (18) INIT(0) UNAL,
       44       44    1         2 X114 CHAR (34) INIT ('BIT') UNAL,
       45       45    1         2 * UBIN (18) INIT(0) UNAL,
       46       46    1         2 X115 CHAR (34) INIT ('DEC') UNAL,
       47       47    1         2 * UBIN (18) INIT(0) UNAL,
       48       48    1         2 X116 CHAR (34) INIT ('FOR') UNAL,
       49       49    1         2 * UBIN (18) INIT(0) UNAL,
       50       50    1         2 X117 CHAR (34) INIT ('GET') UNAL,
       51       51    1         2 * UBIN (18) INIT(0) UNAL,
       52       52    1         2 X118 CHAR (34) INIT ('KEY') UNAL,
       53       53    1         2 * UBIN (18) INIT(0) UNAL,
       54       54    1         2 X119 CHAR (34) INIT ('LOC') UNAL,
       55       55    1         2 * UBIN (18) INIT(0) UNAL,
       56       56    1         2 X120 CHAR (34) INIT ('NOT') UNAL,
       57       57    1         2 * UBIN (18) INIT(0) UNAL,
       58       58    1         2 X121 CHAR (34) INIT ('OPT') UNAL,
       59       59    1         2 * UBIN (18) INIT(0) UNAL,
       60       60    1         2 X122 CHAR (34) INIT ('PIC') UNAL,
       61       61    1         2 * UBIN (18) INIT(0) UNAL,
       62       62    1         2 X123 CHAR (34) INIT ('SET') UNAL,
       63       63    1         2 * UBIN (18) INIT(0) UNAL,
       64       64    1         2 X124 CHAR (34) INIT ('VIA') UNAL,
       65       65    1         2 * UBIN (18) INIT(0) UNAL,
       66       66    1         2 X125 CHAR (34) INIT ('AREA') UNAL,
       67       67    1         2 * UBIN (18) INIT(0) UNAL,
       68       68    1         2 X126 CHAR (34) INIT ('AUTO') UNAL,
       69       69    1         2 * UBIN (18) INIT(0) UNAL,
PL6.E3A0      #001=ZIG$D_INIT_HAS File=ZIG$D_INIT_HAS.:ZIC0TSI                   FRI 09/05/97 11:59 Page:16
       70       70    1         2 X127 CHAR (34) INIT ('CALC') UNAL,
       71       71    1         2 * UBIN (18) INIT(0) UNAL,
       72       72    1         2 X128 CHAR (34) INIT ('CALL') UNAL,
       73       73    1         2 * UBIN (18) INIT(0) UNAL,
       74       74    1         2 X129 CHAR (34) INIT ('CHAR') UNAL,
       75       75    1         2 * UBIN (18) INIT(0) UNAL,
       76       76    1         2 X130 CHAR (34) INIT ('COPY') UNAL,
       77       77    1         2 * UBIN (18) INIT(0) UNAL,
       78       78    1         2 X131 CHAR (34) INIT ('DESC') UNAL,
       79       79    1         2 * UBIN (18) INIT(0) UNAL,
       80       80    1         2 X132 CHAR (34) INIT ('DUPS') UNAL,
       81       81    1         2 * UBIN (18) INIT(0) UNAL,
       82       82    1         2 X133 CHAR (34) INIT ('EXCL') UNAL,
       83       83    1         2 * UBIN (18) INIT(0) UNAL,
       84       84    1         2 X134 CHAR (34) INIT ('FIND') UNAL,
       85       85    1         2 * UBIN (18) INIT(0) UNAL,
       86       86    1         2 X135 CHAR (34) INIT ('KEYS') UNAL,
       87       87    1         2 * UBIN (18) INIT(0) UNAL,
       88       88    1         2 X136 CHAR (34) INIT ('LAST') UNAL,
       89       89    1         2 * UBIN (18) INIT(0) UNAL,
       90       90    1         2 X137 CHAR (34) INIT ('LOCK') UNAL,
       91       91    1         2 * UBIN (18) INIT(0) UNAL,
       92       92    1         2 X138 CHAR (34) INIT ('MAND') UNAL,
       93       93    1         2 * UBIN (18) INIT(0) UNAL,
       94       94    1         2 X139 CHAR (34) INIT ('MODE') UNAL,
       95       95    1         2 * UBIN (18) INIT(0) UNAL,
       96       96    1         2 X140 CHAR (34) INIT ('NAME') UNAL,
       97       97    1         2 * UBIN (18) INIT(0) UNAL,
       98       98    1         2 X141 CHAR (34) INIT ('NEXT') UNAL,
       99       99    1         2 * UBIN (18) INIT(0) UNAL,
      100      100    1         2 X142 CHAR (34) INIT ('NULL') UNAL,
      101      101    1         2 * UBIN (18) INIT(0) UNAL,
      102      102    1         2 X143 CHAR (34) INIT ('OPEN') UNAL,
      103      103    1         2 * UBIN (18) INIT(0) UNAL,
      104      104    1         2 X144 CHAR (34) INIT ('PERM') UNAL,
      105      105    1         2 * UBIN (18) INIT(0) UNAL,
      106      106    1         2 X145 CHAR (34) INIT ('PROC') UNAL,
PL6.E3A0      #001=ZIG$D_INIT_HAS File=ZIG$D_INIT_HAS.:ZIC0TSI                   FRI 09/05/97 11:59 Page:17
      107      107    1         2 * UBIN (18) INIT(0) UNAL,
      108      108    1         2 X146 CHAR (34) INIT ('PROT') UNAL,
      109      109    1         2 * UBIN (18) INIT(0) UNAL,
      110      110    1         2 X147 CHAR (34) INIT ('REAL') UNAL,
      111      111    1         2 * UBIN (18) INIT(0) UNAL,
      112      112    1         2 X148 CHAR (34) INIT ('RETR') UNAL,
      113      113    1         2 * UBIN (18) INIT(0) UNAL,
      114      114    1         2 X149 CHAR (34) INIT ('TEMP') UNAL,
      115      115    1         2 * UBIN (18) INIT(0) UNAL,
      116      116    1         2 X150 CHAR (34) INIT ('THEN') UNAL,
      117      117    1         2 * UBIN (18) INIT(0) UNAL,
      118      118    1         2 X151 CHAR (34) INIT ('THIS') UNAL,
      119      119    1         2 * UBIN (18) INIT(0) UNAL,
      120      120    1         2 X152 CHAR (34) INIT ('THRU') UNAL,
      121      121    1         2 * UBIN (18) INIT(0) UNAL,
      122      122    1         2 X153 CHAR (34) INIT ('TYPE') UNAL,
      123      123    1         2 * UBIN (18) INIT(0) UNAL,
      124      124    1         2 X154 CHAR (34) INIT ('AFTER') UNAL,
      125      125    1         2 * UBIN (18) INIT(0) UNAL,
      126      126    1         2 X155 CHAR (34) INIT ('ALTER') UNAL,
      127      127    1         2 * UBIN (18) INIT(0) UNAL,
      128      128    1         2 X156 CHAR (34) INIT ('CHECK') UNAL,
      129      129    1         2 * UBIN (18) INIT(0) UNAL,
      130      130    1         2 X157 CHAR (34) INIT ('CLOSE') UNAL,
      131      131    1         2 * UBIN (18) INIT(0) UNAL,
      132      132    1         2 X158 CHAR (34) INIT ('DBKEY') UNAL,
      133      133    1         2 * UBIN (18) INIT(0) UNAL,
      134      134    1         2 X159 CHAR (34) INIT ('EQUAL') UNAL,
      135      135    1         2 * UBIN (18) INIT(0) UNAL,
      136      136    1         2 X160 CHAR (34) INIT ('ERROR') UNAL,
      137      137    1         2 * UBIN (18) INIT(0) UNAL,
      138      138    1         2 X161 CHAR (34) INIT ('FIRST') UNAL,
      139      139    1         2 * UBIN (18) INIT(0) UNAL,
      140      140    1         2 X162 CHAR (34) INIT ('FIXED') UNAL,
      141      141    1         2 * UBIN (18) INIT(0) UNAL,
      142      142    1         2 X163 CHAR (34) INIT ('FLOAT') UNAL,
      143      143    1         2 * UBIN (18) INIT(0) UNAL,
PL6.E3A0      #001=ZIG$D_INIT_HAS File=ZIG$D_INIT_HAS.:ZIC0TSI                   FRI 09/05/97 11:59 Page:18
      144      144    1         2 X164 CHAR (34) INIT ('INDEX') UNAL,
      145      145    1         2 * UBIN (18) INIT(0) UNAL,
      146      146    1         2 X165 CHAR (34) INIT ('LOCKS') UNAL,
      147      147    1         2 * UBIN (18) INIT(0) UNAL,
      148      148    1         2 X166 CHAR (34) INIT ('NEXCL') UNAL,
      149      149    1         2 * UBIN (18) INIT(0) UNAL,
      150      150    1         2 X167 CHAR (34) INIT ('ORDER') UNAL,
      151      151    1         2 * UBIN (18) INIT(0) UNAL,
      152      152    1         2 X168 CHAR (34) INIT ('OWNER') UNAL,
      153      153    1         2 * UBIN (18) INIT(0) UNAL,
      154      154    1         2 X169 CHAR (34) INIT ('PRIOR') UNAL,
      155      155    1         2 * UBIN (18) INIT(0) UNAL,
      156      156    1         2 X170 CHAR (34) INIT ('RANGE') UNAL,
      157      157    1         2 * UBIN (18) INIT(0) UNAL,
      158      158    1         2 X171 CHAR (34) INIT ('STORE') UNAL,
      159      159    1         2 * UBIN (18) INIT(0) UNAL,
      160      160    1         2 X172 CHAR (34) INIT ('TIMES') UNAL,
      161      161    1         2 * UBIN (18) INIT(0) UNAL,
      162      162    1         2 X173 CHAR (34) INIT ('USING') UNAL,
      163      163    1         2 * UBIN (18) INIT(0) UNAL,
      164      164    1         2 X174 CHAR (34) INIT ('VALUE') UNAL,
      165      165    1         2 * UBIN (18) INIT(0) UNAL,
      166      166    1         2 X175 CHAR (34) INIT ('WHERE') UNAL,
      167      167    1         2 * UBIN (18) INIT(0) UNAL,
      168      168    1         2 X176 CHAR (34) INIT ('ACTUAL') UNAL,
      169      169    1         2 * UBIN (18) INIT(0) UNAL,
      170      170    1         2 X177 CHAR (34) INIT ('ALWAYS') UNAL,
      171      171    1         2 * UBIN (18) INIT(0) UNAL,
      172      172    1         2 X178 CHAR (34) INIT ('BEFORE') UNAL,
      173      173    1         2 * UBIN (18) INIT(0) UNAL,
      174      174    1         2 X179 CHAR (34) INIT ('BINARY') UNAL,
      175      175    1         2 * UBIN (18) INIT(0) UNAL,
      176      176    1         2 X180 CHAR (34) INIT ('DELETE') UNAL,
      177      177    1         2 * UBIN (18) INIT(0) UNAL,
      178      178    1         2 X181 CHAR (34) INIT ('DIRECT') UNAL,
      179      179    1         2 * UBIN (18) INIT(0) UNAL,
      180      180    1         2 X182 CHAR (34) INIT ('DURING') UNAL,
PL6.E3A0      #001=ZIG$D_INIT_HAS File=ZIG$D_INIT_HAS.:ZIC0TSI                   FRI 09/05/97 11:59 Page:19
      181      181    1         2 * UBIN (18) INIT(0) UNAL,
      182      182    1         2 X183 CHAR (34) INIT ('EXCEPT') UNAL,
      183      183    1         2 * UBIN (18) INIT(0) UNAL,
      184      184    1         2 X184 CHAR (34) INIT ('INSERT') UNAL,
      185      185    1         2 * UBIN (18) INIT(0) UNAL,
      186      186    1         2 X185 CHAR (34) INIT ('LINKED') UNAL,
      187      187    1         2 * UBIN (18) INIT(0) UNAL,
      188      188    1         2 X186 CHAR (34) INIT ('MANUAL') UNAL,
      189      189    1         2 * UBIN (18) INIT(0) UNAL,
      190      190    1         2 X187 CHAR (34) INIT ('MEMBER') UNAL,
      191      191    1         2 * UBIN (18) INIT(0) UNAL,
      192      192    1         2 X188 CHAR (34) INIT ('MODIFY') UNAL,
      193      193    1         2 * UBIN (18) INIT(0) UNAL,
      194      194    1         2 X189 CHAR (34) INIT ('OCCURS') UNAL,
      195      195    1         2 * UBIN (18) INIT(0) UNAL,
      196      196    1         2 X190 CHAR (34) INIT ('RECORD') UNAL,
      197      197    1         2 * UBIN (18) INIT(0) UNAL,
      198      198    1         2 X191 CHAR (34) INIT ('REMOVE') UNAL,
      199      199    1         2 * UBIN (18) INIT(0) UNAL,
      200      200    1         2 X192 CHAR (34) INIT ('RESULT') UNAL,
      201      201    1         2 * UBIN (18) INIT(0) UNAL,
      202      202    1         2 X193 CHAR (34) INIT ('SCHEMA') UNAL,
      203      203    1         2 * UBIN (18) INIT(0) UNAL,
      204      204    1         2 X194 CHAR (34) INIT ('SEARCH') UNAL,
      205      205    1         2 * UBIN (18) INIT(0) UNAL,
      206      206    1         2 X195 CHAR (34) INIT ('SIGNED') UNAL,
      207      207    1         2 * UBIN (18) INIT(0) UNAL,
      208      208    1         2 X196 CHAR (34) INIT ('SORTED') UNAL,
      209      209    1         2 * UBIN (18) INIT(0) UNAL,
      210      210    1         2 X197 CHAR (34) INIT ('SOURCE') UNAL,
      211      211    1         2 * UBIN (18) INIT(0) UNAL,
      212      212    1         2 X198 CHAR (34) INIT ('SYSTEM') UNAL,
      213      213    1         2 * UBIN (18) INIT(0) UNAL,
      214      214    1         2 X199 CHAR (34) INIT ('UNSPEC') UNAL,
      215      215    1         2 * UBIN (18) INIT(0) UNAL,
      216      216    1         2 X200 CHAR (34) INIT ('UPDATE') UNAL,
      217      217    1         2 * UBIN (18) INIT(0) UNAL,
PL6.E3A0      #001=ZIG$D_INIT_HAS File=ZIG$D_INIT_HAS.:ZIC0TSI                   FRI 09/05/97 11:59 Page:20
      218      218    1         2 X20X1 CHAR (34) INIT ('WITHIN') UNAL,
      219      219    1         2 * UBIN (18) INIT(0) UNAL,
      220      220    1         2 X202 CHAR (34) INIT ('ALLOWED') UNAL,
      221      221    1         2 * UBIN (18) INIT(0) UNAL,
      222      222    1         2 X203 CHAR (34) INIT ('AREA_ID') UNAL,
      223      223    1         2 * UBIN (18) INIT(0) UNAL,
      224      224    1         2 X204 CHAR (34) INIT ('COMMENT') UNAL,
      225      225    1         2 * UBIN (18) INIT(0) UNAL,
      226      226    1         2 X205 CHAR (34) INIT ('COMPLEX') UNAL,
      227      227    1         2 * UBIN (18) INIT(0) UNAL,
      228      228    1         2 X206 CHAR (34) INIT ('CURRENT') UNAL,
      229      229    1         2 * UBIN (18) INIT(0) UNAL,
      230      230    1         2 X207 CHAR (34) INIT ('DECIMAL') UNAL,
      231      231    1         2 * UBIN (18) INIT(0) UNAL,
      232      232    1         2 X208 CHAR (34) INIT ('DEFINED') UNAL,
      233      233    1         2 * UBIN (18) INIT(0) UNAL,
      234      234    1         2 X209 CHAR (34) INIT ('DISPLAY') UNAL,
      235      235    1         2 * UBIN (18) INIT(0) UNAL,
      236      236    1         2 X210 CHAR (34) INIT ('DYNAMIC') UNAL,
      237      237    1         2 * UBIN (18) INIT(0) UNAL,
      238      238    1         2 X211 CHAR (34) INIT ('INDEXED') UNAL,
      239      239    1         2 * UBIN (18) INIT(0) UNAL,
      240      240    1         2 X212 CHAR (34) INIT ('MEMBERS') UNAL,
      241      241    1         2 * UBIN (18) INIT(0) UNAL,
      242      242    1         2 X213 CHAR (34) INIT ('NONNULL') UNAL,
      243      243    1         2 * UBIN (18) INIT(0) UNAL,
      244      244    1         2 X214 CHAR (34) INIT ('PICTURE') UNAL,
      245      245    1         2 * UBIN (18) INIT(0) UNAL,
      246      246    1         2 X215 CHAR (34) INIT ('PRIVACY') UNAL,
      247      247    1         2 * UBIN (18) INIT(0) UNAL,
      248      248    1         2 X216 CHAR (34) INIT ('VARYING') UNAL,
      249      249    1         2 * UBIN (18) INIT(0) UNAL,
      250      250    1         2 X217 CHAR (34) INIT ('VIRTUAL') UNAL,
      251      251    1         2 * UBIN (18) INIT(0) UNAL,
      252      252    1         2 X218 CHAR (34) INIT ('CALC_KEY') UNAL,
      253      253    1         2 * UBIN (18) INIT(0) UNAL,
      254      254    1         2 X219 CHAR (34) INIT ('DECODING') UNAL,
PL6.E3A0      #001=ZIG$D_INIT_HAS File=ZIG$D_INIT_HAS.:ZIC0TSI                   FRI 09/05/97 11:59 Page:21
      255      255    1         2 * UBIN (18) INIT(0) UNAL,
      256      256    1         2 X220 CHAR (34) INIT ('ENCODING') UNAL,
      257      257    1         2 * UBIN (18) INIT(0) UNAL,
      258      258    1         2 X221 CHAR (34) INIT ('LOCATION') UNAL,
      259      259    1         2 * UBIN (18) INIT(0) UNAL,
      260      260    1         2 X222 CHAR (34) INIT ('OPTIONAL') UNAL,
      261      261    1         2 * UBIN (18) INIT(0) UNAL,
      262      262    1         2 X223 CHAR (34) INIT ('ASCENDING') UNAL,
      263      263    1         2 * UBIN (18) INIT(0) UNAL,
      264      264    1         2 X224 CHAR (34) INIT ('AUTOMATIC') UNAL,
      265      265    1         2 * UBIN (18) INIT(0) UNAL,
      266      266    1         2 X225 CHAR (34) INIT ('CHARACTER') UNAL,
      267      267    1         2 * UBIN (18) INIT(0) UNAL,
      268      268    1         2 X226 CHAR (34) INIT ('EXCLUSIVE') UNAL,
      269      269    1         2 * UBIN (18) INIT(0) UNAL,
      270      270    1         2 X227 CHAR (34) INIT ('INSERTION') UNAL,
      271      271    1         2 * UBIN (18) INIT(0) UNAL,
      272      272    1         2 X228 CHAR (34) INIT ('MANDATORY') UNAL,
      273      273    1         2 * UBIN (18) INIT(0) UNAL,
      274      274    1         2 X229 CHAR (34) INIT ('PERMANENT') UNAL,
      275      275    1         2 * UBIN (18) INIT(0) UNAL,
      276      276    1         2 X230 CHAR (34) INIT ('PROCEDURE') UNAL,
      277      277    1         2 * UBIN (18) INIT(0) UNAL,
      278      278    1         2 X231 CHAR (34) INIT ('PROTECTED') UNAL,
      279      279    1         2 * UBIN (18) INIT(0) UNAL,
      280      280    1         2 X232 CHAR (34) INIT ('RETENTION') UNAL,
      281      281    1         2 * UBIN (18) INIT(0) UNAL,
      282      282    1         2 X233 CHAR (34) INIT ('RETRIEVAL') UNAL,
      283      283    1         2 * UBIN (18) INIT(0) UNAL,
      284      284    1         2 X234 CHAR (34) INIT ('SELECTION') UNAL,
      285      285    1         2 * UBIN (18) INIT(0) UNAL,
      286      286    1         2 X235 CHAR (34) INIT ('TEMPORARY') UNAL,
      287      287    1         2 * UBIN (18) INIT(0) UNAL,
      288      288    1         2 X236 CHAR (34) INIT ('DESCENDING') UNAL,
      289      289    1         2 * UBIN (18) INIT(0) UNAL,
      290      290    1         2 X237 CHAR (34) INIT ('DUPLICATES') UNAL,
      291      291    1         2 * UBIN (18) INIT(0) UNAL,
PL6.E3A0      #001=ZIG$D_INIT_HAS File=ZIG$D_INIT_HAS.:ZIC0TSI                   FRI 09/05/97 11:59 Page:22
      292      292    1         2 X238 CHAR (34) INIT ('IDENTIFIED') UNAL,
      293      293    1         2 * UBIN (18) INIT(0) UNAL,
      294      294    1         2 X239 CHAR (34) INIT ('APPLICATION') UNAL,
      295      295    1         2 * UBIN (18) INIT(0) UNAL,
      296      296    1         2 X240 CHAR (34) INIT ('PROCESSABLE') UNAL,
      297      297    1         2 * UBIN (18) INIT(0) UNAL,
      298      298    1         2 X241 CHAR (34) INIT ('RECORD_NAME') UNAL,
      299      299    1         2 * UBIN (18) INIT(0) UNAL,
      300      300    1         2 X242 CHAR (34) INIT ('UNSPECIFIED') UNAL,
      301      301    1         2 * UBIN (18) INIT(0) UNAL,
      302      302    1         2 X243 CHAR (34) INIT ('NONEXCLUSIVE') UNAL,
      303      303    1         2 * UBIN (18) INIT(0) UNAL,
      304      304    1         2 X244 CHAR (34) INIT ('DATA_BASE_KEY') UNAL,
      305      305    1         2 * UBIN (18) INIT(0) UNAL,
      306      306    1         2 X245 CHAR (34) INIT ('SYSTEM_DEFAULT') UNAL;
      307      307
      308      308    1   DCL RETURN_PTR$ PTR;
      309      309    1   DCL TPTR$ PTR STATIC INIT(ADDR(DDL_RES_WORDS));
      310      310    1   DCL 1 DDL_RES_ARRAY (0:144) BASED (TPTR$),
      311      311    1         2 TYPE UBIN (6) UNAL,
      312      312    1         2 DUPS UBIN (12) UNAL,
      313      313    1         2 C_NAME CHAR(30) UNAL,
      314      314    1         2 PTR$ PTR UNAL;
      315      315
      316      316    1   DCL HAS_TABLE (0:808) PTR EXT INIT (ADDR(NIL)*809);
      317      317    1   DCL ZIG$HASH_IT ENTRY(8);
      318      318        %INCLUDE ZI_SUB_LANG;
      319     2033         %GENERAL;
      320     2157        %INCLUDE CP_6;
      321     2238
      322     2239    1   DCL I UBIN WORD;
      323     2240    1   DCL TEMP UBIN WORD;
      324     2241
      325     2242        /* add dbacs ddl reserved words to hash table */
      326     2243        /* arguments are:
      327     2244        ddl_res_array.c_name(i)...reserved word to add to table
      328     2245        #add......................add to table
PL6.E3A0      #001=ZIG$D_INIT_HAS File=ZIG$D_INIT_HAS.:ZIC0TSI                   FRI 09/05/97 11:59 Page:23
      329     2246        temp......................returns results of call (0 = okay)
      330     2247        0.........................not an alias
      331     2248        3.........................???
      332     2249        0.........................space_n
      333     2250        return_ptr$...............ptr$
      334     2251        0.........................reserved word
      335     2252        */
      336     2253    2       DO I = 0 TO 144;

   2253 10 000002   200004 450100                    STZ     I,,AUTO

      337     2254    2           CALL ZIG$HASH_IT(DDL_RES_ARRAY.C_NAME(I),#ADD,TEMP,0,3,

   2254 10 000003   000003 236000 11                 LDQ     3
        10 000004   200015 756100                    STQ     TEMP+8,,AUTO
        10 000005   200003 630500                    EPPR0   RETURN_PTR$,,AUTO
        10 000006   200014 450500                    STP0    TEMP+7,,AUTO
        10 000007   000004 237000 11                 LDAQ    4
        10 000010   200012 757100                    STAQ    TEMP+5,,AUTO
        10 000011   000003 236000 11                 LDQ     3
        10 000012   200011 756100                    STQ     TEMP+4,,AUTO
        10 000013   200005 631500                    EPPR1   TEMP,,AUTO
        10 000014   200010 451500                    STP1    TEMP+3,,AUTO
        10 000015   200007 756100                    STQ     TEMP+2,,AUTO
        10 000016   200004 236100                    LDQ     I,,AUTO
        10 000017   000011 402003                    MPY     9,DU
        10 000020   400000 036007                    ADLQ    -131072,DL
        10 000021   000000 036000 1                  ADLQ    TPTR$
        10 000022   200006 756100                    STQ     TEMP+1,,AUTO
        10 000023   200006 630500                    EPPR0   TEMP+1,,AUTO
        10 000024   000000 631400 11                 EPPR1   0
        10 000025   000000 701000 xent               TSX1    ZIG$HASH_IT
        10 000026   000000 011000                    NOP     0

      338     2255    2              0,RETURN_PTR$,0);
      339     2256    2           END;

PL6.E3A0      #001=ZIG$D_INIT_HAS File=ZIG$D_INIT_HAS.:ZIC0TSI                   FRI 09/05/97 11:59 Page:24
   2256 10 000027   200004 235100                    LDA     I,,AUTO
        10 000030   000001 035007                    ADLA    1,DL
        10 000031   200004 755100                    STA     I,,AUTO
        10 000032   000221 115007                    CMPA    145,DL
        10 000033   000003 602000 10                 TNC     s:2254

      340     2257    1   END ZIG$D_INIT_HAS;

   2257 10 000034   000000 702200 xent               TSX2  ! X66_ARET

DDL_RES_WORDS
 Sect OctLoc
   0     000   000000 102131   040040 040040   040040 040040   040040 040040    ..BY
   0     004   040040 040040   040040 040040   040040 040040   040040 040040
   0     010   040040 040040   000000 111116   040040 040040   040040 040040        ..IN
   0     014   040040 040040   040040 040040   040040 040040   040040 040040
   0     020   040040 040040   040040 040040   000000 111123   040040 040040            ..IS
   0     024   040040 040040   040040 040040   040040 040040   040040 040040
   0     030   040040 040040   040040 040040   040040 040040   000000 117106                ..OF
   0     034   040040 040040   040040 040040   040040 040040   040040 040040
   0     044*  000000 117116   040040 040040   040040 040040   040040 040040    ..ON
   0     050   040040 040040   040040 040040   040040 040040   040040 040040
   0     054   040040 040040   000000 117122   040040 040040   040040 040040        ..OR
   0     060   040040 040040   040040 040040   040040 040040   040040 040040
   0     064   040040 040040   040040 040040   000000 124117   040040 040040            ..TO
   0     070   040040 040040   040040 040040   040040 040040   040040 040040
   0     074   040040 040040   040040 040040   040040 040040   000000 101114                ..AL
   0     100   114040 040040   040040 040040   040040 040040   040040 040040    L
   0     104   040040 040040   040040 040040   040040 040040   040040 040040
   0     110   000000 101116   104040 040040   040040 040040   040040 040040    ..AND
   0     114   040040 040040   040040 040040   040040 040040   040040 040040
   0     120   040040 040040   000000 101116   131040 040040   040040 040040        ..ANY
   0     124   040040 040040   040040 040040   040040 040040   040040 040040
   0     130   040040 040040   040040 040040   000000 101122   105040 040040            ..ARE
   0     134   040040 040040   040040 040040   040040 040040   040040 040040
   0     140   040040 040040   040040 040040   040040 040040   000000 101123                ..AS
   0     144   103040 040040   040040 040040   040040 040040   040040 040040    C
PL6.E3A0      #001=ZIG$D_INIT_HAS File=ZIG$D_INIT_HAS.:ZIC0TSI                   FRI 09/05/97 11:59 Page:25
   0     150   040040 040040   040040 040040   040040 040040   040040 040040
   0     154   000000 102111   116040 040040   040040 040040   040040 040040    ..BIN
   0     160   040040 040040   040040 040040   040040 040040   040040 040040
   0     164   040040 040040   000000 102111   124040 040040   040040 040040        ..BIT
   0     170   040040 040040   040040 040040   040040 040040   040040 040040
   0     174   040040 040040   040040 040040   000000 104105   103040 040040            ..DEC
   0     200   040040 040040   040040 040040   040040 040040   040040 040040
   0     204   040040 040040   040040 040040   040040 040040   000000 106117                ..FO
   0     210   122040 040040   040040 040040   040040 040040   040040 040040    R
   0     214   040040 040040   040040 040040   040040 040040   040040 040040
   0     220   000000 107105   124040 040040   040040 040040   040040 040040    ..GET
   0     224   040040 040040   040040 040040   040040 040040   040040 040040
   0     230   040040 040040   000000 113105   131040 040040   040040 040040        ..KEY
   0     234   040040 040040   040040 040040   040040 040040   040040 040040
   0     240   040040 040040   040040 040040   000000 114117   103040 040040            ..LOC
   0     244   040040 040040   040040 040040   040040 040040   040040 040040
   0     250   040040 040040   040040 040040   040040 040040   000000 116117                ..NO
   0     254   124040 040040   040040 040040   040040 040040   040040 040040    T
   0     260   040040 040040   040040 040040   040040 040040   040040 040040
   0     264   000000 117120   124040 040040   040040 040040   040040 040040    ..OPT
   0     270   040040 040040   040040 040040   040040 040040   040040 040040
   0     274   040040 040040   000000 120111   103040 040040   040040 040040        ..PIC
   0     300   040040 040040   040040 040040   040040 040040   040040 040040
   0     304   040040 040040   040040 040040   000000 123105   124040 040040            ..SET
   0     310   040040 040040   040040 040040   040040 040040   040040 040040
   0     314   040040 040040   040040 040040   040040 040040   000000 126111                ..VI
   0     320   101040 040040   040040 040040   040040 040040   040040 040040    A
   0     324   040040 040040   040040 040040   040040 040040   040040 040040
   0     330   000000 101122   105101 040040   040040 040040   040040 040040    ..AREA
   0     334   040040 040040   040040 040040   040040 040040   040040 040040
   0     340   040040 040040   000000 101125   124117 040040   040040 040040        ..AUTO
   0     344   040040 040040   040040 040040   040040 040040   040040 040040
   0     350   040040 040040   040040 040040   000000 103101   114103 040040            ..CALC
   0     354   040040 040040   040040 040040   040040 040040   040040 040040
   0     360   040040 040040   040040 040040   040040 040040   000000 103101                ..CA
   0     364   114114 040040   040040 040040   040040 040040   040040 040040    LL
   0     370   040040 040040   040040 040040   040040 040040   040040 040040
PL6.E3A0      #001=ZIG$D_INIT_HAS File=ZIG$D_INIT_HAS.:ZIC0TSI                   FRI 09/05/97 11:59 Page:26
   0     374   000000 103110   101122 040040   040040 040040   040040 040040    ..CHAR
   0     400   040040 040040   040040 040040   040040 040040   040040 040040
   0     404   040040 040040   000000 103117   120131 040040   040040 040040        ..COPY
   0     410   040040 040040   040040 040040   040040 040040   040040 040040
   0     414   040040 040040   040040 040040   000000 104105   123103 040040            ..DESC
   0     420   040040 040040   040040 040040   040040 040040   040040 040040
   0     424   040040 040040   040040 040040   040040 040040   000000 104125                ..DU
   0     430   120123 040040   040040 040040   040040 040040   040040 040040    PS
   0     434   040040 040040   040040 040040   040040 040040   040040 040040
   0     440   000000 105130   103114 040040   040040 040040   040040 040040    ..EXCL
   0     444   040040 040040   040040 040040   040040 040040   040040 040040
   0     450   040040 040040   000000 106111   116104 040040   040040 040040        ..FIND
   0     454   040040 040040   040040 040040   040040 040040   040040 040040
   0     460   040040 040040   040040 040040   000000 113105   131123 040040            ..KEYS
   0     464   040040 040040   040040 040040   040040 040040   040040 040040
   0     470   040040 040040   040040 040040   040040 040040   000000 114101                ..LA
   0     474   123124 040040   040040 040040   040040 040040   040040 040040    ST
   0     500   040040 040040   040040 040040   040040 040040   040040 040040
   0     504   000000 114117   103113 040040   040040 040040   040040 040040    ..LOCK
   0     510   040040 040040   040040 040040   040040 040040   040040 040040
   0     514   040040 040040   000000 115101   116104 040040   040040 040040        ..MAND
   0     520   040040 040040   040040 040040   040040 040040   040040 040040
   0     524   040040 040040   040040 040040   000000 115117   104105 040040            ..MODE
   0     530   040040 040040   040040 040040   040040 040040   040040 040040
   0     534   040040 040040   040040 040040   040040 040040   000000 116101                ..NA
   0     540   115105 040040   040040 040040   040040 040040   040040 040040    ME
   0     544   040040 040040   040040 040040   040040 040040   040040 040040
   0     550   000000 116105   130124 040040   040040 040040   040040 040040    ..NEXT
   0     554   040040 040040   040040 040040   040040 040040   040040 040040
   0     560   040040 040040   000000 116125   114114 040040   040040 040040        ..NULL
   0     564   040040 040040   040040 040040   040040 040040   040040 040040
   0     570   040040 040040   040040 040040   000000 117120   105116 040040            ..OPEN
   0     574   040040 040040   040040 040040   040040 040040   040040 040040
   0     600   040040 040040   040040 040040   040040 040040   000000 120105                ..PE
   0     604   122115 040040   040040 040040   040040 040040   040040 040040    RM
   0     610   040040 040040   040040 040040   040040 040040   040040 040040
   0     614   000000 120122   117103 040040   040040 040040   040040 040040    ..PROC
PL6.E3A0      #001=ZIG$D_INIT_HAS File=ZIG$D_INIT_HAS.:ZIC0TSI                   FRI 09/05/97 11:59 Page:27
   0     620   040040 040040   040040 040040   040040 040040   040040 040040
   0     624   040040 040040   000000 120122   117124 040040   040040 040040        ..PROT
   0     630   040040 040040   040040 040040   040040 040040   040040 040040
   0     634   040040 040040   040040 040040   000000 122105   101114 040040            ..REAL
   0     640   040040 040040   040040 040040   040040 040040   040040 040040
   0     644   040040 040040   040040 040040   040040 040040   000000 122105                ..RE
   0     650   124122 040040   040040 040040   040040 040040   040040 040040    TR
   0     654   040040 040040   040040 040040   040040 040040   040040 040040
   0     660   000000 124105   115120 040040   040040 040040   040040 040040    ..TEMP
   0     664   040040 040040   040040 040040   040040 040040   040040 040040
   0     670   040040 040040   000000 124110   105116 040040   040040 040040        ..THEN
   0     674   040040 040040   040040 040040   040040 040040   040040 040040
   0     700   040040 040040   040040 040040   000000 124110   111123 040040            ..THIS
   0     704   040040 040040   040040 040040   040040 040040   040040 040040
   0     710   040040 040040   040040 040040   040040 040040   000000 124110                ..TH
   0     714   122125 040040   040040 040040   040040 040040   040040 040040    RU
   0     720   040040 040040   040040 040040   040040 040040   040040 040040
   0     724   000000 124131   120105 040040   040040 040040   040040 040040    ..TYPE
   0     730   040040 040040   040040 040040   040040 040040   040040 040040
   0     734   040040 040040   000000 101106   124105 122040   040040 040040        ..AFTER
   0     740   040040 040040   040040 040040   040040 040040   040040 040040
   0     744   040040 040040   040040 040040   000000 101114   124105 122040            ..ALTER
   0     750   040040 040040   040040 040040   040040 040040   040040 040040
   0     754   040040 040040   040040 040040   040040 040040   000000 103110                ..CH
   0     760   105103 113040   040040 040040   040040 040040   040040 040040    ECK
   0     764   040040 040040   040040 040040   040040 040040   040040 040040
   0     770   000000 103114   117123 105040   040040 040040   040040 040040    ..CLOSE
   0     774   040040 040040   040040 040040   040040 040040   040040 040040
   0    1000   040040 040040   000000 104102   113105 131040   040040 040040        ..DBKEY
   0    1004   040040 040040   040040 040040   040040 040040   040040 040040
   0    1010   040040 040040   040040 040040   000000 105121   125101 114040            ..EQUAL
   0    1014   040040 040040   040040 040040   040040 040040   040040 040040
   0    1020   040040 040040   040040 040040   040040 040040   000000 105122                ..ER
   0    1024   122117 122040   040040 040040   040040 040040   040040 040040    ROR
   0    1030   040040 040040   040040 040040   040040 040040   040040 040040
   0    1034   000000 106111   122123 124040   040040 040040   040040 040040    ..FIRST
   0    1040   040040 040040   040040 040040   040040 040040   040040 040040
PL6.E3A0      #001=ZIG$D_INIT_HAS File=ZIG$D_INIT_HAS.:ZIC0TSI                   FRI 09/05/97 11:59 Page:28
   0    1044   040040 040040   000000 106111   130105 104040   040040 040040        ..FIXED
   0    1050   040040 040040   040040 040040   040040 040040   040040 040040
   0    1054   040040 040040   040040 040040   000000 106114   117101 124040            ..FLOAT
   0    1060   040040 040040   040040 040040   040040 040040   040040 040040
   0    1064   040040 040040   040040 040040   040040 040040   000000 111116                ..IN
   0    1070   104105 130040   040040 040040   040040 040040   040040 040040    DEX
   0    1074   040040 040040   040040 040040   040040 040040   040040 040040
   0    1100   000000 114117   103113 123040   040040 040040   040040 040040    ..LOCKS
   0    1104   040040 040040   040040 040040   040040 040040   040040 040040
   0    1110   040040 040040   000000 116105   130103 114040   040040 040040        ..NEXCL
   0    1114   040040 040040   040040 040040   040040 040040   040040 040040
   0    1120   040040 040040   040040 040040   000000 117122   104105 122040            ..ORDER
   0    1124   040040 040040   040040 040040   040040 040040   040040 040040
   0    1130   040040 040040   040040 040040   040040 040040   000000 117127                ..OW
   0    1134   116105 122040   040040 040040   040040 040040   040040 040040    NER
   0    1140   040040 040040   040040 040040   040040 040040   040040 040040
   0    1144   000000 120122   111117 122040   040040 040040   040040 040040    ..PRIOR
   0    1150   040040 040040   040040 040040   040040 040040   040040 040040
   0    1154   040040 040040   000000 122101   116107 105040   040040 040040        ..RANGE
   0    1160   040040 040040   040040 040040   040040 040040   040040 040040
   0    1164   040040 040040   040040 040040   000000 123124   117122 105040            ..STORE
   0    1170   040040 040040   040040 040040   040040 040040   040040 040040
   0    1174   040040 040040   040040 040040   040040 040040   000000 124111                ..TI
   0    1200   115105 123040   040040 040040   040040 040040   040040 040040    MES
   0    1204   040040 040040   040040 040040   040040 040040   040040 040040
   0    1210   000000 125123   111116 107040   040040 040040   040040 040040    ..USING
   0    1214   040040 040040   040040 040040   040040 040040   040040 040040
   0    1220   040040 040040   000000 126101   114125 105040   040040 040040        ..VALUE
   0    1224   040040 040040   040040 040040   040040 040040   040040 040040
   0    1230   040040 040040   040040 040040   000000 127110   105122 105040            ..WHERE
   0    1234   040040 040040   040040 040040   040040 040040   040040 040040
   0    1240   040040 040040   040040 040040   040040 040040   000000 101103                ..AC
   0    1244   124125 101114   040040 040040   040040 040040   040040 040040    TUAL
   0    1250   040040 040040   040040 040040   040040 040040   040040 040040
   0    1254   000000 101114   127101 131123   040040 040040   040040 040040    ..ALWAYS
   0    1260   040040 040040   040040 040040   040040 040040   040040 040040
   0    1264   040040 040040   000000 102105   106117 122105   040040 040040        ..BEFORE
PL6.E3A0      #001=ZIG$D_INIT_HAS File=ZIG$D_INIT_HAS.:ZIC0TSI                   FRI 09/05/97 11:59 Page:29
   0    1270   040040 040040   040040 040040   040040 040040   040040 040040
   0    1274   040040 040040   040040 040040   000000 102111   116101 122131            ..BINARY
   0    1300   040040 040040   040040 040040   040040 040040   040040 040040
   0    1304   040040 040040   040040 040040   040040 040040   000000 104105                ..DE
   0    1310   114105 124105   040040 040040   040040 040040   040040 040040    LETE
   0    1314   040040 040040   040040 040040   040040 040040   040040 040040
   0    1320   000000 104111   122105 103124   040040 040040   040040 040040    ..DIRECT
   0    1324   040040 040040   040040 040040   040040 040040   040040 040040
   0    1330   040040 040040   000000 104125   122111 116107   040040 040040        ..DURING
   0    1334   040040 040040   040040 040040   040040 040040   040040 040040
   0    1340   040040 040040   040040 040040   000000 105130   103105 120124            ..EXCEPT
   0    1344   040040 040040   040040 040040   040040 040040   040040 040040
   0    1350   040040 040040   040040 040040   040040 040040   000000 111116                ..IN
   0    1354   123105 122124   040040 040040   040040 040040   040040 040040    SERT
   0    1360   040040 040040   040040 040040   040040 040040   040040 040040
   0    1364   000000 114111   116113 105104   040040 040040   040040 040040    ..LINKED
   0    1370   040040 040040   040040 040040   040040 040040   040040 040040
   0    1374   040040 040040   000000 115101   116125 101114   040040 040040        ..MANUAL
   0    1400   040040 040040   040040 040040   040040 040040   040040 040040
   0    1404   040040 040040   040040 040040   000000 115105   115102 105122            ..MEMBER
   0    1410   040040 040040   040040 040040   040040 040040   040040 040040
   0    1414   040040 040040   040040 040040   040040 040040   000000 115117                ..MO
   0    1420   104111 106131   040040 040040   040040 040040   040040 040040    DIFY
   0    1424   040040 040040   040040 040040   040040 040040   040040 040040
   0    1430   000000 117103   103125 122123   040040 040040   040040 040040    ..OCCURS
   0    1434   040040 040040   040040 040040   040040 040040   040040 040040
   0    1440   040040 040040   000000 122105   103117 122104   040040 040040        ..RECORD
   0    1444   040040 040040   040040 040040   040040 040040   040040 040040
   0    1450   040040 040040   040040 040040   000000 122105   115117 126105            ..REMOVE
   0    1454   040040 040040   040040 040040   040040 040040   040040 040040
   0    1460   040040 040040   040040 040040   040040 040040   000000 122105                ..RE
   0    1464   123125 114124   040040 040040   040040 040040   040040 040040    SULT
   0    1470   040040 040040   040040 040040   040040 040040   040040 040040
   0    1474   000000 123103   110105 115101   040040 040040   040040 040040    ..SCHEMA
   0    1500   040040 040040   040040 040040   040040 040040   040040 040040
   0    1504   040040 040040   000000 123105   101122 103110   040040 040040        ..SEARCH
   0    1510   040040 040040   040040 040040   040040 040040   040040 040040
PL6.E3A0      #001=ZIG$D_INIT_HAS File=ZIG$D_INIT_HAS.:ZIC0TSI                   FRI 09/05/97 11:59 Page:30
   0    1514   040040 040040   040040 040040   000000 123111   107116 105104            ..SIGNED
   0    1520   040040 040040   040040 040040   040040 040040   040040 040040
   0    1524   040040 040040   040040 040040   040040 040040   000000 123117                ..SO
   0    1530   122124 105104   040040 040040   040040 040040   040040 040040    RTED
   0    1534   040040 040040   040040 040040   040040 040040   040040 040040
   0    1540   000000 123117   125122 103105   040040 040040   040040 040040    ..SOURCE
   0    1544   040040 040040   040040 040040   040040 040040   040040 040040
   0    1550   040040 040040   000000 123131   123124 105115   040040 040040        ..SYSTEM
   0    1554   040040 040040   040040 040040   040040 040040   040040 040040
   0    1560   040040 040040   040040 040040   000000 125116   123120 105103            ..UNSPEC
   0    1564   040040 040040   040040 040040   040040 040040   040040 040040
   0    1570   040040 040040   040040 040040   040040 040040   000000 125120                ..UP
   0    1574   104101 124105   040040 040040   040040 040040   040040 040040    DATE
   0    1600   040040 040040   040040 040040   040040 040040   040040 040040
   0    1604   000000 127111   124110 111116   040040 040040   040040 040040    ..WITHIN
   0    1610   040040 040040   040040 040040   040040 040040   040040 040040
   0    1614   040040 040040   000000 101114   114117 127105   104040 040040        ..ALLOWED
   0    1620   040040 040040   040040 040040   040040 040040   040040 040040
   0    1624   040040 040040   040040 040040   000000 101122   105101 137111            ..AREA_I
   0    1630   104040 040040   040040 040040   040040 040040   040040 040040    D
   0    1634   040040 040040   040040 040040   040040 040040   000000 103117                ..CO
   0    1640   115115 105116   124040 040040   040040 040040   040040 040040    MMENT
   0    1644   040040 040040   040040 040040   040040 040040   040040 040040
   0    1650   000000 103117   115120 114105   130040 040040   040040 040040    ..COMPLEX
   0    1654   040040 040040   040040 040040   040040 040040   040040 040040
   0    1660   040040 040040   000000 103125   122122 105116   124040 040040        ..CURRENT
   0    1664   040040 040040   040040 040040   040040 040040   040040 040040
   0    1670   040040 040040   040040 040040   000000 104105   103111 115101            ..DECIMA
   0    1674   114040 040040   040040 040040   040040 040040   040040 040040    L
   0    1700   040040 040040   040040 040040   040040 040040   000000 104105                ..DE
   0    1704   106111 116105   104040 040040   040040 040040   040040 040040    FINED
   0    1710   040040 040040   040040 040040   040040 040040   040040 040040
   0    1714   000000 104111   123120 114101   131040 040040   040040 040040    ..DISPLAY
   0    1720   040040 040040   040040 040040   040040 040040   040040 040040
   0    1724   040040 040040   000000 104131   116101 115111   103040 040040        ..DYNAMIC
   0    1730   040040 040040   040040 040040   040040 040040   040040 040040
   0    1734   040040 040040   040040 040040   000000 111116   104105 130105            ..INDEXE
PL6.E3A0      #001=ZIG$D_INIT_HAS File=ZIG$D_INIT_HAS.:ZIC0TSI                   FRI 09/05/97 11:59 Page:31
   0    1740   104040 040040   040040 040040   040040 040040   040040 040040    D
   0    1744   040040 040040   040040 040040   040040 040040   000000 115105                ..ME
   0    1750   115102 105122   123040 040040   040040 040040   040040 040040    MBERS
   0    1754   040040 040040   040040 040040   040040 040040   040040 040040
   0    1760   000000 116117   116116 125114   114040 040040   040040 040040    ..NONNULL
   0    1764   040040 040040   040040 040040   040040 040040   040040 040040
   0    1770   040040 040040   000000 120111   103124 125122   105040 040040        ..PICTURE
   0    1774   040040 040040   040040 040040   040040 040040   040040 040040
   0    2000   040040 040040   040040 040040   000000 120122   111126 101103            ..PRIVAC
   0    2004   131040 040040   040040 040040   040040 040040   040040 040040    Y
   0    2010   040040 040040   040040 040040   040040 040040   000000 126101                ..VA
   0    2014   122131 111116   107040 040040   040040 040040   040040 040040    RYING
   0    2020   040040 040040   040040 040040   040040 040040   040040 040040
   0    2024   000000 126111   122124 125101   114040 040040   040040 040040    ..VIRTUAL
   0    2030   040040 040040   040040 040040   040040 040040   040040 040040
   0    2034   040040 040040   000000 103101   114103 137113   105131 040040        ..CALC_KEY
   0    2040   040040 040040   040040 040040   040040 040040   040040 040040
   0    2044   040040 040040   040040 040040   000000 104105   103117 104111            ..DECODI
   0    2050   116107 040040   040040 040040   040040 040040   040040 040040    NG
   0    2054   040040 040040   040040 040040   040040 040040   000000 105116                ..EN
   0    2060   103117 104111   116107 040040   040040 040040   040040 040040    CODING
   0    2064   040040 040040   040040 040040   040040 040040   040040 040040
   0    2070   000000 114117   103101 124111   117116 040040   040040 040040    ..LOCATION
   0    2074   040040 040040   040040 040040   040040 040040   040040 040040
   0    2100   040040 040040   000000 117120   124111 117116   101114 040040        ..OPTIONAL
   0    2104   040040 040040   040040 040040   040040 040040   040040 040040
   0    2110   040040 040040   040040 040040   000000 101123   103105 116104            ..ASCEND
   0    2114   111116 107040   040040 040040   040040 040040   040040 040040    ING
   0    2120   040040 040040   040040 040040   040040 040040   000000 101125                ..AU
   0    2124   124117 115101   124111 103040   040040 040040   040040 040040    TOMATIC
   0    2130   040040 040040   040040 040040   040040 040040   040040 040040
   0    2134   000000 103110   101122 101103   124105 122040   040040 040040    ..CHARACTER
   0    2140   040040 040040   040040 040040   040040 040040   040040 040040
   0    2144   040040 040040   000000 105130   103114 125123   111126 105040        ..EXCLUSIVE
   0    2150   040040 040040   040040 040040   040040 040040   040040 040040
   0    2154   040040 040040   040040 040040   000000 111116   123105 122124            ..INSERT
   0    2160   111117 116040   040040 040040   040040 040040   040040 040040    ION
PL6.E3A0      #001=ZIG$D_INIT_HAS File=ZIG$D_INIT_HAS.:ZIC0TSI                   FRI 09/05/97 11:59 Page:32
   0    2164   040040 040040   040040 040040   040040 040040   000000 115101                ..MA
   0    2170   116104 101124   117122 131040   040040 040040   040040 040040    NDATORY
   0    2174   040040 040040   040040 040040   040040 040040   040040 040040
   0    2200   000000 120105   122115 101116   105116 124040   040040 040040    ..PERMANENT
   0    2204   040040 040040   040040 040040   040040 040040   040040 040040
   0    2210   040040 040040   000000 120122   117103 105104   125122 105040        ..PROCEDURE
   0    2214   040040 040040   040040 040040   040040 040040   040040 040040
   0    2220   040040 040040   040040 040040   000000 120122   117124 105103            ..PROTEC
   0    2224   124105 104040   040040 040040   040040 040040   040040 040040    TED
   0    2230   040040 040040   040040 040040   040040 040040   000000 122105                ..RE
   0    2234   124105 116124   111117 116040   040040 040040   040040 040040    TENTION
   0    2240   040040 040040   040040 040040   040040 040040   040040 040040
   0    2244   000000 122105   124122 111105   126101 114040   040040 040040    ..RETRIEVAL
   0    2250   040040 040040   040040 040040   040040 040040   040040 040040
   0    2254   040040 040040   000000 123105   114105 103124   111117 116040        ..SELECTION
   0    2260   040040 040040   040040 040040   040040 040040   040040 040040
   0    2264   040040 040040   040040 040040   000000 124105   115120 117122            ..TEMPOR
   0    2270   101122 131040   040040 040040   040040 040040   040040 040040    ARY
   0    2274   040040 040040   040040 040040   040040 040040   000000 104105                ..DE
   0    2300   123103 105116   104111 116107   040040 040040   040040 040040    SCENDING
   0    2304   040040 040040   040040 040040   040040 040040   040040 040040
   0    2310   000000 104125   120114 111103   101124 105123   040040 040040    ..DUPLICATES
   0    2314   040040 040040   040040 040040   040040 040040   040040 040040
   0    2320   040040 040040   000000 111104   105116 124111   106111 105104        ..IDENTIFIED
   0    2324   040040 040040   040040 040040   040040 040040   040040 040040
   0    2330   040040 040040   040040 040040   000000 101120   120114 111103            ..APPLIC
   0    2334   101124 111117   116040 040040   040040 040040   040040 040040    ATION
   0    2340   040040 040040   040040 040040   040040 040040   000000 120122                ..PR
   0    2344   117103 105123   123101 102114   105040 040040   040040 040040    OCESSABLE
   0    2350   040040 040040   040040 040040   040040 040040   040040 040040
   0    2354   000000 122105   103117 122104   137116 101115   105040 040040    ..RECORD_NAME
   0    2360   040040 040040   040040 040040   040040 040040   040040 040040
   0    2364   040040 040040   000000 125116   123120 105103   111106 111105        ..UNSPECIFIE
   0    2370   104040 040040   040040 040040   040040 040040   040040 040040    D
   0    2374   040040 040040   040040 040040   000000 116117   116105 130103            ..NONEXC
   0    2400   114125 123111   126105 040040   040040 040040   040040 040040    LUSIVE
   0    2404   040040 040040   040040 040040   040040 040040   000000 104101                ..DA
PL6.E3A0      #001=ZIG$D_INIT_HAS File=ZIG$D_INIT_HAS.:ZIC0TSI                   FRI 09/05/97 11:59 Page:33
   0    2410   124101 137102   101123 105137   113105 131040   040040 040040    TA_BASE_KEY
   0    2414   040040 040040   040040 040040   040040 040040   040040 040040
   0    2420   000000 123131   123124 105115   137104 105106   101125 114124    ..SYSTEM_DEFAULT
   0    2424   040040 040040   040040 040040   040040 040040   040040 040040
   0    2430   040040 040040

TPTR$
 Sect OctLoc
   1     000   000000 006000                                                    ....

HAS_TABLE
 Sect OctLoc
   2     000   000000 006014   000000 006014   000000 006014   000000 006014    ................
   2    1450*  000000 006014                                                    ....

LANG_ALLOWED
 Sect OctLoc
   3     000   ****** ******   ****** ******   ****** ******   ****** ******    ................

HEADING_TEXT
 Sect OctLoc
   5     000   ****** ******   ****** ******   ****** ******   ****** ******    ................

LANG_TEXT
 Sect OctLoc
   6     000   116117 124040   125123 105104   040040 103117   102117 114040    NOT USED  COBOL
   6     004   040040 040040   106117 122124   122101 116040   040040 101120        FORTRAN   AP
   6     010   114040 040040   040040 040040   102101 123111   103040 040040    L       BASIC
   6     014   040040 ******                                                      ..

HASH_SCHEMA_NAME
 Sect OctLoc
   7     000   0***** ******                                                    ....

(unnamed)
 Sect OctLoc
  11     000   000010 000000   000000 000000   000000 000003   000001 006000    ................
PL6.E3A0      #001=ZIG$D_INIT_HAS File=ZIG$D_INIT_HAS.:ZIC0TSI                   FRI 09/05/97 11:59 Page:34
  11     004   000002 006000   000001 006000                                    ........

PL6.E3A0      #001=ZIG$D_INIT_HAS File=ZIG$D_INIT_HAS.:ZIC0TSI                   FRI 09/05/97 11:59 Page:35
--  Include file information  --

   CP_6.:LIB_E05  cannot be made into a system file and is referenced.
   ZI_SUB_LANG.:ZIC0TOU  is referenced.
   B$JIT_C.:E05TOU  was found in the system file and is never referenced.
   CP_6_C.:E05TOU  was found in the system file and is referenced.
      No diagnostics issued in procedure ZIG$D_INIT_HAS.

   Procedure ZIG$D_INIT_HAS requires 29 words for executable code.
   Procedure ZIG$D_INIT_HAS requires 14 words of local(AUTO) storage.

    No errors detected in file ZIG$D_INIT_HAS.:ZIC0TSI    .
PL6.E3A0      #001=ZIG$D_INIT_HAS File=ZIG$D_INIT_HAS.:ZIC0TSI                   FRI 09/05/97 11:59 Page:36
          *** CROSS REFERENCE LISTING ***
**     DENOTES     IDENTIFIER DEFINITION
<<                 IDENTIFIER'S VALUE SET
>>                 IDENTIFIER'S VALUE USED
<>                 IDENTIFIER SET AND/OR USED
--                 IDENTIFIER REFERENCED
PL6.E3A0      #001=ZIG$D_INIT_HAS File=ZIG$D_INIT_HAS.:ZIC0TSI                   FRI 09/05/97 11:59 Page:37
          MINI XREF LISTING

DDL_RES_ARRAY.C_NAME
       313**DCL      2254<>CALL
DDL_RES_WORDS
        16**DCL       309--DCLINIT
I
      2239**DCL      2253<<DOINDEX  2254>>CALL
RETURN_PTR$
       308**DCL      2254<>CALL
TEMP
      2240**DCL      2254<>CALL
TPTR$
       309**DCL       310--IMP-PTR  2254>>CALL
ZIG$HASH_IT
       317**DCL-ENT  2254--CALL
