PL6.E3A0      #002=MOVE_TO_FIRST_POS File=ZIG$D_PAS2.:ZIC0TSI                    FRI 09/05/97 12:00 Page:283
     1511        1        /*T***********************************************************/
     1512        2        /*T*                                                         */
     1513        3        /*T* Copyright (c) Bull HN Information Systems Inc., 1997    */
     1514        4        /*T*                                                         */
     1515        5        /*T***********************************************************/
     1516        6        /*P*
     1517        7        NAME:    MOVE_TO_FIRST_POS
     1518        8        PURPOSE: This routine is called after a new synonomous FR has been
     1519        9                 stored.  The way SCHEMA40 is written causes new FRs to be
     1520       10                 automatically added to the end of the RC-FR chain.  This
     1521       11                 causes an order problem since all synonomous FRs must come
     1522       12                 before any real FRs in the chain.  (If not, parts of DBACS
     1523       13                 die and schemas built in another order are not compatible
     1524       14                 with schemas built in earlier releases of DBACS.)
     1525       15        */
     1526       16        MOVE_TO_FIRST_POS: PROC ( OWNER, SET_TYPE, OWN_TYPE, MEM_TYPE );
     1527       17
     1528       18    1   DCL OWNER UBIN WORD;
     1529       19    1   DCL SET_TYPE CHAR(8);
     1530       20    1   DCL OWN_TYPE CHAR(8);
     1531       21    1   DCL MEM_TYPE CHAR(8);
     1532       22    1   DCL MOVE_MEM UBIN WORD;
     1533       23    1   DCL NEW_MEM UBIN WORD;
     1534       24    1   DCL NEXT_MEM UBIN WORD;
     1535       25        %INCLUDE ZI_SUB4_CAN;
     1536      682         %UWA;
     1537     1017        %INCLUDE ZIG_DBA_INT;
     1538     1065
     1539     1066    1       CALL FCURR_R_6( MEM_TYPE );
     1540     1067    1       NEW_MEM = UWA.DIRECT_REF;
     1541     1068    1       CALL FINDD_6( OWN_TYPE, OWNER );
     1542     1069    1       CALL FETCHNS_6( SET_TYPE );
     1543     1070    1       NEXT_MEM = 0;
     1544     1071
     1545     1072    2       DO WHILE ( UWA.DB_STATUS ~= '0502100' ) AND ( NEXT_MEM ~= NEW_MEM ) ;
     1546     1073    2           MOVE_MEM = UWA.DIRECT_REF;
     1547     1074    2           CALL FINDNS_6( SET_TYPE );
PL6.E3A0      #002=MOVE_TO_FIRST_POS File=ZIG$D_PAS2.:ZIC0TSI                    FRI 09/05/97 12:00 Page:284
     1548     1075    2           NEXT_MEM = UWA.DIRECT_REF;
     1549     1076    2           CALL FINDD_6( MEM_TYPE, MOVE_MEM );
     1550     1077    2           CALL MODIFYMEM_6( MEM_TYPE );
     1551     1078    2           CALL FETCHD_6( MEM_TYPE, NEXT_MEM );
     1552     1079    2           END;
     1553     1080
     1554     1081    1   END MOVE_TO_FIRST_POS;

PL6.E3A0      #002=MOVE_TO_FIRST_POS File=ZIG$D_PAS2.:ZIC0TSI                    FRI 09/05/97 12:00 Page:285
--  Include file information  --

   ZIG_DBA_INT.:ZIC0TOU  cannot be made into a system file and is referenced.
   ZI_SUB4_CAN.:ZIC0TOU  is referenced.
   B$JIT_C.:E05TOU  was found in the system file and is never referenced.
   CP_6_C.:E05TOU  was found in the system file and is never referenced.
      No diagnostics issued in procedure MOVE_TO_FIRST_POS.

   Procedure MOVE_TO_FIRST_POS requires 57 words for executable code.
   Procedure MOVE_TO_FIRST_POS requires 12 words of local(AUTO) storage.

    No errors detected in file ZIG$D_PAS2.:ZIC0TSI    .

PL6.E3A0      #002=MOVE_TO_FIRST_POS File=ZIG$D_PAS2.:ZIC0TSI                    FRI 09/05/97 12:00 Page:286

 Object Unit name= MOVE_TO_FIRST_POS                          File name= ZIG$D_PAS2.:ZIC0TOU
 UTS= SEP 05 '97 12:00:51.44 FRI                              Compiler= PL-6/E31         Sev=      00
 SharedLib= :SHARED_SYSTEM                                    Alt SharedLib=


    ****  Control sections  ****

 Sect   Type Bound  Init  Size OctSiz  Section name(segment info)
    0  LblCom even  none   656   1220  UWA
    1  RoData even  UTS      2      2  MOVE_TO_FIRST_POS
    2   Proc  even  none    57     71  MOVE_TO_FIRST_POS
    3  RoData even  none     2      2  MOVE_TO_FIRST_POS

    ****  Entry defs  ****

                              Check   Calling
                             calling  sequence
  Sect OctLoc Primary Altret sequence   type   Parms  Name
     2      0   yes            yes      Std        4  MOVE_TO_FIRST_POS

  ****  Entry refs  ****

         Check        Calling
        calling       sequence
Altret sequence SRef   type   Args  Name
 yes     yes           Std       1 FCURR_R_6
 yes     yes           Std       2 FINDD_6
 yes     yes           Std       2 FETCHD_6
 yes     yes           Std       1 FETCHNS_6
 yes     yes           Std       1 FINDNS_6
 yes     yes           Std       1 MODIFYMEM_6
                       nStd      0 X66_AUTO_4
                       nStd      0 X66_ARET
PL6.E3A0      #002=MOVE_TO_FIRST_POS File=ZIG$D_PAS2.:ZIC0TSI                    FRI 09/05/97 12:00 Page:287


     1511        1        /*T***********************************************************/
     1512        2        /*T*                                                         */
     1513        3        /*T* Copyright (c) Bull HN Information Systems Inc., 1997    */
     1514        4        /*T*                                                         */
     1515        5        /*T***********************************************************/
     1516        6        /*P*
     1517        7        NAME:    MOVE_TO_FIRST_POS
     1518        8        PURPOSE: This routine is called after a new synonomous FR has been
     1519        9                 stored.  The way SCHEMA40 is written causes new FRs to be
     1520       10                 automatically added to the end of the RC-FR chain.  This
     1521       11                 causes an order problem since all synonomous FRs must come
     1522       12                 before any real FRs in the chain.  (If not, parts of DBACS
     1523       13                 die and schemas built in another order are not compatible
     1524       14                 with schemas built in earlier releases of DBACS.)
     1525       15        */
     1526       16        MOVE_TO_FIRST_POS: PROC ( OWNER, SET_TYPE, OWN_TYPE, MEM_TYPE );

     16  2 000000   000000 700200 xent  MOVE_TO_FIR* TSX0  ! X66_AUTO_4
         2 000001   000014 000004                    ZERO    12,4

     1527       17
     1528       18    1   DCL OWNER UBIN WORD;
     1529       19    1   DCL SET_TYPE CHAR(8);
     1530       20    1   DCL OWN_TYPE CHAR(8);
     1531       21    1   DCL MEM_TYPE CHAR(8);
     1532       22    1   DCL MOVE_MEM UBIN WORD;
     1533       23    1   DCL NEW_MEM UBIN WORD;
     1534       24    1   DCL NEXT_MEM UBIN WORD;
     1535       25        %INCLUDE ZI_SUB4_CAN;
     1536      682         %UWA;
     1537     1017        %INCLUDE ZIG_DBA_INT;
     1538     1065
     1539     1066    1       CALL FCURR_R_6( MEM_TYPE );

   1066  2 000002   200006 630500                    EPPR0   @MEM_TYPE,,AUTO
         2 000003   000000 631400 3                  EPPR1   0
PL6.E3A0      #002=MOVE_TO_FIRST_POS File=ZIG$D_PAS2.:ZIC0TSI                    FRI 09/05/97 12:00 Page:288
         2 000004   000000 701000 xent               TSX1    FCURR_R_6
         2 000005   000000 011000                    NOP     0

     1540     1067    1       NEW_MEM = UWA.DIRECT_REF;

   1067  2 000006   000036 235000 0                  LDA     UWA+30
         2 000007   200010 755100                    STA     NEW_MEM,,AUTO

     1541     1068    1       CALL FINDD_6( OWN_TYPE, OWNER );

   1068  2 000010   200003 236100                    LDQ     @OWNER,,AUTO
         2 000011   200005 235100                    LDA     @OWN_TYPE,,AUTO
         2 000012   200012 757100                    STAQ    NEXT_MEM+1,,AUTO
         2 000013   200012 630500                    EPPR0   NEXT_MEM+1,,AUTO
         2 000014   000001 631400 3                  EPPR1   1
         2 000015   000000 701000 xent               TSX1    FINDD_6
         2 000016   000000 011000                    NOP     0

     1542     1069    1       CALL FETCHNS_6( SET_TYPE );

   1069  2 000017   200004 630500                    EPPR0   @SET_TYPE,,AUTO
         2 000020   000000 631400 3                  EPPR1   0
         2 000021   000000 701000 xent               TSX1    FETCHNS_6
         2 000022   000000 011000                    NOP     0

     1543     1070    1       NEXT_MEM = 0;

   1070  2 000023   200011 450100                    STZ     NEXT_MEM,,AUTO

     1544     1071
     1545     1072    2       DO WHILE ( UWA.DB_STATUS ~= '0502100' ) AND ( NEXT_MEM ~= NEW_MEM ) ;

   1072  2 000024   000061 710000 2                  TRA     s:1079

     1546     1073    2           MOVE_MEM = UWA.DIRECT_REF;

   1073  2 000025   000036 235000 0                  LDA     UWA+30
PL6.E3A0      #002=MOVE_TO_FIRST_POS File=ZIG$D_PAS2.:ZIC0TSI                    FRI 09/05/97 12:00 Page:289
         2 000026   200007 755100                    STA     MOVE_MEM,,AUTO

     1547     1074    2           CALL FINDNS_6( SET_TYPE );

   1074  2 000027   200004 630500                    EPPR0   @SET_TYPE,,AUTO
         2 000030   000000 631400 3                  EPPR1   0
         2 000031   000000 701000 xent               TSX1    FINDNS_6
         2 000032   000000 011000                    NOP     0

     1548     1075    2           NEXT_MEM = UWA.DIRECT_REF;

   1075  2 000033   000036 235000 0                  LDA     UWA+30
         2 000034   200011 755100                    STA     NEXT_MEM,,AUTO

     1549     1076    2           CALL FINDD_6( MEM_TYPE, MOVE_MEM );

   1076  2 000035   200007 630500                    EPPR0   MOVE_MEM,,AUTO
         2 000036   200013 450500                    STP0    NEXT_MEM+2,,AUTO
         2 000037   200006 236100                    LDQ     @MEM_TYPE,,AUTO
         2 000040   200012 756100                    STQ     NEXT_MEM+1,,AUTO
         2 000041   200012 630500                    EPPR0   NEXT_MEM+1,,AUTO
         2 000042   000001 631400 3                  EPPR1   1
         2 000043   000000 701000 xent               TSX1    FINDD_6
         2 000044   000000 011000                    NOP     0

     1550     1077    2           CALL MODIFYMEM_6( MEM_TYPE );

   1077  2 000045   200006 630500                    EPPR0   @MEM_TYPE,,AUTO
         2 000046   000000 631400 3                  EPPR1   0
         2 000047   000000 701000 xent               TSX1    MODIFYMEM_6
         2 000050   000000 011000                    NOP     0

     1551     1078    2           CALL FETCHD_6( MEM_TYPE, NEXT_MEM );

   1078  2 000051   200011 630500                    EPPR0   NEXT_MEM,,AUTO
         2 000052   200013 450500                    STP0    NEXT_MEM+2,,AUTO
         2 000053   200006 236100                    LDQ     @MEM_TYPE,,AUTO
PL6.E3A0      #002=MOVE_TO_FIRST_POS File=ZIG$D_PAS2.:ZIC0TSI                    FRI 09/05/97 12:00 Page:290
         2 000054   200012 756100                    STQ     NEXT_MEM+1,,AUTO
         2 000055   200012 630500                    EPPR0   NEXT_MEM+1,,AUTO
         2 000056   000001 631400 3                  EPPR1   1
         2 000057   000000 701000 xent               TSX1    FETCHD_6
         2 000060   000000 011000                    NOP     0

     1552     1079    2           END;

   1079  2 000061   040000 106400                    CMPC    fill='040'O
         2 000062   000001 000007 0                  ADSC9   UWA+1                    cn=0,n=7
         2 000063   000000 000007 1                  ADSC9   0                        cn=0,n=7
         2 000064   000070 600000 2                  TZE     s:1081
         2 000065   200011 236100                    LDQ     NEXT_MEM,,AUTO
         2 000066   200010 116100                    CMPQ    NEW_MEM,,AUTO
         2 000067   000025 601000 2                  TNZ     s:1073

     1553     1080
     1554     1081    1   END MOVE_TO_FIRST_POS;

   1081  2 000070   000000 702200 xent               TSX2  ! X66_ARET

UWA
 Sect OctLoc
   0     000   000000 000000   040040 040040   040040 040040   040040 040040    ....
   0     004   040040 040040   040040 040040   040040 040040   040040 040040
   0     010   040040 040040   040040 040040   040040 000000   040040 040040              ..
   0     014   040040 040040   040040 040040   040040 040040   040040 040040
   0     020   040040 040040   040040 040040   040040 000000   040040 040040              ..
   0     024   040040 040040   040040 040040   040040 040040   040040 040040
   0     030   040040 040040   040040 040040   040040 000000   040040 040040              ..
   0     034   040040 040040   040040 040040   000000 000000   040040 040040            ....
   0     040   040040 040040   040040 040040   040040 040040   040040 040040
   0     044   040040 040040   040040 040040   040040 000000   040040 040040              ..
   0     050   040040 040040   040040 040040   040040 040040   040040 040040
   0     054   040040 040040   040040 040040   040040 000000   000000 000000              ......
   0     060   040040 040040   040*** ******   000000 000000   000000 000000         ...........
   0     064   000000 000000   000000 000000   040040 040040   040040 040040    ........
PL6.E3A0      #002=MOVE_TO_FIRST_POS File=ZIG$D_PAS2.:ZIC0TSI                    FRI 09/05/97 12:00 Page:291
   0     070   040040 040040   040040 040040   040040 040040   040040 040040
   0     100*  040040 ******   000000 000000   040040 040040   040040 040040      ......
   0     104   040040 040040   040040 040040   040040 040040   040040 040040
   0     124*  040040 040040   040040 040040   000000 000000   040040 040040            ....
   0     130   040040 040040   040040 040040   040040 040040   040040 040040
   0     134   040040 040040   040040 040040   040040 ******   000000 000000              ......
   0     140   040040 040040   040040 040040   040040 040040   040040 040040
   0     144   040040 040040   040040 040040   000000 000000   000000 000000            ........
   0     150   000000 000000   000000 000000   000000 000000   000000 000000    ................
   0     154   040040 040040   040040 040040   040040 040040   040040 040040
   0     160   040040 040040   040040 040040   040040 040040   040040 ******                  ..
   0     164   000000 000000   ****** ******   000000 000000   000000 000000    ................
   0     170   000000 000000   040040 040040   040040 040040   040040 040040    ....
   0     174   040040 040040   040040 040040   040040 040040   040040 040040
   0     210*  040040 040040   040040 040040   040040 040040   ****** ******                ....
   0     214   000000 000000   000000 000000   000000 000000   000000 000000    ................
   0     224*  000000 000000   000000 000000   000000 000000   040040 ******    ............  ..
   0     230   000000 000000   ****** ******   000000 000000   040040 040040    ............
   0     234   000000 000000   000000 000000   000000 000000   000000 000000    ................
   0     264*  000000 000000   000000 000000   000000 000000   ****** ******    ................
   0     270   000000 000000   000000 000000   000000 000000   000000 000000    ................
   0     324*  000000 000000   ****** ******   000000 000000   000000 000000    ................
   0     330   000000 000000   000000 000000   000000 000000   000000 000000    ................
   0     350*  000000 000000   000000 000000   000000 000000   ****** ******    ................
   0     360*  000000 000000   000000 000000   000000 000000   000000 000000    ................
   0     404*  000000 000000   ****** ******   000000 000000   000000 000000    ................
   0     410   000000 000000   000000 000000   000000 000000   000000 000000    ................
   0     424*  000000 000000   000000 000000   000000 000000   040040 040040    ............
   0     430   040040 040040   040040 040040   040040 040040   040040 040040
   0     434   040040 040040   040040 040040   040040 ******   ****** ******              ......
   0     440   040040 040040   040040 040040   040040 040040   040040 040040
   0     450*  040040 040040   040040 040040   040040 ******   ****** ******              ......
   0     454   000000 000000   040040 040040   040040 040040   040040 040040    ....
   0     460   040040 040040   040040 040040   040040 040040   040040 040040
   0     464   040040 ******   ****** ******   000000 000000   000000 000000      ..............
   0     470   000000 000000   000000 000000   000000 000000   000000 000000    ................
   0     474   000000 000000   ****** ******   000000 000000   000000 000000    ................
PL6.E3A0      #002=MOVE_TO_FIRST_POS File=ZIG$D_PAS2.:ZIC0TSI                    FRI 09/05/97 12:00 Page:292
   0     500   000000 000000   000000 000000   040040 040040   040040 040040    ........
   0     504   040040 040040   040040 040040   040040 040040   040040 040040
   0     520*  040040 040040   ****** ******   000000 000000   000000 000000        ............
   0     524   040040 040040   040040 040040   040040 040040   040040 040040
   0     574*  000000 000000   000000 000000   000000 000000   000000 000000    ................
   0     600   000000 000000   000000 000000   000000 000000   ****** ******    ................
   0     604   000000 000000   000000 000000   000000 000000   000000 000000    ................
   0     610   000000 000000   000000 000000   040040 040040   040040 040040    ........
   0     614   040040 040040   040040 040040   040040 040040   040040 040040
   0     620   040040 040040   040040 ******   040040 040040   040040 040040          ..
   0     624   040040 040040   040040 040040   040040 040040   040040 040040
   0     660*  040040 040040   040040 040040   040040 040040   ****** ******                ....
   0     664   040040 040040   040040 040040   040040 040040   040040 040040
   0     674*  040040 040040   ****** ******   040040 040040   040040 040040        ....
   0     700   040040 040040   040040 040040   040040 040040   040040 040040
   0     710*  040040 040040   ****** ******   040040 040040   040040 040040        ....
   0     714   040040 040040   040040 040040   040040 040040   040040 040040
   0     720   040040 040040   040040 040040   040040 040040   ****** ******                ....
   0     724   040040 040040   040040 040040   040040 040040   040040 040040
   0     740*  040040 040040   ****** ******   040040 040040   040040 040040        ....
   0     744   040040 040040   040040 040040   040040 040040   040040 040040
   0     774*  040040 040040   ****** ******   040040 040040   040040 040040        ....
   0    1000   040040 040040   040040 040040   040040 040040   040040 040040
   0    1034*  040040 040040   ****** ******   040040 040040   040040 040040        ....
   0    1040   040040 040040   040040 040040   040040 040040   040040 040040
   0    1060*  040040 040040   ****** ******   040040 040040   040040 040040        ....
   0    1064   040040 040040   040040 040040   040040 040040   040040 040040
   0    1114*  040040 040040   ****** ******   040040 040040   040040 040040        ....
   0    1120   040040 040040   040040 040040   040040 040040   040040 040040
   0    1134*  040040 040040   040040 040040   040040 040040   ****** ******                ....
   0    1140   040040 040040   040040 040040   040040 040040   040040 040040
   0    1144   040040 040040   ****** ******   040040 040040   040040 040040        ....
   0    1150   040040 040040   040040 040040   040040 040040   ****** ******                ....
   0    1154   040040 040040   040040 040040   040040 040040   040040 040040
   0    1160   040040 040040   ****** ******   040040 040040   040040 040040        ....
   0    1164   040040 040040   040040 040040   040040 040040   ****** ******                ....
   0    1170   040040 040040   040040 040040   040040 040040   040040 040040
PL6.E3A0      #002=MOVE_TO_FIRST_POS File=ZIG$D_PAS2.:ZIC0TSI                    FRI 09/05/97 12:00 Page:293
   0    1200*  040040 040040   040040 040040   040040 040040   ****** ******                ....
   0    1204   040040 040040   040040 040040   040040 040040   040040 040040
   0    1214*  040040 040040   040040 040040   040040 040040   040040 040040

(unnamed)
 Sect OctLoc
   1     000   060065 060062   061060 060040                                    0502100

(unnamed)
 Sect OctLoc
   3     000   000001 000000   000002 000000                                    ........

PL6.E3A0      #002=MOVE_TO_FIRST_POS File=ZIG$D_PAS2.:ZIC0TSI                    FRI 09/05/97 12:00 Page:294
--  Include file information  --

   ZIG_DBA_INT.:ZIC0TOU  cannot be made into a system file and is referenced.
   ZI_SUB4_CAN.:ZIC0TOU  is referenced.
   B$JIT_C.:E05TOU  was found in the system file and is never referenced.
   CP_6_C.:E05TOU  was found in the system file and is never referenced.
      No diagnostics issued in procedure MOVE_TO_FIRST_POS.

   Procedure MOVE_TO_FIRST_POS requires 57 words for executable code.
   Procedure MOVE_TO_FIRST_POS requires 12 words of local(AUTO) storage.

    No errors detected in file ZIG$D_PAS2.:ZIC0TSI    .
PL6.E3A0      #002=MOVE_TO_FIRST_POS File=ZIG$D_PAS2.:ZIC0TSI                    FRI 09/05/97 12:00 Page:295
          *** CROSS REFERENCE LISTING ***
**     DENOTES     IDENTIFIER DEFINITION
<<                 IDENTIFIER'S VALUE SET
>>                 IDENTIFIER'S VALUE USED
<>                 IDENTIFIER SET AND/OR USED
--                 IDENTIFIER REFERENCED
PL6.E3A0      #002=MOVE_TO_FIRST_POS File=ZIG$D_PAS2.:ZIC0TSI                    FRI 09/05/97 12:00 Page:296
          MINI XREF LISTING

FCURR_R_6
      1029**DCL-ENT  1066--CALL
FETCHD_6
      1027**DCL-ENT  1078--CALL
FETCHNS_6
      1032**DCL-ENT  1069--CALL
FINDD_6
      1028**DCL-ENT  1068--CALL     1076--CALL
FINDNS_6
      1031**DCL-ENT  1074--CALL
MEM_TYPE
        21**DCL        16--PROC     1066<>CALL     1076<>CALL     1077<>CALL     1078<>CALL
MODIFYMEM_6
      1043**DCL-ENT  1077--CALL
MOVE_MEM
        22**DCL      1073<<ASSIGN   1076<>CALL
NEW_MEM
        23**DCL      1067<<ASSIGN   1072>>DOWHILE
NEXT_MEM
        24**DCL      1070<<ASSIGN   1072>>DOWHILE  1075<<ASSIGN   1078<>CALL
OWNER
        18**DCL        16--PROC     1068<>CALL
OWN_TYPE
        20**DCL        16--PROC     1068<>CALL
SET_TYPE
        19**DCL        16--PROC     1069<>CALL     1074<>CALL
UWA.AC.CALC_NEXT
       793**DCL       794--REDEF
UWA.AC.CALC_PRIOR
       802**DCL       803--REDEF
UWA.AC.DEFAULTS
       754**DCL       755--REDEF
PL6.E3A0      #002=MOVE_TO_FIRST_POS File=ZIG$D_PAS2.:ZIC0TSI                    FRI 09/05/97 12:00 Page:297
UWA.AC.FILE_CODE
       759**DCL       760--REDEF
UWA.AC.FLAG1.ERROR_TYPE
       756**DCL       757--REDEF
UWA.DB_STATUS
       685**DCL      1072>>DOWHILE
UWA.DIRECT_REF
       694**DCL      1067>>ASSIGN   1073>>ASSIGN   1075>>ASSIGN
