
PL6.E3A0      #001=ZIG$D_READ File=ZIG$D_READ.:ZIC0TSI                           FRI 09/05/97 12:02 Page:1
        1        1        /*M*     ZIG$D_READ       I-D-S/II  DBACS DDL DIRECTIVE READER */
        2        2        /*T***********************************************************/
        3        3        /*T*                                                         */
        4        4        /*T* Copyright (c) Bull HN Information Systems Inc., 1997    */
        5        5        /*T*                                                         */
        6        6        /*T***********************************************************/
        7        7        /*P*
        8        8        NAME:    ZIG$D_READ
        9        9        PURPOSE: TO GET A LINE FOR THE PARSER OF DBACS DIRECTIVES
       10       10                 AND STORE THEM IN A BUFFER
       11       11            CALLING PROGRAMS         SUBROUTINE NAMES
       12       12            ----------------         ----------------
       13       13                 ZIG$D_PSET               ZIG$D_PSET
       14       14                 ZIG$D_PDRI               ZIG$D_PDRI
       15       15        */
       16       16        ZIG$D_READ:
       17       17            PROC ;
       18       18    1   DCL RDWORD BIT (1) EXT;
       19       19    1   DCL ZIG$DDS5 ENTRY;
       20       20    1   DCL REC CHAR (80) EXT;
       21       21    1   DCL REC1 CHAR (80) EXT;
       22       22    1   DCL EOFFLG UBIN (36) EXT;
       23       23    1   DCL LINE_COUNT UBIN (36) EXT;
       24       24    1   DCL SAVESW BIT (1) EXT;
       25       25    1   DCL NUM_CHAR_READ UBIN (36) EXT;
       26       26    1   DCL LINE CHAR (4000) EXT;
       27       27    1   DCL LAST_COUNT UBIN (36) SYMREF;
       28       28    1   DCL LIST_STRING CHAR(128) EXT;
       29       29    1   DCL ZIG$COMP ENTRY (3); /* Put out a compressed record */
       30       30    1   DCL FOUND_PER BIT (1) SYMREF;
       31       31    1   DCL PUT_OUT_LINE ENTRY(2); /* Put out a record to M$LO */
       32       32    1   DCL INIT1 BIT (1);
       33       33    1   DCL NCS UBIN (36) EXT;
       34       34    1   DCL I UBIN (36);
       35       35    1   DCL K UBIN (36);
       36       36    1   DCL SAVE_I UBIN (36);
       37       37    1   DCL L UBIN WORD;
PL6.E3A0      #001=ZIG$D_READ File=ZIG$D_READ.:ZIC0TSI                           FRI 09/05/97 12:02 Page:2
       38       38    1   DCL END_DDL BIT (1) EXT;
       39       39    1   DCL DONE BIT (1);
       40       40    1   DCL ZIG$D_DIAG ENTRY (3);
       41       41        %EQU WARN_SEV = 1;
       42       42         %EJECT;
PL6.E3A0      #001=ZIG$D_READ File=ZIG$D_READ.:ZIC0TSI                           FRI 09/05/97 12:02 Page:3
       43       43         %INCLUDE XU_MACRO_C;
       44     3149         %INCLUDE ZI_ERRORS_SUBS;
       45     3669         %P$PCB(NAME=DDL_P, STCLASS = "SYMREF");
       46     3870         %INCLUDE ZIG_GENERAL;
       47     3978         %EJECT;
PL6.E3A0      #001=ZIG$D_READ File=ZIG$D_READ.:ZIC0TSI                           FRI 09/05/97 12:02 Page:4
       48     3979    1   NEXT_REC: PROC;
       49     3980    2       CALL ZIG$DDS5; /* Get a record */
       50     3981    2       CALL PUT_OUT_LINE(LINE_COUNT,REC);
       51     3982    2       LINE_COUNT=LINE_COUNT+1;
       52     3983    2       REC1=REC;
       53     3984    2       CALL ZIG$COMP(NUM_CHAR_READ,'DD  ',REC1);
       54     3985    2   END;
       55     3986        /*****
       56     3987                 Find then number of characters read in the last
       57     3988                 read done by exread.
       58     3989        ******/
       59     3990    1   RESTART:
       60     3991    1       CALL NEXT_REC;
       61     3992    1       IF NCS=1
       62     3993    2       THEN DO;
       63     3994    2           RDWORD='0'B;
       64     3995    2           SAVESW='1'B;
       65     3996    2           CALL ZIG$D_DIAG(LINE_COUNT - 2,%WARN_SEV,2185); /* No END_DDL */
       66     3997        /*E*     ERROR:    ZIG-2185-C
       67     3998        MESSAGE: No END_DDL found at the end of the DDL text.
       68     3999        */
       69     4000    2           END_DDL='1'B;
       70     4001    2           RETURN;
       71     4002    2           END;
       72     4003    1       L = 0;
       73     4004    1       CALL INDEX1(I,';',REC1,L);
       74     4005    2       DO WHILE (I ~= LENGTHC(REC1));
       75     4006    2           CALL INSERT(REC1,I,1,' ');
       76     4007    2           L = I;
       77     4008    2           CALL INDEX1(I,';',REC1,L);
       78     4009    2           END;
       79     4010    1       I=0;
       80     4011    1       CALL INDEX(I,'COMMENT"',REC1) ALTRET(NO_COMMENT);
       81     4012    1       SAVE_I = I;
       82     4013    1       DONE='0'B;
       83     4014    1       I=I+7;
       84     4015    2       DO WHILE (SUBSTR(REC1,I,1)~='"'&~DONE);
PL6.E3A0      #001=ZIG$D_READ File=ZIG$D_READ.:ZIC0TSI                           FRI 09/05/97 12:02 Page:5
       85     4016    2           IF SUBSTR(REC1,I,1)~=' '
       86     4017    3           THEN DO;
       87     4018    3               I=0;
       88     4019    3               DONE='1'B;
       89     4020    3               END;
       90     4021    3           ELSE DO;
       91     4022    3               I=I+1;
       92     4023    3               IF I>NUM_CHAR_READ
       93     4024    4               THEN DO;
       94     4025    4                   CALL NEXT_REC;
       95     4026    4                   I=0;
       96     4027    4                   SAVE_I = 0;
       97     4028    4                   END;
       98     4029    3               END;
       99     4030    2           END;
      100     4031    1       I=I+1;
      101     4032    2       DO WHILE(SUBSTR(REC1,I,1)~='"'&~DONE);
      102     4033    2           I=I+1;
      103     4034    2           IF I>NUM_CHAR_READ
      104     4035    3           THEN DO;
      105     4036    3               CALL NEXT_REC;
      106     4037    3               I=0;
      107     4038    3               SAVE_I = 0;
      108     4039    3               END;
      109     4040    3           DO WHILE (SUBSTR(REC1,I,2)='""');
      110     4041    3               I=I+2;
      111     4042    3               END;
      112     4043    2           END;
      113     4044    1       IF ~DONE
      114     4045    2       THEN DO;
      115     4046    2           CALL CONCAT(REC1,SUBSTR(REC1,0,SAVE_I),SUBSTR(REC1,I));
      116     4047    2           NUM_CHAR_READ=NUM_CHAR_READ - I + SAVE_I;
      117     4048    2           END;
      118     4049    1   NO_COMMENT:
      119     4050    1       IF REC1 = ' '
      120     4051    1       THEN GOTO RESTART;
      121     4052        /*
PL6.E3A0      #001=ZIG$D_READ File=ZIG$D_READ.:ZIC0TSI                           FRI 09/05/97 12:02 Page:6
      122     4053              Goto easy way out.
      123     4054        */
      124     4055    1       LAST_COUNT = DDL_P.NCHARS;
      125     4056    1       I = NUM_CHAR_READ-1;
      126     4057        /*********
      127     4058        	scan from back of record to find the first non
      128     4059        	blank CHARACTER.(FIND the end of the record).
      129     4060        **********/
      130     4061    1       CALL SEARCHR(I,K,SEARCHR_NB,REC1);
      131     4062    1       CALL INSERT(LINE,DDL_P.NCHARS,I+2,SUBSTR(REC1,0,I+1),' ');
      132     4063    1       DDL_P.NCHARS = DDL_P.NCHARS + I + 1;
      133     4064        /********
      134     4065        	don't add a ';' if this is the end of the directive.
      135     4066        *********/
      136     4067    1       FOUND_PER='0'B;
      137     4068    1       CALL INDEX2R(K,'. ',REC) ALTRET (NO_PERIOD);
      138     4069    1       IF K > I-2
      139     4070    2       THEN DO;
      140     4071    2           FOUND_PER = '1'B;
      141     4072    2           END;
      142     4073    1   NO_PERIOD:
      143     4074    1       IF ~FOUND_PER
      144     4075    2       THEN DO;
      145     4076    2           CALL INSERT(LINE,DDL_P.NCHARS,3,'  ;');
      146     4077    2           DDL_P.NCHARS=DDL_P.NCHARS + 3;
      147     4078    2           END;
      148     4079        /*********
      149     4080        	replace all ';' with '%' so that X$PARSE doesn't
      150     4081        	think that what is in '"' is a comment and skips
      151     4082        	over it.
      152     4083        *********/
      153     4084    1   END ZIG$D_READ;

PL6.E3A0      #001=ZIG$D_READ File=ZIG$D_READ.:ZIC0TSI                           FRI 09/05/97 12:02 Page:7
--  Include file information  --

   ZIG_GENERAL.:ZIC0TOU  cannot be made into a system file and is referenced.
   ZI_ERRORS_SUBS.:ZIC0TOU  is referenced.
   XU_MACRO_C.:LIB_E05  is referenced.
   B$JIT_C.:E05TOU  was found in the system file and is never referenced.
   CP_6_C.:E05TOU  was found in the system file and is never referenced.
      No diagnostics issued in procedure ZIG$D_READ.

   Procedure ZIG$D_READ requires 250 words for executable code.
   Procedure ZIG$D_READ requires 16 words of local(AUTO) storage.

    No errors detected in file ZIG$D_READ.:ZIC0TSI    .

PL6.E3A0      #001=ZIG$D_READ File=ZIG$D_READ.:ZIC0TSI                           FRI 09/05/97 12:02 Page:8

 Object Unit name= ZIG$D_READ                                 File name= ZIG$D_READ.:ZIC0TOU
 UTS= SEP 05 '97 12:02:34.28 FRI                              Compiler= PL-6/E31         Sev=      00
 SharedLib= :SHARED_SYSTEM                                    Alt SharedLib=


    ****  Control sections  ****

 Sect   Type Bound  Init  Size OctSiz  Section name(segment info)
    0  LblCom even  none     1      1  RDWORD
    1  LblCom even  none    20     24  REC
    2  LblCom even  none    20     24  REC1
    3  LblCom even  none     1      1  EOFFLG
    4  LblCom even  none     1      1  LINE_COUNT
    5  LblCom even  none     1      1  SAVESW
    6  LblCom even  none     1      1  NUM_CHAR_READ
    7  LblCom even  none  1000   1750  LINE
    8  LblCom even  none    32     40  LIST_STRING
    9  LblCom even  none     1      1  NCS
   10  LblCom even  none     1      1  END_DDL
   11  LblCom even  none     1      1  NUM_ERROR_MSG
   12  LblCom even  none     1      1  NUM_WARN_MSG
   13  LblCom even  none     1      1  ALLOCATE_END
   14  LblCom even  none     2      2  SUBSCHEMA_KEY
   15  LblCom even  none     1      1  BUFFER$
   16  LblCom even  none     1      1  ERROR_IO
   17  LblCom even  none     1      1  BUFFER_LEN
   18  LblCom even  none     2      2  UWA_KEY
   19  LblCom even  none     1      1  NEXT_UWA_SECOND_HALF
   20  LblCom even  none     2      2  RVA_KEY
   21  LblCom even  none     2      2  IA__KEY
   22  LblCom even  none     1      1  NEXT_RVA_SECOND_HALF
   23  LblCom even  none    32     40  SEARCHR_NB
   24  LblCom even  none    32     40  SEM_COM
   25  LblCom even  none    32     40  DMCL_XLATE
   26  LblCom even  none    32     40  Q2_PERCENT
   27  RoData even  UTS      6      6  ZIG$D_READ
   28   Proc  even  none   250    372  ZIG$D_READ
PL6.E3A0      #001=ZIG$D_READ File=ZIG$D_READ.:ZIC0TSI                           FRI 09/05/97 12:02 Page:9
   29  RoData even  none    16     20  ZIG$D_READ

    ****  Entry defs  ****

                              Check   Calling
                             calling  sequence
  Sect OctLoc Primary Altret sequence   type   Parms  Name
    28      0   yes            yes      Std        0  ZIG$D_READ

  ****  Entry refs  ****

         Check        Calling
        calling       sequence
Altret sequence SRef   type   Args  Name
         yes           Std       3 ZIG$D_DIAG
         yes           Std       0 ZIG$DDS5
         yes           Std       2 PUT_OUT_LINE
         yes           Std       3 ZIG$COMP
                       nStd      0 X66_AUTO_0
                       nStd      0 X66_ARET
                       nStd      0 X66_INDEX

  ****  Data refs  ****

  Flags:  r = read only, s = secondary
Flgs Name                             Flgs Name                             Flgs Name
     LAST_COUNT                            FOUND_PER                             DDL_P

  ****  Segment refs  ****

  Flags:  r = read only, s = secondary
Flgs Name                             Flgs Name                             Flgs Name
     ISSID
PL6.E3A0      #001=ZIG$D_READ File=ZIG$D_READ.:ZIC0TSI                           FRI 09/05/97 12:02 Page:10


        1        1        /*M*     ZIG$D_READ       I-D-S/II  DBACS DDL DIRECTIVE READER */
        2        2        /*T***********************************************************/
        3        3        /*T*                                                         */
        4        4        /*T* Copyright (c) Bull HN Information Systems Inc., 1997    */
        5        5        /*T*                                                         */
        6        6        /*T***********************************************************/
        7        7        /*P*
        8        8        NAME:    ZIG$D_READ
        9        9        PURPOSE: TO GET A LINE FOR THE PARSER OF DBACS DIRECTIVES
       10       10                 AND STORE THEM IN A BUFFER
       11       11            CALLING PROGRAMS         SUBROUTINE NAMES
       12       12            ----------------         ----------------
       13       13                 ZIG$D_PSET               ZIG$D_PSET
       14       14                 ZIG$D_PDRI               ZIG$D_PDRI
       15       15        */
       16       16        ZIG$D_READ:
       17       17            PROC ;

     17 28 000000   000000 700200 xent  ZIG$D_READ   TSX0  ! X66_AUTO_0
        28 000001   000020 000000                    ZERO    16,0
        28 000002   000027 710000 28                 TRA     RESTART

       18       18    1   DCL RDWORD BIT (1) EXT;
       19       19    1   DCL ZIG$DDS5 ENTRY;
       20       20    1   DCL REC CHAR (80) EXT;
       21       21    1   DCL REC1 CHAR (80) EXT;
       22       22    1   DCL EOFFLG UBIN (36) EXT;
       23       23    1   DCL LINE_COUNT UBIN (36) EXT;
       24       24    1   DCL SAVESW BIT (1) EXT;
       25       25    1   DCL NUM_CHAR_READ UBIN (36) EXT;
       26       26    1   DCL LINE CHAR (4000) EXT;
       27       27    1   DCL LAST_COUNT UBIN (36) SYMREF;
       28       28    1   DCL LIST_STRING CHAR(128) EXT;
       29       29    1   DCL ZIG$COMP ENTRY (3); /* Put out a compressed record */
       30       30    1   DCL FOUND_PER BIT (1) SYMREF;
       31       31    1   DCL PUT_OUT_LINE ENTRY(2); /* Put out a record to M$LO */
PL6.E3A0      #001=ZIG$D_READ File=ZIG$D_READ.:ZIC0TSI                           FRI 09/05/97 12:02 Page:11
       32       32    1   DCL INIT1 BIT (1);
       33       33    1   DCL NCS UBIN (36) EXT;
       34       34    1   DCL I UBIN (36);
       35       35    1   DCL K UBIN (36);
       36       36    1   DCL SAVE_I UBIN (36);
       37       37    1   DCL L UBIN WORD;
       38       38    1   DCL END_DDL BIT (1) EXT;
       39       39    1   DCL DONE BIT (1);
       40       40    1   DCL ZIG$D_DIAG ENTRY (3);
       41       41        %EQU WARN_SEV = 1;
       42       42         %EJECT;
PL6.E3A0      #001=ZIG$D_READ File=ZIG$D_READ.:ZIC0TSI                           FRI 09/05/97 12:02 Page:12
       43       43         %INCLUDE XU_MACRO_C;
       44     3149         %INCLUDE ZI_ERRORS_SUBS;
       45     3669         %P$PCB(NAME=DDL_P, STCLASS = "SYMREF");
       46     3870         %INCLUDE ZIG_GENERAL;
       47     3978         %EJECT;
PL6.E3A0      #001=ZIG$D_READ File=ZIG$D_READ.:ZIC0TSI                           FRI 09/05/97 12:02 Page:13
       48     3979    1   NEXT_REC: PROC;

   3979 28 000003   200012 741300       NEXT_REC     STX1  ! DONE+2,,AUTO

       49     3980    2       CALL ZIG$DDS5; /* Get a record */

   3980 28 000004   000000 631400 29                 EPPR1   0
        28 000005   000000 701000 xent               TSX1    ZIG$DDS5
        28 000006   000000 011000                    NOP     0

       50     3981    2       CALL PUT_OUT_LINE(LINE_COUNT,REC);

   3981 28 000007   000002 630400 29                 EPPR0   2
        28 000010   000001 631400 29                 EPPR1   1
        28 000011   000000 701000 xent               TSX1    PUT_OUT_LINE
        28 000012   000000 011000                    NOP     0

       51     3982    2       LINE_COUNT=LINE_COUNT+1;

   3982 28 000013   000000 235000 4                  LDA     LINE_COUNT
        28 000014   000001 035007                    ADLA    1,DL
        28 000015   000000 755000 4                  STA     LINE_COUNT

       52     3983    2       REC1=REC;

   3983 28 000016   040000 100400                    MLR     fill='040'O
        28 000017   000000 000120 1                  ADSC9   REC                      cn=0,n=80
        28 000020   000000 000120 2                  ADSC9   REC1                     cn=0,n=80

       53     3984    2       CALL ZIG$COMP(NUM_CHAR_READ,'DD  ',REC1);

   3984 28 000021   000005 630400 29                 EPPR0   5
        28 000022   000004 631400 29                 EPPR1   4
        28 000023   000000 701000 xent               TSX1    ZIG$COMP
        28 000024   000000 011000                    NOP     0

       54     3985    2   END;
PL6.E3A0      #001=ZIG$D_READ File=ZIG$D_READ.:ZIC0TSI                           FRI 09/05/97 12:02 Page:14

   3985 28 000025   200012 221300                    LDX1  ! DONE+2,,AUTO
        28 000026   000001 702211                    TSX2  ! 1,X1

       55     3986        /*****
       56     3987                 Find then number of characters read in the last
       57     3988                 read done by exread.
       58     3989        ******/
       59     3990    1   RESTART:
       60     3991    1       CALL NEXT_REC;

   3991 28 000027   000003 701000 28    RESTART      TSX1    NEXT_REC
        28 000030   000000 011000                    NOP     0

       61     3992    1       IF NCS=1

   3992 28 000031   000000 235000 9                  LDA     NCS
        28 000032   000001 115007                    CMPA    1,DL
        28 000033   000055 601000 28                 TNZ     s:4003

       62     3993    2       THEN DO;

       63     3994    2           RDWORD='0'B;

   3994 28 000034   000000 450000 0                  STZ     RDWORD

       64     3995    2           SAVESW='1'B;

   3995 28 000035   400000 236003                    LDQ     -131072,DU
        28 000036   000000 756000 5                  STQ     SAVESW

       65     3996    2           CALL ZIG$D_DIAG(LINE_COUNT - 2,%WARN_SEV,2185); /* No END_DDL */

   3996 28 000037   000000 235000 4                  LDA     LINE_COUNT
        28 000040   000002 135007                    SBLA    2,DL
        28 000041   200014 755100                    STA     DONE+4,,AUTO
        28 000042   000012 237000 29                 LDAQ    10
PL6.E3A0      #001=ZIG$D_READ File=ZIG$D_READ.:ZIC0TSI                           FRI 09/05/97 12:02 Page:15
        28 000043   200016 757100                    STAQ    DONE+6,,AUTO
        28 000044   200014 630500                    EPPR0   DONE+4,,AUTO
        28 000045   200015 450500                    STP0    DONE+5,,AUTO
        28 000046   200015 630500                    EPPR0   DONE+5,,AUTO
        28 000047   000004 631400 29                 EPPR1   4
        28 000050   000000 701000 xent               TSX1    ZIG$D_DIAG
        28 000051   000000 011000                    NOP     0

       66     3997        /*E*     ERROR:    ZIG-2185-C
       67     3998        MESSAGE: No END_DDL found at the end of the DDL text.
       68     3999        */
       69     4000    2           END_DDL='1'B;

   4000 28 000052   400000 236003                    LDQ     -131072,DU
        28 000053   000000 756000 10                 STQ     END_DDL

       70     4001    2           RETURN;

   4001 28 000054   000000 702200 xent               TSX2  ! X66_ARET

       71     4002    2           END;
       72     4003    1       L = 0;

   4003 28 000055   200007 450100                    STZ     L,,AUTO

       73     4004    1       CALL INDEX1(I,';',REC1,L);

   4004 28 000056   200007 720100                    LXL0    L,,AUTO
        28 000057   777657 620010                    EAX0    -81,X0
        28 000060   777777 660003                    ERX0    -1,DU
        28 000061   200007 236100                    LDQ     L,,AUTO
        28 000062   200007 235100                    LDA     L,,AUTO
        28 000063   000000 124445                    SCM     mask='000'O
        28 000064   000000 000010 2                  ADSC9   REC1,A                   cn=0,n=*X0
        28 000065   000014 000001 29                 ADSC9   12                       cn=0,n=1
        28 000066   200004 000100                    ARG     I,,AUTO
        28 000067   200004 056100                    ASQ     I,,AUTO
PL6.E3A0      #001=ZIG$D_READ File=ZIG$D_READ.:ZIC0TSI                           FRI 09/05/97 12:02 Page:16

       74     4005    2       DO WHILE (I ~= LENGTHC(REC1));

   4005 28 000070   000106 710000 28                 TRA     s:4009

       75     4006    2           CALL INSERT(REC1,I,1,' ');

   4006 28 000071   200004 235100                    LDA     I,,AUTO
        28 000072   040005 100400                    MLR     fill='040'O
        28 000073   000015 000001 29                 ADSC9   13                       cn=0,n=1
        28 000074   000000 000001 2                  ADSC9   REC1,A                   cn=0,n=1

       76     4007    2           L = I;

   4007 28 000075   200007 755100                    STA     L,,AUTO

       77     4008    2           CALL INDEX1(I,';',REC1,L);

   4008 28 000076   777657 620005                    EAX0    -81,AL
        28 000077   777777 660003                    ERX0    -1,DU
        28 000100   200007 236100                    LDQ     L,,AUTO
        28 000101   000000 124445                    SCM     mask='000'O
        28 000102   000000 000010 2                  ADSC9   REC1,A                   cn=0,n=*X0
        28 000103   000014 000001 29                 ADSC9   12                       cn=0,n=1
        28 000104   200004 000100                    ARG     I,,AUTO
        28 000105   200004 056100                    ASQ     I,,AUTO

       78     4009    2           END;

   4009 28 000106   200004 236100                    LDQ     I,,AUTO
        28 000107   000120 116007                    CMPQ    80,DL
        28 000110   000071 601000 28                 TNZ     s:4006

       79     4010    1       I=0;

   4010 28 000111   200004 450100                    STZ     I,,AUTO

PL6.E3A0      #001=ZIG$D_READ File=ZIG$D_READ.:ZIC0TSI                           FRI 09/05/97 12:02 Page:17
       80     4011    1       CALL INDEX(I,'COMMENT"',REC1) ALTRET(NO_COMMENT);

   4011 28 000112   200004 631500                    EPPR1   I,,AUTO
        28 000113   000001 633400 27                 EPPR3   1
        28 000114   000010 223003                    LDX3    8,DU
        28 000115   000000 630400 2                  EPPR0   REC1
        28 000116   000120 220003                    LDX0    80,DU
        28 000117   000000 236003                    LDQ     0,DU
        28 000120   000000 701000 xent               TSX1    X66_INDEX
        28 000121   000261 710000 28                 TRA     NO_COMMENT

       81     4012    1       SAVE_I = I;

   4012 28 000122   200004 235100                    LDA     I,,AUTO
        28 000123   200006 755100                    STA     SAVE_I,,AUTO

       82     4013    1       DONE='0'B;

   4013 28 000124   200010 450100                    STZ     DONE,,AUTO

       83     4014    1       I=I+7;

   4014 28 000125   000007 035007                    ADLA    7,DL
        28 000126   200004 755100                    STA     I,,AUTO

       84     4015    2       DO WHILE (SUBSTR(REC1,I,1)~='"'&~DONE);

   4015 28 000127   000152 710000 28                 TRA     s:4030

       85     4016    2           IF SUBSTR(REC1,I,1)~=' '

   4016 28 000130   200004 235100                    LDA     I,,AUTO
        28 000131   040000 106405                    CMPC    fill='040'O
        28 000132   000000 000001 2                  ADSC9   REC1,A                   cn=0,n=1
        28 000133   000015 000001 29                 ADSC9   13                       cn=0,n=1
        28 000134   000141 600000 28                 TZE     s:4022

PL6.E3A0      #001=ZIG$D_READ File=ZIG$D_READ.:ZIC0TSI                           FRI 09/05/97 12:02 Page:18
       86     4017    3           THEN DO;

       87     4018    3               I=0;

   4018 28 000135   200004 450100                    STZ     I,,AUTO

       88     4019    3               DONE='1'B;

   4019 28 000136   400000 236003                    LDQ     -131072,DU
        28 000137   200010 756100                    STQ     DONE,,AUTO

       89     4020    3               END;

   4020 28 000140   000152 710000 28                 TRA     s:4030

       90     4021    3           ELSE DO;

       91     4022    3               I=I+1;

   4022 28 000141   000001 035007                    ADLA    1,DL
        28 000142   200004 755100                    STA     I,,AUTO

       92     4023    3               IF I>NUM_CHAR_READ

   4023 28 000143   000000 236000 6                  LDQ     NUM_CHAR_READ
        28 000144   200004 116100                    CMPQ    I,,AUTO
        28 000145   000152 603000 28                 TRC     s:4030

       93     4024    4               THEN DO;

       94     4025    4                   CALL NEXT_REC;

   4025 28 000146   000003 701000 28                 TSX1    NEXT_REC
        28 000147   000000 011000                    NOP     0

       95     4026    4                   I=0;

PL6.E3A0      #001=ZIG$D_READ File=ZIG$D_READ.:ZIC0TSI                           FRI 09/05/97 12:02 Page:19
   4026 28 000150   200004 450100                    STZ     I,,AUTO

       96     4027    4                   SAVE_I = 0;

   4027 28 000151   200006 450100                    STZ     SAVE_I,,AUTO

       97     4028    4                   END;

       98     4029    3               END;

       99     4030    2           END;

   4030 28 000152   400000 220003                    LDX0    -131072,DU
        28 000153   200004 235100                    LDA     I,,AUTO
        28 000154   040000 106405                    CMPC    fill='040'O
        28 000155   000000 000001 2                  ADSC9   REC1,A                   cn=0,n=1
        28 000156   000016 000001 29                 ADSC9   14                       cn=0,n=1
        28 000157   000161 601000 28                 TNZ     s:4030+7
        28 000160   000000 220003                    LDX0    0,DU
        28 000161   200010 236100                    LDQ     DONE,,AUTO
        28 000162   400000 376003                    ANQ     -131072,DU
        28 000163   400000 676003                    ERQ     -131072,DU
        28 000164   200014 756100                    STQ     DONE+4,,AUTO
        28 000165   000000 636010                    EAQ     0,X0
        28 000166   200014 376100                    ANQ     DONE+4,,AUTO
        28 000167   000130 601000 28                 TNZ     s:4016

      100     4031    1       I=I+1;

   4031 28 000170   000001 035007                    ADLA    1,DL
        28 000171   200004 755100                    STA     I,,AUTO

      101     4032    2       DO WHILE(SUBSTR(REC1,I,1)~='"'&~DONE);

   4032 28 000172   000216 710000 28                 TRA     s:4043

      102     4033    2           I=I+1;
PL6.E3A0      #001=ZIG$D_READ File=ZIG$D_READ.:ZIC0TSI                           FRI 09/05/97 12:02 Page:20

   4033 28 000173   200004 235100                    LDA     I,,AUTO
        28 000174   000001 035007                    ADLA    1,DL
        28 000175   200004 755100                    STA     I,,AUTO

      103     4034    2           IF I>NUM_CHAR_READ

   4034 28 000176   000000 236000 6                  LDQ     NUM_CHAR_READ
        28 000177   200004 116100                    CMPQ    I,,AUTO
        28 000200   000205 603000 28                 TRC     s:4040

      104     4035    3           THEN DO;

      105     4036    3               CALL NEXT_REC;

   4036 28 000201   000003 701000 28                 TSX1    NEXT_REC
        28 000202   000000 011000                    NOP     0

      106     4037    3               I=0;

   4037 28 000203   200004 450100                    STZ     I,,AUTO

      107     4038    3               SAVE_I = 0;

   4038 28 000204   200006 450100                    STZ     SAVE_I,,AUTO

      108     4039    3               END;

      109     4040    3           DO WHILE (SUBSTR(REC1,I,2)='""');

   4040 28 000205   000211 710000 28                 TRA     s:4042

      110     4041    3               I=I+2;

   4041 28 000206   200004 235100                    LDA     I,,AUTO
        28 000207   000002 035007                    ADLA    2,DL
        28 000210   200004 755100                    STA     I,,AUTO
PL6.E3A0      #001=ZIG$D_READ File=ZIG$D_READ.:ZIC0TSI                           FRI 09/05/97 12:02 Page:21

      111     4042    3               END;

   4042 28 000211   200004 235100                    LDA     I,,AUTO
        28 000212   040000 106405                    CMPC    fill='040'O
        28 000213   000000 000002 2                  ADSC9   REC1,A                   cn=0,n=2
        28 000214   000003 000002 27                 ADSC9   3                        cn=0,n=2
        28 000215   000206 600000 28                 TZE     s:4041

      112     4043    2           END;

   4043 28 000216   400000 220003                    LDX0    -131072,DU
        28 000217   040000 106405                    CMPC    fill='040'O
        28 000220   000000 000001 2                  ADSC9   REC1,A                   cn=0,n=1
        28 000221   000016 000001 29                 ADSC9   14                       cn=0,n=1
        28 000222   000224 601000 28                 TNZ     s:4043+6
        28 000223   000000 220003                    LDX0    0,DU
        28 000224   200010 236100                    LDQ     DONE,,AUTO
        28 000225   400000 376003                    ANQ     -131072,DU
        28 000226   400000 676003                    ERQ     -131072,DU
        28 000227   200014 756100                    STQ     DONE+4,,AUTO
        28 000230   000000 636010                    EAQ     0,X0
        28 000231   200014 376100                    ANQ     DONE+4,,AUTO
        28 000232   000173 601000 28                 TNZ     s:4033

      113     4044    1       IF ~DONE

   4044 28 000233   200010 236100                    LDQ     DONE,,AUTO
        28 000234   400000 376003                    ANQ     -131072,DU
        28 000235   400000 676003                    ERQ     -131072,DU
        28 000236   000261 600000 28                 TZE     NO_COMMENT

      114     4045    2       THEN DO;

      115     4046    2           CALL CONCAT(REC1,SUBSTR(REC1,0,SAVE_I),SUBSTR(REC1,I));

   4046 28 000237   200006 720100                    LXL0    SAVE_I,,AUTO
PL6.E3A0      #001=ZIG$D_READ File=ZIG$D_READ.:ZIC0TSI                           FRI 09/05/97 12:02 Page:22
        28 000240   040000 100440                    MLR     fill='040'O
        28 000241   000000 000010 2                  ADSC9   REC1                     cn=0,n=*X0
        28 000242   000000 000120 2                  ADSC9   REC1                     cn=0,n=80
        28 000243   200006 236100                    LDQ     SAVE_I,,AUTO
        28 000244   000120 116007                    CMPQ    80,DL
        28 000245   000255 603000 28                 TRC     s:4047
        28 000246   777657 621005                    EAX1    -81,AL
        28 000247   777777 661003                    ERX1    -1,DU
        28 000250   777657 622006                    EAX2    -81,QL
        28 000251   777777 662003                    ERX2    -1,DU
        28 000252   040046 100445                    MLR     fill='040'O
        28 000253   000000 000011 2                  ADSC9   REC1,A                   cn=0,n=*X1
        28 000254   000000 000012 2                  ADSC9   REC1,Q                   cn=0,n=*X2

      116     4047    2           NUM_CHAR_READ=NUM_CHAR_READ - I + SAVE_I;

   4047 28 000255   000000 236000 6                  LDQ     NUM_CHAR_READ
        28 000256   200004 136100                    SBLQ    I,,AUTO
        28 000257   200006 036100                    ADLQ    SAVE_I,,AUTO
        28 000260   000000 756000 6                  STQ     NUM_CHAR_READ

      117     4048    2           END;

      118     4049    1   NO_COMMENT:
      119     4050    1       IF REC1 = ' '

   4050 28 000261   040000 106400       NO_COMMENT   CMPC    fill='040'O
        28 000262   000000 000120 2                  ADSC9   REC1                     cn=0,n=80
        28 000263   000015 000001 29                 ADSC9   13                       cn=0,n=1
        28 000264   000027 600000 28                 TZE     RESTART

      120     4051    1       THEN GOTO RESTART;
      121     4052        /*
      122     4053              Goto easy way out.
      123     4054        */
      124     4055    1       LAST_COUNT = DDL_P.NCHARS;

PL6.E3A0      #001=ZIG$D_READ File=ZIG$D_READ.:ZIC0TSI                           FRI 09/05/97 12:02 Page:23
   4055 28 000265   000011 235000 xsym               LDA     DDL_P+9
        28 000266   000000 755000 xsym               STA     LAST_COUNT

      125     4056    1       I = NUM_CHAR_READ-1;

   4056 28 000267   000000 236000 6                  LDQ     NUM_CHAR_READ
        28 000270   000001 136007                    SBLQ    1,DL
        28 000271   200004 756100                    STQ     I,,AUTO

      126     4057        /*********
      127     4058        	scan from back of record to find the first non
      128     4059        	blank CHARACTER.(FIND the end of the record).
      129     4060        **********/
      130     4061    1       CALL SEARCHR(I,K,SEARCHR_NB,REC1);

   4061 28 000272   000000 165400                    TCTR
        28 000273   000000 000120 2                  ADSC9   REC1                     cn=0,n=80
        28 000274   000000 000000 23                 ARG     SEARCHR_NB
        28 000275   200004 000100                    ARG     I,,AUTO
        28 000276   200004 235100                    LDA     I,,AUTO
        28 000277   000033 771000                    ARL     27
        28 000300   200005 755100                    STA     K,,AUTO
        28 000301   200004 551140                    STBA    I,'40'O,AUTO
        28 000302   000305 606400 28                 TTN     s:4062
        28 000303   000117 236007                    LDQ     79,DL
        28 000304   200004 156100                    SSQ     I,,AUTO

      131     4062    1       CALL INSERT(LINE,DDL_P.NCHARS,I+2,SUBSTR(REC1,0,I+1),' ');

   4062 28 000305   200004 720100                    LXL0    I,,AUTO
        28 000306   000001 621010                    EAX1    1,X0
        28 000307   200004 722100                    LXL2    I,,AUTO
        28 000310   000002 623012                    EAX3    2,X2
        28 000311   000011 236000 xsym               LDQ     DDL_P+9
        28 000312   040046 100440                    MLR     fill='040'O
        28 000313   000000 000011 2                  ADSC9   REC1                     cn=0,n=*X1
        28 000314   000000 000013 7                  ADSC9   LINE,Q                   cn=0,n=*X3
PL6.E3A0      #001=ZIG$D_READ File=ZIG$D_READ.:ZIC0TSI                           FRI 09/05/97 12:02 Page:24
        28 000315   200004 236100                    LDQ     I,,AUTO
        28 000316   200004 136100                    SBLQ    I,,AUTO
        28 000317   000017 116000 29                 CMPQ    15
        28 000320   000331 604400 28                 TMOZ    s:4063
        28 000321   200014 756100                    STQ     DONE+4,,AUTO
        28 000322   000011 236000 xsym               LDQ     DDL_P+9
        28 000323   200004 036100                    ADLQ    I,,AUTO
        28 000324   200014 724100                    LXL4    DONE+4,,AUTO
        28 000325   000001 625014                    EAX5    1,X4
        28 000326   040046 100400                    MLR     fill='040'O
        28 000327   000015 000001 29                 ADSC9   13                       cn=0,n=1
        28 000330   000000 200015 7                  ADSC9   LINE,Q                   cn=1,n=*X5

      132     4063    1       DDL_P.NCHARS = DDL_P.NCHARS + I + 1;

   4063 28 000331   000011 236000 xsym               LDQ     DDL_P+9
        28 000332   200004 036100                    ADLQ    I,,AUTO
        28 000333   000001 036007                    ADLQ    1,DL
        28 000334   000011 756000 xsym               STQ     DDL_P+9

      133     4064        /********
      134     4065        	don't add a ';' if this is the end of the directive.
      135     4066        *********/
      136     4067    1       FOUND_PER='0'B;

   4067 28 000335   000000 450000 xsym               STZ     FOUND_PER

      137     4068    1       CALL INDEX2R(K,'. ',REC) ALTRET (NO_PERIOD);

   4068 28 000336   000000 121400                    SCDR
        28 000337   000000 000120 1                  ADSC9   REC                      cn=0,n=80
        28 000340   000004 000002 27                 ADSC9   4                        cn=0,n=2
        28 000341   200005 000100                    ARG     K,,AUTO
        28 000342   000346 606400 28                 TTN     s:4068+8
        28 000343   000117 236007                    LDQ     79,DL
        28 000344   200005 156100                    SSQ     K,,AUTO
        28 000345   000350 710000 28                 TRA     s:4069
PL6.E3A0      #001=ZIG$D_READ File=ZIG$D_READ.:ZIC0TSI                           FRI 09/05/97 12:02 Page:25
        28 000346   200005 054100                    AOS     K,,AUTO
        28 000347   000357 710000 28                 TRA     NO_PERIOD

      138     4069    1       IF K > I-2

   4069 28 000350   200004 236100                    LDQ     I,,AUTO
        28 000351   000002 136007                    SBLQ    2,DL
        28 000352   000355 604000 28                 TMI     s:4071
        28 000353   200005 116100                    CMPQ    K,,AUTO
        28 000354   000357 603000 28                 TRC     NO_PERIOD

      139     4070    2       THEN DO;

      140     4071    2           FOUND_PER = '1'B;

   4071 28 000355   400000 236003                    LDQ     -131072,DU
        28 000356   000000 756000 xsym               STQ     FOUND_PER

      141     4072    2           END;

      142     4073    1   NO_PERIOD:
      143     4074    1       IF ~FOUND_PER

   4074 28 000357   000000 236000 xsym  NO_PERIOD    LDQ     FOUND_PER
        28 000360   400000 376003                    ANQ     -131072,DU
        28 000361   400000 676003                    ERQ     -131072,DU
        28 000362   000371 600000 28                 TZE     s:4084

      144     4075    2       THEN DO;

      145     4076    2           CALL INSERT(LINE,DDL_P.NCHARS,3,'  ;');

   4076 28 000363   000011 235000 xsym               LDA     DDL_P+9
        28 000364   040005 100400                    MLR     fill='040'O
        28 000365   000005 000003 27                 ADSC9   5                        cn=0,n=3
        28 000366   000000 000003 7                  ADSC9   LINE,A                   cn=0,n=3

PL6.E3A0      #001=ZIG$D_READ File=ZIG$D_READ.:ZIC0TSI                           FRI 09/05/97 12:02 Page:26
      146     4077    2           DDL_P.NCHARS=DDL_P.NCHARS + 3;

   4077 28 000367   000003 035007                    ADLA    3,DL
        28 000370   000011 755000 xsym               STA     DDL_P+9

      147     4078    2           END;

      148     4079        /*********
      149     4080        	replace all ';' with '%' so that X$PARSE doesn't
      150     4081        	think that what is in '"' is a comment and skips
      151     4082        	over it.
      152     4083        *********/
      153     4084    1   END ZIG$D_READ;

   4084 28 000371   000000 702200 xent               TSX2  ! X66_ARET

REC
 Sect OctLoc
   1     000   ****** ******   ****** ******   ****** ******   ****** ******    ................

REC1
 Sect OctLoc
   2     000   ****** ******   ****** ******   ****** ******   ****** ******    ................

LINE
 Sect OctLoc
   7     000   ****** ******   ****** ******   ****** ******   ****** ******    ................

LIST_STRING
 Sect OctLoc
   8     000   ****** ******   ****** ******   ****** ******   ****** ******    ................

UWA_KEY
 Sect OctLoc
  18     000   007125 127101   ****** ******                                    .UWA....

RVA_KEY
PL6.E3A0      #001=ZIG$D_READ File=ZIG$D_READ.:ZIC0TSI                           FRI 09/05/97 12:02 Page:27
 Sect OctLoc
  20     000   007122 126101   ****** ******                                    .RVA....

IA__KEY
 Sect OctLoc
  21     000   007111 101137   ****** ******                                    .IA_....

SEARCHR_NB
 Sect OctLoc
  23     000   001001 001001   001001 001001   001001 001001   001001 001001    ................
  23     010*  000001 001001   001001 001001   001001 001001   001001 001001    ................
  23     014   001001 001001   001001 001001   001001 001001   001001 001001    ................
  23     034*  001001 001001   001001 001001   001001 001001   001001 001001    ................

SEM_COM
 Sect OctLoc
  24     000   000001 002003   004005 006007   010011 012013   014015 016017    ................
  24     004   020021 022023   024025 026027   030031 032033   034035 036037    ................
  24     010   040041 042043   044045 046047   050051 052053   054055 056057     !"#$%&'()*+,-./
  24     014   060061 062063   064065 066067   070071 072040   074075 076077    0123456789: <=>?
  24     020   100101 102103   104105 106107   110111 112113   114115 116117    @ABCDEFGHIJKLMNO
  24     024   120121 122123   124125 126127   130131 132133   134135 136137    PQRSTUVWXYZ[\]^_
  24     030   140141 142143   144145 146147   150151 152153   154155 156157    `abcdefghijklmno
  24     034   160161 162163   164165 166167   170171 172173   174175 176177    pqrstuvwxyz{|}~.

DMCL_XLATE
 Sect OctLoc
  25     000   000001 002003   004005 006007   010011 012013   014015 016017    ................
  25     004   020021 022023   024025 026027   030031 032033   034035 036037    ................
  25     010   040041 041043   044045 046047   050051 052053   054055 136057     !!#$%&'()*+,-^/
  25     014   060061 062063   064065 066067   070071 072040   074075 076077    0123456789: <=>?
  25     020   100101 102103   104105 106107   110111 112113   114115 116117    @ABCDEFGHIJKLMNO
  25     024   120121 122123   124125 126127   130131 132133   134135 136137    PQRSTUVWXYZ[\]^_
  25     030   140141 142143   144145 146147   150151 152153   154155 156157    `abcdefghijklmno
  25     034   160161 162163   164165 166167   170171 172173   174175 176177    pqrstuvwxyz{|}~.

Q2_PERCENT
PL6.E3A0      #001=ZIG$D_READ File=ZIG$D_READ.:ZIC0TSI                           FRI 09/05/97 12:02 Page:28
 Sect OctLoc
  26     000   000001 002003   004005 006007   010011 012013   014015 016017    ................
  26     004   020021 022023   024025 026027   030031 032033   034035 036037    ................
  26     010   040041 045043   044045 046047   050051 052053   054055 056057     !%#$%&'()*+,-./
  26     014   060061 062063   064065 066067   070071 072073   074075 076077    0123456789:;<=>?
  26     020   100101 102103   104105 106107   110111 112113   114115 116117    @ABCDEFGHIJKLMNO
  26     024   120121 122123   124125 126127   130131 132133   134135 136137    PQRSTUVWXYZ[\]^_
  26     030   140141 142143   144145 146147   150151 152153   154155 156157    `abcdefghijklmno
  26     034   160161 162163   164165 166167   170171 172173   174175 176177    pqrstuvwxyz{|}~.

(unnamed)
 Sect OctLoc
  27     000   104104 040040   103117 115115   105116 124042   042042 040040    DD  COMMENT"""
  27     004   056040 040040   040040 073040                                    .     ;

(unnamed)
 Sect OctLoc
  29     000   000000 000000   000002 000000   000000 006000   000000 006000    ................
  29     004   000003 000000   000000 006000   000000 006000   000000 006000    ................
  29     010   000000 000001   000000 004211   000010 006000   000011 006000    ................
  29     014   073040 040040   040040 040040   042040 040040   777777 777777    ;       "   ....

PL6.E3A0      #001=ZIG$D_READ File=ZIG$D_READ.:ZIC0TSI                           FRI 09/05/97 12:02 Page:29
--  Include file information  --

   ZIG_GENERAL.:ZIC0TOU  cannot be made into a system file and is referenced.
   ZI_ERRORS_SUBS.:ZIC0TOU  is referenced.
   XU_MACRO_C.:LIB_E05  is referenced.
   B$JIT_C.:E05TOU  was found in the system file and is never referenced.
   CP_6_C.:E05TOU  was found in the system file and is never referenced.
      No diagnostics issued in procedure ZIG$D_READ.

   Procedure ZIG$D_READ requires 250 words for executable code.
   Procedure ZIG$D_READ requires 16 words of local(AUTO) storage.

    No errors detected in file ZIG$D_READ.:ZIC0TSI    .
PL6.E3A0      #001=ZIG$D_READ File=ZIG$D_READ.:ZIC0TSI                           FRI 09/05/97 12:02 Page:30
          *** CROSS REFERENCE LISTING ***
**     DENOTES     IDENTIFIER DEFINITION
<<                 IDENTIFIER'S VALUE SET
>>                 IDENTIFIER'S VALUE USED
<>                 IDENTIFIER SET AND/OR USED
--                 IDENTIFIER REFERENCED
PL6.E3A0      #001=ZIG$D_READ File=ZIG$D_READ.:ZIC0TSI                           FRI 09/05/97 12:02 Page:31
          MINI XREF LISTING

DDL_P.NCHARS
      3835**DCL      4055>>ASSIGN   4062>>CALLBLT  4063<<ASSIGN   4063>>ASSIGN   4076>>CALLBLT  4077<<ASSIGN
      4077>>ASSIGN
DONE
        39**DCL      4013<<ASSIGN   4015>>DOWHILE  4019<<ASSIGN   4032>>DOWHILE  4044>>IF
END_DDL
        38**DCL      4000<<ASSIGN
FOUND_PER
        30**DCL      4067<<ASSIGN   4071<<ASSIGN   4074>>IF
I
        34**DCL      4004<<CALLBLT  4005>>DOWHILE  4006>>CALLBLT  4007>>ASSIGN   4008<<CALLBLT  4010<<ASSIGN
      4011<<CALLBLT  4012>>ASSIGN   4014<<ASSIGN   4014>>ASSIGN   4015>>DOWHILE  4016>>IF       4018<<ASSIGN
      4022<<ASSIGN   4022>>ASSIGN   4023>>IF       4026<<ASSIGN   4031<<ASSIGN   4031>>ASSIGN   4032>>DOWHILE
      4033<<ASSIGN   4033>>ASSIGN   4034>>IF       4037<<ASSIGN   4040>>DOWHILE  4041<<ASSIGN   4041>>ASSIGN
      4046>>CALLBLT  4047>>ASSIGN   4056<<ASSIGN   4061<<CALLBLT  4062>>CALLBLT  4062>>CALLBLT  4063>>ASSIGN
      4069>>IF
K
        35**DCL      4061<<CALLBLT  4068<<CALLBLT  4069>>IF
L
        37**DCL      4003<<ASSIGN   4004>>CALLBLT  4007<<ASSIGN   4008>>CALLBLT
LAST_COUNT
        27**DCL      4055<<ASSIGN
LINE
        26**DCL      4062<<CALLBLT  4076<<CALLBLT
LINE_COUNT
        23**DCL      3981<>CALL     3982<<ASSIGN   3982>>ASSIGN   3996>>CALL
NCS
        33**DCL      3992>>IF
NEXT_REC
      3979**PROC     3991--CALL     4025--CALL     4036--CALL
NO_COMMENT
      4050**LABEL    4011--CALLALT
PL6.E3A0      #001=ZIG$D_READ File=ZIG$D_READ.:ZIC0TSI                           FRI 09/05/97 12:02 Page:32
NO_PERIOD
      4074**LABEL    4068--CALLALT
NUM_CHAR_READ
        25**DCL      3984<>CALL     4023>>IF       4034>>IF       4047<<ASSIGN   4047>>ASSIGN   4056>>ASSIGN
PUT_OUT_LINE
        31**DCL-ENT  3981--CALL
RDWORD
        18**DCL      3994<<ASSIGN
REC
        20**DCL      3981<>CALL     3983>>ASSIGN   4068>>CALLBLT
REC1
        21**DCL      3983<<ASSIGN   3984<>CALL     4004>>CALLBLT  4005--DOWHILE  4006<<CALLBLT  4008>>CALLBLT
      4011>>CALLBLT  4015>>DOWHILE  4016>>IF       4032>>DOWHILE  4040>>DOWHILE  4046<<CALLBLT  4046>>CALLBLT
      4046>>CALLBLT  4050>>IF       4061>>CALLBLT  4062>>CALLBLT
RESTART
      3991**LABEL    4051--GOTO
SAVESW
        24**DCL      3995<<ASSIGN
SAVE_I
        36**DCL      4012<<ASSIGN   4027<<ASSIGN   4038<<ASSIGN   4046>>CALLBLT  4047>>ASSIGN
SEARCHR_NB
      3945**DCL      4061>>CALLBLT
SUBSCHEMA_KEY
      3918**DCL      3919--REDEF
ZIG$COMP
        29**DCL-ENT  3984--CALL
ZIG$DDS5
        19**DCL-ENT  3980--CALL
ZIG$D_DIAG
        40**DCL-ENT  3996--CALL
