
PL6.E3A0      #001=SYS_MSG File=ZIG$D_SYS_MSG.:ZIC0TSI                           FRI 09/05/97 12:03 Page:1
        1        1        /*M* ZIG$SYS_MSG      I-D-S/II            DBACS    */
        2        2        /*T***********************************************************/
        3        3        /*T*                                                         */
        4        4        /*T* Copyright (c) Bull HN Information Systems Inc., 1997    */
        5        5        /*T*                                                         */
        6        6        /*T***********************************************************/
        7        7        SYS_MSG:
        8        8            PROC(MSG);
        9        9    1   DCL MSG UBIN (36);
       10       10    1   DCL C128 CHAR(128);
       11       11    1   DCL PRNT ENTRY(3);
       12       12    1       IF (MSG < 1) OR (MSG > 6) THEN RETURN;
       13       13    2       DO CASE(MSG);
       14       14    2       CASE(2);
       15       15    2           C128 = 'FATAL ERRORS DETECTED.';
       16       16    2           CALL PRNT(C128,2,0);
       17       17    2           C128 = 'THE SCHEMA FILE IS UNACCEPTABLE';
       18       18    2           CALL PRNT(C128,1,0);
       19       19    2           C128 = 'FOR DMCL TRANSLATION.';
       20       20    2           CALL PRNT(C128,1,0);
       21       21    2           RETURN;
       22       22    2       CASE(3);
       23       23    2           C128 = 'DMCL ACTIVITY DELETED.';
       24       24    2           CALL PRNT(C128,2,0);
       25       25    2           C128 = 'THE SCHEMA FILE IS UNACCEPTABLE';
       26       26    2           CALL PRNT(C128,1,0);
       27       27    2           C128 = 'FOR DMCL TRANSLATION.';
       28       28    2           CALL PRNT(C128,1,0);
       29       29    2           RETURN;
       30       30    2       CASE(4);
       31       31    2           C128 = 'FATAL ERRORS DETECTED.';
       32       32    2           CALL PRNT(C128,2,0);
       33       33    2           C128 = 'THE SCHEMA FILE IS UNACCEPTABLE';
       34       34    2           CALL PRNT(C128,1,0);
       35       35    2           C128 = 'FOR VALIDATION/VERIFICATION.';
       36       36    2           CALL PRNT(C128,1,0);
       37       37    2           RETURN;
PL6.E3A0      #001=SYS_MSG File=ZIG$D_SYS_MSG.:ZIC0TSI                           FRI 09/05/97 12:03 Page:2
       38       38    2           END;
       39       39    1   END SYS_MSG;

PL6.E3A0      #001=SYS_MSG File=ZIG$D_SYS_MSG.:ZIC0TSI                           FRI 09/05/97 12:03 Page:3
--  Include file information  --

   B$JIT_C.:E05TOU  was found in the system file and is never referenced.
   CP_6_C.:E05TOU  was found in the system file and is never referenced.
      No diagnostics issued in procedure SYS_MSG.

   Procedure SYS_MSG requires 137 words for executable code.
   Procedure SYS_MSG requires 40 words of local(AUTO) storage.

    No errors detected in file ZIG$D_SYS_MSG.:ZIC0TSI    .

PL6.E3A0      #001=SYS_MSG File=ZIG$D_SYS_MSG.:ZIC0TSI                           FRI 09/05/97 12:03 Page:4

 Object Unit name= SYS_MSG                                    File name= ZIG$D_SYS_MSG.:ZIC0TOU
 UTS= SEP 05 '97 12:03:08.28 FRI                              Compiler= PL-6/E31         Sev=      00
 SharedLib= :SHARED_SYSTEM                                    Alt SharedLib=


    ****  Control sections  ****

 Sect   Type Bound  Init  Size OctSiz  Section name(segment info)
    0  RoData even  UTS     33     41  SYS_MSG
    1   Proc  even  none   137    211  SYS_MSG
    2  RoData even  none     7      7  SYS_MSG

    ****  Entry defs  ****

                              Check   Calling
                             calling  sequence
  Sect OctLoc Primary Altret sequence   type   Parms  Name
     1      0   yes            yes      Std        1  SYS_MSG

  ****  Entry refs  ****

         Check        Calling
        calling       sequence
Altret sequence SRef   type   Args  Name
         yes           Std       3 PRNT
                       nStd      0 X66_AUTO_1
                       nStd      0 X66_ARET

  ****  Segment refs  ****

  Flags:  r = read only, s = secondary
Flgs Name                             Flgs Name                             Flgs Name
     ISSID
PL6.E3A0      #001=SYS_MSG File=ZIG$D_SYS_MSG.:ZIC0TSI                           FRI 09/05/97 12:03 Page:5


        1        1        /*M* ZIG$SYS_MSG      I-D-S/II            DBACS    */
        2        2        /*T***********************************************************/
        3        3        /*T*                                                         */
        4        4        /*T* Copyright (c) Bull HN Information Systems Inc., 1997    */
        5        5        /*T*                                                         */
        6        6        /*T***********************************************************/
        7        7        SYS_MSG:
        8        8            PROC(MSG);

      8  1 000000   000000 700200 xent  SYS_MSG      TSX0  ! X66_AUTO_1
         1 000001   000050 000001                    ZERO    40,1

        9        9    1   DCL MSG UBIN (36);
       10       10    1   DCL C128 CHAR(128);
       11       11    1   DCL PRNT ENTRY(3);
       12       12    1       IF (MSG < 1) OR (MSG > 6) THEN RETURN;

     12  1 000002   200003 470500                    LDP0    @MSG,,AUTO
         1 000003   000000 235100                    LDA     0,,PR0
         1 000004   000007 600000 1                  TZE     s:12+5
         1 000005   000007 115007                    CMPA    7,DL
         1 000006   000010 602000 1                  TNC     s:13

     12  1 000007   000000 702200 xent               TSX2  ! X66_ARET

       13       13    2       DO CASE(MSG);

     13  1 000010   000005 115007                    CMPA    5,DL
         1 000011   000013 602005 1                  TNC     s:13+3,AL
         1 000012   000210 710000 1                  TRA     s:39
         1 000013   000210 710000 1                  TRA     s:39
         1 000014   000210 710000 1                  TRA     s:39
         1 000015   000020 710000 1                  TRA     s:15
         1 000016   000070 710000 1                  TRA     s:23
         1 000017   000140 710000 1                  TRA     s:31

PL6.E3A0      #001=SYS_MSG File=ZIG$D_SYS_MSG.:ZIC0TSI                           FRI 09/05/97 12:03 Page:6
       14       14    2       CASE(2);

       15       15    2           C128 = 'FATAL ERRORS DETECTED.';

     15  1 000020   040100 100400                    MLR     fill='040'O
         1 000021   000000 000026 0                  ADSC9   0                        cn=0,n=22
         1 000022   200004 000200                    ADSC9   C128,,AUTO               cn=0,n=128

       16       16    2           CALL PRNT(C128,2,0);

     16  1 000023   000003 236000 2                  LDQ     3
         1 000024   200046 756100                    STQ     C128+34,,AUTO
         1 000025   000004 236000 2                  LDQ     4
         1 000026   200045 756100                    STQ     C128+33,,AUTO
         1 000027   200004 631500                    EPPR1   C128,,AUTO
         1 000030   200044 451500                    STP1    C128+32,,AUTO
         1 000031   200044 630500                    EPPR0   C128+32,,AUTO
         1 000032   000000 631400 2                  EPPR1   0
         1 000033   000000 701000 xent               TSX1    PRNT
         1 000034   000000 011000                    NOP     0

       17       17    2           C128 = 'THE SCHEMA FILE IS UNACCEPTABLE';

     17  1 000035   040100 100400                    MLR     fill='040'O
         1 000036   000006 000037 0                  ADSC9   6                        cn=0,n=31
         1 000037   200004 000200                    ADSC9   C128,,AUTO               cn=0,n=128

       18       18    2           CALL PRNT(C128,1,0);

     18  1 000040   000003 236000 2                  LDQ     3
         1 000041   200046 756100                    STQ     C128+34,,AUTO
         1 000042   000006 236000 2                  LDQ     6
         1 000043   200045 756100                    STQ     C128+33,,AUTO
         1 000044   200004 630500                    EPPR0   C128,,AUTO
         1 000045   200044 450500                    STP0    C128+32,,AUTO
         1 000046   200044 630500                    EPPR0   C128+32,,AUTO
         1 000047   000000 631400 2                  EPPR1   0
PL6.E3A0      #001=SYS_MSG File=ZIG$D_SYS_MSG.:ZIC0TSI                           FRI 09/05/97 12:03 Page:7
         1 000050   000000 701000 xent               TSX1    PRNT
         1 000051   000000 011000                    NOP     0

       19       19    2           C128 = 'FOR DMCL TRANSLATION.';

     19  1 000052   040100 100400                    MLR     fill='040'O
         1 000053   000016 000025 0                  ADSC9   14                       cn=0,n=21
         1 000054   200004 000200                    ADSC9   C128,,AUTO               cn=0,n=128

       20       20    2           CALL PRNT(C128,1,0);

     20  1 000055   000003 236000 2                  LDQ     3
         1 000056   200046 756100                    STQ     C128+34,,AUTO
         1 000057   000006 236000 2                  LDQ     6
         1 000060   200045 756100                    STQ     C128+33,,AUTO
         1 000061   200004 630500                    EPPR0   C128,,AUTO
         1 000062   200044 450500                    STP0    C128+32,,AUTO
         1 000063   200044 630500                    EPPR0   C128+32,,AUTO
         1 000064   000000 631400 2                  EPPR1   0
         1 000065   000000 701000 xent               TSX1    PRNT
         1 000066   000000 011000                    NOP     0

       21       21    2           RETURN;

     21  1 000067   000000 702200 xent               TSX2  ! X66_ARET

       22       22    2       CASE(3);

       23       23    2           C128 = 'DMCL ACTIVITY DELETED.';

     23  1 000070   040100 100400                    MLR     fill='040'O
         1 000071   000024 000026 0                  ADSC9   20                       cn=0,n=22
         1 000072   200004 000200                    ADSC9   C128,,AUTO               cn=0,n=128

       24       24    2           CALL PRNT(C128,2,0);

     24  1 000073   000003 236000 2                  LDQ     3
PL6.E3A0      #001=SYS_MSG File=ZIG$D_SYS_MSG.:ZIC0TSI                           FRI 09/05/97 12:03 Page:8
         1 000074   200046 756100                    STQ     C128+34,,AUTO
         1 000075   000004 236000 2                  LDQ     4
         1 000076   200045 756100                    STQ     C128+33,,AUTO
         1 000077   200004 631500                    EPPR1   C128,,AUTO
         1 000100   200044 451500                    STP1    C128+32,,AUTO
         1 000101   200044 630500                    EPPR0   C128+32,,AUTO
         1 000102   000000 631400 2                  EPPR1   0
         1 000103   000000 701000 xent               TSX1    PRNT
         1 000104   000000 011000                    NOP     0

       25       25    2           C128 = 'THE SCHEMA FILE IS UNACCEPTABLE';

     25  1 000105   040100 100400                    MLR     fill='040'O
         1 000106   000006 000037 0                  ADSC9   6                        cn=0,n=31
         1 000107   200004 000200                    ADSC9   C128,,AUTO               cn=0,n=128

       26       26    2           CALL PRNT(C128,1,0);

     26  1 000110   000003 236000 2                  LDQ     3
         1 000111   200046 756100                    STQ     C128+34,,AUTO
         1 000112   000006 236000 2                  LDQ     6
         1 000113   200045 756100                    STQ     C128+33,,AUTO
         1 000114   200004 630500                    EPPR0   C128,,AUTO
         1 000115   200044 450500                    STP0    C128+32,,AUTO
         1 000116   200044 630500                    EPPR0   C128+32,,AUTO
         1 000117   000000 631400 2                  EPPR1   0
         1 000120   000000 701000 xent               TSX1    PRNT
         1 000121   000000 011000                    NOP     0

       27       27    2           C128 = 'FOR DMCL TRANSLATION.';

     27  1 000122   040100 100400                    MLR     fill='040'O
         1 000123   000016 000025 0                  ADSC9   14                       cn=0,n=21
         1 000124   200004 000200                    ADSC9   C128,,AUTO               cn=0,n=128

       28       28    2           CALL PRNT(C128,1,0);

PL6.E3A0      #001=SYS_MSG File=ZIG$D_SYS_MSG.:ZIC0TSI                           FRI 09/05/97 12:03 Page:9
     28  1 000125   000003 236000 2                  LDQ     3
         1 000126   200046 756100                    STQ     C128+34,,AUTO
         1 000127   000006 236000 2                  LDQ     6
         1 000130   200045 756100                    STQ     C128+33,,AUTO
         1 000131   200004 630500                    EPPR0   C128,,AUTO
         1 000132   200044 450500                    STP0    C128+32,,AUTO
         1 000133   200044 630500                    EPPR0   C128+32,,AUTO
         1 000134   000000 631400 2                  EPPR1   0
         1 000135   000000 701000 xent               TSX1    PRNT
         1 000136   000000 011000                    NOP     0

       29       29    2           RETURN;

     29  1 000137   000000 702200 xent               TSX2  ! X66_ARET

       30       30    2       CASE(4);

       31       31    2           C128 = 'FATAL ERRORS DETECTED.';

     31  1 000140   040100 100400                    MLR     fill='040'O
         1 000141   000000 000026 0                  ADSC9   0                        cn=0,n=22
         1 000142   200004 000200                    ADSC9   C128,,AUTO               cn=0,n=128

       32       32    2           CALL PRNT(C128,2,0);

     32  1 000143   000003 236000 2                  LDQ     3
         1 000144   200046 756100                    STQ     C128+34,,AUTO
         1 000145   000004 236000 2                  LDQ     4
         1 000146   200045 756100                    STQ     C128+33,,AUTO
         1 000147   200004 631500                    EPPR1   C128,,AUTO
         1 000150   200044 451500                    STP1    C128+32,,AUTO
         1 000151   200044 630500                    EPPR0   C128+32,,AUTO
         1 000152   000000 631400 2                  EPPR1   0
         1 000153   000000 701000 xent               TSX1    PRNT
         1 000154   000000 011000                    NOP     0

       33       33    2           C128 = 'THE SCHEMA FILE IS UNACCEPTABLE';
PL6.E3A0      #001=SYS_MSG File=ZIG$D_SYS_MSG.:ZIC0TSI                           FRI 09/05/97 12:03 Page:10

     33  1 000155   040100 100400                    MLR     fill='040'O
         1 000156   000006 000037 0                  ADSC9   6                        cn=0,n=31
         1 000157   200004 000200                    ADSC9   C128,,AUTO               cn=0,n=128

       34       34    2           CALL PRNT(C128,1,0);

     34  1 000160   000003 236000 2                  LDQ     3
         1 000161   200046 756100                    STQ     C128+34,,AUTO
         1 000162   000006 236000 2                  LDQ     6
         1 000163   200045 756100                    STQ     C128+33,,AUTO
         1 000164   200004 630500                    EPPR0   C128,,AUTO
         1 000165   200044 450500                    STP0    C128+32,,AUTO
         1 000166   200044 630500                    EPPR0   C128+32,,AUTO
         1 000167   000000 631400 2                  EPPR1   0
         1 000170   000000 701000 xent               TSX1    PRNT
         1 000171   000000 011000                    NOP     0

       35       35    2           C128 = 'FOR VALIDATION/VERIFICATION.';

     35  1 000172   040100 100400                    MLR     fill='040'O
         1 000173   000032 000034 0                  ADSC9   26                       cn=0,n=28
         1 000174   200004 000200                    ADSC9   C128,,AUTO               cn=0,n=128

       36       36    2           CALL PRNT(C128,1,0);

     36  1 000175   000003 236000 2                  LDQ     3
         1 000176   200046 756100                    STQ     C128+34,,AUTO
         1 000177   000006 236000 2                  LDQ     6
         1 000200   200045 756100                    STQ     C128+33,,AUTO
         1 000201   200004 630500                    EPPR0   C128,,AUTO
         1 000202   200044 450500                    STP0    C128+32,,AUTO
         1 000203   200044 630500                    EPPR0   C128+32,,AUTO
         1 000204   000000 631400 2                  EPPR1   0
         1 000205   000000 701000 xent               TSX1    PRNT
         1 000206   000000 011000                    NOP     0

PL6.E3A0      #001=SYS_MSG File=ZIG$D_SYS_MSG.:ZIC0TSI                           FRI 09/05/97 12:03 Page:11
       37       37    2           RETURN;

     37  1 000207   000000 702200 xent               TSX2  ! X66_ARET

       38       38    2           END;

       39       39    1   END SYS_MSG;

     39  1 000210   000000 702200 xent               TSX2  ! X66_ARET

(unnamed)
 Sect OctLoc
   0     000   106101 124101   114040 105122   122117 122123   040104 105124    FATAL ERRORS DET
   0     004   105103 124105   104056 040040   124110 105040   123103 110105    ECTED.  THE SCHE
   0     010   115101 040106   111114 105040   111123 040125   116101 103103    MA FILE IS UNACC
   0     014   105120 124101   102114 105040   106117 122040   104115 103114    EPTABLE FOR DMCL
   0     020   040124 122101   116123 114101   124111 117116   056040 040040     TRANSLATION.
   0     024   104115 103114   040101 103124   111126 111124   131040 104105    DMCL ACTIVITY DE
   0     030   114105 124105   104056 040040   106117 122040   126101 114111    LETED.  FOR VALI
   0     034   104101 124111   117116 057126   105122 111106   111103 101124    DATION/VERIFICAT
   0     040   111117 116056                                                    ION.

(unnamed)
 Sect OctLoc
   2     000   000003 000000   000000 000002   000000 000000   000002 006000    ................
   2     004   000001 006000   000000 000001   000005 006000                    ............

PL6.E3A0      #001=SYS_MSG File=ZIG$D_SYS_MSG.:ZIC0TSI                           FRI 09/05/97 12:03 Page:12
--  Include file information  --

   B$JIT_C.:E05TOU  was found in the system file and is never referenced.
   CP_6_C.:E05TOU  was found in the system file and is never referenced.
      No diagnostics issued in procedure SYS_MSG.

   Procedure SYS_MSG requires 137 words for executable code.
   Procedure SYS_MSG requires 40 words of local(AUTO) storage.

    No errors detected in file ZIG$D_SYS_MSG.:ZIC0TSI    .
PL6.E3A0      #001=SYS_MSG File=ZIG$D_SYS_MSG.:ZIC0TSI                           FRI 09/05/97 12:03 Page:13
          *** CROSS REFERENCE LISTING ***
**     DENOTES     IDENTIFIER DEFINITION
<<                 IDENTIFIER'S VALUE SET
>>                 IDENTIFIER'S VALUE USED
<>                 IDENTIFIER SET AND/OR USED
--                 IDENTIFIER REFERENCED
PL6.E3A0      #001=SYS_MSG File=ZIG$D_SYS_MSG.:ZIC0TSI                           FRI 09/05/97 12:03 Page:14
          MINI XREF LISTING

C128
        10**DCL        15<<ASSIGN     16<>CALL       17<<ASSIGN     18<>CALL       19<<ASSIGN     20<>CALL
        23<<ASSIGN     24<>CALL       25<<ASSIGN     26<>CALL       27<<ASSIGN     28<>CALL       31<<ASSIGN
        32<>CALL       33<<ASSIGN     34<>CALL       35<<ASSIGN     36<>CALL
MSG
         9**DCL         7--PROC       12>>IF         12>>IF         13>>DOCASE
PRNT
        11**DCL-ENT    16--CALL       18--CALL       20--CALL       24--CALL       26--CALL       28--CALL
        32--CALL       34--CALL       36--CALL
