
PL6.E3A0      #001=ZIG$D_XREF File=ZIG$D_XREF.:ZIC0TSI                           FRI 09/05/97 12:03 Page:1
        1        1        /*M* ZIG$D_XREF DDL CROSS REFERENCE IDS/II DBACS   */
        2        2        /*T***********************************************************/
        3        3        /*T*                                                         */
        4        4        /*T* Copyright (c) Bull HN Information Systems Inc., 1997    */
        5        5        /*T*                                                         */
        6        6        /*T***********************************************************/
        7        7        ZIG$D_XREF:
        8        8            PROC;
        9        9        %INCLUDE ZIG_DBA_INT;
       10       57        %INCLUDE ZIG_GENERAL;
       11      165        %INCLUDE ZIG_TYPE_SUBS;
       12      180        %INCLUDE ZI_SUB4_CAN;
       13      837         %UWA;
       14     1172    1   DCL PUTK UBIN WORD STATIC;
       15     1173    1   DCL PRNT ENTRY(3);
       16     1174    1   DCL O_L CHAR(128) ALIGNED STATIC;
       17     1175    1   DCL 1 FIELD1 EXT,
       18     1176    1         2 COUNT1 UBIN(9) UNAL,
       19     1177    1         2 TEXT1 CHAR(31) UNAL;
       20     1178        %INCLUDE ZIG_DIR_STRUCS;
       21     1308    1   DCL 1 SN DALIGNED,
       22     1309    1         2 DCLR SBIN(36) ALIGNED,
       23     1310    1         2 ESCAPE SBIN(36) ALIGNED,
       24     1311    1         2 SETYPE SBIN(36) ALIGNED,
       25     1312    1         2 LNO SBIN(36) ALIGNED,
       26     1313    1         2 ACTLCKS SBIN(36) ALIGNED,
       27     1314    1         2 SENAME CHAR(30) UNAL;
       28     1315    1   DCL SN_DBK UBIN WORD;
       29     1316    1   DCL C64 CHAR(64);
       30     1317    1   DCL START_NOT_DCLR$ PTR;
       31     1318    1   DCL NEXT_RECORD UBIN WORD STATIC INIT(0);
       32     1319    1   DCL NEXT_FIELD UBIN WORD STATIC INIT(0);
       33     1320    1   DCL NEXT_AREA UBIN WORD STATIC INIT(0);
       34     1321    1   DCL NEXT_SET UBIN WORD STATIC INIT(0);
       35     1322    1   DCL NEXT_KEY UBIN WORD STATIC INIT(0);
       36     1323    1   DCL RECORD$ PTR EXT;
       37     1324    1   DCL FIELD$ PTR EXT;
PL6.E3A0      #001=ZIG$D_XREF File=ZIG$D_XREF.:ZIC0TSI                           FRI 09/05/97 12:03 Page:2
       38     1325    1   DCL AREA$ PTR EXT;
       39     1326    1   DCL SET$ PTR EXT;
       40     1327    1   DCL KEY$ PTR EXT;
       41     1328    1   DCL NUMB_RECORD_SN UBIN (36) EXT;
       42     1329    1   DCL NUMB_FIELD_SN UBIN (36) EXT;
       43     1330    1   DCL NUMB_AREA_SN UBIN (36) EXT;
       44     1331    1   DCL NUMB_SET_SN UBIN (36) EXT;
       45     1332    1   DCL NUMB_KEY_SN UBIN (36) EXT;
       46     1333    1   DCL 1 TABLES(0:0) BASED ALIGNED,
       47     1334    1         2 NAME CHAR(30) CALIGNED,
       48     1335    1         2 DBK UBIN(18) CALIGNED,
       49     1336    1         2 DEFINED BIT (1) UNAL,
       50     1337    1         2 * BIT (17) UNAL,
       51     1338    1         2 DBK_RC UBIN(18) CALIGNED;
       52     1339    1   DCL DBK UBIN WORD;
       53     1340    1   DCL LINE SBIN HALF;
       54     1341    1   DCL FIRST_NRCO_CHECK BIT(1);
       55     1342    1   DCL IMPLICIT BIT(1) STATIC INIT('0'B);
       56     1343    1   DCL NAME CHAR(68);
       57     1344    1   DCL QNAME CHAR(68);
       58     1345    1   DCL TYPE CHAR(12);
       59     1346    1   DCL ASTRNG CHAR(60);
       60     1347    1   DCL I UBIN WORD;
       61     1348    1   DCL J UBIN WORD;
       62     1349    1   DCL WIN(0:5) UBIN WORD STATIC ALIGNED;
       63     1350    1   DCL NXT_SN(0:5) UBIN WORD ALIGNED STATIC;
       64     1351    1   DCL CURR_SN(0:5) UBIN WORD ALIGNED STATIC;
       65     1352    1   DCL 01 TSN(0:5) STATIC ALIGNED,
       66     1353    1         02 SETYPE SBIN (36),
       67     1354    1         02 DCLR BIT(1),
       68     1355    1         02 SENAME CHAR(30);
       69     1356    1   DCL NOT_DCLR(0:0) UBIN WORD ALIGNED BASED(START_NOT_DCLR$);
       70     1357    1   DCL P$ PTR STATIC;
       71     1358    1   DCL X UBIN WORD STATIC;
       72     1359    1   DCL Y SBIN WORD STATIC;
       73     1360    1   DCL Z SBIN WORD STATIC;
       74     1361        %EJECT;
PL6.E3A0      #001=ZIG$D_XREF File=ZIG$D_XREF.:ZIC0TSI                           FRI 09/05/97 12:03 Page:3
       75     1362        /* If FRST_AC=0 then nothing got set up right and we can't XREF. */
       76     1363    1       IF UWA.DA.FRST_AC = 0
       77     1364    1       THEN
       78     1365    1           RETURN;
       79     1366
       80     1367    1       C64 = 'SCHEMA DDL CROSS REFERENCE';
       81     1368    1       CALL SUBLST(C64);
       82     1369    1       NAME = ' ';
       83     1370    1       TYPE = ' ';
       84     1371    1       ASTRNG = ' ';
       85     1372    1       O_L = 'NAMES EXPLICITLY DECLARED***';
       86     1373    1       CALL PRNT(O_L, 2, 0);
       87     1374         /**
       88     1375            Init tournament for merge of 5
       89     1376            strings
       90     1377            */
       91     1378    1       CALL ZIG$G_DYN_MEM_6(1,START_NOT_DCLR$);
       92     1379    1       P$ = START_NOT_DCLR$;
       93     1380    1       CALL FETCHD_6('DA      ',5); /* always 5 */
       94     1381    1       CURR_SN(0) = 6; /* always schema SN */
       95     1382    1       NXT_SN(0) = 0; /* only 1 schema */
       96     1383    1       TSN.SETYPE(0) = %ZIG_RTYPE_OA;
       97     1384    1       TSN.DCLR(0) = '1'B; /* always declared */
       98     1385    1       TSN.SENAME(0) = STRAN.SNAME;
       99     1386    1       IF UWA.DA.FRST_AC ~= CURR_SN(0) THEN /* */
      100     1387    2       DO;
      101     1388    2           CURR_SN(1) = UWA.DA.FRST_AC;
      102     1389    2           TSN.SETYPE(1) = %ZIG_RTYPE_AC;
      103     1390    2           TSN.DCLR(1) = AREA$->TABLES.DEFINED(NEXT_AREA);
      104     1391    2           TSN.SENAME(1) = AREA$->TABLES.NAME(NEXT_AREA);
      105     1392    2           IF NUMB_AREA_SN > 1 THEN /* */
      106     1393    2               NXT_SN(1) = AREA$->TABLES.DBK(NEXT_AREA+1);
      107     1394    2           ELSE /* */
      108     1395    2   NO_NXT_AC:
      109     1396    2               NXT_SN(1) = 0;
      110     1397    2           END;
      111     1398    1       ELSE /* */
PL6.E3A0      #001=ZIG$D_XREF File=ZIG$D_XREF.:ZIC0TSI                           FRI 09/05/97 12:03 Page:4
      112     1399    2       DO;
      113     1400    2           CURR_SN(1) = 0;
      114     1401    2           NXT_SN(1) = 0;
      115     1402    2           TSN.SETYPE(1) =0;
      116     1403    2           TSN.SENAME(1) ='ZZZZZZZZZZZZZZZZZZZZZZZZZZZZZZ';
      117     1404    2           END;
      118     1405    1       IF UWA.DA.FRST_RC ~= CURR_SN(0) THEN /* */
      119     1406    2       DO;
      120     1407    2           CURR_SN(2) = UWA.DA.FRST_RC;
      121     1408    2           TSN.SETYPE(2) = %ZIG_RTYPE_RC;
      122     1409    2           TSN.DCLR(2) = RECORD$->TABLES.DEFINED(NEXT_RECORD);
      123     1410    2           TSN.SENAME(2) = RECORD$->TABLES.NAME(NEXT_RECORD);
      124     1411    2           IF NUMB_RECORD_SN > 1 THEN /* */
      125     1412    2               NXT_SN(2) = RECORD$->TABLES.DBK(NEXT_RECORD+1);
      126     1413    2           ELSE /* */
      127     1414    2   NO_NXT_RC:
      128     1415    2               NXT_SN(2) = 0;
      129     1416    2           END;
      130     1417    1       ELSE /* */
      131     1418    2       DO;
      132     1419    2           CURR_SN(2) = 0;
      133     1420    2           NXT_SN(2) = 0;
      134     1421    2           TSN.SETYPE(2) =0;
      135     1422    2           TSN.SENAME(2) ='ZZZZZZZZZZZZZZZZZZZZZZZZZZZZZZ';
      136     1423    2           END;
      137     1424    1       IF UWA.DA.FRST_FR ~= CURR_SN(0) THEN /* */
      138     1425    2       DO;
      139     1426    2           CURR_SN(3) = UWA.DA.FRST_FR;
      140     1427    2           TSN.SETYPE(3) = %ZIG_RTYPE_FR;
      141     1428    2           TSN.DCLR(3) = FIELD$->TABLES.DEFINED(NEXT_FIELD);
      142     1429    2           TSN.SENAME(3) = FIELD$->TABLES.NAME(NEXT_FIELD);
      143     1430    2           IF NUMB_FIELD_SN > 1 THEN /* */
      144     1431    2               NXT_SN(3) = FIELD$->TABLES.DBK(NEXT_FIELD+1);
      145     1432    2           ELSE /* */
      146     1433    2   NO_NXT_FR:
      147     1434    2               NXT_SN(3) = 0;
      148     1435    2           END;
PL6.E3A0      #001=ZIG$D_XREF File=ZIG$D_XREF.:ZIC0TSI                           FRI 09/05/97 12:03 Page:5
      149     1436    1       ELSE /* */
      150     1437    2       DO;
      151     1438    2           CURR_SN(3) = 0;
      152     1439    2           NXT_SN(3) = 0;
      153     1440    2           TSN.SETYPE(3) =0;
      154     1441    2           TSN.SENAME(3) ='ZZZZZZZZZZZZZZZZZZZZZZZZZZZZZZ';
      155     1442    2           END;
      156     1443    1       IF UWA.DA.FRST_SC ~= CURR_SN(0) THEN /* */
      157     1444    2       DO;
      158     1445    2           CURR_SN(4) = UWA.DA.FRST_SC;
      159     1446    2           TSN.SETYPE(4) = %ZIG_RTYPE_SC;
      160     1447    2           TSN.DCLR(4) = SET$->TABLES.DEFINED(NEXT_SET);
      161     1448    2           TSN.SENAME(4) = SET$->TABLES.NAME(NEXT_SET);
      162     1449    2           IF NUMB_SET_SN > 1 THEN /* */
      163     1450    2               NXT_SN(4) = SET$->TABLES.DBK(NEXT_SET+1);
      164     1451    2           ELSE /* */
      165     1452    2   NO_NXT_SC:
      166     1453    2               NXT_SN(4) = 0;
      167     1454    2           END;
      168     1455    1       ELSE /* */
      169     1456    2       DO;
      170     1457    2           CURR_SN(4) = 0;
      171     1458    2           NXT_SN(4) = 0;
      172     1459    2           TSN.SETYPE(4) =0;
      173     1460    2           TSN.SENAME(4) ='ZZZZZZZZZZZZZZZZZZZZZZZZZZZZZZ';
      174     1461    2           END;
      175     1462    1       IF UWA.DA.FRST_KC ~= CURR_SN(0) THEN /* */
      176     1463    2       DO;
      177     1464    2           CURR_SN(5) = UWA.DA.FRST_KC;
      178     1465    2           TSN.SETYPE(5) = %ZIG_RTYPE_KC;
      179     1466    2           TSN.DCLR(5) = KEY$->TABLES.DEFINED(NEXT_KEY);
      180     1467    2           TSN.SENAME(5) = KEY$->TABLES.NAME(NEXT_KEY);
      181     1468    2           IF NUMB_KEY_SN > 1 THEN /* */
      182     1469    2               NXT_SN(5) = KEY$->TABLES.DBK(NEXT_KEY+1);
      183     1470    2           ELSE /* */
      184     1471    2   NO_NXT_KC:
      185     1472    2               NXT_SN(5) = 0;
PL6.E3A0      #001=ZIG$D_XREF File=ZIG$D_XREF.:ZIC0TSI                           FRI 09/05/97 12:03 Page:6
      186     1473    2           END;
      187     1474    1       ELSE /* */
      188     1475    2       DO;
      189     1476    2           CURR_SN(5) = 0;
      190     1477    2           NXT_SN(5) = 0;
      191     1478    2           TSN.SETYPE(5) =0;
      192     1479    2           TSN.SENAME(5) ='ZZZZZZZZZZZZZZZZZZZZZZZZZZZZZZ';
      193     1480    2           END;
      194     1481    1       Z = 0;
      195     1482         /**
      196     1483            Init complete. Do level 1 compares
      197     1484            */
      198     1485    1   LEVEL_1_COMP:
      199     1486    1       Y = -1;
      200     1487    2       DO X = 0 TO 4 BY 2;
      201     1488    2           Y = Y + 1;
      202     1489    2           IF TSN.SENAME(X) < TSN.SENAME(X + 1) THEN /* */
      203     1490    2               WIN(Y) = X;
      204     1491    2           ELSE /* */
      205     1492    2               WIN(Y) = X + 1;
      206     1493    2           END;
      207     1494         /**
      208     1495            Level 2 compares
      209     1496            */
      210     1497    1       IF TSN.SENAME(WIN(0)) < TSN.SENAME(WIN(1)) THEN /* */
      211     1498    1           WIN(3) = WIN(0);
      212     1499    1       ELSE /* */
      213     1500    1           WIN(3) = WIN(1);
      214     1501         /**
      215     1502            Level 3 compares
      216     1503            */
      217     1504    1       IF TSN.SENAME(WIN(2)) < TSN.SENAME(WIN(3)) THEN /* */
      218     1505    1           WIN(4) = WIN(2);
      219     1506    1       ELSE /* */
      220     1507    1           WIN(4) = WIN(3);
      221     1508         /**
      222     1509            Winner now TSN(WIN(4))
PL6.E3A0      #001=ZIG$D_XREF File=ZIG$D_XREF.:ZIC0TSI                           FRI 09/05/97 12:03 Page:7
      223     1510            */
      224     1511    1       IF TSN.SENAME(WIN(4)) ='ZZZZZZZZZZZZZZZZZZZZZZZZZZZZZZ' THEN /* */
      225     1512    1           GOTO END_DCLRD;
      226     1513    1       CALL FETCHD_6('SN      ',CURR_SN(WIN(4)));
      227     1514    1       SN = UWA.SN;
      228     1515    1       SN_DBK = UWA.DIRECT_REF;
      229     1516    1       IF SN.DCLR = 1 THEN /* */
      230     1517    1           CALL PUTSNXL;
      231     1518    1       ELSE /* */
      232     1519    2       DO;
      233     1520    2           CALL ZIG$G_DYN_MEM_6(1,P$);
      234     1521    2           START_NOT_DCLR$->NOT_DCLR(Z) = UWA.DIRECT_REF;
      235     1522    2           Z = Z + 1;
      236     1523    2           END;
      237     1524         /**
      238     1525            Replace tournament winner with
      239     1526            next of type
      240     1527            */
      241     1528    1       IF NXT_SN(WIN(4)) = 0 THEN /* */
      242     1529    2       DO;
      243     1530    2           CURR_SN(WIN(4)) = 0;
      244     1531    2           TSN.SENAME(WIN(4)) ='ZZZZZZZZZZZZZZZZZZZZZZZZZZZZZZ';
      245     1532    2           TSN.SETYPE(WIN(4)) =0;
      246     1533    2           END;
      247     1534    1       ELSE /* */
      248     1535    2       DO;
      249     1536    2           CURR_SN(WIN(4)) = NXT_SN(WIN(4));
      250     1537    3           DO CASE(TSN.SETYPE(WIN(4)));
      251     1538    3           CASE(%ZIG_RTYPE_AC);
      252     1539    3               NEXT_AREA = NEXT_AREA + 1;
      253     1540    3               TSN.SENAME(WIN(4)) = AREA$->TABLES.NAME(NEXT_AREA);
      254     1541    3               TSN.DCLR(WIN(4)) = AREA$->TABLES.DEFINED(NEXT_AREA);
      255     1542    3               IF NEXT_AREA + 1 < NUMB_AREA_SN
      256     1543    3               THEN NXT_SN(WIN(4)) = AREA$->TABLES.DBK(NEXT_AREA+1);
      257     1544    3               ELSE NXT_SN(WIN(4)) = 0;
      258     1545    3           CASE(%ZIG_RTYPE_RC);
      259     1546    3               NEXT_RECORD = NEXT_RECORD + 1;
PL6.E3A0      #001=ZIG$D_XREF File=ZIG$D_XREF.:ZIC0TSI                           FRI 09/05/97 12:03 Page:8
      260     1547    3               TSN.SENAME(WIN(4)) = RECORD$->TABLES.NAME(NEXT_RECORD);
      261     1548    3               TSN.DCLR(WIN(4)) = RECORD$->TABLES.DEFINED(NEXT_RECORD);
      262     1549    3               IF NEXT_RECORD + 1 < NUMB_RECORD_SN
      263     1550    3               THEN NXT_SN(WIN(4)) = RECORD$->TABLES.DBK(NEXT_RECORD+1);
      264     1551    3               ELSE NXT_SN(WIN(4)) = 0;
      265     1552    3           CASE(%ZIG_RTYPE_FR);
      266     1553    3               NEXT_FIELD = NEXT_FIELD + 1;
      267     1554    3               TSN.SENAME(WIN(4)) = FIELD$->TABLES.NAME(NEXT_FIELD);
      268     1555    3               TSN.DCLR(WIN(4)) = FIELD$->TABLES.DEFINED(NEXT_FIELD);
      269     1556    3               IF NEXT_FIELD + 1 < NUMB_FIELD_SN
      270     1557    3               THEN NXT_SN(WIN(4)) = FIELD$->TABLES.DBK(NEXT_FIELD+1);
      271     1558    3               ELSE NXT_SN(WIN(4)) = 0;
      272     1559    3           CASE(%ZIG_RTYPE_SC);
      273     1560    3               NEXT_SET = NEXT_SET + 1;
      274     1561    3               TSN.SENAME(WIN(4)) = SET$->TABLES.NAME(NEXT_SET);
      275     1562    3               TSN.DCLR(WIN(4)) = SET$->TABLES.DEFINED(NEXT_SET);
      276     1563    3               IF NEXT_SET + 1 < NUMB_SET_SN
      277     1564    3               THEN NXT_SN(WIN(4)) = SET$->TABLES.DBK(NEXT_SET+1);
      278     1565    3               ELSE NXT_SN(WIN(4)) = 0;
      279     1566    3           CASE(%ZIG_RTYPE_KC);
      280     1567    3               NEXT_KEY = NEXT_KEY + 1;
      281     1568    3               TSN.SENAME(WIN(4)) = KEY$->TABLES.NAME(NEXT_KEY);
      282     1569    3               TSN.DCLR(WIN(4)) = KEY$->TABLES.DEFINED(NEXT_KEY);
      283     1570    3               IF NEXT_KEY + 1 < NUMB_KEY_SN
      284     1571    3               THEN NXT_SN(WIN(4)) = KEY$->TABLES.DBK(NEXT_KEY+1);
      285     1572    3               ELSE NXT_SN(WIN(4)) = 0;
      286     1573    3               END; /* CASE */
      287     1574    2           END; /* DO */
      288     1575    1       GOTO LEVEL_1_COMP;
      289     1576    1   END_DCLRD:
      290     1577    1       PUTK = 0;
      291     1578    1       O_L ='NAMES REFERENCED BUT NOT DECLARED***';
      292     1579    1       CALL PRNT(O_L,2,0);
      293     1580    2       DO X = 0 TO (Z - 1);
      294     1581    2           CALL FETCHD_6('SN      ',NOT_DCLR(X));
      295     1582    2           SN = UWA.SN;
      296     1583    2           SN_DBK = UWA.DIRECT_REF;
PL6.E3A0      #001=ZIG$D_XREF File=ZIG$D_XREF.:ZIC0TSI                           FRI 09/05/97 12:03 Page:9
      297     1584         /* Ignore system generated records */
      298     1585    2           IF SUBSTR(SN.SENAME, 0, 1) ~= '*' THEN /* */
      299     1586    3           DO;
      300     1587    3               IF SN.SETYPE ~= %ZIG_RTYPE_FR THEN /* */
      301     1588    3                   CALL PUTSNXL;
      302     1589    3               ELSE /* */
      303     1590    4               DO;
      304     1591    4                   CALL FETCHNS_6('SN-SE   ') ALTRET(MERGE_ERR1);
      305     1592    4                   IF UWA.FR.F_USE ~= 1 THEN /* */
      306     1593    4                       CALL PUTSNXL;
      307     1594    5                   DO WHILE ('0'B);
      308     1595    5   MERGE_ERR1:         IF UWA.DB_STATUS = '0502100' THEN
      309     1596    5                           CALL PUTSNXL;
      310     1597    5                       ELSE
      311     1598    5                           GOTO MERGE_ERR;
      312     1599    5                       END; /* WHILE */
      313     1600    4                   END;
      314     1601    3               END;
      315     1602    2           END;
      316     1603    1       IF PUTK = 0 THEN /* */
      317     1604    2       DO;
      318     1605    2           O_L = ' NONE';
      319     1606    2           CALL PRNT(O_L,1,0);
      320     1607    2           END;
      321     1608    1       ELSE /* */
      322     1609    1           PUTK = 0;
      323     1610    1       O_L = 'DATA_BASE_PARAMETERS***';
      324     1611    1       CALL PRNT(O_L,2,0);
      325     1612    2       DO X = 0 TO (Z - 1);
      326     1613    2           CALL FETCHD_6('SN      ',NOT_DCLR(X));
      327     1614    2           SN = UWA.SN;
      328     1615    2           SN_DBK = UWA.DIRECT_REF;
      329     1616    2           IF SUBSTR(SN.SENAME, 0, 1) ~= '*' THEN /* */
      330     1617    3           DO;
      331     1618    3               IF SN.SETYPE = %ZIG_RTYPE_FR THEN /* */
      332     1619    4               DO;
      333     1620    4                   CALL FETCHNS_6('SN-SE   ') ALTRET(MERGE_ERR2);
PL6.E3A0      #001=ZIG$D_XREF File=ZIG$D_XREF.:ZIC0TSI                           FRI 09/05/97 12:03 Page:10
      334     1621    4                   IF UWA.FR.F_USE = 1 THEN /* */
      335     1622    4                       CALL PUTSNXL;
      336     1623    5                   DO WHILE ('0'B);
      337     1624    5   MERGE_ERR2:         IF UWA.DB_STATUS ~= '0502100' THEN
      338     1625    5                           GOTO MERGE_ERR;
      339     1626    5                       END; /* WHILE */
      340     1627    4                   END;
      341     1628    3               END;
      342     1629    2           END;
      343     1630    1       IF PUTK = 0 THEN /* */
      344     1631    2       DO;
      345     1632    2           O_L = ' NONE';
      346     1633    2           CALL PRNT(O_L,1,0);
      347     1634    2           END;
      348     1635    1       O_L = 'DATA_BASE_PRIVACY_LOCKS***';
      349     1636    1       CALL PRNT(O_L,2,0);
      350     1637    1       CALL FETCHNS_6('DA-LK   ') ALTRET(NO_LOCK_NAMES);
      351     1638    1   NEXT_LOCK_NAME:
      352     1639    1       CALL PUTLKXL;
      353     1640    1       CALL FETCHNS_6('DA-LK   ') ALTRET(PROC_NAMES);
      354     1641    1       GOTO NEXT_LOCK_NAME;
      355     1642    1   NO_LOCK_NAMES:
      356     1643    1       O_L = ' NONE';
      357     1644    1       CALL PRNT(O_L,1,0);
      358     1645    1   PROC_NAMES:
      359     1646    1       O_L = 'DATA_BASE_PROCEDURE NAMES***';
      360     1647    1       CALL PRNT(O_L,2,0);
      361     1648    1       CALL FETCHNS_6('DA-PN   ') ALTRET(NO_PROC_NAMES);
      362     1649    1   NEXT_PROC_NAME:
      363     1650    1       CALL PUTPNXL;
      364     1651    1       CALL FETCHNS_6('DA-PN   ') ALTRET(END_MERGE);
      365     1652    1       GOTO NEXT_PROC_NAME;
      366     1653    1   NO_PROC_NAMES:
      367     1654    1       O_L = ' NONE';
      368     1655    1       CALL PRNT(O_L,1,0);
      369     1656    1   END_MERGE:
      370     1657    1       RETURN;
PL6.E3A0      #001=ZIG$D_XREF File=ZIG$D_XREF.:ZIC0TSI                           FRI 09/05/97 12:03 Page:11
      371     1658    1   MERGE_ERR:
      372     1659    1       CALL ABORT;
      373     1660    1   PUTSNXL:
      374     1661    1       PROC;
      375     1662    2   DCL X SBIN WORD;
      376     1663    2   DCL LNO_DIFF UBIN WORD;
      377     1664    2       PUTK = PUTK + 1;
      378     1665    2       LNO_DIFF = 1;
      379     1666    3       DO CASE(UWA.SN.SETYPE);
      380     1667    3       CASE(%ZIG_RTYPE_FR);
      381     1668    3           TYPE = 'FIELD';
      382     1669    3           LNO_DIFF = 0;
      383     1670    3       CASE(%ZIG_RTYPE_RC);
      384     1671    3           TYPE = 'RECORD';
      385     1672    3       CASE(%ZIG_RTYPE_SC);
      386     1673    3           TYPE = 'SET';
      387     1674    3       CASE(%ZIG_RTYPE_KC);
      388     1675    3           TYPE = 'KEY';
      389     1676    3           LNO_DIFF = 0;
      390     1677    3       CASE(%ZIG_RTYPE_AC);
      391     1678    3           TYPE = 'AREA';
      392     1679    3           LNO_DIFF = 0;
      393     1680    3       CASE(%ZIG_RTYPE_OA);
      394     1681    3           TYPE = 'SCHEMA';
      395     1682    3           LNO_DIFF = 0;
      396     1683    3           END; /* CASE */
      397     1684    2   SNX0:
      398     1685    2       NAME = SN.SENAME;
      399     1686    2       FIRST_NRCO_CHECK = '1'B;
      400     1687    2       IF (TYPE = 'FIELD') AND (SN.DCLR = 1 ) THEN /* */
      401     1688    3       DO;
      402     1689    3           DBK = FIELD$->TABLES.DBK_RC(NEXT_FIELD);
      403     1690    3           IF DBK ~= 0 THEN /* not a dbparam */
      404     1691    4           DO;
      405     1692    4               CALL FINDD_6('RC      ',DBK);
      406     1693    4               CALL FETCHOS_6('SN-SE   '); /* SN of owner rec */
      407     1694    4               CALL INDEX(I,' ',UWA.SN.SENAME);
PL6.E3A0      #001=ZIG$D_XREF File=ZIG$D_XREF.:ZIC0TSI                           FRI 09/05/97 12:03 Page:12
      408     1695    4               CALL INDEX(J,' ',NAME);
      409     1696    4               CALL CONCAT(NAME,SUBSTR(NAME,0,J),', (',SUBSTR(UWA.SN.SENAME,0,I),')');
      410     1697    4               CALL FINDD_6('SN      ',SN_DBK); /* restore FR SN */
      411     1698    4               END;
      412     1699    3           END;
      413     1700    2       IF SN.DCLR = 1 THEN /* */
      414     1701    3       DO;
      415     1702    3           CALL CAT_A('DCL') ALTRET(CATER);
      416     1703    3           CALL SET_FIELD_NUM(1,SN.LNO - LNO_DIFF);
      417     1704    3           CALL CAT_A(SUBSTR(FIELD1.TEXT1,0,FIELD1.COUNT1)) ALTRET(CATER);
      418     1705    3           END;
      419     1706    2       CALL FETCHNS_6('SN-NRCO ') ALTRET(SNX2);
      420     1707    2       FIRST_NRCO_CHECK = '0'B;
      421     1708    2       CALL CAT_A('REF') ALTRET( CATER);
      422     1709    2   SNX1:
      423     1710    2       IF UWA.NR.IMPLCT = 1 THEN /* */
      424     1711    2           IMPLICIT = '1'B;
      425     1712    2       CALL SET_FIELD_NUM(1,UWA.NR.LNO - 1);
      426     1713    2       CALL CAT_A(SUBSTR(FIELD1.TEXT1,0,FIELD1.COUNT1)) ALTRET(EOL);
      427     1714    2       IMPLICIT = '0'B;
      428     1715    2       CALL FETCHNS_6('SN-NRCO ') ALTRET(SNX2);
      429     1716    2       GOTO SNX1;
      430     1717    2   SNX2:
      431     1718    2       IF FIRST_NRCO_CHECK AND SN.DCLR = 0 THEN
      432     1719    3       DO;
      433     1720    3           FIRST_NRCO_CHECK = '0'B;
      434     1721    3           CALL CAT_A('REF') ALTRET(CATER);
      435     1722    3           IMPLICIT = '0'B;
      436     1723    3           CALL SET_FIELD_NUM(1,SN.LNO);
      437     1724    3           CALL CAT_A(SUBSTR(FIELD1.TEXT1,0,FIELD1.COUNT1)) ALTRET(EOL);
      438     1725    3           END;
      439     1726    2       CALL PUTL;
      440     1727    2       RETURN;
      441     1728    2   EOL:
      442     1729    2       IMPLICIT = '0'B;
      443     1730    2       CALL PUTL;
      444     1731    2       GOTO SNX1;
PL6.E3A0      #001=ZIG$D_XREF File=ZIG$D_XREF.:ZIC0TSI                           FRI 09/05/97 12:03 Page:13
      445     1732    2   CATER: RETURN;
      446     1733    2   END PUTSNXL;
      447     1734    1   PUTPNXL:
      448     1735    1       PROC;
      449     1736    2       TYPE ='PROCEDURE';
      450     1737    2       NAME = UWA.PN.PNAME;
      451     1738    2       CALL CAT_A('REF') ALTRET(CATER);
      452     1739    2   PNX1:
      453     1740    2       CALL FETCHNS_6('PN-PT   ') ALTRET(PNX2);
      454     1741    2   PNX11:
      455     1742    2       CALL SET_FIELD_NUM(1,UWA.PT.LNO - 1);
      456     1743    2       CALL CAT_A(SUBSTR(FIELD1.TEXT1,0,FIELD1.COUNT1)) ALTRET(EOL);
      457     1744    2       GOTO PNX1;
      458     1745    2   PNX2:
      459     1746    2       CALL PUTL;
      460     1747    2       RETURN;
      461     1748    2   EOL:
      462     1749    2       CALL PUTL;
      463     1750    2       GOTO PNX11;
      464     1751    2   CATER: RETURN;
      465     1752    2   END PUTPNXL;
      466     1753    1   PUTLKXL:
      467     1754    1       PROC;
      468     1755    2       TYPE = 'LOCK';
      469     1756    2       NAME = UWA.LK.PLNAME;
      470     1757    2       CALL CAT_A('REF')ALTRET(CATER);
      471     1758    2   LKX1:
      472     1759    2       CALL FETCHNS_6('LK-LT   ') ALTRET(LKX2);
      473     1760    2   LKX11:
      474     1761    2       CALL SET_FIELD_NUM(1,UWA.LT.LNO - 1);
      475     1762    2       CALL CAT_A(SUBSTR(FIELD1.TEXT1,0,FIELD1.COUNT1)) ALTRET(EOL);
      476     1763    2       GOTO LKX1;
      477     1764    2   LKX2:
      478     1765    2       CALL PUTL;
      479     1766    2       RETURN;
      480     1767    2   EOL:
      481     1768    2       CALL PUTL;
PL6.E3A0      #001=ZIG$D_XREF File=ZIG$D_XREF.:ZIC0TSI                           FRI 09/05/97 12:03 Page:14
      482     1769    2       GOTO LKX11;
      483     1770    2   CATER: RETURN;
      484     1771    2   END PUTLKXL;
      485     1772    1   CAT_A:
      486     1773    1       PROC(ILIT) ALTRET;
      487     1774    2   DCL ILIT CHAR(5);
      488     1775    2   DCL LIT CHAR(7);
      489     1776    2   DCL X UBIN WORD STATIC;
      490     1777    2   DCL Y UBIN WORD STATIC;
      491     1778    2       CALL INDEX(Y,' ',ILIT);
      492     1779    3       IF IMPLICIT THEN DO;
      493     1780    3           CALL CONCAT(LIT,'(',SUBSTR(ILIT,0,Y),')');
      494     1781    3           Y = Y + 2;
      495     1782    3           END;
      496     1783    2       ELSE /* */
      497     1784    2           LIT = ILIT;
      498     1785    2       IF Y < 4 THEN /* */
      499     1786    2           CALL INDEX(X,'     ',ASTRNG);
      500     1787    2       ELSE /* */
      501     1788    2           CALL INDEX(X,'       ',ASTRNG);
      502     1789    2       IF X = LENGTHC(ASTRNG) THEN /* */
      503     1790    2           ALTRETURN;
      504     1791    2       IF X + Y > 55 THEN /* */
      505     1792    2           ALTRETURN;
      506     1793    2       IF (SUBSTR(LIT,0,3) = 'REF') THEN /* */
      507     1794    3       DO;
      508     1795    3           IF X > 5 THEN /* */
      509     1796    3               X = 9;
      510     1797    3           END;
      511     1798    2       CALL INSERT(ASTRNG,X+1,Y,SUBSTR(LIT,0,Y));
      512     1799    2   END CAT_A;
      513     1800    1   CATER:
      514     1801    1       RETURN;
      515     1802    1   PUTL:
      516     1803    1       PROC;
      517     1804    2   DCL NAME45 CHAR(45);
      518     1805    2   DCL X UBIN WORD;
PL6.E3A0      #001=ZIG$D_XREF File=ZIG$D_XREF.:ZIC0TSI                           FRI 09/05/97 12:03 Page:15
      519     1806    2       CALL INDEX(X,'  ',NAME);
      520     1807    2       IF X > 43 THEN
      521     1808    3       DO;
      522     1809    3           CALL CONCAT(O_L,' ',NAME);
      523     1810    3           CALL LIST(O_L);
      524     1811    3           CALL CONCAT(O_L,'                                               ',TYPE,'   '
              1811                    ,ASTRNG);
      525     1812    3           CALL LIST(O_L);
      526     1813    3           END;
      527     1814    2       ELSE /* */
      528     1815    3       DO;
      529     1816    3           NAME45 = NAME;
      530     1817    3           CALL CONCAT(O_L,' ',NAME45,' ',TYPE,'   ',ASTRNG);
      531     1818    3           CALL LIST(O_L);
      532     1819    3           END;
      533     1820    2       NAME = ' ';
      534     1821    2       TYPE = ' ';
      535     1822    2       ASTRNG = ' ';
      536     1823    2   END PUTL;
      537     1824    1   END ZIG$D_XREF;

PL6.E3A0      #001=ZIG$D_XREF File=ZIG$D_XREF.:ZIC0TSI                           FRI 09/05/97 12:03 Page:16
--  Include file information  --

   ZIG_DIR_STRUCS.:ZIC0TOU  cannot be made into a system file and is referenced.
   ZI_SUB4_CAN.:ZIC0TOU  is referenced.
   ZIG_TYPE_SUBS.:ZIC0TOU  is referenced.
   ZIG_GENERAL.:ZIC0TOU  cannot be made into a system file and is referenced.
   ZIG_DBA_INT.:ZIC0TOU  cannot be made into a system file and is referenced.
   B$JIT_C.:E05TOU  was found in the system file and is never referenced.
   CP_6_C.:E05TOU  was found in the system file and is never referenced.
      No diagnostics issued in procedure ZIG$D_XREF.

   Procedure ZIG$D_XREF requires 1206 words for executable code.
   Procedure ZIG$D_XREF requires 116 words of local(AUTO) storage.

    No errors detected in file ZIG$D_XREF.:ZIC0TSI    .

PL6.E3A0      #001=ZIG$D_XREF File=ZIG$D_XREF.:ZIC0TSI                           FRI 09/05/97 12:03 Page:17

 Object Unit name= ZIG$D_XREF                                 File name= ZIG$D_XREF.:ZIC0TOU
 UTS= SEP 05 '97 12:03:28.72 FRI                              Compiler= PL-6/E31         Sev=      00
 SharedLib= :SHARED_SYSTEM                                    Alt SharedLib=


    ****  Control sections  ****

 Sect   Type Bound  Init  Size OctSiz  Section name(segment info)
    0  LblCom even  none     1      1  NUM_ERROR_MSG
    1  LblCom even  none     1      1  NUM_WARN_MSG
    2  LblCom even  none     1      1  ALLOCATE_END
    3  LblCom even  none     2      2  SUBSCHEMA_KEY
    4  LblCom even  none     1      1  BUFFER$
    5  LblCom even  none     1      1  ERROR_IO
    6  LblCom even  none     1      1  BUFFER_LEN
    7  LblCom even  none     2      2  UWA_KEY
    8  LblCom even  none     1      1  NEXT_UWA_SECOND_HALF
    9  LblCom even  none     2      2  RVA_KEY
   10  LblCom even  none     2      2  IA__KEY
   11  LblCom even  none     1      1  NEXT_RVA_SECOND_HALF
   12  LblCom even  none    32     40  SEARCHR_NB
   13  LblCom even  none    32     40  SEM_COM
   14  LblCom even  none    32     40  DMCL_XLATE
   15  LblCom even  none    32     40  Q2_PERCENT
   16  LblCom even  none   656   1220  UWA
   17   Data  even  none   117    165  ZIG$D_XREF
   18  LblCom even  none     8     10  FIELD1
   19  LblCom even  none    12     14  ANALS
   20  LblCom even  none    13     15  PURGE
   21  LblCom even  none    19     23  DICTS
   22  LblCom even  none    23     27  DISPS
   23  LblCom even  none    22     26  VALIDS
   24  LblCom even  none    12     14  LOCKS
   25  LblCom even  none    10     12  STRAN
   26  LblCom even  none    12     14  DTRAN
   27  LblCom even  none    16     20  SSTRANS
   28  LblCom even  none    20     24  SSGEN
PL6.E3A0      #001=ZIG$D_XREF File=ZIG$D_XREF.:ZIC0TSI                           FRI 09/05/97 12:03 Page:18
   29  LblCom even  none     1      1  RECORD$
   30  LblCom even  none     1      1  FIELD$
   31  LblCom even  none     1      1  AREA$
   32  LblCom even  none     1      1  SET$
   33  LblCom even  none     1      1  KEY$
   34  LblCom even  none     1      1  NUMB_RECORD_SN
   35  LblCom even  none     1      1  NUMB_FIELD_SN
   36  LblCom even  none     1      1  NUMB_AREA_SN
   37  LblCom even  none     1      1  NUMB_SET_SN
   38  LblCom even  none     1      1  NUMB_KEY_SN
   39  RoData even  UTS    101    145  ZIG$D_XREF
   40   Proc  even  none  1206   2266  ZIG$D_XREF
   41  RoData even  none    32     40  ZIG$D_XREF

    ****  Entry defs  ****

                              Check   Calling
                             calling  sequence
  Sect OctLoc Primary Altret sequence   type   Parms  Name
    40      0   yes            yes      Std        0  ZIG$D_XREF
PL6.E3A0      #001=ZIG$D_XREF File=ZIG$D_XREF.:ZIC0TSI                           FRI 09/05/97 12:03 Page:19

  ****  Entry refs  ****

         Check        Calling
        calling       sequence
Altret sequence SRef   type   Args  Name
         yes           Std       2 SUBLST
         yes           Std       3 PRNT
 yes     yes           Std       2 FETCHD_6
 yes     yes           Std       1 FETCHNS_6
         yes           Std       2 ZIG$G_DYN_MEM_6
         yes           Std       0 ABORT
 yes     yes           Std       2 FINDD_6
 yes     yes           Std       1 FETCHOS_6
         yes           Std       2 SET_FIELD_NUM
         yes           Std       1 LIST
                       nStd      0 X66_AUTO_0
                       nStd      0 X66_ARET
                       nStd      0 X66_INDEX

  ****  Segment refs  ****

  Flags:  r = read only, s = secondary
Flgs Name                             Flgs Name                             Flgs Name
     ISSID
PL6.E3A0      #001=ZIG$D_XREF File=ZIG$D_XREF.:ZIC0TSI                           FRI 09/05/97 12:03 Page:20


        1        1        /*M* ZIG$D_XREF DDL CROSS REFERENCE IDS/II DBACS   */
        2        2        /*T***********************************************************/
        3        3        /*T*                                                         */
        4        4        /*T* Copyright (c) Bull HN Information Systems Inc., 1997    */
        5        5        /*T*                                                         */
        6        6        /*T***********************************************************/
        7        7        ZIG$D_XREF:
        8        8            PROC;

      8 40 000000   000000 700200 xent  ZIG$D_XREF   TSX0  ! X66_AUTO_0
        40 000001   000164 000000                    ZERO    116,0

        9        9        %INCLUDE ZIG_DBA_INT;
       10       57        %INCLUDE ZIG_GENERAL;
       11      165        %INCLUDE ZIG_TYPE_SUBS;
       12      180        %INCLUDE ZI_SUB4_CAN;
       13      837         %UWA;
       14     1172    1   DCL PUTK UBIN WORD STATIC;
       15     1173    1   DCL PRNT ENTRY(3);
       16     1174    1   DCL O_L CHAR(128) ALIGNED STATIC;
       17     1175    1   DCL 1 FIELD1 EXT,
       18     1176    1         2 COUNT1 UBIN(9) UNAL,
       19     1177    1         2 TEXT1 CHAR(31) UNAL;
       20     1178        %INCLUDE ZIG_DIR_STRUCS;
       21     1308    1   DCL 1 SN DALIGNED,
       22     1309    1         2 DCLR SBIN(36) ALIGNED,
       23     1310    1         2 ESCAPE SBIN(36) ALIGNED,
       24     1311    1         2 SETYPE SBIN(36) ALIGNED,
       25     1312    1         2 LNO SBIN(36) ALIGNED,
       26     1313    1         2 ACTLCKS SBIN(36) ALIGNED,
       27     1314    1         2 SENAME CHAR(30) UNAL;
       28     1315    1   DCL SN_DBK UBIN WORD;
       29     1316    1   DCL C64 CHAR(64);
       30     1317    1   DCL START_NOT_DCLR$ PTR;
       31     1318    1   DCL NEXT_RECORD UBIN WORD STATIC INIT(0);
       32     1319    1   DCL NEXT_FIELD UBIN WORD STATIC INIT(0);
PL6.E3A0      #001=ZIG$D_XREF File=ZIG$D_XREF.:ZIC0TSI                           FRI 09/05/97 12:03 Page:21
       33     1320    1   DCL NEXT_AREA UBIN WORD STATIC INIT(0);
       34     1321    1   DCL NEXT_SET UBIN WORD STATIC INIT(0);
       35     1322    1   DCL NEXT_KEY UBIN WORD STATIC INIT(0);
       36     1323    1   DCL RECORD$ PTR EXT;
       37     1324    1   DCL FIELD$ PTR EXT;
       38     1325    1   DCL AREA$ PTR EXT;
       39     1326    1   DCL SET$ PTR EXT;
       40     1327    1   DCL KEY$ PTR EXT;
       41     1328    1   DCL NUMB_RECORD_SN UBIN (36) EXT;
       42     1329    1   DCL NUMB_FIELD_SN UBIN (36) EXT;
       43     1330    1   DCL NUMB_AREA_SN UBIN (36) EXT;
       44     1331    1   DCL NUMB_SET_SN UBIN (36) EXT;
       45     1332    1   DCL NUMB_KEY_SN UBIN (36) EXT;
       46     1333    1   DCL 1 TABLES(0:0) BASED ALIGNED,
       47     1334    1         2 NAME CHAR(30) CALIGNED,
       48     1335    1         2 DBK UBIN(18) CALIGNED,
       49     1336    1         2 DEFINED BIT (1) UNAL,
       50     1337    1         2 * BIT (17) UNAL,
       51     1338    1         2 DBK_RC UBIN(18) CALIGNED;
       52     1339    1   DCL DBK UBIN WORD;
       53     1340    1   DCL LINE SBIN HALF;
       54     1341    1   DCL FIRST_NRCO_CHECK BIT(1);
       55     1342    1   DCL IMPLICIT BIT(1) STATIC INIT('0'B);
       56     1343    1   DCL NAME CHAR(68);
       57     1344    1   DCL QNAME CHAR(68);
       58     1345    1   DCL TYPE CHAR(12);
       59     1346    1   DCL ASTRNG CHAR(60);
       60     1347    1   DCL I UBIN WORD;
       61     1348    1   DCL J UBIN WORD;
       62     1349    1   DCL WIN(0:5) UBIN WORD STATIC ALIGNED;
       63     1350    1   DCL NXT_SN(0:5) UBIN WORD ALIGNED STATIC;
       64     1351    1   DCL CURR_SN(0:5) UBIN WORD ALIGNED STATIC;
       65     1352    1   DCL 01 TSN(0:5) STATIC ALIGNED,
       66     1353    1         02 SETYPE SBIN (36),
       67     1354    1         02 DCLR BIT(1),
       68     1355    1         02 SENAME CHAR(30);
       69     1356    1   DCL NOT_DCLR(0:0) UBIN WORD ALIGNED BASED(START_NOT_DCLR$);
PL6.E3A0      #001=ZIG$D_XREF File=ZIG$D_XREF.:ZIC0TSI                           FRI 09/05/97 12:03 Page:22
       70     1357    1   DCL P$ PTR STATIC;
       71     1358    1   DCL X UBIN WORD STATIC;
       72     1359    1   DCL Y SBIN WORD STATIC;
       73     1360    1   DCL Z SBIN WORD STATIC;
       74     1361        %EJECT;
PL6.E3A0      #001=ZIG$D_XREF File=ZIG$D_XREF.:ZIC0TSI                           FRI 09/05/97 12:03 Page:23
       75     1362        /* If FRST_AC=0 then nothing got set up right and we can't XREF. */
       76     1363    1       IF UWA.DA.FRST_AC = 0

   1363 40 000002   000415 235000 16                 LDA     UWA+269
        40 000003   000005 601000 40                 TNZ     s:1367

       77     1364    1       THEN
       78     1365    1           RETURN;

   1365 40 000004   000000 702200 xent               TSX2  ! X66_ARET

       79     1366
       80     1367    1       C64 = 'SCHEMA DDL CROSS REFERENCE';

   1367 40 000005   040100 100400                    MLR     fill='040'O
        40 000006   000000 000032 39                 ADSC9   0                        cn=0,n=26
        40 000007   200023 000100                    ADSC9   C64,,AUTO                cn=0,n=64

       81     1368    1       CALL SUBLST(C64);

   1368 40 000010   200023 630500                    EPPR0   C64,,AUTO
        40 000011   200160 450500                    STP0    X+1,,AUTO
        40 000012   200160 630500                    EPPR0   X+1,,AUTO
        40 000013   000000 631400 41                 EPPR1   0
        40 000014   000000 701000 xent               TSX1    SUBLST
        40 000015   000000 011000                    NOP     0

       82     1369    1       NAME = ' ';

   1369 40 000016   040100 100400                    MLR     fill='040'O
        40 000017   000001 000001 41                 ADSC9   1                        cn=0,n=1
        40 000020   200047 000104                    ADSC9   NAME,,AUTO               cn=0,n=68

       83     1370    1       TYPE = ' ';

   1370 40 000021   040100 100400                    MLR     fill='040'O
        40 000022   000001 000001 41                 ADSC9   1                        cn=0,n=1
PL6.E3A0      #001=ZIG$D_XREF File=ZIG$D_XREF.:ZIC0TSI                           FRI 09/05/97 12:03 Page:24
        40 000023   200111 000014                    ADSC9   TYPE,,AUTO               cn=0,n=12

       84     1371    1       ASTRNG = ' ';

   1371 40 000024   040100 100400                    MLR     fill='040'O
        40 000025   000001 000001 41                 ADSC9   1                        cn=0,n=1
        40 000026   200114 000074                    ADSC9   ASTRNG,,AUTO             cn=0,n=60

       85     1372    1       O_L = 'NAMES EXPLICITLY DECLARED***';

   1372 40 000027   040000 100400                    MLR     fill='040'O
        40 000030   000007 000034 39                 ADSC9   7                        cn=0,n=28
        40 000031   000001 000200 17                 ADSC9   O_L                      cn=0,n=128

       86     1373    1       CALL PRNT(O_L, 2, 0);

   1373 40 000032   000005 630400 41                 EPPR0   5
        40 000033   000002 631400 41                 EPPR1   2
        40 000034   000000 701000 xent               TSX1    PRNT
        40 000035   000000 011000                    NOP     0

       87     1374         /**
       88     1375            Init tournament for merge of 5
       89     1376            strings
       90     1377            */
       91     1378    1       CALL ZIG$G_DYN_MEM_6(1,START_NOT_DCLR$);

   1378 40 000036   200043 630500                    EPPR0   START_NOT_DCLR$,,AUTO
        40 000037   200161 450500                    STP0    X+2,,AUTO
        40 000040   000012 236000 41                 LDQ     10
        40 000041   200160 756100                    STQ     X+1,,AUTO
        40 000042   200160 630500                    EPPR0   X+1,,AUTO
        40 000043   000010 631400 41                 EPPR1   8
        40 000044   000000 701000 xent               TSX1    ZIG$G_DYN_MEM_6
        40 000045   000000 011000                    NOP     0

       92     1379    1       P$ = START_NOT_DCLR$;
PL6.E3A0      #001=ZIG$D_XREF File=ZIG$D_XREF.:ZIC0TSI                           FRI 09/05/97 12:03 Page:25

   1379 40 000046   200043 236100                    LDQ     START_NOT_DCLR$,,AUTO
        40 000047   000157 756000 17                 STQ     P$

       93     1380    1       CALL FETCHD_6('DA      ',5); /* always 5 */

   1380 40 000050   000014 630400 41                 EPPR0   12
        40 000051   000010 631400 41                 EPPR1   8
        40 000052   000000 701000 xent               TSX1    FETCHD_6
        40 000053   000000 011000                    NOP     0

       94     1381    1       CURR_SN(0) = 6; /* always schema SN */

   1381 40 000054   000006 235007                    LDA     6,DL
        40 000055   000063 755000 17                 STA     CURR_SN

       95     1382    1       NXT_SN(0) = 0; /* only 1 schema */

   1382 40 000056   000055 450000 17                 STZ     NXT_SN

       96     1383    1       TSN.SETYPE(0) = %ZIG_RTYPE_OA;

   1383 40 000057   000012 236007                    LDQ     10,DL
        40 000060   000071 756000 17                 STQ     TSN

       97     1384    1       TSN.DCLR(0) = '1'B; /* always declared */

   1384 40 000061   400000 236003                    LDQ     -131072,DU
        40 000062   000072 256000 17                 ORSQ    TSN+1

       98     1385    1       TSN.SENAME(0) = STRAN.SNAME;

   1385 40 000063   040000 100400                    MLR     fill='040'O
        40 000064   000001 000036 25                 ADSC9   STRAN+1                  cn=0,n=30
        40 000065   000072 200036 17                 ADSC9   TSN+1                    cn=1,n=30

       99     1386    1       IF UWA.DA.FRST_AC ~= CURR_SN(0) THEN /* */
PL6.E3A0      #001=ZIG$D_XREF File=ZIG$D_XREF.:ZIC0TSI                           FRI 09/05/97 12:03 Page:26

   1386 40 000066   000415 236000 16                 LDQ     UWA+269
        40 000067   000063 116000 17                 CMPQ    CURR_SN
        40 000070   000123 600000 40                 TZE     s:1400

      100     1387    2       DO;

      101     1388    2           CURR_SN(1) = UWA.DA.FRST_AC;

   1388 40 000071   000064 756000 17                 STQ     CURR_SN+1

      102     1389    2           TSN.SETYPE(1) = %ZIG_RTYPE_AC;

   1389 40 000072   000024 235007                    LDA     20,DL
        40 000073   000102 755000 17                 STA     TSN+9

      103     1390    2           TSN.DCLR(1) = AREA$->TABLES.DEFINED(NEXT_AREA);

   1390 40 000074   000043 236000 17                 LDQ     NEXT_AREA
        40 000075   000011 402007                    MPY     9,DL
        40 000076   000000 470400 31                 LDP0    AREA$
        40 000077   000010 236106                    LDQ     8,QL,PR0
        40 000100   000103 676000 17                 ERQ     TSN+10
        40 000101   400000 376003                    ANQ     -131072,DU
        40 000102   000103 656000 17                 ERSQ    TSN+10

      104     1391    2           TSN.SENAME(1) = AREA$->TABLES.NAME(NEXT_AREA);

   1391 40 000103   000043 236000 17                 LDQ     NEXT_AREA
        40 000104   000044 402007                    MPY     36,DL
        40 000105   040000 100506                    MLR     fill='040'O
        40 000106   000000 000036                    ADSC9   0,Q,PR0                  cn=0,n=30
        40 000107   000103 200036 17                 ADSC9   TSN+10                   cn=1,n=30

      105     1392    2           IF NUMB_AREA_SN > 1 THEN /* */

   1392 40 000110   000000 235000 36                 LDA     NUMB_AREA_SN
PL6.E3A0      #001=ZIG$D_XREF File=ZIG$D_XREF.:ZIC0TSI                           FRI 09/05/97 12:03 Page:27
        40 000111   000002 115007                    CMPA    2,DL
        40 000112   000121 602000 40                 TNC     NO_NXT_AC

      106     1393    2               NXT_SN(1) = AREA$->TABLES.DBK(NEXT_AREA+1);

   1393 40 000113   000043 236000 17                 LDQ     NEXT_AREA
        40 000114   000011 402007                    MPY     9,DL
        40 000115   000020 236106                    LDQ     16,QL,PR0
        40 000116   777777 376007                    ANQ     -1,DL
        40 000117   000056 756000 17                 STQ     NXT_SN+1
        40 000120   000131 710000 40                 TRA     s:1405

      107     1394    2           ELSE /* */
      108     1395    2   NO_NXT_AC:
      109     1396    2               NXT_SN(1) = 0;

   1396 40 000121   000056 450000 17    NO_NXT_AC    STZ     NXT_SN+1

      110     1397    2           END;

   1397 40 000122   000131 710000 40                 TRA     s:1405

      111     1398    1       ELSE /* */
      112     1399    2       DO;

      113     1400    2           CURR_SN(1) = 0;

   1400 40 000123   000064 450000 17                 STZ     CURR_SN+1

      114     1401    2           NXT_SN(1) = 0;

   1401 40 000124   000056 450000 17                 STZ     NXT_SN+1

      115     1402    2           TSN.SETYPE(1) =0;

   1402 40 000125   000102 450000 17                 STZ     TSN+9

PL6.E3A0      #001=ZIG$D_XREF File=ZIG$D_XREF.:ZIC0TSI                           FRI 09/05/97 12:03 Page:28
      116     1403    2           TSN.SENAME(1) ='ZZZZZZZZZZZZZZZZZZZZZZZZZZZZZZ';

   1403 40 000126   040000 100400                    MLR     fill='040'O
        40 000127   000020 000036 39                 ADSC9   16                       cn=0,n=30
        40 000130   000103 200036 17                 ADSC9   TSN+10                   cn=1,n=30

      117     1404    2           END;

      118     1405    1       IF UWA.DA.FRST_RC ~= CURR_SN(0) THEN /* */

   1405 40 000131   000416 236000 16                 LDQ     UWA+270
        40 000132   000063 116000 17                 CMPQ    CURR_SN
        40 000133   000166 600000 40                 TZE     s:1419

      119     1406    2       DO;

      120     1407    2           CURR_SN(2) = UWA.DA.FRST_RC;

   1407 40 000134   000065 756000 17                 STQ     CURR_SN+2

      121     1408    2           TSN.SETYPE(2) = %ZIG_RTYPE_RC;

   1408 40 000135   000050 235007                    LDA     40,DL
        40 000136   000113 755000 17                 STA     TSN+18

      122     1409    2           TSN.DCLR(2) = RECORD$->TABLES.DEFINED(NEXT_RECORD);

   1409 40 000137   000041 236000 17                 LDQ     NEXT_RECORD
        40 000140   000011 402007                    MPY     9,DL
        40 000141   000000 470400 29                 LDP0    RECORD$
        40 000142   000010 236106                    LDQ     8,QL,PR0
        40 000143   000114 676000 17                 ERQ     TSN+19
        40 000144   400000 376003                    ANQ     -131072,DU
        40 000145   000114 656000 17                 ERSQ    TSN+19

      123     1410    2           TSN.SENAME(2) = RECORD$->TABLES.NAME(NEXT_RECORD);

PL6.E3A0      #001=ZIG$D_XREF File=ZIG$D_XREF.:ZIC0TSI                           FRI 09/05/97 12:03 Page:29
   1410 40 000146   000041 236000 17                 LDQ     NEXT_RECORD
        40 000147   000044 402007                    MPY     36,DL
        40 000150   040000 100506                    MLR     fill='040'O
        40 000151   000000 000036                    ADSC9   0,Q,PR0                  cn=0,n=30
        40 000152   000114 200036 17                 ADSC9   TSN+19                   cn=1,n=30

      124     1411    2           IF NUMB_RECORD_SN > 1 THEN /* */

   1411 40 000153   000000 235000 34                 LDA     NUMB_RECORD_SN
        40 000154   000002 115007                    CMPA    2,DL
        40 000155   000164 602000 40                 TNC     NO_NXT_RC

      125     1412    2               NXT_SN(2) = RECORD$->TABLES.DBK(NEXT_RECORD+1);

   1412 40 000156   000041 236000 17                 LDQ     NEXT_RECORD
        40 000157   000011 402007                    MPY     9,DL
        40 000160   000020 236106                    LDQ     16,QL,PR0
        40 000161   777777 376007                    ANQ     -1,DL
        40 000162   000057 756000 17                 STQ     NXT_SN+2
        40 000163   000174 710000 40                 TRA     s:1424

      126     1413    2           ELSE /* */
      127     1414    2   NO_NXT_RC:
      128     1415    2               NXT_SN(2) = 0;

   1415 40 000164   000057 450000 17    NO_NXT_RC    STZ     NXT_SN+2

      129     1416    2           END;

   1416 40 000165   000174 710000 40                 TRA     s:1424

      130     1417    1       ELSE /* */
      131     1418    2       DO;

      132     1419    2           CURR_SN(2) = 0;

   1419 40 000166   000065 450000 17                 STZ     CURR_SN+2
PL6.E3A0      #001=ZIG$D_XREF File=ZIG$D_XREF.:ZIC0TSI                           FRI 09/05/97 12:03 Page:30

      133     1420    2           NXT_SN(2) = 0;

   1420 40 000167   000057 450000 17                 STZ     NXT_SN+2

      134     1421    2           TSN.SETYPE(2) =0;

   1421 40 000170   000113 450000 17                 STZ     TSN+18

      135     1422    2           TSN.SENAME(2) ='ZZZZZZZZZZZZZZZZZZZZZZZZZZZZZZ';

   1422 40 000171   040000 100400                    MLR     fill='040'O
        40 000172   000020 000036 39                 ADSC9   16                       cn=0,n=30
        40 000173   000114 200036 17                 ADSC9   TSN+19                   cn=1,n=30

      136     1423    2           END;

      137     1424    1       IF UWA.DA.FRST_FR ~= CURR_SN(0) THEN /* */

   1424 40 000174   000421 236000 16                 LDQ     UWA+273
        40 000175   000063 116000 17                 CMPQ    CURR_SN
        40 000176   000231 600000 40                 TZE     s:1438

      138     1425    2       DO;

      139     1426    2           CURR_SN(3) = UWA.DA.FRST_FR;

   1426 40 000177   000066 756000 17                 STQ     CURR_SN+3

      140     1427    2           TSN.SETYPE(3) = %ZIG_RTYPE_FR;

   1427 40 000200   000062 235007                    LDA     50,DL
        40 000201   000124 755000 17                 STA     TSN+27

      141     1428    2           TSN.DCLR(3) = FIELD$->TABLES.DEFINED(NEXT_FIELD);

   1428 40 000202   000042 236000 17                 LDQ     NEXT_FIELD
PL6.E3A0      #001=ZIG$D_XREF File=ZIG$D_XREF.:ZIC0TSI                           FRI 09/05/97 12:03 Page:31
        40 000203   000011 402007                    MPY     9,DL
        40 000204   000000 470400 30                 LDP0    FIELD$
        40 000205   000010 236106                    LDQ     8,QL,PR0
        40 000206   000125 676000 17                 ERQ     TSN+28
        40 000207   400000 376003                    ANQ     -131072,DU
        40 000210   000125 656000 17                 ERSQ    TSN+28

      142     1429    2           TSN.SENAME(3) = FIELD$->TABLES.NAME(NEXT_FIELD);

   1429 40 000211   000042 236000 17                 LDQ     NEXT_FIELD
        40 000212   000044 402007                    MPY     36,DL
        40 000213   040000 100506                    MLR     fill='040'O
        40 000214   000000 000036                    ADSC9   0,Q,PR0                  cn=0,n=30
        40 000215   000125 200036 17                 ADSC9   TSN+28                   cn=1,n=30

      143     1430    2           IF NUMB_FIELD_SN > 1 THEN /* */

   1430 40 000216   000000 235000 35                 LDA     NUMB_FIELD_SN
        40 000217   000002 115007                    CMPA    2,DL
        40 000220   000227 602000 40                 TNC     NO_NXT_FR

      144     1431    2               NXT_SN(3) = FIELD$->TABLES.DBK(NEXT_FIELD+1);

   1431 40 000221   000042 236000 17                 LDQ     NEXT_FIELD
        40 000222   000011 402007                    MPY     9,DL
        40 000223   000020 236106                    LDQ     16,QL,PR0
        40 000224   777777 376007                    ANQ     -1,DL
        40 000225   000060 756000 17                 STQ     NXT_SN+3
        40 000226   000237 710000 40                 TRA     s:1443

      145     1432    2           ELSE /* */
      146     1433    2   NO_NXT_FR:
      147     1434    2               NXT_SN(3) = 0;

   1434 40 000227   000060 450000 17    NO_NXT_FR    STZ     NXT_SN+3

      148     1435    2           END;
PL6.E3A0      #001=ZIG$D_XREF File=ZIG$D_XREF.:ZIC0TSI                           FRI 09/05/97 12:03 Page:32

   1435 40 000230   000237 710000 40                 TRA     s:1443

      149     1436    1       ELSE /* */
      150     1437    2       DO;

      151     1438    2           CURR_SN(3) = 0;

   1438 40 000231   000066 450000 17                 STZ     CURR_SN+3

      152     1439    2           NXT_SN(3) = 0;

   1439 40 000232   000060 450000 17                 STZ     NXT_SN+3

      153     1440    2           TSN.SETYPE(3) =0;

   1440 40 000233   000124 450000 17                 STZ     TSN+27

      154     1441    2           TSN.SENAME(3) ='ZZZZZZZZZZZZZZZZZZZZZZZZZZZZZZ';

   1441 40 000234   040000 100400                    MLR     fill='040'O
        40 000235   000020 000036 39                 ADSC9   16                       cn=0,n=30
        40 000236   000125 200036 17                 ADSC9   TSN+28                   cn=1,n=30

      155     1442    2           END;

      156     1443    1       IF UWA.DA.FRST_SC ~= CURR_SN(0) THEN /* */

   1443 40 000237   000417 236000 16                 LDQ     UWA+271
        40 000240   000063 116000 17                 CMPQ    CURR_SN
        40 000241   000274 600000 40                 TZE     s:1457

      157     1444    2       DO;

      158     1445    2           CURR_SN(4) = UWA.DA.FRST_SC;

   1445 40 000242   000067 756000 17                 STQ     CURR_SN+4
PL6.E3A0      #001=ZIG$D_XREF File=ZIG$D_XREF.:ZIC0TSI                           FRI 09/05/97 12:03 Page:33

      159     1446    2           TSN.SETYPE(4) = %ZIG_RTYPE_SC;

   1446 40 000243   000036 235007                    LDA     30,DL
        40 000244   000135 755000 17                 STA     TSN+36

      160     1447    2           TSN.DCLR(4) = SET$->TABLES.DEFINED(NEXT_SET);

   1447 40 000245   000044 236000 17                 LDQ     NEXT_SET
        40 000246   000011 402007                    MPY     9,DL
        40 000247   000000 470400 32                 LDP0    SET$
        40 000250   000010 236106                    LDQ     8,QL,PR0
        40 000251   000136 676000 17                 ERQ     TSN+37
        40 000252   400000 376003                    ANQ     -131072,DU
        40 000253   000136 656000 17                 ERSQ    TSN+37

      161     1448    2           TSN.SENAME(4) = SET$->TABLES.NAME(NEXT_SET);

   1448 40 000254   000044 236000 17                 LDQ     NEXT_SET
        40 000255   000044 402007                    MPY     36,DL
        40 000256   040000 100506                    MLR     fill='040'O
        40 000257   000000 000036                    ADSC9   0,Q,PR0                  cn=0,n=30
        40 000260   000136 200036 17                 ADSC9   TSN+37                   cn=1,n=30

      162     1449    2           IF NUMB_SET_SN > 1 THEN /* */

   1449 40 000261   000000 235000 37                 LDA     NUMB_SET_SN
        40 000262   000002 115007                    CMPA    2,DL
        40 000263   000272 602000 40                 TNC     NO_NXT_SC

      163     1450    2               NXT_SN(4) = SET$->TABLES.DBK(NEXT_SET+1);

   1450 40 000264   000044 236000 17                 LDQ     NEXT_SET
        40 000265   000011 402007                    MPY     9,DL
        40 000266   000020 236106                    LDQ     16,QL,PR0
        40 000267   777777 376007                    ANQ     -1,DL
        40 000270   000061 756000 17                 STQ     NXT_SN+4
PL6.E3A0      #001=ZIG$D_XREF File=ZIG$D_XREF.:ZIC0TSI                           FRI 09/05/97 12:03 Page:34
        40 000271   000302 710000 40                 TRA     s:1462

      164     1451    2           ELSE /* */
      165     1452    2   NO_NXT_SC:
      166     1453    2               NXT_SN(4) = 0;

   1453 40 000272   000061 450000 17    NO_NXT_SC    STZ     NXT_SN+4

      167     1454    2           END;

   1454 40 000273   000302 710000 40                 TRA     s:1462

      168     1455    1       ELSE /* */
      169     1456    2       DO;

      170     1457    2           CURR_SN(4) = 0;

   1457 40 000274   000067 450000 17                 STZ     CURR_SN+4

      171     1458    2           NXT_SN(4) = 0;

   1458 40 000275   000061 450000 17                 STZ     NXT_SN+4

      172     1459    2           TSN.SETYPE(4) =0;

   1459 40 000276   000135 450000 17                 STZ     TSN+36

      173     1460    2           TSN.SENAME(4) ='ZZZZZZZZZZZZZZZZZZZZZZZZZZZZZZ';

   1460 40 000277   040000 100400                    MLR     fill='040'O
        40 000300   000020 000036 39                 ADSC9   16                       cn=0,n=30
        40 000301   000136 200036 17                 ADSC9   TSN+37                   cn=1,n=30

      174     1461    2           END;

      175     1462    1       IF UWA.DA.FRST_KC ~= CURR_SN(0) THEN /* */

PL6.E3A0      #001=ZIG$D_XREF File=ZIG$D_XREF.:ZIC0TSI                           FRI 09/05/97 12:03 Page:35
   1462 40 000302   000420 236000 16                 LDQ     UWA+272
        40 000303   000063 116000 17                 CMPQ    CURR_SN
        40 000304   000337 600000 40                 TZE     s:1476

      176     1463    2       DO;

      177     1464    2           CURR_SN(5) = UWA.DA.FRST_KC;

   1464 40 000305   000070 756000 17                 STQ     CURR_SN+5

      178     1465    2           TSN.SETYPE(5) = %ZIG_RTYPE_KC;

   1465 40 000306   000037 235007                    LDA     31,DL
        40 000307   000146 755000 17                 STA     TSN+45

      179     1466    2           TSN.DCLR(5) = KEY$->TABLES.DEFINED(NEXT_KEY);

   1466 40 000310   000045 236000 17                 LDQ     NEXT_KEY
        40 000311   000011 402007                    MPY     9,DL
        40 000312   000000 470400 33                 LDP0    KEY$
        40 000313   000010 236106                    LDQ     8,QL,PR0
        40 000314   000147 676000 17                 ERQ     TSN+46
        40 000315   400000 376003                    ANQ     -131072,DU
        40 000316   000147 656000 17                 ERSQ    TSN+46

      180     1467    2           TSN.SENAME(5) = KEY$->TABLES.NAME(NEXT_KEY);

   1467 40 000317   000045 236000 17                 LDQ     NEXT_KEY
        40 000320   000044 402007                    MPY     36,DL
        40 000321   040000 100506                    MLR     fill='040'O
        40 000322   000000 000036                    ADSC9   0,Q,PR0                  cn=0,n=30
        40 000323   000147 200036 17                 ADSC9   TSN+46                   cn=1,n=30

      181     1468    2           IF NUMB_KEY_SN > 1 THEN /* */

   1468 40 000324   000000 235000 38                 LDA     NUMB_KEY_SN
        40 000325   000002 115007                    CMPA    2,DL
PL6.E3A0      #001=ZIG$D_XREF File=ZIG$D_XREF.:ZIC0TSI                           FRI 09/05/97 12:03 Page:36
        40 000326   000335 602000 40                 TNC     NO_NXT_KC

      182     1469    2               NXT_SN(5) = KEY$->TABLES.DBK(NEXT_KEY+1);

   1469 40 000327   000045 236000 17                 LDQ     NEXT_KEY
        40 000330   000011 402007                    MPY     9,DL
        40 000331   000020 236106                    LDQ     16,QL,PR0
        40 000332   777777 376007                    ANQ     -1,DL
        40 000333   000062 756000 17                 STQ     NXT_SN+5
        40 000334   000345 710000 40                 TRA     s:1481

      183     1470    2           ELSE /* */
      184     1471    2   NO_NXT_KC:
      185     1472    2               NXT_SN(5) = 0;

   1472 40 000335   000062 450000 17    NO_NXT_KC    STZ     NXT_SN+5

      186     1473    2           END;

   1473 40 000336   000345 710000 40                 TRA     s:1481

      187     1474    1       ELSE /* */
      188     1475    2       DO;

      189     1476    2           CURR_SN(5) = 0;

   1476 40 000337   000070 450000 17                 STZ     CURR_SN+5

      190     1477    2           NXT_SN(5) = 0;

   1477 40 000340   000062 450000 17                 STZ     NXT_SN+5

      191     1478    2           TSN.SETYPE(5) =0;

   1478 40 000341   000146 450000 17                 STZ     TSN+45

      192     1479    2           TSN.SENAME(5) ='ZZZZZZZZZZZZZZZZZZZZZZZZZZZZZZ';
PL6.E3A0      #001=ZIG$D_XREF File=ZIG$D_XREF.:ZIC0TSI                           FRI 09/05/97 12:03 Page:37

   1479 40 000342   040000 100400                    MLR     fill='040'O
        40 000343   000020 000036 39                 ADSC9   16                       cn=0,n=30
        40 000344   000147 200036 17                 ADSC9   TSN+46                   cn=1,n=30

      193     1480    2           END;

      194     1481    1       Z = 0;

   1481 40 000345   000162 450000 17                 STZ     Z

      195     1482         /**
      196     1483            Init complete. Do level 1 compares
      197     1484            */
      198     1485    1   LEVEL_1_COMP:
      199     1486    1       Y = -1;

   1486 40 000346   000001 335007       LEVEL_1_COMP LCA     1,DL
        40 000347   000161 755000 17                 STA     Y

      200     1487    2       DO X = 0 TO 4 BY 2;

   1487 40 000350   000160 450000 17                 STZ     X

      201     1488    2           Y = Y + 1;

   1488 40 000351   000161 054000 17                 AOS     Y

      202     1489    2           IF TSN.SENAME(X) < TSN.SENAME(X + 1) THEN /* */

   1489 40 000352   000160 236000 17                 LDQ     X
        40 000353   000044 402007                    MPY     36,DL
        40 000354   040006 106406                    CMPC    fill='040'O
        40 000355   000072 200036 17                 ADSC9   TSN+1,Q                  cn=1,n=30
        40 000356   000103 200036 17                 ADSC9   TSN+10,Q                 cn=1,n=30
        40 000357   000364 603000 40                 TRC     s:1492

PL6.E3A0      #001=ZIG$D_XREF File=ZIG$D_XREF.:ZIC0TSI                           FRI 09/05/97 12:03 Page:38
      203     1490    2               WIN(Y) = X;

   1490 40 000360   000161 720000 17                 LXL0    Y
        40 000361   000160 235000 17                 LDA     X
        40 000362   000047 755010 17                 STA     WIN,X0
        40 000363   000370 710000 40                 TRA     s:1493

      204     1491    2           ELSE /* */
      205     1492    2               WIN(Y) = X + 1;

   1492 40 000364   000161 720000 17                 LXL0    Y
        40 000365   000160 235000 17                 LDA     X
        40 000366   000001 035007                    ADLA    1,DL
        40 000367   000047 755010 17                 STA     WIN,X0

      206     1493    2           END;

   1493 40 000370   000160 235000 17                 LDA     X
        40 000371   000002 035007                    ADLA    2,DL
        40 000372   000160 755000 17                 STA     X
        40 000373   000005 115007                    CMPA    5,DL
        40 000374   000351 602000 40                 TNC     s:1488

      207     1494         /**
      208     1495            Level 2 compares
      209     1496            */
      210     1497    1       IF TSN.SENAME(WIN(0)) < TSN.SENAME(WIN(1)) THEN /* */

   1497 40 000375   000047 236000 17                 LDQ     WIN
        40 000376   000044 402007                    MPY     36,DL
        40 000377   200160 756100                    STQ     X+1,,AUTO
        40 000400   000050 236000 17                 LDQ     WIN+1
        40 000401   000044 402007                    MPY     36,DL
        40 000402   200160 235100                    LDA     X+1,,AUTO
        40 000403   040006 106405                    CMPC    fill='040'O
        40 000404   000072 200036 17                 ADSC9   TSN+1,A                  cn=1,n=30
        40 000405   000072 200036 17                 ADSC9   TSN+1,Q                  cn=1,n=30
PL6.E3A0      #001=ZIG$D_XREF File=ZIG$D_XREF.:ZIC0TSI                           FRI 09/05/97 12:03 Page:39
        40 000406   000412 603000 40                 TRC     s:1500

      211     1498    1           WIN(3) = WIN(0);

   1498 40 000407   000047 235000 17                 LDA     WIN
        40 000410   000052 755000 17                 STA     WIN+3
        40 000411   000414 710000 40                 TRA     s:1504

      212     1499    1       ELSE /* */
      213     1500    1           WIN(3) = WIN(1);

   1500 40 000412   000050 235000 17                 LDA     WIN+1
        40 000413   000052 755000 17                 STA     WIN+3

      214     1501         /**
      215     1502            Level 3 compares
      216     1503            */
      217     1504    1       IF TSN.SENAME(WIN(2)) < TSN.SENAME(WIN(3)) THEN /* */

   1504 40 000414   000051 236000 17                 LDQ     WIN+2
        40 000415   000044 402007                    MPY     36,DL
        40 000416   200160 756100                    STQ     X+1,,AUTO
        40 000417   000052 236000 17                 LDQ     WIN+3
        40 000420   000044 402007                    MPY     36,DL
        40 000421   200160 235100                    LDA     X+1,,AUTO
        40 000422   040006 106405                    CMPC    fill='040'O
        40 000423   000072 200036 17                 ADSC9   TSN+1,A                  cn=1,n=30
        40 000424   000072 200036 17                 ADSC9   TSN+1,Q                  cn=1,n=30
        40 000425   000431 603000 40                 TRC     s:1507

      218     1505    1           WIN(4) = WIN(2);

   1505 40 000426   000051 235000 17                 LDA     WIN+2
        40 000427   000053 755000 17                 STA     WIN+4
        40 000430   000433 710000 40                 TRA     s:1511

      219     1506    1       ELSE /* */
PL6.E3A0      #001=ZIG$D_XREF File=ZIG$D_XREF.:ZIC0TSI                           FRI 09/05/97 12:03 Page:40
      220     1507    1           WIN(4) = WIN(3);

   1507 40 000431   000052 235000 17                 LDA     WIN+3
        40 000432   000053 755000 17                 STA     WIN+4

      221     1508         /**
      222     1509            Winner now TSN(WIN(4))
      223     1510            */
      224     1511    1       IF TSN.SENAME(WIN(4)) ='ZZZZZZZZZZZZZZZZZZZZZZZZZZZZZZ' THEN /* */

   1511 40 000433   000053 236000 17                 LDQ     WIN+4
        40 000434   000044 402007                    MPY     36,DL
        40 000435   040000 106406                    CMPC    fill='040'O
        40 000436   000072 200036 17                 ADSC9   TSN+1,Q                  cn=1,n=30
        40 000437   000020 000036 39                 ADSC9   16                       cn=0,n=30
        40 000440   001034 600000 40                 TZE     END_DCLRD

      225     1512    1           GOTO END_DCLRD;
      226     1513    1       CALL FETCHD_6('SN      ',CURR_SN(WIN(4)));

   1513 40 000441   000053 721000 17                 LXL1    WIN+4
        40 000442   000063 630411 17                 EPPR0   CURR_SN,X1
        40 000443   200161 450500                    STP0    X+2,,AUTO
        40 000444   000016 236000 41                 LDQ     14
        40 000445   200160 756100                    STQ     X+1,,AUTO
        40 000446   200160 630500                    EPPR0   X+1,,AUTO
        40 000447   000010 631400 41                 EPPR1   8
        40 000450   000000 701000 xent               TSX1    FETCHD_6
        40 000451   000000 011000                    NOP     0

      227     1514    1       SN = UWA.SN;

   1514 40 000452   000100 100400                    MLR     fill='000'O
        40 000453   000422 000062 16                 ADSC9   UWA+274                  cn=0,n=50
        40 000454   200004 000062                    ADSC9   SN,,AUTO                 cn=0,n=50

      228     1515    1       SN_DBK = UWA.DIRECT_REF;
PL6.E3A0      #001=ZIG$D_XREF File=ZIG$D_XREF.:ZIC0TSI                           FRI 09/05/97 12:03 Page:41

   1515 40 000455   000036 235000 16                 LDA     UWA+30
        40 000456   200022 755100                    STA     SN_DBK,,AUTO

      229     1516    1       IF SN.DCLR = 1 THEN /* */

   1516 40 000457   200004 236100                    LDQ     SN,,AUTO
        40 000460   000001 116007                    CMPQ    1,DL
        40 000461   000465 601000 40                 TNZ     s:1520

      230     1517    1           CALL PUTSNXL;

   1517 40 000462   001324 701000 40                 TSX1    PUTSNXL
        40 000463   000000 011000                    NOP     0
        40 000464   000476 710000 40                 TRA     s:1528

      231     1518    1       ELSE /* */
      232     1519    2       DO;

      233     1520    2           CALL ZIG$G_DYN_MEM_6(1,P$);

   1520 40 000465   000017 630400 41                 EPPR0   15
        40 000466   000010 631400 41                 EPPR1   8
        40 000467   000000 701000 xent               TSX1    ZIG$G_DYN_MEM_6
        40 000470   000000 011000                    NOP     0

      234     1521    2           START_NOT_DCLR$->NOT_DCLR(Z) = UWA.DIRECT_REF;

   1521 40 000471   200043 470500                    LDP0    START_NOT_DCLR$,,AUTO
        40 000472   000162 720000 17                 LXL0    Z
        40 000473   000036 235000 16                 LDA     UWA+30
        40 000474   000000 755110                    STA     0,X0,PR0

      235     1522    2           Z = Z + 1;

   1522 40 000475   000162 054000 17                 AOS     Z

PL6.E3A0      #001=ZIG$D_XREF File=ZIG$D_XREF.:ZIC0TSI                           FRI 09/05/97 12:03 Page:42
      236     1523    2           END;

      237     1524         /**
      238     1525            Replace tournament winner with
      239     1526            next of type
      240     1527            */
      241     1528    1       IF NXT_SN(WIN(4)) = 0 THEN /* */

   1528 40 000476   000053 720000 17                 LXL0    WIN+4
        40 000477   000055 235010 17                 LDA     NXT_SN,X0
        40 000500   000513 601000 40                 TNZ     s:1536

      242     1529    2       DO;

      243     1530    2           CURR_SN(WIN(4)) = 0;

   1530 40 000501   000063 450010 17                 STZ     CURR_SN,X0

      244     1531    2           TSN.SENAME(WIN(4)) ='ZZZZZZZZZZZZZZZZZZZZZZZZZZZZZZ';

   1531 40 000502   000053 236000 17                 LDQ     WIN+4
        40 000503   000044 402007                    MPY     36,DL
        40 000504   040006 100400                    MLR     fill='040'O
        40 000505   000020 000036 39                 ADSC9   16                       cn=0,n=30
        40 000506   000072 200036 17                 ADSC9   TSN+1,Q                  cn=1,n=30

      245     1532    2           TSN.SETYPE(WIN(4)) =0;

   1532 40 000507   000053 236000 17                 LDQ     WIN+4
        40 000510   000011 402007                    MPY     9,DL
        40 000511   000071 450006 17                 STZ     TSN,QL

      246     1533    2           END;

   1533 40 000512   001033 710000 40                 TRA     s:1575

      247     1534    1       ELSE /* */
PL6.E3A0      #001=ZIG$D_XREF File=ZIG$D_XREF.:ZIC0TSI                           FRI 09/05/97 12:03 Page:43
      248     1535    2       DO;

      249     1536    2           CURR_SN(WIN(4)) = NXT_SN(WIN(4));

   1536 40 000513   000063 755010 17                 STA     CURR_SN,X0

      250     1537    3           DO CASE(TSN.SETYPE(WIN(4)));

   1537 40 000514   000053 236000 17                 LDQ     WIN+4
        40 000515   000011 402007                    MPY     9,DL
        40 000516   000071 235006 17                 LDA     TSN,QL
        40 000517   000024 135007                    SBLA    20,DL
        40 000520   000037 115007                    CMPA    31,DL
        40 000521   000523 602005 40                 TNC     s:1537+7,AL
        40 000522   001033 710000 40                 TRA     s:1575
        40 000523   000562 710000 40                 TRA     s:1539
        40 000524   001033 710000 40                 TRA     s:1575
        40 000525   001033 710000 40                 TRA     s:1575
        40 000526   001033 710000 40                 TRA     s:1575
        40 000527   001033 710000 40                 TRA     s:1575
        40 000530   001033 710000 40                 TRA     s:1575
        40 000531   001033 710000 40                 TRA     s:1575
        40 000532   001033 710000 40                 TRA     s:1575
        40 000533   001033 710000 40                 TRA     s:1575
        40 000534   001033 710000 40                 TRA     s:1575
        40 000535   000730 710000 40                 TRA     s:1560
        40 000536   000772 710000 40                 TRA     s:1567
        40 000537   001033 710000 40                 TRA     s:1575
        40 000540   001033 710000 40                 TRA     s:1575
        40 000541   001033 710000 40                 TRA     s:1575
        40 000542   001033 710000 40                 TRA     s:1575
        40 000543   001033 710000 40                 TRA     s:1575
        40 000544   001033 710000 40                 TRA     s:1575
        40 000545   001033 710000 40                 TRA     s:1575
        40 000546   001033 710000 40                 TRA     s:1575
        40 000547   000624 710000 40                 TRA     s:1546
        40 000550   001033 710000 40                 TRA     s:1575
PL6.E3A0      #001=ZIG$D_XREF File=ZIG$D_XREF.:ZIC0TSI                           FRI 09/05/97 12:03 Page:44
        40 000551   001033 710000 40                 TRA     s:1575
        40 000552   001033 710000 40                 TRA     s:1575
        40 000553   001033 710000 40                 TRA     s:1575
        40 000554   001033 710000 40                 TRA     s:1575
        40 000555   001033 710000 40                 TRA     s:1575
        40 000556   001033 710000 40                 TRA     s:1575
        40 000557   001033 710000 40                 TRA     s:1575
        40 000560   001033 710000 40                 TRA     s:1575
        40 000561   000666 710000 40                 TRA     s:1553

      251     1538    3           CASE(%ZIG_RTYPE_AC);

      252     1539    3               NEXT_AREA = NEXT_AREA + 1;

   1539 40 000562   000043 235000 17                 LDA     NEXT_AREA
        40 000563   000001 035007                    ADLA    1,DL
        40 000564   000043 755000 17                 STA     NEXT_AREA

      253     1540    3               TSN.SENAME(WIN(4)) = AREA$->TABLES.NAME(NEXT_AREA);

   1540 40 000565   000043 236000 17                 LDQ     NEXT_AREA
        40 000566   000044 402007                    MPY     36,DL
        40 000567   200160 756100                    STQ     X+1,,AUTO
        40 000570   000053 236000 17                 LDQ     WIN+4
        40 000571   000044 402007                    MPY     36,DL
        40 000572   000000 470400 31                 LDP0    AREA$
        40 000573   200160 235100                    LDA     X+1,,AUTO
        40 000574   040006 100505                    MLR     fill='040'O
        40 000575   000000 000036                    ADSC9   0,A,PR0                  cn=0,n=30
        40 000576   000072 200036 17                 ADSC9   TSN+1,Q                  cn=1,n=30

      254     1541    3               TSN.DCLR(WIN(4)) = AREA$->TABLES.DEFINED(NEXT_AREA);

   1541 40 000577   000053 236000 17                 LDQ     WIN+4
        40 000600   000011 402007                    MPY     9,DL
        40 000601   000000 621006                    EAX1    0,QL
        40 000602   000043 236000 17                 LDQ     NEXT_AREA
PL6.E3A0      #001=ZIG$D_XREF File=ZIG$D_XREF.:ZIC0TSI                           FRI 09/05/97 12:03 Page:45
        40 000603   000011 402007                    MPY     9,DL
        40 000604   000010 236106                    LDQ     8,QL,PR0
        40 000605   000072 676011 17                 ERQ     TSN+1,X1
        40 000606   400000 376003                    ANQ     -131072,DU
        40 000607   000072 656011 17                 ERSQ    TSN+1,X1

      255     1542    3               IF NEXT_AREA + 1 < NUMB_AREA_SN

   1542 40 000610   000043 236000 17                 LDQ     NEXT_AREA
        40 000611   000001 036007                    ADLQ    1,DL
        40 000612   000000 116000 36                 CMPQ    NUMB_AREA_SN
        40 000613   000622 603000 40                 TRC     s:1544

      256     1543    3               THEN NXT_SN(WIN(4)) = AREA$->TABLES.DBK(NEXT_AREA+1);

   1543 40 000614   000043 236000 17                 LDQ     NEXT_AREA
        40 000615   000011 402007                    MPY     9,DL
        40 000616   000020 236106                    LDQ     16,QL,PR0
        40 000617   777777 376007                    ANQ     -1,DL
        40 000620   000055 756010 17                 STQ     NXT_SN,X0
        40 000621   001033 710000 40                 TRA     s:1575

      257     1544    3               ELSE NXT_SN(WIN(4)) = 0;

   1544 40 000622   000055 450010 17                 STZ     NXT_SN,X0
        40 000623   001033 710000 40                 TRA     s:1575

      258     1545    3           CASE(%ZIG_RTYPE_RC);

      259     1546    3               NEXT_RECORD = NEXT_RECORD + 1;

   1546 40 000624   000041 235000 17                 LDA     NEXT_RECORD
        40 000625   000001 035007                    ADLA    1,DL
        40 000626   000041 755000 17                 STA     NEXT_RECORD

      260     1547    3               TSN.SENAME(WIN(4)) = RECORD$->TABLES.NAME(NEXT_RECORD);

PL6.E3A0      #001=ZIG$D_XREF File=ZIG$D_XREF.:ZIC0TSI                           FRI 09/05/97 12:03 Page:46
   1547 40 000627   000041 236000 17                 LDQ     NEXT_RECORD
        40 000630   000044 402007                    MPY     36,DL
        40 000631   200160 756100                    STQ     X+1,,AUTO
        40 000632   000053 236000 17                 LDQ     WIN+4
        40 000633   000044 402007                    MPY     36,DL
        40 000634   000000 470400 29                 LDP0    RECORD$
        40 000635   200160 235100                    LDA     X+1,,AUTO
        40 000636   040006 100505                    MLR     fill='040'O
        40 000637   000000 000036                    ADSC9   0,A,PR0                  cn=0,n=30
        40 000640   000072 200036 17                 ADSC9   TSN+1,Q                  cn=1,n=30

      261     1548    3               TSN.DCLR(WIN(4)) = RECORD$->TABLES.DEFINED(NEXT_RECORD);

   1548 40 000641   000053 236000 17                 LDQ     WIN+4
        40 000642   000011 402007                    MPY     9,DL
        40 000643   000000 621006                    EAX1    0,QL
        40 000644   000041 236000 17                 LDQ     NEXT_RECORD
        40 000645   000011 402007                    MPY     9,DL
        40 000646   000010 236106                    LDQ     8,QL,PR0
        40 000647   000072 676011 17                 ERQ     TSN+1,X1
        40 000650   400000 376003                    ANQ     -131072,DU
        40 000651   000072 656011 17                 ERSQ    TSN+1,X1

      262     1549    3               IF NEXT_RECORD + 1 < NUMB_RECORD_SN

   1549 40 000652   000041 236000 17                 LDQ     NEXT_RECORD
        40 000653   000001 036007                    ADLQ    1,DL
        40 000654   000000 116000 34                 CMPQ    NUMB_RECORD_SN
        40 000655   000664 603000 40                 TRC     s:1551

      263     1550    3               THEN NXT_SN(WIN(4)) = RECORD$->TABLES.DBK(NEXT_RECORD+1);

   1550 40 000656   000041 236000 17                 LDQ     NEXT_RECORD
        40 000657   000011 402007                    MPY     9,DL
        40 000660   000020 236106                    LDQ     16,QL,PR0
        40 000661   777777 376007                    ANQ     -1,DL
        40 000662   000055 756010 17                 STQ     NXT_SN,X0
PL6.E3A0      #001=ZIG$D_XREF File=ZIG$D_XREF.:ZIC0TSI                           FRI 09/05/97 12:03 Page:47
        40 000663   001033 710000 40                 TRA     s:1575

      264     1551    3               ELSE NXT_SN(WIN(4)) = 0;

   1551 40 000664   000055 450010 17                 STZ     NXT_SN,X0
        40 000665   001033 710000 40                 TRA     s:1575

      265     1552    3           CASE(%ZIG_RTYPE_FR);

      266     1553    3               NEXT_FIELD = NEXT_FIELD + 1;

   1553 40 000666   000042 235000 17                 LDA     NEXT_FIELD
        40 000667   000001 035007                    ADLA    1,DL
        40 000670   000042 755000 17                 STA     NEXT_FIELD

      267     1554    3               TSN.SENAME(WIN(4)) = FIELD$->TABLES.NAME(NEXT_FIELD);

   1554 40 000671   000042 236000 17                 LDQ     NEXT_FIELD
        40 000672   000044 402007                    MPY     36,DL
        40 000673   200160 756100                    STQ     X+1,,AUTO
        40 000674   000053 236000 17                 LDQ     WIN+4
        40 000675   000044 402007                    MPY     36,DL
        40 000676   000000 470400 30                 LDP0    FIELD$
        40 000677   200160 235100                    LDA     X+1,,AUTO
        40 000700   040006 100505                    MLR     fill='040'O
        40 000701   000000 000036                    ADSC9   0,A,PR0                  cn=0,n=30
        40 000702   000072 200036 17                 ADSC9   TSN+1,Q                  cn=1,n=30

      268     1555    3               TSN.DCLR(WIN(4)) = FIELD$->TABLES.DEFINED(NEXT_FIELD);

   1555 40 000703   000053 236000 17                 LDQ     WIN+4
        40 000704   000011 402007                    MPY     9,DL
        40 000705   000000 621006                    EAX1    0,QL
        40 000706   000042 236000 17                 LDQ     NEXT_FIELD
        40 000707   000011 402007                    MPY     9,DL
        40 000710   000010 236106                    LDQ     8,QL,PR0
        40 000711   000072 676011 17                 ERQ     TSN+1,X1
PL6.E3A0      #001=ZIG$D_XREF File=ZIG$D_XREF.:ZIC0TSI                           FRI 09/05/97 12:03 Page:48
        40 000712   400000 376003                    ANQ     -131072,DU
        40 000713   000072 656011 17                 ERSQ    TSN+1,X1

      269     1556    3               IF NEXT_FIELD + 1 < NUMB_FIELD_SN

   1556 40 000714   000042 236000 17                 LDQ     NEXT_FIELD
        40 000715   000001 036007                    ADLQ    1,DL
        40 000716   000000 116000 35                 CMPQ    NUMB_FIELD_SN
        40 000717   000726 603000 40                 TRC     s:1558

      270     1557    3               THEN NXT_SN(WIN(4)) = FIELD$->TABLES.DBK(NEXT_FIELD+1);

   1557 40 000720   000042 236000 17                 LDQ     NEXT_FIELD
        40 000721   000011 402007                    MPY     9,DL
        40 000722   000020 236106                    LDQ     16,QL,PR0
        40 000723   777777 376007                    ANQ     -1,DL
        40 000724   000055 756010 17                 STQ     NXT_SN,X0
        40 000725   001033 710000 40                 TRA     s:1575

      271     1558    3               ELSE NXT_SN(WIN(4)) = 0;

   1558 40 000726   000055 450010 17                 STZ     NXT_SN,X0
        40 000727   001033 710000 40                 TRA     s:1575

      272     1559    3           CASE(%ZIG_RTYPE_SC);

      273     1560    3               NEXT_SET = NEXT_SET + 1;

   1560 40 000730   000044 235000 17                 LDA     NEXT_SET
        40 000731   000001 035007                    ADLA    1,DL
        40 000732   000044 755000 17                 STA     NEXT_SET

      274     1561    3               TSN.SENAME(WIN(4)) = SET$->TABLES.NAME(NEXT_SET);

   1561 40 000733   000044 236000 17                 LDQ     NEXT_SET
        40 000734   000044 402007                    MPY     36,DL
        40 000735   200160 756100                    STQ     X+1,,AUTO
PL6.E3A0      #001=ZIG$D_XREF File=ZIG$D_XREF.:ZIC0TSI                           FRI 09/05/97 12:03 Page:49
        40 000736   000053 236000 17                 LDQ     WIN+4
        40 000737   000044 402007                    MPY     36,DL
        40 000740   000000 470400 32                 LDP0    SET$
        40 000741   200160 235100                    LDA     X+1,,AUTO
        40 000742   040006 100505                    MLR     fill='040'O
        40 000743   000000 000036                    ADSC9   0,A,PR0                  cn=0,n=30
        40 000744   000072 200036 17                 ADSC9   TSN+1,Q                  cn=1,n=30

      275     1562    3               TSN.DCLR(WIN(4)) = SET$->TABLES.DEFINED(NEXT_SET);

   1562 40 000745   000053 236000 17                 LDQ     WIN+4
        40 000746   000011 402007                    MPY     9,DL
        40 000747   000000 621006                    EAX1    0,QL
        40 000750   000044 236000 17                 LDQ     NEXT_SET
        40 000751   000011 402007                    MPY     9,DL
        40 000752   000010 236106                    LDQ     8,QL,PR0
        40 000753   000072 676011 17                 ERQ     TSN+1,X1
        40 000754   400000 376003                    ANQ     -131072,DU
        40 000755   000072 656011 17                 ERSQ    TSN+1,X1

      276     1563    3               IF NEXT_SET + 1 < NUMB_SET_SN

   1563 40 000756   000044 236000 17                 LDQ     NEXT_SET
        40 000757   000001 036007                    ADLQ    1,DL
        40 000760   000000 116000 37                 CMPQ    NUMB_SET_SN
        40 000761   000770 603000 40                 TRC     s:1565

      277     1564    3               THEN NXT_SN(WIN(4)) = SET$->TABLES.DBK(NEXT_SET+1);

   1564 40 000762   000044 236000 17                 LDQ     NEXT_SET
        40 000763   000011 402007                    MPY     9,DL
        40 000764   000020 236106                    LDQ     16,QL,PR0
        40 000765   777777 376007                    ANQ     -1,DL
        40 000766   000055 756010 17                 STQ     NXT_SN,X0
        40 000767   001033 710000 40                 TRA     s:1575

      278     1565    3               ELSE NXT_SN(WIN(4)) = 0;
PL6.E3A0      #001=ZIG$D_XREF File=ZIG$D_XREF.:ZIC0TSI                           FRI 09/05/97 12:03 Page:50

   1565 40 000770   000055 450010 17                 STZ     NXT_SN,X0
        40 000771   001033 710000 40                 TRA     s:1575

      279     1566    3           CASE(%ZIG_RTYPE_KC);

      280     1567    3               NEXT_KEY = NEXT_KEY + 1;

   1567 40 000772   000045 235000 17                 LDA     NEXT_KEY
        40 000773   000001 035007                    ADLA    1,DL
        40 000774   000045 755000 17                 STA     NEXT_KEY

      281     1568    3               TSN.SENAME(WIN(4)) = KEY$->TABLES.NAME(NEXT_KEY);

   1568 40 000775   000045 236000 17                 LDQ     NEXT_KEY
        40 000776   000044 402007                    MPY     36,DL
        40 000777   200160 756100                    STQ     X+1,,AUTO
        40 001000   000053 236000 17                 LDQ     WIN+4
        40 001001   000044 402007                    MPY     36,DL
        40 001002   000000 470400 33                 LDP0    KEY$
        40 001003   200160 235100                    LDA     X+1,,AUTO
        40 001004   040006 100505                    MLR     fill='040'O
        40 001005   000000 000036                    ADSC9   0,A,PR0                  cn=0,n=30
        40 001006   000072 200036 17                 ADSC9   TSN+1,Q                  cn=1,n=30

      282     1569    3               TSN.DCLR(WIN(4)) = KEY$->TABLES.DEFINED(NEXT_KEY);

   1569 40 001007   000053 236000 17                 LDQ     WIN+4
        40 001010   000011 402007                    MPY     9,DL
        40 001011   000000 621006                    EAX1    0,QL
        40 001012   000045 236000 17                 LDQ     NEXT_KEY
        40 001013   000011 402007                    MPY     9,DL
        40 001014   000010 236106                    LDQ     8,QL,PR0
        40 001015   000072 676011 17                 ERQ     TSN+1,X1
        40 001016   400000 376003                    ANQ     -131072,DU
        40 001017   000072 656011 17                 ERSQ    TSN+1,X1

PL6.E3A0      #001=ZIG$D_XREF File=ZIG$D_XREF.:ZIC0TSI                           FRI 09/05/97 12:03 Page:51
      283     1570    3               IF NEXT_KEY + 1 < NUMB_KEY_SN

   1570 40 001020   000045 236000 17                 LDQ     NEXT_KEY
        40 001021   000001 036007                    ADLQ    1,DL
        40 001022   000000 116000 38                 CMPQ    NUMB_KEY_SN
        40 001023   001032 603000 40                 TRC     s:1572

      284     1571    3               THEN NXT_SN(WIN(4)) = KEY$->TABLES.DBK(NEXT_KEY+1);

   1571 40 001024   000045 236000 17                 LDQ     NEXT_KEY
        40 001025   000011 402007                    MPY     9,DL
        40 001026   000020 236106                    LDQ     16,QL,PR0
        40 001027   777777 376007                    ANQ     -1,DL
        40 001030   000055 756010 17                 STQ     NXT_SN,X0
        40 001031   001033 710000 40                 TRA     s:1575

      285     1572    3               ELSE NXT_SN(WIN(4)) = 0;

   1572 40 001032   000055 450010 17                 STZ     NXT_SN,X0

      286     1573    3               END; /* CASE */

      287     1574    2           END; /* DO */

      288     1575    1       GOTO LEVEL_1_COMP;

   1575 40 001033   000346 710000 40                 TRA     LEVEL_1_COMP

      289     1576    1   END_DCLRD:
      290     1577    1       PUTK = 0;

   1577 40 001034   000000 450000 17    END_DCLRD    STZ     PUTK

      291     1578    1       O_L ='NAMES REFERENCED BUT NOT DECLARED***';

   1578 40 001035   040000 100400                    MLR     fill='040'O
        40 001036   000032 000044 39                 ADSC9   26                       cn=0,n=36
PL6.E3A0      #001=ZIG$D_XREF File=ZIG$D_XREF.:ZIC0TSI                           FRI 09/05/97 12:03 Page:52
        40 001037   000001 000200 17                 ADSC9   O_L                      cn=0,n=128

      292     1579    1       CALL PRNT(O_L,2,0);

   1579 40 001040   000005 630400 41                 EPPR0   5
        40 001041   000002 631400 41                 EPPR1   2
        40 001042   000000 701000 xent               TSX1    PRNT
        40 001043   000000 011000                    NOP     0

      293     1580    2       DO X = 0 TO (Z - 1);

   1580 40 001044   000160 450000 17                 STZ     X
        40 001045   001122 710000 40                 TRA     s:1602+3

      294     1581    2           CALL FETCHD_6('SN      ',NOT_DCLR(X));

   1581 40 001046   000160 236000 17                 LDQ     X
        40 001047   000022 736000                    QLS     18
        40 001050   200043 036100                    ADLQ    START_NOT_DCLR$,,AUTO
        40 001051   000016 235000 41                 LDA     14
        40 001052   200160 757100                    STAQ    X+1,,AUTO
        40 001053   200160 630500                    EPPR0   X+1,,AUTO
        40 001054   000010 631400 41                 EPPR1   8
        40 001055   000000 701000 xent               TSX1    FETCHD_6
        40 001056   000000 011000                    NOP     0

      295     1582    2           SN = UWA.SN;

   1582 40 001057   000100 100400                    MLR     fill='000'O
        40 001060   000422 000062 16                 ADSC9   UWA+274                  cn=0,n=50
        40 001061   200004 000062                    ADSC9   SN,,AUTO                 cn=0,n=50

      296     1583    2           SN_DBK = UWA.DIRECT_REF;

   1583 40 001062   000036 235000 16                 LDA     UWA+30
        40 001063   200022 755100                    STA     SN_DBK,,AUTO

PL6.E3A0      #001=ZIG$D_XREF File=ZIG$D_XREF.:ZIC0TSI                           FRI 09/05/97 12:03 Page:53
      297     1584         /* Ignore system generated records */
      298     1585    2           IF SUBSTR(SN.SENAME, 0, 1) ~= '*' THEN /* */

   1585 40 001064   200011 236100                    LDQ     SN+5,,AUTO
        40 001065   777000 376003                    ANQ     -512,DU
        40 001066   052000 116003                    CMPQ    21504,DU
        40 001067   001117 600000 40                 TZE     s:1602

      299     1586    3           DO;

      300     1587    3               IF SN.SETYPE ~= %ZIG_RTYPE_FR THEN /* */

   1587 40 001070   200006 236100                    LDQ     SN+2,,AUTO
        40 001071   000062 116007                    CMPQ    50,DL
        40 001072   001076 600000 40                 TZE     s:1591

      301     1588    3                   CALL PUTSNXL;

   1588 40 001073   001324 701000 40                 TSX1    PUTSNXL
        40 001074   000000 011000                    NOP     0
        40 001075   001117 710000 40                 TRA     s:1602

      302     1589    3               ELSE /* */
      303     1590    4               DO;

      304     1591    4                   CALL FETCHNS_6('SN-SE   ') ALTRET(MERGE_ERR1);

   1591 40 001076   000021 630400 41                 EPPR0   17
        40 001077   000000 631400 41                 EPPR1   0
        40 001100   000000 701000 xent               TSX1    FETCHNS_6
        40 001101   001110 702000 40                 TSX2    MERGE_ERR1

      305     1592    4                   IF UWA.FR.F_USE ~= 1 THEN /* */

   1592 40 001102   000343 235000 16                 LDA     UWA+227
        40 001103   000001 115007                    CMPA    1,DL
        40 001104   001107 600000 40                 TZE     s:1594
PL6.E3A0      #001=ZIG$D_XREF File=ZIG$D_XREF.:ZIC0TSI                           FRI 09/05/97 12:03 Page:54

      306     1593    4                       CALL PUTSNXL;

   1593 40 001105   001324 701000 40                 TSX1    PUTSNXL
        40 001106   000000 011000                    NOP     0

      307     1594    5                   DO WHILE ('0'B);

   1594 40 001107   001117 710000 40                 TRA     s:1602

      308     1595    5   MERGE_ERR1:         IF UWA.DB_STATUS = '0502100' THEN

   1595 40 001110   040000 106400       MERGE_ERR1   CMPC    fill='040'O
        40 001111   000001 000007 16                 ADSC9   UWA+1                    cn=0,n=7
        40 001112   000045 000007 39                 ADSC9   37                       cn=0,n=7
        40 001113   001320 601000 40                 TNZ     MERGE_ERR

      309     1596    5                           CALL PUTSNXL;

   1596 40 001114   001324 701000 40                 TSX1    PUTSNXL
        40 001115   000000 011000                    NOP     0
        40 001116   001117 710000 40                 TRA     s:1602

      310     1597    5                       ELSE
      311     1598    5                           GOTO MERGE_ERR;
      312     1599    5                       END; /* WHILE */

      313     1600    4                   END;

      314     1601    3               END;

      315     1602    2           END;

   1602 40 001117   000160 235000 17                 LDA     X
        40 001120   000001 035007                    ADLA    1,DL
        40 001121   000160 755000 17                 STA     X
        40 001122   000160 236000 17                 LDQ     X
PL6.E3A0      #001=ZIG$D_XREF File=ZIG$D_XREF.:ZIC0TSI                           FRI 09/05/97 12:03 Page:55
        40 001123   001126 604000 40                 TMI     s:1603
        40 001124   000162 116000 17                 CMPQ    Z
        40 001125   001046 604000 40                 TMI     s:1581

      316     1603    1       IF PUTK = 0 THEN /* */

   1603 40 001126   000000 235000 17                 LDA     PUTK
        40 001127   001140 601000 40                 TNZ     s:1609

      317     1604    2       DO;

      318     1605    2           O_L = ' NONE';

   1605 40 001130   040000 100400                    MLR     fill='040'O
        40 001131   000047 000005 39                 ADSC9   39                       cn=0,n=5
        40 001132   000001 000200 17                 ADSC9   O_L                      cn=0,n=128

      319     1606    2           CALL PRNT(O_L,1,0);

   1606 40 001133   000022 630400 41                 EPPR0   18
        40 001134   000002 631400 41                 EPPR1   2
        40 001135   000000 701000 xent               TSX1    PRNT
        40 001136   000000 011000                    NOP     0

      320     1607    2           END;

   1607 40 001137   001141 710000 40                 TRA     s:1610

      321     1608    1       ELSE /* */
      322     1609    1           PUTK = 0;

   1609 40 001140   000000 450000 17                 STZ     PUTK

      323     1610    1       O_L = 'DATA_BASE_PARAMETERS***';

   1610 40 001141   040000 100400                    MLR     fill='040'O
        40 001142   000051 000027 39                 ADSC9   41                       cn=0,n=23
PL6.E3A0      #001=ZIG$D_XREF File=ZIG$D_XREF.:ZIC0TSI                           FRI 09/05/97 12:03 Page:56
        40 001143   000001 000200 17                 ADSC9   O_L                      cn=0,n=128

      324     1611    1       CALL PRNT(O_L,2,0);

   1611 40 001144   000005 630400 41                 EPPR0   5
        40 001145   000002 631400 41                 EPPR1   2
        40 001146   000000 701000 xent               TSX1    PRNT
        40 001147   000000 011000                    NOP     0

      325     1612    2       DO X = 0 TO (Z - 1);

   1612 40 001150   000160 450000 17                 STZ     X
        40 001151   001220 710000 40                 TRA     s:1629+3

      326     1613    2           CALL FETCHD_6('SN      ',NOT_DCLR(X));

   1613 40 001152   000160 236000 17                 LDQ     X
        40 001153   000022 736000                    QLS     18
        40 001154   200043 036100                    ADLQ    START_NOT_DCLR$,,AUTO
        40 001155   000016 235000 41                 LDA     14
        40 001156   200160 757100                    STAQ    X+1,,AUTO
        40 001157   200160 630500                    EPPR0   X+1,,AUTO
        40 001160   000010 631400 41                 EPPR1   8
        40 001161   000000 701000 xent               TSX1    FETCHD_6
        40 001162   000000 011000                    NOP     0

      327     1614    2           SN = UWA.SN;

   1614 40 001163   000100 100400                    MLR     fill='000'O
        40 001164   000422 000062 16                 ADSC9   UWA+274                  cn=0,n=50
        40 001165   200004 000062                    ADSC9   SN,,AUTO                 cn=0,n=50

      328     1615    2           SN_DBK = UWA.DIRECT_REF;

   1615 40 001166   000036 235000 16                 LDA     UWA+30
        40 001167   200022 755100                    STA     SN_DBK,,AUTO

PL6.E3A0      #001=ZIG$D_XREF File=ZIG$D_XREF.:ZIC0TSI                           FRI 09/05/97 12:03 Page:57
      329     1616    2           IF SUBSTR(SN.SENAME, 0, 1) ~= '*' THEN /* */

   1616 40 001170   200011 236100                    LDQ     SN+5,,AUTO
        40 001171   777000 376003                    ANQ     -512,DU
        40 001172   052000 116003                    CMPQ    21504,DU
        40 001173   001215 600000 40                 TZE     s:1629

      330     1617    3           DO;

      331     1618    3               IF SN.SETYPE = %ZIG_RTYPE_FR THEN /* */

   1618 40 001174   200006 236100                    LDQ     SN+2,,AUTO
        40 001175   000062 116007                    CMPQ    50,DL
        40 001176   001215 601000 40                 TNZ     s:1629

      332     1619    4               DO;

      333     1620    4                   CALL FETCHNS_6('SN-SE   ') ALTRET(MERGE_ERR2);

   1620 40 001177   000021 630400 41                 EPPR0   17
        40 001200   000000 631400 41                 EPPR1   0
        40 001201   000000 701000 xent               TSX1    FETCHNS_6
        40 001202   001211 702000 40                 TSX2    MERGE_ERR2

      334     1621    4                   IF UWA.FR.F_USE = 1 THEN /* */

   1621 40 001203   000343 235000 16                 LDA     UWA+227
        40 001204   000001 115007                    CMPA    1,DL
        40 001205   001210 601000 40                 TNZ     s:1623

      335     1622    4                       CALL PUTSNXL;

   1622 40 001206   001324 701000 40                 TSX1    PUTSNXL
        40 001207   000000 011000                    NOP     0

      336     1623    5                   DO WHILE ('0'B);

PL6.E3A0      #001=ZIG$D_XREF File=ZIG$D_XREF.:ZIC0TSI                           FRI 09/05/97 12:03 Page:58
   1623 40 001210   001215 710000 40                 TRA     s:1629

      337     1624    5   MERGE_ERR2:         IF UWA.DB_STATUS ~= '0502100' THEN

   1624 40 001211   040000 106400       MERGE_ERR2   CMPC    fill='040'O
        40 001212   000001 000007 16                 ADSC9   UWA+1                    cn=0,n=7
        40 001213   000045 000007 39                 ADSC9   37                       cn=0,n=7
        40 001214   001320 601000 40                 TNZ     MERGE_ERR

      338     1625    5                           GOTO MERGE_ERR;
      339     1626    5                       END; /* WHILE */

      340     1627    4                   END;

      341     1628    3               END;

      342     1629    2           END;

   1629 40 001215   000160 235000 17                 LDA     X
        40 001216   000001 035007                    ADLA    1,DL
        40 001217   000160 755000 17                 STA     X
        40 001220   000160 236000 17                 LDQ     X
        40 001221   001224 604000 40                 TMI     s:1630
        40 001222   000162 116000 17                 CMPQ    Z
        40 001223   001152 604000 40                 TMI     s:1613

      343     1630    1       IF PUTK = 0 THEN /* */

   1630 40 001224   000000 235000 17                 LDA     PUTK
        40 001225   001235 601000 40                 TNZ     s:1635

      344     1631    2       DO;

      345     1632    2           O_L = ' NONE';

   1632 40 001226   040000 100400                    MLR     fill='040'O
        40 001227   000047 000005 39                 ADSC9   39                       cn=0,n=5
PL6.E3A0      #001=ZIG$D_XREF File=ZIG$D_XREF.:ZIC0TSI                           FRI 09/05/97 12:03 Page:59
        40 001230   000001 000200 17                 ADSC9   O_L                      cn=0,n=128

      346     1633    2           CALL PRNT(O_L,1,0);

   1633 40 001231   000022 630400 41                 EPPR0   18
        40 001232   000002 631400 41                 EPPR1   2
        40 001233   000000 701000 xent               TSX1    PRNT
        40 001234   000000 011000                    NOP     0

      347     1634    2           END;

      348     1635    1       O_L = 'DATA_BASE_PRIVACY_LOCKS***';

   1635 40 001235   040000 100400                    MLR     fill='040'O
        40 001236   000057 000032 39                 ADSC9   47                       cn=0,n=26
        40 001237   000001 000200 17                 ADSC9   O_L                      cn=0,n=128

      349     1636    1       CALL PRNT(O_L,2,0);

   1636 40 001240   000005 630400 41                 EPPR0   5
        40 001241   000002 631400 41                 EPPR1   2
        40 001242   000000 701000 xent               TSX1    PRNT
        40 001243   000000 011000                    NOP     0

      350     1637    1       CALL FETCHNS_6('DA-LK   ') ALTRET(NO_LOCK_NAMES);

   1637 40 001244   000025 630400 41                 EPPR0   21
        40 001245   000000 631400 41                 EPPR1   0
        40 001246   000000 701000 xent               TSX1    FETCHNS_6
        40 001247   001257 702000 40                 TSX2    NO_LOCK_NAMES

      351     1638    1   NEXT_LOCK_NAME:
      352     1639    1       CALL PUTLKXL;

   1639 40 001250   001773 701000 40    NEXT_LOCK_N* TSX1    PUTLKXL
        40 001251   000000 011000                    NOP     0

PL6.E3A0      #001=ZIG$D_XREF File=ZIG$D_XREF.:ZIC0TSI                           FRI 09/05/97 12:03 Page:60
      353     1640    1       CALL FETCHNS_6('DA-LK   ') ALTRET(PROC_NAMES);

   1640 40 001252   000025 630400 41                 EPPR0   21
        40 001253   000000 631400 41                 EPPR1   0
        40 001254   000000 701000 xent               TSX1    FETCHNS_6
        40 001255   001266 702000 40                 TSX2    PROC_NAMES

      354     1641    1       GOTO NEXT_LOCK_NAME;

   1641 40 001256   001250 710000 40                 TRA     NEXT_LOCK_NAME

      355     1642    1   NO_LOCK_NAMES:
      356     1643    1       O_L = ' NONE';

   1643 40 001257   040000 100400       NO_LOCK_NAM* MLR     fill='040'O
        40 001260   000047 000005 39                 ADSC9   39                       cn=0,n=5
        40 001261   000001 000200 17                 ADSC9   O_L                      cn=0,n=128

      357     1644    1       CALL PRNT(O_L,1,0);

   1644 40 001262   000022 630400 41                 EPPR0   18
        40 001263   000002 631400 41                 EPPR1   2
        40 001264   000000 701000 xent               TSX1    PRNT
        40 001265   000000 011000                    NOP     0

      358     1645    1   PROC_NAMES:
      359     1646    1       O_L = 'DATA_BASE_PROCEDURE NAMES***';

   1646 40 001266   040000 100400       PROC_NAMES   MLR     fill='040'O
        40 001267   000070 000034 39                 ADSC9   56                       cn=0,n=28
        40 001270   000001 000200 17                 ADSC9   O_L                      cn=0,n=128

      360     1647    1       CALL PRNT(O_L,2,0);

   1647 40 001271   000005 630400 41                 EPPR0   5
        40 001272   000002 631400 41                 EPPR1   2
        40 001273   000000 701000 xent               TSX1    PRNT
PL6.E3A0      #001=ZIG$D_XREF File=ZIG$D_XREF.:ZIC0TSI                           FRI 09/05/97 12:03 Page:61
        40 001274   000000 011000                    NOP     0

      361     1648    1       CALL FETCHNS_6('DA-PN   ') ALTRET(NO_PROC_NAMES);

   1648 40 001275   000026 630400 41                 EPPR0   22
        40 001276   000000 631400 41                 EPPR1   0
        40 001277   000000 701000 xent               TSX1    FETCHNS_6
        40 001300   001310 702000 40                 TSX2    NO_PROC_NAMES

      362     1649    1   NEXT_PROC_NAME:
      363     1650    1       CALL PUTPNXL;

   1650 40 001301   001721 701000 40    NEXT_PROC_N* TSX1    PUTPNXL
        40 001302   000000 011000                    NOP     0

      364     1651    1       CALL FETCHNS_6('DA-PN   ') ALTRET(END_MERGE);

   1651 40 001303   000026 630400 41                 EPPR0   22
        40 001304   000000 631400 41                 EPPR1   0
        40 001305   000000 701000 xent               TSX1    FETCHNS_6
        40 001306   001317 702000 40                 TSX2    END_MERGE

      365     1652    1       GOTO NEXT_PROC_NAME;

   1652 40 001307   001301 710000 40                 TRA     NEXT_PROC_NAME

      366     1653    1   NO_PROC_NAMES:
      367     1654    1       O_L = ' NONE';

   1654 40 001310   040000 100400       NO_PROC_NAM* MLR     fill='040'O
        40 001311   000047 000005 39                 ADSC9   39                       cn=0,n=5
        40 001312   000001 000200 17                 ADSC9   O_L                      cn=0,n=128

      368     1655    1       CALL PRNT(O_L,1,0);

   1655 40 001313   000022 630400 41                 EPPR0   18
        40 001314   000002 631400 41                 EPPR1   2
PL6.E3A0      #001=ZIG$D_XREF File=ZIG$D_XREF.:ZIC0TSI                           FRI 09/05/97 12:03 Page:62
        40 001315   000000 701000 xent               TSX1    PRNT
        40 001316   000000 011000                    NOP     0

      369     1656    1   END_MERGE:
      370     1657    1       RETURN;

   1657 40 001317   000000 702200 xent  END_MERGE    TSX2  ! X66_ARET

      371     1658    1   MERGE_ERR:
      372     1659    1       CALL ABORT;

   1659 40 001320   000004 631400 41    MERGE_ERR    EPPR1   4
        40 001321   000000 701000 xent               TSX1    ABORT
        40 001322   000000 011000                    NOP     0
        40 001323   002157 710000 40                 TRA     CATER

      373     1660    1   PUTSNXL:

   1660 40 001324   200136 741300       PUTSNXL      STX1  ! J+2,,AUTO

      374     1661    1       PROC;
      375     1662    2   DCL X SBIN WORD;
      376     1663    2   DCL LNO_DIFF UBIN WORD;
      377     1664    2       PUTK = PUTK + 1;

   1664 40 001325   000000 235000 17                 LDA     PUTK
        40 001326   000001 035007                    ADLA    1,DL
        40 001327   000000 755000 17                 STA     PUTK

      378     1665    2       LNO_DIFF = 1;

   1665 40 001330   000001 236007                    LDQ     1,DL
        40 001331   200140 756100                    STQ     LNO_DIFF,,AUTO

      379     1666    3       DO CASE(UWA.SN.SETYPE);

   1666 40 001332   000424 235000 16                 LDA     UWA+276
PL6.E3A0      #001=ZIG$D_XREF File=ZIG$D_XREF.:ZIC0TSI                           FRI 09/05/97 12:03 Page:63
        40 001333   000012 135007                    SBLA    10,DL
        40 001334   000051 115007                    CMPA    41,DL
        40 001335   001337 602005 40                 TNC     s:1666+5,AL
        40 001336   001443 710000 40                 TRA     SNX0
        40 001337   001437 710000 40                 TRA     s:1681
        40 001340   001443 710000 40                 TRA     SNX0
        40 001341   001443 710000 40                 TRA     SNX0
        40 001342   001443 710000 40                 TRA     SNX0
        40 001343   001443 710000 40                 TRA     SNX0
        40 001344   001443 710000 40                 TRA     SNX0
        40 001345   001443 710000 40                 TRA     SNX0
        40 001346   001443 710000 40                 TRA     SNX0
        40 001347   001443 710000 40                 TRA     SNX0
        40 001350   001443 710000 40                 TRA     SNX0
        40 001351   001432 710000 40                 TRA     s:1678
        40 001352   001443 710000 40                 TRA     SNX0
        40 001353   001443 710000 40                 TRA     SNX0
        40 001354   001443 710000 40                 TRA     SNX0
        40 001355   001443 710000 40                 TRA     SNX0
        40 001356   001443 710000 40                 TRA     SNX0
        40 001357   001443 710000 40                 TRA     SNX0
        40 001360   001443 710000 40                 TRA     SNX0
        40 001361   001443 710000 40                 TRA     SNX0
        40 001362   001443 710000 40                 TRA     SNX0
        40 001363   001421 710000 40                 TRA     s:1673
        40 001364   001425 710000 40                 TRA     s:1675
        40 001365   001443 710000 40                 TRA     SNX0
        40 001366   001443 710000 40                 TRA     SNX0
        40 001367   001443 710000 40                 TRA     SNX0
        40 001370   001443 710000 40                 TRA     SNX0
        40 001371   001443 710000 40                 TRA     SNX0
        40 001372   001443 710000 40                 TRA     SNX0
        40 001373   001443 710000 40                 TRA     SNX0
        40 001374   001443 710000 40                 TRA     SNX0
        40 001375   001415 710000 40                 TRA     s:1671
        40 001376   001443 710000 40                 TRA     SNX0
        40 001377   001443 710000 40                 TRA     SNX0
PL6.E3A0      #001=ZIG$D_XREF File=ZIG$D_XREF.:ZIC0TSI                           FRI 09/05/97 12:03 Page:64
        40 001400   001443 710000 40                 TRA     SNX0
        40 001401   001443 710000 40                 TRA     SNX0
        40 001402   001443 710000 40                 TRA     SNX0
        40 001403   001443 710000 40                 TRA     SNX0
        40 001404   001443 710000 40                 TRA     SNX0
        40 001405   001443 710000 40                 TRA     SNX0
        40 001406   001443 710000 40                 TRA     SNX0
        40 001407   001410 710000 40                 TRA     s:1668

      380     1667    3       CASE(%ZIG_RTYPE_FR);

      381     1668    3           TYPE = 'FIELD';

   1668 40 001410   040100 100400                    MLR     fill='040'O
        40 001411   000101 000005 39                 ADSC9   65                       cn=0,n=5
        40 001412   200111 000014                    ADSC9   TYPE,,AUTO               cn=0,n=12

      382     1669    3           LNO_DIFF = 0;

   1669 40 001413   200140 450100                    STZ     LNO_DIFF,,AUTO
        40 001414   001443 710000 40                 TRA     SNX0

      383     1670    3       CASE(%ZIG_RTYPE_RC);

      384     1671    3           TYPE = 'RECORD';

   1671 40 001415   040100 100400                    MLR     fill='040'O
        40 001416   000103 000006 39                 ADSC9   67                       cn=0,n=6
        40 001417   200111 000014                    ADSC9   TYPE,,AUTO               cn=0,n=12
        40 001420   001443 710000 40                 TRA     SNX0

      385     1672    3       CASE(%ZIG_RTYPE_SC);

      386     1673    3           TYPE = 'SET';

   1673 40 001421   040100 100400                    MLR     fill='040'O
        40 001422   000105 000003 39                 ADSC9   69                       cn=0,n=3
PL6.E3A0      #001=ZIG$D_XREF File=ZIG$D_XREF.:ZIC0TSI                           FRI 09/05/97 12:03 Page:65
        40 001423   200111 000014                    ADSC9   TYPE,,AUTO               cn=0,n=12
        40 001424   001443 710000 40                 TRA     SNX0

      387     1674    3       CASE(%ZIG_RTYPE_KC);

      388     1675    3           TYPE = 'KEY';

   1675 40 001425   040100 100400                    MLR     fill='040'O
        40 001426   000106 000003 39                 ADSC9   70                       cn=0,n=3
        40 001427   200111 000014                    ADSC9   TYPE,,AUTO               cn=0,n=12

      389     1676    3           LNO_DIFF = 0;

   1676 40 001430   200140 450100                    STZ     LNO_DIFF,,AUTO
        40 001431   001443 710000 40                 TRA     SNX0

      390     1677    3       CASE(%ZIG_RTYPE_AC);

      391     1678    3           TYPE = 'AREA';

   1678 40 001432   040100 100400                    MLR     fill='040'O
        40 001433   000107 000004 39                 ADSC9   71                       cn=0,n=4
        40 001434   200111 000014                    ADSC9   TYPE,,AUTO               cn=0,n=12

      392     1679    3           LNO_DIFF = 0;

   1679 40 001435   200140 450100                    STZ     LNO_DIFF,,AUTO
        40 001436   001443 710000 40                 TRA     SNX0

      393     1680    3       CASE(%ZIG_RTYPE_OA);

      394     1681    3           TYPE = 'SCHEMA';

   1681 40 001437   040100 100400                    MLR     fill='040'O
        40 001440   000000 000006 39                 ADSC9   0                        cn=0,n=6
        40 001441   200111 000014                    ADSC9   TYPE,,AUTO               cn=0,n=12

PL6.E3A0      #001=ZIG$D_XREF File=ZIG$D_XREF.:ZIC0TSI                           FRI 09/05/97 12:03 Page:66
      395     1682    3           LNO_DIFF = 0;

   1682 40 001442   200140 450100                    STZ     LNO_DIFF,,AUTO

      396     1683    3           END; /* CASE */

      397     1684    2   SNX0:
      398     1685    2       NAME = SN.SENAME;

   1685 40 001443   040100 100500       SNX0         MLR     fill='040'O
        40 001444   200011 000036                    ADSC9   SN+5,,AUTO               cn=0,n=30
        40 001445   200047 000104                    ADSC9   NAME,,AUTO               cn=0,n=68

      399     1686    2       FIRST_NRCO_CHECK = '1'B;

   1686 40 001446   400000 236003                    LDQ     -131072,DU
        40 001447   200046 756100                    STQ     FIRST_NRCO_CHECK,,AUTO

      400     1687    2       IF (TYPE = 'FIELD') AND (SN.DCLR = 1 ) THEN /* */

   1687 40 001450   040000 106500                    CMPC    fill='040'O
        40 001451   200111 000014                    ADSC9   TYPE,,AUTO               cn=0,n=12
        40 001452   000101 000005 39                 ADSC9   65                       cn=0,n=5
        40 001453   001562 601000 40                 TNZ     s:1700
        40 001454   200004 235100                    LDA     SN,,AUTO
        40 001455   000001 115007                    CMPA    1,DL
        40 001456   001562 601000 40                 TNZ     s:1700

      401     1688    3       DO;

      402     1689    3           DBK = FIELD$->TABLES.DBK_RC(NEXT_FIELD);

   1689 40 001457   000042 236000 17                 LDQ     NEXT_FIELD
        40 001460   000011 402007                    MPY     9,DL
        40 001461   000000 470400 30                 LDP0    FIELD$
        40 001462   000010 236106                    LDQ     8,QL,PR0
        40 001463   777777 376007                    ANQ     -1,DL
PL6.E3A0      #001=ZIG$D_XREF File=ZIG$D_XREF.:ZIC0TSI                           FRI 09/05/97 12:03 Page:67
        40 001464   200044 756100                    STQ     DBK,,AUTO

      403     1690    3           IF DBK ~= 0 THEN /* not a dbparam */

   1690 40 001465   001562 600000 40                 TZE     s:1700

      404     1691    4           DO;

      405     1692    4               CALL FINDD_6('RC      ',DBK);

   1692 40 001466   200044 631500                    EPPR1   DBK,,AUTO
        40 001467   200161 451500                    STP1    X+2,,AUTO
        40 001470   000027 236000 41                 LDQ     23
        40 001471   200160 756100                    STQ     X+1,,AUTO
        40 001472   200160 630500                    EPPR0   X+1,,AUTO
        40 001473   000010 631400 41                 EPPR1   8
        40 001474   000000 701000 xent               TSX1    FINDD_6
        40 001475   000000 011000                    NOP     0

      406     1693    4               CALL FETCHOS_6('SN-SE   '); /* SN of owner rec */

   1693 40 001476   000021 630400 41                 EPPR0   17
        40 001477   000000 631400 41                 EPPR1   0
        40 001500   000000 701000 xent               TSX1    FETCHOS_6
        40 001501   000000 011000                    NOP     0

      407     1694    4               CALL INDEX(I,' ',UWA.SN.SENAME);

   1694 40 001502   000000 124400                    SCM     mask='000'O
        40 001503   000427 000036 16                 ADSC9   UWA+279                  cn=0,n=30
        40 001504   000001 000001 41                 ADSC9   1                        cn=0,n=1
        40 001505   200133 000100                    ARG     I,,AUTO

      408     1695    4               CALL INDEX(J,' ',NAME);

   1695 40 001506   000000 124500                    SCM     mask='000'O
        40 001507   200047 000104                    ADSC9   NAME,,AUTO               cn=0,n=68
PL6.E3A0      #001=ZIG$D_XREF File=ZIG$D_XREF.:ZIC0TSI                           FRI 09/05/97 12:03 Page:68
        40 001510   000001 000001 41                 ADSC9   1                        cn=0,n=1
        40 001511   200134 000100                    ARG     J,,AUTO

      409     1696    4               CALL CONCAT(NAME,SUBSTR(NAME,0,J),', (',SUBSTR(UWA.SN.SENAME,0,I),')');

   1696 40 001512   200134 720100                    LXL0    J,,AUTO
        40 001513   040100 100540                    MLR     fill='040'O
        40 001514   200047 000010                    ADSC9   NAME,,AUTO               cn=0,n=*X0
        40 001515   200047 000104                    ADSC9   NAME,,AUTO               cn=0,n=68
        40 001516   200134 236100                    LDQ     J,,AUTO
        40 001517   000104 116007                    CMPQ    68,DL
        40 001520   001552 603000 40                 TRC     s:1697
        40 001521   777673 621006                    EAX1    -69,QL
        40 001522   777777 661003                    ERX1    -1,DU
        40 001523   040146 100400                    MLR     fill='040'O
        40 001524   000112 000003 39                 ADSC9   74                       cn=0,n=3
        40 001525   200047 000011                    ADSC9   NAME,Q,AUTO              cn=0,n=*X1
        40 001526   000101 116007                    CMPQ    65,DL
        40 001527   001552 603000 40                 TRC     s:1697
        40 001530   777676 622006                    EAX2    -66,QL
        40 001531   777777 662003                    ERX2    -1,DU
        40 001532   200133 723100                    LXL3    I,,AUTO
        40 001533   040146 100440                    MLR     fill='040'O
        40 001534   000427 000013 16                 ADSC9   UWA+279                  cn=0,n=*X3
        40 001535   200047 600012                    ADSC9   NAME,Q,AUTO              cn=3,n=*X2
        40 001536   200133 036100                    ADLQ    I,,AUTO
        40 001537   000101 116007                    CMPQ    65,DL
        40 001540   001552 603000 40                 TRC     s:1697
        40 001541   200160 756100                    STQ     X+1,,AUTO
        40 001542   200134 236100                    LDQ     J,,AUTO
        40 001543   200133 036100                    ADLQ    I,,AUTO
        40 001544   200160 724100                    LXL4    X+1,,AUTO
        40 001545   777676 624014                    EAX4    -66,X4
        40 001546   777777 664003                    ERX4    -1,DU
        40 001547   040146 100400                    MLR     fill='040'O
        40 001550   000030 000001 41                 ADSC9   24                       cn=0,n=1
        40 001551   200047 600014                    ADSC9   NAME,Q,AUTO              cn=3,n=*X4
PL6.E3A0      #001=ZIG$D_XREF File=ZIG$D_XREF.:ZIC0TSI                           FRI 09/05/97 12:03 Page:69

      410     1697    4               CALL FINDD_6('SN      ',SN_DBK); /* restore FR SN */

   1697 40 001552   200022 630500                    EPPR0   SN_DBK,,AUTO
        40 001553   200161 450500                    STP0    X+2,,AUTO
        40 001554   000016 236000 41                 LDQ     14
        40 001555   200160 756100                    STQ     X+1,,AUTO
        40 001556   200160 630500                    EPPR0   X+1,,AUTO
        40 001557   000010 631400 41                 EPPR1   8
        40 001560   000000 701000 xent               TSX1    FINDD_6
        40 001561   000000 011000                    NOP     0

      411     1698    4               END;

      412     1699    3           END;

      413     1700    2       IF SN.DCLR = 1 THEN /* */

   1700 40 001562   200004 235100                    LDA     SN,,AUTO
        40 001563   000001 115007                    CMPA    1,DL
        40 001564   001612 601000 40                 TNZ     s:1706

      414     1701    3       DO;

      415     1702    3           CALL CAT_A('DCL') ALTRET(CATER);

   1702 40 001565   000031 236000 41                 LDQ     25
        40 001566   200143 756100                    STQ     LNO_DIFF+3,,AUTO
        40 001567   002045 701000 40                 TSX1    CAT_A
        40 001570   001717 702000 40                 TSX2    CATER

      416     1703    3           CALL SET_FIELD_NUM(1,SN.LNO - LNO_DIFF);

   1703 40 001571   200007 236100                    LDQ     SN+3,,AUTO
        40 001572   200140 136100                    SBLQ    LNO_DIFF,,AUTO
        40 001573   200160 756100                    STQ     X+1,,AUTO
        40 001574   200160 630500                    EPPR0   X+1,,AUTO
PL6.E3A0      #001=ZIG$D_XREF File=ZIG$D_XREF.:ZIC0TSI                           FRI 09/05/97 12:03 Page:70
        40 001575   200163 450500                    STP0    X+4,,AUTO
        40 001576   000012 236000 41                 LDQ     10
        40 001577   200162 756100                    STQ     X+3,,AUTO
        40 001600   200162 630500                    EPPR0   X+3,,AUTO
        40 001601   000010 631400 41                 EPPR1   8
        40 001602   000000 701000 xent               TSX1    SET_FIELD_NUM
        40 001603   000000 011000                    NOP     0

      417     1704    3           CALL CAT_A(SUBSTR(FIELD1.TEXT1,0,FIELD1.COUNT1)) ALTRET(CATER);

   1704 40 001604   000000 236000 18                 LDQ     FIELD1
        40 001605   000033 772000                    QRL     27
        40 001606   000032 236000 41                 LDQ     26
        40 001607   200143 756100                    STQ     LNO_DIFF+3,,AUTO
        40 001610   002045 701000 40                 TSX1    CAT_A
        40 001611   001717 702000 40                 TSX2    CATER

      418     1705    3           END;

      419     1706    2       CALL FETCHNS_6('SN-NRCO ') ALTRET(SNX2);

   1706 40 001612   000033 630400 41                 EPPR0   27
        40 001613   000000 631400 41                 EPPR1   0
        40 001614   000000 701000 xent               TSX1    FETCHNS_6
        40 001615   001657 702000 40                 TSX2    SNX2

      420     1707    2       FIRST_NRCO_CHECK = '0'B;

   1707 40 001616   200046 450100                    STZ     FIRST_NRCO_CHECK,,AUTO

      421     1708    2       CALL CAT_A('REF') ALTRET( CATER);

   1708 40 001617   000034 236000 41                 LDQ     28
        40 001620   200143 756100                    STQ     LNO_DIFF+3,,AUTO
        40 001621   002045 701000 40                 TSX1    CAT_A
        40 001622   001717 702000 40                 TSX2    CATER

PL6.E3A0      #001=ZIG$D_XREF File=ZIG$D_XREF.:ZIC0TSI                           FRI 09/05/97 12:03 Page:71
      422     1709    2   SNX1:
      423     1710    2       IF UWA.NR.IMPLCT = 1 THEN /* */

   1710 40 001623   000467 235000 16    SNX1         LDA     UWA+311
        40 001624   000001 115007                    CMPA    1,DL
        40 001625   001630 601000 40                 TNZ     s:1712

      424     1711    2           IMPLICIT = '1'B;

   1711 40 001626   400000 236003                    LDQ     -131072,DU
        40 001627   000046 756000 17                 STQ     IMPLICIT

      425     1712    2       CALL SET_FIELD_NUM(1,UWA.NR.LNO - 1);

   1712 40 001630   000471 236000 16                 LDQ     UWA+313
        40 001631   000001 136007                    SBLQ    1,DL
        40 001632   200160 756100                    STQ     X+1,,AUTO
        40 001633   200160 630500                    EPPR0   X+1,,AUTO
        40 001634   200163 450500                    STP0    X+4,,AUTO
        40 001635   000012 236000 41                 LDQ     10
        40 001636   200162 756100                    STQ     X+3,,AUTO
        40 001637   200162 630500                    EPPR0   X+3,,AUTO
        40 001640   000010 631400 41                 EPPR1   8
        40 001641   000000 701000 xent               TSX1    SET_FIELD_NUM
        40 001642   000000 011000                    NOP     0

      426     1713    2       CALL CAT_A(SUBSTR(FIELD1.TEXT1,0,FIELD1.COUNT1)) ALTRET(EOL);

   1713 40 001643   000000 236000 18                 LDQ     FIELD1
        40 001644   000033 772000                    QRL     27
        40 001645   000032 236000 41                 LDQ     26
        40 001646   200143 756100                    STQ     LNO_DIFF+3,,AUTO
        40 001647   002045 701000 40                 TSX1    CAT_A
        40 001650   001713 702000 40                 TSX2    EOL

      427     1714    2       IMPLICIT = '0'B;

PL6.E3A0      #001=ZIG$D_XREF File=ZIG$D_XREF.:ZIC0TSI                           FRI 09/05/97 12:03 Page:72
   1714 40 001651   000046 450000 17                 STZ     IMPLICIT

      428     1715    2       CALL FETCHNS_6('SN-NRCO ') ALTRET(SNX2);

   1715 40 001652   000033 630400 41                 EPPR0   27
        40 001653   000000 631400 41                 EPPR1   0
        40 001654   000000 701000 xent               TSX1    FETCHNS_6
        40 001655   001657 702000 40                 TSX2    SNX2

      429     1716    2       GOTO SNX1;

   1716 40 001656   001623 710000 40                 TRA     SNX1

      430     1717    2   SNX2:
      431     1718    2       IF FIRST_NRCO_CHECK AND SN.DCLR = 0 THEN

   1718 40 001657   200046 234100       SNX2         SZN     FIRST_NRCO_CHECK,,AUTO
        40 001660   001707 605000 40                 TPL     s:1726
        40 001661   200004 235100                    LDA     SN,,AUTO
        40 001662   001707 601000 40                 TNZ     s:1726

      432     1719    3       DO;

      433     1720    3           FIRST_NRCO_CHECK = '0'B;

   1720 40 001663   200046 450100                    STZ     FIRST_NRCO_CHECK,,AUTO

      434     1721    3           CALL CAT_A('REF') ALTRET(CATER);

   1721 40 001664   000034 236000 41                 LDQ     28
        40 001665   200143 756100                    STQ     LNO_DIFF+3,,AUTO
        40 001666   002045 701000 40                 TSX1    CAT_A
        40 001667   001717 702000 40                 TSX2    CATER

      435     1722    3           IMPLICIT = '0'B;

   1722 40 001670   000046 450000 17                 STZ     IMPLICIT
PL6.E3A0      #001=ZIG$D_XREF File=ZIG$D_XREF.:ZIC0TSI                           FRI 09/05/97 12:03 Page:73

      436     1723    3           CALL SET_FIELD_NUM(1,SN.LNO);

   1723 40 001671   200007 630500                    EPPR0   SN+3,,AUTO
        40 001672   200161 450500                    STP0    X+2,,AUTO
        40 001673   000012 236000 41                 LDQ     10
        40 001674   200160 756100                    STQ     X+1,,AUTO
        40 001675   200160 630500                    EPPR0   X+1,,AUTO
        40 001676   000010 631400 41                 EPPR1   8
        40 001677   000000 701000 xent               TSX1    SET_FIELD_NUM
        40 001700   000000 011000                    NOP     0

      437     1724    3           CALL CAT_A(SUBSTR(FIELD1.TEXT1,0,FIELD1.COUNT1)) ALTRET(EOL);

   1724 40 001701   000000 236000 18                 LDQ     FIELD1
        40 001702   000033 772000                    QRL     27
        40 001703   000032 236000 41                 LDQ     26
        40 001704   200143 756100                    STQ     LNO_DIFF+3,,AUTO
        40 001705   002045 701000 40                 TSX1    CAT_A
        40 001706   001713 702000 40                 TSX2    EOL

      438     1725    3           END;

      439     1726    2       CALL PUTL;

   1726 40 001707   002160 701000 40                 TSX1    PUTL
        40 001710   000000 011000                    NOP     0

      440     1727    2       RETURN;

   1727 40 001711   200136 221300                    LDX1  ! J+2,,AUTO
        40 001712   000001 702211                    TSX2  ! 1,X1

      441     1728    2   EOL:
      442     1729    2       IMPLICIT = '0'B;

   1729 40 001713   000046 450000 17    EOL          STZ     IMPLICIT
PL6.E3A0      #001=ZIG$D_XREF File=ZIG$D_XREF.:ZIC0TSI                           FRI 09/05/97 12:03 Page:74

      443     1730    2       CALL PUTL;

   1730 40 001714   002160 701000 40                 TSX1    PUTL
        40 001715   000000 011000                    NOP     0

      444     1731    2       GOTO SNX1;

   1731 40 001716   001623 710000 40                 TRA     SNX1

      445     1732    2   CATER: RETURN;

   1732 40 001717   200136 221300       CATER        LDX1  ! J+2,,AUTO
        40 001720   000001 702211                    TSX2  ! 1,X1

      446     1733    2   END PUTSNXL;
      447     1734    1   PUTPNXL:

   1734 40 001721   200136 741300       PUTPNXL      STX1  ! J+2,,AUTO

      448     1735    1       PROC;
      449     1736    2       TYPE ='PROCEDURE';

   1736 40 001722   040100 100400                    MLR     fill='040'O
        40 001723   000117 000011 39                 ADSC9   79                       cn=0,n=9
        40 001724   200111 000014                    ADSC9   TYPE,,AUTO               cn=0,n=12

      450     1737    2       NAME = UWA.PN.PNAME;

   1737 40 001725   040100 100400                    MLR     fill='040'O
        40 001726   000455 000036 16                 ADSC9   UWA+301                  cn=0,n=30
        40 001727   200047 000104                    ADSC9   NAME,,AUTO               cn=0,n=68

      451     1738    2       CALL CAT_A('REF') ALTRET(CATER);

   1738 40 001730   000034 236000 41                 LDQ     28
        40 001731   200143 756100                    STQ     LNO_DIFF+3,,AUTO
PL6.E3A0      #001=ZIG$D_XREF File=ZIG$D_XREF.:ZIC0TSI                           FRI 09/05/97 12:03 Page:75
        40 001732   002045 701000 40                 TSX1    CAT_A
        40 001733   001771 702000 40                 TSX2    CATER

      452     1739    2   PNX1:
      453     1740    2       CALL FETCHNS_6('PN-PT   ') ALTRET(PNX2);

   1740 40 001734   000035 630400 41    PNX1         EPPR0   29
        40 001735   000000 631400 41                 EPPR1   0
        40 001736   000000 701000 xent               TSX1    FETCHNS_6
        40 001737   001762 702000 40                 TSX2    PNX2

      454     1741    2   PNX11:
      455     1742    2       CALL SET_FIELD_NUM(1,UWA.PT.LNO - 1);

   1742 40 001740   000477 235000 16    PNX11        LDA     UWA+319
        40 001741   000001 135007                    SBLA    1,DL
        40 001742   200160 755100                    STA     X+1,,AUTO
        40 001743   200160 630500                    EPPR0   X+1,,AUTO
        40 001744   200163 450500                    STP0    X+4,,AUTO
        40 001745   000012 236000 41                 LDQ     10
        40 001746   200162 756100                    STQ     X+3,,AUTO
        40 001747   200162 630500                    EPPR0   X+3,,AUTO
        40 001750   000010 631400 41                 EPPR1   8
        40 001751   000000 701000 xent               TSX1    SET_FIELD_NUM
        40 001752   000000 011000                    NOP     0

      456     1743    2       CALL CAT_A(SUBSTR(FIELD1.TEXT1,0,FIELD1.COUNT1)) ALTRET(EOL);

   1743 40 001753   000000 236000 18                 LDQ     FIELD1
        40 001754   000033 772000                    QRL     27
        40 001755   000032 236000 41                 LDQ     26
        40 001756   200143 756100                    STQ     LNO_DIFF+3,,AUTO
        40 001757   002045 701000 40                 TSX1    CAT_A
        40 001760   001766 702000 40                 TSX2    EOL

      457     1744    2       GOTO PNX1;

PL6.E3A0      #001=ZIG$D_XREF File=ZIG$D_XREF.:ZIC0TSI                           FRI 09/05/97 12:03 Page:76
   1744 40 001761   001734 710000 40                 TRA     PNX1

      458     1745    2   PNX2:
      459     1746    2       CALL PUTL;

   1746 40 001762   002160 701000 40    PNX2         TSX1    PUTL
        40 001763   000000 011000                    NOP     0

      460     1747    2       RETURN;

   1747 40 001764   200136 221300                    LDX1  ! J+2,,AUTO
        40 001765   000001 702211                    TSX2  ! 1,X1

      461     1748    2   EOL:
      462     1749    2       CALL PUTL;

   1749 40 001766   002160 701000 40    EOL          TSX1    PUTL
        40 001767   000000 011000                    NOP     0

      463     1750    2       GOTO PNX11;

   1750 40 001770   001740 710000 40                 TRA     PNX11

      464     1751    2   CATER: RETURN;

   1751 40 001771   200136 221300       CATER        LDX1  ! J+2,,AUTO
        40 001772   000001 702211                    TSX2  ! 1,X1

      465     1752    2   END PUTPNXL;
      466     1753    1   PUTLKXL:

   1753 40 001773   200136 741300       PUTLKXL      STX1  ! J+2,,AUTO

      467     1754    1       PROC;
      468     1755    2       TYPE = 'LOCK';

   1755 40 001774   040100 100400                    MLR     fill='040'O
PL6.E3A0      #001=ZIG$D_XREF File=ZIG$D_XREF.:ZIC0TSI                           FRI 09/05/97 12:03 Page:77
        40 001775   000124 000004 39                 ADSC9   84                       cn=0,n=4
        40 001776   200111 000014                    ADSC9   TYPE,,AUTO               cn=0,n=12

      469     1756    2       NAME = UWA.LK.PLNAME;

   1756 40 001777   040100 100400                    MLR     fill='040'O
        40 002000   000440 000036 16                 ADSC9   UWA+288                  cn=0,n=30
        40 002001   200047 000104                    ADSC9   NAME,,AUTO               cn=0,n=68

      470     1757    2       CALL CAT_A('REF')ALTRET(CATER);

   1757 40 002002   000034 236000 41                 LDQ     28
        40 002003   200143 756100                    STQ     LNO_DIFF+3,,AUTO
        40 002004   002045 701000 40                 TSX1    CAT_A
        40 002005   002043 702000 40                 TSX2    CATER

      471     1758    2   LKX1:
      472     1759    2       CALL FETCHNS_6('LK-LT   ') ALTRET(LKX2);

   1759 40 002006   000036 630400 41    LKX1         EPPR0   30
        40 002007   000000 631400 41                 EPPR1   0
        40 002010   000000 701000 xent               TSX1    FETCHNS_6
        40 002011   002034 702000 40                 TSX2    LKX2

      473     1760    2   LKX11:
      474     1761    2       CALL SET_FIELD_NUM(1,UWA.LT.LNO - 1);

   1761 40 002012   000474 235000 16    LKX11        LDA     UWA+316
        40 002013   000001 135007                    SBLA    1,DL
        40 002014   200160 755100                    STA     X+1,,AUTO
        40 002015   200160 630500                    EPPR0   X+1,,AUTO
        40 002016   200163 450500                    STP0    X+4,,AUTO
        40 002017   000012 236000 41                 LDQ     10
        40 002020   200162 756100                    STQ     X+3,,AUTO
        40 002021   200162 630500                    EPPR0   X+3,,AUTO
        40 002022   000010 631400 41                 EPPR1   8
        40 002023   000000 701000 xent               TSX1    SET_FIELD_NUM
PL6.E3A0      #001=ZIG$D_XREF File=ZIG$D_XREF.:ZIC0TSI                           FRI 09/05/97 12:03 Page:78
        40 002024   000000 011000                    NOP     0

      475     1762    2       CALL CAT_A(SUBSTR(FIELD1.TEXT1,0,FIELD1.COUNT1)) ALTRET(EOL);

   1762 40 002025   000000 236000 18                 LDQ     FIELD1
        40 002026   000033 772000                    QRL     27
        40 002027   000032 236000 41                 LDQ     26
        40 002030   200143 756100                    STQ     LNO_DIFF+3,,AUTO
        40 002031   002045 701000 40                 TSX1    CAT_A
        40 002032   002040 702000 40                 TSX2    EOL

      476     1763    2       GOTO LKX1;

   1763 40 002033   002006 710000 40                 TRA     LKX1

      477     1764    2   LKX2:
      478     1765    2       CALL PUTL;

   1765 40 002034   002160 701000 40    LKX2         TSX1    PUTL
        40 002035   000000 011000                    NOP     0

      479     1766    2       RETURN;

   1766 40 002036   200136 221300                    LDX1  ! J+2,,AUTO
        40 002037   000001 702211                    TSX2  ! 1,X1

      480     1767    2   EOL:
      481     1768    2       CALL PUTL;

   1768 40 002040   002160 701000 40    EOL          TSX1    PUTL
        40 002041   000000 011000                    NOP     0

      482     1769    2       GOTO LKX11;

   1769 40 002042   002012 710000 40                 TRA     LKX11

      483     1770    2   CATER: RETURN;
PL6.E3A0      #001=ZIG$D_XREF File=ZIG$D_XREF.:ZIC0TSI                           FRI 09/05/97 12:03 Page:79

   1770 40 002043   200136 221300       CATER        LDX1  ! J+2,,AUTO
        40 002044   000001 702211                    TSX2  ! 1,X1

      484     1771    2   END PUTLKXL;
      485     1772    1   CAT_A:

   1772 40 002045   200142 741300       CAT_A        STX1  ! LNO_DIFF+2,,AUTO

      486     1773    1       PROC(ILIT) ALTRET;
      487     1774    2   DCL ILIT CHAR(5);
      488     1775    2   DCL LIT CHAR(7);
      489     1776    2   DCL X UBIN WORD STATIC;
      490     1777    2   DCL Y UBIN WORD STATIC;
      491     1778    2       CALL INDEX(Y,' ',ILIT);

   1778 40 002046   200143 470500                    LDP0    @ILIT,,AUTO
        40 002047   000000 124500                    SCM     mask='000'O
        40 002050   000000 000005                    ADSC9   0,,PR0                   cn=0,n=5
        40 002051   000001 000001 41                 ADSC9   1                        cn=0,n=1
        40 002052   000164 000000 17                 ARG     Y

      492     1779    3       IF IMPLICIT THEN DO;

   1779 40 002053   000046 234000 17                 SZN     IMPLICIT
        40 002054   002076 605000 40                 TPL     s:1784

      493     1780    3           CALL CONCAT(LIT,'(',SUBSTR(ILIT,0,Y),')');

   1780 40 002055   050000 236003                    LDQ     20480,DU
        40 002056   200144 756100                    STQ     LIT,,AUTO
        40 002057   000164 720000 17                 LXL0    Y
        40 002060   040100 100540                    MLR     fill='040'O
        40 002061   000000 000010                    ADSC9   0,,PR0                   cn=0,n=*X0
        40 002062   200144 200006                    ADSC9   LIT,,AUTO                cn=1,n=6
        40 002063   000164 236000 17                 LDQ     Y
        40 002064   000006 116007                    CMPQ    6,DL
PL6.E3A0      #001=ZIG$D_XREF File=ZIG$D_XREF.:ZIC0TSI                           FRI 09/05/97 12:03 Page:80
        40 002065   002073 603000 40                 TRC     s:1781
        40 002066   777771 622006                    EAX2    -7,QL
        40 002067   777777 662003                    ERX2    -1,DU
        40 002070   040146 100400                    MLR     fill='040'O
        40 002071   000030 000001 41                 ADSC9   24                       cn=0,n=1
        40 002072   200144 200012                    ADSC9   LIT,Q,AUTO               cn=1,n=*X2

      494     1781    3           Y = Y + 2;

   1781 40 002073   000002 036007                    ADLQ    2,DL
        40 002074   000164 756000 17                 STQ     Y

      495     1782    3           END;

   1782 40 002075   002101 710000 40                 TRA     s:1785

      496     1783    2       ELSE /* */
      497     1784    2           LIT = ILIT;

   1784 40 002076   040100 100500                    MLR     fill='040'O
        40 002077   000000 000005                    ADSC9   0,,PR0                   cn=0,n=5
        40 002100   200144 000007                    ADSC9   LIT,,AUTO                cn=0,n=7

      498     1785    2       IF Y < 4 THEN /* */

   1785 40 002101   000164 235000 17                 LDA     Y
        40 002102   000004 115007                    CMPA    4,DL
        40 002103   002115 603000 40                 TRC     s:1788

      499     1786    2           CALL INDEX(X,'     ',ASTRNG);

   1786 40 002104   000163 631400 17                 EPPR1   X
        40 002105   000127 633400 39                 EPPR3   87
        40 002106   000005 223003                    LDX3    5,DU
        40 002107   200114 630500                    EPPR0   ASTRNG,,AUTO
        40 002110   000074 220003                    LDX0    60,DU
        40 002111   000000 236003                    LDQ     0,DU
PL6.E3A0      #001=ZIG$D_XREF File=ZIG$D_XREF.:ZIC0TSI                           FRI 09/05/97 12:03 Page:81
        40 002112   000000 701000 xent               TSX1    X66_INDEX
        40 002113   000000 011000                    NOP     0
        40 002114   002125 710000 40                 TRA     s:1789

      500     1787    2       ELSE /* */
      501     1788    2           CALL INDEX(X,'       ',ASTRNG);

   1788 40 002115   000163 631400 17                 EPPR1   X
        40 002116   000127 633400 39                 EPPR3   87
        40 002117   000007 223003                    LDX3    7,DU
        40 002120   200114 630500                    EPPR0   ASTRNG,,AUTO
        40 002121   000074 220003                    LDX0    60,DU
        40 002122   000000 236003                    LDQ     0,DU
        40 002123   000000 701000 xent               TSX1    X66_INDEX
        40 002124   000000 011000                    NOP     0

      502     1789    2       IF X = LENGTHC(ASTRNG) THEN /* */

   1789 40 002125   000163 235000 17                 LDA     X
        40 002126   000074 115007                    CMPA    60,DL
        40 002127   002132 601000 40                 TNZ     s:1791

      503     1790    2           ALTRETURN;

   1790 40 002130   200142 221300                    LDX1  ! LNO_DIFF+2,,AUTO
        40 002131   000000 702211                    TSX2  ! 0,X1

      504     1791    2       IF X + Y > 55 THEN /* */

   1791 40 002132   000163 236000 17                 LDQ     X
        40 002133   000164 036000 17                 ADLQ    Y
        40 002134   000070 116007                    CMPQ    56,DL
        40 002135   002140 602000 40                 TNC     s:1793

      505     1792    2           ALTRETURN;

   1792 40 002136   200142 221300                    LDX1  ! LNO_DIFF+2,,AUTO
PL6.E3A0      #001=ZIG$D_XREF File=ZIG$D_XREF.:ZIC0TSI                           FRI 09/05/97 12:03 Page:82
        40 002137   000000 702211                    TSX2  ! 0,X1

      506     1793    2       IF (SUBSTR(LIT,0,3) = 'REF') THEN /* */

   1793 40 002140   200144 236100                    LDQ     LIT,,AUTO
        40 002141   000116 676000 39                 ERQ     78
        40 002142   000037 376000 41                 ANQ     31
        40 002143   002150 601000 40                 TNZ     s:1798

      507     1794    3       DO;

      508     1795    3           IF X > 5 THEN /* */

   1795 40 002144   000006 115007                    CMPA    6,DL
        40 002145   002150 602000 40                 TNC     s:1798

      509     1796    3               X = 9;

   1796 40 002146   000011 236007                    LDQ     9,DL
        40 002147   000163 756000 17                 STQ     X

      510     1797    3           END;

      511     1798    2       CALL INSERT(ASTRNG,X+1,Y,SUBSTR(LIT,0,Y));

   1798 40 002150   000164 721000 17                 LXL1    Y
        40 002151   000163 235000 17                 LDA     X
        40 002152   040145 100540                    MLR     fill='040'O
        40 002153   200144 000011                    ADSC9   LIT,,AUTO                cn=0,n=*X1
        40 002154   200114 200011                    ADSC9   ASTRNG,A,AUTO            cn=1,n=*X1

      512     1799    2   END CAT_A;

   1799 40 002155   200142 221300                    LDX1  ! LNO_DIFF+2,,AUTO
        40 002156   000001 702211                    TSX2  ! 1,X1

      513     1800    1   CATER:
PL6.E3A0      #001=ZIG$D_XREF File=ZIG$D_XREF.:ZIC0TSI                           FRI 09/05/97 12:03 Page:83
      514     1801    1       RETURN;

   1801 40 002157   000000 702200 xent  CATER        TSX2  ! X66_ARET

      515     1802    1   PUTL:

   1802 40 002160   200142 741300       PUTL         STX1  ! LNO_DIFF+2,,AUTO

      516     1803    1       PROC;
      517     1804    2   DCL NAME45 CHAR(45);
      518     1805    2   DCL X UBIN WORD;
      519     1806    2       CALL INDEX(X,'  ',NAME);

   1806 40 002161   000000 120500                    SCD
        40 002162   200047 000104                    ADSC9   NAME,,AUTO               cn=0,n=68
        40 002163   000017 000002 39                 ADSC9   15                       cn=0,n=2
        40 002164   200157 000100                    ARG     X,,AUTO
        40 002165   002167 607000 40                 TTF     s:1807
        40 002166   200157 054100                    AOS     X,,AUTO

      520     1807    2       IF X > 43 THEN

   1807 40 002167   200157 235100                    LDA     X,,AUTO
        40 002170   000054 115007                    CMPA    44,DL
        40 002171   002224 602000 40                 TNC     s:1816

      521     1808    3       DO;

      522     1809    3           CALL CONCAT(O_L,' ',NAME);

   1809 40 002172   040000 236003                    LDQ     16384,DU
        40 002173   000001 756000 17                 STQ     O_L
        40 002174   040000 100500                    MLR     fill='040'O
        40 002175   200047 000104                    ADSC9   NAME,,AUTO               cn=0,n=68
        40 002176   000001 200177 17                 ADSC9   O_L                      cn=1,n=127

      523     1810    3           CALL LIST(O_L);
PL6.E3A0      #001=ZIG$D_XREF File=ZIG$D_XREF.:ZIC0TSI                           FRI 09/05/97 12:03 Page:84

   1810 40 002177   000005 630400 41                 EPPR0   5
        40 002200   000000 631400 41                 EPPR1   0
        40 002201   000000 701000 xent               TSX1    LIST
        40 002202   000000 011000                    NOP     0

      524     1811    3           CALL CONCAT(O_L,'                                               ',TYPE,'  '
              1811                    ,ASTRNG);

   1811 40 002203   040000 100400                    MLR     fill='040'O
        40 002204   000131 000057 39                 ADSC9   89                       cn=0,n=47
        40 002205   000001 000057 17                 ADSC9   O_L                      cn=0,n=47
        40 002206   040000 100500                    MLR     fill='040'O
        40 002207   200111 000014                    ADSC9   TYPE,,AUTO               cn=0,n=12
        40 002210   000014 600014 17                 ADSC9   O_L+11                   cn=3,n=12
        40 002211   040000 100400                    MLR     fill='040'O
        40 002212   000017 000003 39                 ADSC9   15                       cn=0,n=3
        40 002213   000017 600003 17                 ADSC9   O_L+14                   cn=3,n=3
        40 002214   040000 100500                    MLR     fill='040'O
        40 002215   200114 000074                    ADSC9   ASTRNG,,AUTO             cn=0,n=60
        40 002216   000020 400102 17                 ADSC9   O_L+15                   cn=2,n=66

      525     1812    3           CALL LIST(O_L);

   1812 40 002217   000005 630400 41                 EPPR0   5
        40 002220   000000 631400 41                 EPPR1   0
        40 002221   000000 701000 xent               TSX1    LIST
        40 002222   000000 011000                    NOP     0

      526     1813    3           END;

   1813 40 002223   002253 710000 40                 TRA     s:1820

      527     1814    2       ELSE /* */
      528     1815    3       DO;

      529     1816    3           NAME45 = NAME;
PL6.E3A0      #001=ZIG$D_XREF File=ZIG$D_XREF.:ZIC0TSI                           FRI 09/05/97 12:03 Page:85

   1816 40 002224   040100 100500                    MLR     fill='040'O
        40 002225   200047 000055                    ADSC9   NAME,,AUTO               cn=0,n=45
        40 002226   200143 000055                    ADSC9   NAME45,,AUTO             cn=0,n=45

      530     1817    3           CALL CONCAT(O_L,' ',NAME45,' ',TYPE,'   ',ASTRNG);

   1817 40 002227   040000 236003                    LDQ     16384,DU
        40 002230   000001 756000 17                 STQ     O_L
        40 002231   040000 100500                    MLR     fill='040'O
        40 002232   200143 000055                    ADSC9   NAME45,,AUTO             cn=0,n=45
        40 002233   000001 200055 17                 ADSC9   O_L                      cn=1,n=45
        40 002234   040000 236007                    LDQ     16384,DL
        40 002235   000014 552010 17                 STBQ    O_L+11,'10'O
        40 002236   040000 100500                    MLR     fill='040'O
        40 002237   200111 000014                    ADSC9   TYPE,,AUTO               cn=0,n=12
        40 002240   000014 600014 17                 ADSC9   O_L+11                   cn=3,n=12
        40 002241   040000 100400                    MLR     fill='040'O
        40 002242   000017 000003 39                 ADSC9   15                       cn=0,n=3
        40 002243   000017 600003 17                 ADSC9   O_L+14                   cn=3,n=3
        40 002244   040000 100500                    MLR     fill='040'O
        40 002245   200114 000074                    ADSC9   ASTRNG,,AUTO             cn=0,n=60
        40 002246   000020 400102 17                 ADSC9   O_L+15                   cn=2,n=66

      531     1818    3           CALL LIST(O_L);

   1818 40 002247   000005 630400 41                 EPPR0   5
        40 002250   000000 631400 41                 EPPR1   0
        40 002251   000000 701000 xent               TSX1    LIST
        40 002252   000000 011000                    NOP     0

      532     1819    3           END;

      533     1820    2       NAME = ' ';

   1820 40 002253   040100 100400                    MLR     fill='040'O
        40 002254   000001 000001 41                 ADSC9   1                        cn=0,n=1
PL6.E3A0      #001=ZIG$D_XREF File=ZIG$D_XREF.:ZIC0TSI                           FRI 09/05/97 12:03 Page:86
        40 002255   200047 000104                    ADSC9   NAME,,AUTO               cn=0,n=68

      534     1821    2       TYPE = ' ';

   1821 40 002256   040100 100400                    MLR     fill='040'O
        40 002257   000001 000001 41                 ADSC9   1                        cn=0,n=1
        40 002260   200111 000014                    ADSC9   TYPE,,AUTO               cn=0,n=12

      535     1822    2       ASTRNG = ' ';

   1822 40 002261   040100 100400                    MLR     fill='040'O
        40 002262   000001 000001 41                 ADSC9   1                        cn=0,n=1
        40 002263   200114 000074                    ADSC9   ASTRNG,,AUTO             cn=0,n=60

      536     1823    2   END PUTL;

   1823 40 002264   200142 221300                    LDX1  ! LNO_DIFF+2,,AUTO
        40 002265   000001 702211                    TSX2  ! 1,X1

UWA_KEY
 Sect OctLoc
   7     000   007125 127101   ****** ******                                    .UWA....

RVA_KEY
 Sect OctLoc
   9     000   007122 126101   ****** ******                                    .RVA....

IA__KEY
 Sect OctLoc
  10     000   007111 101137   ****** ******                                    .IA_....

SEARCHR_NB
 Sect OctLoc
  12     000   001001 001001   001001 001001   001001 001001   001001 001001    ................
  12     010*  000001 001001   001001 001001   001001 001001   001001 001001    ................
  12     014   001001 001001   001001 001001   001001 001001   001001 001001    ................
  12     034*  001001 001001   001001 001001   001001 001001   001001 001001    ................
PL6.E3A0      #001=ZIG$D_XREF File=ZIG$D_XREF.:ZIC0TSI                           FRI 09/05/97 12:03 Page:87

SEM_COM
 Sect OctLoc
  13     000   000001 002003   004005 006007   010011 012013   014015 016017    ................
  13     004   020021 022023   024025 026027   030031 032033   034035 036037    ................
  13     010   040041 042043   044045 046047   050051 052053   054055 056057     !"#$%&'()*+,-./
  13     014   060061 062063   064065 066067   070071 072040   074075 076077    0123456789: <=>?
  13     020   100101 102103   104105 106107   110111 112113   114115 116117    @ABCDEFGHIJKLMNO
  13     024   120121 122123   124125 126127   130131 132133   134135 136137    PQRSTUVWXYZ[\]^_
  13     030   140141 142143   144145 146147   150151 152153   154155 156157    `abcdefghijklmno
  13     034   160161 162163   164165 166167   170171 172173   174175 176177    pqrstuvwxyz{|}~.

DMCL_XLATE
 Sect OctLoc
  14     000   000001 002003   004005 006007   010011 012013   014015 016017    ................
  14     004   020021 022023   024025 026027   030031 032033   034035 036037    ................
  14     010   040041 041043   044045 046047   050051 052053   054055 136057     !!#$%&'()*+,-^/
  14     014   060061 062063   064065 066067   070071 072040   074075 076077    0123456789: <=>?
  14     020   100101 102103   104105 106107   110111 112113   114115 116117    @ABCDEFGHIJKLMNO
  14     024   120121 122123   124125 126127   130131 132133   134135 136137    PQRSTUVWXYZ[\]^_
  14     030   140141 142143   144145 146147   150151 152153   154155 156157    `abcdefghijklmno
  14     034   160161 162163   164165 166167   170171 172173   174175 176177    pqrstuvwxyz{|}~.

Q2_PERCENT
 Sect OctLoc
  15     000   000001 002003   004005 006007   010011 012013   014015 016017    ................
  15     004   020021 022023   024025 026027   030031 032033   034035 036037    ................
  15     010   040041 045043   044045 046047   050051 052053   054055 056057     !%#$%&'()*+,-./
  15     014   060061 062063   064065 066067   070071 072073   074075 076077    0123456789:;<=>?
  15     020   100101 102103   104105 106107   110111 112113   114115 116117    @ABCDEFGHIJKLMNO
  15     024   120121 122123   124125 126127   130131 132133   134135 136137    PQRSTUVWXYZ[\]^_
  15     030   140141 142143   144145 146147   150151 152153   154155 156157    `abcdefghijklmno
  15     034   160161 162163   164165 166167   170171 172173   174175 176177    pqrstuvwxyz{|}~.

UWA
 Sect OctLoc
  16     000   000000 000000   040040 040040   040040 040040   040040 040040    ....
PL6.E3A0      #001=ZIG$D_XREF File=ZIG$D_XREF.:ZIC0TSI                           FRI 09/05/97 12:03 Page:88
  16     004   040040 040040   040040 040040   040040 040040   040040 040040
  16     010   040040 040040   040040 040040   040040 000000   040040 040040              ..
  16     014   040040 040040   040040 040040   040040 040040   040040 040040
  16     020   040040 040040   040040 040040   040040 000000   040040 040040              ..
  16     024   040040 040040   040040 040040   040040 040040   040040 040040
  16     030   040040 040040   040040 040040   040040 000000   040040 040040              ..
  16     034   040040 040040   040040 040040   000000 000000   040040 040040            ....
  16     040   040040 040040   040040 040040   040040 040040   040040 040040
  16     044   040040 040040   040040 040040   040040 000000   040040 040040              ..
  16     050   040040 040040   040040 040040   040040 040040   040040 040040
  16     054   040040 040040   040040 040040   040040 000000   000000 000000              ......
  16     060   040040 040040   040*** ******   000000 000000   000000 000000         ...........
  16     064   000000 000000   000000 000000   040040 040040   040040 040040    ........
  16     070   040040 040040   040040 040040   040040 040040   040040 040040
  16     100*  040040 ******   000000 000000   040040 040040   040040 040040      ......
  16     104   040040 040040   040040 040040   040040 040040   040040 040040
  16     124*  040040 040040   040040 040040   000000 000000   040040 040040            ....
  16     130   040040 040040   040040 040040   040040 040040   040040 040040
  16     134   040040 040040   040040 040040   040040 ******   000000 000000              ......
  16     140   040040 040040   040040 040040   040040 040040   040040 040040
  16     144   040040 040040   040040 040040   000000 000000   000000 000000            ........
  16     150   000000 000000   000000 000000   000000 000000   000000 000000    ................
  16     154   040040 040040   040040 040040   040040 040040   040040 040040
  16     160   040040 040040   040040 040040   040040 040040   040040 ******                  ..
  16     164   000000 000000   ****** ******   000000 000000   000000 000000    ................
  16     170   000000 000000   040040 040040   040040 040040   040040 040040    ....
  16     174   040040 040040   040040 040040   040040 040040   040040 040040
  16     210*  040040 040040   040040 040040   040040 040040   ****** ******                ....
  16     214   000000 000000   000000 000000   000000 000000   000000 000000    ................
  16     224*  000000 000000   000000 000000   000000 000000   040040 ******    ............  ..
  16     230   000000 000000   ****** ******   000000 000000   040040 040040    ............
  16     234   000000 000000   000000 000000   000000 000000   000000 000000    ................
  16     264*  000000 000000   000000 000000   000000 000000   ****** ******    ................
  16     270   000000 000000   000000 000000   000000 000000   000000 000000    ................
  16     324*  000000 000000   ****** ******   000000 000000   000000 000000    ................
  16     330   000000 000000   000000 000000   000000 000000   000000 000000    ................
  16     350*  000000 000000   000000 000000   000000 000000   ****** ******    ................
PL6.E3A0      #001=ZIG$D_XREF File=ZIG$D_XREF.:ZIC0TSI                           FRI 09/05/97 12:03 Page:89
  16     360*  000000 000000   000000 000000   000000 000000   000000 000000    ................
  16     404*  000000 000000   ****** ******   000000 000000   000000 000000    ................
  16     410   000000 000000   000000 000000   000000 000000   000000 000000    ................
  16     424*  000000 000000   000000 000000   000000 000000   040040 040040    ............
  16     430   040040 040040   040040 040040   040040 040040   040040 040040
  16     434   040040 040040   040040 040040   040040 ******   ****** ******              ......
  16     440   040040 040040   040040 040040   040040 040040   040040 040040
  16     450*  040040 040040   040040 040040   040040 ******   ****** ******              ......
  16     454   000000 000000   040040 040040   040040 040040   040040 040040    ....
  16     460   040040 040040   040040 040040   040040 040040   040040 040040
  16     464   040040 ******   ****** ******   000000 000000   000000 000000      ..............
  16     470   000000 000000   000000 000000   000000 000000   000000 000000    ................
  16     474   000000 000000   ****** ******   000000 000000   000000 000000    ................
  16     500   000000 000000   000000 000000   040040 040040   040040 040040    ........
  16     504   040040 040040   040040 040040   040040 040040   040040 040040
  16     520*  040040 040040   ****** ******   000000 000000   000000 000000        ............
  16     524   040040 040040   040040 040040   040040 040040   040040 040040
  16     574*  000000 000000   000000 000000   000000 000000   000000 000000    ................
  16     600   000000 000000   000000 000000   000000 000000   ****** ******    ................
  16     604   000000 000000   000000 000000   000000 000000   000000 000000    ................
  16     610   000000 000000   000000 000000   040040 040040   040040 040040    ........
  16     614   040040 040040   040040 040040   040040 040040   040040 040040
  16     620   040040 040040   040040 ******   040040 040040   040040 040040          ..
  16     624   040040 040040   040040 040040   040040 040040   040040 040040
  16     660*  040040 040040   040040 040040   040040 040040   ****** ******                ....
  16     664   040040 040040   040040 040040   040040 040040   040040 040040
  16     674*  040040 040040   ****** ******   040040 040040   040040 040040        ....
  16     700   040040 040040   040040 040040   040040 040040   040040 040040
  16     710*  040040 040040   ****** ******   040040 040040   040040 040040        ....
  16     714   040040 040040   040040 040040   040040 040040   040040 040040
  16     720   040040 040040   040040 040040   040040 040040   ****** ******                ....
  16     724   040040 040040   040040 040040   040040 040040   040040 040040
  16     740*  040040 040040   ****** ******   040040 040040   040040 040040        ....
  16     744   040040 040040   040040 040040   040040 040040   040040 040040
  16     774*  040040 040040   ****** ******   040040 040040   040040 040040        ....
  16    1000   040040 040040   040040 040040   040040 040040   040040 040040
  16    1034*  040040 040040   ****** ******   040040 040040   040040 040040        ....
PL6.E3A0      #001=ZIG$D_XREF File=ZIG$D_XREF.:ZIC0TSI                           FRI 09/05/97 12:03 Page:90
  16    1040   040040 040040   040040 040040   040040 040040   040040 040040
  16    1060*  040040 040040   ****** ******   040040 040040   040040 040040        ....
  16    1064   040040 040040   040040 040040   040040 040040   040040 040040
  16    1114*  040040 040040   ****** ******   040040 040040   040040 040040        ....
  16    1120   040040 040040   040040 040040   040040 040040   040040 040040
  16    1134*  040040 040040   040040 040040   040040 040040   ****** ******                ....
  16    1140   040040 040040   040040 040040   040040 040040   040040 040040
  16    1144   040040 040040   ****** ******   040040 040040   040040 040040        ....
  16    1150   040040 040040   040040 040040   040040 040040   ****** ******                ....
  16    1154   040040 040040   040040 040040   040040 040040   040040 040040
  16    1160   040040 040040   ****** ******   040040 040040   040040 040040        ....
  16    1164   040040 040040   040040 040040   040040 040040   ****** ******                ....
  16    1170   040040 040040   040040 040040   040040 040040   040040 040040
  16    1200*  040040 040040   040040 040040   040040 040040   ****** ******                ....
  16    1204   040040 040040   040040 040040   040040 040040   040040 040040
  16    1214*  040040 040040   040040 040040   040040 040040   040040 040040

O_L
 Sect OctLoc
  17     001   ****** ******   ****** ******   ****** ******   ****** ******    ................

NEXT_RECORD
 Sect OctLoc
  17     041   000000 000000                                                    ....

NEXT_FIELD
 Sect OctLoc
  17     042   000000 000000                                                    ....

NEXT_AREA
 Sect OctLoc
  17     043   000000 000000                                                    ....

NEXT_SET
 Sect OctLoc
  17     044   000000 000000                                                    ....

PL6.E3A0      #001=ZIG$D_XREF File=ZIG$D_XREF.:ZIC0TSI                           FRI 09/05/97 12:03 Page:91
NEXT_KEY
 Sect OctLoc
  17     045   000000 000000                                                    ....

IMPLICIT
 Sect OctLoc
  17     046   0***** ******                                                    ....

WIN
 Sect OctLoc
  17     047   ****** ******   ****** ******   ****** ******   ****** ******    ................

NXT_SN
 Sect OctLoc
  17     055   ****** ******   ****** ******   ****** ******   ****** ******    ................

CURR_SN
 Sect OctLoc
  17     063   ****** ******   ****** ******   ****** ******   ****** ******    ................

TSN
 Sect OctLoc
  17     071   ****** ******   ****** ******   ****** ******   ****** ******    ................

FIELD1
 Sect OctLoc
  18     000   ****** ******   ****** ******   ****** ******   ****** ******    ................

ANALS
 Sect OctLoc
  19     000   ****** ******   ****** ******   ****** ******   ****** ******    ................

PURGE
 Sect OctLoc
  20     000   ****** ******   ****** ******   ****** ******   ****** ******    ................

DICTS
PL6.E3A0      #001=ZIG$D_XREF File=ZIG$D_XREF.:ZIC0TSI                           FRI 09/05/97 12:03 Page:92
 Sect OctLoc
  21     000   ****** ******   ****** ******   ****** ******   ****** ******    ................

DISPS
 Sect OctLoc
  22     000   ***00* ******   ****** ******   ****** ******   ****** ******    ................
  22     024*  ****** ******   ****** ******   ****** ******                    ............

VALIDS
 Sect OctLoc
  23     000   ****** ******   ****** ******   ****** ******   ****** ******    ................

LOCKS
 Sect OctLoc
  24     000   ****** ******   ****** ******   ****** ******   ****** ******    ................

STRAN
 Sect OctLoc
  25     000   ****** ******   ****** ******   ****** ******   ****** ******    ................

DTRAN
 Sect OctLoc
  26     000   ****** ******   ****** ******   ****** ******   ****** ******    ................

SSTRANS
 Sect OctLoc
  27     000   ****** ******   ****** ******   ****** ******   ****** ******    ................

SSGEN
 Sect OctLoc
  28     000   ****** ******   ****** ******   ****** ******   ****** ******    ................

(unnamed)
 Sect OctLoc
  39     000   123103 110105   115101 040104   104114 040103   122117 123123    SCHEMA DDL CROSS
  39     004   040122 105106   105122 105116   103105 040040   116101 115105     REFERENCE  NAME
  39     010   123040 105130   120114 111103   111124 114131   040104 105103    S EXPLICITLY DEC
PL6.E3A0      #001=ZIG$D_XREF File=ZIG$D_XREF.:ZIC0TSI                           FRI 09/05/97 12:03 Page:93
  39     014   114101 122105   104052 052052   104101 040040   040040 040040    LARED***DA
  39     020   132132 132132   132132 132132   132132 132132   132132 132132    ZZZZZZZZZZZZZZZZ
  39     024   132132 132132   132132 132132   132132 132132   132132 040040    ZZZZZZZZZZZZZZ
  39     030   123116 040040   040040 040040   116101 115105   123040 122105    SN      NAMES RE
  39     034   106105 122105   116103 105104   040102 125124   040116 117124    FERENCED BUT NOT
  39     040   040104 105103   114101 122105   104052 052052   123116 055123     DECLARED***SN-S
  39     044   105040 040040   060065 060062   061060 060040   040116 117116    E   0502100  NON
  39     050   105040 040040   104101 124101   137102 101123   105137 120101    E   DATA_BASE_PA
  39     054   122101 115105   124105 122123   052052 052040   104101 124101    RAMETERS*** DATA
  39     060   137102 101123   105137 120122   111126 101103   131137 114117    _BASE_PRIVACY_LO
  39     064   103113 123052   052052 040040   104101 055114   113040 040040    CKS***  DA-LK
  39     070   104101 124101   137102 101123   105137 120122   117103 105104    DATA_BASE_PROCED
  39     074   125122 105040   116101 115105   123052 052052   104101 055120    URE NAMES***DA-P
  39     100   116040 040040   106111 105114   104040 040040   122105 103117    N   FIELD   RECO
  39     104   122104 040040   123105 124040   113105 131040   101122 105101    RD  SET KEY AREA
  39     110   122103 040040   040040 040040   054040 050040   104103 114040    RC      , ( DCL
  39     114   123116 055116   122103 117040   122105 106040   120122 117103    SN-NRCO REF PROC
  39     120   105104 125122   105040 040040   120116 055120   124040 040040    EDURE   PN-PT
  39     124   114117 103113   114113 055114   124040 040040   040040 040040    LOCKLK-LT
  39     130   040040 040040   040040 040040   040040 040040   040040 040040
  39     144*  040040 040040

(unnamed)
 Sect OctLoc
  41     000   000001 000000   040040 040040   000003 000000   000000 000002    ....    ........
  41     004   000000 000000   000001 006000   000003 006000   000004 006000    ................
  41     010   000002 000000   000000 000001   000011 006000   000000 000005    ................
  41     014   000016 006000   000013 006000   000030 006000   000011 006000    ................
  41     020   000157 006000   000043 006000   000001 006000   000011 006000    .o...#..........
  41     024   000004 006000   000066 006000   000077 006000   000110 006000    .....6...?...H..
  41     030   051040 040040   000113 006000   000000 206000   000114 006000    )   .K.......L..
  41     034   000116 006000   000122 006000   000125 006000   777777 777000    .N...R...U......
      537     1824    1   END ZIG$D_XREF;

PL6.E3A0      #001=ZIG$D_XREF File=ZIG$D_XREF.:ZIC0TSI                           FRI 09/05/97 12:03 Page:94
--  Include file information  --

   ZIG_DIR_STRUCS.:ZIC0TOU  cannot be made into a system file and is referenced.
   ZI_SUB4_CAN.:ZIC0TOU  is referenced.
   ZIG_TYPE_SUBS.:ZIC0TOU  is referenced.
   ZIG_GENERAL.:ZIC0TOU  cannot be made into a system file and is referenced.
   ZIG_DBA_INT.:ZIC0TOU  cannot be made into a system file and is referenced.
   B$JIT_C.:E05TOU  was found in the system file and is never referenced.
   CP_6_C.:E05TOU  was found in the system file and is never referenced.
      No diagnostics issued in procedure ZIG$D_XREF.

   Procedure ZIG$D_XREF requires 1206 words for executable code.
   Procedure ZIG$D_XREF requires 116 words of local(AUTO) storage.

    No errors detected in file ZIG$D_XREF.:ZIC0TSI    .
PL6.E3A0      #001=ZIG$D_XREF File=ZIG$D_XREF.:ZIC0TSI                           FRI 09/05/97 12:03 Page:95
          *** CROSS REFERENCE LISTING ***
**     DENOTES     IDENTIFIER DEFINITION
<<                 IDENTIFIER'S VALUE SET
>>                 IDENTIFIER'S VALUE USED
<>                 IDENTIFIER SET AND/OR USED
--                 IDENTIFIER REFERENCED
PL6.E3A0      #001=ZIG$D_XREF File=ZIG$D_XREF.:ZIC0TSI                           FRI 09/05/97 12:03 Page:96
          MINI XREF LISTING

ABORT
        78**DCL-ENT  1659--CALL
AREA$
      1325**DCL      1390>>ASSIGN   1391>>ASSIGN   1393>>ASSIGN   1540>>ASSIGN   1541>>ASSIGN   1543>>ASSIGN
ASTRNG
      1346**DCL      1371<<ASSIGN   1786>>CALLBLT  1788>>CALLBLT  1789--IF       1798<<CALLBLT  1811>>CALLBLT
      1817>>CALLBLT  1822<<ASSIGN
C64
      1316**DCL      1367<<ASSIGN   1368<>CALL
CATER IN PROCEDURE PUTLKXL
      1770**LABEL    1757--CALLALT
CATER IN PROCEDURE PUTPNXL
      1751**LABEL    1738--CALLALT
CATER IN PROCEDURE PUTSNXL
      1732**LABEL    1702--CALLALT  1704--CALLALT  1708--CALLALT  1721--CALLALT
CAT_A
      1773**PROC     1702--CALL     1704--CALL     1708--CALL     1713--CALL     1721--CALL     1724--CALL
      1738--CALL     1743--CALL     1757--CALL     1762--CALL
CURR_SN
      1351**DCL      1381<<ASSIGN   1386>>IF       1388<<ASSIGN   1400<<ASSIGN   1405>>IF       1407<<ASSIGN
      1419<<ASSIGN   1424>>IF       1426<<ASSIGN   1438<<ASSIGN   1443>>IF       1445<<ASSIGN   1457<<ASSIGN
      1462>>IF       1464<<ASSIGN   1476<<ASSIGN   1513<>CALL     1530<<ASSIGN   1536<<ASSIGN
DBK
      1339**DCL      1689<<ASSIGN   1690>>IF       1692<>CALL
END_DCLRD
      1577**LABEL    1512--GOTO
END_MERGE
      1657**LABEL    1651--CALLALT
EOL IN PROCEDURE PUTLKXL
      1768**LABEL    1762--CALLALT
EOL IN PROCEDURE PUTPNXL
      1749**LABEL    1743--CALLALT
PL6.E3A0      #001=ZIG$D_XREF File=ZIG$D_XREF.:ZIC0TSI                           FRI 09/05/97 12:03 Page:97
EOL IN PROCEDURE PUTSNXL
      1729**LABEL    1713--CALLALT  1724--CALLALT
FETCHD_6
        19**DCL-ENT  1380--CALL     1513--CALL     1581--CALL     1613--CALL
FETCHNS_6
        24**DCL-ENT  1591--CALL     1620--CALL     1637--CALL     1640--CALL     1648--CALL     1651--CALL
      1706--CALL     1715--CALL     1740--CALL     1759--CALL
FETCHOS_6
        28**DCL-ENT  1693--CALL
FIELD$
      1324**DCL      1428>>ASSIGN   1429>>ASSIGN   1431>>ASSIGN   1554>>ASSIGN   1555>>ASSIGN   1557>>ASSIGN
      1689>>ASSIGN
FIELD1.COUNT1
      1176**DCL      1704>>CALL     1713>>CALL     1724>>CALL     1743>>CALL     1762>>CALL
FIELD1.TEXT1
      1177**DCL      1704<>CALL     1713<>CALL     1724<>CALL     1743<>CALL     1762<>CALL
FINDD_6
        20**DCL-ENT  1692--CALL     1697--CALL
FIRST_NRCO_CHECK
      1341**DCL      1686<<ASSIGN   1707<<ASSIGN   1718>>IF       1720<<ASSIGN
I
      1347**DCL      1694<<CALLBLT  1696>>CALLBLT
ILIT IN PROCEDURE CAT_A
      1774**DCL      1773--PROC     1778>>CALLBLT  1780>>CALLBLT  1784>>ASSIGN
IMPLICIT
      1342**DCL      1711<<ASSIGN   1714<<ASSIGN   1722<<ASSIGN   1729<<ASSIGN   1779>>IF
J
      1348**DCL      1695<<CALLBLT  1696>>CALLBLT
KEY$
      1327**DCL      1466>>ASSIGN   1467>>ASSIGN   1469>>ASSIGN   1568>>ASSIGN   1569>>ASSIGN   1571>>ASSIGN
LEVEL_1_COMP
      1486**LABEL    1575--GOTO
LIST
        85**DCL-ENT  1810--CALL     1812--CALL     1818--CALL
LIT IN PROCEDURE CAT_A
      1775**DCL      1780<<CALLBLT  1784<<ASSIGN   1793>>IF       1798>>CALLBLT
PL6.E3A0      #001=ZIG$D_XREF File=ZIG$D_XREF.:ZIC0TSI                           FRI 09/05/97 12:03 Page:98
LKX1 IN PROCEDURE PUTLKXL
      1759**LABEL    1763--GOTO
LKX11 IN PROCEDURE PUTLKXL
      1761**LABEL    1769--GOTO
LKX2 IN PROCEDURE PUTLKXL
      1765**LABEL    1759--CALLALT
LNO_DIFF IN PROCEDURE PUTSNXL
      1663**DCL      1665<<ASSIGN   1669<<ASSIGN   1676<<ASSIGN   1679<<ASSIGN   1682<<ASSIGN   1703>>CALL
MERGE_ERR
      1659**LABEL    1598--GOTO     1625--GOTO
MERGE_ERR1
      1595**LABEL    1591--CALLALT
MERGE_ERR2
      1624**LABEL    1620--CALLALT
NAME
      1343**DCL      1369<<ASSIGN   1685<<ASSIGN   1695>>CALLBLT  1696<<CALLBLT  1696>>CALLBLT  1737<<ASSIGN
      1756<<ASSIGN   1806>>CALLBLT  1809>>CALLBLT  1816>>ASSIGN   1820<<ASSIGN
NAME45 IN PROCEDURE PUTL
      1804**DCL      1816<<ASSIGN   1817>>CALLBLT
NEXT_AREA
      1320**DCL      1390>>ASSIGN   1391>>ASSIGN   1393>>ASSIGN   1539<<ASSIGN   1539>>ASSIGN   1540>>ASSIGN
      1541>>ASSIGN   1542>>IF       1543>>ASSIGN
NEXT_FIELD
      1319**DCL      1428>>ASSIGN   1429>>ASSIGN   1431>>ASSIGN   1553<<ASSIGN   1553>>ASSIGN   1554>>ASSIGN
      1555>>ASSIGN   1556>>IF       1557>>ASSIGN   1689>>ASSIGN
NEXT_KEY
      1322**DCL      1466>>ASSIGN   1467>>ASSIGN   1469>>ASSIGN   1567<<ASSIGN   1567>>ASSIGN   1568>>ASSIGN
      1569>>ASSIGN   1570>>IF       1571>>ASSIGN
NEXT_LOCK_NAME
      1639**LABEL    1641--GOTO
NEXT_PROC_NAME
      1650**LABEL    1652--GOTO
NEXT_RECORD
      1318**DCL      1409>>ASSIGN   1410>>ASSIGN   1412>>ASSIGN   1546<<ASSIGN   1546>>ASSIGN   1547>>ASSIGN
      1548>>ASSIGN   1549>>IF       1550>>ASSIGN
NEXT_SET
PL6.E3A0      #001=ZIG$D_XREF File=ZIG$D_XREF.:ZIC0TSI                           FRI 09/05/97 12:03 Page:99
      1321**DCL      1447>>ASSIGN   1448>>ASSIGN   1450>>ASSIGN   1560<<ASSIGN   1560>>ASSIGN   1561>>ASSIGN
      1562>>ASSIGN   1563>>IF       1564>>ASSIGN
NOT_DCLR
      1356**DCL      1521<<ASSIGN   1581<>CALL     1613<>CALL
NO_LOCK_NAMES
      1643**LABEL    1637--CALLALT
NO_PROC_NAMES
      1654**LABEL    1648--CALLALT
NUMB_AREA_SN
      1330**DCL      1392>>IF       1542>>IF
NUMB_FIELD_SN
      1329**DCL      1430>>IF       1556>>IF
NUMB_KEY_SN
      1332**DCL      1468>>IF       1570>>IF
NUMB_RECORD_SN
      1328**DCL      1411>>IF       1549>>IF
NUMB_SET_SN
      1331**DCL      1449>>IF       1563>>IF
NXT_SN
      1350**DCL      1382<<ASSIGN   1393<<ASSIGN   1396<<ASSIGN   1401<<ASSIGN   1412<<ASSIGN   1415<<ASSIGN
      1420<<ASSIGN   1431<<ASSIGN   1434<<ASSIGN   1439<<ASSIGN   1450<<ASSIGN   1453<<ASSIGN   1458<<ASSIGN
      1469<<ASSIGN   1472<<ASSIGN   1477<<ASSIGN   1528>>IF       1536>>ASSIGN   1543<<ASSIGN   1544<<ASSIGN
      1550<<ASSIGN   1551<<ASSIGN   1557<<ASSIGN   1558<<ASSIGN   1564<<ASSIGN   1565<<ASSIGN   1571<<ASSIGN
      1572<<ASSIGN
O_L
      1174**DCL      1372<<ASSIGN   1373<>CALL     1578<<ASSIGN   1579<>CALL     1605<<ASSIGN   1606<>CALL
      1610<<ASSIGN   1611<>CALL     1632<<ASSIGN   1633<>CALL     1635<<ASSIGN   1636<>CALL     1643<<ASSIGN
      1644<>CALL     1646<<ASSIGN   1647<>CALL     1654<<ASSIGN   1655<>CALL     1809<<CALLBLT  1810<>CALL
      1811<<CALLBLT  1812<>CALL     1817<<CALLBLT  1818<>CALL
P$
      1357**DCL      1379<<ASSIGN   1520<>CALL
PNX1 IN PROCEDURE PUTPNXL
      1740**LABEL    1744--GOTO
PNX11 IN PROCEDURE PUTPNXL
      1742**LABEL    1750--GOTO
PNX2 IN PROCEDURE PUTPNXL
PL6.E3A0      #001=ZIG$D_XREF File=ZIG$D_XREF.:ZIC0TSI                           FRI 09/05/97 12:03 Page:100
      1746**LABEL    1740--CALLALT
PRNT
      1173**DCL-ENT  1373--CALL     1579--CALL     1606--CALL     1611--CALL     1633--CALL     1636--CALL
      1644--CALL     1647--CALL     1655--CALL
PROC_NAMES
      1646**LABEL    1640--CALLALT
PUTK
      1172**DCL      1577<<ASSIGN   1603>>IF       1609<<ASSIGN   1630>>IF       1664<<ASSIGN   1664>>ASSIGN
PUTL
      1803**PROC     1726--CALL     1730--CALL     1746--CALL     1749--CALL     1765--CALL     1768--CALL
PUTLKXL
      1754**PROC     1639--CALL
PUTPNXL
      1735**PROC     1650--CALL
PUTSNXL
      1661**PROC     1517--CALL     1588--CALL     1593--CALL     1596--CALL     1622--CALL
RECORD$
      1323**DCL      1409>>ASSIGN   1410>>ASSIGN   1412>>ASSIGN   1547>>ASSIGN   1548>>ASSIGN   1550>>ASSIGN
SET$
      1326**DCL      1447>>ASSIGN   1448>>ASSIGN   1450>>ASSIGN   1561>>ASSIGN   1562>>ASSIGN   1564>>ASSIGN
SET_FIELD_NUM
        74**DCL-ENT  1703--CALL     1712--CALL     1723--CALL     1742--CALL     1761--CALL
SN
      1308**DCL      1514<<ASSIGN   1582<<ASSIGN   1614<<ASSIGN
SN.DCLR
      1309**DCL      1516>>IF       1687>>IF       1700>>IF       1718>>IF
SN.LNO
      1312**DCL      1703>>CALL     1723<>CALL
SN.SENAME
      1314**DCL      1585>>IF       1616>>IF       1685>>ASSIGN
SN.SETYPE
      1311**DCL      1587>>IF       1618>>IF
SNX1 IN PROCEDURE PUTSNXL
      1710**LABEL    1716--GOTO     1731--GOTO
SNX2 IN PROCEDURE PUTSNXL
      1718**LABEL    1706--CALLALT  1715--CALLALT
PL6.E3A0      #001=ZIG$D_XREF File=ZIG$D_XREF.:ZIC0TSI                           FRI 09/05/97 12:03 Page:101
SN_DBK
      1315**DCL      1515<<ASSIGN   1583<<ASSIGN   1615<<ASSIGN   1697<>CALL
START_NOT_DCLR$
      1317**DCL      1356--IMP-PTR  1378<>CALL     1379>>ASSIGN   1521>>ASSIGN   1581>>CALL     1613>>CALL
STRAN.SNAME
      1284**DCL      1385>>ASSIGN
SUBLST
        87**DCL-ENT  1368--CALL
SUBSCHEMA_KEY
       105**DCL       106--REDEF
TABLES.DBK
      1335**DCL      1393>>ASSIGN   1412>>ASSIGN   1431>>ASSIGN   1450>>ASSIGN   1469>>ASSIGN   1543>>ASSIGN
      1550>>ASSIGN   1557>>ASSIGN   1564>>ASSIGN   1571>>ASSIGN
TABLES.DBK_RC
      1338**DCL      1689>>ASSIGN
TABLES.DEFINED
      1336**DCL      1390>>ASSIGN   1409>>ASSIGN   1428>>ASSIGN   1447>>ASSIGN   1466>>ASSIGN   1541>>ASSIGN
      1548>>ASSIGN   1555>>ASSIGN   1562>>ASSIGN   1569>>ASSIGN
TABLES.NAME
      1334**DCL      1391>>ASSIGN   1410>>ASSIGN   1429>>ASSIGN   1448>>ASSIGN   1467>>ASSIGN   1540>>ASSIGN
      1547>>ASSIGN   1554>>ASSIGN   1561>>ASSIGN   1568>>ASSIGN
TSN.DCLR
      1354**DCL      1384<<ASSIGN   1390<<ASSIGN   1409<<ASSIGN   1428<<ASSIGN   1447<<ASSIGN   1466<<ASSIGN
      1541<<ASSIGN   1548<<ASSIGN   1555<<ASSIGN   1562<<ASSIGN   1569<<ASSIGN
TSN.SENAME
      1355**DCL      1385<<ASSIGN   1391<<ASSIGN   1403<<ASSIGN   1410<<ASSIGN   1422<<ASSIGN   1429<<ASSIGN
      1441<<ASSIGN   1448<<ASSIGN   1460<<ASSIGN   1467<<ASSIGN   1479<<ASSIGN   1489>>IF       1489>>IF
      1497>>IF       1497>>IF       1504>>IF       1504>>IF       1511>>IF       1531<<ASSIGN   1540<<ASSIGN
      1547<<ASSIGN   1554<<ASSIGN   1561<<ASSIGN   1568<<ASSIGN
TSN.SETYPE
      1353**DCL      1383<<ASSIGN   1389<<ASSIGN   1402<<ASSIGN   1408<<ASSIGN   1421<<ASSIGN   1427<<ASSIGN
      1440<<ASSIGN   1446<<ASSIGN   1459<<ASSIGN   1465<<ASSIGN   1478<<ASSIGN   1532<<ASSIGN   1537>>DOCASE
TYPE
      1345**DCL      1370<<ASSIGN   1668<<ASSIGN   1671<<ASSIGN   1673<<ASSIGN   1675<<ASSIGN   1678<<ASSIGN
      1681<<ASSIGN   1687>>IF       1736<<ASSIGN   1755<<ASSIGN   1811>>CALLBLT  1817>>CALLBLT  1821<<ASSIGN
UWA.AC.CALC_NEXT
PL6.E3A0      #001=ZIG$D_XREF File=ZIG$D_XREF.:ZIC0TSI                           FRI 09/05/97 12:03 Page:102
       948**DCL       949--REDEF
UWA.AC.CALC_PRIOR
       957**DCL       958--REDEF
UWA.AC.DEFAULTS
       909**DCL       910--REDEF
UWA.AC.FILE_CODE
       914**DCL       915--REDEF
UWA.AC.FLAG1.ERROR_TYPE
       911**DCL       912--REDEF
UWA.DA.FRST_AC
      1056**DCL      1363>>IF       1386>>IF       1388>>ASSIGN
UWA.DA.FRST_FR
      1060**DCL      1424>>IF       1426>>ASSIGN
UWA.DA.FRST_KC
      1059**DCL      1462>>IF       1464>>ASSIGN
UWA.DA.FRST_RC
      1057**DCL      1405>>IF       1407>>ASSIGN
UWA.DA.FRST_SC
      1058**DCL      1443>>IF       1445>>ASSIGN
UWA.DB_STATUS
       840**DCL      1595>>IF       1624>>IF
UWA.DIRECT_REF
       849**DCL      1515>>ASSIGN   1521>>ASSIGN   1583>>ASSIGN   1615>>ASSIGN
UWA.FR.F_USE
      1012**DCL      1592>>IF       1621>>IF
UWA.LK.PLNAME
      1069**DCL      1756>>ASSIGN
UWA.LT.LNO
      1082**DCL      1761>>CALL
UWA.NR.IMPLCT
      1076**DCL      1710>>IF
UWA.NR.LNO
      1078**DCL      1712>>CALL
UWA.PN.PNAME
      1073**DCL      1737>>ASSIGN
UWA.PT.LNO
PL6.E3A0      #001=ZIG$D_XREF File=ZIG$D_XREF.:ZIC0TSI                           FRI 09/05/97 12:03 Page:103
      1085**DCL      1742>>CALL
UWA.SN
      1061**DCL      1514>>ASSIGN   1582>>ASSIGN   1614>>ASSIGN
UWA.SN.SENAME
      1067**DCL      1694>>CALLBLT  1696>>CALLBLT
UWA.SN.SETYPE
      1064**DCL      1666>>DOCASE
WIN
      1349**DCL      1490<<ASSIGN   1492<<ASSIGN   1497>>IF       1497>>IF       1498<<ASSIGN   1498>>ASSIGN
      1500<<ASSIGN   1500>>ASSIGN   1504>>IF       1504>>IF       1505<<ASSIGN   1505>>ASSIGN   1507<<ASSIGN
      1507>>ASSIGN   1511>>IF       1513>>CALL     1528>>IF       1530>>ASSIGN   1531>>ASSIGN   1532>>ASSIGN
      1536>>ASSIGN   1536>>ASSIGN   1537>>DOCASE   1540>>ASSIGN   1541>>ASSIGN   1543>>ASSIGN   1544>>ASSIGN
      1547>>ASSIGN   1548>>ASSIGN   1550>>ASSIGN   1551>>ASSIGN   1554>>ASSIGN   1555>>ASSIGN   1557>>ASSIGN
      1558>>ASSIGN   1561>>ASSIGN   1562>>ASSIGN   1564>>ASSIGN   1565>>ASSIGN   1568>>ASSIGN   1569>>ASSIGN
      1571>>ASSIGN   1572>>ASSIGN
X
      1358**DCL      1487<<DOINDEX  1489>>IF       1489>>IF       1490>>ASSIGN   1492>>ASSIGN   1580<<DOINDEX
      1581>>CALL     1612<<DOINDEX  1613>>CALL
X IN PROCEDURE CAT_A
      1776**DCL      1786<<CALLBLT  1788<<CALLBLT  1789>>IF       1791>>IF       1795>>IF       1796<<ASSIGN
      1798>>CALLBLT
X IN PROCEDURE PUTL
      1805**DCL      1806<<CALLBLT  1807>>IF
Y
      1359**DCL      1486<<ASSIGN   1488<<ASSIGN   1488>>ASSIGN   1490>>ASSIGN   1492>>ASSIGN
Y IN PROCEDURE CAT_A
      1777**DCL      1778<<CALLBLT  1780>>CALLBLT  1781<<ASSIGN   1781>>ASSIGN   1785>>IF       1791>>IF
      1798>>CALLBLT  1798>>CALLBLT
Z
      1360**DCL      1481<<ASSIGN   1521>>ASSIGN   1522<<ASSIGN   1522>>ASSIGN   1580>>DOINDEX  1612>>DOINDEX
ZIG$G_DYN_MEM_6
        80**DCL-ENT  1378--CALL     1520--CALL
