
PL6.E3A0      #001=ZIG$F_LOCKS File=ZIG$F_LOCKS.:ZIC0TSI                         FRI 09/05/97 12:04 Page:1
        1        1        /*M* ZIG$F_LOCKS      I-D-S/II            DBACS    */
        2        2        /*T***********************************************************/
        3        3        /*T*                                                         */
        4        4        /*T* Copyright (c) Bull HN Information Systems Inc., 1997    */
        5        5        /*T*                                                         */
        6        6        /*T***********************************************************/
        7        7        /*P*
        8        8        NAME:    ZIG$F_LOCKS
        9        9        PURPOSE: TO FIND ALL THE SN RECORDS THAT ARE LOCKED
       10       10                 SO THAT THEY CAN BE CONECTED TO THE SI RECORDS
       11       11                 OF THE SUBSCHEMA IN THE VALIDATION PHASE.
       12       12        */
       13       13        /*D*    NAME:     LOCKLIST
       14       14                      THIS BASED STUCTURE CONTAINS ALL THE NAMES OF THE
       15       15                      SN RECORDS THAT ARE LOCKED AND THE DBK AND THE TYPE
       16       16                      OF RECORD THAT THE SN RECORD OWNS.
       17       17        */
       18       18        /*D*    NAME:      LOCKPTR$
       19       19                      THIS EXT PTR POINTES TO WERE THE STUCTURE
       20       20                      LOCKLIST STARTS. IT POINTS TO A LOCATION IN DYNAMIC
       21       21                      MEMORY.
       22       22        */
       23       23        /*D*    NAME:      LOCKCOUNT
       24       24                      IS A COUNT OF HOW MANY ITEM HAVE LOCKS ASSOCATED
       25       25                      WITH THEM (THE ARRAY SIZE OF LOCKLIST).
       26       26        */
       27       27        ZIG$F_LOCKS:
       28       28            PROC;
       29       29        %INCLUDE ZI_SUB4_CAN;
       30      686        %UWA;
       31     1021        %INCLUDE ZIG_GENERAL;
       32     1129        %INCLUDE ZIG_DBA_INT;
       33     1177         /* This procedure will set the locked field in the si
       34     1178         elements */
       35     1179    1   DCL I UBIN WORD;
       36     1180    1   DCL 01 LOCKLIST (0:0) BASED (LOCKPTR$),
       37     1181    1         02 DBK UBIN WORD;
PL6.E3A0      #001=ZIG$F_LOCKS File=ZIG$F_LOCKS.:ZIC0TSI                         FRI 09/05/97 12:04 Page:2
       38     1182    1   DCL LOCKPTR$ PTR EXT;
       39     1183    1   DCL DBK UBIN WORD;
       40     1184    1   DCL LOCKCOUNT SBIN (36) EXT;
       41     1185    1   DCL JUNKPTR$ PTR ;
       42     1186    1       LOCKCOUNT=0;
       43     1187        /*  Give back some used dynamic mem */
       44     1188    1       CALL ZIG$G_DYN_MEM_6(11,LOCKPTR$);
       45     1189    1       CALL FETCHD_6('SF      ', 2) ALTRET(L40);
       46     1190    1       CALL FETCHD_6('DA      ',UWA.SF.DBKEY_DA) ALTRET(L40);
       47     1191    1   RPL1:
       48     1192         /*      Each lk with a non null valuemust be processed */
       49     1193    1       CALL FINDNS_6('DA-LK   ') ALTRET(L20);
       50     1194         /* Get lock type(lt) descriptor */
       51     1195    1   RPL1A:
       52     1196    1       CALL FINDNS_6('LK-LT   ') ALTRET(RPL1);
       53     1197         /* Save currency within the lk-lt set */
       54     1198    1       CALL FINDOS_6('SN-LT   ') ALTRET(L40);
       55     1199        /*
       56     1200            This puts all locked records in array so ZIG$DDY2 can
       57     1201            then find with records must be locked with the si record.
       58     1202        */
       59     1203    1       DBK=UWA.DIRECT_REF;
       60     1204    2       DO I= 0 TO LOCKCOUNT - 1;
       61     1205    2           IF LOCKLIST.DBK(I)=DBK
       62     1206    3           THEN DO;
       63     1207    3               GOTO RPL1A;
       64     1208    3               END;
       65     1209    2           END;
       66     1210    1       CALL ZIG$G_DYN_MEM_6(1,JUNKPTR$);
       67     1211        /*  THIS IS BAD PROGRAMSING DONE BY DRP */
       68     1212        /*W* THIS CALL TO GET DYNAMIC MEM IS JUST TO TELL THE
       69     1213                 MEMORY ALLOCATER THAT WE ARE USING A ANOTHER
       70     1214                 PART OF A LINEAR ARRAY. SO ANY CALL TO ZIG$G_DYN_MEM_6
       71     1215                 WILL NOT WORK CORRECTLY BECAUSE THIS IS A DYNAMICLY
       72     1216                 GROWING ARRAY
       73     1217        */
       74     1218    1       LOCKLIST.DBK(LOCKCOUNT)=DBK;
PL6.E3A0      #001=ZIG$F_LOCKS File=ZIG$F_LOCKS.:ZIC0TSI                         FRI 09/05/97 12:04 Page:3
       75     1219    1       LOCKCOUNT=LOCKCOUNT+1;
       76     1220    1       GOTO RPL1A;
       77     1221         /* */
       78     1222         /* Error messages */
       79     1223         /* */
       80     1224    1   L20:
       81     1225    1       IF UWA.DB_STATUS ~= '0502100' THEN CALL ABORT;
       82     1226    1   CLOS:
       83     1227    1       RETURN;
       84     1228    1   L40:
       85     1229    1       CALL ABORT;
       86     1230    1   END ZIG$F_LOCKS;

PL6.E3A0      #001=ZIG$F_LOCKS File=ZIG$F_LOCKS.:ZIC0TSI                         FRI 09/05/97 12:04 Page:4
--  Include file information  --

   ZIG_DBA_INT.:ZIC0TOU  cannot be made into a system file and is referenced.
   ZIG_GENERAL.:ZIC0TOU  cannot be made into a system file and is referenced.
   ZI_SUB4_CAN.:ZIC0TOU  is referenced.
   B$JIT_C.:E05TOU  was found in the system file and is never referenced.
   CP_6_C.:E05TOU  was found in the system file and is never referenced.
      No diagnostics issued in procedure ZIG$F_LOCKS.

   Procedure ZIG$F_LOCKS requires 70 words for executable code.
   Procedure ZIG$F_LOCKS requires 8 words of local(AUTO) storage.

    No errors detected in file ZIG$F_LOCKS.:ZIC0TSI    .

PL6.E3A0      #001=ZIG$F_LOCKS File=ZIG$F_LOCKS.:ZIC0TSI                         FRI 09/05/97 12:04 Page:5

 Object Unit name= ZIG$F_LOCKS                                File name= ZIG$F_LOCKS.:ZIC0TOU
 UTS= SEP 05 '97 12:04:48.00 FRI                              Compiler= PL-6/E31         Sev=      00
 SharedLib= :SHARED_SYSTEM                                    Alt SharedLib=


    ****  Control sections  ****

 Sect   Type Bound  Init  Size OctSiz  Section name(segment info)
    0  LblCom even  none   656   1220  UWA
    1  LblCom even  none     1      1  NUM_ERROR_MSG
    2  LblCom even  none     1      1  NUM_WARN_MSG
    3  LblCom even  none     1      1  ALLOCATE_END
    4  LblCom even  none     2      2  SUBSCHEMA_KEY
    5  LblCom even  none     1      1  BUFFER$
    6  LblCom even  none     1      1  ERROR_IO
    7  LblCom even  none     1      1  BUFFER_LEN
    8  LblCom even  none     2      2  UWA_KEY
    9  LblCom even  none     1      1  NEXT_UWA_SECOND_HALF
   10  LblCom even  none     2      2  RVA_KEY
   11  LblCom even  none     2      2  IA__KEY
   12  LblCom even  none     1      1  NEXT_RVA_SECOND_HALF
   13  LblCom even  none    32     40  SEARCHR_NB
   14  LblCom even  none    32     40  SEM_COM
   15  LblCom even  none    32     40  DMCL_XLATE
   16  LblCom even  none    32     40  Q2_PERCENT
   17  LblCom even  none     1      1  LOCKPTR$
   18  LblCom even  none     1      1  LOCKCOUNT
   19  RoData even  UTS     12     14  ZIG$F_LOCKS
   20   Proc  even  none    70    106  ZIG$F_LOCKS
   21  RoData even  none    16     20  ZIG$F_LOCKS

    ****  Entry defs  ****

                              Check   Calling
                             calling  sequence
  Sect OctLoc Primary Altret sequence   type   Parms  Name
    20      0   yes            yes      Std        0  ZIG$F_LOCKS
PL6.E3A0      #001=ZIG$F_LOCKS File=ZIG$F_LOCKS.:ZIC0TSI                         FRI 09/05/97 12:04 Page:6

  ****  Entry refs  ****

         Check        Calling
        calling       sequence
Altret sequence SRef   type   Args  Name
         yes           Std       2 ZIG$G_DYN_MEM_6
 yes     yes           Std       2 FETCHD_6
 yes     yes           Std       1 FINDNS_6
 yes     yes           Std       1 FINDOS_6
         yes           Std       0 ABORT
                       nStd      0 X66_AUTO_0
                       nStd      0 X66_ARET

  ****  Segment refs  ****

  Flags:  r = read only, s = secondary
Flgs Name                             Flgs Name                             Flgs Name
     ISSID
PL6.E3A0      #001=ZIG$F_LOCKS File=ZIG$F_LOCKS.:ZIC0TSI                         FRI 09/05/97 12:04 Page:7


        1        1        /*M* ZIG$F_LOCKS      I-D-S/II            DBACS    */
        2        2        /*T***********************************************************/
        3        3        /*T*                                                         */
        4        4        /*T* Copyright (c) Bull HN Information Systems Inc., 1997    */
        5        5        /*T*                                                         */
        6        6        /*T***********************************************************/
        7        7        /*P*
        8        8        NAME:    ZIG$F_LOCKS
        9        9        PURPOSE: TO FIND ALL THE SN RECORDS THAT ARE LOCKED
       10       10                 SO THAT THEY CAN BE CONECTED TO THE SI RECORDS
       11       11                 OF THE SUBSCHEMA IN THE VALIDATION PHASE.
       12       12        */
       13       13        /*D*    NAME:     LOCKLIST
       14       14                      THIS BASED STUCTURE CONTAINS ALL THE NAMES OF THE
       15       15                      SN RECORDS THAT ARE LOCKED AND THE DBK AND THE TYPE
       16       16                      OF RECORD THAT THE SN RECORD OWNS.
       17       17        */
       18       18        /*D*    NAME:      LOCKPTR$
       19       19                      THIS EXT PTR POINTES TO WERE THE STUCTURE
       20       20                      LOCKLIST STARTS. IT POINTS TO A LOCATION IN DYNAMIC
       21       21                      MEMORY.
       22       22        */
       23       23        /*D*    NAME:      LOCKCOUNT
       24       24                      IS A COUNT OF HOW MANY ITEM HAVE LOCKS ASSOCATED
       25       25                      WITH THEM (THE ARRAY SIZE OF LOCKLIST).
       26       26        */
       27       27        ZIG$F_LOCKS:
       28       28            PROC;

     28 20 000000   000000 700200 xent  ZIG$F_LOCKS  TSX0  ! X66_AUTO_0
        20 000001   000010 000000                    ZERO    8,0

       29       29        %INCLUDE ZI_SUB4_CAN;
       30      686        %UWA;
       31     1021        %INCLUDE ZIG_GENERAL;
       32     1129        %INCLUDE ZIG_DBA_INT;
PL6.E3A0      #001=ZIG$F_LOCKS File=ZIG$F_LOCKS.:ZIC0TSI                         FRI 09/05/97 12:04 Page:8
       33     1177         /* This procedure will set the locked field in the si
       34     1178         elements */
       35     1179    1   DCL I UBIN WORD;
       36     1180    1   DCL 01 LOCKLIST (0:0) BASED (LOCKPTR$),
       37     1181    1         02 DBK UBIN WORD;
       38     1182    1   DCL LOCKPTR$ PTR EXT;
       39     1183    1   DCL DBK UBIN WORD;
       40     1184    1   DCL LOCKCOUNT SBIN (36) EXT;
       41     1185    1   DCL JUNKPTR$ PTR ;
       42     1186    1       LOCKCOUNT=0;

   1186 20 000002   000000 450000 18                 STZ     LOCKCOUNT

       43     1187        /*  Give back some used dynamic mem */
       44     1188    1       CALL ZIG$G_DYN_MEM_6(11,LOCKPTR$);

   1188 20 000003   000002 630400 21                 EPPR0   2
        20 000004   000000 631400 21                 EPPR1   0
        20 000005   000000 701000 xent               TSX1    ZIG$G_DYN_MEM_6
        20 000006   000000 011000                    NOP     0

       45     1189    1       CALL FETCHD_6('SF      ', 2) ALTRET(L40);

   1189 20 000007   000005 630400 21                 EPPR0   5
        20 000010   000000 631400 21                 EPPR1   0
        20 000011   000000 701000 xent               TSX1    FETCHD_6
        20 000012   000102 702000 20                 TSX2    L40

       46     1190    1       CALL FETCHD_6('DA      ',UWA.SF.DBKEY_DA) ALTRET(L40);

   1190 20 000013   000007 630400 21                 EPPR0   7
        20 000014   000000 631400 21                 EPPR1   0
        20 000015   000000 701000 xent               TSX1    FETCHD_6
        20 000016   000102 702000 20                 TSX2    L40

       47     1191    1   RPL1:
       48     1192         /*      Each lk with a non null valuemust be processed */
PL6.E3A0      #001=ZIG$F_LOCKS File=ZIG$F_LOCKS.:ZIC0TSI                         FRI 09/05/97 12:04 Page:9
       49     1193    1       CALL FINDNS_6('DA-LK   ') ALTRET(L20);

   1193 20 000017   000012 630400 21    RPL1         EPPR0   10
        20 000020   000011 631400 21                 EPPR1   9
        20 000021   000000 701000 xent               TSX1    FINDNS_6
        20 000022   000072 702000 20                 TSX2    L20

       50     1194         /* Get lock type(lt) descriptor */
       51     1195    1   RPL1A:
       52     1196    1       CALL FINDNS_6('LK-LT   ') ALTRET(RPL1);

   1196 20 000023   000013 630400 21    RPL1A        EPPR0   11
        20 000024   000011 631400 21                 EPPR1   9
        20 000025   000000 701000 xent               TSX1    FINDNS_6
        20 000026   000017 702000 20                 TSX2    RPL1

       53     1197         /* Save currency within the lk-lt set */
       54     1198    1       CALL FINDOS_6('SN-LT   ') ALTRET(L40);

   1198 20 000027   000014 630400 21                 EPPR0   12
        20 000030   000011 631400 21                 EPPR1   9
        20 000031   000000 701000 xent               TSX1    FINDOS_6
        20 000032   000102 702000 20                 TSX2    L40

       55     1199        /*
       56     1200            This puts all locked records in array so ZIG$DDY2 can
       57     1201            then find with records must be locked with the si record.
       58     1202        */
       59     1203    1       DBK=UWA.DIRECT_REF;

   1203 20 000033   000036 235000 0                  LDA     UWA+30
        20 000034   200004 755100                    STA     DBK,,AUTO

       60     1204    2       DO I= 0 TO LOCKCOUNT - 1;

   1204 20 000035   200003 450100                    STZ     I,,AUTO
        20 000036   000050 710000 20                 TRA     s:1209+3
PL6.E3A0      #001=ZIG$F_LOCKS File=ZIG$F_LOCKS.:ZIC0TSI                         FRI 09/05/97 12:04 Page:10

       61     1205    2           IF LOCKLIST.DBK(I)=DBK

   1205 20 000037   000000 470400 17                 LDP0    LOCKPTR$
        20 000040   200003 720100                    LXL0    I,,AUTO
        20 000041   000000 236110                    LDQ     0,X0,PR0
        20 000042   200004 116100                    CMPQ    DBK,,AUTO
        20 000043   000045 601000 20                 TNZ     s:1209

       62     1206    3           THEN DO;

       63     1207    3               GOTO RPL1A;

   1207 20 000044   000023 710000 20                 TRA     RPL1A

       64     1208    3               END;
       65     1209    2           END;

   1209 20 000045   200003 235100                    LDA     I,,AUTO
        20 000046   000001 035007                    ADLA    1,DL
        20 000047   200003 755100                    STA     I,,AUTO
        20 000050   200003 236100                    LDQ     I,,AUTO
        20 000051   000054 604000 20                 TMI     s:1210
        20 000052   000000 116000 18                 CMPQ    LOCKCOUNT
        20 000053   000037 604000 20                 TMI     s:1205

       66     1210    1       CALL ZIG$G_DYN_MEM_6(1,JUNKPTR$);

   1210 20 000054   200005 630500                    EPPR0   JUNKPTR$,,AUTO
        20 000055   200007 450500                    STP0    JUNKPTR$+2,,AUTO
        20 000056   000016 236000 21                 LDQ     14
        20 000057   200006 756100                    STQ     JUNKPTR$+1,,AUTO
        20 000060   200006 630500                    EPPR0   JUNKPTR$+1,,AUTO
        20 000061   000000 631400 21                 EPPR1   0
        20 000062   000000 701000 xent               TSX1    ZIG$G_DYN_MEM_6
        20 000063   000000 011000                    NOP     0

PL6.E3A0      #001=ZIG$F_LOCKS File=ZIG$F_LOCKS.:ZIC0TSI                         FRI 09/05/97 12:04 Page:11
       67     1211        /*  THIS IS BAD PROGRAMSING DONE BY DRP */
       68     1212        /*W* THIS CALL TO GET DYNAMIC MEM IS JUST TO TELL THE
       69     1213                 MEMORY ALLOCATER THAT WE ARE USING A ANOTHER
       70     1214                 PART OF A LINEAR ARRAY. SO ANY CALL TO ZIG$G_DYN_MEM_6
       71     1215                 WILL NOT WORK CORRECTLY BECAUSE THIS IS A DYNAMICLY
       72     1216                 GROWING ARRAY
       73     1217        */
       74     1218    1       LOCKLIST.DBK(LOCKCOUNT)=DBK;

   1218 20 000064   000000 470400 17                 LDP0    LOCKPTR$
        20 000065   000000 720000 18                 LXL0    LOCKCOUNT
        20 000066   200004 235100                    LDA     DBK,,AUTO
        20 000067   000000 755110                    STA     0,X0,PR0

       75     1219    1       LOCKCOUNT=LOCKCOUNT+1;

   1219 20 000070   000000 054000 18                 AOS     LOCKCOUNT

       76     1220    1       GOTO RPL1A;

   1220 20 000071   000023 710000 20                 TRA     RPL1A

       77     1221         /* */
       78     1222         /* Error messages */
       79     1223         /* */
       80     1224    1   L20:
       81     1225    1       IF UWA.DB_STATUS ~= '0502100' THEN CALL ABORT;

   1225 20 000072   040000 106400       L20          CMPC    fill='040'O
        20 000073   000001 000007 0                  ADSC9   UWA+1                    cn=0,n=7
        20 000074   000012 000007 19                 ADSC9   10                       cn=0,n=7
        20 000075   000101 600000 20                 TZE     CLOS

   1225 20 000076   000017 631400 21                 EPPR1   15
        20 000077   000000 701000 xent               TSX1    ABORT
        20 000100   000000 011000                    NOP     0

PL6.E3A0      #001=ZIG$F_LOCKS File=ZIG$F_LOCKS.:ZIC0TSI                         FRI 09/05/97 12:04 Page:12
       82     1226    1   CLOS:
       83     1227    1       RETURN;

   1227 20 000101   000000 702200 xent  CLOS         TSX2  ! X66_ARET

       84     1228    1   L40:
       85     1229    1       CALL ABORT;

   1229 20 000102   000017 631400 21    L40          EPPR1   15
        20 000103   000000 701000 xent               TSX1    ABORT
        20 000104   000000 011000                    NOP     0

       86     1230    1   END ZIG$F_LOCKS;

   1230 20 000105   000000 702200 xent               TSX2  ! X66_ARET

UWA
 Sect OctLoc
   0     000   000000 000000   040040 040040   040040 040040   040040 040040    ....
   0     004   040040 040040   040040 040040   040040 040040   040040 040040
   0     010   040040 040040   040040 040040   040040 000000   040040 040040              ..
   0     014   040040 040040   040040 040040   040040 040040   040040 040040
   0     020   040040 040040   040040 040040   040040 000000   040040 040040              ..
   0     024   040040 040040   040040 040040   040040 040040   040040 040040
   0     030   040040 040040   040040 040040   040040 000000   040040 040040              ..
   0     034   040040 040040   040040 040040   000000 000000   040040 040040            ....
   0     040   040040 040040   040040 040040   040040 040040   040040 040040
   0     044   040040 040040   040040 040040   040040 000000   040040 040040              ..
   0     050   040040 040040   040040 040040   040040 040040   040040 040040
   0     054   040040 040040   040040 040040   040040 000000   000000 000000              ......
   0     060   040040 040040   040*** ******   000000 000000   000000 000000         ...........
   0     064   000000 000000   000000 000000   040040 040040   040040 040040    ........
   0     070   040040 040040   040040 040040   040040 040040   040040 040040
   0     100*  040040 ******   000000 000000   040040 040040   040040 040040      ......
   0     104   040040 040040   040040 040040   040040 040040   040040 040040
   0     124*  040040 040040   040040 040040   000000 000000   040040 040040            ....
   0     130   040040 040040   040040 040040   040040 040040   040040 040040
PL6.E3A0      #001=ZIG$F_LOCKS File=ZIG$F_LOCKS.:ZIC0TSI                         FRI 09/05/97 12:04 Page:13
   0     134   040040 040040   040040 040040   040040 ******   000000 000000              ......
   0     140   040040 040040   040040 040040   040040 040040   040040 040040
   0     144   040040 040040   040040 040040   000000 000000   000000 000000            ........
   0     150   000000 000000   000000 000000   000000 000000   000000 000000    ................
   0     154   040040 040040   040040 040040   040040 040040   040040 040040
   0     160   040040 040040   040040 040040   040040 040040   040040 ******                  ..
   0     164   000000 000000   ****** ******   000000 000000   000000 000000    ................
   0     170   000000 000000   040040 040040   040040 040040   040040 040040    ....
   0     174   040040 040040   040040 040040   040040 040040   040040 040040
   0     210*  040040 040040   040040 040040   040040 040040   ****** ******                ....
   0     214   000000 000000   000000 000000   000000 000000   000000 000000    ................
   0     224*  000000 000000   000000 000000   000000 000000   040040 ******    ............  ..
   0     230   000000 000000   ****** ******   000000 000000   040040 040040    ............
   0     234   000000 000000   000000 000000   000000 000000   000000 000000    ................
   0     264*  000000 000000   000000 000000   000000 000000   ****** ******    ................
   0     270   000000 000000   000000 000000   000000 000000   000000 000000    ................
   0     324*  000000 000000   ****** ******   000000 000000   000000 000000    ................
   0     330   000000 000000   000000 000000   000000 000000   000000 000000    ................
   0     350*  000000 000000   000000 000000   000000 000000   ****** ******    ................
   0     360*  000000 000000   000000 000000   000000 000000   000000 000000    ................
   0     404*  000000 000000   ****** ******   000000 000000   000000 000000    ................
   0     410   000000 000000   000000 000000   000000 000000   000000 000000    ................
   0     424*  000000 000000   000000 000000   000000 000000   040040 040040    ............
   0     430   040040 040040   040040 040040   040040 040040   040040 040040
   0     434   040040 040040   040040 040040   040040 ******   ****** ******              ......
   0     440   040040 040040   040040 040040   040040 040040   040040 040040
   0     450*  040040 040040   040040 040040   040040 ******   ****** ******              ......
   0     454   000000 000000   040040 040040   040040 040040   040040 040040    ....
   0     460   040040 040040   040040 040040   040040 040040   040040 040040
   0     464   040040 ******   ****** ******   000000 000000   000000 000000      ..............
   0     470   000000 000000   000000 000000   000000 000000   000000 000000    ................
   0     474   000000 000000   ****** ******   000000 000000   000000 000000    ................
   0     500   000000 000000   000000 000000   040040 040040   040040 040040    ........
   0     504   040040 040040   040040 040040   040040 040040   040040 040040
   0     520*  040040 040040   ****** ******   000000 000000   000000 000000        ............
   0     524   040040 040040   040040 040040   040040 040040   040040 040040
   0     574*  000000 000000   000000 000000   000000 000000   000000 000000    ................
PL6.E3A0      #001=ZIG$F_LOCKS File=ZIG$F_LOCKS.:ZIC0TSI                         FRI 09/05/97 12:04 Page:14
   0     600   000000 000000   000000 000000   000000 000000   ****** ******    ................
   0     604   000000 000000   000000 000000   000000 000000   000000 000000    ................
   0     610   000000 000000   000000 000000   040040 040040   040040 040040    ........
   0     614   040040 040040   040040 040040   040040 040040   040040 040040
   0     620   040040 040040   040040 ******   040040 040040   040040 040040          ..
   0     624   040040 040040   040040 040040   040040 040040   040040 040040
   0     660*  040040 040040   040040 040040   040040 040040   ****** ******                ....
   0     664   040040 040040   040040 040040   040040 040040   040040 040040
   0     674*  040040 040040   ****** ******   040040 040040   040040 040040        ....
   0     700   040040 040040   040040 040040   040040 040040   040040 040040
   0     710*  040040 040040   ****** ******   040040 040040   040040 040040        ....
   0     714   040040 040040   040040 040040   040040 040040   040040 040040
   0     720   040040 040040   040040 040040   040040 040040   ****** ******                ....
   0     724   040040 040040   040040 040040   040040 040040   040040 040040
   0     740*  040040 040040   ****** ******   040040 040040   040040 040040        ....
   0     744   040040 040040   040040 040040   040040 040040   040040 040040
   0     774*  040040 040040   ****** ******   040040 040040   040040 040040        ....
   0    1000   040040 040040   040040 040040   040040 040040   040040 040040
   0    1034*  040040 040040   ****** ******   040040 040040   040040 040040        ....
   0    1040   040040 040040   040040 040040   040040 040040   040040 040040
   0    1060*  040040 040040   ****** ******   040040 040040   040040 040040        ....
   0    1064   040040 040040   040040 040040   040040 040040   040040 040040
   0    1114*  040040 040040   ****** ******   040040 040040   040040 040040        ....
   0    1120   040040 040040   040040 040040   040040 040040   040040 040040
   0    1134*  040040 040040   040040 040040   040040 040040   ****** ******                ....
   0    1140   040040 040040   040040 040040   040040 040040   040040 040040
   0    1144   040040 040040   ****** ******   040040 040040   040040 040040        ....
   0    1150   040040 040040   040040 040040   040040 040040   ****** ******                ....
   0    1154   040040 040040   040040 040040   040040 040040   040040 040040
   0    1160   040040 040040   ****** ******   040040 040040   040040 040040        ....
   0    1164   040040 040040   040040 040040   040040 040040   ****** ******                ....
   0    1170   040040 040040   040040 040040   040040 040040   040040 040040
   0    1200*  040040 040040   040040 040040   040040 040040   ****** ******                ....
   0    1204   040040 040040   040040 040040   040040 040040   040040 040040
   0    1214*  040040 040040   040040 040040   040040 040040   040040 040040

UWA_KEY
PL6.E3A0      #001=ZIG$F_LOCKS File=ZIG$F_LOCKS.:ZIC0TSI                         FRI 09/05/97 12:04 Page:15
 Sect OctLoc
   8     000   007125 127101   ****** ******                                    .UWA....

RVA_KEY
 Sect OctLoc
  10     000   007122 126101   ****** ******                                    .RVA....

IA__KEY
 Sect OctLoc
  11     000   007111 101137   ****** ******                                    .IA_....

SEARCHR_NB
 Sect OctLoc
  13     000   001001 001001   001001 001001   001001 001001   001001 001001    ................
  13     010*  000001 001001   001001 001001   001001 001001   001001 001001    ................
  13     014   001001 001001   001001 001001   001001 001001   001001 001001    ................
  13     034*  001001 001001   001001 001001   001001 001001   001001 001001    ................

SEM_COM
 Sect OctLoc
  14     000   000001 002003   004005 006007   010011 012013   014015 016017    ................
  14     004   020021 022023   024025 026027   030031 032033   034035 036037    ................
  14     010   040041 042043   044045 046047   050051 052053   054055 056057     !"#$%&'()*+,-./
  14     014   060061 062063   064065 066067   070071 072040   074075 076077    0123456789: <=>?
  14     020   100101 102103   104105 106107   110111 112113   114115 116117    @ABCDEFGHIJKLMNO
  14     024   120121 122123   124125 126127   130131 132133   134135 136137    PQRSTUVWXYZ[\]^_
  14     030   140141 142143   144145 146147   150151 152153   154155 156157    `abcdefghijklmno
  14     034   160161 162163   164165 166167   170171 172173   174175 176177    pqrstuvwxyz{|}~.

DMCL_XLATE
 Sect OctLoc
  15     000   000001 002003   004005 006007   010011 012013   014015 016017    ................
  15     004   020021 022023   024025 026027   030031 032033   034035 036037    ................
  15     010   040041 041043   044045 046047   050051 052053   054055 136057     !!#$%&'()*+,-^/
  15     014   060061 062063   064065 066067   070071 072040   074075 076077    0123456789: <=>?
  15     020   100101 102103   104105 106107   110111 112113   114115 116117    @ABCDEFGHIJKLMNO
  15     024   120121 122123   124125 126127   130131 132133   134135 136137    PQRSTUVWXYZ[\]^_
PL6.E3A0      #001=ZIG$F_LOCKS File=ZIG$F_LOCKS.:ZIC0TSI                         FRI 09/05/97 12:04 Page:16
  15     030   140141 142143   144145 146147   150151 152153   154155 156157    `abcdefghijklmno
  15     034   160161 162163   164165 166167   170171 172173   174175 176177    pqrstuvwxyz{|}~.

Q2_PERCENT
 Sect OctLoc
  16     000   000001 002003   004005 006007   010011 012013   014015 016017    ................
  16     004   020021 022023   024025 026027   030031 032033   034035 036037    ................
  16     010   040041 045043   044045 046047   050051 052053   054055 056057     !%#$%&'()*+,-./
  16     014   060061 062063   064065 066067   070071 072073   074075 076077    0123456789:;<=>?
  16     020   100101 102103   104105 106107   110111 112113   114115 116117    @ABCDEFGHIJKLMNO
  16     024   120121 122123   124125 126127   130131 132133   134135 136137    PQRSTUVWXYZ[\]^_
  16     030   140141 142143   144145 146147   150151 152153   154155 156157    `abcdefghijklmno
  16     034   160161 162163   164165 166167   170171 172173   174175 176177    pqrstuvwxyz{|}~.

(unnamed)
 Sect OctLoc
  19     000   123106 040040   040040 040040   104101 040040   040040 040040    SF      DA
  19     004   104101 055114   113040 040040   114113 055114   124040 040040    DA-LK   LK-LT
  19     010   123116 055114   124040 040040   060065 060062   061060 060040    SN-LT   0502100

(unnamed)
 Sect OctLoc
  21     000   000002 000000   000000 000013   000001 006000   000000 006000    ................
  21     004   000000 000002   000000 006000   000004 006000   000002 006000    ................
  21     010   000064 006000   000001 000000   000004 006000   000006 006000    .4..............
  21     014   000010 006000   000000 000001   000015 006000   000000 000000    ................

PL6.E3A0      #001=ZIG$F_LOCKS File=ZIG$F_LOCKS.:ZIC0TSI                         FRI 09/05/97 12:04 Page:17
--  Include file information  --

   ZIG_DBA_INT.:ZIC0TOU  cannot be made into a system file and is referenced.
   ZIG_GENERAL.:ZIC0TOU  cannot be made into a system file and is referenced.
   ZI_SUB4_CAN.:ZIC0TOU  is referenced.
   B$JIT_C.:E05TOU  was found in the system file and is never referenced.
   CP_6_C.:E05TOU  was found in the system file and is never referenced.
      No diagnostics issued in procedure ZIG$F_LOCKS.

   Procedure ZIG$F_LOCKS requires 70 words for executable code.
   Procedure ZIG$F_LOCKS requires 8 words of local(AUTO) storage.

    No errors detected in file ZIG$F_LOCKS.:ZIC0TSI    .
PL6.E3A0      #001=ZIG$F_LOCKS File=ZIG$F_LOCKS.:ZIC0TSI                         FRI 09/05/97 12:04 Page:18
          *** CROSS REFERENCE LISTING ***
**     DENOTES     IDENTIFIER DEFINITION
<<                 IDENTIFIER'S VALUE SET
>>                 IDENTIFIER'S VALUE USED
<>                 IDENTIFIER SET AND/OR USED
--                 IDENTIFIER REFERENCED
PL6.E3A0      #001=ZIG$F_LOCKS File=ZIG$F_LOCKS.:ZIC0TSI                         FRI 09/05/97 12:04 Page:19
          MINI XREF LISTING

ABORT
      1042**DCL-ENT  1225--CALL     1229--CALL
DBK
      1183**DCL      1203<<ASSIGN   1205>>IF       1218>>ASSIGN
FETCHD_6
      1139**DCL-ENT  1189--CALL     1190--CALL
FINDNS_6
      1143**DCL-ENT  1193--CALL     1196--CALL
FINDOS_6
      1147**DCL-ENT  1198--CALL
I
      1179**DCL      1204<<DOINDEX  1205>>IF
JUNKPTR$
      1185**DCL      1210<>CALL
L20
      1225**LABEL    1193--CALLALT
L40
      1229**LABEL    1189--CALLALT  1190--CALLALT  1198--CALLALT
LOCKCOUNT
      1184**DCL      1186<<ASSIGN   1204>>DOINDEX  1218>>ASSIGN   1219<<ASSIGN   1219>>ASSIGN
LOCKLIST.DBK
      1181**DCL      1205>>IF       1218<<ASSIGN
LOCKPTR$
      1182**DCL      1180--IMP-PTR  1188<>CALL     1205>>IF       1218>>ASSIGN
RPL1
      1193**LABEL    1196--CALLALT
RPL1A
      1196**LABEL    1207--GOTO     1220--GOTO
SUBSCHEMA_KEY
      1069**DCL      1070--REDEF
UWA.AC.CALC_NEXT
       797**DCL       798--REDEF
PL6.E3A0      #001=ZIG$F_LOCKS File=ZIG$F_LOCKS.:ZIC0TSI                         FRI 09/05/97 12:04 Page:20
UWA.AC.CALC_PRIOR
       806**DCL       807--REDEF
UWA.AC.DEFAULTS
       758**DCL       759--REDEF
UWA.AC.FILE_CODE
       763**DCL       764--REDEF
UWA.AC.FLAG1.ERROR_TYPE
       760**DCL       761--REDEF
UWA.DB_STATUS
       689**DCL      1225>>IF
UWA.DIRECT_REF
       698**DCL      1203>>ASSIGN
UWA.SF.DBKEY_DA
       708**DCL      1190<>CALL
ZIG$G_DYN_MEM_6
      1044**DCL-ENT  1188--CALL     1210--CALL
