PL6.E3A0      #001=ZIG$INIT_HAS File=ZIG$INIT_HAS.:ZIC0TSI                       FRI 09/05/97 12:05 Page:1
        1        1        /*M* ZIG$INIT_HAS     I-D-S/II            DBACS    */
        2        2        /*T***********************************************************/
        3        3        /*T*                                                         */
        4        4        /*T* Copyright (c) Bull HN Information Systems Inc., 1997    */
        5        5        /*T*                                                         */
        6        6        /*T***********************************************************/
        7        7        /*P*
        8        8        NAME:    ZIG$INIT_HAS
        9        9        PURPOSE: To init the hash table for which every language we are
       10       10                 doing the subschema work with.
       11       11
       12       12                   The res_words must be updated if any reswords are added
       13       13                 to cobol, apl or fortran. The resword also include the
       14       14                 res_words that are required by IDS.
       15       15
       16       16                   If any changes are made take a look at ZIG$HASH_IT,
       17       17                 ZIG$SS_PSET, and ZIG$SS_GEN.
       18       18
       19       19
       20       20        */
       21       21        ZIG$INIT_HAS:
       22       22            PROC;
       23       23        /*D*     NAME: COBOL_RES_WORDS
       24       24                   This is a list of all COBOL res_words in a format so they
       25       25                 can be put in the hash table and conected to other ones
       26       26                 in the hash table.
       27       27                   NOTE:
       28       28                      The character strings are 34 character long and the max
       29       29                    lenght of a name is 30 characters. This extra word is
       30       30                    for a pointer for a link list structure in the hash table
       31       31                    . The reason it is not a different variable is that PL6
       32       32                    has a max number of entrys in a structure a that made it
       33       33                    over that number.
       34       34        */
       35       35    1   DCL 1 COBOL_RES_WORDS EXT UNAL,
       36       36    1         2 * UBIN (18) INIT (0) UNAL,
       37       37    1         2 X201 CHAR (34) INIT('AT') UNAL,
PL6.E3A0      #001=ZIG$INIT_HAS File=ZIG$INIT_HAS.:ZIC0TSI                       FRI 09/05/97 12:05 Page:2
       38       38    1         2 * UBIN (18) INIT (0) UNAL,
       39       39    1         2 X202 CHAR (34) INIT('BY') UNAL,
       40       40    1         2 * UBIN (18) INIT (0) UNAL,
       41       41    1         2 X203 CHAR (34) INIT('CD') UNAL,
       42       42    1         2 * UBIN (18) INIT (0) UNAL,
       43       43    1         2 X204 CHAR (34) INIT('CF') UNAL,
       44       44    1         2 * UBIN (18) INIT (0) UNAL,
       45       45    1         2 X205 CHAR (34) INIT('CH') UNAL,
       46       46    1         2 * UBIN (18) INIT (0) UNAL,
       47       47    1         2 X206 CHAR (34) INIT('DB') UNAL,
       48       48    1         2 * UBIN (18) INIT (0) UNAL,
       49       49    1         2 X207 CHAR (34) INIT('DE') UNAL,
       50       50    1         2 * UBIN (18) INIT (0) UNAL,
       51       51    1         2 X208 CHAR (34) INIT('FD') UNAL,
       52       52    1         2 * UBIN (18) INIT (0) UNAL,
       53       53    1         2 X209 CHAR (34) INIT('GO') UNAL,
       54       54    1         2 * UBIN (18) INIT (0) UNAL,
       55       55    1         2 X210 CHAR (34) INIT('IF') UNAL,
       56       56    1         2 * UBIN (18) INIT (0) UNAL,
       57       57    1         2 X211 CHAR (34) INIT('IN') UNAL,
       58       58    1         2 * UBIN (18) INIT (0) UNAL,
       59       59    1         2 X212 CHAR (34) INIT('IS') UNAL,
       60       60    1         2 * UBIN (18) INIT (0) UNAL,
       61       61    1         2 X213 CHAR (34) INIT('NO') UNAL,
       62       62    1         2 * UBIN (18) INIT (0) UNAL,
       63       63    1         2 X214 CHAR (34) INIT('OF') UNAL,
       64       64    1         2 * UBIN (18) INIT (0) UNAL,
       65       65    1         2 X215 CHAR (34) INIT('ON') UNAL,
       66       66    1         2 * UBIN (18) INIT (0) UNAL,
       67       67    1         2 X216 CHAR (34) INIT('OR') UNAL,
       68       68    1         2 * UBIN (18) INIT (0) UNAL,
       69       69    1         2 X217 CHAR (34) INIT('PF') UNAL,
       70       70    1         2 * UBIN (18) INIT (0) UNAL,
       71       71    1         2 X218 CHAR (34) INIT('PH') UNAL,
       72       72    1         2 * UBIN (18) INIT (0) UNAL,
       73       73    1         2 X219 CHAR (34) INIT('RD') UNAL,
       74       74    1         2 * UBIN (18) INIT (0) UNAL,
PL6.E3A0      #001=ZIG$INIT_HAS File=ZIG$INIT_HAS.:ZIC0TSI                       FRI 09/05/97 12:05 Page:3
       75       75    1         2 X220 CHAR (34) INIT('RF') UNAL,
       76       76    1         2 * UBIN (18) INIT (0) UNAL,
       77       77    1         2 X221 CHAR (34) INIT('RH') UNAL,
       78       78    1         2 * UBIN (18) INIT (0) UNAL,
       79       79    1         2 X222 CHAR (34) INIT('SD') UNAL,
       80       80    1         2 * UBIN (18) INIT (0) UNAL,
       81       81    1         2 X223 CHAR (34) INIT('TO') UNAL,
       82       82    1         2 * UBIN (18) INIT (0) UNAL,
       83       83    1         2 X224 CHAR (34) INIT('UP') UNAL,
       84       84    1         2 * UBIN (18) INIT (0) UNAL,
       85       85    1         2 X301 CHAR (34) INIT('ADD') UNAL,
       86       86    1         2 * UBIN (18) INIT (0) UNAL,
       87       87    1         2 X302 CHAR (34) INIT('ALL') UNAL,
       88       88    1         2 * UBIN (18) INIT (0) UNAL,
       89       89    1         2 X303 CHAR (34) INIT('AND') UNAL,
       90       90    1         2 * UBIN (18) INIT (0) UNAL,
       91       91    1         2 X304 CHAR (34) INIT('ANY') UNAL,
       92       92    1         2 * UBIN (18) INIT (0) UNAL,
       93       93    1         2 X305 CHAR (34) INIT('ARE') UNAL,
       94       94    1         2 * UBIN (18) INIT (0) UNAL,
       95       95    1         2 X307 CHAR (34) INIT('DAY') UNAL,
       96       96    1         2 * UBIN (18) INIT (0) UNAL,
       97       97    1         2 X308 CHAR (34) INIT('EGI') UNAL,
       98       98    1         2 * UBIN (18) INIT (0) UNAL,
       99       99    1         2 X309 CHAR (34) INIT('EMI') UNAL,
      100      100    1         2 * UBIN (18) INIT (0) UNAL,
      101      101    1         2 X310 CHAR (34) INIT('END') UNAL,
      102      102    1         2 * UBIN (18) INIT (0) UNAL,
      103      103    1         2 X311 CHAR (34) INIT('EOP') UNAL,
      104      104    1         2 * UBIN (18) INIT (0) UNAL,
      105      105    1         2 X312 CHAR (34) INIT('ESI') UNAL,
      106      106    1         2 * UBIN (18) INIT (0) UNAL,
      107      107    1         2 X314 CHAR (34) INIT('FOR') UNAL,
      108      108    1         2 * UBIN (18) INIT (0) UNAL,
      109      109    1         2 X315 CHAR (34) INIT('GET') UNAL,
      110      110    1         2 * UBIN (18) INIT (0) UNAL,
      111      111    1         2 X316 CHAR (34) INIT('I-O') UNAL,
PL6.E3A0      #001=ZIG$INIT_HAS File=ZIG$INIT_HAS.:ZIC0TSI                       FRI 09/05/97 12:05 Page:4
      112      112    1         2 * UBIN (18) INIT (0) UNAL,
      113      113    1         2 X318 CHAR (34) INIT('KEY') UNAL,
      114      114    1         2 * UBIN (18) INIT (0) UNAL,
      115      115    1         2 X319 CHAR (34) INIT('NOT') UNAL,
      116      116    1         2 * UBIN (18) INIT (0) UNAL,
      117      117    1         2 X320 CHAR (34) INIT('OFF') UNAL,
      118      118    1         2 * UBIN (18) INIT (0) UNAL,
      119      119    1         2 X321 CHAR (34) INIT('PIC') UNAL,
      120      120    1         2 * UBIN (18) INIT (0) UNAL,
      121      121    1         2 X322 CHAR (34) INIT('RUN') UNAL,
      122      122    1         2 * UBIN (18) INIT (0) UNAL,
      123      123    1         2 X323 CHAR (34) INIT('SET') UNAL,
      124      124    1         2 * UBIN (18) INIT (0) UNAL,
      125      125    1         2 X325 CHAR (34) INIT('SUM') UNAL,
      126      126    1         2 * UBIN (18) INIT (0) UNAL,
      127      127    1         2 X326 CHAR (34) INIT('TOP') UNAL,
      128      128    1         2 * UBIN (18) INIT (0) UNAL,
      129      129    1         2 X327 CHAR (34) INIT('UFF') UNAL,
      130      130    1         2 * UBIN (18) INIT (0) UNAL,
      131      131    1         2 X401 CHAR (34) INIT('ALSO') UNAL,
      132      132    1         2 * UBIN (18) INIT (0) UNAL,
      133      133    1         2 X403 CHAR (34) INIT('AREA') UNAL,
      134      134    1         2 * UBIN (18) INIT (0) UNAL,
      135      135    1         2 X404 CHAR (34) INIT('CALL') UNAL,
      136      136    1         2 * UBIN (18) INIT (0) UNAL,
      137      137    1         2 X405 CHAR (34) INIT('CODE') UNAL,
      138      138    1         2 * UBIN (18) INIT (0) UNAL,
      139      139    1         2 X406 CHAR (34) INIT('COMP') UNAL,
      140      140    1         2 * UBIN (18) INIT (0) UNAL,
      141      141    1         2 X407 CHAR (34) INIT('COPY') UNAL,
      142      142    1         2 * UBIN (18) INIT (0) UNAL,
      143      143    1         2 X408 CHAR (34) INIT('CORR') UNAL,
      144      144    1         2 * UBIN (18) INIT (0) UNAL,
      145      145    1         2 X409 CHAR (34) INIT('DATA') UNAL,
      146      146    1         2 * UBIN (18) INIT (0) UNAL,
      147      147    1         2 X410 CHAR (34) INIT('DATE') UNAL,
      148      148    1         2 * UBIN (18) INIT (0) UNAL,
PL6.E3A0      #001=ZIG$INIT_HAS File=ZIG$INIT_HAS.:ZIC0TSI                       FRI 09/05/97 12:05 Page:5
      149      149    1         2 X411 CHAR (34) INIT('DOWN') UNAL,
      150      150    1         2 * UBIN (18) INIT (0) UNAL,
      151      151    1         2 X412 CHAR (34) INIT('ELSE') UNAL,
      152      152    1         2 * UBIN (18) INIT (0) UNAL,
      153      153    1         2 X413 CHAR (34) INIT('EXIT') UNAL,
      154      154    1         2 * UBIN (18) INIT (0) UNAL,
      155      155    1         2 X414 CHAR (34) INIT('FILE') UNAL,
      156      156    1         2 * UBIN (18) INIT (0) UNAL,
      157      157    1         2 X415 CHAR (34) INIT('FIND') UNAL,
      158      158    1         2 * UBIN (18) INIT (0) UNAL,
      159      159    1         2 X416 CHAR (34) INIT('FROM') UNAL,
      160      160    1         2 * UBIN (18) INIT (0) UNAL,
      161      161    1         2 X421 CHAR (34) INIT('INTO') UNAL,
      162      162    1         2 * UBIN (18) INIT (0) UNAL,
      163      163    1         2 X422 CHAR (34) INIT('JUST') UNAL,
      164      164    1         2 * UBIN (18) INIT (0) UNAL,
      165      165    1         2 X423 CHAR (34) INIT('LAST') UNAL,
      166      166    1         2 * UBIN (18) INIT (0) UNAL,
      167      167    1         2 X424 CHAR (34) INIT('LEFT') UNAL,
      168      168    1         2 * UBIN (18) INIT (0) UNAL,
      169      169    1         2 X425 CHAR (34) INIT('LESS') UNAL,
      170      170    1         2 * UBIN (18) INIT (0) UNAL,
      171      171    1         2 X426 CHAR (34) INIT('LINE') UNAL,
      172      172    1         2 * UBIN (18) INIT (0) UNAL,
      173      173    1         2 X427 CHAR (34) INIT('LOCK') UNAL,
      174      174    1         2 * UBIN (18) INIT (0) UNAL,
      175      175    1         2 X428 CHAR (34) INIT('MODE') UNAL,
      176      176    1         2 * UBIN (18) INIT (0) UNAL,
      177      177    1         2 X429 CHAR (34) INIT('MOVE') UNAL,
      178      178    1         2 * UBIN (18) INIT (0) UNAL,
      179      179    1         2 X430 CHAR (34) INIT('NEXT') UNAL,
      180      180    1         2 * UBIN (18) INIT (0) UNAL,
      181      181    1         2 X431 CHAR (34) INIT('NULL') UNAL,
      182      182    1         2 * UBIN (18) INIT (0) UNAL,
      183      183    1         2 X432 CHAR (34) INIT('ONLY') UNAL,
      184      184    1         2 * UBIN (18) INIT (0) UNAL,
      185      185    1         2 X433 CHAR (34) INIT('OPEN') UNAL,
PL6.E3A0      #001=ZIG$INIT_HAS File=ZIG$INIT_HAS.:ZIC0TSI                       FRI 09/05/97 12:05 Page:6
      186      186    1         2 * UBIN (18) INIT (0) UNAL,
      187      187    1         2 X434 CHAR (34) INIT('PAGE') UNAL,
      188      188    1         2 * UBIN (18) INIT (0) UNAL,
      189      189    1         2 X436 CHAR (34) INIT('PLUS') UNAL,
      190      190    1         2 * UBIN (18) INIT (0) UNAL,
      191      191    1         2 X437 CHAR (34) INIT('READ') UNAL,
      192      192    1         2 * UBIN (18) INIT (0) UNAL,
      193      193    1         2 X438 CHAR (34) INIT('REEL') UNAL,
      194      194    1         2 * UBIN (18) INIT (0) UNAL,
      195      195    1         2 X439 CHAR (34) INIT('SAME') UNAL,
      196      196    1         2 * UBIN (18) INIT (0) UNAL,
      197      197    1         2 X440 CHAR (34) INIT('SEND') UNAL,
      198      198    1         2 * UBIN (18) INIT (0) UNAL,
      199      199    1         2 X441 CHAR (34) INIT('SETS') UNAL,
      200      200    1         2 * UBIN (18) INIT (0) UNAL,
      201      201    1         2 X442 CHAR (34) INIT('SIGN') UNAL,
      202      202    1         2 * UBIN (18) INIT (0) UNAL,
      203      203    1         2 X443 CHAR (34) INIT('SIZE') UNAL,
      204      204    1         2 * UBIN (18) INIT (0) UNAL,
      205      205    1         2 X444 CHAR (34) INIT('SORT') UNAL,
      206      206    1         2 * UBIN (18) INIT (0) UNAL,
      207      207    1         2 X445 CHAR (34) INIT('STOP') UNAL,
      208      208    1         2 * UBIN (18) INIT (0) UNAL,
      209      209    1         2 X446 CHAR (34) INIT('SYNC') UNAL,
      210      210    1         2 * UBIN (18) INIT (0) UNAL,
      211      211    1         2 X447 CHAR (34) INIT('TAPE') UNAL,
      212      212    1         2 * UBIN (18) INIT (0) UNAL,
      213      213    1         2 X448 CHAR (34) INIT('TEXT') UNAL,
      214      214    1         2 * UBIN (18) INIT (0) UNAL,
      215      215    1         2 X449 CHAR (34) INIT('THAN') UNAL,
      216      216    1         2 * UBIN (18) INIT (0) UNAL,
      217      217    1         2 X450 CHAR (34) INIT('THRU') UNAL,
      218      218    1         2 * UBIN (18) INIT (0) UNAL,
      219      219    1         2 X451 CHAR (34) INIT('TIME') UNAL,
      220      220    1         2 * UBIN (18) INIT (0) UNAL,
      221      221    1         2 X452 CHAR (34) INIT('TYPE') UNAL,
      222      222    1         2 * UBIN (18) INIT (0) UNAL,
PL6.E3A0      #001=ZIG$INIT_HAS File=ZIG$INIT_HAS.:ZIC0TSI                       FRI 09/05/97 12:05 Page:7
      223      223    1         2 X454 CHAR (34) INIT('UNIT') UNAL,
      224      224    1         2 * UBIN (18) INIT (0) UNAL,
      225      225    1         2 X455 CHAR (34) INIT('UPON') UNAL,
      226      226    1         2 * UBIN (18) INIT (0) UNAL,
      227      227    1         2 X456 CHAR (34) INIT('WHEN') UNAL,
      228      228    1         2 * UBIN (18) INIT (0) UNAL,
      229      229    1         2 X457 CHAR (34) INIT('WITH') UNAL,
      230      230    1         2 * UBIN (18) INIT (0) UNAL,
      231      231    1         2 X458 CHAR (34) INIT('ZERO') UNAL,
      232      232    1         2 * UBIN (18) INIT (0) UNAL,
      233      233    1         2 X501 CHAR (34) INIT('AFTER') UNAL,
      234      234    1         2 * UBIN (18) INIT (0) UNAL,
      235      235    1         2 X502 CHAR (34) INIT('ALTER') UNAL,
      236      236    1         2 * UBIN (18) INIT (0) UNAL,
      237      237    1         2 X503 CHAR (34) INIT('AREAS') UNAL,
      238      238    1         2 * UBIN (18) INIT (0) UNAL,
      239      239    1         2 X504 CHAR (34) INIT('ASCII') UNAL,
      240      240    1         2 * UBIN (18) INIT (0) UNAL,
      241      241    1         2 X505 CHAR (34) INIT('BLANK') UNAL,
      242      242    1         2 * UBIN (18) INIT (0) UNAL,
      243      243    1         2 X506 CHAR (34) INIT('BLOCK') UNAL,
      244      244    1         2 * UBIN (18) INIT (0) UNAL,
      245      245    1         2 X507 CHAR (34) INIT('CLOSE') UNAL,
      246      246    1         2 * UBIN (18) INIT (0) UNAL,
      247      247    1         2 X508 CHAR (34) INIT('COBOL') UNAL,
      248      248    1         2 * UBIN (18) INIT (0) UNAL,
      249      249    1         2 X509 CHAR (34) INIT('COMMA') UNAL,
      250      250    1         2 * UBIN (18) INIT (0) UNAL,
      251      251    1         2 X510 CHAR (34) INIT('COUNT') UNAL,
      252      252    1         2 * UBIN (18) INIT (0) UNAL,
      253      253    1         2 X511 CHAR (34) INIT('EMPTY') UNAL,
      254      254    1         2 * UBIN (18) INIT (0) UNAL,
      255      255    1         2 X512 CHAR (34) INIT('ENTER') UNAL,
      256      256    1         2 * UBIN (18) INIT (0) UNAL,
      257      257    1         2 X512A CHAR (34) INIT('ENTRY') UNAL,
      258      258    1         2 * UBIN (18) INIT (0) UNAL,
      259      259    1         2 X513 CHAR (34) INIT('EQUAL') UNAL,
PL6.E3A0      #001=ZIG$INIT_HAS File=ZIG$INIT_HAS.:ZIC0TSI                       FRI 09/05/97 12:05 Page:8
      260      260    1         2 * UBIN (18) INIT (0) UNAL,
      261      261    1         2 X514 CHAR (34) INIT('ERASE') UNAL,
      262      262    1         2 * UBIN (18) INIT (0) UNAL,
      263      263    1         2 X515 CHAR (34) INIT('ERROR') UNAL,
      264      264    1         2 * UBIN (18) INIT (0) UNAL,
      265      265    1         2 X516 CHAR (34) INIT('EVERY') UNAL,
      266      266    1         2 * UBIN (18) INIT (0) UNAL,
      267      267    1         2 X517 CHAR (34) INIT('FINAL') UNAL,
      268      268    1         2 * UBIN (18) INIT (0) UNAL,
      269      269    1         2 X518 CHAR (34) INIT('FIRST') UNAL,
      270      270    1         2 * UBIN (18) INIT (0) UNAL,
      271      271    1         2 X519 CHAR (34) INIT('GROUP') UNAL,
      272      272    1         2 * UBIN (18) INIT (0) UNAL,
      273      273    1         2 X520 CHAR (34) INIT('INDEX') UNAL,
      274      274    1         2 * UBIN (18) INIT (0) UNAL,
      275      275    1         2 X521 CHAR (34) INIT('INPUT') UNAL,
      276      276    1         2 * UBIN (18) INIT (0) UNAL,
      277      277    1         2 X522 CHAR (34) INIT('LABEL') UNAL,
      278      278    1         2 * UBIN (18) INIT (0) UNAL,
      279      279    1         2 X523 CHAR (34) INIT('LIMIT') UNAL,
      280      280    1         2 * UBIN (18) INIT (0) UNAL,
      281      281    1         2 X524 CHAR (34) INIT('LINES') UNAL,
      282      282    1         2 * UBIN (18) INIT (0) UNAL,
      283      283    1         2 X525 CHAR (34) INIT('MERGE') UNAL,
      284      284    1         2 * UBIN (18) INIT (0) UNAL,
      285      285    1         2 X526 CHAR (34) INIT('ORDER') UNAL,
      286      286    1         2 * UBIN (18) INIT (0) UNAL,
      287      287    1         2 X527 CHAR (34) INIT('OTHER') UNAL,
      288      288    1         2 * UBIN (18) INIT (0) UNAL,
      289      289    1         2 X528 CHAR (34) INIT('OWNER') UNAL,
      290      290    1         2 * UBIN (18) INIT (0) UNAL,
      291      291    1         2 X529 CHAR (34) INIT('PRIOR') UNAL,
      292      292    1         2 * UBIN (18) INIT (0) UNAL,
      293      293    1         2 X530 CHAR (34) INIT('QUEUE') UNAL,
      294      294    1         2 * UBIN (18) INIT (0) UNAL,
      295      295    1         2 X531 CHAR (34) INIT('QUOTE') UNAL,
      296      296    1         2 * UBIN (18) INIT (0) UNAL,
PL6.E3A0      #001=ZIG$INIT_HAS File=ZIG$INIT_HAS.:ZIC0TSI                       FRI 09/05/97 12:05 Page:9
      297      297    1         2 X532 CHAR (34) INIT('READY') UNAL,
      298      298    1         2 * UBIN (18) INIT (0) UNAL,
      299      299    1         2 X533 CHAR (34) INIT('REALM') UNAL,
      300      300    1         2 * UBIN (18) INIT (0) UNAL,
      301      301    1         2 X534 CHAR (34) INIT('RERUN') UNAL,
      302      302    1         2 * UBIN (18) INIT (0) UNAL,
      303      303    1         2 X535 CHAR (34) INIT('RESET') UNAL,
      304      304    1         2 * UBIN (18) INIT (0) UNAL,
      305      305    1         2 X536 CHAR (34) INIT('RIGHT') UNAL,
      306      306    1         2 * UBIN (18) INIT (0) UNAL,
      307      307    1         2 X537 CHAR (34) INIT('SPACE') UNAL,
      308      308    1         2 * UBIN (18) INIT (0) UNAL,
      309      309    1         2 X538 CHAR (34) INIT('START') UNAL,
      310      310    1         2 * UBIN (18) INIT (0) UNAL,
      311      311    1         2 X539 CHAR (34) INIT('STORE') UNAL,
      312      312    1         2 * UBIN (18) INIT (0) UNAL,
      313      313    1         2 X540 CHAR (34) INIT('SYSIN') UNAL,
      314      314    1         2 * UBIN (18) INIT (0) UNAL,
      315      315    1         2 X541 CHAR (34) INIT('TABLE') UNAL,
      316      316    1         2 * UBIN (18) INIT (0) UNAL,
      317      317    1         2 X542 CHAR (34) INIT('TIMES') UNAL,
      318      318    1         2 * UBIN (18) INIT (0) UNAL,
      319      319    1         2 X543 CHAR (34) INIT('UNTIL') UNAL,
      320      320    1         2 * UBIN (18) INIT (0) UNAL,
      321      321    1         2 X544 CHAR (34) INIT('USAGE') UNAL,
      322      322    1         2 * UBIN (18) INIT (0) UNAL,
      323      323    1         2 X545 CHAR (34) INIT('USING') UNAL,
      324      324    1         2 * UBIN (18) INIT (0) UNAL,
      325      325    1         2 X546 CHAR (34) INIT('VALUE') UNAL,
      326      326    1         2 * UBIN (18) INIT (0) UNAL,
      327      327    1         2 X547 CHAR (34) INIT('WORDS') UNAL,
      328      328    1         2 * UBIN (18) INIT (0) UNAL,
      329      329    1         2 X548 CHAR (34) INIT('WRITE') UNAL,
      330      330    1         2 * UBIN (18) INIT (0) UNAL,
      331      331    1         2 X549 CHAR (34) INIT('ZEROS') UNAL,
      332      332    1         2 * UBIN (18) INIT (0) UNAL,
      333      333    1         2 X601 CHAR (34) INIT('ACCEPT') UNAL,
PL6.E3A0      #001=ZIG$INIT_HAS File=ZIG$INIT_HAS.:ZIC0TSI                       FRI 09/05/97 12:05 Page:10
      334      334    1         2 * UBIN (18) INIT (0) UNAL,
      335      335    1         2 X602 CHAR (34) INIT('ACCESS') UNAL,
      336      336    1         2 * UBIN (18) INIT (0) UNAL,
      337      337    1         2 X603 CHAR (34) INIT('ASSIGN') UNAL,
      338      338    1         2 * UBIN (18) INIT (0) UNAL,
      339      339    1         2 X604 CHAR (34) INIT('AUTHOR') UNAL,
      340      340    1         2 * UBIN (18) INIT (0) UNAL,
      341      341    1         2 X605 CHAR (34) INIT('BEFORE') UNAL,
      342      342    1         2 * UBIN (18) INIT (0) UNAL,
      343      343    1         2 X606 CHAR (34) INIT('BOTTOM') UNAL,
      344      344    1         2 * UBIN (18) INIT (0) UNAL,
      345      345    1         2 X607 CHAR (34) INIT('CANCEL') UNAL,
      346      346    1         2 * UBIN (18) INIT (0) UNAL,
      347      347    1         2 X608 CHAR (34) INIT('COLUMN') UNAL,
      348      348    1         2 * UBIN (18) INIT (0) UNAL,
      349      349    1         2 X609 CHAR (34) INIT('COMP-1') UNAL,
      350      350    1         2 * UBIN (18) INIT (0) UNAL,
      351      351    1         2 X610 CHAR (34) INIT('COMP-2') UNAL,
      352      352    1         2 * UBIN (18) INIT (0) UNAL,
      353      353    1         2 X611 CHAR (34) INIT('COMP-3') UNAL,
      354      354    1         2 * UBIN (18) INIT (0) UNAL,
      355      355    1         2 X612 CHAR (34) INIT('COMP-4') UNAL,
      356      356    1         2 * UBIN (18) INIT (0) UNAL,
      357      357    1         2 X613 CHAR (34) INIT('COMP-5') UNAL,
      358      358    1         2 * UBIN (18) INIT (0) UNAL,
      359      359    1         2 X614 CHAR (34) INIT('COMP-6') UNAL,
      360      360    1         2 * UBIN (18) INIT (0) UNAL,
      361      361    1         2 X616 CHAR (34) INIT('DB-KEY') UNAL,
      362      362    1         2 * UBIN (18) INIT (0) UNAL,
      363      363    1         2 X617 CHAR (34) INIT('DELETE') UNAL,
      364      364    1         2 * UBIN (18) INIT (0) UNAL,
      365      365    1         2 X618 CHAR (34) INIT('DETAIL') UNAL,
      366      366    1         2 * UBIN (18) INIT (0) UNAL,
      367      367    1         2 X619 CHAR (34) INIT('DIVIDE') UNAL,
      368      368    1         2 * UBIN (18) INIT (0) UNAL,
      369      369    1         2 X620 CHAR (34) INIT('EBCDIC') UNAL,
      370      370    1         2 * UBIN (18) INIT (0) UNAL,
PL6.E3A0      #001=ZIG$INIT_HAS File=ZIG$INIT_HAS.:ZIC0TSI                       FRI 09/05/97 12:05 Page:11
      371      371    1         2 X621 CHAR (34) INIT('ENABLE') UNAL,
      372      372    1         2 * UBIN (18) INIT (0) UNAL,
      373      373    1         2 X622 CHAR (34) INIT('EQUALS') UNAL,
      374      374    1         2 * UBIN (18) INIT (0) UNAL,
      375      375    1         2 X623 CHAR (34) INIT('EXTEND') UNAL,
      376      376    1         2 * UBIN (18) INIT (0) UNAL,
      377      377    1         2 X624 CHAR (34) INIT('FILLER') UNAL,
      378      378    1         2 * UBIN (18) INIT (0) UNAL,
      379      379    1         2 X625 CHAR (34) INIT('FINISH') UNAL,
      380      380    1         2 * UBIN (18) INIT (0) UNAL,
      381      381    1         2 X626 CHAR (34) INIT('GIVING') UNAL,
      382      382    1         2 * UBIN (18) INIT (0) UNAL,
      383      383    1         2 X628 CHAR (34) INIT('IDS-II') UNAL,
      384      384    1         2 * UBIN (18) INIT (0) UNAL,
      385      385    1         2 X630 CHAR (34) INIT('LENGTH') UNAL,
      386      386    1         2 * UBIN (18) INIT (0) UNAL,
      387      387    1         2 X631 CHAR (34) INIT('LIMITS') UNAL,
      388      388    1         2 * UBIN (18) INIT (0) UNAL,
      389      389    1         2 X632 CHAR (34) INIT('LINAGE') UNAL,
      390      390    1         2 * UBIN (18) INIT (0) UNAL,
      391      391    1         2 X633 CHAR (34) INIT('MEMBER') UNAL,
      392      392    1         2 * UBIN (18) INIT (0) UNAL,
      393      393    1         2 X634 CHAR (34) INIT('MEMORY') UNAL,
      394      394    1         2 * UBIN (18) INIT (0) UNAL,
      395      395    1         2 X635 CHAR (34) INIT('MODIFY') UNAL,
      396      396    1         2 * UBIN (18) INIT (0) UNAL,
      397      397    1         2 X636 CHAR (34) INIT('NATIVE') UNAL,
      398      398    1         2 * UBIN (18) INIT (0) UNAL,
      399      399    1         2 X637 CHAR (34) INIT('NUMBER') UNAL,
      400      400    1         2 * UBIN (18) INIT (0) UNAL,
      401      401    1         2 X638 CHAR (34) INIT('OCCURS') UNAL,
      402      402    1         2 * UBIN (18) INIT (0) UNAL,
      403      403    1         2 X639 CHAR (34) INIT('OUTPUT') UNAL,
      404      404    1         2 * UBIN (18) INIT (0) UNAL,
      405      405    1         2 X640 CHAR (34) INIT('QUOTES') UNAL,
      406      406    1         2 * UBIN (18) INIT (0) UNAL,
      407      407    1         2 X641 CHAR (34) INIT('RANDOM') UNAL,
PL6.E3A0      #001=ZIG$INIT_HAS File=ZIG$INIT_HAS.:ZIC0TSI                       FRI 09/05/97 12:05 Page:12
      408      408    1         2 * UBIN (18) INIT (0) UNAL,
      409      409    1         2 X642 CHAR (34) INIT('REALMS') UNAL,
      410      410    1         2 * UBIN (18) INIT (0) UNAL,
      411      411    1         2 X643 CHAR (34) INIT('RECORD') UNAL,
      412      412    1         2 * UBIN (18) INIT (0) UNAL,
      413      413    1         2 X644 CHAR (34) INIT('REPORT') UNAL,
      414      414    1         2 * UBIN (18) INIT (0) UNAL,
      415      415    1         2 X645 CHAR (34) INIT('RETURN') UNAL,
      416      416    1         2 * UBIN (18) INIT (0) UNAL,
      417      417    1         2 X646 CHAR (34) INIT('REWIND') UNAL,
      418      418    1         2 * UBIN (18) INIT (0) UNAL,
      419      419    1         2 X647 CHAR (34) INIT('SEARCH') UNAL,
      420      420    1         2 * UBIN (18) INIT (0) UNAL,
      421      421    1         2 X648 CHAR (34) INIT('SELECT') UNAL,
      422      422    1         2 * UBIN (18) INIT (0) UNAL,
      423      423    1         2 X649 CHAR (34) INIT('SOURCE') UNAL,
      424      424    1         2 * UBIN (18) INIT (0) UNAL,
      425      425    1         2 X650 CHAR (34) INIT('SPACES') UNAL,
      426      426    1         2 * UBIN (18) INIT (0) UNAL,
      427      427    1         2 X651 CHAR (34) INIT('STATUS') UNAL,
      428      428    1         2 * UBIN (18) INIT (0) UNAL,
      429      429    1         2 X652 CHAR (34) INIT('STRING') UNAL,
      430      430    1         2 * UBIN (18) INIT (0) UNAL,
      431      431    1         2 X653 CHAR (34) INIT('SYSOUT') UNAL,
      432      432    1         2 * UBIN (18) INIT (0) UNAL,
      433      433    1         2 X654 CHAR (34) INIT('TENANT') UNAL,
      434      434    1         2 * UBIN (18) INIT (0) UNAL,
      435      435    1         2 X655 CHAR (34) INIT('UPDATE') UNAL,
      436      436    1         2 * UBIN (18) INIT (0) UNAL,
      437      437    1         2 X656 CHAR (34) INIT('VALUES') UNAL,
      438      438    1         2 * UBIN (18) INIT (0) UNAL,
      439      439    1         2 X657 CHAR (34) INIT('WITHIN') UNAL,
      440      440    1         2 * UBIN (18) INIT (0) UNAL,
      441      441    1         2 X658 CHAR (34) INIT('ZEROES') UNAL,
      442      442    1         2 * UBIN (18) INIT (0) UNAL,
      443      443    1         2 X701 CHAR (34) INIT('COMPUTE') UNAL,
      444      444    1         2 * UBIN (18) INIT (0) UNAL,
PL6.E3A0      #001=ZIG$INIT_HAS File=ZIG$INIT_HAS.:ZIC0TSI                       FRI 09/05/97 12:05 Page:13
      445      445    1         2 X702 CHAR (34) INIT('CONNECT') UNAL,
      446      446    1         2 * UBIN (18) INIT (0) UNAL,
      447      447    1         2 X703 CHAR (34) INIT('CONSOLE') UNAL,
      448      448    1         2 * UBIN (18) INIT (0) UNAL,
      449      449    1         2 X704 CHAR (34) INIT('CONTROL') UNAL,
      450      450    1         2 * UBIN (18) INIT (0) UNAL,
      451      451    1         2 X705 CHAR (34) INIT('CURRENT') UNAL,
      452      452    1         2 * UBIN (18) INIT (0) UNAL,
      453      453    1         2 X706 CHAR (34) INIT('DEFAULT') UNAL,
      454      454    1         2 * UBIN (18) INIT (0) UNAL,
      455      455    1         2 X707 CHAR (34) INIT('DISABLE') UNAL,
      456      456    1         2 * UBIN (18) INIT (0) UNAL,
      457      457    1         2 X708 CHAR (34) INIT('DISPLAY') UNAL,
      458      458    1         2 * UBIN (18) INIT (0) UNAL,
      459      459    1         2 X709 CHAR (34) INIT('DYNAMIC') UNAL,
      460      460    1         2 * UBIN (18) INIT (0) UNAL,
      461      461    1         2 X710 CHAR (34) INIT('FILE-ID') UNAL,
      462      462    1         2 * UBIN (18) INIT (0) UNAL,
      463      463    1         2 X711 CHAR (34) INIT('FOOTING') UNAL,
      464      464    1         2 * UBIN (18) INIT (0) UNAL,
      465      465    1         2 X712 CHAR (34) INIT('GREATER') UNAL,
      466      466    1         2 * UBIN (18) INIT (0) UNAL,
      467      467    1         2 X713 CHAR (34) INIT('HEADING') UNAL,
      468      468    1         2 * UBIN (18) INIT (0) UNAL,
      469      469    1         2 X714 CHAR (34) INIT('INDEXED') UNAL,
      470      470    1         2 * UBIN (18) INIT (0) UNAL,
      471      471    1         2 X715 CHAR (34) INIT('INITIAL') UNAL,
      472      472    1         2 * UBIN (18) INIT (0) UNAL,
      473      473    1         2 X716 CHAR (34) INIT('INSPECT') UNAL,
      474      474    1         2 * UBIN (18) INIT (0) UNAL,
      475      475    1         2 X717 CHAR (34) INIT('INVALID') UNAL,
      476      476    1         2 * UBIN (18) INIT (0) UNAL,
      477      477    1         2 X718 CHAR (34) INIT('LEADING') UNAL,
      478      478    1         2 * UBIN (18) INIT (0) UNAL,
      479      479    1         2 X719 CHAR (34) INIT('LINKAGE') UNAL,
      480      480    1         2 * UBIN (18) INIT (0) UNAL,
      481      481    1         2 X720 CHAR (34) INIT('LOCALLY') UNAL,
PL6.E3A0      #001=ZIG$INIT_HAS File=ZIG$INIT_HAS.:ZIC0TSI                       FRI 09/05/97 12:05 Page:14
      482      482    1         2 * UBIN (18) INIT (0) UNAL,
      483      483    1         2 X721 CHAR (34) INIT('MAXIMUM') UNAL,
      484      484    1         2 * UBIN (18) INIT (0) UNAL,
      485      485    1         2 X722 CHAR (34) INIT('MEMBERS') UNAL,
      486      486    1         2 * UBIN (18) INIT (0) UNAL,
      487      487    1         2 X723 CHAR (34) INIT('MESSAGE') UNAL,
      488      488    1         2 * UBIN (18) INIT (0) UNAL,
      489      489    1         2 X724 CHAR (34) INIT('MODULES') UNAL,
      490      490    1         2 * UBIN (18) INIT (0) UNAL,
      491      491    1         2 X725 CHAR (34) INIT('MULTICS') UNAL,
      492      492    1         2 * UBIN (18) INIT (0) UNAL,
      493      493    1         2 X726 CHAR (34) INIT('NUMERIC') UNAL,
      494      494    1         2 * UBIN (18) INIT (0) UNAL,
      495      495    1         2 X727 CHAR (34) INIT('OMITTED') UNAL,
      496      496    1         2 * UBIN (18) INIT (0) UNAL,
      497      497    1         2 X728 CHAR (34) INIT('PERFORM') UNAL,
      498      498    1         2 * UBIN (18) INIT (0) UNAL,
      499      499    1         2 X729 CHAR (34) INIT('PICTURE') UNAL,
      500      500    1         2 * UBIN (18) INIT (0) UNAL,
      501      501    1         2 X730 CHAR (34) INIT('POINTER') UNAL,
      502      502    1         2 * UBIN (18) INIT (0) UNAL,
      503      503    1         2 X731 CHAR (34) INIT('PRIVACY') UNAL,
      504      504    1         2 * UBIN (18) INIT (0) UNAL,
      505      505    1         2 X732 CHAR (34) INIT('PROCEED') UNAL,
      506      506    1         2 * UBIN (18) INIT (0) UNAL,
      507      507    1         2 X733 CHAR (34) INIT('PROGRAM') UNAL,
      508      508    1         2 * UBIN (18) INIT (0) UNAL,
      509      509    1         2 X734 CHAR (34) INIT('RECEIVE') UNAL,
      510      510    1         2 * UBIN (18) INIT (0) UNAL,
      511      511    1         2 X735 CHAR (34) INIT('RECORDS') UNAL,
      512      512    1         2 * UBIN (18) INIT (0) UNAL,
      513      513    1         2 X736 CHAR (34) INIT('RELEASE') UNAL,
      514      514    1         2 * UBIN (18) INIT (0) UNAL,
      515      515    1         2 X737 CHAR (34) INIT('REMOVAL') UNAL,
      516      516    1         2 * UBIN (18) INIT (0) UNAL,
      517      517    1         2 X738 CHAR (34) INIT('RENAMES') UNAL,
      518      518    1         2 * UBIN (18) INIT (0) UNAL,
PL6.E3A0      #001=ZIG$INIT_HAS File=ZIG$INIT_HAS.:ZIC0TSI                       FRI 09/05/97 12:05 Page:15
      519      519    1         2 X739 CHAR (34) INIT('REPLACE') UNAL,
      520      520    1         2 * UBIN (18) INIT (0) UNAL,
      521      521    1         2 X740 CHAR (34) INIT('REPORTS') UNAL,
      522      522    1         2 * UBIN (18) INIT (0) UNAL,
      523      523    1         2 X741 CHAR (34) INIT('RESERVE') UNAL,
      524      524    1         2 * UBIN (18) INIT (0) UNAL,
      525      525    1         2 X742 CHAR (34) INIT('REWRITE') UNAL,
      526      526    1         2 * UBIN (18) INIT (0) UNAL,
      527      527    1         2 X743 CHAR (34) INIT('ROUNDED') UNAL,
      528      528    1         2 * UBIN (18) INIT (0) UNAL,
      529      529    1         2 X744 CHAR (34) INIT('SECTION') UNAL,
      530      530    1         2 * UBIN (18) INIT (0) UNAL,
      531      531    1         2 X745 CHAR (34) INIT('SEGMENT') UNAL,
      532      532    1         2 * UBIN (18) INIT (0) UNAL,
      533      533    1         2 X746 CHAR (34) INIT('THROUGH') UNAL,
      534      534    1         2 * UBIN (18) INIT (0) UNAL,
      535      535    1         2 X747 CHAR (34) INIT('VARYING') UNAL,
      536      536    1         2 * UBIN (18) INIT (0) UNAL,
      537      537    1         2 X802 CHAR (34) INIT('CODE-SET') UNAL,
      538      538    1         2 * UBIN (18) INIT (0) UNAL,
      539      539    1         2 X803 CHAR (34) INIT('CONSTANT') UNAL,
      540      540    1         2 * UBIN (18) INIT (0) UNAL,
      541      541    1         2 X804 CHAR (34) INIT('CONTAINS') UNAL,
      542      542    1         2 * UBIN (18) INIT (0) UNAL,
      543      543    1         2 X805 CHAR (34) INIT('CONTROLS') UNAL,
      544      544    1         2 * UBIN (18) INIT (0) UNAL,
      545      545    1         2 X806 CHAR (34) INIT('CURRENCY') UNAL,
      546      546    1         2 * UBIN (18) INIT (0) UNAL,
      547      547    1         2 X807 CHAR (34) INIT('DIVISION') UNAL,
      548      548    1         2 * UBIN (18) INIT (0) UNAL,
      549      549    1         2 X808 CHAR (34) INIT('GENERATE') UNAL,
      550      550    1         2 * UBIN (18) INIT (0) UNAL,
      551      551    1         2 X809 CHAR (34) INIT('INDICATE') UNAL,
      552      552    1         2 * UBIN (18) INIT (0) UNAL,
      553      553    1         2 X810 CHAR (34) INIT('INITIATE') UNAL,
      554      554    1         2 * UBIN (18) INIT (0) UNAL,
      555      555    1         2 X811 CHAR (34) INIT('LEVEL-62') UNAL,
PL6.E3A0      #001=ZIG$INIT_HAS File=ZIG$INIT_HAS.:ZIC0TSI                       FRI 09/05/97 12:05 Page:16
      556      556    1         2 * UBIN (18) INIT (0) UNAL,
      557      557    1         2 X812 CHAR (34) INIT('LEVEL-64') UNAL,
      558      558    1         2 * UBIN (18) INIT (0) UNAL,
      559      559    1         2 X813 CHAR (34) INIT('LEVEL-66') UNAL,
      560      560    1         2 * UBIN (18) INIT (0) UNAL,
      561      561    1         2 X814 CHAR (34) INIT('LEVEL-68') UNAL,
      562      562    1         2 * UBIN (18) INIT (0) UNAL,
      563      563    1         2 X815 CHAR (34) INIT('MULTIPLE') UNAL,
      564      564    1         2 * UBIN (18) INIT (0) UNAL,
      565      565    1         2 X816 CHAR (34) INIT('MULTIPLY') UNAL,
      566      566    1         2 * UBIN (18) INIT (0) UNAL,
      567      567    1         2 X817 CHAR (34) INIT('NEGATIVE') UNAL,
      568      568    1         2 * UBIN (18) INIT (0) UNAL,
      569      569    1         2 X818 CHAR (34) INIT('OPTIONAL') UNAL,
      570      570    1         2 * UBIN (18) INIT (0) UNAL,
      571      571    1         2 X819 CHAR (34) INIT('OVERFLOW') UNAL,
      572      572    1         2 * UBIN (18) INIT (0) UNAL,
      573      573    1         2 X820 CHAR (34) INIT('POSITION') UNAL,
      574      574    1         2 * UBIN (18) INIT (0) UNAL,
      575      575    1         2 X821 CHAR (34) INIT('POSITIVE') UNAL,
      576      576    1         2 * UBIN (18) INIT (0) UNAL,
      577      577    1         2 X822 CHAR (34) INIT('PRINTING') UNAL,
      578      578    1         2 * UBIN (18) INIT (0) UNAL,
      579      579    1         2 X823 CHAR (34) INIT('RELATIVE') UNAL,
      580      580    1         2 * UBIN (18) INIT (0) UNAL,
      581      581    1         2 X824 CHAR (34) INIT('REVERSED') UNAL,
      582      582    1         2 * UBIN (18) INIT (0) UNAL,
      583      583    1         2 X825 CHAR (34) INIT('SECURITY') UNAL,
      584      584    1         2 * UBIN (18) INIT (0) UNAL,
      585      585    1         2 X826 CHAR (34) INIT('SENTENCE') UNAL,
      586      586    1         2 * UBIN (18) INIT (0) UNAL,
      587      587    1         2 X827 CHAR (34) INIT('SEPARATE') UNAL,
      588      588    1         2 * UBIN (18) INIT (0) UNAL,
      589      589    1         2 X828 CHAR (34) INIT('SEQUENCE') UNAL,
      590      590    1         2 * UBIN (18) INIT (0) UNAL,
      591      591    1         2 X829 CHAR (34) INIT('STANDARD') UNAL,
      592      592    1         2 * UBIN (18) INIT (0) UNAL,
PL6.E3A0      #001=ZIG$INIT_HAS File=ZIG$INIT_HAS.:ZIC0TSI                       FRI 09/05/97 12:05 Page:17
      593      593    1         2 X830 CHAR (34) INIT('SUBTRACT') UNAL,
      594      594    1         2 * UBIN (18) INIT (0) UNAL,
      595      595    1         2 X831 CHAR (34) INIT('SUPPRESS') UNAL,
      596      596    1         2 * UBIN (18) INIT (0) UNAL,
      597      597    1         2 X832 CHAR (34) INIT('SWITCH-0') UNAL,
      598      598    1         2 * UBIN (18) INIT (0) UNAL,
      599      599    1         2 X833 CHAR (34) INIT('SWITCH-1') UNAL,
      600      600    1         2 * UBIN (18) INIT (0) UNAL,
      601      601    1         2 X834 CHAR (34) INIT('SWITCH-2') UNAL,
      602      602    1         2 * UBIN (18) INIT (0) UNAL,
      603      603    1         2 X835 CHAR (34) INIT('SWITCH-3') UNAL,
      604      604    1         2 * UBIN (18) INIT (0) UNAL,
      605      605    1         2 X836 CHAR (34) INIT('SWITCH-4') UNAL,
      606      606    1         2 * UBIN (18) INIT (0) UNAL,
      607      607    1         2 X837 CHAR (34) INIT('SWITCH-5') UNAL,
      608      608    1         2 * UBIN (18) INIT (0) UNAL,
      609      609    1         2 X838 CHAR (34) INIT('SWITCH-6') UNAL,
      610      610    1         2 * UBIN (18) INIT (0) UNAL,
      611      611    1         2 X839 CHAR (34) INIT('SWITCH-7') UNAL,
      612      612    1         2 * UBIN (18) INIT (0) UNAL,
      613      613    1         2 X840 CHAR (34) INIT('SWITCH-8') UNAL,
      614      614    1         2 * UBIN (18) INIT (0) UNAL,
      615      615    1         2 X841 CHAR (34) INIT('SWITCH-9') UNAL,
      616      616    1         2 * UBIN (18) INIT (0) UNAL,
      617      617    1         2 X842 CHAR (34) INIT('SYMBOLIC') UNAL,
      618      618    1         2 * UBIN (18) INIT (0) UNAL,
      619      619    1         2 X843 CHAR (34) INIT('TALLYING') UNAL,
      620      620    1         2 * UBIN (18) INIT (0) UNAL,
      621      621    1         2 X844 CHAR (34) INIT('TERMINAL') UNAL,
      622      622    1         2 * UBIN (18) INIT (0) UNAL,
      623      623    1         2 X845 CHAR (34) INIT('TRAILING') UNAL,
      624      624    1         2 * UBIN (18) INIT (0) UNAL,
      625      625    1         2 X846 CHAR (34) INIT('UNSTRING') UNAL,
      626      626    1         2 * UBIN (18) INIT (0) UNAL,
      627      627    1         2 X901 CHAR (34) INIT('ADVANCING') UNAL,
      628      628    1         2 * UBIN (18) INIT (0) UNAL,
      629      629    1         2 X902 CHAR (34) INIT('ALTERNATE') UNAL,
PL6.E3A0      #001=ZIG$INIT_HAS File=ZIG$INIT_HAS.:ZIC0TSI                       FRI 09/05/97 12:05 Page:18
      630      630    1         2 * UBIN (18) INIT (0) UNAL,
      631      631    1         2 X903 CHAR (34) INIT('ASCENDING') UNAL,
      632      632    1         2 * UBIN (18) INIT (0) UNAL,
      633      633    1         2 X904 CHAR (34) INIT('CHARACTER') UNAL,
      634      634    1         2 * UBIN (18) INIT (0) UNAL,
      635      635    1         2 X905 CHAR (34) INIT('COLLATING') UNAL,
      636      636    1         2 * UBIN (18) INIT (0) UNAL,
      637      637    1         2 X906 CHAR (34) INIT('DB-STATUS') UNAL,
      638      638    1         2 * UBIN (18) INIT (0) UNAL,
      639      639    1         2 X907 CHAR (34) INIT('DEBUGGING') UNAL,
      640      640    1         2 * UBIN (18) INIT (0) UNAL,
      641      641    1         2 X908 CHAR (34) INIT('DELIMITED') UNAL,
      642      642    1         2 * UBIN (18) INIT (0) UNAL,
      643      643    1         2 X909 CHAR (34) INIT('DELIMITER') UNAL,
      644      644    1         2 * UBIN (18) INIT (0) UNAL,
      645      645    1         2 X910 CHAR (34) INIT('DEPENDING') UNAL,
      646      646    1         2 * UBIN (18) INIT (0) UNAL,
      647      647    1         2 X911 CHAR (34) INIT('DUPLICATE') UNAL,
      648      648    1         2 * UBIN (18) INIT (0) UNAL,
      649      649    1         2 X912 CHAR (34) INIT('EXCEPTION') UNAL,
      650      650    1         2 * UBIN (18) INIT (0) UNAL,
      651      651    1         2 X914 CHAR (34) INIT('INCLUDING') UNAL,
      652      652    1         2 * UBIN (18) INIT (0) UNAL,
      653      653    1         2 X915 CHAR (34) INIT('JUSTIFIED') UNAL,
      654      654    1         2 * UBIN (18) INIT (0) UNAL,
      655      655    1         2 X916 CHAR (34) INIT('LOW-VALUE') UNAL,
      656      656    1         2 * UBIN (18) INIT (0) UNAL,
      657      657    1         2 X917 CHAR (34) INIT('PROCEDURE') UNAL,
      658      658    1         2 * UBIN (18) INIT (0) UNAL,
      659      659    1         2 X919 CHAR (34) INIT('REDEFINES') UNAL,
      660      660    1         2 * UBIN (18) INIT (0) UNAL,
      661      661    1         2 X920 CHAR (34) INIT('REMAINDER') UNAL,
      662      662    1         2 * UBIN (18) INIT (0) UNAL,
      663      663    1         2 X921 CHAR (34) INIT('REPLACING') UNAL,
      664      664    1         2 * UBIN (18) INIT (0) UNAL,
      665      665    1         2 X922 CHAR (34) INIT('REPORTING') UNAL,
      666      666    1         2 * UBIN (18) INIT (0) UNAL,
PL6.E3A0      #001=ZIG$INIT_HAS File=ZIG$INIT_HAS.:ZIC0TSI                       FRI 09/05/97 12:05 Page:19
      667      667    1         2 X923 CHAR (34) INIT('RETAINING') UNAL,
      668      668    1         2 * UBIN (18) INIT (0) UNAL,
      669      669    1         2 X924 CHAR (34) INIT('RETENTION') UNAL,
      670      670    1         2 * UBIN (18) INIT (0) UNAL,
      671      671    1         2 X925 CHAR (34) INIT('RETRIEVAL') UNAL,
      672      672    1         2 * UBIN (18) INIT (0) UNAL,
      673      673    1         2 X926 CHAR (34) INIT('SWITCH-10') UNAL,
      674      674    1         2 * UBIN (18) INIT (0) UNAL,
      675      675    1         2 X927 CHAR (34) INIT('SWITCH-11') UNAL,
      676      676    1         2 * UBIN (18) INIT (0) UNAL,
      677      677    1         2 X928 CHAR (34) INIT('SWITCH-12') UNAL,
      678      678    1         2 * UBIN (18) INIT (0) UNAL,
      679      679    1         2 X929 CHAR (34) INIT('SWITCH-13') UNAL,
      680      680    1         2 * UBIN (18) INIT (0) UNAL,
      681      681    1         2 X930 CHAR (34) INIT('SWITCH-14') UNAL,
      682      682    1         2 * UBIN (18) INIT (0) UNAL,
      683      683    1         2 X931 CHAR (34) INIT('SWITCH-15') UNAL,
      684      684    1         2 * UBIN (18) INIT (0) UNAL,
      685      685    1         2 X932 CHAR (34) INIT('SWITCH-16') UNAL,
      686      686    1         2 * UBIN (18) INIT (0) UNAL,
      687      687    1         2 X933 CHAR (34) INIT('SWITCH-17') UNAL,
      688      688    1         2 * UBIN (18) INIT (0) UNAL,
      689      689    1         2 X934 CHAR (34) INIT('SWITCH-18') UNAL,
      690      690    1         2 * UBIN (18) INIT (0) UNAL,
      691      691    1         2 X935 CHAR (34) INIT('SWITCH-19') UNAL,
      692      692    1         2 * UBIN (18) INIT (0) UNAL,
      693      693    1         2 X936 CHAR (34) INIT('SWITCH-20') UNAL,
      694      694    1         2 * UBIN (18) INIT (0) UNAL,
      695      695    1         2 X937 CHAR (34) INIT('SWITCH-21') UNAL,
      696      696    1         2 * UBIN (18) INIT (0) UNAL,
      697      697    1         2 X938 CHAR (34) INIT('SWITCH-22') UNAL,
      698      698    1         2 * UBIN (18) INIT (0) UNAL,
      699      699    1         2 X939 CHAR (34) INIT('SWITCH-23') UNAL,
      700      700    1         2 * UBIN (18) INIT (0) UNAL,
      701      701    1         2 X940 CHAR (34) INIT('SWITCH-24') UNAL,
      702      702    1         2 * UBIN (18) INIT (0) UNAL,
      703      703    1         2 X941 CHAR (34) INIT('SWITCH-25') UNAL,
PL6.E3A0      #001=ZIG$INIT_HAS File=ZIG$INIT_HAS.:ZIC0TSI                       FRI 09/05/97 12:05 Page:20
      704      704    1         2 * UBIN (18) INIT (0) UNAL,
      705      705    1         2 X942 CHAR (34) INIT('SWITCH-26') UNAL,
      706      706    1         2 * UBIN (18) INIT (0) UNAL,
      707      707    1         2 X943 CHAR (34) INIT('SWITCH-27') UNAL,
      708      708    1         2 * UBIN (18) INIT (0) UNAL,
      709      709    1         2 X944 CHAR (34) INIT('SWITCH-28') UNAL,
      710      710    1         2 * UBIN (18) INIT (0) UNAL,
      711      711    1         2 X945 CHAR (34) INIT('SWITCH-29') UNAL,
      712      712    1         2 * UBIN (18) INIT (0) UNAL,
      713      713    1         2 X946 CHAR (34) INIT('SWITCH-30') UNAL,
      714      714    1         2 * UBIN (18) INIT (0) UNAL,
      715      715    1         2 X947 CHAR (34) INIT('SWITCH-31') UNAL,
      716      716    1         2 * UBIN (18) INIT (0) UNAL,
      717      717    1         2 X948 CHAR (34) INIT('SWITCH-32') UNAL,
      718      718    1         2 * UBIN (18) INIT (0) UNAL,
      719      719    1         2 X949 CHAR (34) INIT('SWITCH-33') UNAL,
      720      720    1         2 * UBIN (18) INIT (0) UNAL,
      721      721    1         2 X950 CHAR (34) INIT('SWITCH-34') UNAL,
      722      722    1         2 * UBIN (18) INIT (0) UNAL,
      723      723    1         2 X951 CHAR (34) INIT('SWITCH-35') UNAL,
      724      724    1         2 * UBIN (18) INIT (0) UNAL,
      725      725    1         2 X952 CHAR (34) INIT('TERMINATE') UNAL,
      726      726    1         2 * UBIN (18) INIT (0) UNAL,
      727      727    1         2 X953 CHAR (34) INIT('TRANSFORM') UNAL,
      728      728    1         2 * UBIN (18) INIT (0) UNAL,
      729      729    1         2 X1001 CHAR (34) INIT('ALPHABETIC') UNAL,
      730      730    1         2 * UBIN (18) INIT (0) UNAL,
      731      731    1         2 X1002 CHAR (34) INIT('CHARACTERS') UNAL,
      732      732    1         2 * UBIN (18) INIT (0) UNAL,
      733      733    1         2 X1004 CHAR (34) INIT('DEBUG-ITEM') UNAL,
      734      734    1         2 * UBIN (18) INIT (0) UNAL,
      735      735    1         2 X1005 CHAR (34) INIT('DEBUG-LINE') UNAL,
      736      736    1         2 * UBIN (18) INIT (0) UNAL,
      737      737    1         2 X1006 CHAR (34) INIT('DEBUG-NAME') UNAL,
      738      738    1         2 * UBIN (18) INIT (0) UNAL,
      739      739    1         2 X1007 CHAR (34) INIT('DESCENDING') UNAL,
      740      740    1         2 * UBIN (18) INIT (0) UNAL,
PL6.E3A0      #001=ZIG$INIT_HAS File=ZIG$INIT_HAS.:ZIC0TSI                       FRI 09/05/97 12:05 Page:21
      741      741    1         2 X1008 CHAR (34) INIT('DISCONNECT') UNAL,
      742      742    1         2 * UBIN (18) INIT (0) UNAL,
      743      743    1         2 X1009 CHAR (34) INIT('DUPLICATES') UNAL,
      744      744    1         2 * UBIN (18) INIT (0) UNAL,
      745      745    1         2 X1010 CHAR (34) INIT('HIGH-VALUE') UNAL,
      746      746    1         2 * UBIN (18) INIT (0) UNAL,
      747      747    1         2 X1011 CHAR (34) INIT('INITIALIZE') UNAL,
      748      748    1         2 * UBIN (18) INIT (0) UNAL,
      749      749    1         2 X1012 CHAR (34) INIT('LOW-VALUES') UNAL,
      750      750    1         2 * UBIN (18) INIT (0) UNAL,
      751      751    1         2 X1013 CHAR (34) INIT('MEMBERSHIP') UNAL,
      752      752    1         2 * UBIN (18) INIT (0) UNAL,
      753      753    1         2 X1014 CHAR (34) INIT('PROCEDURES') UNAL,
      754      754    1         2 * UBIN (18) INIT (0) UNAL,
      755      755    1         2 X1015 CHAR (34) INIT('PROGRAM-ID') UNAL,
      756      756    1         2 * UBIN (18) INIT (0) UNAL,
      757      757    1         2 X1016 CHAR (34) INIT('REALM-NAME') UNAL,
      758      758    1         2 * UBIN (18) INIT (0) UNAL,
      759      759    1         2 X1017 CHAR (34) INIT('REFERENCES') UNAL,
      760      760    1         2 * UBIN (18) INIT (0) UNAL,
      761      761    1         2 X1018 CHAR (34) INIT('SEQUENTIAL') UNAL,
      762      762    1         2 * UBIN (18) INIT (0) UNAL,
      763      763    1         2 X1019 CHAR (34) INIT('SORT-MERGE') UNAL,
      764      764    1         2 * UBIN (18) INIT (0) UNAL,
      765      765    1         2 X1020 CHAR (34) INIT('STANDARD-1') UNAL,
      766      766    1         2 * UBIN (18) INIT (0) UNAL,
      767      767    1         2 X1021 CHAR (34) INIT('SUB-SCHEMA') UNAL,
      768      768    1         2 * UBIN (18) INIT (0) UNAL,
      769      769    1         2 X1022 CHAR (34) INIT('USAGE-MODE') UNAL,
      770      770    1         2 * UBIN (18) INIT (0) UNAL,
      771      771    1         2 X1101 CHAR (34) INIT('CLOCK-UNITS') UNAL,
      772      772    1         2 * UBIN (18) INIT (0) UNAL,
      773      773    1         2 X1102 CHAR (34) INIT('DB-SET-NAME') UNAL,
      774      774    1         2 * UBIN (18) INIT (0) UNAL,
      775      775    1         2 X1102A CHAR (34) INIT('DB-KEY-NAME') UNAL,
      776      776    1         2 * UBIN (18) INIT (0) UNAL,
      777      777    1         2 X1103 CHAR (34) INIT('DEBUG-SUB-1') UNAL,
PL6.E3A0      #001=ZIG$INIT_HAS File=ZIG$INIT_HAS.:ZIC0TSI                       FRI 09/05/97 12:05 Page:22
      778      778    1         2 * UBIN (18) INIT (0) UNAL,
      779      779    1         2 X1104 CHAR (34) INIT('DEBUG-SUB-2') UNAL,
      780      780    1         2 * UBIN (18) INIT (0) UNAL,
      781      781    1         2 X1105 CHAR (34) INIT('DEBUG-SUB-3') UNAL,
      782      782    1         2 * UBIN (18) INIT (0) UNAL,
      783      783    1         2 X1106 CHAR (34) INIT('DESTINATION') UNAL,
      784      784    1         2 * UBIN (18) INIT (0) UNAL,
      785      785    1         2 X1107 CHAR (34) INIT('END-OF-PAGE') UNAL,
      786      786    1         2 * UBIN (18) INIT (0) UNAL,
      787      787    1         2 X1108 CHAR (34) INIT('ENVIRONMENT') UNAL,
      788      788    1         2 * UBIN (18) INIT (0) UNAL,
      789      789    1         2 X1109 CHAR (34) INIT('HIGH-VALUES') UNAL,
      790      790    1         2 * UBIN (18) INIT (0) UNAL,
      791      791    1         2 X1110 CHAR (34) INIT('INTERCHANGE') UNAL,
      792      792    1         2 * UBIN (18) INIT (0) UNAL,
      793      793    1         2 X1111 CHAR (34) INIT('I-O-CONTROL') UNAL,
      794      794    1         2 * UBIN (18) INIT (0) UNAL,
      795      795    1         2 X1113 CHAR (34) INIT('RECORD-NAME') UNAL,
      796      796    1         2 * UBIN (18) INIT (0) UNAL,
      797      797    1         2 X1114 CHAR (34) INIT('SUB-QUEUE-1') UNAL,
      798      798    1         2 * UBIN (18) INIT (0) UNAL,
      799      799    1         2 X1115 CHAR (34) INIT('SUB-QUEUE-2') UNAL,
      800      800    1         2 * UBIN (18) INIT (0) UNAL,
      801      801    1         2 X1116 CHAR (34) INIT('SUB-QUEUE-3') UNAL,
      802      802    1         2 * UBIN (18) INIT (0) UNAL,
      803      803    1         2 X1201 CHAR (34) INIT('ALPHANUMERIC') UNAL,
      804      804    1         2 * UBIN (18) INIT (0) UNAL,
      805      805    1         2 X1202 CHAR (34) INIT('DATE-WRITTEN') UNAL,
      806      806    1         2 * UBIN (18) INIT (0) UNAL,
      807      807    1         2 X1203A CHAR (34) INIT('DB-DATA-NAME') UNAL,
      808      808    1         2 * UBIN (18) INIT (0) UNAL,
      809      809    1         2 X1203 CHAR (34) INIT('DB-EXCEPTION') UNAL,
      810      810    1         2 * UBIN (18) INIT (0) UNAL,
      811      811    1         2 X1204 CHAR (34) INIT('DECLARATIVES') UNAL,
      812      812    1         2 * UBIN (18) INIT (0) UNAL,
      813      813    1         2 X1205 CHAR (34) INIT('FILE-CONTROL') UNAL,
      814      814    1         2 * UBIN (18) INIT (0) UNAL,
PL6.E3A0      #001=ZIG$INIT_HAS File=ZIG$INIT_HAS.:ZIC0TSI                       FRI 09/05/97 12:05 Page:23
      815      815    1         2 X1206 CHAR (34) INIT('INPUT-OUTPUT') UNAL,
      816      816    1         2 * UBIN (18) INIT (0) UNAL,
      817      817    1         2 X1207 CHAR (34) INIT('INSTALLATION') UNAL,
      818      818    1         2 * UBIN (18) INIT (0) UNAL,
      819      819    1         2 X1208 CHAR (34) INIT('LINE-COUNTER') UNAL,
      820      820    1         2 * UBIN (18) INIT (0) UNAL,
      821      821    1         2 X1209 CHAR (34) INIT('ORGANIZATION') UNAL,
      822      822    1         2 * UBIN (18) INIT (0) UNAL,
      823      823    1         2 X1210 CHAR (34) INIT('PAGE-COUNTER') UNAL,
      824      824    1         2 * UBIN (18) INIT (0) UNAL,
      825      825    1         2 X1211 CHAR (34) INIT('SUBSTITUTION') UNAL,
      826      826    1         2 * UBIN (18) INIT (0) UNAL,
      827      827    1         2 X1212 CHAR (34) INIT('SYNCHRONIZED') UNAL,
      828      828    1         2 * UBIN (18) INIT (0) UNAL,
      829      829    1         2 X1301 CHAR (34) INIT('COMMUNICATION') UNAL,
      830      830    1         2 * UBIN (18) INIT (0) UNAL,
      831      831    1         2 X1302 CHAR (34) INIT('COMPUTATIONAL') UNAL,
      832      832    1         2 * UBIN (18) INIT (0) UNAL,
      833      833    1         2 X1303 CHAR (34) INIT('CONFIGURATION') UNAL,
      834      834    1         2 * UBIN (18) INIT (0) UNAL,
      835      835    1         2 X1304 CHAR (34) INIT('CORRESPONDING') UNAL,
      836      836    1         2 * UBIN (18) INIT (0) UNAL,
      837      837    1         2 X1305 CHAR (34) INIT('DATE-COMPILED') UNAL,
      838      838    1         2 * UBIN (18) INIT (0) UNAL,
      839      839    1         2 X1306 CHAR (34) INIT('DB-REALM-NAME') UNAL,
      840      840    1         2 * UBIN (18) INIT (0) UNAL,
      841      841    1         2 X1307 CHAR (34) INIT('DECIMAL-POINT') UNAL,
      842      842    1         2 * UBIN (18) INIT (0) UNAL,
      843      843    1         2 X1308 CHAR (34) INIT('HIS-SERIES-60') UNAL,
      844      844    1         2 * UBIN (18) INIT (0) UNAL,
      845      845    1         2 X1309 CHAR (34) INIT('SEGMENT-LIMIT') UNAL,
      846      846    1         2 * UBIN (18) INIT (0) UNAL,
      847      847    1         2 X1310 CHAR (34) INIT('SPECIAL-NAMES') UNAL,
      848      848    1         2 * UBIN (18) INIT (0) UNAL,
      849      849    1         2 X1401 CHAR (34) INIT('DB-PRIVACY-KEY') UNAL,
      850      850    1         2 * UBIN (18) INIT (0) UNAL,
      851      851    1         2 X1402 CHAR (34) INIT('DB-RECORD-NAME') UNAL,
PL6.E3A0      #001=ZIG$INIT_HAS File=ZIG$INIT_HAS.:ZIC0TSI                       FRI 09/05/97 12:05 Page:24
      852      852    1         2 * UBIN (18) INIT (0) UNAL,
      853      853    1         2 X1403 CHAR (34) INIT('DEBUG-CONTENTS') UNAL,
      854      854    1         2 * UBIN (18) INIT (0) UNAL,
      855      855    1         2 X1404 CHAR (34) INIT('IDENTIFICATION') UNAL,
      856      856    1         2 * UBIN (18) INIT (0) UNAL,
      857      857    1         2 X1405 CHAR (34) INIT('LEVEL-66-ASCII') UNAL,
      858      858    1         2 * UBIN (18) INIT (0) UNAL,
      859      859    1         2 X1406 CHAR (34) INIT('LEVEL-68-ASCII') UNAL,
      860      860    1         2 * UBIN (18) INIT (0) UNAL,
      861      861    1         2 X1407 CHAR (34) INIT('LINAGE-COUNTER') UNAL,
      862      862    1         2 * UBIN (18) INIT (0) UNAL,
      863      863    1         2 X1408 CHAR (34) INIT('NUMERIC-EDITED') UNAL,
      864      864    1         2 * UBIN (18) INIT (0) UNAL,
      865      865    1         2 X1501 CHAR (34) INIT('CHECKPOINT-FILE') UNAL,
      866      866    1         2 * UBIN (18) INIT (0) UNAL,
      867      867    1         2 X1502 CHAR (34) INIT('COMPUTATIONAL-1') UNAL,
      868      868    1         2 * UBIN (18) INIT (0) UNAL,
      869      869    1         2 X1503 CHAR (34) INIT('COMPUTATIONAL-2') UNAL,
      870      870    1         2 * UBIN (18) INIT (0) UNAL,
      871      871    1         2 X1504 CHAR (34) INIT('COMPUTATIONAL-3') UNAL,
      872      872    1         2 * UBIN (18) INIT (0) UNAL,
      873      873    1         2 X1505 CHAR (34) INIT('COMPUTATIONAL-4') UNAL,
      874      874    1         2 * UBIN (18) INIT (0) UNAL,
      875      875    1         2 X1506 CHAR (34) INIT('COMPUTATIONAL-5') UNAL,
      876      876    1         2 * UBIN (18) INIT (0) UNAL,
      877      877    1         2 X1507 CHAR (34) INIT('COMPUTATIONAL-6') UNAL,
      878      878    1         2 * UBIN (18) INIT (0) UNAL,
      879      879    1         2 X1508 CHAR (34) INIT('LEVEL-66-EBCDIC') UNAL,
      880      880    1         2 * UBIN (18) INIT (0) UNAL,
      881      881    1         2 X1509 CHAR (34) INIT('OBJECT-COMPUTER') UNAL,
      882      882    1         2 * UBIN (18) INIT (0) UNAL,
      883      883    1         2 X1510 CHAR (34) INIT('SOURCE-COMPUTER') UNAL,
      884      884    1         2 * UBIN (18) INIT (0) UNAL,
      885      885    1         2 X1511 CHAR (34) INIT('WORKING-STORAGE') UNAL,
      886      886    1         2 * UBIN (18) INIT (0) UNAL,
      887      887    1         2 X1601 CHAR (34) INIT('DIRECT-REFERENCE') UNAL,
      888      888    1         2 * UBIN (18) INIT (0) UNAL,
PL6.E3A0      #001=ZIG$INIT_HAS File=ZIG$INIT_HAS.:ZIC0TSI                       FRI 09/05/97 12:05 Page:25
      889      889    1         2 X1901 CHAR (34) INIT('ALPHANUMERIC-EDITED') UNAL;
      890      890    1   DCL RETURN_PTR$ PTR;
      891      891    1   DCL TPTR$ PTR STATIC INIT (ADDR(COBOL_RES_WORDS));
      892      892    1   DCL 1 COB_RES_ARRAY (0:427) BASED (TPTR$),
      893      893    1         2 TYPE UBIN (6) UNAL,
      894      894    1         2 DUPS UBIN (12) UNAL,
      895      895    1         2 C_NAME CHAR (30) UNAL,
      896      896    1         2 PTR$ PTR UNAL;
      897      897        /*D*     NAME:     APL_FORT_RES_WORDS
      898      898
      899      899                   This variable contains all the IDS reswords for
      900      900                 APL  BASIC and FORTRAN.
      901      901
      902      902        */
      903      903    1   DCL 1 APL_FORT_RES_WORDS EXT ,
      904      904    1         2 * UBIN (18) INIT (0) UNAL,
      905      905    1         2 X1 CHAR (34) INIT ('FIRST') UNAL,
      906      906    1         2 * UBIN (18) INIT (0) UNAL,
      907      907    1         2 X2 CHAR (34) INIT ('LAST') UNAL,
      908      908    1         2 * UBIN (18) INIT (0) UNAL,
      909      909    1         2 X3 CHAR (34) INIT ('NEXT') UNAL,
      910      910    1         2 * UBIN (18) INIT (0) UNAL,
      911      911    1         2 X4 CHAR (34) INIT ('PRIOR') UNAL,
      912      912    1         2 * UBIN (18) INIT (0) UNAL,
      913      913    1         2 X5 CHAR (34) INIT ('STATUS') UNAL,
      914      914    1         2 * UBIN (18) INIT (0) UNAL,
      915      915    1         2 X6 CHAR (34) INIT ('AREA') UNAL,
      916      916    1         2 * UBIN (18) INIT (0) UNAL,
      917      917    1         2 X7 CHAR (34) INIT ('SET') UNAL,
      918      918    1         2 * UBIN (18) INIT (0) UNAL,
      919      919    1         2 X8 CHAR (34) INIT ('RECORD') UNAL,
      920      920    1         2 * UBIN (18) INIT (0) UNAL,
      921      921    1         2 X9 CHAR (34) INIT ('PRIVACY') UNAL,
      922      922    1         2 * UBIN (18) INIT (0) UNAL,
      923      923    1         2 X10 CHAR (34) INIT ('DIRECT-REFERENCE') UNAL,
      924      924    1         2 * UBIN (18) INIT (0) UNAL,
      925      925    1         2 X11 CHAR (34) INIT ('DATANAME') UNAL,
PL6.E3A0      #001=ZIG$INIT_HAS File=ZIG$INIT_HAS.:ZIC0TSI                       FRI 09/05/97 12:05 Page:26
      926      926    1         2 * UBIN (18) INIT (0) UNAL,
      927      927    1         2 X12 CHAR (34) INIT ('KEYNAME') UNAL,
      928      928    1         2 * UBIN (18) INIT (0) UNAL,
      929      929    1         2 X13 CHAR (34) INIT ('AREANAME') UNAL,
      930      930    1         2 * UBIN (18) INIT (0) UNAL,
      931      931    1         2 X14 CHAR (34) INIT ('CURRENT') UNAL,
      932      932    1         2 * UBIN (18) INIT (0) UNAL,
      933      933    1         2 X15 CHAR (34) INIT ('CURRENCY') UNAL,
      934      934    1         2 * UBIN (18) INIT (0) UNAL,
      935      935    1         2 X16 CHAR (34) INIT ('OWNER') UNAL,
      936      936    1         2 * UBIN (18) INIT (0) UNAL,
      937      937    1         2 X17 CHAR (34) INIT ('ALL') UNAL,
      938      938    1         2 * UBIN (18) INIT (0) UNAL,
      939      939    1         2 X18 CHAR (34) INIT ('DBKEY') UNAL,
      940      940    1         2 * UBIN (18) INIT (0) UNAL,
      941      941    1         2 X19 CHAR (34) INIT ('ANY') UNAL,
      942      942    1         2 * UBIN (18) INIT (0) UNAL,
      943      943    1         2 X20 CHAR (34) INIT ('DUPANY') UNAL,
      944      944    1         2 * UBIN (18) INIT (0) UNAL,
      945      945    1         2 X21 CHAR (34) INIT ('DUPSET') UNAL,
      946      946    1         2 * UBIN (18) INIT (0) UNAL,
      947      947    1         2 X22 CHAR (34) INIT ('ONLY') UNAL,
      948      948    1         2 * UBIN (18) INIT (0) UNAL,
      949      949    1         2 X23 CHAR (34) INIT ('INCLUDING') UNAL,
      950      950    1         2 * UBIN (18) INIT (0) UNAL,
      951      951    1         2 X24 CHAR (34) INIT ('UPDATE') UNAL,
      952      952    1         2 * UBIN (18) INIT (0) UNAL,
      953      953    1         2 X25 CHAR (34) INIT ('RETRIEVAL') UNAL,
      954      954    1         2 * UBIN (18) INIT (0) UNAL,
      955      955    1         2 X26 CHAR (34) INIT ('LOAD') UNAL,
      956      956    1         2 * UBIN (18) INIT (0) UNAL,
      957      957    1         2 X27 CHAR (34) INIT ('SHARE') UNAL,
      958      958    1         2 * UBIN (18) INIT (0) UNAL,
      959      959    1         2 X28 CHAR (34) INIT ('SHAREIN') UNAL,
      960      960    1         2 * UBIN (18) INIT (0) UNAL,
      961      961    1         2 X29 CHAR (34) INIT ('NOSHARE') UNAL,
      962      962    1         2 * UBIN (18) INIT (0) UNAL,
PL6.E3A0      #001=ZIG$INIT_HAS File=ZIG$INIT_HAS.:ZIC0TSI                       FRI 09/05/97 12:05 Page:27
      963      963    1         2 X30 CHAR (34) INIT ('AREA') UNAL,
      964      964    1         2 * UBIN (18) INIT (0) UNAL,
      965      965    1         2 X31 CHAR (34) INIT ('SETS') UNAL,
      966      966    1         2 * UBIN (18) INIT (0) UNAL,
      967      967    1         2 X32 CHAR (34) INIT ('MEMBER') UNAL,
      968      968    1         2 * UBIN (18) INIT (0) UNAL,
      969      969    1         2 X33 CHAR (34) INIT ('TENANT') UNAL,
      970      970    1         2 * UBIN (18) INIT (0) UNAL,
      971      971    1         2 X34 CHAR (34) INIT ('NULL') UNAL,
      972      972    1         2 * UBIN (18) INIT (0) UNAL,
      973      973    1         2 X35 CHAR (34) INIT ('CONNECT') UNAL,
      974      974    1         2 * UBIN (18) INIT (0) UNAL,
      975      975    1         2 X36 CHAR (34) INIT ('DISCONNECT') UNAL,
      976      976    1         2 * UBIN (18) INIT (0) UNAL,
      977      977    1         2 X37 CHAR (34) INIT ('STORE') UNAL,
      978      978    1         2 * UBIN (18) INIT (0) UNAL,
      979      979    1         2 X38 CHAR (34) INIT ('ERASE') UNAL,
      980      980    1         2 * UBIN (18) INIT (0) UNAL,
      981      981    1         2 X39 CHAR (34) INIT ('MODIFY') UNAL,
      982      982    1         2 * UBIN (18) INIT (0) UNAL,
      983      983    1         2 X40 CHAR (34) INIT ('FIND') UNAL,
      984      984    1         2 * UBIN (18) INIT (0) UNAL,
      985      985    1         2 X41 CHAR (34) INIT ('GET') UNAL,
      986      986    1         2 * UBIN (18) INIT (0) UNAL,
      987      987    1         2 X42 CHAR (34) INIT ('FLOAT') UNAL,
      988      988    1         2 * UBIN (18) INIT (0) UNAL,
      989      989    1         2 X43 CHAR (34) INIT ('DWORD') UNAL,
      990      990    1         2 * UBIN (18) INIT (0) UNAL,
      991      991    1         2 X44 CHAR (34) INIT ('INTEGER') UNAL,
      992      992    1         2 * UBIN (18) INIT (0) UNAL,
      993      993    1         2 X45 CHAR (34) INIT ('ALIAS') UNAL,
      994      994    1         2 * UBIN (18) INIT (0) UNAL,
      995      995    1         2 X46 CHAR (34) INIT ('CHARACTER') UNAL,
      996      996    1         2 * UBIN (18) INIT (0) UNAL,
      997      997    1         2 X47 CHAR (34) INIT ('OCCURS') UNAL,
      998      998    1         2 * UBIN (18) INIT (0) UNAL,
      999      999    1         2 X48 CHAR (34) INIT ('SUBSCHEMA') UNAL;
PL6.E3A0      #001=ZIG$INIT_HAS File=ZIG$INIT_HAS.:ZIC0TSI                       FRI 09/05/97 12:05 Page:28
     1000     1000    1   DCL A_F_PTR$ PTR STATIC INIT (ADDR(APL_FORT_RES_WORDS));
     1001     1001    1   DCL 1 APL_FORT_RES_ARRAY (0:47) BASED (A_F_PTR$),
     1002     1002    1         2 TYPE UBIN (6) UNAL,
     1003     1003    1         2 DUPS UBIN (12) UNAL,
     1004     1004    1         2 C_NAME CHAR (30) UNAL,
     1005     1005    1         2 PTR$ PTR UNAL;
     1006     1006        /*D*       NAME: BASIC_RES_WORDS
     1007     1007        To be used in junction with APL_FORT_RES_WORDS for BASIC  */
     1008     1008    1   DCL 1 BASIC_RES_WORDS EXT UNAL,
     1009     1009    1         2 * UBIN (18) INIT (0) UNAL,
     1010     1010    1         2 X101 CHAR (34) INIT('ABS') UNAL,
     1011     1011    1         2 * UBIN (18) INIT (0) UNAL,
     1012     1012    1         2 X102 CHAR (34) INIT('ACOS') UNAL,
     1013     1013    1         2 * UBIN (18) INIT (0) UNAL,
     1014     1014    1         2 X103 CHAR (34) INIT('ACS') UNAL,
     1015     1015    1         2 * UBIN (18) INIT (0) UNAL,
     1016     1016    1         2 X105 CHAR (34) INIT('AND') UNAL,
     1017     1017    1         2 * UBIN (18) INIT (0) UNAL,
     1018     1018    1         2 X106 CHAR (34) INIT('ARRAYS') UNAL,
     1019     1019    1         2 * UBIN (18) INIT (0) UNAL,
     1020     1020    1         2 X107 CHAR (34) INIT('ASC') UNAL,
     1021     1021    1         2 * UBIN (18) INIT (0) UNAL,
     1022     1022    1         2 X108 CHAR (34) INIT('ASIN') UNAL,
     1023     1023    1         2 * UBIN (18) INIT (0) UNAL,
     1024     1024    1         2 X109 CHAR (34) INIT('ASN') UNAL,
     1025     1025    1         2 * UBIN (18) INIT (0) UNAL,
     1026     1026    1         2 X110 CHAR (34) INIT('ATN') UNAL,
     1027     1027    1         2 * UBIN (18) INIT (0) UNAL,
     1028     1028    1         2 X111 CHAR (34) INIT('BASE') UNAL,
     1029     1029    1         2 * UBIN (18) INIT (0) UNAL,
     1030     1030    1         2 X112 CHAR (34) INIT('BCL') UNAL,
     1031     1031    1         2 * UBIN (18) INIT (0) UNAL,
     1032     1032    1         2 X113 CHAR (34) INIT('BIT') UNAL,
     1033     1033    1         2 * UBIN (18) INIT (0) UNAL,
     1034     1034    1         2 X114 CHAR (34) INIT('BREAK') UNAL,
     1035     1035    1         2 * UBIN (18) INIT (0) UNAL,
     1036     1036    1         2 X115 CHAR (34) INIT('CHAIN') UNAL,
PL6.E3A0      #001=ZIG$INIT_HAS File=ZIG$INIT_HAS.:ZIC0TSI                       FRI 09/05/97 12:05 Page:29
     1037     1037    1         2 * UBIN (18) INIT (0) UNAL,
     1038     1038    1         2 X116 CHAR (34) INIT('CHANGE') UNAL,
     1039     1039    1         2 * UBIN (18) INIT (0) UNAL,
     1040     1040    1         2 X117 CHAR (34) INIT('CHR$') UNAL,
     1041     1041    1         2 * UBIN (18) INIT (0) UNAL,
     1042     1042    1         2 X118 CHAR (34) INIT('CLEAR') UNAL,
     1043     1043    1         2 * UBIN (18) INIT (0) UNAL,
     1044     1044    1         2 X119 CHAR (34) INIT('CLK') UNAL,
     1045     1045    1         2 * UBIN (18) INIT (0) UNAL,
     1046     1046    1         2 X120 CHAR (34) INIT('CLOSE') UNAL,
     1047     1047    1         2 * UBIN (18) INIT (0) UNAL,
     1048     1048    1         2 X121 CHAR (34) INIT('CMP') UNAL,
     1049     1049    1         2 * UBIN (18) INIT (0) UNAL,
     1050     1050    1         2 X122 CHAR (34) INIT('CON') UNAL,
     1051     1051    1         2 * UBIN (18) INIT (0) UNAL,
     1052     1052    1         2 X123 CHAR (34) INIT('CONSEC') UNAL,
     1053     1053    1         2 * UBIN (18) INIT (0) UNAL,
     1054     1054    1         2 X124 CHAR (34) INIT('COS') UNAL,
     1055     1055    1         2 * UBIN (18) INIT (0) UNAL,
     1056     1056    1         2 X125 CHAR (34) INIT('COSH') UNAL,
     1057     1057    1         2 * UBIN (18) INIT (0) UNAL,
     1058     1058    1         2 X126 CHAR (34) INIT('COT') UNAL,
     1059     1059    1         2 * UBIN (18) INIT (0) UNAL,
     1060     1060    1         2 X127 CHAR (34) INIT('CPU') UNAL,
     1061     1061    1         2 * UBIN (18) INIT (0) UNAL,
     1062     1062    1         2 X128 CHAR (34) INIT('CSC') UNAL,
     1063     1063    1         2 * UBIN (18) INIT (0) UNAL,
     1064     1064    1         2 X129 CHAR (34) INIT('DAT$') UNAL,
     1065     1065    1         2 * UBIN (18) INIT (0) UNAL,
     1066     1066    1         2 X130 CHAR (34) INIT('DATA') UNAL,
     1067     1067    1         2 * UBIN (18) INIT (0) UNAL,
     1068     1068    1         2 X131 CHAR (34) INIT('DEF') UNAL,
     1069     1069    1         2 * UBIN (18) INIT (0) UNAL,
     1070     1070    1         2 X132 CHAR (34) INIT('DEG') UNAL,
     1071     1071    1         2 * UBIN (18) INIT (0) UNAL,
     1072     1072    1         2 X133 CHAR (34) INIT('DELIMIT') UNAL,
     1073     1073    1         2 * UBIN (18) INIT (0) UNAL,
PL6.E3A0      #001=ZIG$INIT_HAS File=ZIG$INIT_HAS.:ZIC0TSI                       FRI 09/05/97 12:05 Page:30
     1074     1074    1         2 X134 CHAR (34) INIT('DELREC') UNAL,
     1075     1075    1         2 * UBIN (18) INIT (0) UNAL,
     1076     1076    1         2 X135 CHAR (34) INIT('DEQ') UNAL,
     1077     1077    1         2 * UBIN (18) INIT (0) UNAL,
     1078     1078    1         2 X136 CHAR (34) INIT('DET') UNAL,
     1079     1079    1         2 * UBIN (18) INIT (0) UNAL,
     1080     1080    1         2 X137 CHAR (34) INIT('DIG') UNAL,
     1081     1081    1         2 * UBIN (18) INIT (0) UNAL,
     1082     1082    1         2 X138 CHAR (34) INIT('DIGITS') UNAL,
     1083     1083    1         2 * UBIN (18) INIT (0) UNAL,
     1084     1084    1         2 X139 CHAR (34) INIT('DIM') UNAL,
     1085     1085    1         2 * UBIN (18) INIT (0) UNAL,
     1086     1086    1         2 X140 CHAR (34) INIT('DO') UNAL,
     1087     1087    1         2 * UBIN (18) INIT (0) UNAL,
     1088     1088    1         2 X141 CHAR (34) INIT('ENDIF') UNAL,
     1089     1089    1         2 * UBIN (18) INIT (0) UNAL,
     1090     1090    1         2 X142 CHAR (34) INIT('ENQE') UNAL,
     1091     1091    1         2 * UBIN (18) INIT (0) UNAL,
     1092     1092    1         2 X143 CHAR (34) INIT('ENQS') UNAL,
     1093     1093    1         2 * UBIN (18) INIT (0) UNAL,
     1094     1094    1         2 X144 CHAR (34) INIT('EOF') UNAL,
     1095     1095    1         2 * UBIN (18) INIT (0) UNAL,
     1096     1096    1         2 X145 CHAR (34) INIT('ERL') UNAL,
     1097     1097    1         2 * UBIN (18) INIT (0) UNAL,
     1098     1098    1         2 X146 CHAR (34) INIT('ERN') UNAL,
     1099     1099    1         2 * UBIN (18) INIT (0) UNAL,
     1100     1100    1         2 X147 CHAR (34) INIT('ERROR') UNAL,
     1101     1101    1         2 * UBIN (18) INIT (0) UNAL,
     1102     1102    1         2 X148 CHAR (34) INIT('ERT') UNAL,
     1103     1103    1         2 * UBIN (18) INIT (0) UNAL,
     1104     1104    1         2 X149 CHAR (34) INIT('EXP') UNAL,
     1105     1105    1         2 * UBIN (18) INIT (0) UNAL,
     1106     1106    1         2 X150 CHAR (34) INIT('FNEND') UNAL,
     1107     1107    1         2 * UBIN (18) INIT (0) UNAL,
     1108     1108    1         2 X151 CHAR (34) INIT('FOR') UNAL,
     1109     1109    1         2 * UBIN (18) INIT (0) UNAL,
     1110     1110    1         2 X153 CHAR (34) INIT('GO') UNAL,
PL6.E3A0      #001=ZIG$INIT_HAS File=ZIG$INIT_HAS.:ZIC0TSI                       FRI 09/05/97 12:05 Page:31
     1111     1111    1         2 * UBIN (18) INIT (0) UNAL,
     1112     1112    1         2 X154 CHAR (34) INIT('GOSUB') UNAL,
     1113     1113    1         2 * UBIN (18) INIT (0) UNAL,
     1114     1114    1         2 X155 CHAR (34) INIT('GOTO') UNAL,
     1115     1115    1         2 * UBIN (18) INIT (0) UNAL,
     1116     1116    1         2 X156 CHAR (34) INIT('HCS') UNAL,
     1117     1117    1         2 * UBIN (18) INIT (0) UNAL,
     1118     1118    1         2 X157 CHAR (34) INIT('HSN') UNAL,
     1119     1119    1         2 * UBIN (18) INIT (0) UNAL,
     1120     1120    1         2 X158 CHAR (34) INIT('HTN') UNAL,
     1121     1121    1         2 * UBIN (18) INIT (0) UNAL,
     1122     1122    1         2 X159 CHAR (34) INIT('IBEX') UNAL,
     1123     1123    1         2 * UBIN (18) INIT (0) UNAL,
     1124     1124    1         2 X160 CHAR (34) INIT('IDA') UNAL,
     1125     1125    1         2 * UBIN (18) INIT (0) UNAL,
     1126     1126    1         2 X161 CHAR (34) INIT('IDN') UNAL,
     1127     1127    1         2 * UBIN (18) INIT (0) UNAL,
     1128     1128    1         2 X162 CHAR (34) INIT('IF') UNAL,
     1129     1129    1         2 * UBIN (18) INIT (0) UNAL,
     1130     1130    1         2 X163 CHAR (34) INIT('INPUT') UNAL,
     1131     1131    1         2 * UBIN (18) INIT (0) UNAL,
     1132     1132    1         2 X164 CHAR (34) INIT('INT') UNAL,
     1133     1133    1         2 * UBIN (18) INIT (0) UNAL,
     1134     1134    1         2 X165 CHAR (34) INIT('INV') UNAL,
     1135     1135    1         2 * UBIN (18) INIT (0) UNAL,
     1136     1136    1         2 X166 CHAR (34) INIT('KEY') UNAL,
     1137     1137    1         2 * UBIN (18) INIT (0) UNAL,
     1138     1138    1         2 X167 CHAR (34) INIT('KEY$') UNAL,
     1139     1139    1         2 * UBIN (18) INIT (0) UNAL,
     1140     1140    1         2 X168 CHAR (34) INIT('KYF') UNAL,
     1141     1141    1         2 * UBIN (18) INIT (0) UNAL,
     1142     1142    1         2 X169 CHAR (34) INIT('KYF$') UNAL,
     1143     1143    1         2 * UBIN (18) INIT (0) UNAL,
     1144     1144    1         2 X170 CHAR (34) INIT('KYL') UNAL,
     1145     1145    1         2 * UBIN (18) INIT (0) UNAL,
     1146     1146    1         2 X171 CHAR (34) INIT('KYL$') UNAL,
     1147     1147    1         2 * UBIN (18) INIT (0) UNAL,
PL6.E3A0      #001=ZIG$INIT_HAS File=ZIG$INIT_HAS.:ZIC0TSI                       FRI 09/05/97 12:05 Page:32
     1148     1148    1         2 X172 CHAR (34) INIT('LBE') UNAL,
     1149     1149    1         2 * UBIN (18) INIT (0) UNAL,
     1150     1150    1         2 X173 CHAR (34) INIT('LEN') UNAL,
     1151     1151    1         2 * UBIN (18) INIT (0) UNAL,
     1152     1152    1         2 X174 CHAR (34) INIT('LET') UNAL,
     1153     1153    1         2 * UBIN (18) INIT (0) UNAL,
     1154     1154    1         2 X175 CHAR (34) INIT('LGT') UNAL,
     1155     1155    1         2 * UBIN (18) INIT (0) UNAL,
     1156     1156    1         2 X176 CHAR (34) INIT('LIBERR') UNAL,
     1157     1157    1         2 * UBIN (18) INIT (0) UNAL,
     1158     1158    1         2 X177 CHAR (34) INIT('LINK') UNAL,
     1159     1159    1         2 * UBIN (18) INIT (0) UNAL,
     1160     1160    1         2 X178 CHAR (34) INIT('LINPUT') UNAL,
     1161     1161    1         2 * UBIN (18) INIT (0) UNAL,
     1162     1162    1         2 X179 CHAR (34) INIT('LOC$') UNAL,
     1163     1163    1         2 * UBIN (18) INIT (0) UNAL,
     1164     1164    1         2 X180 CHAR (34) INIT('LOG') UNAL,
     1165     1165    1         2 * UBIN (18) INIT (0) UNAL,
     1166     1166    1         2 X181 CHAR (34) INIT('LOG2') UNAL,
     1167     1167    1         2 * UBIN (18) INIT (0) UNAL,
     1168     1168    1         2 X182 CHAR (34) INIT('LOG10') UNAL,
     1169     1169    1         2 * UBIN (18) INIT (0) UNAL,
     1170     1170    1         2 X183 CHAR (34) INIT('LTW') UNAL,
     1171     1171    1         2 * UBIN (18) INIT (0) UNAL,
     1172     1172    1         2 X184 CHAR (34) INIT('LWRC$') UNAL,
     1173     1173    1         2 * UBIN (18) INIT (0) UNAL,
     1174     1174    1         2 X185 CHAR (34) INIT('MAR') UNAL,
     1175     1175    1         2 * UBIN (18) INIT (0) UNAL,
     1176     1176    1         2 X186 CHAR (34) INIT('MARGIN') UNAL,
     1177     1177    1         2 * UBIN (18) INIT (0) UNAL,
     1178     1178    1         2 X187 CHAR (34) INIT('MAT') UNAL,
     1179     1179    1         2 * UBIN (18) INIT (0) UNAL,
     1180     1180    1         2 X188 CHAR (34) INIT('MAX') UNAL,
     1181     1181    1         2 * UBIN (18) INIT (0) UNAL,
     1182     1182    1         2 X189 CHAR (34) INIT('MIN') UNAL,
     1183     1183    1         2 * UBIN (18) INIT (0) UNAL,
     1184     1184    1         2 X190 CHAR (34) INIT('MNE') UNAL,
PL6.E3A0      #001=ZIG$INIT_HAS File=ZIG$INIT_HAS.:ZIC0TSI                       FRI 09/05/97 12:05 Page:33
     1185     1185    1         2 * UBIN (18) INIT (0) UNAL,
     1186     1186    1         2 X191 CHAR (34) INIT('MOD') UNAL,
     1187     1187    1         2 * UBIN (18) INIT (0) UNAL,
     1188     1188    1         2 X192 CHAR (34) INIT('MONERR') UNAL,
     1189     1189    1         2 * UBIN (18) INIT (0) UNAL,
     1190     1190    1         2 X194 CHAR (34) INIT('NKEY') UNAL,
     1191     1191    1         2 * UBIN (18) INIT (0) UNAL,
     1192     1192    1         2 X195 CHAR (34) INIT('NOWARN') UNAL,
     1193     1193    1         2 * UBIN (18) INIT (0) UNAL,
     1194     1194    1         2 X196 CHAR (34) INIT('NUL') UNAL,
     1195     1195    1         2 * UBIN (18) INIT (0) UNAL,
     1196     1196    1         2 X197 CHAR (34) INIT('NUM') UNAL,
     1197     1197    1         2 * UBIN (18) INIT (0) UNAL,
     1198     1198    1         2 X198 CHAR (34) INIT('NUMERIC') UNAL,
     1199     1199    1         2 * UBIN (18) INIT (0) UNAL,
     1200     1200    1         2 X199 CHAR (34) INIT('OFF') UNAL,
     1201     1201    1         2 * UBIN (18) INIT (0) UNAL,
     1202     1202    1         2 X225 CHAR (34) INIT('ON') UNAL,
     1203     1203    1         2 * UBIN (18) INIT (0) UNAL,
     1204     1204    1         2 X226 CHAR (34) INIT('OPEN') UNAL,
     1205     1205    1         2 * UBIN (18) INIT (0) UNAL,
     1206     1206    1         2 X227 CHAR (34) INIT('OPTION') UNAL,
     1207     1207    1         2 * UBIN (18) INIT (0) UNAL,
     1208     1208    1         2 X228 CHAR (34) INIT('OR') UNAL,
     1209     1209    1         2 * UBIN (18) INIT (0) UNAL,
     1210     1210    1         2 X229 CHAR (34) INIT('OVER') UNAL,
     1211     1211    1         2 * UBIN (18) INIT (0) UNAL,
     1212     1212    1         2 X230 CHAR (34) INIT('PAGE') UNAL,
     1213     1213    1         2 * UBIN (18) INIT (0) UNAL,
     1214     1214    1         2 X231 CHAR (34) INIT('PRECISION') UNAL,
     1215     1215    1         2 * UBIN (18) INIT (0) UNAL,
     1216     1216    1         2 X232 CHAR (34) INIT('PRINT') UNAL,
     1217     1217    1         2 * UBIN (18) INIT (0) UNAL,
     1218     1218    1         2 X233 CHAR (34) INIT('PROCEED') UNAL,
     1219     1219    1         2 * UBIN (18) INIT (0) UNAL,
     1220     1220    1         2 X234 CHAR (34) INIT('PROMPT') UNAL,
     1221     1221    1         2 * UBIN (18) INIT (0) UNAL,
PL6.E3A0      #001=ZIG$INIT_HAS File=ZIG$INIT_HAS.:ZIC0TSI                       FRI 09/05/97 12:05 Page:34
     1222     1222    1         2 X235 CHAR (34) INIT('PUT') UNAL,
     1223     1223    1         2 * UBIN (18) INIT (0) UNAL,
     1224     1224    1         2 X236 CHAR (34) INIT('RAD') UNAL,
     1225     1225    1         2 * UBIN (18) INIT (0) UNAL,
     1226     1226    1         2 X237 CHAR (34) INIT('RANDOMIZE') UNAL,
     1227     1227    1         2 * UBIN (18) INIT (0) UNAL,
     1228     1228    1         2 X238 CHAR (34) INIT('READ') UNAL,
     1229     1229    1         2 * UBIN (18) INIT (0) UNAL,
     1230     1230    1         2 X239 CHAR (34) INIT('REM') UNAL,
     1231     1231    1         2 * UBIN (18) INIT (0) UNAL,
     1232     1232    1         2 X240 CHAR (34) INIT('REP$') UNAL,
     1233     1233    1         2 * UBIN (18) INIT (0) UNAL,
     1234     1234    1         2 X241 CHAR (34) INIT('RESTORE') UNAL,
     1235     1235    1         2 * UBIN (18) INIT (0) UNAL,
     1236     1236    1         2 X242 CHAR (34) INIT('RETURN') UNAL,
     1237     1237    1         2 * UBIN (18) INIT (0) UNAL,
     1238     1238    1         2 X243 CHAR (34) INIT('RND') UNAL,
     1239     1239    1         2 * UBIN (18) INIT (0) UNAL,
     1240     1240    1         2 X244 CHAR (34) INIT('RNS') UNAL,
     1241     1241    1         2 * UBIN (18) INIT (0) UNAL,
     1242     1242    1         2 X245 CHAR (34) INIT('SCALARS') UNAL,
     1243     1243    1         2 * UBIN (18) INIT (0) UNAL,
     1244     1244    1         2 X246 CHAR (34) INIT('SCN') UNAL,
     1245     1245    1         2 * UBIN (18) INIT (0) UNAL,
     1246     1246    1         2 X247 CHAR (34) INIT('SEC') UNAL,
     1247     1247    1         2 * UBIN (18) INIT (0) UNAL,
     1248     1248    1         2 X248 CHAR (34) INIT('SGN') UNAL,
     1249     1249    1         2 * UBIN (18) INIT (0) UNAL,
     1250     1250    1         2 X250 CHAR (34) INIT('SIM') UNAL,
     1251     1251    1         2 * UBIN (18) INIT (0) UNAL,
     1252     1252    1         2 X251 CHAR (34) INIT('SIN') UNAL,
     1253     1253    1         2 * UBIN (18) INIT (0) UNAL,
     1254     1254    1         2 X252 CHAR (34) INIT('SINGLE') UNAL,
     1255     1255    1         2 * UBIN (18) INIT (0) UNAL,
     1256     1256    1         2 X253 CHAR (34) INIT('SINH') UNAL,
     1257     1257    1         2 * UBIN (18) INIT (0) UNAL,
     1258     1258    1         2 X254 CHAR (34) INIT('SKEY') UNAL,
PL6.E3A0      #001=ZIG$INIT_HAS File=ZIG$INIT_HAS.:ZIC0TSI                       FRI 09/05/97 12:05 Page:35
     1259     1259    1         2 * UBIN (18) INIT (0) UNAL,
     1260     1260    1         2 X255 CHAR (34) INIT('SPC') UNAL,
     1261     1261    1         2 * UBIN (18) INIT (0) UNAL,
     1262     1262    1         2 X256 CHAR (34) INIT('SQR') UNAL,
     1263     1263    1         2 * UBIN (18) INIT (0) UNAL,
     1264     1264    1         2 X257 CHAR (34) INIT('SST$') UNAL,
     1265     1265    1         2 * UBIN (18) INIT (0) UNAL,
     1266     1266    1         2 X258 CHAR (34) INIT('STEP') UNAL,
     1267     1267    1         2 * UBIN (18) INIT (0) UNAL,
     1268     1268    1         2 X259 CHAR (34) INIT('STOP') UNAL,
     1269     1269    1         2 * UBIN (18) INIT (0) UNAL,
     1270     1270    1         2 X260 CHAR (34) INIT('STR$') UNAL,
     1271     1271    1         2 * UBIN (18) INIT (0) UNAL,
     1272     1272    1         2 X261 CHAR (34) INIT('STRING') UNAL,
     1273     1273    1         2 * UBIN (18) INIT (0) UNAL,
     1274     1274    1         2 X262 CHAR (34) INIT('SUB') UNAL,
     1275     1275    1         2 * UBIN (18) INIT (0) UNAL,
     1276     1276    1         2 X263 CHAR (34) INIT('TAB') UNAL,
     1277     1277    1         2 * UBIN (18) INIT (0) UNAL,
     1278     1278    1         2 X264 CHAR (34) INIT('TAN') UNAL,
     1279     1279    1         2 * UBIN (18) INIT (0) UNAL,
     1280     1280    1         2 X265 CHAR (34) INIT('TANH') UNAL,
     1281     1281    1         2 * UBIN (18) INIT (0) UNAL,
     1282     1282    1         2 X266 CHAR (34) INIT('THEN') UNAL,
     1283     1283    1         2 * UBIN (18) INIT (0) UNAL,
     1284     1284    1         2 X267 CHAR (34) INIT('TIM') UNAL,
     1285     1285    1         2 * UBIN (18) INIT (0) UNAL,
     1286     1286    1         2 X268 CHAR (34) INIT('TO') UNAL,
     1287     1287    1         2 * UBIN (18) INIT (0) UNAL,
     1288     1288    1         2 X269 CHAR (34) INIT('TRACE') UNAL,
     1289     1289    1         2 * UBIN (18) INIT (0) UNAL,
     1290     1290    1         2 X270 CHAR (34) INIT('TRN') UNAL,
     1291     1291    1         2 * UBIN (18) INIT (0) UNAL,
     1292     1292    1         2 X271 CHAR (34) INIT('UNTIL') UNAL,
     1293     1293    1         2 * UBIN (18) INIT (0) UNAL,
     1294     1294    1         2 X272 CHAR (34) INIT('UPC$') UNAL,
     1295     1295    1         2 * UBIN (18) INIT (0) UNAL,
PL6.E3A0      #001=ZIG$INIT_HAS File=ZIG$INIT_HAS.:ZIC0TSI                       FRI 09/05/97 12:05 Page:36
     1296     1296    1         2 X274 CHAR (34) INIT('UPRC$') UNAL,
     1297     1297    1         2 * UBIN (18) INIT (0) UNAL,
     1298     1298    1         2 X275 CHAR (34) INIT('USING') UNAL,
     1299     1299    1         2 * UBIN (18) INIT (0) UNAL,
     1300     1300    1         2 X276 CHAR (34) INIT('USR$') UNAL,
     1301     1301    1         2 * UBIN (18) INIT (0) UNAL,
     1302     1302    1         2 X277 CHAR (34) INIT('VAL') UNAL,
     1303     1303    1         2 * UBIN (18) INIT (0) UNAL,
     1304     1304    1         2 X278 CHAR (34) INIT('WARN') UNAL,
     1305     1305    1         2 * UBIN (18) INIT (0) UNAL,
     1306     1306    1         2 X279 CHAR (34) INIT('WHEN') UNAL,
     1307     1307    1         2 * UBIN (18) INIT (0) UNAL,
     1308     1308    1         2 X280 CHAR (34) INIT('WHILE') UNAL,
     1309     1309    1         2 * UBIN (18) INIT (0) UNAL,
     1310     1310    1         2 X281 CHAR (34) INIT('ZER') UNAL;
     1311     1311    1   DCL BPTR$ PTR STATIC INIT (ADDR(BASIC_RES_WORDS));
     1312     1312    1   DCL 1 BASIC_RES_ARRAY (0:150) BASED (BPTR$),
     1313     1313    1         2 TYPE UBIN (6) UNAL,
     1314     1314    1         2 DUPS UBIN (12) UNAL,
     1315     1315    1         2 C_NAME CHAR (30) UNAL,
     1316     1316    1         2 PTR$ PTR UNAL;
     1317     1317    1   DCL HAS_TABLE (0:808) PTR EXT INIT (ADDR(NIL)*809);
     1318     1318    1   DCL ZIG$HASH_IT ENTRY (8);
     1319     1319        /*D*     NAME: HAS_TABLE
     1320     1320                   THIS IS A ARRAY THAT THE RESERVED WORDS AND THE WORDS
     1321     1321                 THAT CAN NOT BE DUPS IN THE SUBSCHEMA GETS HASHED INTO.
     1322     1322                 YOU MAY ASK WHY 809 ITEMS WELL IT WAS A PRIM NUMBER
     1323     1323                 AND I COULDN'T THINK OF A BETTER NUMBER FOR VARIABLE NAMES
     1324     1324                 TO HASH INTO.
     1325     1325        */
     1326     1326        %INCLUDE ZI_SUB_LANG;
     1327     3041        %GENERAL;
     1328     3165        %INCLUDE CP_6;
     1329     3246    1   DCL I UBIN (36);
     1330     3247    1   DCL TEMP UBIN (36);
     1331     3248        /*
     1332     3249              Now init the hash table bye calling ZIG$ADD_HAS;
PL6.E3A0      #001=ZIG$INIT_HAS File=ZIG$INIT_HAS.:ZIC0TSI                       FRI 09/05/97 12:05 Page:37
     1333     3250        */
     1334     3251    1       IF SUB_LANGUAGE = #COBOL
     1335     3252    2       THEN DO;
     1336     3253        /*
     1337     3254                   Add cobol res_words to the hash table by calling ZIG$HASH_IT
     1338     3255                 for the number of res_words that is pressent in the
     1339     3256                 structure.
     1340     3257
     1341     3258        */
     1342     3259    3           DO I = 0 TO 427;
     1343     3260    3               CALL ZIG$HASH_IT(COB_RES_ARRAY.C_NAME(I),#ADD,TEMP,
     1344     3261    3                  0,3,0,RETURN_PTR$,0);
     1345     3262    3               END;
     1346     3263    2           END;
     1347     3264    2       ELSE DO;
     1348     3265    3           DO I = 0 TO 47;
     1349     3266        /*
     1350     3267
     1351     3268                   Add APL or FORTRAN res_words : same as cobol on how.
     1352     3269                   Also do for BASIC
     1353     3270
     1354     3271        */
     1355     3272    3               CALL ZIG$HASH_IT(APL_FORT_RES_ARRAY.C_NAME(I),#ADD,TEMP,
     1356     3273    3                  0,3,0,RETURN_PTR$,0);
     1357     3274    3               END;
     1358     3275    2           IF SUB_LANGUAGE = #BASIC
     1359     3276    3           THEN DO;
     1360     3277    4               DO I = 0 TO 150;
     1361     3278        /*
     1362     3279                       Add BASIC res_words
     1363     3280        */
     1364     3281    4                   CALL ZIG$HASH_IT(BASIC_RES_ARRAY.C_NAME(I),#ADD,TEMP,
     1365     3282    4                      0,3,0,RETURN_PTR$,0);
     1366     3283    4                   END;
     1367     3284    3               END;
     1368     3285    2           END;
     1369     3286    1   END ZIG$INIT_HAS;
PL6.E3A0      #001=ZIG$INIT_HAS File=ZIG$INIT_HAS.:ZIC0TSI                       FRI 09/05/97 12:05 Page:38

PL6.E3A0      #001=ZIG$INIT_HAS File=ZIG$INIT_HAS.:ZIC0TSI                       FRI 09/05/97 12:05 Page:39
--  Include file information  --

   CP_6.:LIB_E05  cannot be made into a system file and is referenced.
   ZI_SUB_LANG.:ZIC0TOU  is referenced.
   B$JIT_C.:E05TOU  was found in the system file and is never referenced.
   CP_6_C.:E05TOU  was found in the system file and is referenced.
      No diagnostics issued in procedure ZIG$INIT_HAS.

   Procedure ZIG$INIT_HAS requires 88 words for executable code.
   Procedure ZIG$INIT_HAS requires 14 words of local(AUTO) storage.

    No errors detected in file ZIG$INIT_HAS.:ZIC0TSI    .

PL6.E3A0      #001=ZIG$INIT_HAS File=ZIG$INIT_HAS.:ZIC0TSI                       FRI 09/05/97 12:05 Page:40

 Object Unit name= ZIG$INIT_HAS                               File name= ZIG$INIT_HAS.:ZIC0TOU
 UTS= SEP 05 '97 12:05:37.28 FRI                              Compiler= PL-6/E31         Sev=      00
 SharedLib= :SHARED_SYSTEM                                    Alt SharedLib=


    ****  Control sections  ****

 Sect   Type Bound  Init  Size OctSiz  Section name(segment info)
    0  LblCom even  none  3843   7403  COBOL_RES_WORDS
    1   Data  even  none     3      3  ZIG$INIT_HAS
    2  LblCom even  none   432    660  APL_FORT_RES_WORDS
    3  LblCom even  none  1359   2517  BASIC_RES_WORDS
    4  LblCom even  none   809   1451  HAS_TABLE
    5  LblCom even  none     5      5  LANG_ALLOWED
    6  LblCom even  none     1      1  SUB_LANGUAGE
    7  LblCom even  none    16     20  HEADING_TEXT
    8  LblCom even  none    13     15  LANG_TEXT
    9  LblCom even  none     1      1  HASH_SCHEMA_NAME
   10  LblCom even  none     1      1  CURRENT_RECORD
   11   DCB   even  none     0      0  M$UC
   12   Proc  even  none    88    130  ZIG$INIT_HAS
   13  RoData even  none     6      6  ZIG$INIT_HAS

    ****  Entry defs  ****

                              Check   Calling
                             calling  sequence
  Sect OctLoc Primary Altret sequence   type   Parms  Name
    12      0   yes            yes      Std        0  ZIG$INIT_HAS
PL6.E3A0      #001=ZIG$INIT_HAS File=ZIG$INIT_HAS.:ZIC0TSI                       FRI 09/05/97 12:05 Page:41

  ****  Entry refs  ****

         Check        Calling
        calling       sequence
Altret sequence SRef   type   Args  Name
         yes           Std       8 ZIG$HASH_IT
                       nStd      0 X66_AUTO_0
                       nStd      0 X66_ARET

  ****  Data refs  ****

  Flags:  r = read only, s = secondary
Flgs Name                             Flgs Name                             Flgs Name
     M$UC

  ****  Segment refs  ****

  Flags:  r = read only, s = secondary
Flgs Name                             Flgs Name                             Flgs Name
     ISSID                                 NULLSID
PL6.E3A0      #001=ZIG$INIT_HAS File=ZIG$INIT_HAS.:ZIC0TSI                       FRI 09/05/97 12:05 Page:42


        1        1        /*M* ZIG$INIT_HAS     I-D-S/II            DBACS    */
        2        2        /*T***********************************************************/
        3        3        /*T*                                                         */
        4        4        /*T* Copyright (c) Bull HN Information Systems Inc., 1997    */
        5        5        /*T*                                                         */
        6        6        /*T***********************************************************/
        7        7        /*P*
        8        8        NAME:    ZIG$INIT_HAS
        9        9        PURPOSE: To init the hash table for which every language we are
       10       10                 doing the subschema work with.
       11       11
       12       12                   The res_words must be updated if any reswords are added
       13       13                 to cobol, apl or fortran. The resword also include the
       14       14                 res_words that are required by IDS.
       15       15
       16       16                   If any changes are made take a look at ZIG$HASH_IT,
       17       17                 ZIG$SS_PSET, and ZIG$SS_GEN.
       18       18
       19       19
       20       20        */
       21       21        ZIG$INIT_HAS:
       22       22            PROC;

     22 12 000000   000000 700200 xent  ZIG$INIT_HAS TSX0  ! X66_AUTO_0
        12 000001   000016 000000                    ZERO    14,0

       23       23        /*D*     NAME: COBOL_RES_WORDS
       24       24                   This is a list of all COBOL res_words in a format so they
       25       25                 can be put in the hash table and conected to other ones
       26       26                 in the hash table.
       27       27                   NOTE:
       28       28                      The character strings are 34 character long and the max
       29       29                    lenght of a name is 30 characters. This extra word is
       30       30                    for a pointer for a link list structure in the hash table
       31       31                    . The reason it is not a different variable is that PL6
       32       32                    has a max number of entrys in a structure a that made it
PL6.E3A0      #001=ZIG$INIT_HAS File=ZIG$INIT_HAS.:ZIC0TSI                       FRI 09/05/97 12:05 Page:43
       33       33                    over that number.
       34       34        */
       35       35    1   DCL 1 COBOL_RES_WORDS EXT UNAL,
       36       36    1         2 * UBIN (18) INIT (0) UNAL,
       37       37    1         2 X201 CHAR (34) INIT('AT') UNAL,
       38       38    1         2 * UBIN (18) INIT (0) UNAL,
       39       39    1         2 X202 CHAR (34) INIT('BY') UNAL,
       40       40    1         2 * UBIN (18) INIT (0) UNAL,
       41       41    1         2 X203 CHAR (34) INIT('CD') UNAL,
       42       42    1         2 * UBIN (18) INIT (0) UNAL,
       43       43    1         2 X204 CHAR (34) INIT('CF') UNAL,
       44       44    1         2 * UBIN (18) INIT (0) UNAL,
       45       45    1         2 X205 CHAR (34) INIT('CH') UNAL,
       46       46    1         2 * UBIN (18) INIT (0) UNAL,
       47       47    1         2 X206 CHAR (34) INIT('DB') UNAL,
       48       48    1         2 * UBIN (18) INIT (0) UNAL,
       49       49    1         2 X207 CHAR (34) INIT('DE') UNAL,
       50       50    1         2 * UBIN (18) INIT (0) UNAL,
       51       51    1         2 X208 CHAR (34) INIT('FD') UNAL,
       52       52    1         2 * UBIN (18) INIT (0) UNAL,
       53       53    1         2 X209 CHAR (34) INIT('GO') UNAL,
       54       54    1         2 * UBIN (18) INIT (0) UNAL,
       55       55    1         2 X210 CHAR (34) INIT('IF') UNAL,
       56       56    1         2 * UBIN (18) INIT (0) UNAL,
       57       57    1         2 X211 CHAR (34) INIT('IN') UNAL,
       58       58    1         2 * UBIN (18) INIT (0) UNAL,
       59       59    1         2 X212 CHAR (34) INIT('IS') UNAL,
       60       60    1         2 * UBIN (18) INIT (0) UNAL,
       61       61    1         2 X213 CHAR (34) INIT('NO') UNAL,
       62       62    1         2 * UBIN (18) INIT (0) UNAL,
       63       63    1         2 X214 CHAR (34) INIT('OF') UNAL,
       64       64    1         2 * UBIN (18) INIT (0) UNAL,
       65       65    1         2 X215 CHAR (34) INIT('ON') UNAL,
       66       66    1         2 * UBIN (18) INIT (0) UNAL,
       67       67    1         2 X216 CHAR (34) INIT('OR') UNAL,
       68       68    1         2 * UBIN (18) INIT (0) UNAL,
       69       69    1         2 X217 CHAR (34) INIT('PF') UNAL,
PL6.E3A0      #001=ZIG$INIT_HAS File=ZIG$INIT_HAS.:ZIC0TSI                       FRI 09/05/97 12:05 Page:44
       70       70    1         2 * UBIN (18) INIT (0) UNAL,
       71       71    1         2 X218 CHAR (34) INIT('PH') UNAL,
       72       72    1         2 * UBIN (18) INIT (0) UNAL,
       73       73    1         2 X219 CHAR (34) INIT('RD') UNAL,
       74       74    1         2 * UBIN (18) INIT (0) UNAL,
       75       75    1         2 X220 CHAR (34) INIT('RF') UNAL,
       76       76    1         2 * UBIN (18) INIT (0) UNAL,
       77       77    1         2 X221 CHAR (34) INIT('RH') UNAL,
       78       78    1         2 * UBIN (18) INIT (0) UNAL,
       79       79    1         2 X222 CHAR (34) INIT('SD') UNAL,
       80       80    1         2 * UBIN (18) INIT (0) UNAL,
       81       81    1         2 X223 CHAR (34) INIT('TO') UNAL,
       82       82    1         2 * UBIN (18) INIT (0) UNAL,
       83       83    1         2 X224 CHAR (34) INIT('UP') UNAL,
       84       84    1         2 * UBIN (18) INIT (0) UNAL,
       85       85    1         2 X301 CHAR (34) INIT('ADD') UNAL,
       86       86    1         2 * UBIN (18) INIT (0) UNAL,
       87       87    1         2 X302 CHAR (34) INIT('ALL') UNAL,
       88       88    1         2 * UBIN (18) INIT (0) UNAL,
       89       89    1         2 X303 CHAR (34) INIT('AND') UNAL,
       90       90    1         2 * UBIN (18) INIT (0) UNAL,
       91       91    1         2 X304 CHAR (34) INIT('ANY') UNAL,
       92       92    1         2 * UBIN (18) INIT (0) UNAL,
       93       93    1         2 X305 CHAR (34) INIT('ARE') UNAL,
       94       94    1         2 * UBIN (18) INIT (0) UNAL,
       95       95    1         2 X307 CHAR (34) INIT('DAY') UNAL,
       96       96    1         2 * UBIN (18) INIT (0) UNAL,
       97       97    1         2 X308 CHAR (34) INIT('EGI') UNAL,
       98       98    1         2 * UBIN (18) INIT (0) UNAL,
       99       99    1         2 X309 CHAR (34) INIT('EMI') UNAL,
      100      100    1         2 * UBIN (18) INIT (0) UNAL,
      101      101    1         2 X310 CHAR (34) INIT('END') UNAL,
      102      102    1         2 * UBIN (18) INIT (0) UNAL,
      103      103    1         2 X311 CHAR (34) INIT('EOP') UNAL,
      104      104    1         2 * UBIN (18) INIT (0) UNAL,
      105      105    1         2 X312 CHAR (34) INIT('ESI') UNAL,
      106      106    1         2 * UBIN (18) INIT (0) UNAL,
PL6.E3A0      #001=ZIG$INIT_HAS File=ZIG$INIT_HAS.:ZIC0TSI                       FRI 09/05/97 12:05 Page:45
      107      107    1         2 X314 CHAR (34) INIT('FOR') UNAL,
      108      108    1         2 * UBIN (18) INIT (0) UNAL,
      109      109    1         2 X315 CHAR (34) INIT('GET') UNAL,
      110      110    1         2 * UBIN (18) INIT (0) UNAL,
      111      111    1         2 X316 CHAR (34) INIT('I-O') UNAL,
      112      112    1         2 * UBIN (18) INIT (0) UNAL,
      113      113    1         2 X318 CHAR (34) INIT('KEY') UNAL,
      114      114    1         2 * UBIN (18) INIT (0) UNAL,
      115      115    1         2 X319 CHAR (34) INIT('NOT') UNAL,
      116      116    1         2 * UBIN (18) INIT (0) UNAL,
      117      117    1         2 X320 CHAR (34) INIT('OFF') UNAL,
      118      118    1         2 * UBIN (18) INIT (0) UNAL,
      119      119    1         2 X321 CHAR (34) INIT('PIC') UNAL,
      120      120    1         2 * UBIN (18) INIT (0) UNAL,
      121      121    1         2 X322 CHAR (34) INIT('RUN') UNAL,
      122      122    1         2 * UBIN (18) INIT (0) UNAL,
      123      123    1         2 X323 CHAR (34) INIT('SET') UNAL,
      124      124    1         2 * UBIN (18) INIT (0) UNAL,
      125      125    1         2 X325 CHAR (34) INIT('SUM') UNAL,
      126      126    1         2 * UBIN (18) INIT (0) UNAL,
      127      127    1         2 X326 CHAR (34) INIT('TOP') UNAL,
      128      128    1         2 * UBIN (18) INIT (0) UNAL,
      129      129    1         2 X327 CHAR (34) INIT('UFF') UNAL,
      130      130    1         2 * UBIN (18) INIT (0) UNAL,
      131      131    1         2 X401 CHAR (34) INIT('ALSO') UNAL,
      132      132    1         2 * UBIN (18) INIT (0) UNAL,
      133      133    1         2 X403 CHAR (34) INIT('AREA') UNAL,
      134      134    1         2 * UBIN (18) INIT (0) UNAL,
      135      135    1         2 X404 CHAR (34) INIT('CALL') UNAL,
      136      136    1         2 * UBIN (18) INIT (0) UNAL,
      137      137    1         2 X405 CHAR (34) INIT('CODE') UNAL,
      138      138    1         2 * UBIN (18) INIT (0) UNAL,
      139      139    1         2 X406 CHAR (34) INIT('COMP') UNAL,
      140      140    1         2 * UBIN (18) INIT (0) UNAL,
      141      141    1         2 X407 CHAR (34) INIT('COPY') UNAL,
      142      142    1         2 * UBIN (18) INIT (0) UNAL,
      143      143    1         2 X408 CHAR (34) INIT('CORR') UNAL,
PL6.E3A0      #001=ZIG$INIT_HAS File=ZIG$INIT_HAS.:ZIC0TSI                       FRI 09/05/97 12:05 Page:46
      144      144    1         2 * UBIN (18) INIT (0) UNAL,
      145      145    1         2 X409 CHAR (34) INIT('DATA') UNAL,
      146      146    1         2 * UBIN (18) INIT (0) UNAL,
      147      147    1         2 X410 CHAR (34) INIT('DATE') UNAL,
      148      148    1         2 * UBIN (18) INIT (0) UNAL,
      149      149    1         2 X411 CHAR (34) INIT('DOWN') UNAL,
      150      150    1         2 * UBIN (18) INIT (0) UNAL,
      151      151    1         2 X412 CHAR (34) INIT('ELSE') UNAL,
      152      152    1         2 * UBIN (18) INIT (0) UNAL,
      153      153    1         2 X413 CHAR (34) INIT('EXIT') UNAL,
      154      154    1         2 * UBIN (18) INIT (0) UNAL,
      155      155    1         2 X414 CHAR (34) INIT('FILE') UNAL,
      156      156    1         2 * UBIN (18) INIT (0) UNAL,
      157      157    1         2 X415 CHAR (34) INIT('FIND') UNAL,
      158      158    1         2 * UBIN (18) INIT (0) UNAL,
      159      159    1         2 X416 CHAR (34) INIT('FROM') UNAL,
      160      160    1         2 * UBIN (18) INIT (0) UNAL,
      161      161    1         2 X421 CHAR (34) INIT('INTO') UNAL,
      162      162    1         2 * UBIN (18) INIT (0) UNAL,
      163      163    1         2 X422 CHAR (34) INIT('JUST') UNAL,
      164      164    1         2 * UBIN (18) INIT (0) UNAL,
      165      165    1         2 X423 CHAR (34) INIT('LAST') UNAL,
      166      166    1         2 * UBIN (18) INIT (0) UNAL,
      167      167    1         2 X424 CHAR (34) INIT('LEFT') UNAL,
      168      168    1         2 * UBIN (18) INIT (0) UNAL,
      169      169    1         2 X425 CHAR (34) INIT('LESS') UNAL,
      170      170    1         2 * UBIN (18) INIT (0) UNAL,
      171      171    1         2 X426 CHAR (34) INIT('LINE') UNAL,
      172      172    1         2 * UBIN (18) INIT (0) UNAL,
      173      173    1         2 X427 CHAR (34) INIT('LOCK') UNAL,
      174      174    1         2 * UBIN (18) INIT (0) UNAL,
      175      175    1         2 X428 CHAR (34) INIT('MODE') UNAL,
      176      176    1         2 * UBIN (18) INIT (0) UNAL,
      177      177    1         2 X429 CHAR (34) INIT('MOVE') UNAL,
      178      178    1         2 * UBIN (18) INIT (0) UNAL,
      179      179    1         2 X430 CHAR (34) INIT('NEXT') UNAL,
      180      180    1         2 * UBIN (18) INIT (0) UNAL,
PL6.E3A0      #001=ZIG$INIT_HAS File=ZIG$INIT_HAS.:ZIC0TSI                       FRI 09/05/97 12:05 Page:47
      181      181    1         2 X431 CHAR (34) INIT('NULL') UNAL,
      182      182    1         2 * UBIN (18) INIT (0) UNAL,
      183      183    1         2 X432 CHAR (34) INIT('ONLY') UNAL,
      184      184    1         2 * UBIN (18) INIT (0) UNAL,
      185      185    1         2 X433 CHAR (34) INIT('OPEN') UNAL,
      186      186    1         2 * UBIN (18) INIT (0) UNAL,
      187      187    1         2 X434 CHAR (34) INIT('PAGE') UNAL,
      188      188    1         2 * UBIN (18) INIT (0) UNAL,
      189      189    1         2 X436 CHAR (34) INIT('PLUS') UNAL,
      190      190    1         2 * UBIN (18) INIT (0) UNAL,
      191      191    1         2 X437 CHAR (34) INIT('READ') UNAL,
      192      192    1         2 * UBIN (18) INIT (0) UNAL,
      193      193    1         2 X438 CHAR (34) INIT('REEL') UNAL,
      194      194    1         2 * UBIN (18) INIT (0) UNAL,
      195      195    1         2 X439 CHAR (34) INIT('SAME') UNAL,
      196      196    1         2 * UBIN (18) INIT (0) UNAL,
      197      197    1         2 X440 CHAR (34) INIT('SEND') UNAL,
      198      198    1         2 * UBIN (18) INIT (0) UNAL,
      199      199    1         2 X441 CHAR (34) INIT('SETS') UNAL,
      200      200    1         2 * UBIN (18) INIT (0) UNAL,
      201      201    1         2 X442 CHAR (34) INIT('SIGN') UNAL,
      202      202    1         2 * UBIN (18) INIT (0) UNAL,
      203      203    1         2 X443 CHAR (34) INIT('SIZE') UNAL,
      204      204    1         2 * UBIN (18) INIT (0) UNAL,
      205      205    1         2 X444 CHAR (34) INIT('SORT') UNAL,
      206      206    1         2 * UBIN (18) INIT (0) UNAL,
      207      207    1         2 X445 CHAR (34) INIT('STOP') UNAL,
      208      208    1         2 * UBIN (18) INIT (0) UNAL,
      209      209    1         2 X446 CHAR (34) INIT('SYNC') UNAL,
      210      210    1         2 * UBIN (18) INIT (0) UNAL,
      211      211    1         2 X447 CHAR (34) INIT('TAPE') UNAL,
      212      212    1         2 * UBIN (18) INIT (0) UNAL,
      213      213    1         2 X448 CHAR (34) INIT('TEXT') UNAL,
      214      214    1         2 * UBIN (18) INIT (0) UNAL,
      215      215    1         2 X449 CHAR (34) INIT('THAN') UNAL,
      216      216    1         2 * UBIN (18) INIT (0) UNAL,
      217      217    1         2 X450 CHAR (34) INIT('THRU') UNAL,
PL6.E3A0      #001=ZIG$INIT_HAS File=ZIG$INIT_HAS.:ZIC0TSI                       FRI 09/05/97 12:05 Page:48
      218      218    1         2 * UBIN (18) INIT (0) UNAL,
      219      219    1         2 X451 CHAR (34) INIT('TIME') UNAL,
      220      220    1         2 * UBIN (18) INIT (0) UNAL,
      221      221    1         2 X452 CHAR (34) INIT('TYPE') UNAL,
      222      222    1         2 * UBIN (18) INIT (0) UNAL,
      223      223    1         2 X454 CHAR (34) INIT('UNIT') UNAL,
      224      224    1         2 * UBIN (18) INIT (0) UNAL,
      225      225    1         2 X455 CHAR (34) INIT('UPON') UNAL,
      226      226    1         2 * UBIN (18) INIT (0) UNAL,
      227      227    1         2 X456 CHAR (34) INIT('WHEN') UNAL,
      228      228    1         2 * UBIN (18) INIT (0) UNAL,
      229      229    1         2 X457 CHAR (34) INIT('WITH') UNAL,
      230      230    1         2 * UBIN (18) INIT (0) UNAL,
      231      231    1         2 X458 CHAR (34) INIT('ZERO') UNAL,
      232      232    1         2 * UBIN (18) INIT (0) UNAL,
      233      233    1         2 X501 CHAR (34) INIT('AFTER') UNAL,
      234      234    1         2 * UBIN (18) INIT (0) UNAL,
      235      235    1         2 X502 CHAR (34) INIT('ALTER') UNAL,
      236      236    1         2 * UBIN (18) INIT (0) UNAL,
      237      237    1         2 X503 CHAR (34) INIT('AREAS') UNAL,
      238      238    1         2 * UBIN (18) INIT (0) UNAL,
      239      239    1         2 X504 CHAR (34) INIT('ASCII') UNAL,
      240      240    1         2 * UBIN (18) INIT (0) UNAL,
      241      241    1         2 X505 CHAR (34) INIT('BLANK') UNAL,
      242      242    1         2 * UBIN (18) INIT (0) UNAL,
      243      243    1         2 X506 CHAR (34) INIT('BLOCK') UNAL,
      244      244    1         2 * UBIN (18) INIT (0) UNAL,
      245      245    1         2 X507 CHAR (34) INIT('CLOSE') UNAL,
      246      246    1         2 * UBIN (18) INIT (0) UNAL,
      247      247    1         2 X508 CHAR (34) INIT('COBOL') UNAL,
      248      248    1         2 * UBIN (18) INIT (0) UNAL,
      249      249    1         2 X509 CHAR (34) INIT('COMMA') UNAL,
      250      250    1         2 * UBIN (18) INIT (0) UNAL,
      251      251    1         2 X510 CHAR (34) INIT('COUNT') UNAL,
      252      252    1         2 * UBIN (18) INIT (0) UNAL,
      253      253    1         2 X511 CHAR (34) INIT('EMPTY') UNAL,
      254      254    1         2 * UBIN (18) INIT (0) UNAL,
PL6.E3A0      #001=ZIG$INIT_HAS File=ZIG$INIT_HAS.:ZIC0TSI                       FRI 09/05/97 12:05 Page:49
      255      255    1         2 X512 CHAR (34) INIT('ENTER') UNAL,
      256      256    1         2 * UBIN (18) INIT (0) UNAL,
      257      257    1         2 X512A CHAR (34) INIT('ENTRY') UNAL,
      258      258    1         2 * UBIN (18) INIT (0) UNAL,
      259      259    1         2 X513 CHAR (34) INIT('EQUAL') UNAL,
      260      260    1         2 * UBIN (18) INIT (0) UNAL,
      261      261    1         2 X514 CHAR (34) INIT('ERASE') UNAL,
      262      262    1         2 * UBIN (18) INIT (0) UNAL,
      263      263    1         2 X515 CHAR (34) INIT('ERROR') UNAL,
      264      264    1         2 * UBIN (18) INIT (0) UNAL,
      265      265    1         2 X516 CHAR (34) INIT('EVERY') UNAL,
      266      266    1         2 * UBIN (18) INIT (0) UNAL,
      267      267    1         2 X517 CHAR (34) INIT('FINAL') UNAL,
      268      268    1         2 * UBIN (18) INIT (0) UNAL,
      269      269    1         2 X518 CHAR (34) INIT('FIRST') UNAL,
      270      270    1         2 * UBIN (18) INIT (0) UNAL,
      271      271    1         2 X519 CHAR (34) INIT('GROUP') UNAL,
      272      272    1         2 * UBIN (18) INIT (0) UNAL,
      273      273    1         2 X520 CHAR (34) INIT('INDEX') UNAL,
      274      274    1         2 * UBIN (18) INIT (0) UNAL,
      275      275    1         2 X521 CHAR (34) INIT('INPUT') UNAL,
      276      276    1         2 * UBIN (18) INIT (0) UNAL,
      277      277    1         2 X522 CHAR (34) INIT('LABEL') UNAL,
      278      278    1         2 * UBIN (18) INIT (0) UNAL,
      279      279    1         2 X523 CHAR (34) INIT('LIMIT') UNAL,
      280      280    1         2 * UBIN (18) INIT (0) UNAL,
      281      281    1         2 X524 CHAR (34) INIT('LINES') UNAL,
      282      282    1         2 * UBIN (18) INIT (0) UNAL,
      283      283    1         2 X525 CHAR (34) INIT('MERGE') UNAL,
      284      284    1         2 * UBIN (18) INIT (0) UNAL,
      285      285    1         2 X526 CHAR (34) INIT('ORDER') UNAL,
      286      286    1         2 * UBIN (18) INIT (0) UNAL,
      287      287    1         2 X527 CHAR (34) INIT('OTHER') UNAL,
      288      288    1         2 * UBIN (18) INIT (0) UNAL,
      289      289    1         2 X528 CHAR (34) INIT('OWNER') UNAL,
      290      290    1         2 * UBIN (18) INIT (0) UNAL,
      291      291    1         2 X529 CHAR (34) INIT('PRIOR') UNAL,
PL6.E3A0      #001=ZIG$INIT_HAS File=ZIG$INIT_HAS.:ZIC0TSI                       FRI 09/05/97 12:05 Page:50
      292      292    1         2 * UBIN (18) INIT (0) UNAL,
      293      293    1         2 X530 CHAR (34) INIT('QUEUE') UNAL,
      294      294    1         2 * UBIN (18) INIT (0) UNAL,
      295      295    1         2 X531 CHAR (34) INIT('QUOTE') UNAL,
      296      296    1         2 * UBIN (18) INIT (0) UNAL,
      297      297    1         2 X532 CHAR (34) INIT('READY') UNAL,
      298      298    1         2 * UBIN (18) INIT (0) UNAL,
      299      299    1         2 X533 CHAR (34) INIT('REALM') UNAL,
      300      300    1         2 * UBIN (18) INIT (0) UNAL,
      301      301    1         2 X534 CHAR (34) INIT('RERUN') UNAL,
      302      302    1         2 * UBIN (18) INIT (0) UNAL,
      303      303    1         2 X535 CHAR (34) INIT('RESET') UNAL,
      304      304    1         2 * UBIN (18) INIT (0) UNAL,
      305      305    1         2 X536 CHAR (34) INIT('RIGHT') UNAL,
      306      306    1         2 * UBIN (18) INIT (0) UNAL,
      307      307    1         2 X537 CHAR (34) INIT('SPACE') UNAL,
      308      308    1         2 * UBIN (18) INIT (0) UNAL,
      309      309    1         2 X538 CHAR (34) INIT('START') UNAL,
      310      310    1         2 * UBIN (18) INIT (0) UNAL,
      311      311    1         2 X539 CHAR (34) INIT('STORE') UNAL,
      312      312    1         2 * UBIN (18) INIT (0) UNAL,
      313      313    1         2 X540 CHAR (34) INIT('SYSIN') UNAL,
      314      314    1         2 * UBIN (18) INIT (0) UNAL,
      315      315    1         2 X541 CHAR (34) INIT('TABLE') UNAL,
      316      316    1         2 * UBIN (18) INIT (0) UNAL,
      317      317    1         2 X542 CHAR (34) INIT('TIMES') UNAL,
      318      318    1         2 * UBIN (18) INIT (0) UNAL,
      319      319    1         2 X543 CHAR (34) INIT('UNTIL') UNAL,
      320      320    1         2 * UBIN (18) INIT (0) UNAL,
      321      321    1         2 X544 CHAR (34) INIT('USAGE') UNAL,
      322      322    1         2 * UBIN (18) INIT (0) UNAL,
      323      323    1         2 X545 CHAR (34) INIT('USING') UNAL,
      324      324    1         2 * UBIN (18) INIT (0) UNAL,
      325      325    1         2 X546 CHAR (34) INIT('VALUE') UNAL,
      326      326    1         2 * UBIN (18) INIT (0) UNAL,
      327      327    1         2 X547 CHAR (34) INIT('WORDS') UNAL,
      328      328    1         2 * UBIN (18) INIT (0) UNAL,
PL6.E3A0      #001=ZIG$INIT_HAS File=ZIG$INIT_HAS.:ZIC0TSI                       FRI 09/05/97 12:05 Page:51
      329      329    1         2 X548 CHAR (34) INIT('WRITE') UNAL,
      330      330    1         2 * UBIN (18) INIT (0) UNAL,
      331      331    1         2 X549 CHAR (34) INIT('ZEROS') UNAL,
      332      332    1         2 * UBIN (18) INIT (0) UNAL,
      333      333    1         2 X601 CHAR (34) INIT('ACCEPT') UNAL,
      334      334    1         2 * UBIN (18) INIT (0) UNAL,
      335      335    1         2 X602 CHAR (34) INIT('ACCESS') UNAL,
      336      336    1         2 * UBIN (18) INIT (0) UNAL,
      337      337    1         2 X603 CHAR (34) INIT('ASSIGN') UNAL,
      338      338    1         2 * UBIN (18) INIT (0) UNAL,
      339      339    1         2 X604 CHAR (34) INIT('AUTHOR') UNAL,
      340      340    1         2 * UBIN (18) INIT (0) UNAL,
      341      341    1         2 X605 CHAR (34) INIT('BEFORE') UNAL,
      342      342    1         2 * UBIN (18) INIT (0) UNAL,
      343      343    1         2 X606 CHAR (34) INIT('BOTTOM') UNAL,
      344      344    1         2 * UBIN (18) INIT (0) UNAL,
      345      345    1         2 X607 CHAR (34) INIT('CANCEL') UNAL,
      346      346    1         2 * UBIN (18) INIT (0) UNAL,
      347      347    1         2 X608 CHAR (34) INIT('COLUMN') UNAL,
      348      348    1         2 * UBIN (18) INIT (0) UNAL,
      349      349    1         2 X609 CHAR (34) INIT('COMP-1') UNAL,
      350      350    1         2 * UBIN (18) INIT (0) UNAL,
      351      351    1         2 X610 CHAR (34) INIT('COMP-2') UNAL,
      352      352    1         2 * UBIN (18) INIT (0) UNAL,
      353      353    1         2 X611 CHAR (34) INIT('COMP-3') UNAL,
      354      354    1         2 * UBIN (18) INIT (0) UNAL,
      355      355    1         2 X612 CHAR (34) INIT('COMP-4') UNAL,
      356      356    1         2 * UBIN (18) INIT (0) UNAL,
      357      357    1         2 X613 CHAR (34) INIT('COMP-5') UNAL,
      358      358    1         2 * UBIN (18) INIT (0) UNAL,
      359      359    1         2 X614 CHAR (34) INIT('COMP-6') UNAL,
      360      360    1         2 * UBIN (18) INIT (0) UNAL,
      361      361    1         2 X616 CHAR (34) INIT('DB-KEY') UNAL,
      362      362    1         2 * UBIN (18) INIT (0) UNAL,
      363      363    1         2 X617 CHAR (34) INIT('DELETE') UNAL,
      364      364    1         2 * UBIN (18) INIT (0) UNAL,
      365      365    1         2 X618 CHAR (34) INIT('DETAIL') UNAL,
PL6.E3A0      #001=ZIG$INIT_HAS File=ZIG$INIT_HAS.:ZIC0TSI                       FRI 09/05/97 12:05 Page:52
      366      366    1         2 * UBIN (18) INIT (0) UNAL,
      367      367    1         2 X619 CHAR (34) INIT('DIVIDE') UNAL,
      368      368    1         2 * UBIN (18) INIT (0) UNAL,
      369      369    1         2 X620 CHAR (34) INIT('EBCDIC') UNAL,
      370      370    1         2 * UBIN (18) INIT (0) UNAL,
      371      371    1         2 X621 CHAR (34) INIT('ENABLE') UNAL,
      372      372    1         2 * UBIN (18) INIT (0) UNAL,
      373      373    1         2 X622 CHAR (34) INIT('EQUALS') UNAL,
      374      374    1         2 * UBIN (18) INIT (0) UNAL,
      375      375    1         2 X623 CHAR (34) INIT('EXTEND') UNAL,
      376      376    1         2 * UBIN (18) INIT (0) UNAL,
      377      377    1         2 X624 CHAR (34) INIT('FILLER') UNAL,
      378      378    1         2 * UBIN (18) INIT (0) UNAL,
      379      379    1         2 X625 CHAR (34) INIT('FINISH') UNAL,
      380      380    1         2 * UBIN (18) INIT (0) UNAL,
      381      381    1         2 X626 CHAR (34) INIT('GIVING') UNAL,
      382      382    1         2 * UBIN (18) INIT (0) UNAL,
      383      383    1         2 X628 CHAR (34) INIT('IDS-II') UNAL,
      384      384    1         2 * UBIN (18) INIT (0) UNAL,
      385      385    1         2 X630 CHAR (34) INIT('LENGTH') UNAL,
      386      386    1         2 * UBIN (18) INIT (0) UNAL,
      387      387    1         2 X631 CHAR (34) INIT('LIMITS') UNAL,
      388      388    1         2 * UBIN (18) INIT (0) UNAL,
      389      389    1         2 X632 CHAR (34) INIT('LINAGE') UNAL,
      390      390    1         2 * UBIN (18) INIT (0) UNAL,
      391      391    1         2 X633 CHAR (34) INIT('MEMBER') UNAL,
      392      392    1         2 * UBIN (18) INIT (0) UNAL,
      393      393    1         2 X634 CHAR (34) INIT('MEMORY') UNAL,
      394      394    1         2 * UBIN (18) INIT (0) UNAL,
      395      395    1         2 X635 CHAR (34) INIT('MODIFY') UNAL,
      396      396    1         2 * UBIN (18) INIT (0) UNAL,
      397      397    1         2 X636 CHAR (34) INIT('NATIVE') UNAL,
      398      398    1         2 * UBIN (18) INIT (0) UNAL,
      399      399    1         2 X637 CHAR (34) INIT('NUMBER') UNAL,
      400      400    1         2 * UBIN (18) INIT (0) UNAL,
      401      401    1         2 X638 CHAR (34) INIT('OCCURS') UNAL,
      402      402    1         2 * UBIN (18) INIT (0) UNAL,
PL6.E3A0      #001=ZIG$INIT_HAS File=ZIG$INIT_HAS.:ZIC0TSI                       FRI 09/05/97 12:05 Page:53
      403      403    1         2 X639 CHAR (34) INIT('OUTPUT') UNAL,
      404      404    1         2 * UBIN (18) INIT (0) UNAL,
      405      405    1         2 X640 CHAR (34) INIT('QUOTES') UNAL,
      406      406    1         2 * UBIN (18) INIT (0) UNAL,
      407      407    1         2 X641 CHAR (34) INIT('RANDOM') UNAL,
      408      408    1         2 * UBIN (18) INIT (0) UNAL,
      409      409    1         2 X642 CHAR (34) INIT('REALMS') UNAL,
      410      410    1         2 * UBIN (18) INIT (0) UNAL,
      411      411    1         2 X643 CHAR (34) INIT('RECORD') UNAL,
      412      412    1         2 * UBIN (18) INIT (0) UNAL,
      413      413    1         2 X644 CHAR (34) INIT('REPORT') UNAL,
      414      414    1         2 * UBIN (18) INIT (0) UNAL,
      415      415    1         2 X645 CHAR (34) INIT('RETURN') UNAL,
      416      416    1         2 * UBIN (18) INIT (0) UNAL,
      417      417    1         2 X646 CHAR (34) INIT('REWIND') UNAL,
      418      418    1         2 * UBIN (18) INIT (0) UNAL,
      419      419    1         2 X647 CHAR (34) INIT('SEARCH') UNAL,
      420      420    1         2 * UBIN (18) INIT (0) UNAL,
      421      421    1         2 X648 CHAR (34) INIT('SELECT') UNAL,
      422      422    1         2 * UBIN (18) INIT (0) UNAL,
      423      423    1         2 X649 CHAR (34) INIT('SOURCE') UNAL,
      424      424    1         2 * UBIN (18) INIT (0) UNAL,
      425      425    1         2 X650 CHAR (34) INIT('SPACES') UNAL,
      426      426    1         2 * UBIN (18) INIT (0) UNAL,
      427      427    1         2 X651 CHAR (34) INIT('STATUS') UNAL,
      428      428    1         2 * UBIN (18) INIT (0) UNAL,
      429      429    1         2 X652 CHAR (34) INIT('STRING') UNAL,
      430      430    1         2 * UBIN (18) INIT (0) UNAL,
      431      431    1         2 X653 CHAR (34) INIT('SYSOUT') UNAL,
      432      432    1         2 * UBIN (18) INIT (0) UNAL,
      433      433    1         2 X654 CHAR (34) INIT('TENANT') UNAL,
      434      434    1         2 * UBIN (18) INIT (0) UNAL,
      435      435    1         2 X655 CHAR (34) INIT('UPDATE') UNAL,
      436      436    1         2 * UBIN (18) INIT (0) UNAL,
      437      437    1         2 X656 CHAR (34) INIT('VALUES') UNAL,
      438      438    1         2 * UBIN (18) INIT (0) UNAL,
      439      439    1         2 X657 CHAR (34) INIT('WITHIN') UNAL,
PL6.E3A0      #001=ZIG$INIT_HAS File=ZIG$INIT_HAS.:ZIC0TSI                       FRI 09/05/97 12:05 Page:54
      440      440    1         2 * UBIN (18) INIT (0) UNAL,
      441      441    1         2 X658 CHAR (34) INIT('ZEROES') UNAL,
      442      442    1         2 * UBIN (18) INIT (0) UNAL,
      443      443    1         2 X701 CHAR (34) INIT('COMPUTE') UNAL,
      444      444    1         2 * UBIN (18) INIT (0) UNAL,
      445      445    1         2 X702 CHAR (34) INIT('CONNECT') UNAL,
      446      446    1         2 * UBIN (18) INIT (0) UNAL,
      447      447    1         2 X703 CHAR (34) INIT('CONSOLE') UNAL,
      448      448    1         2 * UBIN (18) INIT (0) UNAL,
      449      449    1         2 X704 CHAR (34) INIT('CONTROL') UNAL,
      450      450    1         2 * UBIN (18) INIT (0) UNAL,
      451      451    1         2 X705 CHAR (34) INIT('CURRENT') UNAL,
      452      452    1         2 * UBIN (18) INIT (0) UNAL,
      453      453    1         2 X706 CHAR (34) INIT('DEFAULT') UNAL,
      454      454    1         2 * UBIN (18) INIT (0) UNAL,
      455      455    1         2 X707 CHAR (34) INIT('DISABLE') UNAL,
      456      456    1         2 * UBIN (18) INIT (0) UNAL,
      457      457    1         2 X708 CHAR (34) INIT('DISPLAY') UNAL,
      458      458    1         2 * UBIN (18) INIT (0) UNAL,
      459      459    1         2 X709 CHAR (34) INIT('DYNAMIC') UNAL,
      460      460    1         2 * UBIN (18) INIT (0) UNAL,
      461      461    1         2 X710 CHAR (34) INIT('FILE-ID') UNAL,
      462      462    1         2 * UBIN (18) INIT (0) UNAL,
      463      463    1         2 X711 CHAR (34) INIT('FOOTING') UNAL,
      464      464    1         2 * UBIN (18) INIT (0) UNAL,
      465      465    1         2 X712 CHAR (34) INIT('GREATER') UNAL,
      466      466    1         2 * UBIN (18) INIT (0) UNAL,
      467      467    1         2 X713 CHAR (34) INIT('HEADING') UNAL,
      468      468    1         2 * UBIN (18) INIT (0) UNAL,
      469      469    1         2 X714 CHAR (34) INIT('INDEXED') UNAL,
      470      470    1         2 * UBIN (18) INIT (0) UNAL,
      471      471    1         2 X715 CHAR (34) INIT('INITIAL') UNAL,
      472      472    1         2 * UBIN (18) INIT (0) UNAL,
      473      473    1         2 X716 CHAR (34) INIT('INSPECT') UNAL,
      474      474    1         2 * UBIN (18) INIT (0) UNAL,
      475      475    1         2 X717 CHAR (34) INIT('INVALID') UNAL,
      476      476    1         2 * UBIN (18) INIT (0) UNAL,
PL6.E3A0      #001=ZIG$INIT_HAS File=ZIG$INIT_HAS.:ZIC0TSI                       FRI 09/05/97 12:05 Page:55
      477      477    1         2 X718 CHAR (34) INIT('LEADING') UNAL,
      478      478    1         2 * UBIN (18) INIT (0) UNAL,
      479      479    1         2 X719 CHAR (34) INIT('LINKAGE') UNAL,
      480      480    1         2 * UBIN (18) INIT (0) UNAL,
      481      481    1         2 X720 CHAR (34) INIT('LOCALLY') UNAL,
      482      482    1         2 * UBIN (18) INIT (0) UNAL,
      483      483    1         2 X721 CHAR (34) INIT('MAXIMUM') UNAL,
      484      484    1         2 * UBIN (18) INIT (0) UNAL,
      485      485    1         2 X722 CHAR (34) INIT('MEMBERS') UNAL,
      486      486    1         2 * UBIN (18) INIT (0) UNAL,
      487      487    1         2 X723 CHAR (34) INIT('MESSAGE') UNAL,
      488      488    1         2 * UBIN (18) INIT (0) UNAL,
      489      489    1         2 X724 CHAR (34) INIT('MODULES') UNAL,
      490      490    1         2 * UBIN (18) INIT (0) UNAL,
      491      491    1         2 X725 CHAR (34) INIT('MULTICS') UNAL,
      492      492    1         2 * UBIN (18) INIT (0) UNAL,
      493      493    1         2 X726 CHAR (34) INIT('NUMERIC') UNAL,
      494      494    1         2 * UBIN (18) INIT (0) UNAL,
      495      495    1         2 X727 CHAR (34) INIT('OMITTED') UNAL,
      496      496    1         2 * UBIN (18) INIT (0) UNAL,
      497      497    1         2 X728 CHAR (34) INIT('PERFORM') UNAL,
      498      498    1         2 * UBIN (18) INIT (0) UNAL,
      499      499    1         2 X729 CHAR (34) INIT('PICTURE') UNAL,
      500      500    1         2 * UBIN (18) INIT (0) UNAL,
      501      501    1         2 X730 CHAR (34) INIT('POINTER') UNAL,
      502      502    1         2 * UBIN (18) INIT (0) UNAL,
      503      503    1         2 X731 CHAR (34) INIT('PRIVACY') UNAL,
      504      504    1         2 * UBIN (18) INIT (0) UNAL,
      505      505    1         2 X732 CHAR (34) INIT('PROCEED') UNAL,
      506      506    1         2 * UBIN (18) INIT (0) UNAL,
      507      507    1         2 X733 CHAR (34) INIT('PROGRAM') UNAL,
      508      508    1         2 * UBIN (18) INIT (0) UNAL,
      509      509    1         2 X734 CHAR (34) INIT('RECEIVE') UNAL,
      510      510    1         2 * UBIN (18) INIT (0) UNAL,
      511      511    1         2 X735 CHAR (34) INIT('RECORDS') UNAL,
      512      512    1         2 * UBIN (18) INIT (0) UNAL,
      513      513    1         2 X736 CHAR (34) INIT('RELEASE') UNAL,
PL6.E3A0      #001=ZIG$INIT_HAS File=ZIG$INIT_HAS.:ZIC0TSI                       FRI 09/05/97 12:05 Page:56
      514      514    1         2 * UBIN (18) INIT (0) UNAL,
      515      515    1         2 X737 CHAR (34) INIT('REMOVAL') UNAL,
      516      516    1         2 * UBIN (18) INIT (0) UNAL,
      517      517    1         2 X738 CHAR (34) INIT('RENAMES') UNAL,
      518      518    1         2 * UBIN (18) INIT (0) UNAL,
      519      519    1         2 X739 CHAR (34) INIT('REPLACE') UNAL,
      520      520    1         2 * UBIN (18) INIT (0) UNAL,
      521      521    1         2 X740 CHAR (34) INIT('REPORTS') UNAL,
      522      522    1         2 * UBIN (18) INIT (0) UNAL,
      523      523    1         2 X741 CHAR (34) INIT('RESERVE') UNAL,
      524      524    1         2 * UBIN (18) INIT (0) UNAL,
      525      525    1         2 X742 CHAR (34) INIT('REWRITE') UNAL,
      526      526    1         2 * UBIN (18) INIT (0) UNAL,
      527      527    1         2 X743 CHAR (34) INIT('ROUNDED') UNAL,
      528      528    1         2 * UBIN (18) INIT (0) UNAL,
      529      529    1         2 X744 CHAR (34) INIT('SECTION') UNAL,
      530      530    1         2 * UBIN (18) INIT (0) UNAL,
      531      531    1         2 X745 CHAR (34) INIT('SEGMENT') UNAL,
      532      532    1         2 * UBIN (18) INIT (0) UNAL,
      533      533    1         2 X746 CHAR (34) INIT('THROUGH') UNAL,
      534      534    1         2 * UBIN (18) INIT (0) UNAL,
      535      535    1         2 X747 CHAR (34) INIT('VARYING') UNAL,
      536      536    1         2 * UBIN (18) INIT (0) UNAL,
      537      537    1         2 X802 CHAR (34) INIT('CODE-SET') UNAL,
      538      538    1         2 * UBIN (18) INIT (0) UNAL,
      539      539    1         2 X803 CHAR (34) INIT('CONSTANT') UNAL,
      540      540    1         2 * UBIN (18) INIT (0) UNAL,
      541      541    1         2 X804 CHAR (34) INIT('CONTAINS') UNAL,
      542      542    1         2 * UBIN (18) INIT (0) UNAL,
      543      543    1         2 X805 CHAR (34) INIT('CONTROLS') UNAL,
      544      544    1         2 * UBIN (18) INIT (0) UNAL,
      545      545    1         2 X806 CHAR (34) INIT('CURRENCY') UNAL,
      546      546    1         2 * UBIN (18) INIT (0) UNAL,
      547      547    1         2 X807 CHAR (34) INIT('DIVISION') UNAL,
      548      548    1         2 * UBIN (18) INIT (0) UNAL,
      549      549    1         2 X808 CHAR (34) INIT('GENERATE') UNAL,
      550      550    1         2 * UBIN (18) INIT (0) UNAL,
PL6.E3A0      #001=ZIG$INIT_HAS File=ZIG$INIT_HAS.:ZIC0TSI                       FRI 09/05/97 12:05 Page:57
      551      551    1         2 X809 CHAR (34) INIT('INDICATE') UNAL,
      552      552    1         2 * UBIN (18) INIT (0) UNAL,
      553      553    1         2 X810 CHAR (34) INIT('INITIATE') UNAL,
      554      554    1         2 * UBIN (18) INIT (0) UNAL,
      555      555    1         2 X811 CHAR (34) INIT('LEVEL-62') UNAL,
      556      556    1         2 * UBIN (18) INIT (0) UNAL,
      557      557    1         2 X812 CHAR (34) INIT('LEVEL-64') UNAL,
      558      558    1         2 * UBIN (18) INIT (0) UNAL,
      559      559    1         2 X813 CHAR (34) INIT('LEVEL-66') UNAL,
      560      560    1         2 * UBIN (18) INIT (0) UNAL,
      561      561    1         2 X814 CHAR (34) INIT('LEVEL-68') UNAL,
      562      562    1         2 * UBIN (18) INIT (0) UNAL,
      563      563    1         2 X815 CHAR (34) INIT('MULTIPLE') UNAL,
      564      564    1         2 * UBIN (18) INIT (0) UNAL,
      565      565    1         2 X816 CHAR (34) INIT('MULTIPLY') UNAL,
      566      566    1         2 * UBIN (18) INIT (0) UNAL,
      567      567    1         2 X817 CHAR (34) INIT('NEGATIVE') UNAL,
      568      568    1         2 * UBIN (18) INIT (0) UNAL,
      569      569    1         2 X818 CHAR (34) INIT('OPTIONAL') UNAL,
      570      570    1         2 * UBIN (18) INIT (0) UNAL,
      571      571    1         2 X819 CHAR (34) INIT('OVERFLOW') UNAL,
      572      572    1         2 * UBIN (18) INIT (0) UNAL,
      573      573    1         2 X820 CHAR (34) INIT('POSITION') UNAL,
      574      574    1         2 * UBIN (18) INIT (0) UNAL,
      575      575    1         2 X821 CHAR (34) INIT('POSITIVE') UNAL,
      576      576    1         2 * UBIN (18) INIT (0) UNAL,
      577      577    1         2 X822 CHAR (34) INIT('PRINTING') UNAL,
      578      578    1         2 * UBIN (18) INIT (0) UNAL,
      579      579    1         2 X823 CHAR (34) INIT('RELATIVE') UNAL,
      580      580    1         2 * UBIN (18) INIT (0) UNAL,
      581      581    1         2 X824 CHAR (34) INIT('REVERSED') UNAL,
      582      582    1         2 * UBIN (18) INIT (0) UNAL,
      583      583    1         2 X825 CHAR (34) INIT('SECURITY') UNAL,
      584      584    1         2 * UBIN (18) INIT (0) UNAL,
      585      585    1         2 X826 CHAR (34) INIT('SENTENCE') UNAL,
      586      586    1         2 * UBIN (18) INIT (0) UNAL,
      587      587    1         2 X827 CHAR (34) INIT('SEPARATE') UNAL,
PL6.E3A0      #001=ZIG$INIT_HAS File=ZIG$INIT_HAS.:ZIC0TSI                       FRI 09/05/97 12:05 Page:58
      588      588    1         2 * UBIN (18) INIT (0) UNAL,
      589      589    1         2 X828 CHAR (34) INIT('SEQUENCE') UNAL,
      590      590    1         2 * UBIN (18) INIT (0) UNAL,
      591      591    1         2 X829 CHAR (34) INIT('STANDARD') UNAL,
      592      592    1         2 * UBIN (18) INIT (0) UNAL,
      593      593    1         2 X830 CHAR (34) INIT('SUBTRACT') UNAL,
      594      594    1         2 * UBIN (18) INIT (0) UNAL,
      595      595    1         2 X831 CHAR (34) INIT('SUPPRESS') UNAL,
      596      596    1         2 * UBIN (18) INIT (0) UNAL,
      597      597    1         2 X832 CHAR (34) INIT('SWITCH-0') UNAL,
      598      598    1         2 * UBIN (18) INIT (0) UNAL,
      599      599    1         2 X833 CHAR (34) INIT('SWITCH-1') UNAL,
      600      600    1         2 * UBIN (18) INIT (0) UNAL,
      601      601    1         2 X834 CHAR (34) INIT('SWITCH-2') UNAL,
      602      602    1         2 * UBIN (18) INIT (0) UNAL,
      603      603    1         2 X835 CHAR (34) INIT('SWITCH-3') UNAL,
      604      604    1         2 * UBIN (18) INIT (0) UNAL,
      605      605    1         2 X836 CHAR (34) INIT('SWITCH-4') UNAL,
      606      606    1         2 * UBIN (18) INIT (0) UNAL,
      607      607    1         2 X837 CHAR (34) INIT('SWITCH-5') UNAL,
      608      608    1         2 * UBIN (18) INIT (0) UNAL,
      609      609    1         2 X838 CHAR (34) INIT('SWITCH-6') UNAL,
      610      610    1         2 * UBIN (18) INIT (0) UNAL,
      611      611    1         2 X839 CHAR (34) INIT('SWITCH-7') UNAL,
      612      612    1         2 * UBIN (18) INIT (0) UNAL,
      613      613    1         2 X840 CHAR (34) INIT('SWITCH-8') UNAL,
      614      614    1         2 * UBIN (18) INIT (0) UNAL,
      615      615    1         2 X841 CHAR (34) INIT('SWITCH-9') UNAL,
      616      616    1         2 * UBIN (18) INIT (0) UNAL,
      617      617    1         2 X842 CHAR (34) INIT('SYMBOLIC') UNAL,
      618      618    1         2 * UBIN (18) INIT (0) UNAL,
      619      619    1         2 X843 CHAR (34) INIT('TALLYING') UNAL,
      620      620    1         2 * UBIN (18) INIT (0) UNAL,
      621      621    1         2 X844 CHAR (34) INIT('TERMINAL') UNAL,
      622      622    1         2 * UBIN (18) INIT (0) UNAL,
      623      623    1         2 X845 CHAR (34) INIT('TRAILING') UNAL,
      624      624    1         2 * UBIN (18) INIT (0) UNAL,
PL6.E3A0      #001=ZIG$INIT_HAS File=ZIG$INIT_HAS.:ZIC0TSI                       FRI 09/05/97 12:05 Page:59
      625      625    1         2 X846 CHAR (34) INIT('UNSTRING') UNAL,
      626      626    1         2 * UBIN (18) INIT (0) UNAL,
      627      627    1         2 X901 CHAR (34) INIT('ADVANCING') UNAL,
      628      628    1         2 * UBIN (18) INIT (0) UNAL,
      629      629    1         2 X902 CHAR (34) INIT('ALTERNATE') UNAL,
      630      630    1         2 * UBIN (18) INIT (0) UNAL,
      631      631    1         2 X903 CHAR (34) INIT('ASCENDING') UNAL,
      632      632    1         2 * UBIN (18) INIT (0) UNAL,
      633      633    1         2 X904 CHAR (34) INIT('CHARACTER') UNAL,
      634      634    1         2 * UBIN (18) INIT (0) UNAL,
      635      635    1         2 X905 CHAR (34) INIT('COLLATING') UNAL,
      636      636    1         2 * UBIN (18) INIT (0) UNAL,
      637      637    1         2 X906 CHAR (34) INIT('DB-STATUS') UNAL,
      638      638    1         2 * UBIN (18) INIT (0) UNAL,
      639      639    1         2 X907 CHAR (34) INIT('DEBUGGING') UNAL,
      640      640    1         2 * UBIN (18) INIT (0) UNAL,
      641      641    1         2 X908 CHAR (34) INIT('DELIMITED') UNAL,
      642      642    1         2 * UBIN (18) INIT (0) UNAL,
      643      643    1         2 X909 CHAR (34) INIT('DELIMITER') UNAL,
      644      644    1         2 * UBIN (18) INIT (0) UNAL,
      645      645    1         2 X910 CHAR (34) INIT('DEPENDING') UNAL,
      646      646    1         2 * UBIN (18) INIT (0) UNAL,
      647      647    1         2 X911 CHAR (34) INIT('DUPLICATE') UNAL,
      648      648    1         2 * UBIN (18) INIT (0) UNAL,
      649      649    1         2 X912 CHAR (34) INIT('EXCEPTION') UNAL,
      650      650    1         2 * UBIN (18) INIT (0) UNAL,
      651      651    1         2 X914 CHAR (34) INIT('INCLUDING') UNAL,
      652      652    1         2 * UBIN (18) INIT (0) UNAL,
      653      653    1         2 X915 CHAR (34) INIT('JUSTIFIED') UNAL,
      654      654    1         2 * UBIN (18) INIT (0) UNAL,
      655      655    1         2 X916 CHAR (34) INIT('LOW-VALUE') UNAL,
      656      656    1         2 * UBIN (18) INIT (0) UNAL,
      657      657    1         2 X917 CHAR (34) INIT('PROCEDURE') UNAL,
      658      658    1         2 * UBIN (18) INIT (0) UNAL,
      659      659    1         2 X919 CHAR (34) INIT('REDEFINES') UNAL,
      660      660    1         2 * UBIN (18) INIT (0) UNAL,
      661      661    1         2 X920 CHAR (34) INIT('REMAINDER') UNAL,
PL6.E3A0      #001=ZIG$INIT_HAS File=ZIG$INIT_HAS.:ZIC0TSI                       FRI 09/05/97 12:05 Page:60
      662      662    1         2 * UBIN (18) INIT (0) UNAL,
      663      663    1         2 X921 CHAR (34) INIT('REPLACING') UNAL,
      664      664    1         2 * UBIN (18) INIT (0) UNAL,
      665      665    1         2 X922 CHAR (34) INIT('REPORTING') UNAL,
      666      666    1         2 * UBIN (18) INIT (0) UNAL,
      667      667    1         2 X923 CHAR (34) INIT('RETAINING') UNAL,
      668      668    1         2 * UBIN (18) INIT (0) UNAL,
      669      669    1         2 X924 CHAR (34) INIT('RETENTION') UNAL,
      670      670    1         2 * UBIN (18) INIT (0) UNAL,
      671      671    1         2 X925 CHAR (34) INIT('RETRIEVAL') UNAL,
      672      672    1         2 * UBIN (18) INIT (0) UNAL,
      673      673    1         2 X926 CHAR (34) INIT('SWITCH-10') UNAL,
      674      674    1         2 * UBIN (18) INIT (0) UNAL,
      675      675    1         2 X927 CHAR (34) INIT('SWITCH-11') UNAL,
      676      676    1         2 * UBIN (18) INIT (0) UNAL,
      677      677    1         2 X928 CHAR (34) INIT('SWITCH-12') UNAL,
      678      678    1         2 * UBIN (18) INIT (0) UNAL,
      679      679    1         2 X929 CHAR (34) INIT('SWITCH-13') UNAL,
      680      680    1         2 * UBIN (18) INIT (0) UNAL,
      681      681    1         2 X930 CHAR (34) INIT('SWITCH-14') UNAL,
      682      682    1         2 * UBIN (18) INIT (0) UNAL,
      683      683    1         2 X931 CHAR (34) INIT('SWITCH-15') UNAL,
      684      684    1         2 * UBIN (18) INIT (0) UNAL,
      685      685    1         2 X932 CHAR (34) INIT('SWITCH-16') UNAL,
      686      686    1         2 * UBIN (18) INIT (0) UNAL,
      687      687    1         2 X933 CHAR (34) INIT('SWITCH-17') UNAL,
      688      688    1         2 * UBIN (18) INIT (0) UNAL,
      689      689    1         2 X934 CHAR (34) INIT('SWITCH-18') UNAL,
      690      690    1         2 * UBIN (18) INIT (0) UNAL,
      691      691    1         2 X935 CHAR (34) INIT('SWITCH-19') UNAL,
      692      692    1         2 * UBIN (18) INIT (0) UNAL,
      693      693    1         2 X936 CHAR (34) INIT('SWITCH-20') UNAL,
      694      694    1         2 * UBIN (18) INIT (0) UNAL,
      695      695    1         2 X937 CHAR (34) INIT('SWITCH-21') UNAL,
      696      696    1         2 * UBIN (18) INIT (0) UNAL,
      697      697    1         2 X938 CHAR (34) INIT('SWITCH-22') UNAL,
      698      698    1         2 * UBIN (18) INIT (0) UNAL,
PL6.E3A0      #001=ZIG$INIT_HAS File=ZIG$INIT_HAS.:ZIC0TSI                       FRI 09/05/97 12:05 Page:61
      699      699    1         2 X939 CHAR (34) INIT('SWITCH-23') UNAL,
      700      700    1         2 * UBIN (18) INIT (0) UNAL,
      701      701    1         2 X940 CHAR (34) INIT('SWITCH-24') UNAL,
      702      702    1         2 * UBIN (18) INIT (0) UNAL,
      703      703    1         2 X941 CHAR (34) INIT('SWITCH-25') UNAL,
      704      704    1         2 * UBIN (18) INIT (0) UNAL,
      705      705    1         2 X942 CHAR (34) INIT('SWITCH-26') UNAL,
      706      706    1         2 * UBIN (18) INIT (0) UNAL,
      707      707    1         2 X943 CHAR (34) INIT('SWITCH-27') UNAL,
      708      708    1         2 * UBIN (18) INIT (0) UNAL,
      709      709    1         2 X944 CHAR (34) INIT('SWITCH-28') UNAL,
      710      710    1         2 * UBIN (18) INIT (0) UNAL,
      711      711    1         2 X945 CHAR (34) INIT('SWITCH-29') UNAL,
      712      712    1         2 * UBIN (18) INIT (0) UNAL,
      713      713    1         2 X946 CHAR (34) INIT('SWITCH-30') UNAL,
      714      714    1         2 * UBIN (18) INIT (0) UNAL,
      715      715    1         2 X947 CHAR (34) INIT('SWITCH-31') UNAL,
      716      716    1         2 * UBIN (18) INIT (0) UNAL,
      717      717    1         2 X948 CHAR (34) INIT('SWITCH-32') UNAL,
      718      718    1         2 * UBIN (18) INIT (0) UNAL,
      719      719    1         2 X949 CHAR (34) INIT('SWITCH-33') UNAL,
      720      720    1         2 * UBIN (18) INIT (0) UNAL,
      721      721    1         2 X950 CHAR (34) INIT('SWITCH-34') UNAL,
      722      722    1         2 * UBIN (18) INIT (0) UNAL,
      723      723    1         2 X951 CHAR (34) INIT('SWITCH-35') UNAL,
      724      724    1         2 * UBIN (18) INIT (0) UNAL,
      725      725    1         2 X952 CHAR (34) INIT('TERMINATE') UNAL,
      726      726    1         2 * UBIN (18) INIT (0) UNAL,
      727      727    1         2 X953 CHAR (34) INIT('TRANSFORM') UNAL,
      728      728    1         2 * UBIN (18) INIT (0) UNAL,
      729      729    1         2 X1001 CHAR (34) INIT('ALPHABETIC') UNAL,
      730      730    1         2 * UBIN (18) INIT (0) UNAL,
      731      731    1         2 X1002 CHAR (34) INIT('CHARACTERS') UNAL,
      732      732    1         2 * UBIN (18) INIT (0) UNAL,
      733      733    1         2 X1004 CHAR (34) INIT('DEBUG-ITEM') UNAL,
      734      734    1         2 * UBIN (18) INIT (0) UNAL,
      735      735    1         2 X1005 CHAR (34) INIT('DEBUG-LINE') UNAL,
PL6.E3A0      #001=ZIG$INIT_HAS File=ZIG$INIT_HAS.:ZIC0TSI                       FRI 09/05/97 12:05 Page:62
      736      736    1         2 * UBIN (18) INIT (0) UNAL,
      737      737    1         2 X1006 CHAR (34) INIT('DEBUG-NAME') UNAL,
      738      738    1         2 * UBIN (18) INIT (0) UNAL,
      739      739    1         2 X1007 CHAR (34) INIT('DESCENDING') UNAL,
      740      740    1         2 * UBIN (18) INIT (0) UNAL,
      741      741    1         2 X1008 CHAR (34) INIT('DISCONNECT') UNAL,
      742      742    1         2 * UBIN (18) INIT (0) UNAL,
      743      743    1         2 X1009 CHAR (34) INIT('DUPLICATES') UNAL,
      744      744    1         2 * UBIN (18) INIT (0) UNAL,
      745      745    1         2 X1010 CHAR (34) INIT('HIGH-VALUE') UNAL,
      746      746    1         2 * UBIN (18) INIT (0) UNAL,
      747      747    1         2 X1011 CHAR (34) INIT('INITIALIZE') UNAL,
      748      748    1         2 * UBIN (18) INIT (0) UNAL,
      749      749    1         2 X1012 CHAR (34) INIT('LOW-VALUES') UNAL,
      750      750    1         2 * UBIN (18) INIT (0) UNAL,
      751      751    1         2 X1013 CHAR (34) INIT('MEMBERSHIP') UNAL,
      752      752    1         2 * UBIN (18) INIT (0) UNAL,
      753      753    1         2 X1014 CHAR (34) INIT('PROCEDURES') UNAL,
      754      754    1         2 * UBIN (18) INIT (0) UNAL,
      755      755    1         2 X1015 CHAR (34) INIT('PROGRAM-ID') UNAL,
      756      756    1         2 * UBIN (18) INIT (0) UNAL,
      757      757    1         2 X1016 CHAR (34) INIT('REALM-NAME') UNAL,
      758      758    1         2 * UBIN (18) INIT (0) UNAL,
      759      759    1         2 X1017 CHAR (34) INIT('REFERENCES') UNAL,
      760      760    1         2 * UBIN (18) INIT (0) UNAL,
      761      761    1         2 X1018 CHAR (34) INIT('SEQUENTIAL') UNAL,
      762      762    1         2 * UBIN (18) INIT (0) UNAL,
      763      763    1         2 X1019 CHAR (34) INIT('SORT-MERGE') UNAL,
      764      764    1         2 * UBIN (18) INIT (0) UNAL,
      765      765    1         2 X1020 CHAR (34) INIT('STANDARD-1') UNAL,
      766      766    1         2 * UBIN (18) INIT (0) UNAL,
      767      767    1         2 X1021 CHAR (34) INIT('SUB-SCHEMA') UNAL,
      768      768    1         2 * UBIN (18) INIT (0) UNAL,
      769      769    1         2 X1022 CHAR (34) INIT('USAGE-MODE') UNAL,
      770      770    1         2 * UBIN (18) INIT (0) UNAL,
      771      771    1         2 X1101 CHAR (34) INIT('CLOCK-UNITS') UNAL,
      772      772    1         2 * UBIN (18) INIT (0) UNAL,
PL6.E3A0      #001=ZIG$INIT_HAS File=ZIG$INIT_HAS.:ZIC0TSI                       FRI 09/05/97 12:05 Page:63
      773      773    1         2 X1102 CHAR (34) INIT('DB-SET-NAME') UNAL,
      774      774    1         2 * UBIN (18) INIT (0) UNAL,
      775      775    1         2 X1102A CHAR (34) INIT('DB-KEY-NAME') UNAL,
      776      776    1         2 * UBIN (18) INIT (0) UNAL,
      777      777    1         2 X1103 CHAR (34) INIT('DEBUG-SUB-1') UNAL,
      778      778    1         2 * UBIN (18) INIT (0) UNAL,
      779      779    1         2 X1104 CHAR (34) INIT('DEBUG-SUB-2') UNAL,
      780      780    1         2 * UBIN (18) INIT (0) UNAL,
      781      781    1         2 X1105 CHAR (34) INIT('DEBUG-SUB-3') UNAL,
      782      782    1         2 * UBIN (18) INIT (0) UNAL,
      783      783    1         2 X1106 CHAR (34) INIT('DESTINATION') UNAL,
      784      784    1         2 * UBIN (18) INIT (0) UNAL,
      785      785    1         2 X1107 CHAR (34) INIT('END-OF-PAGE') UNAL,
      786      786    1         2 * UBIN (18) INIT (0) UNAL,
      787      787    1         2 X1108 CHAR (34) INIT('ENVIRONMENT') UNAL,
      788      788    1         2 * UBIN (18) INIT (0) UNAL,
      789      789    1         2 X1109 CHAR (34) INIT('HIGH-VALUES') UNAL,
      790      790    1         2 * UBIN (18) INIT (0) UNAL,
      791      791    1         2 X1110 CHAR (34) INIT('INTERCHANGE') UNAL,
      792      792    1         2 * UBIN (18) INIT (0) UNAL,
      793      793    1         2 X1111 CHAR (34) INIT('I-O-CONTROL') UNAL,
      794      794    1         2 * UBIN (18) INIT (0) UNAL,
      795      795    1         2 X1113 CHAR (34) INIT('RECORD-NAME') UNAL,
      796      796    1         2 * UBIN (18) INIT (0) UNAL,
      797      797    1         2 X1114 CHAR (34) INIT('SUB-QUEUE-1') UNAL,
      798      798    1         2 * UBIN (18) INIT (0) UNAL,
      799      799    1         2 X1115 CHAR (34) INIT('SUB-QUEUE-2') UNAL,
      800      800    1         2 * UBIN (18) INIT (0) UNAL,
      801      801    1         2 X1116 CHAR (34) INIT('SUB-QUEUE-3') UNAL,
      802      802    1         2 * UBIN (18) INIT (0) UNAL,
      803      803    1         2 X1201 CHAR (34) INIT('ALPHANUMERIC') UNAL,
      804      804    1         2 * UBIN (18) INIT (0) UNAL,
      805      805    1         2 X1202 CHAR (34) INIT('DATE-WRITTEN') UNAL,
      806      806    1         2 * UBIN (18) INIT (0) UNAL,
      807      807    1         2 X1203A CHAR (34) INIT('DB-DATA-NAME') UNAL,
      808      808    1         2 * UBIN (18) INIT (0) UNAL,
      809      809    1         2 X1203 CHAR (34) INIT('DB-EXCEPTION') UNAL,
PL6.E3A0      #001=ZIG$INIT_HAS File=ZIG$INIT_HAS.:ZIC0TSI                       FRI 09/05/97 12:05 Page:64
      810      810    1         2 * UBIN (18) INIT (0) UNAL,
      811      811    1         2 X1204 CHAR (34) INIT('DECLARATIVES') UNAL,
      812      812    1         2 * UBIN (18) INIT (0) UNAL,
      813      813    1         2 X1205 CHAR (34) INIT('FILE-CONTROL') UNAL,
      814      814    1         2 * UBIN (18) INIT (0) UNAL,
      815      815    1         2 X1206 CHAR (34) INIT('INPUT-OUTPUT') UNAL,
      816      816    1         2 * UBIN (18) INIT (0) UNAL,
      817      817    1         2 X1207 CHAR (34) INIT('INSTALLATION') UNAL,
      818      818    1         2 * UBIN (18) INIT (0) UNAL,
      819      819    1         2 X1208 CHAR (34) INIT('LINE-COUNTER') UNAL,
      820      820    1         2 * UBIN (18) INIT (0) UNAL,
      821      821    1         2 X1209 CHAR (34) INIT('ORGANIZATION') UNAL,
      822      822    1         2 * UBIN (18) INIT (0) UNAL,
      823      823    1         2 X1210 CHAR (34) INIT('PAGE-COUNTER') UNAL,
      824      824    1         2 * UBIN (18) INIT (0) UNAL,
      825      825    1         2 X1211 CHAR (34) INIT('SUBSTITUTION') UNAL,
      826      826    1         2 * UBIN (18) INIT (0) UNAL,
      827      827    1         2 X1212 CHAR (34) INIT('SYNCHRONIZED') UNAL,
      828      828    1         2 * UBIN (18) INIT (0) UNAL,
      829      829    1         2 X1301 CHAR (34) INIT('COMMUNICATION') UNAL,
      830      830    1         2 * UBIN (18) INIT (0) UNAL,
      831      831    1         2 X1302 CHAR (34) INIT('COMPUTATIONAL') UNAL,
      832      832    1         2 * UBIN (18) INIT (0) UNAL,
      833      833    1         2 X1303 CHAR (34) INIT('CONFIGURATION') UNAL,
      834      834    1         2 * UBIN (18) INIT (0) UNAL,
      835      835    1         2 X1304 CHAR (34) INIT('CORRESPONDING') UNAL,
      836      836    1         2 * UBIN (18) INIT (0) UNAL,
      837      837    1         2 X1305 CHAR (34) INIT('DATE-COMPILED') UNAL,
      838      838    1         2 * UBIN (18) INIT (0) UNAL,
      839      839    1         2 X1306 CHAR (34) INIT('DB-REALM-NAME') UNAL,
      840      840    1         2 * UBIN (18) INIT (0) UNAL,
      841      841    1         2 X1307 CHAR (34) INIT('DECIMAL-POINT') UNAL,
      842      842    1         2 * UBIN (18) INIT (0) UNAL,
      843      843    1         2 X1308 CHAR (34) INIT('HIS-SERIES-60') UNAL,
      844      844    1         2 * UBIN (18) INIT (0) UNAL,
      845      845    1         2 X1309 CHAR (34) INIT('SEGMENT-LIMIT') UNAL,
      846      846    1         2 * UBIN (18) INIT (0) UNAL,
PL6.E3A0      #001=ZIG$INIT_HAS File=ZIG$INIT_HAS.:ZIC0TSI                       FRI 09/05/97 12:05 Page:65
      847      847    1         2 X1310 CHAR (34) INIT('SPECIAL-NAMES') UNAL,
      848      848    1         2 * UBIN (18) INIT (0) UNAL,
      849      849    1         2 X1401 CHAR (34) INIT('DB-PRIVACY-KEY') UNAL,
      850      850    1         2 * UBIN (18) INIT (0) UNAL,
      851      851    1         2 X1402 CHAR (34) INIT('DB-RECORD-NAME') UNAL,
      852      852    1         2 * UBIN (18) INIT (0) UNAL,
      853      853    1         2 X1403 CHAR (34) INIT('DEBUG-CONTENTS') UNAL,
      854      854    1         2 * UBIN (18) INIT (0) UNAL,
      855      855    1         2 X1404 CHAR (34) INIT('IDENTIFICATION') UNAL,
      856      856    1         2 * UBIN (18) INIT (0) UNAL,
      857      857    1         2 X1405 CHAR (34) INIT('LEVEL-66-ASCII') UNAL,
      858      858    1         2 * UBIN (18) INIT (0) UNAL,
      859      859    1         2 X1406 CHAR (34) INIT('LEVEL-68-ASCII') UNAL,
      860      860    1         2 * UBIN (18) INIT (0) UNAL,
      861      861    1         2 X1407 CHAR (34) INIT('LINAGE-COUNTER') UNAL,
      862      862    1         2 * UBIN (18) INIT (0) UNAL,
      863      863    1         2 X1408 CHAR (34) INIT('NUMERIC-EDITED') UNAL,
      864      864    1         2 * UBIN (18) INIT (0) UNAL,
      865      865    1         2 X1501 CHAR (34) INIT('CHECKPOINT-FILE') UNAL,
      866      866    1         2 * UBIN (18) INIT (0) UNAL,
      867      867    1         2 X1502 CHAR (34) INIT('COMPUTATIONAL-1') UNAL,
      868      868    1         2 * UBIN (18) INIT (0) UNAL,
      869      869    1         2 X1503 CHAR (34) INIT('COMPUTATIONAL-2') UNAL,
      870      870    1         2 * UBIN (18) INIT (0) UNAL,
      871      871    1         2 X1504 CHAR (34) INIT('COMPUTATIONAL-3') UNAL,
      872      872    1         2 * UBIN (18) INIT (0) UNAL,
      873      873    1         2 X1505 CHAR (34) INIT('COMPUTATIONAL-4') UNAL,
      874      874    1         2 * UBIN (18) INIT (0) UNAL,
      875      875    1         2 X1506 CHAR (34) INIT('COMPUTATIONAL-5') UNAL,
      876      876    1         2 * UBIN (18) INIT (0) UNAL,
      877      877    1         2 X1507 CHAR (34) INIT('COMPUTATIONAL-6') UNAL,
      878      878    1         2 * UBIN (18) INIT (0) UNAL,
      879      879    1         2 X1508 CHAR (34) INIT('LEVEL-66-EBCDIC') UNAL,
      880      880    1         2 * UBIN (18) INIT (0) UNAL,
      881      881    1         2 X1509 CHAR (34) INIT('OBJECT-COMPUTER') UNAL,
      882      882    1         2 * UBIN (18) INIT (0) UNAL,
      883      883    1         2 X1510 CHAR (34) INIT('SOURCE-COMPUTER') UNAL,
PL6.E3A0      #001=ZIG$INIT_HAS File=ZIG$INIT_HAS.:ZIC0TSI                       FRI 09/05/97 12:05 Page:66
      884      884    1         2 * UBIN (18) INIT (0) UNAL,
      885      885    1         2 X1511 CHAR (34) INIT('WORKING-STORAGE') UNAL,
      886      886    1         2 * UBIN (18) INIT (0) UNAL,
      887      887    1         2 X1601 CHAR (34) INIT('DIRECT-REFERENCE') UNAL,
      888      888    1         2 * UBIN (18) INIT (0) UNAL,
      889      889    1         2 X1901 CHAR (34) INIT('ALPHANUMERIC-EDITED') UNAL;
      890      890    1   DCL RETURN_PTR$ PTR;
      891      891    1   DCL TPTR$ PTR STATIC INIT (ADDR(COBOL_RES_WORDS));
      892      892    1   DCL 1 COB_RES_ARRAY (0:427) BASED (TPTR$),
      893      893    1         2 TYPE UBIN (6) UNAL,
      894      894    1         2 DUPS UBIN (12) UNAL,
      895      895    1         2 C_NAME CHAR (30) UNAL,
      896      896    1         2 PTR$ PTR UNAL;
      897      897        /*D*     NAME:     APL_FORT_RES_WORDS
      898      898
      899      899                   This variable contains all the IDS reswords for
      900      900                 APL  BASIC and FORTRAN.
      901      901
      902      902        */
      903      903    1   DCL 1 APL_FORT_RES_WORDS EXT ,
      904      904    1         2 * UBIN (18) INIT (0) UNAL,
      905      905    1         2 X1 CHAR (34) INIT ('FIRST') UNAL,
      906      906    1         2 * UBIN (18) INIT (0) UNAL,
      907      907    1         2 X2 CHAR (34) INIT ('LAST') UNAL,
      908      908    1         2 * UBIN (18) INIT (0) UNAL,
      909      909    1         2 X3 CHAR (34) INIT ('NEXT') UNAL,
      910      910    1         2 * UBIN (18) INIT (0) UNAL,
      911      911    1         2 X4 CHAR (34) INIT ('PRIOR') UNAL,
      912      912    1         2 * UBIN (18) INIT (0) UNAL,
      913      913    1         2 X5 CHAR (34) INIT ('STATUS') UNAL,
      914      914    1         2 * UBIN (18) INIT (0) UNAL,
      915      915    1         2 X6 CHAR (34) INIT ('AREA') UNAL,
      916      916    1         2 * UBIN (18) INIT (0) UNAL,
      917      917    1         2 X7 CHAR (34) INIT ('SET') UNAL,
      918      918    1         2 * UBIN (18) INIT (0) UNAL,
      919      919    1         2 X8 CHAR (34) INIT ('RECORD') UNAL,
      920      920    1         2 * UBIN (18) INIT (0) UNAL,
PL6.E3A0      #001=ZIG$INIT_HAS File=ZIG$INIT_HAS.:ZIC0TSI                       FRI 09/05/97 12:05 Page:67
      921      921    1         2 X9 CHAR (34) INIT ('PRIVACY') UNAL,
      922      922    1         2 * UBIN (18) INIT (0) UNAL,
      923      923    1         2 X10 CHAR (34) INIT ('DIRECT-REFERENCE') UNAL,
      924      924    1         2 * UBIN (18) INIT (0) UNAL,
      925      925    1         2 X11 CHAR (34) INIT ('DATANAME') UNAL,
      926      926    1         2 * UBIN (18) INIT (0) UNAL,
      927      927    1         2 X12 CHAR (34) INIT ('KEYNAME') UNAL,
      928      928    1         2 * UBIN (18) INIT (0) UNAL,
      929      929    1         2 X13 CHAR (34) INIT ('AREANAME') UNAL,
      930      930    1         2 * UBIN (18) INIT (0) UNAL,
      931      931    1         2 X14 CHAR (34) INIT ('CURRENT') UNAL,
      932      932    1         2 * UBIN (18) INIT (0) UNAL,
      933      933    1         2 X15 CHAR (34) INIT ('CURRENCY') UNAL,
      934      934    1         2 * UBIN (18) INIT (0) UNAL,
      935      935    1         2 X16 CHAR (34) INIT ('OWNER') UNAL,
      936      936    1         2 * UBIN (18) INIT (0) UNAL,
      937      937    1         2 X17 CHAR (34) INIT ('ALL') UNAL,
      938      938    1         2 * UBIN (18) INIT (0) UNAL,
      939      939    1         2 X18 CHAR (34) INIT ('DBKEY') UNAL,
      940      940    1         2 * UBIN (18) INIT (0) UNAL,
      941      941    1         2 X19 CHAR (34) INIT ('ANY') UNAL,
      942      942    1         2 * UBIN (18) INIT (0) UNAL,
      943      943    1         2 X20 CHAR (34) INIT ('DUPANY') UNAL,
      944      944    1         2 * UBIN (18) INIT (0) UNAL,
      945      945    1         2 X21 CHAR (34) INIT ('DUPSET') UNAL,
      946      946    1         2 * UBIN (18) INIT (0) UNAL,
      947      947    1         2 X22 CHAR (34) INIT ('ONLY') UNAL,
      948      948    1         2 * UBIN (18) INIT (0) UNAL,
      949      949    1         2 X23 CHAR (34) INIT ('INCLUDING') UNAL,
      950      950    1         2 * UBIN (18) INIT (0) UNAL,
      951      951    1         2 X24 CHAR (34) INIT ('UPDATE') UNAL,
      952      952    1         2 * UBIN (18) INIT (0) UNAL,
      953      953    1         2 X25 CHAR (34) INIT ('RETRIEVAL') UNAL,
      954      954    1         2 * UBIN (18) INIT (0) UNAL,
      955      955    1         2 X26 CHAR (34) INIT ('LOAD') UNAL,
      956      956    1         2 * UBIN (18) INIT (0) UNAL,
      957      957    1         2 X27 CHAR (34) INIT ('SHARE') UNAL,
PL6.E3A0      #001=ZIG$INIT_HAS File=ZIG$INIT_HAS.:ZIC0TSI                       FRI 09/05/97 12:05 Page:68
      958      958    1         2 * UBIN (18) INIT (0) UNAL,
      959      959    1         2 X28 CHAR (34) INIT ('SHAREIN') UNAL,
      960      960    1         2 * UBIN (18) INIT (0) UNAL,
      961      961    1         2 X29 CHAR (34) INIT ('NOSHARE') UNAL,
      962      962    1         2 * UBIN (18) INIT (0) UNAL,
      963      963    1         2 X30 CHAR (34) INIT ('AREA') UNAL,
      964      964    1         2 * UBIN (18) INIT (0) UNAL,
      965      965    1         2 X31 CHAR (34) INIT ('SETS') UNAL,
      966      966    1         2 * UBIN (18) INIT (0) UNAL,
      967      967    1         2 X32 CHAR (34) INIT ('MEMBER') UNAL,
      968      968    1         2 * UBIN (18) INIT (0) UNAL,
      969      969    1         2 X33 CHAR (34) INIT ('TENANT') UNAL,
      970      970    1         2 * UBIN (18) INIT (0) UNAL,
      971      971    1         2 X34 CHAR (34) INIT ('NULL') UNAL,
      972      972    1         2 * UBIN (18) INIT (0) UNAL,
      973      973    1         2 X35 CHAR (34) INIT ('CONNECT') UNAL,
      974      974    1         2 * UBIN (18) INIT (0) UNAL,
      975      975    1         2 X36 CHAR (34) INIT ('DISCONNECT') UNAL,
      976      976    1         2 * UBIN (18) INIT (0) UNAL,
      977      977    1         2 X37 CHAR (34) INIT ('STORE') UNAL,
      978      978    1         2 * UBIN (18) INIT (0) UNAL,
      979      979    1         2 X38 CHAR (34) INIT ('ERASE') UNAL,
      980      980    1         2 * UBIN (18) INIT (0) UNAL,
      981      981    1         2 X39 CHAR (34) INIT ('MODIFY') UNAL,
      982      982    1         2 * UBIN (18) INIT (0) UNAL,
      983      983    1         2 X40 CHAR (34) INIT ('FIND') UNAL,
      984      984    1         2 * UBIN (18) INIT (0) UNAL,
      985      985    1         2 X41 CHAR (34) INIT ('GET') UNAL,
      986      986    1         2 * UBIN (18) INIT (0) UNAL,
      987      987    1         2 X42 CHAR (34) INIT ('FLOAT') UNAL,
      988      988    1         2 * UBIN (18) INIT (0) UNAL,
      989      989    1         2 X43 CHAR (34) INIT ('DWORD') UNAL,
      990      990    1         2 * UBIN (18) INIT (0) UNAL,
      991      991    1         2 X44 CHAR (34) INIT ('INTEGER') UNAL,
      992      992    1         2 * UBIN (18) INIT (0) UNAL,
      993      993    1         2 X45 CHAR (34) INIT ('ALIAS') UNAL,
      994      994    1         2 * UBIN (18) INIT (0) UNAL,
PL6.E3A0      #001=ZIG$INIT_HAS File=ZIG$INIT_HAS.:ZIC0TSI                       FRI 09/05/97 12:05 Page:69
      995      995    1         2 X46 CHAR (34) INIT ('CHARACTER') UNAL,
      996      996    1         2 * UBIN (18) INIT (0) UNAL,
      997      997    1         2 X47 CHAR (34) INIT ('OCCURS') UNAL,
      998      998    1         2 * UBIN (18) INIT (0) UNAL,
      999      999    1         2 X48 CHAR (34) INIT ('SUBSCHEMA') UNAL;
     1000     1000    1   DCL A_F_PTR$ PTR STATIC INIT (ADDR(APL_FORT_RES_WORDS));
     1001     1001    1   DCL 1 APL_FORT_RES_ARRAY (0:47) BASED (A_F_PTR$),
     1002     1002    1         2 TYPE UBIN (6) UNAL,
     1003     1003    1         2 DUPS UBIN (12) UNAL,
     1004     1004    1         2 C_NAME CHAR (30) UNAL,
     1005     1005    1         2 PTR$ PTR UNAL;
     1006     1006        /*D*       NAME: BASIC_RES_WORDS
     1007     1007        To be used in junction with APL_FORT_RES_WORDS for BASIC  */
     1008     1008    1   DCL 1 BASIC_RES_WORDS EXT UNAL,
     1009     1009    1         2 * UBIN (18) INIT (0) UNAL,
     1010     1010    1         2 X101 CHAR (34) INIT('ABS') UNAL,
     1011     1011    1         2 * UBIN (18) INIT (0) UNAL,
     1012     1012    1         2 X102 CHAR (34) INIT('ACOS') UNAL,
     1013     1013    1         2 * UBIN (18) INIT (0) UNAL,
     1014     1014    1         2 X103 CHAR (34) INIT('ACS') UNAL,
     1015     1015    1         2 * UBIN (18) INIT (0) UNAL,
     1016     1016    1         2 X105 CHAR (34) INIT('AND') UNAL,
     1017     1017    1         2 * UBIN (18) INIT (0) UNAL,
     1018     1018    1         2 X106 CHAR (34) INIT('ARRAYS') UNAL,
     1019     1019    1         2 * UBIN (18) INIT (0) UNAL,
     1020     1020    1         2 X107 CHAR (34) INIT('ASC') UNAL,
     1021     1021    1         2 * UBIN (18) INIT (0) UNAL,
     1022     1022    1         2 X108 CHAR (34) INIT('ASIN') UNAL,
     1023     1023    1         2 * UBIN (18) INIT (0) UNAL,
     1024     1024    1         2 X109 CHAR (34) INIT('ASN') UNAL,
     1025     1025    1         2 * UBIN (18) INIT (0) UNAL,
     1026     1026    1         2 X110 CHAR (34) INIT('ATN') UNAL,
     1027     1027    1         2 * UBIN (18) INIT (0) UNAL,
     1028     1028    1         2 X111 CHAR (34) INIT('BASE') UNAL,
     1029     1029    1         2 * UBIN (18) INIT (0) UNAL,
     1030     1030    1         2 X112 CHAR (34) INIT('BCL') UNAL,
     1031     1031    1         2 * UBIN (18) INIT (0) UNAL,
PL6.E3A0      #001=ZIG$INIT_HAS File=ZIG$INIT_HAS.:ZIC0TSI                       FRI 09/05/97 12:05 Page:70
     1032     1032    1         2 X113 CHAR (34) INIT('BIT') UNAL,
     1033     1033    1         2 * UBIN (18) INIT (0) UNAL,
     1034     1034    1         2 X114 CHAR (34) INIT('BREAK') UNAL,
     1035     1035    1         2 * UBIN (18) INIT (0) UNAL,
     1036     1036    1         2 X115 CHAR (34) INIT('CHAIN') UNAL,
     1037     1037    1         2 * UBIN (18) INIT (0) UNAL,
     1038     1038    1         2 X116 CHAR (34) INIT('CHANGE') UNAL,
     1039     1039    1         2 * UBIN (18) INIT (0) UNAL,
     1040     1040    1         2 X117 CHAR (34) INIT('CHR$') UNAL,
     1041     1041    1         2 * UBIN (18) INIT (0) UNAL,
     1042     1042    1         2 X118 CHAR (34) INIT('CLEAR') UNAL,
     1043     1043    1         2 * UBIN (18) INIT (0) UNAL,
     1044     1044    1         2 X119 CHAR (34) INIT('CLK') UNAL,
     1045     1045    1         2 * UBIN (18) INIT (0) UNAL,
     1046     1046    1         2 X120 CHAR (34) INIT('CLOSE') UNAL,
     1047     1047    1         2 * UBIN (18) INIT (0) UNAL,
     1048     1048    1         2 X121 CHAR (34) INIT('CMP') UNAL,
     1049     1049    1         2 * UBIN (18) INIT (0) UNAL,
     1050     1050    1         2 X122 CHAR (34) INIT('CON') UNAL,
     1051     1051    1         2 * UBIN (18) INIT (0) UNAL,
     1052     1052    1         2 X123 CHAR (34) INIT('CONSEC') UNAL,
     1053     1053    1         2 * UBIN (18) INIT (0) UNAL,
     1054     1054    1         2 X124 CHAR (34) INIT('COS') UNAL,
     1055     1055    1         2 * UBIN (18) INIT (0) UNAL,
     1056     1056    1         2 X125 CHAR (34) INIT('COSH') UNAL,
     1057     1057    1         2 * UBIN (18) INIT (0) UNAL,
     1058     1058    1         2 X126 CHAR (34) INIT('COT') UNAL,
     1059     1059    1         2 * UBIN (18) INIT (0) UNAL,
     1060     1060    1         2 X127 CHAR (34) INIT('CPU') UNAL,
     1061     1061    1         2 * UBIN (18) INIT (0) UNAL,
     1062     1062    1         2 X128 CHAR (34) INIT('CSC') UNAL,
     1063     1063    1         2 * UBIN (18) INIT (0) UNAL,
     1064     1064    1         2 X129 CHAR (34) INIT('DAT$') UNAL,
     1065     1065    1         2 * UBIN (18) INIT (0) UNAL,
     1066     1066    1         2 X130 CHAR (34) INIT('DATA') UNAL,
     1067     1067    1         2 * UBIN (18) INIT (0) UNAL,
     1068     1068    1         2 X131 CHAR (34) INIT('DEF') UNAL,
PL6.E3A0      #001=ZIG$INIT_HAS File=ZIG$INIT_HAS.:ZIC0TSI                       FRI 09/05/97 12:05 Page:71
     1069     1069    1         2 * UBIN (18) INIT (0) UNAL,
     1070     1070    1         2 X132 CHAR (34) INIT('DEG') UNAL,
     1071     1071    1         2 * UBIN (18) INIT (0) UNAL,
     1072     1072    1         2 X133 CHAR (34) INIT('DELIMIT') UNAL,
     1073     1073    1         2 * UBIN (18) INIT (0) UNAL,
     1074     1074    1         2 X134 CHAR (34) INIT('DELREC') UNAL,
     1075     1075    1         2 * UBIN (18) INIT (0) UNAL,
     1076     1076    1         2 X135 CHAR (34) INIT('DEQ') UNAL,
     1077     1077    1         2 * UBIN (18) INIT (0) UNAL,
     1078     1078    1         2 X136 CHAR (34) INIT('DET') UNAL,
     1079     1079    1         2 * UBIN (18) INIT (0) UNAL,
     1080     1080    1         2 X137 CHAR (34) INIT('DIG') UNAL,
     1081     1081    1         2 * UBIN (18) INIT (0) UNAL,
     1082     1082    1         2 X138 CHAR (34) INIT('DIGITS') UNAL,
     1083     1083    1         2 * UBIN (18) INIT (0) UNAL,
     1084     1084    1         2 X139 CHAR (34) INIT('DIM') UNAL,
     1085     1085    1         2 * UBIN (18) INIT (0) UNAL,
     1086     1086    1         2 X140 CHAR (34) INIT('DO') UNAL,
     1087     1087    1         2 * UBIN (18) INIT (0) UNAL,
     1088     1088    1         2 X141 CHAR (34) INIT('ENDIF') UNAL,
     1089     1089    1         2 * UBIN (18) INIT (0) UNAL,
     1090     1090    1         2 X142 CHAR (34) INIT('ENQE') UNAL,
     1091     1091    1         2 * UBIN (18) INIT (0) UNAL,
     1092     1092    1         2 X143 CHAR (34) INIT('ENQS') UNAL,
     1093     1093    1         2 * UBIN (18) INIT (0) UNAL,
     1094     1094    1         2 X144 CHAR (34) INIT('EOF') UNAL,
     1095     1095    1         2 * UBIN (18) INIT (0) UNAL,
     1096     1096    1         2 X145 CHAR (34) INIT('ERL') UNAL,
     1097     1097    1         2 * UBIN (18) INIT (0) UNAL,
     1098     1098    1         2 X146 CHAR (34) INIT('ERN') UNAL,
     1099     1099    1         2 * UBIN (18) INIT (0) UNAL,
     1100     1100    1         2 X147 CHAR (34) INIT('ERROR') UNAL,
     1101     1101    1         2 * UBIN (18) INIT (0) UNAL,
     1102     1102    1         2 X148 CHAR (34) INIT('ERT') UNAL,
     1103     1103    1         2 * UBIN (18) INIT (0) UNAL,
     1104     1104    1         2 X149 CHAR (34) INIT('EXP') UNAL,
     1105     1105    1         2 * UBIN (18) INIT (0) UNAL,
PL6.E3A0      #001=ZIG$INIT_HAS File=ZIG$INIT_HAS.:ZIC0TSI                       FRI 09/05/97 12:05 Page:72
     1106     1106    1         2 X150 CHAR (34) INIT('FNEND') UNAL,
     1107     1107    1         2 * UBIN (18) INIT (0) UNAL,
     1108     1108    1         2 X151 CHAR (34) INIT('FOR') UNAL,
     1109     1109    1         2 * UBIN (18) INIT (0) UNAL,
     1110     1110    1         2 X153 CHAR (34) INIT('GO') UNAL,
     1111     1111    1         2 * UBIN (18) INIT (0) UNAL,
     1112     1112    1         2 X154 CHAR (34) INIT('GOSUB') UNAL,
     1113     1113    1         2 * UBIN (18) INIT (0) UNAL,
     1114     1114    1         2 X155 CHAR (34) INIT('GOTO') UNAL,
     1115     1115    1         2 * UBIN (18) INIT (0) UNAL,
     1116     1116    1         2 X156 CHAR (34) INIT('HCS') UNAL,
     1117     1117    1         2 * UBIN (18) INIT (0) UNAL,
     1118     1118    1         2 X157 CHAR (34) INIT('HSN') UNAL,
     1119     1119    1         2 * UBIN (18) INIT (0) UNAL,
     1120     1120    1         2 X158 CHAR (34) INIT('HTN') UNAL,
     1121     1121    1         2 * UBIN (18) INIT (0) UNAL,
     1122     1122    1         2 X159 CHAR (34) INIT('IBEX') UNAL,
     1123     1123    1         2 * UBIN (18) INIT (0) UNAL,
     1124     1124    1         2 X160 CHAR (34) INIT('IDA') UNAL,
     1125     1125    1         2 * UBIN (18) INIT (0) UNAL,
     1126     1126    1         2 X161 CHAR (34) INIT('IDN') UNAL,
     1127     1127    1         2 * UBIN (18) INIT (0) UNAL,
     1128     1128    1         2 X162 CHAR (34) INIT('IF') UNAL,
     1129     1129    1         2 * UBIN (18) INIT (0) UNAL,
     1130     1130    1         2 X163 CHAR (34) INIT('INPUT') UNAL,
     1131     1131    1         2 * UBIN (18) INIT (0) UNAL,
     1132     1132    1         2 X164 CHAR (34) INIT('INT') UNAL,
     1133     1133    1         2 * UBIN (18) INIT (0) UNAL,
     1134     1134    1         2 X165 CHAR (34) INIT('INV') UNAL,
     1135     1135    1         2 * UBIN (18) INIT (0) UNAL,
     1136     1136    1         2 X166 CHAR (34) INIT('KEY') UNAL,
     1137     1137    1         2 * UBIN (18) INIT (0) UNAL,
     1138     1138    1         2 X167 CHAR (34) INIT('KEY$') UNAL,
     1139     1139    1         2 * UBIN (18) INIT (0) UNAL,
     1140     1140    1         2 X168 CHAR (34) INIT('KYF') UNAL,
     1141     1141    1         2 * UBIN (18) INIT (0) UNAL,
     1142     1142    1         2 X169 CHAR (34) INIT('KYF$') UNAL,
PL6.E3A0      #001=ZIG$INIT_HAS File=ZIG$INIT_HAS.:ZIC0TSI                       FRI 09/05/97 12:05 Page:73
     1143     1143    1         2 * UBIN (18) INIT (0) UNAL,
     1144     1144    1         2 X170 CHAR (34) INIT('KYL') UNAL,
     1145     1145    1         2 * UBIN (18) INIT (0) UNAL,
     1146     1146    1         2 X171 CHAR (34) INIT('KYL$') UNAL,
     1147     1147    1         2 * UBIN (18) INIT (0) UNAL,
     1148     1148    1         2 X172 CHAR (34) INIT('LBE') UNAL,
     1149     1149    1         2 * UBIN (18) INIT (0) UNAL,
     1150     1150    1         2 X173 CHAR (34) INIT('LEN') UNAL,
     1151     1151    1         2 * UBIN (18) INIT (0) UNAL,
     1152     1152    1         2 X174 CHAR (34) INIT('LET') UNAL,
     1153     1153    1         2 * UBIN (18) INIT (0) UNAL,
     1154     1154    1         2 X175 CHAR (34) INIT('LGT') UNAL,
     1155     1155    1         2 * UBIN (18) INIT (0) UNAL,
     1156     1156    1         2 X176 CHAR (34) INIT('LIBERR') UNAL,
     1157     1157    1         2 * UBIN (18) INIT (0) UNAL,
     1158     1158    1         2 X177 CHAR (34) INIT('LINK') UNAL,
     1159     1159    1         2 * UBIN (18) INIT (0) UNAL,
     1160     1160    1         2 X178 CHAR (34) INIT('LINPUT') UNAL,
     1161     1161    1         2 * UBIN (18) INIT (0) UNAL,
     1162     1162    1         2 X179 CHAR (34) INIT('LOC$') UNAL,
     1163     1163    1         2 * UBIN (18) INIT (0) UNAL,
     1164     1164    1         2 X180 CHAR (34) INIT('LOG') UNAL,
     1165     1165    1         2 * UBIN (18) INIT (0) UNAL,
     1166     1166    1         2 X181 CHAR (34) INIT('LOG2') UNAL,
     1167     1167    1         2 * UBIN (18) INIT (0) UNAL,
     1168     1168    1         2 X182 CHAR (34) INIT('LOG10') UNAL,
     1169     1169    1         2 * UBIN (18) INIT (0) UNAL,
     1170     1170    1         2 X183 CHAR (34) INIT('LTW') UNAL,
     1171     1171    1         2 * UBIN (18) INIT (0) UNAL,
     1172     1172    1         2 X184 CHAR (34) INIT('LWRC$') UNAL,
     1173     1173    1         2 * UBIN (18) INIT (0) UNAL,
     1174     1174    1         2 X185 CHAR (34) INIT('MAR') UNAL,
     1175     1175    1         2 * UBIN (18) INIT (0) UNAL,
     1176     1176    1         2 X186 CHAR (34) INIT('MARGIN') UNAL,
     1177     1177    1         2 * UBIN (18) INIT (0) UNAL,
     1178     1178    1         2 X187 CHAR (34) INIT('MAT') UNAL,
     1179     1179    1         2 * UBIN (18) INIT (0) UNAL,
PL6.E3A0      #001=ZIG$INIT_HAS File=ZIG$INIT_HAS.:ZIC0TSI                       FRI 09/05/97 12:05 Page:74
     1180     1180    1         2 X188 CHAR (34) INIT('MAX') UNAL,
     1181     1181    1         2 * UBIN (18) INIT (0) UNAL,
     1182     1182    1         2 X189 CHAR (34) INIT('MIN') UNAL,
     1183     1183    1         2 * UBIN (18) INIT (0) UNAL,
     1184     1184    1         2 X190 CHAR (34) INIT('MNE') UNAL,
     1185     1185    1         2 * UBIN (18) INIT (0) UNAL,
     1186     1186    1         2 X191 CHAR (34) INIT('MOD') UNAL,
     1187     1187    1         2 * UBIN (18) INIT (0) UNAL,
     1188     1188    1         2 X192 CHAR (34) INIT('MONERR') UNAL,
     1189     1189    1         2 * UBIN (18) INIT (0) UNAL,
     1190     1190    1         2 X194 CHAR (34) INIT('NKEY') UNAL,
     1191     1191    1         2 * UBIN (18) INIT (0) UNAL,
     1192     1192    1         2 X195 CHAR (34) INIT('NOWARN') UNAL,
     1193     1193    1         2 * UBIN (18) INIT (0) UNAL,
     1194     1194    1         2 X196 CHAR (34) INIT('NUL') UNAL,
     1195     1195    1         2 * UBIN (18) INIT (0) UNAL,
     1196     1196    1         2 X197 CHAR (34) INIT('NUM') UNAL,
     1197     1197    1         2 * UBIN (18) INIT (0) UNAL,
     1198     1198    1         2 X198 CHAR (34) INIT('NUMERIC') UNAL,
     1199     1199    1         2 * UBIN (18) INIT (0) UNAL,
     1200     1200    1         2 X199 CHAR (34) INIT('OFF') UNAL,
     1201     1201    1         2 * UBIN (18) INIT (0) UNAL,
     1202     1202    1         2 X225 CHAR (34) INIT('ON') UNAL,
     1203     1203    1         2 * UBIN (18) INIT (0) UNAL,
     1204     1204    1         2 X226 CHAR (34) INIT('OPEN') UNAL,
     1205     1205    1         2 * UBIN (18) INIT (0) UNAL,
     1206     1206    1         2 X227 CHAR (34) INIT('OPTION') UNAL,
     1207     1207    1         2 * UBIN (18) INIT (0) UNAL,
     1208     1208    1         2 X228 CHAR (34) INIT('OR') UNAL,
     1209     1209    1         2 * UBIN (18) INIT (0) UNAL,
     1210     1210    1         2 X229 CHAR (34) INIT('OVER') UNAL,
     1211     1211    1         2 * UBIN (18) INIT (0) UNAL,
     1212     1212    1         2 X230 CHAR (34) INIT('PAGE') UNAL,
     1213     1213    1         2 * UBIN (18) INIT (0) UNAL,
     1214     1214    1         2 X231 CHAR (34) INIT('PRECISION') UNAL,
     1215     1215    1         2 * UBIN (18) INIT (0) UNAL,
     1216     1216    1         2 X232 CHAR (34) INIT('PRINT') UNAL,
PL6.E3A0      #001=ZIG$INIT_HAS File=ZIG$INIT_HAS.:ZIC0TSI                       FRI 09/05/97 12:05 Page:75
     1217     1217    1         2 * UBIN (18) INIT (0) UNAL,
     1218     1218    1         2 X233 CHAR (34) INIT('PROCEED') UNAL,
     1219     1219    1         2 * UBIN (18) INIT (0) UNAL,
     1220     1220    1         2 X234 CHAR (34) INIT('PROMPT') UNAL,
     1221     1221    1         2 * UBIN (18) INIT (0) UNAL,
     1222     1222    1         2 X235 CHAR (34) INIT('PUT') UNAL,
     1223     1223    1         2 * UBIN (18) INIT (0) UNAL,
     1224     1224    1         2 X236 CHAR (34) INIT('RAD') UNAL,
     1225     1225    1         2 * UBIN (18) INIT (0) UNAL,
     1226     1226    1         2 X237 CHAR (34) INIT('RANDOMIZE') UNAL,
     1227     1227    1         2 * UBIN (18) INIT (0) UNAL,
     1228     1228    1         2 X238 CHAR (34) INIT('READ') UNAL,
     1229     1229    1         2 * UBIN (18) INIT (0) UNAL,
     1230     1230    1         2 X239 CHAR (34) INIT('REM') UNAL,
     1231     1231    1         2 * UBIN (18) INIT (0) UNAL,
     1232     1232    1         2 X240 CHAR (34) INIT('REP$') UNAL,
     1233     1233    1         2 * UBIN (18) INIT (0) UNAL,
     1234     1234    1         2 X241 CHAR (34) INIT('RESTORE') UNAL,
     1235     1235    1         2 * UBIN (18) INIT (0) UNAL,
     1236     1236    1         2 X242 CHAR (34) INIT('RETURN') UNAL,
     1237     1237    1         2 * UBIN (18) INIT (0) UNAL,
     1238     1238    1         2 X243 CHAR (34) INIT('RND') UNAL,
     1239     1239    1         2 * UBIN (18) INIT (0) UNAL,
     1240     1240    1         2 X244 CHAR (34) INIT('RNS') UNAL,
     1241     1241    1         2 * UBIN (18) INIT (0) UNAL,
     1242     1242    1         2 X245 CHAR (34) INIT('SCALARS') UNAL,
     1243     1243    1         2 * UBIN (18) INIT (0) UNAL,
     1244     1244    1         2 X246 CHAR (34) INIT('SCN') UNAL,
     1245     1245    1         2 * UBIN (18) INIT (0) UNAL,
     1246     1246    1         2 X247 CHAR (34) INIT('SEC') UNAL,
     1247     1247    1         2 * UBIN (18) INIT (0) UNAL,
     1248     1248    1         2 X248 CHAR (34) INIT('SGN') UNAL,
     1249     1249    1         2 * UBIN (18) INIT (0) UNAL,
     1250     1250    1         2 X250 CHAR (34) INIT('SIM') UNAL,
     1251     1251    1         2 * UBIN (18) INIT (0) UNAL,
     1252     1252    1         2 X251 CHAR (34) INIT('SIN') UNAL,
     1253     1253    1         2 * UBIN (18) INIT (0) UNAL,
PL6.E3A0      #001=ZIG$INIT_HAS File=ZIG$INIT_HAS.:ZIC0TSI                       FRI 09/05/97 12:05 Page:76
     1254     1254    1         2 X252 CHAR (34) INIT('SINGLE') UNAL,
     1255     1255    1         2 * UBIN (18) INIT (0) UNAL,
     1256     1256    1         2 X253 CHAR (34) INIT('SINH') UNAL,
     1257     1257    1         2 * UBIN (18) INIT (0) UNAL,
     1258     1258    1         2 X254 CHAR (34) INIT('SKEY') UNAL,
     1259     1259    1         2 * UBIN (18) INIT (0) UNAL,
     1260     1260    1         2 X255 CHAR (34) INIT('SPC') UNAL,
     1261     1261    1         2 * UBIN (18) INIT (0) UNAL,
     1262     1262    1         2 X256 CHAR (34) INIT('SQR') UNAL,
     1263     1263    1         2 * UBIN (18) INIT (0) UNAL,
     1264     1264    1         2 X257 CHAR (34) INIT('SST$') UNAL,
     1265     1265    1         2 * UBIN (18) INIT (0) UNAL,
     1266     1266    1         2 X258 CHAR (34) INIT('STEP') UNAL,
     1267     1267    1         2 * UBIN (18) INIT (0) UNAL,
     1268     1268    1         2 X259 CHAR (34) INIT('STOP') UNAL,
     1269     1269    1         2 * UBIN (18) INIT (0) UNAL,
     1270     1270    1         2 X260 CHAR (34) INIT('STR$') UNAL,
     1271     1271    1         2 * UBIN (18) INIT (0) UNAL,
     1272     1272    1         2 X261 CHAR (34) INIT('STRING') UNAL,
     1273     1273    1         2 * UBIN (18) INIT (0) UNAL,
     1274     1274    1         2 X262 CHAR (34) INIT('SUB') UNAL,
     1275     1275    1         2 * UBIN (18) INIT (0) UNAL,
     1276     1276    1         2 X263 CHAR (34) INIT('TAB') UNAL,
     1277     1277    1         2 * UBIN (18) INIT (0) UNAL,
     1278     1278    1         2 X264 CHAR (34) INIT('TAN') UNAL,
     1279     1279    1         2 * UBIN (18) INIT (0) UNAL,
     1280     1280    1         2 X265 CHAR (34) INIT('TANH') UNAL,
     1281     1281    1         2 * UBIN (18) INIT (0) UNAL,
     1282     1282    1         2 X266 CHAR (34) INIT('THEN') UNAL,
     1283     1283    1         2 * UBIN (18) INIT (0) UNAL,
     1284     1284    1         2 X267 CHAR (34) INIT('TIM') UNAL,
     1285     1285    1         2 * UBIN (18) INIT (0) UNAL,
     1286     1286    1         2 X268 CHAR (34) INIT('TO') UNAL,
     1287     1287    1         2 * UBIN (18) INIT (0) UNAL,
     1288     1288    1         2 X269 CHAR (34) INIT('TRACE') UNAL,
     1289     1289    1         2 * UBIN (18) INIT (0) UNAL,
     1290     1290    1         2 X270 CHAR (34) INIT('TRN') UNAL,
PL6.E3A0      #001=ZIG$INIT_HAS File=ZIG$INIT_HAS.:ZIC0TSI                       FRI 09/05/97 12:05 Page:77
     1291     1291    1         2 * UBIN (18) INIT (0) UNAL,
     1292     1292    1         2 X271 CHAR (34) INIT('UNTIL') UNAL,
     1293     1293    1         2 * UBIN (18) INIT (0) UNAL,
     1294     1294    1         2 X272 CHAR (34) INIT('UPC$') UNAL,
     1295     1295    1         2 * UBIN (18) INIT (0) UNAL,
     1296     1296    1         2 X274 CHAR (34) INIT('UPRC$') UNAL,
     1297     1297    1         2 * UBIN (18) INIT (0) UNAL,
     1298     1298    1         2 X275 CHAR (34) INIT('USING') UNAL,
     1299     1299    1         2 * UBIN (18) INIT (0) UNAL,
     1300     1300    1         2 X276 CHAR (34) INIT('USR$') UNAL,
     1301     1301    1         2 * UBIN (18) INIT (0) UNAL,
     1302     1302    1         2 X277 CHAR (34) INIT('VAL') UNAL,
     1303     1303    1         2 * UBIN (18) INIT (0) UNAL,
     1304     1304    1         2 X278 CHAR (34) INIT('WARN') UNAL,
     1305     1305    1         2 * UBIN (18) INIT (0) UNAL,
     1306     1306    1         2 X279 CHAR (34) INIT('WHEN') UNAL,
     1307     1307    1         2 * UBIN (18) INIT (0) UNAL,
     1308     1308    1         2 X280 CHAR (34) INIT('WHILE') UNAL,
     1309     1309    1         2 * UBIN (18) INIT (0) UNAL,
     1310     1310    1         2 X281 CHAR (34) INIT('ZER') UNAL;
     1311     1311    1   DCL BPTR$ PTR STATIC INIT (ADDR(BASIC_RES_WORDS));
     1312     1312    1   DCL 1 BASIC_RES_ARRAY (0:150) BASED (BPTR$),
     1313     1313    1         2 TYPE UBIN (6) UNAL,
     1314     1314    1         2 DUPS UBIN (12) UNAL,
     1315     1315    1         2 C_NAME CHAR (30) UNAL,
     1316     1316    1         2 PTR$ PTR UNAL;
     1317     1317    1   DCL HAS_TABLE (0:808) PTR EXT INIT (ADDR(NIL)*809);
     1318     1318    1   DCL ZIG$HASH_IT ENTRY (8);
     1319     1319        /*D*     NAME: HAS_TABLE
     1320     1320                   THIS IS A ARRAY THAT THE RESERVED WORDS AND THE WORDS
     1321     1321                 THAT CAN NOT BE DUPS IN THE SUBSCHEMA GETS HASHED INTO.
     1322     1322                 YOU MAY ASK WHY 809 ITEMS WELL IT WAS A PRIM NUMBER
     1323     1323                 AND I COULDN'T THINK OF A BETTER NUMBER FOR VARIABLE NAMES
     1324     1324                 TO HASH INTO.
     1325     1325        */
     1326     1326        %INCLUDE ZI_SUB_LANG;
     1327     3041        %GENERAL;
PL6.E3A0      #001=ZIG$INIT_HAS File=ZIG$INIT_HAS.:ZIC0TSI                       FRI 09/05/97 12:05 Page:78
     1328     3165        %INCLUDE CP_6;
     1329     3246    1   DCL I UBIN (36);
     1330     3247    1   DCL TEMP UBIN (36);
     1331     3248        /*
     1332     3249              Now init the hash table bye calling ZIG$ADD_HAS;
     1333     3250        */
     1334     3251    1       IF SUB_LANGUAGE = #COBOL

   3251 12 000002   000000 235000 6                  LDA     SUB_LANGUAGE
        12 000003   000001 115007                    CMPA    1,DL
        12 000004   000040 601000 12                 TNZ     s:3265

     1335     3252    2       THEN DO;

     1336     3253        /*
     1337     3254                   Add cobol res_words to the hash table by calling ZIG$HASH_IT
     1338     3255                 for the number of res_words that is pressent in the
     1339     3256                 structure.
     1340     3257
     1341     3258        */
     1342     3259    3           DO I = 0 TO 427;

   3259 12 000005   200004 450100                    STZ     I,,AUTO

     1343     3260    3               CALL ZIG$HASH_IT(COB_RES_ARRAY.C_NAME(I),#ADD,TEMP,

   3260 12 000006   000003 236000 13                 LDQ     3
        12 000007   200015 756100                    STQ     TEMP+8,,AUTO
        12 000010   200003 630500                    EPPR0   RETURN_PTR$,,AUTO
        12 000011   200014 450500                    STP0    TEMP+7,,AUTO
        12 000012   000004 237000 13                 LDAQ    4
        12 000013   200012 757100                    STAQ    TEMP+5,,AUTO
        12 000014   000003 236000 13                 LDQ     3
        12 000015   200011 756100                    STQ     TEMP+4,,AUTO
        12 000016   200005 631500                    EPPR1   TEMP,,AUTO
        12 000017   200010 451500                    STP1    TEMP+3,,AUTO
        12 000020   200007 756100                    STQ     TEMP+2,,AUTO
PL6.E3A0      #001=ZIG$INIT_HAS File=ZIG$INIT_HAS.:ZIC0TSI                       FRI 09/05/97 12:05 Page:79
        12 000021   200004 236100                    LDQ     I,,AUTO
        12 000022   000011 402003                    MPY     9,DU
        12 000023   400000 036007                    ADLQ    -131072,DL
        12 000024   000000 036000 1                  ADLQ    TPTR$
        12 000025   200006 756100                    STQ     TEMP+1,,AUTO
        12 000026   200006 630500                    EPPR0   TEMP+1,,AUTO
        12 000027   000000 631400 13                 EPPR1   0
        12 000030   000000 701000 xent               TSX1    ZIG$HASH_IT
        12 000031   000000 011000                    NOP     0

     1344     3261    3                  0,3,0,RETURN_PTR$,0);
     1345     3262    3               END;

   3262 12 000032   200004 235100                    LDA     I,,AUTO
        12 000033   000001 035007                    ADLA    1,DL
        12 000034   200004 755100                    STA     I,,AUTO
        12 000035   000654 115007                    CMPA    428,DL
        12 000036   000006 602000 12                 TNC     s:3260

     1346     3263    2           END;

   3263 12 000037   000127 710000 12                 TRA     s:3286

     1347     3264    2       ELSE DO;

     1348     3265    3           DO I = 0 TO 47;

   3265 12 000040   200004 450100                    STZ     I,,AUTO

     1349     3266        /*
     1350     3267
     1351     3268                   Add APL or FORTRAN res_words : same as cobol on how.
     1352     3269                   Also do for BASIC
     1353     3270
     1354     3271        */
     1355     3272    3               CALL ZIG$HASH_IT(APL_FORT_RES_ARRAY.C_NAME(I),#ADD,TEMP,

PL6.E3A0      #001=ZIG$INIT_HAS File=ZIG$INIT_HAS.:ZIC0TSI                       FRI 09/05/97 12:05 Page:80
   3272 12 000041   000003 236000 13                 LDQ     3
        12 000042   200015 756100                    STQ     TEMP+8,,AUTO
        12 000043   200003 630500                    EPPR0   RETURN_PTR$,,AUTO
        12 000044   200014 450500                    STP0    TEMP+7,,AUTO
        12 000045   000004 237000 13                 LDAQ    4
        12 000046   200012 757100                    STAQ    TEMP+5,,AUTO
        12 000047   000003 236000 13                 LDQ     3
        12 000050   200011 756100                    STQ     TEMP+4,,AUTO
        12 000051   200005 631500                    EPPR1   TEMP,,AUTO
        12 000052   200010 451500                    STP1    TEMP+3,,AUTO
        12 000053   200007 756100                    STQ     TEMP+2,,AUTO
        12 000054   200004 236100                    LDQ     I,,AUTO
        12 000055   000011 402003                    MPY     9,DU
        12 000056   400000 036007                    ADLQ    -131072,DL
        12 000057   000001 036000 1                  ADLQ    A_F_PTR$
        12 000060   200006 756100                    STQ     TEMP+1,,AUTO
        12 000061   200006 630500                    EPPR0   TEMP+1,,AUTO
        12 000062   000000 631400 13                 EPPR1   0
        12 000063   000000 701000 xent               TSX1    ZIG$HASH_IT
        12 000064   000000 011000                    NOP     0

     1356     3273    3                  0,3,0,RETURN_PTR$,0);
     1357     3274    3               END;

   3274 12 000065   200004 235100                    LDA     I,,AUTO
        12 000066   000001 035007                    ADLA    1,DL
        12 000067   200004 755100                    STA     I,,AUTO
        12 000070   000060 115007                    CMPA    48,DL
        12 000071   000041 602000 12                 TNC     s:3272

     1358     3275    2           IF SUB_LANGUAGE = #BASIC

   3275 12 000072   000000 236000 6                  LDQ     SUB_LANGUAGE
        12 000073   000004 116007                    CMPQ    4,DL
        12 000074   000127 601000 12                 TNZ     s:3286

     1359     3276    3           THEN DO;
PL6.E3A0      #001=ZIG$INIT_HAS File=ZIG$INIT_HAS.:ZIC0TSI                       FRI 09/05/97 12:05 Page:81

     1360     3277    4               DO I = 0 TO 150;

   3277 12 000075   200004 450100                    STZ     I,,AUTO

     1361     3278        /*
     1362     3279                       Add BASIC res_words
     1363     3280        */
     1364     3281    4                   CALL ZIG$HASH_IT(BASIC_RES_ARRAY.C_NAME(I),#ADD,TEMP,

   3281 12 000076   000003 236000 13                 LDQ     3
        12 000077   200015 756100                    STQ     TEMP+8,,AUTO
        12 000100   200003 630500                    EPPR0   RETURN_PTR$,,AUTO
        12 000101   200014 450500                    STP0    TEMP+7,,AUTO
        12 000102   000004 237000 13                 LDAQ    4
        12 000103   200012 757100                    STAQ    TEMP+5,,AUTO
        12 000104   000003 236000 13                 LDQ     3
        12 000105   200011 756100                    STQ     TEMP+4,,AUTO
        12 000106   200005 631500                    EPPR1   TEMP,,AUTO
        12 000107   200010 451500                    STP1    TEMP+3,,AUTO
        12 000110   200007 756100                    STQ     TEMP+2,,AUTO
        12 000111   200004 236100                    LDQ     I,,AUTO
        12 000112   000011 402003                    MPY     9,DU
        12 000113   400000 036007                    ADLQ    -131072,DL
        12 000114   000002 036000 1                  ADLQ    BPTR$
        12 000115   200006 756100                    STQ     TEMP+1,,AUTO
        12 000116   200006 630500                    EPPR0   TEMP+1,,AUTO
        12 000117   000000 631400 13                 EPPR1   0
        12 000120   000000 701000 xent               TSX1    ZIG$HASH_IT
        12 000121   000000 011000                    NOP     0

     1365     3282    4                      0,3,0,RETURN_PTR$,0);
     1366     3283    4                   END;

   3283 12 000122   200004 235100                    LDA     I,,AUTO
        12 000123   000001 035007                    ADLA    1,DL
        12 000124   200004 755100                    STA     I,,AUTO
PL6.E3A0      #001=ZIG$INIT_HAS File=ZIG$INIT_HAS.:ZIC0TSI                       FRI 09/05/97 12:05 Page:82
        12 000125   000227 115007                    CMPA    151,DL
        12 000126   000076 602000 12                 TNC     s:3281

     1367     3284    3               END;

     1368     3285    2           END;

     1369     3286    1   END ZIG$INIT_HAS;

   3286 12 000127   000000 702200 xent               TSX2  ! X66_ARET

COBOL_RES_WORDS
 Sect OctLoc
   0     000   000000 101124   040040 040040   040040 040040   040040 040040    ..AT
   0     004   040040 040040   040040 040040   040040 040040   040040 040040
   0     010   040040 040040   000000 102131   040040 040040   040040 040040        ..BY
   0     014   040040 040040   040040 040040   040040 040040   040040 040040
   0     020   040040 040040   040040 040040   000000 103104   040040 040040            ..CD
   0     024   040040 040040   040040 040040   040040 040040   040040 040040
   0     030   040040 040040   040040 040040   040040 040040   000000 103106                ..CF
   0     034   040040 040040   040040 040040   040040 040040   040040 040040
   0     044*  000000 103110   040040 040040   040040 040040   040040 040040    ..CH
   0     050   040040 040040   040040 040040   040040 040040   040040 040040
   0     054   040040 040040   000000 104102   040040 040040   040040 040040        ..DB
   0     060   040040 040040   040040 040040   040040 040040   040040 040040
   0     064   040040 040040   040040 040040   000000 104105   040040 040040            ..DE
   0     070   040040 040040   040040 040040   040040 040040   040040 040040
   0     074   040040 040040   040040 040040   040040 040040   000000 106104                ..FD
   0     100   040040 040040   040040 040040   040040 040040   040040 040040
   0     110*  000000 107117   040040 040040   040040 040040   040040 040040    ..GO
   0     114   040040 040040   040040 040040   040040 040040   040040 040040
   0     120   040040 040040   000000 111106   040040 040040   040040 040040        ..IF
   0     124   040040 040040   040040 040040   040040 040040   040040 040040
   0     130   040040 040040   040040 040040   000000 111116   040040 040040            ..IN
   0     134   040040 040040   040040 040040   040040 040040   040040 040040
   0     140   040040 040040   040040 040040   040040 040040   000000 111123                ..IS
   0     144   040040 040040   040040 040040   040040 040040   040040 040040
PL6.E3A0      #001=ZIG$INIT_HAS File=ZIG$INIT_HAS.:ZIC0TSI                       FRI 09/05/97 12:05 Page:83
   0     154*  000000 116117   040040 040040   040040 040040   040040 040040    ..NO
   0     160   040040 040040   040040 040040   040040 040040   040040 040040
   0     164   040040 040040   000000 117106   040040 040040   040040 040040        ..OF
   0     170   040040 040040   040040 040040   040040 040040   040040 040040
   0     174   040040 040040   040040 040040   000000 117116   040040 040040            ..ON
   0     200   040040 040040   040040 040040   040040 040040   040040 040040
   0     204   040040 040040   040040 040040   040040 040040   000000 117122                ..OR
   0     210   040040 040040   040040 040040   040040 040040   040040 040040
   0     220*  000000 120106   040040 040040   040040 040040   040040 040040    ..PF
   0     224   040040 040040   040040 040040   040040 040040   040040 040040
   0     230   040040 040040   000000 120110   040040 040040   040040 040040        ..PH
   0     234   040040 040040   040040 040040   040040 040040   040040 040040
   0     240   040040 040040   040040 040040   000000 122104   040040 040040            ..RD
   0     244   040040 040040   040040 040040   040040 040040   040040 040040
   0     250   040040 040040   040040 040040   040040 040040   000000 122106                ..RF
   0     254   040040 040040   040040 040040   040040 040040   040040 040040
   0     264*  000000 122110   040040 040040   040040 040040   040040 040040    ..RH
   0     270   040040 040040   040040 040040   040040 040040   040040 040040
   0     274   040040 040040   000000 123104   040040 040040   040040 040040        ..SD
   0     300   040040 040040   040040 040040   040040 040040   040040 040040
   0     304   040040 040040   040040 040040   000000 124117   040040 040040            ..TO
   0     310   040040 040040   040040 040040   040040 040040   040040 040040
   0     314   040040 040040   040040 040040   040040 040040   000000 125120                ..UP
   0     320   040040 040040   040040 040040   040040 040040   040040 040040
   0     330*  000000 101104   104040 040040   040040 040040   040040 040040    ..ADD
   0     334   040040 040040   040040 040040   040040 040040   040040 040040
   0     340   040040 040040   000000 101114   114040 040040   040040 040040        ..ALL
   0     344   040040 040040   040040 040040   040040 040040   040040 040040
   0     350   040040 040040   040040 040040   000000 101116   104040 040040            ..AND
   0     354   040040 040040   040040 040040   040040 040040   040040 040040
   0     360   040040 040040   040040 040040   040040 040040   000000 101116                ..AN
   0     364   131040 040040   040040 040040   040040 040040   040040 040040    Y
   0     370   040040 040040   040040 040040   040040 040040   040040 040040
   0     374   000000 101122   105040 040040   040040 040040   040040 040040    ..ARE
   0     400   040040 040040   040040 040040   040040 040040   040040 040040
   0     404   040040 040040   000000 104101   131040 040040   040040 040040        ..DAY
   0     410   040040 040040   040040 040040   040040 040040   040040 040040
PL6.E3A0      #001=ZIG$INIT_HAS File=ZIG$INIT_HAS.:ZIC0TSI                       FRI 09/05/97 12:05 Page:84
   0     414   040040 040040   040040 040040   000000 105107   111040 040040            ..EGI
   0     420   040040 040040   040040 040040   040040 040040   040040 040040
   0     424   040040 040040   040040 040040   040040 040040   000000 105115                ..EM
   0     430   111040 040040   040040 040040   040040 040040   040040 040040    I
   0     434   040040 040040   040040 040040   040040 040040   040040 040040
   0     440   000000 105116   104040 040040   040040 040040   040040 040040    ..END
   0     444   040040 040040   040040 040040   040040 040040   040040 040040
   0     450   040040 040040   000000 105117   120040 040040   040040 040040        ..EOP
   0     454   040040 040040   040040 040040   040040 040040   040040 040040
   0     460   040040 040040   040040 040040   000000 105123   111040 040040            ..ESI
   0     464   040040 040040   040040 040040   040040 040040   040040 040040
   0     470   040040 040040   040040 040040   040040 040040   000000 106117                ..FO
   0     474   122040 040040   040040 040040   040040 040040   040040 040040    R
   0     500   040040 040040   040040 040040   040040 040040   040040 040040
   0     504   000000 107105   124040 040040   040040 040040   040040 040040    ..GET
   0     510   040040 040040   040040 040040   040040 040040   040040 040040
   0     514   040040 040040   000000 111055   117040 040040   040040 040040        ..I-O
   0     520   040040 040040   040040 040040   040040 040040   040040 040040
   0     524   040040 040040   040040 040040   000000 113105   131040 040040            ..KEY
   0     530   040040 040040   040040 040040   040040 040040   040040 040040
   0     534   040040 040040   040040 040040   040040 040040   000000 116117                ..NO
   0     540   124040 040040   040040 040040   040040 040040   040040 040040    T
   0     544   040040 040040   040040 040040   040040 040040   040040 040040
   0     550   000000 117106   106040 040040   040040 040040   040040 040040    ..OFF
   0     554   040040 040040   040040 040040   040040 040040   040040 040040
   0     560   040040 040040   000000 120111   103040 040040   040040 040040        ..PIC
   0     564   040040 040040   040040 040040   040040 040040   040040 040040
   0     570   040040 040040   040040 040040   000000 122125   116040 040040            ..RUN
   0     574   040040 040040   040040 040040   040040 040040   040040 040040
   0     600   040040 040040   040040 040040   040040 040040   000000 123105                ..SE
   0     604   124040 040040   040040 040040   040040 040040   040040 040040    T
   0     610   040040 040040   040040 040040   040040 040040   040040 040040
   0     614   000000 123125   115040 040040   040040 040040   040040 040040    ..SUM
   0     620   040040 040040   040040 040040   040040 040040   040040 040040
   0     624   040040 040040   000000 124117   120040 040040   040040 040040        ..TOP
   0     630   040040 040040   040040 040040   040040 040040   040040 040040
   0     634   040040 040040   040040 040040   000000 125106   106040 040040            ..UFF
PL6.E3A0      #001=ZIG$INIT_HAS File=ZIG$INIT_HAS.:ZIC0TSI                       FRI 09/05/97 12:05 Page:85
   0     640   040040 040040   040040 040040   040040 040040   040040 040040
   0     644   040040 040040   040040 040040   040040 040040   000000 101114                ..AL
   0     650   123117 040040   040040 040040   040040 040040   040040 040040    SO
   0     654   040040 040040   040040 040040   040040 040040   040040 040040
   0     660   000000 101122   105101 040040   040040 040040   040040 040040    ..AREA
   0     664   040040 040040   040040 040040   040040 040040   040040 040040
   0     670   040040 040040   000000 103101   114114 040040   040040 040040        ..CALL
   0     674   040040 040040   040040 040040   040040 040040   040040 040040
   0     700   040040 040040   040040 040040   000000 103117   104105 040040            ..CODE
   0     704   040040 040040   040040 040040   040040 040040   040040 040040
   0     710   040040 040040   040040 040040   040040 040040   000000 103117                ..CO
   0     714   115120 040040   040040 040040   040040 040040   040040 040040    MP
   0     720   040040 040040   040040 040040   040040 040040   040040 040040
   0     724   000000 103117   120131 040040   040040 040040   040040 040040    ..COPY
   0     730   040040 040040   040040 040040   040040 040040   040040 040040
   0     734   040040 040040   000000 103117   122122 040040   040040 040040        ..CORR
   0     740   040040 040040   040040 040040   040040 040040   040040 040040
   0     744   040040 040040   040040 040040   000000 104101   124101 040040            ..DATA
   0     750   040040 040040   040040 040040   040040 040040   040040 040040
   0     754   040040 040040   040040 040040   040040 040040   000000 104101                ..DA
   0     760   124105 040040   040040 040040   040040 040040   040040 040040    TE
   0     764   040040 040040   040040 040040   040040 040040   040040 040040
   0     770   000000 104117   127116 040040   040040 040040   040040 040040    ..DOWN
   0     774   040040 040040   040040 040040   040040 040040   040040 040040
   0    1000   040040 040040   000000 105114   123105 040040   040040 040040        ..ELSE
   0    1004   040040 040040   040040 040040   040040 040040   040040 040040
   0    1010   040040 040040   040040 040040   000000 105130   111124 040040            ..EXIT
   0    1014   040040 040040   040040 040040   040040 040040   040040 040040
   0    1020   040040 040040   040040 040040   040040 040040   000000 106111                ..FI
   0    1024   114105 040040   040040 040040   040040 040040   040040 040040    LE
   0    1030   040040 040040   040040 040040   040040 040040   040040 040040
   0    1034   000000 106111   116104 040040   040040 040040   040040 040040    ..FIND
   0    1040   040040 040040   040040 040040   040040 040040   040040 040040
   0    1044   040040 040040   000000 106122   117115 040040   040040 040040        ..FROM
   0    1050   040040 040040   040040 040040   040040 040040   040040 040040
   0    1054   040040 040040   040040 040040   000000 111116   124117 040040            ..INTO
   0    1060   040040 040040   040040 040040   040040 040040   040040 040040
PL6.E3A0      #001=ZIG$INIT_HAS File=ZIG$INIT_HAS.:ZIC0TSI                       FRI 09/05/97 12:05 Page:86
   0    1064   040040 040040   040040 040040   040040 040040   000000 112125                ..JU
   0    1070   123124 040040   040040 040040   040040 040040   040040 040040    ST
   0    1074   040040 040040   040040 040040   040040 040040   040040 040040
   0    1100   000000 114101   123124 040040   040040 040040   040040 040040    ..LAST
   0    1104   040040 040040   040040 040040   040040 040040   040040 040040
   0    1110   040040 040040   000000 114105   106124 040040   040040 040040        ..LEFT
   0    1114   040040 040040   040040 040040   040040 040040   040040 040040
   0    1120   040040 040040   040040 040040   000000 114105   123123 040040            ..LESS
   0    1124   040040 040040   040040 040040   040040 040040   040040 040040
   0    1130   040040 040040   040040 040040   040040 040040   000000 114111                ..LI
   0    1134   116105 040040   040040 040040   040040 040040   040040 040040    NE
   0    1140   040040 040040   040040 040040   040040 040040   040040 040040
   0    1144   000000 114117   103113 040040   040040 040040   040040 040040    ..LOCK
   0    1150   040040 040040   040040 040040   040040 040040   040040 040040
   0    1154   040040 040040   000000 115117   104105 040040   040040 040040        ..MODE
   0    1160   040040 040040   040040 040040   040040 040040   040040 040040
   0    1164   040040 040040   040040 040040   000000 115117   126105 040040            ..MOVE
   0    1170   040040 040040   040040 040040   040040 040040   040040 040040
   0    1174   040040 040040   040040 040040   040040 040040   000000 116105                ..NE
   0    1200   130124 040040   040040 040040   040040 040040   040040 040040    XT
   0    1204   040040 040040   040040 040040   040040 040040   040040 040040
   0    1210   000000 116125   114114 040040   040040 040040   040040 040040    ..NULL
   0    1214   040040 040040   040040 040040   040040 040040   040040 040040
   0    1220   040040 040040   000000 117116   114131 040040   040040 040040        ..ONLY
   0    1224   040040 040040   040040 040040   040040 040040   040040 040040
   0    1230   040040 040040   040040 040040   000000 117120   105116 040040            ..OPEN
   0    1234   040040 040040   040040 040040   040040 040040   040040 040040
   0    1240   040040 040040   040040 040040   040040 040040   000000 120101                ..PA
   0    1244   107105 040040   040040 040040   040040 040040   040040 040040    GE
   0    1250   040040 040040   040040 040040   040040 040040   040040 040040
   0    1254   000000 120114   125123 040040   040040 040040   040040 040040    ..PLUS
   0    1260   040040 040040   040040 040040   040040 040040   040040 040040
   0    1264   040040 040040   000000 122105   101104 040040   040040 040040        ..READ
   0    1270   040040 040040   040040 040040   040040 040040   040040 040040
   0    1274   040040 040040   040040 040040   000000 122105   105114 040040            ..REEL
   0    1300   040040 040040   040040 040040   040040 040040   040040 040040
   0    1304   040040 040040   040040 040040   040040 040040   000000 123101                ..SA
PL6.E3A0      #001=ZIG$INIT_HAS File=ZIG$INIT_HAS.:ZIC0TSI                       FRI 09/05/97 12:05 Page:87
   0    1310   115105 040040   040040 040040   040040 040040   040040 040040    ME
   0    1314   040040 040040   040040 040040   040040 040040   040040 040040
   0    1320   000000 123105   116104 040040   040040 040040   040040 040040    ..SEND
   0    1324   040040 040040   040040 040040   040040 040040   040040 040040
   0    1330   040040 040040   000000 123105   124123 040040   040040 040040        ..SETS
   0    1334   040040 040040   040040 040040   040040 040040   040040 040040
   0    1340   040040 040040   040040 040040   000000 123111   107116 040040            ..SIGN
   0    1344   040040 040040   040040 040040   040040 040040   040040 040040
   0    1350   040040 040040   040040 040040   040040 040040   000000 123111                ..SI
   0    1354   132105 040040   040040 040040   040040 040040   040040 040040    ZE
   0    1360   040040 040040   040040 040040   040040 040040   040040 040040
   0    1364   000000 123117   122124 040040   040040 040040   040040 040040    ..SORT
   0    1370   040040 040040   040040 040040   040040 040040   040040 040040
   0    1374   040040 040040   000000 123124   117120 040040   040040 040040        ..STOP
   0    1400   040040 040040   040040 040040   040040 040040   040040 040040
   0    1404   040040 040040   040040 040040   000000 123131   116103 040040            ..SYNC
   0    1410   040040 040040   040040 040040   040040 040040   040040 040040
   0    1414   040040 040040   040040 040040   040040 040040   000000 124101                ..TA
   0    1420   120105 040040   040040 040040   040040 040040   040040 040040    PE
   0    1424   040040 040040   040040 040040   040040 040040   040040 040040
   0    1430   000000 124105   130124 040040   040040 040040   040040 040040    ..TEXT
   0    1434   040040 040040   040040 040040   040040 040040   040040 040040
   0    1440   040040 040040   000000 124110   101116 040040   040040 040040        ..THAN
   0    1444   040040 040040   040040 040040   040040 040040   040040 040040
   0    1450   040040 040040   040040 040040   000000 124110   122125 040040            ..THRU
   0    1454   040040 040040   040040 040040   040040 040040   040040 040040
   0    1460   040040 040040   040040 040040   040040 040040   000000 124111                ..TI
   0    1464   115105 040040   040040 040040   040040 040040   040040 040040    ME
   0    1470   040040 040040   040040 040040   040040 040040   040040 040040
   0    1474   000000 124131   120105 040040   040040 040040   040040 040040    ..TYPE
   0    1500   040040 040040   040040 040040   040040 040040   040040 040040
   0    1504   040040 040040   000000 125116   111124 040040   040040 040040        ..UNIT
   0    1510   040040 040040   040040 040040   040040 040040   040040 040040
   0    1514   040040 040040   040040 040040   000000 125120   117116 040040            ..UPON
   0    1520   040040 040040   040040 040040   040040 040040   040040 040040
   0    1524   040040 040040   040040 040040   040040 040040   000000 127110                ..WH
   0    1530   105116 040040   040040 040040   040040 040040   040040 040040    EN
PL6.E3A0      #001=ZIG$INIT_HAS File=ZIG$INIT_HAS.:ZIC0TSI                       FRI 09/05/97 12:05 Page:88
   0    1534   040040 040040   040040 040040   040040 040040   040040 040040
   0    1540   000000 127111   124110 040040   040040 040040   040040 040040    ..WITH
   0    1544   040040 040040   040040 040040   040040 040040   040040 040040
   0    1550   040040 040040   000000 132105   122117 040040   040040 040040        ..ZERO
   0    1554   040040 040040   040040 040040   040040 040040   040040 040040
   0    1560   040040 040040   040040 040040   000000 101106   124105 122040            ..AFTER
   0    1564   040040 040040   040040 040040   040040 040040   040040 040040
   0    1570   040040 040040   040040 040040   040040 040040   000000 101114                ..AL
   0    1574   124105 122040   040040 040040   040040 040040   040040 040040    TER
   0    1600   040040 040040   040040 040040   040040 040040   040040 040040
   0    1604   000000 101122   105101 123040   040040 040040   040040 040040    ..AREAS
   0    1610   040040 040040   040040 040040   040040 040040   040040 040040
   0    1614   040040 040040   000000 101123   103111 111040   040040 040040        ..ASCII
   0    1620   040040 040040   040040 040040   040040 040040   040040 040040
   0    1624   040040 040040   040040 040040   000000 102114   101116 113040            ..BLANK
   0    1630   040040 040040   040040 040040   040040 040040   040040 040040
   0    1634   040040 040040   040040 040040   040040 040040   000000 102114                ..BL
   0    1640   117103 113040   040040 040040   040040 040040   040040 040040    OCK
   0    1644   040040 040040   040040 040040   040040 040040   040040 040040
   0    1650   000000 103114   117123 105040   040040 040040   040040 040040    ..CLOSE
   0    1654   040040 040040   040040 040040   040040 040040   040040 040040
   0    1660   040040 040040   000000 103117   102117 114040   040040 040040        ..COBOL
   0    1664   040040 040040   040040 040040   040040 040040   040040 040040
   0    1670   040040 040040   040040 040040   000000 103117   115115 101040            ..COMMA
   0    1674   040040 040040   040040 040040   040040 040040   040040 040040
   0    1700   040040 040040   040040 040040   040040 040040   000000 103117                ..CO
   0    1704   125116 124040   040040 040040   040040 040040   040040 040040    UNT
   0    1710   040040 040040   040040 040040   040040 040040   040040 040040
   0    1714   000000 105115   120124 131040   040040 040040   040040 040040    ..EMPTY
   0    1720   040040 040040   040040 040040   040040 040040   040040 040040
   0    1724   040040 040040   000000 105116   124105 122040   040040 040040        ..ENTER
   0    1730   040040 040040   040040 040040   040040 040040   040040 040040
   0    1734   040040 040040   040040 040040   000000 105116   124122 131040            ..ENTRY
   0    1740   040040 040040   040040 040040   040040 040040   040040 040040
   0    1744   040040 040040   040040 040040   040040 040040   000000 105121                ..EQ
   0    1750   125101 114040   040040 040040   040040 040040   040040 040040    UAL
   0    1754   040040 040040   040040 040040   040040 040040   040040 040040
PL6.E3A0      #001=ZIG$INIT_HAS File=ZIG$INIT_HAS.:ZIC0TSI                       FRI 09/05/97 12:05 Page:89
   0    1760   000000 105122   101123 105040   040040 040040   040040 040040    ..ERASE
   0    1764   040040 040040   040040 040040   040040 040040   040040 040040
   0    1770   040040 040040   000000 105122   122117 122040   040040 040040        ..ERROR
   0    1774   040040 040040   040040 040040   040040 040040   040040 040040
   0    2000   040040 040040   040040 040040   000000 105126   105122 131040            ..EVERY
   0    2004   040040 040040   040040 040040   040040 040040   040040 040040
   0    2010   040040 040040   040040 040040   040040 040040   000000 106111                ..FI
   0    2014   116101 114040   040040 040040   040040 040040   040040 040040    NAL
   0    2020   040040 040040   040040 040040   040040 040040   040040 040040
   0    2024   000000 106111   122123 124040   040040 040040   040040 040040    ..FIRST
   0    2030   040040 040040   040040 040040   040040 040040   040040 040040
   0    2034   040040 040040   000000 107122   117125 120040   040040 040040        ..GROUP
   0    2040   040040 040040   040040 040040   040040 040040   040040 040040
   0    2044   040040 040040   040040 040040   000000 111116   104105 130040            ..INDEX
   0    2050   040040 040040   040040 040040   040040 040040   040040 040040
   0    2054   040040 040040   040040 040040   040040 040040   000000 111116                ..IN
   0    2060   120125 124040   040040 040040   040040 040040   040040 040040    PUT
   0    2064   040040 040040   040040 040040   040040 040040   040040 040040
   0    2070   000000 114101   102105 114040   040040 040040   040040 040040    ..LABEL
   0    2074   040040 040040   040040 040040   040040 040040   040040 040040
   0    2100   040040 040040   000000 114111   115111 124040   040040 040040        ..LIMIT
   0    2104   040040 040040   040040 040040   040040 040040   040040 040040
   0    2110   040040 040040   040040 040040   000000 114111   116105 123040            ..LINES
   0    2114   040040 040040   040040 040040   040040 040040   040040 040040
   0    2120   040040 040040   040040 040040   040040 040040   000000 115105                ..ME
   0    2124   122107 105040   040040 040040   040040 040040   040040 040040    RGE
   0    2130   040040 040040   040040 040040   040040 040040   040040 040040
   0    2134   000000 117122   104105 122040   040040 040040   040040 040040    ..ORDER
   0    2140   040040 040040   040040 040040   040040 040040   040040 040040
   0    2144   040040 040040   000000 117124   110105 122040   040040 040040        ..OTHER
   0    2150   040040 040040   040040 040040   040040 040040   040040 040040
   0    2154   040040 040040   040040 040040   000000 117127   116105 122040            ..OWNER
   0    2160   040040 040040   040040 040040   040040 040040   040040 040040
   0    2164   040040 040040   040040 040040   040040 040040   000000 120122                ..PR
   0    2170   111117 122040   040040 040040   040040 040040   040040 040040    IOR
   0    2174   040040 040040   040040 040040   040040 040040   040040 040040
   0    2200   000000 121125   105125 105040   040040 040040   040040 040040    ..QUEUE
PL6.E3A0      #001=ZIG$INIT_HAS File=ZIG$INIT_HAS.:ZIC0TSI                       FRI 09/05/97 12:05 Page:90
   0    2204   040040 040040   040040 040040   040040 040040   040040 040040
   0    2210   040040 040040   000000 121125   117124 105040   040040 040040        ..QUOTE
   0    2214   040040 040040   040040 040040   040040 040040   040040 040040
   0    2220   040040 040040   040040 040040   000000 122105   101104 131040            ..READY
   0    2224   040040 040040   040040 040040   040040 040040   040040 040040
   0    2230   040040 040040   040040 040040   040040 040040   000000 122105                ..RE
   0    2234   101114 115040   040040 040040   040040 040040   040040 040040    ALM
   0    2240   040040 040040   040040 040040   040040 040040   040040 040040
   0    2244   000000 122105   122125 116040   040040 040040   040040 040040    ..RERUN
   0    2250   040040 040040   040040 040040   040040 040040   040040 040040
   0    2254   040040 040040   000000 122105   123105 124040   040040 040040        ..RESET
   0    2260   040040 040040   040040 040040   040040 040040   040040 040040
   0    2264   040040 040040   040040 040040   000000 122111   107110 124040            ..RIGHT
   0    2270   040040 040040   040040 040040   040040 040040   040040 040040
   0    2274   040040 040040   040040 040040   040040 040040   000000 123120                ..SP
   0    2300   101103 105040   040040 040040   040040 040040   040040 040040    ACE
   0    2304   040040 040040   040040 040040   040040 040040   040040 040040
   0    2310   000000 123124   101122 124040   040040 040040   040040 040040    ..START
   0    2314   040040 040040   040040 040040   040040 040040   040040 040040
   0    2320   040040 040040   000000 123124   117122 105040   040040 040040        ..STORE
   0    2324   040040 040040   040040 040040   040040 040040   040040 040040
   0    2330   040040 040040   040040 040040   000000 123131   123111 116040            ..SYSIN
   0    2334   040040 040040   040040 040040   040040 040040   040040 040040
   0    2340   040040 040040   040040 040040   040040 040040   000000 124101                ..TA
   0    2344   102114 105040   040040 040040   040040 040040   040040 040040    BLE
   0    2350   040040 040040   040040 040040   040040 040040   040040 040040
   0    2354   000000 124111   115105 123040   040040 040040   040040 040040    ..TIMES
   0    2360   040040 040040   040040 040040   040040 040040   040040 040040
   0    2364   040040 040040   000000 125116   124111 114040   040040 040040        ..UNTIL
   0    2370   040040 040040   040040 040040   040040 040040   040040 040040
   0    2374   040040 040040   040040 040040   000000 125123   101107 105040            ..USAGE
   0    2400   040040 040040   040040 040040   040040 040040   040040 040040
   0    2404   040040 040040   040040 040040   040040 040040   000000 125123                ..US
   0    2410   111116 107040   040040 040040   040040 040040   040040 040040    ING
   0    2414   040040 040040   040040 040040   040040 040040   040040 040040
   0    2420   000000 126101   114125 105040   040040 040040   040040 040040    ..VALUE
   0    2424   040040 040040   040040 040040   040040 040040   040040 040040
PL6.E3A0      #001=ZIG$INIT_HAS File=ZIG$INIT_HAS.:ZIC0TSI                       FRI 09/05/97 12:05 Page:91
   0    2430   040040 040040   000000 127117   122104 123040   040040 040040        ..WORDS
   0    2434   040040 040040   040040 040040   040040 040040   040040 040040
   0    2440   040040 040040   040040 040040   000000 127122   111124 105040            ..WRITE
   0    2444   040040 040040   040040 040040   040040 040040   040040 040040
   0    2450   040040 040040   040040 040040   040040 040040   000000 132105                ..ZE
   0    2454   122117 123040   040040 040040   040040 040040   040040 040040    ROS
   0    2460   040040 040040   040040 040040   040040 040040   040040 040040
   0    2464   000000 101103   103105 120124   040040 040040   040040 040040    ..ACCEPT
   0    2470   040040 040040   040040 040040   040040 040040   040040 040040
   0    2474   040040 040040   000000 101103   103105 123123   040040 040040        ..ACCESS
   0    2500   040040 040040   040040 040040   040040 040040   040040 040040
   0    2504   040040 040040   040040 040040   000000 101123   123111 107116            ..ASSIGN
   0    2510   040040 040040   040040 040040   040040 040040   040040 040040
   0    2514   040040 040040   040040 040040   040040 040040   000000 101125                ..AU
   0    2520   124110 117122   040040 040040   040040 040040   040040 040040    THOR
   0    2524   040040 040040   040040 040040   040040 040040   040040 040040
   0    2530   000000 102105   106117 122105   040040 040040   040040 040040    ..BEFORE
   0    2534   040040 040040   040040 040040   040040 040040   040040 040040
   0    2540   040040 040040   000000 102117   124124 117115   040040 040040        ..BOTTOM
   0    2544   040040 040040   040040 040040   040040 040040   040040 040040
   0    2550   040040 040040   040040 040040   000000 103101   116103 105114            ..CANCEL
   0    2554   040040 040040   040040 040040   040040 040040   040040 040040
   0    2560   040040 040040   040040 040040   040040 040040   000000 103117                ..CO
   0    2564   114125 115116   040040 040040   040040 040040   040040 040040    LUMN
   0    2570   040040 040040   040040 040040   040040 040040   040040 040040
   0    2574   000000 103117   115120 055061   040040 040040   040040 040040    ..COMP-1
   0    2600   040040 040040   040040 040040   040040 040040   040040 040040
   0    2604   040040 040040   000000 103117   115120 055062   040040 040040        ..COMP-2
   0    2610   040040 040040   040040 040040   040040 040040   040040 040040
   0    2614   040040 040040   040040 040040   000000 103117   115120 055063            ..COMP-3
   0    2620   040040 040040   040040 040040   040040 040040   040040 040040
   0    2624   040040 040040   040040 040040   040040 040040   000000 103117                ..CO
   0    2630   115120 055064   040040 040040   040040 040040   040040 040040    MP-4
   0    2634   040040 040040   040040 040040   040040 040040   040040 040040
   0    2640   000000 103117   115120 055065   040040 040040   040040 040040    ..COMP-5
   0    2644   040040 040040   040040 040040   040040 040040   040040 040040
   0    2650   040040 040040   000000 103117   115120 055066   040040 040040        ..COMP-6
PL6.E3A0      #001=ZIG$INIT_HAS File=ZIG$INIT_HAS.:ZIC0TSI                       FRI 09/05/97 12:05 Page:92
   0    2654   040040 040040   040040 040040   040040 040040   040040 040040
   0    2660   040040 040040   040040 040040   000000 104102   055113 105131            ..DB-KEY
   0    2664   040040 040040   040040 040040   040040 040040   040040 040040
   0    2670   040040 040040   040040 040040   040040 040040   000000 104105                ..DE
   0    2674   114105 124105   040040 040040   040040 040040   040040 040040    LETE
   0    2700   040040 040040   040040 040040   040040 040040   040040 040040
   0    2704   000000 104105   124101 111114   040040 040040   040040 040040    ..DETAIL
   0    2710   040040 040040   040040 040040   040040 040040   040040 040040
   0    2714   040040 040040   000000 104111   126111 104105   040040 040040        ..DIVIDE
   0    2720   040040 040040   040040 040040   040040 040040   040040 040040
   0    2724   040040 040040   040040 040040   000000 105102   103104 111103            ..EBCDIC
   0    2730   040040 040040   040040 040040   040040 040040   040040 040040
   0    2734   040040 040040   040040 040040   040040 040040   000000 105116                ..EN
   0    2740   101102 114105   040040 040040   040040 040040   040040 040040    ABLE
   0    2744   040040 040040   040040 040040   040040 040040   040040 040040
   0    2750   000000 105121   125101 114123   040040 040040   040040 040040    ..EQUALS
   0    2754   040040 040040   040040 040040   040040 040040   040040 040040
   0    2760   040040 040040   000000 105130   124105 116104   040040 040040        ..EXTEND
   0    2764   040040 040040   040040 040040   040040 040040   040040 040040
   0    2770   040040 040040   040040 040040   000000 106111   114114 105122            ..FILLER
   0    2774   040040 040040   040040 040040   040040 040040   040040 040040
   0    3000   040040 040040   040040 040040   040040 040040   000000 106111                ..FI
   0    3004   116111 123110   040040 040040   040040 040040   040040 040040    NISH
   0    3010   040040 040040   040040 040040   040040 040040   040040 040040
   0    3014   000000 107111   126111 116107   040040 040040   040040 040040    ..GIVING
   0    3020   040040 040040   040040 040040   040040 040040   040040 040040
   0    3024   040040 040040   000000 111104   123055 111111   040040 040040        ..IDS-II
   0    3030   040040 040040   040040 040040   040040 040040   040040 040040
   0    3034   040040 040040   040040 040040   000000 114105   116107 124110            ..LENGTH
   0    3040   040040 040040   040040 040040   040040 040040   040040 040040
   0    3044   040040 040040   040040 040040   040040 040040   000000 114111                ..LI
   0    3050   115111 124123   040040 040040   040040 040040   040040 040040    MITS
   0    3054   040040 040040   040040 040040   040040 040040   040040 040040
   0    3060   000000 114111   116101 107105   040040 040040   040040 040040    ..LINAGE
   0    3064   040040 040040   040040 040040   040040 040040   040040 040040
   0    3070   040040 040040   000000 115105   115102 105122   040040 040040        ..MEMBER
   0    3074   040040 040040   040040 040040   040040 040040   040040 040040
PL6.E3A0      #001=ZIG$INIT_HAS File=ZIG$INIT_HAS.:ZIC0TSI                       FRI 09/05/97 12:05 Page:93
   0    3100   040040 040040   040040 040040   000000 115105   115117 122131            ..MEMORY
   0    3104   040040 040040   040040 040040   040040 040040   040040 040040
   0    3110   040040 040040   040040 040040   040040 040040   000000 115117                ..MO
   0    3114   104111 106131   040040 040040   040040 040040   040040 040040    DIFY
   0    3120   040040 040040   040040 040040   040040 040040   040040 040040
   0    3124   000000 116101   124111 126105   040040 040040   040040 040040    ..NATIVE
   0    3130   040040 040040   040040 040040   040040 040040   040040 040040
   0    3134   040040 040040   000000 116125   115102 105122   040040 040040        ..NUMBER
   0    3140   040040 040040   040040 040040   040040 040040   040040 040040
   0    3144   040040 040040   040040 040040   000000 117103   103125 122123            ..OCCURS
   0    3150   040040 040040   040040 040040   040040 040040   040040 040040
   0    3154   040040 040040   040040 040040   040040 040040   000000 117125                ..OU
   0    3160   124120 125124   040040 040040   040040 040040   040040 040040    TPUT
   0    3164   040040 040040   040040 040040   040040 040040   040040 040040
   0    3170   000000 121125   117124 105123   040040 040040   040040 040040    ..QUOTES
   0    3174   040040 040040   040040 040040   040040 040040   040040 040040
   0    3200   040040 040040   000000 122101   116104 117115   040040 040040        ..RANDOM
   0    3204   040040 040040   040040 040040   040040 040040   040040 040040
   0    3210   040040 040040   040040 040040   000000 122105   101114 115123            ..REALMS
   0    3214   040040 040040   040040 040040   040040 040040   040040 040040
   0    3220   040040 040040   040040 040040   040040 040040   000000 122105                ..RE
   0    3224   103117 122104   040040 040040   040040 040040   040040 040040    CORD
   0    3230   040040 040040   040040 040040   040040 040040   040040 040040
   0    3234   000000 122105   120117 122124   040040 040040   040040 040040    ..REPORT
   0    3240   040040 040040   040040 040040   040040 040040   040040 040040
   0    3244   040040 040040   000000 122105   124125 122116   040040 040040        ..RETURN
   0    3250   040040 040040   040040 040040   040040 040040   040040 040040
   0    3254   040040 040040   040040 040040   000000 122105   127111 116104            ..REWIND
   0    3260   040040 040040   040040 040040   040040 040040   040040 040040
   0    3264   040040 040040   040040 040040   040040 040040   000000 123105                ..SE
   0    3270   101122 103110   040040 040040   040040 040040   040040 040040    ARCH
   0    3274   040040 040040   040040 040040   040040 040040   040040 040040
   0    3300   000000 123105   114105 103124   040040 040040   040040 040040    ..SELECT
   0    3304   040040 040040   040040 040040   040040 040040   040040 040040
   0    3310   040040 040040   000000 123117   125122 103105   040040 040040        ..SOURCE
   0    3314   040040 040040   040040 040040   040040 040040   040040 040040
   0    3320   040040 040040   040040 040040   000000 123120   101103 105123            ..SPACES
PL6.E3A0      #001=ZIG$INIT_HAS File=ZIG$INIT_HAS.:ZIC0TSI                       FRI 09/05/97 12:05 Page:94
   0    3324   040040 040040   040040 040040   040040 040040   040040 040040
   0    3330   040040 040040   040040 040040   040040 040040   000000 123124                ..ST
   0    3334   101124 125123   040040 040040   040040 040040   040040 040040    ATUS
   0    3340   040040 040040   040040 040040   040040 040040   040040 040040
   0    3344   000000 123124   122111 116107   040040 040040   040040 040040    ..STRING
   0    3350   040040 040040   040040 040040   040040 040040   040040 040040
   0    3354   040040 040040   000000 123131   123117 125124   040040 040040        ..SYSOUT
   0    3360   040040 040040   040040 040040   040040 040040   040040 040040
   0    3364   040040 040040   040040 040040   000000 124105   116101 116124            ..TENANT
   0    3370   040040 040040   040040 040040   040040 040040   040040 040040
   0    3374   040040 040040   040040 040040   040040 040040   000000 125120                ..UP
   0    3400   104101 124105   040040 040040   040040 040040   040040 040040    DATE
   0    3404   040040 040040   040040 040040   040040 040040   040040 040040
   0    3410   000000 126101   114125 105123   040040 040040   040040 040040    ..VALUES
   0    3414   040040 040040   040040 040040   040040 040040   040040 040040
   0    3420   040040 040040   000000 127111   124110 111116   040040 040040        ..WITHIN
   0    3424   040040 040040   040040 040040   040040 040040   040040 040040
   0    3430   040040 040040   040040 040040   000000 132105   122117 105123            ..ZEROES
   0    3434   040040 040040   040040 040040   040040 040040   040040 040040
   0    3440   040040 040040   040040 040040   040040 040040   000000 103117                ..CO
   0    3444   115120 125124   105040 040040   040040 040040   040040 040040    MPUTE
   0    3450   040040 040040   040040 040040   040040 040040   040040 040040
   0    3454   000000 103117   116116 105103   124040 040040   040040 040040    ..CONNECT
   0    3460   040040 040040   040040 040040   040040 040040   040040 040040
   0    3464   040040 040040   000000 103117   116123 117114   105040 040040        ..CONSOLE
   0    3470   040040 040040   040040 040040   040040 040040   040040 040040
   0    3474   040040 040040   040040 040040   000000 103117   116124 122117            ..CONTRO
   0    3500   114040 040040   040040 040040   040040 040040   040040 040040    L
   0    3504   040040 040040   040040 040040   040040 040040   000000 103125                ..CU
   0    3510   122122 105116   124040 040040   040040 040040   040040 040040    RRENT
   0    3514   040040 040040   040040 040040   040040 040040   040040 040040
   0    3520   000000 104105   106101 125114   124040 040040   040040 040040    ..DEFAULT
   0    3524   040040 040040   040040 040040   040040 040040   040040 040040
   0    3530   040040 040040   000000 104111   123101 102114   105040 040040        ..DISABLE
   0    3534   040040 040040   040040 040040   040040 040040   040040 040040
   0    3540   040040 040040   040040 040040   000000 104111   123120 114101            ..DISPLA
   0    3544   131040 040040   040040 040040   040040 040040   040040 040040    Y
PL6.E3A0      #001=ZIG$INIT_HAS File=ZIG$INIT_HAS.:ZIC0TSI                       FRI 09/05/97 12:05 Page:95
   0    3550   040040 040040   040040 040040   040040 040040   000000 104131                ..DY
   0    3554   116101 115111   103040 040040   040040 040040   040040 040040    NAMIC
   0    3560   040040 040040   040040 040040   040040 040040   040040 040040
   0    3564   000000 106111   114105 055111   104040 040040   040040 040040    ..FILE-ID
   0    3570   040040 040040   040040 040040   040040 040040   040040 040040
   0    3574   040040 040040   000000 106117   117124 111116   107040 040040        ..FOOTING
   0    3600   040040 040040   040040 040040   040040 040040   040040 040040
   0    3604   040040 040040   040040 040040   000000 107122   105101 124105            ..GREATE
   0    3610   122040 040040   040040 040040   040040 040040   040040 040040    R
   0    3614   040040 040040   040040 040040   040040 040040   000000 110105                ..HE
   0    3620   101104 111116   107040 040040   040040 040040   040040 040040    ADING
   0    3624   040040 040040   040040 040040   040040 040040   040040 040040
   0    3630   000000 111116   104105 130105   104040 040040   040040 040040    ..INDEXED
   0    3634   040040 040040   040040 040040   040040 040040   040040 040040
   0    3640   040040 040040   000000 111116   111124 111101   114040 040040        ..INITIAL
   0    3644   040040 040040   040040 040040   040040 040040   040040 040040
   0    3650   040040 040040   040040 040040   000000 111116   123120 105103            ..INSPEC
   0    3654   124040 040040   040040 040040   040040 040040   040040 040040    T
   0    3660   040040 040040   040040 040040   040040 040040   000000 111116                ..IN
   0    3664   126101 114111   104040 040040   040040 040040   040040 040040    VALID
   0    3670   040040 040040   040040 040040   040040 040040   040040 040040
   0    3674   000000 114105   101104 111116   107040 040040   040040 040040    ..LEADING
   0    3700   040040 040040   040040 040040   040040 040040   040040 040040
   0    3704   040040 040040   000000 114111   116113 101107   105040 040040        ..LINKAGE
   0    3710   040040 040040   040040 040040   040040 040040   040040 040040
   0    3714   040040 040040   040040 040040   000000 114117   103101 114114            ..LOCALL
   0    3720   131040 040040   040040 040040   040040 040040   040040 040040    Y
   0    3724   040040 040040   040040 040040   040040 040040   000000 115101                ..MA
   0    3730   130111 115125   115040 040040   040040 040040   040040 040040    XIMUM
   0    3734   040040 040040   040040 040040   040040 040040   040040 040040
   0    3740   000000 115105   115102 105122   123040 040040   040040 040040    ..MEMBERS
   0    3744   040040 040040   040040 040040   040040 040040   040040 040040
   0    3750   040040 040040   000000 115105   123123 101107   105040 040040        ..MESSAGE
   0    3754   040040 040040   040040 040040   040040 040040   040040 040040
   0    3760   040040 040040   040040 040040   000000 115117   104125 114105            ..MODULE
   0    3764   123040 040040   040040 040040   040040 040040   040040 040040    S
   0    3770   040040 040040   040040 040040   040040 040040   000000 115125                ..MU
PL6.E3A0      #001=ZIG$INIT_HAS File=ZIG$INIT_HAS.:ZIC0TSI                       FRI 09/05/97 12:05 Page:96
   0    3774   114124 111103   123040 040040   040040 040040   040040 040040    LTICS
   0    4000   040040 040040   040040 040040   040040 040040   040040 040040
   0    4004   000000 116125   115105 122111   103040 040040   040040 040040    ..NUMERIC
   0    4010   040040 040040   040040 040040   040040 040040   040040 040040
   0    4014   040040 040040   000000 117115   111124 124105   104040 040040        ..OMITTED
   0    4020   040040 040040   040040 040040   040040 040040   040040 040040
   0    4024   040040 040040   040040 040040   000000 120105   122106 117122            ..PERFOR
   0    4030   115040 040040   040040 040040   040040 040040   040040 040040    M
   0    4034   040040 040040   040040 040040   040040 040040   000000 120111                ..PI
   0    4040   103124 125122   105040 040040   040040 040040   040040 040040    CTURE
   0    4044   040040 040040   040040 040040   040040 040040   040040 040040
   0    4050   000000 120117   111116 124105   122040 040040   040040 040040    ..POINTER
   0    4054   040040 040040   040040 040040   040040 040040   040040 040040
   0    4060   040040 040040   000000 120122   111126 101103   131040 040040        ..PRIVACY
   0    4064   040040 040040   040040 040040   040040 040040   040040 040040
   0    4070   040040 040040   040040 040040   000000 120122   117103 105105            ..PROCEE
   0    4074   104040 040040   040040 040040   040040 040040   040040 040040    D
   0    4100   040040 040040   040040 040040   040040 040040   000000 120122                ..PR
   0    4104   117107 122101   115040 040040   040040 040040   040040 040040    OGRAM
   0    4110   040040 040040   040040 040040   040040 040040   040040 040040
   0    4114   000000 122105   103105 111126   105040 040040   040040 040040    ..RECEIVE
   0    4120   040040 040040   040040 040040   040040 040040   040040 040040
   0    4124   040040 040040   000000 122105   103117 122104   123040 040040        ..RECORDS
   0    4130   040040 040040   040040 040040   040040 040040   040040 040040
   0    4134   040040 040040   040040 040040   000000 122105   114105 101123            ..RELEAS
   0    4140   105040 040040   040040 040040   040040 040040   040040 040040    E
   0    4144   040040 040040   040040 040040   040040 040040   000000 122105                ..RE
   0    4150   115117 126101   114040 040040   040040 040040   040040 040040    MOVAL
   0    4154   040040 040040   040040 040040   040040 040040   040040 040040
   0    4160   000000 122105   116101 115105   123040 040040   040040 040040    ..RENAMES
   0    4164   040040 040040   040040 040040   040040 040040   040040 040040
   0    4170   040040 040040   000000 122105   120114 101103   105040 040040        ..REPLACE
   0    4174   040040 040040   040040 040040   040040 040040   040040 040040
   0    4200   040040 040040   040040 040040   000000 122105   120117 122124            ..REPORT
   0    4204   123040 040040   040040 040040   040040 040040   040040 040040    S
   0    4210   040040 040040   040040 040040   040040 040040   000000 122105                ..RE
   0    4214   123105 122126   105040 040040   040040 040040   040040 040040    SERVE
PL6.E3A0      #001=ZIG$INIT_HAS File=ZIG$INIT_HAS.:ZIC0TSI                       FRI 09/05/97 12:05 Page:97
   0    4220   040040 040040   040040 040040   040040 040040   040040 040040
   0    4224   000000 122105   127122 111124   105040 040040   040040 040040    ..REWRITE
   0    4230   040040 040040   040040 040040   040040 040040   040040 040040
   0    4234   040040 040040   000000 122117   125116 104105   104040 040040        ..ROUNDED
   0    4240   040040 040040   040040 040040   040040 040040   040040 040040
   0    4244   040040 040040   040040 040040   000000 123105   103124 111117            ..SECTIO
   0    4250   116040 040040   040040 040040   040040 040040   040040 040040    N
   0    4254   040040 040040   040040 040040   040040 040040   000000 123105                ..SE
   0    4260   107115 105116   124040 040040   040040 040040   040040 040040    GMENT
   0    4264   040040 040040   040040 040040   040040 040040   040040 040040
   0    4270   000000 124110   122117 125107   110040 040040   040040 040040    ..THROUGH
   0    4274   040040 040040   040040 040040   040040 040040   040040 040040
   0    4300   040040 040040   000000 126101   122131 111116   107040 040040        ..VARYING
   0    4304   040040 040040   040040 040040   040040 040040   040040 040040
   0    4310   040040 040040   040040 040040   000000 103117   104105 055123            ..CODE-S
   0    4314   105124 040040   040040 040040   040040 040040   040040 040040    ET
   0    4320   040040 040040   040040 040040   040040 040040   000000 103117                ..CO
   0    4324   116123 124101   116124 040040   040040 040040   040040 040040    NSTANT
   0    4330   040040 040040   040040 040040   040040 040040   040040 040040
   0    4334   000000 103117   116124 101111   116123 040040   040040 040040    ..CONTAINS
   0    4340   040040 040040   040040 040040   040040 040040   040040 040040
   0    4344   040040 040040   000000 103117   116124 122117   114123 040040        ..CONTROLS
   0    4350   040040 040040   040040 040040   040040 040040   040040 040040
   0    4354   040040 040040   040040 040040   000000 103125   122122 105116            ..CURREN
   0    4360   103131 040040   040040 040040   040040 040040   040040 040040    CY
   0    4364   040040 040040   040040 040040   040040 040040   000000 104111                ..DI
   0    4370   126111 123111   117116 040040   040040 040040   040040 040040    VISION
   0    4374   040040 040040   040040 040040   040040 040040   040040 040040
   0    4400   000000 107105   116105 122101   124105 040040   040040 040040    ..GENERATE
   0    4404   040040 040040   040040 040040   040040 040040   040040 040040
   0    4410   040040 040040   000000 111116   104111 103101   124105 040040        ..INDICATE
   0    4414   040040 040040   040040 040040   040040 040040   040040 040040
   0    4420   040040 040040   040040 040040   000000 111116   111124 111101            ..INITIA
   0    4424   124105 040040   040040 040040   040040 040040   040040 040040    TE
   0    4430   040040 040040   040040 040040   040040 040040   000000 114105                ..LE
   0    4434   126105 114055   066062 040040   040040 040040   040040 040040    VEL-62
   0    4440   040040 040040   040040 040040   040040 040040   040040 040040
PL6.E3A0      #001=ZIG$INIT_HAS File=ZIG$INIT_HAS.:ZIC0TSI                       FRI 09/05/97 12:05 Page:98
   0    4444   000000 114105   126105 114055   066064 040040   040040 040040    ..LEVEL-64
   0    4450   040040 040040   040040 040040   040040 040040   040040 040040
   0    4454   040040 040040   000000 114105   126105 114055   066066 040040        ..LEVEL-66
   0    4460   040040 040040   040040 040040   040040 040040   040040 040040
   0    4464   040040 040040   040040 040040   000000 114105   126105 114055            ..LEVEL-
   0    4470   066070 040040   040040 040040   040040 040040   040040 040040    68
   0    4474   040040 040040   040040 040040   040040 040040   000000 115125                ..MU
   0    4500   114124 111120   114105 040040   040040 040040   040040 040040    LTIPLE
   0    4504   040040 040040   040040 040040   040040 040040   040040 040040
   0    4510   000000 115125   114124 111120   114131 040040   040040 040040    ..MULTIPLY
   0    4514   040040 040040   040040 040040   040040 040040   040040 040040
   0    4520   040040 040040   000000 116105   107101 124111   126105 040040        ..NEGATIVE
   0    4524   040040 040040   040040 040040   040040 040040   040040 040040
   0    4530   040040 040040   040040 040040   000000 117120   124111 117116            ..OPTION
   0    4534   101114 040040   040040 040040   040040 040040   040040 040040    AL
   0    4540   040040 040040   040040 040040   040040 040040   000000 117126                ..OV
   0    4544   105122 106114   117127 040040   040040 040040   040040 040040    ERFLOW
   0    4550   040040 040040   040040 040040   040040 040040   040040 040040
   0    4554   000000 120117   123111 124111   117116 040040   040040 040040    ..POSITION
   0    4560   040040 040040   040040 040040   040040 040040   040040 040040
   0    4564   040040 040040   000000 120117   123111 124111   126105 040040        ..POSITIVE
   0    4570   040040 040040   040040 040040   040040 040040   040040 040040
   0    4574   040040 040040   040040 040040   000000 120122   111116 124111            ..PRINTI
   0    4600   116107 040040   040040 040040   040040 040040   040040 040040    NG
   0    4604   040040 040040   040040 040040   040040 040040   000000 122105                ..RE
   0    4610   114101 124111   126105 040040   040040 040040   040040 040040    LATIVE
   0    4614   040040 040040   040040 040040   040040 040040   040040 040040
   0    4620   000000 122105   126105 122123   105104 040040   040040 040040    ..REVERSED
   0    4624   040040 040040   040040 040040   040040 040040   040040 040040
   0    4630   040040 040040   000000 123105   103125 122111   124131 040040        ..SECURITY
   0    4634   040040 040040   040040 040040   040040 040040   040040 040040
   0    4640   040040 040040   040040 040040   000000 123105   116124 105116            ..SENTEN
   0    4644   103105 040040   040040 040040   040040 040040   040040 040040    CE
   0    4650   040040 040040   040040 040040   040040 040040   000000 123105                ..SE
   0    4654   120101 122101   124105 040040   040040 040040   040040 040040    PARATE
   0    4660   040040 040040   040040 040040   040040 040040   040040 040040
   0    4664   000000 123105   121125 105116   103105 040040   040040 040040    ..SEQUENCE
PL6.E3A0      #001=ZIG$INIT_HAS File=ZIG$INIT_HAS.:ZIC0TSI                       FRI 09/05/97 12:05 Page:99
   0    4670   040040 040040   040040 040040   040040 040040   040040 040040
   0    4674   040040 040040   000000 123124   101116 104101   122104 040040        ..STANDARD
   0    4700   040040 040040   040040 040040   040040 040040   040040 040040
   0    4704   040040 040040   040040 040040   000000 123125   102124 122101            ..SUBTRA
   0    4710   103124 040040   040040 040040   040040 040040   040040 040040    CT
   0    4714   040040 040040   040040 040040   040040 040040   000000 123125                ..SU
   0    4720   120120 122105   123123 040040   040040 040040   040040 040040    PPRESS
   0    4724   040040 040040   040040 040040   040040 040040   040040 040040
   0    4730   000000 123127   111124 103110   055060 040040   040040 040040    ..SWITCH-0
   0    4734   040040 040040   040040 040040   040040 040040   040040 040040
   0    4740   040040 040040   000000 123127   111124 103110   055061 040040        ..SWITCH-1
   0    4744   040040 040040   040040 040040   040040 040040   040040 040040
   0    4750   040040 040040   040040 040040   000000 123127   111124 103110            ..SWITCH
   0    4754   055062 040040   040040 040040   040040 040040   040040 040040    -2
   0    4760   040040 040040   040040 040040   040040 040040   000000 123127                ..SW
   0    4764   111124 103110   055063 040040   040040 040040   040040 040040    ITCH-3
   0    4770   040040 040040   040040 040040   040040 040040   040040 040040
   0    4774   000000 123127   111124 103110   055064 040040   040040 040040    ..SWITCH-4
   0    5000   040040 040040   040040 040040   040040 040040   040040 040040
   0    5004   040040 040040   000000 123127   111124 103110   055065 040040        ..SWITCH-5
   0    5010   040040 040040   040040 040040   040040 040040   040040 040040
   0    5014   040040 040040   040040 040040   000000 123127   111124 103110            ..SWITCH
   0    5020   055066 040040   040040 040040   040040 040040   040040 040040    -6
   0    5024   040040 040040   040040 040040   040040 040040   000000 123127                ..SW
   0    5030   111124 103110   055067 040040   040040 040040   040040 040040    ITCH-7
   0    5034   040040 040040   040040 040040   040040 040040   040040 040040
   0    5040   000000 123127   111124 103110   055070 040040   040040 040040    ..SWITCH-8
   0    5044   040040 040040   040040 040040   040040 040040   040040 040040
   0    5050   040040 040040   000000 123127   111124 103110   055071 040040        ..SWITCH-9
   0    5054   040040 040040   040040 040040   040040 040040   040040 040040
   0    5060   040040 040040   040040 040040   000000 123131   115102 117114            ..SYMBOL
   0    5064   111103 040040   040040 040040   040040 040040   040040 040040    IC
   0    5070   040040 040040   040040 040040   040040 040040   000000 124101                ..TA
   0    5074   114114 131111   116107 040040   040040 040040   040040 040040    LLYING
   0    5100   040040 040040   040040 040040   040040 040040   040040 040040
   0    5104   000000 124105   122115 111116   101114 040040   040040 040040    ..TERMINAL
   0    5110   040040 040040   040040 040040   040040 040040   040040 040040
PL6.E3A0      #001=ZIG$INIT_HAS File=ZIG$INIT_HAS.:ZIC0TSI                       FRI 09/05/97 12:05 Page:100
   0    5114   040040 040040   000000 124122   101111 114111   116107 040040        ..TRAILING
   0    5120   040040 040040   040040 040040   040040 040040   040040 040040
   0    5124   040040 040040   040040 040040   000000 125116   123124 122111            ..UNSTRI
   0    5130   116107 040040   040040 040040   040040 040040   040040 040040    NG
   0    5134   040040 040040   040040 040040   040040 040040   000000 101104                ..AD
   0    5140   126101 116103   111116 107040   040040 040040   040040 040040    VANCING
   0    5144   040040 040040   040040 040040   040040 040040   040040 040040
   0    5150   000000 101114   124105 122116   101124 105040   040040 040040    ..ALTERNATE
   0    5154   040040 040040   040040 040040   040040 040040   040040 040040
   0    5160   040040 040040   000000 101123   103105 116104   111116 107040        ..ASCENDING
   0    5164   040040 040040   040040 040040   040040 040040   040040 040040
   0    5170   040040 040040   040040 040040   000000 103110   101122 101103            ..CHARAC
   0    5174   124105 122040   040040 040040   040040 040040   040040 040040    TER
   0    5200   040040 040040   040040 040040   040040 040040   000000 103117                ..CO
   0    5204   114114 101124   111116 107040   040040 040040   040040 040040    LLATING
   0    5210   040040 040040   040040 040040   040040 040040   040040 040040
   0    5214   000000 104102   055123 124101   124125 123040   040040 040040    ..DB-STATUS
   0    5220   040040 040040   040040 040040   040040 040040   040040 040040
   0    5224   040040 040040   000000 104105   102125 107107   111116 107040        ..DEBUGGING
   0    5230   040040 040040   040040 040040   040040 040040   040040 040040
   0    5234   040040 040040   040040 040040   000000 104105   114111 115111            ..DELIMI
   0    5240   124105 104040   040040 040040   040040 040040   040040 040040    TED
   0    5244   040040 040040   040040 040040   040040 040040   000000 104105                ..DE
   0    5250   114111 115111   124105 122040   040040 040040   040040 040040    LIMITER
   0    5254   040040 040040   040040 040040   040040 040040   040040 040040
   0    5260   000000 104105   120105 116104   111116 107040   040040 040040    ..DEPENDING
   0    5264   040040 040040   040040 040040   040040 040040   040040 040040
   0    5270   040040 040040   000000 104125   120114 111103   101124 105040        ..DUPLICATE
   0    5274   040040 040040   040040 040040   040040 040040   040040 040040
   0    5300   040040 040040   040040 040040   000000 105130   103105 120124            ..EXCEPT
   0    5304   111117 116040   040040 040040   040040 040040   040040 040040    ION
   0    5310   040040 040040   040040 040040   040040 040040   000000 111116                ..IN
   0    5314   103114 125104   111116 107040   040040 040040   040040 040040    CLUDING
   0    5320   040040 040040   040040 040040   040040 040040   040040 040040
   0    5324   000000 112125   123124 111106   111105 104040   040040 040040    ..JUSTIFIED
   0    5330   040040 040040   040040 040040   040040 040040   040040 040040
   0    5334   040040 040040   000000 114117   127055 126101   114125 105040        ..LOW-VALUE
PL6.E3A0      #001=ZIG$INIT_HAS File=ZIG$INIT_HAS.:ZIC0TSI                       FRI 09/05/97 12:05 Page:101
   0    5340   040040 040040   040040 040040   040040 040040   040040 040040
   0    5344   040040 040040   040040 040040   000000 120122   117103 105104            ..PROCED
   0    5350   125122 105040   040040 040040   040040 040040   040040 040040    URE
   0    5354   040040 040040   040040 040040   040040 040040   000000 122105                ..RE
   0    5360   104105 106111   116105 123040   040040 040040   040040 040040    DEFINES
   0    5364   040040 040040   040040 040040   040040 040040   040040 040040
   0    5370   000000 122105   115101 111116   104105 122040   040040 040040    ..REMAINDER
   0    5374   040040 040040   040040 040040   040040 040040   040040 040040
   0    5400   040040 040040   000000 122105   120114 101103   111116 107040        ..REPLACING
   0    5404   040040 040040   040040 040040   040040 040040   040040 040040
   0    5410   040040 040040   040040 040040   000000 122105   120117 122124            ..REPORT
   0    5414   111116 107040   040040 040040   040040 040040   040040 040040    ING
   0    5420   040040 040040   040040 040040   040040 040040   000000 122105                ..RE
   0    5424   124101 111116   111116 107040   040040 040040   040040 040040    TAINING
   0    5430   040040 040040   040040 040040   040040 040040   040040 040040
   0    5434   000000 122105   124105 116124   111117 116040   040040 040040    ..RETENTION
   0    5440   040040 040040   040040 040040   040040 040040   040040 040040
   0    5444   040040 040040   000000 122105   124122 111105   126101 114040        ..RETRIEVAL
   0    5450   040040 040040   040040 040040   040040 040040   040040 040040
   0    5454   040040 040040   040040 040040   000000 123127   111124 103110            ..SWITCH
   0    5460   055061 060040   040040 040040   040040 040040   040040 040040    -10
   0    5464   040040 040040   040040 040040   040040 040040   000000 123127                ..SW
   0    5470   111124 103110   055061 061040   040040 040040   040040 040040    ITCH-11
   0    5474   040040 040040   040040 040040   040040 040040   040040 040040
   0    5500   000000 123127   111124 103110   055061 062040   040040 040040    ..SWITCH-12
   0    5504   040040 040040   040040 040040   040040 040040   040040 040040
   0    5510   040040 040040   000000 123127   111124 103110   055061 063040        ..SWITCH-13
   0    5514   040040 040040   040040 040040   040040 040040   040040 040040
   0    5520   040040 040040   040040 040040   000000 123127   111124 103110            ..SWITCH
   0    5524   055061 064040   040040 040040   040040 040040   040040 040040    -14
   0    5530   040040 040040   040040 040040   040040 040040   000000 123127                ..SW
   0    5534   111124 103110   055061 065040   040040 040040   040040 040040    ITCH-15
   0    5540   040040 040040   040040 040040   040040 040040   040040 040040
   0    5544   000000 123127   111124 103110   055061 066040   040040 040040    ..SWITCH-16
   0    5550   040040 040040   040040 040040   040040 040040   040040 040040
   0    5554   040040 040040   000000 123127   111124 103110   055061 067040        ..SWITCH-17
   0    5560   040040 040040   040040 040040   040040 040040   040040 040040
PL6.E3A0      #001=ZIG$INIT_HAS File=ZIG$INIT_HAS.:ZIC0TSI                       FRI 09/05/97 12:05 Page:102
   0    5564   040040 040040   040040 040040   000000 123127   111124 103110            ..SWITCH
   0    5570   055061 070040   040040 040040   040040 040040   040040 040040    -18
   0    5574   040040 040040   040040 040040   040040 040040   000000 123127                ..SW
   0    5600   111124 103110   055061 071040   040040 040040   040040 040040    ITCH-19
   0    5604   040040 040040   040040 040040   040040 040040   040040 040040
   0    5610   000000 123127   111124 103110   055062 060040   040040 040040    ..SWITCH-20
   0    5614   040040 040040   040040 040040   040040 040040   040040 040040
   0    5620   040040 040040   000000 123127   111124 103110   055062 061040        ..SWITCH-21
   0    5624   040040 040040   040040 040040   040040 040040   040040 040040
   0    5630   040040 040040   040040 040040   000000 123127   111124 103110            ..SWITCH
   0    5634   055062 062040   040040 040040   040040 040040   040040 040040    -22
   0    5640   040040 040040   040040 040040   040040 040040   000000 123127                ..SW
   0    5644   111124 103110   055062 063040   040040 040040   040040 040040    ITCH-23
   0    5650   040040 040040   040040 040040   040040 040040   040040 040040
   0    5654   000000 123127   111124 103110   055062 064040   040040 040040    ..SWITCH-24
   0    5660   040040 040040   040040 040040   040040 040040   040040 040040
   0    5664   040040 040040   000000 123127   111124 103110   055062 065040        ..SWITCH-25
   0    5670   040040 040040   040040 040040   040040 040040   040040 040040
   0    5674   040040 040040   040040 040040   000000 123127   111124 103110            ..SWITCH
   0    5700   055062 066040   040040 040040   040040 040040   040040 040040    -26
   0    5704   040040 040040   040040 040040   040040 040040   000000 123127                ..SW
   0    5710   111124 103110   055062 067040   040040 040040   040040 040040    ITCH-27
   0    5714   040040 040040   040040 040040   040040 040040   040040 040040
   0    5720   000000 123127   111124 103110   055062 070040   040040 040040    ..SWITCH-28
   0    5724   040040 040040   040040 040040   040040 040040   040040 040040
   0    5730   040040 040040   000000 123127   111124 103110   055062 071040        ..SWITCH-29
   0    5734   040040 040040   040040 040040   040040 040040   040040 040040
   0    5740   040040 040040   040040 040040   000000 123127   111124 103110            ..SWITCH
   0    5744   055063 060040   040040 040040   040040 040040   040040 040040    -30
   0    5750   040040 040040   040040 040040   040040 040040   000000 123127                ..SW
   0    5754   111124 103110   055063 061040   040040 040040   040040 040040    ITCH-31
   0    5760   040040 040040   040040 040040   040040 040040   040040 040040
   0    5764   000000 123127   111124 103110   055063 062040   040040 040040    ..SWITCH-32
   0    5770   040040 040040   040040 040040   040040 040040   040040 040040
   0    5774   040040 040040   000000 123127   111124 103110   055063 063040        ..SWITCH-33
   0    6000   040040 040040   040040 040040   040040 040040   040040 040040
   0    6004   040040 040040   040040 040040   000000 123127   111124 103110            ..SWITCH
PL6.E3A0      #001=ZIG$INIT_HAS File=ZIG$INIT_HAS.:ZIC0TSI                       FRI 09/05/97 12:05 Page:103
   0    6010   055063 064040   040040 040040   040040 040040   040040 040040    -34
   0    6014   040040 040040   040040 040040   040040 040040   000000 123127                ..SW
   0    6020   111124 103110   055063 065040   040040 040040   040040 040040    ITCH-35
   0    6024   040040 040040   040040 040040   040040 040040   040040 040040
   0    6030   000000 124105   122115 111116   101124 105040   040040 040040    ..TERMINATE
   0    6034   040040 040040   040040 040040   040040 040040   040040 040040
   0    6040   040040 040040   000000 124122   101116 123106   117122 115040        ..TRANSFORM
   0    6044   040040 040040   040040 040040   040040 040040   040040 040040
   0    6050   040040 040040   040040 040040   000000 101114   120110 101102            ..ALPHAB
   0    6054   105124 111103   040040 040040   040040 040040   040040 040040    ETIC
   0    6060   040040 040040   040040 040040   040040 040040   000000 103110                ..CH
   0    6064   101122 101103   124105 122123   040040 040040   040040 040040    ARACTERS
   0    6070   040040 040040   040040 040040   040040 040040   040040 040040
   0    6074   000000 104105   102125 107055   111124 105115   040040 040040    ..DEBUG-ITEM
   0    6100   040040 040040   040040 040040   040040 040040   040040 040040
   0    6104   040040 040040   000000 104105   102125 107055   114111 116105        ..DEBUG-LINE
   0    6110   040040 040040   040040 040040   040040 040040   040040 040040
   0    6114   040040 040040   040040 040040   000000 104105   102125 107055            ..DEBUG-
   0    6120   116101 115105   040040 040040   040040 040040   040040 040040    NAME
   0    6124   040040 040040   040040 040040   040040 040040   000000 104105                ..DE
   0    6130   123103 105116   104111 116107   040040 040040   040040 040040    SCENDING
   0    6134   040040 040040   040040 040040   040040 040040   040040 040040
   0    6140   000000 104111   123103 117116   116105 103124   040040 040040    ..DISCONNECT
   0    6144   040040 040040   040040 040040   040040 040040   040040 040040
   0    6150   040040 040040   000000 104125   120114 111103   101124 105123        ..DUPLICATES
   0    6154   040040 040040   040040 040040   040040 040040   040040 040040
   0    6160   040040 040040   040040 040040   000000 110111   107110 055126            ..HIGH-V
   0    6164   101114 125105   040040 040040   040040 040040   040040 040040    ALUE
   0    6170   040040 040040   040040 040040   040040 040040   000000 111116                ..IN
   0    6174   111124 111101   114111 132105   040040 040040   040040 040040    ITIALIZE
   0    6200   040040 040040   040040 040040   040040 040040   040040 040040
   0    6204   000000 114117   127055 126101   114125 105123   040040 040040    ..LOW-VALUES
   0    6210   040040 040040   040040 040040   040040 040040   040040 040040
   0    6214   040040 040040   000000 115105   115102 105122   123110 111120        ..MEMBERSHIP
   0    6220   040040 040040   040040 040040   040040 040040   040040 040040
   0    6224   040040 040040   040040 040040   000000 120122   117103 105104            ..PROCED
   0    6230   125122 105123   040040 040040   040040 040040   040040 040040    URES
PL6.E3A0      #001=ZIG$INIT_HAS File=ZIG$INIT_HAS.:ZIC0TSI                       FRI 09/05/97 12:05 Page:104
   0    6234   040040 040040   040040 040040   040040 040040   000000 120122                ..PR
   0    6240   117107 122101   115055 111104   040040 040040   040040 040040    OGRAM-ID
   0    6244   040040 040040   040040 040040   040040 040040   040040 040040
   0    6250   000000 122105   101114 115055   116101 115105   040040 040040    ..REALM-NAME
   0    6254   040040 040040   040040 040040   040040 040040   040040 040040
   0    6260   040040 040040   000000 122105   106105 122105   116103 105123        ..REFERENCES
   0    6264   040040 040040   040040 040040   040040 040040   040040 040040
   0    6270   040040 040040   040040 040040   000000 123105   121125 105116            ..SEQUEN
   0    6274   124111 101114   040040 040040   040040 040040   040040 040040    TIAL
   0    6300   040040 040040   040040 040040   040040 040040   000000 123117                ..SO
   0    6304   122124 055115   105122 107105   040040 040040   040040 040040    RT-MERGE
   0    6310   040040 040040   040040 040040   040040 040040   040040 040040
   0    6314   000000 123124   101116 104101   122104 055061   040040 040040    ..STANDARD-1
   0    6320   040040 040040   040040 040040   040040 040040   040040 040040
   0    6324   040040 040040   000000 123125   102055 123103   110105 115101        ..SUB-SCHEMA
   0    6330   040040 040040   040040 040040   040040 040040   040040 040040
   0    6334   040040 040040   040040 040040   000000 125123   101107 105055            ..USAGE-
   0    6340   115117 104105   040040 040040   040040 040040   040040 040040    MODE
   0    6344   040040 040040   040040 040040   040040 040040   000000 103114                ..CL
   0    6350   117103 113055   125116 111124   123040 040040   040040 040040    OCK-UNITS
   0    6354   040040 040040   040040 040040   040040 040040   040040 040040
   0    6360   000000 104102   055123 105124   055116 101115   105040 040040    ..DB-SET-NAME
   0    6364   040040 040040   040040 040040   040040 040040   040040 040040
   0    6370   040040 040040   000000 104102   055113 105131   055116 101115        ..DB-KEY-NAM
   0    6374   105040 040040   040040 040040   040040 040040   040040 040040    E
   0    6400   040040 040040   040040 040040   000000 104105   102125 107055            ..DEBUG-
   0    6404   123125 102055   061040 040040   040040 040040   040040 040040    SUB-1
   0    6410   040040 040040   040040 040040   040040 040040   000000 104105                ..DE
   0    6414   102125 107055   123125 102055   062040 040040   040040 040040    BUG-SUB-2
   0    6420   040040 040040   040040 040040   040040 040040   040040 040040
   0    6424   000000 104105   102125 107055   123125 102055   063040 040040    ..DEBUG-SUB-3
   0    6430   040040 040040   040040 040040   040040 040040   040040 040040
   0    6434   040040 040040   000000 104105   123124 111116   101124 111117        ..DESTINATIO
   0    6440   116040 040040   040040 040040   040040 040040   040040 040040    N
   0    6444   040040 040040   040040 040040   000000 105116   104055 117106            ..END-OF
   0    6450   055120 101107   105040 040040   040040 040040   040040 040040    -PAGE
   0    6454   040040 040040   040040 040040   040040 040040   000000 105116                ..EN
PL6.E3A0      #001=ZIG$INIT_HAS File=ZIG$INIT_HAS.:ZIC0TSI                       FRI 09/05/97 12:05 Page:105
   0    6460   126111 122117   116115 105116   124040 040040   040040 040040    VIRONMENT
   0    6464   040040 040040   040040 040040   040040 040040   040040 040040
   0    6470   000000 110111   107110 055126   101114 125105   123040 040040    ..HIGH-VALUES
   0    6474   040040 040040   040040 040040   040040 040040   040040 040040
   0    6500   040040 040040   000000 111116   124105 122103   110101 116107        ..INTERCHANG
   0    6504   105040 040040   040040 040040   040040 040040   040040 040040    E
   0    6510   040040 040040   040040 040040   000000 111055   117055 103117            ..I-O-CO
   0    6514   116124 122117   114040 040040   040040 040040   040040 040040    NTROL
   0    6520   040040 040040   040040 040040   040040 040040   000000 122105                ..RE
   0    6524   103117 122104   055116 101115   105040 040040   040040 040040    CORD-NAME
   0    6530   040040 040040   040040 040040   040040 040040   040040 040040
   0    6534   000000 123125   102055 121125   105125 105055   061040 040040    ..SUB-QUEUE-1
   0    6540   040040 040040   040040 040040   040040 040040   040040 040040
   0    6544   040040 040040   000000 123125   102055 121125   105125 105055        ..SUB-QUEUE-
   0    6550   062040 040040   040040 040040   040040 040040   040040 040040    2
   0    6554   040040 040040   040040 040040   000000 123125   102055 121125            ..SUB-QU
   0    6560   105125 105055   063040 040040   040040 040040   040040 040040    EUE-3
   0    6564   040040 040040   040040 040040   040040 040040   000000 101114                ..AL
   0    6570   120110 101116   125115 105122   111103 040040   040040 040040    PHANUMERIC
   0    6574   040040 040040   040040 040040   040040 040040   040040 040040
   0    6600   000000 104101   124105 055127   122111 124124   105116 040040    ..DATE-WRITTEN
   0    6604   040040 040040   040040 040040   040040 040040   040040 040040
   0    6610   040040 040040   000000 104102   055104 101124   101055 116101        ..DB-DATA-NA
   0    6614   115105 040040   040040 040040   040040 040040   040040 040040    ME
   0    6620   040040 040040   040040 040040   000000 104102   055105 130103            ..DB-EXC
   0    6624   105120 124111   117116 040040   040040 040040   040040 040040    EPTION
   0    6630   040040 040040   040040 040040   040040 040040   000000 104105                ..DE
   0    6634   103114 101122   101124 111126   105123 040040   040040 040040    CLARATIVES
   0    6640   040040 040040   040040 040040   040040 040040   040040 040040
   0    6644   000000 106111   114105 055103   117116 124122   117114 040040    ..FILE-CONTROL
   0    6650   040040 040040   040040 040040   040040 040040   040040 040040
   0    6654   040040 040040   000000 111116   120125 124055   117125 124120        ..INPUT-OUTP
   0    6660   125124 040040   040040 040040   040040 040040   040040 040040    UT
   0    6664   040040 040040   040040 040040   000000 111116   123124 101114            ..INSTAL
   0    6670   114101 124111   117116 040040   040040 040040   040040 040040    LATION
   0    6674   040040 040040   040040 040040   040040 040040   000000 114111                ..LI
   0    6700   116105 055103   117125 116124   105122 040040   040040 040040    NE-COUNTER
PL6.E3A0      #001=ZIG$INIT_HAS File=ZIG$INIT_HAS.:ZIC0TSI                       FRI 09/05/97 12:05 Page:106
   0    6704   040040 040040   040040 040040   040040 040040   040040 040040
   0    6710   000000 117122   107101 116111   132101 124111   117116 040040    ..ORGANIZATION
   0    6714   040040 040040   040040 040040   040040 040040   040040 040040
   0    6720   040040 040040   000000 120101   107105 055103   117125 116124        ..PAGE-COUNT
   0    6724   105122 040040   040040 040040   040040 040040   040040 040040    ER
   0    6730   040040 040040   040040 040040   000000 123125   102123 124111            ..SUBSTI
   0    6734   124125 124111   117116 040040   040040 040040   040040 040040    TUTION
   0    6740   040040 040040   040040 040040   040040 040040   000000 123131                ..SY
   0    6744   116103 110122   117116 111132   105104 040040   040040 040040    NCHRONIZED
   0    6750   040040 040040   040040 040040   040040 040040   040040 040040
   0    6754   000000 103117   115115 125116   111103 101124   111117 116040    ..COMMUNICATION
   0    6760   040040 040040   040040 040040   040040 040040   040040 040040
   0    6764   040040 040040   000000 103117   115120 125124   101124 111117        ..COMPUTATIO
   0    6770   116101 114040   040040 040040   040040 040040   040040 040040    NAL
   0    6774   040040 040040   040040 040040   000000 103117   116106 111107            ..CONFIG
   0    7000   125122 101124   111117 116040   040040 040040   040040 040040    URATION
   0    7004   040040 040040   040040 040040   040040 040040   000000 103117                ..CO
   0    7010   122122 105123   120117 116104   111116 107040   040040 040040    RRESPONDING
   0    7014   040040 040040   040040 040040   040040 040040   040040 040040
   0    7020   000000 104101   124105 055103   117115 120111   114105 104040    ..DATE-COMPILED
   0    7024   040040 040040   040040 040040   040040 040040   040040 040040
   0    7030   040040 040040   000000 104102   055122 105101   114115 055116        ..DB-REALM-N
   0    7034   101115 105040   040040 040040   040040 040040   040040 040040    AME
   0    7040   040040 040040   040040 040040   000000 104105   103111 115101            ..DECIMA
   0    7044   114055 120117   111116 124040   040040 040040   040040 040040    L-POINT
   0    7050   040040 040040   040040 040040   040040 040040   000000 110111                ..HI
   0    7054   123055 123105   122111 105123   055066 060040   040040 040040    S-SERIES-60
   0    7060   040040 040040   040040 040040   040040 040040   040040 040040
   0    7064   000000 123105   107115 105116   124055 114111   115111 124040    ..SEGMENT-LIMIT
   0    7070   040040 040040   040040 040040   040040 040040   040040 040040
   0    7074   040040 040040   000000 123120   105103 111101   114055 116101        ..SPECIAL-NA
   0    7100   115105 123040   040040 040040   040040 040040   040040 040040    MES
   0    7104   040040 040040   040040 040040   000000 104102   055120 122111            ..DB-PRI
   0    7110   126101 103131   055113 105131   040040 040040   040040 040040    VACY-KEY
   0    7114   040040 040040   040040 040040   040040 040040   000000 104102                ..DB
   0    7120   055122 105103   117122 104055   116101 115105   040040 040040    -RECORD-NAME
   0    7124   040040 040040   040040 040040   040040 040040   040040 040040
PL6.E3A0      #001=ZIG$INIT_HAS File=ZIG$INIT_HAS.:ZIC0TSI                       FRI 09/05/97 12:05 Page:107
   0    7130   000000 104105   102125 107055   103117 116124   105116 124123    ..DEBUG-CONTENTS
   0    7134   040040 040040   040040 040040   040040 040040   040040 040040
   0    7140   040040 040040   000000 111104   105116 124111   106111 103101        ..IDENTIFICA
   0    7144   124111 117116   040040 040040   040040 040040   040040 040040    TION
   0    7150   040040 040040   040040 040040   000000 114105   126105 114055            ..LEVEL-
   0    7154   066066 055101   123103 111111   040040 040040   040040 040040    66-ASCII
   0    7160   040040 040040   040040 040040   040040 040040   000000 114105                ..LE
   0    7164   126105 114055   066070 055101   123103 111111   040040 040040    VEL-68-ASCII
   0    7170   040040 040040   040040 040040   040040 040040   040040 040040
   0    7174   000000 114111   116101 107105   055103 117125   116124 105122    ..LINAGE-COUNTER
   0    7200   040040 040040   040040 040040   040040 040040   040040 040040
   0    7204   040040 040040   000000 116125   115105 122111   103055 105104        ..NUMERIC-ED
   0    7210   111124 105104   040040 040040   040040 040040   040040 040040    ITED
   0    7214   040040 040040   040040 040040   000000 103110   105103 113120            ..CHECKP
   0    7220   117111 116124   055106 111114   105040 040040   040040 040040    OINT-FILE
   0    7224   040040 040040   040040 040040   040040 040040   000000 103117                ..CO
   0    7230   115120 125124   101124 111117   116101 114055   061040 040040    MPUTATIONAL-1
   0    7234   040040 040040   040040 040040   040040 040040   040040 040040
   0    7240   000000 103117   115120 125124   101124 111117   116101 114055    ..COMPUTATIONAL-
   0    7244   062040 040040   040040 040040   040040 040040   040040 040040    2
   0    7250   040040 040040   000000 103117   115120 125124   101124 111117        ..COMPUTATIO
   0    7254   116101 114055   063040 040040   040040 040040   040040 040040    NAL-3
   0    7260   040040 040040   040040 040040   000000 103117   115120 125124            ..COMPUT
   0    7264   101124 111117   116101 114055   064040 040040   040040 040040    ATIONAL-4
   0    7270   040040 040040   040040 040040   040040 040040   000000 103117                ..CO
   0    7274   115120 125124   101124 111117   116101 114055   065040 040040    MPUTATIONAL-5
   0    7300   040040 040040   040040 040040   040040 040040   040040 040040
   0    7304   000000 103117   115120 125124   101124 111117   116101 114055    ..COMPUTATIONAL-
   0    7310   066040 040040   040040 040040   040040 040040   040040 040040    6
   0    7314   040040 040040   000000 114105   126105 114055   066066 055105        ..LEVEL-66-E
   0    7320   102103 104111   103040 040040   040040 040040   040040 040040    BCDIC
   0    7324   040040 040040   040040 040040   000000 117102   112105 103124            ..OBJECT
   0    7330   055103 117115   120125 124105   122040 040040   040040 040040    -COMPUTER
   0    7334   040040 040040   040040 040040   040040 040040   000000 123117                ..SO
   0    7340   125122 103105   055103 117115   120125 124105   122040 040040    URCE-COMPUTER
   0    7344   040040 040040   040040 040040   040040 040040   040040 040040
   0    7350   000000 127117   122113 111116   107055 123124   117122 101107    ..WORKING-STORAG
PL6.E3A0      #001=ZIG$INIT_HAS File=ZIG$INIT_HAS.:ZIC0TSI                       FRI 09/05/97 12:05 Page:108
   0    7354   105040 040040   040040 040040   040040 040040   040040 040040    E
   0    7360   040040 040040   000000 104111   122105 103124   055122 105106        ..DIRECT-REF
   0    7364   105122 105116   103105 040040   040040 040040   040040 040040    ERENCE
   0    7370   040040 040040   040040 040040   000000 101114   120110 101116            ..ALPHAN
   0    7374   125115 105122   111103 055105   104111 124105   104040 040040    UMERIC-EDITED
   0    7400   040040 040040   040040 040040   040040 040040

TPTR$
 Sect OctLoc
   1     000   000000 006000                                                    ....

A_F_PTR$
 Sect OctLoc
   1     001   000000 006000                                                    ....

BPTR$
 Sect OctLoc
   1     002   000000 006000                                                    ....

APL_FORT_RES_WORDS
 Sect OctLoc
   2     000   000000 106111   122123 124040   040040 040040   040040 040040    ..FIRST
   2     004   040040 040040   040040 040040   040040 040040   040040 040040
   2     010   040040 040040   000000 114101   123124 040040   040040 040040        ..LAST
   2     014   040040 040040   040040 040040   040040 040040   040040 040040
   2     020   040040 040040   040040 040040   000000 116105   130124 040040            ..NEXT
   2     024   040040 040040   040040 040040   040040 040040   040040 040040
   2     030   040040 040040   040040 040040   040040 040040   000000 120122                ..PR
   2     034   111117 122040   040040 040040   040040 040040   040040 040040    IOR
   2     040   040040 040040   040040 040040   040040 040040   040040 040040
   2     044   000000 123124   101124 125123   040040 040040   040040 040040    ..STATUS
   2     050   040040 040040   040040 040040   040040 040040   040040 040040
   2     054   040040 040040   000000 101122   105101 040040   040040 040040        ..AREA
   2     060   040040 040040   040040 040040   040040 040040   040040 040040
   2     064   040040 040040   040040 040040   000000 123105   124040 040040            ..SET
   2     070   040040 040040   040040 040040   040040 040040   040040 040040
   2     074   040040 040040   040040 040040   040040 040040   000000 122105                ..RE
PL6.E3A0      #001=ZIG$INIT_HAS File=ZIG$INIT_HAS.:ZIC0TSI                       FRI 09/05/97 12:05 Page:109
   2     100   103117 122104   040040 040040   040040 040040   040040 040040    CORD
   2     104   040040 040040   040040 040040   040040 040040   040040 040040
   2     110   000000 120122   111126 101103   131040 040040   040040 040040    ..PRIVACY
   2     114   040040 040040   040040 040040   040040 040040   040040 040040
   2     120   040040 040040   000000 104111   122105 103124   055122 105106        ..DIRECT-REF
   2     124   105122 105116   103105 040040   040040 040040   040040 040040    ERENCE
   2     130   040040 040040   040040 040040   000000 104101   124101 116101            ..DATANA
   2     134   115105 040040   040040 040040   040040 040040   040040 040040    ME
   2     140   040040 040040   040040 040040   040040 040040   000000 113105                ..KE
   2     144   131116 101115   105040 040040   040040 040040   040040 040040    YNAME
   2     150   040040 040040   040040 040040   040040 040040   040040 040040
   2     154   000000 101122   105101 116101   115105 040040   040040 040040    ..AREANAME
   2     160   040040 040040   040040 040040   040040 040040   040040 040040
   2     164   040040 040040   000000 103125   122122 105116   124040 040040        ..CURRENT
   2     170   040040 040040   040040 040040   040040 040040   040040 040040
   2     174   040040 040040   040040 040040   000000 103125   122122 105116            ..CURREN
   2     200   103131 040040   040040 040040   040040 040040   040040 040040    CY
   2     204   040040 040040   040040 040040   040040 040040   000000 117127                ..OW
   2     210   116105 122040   040040 040040   040040 040040   040040 040040    NER
   2     214   040040 040040   040040 040040   040040 040040   040040 040040
   2     220   000000 101114   114040 040040   040040 040040   040040 040040    ..ALL
   2     224   040040 040040   040040 040040   040040 040040   040040 040040
   2     230   040040 040040   000000 104102   113105 131040   040040 040040        ..DBKEY
   2     234   040040 040040   040040 040040   040040 040040   040040 040040
   2     240   040040 040040   040040 040040   000000 101116   131040 040040            ..ANY
   2     244   040040 040040   040040 040040   040040 040040   040040 040040
   2     250   040040 040040   040040 040040   040040 040040   000000 104125                ..DU
   2     254   120101 116131   040040 040040   040040 040040   040040 040040    PANY
   2     260   040040 040040   040040 040040   040040 040040   040040 040040
   2     264   000000 104125   120123 105124   040040 040040   040040 040040    ..DUPSET
   2     270   040040 040040   040040 040040   040040 040040   040040 040040
   2     274   040040 040040   000000 117116   114131 040040   040040 040040        ..ONLY
   2     300   040040 040040   040040 040040   040040 040040   040040 040040
   2     304   040040 040040   040040 040040   000000 111116   103114 125104            ..INCLUD
   2     310   111116 107040   040040 040040   040040 040040   040040 040040    ING
   2     314   040040 040040   040040 040040   040040 040040   000000 125120                ..UP
   2     320   104101 124105   040040 040040   040040 040040   040040 040040    DATE
PL6.E3A0      #001=ZIG$INIT_HAS File=ZIG$INIT_HAS.:ZIC0TSI                       FRI 09/05/97 12:05 Page:110
   2     324   040040 040040   040040 040040   040040 040040   040040 040040
   2     330   000000 122105   124122 111105   126101 114040   040040 040040    ..RETRIEVAL
   2     334   040040 040040   040040 040040   040040 040040   040040 040040
   2     340   040040 040040   000000 114117   101104 040040   040040 040040        ..LOAD
   2     344   040040 040040   040040 040040   040040 040040   040040 040040
   2     350   040040 040040   040040 040040   000000 123110   101122 105040            ..SHARE
   2     354   040040 040040   040040 040040   040040 040040   040040 040040
   2     360   040040 040040   040040 040040   040040 040040   000000 123110                ..SH
   2     364   101122 105111   116040 040040   040040 040040   040040 040040    AREIN
   2     370   040040 040040   040040 040040   040040 040040   040040 040040
   2     374   000000 116117   123110 101122   105040 040040   040040 040040    ..NOSHARE
   2     400   040040 040040   040040 040040   040040 040040   040040 040040
   2     404   040040 040040   000000 101122   105101 040040   040040 040040        ..AREA
   2     410   040040 040040   040040 040040   040040 040040   040040 040040
   2     414   040040 040040   040040 040040   000000 123105   124123 040040            ..SETS
   2     420   040040 040040   040040 040040   040040 040040   040040 040040
   2     424   040040 040040   040040 040040   040040 040040   000000 115105                ..ME
   2     430   115102 105122   040040 040040   040040 040040   040040 040040    MBER
   2     434   040040 040040   040040 040040   040040 040040   040040 040040
   2     440   000000 124105   116101 116124   040040 040040   040040 040040    ..TENANT
   2     444   040040 040040   040040 040040   040040 040040   040040 040040
   2     450   040040 040040   000000 116125   114114 040040   040040 040040        ..NULL
   2     454   040040 040040   040040 040040   040040 040040   040040 040040
   2     460   040040 040040   040040 040040   000000 103117   116116 105103            ..CONNEC
   2     464   124040 040040   040040 040040   040040 040040   040040 040040    T
   2     470   040040 040040   040040 040040   040040 040040   000000 104111                ..DI
   2     474   123103 117116   116105 103124   040040 040040   040040 040040    SCONNECT
   2     500   040040 040040   040040 040040   040040 040040   040040 040040
   2     504   000000 123124   117122 105040   040040 040040   040040 040040    ..STORE
   2     510   040040 040040   040040 040040   040040 040040   040040 040040
   2     514   040040 040040   000000 105122   101123 105040   040040 040040        ..ERASE
   2     520   040040 040040   040040 040040   040040 040040   040040 040040
   2     524   040040 040040   040040 040040   000000 115117   104111 106131            ..MODIFY
   2     530   040040 040040   040040 040040   040040 040040   040040 040040
   2     534   040040 040040   040040 040040   040040 040040   000000 106111                ..FI
   2     540   116104 040040   040040 040040   040040 040040   040040 040040    ND
   2     544   040040 040040   040040 040040   040040 040040   040040 040040
PL6.E3A0      #001=ZIG$INIT_HAS File=ZIG$INIT_HAS.:ZIC0TSI                       FRI 09/05/97 12:05 Page:111
   2     550   000000 107105   124040 040040   040040 040040   040040 040040    ..GET
   2     554   040040 040040   040040 040040   040040 040040   040040 040040
   2     560   040040 040040   000000 106114   117101 124040   040040 040040        ..FLOAT
   2     564   040040 040040   040040 040040   040040 040040   040040 040040
   2     570   040040 040040   040040 040040   000000 104127   117122 104040            ..DWORD
   2     574   040040 040040   040040 040040   040040 040040   040040 040040
   2     600   040040 040040   040040 040040   040040 040040   000000 111116                ..IN
   2     604   124105 107105   122040 040040   040040 040040   040040 040040    TEGER
   2     610   040040 040040   040040 040040   040040 040040   040040 040040
   2     614   000000 101114   111101 123040   040040 040040   040040 040040    ..ALIAS
   2     620   040040 040040   040040 040040   040040 040040   040040 040040
   2     624   040040 040040   000000 103110   101122 101103   124105 122040        ..CHARACTER
   2     630   040040 040040   040040 040040   040040 040040   040040 040040
   2     634   040040 040040   040040 040040   000000 117103   103125 122123            ..OCCURS
   2     640   040040 040040   040040 040040   040040 040040   040040 040040
   2     644   040040 040040   040040 040040   040040 040040   000000 123125                ..SU
   2     650   102123 103110   105115 101040   040040 040040   040040 040040    BSCHEMA
   2     654   040040 040040   040040 040040   040040 040040   040040 040040

BASIC_RES_WORDS
 Sect OctLoc
   3     000   000000 101102   123040 040040   040040 040040   040040 040040    ..ABS
   3     004   040040 040040   040040 040040   040040 040040   040040 040040
   3     010   040040 040040   000000 101103   117123 040040   040040 040040        ..ACOS
   3     014   040040 040040   040040 040040   040040 040040   040040 040040
   3     020   040040 040040   040040 040040   000000 101103   123040 040040            ..ACS
   3     024   040040 040040   040040 040040   040040 040040   040040 040040
   3     030   040040 040040   040040 040040   040040 040040   000000 101116                ..AN
   3     034   104040 040040   040040 040040   040040 040040   040040 040040    D
   3     040   040040 040040   040040 040040   040040 040040   040040 040040
   3     044   000000 101122   122101 131123   040040 040040   040040 040040    ..ARRAYS
   3     050   040040 040040   040040 040040   040040 040040   040040 040040
   3     054   040040 040040   000000 101123   103040 040040   040040 040040        ..ASC
   3     060   040040 040040   040040 040040   040040 040040   040040 040040
   3     064   040040 040040   040040 040040   000000 101123   111116 040040            ..ASIN
   3     070   040040 040040   040040 040040   040040 040040   040040 040040
   3     074   040040 040040   040040 040040   040040 040040   000000 101123                ..AS
PL6.E3A0      #001=ZIG$INIT_HAS File=ZIG$INIT_HAS.:ZIC0TSI                       FRI 09/05/97 12:05 Page:112
   3     100   116040 040040   040040 040040   040040 040040   040040 040040    N
   3     104   040040 040040   040040 040040   040040 040040   040040 040040
   3     110   000000 101124   116040 040040   040040 040040   040040 040040    ..ATN
   3     114   040040 040040   040040 040040   040040 040040   040040 040040
   3     120   040040 040040   000000 102101   123105 040040   040040 040040        ..BASE
   3     124   040040 040040   040040 040040   040040 040040   040040 040040
   3     130   040040 040040   040040 040040   000000 102103   114040 040040            ..BCL
   3     134   040040 040040   040040 040040   040040 040040   040040 040040
   3     140   040040 040040   040040 040040   040040 040040   000000 102111                ..BI
   3     144   124040 040040   040040 040040   040040 040040   040040 040040    T
   3     150   040040 040040   040040 040040   040040 040040   040040 040040
   3     154   000000 102122   105101 113040   040040 040040   040040 040040    ..BREAK
   3     160   040040 040040   040040 040040   040040 040040   040040 040040
   3     164   040040 040040   000000 103110   101111 116040   040040 040040        ..CHAIN
   3     170   040040 040040   040040 040040   040040 040040   040040 040040
   3     174   040040 040040   040040 040040   000000 103110   101116 107105            ..CHANGE
   3     200   040040 040040   040040 040040   040040 040040   040040 040040
   3     204   040040 040040   040040 040040   040040 040040   000000 103110                ..CH
   3     210   122044 040040   040040 040040   040040 040040   040040 040040    R$
   3     214   040040 040040   040040 040040   040040 040040   040040 040040
   3     220   000000 103114   105101 122040   040040 040040   040040 040040    ..CLEAR
   3     224   040040 040040   040040 040040   040040 040040   040040 040040
   3     230   040040 040040   000000 103114   113040 040040   040040 040040        ..CLK
   3     234   040040 040040   040040 040040   040040 040040   040040 040040
   3     240   040040 040040   040040 040040   000000 103114   117123 105040            ..CLOSE
   3     244   040040 040040   040040 040040   040040 040040   040040 040040
   3     250   040040 040040   040040 040040   040040 040040   000000 103115                ..CM
   3     254   120040 040040   040040 040040   040040 040040   040040 040040    P
   3     260   040040 040040   040040 040040   040040 040040   040040 040040
   3     264   000000 103117   116040 040040   040040 040040   040040 040040    ..CON
   3     270   040040 040040   040040 040040   040040 040040   040040 040040
   3     274   040040 040040   000000 103117   116123 105103   040040 040040        ..CONSEC
   3     300   040040 040040   040040 040040   040040 040040   040040 040040
   3     304   040040 040040   040040 040040   000000 103117   123040 040040            ..COS
   3     310   040040 040040   040040 040040   040040 040040   040040 040040
   3     314   040040 040040   040040 040040   040040 040040   000000 103117                ..CO
   3     320   123110 040040   040040 040040   040040 040040   040040 040040    SH
PL6.E3A0      #001=ZIG$INIT_HAS File=ZIG$INIT_HAS.:ZIC0TSI                       FRI 09/05/97 12:05 Page:113
   3     324   040040 040040   040040 040040   040040 040040   040040 040040
   3     330   000000 103117   124040 040040   040040 040040   040040 040040    ..COT
   3     334   040040 040040   040040 040040   040040 040040   040040 040040
   3     340   040040 040040   000000 103120   125040 040040   040040 040040        ..CPU
   3     344   040040 040040   040040 040040   040040 040040   040040 040040
   3     350   040040 040040   040040 040040   000000 103123   103040 040040            ..CSC
   3     354   040040 040040   040040 040040   040040 040040   040040 040040
   3     360   040040 040040   040040 040040   040040 040040   000000 104101                ..DA
   3     364   124044 040040   040040 040040   040040 040040   040040 040040    T$
   3     370   040040 040040   040040 040040   040040 040040   040040 040040
   3     374   000000 104101   124101 040040   040040 040040   040040 040040    ..DATA
   3     400   040040 040040   040040 040040   040040 040040   040040 040040
   3     404   040040 040040   000000 104105   106040 040040   040040 040040        ..DEF
   3     410   040040 040040   040040 040040   040040 040040   040040 040040
   3     414   040040 040040   040040 040040   000000 104105   107040 040040            ..DEG
   3     420   040040 040040   040040 040040   040040 040040   040040 040040
   3     424   040040 040040   040040 040040   040040 040040   000000 104105                ..DE
   3     430   114111 115111   124040 040040   040040 040040   040040 040040    LIMIT
   3     434   040040 040040   040040 040040   040040 040040   040040 040040
   3     440   000000 104105   114122 105103   040040 040040   040040 040040    ..DELREC
   3     444   040040 040040   040040 040040   040040 040040   040040 040040
   3     450   040040 040040   000000 104105   121040 040040   040040 040040        ..DEQ
   3     454   040040 040040   040040 040040   040040 040040   040040 040040
   3     460   040040 040040   040040 040040   000000 104105   124040 040040            ..DET
   3     464   040040 040040   040040 040040   040040 040040   040040 040040
   3     470   040040 040040   040040 040040   040040 040040   000000 104111                ..DI
   3     474   107040 040040   040040 040040   040040 040040   040040 040040    G
   3     500   040040 040040   040040 040040   040040 040040   040040 040040
   3     504   000000 104111   107111 124123   040040 040040   040040 040040    ..DIGITS
   3     510   040040 040040   040040 040040   040040 040040   040040 040040
   3     514   040040 040040   000000 104111   115040 040040   040040 040040        ..DIM
   3     520   040040 040040   040040 040040   040040 040040   040040 040040
   3     524   040040 040040   040040 040040   000000 104117   040040 040040            ..DO
   3     530   040040 040040   040040 040040   040040 040040   040040 040040
   3     534   040040 040040   040040 040040   040040 040040   000000 105116                ..EN
   3     540   104111 106040   040040 040040   040040 040040   040040 040040    DIF
   3     544   040040 040040   040040 040040   040040 040040   040040 040040
PL6.E3A0      #001=ZIG$INIT_HAS File=ZIG$INIT_HAS.:ZIC0TSI                       FRI 09/05/97 12:05 Page:114
   3     550   000000 105116   121105 040040   040040 040040   040040 040040    ..ENQE
   3     554   040040 040040   040040 040040   040040 040040   040040 040040
   3     560   040040 040040   000000 105116   121123 040040   040040 040040        ..ENQS
   3     564   040040 040040   040040 040040   040040 040040   040040 040040
   3     570   040040 040040   040040 040040   000000 105117   106040 040040            ..EOF
   3     574   040040 040040   040040 040040   040040 040040   040040 040040
   3     600   040040 040040   040040 040040   040040 040040   000000 105122                ..ER
   3     604   114040 040040   040040 040040   040040 040040   040040 040040    L
   3     610   040040 040040   040040 040040   040040 040040   040040 040040
   3     614   000000 105122   116040 040040   040040 040040   040040 040040    ..ERN
   3     620   040040 040040   040040 040040   040040 040040   040040 040040
   3     624   040040 040040   000000 105122   122117 122040   040040 040040        ..ERROR
   3     630   040040 040040   040040 040040   040040 040040   040040 040040
   3     634   040040 040040   040040 040040   000000 105122   124040 040040            ..ERT
   3     640   040040 040040   040040 040040   040040 040040   040040 040040
   3     644   040040 040040   040040 040040   040040 040040   000000 105130                ..EX
   3     650   120040 040040   040040 040040   040040 040040   040040 040040    P
   3     654   040040 040040   040040 040040   040040 040040   040040 040040
   3     660   000000 106116   105116 104040   040040 040040   040040 040040    ..FNEND
   3     664   040040 040040   040040 040040   040040 040040   040040 040040
   3     670   040040 040040   000000 106117   122040 040040   040040 040040        ..FOR
   3     674   040040 040040   040040 040040   040040 040040   040040 040040
   3     700   040040 040040   040040 040040   000000 107117   040040 040040            ..GO
   3     704   040040 040040   040040 040040   040040 040040   040040 040040
   3     710   040040 040040   040040 040040   040040 040040   000000 107117                ..GO
   3     714   123125 102040   040040 040040   040040 040040   040040 040040    SUB
   3     720   040040 040040   040040 040040   040040 040040   040040 040040
   3     724   000000 107117   124117 040040   040040 040040   040040 040040    ..GOTO
   3     730   040040 040040   040040 040040   040040 040040   040040 040040
   3     734   040040 040040   000000 110103   123040 040040   040040 040040        ..HCS
   3     740   040040 040040   040040 040040   040040 040040   040040 040040
   3     744   040040 040040   040040 040040   000000 110123   116040 040040            ..HSN
   3     750   040040 040040   040040 040040   040040 040040   040040 040040
   3     754   040040 040040   040040 040040   040040 040040   000000 110124                ..HT
   3     760   116040 040040   040040 040040   040040 040040   040040 040040    N
   3     764   040040 040040   040040 040040   040040 040040   040040 040040
   3     770   000000 111102   105130 040040   040040 040040   040040 040040    ..IBEX
PL6.E3A0      #001=ZIG$INIT_HAS File=ZIG$INIT_HAS.:ZIC0TSI                       FRI 09/05/97 12:05 Page:115
   3     774   040040 040040   040040 040040   040040 040040   040040 040040
   3    1000   040040 040040   000000 111104   101040 040040   040040 040040        ..IDA
   3    1004   040040 040040   040040 040040   040040 040040   040040 040040
   3    1010   040040 040040   040040 040040   000000 111104   116040 040040            ..IDN
   3    1014   040040 040040   040040 040040   040040 040040   040040 040040
   3    1020   040040 040040   040040 040040   040040 040040   000000 111106                ..IF
   3    1024   040040 040040   040040 040040   040040 040040   040040 040040
   3    1034*  000000 111116   120125 124040   040040 040040   040040 040040    ..INPUT
   3    1040   040040 040040   040040 040040   040040 040040   040040 040040
   3    1044   040040 040040   000000 111116   124040 040040   040040 040040        ..INT
   3    1050   040040 040040   040040 040040   040040 040040   040040 040040
   3    1054   040040 040040   040040 040040   000000 111116   126040 040040            ..INV
   3    1060   040040 040040   040040 040040   040040 040040   040040 040040
   3    1064   040040 040040   040040 040040   040040 040040   000000 113105                ..KE
   3    1070   131040 040040   040040 040040   040040 040040   040040 040040    Y
   3    1074   040040 040040   040040 040040   040040 040040   040040 040040
   3    1100   000000 113105   131044 040040   040040 040040   040040 040040    ..KEY$
   3    1104   040040 040040   040040 040040   040040 040040   040040 040040
   3    1110   040040 040040   000000 113131   106040 040040   040040 040040        ..KYF
   3    1114   040040 040040   040040 040040   040040 040040   040040 040040
   3    1120   040040 040040   040040 040040   000000 113131   106044 040040            ..KYF$
   3    1124   040040 040040   040040 040040   040040 040040   040040 040040
   3    1130   040040 040040   040040 040040   040040 040040   000000 113131                ..KY
   3    1134   114040 040040   040040 040040   040040 040040   040040 040040    L
   3    1140   040040 040040   040040 040040   040040 040040   040040 040040
   3    1144   000000 113131   114044 040040   040040 040040   040040 040040    ..KYL$
   3    1150   040040 040040   040040 040040   040040 040040   040040 040040
   3    1154   040040 040040   000000 114102   105040 040040   040040 040040        ..LBE
   3    1160   040040 040040   040040 040040   040040 040040   040040 040040
   3    1164   040040 040040   040040 040040   000000 114105   116040 040040            ..LEN
   3    1170   040040 040040   040040 040040   040040 040040   040040 040040
   3    1174   040040 040040   040040 040040   040040 040040   000000 114105                ..LE
   3    1200   124040 040040   040040 040040   040040 040040   040040 040040    T
   3    1204   040040 040040   040040 040040   040040 040040   040040 040040
   3    1210   000000 114107   124040 040040   040040 040040   040040 040040    ..LGT
   3    1214   040040 040040   040040 040040   040040 040040   040040 040040
   3    1220   040040 040040   000000 114111   102105 122122   040040 040040        ..LIBERR
PL6.E3A0      #001=ZIG$INIT_HAS File=ZIG$INIT_HAS.:ZIC0TSI                       FRI 09/05/97 12:05 Page:116
   3    1224   040040 040040   040040 040040   040040 040040   040040 040040
   3    1230   040040 040040   040040 040040   000000 114111   116113 040040            ..LINK
   3    1234   040040 040040   040040 040040   040040 040040   040040 040040
   3    1240   040040 040040   040040 040040   040040 040040   000000 114111                ..LI
   3    1244   116120 125124   040040 040040   040040 040040   040040 040040    NPUT
   3    1250   040040 040040   040040 040040   040040 040040   040040 040040
   3    1254   000000 114117   103044 040040   040040 040040   040040 040040    ..LOC$
   3    1260   040040 040040   040040 040040   040040 040040   040040 040040
   3    1264   040040 040040   000000 114117   107040 040040   040040 040040        ..LOG
   3    1270   040040 040040   040040 040040   040040 040040   040040 040040
   3    1274   040040 040040   040040 040040   000000 114117   107062 040040            ..LOG2
   3    1300   040040 040040   040040 040040   040040 040040   040040 040040
   3    1304   040040 040040   040040 040040   040040 040040   000000 114117                ..LO
   3    1310   107061 060040   040040 040040   040040 040040   040040 040040    G10
   3    1314   040040 040040   040040 040040   040040 040040   040040 040040
   3    1320   000000 114124   127040 040040   040040 040040   040040 040040    ..LTW
   3    1324   040040 040040   040040 040040   040040 040040   040040 040040
   3    1330   040040 040040   000000 114127   122103 044040   040040 040040        ..LWRC$
   3    1334   040040 040040   040040 040040   040040 040040   040040 040040
   3    1340   040040 040040   040040 040040   000000 115101   122040 040040            ..MAR
   3    1344   040040 040040   040040 040040   040040 040040   040040 040040
   3    1350   040040 040040   040040 040040   040040 040040   000000 115101                ..MA
   3    1354   122107 111116   040040 040040   040040 040040   040040 040040    RGIN
   3    1360   040040 040040   040040 040040   040040 040040   040040 040040
   3    1364   000000 115101   124040 040040   040040 040040   040040 040040    ..MAT
   3    1370   040040 040040   040040 040040   040040 040040   040040 040040
   3    1374   040040 040040   000000 115101   130040 040040   040040 040040        ..MAX
   3    1400   040040 040040   040040 040040   040040 040040   040040 040040
   3    1404   040040 040040   040040 040040   000000 115111   116040 040040            ..MIN
   3    1410   040040 040040   040040 040040   040040 040040   040040 040040
   3    1414   040040 040040   040040 040040   040040 040040   000000 115116                ..MN
   3    1420   105040 040040   040040 040040   040040 040040   040040 040040    E
   3    1424   040040 040040   040040 040040   040040 040040   040040 040040
   3    1430   000000 115117   104040 040040   040040 040040   040040 040040    ..MOD
   3    1434   040040 040040   040040 040040   040040 040040   040040 040040
   3    1440   040040 040040   000000 115117   116105 122122   040040 040040        ..MONERR
   3    1444   040040 040040   040040 040040   040040 040040   040040 040040
PL6.E3A0      #001=ZIG$INIT_HAS File=ZIG$INIT_HAS.:ZIC0TSI                       FRI 09/05/97 12:05 Page:117
   3    1450   040040 040040   040040 040040   000000 116113   105131 040040            ..NKEY
   3    1454   040040 040040   040040 040040   040040 040040   040040 040040
   3    1460   040040 040040   040040 040040   040040 040040   000000 116117                ..NO
   3    1464   127101 122116   040040 040040   040040 040040   040040 040040    WARN
   3    1470   040040 040040   040040 040040   040040 040040   040040 040040
   3    1474   000000 116125   114040 040040   040040 040040   040040 040040    ..NUL
   3    1500   040040 040040   040040 040040   040040 040040   040040 040040
   3    1504   040040 040040   000000 116125   115040 040040   040040 040040        ..NUM
   3    1510   040040 040040   040040 040040   040040 040040   040040 040040
   3    1514   040040 040040   040040 040040   000000 116125   115105 122111            ..NUMERI
   3    1520   103040 040040   040040 040040   040040 040040   040040 040040    C
   3    1524   040040 040040   040040 040040   040040 040040   000000 117106                ..OF
   3    1530   106040 040040   040040 040040   040040 040040   040040 040040    F
   3    1534   040040 040040   040040 040040   040040 040040   040040 040040
   3    1540   000000 117116   040040 040040   040040 040040   040040 040040    ..ON
   3    1544   040040 040040   040040 040040   040040 040040   040040 040040
   3    1550   040040 040040   000000 117120   105116 040040   040040 040040        ..OPEN
   3    1554   040040 040040   040040 040040   040040 040040   040040 040040
   3    1560   040040 040040   040040 040040   000000 117120   124111 117116            ..OPTION
   3    1564   040040 040040   040040 040040   040040 040040   040040 040040
   3    1570   040040 040040   040040 040040   040040 040040   000000 117122                ..OR
   3    1574   040040 040040   040040 040040   040040 040040   040040 040040
   3    1604*  000000 117126   105122 040040   040040 040040   040040 040040    ..OVER
   3    1610   040040 040040   040040 040040   040040 040040   040040 040040
   3    1614   040040 040040   000000 120101   107105 040040   040040 040040        ..PAGE
   3    1620   040040 040040   040040 040040   040040 040040   040040 040040
   3    1624   040040 040040   040040 040040   000000 120122   105103 111123            ..PRECIS
   3    1630   111117 116040   040040 040040   040040 040040   040040 040040    ION
   3    1634   040040 040040   040040 040040   040040 040040   000000 120122                ..PR
   3    1640   111116 124040   040040 040040   040040 040040   040040 040040    INT
   3    1644   040040 040040   040040 040040   040040 040040   040040 040040
   3    1650   000000 120122   117103 105105   104040 040040   040040 040040    ..PROCEED
   3    1654   040040 040040   040040 040040   040040 040040   040040 040040
   3    1660   040040 040040   000000 120122   117115 120124   040040 040040        ..PROMPT
   3    1664   040040 040040   040040 040040   040040 040040   040040 040040
   3    1670   040040 040040   040040 040040   000000 120125   124040 040040            ..PUT
   3    1674   040040 040040   040040 040040   040040 040040   040040 040040
PL6.E3A0      #001=ZIG$INIT_HAS File=ZIG$INIT_HAS.:ZIC0TSI                       FRI 09/05/97 12:05 Page:118
   3    1700   040040 040040   040040 040040   040040 040040   000000 122101                ..RA
   3    1704   104040 040040   040040 040040   040040 040040   040040 040040    D
   3    1710   040040 040040   040040 040040   040040 040040   040040 040040
   3    1714   000000 122101   116104 117115   111132 105040   040040 040040    ..RANDOMIZE
   3    1720   040040 040040   040040 040040   040040 040040   040040 040040
   3    1724   040040 040040   000000 122105   101104 040040   040040 040040        ..READ
   3    1730   040040 040040   040040 040040   040040 040040   040040 040040
   3    1734   040040 040040   040040 040040   000000 122105   115040 040040            ..REM
   3    1740   040040 040040   040040 040040   040040 040040   040040 040040
   3    1744   040040 040040   040040 040040   040040 040040   000000 122105                ..RE
   3    1750   120044 040040   040040 040040   040040 040040   040040 040040    P$
   3    1754   040040 040040   040040 040040   040040 040040   040040 040040
   3    1760   000000 122105   123124 117122   105040 040040   040040 040040    ..RESTORE
   3    1764   040040 040040   040040 040040   040040 040040   040040 040040
   3    1770   040040 040040   000000 122105   124125 122116   040040 040040        ..RETURN
   3    1774   040040 040040   040040 040040   040040 040040   040040 040040
   3    2000   040040 040040   040040 040040   000000 122116   104040 040040            ..RND
   3    2004   040040 040040   040040 040040   040040 040040   040040 040040
   3    2010   040040 040040   040040 040040   040040 040040   000000 122116                ..RN
   3    2014   123040 040040   040040 040040   040040 040040   040040 040040    S
   3    2020   040040 040040   040040 040040   040040 040040   040040 040040
   3    2024   000000 123103   101114 101122   123040 040040   040040 040040    ..SCALARS
   3    2030   040040 040040   040040 040040   040040 040040   040040 040040
   3    2034   040040 040040   000000 123103   116040 040040   040040 040040        ..SCN
   3    2040   040040 040040   040040 040040   040040 040040   040040 040040
   3    2044   040040 040040   040040 040040   000000 123105   103040 040040            ..SEC
   3    2050   040040 040040   040040 040040   040040 040040   040040 040040
   3    2054   040040 040040   040040 040040   040040 040040   000000 123107                ..SG
   3    2060   116040 040040   040040 040040   040040 040040   040040 040040    N
   3    2064   040040 040040   040040 040040   040040 040040   040040 040040
   3    2070   000000 123111   115040 040040   040040 040040   040040 040040    ..SIM
   3    2074   040040 040040   040040 040040   040040 040040   040040 040040
   3    2100   040040 040040   000000 123111   116040 040040   040040 040040        ..SIN
   3    2104   040040 040040   040040 040040   040040 040040   040040 040040
   3    2110   040040 040040   040040 040040   000000 123111   116107 114105            ..SINGLE
   3    2114   040040 040040   040040 040040   040040 040040   040040 040040
   3    2120   040040 040040   040040 040040   040040 040040   000000 123111                ..SI
PL6.E3A0      #001=ZIG$INIT_HAS File=ZIG$INIT_HAS.:ZIC0TSI                       FRI 09/05/97 12:05 Page:119
   3    2124   116110 040040   040040 040040   040040 040040   040040 040040    NH
   3    2130   040040 040040   040040 040040   040040 040040   040040 040040
   3    2134   000000 123113   105131 040040   040040 040040   040040 040040    ..SKEY
   3    2140   040040 040040   040040 040040   040040 040040   040040 040040
   3    2144   040040 040040   000000 123120   103040 040040   040040 040040        ..SPC
   3    2150   040040 040040   040040 040040   040040 040040   040040 040040
   3    2154   040040 040040   040040 040040   000000 123121   122040 040040            ..SQR
   3    2160   040040 040040   040040 040040   040040 040040   040040 040040
   3    2164   040040 040040   040040 040040   040040 040040   000000 123123                ..SS
   3    2170   124044 040040   040040 040040   040040 040040   040040 040040    T$
   3    2174   040040 040040   040040 040040   040040 040040   040040 040040
   3    2200   000000 123124   105120 040040   040040 040040   040040 040040    ..STEP
   3    2204   040040 040040   040040 040040   040040 040040   040040 040040
   3    2210   040040 040040   000000 123124   117120 040040   040040 040040        ..STOP
   3    2214   040040 040040   040040 040040   040040 040040   040040 040040
   3    2220   040040 040040   040040 040040   000000 123124   122044 040040            ..STR$
   3    2224   040040 040040   040040 040040   040040 040040   040040 040040
   3    2230   040040 040040   040040 040040   040040 040040   000000 123124                ..ST
   3    2234   122111 116107   040040 040040   040040 040040   040040 040040    RING
   3    2240   040040 040040   040040 040040   040040 040040   040040 040040
   3    2244   000000 123125   102040 040040   040040 040040   040040 040040    ..SUB
   3    2250   040040 040040   040040 040040   040040 040040   040040 040040
   3    2254   040040 040040   000000 124101   102040 040040   040040 040040        ..TAB
   3    2260   040040 040040   040040 040040   040040 040040   040040 040040
   3    2264   040040 040040   040040 040040   000000 124101   116040 040040            ..TAN
   3    2270   040040 040040   040040 040040   040040 040040   040040 040040
   3    2274   040040 040040   040040 040040   040040 040040   000000 124101                ..TA
   3    2300   116110 040040   040040 040040   040040 040040   040040 040040    NH
   3    2304   040040 040040   040040 040040   040040 040040   040040 040040
   3    2310   000000 124110   105116 040040   040040 040040   040040 040040    ..THEN
   3    2314   040040 040040   040040 040040   040040 040040   040040 040040
   3    2320   040040 040040   000000 124111   115040 040040   040040 040040        ..TIM
   3    2324   040040 040040   040040 040040   040040 040040   040040 040040
   3    2330   040040 040040   040040 040040   000000 124117   040040 040040            ..TO
   3    2334   040040 040040   040040 040040   040040 040040   040040 040040
   3    2340   040040 040040   040040 040040   040040 040040   000000 124122                ..TR
   3    2344   101103 105040   040040 040040   040040 040040   040040 040040    ACE
PL6.E3A0      #001=ZIG$INIT_HAS File=ZIG$INIT_HAS.:ZIC0TSI                       FRI 09/05/97 12:05 Page:120
   3    2350   040040 040040   040040 040040   040040 040040   040040 040040
   3    2354   000000 124122   116040 040040   040040 040040   040040 040040    ..TRN
   3    2360   040040 040040   040040 040040   040040 040040   040040 040040
   3    2364   040040 040040   000000 125116   124111 114040   040040 040040        ..UNTIL
   3    2370   040040 040040   040040 040040   040040 040040   040040 040040
   3    2374   040040 040040   040040 040040   000000 125120   103044 040040            ..UPC$
   3    2400   040040 040040   040040 040040   040040 040040   040040 040040
   3    2404   040040 040040   040040 040040   040040 040040   000000 125120                ..UP
   3    2410   122103 044040   040040 040040   040040 040040   040040 040040    RC$
   3    2414   040040 040040   040040 040040   040040 040040   040040 040040
   3    2420   000000 125123   111116 107040   040040 040040   040040 040040    ..USING
   3    2424   040040 040040   040040 040040   040040 040040   040040 040040
   3    2430   040040 040040   000000 125123   122044 040040   040040 040040        ..USR$
   3    2434   040040 040040   040040 040040   040040 040040   040040 040040
   3    2440   040040 040040   040040 040040   000000 126101   114040 040040            ..VAL
   3    2444   040040 040040   040040 040040   040040 040040   040040 040040
   3    2450   040040 040040   040040 040040   040040 040040   000000 127101                ..WA
   3    2454   122116 040040   040040 040040   040040 040040   040040 040040    RN
   3    2460   040040 040040   040040 040040   040040 040040   040040 040040
   3    2464   000000 127110   105116 040040   040040 040040   040040 040040    ..WHEN
   3    2470   040040 040040   040040 040040   040040 040040   040040 040040
   3    2474   040040 040040   000000 127110   111114 105040   040040 040040        ..WHILE
   3    2500   040040 040040   040040 040040   040040 040040   040040 040040
   3    2504   040040 040040   040040 040040   000000 132105   122040 040040            ..ZER
   3    2510   040040 040040   040040 040040   040040 040040   040040 040040
   3    2514   040040 040040   040040 040040   040040 040040

HAS_TABLE
 Sect OctLoc
   4     000   000000 006014   000000 006014   000000 006014   000000 006014    ................
   4    1450*  000000 006014                                                    ....

LANG_ALLOWED
 Sect OctLoc
   5     000   ****** ******   ****** ******   ****** ******   ****** ******    ................

HEADING_TEXT
PL6.E3A0      #001=ZIG$INIT_HAS File=ZIG$INIT_HAS.:ZIC0TSI                       FRI 09/05/97 12:05 Page:121
 Sect OctLoc
   7     000   ****** ******   ****** ******   ****** ******   ****** ******    ................

LANG_TEXT
 Sect OctLoc
   8     000   116117 124040   125123 105104   040040 103117   102117 114040    NOT USED  COBOL
   8     004   040040 040040   106117 122124   122101 116040   040040 101120        FORTRAN   AP
   8     010   114040 040040   040040 040040   102101 123111   103040 040040    L       BASIC
   8     014   040040 ******                                                      ..

HASH_SCHEMA_NAME
 Sect OctLoc
   9     000   0***** ******                                                    ....

(unnamed)
 Sect OctLoc
  13     000   000010 000000   000000 000000   000000 000003   000001 006000    ................
  13     004   000002 006000   000001 006000                                    ........

PL6.E3A0      #001=ZIG$INIT_HAS File=ZIG$INIT_HAS.:ZIC0TSI                       FRI 09/05/97 12:05 Page:122
--  Include file information  --

   CP_6.:LIB_E05  cannot be made into a system file and is referenced.
   ZI_SUB_LANG.:ZIC0TOU  is referenced.
   B$JIT_C.:E05TOU  was found in the system file and is never referenced.
   CP_6_C.:E05TOU  was found in the system file and is referenced.
      No diagnostics issued in procedure ZIG$INIT_HAS.

   Procedure ZIG$INIT_HAS requires 88 words for executable code.
   Procedure ZIG$INIT_HAS requires 14 words of local(AUTO) storage.

    No errors detected in file ZIG$INIT_HAS.:ZIC0TSI    .
PL6.E3A0      #001=ZIG$INIT_HAS File=ZIG$INIT_HAS.:ZIC0TSI                       FRI 09/05/97 12:05 Page:123
          *** CROSS REFERENCE LISTING ***
**     DENOTES     IDENTIFIER DEFINITION
<<                 IDENTIFIER'S VALUE SET
>>                 IDENTIFIER'S VALUE USED
<>                 IDENTIFIER SET AND/OR USED
--                 IDENTIFIER REFERENCED
PL6.E3A0      #001=ZIG$INIT_HAS File=ZIG$INIT_HAS.:ZIC0TSI                       FRI 09/05/97 12:05 Page:124
          MINI XREF LISTING

APL_FORT_RES_ARRAY.C_NAME
      1004**DCL      3272<>CALL
APL_FORT_RES_WORDS
       903**DCL      1000--DCLINIT
A_F_PTR$
      1000**DCL      1001--IMP-PTR  3272>>CALL
BASIC_RES_ARRAY.C_NAME
      1315**DCL      3281<>CALL
BASIC_RES_WORDS
      1008**DCL      1311--DCLINIT
BPTR$
      1311**DCL      1312--IMP-PTR  3281>>CALL
COBOL_RES_WORDS
        35**DCL       891--DCLINIT
COB_RES_ARRAY.C_NAME
       895**DCL      3260<>CALL
I
      3246**DCL      3259<<DOINDEX  3260>>CALL     3265<<DOINDEX  3272>>CALL     3277<<DOINDEX  3281>>CALL
RETURN_PTR$
       890**DCL      3260<>CALL     3272<>CALL     3281<>CALL
SUB_LANGUAGE
      3049**DCL      3251>>IF       3275>>IF
TEMP
      3247**DCL      3260<>CALL     3272<>CALL     3281<>CALL
TPTR$
       891**DCL       892--IMP-PTR  3260>>CALL
ZIG$HASH_IT
      1318**DCL-ENT  3260--CALL     3272--CALL     3281--CALL
