
PL6.E3A0      #001=ZIG$INTER File=ZIG$INTER.:ZIC0TSI                             FRI 09/05/97 12:05 Page:1
        1        1        /*M* ZIG$INTER        I-D-S/II            DBACS    */
        2        2        /*T***********************************************************/
        3        3        /*T*                                                         */
        4        4        /*T* Copyright (c) Bull HN Information Systems Inc., 1997    */
        5        5        /*T*                                                         */
        6        6        /*T***********************************************************/
        7        7        ZIG$INTER: PROC (STYP,DBK) ALTRET;
        8        8    1   DCL DBK BIT (36);
        9        9    1   DCL TDBK BIT(36) ALIGNED STATIC;
       10       10    1   DCL NULL BIT(36) STATIC ALIGNED INIT('0'B);
       11       11    1   DCL RC_OFFSET SBIN(18) STATIC ALIGNED;
       12       12    1   DCL SC_OFFSET SBIN(18) STATIC ALIGNED;
       13       13    1   DCL RTYP CHAR(4) BASED ;
       14       14    1   DCL STYP CHAR(8);
       15       15        %INCLUDE ZI_SUB4_CAN;
       16      672        %RVA;
       17      949        %UWA;
       18     1284        %IA;
       19     1300        %INCLUDE ZIA_IDS_DCL;
       20     1408    1   DCL ABORT ENTRY;
       21     1409    1   DCL ZIG$DDER ENTRY (1);
       22     1410    1   DCL SET_FIELDS ENTRY (3);
       23     1411    1   DCL M_EXIT ENTRY (1);
       24     1412        %INCLUDE ZI_ERRORS_SUBS;
       25     1932    1   DCL BIND_RC ENTRY (2);
       26     1933    1   DCL BIND_SC ENTRY (2);
       27     1934         %EJECT;
PL6.E3A0      #001=ZIG$INTER File=ZIG$INTER.:ZIC0TSI                             FRI 09/05/97 12:05 Page:2
       28     1935        /**/
       29     1936    1   STRE_6: ENTRY (STYP);
       30     1937    1       CALL BIND_RC(STYP,RC_OFFSET);
       31     1938    1       CALL ZIA$STORE (RC_OFFSET);
       32     1939    1       IF UWA.DB_STATUS ~= '0000000' THEN CALL ABORT;
       33     1940    1       RETURN;
       34     1941    1   FETCHC_6: ENTRY (STYP);
       35     1942    1       CALL BIND_RC(STYP,RC_OFFSET);
       36     1943    1       CALL ZIA$FIND_CALC (RC_OFFSET);
       37     1944    1       IF UWA.DB_STATUS ~= '0000000' THEN ALTRETURN;
       38     1945    1       CALL ZIA$GET (RC_OFFSET);
       39     1946    1       IF UWA.DB_STATUS ~= '0000000' THEN CALL ABORT;
       40     1947    1       RETURN;
       41     1948    1   ERASE_6: ENTRY (STYP);
       42     1949    1       CALL BIND_RC(STYP,RC_OFFSET);
       43     1950    1       CALL ZIA$ERASE (RC_OFFSET);
       44     1951    1       IF UWA.DB_STATUS ~= '0000000' THEN CALL ABORT;
       45     1952    1       RETURN;
       46     1953    1   FETCHD_6: ENTRY (STYP,DBK);
       47     1954    1       IF ADDR(STYP) ->RTYP ~= '****' THEN
       48     1955    1           CALL BIND_RC(STYP,RC_OFFSET);
       49     1956    1       ELSE
       50     1957    1           RC_OFFSET = 0;
       51     1958    1       TDBK = DBK;
       52     1959    1       CALL ZIA$FDR (RC_OFFSET, NULL, TDBK);
       53     1960    1       IF UWA.DB_STATUS ~= '0000000' THEN CALL ABORT;
       54     1961    1       CALL ZIA$GET (RC_OFFSET);
       55     1962    1       IF UWA.DB_STATUS ~= '0000000' THEN CALL ABORT;
       56     1963    1       RETURN;
       57     1964    1   FINDD_6: ENTRY (STYP,DBK);
       58     1965    1       IF ADDR(STYP) ->RTYP ~= '****' THEN
       59     1966    1           CALL BIND_RC(STYP,RC_OFFSET);
       60     1967    1       ELSE
       61     1968    1           RC_OFFSET = 0;
       62     1969    1       TDBK = DBK;
       63     1970    1       CALL ZIA$FDR (RC_OFFSET, NULL, TDBK);
       64     1971    1       IF UWA.DB_STATUS ~= '0000000' THEN CALL ABORT;
PL6.E3A0      #001=ZIG$INTER File=ZIG$INTER.:ZIC0TSI                             FRI 09/05/97 12:05 Page:3
       65     1972    1       RETURN;
       66     1973    1   FCURR_R_6: ENTRY (STYP);
       67     1974    1       CALL BIND_RC(STYP,RC_OFFSET);
       68     1975    1       CALL ZIA$FIND_TYPE (RC_OFFSET);
       69     1976    1       IF UWA.DB_STATUS ~= '0000000' THEN CALL ABORT;
       70     1977    1       RETURN;
       71     1978    1   MODIFY_6: ENTRY (STYP);
       72     1979    1       CALL BIND_RC(STYP,RC_OFFSET);
       73     1980    1       CALL ZIA$MODIFY (RC_OFFSET,NULL);
       74     1981    1       IF UWA.DB_STATUS ~= '0000000' THEN CALL ABORT;
       75     1982    1       RETURN;
       76     1983    1   FINDNS_6: ENTRY (STYP);
       77     1984    1       CALL BIND_SC(STYP,SC_OFFSET);
       78     1985    1       CALL ZIA$FRS (NULL, SC_OFFSET,2);
       79     1986    1       IF UWA.DB_STATUS ~= '0000000' THEN ALTRETURN;
       80     1987    1       RETURN;
       81     1988    1   FETCHNS_6: ENTRY (STYP) ALTRET;
       82     1989    1       CALL BIND_SC(STYP,SC_OFFSET);
       83     1990    1       CALL ZIA$FRS (NULL, SC_OFFSET,2);
       84     1991    1       IF UWA.DB_STATUS ~= '0000000' THEN ALTRETURN;
       85     1992    1       CALL ZIA$GET (NULL);
       86     1993    1       IF UWA.DB_STATUS ~= '0000000' THEN ALTRETURN;
       87     1994    1       RETURN;
       88     1995    1   FINDPS_6: ENTRY (STYP) ALTRET;
       89     1996    1       CALL BIND_SC(STYP,SC_OFFSET);
       90     1997    1       CALL ZIA$FRS (NULL, SC_OFFSET,0);
       91     1998    1       IF UWA.DB_STATUS ~= '0000000' THEN ALTRETURN;
       92     1999    1       RETURN;
       93     2000    1   FETCHPS_6: ENTRY (STYP) ALTRET;
       94     2001    1       CALL BIND_SC(STYP,SC_OFFSET);
       95     2002    1       CALL ZIA$FRS (NULL, SC_OFFSET,0);
       96     2003    1       IF UWA.DB_STATUS ~= '0000000' THEN ALTRETURN;
       97     2004    1       CALL ZIA$GET (NULL);
       98     2005    1       IF UWA.DB_STATUS ~= '0000000' THEN ALTRETURN;
       99     2006    1       RETURN;
      100     2007    1   FINDOS_6: ENTRY (STYP);
      101     2008    1       CALL BIND_SC(STYP,SC_OFFSET);
PL6.E3A0      #001=ZIG$INTER File=ZIG$INTER.:ZIC0TSI                             FRI 09/05/97 12:05 Page:4
      102     2009    1       CALL ZIA$FOR (SC_OFFSET);
      103     2010    1       IF UWA.DB_STATUS ~= '0000000' THEN CALL ABORT;
      104     2011    1       RETURN;
      105     2012    1   FETCHOS_6: ENTRY (STYP);
      106     2013    1       CALL BIND_SC(STYP,SC_OFFSET);
      107     2014    1       CALL ZIA$FOR (SC_OFFSET);
      108     2015    1       IF UWA.DB_STATUS ~= '0000000' THEN CALL ABORT;
      109     2016    1       CALL ZIA$GET (NULL);
      110     2017    1       IF UWA.DB_STATUS ~= '0000000' THEN CALL ABORT;
      111     2018    1       RETURN;
      112     2019    1   CONNECT_6: ENTRY (STYP);
      113     2020    1       CALL BIND_SC(STYP,SC_OFFSET);
      114     2021    1       CALL ZIA$CONNECT (SC_OFFSET);
      115     2022    1       IF UWA.DB_STATUS ~= '0000000' THEN CALL ABORT;
      116     2023    1       RETURN;
      117     2024    1   DISCONNECT_6: ENTRY (STYP);
      118     2025    1       CALL BIND_SC(STYP,SC_OFFSET);
      119     2026    1       CALL ZIA$DISCONN (SC_OFFSET);
      120     2027    1       IF UWA.DB_STATUS ~= '0000000' THEN CALL ABORT;
      121     2028    1       RETURN;
      122     2029    1   MODIFYIA_6: ENTRY (STYP);
      123     2030    1       CALL BIND_RC(STYP,RC_OFFSET);
      124     2031    1       CALL ZIA$MODIFY (RC_OFFSET,1);
      125     2032    1       IF UWA.DB_STATUS ~= '0000000' THEN CALL ABORT;
      126     2033    1       RETURN;
      127     2034    1   MODIFYMEM_6: ENTRY (STYP);
      128     2035    1       CALL BIND_RC(STYP,RC_OFFSET);
      129     2036    1       CALL ZIA$MODIFY(RC_OFFSET,SC_OFFSET);
      130     2037    1       IF UWA.DB_STATUS ~= '0000000' THEN CALL ABORT;
      131     2038    1       RETURN;
      132     2039    1   END ZIG$INTER;

PL6.E3A0      #001=ZIG$INTER File=ZIG$INTER.:ZIC0TSI                             FRI 09/05/97 12:05 Page:5
--  Include file information  --

   ZI_ERRORS_SUBS.:ZIC0TOU  is referenced.
   ZIA_IDS_DCL.:ZIC0TOU  cannot be made into a system file and is referenced.
   ZI_SUB4_CAN.:ZIC0TOU  is referenced.
   B$JIT_C.:E05TOU  was found in the system file and is never referenced.
   CP_6_C.:E05TOU  was found in the system file and is never referenced.
      No diagnostics issued in procedure ZIG$INTER.

   Procedure ZIG$INTER requires 425 words for executable code.
   Procedure ZIG$INTER requires 8 words of local(AUTO) storage.

    No errors detected in file ZIG$INTER.:ZIC0TSI    .

PL6.E3A0      #001=ZIG$INTER File=ZIG$INTER.:ZIC0TSI                             FRI 09/05/97 12:05 Page:6

 Object Unit name= ZIG$INTER                                  File name= ZIG$INTER.:ZIC0TOU
 UTS= SEP 05 '97 12:05:49.00 FRI                              Compiler= PL-6/E31         Sev=      00
 SharedLib= :SHARED_SYSTEM                                    Alt SharedLib=


    ****  Control sections  ****

 Sect   Type Bound  Init  Size OctSiz  Section name(segment info)
    0   Data  even  none     4      4  ZIG$INTER
    1  LblCom even  none   106    152  RVA
    2  LblCom even  none   656   1220  UWA
    3  LblCom even  none    46     56  IA
    4  RoData even  UTS      3      3  ZIG$INTER
    5   Proc  even  none   425    651  ZIG$INTER
    6  RoData even  none    21     25  ZIG$INTER

    ****  Entry defs  ****

                              Check   Calling
                             calling  sequence
  Sect OctLoc Primary Altret sequence   type   Parms  Name
     5      0   yes    yes     yes      Std        2  ZIG$INTER
     5      3          yes     yes      Std        1  STRE_6
     5     30          yes     yes      Std        1  FETCHC_6
     5     66          yes     yes      Std        1  ERASE_6
     5    113          yes     yes      Std        2  FETCHD_6
     5    167          yes     yes      Std        2  FINDD_6
     5    230          yes     yes      Std        1  FCURR_R_6
     5    255          yes     yes      Std        1  MODIFY_6
     5    302          yes     yes      Std        1  FINDNS_6
     5    325          yes     yes      Std        1  FETCHNS_6
     5    361          yes     yes      Std        1  FINDPS_6
     5    404          yes     yes      Std        1  FETCHPS_6
     5    440          yes     yes      Std        1  FINDOS_6
     5    465          yes     yes      Std        1  FETCHOS_6
     5    525          yes     yes      Std        1  CONNECT_6
     5    552          yes     yes      Std        1  DISCONNECT_6
PL6.E3A0      #001=ZIG$INTER File=ZIG$INTER.:ZIC0TSI                             FRI 09/05/97 12:05 Page:7
     5    577          yes     yes      Std        1  MODIFYIA_6
     5    624          yes     yes      Std        1  MODIFYMEM_6

  ****  Entry refs  ****

         Check        Calling
        calling       sequence
Altret sequence SRef   type   Args  Name
         yes           Std       2 BIND_RC
         yes           Std       1 ZIA$STORE
         yes           Std       1 ZIA$FIND_CALC
         yes           Std       1 ZIA$ERASE
         yes           Std       1 ZIA$CONNECT
         yes           Std       1 ZIA$FIND_TYPE
         yes           Std       1 ZIA$FOR
         yes           Std       1 ZIA$GET
         yes           Std       2 ZIA$MODIFY
         yes           Std       3 ZIA$FRS
         yes           Std       1 ZIA$DISCONN
         yes           Std       0 ABORT
         yes           Std       3 ZIA$FDR
         yes           Std       2 BIND_SC
                       nStd      0 X66_AUTO_2
                       nStd      0 X66_ARET
                       nStd      0 X66_AALT

  ****  Segment refs  ****

  Flags:  r = read only, s = secondary
Flgs Name                             Flgs Name                             Flgs Name
     ISSID
PL6.E3A0      #001=ZIG$INTER File=ZIG$INTER.:ZIC0TSI                             FRI 09/05/97 12:05 Page:8


        1        1        /*M* ZIG$INTER        I-D-S/II            DBACS    */
        2        2        /*T***********************************************************/
        3        3        /*T*                                                         */
        4        4        /*T* Copyright (c) Bull HN Information Systems Inc., 1997    */
        5        5        /*T*                                                         */
        6        6        /*T***********************************************************/
        7        7        ZIG$INTER: PROC (STYP,DBK) ALTRET;

      7  5 000000   000000 700200 xent  ZIG$INTER    TSX0  ! X66_AUTO_2
         5 000001   000010 000002                    ZERO    8,2
         5 000002   000005 710000 5                  TRA     s:1937

        8        8    1   DCL DBK BIT (36);
        9        9    1   DCL TDBK BIT(36) ALIGNED STATIC;
       10       10    1   DCL NULL BIT(36) STATIC ALIGNED INIT('0'B);
       11       11    1   DCL RC_OFFSET SBIN(18) STATIC ALIGNED;
       12       12    1   DCL SC_OFFSET SBIN(18) STATIC ALIGNED;
       13       13    1   DCL RTYP CHAR(4) BASED ;
       14       14    1   DCL STYP CHAR(8);
       15       15        %INCLUDE ZI_SUB4_CAN;
       16      672        %RVA;
       17      949        %UWA;
       18     1284        %IA;
       19     1300        %INCLUDE ZIA_IDS_DCL;
       20     1408    1   DCL ABORT ENTRY;
       21     1409    1   DCL ZIG$DDER ENTRY (1);
       22     1410    1   DCL SET_FIELDS ENTRY (3);
       23     1411    1   DCL M_EXIT ENTRY (1);
       24     1412        %INCLUDE ZI_ERRORS_SUBS;
       25     1932    1   DCL BIND_RC ENTRY (2);
       26     1933    1   DCL BIND_SC ENTRY (2);
       27     1934         %EJECT;
PL6.E3A0      #001=ZIG$INTER File=ZIG$INTER.:ZIC0TSI                             FRI 09/05/97 12:05 Page:9
       28     1935        /**/
       29     1936    1   STRE_6: ENTRY (STYP);

   1936  5 000003   000000 700200 xent  STRE_6       TSX0  ! X66_AUTO_2
         5 000004   000010 000002                    ZERO    8,2

       30     1937    1       CALL BIND_RC(STYP,RC_OFFSET);

   1937  5 000005   000001 236000 6                  LDQ     1
         5 000006   200003 235100                    LDA     @STYP,,AUTO
         5 000007   200006 757100                    STAQ    @DBK+2,,AUTO
         5 000010   200006 630500                    EPPR0   @DBK+2,,AUTO
         5 000011   000000 631400 6                  EPPR1   0
         5 000012   000000 701000 xent               TSX1    BIND_RC
         5 000013   000000 011000                    NOP     0

       31     1938    1       CALL ZIA$STORE (RC_OFFSET);

   1938  5 000014   000001 630400 6                  EPPR0   1
         5 000015   000002 631400 6                  EPPR1   2
         5 000016   000000 701000 xent               TSX1    ZIA$STORE
         5 000017   000000 011000                    NOP     0

       32     1939    1       IF UWA.DB_STATUS ~= '0000000' THEN CALL ABORT;

   1939  5 000020   040000 106400                    CMPC    fill='040'O
         5 000021   000001 000007 2                  ADSC9   UWA+1                    cn=0,n=7
         5 000022   000000 000007 4                  ADSC9   0                        cn=0,n=7
         5 000023   000027 600000 5                  TZE     s:1940

   1939  5 000024   000003 631400 6                  EPPR1   3
         5 000025   000000 701000 xent               TSX1    ABORT
         5 000026   000000 011000                    NOP     0

       33     1940    1       RETURN;

   1940  5 000027   000000 702200 xent               TSX2  ! X66_ARET
PL6.E3A0      #001=ZIG$INTER File=ZIG$INTER.:ZIC0TSI                             FRI 09/05/97 12:05 Page:10

       34     1941    1   FETCHC_6: ENTRY (STYP);

   1941  5 000030   000000 700200 xent  FETCHC_6     TSX0  ! X66_AUTO_2
         5 000031   000010 000002                    ZERO    8,2

       35     1942    1       CALL BIND_RC(STYP,RC_OFFSET);

   1942  5 000032   000001 236000 6                  LDQ     1
         5 000033   200003 235100                    LDA     @STYP,,AUTO
         5 000034   200006 757100                    STAQ    @DBK+2,,AUTO
         5 000035   200006 630500                    EPPR0   @DBK+2,,AUTO
         5 000036   000000 631400 6                  EPPR1   0
         5 000037   000000 701000 xent               TSX1    BIND_RC
         5 000040   000000 011000                    NOP     0

       36     1943    1       CALL ZIA$FIND_CALC (RC_OFFSET);

   1943  5 000041   000001 630400 6                  EPPR0   1
         5 000042   000002 631400 6                  EPPR1   2
         5 000043   000000 701000 xent               TSX1    ZIA$FIND_CALC
         5 000044   000000 011000                    NOP     0

       37     1944    1       IF UWA.DB_STATUS ~= '0000000' THEN ALTRETURN;

   1944  5 000045   040000 106400                    CMPC    fill='040'O
         5 000046   000001 000007 2                  ADSC9   UWA+1                    cn=0,n=7
         5 000047   000000 000007 4                  ADSC9   0                        cn=0,n=7
         5 000050   000052 600000 5                  TZE     s:1945

   1944  5 000051   000000 702200 xent               TSX2  ! X66_AALT

       38     1945    1       CALL ZIA$GET (RC_OFFSET);

   1945  5 000052   000001 630400 6                  EPPR0   1
         5 000053   000002 631400 6                  EPPR1   2
         5 000054   000000 701000 xent               TSX1    ZIA$GET
PL6.E3A0      #001=ZIG$INTER File=ZIG$INTER.:ZIC0TSI                             FRI 09/05/97 12:05 Page:11
         5 000055   000000 011000                    NOP     0

       39     1946    1       IF UWA.DB_STATUS ~= '0000000' THEN CALL ABORT;

   1946  5 000056   040000 106400                    CMPC    fill='040'O
         5 000057   000001 000007 2                  ADSC9   UWA+1                    cn=0,n=7
         5 000060   000000 000007 4                  ADSC9   0                        cn=0,n=7
         5 000061   000065 600000 5                  TZE     s:1947

   1946  5 000062   000003 631400 6                  EPPR1   3
         5 000063   000000 701000 xent               TSX1    ABORT
         5 000064   000000 011000                    NOP     0

       40     1947    1       RETURN;

   1947  5 000065   000000 702200 xent               TSX2  ! X66_ARET

       41     1948    1   ERASE_6: ENTRY (STYP);

   1948  5 000066   000000 700200 xent  ERASE_6      TSX0  ! X66_AUTO_2
         5 000067   000010 000002                    ZERO    8,2

       42     1949    1       CALL BIND_RC(STYP,RC_OFFSET);

   1949  5 000070   000001 236000 6                  LDQ     1
         5 000071   200003 235100                    LDA     @STYP,,AUTO
         5 000072   200006 757100                    STAQ    @DBK+2,,AUTO
         5 000073   200006 630500                    EPPR0   @DBK+2,,AUTO
         5 000074   000000 631400 6                  EPPR1   0
         5 000075   000000 701000 xent               TSX1    BIND_RC
         5 000076   000000 011000                    NOP     0

       43     1950    1       CALL ZIA$ERASE (RC_OFFSET);

   1950  5 000077   000001 630400 6                  EPPR0   1
         5 000100   000002 631400 6                  EPPR1   2
         5 000101   000000 701000 xent               TSX1    ZIA$ERASE
PL6.E3A0      #001=ZIG$INTER File=ZIG$INTER.:ZIC0TSI                             FRI 09/05/97 12:05 Page:12
         5 000102   000000 011000                    NOP     0

       44     1951    1       IF UWA.DB_STATUS ~= '0000000' THEN CALL ABORT;

   1951  5 000103   040000 106400                    CMPC    fill='040'O
         5 000104   000001 000007 2                  ADSC9   UWA+1                    cn=0,n=7
         5 000105   000000 000007 4                  ADSC9   0                        cn=0,n=7
         5 000106   000112 600000 5                  TZE     s:1952

   1951  5 000107   000003 631400 6                  EPPR1   3
         5 000110   000000 701000 xent               TSX1    ABORT
         5 000111   000000 011000                    NOP     0

       45     1952    1       RETURN;

   1952  5 000112   000000 702200 xent               TSX2  ! X66_ARET

       46     1953    1   FETCHD_6: ENTRY (STYP,DBK);

   1953  5 000113   000000 700200 xent  FETCHD_6     TSX0  ! X66_AUTO_2
         5 000114   000010 000002                    ZERO    8,2

       47     1954    1       IF ADDR(STYP) ->RTYP ~= '****' THEN

   1954  5 000115   200003 470500                    LDP0    @STYP,,AUTO
         5 000116   040000 106500                    CMPC    fill='040'O
         5 000117   000000 000004                    ADSC9   0,,PR0                   cn=0,n=4
         5 000120   000002 000004 4                  ADSC9   2                        cn=0,n=4
         5 000121   000132 600000 5                  TZE     s:1957

       48     1955    1           CALL BIND_RC(STYP,RC_OFFSET);

   1955  5 000122   000001 236000 6                  LDQ     1
         5 000123   200003 235100                    LDA     @STYP,,AUTO
         5 000124   200006 757100                    STAQ    @DBK+2,,AUTO
         5 000125   200006 630500                    EPPR0   @DBK+2,,AUTO
         5 000126   000000 631400 6                  EPPR1   0
PL6.E3A0      #001=ZIG$INTER File=ZIG$INTER.:ZIC0TSI                             FRI 09/05/97 12:05 Page:13
         5 000127   000000 701000 xent               TSX1    BIND_RC
         5 000130   000000 011000                    NOP     0
         5 000131   000134 710000 5                  TRA     s:1958

       49     1956    1       ELSE
       50     1957    1           RC_OFFSET = 0;

   1957  5 000132   000000 220003                    LDX0    0,DU
         5 000133   000002 740000 0                  STX0    RC_OFFSET

       51     1958    1       TDBK = DBK;

   1958  5 000134   200004 470500                    LDP0    @DBK,,AUTO
         5 000135   003000 060500                    CSL     bolr='003'O
         5 000136   000000 000044                    BDSC    0,,PR0                   by=0,bit=0,n=36
         5 000137   000000 000044 0                  BDSC    TDBK                     by=0,bit=0,n=36

       52     1959    1       CALL ZIA$FDR (RC_OFFSET, NULL, TDBK);

   1959  5 000140   000005 630400 6                  EPPR0   5
         5 000141   000004 631400 6                  EPPR1   4
         5 000142   000000 701000 xent               TSX1    ZIA$FDR
         5 000143   000000 011000                    NOP     0

       53     1960    1       IF UWA.DB_STATUS ~= '0000000' THEN CALL ABORT;

   1960  5 000144   040000 106400                    CMPC    fill='040'O
         5 000145   000001 000007 2                  ADSC9   UWA+1                    cn=0,n=7
         5 000146   000000 000007 4                  ADSC9   0                        cn=0,n=7
         5 000147   000153 600000 5                  TZE     s:1961

   1960  5 000150   000003 631400 6                  EPPR1   3
         5 000151   000000 701000 xent               TSX1    ABORT
         5 000152   000000 011000                    NOP     0

       54     1961    1       CALL ZIA$GET (RC_OFFSET);

PL6.E3A0      #001=ZIG$INTER File=ZIG$INTER.:ZIC0TSI                             FRI 09/05/97 12:05 Page:14
   1961  5 000153   000001 630400 6                  EPPR0   1
         5 000154   000002 631400 6                  EPPR1   2
         5 000155   000000 701000 xent               TSX1    ZIA$GET
         5 000156   000000 011000                    NOP     0

       55     1962    1       IF UWA.DB_STATUS ~= '0000000' THEN CALL ABORT;

   1962  5 000157   040000 106400                    CMPC    fill='040'O
         5 000160   000001 000007 2                  ADSC9   UWA+1                    cn=0,n=7
         5 000161   000000 000007 4                  ADSC9   0                        cn=0,n=7
         5 000162   000166 600000 5                  TZE     s:1963

   1962  5 000163   000003 631400 6                  EPPR1   3
         5 000164   000000 701000 xent               TSX1    ABORT
         5 000165   000000 011000                    NOP     0

       56     1963    1       RETURN;

   1963  5 000166   000000 702200 xent               TSX2  ! X66_ARET

       57     1964    1   FINDD_6: ENTRY (STYP,DBK);

   1964  5 000167   000000 700200 xent  FINDD_6      TSX0  ! X66_AUTO_2
         5 000170   000010 000002                    ZERO    8,2

       58     1965    1       IF ADDR(STYP) ->RTYP ~= '****' THEN

   1965  5 000171   200003 470500                    LDP0    @STYP,,AUTO
         5 000172   040000 106500                    CMPC    fill='040'O
         5 000173   000000 000004                    ADSC9   0,,PR0                   cn=0,n=4
         5 000174   000002 000004 4                  ADSC9   2                        cn=0,n=4
         5 000175   000206 600000 5                  TZE     s:1968

       59     1966    1           CALL BIND_RC(STYP,RC_OFFSET);

   1966  5 000176   000001 236000 6                  LDQ     1
         5 000177   200003 235100                    LDA     @STYP,,AUTO
PL6.E3A0      #001=ZIG$INTER File=ZIG$INTER.:ZIC0TSI                             FRI 09/05/97 12:05 Page:15
         5 000200   200006 757100                    STAQ    @DBK+2,,AUTO
         5 000201   200006 630500                    EPPR0   @DBK+2,,AUTO
         5 000202   000000 631400 6                  EPPR1   0
         5 000203   000000 701000 xent               TSX1    BIND_RC
         5 000204   000000 011000                    NOP     0
         5 000205   000210 710000 5                  TRA     s:1969

       60     1967    1       ELSE
       61     1968    1           RC_OFFSET = 0;

   1968  5 000206   000000 220003                    LDX0    0,DU
         5 000207   000002 740000 0                  STX0    RC_OFFSET

       62     1969    1       TDBK = DBK;

   1969  5 000210   200004 470500                    LDP0    @DBK,,AUTO
         5 000211   003000 060500                    CSL     bolr='003'O
         5 000212   000000 000044                    BDSC    0,,PR0                   by=0,bit=0,n=36
         5 000213   000000 000044 0                  BDSC    TDBK                     by=0,bit=0,n=36

       63     1970    1       CALL ZIA$FDR (RC_OFFSET, NULL, TDBK);

   1970  5 000214   000005 630400 6                  EPPR0   5
         5 000215   000004 631400 6                  EPPR1   4
         5 000216   000000 701000 xent               TSX1    ZIA$FDR
         5 000217   000000 011000                    NOP     0

       64     1971    1       IF UWA.DB_STATUS ~= '0000000' THEN CALL ABORT;

   1971  5 000220   040000 106400                    CMPC    fill='040'O
         5 000221   000001 000007 2                  ADSC9   UWA+1                    cn=0,n=7
         5 000222   000000 000007 4                  ADSC9   0                        cn=0,n=7
         5 000223   000227 600000 5                  TZE     s:1972

   1971  5 000224   000003 631400 6                  EPPR1   3
         5 000225   000000 701000 xent               TSX1    ABORT
         5 000226   000000 011000                    NOP     0
PL6.E3A0      #001=ZIG$INTER File=ZIG$INTER.:ZIC0TSI                             FRI 09/05/97 12:05 Page:16

       65     1972    1       RETURN;

   1972  5 000227   000000 702200 xent               TSX2  ! X66_ARET

       66     1973    1   FCURR_R_6: ENTRY (STYP);

   1973  5 000230   000000 700200 xent  FCURR_R_6    TSX0  ! X66_AUTO_2
         5 000231   000010 000002                    ZERO    8,2

       67     1974    1       CALL BIND_RC(STYP,RC_OFFSET);

   1974  5 000232   000001 236000 6                  LDQ     1
         5 000233   200003 235100                    LDA     @STYP,,AUTO
         5 000234   200006 757100                    STAQ    @DBK+2,,AUTO
         5 000235   200006 630500                    EPPR0   @DBK+2,,AUTO
         5 000236   000000 631400 6                  EPPR1   0
         5 000237   000000 701000 xent               TSX1    BIND_RC
         5 000240   000000 011000                    NOP     0

       68     1975    1       CALL ZIA$FIND_TYPE (RC_OFFSET);

   1975  5 000241   000001 630400 6                  EPPR0   1
         5 000242   000002 631400 6                  EPPR1   2
         5 000243   000000 701000 xent               TSX1    ZIA$FIND_TYPE
         5 000244   000000 011000                    NOP     0

       69     1976    1       IF UWA.DB_STATUS ~= '0000000' THEN CALL ABORT;

   1976  5 000245   040000 106400                    CMPC    fill='040'O
         5 000246   000001 000007 2                  ADSC9   UWA+1                    cn=0,n=7
         5 000247   000000 000007 4                  ADSC9   0                        cn=0,n=7
         5 000250   000254 600000 5                  TZE     s:1977

   1976  5 000251   000003 631400 6                  EPPR1   3
         5 000252   000000 701000 xent               TSX1    ABORT
         5 000253   000000 011000                    NOP     0
PL6.E3A0      #001=ZIG$INTER File=ZIG$INTER.:ZIC0TSI                             FRI 09/05/97 12:05 Page:17

       70     1977    1       RETURN;

   1977  5 000254   000000 702200 xent               TSX2  ! X66_ARET

       71     1978    1   MODIFY_6: ENTRY (STYP);

   1978  5 000255   000000 700200 xent  MODIFY_6     TSX0  ! X66_AUTO_2
         5 000256   000010 000002                    ZERO    8,2

       72     1979    1       CALL BIND_RC(STYP,RC_OFFSET);

   1979  5 000257   000001 236000 6                  LDQ     1
         5 000260   200003 235100                    LDA     @STYP,,AUTO
         5 000261   200006 757100                    STAQ    @DBK+2,,AUTO
         5 000262   200006 630500                    EPPR0   @DBK+2,,AUTO
         5 000263   000000 631400 6                  EPPR1   0
         5 000264   000000 701000 xent               TSX1    BIND_RC
         5 000265   000000 011000                    NOP     0

       73     1980    1       CALL ZIA$MODIFY (RC_OFFSET,NULL);

   1980  5 000266   000005 630400 6                  EPPR0   5
         5 000267   000000 631400 6                  EPPR1   0
         5 000270   000000 701000 xent               TSX1    ZIA$MODIFY
         5 000271   000000 011000                    NOP     0

       74     1981    1       IF UWA.DB_STATUS ~= '0000000' THEN CALL ABORT;

   1981  5 000272   040000 106400                    CMPC    fill='040'O
         5 000273   000001 000007 2                  ADSC9   UWA+1                    cn=0,n=7
         5 000274   000000 000007 4                  ADSC9   0                        cn=0,n=7
         5 000275   000301 600000 5                  TZE     s:1982

   1981  5 000276   000003 631400 6                  EPPR1   3
         5 000277   000000 701000 xent               TSX1    ABORT
         5 000300   000000 011000                    NOP     0
PL6.E3A0      #001=ZIG$INTER File=ZIG$INTER.:ZIC0TSI                             FRI 09/05/97 12:05 Page:18

       75     1982    1       RETURN;

   1982  5 000301   000000 702200 xent               TSX2  ! X66_ARET

       76     1983    1   FINDNS_6: ENTRY (STYP);

   1983  5 000302   000000 700200 xent  FINDNS_6     TSX0  ! X66_AUTO_2
         5 000303   000010 000002                    ZERO    8,2

       77     1984    1       CALL BIND_SC(STYP,SC_OFFSET);

   1984  5 000304   000010 236000 6                  LDQ     8
         5 000305   200003 235100                    LDA     @STYP,,AUTO
         5 000306   200006 757100                    STAQ    @DBK+2,,AUTO
         5 000307   200006 630500                    EPPR0   @DBK+2,,AUTO
         5 000310   000000 631400 6                  EPPR1   0
         5 000311   000000 701000 xent               TSX1    BIND_SC
         5 000312   000000 011000                    NOP     0

       78     1985    1       CALL ZIA$FRS (NULL, SC_OFFSET,2);

   1985  5 000313   000012 630400 6                  EPPR0   10
         5 000314   000004 631400 6                  EPPR1   4
         5 000315   000000 701000 xent               TSX1    ZIA$FRS
         5 000316   000000 011000                    NOP     0

       79     1986    1       IF UWA.DB_STATUS ~= '0000000' THEN ALTRETURN;

   1986  5 000317   040000 106400                    CMPC    fill='040'O
         5 000320   000001 000007 2                  ADSC9   UWA+1                    cn=0,n=7
         5 000321   000000 000007 4                  ADSC9   0                        cn=0,n=7
         5 000322   000324 600000 5                  TZE     s:1987

   1986  5 000323   000000 702200 xent               TSX2  ! X66_AALT

       80     1987    1       RETURN;
PL6.E3A0      #001=ZIG$INTER File=ZIG$INTER.:ZIC0TSI                             FRI 09/05/97 12:05 Page:19

   1987  5 000324   000000 702200 xent               TSX2  ! X66_ARET

       81     1988    1   FETCHNS_6: ENTRY (STYP) ALTRET;

   1988  5 000325   000000 700200 xent  FETCHNS_6    TSX0  ! X66_AUTO_2
         5 000326   000010 000002                    ZERO    8,2

       82     1989    1       CALL BIND_SC(STYP,SC_OFFSET);

   1989  5 000327   000010 236000 6                  LDQ     8
         5 000330   200003 235100                    LDA     @STYP,,AUTO
         5 000331   200006 757100                    STAQ    @DBK+2,,AUTO
         5 000332   200006 630500                    EPPR0   @DBK+2,,AUTO
         5 000333   000000 631400 6                  EPPR1   0
         5 000334   000000 701000 xent               TSX1    BIND_SC
         5 000335   000000 011000                    NOP     0

       83     1990    1       CALL ZIA$FRS (NULL, SC_OFFSET,2);

   1990  5 000336   000012 630400 6                  EPPR0   10
         5 000337   000004 631400 6                  EPPR1   4
         5 000340   000000 701000 xent               TSX1    ZIA$FRS
         5 000341   000000 011000                    NOP     0

       84     1991    1       IF UWA.DB_STATUS ~= '0000000' THEN ALTRETURN;

   1991  5 000342   040000 106400                    CMPC    fill='040'O
         5 000343   000001 000007 2                  ADSC9   UWA+1                    cn=0,n=7
         5 000344   000000 000007 4                  ADSC9   0                        cn=0,n=7
         5 000345   000347 600000 5                  TZE     s:1992

   1991  5 000346   000000 702200 xent               TSX2  ! X66_AALT

       85     1992    1       CALL ZIA$GET (NULL);

   1992  5 000347   000006 630400 6                  EPPR0   6
PL6.E3A0      #001=ZIG$INTER File=ZIG$INTER.:ZIC0TSI                             FRI 09/05/97 12:05 Page:20
         5 000350   000002 631400 6                  EPPR1   2
         5 000351   000000 701000 xent               TSX1    ZIA$GET
         5 000352   000000 011000                    NOP     0

       86     1993    1       IF UWA.DB_STATUS ~= '0000000' THEN ALTRETURN;

   1993  5 000353   040000 106400                    CMPC    fill='040'O
         5 000354   000001 000007 2                  ADSC9   UWA+1                    cn=0,n=7
         5 000355   000000 000007 4                  ADSC9   0                        cn=0,n=7
         5 000356   000360 600000 5                  TZE     s:1994

   1993  5 000357   000000 702200 xent               TSX2  ! X66_AALT

       87     1994    1       RETURN;

   1994  5 000360   000000 702200 xent               TSX2  ! X66_ARET

       88     1995    1   FINDPS_6: ENTRY (STYP) ALTRET;

   1995  5 000361   000000 700200 xent  FINDPS_6     TSX0  ! X66_AUTO_2
         5 000362   000010 000002                    ZERO    8,2

       89     1996    1       CALL BIND_SC(STYP,SC_OFFSET);

   1996  5 000363   000010 236000 6                  LDQ     8
         5 000364   200003 235100                    LDA     @STYP,,AUTO
         5 000365   200006 757100                    STAQ    @DBK+2,,AUTO
         5 000366   200006 630500                    EPPR0   @DBK+2,,AUTO
         5 000367   000000 631400 6                  EPPR1   0
         5 000370   000000 701000 xent               TSX1    BIND_SC
         5 000371   000000 011000                    NOP     0

       90     1997    1       CALL ZIA$FRS (NULL, SC_OFFSET,0);

   1997  5 000372   000015 630400 6                  EPPR0   13
         5 000373   000004 631400 6                  EPPR1   4
         5 000374   000000 701000 xent               TSX1    ZIA$FRS
PL6.E3A0      #001=ZIG$INTER File=ZIG$INTER.:ZIC0TSI                             FRI 09/05/97 12:05 Page:21
         5 000375   000000 011000                    NOP     0

       91     1998    1       IF UWA.DB_STATUS ~= '0000000' THEN ALTRETURN;

   1998  5 000376   040000 106400                    CMPC    fill='040'O
         5 000377   000001 000007 2                  ADSC9   UWA+1                    cn=0,n=7
         5 000400   000000 000007 4                  ADSC9   0                        cn=0,n=7
         5 000401   000403 600000 5                  TZE     s:1999

   1998  5 000402   000000 702200 xent               TSX2  ! X66_AALT

       92     1999    1       RETURN;

   1999  5 000403   000000 702200 xent               TSX2  ! X66_ARET

       93     2000    1   FETCHPS_6: ENTRY (STYP) ALTRET;

   2000  5 000404   000000 700200 xent  FETCHPS_6    TSX0  ! X66_AUTO_2
         5 000405   000010 000002                    ZERO    8,2

       94     2001    1       CALL BIND_SC(STYP,SC_OFFSET);

   2001  5 000406   000010 236000 6                  LDQ     8
         5 000407   200003 235100                    LDA     @STYP,,AUTO
         5 000410   200006 757100                    STAQ    @DBK+2,,AUTO
         5 000411   200006 630500                    EPPR0   @DBK+2,,AUTO
         5 000412   000000 631400 6                  EPPR1   0
         5 000413   000000 701000 xent               TSX1    BIND_SC
         5 000414   000000 011000                    NOP     0

       95     2002    1       CALL ZIA$FRS (NULL, SC_OFFSET,0);

   2002  5 000415   000015 630400 6                  EPPR0   13
         5 000416   000004 631400 6                  EPPR1   4
         5 000417   000000 701000 xent               TSX1    ZIA$FRS
         5 000420   000000 011000                    NOP     0

PL6.E3A0      #001=ZIG$INTER File=ZIG$INTER.:ZIC0TSI                             FRI 09/05/97 12:05 Page:22
       96     2003    1       IF UWA.DB_STATUS ~= '0000000' THEN ALTRETURN;

   2003  5 000421   040000 106400                    CMPC    fill='040'O
         5 000422   000001 000007 2                  ADSC9   UWA+1                    cn=0,n=7
         5 000423   000000 000007 4                  ADSC9   0                        cn=0,n=7
         5 000424   000426 600000 5                  TZE     s:2004

   2003  5 000425   000000 702200 xent               TSX2  ! X66_AALT

       97     2004    1       CALL ZIA$GET (NULL);

   2004  5 000426   000006 630400 6                  EPPR0   6
         5 000427   000002 631400 6                  EPPR1   2
         5 000430   000000 701000 xent               TSX1    ZIA$GET
         5 000431   000000 011000                    NOP     0

       98     2005    1       IF UWA.DB_STATUS ~= '0000000' THEN ALTRETURN;

   2005  5 000432   040000 106400                    CMPC    fill='040'O
         5 000433   000001 000007 2                  ADSC9   UWA+1                    cn=0,n=7
         5 000434   000000 000007 4                  ADSC9   0                        cn=0,n=7
         5 000435   000437 600000 5                  TZE     s:2006

   2005  5 000436   000000 702200 xent               TSX2  ! X66_AALT

       99     2006    1       RETURN;

   2006  5 000437   000000 702200 xent               TSX2  ! X66_ARET

      100     2007    1   FINDOS_6: ENTRY (STYP);

   2007  5 000440   000000 700200 xent  FINDOS_6     TSX0  ! X66_AUTO_2
         5 000441   000010 000002                    ZERO    8,2

      101     2008    1       CALL BIND_SC(STYP,SC_OFFSET);

   2008  5 000442   000010 236000 6                  LDQ     8
PL6.E3A0      #001=ZIG$INTER File=ZIG$INTER.:ZIC0TSI                             FRI 09/05/97 12:05 Page:23
         5 000443   200003 235100                    LDA     @STYP,,AUTO
         5 000444   200006 757100                    STAQ    @DBK+2,,AUTO
         5 000445   200006 630500                    EPPR0   @DBK+2,,AUTO
         5 000446   000000 631400 6                  EPPR1   0
         5 000447   000000 701000 xent               TSX1    BIND_SC
         5 000450   000000 011000                    NOP     0

      102     2009    1       CALL ZIA$FOR (SC_OFFSET);

   2009  5 000451   000010 630400 6                  EPPR0   8
         5 000452   000002 631400 6                  EPPR1   2
         5 000453   000000 701000 xent               TSX1    ZIA$FOR
         5 000454   000000 011000                    NOP     0

      103     2010    1       IF UWA.DB_STATUS ~= '0000000' THEN CALL ABORT;

   2010  5 000455   040000 106400                    CMPC    fill='040'O
         5 000456   000001 000007 2                  ADSC9   UWA+1                    cn=0,n=7
         5 000457   000000 000007 4                  ADSC9   0                        cn=0,n=7
         5 000460   000464 600000 5                  TZE     s:2011

   2010  5 000461   000003 631400 6                  EPPR1   3
         5 000462   000000 701000 xent               TSX1    ABORT
         5 000463   000000 011000                    NOP     0

      104     2011    1       RETURN;

   2011  5 000464   000000 702200 xent               TSX2  ! X66_ARET

      105     2012    1   FETCHOS_6: ENTRY (STYP);

   2012  5 000465   000000 700200 xent  FETCHOS_6    TSX0  ! X66_AUTO_2
         5 000466   000010 000002                    ZERO    8,2

      106     2013    1       CALL BIND_SC(STYP,SC_OFFSET);

   2013  5 000467   000010 236000 6                  LDQ     8
PL6.E3A0      #001=ZIG$INTER File=ZIG$INTER.:ZIC0TSI                             FRI 09/05/97 12:05 Page:24
         5 000470   200003 235100                    LDA     @STYP,,AUTO
         5 000471   200006 757100                    STAQ    @DBK+2,,AUTO
         5 000472   200006 630500                    EPPR0   @DBK+2,,AUTO
         5 000473   000000 631400 6                  EPPR1   0
         5 000474   000000 701000 xent               TSX1    BIND_SC
         5 000475   000000 011000                    NOP     0

      107     2014    1       CALL ZIA$FOR (SC_OFFSET);

   2014  5 000476   000010 630400 6                  EPPR0   8
         5 000477   000002 631400 6                  EPPR1   2
         5 000500   000000 701000 xent               TSX1    ZIA$FOR
         5 000501   000000 011000                    NOP     0

      108     2015    1       IF UWA.DB_STATUS ~= '0000000' THEN CALL ABORT;

   2015  5 000502   040000 106400                    CMPC    fill='040'O
         5 000503   000001 000007 2                  ADSC9   UWA+1                    cn=0,n=7
         5 000504   000000 000007 4                  ADSC9   0                        cn=0,n=7
         5 000505   000511 600000 5                  TZE     s:2016

   2015  5 000506   000003 631400 6                  EPPR1   3
         5 000507   000000 701000 xent               TSX1    ABORT
         5 000510   000000 011000                    NOP     0

      109     2016    1       CALL ZIA$GET (NULL);

   2016  5 000511   000006 630400 6                  EPPR0   6
         5 000512   000002 631400 6                  EPPR1   2
         5 000513   000000 701000 xent               TSX1    ZIA$GET
         5 000514   000000 011000                    NOP     0

      110     2017    1       IF UWA.DB_STATUS ~= '0000000' THEN CALL ABORT;

   2017  5 000515   040000 106400                    CMPC    fill='040'O
         5 000516   000001 000007 2                  ADSC9   UWA+1                    cn=0,n=7
         5 000517   000000 000007 4                  ADSC9   0                        cn=0,n=7
PL6.E3A0      #001=ZIG$INTER File=ZIG$INTER.:ZIC0TSI                             FRI 09/05/97 12:05 Page:25
         5 000520   000524 600000 5                  TZE     s:2018

   2017  5 000521   000003 631400 6                  EPPR1   3
         5 000522   000000 701000 xent               TSX1    ABORT
         5 000523   000000 011000                    NOP     0

      111     2018    1       RETURN;

   2018  5 000524   000000 702200 xent               TSX2  ! X66_ARET

      112     2019    1   CONNECT_6: ENTRY (STYP);

   2019  5 000525   000000 700200 xent  CONNECT_6    TSX0  ! X66_AUTO_2
         5 000526   000010 000002                    ZERO    8,2

      113     2020    1       CALL BIND_SC(STYP,SC_OFFSET);

   2020  5 000527   000010 236000 6                  LDQ     8
         5 000530   200003 235100                    LDA     @STYP,,AUTO
         5 000531   200006 757100                    STAQ    @DBK+2,,AUTO
         5 000532   200006 630500                    EPPR0   @DBK+2,,AUTO
         5 000533   000000 631400 6                  EPPR1   0
         5 000534   000000 701000 xent               TSX1    BIND_SC
         5 000535   000000 011000                    NOP     0

      114     2021    1       CALL ZIA$CONNECT (SC_OFFSET);

   2021  5 000536   000010 630400 6                  EPPR0   8
         5 000537   000002 631400 6                  EPPR1   2
         5 000540   000000 701000 xent               TSX1    ZIA$CONNECT
         5 000541   000000 011000                    NOP     0

      115     2022    1       IF UWA.DB_STATUS ~= '0000000' THEN CALL ABORT;

   2022  5 000542   040000 106400                    CMPC    fill='040'O
         5 000543   000001 000007 2                  ADSC9   UWA+1                    cn=0,n=7
         5 000544   000000 000007 4                  ADSC9   0                        cn=0,n=7
PL6.E3A0      #001=ZIG$INTER File=ZIG$INTER.:ZIC0TSI                             FRI 09/05/97 12:05 Page:26
         5 000545   000551 600000 5                  TZE     s:2023

   2022  5 000546   000003 631400 6                  EPPR1   3
         5 000547   000000 701000 xent               TSX1    ABORT
         5 000550   000000 011000                    NOP     0

      116     2023    1       RETURN;

   2023  5 000551   000000 702200 xent               TSX2  ! X66_ARET

      117     2024    1   DISCONNECT_6: ENTRY (STYP);

   2024  5 000552   000000 700200 xent  DISCONNECT_6 TSX0  ! X66_AUTO_2
         5 000553   000010 000002                    ZERO    8,2

      118     2025    1       CALL BIND_SC(STYP,SC_OFFSET);

   2025  5 000554   000010 236000 6                  LDQ     8
         5 000555   200003 235100                    LDA     @STYP,,AUTO
         5 000556   200006 757100                    STAQ    @DBK+2,,AUTO
         5 000557   200006 630500                    EPPR0   @DBK+2,,AUTO
         5 000560   000000 631400 6                  EPPR1   0
         5 000561   000000 701000 xent               TSX1    BIND_SC
         5 000562   000000 011000                    NOP     0

      119     2026    1       CALL ZIA$DISCONN (SC_OFFSET);

   2026  5 000563   000010 630400 6                  EPPR0   8
         5 000564   000002 631400 6                  EPPR1   2
         5 000565   000000 701000 xent               TSX1    ZIA$DISCONN
         5 000566   000000 011000                    NOP     0

      120     2027    1       IF UWA.DB_STATUS ~= '0000000' THEN CALL ABORT;

   2027  5 000567   040000 106400                    CMPC    fill='040'O
         5 000570   000001 000007 2                  ADSC9   UWA+1                    cn=0,n=7
         5 000571   000000 000007 4                  ADSC9   0                        cn=0,n=7
PL6.E3A0      #001=ZIG$INTER File=ZIG$INTER.:ZIC0TSI                             FRI 09/05/97 12:05 Page:27
         5 000572   000576 600000 5                  TZE     s:2028

   2027  5 000573   000003 631400 6                  EPPR1   3
         5 000574   000000 701000 xent               TSX1    ABORT
         5 000575   000000 011000                    NOP     0

      121     2028    1       RETURN;

   2028  5 000576   000000 702200 xent               TSX2  ! X66_ARET

      122     2029    1   MODIFYIA_6: ENTRY (STYP);

   2029  5 000577   000000 700200 xent  MODIFYIA_6   TSX0  ! X66_AUTO_2
         5 000600   000010 000002                    ZERO    8,2

      123     2030    1       CALL BIND_RC(STYP,RC_OFFSET);

   2030  5 000601   000001 236000 6                  LDQ     1
         5 000602   200003 235100                    LDA     @STYP,,AUTO
         5 000603   200006 757100                    STAQ    @DBK+2,,AUTO
         5 000604   200006 630500                    EPPR0   @DBK+2,,AUTO
         5 000605   000000 631400 6                  EPPR1   0
         5 000606   000000 701000 xent               TSX1    BIND_RC
         5 000607   000000 011000                    NOP     0

      124     2031    1       CALL ZIA$MODIFY (RC_OFFSET,1);

   2031  5 000610   000021 630400 6                  EPPR0   17
         5 000611   000000 631400 6                  EPPR1   0
         5 000612   000000 701000 xent               TSX1    ZIA$MODIFY
         5 000613   000000 011000                    NOP     0

      125     2032    1       IF UWA.DB_STATUS ~= '0000000' THEN CALL ABORT;

   2032  5 000614   040000 106400                    CMPC    fill='040'O
         5 000615   000001 000007 2                  ADSC9   UWA+1                    cn=0,n=7
         5 000616   000000 000007 4                  ADSC9   0                        cn=0,n=7
PL6.E3A0      #001=ZIG$INTER File=ZIG$INTER.:ZIC0TSI                             FRI 09/05/97 12:05 Page:28
         5 000617   000623 600000 5                  TZE     s:2033

   2032  5 000620   000003 631400 6                  EPPR1   3
         5 000621   000000 701000 xent               TSX1    ABORT
         5 000622   000000 011000                    NOP     0

      126     2033    1       RETURN;

   2033  5 000623   000000 702200 xent               TSX2  ! X66_ARET

      127     2034    1   MODIFYMEM_6: ENTRY (STYP);

   2034  5 000624   000000 700200 xent  MODIFYMEM_6  TSX0  ! X66_AUTO_2
         5 000625   000010 000002                    ZERO    8,2

      128     2035    1       CALL BIND_RC(STYP,RC_OFFSET);

   2035  5 000626   000001 236000 6                  LDQ     1
         5 000627   200003 235100                    LDA     @STYP,,AUTO
         5 000630   200006 757100                    STAQ    @DBK+2,,AUTO
         5 000631   200006 630500                    EPPR0   @DBK+2,,AUTO
         5 000632   000000 631400 6                  EPPR1   0
         5 000633   000000 701000 xent               TSX1    BIND_RC
         5 000634   000000 011000                    NOP     0

      129     2036    1       CALL ZIA$MODIFY(RC_OFFSET,SC_OFFSET);

   2036  5 000635   000023 630400 6                  EPPR0   19
         5 000636   000000 631400 6                  EPPR1   0
         5 000637   000000 701000 xent               TSX1    ZIA$MODIFY
         5 000640   000000 011000                    NOP     0

      130     2037    1       IF UWA.DB_STATUS ~= '0000000' THEN CALL ABORT;

   2037  5 000641   040000 106400                    CMPC    fill='040'O
         5 000642   000001 000007 2                  ADSC9   UWA+1                    cn=0,n=7
         5 000643   000000 000007 4                  ADSC9   0                        cn=0,n=7
PL6.E3A0      #001=ZIG$INTER File=ZIG$INTER.:ZIC0TSI                             FRI 09/05/97 12:05 Page:29
         5 000644   000650 600000 5                  TZE     s:2038

   2037  5 000645   000003 631400 6                  EPPR1   3
         5 000646   000000 701000 xent               TSX1    ABORT
         5 000647   000000 011000                    NOP     0

      131     2038    1       RETURN;

   2038  5 000650   000000 702200 xent               TSX2  ! X66_ARET

NULL
 Sect OctLoc
   0     001   000000 000000                                                    ....

RVA
 Sect OctLoc
   1     000   000151 000000   000000 000001   000001 000002   000001 000003    .i..............
   1     004   000001 000004   000001 000005   000001 000006   000001 000007    ................
   1     010   000001 000010   000001 000011   000001 000012   000001 000013    ................
   1     014   000001 000014   000001 000015   000001 000016   000001 000017    ................
   1     020   000001 000020   000001 000021   000001 000022   000001 000023    ................
   1     024   000001 000024   000001 000025   000001 000026   000001 000027    ................
   1     030   000001 000030   000001 000031   000001 000032   000001 000033    ................
   1     034   000001 000034   000001 000035   000001 000036   000001 000037    ................
   1     040   000001 000040   000001 000041   000001 000042   000001 000043    ... ...!..."...#
   1     044   000001 000044   000001 000045   000001 000046   000001 000047    ...$...%...&...'
   1     050   000001 000050   000001 000051   000001 000052   000002 000600    ...(...)...*....
   1     054   000002 000660   000002 001040   000002 001260   000002 001460    ....... ........
   1     060   000002 001540   000002 001660   000002 001700   000002 002140    ...............`
   1     064   000002 002320   000002 002700   000002 003100   000002 003260    ...........@....
   1     070   000002 003320   000002 003540   000002 003600   000002 003740    ................
   1     074   000002 004000   000002 004060   000002 004220   000002 004400    .......0........
   1     100   000002 004540   000002 004660   000002 004720   000002 004760    ................
   1     104   000002 005000   000002 005020   000002 005220   000002 005240    ................
   1     110   000002 005500   000002 005740   000002 005760   000002 006000    ................
   1     114   000002 006020   000002 006040   000002 006220   000002 006340    ....... ........
   1     120   000002 006640   000002 006760   000002 007120   000002 007240    ...........P....
PL6.E3A0      #001=ZIG$INTER File=ZIG$INTER.:ZIC0TSI                             FRI 09/05/97 12:05 Page:30
   1     124   000002 007320   000002 007420   000002 007560   000002 007640    ................
   1     130   000002 007760   000002 010120   000002 010360   000002 010460    .......P........
   1     134   000002 010620   000002 010720   000002 011060   000002 011160    ...........0...p
   1     140   000002 011220   000002 011320   000002 011400   000002 011460    ................
   1     144   000002 011540   000002 011620   000002 011700   000002 011760    ................
   1     150   000002 012040   000004 000000                                    ... ....

UWA
 Sect OctLoc
   2     000   000000 000000   040040 040040   040040 040040   040040 040040    ....
   2     004   040040 040040   040040 040040   040040 040040   040040 040040
   2     010   040040 040040   040040 040040   040040 000000   040040 040040              ..
   2     014   040040 040040   040040 040040   040040 040040   040040 040040
   2     020   040040 040040   040040 040040   040040 000000   040040 040040              ..
   2     024   040040 040040   040040 040040   040040 040040   040040 040040
   2     030   040040 040040   040040 040040   040040 000000   040040 040040              ..
   2     034   040040 040040   040040 040040   000000 000000   040040 040040            ....
   2     040   040040 040040   040040 040040   040040 040040   040040 040040
   2     044   040040 040040   040040 040040   040040 000000   040040 040040              ..
   2     050   040040 040040   040040 040040   040040 040040   040040 040040
   2     054   040040 040040   040040 040040   040040 000000   000000 000000              ......
   2     060   040040 040040   040*** ******   000000 000000   000000 000000         ...........
   2     064   000000 000000   000000 000000   040040 040040   040040 040040    ........
   2     070   040040 040040   040040 040040   040040 040040   040040 040040
   2     100*  040040 ******   000000 000000   040040 040040   040040 040040      ......
   2     104   040040 040040   040040 040040   040040 040040   040040 040040
   2     124*  040040 040040   040040 040040   000000 000000   040040 040040            ....
   2     130   040040 040040   040040 040040   040040 040040   040040 040040
   2     134   040040 040040   040040 040040   040040 ******   000000 000000              ......
   2     140   040040 040040   040040 040040   040040 040040   040040 040040
   2     144   040040 040040   040040 040040   000000 000000   000000 000000            ........
   2     150   000000 000000   000000 000000   000000 000000   000000 000000    ................
   2     154   040040 040040   040040 040040   040040 040040   040040 040040
   2     160   040040 040040   040040 040040   040040 040040   040040 ******                  ..
   2     164   000000 000000   ****** ******   000000 000000   000000 000000    ................
   2     170   000000 000000   040040 040040   040040 040040   040040 040040    ....
   2     174   040040 040040   040040 040040   040040 040040   040040 040040
PL6.E3A0      #001=ZIG$INTER File=ZIG$INTER.:ZIC0TSI                             FRI 09/05/97 12:05 Page:31
   2     210*  040040 040040   040040 040040   040040 040040   ****** ******                ....
   2     214   000000 000000   000000 000000   000000 000000   000000 000000    ................
   2     224*  000000 000000   000000 000000   000000 000000   040040 ******    ............  ..
   2     230   000000 000000   ****** ******   000000 000000   040040 040040    ............
   2     234   000000 000000   000000 000000   000000 000000   000000 000000    ................
   2     264*  000000 000000   000000 000000   000000 000000   ****** ******    ................
   2     270   000000 000000   000000 000000   000000 000000   000000 000000    ................
   2     324*  000000 000000   ****** ******   000000 000000   000000 000000    ................
   2     330   000000 000000   000000 000000   000000 000000   000000 000000    ................
   2     350*  000000 000000   000000 000000   000000 000000   ****** ******    ................
   2     360*  000000 000000   000000 000000   000000 000000   000000 000000    ................
   2     404*  000000 000000   ****** ******   000000 000000   000000 000000    ................
   2     410   000000 000000   000000 000000   000000 000000   000000 000000    ................
   2     424*  000000 000000   000000 000000   000000 000000   040040 040040    ............
   2     430   040040 040040   040040 040040   040040 040040   040040 040040
   2     434   040040 040040   040040 040040   040040 ******   ****** ******              ......
   2     440   040040 040040   040040 040040   040040 040040   040040 040040
   2     450*  040040 040040   040040 040040   040040 ******   ****** ******              ......
   2     454   000000 000000   040040 040040   040040 040040   040040 040040    ....
   2     460   040040 040040   040040 040040   040040 040040   040040 040040
   2     464   040040 ******   ****** ******   000000 000000   000000 000000      ..............
   2     470   000000 000000   000000 000000   000000 000000   000000 000000    ................
   2     474   000000 000000   ****** ******   000000 000000   000000 000000    ................
   2     500   000000 000000   000000 000000   040040 040040   040040 040040    ........
   2     504   040040 040040   040040 040040   040040 040040   040040 040040
   2     520*  040040 040040   ****** ******   000000 000000   000000 000000        ............
   2     524   040040 040040   040040 040040   040040 040040   040040 040040
   2     574*  000000 000000   000000 000000   000000 000000   000000 000000    ................
   2     600   000000 000000   000000 000000   000000 000000   ****** ******    ................
   2     604   000000 000000   000000 000000   000000 000000   000000 000000    ................
   2     610   000000 000000   000000 000000   040040 040040   040040 040040    ........
   2     614   040040 040040   040040 040040   040040 040040   040040 040040
   2     620   040040 040040   040040 ******   040040 040040   040040 040040          ..
   2     624   040040 040040   040040 040040   040040 040040   040040 040040
   2     660*  040040 040040   040040 040040   040040 040040   ****** ******                ....
   2     664   040040 040040   040040 040040   040040 040040   040040 040040
   2     674*  040040 040040   ****** ******   040040 040040   040040 040040        ....
PL6.E3A0      #001=ZIG$INTER File=ZIG$INTER.:ZIC0TSI                             FRI 09/05/97 12:05 Page:32
   2     700   040040 040040   040040 040040   040040 040040   040040 040040
   2     710*  040040 040040   ****** ******   040040 040040   040040 040040        ....
   2     714   040040 040040   040040 040040   040040 040040   040040 040040
   2     720   040040 040040   040040 040040   040040 040040   ****** ******                ....
   2     724   040040 040040   040040 040040   040040 040040   040040 040040
   2     740*  040040 040040   ****** ******   040040 040040   040040 040040        ....
   2     744   040040 040040   040040 040040   040040 040040   040040 040040
   2     774*  040040 040040   ****** ******   040040 040040   040040 040040        ....
   2    1000   040040 040040   040040 040040   040040 040040   040040 040040
   2    1034*  040040 040040   ****** ******   040040 040040   040040 040040        ....
   2    1040   040040 040040   040040 040040   040040 040040   040040 040040
   2    1060*  040040 040040   ****** ******   040040 040040   040040 040040        ....
   2    1064   040040 040040   040040 040040   040040 040040   040040 040040
   2    1114*  040040 040040   ****** ******   040040 040040   040040 040040        ....
   2    1120   040040 040040   040040 040040   040040 040040   040040 040040
   2    1134*  040040 040040   040040 040040   040040 040040   ****** ******                ....
   2    1140   040040 040040   040040 040040   040040 040040   040040 040040
   2    1144   040040 040040   ****** ******   040040 040040   040040 040040        ....
   2    1150   040040 040040   040040 040040   040040 040040   ****** ******                ....
   2    1154   040040 040040   040040 040040   040040 040040   040040 040040
   2    1160   040040 040040   ****** ******   040040 040040   040040 040040        ....
   2    1164   040040 040040   040040 040040   040040 040040   ****** ******                ....
   2    1170   040040 040040   040040 040040   040040 040040   040040 040040
   2    1200*  040040 040040   040040 040040   040040 040040   ****** ******                ....
   2    1204   040040 040040   040040 040040   040040 040040   040040 040040
   2    1214*  040040 040040   040040 040040   040040 040040   040040 040040

IA
 Sect OctLoc
   3     000   000000 000000   000000 006000   000000 000000   000000 000000    ................
   3     004   000000 000000   000000 000000   000000 000000   000000 000000    ................
   3     010   000000 006000   000000 000000   104125 116107   137123 103110    ........DUNG_SCH
   3     014   040040 040040   040040 040040   040040 040040   040040 040040
   3     020   040040 040040   040040 040040   104125 116107   055123 125102            DUNG-SUB
   3     024   040040 040040   040040 040040   040040 040040   040040 040040
   3     030   040040 040040   040040 040040   000000 000000   000000 000000            ........
   3     034   000000 000000   000000 000000   000000 000000   000000 000000    ................
PL6.E3A0      #001=ZIG$INTER File=ZIG$INTER.:ZIC0TSI                             FRI 09/05/97 12:05 Page:33
   3     050*  000000 000000   000000 000000   000000 000000   061476 566547    ............1...
   3     054   000000 000000   061476 527476                                    ....1...

(unnamed)
 Sect OctLoc
   4     000   060060 060060   060060 060040   052052 052052                    0000000 ****

(unnamed)
 Sect OctLoc
   6     000   000002 000000   000002 006000   000001 000000   000000 000000    ................
   6     004   000003 000000   000002 006000   000001 006000   000000 006000    ................
   6     010   000003 006000   000000 000002   000001 006000   000003 006000    ................
   6     014   000011 006000   000001 006000   000003 006000   000003 006000    ................
   6     020   000000 000001   000002 006000   000020 006000   000002 006000    ................
   6     024   000003 006000                                                    ....
      132     2039    1   END ZIG$INTER;

PL6.E3A0      #001=ZIG$INTER File=ZIG$INTER.:ZIC0TSI                             FRI 09/05/97 12:05 Page:34
--  Include file information  --

   ZI_ERRORS_SUBS.:ZIC0TOU  is referenced.
   ZIA_IDS_DCL.:ZIC0TOU  cannot be made into a system file and is referenced.
   ZI_SUB4_CAN.:ZIC0TOU  is referenced.
   B$JIT_C.:E05TOU  was found in the system file and is never referenced.
   CP_6_C.:E05TOU  was found in the system file and is never referenced.
      No diagnostics issued in procedure ZIG$INTER.

   Procedure ZIG$INTER requires 425 words for executable code.
   Procedure ZIG$INTER requires 8 words of local(AUTO) storage.

    No errors detected in file ZIG$INTER.:ZIC0TSI    .
PL6.E3A0      #001=ZIG$INTER File=ZIG$INTER.:ZIC0TSI                             FRI 09/05/97 12:05 Page:35
          *** CROSS REFERENCE LISTING ***
**     DENOTES     IDENTIFIER DEFINITION
<<                 IDENTIFIER'S VALUE SET
>>                 IDENTIFIER'S VALUE USED
<>                 IDENTIFIER SET AND/OR USED
--                 IDENTIFIER REFERENCED
PL6.E3A0      #001=ZIG$INTER File=ZIG$INTER.:ZIC0TSI                             FRI 09/05/97 12:05 Page:36
          MINI XREF LISTING

ABORT
      1408**DCL-ENT  1939--CALL     1946--CALL     1951--CALL     1960--CALL     1962--CALL     1971--CALL
      1976--CALL     1981--CALL     2010--CALL     2015--CALL     2017--CALL     2022--CALL     2027--CALL
      2032--CALL     2037--CALL
BIND_RC
      1932**DCL-ENT  1937--CALL     1942--CALL     1949--CALL     1955--CALL     1966--CALL     1974--CALL
      1979--CALL     2030--CALL     2035--CALL
BIND_SC
      1933**DCL-ENT  1984--CALL     1989--CALL     1996--CALL     2001--CALL     2008--CALL     2013--CALL
      2020--CALL     2025--CALL
DBK
         8**DCL         7--PROC     1953--ENTRY    1958>>ASSIGN   1964--ENTRY    1969>>ASSIGN
NULL
        10**DCL      1959<>CALL     1970<>CALL     1980<>CALL     1985<>CALL     1990<>CALL     1992<>CALL
      1997<>CALL     2002<>CALL     2004<>CALL     2016<>CALL
RC_OFFSET
        11**DCL      1937<>CALL     1938<>CALL     1942<>CALL     1943<>CALL     1945<>CALL     1949<>CALL
      1950<>CALL     1955<>CALL     1957<<ASSIGN   1959<>CALL     1961<>CALL     1966<>CALL     1968<<ASSIGN
      1970<>CALL     1974<>CALL     1975<>CALL     1979<>CALL     1980<>CALL     2030<>CALL     2031<>CALL
      2035<>CALL     2036<>CALL
RTYP
        13**DCL      1954>>IF       1965>>IF
RVA
       673**DCL      1291--DCLINIT
SC_OFFSET
        12**DCL      1984<>CALL     1985<>CALL     1989<>CALL     1990<>CALL     1996<>CALL     1997<>CALL
      2001<>CALL     2002<>CALL     2008<>CALL     2009<>CALL     2013<>CALL     2014<>CALL     2020<>CALL
      2021<>CALL     2025<>CALL     2026<>CALL     2036<>CALL
STYP
        14**DCL         7--PROC     1936--ENTRY    1937<>CALL     1941--ENTRY    1942<>CALL     1948--ENTRY
      1949<>CALL     1953--ENTRY    1954--IF       1955<>CALL     1964--ENTRY    1965--IF       1966<>CALL
      1973--ENTRY    1974<>CALL     1978--ENTRY    1979<>CALL     1983--ENTRY    1984<>CALL     1988--ENTRY
PL6.E3A0      #001=ZIG$INTER File=ZIG$INTER.:ZIC0TSI                             FRI 09/05/97 12:05 Page:37
      1989<>CALL     1995--ENTRY    1996<>CALL     2000--ENTRY    2001<>CALL     2007--ENTRY    2008<>CALL
      2012--ENTRY    2013<>CALL     2019--ENTRY    2020<>CALL     2024--ENTRY    2025<>CALL     2029--ENTRY
      2030<>CALL     2034--ENTRY    2035<>CALL
TDBK
         9**DCL      1958<<ASSIGN   1959<>CALL     1969<<ASSIGN   1970<>CALL
UWA
       950**DCL      1287--DCLINIT
UWA.AC.CALC_NEXT
      1060**DCL      1061--REDEF
UWA.AC.CALC_PRIOR
      1069**DCL      1070--REDEF
UWA.AC.DEFAULTS
      1021**DCL      1022--REDEF
UWA.AC.FILE_CODE
      1026**DCL      1027--REDEF
UWA.AC.FLAG1.ERROR_TYPE
      1023**DCL      1024--REDEF
UWA.DB_STATUS
       952**DCL      1939>>IF       1944>>IF       1946>>IF       1951>>IF       1960>>IF       1962>>IF
      1971>>IF       1976>>IF       1981>>IF       1986>>IF       1991>>IF       1993>>IF       1998>>IF
      2003>>IF       2005>>IF       2010>>IF       2015>>IF       2017>>IF       2022>>IF       2027>>IF
      2032>>IF       2037>>IF
ZIA$CONNECT
      1378**DCL-ENT  2021--CALL
ZIA$DISCONN
      1383**DCL-ENT  2026--CALL
ZIA$ERASE
      1388**DCL-ENT  1950--CALL
ZIA$FDR
      1308**DCL-ENT  1959--CALL     1970--CALL
ZIA$FIND_CALC
      1367**DCL-ENT  1943--CALL
ZIA$FIND_TYPE
      1372**DCL-ENT  1975--CALL
ZIA$FOR
      1335**DCL-ENT  2009--CALL     2014--CALL
PL6.E3A0      #001=ZIG$INTER File=ZIG$INTER.:ZIC0TSI                             FRI 09/05/97 12:05 Page:38
ZIA$FRS
      1314**DCL-ENT  1985--CALL     1990--CALL     1997--CALL     2002--CALL
ZIA$GET
      1340**DCL-ENT  1945--CALL     1961--CALL     1992--CALL     2004--CALL     2016--CALL
ZIA$MODIFY
      1355**DCL-ENT  1980--CALL     2031--CALL     2036--CALL
ZIA$STORE
      1361**DCL-ENT  1938--CALL
