
PL6.E3A0      #001=ZIG$MEM_LIM File=ZIG$MEM_LIM.:ZIC0TSI                         FRI 09/05/97 12:06 Page:1
        1        1        /*M*     ZIG$MEM_LIM    DBACS     I-D-S/II  */
        2        2        /*T***********************************************************/
        3        3        /*T*                                                         */
        4        4        /*T* Copyright (c) Bull HN Information Systems Inc., 1997    */
        5        5        /*T*                                                         */
        6        6        /*T***********************************************************/
        7        7        /*P*
        8        8        NAME:    ZIG$MEM_LIM
        9        9        PURPOSE: TO RETURN THE USERS CURRENT MEM LIMIT SO THAT DBACS
       10       10                 CAN DETERMINE HOW MUCH MEM IT CAN USE FOR DYNAMIC STORAGE.
       11       11        */
       12       12        ZIG$MEM_LIM: PROC (NOT_ENOUGH_MEM);
       13       13
       14       14    1   DCL NOT_ENOUGH_MEM BIT(1);
       15       15    1   DCL MAX_SIZE UBIN (36) EXT;
       16       16    1   DCL MEMORY_SIZE_WORDS UBIN WORD EXT;
       17       17    1   DCL B$JIT$ PTR SYMREF;
       18       18        %INCLUDE B$JIT;
       19      308        %INCLUDE CP_6;
       20      389        %FPT_MONINFO(STYPE=ANSWER);
       21      404    1   DCL ANSWER(0:35) BIT(1) STATIC INIT ('1'B*36) UNAL;
       22      405        %INCLUDE ZI_SUB_LANG;
       23     2120        %GENERAL;
       24     2244    1       MAX_SIZE=B$JIT.MAXCORE;
       25     2245        /*
       26     2246           This is the max core of this user in pages
       27     2247        */
       28     2248    1       CALL M$MONINFO(FPT_MONINFO);
       29     2249    1       IF ANSWER(35)
       30     2250    2       THEN DO;
       31     2251    2           LANG_ALLOWED(#APL) = 1;
       32     2252    2           END;
       33     2253    2       ELSE DO;
       34     2254    2           LANG_ALLOWED(#APL) = 0;
       35     2255    2           END;
       36     2256    1       IF ANSWER(34)
       37     2257    2       THEN DO;
PL6.E3A0      #001=ZIG$MEM_LIM File=ZIG$MEM_LIM.:ZIC0TSI                         FRI 09/05/97 12:06 Page:2
       38     2258    2           LANG_ALLOWED(#FORTRAN) = 1;
       39     2259    2           END;
       40     2260    2       ELSE DO;
       41     2261    2           LANG_ALLOWED(#FORTRAN) = 0;
       42     2262    2           END;
       43     2263    1       IF ANSWER(33)
       44     2264    2       THEN DO;
       45     2265    2           LANG_ALLOWED(#BASIC) = 1;
       46     2266    2           END;
       47     2267    2       ELSE DO;
       48     2268    2           LANG_ALLOWED(#BASIC) = 0;
       49     2269    2           END;
       50     2270    1       LANG_ALLOWED(#COBOL) = 1;
       51     2271    1       IF MAX_SIZE<128 /* Current max of dbacs and ids +22 */
       52     2272    2       THEN DO;
       53     2273    3           IF MAX_SIZE < 99 THEN DO;
       54     2274    3               NOT_ENOUGH_MEM = '1'B;
       55     2275    3               RETURN;
       56     2276    3               END;
       57     2277    3           ELSE DO;
       58     2278    3               MEMORY_SIZE_WORDS = 24582; /* 16K limit on lower bound */
       59     2279    3               END;
       60     2280    2           END;
       61     2281    2       ELSE DO;
       62     2282    2           IF MAX_SIZE>256
       63     2283    2           THEN MAX_SIZE=256;
       64     2284    2           MEMORY_SIZE_WORDS=(MAX_SIZE-80-25)*1024;
       65     2285    2           END;
       66     2286    1   END ZIG$MEM_LIM;
       67     2287        %EOD;

PL6.E3A0      #001=ZIG$MEM_LIM File=ZIG$MEM_LIM.:ZIC0TSI                         FRI 09/05/97 12:06 Page:3
--  Include file information  --

   ZI_SUB_LANG.:ZIC0TOU  is referenced.
   CP_6.:LIB_E05  cannot be made into a system file and is referenced.
   B$JIT.:LIB_E05  cannot be made into a system file and is referenced.
   B$JIT_C.:E05TOU  was found in the system file and is referenced.
   CP_6_C.:E05TOU  was found in the system file and is referenced.
      No diagnostics issued in procedure ZIG$MEM_LIM.

   Procedure ZIG$MEM_LIM requires 51 words for executable code.
   Procedure ZIG$MEM_LIM requires 4 words of local(AUTO) storage.

PL6.E3A0      #001=ZIG$MEM_LIM File=ZIG$MEM_LIM.:ZIC0TSI                         FRI 09/05/97 12:06 Page:4

 Object Unit name= ZIG$MEM_LIM                                File name= ZIG$MEM_LIM.:ZIC0TOU
 UTS= SEP 05 '97 12:06:29.88 FRI                              Compiler= PL-6/E31         Sev=      00
 SharedLib= :SHARED_SYSTEM                                    Alt SharedLib=


    ****  Control sections  ****

 Sect   Type Bound  Init  Size OctSiz  Section name(segment info)
    0  LblCom even  none     1      1  MAX_SIZE
    1  LblCom even  none     1      1  MEMORY_SIZE_WORDS
    2   DCB   even  none     0      0  M$UC
    3   Data  even  none    13     15  ZIG$MEM_LIM
    4  LblCom even  none     5      5  LANG_ALLOWED
    5  LblCom even  none     1      1  SUB_LANGUAGE
    6  LblCom even  none    16     20  HEADING_TEXT
    7  LblCom even  none    13     15  LANG_TEXT
    8  LblCom even  none     1      1  HASH_SCHEMA_NAME
    9  LblCom even  none     1      1  CURRENT_RECORD
   10   Proc  even  none    51     63  ZIG$MEM_LIM
   11  RoData even  none     1      1  ZIG$MEM_LIM

    ****  Entry defs  ****

                              Check   Calling
                             calling  sequence
  Sect OctLoc Primary Altret sequence   type   Parms  Name
    10      0   yes            yes      Std        1  ZIG$MEM_LIM

  ****  Entry refs  ****

         Check        Calling
        calling       sequence
Altret sequence SRef   type   Args  Name
                       nStd      0 X66_AUTO_1
                       nStd      0 X66_ARET
PL6.E3A0      #001=ZIG$MEM_LIM File=ZIG$MEM_LIM.:ZIC0TSI                         FRI 09/05/97 12:06 Page:5

  ****  Data refs  ****

  Flags:  r = read only, s = secondary
Flgs Name                             Flgs Name                             Flgs Name
     B$JIT$                                M$UC

  ****  Segment refs  ****

  Flags:  r = read only, s = secondary
Flgs Name                             Flgs Name                             Flgs Name
     NULLSID                               ISSID
PL6.E3A0      #001=ZIG$MEM_LIM File=ZIG$MEM_LIM.:ZIC0TSI                         FRI 09/05/97 12:06 Page:6


        1        1        /*M*     ZIG$MEM_LIM    DBACS     I-D-S/II  */
        2        2        /*T***********************************************************/
        3        3        /*T*                                                         */
        4        4        /*T* Copyright (c) Bull HN Information Systems Inc., 1997    */
        5        5        /*T*                                                         */
        6        6        /*T***********************************************************/
        7        7        /*P*
        8        8        NAME:    ZIG$MEM_LIM
        9        9        PURPOSE: TO RETURN THE USERS CURRENT MEM LIMIT SO THAT DBACS
       10       10                 CAN DETERMINE HOW MUCH MEM IT CAN USE FOR DYNAMIC STORAGE.
       11       11        */
       12       12        ZIG$MEM_LIM: PROC (NOT_ENOUGH_MEM);

     12 10 000000   000000 700200 xent  ZIG$MEM_LIM  TSX0  ! X66_AUTO_1
        10 000001   000004 000001                    ZERO    4,1

       13       13
       14       14    1   DCL NOT_ENOUGH_MEM BIT(1);
       15       15    1   DCL MAX_SIZE UBIN (36) EXT;
       16       16    1   DCL MEMORY_SIZE_WORDS UBIN WORD EXT;
       17       17    1   DCL B$JIT$ PTR SYMREF;
       18       18        %INCLUDE B$JIT;
       19      308        %INCLUDE CP_6;
       20      389        %FPT_MONINFO(STYPE=ANSWER);
       21      404    1   DCL ANSWER(0:35) BIT(1) STATIC INIT ('1'B*36) UNAL;
       22      405        %INCLUDE ZI_SUB_LANG;
       23     2120        %GENERAL;
       24     2244    1       MAX_SIZE=B$JIT.MAXCORE;

   2244 10 000002   000000 470400 xsym               LDP0    B$JIT$
        10 000003   000210 236100                    LDQ     136,,PR0
        10 000004   000022 772000                    QRL     18
        10 000005   000000 756000 0                  STQ     MAX_SIZE

       25     2245        /*
       26     2246           This is the max core of this user in pages
PL6.E3A0      #001=ZIG$MEM_LIM File=ZIG$MEM_LIM.:ZIC0TSI                         FRI 09/05/97 12:06 Page:7
       27     2247        */
       28     2248    1       CALL M$MONINFO(FPT_MONINFO);

   2248 10 000006   000000 630400 3                  EPPR0   FPT_MONINFO
        10 000007   020023 713400                    CLIMB   8211
        10 000010   402400 401760                    pmme    nvectors=6

       29     2249    1       IF ANSWER(35)

   2249 10 000011   000014 236000 3                  LDQ     ANSWER
        10 000012   000001 316007                    CANQ    1,DL
        10 000013   000017 600000 10                 TZE     s:2254

       30     2250    2       THEN DO;

       31     2251    2           LANG_ALLOWED(#APL) = 1;

   2251 10 000014   000001 235007                    LDA     1,DL
        10 000015   000003 755000 4                  STA     LANG_ALLOWED+3

       32     2252    2           END;

   2252 10 000016   000020 710000 10                 TRA     s:2256

       33     2253    2       ELSE DO;

       34     2254    2           LANG_ALLOWED(#APL) = 0;

   2254 10 000017   000003 450000 4                  STZ     LANG_ALLOWED+3

       35     2255    2           END;

       36     2256    1       IF ANSWER(34)

   2256 10 000020   000002 316007                    CANQ    2,DL
        10 000021   000025 600000 10                 TZE     s:2261

PL6.E3A0      #001=ZIG$MEM_LIM File=ZIG$MEM_LIM.:ZIC0TSI                         FRI 09/05/97 12:06 Page:8
       37     2257    2       THEN DO;

       38     2258    2           LANG_ALLOWED(#FORTRAN) = 1;

   2258 10 000022   000001 235007                    LDA     1,DL
        10 000023   000002 755000 4                  STA     LANG_ALLOWED+2

       39     2259    2           END;

   2259 10 000024   000026 710000 10                 TRA     s:2263

       40     2260    2       ELSE DO;

       41     2261    2           LANG_ALLOWED(#FORTRAN) = 0;

   2261 10 000025   000002 450000 4                  STZ     LANG_ALLOWED+2

       42     2262    2           END;

       43     2263    1       IF ANSWER(33)

   2263 10 000026   000004 316007                    CANQ    4,DL
        10 000027   000033 600000 10                 TZE     s:2268

       44     2264    2       THEN DO;

       45     2265    2           LANG_ALLOWED(#BASIC) = 1;

   2265 10 000030   000001 235007                    LDA     1,DL
        10 000031   000004 755000 4                  STA     LANG_ALLOWED+4

       46     2266    2           END;

   2266 10 000032   000034 710000 10                 TRA     s:2270

       47     2267    2       ELSE DO;

PL6.E3A0      #001=ZIG$MEM_LIM File=ZIG$MEM_LIM.:ZIC0TSI                         FRI 09/05/97 12:06 Page:9
       48     2268    2           LANG_ALLOWED(#BASIC) = 0;

   2268 10 000033   000004 450000 4                  STZ     LANG_ALLOWED+4

       49     2269    2           END;

       50     2270    1       LANG_ALLOWED(#COBOL) = 1;

   2270 10 000034   000001 235007                    LDA     1,DL
        10 000035   000001 755000 4                  STA     LANG_ALLOWED+1

       51     2271    1       IF MAX_SIZE<128 /* Current max of dbacs and ids +22 */

   2271 10 000036   000000 235000 0                  LDA     MAX_SIZE
        10 000037   000200 115007                    CMPA    128,DL
        10 000040   000053 603000 10                 TRC     s:2282

       52     2272    2       THEN DO;

       53     2273    3           IF MAX_SIZE < 99 THEN DO;

   2273 10 000041   000143 115007                    CMPA    99,DL
        10 000042   000050 603000 10                 TRC     s:2278

       54     2274    3               NOT_ENOUGH_MEM = '1'B;

   2274 10 000043   200003 470500                    LDP0    @NOT_ENOUGH_MEM,,AUTO
        10 000044   003100 060400                    CSL     bolr='003'O
        10 000045   000000 000001 11                 BDSC    0                        by=0,bit=0,n=1
        10 000046   000000 000001                    BDSC    0,,PR0                   by=0,bit=0,n=1

       55     2275    3               RETURN;

   2275 10 000047   000000 702200 xent               TSX2  ! X66_ARET

       56     2276    3               END;
       57     2277    3           ELSE DO;
PL6.E3A0      #001=ZIG$MEM_LIM File=ZIG$MEM_LIM.:ZIC0TSI                         FRI 09/05/97 12:06 Page:10

       58     2278    3               MEMORY_SIZE_WORDS = 24582; /* 16K limit on lower bound */

   2278 10 000050   060006 235007                    LDA     24582,DL
        10 000051   000000 755000 1                  STA     MEMORY_SIZE_WORDS

       59     2279    3               END;

       60     2280    2           END;

   2280 10 000052   000062 710000 10                 TRA     s:2286

       61     2281    2       ELSE DO;

       62     2282    2           IF MAX_SIZE>256

   2282 10 000053   000401 115007                    CMPA    257,DL
        10 000054   000057 602000 10                 TNC     s:2284

       63     2283    2           THEN MAX_SIZE=256;

   2283 10 000055   000400 235007                    LDA     256,DL
        10 000056   000000 755000 0                  STA     MAX_SIZE

       64     2284    2           MEMORY_SIZE_WORDS=(MAX_SIZE-80-25)*1024;

   2284 10 000057   000012 735000                    ALS     10
        10 000060   322000 135007                    SBLA    107520,DL
        10 000061   000000 755000 1                  STA     MEMORY_SIZE_WORDS

       65     2285    2           END;

       66     2286    1   END ZIG$MEM_LIM;

   2286 10 000062   000000 702200 xent               TSX2  ! X66_ARET

FPT_MONINFO
PL6.E3A0      #001=ZIG$MEM_LIM File=ZIG$MEM_LIM.:ZIC0TSI                         FRI 09/05/97 12:06 Page:11
 Sect OctLoc
   3     000   000000 177640   000000 006014   000000 177640   000000 006014    ................
   3     010*  000000 777640   000014 006000   000000 177640   000000 006014    ................

ANSWER
 Sect OctLoc
   3     014   777777 777777                                                    ....

LANG_ALLOWED
 Sect OctLoc
   4     000   ****** ******   ****** ******   ****** ******   ****** ******    ................

HEADING_TEXT
 Sect OctLoc
   6     000   ****** ******   ****** ******   ****** ******   ****** ******    ................

LANG_TEXT
 Sect OctLoc
   7     000   116117 124040   125123 105104   040040 103117   102117 114040    NOT USED  COBOL
   7     004   040040 040040   106117 122124   122101 116040   040040 101120        FORTRAN   AP
   7     010   114040 040040   040040 040040   102101 123111   103040 040040    L       BASIC
   7     014   040040 ******                                                      ..

HASH_SCHEMA_NAME
 Sect OctLoc
   8     000   0***** ******                                                    ....

(unnamed)
 Sect OctLoc
  11     000   400000 000000                                                    ....
       67     2287        %EOD;

PL6.E3A0      #001=ZIG$MEM_LIM File=ZIG$MEM_LIM.:ZIC0TSI                         FRI 09/05/97 12:06 Page:12
--  Include file information  --

   ZI_SUB_LANG.:ZIC0TOU  is referenced.
   CP_6.:LIB_E05  cannot be made into a system file and is referenced.
   B$JIT.:LIB_E05  cannot be made into a system file and is referenced.
   B$JIT_C.:E05TOU  was found in the system file and is referenced.
   CP_6_C.:E05TOU  was found in the system file and is referenced.
      No diagnostics issued in procedure ZIG$MEM_LIM.

   Procedure ZIG$MEM_LIM requires 51 words for executable code.
   Procedure ZIG$MEM_LIM requires 4 words of local(AUTO) storage.
PL6.E3A0      #001=ZIG$MEM_LIM File=ZIG$MEM_LIM.:ZIC0TSI                         FRI 09/05/97 12:06 Page:13
          *** CROSS REFERENCE LISTING ***
**     DENOTES     IDENTIFIER DEFINITION
<<                 IDENTIFIER'S VALUE SET
>>                 IDENTIFIER'S VALUE USED
<>                 IDENTIFIER SET AND/OR USED
--                 IDENTIFIER REFERENCED
PL6.E3A0      #001=ZIG$MEM_LIM File=ZIG$MEM_LIM.:ZIC0TSI                         FRI 09/05/97 12:06 Page:14
          MINI XREF LISTING

ANSWER
       404**DCL       402--DCLINIT  2249>>IF       2256>>IF       2263>>IF
B$JIT.CPFLAGS1.SLEAZE
       126**DCL       126--REDEF
B$JIT.ERR.MID
        33**DCL        33--REDEF
B$JIT.JRESPEAK
       194**DCL       195--REDEF
B$JIT.MAXCORE
       193**DCL      2244>>ASSIGN
B$JIT.ORIGINATOR_PORT.FROM_CR
       303**DCL       303--REDEF     304--REDEF
B$JIT.PNR
       207**DCL       207--REDEF
B$JIT.TSLINE
       301**DCL       302--REDEF
B$JIT$
        17**DCL        27--IMP-PTR  2244>>ASSIGN
FPT_MONINFO
       400**DCL      2248<>CALL
LANG_ALLOWED
      2127**DCL      2251<<ASSIGN   2254<<ASSIGN   2258<<ASSIGN   2261<<ASSIGN   2265<<ASSIGN   2268<<ASSIGN
      2270<<ASSIGN
M$MONINFO
       385**DCL-ENT  2248--CALL
MAX_SIZE
        15**DCL      2244<<ASSIGN   2271>>IF       2273>>IF       2282>>IF       2283<<ASSIGN   2284>>ASSIGN
MEMORY_SIZE_WORDS
        16**DCL      2278<<ASSIGN   2284<<ASSIGN
NOT_ENOUGH_MEM
        14**DCL        12--PROC     2274<<ASSIGN

PL6.E3A0      #002=OPEN_M$SO File=ZIG$MEM_LIM.:ZIC0TSI                           FRI 09/05/97 12:06 Page:15
       68        1        /*M*     OPEN_M$SO      IDS/II    DBACS */
       69        2        /*T***********************************************************/
       70        3        /*T*                                                         */
       71        4        /*T* Copyright (c) Bull HN Information Systems Inc., 1997    */
       72        5        /*T*                                                         */
       73        6        /*T***********************************************************/
       74        7        /*P*
       75        8        NAME:    OPEN_M$SO
       76        9        PURPOSE: OPEN M$SO FOR THE DISPLAY PROCESSORS.
       77       10        */
       78       11        OPEN_M$SO:
       79       12            PROC;
       80       13    1   DCL M$SI DCB;
       81       14         %INCLUDE CP_6;
       82       95        %M$DCB(NAME='*SO',EXIST=NEWFILE,DCBN=M$SO,FUN=CREATE,ASN=FILE,
       83       96         CTG=YES,DISP=NAMED);
       84      170        %FPT_OPEN(DCB=M$SO,FPTN=OPEN_FPT,ORG=KEYED,CTG=YES);
       85      279        %FPT_CORRES(DCB1=M$SI,DCB2=M$SO);
       86      293    1       CALL M$CORRES(FPT_CORRES) ALTRET (ERR);
       87      294    1       CALL M$OPEN(OPEN_FPT) ALTRET(ERR);
       88      295    1       RETURN;
       89      296    1   ERR:
       90      297    1       RETURN;
       91      298    1   END OPEN_M$SO;

PL6.E3A0      #002=OPEN_M$SO File=ZIG$MEM_LIM.:ZIC0TSI                           FRI 09/05/97 12:06 Page:16
--  Include file information  --

   CP_6.:LIB_E05  cannot be made into a system file and is referenced.
   B$JIT_C.:E05TOU  was found in the system file and is never referenced.
   CP_6_C.:E05TOU  was found in the system file and is referenced.
      No diagnostics issued in procedure OPEN_M$SO.

   Procedure OPEN_M$SO requires 12 words for executable code.
   Procedure OPEN_M$SO requires 4 words of local(AUTO) storage.

    No errors detected in file ZIG$MEM_LIM.:ZIC0TSI    .

PL6.E3A0      #002=OPEN_M$SO File=ZIG$MEM_LIM.:ZIC0TSI                           FRI 09/05/97 12:06 Page:17

 Object Unit name= OPEN_M$SO                                  File name= ZIG$MEM_LIM.:ZIC0TOU
 UTS= SEP 05 '97 12:06:46.40 FRI                              Compiler= PL-6/E31         Sev=      00
 SharedLib= :SHARED_SYSTEM                                    Alt SharedLib=


    ****  Control sections  ****

 Sect   Type Bound  Init  Size OctSiz  Section name(segment info)
    0   DCB   even  none     0      0  M$SI
    1   DCB   even  none     0      0  M$UC
    2   DCB   even  none    98    142  M$SO
    3   Data  even  none    62     76  OPEN_M$SO
    4   Proc  even  none    12     14  OPEN_M$SO

    ****  Entry defs  ****

                              Check   Calling
                             calling  sequence
  Sect OctLoc Primary Altret sequence   type   Parms  Name
     4      0   yes            yes      Std        0  OPEN_M$SO

  ****  Entry refs  ****

         Check        Calling
        calling       sequence
Altret sequence SRef   type   Args  Name
                       nStd      0 X66_AUTO_0
                       nStd      0 X66_ARET

  ****  Data refs  ****

  Flags:  r = read only, s = secondary
Flgs Name                             Flgs Name                             Flgs Name
     M$SI                                  M$UC                                  M$SO
PL6.E3A0      #002=OPEN_M$SO File=ZIG$MEM_LIM.:ZIC0TSI                           FRI 09/05/97 12:06 Page:18

  ****  Segment refs  ****

  Flags:  r = read only, s = secondary
Flgs Name                             Flgs Name                             Flgs Name
     NULLSID                               ISSID
PL6.E3A0      #002=OPEN_M$SO File=ZIG$MEM_LIM.:ZIC0TSI                           FRI 09/05/97 12:06 Page:19


       68        1        /*M*     OPEN_M$SO      IDS/II    DBACS */
       69        2        /*T***********************************************************/
       70        3        /*T*                                                         */
       71        4        /*T* Copyright (c) Bull HN Information Systems Inc., 1997    */
       72        5        /*T*                                                         */
       73        6        /*T***********************************************************/
       74        7        /*P*
       75        8        NAME:    OPEN_M$SO
       76        9        PURPOSE: OPEN M$SO FOR THE DISPLAY PROCESSORS.
       77       10        */
       78       11        OPEN_M$SO:
       79       12            PROC;

     12  4 000000   000000 700200 xent  OPEN_M$SO    TSX0  ! X66_AUTO_0
         4 000001   000004 000000                    ZERO    4,0

       80       13    1   DCL M$SI DCB;
       81       14         %INCLUDE CP_6;
       82       95        %M$DCB(NAME='*SO',EXIST=NEWFILE,DCBN=M$SO,FUN=CREATE,ASN=FILE,
       83       96         CTG=YES,DISP=NAMED);
       84      170        %FPT_OPEN(DCB=M$SO,FPTN=OPEN_FPT,ORG=KEYED,CTG=YES);
       85      279        %FPT_CORRES(DCB1=M$SI,DCB2=M$SO);
       86      293    1       CALL M$CORRES(FPT_CORRES) ALTRET (ERR);

    293  4 000002   000072 630400 3                  EPPR0   FPT_CORRES
         4 000003   460000 713400                    CLIMB   alt,+24576
         4 000004   400000 401760                    pmme    nvectors=1
         4 000005   000013 702000 4                  TSX2    ERR

       87      294    1       CALL M$OPEN(OPEN_FPT) ALTRET(ERR);

    294  4 000006   000000 630400 3                  EPPR0   OPEN_FPT
         4 000007   450000 713400                    CLIMB   alt,open
         4 000010   410400 401760                    pmme    nvectors=18
         4 000011   000013 702000 4                  TSX2    ERR

PL6.E3A0      #002=OPEN_M$SO File=ZIG$MEM_LIM.:ZIC0TSI                           FRI 09/05/97 12:06 Page:20
       88      295    1       RETURN;

    295  4 000012   000000 702200 xent               TSX2  ! X66_ARET

       89      296    1   ERR:
       90      297    1       RETURN;

    297  4 000013   000000 702200 xent  ERR          TSX2  ! X66_ARET

(unnamed)
 Sect OctLoc
   2     000   000000 000000   000000 000000   000000 000000   000000 000501    ................
   2     004   000000 000000   000000 000000   000000 006014   000000 006014    ................
   2     010   003052 123117   040040 040040   040040 040040   040040 040040    .*SO
   2     014   040040 040040   040040 040040   040040 040040   040040 040040
   2     024*  040040 040040   040040 040040   115105 040040   040040 040040            ME
   2     030   040040 040040   000000 207015   000003 001002   000000 000000        ............
   2     034   000000 000000   000000 000000   000000 000000   000002 776003    ................
   2     040   001000 000000   000000 000002   000000 000000   000000 000000    ................
   2     044   000000 000111   040040 040040   000000 006014   000000 006014    ...I    ........
   2     050   000000 006014   000000 000000   000000 000000   000000 006014    ................
   2     054   000000 000000   000000 000000   000000 000000   000000 000000    ................
   2     060   000000 010000   000000 000000   000000 000000   000000 000000    ................
   2     064   000000 000020   000000 000000   000000 006014   000000 000000    ................
   2     070   000000 000000   000000 000000   000000 000000   000000 000000    ................
   2     074   000000 000000   000000 006014   000000 000000   000000 000000    ................
   2     100   000000 000000   000000 000000   000000 000000   000000 000000    ................
   2     104   ****** ******   ****** ******   000000 000000   ****** ******    ................
   2     110   000000 000000   000000 000000   000000 000000   000000 000000    ................
   2     124*  000000 000000   000000 000000   000000 000000   ****** ******    ................
   2     134*  ****** ******   ****** ******   ****** ******   000000 070707    ..............8.
   2     140   ****** ******   ****** ******                                    ........

OPEN_FPT
 Sect OctLoc
   3     000   000025 777640   000044 006000   000000 177640   000000 006014    .....$..........
   3     004   000000 177640   000000 006014   000000 177640   000000 006014    ................
PL6.E3A0      #002=OPEN_M$SO File=ZIG$MEM_LIM.:ZIC0TSI                           FRI 09/05/97 12:06 Page:21
   3     044*  000000 000102   000000 000000   252525 002000   000040 252520    ...B......... ..
   3     050   000040 040040   000000 000000   000000 777777   000000 000000    .   ............
   3     054   000000 000000   000000 000000   000000 000000   000000 000000    ................
   3     060   251000 622000   000000 000000   000000 000000   111250 000000    ............I...
   3     064   040040 040040   000000 000000   000000 000000   000000 000000        ............
   3     070   000000 000000   ****** ******                                    ........

FPT_CORRES
 Sect OctLoc
   3     072   000001 777640   000074 006000   000000 000000   ****** ******    .....<..........
       91      298    1   END OPEN_M$SO;

PL6.E3A0      #002=OPEN_M$SO File=ZIG$MEM_LIM.:ZIC0TSI                           FRI 09/05/97 12:06 Page:22
--  Include file information  --

   CP_6.:LIB_E05  cannot be made into a system file and is referenced.
   B$JIT_C.:E05TOU  was found in the system file and is never referenced.
   CP_6_C.:E05TOU  was found in the system file and is referenced.
      No diagnostics issued in procedure OPEN_M$SO.

   Procedure OPEN_M$SO requires 12 words for executable code.
   Procedure OPEN_M$SO requires 4 words of local(AUTO) storage.

    No errors detected in file ZIG$MEM_LIM.:ZIC0TSI    .
PL6.E3A0      #002=OPEN_M$SO File=ZIG$MEM_LIM.:ZIC0TSI                           FRI 09/05/97 12:06 Page:23
          *** CROSS REFERENCE LISTING ***
**     DENOTES     IDENTIFIER DEFINITION
<<                 IDENTIFIER'S VALUE SET
>>                 IDENTIFIER'S VALUE USED
<>                 IDENTIFIER SET AND/OR USED
--                 IDENTIFIER REFERENCED
PL6.E3A0      #002=OPEN_M$SO File=ZIG$MEM_LIM.:ZIC0TSI                           FRI 09/05/97 12:06 Page:24
          MINI XREF LISTING

ERR
       297**LABEL     293--CALLALT   294--CALLALT
FPT_CORRES
       290**DCL       293<>CALL
FPT_CORRES.V
       290**DCL       290--DCLINIT
M$CORRES
        28**DCL-ENT   293--CALL
M$OPEN
        23**DCL-ENT   294--CALL
M$SO.ACTPOS
       138**DCL       138--REDEF
M$SO.ARS#
        97**DCL        97--REDEF
M$SO.ATTR#
       127**DCL       127--REDEF     129--REDEF
M$SO.BORROW
       149**DCL       149--REDEF     149--REDEF     149--REDEF
M$SO.DCBNAME.L
       168**DCL       168--IMP-SIZ
M$SO.EOMCHAR#
       104**DCL       105--REDEF
M$SO.FLDID
       141**DCL       142--REDEF
M$SO.FORM$
       133**DCL       133--REDEF
M$SO.FSECT
       156**DCL       156--REDEF
M$SO.FSN#
       123**DCL       123--REDEF     123--REDEF     124--REDEF
M$SO.HEADER$
       132**DCL       133--REDEF
PL6.E3A0      #002=OPEN_M$SO File=ZIG$MEM_LIM.:ZIC0TSI                           FRI 09/05/97 12:06 Page:25
M$SO.IXTNSIZE#
       129**DCL       130--REDEF
M$SO.LASTSTA$
       113**DCL       113--REDEF
M$SO.LVL
       150**DCL       150--REDEF
M$SO.NAME#.C
       113**DCL       114--REDEF
M$SO.NOEOF
       145**DCL       145--REDEF
M$SO.NRECS#
       130**DCL       130--REDEF
M$SO.NRECX
       157**DCL       157--REDEF
M$SO.OHDR
       146**DCL       146--REDEF
M$SO.ORG#
       121**DCL       122--REDEF
M$SO.PRECNO
       154**DCL       154--REDEF
M$SO.RCSZ
       162**DCL       162--REDEF
M$SO.RES#
       115**DCL       115--REDEF
M$SO.SETX
       134**DCL       134--REDEF
M$SO.TAB$
       133**DCL       133--REDEF
M$SO.TDA
       153**DCL       154--REDEF
M$SO.WSN#
       115**DCL       116--REDEF
OPEN_FPT
       235**DCL       294<>CALL
OPEN_FPT.ACSVEH_
       237**DCL       238--REDEF
PL6.E3A0      #002=OPEN_M$SO File=ZIG$MEM_LIM.:ZIC0TSI                           FRI 09/05/97 12:06 Page:26
OPEN_FPT.ALTKEYS_
       243**DCL       244--REDEF     244--REDEF
OPEN_FPT.HDR_
       242**DCL       243--REDEF
OPEN_FPT.TAB_
       241**DCL       242--REDEF
OPEN_FPT.UHL_
       235**DCL       236--REDEF     236--REDEF
OPEN_FPT.V
       244**DCL       235--DCLINIT
OPEN_FPT.V.FSN#
       275**DCL       275--REDEF     275--REDEF
OPEN_FPT.WSN_
       241**DCL       241--REDEF
