
PL6.E3A0      #001=ZIG$M_ERR File=ZIG$M_ERR.:ZIC0TSI                             FRI 09/05/97 12:07 Page:1
        1        1        /*M*     ZIG$M_ERR      I-D-S/II  DBACS */
        2        2        /*T***********************************************************/
        3        3        /*T*                                                         */
        4        4        /*T* Copyright (c) Bull HN Information Systems Inc., 1997    */
        5        5        /*T*                                                         */
        6        6        /*T***********************************************************/
        7        7        /*P*
        8        8        NAME:    ZIG$M_ERR
        9        9        PURPOSE: TO HANDLE THE ERROR MESSAGE WRITING FOR THE DMCL.
       10       10        */
       11       11        ZIG$M_ERR:
       12       12            PROC(ARG1,ARG2,ARG3);
       13       13    1   DCL ARG1 UBIN (36);
       14       14    1   DCL ARG2 UBIN (36);
       15       15    1   DCL ARG3 CHAR (ARG2);
       16       16    1   DCL NO_ERRORS BIT (1) EXT;
       17       17    1   DCL I UBIN (36);
       18       18    1   DCL 1 FIELD1 EXT,
       19       19    1         2 COUNT1 UBIN (9) UNAL,
       20       20    1         2 TEXT1 CHAR (31) UNAL;
       21       21    1   DCL 1 FIELD2 EXT,
       22       22    1         2 COUNT2 UBIN (9) UNAL,
       23       23    1         2 TEXT2 CHAR (31) UNAL;
       24       24    1   DCL 1 FIELD3 EXT,
       25       25    1         2 COUNT3 UBIN (9) UNAL,
       26       26    1         2 TEXT3 CHAR (31) UNAL;
       27       27    1   DCL TEMP1 CHAR (13);
       28       28    1   DCL TEMP2 CHAR (13);
       29       29    1   DCL J SBIN;
       30       30    1   DCL NUM_ERROR_MSG UBIN (36) EXT;
       31       31    1   DCL NUM_WARN_MSG UBIN (36) EXT;
       32       32    1   DCL SEARCHR_NB(0:127) UBIN (9) EXT UNAL INIT (1*32,0,1*95);
       33       33        %INCLUDE B_MICROPS_C;
       34      205    1   DCL MOPSTR(0:4) BIT (9) CONSTANT INIT(%LTE3, '040'O, %MFLS11, %ENF00, %MVC11);
       35      206        %INCLUDE CP_6;
       36      287        %FPT_ERRMSG(STCLASS=SYMREF);
       37      314    1   DCL ZIG$DDER ENTRY (1);
PL6.E3A0      #001=ZIG$M_ERR File=ZIG$M_ERR.:ZIC0TSI                             FRI 09/05/97 12:07 Page:2
       38      315    1   ERROR: ENTRY(ARG1);
       39      316    1       NO_ERRORS='0'B;
       40      317    1       NUM_ERROR_MSG = NUM_ERROR_MSG + 1;
       41      318    1       CALL ZIG$DDER(ARG1);
       42      319    1       RETURN;
       43      320    1   SET_FIELDS: ENTRY (ARG1,ARG2,ARG3);
       44      321        /*D*     NAME:     ARG1
       45      322                 THIS VARIABLE TELLS WHAT FIELD TO PUT THE TEXT IN.
       46      323        */
       47      324        /*D*     NAME:     ARG2
       48      325                 THIS VARIABLE TELL HOW LONG TEXT CAN BE.
       49      326        */
       50      327        /*D*     NAME:     ARG3
       51      328                 THIS VARIABLE IS WHERE THE TEXT TO BE SET IN THE ERROR
       52      329               FIELDS IS AT.
       53      330        */
       54      331    1       CALL SEARCHR(I,J,SEARCHR_NB,ARG3,ARG2) ALTRET(NO_BLANK);
       55      332    2       DO WHILE ('0'B);
       56      333    2   NO_BLANK:
       57      334    2           I = 0;
       58      335    2           END;
       59      336    2       DO CASE (ARG1);
       60      337    2       CASE(1);
       61      338    2           FIELD1.COUNT1=I+1;
       62      339    2           FIELD1.TEXT1=ARG3;
       63      340    2       CASE(2);
       64      341    2           FIELD2.COUNT2=I+1;
       65      342    2           FIELD2.TEXT2=ARG3;
       66      343    2       CASE(3);
       67      344    2           FIELD3.COUNT3=I+1;
       68      345    2           FIELD3.TEXT3=ARG3;
       69      346    2           END;
       70      347    1       RETURN;
       71      348    1   SET_FIELD_NUM: ENTRY(ARG1, ARG2);
       72      349        /*D*
       73      350              SET_FIELD_NUM - converts binary number (ARG2) to a character string
       74      351                              and puts in into the replacement field indicated
PL6.E3A0      #001=ZIG$M_ERR File=ZIG$M_ERR.:ZIC0TSI                             FRI 09/05/97 12:07 Page:3
       75      352                              by ARG1.
       76      353        */
       77      354
       78      355    1       CALL BINXCHAR(TEMP1, ARG2);
       79      356    1       CALL EDITXCHAR(TEMP2, 0, 13, MOPSTR, TEMP1);
       80      357    1       CALL INDEX1R( J, ' ', TEMP2 );
       81      358    2       DO CASE( ARG1 );
       82      359    2       CASE( 1 );
       83      360    2           FIELD1.COUNT1 = 12 - J;
       84      361    2           FIELD1.TEXT1 = SUBSTR( TEMP2, J+1 );
       85      362    2       CASE( 2 );
       86      363    2           FIELD2.COUNT2 = 12 - J;
       87      364    2           FIELD2.TEXT2 = SUBSTR( TEMP2, J+1 );
       88      365    2       CASE( 3 );
       89      366    2           FIELD3.COUNT3 = 12 - J;
       90      367    2           FIELD3.TEXT3 = SUBSTR( TEMP2, J+1 );
       91      368    2           END;
       92      369    1       RETURN;
       93      370    1   WARNING: ENTRY(ARG1);
       94      371    1       NUM_WARN_MSG = NUM_WARN_MSG + 1;
       95      372    1       FPT_ERRMSG.V.FLAGLEV#=2;
       96      373    1       CALL ZIG$DDER(ARG1);
       97      374    1       FPT_ERRMSG.V.FLAGLEV#=3;
       98      375    1       RETURN;
       99      376    1   INFO_ONLY: ENTRY(ARG1);
      100      377    1       FPT_ERRMSG.V.FLAGLEV#=1;
      101      378    1       CALL ZIG$DDER(ARG1);
      102      379    1       FPT_ERRMSG.V.FLAGLEV#=3;
      103      380    1       RETURN;
      104      381    1   END ZIG$M_ERR;

PL6.E3A0      #001=ZIG$M_ERR File=ZIG$M_ERR.:ZIC0TSI                             FRI 09/05/97 12:07 Page:4
--  Include file information  --

   CP_6.:LIB_E05  cannot be made into a system file and is referenced.
   B_MICROPS_C.:LIB_E05  is referenced.
   B$JIT_C.:E05TOU  was found in the system file and is never referenced.
   CP_6_C.:E05TOU  was found in the system file and is referenced.
      No diagnostics issued in procedure ZIG$M_ERR.

   Procedure ZIG$M_ERR requires 165 words for executable code.
   Procedure ZIG$M_ERR requires 18 words of local(AUTO) storage.

    No errors detected in file ZIG$M_ERR.:ZIC0TSI    .

PL6.E3A0      #001=ZIG$M_ERR File=ZIG$M_ERR.:ZIC0TSI                             FRI 09/05/97 12:07 Page:5

 Object Unit name= ZIG$M_ERR                                  File name= ZIG$M_ERR.:ZIC0TOU
 UTS= SEP 05 '97 12:07:14.88 FRI                              Compiler= PL-6/E31         Sev=      00
 SharedLib= :SHARED_SYSTEM                                    Alt SharedLib=


    ****  Control sections  ****

 Sect   Type Bound  Init  Size OctSiz  Section name(segment info)
    0  LblCom even  none     1      1  NO_ERRORS
    1  LblCom even  none     8     10  FIELD1
    2  LblCom even  none     8     10  FIELD2
    3  LblCom even  none     8     10  FIELD3
    4  LblCom even  none     1      1  NUM_ERROR_MSG
    5  LblCom even  none     1      1  NUM_WARN_MSG
    6  LblCom even  none    32     40  SEARCHR_NB
    7  RoData even  UTS      2      2  ZIG$M_ERR
    8   DCB   even  none     0      0  M$UC
    9   Proc  even  none   165    245  ZIG$M_ERR
   10  RoData even  none     2      2  ZIG$M_ERR

    ****  Entry defs  ****

                              Check   Calling
                             calling  sequence
  Sect OctLoc Primary Altret sequence   type   Parms  Name
     9      0   yes            yes      Std        3  ZIG$M_ERR
     9      3                  yes      Std        1  ERROR
     9     16                  yes      Std        3  SET_FIELDS
     9    113                  yes      Std        2  SET_FIELD_NUM
     9    214                  yes      Std        1  WARNING
     9    232                  yes      Std        1  INFO_ONLY
PL6.E3A0      #001=ZIG$M_ERR File=ZIG$M_ERR.:ZIC0TSI                             FRI 09/05/97 12:07 Page:6

  ****  Entry refs  ****

         Check        Calling
        calling       sequence
Altret sequence SRef   type   Args  Name
         yes           Std       1 ZIG$DDER
                       nStd      0 X66_AUTO_3
                       nStd      0 X66_ARET

  ****  Data refs  ****

  Flags:  r = read only, s = secondary
Flgs Name                             Flgs Name                             Flgs Name
     M$UC                                  FPT_ERRMSG
PL6.E3A0      #001=ZIG$M_ERR File=ZIG$M_ERR.:ZIC0TSI                             FRI 09/05/97 12:07 Page:7


        1        1        /*M*     ZIG$M_ERR      I-D-S/II  DBACS */
        2        2        /*T***********************************************************/
        3        3        /*T*                                                         */
        4        4        /*T* Copyright (c) Bull HN Information Systems Inc., 1997    */
        5        5        /*T*                                                         */
        6        6        /*T***********************************************************/
        7        7        /*P*
        8        8        NAME:    ZIG$M_ERR
        9        9        PURPOSE: TO HANDLE THE ERROR MESSAGE WRITING FOR THE DMCL.
       10       10        */
       11       11        ZIG$M_ERR:
       12       12            PROC(ARG1,ARG2,ARG3);

     12  9 000000   000000 700200 xent  ZIG$M_ERR    TSX0  ! X66_AUTO_3
         9 000001   000022 000003                    ZERO    18,3
         9 000002   000005 710000 9                  TRA     s:316

       13       13    1   DCL ARG1 UBIN (36);
       14       14    1   DCL ARG2 UBIN (36);
       15       15    1   DCL ARG3 CHAR (ARG2);
       16       16    1   DCL NO_ERRORS BIT (1) EXT;
       17       17    1   DCL I UBIN (36);
       18       18    1   DCL 1 FIELD1 EXT,
       19       19    1         2 COUNT1 UBIN (9) UNAL,
       20       20    1         2 TEXT1 CHAR (31) UNAL;
       21       21    1   DCL 1 FIELD2 EXT,
       22       22    1         2 COUNT2 UBIN (9) UNAL,
       23       23    1         2 TEXT2 CHAR (31) UNAL;
       24       24    1   DCL 1 FIELD3 EXT,
       25       25    1         2 COUNT3 UBIN (9) UNAL,
       26       26    1         2 TEXT3 CHAR (31) UNAL;
       27       27    1   DCL TEMP1 CHAR (13);
       28       28    1   DCL TEMP2 CHAR (13);
       29       29    1   DCL J SBIN;
       30       30    1   DCL NUM_ERROR_MSG UBIN (36) EXT;
       31       31    1   DCL NUM_WARN_MSG UBIN (36) EXT;
PL6.E3A0      #001=ZIG$M_ERR File=ZIG$M_ERR.:ZIC0TSI                             FRI 09/05/97 12:07 Page:8
       32       32    1   DCL SEARCHR_NB(0:127) UBIN (9) EXT UNAL INIT (1*32,0,1*95);
       33       33        %INCLUDE B_MICROPS_C;
       34      205    1   DCL MOPSTR(0:4) BIT (9) CONSTANT INIT(%LTE3, '040'O, %MFLS11, %ENF00, %MVC11);
       35      206        %INCLUDE CP_6;
       36      287        %FPT_ERRMSG(STCLASS=SYMREF);
       37      314    1   DCL ZIG$DDER ENTRY (1);
       38      315    1   ERROR: ENTRY(ARG1);

    315  9 000003   000000 700200 xent  ERROR        TSX0  ! X66_AUTO_3
         9 000004   000022 000003                    ZERO    18,3

       39      316    1       NO_ERRORS='0'B;

    316  9 000005   000000 450000 0                  STZ     NO_ERRORS

       40      317    1       NUM_ERROR_MSG = NUM_ERROR_MSG + 1;

    317  9 000006   000000 235000 4                  LDA     NUM_ERROR_MSG
         9 000007   000001 035007                    ADLA    1,DL
         9 000010   000000 755000 4                  STA     NUM_ERROR_MSG

       41      318    1       CALL ZIG$DDER(ARG1);

    318  9 000011   200003 630500                    EPPR0   @ARG1,,AUTO
         9 000012   000000 631400 10                 EPPR1   0
         9 000013   000000 701000 xent               TSX1    ZIG$DDER
         9 000014   000000 011000                    NOP     0

       42      319    1       RETURN;

    319  9 000015   000000 702200 xent               TSX2  ! X66_ARET

       43      320    1   SET_FIELDS: ENTRY (ARG1,ARG2,ARG3);

    320  9 000016   000000 700200 xent  SET_FIELDS   TSX0  ! X66_AUTO_3
         9 000017   000022 000003                    ZERO    18,3

PL6.E3A0      #001=ZIG$M_ERR File=ZIG$M_ERR.:ZIC0TSI                             FRI 09/05/97 12:07 Page:9
       44      321        /*D*     NAME:     ARG1
       45      322                 THIS VARIABLE TELLS WHAT FIELD TO PUT THE TEXT IN.
       46      323        */
       47      324        /*D*     NAME:     ARG2
       48      325                 THIS VARIABLE TELL HOW LONG TEXT CAN BE.
       49      326        */
       50      327        /*D*     NAME:     ARG3
       51      328                 THIS VARIABLE IS WHERE THE TEXT TO BE SET IN THE ERROR
       52      329               FIELDS IS AT.
       53      330        */
       54      331    1       CALL SEARCHR(I,J,SEARCHR_NB,ARG3,ARG2) ALTRET(NO_BLANK);

    331  9 000020   200004 470500                    LDP0    @ARG2,,AUTO
         9 000021   000000 720100                    LXL0    0,,PR0
         9 000022   000000 236100                    LDQ     0,,PR0
         9 000023   200005 471500                    LDP1    @ARG3,,AUTO
         9 000024   000000 165540                    TCTR
         9 000025   100000 000010                    ADSC9   0,,PR1                   cn=0,n=*X0
         9 000026   000000 000000 6                  ARG     SEARCHR_NB
         9 000027   200006 000100                    ARG     I,,AUTO
         9 000030   200006 235100                    LDA     I,,AUTO
         9 000031   000033 771000                    ARL     27
         9 000032   200017 755100                    STA     J,,AUTO
         9 000033   200006 551140                    STBA    I,'40'O,AUTO
         9 000034   000040 606400 9                  TTN     NO_BLANK
         9 000035   200006 054100                    AOS     I,,AUTO
         9 000036   200006 156100                    SSQ     I,,AUTO

       55      332    2       DO WHILE ('0'B);

    332  9 000037   000041 710000 9                  TRA     s:336

       56      333    2   NO_BLANK:
       57      334    2           I = 0;

    334  9 000040   200006 450100       NO_BLANK     STZ     I,,AUTO

PL6.E3A0      #001=ZIG$M_ERR File=ZIG$M_ERR.:ZIC0TSI                             FRI 09/05/97 12:07 Page:10
       58      335    2           END;

       59      336    2       DO CASE (ARG1);

    336  9 000041   200003 470500                    LDP0    @ARG1,,AUTO
         9 000042   000000 235100                    LDA     0,,PR0
         9 000043   000004 115007                    CMPA    4,DL
         9 000044   000046 602005 9                  TNC     s:336+5,AL
         9 000045   000112 710000 9                  TRA     s:347
         9 000046   000112 710000 9                  TRA     s:347
         9 000047   000052 710000 9                  TRA     s:338
         9 000050   000065 710000 9                  TRA     s:341
         9 000051   000100 710000 9                  TRA     s:344

       60      337    2       CASE(1);

       61      338    2           FIELD1.COUNT1=I+1;

    338  9 000052   200006 236100                    LDQ     I,,AUTO
         9 000053   000001 036007                    ADLQ    1,DL
         9 000054   000033 736000                    QLS     27
         9 000055   000000 552040 1                  STBQ    FIELD1,'40'O

       62      339    2           FIELD1.TEXT1=ARG3;

    339  9 000056   200004 471500                    LDP1    @ARG2,,AUTO
         9 000057   100000 720100                    LXL0    0,,PR1
         9 000060   200005 473500                    LDP3    @ARG3,,AUTO
         9 000061   040000 100540                    MLR     fill='040'O
         9 000062   300000 000010                    ADSC9   0,,PR3                   cn=0,n=*X0
         9 000063   000000 200037 1                  ADSC9   FIELD1                   cn=1,n=31
         9 000064   000112 710000 9                  TRA     s:347

       63      340    2       CASE(2);

       64      341    2           FIELD2.COUNT2=I+1;

PL6.E3A0      #001=ZIG$M_ERR File=ZIG$M_ERR.:ZIC0TSI                             FRI 09/05/97 12:07 Page:11
    341  9 000065   200006 236100                    LDQ     I,,AUTO
         9 000066   000001 036007                    ADLQ    1,DL
         9 000067   000033 736000                    QLS     27
         9 000070   000000 552040 2                  STBQ    FIELD2,'40'O

       65      342    2           FIELD2.TEXT2=ARG3;

    342  9 000071   200004 471500                    LDP1    @ARG2,,AUTO
         9 000072   100000 720100                    LXL0    0,,PR1
         9 000073   200005 473500                    LDP3    @ARG3,,AUTO
         9 000074   040000 100540                    MLR     fill='040'O
         9 000075   300000 000010                    ADSC9   0,,PR3                   cn=0,n=*X0
         9 000076   000000 200037 2                  ADSC9   FIELD2                   cn=1,n=31
         9 000077   000112 710000 9                  TRA     s:347

       66      343    2       CASE(3);

       67      344    2           FIELD3.COUNT3=I+1;

    344  9 000100   200006 236100                    LDQ     I,,AUTO
         9 000101   000001 036007                    ADLQ    1,DL
         9 000102   000033 736000                    QLS     27
         9 000103   000000 552040 3                  STBQ    FIELD3,'40'O

       68      345    2           FIELD3.TEXT3=ARG3;

    345  9 000104   200004 471500                    LDP1    @ARG2,,AUTO
         9 000105   100000 720100                    LXL0    0,,PR1
         9 000106   200005 473500                    LDP3    @ARG3,,AUTO
         9 000107   040000 100540                    MLR     fill='040'O
         9 000110   300000 000010                    ADSC9   0,,PR3                   cn=0,n=*X0
         9 000111   000000 200037 3                  ADSC9   FIELD3                   cn=1,n=31

       69      346    2           END;

       70      347    1       RETURN;

PL6.E3A0      #001=ZIG$M_ERR File=ZIG$M_ERR.:ZIC0TSI                             FRI 09/05/97 12:07 Page:12
    347  9 000112   000000 702200 xent               TSX2  ! X66_ARET

       71      348    1   SET_FIELD_NUM: ENTRY(ARG1, ARG2);

    348  9 000113   000000 700200 xent  SET_FIELD_N* TSX0  ! X66_AUTO_3
         9 000114   000022 000003                    ZERO    18,3

       72      349        /*D*
       73      350              SET_FIELD_NUM - converts binary number (ARG2) to a character string
       74      351                              and puts in into the replacement field indicated
       75      352                              by ARG1.
       76      353        */
       77      354
       78      355    1       CALL BINXCHAR(TEMP1, ARG2);

    355  9 000115   200004 470500                    LDP0    @ARG2,,AUTO
         9 000116   000000 235100                    LDA     0,,PR0
         9 000117   000044 773000                    LRL     36
         9 000120   200020 757100                    STAQ    J+1,,AUTO
         9 000121   000100 301500                    BTD
         9 000122   200020 000010                    NDSC9   J+1,,AUTO                cn=0,s=lsgnf,sf=0,n=8
         9 000123   200007 010015                    NDSC9   TEMP1,,AUTO              cn=0,s=lsgns,sf=0,n=13

       79      356    1       CALL EDITXCHAR(TEMP2, 0, 13, MOPSTR, TEMP1);

    356  9 000124   100000 024500                    MVNE
         9 000125   200007 010015                    NDSC9   TEMP1,,AUTO              cn=0,s=lsgns,sf=0,n=13
         9 000126   000000 000005 7                  ADSC9   MOPSTR                   cn=0,n=5
         9 000127   200013 000015                    ADSC9   TEMP2,,AUTO              cn=0,n=13

       80      357    1       CALL INDEX1R( J, ' ', TEMP2 );

    357  9 000130   000000 125500                    SCMR    mask='000'O
         9 000131   200013 000015                    ADSC9   TEMP2,,AUTO              cn=0,n=13
         9 000132   000001 000001 10                 ADSC9   1                        cn=0,n=1
         9 000133   200017 000100                    ARG     J,,AUTO
         9 000134   000137 606400 9                  TTN     s:358
PL6.E3A0      #001=ZIG$M_ERR File=ZIG$M_ERR.:ZIC0TSI                             FRI 09/05/97 12:07 Page:13
         9 000135   000014 236007                    LDQ     12,DL
         9 000136   200017 156100                    SSQ     J,,AUTO

       81      358    2       DO CASE( ARG1 );

    358  9 000137   200003 471500                    LDP1    @ARG1,,AUTO
         9 000140   100000 235100                    LDA     0,,PR1
         9 000141   000004 115007                    CMPA    4,DL
         9 000142   000144 602005 9                  TNC     s:358+5,AL
         9 000143   000213 710000 9                  TRA     s:369
         9 000144   000213 710000 9                  TRA     s:369
         9 000145   000150 710000 9                  TRA     s:360
         9 000146   000164 710000 9                  TRA     s:363
         9 000147   000200 710000 9                  TRA     s:366

       82      359    2       CASE( 1 );

       83      360    2           FIELD1.COUNT1 = 12 - J;

    360  9 000150   000014 236007                    LDQ     12,DL
         9 000151   200017 136100                    SBLQ    J,,AUTO
         9 000152   000033 736000                    QLS     27
         9 000153   000000 552040 1                  STBQ    FIELD1,'40'O

       84      361    2           FIELD1.TEXT1 = SUBSTR( TEMP2, J+1 );

    361  9 000154   200017 720100                    LXL0    J,,AUTO
         9 000155   777763 620010                    EAX0    -13,X0
         9 000156   777777 660003                    ERX0    -1,DU
         9 000157   200017 235100                    LDA     J,,AUTO
         9 000160   040000 100545                    MLR     fill='040'O
         9 000161   200013 200010                    ADSC9   TEMP2,A,AUTO             cn=1,n=*X0
         9 000162   000000 200037 1                  ADSC9   FIELD1                   cn=1,n=31
         9 000163   000213 710000 9                  TRA     s:369

       85      362    2       CASE( 2 );

PL6.E3A0      #001=ZIG$M_ERR File=ZIG$M_ERR.:ZIC0TSI                             FRI 09/05/97 12:07 Page:14
       86      363    2           FIELD2.COUNT2 = 12 - J;

    363  9 000164   000014 236007                    LDQ     12,DL
         9 000165   200017 136100                    SBLQ    J,,AUTO
         9 000166   000033 736000                    QLS     27
         9 000167   000000 552040 2                  STBQ    FIELD2,'40'O

       87      364    2           FIELD2.TEXT2 = SUBSTR( TEMP2, J+1 );

    364  9 000170   200017 720100                    LXL0    J,,AUTO
         9 000171   777763 620010                    EAX0    -13,X0
         9 000172   777777 660003                    ERX0    -1,DU
         9 000173   200017 235100                    LDA     J,,AUTO
         9 000174   040000 100545                    MLR     fill='040'O
         9 000175   200013 200010                    ADSC9   TEMP2,A,AUTO             cn=1,n=*X0
         9 000176   000000 200037 2                  ADSC9   FIELD2                   cn=1,n=31
         9 000177   000213 710000 9                  TRA     s:369

       88      365    2       CASE( 3 );

       89      366    2           FIELD3.COUNT3 = 12 - J;

    366  9 000200   000014 236007                    LDQ     12,DL
         9 000201   200017 136100                    SBLQ    J,,AUTO
         9 000202   000033 736000                    QLS     27
         9 000203   000000 552040 3                  STBQ    FIELD3,'40'O

       90      367    2           FIELD3.TEXT3 = SUBSTR( TEMP2, J+1 );

    367  9 000204   200017 720100                    LXL0    J,,AUTO
         9 000205   777763 620010                    EAX0    -13,X0
         9 000206   777777 660003                    ERX0    -1,DU
         9 000207   200017 235100                    LDA     J,,AUTO
         9 000210   040000 100545                    MLR     fill='040'O
         9 000211   200013 200010                    ADSC9   TEMP2,A,AUTO             cn=1,n=*X0
         9 000212   000000 200037 3                  ADSC9   FIELD3                   cn=1,n=31

PL6.E3A0      #001=ZIG$M_ERR File=ZIG$M_ERR.:ZIC0TSI                             FRI 09/05/97 12:07 Page:15
       91      368    2           END;

       92      369    1       RETURN;

    369  9 000213   000000 702200 xent               TSX2  ! X66_ARET

       93      370    1   WARNING: ENTRY(ARG1);

    370  9 000214   000000 700200 xent  WARNING      TSX0  ! X66_AUTO_3
         9 000215   000022 000003                    ZERO    18,3

       94      371    1       NUM_WARN_MSG = NUM_WARN_MSG + 1;

    371  9 000216   000000 235000 5                  LDA     NUM_WARN_MSG
         9 000217   000001 035007                    ADLA    1,DL
         9 000220   000000 755000 5                  STA     NUM_WARN_MSG

       95      372    1       FPT_ERRMSG.V.FLAGLEV#=2;

    372  9 000221   002000 236007                    LDQ     1024,DL
         9 000222   000027 552010 xsym               STBQ    FPT_ERRMSG+23,'10'O

       96      373    1       CALL ZIG$DDER(ARG1);

    373  9 000223   200003 630500                    EPPR0   @ARG1,,AUTO
         9 000224   000000 631400 10                 EPPR1   0
         9 000225   000000 701000 xent               TSX1    ZIG$DDER
         9 000226   000000 011000                    NOP     0

       97      374    1       FPT_ERRMSG.V.FLAGLEV#=3;

    374  9 000227   003000 236007                    LDQ     1536,DL
         9 000230   000027 552010 xsym               STBQ    FPT_ERRMSG+23,'10'O

       98      375    1       RETURN;

    375  9 000231   000000 702200 xent               TSX2  ! X66_ARET
PL6.E3A0      #001=ZIG$M_ERR File=ZIG$M_ERR.:ZIC0TSI                             FRI 09/05/97 12:07 Page:16

       99      376    1   INFO_ONLY: ENTRY(ARG1);

    376  9 000232   000000 700200 xent  INFO_ONLY    TSX0  ! X66_AUTO_3
         9 000233   000022 000003                    ZERO    18,3

      100      377    1       FPT_ERRMSG.V.FLAGLEV#=1;

    377  9 000234   001000 236007                    LDQ     512,DL
         9 000235   000027 552010 xsym               STBQ    FPT_ERRMSG+23,'10'O

      101      378    1       CALL ZIG$DDER(ARG1);

    378  9 000236   200003 630500                    EPPR0   @ARG1,,AUTO
         9 000237   000000 631400 10                 EPPR1   0
         9 000240   000000 701000 xent               TSX1    ZIG$DDER
         9 000241   000000 011000                    NOP     0

      102      379    1       FPT_ERRMSG.V.FLAGLEV#=3;

    379  9 000242   003000 236007                    LDQ     1536,DL
         9 000243   000027 552010 xsym               STBQ    FPT_ERRMSG+23,'10'O

      103      380    1       RETURN;

    380  9 000244   000000 702200 xent               TSX2  ! X66_ARET

FIELD1
 Sect OctLoc
   1     000   ****** ******   ****** ******   ****** ******   ****** ******    ................

FIELD2
 Sect OctLoc
   2     000   ****** ******   ****** ******   ****** ******   ****** ******    ................

FIELD3
 Sect OctLoc
PL6.E3A0      #001=ZIG$M_ERR File=ZIG$M_ERR.:ZIC0TSI                             FRI 09/05/97 12:07 Page:17
   3     000   ****** ******   ****** ******   ****** ******   ****** ******    ................

SEARCHR_NB
 Sect OctLoc
   6     000   001001 001001   001001 001001   001001 001001   001001 001001    ................
   6     010*  000001 001001   001001 001001   001001 001001   001001 001001    ................
   6     014   001001 001001   001001 001001   001001 001001   001001 001001    ................
   6     034*  001001 001001   001001 001001   001001 001001   001001 001001    ................

MOPSTR
 Sect OctLoc
   7     000   403040 153040   333*** ******                                    . k ....

(unnamed)
 Sect OctLoc
  10     000   000001 000000   040040 040040                                    ....
      104      381    1   END ZIG$M_ERR;

PL6.E3A0      #001=ZIG$M_ERR File=ZIG$M_ERR.:ZIC0TSI                             FRI 09/05/97 12:07 Page:18
--  Include file information  --

   CP_6.:LIB_E05  cannot be made into a system file and is referenced.
   B_MICROPS_C.:LIB_E05  is referenced.
   B$JIT_C.:E05TOU  was found in the system file and is never referenced.
   CP_6_C.:E05TOU  was found in the system file and is referenced.
      No diagnostics issued in procedure ZIG$M_ERR.

   Procedure ZIG$M_ERR requires 165 words for executable code.
   Procedure ZIG$M_ERR requires 18 words of local(AUTO) storage.

    No errors detected in file ZIG$M_ERR.:ZIC0TSI    .
PL6.E3A0      #001=ZIG$M_ERR File=ZIG$M_ERR.:ZIC0TSI                             FRI 09/05/97 12:07 Page:19
          *** CROSS REFERENCE LISTING ***
**     DENOTES     IDENTIFIER DEFINITION
<<                 IDENTIFIER'S VALUE SET
>>                 IDENTIFIER'S VALUE USED
<>                 IDENTIFIER SET AND/OR USED
--                 IDENTIFIER REFERENCED
PL6.E3A0      #001=ZIG$M_ERR File=ZIG$M_ERR.:ZIC0TSI                             FRI 09/05/97 12:07 Page:20
          MINI XREF LISTING

ARG1
        13**DCL        11--PROC      315--ENTRY     318<>CALL      320--ENTRY     336>>DOCASE    348--ENTRY
       358>>DOCASE    370--ENTRY     373<>CALL      376--ENTRY     378<>CALL
ARG2
        14**DCL        11--PROC       15--IMP-SIZ   320--ENTRY     331>>CALLBLT   331>>CALLBLT   339>>ASSIGN
       342>>ASSIGN    345>>ASSIGN    348--ENTRY     355>>CALLBLT
ARG3
        15**DCL        11--PROC      320--ENTRY     331>>CALLBLT   339>>ASSIGN    342>>ASSIGN    345>>ASSIGN
FIELD1.COUNT1
        19**DCL       338<<ASSIGN    360<<ASSIGN
FIELD1.TEXT1
        20**DCL       339<<ASSIGN    361<<ASSIGN
FIELD2.COUNT2
        22**DCL       341<<ASSIGN    363<<ASSIGN
FIELD2.TEXT2
        23**DCL       342<<ASSIGN    364<<ASSIGN
FIELD3.COUNT3
        25**DCL       344<<ASSIGN    366<<ASSIGN
FIELD3.TEXT3
        26**DCL       345<<ASSIGN    367<<ASSIGN
FPT_ERRMSG.V.FLAGLEV#
       304**DCL       372<<ASSIGN    374<<ASSIGN    377<<ASSIGN    379<<ASSIGN
I
        17**DCL       331<<CALLBLT   334<<ASSIGN    338>>ASSIGN    341>>ASSIGN    344>>ASSIGN
J
        29**DCL       331<<CALLBLT   357<<CALLBLT   360>>ASSIGN    361>>ASSIGN    363>>ASSIGN    364>>ASSIGN
       366>>ASSIGN    367>>ASSIGN
MOPSTR
       205**DCL       356>>CALLBLT
NO_BLANK
       334**LABEL     331--CALLALT
NO_ERRORS
PL6.E3A0      #001=ZIG$M_ERR File=ZIG$M_ERR.:ZIC0TSI                             FRI 09/05/97 12:07 Page:21
        16**DCL       316<<ASSIGN
NUM_ERROR_MSG
        30**DCL       317<<ASSIGN    317>>ASSIGN
NUM_WARN_MSG
        31**DCL       371<<ASSIGN    371>>ASSIGN
SEARCHR_NB
        32**DCL       331>>CALLBLT
TEMP1
        27**DCL       355<<CALLBLT   356>>CALLBLT
TEMP2
        28**DCL       356<<CALLBLT   357>>CALLBLT   361>>ASSIGN    364>>ASSIGN    367>>ASSIGN
ZIG$DDER
       314**DCL-ENT   318--CALL      373--CALL      378--CALL
