
PL6.E3A0      #001=ZIG$M_P9 File=ZIG$M_P9.:ZIC0TSI                               FRI 09/05/97 12:08 Page:1
        1        1        /*M* ZIG$M_P9         I-D-S/II            DBACS    */
        2        2        /*T***********************************************************/
        3        3        /*T*                                                         */
        4        4        /*T* Copyright (c) Bull HN Information Systems Inc., 1997    */
        5        5        /*T*                                                         */
        6        6        /*T***********************************************************/
        7        7        ZIG$M_P9:
        8        8            PROC(WORD1,TYPE,SUCC);
        9        9    1   DCL 01 FR_NMS(0:0) BASED(PFRN),
       10       10    1         02 NAME CHAR(30),
       11       11    1         02 FADDR UBIN(36);
       12       12    1   DCL SIZE UBIN(36) STATIC; /* # of fr record entries*/
       13       13    1   DCL NUMFR UBIN(36) STATIC; /* # of fr records */
       14       14    1   DCL WORD1 CHAR(30);
       15       15    1   DCL SUCC BIT (1);
       16       16    1   DCL ZIG$G_DYN_MEM_6 ENTRY (2);
       17       17    1   DCL TYPE UBIN(36);
       18       18    1   DCL PFRN PTR STATIC;
       19       19    1   DCL Y UBIN (36);
       20       20    1   DCL X UBIN (36);
       21       21    1   DCL I UBIN (36);
       22       22    1   DCL 1 SAVED_NAMES STATIC,
       23       23    1         2 AREA_DBK UBIN (36) ALIGNED,
       24       24    1         2 AREA_NAME CHAR (30) ALIGNED,
       25       25    1         2 SET_DBK UBIN (36) ALIGNED,
       26       26    1         2 SET_NAME CHAR (30) ALIGNED,
       27       27    1         2 KEY_DBK UBIN (36) ALIGNED,
       28       28    1         2 KEY_NAME CHAR (30) ALIGNED,
       29       29    1         2 REC_DBK UBIN (36) ALIGNED,
       30       30    1         2 REC_NAME CHAR (30) ALIGNED;
       31       31    1   DCL DBK UBIN (36) ALIGNED STATIC;
       32       32    1   DCL J UBIN (36) EXT;
       33       33        /*D*     NAME: J
       34       34                   this variable tells what function is being performed
       35       35                 inside of DBACS.
       36       36        */
       37       37        %INCLUDE ZIG_TYPE_SUBS;
PL6.E3A0      #001=ZIG$M_P9 File=ZIG$M_P9.:ZIC0TSI                               FRI 09/05/97 12:08 Page:2
       38       52        %INCLUDE ZI_SUB4_CAN;
       39      709        %UWA;
       40     1044        %INCLUDE ZIG_DBA_INT;
       41     1092         /* Define dbcs interface routines */
       42     1093         /* Only for fetchns will return to the label be executed
       43     1094            when other than a zero status occurs.
       44     1095            For all other routines the subroutine will abort.
       45     1096            Therefore, no return to the label takes place -
       46     1097            the label is a dummmmy */
       47     1098         /*  S e a r c h     r o u t i n e s */
       48     1099         /* This routine is called at the beginning of the dmcl
       49     1100            translator phase. Its purpose is to generate a table
       50     1101            containing the name and dbk of every 50TH fr name.
       51     1102            The table generated is used by the search routines
       52     1103            to speed up the SEARCH..
       53     1104            The database is assumed to be ready
       54     1105            the oa rec is assumed to be current of record type*/
       55     1106    1   BLD_NM:
       56     1107    1       ENTRY;
       57     1108    1       CALL FETCHD_6('DA  ',UWA.SF.DBKEY_DA); /* Get da record */
       58     1109    1       SAVED_NAMES.AREA_NAME = ' ';
       59     1110    1       SAVED_NAMES.SET_NAME = ' ';
       60     1111    1       SAVED_NAMES.KEY_NAME = ' ';
       61     1112    1       SAVED_NAMES.REC_NAME = ' ';
       62     1113    1       SAVED_NAMES.AREA_DBK = UWA.DA.FRST_AC;
       63     1114    1       SAVED_NAMES.SET_DBK = UWA.DA.FRST_SC;
       64     1115    1       SAVED_NAMES.KEY_DBK = UWA.DA.FRST_KC;
       65     1116    1       SAVED_NAMES.REC_DBK = UWA.DA.FRST_RC;
       66     1117    1       IF J = 6 /* VALIDATION */
       67     1118    1       THEN RETURN;
       68     1119        /*W*
       69     1120              If validation calls SRCHD with TYPE = to FR type then
       70     1121            things will not work the best since we don't set up things
       71     1122            in PFRN that contains a list of fields names and there
       72     1123            dbks.
       73     1124        */
       74     1125    1       NUMFR = UWA.OA.NUMB_FR; /* Get # of fr records */
PL6.E3A0      #001=ZIG$M_P9 File=ZIG$M_P9.:ZIC0TSI                               FRI 09/05/97 12:08 Page:3
       75     1126    1       IF NUMFR < 50 THEN
       76     1127    1           RETURN; /* Not enough to worry about */
       77     1128    1       SIZE=(NUMFR-1)/10;
       78     1129    1       CALL ZIG$G_DYN_MEM_6(SIZE*9,PFRN);/* Get dynamic mem*/
       79     1130    1       CALL FETCHD_6('SN  ', UWA.DA.FRST_FR); /*Get first fr */
       80     1131    1       X = 0;
       81     1132    2       DO WHILE(X ~= SIZE);
       82     1133    2           FR_NMS.NAME(X) = UWA.SN.SENAME;
       83     1134    2           FR_NMS.FADDR(X) = UWA.DIRECT_REF;
       84     1135    3           DO Y = 1 TO 10; /* Bypass 10 */
       85     1136    3               CALL FETCHNS_6('DA-SN  ') ALTRET(BDONE);
       86     1137    3               END;
       87     1138    2           X = X + 1;
       88     1139    2           END;
       89     1140    1   BDONE:
       90     1141    1       RETURN;
       91     1142    1   SRCHD:
       92     1143    1       ENTRY(WORD1,TYPE,SUCC);
       93     1144    1       SUCC='0'B;
       94     1145    1       IF TYPE = %ZIG_RTYPE_FR THEN
       95     1146    2       DO;
       96     1147    2           IF NUMFR < 50 THEN
       97     1148    3           DO;
       98     1149    3               CALL FETCHD_6('SN  ', UWA.DA.FRST_FR);
       99     1150    3               GOTO SSEARCH;
      100     1151    3               END;
      101     1152    3           DO I = 0 TO SIZE; /* Size = # entries of FR_NMS*/
      102     1153    3               IF WORD1 = FR_NMS.NAME(I) THEN
      103     1154    4               DO;
      104     1155    4                   CALL FETCHD_6('SN  ', FR_NMS.FADDR(I));
      105     1156    4                   GOTO SSEARCH;
      106     1157    4                   END;
      107     1158    3               IF WORD1 < FR_NMS.NAME(I) THEN
      108     1159    4               DO;
      109     1160    4                   CALL FETCHD_6('SN  ', FR_NMS.FADDR(I-1));
      110     1161    4                   GOTO SSEARCH;
      111     1162    4                   END;
PL6.E3A0      #001=ZIG$M_P9 File=ZIG$M_P9.:ZIC0TSI                               FRI 09/05/97 12:08 Page:4
      112     1163    3               END;
      113     1164         /* Fr must be one of the last - past last FR_NMS */
      114     1165    2           CALL FETCHD_6('SN  ', FR_NMS.FADDR(I));
      115     1166    2           GOTO SSEARCH;
      116     1167    2           END;
      117     1168    1       IF TYPE = %ZIG_RTYPE_OA THEN
      118     1169    2       DO;
      119     1170    2           CALL FETCHD_6('OA  ', UWA.SF.DBKEY_OA);
      120     1171    2           CALL FETCHOS_6('SN-SE   ');
      121     1172    2           IF UWA.SN.SENAME = WORD1 THEN SUCC='1'B;
      122     1173    2           RETURN;
      123     1174    2           END;
      124     1175    2       DO CASE (TYPE);
      125     1176    2       CASE (%ZIG_RTYPE_AC);
      126     1177    2           IF WORD1 >= SAVED_NAMES.AREA_NAME
      127     1178    3           THEN DO;
      128     1179    3               DBK = SAVED_NAMES.AREA_DBK;
      129     1180    3               END;
      130     1181    3           ELSE DO;
      131     1182    3               DBK = UWA.DA.FRST_AC;
      132     1183    3               END;
      133     1184    2       CASE (%ZIG_RTYPE_RC);
      134     1185    2           IF WORD1 >= SAVED_NAMES.REC_NAME
      135     1186    3           THEN DO;
      136     1187    3               DBK = SAVED_NAMES.REC_DBK;
      137     1188    3               END;
      138     1189    3           ELSE DO;
      139     1190    3               DBK = UWA.DA.FRST_RC;
      140     1191    3               END;
      141     1192    2       CASE (%ZIG_RTYPE_SC);
      142     1193    2           IF WORD1 >= SAVED_NAMES.SET_NAME
      143     1194    3           THEN DO;
      144     1195    3               DBK = SAVED_NAMES.SET_DBK;
      145     1196    3               END;
      146     1197    3           ELSE DO;
      147     1198    3               DBK = UWA.DA.FRST_SC;
      148     1199    3               END;
PL6.E3A0      #001=ZIG$M_P9 File=ZIG$M_P9.:ZIC0TSI                               FRI 09/05/97 12:08 Page:5
      149     1200    2       CASE (%ZIG_RTYPE_KC);
      150     1201    2           IF WORD1 >= SAVED_NAMES.KEY_NAME
      151     1202    3           THEN DO;
      152     1203    3               DBK = SAVED_NAMES.KEY_DBK;
      153     1204    3               END;
      154     1205    3           ELSE DO;
      155     1206    3               DBK = UWA.DA.FRST_KC;
      156     1207    3               END;
      157     1208    2           END;
      158     1209    1       CALL FETCHD_6('SN  ', DBK);
      159     1210    1   SSEARCH:
      160     1211    1       IF TYPE ~= UWA.SN.SETYPE THEN GOTO SDONE;
      161     1212    1       IF WORD1 < UWA.SN.SENAME AND SUBSTR(UWA.SN.SENAME,0,1) ~= '*'
      162     1213    1       THEN GOTO SDONE;
      163     1214    1       IF WORD1 = UWA.SN.SENAME
      164     1215    2       THEN DO;
      165     1216    2           SUCC='1'B;
      166     1217    3           DO CASE (TYPE);
      167     1218    3           CASE (%ZIG_RTYPE_AC);
      168     1219    3               SAVED_NAMES.AREA_NAME = UWA.SN.SENAME;
      169     1220    3               SAVED_NAMES.AREA_DBK = UWA.DIRECT_REF;
      170     1221    3           CASE (%ZIG_RTYPE_RC);
      171     1222    3               SAVED_NAMES.REC_NAME = UWA.SN.SENAME;
      172     1223    3               SAVED_NAMES.REC_DBK = UWA.DIRECT_REF;
      173     1224    3           CASE (%ZIG_RTYPE_SC);
      174     1225    3               SAVED_NAMES.SET_NAME = UWA.SN.SENAME;
      175     1226    3               SAVED_NAMES.SET_DBK = UWA.DIRECT_REF;
      176     1227    3           CASE (%ZIG_RTYPE_KC);
      177     1228    3               SAVED_NAMES.KEY_NAME = UWA.SN.SENAME;
      178     1229    3               SAVED_NAMES.KEY_DBK = UWA.DIRECT_REF;
      179     1230    3               END;
      180     1231    2           RETURN;
      181     1232    2           END;
      182     1233    1       CALL FETCHNS_6('DA-SN   ') ALTRET(SDONE);
      183     1234    1       GOTO SSEARCH;
      184     1235    1   SDONE:
      185     1236    1       CALL FETCHPS_6('DA-SN   ') ALTRET(DA_PRIOR);
PL6.E3A0      #001=ZIG$M_P9 File=ZIG$M_P9.:ZIC0TSI                               FRI 09/05/97 12:08 Page:6
      186     1237    1       RETURN;
      187     1238    1   DA_PRIOR:
      188     1239    1       CALL FCURR_R_6('DA  ');
      189     1240    1       RETURN;
      190     1241    1   END ZIG$M_P9;

PL6.E3A0      #001=ZIG$M_P9 File=ZIG$M_P9.:ZIC0TSI                               FRI 09/05/97 12:08 Page:7
--  Include file information  --

   ZIG_DBA_INT.:ZIC0TOU  cannot be made into a system file and is referenced.
   ZI_SUB4_CAN.:ZIC0TOU  is referenced.
   ZIG_TYPE_SUBS.:ZIC0TOU  is referenced.
   B$JIT_C.:E05TOU  was found in the system file and is never referenced.
   CP_6_C.:E05TOU  was found in the system file and is never referenced.
      No diagnostics issued in procedure ZIG$M_P9.

   Procedure ZIG$M_P9 requires 335 words for executable code.
   Procedure ZIG$M_P9 requires 14 words of local(AUTO) storage.

    No errors detected in file ZIG$M_P9.:ZIC0TSI    .

PL6.E3A0      #001=ZIG$M_P9 File=ZIG$M_P9.:ZIC0TSI                               FRI 09/05/97 12:08 Page:8

 Object Unit name= ZIG$M_P9                                   File name= ZIG$M_P9.:ZIC0TOU
 UTS= SEP 05 '97 12:08:19.00 FRI                              Compiler= PL-6/E31         Sev=      00
 SharedLib= :SHARED_SYSTEM                                    Alt SharedLib=


    ****  Control sections  ****

 Sect   Type Bound  Init  Size OctSiz  Section name(segment info)
    0   Data  even  none    40     50  ZIG$M_P9
    1  LblCom even  none     1      1  J
    2  LblCom even  none   656   1220  UWA
    3  RoData even  UTS      7      7  ZIG$M_P9
    4   Proc  even  none   335    517  ZIG$M_P9
    5  RoData even  none    16     20  ZIG$M_P9

    ****  Entry defs  ****

                              Check   Calling
                             calling  sequence
  Sect OctLoc Primary Altret sequence   type   Parms  Name
     4      0   yes            yes      Std        3  ZIG$M_P9
     4      3                  yes      Std        0  BLD_NM
     4    130                  yes      Std        3  SRCHD

  ****  Entry refs  ****

         Check        Calling
        calling       sequence
Altret sequence SRef   type   Args  Name
 yes     yes           Std       2 FETCHD_6
 yes     yes           Std       1 FETCHOS_6
         yes           Std       2 ZIG$G_DYN_MEM_6
 yes     yes           Std       1 FETCHNS_6
 yes     yes           Std       1 FETCHPS_6
 yes     yes           Std       1 FCURR_R_6
                       nStd      0 X66_AUTO_3
                       nStd      0 X66_ARET
PL6.E3A0      #001=ZIG$M_P9 File=ZIG$M_P9.:ZIC0TSI                               FRI 09/05/97 12:08 Page:9

  ****  Segment refs  ****

  Flags:  r = read only, s = secondary
Flgs Name                             Flgs Name                             Flgs Name
     ISSID
PL6.E3A0      #001=ZIG$M_P9 File=ZIG$M_P9.:ZIC0TSI                               FRI 09/05/97 12:08 Page:10


        1        1        /*M* ZIG$M_P9         I-D-S/II            DBACS    */
        2        2        /*T***********************************************************/
        3        3        /*T*                                                         */
        4        4        /*T* Copyright (c) Bull HN Information Systems Inc., 1997    */
        5        5        /*T*                                                         */
        6        6        /*T***********************************************************/
        7        7        ZIG$M_P9:
        8        8            PROC(WORD1,TYPE,SUCC);

      8  4 000000   000000 700200 xent  ZIG$M_P9     TSX0  ! X66_AUTO_3
         4 000001   000016 000003                    ZERO    14,3
         4 000002   000005 710000 4                  TRA     s:1108

        9        9    1   DCL 01 FR_NMS(0:0) BASED(PFRN),
       10       10    1         02 NAME CHAR(30),
       11       11    1         02 FADDR UBIN(36);
       12       12    1   DCL SIZE UBIN(36) STATIC; /* # of fr record entries*/
       13       13    1   DCL NUMFR UBIN(36) STATIC; /* # of fr records */
       14       14    1   DCL WORD1 CHAR(30);
       15       15    1   DCL SUCC BIT (1);
       16       16    1   DCL ZIG$G_DYN_MEM_6 ENTRY (2);
       17       17    1   DCL TYPE UBIN(36);
       18       18    1   DCL PFRN PTR STATIC;
       19       19    1   DCL Y UBIN (36);
       20       20    1   DCL X UBIN (36);
       21       21    1   DCL I UBIN (36);
       22       22    1   DCL 1 SAVED_NAMES STATIC,
       23       23    1         2 AREA_DBK UBIN (36) ALIGNED,
       24       24    1         2 AREA_NAME CHAR (30) ALIGNED,
       25       25    1         2 SET_DBK UBIN (36) ALIGNED,
       26       26    1         2 SET_NAME CHAR (30) ALIGNED,
       27       27    1         2 KEY_DBK UBIN (36) ALIGNED,
       28       28    1         2 KEY_NAME CHAR (30) ALIGNED,
       29       29    1         2 REC_DBK UBIN (36) ALIGNED,
       30       30    1         2 REC_NAME CHAR (30) ALIGNED;
       31       31    1   DCL DBK UBIN (36) ALIGNED STATIC;
PL6.E3A0      #001=ZIG$M_P9 File=ZIG$M_P9.:ZIC0TSI                               FRI 09/05/97 12:08 Page:11
       32       32    1   DCL J UBIN (36) EXT;
       33       33        /*D*     NAME: J
       34       34                   this variable tells what function is being performed
       35       35                 inside of DBACS.
       36       36        */
       37       37        %INCLUDE ZIG_TYPE_SUBS;
       38       52        %INCLUDE ZI_SUB4_CAN;
       39      709        %UWA;
       40     1044        %INCLUDE ZIG_DBA_INT;
       41     1092         /* Define dbcs interface routines */
       42     1093         /* Only for fetchns will return to the label be executed
       43     1094            when other than a zero status occurs.
       44     1095            For all other routines the subroutine will abort.
       45     1096            Therefore, no return to the label takes place -
       46     1097            the label is a dummmmy */
       47     1098         /*  S e a r c h     r o u t i n e s */
       48     1099         /* This routine is called at the beginning of the dmcl
       49     1100            translator phase. Its purpose is to generate a table
       50     1101            containing the name and dbk of every 50TH fr name.
       51     1102            The table generated is used by the search routines
       52     1103            to speed up the SEARCH..
       53     1104            The database is assumed to be ready
       54     1105            the oa rec is assumed to be current of record type*/
       55     1106    1   BLD_NM:
       56     1107    1       ENTRY;

   1107  4 000003   000000 700200 xent  BLD_NM       TSX0  ! X66_AUTO_3
         4 000004   000016 000003                    ZERO    14,3

       57     1108    1       CALL FETCHD_6('DA  ',UWA.SF.DBKEY_DA); /* Get da record */

   1108  4 000005   000001 630400 5                  EPPR0   1
         4 000006   000000 631400 5                  EPPR1   0
         4 000007   000000 701000 xent               TSX1    FETCHD_6
         4 000010   000000 011000                    NOP     0

       58     1109    1       SAVED_NAMES.AREA_NAME = ' ';
PL6.E3A0      #001=ZIG$M_P9 File=ZIG$M_P9.:ZIC0TSI                               FRI 09/05/97 12:08 Page:12

   1109  4 000011   040000 100400                    MLR     fill='040'O
         4 000012   000003 000001 5                  ADSC9   3                        cn=0,n=1
         4 000013   000004 000036 0                  ADSC9   SAVED_NAMES+1            cn=0,n=30

       59     1110    1       SAVED_NAMES.SET_NAME = ' ';

   1110  4 000014   040000 100400                    MLR     fill='040'O
         4 000015   000003 000001 5                  ADSC9   3                        cn=0,n=1
         4 000016   000015 000036 0                  ADSC9   SAVED_NAMES+10           cn=0,n=30

       60     1111    1       SAVED_NAMES.KEY_NAME = ' ';

   1111  4 000017   040000 100400                    MLR     fill='040'O
         4 000020   000003 000001 5                  ADSC9   3                        cn=0,n=1
         4 000021   000026 000036 0                  ADSC9   SAVED_NAMES+19           cn=0,n=30

       61     1112    1       SAVED_NAMES.REC_NAME = ' ';

   1112  4 000022   040000 100400                    MLR     fill='040'O
         4 000023   000003 000001 5                  ADSC9   3                        cn=0,n=1
         4 000024   000037 000036 0                  ADSC9   SAVED_NAMES+28           cn=0,n=30

       62     1113    1       SAVED_NAMES.AREA_DBK = UWA.DA.FRST_AC;

   1113  4 000025   000415 235000 2                  LDA     UWA+269
         4 000026   000003 755000 0                  STA     SAVED_NAMES

       63     1114    1       SAVED_NAMES.SET_DBK = UWA.DA.FRST_SC;

   1114  4 000027   000417 236000 2                  LDQ     UWA+271
         4 000030   000014 756000 0                  STQ     SAVED_NAMES+9

       64     1115    1       SAVED_NAMES.KEY_DBK = UWA.DA.FRST_KC;

   1115  4 000031   000420 235000 2                  LDA     UWA+272
         4 000032   000025 755000 0                  STA     SAVED_NAMES+18
PL6.E3A0      #001=ZIG$M_P9 File=ZIG$M_P9.:ZIC0TSI                               FRI 09/05/97 12:08 Page:13

       65     1116    1       SAVED_NAMES.REC_DBK = UWA.DA.FRST_RC;

   1116  4 000033   000416 235000 2                  LDA     UWA+270
         4 000034   000036 755000 0                  STA     SAVED_NAMES+27

       66     1117    1       IF J = 6 /* VALIDATION */

   1117  4 000035   000000 235000 1                  LDA     J
         4 000036   000006 115007                    CMPA    6,DL
         4 000037   000041 601000 4                  TNZ     s:1125

       67     1118    1       THEN RETURN;

   1118  4 000040   000000 702200 xent               TSX2  ! X66_ARET

       68     1119        /*W*
       69     1120              If validation calls SRCHD with TYPE = to FR type then
       70     1121            things will not work the best since we don't set up things
       71     1122            in PFRN that contains a list of fields names and there
       72     1123            dbks.
       73     1124        */
       74     1125    1       NUMFR = UWA.OA.NUMB_FR; /* Get # of fr records */

   1125  4 000041   000220 235000 2                  LDA     UWA+144
         4 000042   000001 755000 0                  STA     NUMFR

       75     1126    1       IF NUMFR < 50 THEN

   1126  4 000043   000062 115007                    CMPA    50,DL
         4 000044   000046 603000 4                  TRC     s:1128

       76     1127    1           RETURN; /* Not enough to worry about */

   1127  4 000045   000000 702200 xent               TSX2  ! X66_ARET

       77     1128    1       SIZE=(NUMFR-1)/10;
PL6.E3A0      #001=ZIG$M_P9 File=ZIG$M_P9.:ZIC0TSI                               FRI 09/05/97 12:08 Page:14

   1128  4 000046   000001 236000 0                  LDQ     NUMFR
         4 000047   000001 136007                    SBLQ    1,DL
         4 000050   000012 506007                    DIV     10,DL
         4 000051   000000 756000 0                  STQ     SIZE

       78     1129    1       CALL ZIG$G_DYN_MEM_6(SIZE*9,PFRN);/* Get dynamic mem*/

   1129  4 000052   000011 402007                    MPY     9,DL
         4 000053   200012 756100                    STQ     I+2,,AUTO
         4 000054   000004 236000 5                  LDQ     4
         4 000055   200015 756100                    STQ     I+5,,AUTO
         4 000056   200012 630500                    EPPR0   I+2,,AUTO
         4 000057   200014 450500                    STP0    I+4,,AUTO
         4 000060   200014 630500                    EPPR0   I+4,,AUTO
         4 000061   000000 631400 5                  EPPR1   0
         4 000062   000000 701000 xent               TSX1    ZIG$G_DYN_MEM_6
         4 000063   000000 011000                    NOP     0

       79     1130    1       CALL FETCHD_6('SN  ', UWA.DA.FRST_FR); /*Get first fr */

   1130  4 000064   000005 630400 5                  EPPR0   5
         4 000065   000000 631400 5                  EPPR1   0
         4 000066   000000 701000 xent               TSX1    FETCHD_6
         4 000067   000000 011000                    NOP     0

       80     1131    1       X = 0;

   1131  4 000070   200007 450100                    STZ     X,,AUTO

       81     1132    2       DO WHILE(X ~= SIZE);

   1132  4 000071   200007 236100                    LDQ     X,,AUTO
         4 000072   000000 116000 0                  CMPQ    SIZE
         4 000073   000127 600000 4                  TZE     BDONE

       82     1133    2           FR_NMS.NAME(X) = UWA.SN.SENAME;
PL6.E3A0      #001=ZIG$M_P9 File=ZIG$M_P9.:ZIC0TSI                               FRI 09/05/97 12:08 Page:15

   1133  4 000074   200007 236100                    LDQ     X,,AUTO
         4 000075   000044 402007                    MPY     36,DL
         4 000076   000002 470400 0                  LDP0    PFRN
         4 000077   040106 100400                    MLR     fill='040'O
         4 000100   000427 000036 2                  ADSC9   UWA+279                  cn=0,n=30
         4 000101   000000 000036                    ADSC9   0,Q,PR0                  cn=0,n=30

       83     1134    2           FR_NMS.FADDR(X) = UWA.DIRECT_REF;

   1134  4 000102   200007 236100                    LDQ     X,,AUTO
         4 000103   000011 402007                    MPY     9,DL
         4 000104   000002 470400 0                  LDP0    PFRN
         4 000105   000036 235000 2                  LDA     UWA+30
         4 000106   000010 755106                    STA     8,QL,PR0

       84     1135    3           DO Y = 1 TO 10; /* Bypass 10 */

   1135  4 000107   000001 235007                    LDA     1,DL
         4 000110   200006 755100                    STA     Y,,AUTO

       85     1136    3               CALL FETCHNS_6('DA-SN  ') ALTRET(BDONE);

   1136  4 000111   000010 630400 5                  EPPR0   8
         4 000112   000007 631400 5                  EPPR1   7
         4 000113   000000 701000 xent               TSX1    FETCHNS_6
         4 000114   000127 702000 4                  TSX2    BDONE

       86     1137    3               END;

   1137  4 000115   200006 235100                    LDA     Y,,AUTO
         4 000116   000001 035007                    ADLA    1,DL
         4 000117   200006 755100                    STA     Y,,AUTO
         4 000120   000013 115007                    CMPA    11,DL
         4 000121   000111 602000 4                  TNC     s:1136

       87     1138    2           X = X + 1;
PL6.E3A0      #001=ZIG$M_P9 File=ZIG$M_P9.:ZIC0TSI                               FRI 09/05/97 12:08 Page:16

   1138  4 000122   200007 236100                    LDQ     X,,AUTO
         4 000123   000001 036007                    ADLQ    1,DL
         4 000124   200007 756100                    STQ     X,,AUTO

       88     1139    2           END;

   1139  4 000125   000000 116000 0                  CMPQ    SIZE
         4 000126   000074 601000 4                  TNZ     s:1133

       89     1140    1   BDONE:
       90     1141    1       RETURN;

   1141  4 000127   000000 702200 xent  BDONE        TSX2  ! X66_ARET

       91     1142    1   SRCHD:
       92     1143    1       ENTRY(WORD1,TYPE,SUCC);

   1143  4 000130   000000 700200 xent  SRCHD        TSX0  ! X66_AUTO_3
         4 000131   000016 000003                    ZERO    14,3

       93     1144    1       SUCC='0'B;

   1144  4 000132   200005 470500                    LDP0    @SUCC,,AUTO
         4 000133   003100 060400                    CSL     bolr='003'O
         4 000134   000011 000001 5                  BDSC    9                        by=0,bit=0,n=1
         4 000135   000000 000001                    BDSC    0,,PR0                   by=0,bit=0,n=1

       94     1145    1       IF TYPE = %ZIG_RTYPE_FR THEN

   1145  4 000136   200004 471500                    LDP1    @TYPE,,AUTO
         4 000137   100000 235100                    LDA     0,,PR1
         4 000140   000062 115007                    CMPA    50,DL
         4 000141   000234 601000 4                  TNZ     s:1168

       95     1146    2       DO;

PL6.E3A0      #001=ZIG$M_P9 File=ZIG$M_P9.:ZIC0TSI                               FRI 09/05/97 12:08 Page:17
       96     1147    2           IF NUMFR < 50 THEN

   1147  4 000142   000001 236000 0                  LDQ     NUMFR
         4 000143   000062 116007                    CMPQ    50,DL
         4 000144   000152 603000 4                  TRC     s:1152

       97     1148    3           DO;

       98     1149    3               CALL FETCHD_6('SN  ', UWA.DA.FRST_FR);

   1149  4 000145   000005 630400 5                  EPPR0   5
         4 000146   000000 631400 5                  EPPR1   0
         4 000147   000000 701000 xent               TSX1    FETCHD_6
         4 000150   000000 011000                    NOP     0

       99     1150    3               GOTO SSEARCH;

   1150  4 000151   000370 710000 4                  TRA     SSEARCH

      100     1151    3               END;
      101     1152    3           DO I = 0 TO SIZE; /* Size = # entries of FR_NMS*/

   1152  4 000152   200010 450100                    STZ     I,,AUTO
         4 000153   000216 710000 4                  TRA     s:1163+3

      102     1153    3               IF WORD1 = FR_NMS.NAME(I) THEN

   1153  4 000154   200010 236100                    LDQ     I,,AUTO
         4 000155   000044 402007                    MPY     36,DL
         4 000156   200003 470500                    LDP0    @WORD1,,AUTO
         4 000157   000002 471400 0                  LDP1    PFRN
         4 000160   040106 106500                    CMPC    fill='040'O
         4 000161   000000 000036                    ADSC9   0,,PR0                   cn=0,n=30
         4 000162   100000 000036                    ADSC9   0,Q,PR1                  cn=0,n=30
         4 000163   000177 601000 4                  TNZ     s:1158

      103     1154    4               DO;
PL6.E3A0      #001=ZIG$M_P9 File=ZIG$M_P9.:ZIC0TSI                               FRI 09/05/97 12:08 Page:18

      104     1155    4                   CALL FETCHD_6('SN  ', FR_NMS.FADDR(I));

   1155  4 000164   200010 236100                    LDQ     I,,AUTO
         4 000165   000011 402003                    MPY     9,DU
         4 000166   000010 036003                    ADLQ    8,DU
         4 000167   000002 036000 0                  ADLQ    PFRN
         4 000170   000005 235000 5                  LDA     5
         4 000171   200012 757100                    STAQ    I+2,,AUTO
         4 000172   200012 630500                    EPPR0   I+2,,AUTO
         4 000173   000000 631400 5                  EPPR1   0
         4 000174   000000 701000 xent               TSX1    FETCHD_6
         4 000175   000000 011000                    NOP     0

      105     1156    4                   GOTO SSEARCH;

   1156  4 000176   000370 710000 4                  TRA     SSEARCH

      106     1157    4                   END;
      107     1158    3               IF WORD1 < FR_NMS.NAME(I) THEN

   1158  4 000177   000213 603000 4                  TRC     s:1163

      108     1159    4               DO;

      109     1160    4                   CALL FETCHD_6('SN  ', FR_NMS.FADDR(I-1));

   1160  4 000200   200010 236100                    LDQ     I,,AUTO
         4 000201   000011 402003                    MPY     9,DU
         4 000202   000001 136003                    SBLQ    1,DU
         4 000203   000002 036000 0                  ADLQ    PFRN
         4 000204   000005 235000 5                  LDA     5
         4 000205   200012 757100                    STAQ    I+2,,AUTO
         4 000206   200012 630500                    EPPR0   I+2,,AUTO
         4 000207   000000 631400 5                  EPPR1   0
         4 000210   000000 701000 xent               TSX1    FETCHD_6
         4 000211   000000 011000                    NOP     0
PL6.E3A0      #001=ZIG$M_P9 File=ZIG$M_P9.:ZIC0TSI                               FRI 09/05/97 12:08 Page:19

      110     1161    4                   GOTO SSEARCH;

   1161  4 000212   000370 710000 4                  TRA     SSEARCH

      111     1162    4                   END;
      112     1163    3               END;

   1163  4 000213   200010 235100                    LDA     I,,AUTO
         4 000214   000001 035007                    ADLA    1,DL
         4 000215   200010 755100                    STA     I,,AUTO
         4 000216   000000 236000 0                  LDQ     SIZE
         4 000217   200010 116100                    CMPQ    I,,AUTO
         4 000220   000154 603000 4                  TRC     s:1153

      113     1164         /* Fr must be one of the last - past last FR_NMS */
      114     1165    2           CALL FETCHD_6('SN  ', FR_NMS.FADDR(I));

   1165  4 000221   200010 236100                    LDQ     I,,AUTO
         4 000222   000011 402003                    MPY     9,DU
         4 000223   000010 036003                    ADLQ    8,DU
         4 000224   000002 036000 0                  ADLQ    PFRN
         4 000225   000005 235000 5                  LDA     5
         4 000226   200012 757100                    STAQ    I+2,,AUTO
         4 000227   200012 630500                    EPPR0   I+2,,AUTO
         4 000230   000000 631400 5                  EPPR1   0
         4 000231   000000 701000 xent               TSX1    FETCHD_6
         4 000232   000000 011000                    NOP     0

      115     1166    2           GOTO SSEARCH;

   1166  4 000233   000370 710000 4                  TRA     SSEARCH

      116     1167    2           END;
      117     1168    1       IF TYPE = %ZIG_RTYPE_OA THEN

   1168  4 000234   000012 115007                    CMPA    10,DL
PL6.E3A0      #001=ZIG$M_P9 File=ZIG$M_P9.:ZIC0TSI                               FRI 09/05/97 12:08 Page:20
         4 000235   000260 601000 4                  TNZ     s:1175

      118     1169    2       DO;

      119     1170    2           CALL FETCHD_6('OA  ', UWA.SF.DBKEY_OA);

   1170  4 000236   000012 630400 5                  EPPR0   10
         4 000237   000000 631400 5                  EPPR1   0
         4 000240   000000 701000 xent               TSX1    FETCHD_6
         4 000241   000000 011000                    NOP     0

      120     1171    2           CALL FETCHOS_6('SN-SE   ');

   1171  4 000242   000014 630400 5                  EPPR0   12
         4 000243   000007 631400 5                  EPPR1   7
         4 000244   000000 701000 xent               TSX1    FETCHOS_6
         4 000245   000000 011000                    NOP     0

      121     1172    2           IF UWA.SN.SENAME = WORD1 THEN SUCC='1'B;

   1172  4 000246   200003 470500                    LDP0    @WORD1,,AUTO
         4 000247   040100 106400                    CMPC    fill='040'O
         4 000250   000427 000036 2                  ADSC9   UWA+279                  cn=0,n=30
         4 000251   000000 000036                    ADSC9   0,,PR0                   cn=0,n=30
         4 000252   000257 601000 4                  TNZ     s:1173

   1172  4 000253   200005 471500                    LDP1    @SUCC,,AUTO
         4 000254   003100 060400                    CSL     bolr='003'O
         4 000255   000015 000001 5                  BDSC    13                       by=0,bit=0,n=1
         4 000256   100000 000001                    BDSC    0,,PR1                   by=0,bit=0,n=1

      122     1173    2           RETURN;

   1173  4 000257   000000 702200 xent               TSX2  ! X66_ARET

      123     1174    2           END;
      124     1175    2       DO CASE (TYPE);
PL6.E3A0      #001=ZIG$M_P9 File=ZIG$M_P9.:ZIC0TSI                               FRI 09/05/97 12:08 Page:21

   1175  4 000260   000024 135007                    SBLA    20,DL
         4 000261   000025 115007                    CMPA    21,DL
         4 000262   000264 602005 4                  TNC     s:1175+4,AL
         4 000263   000364 710000 4                  TRA     s:1209
         4 000264   000311 710000 4                  TRA     s:1177
         4 000265   000364 710000 4                  TRA     s:1209
         4 000266   000364 710000 4                  TRA     s:1209
         4 000267   000364 710000 4                  TRA     s:1209
         4 000270   000364 710000 4                  TRA     s:1209
         4 000271   000364 710000 4                  TRA     s:1209
         4 000272   000364 710000 4                  TRA     s:1209
         4 000273   000364 710000 4                  TRA     s:1209
         4 000274   000364 710000 4                  TRA     s:1209
         4 000275   000364 710000 4                  TRA     s:1209
         4 000276   000337 710000 4                  TRA     s:1193
         4 000277   000352 710000 4                  TRA     s:1201
         4 000300   000364 710000 4                  TRA     s:1209
         4 000301   000364 710000 4                  TRA     s:1209
         4 000302   000364 710000 4                  TRA     s:1209
         4 000303   000364 710000 4                  TRA     s:1209
         4 000304   000364 710000 4                  TRA     s:1209
         4 000305   000364 710000 4                  TRA     s:1209
         4 000306   000364 710000 4                  TRA     s:1209
         4 000307   000364 710000 4                  TRA     s:1209
         4 000310   000324 710000 4                  TRA     s:1185

      125     1176    2       CASE (%ZIG_RTYPE_AC);

      126     1177    2           IF WORD1 >= SAVED_NAMES.AREA_NAME

   1177  4 000311   200003 473500                    LDP3    @WORD1,,AUTO
         4 000312   040000 106500                    CMPC    fill='040'O
         4 000313   300000 000036                    ADSC9   0,,PR3                   cn=0,n=30
         4 000314   000004 000036 0                  ADSC9   SAVED_NAMES+1            cn=0,n=30
         4 000315   000321 602000 4                  TNC     s:1182

PL6.E3A0      #001=ZIG$M_P9 File=ZIG$M_P9.:ZIC0TSI                               FRI 09/05/97 12:08 Page:22
      127     1178    3           THEN DO;

      128     1179    3               DBK = SAVED_NAMES.AREA_DBK;

   1179  4 000316   000003 236000 0                  LDQ     SAVED_NAMES
         4 000317   000047 756000 0                  STQ     DBK

      129     1180    3               END;

   1180  4 000320   000364 710000 4                  TRA     s:1209

      130     1181    3           ELSE DO;

      131     1182    3               DBK = UWA.DA.FRST_AC;

   1182  4 000321   000415 236000 2                  LDQ     UWA+269
         4 000322   000047 756000 0                  STQ     DBK

      132     1183    3               END;

   1183  4 000323   000364 710000 4                  TRA     s:1209

      133     1184    2       CASE (%ZIG_RTYPE_RC);

      134     1185    2           IF WORD1 >= SAVED_NAMES.REC_NAME

   1185  4 000324   200003 473500                    LDP3    @WORD1,,AUTO
         4 000325   040000 106500                    CMPC    fill='040'O
         4 000326   300000 000036                    ADSC9   0,,PR3                   cn=0,n=30
         4 000327   000037 000036 0                  ADSC9   SAVED_NAMES+28           cn=0,n=30
         4 000330   000334 602000 4                  TNC     s:1190

      135     1186    3           THEN DO;

      136     1187    3               DBK = SAVED_NAMES.REC_DBK;

   1187  4 000331   000036 236000 0                  LDQ     SAVED_NAMES+27
PL6.E3A0      #001=ZIG$M_P9 File=ZIG$M_P9.:ZIC0TSI                               FRI 09/05/97 12:08 Page:23
         4 000332   000047 756000 0                  STQ     DBK

      137     1188    3               END;

   1188  4 000333   000364 710000 4                  TRA     s:1209

      138     1189    3           ELSE DO;

      139     1190    3               DBK = UWA.DA.FRST_RC;

   1190  4 000334   000416 236000 2                  LDQ     UWA+270
         4 000335   000047 756000 0                  STQ     DBK

      140     1191    3               END;

   1191  4 000336   000364 710000 4                  TRA     s:1209

      141     1192    2       CASE (%ZIG_RTYPE_SC);

      142     1193    2           IF WORD1 >= SAVED_NAMES.SET_NAME

   1193  4 000337   200003 473500                    LDP3    @WORD1,,AUTO
         4 000340   040000 106500                    CMPC    fill='040'O
         4 000341   300000 000036                    ADSC9   0,,PR3                   cn=0,n=30
         4 000342   000015 000036 0                  ADSC9   SAVED_NAMES+10           cn=0,n=30
         4 000343   000347 602000 4                  TNC     s:1198

      143     1194    3           THEN DO;

      144     1195    3               DBK = SAVED_NAMES.SET_DBK;

   1195  4 000344   000014 236000 0                  LDQ     SAVED_NAMES+9
         4 000345   000047 756000 0                  STQ     DBK

      145     1196    3               END;

   1196  4 000346   000364 710000 4                  TRA     s:1209
PL6.E3A0      #001=ZIG$M_P9 File=ZIG$M_P9.:ZIC0TSI                               FRI 09/05/97 12:08 Page:24

      146     1197    3           ELSE DO;

      147     1198    3               DBK = UWA.DA.FRST_SC;

   1198  4 000347   000417 236000 2                  LDQ     UWA+271
         4 000350   000047 756000 0                  STQ     DBK

      148     1199    3               END;

   1199  4 000351   000364 710000 4                  TRA     s:1209

      149     1200    2       CASE (%ZIG_RTYPE_KC);

      150     1201    2           IF WORD1 >= SAVED_NAMES.KEY_NAME

   1201  4 000352   200003 473500                    LDP3    @WORD1,,AUTO
         4 000353   040000 106500                    CMPC    fill='040'O
         4 000354   300000 000036                    ADSC9   0,,PR3                   cn=0,n=30
         4 000355   000026 000036 0                  ADSC9   SAVED_NAMES+19           cn=0,n=30
         4 000356   000362 602000 4                  TNC     s:1206

      151     1202    3           THEN DO;

      152     1203    3               DBK = SAVED_NAMES.KEY_DBK;

   1203  4 000357   000025 236000 0                  LDQ     SAVED_NAMES+18
         4 000360   000047 756000 0                  STQ     DBK

      153     1204    3               END;

   1204  4 000361   000364 710000 4                  TRA     s:1209

      154     1205    3           ELSE DO;

      155     1206    3               DBK = UWA.DA.FRST_KC;

PL6.E3A0      #001=ZIG$M_P9 File=ZIG$M_P9.:ZIC0TSI                               FRI 09/05/97 12:08 Page:25
   1206  4 000362   000420 236000 2                  LDQ     UWA+272
         4 000363   000047 756000 0                  STQ     DBK

      156     1207    3               END;

      157     1208    2           END;

      158     1209    1       CALL FETCHD_6('SN  ', DBK);

   1209  4 000364   000016 630400 5                  EPPR0   14
         4 000365   000000 631400 5                  EPPR1   0
         4 000366   000000 701000 xent               TSX1    FETCHD_6
         4 000367   000000 011000                    NOP     0

      159     1210    1   SSEARCH:
      160     1211    1       IF TYPE ~= UWA.SN.SETYPE THEN GOTO SDONE;

   1211  4 000370   200004 470500       SSEARCH      LDP0    @TYPE,,AUTO
         4 000371   000000 236100                    LDQ     0,,PR0
         4 000372   000505 604000 4                  TMI     SDONE
         4 000373   000424 116000 2                  CMPQ    UWA+276
         4 000374   000505 601000 4                  TNZ     SDONE

      161     1212    1       IF WORD1 < UWA.SN.SENAME AND SUBSTR(UWA.SN.SENAME,0,1) ~= '*'

   1212  4 000375   200003 471500                    LDP1    @WORD1,,AUTO
         4 000376   040000 106500                    CMPC    fill='040'O
         4 000377   100000 000036                    ADSC9   0,,PR1                   cn=0,n=30
         4 000400   000427 000036 2                  ADSC9   UWA+279                  cn=0,n=30
         4 000401   000406 603000 4                  TRC     s:1214
         4 000402   000427 236000 2                  LDQ     UWA+279
         4 000403   777000 376003                    ANQ     -512,DU
         4 000404   052000 116003                    CMPQ    21504,DU
         4 000405   000505 601000 4                  TNZ     SDONE

      162     1213    1       THEN GOTO SDONE;
      163     1214    1       IF WORD1 = UWA.SN.SENAME
PL6.E3A0      #001=ZIG$M_P9 File=ZIG$M_P9.:ZIC0TSI                               FRI 09/05/97 12:08 Page:26

   1214  4 000406   040000 106500                    CMPC    fill='040'O
         4 000407   100000 000036                    ADSC9   0,,PR1                   cn=0,n=30
         4 000410   000427 000036 2                  ADSC9   UWA+279                  cn=0,n=30
         4 000411   000500 601000 4                  TNZ     s:1233

      164     1215    2       THEN DO;

      165     1216    2           SUCC='1'B;

   1216  4 000412   200005 473500                    LDP3    @SUCC,,AUTO
         4 000413   003100 060400                    CSL     bolr='003'O
         4 000414   000015 000001 5                  BDSC    13                       by=0,bit=0,n=1
         4 000415   300000 000001                    BDSC    0,,PR3                   by=0,bit=0,n=1

      166     1217    3           DO CASE (TYPE);

   1217  4 000416   000000 235100                    LDA     0,,PR0
         4 000417   000024 135007                    SBLA    20,DL
         4 000420   000025 115007                    CMPA    21,DL
         4 000421   000423 602005 4                  TNC     s:1217+5,AL
         4 000422   000477 710000 4                  TRA     s:1231
         4 000423   000450 710000 4                  TRA     s:1219
         4 000424   000477 710000 4                  TRA     s:1231
         4 000425   000477 710000 4                  TRA     s:1231
         4 000426   000477 710000 4                  TRA     s:1231
         4 000427   000477 710000 4                  TRA     s:1231
         4 000430   000477 710000 4                  TRA     s:1231
         4 000431   000477 710000 4                  TRA     s:1231
         4 000432   000477 710000 4                  TRA     s:1231
         4 000433   000477 710000 4                  TRA     s:1231
         4 000434   000477 710000 4                  TRA     s:1231
         4 000435   000464 710000 4                  TRA     s:1225
         4 000436   000472 710000 4                  TRA     s:1228
         4 000437   000477 710000 4                  TRA     s:1231
         4 000440   000477 710000 4                  TRA     s:1231
         4 000441   000477 710000 4                  TRA     s:1231
PL6.E3A0      #001=ZIG$M_P9 File=ZIG$M_P9.:ZIC0TSI                               FRI 09/05/97 12:08 Page:27
         4 000442   000477 710000 4                  TRA     s:1231
         4 000443   000477 710000 4                  TRA     s:1231
         4 000444   000477 710000 4                  TRA     s:1231
         4 000445   000477 710000 4                  TRA     s:1231
         4 000446   000477 710000 4                  TRA     s:1231
         4 000447   000456 710000 4                  TRA     s:1222

      167     1218    3           CASE (%ZIG_RTYPE_AC);

      168     1219    3               SAVED_NAMES.AREA_NAME = UWA.SN.SENAME;

   1219  4 000450   040000 100400                    MLR     fill='040'O
         4 000451   000427 000036 2                  ADSC9   UWA+279                  cn=0,n=30
         4 000452   000004 000036 0                  ADSC9   SAVED_NAMES+1            cn=0,n=30

      169     1220    3               SAVED_NAMES.AREA_DBK = UWA.DIRECT_REF;

   1220  4 000453   000036 236000 2                  LDQ     UWA+30
         4 000454   000003 756000 0                  STQ     SAVED_NAMES
         4 000455   000477 710000 4                  TRA     s:1231

      170     1221    3           CASE (%ZIG_RTYPE_RC);

      171     1222    3               SAVED_NAMES.REC_NAME = UWA.SN.SENAME;

   1222  4 000456   040000 100400                    MLR     fill='040'O
         4 000457   000427 000036 2                  ADSC9   UWA+279                  cn=0,n=30
         4 000460   000037 000036 0                  ADSC9   SAVED_NAMES+28           cn=0,n=30

      172     1223    3               SAVED_NAMES.REC_DBK = UWA.DIRECT_REF;

   1223  4 000461   000036 236000 2                  LDQ     UWA+30
         4 000462   000036 756000 0                  STQ     SAVED_NAMES+27
         4 000463   000477 710000 4                  TRA     s:1231

      173     1224    3           CASE (%ZIG_RTYPE_SC);

PL6.E3A0      #001=ZIG$M_P9 File=ZIG$M_P9.:ZIC0TSI                               FRI 09/05/97 12:08 Page:28
      174     1225    3               SAVED_NAMES.SET_NAME = UWA.SN.SENAME;

   1225  4 000464   040000 100400                    MLR     fill='040'O
         4 000465   000427 000036 2                  ADSC9   UWA+279                  cn=0,n=30
         4 000466   000015 000036 0                  ADSC9   SAVED_NAMES+10           cn=0,n=30

      175     1226    3               SAVED_NAMES.SET_DBK = UWA.DIRECT_REF;

   1226  4 000467   000036 236000 2                  LDQ     UWA+30
         4 000470   000014 756000 0                  STQ     SAVED_NAMES+9
         4 000471   000477 710000 4                  TRA     s:1231

      176     1227    3           CASE (%ZIG_RTYPE_KC);

      177     1228    3               SAVED_NAMES.KEY_NAME = UWA.SN.SENAME;

   1228  4 000472   040000 100400                    MLR     fill='040'O
         4 000473   000427 000036 2                  ADSC9   UWA+279                  cn=0,n=30
         4 000474   000026 000036 0                  ADSC9   SAVED_NAMES+19           cn=0,n=30

      178     1229    3               SAVED_NAMES.KEY_DBK = UWA.DIRECT_REF;

   1229  4 000475   000036 236000 2                  LDQ     UWA+30
         4 000476   000025 756000 0                  STQ     SAVED_NAMES+18

      179     1230    3               END;

      180     1231    2           RETURN;

   1231  4 000477   000000 702200 xent               TSX2  ! X66_ARET

      181     1232    2           END;
      182     1233    1       CALL FETCHNS_6('DA-SN   ') ALTRET(SDONE);

   1233  4 000500   000010 630400 5                  EPPR0   8
         4 000501   000007 631400 5                  EPPR1   7
         4 000502   000000 701000 xent               TSX1    FETCHNS_6
PL6.E3A0      #001=ZIG$M_P9 File=ZIG$M_P9.:ZIC0TSI                               FRI 09/05/97 12:08 Page:29
         4 000503   000505 702000 4                  TSX2    SDONE

      183     1234    1       GOTO SSEARCH;

   1234  4 000504   000370 710000 4                  TRA     SSEARCH

      184     1235    1   SDONE:
      185     1236    1       CALL FETCHPS_6('DA-SN   ') ALTRET(DA_PRIOR);

   1236  4 000505   000010 630400 5     SDONE        EPPR0   8
         4 000506   000007 631400 5                  EPPR1   7
         4 000507   000000 701000 xent               TSX1    FETCHPS_6
         4 000510   000512 702000 4                  TSX2    DA_PRIOR

      186     1237    1       RETURN;

   1237  4 000511   000000 702200 xent               TSX2  ! X66_ARET

      187     1238    1   DA_PRIOR:
      188     1239    1       CALL FCURR_R_6('DA  ');

   1239  4 000512   000001 630400 5     DA_PRIOR     EPPR0   1
         4 000513   000007 631400 5                  EPPR1   7
         4 000514   000000 701000 xent               TSX1    FCURR_R_6
         4 000515   000000 011000                    NOP     0

      189     1240    1       RETURN;

   1240  4 000516   000000 702200 xent               TSX2  ! X66_ARET

SAVED_NAMES
 Sect OctLoc
   0     003   ****** ******   ****** ******   ****** ******   ****** ******    ................

UWA
 Sect OctLoc
   2     000   000000 000000   040040 040040   040040 040040   040040 040040    ....
PL6.E3A0      #001=ZIG$M_P9 File=ZIG$M_P9.:ZIC0TSI                               FRI 09/05/97 12:08 Page:30
   2     004   040040 040040   040040 040040   040040 040040   040040 040040
   2     010   040040 040040   040040 040040   040040 000000   040040 040040              ..
   2     014   040040 040040   040040 040040   040040 040040   040040 040040
   2     020   040040 040040   040040 040040   040040 000000   040040 040040              ..
   2     024   040040 040040   040040 040040   040040 040040   040040 040040
   2     030   040040 040040   040040 040040   040040 000000   040040 040040              ..
   2     034   040040 040040   040040 040040   000000 000000   040040 040040            ....
   2     040   040040 040040   040040 040040   040040 040040   040040 040040
   2     044   040040 040040   040040 040040   040040 000000   040040 040040              ..
   2     050   040040 040040   040040 040040   040040 040040   040040 040040
   2     054   040040 040040   040040 040040   040040 000000   000000 000000              ......
   2     060   040040 040040   040*** ******   000000 000000   000000 000000         ...........
   2     064   000000 000000   000000 000000   040040 040040   040040 040040    ........
   2     070   040040 040040   040040 040040   040040 040040   040040 040040
   2     100*  040040 ******   000000 000000   040040 040040   040040 040040      ......
   2     104   040040 040040   040040 040040   040040 040040   040040 040040
   2     124*  040040 040040   040040 040040   000000 000000   040040 040040            ....
   2     130   040040 040040   040040 040040   040040 040040   040040 040040
   2     134   040040 040040   040040 040040   040040 ******   000000 000000              ......
   2     140   040040 040040   040040 040040   040040 040040   040040 040040
   2     144   040040 040040   040040 040040   000000 000000   000000 000000            ........
   2     150   000000 000000   000000 000000   000000 000000   000000 000000    ................
   2     154   040040 040040   040040 040040   040040 040040   040040 040040
   2     160   040040 040040   040040 040040   040040 040040   040040 ******                  ..
   2     164   000000 000000   ****** ******   000000 000000   000000 000000    ................
   2     170   000000 000000   040040 040040   040040 040040   040040 040040    ....
   2     174   040040 040040   040040 040040   040040 040040   040040 040040
   2     210*  040040 040040   040040 040040   040040 040040   ****** ******                ....
   2     214   000000 000000   000000 000000   000000 000000   000000 000000    ................
   2     224*  000000 000000   000000 000000   000000 000000   040040 ******    ............  ..
   2     230   000000 000000   ****** ******   000000 000000   040040 040040    ............
   2     234   000000 000000   000000 000000   000000 000000   000000 000000    ................
   2     264*  000000 000000   000000 000000   000000 000000   ****** ******    ................
   2     270   000000 000000   000000 000000   000000 000000   000000 000000    ................
   2     324*  000000 000000   ****** ******   000000 000000   000000 000000    ................
   2     330   000000 000000   000000 000000   000000 000000   000000 000000    ................
   2     350*  000000 000000   000000 000000   000000 000000   ****** ******    ................
PL6.E3A0      #001=ZIG$M_P9 File=ZIG$M_P9.:ZIC0TSI                               FRI 09/05/97 12:08 Page:31
   2     360*  000000 000000   000000 000000   000000 000000   000000 000000    ................
   2     404*  000000 000000   ****** ******   000000 000000   000000 000000    ................
   2     410   000000 000000   000000 000000   000000 000000   000000 000000    ................
   2     424*  000000 000000   000000 000000   000000 000000   040040 040040    ............
   2     430   040040 040040   040040 040040   040040 040040   040040 040040
   2     434   040040 040040   040040 040040   040040 ******   ****** ******              ......
   2     440   040040 040040   040040 040040   040040 040040   040040 040040
   2     450*  040040 040040   040040 040040   040040 ******   ****** ******              ......
   2     454   000000 000000   040040 040040   040040 040040   040040 040040    ....
   2     460   040040 040040   040040 040040   040040 040040   040040 040040
   2     464   040040 ******   ****** ******   000000 000000   000000 000000      ..............
   2     470   000000 000000   000000 000000   000000 000000   000000 000000    ................
   2     474   000000 000000   ****** ******   000000 000000   000000 000000    ................
   2     500   000000 000000   000000 000000   040040 040040   040040 040040    ........
   2     504   040040 040040   040040 040040   040040 040040   040040 040040
   2     520*  040040 040040   ****** ******   000000 000000   000000 000000        ............
   2     524   040040 040040   040040 040040   040040 040040   040040 040040
   2     574*  000000 000000   000000 000000   000000 000000   000000 000000    ................
   2     600   000000 000000   000000 000000   000000 000000   ****** ******    ................
   2     604   000000 000000   000000 000000   000000 000000   000000 000000    ................
   2     610   000000 000000   000000 000000   040040 040040   040040 040040    ........
   2     614   040040 040040   040040 040040   040040 040040   040040 040040
   2     620   040040 040040   040040 ******   040040 040040   040040 040040          ..
   2     624   040040 040040   040040 040040   040040 040040   040040 040040
   2     660*  040040 040040   040040 040040   040040 040040   ****** ******                ....
   2     664   040040 040040   040040 040040   040040 040040   040040 040040
   2     674*  040040 040040   ****** ******   040040 040040   040040 040040        ....
   2     700   040040 040040   040040 040040   040040 040040   040040 040040
   2     710*  040040 040040   ****** ******   040040 040040   040040 040040        ....
   2     714   040040 040040   040040 040040   040040 040040   040040 040040
   2     720   040040 040040   040040 040040   040040 040040   ****** ******                ....
   2     724   040040 040040   040040 040040   040040 040040   040040 040040
   2     740*  040040 040040   ****** ******   040040 040040   040040 040040        ....
   2     744   040040 040040   040040 040040   040040 040040   040040 040040
   2     774*  040040 040040   ****** ******   040040 040040   040040 040040        ....
   2    1000   040040 040040   040040 040040   040040 040040   040040 040040
   2    1034*  040040 040040   ****** ******   040040 040040   040040 040040        ....
PL6.E3A0      #001=ZIG$M_P9 File=ZIG$M_P9.:ZIC0TSI                               FRI 09/05/97 12:08 Page:32
   2    1040   040040 040040   040040 040040   040040 040040   040040 040040
   2    1060*  040040 040040   ****** ******   040040 040040   040040 040040        ....
   2    1064   040040 040040   040040 040040   040040 040040   040040 040040
   2    1114*  040040 040040   ****** ******   040040 040040   040040 040040        ....
   2    1120   040040 040040   040040 040040   040040 040040   040040 040040
   2    1134*  040040 040040   040040 040040   040040 040040   ****** ******                ....
   2    1140   040040 040040   040040 040040   040040 040040   040040 040040
   2    1144   040040 040040   ****** ******   040040 040040   040040 040040        ....
   2    1150   040040 040040   040040 040040   040040 040040   ****** ******                ....
   2    1154   040040 040040   040040 040040   040040 040040   040040 040040
   2    1160   040040 040040   ****** ******   040040 040040   040040 040040        ....
   2    1164   040040 040040   040040 040040   040040 040040   ****** ******                ....
   2    1170   040040 040040   040040 040040   040040 040040   040040 040040
   2    1200*  040040 040040   040040 040040   040040 040040   ****** ******                ....
   2    1204   040040 040040   040040 040040   040040 040040   040040 040040
   2    1214*  040040 040040   040040 040040   040040 040040   040040 040040

(unnamed)
 Sect OctLoc
   3     000   104101 040040   123116 040040   104101 055123   116040 040040    DA  SN  DA-SN
   3     004   117101 040040   123116 055123   105040 040040                    OA  SN-SE

(unnamed)
 Sect OctLoc
   5     000   000002 000000   000000 006000   000064 006000   040040 040040    .........4..
   5     004   000002 006000   000001 006000   000421 006000   000001 000000    ................
   5     010   000002 006000   000000 000000   000004 006000   000063 006000    .............3..
   5     014   000005 006000   400000 000000   000001 006000   000047 006000    .............'..
      190     1241    1   END ZIG$M_P9;

PL6.E3A0      #001=ZIG$M_P9 File=ZIG$M_P9.:ZIC0TSI                               FRI 09/05/97 12:08 Page:33
--  Include file information  --

   ZIG_DBA_INT.:ZIC0TOU  cannot be made into a system file and is referenced.
   ZI_SUB4_CAN.:ZIC0TOU  is referenced.
   ZIG_TYPE_SUBS.:ZIC0TOU  is referenced.
   B$JIT_C.:E05TOU  was found in the system file and is never referenced.
   CP_6_C.:E05TOU  was found in the system file and is never referenced.
      No diagnostics issued in procedure ZIG$M_P9.

   Procedure ZIG$M_P9 requires 335 words for executable code.
   Procedure ZIG$M_P9 requires 14 words of local(AUTO) storage.

    No errors detected in file ZIG$M_P9.:ZIC0TSI    .
PL6.E3A0      #001=ZIG$M_P9 File=ZIG$M_P9.:ZIC0TSI                               FRI 09/05/97 12:08 Page:34
          *** CROSS REFERENCE LISTING ***
**     DENOTES     IDENTIFIER DEFINITION
<<                 IDENTIFIER'S VALUE SET
>>                 IDENTIFIER'S VALUE USED
<>                 IDENTIFIER SET AND/OR USED
--                 IDENTIFIER REFERENCED
PL6.E3A0      #001=ZIG$M_P9 File=ZIG$M_P9.:ZIC0TSI                               FRI 09/05/97 12:08 Page:35
          MINI XREF LISTING

BDONE
      1141**LABEL    1136--CALLALT
DA_PRIOR
      1239**LABEL    1236--CALLALT
DBK
        31**DCL      1179<<ASSIGN   1182<<ASSIGN   1187<<ASSIGN   1190<<ASSIGN   1195<<ASSIGN   1198<<ASSIGN
      1203<<ASSIGN   1206<<ASSIGN   1209<>CALL
FCURR_R_6
      1056**DCL-ENT  1239--CALL
FETCHD_6
      1054**DCL-ENT  1108--CALL     1130--CALL     1149--CALL     1155--CALL     1160--CALL     1165--CALL
      1170--CALL     1209--CALL
FETCHNS_6
      1059**DCL-ENT  1136--CALL     1233--CALL
FETCHOS_6
      1063**DCL-ENT  1171--CALL
FETCHPS_6
      1061**DCL-ENT  1236--CALL
FR_NMS.FADDR
        11**DCL      1134<<ASSIGN   1155<>CALL     1160<>CALL     1165<>CALL
FR_NMS.NAME
        10**DCL      1133<<ASSIGN   1153>>IF       1158>>IF
I
        21**DCL      1152<<DOINDEX  1153>>IF       1155>>CALL     1158>>IF       1160>>CALL     1165>>CALL
J
        32**DCL      1117>>IF
NUMFR
        13**DCL      1125<<ASSIGN   1126>>IF       1128>>ASSIGN   1147>>IF
PFRN
        18**DCL         9--IMP-PTR  1129<>CALL     1133>>ASSIGN   1134>>ASSIGN   1153>>IF       1155>>CALL
      1158>>IF       1160>>CALL     1165>>CALL
SAVED_NAMES.AREA_DBK
PL6.E3A0      #001=ZIG$M_P9 File=ZIG$M_P9.:ZIC0TSI                               FRI 09/05/97 12:08 Page:36
        23**DCL      1113<<ASSIGN   1179>>ASSIGN   1220<<ASSIGN
SAVED_NAMES.AREA_NAME
        24**DCL      1109<<ASSIGN   1177>>IF       1219<<ASSIGN
SAVED_NAMES.KEY_DBK
        27**DCL      1115<<ASSIGN   1203>>ASSIGN   1229<<ASSIGN
SAVED_NAMES.KEY_NAME
        28**DCL      1111<<ASSIGN   1201>>IF       1228<<ASSIGN
SAVED_NAMES.REC_DBK
        29**DCL      1116<<ASSIGN   1187>>ASSIGN   1223<<ASSIGN
SAVED_NAMES.REC_NAME
        30**DCL      1112<<ASSIGN   1185>>IF       1222<<ASSIGN
SAVED_NAMES.SET_DBK
        25**DCL      1114<<ASSIGN   1195>>ASSIGN   1226<<ASSIGN
SAVED_NAMES.SET_NAME
        26**DCL      1110<<ASSIGN   1193>>IF       1225<<ASSIGN
SDONE
      1236**LABEL    1211--GOTO     1213--GOTO     1233--CALLALT
SIZE
        12**DCL      1128<<ASSIGN   1129>>CALL     1132>>DOWHILE  1152>>DOINDEX
SSEARCH
      1211**LABEL    1150--GOTO     1156--GOTO     1161--GOTO     1166--GOTO     1234--GOTO
SUCC
        15**DCL         7--PROC     1142--ENTRY    1144<<ASSIGN   1172<<ASSIGN   1216<<ASSIGN
TYPE
        17**DCL         7--PROC     1142--ENTRY    1145>>IF       1168>>IF       1175>>DOCASE   1211>>IF
      1217>>DOCASE
UWA.AC.CALC_NEXT
       820**DCL       821--REDEF
UWA.AC.CALC_PRIOR
       829**DCL       830--REDEF
UWA.AC.DEFAULTS
       781**DCL       782--REDEF
UWA.AC.FILE_CODE
       786**DCL       787--REDEF
UWA.AC.FLAG1.ERROR_TYPE
       783**DCL       784--REDEF
PL6.E3A0      #001=ZIG$M_P9 File=ZIG$M_P9.:ZIC0TSI                               FRI 09/05/97 12:08 Page:37
UWA.DA.FRST_AC
       928**DCL      1113>>ASSIGN   1182>>ASSIGN
UWA.DA.FRST_FR
       932**DCL      1130<>CALL     1149<>CALL
UWA.DA.FRST_KC
       931**DCL      1115>>ASSIGN   1206>>ASSIGN
UWA.DA.FRST_RC
       929**DCL      1116>>ASSIGN   1190>>ASSIGN
UWA.DA.FRST_SC
       930**DCL      1114>>ASSIGN   1198>>ASSIGN
UWA.DIRECT_REF
       721**DCL      1134>>ASSIGN   1220>>ASSIGN   1223>>ASSIGN   1226>>ASSIGN   1229>>ASSIGN
UWA.OA.NUMB_FR
       771**DCL      1125>>ASSIGN
UWA.SF.DBKEY_DA
       731**DCL      1108<>CALL
UWA.SF.DBKEY_OA
       730**DCL      1170<>CALL
UWA.SN.SENAME
       939**DCL      1133>>ASSIGN   1172>>IF       1212>>IF       1212>>IF       1214>>IF       1219>>ASSIGN
      1222>>ASSIGN   1225>>ASSIGN   1228>>ASSIGN
UWA.SN.SETYPE
       936**DCL      1211>>IF
WORD1
        14**DCL         7--PROC     1142--ENTRY    1153>>IF       1158>>IF       1172>>IF       1177>>IF
      1185>>IF       1193>>IF       1201>>IF       1212>>IF       1214>>IF
X
        20**DCL      1131<<ASSIGN   1132>>DOWHILE  1133>>ASSIGN   1134>>ASSIGN   1138<<ASSIGN   1138>>ASSIGN
Y
        19**DCL      1135<<DOINDEX
ZIG$G_DYN_MEM_6
        16**DCL-ENT  1129--CALL
