
PL6.E3A0      #001=ZIG$M_PDRI File=ZIG$M_PDRI.:ZIC0TSI                           FRI 09/05/97 12:08 Page:1
        1        1        /*M*     ZIG$M_PDRI      I-D-S/II       DBACS DIRECTIVE PARSER. */
        2        2        /*T***********************************************************/
        3        3        /*T*                                                         */
        4        4        /*T* Copyright (c) Bull HN Information Systems Inc., 1997    */
        5        5        /*T*                                                         */
        6        6        /*T***********************************************************/
        7        7        /*P*
        8        8        NAME:    ZIG$M_PDRI           ZIG$DDS1
        9        9        PURPOSE:	TO CHECK THE SYNTAX FOR DMCL AND CHANGE THE SCHEMA
       10       10        		FILE TO SHOW THESE CHANGES.
       11       11        */
       12       12        ZIG$M_PDRI:
       13       13            PROC ;
       14       14    1   DCL QUIT BIT (1) EXT;
       15       15    1   DCL SYNTAX_ERR BIT (72) STATIC SYMDEF;
       16       16    1   DCL LIST_STRING CHAR (128) EXT;
       17       17    1   DCL DBASE2(0:4159) UBIN (36) AUTO;
       18       18    1   DCL ONLINE BIT (1) EXT;
       19       19    1   DCL LAST_COUNT UBIN (36) SYMREF;
       20       20    1   DCL NUM_CHAR_READ UBIN (36) EXT;
       21       21    1   DCL X$PARSE ENTRY(1) ALTRET;
       22       22    1   DCL ZIG$M_PSET ENTRY(1);
       23       23    1   DCL END_DMCL BIT (1) EXT;
       24       24    1   DCL ZIG$M_READ ENTRY;
       25       25    1   DCL REC CHAR (80) EXT;
       26       26    1   DCL FOUND_PER BIT(1) SYMREF;
       27       27    1   DCL DMCL_S UBIN (36) SYMREF;
       28       28    1   DCL OTHER_DMCL UBIN (36) SYMREF;
       29       29    1   DCL NU_ERROR UBIN (36) EXT;
       30       30    1   DCL ERROR ENTRY (1);
       31       31    1   DCL COMPRD ENTRY;
       32       32    1   DCL ABORT ENTRY;
       33       33    1   DCL LINE CHAR (4000) EXT;
       34       34    1   DCL EOFFLG UBIN (36) EXT;
       35       35    1   DCL NCS UBIN (36) EXT;
       36       36        /*       If we didn't use this record then don't read another */
       37       37    1   DCL LIST ENTRY (1);
PL6.E3A0      #001=ZIG$M_PDRI File=ZIG$M_PDRI.:ZIC0TSI                           FRI 09/05/97 12:08 Page:2
       38       38    1   DCL ZIG$DDER ENTRY (1); /* Put out error */
       39       39    1   DCL LINE_COUNT UBIN (36) EXT;
       40       40         %EJECT;
PL6.E3A0      #001=ZIG$M_PDRI File=ZIG$M_PDRI.:ZIC0TSI                           FRI 09/05/97 12:08 Page:3
       41       41         %INCLUDE XU_MACRO_C;
       42     3147         %INCLUDE ZI_ERRORS_SUBS;
       43     3667         %P_PCB(NAME = DMCL_P,T = LINE,
       44     3668         WSZ=2048, U$ = ZIG$M_PSET,STCLASS =
       45     3669         "STATIC SYMDEF",C_LD='/*',C_TL='*/');
       46     3868         %PARSE$OUT(NAME=BLK,
       47     3869         STCLASS = BASED);
       48     3914         %PARSE$SYM(NAME=SYM,
       49     3915         STCLASS = BASED);
       50     3953         %PLIST;
       51     3954         %EJECT;
PL6.E3A0      #001=ZIG$M_PDRI File=ZIG$M_PDRI.:ZIC0TSI                           FRI 09/05/97 12:08 Page:4
       52     3955        /*******
       53     3956            Here starts the program.
       54     3957        *******/
       55     3958    1       LAST_COUNT=0;
       56     3959    1       DMCL_P.WORK$=ADDR(DBASE2);
       57     3960    1       REMEMBER SYNTAX_ERROR IN SYNTAX_ERR;
       58     3961    1       LINE_COUNT=1;
       59     3962    1       END_DMCL ='0'B;
       60     3963    1       DMCL_P.ROOT$= ADDR(DMCL_S);
       61     3964    2       DO WHILE (~END_DMCL);
       62     3965    2           CALL ZIG$M_READ;
       63     3966    2   START_PARSE: CALL X$PARSE(DMCL_P) ALTRET(PARSE_ERROR);/* Call syntax parser */
       64     3967    2   NEXT_PARSE: DMCL_P.ROOT$= ADDR(OTHER_DMCL);
       65     3968    2           DMCL_P.NCHARS=0;
       66     3969    2           END;
       67     3970    1       RETURN;
       68     3971        /*
       69     3972            Handle the internal parsing errors.
       70     3973        */
       71     3974    1   PARSE_ERROR:
       72     3975    1       QUIT = '0'B;
       73     3976    2       DO CASE (DMCL_P.ERROR.CODE);
       74     3977    2       CASE (E$SYNERR,E$NULLROOT,E$BADNODE,E$WKOVERFLOW,
       75     3978    2          E$SMALLWORK,E$NULLU$$);
       76     3979    2           CALL ZIG$DDER (DMCL_P.ERROR.CODE);/* Put out error */
       77     3980    2       CASE (ELSE);
       78     3981    2           CALL ZIG$DDER (E$UNKN_ERR); /* Put out error */
       79     3982    2           END;
       80     3983    1       CALL ABORT;
       81     3984        /*                                                        */
       82     3985        /*       ERROR:    ZIG-E$SYNERR-C
       83     3986                 MESSAGE:  Syntax error.
       84     3987        */
       85     3988        /*       ERROR:    ZIG-E$NULLROOT-C
       86     3989                 MESSAGE:  Missing tree.
       87     3990        */
       88     3991        /*       ERROR:    ZIG-E$BADNODE-C
PL6.E3A0      #001=ZIG$M_PDRI File=ZIG$M_PDRI.:ZIC0TSI                           FRI 09/05/97 12:08 Page:5
       89     3992                 MESSAGE:  Illegal node.
       90     3993        */
       91     3994        /*       ERROR:    ZIG-E$WKOVERFLOW-C
       92     3995                 MESSAGE:  Workspace overflow.
       93     3996        */
       94     3997        /*       ERROR:    ZIG-E$SMALLWORK-C
       95     3998                 MESSAGE:  Insufficient work area.
       96     3999        */
       97     4000        /*       ERROR:    ZIG-E$NULLU$$-C
       98     4001                 MESSAGE:  Missing U$$ routine.
       99     4002        */
      100     4003        /*       ERROR:    ZIG-E$UNKN_ERR-C
      101     4004                 MESSAGE:  Unknown error from X$PARSE.
      102     4005        */
      103     4006         %EJECT;
PL6.E3A0      #001=ZIG$M_PDRI File=ZIG$M_PDRI.:ZIC0TSI                           FRI 09/05/97 12:08 Page:6
      104     4007        /*******
      105     4008                 The directive had a syntax error so
      106     4009                 if the user is online then let him retype the last
      107     4010                 line and restart the syntax checking else return to exec.
      108     4011        ******/
      109     4012    1   SYNTAX_ERROR:
      110     4013    1       IF ONLINE & EOFFLG = 0
      111     4014    2       THEN DO;
      112     4015    2           CALL ZIG$M_READ;
      113     4016    2           IF SUBSTR(REC,0,2)='Q ' OR SUBSTR(REC,0,5)='QUIT '
      114     4017    3           THEN DO ;
      115     4018    3               QUIT='1'B;
      116     4019    3               RETURN;
      117     4020    3               END;
      118     4021    2           END;
      119     4022    1       LAST_COUNT=0;
      120     4023    2       DO WHILE (~FOUND_PER AND NCS = 0);
      121     4024    2           CALL ZIG$M_READ;
      122     4025    2           END;
      123     4026    1       GOTO NEXT_PARSE;
      124     4027    1   END ZIG$M_PDRI;

PL6.E3A0      #001=ZIG$M_PDRI File=ZIG$M_PDRI.:ZIC0TSI                           FRI 09/05/97 12:08 Page:7
--  Include file information  --

   ZI_ERRORS_SUBS.:ZIC0TOU  is referenced.
   XU_MACRO_C.:LIB_E05  is referenced.
   B$JIT_C.:E05TOU  was found in the system file and is never referenced.
   CP_6_C.:E05TOU  was found in the system file and is never referenced.
      No diagnostics issued in procedure ZIG$M_PDRI.

   Procedure ZIG$M_PDRI requires 90 words for executable code.
   Procedure ZIG$M_PDRI requires 4166 words of local(AUTO) storage.

    No errors detected in file ZIG$M_PDRI.:ZIC0TSI    .

PL6.E3A0      #001=ZIG$M_PDRI File=ZIG$M_PDRI.:ZIC0TSI                           FRI 09/05/97 12:08 Page:8

 Object Unit name= ZIG$M_PDRI                                 File name= ZIG$M_PDRI.:ZIC0TOU
 UTS= SEP 05 '97 12:08:53.20 FRI                              Compiler= PL-6/E31         Sev=      00
 SharedLib= :SHARED_SYSTEM                                    Alt SharedLib=


    ****  Control sections  ****

 Sect   Type Bound  Init  Size OctSiz  Section name(segment info)
    0  LblCom even  none     1      1  QUIT
    1   Data  even  none    16     20  ZIG$M_PDRI
    2  LblCom even  none    32     40  LIST_STRING
    3  LblCom even  none     1      1  ONLINE
    4  LblCom even  none     1      1  NUM_CHAR_READ
    5  LblCom even  none     1      1  END_DMCL
    6  LblCom even  none    20     24  REC
    7  LblCom even  none     1      1  NU_ERROR
    8  LblCom even  none  1000   1750  LINE
    9  LblCom even  none     1      1  EOFFLG
   10  LblCom even  none     1      1  NCS
   11  LblCom even  none     1      1  LINE_COUNT
   12  RoData even  UTS      3      3  ZIG$M_PDRI
   13   Proc  even  none    90    132  ZIG$M_PDRI
   14  RoData even  none     8     10  ZIG$M_PDRI

    ****  Entry defs  ****

                              Check   Calling
                             calling  sequence
  Sect OctLoc Primary Altret sequence   type   Parms  Name
    13      0   yes            yes      Std        0  ZIG$M_PDRI

  ****  Data defs  ****

 Sect OctLoc  Name                           Sect OctLoc  Name
    1      0  SYNTAX_ERR                         1      2  DMCL_P
PL6.E3A0      #001=ZIG$M_PDRI File=ZIG$M_PDRI.:ZIC0TSI                           FRI 09/05/97 12:08 Page:9

  ****  Entry refs  ****

         Check        Calling
        calling       sequence
Altret sequence SRef   type   Args  Name
         yes           Std       1 ZIG$M_PSET
         yes           Std       0 ZIG$M_READ
 yes     yes           Std       1 X$PARSE
         yes           Std       1 ZIG$DDER
         yes           Std       0 ABORT
                       nStd      0 X66_AUTO_0
                       nStd      0 X66_ARET

  ****  Data refs  ****

  Flags:  r = read only, s = secondary
Flgs Name                             Flgs Name                             Flgs Name
     LAST_COUNT                            FOUND_PER                             DMCL_S
     OTHER_DMCL

  ****  Segment refs  ****

  Flags:  r = read only, s = secondary
Flgs Name                             Flgs Name                             Flgs Name
     ISSID                                 NULLSID
PL6.E3A0      #001=ZIG$M_PDRI File=ZIG$M_PDRI.:ZIC0TSI                           FRI 09/05/97 12:08 Page:10


        1        1        /*M*     ZIG$M_PDRI      I-D-S/II       DBACS DIRECTIVE PARSER. */
        2        2        /*T***********************************************************/
        3        3        /*T*                                                         */
        4        4        /*T* Copyright (c) Bull HN Information Systems Inc., 1997    */
        5        5        /*T*                                                         */
        6        6        /*T***********************************************************/
        7        7        /*P*
        8        8        NAME:    ZIG$M_PDRI           ZIG$DDS1
        9        9        PURPOSE:	TO CHECK THE SYNTAX FOR DMCL AND CHANGE THE SCHEMA
       10       10        		FILE TO SHOW THESE CHANGES.
       11       11        */
       12       12        ZIG$M_PDRI:
       13       13            PROC ;

     13 13 000000   000000 700200 xent  ZIG$M_PDRI   TSX0  ! X66_AUTO_0
        13 000001   010106 000000                    ZERO    4166,0

       14       14    1   DCL QUIT BIT (1) EXT;
       15       15    1   DCL SYNTAX_ERR BIT (72) STATIC SYMDEF;
       16       16    1   DCL LIST_STRING CHAR (128) EXT;
       17       17    1   DCL DBASE2(0:4159) UBIN (36) AUTO;
       18       18    1   DCL ONLINE BIT (1) EXT;
       19       19    1   DCL LAST_COUNT UBIN (36) SYMREF;
       20       20    1   DCL NUM_CHAR_READ UBIN (36) EXT;
       21       21    1   DCL X$PARSE ENTRY(1) ALTRET;
       22       22    1   DCL ZIG$M_PSET ENTRY(1);
       23       23    1   DCL END_DMCL BIT (1) EXT;
       24       24    1   DCL ZIG$M_READ ENTRY;
       25       25    1   DCL REC CHAR (80) EXT;
       26       26    1   DCL FOUND_PER BIT(1) SYMREF;
       27       27    1   DCL DMCL_S UBIN (36) SYMREF;
       28       28    1   DCL OTHER_DMCL UBIN (36) SYMREF;
       29       29    1   DCL NU_ERROR UBIN (36) EXT;
       30       30    1   DCL ERROR ENTRY (1);
       31       31    1   DCL COMPRD ENTRY;
       32       32    1   DCL ABORT ENTRY;
PL6.E3A0      #001=ZIG$M_PDRI File=ZIG$M_PDRI.:ZIC0TSI                           FRI 09/05/97 12:08 Page:11
       33       33    1   DCL LINE CHAR (4000) EXT;
       34       34    1   DCL EOFFLG UBIN (36) EXT;
       35       35    1   DCL NCS UBIN (36) EXT;
       36       36        /*       If we didn't use this record then don't read another */
       37       37    1   DCL LIST ENTRY (1);
       38       38    1   DCL ZIG$DDER ENTRY (1); /* Put out error */
       39       39    1   DCL LINE_COUNT UBIN (36) EXT;
       40       40         %EJECT;
PL6.E3A0      #001=ZIG$M_PDRI File=ZIG$M_PDRI.:ZIC0TSI                           FRI 09/05/97 12:08 Page:12
       41       41         %INCLUDE XU_MACRO_C;
       42     3147         %INCLUDE ZI_ERRORS_SUBS;
       43     3667         %P_PCB(NAME = DMCL_P,T = LINE,
       44     3668         WSZ=2048, U$ = ZIG$M_PSET,STCLASS =
       45     3669         "STATIC SYMDEF",C_LD='/*',C_TL='*/');
       46     3868         %PARSE$OUT(NAME=BLK,
       47     3869         STCLASS = BASED);
       48     3914         %PARSE$SYM(NAME=SYM,
       49     3915         STCLASS = BASED);
       50     3953         %PLIST;
       51     3954         %EJECT;
PL6.E3A0      #001=ZIG$M_PDRI File=ZIG$M_PDRI.:ZIC0TSI                           FRI 09/05/97 12:08 Page:13
       52     3955        /*******
       53     3956            Here starts the program.
       54     3957        *******/
       55     3958    1       LAST_COUNT=0;

   3958 13 000002   000000 450000 xsym               STZ     LAST_COUNT

       56     3959    1       DMCL_P.WORK$=ADDR(DBASE2);

   3959 13 000003   200003 630500                    EPPR0   DBASE2,,AUTO
        13 000004   000004 450400 1                  STP0    DMCL_P+2

       57     3960    1       REMEMBER SYNTAX_ERROR IN SYNTAX_ERR;

   3960 13 000005   000067 635000 13                 EAA     SYNTAX_ERROR
        13 000006   000000 452400 1                  STP2    SYNTAX_ERR
        13 000007   000001 755000 1                  STA     SYNTAX_ERR+1

       58     3961    1       LINE_COUNT=1;

   3961 13 000010   000001 236007                    LDQ     1,DL
        13 000011   000000 756000 11                 STQ     LINE_COUNT

       59     3962    1       END_DMCL ='0'B;

   3962 13 000012   000000 450000 5                  STZ     END_DMCL

       60     3963    1       DMCL_P.ROOT$= ADDR(DMCL_S);

   3963 13 000013   000000 236000 14                 LDQ     0
        13 000014   000003 756000 1                  STQ     DMCL_P+1

       61     3964    2       DO WHILE (~END_DMCL);

   3964 13 000015   000030 710000 13                 TRA     s:3969

       62     3965    2           CALL ZIG$M_READ;
PL6.E3A0      #001=ZIG$M_PDRI File=ZIG$M_PDRI.:ZIC0TSI                           FRI 09/05/97 12:08 Page:14

   3965 13 000016   000001 631400 14                 EPPR1   1
        13 000017   000000 701000 xent               TSX1    ZIG$M_READ
        13 000020   000000 011000                    NOP     0

       63     3966    2   START_PARSE: CALL X$PARSE(DMCL_P) ALTRET(PARSE_ERROR);/* Call syntax parser */

   3966 13 000021   000003 630400 14    START_PARSE  EPPR0   3
        13 000022   000002 631400 14                 EPPR1   2
        13 000023   000000 701000 xent               TSX1    X$PARSE
        13 000024   000035 702000 13                 TSX2    PARSE_ERROR

       64     3967    2   NEXT_PARSE: DMCL_P.ROOT$= ADDR(OTHER_DMCL);

   3967 13 000025   000004 236000 14    NEXT_PARSE   LDQ     4
        13 000026   000003 756000 1                  STQ     DMCL_P+1

       65     3968    2           DMCL_P.NCHARS=0;

   3968 13 000027   000013 450000 1                  STZ     DMCL_P+9

       66     3969    2           END;

   3969 13 000030   000000 236000 5                  LDQ     END_DMCL
        13 000031   400000 376003                    ANQ     -131072,DU
        13 000032   400000 676003                    ERQ     -131072,DU
        13 000033   000016 601000 13                 TNZ     s:3965

       67     3970    1       RETURN;

   3970 13 000034   000000 702200 xent               TSX2  ! X66_ARET

       68     3971        /*
       69     3972            Handle the internal parsing errors.
       70     3973        */
       71     3974    1   PARSE_ERROR:
       72     3975    1       QUIT = '0'B;
PL6.E3A0      #001=ZIG$M_PDRI File=ZIG$M_PDRI.:ZIC0TSI                           FRI 09/05/97 12:08 Page:15

   3975 13 000035   000000 450000 0     PARSE_ERROR  STZ     QUIT

       73     3976    2       DO CASE (DMCL_P.ERROR.CODE);

   3976 13 000036   000010 236000 1                  LDQ     DMCL_P+6
        13 000037   000003 772000                    QRL     3
        13 000040   037777 376007                    ANQ     16383,DL
        13 000041   000007 116007                    CMPQ    7,DL
        13 000042   000044 602006 13                 TNC     s:3976+6,QL
        13 000043   000060 710000 13                 TRA     s:3981
        13 000044   000060 710000 13                 TRA     s:3981
        13 000045   000053 710000 13                 TRA     s:3979
        13 000046   000053 710000 13                 TRA     s:3979
        13 000047   000053 710000 13                 TRA     s:3979
        13 000050   000053 710000 13                 TRA     s:3979
        13 000051   000053 710000 13                 TRA     s:3979
        13 000052   000053 710000 13                 TRA     s:3979

       74     3977    2       CASE (E$SYNERR,E$NULLROOT,E$BADNODE,E$WKOVERFLOW,

       75     3978    2          E$SMALLWORK,E$NULLU$$);
       76     3979    2           CALL ZIG$DDER (DMCL_P.ERROR.CODE);/* Put out error */

   3979 13 000053   000005 630400 14                 EPPR0   5
        13 000054   000002 631400 14                 EPPR1   2
        13 000055   000000 701000 xent               TSX1    ZIG$DDER
        13 000056   000000 011000                    NOP     0
        13 000057   000064 710000 13                 TRA     s:3983

       77     3980    2       CASE (ELSE);

       78     3981    2           CALL ZIG$DDER (E$UNKN_ERR); /* Put out error */

   3981 13 000060   000007 630400 14                 EPPR0   7
        13 000061   000002 631400 14                 EPPR1   2
        13 000062   000000 701000 xent               TSX1    ZIG$DDER
PL6.E3A0      #001=ZIG$M_PDRI File=ZIG$M_PDRI.:ZIC0TSI                           FRI 09/05/97 12:08 Page:16
        13 000063   000000 011000                    NOP     0

       79     3982    2           END;

       80     3983    1       CALL ABORT;

   3983 13 000064   000001 631400 14                 EPPR1   1
        13 000065   000000 701000 xent               TSX1    ABORT
        13 000066   000000 011000                    NOP     0

       81     3984        /*                                                        */
       82     3985        /*       ERROR:    ZIG-E$SYNERR-C
       83     3986                 MESSAGE:  Syntax error.
       84     3987        */
       85     3988        /*       ERROR:    ZIG-E$NULLROOT-C
       86     3989                 MESSAGE:  Missing tree.
       87     3990        */
       88     3991        /*       ERROR:    ZIG-E$BADNODE-C
       89     3992                 MESSAGE:  Illegal node.
       90     3993        */
       91     3994        /*       ERROR:    ZIG-E$WKOVERFLOW-C
       92     3995                 MESSAGE:  Workspace overflow.
       93     3996        */
       94     3997        /*       ERROR:    ZIG-E$SMALLWORK-C
       95     3998                 MESSAGE:  Insufficient work area.
       96     3999        */
       97     4000        /*       ERROR:    ZIG-E$NULLU$$-C
       98     4001                 MESSAGE:  Missing U$$ routine.
       99     4002        */
      100     4003        /*       ERROR:    ZIG-E$UNKN_ERR-C
      101     4004                 MESSAGE:  Unknown error from X$PARSE.
      102     4005        */
      103     4006         %EJECT;
PL6.E3A0      #001=ZIG$M_PDRI File=ZIG$M_PDRI.:ZIC0TSI                           FRI 09/05/97 12:08 Page:17
      104     4007        /*******
      105     4008                 The directive had a syntax error so
      106     4009                 if the user is online then let him retype the last
      107     4010                 line and restart the syntax checking else return to exec.
      108     4011        ******/
      109     4012    1   SYNTAX_ERROR:
      110     4013    1       IF ONLINE & EOFFLG = 0

   4013 13 000067   400000 220003       SYNTAX_ERROR LDX0    -131072,DU
        13 000070   000000 235000 9                  LDA     EOFFLG
        13 000071   000073 600000 13                 TZE     SYNTAX_ERROR+4
        13 000072   000000 220003                    LDX0    0,DU
        13 000073   000000 236000 3                  LDQ     ONLINE
        13 000074   400000 376003                    ANQ     -131072,DU
        13 000075   210104 756100                    STQ     DBASE2+4161,,AUTO
        13 000076   000000 636010                    EAQ     0,X0
        13 000077   210104 376100                    ANQ     DBASE2+4161,,AUTO
        13 000100   000116 600000 13                 TZE     s:4022

      111     4014    2       THEN DO;

      112     4015    2           CALL ZIG$M_READ;

   4015 13 000101   000001 631400 14                 EPPR1   1
        13 000102   000000 701000 xent               TSX1    ZIG$M_READ
        13 000103   000000 011000                    NOP     0

      113     4016    2           IF SUBSTR(REC,0,2)='Q ' OR SUBSTR(REC,0,5)='QUIT '

   4016 13 000104   000000 220000 6                  LDX0    REC
        13 000105   000000 100000 12                 CMPX0   0
        13 000106   000113 600000 13                 TZE     s:4018
        13 000107   040000 106400                    CMPC    fill='040'O
        13 000110   000000 000005 6                  ADSC9   REC                      cn=0,n=5
        13 000111   000001 000005 12                 ADSC9   1                        cn=0,n=5
        13 000112   000116 601000 13                 TNZ     s:4022

PL6.E3A0      #001=ZIG$M_PDRI File=ZIG$M_PDRI.:ZIC0TSI                           FRI 09/05/97 12:08 Page:18
      114     4017    3           THEN DO ;

      115     4018    3               QUIT='1'B;

   4018 13 000113   400000 236003                    LDQ     -131072,DU
        13 000114   000000 756000 0                  STQ     QUIT

      116     4019    3               RETURN;

   4019 13 000115   000000 702200 xent               TSX2  ! X66_ARET

      117     4020    3               END;
      118     4021    2           END;
      119     4022    1       LAST_COUNT=0;

   4022 13 000116   000000 450000 xsym               STZ     LAST_COUNT

      120     4023    2       DO WHILE (~FOUND_PER AND NCS = 0);

   4023 13 000117   000123 710000 13                 TRA     s:4025

      121     4024    2           CALL ZIG$M_READ;

   4024 13 000120   000001 631400 14                 EPPR1   1
        13 000121   000000 701000 xent               TSX1    ZIG$M_READ
        13 000122   000000 011000                    NOP     0

      122     4025    2           END;

   4025 13 000123   000000 236000 xsym               LDQ     FOUND_PER
        13 000124   400000 376003                    ANQ     -131072,DU
        13 000125   400000 676003                    ERQ     -131072,DU
        13 000126   000131 600000 13                 TZE     s:4026
        13 000127   000000 235000 10                 LDA     NCS
        13 000130   000120 600000 13                 TZE     s:4024

      123     4026    1       GOTO NEXT_PARSE;
PL6.E3A0      #001=ZIG$M_PDRI File=ZIG$M_PDRI.:ZIC0TSI                           FRI 09/05/97 12:08 Page:19

   4026 13 000131   000025 710000 13                 TRA     NEXT_PARSE

DMCL_P
 Sect OctLoc
   1     002   000000 006000   000000 006014   000000 006014   000000 006014    ................
   1     006   000000 000000   004000 600000   000000 000000   057052 052057    ............/**/
   1     012   000000 040000   000000 000000   000000 000000   000000 006014    .. .............
   1     016   000000 006014   000000 000000                                    ........

LIST_STRING
 Sect OctLoc
   2     000   ****** ******   ****** ******   ****** ******   ****** ******    ................

REC
 Sect OctLoc
   6     000   ****** ******   ****** ******   ****** ******   ****** ******    ................

LINE
 Sect OctLoc
   8     000   ****** ******   ****** ******   ****** ******   ****** ******    ................

(unnamed)
 Sect OctLoc
  12     000   121040 040040   121125 111124   040040 040040                    Q   QUIT

(unnamed)
 Sect OctLoc
  14     000   000000 006000   000000 000000   000001 000000   000002 006000    ................
  14     004   000000 006000   000010 416000   000000 023416   000006 006000    ................
      124     4027    1   END ZIG$M_PDRI;

PL6.E3A0      #001=ZIG$M_PDRI File=ZIG$M_PDRI.:ZIC0TSI                           FRI 09/05/97 12:08 Page:20
--  Include file information  --

   ZI_ERRORS_SUBS.:ZIC0TOU  is referenced.
   XU_MACRO_C.:LIB_E05  is referenced.
   B$JIT_C.:E05TOU  was found in the system file and is never referenced.
   CP_6_C.:E05TOU  was found in the system file and is never referenced.
      No diagnostics issued in procedure ZIG$M_PDRI.

   Procedure ZIG$M_PDRI requires 90 words for executable code.
   Procedure ZIG$M_PDRI requires 4166 words of local(AUTO) storage.

    No errors detected in file ZIG$M_PDRI.:ZIC0TSI    .
PL6.E3A0      #001=ZIG$M_PDRI File=ZIG$M_PDRI.:ZIC0TSI                           FRI 09/05/97 12:08 Page:21
          *** CROSS REFERENCE LISTING ***
**     DENOTES     IDENTIFIER DEFINITION
<<                 IDENTIFIER'S VALUE SET
>>                 IDENTIFIER'S VALUE USED
<>                 IDENTIFIER SET AND/OR USED
--                 IDENTIFIER REFERENCED
PL6.E3A0      #001=ZIG$M_PDRI File=ZIG$M_PDRI.:ZIC0TSI                           FRI 09/05/97 12:08 Page:22
          MINI XREF LISTING

ABORT
        32**DCL-ENT  3983--CALL
DBASE2
        17**DCL      3959--ASSIGN
DMCL_P
      3687**DCL      3966<>CALL
DMCL_P.ERROR.CODE
      3799**DCL      3976>>DOCASE   3979<>CALL
DMCL_P.NCHARS
      3834**DCL      3968<<ASSIGN
DMCL_P.ROOT$
      3692**DCL      3963<<ASSIGN   3967<<ASSIGN
DMCL_P.WORK$
      3696**DCL      3959<<ASSIGN
DMCL_S
        27**DCL      3963--ASSIGN
END_DMCL
        23**DCL      3962<<ASSIGN   3964>>DOWHILE
EOFFLG
        34**DCL      4013>>IF
FOUND_PER
        26**DCL      4023>>DOWHILE
LAST_COUNT
        19**DCL      3958<<ASSIGN   4022<<ASSIGN
LINE
        33**DCL      3688--DCLINIT
LINE_COUNT
        39**DCL      3961<<ASSIGN
NCS
        35**DCL      4023>>DOWHILE
NEXT_PARSE
      3967**LABEL    4026--GOTO
PL6.E3A0      #001=ZIG$M_PDRI File=ZIG$M_PDRI.:ZIC0TSI                           FRI 09/05/97 12:08 Page:23
ONLINE
        18**DCL      4013>>IF
OTHER_DMCL
        28**DCL      3967--ASSIGN
PARSE_ERROR
      3975**LABEL    3966--CALLALT
QUIT
        14**DCL      3975<<ASSIGN   4018<<ASSIGN
REC
        25**DCL      4016>>IF       4016>>IF
SYM.COUNT
      3945**DCL      3948--IMP-SIZ
SYNTAX_ERR
        15**DCL      3960<<REMEMBR
SYNTAX_ERROR
      4013**LABEL    3960--REMEMBR
X$PARSE
        21**DCL-ENT  3966--CALL
ZIG$DDER
        38**DCL-ENT  3979--CALL     3981--CALL
ZIG$M_PSET
        22**DCL-ENT  3705--DCLINIT
ZIG$M_READ
        24**DCL-ENT  3965--CALL     4015--CALL     4024--CALL
