
PL6.E3A0      #001=ZIG$SS_PIC File=ZIG$SS_PIC.:ZIC0TSI                           FRI 09/05/97 12:14 Page:1
        1        1        /*M* ZIG$SS_PIC       I-D-S/II            DBACS    */
        2        2        /*T***********************************************************/
        3        3        /*T*                                                         */
        4        4        /*T* Copyright (c) Bull HN Information Systems Inc., 1997    */
        5        5        /*T*                                                         */
        6        6        /*T***********************************************************/
        7        7        ZIG$SS_PIC:
        8        8            PROC (LENGTH,PIC_STRING);
        9        9    1   DCL LENGTH UBIN (36);
       10       10    1   DCL PIC_STRING CHAR (30);
       11       11    1   DCL PIC_ARRAY (0:29) REDEF PIC_STRING UBIN (9) UNAL;
       12       12         /* This routine processes picture char strings input
       13       13            from the minpral file. It determines the legality
       14       14            of picture chars, calculates length, places
       15       15            left/right, and sets appropriate indicators
       16       16            in the property vector */
       17       17        %INCLUDE ZI_ERRORS_SUBS;
       18      537        %INCLUDE ZI_SUB_LANG;
       19     2252        %DESC_TYPE_9;
       20     2429    1   DCL BITSS (0:35) BIT (1) BASED UNAL;
       21     2430    1   DCL 1 BITS BASED UNAL,
       22     2431    1         2 BITS0_31 BIT (32) UNAL,
       23     2432    1         2 BIT32_36 BIT (4) UNAL;
       24     2433    1   DCL SET_FIELDS ENTRY (3);
       25     2434    1   DCL ERROR ENTRY (1);
       26     2435    1   DCL TRANSLTBLE (0:257) UBIN (9) EXT INIT (50*258) UNAL;
       27     2436    1   DCL NUM_VAL UBIN (36);
       28     2437    1   DCL LHOLD UBIN (36) EXT;
       29     2438    1   DCL RTDP_HOLD UBIN (36) EXT;
       30     2439    1   DCL LTDP_HOLD UBIN (36) EXT;
       31     2440    1   DCL UWA_ALLOC UBIN (36) EXT;
       32     2441    1   DCL TRUE BIT(1) EXT INIT('1'B);
       33     2442    1   DCL FALSE BIT(1) EXT INIT('0'B);
       34     2443    1   DCL INFTBLE(0:16) BIT(9) STATIC INIT( '0'B*9,
       35     2444    1   '000100000'B, /*V*/
       36     2445    1   '110000000'B, /*P*/
       37     2446    1   '110000000'B, /*V/p*/
PL6.E3A0      #001=ZIG$SS_PIC File=ZIG$SS_PIC.:ZIC0TSI                           FRI 09/05/97 12:14 Page:2
       38     2447    1   '000000000'B, /*S*/
       39     2448    1   '100011000'B, /* X */
       40     2449    1   '100011000'B, /*A*/
       41     2450    1   '100011000'B, /*9*/
       42     2451    1   '000000000'B); /*Stopper*/
       43     2452    1   DCL CONMAT(0:16) BIT(9) STATIC INIT( '0'B*9,
       44     2453    1   '001000110'B, /*V*/
       45     2454    1   '110000010'B, /*P*/
       46     2455    1    '001000100'B,
       47     2456    1   '101000100'B, /*S*/
       48     2457    1   '000011110'B, /* X */
       49     2458    1   '000011110'B, /*A*/
       50     2459    1   '110011110'B, /*9*/
       51     2460    1   '000000000'B); /*Stopper*/
       52     2461    1   DCL REPNO UBIN (36);
       53     2462    1   DCL PROPVEC BIT(8) STATIC;
       54     2463    1   DCL PROPVEC_AR (0:7) REDEF PROPVEC BIT (1) UNAL;
       55     2464    1   DCL ARRPTR UBIN (36);
       56     2465    1   DCL COUNTER1 UBIN (36);
       57     2466    1   DCL I UBIN (36);
       58     2467    1   DCL T UBIN (36);
       59     2468    1   DCL K UBIN (36);
       60     2469    1   DCL IMAGE (0:29) UBIN (36);
       61     2470    1   DCL ARP_P UBIN (36);
       62     2471    1   DCL ARP_C UBIN (36);
       63     2472    1   DCL NUMSTR CHAR(12);
       64     2473    1   DCL JJ UBIN (36);
       65     2474    1       PROPVEC = '00000000'B;
       66     2475    1       IF LENGTH > 30
       67     2476    2       THEN DO;
       68     2477    2           CALL ERROR(#PIC_TO_LONG);
       69     2478        /*E*     ERROR:    ZIG-#PIC_TO_LONG-C
       70     2479        MESSAGE: The picture clause %U1 is longer than 30 character.
       71     2480        */
       72     2481    2           RETURN;
       73     2482    2           END;
       74     2483    1       RTDP_HOLD = 0; /*Places right*/
PL6.E3A0      #001=ZIG$SS_PIC File=ZIG$SS_PIC.:ZIC0TSI                           FRI 09/05/97 12:14 Page:3
       75     2484    1       LTDP_HOLD = 0; /*Places left*/
       76     2485    1       LHOLD = 0; /*Length*/
       77     2486    1       ARP_P = 0;
       78     2487    1       I=0;
       79     2488    2       DO WHILE(I<LENGTH);
       80     2489    2           I = I+1; /*Corr trans tab chars*/
       81     2490    2           IMAGE(I)= TRANSLTBLE(PIC_ARRAY(I-1));
       82     2491    2           END;
       83     2492    1       IMAGE(I+1) = 0;
       84     2493    1       I = 0;
       85     2494    2       DO WHILE (I<LENGTH);
       86     2495    2           I=I+1;
       87     2496    2           ARRPTR = IMAGE(I);
       88     2497    2           IF ARRPTR > 16 OR ARRPTR < 9 /*Ill pic chars*/
       89     2498    3           THEN DO;
       90     2499    3               CALL ERROR(#PIC_BAD_CHAR);
       91     2500        /*E*     ERROR:    ZIG-#PIC_BAD_CHAR-C
       92     2501        MESSAGE: In the PICTURE clause %U1, a bad character was given.
       93     2502        */
       94     2503    3               RETURN;
       95     2504    3               END;
       96     2505    2           COUNTER1 = 1;
       97     2506    2           T = I;
       98     2507    2           IF ADDR(INFTBLE(ARRPTR))->BITSS(0)='0'B THEN GOTO PIC4; /*V,s*/
       99     2508    2   PIC1: /*P,A,X,9 */
      100     2509    2           I = I+1;
      101     2510    2           IF IMAGE(I) = 40 /* '(' */ THEN GOTO ANEXT;
      102     2511    2           IF IMAGE(I) = IMAGE(I-1) THEN
      103     2512    3           DO; /*Repitition*/
      104     2513    3               COUNTER1 = COUNTER1+1;
      105     2514    3               GOTO PIC1;
      106     2515    3               END;
      107     2516    2           I = I-1; /*Last of series*/
      108     2517    2           GOTO PIC3;
      109     2518    2   ANEXT:
      110     2519    2           I = I+1;
      111     2520    2           IF ADDR(IMAGE(I))-> BITS.BIT32_36 ~= '1111'B
PL6.E3A0      #001=ZIG$SS_PIC File=ZIG$SS_PIC.:ZIC0TSI                           FRI 09/05/97 12:14 Page:4
      112     2521    3           THEN DO; /* Non numeric following '(' */
      113     2522    3               CALL ERROR(#PIC_NO_NUMBER);
      114     2523        /*E*     ERROR:    ZIG-#PIC_NO_NUMBER-C
      115     2524        MESSAGE: In the picture clause %U1 a '(' was not followed by
      116     2525                 a numeric value.
      117     2526        */
      118     2527    3               RETURN;
      119     2528    3               END;
      120     2529    2           REPNO = 1; /*# of digits following ( */
      121     2530    2           K = I;
      122     2531    2   NEXT1:
      123     2532    2           I = I+1;
      124     2533    2           IF ADDR(IMAGE(I))-> BITS.BIT32_36 = '1111'B THEN
      125     2534    3           DO; /*More digits*/
      126     2535    3               REPNO = REPNO +1; /*# of digits*/
      127     2536    3               GOTO NEXT1;
      128     2537    3               END;
      129     2538         /*Check for closing paren for repetition*/
      130     2539    2           IF IMAGE(I) ~= 41 /* ')' */
      131     2540    3           THEN DO;
      132     2541    3               CALL ERROR(#PIC_NO_R_PAR);
      133     2542        /*E*     ERROR:    ZIG-#PIC_NO_R_PAR-C
      134     2543        MESSAGE: In the picture clause %U1 a '(' and numeric value
      135     2544                 must be followed by a ')'.
      136     2545        */
      137     2546    3               RETURN;
      138     2547    3               END;
      139     2548    2           CALL CHARBIN(NUM_VAL,SUBSTR(PIC_STRING,K-1,REPNO));
      140     2549    2           COUNTER1 = COUNTER1+NUM_VAL-1;
      141     2550    2   PIC3:
      142     2551    2           IF ADDR(INFTBLE(ARRPTR))->BITSS(1)='0'B THEN GOTO PIC4; /*^p*/
      143     2552    2           DESC_TYPE_9.PIC_HAS_P = '1'B;
      144     2553    2           IF PROPVEC_AR(6) = '0'B THEN /*Previous 9 */
      145     2554    3           DO; /*No prev 9, (VPP99) */
      146     2555    3               RTDP_HOLD = RTDP_HOLD+COUNTER1; /*Places right scaled*/
      147     2556    3               LTDP_HOLD = LTDP_HOLD-COUNTER1; /*Places left negative*/
      148     2557    3               ARRPTR = ARRPTR+1; /*3RD entry in inftbl*/
PL6.E3A0      #001=ZIG$SS_PIC File=ZIG$SS_PIC.:ZIC0TSI                           FRI 09/05/97 12:14 Page:5
      149     2558    3               END;
      150     2559    3           ELSE DO; /*Prev 9, (99PPV)*/
      151     2560    3               LTDP_HOLD = LTDP_HOLD+COUNTER1; /*Places left scaled*/
      152     2561    3               RTDP_HOLD = RTDP_HOLD-COUNTER1; /*Places right negative*/
      153     2562    3               END;
      154     2563    2   PIC4:
      155     2564    2           ARP_C = ARRPTR-8;
      156     2565    2           IF ARP_P ~= 0 THEN /*If not 1ST, check precedence*/
      157     2566    2               IF ADDR(CONMAT(ARP_P))->BITSS(ARP_C-1)='0'B
      158     2567    3               THEN DO;
      159     2568    3                   CALL ERROR(#PIC_PRECEDENCE);
      160     2569        /*E*     ERROR:    ZIG-#PIC_PRECEDENCE-C
      161     2570        MESSAGE: The precedences of the picture clause %U1 is incorrect.
      162     2571        */
      163     2572    3                   RETURN;
      164     2573    3                   END;
      165     2574    2           ARP_P = ARRPTR; /*Save current pic char*/
      166     2575    2           IF ~(ADDR(INFTBLE(ARRPTR))->BITSS(4)) THEN GOTO PIC8; /*V,s*/
      167     2576    2           LHOLD = LHOLD+COUNTER1; /*Length X,A,9 */
      168     2577    2           IF PROPVEC_AR(0) OR PROPVEC_AR(2) THEN
      169     2578    3           DO;
      170     2579         /* A 'V' or leading 'P' has previously been found */
      171     2580    3               RTDP_HOLD = RTDP_HOLD+COUNTER1; /*Places right*/
      172     2581    3               GOTO PIC8;
      173     2582    3               END;
      174     2583    2           LTDP_HOLD= LTDP_HOLD+COUNTER1; /*Places left*/
      175     2584    2   PIC8: /*Set pic char indicator*/
      176     2585    2           PROPVEC_AR(ARP_C-1) ='1'B;
      177     2586    2           IF ARRPTR = 12 THEN DESC_TYPE_9.PIC_HAS_S = '1'B; /*S*/
      178     2587    2           END;
      179     2588    1       IF ~PROPVEC_AR(4) AND ~PROPVEC_AR(5) AND PROPVEC_AR(6)
      180     2589    1       THEN DESC_TYPE_9.NUMERIC = '1'B;
      181     2590    1       ELSE /*All a's, - alphabetic*/
      182     2591    1           IF ~PROPVEC_AR(4) AND PROPVEC_AR(5) AND ~PROPVEC_AR(6)
      183     2592    1           THEN DESC_TYPE_9.ALPHABETIC = '1'B;
      184     2593    1           ELSE DESC_TYPE_9.ALPHANUM = '1'B;
      185     2594    1   END ZIG$SS_PIC;
PL6.E3A0      #001=ZIG$SS_PIC File=ZIG$SS_PIC.:ZIC0TSI                           FRI 09/05/97 12:14 Page:6

PL6.E3A0      #001=ZIG$SS_PIC File=ZIG$SS_PIC.:ZIC0TSI                           FRI 09/05/97 12:14 Page:7
--  Include file information  --

   ZI_SUB_LANG.:ZIC0TOU  is referenced.
   ZI_ERRORS_SUBS.:ZIC0TOU  is referenced.
   B$JIT_C.:E05TOU  was found in the system file and is never referenced.
   CP_6_C.:E05TOU  was found in the system file and is never referenced.
      No diagnostics issued in procedure ZIG$SS_PIC.

   Procedure ZIG$SS_PIC requires 249 words for executable code.
   Procedure ZIG$SS_PIC requires 50 words of local(AUTO) storage.

    No errors detected in file ZIG$SS_PIC.:ZIC0TSI    .

PL6.E3A0      #001=ZIG$SS_PIC File=ZIG$SS_PIC.:ZIC0TSI                           FRI 09/05/97 12:14 Page:8

 Object Unit name= ZIG$SS_PIC                                 File name= ZIG$SS_PIC.:ZIC0TOU
 UTS= SEP 05 '97 12:14:28.32 FRI                              Compiler= PL-6/E31         Sev=      00
 SharedLib= :SHARED_SYSTEM                                    Alt SharedLib=


    ****  Control sections  ****

 Sect   Type Bound  Init  Size OctSiz  Section name(segment info)
    0  LblCom even  none    32     40  DESC_TYPE_9
    1  LblCom even  none    65    101  TRANSLTBLE
    2  LblCom even  none     1      1  LHOLD
    3  LblCom even  none     1      1  RTDP_HOLD
    4  LblCom even  none     1      1  LTDP_HOLD
    5  LblCom even  none     1      1  UWA_ALLOC
    6  LblCom even  none     1      1  TRUE
    7  LblCom even  none     1      1  FALSE
    8   Data  even  none    11     13  ZIG$SS_PIC
    9   Proc  even  none   249    371  ZIG$SS_PIC
   10  RoData even  none    14     16  ZIG$SS_PIC

    ****  Entry defs  ****

                              Check   Calling
                             calling  sequence
  Sect OctLoc Primary Altret sequence   type   Parms  Name
     9      0   yes            yes      Std        2  ZIG$SS_PIC

  ****  Entry refs  ****

         Check        Calling
        calling       sequence
Altret sequence SRef   type   Args  Name
         yes           Std       1 ERROR
                       nStd      0 X66_AUTO_2
                       nStd      0 X66_ARET
PL6.E3A0      #001=ZIG$SS_PIC File=ZIG$SS_PIC.:ZIC0TSI                           FRI 09/05/97 12:14 Page:9

  ****  Segment refs  ****

  Flags:  r = read only, s = secondary
Flgs Name                             Flgs Name                             Flgs Name
     ISSID
PL6.E3A0      #001=ZIG$SS_PIC File=ZIG$SS_PIC.:ZIC0TSI                           FRI 09/05/97 12:14 Page:10


        1        1        /*M* ZIG$SS_PIC       I-D-S/II            DBACS    */
        2        2        /*T***********************************************************/
        3        3        /*T*                                                         */
        4        4        /*T* Copyright (c) Bull HN Information Systems Inc., 1997    */
        5        5        /*T*                                                         */
        6        6        /*T***********************************************************/
        7        7        ZIG$SS_PIC:
        8        8            PROC (LENGTH,PIC_STRING);

      8  9 000000   000000 700200 xent  ZIG$SS_PIC   TSX0  ! X66_AUTO_2
         9 000001   000062 000002                    ZERO    50,2

        9        9    1   DCL LENGTH UBIN (36);
       10       10    1   DCL PIC_STRING CHAR (30);
       11       11    1   DCL PIC_ARRAY (0:29) REDEF PIC_STRING UBIN (9) UNAL;
       12       12         /* This routine processes picture char strings input
       13       13            from the minpral file. It determines the legality
       14       14            of picture chars, calculates length, places
       15       15            left/right, and sets appropriate indicators
       16       16            in the property vector */
       17       17        %INCLUDE ZI_ERRORS_SUBS;
       18      537        %INCLUDE ZI_SUB_LANG;
       19     2252        %DESC_TYPE_9;
       20     2429    1   DCL BITSS (0:35) BIT (1) BASED UNAL;
       21     2430    1   DCL 1 BITS BASED UNAL,
       22     2431    1         2 BITS0_31 BIT (32) UNAL,
       23     2432    1         2 BIT32_36 BIT (4) UNAL;
       24     2433    1   DCL SET_FIELDS ENTRY (3);
       25     2434    1   DCL ERROR ENTRY (1);
       26     2435    1   DCL TRANSLTBLE (0:257) UBIN (9) EXT INIT (50*258) UNAL;
       27     2436    1   DCL NUM_VAL UBIN (36);
       28     2437    1   DCL LHOLD UBIN (36) EXT;
       29     2438    1   DCL RTDP_HOLD UBIN (36) EXT;
       30     2439    1   DCL LTDP_HOLD UBIN (36) EXT;
       31     2440    1   DCL UWA_ALLOC UBIN (36) EXT;
       32     2441    1   DCL TRUE BIT(1) EXT INIT('1'B);
PL6.E3A0      #001=ZIG$SS_PIC File=ZIG$SS_PIC.:ZIC0TSI                           FRI 09/05/97 12:14 Page:11
       33     2442    1   DCL FALSE BIT(1) EXT INIT('0'B);
       34     2443    1   DCL INFTBLE(0:16) BIT(9) STATIC INIT( '0'B*9,
       35     2444    1   '000100000'B, /*V*/
       36     2445    1   '110000000'B, /*P*/
       37     2446    1   '110000000'B, /*V/p*/
       38     2447    1   '000000000'B, /*S*/
       39     2448    1   '100011000'B, /* X */
       40     2449    1   '100011000'B, /*A*/
       41     2450    1   '100011000'B, /*9*/
       42     2451    1   '000000000'B); /*Stopper*/
       43     2452    1   DCL CONMAT(0:16) BIT(9) STATIC INIT( '0'B*9,
       44     2453    1   '001000110'B, /*V*/
       45     2454    1   '110000010'B, /*P*/
       46     2455    1    '001000100'B,
       47     2456    1   '101000100'B, /*S*/
       48     2457    1   '000011110'B, /* X */
       49     2458    1   '000011110'B, /*A*/
       50     2459    1   '110011110'B, /*9*/
       51     2460    1   '000000000'B); /*Stopper*/
       52     2461    1   DCL REPNO UBIN (36);
       53     2462    1   DCL PROPVEC BIT(8) STATIC;
       54     2463    1   DCL PROPVEC_AR (0:7) REDEF PROPVEC BIT (1) UNAL;
       55     2464    1   DCL ARRPTR UBIN (36);
       56     2465    1   DCL COUNTER1 UBIN (36);
       57     2466    1   DCL I UBIN (36);
       58     2467    1   DCL T UBIN (36);
       59     2468    1   DCL K UBIN (36);
       60     2469    1   DCL IMAGE (0:29) UBIN (36);
       61     2470    1   DCL ARP_P UBIN (36);
       62     2471    1   DCL ARP_C UBIN (36);
       63     2472    1   DCL NUMSTR CHAR(12);
       64     2473    1   DCL JJ UBIN (36);
       65     2474    1       PROPVEC = '00000000'B;

   2474  9 000002   000000 236000 10                 LDQ     0
         9 000003   000012 356000 8                  ANSQ    PROPVEC

PL6.E3A0      #001=ZIG$SS_PIC File=ZIG$SS_PIC.:ZIC0TSI                           FRI 09/05/97 12:14 Page:12
       66     2475    1       IF LENGTH > 30

   2475  9 000004   200003 470500                    LDP0    @LENGTH,,AUTO
         9 000005   000000 235100                    LDA     0,,PR0
         9 000006   000037 115007                    CMPA    31,DL
         9 000007   000015 602000 9                  TNC     s:2483

       67     2476    2       THEN DO;

       68     2477    2           CALL ERROR(#PIC_TO_LONG);

   2477  9 000010   000003 630400 10                 EPPR0   3
         9 000011   000001 631400 10                 EPPR1   1
         9 000012   000000 701000 xent               TSX1    ERROR
         9 000013   000000 011000                    NOP     0

       69     2478        /*E*     ERROR:    ZIG-#PIC_TO_LONG-C
       70     2479        MESSAGE: The picture clause %U1 is longer than 30 character.
       71     2480        */
       72     2481    2           RETURN;

   2481  9 000014   000000 702200 xent               TSX2  ! X66_ARET

       73     2482    2           END;
       74     2483    1       RTDP_HOLD = 0; /*Places right*/

   2483  9 000015   000000 450000 3                  STZ     RTDP_HOLD

       75     2484    1       LTDP_HOLD = 0; /*Places left*/

   2484  9 000016   000000 450000 4                  STZ     LTDP_HOLD

       76     2485    1       LHOLD = 0; /*Length*/

   2485  9 000017   000000 450000 2                  STZ     LHOLD

       77     2486    1       ARP_P = 0;
PL6.E3A0      #001=ZIG$SS_PIC File=ZIG$SS_PIC.:ZIC0TSI                           FRI 09/05/97 12:14 Page:13

   2486  9 000020   200052 450100                    STZ     ARP_P,,AUTO

       78     2487    1       I=0;

   2487  9 000021   200011 450100                    STZ     I,,AUTO

       79     2488    2       DO WHILE(I<LENGTH);

   2488  9 000022   200011 236100                    LDQ     I,,AUTO
         9 000023   000000 116100                    CMPQ    0,,PR0
         9 000024   000045 603000 9                  TRC     s:2492

       80     2489    2           I = I+1; /*Corr trans tab chars*/

   2489  9 000025   200011 235100                    LDA     I,,AUTO
         9 000026   000001 035007                    ADLA    1,DL
         9 000027   200011 755100                    STA     I,,AUTO

       81     2490    2           IMAGE(I)= TRANSLTBLE(PIC_ARRAY(I-1));

   2490  9 000030   200004 470500                    LDP0    @PIC_STRING,,AUTO
         9 000031   000100 101505                    MRL     fill='000'O
         9 000032   077777 600001                    ADSC9   -1,A,PR0                 cn=3,n=1
         9 000033   200060 000004                    ADSC9   JJ+1,,AUTO               cn=0,n=4
         9 000034   200060 236100                    LDQ     JJ+1,,AUTO
         9 000035   000002 735000                    ALS     2
         9 000036   000105 101406                    MRL     fill='000'O
         9 000037   000000 000001 1                  ADSC9   TRANSLTBLE,Q             cn=0,n=1
         9 000040   200014 000004                    ADSC9   IMAGE,A,AUTO             cn=0,n=4

       82     2491    2           END;

   2491  9 000041   200003 471500                    LDP1    @LENGTH,,AUTO
         9 000042   200011 236100                    LDQ     I,,AUTO
         9 000043   100000 116100                    CMPQ    0,,PR1
         9 000044   000025 602000 9                  TNC     s:2489
PL6.E3A0      #001=ZIG$SS_PIC File=ZIG$SS_PIC.:ZIC0TSI                           FRI 09/05/97 12:14 Page:14

       83     2492    1       IMAGE(I+1) = 0;

   2492  9 000045   200015 450106                    STZ     IMAGE+1,QL,AUTO

       84     2493    1       I = 0;

   2493  9 000046   200011 450100                    STZ     I,,AUTO

       85     2494    2       DO WHILE (I<LENGTH);

   2494  9 000047   200003 470500                    LDP0    @LENGTH,,AUTO
         9 000050   200011 236100                    LDQ     I,,AUTO
         9 000051   000000 116100                    CMPQ    0,,PR0
         9 000052   000326 603000 9                  TRC     s:2588

       86     2495    2           I=I+1;

   2495  9 000053   200011 235100                    LDA     I,,AUTO
         9 000054   000001 035007                    ADLA    1,DL
         9 000055   200011 755100                    STA     I,,AUTO

       87     2496    2           ARRPTR = IMAGE(I);

   2496  9 000056   200014 235105                    LDA     IMAGE,AL,AUTO
         9 000057   200007 755100                    STA     ARRPTR,,AUTO

       88     2497    2           IF ARRPTR > 16 OR ARRPTR < 9 /*Ill pic chars*/

   2497  9 000060   000021 115007                    CMPA    17,DL
         9 000061   000064 603000 9                  TRC     s:2499
         9 000062   000011 115007                    CMPA    9,DL
         9 000063   000071 603000 9                  TRC     s:2505

       89     2498    3           THEN DO;

       90     2499    3               CALL ERROR(#PIC_BAD_CHAR);
PL6.E3A0      #001=ZIG$SS_PIC File=ZIG$SS_PIC.:ZIC0TSI                           FRI 09/05/97 12:14 Page:15

   2499  9 000064   000005 630400 10                 EPPR0   5
         9 000065   000001 631400 10                 EPPR1   1
         9 000066   000000 701000 xent               TSX1    ERROR
         9 000067   000000 011000                    NOP     0

       91     2500        /*E*     ERROR:    ZIG-#PIC_BAD_CHAR-C
       92     2501        MESSAGE: In the PICTURE clause %U1, a bad character was given.
       93     2502        */
       94     2503    3               RETURN;

   2503  9 000070   000000 702200 xent               TSX2  ! X66_ARET

       95     2504    3               END;
       96     2505    2           COUNTER1 = 1;

   2505  9 000071   000001 236007                    LDQ     1,DL
         9 000072   200010 756100                    STQ     COUNTER1,,AUTO

       97     2506    2           T = I;

   2506  9 000073   200011 235100                    LDA     I,,AUTO
         9 000074   200012 755100                    STA     T,,AUTO

       98     2507    2           IF ADDR(INFTBLE(ARRPTR))->BITSS(0)='0'B THEN GOTO PIC4; /*V,s*/

   2507  9 000075   200007 236100                    LDQ     ARRPTR,,AUTO
         9 000076   000011 402007                    MPY     9,DL
         9 000077   000000 066406                    CMPB    filb='0'B
         9 000100   000000 000001 8                  BDSC    INFTBLE,Q                by=0,bit=0,n=1
         9 000101   000006 000022 10                 BDSC    6                        by=0,bit=0,n=18
         9 000102   000240 600000 9                  TZE     PIC4

       99     2508    2   PIC1: /*P,A,X,9 */
      100     2509    2           I = I+1;

   2509  9 000103   200011 235100       PIC1         LDA     I,,AUTO
PL6.E3A0      #001=ZIG$SS_PIC File=ZIG$SS_PIC.:ZIC0TSI                           FRI 09/05/97 12:14 Page:16
         9 000104   000001 035007                    ADLA    1,DL
         9 000105   200011 755100                    STA     I,,AUTO

      101     2510    2           IF IMAGE(I) = 40 /* '(' */ THEN GOTO ANEXT;

   2510  9 000106   200014 235105                    LDA     IMAGE,AL,AUTO
         9 000107   000050 115007                    CMPA    40,DL
         9 000110   000125 600000 9                  TZE     ANEXT

      102     2511    2           IF IMAGE(I) = IMAGE(I-1) THEN

   2511  9 000111   200011 720100                    LXL0    I,,AUTO
         9 000112   200014 236110                    LDQ     IMAGE,X0,AUTO
         9 000113   200013 116110                    CMPQ    K,X0,AUTO
         9 000114   000121 601000 9                  TNZ     s:2516

      103     2512    3           DO; /*Repitition*/

      104     2513    3               COUNTER1 = COUNTER1+1;

   2513  9 000115   200010 235100                    LDA     COUNTER1,,AUTO
         9 000116   000001 035007                    ADLA    1,DL
         9 000117   200010 755100                    STA     COUNTER1,,AUTO

      105     2514    3               GOTO PIC1;

   2514  9 000120   000103 710000 9                  TRA     PIC1

      106     2515    3               END;
      107     2516    2           I = I-1; /*Last of series*/

   2516  9 000121   200011 235100                    LDA     I,,AUTO
         9 000122   000001 135007                    SBLA    1,DL
         9 000123   200011 755100                    STA     I,,AUTO

      108     2517    2           GOTO PIC3;

PL6.E3A0      #001=ZIG$SS_PIC File=ZIG$SS_PIC.:ZIC0TSI                           FRI 09/05/97 12:14 Page:17
   2517  9 000124   000205 710000 9                  TRA     PIC3

      109     2518    2   ANEXT:
      110     2519    2           I = I+1;

   2519  9 000125   200011 235100       ANEXT        LDA     I,,AUTO
         9 000126   000001 035007                    ADLA    1,DL
         9 000127   200011 755100                    STA     I,,AUTO

      111     2520    2           IF ADDR(IMAGE(I))-> BITS.BIT32_36 ~= '1111'B

   2520  9 000130   200014 236105                    LDQ     IMAGE,AL,AUTO
         9 000131   000017 376007                    ANQ     15,DL
         9 000132   000017 116007                    CMPQ    15,DL
         9 000133   000141 600000 9                  TZE     s:2529

      112     2521    3           THEN DO; /* Non numeric following '(' */

      113     2522    3               CALL ERROR(#PIC_NO_NUMBER);

   2522  9 000134   000010 630400 10                 EPPR0   8
         9 000135   000001 631400 10                 EPPR1   1
         9 000136   000000 701000 xent               TSX1    ERROR
         9 000137   000000 011000                    NOP     0

      114     2523        /*E*     ERROR:    ZIG-#PIC_NO_NUMBER-C
      115     2524        MESSAGE: In the picture clause %U1 a '(' was not followed by
      116     2525                 a numeric value.
      117     2526        */
      118     2527    3               RETURN;

   2527  9 000140   000000 702200 xent               TSX2  ! X66_ARET

      119     2528    3               END;
      120     2529    2           REPNO = 1; /*# of digits following ( */

   2529  9 000141   000001 235007                    LDA     1,DL
PL6.E3A0      #001=ZIG$SS_PIC File=ZIG$SS_PIC.:ZIC0TSI                           FRI 09/05/97 12:14 Page:18
         9 000142   200006 755100                    STA     REPNO,,AUTO

      121     2530    2           K = I;

   2530  9 000143   200011 236100                    LDQ     I,,AUTO
         9 000144   200013 756100                    STQ     K,,AUTO

      122     2531    2   NEXT1:
      123     2532    2           I = I+1;

   2532  9 000145   200011 235100       NEXT1        LDA     I,,AUTO
         9 000146   000001 035007                    ADLA    1,DL
         9 000147   200011 755100                    STA     I,,AUTO

      124     2533    2           IF ADDR(IMAGE(I))-> BITS.BIT32_36 = '1111'B THEN

   2533  9 000150   200014 236105                    LDQ     IMAGE,AL,AUTO
         9 000151   000017 376007                    ANQ     15,DL
         9 000152   000017 116007                    CMPQ    15,DL
         9 000153   000160 601000 9                  TNZ     s:2539

      125     2534    3           DO; /*More digits*/

      126     2535    3               REPNO = REPNO +1; /*# of digits*/

   2535  9 000154   200006 235100                    LDA     REPNO,,AUTO
         9 000155   000001 035007                    ADLA    1,DL
         9 000156   200006 755100                    STA     REPNO,,AUTO

      127     2536    3               GOTO NEXT1;

   2536  9 000157   000145 710000 9                  TRA     NEXT1

      128     2537    3               END;
      129     2538         /*Check for closing paren for repetition*/
      130     2539    2           IF IMAGE(I) ~= 41 /* ')' */

PL6.E3A0      #001=ZIG$SS_PIC File=ZIG$SS_PIC.:ZIC0TSI                           FRI 09/05/97 12:14 Page:19
   2539  9 000160   200011 720100                    LXL0    I,,AUTO
         9 000161   200014 235110                    LDA     IMAGE,X0,AUTO
         9 000162   000051 115007                    CMPA    41,DL
         9 000163   000171 600000 9                  TZE     s:2548

      131     2540    3           THEN DO;

      132     2541    3               CALL ERROR(#PIC_NO_R_PAR);

   2541  9 000164   000012 630400 10                 EPPR0   10
         9 000165   000001 631400 10                 EPPR1   1
         9 000166   000000 701000 xent               TSX1    ERROR
         9 000167   000000 011000                    NOP     0

      133     2542        /*E*     ERROR:    ZIG-#PIC_NO_R_PAR-C
      134     2543        MESSAGE: In the picture clause %U1 a '(' and numeric value
      135     2544                 must be followed by a ')'.
      136     2545        */
      137     2546    3               RETURN;

   2546  9 000170   000000 702200 xent               TSX2  ! X66_ARET

      138     2547    3               END;
      139     2548    2           CALL CHARBIN(NUM_VAL,SUBSTR(PIC_STRING,K-1,REPNO));

   2548  9 000171   200004 470500                    LDP0    @PIC_STRING,,AUTO
         9 000172   200006 721100                    LXL1    REPNO,,AUTO
         9 000173   200013 236100                    LDQ     K,,AUTO
         9 000174   000100 305546                    DTB
         9 000175   077777 630011                    NDSC9   -1,Q,PR0                 cn=3,s=nosgn,sf=0,n=*X1
         9 000176   200060 000010                    NDSC9   JJ+1,,AUTO               cn=0,s=lsgnf,sf=0,n=8
         9 000177   200061 235100                    LDA     JJ+2,,AUTO
         9 000200   200005 755100                    STA     NUM_VAL,,AUTO

      140     2549    2           COUNTER1 = COUNTER1+NUM_VAL-1;

   2549  9 000201   200010 236100                    LDQ     COUNTER1,,AUTO
PL6.E3A0      #001=ZIG$SS_PIC File=ZIG$SS_PIC.:ZIC0TSI                           FRI 09/05/97 12:14 Page:20
         9 000202   200005 036100                    ADLQ    NUM_VAL,,AUTO
         9 000203   000001 136007                    SBLQ    1,DL
         9 000204   200010 756100                    STQ     COUNTER1,,AUTO

      141     2550    2   PIC3:
      142     2551    2           IF ADDR(INFTBLE(ARRPTR))->BITSS(1)='0'B THEN GOTO PIC4; /*^p*/

   2551  9 000205   200007 236100       PIC3         LDQ     ARRPTR,,AUTO
         9 000206   000011 402007                    MPY     9,DL
         9 000207   000000 066406                    CMPB    filb='0'B
         9 000210   000000 010001 8                  BDSC    INFTBLE,Q                by=0,bit=1,n=1
         9 000211   000006 000022 10                 BDSC    6                        by=0,bit=0,n=18
         9 000212   000240 600000 9                  TZE     PIC4

      143     2552    2           DESC_TYPE_9.PIC_HAS_P = '1'B;

   2552  9 000213   010000 236007                    LDQ     4096,DL
         9 000214   000021 256000 0                  ORSQ    DESC_TYPE_9+17

      144     2553    2           IF PROPVEC_AR(6) = '0'B THEN /*Previous 9 */

   2553  9 000215   000012 236000 8                  LDQ     PROPVEC
         9 000216   004000 316003                    CANQ    2048,DU
         9 000217   000232 601000 9                  TNZ     s:2560

      145     2554    3           DO; /*No prev 9, (VPP99) */

      146     2555    3               RTDP_HOLD = RTDP_HOLD+COUNTER1; /*Places right scaled*/

   2555  9 000220   000000 236000 3                  LDQ     RTDP_HOLD
         9 000221   200010 036100                    ADLQ    COUNTER1,,AUTO
         9 000222   000000 756000 3                  STQ     RTDP_HOLD

      147     2556    3               LTDP_HOLD = LTDP_HOLD-COUNTER1; /*Places left negative*/

   2556  9 000223   000000 236000 4                  LDQ     LTDP_HOLD
         9 000224   200010 136100                    SBLQ    COUNTER1,,AUTO
PL6.E3A0      #001=ZIG$SS_PIC File=ZIG$SS_PIC.:ZIC0TSI                           FRI 09/05/97 12:14 Page:21
         9 000225   000000 756000 4                  STQ     LTDP_HOLD

      148     2557    3               ARRPTR = ARRPTR+1; /*3RD entry in inftbl*/

   2557  9 000226   200007 235100                    LDA     ARRPTR,,AUTO
         9 000227   000001 035007                    ADLA    1,DL
         9 000230   200007 755100                    STA     ARRPTR,,AUTO

      149     2558    3               END;

   2558  9 000231   000240 710000 9                  TRA     PIC4

      150     2559    3           ELSE DO; /*Prev 9, (99PPV)*/

      151     2560    3               LTDP_HOLD = LTDP_HOLD+COUNTER1; /*Places left scaled*/

   2560  9 000232   000000 236000 4                  LDQ     LTDP_HOLD
         9 000233   200010 036100                    ADLQ    COUNTER1,,AUTO
         9 000234   000000 756000 4                  STQ     LTDP_HOLD

      152     2561    3               RTDP_HOLD = RTDP_HOLD-COUNTER1; /*Places right negative*/

   2561  9 000235   000000 236000 3                  LDQ     RTDP_HOLD
         9 000236   200010 136100                    SBLQ    COUNTER1,,AUTO
         9 000237   000000 756000 3                  STQ     RTDP_HOLD

      153     2562    3               END;

      154     2563    2   PIC4:
      155     2564    2           ARP_C = ARRPTR-8;

   2564  9 000240   200007 235100       PIC4         LDA     ARRPTR,,AUTO
         9 000241   000010 135007                    SBLA    8,DL
         9 000242   200053 755100                    STA     ARP_C,,AUTO

      156     2565    2           IF ARP_P ~= 0 THEN /*If not 1ST, check precedence*/

PL6.E3A0      #001=ZIG$SS_PIC File=ZIG$SS_PIC.:ZIC0TSI                           FRI 09/05/97 12:14 Page:22
   2565  9 000243   200052 236100                    LDQ     ARP_P,,AUTO
         9 000244   000260 600000 9                  TZE     s:2574

      157     2566    2               IF ADDR(CONMAT(ARP_P))->BITSS(ARP_C-1)='0'B

   2566  9 000245   000011 402007                    MPY     9,DL
         9 000246   200053 036100                    ADLQ    ARP_C,,AUTO
         9 000247   000000 066406                    CMPB    filb='0'B
         9 000250   000004 700001 8                  BDSC    INFTBLE+4,Q              by=3,bit=8,n=1
         9 000251   000006 000022 10                 BDSC    6                        by=0,bit=0,n=18
         9 000252   000260 601000 9                  TNZ     s:2574

      158     2567    3               THEN DO;

      159     2568    3                   CALL ERROR(#PIC_PRECEDENCE);

   2568  9 000253   000014 630400 10                 EPPR0   12
         9 000254   000001 631400 10                 EPPR1   1
         9 000255   000000 701000 xent               TSX1    ERROR
         9 000256   000000 011000                    NOP     0

      160     2569        /*E*     ERROR:    ZIG-#PIC_PRECEDENCE-C
      161     2570        MESSAGE: The precedences of the picture clause %U1 is incorrect.
      162     2571        */
      163     2572    3                   RETURN;

   2572  9 000257   000000 702200 xent               TSX2  ! X66_ARET

      164     2573    3                   END;
      165     2574    2           ARP_P = ARRPTR; /*Save current pic char*/

   2574  9 000260   200007 235100                    LDA     ARRPTR,,AUTO
         9 000261   200052 755100                    STA     ARP_P,,AUTO

      166     2575    2           IF ~(ADDR(INFTBLE(ARRPTR))->BITSS(4)) THEN GOTO PIC8; /*V,s*/

   2575  9 000262   200007 236100                    LDQ     ARRPTR,,AUTO
PL6.E3A0      #001=ZIG$SS_PIC File=ZIG$SS_PIC.:ZIC0TSI                           FRI 09/05/97 12:14 Page:23
         9 000263   000011 402007                    MPY     9,DL
         9 000264   003100 060406                    CSL     bolr='003'O
         9 000265   000000 040001 8                  BDSC    INFTBLE,Q                by=0,bit=4,n=1
         9 000266   200060 000044                    BDSC    JJ+1,,AUTO               by=0,bit=0,n=36
         9 000267   200060 236100                    LDQ     JJ+1,,AUTO
         9 000270   400000 676003                    ERQ     -131072,DU
         9 000271   000311 601000 9                  TNZ     PIC8

      167     2576    2           LHOLD = LHOLD+COUNTER1; /*Length X,A,9 */

   2576  9 000272   000000 236000 2                  LDQ     LHOLD
         9 000273   200010 036100                    ADLQ    COUNTER1,,AUTO
         9 000274   000000 756000 2                  STQ     LHOLD

      168     2577    2           IF PROPVEC_AR(0) OR PROPVEC_AR(2) THEN

   2577  9 000275   000012 234000 8                  SZN     PROPVEC
         9 000276   000302 604000 9                  TMI     s:2580
         9 000277   000012 236000 8                  LDQ     PROPVEC
         9 000300   100000 316003                    CANQ    32768,DU
         9 000301   000306 600000 9                  TZE     s:2583

      169     2578    3           DO;

      170     2579         /* A 'V' or leading 'P' has previously been found */
      171     2580    3               RTDP_HOLD = RTDP_HOLD+COUNTER1; /*Places right*/

   2580  9 000302   000000 236000 3                  LDQ     RTDP_HOLD
         9 000303   200010 036100                    ADLQ    COUNTER1,,AUTO
         9 000304   000000 756000 3                  STQ     RTDP_HOLD

      172     2581    3               GOTO PIC8;

   2581  9 000305   000311 710000 9                  TRA     PIC8

      173     2582    3               END;
      174     2583    2           LTDP_HOLD= LTDP_HOLD+COUNTER1; /*Places left*/
PL6.E3A0      #001=ZIG$SS_PIC File=ZIG$SS_PIC.:ZIC0TSI                           FRI 09/05/97 12:14 Page:24

   2583  9 000306   000000 236000 4                  LDQ     LTDP_HOLD
         9 000307   200010 036100                    ADLQ    COUNTER1,,AUTO
         9 000310   000000 756000 4                  STQ     LTDP_HOLD

      175     2584    2   PIC8: /*Set pic char indicator*/
      176     2585    2           PROPVEC_AR(ARP_C-1) ='1'B;

   2585  9 000311   200053 235100       PIC8         LDA     ARP_C,,AUTO
         9 000312   003005 060400                    CSL     bolr='003'O
         9 000313   000015 000001 10                 BDSC    13                       by=0,bit=0,n=1
         9 000314   000011 700001 8                  BDSC    CONMAT+4,A               by=3,bit=8,n=1

      177     2586    2           IF ARRPTR = 12 THEN DESC_TYPE_9.PIC_HAS_S = '1'B; /*S*/

   2586  9 000315   200007 236100                    LDQ     ARRPTR,,AUTO
         9 000316   000014 116007                    CMPQ    12,DL
         9 000317   000322 601000 9                  TNZ     s:2587

   2586  9 000320   002000 236007                    LDQ     1024,DL
         9 000321   000021 256000 0                  ORSQ    DESC_TYPE_9+17

      178     2587    2           END;

   2587  9 000322   200003 470500                    LDP0    @LENGTH,,AUTO
         9 000323   200011 236100                    LDQ     I,,AUTO
         9 000324   000000 116100                    CMPQ    0,,PR0
         9 000325   000053 602000 9                  TNC     s:2495

      179     2588    1       IF ~PROPVEC_AR(4) AND ~PROPVEC_AR(5) AND PROPVEC_AR(6)

   2588  9 000326   000012 236000 8                  LDQ     PROPVEC
         9 000327   000004 736000                    QLS     4
         9 000330   400000 376003                    ANQ     -131072,DU
         9 000331   400000 676003                    ERQ     -131072,DU
         9 000332   000346 600000 9                  TZE     s:2591
         9 000333   000012 236000 8                  LDQ     PROPVEC
PL6.E3A0      #001=ZIG$SS_PIC File=ZIG$SS_PIC.:ZIC0TSI                           FRI 09/05/97 12:14 Page:25
         9 000334   000005 736000                    QLS     5
         9 000335   400000 376003                    ANQ     -131072,DU
         9 000336   400000 676003                    ERQ     -131072,DU
         9 000337   000346 600000 9                  TZE     s:2591
         9 000340   000012 236000 8                  LDQ     PROPVEC
         9 000341   004000 316003                    CANQ    2048,DU
         9 000342   000346 600000 9                  TZE     s:2591

      180     2589    1       THEN DESC_TYPE_9.NUMERIC = '1'B;

   2589  9 000343   000001 236003                    LDQ     1,DU
         9 000344   000021 256000 0                  ORSQ    DESC_TYPE_9+17
         9 000345   000370 710000 9                  TRA     s:2594

      181     2590    1       ELSE /*All a's, - alphabetic*/
      182     2591    1           IF ~PROPVEC_AR(4) AND PROPVEC_AR(5) AND ~PROPVEC_AR(6)

   2591  9 000346   000012 236000 8                  LDQ     PROPVEC
         9 000347   000004 736000                    QLS     4
         9 000350   400000 376003                    ANQ     -131072,DU
         9 000351   400000 676003                    ERQ     -131072,DU
         9 000352   000366 600000 9                  TZE     s:2593
         9 000353   000012 236000 8                  LDQ     PROPVEC
         9 000354   010000 316003                    CANQ    4096,DU
         9 000355   000366 600000 9                  TZE     s:2593
         9 000356   000012 236000 8                  LDQ     PROPVEC
         9 000357   000006 736000                    QLS     6
         9 000360   400000 376003                    ANQ     -131072,DU
         9 000361   400000 676003                    ERQ     -131072,DU
         9 000362   000366 600000 9                  TZE     s:2593

      183     2592    1           THEN DESC_TYPE_9.ALPHABETIC = '1'B;

   2592  9 000363   040000 236007                    LDQ     16384,DL
         9 000364   000021 256000 0                  ORSQ    DESC_TYPE_9+17
         9 000365   000370 710000 9                  TRA     s:2594

PL6.E3A0      #001=ZIG$SS_PIC File=ZIG$SS_PIC.:ZIC0TSI                           FRI 09/05/97 12:14 Page:26
      184     2593    1           ELSE DESC_TYPE_9.ALPHANUM = '1'B;

   2593  9 000366   200000 236007                    LDQ     65536,DL
         9 000367   000021 256000 0                  ORSQ    DESC_TYPE_9+17

      185     2594    1   END ZIG$SS_PIC;

   2594  9 000370   000000 702200 xent               TSX2  ! X66_ARET

DESC_TYPE_9
 Sect OctLoc
   0     000   000000 000160   000000 000000   000000 000000   000000 000011    ...p............
   0     004   000000 000000   000000 000000   000000 000000   000000 000000    ................
   0     020*  000000 000000   200000 000000   000000 000000   000000 000000    ................
   0     024   000000 000000   000000 000000   000000 000000   000000 000000    ................
   0     030   040040 040040   040040 040040   040040 040040   040040 040040
   0     034   040040 040040   040040 040040   040040 040040   040040 040040

TRANSLTBLE
 Sect OctLoc
   1     000   062062 062062   062062 062062   062062 062062   062062 062062    2222222222222222
   1     100*  062062 ******                                                    22..

TRUE
 Sect OctLoc
   6     000   4***** ******                                                    ....

FALSE
 Sect OctLoc
   7     000   0***** ******                                                    ....

INFTBLE
 Sect OctLoc
   8     000   000000 000000   000000 000000   000040 600600   000430 430430    ......... ......
   8     004   000*** ******                                                    ....

CONMAT
PL6.E3A0      #001=ZIG$SS_PIC File=ZIG$SS_PIC.:ZIC0TSI                           FRI 09/05/97 12:14 Page:27
 Sect OctLoc
   8     005   000000 000000   000000 000000   000106 602104   504036 036636    .........F.D....
   8     011   000*** ******                                                    ....

(unnamed)
 Sect OctLoc
  10     000   001777 777777   000001 000000   000000 023276   000002 006000    ................
  10     004   000000 023274   000004 006000   000000 000000   000000 023273    ................
  10     010   000007 006000   000000 023272   000011 006000   000000 023275    ................
  10     014   000013 006000   400000 000000                                    ........

PL6.E3A0      #001=ZIG$SS_PIC File=ZIG$SS_PIC.:ZIC0TSI                           FRI 09/05/97 12:14 Page:28
--  Include file information  --

   ZI_SUB_LANG.:ZIC0TOU  is referenced.
   ZI_ERRORS_SUBS.:ZIC0TOU  is referenced.
   B$JIT_C.:E05TOU  was found in the system file and is never referenced.
   CP_6_C.:E05TOU  was found in the system file and is never referenced.
      No diagnostics issued in procedure ZIG$SS_PIC.

   Procedure ZIG$SS_PIC requires 249 words for executable code.
   Procedure ZIG$SS_PIC requires 50 words of local(AUTO) storage.

    No errors detected in file ZIG$SS_PIC.:ZIC0TSI    .
PL6.E3A0      #001=ZIG$SS_PIC File=ZIG$SS_PIC.:ZIC0TSI                           FRI 09/05/97 12:14 Page:29
          *** CROSS REFERENCE LISTING ***
**     DENOTES     IDENTIFIER DEFINITION
<<                 IDENTIFIER'S VALUE SET
>>                 IDENTIFIER'S VALUE USED
<>                 IDENTIFIER SET AND/OR USED
--                 IDENTIFIER REFERENCED
PL6.E3A0      #001=ZIG$SS_PIC File=ZIG$SS_PIC.:ZIC0TSI                           FRI 09/05/97 12:14 Page:30
          MINI XREF LISTING

ANEXT
      2519**LABEL    2510--GOTO
ARP_C
      2471**DCL      2564<<ASSIGN   2566>>IF       2585>>ASSIGN
ARP_P
      2470**DCL      2486<<ASSIGN   2565>>IF       2566>>IF       2574<<ASSIGN
ARRPTR
      2464**DCL      2496<<ASSIGN   2497>>IF       2497>>IF       2507>>IF       2551>>IF       2557<<ASSIGN
      2557>>ASSIGN   2564>>ASSIGN   2574>>ASSIGN   2575>>IF       2586>>IF
BITS.BIT32_36
      2432**DCL      2520>>IF       2533>>IF
BITSS
      2429**DCL      2507>>IF       2551>>IF       2566>>IF       2575>>IF
CONMAT
      2452**DCL      2566--IF
COUNTER1
      2465**DCL      2505<<ASSIGN   2513<<ASSIGN   2513>>ASSIGN   2549<<ASSIGN   2549>>ASSIGN   2555>>ASSIGN
      2556>>ASSIGN   2560>>ASSIGN   2561>>ASSIGN   2576>>ASSIGN   2580>>ASSIGN   2583>>ASSIGN
DESC_TYPE_9.ALPHABETIC
      2395**DCL      2592<<ASSIGN
DESC_TYPE_9.ALPHANUM
      2393**DCL      2593<<ASSIGN
DESC_TYPE_9.NUMERIC
      2391**DCL      2589<<ASSIGN
DESC_TYPE_9.PIC_HAS_P
      2397**DCL      2552<<ASSIGN
DESC_TYPE_9.PIC_HAS_S
      2399**DCL      2586<<ASSIGN
ERROR
      2434**DCL-ENT  2477--CALL     2499--CALL     2522--CALL     2541--CALL     2568--CALL
I
      2466**DCL      2487<<ASSIGN   2488>>DOWHILE  2489<<ASSIGN   2489>>ASSIGN   2490>>ASSIGN   2490>>ASSIGN
PL6.E3A0      #001=ZIG$SS_PIC File=ZIG$SS_PIC.:ZIC0TSI                           FRI 09/05/97 12:14 Page:31
      2492>>ASSIGN   2493<<ASSIGN   2494>>DOWHILE  2495<<ASSIGN   2495>>ASSIGN   2496>>ASSIGN   2506>>ASSIGN
      2509<<ASSIGN   2509>>ASSIGN   2510>>IF       2511>>IF       2511>>IF       2516<<ASSIGN   2516>>ASSIGN
      2519<<ASSIGN   2519>>ASSIGN   2520>>IF       2530>>ASSIGN   2532<<ASSIGN   2532>>ASSIGN   2533>>IF
      2539>>IF
IMAGE
      2469**DCL      2490<<ASSIGN   2492<<ASSIGN   2496>>ASSIGN   2510>>IF       2511>>IF       2511>>IF
      2520--IF       2533--IF       2539>>IF
INFTBLE
      2443**DCL      2507--IF       2551--IF       2575--IF
K
      2468**DCL      2530<<ASSIGN   2548>>CALLBLT
LENGTH
         9**DCL         7--PROC     2475>>IF       2488>>DOWHILE  2494>>DOWHILE
LHOLD
      2437**DCL      2485<<ASSIGN   2576<<ASSIGN   2576>>ASSIGN
LTDP_HOLD
      2439**DCL      2484<<ASSIGN   2556<<ASSIGN   2556>>ASSIGN   2560<<ASSIGN   2560>>ASSIGN   2583<<ASSIGN
      2583>>ASSIGN
NEXT1
      2532**LABEL    2536--GOTO
NUM_VAL
      2436**DCL      2548<<CALLBLT  2549>>ASSIGN
PIC1
      2509**LABEL    2514--GOTO
PIC3
      2551**LABEL    2517--GOTO
PIC4
      2564**LABEL    2507--GOTO     2551--GOTO
PIC8
      2585**LABEL    2575--GOTO     2581--GOTO
PIC_ARRAY
        11**DCL      2490>>ASSIGN
PIC_STRING
        10**DCL         7--PROC       11--REDEF    2548>>CALLBLT
PROPVEC
      2462**DCL      2463--REDEF    2474<<ASSIGN
PL6.E3A0      #001=ZIG$SS_PIC File=ZIG$SS_PIC.:ZIC0TSI                           FRI 09/05/97 12:14 Page:32
PROPVEC_AR
      2463**DCL      2553>>IF       2577>>IF       2577>>IF       2585<<ASSIGN   2588>>IF       2588>>IF
      2588>>IF       2591>>IF       2591>>IF       2591>>IF
REPNO
      2461**DCL      2529<<ASSIGN   2535<<ASSIGN   2535>>ASSIGN   2548>>CALLBLT
RTDP_HOLD
      2438**DCL      2483<<ASSIGN   2555<<ASSIGN   2555>>ASSIGN   2561<<ASSIGN   2561>>ASSIGN   2580<<ASSIGN
      2580>>ASSIGN
T
      2467**DCL      2506<<ASSIGN
TRANSLTBLE
      2435**DCL      2490>>ASSIGN
