
PL6.E3A0      #001=ZIG$SS_READ File=ZIG$SS_READ.:ZIC0TSI                         FRI 09/05/97 12:15 Page:1
        1        1        /*M*     ZIG$SS_READ            I-D-S/II  DBACS DIRECTIVE READER */
        2        2        /*T***********************************************************/
        3        3        /*T*                                                         */
        4        4        /*T* Copyright (c) Bull HN Information Systems Inc., 1997    */
        5        5        /*T*                                                         */
        6        6        /*T***********************************************************/
        7        7        /*P*
        8        8        NAME:    ZIG$SS_READ
        9        9        PURPOSE: TO GET A LINE FOR THE PARSER OF DBACS DIRECTIVES
       10       10                 AND STORE THEM IN A BUFFER
       11       11            CALLING PROGRAMS         SUBROUTINE NAMES
       12       12            ----------------         ----------------
       13       13                 ZIG$SS_PSET               ZIG$M_PSET
       14       14                 ZIG$SS_PDRI               ZIG$M_PDRI
       15       15        */
       16       16        %EJECT;
PL6.E3A0      #001=ZIG$SS_READ File=ZIG$SS_READ.:ZIC0TSI                         FRI 09/05/97 12:15 Page:2
       17       17        /*
       18       18        ZZZZZ  III   GGG    $    SSS   SSS        RRRR  EEEEE  AAA  DDDD
       19       19            Z   I   G   G  $$$  S   S S   S       R   R E     A   A D   D
       20       20           Z    I   G     $ $   S     S           R   R E     A   A D   D
       21       21          Z     I   G      $$$   SSS   SSS        RRRR  EEEE  AAAAA D   D
       22       22         Z      I   G  GG   $ $     S     S       R R   E     A   A D   D
       23       23        Z       I   G   G  $$$  S   S S   S       R  R  E     A   A D   D
       24       24        ZZZZZ  III   GGG    $    SSS   SSS        R   R EEEEE A   A DDDD
       25       25                                            _____
       26       26        */
       27       27        ZIG$SS_READ:
       28       28            PROC ;
       29       29    1   DCL PUT_OUT_LINE ENTRY (2);
       30       30    1   DCL RDWORD BIT (1) EXT;
       31       31    1   DCL ZIG$DDS5 ENTRY;
       32       32    1   DCL REC CHAR (80) EXT;
       33       33    1   DCL REC1 CHAR (80) EXT;
       34       34    1   DCL EOFFLG UBIN (36) EXT;
       35       35    1   DCL LINE_COUNT UBIN (36) EXT;
       36       36    1   DCL SAVESW BIT (1) EXT;
       37       37    1   DCL NUM_CHAR_READ UBIN (36) EXT;
       38       38    1   DCL LINE CHAR (4000) EXT;
       39       39    1   DCL LAST_COUNT UBIN (36) SYMREF;
       40       40    1   DCL LIST_STRING CHAR(128) EXT;
       41       41    1   DCL FOUND_PER BIT (1) SYMREF;
       42       42    1   DCL NCS UBIN (36) EXT;
       43       43    1   DCL BUFFER_ERR BIT(1) EXT;
       44       44    1   DCL I UBIN (36);
       45       45    1   DCL END_SUBSCHEMA BIT (1) EXT;
       46       46    1   DCL DONE BIT (1);
       47       47    1   DCL K UBIN (36);
       48       48    1   DCL L UBIN (36);
       49       49    1   DCL POUNDS CHAR (20) CONSTANT INIT ('####################');
       50       50    1   DCL LAST_STATUS UBIN (6) EXT;
       51       51    1   DCL WRITSF ENTRY (2);
       52       52         %EJECT;
PL6.E3A0      #001=ZIG$SS_READ File=ZIG$SS_READ.:ZIC0TSI                         FRI 09/05/97 12:15 Page:3
       53       53         %INCLUDE ZI_SUB_LANG;
       54     1768         %GENERAL;
       55     1892         %TEXT_LINE;
       56     1929        %INCLUDE ZIG_GENERAL;
       57     2037         %INCLUDE XU_MACRO_C;
       58     5143         %INCLUDE ZI_ERRORS_SUBS;
       59     5663         %P$PCB(NAME=SS_TRAN, STCLASS = "SYMREF");
       60     5864         %EJECT;
PL6.E3A0      #001=ZIG$SS_READ File=ZIG$SS_READ.:ZIC0TSI                         FRI 09/05/97 12:15 Page:4
       61     5865    1   NEXT_REC: PROC;
       62     5866    2       REC1 = ' ';
       63     5867    3       DO WHILE ((REC1 = ' ') OR
       64     5868    3          ((SUBSTR(REC1,7) = ' ' OR
       65     5869    3          SUBSTR(REC1,6,1) = '*') AND SUB_LANGUAGE = #COBOL) OR
       66     5870    3          ((SUBSTR(REC1,6) = ' ' OR SUBSTR(REC1,0,1) = 'C'
       67     5871    3          OR SUBSTR(REC1,0,1) = '*') AND SUB_LANGUAGE = #FORTRAN));
       68     5872    3           CALL ZIG$DDS5; /* Get a record */
       69     5873    3           RDWORD = '1'B;
       70     5874    3           IF NCS=1 THEN RETURN;
       71     5875    3           CALL PUT_OUT_LINE(LINE_COUNT,REC);
       72     5876    3           SAVESW = '0'B;
       73     5877    3           TEXT_LINE.BLOCK_NU = CURRENT_RECORD / 2;
       74     5878    3           TEXT_LINE.LINE_NU = LINE_COUNT;
       75     5879    3           TEXT_LINE.TEXT = REC;
       76     5880    3           CALL WRITSF (CURRENT_RECORD,TEXT_LINE);
       77     5881    3           CURRENT_RECORD = CURRENT_RECORD + 1;
       78     5882    3           LINE_COUNT=LINE_COUNT+1;
       79     5883    3           REC1 = REC;
       80     5884    3           END;
       81     5885        /*********
       82     5886        	scan from back of record to find the first non
       83     5887        	blank CHARACTER.(FIND the end of the record).
       84     5888        **********/
       85     5889    2       CALL SEARCHR(I,K,SEARCHR_NB,REC1);
       86     5890    2       NUM_CHAR_READ = I + 1;
       87     5891    3       DO WHILE ('1'B);
       88     5892    3           CALL INDEX(K,'"',REC1) ALTRET(NO_QUOTE);
       89     5893    3           CALL INSERT(REC1,K,1,'''');
       90     5894    3           CALL INDEX1(L,'"',REC1,K) ALTRET(NO_QUOTE);
       91     5895    3           CALL INSERT(REC1,L,1,'''');
       92     5896    3           IF LAST_STATUS < #AREA_DEF AND SUB_LANGUAGE~=#FORTRAN
       93     5897    3           THEN CALL INSERT(REC,K+1,L-K-1,SUBSTR(POUNDS,0,L-K-1));
       94     5898    3           END;
       95     5899    2   NO_QUOTE:
       96     5900    2       CALL XLATE(REC1,SEM_COM,REC1);
       97     5901    2   END;
PL6.E3A0      #001=ZIG$SS_READ File=ZIG$SS_READ.:ZIC0TSI                         FRI 09/05/97 12:15 Page:5
       98     5902        /*****
       99     5903                 Find then number of characters read in the last
      100     5904                 read done by exread.
      101     5905        ******/
      102     5906    1       CALL NEXT_REC;
      103     5907    1       IF NCS=1
      104     5908    2       THEN DO;
      105     5909    2           RDWORD='0'B;
      106     5910    2           SAVESW='1'B;
      107     5911    2           CALL WARNING(#NO_SUBSCHEMA_END); /* NO END SUBSCHEMA TEXT */
      108     5912    2           END_SUBSCHEMA='1'B;
      109     5913    2           RETURN;
      110     5914    2           END;
      111     5915        /*E*          ERROR:    ZIG-#NO_SUBSCHEMA_END-C
      112     5916        MESSAGE:      No END was found at the end of the subschema text.
      113     5917        */
      114     5918    1       IF SUB_LANGUAGE = #COBOL
      115     5919    2       THEN DO;
      116     5920    2           REC1 = SUBSTR(REC1,7);
      117     5921    2           I = I - 7;
      118     5922    2           END;
      119     5923    1       IF SUB_LANGUAGE = #FORTRAN
      120     5924    2       THEN DO;
      121     5925    2           REC1 = SUBSTR(REC1,6);
      122     5926    2           I = I - 6;
      123     5927    2           END;
      124     5928    1       LAST_COUNT = SS_TRAN.NCHARS;
      125     5929    1       IF I > 80
      126     5930    1       THEN I = 1;
      127     5931    2       IF SS_TRAN.NCHARS+I+1 < 4000 THEN DO;
      128     5932    2           CALL INSERT(LINE,SS_TRAN.NCHARS,I+1,SUBSTR(REC1,0,I+1),'  ');
      129     5933    2           SS_TRAN.NCHARS = SS_TRAN.NCHARS+I+1;
      130     5934    2           END;
      131     5935    1       ELSE
      132     5936    2           IF NOT BUFFER_ERR THEN DO;
      133     5937    2               BUFFER_ERR = '1'B;
      134     5938    2               CALL ERROR(#BUFFER_FULL); /* Buffer is full */
PL6.E3A0      #001=ZIG$SS_READ File=ZIG$SS_READ.:ZIC0TSI                         FRI 09/05/97 12:15 Page:6
      135     5939        /*E*     ERROR:    ZIG-#BUFFER_FULL-C
      136     5940        MESSAGE: The size of the command being processed exceeds the 4000
      137     5941                 character buffer reserved for it.  Reduce the size of the
      138     5942                 command by using ALIASes or by using multiple commands.
      139     5943        */
      140     5944    2               END;
      141     5945        /********
      142     5946        	don't add a ';' if this is the end of the directive.
      143     5947        *********/
      144     5948    1       FOUND_PER = '0'B;
      145     5949    1       CALL INDEX2R(I,'. ',REC,NUM_CHAR_READ+1) ALTRET (NO_PERIOD);
      146     5950    1       IF I > NUM_CHAR_READ - 2
      147     5951    2       THEN DO;
      148     5952    2           FOUND_PER = '1'B;
      149     5953    2           END;
      150     5954    1   NO_PERIOD:
      151     5955    1       IF SUB_LANGUAGE=#FORTRAN AND NOT FOUND_PER
      152     5956    2       THEN DO;
      153     5957    2           CALL ZIG$DDS5;
      154     5958    2           IF (SUBSTR(REC,5,1) = ' ' AND NCS = 0 ) OR
      155     5959    2              (SUBSTR(REC,0,1) = '*' OR SUBSTR(REC,0,1) = 'C')
      156     5960    3           THEN DO;
      157     5961    3               CALL INSERT(LINE,SS_TRAN.NCHARS,3,' . ');
      158     5962    3               END;
      159     5963    3           ELSE DO;
      160     5964    3               CALL INSERT(LINE,SS_TRAN.NCHARS,3,' #;');
      161     5965    3               END;
      162     5966    2           SS_TRAN.NCHARS = SS_TRAN.NCHARS + 3;
      163     5967    2           RDWORD = '0'B;
      164     5968    2           SAVESW = '1'B;
      165     5969    2           RETURN;
      166     5970    2           END;
      167     5971    1       IF NOT FOUND_PER
      168     5972    2       THEN DO;
      169     5973    2           CALL INSERT(LINE,SS_TRAN.NCHARS,3,' #;');
      170     5974    2           SS_TRAN.NCHARS=SS_TRAN.NCHARS + 3;
      171     5975    2           END;
PL6.E3A0      #001=ZIG$SS_READ File=ZIG$SS_READ.:ZIC0TSI                         FRI 09/05/97 12:15 Page:7
      172     5976    1       RETURN;
      173     5977    1   END ZIG$SS_READ;

PL6.E3A0      #001=ZIG$SS_READ File=ZIG$SS_READ.:ZIC0TSI                         FRI 09/05/97 12:15 Page:8
--  Include file information  --

   ZI_ERRORS_SUBS.:ZIC0TOU  is referenced.
   XU_MACRO_C.:LIB_E05  is referenced.
   ZIG_GENERAL.:ZIC0TOU  cannot be made into a system file and is referenced.
   ZI_SUB_LANG.:ZIC0TOU  is referenced.
   B$JIT_C.:E05TOU  was found in the system file and is never referenced.
   CP_6_C.:E05TOU  was found in the system file and is never referenced.
      No diagnostics issued in procedure ZIG$SS_READ.

   Procedure ZIG$SS_READ requires 274 words for executable code.
   Procedure ZIG$SS_READ requires 12 words of local(AUTO) storage.

    No errors detected in file ZIG$SS_READ.:ZIC0TSI    .

PL6.E3A0      #001=ZIG$SS_READ File=ZIG$SS_READ.:ZIC0TSI                         FRI 09/05/97 12:15 Page:9

 Object Unit name= ZIG$SS_READ                                File name= ZIG$SS_READ.:ZIC0TOU
 UTS= SEP 05 '97 12:15:43.36 FRI                              Compiler= PL-6/E31         Sev=      00
 SharedLib= :SHARED_SYSTEM                                    Alt SharedLib=


    ****  Control sections  ****

 Sect   Type Bound  Init  Size OctSiz  Section name(segment info)
    0  LblCom even  none     1      1  RDWORD
    1  LblCom even  none    20     24  REC
    2  LblCom even  none    20     24  REC1
    3  LblCom even  none     1      1  EOFFLG
    4  LblCom even  none     1      1  LINE_COUNT
    5  LblCom even  none     1      1  SAVESW
    6  LblCom even  none     1      1  NUM_CHAR_READ
    7  LblCom even  none  1000   1750  LINE
    8  LblCom even  none    32     40  LIST_STRING
    9  LblCom even  none     1      1  NCS
   10  LblCom even  none     1      1  BUFFER_ERR
   11  LblCom even  none     1      1  END_SUBSCHEMA
   12  RoData even  UTS      9     11  ZIG$SS_READ
   13  LblCom even  none     1      1  LAST_STATUS
   14  LblCom even  none     5      5  LANG_ALLOWED
   15  LblCom even  none     1      1  SUB_LANGUAGE
   16  LblCom even  none    16     20  HEADING_TEXT
   17  LblCom even  none    13     15  LANG_TEXT
   18  LblCom even  none     1      1  HASH_SCHEMA_NAME
   19  LblCom even  none     1      1  CURRENT_RECORD
   20  LblCom even  none    32     40  TEXT_LINE
   21  LblCom even  none     1      1  NUM_ERROR_MSG
   22  LblCom even  none     1      1  NUM_WARN_MSG
   23  LblCom even  none     1      1  ALLOCATE_END
   24  LblCom even  none     2      2  SUBSCHEMA_KEY
   25  LblCom even  none     1      1  BUFFER$
   26  LblCom even  none     1      1  ERROR_IO
   27  LblCom even  none     1      1  BUFFER_LEN
   28  LblCom even  none     2      2  UWA_KEY
PL6.E3A0      #001=ZIG$SS_READ File=ZIG$SS_READ.:ZIC0TSI                         FRI 09/05/97 12:15 Page:10
   29  LblCom even  none     1      1  NEXT_UWA_SECOND_HALF
   30  LblCom even  none     2      2  RVA_KEY
   31  LblCom even  none     2      2  IA__KEY
   32  LblCom even  none     1      1  NEXT_RVA_SECOND_HALF
   33  LblCom even  none    32     40  SEARCHR_NB
   34  LblCom even  none    32     40  SEM_COM
   35  LblCom even  none    32     40  DMCL_XLATE
   36  LblCom even  none    32     40  Q2_PERCENT
   37   Proc  even  none   274    422  ZIG$SS_READ
   38  RoData even  none    14     16  ZIG$SS_READ

    ****  Entry defs  ****

                              Check   Calling
                             calling  sequence
  Sect OctLoc Primary Altret sequence   type   Parms  Name
    37      0   yes            yes      Std        0  ZIG$SS_READ

  ****  Entry refs  ****

         Check        Calling
        calling       sequence
Altret sequence SRef   type   Args  Name
         yes           Std       0 ZIG$DDS5
         yes           Std       1 WARNING
         yes           Std       1 ERROR
         yes           Std       2 PUT_OUT_LINE
         yes           Std       2 WRITSF
                       nStd      0 X66_AUTO_0
                       nStd      0 X66_ARET

  ****  Data refs  ****

  Flags:  r = read only, s = secondary
Flgs Name                             Flgs Name                             Flgs Name
     LAST_COUNT                            FOUND_PER                             SS_TRAN
PL6.E3A0      #001=ZIG$SS_READ File=ZIG$SS_READ.:ZIC0TSI                         FRI 09/05/97 12:15 Page:11

  ****  Segment refs  ****

  Flags:  r = read only, s = secondary
Flgs Name                             Flgs Name                             Flgs Name
     ISSID
PL6.E3A0      #001=ZIG$SS_READ File=ZIG$SS_READ.:ZIC0TSI                         FRI 09/05/97 12:15 Page:12


        1        1        /*M*     ZIG$SS_READ            I-D-S/II  DBACS DIRECTIVE READER */
        2        2        /*T***********************************************************/
        3        3        /*T*                                                         */
        4        4        /*T* Copyright (c) Bull HN Information Systems Inc., 1997    */
        5        5        /*T*                                                         */
        6        6        /*T***********************************************************/
        7        7        /*P*
        8        8        NAME:    ZIG$SS_READ
        9        9        PURPOSE: TO GET A LINE FOR THE PARSER OF DBACS DIRECTIVES
       10       10                 AND STORE THEM IN A BUFFER
       11       11            CALLING PROGRAMS         SUBROUTINE NAMES
       12       12            ----------------         ----------------
       13       13                 ZIG$SS_PSET               ZIG$M_PSET
       14       14                 ZIG$SS_PDRI               ZIG$M_PDRI
       15       15        */
       16       16        %EJECT;
PL6.E3A0      #001=ZIG$SS_READ File=ZIG$SS_READ.:ZIC0TSI                         FRI 09/05/97 12:15 Page:13
       17       17        /*
       18       18        ZZZZZ  III   GGG    $    SSS   SSS        RRRR  EEEEE  AAA  DDDD
       19       19            Z   I   G   G  $$$  S   S S   S       R   R E     A   A D   D
       20       20           Z    I   G     $ $   S     S           R   R E     A   A D   D
       21       21          Z     I   G      $$$   SSS   SSS        RRRR  EEEE  AAAAA D   D
       22       22         Z      I   G  GG   $ $     S     S       R R   E     A   A D   D
       23       23        Z       I   G   G  $$$  S   S S   S       R  R  E     A   A D   D
       24       24        ZZZZZ  III   GGG    $    SSS   SSS        R   R EEEEE A   A DDDD
       25       25                                            _____
       26       26        */
       27       27        ZIG$SS_READ:
       28       28            PROC ;

     28 37 000000   000000 700200 xent  ZIG$SS_READ  TSX0  ! X66_AUTO_0
        37 000001   000014 000000                    ZERO    12,0
        37 000002   000207 710000 37                 TRA     s:5906

       29       29    1   DCL PUT_OUT_LINE ENTRY (2);
       30       30    1   DCL RDWORD BIT (1) EXT;
       31       31    1   DCL ZIG$DDS5 ENTRY;
       32       32    1   DCL REC CHAR (80) EXT;
       33       33    1   DCL REC1 CHAR (80) EXT;
       34       34    1   DCL EOFFLG UBIN (36) EXT;
       35       35    1   DCL LINE_COUNT UBIN (36) EXT;
       36       36    1   DCL SAVESW BIT (1) EXT;
       37       37    1   DCL NUM_CHAR_READ UBIN (36) EXT;
       38       38    1   DCL LINE CHAR (4000) EXT;
       39       39    1   DCL LAST_COUNT UBIN (36) SYMREF;
       40       40    1   DCL LIST_STRING CHAR(128) EXT;
       41       41    1   DCL FOUND_PER BIT (1) SYMREF;
       42       42    1   DCL NCS UBIN (36) EXT;
       43       43    1   DCL BUFFER_ERR BIT(1) EXT;
       44       44    1   DCL I UBIN (36);
       45       45    1   DCL END_SUBSCHEMA BIT (1) EXT;
       46       46    1   DCL DONE BIT (1);
       47       47    1   DCL K UBIN (36);
       48       48    1   DCL L UBIN (36);
PL6.E3A0      #001=ZIG$SS_READ File=ZIG$SS_READ.:ZIC0TSI                         FRI 09/05/97 12:15 Page:14
       49       49    1   DCL POUNDS CHAR (20) CONSTANT INIT ('####################');
       50       50    1   DCL LAST_STATUS UBIN (6) EXT;
       51       51    1   DCL WRITSF ENTRY (2);
       52       52         %EJECT;
PL6.E3A0      #001=ZIG$SS_READ File=ZIG$SS_READ.:ZIC0TSI                         FRI 09/05/97 12:15 Page:15
       53       53         %INCLUDE ZI_SUB_LANG;
       54     1768         %GENERAL;
       55     1892         %TEXT_LINE;
       56     1929        %INCLUDE ZIG_GENERAL;
       57     2037         %INCLUDE XU_MACRO_C;
       58     5143         %INCLUDE ZI_ERRORS_SUBS;
       59     5663         %P$PCB(NAME=SS_TRAN, STCLASS = "SYMREF");
       60     5864         %EJECT;
PL6.E3A0      #001=ZIG$SS_READ File=ZIG$SS_READ.:ZIC0TSI                         FRI 09/05/97 12:15 Page:16
       61     5865    1   NEXT_REC: PROC;

   5865 37 000003   200010 741300       NEXT_REC     STX1  ! L+2,,AUTO

       62     5866    2       REC1 = ' ';

   5866 37 000004   040000 100400                    MLR     fill='040'O
        37 000005   000000 000001 38                 ADSC9   0                        cn=0,n=1
        37 000006   000000 000120 2                  ADSC9   REC1                     cn=0,n=80

       63     5867    3       DO WHILE ((REC1 = ' ') OR

   5867 37 000007   000054 710000 37                 TRA     s:5884

       64     5868    3          ((SUBSTR(REC1,7) = ' ' OR
       65     5869    3          SUBSTR(REC1,6,1) = '*') AND SUB_LANGUAGE = #COBOL) OR
       66     5870    3          ((SUBSTR(REC1,6) = ' ' OR SUBSTR(REC1,0,1) = 'C'
       67     5871    3          OR SUBSTR(REC1,0,1) = '*') AND SUB_LANGUAGE = #FORTRAN));
       68     5872    3           CALL ZIG$DDS5; /* Get a record */

   5872 37 000010   000001 631400 38                 EPPR1   1
        37 000011   000000 701000 xent               TSX1    ZIG$DDS5
        37 000012   000000 011000                    NOP     0

       69     5873    3           RDWORD = '1'B;

   5873 37 000013   400000 236003                    LDQ     -131072,DU
        37 000014   000000 756000 0                  STQ     RDWORD

       70     5874    3           IF NCS=1 THEN RETURN;

   5874 37 000015   000000 235000 9                  LDA     NCS
        37 000016   000001 115007                    CMPA    1,DL
        37 000017   000022 601000 37                 TNZ     s:5875

   5874 37 000020   200010 221300                    LDX1  ! L+2,,AUTO
        37 000021   000001 702211                    TSX2  ! 1,X1
PL6.E3A0      #001=ZIG$SS_READ File=ZIG$SS_READ.:ZIC0TSI                         FRI 09/05/97 12:15 Page:17

       71     5875    3           CALL PUT_OUT_LINE(LINE_COUNT,REC);

   5875 37 000022   000003 630400 38                 EPPR0   3
        37 000023   000002 631400 38                 EPPR1   2
        37 000024   000000 701000 xent               TSX1    PUT_OUT_LINE
        37 000025   000000 011000                    NOP     0

       72     5876    3           SAVESW = '0'B;

   5876 37 000026   000000 450000 5                  STZ     SAVESW

       73     5877    3           TEXT_LINE.BLOCK_NU = CURRENT_RECORD / 2;

   5877 37 000027   000000 236000 19                 LDQ     CURRENT_RECORD
        37 000030   000001 772000                    QRL     1
        37 000031   000034 756000 20                 STQ     TEXT_LINE+28

       74     5878    3           TEXT_LINE.LINE_NU = LINE_COUNT;

   5878 37 000032   000000 235000 4                  LDA     LINE_COUNT
        37 000033   000001 755000 20                 STA     TEXT_LINE+1

       75     5879    3           TEXT_LINE.TEXT = REC;

   5879 37 000034   040000 100400                    MLR     fill='040'O
        37 000035   000000 000120 1                  ADSC9   REC                      cn=0,n=80
        37 000036   000006 000120 20                 ADSC9   TEXT_LINE+6              cn=0,n=80

       76     5880    3           CALL WRITSF (CURRENT_RECORD,TEXT_LINE);

   5880 37 000037   000005 630400 38                 EPPR0   5
        37 000040   000002 631400 38                 EPPR1   2
        37 000041   000000 701000 xent               TSX1    WRITSF
        37 000042   000000 011000                    NOP     0

       77     5881    3           CURRENT_RECORD = CURRENT_RECORD + 1;
PL6.E3A0      #001=ZIG$SS_READ File=ZIG$SS_READ.:ZIC0TSI                         FRI 09/05/97 12:15 Page:18

   5881 37 000043   000000 235000 19                 LDA     CURRENT_RECORD
        37 000044   000001 035007                    ADLA    1,DL
        37 000045   000000 755000 19                 STA     CURRENT_RECORD

       78     5882    3           LINE_COUNT=LINE_COUNT+1;

   5882 37 000046   000000 236000 4                  LDQ     LINE_COUNT
        37 000047   000001 036007                    ADLQ    1,DL
        37 000050   000000 756000 4                  STQ     LINE_COUNT

       79     5883    3           REC1 = REC;

   5883 37 000051   040000 100400                    MLR     fill='040'O
        37 000052   000000 000120 1                  ADSC9   REC                      cn=0,n=80
        37 000053   000000 000120 2                  ADSC9   REC1                     cn=0,n=80

       80     5884    3           END;

   5884 37 000054   040000 106400                    CMPC    fill='040'O
        37 000055   000000 000120 2                  ADSC9   REC1                     cn=0,n=80
        37 000056   000000 000001 38                 ADSC9   0                        cn=0,n=1
        37 000057   000010 600000 37                 TZE     s:5872
        37 000060   040000 106400                    CMPC    fill='040'O
        37 000061   000001 600111 2                  ADSC9   REC1+1                   cn=3,n=73
        37 000062   000000 000001 38                 ADSC9   0                        cn=0,n=1
        37 000063   000070 600000 37                 TZE     s:5884+12
        37 000064   000001 236000 2                  LDQ     REC1+1
        37 000065   777000 376007                    ANQ     -512,DL
        37 000066   052000 116007                    CMPQ    21504,DL
        37 000067   000073 601000 37                 TNZ     s:5884+15
        37 000070   000000 235000 15                 LDA     SUB_LANGUAGE
        37 000071   000001 115007                    CMPA    1,DL
        37 000072   000010 600000 37                 TZE     s:5872
        37 000073   040000 106400                    CMPC    fill='040'O
        37 000074   000001 400112 2                  ADSC9   REC1+1                   cn=2,n=74
        37 000075   000000 000001 38                 ADSC9   0                        cn=0,n=1
PL6.E3A0      #001=ZIG$SS_READ File=ZIG$SS_READ.:ZIC0TSI                         FRI 09/05/97 12:15 Page:19
        37 000076   000107 600000 37                 TZE     s:5884+27
        37 000077   000000 236000 2                  LDQ     REC1
        37 000100   777000 376003                    ANQ     -512,DU
        37 000101   103000 116003                    CMPQ    34304,DU
        37 000102   000107 600000 37                 TZE     s:5884+27
        37 000103   000000 236000 2                  LDQ     REC1
        37 000104   777000 376003                    ANQ     -512,DU
        37 000105   052000 116003                    CMPQ    21504,DU
        37 000106   000112 601000 37                 TNZ     s:5889
        37 000107   000000 235000 15                 LDA     SUB_LANGUAGE
        37 000110   000002 115007                    CMPA    2,DL
        37 000111   000010 600000 37                 TZE     s:5872

       81     5885        /*********
       82     5886        	scan from back of record to find the first non
       83     5887        	blank CHARACTER.(FIND the end of the record).
       84     5888        **********/
       85     5889    2       CALL SEARCHR(I,K,SEARCHR_NB,REC1);

   5889 37 000112   000000 165400                    TCTR
        37 000113   000000 000120 2                  ADSC9   REC1                     cn=0,n=80
        37 000114   000000 000000 33                 ARG     SEARCHR_NB
        37 000115   200003 000100                    ARG     I,,AUTO
        37 000116   200003 235100                    LDA     I,,AUTO
        37 000117   000033 771000                    ARL     27
        37 000120   200005 755100                    STA     K,,AUTO
        37 000121   200003 551140                    STBA    I,'40'O,AUTO
        37 000122   000125 606400 37                 TTN     s:5890
        37 000123   000117 236007                    LDQ     79,DL
        37 000124   200003 156100                    SSQ     I,,AUTO

       86     5890    2       NUM_CHAR_READ = I + 1;

   5890 37 000125   200003 236100                    LDQ     I,,AUTO
        37 000126   000001 036007                    ADLQ    1,DL
        37 000127   000000 756000 6                  STQ     NUM_CHAR_READ

PL6.E3A0      #001=ZIG$SS_READ File=ZIG$SS_READ.:ZIC0TSI                         FRI 09/05/97 12:15 Page:20
       87     5891    3       DO WHILE ('1'B);

       88     5892    3           CALL INDEX(K,'"',REC1) ALTRET(NO_QUOTE);

   5892 37 000130   000000 124400                    SCM     mask='000'O
        37 000131   000000 000120 2                  ADSC9   REC1                     cn=0,n=80
        37 000132   000007 000001 38                 ADSC9   7                        cn=0,n=1
        37 000133   200005 000100                    ARG     K,,AUTO
        37 000134   000201 606400 37                 TTN     NO_QUOTE

       89     5893    3           CALL INSERT(REC1,K,1,'''');

   5893 37 000135   200005 235100                    LDA     K,,AUTO
        37 000136   040005 100400                    MLR     fill='040'O
        37 000137   000010 000001 38                 ADSC9   8                        cn=0,n=1
        37 000140   000000 000001 2                  ADSC9   REC1,A                   cn=0,n=1

       90     5894    3           CALL INDEX1(L,'"',REC1,K) ALTRET(NO_QUOTE);

   5894 37 000141   777657 620005                    EAX0    -81,AL
        37 000142   777777 660003                    ERX0    -1,DU
        37 000143   200005 236100                    LDQ     K,,AUTO
        37 000144   000000 124445                    SCM     mask='000'O
        37 000145   000000 000010 2                  ADSC9   REC1,A                   cn=0,n=*X0
        37 000146   000007 000001 38                 ADSC9   7                        cn=0,n=1
        37 000147   200006 000100                    ARG     L,,AUTO
        37 000150   200006 056100                    ASQ     L,,AUTO
        37 000151   000201 606400 37                 TTN     NO_QUOTE

       91     5895    3           CALL INSERT(REC1,L,1,'''');

   5895 37 000152   200006 236100                    LDQ     L,,AUTO
        37 000153   040006 100400                    MLR     fill='040'O
        37 000154   000010 000001 38                 ADSC9   8                        cn=0,n=1
        37 000155   000000 000001 2                  ADSC9   REC1,Q                   cn=0,n=1

       92     5896    3           IF LAST_STATUS < #AREA_DEF AND SUB_LANGUAGE~=#FORTRAN
PL6.E3A0      #001=ZIG$SS_READ File=ZIG$SS_READ.:ZIC0TSI                         FRI 09/05/97 12:15 Page:21

   5896 37 000156   000000 236000 13                 LDQ     LAST_STATUS
        37 000157   770000 316003                    CANQ    -4096,DU
        37 000160   000130 601000 37                 TNZ     s:5892
        37 000161   000000 235000 15                 LDA     SUB_LANGUAGE
        37 000162   000002 115007                    CMPA    2,DL
        37 000163   000130 600000 37                 TZE     s:5892

       93     5897    3           THEN CALL INSERT(REC,K+1,L-K-1,SUBSTR(POUNDS,0,L-K-1));

   5897 37 000164   200006 236100                    LDQ     L,,AUTO
        37 000165   200005 136100                    SBLQ    K,,AUTO
        37 000166   200012 756100                    STQ     L+4,,AUTO
        37 000167   200006 236100                    LDQ     L,,AUTO
        37 000170   200005 136100                    SBLQ    K,,AUTO
        37 000171   777777 621006                    EAX1    -1,QL
        37 000172   200012 722100                    LXL2    L+4,,AUTO
        37 000173   777777 623012                    EAX3    -1,X2
        37 000174   200005 236100                    LDQ     K,,AUTO
        37 000175   040046 100440                    MLR     fill='040'O
        37 000176   000000 000011 12                 ADSC9   POUNDS                   cn=0,n=*X1
        37 000177   000000 200013 1                  ADSC9   REC,Q                    cn=1,n=*X3

       94     5898    3           END;

   5898 37 000200   000130 710000 37                 TRA     s:5892

       95     5899    2   NO_QUOTE:
       96     5900    2       CALL XLATE(REC1,SEM_COM,REC1);

   5900 37 000201   040000 160400       NO_QUOTE     MVT     fill='040'O
        37 000202   000000 000120 2                  ADSC9   REC1                     cn=0,n=80
        37 000203   000000 000120 2                  ADSC9   REC1                     cn=0,n=80
        37 000204   000000 000000 34                 ARG     SEM_COM

       97     5901    2   END;

PL6.E3A0      #001=ZIG$SS_READ File=ZIG$SS_READ.:ZIC0TSI                         FRI 09/05/97 12:15 Page:22
   5901 37 000205   200010 221300                    LDX1  ! L+2,,AUTO
        37 000206   000001 702211                    TSX2  ! 1,X1

       98     5902        /*****
       99     5903                 Find then number of characters read in the last
      100     5904                 read done by exread.
      101     5905        ******/
      102     5906    1       CALL NEXT_REC;

   5906 37 000207   000003 701000 37                 TSX1    NEXT_REC
        37 000210   000000 011000                    NOP     0

      103     5907    1       IF NCS=1

   5907 37 000211   000000 235000 9                  LDA     NCS
        37 000212   000001 115007                    CMPA    1,DL
        37 000213   000226 601000 37                 TNZ     s:5918

      104     5908    2       THEN DO;

      105     5909    2           RDWORD='0'B;

   5909 37 000214   000000 450000 0                  STZ     RDWORD

      106     5910    2           SAVESW='1'B;

   5910 37 000215   400000 236003                    LDQ     -131072,DU
        37 000216   000000 756000 5                  STQ     SAVESW

      107     5911    2           CALL WARNING(#NO_SUBSCHEMA_END); /* NO END SUBSCHEMA TEXT */

   5911 37 000217   000013 630400 38                 EPPR0   11
        37 000220   000011 631400 38                 EPPR1   9
        37 000221   000000 701000 xent               TSX1    WARNING
        37 000222   000000 011000                    NOP     0

      108     5912    2           END_SUBSCHEMA='1'B;
PL6.E3A0      #001=ZIG$SS_READ File=ZIG$SS_READ.:ZIC0TSI                         FRI 09/05/97 12:15 Page:23

   5912 37 000223   400000 236003                    LDQ     -131072,DU
        37 000224   000000 756000 11                 STQ     END_SUBSCHEMA

      109     5913    2           RETURN;

   5913 37 000225   000000 702200 xent               TSX2  ! X66_ARET

      110     5914    2           END;
      111     5915        /*E*          ERROR:    ZIG-#NO_SUBSCHEMA_END-C
      112     5916        MESSAGE:      No END was found at the end of the subschema text.
      113     5917        */
      114     5918    1       IF SUB_LANGUAGE = #COBOL

   5918 37 000226   000000 236000 15                 LDQ     SUB_LANGUAGE
        37 000227   000001 116007                    CMPQ    1,DL
        37 000230   000237 601000 37                 TNZ     s:5923

      115     5919    2       THEN DO;

      116     5920    2           REC1 = SUBSTR(REC1,7);

   5920 37 000231   040000 100400                    MLR     fill='040'O
        37 000232   000001 600111 2                  ADSC9   REC1+1                   cn=3,n=73
        37 000233   000000 000120 2                  ADSC9   REC1                     cn=0,n=80

      117     5921    2           I = I - 7;

   5921 37 000234   200003 235100                    LDA     I,,AUTO
        37 000235   000007 135007                    SBLA    7,DL
        37 000236   200003 755100                    STA     I,,AUTO

      118     5922    2           END;

      119     5923    1       IF SUB_LANGUAGE = #FORTRAN

   5923 37 000237   000002 116007                    CMPQ    2,DL
PL6.E3A0      #001=ZIG$SS_READ File=ZIG$SS_READ.:ZIC0TSI                         FRI 09/05/97 12:15 Page:24
        37 000240   000247 601000 37                 TNZ     s:5928

      120     5924    2       THEN DO;

      121     5925    2           REC1 = SUBSTR(REC1,6);

   5925 37 000241   040000 100400                    MLR     fill='040'O
        37 000242   000001 400112 2                  ADSC9   REC1+1                   cn=2,n=74
        37 000243   000000 000120 2                  ADSC9   REC1                     cn=0,n=80

      122     5926    2           I = I - 6;

   5926 37 000244   200003 235100                    LDA     I,,AUTO
        37 000245   000006 135007                    SBLA    6,DL
        37 000246   200003 755100                    STA     I,,AUTO

      123     5927    2           END;

      124     5928    1       LAST_COUNT = SS_TRAN.NCHARS;

   5928 37 000247   000011 235000 xsym               LDA     SS_TRAN+9
        37 000250   000000 755000 xsym               STA     LAST_COUNT

      125     5929    1       IF I > 80

   5929 37 000251   200003 235100                    LDA     I,,AUTO
        37 000252   000121 115007                    CMPA    81,DL
        37 000253   000256 602000 37                 TNC     s:5931

      126     5930    1       THEN I = 1;

   5930 37 000254   000001 235007                    LDA     1,DL
        37 000255   200003 755100                    STA     I,,AUTO

      127     5931    2       IF SS_TRAN.NCHARS+I+1 < 4000 THEN DO;

   5931 37 000256   000011 236000 xsym               LDQ     SS_TRAN+9
PL6.E3A0      #001=ZIG$SS_READ File=ZIG$SS_READ.:ZIC0TSI                         FRI 09/05/97 12:15 Page:25
        37 000257   200003 036100                    ADLQ    I,,AUTO
        37 000260   007637 116007                    CMPQ    3999,DL
        37 000261   000306 603000 37                 TRC     s:5936

      128     5932    2           CALL INSERT(LINE,SS_TRAN.NCHARS,I+1,SUBSTR(REC1,0,I+1),'  ');

   5932 37 000262   000001 620005                    EAX0    1,AL
        37 000263   000011 236000 xsym               LDQ     SS_TRAN+9
        37 000264   040046 100440                    MLR     fill='040'O
        37 000265   000000 000010 2                  ADSC9   REC1                     cn=0,n=*X0
        37 000266   000000 000010 7                  ADSC9   LINE,Q                   cn=0,n=*X0
        37 000267   200003 236100                    LDQ     I,,AUTO
        37 000270   200003 136100                    SBLQ    I,,AUTO
        37 000271   000301 604400 37                 TMOZ    s:5933
        37 000272   200012 756100                    STQ     L+4,,AUTO
        37 000273   000011 236000 xsym               LDQ     SS_TRAN+9
        37 000274   200003 036100                    ADLQ    I,,AUTO
        37 000275   200012 721100                    LXL1    L+4,,AUTO
        37 000276   040046 100400                    MLR     fill='040'O
        37 000277   000005 000002 12                 ADSC9   POUNDS+5                 cn=0,n=2
        37 000300   000000 200011 7                  ADSC9   LINE,Q                   cn=1,n=*X1

      129     5933    2           SS_TRAN.NCHARS = SS_TRAN.NCHARS+I+1;

   5933 37 000301   000011 236000 xsym               LDQ     SS_TRAN+9
        37 000302   200003 036100                    ADLQ    I,,AUTO
        37 000303   000001 036007                    ADLQ    1,DL
        37 000304   000011 756000 xsym               STQ     SS_TRAN+9

      130     5934    2           END;

   5934 37 000305   000316 710000 37                 TRA     s:5948

      131     5935    1       ELSE
      132     5936    2           IF NOT BUFFER_ERR THEN DO;

   5936 37 000306   000000 234000 10                 SZN     BUFFER_ERR
PL6.E3A0      #001=ZIG$SS_READ File=ZIG$SS_READ.:ZIC0TSI                         FRI 09/05/97 12:15 Page:26
        37 000307   000316 604000 37                 TMI     s:5948

      133     5937    2               BUFFER_ERR = '1'B;

   5937 37 000310   400000 236003                    LDQ     -131072,DU
        37 000311   000000 756000 10                 STQ     BUFFER_ERR

      134     5938    2               CALL ERROR(#BUFFER_FULL); /* Buffer is full */

   5938 37 000312   000015 630400 38                 EPPR0   13
        37 000313   000011 631400 38                 EPPR1   9
        37 000314   000000 701000 xent               TSX1    ERROR
        37 000315   000000 011000                    NOP     0

      135     5939        /*E*     ERROR:    ZIG-#BUFFER_FULL-C
      136     5940        MESSAGE: The size of the command being processed exceeds the 4000
      137     5941                 character buffer reserved for it.  Reduce the size of the
      138     5942                 command by using ALIASes or by using multiple commands.
      139     5943        */
      140     5944    2               END;

      141     5945        /********
      142     5946        	don't add a ';' if this is the end of the directive.
      143     5947        *********/
      144     5948    1       FOUND_PER = '0'B;

   5948 37 000316   000000 450000 xsym               STZ     FOUND_PER

      145     5949    1       CALL INDEX2R(I,'. ',REC,NUM_CHAR_READ+1) ALTRET (NO_PERIOD);

   5949 37 000317   000000 720000 6                  LXL0    NUM_CHAR_READ
        37 000320   000001 621010                    EAX1    1,X0
        37 000321   000000 236000 6                  LDQ     NUM_CHAR_READ
        37 000322   000001 036007                    ADLQ    1,DL
        37 000323   000000 121440                    SCDR
        37 000324   000000 000011 1                  ADSC9   REC                      cn=0,n=*X1
        37 000325   000006 000002 12                 ADSC9   POUNDS+6                 cn=0,n=2
PL6.E3A0      #001=ZIG$SS_READ File=ZIG$SS_READ.:ZIC0TSI                         FRI 09/05/97 12:15 Page:27
        37 000326   200003 000100                    ARG     I,,AUTO
        37 000327   000333 606400 37                 TTN     s:5949+12
        37 000330   200003 054100                    AOS     I,,AUTO
        37 000331   200003 156100                    SSQ     I,,AUTO
        37 000332   000335 710000 37                 TRA     s:5950
        37 000333   200003 054100                    AOS     I,,AUTO
        37 000334   000344 710000 37                 TRA     NO_PERIOD

      146     5950    1       IF I > NUM_CHAR_READ - 2

   5950 37 000335   000000 236000 6                  LDQ     NUM_CHAR_READ
        37 000336   000002 136007                    SBLQ    2,DL
        37 000337   000342 604000 37                 TMI     s:5952
        37 000340   200003 116100                    CMPQ    I,,AUTO
        37 000341   000344 603000 37                 TRC     NO_PERIOD

      147     5951    2       THEN DO;

      148     5952    2           FOUND_PER = '1'B;

   5952 37 000342   400000 236003                    LDQ     -131072,DU
        37 000343   000000 756000 xsym               STQ     FOUND_PER

      149     5953    2           END;

      150     5954    1   NO_PERIOD:
      151     5955    1       IF SUB_LANGUAGE=#FORTRAN AND NOT FOUND_PER

   5955 37 000344   000000 235000 15    NO_PERIOD    LDA     SUB_LANGUAGE
        37 000345   000002 115007                    CMPA    2,DL
        37 000346   000411 601000 37                 TNZ     s:5971
        37 000347   000000 234000 xsym               SZN     FOUND_PER
        37 000350   000411 604000 37                 TMI     s:5971

      152     5956    2       THEN DO;

      153     5957    2           CALL ZIG$DDS5;
PL6.E3A0      #001=ZIG$SS_READ File=ZIG$SS_READ.:ZIC0TSI                         FRI 09/05/97 12:15 Page:28

   5957 37 000351   000001 631400 38                 EPPR1   1
        37 000352   000000 701000 xent               TSX1    ZIG$DDS5
        37 000353   000000 011000                    NOP     0

      154     5958    2           IF (SUBSTR(REC,5,1) = ' ' AND NCS = 0 ) OR

   5958 37 000354   000001 236000 1                  LDQ     REC+1
        37 000355   000777 376003                    ANQ     511,DU
        37 000356   000040 116003                    CMPQ    32,DU
        37 000357   000362 601000 37                 TNZ     s:5958+6
        37 000360   000000 235000 9                  LDA     NCS
        37 000361   000372 600000 37                 TZE     s:5961
        37 000362   000000 236000 1                  LDQ     REC
        37 000363   777000 376003                    ANQ     -512,DU
        37 000364   052000 116003                    CMPQ    21504,DU
        37 000365   000372 600000 37                 TZE     s:5961
        37 000366   000000 236000 1                  LDQ     REC
        37 000367   777000 376003                    ANQ     -512,DU
        37 000370   103000 116003                    CMPQ    34304,DU
        37 000371   000377 601000 37                 TNZ     s:5964

      155     5959    2              (SUBSTR(REC,0,1) = '*' OR SUBSTR(REC,0,1) = 'C')
      156     5960    3           THEN DO;

      157     5961    3               CALL INSERT(LINE,SS_TRAN.NCHARS,3,' . ');

   5961 37 000372   000011 235000 xsym               LDA     SS_TRAN+9
        37 000373   040005 100400                    MLR     fill='040'O
        37 000374   000007 000003 12                 ADSC9   POUNDS+7                 cn=0,n=3
        37 000375   000000 000003 7                  ADSC9   LINE,A                   cn=0,n=3

      158     5962    3               END;

   5962 37 000376   000403 710000 37                 TRA     s:5966

      159     5963    3           ELSE DO;
PL6.E3A0      #001=ZIG$SS_READ File=ZIG$SS_READ.:ZIC0TSI                         FRI 09/05/97 12:15 Page:29

      160     5964    3               CALL INSERT(LINE,SS_TRAN.NCHARS,3,' #;');

   5964 37 000377   000011 235000 xsym               LDA     SS_TRAN+9
        37 000400   040005 100400                    MLR     fill='040'O
        37 000401   000010 000003 12                 ADSC9   POUNDS+8                 cn=0,n=3
        37 000402   000000 000003 7                  ADSC9   LINE,A                   cn=0,n=3

      161     5965    3               END;

      162     5966    2           SS_TRAN.NCHARS = SS_TRAN.NCHARS + 3;

   5966 37 000403   000003 035007                    ADLA    3,DL
        37 000404   000011 755000 xsym               STA     SS_TRAN+9

      163     5967    2           RDWORD = '0'B;

   5967 37 000405   000000 450000 0                  STZ     RDWORD

      164     5968    2           SAVESW = '1'B;

   5968 37 000406   400000 236003                    LDQ     -131072,DU
        37 000407   000000 756000 5                  STQ     SAVESW

      165     5969    2           RETURN;

   5969 37 000410   000000 702200 xent               TSX2  ! X66_ARET

      166     5970    2           END;
      167     5971    1       IF NOT FOUND_PER

   5971 37 000411   000000 234000 xsym               SZN     FOUND_PER
        37 000412   000421 604000 37                 TMI     s:5976

      168     5972    2       THEN DO;

      169     5973    2           CALL INSERT(LINE,SS_TRAN.NCHARS,3,' #;');
PL6.E3A0      #001=ZIG$SS_READ File=ZIG$SS_READ.:ZIC0TSI                         FRI 09/05/97 12:15 Page:30

   5973 37 000413   000011 236000 xsym               LDQ     SS_TRAN+9
        37 000414   040006 100400                    MLR     fill='040'O
        37 000415   000010 000003 12                 ADSC9   POUNDS+8                 cn=0,n=3
        37 000416   000000 000003 7                  ADSC9   LINE,Q                   cn=0,n=3

      170     5974    2           SS_TRAN.NCHARS=SS_TRAN.NCHARS + 3;

   5974 37 000417   000003 036007                    ADLQ    3,DL
        37 000420   000011 756000 xsym               STQ     SS_TRAN+9

      171     5975    2           END;

      172     5976    1       RETURN;

   5976 37 000421   000000 702200 xent               TSX2  ! X66_ARET

REC
 Sect OctLoc
   1     000   ****** ******   ****** ******   ****** ******   ****** ******    ................

REC1
 Sect OctLoc
   2     000   ****** ******   ****** ******   ****** ******   ****** ******    ................

LINE
 Sect OctLoc
   7     000   ****** ******   ****** ******   ****** ******   ****** ******    ................

LIST_STRING
 Sect OctLoc
   8     000   ****** ******   ****** ******   ****** ******   ****** ******    ................

POUNDS
 Sect OctLoc
  12     000   043043 043043   043043 043043   043043 043043   043043 043043    ################
  12     004   043043 043043                                                    ####
PL6.E3A0      #001=ZIG$SS_READ File=ZIG$SS_READ.:ZIC0TSI                         FRI 09/05/97 12:15 Page:31

(unnamed)
 Sect OctLoc
  12     005   040040 040040   056040 040040   040056 040040   040043 073040        .    .   #;

LANG_ALLOWED
 Sect OctLoc
  14     000   ****** ******   ****** ******   ****** ******   ****** ******    ................

HEADING_TEXT
 Sect OctLoc
  16     000   ****** ******   ****** ******   ****** ******   ****** ******    ................

LANG_TEXT
 Sect OctLoc
  17     000   116117 124040   125123 105104   040040 103117   102117 114040    NOT USED  COBOL
  17     004   040040 040040   106117 122124   122101 116040   040040 101120        FORTRAN   AP
  17     010   114040 040040   040040 040040   102101 123111   103040 040040    L       BASIC
  17     014   040040 ******                                                      ..

HASH_SCHEMA_NAME
 Sect OctLoc
  18     000   0***** ******                                                    ....

TEXT_LINE
 Sect OctLoc
  20     000   000000 000151   000000 000000   000000 000000   000000 000006    ...i............
  20     004   000000 000001   000000 000121   040040 040040   040040 040040    .......Q
  20     010   040040 040040   040040 040040   040040 040040   040040 040040
  20     030*  040040 040040   040040 040040   012000 000000   000000 000000            ........
  20     034   000000 000000   000000 000000   000000 000000   000000 000000    ................

UWA_KEY
 Sect OctLoc
  28     000   007125 127101   ****** ******                                    .UWA....

RVA_KEY
PL6.E3A0      #001=ZIG$SS_READ File=ZIG$SS_READ.:ZIC0TSI                         FRI 09/05/97 12:15 Page:32
 Sect OctLoc
  30     000   007122 126101   ****** ******                                    .RVA....

IA__KEY
 Sect OctLoc
  31     000   007111 101137   ****** ******                                    .IA_....

SEARCHR_NB
 Sect OctLoc
  33     000   001001 001001   001001 001001   001001 001001   001001 001001    ................
  33     010*  000001 001001   001001 001001   001001 001001   001001 001001    ................
  33     014   001001 001001   001001 001001   001001 001001   001001 001001    ................
  33     034*  001001 001001   001001 001001   001001 001001   001001 001001    ................

SEM_COM
 Sect OctLoc
  34     000   000001 002003   004005 006007   010011 012013   014015 016017    ................
  34     004   020021 022023   024025 026027   030031 032033   034035 036037    ................
  34     010   040041 042043   044045 046047   050051 052053   054055 056057     !"#$%&'()*+,-./
  34     014   060061 062063   064065 066067   070071 072040   074075 076077    0123456789: <=>?
  34     020   100101 102103   104105 106107   110111 112113   114115 116117    @ABCDEFGHIJKLMNO
  34     024   120121 122123   124125 126127   130131 132133   134135 136137    PQRSTUVWXYZ[\]^_
  34     030   140141 142143   144145 146147   150151 152153   154155 156157    `abcdefghijklmno
  34     034   160161 162163   164165 166167   170171 172173   174175 176177    pqrstuvwxyz{|}~.

DMCL_XLATE
 Sect OctLoc
  35     000   000001 002003   004005 006007   010011 012013   014015 016017    ................
  35     004   020021 022023   024025 026027   030031 032033   034035 036037    ................
  35     010   040041 041043   044045 046047   050051 052053   054055 136057     !!#$%&'()*+,-^/
  35     014   060061 062063   064065 066067   070071 072040   074075 076077    0123456789: <=>?
  35     020   100101 102103   104105 106107   110111 112113   114115 116117    @ABCDEFGHIJKLMNO
  35     024   120121 122123   124125 126127   130131 132133   134135 136137    PQRSTUVWXYZ[\]^_
  35     030   140141 142143   144145 146147   150151 152153   154155 156157    `abcdefghijklmno
  35     034   160161 162163   164165 166167   170171 172173   174175 176177    pqrstuvwxyz{|}~.

Q2_PERCENT
PL6.E3A0      #001=ZIG$SS_READ File=ZIG$SS_READ.:ZIC0TSI                         FRI 09/05/97 12:15 Page:33
 Sect OctLoc
  36     000   000001 002003   004005 006007   010011 012013   014015 016017    ................
  36     004   020021 022023   024025 026027   030031 032033   034035 036037    ................
  36     010   040041 045043   044045 046047   050051 052053   054055 056057     !%#$%&'()*+,-./
  36     014   060061 062063   064065 066067   070071 072073   074075 076077    0123456789:;<=>?
  36     020   100101 102103   104105 106107   110111 112113   114115 116117    @ABCDEFGHIJKLMNO
  36     024   120121 122123   124125 126127   130131 132133   134135 136137    PQRSTUVWXYZ[\]^_
  36     030   140141 142143   144145 146147   150151 152153   154155 156157    `abcdefghijklmno
  36     034   160161 162163   164165 166167   170171 172173   174175 176177    pqrstuvwxyz{|}~.

(unnamed)
 Sect OctLoc
  38     000   040040 040040   000000 000000   000002 000000   000000 006000        ............
  38     004   000000 006000   000000 006000   000000 006000   042040 040040    ............"
  38     010   047040 040040   000001 000000   000000 023304   000012 006000    '   ............
  38     014   000000 023320   000014 006000                                    ........
      173     5977    1   END ZIG$SS_READ;

PL6.E3A0      #001=ZIG$SS_READ File=ZIG$SS_READ.:ZIC0TSI                         FRI 09/05/97 12:15 Page:34
--  Include file information  --

   ZI_ERRORS_SUBS.:ZIC0TOU  is referenced.
   XU_MACRO_C.:LIB_E05  is referenced.
   ZIG_GENERAL.:ZIC0TOU  cannot be made into a system file and is referenced.
   ZI_SUB_LANG.:ZIC0TOU  is referenced.
   B$JIT_C.:E05TOU  was found in the system file and is never referenced.
   CP_6_C.:E05TOU  was found in the system file and is never referenced.
      No diagnostics issued in procedure ZIG$SS_READ.

   Procedure ZIG$SS_READ requires 274 words for executable code.
   Procedure ZIG$SS_READ requires 12 words of local(AUTO) storage.

    No errors detected in file ZIG$SS_READ.:ZIC0TSI    .
PL6.E3A0      #001=ZIG$SS_READ File=ZIG$SS_READ.:ZIC0TSI                         FRI 09/05/97 12:15 Page:35
          *** CROSS REFERENCE LISTING ***
**     DENOTES     IDENTIFIER DEFINITION
<<                 IDENTIFIER'S VALUE SET
>>                 IDENTIFIER'S VALUE USED
<>                 IDENTIFIER SET AND/OR USED
--                 IDENTIFIER REFERENCED
PL6.E3A0      #001=ZIG$SS_READ File=ZIG$SS_READ.:ZIC0TSI                         FRI 09/05/97 12:15 Page:36
          MINI XREF LISTING

BUFFER_ERR
        43**DCL      5936>>IF       5937<<ASSIGN
CURRENT_RECORD
      1878**DCL      5877>>ASSIGN   5880<>CALL     5881<<ASSIGN   5881>>ASSIGN
END_SUBSCHEMA
        45**DCL      5912<<ASSIGN
ERROR
      1942**DCL-ENT  5938--CALL
FOUND_PER
        41**DCL      5948<<ASSIGN   5952<<ASSIGN   5955>>IF       5971>>IF
I
        44**DCL      5889<<CALLBLT  5890>>ASSIGN   5921<<ASSIGN   5921>>ASSIGN   5926<<ASSIGN   5926>>ASSIGN
      5929>>IF       5930<<ASSIGN   5931>>IF       5932>>CALLBLT  5932>>CALLBLT  5933>>ASSIGN   5949<<CALLBLT
      5950>>IF
K
        47**DCL      5889<<CALLBLT  5892<<CALLBLT  5893>>CALLBLT  5894>>CALLBLT  5897>>CALLBLT  5897>>CALLBLT
      5897>>CALLBLT
L
        48**DCL      5894<<CALLBLT  5895>>CALLBLT  5897>>CALLBLT  5897>>CALLBLT
LAST_COUNT
        39**DCL      5928<<ASSIGN
LAST_STATUS
        50**DCL      5896>>IF
LINE
        38**DCL      5932<<CALLBLT  5961<<CALLBLT  5964<<CALLBLT  5973<<CALLBLT
LINE_COUNT
        35**DCL      5875<>CALL     5878>>ASSIGN   5882<<ASSIGN   5882>>ASSIGN
NCS
        42**DCL      5874>>IF       5907>>IF       5958>>IF
NEXT_REC
      5865**PROC     5906--CALL
NO_PERIOD
PL6.E3A0      #001=ZIG$SS_READ File=ZIG$SS_READ.:ZIC0TSI                         FRI 09/05/97 12:15 Page:37
      5955**LABEL    5949--CALLALT
NO_QUOTE IN PROCEDURE NEXT_REC
      5900**LABEL    5892--CALLALT  5894--CALLALT
NUM_CHAR_READ
        37**DCL      5890<<ASSIGN   5949>>CALLBLT  5950>>IF
POUNDS
        49**DCL      5897>>CALLBLT
PUT_OUT_LINE
        29**DCL-ENT  5875--CALL
RDWORD
        30**DCL      5873<<ASSIGN   5909<<ASSIGN   5967<<ASSIGN
REC
        32**DCL      5875<>CALL     5879>>ASSIGN   5883>>ASSIGN   5897<<CALLBLT  5949>>CALLBLT  5958>>IF
      5958>>IF       5958>>IF
REC1
        33**DCL      5866<<ASSIGN   5867>>DOWHILE  5867>>DOWHILE  5867>>DOWHILE  5867>>DOWHILE  5867>>DOWHILE
      5867>>DOWHILE  5883<<ASSIGN   5889>>CALLBLT  5892>>CALLBLT  5893<<CALLBLT  5894>>CALLBLT  5895<<CALLBLT
      5900<<CALLBLT  5900>>CALLBLT  5920<<ASSIGN   5920>>ASSIGN   5925<<ASSIGN   5925>>ASSIGN   5932>>CALLBLT
SAVESW
        36**DCL      5876<<ASSIGN   5910<<ASSIGN   5968<<ASSIGN
SEARCHR_NB
      2004**DCL      5889>>CALLBLT
SEM_COM
      2005**DCL      5900>>CALLBLT
SS_TRAN.NCHARS
      5829**DCL      5928>>ASSIGN   5931>>IF       5932>>CALLBLT  5933<<ASSIGN   5933>>ASSIGN   5961>>CALLBLT
      5964>>CALLBLT  5966<<ASSIGN   5966>>ASSIGN   5973>>CALLBLT  5974<<ASSIGN   5974>>ASSIGN
SUBSCHEMA_KEY
      1977**DCL      1978--REDEF
SUB_LANGUAGE
      1776**DCL      5867>>DOWHILE  5867>>DOWHILE  5896>>IF       5918>>IF       5923>>IF       5955>>IF
TEXT_LINE
      1917**DCL      5880<>CALL
TEXT_LINE.BLOCK_NU
      1926**DCL      5877<<ASSIGN
TEXT_LINE.LINE_NU
PL6.E3A0      #001=ZIG$SS_READ File=ZIG$SS_READ.:ZIC0TSI                         FRI 09/05/97 12:15 Page:38
      1919**DCL      5878<<ASSIGN
TEXT_LINE.TEXT
      1924**DCL      5879<<ASSIGN
WARNING
      1943**DCL-ENT  5911--CALL
WRITSF
        51**DCL-ENT  5880--CALL
ZIG$DDS5
        31**DCL-ENT  5872--CALL     5957--CALL
