
PL6.E3A0      #001=ZIG$V_AREA File=ZIG$V_AREA.:ZIC0TSI                           FRI 09/05/97 12:16 Page:1
        1        1        /*M*     ZIG$V_AREA       I-D-S/II       DBACS */
        2        2        /*T***********************************************************/
        3        3        /*T*                                                         */
        4        4        /*T* Copyright (c) Bull HN Information Systems Inc., 1997    */
        5        5        /*T*                                                         */
        6        6        /*T***********************************************************/
        7        7        /*P*
        8        8        NAME:    ZIG$V_AREA
        9        9        PURPOSE:
       10       10              To build a AC record in the schema subset and initialize
       11       11            it with all the things possible in the AC record for that
       12       12            area of that name.
       13       13
       14       14              Also it must be connected up to the OA record and things in
       15       15            in the OA record must also be set.
       16       16        */
       17       17        /*
       18       18        ZZZZZ  III   GGG    $   V   V        AAA  RRRR  EEEEE  AAA
       19       19            Z   I   G   G  $$$  V   V       A   A R   R E     A   A
       20       20           Z    I   G     $ $   V   V       A   A R   R E     A   A
       21       21          Z     I   G      $$$  V   V       AAAAA RRRR  EEEE  AAAAA
       22       22         Z      I   G  GG   $ $ V   V       A   A R R   E     A   A
       23       23        Z       I   G   G  $$$   V V        A   A R  R  E     A   A
       24       24        ZZZZZ  III   GGG    $     V         A   A R   R EEEEE A   A
       25       25                                      _____
       26       26        */
       27       27        %EJECT;
PL6.E3A0      #001=ZIG$V_AREA File=ZIG$V_AREA.:ZIC0TSI                           FRI 09/05/97 12:16 Page:2
       28       28        ZIG$V_AREA:
       29       29            PROC;
       30       30    1   DCL ZIG$HASH_IT ENTRY (8);
       31       31    1   DCL WRITSF ENTRY (2);
       32       32    1   DCL ZIG$ADD_SI ENTRY;
       33       33    1   DCL SN_DBK UBIN (36) EXT;
       34       34        %INCLUDE ZI_ERRORS_SUBS;
       35      554        %INCLUDE ZI_SUB_LANG;
       36     2269        %INCLUDE ZIG_DIR_STRUCS;
       37     2399        %GENERAL;
       38     2523        %CONTROL_BLOCK;
       39     2631    1   DCL IO_BUF CHAR (128) EXT;
       40     2632        %DESC_TYPE_200(STCLASS="REDEF IO_BUF");
       41     2685        %INCLUDE ZIG_GENERAL;
       42     2793        %INCLUDE ZIG_TYPE_SUBS;
       43     2808        %INCLUDE ZIG_SSS;
       44     3378        %SS_GENERAL(PSTCLASS=EXT);
       45     3399        %OA(PSTCLASS=EXT);
       46     3466        %OA1(PSTCLASS=EXT);
       47     3474        %AC(PSTCLASS=EXT);
       48     3569        %AC1(PSTCLASS=EXT);
       49     3577        %DP(PSTCLASS=EXT);
       50     3591        %DP1(PSTCLASS=EXT);
       51     3599        %INCLUDE ZIG_DBA_INT;
       52     3647        %INCLUDE ZI_SUB4_CAN;
       53     4304        %UWA;
       54     4639        %EJECT;
PL6.E3A0      #001=ZIG$V_AREA File=ZIG$V_AREA.:ZIC0TSI                           FRI 09/05/97 12:16 Page:3
       55     4640    1   DCL I UBIN (36);
       56     4641    1   DCL TPTR$ PTR;
       57     4642    1   DCL L_SCHEMA_AC UBIN (36);
       58     4643    1   DCL L_SUBSCH_AC UBIN (36);
       59     4644    1   DCL SUCC BIT (1);
       60     4645    1   DCL CURRENT_OFF UBIN (36) EXT;
       61     4646    1   DCL STATUS UBIN (6);
       62     4647    1   DCL ERROR_FLG UBIN (36) STATIC;
       63     4648    1   DCL LAST_AC UBIN (18) EXT;
       64     4649    1   DCL LIST_STRING CHAR (128) EXT;
       65     4650        %EJECT;
PL6.E3A0      #001=ZIG$V_AREA File=ZIG$V_AREA.:ZIC0TSI                           FRI 09/05/97 12:16 Page:4
       66     4651    1   FIND_LENGTH:
       67     4652    1       PROC(STRING_TO_GET,RETURN_LENGTH);
       68     4653    2   DCL RETURN_LENGTH UBIN (36);
       69     4654    2   DCL STRING_TO_GET CHAR (30);
       70     4655    2       CALL INDEX1(RETURN_LENGTH,' ',STRING_TO_GET) ALTRET(NOT_BLANK);
       71     4656    2       RETURN;
       72     4657    2   NOT_BLANK:
       73     4658    2       RETURN_LENGTH = 30;
       74     4659    2       RETURN;
       75     4660    2   END FIND_LENGTH;
       76     4661        %EJECT;
PL6.E3A0      #001=ZIG$V_AREA File=ZIG$V_AREA.:ZIC0TSI                           FRI 09/05/97 12:16 Page:5
       77     4662    1       CALL FIND_LENGTH(TYPE_200.AREA_NAME,L_SCHEMA_AC);
       78     4663    1       IF TYPE_200.SUB_AREA_NAME = ' '
       79     4664    1       THEN TYPE_200.SUB_AREA_NAME = TYPE_200.AREA_NAME;
       80     4665    1       CALL FIND_LENGTH(TYPE_200.SUB_AREA_NAME,L_SUBSCH_AC);
       81     4666    1       IF MOD(L_SCHEMA_AC,4) ~= 0
       82     4667    1       THEN L_SCHEMA_AC = L_SCHEMA_AC + 4 - MOD(L_SCHEMA_AC,4);
       83     4668    1       IF MOD(L_SUBSCH_AC,4) ~= 0
       84     4669    1       THEN L_SUBSCH_AC = L_SUBSCH_AC + 4 - MOD(L_SUBSCH_AC,4);
       85     4670    1       ALLOCATE_END = 0; /* Allocate a start of mem */
       86     4671    1       CALL ZIG$G_DYN_MEM_6(1,AC1$);
       87     4672    1       I = POFFW(AC1$,SSS$);
       88     4673    1       IF MOD(I,2) = 0
       89     4674    2       THEN DO;
       90     4675        /*
       91     4676              AC records must start on a odd word and at the moment it is on
       92     4677            a even word so skip a word.
       93     4678        */
       94     4679    2           CALL ZIG$G_DYN_MEM_6(1,AC1$);
       95     4680    2           END;
       96     4681    1       CALL ZIG$G_DYN_MEM_6(%AC_BASE_SIZE+(L_SCHEMA_AC+L_SUBSCH_AC)/4,AC$);
       97     4682        /*
       98     4683              AC size = number of words in schemas area name
       99     4684                      + number of words in subschema area name
      100     4685                      + constant (22).
      101     4686        */
      102     4687    1       CALL SRCHD(TYPE_200.AREA_NAME,%ZIG_RTYPE_AC,SUCC);
      103     4688    1       IF TYPE_200.REF_LINE ~= 0
      104     4689    2       THEN DO;
      105     4690    2           SN_DBK = UWA.DIRECT_REF;
      106     4691    2           CALL ZIG$ADD_SI;
      107     4692    2           END;
      108     4693    1       CALL FETCHNS_6('SN-SE   ') ALTRET (DBCS_ERROR);
      109     4694    1       IF ~SUCC
      110     4695    2       THEN DO;
      111     4696    2           CALL SET_FIELDS(1,30,TYPE_200.AREA_NAME);
      112     4697    2           CALL ERROR(%ZIG_V_AREA_NAME);
      113     4698        /*E*     ERROR:    ZIG-ZIG_V_AREA_NAME-C
PL6.E3A0      #001=ZIG$V_AREA File=ZIG$V_AREA.:ZIC0TSI                           FRI 09/05/97 12:16 Page:6
      114     4699        MESSAGE: The area "%U1" is not present in the schema file.
      115     4700        */
      116     4701    2           RETURN;
      117     4702    2           END;
      118     4703    2       ELSE DO;
      119     4704    2           CURRENT_OFF = POFFW(AC$,SSS$);
      120     4705    2           STATUS = #IN_ALIAS;
      121     4706    2           ALLOCATE_END = 1;
      122     4707    2           HASH_SCHEMA_NAME = '1'B;
      123     4708    2           CALL ZIG$HASH_IT(TYPE_200.AREA_NAME,#ADD,ERROR_FLG,1,2,12,
      124     4709    2              TPTR$,STATUS);
      125     4710    2           ALLOCATE_END = 0;
      126     4711    2           TPTR$ -> AREA_HASH.REF = TYPE_200.REF_LINE;
      127     4712    2           TPTR$ -> AREA_HASH.SUB_OFF = CURRENT_OFF;
      128     4713    2           TPTR$ -> AREA_HASH.DBK = UWA.DIRECT_REF;
      129     4714        /*
      130     4715              Initialize the area in the hash table for fast access and
      131     4716            fast finding of that name.
      132     4717              There can be not dups or errors at this point since we had
      133     4718            a successful subschema translation and we have found the AC
      134     4719            record in the schema file.
      135     4720        */
      136     4721        /*
      137     4722              Now initialize the OA record in the schema subset and
      138     4723            connect it up to the OA-AC set.
      139     4724
      140     4725            Note:
      141     4726                 The OA record allways starts a offset of 1 from SSS$
      142     4727               and OA$ always points to the only OA record.
      143     4728        */
      144     4729    2           TPTR$ = PINCRW(SSS$,LAST_AC);
      145     4730    2           AC.OAACN = TPTR$ -> AC.OAACN;
      146     4731    2           TPTR$ -> AC.OAACN = CURRENT_OFF;
      147     4732    2           LAST_AC = CURRENT_OFF;
      148     4733    2           OA.ACNT = OA.ACNT + 1;
      149     4734    2           AC.DEF.TYPE = '010000000000'B;
      150     4735    2           IF UWA.AC.PAGE_TYP = 3
PL6.E3A0      #001=ZIG$V_AREA File=ZIG$V_AREA.:ZIC0TSI                           FRI 09/05/97 12:16 Page:7
      151     4736    3           THEN DO;
      152     4737    3               AC.DEF.ORG.INDEXED = '1'B;
      153     4738    3               END;
      154     4739    3           ELSE DO;
      155     4740    3               IF UWA.AC.PRIME_KEY=1 OR UWA.AC.SEC_KEY = 1
      156     4741    4               THEN DO;
      157     4742    4                   AC.DEF.ORG.KEYED = '1'B;
      158     4743    4                   END;
      159     4744    3               END;
      160     4745    2           IF UWA.AC.CALC_NULL = 1
      161     4746    2           THEN AC.DEF.NCIA = '1'B;
      162     4747    2           IF UWA.AC.PERMTYPE = 1
      163     4748    2           THEN AC.DEF.ATMP = '1'B;
      164     4749    2           AC.DEF.ITHR = UWA.AC.PER_INV;
      165     4750    2           CALL FIND_LENGTH(TYPE_200.SUB_AREA_NAME,I);
      166     4751    2           AC.DEF.ANL = I;
      167     4752    2           AC.ABAS = UWA.AC.BASE_DBK;
      168     4753    2           AC.WSOF = OA.CSZ + %CUR_BASE_SIZE;
      169     4754    2           IF AC.DEF.ORG.INDEXED
      170     4755    3           THEN DO;
      171     4756    3               CALL FINDNS_6('AC-RA   ') ALTRET (DBCS_ERROR);
      172     4757    3               CALL FINDOS_6('RC-RA   ') ALTRET (DBCS_ERROR);
      173     4758    3               CALL FINDNS_6('RC-SOSM ') ALTRET (DBCS_ERROR);
      174     4759    3               CALL FETCHOS_6('SC-SOSM ') ALTRET (DBCS_ERROR);
      175     4760    3               OA.CSZ = OA.CSZ + %CUR_AC + (UWA.SC.KEY_LENGTH +1+2+4+3)/4;
      176     4761    3               END;
      177     4762    3           ELSE DO;
      178     4763    3               OA.CSZ = OA.CSZ + %CUR_AC;
      179     4764    3               END;
      180     4765    2           AC.ACID = TYPE_200.ID_NUM;
      181     4766    2           AC.PLSEP = 36 - UWA.AC.LINE_BITS;
      182     4767    2           AC.BLP = UWA.AC.LINE_BITS;
      183     4768    2           AC.SANAM.EIS.REG = 6;
      184     4769    2           AC.SANAM.EIS.OFFSET.WD = %AC_BASE_SIZE + (L_SUBSCH_AC)/4 +
      185     4770    2              CURRENT_OFF;
      186     4771    2           CALL FIND_LENGTH(TYPE_200.AREA_NAME,I);
      187     4772    2           AC.SANAM.EIS.COUNT = I;
PL6.E3A0      #001=ZIG$V_AREA File=ZIG$V_AREA.:ZIC0TSI                           FRI 09/05/97 12:16 Page:8
      188     4773    2           AC.PGLIM.LOWPG = UWA.AC.MIN_PAGE;
      189     4774    2           AC.PGLIM.HIGHPG = UWA.AC.MAX_PAGE;
      190     4775    2           AC.DBLIM.LOWDBK = UWA.AC.MIN_DBK;
      191     4776    2           AC.DBLIM.HIGHDBK = UWA.AC.MAX_DBK;
      192     4777    2           AC.LPP = UWA.AC.DBK_PAGE;
      193     4778    2           AC.INTVL = UWA.AC.DBK_CALC;
      194     4779    2           AC.INVT = UWA.AC.INV_THRESH;
      195     4780    2           AC.PGSZ = UWA.AC.PAGE_SIZE;
      196     4781    2           I = UWA.AC.KEYS_ALLOC + UWA.AC.KEYS_RSRVD;
      197     4782    2           IF I < BITBIN('111111111111111111'B)
      198     4783    2           THEN AC.BPLDBK = 2;
      199     4784    2           ELSE IF I < BITBIN('111111111111111111111111111'B)
      200     4785    2               THEN AC.BPLDBK = 3;
      201     4786    2               ELSE AC.BPLDBK = 4;
      202     4787    2           AC.FLAGS = UWA.AC.FLAGS;
      203     4788    2           AC.IUSZ = UWA.AC.INV_UNIT;
      204     4789    2           AC.DPPI = UWA.AC.PGS_INV_PG;
      205     4790    2           AC.FIPN = UWA.AC.FRST_INV_PG;
      206     4791    2           AC.CLCN = UWA.AC.CALC_NEXT_STRUCT;
      207     4792    2           AC.CLCP = UWA.AC.CALC_PRIOR_STRUCT;
      208     4793    2           AC.ANAM = TYPE_200.SUB_AREA_NAME;
      209     4794    2           TPTR$ = PINCRW(SSS$,AC.SANAM.EIS.OFFSET.WD);
      210     4795    2           CALL INSERT(TPTR$ -> SANAME,0,AC.SANAM.EIS.COUNT,
      211     4796    2              SUBSTR(TYPE_200.AREA_NAME,0,AC.SANAM.EIS.COUNT));
      212     4797    2           END;
      213     4798    1       TYPE_200.AREA_BITS.CHKSUM = AC.FLAGS.CHKSUM;
      214     4799    1       TYPE_200.AREA_BITS.ENCRP = AC.FLAGS.ENCRP;
      215     4800    1       TYPE_200.AREA_BITS.CJRNL = AC.FLAGS.CJRNL;
      216     4801    1       TYPE_200.AREA_BITS.TMPLT = AC.FLAGS.TMPLT;
      217     4802    1       TYPE_200.AREA_BITS.TJRNL = AC.FLAGS.TJRNL;
      218     4803    1       TYPE_200.AREA_BITS.TEMPORARY = AC.DEF.ATMP;
      219     4804    1       CALL WRITSF(CURRENT_RECORD,IO_BUF);
      220     4805        /*
      221     4806              This is the place that the data base procedures things
      222     4807            will be put in so when the time comes good luck.
      223     4808        */
      224     4809    1       IF VALIDS.AREA_XREF
PL6.E3A0      #001=ZIG$V_AREA File=ZIG$V_AREA.:ZIC0TSI                           FRI 09/05/97 12:16 Page:9
      225     4810    2       THEN DO;
      226     4811    2           LIST_STRING = ' ';
      227     4812    2           CALL LIST(LIST_STRING);
      228     4813    2           CALL CONCAT(LIST_STRING,'      AREA NAME IS ',TYPE_200.SUB_AREA_NAME);
      229     4814    2           CALL LIST(LIST_STRING);
      230     4815    2           IF AC.DEF.ATMP
      231     4816    3           THEN DO;
      232     4817    3               LIST_STRING = '           AREA IS TEMPORARY.';
      233     4818    3               CALL LIST(LIST_STRING);
      234     4819    3               END;
      235     4820    3           DO CASE (AC.DEF.FORG);
      236     4821    3           CASE (0);
      237     4822    3               LIST_STRING = '           (AREA IS INTEGRATED)';
      238     4823    3           CASE (1);
      239     4824    3               LIST_STRING = '           (AREA IS INTEGRATED WITH RECORD KEYS)';
      240     4825    3           CASE (2);
      241     4826    3               LIST_STRING = '           (AREA IS INDEXED)';
      242     4827    3           CASE (3);
      243     4828    3               LIST_STRING = '           (AREA IS INDEXED WITH RECORD KEYS)';
      244     4829    3           CASE (ELSE);
      245     4830    3               CALL SET_FIELDS(1,30,TYPE_200.AREA_NAME);
      246     4831    3               CALL ERROR(%ZIG_AREA_SOFT_ERR);
      247     4832        /*E*     ERROR:    ZIG-ZIG_AREA_SOFT_ERR-C
      248     4833        MESSAGE: For the area "%U1" the type is not defined.
      249     4834                 <<<< SOFTWARE ERROR >>>>
      250     4835        */
      251     4836    3               RETURN;
      252     4837    3               END;
      253     4838    2           CALL LIST(LIST_STRING);
      254     4839    2           END;
      255     4840    1       RETURN;
      256     4841    1   DBCS_ERROR:
      257     4842    1       CALL ABORT;
      258     4843    1   END ZIG$V_AREA;

PL6.E3A0      #001=ZIG$V_AREA File=ZIG$V_AREA.:ZIC0TSI                           FRI 09/05/97 12:16 Page:10
--  Include file information  --

   ZI_SUB4_CAN.:ZIC0TOU  is referenced.
   ZIG_DBA_INT.:ZIC0TOU  cannot be made into a system file and is referenced.
   ZIG_SSS.:ZIC0TOU  is referenced.
   ZIG_TYPE_SUBS.:ZIC0TOU  is referenced.
   ZIG_GENERAL.:ZIC0TOU  cannot be made into a system file and is referenced.
   ZIG_DIR_STRUCS.:ZIC0TOU  cannot be made into a system file and is referenced.
   ZI_SUB_LANG.:ZIC0TOU  is referenced.
   ZI_ERRORS_SUBS.:ZIC0TOU  is referenced.
   B$JIT_C.:E05TOU  was found in the system file and is never referenced.
   CP_6_C.:E05TOU  was found in the system file and is never referenced.
      No diagnostics issued in procedure ZIG$V_AREA.

   Procedure ZIG$V_AREA requires 461 words for executable code.
   Procedure ZIG$V_AREA requires 22 words of local(AUTO) storage.

    No errors detected in file ZIG$V_AREA.:ZIC0TSI    .

PL6.E3A0      #001=ZIG$V_AREA File=ZIG$V_AREA.:ZIC0TSI                           FRI 09/05/97 12:16 Page:11

 Object Unit name= ZIG$V_AREA                                 File name= ZIG$V_AREA.:ZIC0TOU
 UTS= SEP 05 '97 12:16:45.80 FRI                              Compiler= PL-6/E31         Sev=      00
 SharedLib= :SHARED_SYSTEM                                    Alt SharedLib=


    ****  Control sections  ****

 Sect   Type Bound  Init  Size OctSiz  Section name(segment info)
    0  LblCom even  none     1      1  SN_DBK
    1  LblCom even  none    12     14  ANALS
    2  LblCom even  none    13     15  PURGE
    3  LblCom even  none    19     23  DICTS
    4  LblCom even  none    23     27  DISPS
    5  LblCom even  none    22     26  VALIDS
    6  LblCom even  none    12     14  LOCKS
    7  LblCom even  none    10     12  STRAN
    8  LblCom even  none    12     14  DTRAN
    9  LblCom even  none    16     20  SSTRANS
   10  LblCom even  none    20     24  SSGEN
   11  LblCom even  none     5      5  LANG_ALLOWED
   12  LblCom even  none     1      1  SUB_LANGUAGE
   13  LblCom even  none    16     20  HEADING_TEXT
   14  LblCom even  none    13     15  LANG_TEXT
   15  LblCom even  none     1      1  HASH_SCHEMA_NAME
   16  LblCom even  none     1      1  CURRENT_RECORD
   17  LblCom even  none    64    100  CONTROL
   18  LblCom even  none    32     40  IO_BUF
   19  LblCom even  none     1      1  NUM_ERROR_MSG
   20  LblCom even  none     1      1  NUM_WARN_MSG
   21  LblCom even  none     1      1  ALLOCATE_END
   22  LblCom even  none     2      2  SUBSCHEMA_KEY
   23  LblCom even  none     1      1  BUFFER$
   24  LblCom even  none     1      1  ERROR_IO
   25  LblCom even  none     1      1  BUFFER_LEN
   26  LblCom even  none     2      2  UWA_KEY
   27  LblCom even  none     1      1  NEXT_UWA_SECOND_HALF
   28  LblCom even  none     2      2  RVA_KEY
PL6.E3A0      #001=ZIG$V_AREA File=ZIG$V_AREA.:ZIC0TSI                           FRI 09/05/97 12:16 Page:12
   29  LblCom even  none     2      2  IA__KEY
   30  LblCom even  none     1      1  NEXT_RVA_SECOND_HALF
   31  LblCom even  none    32     40  SEARCHR_NB
   32  LblCom even  none    32     40  SEM_COM
   33  LblCom even  none    32     40  DMCL_XLATE
   34  LblCom even  none    32     40  Q2_PERCENT
   35  LblCom even  none     1      1  SSS$
   36  LblCom even  none     1      1  OA$
   37  LblCom even  none     1      1  OA1$
   38  LblCom even  none     1      1  AC$
   39  LblCom even  none     1      1  AC1$
   40  LblCom even  none     1      1  DP$
   41  LblCom even  none     1      1  DP1$
   42  LblCom even  none   656   1220  UWA
   43  LblCom even  none     1      1  CURRENT_OFF
   44   Data  even  none     1      1  ZIG$V_AREA
   45  LblCom even  none     1      1  LAST_AC
   46  LblCom even  none    32     40  LIST_STRING
   47  RoData even  UTS     63     77  ZIG$V_AREA
   48   Proc  even  none   461    715  ZIG$V_AREA
   49  RoData even  none    40     50  ZIG$V_AREA

    ****  Entry defs  ****

                              Check   Calling
                             calling  sequence
  Sect OctLoc Primary Altret sequence   type   Parms  Name
    48      0   yes            yes      Std        0  ZIG$V_AREA
PL6.E3A0      #001=ZIG$V_AREA File=ZIG$V_AREA.:ZIC0TSI                           FRI 09/05/97 12:16 Page:13

  ****  Entry refs  ****

         Check        Calling
        calling       sequence
Altret sequence SRef   type   Args  Name
         yes           Std       3 SRCHD
 yes     yes           Std       1 FETCHOS_6
         yes           Std       0 ZIG$ADD_SI
 yes     yes           Std       1 FETCHNS_6
         yes           Std       3 SET_FIELDS
         yes           Std       1 LIST
         yes           Std       8 ZIG$HASH_IT
 yes     yes           Std       1 FINDNS_6
         yes           Std       2 WRITSF
         yes           Std       2 ZIG$G_DYN_MEM_6
 yes     yes           Std       1 FINDOS_6
         yes           Std       1 ERROR
         yes           Std       0 ABORT
                       nStd      0 X66_AUTO_0
                       nStd      0 X66_ARET

  ****  Segment refs  ****

  Flags:  r = read only, s = secondary
Flgs Name                             Flgs Name                             Flgs Name
     ISSID
PL6.E3A0      #001=ZIG$V_AREA File=ZIG$V_AREA.:ZIC0TSI                           FRI 09/05/97 12:16 Page:14


        1        1        /*M*     ZIG$V_AREA       I-D-S/II       DBACS */
        2        2        /*T***********************************************************/
        3        3        /*T*                                                         */
        4        4        /*T* Copyright (c) Bull HN Information Systems Inc., 1997    */
        5        5        /*T*                                                         */
        6        6        /*T***********************************************************/
        7        7        /*P*
        8        8        NAME:    ZIG$V_AREA
        9        9        PURPOSE:
       10       10              To build a AC record in the schema subset and initialize
       11       11            it with all the things possible in the AC record for that
       12       12            area of that name.
       13       13
       14       14              Also it must be connected up to the OA record and things in
       15       15            in the OA record must also be set.
       16       16        */
       17       17        /*
       18       18        ZZZZZ  III   GGG    $   V   V        AAA  RRRR  EEEEE  AAA
       19       19            Z   I   G   G  $$$  V   V       A   A R   R E     A   A
       20       20           Z    I   G     $ $   V   V       A   A R   R E     A   A
       21       21          Z     I   G      $$$  V   V       AAAAA RRRR  EEEE  AAAAA
       22       22         Z      I   G  GG   $ $ V   V       A   A R R   E     A   A
       23       23        Z       I   G   G  $$$   V V        A   A R  R  E     A   A
       24       24        ZZZZZ  III   GGG    $     V         A   A R   R EEEEE A   A
       25       25                                      _____
       26       26        */
       27       27        %EJECT;
PL6.E3A0      #001=ZIG$V_AREA File=ZIG$V_AREA.:ZIC0TSI                           FRI 09/05/97 12:16 Page:15
       28       28        ZIG$V_AREA:
       29       29            PROC;

     29 48 000000   000000 700200 xent  ZIG$V_AREA   TSX0  ! X66_AUTO_0
        48 000001   000026 000000                    ZERO    22,0
        48 000002   000022 710000 48                 TRA     s:4662

       30       30    1   DCL ZIG$HASH_IT ENTRY (8);
       31       31    1   DCL WRITSF ENTRY (2);
       32       32    1   DCL ZIG$ADD_SI ENTRY;
       33       33    1   DCL SN_DBK UBIN (36) EXT;
       34       34        %INCLUDE ZI_ERRORS_SUBS;
       35      554        %INCLUDE ZI_SUB_LANG;
       36     2269        %INCLUDE ZIG_DIR_STRUCS;
       37     2399        %GENERAL;
       38     2523        %CONTROL_BLOCK;
       39     2631    1   DCL IO_BUF CHAR (128) EXT;
       40     2632        %DESC_TYPE_200(STCLASS="REDEF IO_BUF");
       41     2685        %INCLUDE ZIG_GENERAL;
       42     2793        %INCLUDE ZIG_TYPE_SUBS;
       43     2808        %INCLUDE ZIG_SSS;
       44     3378        %SS_GENERAL(PSTCLASS=EXT);
       45     3399        %OA(PSTCLASS=EXT);
       46     3466        %OA1(PSTCLASS=EXT);
       47     3474        %AC(PSTCLASS=EXT);
       48     3569        %AC1(PSTCLASS=EXT);
       49     3577        %DP(PSTCLASS=EXT);
       50     3591        %DP1(PSTCLASS=EXT);
       51     3599        %INCLUDE ZIG_DBA_INT;
       52     3647        %INCLUDE ZI_SUB4_CAN;
       53     4304        %UWA;
       54     4639        %EJECT;
PL6.E3A0      #001=ZIG$V_AREA File=ZIG$V_AREA.:ZIC0TSI                           FRI 09/05/97 12:16 Page:16
       55     4640    1   DCL I UBIN (36);
       56     4641    1   DCL TPTR$ PTR;
       57     4642    1   DCL L_SCHEMA_AC UBIN (36);
       58     4643    1   DCL L_SUBSCH_AC UBIN (36);
       59     4644    1   DCL SUCC BIT (1);
       60     4645    1   DCL CURRENT_OFF UBIN (36) EXT;
       61     4646    1   DCL STATUS UBIN (6);
       62     4647    1   DCL ERROR_FLG UBIN (36) STATIC;
       63     4648    1   DCL LAST_AC UBIN (18) EXT;
       64     4649    1   DCL LIST_STRING CHAR (128) EXT;
       65     4650        %EJECT;
PL6.E3A0      #001=ZIG$V_AREA File=ZIG$V_AREA.:ZIC0TSI                           FRI 09/05/97 12:16 Page:17
       66     4651    1   FIND_LENGTH:

   4651 48 000003   200012 741300       FIND_LENGTH  STX1  ! STATUS+2,,AUTO

       67     4652    1       PROC(STRING_TO_GET,RETURN_LENGTH);
       68     4653    2   DCL RETURN_LENGTH UBIN (36);
       69     4654    2   DCL STRING_TO_GET CHAR (30);
       70     4655    2       CALL INDEX1(RETURN_LENGTH,' ',STRING_TO_GET) ALTRET(NOT_BLANK);

   4655 48 000004   200014 470500                    LDP0    @RETURN_LENGTH,,AUTO
        48 000005   200013 471500                    LDP1    @STRING_TO_GET,,AUTO
        48 000006   000000 124500                    SCM     mask='000'O
        48 000007   100000 000036                    ADSC9   0,,PR1                   cn=0,n=30
        48 000010   000000 000001 49                 ADSC9   0                        cn=0,n=1
        48 000011   000000 000100                    ARG     0,,PR0
        48 000012   000015 606400 48                 TTN     NOT_BLANK

       71     4656    2       RETURN;

   4656 48 000013   200012 221300                    LDX1  ! STATUS+2,,AUTO
        48 000014   000001 702211                    TSX2  ! 1,X1

       72     4657    2   NOT_BLANK:
       73     4658    2       RETURN_LENGTH = 30;

   4658 48 000015   000036 235007       NOT_BLANK    LDA     30,DL
        48 000016   200014 470500                    LDP0    @RETURN_LENGTH,,AUTO
        48 000017   000000 755100                    STA     0,,PR0

       74     4659    2       RETURN;

   4659 48 000020   200012 221300                    LDX1  ! STATUS+2,,AUTO
        48 000021   000001 702211                    TSX2  ! 1,X1

       75     4660    2   END FIND_LENGTH;
       76     4661        %EJECT;
PL6.E3A0      #001=ZIG$V_AREA File=ZIG$V_AREA.:ZIC0TSI                           FRI 09/05/97 12:16 Page:18
       77     4662    1       CALL FIND_LENGTH(TYPE_200.AREA_NAME,L_SCHEMA_AC);

   4662 48 000022   200005 630500                    EPPR0   L_SCHEMA_AC,,AUTO
        48 000023   200014 450500                    STP0    @STRING_TO_GET+1,,AUTO
        48 000024   000001 236000 49                 LDQ     1
        48 000025   200013 756100                    STQ     STATUS+3,,AUTO
        48 000026   000003 701000 48                 TSX1    FIND_LENGTH
        48 000027   000000 011000                    NOP     0

       78     4663    1       IF TYPE_200.SUB_AREA_NAME = ' '

   4663 48 000030   040000 106400                    CMPC    fill='040'O
        48 000031   000013 000036 18                 ADSC9   IO_BUF+11                cn=0,n=30
        48 000032   000000 000001 49                 ADSC9   0                        cn=0,n=1
        48 000033   000037 601000 48                 TNZ     s:4665

       79     4664    1       THEN TYPE_200.SUB_AREA_NAME = TYPE_200.AREA_NAME;

   4664 48 000034   040000 100400                    MLR     fill='040'O
        48 000035   000003 000036 18                 ADSC9   IO_BUF+3                 cn=0,n=30
        48 000036   000013 000036 18                 ADSC9   IO_BUF+11                cn=0,n=30

       80     4665    1       CALL FIND_LENGTH(TYPE_200.SUB_AREA_NAME,L_SUBSCH_AC);

   4665 48 000037   200006 630500                    EPPR0   L_SUBSCH_AC,,AUTO
        48 000040   200014 450500                    STP0    @STRING_TO_GET+1,,AUTO
        48 000041   000002 236000 49                 LDQ     2
        48 000042   200013 756100                    STQ     STATUS+3,,AUTO
        48 000043   000003 701000 48                 TSX1    FIND_LENGTH
        48 000044   000000 011000                    NOP     0

       81     4666    1       IF MOD(L_SCHEMA_AC,4) ~= 0

   4666 48 000045   200005 236100                    LDQ     L_SCHEMA_AC,,AUTO
        48 000046   000003 376007                    ANQ     3,DL
        48 000047   000057 600000 48                 TZE     s:4668

PL6.E3A0      #001=ZIG$V_AREA File=ZIG$V_AREA.:ZIC0TSI                           FRI 09/05/97 12:16 Page:19
       82     4667    1       THEN L_SCHEMA_AC = L_SCHEMA_AC + 4 - MOD(L_SCHEMA_AC,4);

   4667 48 000050   200005 236100                    LDQ     L_SCHEMA_AC,,AUTO
        48 000051   000003 376007                    ANQ     3,DL
        48 000052   200016 756100                    STQ     @RETURN_LENGTH+2,,AUTO
        48 000053   200005 236100                    LDQ     L_SCHEMA_AC,,AUTO
        48 000054   200016 136100                    SBLQ    @RETURN_LENGTH+2,,AUTO
        48 000055   000004 036007                    ADLQ    4,DL
        48 000056   200005 756100                    STQ     L_SCHEMA_AC,,AUTO

       83     4668    1       IF MOD(L_SUBSCH_AC,4) ~= 0

   4668 48 000057   200006 236100                    LDQ     L_SUBSCH_AC,,AUTO
        48 000060   000003 376007                    ANQ     3,DL
        48 000061   000071 600000 48                 TZE     s:4670

       84     4669    1       THEN L_SUBSCH_AC = L_SUBSCH_AC + 4 - MOD(L_SUBSCH_AC,4);

   4669 48 000062   200006 236100                    LDQ     L_SUBSCH_AC,,AUTO
        48 000063   000003 376007                    ANQ     3,DL
        48 000064   200016 756100                    STQ     @RETURN_LENGTH+2,,AUTO
        48 000065   200006 236100                    LDQ     L_SUBSCH_AC,,AUTO
        48 000066   200016 136100                    SBLQ    @RETURN_LENGTH+2,,AUTO
        48 000067   000004 036007                    ADLQ    4,DL
        48 000070   200006 756100                    STQ     L_SUBSCH_AC,,AUTO

       85     4670    1       ALLOCATE_END = 0; /* Allocate a start of mem */

   4670 48 000071   000000 450000 21                 STZ     ALLOCATE_END

       86     4671    1       CALL ZIG$G_DYN_MEM_6(1,AC1$);

   4671 48 000072   000005 630400 49                 EPPR0   5
        48 000073   000003 631400 49                 EPPR1   3
        48 000074   000000 701000 xent               TSX1    ZIG$G_DYN_MEM_6
        48 000075   000000 011000                    NOP     0

PL6.E3A0      #001=ZIG$V_AREA File=ZIG$V_AREA.:ZIC0TSI                           FRI 09/05/97 12:16 Page:20
       87     4672    1       I = POFFW(AC1$,SSS$);

   4672 48 000076   000000 235000 35                 LDA     SSS$
        48 000077   000022 771000                    ARL     18
        48 000100   200016 755100                    STA     @RETURN_LENGTH+2,,AUTO
        48 000101   000000 236000 39                 LDQ     AC1$
        48 000102   000022 772000                    QRL     18
        48 000103   200016 136100                    SBLQ    @RETURN_LENGTH+2,,AUTO
        48 000104   200003 756100                    STQ     I,,AUTO

       88     4673    1       IF MOD(I,2) = 0

   4673 48 000105   000001 376007                    ANQ     1,DL
        48 000106   000113 601000 48                 TNZ     s:4681

       89     4674    2       THEN DO;

       90     4675        /*
       91     4676              AC records must start on a odd word and at the moment it is on
       92     4677            a even word so skip a word.
       93     4678        */
       94     4679    2           CALL ZIG$G_DYN_MEM_6(1,AC1$);

   4679 48 000107   000005 630400 49                 EPPR0   5
        48 000110   000003 631400 49                 EPPR1   3
        48 000111   000000 701000 xent               TSX1    ZIG$G_DYN_MEM_6
        48 000112   000000 011000                    NOP     0

       95     4680    2           END;

       96     4681    1       CALL ZIG$G_DYN_MEM_6(%AC_BASE_SIZE+(L_SCHEMA_AC+L_SUBSCH_AC)/4,AC$);

   4681 48 000113   200005 236100                    LDQ     L_SCHEMA_AC,,AUTO
        48 000114   200006 036100                    ADLQ    L_SUBSCH_AC,,AUTO
        48 000115   000002 772000                    QRL     2
        48 000116   000026 036007                    ADLQ    22,DL
        48 000117   200016 756100                    STQ     @RETURN_LENGTH+2,,AUTO
PL6.E3A0      #001=ZIG$V_AREA File=ZIG$V_AREA.:ZIC0TSI                           FRI 09/05/97 12:16 Page:21
        48 000120   000007 236000 49                 LDQ     7
        48 000121   200021 756100                    STQ     @RETURN_LENGTH+5,,AUTO
        48 000122   200016 630500                    EPPR0   @RETURN_LENGTH+2,,AUTO
        48 000123   200020 450500                    STP0    @RETURN_LENGTH+4,,AUTO
        48 000124   200020 630500                    EPPR0   @RETURN_LENGTH+4,,AUTO
        48 000125   000003 631400 49                 EPPR1   3
        48 000126   000000 701000 xent               TSX1    ZIG$G_DYN_MEM_6
        48 000127   000000 011000                    NOP     0

       97     4682        /*
       98     4683              AC size = number of words in schemas area name
       99     4684                      + number of words in subschema area name
      100     4685                      + constant (22).
      101     4686        */
      102     4687    1       CALL SRCHD(TYPE_200.AREA_NAME,%ZIG_RTYPE_AC,SUCC);

   4687 48 000130   200007 630500                    EPPR0   SUCC,,AUTO
        48 000131   200020 450500                    STP0    @RETURN_LENGTH+4,,AUTO
        48 000132   000012 237000 49                 LDAQ    10
        48 000133   200016 757100                    STAQ    @RETURN_LENGTH+2,,AUTO
        48 000134   200016 630500                    EPPR0   @RETURN_LENGTH+2,,AUTO
        48 000135   000010 631400 49                 EPPR1   8
        48 000136   000000 701000 xent               TSX1    SRCHD
        48 000137   000000 011000                    NOP     0

      103     4688    1       IF TYPE_200.REF_LINE ~= 0

   4688 48 000140   000001 235000 18                 LDA     IO_BUF+1
        48 000141   000147 600000 48                 TZE     s:4693

      104     4689    2       THEN DO;

      105     4690    2           SN_DBK = UWA.DIRECT_REF;

   4690 48 000142   000036 236000 42                 LDQ     UWA+30
        48 000143   000000 756000 0                  STQ     SN_DBK

PL6.E3A0      #001=ZIG$V_AREA File=ZIG$V_AREA.:ZIC0TSI                           FRI 09/05/97 12:16 Page:22
      106     4691    2           CALL ZIG$ADD_SI;

   4691 48 000144   000014 631400 49                 EPPR1   12
        48 000145   000000 701000 xent               TSX1    ZIG$ADD_SI
        48 000146   000000 011000                    NOP     0

      107     4692    2           END;

      108     4693    1       CALL FETCHNS_6('SN-SE   ') ALTRET (DBCS_ERROR);

   4693 48 000147   000016 630400 49                 EPPR0   14
        48 000150   000015 631400 49                 EPPR1   13
        48 000151   000000 701000 xent               TSX1    FETCHNS_6
        48 000152   000711 702000 48                 TSX2    DBCS_ERROR

      109     4694    1       IF ~SUCC

   4694 48 000153   200007 236100                    LDQ     SUCC,,AUTO
        48 000154   400000 376003                    ANQ     -131072,DU
        48 000155   400000 676003                    ERQ     -131072,DU
        48 000156   000170 600000 48                 TZE     s:4704

      110     4695    2       THEN DO;

      111     4696    2           CALL SET_FIELDS(1,30,TYPE_200.AREA_NAME);

   4696 48 000157   000020 630400 49                 EPPR0   16
        48 000160   000010 631400 49                 EPPR1   8
        48 000161   000000 701000 xent               TSX1    SET_FIELDS
        48 000162   000000 011000                    NOP     0

      112     4697    2           CALL ERROR(%ZIG_V_AREA_NAME);

   4697 48 000163   000024 630400 49                 EPPR0   20
        48 000164   000015 631400 49                 EPPR1   13
        48 000165   000000 701000 xent               TSX1    ERROR
        48 000166   000000 011000                    NOP     0
PL6.E3A0      #001=ZIG$V_AREA File=ZIG$V_AREA.:ZIC0TSI                           FRI 09/05/97 12:16 Page:23

      113     4698        /*E*     ERROR:    ZIG-ZIG_V_AREA_NAME-C
      114     4699        MESSAGE: The area "%U1" is not present in the schema file.
      115     4700        */
      116     4701    2           RETURN;

   4701 48 000167   000000 702200 xent               TSX2  ! X66_ARET

      117     4702    2           END;
      118     4703    2       ELSE DO;

      119     4704    2           CURRENT_OFF = POFFW(AC$,SSS$);

   4704 48 000170   000000 235000 35                 LDA     SSS$
        48 000171   000022 771000                    ARL     18
        48 000172   200016 755100                    STA     @RETURN_LENGTH+2,,AUTO
        48 000173   000000 236000 38                 LDQ     AC$
        48 000174   000022 772000                    QRL     18
        48 000175   200016 136100                    SBLQ    @RETURN_LENGTH+2,,AUTO
        48 000176   000000 756000 43                 STQ     CURRENT_OFF

      120     4705    2           STATUS = #IN_ALIAS;

   4705 48 000177   060000 236003                    LDQ     24576,DU
        48 000200   200010 756100                    STQ     STATUS,,AUTO

      121     4706    2           ALLOCATE_END = 1;

   4706 48 000201   000001 235007                    LDA     1,DL
        48 000202   000000 755000 21                 STA     ALLOCATE_END

      122     4707    2           HASH_SCHEMA_NAME = '1'B;

   4707 48 000203   400000 236003                    LDQ     -131072,DU
        48 000204   000000 756000 15                 STQ     HASH_SCHEMA_NAME

      123     4708    2           CALL ZIG$HASH_IT(TYPE_200.AREA_NAME,#ADD,ERROR_FLG,1,2,12,
PL6.E3A0      #001=ZIG$V_AREA File=ZIG$V_AREA.:ZIC0TSI                           FRI 09/05/97 12:16 Page:24

   4708 48 000205   200010 630500                    EPPR0   STATUS,,AUTO
        48 000206   200025 450500                    STP0    @RETURN_LENGTH+9,,AUTO
        48 000207   200004 631500                    EPPR1   TPTR$,,AUTO
        48 000210   200024 451500                    STP1    @RETURN_LENGTH+8,,AUTO
        48 000211   000030 237000 49                 LDAQ    24
        48 000212   200022 757100                    STAQ    @RETURN_LENGTH+6,,AUTO
        48 000213   000032 237000 49                 LDAQ    26
        48 000214   200020 757100                    STAQ    @RETURN_LENGTH+4,,AUTO
        48 000215   000034 237000 49                 LDAQ    28
        48 000216   200016 757100                    STAQ    @RETURN_LENGTH+2,,AUTO
        48 000217   200016 630500                    EPPR0   @RETURN_LENGTH+2,,AUTO
        48 000220   000025 631400 49                 EPPR1   21
        48 000221   000000 701000 xent               TSX1    ZIG$HASH_IT
        48 000222   000000 011000                    NOP     0

      124     4709    2              TPTR$,STATUS);
      125     4710    2           ALLOCATE_END = 0;

   4710 48 000223   000000 450000 21                 STZ     ALLOCATE_END

      126     4711    2           TPTR$ -> AREA_HASH.REF = TYPE_200.REF_LINE;

   4711 48 000224   200004 470500                    LDP0    TPTR$,,AUTO
        48 000225   000001 235000 18                 LDA     IO_BUF+1
        48 000226   000011 755100                    STA     9,,PR0

      127     4712    2           TPTR$ -> AREA_HASH.SUB_OFF = CURRENT_OFF;

   4712 48 000227   000000 236000 43                 LDQ     CURRENT_OFF
        48 000230   000012 756100                    STQ     10,,PR0

      128     4713    2           TPTR$ -> AREA_HASH.DBK = UWA.DIRECT_REF;

   4713 48 000231   000036 235000 42                 LDA     UWA+30
        48 000232   000013 755100                    STA     11,,PR0

PL6.E3A0      #001=ZIG$V_AREA File=ZIG$V_AREA.:ZIC0TSI                           FRI 09/05/97 12:16 Page:25
      129     4714        /*
      130     4715              Initialize the area in the hash table for fast access and
      131     4716            fast finding of that name.
      132     4717              There can be not dups or errors at this point since we had
      133     4718            a successful subschema translation and we have found the AC
      134     4719            record in the schema file.
      135     4720        */
      136     4721        /*
      137     4722              Now initialize the OA record in the schema subset and
      138     4723            connect it up to the OA-AC set.
      139     4724
      140     4725            Note:
      141     4726                 The OA record allways starts a offset of 1 from SSS$
      142     4727               and OA$ always points to the only OA record.
      143     4728        */
      144     4729    2           TPTR$ = PINCRW(SSS$,LAST_AC);

   4729 48 000233   000000 236000 45                 LDQ     LAST_AC
        48 000234   777777 376003                    ANQ     -1,DU
        48 000235   000000 036000 35                 ADLQ    SSS$
        48 000236   200004 756100                    STQ     TPTR$,,AUTO

      145     4730    2           AC.OAACN = TPTR$ -> AC.OAACN;

   4730 48 000237   200004 470500                    LDP0    TPTR$,,AUTO
        48 000240   000001 220100                    LDX0    1,,PR0
        48 000241   000000 471400 38                 LDP1    AC$
        48 000242   100001 740100                    STX0    1,,PR1

      146     4731    2           TPTR$ -> AC.OAACN = CURRENT_OFF;

   4731 48 000243   000000 721000 43                 LXL1    CURRENT_OFF
        48 000244   200004 470500                    LDP0    TPTR$,,AUTO
        48 000245   000001 741100                    STX1    1,,PR0

      147     4732    2           LAST_AC = CURRENT_OFF;

PL6.E3A0      #001=ZIG$V_AREA File=ZIG$V_AREA.:ZIC0TSI                           FRI 09/05/97 12:16 Page:26
   4732 48 000246   000000 741000 45                 STX1    LAST_AC

      148     4733    2           OA.ACNT = OA.ACNT + 1;

   4733 48 000247   000000 470400 36                 LDP0    OA$
        48 000250   000016 720100                    LXL0    14,,PR0
        48 000251   000001 622010                    EAX2    1,X0
        48 000252   000016 442100                    SXL2    14,,PR0

      149     4734    2           AC.DEF.TYPE = '010000000000'B;

   4734 48 000253   200000 236003                    LDQ     65536,DU
        48 000254   100000 752160                    STCQ    0,'60'O,PR1

      150     4735    2           IF UWA.AC.PAGE_TYP = 3

   4735 48 000255   000237 235000 42                 LDA     UWA+159
        48 000256   000003 115007                    CMPA    3,DL
        48 000257   000264 601000 48                 TNZ     s:4740

      151     4736    3           THEN DO;

      152     4737    3               AC.DEF.ORG.INDEXED = '1'B;

   4737 48 000260   000000 470400 38                 LDP0    AC$
        48 000261   000010 236003                    LDQ     8,DU
        48 000262   000000 256100                    ORSQ    0,,PR0

      153     4738    3               END;

   4738 48 000263   000275 710000 48                 TRA     s:4745

      154     4739    3           ELSE DO;

      155     4740    3               IF UWA.AC.PRIME_KEY=1 OR UWA.AC.SEC_KEY = 1

   4740 48 000264   000234 235000 42                 LDA     UWA+156
PL6.E3A0      #001=ZIG$V_AREA File=ZIG$V_AREA.:ZIC0TSI                           FRI 09/05/97 12:16 Page:27
        48 000265   000001 115007                    CMPA    1,DL
        48 000266   000272 600000 48                 TZE     s:4742
        48 000267   000235 235000 42                 LDA     UWA+157
        48 000270   000001 115007                    CMPA    1,DL
        48 000271   000275 601000 48                 TNZ     s:4745

      156     4741    4               THEN DO;

      157     4742    4                   AC.DEF.ORG.KEYED = '1'B;

   4742 48 000272   000000 470400 38                 LDP0    AC$
        48 000273   000004 236003                    LDQ     4,DU
        48 000274   000000 256100                    ORSQ    0,,PR0

      158     4743    4                   END;

      159     4744    3               END;

      160     4745    2           IF UWA.AC.CALC_NULL = 1

   4745 48 000275   000241 235000 42                 LDA     UWA+161
        48 000276   000001 115007                    CMPA    1,DL
        48 000277   000303 601000 48                 TNZ     s:4747

      161     4746    2           THEN AC.DEF.NCIA = '1'B;

   4746 48 000300   000000 470400 38                 LDP0    AC$
        48 000301   000002 236003                    LDQ     2,DU
        48 000302   000000 256100                    ORSQ    0,,PR0

      162     4747    2           IF UWA.AC.PERMTYPE = 1

   4747 48 000303   000236 235000 42                 LDA     UWA+158
        48 000304   000001 115007                    CMPA    1,DL
        48 000305   000311 601000 48                 TNZ     s:4749

      163     4748    2           THEN AC.DEF.ATMP = '1'B;
PL6.E3A0      #001=ZIG$V_AREA File=ZIG$V_AREA.:ZIC0TSI                           FRI 09/05/97 12:16 Page:28

   4748 48 000306   000000 470400 38                 LDP0    AC$
        48 000307   000100 236007                    LDQ     64,DL
        48 000310   000000 256100                    ORSQ    0,,PR0

      164     4749    2           AC.DEF.ITHR = UWA.AC.PER_INV;

   4749 48 000311   000000 470400 38                 LDP0    AC$
        48 000312   000240 236000 42                 LDQ     UWA+160
        48 000313   000011 736000                    QLS     9
        48 000314   000000 552110                    STBQ    0,'10'O,PR0

      165     4750    2           CALL FIND_LENGTH(TYPE_200.SUB_AREA_NAME,I);

   4750 48 000315   200003 630500                    EPPR0   I,,AUTO
        48 000316   200014 450500                    STP0    @STRING_TO_GET+1,,AUTO
        48 000317   000002 236000 49                 LDQ     2
        48 000320   200013 756100                    STQ     STATUS+3,,AUTO
        48 000321   000003 701000 48                 TSX1    FIND_LENGTH
        48 000322   000000 011000                    NOP     0

      166     4751    2           AC.DEF.ANL = I;

   4751 48 000323   000000 470400 38                 LDP0    AC$
        48 000324   200003 236100                    LDQ     I,,AUTO
        48 000325   000000 752101                    STCQ    0,'01'O,PR0

      167     4752    2           AC.ABAS = UWA.AC.BASE_DBK;

   4752 48 000326   000000 470400 38                 LDP0    AC$
        48 000327   000242 235000 42                 LDA     UWA+162
        48 000330   000002 755100                    STA     2,,PR0

      168     4753    2           AC.WSOF = OA.CSZ + %CUR_BASE_SIZE;

   4753 48 000331   000000 471400 36                 LDP1    OA$
        48 000332   100017 220100                    LDX0    15,,PR1
PL6.E3A0      #001=ZIG$V_AREA File=ZIG$V_AREA.:ZIC0TSI                           FRI 09/05/97 12:16 Page:29
        48 000333   001223 621010                    EAX1    659,X0
        48 000334   000003 741100                    STX1    3,,PR0

      169     4754    2           IF AC.DEF.ORG.INDEXED

   4754 48 000335   000000 236100                    LDQ     0,,PR0
        48 000336   000010 316003                    CANQ    8,DU
        48 000337   000375 600000 48                 TZE     s:4763

      170     4755    3           THEN DO;

      171     4756    3               CALL FINDNS_6('AC-RA   ') ALTRET (DBCS_ERROR);

   4756 48 000340   000036 630400 49                 EPPR0   30
        48 000341   000015 631400 49                 EPPR1   13
        48 000342   000000 701000 xent               TSX1    FINDNS_6
        48 000343   000711 702000 48                 TSX2    DBCS_ERROR

      172     4757    3               CALL FINDOS_6('RC-RA   ') ALTRET (DBCS_ERROR);

   4757 48 000344   000037 630400 49                 EPPR0   31
        48 000345   000015 631400 49                 EPPR1   13
        48 000346   000000 701000 xent               TSX1    FINDOS_6
        48 000347   000711 702000 48                 TSX2    DBCS_ERROR

      173     4758    3               CALL FINDNS_6('RC-SOSM ') ALTRET (DBCS_ERROR);

   4758 48 000350   000040 630400 49                 EPPR0   32
        48 000351   000015 631400 49                 EPPR1   13
        48 000352   000000 701000 xent               TSX1    FINDNS_6
        48 000353   000711 702000 48                 TSX2    DBCS_ERROR

      174     4759    3               CALL FETCHOS_6('SC-SOSM ') ALTRET (DBCS_ERROR);

   4759 48 000354   000041 630400 49                 EPPR0   33
        48 000355   000015 631400 49                 EPPR1   13
        48 000356   000000 701000 xent               TSX1    FETCHOS_6
PL6.E3A0      #001=ZIG$V_AREA File=ZIG$V_AREA.:ZIC0TSI                           FRI 09/05/97 12:16 Page:30
        48 000357   000711 702000 48                 TSX2    DBCS_ERROR

      175     4760    3               OA.CSZ = OA.CSZ + %CUR_AC + (UWA.SC.KEY_LENGTH +1+2+4+3)/4;

   4760 48 000360   000324 236000 42                 LDQ     UWA+212
        48 000361   000012 036007                    ADLQ    10,DL
        48 000362   000004 506007                    DIV     4,DL
        48 000363   000000 470400 36                 LDP0    OA$
        48 000364   200016 756100                    STQ     @RETURN_LENGTH+2,,AUTO
        48 000365   000017 236100                    LDQ     15,,PR0
        48 000366   000022 772000                    QRL     18
        48 000367   200017 756100                    STQ     @RETURN_LENGTH+3,,AUTO
        48 000370   200016 236100                    LDQ     @RETURN_LENGTH+2,,AUTO
        48 000371   200017 036100                    ADLQ    @RETURN_LENGTH+3,,AUTO
        48 000372   000012 620006                    EAX0    10,QL
        48 000373   000017 740100                    STX0    15,,PR0

      176     4761    3               END;

   4761 48 000374   000400 710000 48                 TRA     s:4765

      177     4762    3           ELSE DO;

      178     4763    3               OA.CSZ = OA.CSZ + %CUR_AC;

   4763 48 000375   100017 220100                    LDX0    15,,PR1
        48 000376   000012 622010                    EAX2    10,X0
        48 000377   100017 742100                    STX2    15,,PR1

      179     4764    3               END;

      180     4765    2           AC.ACID = TYPE_200.ID_NUM;

   4765 48 000400   000023 720000 18                 LXL0    IO_BUF+19
        48 000401   000000 470400 38                 LDP0    AC$
        48 000402   000003 440100                    SXL0    3,,PR0

PL6.E3A0      #001=ZIG$V_AREA File=ZIG$V_AREA.:ZIC0TSI                           FRI 09/05/97 12:16 Page:31
      181     4766    2           AC.PLSEP = 36 - UWA.AC.LINE_BITS;

   4766 48 000403   000255 721000 42                 LXL1    UWA+173
        48 000404   777733 621011                    EAX1    -37,X1
        48 000405   777777 661003                    ERX1    -1,DU
        48 000406   000004 741100                    STX1    4,,PR0

      182     4767    2           AC.BLP = UWA.AC.LINE_BITS;

   4767 48 000407   000255 722000 42                 LXL2    UWA+173
        48 000410   000004 442100                    SXL2    4,,PR0

      183     4768    2           AC.SANAM.EIS.REG = 6;

   4768 48 000411   000005 236100                    LDQ     5,,PR0
        48 000412   000042 376000 49                 ANQ     34
        48 000413   600000 276003                    ORQ     -65536,DU
        48 000414   000005 756100                    STQ     5,,PR0

      184     4769    2           AC.SANAM.EIS.OFFSET.WD = %AC_BASE_SIZE + (L_SUBSCH_AC)/4 +

   4769 48 000415   200006 236100                    LDQ     L_SUBSCH_AC,,AUTO
        48 000416   000002 772000                    QRL     2
        48 000417   000000 036000 43                 ADLQ    CURRENT_OFF
        48 000420   000026 036007                    ADLQ    22,DL
        48 000421   000022 736000                    QLS     18
        48 000422   000005 676100                    ERQ     5,,PR0
        48 000423   077777 376003                    ANQ     32767,DU
        48 000424   000005 656100                    ERSQ    5,,PR0

      185     4770    2              CURRENT_OFF;
      186     4771    2           CALL FIND_LENGTH(TYPE_200.AREA_NAME,I);

   4771 48 000425   200003 631500                    EPPR1   I,,AUTO
        48 000426   200014 451500                    STP1    @STRING_TO_GET+1,,AUTO
        48 000427   000001 236000 49                 LDQ     1
        48 000430   200013 756100                    STQ     STATUS+3,,AUTO
PL6.E3A0      #001=ZIG$V_AREA File=ZIG$V_AREA.:ZIC0TSI                           FRI 09/05/97 12:16 Page:32
        48 000431   000003 701000 48                 TSX1    FIND_LENGTH
        48 000432   000000 011000                    NOP     0

      187     4772    2           AC.SANAM.EIS.COUNT = I;

   4772 48 000433   000000 470400 38                 LDP0    AC$
        48 000434   200003 236100                    LDQ     I,,AUTO
        48 000435   000005 752103                    STCQ    5,'03'O,PR0

      188     4773    2           AC.PGLIM.LOWPG = UWA.AC.MIN_PAGE;

   4773 48 000436   000247 235000 42                 LDA     UWA+167
        48 000437   000006 755100                    STA     6,,PR0

      189     4774    2           AC.PGLIM.HIGHPG = UWA.AC.MAX_PAGE;

   4774 48 000440   000250 235000 42                 LDA     UWA+168
        48 000441   000007 755100                    STA     7,,PR0

      190     4775    2           AC.DBLIM.LOWDBK = UWA.AC.MIN_DBK;

   4775 48 000442   000245 235000 42                 LDA     UWA+165
        48 000443   000010 755100                    STA     8,,PR0

      191     4776    2           AC.DBLIM.HIGHDBK = UWA.AC.MAX_DBK;

   4776 48 000444   000246 235000 42                 LDA     UWA+166
        48 000445   000011 755100                    STA     9,,PR0

      192     4777    2           AC.LPP = UWA.AC.DBK_PAGE;

   4777 48 000446   000253 720000 42                 LXL0    UWA+171
        48 000447   000012 440100                    SXL0    10,,PR0

      193     4778    2           AC.INTVL = UWA.AC.DBK_CALC;

   4778 48 000450   000254 721000 42                 LXL1    UWA+172
PL6.E3A0      #001=ZIG$V_AREA File=ZIG$V_AREA.:ZIC0TSI                           FRI 09/05/97 12:16 Page:33
        48 000451   000013 441100                    SXL1    11,,PR0

      194     4779    2           AC.INVT = UWA.AC.INV_THRESH;

   4779 48 000452   000256 722000 42                 LXL2    UWA+174
        48 000453   000014 742100                    STX2    12,,PR0

      195     4780    2           AC.PGSZ = UWA.AC.PAGE_SIZE;

   4780 48 000454   000262 723000 42                 LXL3    UWA+178
        48 000455   000014 443100                    SXL3    12,,PR0

      196     4781    2           I = UWA.AC.KEYS_ALLOC + UWA.AC.KEYS_RSRVD;

   4781 48 000456   000243 236000 42                 LDQ     UWA+163
        48 000457   000244 036000 42                 ADLQ    UWA+164
        48 000460   200003 756100                    STQ     I,,AUTO

      197     4782    2           IF I < BITBIN('111111111111111111'B)

   4782 48 000461   777777 116007                    CMPQ    -1,DL
        48 000462   000466 603000 48                 TRC     s:4784

      198     4783    2           THEN AC.BPLDBK = 2;

   4783 48 000463   000002 224003                    LDX4    2,DU
        48 000464   000015 744100                    STX4    13,,PR0
        48 000465   000500 710000 48                 TRA     s:4787

      199     4784    2           ELSE IF I < BITBIN('111111111111111111111111111'B)

   4784 48 000466   000012 236000 47                 LDQ     10
        48 000467   000011 772000                    QRL     9
        48 000470   200003 116100                    CMPQ    I,,AUTO
        48 000471   000476 602000 48                 TNC     s:4786
        48 000472   000476 600000 48                 TZE     s:4786

PL6.E3A0      #001=ZIG$V_AREA File=ZIG$V_AREA.:ZIC0TSI                           FRI 09/05/97 12:16 Page:34
      200     4785    2               THEN AC.BPLDBK = 3;

   4785 48 000473   000003 224003                    LDX4    3,DU
        48 000474   000015 744100                    STX4    13,,PR0
        48 000475   000500 710000 48                 TRA     s:4787

      201     4786    2               ELSE AC.BPLDBK = 4;

   4786 48 000476   000004 224003                    LDX4    4,DU
        48 000477   000015 744100                    STX4    13,,PR0

      202     4787    2           AC.FLAGS = UWA.AC.FLAGS;

   4787 48 000500   000233 225000 42                 LDX5    UWA+155
        48 000501   000015 445100                    SXL5    13,,PR0

      203     4788    2           AC.IUSZ = UWA.AC.INV_UNIT;

   4788 48 000502   000261 726000 42                 LXL6    UWA+177
        48 000503   000017 446100                    SXL6    15,,PR0

      204     4789    2           AC.DPPI = UWA.AC.PGS_INV_PG;

   4789 48 000504   000260 727000 42                 LXL7    UWA+176
        48 000505   000020 447100                    SXL7    16,,PR0

      205     4790    2           AC.FIPN = UWA.AC.FRST_INV_PG;

   4790 48 000506   000252 236000 42                 LDQ     UWA+170
        48 000507   000021 756100                    STQ     17,,PR0

      206     4791    2           AC.CLCN = UWA.AC.CALC_NEXT_STRUCT;

   4791 48 000510   000265 236000 42                 LDQ     UWA+181
        48 000511   000022 756100                    STQ     18,,PR0

      207     4792    2           AC.CLCP = UWA.AC.CALC_PRIOR_STRUCT;
PL6.E3A0      #001=ZIG$V_AREA File=ZIG$V_AREA.:ZIC0TSI                           FRI 09/05/97 12:16 Page:35

   4792 48 000512   000266 236000 42                 LDQ     UWA+182
        48 000513   000023 756100                    STQ     19,,PR0

      208     4793    2           AC.ANAM = TYPE_200.SUB_AREA_NAME;

   4793 48 000514   000000 720100                    LXL0    0,,PR0
        48 000515   000077 360003                    ANX0    63,DU
        48 000516   040140 100400                    MLR     fill='040'O
        48 000517   000013 000036 18                 ADSC9   IO_BUF+11                cn=0,n=30
        48 000520   000026 000010                    ADSC9   22,,PR0                  cn=0,n=*X0

      209     4794    2           TPTR$ = PINCRW(SSS$,AC.SANAM.EIS.OFFSET.WD);

   4794 48 000521   000005 220100                    LDX0    5,,PR0
        48 000522   077777 360003                    ANX0    32767,DU
        48 000523   000000 636010                    EAQ     0,X0
        48 000524   000000 036000 35                 ADLQ    SSS$
        48 000525   200004 756100                    STQ     TPTR$,,AUTO

      210     4795    2           CALL INSERT(TPTR$ -> SANAME,0,AC.SANAM.EIS.COUNT,

   4795 48 000526   000005 720100                    LXL0    5,,PR0
        48 000527   007777 360003                    ANX0    4095,DU
        48 000530   000005 721100                    LXL1    5,,PR0
        48 000531   007777 361003                    ANX1    4095,DU
        48 000532   200004 471500                    LDP1    TPTR$,,AUTO
        48 000533   040140 100440                    MLR     fill='040'O
        48 000534   000003 000010 18                 ADSC9   IO_BUF+3                 cn=0,n=*X0
        48 000535   100000 000011                    ADSC9   0,,PR1                   cn=0,n=*X1

      211     4796    2              SUBSTR(TYPE_200.AREA_NAME,0,AC.SANAM.EIS.COUNT));
      212     4797    2           END;

      213     4798    1       TYPE_200.AREA_BITS.CHKSUM = AC.FLAGS.CHKSUM;

   4798 48 000536   000000 470400 38                 LDP0    AC$
PL6.E3A0      #001=ZIG$V_AREA File=ZIG$V_AREA.:ZIC0TSI                           FRI 09/05/97 12:16 Page:36
        48 000537   000015 236100                    LDQ     13,,PR0
        48 000540   000021 736000                    QLS     17
        48 000541   000024 676000 18                 ERQ     IO_BUF+20
        48 000542   200000 376003                    ANQ     65536,DU
        48 000543   000024 656000 18                 ERSQ    IO_BUF+20

      214     4799    1       TYPE_200.AREA_BITS.ENCRP = AC.FLAGS.ENCRP;

   4799 48 000544   000015 236100                    LDQ     13,,PR0
        48 000545   000021 736000                    QLS     17
        48 000546   000024 676000 18                 ERQ     IO_BUF+20
        48 000547   100000 376003                    ANQ     32768,DU
        48 000550   000024 656000 18                 ERSQ    IO_BUF+20

      215     4800    1       TYPE_200.AREA_BITS.CJRNL = AC.FLAGS.CJRNL;

   4800 48 000551   000015 236100                    LDQ     13,,PR0
        48 000552   000021 736000                    QLS     17
        48 000553   000024 676000 18                 ERQ     IO_BUF+20
        48 000554   040000 376003                    ANQ     16384,DU
        48 000555   000024 656000 18                 ERSQ    IO_BUF+20

      216     4801    1       TYPE_200.AREA_BITS.TMPLT = AC.FLAGS.TMPLT;

   4801 48 000556   000015 236100                    LDQ     13,,PR0
        48 000557   000021 736000                    QLS     17
        48 000560   000024 676000 18                 ERQ     IO_BUF+20
        48 000561   020000 376003                    ANQ     8192,DU
        48 000562   000024 656000 18                 ERSQ    IO_BUF+20

      217     4802    1       TYPE_200.AREA_BITS.TJRNL = AC.FLAGS.TJRNL;

   4802 48 000563   000015 236100                    LDQ     13,,PR0
        48 000564   000021 736000                    QLS     17
        48 000565   000024 676000 18                 ERQ     IO_BUF+20
        48 000566   010000 376003                    ANQ     4096,DU
        48 000567   000024 656000 18                 ERSQ    IO_BUF+20
PL6.E3A0      #001=ZIG$V_AREA File=ZIG$V_AREA.:ZIC0TSI                           FRI 09/05/97 12:16 Page:37

      218     4803    1       TYPE_200.AREA_BITS.TEMPORARY = AC.DEF.ATMP;

   4803 48 000570   000000 236100                    LDQ     0,,PR0
        48 000571   000027 736000                    QLS     23
        48 000572   000024 676000 18                 ERQ     IO_BUF+20
        48 000573   004000 376003                    ANQ     2048,DU
        48 000574   000024 656000 18                 ERSQ    IO_BUF+20

      219     4804    1       CALL WRITSF(CURRENT_RECORD,IO_BUF);

   4804 48 000575   000043 630400 49                 EPPR0   35
        48 000576   000003 631400 49                 EPPR1   3
        48 000577   000000 701000 xent               TSX1    WRITSF
        48 000600   000000 011000                    NOP     0

      220     4805        /*
      221     4806              This is the place that the data base procedures things
      222     4807            will be put in so when the time comes good luck.
      223     4808        */
      224     4809    1       IF VALIDS.AREA_XREF

   4809 48 000601   000000 236000 5                  LDQ     VALIDS
        48 000602   000040 316003                    CANQ    32,DU
        48 000603   000710 600000 48                 TZE     s:4840

      225     4810    2       THEN DO;

      226     4811    2           LIST_STRING = ' ';

   4811 48 000604   040000 100400                    MLR     fill='040'O
        48 000605   000000 000001 49                 ADSC9   0                        cn=0,n=1
        48 000606   000000 000200 46                 ADSC9   LIST_STRING              cn=0,n=128

      227     4812    2           CALL LIST(LIST_STRING);

   4812 48 000607   000045 630400 49                 EPPR0   37
PL6.E3A0      #001=ZIG$V_AREA File=ZIG$V_AREA.:ZIC0TSI                           FRI 09/05/97 12:16 Page:38
        48 000610   000015 631400 49                 EPPR1   13
        48 000611   000000 701000 xent               TSX1    LIST
        48 000612   000000 011000                    NOP     0

      228     4813    2           CALL CONCAT(LIST_STRING,'      AREA NAME IS ',TYPE_200.SUB_AREA_NAME);

   4813 48 000613   040000 100400                    MLR     fill='040'O
        48 000614   000013 000023 47                 ADSC9   11                       cn=0,n=19
        48 000615   000000 000023 46                 ADSC9   LIST_STRING              cn=0,n=19
        48 000616   040000 100400                    MLR     fill='040'O
        48 000617   000013 000036 18                 ADSC9   IO_BUF+11                cn=0,n=30
        48 000620   000004 600155 46                 ADSC9   LIST_STRING+4            cn=3,n=109

      229     4814    2           CALL LIST(LIST_STRING);

   4814 48 000621   000045 630400 49                 EPPR0   37
        48 000622   000015 631400 49                 EPPR1   13
        48 000623   000000 701000 xent               TSX1    LIST
        48 000624   000000 011000                    NOP     0

      230     4815    2           IF AC.DEF.ATMP

   4815 48 000625   000000 470400 38                 LDP0    AC$
        48 000626   000000 236100                    LDQ     0,,PR0
        48 000627   000100 316007                    CANQ    64,DL
        48 000630   000640 600000 48                 TZE     s:4820

      231     4816    3           THEN DO;

      232     4817    3               LIST_STRING = '           AREA IS TEMPORARY.';

   4817 48 000631   040000 100400                    MLR     fill='040'O
        48 000632   000020 000035 47                 ADSC9   16                       cn=0,n=29
        48 000633   000000 000200 46                 ADSC9   LIST_STRING              cn=0,n=128

      233     4818    3               CALL LIST(LIST_STRING);

PL6.E3A0      #001=ZIG$V_AREA File=ZIG$V_AREA.:ZIC0TSI                           FRI 09/05/97 12:16 Page:39
   4818 48 000634   000045 630400 49                 EPPR0   37
        48 000635   000015 631400 49                 EPPR1   13
        48 000636   000000 701000 xent               TSX1    LIST
        48 000637   000000 011000                    NOP     0

      234     4819    3               END;

      235     4820    3           DO CASE (AC.DEF.FORG);

   4820 48 000640   000000 470400 38                 LDP0    AC$
        48 000641   000000 236100                    LDQ     0,,PR0
        48 000642   000024 772000                    QRL     20
        48 000643   000017 376007                    ANQ     15,DL
        48 000644   000004 116007                    CMPQ    4,DL
        48 000645   000647 602006 48                 TNC     s:4820+7,QL
        48 000646   000673 710000 48                 TRA     s:4830
        48 000647   000653 710000 48                 TRA     s:4822
        48 000650   000657 710000 48                 TRA     s:4824
        48 000651   000663 710000 48                 TRA     s:4826
        48 000652   000667 710000 48                 TRA     s:4828

      236     4821    3           CASE (0);

      237     4822    3               LIST_STRING = '           (AREA IS INTEGRATED)';

   4822 48 000653   040000 100400                    MLR     fill='040'O
        48 000654   000030 000037 47                 ADSC9   24                       cn=0,n=31
        48 000655   000000 000200 46                 ADSC9   LIST_STRING              cn=0,n=128
        48 000656   000704 710000 48                 TRA     s:4838

      238     4823    3           CASE (1);

      239     4824    3               LIST_STRING = '           (AREA IS INTEGRATED WITH RECORD KEYS)';

   4824 48 000657   040000 100400                    MLR     fill='040'O
        48 000660   000040 000060 47                 ADSC9   32                       cn=0,n=48
        48 000661   000000 000200 46                 ADSC9   LIST_STRING              cn=0,n=128
PL6.E3A0      #001=ZIG$V_AREA File=ZIG$V_AREA.:ZIC0TSI                           FRI 09/05/97 12:16 Page:40
        48 000662   000704 710000 48                 TRA     s:4838

      240     4825    3           CASE (2);

      241     4826    3               LIST_STRING = '           (AREA IS INDEXED)';

   4826 48 000663   040000 100400                    MLR     fill='040'O
        48 000664   000054 000034 47                 ADSC9   44                       cn=0,n=28
        48 000665   000000 000200 46                 ADSC9   LIST_STRING              cn=0,n=128
        48 000666   000704 710000 48                 TRA     s:4838

      242     4827    3           CASE (3);

      243     4828    3               LIST_STRING = '           (AREA IS INDEXED WITH RECORD KEYS)';

   4828 48 000667   040000 100400                    MLR     fill='040'O
        48 000670   000063 000055 47                 ADSC9   51                       cn=0,n=45
        48 000671   000000 000200 46                 ADSC9   LIST_STRING              cn=0,n=128
        48 000672   000704 710000 48                 TRA     s:4838

      244     4829    3           CASE (ELSE);

      245     4830    3               CALL SET_FIELDS(1,30,TYPE_200.AREA_NAME);

   4830 48 000673   000020 630400 49                 EPPR0   16
        48 000674   000010 631400 49                 EPPR1   8
        48 000675   000000 701000 xent               TSX1    SET_FIELDS
        48 000676   000000 011000                    NOP     0

      246     4831    3               CALL ERROR(%ZIG_AREA_SOFT_ERR);

   4831 48 000677   000047 630400 49                 EPPR0   39
        48 000700   000015 631400 49                 EPPR1   13
        48 000701   000000 701000 xent               TSX1    ERROR
        48 000702   000000 011000                    NOP     0

      247     4832        /*E*     ERROR:    ZIG-ZIG_AREA_SOFT_ERR-C
PL6.E3A0      #001=ZIG$V_AREA File=ZIG$V_AREA.:ZIC0TSI                           FRI 09/05/97 12:16 Page:41
      248     4833        MESSAGE: For the area "%U1" the type is not defined.
      249     4834                 <<<< SOFTWARE ERROR >>>>
      250     4835        */
      251     4836    3               RETURN;

   4836 48 000703   000000 702200 xent               TSX2  ! X66_ARET

      252     4837    3               END;

      253     4838    2           CALL LIST(LIST_STRING);

   4838 48 000704   000045 630400 49                 EPPR0   37
        48 000705   000015 631400 49                 EPPR1   13
        48 000706   000000 701000 xent               TSX1    LIST
        48 000707   000000 011000                    NOP     0

      254     4839    2           END;

      255     4840    1       RETURN;

   4840 48 000710   000000 702200 xent               TSX2  ! X66_ARET

      256     4841    1   DBCS_ERROR:
      257     4842    1       CALL ABORT;

   4842 48 000711   000014 631400 49    DBCS_ERROR   EPPR1   12
        48 000712   000000 701000 xent               TSX1    ABORT
        48 000713   000000 011000                    NOP     0

      258     4843    1   END ZIG$V_AREA;

   4843 48 000714   000000 702200 xent               TSX2  ! X66_ARET

ANALS
 Sect OctLoc
   1     000   ****** ******   ****** ******   ****** ******   ****** ******    ................

PL6.E3A0      #001=ZIG$V_AREA File=ZIG$V_AREA.:ZIC0TSI                           FRI 09/05/97 12:16 Page:42
PURGE
 Sect OctLoc
   2     000   ****** ******   ****** ******   ****** ******   ****** ******    ................

DICTS
 Sect OctLoc
   3     000   ****** ******   ****** ******   ****** ******   ****** ******    ................

DISPS
 Sect OctLoc
   4     000   ***00* ******   ****** ******   ****** ******   ****** ******    ................
   4     024*  ****** ******   ****** ******   ****** ******                    ............

VALIDS
 Sect OctLoc
   5     000   ****** ******   ****** ******   ****** ******   ****** ******    ................

LOCKS
 Sect OctLoc
   6     000   ****** ******   ****** ******   ****** ******   ****** ******    ................

STRAN
 Sect OctLoc
   7     000   ****** ******   ****** ******   ****** ******   ****** ******    ................

DTRAN
 Sect OctLoc
   8     000   ****** ******   ****** ******   ****** ******   ****** ******    ................

SSTRANS
 Sect OctLoc
   9     000   ****** ******   ****** ******   ****** ******   ****** ******    ................

SSGEN
 Sect OctLoc
  10     000   ****** ******   ****** ******   ****** ******   ****** ******    ................

PL6.E3A0      #001=ZIG$V_AREA File=ZIG$V_AREA.:ZIC0TSI                           FRI 09/05/97 12:16 Page:43
LANG_ALLOWED
 Sect OctLoc
  11     000   ****** ******   ****** ******   ****** ******   ****** ******    ................

HEADING_TEXT
 Sect OctLoc
  13     000   ****** ******   ****** ******   ****** ******   ****** ******    ................

LANG_TEXT
 Sect OctLoc
  14     000   116117 124040   125123 105104   040040 103117   102117 114040    NOT USED  COBOL
  14     004   040040 040040   106117 122124   122101 116040   040040 101120        FORTRAN   AP
  14     010   114040 040040   040040 040040   102101 123111   103040 040040    L       BASIC
  14     014   040040 ******                                                      ..

HASH_SCHEMA_NAME
 Sect OctLoc
  15     000   0***** ******                                                    ....

CONTROL
 Sect OctLoc
  17     000   777777 777777   000000 000001   000000 000000   000000 000036    ................
  17     004   000000 000060   000000 000000   000000 000000   000000 000000    ...0............
  17     010   000000 000000   000000 000000   000000 000000   000000 000000    ................
  17     020*  040040 040040   040040 040040   040040 040040   040040 040040
  17     040*  000000 000144   000000 000000   400000 000000   042116 125114    ...d........"NUL
  17     044   114042 040040   040040 040040   042116 125114   114042 040040    L"      "NULL"
  17     050   040040 040040   000000 000060   000000 000000   000000 000000        ...0........
  17     054   000000 000000   000000 000000   000000 000000   000000 000000    ................
  17     064*  000000 000000   040040 040040   040040 040040   040040 040040    ....
  17     070   000000 000000   000000 000000   000000 000000   000000 000000    ................
  17     074   000000 000002   000000 000000   000000 000000   000000 000000    ................

IO_BUF
 Sect OctLoc
  18     000   ****** ******   ****** ******   ****** ******   ****** ******    ................

PL6.E3A0      #001=ZIG$V_AREA File=ZIG$V_AREA.:ZIC0TSI                           FRI 09/05/97 12:16 Page:44
UWA_KEY
 Sect OctLoc
  26     000   007125 127101   ****** ******                                    .UWA....

RVA_KEY
 Sect OctLoc
  28     000   007122 126101   ****** ******                                    .RVA....

IA__KEY
 Sect OctLoc
  29     000   007111 101137   ****** ******                                    .IA_....

SEARCHR_NB
 Sect OctLoc
  31     000   001001 001001   001001 001001   001001 001001   001001 001001    ................
  31     010*  000001 001001   001001 001001   001001 001001   001001 001001    ................
  31     014   001001 001001   001001 001001   001001 001001   001001 001001    ................
  31     034*  001001 001001   001001 001001   001001 001001   001001 001001    ................

SEM_COM
 Sect OctLoc
  32     000   000001 002003   004005 006007   010011 012013   014015 016017    ................
  32     004   020021 022023   024025 026027   030031 032033   034035 036037    ................
  32     010   040041 042043   044045 046047   050051 052053   054055 056057     !"#$%&'()*+,-./
  32     014   060061 062063   064065 066067   070071 072040   074075 076077    0123456789: <=>?
  32     020   100101 102103   104105 106107   110111 112113   114115 116117    @ABCDEFGHIJKLMNO
  32     024   120121 122123   124125 126127   130131 132133   134135 136137    PQRSTUVWXYZ[\]^_
  32     030   140141 142143   144145 146147   150151 152153   154155 156157    `abcdefghijklmno
  32     034   160161 162163   164165 166167   170171 172173   174175 176177    pqrstuvwxyz{|}~.

DMCL_XLATE
 Sect OctLoc
  33     000   000001 002003   004005 006007   010011 012013   014015 016017    ................
  33     004   020021 022023   024025 026027   030031 032033   034035 036037    ................
  33     010   040041 041043   044045 046047   050051 052053   054055 136057     !!#$%&'()*+,-^/
  33     014   060061 062063   064065 066067   070071 072040   074075 076077    0123456789: <=>?
  33     020   100101 102103   104105 106107   110111 112113   114115 116117    @ABCDEFGHIJKLMNO
PL6.E3A0      #001=ZIG$V_AREA File=ZIG$V_AREA.:ZIC0TSI                           FRI 09/05/97 12:16 Page:45
  33     024   120121 122123   124125 126127   130131 132133   134135 136137    PQRSTUVWXYZ[\]^_
  33     030   140141 142143   144145 146147   150151 152153   154155 156157    `abcdefghijklmno
  33     034   160161 162163   164165 166167   170171 172173   174175 176177    pqrstuvwxyz{|}~.

Q2_PERCENT
 Sect OctLoc
  34     000   000001 002003   004005 006007   010011 012013   014015 016017    ................
  34     004   020021 022023   024025 026027   030031 032033   034035 036037    ................
  34     010   040041 045043   044045 046047   050051 052053   054055 056057     !%#$%&'()*+,-./
  34     014   060061 062063   064065 066067   070071 072073   074075 076077    0123456789:;<=>?
  34     020   100101 102103   104105 106107   110111 112113   114115 116117    @ABCDEFGHIJKLMNO
  34     024   120121 122123   124125 126127   130131 132133   134135 136137    PQRSTUVWXYZ[\]^_
  34     030   140141 142143   144145 146147   150151 152153   154155 156157    `abcdefghijklmno
  34     034   160161 162163   164165 166167   170171 172173   174175 176177    pqrstuvwxyz{|}~.

UWA
 Sect OctLoc
  42     000   000000 000000   040040 040040   040040 040040   040040 040040    ....
  42     004   040040 040040   040040 040040   040040 040040   040040 040040
  42     010   040040 040040   040040 040040   040040 000000   040040 040040              ..
  42     014   040040 040040   040040 040040   040040 040040   040040 040040
  42     020   040040 040040   040040 040040   040040 000000   040040 040040              ..
  42     024   040040 040040   040040 040040   040040 040040   040040 040040
  42     030   040040 040040   040040 040040   040040 000000   040040 040040              ..
  42     034   040040 040040   040040 040040   000000 000000   040040 040040            ....
  42     040   040040 040040   040040 040040   040040 040040   040040 040040
  42     044   040040 040040   040040 040040   040040 000000   040040 040040              ..
  42     050   040040 040040   040040 040040   040040 040040   040040 040040
  42     054   040040 040040   040040 040040   040040 000000   000000 000000              ......
  42     060   040040 040040   040*** ******   000000 000000   000000 000000         ...........
  42     064   000000 000000   000000 000000   040040 040040   040040 040040    ........
  42     070   040040 040040   040040 040040   040040 040040   040040 040040
  42     100*  040040 ******   000000 000000   040040 040040   040040 040040      ......
  42     104   040040 040040   040040 040040   040040 040040   040040 040040
  42     124*  040040 040040   040040 040040   000000 000000   040040 040040            ....
  42     130   040040 040040   040040 040040   040040 040040   040040 040040
  42     134   040040 040040   040040 040040   040040 ******   000000 000000              ......
PL6.E3A0      #001=ZIG$V_AREA File=ZIG$V_AREA.:ZIC0TSI                           FRI 09/05/97 12:16 Page:46
  42     140   040040 040040   040040 040040   040040 040040   040040 040040
  42     144   040040 040040   040040 040040   000000 000000   000000 000000            ........
  42     150   000000 000000   000000 000000   000000 000000   000000 000000    ................
  42     154   040040 040040   040040 040040   040040 040040   040040 040040
  42     160   040040 040040   040040 040040   040040 040040   040040 ******                  ..
  42     164   000000 000000   ****** ******   000000 000000   000000 000000    ................
  42     170   000000 000000   040040 040040   040040 040040   040040 040040    ....
  42     174   040040 040040   040040 040040   040040 040040   040040 040040
  42     210*  040040 040040   040040 040040   040040 040040   ****** ******                ....
  42     214   000000 000000   000000 000000   000000 000000   000000 000000    ................
  42     224*  000000 000000   000000 000000   000000 000000   040040 ******    ............  ..
  42     230   000000 000000   ****** ******   000000 000000   040040 040040    ............
  42     234   000000 000000   000000 000000   000000 000000   000000 000000    ................
  42     264*  000000 000000   000000 000000   000000 000000   ****** ******    ................
  42     270   000000 000000   000000 000000   000000 000000   000000 000000    ................
  42     324*  000000 000000   ****** ******   000000 000000   000000 000000    ................
  42     330   000000 000000   000000 000000   000000 000000   000000 000000    ................
  42     350*  000000 000000   000000 000000   000000 000000   ****** ******    ................
  42     360*  000000 000000   000000 000000   000000 000000   000000 000000    ................
  42     404*  000000 000000   ****** ******   000000 000000   000000 000000    ................
  42     410   000000 000000   000000 000000   000000 000000   000000 000000    ................
  42     424*  000000 000000   000000 000000   000000 000000   040040 040040    ............
  42     430   040040 040040   040040 040040   040040 040040   040040 040040
  42     434   040040 040040   040040 040040   040040 ******   ****** ******              ......
  42     440   040040 040040   040040 040040   040040 040040   040040 040040
  42     450*  040040 040040   040040 040040   040040 ******   ****** ******              ......
  42     454   000000 000000   040040 040040   040040 040040   040040 040040    ....
  42     460   040040 040040   040040 040040   040040 040040   040040 040040
  42     464   040040 ******   ****** ******   000000 000000   000000 000000      ..............
  42     470   000000 000000   000000 000000   000000 000000   000000 000000    ................
  42     474   000000 000000   ****** ******   000000 000000   000000 000000    ................
  42     500   000000 000000   000000 000000   040040 040040   040040 040040    ........
  42     504   040040 040040   040040 040040   040040 040040   040040 040040
  42     520*  040040 040040   ****** ******   000000 000000   000000 000000        ............
  42     524   040040 040040   040040 040040   040040 040040   040040 040040
  42     574*  000000 000000   000000 000000   000000 000000   000000 000000    ................
  42     600   000000 000000   000000 000000   000000 000000   ****** ******    ................
PL6.E3A0      #001=ZIG$V_AREA File=ZIG$V_AREA.:ZIC0TSI                           FRI 09/05/97 12:16 Page:47
  42     604   000000 000000   000000 000000   000000 000000   000000 000000    ................
  42     610   000000 000000   000000 000000   040040 040040   040040 040040    ........
  42     614   040040 040040   040040 040040   040040 040040   040040 040040
  42     620   040040 040040   040040 ******   040040 040040   040040 040040          ..
  42     624   040040 040040   040040 040040   040040 040040   040040 040040
  42     660*  040040 040040   040040 040040   040040 040040   ****** ******                ....
  42     664   040040 040040   040040 040040   040040 040040   040040 040040
  42     674*  040040 040040   ****** ******   040040 040040   040040 040040        ....
  42     700   040040 040040   040040 040040   040040 040040   040040 040040
  42     710*  040040 040040   ****** ******   040040 040040   040040 040040        ....
  42     714   040040 040040   040040 040040   040040 040040   040040 040040
  42     720   040040 040040   040040 040040   040040 040040   ****** ******                ....
  42     724   040040 040040   040040 040040   040040 040040   040040 040040
  42     740*  040040 040040   ****** ******   040040 040040   040040 040040        ....
  42     744   040040 040040   040040 040040   040040 040040   040040 040040
  42     774*  040040 040040   ****** ******   040040 040040   040040 040040        ....
  42    1000   040040 040040   040040 040040   040040 040040   040040 040040
  42    1034*  040040 040040   ****** ******   040040 040040   040040 040040        ....
  42    1040   040040 040040   040040 040040   040040 040040   040040 040040
  42    1060*  040040 040040   ****** ******   040040 040040   040040 040040        ....
  42    1064   040040 040040   040040 040040   040040 040040   040040 040040
  42    1114*  040040 040040   ****** ******   040040 040040   040040 040040        ....
  42    1120   040040 040040   040040 040040   040040 040040   040040 040040
  42    1134*  040040 040040   040040 040040   040040 040040   ****** ******                ....
  42    1140   040040 040040   040040 040040   040040 040040   040040 040040
  42    1144   040040 040040   ****** ******   040040 040040   040040 040040        ....
  42    1150   040040 040040   040040 040040   040040 040040   ****** ******                ....
  42    1154   040040 040040   040040 040040   040040 040040   040040 040040
  42    1160   040040 040040   ****** ******   040040 040040   040040 040040        ....
  42    1164   040040 040040   040040 040040   040040 040040   ****** ******                ....
  42    1170   040040 040040   040040 040040   040040 040040   040040 040040
  42    1200*  040040 040040   040040 040040   040040 040040   ****** ******                ....
  42    1204   040040 040040   040040 040040   040040 040040   040040 040040
  42    1214*  040040 040040   040040 040040   040040 040040   040040 040040

LIST_STRING
 Sect OctLoc
PL6.E3A0      #001=ZIG$V_AREA File=ZIG$V_AREA.:ZIC0TSI                           FRI 09/05/97 12:16 Page:48
  46     000   ****** ******   ****** ******   ****** ******   ****** ******    ................

(unnamed)
 Sect OctLoc
  47     000   123116 055123   105040 040040   101103 055122   101040 040040    SN-SE   AC-RA
  47     004   122103 055122   101040 040040   122103 055123   117123 115040    RC-RA   RC-SOSM
  47     010   123103 055123   117123 115040   777777 777000   040040 040040    SC-SOSM ....
  47     014   040040 101122   105101 040116   101115 105040   111123 040040      AREA NAME IS
  47     020   040040 040040   040040 040040   040040 040101   122105 101040               AREA
  47     024   111123 040124   105115 120117   122101 122131   056040 040040    IS TEMPORARY.
  47     030   040040 040040   040040 040040   040040 040050   101122 105101               (AREA
  47     034   040111 123040   111116 124105   107122 101124   105104 051040     IS INTEGRATED)
  47     040   040040 040040   040040 040040   040040 040050   101122 105101               (AREA
  47     044   040111 123040   111116 124105   107122 101124   105104 040127     IS INTEGRATED W
  47     050   111124 110040   122105 103117   122104 040113   105131 123051    ITH RECORD KEYS)
  47     054   040040 040040   040040 040040   040040 040050   101122 105101               (AREA
  47     060   040111 123040   111116 104105   130105 104051   040040 040040     IS INDEXED)
  47     064   040040 040040   040040 040050   101122 105101   040111 123040           (AREA IS
  47     070   111116 104105   130105 104040   127111 124110   040122 105103    INDEXED WITH REC
  47     074   117122 104040   113105 131123   051040 040040                    ORD KEYS)

(unnamed)
 Sect OctLoc
  49     000   040040 040040   000003 006000   000013 006000   000002 000000        ............
  49     004   000000 000001   000004 006000   000000 006000   000000 006000    ................
  49     010   000003 000000   000000 000024   000003 006000   000011 006000    ................
  49     014   000000 000000   000001 000000   000000 006000   000000 000036    ................
  49     020   000004 006000   000017 006000   000003 006000   000000 021461    ................
  49     024   000023 006000   000010 000000   000000 000002   000000 000014    ................
  49     030   000026 006000   000027 006000   000000 006000   000004 006000    ................
  49     034   000003 006000   000014 006000   000002 006000   000004 006000    ................
  49     040   000006 006000   000010 006000   077777 777777   000000 006000    ........?.......
  49     044   000000 006000   000000 006000   000000 021462   000046 006000    .............&..

PL6.E3A0      #001=ZIG$V_AREA File=ZIG$V_AREA.:ZIC0TSI                           FRI 09/05/97 12:16 Page:49
--  Include file information  --

   ZI_SUB4_CAN.:ZIC0TOU  is referenced.
   ZIG_DBA_INT.:ZIC0TOU  cannot be made into a system file and is referenced.
   ZIG_SSS.:ZIC0TOU  is referenced.
   ZIG_TYPE_SUBS.:ZIC0TOU  is referenced.
   ZIG_GENERAL.:ZIC0TOU  cannot be made into a system file and is referenced.
   ZIG_DIR_STRUCS.:ZIC0TOU  cannot be made into a system file and is referenced.
   ZI_SUB_LANG.:ZIC0TOU  is referenced.
   ZI_ERRORS_SUBS.:ZIC0TOU  is referenced.
   B$JIT_C.:E05TOU  was found in the system file and is never referenced.
   CP_6_C.:E05TOU  was found in the system file and is never referenced.
      No diagnostics issued in procedure ZIG$V_AREA.

   Procedure ZIG$V_AREA requires 461 words for executable code.
   Procedure ZIG$V_AREA requires 22 words of local(AUTO) storage.

    No errors detected in file ZIG$V_AREA.:ZIC0TSI    .
PL6.E3A0      #001=ZIG$V_AREA File=ZIG$V_AREA.:ZIC0TSI                           FRI 09/05/97 12:16 Page:50
          *** CROSS REFERENCE LISTING ***
**     DENOTES     IDENTIFIER DEFINITION
<<                 IDENTIFIER'S VALUE SET
>>                 IDENTIFIER'S VALUE USED
<>                 IDENTIFIER SET AND/OR USED
--                 IDENTIFIER REFERENCED
PL6.E3A0      #001=ZIG$V_AREA File=ZIG$V_AREA.:ZIC0TSI                           FRI 09/05/97 12:16 Page:51
          MINI XREF LISTING

ABORT
      2706**DCL-ENT  4842--CALL
AC.ABAS
      3497**DCL      4752<<ASSIGN
AC.ACID
      3499**DCL      4765<<ASSIGN
AC.ANAM
      3565**DCL      4793<<ASSIGN
AC.BLP
      3501**DCL      4767<<ASSIGN
AC.BPLDBK
      3523**DCL      4783<<ASSIGN   4785<<ASSIGN   4786<<ASSIGN
AC.CLCN
      3537**DCL      4791<<ASSIGN
AC.CLCP
      3546**DCL      4792<<ASSIGN
AC.DBLIM.HIGHDBK
      3516**DCL      4776<<ASSIGN
AC.DBLIM.LOWDBK
      3515**DCL      4775<<ASSIGN
AC.DEF.ANL
      3494**DCL      3565--IMP-SIZ  4751<<ASSIGN   4793>>ASSIGN
AC.DEF.ATMP
      3493**DCL      4748<<ASSIGN   4803>>ASSIGN   4815>>IF
AC.DEF.FORG
      3481**DCL      3485--REDEF    4820>>DOCASE
AC.DEF.ITHR
      3491**DCL      4749<<ASSIGN
AC.DEF.NCIA
      3489**DCL      4746<<ASSIGN
AC.DEF.ORG.INDEXED
      3487**DCL      4737<<ASSIGN   4754>>IF
PL6.E3A0      #001=ZIG$V_AREA File=ZIG$V_AREA.:ZIC0TSI                           FRI 09/05/97 12:16 Page:52
AC.DEF.ORG.KEYED
      3488**DCL      4742<<ASSIGN
AC.DEF.TYPE
      3480**DCL      4734<<ASSIGN
AC.DPPI
      3535**DCL      4789<<ASSIGN
AC.FIPN
      3536**DCL      4790<<ASSIGN
AC.FLAGS
      3524**DCL      4787<<ASSIGN
AC.FLAGS.CHKSUM
      3525**DCL      4798>>ASSIGN
AC.FLAGS.CJRNL
      3527**DCL      4800>>ASSIGN
AC.FLAGS.ENCRP
      3526**DCL      4799>>ASSIGN
AC.FLAGS.TJRNL
      3529**DCL      4802>>ASSIGN
AC.FLAGS.TMPLT
      3528**DCL      4801>>ASSIGN
AC.INTVL
      3520**DCL      4778<<ASSIGN
AC.INVT
      3521**DCL      4779<<ASSIGN
AC.IUSZ
      3533**DCL      4788<<ASSIGN
AC.LPP
      3518**DCL      4777<<ASSIGN
AC.OAACN
      3495**DCL      4730<<ASSIGN   4730>>ASSIGN   4731<<ASSIGN
AC.PGLIM.HIGHPG
      3513**DCL      4774<<ASSIGN
AC.PGLIM.LOWPG
      3512**DCL      4773<<ASSIGN
AC.PGSZ
      3522**DCL      4780<<ASSIGN
PL6.E3A0      #001=ZIG$V_AREA File=ZIG$V_AREA.:ZIC0TSI                           FRI 09/05/97 12:16 Page:53
AC.PLSEP
      3500**DCL      4766<<ASSIGN
AC.SANAM.EIS.COUNT
      3510**DCL      4772<<ASSIGN   4795>>CALLBLT  4795>>CALLBLT
AC.SANAM.EIS.OFFSET.WD
      3506**DCL      4769<<ASSIGN   4794>>ASSIGN
AC.SANAM.EIS.REG
      3504**DCL      4768<<ASSIGN
AC.WSOF
      3498**DCL      4753<<ASSIGN
AC$
      3477**DCL      3478--IMP-PTR  4681<>CALL     4704>>ASSIGN   4730>>ASSIGN   4734>>ASSIGN   4737>>ASSIGN
      4742>>ASSIGN   4746>>ASSIGN   4748>>ASSIGN   4749>>ASSIGN   4751>>ASSIGN   4752>>ASSIGN   4753>>ASSIGN
      4754>>IF       4765>>ASSIGN   4766>>ASSIGN   4767>>ASSIGN   4768>>ASSIGN   4769>>ASSIGN   4772>>ASSIGN
      4773>>ASSIGN   4774>>ASSIGN   4775>>ASSIGN   4776>>ASSIGN   4777>>ASSIGN   4778>>ASSIGN   4779>>ASSIGN
      4780>>ASSIGN   4783>>ASSIGN   4785>>ASSIGN   4786>>ASSIGN   4787>>ASSIGN   4788>>ASSIGN   4789>>ASSIGN
      4790>>ASSIGN   4791>>ASSIGN   4792>>ASSIGN   4793>>ASSIGN   4793>>ASSIGN   4794>>ASSIGN   4795>>CALLBLT
      4795>>CALLBLT  4798>>ASSIGN   4799>>ASSIGN   4800>>ASSIGN   4801>>ASSIGN   4802>>ASSIGN   4803>>ASSIGN
      4815>>IF       4820>>DOCASE
AC1$
      3571**DCL      3572--IMP-PTR  4671<>CALL     4672>>ASSIGN   4679<>CALL
ALLOCATE_END
      2709**DCL      4670<<ASSIGN   4706<<ASSIGN   4710<<ASSIGN
AREA_HASH.DBK
      2473**DCL      4713<<ASSIGN
AREA_HASH.REF
      2471**DCL      4711<<ASSIGN
AREA_HASH.SUB_OFF
      2472**DCL      4712<<ASSIGN
CURRENT_OFF
      4645**DCL      4704<<ASSIGN   4712>>ASSIGN   4731>>ASSIGN   4732>>ASSIGN   4769>>ASSIGN
CURRENT_RECORD
      2509**DCL      4804<>CALL
DBCS_ERROR
      4842**LABEL    4693--CALLALT  4756--CALLALT  4757--CALLALT  4758--CALLALT  4759--CALLALT
DP$
PL6.E3A0      #001=ZIG$V_AREA File=ZIG$V_AREA.:ZIC0TSI                           FRI 09/05/97 12:16 Page:54
      3579**DCL      3580--IMP-PTR
DP1$
      3593**DCL      3594--IMP-PTR
ERROR
      2698**DCL-ENT  4697--CALL     4831--CALL
ERROR_FLG
      4647**DCL      4708<>CALL
FETCHNS_6
      3614**DCL-ENT  4693--CALL
FETCHOS_6
      3618**DCL-ENT  4759--CALL
FINDNS_6
      3613**DCL-ENT  4756--CALL     4758--CALL
FINDOS_6
      3617**DCL-ENT  4757--CALL
FIND_LENGTH
      4652**PROC     4662--CALL     4665--CALL     4750--CALL     4771--CALL
HASH_SCHEMA_NAME
      2451**DCL      4707<<ASSIGN
I
      4640**DCL      4672<<ASSIGN   4673>>IF       4750<>CALL     4751>>ASSIGN   4771<>CALL     4772>>ASSIGN
      4781<<ASSIGN   4782>>IF       4784>>IF
IO_BUF
      2631**DCL      2665--REDEF    4804<>CALL
LAST_AC
      4648**DCL      4729>>ASSIGN   4732<<ASSIGN
LIST
      2713**DCL-ENT  4812--CALL     4814--CALL     4818--CALL     4838--CALL
LIST_STRING
      4649**DCL      4811<<ASSIGN   4812<>CALL     4813<<CALLBLT  4814<>CALL     4817<<ASSIGN   4818<>CALL
      4822<<ASSIGN   4824<<ASSIGN   4826<<ASSIGN   4828<<ASSIGN   4838<>CALL
L_SCHEMA_AC
      4642**DCL      4662<>CALL     4666>>IF       4667<<ASSIGN   4667>>ASSIGN   4667>>ASSIGN   4681>>CALL
L_SUBSCH_AC
      4643**DCL      4665<>CALL     4668>>IF       4669<<ASSIGN   4669>>ASSIGN   4669>>ASSIGN   4681>>CALL
      4769>>ASSIGN
PL6.E3A0      #001=ZIG$V_AREA File=ZIG$V_AREA.:ZIC0TSI                           FRI 09/05/97 12:16 Page:55
NOT_BLANK IN PROCEDURE FIND_LENGTH
      4658**LABEL    4655--CALLALT
OA.ACNT
      3448**DCL      4733<<ASSIGN   4733>>ASSIGN
OA.CSZ
      3449**DCL      4753>>ASSIGN   4760<<ASSIGN   4760>>ASSIGN   4763<<ASSIGN   4763>>ASSIGN
OA.SCNAM.EIS.COUNT
      3424**DCL      3461--IMP-SIZ
OA$
      3402**DCL      3403--IMP-PTR  4733>>ASSIGN   4733>>ASSIGN   4753>>ASSIGN   4760>>ASSIGN   4760>>ASSIGN
      4763>>ASSIGN   4763>>ASSIGN
OA1$
      3468**DCL      3469--IMP-PTR
RETURN_LENGTH IN PROCEDURE FIND_LENGTH
      4653**DCL      4652--PROC     4655<<CALLBLT  4658<<ASSIGN
SANAME
      3566**DCL      4795<<CALLBLT
SET_FIELDS
      2701**DCL-ENT  4696--CALL     4830--CALL
SN_DBK
        33**DCL      4690<<ASSIGN
SRCHD
      2727**DCL-ENT  4687--CALL
SSS$
      3397**DCL      4672>>ASSIGN   4704>>ASSIGN   4729>>ASSIGN   4794>>ASSIGN
STATUS
      4646**DCL      4705<<ASSIGN   4708<>CALL
STRING_TO_GET IN PROCEDURE FIND_LENGTH
      4654**DCL      4652--PROC     4655>>CALLBLT
SUBSCHEMA_KEY
      2733**DCL      2734--REDEF
SUCC
      4644**DCL      4687<>CALL     4694>>IF
TPTR$
      4641**DCL      4708<>CALL     4711>>ASSIGN   4712>>ASSIGN   4713>>ASSIGN   4729<<ASSIGN   4730>>ASSIGN
      4731>>ASSIGN   4794<<ASSIGN   4795>>CALLBLT
PL6.E3A0      #001=ZIG$V_AREA File=ZIG$V_AREA.:ZIC0TSI                           FRI 09/05/97 12:16 Page:56
TYPE_200.AREA_BITS.CHKSUM
      2676**DCL      4798<<ASSIGN
TYPE_200.AREA_BITS.CJRNL
      2678**DCL      4800<<ASSIGN
TYPE_200.AREA_BITS.ENCRP
      2677**DCL      4799<<ASSIGN
TYPE_200.AREA_BITS.TEMPORARY
      2681**DCL      4803<<ASSIGN
TYPE_200.AREA_BITS.TJRNL
      2680**DCL      4802<<ASSIGN
TYPE_200.AREA_BITS.TMPLT
      2679**DCL      4801<<ASSIGN
TYPE_200.AREA_NAME
      2669**DCL      4662<>CALL     4664>>ASSIGN   4687<>CALL     4696<>CALL     4708<>CALL     4771<>CALL
      4795>>CALLBLT  4830<>CALL
TYPE_200.ID_NUM
      2673**DCL      4765>>ASSIGN
TYPE_200.REF_LINE
      2667**DCL      4688>>IF       4711>>ASSIGN
TYPE_200.SUB_AREA_NAME
      2671**DCL      4663>>IF       4664<<ASSIGN   4665<>CALL     4750<>CALL     4793>>ASSIGN   4813>>CALLBLT
UWA.AC.BASE_DBK
      4396**DCL      4752>>ASSIGN
UWA.AC.CALC_NEXT
      4415**DCL      4416--REDEF
UWA.AC.CALC_NEXT_STRUCT
      4416**DCL      4791>>ASSIGN
UWA.AC.CALC_NULL
      4395**DCL      4745>>IF
UWA.AC.CALC_PRIOR
      4424**DCL      4425--REDEF
UWA.AC.CALC_PRIOR_STRUCT
      4425**DCL      4792>>ASSIGN
UWA.AC.DBK_CALC
      4406**DCL      4778>>ASSIGN
UWA.AC.DBK_PAGE
PL6.E3A0      #001=ZIG$V_AREA File=ZIG$V_AREA.:ZIC0TSI                           FRI 09/05/97 12:16 Page:57
      4405**DCL      4777>>ASSIGN
UWA.AC.DEFAULTS
      4376**DCL      4377--REDEF
UWA.AC.FILE_CODE
      4381**DCL      4382--REDEF
UWA.AC.FLAG1.ERROR_TYPE
      4378**DCL      4379--REDEF
UWA.AC.FLAGS
      4382**DCL      4787>>ASSIGN
UWA.AC.FRST_INV_PG
      4404**DCL      4790>>ASSIGN
UWA.AC.INV_THRESH
      4408**DCL      4779>>ASSIGN
UWA.AC.INV_UNIT
      4411**DCL      4788>>ASSIGN
UWA.AC.KEYS_ALLOC
      4397**DCL      4781>>ASSIGN
UWA.AC.KEYS_RSRVD
      4398**DCL      4781>>ASSIGN
UWA.AC.LINE_BITS
      4407**DCL      4766>>ASSIGN   4767>>ASSIGN
UWA.AC.MAX_DBK
      4400**DCL      4776>>ASSIGN
UWA.AC.MAX_PAGE
      4402**DCL      4774>>ASSIGN
UWA.AC.MIN_DBK
      4399**DCL      4775>>ASSIGN
UWA.AC.MIN_PAGE
      4401**DCL      4773>>ASSIGN
UWA.AC.PAGE_SIZE
      4412**DCL      4780>>ASSIGN
UWA.AC.PAGE_TYP
      4393**DCL      4735>>IF
UWA.AC.PERMTYPE
      4392**DCL      4747>>IF
UWA.AC.PER_INV
PL6.E3A0      #001=ZIG$V_AREA File=ZIG$V_AREA.:ZIC0TSI                           FRI 09/05/97 12:16 Page:58
      4394**DCL      4749>>ASSIGN
UWA.AC.PGS_INV_PG
      4410**DCL      4789>>ASSIGN
UWA.AC.PRIME_KEY
      4390**DCL      4740>>IF
UWA.AC.SEC_KEY
      4391**DCL      4740>>IF
UWA.DIRECT_REF
      4316**DCL      4690>>ASSIGN   4713>>ASSIGN
UWA.SC.KEY_LENGTH
      4463**DCL      4760>>ASSIGN
VALIDS.AREA_XREF
      2351**DCL      4809>>IF
WRITSF
        31**DCL-ENT  4804--CALL
ZIG$ADD_SI
        32**DCL-ENT  4691--CALL
ZIG$G_DYN_MEM_6
      2708**DCL-ENT  4671--CALL     4679--CALL     4681--CALL
ZIG$HASH_IT
        30**DCL-ENT  4708--CALL
