
PL6.E3A0      #001=ZIG$V_AREA_REC File=ZIG$V_AREA_REC.:ZIC0TSI                   FRI 09/05/97 12:18 Page:1
        1        1        /*M*     ZIG$V_AREA_REC      I-D-S/II       DBACS */
        2        2        /*T***********************************************************/
        3        3        /*T*                                                         */
        4        4        /*T* Copyright (c) Bull HN Information Systems Inc., 1997    */
        5        5        /*T*                                                         */
        6        6        /*T***********************************************************/
        7        7        /*P*
        8        8        NAME:    ZIG$V_AREA_REC
        9        9        PURPOSE:
       10       10              To put in the RA records that connect the records to the sets
       11       11            in the subschema DDL text.
       12       12        */
       13       13        /*
       14       14        ZZZZZ  III   GGG    $   V   V        AAA  RRRR  EEEEE  AAA
       15       15            Z   I   G   G  $$$  V   V       A   A R   R E     A   A
       16       16           Z    I   G     $ $   V   V       A   A R   R E     A   A
       17       17          Z     I   G      $$$  V   V       AAAAA RRRR  EEEE  AAAAA
       18       18         Z      I   G  GG   $ $ V   V       A   A R R   E     A   A
       19       19        Z       I   G   G  $$$   V V        A   A R  R  E     A   A
       20       20        ZZZZZ  III   GGG    $     V         A   A R   R EEEEE A   A
       21       21                                      _____
       22       22
       23       23        0
       24       24              RRRR  EEEEE  CCC
       25       25              R   R E     C   C
       26       26              R   R E     C
       27       27              RRRR  EEEE  C
       28       28              R R   E     C
       29       29              R  R  E     C   C
       30       30              R   R EEEEE  CCC
       31       31        _____
       32       32        */
       33       33        %EJECT;
PL6.E3A0      #001=ZIG$V_AREA_REC File=ZIG$V_AREA_REC.:ZIC0TSI                   FRI 09/05/97 12:18 Page:2
       34       34        ZIG$V_AREA_REC:
       35       35            PROC;
       36       36    1   DCL ZIG$HASH_IT ENTRY (8);
       37       37    1   DCL WRITSF ENTRY (2);
       38       38    1   DCL CUR_EXT_NAME_SEG UBIN (36) EXT;
       39       39    1   DCL RECORD_FOUND BIT (1) EXT;
       40       40        %INCLUDE ZI_ERRORS_SUBS;
       41      560        %INCLUDE ZI_SUB_LANG;
       42     2275        %INCLUDE ZIG_DIR_STRUCS;
       43     2405        %GENERAL;
       44     2529        %CONTROL_BLOCK;
       45     2637    1   DCL IO_BUF CHAR (128) EXT;
       46     2638        %DESC_TYPE_420(STCLASS="REDEF IO_BUF");
       47     2671        %DESC_TYPE_31;
       48     2713        %INCLUDE ZIG_GENERAL;
       49     2821        %INCLUDE ZIG_TYPE_SUBS;
       50     2836        %INCLUDE ZIG_SSS;
       51     3406        %SS_GENERAL(PSTCLASS=EXT);
       52     3427        %OA(PSTCLASS=EXT);
       53     3494        %OA1(PSTCLASS=EXT);
       54     3502        %AC(PSTCLASS=EXT);
       55     3597        %AC1(PSTCLASS=EXT);
       56     3605        %RC(PSTCLASS=EXT);
       57     3638        %RC1(PSTCLASS=EXT);
       58     3648        %RA(PSTCLASS=EXT);
       59     3668        %INCLUDE ZIG_DBA_INT;
       60     3716        %INCLUDE ZI_SUB4_CAN;
       61     4373        %UWA;
       62     4708        %EJECT;
PL6.E3A0      #001=ZIG$V_AREA_REC File=ZIG$V_AREA_REC.:ZIC0TSI                   FRI 09/05/97 12:18 Page:3
       63     4709    1   DCL I UBIN (36);
       64     4710    1   DCL TPTR$ PTR;
       65     4711    1   DCL SUCC BIT (1);
       66     4712    1   DCL CURRENT_OFF UBIN (36) EXT;
       67     4713    1   DCL STATUS UBIN (6);
       68     4714    1   DCL ERROR_FLG UBIN (36) STATIC;
       69     4715    1   DCL LAST_RC UBIN (18) EXT;
       70     4716        /*
       71     4717            Note:
       72     4718                   The pointer RC$ and RC1$ are pointing to the current
       73     4719                 RC record that this RA record belongs too.  All we have
       74     4720                 to do is find the AC record in the schema subset and
       75     4721                 get its offset and it conect it up to the sets that it
       76     4722                 belongs to.
       77     4723        */
       78     4724        %EJECT;
PL6.E3A0      #001=ZIG$V_AREA_REC File=ZIG$V_AREA_REC.:ZIC0TSI                   FRI 09/05/97 12:18 Page:4
       79     4725    1       STATUS = #AREA_DEF;
       80     4726    1       ALLOCATE_END = 1;
       81     4727    1       HASH_SCHEMA_NAME = '1'B;
       82     4728    1       CALL ZIG$HASH_IT(TYPE_420.AREA_NAME,#NO_ADD,ERROR_FLG,0,1,12,
       83     4729    1          TPTR$,STATUS);
       84     4730    1       ALLOCATE_END = 0;
       85     4731    1       IF TYPE_420.SOUR_LINE = 0
       86     4732    2       THEN DO;
       87     4733    2           IF ERROR_FLG = 0
       88     4734    3           THEN DO;
       89     4735    3               RECORD_FOUND = '0'B;
       90     4736    3               RETURN;
       91     4737    3               END;
       92     4738    2           RECORD_FOUND = '1'B;
       93     4739    2           END;
       94     4740    1       IF ERROR_FLG = 0
       95     4741    2       THEN DO;
       96     4742    2           I = RC.DEF.RNL;
       97     4743    2           CALL SET_FIELDS(1,I,RC.RNAM);
       98     4744    2           CALL SET_FIELDS(2,30,TYPE_420.SUB_AREA_NAME);
       99     4745    2           CALL ERROR(%ZIG_V_AREA_NO_FOUND);
      100     4746        /*E*     ERROR:    ZIG-ZIG_V_AREA_NO_FOUND-C
      101     4747        MESSAGE: The area "%U2" cannot be found in the subschema hash table
      102     4748                 for the record "%U1".
      103     4749                 <<<< SOFTWARE ERROR >>>>
      104     4750        */
      105     4751    2           RETURN;
      106     4752    2           END;
      107     4753    1       CALL ZIG$G_DYN_MEM_6(0,RA$);
      108     4754    1       I = POFFW(RA$,SSS$);
      109     4755    1       IF MOD(I,2) = 0
      110     4756    2       THEN DO;
      111     4757    2           CALL ZIG$G_DYN_MEM_6(1,RA$);
      112     4758    2           END;
      113     4759    1       IF RC.DEF.PSTO = 1
      114     4760    2       THEN DO;
      115     4761    2           CALL ZIG$G_DYN_MEM_6(%RA_BASE_SIZE+2,RA$);
PL6.E3A0      #001=ZIG$V_AREA_REC File=ZIG$V_AREA_REC.:ZIC0TSI                   FRI 09/05/97 12:18 Page:5
      116     4762    2           END;
      117     4763    2       ELSE DO;
      118     4764    2           CALL ZIG$G_DYN_MEM_6(%RA_BASE_SIZE,RA$);
      119     4765    2           END;
      120     4766    1       AC$ = PINCRW(SSS$,TPTR$ -> AREA_HASH.SUB_OFF);
      121     4767    1       IF TYPE_420.SOUR_LINE ~= 0
      122     4768    1       THEN CALL FETCHD_6('AC  ',TPTR$ -> AREA_HASH.DBK);
      123     4769    1       RA.ACRAH = TPTR$ -> AREA_HASH.SUB_OFF;
      124     4770    1       RA.RCRAH = POFFW(RC$,SSS$);
      125     4771    1       RA.RCRAN = RC.RCRAN;
      126     4772    1       CURRENT_OFF = POFFW(RA$,SSS$);
      127     4773    1       IF RC.RCRAN ~= 0
      128     4774    1       THEN RC.DEF.MAR = '1'B;
      129     4775    1       RC.RCRAN = CURRENT_OFF;
      130     4776    1       RA.ACRAN = AC.ACRAN;
      131     4777    1       AC.ACRAN = CURRENT_OFF;
      132     4778    1       RA.DEF.TYPE = '000010000000'B;
      133     4779    1       UWA.DIRECT_REF = 0;
      134     4780    2       DO WHILE (UWA.DIRECT_REF ~= TPTR$ -> AREA_HASH.DBK AND
      135     4781    2          TYPE_420.SOUR_LINE ~= 0 );
      136     4782    2           CALL FETCHNS_6('RC-RA   ') ALTRET (NOT_FOUND);
      137     4783    2           CALL FINDOS_6('AC-RA   ') ALTRET (DBCS_ERROR);
      138     4784    2           END;
      139     4785        /*
      140     4786              We have the current RA record for that record-area relationship
      141     4787            now we just need to get the information from it.
      142     4788        */
      143     4789    1       RA.PGRNG.LOWDBK = UWA.RA.LOWDBK;
      144     4790    1       RA.PGRNG.HIGHDBK= UWA.RA.HIGHDBK;
      145     4791    1       IF RC.DEF.PSTO = 1
      146     4792    2       THEN DO;
      147     4793    2           RA.DEF.TYPE = '000010000001'B;
      148     4794    2           RA.NCHRS = UWA.RA.CALC_HDRS;
      149     4795    2           RA.CHRD = UWA.RA.HDR_OFFS;
      150     4796    2           END;
      151     4797    1       IF UWA.AC.MAX_DBK = UWA.RA.HIGHDBK
      152     4798    1          AND UWA.AC.MIN_DBK = UWA.RA.LOWDBK
PL6.E3A0      #001=ZIG$V_AREA_REC File=ZIG$V_AREA_REC.:ZIC0TSI                   FRI 09/05/97 12:18 Page:6
      153     4799    1          AND AC.FLAGS.TMPLT
      154     4800    2       THEN DO;
      155     4801    2           RA.DEF.FRANGE = '1'B;
      156     4802    2           RA.PGRNG.HIGHDBK = AC.WSOF;
      157     4803    2           END;
      158     4804        /*
      159     4805              Now write out the type 31 descriptors that relate
      160     4806            this area with that record.
      161     4807        */
      162     4808    1       IF (SUBSTR(RC.RNAM,0,1) = '*') OR (RC.DEF.SR = '1'B)
      163     4809    1       THEN RETURN;
      164     4810    1       TYPE_31.RECORD_NAME = RC.RCID / 2;
      165     4811    1       TYPE_31.AREA_NAME = AC.ACID;
      166     4812    1       TYPE_31.SUB_RECORD_NM = RC.RNAM;
      167     4813    1       TYPE_31.SUB_AREA_NM = AC.ANAM;
      168     4814    1       TYPE_31.TEMPORARY = AC.DEF.ATMP;
      169     4815    1       CALL WRITSF(CUR_EXT_NAME_SEG,TYPE_31);
      170     4816    1       CUR_EXT_NAME_SEG = CUR_EXT_NAME_SEG + 1;
      171     4817    1       CONTROL.NUM_REC_AREA_REL = CONTROL.NUM_REC_AREA_REL + 1;
      172     4818    1       RETURN;
      173     4819    1   NOT_FOUND:
      174     4820    1       I = RC.DEF.RNL;
      175     4821    1       CALL SET_FIELDS(1,I,RC.RNAM);
      176     4822    1       CALL SET_FIELDS(2,30,TYPE_420.SUB_AREA_NAME);
      177     4823    1       CALL ERROR(%ZIG_V_AREA_NO_REL);
      178     4824        /*E*     ERROR:    ZIG-ZIG_V_AREA_NO_REL-C
      179     4825        MESSAGE: The record "%U1" does not have a relationship to the area
      180     4826                 "%U2". That relationship must be given in the schema DDL
      181     4827                 for the record.
      182     4828        */
      183     4829    1       RETURN;
      184     4830    1   DBCS_ERROR:
      185     4831    1       CALL ABORT;
      186     4832    1   END ZIG$V_AREA_REC;

PL6.E3A0      #001=ZIG$V_AREA_REC File=ZIG$V_AREA_REC.:ZIC0TSI                   FRI 09/05/97 12:18 Page:7
--  Include file information  --

   ZI_SUB4_CAN.:ZIC0TOU  is referenced.
   ZIG_DBA_INT.:ZIC0TOU  cannot be made into a system file and is referenced.
   ZIG_SSS.:ZIC0TOU  is referenced.
   ZIG_TYPE_SUBS.:ZIC0TOU  is referenced.
   ZIG_GENERAL.:ZIC0TOU  cannot be made into a system file and is referenced.
   ZIG_DIR_STRUCS.:ZIC0TOU  cannot be made into a system file and is referenced.
   ZI_SUB_LANG.:ZIC0TOU  is referenced.
   ZI_ERRORS_SUBS.:ZIC0TOU  is referenced.
   B$JIT_C.:E05TOU  was found in the system file and is never referenced.
   CP_6_C.:E05TOU  was found in the system file and is never referenced.
      No diagnostics issued in procedure ZIG$V_AREA_REC.

   Procedure ZIG$V_AREA_REC requires 261 words for executable code.
   Procedure ZIG$V_AREA_REC requires 16 words of local(AUTO) storage.

    No errors detected in file ZIG$V_AREA_REC.:ZIC0TSI    .

PL6.E3A0      #001=ZIG$V_AREA_REC File=ZIG$V_AREA_REC.:ZIC0TSI                   FRI 09/05/97 12:18 Page:8

 Object Unit name= ZIG$V_AREA_REC                             File name= ZIG$V_AREA_REC.:ZIC0TOU
 UTS= SEP 05 '97 12:18:17.36 FRI                              Compiler= PL-6/E31         Sev=      00
 SharedLib= :SHARED_SYSTEM                                    Alt SharedLib=


    ****  Control sections  ****

 Sect   Type Bound  Init  Size OctSiz  Section name(segment info)
    0  LblCom even  none     1      1  CUR_EXT_NAME_SEG
    1  LblCom even  none     1      1  RECORD_FOUND
    2  LblCom even  none    12     14  ANALS
    3  LblCom even  none    13     15  PURGE
    4  LblCom even  none    19     23  DICTS
    5  LblCom even  none    23     27  DISPS
    6  LblCom even  none    22     26  VALIDS
    7  LblCom even  none    12     14  LOCKS
    8  LblCom even  none    10     12  STRAN
    9  LblCom even  none    12     14  DTRAN
   10  LblCom even  none    16     20  SSTRANS
   11  LblCom even  none    20     24  SSGEN
   12  LblCom even  none     5      5  LANG_ALLOWED
   13  LblCom even  none     1      1  SUB_LANGUAGE
   14  LblCom even  none    16     20  HEADING_TEXT
   15  LblCom even  none    13     15  LANG_TEXT
   16  LblCom even  none     1      1  HASH_SCHEMA_NAME
   17  LblCom even  none     1      1  CURRENT_RECORD
   18  LblCom even  none    64    100  CONTROL
   19  LblCom even  none    32     40  IO_BUF
   20  LblCom even  none    32     40  TYPE_31
   21  LblCom even  none     1      1  NUM_ERROR_MSG
   22  LblCom even  none     1      1  NUM_WARN_MSG
   23  LblCom even  none     1      1  ALLOCATE_END
   24  LblCom even  none     2      2  SUBSCHEMA_KEY
   25  LblCom even  none     1      1  BUFFER$
   26  LblCom even  none     1      1  ERROR_IO
   27  LblCom even  none     1      1  BUFFER_LEN
   28  LblCom even  none     2      2  UWA_KEY
PL6.E3A0      #001=ZIG$V_AREA_REC File=ZIG$V_AREA_REC.:ZIC0TSI                   FRI 09/05/97 12:18 Page:9
   29  LblCom even  none     1      1  NEXT_UWA_SECOND_HALF
   30  LblCom even  none     2      2  RVA_KEY
   31  LblCom even  none     2      2  IA__KEY
   32  LblCom even  none     1      1  NEXT_RVA_SECOND_HALF
   33  LblCom even  none    32     40  SEARCHR_NB
   34  LblCom even  none    32     40  SEM_COM
   35  LblCom even  none    32     40  DMCL_XLATE
   36  LblCom even  none    32     40  Q2_PERCENT
   37  LblCom even  none     1      1  SSS$
   38  LblCom even  none     1      1  OA$
   39  LblCom even  none     1      1  OA1$
   40  LblCom even  none     1      1  AC$
   41  LblCom even  none     1      1  AC1$
   42  LblCom even  none     1      1  RC$
   43  LblCom even  none     1      1  RC1$
   44  LblCom even  none     1      1  RA$
   45  LblCom even  none   656   1220  UWA
   46  LblCom even  none     1      1  CURRENT_OFF
   47   Data  even  none     1      1  ZIG$V_AREA_REC
   48  LblCom even  none     1      1  LAST_RC
   49  RoData even  UTS      5      5  ZIG$V_AREA_REC
   50   Proc  even  none   261    405  ZIG$V_AREA_REC
   51  RoData even  none    37     45  ZIG$V_AREA_REC

    ****  Entry defs  ****

                              Check   Calling
                             calling  sequence
  Sect OctLoc Primary Altret sequence   type   Parms  Name
    50      0   yes            yes      Std        0  ZIG$V_AREA_REC
PL6.E3A0      #001=ZIG$V_AREA_REC File=ZIG$V_AREA_REC.:ZIC0TSI                   FRI 09/05/97 12:18 Page:10

  ****  Entry refs  ****

         Check        Calling
        calling       sequence
Altret sequence SRef   type   Args  Name
         yes           Std       8 ZIG$HASH_IT
         yes           Std       3 SET_FIELDS
 yes     yes           Std       2 FETCHD_6
         yes           Std       1 ERROR
         yes           Std       2 ZIG$G_DYN_MEM_6
 yes     yes           Std       1 FETCHNS_6
 yes     yes           Std       1 FINDOS_6
         yes           Std       2 WRITSF
         yes           Std       0 ABORT
                       nStd      0 X66_AUTO_0
                       nStd      0 X66_ARET

  ****  Segment refs  ****

  Flags:  r = read only, s = secondary
Flgs Name                             Flgs Name                             Flgs Name
     ISSID
PL6.E3A0      #001=ZIG$V_AREA_REC File=ZIG$V_AREA_REC.:ZIC0TSI                   FRI 09/05/97 12:18 Page:11


        1        1        /*M*     ZIG$V_AREA_REC      I-D-S/II       DBACS */
        2        2        /*T***********************************************************/
        3        3        /*T*                                                         */
        4        4        /*T* Copyright (c) Bull HN Information Systems Inc., 1997    */
        5        5        /*T*                                                         */
        6        6        /*T***********************************************************/
        7        7        /*P*
        8        8        NAME:    ZIG$V_AREA_REC
        9        9        PURPOSE:
       10       10              To put in the RA records that connect the records to the sets
       11       11            in the subschema DDL text.
       12       12        */
       13       13        /*
       14       14        ZZZZZ  III   GGG    $   V   V        AAA  RRRR  EEEEE  AAA
       15       15            Z   I   G   G  $$$  V   V       A   A R   R E     A   A
       16       16           Z    I   G     $ $   V   V       A   A R   R E     A   A
       17       17          Z     I   G      $$$  V   V       AAAAA RRRR  EEEE  AAAAA
       18       18         Z      I   G  GG   $ $ V   V       A   A R R   E     A   A
       19       19        Z       I   G   G  $$$   V V        A   A R  R  E     A   A
       20       20        ZZZZZ  III   GGG    $     V         A   A R   R EEEEE A   A
       21       21                                      _____
       22       22
       23       23        0
       24       24              RRRR  EEEEE  CCC
       25       25              R   R E     C   C
       26       26              R   R E     C
       27       27              RRRR  EEEE  C
       28       28              R R   E     C
       29       29              R  R  E     C   C
       30       30              R   R EEEEE  CCC
       31       31        _____
       32       32        */
       33       33        %EJECT;
PL6.E3A0      #001=ZIG$V_AREA_REC File=ZIG$V_AREA_REC.:ZIC0TSI                   FRI 09/05/97 12:18 Page:12
       34       34        ZIG$V_AREA_REC:
       35       35            PROC;

     35 50 000000   000000 700200 xent  ZIG$V_AREA_* TSX0  ! X66_AUTO_0
        50 000001   000020 000000                    ZERO    16,0

       36       36    1   DCL ZIG$HASH_IT ENTRY (8);
       37       37    1   DCL WRITSF ENTRY (2);
       38       38    1   DCL CUR_EXT_NAME_SEG UBIN (36) EXT;
       39       39    1   DCL RECORD_FOUND BIT (1) EXT;
       40       40        %INCLUDE ZI_ERRORS_SUBS;
       41      560        %INCLUDE ZI_SUB_LANG;
       42     2275        %INCLUDE ZIG_DIR_STRUCS;
       43     2405        %GENERAL;
       44     2529        %CONTROL_BLOCK;
       45     2637    1   DCL IO_BUF CHAR (128) EXT;
       46     2638        %DESC_TYPE_420(STCLASS="REDEF IO_BUF");
       47     2671        %DESC_TYPE_31;
       48     2713        %INCLUDE ZIG_GENERAL;
       49     2821        %INCLUDE ZIG_TYPE_SUBS;
       50     2836        %INCLUDE ZIG_SSS;
       51     3406        %SS_GENERAL(PSTCLASS=EXT);
       52     3427        %OA(PSTCLASS=EXT);
       53     3494        %OA1(PSTCLASS=EXT);
       54     3502        %AC(PSTCLASS=EXT);
       55     3597        %AC1(PSTCLASS=EXT);
       56     3605        %RC(PSTCLASS=EXT);
       57     3638        %RC1(PSTCLASS=EXT);
       58     3648        %RA(PSTCLASS=EXT);
       59     3668        %INCLUDE ZIG_DBA_INT;
       60     3716        %INCLUDE ZI_SUB4_CAN;
       61     4373        %UWA;
       62     4708        %EJECT;
PL6.E3A0      #001=ZIG$V_AREA_REC File=ZIG$V_AREA_REC.:ZIC0TSI                   FRI 09/05/97 12:18 Page:13
       63     4709    1   DCL I UBIN (36);
       64     4710    1   DCL TPTR$ PTR;
       65     4711    1   DCL SUCC BIT (1);
       66     4712    1   DCL CURRENT_OFF UBIN (36) EXT;
       67     4713    1   DCL STATUS UBIN (6);
       68     4714    1   DCL ERROR_FLG UBIN (36) STATIC;
       69     4715    1   DCL LAST_RC UBIN (18) EXT;
       70     4716        /*
       71     4717            Note:
       72     4718                   The pointer RC$ and RC1$ are pointing to the current
       73     4719                 RC record that this RA record belongs too.  All we have
       74     4720                 to do is find the AC record in the schema subset and
       75     4721                 get its offset and it conect it up to the sets that it
       76     4722                 belongs to.
       77     4723        */
       78     4724        %EJECT;
PL6.E3A0      #001=ZIG$V_AREA_REC File=ZIG$V_AREA_REC.:ZIC0TSI                   FRI 09/05/97 12:18 Page:14
       79     4725    1       STATUS = #AREA_DEF;

   4725 50 000002   010000 236003                    LDQ     4096,DU
        50 000003   200006 756100                    STQ     STATUS,,AUTO

       80     4726    1       ALLOCATE_END = 1;

   4726 50 000004   000001 235007                    LDA     1,DL
        50 000005   000000 755000 23                 STA     ALLOCATE_END

       81     4727    1       HASH_SCHEMA_NAME = '1'B;

   4727 50 000006   400000 236003                    LDQ     -131072,DU
        50 000007   000000 756000 16                 STQ     HASH_SCHEMA_NAME

       82     4728    1       CALL ZIG$HASH_IT(TYPE_420.AREA_NAME,#NO_ADD,ERROR_FLG,0,1,12,

   4728 50 000010   200006 630500                    EPPR0   STATUS,,AUTO
        50 000011   200017 450500                    STP0    STATUS+9,,AUTO
        50 000012   200004 631500                    EPPR1   TPTR$,,AUTO
        50 000013   200016 451500                    STP1    STATUS+8,,AUTO
        50 000014   000004 237000 51                 LDAQ    4
        50 000015   200014 757100                    STAQ    STATUS+6,,AUTO
        50 000016   000006 237000 51                 LDAQ    6
        50 000017   200012 757100                    STAQ    STATUS+4,,AUTO
        50 000020   000010 237000 51                 LDAQ    8
        50 000021   200010 757100                    STAQ    STATUS+2,,AUTO
        50 000022   200010 630500                    EPPR0   STATUS+2,,AUTO
        50 000023   000000 631400 51                 EPPR1   0
        50 000024   000000 701000 xent               TSX1    ZIG$HASH_IT
        50 000025   000000 011000                    NOP     0

       83     4729    1          TPTR$,STATUS);
       84     4730    1       ALLOCATE_END = 0;

   4730 50 000026   000000 450000 23                 STZ     ALLOCATE_END

PL6.E3A0      #001=ZIG$V_AREA_REC File=ZIG$V_AREA_REC.:ZIC0TSI                   FRI 09/05/97 12:18 Page:15
       85     4731    1       IF TYPE_420.SOUR_LINE = 0

   4731 50 000027   000002 235000 19                 LDA     IO_BUF+2
        50 000030   000037 601000 50                 TNZ     s:4740

       86     4732    2       THEN DO;

       87     4733    2           IF ERROR_FLG = 0

   4733 50 000031   000000 236000 47                 LDQ     ERROR_FLG
        50 000032   000035 601000 50                 TNZ     s:4738

       88     4734    3           THEN DO;

       89     4735    3               RECORD_FOUND = '0'B;

   4735 50 000033   000000 450000 1                  STZ     RECORD_FOUND

       90     4736    3               RETURN;

   4736 50 000034   000000 702200 xent               TSX2  ! X66_ARET

       91     4737    3               END;
       92     4738    2           RECORD_FOUND = '1'B;

   4738 50 000035   400000 236003                    LDQ     -131072,DU
        50 000036   000000 756000 1                  STQ     RECORD_FOUND

       93     4739    2           END;

       94     4740    1       IF ERROR_FLG = 0

   4740 50 000037   000000 236000 47                 LDQ     ERROR_FLG
        50 000040   000071 601000 50                 TNZ     s:4753

       95     4741    2       THEN DO;

PL6.E3A0      #001=ZIG$V_AREA_REC File=ZIG$V_AREA_REC.:ZIC0TSI                   FRI 09/05/97 12:18 Page:16
       96     4742    2           I = RC.DEF.RNL;

   4742 50 000041   000000 470400 42                 LDP0    RC$
        50 000042   000000 236100                    LDQ     0,,PR0
        50 000043   000077 376007                    ANQ     63,DL
        50 000044   200003 756100                    STQ     I,,AUTO

       97     4743    2           CALL SET_FIELDS(1,I,RC.RNAM);

   4743 50 000045   000000 236000 42                 LDQ     RC$
        50 000046   000005 036003                    ADLQ    5,DU
        50 000047   200012 756100                    STQ     STATUS+4,,AUTO
        50 000050   200003 631500                    EPPR1   I,,AUTO
        50 000051   200011 451500                    STP1    STATUS+3,,AUTO
        50 000052   000004 236000 51                 LDQ     4
        50 000053   200010 756100                    STQ     STATUS+2,,AUTO
        50 000054   200010 630500                    EPPR0   STATUS+2,,AUTO
        50 000055   000012 631400 51                 EPPR1   10
        50 000056   000000 701000 xent               TSX1    SET_FIELDS
        50 000057   000000 011000                    NOP     0

       98     4744    2           CALL SET_FIELDS(2,30,TYPE_420.SUB_AREA_NAME);

   4744 50 000060   000015 630400 51                 EPPR0   13
        50 000061   000012 631400 51                 EPPR1   10
        50 000062   000000 701000 xent               TSX1    SET_FIELDS
        50 000063   000000 011000                    NOP     0

       99     4745    2           CALL ERROR(%ZIG_V_AREA_NO_FOUND);

   4745 50 000064   000022 630400 51                 EPPR0   18
        50 000065   000020 631400 51                 EPPR1   16
        50 000066   000000 701000 xent               TSX1    ERROR
        50 000067   000000 011000                    NOP     0

      100     4746        /*E*     ERROR:    ZIG-ZIG_V_AREA_NO_FOUND-C
      101     4747        MESSAGE: The area "%U2" cannot be found in the subschema hash table
PL6.E3A0      #001=ZIG$V_AREA_REC File=ZIG$V_AREA_REC.:ZIC0TSI                   FRI 09/05/97 12:18 Page:17
      102     4748                 for the record "%U1".
      103     4749                 <<<< SOFTWARE ERROR >>>>
      104     4750        */
      105     4751    2           RETURN;

   4751 50 000070   000000 702200 xent               TSX2  ! X66_ARET

      106     4752    2           END;
      107     4753    1       CALL ZIG$G_DYN_MEM_6(0,RA$);

   4753 50 000071   000024 630400 51                 EPPR0   20
        50 000072   000023 631400 51                 EPPR1   19
        50 000073   000000 701000 xent               TSX1    ZIG$G_DYN_MEM_6
        50 000074   000000 011000                    NOP     0

      108     4754    1       I = POFFW(RA$,SSS$);

   4754 50 000075   000000 235000 37                 LDA     SSS$
        50 000076   000022 771000                    ARL     18
        50 000077   200010 755100                    STA     STATUS+2,,AUTO
        50 000100   000000 236000 44                 LDQ     RA$
        50 000101   000022 772000                    QRL     18
        50 000102   200010 136100                    SBLQ    STATUS+2,,AUTO
        50 000103   200003 756100                    STQ     I,,AUTO

      109     4755    1       IF MOD(I,2) = 0

   4755 50 000104   000001 376007                    ANQ     1,DL
        50 000105   000112 601000 50                 TNZ     s:4759

      110     4756    2       THEN DO;

      111     4757    2           CALL ZIG$G_DYN_MEM_6(1,RA$);

   4757 50 000106   000026 630400 51                 EPPR0   22
        50 000107   000023 631400 51                 EPPR1   19
        50 000110   000000 701000 xent               TSX1    ZIG$G_DYN_MEM_6
PL6.E3A0      #001=ZIG$V_AREA_REC File=ZIG$V_AREA_REC.:ZIC0TSI                   FRI 09/05/97 12:18 Page:18
        50 000111   000000 011000                    NOP     0

      112     4758    2           END;

      113     4759    1       IF RC.DEF.PSTO = 1

   4759 50 000112   000000 470400 42                 LDP0    RC$
        50 000113   000000 236100                    LDQ     0,,PR0
        50 000114   000007 376003                    ANQ     7,DU
        50 000115   000001 116003                    CMPQ    1,DU
        50 000116   000124 601000 50                 TNZ     s:4764

      114     4760    2       THEN DO;

      115     4761    2           CALL ZIG$G_DYN_MEM_6(%RA_BASE_SIZE+2,RA$);

   4761 50 000117   000031 630400 51                 EPPR0   25
        50 000120   000023 631400 51                 EPPR1   19
        50 000121   000000 701000 xent               TSX1    ZIG$G_DYN_MEM_6
        50 000122   000000 011000                    NOP     0

      116     4762    2           END;

   4762 50 000123   000130 710000 50                 TRA     s:4766

      117     4763    2       ELSE DO;

      118     4764    2           CALL ZIG$G_DYN_MEM_6(%RA_BASE_SIZE,RA$);

   4764 50 000124   000034 630400 51                 EPPR0   28
        50 000125   000023 631400 51                 EPPR1   19
        50 000126   000000 701000 xent               TSX1    ZIG$G_DYN_MEM_6
        50 000127   000000 011000                    NOP     0

      119     4765    2           END;

      120     4766    1       AC$ = PINCRW(SSS$,TPTR$ -> AREA_HASH.SUB_OFF);
PL6.E3A0      #001=ZIG$V_AREA_REC File=ZIG$V_AREA_REC.:ZIC0TSI                   FRI 09/05/97 12:18 Page:19

   4766 50 000130   200004 470500                    LDP0    TPTR$,,AUTO
        50 000131   000012 720100                    LXL0    10,,PR0
        50 000132   000000 636010                    EAQ     0,X0
        50 000133   000000 036000 37                 ADLQ    SSS$
        50 000134   000000 756000 40                 STQ     AC$

      121     4767    1       IF TYPE_420.SOUR_LINE ~= 0

   4767 50 000135   000002 235000 19                 LDA     IO_BUF+2
        50 000136   000147 600000 50                 TZE     s:4769

      122     4768    1       THEN CALL FETCHD_6('AC  ',TPTR$ -> AREA_HASH.DBK);

   4768 50 000137   200004 236100                    LDQ     TPTR$,,AUTO
        50 000140   000013 036003                    ADLQ    11,DU
        50 000141   000036 235000 51                 LDA     30
        50 000142   200010 757100                    STAQ    STATUS+2,,AUTO
        50 000143   200010 630500                    EPPR0   STATUS+2,,AUTO
        50 000144   000023 631400 51                 EPPR1   19
        50 000145   000000 701000 xent               TSX1    FETCHD_6
        50 000146   000000 011000                    NOP     0

      123     4769    1       RA.ACRAH = TPTR$ -> AREA_HASH.SUB_OFF;

   4769 50 000147   200004 470500                    LDP0    TPTR$,,AUTO
        50 000150   000012 720100                    LXL0    10,,PR0
        50 000151   000000 471400 44                 LDP1    RA$
        50 000152   100002 440100                    SXL0    2,,PR1

      124     4770    1       RA.RCRAH = POFFW(RC$,SSS$);

   4770 50 000153   000000 235000 37                 LDA     SSS$
        50 000154   000022 771000                    ARL     18
        50 000155   200010 755100                    STA     STATUS+2,,AUTO
        50 000156   000000 236000 42                 LDQ     RC$
        50 000157   000022 772000                    QRL     18
PL6.E3A0      #001=ZIG$V_AREA_REC File=ZIG$V_AREA_REC.:ZIC0TSI                   FRI 09/05/97 12:18 Page:20
        50 000160   200010 136100                    SBLQ    STATUS+2,,AUTO
        50 000161   000000 620006                    EAX0    0,QL
        50 000162   100002 740100                    STX0    2,,PR1

      125     4771    1       RA.RCRAN = RC.RCRAN;

   4771 50 000163   000000 470400 42                 LDP0    RC$
        50 000164   000001 221100                    LDX1    1,,PR0
        50 000165   100001 741100                    STX1    1,,PR1

      126     4772    1       CURRENT_OFF = POFFW(RA$,SSS$);

   4772 50 000166   200010 755100                    STA     STATUS+2,,AUTO
        50 000167   000000 236000 44                 LDQ     RA$
        50 000170   000022 772000                    QRL     18
        50 000171   200010 136100                    SBLQ    STATUS+2,,AUTO
        50 000172   000000 756000 46                 STQ     CURRENT_OFF

      127     4773    1       IF RC.RCRAN ~= 0

   4773 50 000173   000001 220100                    LDX0    1,,PR0
        50 000174   000177 600000 50                 TZE     s:4775

      128     4774    1       THEN RC.DEF.MAR = '1'B;

   4774 50 000175   020000 236007                    LDQ     8192,DL
        50 000176   000000 256100                    ORSQ    0,,PR0

      129     4775    1       RC.RCRAN = CURRENT_OFF;

   4775 50 000177   000000 720000 46                 LXL0    CURRENT_OFF
        50 000200   000000 470400 42                 LDP0    RC$
        50 000201   000001 740100                    STX0    1,,PR0

      130     4776    1       RA.ACRAN = AC.ACRAN;

   4776 50 000202   000000 471400 40                 LDP1    AC$
PL6.E3A0      #001=ZIG$V_AREA_REC File=ZIG$V_AREA_REC.:ZIC0TSI                   FRI 09/05/97 12:18 Page:21
        50 000203   100001 721100                    LXL1    1,,PR1
        50 000204   000000 473400 44                 LDP3    RA$
        50 000205   300001 441100                    SXL1    1,,PR3

      131     4777    1       AC.ACRAN = CURRENT_OFF;

   4777 50 000206   100001 440100                    SXL0    1,,PR1

      132     4778    1       RA.DEF.TYPE = '000010000000'B;

   4778 50 000207   020000 236003                    LDQ     8192,DU
        50 000210   300000 752160                    STCQ    0,'60'O,PR3

      133     4779    1       UWA.DIRECT_REF = 0;

   4779 50 000211   000036 450000 45                 STZ     UWA+30

      134     4780    2       DO WHILE (UWA.DIRECT_REF ~= TPTR$ -> AREA_HASH.DBK AND

   4780 50 000212   000223 710000 50                 TRA     s:4784

      135     4781    2          TYPE_420.SOUR_LINE ~= 0 );
      136     4782    2           CALL FETCHNS_6('RC-RA   ') ALTRET (NOT_FOUND);

   4782 50 000213   000037 630400 51                 EPPR0   31
        50 000214   000020 631400 51                 EPPR1   16
        50 000215   000000 701000 xent               TSX1    FETCHNS_6
        50 000216   000351 702000 50                 TSX2    NOT_FOUND

      137     4783    2           CALL FINDOS_6('AC-RA   ') ALTRET (DBCS_ERROR);

   4783 50 000217   000040 630400 51                 EPPR0   32
        50 000220   000020 631400 51                 EPPR1   16
        50 000221   000000 701000 xent               TSX1    FINDOS_6
        50 000222   000401 702000 50                 TSX2    DBCS_ERROR

      138     4784    2           END;
PL6.E3A0      #001=ZIG$V_AREA_REC File=ZIG$V_AREA_REC.:ZIC0TSI                   FRI 09/05/97 12:18 Page:22

   4784 50 000223   200004 470500                    LDP0    TPTR$,,AUTO
        50 000224   000036 236000 45                 LDQ     UWA+30
        50 000225   000013 116100                    CMPQ    11,,PR0
        50 000226   000231 600000 50                 TZE     s:4789
        50 000227   000002 235000 19                 LDA     IO_BUF+2
        50 000230   000213 601000 50                 TNZ     s:4782

      139     4785        /*
      140     4786              We have the current RA record for that record-area relationship
      141     4787            now we just need to get the information from it.
      142     4788        */
      143     4789    1       RA.PGRNG.LOWDBK = UWA.RA.LOWDBK;

   4789 50 000231   000000 471400 44                 LDP1    RA$
        50 000232   000326 235000 45                 LDA     UWA+214
        50 000233   100003 755100                    STA     3,,PR1

      144     4790    1       RA.PGRNG.HIGHDBK= UWA.RA.HIGHDBK;

   4790 50 000234   000327 236000 45                 LDQ     UWA+215
        50 000235   100004 756100                    STQ     4,,PR1

      145     4791    1       IF RC.DEF.PSTO = 1

   4791 50 000236   000000 470400 42                 LDP0    RC$
        50 000237   000000 236100                    LDQ     0,,PR0
        50 000240   000007 376003                    ANQ     7,DU
        50 000241   000001 116003                    CMPQ    1,DU
        50 000242   000252 601000 50                 TNZ     s:4797

      146     4792    2       THEN DO;

      147     4793    2           RA.DEF.TYPE = '000010000001'B;

   4793 50 000243   020100 236003                    LDQ     8256,DU
        50 000244   100000 752160                    STCQ    0,'60'O,PR1
PL6.E3A0      #001=ZIG$V_AREA_REC File=ZIG$V_AREA_REC.:ZIC0TSI                   FRI 09/05/97 12:18 Page:23

      148     4794    2           RA.NCHRS = UWA.RA.CALC_HDRS;

   4794 50 000245   000000 470400 44                 LDP0    RA$
        50 000246   000330 235000 45                 LDA     UWA+216
        50 000247   000005 755100                    STA     5,,PR0

      149     4795    2           RA.CHRD = UWA.RA.HDR_OFFS;

   4795 50 000250   000331 235000 45                 LDA     UWA+217
        50 000251   000006 755100                    STA     6,,PR0

      150     4796    2           END;

      151     4797    1       IF UWA.AC.MAX_DBK = UWA.RA.HIGHDBK

   4797 50 000252   000246 236000 45                 LDQ     UWA+166
        50 000253   000327 116000 45                 CMPQ    UWA+215
        50 000254   000274 601000 50                 TNZ     s:4808
        50 000255   000245 236000 45                 LDQ     UWA+165
        50 000256   000326 116000 45                 CMPQ    UWA+214
        50 000257   000274 601000 50                 TNZ     s:4808
        50 000260   000000 470400 40                 LDP0    AC$
        50 000261   000015 236100                    LDQ     13,,PR0
        50 000262   040000 316007                    CANQ    16384,DL
        50 000263   000274 600000 50                 TZE     s:4808

      152     4798    1          AND UWA.AC.MIN_DBK = UWA.RA.LOWDBK
      153     4799    1          AND AC.FLAGS.TMPLT
      154     4800    2       THEN DO;

      155     4801    2           RA.DEF.FRANGE = '1'B;

   4801 50 000264   000000 471400 44                 LDP1    RA$
        50 000265   000002 236003                    LDQ     2,DU
        50 000266   100000 256100                    ORSQ    0,,PR1

PL6.E3A0      #001=ZIG$V_AREA_REC File=ZIG$V_AREA_REC.:ZIC0TSI                   FRI 09/05/97 12:18 Page:24
      156     4802    2           RA.PGRNG.HIGHDBK = AC.WSOF;

   4802 50 000267   000000 470400 40                 LDP0    AC$
        50 000270   000003 236100                    LDQ     3,,PR0
        50 000271   000022 772000                    QRL     18
        50 000272   000000 471400 44                 LDP1    RA$
        50 000273   100004 756100                    STQ     4,,PR1

      157     4803    2           END;

      158     4804        /*
      159     4805              Now write out the type 31 descriptors that relate
      160     4806            this area with that record.
      161     4807        */
      162     4808    1       IF (SUBSTR(RC.RNAM,0,1) = '*') OR (RC.DEF.SR = '1'B)

   4808 50 000274   000000 470400 42                 LDP0    RC$
        50 000275   000000 720100                    LXL0    0,,PR0
        50 000276   000077 360003                    ANX0    63,DU
        50 000277   000005 236100                    LDQ     5,,PR0
        50 000300   777000 376003                    ANQ     -512,DU
        50 000301   052000 116003                    CMPQ    21504,DU
        50 000302   000306 600000 50                 TZE     s:4809
        50 000303   000000 236100                    LDQ     0,,PR0
        50 000304   100000 316007                    CANQ    32768,DL
        50 000305   000307 600000 50                 TZE     s:4810

      163     4809    1       THEN RETURN;

   4809 50 000306   000000 702200 xent               TSX2  ! X66_ARET

      164     4810    1       TYPE_31.RECORD_NAME = RC.RCID / 2;

   4810 50 000307   000001 236100                    LDQ     1,,PR0
        50 000310   777777 376007                    ANQ     -1,DL
        50 000311   000001 772000                    QRL     1
        50 000312   000001 756000 20                 STQ     TYPE_31+1
PL6.E3A0      #001=ZIG$V_AREA_REC File=ZIG$V_AREA_REC.:ZIC0TSI                   FRI 09/05/97 12:18 Page:25

      165     4811    1       TYPE_31.AREA_NAME = AC.ACID;

   4811 50 000313   000000 471400 40                 LDP1    AC$
        50 000314   100003 236100                    LDQ     3,,PR1
        50 000315   777777 376007                    ANQ     -1,DL
        50 000316   000002 756000 20                 STQ     TYPE_31+2

      166     4812    1       TYPE_31.SUB_RECORD_NM = RC.RNAM;

   4812 50 000317   000000 720100                    LXL0    0,,PR0
        50 000320   000077 360003                    ANX0    63,DU
        50 000321   040000 100540                    MLR     fill='040'O
        50 000322   000005 000010                    ADSC9   5,,PR0                   cn=0,n=*X0
        50 000323   000005 000040 20                 ADSC9   TYPE_31+5                cn=0,n=32

      167     4813    1       TYPE_31.SUB_AREA_NM = AC.ANAM;

   4813 50 000324   100000 720100                    LXL0    0,,PR1
        50 000325   000077 360003                    ANX0    63,DU
        50 000326   040000 100540                    MLR     fill='040'O
        50 000327   100026 000010                    ADSC9   22,,PR1                  cn=0,n=*X0
        50 000330   000015 000040 20                 ADSC9   TYPE_31+13               cn=0,n=32

      168     4814    1       TYPE_31.TEMPORARY = AC.DEF.ATMP;

   4814 50 000331   100000 236100                    LDQ     0,,PR1
        50 000332   000035 736000                    QLS     29
        50 000333   000004 676000 20                 ERQ     TYPE_31+4
        50 000334   400000 376003                    ANQ     -131072,DU
        50 000335   000004 656000 20                 ERSQ    TYPE_31+4

      169     4815    1       CALL WRITSF(CUR_EXT_NAME_SEG,TYPE_31);

   4815 50 000336   000041 630400 51                 EPPR0   33
        50 000337   000023 631400 51                 EPPR1   19
        50 000340   000000 701000 xent               TSX1    WRITSF
PL6.E3A0      #001=ZIG$V_AREA_REC File=ZIG$V_AREA_REC.:ZIC0TSI                   FRI 09/05/97 12:18 Page:26
        50 000341   000000 011000                    NOP     0

      170     4816    1       CUR_EXT_NAME_SEG = CUR_EXT_NAME_SEG + 1;

   4816 50 000342   000000 235000 0                  LDA     CUR_EXT_NAME_SEG
        50 000343   000001 035007                    ADLA    1,DL
        50 000344   000000 755000 0                  STA     CUR_EXT_NAME_SEG

      171     4817    1       CONTROL.NUM_REC_AREA_REL = CONTROL.NUM_REC_AREA_REL + 1;

   4817 50 000345   000017 236000 18                 LDQ     CONTROL+15
        50 000346   000001 036007                    ADLQ    1,DL
        50 000347   000017 756000 18                 STQ     CONTROL+15

      172     4818    1       RETURN;

   4818 50 000350   000000 702200 xent               TSX2  ! X66_ARET

      173     4819    1   NOT_FOUND:
      174     4820    1       I = RC.DEF.RNL;

   4820 50 000351   000000 470400 42    NOT_FOUND    LDP0    RC$
        50 000352   000000 236100                    LDQ     0,,PR0
        50 000353   000077 376007                    ANQ     63,DL
        50 000354   200003 756100                    STQ     I,,AUTO

      175     4821    1       CALL SET_FIELDS(1,I,RC.RNAM);

   4821 50 000355   000000 236000 42                 LDQ     RC$
        50 000356   000005 036003                    ADLQ    5,DU
        50 000357   200012 756100                    STQ     STATUS+4,,AUTO
        50 000360   200003 631500                    EPPR1   I,,AUTO
        50 000361   200011 451500                    STP1    STATUS+3,,AUTO
        50 000362   000004 236000 51                 LDQ     4
        50 000363   200010 756100                    STQ     STATUS+2,,AUTO
        50 000364   200010 630500                    EPPR0   STATUS+2,,AUTO
        50 000365   000012 631400 51                 EPPR1   10
PL6.E3A0      #001=ZIG$V_AREA_REC File=ZIG$V_AREA_REC.:ZIC0TSI                   FRI 09/05/97 12:18 Page:27
        50 000366   000000 701000 xent               TSX1    SET_FIELDS
        50 000367   000000 011000                    NOP     0

      176     4822    1       CALL SET_FIELDS(2,30,TYPE_420.SUB_AREA_NAME);

   4822 50 000370   000015 630400 51                 EPPR0   13
        50 000371   000012 631400 51                 EPPR1   10
        50 000372   000000 701000 xent               TSX1    SET_FIELDS
        50 000373   000000 011000                    NOP     0

      177     4823    1       CALL ERROR(%ZIG_V_AREA_NO_REL);

   4823 50 000374   000044 630400 51                 EPPR0   36
        50 000375   000020 631400 51                 EPPR1   16
        50 000376   000000 701000 xent               TSX1    ERROR
        50 000377   000000 011000                    NOP     0

      178     4824        /*E*     ERROR:    ZIG-ZIG_V_AREA_NO_REL-C
      179     4825        MESSAGE: The record "%U1" does not have a relationship to the area
      180     4826                 "%U2". That relationship must be given in the schema DDL
      181     4827                 for the record.
      182     4828        */
      183     4829    1       RETURN;

   4829 50 000400   000000 702200 xent               TSX2  ! X66_ARET

      184     4830    1   DBCS_ERROR:
      185     4831    1       CALL ABORT;

   4831 50 000401   000002 631400 51    DBCS_ERROR   EPPR1   2
        50 000402   000000 701000 xent               TSX1    ABORT
        50 000403   000000 011000                    NOP     0

      186     4832    1   END ZIG$V_AREA_REC;

   4832 50 000404   000000 702200 xent               TSX2  ! X66_ARET

PL6.E3A0      #001=ZIG$V_AREA_REC File=ZIG$V_AREA_REC.:ZIC0TSI                   FRI 09/05/97 12:18 Page:28
ANALS
 Sect OctLoc
   2     000   ****** ******   ****** ******   ****** ******   ****** ******    ................

PURGE
 Sect OctLoc
   3     000   ****** ******   ****** ******   ****** ******   ****** ******    ................

DICTS
 Sect OctLoc
   4     000   ****** ******   ****** ******   ****** ******   ****** ******    ................

DISPS
 Sect OctLoc
   5     000   ***00* ******   ****** ******   ****** ******   ****** ******    ................
   5     024*  ****** ******   ****** ******   ****** ******                    ............

VALIDS
 Sect OctLoc
   6     000   ****** ******   ****** ******   ****** ******   ****** ******    ................

LOCKS
 Sect OctLoc
   7     000   ****** ******   ****** ******   ****** ******   ****** ******    ................

STRAN
 Sect OctLoc
   8     000   ****** ******   ****** ******   ****** ******   ****** ******    ................

DTRAN
 Sect OctLoc
   9     000   ****** ******   ****** ******   ****** ******   ****** ******    ................

SSTRANS
 Sect OctLoc
  10     000   ****** ******   ****** ******   ****** ******   ****** ******    ................

PL6.E3A0      #001=ZIG$V_AREA_REC File=ZIG$V_AREA_REC.:ZIC0TSI                   FRI 09/05/97 12:18 Page:29
SSGEN
 Sect OctLoc
  11     000   ****** ******   ****** ******   ****** ******   ****** ******    ................

LANG_ALLOWED
 Sect OctLoc
  12     000   ****** ******   ****** ******   ****** ******   ****** ******    ................

HEADING_TEXT
 Sect OctLoc
  14     000   ****** ******   ****** ******   ****** ******   ****** ******    ................

LANG_TEXT
 Sect OctLoc
  15     000   116117 124040   125123 105104   040040 103117   102117 114040    NOT USED  COBOL
  15     004   040040 040040   106117 122124   122101 116040   040040 101120        FORTRAN   AP
  15     010   114040 040040   040040 040040   102101 123111   103040 040040    L       BASIC
  15     014   040040 ******                                                      ..

HASH_SCHEMA_NAME
 Sect OctLoc
  16     000   0***** ******                                                    ....

CONTROL
 Sect OctLoc
  18     000   777777 777777   000000 000001   000000 000000   000000 000036    ................
  18     004   000000 000060   000000 000000   000000 000000   000000 000000    ...0............
  18     010   000000 000000   000000 000000   000000 000000   000000 000000    ................
  18     020*  040040 040040   040040 040040   040040 040040   040040 040040
  18     040*  000000 000144   000000 000000   400000 000000   042116 125114    ...d........"NUL
  18     044   114042 040040   040040 040040   042116 125114   114042 040040    L"      "NULL"
  18     050   040040 040040   000000 000060   000000 000000   000000 000000        ...0........
  18     054   000000 000000   000000 000000   000000 000000   000000 000000    ................
  18     064*  000000 000000   040040 040040   040040 040040   040040 040040    ....
  18     070   000000 000000   000000 000000   000000 000000   000000 000000    ................
  18     074   000000 000002   000000 000000   000000 000000   000000 000000    ................

PL6.E3A0      #001=ZIG$V_AREA_REC File=ZIG$V_AREA_REC.:ZIC0TSI                   FRI 09/05/97 12:18 Page:30
IO_BUF
 Sect OctLoc
  19     000   ****** ******   ****** ******   ****** ******   ****** ******    ................

TYPE_31
 Sect OctLoc
  20     000   000000 000037   000000 000000   000000 000000   000000 000037    ................
  20     004   000000 000000   040040 040040   040040 040040   040040 040040    ....
  20     010   040040 040040   040040 040040   040040 040040   040040 040040
  20     024*  040040 040040   ****** ******   ****** ******   ****** ******        ............
  20     030   000000 000000   000000 000000   000000 000000   000000 000000    ................
  20     034   000000 000000   000000 000000   000000 000000   000000 000000    ................

UWA_KEY
 Sect OctLoc
  28     000   007125 127101   ****** ******                                    .UWA....

RVA_KEY
 Sect OctLoc
  30     000   007122 126101   ****** ******                                    .RVA....

IA__KEY
 Sect OctLoc
  31     000   007111 101137   ****** ******                                    .IA_....

SEARCHR_NB
 Sect OctLoc
  33     000   001001 001001   001001 001001   001001 001001   001001 001001    ................
  33     010*  000001 001001   001001 001001   001001 001001   001001 001001    ................
  33     014   001001 001001   001001 001001   001001 001001   001001 001001    ................
  33     034*  001001 001001   001001 001001   001001 001001   001001 001001    ................

SEM_COM
 Sect OctLoc
  34     000   000001 002003   004005 006007   010011 012013   014015 016017    ................
  34     004   020021 022023   024025 026027   030031 032033   034035 036037    ................
  34     010   040041 042043   044045 046047   050051 052053   054055 056057     !"#$%&'()*+,-./
PL6.E3A0      #001=ZIG$V_AREA_REC File=ZIG$V_AREA_REC.:ZIC0TSI                   FRI 09/05/97 12:18 Page:31
  34     014   060061 062063   064065 066067   070071 072040   074075 076077    0123456789: <=>?
  34     020   100101 102103   104105 106107   110111 112113   114115 116117    @ABCDEFGHIJKLMNO
  34     024   120121 122123   124125 126127   130131 132133   134135 136137    PQRSTUVWXYZ[\]^_
  34     030   140141 142143   144145 146147   150151 152153   154155 156157    `abcdefghijklmno
  34     034   160161 162163   164165 166167   170171 172173   174175 176177    pqrstuvwxyz{|}~.

DMCL_XLATE
 Sect OctLoc
  35     000   000001 002003   004005 006007   010011 012013   014015 016017    ................
  35     004   020021 022023   024025 026027   030031 032033   034035 036037    ................
  35     010   040041 041043   044045 046047   050051 052053   054055 136057     !!#$%&'()*+,-^/
  35     014   060061 062063   064065 066067   070071 072040   074075 076077    0123456789: <=>?
  35     020   100101 102103   104105 106107   110111 112113   114115 116117    @ABCDEFGHIJKLMNO
  35     024   120121 122123   124125 126127   130131 132133   134135 136137    PQRSTUVWXYZ[\]^_
  35     030   140141 142143   144145 146147   150151 152153   154155 156157    `abcdefghijklmno
  35     034   160161 162163   164165 166167   170171 172173   174175 176177    pqrstuvwxyz{|}~.

Q2_PERCENT
 Sect OctLoc
  36     000   000001 002003   004005 006007   010011 012013   014015 016017    ................
  36     004   020021 022023   024025 026027   030031 032033   034035 036037    ................
  36     010   040041 045043   044045 046047   050051 052053   054055 056057     !%#$%&'()*+,-./
  36     014   060061 062063   064065 066067   070071 072073   074075 076077    0123456789:;<=>?
  36     020   100101 102103   104105 106107   110111 112113   114115 116117    @ABCDEFGHIJKLMNO
  36     024   120121 122123   124125 126127   130131 132133   134135 136137    PQRSTUVWXYZ[\]^_
  36     030   140141 142143   144145 146147   150151 152153   154155 156157    `abcdefghijklmno
  36     034   160161 162163   164165 166167   170171 172173   174175 176177    pqrstuvwxyz{|}~.

UWA
 Sect OctLoc
  45     000   000000 000000   040040 040040   040040 040040   040040 040040    ....
  45     004   040040 040040   040040 040040   040040 040040   040040 040040
  45     010   040040 040040   040040 040040   040040 000000   040040 040040              ..
  45     014   040040 040040   040040 040040   040040 040040   040040 040040
  45     020   040040 040040   040040 040040   040040 000000   040040 040040              ..
  45     024   040040 040040   040040 040040   040040 040040   040040 040040
  45     030   040040 040040   040040 040040   040040 000000   040040 040040              ..
PL6.E3A0      #001=ZIG$V_AREA_REC File=ZIG$V_AREA_REC.:ZIC0TSI                   FRI 09/05/97 12:18 Page:32
  45     034   040040 040040   040040 040040   000000 000000   040040 040040            ....
  45     040   040040 040040   040040 040040   040040 040040   040040 040040
  45     044   040040 040040   040040 040040   040040 000000   040040 040040              ..
  45     050   040040 040040   040040 040040   040040 040040   040040 040040
  45     054   040040 040040   040040 040040   040040 000000   000000 000000              ......
  45     060   040040 040040   040*** ******   000000 000000   000000 000000         ...........
  45     064   000000 000000   000000 000000   040040 040040   040040 040040    ........
  45     070   040040 040040   040040 040040   040040 040040   040040 040040
  45     100*  040040 ******   000000 000000   040040 040040   040040 040040      ......
  45     104   040040 040040   040040 040040   040040 040040   040040 040040
  45     124*  040040 040040   040040 040040   000000 000000   040040 040040            ....
  45     130   040040 040040   040040 040040   040040 040040   040040 040040
  45     134   040040 040040   040040 040040   040040 ******   000000 000000              ......
  45     140   040040 040040   040040 040040   040040 040040   040040 040040
  45     144   040040 040040   040040 040040   000000 000000   000000 000000            ........
  45     150   000000 000000   000000 000000   000000 000000   000000 000000    ................
  45     154   040040 040040   040040 040040   040040 040040   040040 040040
  45     160   040040 040040   040040 040040   040040 040040   040040 ******                  ..
  45     164   000000 000000   ****** ******   000000 000000   000000 000000    ................
  45     170   000000 000000   040040 040040   040040 040040   040040 040040    ....
  45     174   040040 040040   040040 040040   040040 040040   040040 040040
  45     210*  040040 040040   040040 040040   040040 040040   ****** ******                ....
  45     214   000000 000000   000000 000000   000000 000000   000000 000000    ................
  45     224*  000000 000000   000000 000000   000000 000000   040040 ******    ............  ..
  45     230   000000 000000   ****** ******   000000 000000   040040 040040    ............
  45     234   000000 000000   000000 000000   000000 000000   000000 000000    ................
  45     264*  000000 000000   000000 000000   000000 000000   ****** ******    ................
  45     270   000000 000000   000000 000000   000000 000000   000000 000000    ................
  45     324*  000000 000000   ****** ******   000000 000000   000000 000000    ................
  45     330   000000 000000   000000 000000   000000 000000   000000 000000    ................
  45     350*  000000 000000   000000 000000   000000 000000   ****** ******    ................
  45     360*  000000 000000   000000 000000   000000 000000   000000 000000    ................
  45     404*  000000 000000   ****** ******   000000 000000   000000 000000    ................
  45     410   000000 000000   000000 000000   000000 000000   000000 000000    ................
  45     424*  000000 000000   000000 000000   000000 000000   040040 040040    ............
  45     430   040040 040040   040040 040040   040040 040040   040040 040040
  45     434   040040 040040   040040 040040   040040 ******   ****** ******              ......
PL6.E3A0      #001=ZIG$V_AREA_REC File=ZIG$V_AREA_REC.:ZIC0TSI                   FRI 09/05/97 12:18 Page:33
  45     440   040040 040040   040040 040040   040040 040040   040040 040040
  45     450*  040040 040040   040040 040040   040040 ******   ****** ******              ......
  45     454   000000 000000   040040 040040   040040 040040   040040 040040    ....
  45     460   040040 040040   040040 040040   040040 040040   040040 040040
  45     464   040040 ******   ****** ******   000000 000000   000000 000000      ..............
  45     470   000000 000000   000000 000000   000000 000000   000000 000000    ................
  45     474   000000 000000   ****** ******   000000 000000   000000 000000    ................
  45     500   000000 000000   000000 000000   040040 040040   040040 040040    ........
  45     504   040040 040040   040040 040040   040040 040040   040040 040040
  45     520*  040040 040040   ****** ******   000000 000000   000000 000000        ............
  45     524   040040 040040   040040 040040   040040 040040   040040 040040
  45     574*  000000 000000   000000 000000   000000 000000   000000 000000    ................
  45     600   000000 000000   000000 000000   000000 000000   ****** ******    ................
  45     604   000000 000000   000000 000000   000000 000000   000000 000000    ................
  45     610   000000 000000   000000 000000   040040 040040   040040 040040    ........
  45     614   040040 040040   040040 040040   040040 040040   040040 040040
  45     620   040040 040040   040040 ******   040040 040040   040040 040040          ..
  45     624   040040 040040   040040 040040   040040 040040   040040 040040
  45     660*  040040 040040   040040 040040   040040 040040   ****** ******                ....
  45     664   040040 040040   040040 040040   040040 040040   040040 040040
  45     674*  040040 040040   ****** ******   040040 040040   040040 040040        ....
  45     700   040040 040040   040040 040040   040040 040040   040040 040040
  45     710*  040040 040040   ****** ******   040040 040040   040040 040040        ....
  45     714   040040 040040   040040 040040   040040 040040   040040 040040
  45     720   040040 040040   040040 040040   040040 040040   ****** ******                ....
  45     724   040040 040040   040040 040040   040040 040040   040040 040040
  45     740*  040040 040040   ****** ******   040040 040040   040040 040040        ....
  45     744   040040 040040   040040 040040   040040 040040   040040 040040
  45     774*  040040 040040   ****** ******   040040 040040   040040 040040        ....
  45    1000   040040 040040   040040 040040   040040 040040   040040 040040
  45    1034*  040040 040040   ****** ******   040040 040040   040040 040040        ....
  45    1040   040040 040040   040040 040040   040040 040040   040040 040040
  45    1060*  040040 040040   ****** ******   040040 040040   040040 040040        ....
  45    1064   040040 040040   040040 040040   040040 040040   040040 040040
  45    1114*  040040 040040   ****** ******   040040 040040   040040 040040        ....
  45    1120   040040 040040   040040 040040   040040 040040   040040 040040
  45    1134*  040040 040040   040040 040040   040040 040040   ****** ******                ....
PL6.E3A0      #001=ZIG$V_AREA_REC File=ZIG$V_AREA_REC.:ZIC0TSI                   FRI 09/05/97 12:18 Page:34
  45    1140   040040 040040   040040 040040   040040 040040   040040 040040
  45    1144   040040 040040   ****** ******   040040 040040   040040 040040        ....
  45    1150   040040 040040   040040 040040   040040 040040   ****** ******                ....
  45    1154   040040 040040   040040 040040   040040 040040   040040 040040
  45    1160   040040 040040   ****** ******   040040 040040   040040 040040        ....
  45    1164   040040 040040   040040 040040   040040 040040   ****** ******                ....
  45    1170   040040 040040   040040 040040   040040 040040   040040 040040
  45    1200*  040040 040040   040040 040040   040040 040040   ****** ******                ....
  45    1204   040040 040040   040040 040040   040040 040040   040040 040040
  45    1214*  040040 040040   040040 040040   040040 040040   040040 040040

(unnamed)
 Sect OctLoc
  49     000   101103 040040   122103 055122   101040 040040   101103 055122    AC  RC-RA   AC-R
  49     004   101040 040040                                                    A

(unnamed)
 Sect OctLoc
  51     000   000010 000000   000000 000001   000000 000000   000000 000014    ................
  51     004   000001 006000   000003 006000   000000 006000   000002 006000    ................
  51     010   000003 006000   000001 006000   000003 000000   000000 000002    ................
  51     014   000000 000036   000013 006000   000014 006000   000013 006000    ................
  51     020   000001 000000   000000 021465   000021 006000   000002 000000    ................
  51     024   000002 006000   000000 006000   000001 006000   000000 006000    ................
  51     030   000000 000007   000030 006000   000000 006000   000000 000005    ................
  51     034   000033 006000   000000 006000   000000 006000   000001 006000    ................
  51     040   000003 006000   000000 006000   000000 006000   000000 021466    ................
  51     044   000043 006000                                                    .#..

PL6.E3A0      #001=ZIG$V_AREA_REC File=ZIG$V_AREA_REC.:ZIC0TSI                   FRI 09/05/97 12:18 Page:35
--  Include file information  --

   ZI_SUB4_CAN.:ZIC0TOU  is referenced.
   ZIG_DBA_INT.:ZIC0TOU  cannot be made into a system file and is referenced.
   ZIG_SSS.:ZIC0TOU  is referenced.
   ZIG_TYPE_SUBS.:ZIC0TOU  is referenced.
   ZIG_GENERAL.:ZIC0TOU  cannot be made into a system file and is referenced.
   ZIG_DIR_STRUCS.:ZIC0TOU  cannot be made into a system file and is referenced.
   ZI_SUB_LANG.:ZIC0TOU  is referenced.
   ZI_ERRORS_SUBS.:ZIC0TOU  is referenced.
   B$JIT_C.:E05TOU  was found in the system file and is never referenced.
   CP_6_C.:E05TOU  was found in the system file and is never referenced.
      No diagnostics issued in procedure ZIG$V_AREA_REC.

   Procedure ZIG$V_AREA_REC requires 261 words for executable code.
   Procedure ZIG$V_AREA_REC requires 16 words of local(AUTO) storage.

    No errors detected in file ZIG$V_AREA_REC.:ZIC0TSI    .
PL6.E3A0      #001=ZIG$V_AREA_REC File=ZIG$V_AREA_REC.:ZIC0TSI                   FRI 09/05/97 12:18 Page:36
          *** CROSS REFERENCE LISTING ***
**     DENOTES     IDENTIFIER DEFINITION
<<                 IDENTIFIER'S VALUE SET
>>                 IDENTIFIER'S VALUE USED
<>                 IDENTIFIER SET AND/OR USED
--                 IDENTIFIER REFERENCED
PL6.E3A0      #001=ZIG$V_AREA_REC File=ZIG$V_AREA_REC.:ZIC0TSI                   FRI 09/05/97 12:18 Page:37
          MINI XREF LISTING

ABORT
      2734**DCL-ENT  4831--CALL
AC.ACID
      3527**DCL      4811>>ASSIGN
AC.ACRAN
      3524**DCL      4776>>ASSIGN   4777<<ASSIGN
AC.ANAM
      3593**DCL      4813>>ASSIGN
AC.DEF.ANL
      3522**DCL      3593--IMP-SIZ  4813>>ASSIGN
AC.DEF.ATMP
      3521**DCL      4814>>ASSIGN
AC.DEF.FORG
      3509**DCL      3513--REDEF
AC.FLAGS.TMPLT
      3556**DCL      4797>>IF
AC.WSOF
      3526**DCL      4802>>ASSIGN
AC$
      3505**DCL      3506--IMP-PTR  4766<<ASSIGN   4776>>ASSIGN   4777>>ASSIGN   4797>>IF       4802>>ASSIGN
      4811>>ASSIGN   4813>>ASSIGN   4813>>ASSIGN   4814>>ASSIGN
AC1$
      3599**DCL      3600--IMP-PTR
ALLOCATE_END
      2737**DCL      4726<<ASSIGN   4730<<ASSIGN
AREA_HASH.DBK
      2479**DCL      4768<>CALL     4780>>DOWHILE
AREA_HASH.SUB_OFF
      2478**DCL      4766>>ASSIGN   4769>>ASSIGN
CONTROL.NUM_REC_AREA_REL
      2608**DCL      4817<<ASSIGN   4817>>ASSIGN
CURRENT_OFF
PL6.E3A0      #001=ZIG$V_AREA_REC File=ZIG$V_AREA_REC.:ZIC0TSI                   FRI 09/05/97 12:18 Page:38
      4712**DCL      4772<<ASSIGN   4775>>ASSIGN   4777>>ASSIGN
CUR_EXT_NAME_SEG
        38**DCL      4815<>CALL     4816<<ASSIGN   4816>>ASSIGN
DBCS_ERROR
      4831**LABEL    4783--CALLALT
ERROR
      2726**DCL-ENT  4745--CALL     4823--CALL
ERROR_FLG
      4714**DCL      4728<>CALL     4733>>IF       4740>>IF
FETCHD_6
      3678**DCL-ENT  4768--CALL
FETCHNS_6
      3683**DCL-ENT  4782--CALL
FINDOS_6
      3686**DCL-ENT  4783--CALL
HASH_SCHEMA_NAME
      2457**DCL      4727<<ASSIGN
I
      4709**DCL      4742<<ASSIGN   4743<>CALL     4754<<ASSIGN   4755>>IF       4820<<ASSIGN   4821<>CALL
IO_BUF
      2637**DCL      2661--REDEF
NOT_FOUND
      4820**LABEL    4782--CALLALT
OA.SCNAM.EIS.COUNT
      3452**DCL      3489--IMP-SIZ
OA$
      3430**DCL      3431--IMP-PTR
OA1$
      3496**DCL      3497--IMP-PTR
RA.ACRAH
      3661**DCL      4769<<ASSIGN
RA.ACRAN
      3659**DCL      4776<<ASSIGN
RA.CHRD
      3666**DCL      4795<<ASSIGN
RA.DEF.FRANGE
PL6.E3A0      #001=ZIG$V_AREA_REC File=ZIG$V_AREA_REC.:ZIC0TSI                   FRI 09/05/97 12:18 Page:39
      3655**DCL      4801<<ASSIGN
RA.DEF.TYPE
      3653**DCL      4778<<ASSIGN   4793<<ASSIGN
RA.NCHRS
      3665**DCL      4794<<ASSIGN
RA.PGRNG.HIGHDBK
      3664**DCL      4790<<ASSIGN   4802<<ASSIGN
RA.PGRNG.LOWDBK
      3663**DCL      4789<<ASSIGN
RA.RCRAH
      3660**DCL      4770<<ASSIGN
RA.RCRAN
      3658**DCL      4771<<ASSIGN
RA$
      3650**DCL      3651--IMP-PTR  4753<>CALL     4754>>ASSIGN   4757<>CALL     4761<>CALL     4764<>CALL
      4769>>ASSIGN   4770>>ASSIGN   4771>>ASSIGN   4772>>ASSIGN   4776>>ASSIGN   4778>>ASSIGN   4789>>ASSIGN
      4790>>ASSIGN   4793>>ASSIGN   4794>>ASSIGN   4795>>ASSIGN   4801>>ASSIGN   4802>>ASSIGN
RC.DEF.MAR
      3618**DCL      4774<<ASSIGN
RC.DEF.PSTO
      3613**DCL      4759>>IF       4791>>IF
RC.DEF.RNL
      3625**DCL      3635--IMP-SIZ  4742>>ASSIGN   4743>>CALL     4808>>IF       4812>>ASSIGN   4820>>ASSIGN
      4821>>CALL
RC.DEF.SR
      3616**DCL      4808>>IF
RC.RCID
      3627**DCL      4810>>ASSIGN
RC.RCRAN
      3626**DCL      4771>>ASSIGN   4773>>IF       4775<<ASSIGN
RC.RNAM
      3635**DCL      4743<>CALL     4808>>IF       4812>>ASSIGN   4821<>CALL
RC$
      3608**DCL      3609--IMP-PTR  4742>>ASSIGN   4743>>CALL     4743>>CALL     4759>>IF       4770>>ASSIGN
      4771>>ASSIGN   4773>>IF       4774>>ASSIGN   4775>>ASSIGN   4791>>IF       4808>>IF       4808>>IF
      4808>>IF       4810>>ASSIGN   4812>>ASSIGN   4812>>ASSIGN   4820>>ASSIGN   4821>>CALL     4821>>CALL
PL6.E3A0      #001=ZIG$V_AREA_REC File=ZIG$V_AREA_REC.:ZIC0TSI                   FRI 09/05/97 12:18 Page:40
RC1$
      3640**DCL      3641--IMP-PTR
RECORD_FOUND
        39**DCL      4735<<ASSIGN   4738<<ASSIGN
SET_FIELDS
      2729**DCL-ENT  4743--CALL     4744--CALL     4821--CALL     4822--CALL
SSS$
      3425**DCL      4754>>ASSIGN   4766>>ASSIGN   4770>>ASSIGN   4772>>ASSIGN
STATUS
      4713**DCL      4725<<ASSIGN   4728<>CALL
SUBSCHEMA_KEY
      2761**DCL      2762--REDEF
TPTR$
      4710**DCL      4728<>CALL     4766>>ASSIGN   4768>>CALL     4769>>ASSIGN   4780>>DOWHILE
TYPE_31
      2697**DCL      4815<>CALL
TYPE_31.AREA_NAME
      2700**DCL      4811<<ASSIGN
TYPE_31.RECORD_NAME
      2699**DCL      4810<<ASSIGN
TYPE_31.SUB_AREA_NM
      2705**DCL      4813<<ASSIGN
TYPE_31.SUB_RECORD_NM
      2704**DCL      4812<<ASSIGN
TYPE_31.TEMPORARY
      2702**DCL      4814<<ASSIGN
TYPE_420.AREA_NAME
      2665**DCL      4728<>CALL
TYPE_420.SOUR_LINE
      2664**DCL      4731>>IF       4767>>IF       4780>>DOWHILE
TYPE_420.SUB_AREA_NAME
      2667**DCL      4744<>CALL     4822<>CALL
UWA.AC.CALC_NEXT
      4484**DCL      4485--REDEF
UWA.AC.CALC_PRIOR
      4493**DCL      4494--REDEF
PL6.E3A0      #001=ZIG$V_AREA_REC File=ZIG$V_AREA_REC.:ZIC0TSI                   FRI 09/05/97 12:18 Page:41
UWA.AC.DEFAULTS
      4445**DCL      4446--REDEF
UWA.AC.FILE_CODE
      4450**DCL      4451--REDEF
UWA.AC.FLAG1.ERROR_TYPE
      4447**DCL      4448--REDEF
UWA.AC.MAX_DBK
      4469**DCL      4797>>IF
UWA.AC.MIN_DBK
      4468**DCL      4797>>IF
UWA.DIRECT_REF
      4385**DCL      4779<<ASSIGN   4780>>DOWHILE
UWA.RA.CALC_HDRS
      4536**DCL      4794>>ASSIGN
UWA.RA.HDR_OFFS
      4537**DCL      4795>>ASSIGN
UWA.RA.HIGHDBK
      4535**DCL      4790>>ASSIGN   4797>>IF
UWA.RA.LOWDBK
      4534**DCL      4789>>ASSIGN   4797>>IF
WRITSF
        37**DCL-ENT  4815--CALL
ZIG$G_DYN_MEM_6
      2736**DCL-ENT  4753--CALL     4757--CALL     4761--CALL     4764--CALL
ZIG$HASH_IT
        36**DCL-ENT  4728--CALL
