
PL6.E3A0      #001=ZIG$V_DESC File=ZIG$V_DESC.:ZIC0TSI                           FRI 09/05/97 12:18 Page:1
        1        1        /*M*     ZIG$V_DESC      I-D-S/II       DBACS */
        2        2        /*T***********************************************************/
        3        3        /*T*                                                         */
        4        4        /*T* Copyright (c) Bull HN Information Systems Inc., 1997    */
        5        5        /*T*                                                         */
        6        6        /*T***********************************************************/
        7        7        /*P*
        8        8        NAME:    ZIG$V_DESC
        9        9        PURPOSE:
       10       10              This subroutine will be called from two places, which
       11       11            are the display processor and the validator driver. It is
       12       12            only called with a FORTRAN subschema that has been validated
       13       13            and the UWA and RVA sections are present in the subschema
       14       14            file.
       15       15
       16       16        DESCRIPTION:
       17       17              The complet UWA is in the subschema file and the complet
       18       18            RVA is in the subschema file but the IA is not present in
       19       19            the file and this subroutinue will have to build one up
       20       20            from th information in the subschemas control block.
       21       21            The fortran include file is output throw M$SO and it defalts
       22       22            to *SO if the file is not set.
       23       23
       24       24        */
       25       25        ZIG$V_DESC:
       26       26            PROC;
       27       27    1   DCL LIST_STRING CHAR (128) EXT;
       28       28    1   DCL SUBSCHEMA_NAME_4 CHAR (4);
       29       29    1   DCL RECORD_POINTER PTR EXT;
       30       30    1   DCL RECORD_SIZE UBIN (36) EXT;
       31       31    1   DCL FORT_INCLUDE_HEAD CHAR (64) CONSTANT INIT ('FORTRAN INCLUDE FILE');
       32       32    1   DCL LCV UBIN (36);
       33       33    1   DCL 1 NUM_IN HALIGNED,
       34       34    1         2 NUM(0:11) UBIN (3) UNAL;
       35       35    1   DCL CHAR_1 CHAR (1) STATIC;
       36       36        %INCLUDE ZI_SUB_LANG;
       37     1751        %GENERAL;
PL6.E3A0      #001=ZIG$V_DESC File=ZIG$V_DESC.:ZIC0TSI                           FRI 09/05/97 12:18 Page:2
       38     1875        %CONTROL_BLOCK;
       39     1983        %INCLUDE ZIG_GENERAL;
       40     2091        %INCLUDE ZIG_DIR_STRUCS;
       41     2221        %INCLUDE ZI_ERRORS_SUBS;
       42     2741        %INCLUDE CP_6_SUBS;
       43     3281        %INCLUDE CP_6;
       44     3362        %INCLUDE ZI$USER;
       45     3507        %RVA(STCLASS=STATIC);
       46     3520        %F$DCB(STCLASS="BASED");
       47     3577        %FPT_GETDCB(FPTN=FPT_GETDCB,DCBNAME=VLP_NAME,DCBNUM=SDSDCB,MERGE=YES);
       48     3592        %FPT_OPEN(FPTN=OPEN_SDS,ACCESS=ACCESS_SDS,NAME=VLP_NAME,ASN=FILE,
       49     3593         EXIST=NEWFILE,DISP=NAMED,FUN=CREATE,ORG=RANDOM,TYPE='2I',
       50     3594         ACS=DS8);
       51     3703        %FPT_CLOSE(FPTN=FPT_CLOSE, DISP=SAVE);
       52     3745        %VLP_ATTR(FPTN=ACCESS_SDS);
       53     3759        %VLP_ACCESS(READ=YES,ACCT='ALL',LAST=";");
       54     3776        %VLP_NAME(FPTN=VLP_NAME,NAME=' ',LEN=31);
       55     3803    1   DCL B$DS8$ PTR SYMREF;
       56     3804    1   DCL SDSDCB UBIN STATIC;
       57     3805    1   DCL RVACOUNT UBIN;
       58     3806    1   DCL NRVAPGS UBIN;
       59     3807    1   DCL IX0 UBIN;
       60     3808    1   DCL IX1 UBIN;
       61     3809    1   DCL IX2 UBIN;
       62     3810    1   DCL XRVA(0:0) UBIN BASED(RVA$);
       63     3811    1   DCL SUBSCHEMA_NAME CHAR(30) EXT;
       64     3812    1   DCL 1 GLOBAL STATIC,
       65     3813    1         2 TYPE UBIN(18) UNAL,
       66     3814    1         2 ID UBIN(18) UNAL,
       67     3815    1         2 SSOFST UBIN(18) UNAL,
       68     3816    1         2 WSOFST UBIN(18) UNAL;
       69     3817    1   DCL W0 UBIN;
       70     3818    1   DCL W1 UBIN;
       71     3819    1   DCL 1 RW1 REDEF W1,
       72     3820    1         2 * BIT(27),
       73     3821    1         2 C CHAR(1);
       74     3822        %EQU TYPE_BITS=2; /* Also defined in ZII$IDS_FORT */
PL6.E3A0      #001=ZIG$V_DESC File=ZIG$V_DESC.:ZIC0TSI                           FRI 09/05/97 12:18 Page:3
       75     3823    1   DCL RVA_TYPE(0:0) UBIN(%TYPE_BITS) UNAL BASED(TYPE$);
       76     3824    1   DCL RVA_HALF(0:0) UBIN HALF HALIGNED BASED(RVA$);
       77     3825    1   DCL TYPE$ PTR;
       78     3826    1   DCL NO$ PTR;
       79     3827    1   DCL NULL_OFFSET UBIN BASED(NO$);
       80     3828    1   DCL I UBIN (36) STATIC;
       81     3829    1   DCL 1 FIELD1 EXT,
       82     3830    1         2 COUNT1 UBIN (9) UNAL,
       83     3831    1         2 TEXT1 CHAR (31) UNAL;
       84     3832        %EJECT;
PL6.E3A0      #001=ZIG$V_DESC File=ZIG$V_DESC.:ZIC0TSI                           FRI 09/05/97 12:18 Page:4
       85     3833    1   WRITE_RECORD:
       86     3834    1       PROC;
       87     3835    2       CALL LIST(LIST_STRING);
       88     3836    2       RECORD_SIZE = 72;
       89     3837    3       DO WHILE (SUBSTR(LIST_STRING,RECORD_SIZE,1) = ' ' AND RECORD_SIZE > 0);
       90     3838    3           RECORD_SIZE = RECORD_SIZE - 1;
       91     3839    3           END;
       92     3840    2       CALL WRITERECORD_TO_SEQ_FILE;
       93     3841    2       RETURN;
       94     3842    2   END WRITE_RECORD;
       95     3843        %EJECT;
PL6.E3A0      #001=ZIG$V_DESC File=ZIG$V_DESC.:ZIC0TSI                           FRI 09/05/97 12:18 Page:5
       96     3844    1       CALL SUBLST(FORT_INCLUDE_HEAD);
       97     3845    1       LIST_STRING = '**';
       98     3846    1       RECORD_POINTER = ADDR(LIST_STRING);
       99     3847    1       CALL WRITE_RECORD;
      100     3848    1       LIST_STRING = '**    I-D-S/II EXTERNAL SUBROUTINE DEFINITIONS';
      101     3849    1       CALL WRITE_RECORD;
      102     3850    1       LIST_STRING = '**';
      103     3851    1       CALL WRITE_RECORD;
      104     3852    1       LIST_STRING = '       EXTERNAL CONNECT,DISCONNECT,ERASER,FIND,GET,MODIFY,STORE';
      105     3853    1       CALL WRITE_RECORD;
      106     3854    1       LIST_STRING = '**';
      107     3855    1       CALL WRITE_RECORD;
      108     3856    1       LIST_STRING = '**    I-D-S/II INFORMATION AREA (IA) DEFINITION.';
      109     3857    1       CALL WRITE_RECORD;
      110     3858    1       LIST_STRING = '**';
      111     3859    1       CALL WRITE_RECORD;
      112     3860    1       SUBSCHEMA_NAME_4 = SUBSTR(CONTROL.SUBSCHEMA_NAME,0,4);
      113     3861    1       CALL CONCAT(LIST_STRING,'      COMMON /I',SUBSCHEMA_NAME_4,'/ I',
      114     3862    1          SUBSCHEMA_NAME_4,'(0:47)');
      115     3863    1       CALL WRITE_RECORD;
      116     3864    1       CALL SET_FIELD_NUM(1,CONTROL.UWA_SIZE);
      117     3865    1       CALL CONCAT(LIST_STRING,'      DATA I',SUBSCHEMA_NAME_4,'/0,',
      118     3866    1          SUBSTR(FIELD1.TEXT1,0,FIELD1.COUNT1),',8*0,');
      119     3867    1       CALL WRITE_RECORD;
      120     3868    1       CALL CONCAT(LIST_STRING,'     +    ''',SUBSTR(CONTROL.SCHEMA_NAME,0,4));
      121     3869    1       I = 4;
      122     3870    2       DO WHILE(SUBSTR(CONTROL.SCHEMA_NAME,I,4) ~= '    ' AND I < 32);
      123     3871    2           CALL INSERT(LIST_STRING,11+I+((I-1)/4*3),7,''',''',
      124     3872    2              SUBSTR(CONTROL.SCHEMA_NAME,I,4));
      125     3873    2           I = I + 4;
      126     3874    2           END;
      127     3875    1       CALL SET_FIELD_NUM(1,8-I/4);
      128     3876    1       CALL INSERT(LIST_STRING,11+I+((I-1)/4*3),11,''',',SUBSTR(FIELD1.TEXT1,
      129     3877    1          0,1),'*''    '',');
      130     3878    1       CALL WRITE_RECORD;
      131     3879    1       CALL CONCAT(LIST_STRING,'     +    ''',SUBSCHEMA_NAME_4);
      132     3880    1       I = 4;
PL6.E3A0      #001=ZIG$V_DESC File=ZIG$V_DESC.:ZIC0TSI                           FRI 09/05/97 12:18 Page:6
      133     3881    2       DO WHILE(SUBSTR(CONTROL.SUBSCHEMA_NAME,I,4) ~= '    ' AND I < 32);
      134     3882    2           CALL INSERT(LIST_STRING,11+I+((I-1)/4*3),7,''',''',
      135     3883    2              SUBSTR(CONTROL.SUBSCHEMA_NAME,I,4));
      136     3884    2           I = I + 4;
      137     3885    2           END;
      138     3886    1       CALL SET_FIELD_NUM(1,8-I/4);
      139     3887    1       CALL INSERT(LIST_STRING,11+I+((I-1)/4*3),11,''',',SUBSTR(FIELD1.TEXT1,
      140     3888    1          0,1),'*''    '',');
      141     3889    1       CALL WRITE_RECORD;
      142     3890    1       LIST_STRING = '     +    ''FORT'',''RAN '',6*''    '',';
      143     3891    1       CALL WRITE_RECORD;
      144     3892    1       LIST_STRING = '     +    8*''    '',';
      145     3893    1       CALL WRITE_RECORD;
      146     3894    1       NUM_IN = BINBIT(CONTROL.SUBSCHEMA_UTS,36);
      147     3895    2       DO LCV = 0 TO 11;
      148     3896    2           CALL BINCHAR(CHAR_1,NUM_IN.NUM(LCV));
      149     3897    2           CALL INSERT(FIELD1.TEXT1,LCV,1,CHAR_1);
      150     3898    2           END;
      151     3899    1       FIELD1.COUNT1 = 12;
      152     3900    1       CALL CONCAT(LIST_STRING,'     +    3,0,0,12O',SUBSTR(FIELD1.TEXT1,0
      153     3901    1          ,FIELD1.COUNT1),',0,0/');
      154     3902    1       CALL WRITE_RECORD;
      155     3903    1       LIST_STRING = '**';
      156     3904    1       CALL WRITE_RECORD;
      157     3905    1       LIST_STRING = '**     I-D-S/II USER WORK ARE (UWA)';
      158     3906    1       CALL WRITE_RECORD;
      159     3907    1       LIST_STRING = '**';
      160     3908    1       CALL WRITE_RECORD;
      161     3909    1       UWA_KEY.NUMBER_OF = 1;
      162     3910    1       SPECIAL_KEY = UWA_KEY;
      163     3911    1       BUFFER$ = ADDR(LIST_STRING);
      164     3912    1       BUFFER_LEN = 72;
      165     3913    1       CALL ZIG$SS_RVAR;
      166     3914    2       DO WHILE (SUBSTR(LIST_STRING,0,12) ~= '/*/*/*/*/*/*');
      167     3915    2           CALL WRITE_RECORD;
      168     3916    2           UWA_KEY.NUMBER_OF = UWA_KEY.NUMBER_OF + 1;
      169     3917    2           SPECIAL_KEY = UWA_KEY;
PL6.E3A0      #001=ZIG$V_DESC File=ZIG$V_DESC.:ZIC0TSI                           FRI 09/05/97 12:18 Page:7
      170     3918    2           CALL ZIG$SS_RVAR;
      171     3919    2           END;
      172     3920    1       UWA_KEY.NUMBER_OF = 10001;
      173     3921    1       SPECIAL_KEY = UWA_KEY;
      174     3922    1       CALL ZIG$SS_RVAR;
      175     3923    2       DO WHILE (SUBSTR(LIST_STRING,0,12) ~= '/*/*/*/*/*/*');
      176     3924    2           CALL WRITE_RECORD;
      177     3925    2           UWA_KEY.NUMBER_OF = UWA_KEY.NUMBER_OF + 1;
      178     3926    2           SPECIAL_KEY = UWA_KEY;
      179     3927    2           CALL ZIG$SS_RVAR;
      180     3928    2           END;
      181     3929    1       LIST_STRING = '**';
      182     3930    1       CALL WRITE_RECORD;
      183     3931    1       LIST_STRING = '**     I-D-S/II REFERENCE VECTOR AREA (RVA)';
      184     3932    1       CALL WRITE_RECORD;
      185     3933    1       LIST_STRING = '**';
      186     3934    1       CALL WRITE_RECORD;
      187     3935    1       RVA_KEY.NUMBER_OF = 1;
      188     3936    1       SPECIAL_KEY = RVA_KEY;
      189     3937    1       CALL ZIG$SS_RVAR;
      190     3938        /*  Check if RVA shared data segment file has been requested  */
      191     3939    2       IF VALIDS.GEN_RVA THEN DO;
      192     3940        /*      Shared data segmt file and dcb name = subschema-name||'$'  */
      193     3941    2           VLP_NAME.L# = 31;
      194     3942    2           VLP_NAME.NAME# = SUBSCHEMA_NAME;
      195     3943    3           DO WHILE(SUBSTR(VLP_NAME.NAME#, VLP_NAME.L#-1, 1) = ' ');
      196     3944    3               VLP_NAME.L# = VLP_NAME.L# - 1;
      197     3945    3               END;
      198     3946    2           CALL INSERT(VLP_NAME.NAME#, VLP_NAME.L#, 1, '$');
      199     3947    2           VLP_NAME.L# = VLP_NAME.L# + 1;
      200     3948        /*      Get a DCB for the shared data segment file  */
      201     3949    2           CALL M$GETDCB(FPT_GETDCB);
      202     3950        /*      Get number of words required for RVA  */
      203     3951    2           CALL INDEX(IX1, ':', LIST_STRING);
      204     3952    2           CALL INDEX(IX2, ')', LIST_STRING);
      205     3953    2           IX2 = IX2 - IX1 - 1;
      206     3954    2           CALL CHARBIN(RVACOUNT, SUBSTR(LIST_STRING, IX1+1, IX2));
PL6.E3A0      #001=ZIG$V_DESC File=ZIG$V_DESC.:ZIC0TSI                           FRI 09/05/97 12:18 Page:8
      207     3955        /*      Number of words needed for NULL_OFFSET and RVA_TYPE table */
      208     3956    2           IX0 = RVACOUNT*%TYPE_BITS/36 + 2;
      209     3957        /*      Calculate number of pages required for RVA  */
      210     3958    2           NRVAPGS = (RVACOUNT*4 + IX0)*4/4096 + 1;
      211     3959        /*      Set size for open of shared data segment file  */
      212     3960    2           OPEN_SDS.V.IXTNSIZE# = 1 + NRVAPGS;
      213     3961        /*      Create shared data segment file  */
      214     3962    2           OPEN_SDS.V.DCB# = SDSDCB;
      215     3963    2           IF DCBADDR(SDSDCB)->F$DCB.ASN# = %FILE# THEN
      216     3964    2               VLP_NAME = DCBADDR(SDSDCB)->F$DCB.NAME#;
      217     3965    2           CALL M$OPEN(OPEN_SDS)
      218     3966    3           WHENALTRETURN DO;
      219     3967    3               CALL ERROR(%ZIG_V_RVA_SDS_OPEN);
      220     3968    3               CALL ABORT;
      221     3969        /*E*     ERROR:     ZIG-ZIG_V_RVA_SDS_OPEN-C
      222     3970        MESSAGE: Unable to open RVA shared data segment file
      223     3971        */
      224     3972    3               END;
      225     3973        /*      Establish pointer to beginning of segment  */
      226     3974    2           RVA$ = B$DS8$;
      227     3975    2           IX1 = 0;
      228     3976    2           END;
      229     3977    2       DO WHILE (SUBSTR(LIST_STRING,0,12) ~= '/*/*/*/*/*/*');
      230     3978    2           CALL WRITE_RECORD;
      231     3979    2           RVA_KEY.NUMBER_OF = RVA_KEY.NUMBER_OF + 1;
      232     3980    2           SPECIAL_KEY = RVA_KEY;
      233     3981    2           CALL ZIG$SS_RVAR;
      234     3982    3           IF VALIDS.GEN_RVA & SUBSTR(LIST_STRING,0,12)~='/*/*/*/*/*/*' THEN DO;
      235     3983        /*      Build the unbound RVA  */
      236     3984    3               CALL INDEX(IX2, '12O', LIST_STRING);
      237     3985    3               IX2 = IX2 + 3;
      238     3986    3               W0 = 0;
      239     3987    3               W1 = 0;
      240     3988    4               DO IX0 = 0 TO 11;
      241     3989    4                   W0 = W0 * 8;
      242     3990    4                   RW1.C = SUBSTR(LIST_STRING, IX2+IX0, 1);
      243     3991    4                   W1 = W1 - 48;
PL6.E3A0      #001=ZIG$V_DESC File=ZIG$V_DESC.:ZIC0TSI                           FRI 09/05/97 12:18 Page:9
      244     3992    4                   W0 = W0 + W1;
      245     3993    4                   END;
      246     3994    3               XRVA(IX1) = W0;
      247     3995    3               IX1 = IX1 + 1;
      248     3996    3               END;
      249     3997    2           END;
      250     3998    2       IF VALIDS.GEN_RVA THEN DO;
      251     3999    2           RVA_HALF(0) = RVACOUNT;
      252     4000    2           RVA_HALF(1) = 0;
      253     4001        /*      NULL_OFFSET and RVA_TYPE table reside immediately after
      254     4002                the unbound RVA */
      255     4003    2           NO$ = PINCRW(RVA$, RVACOUNT + 1); /* NULL_OFFSET pointer */
      256     4004    2           TYPE$ = PINCRW(NO$, 1); /* RVA_TYPE pointer */
      257     4005    3           DO IX0=1 TO RVACOUNT;
      258     4006    3               RVA_TYPE(IX0) = RVA_HALF(2*IX0);
      259     4007    3               IF RVA_HALF(2*IX0) = 4 THEN
      260     4008    3                   NULL_OFFSET = IX0;
      261     4009    3               END;
      262     4010    2           END;
      263     4011    1       RVA_KEY.NUMBER_OF = 10001;
      264     4012    1       SPECIAL_KEY = RVA_KEY;
      265     4013    1       CALL ZIG$SS_RVAR;
      266     4014    2       DO WHILE (SUBSTR(LIST_STRING,0,12) ~= '/*/*/*/*/*/*');
      267     4015    2           CALL WRITE_RECORD;
      268     4016    2           RVA_KEY.NUMBER_OF = RVA_KEY.NUMBER_OF + 1;
      269     4017    2           SPECIAL_KEY = RVA_KEY;
      270     4018    2           CALL ZIG$SS_RVAR;
      271     4019    2           END;
      272     4020    1       LIST_STRING = '**';
      273     4021    1       CALL WRITE_RECORD;
      274     4022    1       LIST_STRING = '**    I-D-S/II SPECIAL NAME AREA (SNA)';
      275     4023    1       CALL WRITE_RECORD;
      276     4024    1       LIST_STRING = '**';
      277     4025    1       CALL WRITE_RECORD;
      278     4026    1       LIST_STRING = '      COMMON /SNA/ALL,';
      279     4027    1       CALL WRITE_RECORD;
      280     4028    1       LIST_STRING = '     +            ANY,';
PL6.E3A0      #001=ZIG$V_DESC File=ZIG$V_DESC.:ZIC0TSI                           FRI 09/05/97 12:18 Page:10
      281     4029    1       CALL WRITE_RECORD;
      282     4030    1       LIST_STRING = '     +            CURRENCY,';
      283     4031    1       CALL WRITE_RECORD;
      284     4032    1       LIST_STRING = '     +            CURRENT,';
      285     4033    1       CALL WRITE_RECORD;
      286     4034    1       LIST_STRING = '     +            DBKEY,';
      287     4035    1       CALL WRITE_RECORD;
      288     4036    1       LIST_STRING = '     +            DUPLICATE,';
      289     4037    1       CALL WRITE_RECORD;
      290     4038    1       LIST_STRING = '     +            FIRST,';
      291     4039    1       CALL WRITE_RECORD;
      292     4040    1       LIST_STRING = '     +            INCLUDING,';
      293     4041    1       CALL WRITE_RECORD;
      294     4042    1       LIST_STRING = '     +            ITEM,';
      295     4043    1       CALL WRITE_RECORD;
      296     4044    1       LIST_STRING = '     +            LAST,';
      297     4045    1       CALL WRITE_RECORD;
      298     4046    1       LIST_STRING = '     +            LOAD,';
      299     4047    1       CALL WRITE_RECORD;
      300     4048    1       LIST_STRING = '     +            NEXT,';
      301     4049    1       CALL WRITE_RECORD;
      302     4050    1       LIST_STRING = '     +            NOSHARE,';
      303     4051    1       CALL WRITE_RECORD;
      304     4052    1       LIST_STRING = '     +            ONLY,';
      305     4053    1       CALL WRITE_RECORD;
      306     4054    1       LIST_STRING = '     +            OWNER,';
      307     4055    1       CALL WRITE_RECORD;
      308     4056    1       LIST_STRING = '     +            PRIOR,';
      309     4057    1       CALL WRITE_RECORD;
      310     4058    1       LIST_STRING = '     +            REALM,';
      311     4059    1       CALL WRITE_RECORD;
      312     4060    1       LIST_STRING = '     +            REALMNAME,';
      313     4061    1       CALL WRITE_RECORD;
      314     4062    1       LIST_STRING = '     +            RECORD,';
      315     4063    1       CALL WRITE_RECORD;
      316     4064    1       LIST_STRING = '     +            RETRIEVAL,';
      317     4065    1       CALL WRITE_RECORD;
PL6.E3A0      #001=ZIG$V_DESC File=ZIG$V_DESC.:ZIC0TSI                           FRI 09/05/97 12:18 Page:11
      318     4066    1       LIST_STRING = '     +            SET,';
      319     4067    1       CALL WRITE_RECORD;
      320     4068    1       LIST_STRING = '     +            SETS,';
      321     4069    1       CALL WRITE_RECORD;
      322     4070    1       LIST_STRING = '     +            SHARE,';
      323     4071    1       CALL WRITE_RECORD;
      324     4072    1       LIST_STRING = '     +            SHAREANY,';
      325     4073    1       CALL WRITE_RECORD;
      326     4074    1       LIST_STRING = '     +            SHAREIN,';
      327     4075    1       CALL WRITE_RECORD;
      328     4076    1       LIST_STRING = '     +            UPDATE,';
      329     4077    1       CALL WRITE_RECORD;
      330     4078    1       LIST_STRING = '     +            USING,';
      331     4079    1       CALL WRITE_RECORD;
      332     4080    1       LIST_STRING = '     +            WITHIN,';
      333     4081    1       CALL WRITE_RECORD;
      334     4082    1       LIST_STRING = '     +            SHCUR,';
      335     4083    1       CALL WRITE_RECORD;
      336     4084    1       LIST_STRING = '     +            SHINCUR';
      337     4085    1       CALL WRITE_RECORD;
      338     4086    2       IF VALIDS.GEN_RVA THEN DO;
      339     4087        /*  Before returning, bind the RVA and close up the shared data
      340     4088            segment file  */
      341     4089    2           RVACOUNT = RVA.W1.COUNT-1;
      342     4090    2           FPT_CLOSE.V.DCB# = SDSDCB;
      343     4091    3           DO IX1=0 TO RVACOUNT;
      344     4092    3               GLOBAL.TYPE=RVA.RVE.T(IX1);
      345     4093    3               GLOBAL.ID=RVA.RVE.NAME(IX1);
      346     4094    3               CALL ZIG$DBFSE
      347     4095    4               WHENALTRETURN DO;
      348     4096    4                   FPT_CLOSE.V.DISP# = %RELEASE#;
      349     4097    4                   CALL M$CLOSE(FPT_CLOSE);
      350     4098    4                   CALL ERROR(%ZIG_V_NO_RVA_ENTRY);
      351     4099    4                   CALL ABORT;
      352     4100        /*E*     ERROR:     ZIG-ZIG_V_NO_RVA_ENTRY-C
      353     4101        MESSAGE: Problem encountered while building the RVA shared data
      354     4102                 segment file.  An RVA entry could not be found.
PL6.E3A0      #001=ZIG$V_DESC File=ZIG$V_DESC.:ZIC0TSI                           FRI 09/05/97 12:18 Page:12
      355     4103        */
      356     4104    4                   END;
      357     4105    3               RVA.RVE.EO(IX1)=GLOBAL.SSOFST;
      358     4106    3               END;
      359     4107    2           RVA.W1.BOUND=1;
      360     4108    2           CALL M$CLOSE(FPT_CLOSE);
      361     4109    2           END;
      362     4110    1       RETURN;
      363     4111        %EJECT;
PL6.E3A0      #001=ZIG$V_DESC File=ZIG$V_DESC.:ZIC0TSI                           FRI 09/05/97 12:18 Page:13
      364     4112    1   ZIG$DBFSE: PROC ALTRET;
      365     4113        %INCLUDE ZIG_SSS;
      366     4683         %SS_GENERAL(PSTCLASS=EXT);
      367     4704         %OA1(PSTCLASS=EXT);
      368     4712         %OA(PSTCLASS=EXT);
      369     4779         %AC(PSTCLASS=EXT);
      370     4874         %RC(PSTCLASS=EXT);
      371     4907         %SC(PSTCLASS=EXT);
      372     4934         %FR(PSTCLASS=EXT);
      373     4980
      374     4981    2   DCL ERROR UBIN;
      375     4982    2   DCL RCID UBIN(18);
      376     4983    2       ERROR=1;
      377     4984    3       DO CASE (GLOBAL.TYPE);
      378     4985    3       CASE(0);
      379     4986    3           AC$=PINCRW(SSS$,SIZEW(OA1));
      380     4987    4           DO WHILE (AC.OAACN~=0 AND ERROR=1);
      381     4988    4               AC$=PINCRW(SSS$,AC.OAACN);
      382     4989    4               IF GLOBAL.ID=AC.ACID THEN
      383     4990    5               DO;
      384     4991    5                   GLOBAL.SSOFST=POFFW(AC$,SSS$);
      385     4992    5                   GLOBAL.WSOFST=AC.WSOF;
      386     4993    5                   ERROR=0;
      387     4994    5                   END;
      388     4995    4               END;
      389     4996    3       CASE(1);
      390     4997    3           SC$=PINCRW(SSS$,SIZEW(OA1));
      391     4998    4           DO WHILE (SC.OASCN~=0 AND ERROR=1);
      392     4999    4               SC$=PINCRW(SSS$,SC.OASCN);
      393     5000    4               IF GLOBAL.ID=SC.SCID THEN
      394     5001    5               DO;
      395     5002    5                   GLOBAL.SSOFST=POFFW(SC$,SSS$);
      396     5003    5                   GLOBAL.WSOFST=SC.SCWSO;
      397     5004    5                   ERROR=0;
      398     5005    5                   END;
      399     5006    4               END;
      400     5007    3       CASE(2);
PL6.E3A0      #001=ZIG$V_DESC File=ZIG$V_DESC.:ZIC0TSI                           FRI 09/05/97 12:18 Page:14
      401     5008    3           RC$=PINCRW(SSS$,SIZEW(OA1));
      402     5009    4           DO WHILE (RC.OARCN~=0 AND ERROR=1);
      403     5010    4               RC$=PINCRW(SSS$,RC.OARCN);
      404     5011    4               IF GLOBAL.ID=RC.RCID THEN
      405     5012    5               DO;
      406     5013    5                   GLOBAL.SSOFST=POFFW(RC$,SSS$);
      407     5014    5                   GLOBAL.WSOFST=RC.RCWSO;
      408     5015    5                   ERROR=0;
      409     5016    5                   END;
      410     5017    4               END;
      411     5018    3       CASE(3);
      412     5019    3           RC$=PINCRW(SSS$,SIZEW(OA1));
      413     5020    4           DO WHILE (RC.OARCN~=0 AND ERROR=1);
      414     5021    4               RC$=PINCRW(SSS$,RC.OARCN);
      415     5022    5               IF RC.OARCN~=0 THEN DO;
      416     5023    5                   RCID=PINCRW(SSS$,RC.OARCN)->RC.RCID;
      417     5024    5                   IF RCID~=0 AND
      418     5025    5                      GLOBAL.ID>RCID THEN
      419     5026    5                       GOTO NEXTRC;
      420     5027    5                   END;
      421     5028    4               FR$=RC$;
      422     5029    5               DO WHILE (FR.RCFRN~=0 AND ERROR=1);
      423     5030    5                   FR$=PINCRW(SSS$,FR.RCFRN);
      424     5031    5                   IF FR.DEF.SYN='0'B AND
      425     5032    5                      GLOBAL.ID=FR.UOFST.EIS.FRID THEN
      426     5033    6                   DO;
      427     5034    6                       GLOBAL.SSOFST=POFFW(FR$,SSS$);
      428     5035    6                       GLOBAL.WSOFST=FR.FRWSO;
      429     5036    6                       ERROR=0;
      430     5037    6                       END;
      431     5038    5                   END;
      432     5039    4   NEXTRC:     END;
      433     5040    3       CASE(4);
      434     5041    3           GLOBAL.SSOFST=0;
      435     5042    3           GLOBAL.WSOFST=0;
      436     5043    3           ERROR=0;
      437     5044    3       CASE(5);
PL6.E3A0      #001=ZIG$V_DESC File=ZIG$V_DESC.:ZIC0TSI                           FRI 09/05/97 12:18 Page:15
      438     5045    3           OA$=PINCRW(SSS$,SIZEW(OA1));
      439     5046    3           GLOBAL.SSOFST=OA.CLCSC;
      440     5047    3           GLOBAL.WSOFST=
      441     5048    3              PINCRW(SSS$,GLOBAL.SSOFST)->SC.SCWSO;
      442     5049    3           ERROR=0;
      443     5050    3           END;
      444     5051    2       IF ERROR=0 THEN
      445     5052    2           RETURN;
      446     5053    2       ALTRETURN;
      447     5054    2   END ZIG$DBFSE;
      448     5055    1   END ZIG$V_DESC;
      449     5056        %EOD;

PL6.E3A0      #001=ZIG$V_DESC File=ZIG$V_DESC.:ZIC0TSI                           FRI 09/05/97 12:18 Page:16
--  Include file information  --

   ZIG_SSS.:ZIC0TOU  is referenced.
   ZI$USER.:ZIC0TOU  is referenced.
   CP_6.:LIB_E05  cannot be made into a system file and is referenced.
   CP_6_SUBS.:LIB_E05  is referenced.
   ZI_ERRORS_SUBS.:ZIC0TOU  is referenced.
   ZIG_DIR_STRUCS.:ZIC0TOU  cannot be made into a system file and is referenced.
   ZIG_GENERAL.:ZIC0TOU  cannot be made into a system file and is referenced.
   ZI_SUB_LANG.:ZIC0TOU  is referenced.
   B$JIT_C.:E05TOU  was found in the system file and is never referenced.
   CP_6_C.:E05TOU  was found in the system file and is referenced.
      No diagnostics issued in procedure ZIG$V_DESC.

   Procedure ZIG$V_DESC requires 1002 words for executable code.
   Procedure ZIG$V_DESC requires 24 words of local(AUTO) storage.

PL6.E3A0      #001=ZIG$V_DESC File=ZIG$V_DESC.:ZIC0TSI                           FRI 09/05/97 12:18 Page:17

 Object Unit name= ZIG$V_DESC                                 File name= ZIG$V_DESC.:ZIC0TOU
 UTS= SEP 05 '97 12:18:46.36 FRI                              Compiler= PL-6/E31         Sev=      00
 SharedLib= :SHARED_SYSTEM                                    Alt SharedLib=


    ****  Control sections  ****

 Sect   Type Bound  Init  Size OctSiz  Section name(segment info)
    0  LblCom even  none    32     40  LIST_STRING
    1  LblCom even  none     1      1  RECORD_POINTER
    2  LblCom even  none     1      1  RECORD_SIZE
    3  RoData even  UTS    323    503  ZIG$V_DESC
    4   Data  even  none   114    162  ZIG$V_DESC
    5  LblCom even  none     5      5  LANG_ALLOWED
    6  LblCom even  none     1      1  SUB_LANGUAGE
    7  LblCom even  none    16     20  HEADING_TEXT
    8  LblCom even  none    13     15  LANG_TEXT
    9  LblCom even  none     1      1  HASH_SCHEMA_NAME
   10  LblCom even  none     1      1  CURRENT_RECORD
   11  LblCom even  none    64    100  CONTROL
   12  LblCom even  none     1      1  NUM_ERROR_MSG
   13  LblCom even  none     1      1  NUM_WARN_MSG
   14  LblCom even  none     1      1  ALLOCATE_END
   15  LblCom even  none     2      2  SUBSCHEMA_KEY
   16  LblCom even  none     1      1  BUFFER$
   17  LblCom even  none     1      1  ERROR_IO
   18  LblCom even  none     1      1  BUFFER_LEN
   19  LblCom even  none     2      2  UWA_KEY
   20  LblCom even  none     1      1  NEXT_UWA_SECOND_HALF
   21  LblCom even  none     2      2  RVA_KEY
   22  LblCom even  none     2      2  IA__KEY
   23  LblCom even  none     1      1  NEXT_RVA_SECOND_HALF
   24  LblCom even  none    32     40  SEARCHR_NB
   25  LblCom even  none    32     40  SEM_COM
   26  LblCom even  none    32     40  DMCL_XLATE
   27  LblCom even  none    32     40  Q2_PERCENT
   28  LblCom even  none    12     14  ANALS
PL6.E3A0      #001=ZIG$V_DESC File=ZIG$V_DESC.:ZIC0TSI                           FRI 09/05/97 12:18 Page:18
   29  LblCom even  none    13     15  PURGE
   30  LblCom even  none    19     23  DICTS
   31  LblCom even  none    23     27  DISPS
   32  LblCom even  none    22     26  VALIDS
   33  LblCom even  none    12     14  LOCKS
   34  LblCom even  none    10     12  STRAN
   35  LblCom even  none    12     14  DTRAN
   36  LblCom even  none    16     20  SSTRANS
   37  LblCom even  none    20     24  SSGEN
   38   DCB   even  none     0      0  M$UC
   39  LblCom even  none     8     10  SUBSCHEMA_NAME
   40  LblCom even  none     8     10  FIELD1
   41  LblCom even  none     1      1  SSS$
   42  LblCom even  none     1      1  OA1$
   43  LblCom even  none     1      1  OA$
   44  LblCom even  none     1      1  AC$
   45  LblCom even  none     1      1  RC$
   46  LblCom even  none     1      1  SC$
   47  LblCom even  none     1      1  FR$
   48   Proc  even  none  1002   1752  ZIG$V_DESC
   49  RoData even  none    20     24  ZIG$V_DESC

    ****  Entry defs  ****

                              Check   Calling
                             calling  sequence
  Sect OctLoc Primary Altret sequence   type   Parms  Name
    48      0   yes            yes      Std        0  ZIG$V_DESC
PL6.E3A0      #001=ZIG$V_DESC File=ZIG$V_DESC.:ZIC0TSI                           FRI 09/05/97 12:18 Page:19

  ****  Entry refs  ****

         Check        Calling
        calling       sequence
Altret sequence SRef   type   Args  Name
         yes           Std       2 SUBLST
         yes           Std       2 SET_FIELD_NUM
         yes           Std       0 ABORT
         yes           Std       0 ZIG$SS_RVAR
         yes           Std       1 ERROR
         yes           Std       1 LIST
         yes           Std       0 WRITERECORD_TO_SEQ_FILE
                       nStd      0 X66_AUTO_0
                       nStd      0 X66_INDEX
                       nStd      0 X66_ARET

  ****  Data refs  ****

  Flags:  r = read only, s = secondary
Flgs Name                             Flgs Name                             Flgs Name
     M$UC                                  B$DS8$

  ****  Segment refs  ****

  Flags:  r = read only, s = secondary
Flgs Name                             Flgs Name                             Flgs Name
     ISSID                                 NULLSID                               ROSID
PL6.E3A0      #001=ZIG$V_DESC File=ZIG$V_DESC.:ZIC0TSI                           FRI 09/05/97 12:18 Page:20


        1        1        /*M*     ZIG$V_DESC      I-D-S/II       DBACS */
        2        2        /*T***********************************************************/
        3        3        /*T*                                                         */
        4        4        /*T* Copyright (c) Bull HN Information Systems Inc., 1997    */
        5        5        /*T*                                                         */
        6        6        /*T***********************************************************/
        7        7        /*P*
        8        8        NAME:    ZIG$V_DESC
        9        9        PURPOSE:
       10       10              This subroutine will be called from two places, which
       11       11            are the display processor and the validator driver. It is
       12       12            only called with a FORTRAN subschema that has been validated
       13       13            and the UWA and RVA sections are present in the subschema
       14       14            file.
       15       15
       16       16        DESCRIPTION:
       17       17              The complet UWA is in the subschema file and the complet
       18       18            RVA is in the subschema file but the IA is not present in
       19       19            the file and this subroutinue will have to build one up
       20       20            from th information in the subschemas control block.
       21       21            The fortran include file is output throw M$SO and it defalts
       22       22            to *SO if the file is not set.
       23       23
       24       24        */
       25       25        ZIG$V_DESC:
       26       26            PROC;

     26 48 000000   000000 700200 xent  ZIG$V_DESC   TSX0  ! X66_AUTO_0
        48 000001   000030 000000                    ZERO    24,0
        48 000002   000031 710000 48                 TRA     s:3844

       27       27    1   DCL LIST_STRING CHAR (128) EXT;
       28       28    1   DCL SUBSCHEMA_NAME_4 CHAR (4);
       29       29    1   DCL RECORD_POINTER PTR EXT;
       30       30    1   DCL RECORD_SIZE UBIN (36) EXT;
       31       31    1   DCL FORT_INCLUDE_HEAD CHAR (64) CONSTANT INIT ('FORTRAN INCLUDE FILE');
PL6.E3A0      #001=ZIG$V_DESC File=ZIG$V_DESC.:ZIC0TSI                           FRI 09/05/97 12:18 Page:21
       32       32    1   DCL LCV UBIN (36);
       33       33    1   DCL 1 NUM_IN HALIGNED,
       34       34    1         2 NUM(0:11) UBIN (3) UNAL;
       35       35    1   DCL CHAR_1 CHAR (1) STATIC;
       36       36        %INCLUDE ZI_SUB_LANG;
       37     1751        %GENERAL;
       38     1875        %CONTROL_BLOCK;
       39     1983        %INCLUDE ZIG_GENERAL;
       40     2091        %INCLUDE ZIG_DIR_STRUCS;
       41     2221        %INCLUDE ZI_ERRORS_SUBS;
       42     2741        %INCLUDE CP_6_SUBS;
       43     3281        %INCLUDE CP_6;
       44     3362        %INCLUDE ZI$USER;
       45     3507        %RVA(STCLASS=STATIC);
       46     3520        %F$DCB(STCLASS="BASED");
       47     3577        %FPT_GETDCB(FPTN=FPT_GETDCB,DCBNAME=VLP_NAME,DCBNUM=SDSDCB,MERGE=YES);
       48     3592        %FPT_OPEN(FPTN=OPEN_SDS,ACCESS=ACCESS_SDS,NAME=VLP_NAME,ASN=FILE,
       49     3593         EXIST=NEWFILE,DISP=NAMED,FUN=CREATE,ORG=RANDOM,TYPE='2I',
       50     3594         ACS=DS8);
       51     3703        %FPT_CLOSE(FPTN=FPT_CLOSE, DISP=SAVE);
       52     3745        %VLP_ATTR(FPTN=ACCESS_SDS);
       53     3759        %VLP_ACCESS(READ=YES,ACCT='ALL',LAST=";");
       54     3776        %VLP_NAME(FPTN=VLP_NAME,NAME=' ',LEN=31);
       55     3803    1   DCL B$DS8$ PTR SYMREF;
       56     3804    1   DCL SDSDCB UBIN STATIC;
       57     3805    1   DCL RVACOUNT UBIN;
       58     3806    1   DCL NRVAPGS UBIN;
       59     3807    1   DCL IX0 UBIN;
       60     3808    1   DCL IX1 UBIN;
       61     3809    1   DCL IX2 UBIN;
       62     3810    1   DCL XRVA(0:0) UBIN BASED(RVA$);
       63     3811    1   DCL SUBSCHEMA_NAME CHAR(30) EXT;
       64     3812    1   DCL 1 GLOBAL STATIC,
       65     3813    1         2 TYPE UBIN(18) UNAL,
       66     3814    1         2 ID UBIN(18) UNAL,
       67     3815    1         2 SSOFST UBIN(18) UNAL,
       68     3816    1         2 WSOFST UBIN(18) UNAL;
PL6.E3A0      #001=ZIG$V_DESC File=ZIG$V_DESC.:ZIC0TSI                           FRI 09/05/97 12:18 Page:22
       69     3817    1   DCL W0 UBIN;
       70     3818    1   DCL W1 UBIN;
       71     3819    1   DCL 1 RW1 REDEF W1,
       72     3820    1         2 * BIT(27),
       73     3821    1         2 C CHAR(1);
       74     3822        %EQU TYPE_BITS=2; /* Also defined in ZII$IDS_FORT */
       75     3823    1   DCL RVA_TYPE(0:0) UBIN(%TYPE_BITS) UNAL BASED(TYPE$);
       76     3824    1   DCL RVA_HALF(0:0) UBIN HALF HALIGNED BASED(RVA$);
       77     3825    1   DCL TYPE$ PTR;
       78     3826    1   DCL NO$ PTR;
       79     3827    1   DCL NULL_OFFSET UBIN BASED(NO$);
       80     3828    1   DCL I UBIN (36) STATIC;
       81     3829    1   DCL 1 FIELD1 EXT,
       82     3830    1         2 COUNT1 UBIN (9) UNAL,
       83     3831    1         2 TEXT1 CHAR (31) UNAL;
       84     3832        %EJECT;
PL6.E3A0      #001=ZIG$V_DESC File=ZIG$V_DESC.:ZIC0TSI                           FRI 09/05/97 12:18 Page:23
       85     3833    1   WRITE_RECORD:

   3833 48 000003   200020 741300       WRITE_RECORD STX1  ! NO$+2,,AUTO

       86     3834    1       PROC;
       87     3835    2       CALL LIST(LIST_STRING);

   3835 48 000004   000001 630400 49                 EPPR0   1
        48 000005   000000 631400 49                 EPPR1   0
        48 000006   000000 701000 xent               TSX1    LIST
        48 000007   000000 011000                    NOP     0

       88     3836    2       RECORD_SIZE = 72;

   3836 48 000010   000110 235007                    LDA     72,DL
        48 000011   000000 755000 2                  STA     RECORD_SIZE

       89     3837    3       DO WHILE (SUBSTR(LIST_STRING,RECORD_SIZE,1) = ' ' AND RECORD_SIZE > 0);

   3837 48 000012   000016 710000 48                 TRA     s:3839

       90     3838    3           RECORD_SIZE = RECORD_SIZE - 1;

   3838 48 000013   000000 235000 2                  LDA     RECORD_SIZE
        48 000014   000001 135007                    SBLA    1,DL
        48 000015   000000 755000 2                  STA     RECORD_SIZE

       91     3839    3           END;

   3839 48 000016   040000 106405                    CMPC    fill='040'O
        48 000017   000000 000001 0                  ADSC9   LIST_STRING,A            cn=0,n=1
        48 000020   000002 000001 49                 ADSC9   2                        cn=0,n=1
        48 000021   000024 601000 48                 TNZ     s:3840
        48 000022   000000 115003                    CMPA    0,DU
        48 000023   000013 601000 48                 TNZ     s:3838

       92     3840    2       CALL WRITERECORD_TO_SEQ_FILE;
PL6.E3A0      #001=ZIG$V_DESC File=ZIG$V_DESC.:ZIC0TSI                           FRI 09/05/97 12:18 Page:24

   3840 48 000024   000003 631400 49                 EPPR1   3
        48 000025   000000 701000 xent               TSX1    WRITERECORD_TO_SEQ_FILE
        48 000026   000000 011000                    NOP     0

       93     3841    2       RETURN;

   3841 48 000027   200020 221300                    LDX1  ! NO$+2,,AUTO
        48 000030   000001 702211                    TSX2  ! 1,X1

       94     3842    2   END WRITE_RECORD;
       95     3843        %EJECT;
PL6.E3A0      #001=ZIG$V_DESC File=ZIG$V_DESC.:ZIC0TSI                           FRI 09/05/97 12:18 Page:25
       96     3844    1       CALL SUBLST(FORT_INCLUDE_HEAD);

   3844 48 000031   000004 630400 49                 EPPR0   4
        48 000032   000000 631400 49                 EPPR1   0
        48 000033   000000 701000 xent               TSX1    SUBLST
        48 000034   000000 011000                    NOP     0

       97     3845    1       LIST_STRING = '**';

   3845 48 000035   040000 100400                    MLR     fill='040'O
        48 000036   000020 000002 3                  ADSC9   FORT_INCLUDE_HEAD+16     cn=0,n=2
        48 000037   000000 000200 0                  ADSC9   LIST_STRING              cn=0,n=128

       98     3846    1       RECORD_POINTER = ADDR(LIST_STRING);

   3846 48 000040   000001 236000 49                 LDQ     1
        48 000041   000000 756000 1                  STQ     RECORD_POINTER

       99     3847    1       CALL WRITE_RECORD;

   3847 48 000042   000003 701000 48                 TSX1    WRITE_RECORD
        48 000043   000000 011000                    NOP     0

      100     3848    1       LIST_STRING = '**    I-D-S/II EXTERNAL SUBROUTINE DEFINITIONS';

   3848 48 000044   040000 100400                    MLR     fill='040'O
        48 000045   000021 000056 3                  ADSC9   FORT_INCLUDE_HEAD+17     cn=0,n=46
        48 000046   000000 000200 0                  ADSC9   LIST_STRING              cn=0,n=128

      101     3849    1       CALL WRITE_RECORD;

   3849 48 000047   000003 701000 48                 TSX1    WRITE_RECORD
        48 000050   000000 011000                    NOP     0

      102     3850    1       LIST_STRING = '**';

   3850 48 000051   040000 100400                    MLR     fill='040'O
PL6.E3A0      #001=ZIG$V_DESC File=ZIG$V_DESC.:ZIC0TSI                           FRI 09/05/97 12:18 Page:26
        48 000052   000020 000002 3                  ADSC9   FORT_INCLUDE_HEAD+16     cn=0,n=2
        48 000053   000000 000200 0                  ADSC9   LIST_STRING              cn=0,n=128

      103     3851    1       CALL WRITE_RECORD;

   3851 48 000054   000003 701000 48                 TSX1    WRITE_RECORD
        48 000055   000000 011000                    NOP     0

      104     3852    1       LIST_STRING = '      EXTERNAL CONNECT,DISCONNECT,ERASER,FIND,GET,MODIFY,STORE';

   3852 48 000056   040000 100400                    MLR     fill='040'O
        48 000057   000035 000077 3                  ADSC9   FORT_INCLUDE_HEAD+29     cn=0,n=63
        48 000060   000000 000200 0                  ADSC9   LIST_STRING              cn=0,n=128

      105     3853    1       CALL WRITE_RECORD;

   3853 48 000061   000003 701000 48                 TSX1    WRITE_RECORD
        48 000062   000000 011000                    NOP     0

      106     3854    1       LIST_STRING = '**';

   3854 48 000063   040000 100400                    MLR     fill='040'O
        48 000064   000020 000002 3                  ADSC9   FORT_INCLUDE_HEAD+16     cn=0,n=2
        48 000065   000000 000200 0                  ADSC9   LIST_STRING              cn=0,n=128

      107     3855    1       CALL WRITE_RECORD;

   3855 48 000066   000003 701000 48                 TSX1    WRITE_RECORD
        48 000067   000000 011000                    NOP     0

      108     3856    1       LIST_STRING = '**    I-D-S/II INFORMATION AREA (IA) DEFINITION.';

   3856 48 000070   040000 100400                    MLR     fill='040'O
        48 000071   000055 000060 3                  ADSC9   FORT_INCLUDE_HEAD+45     cn=0,n=48
        48 000072   000000 000200 0                  ADSC9   LIST_STRING              cn=0,n=128

      109     3857    1       CALL WRITE_RECORD;
PL6.E3A0      #001=ZIG$V_DESC File=ZIG$V_DESC.:ZIC0TSI                           FRI 09/05/97 12:18 Page:27

   3857 48 000073   000003 701000 48                 TSX1    WRITE_RECORD
        48 000074   000000 011000                    NOP     0

      110     3858    1       LIST_STRING = '**';

   3858 48 000075   040000 100400                    MLR     fill='040'O
        48 000076   000020 000002 3                  ADSC9   FORT_INCLUDE_HEAD+16     cn=0,n=2
        48 000077   000000 000200 0                  ADSC9   LIST_STRING              cn=0,n=128

      111     3859    1       CALL WRITE_RECORD;

   3859 48 000100   000003 701000 48                 TSX1    WRITE_RECORD
        48 000101   000000 011000                    NOP     0

      112     3860    1       SUBSCHEMA_NAME_4 = SUBSTR(CONTROL.SUBSCHEMA_NAME,0,4);

   3860 48 000102   000030 236000 11                 LDQ     CONTROL+24
        48 000103   200003 756100                    STQ     SUBSCHEMA_NAME_4,,AUTO

      113     3861    1       CALL CONCAT(LIST_STRING,'      COMMON /I',SUBSCHEMA_NAME_4,'/ I',

   3861 48 000104   040000 100400                    MLR     fill='040'O
        48 000105   000071 000017 3                  ADSC9   FORT_INCLUDE_HEAD+57     cn=0,n=15
        48 000106   000000 000017 0                  ADSC9   LIST_STRING              cn=0,n=15
        48 000107   040000 100500                    MLR     fill='040'O
        48 000110   200003 000004                    ADSC9   SUBSCHEMA_NAME_4,,AUTO   cn=0,n=4
        48 000111   000003 600004 0                  ADSC9   LIST_STRING+3            cn=3,n=4
        48 000112   040000 100400                    MLR     fill='040'O
        48 000113   000075 000003 3                  ADSC9   FORT_INCLUDE_HEAD+61     cn=0,n=3
        48 000114   000004 600003 0                  ADSC9   LIST_STRING+4            cn=3,n=3
        48 000115   040000 100500                    MLR     fill='040'O
        48 000116   200003 000004                    ADSC9   SUBSCHEMA_NAME_4,,AUTO   cn=0,n=4
        48 000117   000005 400004 0                  ADSC9   LIST_STRING+5            cn=2,n=4
        48 000120   040000 100400                    MLR     fill='040'O
        48 000121   000076 000006 3                  ADSC9   FORT_INCLUDE_HEAD+62     cn=0,n=6
        48 000122   000006 400146 0                  ADSC9   LIST_STRING+6            cn=2,n=102
PL6.E3A0      #001=ZIG$V_DESC File=ZIG$V_DESC.:ZIC0TSI                           FRI 09/05/97 12:18 Page:28

      114     3862    1          SUBSCHEMA_NAME_4,'(0:47)');
      115     3863    1       CALL WRITE_RECORD;

   3863 48 000123   000003 701000 48                 TSX1    WRITE_RECORD
        48 000124   000000 011000                    NOP     0

      116     3864    1       CALL SET_FIELD_NUM(1,CONTROL.UWA_SIZE);

   3864 48 000125   000007 630400 49                 EPPR0   7
        48 000126   000005 631400 49                 EPPR1   5
        48 000127   000000 701000 xent               TSX1    SET_FIELD_NUM
        48 000130   000000 011000                    NOP     0

      117     3865    1       CALL CONCAT(LIST_STRING,'      DATA I',SUBSCHEMA_NAME_4,'/0,',

   3865 48 000131   000000 236000 40                 LDQ     FIELD1
        48 000132   000033 772000                    QRL     27
        48 000133   040000 100400                    MLR     fill='040'O
        48 000134   000100 000014 3                  ADSC9   FORT_INCLUDE_HEAD+64     cn=0,n=12
        48 000135   000000 000014 0                  ADSC9   LIST_STRING              cn=0,n=12
        48 000136   000000 620006                    EAX0    0,QL
        48 000137   200003 236100                    LDQ     SUBSCHEMA_NAME_4,,AUTO
        48 000140   000003 756000 0                  STQ     LIST_STRING+3
        48 000141   000103 236000 3                  LDQ     FORT_INCLUDE_HEAD+67
        48 000142   000011 376000 49                 ANQ     9
        48 000143   000040 276007                    ORQ     32,DL
        48 000144   000004 756000 0                  STQ     LIST_STRING+4
        48 000145   040000 100440                    MLR     fill='040'O
        48 000146   000000 200010 40                 ADSC9   FIELD1                   cn=1,n=*X0
        48 000147   000004 600155 0                  ADSC9   LIST_STRING+4            cn=3,n=109
        48 000150   000000 636010                    EAQ     0,X0
        48 000151   000022 772000                    QRL     18
        48 000152   000155 116007                    CMPQ    109,DL
        48 000153   000164 603000 48                 TRC     s:3867
        48 000154   200024 740100                    STX0    RCID+2,,AUTO
        48 000155   777622 620010                    EAX0    -110,X0
PL6.E3A0      #001=ZIG$V_DESC File=ZIG$V_DESC.:ZIC0TSI                           FRI 09/05/97 12:18 Page:29
        48 000156   777777 660003                    ERX0    -1,DU
        48 000157   200024 235100                    LDA     RCID+2,,AUTO
        48 000160   000022 771000                    ARL     18
        48 000161   040045 100400                    MLR     fill='040'O
        48 000162   000104 000005 3                  ADSC9   FORT_INCLUDE_HEAD+68     cn=0,n=5
        48 000163   000004 600010 0                  ADSC9   LIST_STRING+4,A          cn=3,n=*X0

      118     3866    1          SUBSTR(FIELD1.TEXT1,0,FIELD1.COUNT1),',8*0,');
      119     3867    1       CALL WRITE_RECORD;

   3867 48 000164   000003 701000 48                 TSX1    WRITE_RECORD
        48 000165   000000 011000                    NOP     0

      120     3868    1       CALL CONCAT(LIST_STRING,'     +    ''',SUBSTR(CONTROL.SCHEMA_NAME,0,4));

   3868 48 000166   040000 100400                    MLR     fill='040'O
        48 000167   000106 000013 3                  ADSC9   FORT_INCLUDE_HEAD+70     cn=0,n=11
        48 000170   000000 000013 0                  ADSC9   LIST_STRING              cn=0,n=11
        48 000171   040000 100400                    MLR     fill='040'O
        48 000172   000020 000004 11                 ADSC9   CONTROL+16               cn=0,n=4
        48 000173   000002 600165 0                  ADSC9   LIST_STRING+2            cn=3,n=117

      121     3869    1       I = 4;

   3869 48 000174   000004 235007                    LDA     4,DL
        48 000175   000161 755000 4                  STA     I

      122     3870    2       DO WHILE(SUBSTR(CONTROL.SCHEMA_NAME,I,4) ~= '    ' AND I < 32);

   3870 48 000176   000216 710000 48                 TRA     s:3874

      123     3871    2           CALL INSERT(LIST_STRING,11+I+((I-1)/4*3),7,''',''',

   3871 48 000177   000161 236000 4                  LDQ     I
        48 000200   000001 136007                    SBLQ    1,DL
        48 000201   000004 506007                    DIV     4,DL
        48 000202   000003 402007                    MPY     3,DL
PL6.E3A0      #001=ZIG$V_DESC File=ZIG$V_DESC.:ZIC0TSI                           FRI 09/05/97 12:18 Page:30
        48 000203   000161 036000 4                  ADLQ    I
        48 000204   040006 100400                    MLR     fill='040'O
        48 000205   000111 000003 3                  ADSC9   FORT_INCLUDE_HEAD+73     cn=0,n=3
        48 000206   000002 600003 0                  ADSC9   LIST_STRING+2,Q          cn=3,n=3
        48 000207   000161 235000 4                  LDA     I
        48 000210   040006 100405                    MLR     fill='040'O
        48 000211   000020 000004 11                 ADSC9   CONTROL+16,A             cn=0,n=4
        48 000212   000003 400004 0                  ADSC9   LIST_STRING+3,Q          cn=2,n=4

      124     3872    2              SUBSTR(CONTROL.SCHEMA_NAME,I,4));
      125     3873    2           I = I + 4;

   3873 48 000213   000161 235000 4                  LDA     I
        48 000214   000004 035007                    ADLA    4,DL
        48 000215   000161 755000 4                  STA     I

      126     3874    2           END;

   3874 48 000216   040000 106405                    CMPC    fill='040'O
        48 000217   000020 000004 11                 ADSC9   CONTROL+16,A             cn=0,n=4
        48 000220   000035 000004 3                  ADSC9   FORT_INCLUDE_HEAD+29     cn=0,n=4
        48 000221   000224 600000 48                 TZE     s:3875
        48 000222   000040 115007                    CMPA    32,DL
        48 000223   000177 602000 48                 TNC     s:3871

      127     3875    1       CALL SET_FIELD_NUM(1,8-I/4);

   3875 48 000224   000161 236000 4                  LDQ     I
        48 000225   000002 772000                    QRL     2
        48 000226   000012 676000 49                 ERQ     10
        48 000227   000011 036007                    ADLQ    9,DL
        48 000230   200024 756100                    STQ     RCID+2,,AUTO
        48 000231   200024 630500                    EPPR0   RCID+2,,AUTO
        48 000232   200027 450500                    STP0    RCID+5,,AUTO
        48 000233   000007 236000 49                 LDQ     7
        48 000234   200026 756100                    STQ     RCID+4,,AUTO
        48 000235   200026 630500                    EPPR0   RCID+4,,AUTO
PL6.E3A0      #001=ZIG$V_DESC File=ZIG$V_DESC.:ZIC0TSI                           FRI 09/05/97 12:18 Page:31
        48 000236   000005 631400 49                 EPPR1   5
        48 000237   000000 701000 xent               TSX1    SET_FIELD_NUM
        48 000240   000000 011000                    NOP     0

      128     3876    1       CALL INSERT(LIST_STRING,11+I+((I-1)/4*3),11,''',',SUBSTR(FIELD1.TEXT1,

   3876 48 000241   000161 236000 4                  LDQ     I
        48 000242   000001 136007                    SBLQ    1,DL
        48 000243   000004 506007                    DIV     4,DL
        48 000244   000003 402007                    MPY     3,DL
        48 000245   000161 036000 4                  ADLQ    I
        48 000246   040006 100400                    MLR     fill='040'O
        48 000247   000111 000002 3                  ADSC9   FORT_INCLUDE_HEAD+73     cn=0,n=2
        48 000250   000002 600002 0                  ADSC9   LIST_STRING+2,Q          cn=3,n=2
        48 000251   040006 100400                    MLR     fill='040'O
        48 000252   000000 200001 40                 ADSC9   FIELD1                   cn=1,n=1
        48 000253   000003 200001 0                  ADSC9   LIST_STRING+3,Q          cn=1,n=1
        48 000254   040006 100400                    MLR     fill='040'O
        48 000255   000112 000010 3                  ADSC9   FORT_INCLUDE_HEAD+74     cn=0,n=8
        48 000256   000003 400010 0                  ADSC9   LIST_STRING+3,Q          cn=2,n=8

      129     3877    1          0,1),'*''    '',');
      130     3878    1       CALL WRITE_RECORD;

   3878 48 000257   000003 701000 48                 TSX1    WRITE_RECORD
        48 000260   000000 011000                    NOP     0

      131     3879    1       CALL CONCAT(LIST_STRING,'     +    ''',SUBSCHEMA_NAME_4);

   3879 48 000261   040000 100400                    MLR     fill='040'O
        48 000262   000106 000013 3                  ADSC9   FORT_INCLUDE_HEAD+70     cn=0,n=11
        48 000263   000000 000013 0                  ADSC9   LIST_STRING              cn=0,n=11
        48 000264   040000 100500                    MLR     fill='040'O
        48 000265   200003 000004                    ADSC9   SUBSCHEMA_NAME_4,,AUTO   cn=0,n=4
        48 000266   000002 600165 0                  ADSC9   LIST_STRING+2            cn=3,n=117

      132     3880    1       I = 4;
PL6.E3A0      #001=ZIG$V_DESC File=ZIG$V_DESC.:ZIC0TSI                           FRI 09/05/97 12:18 Page:32

   3880 48 000267   000004 235007                    LDA     4,DL
        48 000270   000161 755000 4                  STA     I

      133     3881    2       DO WHILE(SUBSTR(CONTROL.SUBSCHEMA_NAME,I,4) ~= '    ' AND I < 32);

   3881 48 000271   000311 710000 48                 TRA     s:3885

      134     3882    2           CALL INSERT(LIST_STRING,11+I+((I-1)/4*3),7,''',''',

   3882 48 000272   000161 236000 4                  LDQ     I
        48 000273   000001 136007                    SBLQ    1,DL
        48 000274   000004 506007                    DIV     4,DL
        48 000275   000003 402007                    MPY     3,DL
        48 000276   000161 036000 4                  ADLQ    I
        48 000277   040006 100400                    MLR     fill='040'O
        48 000300   000111 000003 3                  ADSC9   FORT_INCLUDE_HEAD+73     cn=0,n=3
        48 000301   000002 600003 0                  ADSC9   LIST_STRING+2,Q          cn=3,n=3
        48 000302   000161 235000 4                  LDA     I
        48 000303   040006 100405                    MLR     fill='040'O
        48 000304   000030 000004 11                 ADSC9   CONTROL+24,A             cn=0,n=4
        48 000305   000003 400004 0                  ADSC9   LIST_STRING+3,Q          cn=2,n=4

      135     3883    2              SUBSTR(CONTROL.SUBSCHEMA_NAME,I,4));
      136     3884    2           I = I + 4;

   3884 48 000306   000161 235000 4                  LDA     I
        48 000307   000004 035007                    ADLA    4,DL
        48 000310   000161 755000 4                  STA     I

      137     3885    2           END;

   3885 48 000311   040000 106405                    CMPC    fill='040'O
        48 000312   000030 000004 11                 ADSC9   CONTROL+24,A             cn=0,n=4
        48 000313   000035 000004 3                  ADSC9   FORT_INCLUDE_HEAD+29     cn=0,n=4
        48 000314   000317 600000 48                 TZE     s:3886
        48 000315   000040 115007                    CMPA    32,DL
PL6.E3A0      #001=ZIG$V_DESC File=ZIG$V_DESC.:ZIC0TSI                           FRI 09/05/97 12:18 Page:33
        48 000316   000272 602000 48                 TNC     s:3882

      138     3886    1       CALL SET_FIELD_NUM(1,8-I/4);

   3886 48 000317   000161 236000 4                  LDQ     I
        48 000320   000002 772000                    QRL     2
        48 000321   000012 676000 49                 ERQ     10
        48 000322   000011 036007                    ADLQ    9,DL
        48 000323   200024 756100                    STQ     RCID+2,,AUTO
        48 000324   200024 630500                    EPPR0   RCID+2,,AUTO
        48 000325   200027 450500                    STP0    RCID+5,,AUTO
        48 000326   000007 236000 49                 LDQ     7
        48 000327   200026 756100                    STQ     RCID+4,,AUTO
        48 000330   200026 630500                    EPPR0   RCID+4,,AUTO
        48 000331   000005 631400 49                 EPPR1   5
        48 000332   000000 701000 xent               TSX1    SET_FIELD_NUM
        48 000333   000000 011000                    NOP     0

      139     3887    1       CALL INSERT(LIST_STRING,11+I+((I-1)/4*3),11,''',',SUBSTR(FIELD1.TEXT1,

   3887 48 000334   000161 236000 4                  LDQ     I
        48 000335   000001 136007                    SBLQ    1,DL
        48 000336   000004 506007                    DIV     4,DL
        48 000337   000003 402007                    MPY     3,DL
        48 000340   000161 036000 4                  ADLQ    I
        48 000341   040006 100400                    MLR     fill='040'O
        48 000342   000111 000002 3                  ADSC9   FORT_INCLUDE_HEAD+73     cn=0,n=2
        48 000343   000002 600002 0                  ADSC9   LIST_STRING+2,Q          cn=3,n=2
        48 000344   040006 100400                    MLR     fill='040'O
        48 000345   000000 200001 40                 ADSC9   FIELD1                   cn=1,n=1
        48 000346   000003 200001 0                  ADSC9   LIST_STRING+3,Q          cn=1,n=1
        48 000347   040006 100400                    MLR     fill='040'O
        48 000350   000112 000010 3                  ADSC9   FORT_INCLUDE_HEAD+74     cn=0,n=8
        48 000351   000003 400010 0                  ADSC9   LIST_STRING+3,Q          cn=2,n=8

      140     3888    1          0,1),'*''    '',');
      141     3889    1       CALL WRITE_RECORD;
PL6.E3A0      #001=ZIG$V_DESC File=ZIG$V_DESC.:ZIC0TSI                           FRI 09/05/97 12:18 Page:34

   3889 48 000352   000003 701000 48                 TSX1    WRITE_RECORD
        48 000353   000000 011000                    NOP     0

      142     3890    1       LIST_STRING = '     +    ''FORT'',''RAN '',6*''    '',';

   3890 48 000354   040000 100400                    MLR     fill='040'O
        48 000355   000114 000041 3                  ADSC9   FORT_INCLUDE_HEAD+76     cn=0,n=33
        48 000356   000000 000200 0                  ADSC9   LIST_STRING              cn=0,n=128

      143     3891    1       CALL WRITE_RECORD;

   3891 48 000357   000003 701000 48                 TSX1    WRITE_RECORD
        48 000360   000000 011000                    NOP     0

      144     3892    1       LIST_STRING = '     +    8*''    '',';

   3892 48 000361   040000 100400                    MLR     fill='040'O
        48 000362   000125 000023 3                  ADSC9   FORT_INCLUDE_HEAD+85     cn=0,n=19
        48 000363   000000 000200 0                  ADSC9   LIST_STRING              cn=0,n=128

      145     3893    1       CALL WRITE_RECORD;

   3893 48 000364   000003 701000 48                 TSX1    WRITE_RECORD
        48 000365   000000 011000                    NOP     0

      146     3894    1       NUM_IN = BINBIT(CONTROL.SUBSCHEMA_UTS,36);

   3894 48 000366   000053 236000 11                 LDQ     CONTROL+43
        48 000367   200005 756100                    STQ     NUM_IN,,AUTO

      147     3895    2       DO LCV = 0 TO 11;

   3895 48 000370   200004 450100                    STZ     LCV,,AUTO

      148     3896    2           CALL BINCHAR(CHAR_1,NUM_IN.NUM(LCV));

PL6.E3A0      #001=ZIG$V_DESC File=ZIG$V_DESC.:ZIC0TSI                           FRI 09/05/97 12:18 Page:35
   3896 48 000371   200004 236100                    LDQ     LCV,,AUTO
        48 000372   000003 402007                    MPY     3,DL
        48 000373   003100 061506                    CSR     bolr='003'O
        48 000374   200005 000003                    BDSC    NUM_IN,Q,AUTO            by=0,bit=0,n=3
        48 000375   200024 000044                    BDSC    RCID+2,,AUTO             by=0,bit=0,n=36
        48 000376   200024 236100                    LDQ     RCID+2,,AUTO
        48 000377   000000 235003                    LDA     0,DU
        48 000400   200026 757100                    STAQ    RCID+4,,AUTO
        48 000401   000000 301500                    BTD
        48 000402   200026 000010                    NDSC9   RCID+4,,AUTO             cn=0,s=lsgnf,sf=0,n=8
        48 000403   000000 030001 4                  NDSC9   CHAR_1                   cn=0,s=nosgn,sf=0,n=1

      149     3897    2           CALL INSERT(FIELD1.TEXT1,LCV,1,CHAR_1);

   3897 48 000404   200004 236100                    LDQ     LCV,,AUTO
        48 000405   040006 100400                    MLR     fill='040'O
        48 000406   000000 000001 4                  ADSC9   CHAR_1                   cn=0,n=1
        48 000407   000000 200001 40                 ADSC9   FIELD1,Q                 cn=1,n=1

      150     3898    2           END;

   3898 48 000410   000001 036007                    ADLQ    1,DL
        48 000411   200004 756100                    STQ     LCV,,AUTO
        48 000412   000014 116007                    CMPQ    12,DL
        48 000413   000371 602000 48                 TNC     s:3896

      151     3899    1       FIELD1.COUNT1 = 12;

   3899 48 000414   014000 236003                    LDQ     6144,DU
        48 000415   000000 552040 40                 STBQ    FIELD1,'40'O

      152     3900    1       CALL CONCAT(LIST_STRING,'     +    3,0,0,12O',SUBSTR(FIELD1.TEXT1,0

   3900 48 000416   000000 236000 40                 LDQ     FIELD1
        48 000417   000033 772000                    QRL     27
        48 000420   040000 100400                    MLR     fill='040'O
        48 000421   000132 000023 3                  ADSC9   FORT_INCLUDE_HEAD+90     cn=0,n=19
PL6.E3A0      #001=ZIG$V_DESC File=ZIG$V_DESC.:ZIC0TSI                           FRI 09/05/97 12:18 Page:36
        48 000422   000000 000023 0                  ADSC9   LIST_STRING              cn=0,n=19
        48 000423   000000 620006                    EAX0    0,QL
        48 000424   040000 100440                    MLR     fill='040'O
        48 000425   000000 200010 40                 ADSC9   FIELD1                   cn=1,n=*X0
        48 000426   000004 600155 0                  ADSC9   LIST_STRING+4            cn=3,n=109
        48 000427   000155 116007                    CMPQ    109,DL
        48 000430   000436 603000 48                 TRC     s:3902
        48 000431   777622 620006                    EAX0    -110,QL
        48 000432   777777 660003                    ERX0    -1,DU
        48 000433   040046 100400                    MLR     fill='040'O
        48 000434   000137 000005 3                  ADSC9   FORT_INCLUDE_HEAD+95     cn=0,n=5
        48 000435   000004 600010 0                  ADSC9   LIST_STRING+4,Q          cn=3,n=*X0

      153     3901    1          ,FIELD1.COUNT1),',0,0/');
      154     3902    1       CALL WRITE_RECORD;

   3902 48 000436   000003 701000 48                 TSX1    WRITE_RECORD
        48 000437   000000 011000                    NOP     0

      155     3903    1       LIST_STRING = '**';

   3903 48 000440   040000 100400                    MLR     fill='040'O
        48 000441   000020 000002 3                  ADSC9   FORT_INCLUDE_HEAD+16     cn=0,n=2
        48 000442   000000 000200 0                  ADSC9   LIST_STRING              cn=0,n=128

      156     3904    1       CALL WRITE_RECORD;

   3904 48 000443   000003 701000 48                 TSX1    WRITE_RECORD
        48 000444   000000 011000                    NOP     0

      157     3905    1       LIST_STRING = '**     I-D-S/II USER WORK ARE (UWA)';

   3905 48 000445   040000 100400                    MLR     fill='040'O
        48 000446   000141 000043 3                  ADSC9   FORT_INCLUDE_HEAD+97     cn=0,n=35
        48 000447   000000 000200 0                  ADSC9   LIST_STRING              cn=0,n=128

      158     3906    1       CALL WRITE_RECORD;
PL6.E3A0      #001=ZIG$V_DESC File=ZIG$V_DESC.:ZIC0TSI                           FRI 09/05/97 12:18 Page:37

   3906 48 000450   000003 701000 48                 TSX1    WRITE_RECORD
        48 000451   000000 011000                    NOP     0

      159     3907    1       LIST_STRING = '**';

   3907 48 000452   040000 100400                    MLR     fill='040'O
        48 000453   000020 000002 3                  ADSC9   FORT_INCLUDE_HEAD+16     cn=0,n=2
        48 000454   000000 000200 0                  ADSC9   LIST_STRING              cn=0,n=128

      160     3908    1       CALL WRITE_RECORD;

   3908 48 000455   000003 701000 48                 TSX1    WRITE_RECORD
        48 000456   000000 011000                    NOP     0

      161     3909    1       UWA_KEY.NUMBER_OF = 1;

   3909 48 000457   000001 235007                    LDA     1,DL
        48 000460   000001 755000 19                 STA     UWA_KEY+1

      162     3910    1       SPECIAL_KEY = UWA_KEY;

   3910 48 000461   000000 237000 19                 LDAQ    UWA_KEY
        48 000462   000000 757000 15                 STAQ    SUBSCHEMA_KEY

      163     3911    1       BUFFER$ = ADDR(LIST_STRING);

   3911 48 000463   000001 236000 49                 LDQ     1
        48 000464   000000 756000 16                 STQ     BUFFER$

      164     3912    1       BUFFER_LEN = 72;

   3912 48 000465   000110 235007                    LDA     72,DL
        48 000466   000000 755000 18                 STA     BUFFER_LEN

      165     3913    1       CALL ZIG$SS_RVAR;

PL6.E3A0      #001=ZIG$V_DESC File=ZIG$V_DESC.:ZIC0TSI                           FRI 09/05/97 12:18 Page:38
   3913 48 000467   000003 631400 49                 EPPR1   3
        48 000470   000000 701000 xent               TSX1    ZIG$SS_RVAR
        48 000471   000000 011000                    NOP     0

      166     3914    2       DO WHILE (SUBSTR(LIST_STRING,0,12) ~= '/*/*/*/*/*/*');

   3914 48 000472   000505 710000 48                 TRA     s:3919

      167     3915    2           CALL WRITE_RECORD;

   3915 48 000473   000003 701000 48                 TSX1    WRITE_RECORD
        48 000474   000000 011000                    NOP     0

      168     3916    2           UWA_KEY.NUMBER_OF = UWA_KEY.NUMBER_OF + 1;

   3916 48 000475   000001 235000 19                 LDA     UWA_KEY+1
        48 000476   000001 035007                    ADLA    1,DL
        48 000477   000001 755000 19                 STA     UWA_KEY+1

      169     3917    2           SPECIAL_KEY = UWA_KEY;

   3917 48 000500   000000 237000 19                 LDAQ    UWA_KEY
        48 000501   000000 757000 15                 STAQ    SUBSCHEMA_KEY

      170     3918    2           CALL ZIG$SS_RVAR;

   3918 48 000502   000003 631400 49                 EPPR1   3
        48 000503   000000 701000 xent               TSX1    ZIG$SS_RVAR
        48 000504   000000 011000                    NOP     0

      171     3919    2           END;

   3919 48 000505   040000 106400                    CMPC    fill='040'O
        48 000506   000000 000014 0                  ADSC9   LIST_STRING              cn=0,n=12
        48 000507   000152 000014 3                  ADSC9   FORT_INCLUDE_HEAD+106    cn=0,n=12
        48 000510   000473 601000 48                 TNZ     s:3915

PL6.E3A0      #001=ZIG$V_DESC File=ZIG$V_DESC.:ZIC0TSI                           FRI 09/05/97 12:18 Page:39
      172     3920    1       UWA_KEY.NUMBER_OF = 10001;

   3920 48 000511   023421 235007                    LDA     10001,DL
        48 000512   000001 755000 19                 STA     UWA_KEY+1

      173     3921    1       SPECIAL_KEY = UWA_KEY;

   3921 48 000513   000000 237000 19                 LDAQ    UWA_KEY
        48 000514   000000 757000 15                 STAQ    SUBSCHEMA_KEY

      174     3922    1       CALL ZIG$SS_RVAR;

   3922 48 000515   000003 631400 49                 EPPR1   3
        48 000516   000000 701000 xent               TSX1    ZIG$SS_RVAR
        48 000517   000000 011000                    NOP     0

      175     3923    2       DO WHILE (SUBSTR(LIST_STRING,0,12) ~= '/*/*/*/*/*/*');

   3923 48 000520   000533 710000 48                 TRA     s:3928

      176     3924    2           CALL WRITE_RECORD;

   3924 48 000521   000003 701000 48                 TSX1    WRITE_RECORD
        48 000522   000000 011000                    NOP     0

      177     3925    2           UWA_KEY.NUMBER_OF = UWA_KEY.NUMBER_OF + 1;

   3925 48 000523   000001 235000 19                 LDA     UWA_KEY+1
        48 000524   000001 035007                    ADLA    1,DL
        48 000525   000001 755000 19                 STA     UWA_KEY+1

      178     3926    2           SPECIAL_KEY = UWA_KEY;

   3926 48 000526   000000 237000 19                 LDAQ    UWA_KEY
        48 000527   000000 757000 15                 STAQ    SUBSCHEMA_KEY

      179     3927    2           CALL ZIG$SS_RVAR;
PL6.E3A0      #001=ZIG$V_DESC File=ZIG$V_DESC.:ZIC0TSI                           FRI 09/05/97 12:18 Page:40

   3927 48 000530   000003 631400 49                 EPPR1   3
        48 000531   000000 701000 xent               TSX1    ZIG$SS_RVAR
        48 000532   000000 011000                    NOP     0

      180     3928    2           END;

   3928 48 000533   040000 106400                    CMPC    fill='040'O
        48 000534   000000 000014 0                  ADSC9   LIST_STRING              cn=0,n=12
        48 000535   000152 000014 3                  ADSC9   FORT_INCLUDE_HEAD+106    cn=0,n=12
        48 000536   000521 601000 48                 TNZ     s:3924

      181     3929    1       LIST_STRING = '**';

   3929 48 000537   040000 100400                    MLR     fill='040'O
        48 000540   000020 000002 3                  ADSC9   FORT_INCLUDE_HEAD+16     cn=0,n=2
        48 000541   000000 000200 0                  ADSC9   LIST_STRING              cn=0,n=128

      182     3930    1       CALL WRITE_RECORD;

   3930 48 000542   000003 701000 48                 TSX1    WRITE_RECORD
        48 000543   000000 011000                    NOP     0

      183     3931    1       LIST_STRING = '**     I-D-S/II REFERENCE VECTOR AREA (RVA)';

   3931 48 000544   040000 100400                    MLR     fill='040'O
        48 000545   000155 000053 3                  ADSC9   FORT_INCLUDE_HEAD+109    cn=0,n=43
        48 000546   000000 000200 0                  ADSC9   LIST_STRING              cn=0,n=128

      184     3932    1       CALL WRITE_RECORD;

   3932 48 000547   000003 701000 48                 TSX1    WRITE_RECORD
        48 000550   000000 011000                    NOP     0

      185     3933    1       LIST_STRING = '**';

   3933 48 000551   040000 100400                    MLR     fill='040'O
PL6.E3A0      #001=ZIG$V_DESC File=ZIG$V_DESC.:ZIC0TSI                           FRI 09/05/97 12:18 Page:41
        48 000552   000020 000002 3                  ADSC9   FORT_INCLUDE_HEAD+16     cn=0,n=2
        48 000553   000000 000200 0                  ADSC9   LIST_STRING              cn=0,n=128

      186     3934    1       CALL WRITE_RECORD;

   3934 48 000554   000003 701000 48                 TSX1    WRITE_RECORD
        48 000555   000000 011000                    NOP     0

      187     3935    1       RVA_KEY.NUMBER_OF = 1;

   3935 48 000556   000001 235007                    LDA     1,DL
        48 000557   000001 755000 21                 STA     RVA_KEY+1

      188     3936    1       SPECIAL_KEY = RVA_KEY;

   3936 48 000560   000000 237000 21                 LDAQ    RVA_KEY
        48 000561   000000 757000 15                 STAQ    SUBSCHEMA_KEY

      189     3937    1       CALL ZIG$SS_RVAR;

   3937 48 000562   000003 631400 49                 EPPR1   3
        48 000563   000000 701000 xent               TSX1    ZIG$SS_RVAR
        48 000564   000000 011000                    NOP     0

      190     3938        /*  Check if RVA shared data segment file has been requested  */
      191     3939    2       IF VALIDS.GEN_RVA THEN DO;

   3939 48 000565   000000 236000 32                 LDQ     VALIDS
        48 000566   000002 316003                    CANQ    2,DU
        48 000567   000714 600000 48                 TZE     s:3977

      192     3940        /*      Shared data segmt file and dcb name = subschema-name||'$'  */
      193     3941    2           VLP_NAME.L# = 31;

   3941 48 000570   037000 236003                    LDQ     15872,DU
        48 000571   000146 552040 4                  STBQ    VLP_NAME,'40'O

PL6.E3A0      #001=ZIG$V_DESC File=ZIG$V_DESC.:ZIC0TSI                           FRI 09/05/97 12:18 Page:42
      194     3942    2           VLP_NAME.NAME# = SUBSCHEMA_NAME;

   3942 48 000572   040000 100400                    MLR     fill='040'O
        48 000573   000000 000036 39                 ADSC9   SUBSCHEMA_NAME           cn=0,n=30
        48 000574   000146 200037 4                  ADSC9   VLP_NAME                 cn=1,n=31

      195     3943    3           DO WHILE(SUBSTR(VLP_NAME.NAME#, VLP_NAME.L#-1, 1) = ' ');

   3943 48 000575   000601 710000 48                 TRA     s:3945

      196     3944    3               VLP_NAME.L# = VLP_NAME.L# - 1;

   3944 48 000576   000146 236000 4                  LDQ     VLP_NAME
        48 000577   777000 036003                    ADLQ    -512,DU
        48 000600   000146 552040 4                  STBQ    VLP_NAME,'40'O

      197     3945    3               END;

   3945 48 000601   000146 236000 4                  LDQ     VLP_NAME
        48 000602   000033 772000                    QRL     27
        48 000603   040000 106406                    CMPC    fill='040'O
        48 000604   000146 000001 4                  ADSC9   VLP_NAME,Q               cn=0,n=1
        48 000605   000002 000001 49                 ADSC9   2                        cn=0,n=1
        48 000606   000576 600000 48                 TZE     s:3944

      198     3946    2           CALL INSERT(VLP_NAME.NAME#, VLP_NAME.L#, 1, '$');

   3946 48 000607   040006 100400                    MLR     fill='040'O
        48 000610   000013 000001 49                 ADSC9   11                       cn=0,n=1
        48 000611   000146 200001 4                  ADSC9   VLP_NAME,Q               cn=1,n=1

      199     3947    2           VLP_NAME.L# = VLP_NAME.L# + 1;

   3947 48 000612   000146 236000 4                  LDQ     VLP_NAME
        48 000613   001000 036003                    ADLQ    512,DU
        48 000614   000146 552040 4                  STBQ    VLP_NAME,'40'O

PL6.E3A0      #001=ZIG$V_DESC File=ZIG$V_DESC.:ZIC0TSI                           FRI 09/05/97 12:18 Page:43
      200     3948        /*      Get a DCB for the shared data segment file  */
      201     3949    2           CALL M$GETDCB(FPT_GETDCB);

   3949 48 000615   000002 630400 4                  EPPR0   FPT_GETDCB
        48 000616   060002 713400                    CLIMB   24578
        48 000617   401000 401760                    pmme    nvectors=3

      202     3950        /*      Get number of words required for RVA  */
      203     3951    2           CALL INDEX(IX1, ':', LIST_STRING);

   3951 48 000620   000000 124400                    SCM     mask='000'O
        48 000621   000000 000200 0                  ADSC9   LIST_STRING              cn=0,n=128
        48 000622   000014 000001 49                 ADSC9   12                       cn=0,n=1
        48 000623   200011 000100                    ARG     IX1,,AUTO

      204     3952    2           CALL INDEX(IX2, ')', LIST_STRING);

   3952 48 000624   000000 124400                    SCM     mask='000'O
        48 000625   000000 000200 0                  ADSC9   LIST_STRING              cn=0,n=128
        48 000626   000015 000001 49                 ADSC9   13                       cn=0,n=1
        48 000627   200012 000100                    ARG     IX2,,AUTO

      205     3953    2           IX2 = IX2 - IX1 - 1;

   3953 48 000630   200012 236100                    LDQ     IX2,,AUTO
        48 000631   200011 136100                    SBLQ    IX1,,AUTO
        48 000632   000001 136007                    SBLQ    1,DL
        48 000633   200012 756100                    STQ     IX2,,AUTO

      206     3954    2           CALL CHARBIN(RVACOUNT, SUBSTR(LIST_STRING, IX1+1, IX2));

   3954 48 000634   000000 620006                    EAX0    0,QL
        48 000635   200011 235100                    LDA     IX1,,AUTO
        48 000636   000100 305445                    DTB
        48 000637   000000 230010 0                  NDSC9   LIST_STRING,A            cn=1,s=nosgn,sf=0,n=*X0
        48 000640   200024 000010                    NDSC9   RCID+2,,AUTO             cn=0,s=lsgnf,sf=0,n=8
        48 000641   200025 236100                    LDQ     RCID+3,,AUTO
PL6.E3A0      #001=ZIG$V_DESC File=ZIG$V_DESC.:ZIC0TSI                           FRI 09/05/97 12:18 Page:44
        48 000642   200006 756100                    STQ     RVACOUNT,,AUTO

      207     3955        /*      Number of words needed for NULL_OFFSET and RVA_TYPE table */
      208     3956    2           IX0 = RVACOUNT*%TYPE_BITS/36 + 2;

   3956 48 000643   000001 736000                    QLS     1
        48 000644   000001 772000                    QRL     1
        48 000645   000022 506007                    DIV     18,DL
        48 000646   000002 036007                    ADLQ    2,DL
        48 000647   200010 756100                    STQ     IX0,,AUTO

      209     3957        /*      Calculate number of pages required for RVA  */
      210     3958    2           NRVAPGS = (RVACOUNT*4 + IX0)*4/4096 + 1;

   3958 48 000650   200006 236100                    LDQ     RVACOUNT,,AUTO
        48 000651   000002 736000                    QLS     2
        48 000652   200010 036100                    ADLQ    IX0,,AUTO
        48 000653   000002 736000                    QLS     2
        48 000654   000014 772000                    QRL     12
        48 000655   000001 036007                    ADLQ    1,DL
        48 000656   200007 756100                    STQ     NRVAPGS,,AUTO

      211     3959        /*      Set size for open of shared data segment file  */
      212     3960    2           OPEN_SDS.V.IXTNSIZE# = 1 + NRVAPGS;

   3960 48 000657   000001 036007                    ADLQ    1,DL
        48 000660   000067 756000 4                  STQ     OPEN_SDS+45

      213     3961        /*      Create shared data segment file  */
      214     3962    2           OPEN_SDS.V.DCB# = SDSDCB;

   3962 48 000661   000156 720000 4                  LXL0    SDSDCB
        48 000662   000056 740000 4                  STX0    OPEN_SDS+36

      215     3963    2           IF DCBADDR(SDSDCB)->F$DCB.ASN# = %FILE# THEN

   3963 48 000663   000016 470400 49                 LDP0    14
PL6.E3A0      #001=ZIG$V_DESC File=ZIG$V_DESC.:ZIC0TSI                           FRI 09/05/97 12:18 Page:45
        48 000664   000000 471500                    LDP1    0,,PR0
        48 000665   100000 473510                    LDP3    0,X0,PR1
        48 000666   300032 236100                    LDQ     26,,PR3
        48 000667   777000 376007                    ANQ     -512,DL
        48 000670   001000 116007                    CMPQ    512,DL
        48 000671   000675 601000 48                 TNZ     s:3965

      216     3964    2               VLP_NAME = DCBADDR(SDSDCB)->F$DCB.NAME#;

   3964 48 000672   000000 100500                    MLR     fill='000'O
        48 000673   300010 000040                    ADSC9   8,,PR3                   cn=0,n=32
        48 000674   000146 000040 4                  ADSC9   VLP_NAME                 cn=0,n=32

      217     3965    2           CALL M$OPEN(OPEN_SDS)

   3965 48 000675   000012 630400 4                  EPPR0   OPEN_SDS
        48 000676   450000 713400                    CLIMB   alt,open
        48 000677   410400 401760                    pmme    nvectors=18
        48 000700   000702 702000 48                 TSX2    s:3967
        48 000701   000711 710000 48                 TRA     s:3974

      218     3966    3           WHENALTRETURN DO;

      219     3967    3               CALL ERROR(%ZIG_V_RVA_SDS_OPEN);

   3967 48 000702   000020 630400 49                 EPPR0   16
        48 000703   000000 631400 49                 EPPR1   0
        48 000704   000000 701000 xent               TSX1    ERROR
        48 000705   000000 011000                    NOP     0

      220     3968    3               CALL ABORT;

   3968 48 000706   000003 631400 49                 EPPR1   3
        48 000707   000000 701000 xent               TSX1    ABORT
        48 000710   000000 011000                    NOP     0

      221     3969        /*E*     ERROR:     ZIG-ZIG_V_RVA_SDS_OPEN-C
PL6.E3A0      #001=ZIG$V_DESC File=ZIG$V_DESC.:ZIC0TSI                           FRI 09/05/97 12:18 Page:46
      222     3970        MESSAGE: Unable to open RVA shared data segment file
      223     3971        */
      224     3972    3               END;

      225     3973        /*      Establish pointer to beginning of segment  */
      226     3974    2           RVA$ = B$DS8$;

   3974 48 000711   000000 236000 xsym               LDQ     B$DS8$
        48 000712   000001 756000 4                  STQ     RVA$

      227     3975    2           IX1 = 0;

   3975 48 000713   200011 450100                    STZ     IX1,,AUTO

      228     3976    2           END;

      229     3977    2       DO WHILE (SUBSTR(LIST_STRING,0,12) ~= '/*/*/*/*/*/*');

   3977 48 000714   001012 710000 48                 TRA     s:3997

      230     3978    2           CALL WRITE_RECORD;

   3978 48 000715   000003 701000 48                 TSX1    WRITE_RECORD
        48 000716   000000 011000                    NOP     0

      231     3979    2           RVA_KEY.NUMBER_OF = RVA_KEY.NUMBER_OF + 1;

   3979 48 000717   000001 235000 21                 LDA     RVA_KEY+1
        48 000720   000001 035007                    ADLA    1,DL
        48 000721   000001 755000 21                 STA     RVA_KEY+1

      232     3980    2           SPECIAL_KEY = RVA_KEY;

   3980 48 000722   000000 237000 21                 LDAQ    RVA_KEY
        48 000723   000000 757000 15                 STAQ    SUBSCHEMA_KEY

      233     3981    2           CALL ZIG$SS_RVAR;
PL6.E3A0      #001=ZIG$V_DESC File=ZIG$V_DESC.:ZIC0TSI                           FRI 09/05/97 12:18 Page:47

   3981 48 000724   000003 631400 49                 EPPR1   3
        48 000725   000000 701000 xent               TSX1    ZIG$SS_RVAR
        48 000726   000000 011000                    NOP     0

      234     3982    3           IF VALIDS.GEN_RVA & SUBSTR(LIST_STRING,0,12)~='/*/*/*/*/*/*' THEN DO;

   3982 48 000727   400000 220003                    LDX0    -131072,DU
        48 000730   040000 106400                    CMPC    fill='040'O
        48 000731   000000 000014 0                  ADSC9   LIST_STRING              cn=0,n=12
        48 000732   000152 000014 3                  ADSC9   FORT_INCLUDE_HEAD+106    cn=0,n=12
        48 000733   000735 601000 48                 TNZ     s:3982+6
        48 000734   000000 220003                    LDX0    0,DU
        48 000735   000000 236000 32                 LDQ     VALIDS
        48 000736   000020 736000                    QLS     16
        48 000737   400000 376003                    ANQ     -131072,DU
        48 000740   200024 756100                    STQ     RCID+2,,AUTO
        48 000741   000000 636010                    EAQ     0,X0
        48 000742   200024 376100                    ANQ     RCID+2,,AUTO
        48 000743   001012 600000 48                 TZE     s:3997

      235     3983        /*      Build the unbound RVA  */
      236     3984    3               CALL INDEX(IX2, '12O', LIST_STRING);

   3984 48 000744   200012 631500                    EPPR1   IX2,,AUTO
        48 000745   000136 633400 3                  EPPR3   FORT_INCLUDE_HEAD+94
        48 000746   000003 223003                    LDX3    3,DU
        48 000747   000000 630400 0                  EPPR0   LIST_STRING
        48 000750   000200 220003                    LDX0    128,DU
        48 000751   000000 236003                    LDQ     0,DU
        48 000752   000000 701000 xent               TSX1    X66_INDEX
        48 000753   000000 011000                    NOP     0

      237     3985    3               IX2 = IX2 + 3;

   3985 48 000754   200012 235100                    LDA     IX2,,AUTO
        48 000755   000003 035007                    ADLA    3,DL
PL6.E3A0      #001=ZIG$V_DESC File=ZIG$V_DESC.:ZIC0TSI                           FRI 09/05/97 12:18 Page:48
        48 000756   200012 755100                    STA     IX2,,AUTO

      238     3986    3               W0 = 0;

   3986 48 000757   200013 450100                    STZ     W0,,AUTO

      239     3987    3               W1 = 0;

   3987 48 000760   200014 450100                    STZ     W1,,AUTO

      240     3988    4               DO IX0 = 0 TO 11;

   3988 48 000761   200010 450100                    STZ     IX0,,AUTO

      241     3989    4                   W0 = W0 * 8;

   3989 48 000762   200013 235100                    LDA     W0,,AUTO
        48 000763   000003 735000                    ALS     3
        48 000764   200013 755100                    STA     W0,,AUTO

      242     3990    4                   RW1.C = SUBSTR(LIST_STRING, IX2+IX0, 1);

   3990 48 000765   200012 236100                    LDQ     IX2,,AUTO
        48 000766   200010 036100                    ADLQ    IX0,,AUTO
        48 000767   040100 100406                    MLR     fill='040'O
        48 000770   000000 000001 0                  ADSC9   LIST_STRING,Q            cn=0,n=1
        48 000771   200014 600001                    ADSC9   W1,,AUTO                 cn=3,n=1

      243     3991    4                   W1 = W1 - 48;

   3991 48 000772   200014 236100                    LDQ     W1,,AUTO
        48 000773   000060 136007                    SBLQ    48,DL
        48 000774   200014 756100                    STQ     W1,,AUTO

      244     3992    4                   W0 = W0 + W1;

   3992 48 000775   200013 036100                    ADLQ    W0,,AUTO
PL6.E3A0      #001=ZIG$V_DESC File=ZIG$V_DESC.:ZIC0TSI                           FRI 09/05/97 12:18 Page:49
        48 000776   200013 756100                    STQ     W0,,AUTO

      245     3993    4                   END;

   3993 48 000777   200010 235100                    LDA     IX0,,AUTO
        48 001000   000001 035007                    ADLA    1,DL
        48 001001   200010 755100                    STA     IX0,,AUTO
        48 001002   000014 115007                    CMPA    12,DL
        48 001003   000762 602000 48                 TNC     s:3989

      246     3994    3               XRVA(IX1) = W0;

   3994 48 001004   000001 470400 4                  LDP0    RVA$
        48 001005   200011 720100                    LXL0    IX1,,AUTO
        48 001006   000000 756110                    STQ     0,X0,PR0

      247     3995    3               IX1 = IX1 + 1;

   3995 48 001007   200011 235100                    LDA     IX1,,AUTO
        48 001010   000001 035007                    ADLA    1,DL
        48 001011   200011 755100                    STA     IX1,,AUTO

      248     3996    3               END;

      249     3997    2           END;

   3997 48 001012   040000 106400                    CMPC    fill='040'O
        48 001013   000000 000014 0                  ADSC9   LIST_STRING              cn=0,n=12
        48 001014   000152 000014 3                  ADSC9   FORT_INCLUDE_HEAD+106    cn=0,n=12
        48 001015   000715 601000 48                 TNZ     s:3978

      250     3998    2       IF VALIDS.GEN_RVA THEN DO;

   3998 48 001016   000000 236000 32                 LDQ     VALIDS
        48 001017   000002 316003                    CANQ    2,DU
        48 001020   001074 600000 48                 TZE     s:4011

PL6.E3A0      #001=ZIG$V_DESC File=ZIG$V_DESC.:ZIC0TSI                           FRI 09/05/97 12:18 Page:50
      251     3999    2           RVA_HALF(0) = RVACOUNT;

   3999 48 001021   000001 470400 4                  LDP0    RVA$
        48 001022   000100 101500                    MRL     fill='000'O
        48 001023   200006 000004                    ADSC9   RVACOUNT,,AUTO           cn=0,n=4
        48 001024   000000 000002                    ADSC9   0,,PR0                   cn=0,n=2

      252     4000    2           RVA_HALF(1) = 0;

   4000 48 001025   000100 101400                    MRL     fill='000'O
        48 001026   000003 000004 49                 ADSC9   3                        cn=0,n=4
        48 001027   000000 400002                    ADSC9   0,,PR0                   cn=2,n=2

      253     4001        /*      NULL_OFFSET and RVA_TYPE table reside immediately after
      254     4002                the unbound RVA */
      255     4003    2           NO$ = PINCRW(RVA$, RVACOUNT + 1); /* NULL_OFFSET pointer */

   4003 48 001030   200006 236100                    LDQ     RVACOUNT,,AUTO
        48 001031   000022 736000                    QLS     18
        48 001032   000001 036003                    ADLQ    1,DU
        48 001033   000001 036000 4                  ADLQ    RVA$
        48 001034   200016 756100                    STQ     NO$,,AUTO

      256     4004    2           TYPE$ = PINCRW(NO$, 1); /* RVA_TYPE pointer */

   4004 48 001035   000001 036003                    ADLQ    1,DU
        48 001036   200015 756100                    STQ     TYPE$,,AUTO

      257     4005    3           DO IX0=1 TO RVACOUNT;

   4005 48 001037   000001 235007                    LDA     1,DL
        48 001040   200010 755100                    STA     IX0,,AUTO
        48 001041   001071 710000 48                 TRA     s:4009+3

      258     4006    3               RVA_TYPE(IX0) = RVA_HALF(2*IX0);

   4006 48 001042   200010 236100                    LDQ     IX0,,AUTO
PL6.E3A0      #001=ZIG$V_DESC File=ZIG$V_DESC.:ZIC0TSI                           FRI 09/05/97 12:18 Page:51
        48 001043   000044 402007                    MPY     36,DL
        48 001044   200010 235100                    LDA     IX0,,AUTO
        48 001045   000001 735000                    ALS     1
        48 001046   000001 470400 4                  LDP0    RVA$
        48 001047   200015 471500                    LDP1    TYPE$,,AUTO
        48 001050   003105 061506                    CSR     bolr='003'O
        48 001051   000000 000022                    BDSC    0,Q,PR0                  by=0,bit=0,n=18
        48 001052   100000 000002                    BDSC    0,A,PR1                  by=0,bit=0,n=2

      259     4007    3               IF RVA_HALF(2*IX0) = 4 THEN

   4007 48 001053   200010 235100                    LDA     IX0,,AUTO
        48 001054   000002 735000                    ALS     2
        48 001055   000100 101505                    MRL     fill='000'O
        48 001056   000000 000002                    ADSC9   0,A,PR0                  cn=0,n=2
        48 001057   200024 000004                    ADSC9   RCID+2,,AUTO             cn=0,n=4
        48 001060   200024 236100                    LDQ     RCID+2,,AUTO
        48 001061   000004 116007                    CMPQ    4,DL
        48 001062   001066 601000 48                 TNZ     s:4009

      260     4008    3                   NULL_OFFSET = IX0;

   4008 48 001063   200016 473500                    LDP3    NO$,,AUTO
        48 001064   200010 236100                    LDQ     IX0,,AUTO
        48 001065   300000 756100                    STQ     0,,PR3

      261     4009    3               END;

   4009 48 001066   200010 236100                    LDQ     IX0,,AUTO
        48 001067   000001 036007                    ADLQ    1,DL
        48 001070   200010 756100                    STQ     IX0,,AUTO
        48 001071   200006 236100                    LDQ     RVACOUNT,,AUTO
        48 001072   200010 116100                    CMPQ    IX0,,AUTO
        48 001073   001042 603000 48                 TRC     s:4006

      262     4010    2           END;

PL6.E3A0      #001=ZIG$V_DESC File=ZIG$V_DESC.:ZIC0TSI                           FRI 09/05/97 12:18 Page:52
      263     4011    1       RVA_KEY.NUMBER_OF = 10001;

   4011 48 001074   023421 235007                    LDA     10001,DL
        48 001075   000001 755000 21                 STA     RVA_KEY+1

      264     4012    1       SPECIAL_KEY = RVA_KEY;

   4012 48 001076   000000 237000 21                 LDAQ    RVA_KEY
        48 001077   000000 757000 15                 STAQ    SUBSCHEMA_KEY

      265     4013    1       CALL ZIG$SS_RVAR;

   4013 48 001100   000003 631400 49                 EPPR1   3
        48 001101   000000 701000 xent               TSX1    ZIG$SS_RVAR
        48 001102   000000 011000                    NOP     0

      266     4014    2       DO WHILE (SUBSTR(LIST_STRING,0,12) ~= '/*/*/*/*/*/*');

   4014 48 001103   001116 710000 48                 TRA     s:4019

      267     4015    2           CALL WRITE_RECORD;

   4015 48 001104   000003 701000 48                 TSX1    WRITE_RECORD
        48 001105   000000 011000                    NOP     0

      268     4016    2           RVA_KEY.NUMBER_OF = RVA_KEY.NUMBER_OF + 1;

   4016 48 001106   000001 235000 21                 LDA     RVA_KEY+1
        48 001107   000001 035007                    ADLA    1,DL
        48 001110   000001 755000 21                 STA     RVA_KEY+1

      269     4017    2           SPECIAL_KEY = RVA_KEY;

   4017 48 001111   000000 237000 21                 LDAQ    RVA_KEY
        48 001112   000000 757000 15                 STAQ    SUBSCHEMA_KEY

      270     4018    2           CALL ZIG$SS_RVAR;
PL6.E3A0      #001=ZIG$V_DESC File=ZIG$V_DESC.:ZIC0TSI                           FRI 09/05/97 12:18 Page:53

   4018 48 001113   000003 631400 49                 EPPR1   3
        48 001114   000000 701000 xent               TSX1    ZIG$SS_RVAR
        48 001115   000000 011000                    NOP     0

      271     4019    2           END;

   4019 48 001116   040000 106400                    CMPC    fill='040'O
        48 001117   000000 000014 0                  ADSC9   LIST_STRING              cn=0,n=12
        48 001120   000152 000014 3                  ADSC9   FORT_INCLUDE_HEAD+106    cn=0,n=12
        48 001121   001104 601000 48                 TNZ     s:4015

      272     4020    1       LIST_STRING = '**';

   4020 48 001122   040000 100400                    MLR     fill='040'O
        48 001123   000020 000002 3                  ADSC9   FORT_INCLUDE_HEAD+16     cn=0,n=2
        48 001124   000000 000200 0                  ADSC9   LIST_STRING              cn=0,n=128

      273     4021    1       CALL WRITE_RECORD;

   4021 48 001125   000003 701000 48                 TSX1    WRITE_RECORD
        48 001126   000000 011000                    NOP     0

      274     4022    1       LIST_STRING = '**    I-D-S/II SPECIAL NAME AREA (SNA)';

   4022 48 001127   040000 100400                    MLR     fill='040'O
        48 001130   000170 000046 3                  ADSC9   FORT_INCLUDE_HEAD+120    cn=0,n=38
        48 001131   000000 000200 0                  ADSC9   LIST_STRING              cn=0,n=128

      275     4023    1       CALL WRITE_RECORD;

   4023 48 001132   000003 701000 48                 TSX1    WRITE_RECORD
        48 001133   000000 011000                    NOP     0

      276     4024    1       LIST_STRING = '**';

   4024 48 001134   040000 100400                    MLR     fill='040'O
PL6.E3A0      #001=ZIG$V_DESC File=ZIG$V_DESC.:ZIC0TSI                           FRI 09/05/97 12:18 Page:54
        48 001135   000020 000002 3                  ADSC9   FORT_INCLUDE_HEAD+16     cn=0,n=2
        48 001136   000000 000200 0                  ADSC9   LIST_STRING              cn=0,n=128

      277     4025    1       CALL WRITE_RECORD;

   4025 48 001137   000003 701000 48                 TSX1    WRITE_RECORD
        48 001140   000000 011000                    NOP     0

      278     4026    1       LIST_STRING = '      COMMON /SNA/ALL,';

   4026 48 001141   040000 100400                    MLR     fill='040'O
        48 001142   000202 000026 3                  ADSC9   FORT_INCLUDE_HEAD+130    cn=0,n=22
        48 001143   000000 000200 0                  ADSC9   LIST_STRING              cn=0,n=128

      279     4027    1       CALL WRITE_RECORD;

   4027 48 001144   000003 701000 48                 TSX1    WRITE_RECORD
        48 001145   000000 011000                    NOP     0

      280     4028    1       LIST_STRING = '     +            ANY,';

   4028 48 001146   040000 100400                    MLR     fill='040'O
        48 001147   000210 000026 3                  ADSC9   FORT_INCLUDE_HEAD+136    cn=0,n=22
        48 001150   000000 000200 0                  ADSC9   LIST_STRING              cn=0,n=128

      281     4029    1       CALL WRITE_RECORD;

   4029 48 001151   000003 701000 48                 TSX1    WRITE_RECORD
        48 001152   000000 011000                    NOP     0

      282     4030    1       LIST_STRING = '     +            CURRENCY,';

   4030 48 001153   040000 100400                    MLR     fill='040'O
        48 001154   000216 000033 3                  ADSC9   FORT_INCLUDE_HEAD+142    cn=0,n=27
        48 001155   000000 000200 0                  ADSC9   LIST_STRING              cn=0,n=128

      283     4031    1       CALL WRITE_RECORD;
PL6.E3A0      #001=ZIG$V_DESC File=ZIG$V_DESC.:ZIC0TSI                           FRI 09/05/97 12:18 Page:55

   4031 48 001156   000003 701000 48                 TSX1    WRITE_RECORD
        48 001157   000000 011000                    NOP     0

      284     4032    1       LIST_STRING = '     +            CURRENT,';

   4032 48 001160   040000 100400                    MLR     fill='040'O
        48 001161   000225 000032 3                  ADSC9   FORT_INCLUDE_HEAD+149    cn=0,n=26
        48 001162   000000 000200 0                  ADSC9   LIST_STRING              cn=0,n=128

      285     4033    1       CALL WRITE_RECORD;

   4033 48 001163   000003 701000 48                 TSX1    WRITE_RECORD
        48 001164   000000 011000                    NOP     0

      286     4034    1       LIST_STRING = '     +            DBKEY,';

   4034 48 001165   040000 100400                    MLR     fill='040'O
        48 001166   000234 000030 3                  ADSC9   FORT_INCLUDE_HEAD+156    cn=0,n=24
        48 001167   000000 000200 0                  ADSC9   LIST_STRING              cn=0,n=128

      287     4035    1       CALL WRITE_RECORD;

   4035 48 001170   000003 701000 48                 TSX1    WRITE_RECORD
        48 001171   000000 011000                    NOP     0

      288     4036    1       LIST_STRING = '     +            DUPLICATE,';

   4036 48 001172   040000 100400                    MLR     fill='040'O
        48 001173   000242 000034 3                  ADSC9   FORT_INCLUDE_HEAD+162    cn=0,n=28
        48 001174   000000 000200 0                  ADSC9   LIST_STRING              cn=0,n=128

      289     4037    1       CALL WRITE_RECORD;

   4037 48 001175   000003 701000 48                 TSX1    WRITE_RECORD
        48 001176   000000 011000                    NOP     0

PL6.E3A0      #001=ZIG$V_DESC File=ZIG$V_DESC.:ZIC0TSI                           FRI 09/05/97 12:18 Page:56
      290     4038    1       LIST_STRING = '     +            FIRST,';

   4038 48 001177   040000 100400                    MLR     fill='040'O
        48 001200   000251 000030 3                  ADSC9   FORT_INCLUDE_HEAD+169    cn=0,n=24
        48 001201   000000 000200 0                  ADSC9   LIST_STRING              cn=0,n=128

      291     4039    1       CALL WRITE_RECORD;

   4039 48 001202   000003 701000 48                 TSX1    WRITE_RECORD
        48 001203   000000 011000                    NOP     0

      292     4040    1       LIST_STRING = '     +            INCLUDING,';

   4040 48 001204   040000 100400                    MLR     fill='040'O
        48 001205   000257 000034 3                  ADSC9   FORT_INCLUDE_HEAD+175    cn=0,n=28
        48 001206   000000 000200 0                  ADSC9   LIST_STRING              cn=0,n=128

      293     4041    1       CALL WRITE_RECORD;

   4041 48 001207   000003 701000 48                 TSX1    WRITE_RECORD
        48 001210   000000 011000                    NOP     0

      294     4042    1       LIST_STRING = '     +            ITEM,';

   4042 48 001211   040000 100400                    MLR     fill='040'O
        48 001212   000266 000027 3                  ADSC9   FORT_INCLUDE_HEAD+182    cn=0,n=23
        48 001213   000000 000200 0                  ADSC9   LIST_STRING              cn=0,n=128

      295     4043    1       CALL WRITE_RECORD;

   4043 48 001214   000003 701000 48                 TSX1    WRITE_RECORD
        48 001215   000000 011000                    NOP     0

      296     4044    1       LIST_STRING = '     +            LAST,';

   4044 48 001216   040000 100400                    MLR     fill='040'O
        48 001217   000274 000027 3                  ADSC9   FORT_INCLUDE_HEAD+188    cn=0,n=23
PL6.E3A0      #001=ZIG$V_DESC File=ZIG$V_DESC.:ZIC0TSI                           FRI 09/05/97 12:18 Page:57
        48 001220   000000 000200 0                  ADSC9   LIST_STRING              cn=0,n=128

      297     4045    1       CALL WRITE_RECORD;

   4045 48 001221   000003 701000 48                 TSX1    WRITE_RECORD
        48 001222   000000 011000                    NOP     0

      298     4046    1       LIST_STRING = '     +            LOAD,';

   4046 48 001223   040000 100400                    MLR     fill='040'O
        48 001224   000302 000027 3                  ADSC9   FORT_INCLUDE_HEAD+194    cn=0,n=23
        48 001225   000000 000200 0                  ADSC9   LIST_STRING              cn=0,n=128

      299     4047    1       CALL WRITE_RECORD;

   4047 48 001226   000003 701000 48                 TSX1    WRITE_RECORD
        48 001227   000000 011000                    NOP     0

      300     4048    1       LIST_STRING = '     +            NEXT,';

   4048 48 001230   040000 100400                    MLR     fill='040'O
        48 001231   000310 000027 3                  ADSC9   FORT_INCLUDE_HEAD+200    cn=0,n=23
        48 001232   000000 000200 0                  ADSC9   LIST_STRING              cn=0,n=128

      301     4049    1       CALL WRITE_RECORD;

   4049 48 001233   000003 701000 48                 TSX1    WRITE_RECORD
        48 001234   000000 011000                    NOP     0

      302     4050    1       LIST_STRING = '     +            NOSHARE,';

   4050 48 001235   040000 100400                    MLR     fill='040'O
        48 001236   000316 000032 3                  ADSC9   FORT_INCLUDE_HEAD+206    cn=0,n=26
        48 001237   000000 000200 0                  ADSC9   LIST_STRING              cn=0,n=128

      303     4051    1       CALL WRITE_RECORD;

PL6.E3A0      #001=ZIG$V_DESC File=ZIG$V_DESC.:ZIC0TSI                           FRI 09/05/97 12:18 Page:58
   4051 48 001240   000003 701000 48                 TSX1    WRITE_RECORD
        48 001241   000000 011000                    NOP     0

      304     4052    1       LIST_STRING = '     +            ONLY,';

   4052 48 001242   040000 100400                    MLR     fill='040'O
        48 001243   000325 000027 3                  ADSC9   FORT_INCLUDE_HEAD+213    cn=0,n=23
        48 001244   000000 000200 0                  ADSC9   LIST_STRING              cn=0,n=128

      305     4053    1       CALL WRITE_RECORD;

   4053 48 001245   000003 701000 48                 TSX1    WRITE_RECORD
        48 001246   000000 011000                    NOP     0

      306     4054    1       LIST_STRING = '     +            OWNER,';

   4054 48 001247   040000 100400                    MLR     fill='040'O
        48 001250   000333 000030 3                  ADSC9   FORT_INCLUDE_HEAD+219    cn=0,n=24
        48 001251   000000 000200 0                  ADSC9   LIST_STRING              cn=0,n=128

      307     4055    1       CALL WRITE_RECORD;

   4055 48 001252   000003 701000 48                 TSX1    WRITE_RECORD
        48 001253   000000 011000                    NOP     0

      308     4056    1       LIST_STRING = '     +            PRIOR,';

   4056 48 001254   040000 100400                    MLR     fill='040'O
        48 001255   000341 000030 3                  ADSC9   FORT_INCLUDE_HEAD+225    cn=0,n=24
        48 001256   000000 000200 0                  ADSC9   LIST_STRING              cn=0,n=128

      309     4057    1       CALL WRITE_RECORD;

   4057 48 001257   000003 701000 48                 TSX1    WRITE_RECORD
        48 001260   000000 011000                    NOP     0

      310     4058    1       LIST_STRING = '     +            REALM,';
PL6.E3A0      #001=ZIG$V_DESC File=ZIG$V_DESC.:ZIC0TSI                           FRI 09/05/97 12:18 Page:59

   4058 48 001261   040000 100400                    MLR     fill='040'O
        48 001262   000347 000030 3                  ADSC9   FORT_INCLUDE_HEAD+231    cn=0,n=24
        48 001263   000000 000200 0                  ADSC9   LIST_STRING              cn=0,n=128

      311     4059    1       CALL WRITE_RECORD;

   4059 48 001264   000003 701000 48                 TSX1    WRITE_RECORD
        48 001265   000000 011000                    NOP     0

      312     4060    1       LIST_STRING = '     +            REALMNAME,';

   4060 48 001266   040000 100400                    MLR     fill='040'O
        48 001267   000355 000034 3                  ADSC9   FORT_INCLUDE_HEAD+237    cn=0,n=28
        48 001270   000000 000200 0                  ADSC9   LIST_STRING              cn=0,n=128

      313     4061    1       CALL WRITE_RECORD;

   4061 48 001271   000003 701000 48                 TSX1    WRITE_RECORD
        48 001272   000000 011000                    NOP     0

      314     4062    1       LIST_STRING = '     +            RECORD,';

   4062 48 001273   040000 100400                    MLR     fill='040'O
        48 001274   000364 000031 3                  ADSC9   FORT_INCLUDE_HEAD+244    cn=0,n=25
        48 001275   000000 000200 0                  ADSC9   LIST_STRING              cn=0,n=128

      315     4063    1       CALL WRITE_RECORD;

   4063 48 001276   000003 701000 48                 TSX1    WRITE_RECORD
        48 001277   000000 011000                    NOP     0

      316     4064    1       LIST_STRING = '     +            RETRIEVAL,';

   4064 48 001300   040000 100400                    MLR     fill='040'O
        48 001301   000373 000034 3                  ADSC9   FORT_INCLUDE_HEAD+251    cn=0,n=28
        48 001302   000000 000200 0                  ADSC9   LIST_STRING              cn=0,n=128
PL6.E3A0      #001=ZIG$V_DESC File=ZIG$V_DESC.:ZIC0TSI                           FRI 09/05/97 12:18 Page:60

      317     4065    1       CALL WRITE_RECORD;

   4065 48 001303   000003 701000 48                 TSX1    WRITE_RECORD
        48 001304   000000 011000                    NOP     0

      318     4066    1       LIST_STRING = '     +            SET,';

   4066 48 001305   040000 100400                    MLR     fill='040'O
        48 001306   000402 000026 3                  ADSC9   FORT_INCLUDE_HEAD+258    cn=0,n=22
        48 001307   000000 000200 0                  ADSC9   LIST_STRING              cn=0,n=128

      319     4067    1       CALL WRITE_RECORD;

   4067 48 001310   000003 701000 48                 TSX1    WRITE_RECORD
        48 001311   000000 011000                    NOP     0

      320     4068    1       LIST_STRING = '     +            SETS,';

   4068 48 001312   040000 100400                    MLR     fill='040'O
        48 001313   000410 000027 3                  ADSC9   FORT_INCLUDE_HEAD+264    cn=0,n=23
        48 001314   000000 000200 0                  ADSC9   LIST_STRING              cn=0,n=128

      321     4069    1       CALL WRITE_RECORD;

   4069 48 001315   000003 701000 48                 TSX1    WRITE_RECORD
        48 001316   000000 011000                    NOP     0

      322     4070    1       LIST_STRING = '     +            SHARE,';

   4070 48 001317   040000 100400                    MLR     fill='040'O
        48 001320   000416 000030 3                  ADSC9   FORT_INCLUDE_HEAD+270    cn=0,n=24
        48 001321   000000 000200 0                  ADSC9   LIST_STRING              cn=0,n=128

      323     4071    1       CALL WRITE_RECORD;

   4071 48 001322   000003 701000 48                 TSX1    WRITE_RECORD
PL6.E3A0      #001=ZIG$V_DESC File=ZIG$V_DESC.:ZIC0TSI                           FRI 09/05/97 12:18 Page:61
        48 001323   000000 011000                    NOP     0

      324     4072    1       LIST_STRING = '     +            SHAREANY,';

   4072 48 001324   040000 100400                    MLR     fill='040'O
        48 001325   000424 000033 3                  ADSC9   FORT_INCLUDE_HEAD+276    cn=0,n=27
        48 001326   000000 000200 0                  ADSC9   LIST_STRING              cn=0,n=128

      325     4073    1       CALL WRITE_RECORD;

   4073 48 001327   000003 701000 48                 TSX1    WRITE_RECORD
        48 001330   000000 011000                    NOP     0

      326     4074    1       LIST_STRING = '     +            SHAREIN,';

   4074 48 001331   040000 100400                    MLR     fill='040'O
        48 001332   000433 000032 3                  ADSC9   FORT_INCLUDE_HEAD+283    cn=0,n=26
        48 001333   000000 000200 0                  ADSC9   LIST_STRING              cn=0,n=128

      327     4075    1       CALL WRITE_RECORD;

   4075 48 001334   000003 701000 48                 TSX1    WRITE_RECORD
        48 001335   000000 011000                    NOP     0

      328     4076    1       LIST_STRING = '     +            UPDATE,';

   4076 48 001336   040000 100400                    MLR     fill='040'O
        48 001337   000442 000031 3                  ADSC9   FORT_INCLUDE_HEAD+290    cn=0,n=25
        48 001340   000000 000200 0                  ADSC9   LIST_STRING              cn=0,n=128

      329     4077    1       CALL WRITE_RECORD;

   4077 48 001341   000003 701000 48                 TSX1    WRITE_RECORD
        48 001342   000000 011000                    NOP     0

      330     4078    1       LIST_STRING = '     +            USING,';

PL6.E3A0      #001=ZIG$V_DESC File=ZIG$V_DESC.:ZIC0TSI                           FRI 09/05/97 12:18 Page:62
   4078 48 001343   040000 100400                    MLR     fill='040'O
        48 001344   000451 000030 3                  ADSC9   FORT_INCLUDE_HEAD+297    cn=0,n=24
        48 001345   000000 000200 0                  ADSC9   LIST_STRING              cn=0,n=128

      331     4079    1       CALL WRITE_RECORD;

   4079 48 001346   000003 701000 48                 TSX1    WRITE_RECORD
        48 001347   000000 011000                    NOP     0

      332     4080    1       LIST_STRING = '     +            WITHIN,';

   4080 48 001350   040000 100400                    MLR     fill='040'O
        48 001351   000457 000031 3                  ADSC9   FORT_INCLUDE_HEAD+303    cn=0,n=25
        48 001352   000000 000200 0                  ADSC9   LIST_STRING              cn=0,n=128

      333     4081    1       CALL WRITE_RECORD;

   4081 48 001353   000003 701000 48                 TSX1    WRITE_RECORD
        48 001354   000000 011000                    NOP     0

      334     4082    1       LIST_STRING = '     +            SHCUR,';

   4082 48 001355   040000 100400                    MLR     fill='040'O
        48 001356   000466 000030 3                  ADSC9   FORT_INCLUDE_HEAD+310    cn=0,n=24
        48 001357   000000 000200 0                  ADSC9   LIST_STRING              cn=0,n=128

      335     4083    1       CALL WRITE_RECORD;

   4083 48 001360   000003 701000 48                 TSX1    WRITE_RECORD
        48 001361   000000 011000                    NOP     0

      336     4084    1       LIST_STRING = '     +            SHINCUR';

   4084 48 001362   040000 100400                    MLR     fill='040'O
        48 001363   000474 000031 3                  ADSC9   FORT_INCLUDE_HEAD+316    cn=0,n=25
        48 001364   000000 000200 0                  ADSC9   LIST_STRING              cn=0,n=128

PL6.E3A0      #001=ZIG$V_DESC File=ZIG$V_DESC.:ZIC0TSI                           FRI 09/05/97 12:18 Page:63
      337     4085    1       CALL WRITE_RECORD;

   4085 48 001365   000003 701000 48                 TSX1    WRITE_RECORD
        48 001366   000000 011000                    NOP     0

      338     4086    2       IF VALIDS.GEN_RVA THEN DO;

   4086 48 001367   000000 236000 32                 LDQ     VALIDS
        48 001370   000002 316003                    CANQ    2,DU
        48 001371   001450 600000 48                 TZE     s:4110

      339     4087        /*  Before returning, bind the RVA and close up the shared data
      340     4088            segment file  */
      341     4089    2           RVACOUNT = RVA.W1.COUNT-1;

   4089 48 001372   000001 470400 4                  LDP0    RVA$
        48 001373   000000 236100                    LDQ     0,,PR0
        48 001374   000022 772000                    QRL     18
        48 001375   377777 376007                    ANQ     131071,DL
        48 001376   000001 136007                    SBLQ    1,DL
        48 001377   200006 756100                    STQ     RVACOUNT,,AUTO

      342     4090    2           FPT_CLOSE.V.DCB# = SDSDCB;

   4090 48 001400   000156 720000 4                  LXL0    SDSDCB
        48 001401   000136 740000 4                  STX0    FPT_CLOSE+26

      343     4091    3           DO IX1=0 TO RVACOUNT;

   4091 48 001402   200011 450100                    STZ     IX1,,AUTO
        48 001403   001440 710000 48                 TRA     s:4106+3

      344     4092    3               GLOBAL.TYPE=RVA.RVE.T(IX1);

   4092 48 001404   000001 470400 4                  LDP0    RVA$
        48 001405   200011 720100                    LXL0    IX1,,AUTO
        48 001406   000001 221110                    LDX1    1,X0,PR0
PL6.E3A0      #001=ZIG$V_DESC File=ZIG$V_DESC.:ZIC0TSI                           FRI 09/05/97 12:18 Page:64
        48 001407   000157 741000 4                  STX1    GLOBAL

      345     4093    3               GLOBAL.ID=RVA.RVE.NAME(IX1);

   4093 48 001410   000001 722110                    LXL2    1,X0,PR0
        48 001411   000157 442000 4                  SXL2    GLOBAL

      346     4094    3               CALL ZIG$DBFSE

   4094 48 001412   001451 701000 48                 TSX1    ZIG$DBFSE
        48 001413   001415 702000 48                 TSX2    s:4096
        48 001414   001431 710000 48                 TRA     s:4105

      347     4095    4               WHENALTRETURN DO;

      348     4096    4                   FPT_CLOSE.V.DISP# = %RELEASE#;

   4096 48 001415   000001 236007                    LDQ     1,DL
        48 001416   000136 552004 4                  STBQ    FPT_CLOSE+26,'04'O

      349     4097    4                   CALL M$CLOSE(FPT_CLOSE);

   4097 48 001417   000104 630400 4                  EPPR0   FPT_CLOSE
        48 001420   050001 713400                    CLIMB   close
        48 001421   406000 401760                    pmme    nvectors=13

      350     4098    4                   CALL ERROR(%ZIG_V_NO_RVA_ENTRY);

   4098 48 001422   000022 630400 49                 EPPR0   18
        48 001423   000000 631400 49                 EPPR1   0
        48 001424   000000 701000 xent               TSX1    ERROR
        48 001425   000000 011000                    NOP     0

      351     4099    4                   CALL ABORT;

   4099 48 001426   000003 631400 49                 EPPR1   3
        48 001427   000000 701000 xent               TSX1    ABORT
PL6.E3A0      #001=ZIG$V_DESC File=ZIG$V_DESC.:ZIC0TSI                           FRI 09/05/97 12:18 Page:65
        48 001430   000000 011000                    NOP     0

      352     4100        /*E*     ERROR:     ZIG-ZIG_V_NO_RVA_ENTRY-C
      353     4101        MESSAGE: Problem encountered while building the RVA shared data
      354     4102                 segment file.  An RVA entry could not be found.
      355     4103        */
      356     4104    4                   END;

      357     4105    3               RVA.RVE.EO(IX1)=GLOBAL.SSOFST;

   4105 48 001431   000160 220000 4                  LDX0    GLOBAL+1
        48 001432   000001 470400 4                  LDP0    RVA$
        48 001433   200011 721100                    LXL1    IX1,,AUTO
        48 001434   000001 740111                    STX0    1,X1,PR0

      358     4106    3               END;

   4106 48 001435   200011 235100                    LDA     IX1,,AUTO
        48 001436   000001 035007                    ADLA    1,DL
        48 001437   200011 755100                    STA     IX1,,AUTO
        48 001440   200006 236100                    LDQ     RVACOUNT,,AUTO
        48 001441   200011 116100                    CMPQ    IX1,,AUTO
        48 001442   001404 603000 48                 TRC     s:4092

      359     4107    2           RVA.W1.BOUND=1;

   4107 48 001443   400000 236003                    LDQ     -131072,DU
        48 001444   000000 256100                    ORSQ    0,,PR0

      360     4108    2           CALL M$CLOSE(FPT_CLOSE);

   4108 48 001445   000104 630400 4                  EPPR0   FPT_CLOSE
        48 001446   050001 713400                    CLIMB   close
        48 001447   406000 401760                    pmme    nvectors=13

      361     4109    2           END;

PL6.E3A0      #001=ZIG$V_DESC File=ZIG$V_DESC.:ZIC0TSI                           FRI 09/05/97 12:18 Page:66
      362     4110    1       RETURN;

   4110 48 001450   000000 702200 xent               TSX2  ! X66_ARET

      363     4111        %EJECT;
PL6.E3A0      #001=ZIG$V_DESC File=ZIG$V_DESC.:ZIC0TSI                           FRI 09/05/97 12:18 Page:67
      364     4112    1   ZIG$DBFSE: PROC ALTRET;

   4112 48 001451   200020 741300       ZIG$DBFSE    STX1  ! NO$+2,,AUTO

      365     4113        %INCLUDE ZIG_SSS;
      366     4683         %SS_GENERAL(PSTCLASS=EXT);
      367     4704         %OA1(PSTCLASS=EXT);
      368     4712         %OA(PSTCLASS=EXT);
      369     4779         %AC(PSTCLASS=EXT);
      370     4874         %RC(PSTCLASS=EXT);
      371     4907         %SC(PSTCLASS=EXT);
      372     4934         %FR(PSTCLASS=EXT);
      373     4980
      374     4981    2   DCL ERROR UBIN;
      375     4982    2   DCL RCID UBIN(18);
      376     4983    2       ERROR=1;

   4983 48 001452   000001 235007                    LDA     1,DL
        48 001453   200021 755100                    STA     ERROR,,AUTO

      377     4984    3       DO CASE (GLOBAL.TYPE);

   4984 48 001454   000157 220000 4                  LDX0    GLOBAL
        48 001455   000006 100003                    CMPX0   6,DU
        48 001456   001460 602010 48                 TNC     s:4984+4,X0
        48 001457   001744 710000 48                 TRA     s:5051
        48 001460   001466 710000 48                 TRA     s:4986
        48 001461   001526 710000 48                 TRA     s:4997
        48 001462   001566 710000 48                 TRA     s:5008
        48 001463   001626 710000 48                 TRA     s:5019
        48 001464   001725 710000 48                 TRA     s:5041
        48 001465   001732 710000 48                 TRA     s:5045

      378     4985    3       CASE(0);

      379     4986    3           AC$=PINCRW(SSS$,SIZEW(OA1));

PL6.E3A0      #001=ZIG$V_DESC File=ZIG$V_DESC.:ZIC0TSI                           FRI 09/05/97 12:18 Page:68
   4986 48 001466   000000 236000 41                 LDQ     SSS$
        48 001467   000001 036003                    ADLQ    1,DU
        48 001470   000000 756000 44                 STQ     AC$

      380     4987    4           DO WHILE (AC.OAACN~=0 AND ERROR=1);

   4987 48 001471   001517 710000 48                 TRA     s:4995

      381     4988    4               AC$=PINCRW(SSS$,AC.OAACN);

   4988 48 001472   000000 470400 44                 LDP0    AC$
        48 001473   000001 220100                    LDX0    1,,PR0
        48 001474   000000 636010                    EAQ     0,X0
        48 001475   000000 036000 41                 ADLQ    SSS$
        48 001476   000000 756000 44                 STQ     AC$

      382     4989    4               IF GLOBAL.ID=AC.ACID THEN

   4989 48 001477   000000 470400 44                 LDP0    AC$
        48 001500   000157 236000 4                  LDQ     GLOBAL
        48 001501   000003 676100                    ERQ     3,,PR0
        48 001502   777777 376007                    ANQ     -1,DL
        48 001503   001517 601000 48                 TNZ     s:4995

      383     4990    5               DO;

      384     4991    5                   GLOBAL.SSOFST=POFFW(AC$,SSS$);

   4991 48 001504   000000 235000 41                 LDA     SSS$
        48 001505   000022 771000                    ARL     18
        48 001506   200024 755100                    STA     RCID+2,,AUTO
        48 001507   000000 236000 44                 LDQ     AC$
        48 001510   000022 772000                    QRL     18
        48 001511   200024 136100                    SBLQ    RCID+2,,AUTO
        48 001512   000000 620006                    EAX0    0,QL
        48 001513   000160 740000 4                  STX0    GLOBAL+1

PL6.E3A0      #001=ZIG$V_DESC File=ZIG$V_DESC.:ZIC0TSI                           FRI 09/05/97 12:18 Page:69
      385     4992    5                   GLOBAL.WSOFST=AC.WSOF;

   4992 48 001514   000003 221100                    LDX1    3,,PR0
        48 001515   000160 441000 4                  SXL1    GLOBAL+1

      386     4993    5                   ERROR=0;

   4993 48 001516   200021 450100                    STZ     ERROR,,AUTO

      387     4994    5                   END;

      388     4995    4               END;

   4995 48 001517   000000 470400 44                 LDP0    AC$
        48 001520   000001 220100                    LDX0    1,,PR0
        48 001521   001525 600000 48                 TZE     s:4995+6
        48 001522   200021 235100                    LDA     ERROR,,AUTO
        48 001523   000001 115007                    CMPA    1,DL
        48 001524   001472 600000 48                 TZE     s:4988
        48 001525   001744 710000 48                 TRA     s:5051

      389     4996    3       CASE(1);

      390     4997    3           SC$=PINCRW(SSS$,SIZEW(OA1));

   4997 48 001526   000000 236000 41                 LDQ     SSS$
        48 001527   000001 036003                    ADLQ    1,DU
        48 001530   000000 756000 46                 STQ     SC$

      391     4998    4           DO WHILE (SC.OASCN~=0 AND ERROR=1);

   4998 48 001531   001557 710000 48                 TRA     s:5006

      392     4999    4               SC$=PINCRW(SSS$,SC.OASCN);

   4999 48 001532   000000 470400 46                 LDP0    SC$
        48 001533   000001 720100                    LXL0    1,,PR0
PL6.E3A0      #001=ZIG$V_DESC File=ZIG$V_DESC.:ZIC0TSI                           FRI 09/05/97 12:18 Page:70
        48 001534   000000 636010                    EAQ     0,X0
        48 001535   000000 036000 41                 ADLQ    SSS$
        48 001536   000000 756000 46                 STQ     SC$

      393     5000    4               IF GLOBAL.ID=SC.SCID THEN

   5000 48 001537   000000 470400 46                 LDP0    SC$
        48 001540   000157 236000 4                  LDQ     GLOBAL
        48 001541   000002 676100                    ERQ     2,,PR0
        48 001542   777777 376007                    ANQ     -1,DL
        48 001543   001557 601000 48                 TNZ     s:5006

      394     5001    5               DO;

      395     5002    5                   GLOBAL.SSOFST=POFFW(SC$,SSS$);

   5002 48 001544   000000 235000 41                 LDA     SSS$
        48 001545   000022 771000                    ARL     18
        48 001546   200024 755100                    STA     RCID+2,,AUTO
        48 001547   000000 236000 46                 LDQ     SC$
        48 001550   000022 772000                    QRL     18
        48 001551   200024 136100                    SBLQ    RCID+2,,AUTO
        48 001552   000000 620006                    EAX0    0,QL
        48 001553   000160 740000 4                  STX0    GLOBAL+1

      396     5003    5                   GLOBAL.WSOFST=SC.SCWSO;

   5003 48 001554   000001 221100                    LDX1    1,,PR0
        48 001555   000160 441000 4                  SXL1    GLOBAL+1

      397     5004    5                   ERROR=0;

   5004 48 001556   200021 450100                    STZ     ERROR,,AUTO

      398     5005    5                   END;

      399     5006    4               END;
PL6.E3A0      #001=ZIG$V_DESC File=ZIG$V_DESC.:ZIC0TSI                           FRI 09/05/97 12:18 Page:71

   5006 48 001557   000000 470400 46                 LDP0    SC$
        48 001560   000001 720100                    LXL0    1,,PR0
        48 001561   001565 600000 48                 TZE     s:5006+6
        48 001562   200021 235100                    LDA     ERROR,,AUTO
        48 001563   000001 115007                    CMPA    1,DL
        48 001564   001532 600000 48                 TZE     s:4999
        48 001565   001744 710000 48                 TRA     s:5051

      400     5007    3       CASE(2);

      401     5008    3           RC$=PINCRW(SSS$,SIZEW(OA1));

   5008 48 001566   000000 236000 41                 LDQ     SSS$
        48 001567   000001 036003                    ADLQ    1,DU
        48 001570   000000 756000 45                 STQ     RC$

      402     5009    4           DO WHILE (RC.OARCN~=0 AND ERROR=1);

   5009 48 001571   001617 710000 48                 TRA     s:5017

      403     5010    4               RC$=PINCRW(SSS$,RC.OARCN);

   5010 48 001572   000000 470400 45                 LDP0    RC$
        48 001573   000002 220100                    LDX0    2,,PR0
        48 001574   000000 636010                    EAQ     0,X0
        48 001575   000000 036000 41                 ADLQ    SSS$
        48 001576   000000 756000 45                 STQ     RC$

      404     5011    4               IF GLOBAL.ID=RC.RCID THEN

   5011 48 001577   000000 470400 45                 LDP0    RC$
        48 001600   000157 236000 4                  LDQ     GLOBAL
        48 001601   000001 676100                    ERQ     1,,PR0
        48 001602   777777 376007                    ANQ     -1,DL
        48 001603   001617 601000 48                 TNZ     s:5017

PL6.E3A0      #001=ZIG$V_DESC File=ZIG$V_DESC.:ZIC0TSI                           FRI 09/05/97 12:18 Page:72
      405     5012    5               DO;

      406     5013    5                   GLOBAL.SSOFST=POFFW(RC$,SSS$);

   5013 48 001604   000000 235000 41                 LDA     SSS$
        48 001605   000022 771000                    ARL     18
        48 001606   200024 755100                    STA     RCID+2,,AUTO
        48 001607   000000 236000 45                 LDQ     RC$
        48 001610   000022 772000                    QRL     18
        48 001611   200024 136100                    SBLQ    RCID+2,,AUTO
        48 001612   000000 620006                    EAX0    0,QL
        48 001613   000160 740000 4                  STX0    GLOBAL+1

      407     5014    5                   GLOBAL.WSOFST=RC.RCWSO;

   5014 48 001614   000004 221100                    LDX1    4,,PR0
        48 001615   000160 441000 4                  SXL1    GLOBAL+1

      408     5015    5                   ERROR=0;

   5015 48 001616   200021 450100                    STZ     ERROR,,AUTO

      409     5016    5                   END;

      410     5017    4               END;

   5017 48 001617   000000 470400 45                 LDP0    RC$
        48 001620   000002 220100                    LDX0    2,,PR0
        48 001621   001625 600000 48                 TZE     s:5017+6
        48 001622   200021 235100                    LDA     ERROR,,AUTO
        48 001623   000001 115007                    CMPA    1,DL
        48 001624   001572 600000 48                 TZE     s:5010
        48 001625   001744 710000 48                 TRA     s:5051

      411     5018    3       CASE(3);

      412     5019    3           RC$=PINCRW(SSS$,SIZEW(OA1));
PL6.E3A0      #001=ZIG$V_DESC File=ZIG$V_DESC.:ZIC0TSI                           FRI 09/05/97 12:18 Page:73

   5019 48 001626   000000 236000 41                 LDQ     SSS$
        48 001627   000001 036003                    ADLQ    1,DU
        48 001630   000000 756000 45                 STQ     RC$

      413     5020    4           DO WHILE (RC.OARCN~=0 AND ERROR=1);

   5020 48 001631   001716 710000 48                 TRA     NEXTRC

      414     5021    4               RC$=PINCRW(SSS$,RC.OARCN);

   5021 48 001632   000000 470400 45                 LDP0    RC$
        48 001633   000002 220100                    LDX0    2,,PR0
        48 001634   000000 636010                    EAQ     0,X0
        48 001635   000000 036000 41                 ADLQ    SSS$
        48 001636   000000 756000 45                 STQ     RC$

      415     5022    5               IF RC.OARCN~=0 THEN DO;

   5022 48 001637   000000 470400 45                 LDP0    RC$
        48 001640   000002 220100                    LDX0    2,,PR0
        48 001641   001652 600000 48                 TZE     s:5028

      416     5023    5                   RCID=PINCRW(SSS$,RC.OARCN)->RC.RCID;

   5023 48 001642   000000 471400 41                 LDP1    SSS$
        48 001643   100001 721110                    LXL1    1,X0,PR1
        48 001644   200022 741100                    STX1    RCID,,AUTO

      417     5024    5                   IF RCID~=0 AND

   5024 48 001645   001652 600000 48                 TZE     s:5028
        48 001646   000157 722000 4                  LXL2    GLOBAL
        48 001647   200022 102100                    CMPX2   RCID,,AUTO
        48 001650   001652 600000 48                 TZE     s:5028
        48 001651   001716 603000 48                 TRC     NEXTRC

PL6.E3A0      #001=ZIG$V_DESC File=ZIG$V_DESC.:ZIC0TSI                           FRI 09/05/97 12:18 Page:74
      418     5025    5                      GLOBAL.ID>RCID THEN
      419     5026    5                       GOTO NEXTRC;
      420     5027    5                   END;

      421     5028    4               FR$=RC$;

   5028 48 001652   000000 756000 47                 STQ     FR$

      422     5029    5               DO WHILE (FR.RCFRN~=0 AND ERROR=1);

   5029 48 001653   001710 710000 48                 TRA     s:5038

      423     5030    5                   FR$=PINCRW(SSS$,FR.RCFRN);

   5030 48 001654   000000 470400 47                 LDP0    FR$
        48 001655   000004 720100                    LXL0    4,,PR0
        48 001656   000000 636010                    EAQ     0,X0
        48 001657   000000 036000 41                 ADLQ    SSS$
        48 001660   000000 756000 47                 STQ     FR$

      424     5031    5                   IF FR.DEF.SYN='0'B AND

   5031 48 001661   000000 470400 47                 LDP0    FR$
        48 001662   000000 236100                    LDQ     0,,PR0
        48 001663   004000 316007                    CANQ    2048,DL
        48 001664   001710 601000 48                 TNZ     s:5038
        48 001665   000002 236100                    LDQ     2,,PR0
        48 001666   000017 772000                    QRL     15
        48 001667   777777 376007                    ANQ     -1,DL
        48 001670   200024 756100                    STQ     RCID+2,,AUTO
        48 001671   000157 236000 4                  LDQ     GLOBAL
        48 001672   777777 376007                    ANQ     -1,DL
        48 001673   200024 116100                    CMPQ    RCID+2,,AUTO
        48 001674   001710 601000 48                 TNZ     s:5038

      425     5032    5                      GLOBAL.ID=FR.UOFST.EIS.FRID THEN
      426     5033    6                   DO;
PL6.E3A0      #001=ZIG$V_DESC File=ZIG$V_DESC.:ZIC0TSI                           FRI 09/05/97 12:18 Page:75

      427     5034    6                       GLOBAL.SSOFST=POFFW(FR$,SSS$);

   5034 48 001675   000000 235000 41                 LDA     SSS$
        48 001676   000022 771000                    ARL     18
        48 001677   200024 755100                    STA     RCID+2,,AUTO
        48 001700   000000 236000 47                 LDQ     FR$
        48 001701   000022 772000                    QRL     18
        48 001702   200024 136100                    SBLQ    RCID+2,,AUTO
        48 001703   000000 620006                    EAX0    0,QL
        48 001704   000160 740000 4                  STX0    GLOBAL+1

      428     5035    6                       GLOBAL.WSOFST=FR.FRWSO;

   5035 48 001705   000005 721100                    LXL1    5,,PR0
        48 001706   000160 441000 4                  SXL1    GLOBAL+1

      429     5036    6                       ERROR=0;

   5036 48 001707   200021 450100                    STZ     ERROR,,AUTO

      430     5037    6                       END;

      431     5038    5                   END;

   5038 48 001710   000000 470400 47                 LDP0    FR$
        48 001711   000004 720100                    LXL0    4,,PR0
        48 001712   001716 600000 48                 TZE     NEXTRC
        48 001713   200021 235100                    LDA     ERROR,,AUTO
        48 001714   000001 115007                    CMPA    1,DL
        48 001715   001654 600000 48                 TZE     s:5030

      432     5039    4   NEXTRC:     END;

   5039 48 001716   000000 470400 45    NEXTRC       LDP0    RC$
        48 001717   000002 220100                    LDX0    2,,PR0
        48 001720   001724 600000 48                 TZE     NEXTRC+6
PL6.E3A0      #001=ZIG$V_DESC File=ZIG$V_DESC.:ZIC0TSI                           FRI 09/05/97 12:18 Page:76
        48 001721   200021 235100                    LDA     ERROR,,AUTO
        48 001722   000001 115007                    CMPA    1,DL
        48 001723   001632 600000 48                 TZE     s:5021
        48 001724   001744 710000 48                 TRA     s:5051

      433     5040    3       CASE(4);

      434     5041    3           GLOBAL.SSOFST=0;

   5041 48 001725   000000 222003                    LDX2    0,DU
        48 001726   000160 742000 4                  STX2    GLOBAL+1

      435     5042    3           GLOBAL.WSOFST=0;

   5042 48 001727   000160 442000 4                  SXL2    GLOBAL+1

      436     5043    3           ERROR=0;

   5043 48 001730   200021 450100                    STZ     ERROR,,AUTO
        48 001731   001744 710000 48                 TRA     s:5051

      437     5044    3       CASE(5);

      438     5045    3           OA$=PINCRW(SSS$,SIZEW(OA1));

   5045 48 001732   000000 236000 41                 LDQ     SSS$
        48 001733   000001 036003                    ADLQ    1,DU
        48 001734   000000 756000 43                 STQ     OA$

      439     5046    3           GLOBAL.SSOFST=OA.CLCSC;

   5046 48 001735   000000 470400 43                 LDP0    OA$
        48 001736   000003 222100                    LDX2    3,,PR0
        48 001737   000160 742000 4                  STX2    GLOBAL+1

      440     5047    3           GLOBAL.WSOFST=

PL6.E3A0      #001=ZIG$V_DESC File=ZIG$V_DESC.:ZIC0TSI                           FRI 09/05/97 12:18 Page:77
   5047 48 001740   000000 471400 41                 LDP1    SSS$
        48 001741   100001 223112                    LDX3    1,X2,PR1
        48 001742   000160 443000 4                  SXL3    GLOBAL+1

      441     5048    3              PINCRW(SSS$,GLOBAL.SSOFST)->SC.SCWSO;
      442     5049    3           ERROR=0;

   5049 48 001743   200021 450100                    STZ     ERROR,,AUTO

      443     5050    3           END;

      444     5051    2       IF ERROR=0 THEN

   5051 48 001744   200021 235100                    LDA     ERROR,,AUTO
        48 001745   001750 601000 48                 TNZ     s:5053

      445     5052    2           RETURN;

   5052 48 001746   200020 221300                    LDX1  ! NO$+2,,AUTO
        48 001747   000001 702211                    TSX2  ! 1,X1

      446     5053    2       ALTRETURN;

   5053 48 001750   200020 221300                    LDX1  ! NO$+2,,AUTO
        48 001751   000000 702211                    TSX2  ! 0,X1

LIST_STRING
 Sect OctLoc
   0     000   ****** ******   ****** ******   ****** ******   ****** ******    ................

FORT_INCLUDE_HEAD
 Sect OctLoc
   3     000   106117 122124   122101 116040   111116 103114   125104 105040    FORTRAN INCLUDE
   3     004   106111 114105   040040 040040   040040 040040   040040 040040    FILE
   3     010   040040 040040   040040 040040   040040 040040   040040 040040
   3     014   040040 040040   040040 040040   040040 040040   040040 040040

PL6.E3A0      #001=ZIG$V_DESC File=ZIG$V_DESC.:ZIC0TSI                           FRI 09/05/97 12:18 Page:78
(unnamed)
 Sect OctLoc
   3     020   052052 040040   052052 040040   040040 111055   104055 123057    **  **    I-D-S/
   3     024   111111 040105   130124 105122   116101 114040   123125 102122    II EXTERNAL SUBR
   3     030   117125 124111   116105 040104   105106 111116   111124 111117    OUTINE DEFINITIO
   3     034   116123 040040   040040 040040   040040 040105   130124 105122    NS         EXTER
   3     040   116101 114040   103117 116116   105103 124054   104111 123103    NAL CONNECT,DISC
   3     044   117116 116105   103124 054105   122101 123105   122054 106111    ONNECT,ERASER,FI
   3     050   116104 054107   105124 054115   117104 111106   131054 123124    ND,GET,MODIFY,ST
   3     054   117122 105040   052052 040040   040040 111055   104055 123057    ORE **    I-D-S/
   3     060   111111 040111   116106 117122   115101 124111   117116 040101    II INFORMATION A
   3     064   122105 101040   050111 101051   040104 105106   111116 111124    REA (IA) DEFINIT
   3     070   111117 116056   040040 040040   040040 103117   115115 117116    ION.      COMMON
   3     074   040057 111040   057040 111040   050060 072064   067051 040040     /I / I (0:47)
   3     100   040040 040040   040040 104101   124101 040111   057060 054040          DATA I/0,
   3     104   054070 052060   054040 040040   040040 040040   040053 040040    ,8*0,        +
   3     110   040040 047040   047054 047040   052047 040040   040040 047054      ' ',' *'    ',
   3     114   040040 040040   040053 040040   040040 047106   117122 124047         +    'FORT'
   3     120   054047 122101   116040 047054   066052 047040   040040 040047    ,'RAN ',6*'    '
   3     124   054040 040040   040040 040040   040053 040040   040040 070052    ,        +    8*
   3     130   047040 040040   040047 054040   040040 040040   040053 040040    '    ',      +
   3     134   040040 063054   060054 060054   061062 117040   054060 054060      3,0,0,12O ,0,0
   3     140   057040 040040   052052 040040   040040 040111   055104 055123    /   **     I-D-S
   3     144   057111 111040   125123 105122   040127 117122   113040 101122    /II USER WORK AR
   3     150   105040 050125   127101 051040   057052 057052   057052 057052    E (UWA) /*/*/*/*
   3     154   057052 057052   052052 040040   040040 040111   055104 055123    /*/***     I-D-S
   3     160   057111 111040   122105 106105   122105 116103   105040 126105    /II REFERENCE VE
   3     164   103124 117122   040101 122105   101040 050122   126101 051040    CTOR AREA (RVA)
   3     170   052052 040040   040040 111055   104055 123057   111111 040123    **    I-D-S/II S
   3     174   120105 103111   101114 040116   101115 105040   101122 105101    PECIAL NAME AREA
   3     200   040050 123116   101051 040040   040040 040040   040040 103117     (SNA)        CO
   3     204   115115 117116   040057 123116   101057 101114   114054 040040    MMON /SNA/ALL,
   3     210   040040 040040   040053 040040   040040 040040   040040 040040         +
   3     214   040040 101116   131054 040040   040040 040040   040053 040040      ANY,       +
   3     220   040040 040040   040040 040040   040040 103125   122122 105116              CURREN
   3     224   103131 054040   040040 040040   040053 040040   040040 040040    CY,      +
   3     230   040040 040040   040040 103125   122122 105116   124054 040040          CURRENT,
PL6.E3A0      #001=ZIG$V_DESC File=ZIG$V_DESC.:ZIC0TSI                           FRI 09/05/97 12:18 Page:79
   3     234   040040 040040   040053 040040   040040 040040   040040 040040         +
   3     240   040040 104102   113105 131054   040040 040040   040053 040040      DBKEY,     +
   3     244   040040 040040   040040 040040   040040 104125   120114 111103              DUPLIC
   3     250   101124 105054   040040 040040   040053 040040   040040 040040    ATE,     +
   3     254   040040 040040   040040 106111   122123 124054   040040 040040          FIRST,
   3     260   040053 040040   040040 040040   040040 040040   040040 111116     +            IN
   3     264   103114 125104   111116 107054   040040 040040   040053 040040    CLUDING,     +
   3     270   040040 040040   040040 040040   040040 111124   105115 054040              ITEM,
   3     274   040040 040040   040053 040040   040040 040040   040040 040040         +
   3     300   040040 114101   123124 054040   040040 040040   040053 040040      LAST,      +
   3     304   040040 040040   040040 040040   040040 114117   101104 054040              LOAD,
   3     310   040040 040040   040053 040040   040040 040040   040040 040040         +
   3     314   040040 116105   130124 054040   040040 040040   040053 040040      NEXT,      +
   3     320   040040 040040   040040 040040   040040 116117   123110 101122              NOSHAR
   3     324   105054 040040   040040 040040   040053 040040   040040 040040    E,       +
   3     330   040040 040040   040040 117116   114131 054040   040040 040040          ONLY,
   3     334   040053 040040   040040 040040   040040 040040   040040 117127     +            OW
   3     340   116105 122054   040040 040040   040053 040040   040040 040040    NER,     +
   3     344   040040 040040   040040 120122   111117 122054   040040 040040          PRIOR,
   3     350   040053 040040   040040 040040   040040 040040   040040 122105     +            RE
   3     354   101114 115054   040040 040040   040053 040040   040040 040040    ALM,     +
   3     360   040040 040040   040040 122105   101114 115116   101115 105054          REALMNAME,
   3     364   040040 040040   040053 040040   040040 040040   040040 040040         +
   3     370   040040 122105   103117 122104   054040 040040   040040 040040      RECORD,
   3     374   040053 040040   040040 040040   040040 040040   040040 122105     +            RE
   3     400   124122 111105   126101 114054   040040 040040   040053 040040    TRIEVAL,     +
   3     404   040040 040040   040040 040040   040040 123105   124054 040040              SET,
   3     410   040040 040040   040053 040040   040040 040040   040040 040040         +
   3     414   040040 123105   124123 054040   040040 040040   040053 040040      SETS,      +
   3     420   040040 040040   040040 040040   040040 123110   101122 105054              SHARE,
   3     424   040040 040040   040053 040040   040040 040040   040040 040040         +
   3     430   040040 123110   101122 105101   116131 054040   040040 040040      SHAREANY,
   3     434   040053 040040   040040 040040   040040 040040   040040 123110     +            SH
   3     440   101122 105111   116054 040040   040040 040040   040053 040040    AREIN,       +
   3     444   040040 040040   040040 040040   040040 125120   104101 124105              UPDATE
   3     450   054040 040040   040040 040040   040053 040040   040040 040040    ,        +
   3     454   040040 040040   040040 125123   111116 107054   040040 040040          USING,
PL6.E3A0      #001=ZIG$V_DESC File=ZIG$V_DESC.:ZIC0TSI                           FRI 09/05/97 12:18 Page:80
   3     460   040053 040040   040040 040040   040040 040040   040040 127111     +            WI
   3     464   124110 111116   054040 040040   040040 040040   040053 040040    THIN,        +
   3     470   040040 040040   040040 040040   040040 123110   103125 122054              SHCUR,
   3     474   040040 040040   040053 040040   040040 040040   040040 040040         +
   3     500   040040 123110   111116 103125   122040 040040                      SHINCUR

FPT_GETDCB
 Sect OctLoc
   4     002   000001 777640   000010 006000   000007 777640   000146 006000    .............f..
   4     006   000000 777640   000156 006000   000000 400000   000000 000000    .....n..........

OPEN_SDS
 Sect OctLoc
   4     012   000025 777640   000056 006000   000000 177640   000000 006014    ................
   4     016   000000 177640   000000 006014   000007 777640   000146 006000    .............f..
   4     022   000000 177640   000000 006014   000003 777640   000142 006000    .............b..
   4     026   000000 177640   000000 006014   000000 177640   000000 006014    ................
   4     056*  000000 000642   000000 003001   252525 003013   062111 252520    ............2I..
   4     062   000040 040040   000000 000002   000000 777777   000000 000000    .   ............
   4     066   000000 000000   000000 000000   000000 000000   000000 000000    ................
   4     072   251000 622000   000000 000000   000000 000000   111250 000000    ............I...
   4     076   040040 040040   000000 000000   000000 000000   000000 000000        ............
   4     102   000000 000000   ****** ******                                    ........

FPT_CLOSE
 Sect OctLoc
   4     104   000003 777640   000136 006000   000000 177640   000000 006014    .....^..........
   4     110   000000 177640   000000 006014   000000 177640   000000 006014    ................
   4     134*  000000 177640   000000 006014   000000 000002   000000 000040    ...............
   4     140   000220 000000   000000 000000                                    ........

ACCESS_SDS
 Sect OctLoc
   4     142   000000 000003   400000 101114   114040 040040   040040 ******    ......ALL     ..

VLP_NAME
 Sect OctLoc
PL6.E3A0      #001=ZIG$V_DESC File=ZIG$V_DESC.:ZIC0TSI                           FRI 09/05/97 12:18 Page:81
   4     146   001040 040040   040040 040040   040040 040040   040040 040040    .
   4     152   040040 040040   040040 040040   040040 040040   040040 040040

LANG_ALLOWED
 Sect OctLoc
   5     000   ****** ******   ****** ******   ****** ******   ****** ******    ................

HEADING_TEXT
 Sect OctLoc
   7     000   ****** ******   ****** ******   ****** ******   ****** ******    ................

LANG_TEXT
 Sect OctLoc
   8     000   116117 124040   125123 105104   040040 103117   102117 114040    NOT USED  COBOL
   8     004   040040 040040   106117 122124   122101 116040   040040 101120        FORTRAN   AP
   8     010   114040 040040   040040 040040   102101 123111   103040 040040    L       BASIC
   8     014   040040 ******                                                      ..

HASH_SCHEMA_NAME
 Sect OctLoc
   9     000   0***** ******                                                    ....

CONTROL
 Sect OctLoc
  11     000   777777 777777   000000 000001   000000 000000   000000 000036    ................
  11     004   000000 000060   000000 000000   000000 000000   000000 000000    ...0............
  11     010   000000 000000   000000 000000   000000 000000   000000 000000    ................
  11     020*  040040 040040   040040 040040   040040 040040   040040 040040
  11     040*  000000 000144   000000 000000   400000 000000   042116 125114    ...d........"NUL
  11     044   114042 040040   040040 040040   042116 125114   114042 040040    L"      "NULL"
  11     050   040040 040040   000000 000060   000000 000000   000000 000000        ...0........
  11     054   000000 000000   000000 000000   000000 000000   000000 000000    ................
  11     064*  000000 000000   040040 040040   040040 040040   040040 040040    ....
  11     070   000000 000000   000000 000000   000000 000000   000000 000000    ................
  11     074   000000 000002   000000 000000   000000 000000   000000 000000    ................

UWA_KEY
PL6.E3A0      #001=ZIG$V_DESC File=ZIG$V_DESC.:ZIC0TSI                           FRI 09/05/97 12:18 Page:82
 Sect OctLoc
  19     000   007125 127101   ****** ******                                    .UWA....

RVA_KEY
 Sect OctLoc
  21     000   007122 126101   ****** ******                                    .RVA....

IA__KEY
 Sect OctLoc
  22     000   007111 101137   ****** ******                                    .IA_....

SEARCHR_NB
 Sect OctLoc
  24     000   001001 001001   001001 001001   001001 001001   001001 001001    ................
  24     010*  000001 001001   001001 001001   001001 001001   001001 001001    ................
  24     014   001001 001001   001001 001001   001001 001001   001001 001001    ................
  24     034*  001001 001001   001001 001001   001001 001001   001001 001001    ................

SEM_COM
 Sect OctLoc
  25     000   000001 002003   004005 006007   010011 012013   014015 016017    ................
  25     004   020021 022023   024025 026027   030031 032033   034035 036037    ................
  25     010   040041 042043   044045 046047   050051 052053   054055 056057     !"#$%&'()*+,-./
  25     014   060061 062063   064065 066067   070071 072040   074075 076077    0123456789: <=>?
  25     020   100101 102103   104105 106107   110111 112113   114115 116117    @ABCDEFGHIJKLMNO
  25     024   120121 122123   124125 126127   130131 132133   134135 136137    PQRSTUVWXYZ[\]^_
  25     030   140141 142143   144145 146147   150151 152153   154155 156157    `abcdefghijklmno
  25     034   160161 162163   164165 166167   170171 172173   174175 176177    pqrstuvwxyz{|}~.

DMCL_XLATE
 Sect OctLoc
  26     000   000001 002003   004005 006007   010011 012013   014015 016017    ................
  26     004   020021 022023   024025 026027   030031 032033   034035 036037    ................
  26     010   040041 041043   044045 046047   050051 052053   054055 136057     !!#$%&'()*+,-^/
  26     014   060061 062063   064065 066067   070071 072040   074075 076077    0123456789: <=>?
  26     020   100101 102103   104105 106107   110111 112113   114115 116117    @ABCDEFGHIJKLMNO
  26     024   120121 122123   124125 126127   130131 132133   134135 136137    PQRSTUVWXYZ[\]^_
PL6.E3A0      #001=ZIG$V_DESC File=ZIG$V_DESC.:ZIC0TSI                           FRI 09/05/97 12:18 Page:83
  26     030   140141 142143   144145 146147   150151 152153   154155 156157    `abcdefghijklmno
  26     034   160161 162163   164165 166167   170171 172173   174175 176177    pqrstuvwxyz{|}~.

Q2_PERCENT
 Sect OctLoc
  27     000   000001 002003   004005 006007   010011 012013   014015 016017    ................
  27     004   020021 022023   024025 026027   030031 032033   034035 036037    ................
  27     010   040041 045043   044045 046047   050051 052053   054055 056057     !%#$%&'()*+,-./
  27     014   060061 062063   064065 066067   070071 072073   074075 076077    0123456789:;<=>?
  27     020   100101 102103   104105 106107   110111 112113   114115 116117    @ABCDEFGHIJKLMNO
  27     024   120121 122123   124125 126127   130131 132133   134135 136137    PQRSTUVWXYZ[\]^_
  27     030   140141 142143   144145 146147   150151 152153   154155 156157    `abcdefghijklmno
  27     034   160161 162163   164165 166167   170171 172173   174175 176177    pqrstuvwxyz{|}~.

ANALS
 Sect OctLoc
  28     000   ****** ******   ****** ******   ****** ******   ****** ******    ................

PURGE
 Sect OctLoc
  29     000   ****** ******   ****** ******   ****** ******   ****** ******    ................

DICTS
 Sect OctLoc
  30     000   ****** ******   ****** ******   ****** ******   ****** ******    ................

DISPS
 Sect OctLoc
  31     000   ***00* ******   ****** ******   ****** ******   ****** ******    ................
  31     024*  ****** ******   ****** ******   ****** ******                    ............

VALIDS
 Sect OctLoc
  32     000   ****** ******   ****** ******   ****** ******   ****** ******    ................

LOCKS
 Sect OctLoc
PL6.E3A0      #001=ZIG$V_DESC File=ZIG$V_DESC.:ZIC0TSI                           FRI 09/05/97 12:18 Page:84
  33     000   ****** ******   ****** ******   ****** ******   ****** ******    ................

STRAN
 Sect OctLoc
  34     000   ****** ******   ****** ******   ****** ******   ****** ******    ................

DTRAN
 Sect OctLoc
  35     000   ****** ******   ****** ******   ****** ******   ****** ******    ................

SSTRANS
 Sect OctLoc
  36     000   ****** ******   ****** ******   ****** ******   ****** ******    ................

SSGEN
 Sect OctLoc
  37     000   ****** ******   ****** ******   ****** ******   ****** ******    ................

SUBSCHEMA_NAME
 Sect OctLoc
  39     000   ****** ******   ****** ******   ****** ******   ****** ******    ................

FIELD1
 Sect OctLoc
  40     000   ****** ******   ****** ******   ****** ******   ****** ******    ................

(unnamed)
 Sect OctLoc
  49     000   000001 000000   000000 006000   040040 040040   000000 000000    ........    ....
  49     004   000000 006000   000002 000000   000000 000001   000006 006000    ................
  49     010   000004 006000   777777 777000   777777 777777   044040 040040    ............$
  49     014   072040 040040   051040 040040   000000 006003   000000 021530    :   )   ........
  49     020   000017 006000   000000 021531   000021 006000   000000 006014    ................
      447     5054    2   END ZIG$DBFSE;
      448     5055    1   END ZIG$V_DESC;
      449     5056        %EOD;

PL6.E3A0      #001=ZIG$V_DESC File=ZIG$V_DESC.:ZIC0TSI                           FRI 09/05/97 12:18 Page:85
--  Include file information  --

   ZIG_SSS.:ZIC0TOU  is referenced.
   ZI$USER.:ZIC0TOU  is referenced.
   CP_6.:LIB_E05  cannot be made into a system file and is referenced.
   CP_6_SUBS.:LIB_E05  is referenced.
   ZI_ERRORS_SUBS.:ZIC0TOU  is referenced.
   ZIG_DIR_STRUCS.:ZIC0TOU  cannot be made into a system file and is referenced.
   ZIG_GENERAL.:ZIC0TOU  cannot be made into a system file and is referenced.
   ZI_SUB_LANG.:ZIC0TOU  is referenced.
   B$JIT_C.:E05TOU  was found in the system file and is never referenced.
   CP_6_C.:E05TOU  was found in the system file and is referenced.
      No diagnostics issued in procedure ZIG$V_DESC.

   Procedure ZIG$V_DESC requires 1002 words for executable code.
   Procedure ZIG$V_DESC requires 24 words of local(AUTO) storage.
PL6.E3A0      #001=ZIG$V_DESC File=ZIG$V_DESC.:ZIC0TSI                           FRI 09/05/97 12:18 Page:86
          *** CROSS REFERENCE LISTING ***
**     DENOTES     IDENTIFIER DEFINITION
<<                 IDENTIFIER'S VALUE SET
>>                 IDENTIFIER'S VALUE USED
<>                 IDENTIFIER SET AND/OR USED
--                 IDENTIFIER REFERENCED
PL6.E3A0      #001=ZIG$V_DESC File=ZIG$V_DESC.:ZIC0TSI                           FRI 09/05/97 12:18 Page:87
          MINI XREF LISTING

ABORT
      2004**DCL-ENT  3968--CALL     4099--CALL
AC.ACID IN PROCEDURE ZIG$DBFSE
      4804**DCL      4989>>IF
AC.DEF.ANL IN PROCEDURE ZIG$DBFSE
      4799**DCL      4870--IMP-SIZ
AC.DEF.FORG IN PROCEDURE ZIG$DBFSE
      4786**DCL      4790--REDEF
AC.OAACN IN PROCEDURE ZIG$DBFSE
      4800**DCL      4987>>DOWHILE  4988>>ASSIGN
AC.WSOF IN PROCEDURE ZIG$DBFSE
      4803**DCL      4992>>ASSIGN
AC$ IN PROCEDURE ZIG$DBFSE
      4782**DCL      4783--IMP-PTR  4986<<ASSIGN   4987>>DOWHILE  4988<<ASSIGN   4988>>ASSIGN   4989>>IF
      4991>>ASSIGN   4992>>ASSIGN
ACCESS_SDS
      3756**DCL      3661--DCLINIT
ACCESS_SDS.Q
      3757**DCL      3756--DCLINIT
B$DS8$
      3803**DCL      3974>>ASSIGN
BUFFER$
      2036**DCL      3911<<ASSIGN
BUFFER_LEN
      2038**DCL      3912<<ASSIGN
CHAR_1
        35**DCL      3896<<CALLBLT  3897>>CALLBLT
CONTROL.SCHEMA_NAME
      1955**DCL      3868>>CALLBLT  3870>>DOWHILE  3871>>CALLBLT
CONTROL.SUBSCHEMA_NAME
      1956**DCL      3860>>ASSIGN   3881>>DOWHILE  3882>>CALLBLT
CONTROL.SUBSCHEMA_UTS
PL6.E3A0      #001=ZIG$V_DESC File=ZIG$V_DESC.:ZIC0TSI                           FRI 09/05/97 12:18 Page:88
      1964**DCL      3894>>ASSIGN
CONTROL.UWA_SIZE
      1945**DCL      3864<>CALL
ERROR
      1996**DCL-ENT  3967--CALL     4098--CALL
ERROR IN PROCEDURE ZIG$DBFSE
      4981**DCL      4983<<ASSIGN   4987>>DOWHILE  4993<<ASSIGN   4998>>DOWHILE  5004<<ASSIGN   5009>>DOWHILE
      5015<<ASSIGN   5020>>DOWHILE  5029>>DOWHILE  5036<<ASSIGN   5043<<ASSIGN   5049<<ASSIGN   5051>>IF
F$DCB.ACTPOS
      3553**DCL      3553--REDEF
F$DCB.ARS#
      3527**DCL      3527--REDEF
F$DCB.ASN#
      3542**DCL      3963>>IF
F$DCB.ATTR
      3546**DCL      3547--REDEF
F$DCB.BORROW
      3561**DCL      3561--REDEF    3561--REDEF    3561--REDEF
F$DCB.DCBNAME.L
      3575**DCL      3575--IMP-SIZ
F$DCB.EOMCHAR#
      3531**DCL      3531--REDEF
F$DCB.FLDID
      3556**DCL      3556--REDEF
F$DCB.FORM$
      3550**DCL      3550--REDEF
F$DCB.FSECT
      3566**DCL      3566--REDEF
F$DCB.FSN#
      3543**DCL      3543--REDEF    3543--REDEF    3544--REDEF
F$DCB.HEADER$
      3549**DCL      3549--REDEF
F$DCB.IXTNSIZE#
      3547**DCL      3547--REDEF
F$DCB.LASTSTA$
      3536**DCL      3536--REDEF
PL6.E3A0      #001=ZIG$V_DESC File=ZIG$V_DESC.:ZIC0TSI                           FRI 09/05/97 12:18 Page:89
F$DCB.LVL
      3562**DCL      3562--REDEF
F$DCB.NAME#
      3537**DCL      3964>>ASSIGN
F$DCB.NAME#.C
      3537**DCL      3537--REDEF
F$DCB.NOEOF
      3559**DCL      3559--REDEF
F$DCB.NRECS#
      3548**DCL      3548--REDEF
F$DCB.NRECX
      3567**DCL      3567--REDEF
F$DCB.OHDR
      3559**DCL      3559--REDEF
F$DCB.ORG#
      3542**DCL      3542--REDEF
F$DCB.PRECNO
      3565**DCL      3565--REDEF
F$DCB.RCSZ
      3571**DCL      3571--REDEF
F$DCB.RES#
      3538**DCL      3538--REDEF
F$DCB.SETX
      3550**DCL      3550--REDEF
F$DCB.TAB$
      3550**DCL      3550--REDEF
F$DCB.TDA
      3564**DCL      3565--REDEF
F$DCB.WSN#
      3538**DCL      3538--REDEF
FIELD1.COUNT1
      3830**DCL      3865>>CALLBLT  3899<<ASSIGN   3900>>CALLBLT
FIELD1.TEXT1
      3831**DCL      3865>>CALLBLT  3876>>CALLBLT  3887>>CALLBLT  3897<<CALLBLT  3900>>CALLBLT
FORT_INCLUDE_HEAD
        31**DCL      3844<>CALL
PL6.E3A0      #001=ZIG$V_DESC File=ZIG$V_DESC.:ZIC0TSI                           FRI 09/05/97 12:18 Page:90
FPT_CLOSE
      3726**DCL      4097<>CALL     4108<>CALL
FPT_CLOSE.SN_
      3726**DCL      3726--REDEF
FPT_CLOSE.UTL_
      3727**DCL      3727--REDEF
FPT_CLOSE.V
      3731**DCL      3726--DCLINIT
FPT_CLOSE.V.DCB#
      3732**DCL      4090<<ASSIGN
FPT_CLOSE.V.DISP#
      3735**DCL      4096<<ASSIGN
FPT_CLOSE.V.EXPIRE#
      3741**DCL      3741--REDEF
FPT_CLOSE.V.TYPE#
      3739**DCL      3739--REDEF
FPT_CLOSE.V.XTNSIZE#
      3736**DCL      3736--REDEF    3738--REDEF
FPT_GETDCB
      3588**DCL      3949<>CALL
FPT_GETDCB.V
      3589**DCL      3588--DCLINIT
FR.DEF.SYN IN PROCEDURE ZIG$DBFSE
      4946**DCL      5031>>IF
FR.FNL IN PROCEDURE ZIG$DBFSE
      4973**DCL      4977--IMP-SIZ
FR.FRWSO IN PROCEDURE ZIG$DBFSE
      4976**DCL      5035>>ASSIGN
FR.RCFRN IN PROCEDURE ZIG$DBFSE
      4974**DCL      5029>>DOWHILE  5030>>ASSIGN
FR.UOFST.EIS.FRID IN PROCEDURE ZIG$DBFSE
      4966**DCL      5031>>IF
FR.UOFST.EIS.OFFSET IN PROCEDURE ZIG$DBFSE
      4963**DCL      4966--REDEF
FR$ IN PROCEDURE ZIG$DBFSE
      4937**DCL      4938--IMP-PTR  5028<<ASSIGN   5029>>DOWHILE  5030<<ASSIGN   5030>>ASSIGN   5031>>IF
PL6.E3A0      #001=ZIG$V_DESC File=ZIG$V_DESC.:ZIC0TSI                           FRI 09/05/97 12:18 Page:91
      5031>>IF       5034>>ASSIGN   5035>>ASSIGN
GLOBAL.ID
      3814**DCL      4093<<ASSIGN   4989>>IF       5000>>IF       5011>>IF       5024>>IF       5031>>IF
GLOBAL.SSOFST
      3815**DCL      4105>>ASSIGN   4991<<ASSIGN   5002<<ASSIGN   5013<<ASSIGN   5034<<ASSIGN   5041<<ASSIGN
      5046<<ASSIGN   5047>>ASSIGN
GLOBAL.TYPE
      3813**DCL      4092<<ASSIGN   4984>>DOCASE
GLOBAL.WSOFST
      3816**DCL      4992<<ASSIGN   5003<<ASSIGN   5014<<ASSIGN   5035<<ASSIGN   5042<<ASSIGN   5047<<ASSIGN
I
      3828**DCL      3869<<ASSIGN   3870>>DOWHILE  3870>>DOWHILE  3871>>CALLBLT  3871>>CALLBLT  3871>>CALLBLT
      3873<<ASSIGN   3873>>ASSIGN   3875>>CALL     3876>>CALLBLT  3876>>CALLBLT  3880<<ASSIGN   3881>>DOWHILE
      3881>>DOWHILE  3882>>CALLBLT  3882>>CALLBLT  3882>>CALLBLT  3884<<ASSIGN   3884>>ASSIGN   3886>>CALL
      3887>>CALLBLT  3887>>CALLBLT
IX0
      3807**DCL      3956<<ASSIGN   3958>>ASSIGN   3988<<DOINDEX  3990>>ASSIGN   4005<<DOINDEX  4006>>ASSIGN
      4006>>ASSIGN   4007>>IF       4008>>ASSIGN
IX1
      3808**DCL      3951<<CALLBLT  3953>>ASSIGN   3954>>CALLBLT  3975<<ASSIGN   3994>>ASSIGN   3995<<ASSIGN
      3995>>ASSIGN   4091<<DOINDEX  4092>>ASSIGN   4093>>ASSIGN   4105>>ASSIGN
IX2
      3809**DCL      3952<<CALLBLT  3953<<ASSIGN   3953>>ASSIGN   3954>>CALLBLT  3984<<CALLBLT  3985<<ASSIGN
      3985>>ASSIGN   3990>>ASSIGN
LCV
        32**DCL      3895<<DOINDEX  3896>>CALLBLT  3897>>CALLBLT
LIST
      2011**DCL-ENT  3835--CALL
LIST_STRING
        27**DCL      3835<>CALL     3837>>DOWHILE  3845<<ASSIGN   3846--ASSIGN   3848<<ASSIGN   3850<<ASSIGN
      3852<<ASSIGN   3854<<ASSIGN   3856<<ASSIGN   3858<<ASSIGN   3861<<CALLBLT  3865<<CALLBLT  3868<<CALLBLT
      3871<<CALLBLT  3876<<CALLBLT  3879<<CALLBLT  3882<<CALLBLT  3887<<CALLBLT  3890<<ASSIGN   3892<<ASSIGN
      3900<<CALLBLT  3903<<ASSIGN   3905<<ASSIGN   3907<<ASSIGN   3911--ASSIGN   3914>>DOWHILE  3923>>DOWHILE
      3929<<ASSIGN   3931<<ASSIGN   3933<<ASSIGN   3951>>CALLBLT  3952>>CALLBLT  3954>>CALLBLT  3977>>DOWHILE
      3982>>IF       3984>>CALLBLT  3990>>ASSIGN   4014>>DOWHILE  4020<<ASSIGN   4022<<ASSIGN   4024<<ASSIGN
      4026<<ASSIGN   4028<<ASSIGN   4030<<ASSIGN   4032<<ASSIGN   4034<<ASSIGN   4036<<ASSIGN   4038<<ASSIGN
PL6.E3A0      #001=ZIG$V_DESC File=ZIG$V_DESC.:ZIC0TSI                           FRI 09/05/97 12:18 Page:92
      4040<<ASSIGN   4042<<ASSIGN   4044<<ASSIGN   4046<<ASSIGN   4048<<ASSIGN   4050<<ASSIGN   4052<<ASSIGN
      4054<<ASSIGN   4056<<ASSIGN   4058<<ASSIGN   4060<<ASSIGN   4062<<ASSIGN   4064<<ASSIGN   4066<<ASSIGN
      4068<<ASSIGN   4070<<ASSIGN   4072<<ASSIGN   4074<<ASSIGN   4076<<ASSIGN   4078<<ASSIGN   4080<<ASSIGN
      4082<<ASSIGN   4084<<ASSIGN
M$CLOSE
      3290**DCL-ENT  4097--CALL     4108--CALL
M$GETDCB
      3296**DCL-ENT  3949--CALL
M$OPEN
      3290**DCL-ENT  3965--CALL
NEXTRC IN PROCEDURE ZIG$DBFSE
      5039**LABEL    5026--GOTO
NO$
      3826**DCL      3827--IMP-PTR  4003<<ASSIGN   4004>>ASSIGN   4008>>ASSIGN
NRVAPGS
      3806**DCL      3958<<ASSIGN   3960>>ASSIGN
NULL_OFFSET
      3827**DCL      4008<<ASSIGN
NUM_IN
        33**DCL      3894<<ASSIGN
NUM_IN.NUM
        34**DCL      3896>>CALLBLT
OA.CLCSC IN PROCEDURE ZIG$DBFSE
      4727**DCL      5046>>ASSIGN
OA.SCNAM.EIS.COUNT IN PROCEDURE ZIG$DBFSE
      4737**DCL      4774--IMP-SIZ
OA$ IN PROCEDURE ZIG$DBFSE
      4715**DCL      4716--IMP-PTR  5045<<ASSIGN   5046>>ASSIGN
OA1 IN PROCEDURE ZIG$DBFSE
      4707**DCL      4986--ASSIGN   4997--ASSIGN   5008--ASSIGN   5019--ASSIGN   5045--ASSIGN
OA1$ IN PROCEDURE ZIG$DBFSE
      4706**DCL      4707--IMP-PTR
OPEN_SDS
      3659**DCL      3965<>CALL
OPEN_SDS.ACSVEH_
      3661**DCL      3662--REDEF
PL6.E3A0      #001=ZIG$V_DESC File=ZIG$V_DESC.:ZIC0TSI                           FRI 09/05/97 12:18 Page:93
OPEN_SDS.ALTKEYS_
      3667**DCL      3668--REDEF    3668--REDEF
OPEN_SDS.HDR_
      3666**DCL      3667--REDEF
OPEN_SDS.TAB_
      3665**DCL      3666--REDEF
OPEN_SDS.UHL_
      3659**DCL      3660--REDEF    3660--REDEF
OPEN_SDS.V
      3668**DCL      3659--DCLINIT
OPEN_SDS.V.DCB#
      3668**DCL      3962<<ASSIGN
OPEN_SDS.V.FSN#
      3699**DCL      3699--REDEF    3699--REDEF
OPEN_SDS.V.IXTNSIZE#
      3687**DCL      3960<<ASSIGN
OPEN_SDS.WSN_
      3665**DCL      3665--REDEF
RC.DEF.RNL IN PROCEDURE ZIG$DBFSE
      4894**DCL      4904--IMP-SIZ
RC.OARCN IN PROCEDURE ZIG$DBFSE
      4897**DCL      5009>>DOWHILE  5010>>ASSIGN   5020>>DOWHILE  5021>>ASSIGN   5022>>IF       5023>>ASSIGN
RC.RCID IN PROCEDURE ZIG$DBFSE
      4896**DCL      5011>>IF       5023>>ASSIGN
RC.RCWSO IN PROCEDURE ZIG$DBFSE
      4902**DCL      5014>>ASSIGN
RC$ IN PROCEDURE ZIG$DBFSE
      4877**DCL      4878--IMP-PTR  5008<<ASSIGN   5009>>DOWHILE  5010<<ASSIGN   5010>>ASSIGN   5011>>IF
      5013>>ASSIGN   5014>>ASSIGN   5019<<ASSIGN   5020>>DOWHILE  5021<<ASSIGN   5021>>ASSIGN   5022>>IF
      5023>>ASSIGN   5028>>ASSIGN
RCID IN PROCEDURE ZIG$DBFSE
      4982**DCL      5023<<ASSIGN   5024>>IF       5024>>IF
RECORD_POINTER
        29**DCL      3846<<ASSIGN
RECORD_SIZE
        30**DCL      3836<<ASSIGN   3837>>DOWHILE  3837>>DOWHILE  3838<<ASSIGN   3838>>ASSIGN
PL6.E3A0      #001=ZIG$V_DESC File=ZIG$V_DESC.:ZIC0TSI                           FRI 09/05/97 12:18 Page:94
RVA.RVE.EO
      3516**DCL      3517--REDEF    4105<<ASSIGN
RVA.RVE.NAME
      3518**DCL      4093>>ASSIGN
RVA.RVE.T
      3517**DCL      4092>>ASSIGN
RVA.W1.BOUND
      3512**DCL      4107<<ASSIGN
RVA.W1.COUNT
      3513**DCL      4089>>ASSIGN
RVA$
      3509**DCL      3510--IMP-PTR  3810--IMP-PTR  3824--IMP-PTR  3974<<ASSIGN   3994>>ASSIGN   3999>>ASSIGN
      4000>>ASSIGN   4003>>ASSIGN   4006>>ASSIGN   4007>>IF       4089>>ASSIGN   4092>>ASSIGN   4093>>ASSIGN
      4105>>ASSIGN   4107>>ASSIGN
RVACOUNT
      3805**DCL      3954<<CALLBLT  3956>>ASSIGN   3958>>ASSIGN   3999>>ASSIGN   4003>>ASSIGN   4005>>DOINDEX
      4089<<ASSIGN   4091>>DOINDEX
RVA_HALF
      3824**DCL      3999<<ASSIGN   4000<<ASSIGN   4006>>ASSIGN   4007>>IF
RVA_KEY
      2044**DCL      3936>>ASSIGN   3980>>ASSIGN   4012>>ASSIGN   4017>>ASSIGN
RVA_KEY.NUMBER_OF
      2047**DCL      3935<<ASSIGN   3979<<ASSIGN   3979>>ASSIGN   4011<<ASSIGN   4016<<ASSIGN   4016>>ASSIGN
RVA_TYPE
      3823**DCL      4006<<ASSIGN
RW1.C
      3821**DCL      3990<<ASSIGN
SC.DEF.SNL IN PROCEDURE ZIG$DBFSE
      4923**DCL      4928--IMP-SIZ
SC.OASCN IN PROCEDURE ZIG$DBFSE
      4925**DCL      4998>>DOWHILE  4999>>ASSIGN
SC.SCID IN PROCEDURE ZIG$DBFSE
      4927**DCL      5000>>IF
SC.SCWSO IN PROCEDURE ZIG$DBFSE
      4924**DCL      5003>>ASSIGN   5047>>ASSIGN
SC$ IN PROCEDURE ZIG$DBFSE
PL6.E3A0      #001=ZIG$V_DESC File=ZIG$V_DESC.:ZIC0TSI                           FRI 09/05/97 12:18 Page:95
      4910**DCL      4911--IMP-PTR  4997<<ASSIGN   4998>>DOWHILE  4999<<ASSIGN   4999>>ASSIGN   5000>>IF
      5002>>ASSIGN   5003>>ASSIGN
SDSDCB
      3804**DCL      3589--DCLINIT  3962>>ASSIGN   3963--IF       3964--ASSIGN   4090>>ASSIGN
SET_FIELD_NUM
      2000**DCL-ENT  3864--CALL     3875--CALL     3886--CALL
SPECIAL_KEY
      2032**DCL      3910<<ASSIGN   3917<<ASSIGN   3921<<ASSIGN   3926<<ASSIGN   3936<<ASSIGN   3980<<ASSIGN
      4012<<ASSIGN   4017<<ASSIGN
SSS$ IN PROCEDURE ZIG$DBFSE
      4702**DCL      4986>>ASSIGN   4988>>ASSIGN   4991>>ASSIGN   4997>>ASSIGN   4999>>ASSIGN   5002>>ASSIGN
      5008>>ASSIGN   5010>>ASSIGN   5013>>ASSIGN   5019>>ASSIGN   5021>>ASSIGN   5023>>ASSIGN   5030>>ASSIGN
      5034>>ASSIGN   5045>>ASSIGN   5047>>ASSIGN
SUBLST
      2013**DCL-ENT  3844--CALL
SUBSCHEMA_KEY
      2031**DCL      2032--REDEF
SUBSCHEMA_NAME
      3811**DCL      3942>>ASSIGN
SUBSCHEMA_NAME_4
        28**DCL      3860<<ASSIGN   3861>>CALLBLT  3861>>CALLBLT  3865>>CALLBLT  3879>>CALLBLT
TYPE$
      3825**DCL      3823--IMP-PTR  4004<<ASSIGN   4006>>ASSIGN
UWA_KEY
      2039**DCL      3910>>ASSIGN   3917>>ASSIGN   3921>>ASSIGN   3926>>ASSIGN
UWA_KEY.NUMBER_OF
      2042**DCL      3909<<ASSIGN   3916<<ASSIGN   3916>>ASSIGN   3920<<ASSIGN   3925<<ASSIGN   3925>>ASSIGN
VALIDS.GEN_RVA
      2177**DCL      3939>>IF       3982>>IF       3998>>IF       4086>>IF
VLP_NAME
      3801**DCL      3588--DCLINIT  3660--DCLINIT  3964<<ASSIGN
VLP_NAME.L#
      3801**DCL      3941<<ASSIGN   3943>>DOWHILE  3944<<ASSIGN   3944>>ASSIGN   3946>>CALLBLT  3947<<ASSIGN
      3947>>ASSIGN
VLP_NAME.NAME#
      3801**DCL      3942<<ASSIGN   3943>>DOWHILE  3946<<CALLBLT
PL6.E3A0      #001=ZIG$V_DESC File=ZIG$V_DESC.:ZIC0TSI                           FRI 09/05/97 12:18 Page:96
W0
      3817**DCL      3986<<ASSIGN   3989<<ASSIGN   3989>>ASSIGN   3992<<ASSIGN   3992>>ASSIGN   3994>>ASSIGN
W1
      3818**DCL      3819--REDEF    3987<<ASSIGN   3991<<ASSIGN   3991>>ASSIGN   3992>>ASSIGN
WRITERECORD_TO_SEQ_FILE
      2009**DCL-ENT  3840--CALL
WRITE_RECORD
      3834**PROC     3847--CALL     3849--CALL     3851--CALL     3853--CALL     3855--CALL     3857--CALL
      3859--CALL     3863--CALL     3867--CALL     3878--CALL     3889--CALL     3891--CALL     3893--CALL
      3902--CALL     3904--CALL     3906--CALL     3908--CALL     3915--CALL     3924--CALL     3930--CALL
      3932--CALL     3934--CALL     3978--CALL     4015--CALL     4021--CALL     4023--CALL     4025--CALL
      4027--CALL     4029--CALL     4031--CALL     4033--CALL     4035--CALL     4037--CALL     4039--CALL
      4041--CALL     4043--CALL     4045--CALL     4047--CALL     4049--CALL     4051--CALL     4053--CALL
      4055--CALL     4057--CALL     4059--CALL     4061--CALL     4063--CALL     4065--CALL     4067--CALL
      4069--CALL     4071--CALL     4073--CALL     4075--CALL     4077--CALL     4079--CALL     4081--CALL
      4083--CALL     4085--CALL
XRVA
      3810**DCL      3994<<ASSIGN
ZIG$DBFSE
      4112**PROC     4094--CALL
ZIG$SS_RVAR
      2029**DCL-ENT  3913--CALL     3918--CALL     3922--CALL     3927--CALL     3937--CALL     3981--CALL
      4013--CALL     4018--CALL

PL6.E3A0      #002=ZIG$D_FORT_INCL File=ZIG$V_DESC.:ZIC0TSI                      FRI 09/05/97 12:19 Page:97
      450        1        /*T***********************************************************/
      451        2        /*T*                                                         */
      452        3        /*T* Copyright (c) Bull HN Information Systems Inc., 1997    */
      453        4        /*T*                                                         */
      454        5        /*T***********************************************************/
      455        6        ZIG$D_FORT_INCL:
      456        7            PROC;
      457        8    1   DCL ZIG$V_DESC ENTRY;
      458        9        %INCLUDE ZIG_GENERAL;
      459      117        %INCLUDE ZI_SUB_LANG;
      460     1832        %CONTROL_BLOCK;
      461     1940        %GENERAL;
      462     2064        %INCLUDE ZI_ERRORS_SUBS;
      463     2584    1   DCL READ64 ENTRY (2);
      464     2585    1   DCL CLOSE_64 ENTRY ;
      465     2586        %EJECT;
PL6.E3A0      #002=ZIG$D_FORT_INCL File=ZIG$V_DESC.:ZIC0TSI                      FRI 09/05/97 12:19 Page:98
      466     2587    1       CALL READ64(0,ADDR(CONTROL));
      467     2588    1       IF CONTROL.LANGUAGE ~= #FORTRAN
      468     2589    2       THEN DO;
      469     2590    2           CALL SET_FIELDS(1,30,CONTROL.SUBSCHEMA_NAME);
      470     2591    2           CALL ERROR(%ZIG_NOT_FORT_SUBSCH);
      471     2592        /*E*     ERROR:    ZIG-ZIG_NOT_FORT_SUBSCH-C
      472     2593        MESSAGE: Displaying of FORTRAN include files can only be
      473     2594                 performed on FORTRAN subschemas and %U1 is not
      474     2595                 a FORTRAN subschema.
      475     2596        */
      476     2597    2           RETURN;
      477     2598    2           END;
      478     2599    1       CALL ZIG$V_DESC;
      479     2600    1       CALL CLOSE_64;
      480     2601    1       RETURN;
      481     2602    1   END ZIG$D_FORT_INCL;

PL6.E3A0      #002=ZIG$D_FORT_INCL File=ZIG$V_DESC.:ZIC0TSI                      FRI 09/05/97 12:19 Page:99
--  Include file information  --

   ZI_ERRORS_SUBS.:ZIC0TOU  is referenced.
   ZI_SUB_LANG.:ZIC0TOU  is referenced.
   ZIG_GENERAL.:ZIC0TOU  cannot be made into a system file and is referenced.
   B$JIT_C.:E05TOU  was found in the system file and is never referenced.
   CP_6_C.:E05TOU  was found in the system file and is never referenced.
      No diagnostics issued in procedure ZIG$D_FORT_INCL.

   Procedure ZIG$D_FORT_INCL requires 31 words for executable code.
   Procedure ZIG$D_FORT_INCL requires 8 words of local(AUTO) storage.

    No errors detected in file ZIG$V_DESC.:ZIC0TSI    .

PL6.E3A0      #002=ZIG$D_FORT_INCL File=ZIG$V_DESC.:ZIC0TSI                      FRI 09/05/97 12:19 Page:100

 Object Unit name= ZIG$D_FORT_INCL                            File name= ZIG$V_DESC.:ZIC0TOU
 UTS= SEP 05 '97 12:19:57.52 FRI                              Compiler= PL-6/E31         Sev=      00
 SharedLib= :SHARED_SYSTEM                                    Alt SharedLib=


    ****  Control sections  ****

 Sect   Type Bound  Init  Size OctSiz  Section name(segment info)
    0  LblCom even  none     1      1  NUM_ERROR_MSG
    1  LblCom even  none     1      1  NUM_WARN_MSG
    2  LblCom even  none     1      1  ALLOCATE_END
    3  LblCom even  none     2      2  SUBSCHEMA_KEY
    4  LblCom even  none     1      1  BUFFER$
    5  LblCom even  none     1      1  ERROR_IO
    6  LblCom even  none     1      1  BUFFER_LEN
    7  LblCom even  none     2      2  UWA_KEY
    8  LblCom even  none     1      1  NEXT_UWA_SECOND_HALF
    9  LblCom even  none     2      2  RVA_KEY
   10  LblCom even  none     2      2  IA__KEY
   11  LblCom even  none     1      1  NEXT_RVA_SECOND_HALF
   12  LblCom even  none    32     40  SEARCHR_NB
   13  LblCom even  none    32     40  SEM_COM
   14  LblCom even  none    32     40  DMCL_XLATE
   15  LblCom even  none    32     40  Q2_PERCENT
   16  LblCom even  none    64    100  CONTROL
   17  LblCom even  none     5      5  LANG_ALLOWED
   18  LblCom even  none     1      1  SUB_LANGUAGE
   19  LblCom even  none    16     20  HEADING_TEXT
   20  LblCom even  none    13     15  LANG_TEXT
   21  LblCom even  none     1      1  HASH_SCHEMA_NAME
   22  LblCom even  none     1      1  CURRENT_RECORD
   23   Proc  even  none    31     37  ZIG$D_FORT_INCL
   24  RoData even  none    13     15  ZIG$D_FORT_INCL
PL6.E3A0      #002=ZIG$D_FORT_INCL File=ZIG$V_DESC.:ZIC0TSI                      FRI 09/05/97 12:19 Page:101

    ****  Entry defs  ****

                              Check   Calling
                             calling  sequence
  Sect OctLoc Primary Altret sequence   type   Parms  Name
    23      0   yes            yes      Std        0  ZIG$D_FORT_INCL

  ****  Entry refs  ****

         Check        Calling
        calling       sequence
Altret sequence SRef   type   Args  Name
         yes           Std       2 READ64
         yes           Std       3 SET_FIELDS
         yes           Std       0 ZIG$V_DESC
         yes           Std       0 CLOSE_64
         yes           Std       1 ERROR
                       nStd      0 X66_AUTO_0
                       nStd      0 X66_ARET

  ****  Segment refs  ****

  Flags:  r = read only, s = secondary
Flgs Name                             Flgs Name                             Flgs Name
     ISSID
PL6.E3A0      #002=ZIG$D_FORT_INCL File=ZIG$V_DESC.:ZIC0TSI                      FRI 09/05/97 12:19 Page:102


      450        1        /*T***********************************************************/
      451        2        /*T*                                                         */
      452        3        /*T* Copyright (c) Bull HN Information Systems Inc., 1997    */
      453        4        /*T*                                                         */
      454        5        /*T***********************************************************/
      455        6        ZIG$D_FORT_INCL:
      456        7            PROC;

      7 23 000000   000000 700200 xent  ZIG$D_FORT_* TSX0  ! X66_AUTO_0
        23 000001   000010 000000                    ZERO    8,0

      457        8    1   DCL ZIG$V_DESC ENTRY;
      458        9        %INCLUDE ZIG_GENERAL;
      459      117        %INCLUDE ZI_SUB_LANG;
      460     1832        %CONTROL_BLOCK;
      461     1940        %GENERAL;
      462     2064        %INCLUDE ZI_ERRORS_SUBS;
      463     2584    1   DCL READ64 ENTRY (2);
      464     2585    1   DCL CLOSE_64 ENTRY ;
      465     2586        %EJECT;
PL6.E3A0      #002=ZIG$D_FORT_INCL File=ZIG$V_DESC.:ZIC0TSI                      FRI 09/05/97 12:19 Page:103
      466     2587    1       CALL READ64(0,ADDR(CONTROL));

   2587 23 000002   000002 236000 24                 LDQ     2
        23 000003   200004 756100                    STQ     4,,AUTO
        23 000004   200004 630500                    EPPR0   4,,AUTO
        23 000005   200007 450500                    STP0    7,,AUTO
        23 000006   000003 236000 24                 LDQ     3
        23 000007   200006 756100                    STQ     6,,AUTO
        23 000010   200006 630500                    EPPR0   6,,AUTO
        23 000011   000000 631400 24                 EPPR1   0
        23 000012   000000 701000 xent               TSX1    READ64
        23 000013   000000 011000                    NOP     0

      467     2588    1       IF CONTROL.LANGUAGE ~= #FORTRAN

   2588 23 000014   000041 235000 16                 LDA     CONTROL+33
        23 000015   000002 115007                    CMPA    2,DL
        23 000016   000030 600000 23                 TZE     s:2599

      468     2589    2       THEN DO;

      469     2590    2           CALL SET_FIELDS(1,30,CONTROL.SUBSCHEMA_NAME);

   2590 23 000017   000007 630400 24                 EPPR0   7
        23 000020   000004 631400 24                 EPPR1   4
        23 000021   000000 701000 xent               TSX1    SET_FIELDS
        23 000022   000000 011000                    NOP     0

      470     2591    2           CALL ERROR(%ZIG_NOT_FORT_SUBSCH);

   2591 23 000023   000014 630400 24                 EPPR0   12
        23 000024   000012 631400 24                 EPPR1   10
        23 000025   000000 701000 xent               TSX1    ERROR
        23 000026   000000 011000                    NOP     0

      471     2592        /*E*     ERROR:    ZIG-ZIG_NOT_FORT_SUBSCH-C
      472     2593        MESSAGE: Displaying of FORTRAN include files can only be
PL6.E3A0      #002=ZIG$D_FORT_INCL File=ZIG$V_DESC.:ZIC0TSI                      FRI 09/05/97 12:19 Page:104
      473     2594                 performed on FORTRAN subschemas and %U1 is not
      474     2595                 a FORTRAN subschema.
      475     2596        */
      476     2597    2           RETURN;

   2597 23 000027   000000 702200 xent               TSX2  ! X66_ARET

      477     2598    2           END;
      478     2599    1       CALL ZIG$V_DESC;

   2599 23 000030   000001 631400 24                 EPPR1   1
        23 000031   000000 701000 xent               TSX1    ZIG$V_DESC
        23 000032   000000 011000                    NOP     0

      479     2600    1       CALL CLOSE_64;

   2600 23 000033   000001 631400 24                 EPPR1   1
        23 000034   000000 701000 xent               TSX1    CLOSE_64
        23 000035   000000 011000                    NOP     0

      480     2601    1       RETURN;

   2601 23 000036   000000 702200 xent               TSX2  ! X66_ARET

UWA_KEY
 Sect OctLoc
   7     000   007125 127101   ****** ******                                    .UWA....

RVA_KEY
 Sect OctLoc
   9     000   007122 126101   ****** ******                                    .RVA....

IA__KEY
 Sect OctLoc
  10     000   007111 101137   ****** ******                                    .IA_....

SEARCHR_NB
PL6.E3A0      #002=ZIG$D_FORT_INCL File=ZIG$V_DESC.:ZIC0TSI                      FRI 09/05/97 12:19 Page:105
 Sect OctLoc
  12     000   001001 001001   001001 001001   001001 001001   001001 001001    ................
  12     010*  000001 001001   001001 001001   001001 001001   001001 001001    ................
  12     014   001001 001001   001001 001001   001001 001001   001001 001001    ................
  12     034*  001001 001001   001001 001001   001001 001001   001001 001001    ................

SEM_COM
 Sect OctLoc
  13     000   000001 002003   004005 006007   010011 012013   014015 016017    ................
  13     004   020021 022023   024025 026027   030031 032033   034035 036037    ................
  13     010   040041 042043   044045 046047   050051 052053   054055 056057     !"#$%&'()*+,-./
  13     014   060061 062063   064065 066067   070071 072040   074075 076077    0123456789: <=>?
  13     020   100101 102103   104105 106107   110111 112113   114115 116117    @ABCDEFGHIJKLMNO
  13     024   120121 122123   124125 126127   130131 132133   134135 136137    PQRSTUVWXYZ[\]^_
  13     030   140141 142143   144145 146147   150151 152153   154155 156157    `abcdefghijklmno
  13     034   160161 162163   164165 166167   170171 172173   174175 176177    pqrstuvwxyz{|}~.

DMCL_XLATE
 Sect OctLoc
  14     000   000001 002003   004005 006007   010011 012013   014015 016017    ................
  14     004   020021 022023   024025 026027   030031 032033   034035 036037    ................
  14     010   040041 041043   044045 046047   050051 052053   054055 136057     !!#$%&'()*+,-^/
  14     014   060061 062063   064065 066067   070071 072040   074075 076077    0123456789: <=>?
  14     020   100101 102103   104105 106107   110111 112113   114115 116117    @ABCDEFGHIJKLMNO
  14     024   120121 122123   124125 126127   130131 132133   134135 136137    PQRSTUVWXYZ[\]^_
  14     030   140141 142143   144145 146147   150151 152153   154155 156157    `abcdefghijklmno
  14     034   160161 162163   164165 166167   170171 172173   174175 176177    pqrstuvwxyz{|}~.

Q2_PERCENT
 Sect OctLoc
  15     000   000001 002003   004005 006007   010011 012013   014015 016017    ................
  15     004   020021 022023   024025 026027   030031 032033   034035 036037    ................
  15     010   040041 045043   044045 046047   050051 052053   054055 056057     !%#$%&'()*+,-./
  15     014   060061 062063   064065 066067   070071 072073   074075 076077    0123456789:;<=>?
  15     020   100101 102103   104105 106107   110111 112113   114115 116117    @ABCDEFGHIJKLMNO
  15     024   120121 122123   124125 126127   130131 132133   134135 136137    PQRSTUVWXYZ[\]^_
  15     030   140141 142143   144145 146147   150151 152153   154155 156157    `abcdefghijklmno
PL6.E3A0      #002=ZIG$D_FORT_INCL File=ZIG$V_DESC.:ZIC0TSI                      FRI 09/05/97 12:19 Page:106
  15     034   160161 162163   164165 166167   170171 172173   174175 176177    pqrstuvwxyz{|}~.

CONTROL
 Sect OctLoc
  16     000   777777 777777   000000 000001   000000 000000   000000 000036    ................
  16     004   000000 000060   000000 000000   000000 000000   000000 000000    ...0............
  16     010   000000 000000   000000 000000   000000 000000   000000 000000    ................
  16     020*  040040 040040   040040 040040   040040 040040   040040 040040
  16     040*  000000 000144   000000 000000   400000 000000   042116 125114    ...d........"NUL
  16     044   114042 040040   040040 040040   042116 125114   114042 040040    L"      "NULL"
  16     050   040040 040040   000000 000060   000000 000000   000000 000000        ...0........
  16     054   000000 000000   000000 000000   000000 000000   000000 000000    ................
  16     064*  000000 000000   040040 040040   040040 040040   040040 040040    ....
  16     070   000000 000000   000000 000000   000000 000000   000000 000000    ................
  16     074   000000 000002   000000 000000   000000 000000   000000 000000    ................

LANG_ALLOWED
 Sect OctLoc
  17     000   ****** ******   ****** ******   ****** ******   ****** ******    ................

HEADING_TEXT
 Sect OctLoc
  19     000   ****** ******   ****** ******   ****** ******   ****** ******    ................

LANG_TEXT
 Sect OctLoc
  20     000   116117 124040   125123 105104   040040 103117   102117 114040    NOT USED  COBOL
  20     004   040040 040040   106117 122124   122101 116040   040040 101120        FORTRAN   AP
  20     010   114040 040040   040040 040040   102101 123111   103040 040040    L       BASIC
  20     014   040040 ******                                                      ..

HASH_SCHEMA_NAME
 Sect OctLoc
  21     000   0***** ******                                                    ....

(unnamed)
 Sect OctLoc
PL6.E3A0      #002=ZIG$D_FORT_INCL File=ZIG$V_DESC.:ZIC0TSI                      FRI 09/05/97 12:19 Page:107
  24     000   000002 000000   000000 000000   000000 006000   000001 006000    ................
  24     004   000003 000000   000000 000001   000000 000036   000005 006000    ................
  24     010   000006 006000   000030 006000   000001 000000   000000 021501    ................
  24     014   000013 006000                                                    ....
      481     2602    1   END ZIG$D_FORT_INCL;

PL6.E3A0      #002=ZIG$D_FORT_INCL File=ZIG$V_DESC.:ZIC0TSI                      FRI 09/05/97 12:19 Page:108
--  Include file information  --

   ZI_ERRORS_SUBS.:ZIC0TOU  is referenced.
   ZI_SUB_LANG.:ZIC0TOU  is referenced.
   ZIG_GENERAL.:ZIC0TOU  cannot be made into a system file and is referenced.
   B$JIT_C.:E05TOU  was found in the system file and is never referenced.
   CP_6_C.:E05TOU  was found in the system file and is never referenced.
      No diagnostics issued in procedure ZIG$D_FORT_INCL.

   Procedure ZIG$D_FORT_INCL requires 31 words for executable code.
   Procedure ZIG$D_FORT_INCL requires 8 words of local(AUTO) storage.

    No errors detected in file ZIG$V_DESC.:ZIC0TSI    .
PL6.E3A0      #002=ZIG$D_FORT_INCL File=ZIG$V_DESC.:ZIC0TSI                      FRI 09/05/97 12:19 Page:109
          *** CROSS REFERENCE LISTING ***
**     DENOTES     IDENTIFIER DEFINITION
<<                 IDENTIFIER'S VALUE SET
>>                 IDENTIFIER'S VALUE USED
<>                 IDENTIFIER SET AND/OR USED
--                 IDENTIFIER REFERENCED
PL6.E3A0      #002=ZIG$D_FORT_INCL File=ZIG$V_DESC.:ZIC0TSI                      FRI 09/05/97 12:19 Page:110
          MINI XREF LISTING

CLOSE_64
      2585**DCL-ENT  2600--CALL
CONTROL
      1897**DCL      2587--CALL
CONTROL.LANGUAGE
      1915**DCL      2588>>IF
CONTROL.SUBSCHEMA_NAME
      1913**DCL      2590<>CALL
ERROR
        22**DCL-ENT  2591--CALL
READ64
      2584**DCL-ENT  2587--CALL
SET_FIELDS
        25**DCL-ENT  2590--CALL
SUBSCHEMA_KEY
        57**DCL        58--REDEF
ZIG$V_DESC
         8**DCL-ENT  2599--CALL
