PL6.E3A0      #002=FLAG_OWNER File=ZIG$V_DRIVER.:ZIC0TSI                         FRI 09/05/97 12:21 Page:345
     2130        1        /*T***********************************************************/
     2131        2        /*T*                                                         */
     2132        3        /*T* Copyright (c) Bull HN Information Systems Inc., 1997    */
     2133        4        /*T*                                                         */
     2134        5        /*T***********************************************************/
     2135        6        FLAG_OWNER:
     2136        7            PROC (RC_PTR$);
     2137        8    1   DCL RC_PTR$ PTR;
     2138        9    1   DCL PT1PTR$ PTR AUTO;
     2139       10    1   DCL PT2PTR$ PTR AUTO;
     2140       11        %INCLUDE ZIG_SSS;
     2141      581        %SS_GENERAL(PSTCLASS=EXT);
     2142      602        %RC(PSTCLASS=EXT);
     2143      635        %SC(PSTCLASS=EXT);
     2144      662        %RS(PSTCLASS=EXT);
     2145      736    1       RC_PTR$ -> RC.DEF.RERA = '1'B;
     2146      737    1       PT1PTR$ = PINCRW(SSS$, RC_PTR$ -> RC.RCRSN);
     2147      738    2       DO WHILE (PT1PTR$ ~= SSS$);
     2148      739    2           IF PT1PTR$ -> RS.DEF.TYPE = '000000100000'B
     2149      740    3           THEN DO;
     2150      741    3               PT2PTR$ = PINCRW(SSS$, PT1PTR$ -> RS.SCRSH);
     2151      742    3               PT2PTR$ = PINCRW(SSS$, PT2PTR$ -> SC.SCRSN);
     2152      743        /*
     2153      744              Got the SC record.
     2154      745        */
     2155      746    3               PT2PTR$ = PINCRW(SSS$, PT2PTR$ -> RS.RCRSH);
     2156      747    3               CALL FLAG_OWNER(PT2PTR$);
     2157      748    3               END;
     2158      749    2           PT1PTR$ = PINCRW(SSS$, PT1PTR$ -> RS.RCRSN);
     2159      750    2           END;
     2160      751    1       RETURN;
     2161      752    1   END FLAG_OWNER;

PL6.E3A0      #002=FLAG_OWNER File=ZIG$V_DRIVER.:ZIC0TSI                         FRI 09/05/97 12:21 Page:346
--  Include file information  --

   ZIG_SSS.:ZIC0TOU  is referenced.
   B$JIT_C.:E05TOU  was found in the system file and is never referenced.
   CP_6_C.:E05TOU  was found in the system file and is never referenced.
      No diagnostics issued in procedure FLAG_OWNER.

   Procedure FLAG_OWNER requires 46 words for executable code.
   Procedure FLAG_OWNER requires 8 words of local(AUTO) storage.

    No errors detected in file ZIG$V_DRIVER.:ZIC0TSI    .

PL6.E3A0      #002=FLAG_OWNER File=ZIG$V_DRIVER.:ZIC0TSI                         FRI 09/05/97 12:21 Page:347

 Object Unit name= FLAG_OWNER                                 File name= ZIG$V_DRIVER.:ZIC0TOU
 UTS= SEP 05 '97 12:21:49.04 FRI                              Compiler= PL-6/E31         Sev=      00
 SharedLib= :SHARED_SYSTEM                                    Alt SharedLib=


    ****  Control sections  ****

 Sect   Type Bound  Init  Size OctSiz  Section name(segment info)
    0  LblCom even  none     1      1  SSS$
    1  LblCom even  none     1      1  RC$
    2  LblCom even  none     1      1  SC$
    3  LblCom even  none     1      1  RS$
    4   Proc  even  none    46     56  FLAG_OWNER
    5  RoData even  none     1      1  FLAG_OWNER

    ****  Entry defs  ****

                              Check   Calling
                             calling  sequence
  Sect OctLoc Primary Altret sequence   type   Parms  Name
     4      0   yes            yes      Std        1  FLAG_OWNER

  ****  Entry refs  ****

         Check        Calling
        calling       sequence
Altret sequence SRef   type   Args  Name
                       nStd      0 X66_AUTO_1
                       nStd      0 X66_ARET
PL6.E3A0      #002=FLAG_OWNER File=ZIG$V_DRIVER.:ZIC0TSI                         FRI 09/05/97 12:21 Page:348


     2130        1        /*T***********************************************************/
     2131        2        /*T*                                                         */
     2132        3        /*T* Copyright (c) Bull HN Information Systems Inc., 1997    */
     2133        4        /*T*                                                         */
     2134        5        /*T***********************************************************/
     2135        6        FLAG_OWNER:
     2136        7            PROC (RC_PTR$);

      7  4 000000   000000 700200 xent  FLAG_OWNER   TSX0  ! X66_AUTO_1
         4 000001   000010 000001                    ZERO    8,1

     2137        8    1   DCL RC_PTR$ PTR;
     2138        9    1   DCL PT1PTR$ PTR AUTO;
     2139       10    1   DCL PT2PTR$ PTR AUTO;
     2140       11        %INCLUDE ZIG_SSS;
     2141      581        %SS_GENERAL(PSTCLASS=EXT);
     2142      602        %RC(PSTCLASS=EXT);
     2143      635        %SC(PSTCLASS=EXT);
     2144      662        %RS(PSTCLASS=EXT);
     2145      736    1       RC_PTR$ -> RC.DEF.RERA = '1'B;

    736  4 000002   200003 470500                    LDP0    @RC_PTR$,,AUTO
         4 000003   000000 471500                    LDP1    0,,PR0
         4 000004   004000 236007                    LDQ     2048,DL
         4 000005   100000 256100                    ORSQ    0,,PR1

     2146      737    1       PT1PTR$ = PINCRW(SSS$, RC_PTR$ -> RC.RCRSN);

    737  4 000006   000000 471500                    LDP1    0,,PR0
         4 000007   100002 720100                    LXL0    2,,PR1
         4 000010   000000 636010                    EAQ     0,X0
         4 000011   000000 036000 0                  ADLQ    SSS$
         4 000012   200004 756100                    STQ     PT1PTR$,,AUTO

     2147      738    2       DO WHILE (PT1PTR$ ~= SSS$);

PL6.E3A0      #002=FLAG_OWNER File=ZIG$V_DRIVER.:ZIC0TSI                         FRI 09/05/97 12:21 Page:349
    738  4 000013   000000 116000 0                  CMPQ    SSS$
         4 000014   000055 600000 4                  TZE     s:751

     2148      739    2           IF PT1PTR$ -> RS.DEF.TYPE = '000000100000'B

    739  4 000015   200004 470500                    LDP0    PT1PTR$,,AUTO
         4 000016   000000 236100                    LDQ     0,,PR0
         4 000017   777700 376003                    ANQ     -64,DU
         4 000020   004000 116003                    CMPQ    2048,DU
         4 000021   000046 601000 4                  TNZ     s:749

     2149      740    3           THEN DO;

     2150      741    3               PT2PTR$ = PINCRW(SSS$, PT1PTR$ -> RS.SCRSH);

    741  4 000022   000003 720100                    LXL0    3,,PR0
         4 000023   000000 636010                    EAQ     0,X0
         4 000024   000000 036000 0                  ADLQ    SSS$
         4 000025   200005 756100                    STQ     PT2PTR$,,AUTO

     2151      742    3               PT2PTR$ = PINCRW(SSS$, PT2PTR$ -> SC.SCRSN);

    742  4 000026   200005 471500                    LDP1    PT2PTR$,,AUTO
         4 000027   100002 220100                    LDX0    2,,PR1
         4 000030   000000 636010                    EAQ     0,X0
         4 000031   000000 036000 0                  ADLQ    SSS$
         4 000032   200005 756100                    STQ     PT2PTR$,,AUTO

     2152      743        /*
     2153      744              Got the SC record.
     2154      745        */
     2155      746    3               PT2PTR$ = PINCRW(SSS$, PT2PTR$ -> RS.RCRSH);

    746  4 000033   200005 471500                    LDP1    PT2PTR$,,AUTO
         4 000034   100003 220100                    LDX0    3,,PR1
         4 000035   000000 636010                    EAQ     0,X0
         4 000036   000000 036000 0                  ADLQ    SSS$
PL6.E3A0      #002=FLAG_OWNER File=ZIG$V_DRIVER.:ZIC0TSI                         FRI 09/05/97 12:21 Page:350
         4 000037   200005 756100                    STQ     PT2PTR$,,AUTO

     2156      747    3               CALL FLAG_OWNER(PT2PTR$);

    747  4 000040   200005 631500                    EPPR1   PT2PTR$,,AUTO
         4 000041   200006 451500                    STP1    PT2PTR$+1,,AUTO
         4 000042   200006 630500                    EPPR0   PT2PTR$+1,,AUTO
         4 000043   000000 631400 5                  EPPR1   0
         4 000044   000000 701000 4                  TSX1    s:7
         4 000045   000000 011000                    NOP     0

     2157      748    3               END;

     2158      749    2           PT1PTR$ = PINCRW(SSS$, PT1PTR$ -> RS.RCRSN);

    749  4 000046   200004 470500                    LDP0    PT1PTR$,,AUTO
         4 000047   000002 720100                    LXL0    2,,PR0
         4 000050   000000 636010                    EAQ     0,X0
         4 000051   000000 036000 0                  ADLQ    SSS$
         4 000052   200004 756100                    STQ     PT1PTR$,,AUTO

     2159      750    2           END;

    750  4 000053   000000 116000 0                  CMPQ    SSS$
         4 000054   000015 601000 4                  TNZ     s:739

     2160      751    1       RETURN;

    751  4 000055   000000 702200 xent               TSX2  ! X66_ARET

(unnamed)
 Sect OctLoc
   5     000   000001 000000                                                    ....
     2161      752    1   END FLAG_OWNER;

PL6.E3A0      #002=FLAG_OWNER File=ZIG$V_DRIVER.:ZIC0TSI                         FRI 09/05/97 12:21 Page:351
--  Include file information  --

   ZIG_SSS.:ZIC0TOU  is referenced.
   B$JIT_C.:E05TOU  was found in the system file and is never referenced.
   CP_6_C.:E05TOU  was found in the system file and is never referenced.
      No diagnostics issued in procedure FLAG_OWNER.

   Procedure FLAG_OWNER requires 46 words for executable code.
   Procedure FLAG_OWNER requires 8 words of local(AUTO) storage.

    No errors detected in file ZIG$V_DRIVER.:ZIC0TSI    .
PL6.E3A0      #002=FLAG_OWNER File=ZIG$V_DRIVER.:ZIC0TSI                         FRI 09/05/97 12:21 Page:352
          *** CROSS REFERENCE LISTING ***
**     DENOTES     IDENTIFIER DEFINITION
<<                 IDENTIFIER'S VALUE SET
>>                 IDENTIFIER'S VALUE USED
<>                 IDENTIFIER SET AND/OR USED
--                 IDENTIFIER REFERENCED
PL6.E3A0      #002=FLAG_OWNER File=ZIG$V_DRIVER.:ZIC0TSI                         FRI 09/05/97 12:21 Page:353
          MINI XREF LISTING

FLAG_OWNER
         6**PROC      747--CALL
PT1PTR$
         9**DCL       737<<ASSIGN    738>>DOWHILE   739>>IF        741>>ASSIGN    749<<ASSIGN    749>>ASSIGN
PT2PTR$
        10**DCL       741<<ASSIGN    742<<ASSIGN    742>>ASSIGN    746<<ASSIGN    746>>ASSIGN    747<>CALL
RC.DEF.RERA
       617**DCL       736<<ASSIGN
RC.DEF.RNL
       622**DCL       632--IMP-SIZ
RC.RCRSN
       626**DCL       737>>ASSIGN
RC$
       605**DCL       606--IMP-PTR
RC_PTR$
         8**DCL         6--PROC      736>>ASSIGN    737>>ASSIGN
RS.DEF.TYPE
       667**DCL       739>>IF
RS.NPOS
       690**DCL       699--REDEF
RS.RCRSH
       688**DCL       746>>ASSIGN
RS.RCRSN
       687**DCL       749>>ASSIGN
RS.SCRSH
       689**DCL       741>>ASSIGN
RS$
       664**DCL       665--IMP-PTR
SC.DEF.SNL
       651**DCL       656--IMP-SIZ
SC.SCRSN
       654**DCL       742>>ASSIGN
PL6.E3A0      #002=FLAG_OWNER File=ZIG$V_DRIVER.:ZIC0TSI                         FRI 09/05/97 12:21 Page:354
SC$
       638**DCL       639--IMP-PTR
SSS$
       600**DCL       737>>ASSIGN    738>>DOWHILE   741>>ASSIGN    742>>ASSIGN    746>>ASSIGN    749>>ASSIGN
