
PL6.E3A0      #001=ZIG$V_PRINT File=ZIG$V_PRINT.:ZIC0TSI                         FRI 09/05/97 12:22 Page:1
        1        1        /*M*     ZIG$V_PRINT    I-D-S/II       DBACS */
        2        2        /*T***********************************************************/
        3        3        /*T*                                                         */
        4        4        /*T* Copyright (c) Bull HN Information Systems Inc., 1997    */
        5        5        /*T*                                                         */
        6        6        /*T***********************************************************/
        7        7        /*P*
        8        8        NAME:    ZIG$V_PRINT
        9        9        PURPOSE:
       10       10              This subroutine print out the structure in the schema subset
       11       11            for the subschema file.
       12       12        */
       13       13        ZIG$V_PRINT:
       14       14            PROC;
       15       15        %EJECT;
PL6.E3A0      #001=ZIG$V_PRINT File=ZIG$V_PRINT.:ZIC0TSI                         FRI 09/05/97 12:22 Page:2
       16       16        %INCLUDE ZIG_DIR_STRUCS;
       17      146        %INCLUDE ZI_ERRORS_SUBS;
       18      666        %INCLUDE ZIG_GENERAL;
       19      774        %INCLUDE B_MICROPS_C;
       20      946        %INCLUDE ZI_SUB_LANG;
       21     2661        %CONTROL_BLOCK;
       22     2769        %GENERAL;
       23     2893        /*
       24     2894              Now comes the sturctures for the schema subset.
       25     2895        */
       26     2896        %INCLUDE ZIG_SSS;
       27     3466        %SS_GENERAL(PSTCLASS=EXT);
       28     3487        %AC(PSTCLASS=EXT);
       29     3582        %AC1(PSTCLASS=EXT);
       30     3590        %FR(PSTCLASS=EXT);
       31     3636        %FR1(PSTCLASS=EXT);
       32     3644        %SC(PSTCLASS=EXT);
       33     3671        %SC1(PSTCLASS=EXT);
       34     3681        %RC(PSTCLASS=EXT);
       35     3714        %RC1(PSTCLASS=EXT);
       36     3724        %OA(PSTCLASS=EXT);
       37     3791        %OA1(PSTCLASS=EXT);
       38     3799        %RA(PSTCLASS=EXT);
       39     3819        %RS(PSTCLASS=EXT);
       40     3893        %SM1(PSTCLASS=EXT);
       41     3901        %SS(PSTCLASS=EXT);
       42     3915        %CD(PSTCLASS=EXT);
       43     3934        %DP(PSTCLASS=EXT);
       44     3948        %DP1(PSTCLASS=EXT);
       45     3956        %AG(PSTCLASS=EXT);
       46     3986        %AG1(PSTCLASS=EXT);
       47     3994        %EJECT;
PL6.E3A0      #001=ZIG$V_PRINT File=ZIG$V_PRINT.:ZIC0TSI                         FRI 09/05/97 12:22 Page:3
       48     3995    1   DCL READSF ENTRY (2);
       49     3996    1   DCL READ64 ENTRY (2);
       50     3997    1   DCL LIST_STRING CHAR (128) EXT;
       51     3998    1   DCL START UBIN (36) STATIC;
       52     3999    1   DCL BL CHAR (120) STATIC INIT (' ');
       53     4000    1   DCL FIRST_PART CHAR (30) STATIC;
       54     4001    1   DCL SECOND_PART CHAR (12) STATIC;
       55     4002    1   DCL SECOND_PART_STR CHAR (30) STATIC;
       56     4003    1   DCL I UBIN (36) STATIC;
       57     4004    1   DCL MOPSTR (0:1) BIT(9) CONSTANT INIT(%MVZB11, %MVC1);
       58     4005    1   DCL CHAR_1 CHAR (1) STATIC;
       59     4006    1   DCL SECOND_OCTAL CHAR(13) STATIC;
       60     4007    1   DCL AREA_HEADING CHAR (64) STATIC INIT ('SUBSCHEMA AREAS:');
       61     4008    1   DCL MAIN_HEADING CHAR (64) STATIC INIT ('SCHEMA SUBSET PRINT.');
       62     4009    1   DCL RECORD_HEADING CHAR (64) STATIC INIT ('SUBSCHEMA RECORDS:');
       63     4010    1   DCL K UBIN (36) STATIC;
       64     4011    1   DCL L UBIN (36) STATIC;
       65     4012    1   DCL TPTR$ PTR STATIC;
       66     4013    1   DCL SET_HEADING CHAR (64) STATIC INIT('SUBSCHEMA SETS:');
       67     4014    1   DCL TYPE_RS CHAR (2) STATIC;
       68     4015    1   DCL TEMP_STR CHAR (30) STATIC;
       69     4016    1   DCL TEMP_RC$ PTR STATIC;
       70     4017    1   DCL TEMP_FR$ PTR STATIC;
       71     4018    1   DCL T3PTR$ PTR STATIC;
       72     4019    1   DCL MODE UBIN (36) STATIC INIT (0);
       73     4020    1   DCL FIR_SW UBIN (36) EXT;
       74     4021    1   DCL WRIT64 ENTRY (2);
       75     4022    1   DCL CLOSE_64 ENTRY ;
       76     4023    1   DCL J UBIN (36) EXT;
       77     4024        %EJECT;
PL6.E3A0      #001=ZIG$V_PRINT File=ZIG$V_PRINT.:ZIC0TSI                         FRI 09/05/97 12:22 Page:4
       78     4025    1   PRINT:
       79     4026    1       PROC(HEADING,NUM);
       80     4027    2   DCL HEADING CHAR (30);
       81     4028    2   DCL NUM UBIN (36);
       82     4029    2   DCL I UBIN (36);
       83     4030    2       CALL INDEX1(I,'^',HEADING);
       84     4031    2       FIRST_PART = SUBSTR(HEADING,0,I);
       85     4032    2       CALL BINCHAR(SECOND_PART,NUM);
       86     4033    2       CALL EDITCHAR(SECOND_PART,0,12,MOPSTR,SECOND_PART);
       87     4034    2       CALL CONCAT(LIST_STRING,SUBSTR(BL,0,START),FIRST_PART,SECOND_PART);
       88     4035    2       CALL LIST(LIST_STRING);
       89     4036    2   END PRINT;
       90     4037        %EJECT;
PL6.E3A0      #001=ZIG$V_PRINT File=ZIG$V_PRINT.:ZIC0TSI                         FRI 09/05/97 12:22 Page:5
       91     4038    1   PRINT_S:
       92     4039    1       PROC(HEADING,STR);
       93     4040    2   DCL HEADING CHAR (60);
       94     4041    2   DCL STR CHAR (30);
       95     4042    2   DCL I UBIN (36);
       96     4043    2       CALL INDEX1(I,'^',HEADING);
       97     4044    2       FIRST_PART = SUBSTR(HEADING,0,I);
       98     4045    2       CALL INDEX1(I,' ',STR);
       99     4046    2       SECOND_PART_STR = SUBSTR(STR,0,I);
      100     4047    2       CALL CONCAT(LIST_STRING,SUBSTR(BL,0,START),FIRST_PART,SECOND_PART_STR);
      101     4048    2       CALL LIST(LIST_STRING);
      102     4049    2   END PRINT_S;
      103     4050        %EJECT;
PL6.E3A0      #001=ZIG$V_PRINT File=ZIG$V_PRINT.:ZIC0TSI                         FRI 09/05/97 12:22 Page:6
      104     4051    1   PRINT_O:
      105     4052    1       PROC(HEADING,LEN,NUM);
      106     4053    2   DCL HEADING CHAR (30);
      107     4054    2   DCL LEN UBIN (36);
      108     4055    2   DCL 1 NUM(0:0) UBIN (3) UNAL;
      109     4056    2   DCL I UBIN (36);
      110     4057    2   DCL K UBIN (36);
      111     4058    2       CALL INDEX1(I,'^',HEADING);
      112     4059    2       FIRST_PART = SUBSTR(HEADING,0,I);
      113     4060    2       SECOND_OCTAL = ' ';
      114     4061    3       DO I = 1 TO LEN/3;
      115     4062    3           K = I - 1;
      116     4063    3           IF I = 6
      117     4064    4           THEN DO;
      118     4065    4               CALL INSERT(SECOND_OCTAL,6,1,'.');
      119     4066    4               END;
      120     4067    3           IF I>6 THEN K = K + 1;
      121     4068    3           CALL BINCHAR(CHAR_1,NUM(I-1));
      122     4069    3           CALL INSERT(SECOND_OCTAL,K,1,CHAR_1);
      123     4070    3           END;
      124     4071    2       CALL CONCAT(LIST_STRING,SUBSTR(BL,0,START),FIRST_PART,SECOND_OCTAL);
      125     4072    2       CALL LIST(LIST_STRING);
      126     4073    2   END PRINT_O;
      127     4074        %EJECT;
PL6.E3A0      #001=ZIG$V_PRINT File=ZIG$V_PRINT.:ZIC0TSI                         FRI 09/05/97 12:22 Page:7
      128     4075    1   PRINT_O_ID:
      129     4076    1       PROC(HEADING,LEN,NUM,ID);
      130     4077    2   DCL HEADING CHAR (30);
      131     4078    2   DCL LEN UBIN (36);
      132     4079    2   DCL 1 NUM(0:0) UBIN (3) UNAL;
      133     4080    2   DCL I UBIN (36);
      134     4081    2   DCL K UBIN (36);
      135     4082    2   DCL ID UBIN (36);
      136     4083    2       CALL INDEX1(I,'^',HEADING);
      137     4084    2       FIRST_PART = SUBSTR(HEADING,0,I);
      138     4085    2       SECOND_OCTAL = ' ';
      139     4086    3       DO I = 1 TO LEN/3;
      140     4087    3           K = I - 1;
      141     4088    3           IF I = 6
      142     4089    4           THEN DO;
      143     4090    4               CALL INSERT(SECOND_OCTAL,6,1,'.');
      144     4091    4               END;
      145     4092    3           IF I>6 THEN K = K + 1;
      146     4093    3           CALL BINCHAR(CHAR_1,NUM(K));
      147     4094    3           CALL INSERT(SECOND_OCTAL,K,1,CHAR_1);
      148     4095    3           END;
      149     4096    2       CALL BINCHAR(SECOND_PART,ID);
      150     4097    2       CALL EDITCHAR(SECOND_PART,0,12,MOPSTR,SECOND_PART);
      151     4098    2       CALL CONCAT(LIST_STRING,SUBSTR(BL,0,START),FIRST_PART,SECOND_OCTAL
      152     4099    2          ,'  ID ',SECOND_PART);
      153     4100    2       CALL LIST(LIST_STRING);
      154     4101    2   END PRINT_O_ID;
      155     4102        %EJECT;
PL6.E3A0      #001=ZIG$V_PRINT File=ZIG$V_PRINT.:ZIC0TSI                         FRI 09/05/97 12:22 Page:8
      156     4103    1   GET_NUM:
      157     4104    1       PROC(STR,NUM);
      158     4105    2   DCL STR CHAR (12);
      159     4106    2   DCL NUM UBIN (36);
      160     4107    2       CALL BINCHAR(STR,NUM);
      161     4108    2       CALL EDITCHAR(STR,0,12,MOPSTR,STR);
      162     4109    2       RETURN;
      163     4110    2   END GET_NUM;
      164     4111        %EJECT;
PL6.E3A0      #001=ZIG$V_PRINT File=ZIG$V_PRINT.:ZIC0TSI                         FRI 09/05/97 12:22 Page:9
      165     4112    1   PRINT_CD:
      166     4113    1       PROC;
      167     4114    2       IF CD.DEF.TYPE ~= '000000000100'B
      168     4115    2       THEN CALL ABORT;
      169     4116    2       CALL PRINT_O_ID('**** CD DEF^',36,CD.DEF,POFFW(CD$,SSS$));
      170     4117    2       TEMP_FR$ = PINCRW(SSS$,CD.CDSH);
      171     4118    2       IF TEMP_FR$ ~= SSS$
      172     4119    3       THEN DO;
      173     4120    3           TEMP_RC$ = PINCRW(SSS$,TEMP_FR$ -> FR.RCFRH);
      174     4121    3           CALL BINCHAR(SECOND_PART,CD.CDSH);
      175     4122    3           CALL EDITCHAR(SECOND_PART,0,12,MOPSTR,SECOND_PART);
      176     4123    3           CALL CONCAT(LIST_STRING,'               (S) FR ',TEMP_FR$ ->
      177     4124    3              FR.FNAM,SECOND_PART,'  RC - ',TEMP_RC$ -> RC.RNAM);
      178     4125    3           CALL LIST(LIST_STRING);
      179     4126    3           END;
      180     4127    2       TEMP_FR$ = PINCRW(SSS$,CD.CDRH);
      181     4128    2       IF TEMP_FR$ ~= SSS$
      182     4129    3       THEN DO;
      183     4130    3           TEMP_RC$ = PINCRW(SSS$,TEMP_FR$ -> FR.RCFRH);
      184     4131    3           CALL BINCHAR(SECOND_PART,CD.CDRH);
      185     4132    3           CALL EDITCHAR(SECOND_PART,0,12,MOPSTR,SECOND_PART);
      186     4133    3           CALL CONCAT(LIST_STRING,'               (R) FR ',TEMP_FR$ ->
      187     4134    3              FR.FNAM,SECOND_PART,'  RC - ',TEMP_RC$ -> RC.RNAM);
      188     4135    3           CALL LIST(LIST_STRING);
      189     4136    3           END;
      190     4137    2       T3PTR$ = PINCRW(SSS$,CD.RSCDH);
      191     4138    2       IF T3PTR$ -> SS.DEF.TYPE = '000000001000'B
      192     4139    2       THEN T3PTR$ = PINCRW(SSS$,T3PTR$ -> SS.RSSSH);
      193     4140    2       T3PTR$ = PINCRW(SSS$,T3PTR$ -> RS.SCRSH);
      194     4141    2       SECOND_PART_STR = T3PTR$ -> SC.SNAM;
      195     4142    2       CALL PRINT_S('For the set^',SECOND_PART_STR);
      196     4143    2   END PRINT_CD;
      197     4144        %EJECT;
PL6.E3A0      #001=ZIG$V_PRINT File=ZIG$V_PRINT.:ZIC0TSI                         FRI 09/05/97 12:22 Page:10
      198     4145    1       CALL READ64(0,ADDR(CONTROL));
      199     4146    1       IF J ~= 13
      200     4147    2       THEN DO;
      201     4148    2           CALL SUBLST(MAIN_HEADING);
      202     4149    2           START = 1;
      203     4150    2           CALL PRINT('VALIDATION STATUS^',CONTROL.VALIDATION_STATUS);
      204     4151    2           CALL PRINT('TRANSLATION STATUS^',CONTROL.TRANSLATION_STATUS);
      205     4152    2           CALL PRINT('UWA SIZE^',CONTROL.UWA_SIZE);
      206     4153    2           CALL PRINT('NUMBER AREAS^',CONTROL.NUM_AREAS);
      207     4154    2           CALL PRINT('NUMBER RECORDS^',CONTROL.NUM_RECORDS);
      208     4155    2           CALL PRINT('NUMBER FIELDS^',CONTROL.NUM_FIELDS);
      209     4156    2           CALL PRINT('NUMBER SETS^',CONTROL.NUM_SETS);
      210     4157    2           CALL PRINT('NUMBER RECORD SET^',CONTROL.NUM_REC_SET_REL);
      211     4158    2           CALL PRINT('NUMBER DB PARAMS^',CONTROL.NUM_DB_PARAM);
      212     4159    2           CALL PRINT_S('SCHEMA NAME^',CONTROL.SCHEMA_NAME);
      213     4160    2           CALL PRINT_S('SUBSCHEMA NAME^',CONTROL.SUBSCHEMA_NAME);
      214     4161    2           CALL PRINT_S('SUBSCHEMA LANGUAGE^',LANG_TEXT(CONTROL.LANGUAGE));
      215     4162    2           CALL PRINT_O('TRANSLATION UTS^',36,CONTROL.SUBSCHEMA_UTS);
      216     4163    2           CALL PRINT_O('VALIDATION UTS^',36,CONTROL.VALIDATION_UTS);
      217     4164    2           CALL PRINT('NEXT AVAILABLE RECORD^',CONTROL.NEXT_AVAILABLE_RECORD);
      218     4165    2           CALL PRINT('FIRST CU RECORD^',CONTROL.FIRST_CU_RECORD);
      219     4166    2           CALL PRINT('FIRST NF RECORD^',CONTROL.FIRST_NF_RECORD);
      220     4167    2           CALL PRINT('FIRST SDS RECORD^',CONTROL.FIRST_SDS_RECORD);
      221     4168    2           CALL PRINT('FIRST NFE RECORD^',CONTROL.FIRST_NFE_RECORD);
      222     4169    2           CALL PRINT('SIZE SCHEMA SUBSET^',CONTROL.FIRST_ISS_BLOCK);
      223     4170    2           END;
      224     4171        %EJECT;
PL6.E3A0      #001=ZIG$V_PRINT File=ZIG$V_PRINT.:ZIC0TSI                         FRI 09/05/97 12:22 Page:11
      225     4172    1       CALL ZIG$G_DYN_MEM_6(CONTROL.FIRST_ISS_BLOCK,SSS$);
      226     4173    1       SUBSCHEMA_KEY = ' SSS KEY';
      227     4174    1       SPECIAL_KEY.COUNT = 7;
      228     4175    1       BUFFER$ = SSS$;
      229     4176    1       BUFFER_LEN = ( CONTROL.FIRST_ISS_BLOCK * 4 ) -1;
      230     4177    1       CALL ZIG$SS_RVAR;
      231     4178    1       OA$ = PINCRW(SSS$,1);
      232     4179    1       IF J = 13
      233     4180    2       THEN DO;
      234     4181    2           CALL CLOSE_64;
      235     4182    2           RETURN;
      236     4183    2           END;
      237     4184        /*   If we are replaceing the schema subset shared version then
      238     4185            we return here and don't print the subschema.
      239     4186        */
      240     4187        /*
      241     4188              The schema subset is now in memory so now start going throw
      242     4189            the structures.
      243     4190        */
      244     4191    1       START = 6;
      245     4192    1       CALL PRINT_O('OA DEF^',18,OA.DEF);
      246     4193    1       I = OA.SZISS;
      247     4194    1       CALL PRINT('SCHEMA SUBSET INT SIZE^',I);
      248     4195    1       I = OA.UWSSZ;
      249     4196    1       CALL PRINT('SCHEMA SUBSET SIZE^',I);
      250     4197    1       CALL PRINT_O('SCHEMA NAME EIS^',36,OA.SCNAM);
      251     4198    1       CALL PRINT_O('SUBSCHEMA NAME EIS^',36,OA.SSNAM);
      252     4199    1       CALL PRINT_O('SCHEMA TRANSLATION UTS^',36,OA.SSDT);
      253     4200    1       CALL PRINT_O('SCHEMA VALIDATION UTS^',36,OA.SSVDT);
      254     4201    1       I = OA.ACNT;
      255     4202    1       CALL PRINT('NUMBER AREAS^',I);
      256     4203    1       I = OA.CSZ;
      257     4204    1       CALL PRINT('SIZE OF CURRENCIES^',I);
      258     4205    1       I = OA.LRSZ;
      259     4206    1       CALL PRINT('LARGEST RECORD IS^',I);
      260     4207    1       I = OA.UWSZ;
      261     4208    1       CALL PRINT('UWA SIZE^',I);
PL6.E3A0      #001=ZIG$V_PRINT File=ZIG$V_PRINT.:ZIC0TSI                         FRI 09/05/97 12:22 Page:12
      262     4209    1       I = OA.LSSZ;
      263     4210    1       CALL PRINT('LINKAGE SECTION SIZE^',I);
      264     4211    1       I = OA.KPASZ;
      265     4212    1       CALL PRINT('KEY PROCESSING SIZE^',I);
      266     4213    1       I = OA.LPASZ;
      267     4214    1       CALL PRINT('LARGEST PA RECORD^',I);
      268     4215        %EJECT;
PL6.E3A0      #001=ZIG$V_PRINT File=ZIG$V_PRINT.:ZIC0TSI                         FRI 09/05/97 12:22 Page:13
      269     4216        /*
      270     4217              Now do the areas for this schema subset.
      271     4218        */
      272     4219    1       CALL SUBLST(AREA_HEADING);
      273     4220    1       AC$ = PINCRW(SSS$,OA.OAACN);
      274     4221    1       AC1$ = PINCRW(AC$,-1);
      275     4222    2       DO WHILE (AC$ ~= SSS$); /*End of set are 0 */
      276     4223    2           IF AC.DEF.TYPE ~= '010000000000'B
      277     4224    2           THEN CALL ABORT;
      278     4225    2           LIST_STRING=' ';
      279     4226    2           CALL LIST (LIST_STRING);
      280     4227    2           CALL LIST (LIST_STRING);
      281     4228    2           CALL GET_NUM(SECOND_PART,POFFW(AC$,SSS$));
      282     4229    2           CALL CONCAT(LIST_STRING,'      **** AREA NAME IS ',AC.ANAM,
      283     4230    2              ' ID = ',SECOND_PART);
      284     4231    2           CALL LIST(LIST_STRING);
      285     4232    2           START = 10;
      286     4233    2           I = AC.ACID;
      287     4234    2           CALL PRINT('AREA BINDING CODE^',I);
      288     4235    2           CALL PRINT_O('AREA DEF^',36,AC.DEF);
      289     4236    2           CALL PRINT('BASE DBK^',AC.ABAS);
      290     4237    2           I = AC.WSOF;
      291     4238    2           CALL PRINT('WORK SPACE OFFSET^',I);
      292     4239    2           CALL PRINT_O('AREA NAME EIS^',36,AC.SANAM);
      293     4240    2           CALL PRINT('AREA LOW PAGE NUM^',AC.PGLIM.LOWPG);
      294     4241    2           CALL PRINT('AREA HIGH PAGE NUM^',AC.PGLIM.HIGHPG);
      295     4242    2           CALL PRINT('AREA LOW DBK NUM^',AC.DBLIM.LOWDBK);
      296     4243    2           CALL PRINT('AREA HIGH DBK NUM^',AC.DBLIM.HIGHDBK);
      297     4244    2           I = AC.LPP;
      298     4245    2           CALL PRINT('DBKS PER PAGE^',I);
      299     4246    2           I = AC.INTVL;
      300     4247    2           CALL PRINT('DBKS PER CALC HEADER^',I);
      301     4248    2           I = AC.INVT;
      302     4249    2           CALL PRINT('INVENTORY THRESHOLD^',I);
      303     4250    2           I = AC.PGSZ;
      304     4251    2           CALL PRINT('PAGE SIZE^',I);
      305     4252    2           I = AC.BPLDBK;
PL6.E3A0      #001=ZIG$V_PRINT File=ZIG$V_PRINT.:ZIC0TSI                         FRI 09/05/97 12:22 Page:14
      306     4253    2           CALL PRINT('SIZE OF LOCAL DBKS^',I);
      307     4254    2           CALL PRINT_O('AC FLAGS^',18,AC.FLAGS);
      308     4255    2           I = AC.IUSZ;
      309     4256    2           CALL PRINT('INVENTORY UNIT SIZE^',I);
      310     4257    2           I = AC.DPPI;
      311     4258    2           CALL PRINT('DATA PAGES/ INV PAGE^',I);
      312     4259    2           CALL PRINT('FIRST INVENTORY PAGE^',AC.FIPN);
      313     4260    2           CALL PRINT_O('CALC NEXT PTR EIS^',36,AC.CLCN);
      314     4261    2           CALL PRINT_O('CALC PRIOR PTR EIS^',36,AC.CLCP);
      315     4262    2           AC$ = PINCRW(SSS$,AC.OAACN);
      316     4263    2           AC1$ = PINCRW(AC$,-1);
      317     4264    2           END;
      318     4265        /*
      319     4266              Now do the printing of the sets and the keys.
      320     4267        */
      321     4268    1       CALL SUBLST(SET_HEADING);
      322     4269    1       SC$ = PINCRW(SSS$,OA.OASCN);
      323     4270    1       SC1$ = PINCRW(SC$,-2);
      324     4271    2       DO WHILE (SC$ ~= SSS$);
      325     4272    2           IF SC.DEF.TYPE ~= '000100000000'B
      326     4273    2           THEN CALL ABORT;
      327     4274    2           LIST_STRING=' ';
      328     4275    2           CALL LIST (LIST_STRING);
      329     4276    2           CALL LIST (LIST_STRING);
      330     4277    2           CALL GET_NUM(SECOND_PART,POFFW(SC$,SSS$));
      331     4278    2           CALL CONCAT(LIST_STRING,'      **** SET NAME IS ',SC.SNAM,
      332     4279    2              '  ID = ',SECOND_PART);
      333     4280    2           CALL LIST(LIST_STRING);
      334     4281    2           START = 10;
      335     4282    2           I = SC.SCID;
      336     4283    2           CALL PRINT('SET BINDING CODE^',I);
      337     4284    2           CALL PRINT_O('SET DEF^',36,SC.DEF);
      338     4285    2           I = SC.SCWSO;
      339     4286    2           CALL PRINT('SET WORK SPACE OFFSET^',I);
      340     4287    2           IF SC.DEF.SETT = 2 OR SC.DEF.SETT = 3
      341     4288    3           THEN DO;
      342     4289    3               I = SC1.IXID;
PL6.E3A0      #001=ZIG$V_PRINT File=ZIG$V_PRINT.:ZIC0TSI                         FRI 09/05/97 12:22 Page:15
      343     4290    3               CALL PRINT('INDEX ID^',I);
      344     4291    3               I = SC1.KLNG;
      345     4292    3               CALL PRINT('LENGTH OF KEY (BYTES)^',I);
      346     4293    3               END;
      347     4294        /*
      348     4295              Now for this set print out all the SO , SM , SS , and CF
      349     4296            records for this set.
      350     4297        */
      351     4298    2           RS$ = PINCRW(SSS$,SC.SCRSN);
      352     4299    3           DO WHILE (RS$ ~= SSS$);
      353     4300    3               IF RS.DEF.TYPE ~= '000001000000'B AND
      354     4301    3                  RS.DEF.TYPE ~= '000000100000'B
      355     4302    3               THEN CALL ABORT;
      356     4303    3               LIST_STRING = ' ';
      357     4304    3               CALL LIST(LIST_STRING);
      358     4305    3               IF RS.DEF.TYPE = '000001000000'B
      359     4306    3               THEN TYPE_RS = 'SO';
      360     4307    3               ELSE TYPE_RS = 'SM';
      361     4308    3               START=10;
      362     4309    3               CALL GET_NUM(SECOND_PART,POFFW(RS$,SSS$));
      363     4310    3               CALL CONCAT(LIST_STRING,'**** SET ',TYPE_RS,' ID = ',
      364     4311    3                  SECOND_PART,'   RECORD^');
      365     4312    3               RC$ = PINCRW(SSS$,RS.RCRSH);
      366     4313    3               TEMP_STR = RC.RNAM;
      367     4314    3               CALL PRINT_S(LIST_STRING,TEMP_STR);
      368     4315    3               START = 12;
      369     4316    3               CALL PRINT_O('RS DEF^',36,RS.DEF);
      370     4317    3               CALL PRINT_O('RS NEXT POINTER EIS^',36,RS.NPOS);
      371     4318    3               CALL PRINT_O('RS PRIOR POINTER EIS^',36,RS.PPOS);
      372     4319    3               IF TYPE_RS = 'SM'
      373     4320    4               THEN DO;
      374     4321    4                   CALL PRINT_O('RS HEAD POINTER EIS^',36,RS.HPOS);
      375     4322    4                   END;
      376     4323    3               SS$ = PINCRW(SSS$,RS.RSSSN);
      377     4324    4               DO WHILE(SS$ ~= SSS$ AND TYPE_RS ~= 'SO');
      378     4325    4                   IF SS.DEF.TYPE ~= '000000001000'B
      379     4326    4                   THEN CALL ABORT;
PL6.E3A0      #001=ZIG$V_PRINT File=ZIG$V_PRINT.:ZIC0TSI                         FRI 09/05/97 12:22 Page:16
      380     4327    4                   LIST_STRING = ' ';
      381     4328    4                   CALL LIST(LIST_STRING);
      382     4329    4                   START = 10;
      383     4330    4                   CALL PRINT_O_ID('**** SS REC^',18,SS.DEF,POFFW(SS$,SSS$));
      384     4331    4                   I = SS.SSH;
      385     4332    4                   CALL PRINT('RS SEARCH POINTER^',I);
      386     4333    4                   CD$ = PINCRW(SSS$,SS.RSCDN);
      387     4334    4                   START = 15;
      388     4335    5                   DO WHILE (CD$ ~= SSS$);
      389     4336    5                       CALL PRINT_CD;
      390     4337    5                       CD$ = PINCRW(SSS$,CD.RSCDN);
      391     4338    5                       END;
      392     4339    4                   SS$ = PINCRW(SSS$,SS.RSSSN);
      393     4340    4                   END;
      394     4341    3               CD$ = PINCRW(SSS$,RS.RSCDN);
      395     4342    3               IF CD$ ~= SSS$ AND TYPE_RS ~= 'SO'
      396     4343    4               THEN DO;
      397     4344    4                   LIST_STRING = ' ';
      398     4345    4                   CALL LIST(LIST_STRING);
      399     4346    4                   CALL CONCAT(LIST_STRING,'            **** FROM ',TYPE_RS);
      400     4347    4                   CALL LIST(LIST_STRING);
      401     4348    4                   END;
      402     4349    4               DO WHILE(CD$ ~= SSS$ AND TYPE_RS ~= 'SO');
      403     4350    4                   CALL PRINT_CD;
      404     4351    4                   CD$ = PINCRW(SSS$,CD.RSCDN);
      405     4352    4                   END;
      406     4353    3               RS$ = PINCRW(SSS$,RS.SCRSN);
      407     4354    3               END;
      408     4355    2           SC$ = PINCRW(SSS$,SC.OASCN);
      409     4356    2           SC1$ = PINCRW(SC$, -2);
      410     4357    2           END;
      411     4358        /*
      412     4359              Now print out the RC records and the FR record.
      413     4360        */
      414     4361    1       RC$ = PINCRW(SSS$,OA.OARCN);
      415     4362    1       RC1$ = PINCRW(RC$, -2);
      416     4363    1       CALL SUBLST(RECORD_HEADING);
PL6.E3A0      #001=ZIG$V_PRINT File=ZIG$V_PRINT.:ZIC0TSI                         FRI 09/05/97 12:22 Page:17
      417     4364    2       DO WHILE (RC$ ~= SSS$);
      418     4365    2           IF RC.DEF.TYPE ~= '001000000000'B
      419     4366    2           THEN CALL ABORT;
      420     4367    2           LIST_STRING = ' ';
      421     4368    2           CALL LIST(LIST_STRING);
      422     4369    2           CALL LIST(LIST_STRING);
      423     4370    2           CALL GET_NUM(SECOND_PART,POFFW(RC$,SSS$));
      424     4371    2           CALL CONCAT(LIST_STRING,'     ** RECORD NAME IS ',RC.RNAM,
      425     4372    2              ' ID = ',SECOND_PART);
      426     4373    2           CALL LIST(LIST_STRING);
      427     4374    2           I = RC.RCID;
      428     4375    2           START = 10;
      429     4376    2           CALL PRINT('RECORD ID^',I);
      430     4377    2           CALL PRINT_O('RC DEF^',36,RC.DEF);
      431     4378    2           I =RC.RSIZ;
      432     4379    2           CALL PRINT('RECORD SIZE (BYTES)^',I);
      433     4380    2           I =RC.RCWSO;
      434     4381    2           CALL PRINT('RECORD WORK SPACE OFFSET^',I);
      435     4382    2           I = RC.RTYP;
      436     4383    2           CALL PRINT('RECORD TYPE IS^',I);
      437     4384    2           I = RC1.OTVL;
      438     4385    2           CALL PRINT('OFFSET VARIABLE LEN DATA^',I);
      439     4386    2           RA$ = PINCRW(SSS$,RC.RCRAN);
      440     4387    3           DO WHILE (RA$ ~= SSS$);
      441     4388    3               IF RA.DEF.TYPE ~= '000010000000'B AND
      442     4389    3                  RA.DEF.TYPE ~= '000010000001'B
      443     4390    3               THEN CALL ABORT;
      444     4391    3               LIST_STRING = ' ';
      445     4392    3               CALL LIST(LIST_STRING);
      446     4393    3               START = 15;
      447     4394    3               AC$ = PINCRW(SSS$,RA.ACRAH);
      448     4395    3               CALL CONCAT(LIST_STRING,'          *** RA  AC ( ',
      449     4396    3                  AC.ANAM,' )');
      450     4397    3               CALL LIST(LIST_STRING);
      451     4398    3               CALL PRINT_O('RA DEF^',18,RA.DEF);
      452     4399    3               CALL PRINT('RA LOW DBK^',RA.PGRNG.LOWDBK);
      453     4400    3               CALL PRINT('RA HIGH DBK^',RA.PGRNG.HIGHDBK);
PL6.E3A0      #001=ZIG$V_PRINT File=ZIG$V_PRINT.:ZIC0TSI                         FRI 09/05/97 12:22 Page:18
      454     4401    3               IF RA.DEF.TYPE = '000010000001'B
      455     4402    4               THEN DO;
      456     4403    4                   CALL PRINT('NUM CALC HDR IN RANGE^',RA.NCHRS);
      457     4404    4                   CALL PRINT('DISPLACEMENT TO CALC HDR^',RA.CHRD);
      458     4405    4                   END;
      459     4406    3               RA$ = PINCRW(SSS$,RA.RCRAN);
      460     4407    3               END;
      461     4408    2           FR$ = PINCRW(SSS$,RC.RCFRN);
      462     4409    2           FR1$ = PINCRW(FR$,-1);
      463     4410    3           DO WHILE (FR$ ~= SSS$);
      464     4411    3               IF FR.DEF.TYPE ~= '000000010000'B
      465     4412    3               THEN CALL ABORT;
      466     4413    3               LIST_STRING = ' ';
      467     4414    3               CALL LIST(LIST_STRING);
      468     4415    3               CALL GET_NUM(SECOND_PART,POFFW(FR$,SSS$));
      469     4416    3               FIRST_PART = FR.FNAM;
      470     4417    3               CALL CONCAT(LIST_STRING,'          *** FR ',
      471     4418    3                  FIRST_PART,'  ID = ',SECOND_PART);
      472     4419    3               CALL LIST(LIST_STRING);
      473     4420    3               CALL PRINT_O('FR DEF^',36,FR.DEF);
      474     4421    3               CALL PRINT_O('RECORD OFFSET EIS^',36,FR.ROFST);
      475     4422    3               CALL PRINT_O('UWA OFFSET EIS^',36,FR.UOFST);
      476     4423    3               I = FR.FRWSO;
      477     4424    3               CALL PRINT('WORK SPACE OFFSET^',I);
      478     4425    3               I = FR1.NLIND;
      479     4426    3               CALL PRINT('BIT OFFSET TO NULL^',I);
      480     4427    3               CD$ = PINCRW(SSS$,FR.CDSN);
      481     4428    4               DO WHILE (CD$ ~= SSS$);
      482     4429    4                   CALL PRINT_CD;
      483     4430    4                   CD$ = PINCRW(SSS$,CD.CDSN);
      484     4431    4                   END;
      485     4432    3               CD$ = PINCRW(SSS$,FR.CDRN);
      486     4433    4               DO WHILE (CD$ ~= SSS$);
      487     4434    4                   CALL PRINT_CD;
      488     4435    4                   CD$ = PINCRW(SSS$,CD.CDRN);
      489     4436    4                   END;
      490     4437    3               FR$ = PINCRW(SSS$,FR.RCFRN);
PL6.E3A0      #001=ZIG$V_PRINT File=ZIG$V_PRINT.:ZIC0TSI                         FRI 09/05/97 12:22 Page:19
      491     4438    3               FR1$ = PINCRW(FR$, -1);
      492     4439    3               END;
      493     4440    2           RS$ = PINCRW(SSS$,RC.RCRSN);
      494     4441    2           LIST_STRING = ' ';
      495     4442    2           CALL LIST(LIST_STRING);
      496     4443    2           CALL LIST(LIST_STRING);
      497     4444    3           DO WHILE (RS$ ~= SSS$);
      498     4445    3               IF RS.DEF.TYPE ~= '000001000000'B AND
      499     4446    3                  RS.DEF.TYPE ~= '000000100000'B
      500     4447    3               THEN CALL ABORT;
      501     4448    3               SC$ = PINCRW(SSS$,RS.SCRSH);
      502     4449    3               IF RS.DEF.TYPE = '000001000000'B
      503     4450    3               THEN TYPE_RS = 'SO';
      504     4451    3               ELSE TYPE_RS = 'SM';
      505     4452    3               CALL CONCAT(LIST_STRING,'            *** ',TYPE_RS,
      506     4453    3                  '   SC ( ',SC.SNAM,' )');
      507     4454    3               CALL LIST(LIST_STRING);
      508     4455    3               RS$ = PINCRW(SSS$,RS.RCRSN);
      509     4456    3               END;
      510     4457    2           RC$ = PINCRW(SSS$,RC.OARCN);
      511     4458    2           RC1$ = PINCRW(RC$ , -2);
      512     4459    2           END;
      513     4460    1       IF MODE = 0 THEN RETURN;
      514     4461    1       CALL CLOSE_64;
      515     4462    1       FIR_SW = 0;
      516     4463    1       CALL READ64(0,CONTROL);
      517     4464    1       CALL ZIG$SS_WVAR;
      518     4465    1       CALL WRIT64(0,CONTROL);
      519     4466    1       CALL CLOSE_64;
      520     4467    1   END ZIG$V_PRINT;

PL6.E3A0      #001=ZIG$V_PRINT File=ZIG$V_PRINT.:ZIC0TSI                         FRI 09/05/97 12:22 Page:20
--  Include file information  --

   ZIG_SSS.:ZIC0TOU  is referenced.
   ZI_SUB_LANG.:ZIC0TOU  is referenced.
   B_MICROPS_C.:LIB_E05  is referenced.
   ZIG_GENERAL.:ZIC0TOU  cannot be made into a system file and is referenced.
   ZI_ERRORS_SUBS.:ZIC0TOU  is referenced.
   ZIG_DIR_STRUCS.:ZIC0TOU  cannot be made into a system file and is referenced.
   B$JIT_C.:E05TOU  was found in the system file and is never referenced.
   CP_6_C.:E05TOU  was found in the system file and is never referenced.
      No diagnostics issued in procedure ZIG$V_PRINT.

   Procedure ZIG$V_PRINT requires 1931 words for executable code.
   Procedure ZIG$V_PRINT requires 26 words of local(AUTO) storage.

    No errors detected in file ZIG$V_PRINT.:ZIC0TSI    .

PL6.E3A0      #001=ZIG$V_PRINT File=ZIG$V_PRINT.:ZIC0TSI                         FRI 09/05/97 12:22 Page:21

 Object Unit name= ZIG$V_PRINT                                File name= ZIG$V_PRINT.:ZIC0TOU
 UTS= SEP 05 '97 12:22:36.76 FRI                              Compiler= PL-6/E31         Sev=      00
 SharedLib= :SHARED_SYSTEM                                    Alt SharedLib=


    ****  Control sections  ****

 Sect   Type Bound  Init  Size OctSiz  Section name(segment info)
    0  LblCom even  none    12     14  ANALS
    1  LblCom even  none    13     15  PURGE
    2  LblCom even  none    19     23  DICTS
    3  LblCom even  none    23     27  DISPS
    4  LblCom even  none    22     26  VALIDS
    5  LblCom even  none    12     14  LOCKS
    6  LblCom even  none    10     12  STRAN
    7  LblCom even  none    12     14  DTRAN
    8  LblCom even  none    16     20  SSTRANS
    9  LblCom even  none    20     24  SSGEN
   10  LblCom even  none     1      1  NUM_ERROR_MSG
   11  LblCom even  none     1      1  NUM_WARN_MSG
   12  LblCom even  none     1      1  ALLOCATE_END
   13  LblCom even  none     2      2  SUBSCHEMA_KEY
   14  LblCom even  none     1      1  BUFFER$
   15  LblCom even  none     1      1  ERROR_IO
   16  LblCom even  none     1      1  BUFFER_LEN
   17  LblCom even  none     2      2  UWA_KEY
   18  LblCom even  none     1      1  NEXT_UWA_SECOND_HALF
   19  LblCom even  none     2      2  RVA_KEY
   20  LblCom even  none     2      2  IA__KEY
   21  LblCom even  none     1      1  NEXT_RVA_SECOND_HALF
   22  LblCom even  none    32     40  SEARCHR_NB
   23  LblCom even  none    32     40  SEM_COM
   24  LblCom even  none    32     40  DMCL_XLATE
   25  LblCom even  none    32     40  Q2_PERCENT
   26  LblCom even  none    64    100  CONTROL
   27  LblCom even  none     5      5  LANG_ALLOWED
   28  LblCom even  none     1      1  SUB_LANGUAGE
PL6.E3A0      #001=ZIG$V_PRINT File=ZIG$V_PRINT.:ZIC0TSI                         FRI 09/05/97 12:22 Page:22
   29  LblCom even  none    16     20  HEADING_TEXT
   30  LblCom even  none    13     15  LANG_TEXT
   31  LblCom even  none     1      1  HASH_SCHEMA_NAME
   32  LblCom even  none     1      1  CURRENT_RECORD
   33  LblCom even  none     1      1  SSS$
   34  LblCom even  none     1      1  AC$
   35  LblCom even  none     1      1  AC1$
   36  LblCom even  none     1      1  FR$
   37  LblCom even  none     1      1  FR1$
   38  LblCom even  none     1      1  SC$
   39  LblCom even  none     1      1  SC1$
   40  LblCom even  none     1      1  RC$
   41  LblCom even  none     1      1  RC1$
   42  LblCom even  none     1      1  OA$
   43  LblCom even  none     1      1  OA1$
   44  LblCom even  none     1      1  RA$
   45  LblCom even  none     1      1  RS$
   46  LblCom even  none     1      1  SM1$
   47  LblCom even  none     1      1  SS$
   48  LblCom even  none     1      1  CD$
   49  LblCom even  none     1      1  DP$
   50  LblCom even  none     1      1  DP1$
   51  LblCom even  none     1      1  AG$
   52  LblCom even  none     1      1  AG1$
   53  LblCom even  none    32     40  LIST_STRING
   54   Data  even  none   136    210  ZIG$V_PRINT
   55  RoData even  UTS    444    674  ZIG$V_PRINT
   56  LblCom even  none     1      1  FIR_SW
   57  LblCom even  none     1      1  J
   58   Proc  even  none  1931   3613  ZIG$V_PRINT
   59  RoData even  none   129    201  ZIG$V_PRINT
PL6.E3A0      #001=ZIG$V_PRINT File=ZIG$V_PRINT.:ZIC0TSI                         FRI 09/05/97 12:22 Page:23

    ****  Entry defs  ****

                              Check   Calling
                             calling  sequence
  Sect OctLoc Primary Altret sequence   type   Parms  Name
    58      0   yes            yes      Std        0  ZIG$V_PRINT

  ****  Entry refs  ****

         Check        Calling
        calling       sequence
Altret sequence SRef   type   Args  Name
         yes           Std       2 READ64
         yes           Std       0 CLOSE_64
         yes           Std       0 ZIG$SS_WVAR
         yes           Std       1 LIST
         yes           Std       2 SUBLST
         yes           Std       2 ZIG$G_DYN_MEM_6
         yes           Std       0 ABORT
         yes           Std       0 ZIG$SS_RVAR
         yes           Std       2 WRIT64
                       nStd      0 X66_AUTO_0
                       nStd      0 X66_ARET

  ****  Segment refs  ****

  Flags:  r = read only, s = secondary
Flgs Name                             Flgs Name                             Flgs Name
     ISSID
PL6.E3A0      #001=ZIG$V_PRINT File=ZIG$V_PRINT.:ZIC0TSI                         FRI 09/05/97 12:22 Page:24


        1        1        /*M*     ZIG$V_PRINT    I-D-S/II       DBACS */
        2        2        /*T***********************************************************/
        3        3        /*T*                                                         */
        4        4        /*T* Copyright (c) Bull HN Information Systems Inc., 1997    */
        5        5        /*T*                                                         */
        6        6        /*T***********************************************************/
        7        7        /*P*
        8        8        NAME:    ZIG$V_PRINT
        9        9        PURPOSE:
       10       10              This subroutine print out the structure in the schema subset
       11       11            for the subschema file.
       12       12        */
       13       13        ZIG$V_PRINT:
       14       14            PROC;

     14 58 000000   000000 700200 xent  ZIG$V_PRINT  TSX0  ! X66_AUTO_0
        58 000001   000032 000000                    ZERO    26,0
        58 000002   000736 710000 58                 TRA     s:4145

       15       15        %EJECT;
PL6.E3A0      #001=ZIG$V_PRINT File=ZIG$V_PRINT.:ZIC0TSI                         FRI 09/05/97 12:22 Page:25
       16       16        %INCLUDE ZIG_DIR_STRUCS;
       17      146        %INCLUDE ZI_ERRORS_SUBS;
       18      666        %INCLUDE ZIG_GENERAL;
       19      774        %INCLUDE B_MICROPS_C;
       20      946        %INCLUDE ZI_SUB_LANG;
       21     2661        %CONTROL_BLOCK;
       22     2769        %GENERAL;
       23     2893        /*
       24     2894              Now comes the sturctures for the schema subset.
       25     2895        */
       26     2896        %INCLUDE ZIG_SSS;
       27     3466        %SS_GENERAL(PSTCLASS=EXT);
       28     3487        %AC(PSTCLASS=EXT);
       29     3582        %AC1(PSTCLASS=EXT);
       30     3590        %FR(PSTCLASS=EXT);
       31     3636        %FR1(PSTCLASS=EXT);
       32     3644        %SC(PSTCLASS=EXT);
       33     3671        %SC1(PSTCLASS=EXT);
       34     3681        %RC(PSTCLASS=EXT);
       35     3714        %RC1(PSTCLASS=EXT);
       36     3724        %OA(PSTCLASS=EXT);
       37     3791        %OA1(PSTCLASS=EXT);
       38     3799        %RA(PSTCLASS=EXT);
       39     3819        %RS(PSTCLASS=EXT);
       40     3893        %SM1(PSTCLASS=EXT);
       41     3901        %SS(PSTCLASS=EXT);
       42     3915        %CD(PSTCLASS=EXT);
       43     3934        %DP(PSTCLASS=EXT);
       44     3948        %DP1(PSTCLASS=EXT);
       45     3956        %AG(PSTCLASS=EXT);
       46     3986        %AG1(PSTCLASS=EXT);
       47     3994        %EJECT;
PL6.E3A0      #001=ZIG$V_PRINT File=ZIG$V_PRINT.:ZIC0TSI                         FRI 09/05/97 12:22 Page:26
       48     3995    1   DCL READSF ENTRY (2);
       49     3996    1   DCL READ64 ENTRY (2);
       50     3997    1   DCL LIST_STRING CHAR (128) EXT;
       51     3998    1   DCL START UBIN (36) STATIC;
       52     3999    1   DCL BL CHAR (120) STATIC INIT (' ');
       53     4000    1   DCL FIRST_PART CHAR (30) STATIC;
       54     4001    1   DCL SECOND_PART CHAR (12) STATIC;
       55     4002    1   DCL SECOND_PART_STR CHAR (30) STATIC;
       56     4003    1   DCL I UBIN (36) STATIC;
       57     4004    1   DCL MOPSTR (0:1) BIT(9) CONSTANT INIT(%MVZB11, %MVC1);
       58     4005    1   DCL CHAR_1 CHAR (1) STATIC;
       59     4006    1   DCL SECOND_OCTAL CHAR(13) STATIC;
       60     4007    1   DCL AREA_HEADING CHAR (64) STATIC INIT ('SUBSCHEMA AREAS:');
       61     4008    1   DCL MAIN_HEADING CHAR (64) STATIC INIT ('SCHEMA SUBSET PRINT.');
       62     4009    1   DCL RECORD_HEADING CHAR (64) STATIC INIT ('SUBSCHEMA RECORDS:');
       63     4010    1   DCL K UBIN (36) STATIC;
       64     4011    1   DCL L UBIN (36) STATIC;
       65     4012    1   DCL TPTR$ PTR STATIC;
       66     4013    1   DCL SET_HEADING CHAR (64) STATIC INIT('SUBSCHEMA SETS:');
       67     4014    1   DCL TYPE_RS CHAR (2) STATIC;
       68     4015    1   DCL TEMP_STR CHAR (30) STATIC;
       69     4016    1   DCL TEMP_RC$ PTR STATIC;
       70     4017    1   DCL TEMP_FR$ PTR STATIC;
       71     4018    1   DCL T3PTR$ PTR STATIC;
       72     4019    1   DCL MODE UBIN (36) STATIC INIT (0);
       73     4020    1   DCL FIR_SW UBIN (36) EXT;
       74     4021    1   DCL WRIT64 ENTRY (2);
       75     4022    1   DCL CLOSE_64 ENTRY ;
       76     4023    1   DCL J UBIN (36) EXT;
       77     4024        %EJECT;
PL6.E3A0      #001=ZIG$V_PRINT File=ZIG$V_PRINT.:ZIC0TSI                         FRI 09/05/97 12:22 Page:27
       78     4025    1   PRINT:

   4025 58 000003   200004 741300       PRINT        STX1  ! 4,,AUTO

       79     4026    1       PROC(HEADING,NUM);
       80     4027    2   DCL HEADING CHAR (30);
       81     4028    2   DCL NUM UBIN (36);
       82     4029    2   DCL I UBIN (36);
       83     4030    2       CALL INDEX1(I,'^',HEADING);

   4030 58 000004   200005 470500                    LDP0    @HEADING,,AUTO
        58 000005   000000 124500                    SCM     mask='000'O
        58 000006   000000 000036                    ADSC9   0,,PR0                   cn=0,n=30
        58 000007   000000 000001 59                 ADSC9   0                        cn=0,n=1
        58 000010   200007 000100                    ARG     I,,AUTO

       84     4031    2       FIRST_PART = SUBSTR(HEADING,0,I);

   4031 58 000011   200007 720100                    LXL0    I,,AUTO
        58 000012   040000 100540                    MLR     fill='040'O
        58 000013   000000 000010                    ADSC9   0,,PR0                   cn=0,n=*X0
        58 000014   000037 000036 54                 ADSC9   FIRST_PART               cn=0,n=30

       85     4032    2       CALL BINCHAR(SECOND_PART,NUM);

   4032 58 000015   200006 471500                    LDP1    @NUM,,AUTO
        58 000016   100000 235100                    LDA     0,,PR1
        58 000017   000044 773000                    LRL     36
        58 000020   200016 757100                    STAQ    K+2,,AUTO
        58 000021   000000 301500                    BTD
        58 000022   200016 000010                    NDSC9   K+2,,AUTO                cn=0,s=lsgnf,sf=0,n=8
        58 000023   000047 030014 54                 NDSC9   SECOND_PART              cn=0,s=nosgn,sf=0,n=12

       86     4033    2       CALL EDITCHAR(SECOND_PART,0,12,MOPSTR,SECOND_PART);

   4033 58 000024   000000 024400                    MVNE
        58 000025   000047 030014 54                 NDSC9   SECOND_PART              cn=0,s=nosgn,sf=0,n=12
PL6.E3A0      #001=ZIG$V_PRINT File=ZIG$V_PRINT.:ZIC0TSI                         FRI 09/05/97 12:22 Page:28
        58 000026   000000 000002 55                 ADSC9   MOPSTR                   cn=0,n=2
        58 000027   000047 000014 54                 ADSC9   SECOND_PART              cn=0,n=12

       87     4034    2       CALL CONCAT(LIST_STRING,SUBSTR(BL,0,START),FIRST_PART,SECOND_PART);

   4034 58 000030   000000 722000 54                 LXL2    START
        58 000031   040000 100440                    MLR     fill='040'O
        58 000032   000001 000012 54                 ADSC9   BL                       cn=0,n=*X2
        58 000033   000000 000200 53                 ADSC9   LIST_STRING              cn=0,n=128
        58 000034   000000 236000 54                 LDQ     START
        58 000035   000200 116007                    CMPQ    128,DL
        58 000036   000053 603000 58                 TRC     s:4035
        58 000037   777577 623006                    EAX3    -129,QL
        58 000040   777777 663003                    ERX3    -1,DU
        58 000041   040046 100400                    MLR     fill='040'O
        58 000042   000037 000036 54                 ADSC9   FIRST_PART               cn=0,n=30
        58 000043   000000 000013 53                 ADSC9   LIST_STRING,Q            cn=0,n=*X3
        58 000044   000142 116007                    CMPQ    98,DL
        58 000045   000053 603000 58                 TRC     s:4035
        58 000046   777635 624006                    EAX4    -99,QL
        58 000047   777777 664003                    ERX4    -1,DU
        58 000050   040046 100400                    MLR     fill='040'O
        58 000051   000047 000014 54                 ADSC9   SECOND_PART              cn=0,n=12
        58 000052   000007 400014 53                 ADSC9   LIST_STRING+7,Q          cn=2,n=*X4

       88     4035    2       CALL LIST(LIST_STRING);

   4035 58 000053   000002 630400 59                 EPPR0   2
        58 000054   000001 631400 59                 EPPR1   1
        58 000055   000000 701000 xent               TSX1    LIST
        58 000056   000000 011000                    NOP     0

       89     4036    2   END PRINT;

   4036 58 000057   200004 221300                    LDX1  ! 4,,AUTO
        58 000060   000001 702211                    TSX2  ! 1,X1

PL6.E3A0      #001=ZIG$V_PRINT File=ZIG$V_PRINT.:ZIC0TSI                         FRI 09/05/97 12:22 Page:29
       90     4037        %EJECT;
PL6.E3A0      #001=ZIG$V_PRINT File=ZIG$V_PRINT.:ZIC0TSI                         FRI 09/05/97 12:22 Page:30
       91     4038    1   PRINT_S:

   4038 58 000061   200006 741300       PRINT_S      STX1  ! @NUM,,AUTO

       92     4039    1       PROC(HEADING,STR);
       93     4040    2   DCL HEADING CHAR (60);
       94     4041    2   DCL STR CHAR (30);
       95     4042    2   DCL I UBIN (36);
       96     4043    2       CALL INDEX1(I,'^',HEADING);

   4043 58 000062   200007 470500                    LDP0    @HEADING,,AUTO
        58 000063   000000 124500                    SCM     mask='000'O
        58 000064   000000 000074                    ADSC9   0,,PR0                   cn=0,n=60
        58 000065   000000 000001 59                 ADSC9   0                        cn=0,n=1
        58 000066   200011 000100                    ARG     I,,AUTO

       97     4044    2       FIRST_PART = SUBSTR(HEADING,0,I);

   4044 58 000067   200011 720100                    LXL0    I,,AUTO
        58 000070   040000 100540                    MLR     fill='040'O
        58 000071   000000 000010                    ADSC9   0,,PR0                   cn=0,n=*X0
        58 000072   000037 000036 54                 ADSC9   FIRST_PART               cn=0,n=30

       98     4045    2       CALL INDEX1(I,' ',STR);

   4045 58 000073   200010 471500                    LDP1    @STR,,AUTO
        58 000074   000000 124500                    SCM     mask='000'O
        58 000075   100000 000036                    ADSC9   0,,PR1                   cn=0,n=30
        58 000076   000003 000001 59                 ADSC9   3                        cn=0,n=1
        58 000077   200011 000100                    ARG     I,,AUTO

       99     4046    2       SECOND_PART_STR = SUBSTR(STR,0,I);

   4046 58 000100   200011 720100                    LXL0    I,,AUTO
        58 000101   040000 100540                    MLR     fill='040'O
        58 000102   100000 000010                    ADSC9   0,,PR1                   cn=0,n=*X0
        58 000103   000052 000036 54                 ADSC9   SECOND_PART_STR          cn=0,n=30
PL6.E3A0      #001=ZIG$V_PRINT File=ZIG$V_PRINT.:ZIC0TSI                         FRI 09/05/97 12:22 Page:31

      100     4047    2       CALL CONCAT(LIST_STRING,SUBSTR(BL,0,START),FIRST_PART,SECOND_PART_STR);

   4047 58 000104   000000 722000 54                 LXL2    START
        58 000105   040000 100440                    MLR     fill='040'O
        58 000106   000001 000012 54                 ADSC9   BL                       cn=0,n=*X2
        58 000107   000000 000200 53                 ADSC9   LIST_STRING              cn=0,n=128
        58 000110   000000 236000 54                 LDQ     START
        58 000111   000200 116007                    CMPQ    128,DL
        58 000112   000127 603000 58                 TRC     s:4048
        58 000113   777577 623006                    EAX3    -129,QL
        58 000114   777777 663003                    ERX3    -1,DU
        58 000115   040046 100400                    MLR     fill='040'O
        58 000116   000037 000036 54                 ADSC9   FIRST_PART               cn=0,n=30
        58 000117   000000 000013 53                 ADSC9   LIST_STRING,Q            cn=0,n=*X3
        58 000120   000142 116007                    CMPQ    98,DL
        58 000121   000127 603000 58                 TRC     s:4048
        58 000122   777635 624006                    EAX4    -99,QL
        58 000123   777777 664003                    ERX4    -1,DU
        58 000124   040046 100400                    MLR     fill='040'O
        58 000125   000052 000036 54                 ADSC9   SECOND_PART_STR          cn=0,n=30
        58 000126   000007 400014 53                 ADSC9   LIST_STRING+7,Q          cn=2,n=*X4

      101     4048    2       CALL LIST(LIST_STRING);

   4048 58 000127   000002 630400 59                 EPPR0   2
        58 000130   000001 631400 59                 EPPR1   1
        58 000131   000000 701000 xent               TSX1    LIST
        58 000132   000000 011000                    NOP     0

      102     4049    2   END PRINT_S;

   4049 58 000133   200006 221300                    LDX1  ! @NUM,,AUTO
        58 000134   000001 702211                    TSX2  ! 1,X1

      103     4050        %EJECT;
PL6.E3A0      #001=ZIG$V_PRINT File=ZIG$V_PRINT.:ZIC0TSI                         FRI 09/05/97 12:22 Page:32
      104     4051    1   PRINT_O:

   4051 58 000135   200004 741300       PRINT_O      STX1  ! 4,,AUTO

      105     4052    1       PROC(HEADING,LEN,NUM);
      106     4053    2   DCL HEADING CHAR (30);
      107     4054    2   DCL LEN UBIN (36);
      108     4055    2   DCL 1 NUM(0:0) UBIN (3) UNAL;
      109     4056    2   DCL I UBIN (36);
      110     4057    2   DCL K UBIN (36);
      111     4058    2       CALL INDEX1(I,'^',HEADING);

   4058 58 000136   200005 470500                    LDP0    @HEADING,,AUTO
        58 000137   000000 124500                    SCM     mask='000'O
        58 000140   000000 000036                    ADSC9   0,,PR0                   cn=0,n=30
        58 000141   000000 000001 59                 ADSC9   0                        cn=0,n=1
        58 000142   200010 000100                    ARG     I,,AUTO

      112     4059    2       FIRST_PART = SUBSTR(HEADING,0,I);

   4059 58 000143   200010 720100                    LXL0    I,,AUTO
        58 000144   040000 100540                    MLR     fill='040'O
        58 000145   000000 000010                    ADSC9   0,,PR0                   cn=0,n=*X0
        58 000146   000037 000036 54                 ADSC9   FIRST_PART               cn=0,n=30

      113     4060    2       SECOND_OCTAL = ' ';

   4060 58 000147   040000 100400                    MLR     fill='040'O
        58 000150   000003 000001 59                 ADSC9   3                        cn=0,n=1
        58 000151   000064 000015 54                 ADSC9   SECOND_OCTAL             cn=0,n=13

      114     4061    3       DO I = 1 TO LEN/3;

   4061 58 000152   000001 235007                    LDA     1,DL
        58 000153   200010 755100                    STA     I,,AUTO
        58 000154   000214 710000 58                 TRA     s:4070+3

PL6.E3A0      #001=ZIG$V_PRINT File=ZIG$V_PRINT.:ZIC0TSI                         FRI 09/05/97 12:22 Page:33
      115     4062    3           K = I - 1;

   4062 58 000155   200010 235100                    LDA     I,,AUTO
        58 000156   000001 135007                    SBLA    1,DL
        58 000157   200011 755100                    STA     K,,AUTO

      116     4063    3           IF I = 6

   4063 58 000160   200010 236100                    LDQ     I,,AUTO
        58 000161   000006 116007                    CMPQ    6,DL
        58 000162   000165 601000 58                 TNZ     s:4067

      117     4064    4           THEN DO;

      118     4065    4               CALL INSERT(SECOND_OCTAL,6,1,'.');

   4065 58 000163   056000 236007                    LDQ     23552,DL
        58 000164   000065 552010 54                 STBQ    SECOND_OCTAL+1,'10'O

      119     4066    4               END;

      120     4067    3           IF I>6 THEN K = K + 1;

   4067 58 000165   200010 236100                    LDQ     I,,AUTO
        58 000166   000007 116007                    CMPQ    7,DL
        58 000167   000172 602000 58                 TNC     s:4068

   4067 58 000170   000001 035007                    ADLA    1,DL
        58 000171   200011 755100                    STA     K,,AUTO

      121     4068    3           CALL BINCHAR(CHAR_1,NUM(I-1));

   4068 58 000172   000003 402007                    MPY     3,DL
        58 000173   200007 470500                    LDP0    @NUM,,AUTO
        58 000174   003100 061506                    CSR     bolr='003'O
        58 000175   077777 660003                    BDSC    -1,Q,PR0                 by=3,bit=6,n=3
        58 000176   200016 000044                    BDSC    K+2,,AUTO                by=0,bit=0,n=36
PL6.E3A0      #001=ZIG$V_PRINT File=ZIG$V_PRINT.:ZIC0TSI                         FRI 09/05/97 12:22 Page:34
        58 000177   200016 236100                    LDQ     K+2,,AUTO
        58 000200   000000 235003                    LDA     0,DU
        58 000201   200020 757100                    STAQ    K+4,,AUTO
        58 000202   000000 301500                    BTD
        58 000203   200020 000010                    NDSC9   K+4,,AUTO                cn=0,s=lsgnf,sf=0,n=8
        58 000204   000063 030001 54                 NDSC9   CHAR_1                   cn=0,s=nosgn,sf=0,n=1

      122     4069    3           CALL INSERT(SECOND_OCTAL,K,1,CHAR_1);

   4069 58 000205   200011 236100                    LDQ     K,,AUTO
        58 000206   040006 100400                    MLR     fill='040'O
        58 000207   000063 000001 54                 ADSC9   CHAR_1                   cn=0,n=1
        58 000210   000064 000001 54                 ADSC9   SECOND_OCTAL,Q           cn=0,n=1

      123     4070    3           END;

   4070 58 000211   200010 235100                    LDA     I,,AUTO
        58 000212   000001 035007                    ADLA    1,DL
        58 000213   200010 755100                    STA     I,,AUTO
        58 000214   200006 470500                    LDP0    @LEN,,AUTO
        58 000215   000000 235100                    LDA     0,,PR0
        58 000216   000043 773000                    LRL     35
        58 000217   000003 507007                    DVF     3,DL
        58 000220   000044 733000                    LRS     36
        58 000221   200010 116100                    CMPQ    I,,AUTO
        58 000222   000155 603000 58                 TRC     s:4062

      124     4071    2       CALL CONCAT(LIST_STRING,SUBSTR(BL,0,START),FIRST_PART,SECOND_OCTAL);

   4071 58 000223   000000 720000 54                 LXL0    START
        58 000224   040000 100440                    MLR     fill='040'O
        58 000225   000001 000010 54                 ADSC9   BL                       cn=0,n=*X0
        58 000226   000000 000200 53                 ADSC9   LIST_STRING              cn=0,n=128
        58 000227   000000 236000 54                 LDQ     START
        58 000230   000200 116007                    CMPQ    128,DL
        58 000231   000246 603000 58                 TRC     s:4072
        58 000232   777577 621006                    EAX1    -129,QL
PL6.E3A0      #001=ZIG$V_PRINT File=ZIG$V_PRINT.:ZIC0TSI                         FRI 09/05/97 12:22 Page:35
        58 000233   777777 661003                    ERX1    -1,DU
        58 000234   040046 100400                    MLR     fill='040'O
        58 000235   000037 000036 54                 ADSC9   FIRST_PART               cn=0,n=30
        58 000236   000000 000011 53                 ADSC9   LIST_STRING,Q            cn=0,n=*X1
        58 000237   000142 116007                    CMPQ    98,DL
        58 000240   000246 603000 58                 TRC     s:4072
        58 000241   777635 622006                    EAX2    -99,QL
        58 000242   777777 662003                    ERX2    -1,DU
        58 000243   040046 100400                    MLR     fill='040'O
        58 000244   000064 000015 54                 ADSC9   SECOND_OCTAL             cn=0,n=13
        58 000245   000007 400012 53                 ADSC9   LIST_STRING+7,Q          cn=2,n=*X2

      125     4072    2       CALL LIST(LIST_STRING);

   4072 58 000246   000002 630400 59                 EPPR0   2
        58 000247   000001 631400 59                 EPPR1   1
        58 000250   000000 701000 xent               TSX1    LIST
        58 000251   000000 011000                    NOP     0

      126     4073    2   END PRINT_O;

   4073 58 000252   200004 221300                    LDX1  ! 4,,AUTO
        58 000253   000001 702211                    TSX2  ! 1,X1

      127     4074        %EJECT;
PL6.E3A0      #001=ZIG$V_PRINT File=ZIG$V_PRINT.:ZIC0TSI                         FRI 09/05/97 12:22 Page:36
      128     4075    1   PRINT_O_ID:

   4075 58 000254   200006 741300       PRINT_O_ID   STX1  ! @LEN,,AUTO

      129     4076    1       PROC(HEADING,LEN,NUM,ID);
      130     4077    2   DCL HEADING CHAR (30);
      131     4078    2   DCL LEN UBIN (36);
      132     4079    2   DCL 1 NUM(0:0) UBIN (3) UNAL;
      133     4080    2   DCL I UBIN (36);
      134     4081    2   DCL K UBIN (36);
      135     4082    2   DCL ID UBIN (36);
      136     4083    2       CALL INDEX1(I,'^',HEADING);

   4083 58 000255   200007 470500                    LDP0    @HEADING,,AUTO
        58 000256   000000 124500                    SCM     mask='000'O
        58 000257   000000 000036                    ADSC9   0,,PR0                   cn=0,n=30
        58 000260   000000 000001 59                 ADSC9   0                        cn=0,n=1
        58 000261   200013 000100                    ARG     I,,AUTO

      137     4084    2       FIRST_PART = SUBSTR(HEADING,0,I);

   4084 58 000262   200013 720100                    LXL0    I,,AUTO
        58 000263   040000 100540                    MLR     fill='040'O
        58 000264   000000 000010                    ADSC9   0,,PR0                   cn=0,n=*X0
        58 000265   000037 000036 54                 ADSC9   FIRST_PART               cn=0,n=30

      138     4085    2       SECOND_OCTAL = ' ';

   4085 58 000266   040000 100400                    MLR     fill='040'O
        58 000267   000003 000001 59                 ADSC9   3                        cn=0,n=1
        58 000270   000064 000015 54                 ADSC9   SECOND_OCTAL             cn=0,n=13

      139     4086    3       DO I = 1 TO LEN/3;

   4086 58 000271   000001 235007                    LDA     1,DL
        58 000272   200013 755100                    STA     I,,AUTO
        58 000273   000334 710000 58                 TRA     s:4095+3
PL6.E3A0      #001=ZIG$V_PRINT File=ZIG$V_PRINT.:ZIC0TSI                         FRI 09/05/97 12:22 Page:37

      140     4087    3           K = I - 1;

   4087 58 000274   200013 235100                    LDA     I,,AUTO
        58 000275   000001 135007                    SBLA    1,DL
        58 000276   200014 755100                    STA     K,,AUTO

      141     4088    3           IF I = 6

   4088 58 000277   200013 236100                    LDQ     I,,AUTO
        58 000300   000006 116007                    CMPQ    6,DL
        58 000301   000304 601000 58                 TNZ     s:4092

      142     4089    4           THEN DO;

      143     4090    4               CALL INSERT(SECOND_OCTAL,6,1,'.');

   4090 58 000302   056000 236007                    LDQ     23552,DL
        58 000303   000065 552010 54                 STBQ    SECOND_OCTAL+1,'10'O

      144     4091    4               END;

      145     4092    3           IF I>6 THEN K = K + 1;

   4092 58 000304   200013 236100                    LDQ     I,,AUTO
        58 000305   000007 116007                    CMPQ    7,DL
        58 000306   000311 602000 58                 TNC     s:4093

   4092 58 000307   000001 035007                    ADLA    1,DL
        58 000310   200014 755100                    STA     K,,AUTO

      146     4093    3           CALL BINCHAR(CHAR_1,NUM(K));

   4093 58 000311   200014 236100                    LDQ     K,,AUTO
        58 000312   000003 402007                    MPY     3,DL
        58 000313   200011 470500                    LDP0    @NUM,,AUTO
        58 000314   003100 061506                    CSR     bolr='003'O
PL6.E3A0      #001=ZIG$V_PRINT File=ZIG$V_PRINT.:ZIC0TSI                         FRI 09/05/97 12:22 Page:38
        58 000315   000000 000003                    BDSC    0,Q,PR0                  by=0,bit=0,n=3
        58 000316   200016 000044                    BDSC    K+2,,AUTO                by=0,bit=0,n=36
        58 000317   200016 236100                    LDQ     K+2,,AUTO
        58 000320   000000 235003                    LDA     0,DU
        58 000321   200020 757100                    STAQ    K+4,,AUTO
        58 000322   000000 301500                    BTD
        58 000323   200020 000010                    NDSC9   K+4,,AUTO                cn=0,s=lsgnf,sf=0,n=8
        58 000324   000063 030001 54                 NDSC9   CHAR_1                   cn=0,s=nosgn,sf=0,n=1

      147     4094    3           CALL INSERT(SECOND_OCTAL,K,1,CHAR_1);

   4094 58 000325   200014 236100                    LDQ     K,,AUTO
        58 000326   040006 100400                    MLR     fill='040'O
        58 000327   000063 000001 54                 ADSC9   CHAR_1                   cn=0,n=1
        58 000330   000064 000001 54                 ADSC9   SECOND_OCTAL,Q           cn=0,n=1

      148     4095    3           END;

   4095 58 000331   200013 235100                    LDA     I,,AUTO
        58 000332   000001 035007                    ADLA    1,DL
        58 000333   200013 755100                    STA     I,,AUTO
        58 000334   200010 470500                    LDP0    @LEN,,AUTO
        58 000335   000000 235100                    LDA     0,,PR0
        58 000336   000043 773000                    LRL     35
        58 000337   000003 507007                    DVF     3,DL
        58 000340   000044 733000                    LRS     36
        58 000341   200013 116100                    CMPQ    I,,AUTO
        58 000342   000274 603000 58                 TRC     s:4087

      149     4096    2       CALL BINCHAR(SECOND_PART,ID);

   4096 58 000343   200012 471500                    LDP1    @ID,,AUTO
        58 000344   100000 235100                    LDA     0,,PR1
        58 000345   000044 773000                    LRL     36
        58 000346   200016 757100                    STAQ    K+2,,AUTO
        58 000347   000000 301500                    BTD
        58 000350   200016 000010                    NDSC9   K+2,,AUTO                cn=0,s=lsgnf,sf=0,n=8
PL6.E3A0      #001=ZIG$V_PRINT File=ZIG$V_PRINT.:ZIC0TSI                         FRI 09/05/97 12:22 Page:39
        58 000351   000047 030014 54                 NDSC9   SECOND_PART              cn=0,s=nosgn,sf=0,n=12

      150     4097    2       CALL EDITCHAR(SECOND_PART,0,12,MOPSTR,SECOND_PART);

   4097 58 000352   000000 024400                    MVNE
        58 000353   000047 030014 54                 NDSC9   SECOND_PART              cn=0,s=nosgn,sf=0,n=12
        58 000354   000000 000002 55                 ADSC9   MOPSTR                   cn=0,n=2
        58 000355   000047 000014 54                 ADSC9   SECOND_PART              cn=0,n=12

      151     4098    2       CALL CONCAT(LIST_STRING,SUBSTR(BL,0,START),FIRST_PART,SECOND_OCTAL

   4098 58 000356   000000 720000 54                 LXL0    START
        58 000357   040000 100440                    MLR     fill='040'O
        58 000360   000001 000010 54                 ADSC9   BL                       cn=0,n=*X0
        58 000361   000000 000200 53                 ADSC9   LIST_STRING              cn=0,n=128
        58 000362   000000 236000 54                 LDQ     START
        58 000363   000200 116007                    CMPQ    128,DL
        58 000364   000417 603000 58                 TRC     s:4100
        58 000365   777577 621006                    EAX1    -129,QL
        58 000366   777777 661003                    ERX1    -1,DU
        58 000367   040046 100400                    MLR     fill='040'O
        58 000370   000037 000036 54                 ADSC9   FIRST_PART               cn=0,n=30
        58 000371   000000 000011 53                 ADSC9   LIST_STRING,Q            cn=0,n=*X1
        58 000372   000142 116007                    CMPQ    98,DL
        58 000373   000417 603000 58                 TRC     s:4100
        58 000374   777635 622006                    EAX2    -99,QL
        58 000375   777777 662003                    ERX2    -1,DU
        58 000376   040046 100400                    MLR     fill='040'O
        58 000377   000064 000015 54                 ADSC9   SECOND_OCTAL             cn=0,n=13
        58 000400   000007 400012 53                 ADSC9   LIST_STRING+7,Q          cn=2,n=*X2
        58 000401   000125 116007                    CMPQ    85,DL
        58 000402   000417 603000 58                 TRC     s:4100
        58 000403   777652 623006                    EAX3    -86,QL
        58 000404   777777 663003                    ERX3    -1,DU
        58 000405   040046 100400                    MLR     fill='040'O
        58 000406   000001 000005 55                 ADSC9   MOPSTR+1                 cn=0,n=5
        58 000407   000012 600013 53                 ADSC9   LIST_STRING+10,Q         cn=3,n=*X3
PL6.E3A0      #001=ZIG$V_PRINT File=ZIG$V_PRINT.:ZIC0TSI                         FRI 09/05/97 12:22 Page:40
        58 000410   000120 116007                    CMPQ    80,DL
        58 000411   000417 603000 58                 TRC     s:4100
        58 000412   777657 624006                    EAX4    -81,QL
        58 000413   777777 664003                    ERX4    -1,DU
        58 000414   040046 100400                    MLR     fill='040'O
        58 000415   000047 000014 54                 ADSC9   SECOND_PART              cn=0,n=12
        58 000416   000014 000014 53                 ADSC9   LIST_STRING+12,Q         cn=0,n=*X4

      152     4099    2          ,'  ID ',SECOND_PART);
      153     4100    2       CALL LIST(LIST_STRING);

   4100 58 000417   000002 630400 59                 EPPR0   2
        58 000420   000001 631400 59                 EPPR1   1
        58 000421   000000 701000 xent               TSX1    LIST
        58 000422   000000 011000                    NOP     0

      154     4101    2   END PRINT_O_ID;

   4101 58 000423   200006 221300                    LDX1  ! @LEN,,AUTO
        58 000424   000001 702211                    TSX2  ! 1,X1

      155     4102        %EJECT;
PL6.E3A0      #001=ZIG$V_PRINT File=ZIG$V_PRINT.:ZIC0TSI                         FRI 09/05/97 12:22 Page:41
      156     4103    1   GET_NUM:

   4103 58 000425   200004 741300       GET_NUM      STX1  ! 4,,AUTO

      157     4104    1       PROC(STR,NUM);
      158     4105    2   DCL STR CHAR (12);
      159     4106    2   DCL NUM UBIN (36);
      160     4107    2       CALL BINCHAR(STR,NUM);

   4107 58 000426   200006 470500                    LDP0    @NUM,,AUTO
        58 000427   000000 235100                    LDA     0,,PR0
        58 000430   000044 773000                    LRL     36
        58 000431   200016 757100                    STAQ    K+2,,AUTO
        58 000432   200005 471500                    LDP1    @STR,,AUTO
        58 000433   000100 301500                    BTD
        58 000434   200016 000010                    NDSC9   K+2,,AUTO                cn=0,s=lsgnf,sf=0,n=8
        58 000435   100000 030014                    NDSC9   0,,PR1                   cn=0,s=nosgn,sf=0,n=12

      161     4108    2       CALL EDITCHAR(STR,0,12,MOPSTR,STR);

   4108 58 000436   100000 024500                    MVNE
        58 000437   100000 030014                    NDSC9   0,,PR1                   cn=0,s=nosgn,sf=0,n=12
        58 000440   000000 000002 55                 ADSC9   MOPSTR                   cn=0,n=2
        58 000441   100000 000014                    ADSC9   0,,PR1                   cn=0,n=12

      162     4109    2       RETURN;

   4109 58 000442   200004 221300                    LDX1  ! 4,,AUTO
        58 000443   000001 702211                    TSX2  ! 1,X1

      163     4110    2   END GET_NUM;
      164     4111        %EJECT;
PL6.E3A0      #001=ZIG$V_PRINT File=ZIG$V_PRINT.:ZIC0TSI                         FRI 09/05/97 12:22 Page:42
      165     4112    1   PRINT_CD:

   4112 58 000444   200004 741300       PRINT_CD     STX1  ! 4,,AUTO

      166     4113    1       PROC;
      167     4114    2       IF CD.DEF.TYPE ~= '000000000100'B

   4114 58 000445   000000 470400 48                 LDP0    CD$
        58 000446   000000 236100                    LDQ     0,,PR0
        58 000447   777700 376003                    ANQ     -64,DU
        58 000450   000400 116003                    CMPQ    256,DU
        58 000451   000455 600000 58                 TZE     s:4116

      168     4115    2       THEN CALL ABORT;

   4115 58 000452   000004 631400 59                 EPPR1   4
        58 000453   000000 701000 xent               TSX1    ABORT
        58 000454   000000 011000                    NOP     0

      169     4116    2       CALL PRINT_O_ID('**** CD DEF^',36,CD.DEF,POFFW(CD$,SSS$));

   4116 58 000455   000000 235000 33                 LDA     SSS$
        58 000456   000022 771000                    ARL     18
        58 000457   200016 755100                    STA     K+2,,AUTO
        58 000460   000000 236000 48                 LDQ     CD$
        58 000461   000022 772000                    QRL     18
        58 000462   200016 136100                    SBLQ    K+2,,AUTO
        58 000463   200022 756100                    STQ     K+6,,AUTO
        58 000464   200022 630500                    EPPR0   K+6,,AUTO
        58 000465   200012 450500                    STP0    @ID,,AUTO
        58 000466   000000 236000 48                 LDQ     CD$
        58 000467   000006 235000 59                 LDA     6
        58 000470   200010 757100                    STAQ    @LEN,,AUTO
        58 000471   000007 236000 59                 LDQ     7
        58 000472   200007 756100                    STQ     @HEADING,,AUTO
        58 000473   000254 701000 58                 TSX1    PRINT_O_ID
        58 000474   000000 011000                    NOP     0
PL6.E3A0      #001=ZIG$V_PRINT File=ZIG$V_PRINT.:ZIC0TSI                         FRI 09/05/97 12:22 Page:43

      170     4117    2       TEMP_FR$ = PINCRW(SSS$,CD.CDSH);

   4117 58 000475   000000 470400 48                 LDP0    CD$
        58 000476   000002 220100                    LDX0    2,,PR0
        58 000477   000000 636010                    EAQ     0,X0
        58 000500   000000 036000 33                 ADLQ    SSS$
        58 000501   000205 756000 54                 STQ     TEMP_FR$

      171     4118    2       IF TEMP_FR$ ~= SSS$

   4118 58 000502   000000 116000 33                 CMPQ    SSS$
        58 000503   000575 600000 58                 TZE     s:4127

      172     4119    3       THEN DO;

      173     4120    3           TEMP_RC$ = PINCRW(SSS$,TEMP_FR$ -> FR.RCFRH);

   4120 58 000504   000205 471400 54                 LDP1    TEMP_FR$
        58 000505   100005 221100                    LDX1    5,,PR1
        58 000506   000000 636011                    EAQ     0,X1
        58 000507   000000 036000 33                 ADLQ    SSS$
        58 000510   000204 756000 54                 STQ     TEMP_RC$

      174     4121    3           CALL BINCHAR(SECOND_PART,CD.CDSH);

   4121 58 000511   000002 236100                    LDQ     2,,PR0
        58 000512   000022 772000                    QRL     18
        58 000513   000000 235003                    LDA     0,DU
        58 000514   200016 757100                    STAQ    K+2,,AUTO
        58 000515   000000 301500                    BTD
        58 000516   200016 000010                    NDSC9   K+2,,AUTO                cn=0,s=lsgnf,sf=0,n=8
        58 000517   000047 030014 54                 NDSC9   SECOND_PART              cn=0,s=nosgn,sf=0,n=12

      175     4122    3           CALL EDITCHAR(SECOND_PART,0,12,MOPSTR,SECOND_PART);

   4122 58 000520   000000 024400                    MVNE
PL6.E3A0      #001=ZIG$V_PRINT File=ZIG$V_PRINT.:ZIC0TSI                         FRI 09/05/97 12:22 Page:44
        58 000521   000047 030014 54                 NDSC9   SECOND_PART              cn=0,s=nosgn,sf=0,n=12
        58 000522   000000 000002 55                 ADSC9   MOPSTR                   cn=0,n=2
        58 000523   000047 000014 54                 ADSC9   SECOND_PART              cn=0,n=12

      176     4123    3           CALL CONCAT(LIST_STRING,'               (S) FR ',TEMP_FR$ ->

   4123 58 000524   100004 220100                    LDX0    4,,PR1
        58 000525   000077 360003                    ANX0    63,DU
        58 000526   000204 473400 54                 LDP3    TEMP_RC$
        58 000527   300000 721100                    LXL1    0,,PR3
        58 000530   000077 361003                    ANX1    63,DU
        58 000531   040000 100400                    MLR     fill='040'O
        58 000532   000006 000026 55                 ADSC9   MOPSTR+6                 cn=0,n=22
        58 000533   000000 000026 53                 ADSC9   LIST_STRING              cn=0,n=22
        58 000534   040000 100540                    MLR     fill='040'O
        58 000535   100006 000010                    ADSC9   6,,PR1                   cn=0,n=*X0
        58 000536   000005 400152 53                 ADSC9   LIST_STRING+5            cn=2,n=106
        58 000537   000000 636010                    EAQ     0,X0
        58 000540   000022 772000                    QRL     18
        58 000541   000152 116007                    CMPQ    106,DL
        58 000542   000571 603000 58                 TRC     s:4125
        58 000543   200016 740100                    STX0    K+2,,AUTO
        58 000544   777625 620010                    EAX0    -107,X0
        58 000545   777777 660003                    ERX0    -1,DU
        58 000546   200016 236100                    LDQ     K+2,,AUTO
        58 000547   000022 772000                    QRL     18
        58 000550   040046 100400                    MLR     fill='040'O
        58 000551   000047 000014 54                 ADSC9   SECOND_PART              cn=0,n=12
        58 000552   000005 400010 53                 ADSC9   LIST_STRING+5,Q          cn=2,n=*X0
        58 000553   000136 116007                    CMPQ    94,DL
        58 000554   000571 603000 58                 TRC     s:4125
        58 000555   777641 620006                    EAX0    -95,QL
        58 000556   777777 660003                    ERX0    -1,DU
        58 000557   040046 100400                    MLR     fill='040'O
        58 000560   000014 000007 55                 ADSC9   MOPSTR+12                cn=0,n=7
        58 000561   000010 400010 53                 ADSC9   LIST_STRING+8,Q          cn=2,n=*X0
        58 000562   000127 116007                    CMPQ    87,DL
PL6.E3A0      #001=ZIG$V_PRINT File=ZIG$V_PRINT.:ZIC0TSI                         FRI 09/05/97 12:22 Page:45
        58 000563   000571 603000 58                 TRC     s:4125
        58 000564   777650 622006                    EAX2    -88,QL
        58 000565   777777 662003                    ERX2    -1,DU
        58 000566   040046 100540                    MLR     fill='040'O
        58 000567   300005 000011                    ADSC9   5,,PR3                   cn=0,n=*X1
        58 000570   000012 200012 53                 ADSC9   LIST_STRING+10,Q         cn=1,n=*X2

      177     4124    3              FR.FNAM,SECOND_PART,'  RC - ',TEMP_RC$ -> RC.RNAM);
      178     4125    3           CALL LIST(LIST_STRING);

   4125 58 000571   000002 630400 59                 EPPR0   2
        58 000572   000001 631400 59                 EPPR1   1
        58 000573   000000 701000 xent               TSX1    LIST
        58 000574   000000 011000                    NOP     0

      179     4126    3           END;

      180     4127    2       TEMP_FR$ = PINCRW(SSS$,CD.CDRH);

   4127 58 000575   000000 470400 48                 LDP0    CD$
        58 000576   000002 720100                    LXL0    2,,PR0
        58 000577   000000 636010                    EAQ     0,X0
        58 000600   000000 036000 33                 ADLQ    SSS$
        58 000601   000205 756000 54                 STQ     TEMP_FR$

      181     4128    2       IF TEMP_FR$ ~= SSS$

   4128 58 000602   000000 116000 33                 CMPQ    SSS$
        58 000603   000675 600000 58                 TZE     s:4137

      182     4129    3       THEN DO;

      183     4130    3           TEMP_RC$ = PINCRW(SSS$,TEMP_FR$ -> FR.RCFRH);

   4130 58 000604   000205 471400 54                 LDP1    TEMP_FR$
        58 000605   100005 221100                    LDX1    5,,PR1
        58 000606   000000 636011                    EAQ     0,X1
PL6.E3A0      #001=ZIG$V_PRINT File=ZIG$V_PRINT.:ZIC0TSI                         FRI 09/05/97 12:22 Page:46
        58 000607   000000 036000 33                 ADLQ    SSS$
        58 000610   000204 756000 54                 STQ     TEMP_RC$

      184     4131    3           CALL BINCHAR(SECOND_PART,CD.CDRH);

   4131 58 000611   000002 236100                    LDQ     2,,PR0
        58 000612   777777 376007                    ANQ     -1,DL
        58 000613   000000 235003                    LDA     0,DU
        58 000614   200016 757100                    STAQ    K+2,,AUTO
        58 000615   000000 301500                    BTD
        58 000616   200016 000010                    NDSC9   K+2,,AUTO                cn=0,s=lsgnf,sf=0,n=8
        58 000617   000047 030014 54                 NDSC9   SECOND_PART              cn=0,s=nosgn,sf=0,n=12

      185     4132    3           CALL EDITCHAR(SECOND_PART,0,12,MOPSTR,SECOND_PART);

   4132 58 000620   000000 024400                    MVNE
        58 000621   000047 030014 54                 NDSC9   SECOND_PART              cn=0,s=nosgn,sf=0,n=12
        58 000622   000000 000002 55                 ADSC9   MOPSTR                   cn=0,n=2
        58 000623   000047 000014 54                 ADSC9   SECOND_PART              cn=0,n=12

      186     4133    3           CALL CONCAT(LIST_STRING,'               (R) FR ',TEMP_FR$ ->

   4133 58 000624   100004 220100                    LDX0    4,,PR1
        58 000625   000077 360003                    ANX0    63,DU
        58 000626   000204 473400 54                 LDP3    TEMP_RC$
        58 000627   300000 721100                    LXL1    0,,PR3
        58 000630   000077 361003                    ANX1    63,DU
        58 000631   040000 100400                    MLR     fill='040'O
        58 000632   000016 000026 55                 ADSC9   MOPSTR+14                cn=0,n=22
        58 000633   000000 000026 53                 ADSC9   LIST_STRING              cn=0,n=22
        58 000634   040000 100540                    MLR     fill='040'O
        58 000635   100006 000010                    ADSC9   6,,PR1                   cn=0,n=*X0
        58 000636   000005 400152 53                 ADSC9   LIST_STRING+5            cn=2,n=106
        58 000637   000000 636010                    EAQ     0,X0
        58 000640   000022 772000                    QRL     18
        58 000641   000152 116007                    CMPQ    106,DL
        58 000642   000671 603000 58                 TRC     s:4135
PL6.E3A0      #001=ZIG$V_PRINT File=ZIG$V_PRINT.:ZIC0TSI                         FRI 09/05/97 12:22 Page:47
        58 000643   200016 740100                    STX0    K+2,,AUTO
        58 000644   777625 620010                    EAX0    -107,X0
        58 000645   777777 660003                    ERX0    -1,DU
        58 000646   200016 236100                    LDQ     K+2,,AUTO
        58 000647   000022 772000                    QRL     18
        58 000650   040046 100400                    MLR     fill='040'O
        58 000651   000047 000014 54                 ADSC9   SECOND_PART              cn=0,n=12
        58 000652   000005 400010 53                 ADSC9   LIST_STRING+5,Q          cn=2,n=*X0
        58 000653   000136 116007                    CMPQ    94,DL
        58 000654   000671 603000 58                 TRC     s:4135
        58 000655   777641 620006                    EAX0    -95,QL
        58 000656   777777 660003                    ERX0    -1,DU
        58 000657   040046 100400                    MLR     fill='040'O
        58 000660   000014 000007 55                 ADSC9   MOPSTR+12                cn=0,n=7
        58 000661   000010 400010 53                 ADSC9   LIST_STRING+8,Q          cn=2,n=*X0
        58 000662   000127 116007                    CMPQ    87,DL
        58 000663   000671 603000 58                 TRC     s:4135
        58 000664   777650 622006                    EAX2    -88,QL
        58 000665   777777 662003                    ERX2    -1,DU
        58 000666   040046 100540                    MLR     fill='040'O
        58 000667   300005 000011                    ADSC9   5,,PR3                   cn=0,n=*X1
        58 000670   000012 200012 53                 ADSC9   LIST_STRING+10,Q         cn=1,n=*X2

      187     4134    3              FR.FNAM,SECOND_PART,'  RC - ',TEMP_RC$ -> RC.RNAM);
      188     4135    3           CALL LIST(LIST_STRING);

   4135 58 000671   000002 630400 59                 EPPR0   2
        58 000672   000001 631400 59                 EPPR1   1
        58 000673   000000 701000 xent               TSX1    LIST
        58 000674   000000 011000                    NOP     0

      189     4136    3           END;

      190     4137    2       T3PTR$ = PINCRW(SSS$,CD.RSCDH);

   4137 58 000675   000000 470400 48                 LDP0    CD$
        58 000676   000001 720100                    LXL0    1,,PR0
PL6.E3A0      #001=ZIG$V_PRINT File=ZIG$V_PRINT.:ZIC0TSI                         FRI 09/05/97 12:22 Page:48
        58 000677   000000 636010                    EAQ     0,X0
        58 000700   000000 036000 33                 ADLQ    SSS$
        58 000701   000206 756000 54                 STQ     T3PTR$

      191     4138    2       IF T3PTR$ -> SS.DEF.TYPE = '000000001000'B

   4138 58 000702   000206 471400 54                 LDP1    T3PTR$
        58 000703   100000 236100                    LDQ     0,,PR1
        58 000704   777700 376003                    ANQ     -64,DU
        58 000705   001000 116003                    CMPQ    512,DU
        58 000706   000713 601000 58                 TNZ     s:4140

      192     4139    2       THEN T3PTR$ = PINCRW(SSS$,T3PTR$ -> SS.RSSSH);

   4139 58 000707   100002 721100                    LXL1    2,,PR1
        58 000710   000000 636011                    EAQ     0,X1
        58 000711   000000 036000 33                 ADLQ    SSS$
        58 000712   000206 756000 54                 STQ     T3PTR$

      193     4140    2       T3PTR$ = PINCRW(SSS$,T3PTR$ -> RS.SCRSH);

   4140 58 000713   000206 471400 54                 LDP1    T3PTR$
        58 000714   100003 721100                    LXL1    3,,PR1
        58 000715   000000 636011                    EAQ     0,X1
        58 000716   000000 036000 33                 ADLQ    SSS$
        58 000717   000206 756000 54                 STQ     T3PTR$

      194     4141    2       SECOND_PART_STR = T3PTR$ -> SC.SNAM;

   4141 58 000720   000206 471400 54                 LDP1    T3PTR$
        58 000721   100000 721100                    LXL1    0,,PR1
        58 000722   000077 361003                    ANX1    63,DU
        58 000723   040000 100540                    MLR     fill='040'O
        58 000724   100003 000011                    ADSC9   3,,PR1                   cn=0,n=*X1
        58 000725   000052 000036 54                 ADSC9   SECOND_PART_STR          cn=0,n=30

      195     4142    2       CALL PRINT_S('For the set^',SECOND_PART_STR);
PL6.E3A0      #001=ZIG$V_PRINT File=ZIG$V_PRINT.:ZIC0TSI                         FRI 09/05/97 12:22 Page:49

   4142 58 000726   000010 236000 59                 LDQ     8
        58 000727   200010 756100                    STQ     @LEN,,AUTO
        58 000730   000011 236000 59                 LDQ     9
        58 000731   200007 756100                    STQ     @HEADING,,AUTO
        58 000732   000061 701000 58                 TSX1    PRINT_S
        58 000733   000000 011000                    NOP     0

      196     4143    2   END PRINT_CD;

   4143 58 000734   200004 221300                    LDX1  ! 4,,AUTO
        58 000735   000001 702211                    TSX2  ! 1,X1

      197     4144        %EJECT;
PL6.E3A0      #001=ZIG$V_PRINT File=ZIG$V_PRINT.:ZIC0TSI                         FRI 09/05/97 12:22 Page:50
      198     4145    1       CALL READ64(0,ADDR(CONTROL));

   4145 58 000736   000013 236000 59                 LDQ     11
        58 000737   200016 756100                    STQ     K+2,,AUTO
        58 000740   200016 630500                    EPPR0   K+2,,AUTO
        58 000741   200021 450500                    STP0    K+5,,AUTO
        58 000742   000014 236000 59                 LDQ     12
        58 000743   200020 756100                    STQ     K+4,,AUTO
        58 000744   200020 630500                    EPPR0   K+4,,AUTO
        58 000745   000012 631400 59                 EPPR1   10
        58 000746   000000 701000 xent               TSX1    READ64
        58 000747   000000 011000                    NOP     0

      199     4146    1       IF J ~= 13

   4146 58 000750   000000 235000 57                 LDA     J
        58 000751   000015 115007                    CMPA    13,DL
        58 000752   001153 600000 58                 TZE     s:4172

      200     4147    2       THEN DO;

      201     4148    2           CALL SUBLST(MAIN_HEADING);

   4148 58 000753   000015 630400 59                 EPPR0   13
        58 000754   000001 631400 59                 EPPR1   1
        58 000755   000000 701000 xent               TSX1    SUBLST
        58 000756   000000 011000                    NOP     0

      202     4149    2           START = 1;

   4149 58 000757   000001 235007                    LDA     1,DL
        58 000760   000000 755000 54                 STA     START

      203     4150    2           CALL PRINT('VALIDATION STATUS^',CONTROL.VALIDATION_STATUS);

   4150 58 000761   000013 236000 59                 LDQ     11
        58 000762   200006 756100                    STQ     @STR+1,,AUTO
PL6.E3A0      #001=ZIG$V_PRINT File=ZIG$V_PRINT.:ZIC0TSI                         FRI 09/05/97 12:22 Page:51
        58 000763   000016 236000 59                 LDQ     14
        58 000764   200005 756100                    STQ     5,,AUTO
        58 000765   000003 701000 58                 TSX1    PRINT
        58 000766   000000 011000                    NOP     0

      204     4151    2           CALL PRINT('TRANSLATION STATUS^',CONTROL.TRANSLATION_STATUS);

   4151 58 000767   000017 236000 59                 LDQ     15
        58 000770   200006 756100                    STQ     @STR+1,,AUTO
        58 000771   000020 236000 59                 LDQ     16
        58 000772   200005 756100                    STQ     5,,AUTO
        58 000773   000003 701000 58                 TSX1    PRINT
        58 000774   000000 011000                    NOP     0

      205     4152    2           CALL PRINT('UWA SIZE^',CONTROL.UWA_SIZE);

   4152 58 000775   000021 236000 59                 LDQ     17
        58 000776   200006 756100                    STQ     @STR+1,,AUTO
        58 000777   000022 236000 59                 LDQ     18
        58 001000   200005 756100                    STQ     5,,AUTO
        58 001001   000003 701000 58                 TSX1    PRINT
        58 001002   000000 011000                    NOP     0

      206     4153    2           CALL PRINT('NUMBER AREAS^',CONTROL.NUM_AREAS);

   4153 58 001003   000023 236000 59                 LDQ     19
        58 001004   200006 756100                    STQ     @STR+1,,AUTO
        58 001005   000024 236000 59                 LDQ     20
        58 001006   200005 756100                    STQ     5,,AUTO
        58 001007   000003 701000 58                 TSX1    PRINT
        58 001010   000000 011000                    NOP     0

      207     4154    2           CALL PRINT('NUMBER RECORDS^',CONTROL.NUM_RECORDS);

   4154 58 001011   000025 236000 59                 LDQ     21
        58 001012   200006 756100                    STQ     @STR+1,,AUTO
        58 001013   000026 236000 59                 LDQ     22
PL6.E3A0      #001=ZIG$V_PRINT File=ZIG$V_PRINT.:ZIC0TSI                         FRI 09/05/97 12:22 Page:52
        58 001014   200005 756100                    STQ     5,,AUTO
        58 001015   000003 701000 58                 TSX1    PRINT
        58 001016   000000 011000                    NOP     0

      208     4155    2           CALL PRINT('NUMBER FIELDS^',CONTROL.NUM_FIELDS);

   4155 58 001017   000027 236000 59                 LDQ     23
        58 001020   200006 756100                    STQ     @STR+1,,AUTO
        58 001021   000030 236000 59                 LDQ     24
        58 001022   200005 756100                    STQ     5,,AUTO
        58 001023   000003 701000 58                 TSX1    PRINT
        58 001024   000000 011000                    NOP     0

      209     4156    2           CALL PRINT('NUMBER SETS^',CONTROL.NUM_SETS);

   4156 58 001025   000031 236000 59                 LDQ     25
        58 001026   200006 756100                    STQ     @STR+1,,AUTO
        58 001027   000032 236000 59                 LDQ     26
        58 001030   200005 756100                    STQ     5,,AUTO
        58 001031   000003 701000 58                 TSX1    PRINT
        58 001032   000000 011000                    NOP     0

      210     4157    2           CALL PRINT('NUMBER RECORD SET^',CONTROL.NUM_REC_SET_REL);

   4157 58 001033   000033 236000 59                 LDQ     27
        58 001034   200006 756100                    STQ     @STR+1,,AUTO
        58 001035   000034 236000 59                 LDQ     28
        58 001036   200005 756100                    STQ     5,,AUTO
        58 001037   000003 701000 58                 TSX1    PRINT
        58 001040   000000 011000                    NOP     0

      211     4158    2           CALL PRINT('NUMBER DB PARAMS^',CONTROL.NUM_DB_PARAM);

   4158 58 001041   000035 236000 59                 LDQ     29
        58 001042   200006 756100                    STQ     @STR+1,,AUTO
        58 001043   000036 236000 59                 LDQ     30
        58 001044   200005 756100                    STQ     5,,AUTO
PL6.E3A0      #001=ZIG$V_PRINT File=ZIG$V_PRINT.:ZIC0TSI                         FRI 09/05/97 12:22 Page:53
        58 001045   000003 701000 58                 TSX1    PRINT
        58 001046   000000 011000                    NOP     0

      212     4159    2           CALL PRINT_S('SCHEMA NAME^',CONTROL.SCHEMA_NAME);

   4159 58 001047   000037 236000 59                 LDQ     31
        58 001050   200010 756100                    STQ     @HEADING+1,,AUTO
        58 001051   000040 236000 59                 LDQ     32
        58 001052   200007 756100                    STQ     @NUM+1,,AUTO
        58 001053   000061 701000 58                 TSX1    PRINT_S
        58 001054   000000 011000                    NOP     0

      213     4160    2           CALL PRINT_S('SUBSCHEMA NAME^',CONTROL.SUBSCHEMA_NAME);

   4160 58 001055   000041 236000 59                 LDQ     33
        58 001056   200010 756100                    STQ     @HEADING+1,,AUTO
        58 001057   000042 236000 59                 LDQ     34
        58 001060   200007 756100                    STQ     @NUM+1,,AUTO
        58 001061   000061 701000 58                 TSX1    PRINT_S
        58 001062   000000 011000                    NOP     0

      214     4161    2           CALL PRINT_S('SUBSCHEMA LANGUAGE^',LANG_TEXT(CONTROL.LANGUAGE));

   4161 58 001063   000041 236000 26                 LDQ     CONTROL+33
        58 001064   000044 402000 59                 MPY     36
        58 001065   000043 036000 59                 ADLQ    35
        58 001066   200010 756100                    STQ     @HEADING+1,,AUTO
        58 001067   000045 236000 59                 LDQ     37
        58 001070   200007 756100                    STQ     @NUM+1,,AUTO
        58 001071   000061 701000 58                 TSX1    PRINT_S
        58 001072   000000 011000                    NOP     0

      215     4162    2           CALL PRINT_O('TRANSLATION UTS^',36,CONTROL.SUBSCHEMA_UTS);

   4162 58 001073   000046 237000 59                 LDAQ    38
        58 001074   200006 757100                    STAQ    @STR+1,,AUTO
        58 001075   000050 236000 59                 LDQ     40
PL6.E3A0      #001=ZIG$V_PRINT File=ZIG$V_PRINT.:ZIC0TSI                         FRI 09/05/97 12:22 Page:54
        58 001076   200005 756100                    STQ     5,,AUTO
        58 001077   000135 701000 58                 TSX1    PRINT_O
        58 001100   000000 011000                    NOP     0

      216     4163    2           CALL PRINT_O('VALIDATION UTS^',36,CONTROL.VALIDATION_UTS);

   4163 58 001101   000052 237000 59                 LDAQ    42
        58 001102   200006 757100                    STAQ    @STR+1,,AUTO
        58 001103   000054 236000 59                 LDQ     44
        58 001104   200005 756100                    STQ     5,,AUTO
        58 001105   000135 701000 58                 TSX1    PRINT_O
        58 001106   000000 011000                    NOP     0

      217     4164    2           CALL PRINT('NEXT AVAILABLE RECORD^',CONTROL.NEXT_AVAILABLE_RECORD);

   4164 58 001107   000055 236000 59                 LDQ     45
        58 001110   200006 756100                    STQ     @STR+1,,AUTO
        58 001111   000056 236000 59                 LDQ     46
        58 001112   200005 756100                    STQ     5,,AUTO
        58 001113   000003 701000 58                 TSX1    PRINT
        58 001114   000000 011000                    NOP     0

      218     4165    2           CALL PRINT('FIRST CU RECORD^',CONTROL.FIRST_CU_RECORD);

   4165 58 001115   000057 236000 59                 LDQ     47
        58 001116   200006 756100                    STQ     @STR+1,,AUTO
        58 001117   000060 236000 59                 LDQ     48
        58 001120   200005 756100                    STQ     5,,AUTO
        58 001121   000003 701000 58                 TSX1    PRINT
        58 001122   000000 011000                    NOP     0

      219     4166    2           CALL PRINT('FIRST NF RECORD^',CONTROL.FIRST_NF_RECORD);

   4166 58 001123   000061 236000 59                 LDQ     49
        58 001124   200006 756100                    STQ     @STR+1,,AUTO
        58 001125   000062 236000 59                 LDQ     50
        58 001126   200005 756100                    STQ     5,,AUTO
PL6.E3A0      #001=ZIG$V_PRINT File=ZIG$V_PRINT.:ZIC0TSI                         FRI 09/05/97 12:22 Page:55
        58 001127   000003 701000 58                 TSX1    PRINT
        58 001130   000000 011000                    NOP     0

      220     4167    2           CALL PRINT('FIRST SDS RECORD^',CONTROL.FIRST_SDS_RECORD);

   4167 58 001131   000063 236000 59                 LDQ     51
        58 001132   200006 756100                    STQ     @STR+1,,AUTO
        58 001133   000064 236000 59                 LDQ     52
        58 001134   200005 756100                    STQ     5,,AUTO
        58 001135   000003 701000 58                 TSX1    PRINT
        58 001136   000000 011000                    NOP     0

      221     4168    2           CALL PRINT('FIRST NFE RECORD^',CONTROL.FIRST_NFE_RECORD);

   4168 58 001137   000065 236000 59                 LDQ     53
        58 001140   200006 756100                    STQ     @STR+1,,AUTO
        58 001141   000066 236000 59                 LDQ     54
        58 001142   200005 756100                    STQ     5,,AUTO
        58 001143   000003 701000 58                 TSX1    PRINT
        58 001144   000000 011000                    NOP     0

      222     4169    2           CALL PRINT('SIZE SCHEMA SUBSET^',CONTROL.FIRST_ISS_BLOCK);

   4169 58 001145   000067 236000 59                 LDQ     55
        58 001146   200006 756100                    STQ     @STR+1,,AUTO
        58 001147   000070 236000 59                 LDQ     56
        58 001150   200005 756100                    STQ     5,,AUTO
        58 001151   000003 701000 58                 TSX1    PRINT
        58 001152   000000 011000                    NOP     0

      223     4170    2           END;

      224     4171        %EJECT;
PL6.E3A0      #001=ZIG$V_PRINT File=ZIG$V_PRINT.:ZIC0TSI                         FRI 09/05/97 12:22 Page:56
      225     4172    1       CALL ZIG$G_DYN_MEM_6(CONTROL.FIRST_ISS_BLOCK,SSS$);

   4172 58 001153   000071 630400 59                 EPPR0   57
        58 001154   000012 631400 59                 EPPR1   10
        58 001155   000000 701000 xent               TSX1    ZIG$G_DYN_MEM_6
        58 001156   000000 011000                    NOP     0

      226     4173    1       SUBSCHEMA_KEY = ' SSS KEY';

   4173 58 001157   000156 237000 55                 LDAQ    MOPSTR+110
        58 001160   000000 757000 13                 STAQ    SUBSCHEMA_KEY

      227     4174    1       SPECIAL_KEY.COUNT = 7;

   4174 58 001161   007000 236003                    LDQ     3584,DU
        58 001162   000000 552040 13                 STBQ    SUBSCHEMA_KEY,'40'O

      228     4175    1       BUFFER$ = SSS$;

   4175 58 001163   000000 236000 33                 LDQ     SSS$
        58 001164   000000 756000 14                 STQ     BUFFER$

      229     4176    1       BUFFER_LEN = ( CONTROL.FIRST_ISS_BLOCK * 4 ) -1;

   4176 58 001165   000077 235000 26                 LDA     CONTROL+63
        58 001166   000002 735000                    ALS     2
        58 001167   000001 135007                    SBLA    1,DL
        58 001170   000000 755000 16                 STA     BUFFER_LEN

      230     4177    1       CALL ZIG$SS_RVAR;

   4177 58 001171   000004 631400 59                 EPPR1   4
        58 001172   000000 701000 xent               TSX1    ZIG$SS_RVAR
        58 001173   000000 011000                    NOP     0

      231     4178    1       OA$ = PINCRW(SSS$,1);

PL6.E3A0      #001=ZIG$V_PRINT File=ZIG$V_PRINT.:ZIC0TSI                         FRI 09/05/97 12:22 Page:57
   4178 58 001174   000000 236000 33                 LDQ     SSS$
        58 001175   000001 036003                    ADLQ    1,DU
        58 001176   000000 756000 42                 STQ     OA$

      232     4179    1       IF J = 13

   4179 58 001177   000000 235000 57                 LDA     J
        58 001200   000015 115007                    CMPA    13,DL
        58 001201   001206 601000 58                 TNZ     s:4191

      233     4180    2       THEN DO;

      234     4181    2           CALL CLOSE_64;

   4181 58 001202   000004 631400 59                 EPPR1   4
        58 001203   000000 701000 xent               TSX1    CLOSE_64
        58 001204   000000 011000                    NOP     0

      235     4182    2           RETURN;

   4182 58 001205   000000 702200 xent               TSX2  ! X66_ARET

      236     4183    2           END;
      237     4184        /*   If we are replaceing the schema subset shared version then
      238     4185            we return here and don't print the subschema.
      239     4186        */
      240     4187        /*
      241     4188              The schema subset is now in memory so now start going throw
      242     4189            the structures.
      243     4190        */
      244     4191    1       START = 6;

   4191 58 001206   000006 235007                    LDA     6,DL
        58 001207   000000 755000 54                 STA     START

      245     4192    1       CALL PRINT_O('OA DEF^',18,OA.DEF);

PL6.E3A0      #001=ZIG$V_PRINT File=ZIG$V_PRINT.:ZIC0TSI                         FRI 09/05/97 12:22 Page:58
   4192 58 001210   000074 235000 59                 LDA     60
        58 001211   200006 757100                    STAQ    @STR+1,,AUTO
        58 001212   000075 236000 59                 LDQ     61
        58 001213   200005 756100                    STQ     5,,AUTO
        58 001214   000135 701000 58                 TSX1    PRINT_O
        58 001215   000000 011000                    NOP     0

      246     4193    1       I = OA.SZISS;

   4193 58 001216   000000 470400 42                 LDP0    OA$
        58 001217   000000 236100                    LDQ     0,,PR0
        58 001220   777777 376007                    ANQ     -1,DL
        58 001221   000062 756000 54                 STQ     I

      247     4194    1       CALL PRINT('SCHEMA SUBSET INT SIZE^',I);

   4194 58 001222   000076 236000 59                 LDQ     62
        58 001223   200006 756100                    STQ     @STR+1,,AUTO
        58 001224   000077 236000 59                 LDQ     63
        58 001225   200005 756100                    STQ     5,,AUTO
        58 001226   000003 701000 58                 TSX1    PRINT
        58 001227   000000 011000                    NOP     0

      248     4195    1       I = OA.UWSSZ;

   4195 58 001230   000000 470400 42                 LDP0    OA$
        58 001231   000002 236100                    LDQ     2,,PR0
        58 001232   777777 376007                    ANQ     -1,DL
        58 001233   000062 756000 54                 STQ     I

      249     4196    1       CALL PRINT('SCHEMA SUBSET SIZE^',I);

   4196 58 001234   000076 236000 59                 LDQ     62
        58 001235   200006 756100                    STQ     @STR+1,,AUTO
        58 001236   000100 236000 59                 LDQ     64
        58 001237   200005 756100                    STQ     5,,AUTO
        58 001240   000003 701000 58                 TSX1    PRINT
PL6.E3A0      #001=ZIG$V_PRINT File=ZIG$V_PRINT.:ZIC0TSI                         FRI 09/05/97 12:22 Page:59
        58 001241   000000 011000                    NOP     0

      250     4197    1       CALL PRINT_O('SCHEMA NAME EIS^',36,OA.SCNAM);

   4197 58 001242   000000 236000 42                 LDQ     OA$
        58 001243   000004 036003                    ADLQ    4,DU
        58 001244   000006 235000 59                 LDA     6
        58 001245   200006 757100                    STAQ    @STR+1,,AUTO
        58 001246   000101 236000 59                 LDQ     65
        58 001247   200005 756100                    STQ     5,,AUTO
        58 001250   000135 701000 58                 TSX1    PRINT_O
        58 001251   000000 011000                    NOP     0

      251     4198    1       CALL PRINT_O('SUBSCHEMA NAME EIS^',36,OA.SSNAM);

   4198 58 001252   000000 236000 42                 LDQ     OA$
        58 001253   000005 036003                    ADLQ    5,DU
        58 001254   000006 235000 59                 LDA     6
        58 001255   200006 757100                    STAQ    @STR+1,,AUTO
        58 001256   000102 236000 59                 LDQ     66
        58 001257   200005 756100                    STQ     5,,AUTO
        58 001260   000135 701000 58                 TSX1    PRINT_O
        58 001261   000000 011000                    NOP     0

      252     4199    1       CALL PRINT_O('SCHEMA TRANSLATION UTS^',36,OA.SSDT);

   4199 58 001262   000000 236000 42                 LDQ     OA$
        58 001263   000007 036003                    ADLQ    7,DU
        58 001264   000006 235000 59                 LDA     6
        58 001265   200006 757100                    STAQ    @STR+1,,AUTO
        58 001266   000103 236000 59                 LDQ     67
        58 001267   200005 756100                    STQ     5,,AUTO
        58 001270   000135 701000 58                 TSX1    PRINT_O
        58 001271   000000 011000                    NOP     0

      253     4200    1       CALL PRINT_O('SCHEMA VALIDATION UTS^',36,OA.SSVDT);

PL6.E3A0      #001=ZIG$V_PRINT File=ZIG$V_PRINT.:ZIC0TSI                         FRI 09/05/97 12:22 Page:60
   4200 58 001272   000000 236000 42                 LDQ     OA$
        58 001273   000011 036003                    ADLQ    9,DU
        58 001274   000006 235000 59                 LDA     6
        58 001275   200006 757100                    STAQ    @STR+1,,AUTO
        58 001276   000104 236000 59                 LDQ     68
        58 001277   200005 756100                    STQ     5,,AUTO
        58 001300   000135 701000 58                 TSX1    PRINT_O
        58 001301   000000 011000                    NOP     0

      254     4201    1       I = OA.ACNT;

   4201 58 001302   000000 470400 42                 LDP0    OA$
        58 001303   000016 236100                    LDQ     14,,PR0
        58 001304   777777 376007                    ANQ     -1,DL
        58 001305   000062 756000 54                 STQ     I

      255     4202    1       CALL PRINT('NUMBER AREAS^',I);

   4202 58 001306   000076 236000 59                 LDQ     62
        58 001307   200006 756100                    STQ     @STR+1,,AUTO
        58 001310   000024 236000 59                 LDQ     20
        58 001311   200005 756100                    STQ     5,,AUTO
        58 001312   000003 701000 58                 TSX1    PRINT
        58 001313   000000 011000                    NOP     0

      256     4203    1       I = OA.CSZ;

   4203 58 001314   000000 470400 42                 LDP0    OA$
        58 001315   000017 236100                    LDQ     15,,PR0
        58 001316   000022 772000                    QRL     18
        58 001317   000062 756000 54                 STQ     I

      257     4204    1       CALL PRINT('SIZE OF CURRENCIES^',I);

   4204 58 001320   000076 236000 59                 LDQ     62
        58 001321   200006 756100                    STQ     @STR+1,,AUTO
        58 001322   000105 236000 59                 LDQ     69
PL6.E3A0      #001=ZIG$V_PRINT File=ZIG$V_PRINT.:ZIC0TSI                         FRI 09/05/97 12:22 Page:61
        58 001323   200005 756100                    STQ     5,,AUTO
        58 001324   000003 701000 58                 TSX1    PRINT
        58 001325   000000 011000                    NOP     0

      258     4205    1       I = OA.LRSZ;

   4205 58 001326   000000 470400 42                 LDP0    OA$
        58 001327   000017 236100                    LDQ     15,,PR0
        58 001330   777777 376007                    ANQ     -1,DL
        58 001331   000062 756000 54                 STQ     I

      259     4206    1       CALL PRINT('LARGEST RECORD IS^',I);

   4206 58 001332   000076 236000 59                 LDQ     62
        58 001333   200006 756100                    STQ     @STR+1,,AUTO
        58 001334   000106 236000 59                 LDQ     70
        58 001335   200005 756100                    STQ     5,,AUTO
        58 001336   000003 701000 58                 TSX1    PRINT
        58 001337   000000 011000                    NOP     0

      260     4207    1       I = OA.UWSZ;

   4207 58 001340   000000 470400 42                 LDP0    OA$
        58 001341   000020 236100                    LDQ     16,,PR0
        58 001342   000022 772000                    QRL     18
        58 001343   000062 756000 54                 STQ     I

      261     4208    1       CALL PRINT('UWA SIZE^',I);

   4208 58 001344   000076 236000 59                 LDQ     62
        58 001345   200006 756100                    STQ     @STR+1,,AUTO
        58 001346   000022 236000 59                 LDQ     18
        58 001347   200005 756100                    STQ     5,,AUTO
        58 001350   000003 701000 58                 TSX1    PRINT
        58 001351   000000 011000                    NOP     0

      262     4209    1       I = OA.LSSZ;
PL6.E3A0      #001=ZIG$V_PRINT File=ZIG$V_PRINT.:ZIC0TSI                         FRI 09/05/97 12:22 Page:62

   4209 58 001352   000000 470400 42                 LDP0    OA$
        58 001353   000020 236100                    LDQ     16,,PR0
        58 001354   777777 376007                    ANQ     -1,DL
        58 001355   000062 756000 54                 STQ     I

      263     4210    1       CALL PRINT('LINKAGE SECTION SIZE^',I);

   4210 58 001356   000076 236000 59                 LDQ     62
        58 001357   200006 756100                    STQ     @STR+1,,AUTO
        58 001360   000107 236000 59                 LDQ     71
        58 001361   200005 756100                    STQ     5,,AUTO
        58 001362   000003 701000 58                 TSX1    PRINT
        58 001363   000000 011000                    NOP     0

      264     4211    1       I = OA.KPASZ;

   4211 58 001364   000000 470400 42                 LDP0    OA$
        58 001365   000022 236100                    LDQ     18,,PR0
        58 001366   000022 772000                    QRL     18
        58 001367   000062 756000 54                 STQ     I

      265     4212    1       CALL PRINT('KEY PROCESSING SIZE^',I);

   4212 58 001370   000076 236000 59                 LDQ     62
        58 001371   200006 756100                    STQ     @STR+1,,AUTO
        58 001372   000110 236000 59                 LDQ     72
        58 001373   200005 756100                    STQ     5,,AUTO
        58 001374   000003 701000 58                 TSX1    PRINT
        58 001375   000000 011000                    NOP     0

      266     4213    1       I = OA.LPASZ;

   4213 58 001376   000000 470400 42                 LDP0    OA$
        58 001377   000023 236100                    LDQ     19,,PR0
        58 001400   000022 772000                    QRL     18
        58 001401   000062 756000 54                 STQ     I
PL6.E3A0      #001=ZIG$V_PRINT File=ZIG$V_PRINT.:ZIC0TSI                         FRI 09/05/97 12:22 Page:63

      267     4214    1       CALL PRINT('LARGEST PA RECORD^',I);

   4214 58 001402   000076 236000 59                 LDQ     62
        58 001403   200006 756100                    STQ     @STR+1,,AUTO
        58 001404   000111 236000 59                 LDQ     73
        58 001405   200005 756100                    STQ     5,,AUTO
        58 001406   000003 701000 58                 TSX1    PRINT
        58 001407   000000 011000                    NOP     0

      268     4215        %EJECT;
PL6.E3A0      #001=ZIG$V_PRINT File=ZIG$V_PRINT.:ZIC0TSI                         FRI 09/05/97 12:22 Page:64
      269     4216        /*
      270     4217              Now do the areas for this schema subset.
      271     4218        */
      272     4219    1       CALL SUBLST(AREA_HEADING);

   4219 58 001410   000112 630400 59                 EPPR0   74
        58 001411   000001 631400 59                 EPPR1   1
        58 001412   000000 701000 xent               TSX1    SUBLST
        58 001413   000000 011000                    NOP     0

      273     4220    1       AC$ = PINCRW(SSS$,OA.OAACN);

   4220 58 001414   000000 470400 42                 LDP0    OA$
        58 001415   000001 220100                    LDX0    1,,PR0
        58 001416   000000 636010                    EAQ     0,X0
        58 001417   000000 036000 33                 ADLQ    SSS$
        58 001420   000000 756000 34                 STQ     AC$

      274     4221    1       AC1$ = PINCRW(AC$,-1);

   4221 58 001421   777777 036003                    ADLQ    -1,DU
        58 001422   000000 756000 35                 STQ     AC1$

      275     4222    2       DO WHILE (AC$ ~= SSS$); /*End of set are 0 */

   4222 58 001423   000000 236000 34                 LDQ     AC$
        58 001424   000000 116000 33                 CMPQ    SSS$
        58 001425   002017 600000 58                 TZE     s:4268

      276     4223    2           IF AC.DEF.TYPE ~= '010000000000'B

   4223 58 001426   000000 470400 34                 LDP0    AC$
        58 001427   000000 236100                    LDQ     0,,PR0
        58 001430   777700 376003                    ANQ     -64,DU
        58 001431   200000 116003                    CMPQ    65536,DU
        58 001432   001436 600000 58                 TZE     s:4225

PL6.E3A0      #001=ZIG$V_PRINT File=ZIG$V_PRINT.:ZIC0TSI                         FRI 09/05/97 12:22 Page:65
      277     4224    2           THEN CALL ABORT;

   4224 58 001433   000004 631400 59                 EPPR1   4
        58 001434   000000 701000 xent               TSX1    ABORT
        58 001435   000000 011000                    NOP     0

      278     4225    2           LIST_STRING=' ';

   4225 58 001436   040000 100400                    MLR     fill='040'O
        58 001437   000003 000001 59                 ADSC9   3                        cn=0,n=1
        58 001440   000000 000200 53                 ADSC9   LIST_STRING              cn=0,n=128

      279     4226    2           CALL LIST (LIST_STRING);

   4226 58 001441   000002 630400 59                 EPPR0   2
        58 001442   000001 631400 59                 EPPR1   1
        58 001443   000000 701000 xent               TSX1    LIST
        58 001444   000000 011000                    NOP     0

      280     4227    2           CALL LIST (LIST_STRING);

   4227 58 001445   000002 630400 59                 EPPR0   2
        58 001446   000001 631400 59                 EPPR1   1
        58 001447   000000 701000 xent               TSX1    LIST
        58 001450   000000 011000                    NOP     0

      281     4228    2           CALL GET_NUM(SECOND_PART,POFFW(AC$,SSS$));

   4228 58 001451   000000 235000 33                 LDA     SSS$
        58 001452   000022 771000                    ARL     18
        58 001453   200016 755100                    STA     K+2,,AUTO
        58 001454   000000 236000 34                 LDQ     AC$
        58 001455   000022 772000                    QRL     18
        58 001456   200016 136100                    SBLQ    K+2,,AUTO
        58 001457   200023 756100                    STQ     K+7,,AUTO
        58 001460   200023 630500                    EPPR0   K+7,,AUTO
        58 001461   200006 450500                    STP0    @STR+1,,AUTO
PL6.E3A0      #001=ZIG$V_PRINT File=ZIG$V_PRINT.:ZIC0TSI                         FRI 09/05/97 12:22 Page:66
        58 001462   000113 236000 59                 LDQ     75
        58 001463   200005 756100                    STQ     5,,AUTO
        58 001464   000425 701000 58                 TSX1    GET_NUM
        58 001465   000000 011000                    NOP     0

      282     4229    2           CALL CONCAT(LIST_STRING,'      **** AREA NAME IS ',AC.ANAM,

   4229 58 001466   000000 470400 34                 LDP0    AC$
        58 001467   000000 720100                    LXL0    0,,PR0
        58 001470   000077 360003                    ANX0    63,DU
        58 001471   040000 100400                    MLR     fill='040'O
        58 001472   000254 000030 55                 ADSC9   MOPSTR+172               cn=0,n=24
        58 001473   000000 000030 53                 ADSC9   LIST_STRING              cn=0,n=24
        58 001474   040000 100540                    MLR     fill='040'O
        58 001475   000026 000010                    ADSC9   22,,PR0                  cn=0,n=*X0
        58 001476   000006 000150 53                 ADSC9   LIST_STRING+6            cn=0,n=104
        58 001477   000000 636010                    EAQ     0,X0
        58 001500   000022 772000                    QRL     18
        58 001501   000150 116007                    CMPQ    104,DL
        58 001502   001524 603000 58                 TRC     s:4231
        58 001503   200016 740100                    STX0    K+2,,AUTO
        58 001504   777627 620010                    EAX0    -105,X0
        58 001505   777777 660003                    ERX0    -1,DU
        58 001506   200016 235100                    LDA     K+2,,AUTO
        58 001507   000022 771000                    ARL     18
        58 001510   040045 100400                    MLR     fill='040'O
        58 001511   000262 000006 55                 ADSC9   MOPSTR+178               cn=0,n=6
        58 001512   000006 000010 53                 ADSC9   LIST_STRING+6,A          cn=0,n=*X0
        58 001513   200016 236100                    LDQ     K+2,,AUTO
        58 001514   000022 772000                    QRL     18
        58 001515   000142 116007                    CMPQ    98,DL
        58 001516   001524 603000 58                 TRC     s:4231
        58 001517   777635 620006                    EAX0    -99,QL
        58 001520   777777 660003                    ERX0    -1,DU
        58 001521   040046 100400                    MLR     fill='040'O
        58 001522   000047 000014 54                 ADSC9   SECOND_PART              cn=0,n=12
        58 001523   000007 400010 53                 ADSC9   LIST_STRING+7,Q          cn=2,n=*X0
PL6.E3A0      #001=ZIG$V_PRINT File=ZIG$V_PRINT.:ZIC0TSI                         FRI 09/05/97 12:22 Page:67

      283     4230    2              ' ID = ',SECOND_PART);
      284     4231    2           CALL LIST(LIST_STRING);

   4231 58 001524   000002 630400 59                 EPPR0   2
        58 001525   000001 631400 59                 EPPR1   1
        58 001526   000000 701000 xent               TSX1    LIST
        58 001527   000000 011000                    NOP     0

      285     4232    2           START = 10;

   4232 58 001530   000012 235007                    LDA     10,DL
        58 001531   000000 755000 54                 STA     START

      286     4233    2           I = AC.ACID;

   4233 58 001532   000000 470400 34                 LDP0    AC$
        58 001533   000003 236100                    LDQ     3,,PR0
        58 001534   777777 376007                    ANQ     -1,DL
        58 001535   000062 756000 54                 STQ     I

      287     4234    2           CALL PRINT('AREA BINDING CODE^',I);

   4234 58 001536   000076 236000 59                 LDQ     62
        58 001537   200006 756100                    STQ     @STR+1,,AUTO
        58 001540   000114 236000 59                 LDQ     76
        58 001541   200005 756100                    STQ     5,,AUTO
        58 001542   000003 701000 58                 TSX1    PRINT
        58 001543   000000 011000                    NOP     0

      288     4235    2           CALL PRINT_O('AREA DEF^',36,AC.DEF);

   4235 58 001544   000000 236000 34                 LDQ     AC$
        58 001545   000006 235000 59                 LDA     6
        58 001546   200006 757100                    STAQ    @STR+1,,AUTO
        58 001547   000115 236000 59                 LDQ     77
        58 001550   200005 756100                    STQ     5,,AUTO
PL6.E3A0      #001=ZIG$V_PRINT File=ZIG$V_PRINT.:ZIC0TSI                         FRI 09/05/97 12:22 Page:68
        58 001551   000135 701000 58                 TSX1    PRINT_O
        58 001552   000000 011000                    NOP     0

      289     4236    2           CALL PRINT('BASE DBK^',AC.ABAS);

   4236 58 001553   000000 236000 34                 LDQ     AC$
        58 001554   000002 036003                    ADLQ    2,DU
        58 001555   200006 756100                    STQ     @STR+1,,AUTO
        58 001556   000116 236000 59                 LDQ     78
        58 001557   200005 756100                    STQ     5,,AUTO
        58 001560   000003 701000 58                 TSX1    PRINT
        58 001561   000000 011000                    NOP     0

      290     4237    2           I = AC.WSOF;

   4237 58 001562   000000 470400 34                 LDP0    AC$
        58 001563   000003 236100                    LDQ     3,,PR0
        58 001564   000022 772000                    QRL     18
        58 001565   000062 756000 54                 STQ     I

      291     4238    2           CALL PRINT('WORK SPACE OFFSET^',I);

   4238 58 001566   000076 236000 59                 LDQ     62
        58 001567   200006 756100                    STQ     @STR+1,,AUTO
        58 001570   000117 236000 59                 LDQ     79
        58 001571   200005 756100                    STQ     5,,AUTO
        58 001572   000003 701000 58                 TSX1    PRINT
        58 001573   000000 011000                    NOP     0

      292     4239    2           CALL PRINT_O('AREA NAME EIS^',36,AC.SANAM);

   4239 58 001574   000000 236000 34                 LDQ     AC$
        58 001575   000005 036003                    ADLQ    5,DU
        58 001576   000006 235000 59                 LDA     6
        58 001577   200006 757100                    STAQ    @STR+1,,AUTO
        58 001600   000120 236000 59                 LDQ     80
        58 001601   200005 756100                    STQ     5,,AUTO
PL6.E3A0      #001=ZIG$V_PRINT File=ZIG$V_PRINT.:ZIC0TSI                         FRI 09/05/97 12:22 Page:69
        58 001602   000135 701000 58                 TSX1    PRINT_O
        58 001603   000000 011000                    NOP     0

      293     4240    2           CALL PRINT('AREA LOW PAGE NUM^',AC.PGLIM.LOWPG);

   4240 58 001604   000000 236000 34                 LDQ     AC$
        58 001605   000006 036003                    ADLQ    6,DU
        58 001606   200006 756100                    STQ     @STR+1,,AUTO
        58 001607   000121 236000 59                 LDQ     81
        58 001610   200005 756100                    STQ     5,,AUTO
        58 001611   000003 701000 58                 TSX1    PRINT
        58 001612   000000 011000                    NOP     0

      294     4241    2           CALL PRINT('AREA HIGH PAGE NUM^',AC.PGLIM.HIGHPG);

   4241 58 001613   000000 236000 34                 LDQ     AC$
        58 001614   000007 036003                    ADLQ    7,DU
        58 001615   200006 756100                    STQ     @STR+1,,AUTO
        58 001616   000122 236000 59                 LDQ     82
        58 001617   200005 756100                    STQ     5,,AUTO
        58 001620   000003 701000 58                 TSX1    PRINT
        58 001621   000000 011000                    NOP     0

      295     4242    2           CALL PRINT('AREA LOW DBK NUM^',AC.DBLIM.LOWDBK);

   4242 58 001622   000000 236000 34                 LDQ     AC$
        58 001623   000010 036003                    ADLQ    8,DU
        58 001624   200006 756100                    STQ     @STR+1,,AUTO
        58 001625   000123 236000 59                 LDQ     83
        58 001626   200005 756100                    STQ     5,,AUTO
        58 001627   000003 701000 58                 TSX1    PRINT
        58 001630   000000 011000                    NOP     0

      296     4243    2           CALL PRINT('AREA HIGH DBK NUM^',AC.DBLIM.HIGHDBK);

   4243 58 001631   000000 236000 34                 LDQ     AC$
        58 001632   000011 036003                    ADLQ    9,DU
PL6.E3A0      #001=ZIG$V_PRINT File=ZIG$V_PRINT.:ZIC0TSI                         FRI 09/05/97 12:22 Page:70
        58 001633   200006 756100                    STQ     @STR+1,,AUTO
        58 001634   000124 236000 59                 LDQ     84
        58 001635   200005 756100                    STQ     5,,AUTO
        58 001636   000003 701000 58                 TSX1    PRINT
        58 001637   000000 011000                    NOP     0

      297     4244    2           I = AC.LPP;

   4244 58 001640   000000 470400 34                 LDP0    AC$
        58 001641   000012 236100                    LDQ     10,,PR0
        58 001642   777777 376007                    ANQ     -1,DL
        58 001643   000062 756000 54                 STQ     I

      298     4245    2           CALL PRINT('DBKS PER PAGE^',I);

   4245 58 001644   000076 236000 59                 LDQ     62
        58 001645   200006 756100                    STQ     @STR+1,,AUTO
        58 001646   000125 236000 59                 LDQ     85
        58 001647   200005 756100                    STQ     5,,AUTO
        58 001650   000003 701000 58                 TSX1    PRINT
        58 001651   000000 011000                    NOP     0

      299     4246    2           I = AC.INTVL;

   4246 58 001652   000000 470400 34                 LDP0    AC$
        58 001653   000013 236100                    LDQ     11,,PR0
        58 001654   777777 376007                    ANQ     -1,DL
        58 001655   000062 756000 54                 STQ     I

      300     4247    2           CALL PRINT('DBKS PER CALC HEADER^',I);

   4247 58 001656   000076 236000 59                 LDQ     62
        58 001657   200006 756100                    STQ     @STR+1,,AUTO
        58 001660   000126 236000 59                 LDQ     86
        58 001661   200005 756100                    STQ     5,,AUTO
        58 001662   000003 701000 58                 TSX1    PRINT
        58 001663   000000 011000                    NOP     0
PL6.E3A0      #001=ZIG$V_PRINT File=ZIG$V_PRINT.:ZIC0TSI                         FRI 09/05/97 12:22 Page:71

      301     4248    2           I = AC.INVT;

   4248 58 001664   000000 470400 34                 LDP0    AC$
        58 001665   000014 236100                    LDQ     12,,PR0
        58 001666   000022 772000                    QRL     18
        58 001667   000062 756000 54                 STQ     I

      302     4249    2           CALL PRINT('INVENTORY THRESHOLD^',I);

   4249 58 001670   000076 236000 59                 LDQ     62
        58 001671   200006 756100                    STQ     @STR+1,,AUTO
        58 001672   000127 236000 59                 LDQ     87
        58 001673   200005 756100                    STQ     5,,AUTO
        58 001674   000003 701000 58                 TSX1    PRINT
        58 001675   000000 011000                    NOP     0

      303     4250    2           I = AC.PGSZ;

   4250 58 001676   000000 470400 34                 LDP0    AC$
        58 001677   000014 236100                    LDQ     12,,PR0
        58 001700   777777 376007                    ANQ     -1,DL
        58 001701   000062 756000 54                 STQ     I

      304     4251    2           CALL PRINT('PAGE SIZE^',I);

   4251 58 001702   000076 236000 59                 LDQ     62
        58 001703   200006 756100                    STQ     @STR+1,,AUTO
        58 001704   000130 236000 59                 LDQ     88
        58 001705   200005 756100                    STQ     5,,AUTO
        58 001706   000003 701000 58                 TSX1    PRINT
        58 001707   000000 011000                    NOP     0

      305     4252    2           I = AC.BPLDBK;

   4252 58 001710   000000 470400 34                 LDP0    AC$
        58 001711   000015 236100                    LDQ     13,,PR0
PL6.E3A0      #001=ZIG$V_PRINT File=ZIG$V_PRINT.:ZIC0TSI                         FRI 09/05/97 12:22 Page:72
        58 001712   000022 772000                    QRL     18
        58 001713   000062 756000 54                 STQ     I

      306     4253    2           CALL PRINT('SIZE OF LOCAL DBKS^',I);

   4253 58 001714   000076 236000 59                 LDQ     62
        58 001715   200006 756100                    STQ     @STR+1,,AUTO
        58 001716   000131 236000 59                 LDQ     89
        58 001717   200005 756100                    STQ     5,,AUTO
        58 001720   000003 701000 58                 TSX1    PRINT
        58 001721   000000 011000                    NOP     0

      307     4254    2           CALL PRINT_O('AC FLAGS^',18,AC.FLAGS);

   4254 58 001722   000000 236000 34                 LDQ     AC$
        58 001723   000132 036000 59                 ADLQ    90
        58 001724   000074 235000 59                 LDA     60
        58 001725   200006 757100                    STAQ    @STR+1,,AUTO
        58 001726   000133 236000 59                 LDQ     91
        58 001727   200005 756100                    STQ     5,,AUTO
        58 001730   000135 701000 58                 TSX1    PRINT_O
        58 001731   000000 011000                    NOP     0

      308     4255    2           I = AC.IUSZ;

   4255 58 001732   000000 470400 34                 LDP0    AC$
        58 001733   000017 236100                    LDQ     15,,PR0
        58 001734   777777 376007                    ANQ     -1,DL
        58 001735   000062 756000 54                 STQ     I

      309     4256    2           CALL PRINT('INVENTORY UNIT SIZE^',I);

   4256 58 001736   000076 236000 59                 LDQ     62
        58 001737   200006 756100                    STQ     @STR+1,,AUTO
        58 001740   000134 236000 59                 LDQ     92
        58 001741   200005 756100                    STQ     5,,AUTO
        58 001742   000003 701000 58                 TSX1    PRINT
PL6.E3A0      #001=ZIG$V_PRINT File=ZIG$V_PRINT.:ZIC0TSI                         FRI 09/05/97 12:22 Page:73
        58 001743   000000 011000                    NOP     0

      310     4257    2           I = AC.DPPI;

   4257 58 001744   000000 470400 34                 LDP0    AC$
        58 001745   000020 236100                    LDQ     16,,PR0
        58 001746   777777 376007                    ANQ     -1,DL
        58 001747   000062 756000 54                 STQ     I

      311     4258    2           CALL PRINT('DATA PAGES/ INV PAGE^',I);

   4258 58 001750   000076 236000 59                 LDQ     62
        58 001751   200006 756100                    STQ     @STR+1,,AUTO
        58 001752   000135 236000 59                 LDQ     93
        58 001753   200005 756100                    STQ     5,,AUTO
        58 001754   000003 701000 58                 TSX1    PRINT
        58 001755   000000 011000                    NOP     0

      312     4259    2           CALL PRINT('FIRST INVENTORY PAGE^',AC.FIPN);

   4259 58 001756   000000 236000 34                 LDQ     AC$
        58 001757   000021 036003                    ADLQ    17,DU
        58 001760   200006 756100                    STQ     @STR+1,,AUTO
        58 001761   000136 236000 59                 LDQ     94
        58 001762   200005 756100                    STQ     5,,AUTO
        58 001763   000003 701000 58                 TSX1    PRINT
        58 001764   000000 011000                    NOP     0

      313     4260    2           CALL PRINT_O('CALC NEXT PTR EIS^',36,AC.CLCN);

   4260 58 001765   000000 236000 34                 LDQ     AC$
        58 001766   000022 036003                    ADLQ    18,DU
        58 001767   000006 235000 59                 LDA     6
        58 001770   200006 757100                    STAQ    @STR+1,,AUTO
        58 001771   000137 236000 59                 LDQ     95
        58 001772   200005 756100                    STQ     5,,AUTO
        58 001773   000135 701000 58                 TSX1    PRINT_O
PL6.E3A0      #001=ZIG$V_PRINT File=ZIG$V_PRINT.:ZIC0TSI                         FRI 09/05/97 12:22 Page:74
        58 001774   000000 011000                    NOP     0

      314     4261    2           CALL PRINT_O('CALC PRIOR PTR EIS^',36,AC.CLCP);

   4261 58 001775   000000 236000 34                 LDQ     AC$
        58 001776   000023 036003                    ADLQ    19,DU
        58 001777   000006 235000 59                 LDA     6
        58 002000   200006 757100                    STAQ    @STR+1,,AUTO
        58 002001   000140 236000 59                 LDQ     96
        58 002002   200005 756100                    STQ     5,,AUTO
        58 002003   000135 701000 58                 TSX1    PRINT_O
        58 002004   000000 011000                    NOP     0

      315     4262    2           AC$ = PINCRW(SSS$,AC.OAACN);

   4262 58 002005   000000 470400 34                 LDP0    AC$
        58 002006   000001 220100                    LDX0    1,,PR0
        58 002007   000000 636010                    EAQ     0,X0
        58 002010   000000 036000 33                 ADLQ    SSS$
        58 002011   000000 756000 34                 STQ     AC$

      316     4263    2           AC1$ = PINCRW(AC$,-1);

   4263 58 002012   777777 036003                    ADLQ    -1,DU
        58 002013   000000 756000 35                 STQ     AC1$

      317     4264    2           END;

   4264 58 002014   000000 236000 34                 LDQ     AC$
        58 002015   000000 116000 33                 CMPQ    SSS$
        58 002016   001426 601000 58                 TNZ     s:4223

      318     4265        /*
      319     4266              Now do the printing of the sets and the keys.
      320     4267        */
      321     4268    1       CALL SUBLST(SET_HEADING);

PL6.E3A0      #001=ZIG$V_PRINT File=ZIG$V_PRINT.:ZIC0TSI                         FRI 09/05/97 12:22 Page:75
   4268 58 002017   000141 630400 59                 EPPR0   97
        58 002020   000001 631400 59                 EPPR1   1
        58 002021   000000 701000 xent               TSX1    SUBLST
        58 002022   000000 011000                    NOP     0

      322     4269    1       SC$ = PINCRW(SSS$,OA.OASCN);

   4269 58 002023   000000 470400 42                 LDP0    OA$
        58 002024   000001 720100                    LXL0    1,,PR0
        58 002025   000000 636010                    EAQ     0,X0
        58 002026   000000 036000 33                 ADLQ    SSS$
        58 002027   000000 756000 38                 STQ     SC$

      323     4270    1       SC1$ = PINCRW(SC$,-2);

   4270 58 002030   777776 036003                    ADLQ    -2,DU
        58 002031   000000 756000 39                 STQ     SC1$

      324     4271    2       DO WHILE (SC$ ~= SSS$);

   4271 58 002032   000000 236000 38                 LDQ     SC$
        58 002033   000000 116000 33                 CMPQ    SSS$
        58 002034   002625 600000 58                 TZE     s:4361

      325     4272    2           IF SC.DEF.TYPE ~= '000100000000'B

   4272 58 002035   000000 470400 38                 LDP0    SC$
        58 002036   000000 236100                    LDQ     0,,PR0
        58 002037   777700 376003                    ANQ     -64,DU
        58 002040   040000 116003                    CMPQ    16384,DU
        58 002041   002045 600000 58                 TZE     s:4274

      326     4273    2           THEN CALL ABORT;

   4273 58 002042   000004 631400 59                 EPPR1   4
        58 002043   000000 701000 xent               TSX1    ABORT
        58 002044   000000 011000                    NOP     0
PL6.E3A0      #001=ZIG$V_PRINT File=ZIG$V_PRINT.:ZIC0TSI                         FRI 09/05/97 12:22 Page:76

      327     4274    2           LIST_STRING=' ';

   4274 58 002045   040000 100400                    MLR     fill='040'O
        58 002046   000003 000001 59                 ADSC9   3                        cn=0,n=1
        58 002047   000000 000200 53                 ADSC9   LIST_STRING              cn=0,n=128

      328     4275    2           CALL LIST (LIST_STRING);

   4275 58 002050   000002 630400 59                 EPPR0   2
        58 002051   000001 631400 59                 EPPR1   1
        58 002052   000000 701000 xent               TSX1    LIST
        58 002053   000000 011000                    NOP     0

      329     4276    2           CALL LIST (LIST_STRING);

   4276 58 002054   000002 630400 59                 EPPR0   2
        58 002055   000001 631400 59                 EPPR1   1
        58 002056   000000 701000 xent               TSX1    LIST
        58 002057   000000 011000                    NOP     0

      330     4277    2           CALL GET_NUM(SECOND_PART,POFFW(SC$,SSS$));

   4277 58 002060   000000 235000 33                 LDA     SSS$
        58 002061   000022 771000                    ARL     18
        58 002062   200016 755100                    STA     K+2,,AUTO
        58 002063   000000 236000 38                 LDQ     SC$
        58 002064   000022 772000                    QRL     18
        58 002065   200016 136100                    SBLQ    K+2,,AUTO
        58 002066   200024 756100                    STQ     K+8,,AUTO
        58 002067   200024 630500                    EPPR0   K+8,,AUTO
        58 002070   200006 450500                    STP0    @STR+1,,AUTO
        58 002071   000113 236000 59                 LDQ     75
        58 002072   200005 756100                    STQ     5,,AUTO
        58 002073   000425 701000 58                 TSX1    GET_NUM
        58 002074   000000 011000                    NOP     0

PL6.E3A0      #001=ZIG$V_PRINT File=ZIG$V_PRINT.:ZIC0TSI                         FRI 09/05/97 12:22 Page:77
      331     4278    2           CALL CONCAT(LIST_STRING,'      **** SET NAME IS ',SC.SNAM,

   4278 58 002075   000000 470400 38                 LDP0    SC$
        58 002076   000000 720100                    LXL0    0,,PR0
        58 002077   000077 360003                    ANX0    63,DU
        58 002100   040000 100400                    MLR     fill='040'O
        58 002101   000421 000027 55                 ADSC9   MOPSTR+273               cn=0,n=23
        58 002102   000000 000027 53                 ADSC9   LIST_STRING              cn=0,n=23
        58 002103   040000 100540                    MLR     fill='040'O
        58 002104   000003 000010                    ADSC9   3,,PR0                   cn=0,n=*X0
        58 002105   000005 600151 53                 ADSC9   LIST_STRING+5            cn=3,n=105
        58 002106   000000 636010                    EAQ     0,X0
        58 002107   000022 772000                    QRL     18
        58 002110   000151 116007                    CMPQ    105,DL
        58 002111   002133 603000 58                 TRC     s:4280
        58 002112   200016 740100                    STX0    K+2,,AUTO
        58 002113   777626 620010                    EAX0    -106,X0
        58 002114   777777 660003                    ERX0    -1,DU
        58 002115   200016 235100                    LDA     K+2,,AUTO
        58 002116   000022 771000                    ARL     18
        58 002117   040045 100400                    MLR     fill='040'O
        58 002120   000427 000007 55                 ADSC9   MOPSTR+279               cn=0,n=7
        58 002121   000005 600010 53                 ADSC9   LIST_STRING+5,A          cn=3,n=*X0
        58 002122   200016 236100                    LDQ     K+2,,AUTO
        58 002123   000022 772000                    QRL     18
        58 002124   000142 116007                    CMPQ    98,DL
        58 002125   002133 603000 58                 TRC     s:4280
        58 002126   777635 620006                    EAX0    -99,QL
        58 002127   777777 660003                    ERX0    -1,DU
        58 002130   040046 100400                    MLR     fill='040'O
        58 002131   000047 000014 54                 ADSC9   SECOND_PART              cn=0,n=12
        58 002132   000007 400010 53                 ADSC9   LIST_STRING+7,Q          cn=2,n=*X0

      332     4279    2              '  ID = ',SECOND_PART);
      333     4280    2           CALL LIST(LIST_STRING);

   4280 58 002133   000002 630400 59                 EPPR0   2
PL6.E3A0      #001=ZIG$V_PRINT File=ZIG$V_PRINT.:ZIC0TSI                         FRI 09/05/97 12:22 Page:78
        58 002134   000001 631400 59                 EPPR1   1
        58 002135   000000 701000 xent               TSX1    LIST
        58 002136   000000 011000                    NOP     0

      334     4281    2           START = 10;

   4281 58 002137   000012 235007                    LDA     10,DL
        58 002140   000000 755000 54                 STA     START

      335     4282    2           I = SC.SCID;

   4282 58 002141   000000 470400 38                 LDP0    SC$
        58 002142   000002 236100                    LDQ     2,,PR0
        58 002143   777777 376007                    ANQ     -1,DL
        58 002144   000062 756000 54                 STQ     I

      336     4283    2           CALL PRINT('SET BINDING CODE^',I);

   4283 58 002145   000076 236000 59                 LDQ     62
        58 002146   200006 756100                    STQ     @STR+1,,AUTO
        58 002147   000142 236000 59                 LDQ     98
        58 002150   200005 756100                    STQ     5,,AUTO
        58 002151   000003 701000 58                 TSX1    PRINT
        58 002152   000000 011000                    NOP     0

      337     4284    2           CALL PRINT_O('SET DEF^',36,SC.DEF);

   4284 58 002153   000000 236000 38                 LDQ     SC$
        58 002154   000006 235000 59                 LDA     6
        58 002155   200006 757100                    STAQ    @STR+1,,AUTO
        58 002156   000143 236000 59                 LDQ     99
        58 002157   200005 756100                    STQ     5,,AUTO
        58 002160   000135 701000 58                 TSX1    PRINT_O
        58 002161   000000 011000                    NOP     0

      338     4285    2           I = SC.SCWSO;

PL6.E3A0      #001=ZIG$V_PRINT File=ZIG$V_PRINT.:ZIC0TSI                         FRI 09/05/97 12:22 Page:79
   4285 58 002162   000000 470400 38                 LDP0    SC$
        58 002163   000001 236100                    LDQ     1,,PR0
        58 002164   000022 772000                    QRL     18
        58 002165   000062 756000 54                 STQ     I

      339     4286    2           CALL PRINT('SET WORK SPACE OFFSET^',I);

   4286 58 002166   000076 236000 59                 LDQ     62
        58 002167   200006 756100                    STQ     @STR+1,,AUTO
        58 002170   000144 236000 59                 LDQ     100
        58 002171   200005 756100                    STQ     5,,AUTO
        58 002172   000003 701000 58                 TSX1    PRINT
        58 002173   000000 011000                    NOP     0

      340     4287    2           IF SC.DEF.SETT = 2 OR SC.DEF.SETT = 3

   4287 58 002174   000000 470400 38                 LDP0    SC$
        58 002175   000000 236100                    LDQ     0,,PR0
        58 002176   000700 376007                    ANQ     448,DL
        58 002177   000200 116007                    CMPQ    128,DL
        58 002200   002203 600000 58                 TZE     s:4289
        58 002201   000300 116007                    CMPQ    192,DL
        58 002202   002227 601000 58                 TNZ     s:4298

      341     4288    3           THEN DO;

      342     4289    3               I = SC1.IXID;

   4289 58 002203   000000 471400 39                 LDP1    SC1$
        58 002204   100000 236100                    LDQ     0,,PR1
        58 002205   000022 772000                    QRL     18
        58 002206   000062 756000 54                 STQ     I

      343     4290    3               CALL PRINT('INDEX ID^',I);

   4290 58 002207   000076 236000 59                 LDQ     62
        58 002210   200006 756100                    STQ     @STR+1,,AUTO
PL6.E3A0      #001=ZIG$V_PRINT File=ZIG$V_PRINT.:ZIC0TSI                         FRI 09/05/97 12:22 Page:80
        58 002211   000145 236000 59                 LDQ     101
        58 002212   200005 756100                    STQ     5,,AUTO
        58 002213   000003 701000 58                 TSX1    PRINT
        58 002214   000000 011000                    NOP     0

      344     4291    3               I = SC1.KLNG;

   4291 58 002215   000000 470400 39                 LDP0    SC1$
        58 002216   000000 236100                    LDQ     0,,PR0
        58 002217   777777 376007                    ANQ     -1,DL
        58 002220   000062 756000 54                 STQ     I

      345     4292    3               CALL PRINT('LENGTH OF KEY (BYTES)^',I);

   4292 58 002221   000076 236000 59                 LDQ     62
        58 002222   200006 756100                    STQ     @STR+1,,AUTO
        58 002223   000146 236000 59                 LDQ     102
        58 002224   200005 756100                    STQ     5,,AUTO
        58 002225   000003 701000 58                 TSX1    PRINT
        58 002226   000000 011000                    NOP     0

      346     4293    3               END;

      347     4294        /*
      348     4295              Now for this set print out all the SO , SM , SS , and CF
      349     4296            records for this set.
      350     4297        */
      351     4298    2           RS$ = PINCRW(SSS$,SC.SCRSN);

   4298 58 002227   000000 470400 38                 LDP0    SC$
        58 002230   000002 220100                    LDX0    2,,PR0
        58 002231   000000 636010                    EAQ     0,X0
        58 002232   000000 036000 33                 ADLQ    SSS$
        58 002233   000000 756000 45                 STQ     RS$

      352     4299    3           DO WHILE (RS$ ~= SSS$);

PL6.E3A0      #001=ZIG$V_PRINT File=ZIG$V_PRINT.:ZIC0TSI                         FRI 09/05/97 12:22 Page:81
   4299 58 002234   000000 116000 33                 CMPQ    SSS$
        58 002235   002613 600000 58                 TZE     s:4355

      353     4300    3               IF RS.DEF.TYPE ~= '000001000000'B AND

   4300 58 002236   000000 470400 45                 LDP0    RS$
        58 002237   000000 236100                    LDQ     0,,PR0
        58 002240   777700 376003                    ANQ     -64,DU
        58 002241   010000 116003                    CMPQ    4096,DU
        58 002242   002252 600000 58                 TZE     s:4303
        58 002243   000000 236100                    LDQ     0,,PR0
        58 002244   777700 376003                    ANQ     -64,DU
        58 002245   004000 116003                    CMPQ    2048,DU
        58 002246   002252 600000 58                 TZE     s:4303

      354     4301    3                  RS.DEF.TYPE ~= '000000100000'B
      355     4302    3               THEN CALL ABORT;

   4302 58 002247   000004 631400 59                 EPPR1   4
        58 002250   000000 701000 xent               TSX1    ABORT
        58 002251   000000 011000                    NOP     0

      356     4303    3               LIST_STRING = ' ';

   4303 58 002252   040000 100400                    MLR     fill='040'O
        58 002253   000003 000001 59                 ADSC9   3                        cn=0,n=1
        58 002254   000000 000200 53                 ADSC9   LIST_STRING              cn=0,n=128

      357     4304    3               CALL LIST(LIST_STRING);

   4304 58 002255   000002 630400 59                 EPPR0   2
        58 002256   000001 631400 59                 EPPR1   1
        58 002257   000000 701000 xent               TSX1    LIST
        58 002260   000000 011000                    NOP     0

      358     4305    3               IF RS.DEF.TYPE = '000001000000'B

PL6.E3A0      #001=ZIG$V_PRINT File=ZIG$V_PRINT.:ZIC0TSI                         FRI 09/05/97 12:22 Page:82
   4305 58 002261   000000 470400 45                 LDP0    RS$
        58 002262   000000 236100                    LDQ     0,,PR0
        58 002263   777700 376003                    ANQ     -64,DU
        58 002264   010000 116003                    CMPQ    4096,DU
        58 002265   002271 601000 58                 TNZ     s:4307

      359     4306    3               THEN TYPE_RS = 'SO';

   4306 58 002266   000457 220000 55                 LDX0    MOPSTR+303
        58 002267   000173 740000 54                 STX0    TYPE_RS
        58 002270   002273 710000 58                 TRA     s:4308

      360     4307    3               ELSE TYPE_RS = 'SM';

   4307 58 002271   000460 220000 55                 LDX0    MOPSTR+304
        58 002272   000173 740000 54                 STX0    TYPE_RS

      361     4308    3               START=10;

   4308 58 002273   000012 235007                    LDA     10,DL
        58 002274   000000 755000 54                 STA     START

      362     4309    3               CALL GET_NUM(SECOND_PART,POFFW(RS$,SSS$));

   4309 58 002275   000000 236000 33                 LDQ     SSS$
        58 002276   000022 772000                    QRL     18
        58 002277   200016 756100                    STQ     K+2,,AUTO
        58 002300   000000 236000 45                 LDQ     RS$
        58 002301   000022 772000                    QRL     18
        58 002302   200016 136100                    SBLQ    K+2,,AUTO
        58 002303   200025 756100                    STQ     K+9,,AUTO
        58 002304   200025 631500                    EPPR1   K+9,,AUTO
        58 002305   200006 451500                    STP1    @STR+1,,AUTO
        58 002306   000113 236000 59                 LDQ     75
        58 002307   200005 756100                    STQ     5,,AUTO
        58 002310   000425 701000 58                 TSX1    GET_NUM
        58 002311   000000 011000                    NOP     0
PL6.E3A0      #001=ZIG$V_PRINT File=ZIG$V_PRINT.:ZIC0TSI                         FRI 09/05/97 12:22 Page:83

      363     4310    3               CALL CONCAT(LIST_STRING,'**** SET ',TYPE_RS,' ID = ',

   4310 58 002312   040000 100400                    MLR     fill='040'O
        58 002313   000461 000011 55                 ADSC9   MOPSTR+305               cn=0,n=9
        58 002314   000000 000011 53                 ADSC9   LIST_STRING              cn=0,n=9
        58 002315   000173 236000 54                 LDQ     TYPE_RS
        58 002316   000011 772000                    QRL     9
        58 002317   000002 552030 53                 STBQ    LIST_STRING+2,'30'O
        58 002320   040000 100400                    MLR     fill='040'O
        58 002321   000464 000006 55                 ADSC9   MOPSTR+308               cn=0,n=6
        58 002322   000002 600006 53                 ADSC9   LIST_STRING+2            cn=3,n=6
        58 002323   040000 100400                    MLR     fill='040'O
        58 002324   000047 000014 54                 ADSC9   SECOND_PART              cn=0,n=12
        58 002325   000004 200014 53                 ADSC9   LIST_STRING+4            cn=1,n=12
        58 002326   040000 100400                    MLR     fill='040'O
        58 002327   000466 000012 55                 ADSC9   MOPSTR+310               cn=0,n=10
        58 002330   000007 200143 53                 ADSC9   LIST_STRING+7            cn=1,n=99

      364     4311    3                  SECOND_PART,'   RECORD^');
      365     4312    3               RC$ = PINCRW(SSS$,RS.RCRSH);

   4312 58 002331   000000 470400 45                 LDP0    RS$
        58 002332   000003 220100                    LDX0    3,,PR0
        58 002333   000000 636010                    EAQ     0,X0
        58 002334   000000 036000 33                 ADLQ    SSS$
        58 002335   000000 756000 40                 STQ     RC$

      366     4313    3               TEMP_STR = RC.RNAM;

   4313 58 002336   000000 471400 40                 LDP1    RC$
        58 002337   100000 721100                    LXL1    0,,PR1
        58 002340   000077 361003                    ANX1    63,DU
        58 002341   040000 100540                    MLR     fill='040'O
        58 002342   100005 000011                    ADSC9   5,,PR1                   cn=0,n=*X1
        58 002343   000174 000036 54                 ADSC9   TEMP_STR                 cn=0,n=30

PL6.E3A0      #001=ZIG$V_PRINT File=ZIG$V_PRINT.:ZIC0TSI                         FRI 09/05/97 12:22 Page:84
      367     4314    3               CALL PRINT_S(LIST_STRING,TEMP_STR);

   4314 58 002344   000147 236000 59                 LDQ     103
        58 002345   200010 756100                    STQ     @HEADING+1,,AUTO
        58 002346   000002 236000 59                 LDQ     2
        58 002347   200007 756100                    STQ     @NUM+1,,AUTO
        58 002350   000061 701000 58                 TSX1    PRINT_S
        58 002351   000000 011000                    NOP     0

      368     4315    3               START = 12;

   4315 58 002352   000014 235007                    LDA     12,DL
        58 002353   000000 755000 54                 STA     START

      369     4316    3               CALL PRINT_O('RS DEF^',36,RS.DEF);

   4316 58 002354   000000 236000 45                 LDQ     RS$
        58 002355   000006 235000 59                 LDA     6
        58 002356   200006 757100                    STAQ    @STR+1,,AUTO
        58 002357   000150 236000 59                 LDQ     104
        58 002360   200005 756100                    STQ     5,,AUTO
        58 002361   000135 701000 58                 TSX1    PRINT_O
        58 002362   000000 011000                    NOP     0

      370     4317    3               CALL PRINT_O('RS NEXT POINTER EIS^',36,RS.NPOS);

   4317 58 002363   000000 236000 45                 LDQ     RS$
        58 002364   000004 036003                    ADLQ    4,DU
        58 002365   000006 235000 59                 LDA     6
        58 002366   200006 757100                    STAQ    @STR+1,,AUTO
        58 002367   000151 236000 59                 LDQ     105
        58 002370   200005 756100                    STQ     5,,AUTO
        58 002371   000135 701000 58                 TSX1    PRINT_O
        58 002372   000000 011000                    NOP     0

      371     4318    3               CALL PRINT_O('RS PRIOR POINTER EIS^',36,RS.PPOS);

PL6.E3A0      #001=ZIG$V_PRINT File=ZIG$V_PRINT.:ZIC0TSI                         FRI 09/05/97 12:22 Page:85
   4318 58 002373   000000 236000 45                 LDQ     RS$
        58 002374   000005 036003                    ADLQ    5,DU
        58 002375   000006 235000 59                 LDA     6
        58 002376   200006 757100                    STAQ    @STR+1,,AUTO
        58 002377   000152 236000 59                 LDQ     106
        58 002400   200005 756100                    STQ     5,,AUTO
        58 002401   000135 701000 58                 TSX1    PRINT_O
        58 002402   000000 011000                    NOP     0

      372     4319    3               IF TYPE_RS = 'SM'

   4319 58 002403   000173 220000 54                 LDX0    TYPE_RS
        58 002404   000460 100000 55                 CMPX0   MOPSTR+304
        58 002405   002416 601000 58                 TNZ     s:4323

      373     4320    4               THEN DO;

      374     4321    4                   CALL PRINT_O('RS HEAD POINTER EIS^',36,RS.HPOS);

   4321 58 002406   000000 236000 45                 LDQ     RS$
        58 002407   000006 036003                    ADLQ    6,DU
        58 002410   000006 235000 59                 LDA     6
        58 002411   200006 757100                    STAQ    @STR+1,,AUTO
        58 002412   000153 236000 59                 LDQ     107
        58 002413   200005 756100                    STQ     5,,AUTO
        58 002414   000135 701000 58                 TSX1    PRINT_O
        58 002415   000000 011000                    NOP     0

      375     4322    4                   END;

      376     4323    3               SS$ = PINCRW(SSS$,RS.RSSSN);

   4323 58 002416   000000 470400 45                 LDP0    RS$
        58 002417   000001 720100                    LXL0    1,,PR0
        58 002420   000000 636010                    EAQ     0,X0
        58 002421   000000 036000 33                 ADLQ    SSS$
        58 002422   000000 756000 47                 STQ     SS$
PL6.E3A0      #001=ZIG$V_PRINT File=ZIG$V_PRINT.:ZIC0TSI                         FRI 09/05/97 12:22 Page:86

      377     4324    4               DO WHILE(SS$ ~= SSS$ AND TYPE_RS ~= 'SO');

   4324 58 002423   002526 710000 58                 TRA     s:4340

      378     4325    4                   IF SS.DEF.TYPE ~= '000000001000'B

   4325 58 002424   000000 470400 47                 LDP0    SS$
        58 002425   000000 236100                    LDQ     0,,PR0
        58 002426   777700 376003                    ANQ     -64,DU
        58 002427   001000 116003                    CMPQ    512,DU
        58 002430   002434 600000 58                 TZE     s:4327

      379     4326    4                   THEN CALL ABORT;

   4326 58 002431   000004 631400 59                 EPPR1   4
        58 002432   000000 701000 xent               TSX1    ABORT
        58 002433   000000 011000                    NOP     0

      380     4327    4                   LIST_STRING = ' ';

   4327 58 002434   040000 100400                    MLR     fill='040'O
        58 002435   000003 000001 59                 ADSC9   3                        cn=0,n=1
        58 002436   000000 000200 53                 ADSC9   LIST_STRING              cn=0,n=128

      381     4328    4                   CALL LIST(LIST_STRING);

   4328 58 002437   000002 630400 59                 EPPR0   2
        58 002440   000001 631400 59                 EPPR1   1
        58 002441   000000 701000 xent               TSX1    LIST
        58 002442   000000 011000                    NOP     0

      382     4329    4                   START = 10;

   4329 58 002443   000012 235007                    LDA     10,DL
        58 002444   000000 755000 54                 STA     START

PL6.E3A0      #001=ZIG$V_PRINT File=ZIG$V_PRINT.:ZIC0TSI                         FRI 09/05/97 12:22 Page:87
      383     4330    4                   CALL PRINT_O_ID('**** SS REC^',18,SS.DEF,POFFW(SS$,SSS$));

   4330 58 002445   000000 236000 33                 LDQ     SSS$
        58 002446   000022 772000                    QRL     18
        58 002447   200016 756100                    STQ     K+2,,AUTO
        58 002450   000000 236000 47                 LDQ     SS$
        58 002451   000022 772000                    QRL     18
        58 002452   200016 136100                    SBLQ    K+2,,AUTO
        58 002453   200026 756100                    STQ     K+10,,AUTO
        58 002454   200026 630500                    EPPR0   K+10,,AUTO
        58 002455   200012 450500                    STP0    @NUM+1,,AUTO
        58 002456   000000 236000 47                 LDQ     SS$
        58 002457   000074 235000 59                 LDA     60
        58 002460   200010 757100                    STAQ    @HEADING+1,,AUTO
        58 002461   000154 236000 59                 LDQ     108
        58 002462   200007 756100                    STQ     @NUM+1,,AUTO
        58 002463   000254 701000 58                 TSX1    PRINT_O_ID
        58 002464   000000 011000                    NOP     0

      384     4331    4                   I = SS.SSH;

   4331 58 002465   000000 470400 47                 LDP0    SS$
        58 002466   000002 236100                    LDQ     2,,PR0
        58 002467   000022 772000                    QRL     18
        58 002470   000062 756000 54                 STQ     I

      385     4332    4                   CALL PRINT('RS SEARCH POINTER^',I);

   4332 58 002471   000076 236000 59                 LDQ     62
        58 002472   200006 756100                    STQ     @STR+1,,AUTO
        58 002473   000155 236000 59                 LDQ     109
        58 002474   200005 756100                    STQ     5,,AUTO
        58 002475   000003 701000 58                 TSX1    PRINT
        58 002476   000000 011000                    NOP     0

      386     4333    4                   CD$ = PINCRW(SSS$,SS.RSCDN);

PL6.E3A0      #001=ZIG$V_PRINT File=ZIG$V_PRINT.:ZIC0TSI                         FRI 09/05/97 12:22 Page:88
   4333 58 002477   000000 470400 47                 LDP0    SS$
        58 002500   000001 220100                    LDX0    1,,PR0
        58 002501   000000 636010                    EAQ     0,X0
        58 002502   000000 036000 33                 ADLQ    SSS$
        58 002503   000000 756000 48                 STQ     CD$

      387     4334    4                   START = 15;

   4334 58 002504   000017 235007                    LDA     15,DL
        58 002505   000000 755000 54                 STA     START

      388     4335    5                   DO WHILE (CD$ ~= SSS$);

   4335 58 002506   000000 116000 33                 CMPQ    SSS$
        58 002507   002521 600000 58                 TZE     s:4339

      389     4336    5                       CALL PRINT_CD;

   4336 58 002510   000444 701000 58                 TSX1    PRINT_CD
        58 002511   000000 011000                    NOP     0

      390     4337    5                       CD$ = PINCRW(SSS$,CD.RSCDN);

   4337 58 002512   000000 470400 48                 LDP0    CD$
        58 002513   000001 220100                    LDX0    1,,PR0
        58 002514   000000 636010                    EAQ     0,X0
        58 002515   000000 036000 33                 ADLQ    SSS$
        58 002516   000000 756000 48                 STQ     CD$

      391     4338    5                       END;

   4338 58 002517   000000 116000 33                 CMPQ    SSS$
        58 002520   002510 601000 58                 TNZ     s:4336

      392     4339    4                   SS$ = PINCRW(SSS$,SS.RSSSN);

   4339 58 002521   000000 470400 47                 LDP0    SS$
PL6.E3A0      #001=ZIG$V_PRINT File=ZIG$V_PRINT.:ZIC0TSI                         FRI 09/05/97 12:22 Page:89
        58 002522   000001 720100                    LXL0    1,,PR0
        58 002523   000000 636010                    EAQ     0,X0
        58 002524   000000 036000 33                 ADLQ    SSS$
        58 002525   000000 756000 47                 STQ     SS$

      393     4340    4                   END;

   4340 58 002526   000000 116000 33                 CMPQ    SSS$
        58 002527   002533 600000 58                 TZE     s:4341
        58 002530   000173 220000 54                 LDX0    TYPE_RS
        58 002531   000457 100000 55                 CMPX0   MOPSTR+303
        58 002532   002424 601000 58                 TNZ     s:4325

      394     4341    3               CD$ = PINCRW(SSS$,RS.RSCDN);

   4341 58 002533   000000 470400 45                 LDP0    RS$
        58 002534   000001 220100                    LDX0    1,,PR0
        58 002535   000000 636010                    EAQ     0,X0
        58 002536   000000 036000 33                 ADLQ    SSS$
        58 002537   000000 756000 48                 STQ     CD$

      395     4342    3               IF CD$ ~= SSS$ AND TYPE_RS ~= 'SO'

   4342 58 002540   000000 116000 33                 CMPQ    SSS$
        58 002541   002566 600000 58                 TZE     s:4349
        58 002542   000173 221000 54                 LDX1    TYPE_RS
        58 002543   000457 101000 55                 CMPX1   MOPSTR+303
        58 002544   002566 600000 58                 TZE     s:4349

      396     4343    4               THEN DO;

      397     4344    4                   LIST_STRING = ' ';

   4344 58 002545   040000 100400                    MLR     fill='040'O
        58 002546   000003 000001 59                 ADSC9   3                        cn=0,n=1
        58 002547   000000 000200 53                 ADSC9   LIST_STRING              cn=0,n=128

PL6.E3A0      #001=ZIG$V_PRINT File=ZIG$V_PRINT.:ZIC0TSI                         FRI 09/05/97 12:22 Page:90
      398     4345    4                   CALL LIST(LIST_STRING);

   4345 58 002550   000002 630400 59                 EPPR0   2
        58 002551   000001 631400 59                 EPPR1   1
        58 002552   000000 701000 xent               TSX1    LIST
        58 002553   000000 011000                    NOP     0

      399     4346    4                   CALL CONCAT(LIST_STRING,'            **** FROM ',TYPE_RS);

   4346 58 002554   040000 100400                    MLR     fill='040'O
        58 002555   000523 000026 55                 ADSC9   MOPSTR+339               cn=0,n=22
        58 002556   000000 000026 53                 ADSC9   LIST_STRING              cn=0,n=22
        58 002557   040000 100400                    MLR     fill='040'O
        58 002560   000173 000002 54                 ADSC9   TYPE_RS                  cn=0,n=2
        58 002561   000005 400152 53                 ADSC9   LIST_STRING+5            cn=2,n=106

      400     4347    4                   CALL LIST(LIST_STRING);

   4347 58 002562   000002 630400 59                 EPPR0   2
        58 002563   000001 631400 59                 EPPR1   1
        58 002564   000000 701000 xent               TSX1    LIST
        58 002565   000000 011000                    NOP     0

      401     4348    4                   END;

      402     4349    4               DO WHILE(CD$ ~= SSS$ AND TYPE_RS ~= 'SO');

   4349 58 002566   002576 710000 58                 TRA     s:4352

      403     4350    4                   CALL PRINT_CD;

   4350 58 002567   000444 701000 58                 TSX1    PRINT_CD
        58 002570   000000 011000                    NOP     0

      404     4351    4                   CD$ = PINCRW(SSS$,CD.RSCDN);

   4351 58 002571   000000 470400 48                 LDP0    CD$
PL6.E3A0      #001=ZIG$V_PRINT File=ZIG$V_PRINT.:ZIC0TSI                         FRI 09/05/97 12:22 Page:91
        58 002572   000001 220100                    LDX0    1,,PR0
        58 002573   000000 636010                    EAQ     0,X0
        58 002574   000000 036000 33                 ADLQ    SSS$
        58 002575   000000 756000 48                 STQ     CD$

      405     4352    4                   END;

   4352 58 002576   000000 236000 48                 LDQ     CD$
        58 002577   000000 116000 33                 CMPQ    SSS$
        58 002600   002604 600000 58                 TZE     s:4353
        58 002601   000173 220000 54                 LDX0    TYPE_RS
        58 002602   000457 100000 55                 CMPX0   MOPSTR+303
        58 002603   002567 601000 58                 TNZ     s:4350

      406     4353    3               RS$ = PINCRW(SSS$,RS.SCRSN);

   4353 58 002604   000000 470400 45                 LDP0    RS$
        58 002605   000002 220100                    LDX0    2,,PR0
        58 002606   000000 636010                    EAQ     0,X0
        58 002607   000000 036000 33                 ADLQ    SSS$
        58 002610   000000 756000 45                 STQ     RS$

      407     4354    3               END;

   4354 58 002611   000000 116000 33                 CMPQ    SSS$
        58 002612   002236 601000 58                 TNZ     s:4300

      408     4355    2           SC$ = PINCRW(SSS$,SC.OASCN);

   4355 58 002613   000000 470400 38                 LDP0    SC$
        58 002614   000001 720100                    LXL0    1,,PR0
        58 002615   000000 636010                    EAQ     0,X0
        58 002616   000000 036000 33                 ADLQ    SSS$
        58 002617   000000 756000 38                 STQ     SC$

      409     4356    2           SC1$ = PINCRW(SC$, -2);

PL6.E3A0      #001=ZIG$V_PRINT File=ZIG$V_PRINT.:ZIC0TSI                         FRI 09/05/97 12:22 Page:92
   4356 58 002620   777776 036003                    ADLQ    -2,DU
        58 002621   000000 756000 39                 STQ     SC1$

      410     4357    2           END;

   4357 58 002622   000000 236000 38                 LDQ     SC$
        58 002623   000000 116000 33                 CMPQ    SSS$
        58 002624   002035 601000 58                 TNZ     s:4272

      411     4358        /*
      412     4359              Now print out the RC records and the FR record.
      413     4360        */
      414     4361    1       RC$ = PINCRW(SSS$,OA.OARCN);

   4361 58 002625   000000 470400 42                 LDP0    OA$
        58 002626   000002 220100                    LDX0    2,,PR0
        58 002627   000000 636010                    EAQ     0,X0
        58 002630   000000 036000 33                 ADLQ    SSS$
        58 002631   000000 756000 40                 STQ     RC$

      415     4362    1       RC1$ = PINCRW(RC$, -2);

   4362 58 002632   777776 036003                    ADLQ    -2,DU
        58 002633   000000 756000 41                 STQ     RC1$

      416     4363    1       CALL SUBLST(RECORD_HEADING);

   4363 58 002634   000156 630400 59                 EPPR0   110
        58 002635   000001 631400 59                 EPPR1   1
        58 002636   000000 701000 xent               TSX1    SUBLST
        58 002637   000000 011000                    NOP     0

      417     4364    2       DO WHILE (RC$ ~= SSS$);

   4364 58 002640   000000 236000 40                 LDQ     RC$
        58 002641   000000 116000 33                 CMPQ    SSS$
        58 002642   003565 600000 58                 TZE     s:4460
PL6.E3A0      #001=ZIG$V_PRINT File=ZIG$V_PRINT.:ZIC0TSI                         FRI 09/05/97 12:22 Page:93

      418     4365    2           IF RC.DEF.TYPE ~= '001000000000'B

   4365 58 002643   000000 470400 40                 LDP0    RC$
        58 002644   000000 236100                    LDQ     0,,PR0
        58 002645   777700 376003                    ANQ     -64,DU
        58 002646   100000 116003                    CMPQ    32768,DU
        58 002647   002653 600000 58                 TZE     s:4367

      419     4366    2           THEN CALL ABORT;

   4366 58 002650   000004 631400 59                 EPPR1   4
        58 002651   000000 701000 xent               TSX1    ABORT
        58 002652   000000 011000                    NOP     0

      420     4367    2           LIST_STRING = ' ';

   4367 58 002653   040000 100400                    MLR     fill='040'O
        58 002654   000003 000001 59                 ADSC9   3                        cn=0,n=1
        58 002655   000000 000200 53                 ADSC9   LIST_STRING              cn=0,n=128

      421     4368    2           CALL LIST(LIST_STRING);

   4368 58 002656   000002 630400 59                 EPPR0   2
        58 002657   000001 631400 59                 EPPR1   1
        58 002660   000000 701000 xent               TSX1    LIST
        58 002661   000000 011000                    NOP     0

      422     4369    2           CALL LIST(LIST_STRING);

   4369 58 002662   000002 630400 59                 EPPR0   2
        58 002663   000001 631400 59                 EPPR1   1
        58 002664   000000 701000 xent               TSX1    LIST
        58 002665   000000 011000                    NOP     0

      423     4370    2           CALL GET_NUM(SECOND_PART,POFFW(RC$,SSS$));

PL6.E3A0      #001=ZIG$V_PRINT File=ZIG$V_PRINT.:ZIC0TSI                         FRI 09/05/97 12:22 Page:94
   4370 58 002666   000000 235000 33                 LDA     SSS$
        58 002667   000022 771000                    ARL     18
        58 002670   200016 755100                    STA     K+2,,AUTO
        58 002671   000000 236000 40                 LDQ     RC$
        58 002672   000022 772000                    QRL     18
        58 002673   200016 136100                    SBLQ    K+2,,AUTO
        58 002674   200027 756100                    STQ     K+11,,AUTO
        58 002675   200027 630500                    EPPR0   K+11,,AUTO
        58 002676   200006 450500                    STP0    @STR+1,,AUTO
        58 002677   000113 236000 59                 LDQ     75
        58 002700   200005 756100                    STQ     5,,AUTO
        58 002701   000425 701000 58                 TSX1    GET_NUM
        58 002702   000000 011000                    NOP     0

      424     4371    2           CALL CONCAT(LIST_STRING,'     ** RECORD NAME IS ',RC.RNAM,

   4371 58 002703   000000 470400 40                 LDP0    RC$
        58 002704   000000 720100                    LXL0    0,,PR0
        58 002705   000077 360003                    ANX0    63,DU
        58 002706   040000 100400                    MLR     fill='040'O
        58 002707   000531 000027 55                 ADSC9   MOPSTR+345               cn=0,n=23
        58 002710   000000 000027 53                 ADSC9   LIST_STRING              cn=0,n=23
        58 002711   040000 100540                    MLR     fill='040'O
        58 002712   000005 000010                    ADSC9   5,,PR0                   cn=0,n=*X0
        58 002713   000005 600151 53                 ADSC9   LIST_STRING+5            cn=3,n=105
        58 002714   000000 636010                    EAQ     0,X0
        58 002715   000022 772000                    QRL     18
        58 002716   000151 116007                    CMPQ    105,DL
        58 002717   002741 603000 58                 TRC     s:4373
        58 002720   200016 740100                    STX0    K+2,,AUTO
        58 002721   777626 620010                    EAX0    -106,X0
        58 002722   777777 660003                    ERX0    -1,DU
        58 002723   200016 235100                    LDA     K+2,,AUTO
        58 002724   000022 771000                    ARL     18
        58 002725   040045 100400                    MLR     fill='040'O
        58 002726   000464 000006 55                 ADSC9   MOPSTR+308               cn=0,n=6
        58 002727   000005 600010 53                 ADSC9   LIST_STRING+5,A          cn=3,n=*X0
PL6.E3A0      #001=ZIG$V_PRINT File=ZIG$V_PRINT.:ZIC0TSI                         FRI 09/05/97 12:22 Page:95
        58 002730   200016 236100                    LDQ     K+2,,AUTO
        58 002731   000022 772000                    QRL     18
        58 002732   000143 116007                    CMPQ    99,DL
        58 002733   002741 603000 58                 TRC     s:4373
        58 002734   777634 620006                    EAX0    -100,QL
        58 002735   777777 660003                    ERX0    -1,DU
        58 002736   040046 100400                    MLR     fill='040'O
        58 002737   000047 000014 54                 ADSC9   SECOND_PART              cn=0,n=12
        58 002740   000007 200010 53                 ADSC9   LIST_STRING+7,Q          cn=1,n=*X0

      425     4372    2              ' ID = ',SECOND_PART);
      426     4373    2           CALL LIST(LIST_STRING);

   4373 58 002741   000002 630400 59                 EPPR0   2
        58 002742   000001 631400 59                 EPPR1   1
        58 002743   000000 701000 xent               TSX1    LIST
        58 002744   000000 011000                    NOP     0

      427     4374    2           I = RC.RCID;

   4374 58 002745   000000 470400 40                 LDP0    RC$
        58 002746   000001 236100                    LDQ     1,,PR0
        58 002747   777777 376007                    ANQ     -1,DL
        58 002750   000062 756000 54                 STQ     I

      428     4375    2           START = 10;

   4375 58 002751   000012 235007                    LDA     10,DL
        58 002752   000000 755000 54                 STA     START

      429     4376    2           CALL PRINT('RECORD ID^',I);

   4376 58 002753   000076 236000 59                 LDQ     62
        58 002754   200006 756100                    STQ     @STR+1,,AUTO
        58 002755   000157 236000 59                 LDQ     111
        58 002756   200005 756100                    STQ     5,,AUTO
        58 002757   000003 701000 58                 TSX1    PRINT
PL6.E3A0      #001=ZIG$V_PRINT File=ZIG$V_PRINT.:ZIC0TSI                         FRI 09/05/97 12:22 Page:96
        58 002760   000000 011000                    NOP     0

      430     4377    2           CALL PRINT_O('RC DEF^',36,RC.DEF);

   4377 58 002761   000000 236000 40                 LDQ     RC$
        58 002762   000006 235000 59                 LDA     6
        58 002763   200006 757100                    STAQ    @STR+1,,AUTO
        58 002764   000160 236000 59                 LDQ     112
        58 002765   200005 756100                    STQ     5,,AUTO
        58 002766   000135 701000 58                 TSX1    PRINT_O
        58 002767   000000 011000                    NOP     0

      431     4378    2           I =RC.RSIZ;

   4378 58 002770   000000 470400 40                 LDP0    RC$
        58 002771   000003 236100                    LDQ     3,,PR0
        58 002772   000022 772000                    QRL     18
        58 002773   000062 756000 54                 STQ     I

      432     4379    2           CALL PRINT('RECORD SIZE (BYTES)^',I);

   4379 58 002774   000076 236000 59                 LDQ     62
        58 002775   200006 756100                    STQ     @STR+1,,AUTO
        58 002776   000161 236000 59                 LDQ     113
        58 002777   200005 756100                    STQ     5,,AUTO
        58 003000   000003 701000 58                 TSX1    PRINT
        58 003001   000000 011000                    NOP     0

      433     4380    2           I =RC.RCWSO;

   4380 58 003002   000000 470400 40                 LDP0    RC$
        58 003003   000004 236100                    LDQ     4,,PR0
        58 003004   000022 772000                    QRL     18
        58 003005   000062 756000 54                 STQ     I

      434     4381    2           CALL PRINT('RECORD WORK SPACE OFFSET^',I);

PL6.E3A0      #001=ZIG$V_PRINT File=ZIG$V_PRINT.:ZIC0TSI                         FRI 09/05/97 12:22 Page:97
   4381 58 003006   000076 236000 59                 LDQ     62
        58 003007   200006 756100                    STQ     @STR+1,,AUTO
        58 003010   000162 236000 59                 LDQ     114
        58 003011   200005 756100                    STQ     5,,AUTO
        58 003012   000003 701000 58                 TSX1    PRINT
        58 003013   000000 011000                    NOP     0

      435     4382    2           I = RC.RTYP;

   4382 58 003014   000000 470400 40                 LDP0    RC$
        58 003015   000003 236100                    LDQ     3,,PR0
        58 003016   007777 376007                    ANQ     4095,DL
        58 003017   000062 756000 54                 STQ     I

      436     4383    2           CALL PRINT('RECORD TYPE IS^',I);

   4383 58 003020   000076 236000 59                 LDQ     62
        58 003021   200006 756100                    STQ     @STR+1,,AUTO
        58 003022   000163 236000 59                 LDQ     115
        58 003023   200005 756100                    STQ     5,,AUTO
        58 003024   000003 701000 58                 TSX1    PRINT
        58 003025   000000 011000                    NOP     0

      437     4384    2           I = RC1.OTVL;

   4384 58 003026   000000 470400 41                 LDP0    RC1$
        58 003027   000001 236100                    LDQ     1,,PR0
        58 003030   777777 376007                    ANQ     -1,DL
        58 003031   000062 756000 54                 STQ     I

      438     4385    2           CALL PRINT('OFFSET VARIABLE LEN DATA^',I);

   4385 58 003032   000076 236000 59                 LDQ     62
        58 003033   200006 756100                    STQ     @STR+1,,AUTO
        58 003034   000164 236000 59                 LDQ     116
        58 003035   200005 756100                    STQ     5,,AUTO
        58 003036   000003 701000 58                 TSX1    PRINT
PL6.E3A0      #001=ZIG$V_PRINT File=ZIG$V_PRINT.:ZIC0TSI                         FRI 09/05/97 12:22 Page:98
        58 003037   000000 011000                    NOP     0

      439     4386    2           RA$ = PINCRW(SSS$,RC.RCRAN);

   4386 58 003040   000000 470400 40                 LDP0    RC$
        58 003041   000001 220100                    LDX0    1,,PR0
        58 003042   000000 636010                    EAQ     0,X0
        58 003043   000000 036000 33                 ADLQ    SSS$
        58 003044   000000 756000 44                 STQ     RA$

      440     4387    3           DO WHILE (RA$ ~= SSS$);

   4387 58 003045   000000 116000 33                 CMPQ    SSS$
        58 003046   003211 600000 58                 TZE     s:4408

      441     4388    3               IF RA.DEF.TYPE ~= '000010000000'B AND

   4388 58 003047   000000 470400 44                 LDP0    RA$
        58 003050   000000 236100                    LDQ     0,,PR0
        58 003051   777700 376003                    ANQ     -64,DU
        58 003052   020000 116003                    CMPQ    8192,DU
        58 003053   003063 600000 58                 TZE     s:4391
        58 003054   000000 236100                    LDQ     0,,PR0
        58 003055   777700 376003                    ANQ     -64,DU
        58 003056   020100 116003                    CMPQ    8256,DU
        58 003057   003063 600000 58                 TZE     s:4391

      442     4389    3                  RA.DEF.TYPE ~= '000010000001'B
      443     4390    3               THEN CALL ABORT;

   4390 58 003060   000004 631400 59                 EPPR1   4
        58 003061   000000 701000 xent               TSX1    ABORT
        58 003062   000000 011000                    NOP     0

      444     4391    3               LIST_STRING = ' ';

   4391 58 003063   040000 100400                    MLR     fill='040'O
PL6.E3A0      #001=ZIG$V_PRINT File=ZIG$V_PRINT.:ZIC0TSI                         FRI 09/05/97 12:22 Page:99
        58 003064   000003 000001 59                 ADSC9   3                        cn=0,n=1
        58 003065   000000 000200 53                 ADSC9   LIST_STRING              cn=0,n=128

      445     4392    3               CALL LIST(LIST_STRING);

   4392 58 003066   000002 630400 59                 EPPR0   2
        58 003067   000001 631400 59                 EPPR1   1
        58 003070   000000 701000 xent               TSX1    LIST
        58 003071   000000 011000                    NOP     0

      446     4393    3               START = 15;

   4393 58 003072   000017 235007                    LDA     15,DL
        58 003073   000000 755000 54                 STA     START

      447     4394    3               AC$ = PINCRW(SSS$,RA.ACRAH);

   4394 58 003074   000000 470400 44                 LDP0    RA$
        58 003075   000002 720100                    LXL0    2,,PR0
        58 003076   000000 636010                    EAQ     0,X0
        58 003077   000000 036000 33                 ADLQ    SSS$
        58 003100   000000 756000 34                 STQ     AC$

      448     4395    3               CALL CONCAT(LIST_STRING,'          *** RA  AC ( ',

   4395 58 003101   000000 471400 34                 LDP1    AC$
        58 003102   100000 721100                    LXL1    0,,PR1
        58 003103   000077 361003                    ANX1    63,DU
        58 003104   040000 100400                    MLR     fill='040'O
        58 003105   000573 000027 55                 ADSC9   MOPSTR+379               cn=0,n=23
        58 003106   000000 000027 53                 ADSC9   LIST_STRING              cn=0,n=23
        58 003107   040000 100540                    MLR     fill='040'O
        58 003110   100026 000011                    ADSC9   22,,PR1                  cn=0,n=*X1
        58 003111   000005 600151 53                 ADSC9   LIST_STRING+5            cn=3,n=105
        58 003112   000000 636011                    EAQ     0,X1
        58 003113   000022 772000                    QRL     18
        58 003114   000151 116007                    CMPQ    105,DL
PL6.E3A0      #001=ZIG$V_PRINT File=ZIG$V_PRINT.:ZIC0TSI                         FRI 09/05/97 12:22 Page:100
        58 003115   003126 603000 58                 TRC     s:4397
        58 003116   200016 741100                    STX1    K+2,,AUTO
        58 003117   777626 621011                    EAX1    -106,X1
        58 003120   777777 661003                    ERX1    -1,DU
        58 003121   200016 236100                    LDQ     K+2,,AUTO
        58 003122   000022 772000                    QRL     18
        58 003123   040046 100400                    MLR     fill='040'O
        58 003124   000601 000002 55                 ADSC9   MOPSTR+385               cn=0,n=2
        58 003125   000005 600011 53                 ADSC9   LIST_STRING+5,Q          cn=3,n=*X1

      449     4396    3                  AC.ANAM,' )');
      450     4397    3               CALL LIST(LIST_STRING);

   4397 58 003126   000002 630400 59                 EPPR0   2
        58 003127   000001 631400 59                 EPPR1   1
        58 003130   000000 701000 xent               TSX1    LIST
        58 003131   000000 011000                    NOP     0

      451     4398    3               CALL PRINT_O('RA DEF^',18,RA.DEF);

   4398 58 003132   000000 236000 44                 LDQ     RA$
        58 003133   000074 235000 59                 LDA     60
        58 003134   200006 757100                    STAQ    @STR+1,,AUTO
        58 003135   000165 236000 59                 LDQ     117
        58 003136   200005 756100                    STQ     5,,AUTO
        58 003137   000135 701000 58                 TSX1    PRINT_O
        58 003140   000000 011000                    NOP     0

      452     4399    3               CALL PRINT('RA LOW DBK^',RA.PGRNG.LOWDBK);

   4399 58 003141   000000 236000 44                 LDQ     RA$
        58 003142   000003 036003                    ADLQ    3,DU
        58 003143   200006 756100                    STQ     @STR+1,,AUTO
        58 003144   000166 236000 59                 LDQ     118
        58 003145   200005 756100                    STQ     5,,AUTO
        58 003146   000003 701000 58                 TSX1    PRINT
        58 003147   000000 011000                    NOP     0
PL6.E3A0      #001=ZIG$V_PRINT File=ZIG$V_PRINT.:ZIC0TSI                         FRI 09/05/97 12:22 Page:101

      453     4400    3               CALL PRINT('RA HIGH DBK^',RA.PGRNG.HIGHDBK);

   4400 58 003150   000000 236000 44                 LDQ     RA$
        58 003151   000004 036003                    ADLQ    4,DU
        58 003152   200006 756100                    STQ     @STR+1,,AUTO
        58 003153   000167 236000 59                 LDQ     119
        58 003154   200005 756100                    STQ     5,,AUTO
        58 003155   000003 701000 58                 TSX1    PRINT
        58 003156   000000 011000                    NOP     0

      454     4401    3               IF RA.DEF.TYPE = '000010000001'B

   4401 58 003157   000000 470400 44                 LDP0    RA$
        58 003160   000000 236100                    LDQ     0,,PR0
        58 003161   777700 376003                    ANQ     -64,DU
        58 003162   020100 116003                    CMPQ    8256,DU
        58 003163   003202 601000 58                 TNZ     s:4406

      455     4402    4               THEN DO;

      456     4403    4                   CALL PRINT('NUM CALC HDR IN RANGE^',RA.NCHRS);

   4403 58 003164   000000 236000 44                 LDQ     RA$
        58 003165   000005 036003                    ADLQ    5,DU
        58 003166   200006 756100                    STQ     @STR+1,,AUTO
        58 003167   000170 236000 59                 LDQ     120
        58 003170   200005 756100                    STQ     5,,AUTO
        58 003171   000003 701000 58                 TSX1    PRINT
        58 003172   000000 011000                    NOP     0

      457     4404    4                   CALL PRINT('DISPLACEMENT TO CALC HDR^',RA.CHRD);

   4404 58 003173   000000 236000 44                 LDQ     RA$
        58 003174   000006 036003                    ADLQ    6,DU
        58 003175   200006 756100                    STQ     @STR+1,,AUTO
        58 003176   000171 236000 59                 LDQ     121
PL6.E3A0      #001=ZIG$V_PRINT File=ZIG$V_PRINT.:ZIC0TSI                         FRI 09/05/97 12:22 Page:102
        58 003177   200005 756100                    STQ     5,,AUTO
        58 003200   000003 701000 58                 TSX1    PRINT
        58 003201   000000 011000                    NOP     0

      458     4405    4                   END;

      459     4406    3               RA$ = PINCRW(SSS$,RA.RCRAN);

   4406 58 003202   000000 470400 44                 LDP0    RA$
        58 003203   000001 220100                    LDX0    1,,PR0
        58 003204   000000 636010                    EAQ     0,X0
        58 003205   000000 036000 33                 ADLQ    SSS$
        58 003206   000000 756000 44                 STQ     RA$

      460     4407    3               END;

   4407 58 003207   000000 116000 33                 CMPQ    SSS$
        58 003210   003047 601000 58                 TNZ     s:4388

      461     4408    2           FR$ = PINCRW(SSS$,RC.RCFRN);

   4408 58 003211   000000 470400 40                 LDP0    RC$
        58 003212   000004 720100                    LXL0    4,,PR0
        58 003213   000000 636010                    EAQ     0,X0
        58 003214   000000 036000 33                 ADLQ    SSS$
        58 003215   000000 756000 36                 STQ     FR$

      462     4409    2           FR1$ = PINCRW(FR$,-1);

   4409 58 003216   777777 036003                    ADLQ    -1,DU
        58 003217   000000 756000 37                 STQ     FR1$

      463     4410    3           DO WHILE (FR$ ~= SSS$);

   4410 58 003220   000000 236000 36                 LDQ     FR$
        58 003221   000000 116000 33                 CMPQ    SSS$
        58 003222   003432 600000 58                 TZE     s:4440
PL6.E3A0      #001=ZIG$V_PRINT File=ZIG$V_PRINT.:ZIC0TSI                         FRI 09/05/97 12:22 Page:103

      464     4411    3               IF FR.DEF.TYPE ~= '000000010000'B

   4411 58 003223   000000 470400 36                 LDP0    FR$
        58 003224   000000 236100                    LDQ     0,,PR0
        58 003225   777700 376003                    ANQ     -64,DU
        58 003226   002000 116003                    CMPQ    1024,DU
        58 003227   003233 600000 58                 TZE     s:4413

      465     4412    3               THEN CALL ABORT;

   4412 58 003230   000004 631400 59                 EPPR1   4
        58 003231   000000 701000 xent               TSX1    ABORT
        58 003232   000000 011000                    NOP     0

      466     4413    3               LIST_STRING = ' ';

   4413 58 003233   040000 100400                    MLR     fill='040'O
        58 003234   000003 000001 59                 ADSC9   3                        cn=0,n=1
        58 003235   000000 000200 53                 ADSC9   LIST_STRING              cn=0,n=128

      467     4414    3               CALL LIST(LIST_STRING);

   4414 58 003236   000002 630400 59                 EPPR0   2
        58 003237   000001 631400 59                 EPPR1   1
        58 003240   000000 701000 xent               TSX1    LIST
        58 003241   000000 011000                    NOP     0

      468     4415    3               CALL GET_NUM(SECOND_PART,POFFW(FR$,SSS$));

   4415 58 003242   000000 235000 33                 LDA     SSS$
        58 003243   000022 771000                    ARL     18
        58 003244   200016 755100                    STA     K+2,,AUTO
        58 003245   000000 236000 36                 LDQ     FR$
        58 003246   000022 772000                    QRL     18
        58 003247   200016 136100                    SBLQ    K+2,,AUTO
        58 003250   200030 756100                    STQ     K+12,,AUTO
PL6.E3A0      #001=ZIG$V_PRINT File=ZIG$V_PRINT.:ZIC0TSI                         FRI 09/05/97 12:22 Page:104
        58 003251   200030 630500                    EPPR0   K+12,,AUTO
        58 003252   200006 450500                    STP0    @STR+1,,AUTO
        58 003253   000113 236000 59                 LDQ     75
        58 003254   200005 756100                    STQ     5,,AUTO
        58 003255   000425 701000 58                 TSX1    GET_NUM
        58 003256   000000 011000                    NOP     0

      469     4416    3               FIRST_PART = FR.FNAM;

   4416 58 003257   000000 470400 36                 LDP0    FR$
        58 003260   000004 220100                    LDX0    4,,PR0
        58 003261   000077 360003                    ANX0    63,DU
        58 003262   040000 100540                    MLR     fill='040'O
        58 003263   000006 000010                    ADSC9   6,,PR0                   cn=0,n=*X0
        58 003264   000037 000036 54                 ADSC9   FIRST_PART               cn=0,n=30

      470     4417    3               CALL CONCAT(LIST_STRING,'          *** FR ',

   4417 58 003265   040000 100400                    MLR     fill='040'O
        58 003266   000627 000021 55                 ADSC9   MOPSTR+407               cn=0,n=17
        58 003267   000000 000021 53                 ADSC9   LIST_STRING              cn=0,n=17
        58 003270   040000 100400                    MLR     fill='040'O
        58 003271   000037 000036 54                 ADSC9   FIRST_PART               cn=0,n=30
        58 003272   000004 200036 53                 ADSC9   LIST_STRING+4            cn=1,n=30
        58 003273   040000 100400                    MLR     fill='040'O
        58 003274   000634 000007 55                 ADSC9   MOPSTR+412               cn=0,n=7
        58 003275   000013 600007 53                 ADSC9   LIST_STRING+11           cn=3,n=7
        58 003276   040000 100400                    MLR     fill='040'O
        58 003277   000047 000014 54                 ADSC9   SECOND_PART              cn=0,n=12
        58 003300   000015 400112 53                 ADSC9   LIST_STRING+13           cn=2,n=74

      471     4418    3                  FIRST_PART,'  ID = ',SECOND_PART);
      472     4419    3               CALL LIST(LIST_STRING);

   4419 58 003301   000002 630400 59                 EPPR0   2
        58 003302   000001 631400 59                 EPPR1   1
        58 003303   000000 701000 xent               TSX1    LIST
PL6.E3A0      #001=ZIG$V_PRINT File=ZIG$V_PRINT.:ZIC0TSI                         FRI 09/05/97 12:22 Page:105
        58 003304   000000 011000                    NOP     0

      473     4420    3               CALL PRINT_O('FR DEF^',36,FR.DEF);

   4420 58 003305   000000 236000 36                 LDQ     FR$
        58 003306   000006 235000 59                 LDA     6
        58 003307   200006 757100                    STAQ    @STR+1,,AUTO
        58 003310   000172 236000 59                 LDQ     122
        58 003311   200005 756100                    STQ     5,,AUTO
        58 003312   000135 701000 58                 TSX1    PRINT_O
        58 003313   000000 011000                    NOP     0

      474     4421    3               CALL PRINT_O('RECORD OFFSET EIS^',36,FR.ROFST);

   4421 58 003314   000000 236000 36                 LDQ     FR$
        58 003315   000001 036003                    ADLQ    1,DU
        58 003316   000006 235000 59                 LDA     6
        58 003317   200006 757100                    STAQ    @STR+1,,AUTO
        58 003320   000173 236000 59                 LDQ     123
        58 003321   200005 756100                    STQ     5,,AUTO
        58 003322   000135 701000 58                 TSX1    PRINT_O
        58 003323   000000 011000                    NOP     0

      475     4422    3               CALL PRINT_O('UWA OFFSET EIS^',36,FR.UOFST);

   4422 58 003324   000000 236000 36                 LDQ     FR$
        58 003325   000002 036003                    ADLQ    2,DU
        58 003326   000006 235000 59                 LDA     6
        58 003327   200006 757100                    STAQ    @STR+1,,AUTO
        58 003330   000174 236000 59                 LDQ     124
        58 003331   200005 756100                    STQ     5,,AUTO
        58 003332   000135 701000 58                 TSX1    PRINT_O
        58 003333   000000 011000                    NOP     0

      476     4423    3               I = FR.FRWSO;

   4423 58 003334   000000 470400 36                 LDP0    FR$
PL6.E3A0      #001=ZIG$V_PRINT File=ZIG$V_PRINT.:ZIC0TSI                         FRI 09/05/97 12:22 Page:106
        58 003335   000005 236100                    LDQ     5,,PR0
        58 003336   777777 376007                    ANQ     -1,DL
        58 003337   000062 756000 54                 STQ     I

      477     4424    3               CALL PRINT('WORK SPACE OFFSET^',I);

   4424 58 003340   000076 236000 59                 LDQ     62
        58 003341   200006 756100                    STQ     @STR+1,,AUTO
        58 003342   000175 236000 59                 LDQ     125
        58 003343   200005 756100                    STQ     5,,AUTO
        58 003344   000003 701000 58                 TSX1    PRINT
        58 003345   000000 011000                    NOP     0

      478     4425    3               I = FR1.NLIND;

   4425 58 003346   000000 470400 37                 LDP0    FR1$
        58 003347   000000 236100                    LDQ     0,,PR0
        58 003350   777777 376007                    ANQ     -1,DL
        58 003351   000062 756000 54                 STQ     I

      479     4426    3               CALL PRINT('BIT OFFSET TO NULL^',I);

   4426 58 003352   000076 236000 59                 LDQ     62
        58 003353   200006 756100                    STQ     @STR+1,,AUTO
        58 003354   000176 236000 59                 LDQ     126
        58 003355   200005 756100                    STQ     5,,AUTO
        58 003356   000003 701000 58                 TSX1    PRINT
        58 003357   000000 011000                    NOP     0

      480     4427    3               CD$ = PINCRW(SSS$,FR.CDSN);

   4427 58 003360   000000 470400 36                 LDP0    FR$
        58 003361   000003 220100                    LDX0    3,,PR0
        58 003362   000000 636010                    EAQ     0,X0
        58 003363   000000 036000 33                 ADLQ    SSS$
        58 003364   000000 756000 48                 STQ     CD$

PL6.E3A0      #001=ZIG$V_PRINT File=ZIG$V_PRINT.:ZIC0TSI                         FRI 09/05/97 12:22 Page:107
      481     4428    4               DO WHILE (CD$ ~= SSS$);

   4428 58 003365   000000 116000 33                 CMPQ    SSS$
        58 003366   003400 600000 58                 TZE     s:4432

      482     4429    4                   CALL PRINT_CD;

   4429 58 003367   000444 701000 58                 TSX1    PRINT_CD
        58 003370   000000 011000                    NOP     0

      483     4430    4                   CD$ = PINCRW(SSS$,CD.CDSN);

   4430 58 003371   000000 470400 48                 LDP0    CD$
        58 003372   000003 220100                    LDX0    3,,PR0
        58 003373   000000 636010                    EAQ     0,X0
        58 003374   000000 036000 33                 ADLQ    SSS$
        58 003375   000000 756000 48                 STQ     CD$

      484     4431    4                   END;

   4431 58 003376   000000 116000 33                 CMPQ    SSS$
        58 003377   003367 601000 58                 TNZ     s:4429

      485     4432    3               CD$ = PINCRW(SSS$,FR.CDRN);

   4432 58 003400   000000 470400 36                 LDP0    FR$
        58 003401   000003 720100                    LXL0    3,,PR0
        58 003402   000000 636010                    EAQ     0,X0
        58 003403   000000 036000 33                 ADLQ    SSS$
        58 003404   000000 756000 48                 STQ     CD$

      486     4433    4               DO WHILE (CD$ ~= SSS$);

   4433 58 003405   000000 116000 33                 CMPQ    SSS$
        58 003406   003420 600000 58                 TZE     s:4437

      487     4434    4                   CALL PRINT_CD;
PL6.E3A0      #001=ZIG$V_PRINT File=ZIG$V_PRINT.:ZIC0TSI                         FRI 09/05/97 12:22 Page:108

   4434 58 003407   000444 701000 58                 TSX1    PRINT_CD
        58 003410   000000 011000                    NOP     0

      488     4435    4                   CD$ = PINCRW(SSS$,CD.CDRN);

   4435 58 003411   000000 470400 48                 LDP0    CD$
        58 003412   000003 720100                    LXL0    3,,PR0
        58 003413   000000 636010                    EAQ     0,X0
        58 003414   000000 036000 33                 ADLQ    SSS$
        58 003415   000000 756000 48                 STQ     CD$

      489     4436    4                   END;

   4436 58 003416   000000 116000 33                 CMPQ    SSS$
        58 003417   003407 601000 58                 TNZ     s:4434

      490     4437    3               FR$ = PINCRW(SSS$,FR.RCFRN);

   4437 58 003420   000000 470400 36                 LDP0    FR$
        58 003421   000004 720100                    LXL0    4,,PR0
        58 003422   000000 636010                    EAQ     0,X0
        58 003423   000000 036000 33                 ADLQ    SSS$
        58 003424   000000 756000 36                 STQ     FR$

      491     4438    3               FR1$ = PINCRW(FR$, -1);

   4438 58 003425   777777 036003                    ADLQ    -1,DU
        58 003426   000000 756000 37                 STQ     FR1$

      492     4439    3               END;

   4439 58 003427   000000 236000 36                 LDQ     FR$
        58 003430   000000 116000 33                 CMPQ    SSS$
        58 003431   003223 601000 58                 TNZ     s:4411

      493     4440    2           RS$ = PINCRW(SSS$,RC.RCRSN);
PL6.E3A0      #001=ZIG$V_PRINT File=ZIG$V_PRINT.:ZIC0TSI                         FRI 09/05/97 12:22 Page:109

   4440 58 003432   000000 470400 40                 LDP0    RC$
        58 003433   000002 720100                    LXL0    2,,PR0
        58 003434   000000 636010                    EAQ     0,X0
        58 003435   000000 036000 33                 ADLQ    SSS$
        58 003436   000000 756000 45                 STQ     RS$

      494     4441    2           LIST_STRING = ' ';

   4441 58 003437   040000 100400                    MLR     fill='040'O
        58 003440   000003 000001 59                 ADSC9   3                        cn=0,n=1
        58 003441   000000 000200 53                 ADSC9   LIST_STRING              cn=0,n=128

      495     4442    2           CALL LIST(LIST_STRING);

   4442 58 003442   000002 630400 59                 EPPR0   2
        58 003443   000001 631400 59                 EPPR1   1
        58 003444   000000 701000 xent               TSX1    LIST
        58 003445   000000 011000                    NOP     0

      496     4443    2           CALL LIST(LIST_STRING);

   4443 58 003446   000002 630400 59                 EPPR0   2
        58 003447   000001 631400 59                 EPPR1   1
        58 003450   000000 701000 xent               TSX1    LIST
        58 003451   000000 011000                    NOP     0

      497     4444    3           DO WHILE (RS$ ~= SSS$);

   4444 58 003452   000000 236000 45                 LDQ     RS$
        58 003453   000000 116000 33                 CMPQ    SSS$
        58 003454   003553 600000 58                 TZE     s:4457

      498     4445    3               IF RS.DEF.TYPE ~= '000001000000'B AND

   4445 58 003455   000000 470400 45                 LDP0    RS$
        58 003456   000000 236100                    LDQ     0,,PR0
PL6.E3A0      #001=ZIG$V_PRINT File=ZIG$V_PRINT.:ZIC0TSI                         FRI 09/05/97 12:22 Page:110
        58 003457   777700 376003                    ANQ     -64,DU
        58 003460   010000 116003                    CMPQ    4096,DU
        58 003461   003471 600000 58                 TZE     s:4448
        58 003462   000000 236100                    LDQ     0,,PR0
        58 003463   777700 376003                    ANQ     -64,DU
        58 003464   004000 116003                    CMPQ    2048,DU
        58 003465   003471 600000 58                 TZE     s:4448

      499     4446    3                  RS.DEF.TYPE ~= '000000100000'B
      500     4447    3               THEN CALL ABORT;

   4447 58 003466   000004 631400 59                 EPPR1   4
        58 003467   000000 701000 xent               TSX1    ABORT
        58 003470   000000 011000                    NOP     0

      501     4448    3               SC$ = PINCRW(SSS$,RS.SCRSH);

   4448 58 003471   000000 470400 45                 LDP0    RS$
        58 003472   000003 720100                    LXL0    3,,PR0
        58 003473   000000 636010                    EAQ     0,X0
        58 003474   000000 036000 33                 ADLQ    SSS$
        58 003475   000000 756000 38                 STQ     SC$

      502     4449    3               IF RS.DEF.TYPE = '000001000000'B

   4449 58 003476   000000 236100                    LDQ     0,,PR0
        58 003477   777700 376003                    ANQ     -64,DU
        58 003500   010000 116003                    CMPQ    4096,DU
        58 003501   003505 601000 58                 TNZ     s:4451

      503     4450    3               THEN TYPE_RS = 'SO';

   4450 58 003502   000663 221000 55                 LDX1    MOPSTR+435
        58 003503   000173 741000 54                 STX1    TYPE_RS
        58 003504   003507 710000 58                 TRA     s:4452

      504     4451    3               ELSE TYPE_RS = 'SM';
PL6.E3A0      #001=ZIG$V_PRINT File=ZIG$V_PRINT.:ZIC0TSI                         FRI 09/05/97 12:22 Page:111

   4451 58 003505   000664 221000 55                 LDX1    MOPSTR+436
        58 003506   000173 741000 54                 STX1    TYPE_RS

      505     4452    3               CALL CONCAT(LIST_STRING,'            *** ',TYPE_RS,

   4452 58 003507   000000 471400 38                 LDP1    SC$
        58 003510   100000 722100                    LXL2    0,,PR1
        58 003511   000077 362003                    ANX2    63,DU
        58 003512   040000 100400                    MLR     fill='040'O
        58 003513   000665 000020 55                 ADSC9   MOPSTR+437               cn=0,n=16
        58 003514   000000 000020 53                 ADSC9   LIST_STRING              cn=0,n=16
        58 003515   000004 741000 53                 STX1    LIST_STRING+4
        58 003516   040000 100400                    MLR     fill='040'O
        58 003517   000671 000010 55                 ADSC9   MOPSTR+441               cn=0,n=8
        58 003520   000004 400010 53                 ADSC9   LIST_STRING+4            cn=2,n=8
        58 003521   040000 100540                    MLR     fill='040'O
        58 003522   100003 000012                    ADSC9   3,,PR1                   cn=0,n=*X2
        58 003523   000006 400146 53                 ADSC9   LIST_STRING+6            cn=2,n=102
        58 003524   000000 636012                    EAQ     0,X2
        58 003525   000022 772000                    QRL     18
        58 003526   000146 116007                    CMPQ    102,DL
        58 003527   003540 603000 58                 TRC     s:4454
        58 003530   200016 742100                    STX2    K+2,,AUTO
        58 003531   777631 622012                    EAX2    -103,X2
        58 003532   777777 662003                    ERX2    -1,DU
        58 003533   200016 235100                    LDA     K+2,,AUTO
        58 003534   000022 771000                    ARL     18
        58 003535   040045 100400                    MLR     fill='040'O
        58 003536   000673 000002 55                 ADSC9   MOPSTR+443               cn=0,n=2
        58 003537   000006 400012 53                 ADSC9   LIST_STRING+6,A          cn=2,n=*X2

      506     4453    3                  '   SC ( ',SC.SNAM,' )');
      507     4454    3               CALL LIST(LIST_STRING);

   4454 58 003540   000002 630400 59                 EPPR0   2
        58 003541   000001 631400 59                 EPPR1   1
PL6.E3A0      #001=ZIG$V_PRINT File=ZIG$V_PRINT.:ZIC0TSI                         FRI 09/05/97 12:22 Page:112
        58 003542   000000 701000 xent               TSX1    LIST
        58 003543   000000 011000                    NOP     0

      508     4455    3               RS$ = PINCRW(SSS$,RS.RCRSN);

   4455 58 003544   000000 470400 45                 LDP0    RS$
        58 003545   000002 720100                    LXL0    2,,PR0
        58 003546   000000 636010                    EAQ     0,X0
        58 003547   000000 036000 33                 ADLQ    SSS$
        58 003550   000000 756000 45                 STQ     RS$

      509     4456    3               END;

   4456 58 003551   000000 116000 33                 CMPQ    SSS$
        58 003552   003455 601000 58                 TNZ     s:4445

      510     4457    2           RC$ = PINCRW(SSS$,RC.OARCN);

   4457 58 003553   000000 470400 40                 LDP0    RC$
        58 003554   000002 220100                    LDX0    2,,PR0
        58 003555   000000 636010                    EAQ     0,X0
        58 003556   000000 036000 33                 ADLQ    SSS$
        58 003557   000000 756000 40                 STQ     RC$

      511     4458    2           RC1$ = PINCRW(RC$ , -2);

   4458 58 003560   777776 036003                    ADLQ    -2,DU
        58 003561   000000 756000 41                 STQ     RC1$

      512     4459    2           END;

   4459 58 003562   000000 236000 40                 LDQ     RC$
        58 003563   000000 116000 33                 CMPQ    SSS$
        58 003564   002643 601000 58                 TNZ     s:4365

      513     4460    1       IF MODE = 0 THEN RETURN;

PL6.E3A0      #001=ZIG$V_PRINT File=ZIG$V_PRINT.:ZIC0TSI                         FRI 09/05/97 12:22 Page:113
   4460 58 003565   000207 235000 54                 LDA     MODE
        58 003566   003570 601000 58                 TNZ     s:4461

   4460 58 003567   000000 702200 xent               TSX2  ! X66_ARET

      514     4461    1       CALL CLOSE_64;

   4461 58 003570   000004 631400 59                 EPPR1   4
        58 003571   000000 701000 xent               TSX1    CLOSE_64
        58 003572   000000 011000                    NOP     0

      515     4462    1       FIR_SW = 0;

   4462 58 003573   000000 450000 56                 STZ     FIR_SW

      516     4463    1       CALL READ64(0,CONTROL);

   4463 58 003574   000177 630400 59                 EPPR0   127
        58 003575   000012 631400 59                 EPPR1   10
        58 003576   000000 701000 xent               TSX1    READ64
        58 003577   000000 011000                    NOP     0

      517     4464    1       CALL ZIG$SS_WVAR;

   4464 58 003600   000004 631400 59                 EPPR1   4
        58 003601   000000 701000 xent               TSX1    ZIG$SS_WVAR
        58 003602   000000 011000                    NOP     0

      518     4465    1       CALL WRIT64(0,CONTROL);

   4465 58 003603   000177 630400 59                 EPPR0   127
        58 003604   000012 631400 59                 EPPR1   10
        58 003605   000000 701000 xent               TSX1    WRIT64
        58 003606   000000 011000                    NOP     0

      519     4466    1       CALL CLOSE_64;

PL6.E3A0      #001=ZIG$V_PRINT File=ZIG$V_PRINT.:ZIC0TSI                         FRI 09/05/97 12:22 Page:114
   4466 58 003607   000004 631400 59                 EPPR1   4
        58 003610   000000 701000 xent               TSX1    CLOSE_64
        58 003611   000000 011000                    NOP     0

      520     4467    1   END ZIG$V_PRINT;

   4467 58 003612   000000 702200 xent               TSX2  ! X66_ARET

ANALS
 Sect OctLoc
   0     000   ****** ******   ****** ******   ****** ******   ****** ******    ................

PURGE
 Sect OctLoc
   1     000   ****** ******   ****** ******   ****** ******   ****** ******    ................

DICTS
 Sect OctLoc
   2     000   ****** ******   ****** ******   ****** ******   ****** ******    ................

DISPS
 Sect OctLoc
   3     000   ***00* ******   ****** ******   ****** ******   ****** ******    ................
   3     024*  ****** ******   ****** ******   ****** ******                    ............

VALIDS
 Sect OctLoc
   4     000   ****** ******   ****** ******   ****** ******   ****** ******    ................

LOCKS
 Sect OctLoc
   5     000   ****** ******   ****** ******   ****** ******   ****** ******    ................

STRAN
 Sect OctLoc
   6     000   ****** ******   ****** ******   ****** ******   ****** ******    ................

PL6.E3A0      #001=ZIG$V_PRINT File=ZIG$V_PRINT.:ZIC0TSI                         FRI 09/05/97 12:22 Page:115
DTRAN
 Sect OctLoc
   7     000   ****** ******   ****** ******   ****** ******   ****** ******    ................

SSTRANS
 Sect OctLoc
   8     000   ****** ******   ****** ******   ****** ******   ****** ******    ................

SSGEN
 Sect OctLoc
   9     000   ****** ******   ****** ******   ****** ******   ****** ******    ................

UWA_KEY
 Sect OctLoc
  17     000   007125 127101   ****** ******                                    .UWA....

RVA_KEY
 Sect OctLoc
  19     000   007122 126101   ****** ******                                    .RVA....

IA__KEY
 Sect OctLoc
  20     000   007111 101137   ****** ******                                    .IA_....

SEARCHR_NB
 Sect OctLoc
  22     000   001001 001001   001001 001001   001001 001001   001001 001001    ................
  22     010*  000001 001001   001001 001001   001001 001001   001001 001001    ................
  22     014   001001 001001   001001 001001   001001 001001   001001 001001    ................
  22     034*  001001 001001   001001 001001   001001 001001   001001 001001    ................

SEM_COM
 Sect OctLoc
  23     000   000001 002003   004005 006007   010011 012013   014015 016017    ................
  23     004   020021 022023   024025 026027   030031 032033   034035 036037    ................
  23     010   040041 042043   044045 046047   050051 052053   054055 056057     !"#$%&'()*+,-./
  23     014   060061 062063   064065 066067   070071 072040   074075 076077    0123456789: <=>?
PL6.E3A0      #001=ZIG$V_PRINT File=ZIG$V_PRINT.:ZIC0TSI                         FRI 09/05/97 12:22 Page:116
  23     020   100101 102103   104105 106107   110111 112113   114115 116117    @ABCDEFGHIJKLMNO
  23     024   120121 122123   124125 126127   130131 132133   134135 136137    PQRSTUVWXYZ[\]^_
  23     030   140141 142143   144145 146147   150151 152153   154155 156157    `abcdefghijklmno
  23     034   160161 162163   164165 166167   170171 172173   174175 176177    pqrstuvwxyz{|}~.

DMCL_XLATE
 Sect OctLoc
  24     000   000001 002003   004005 006007   010011 012013   014015 016017    ................
  24     004   020021 022023   024025 026027   030031 032033   034035 036037    ................
  24     010   040041 041043   044045 046047   050051 052053   054055 136057     !!#$%&'()*+,-^/
  24     014   060061 062063   064065 066067   070071 072040   074075 076077    0123456789: <=>?
  24     020   100101 102103   104105 106107   110111 112113   114115 116117    @ABCDEFGHIJKLMNO
  24     024   120121 122123   124125 126127   130131 132133   134135 136137    PQRSTUVWXYZ[\]^_
  24     030   140141 142143   144145 146147   150151 152153   154155 156157    `abcdefghijklmno
  24     034   160161 162163   164165 166167   170171 172173   174175 176177    pqrstuvwxyz{|}~.

Q2_PERCENT
 Sect OctLoc
  25     000   000001 002003   004005 006007   010011 012013   014015 016017    ................
  25     004   020021 022023   024025 026027   030031 032033   034035 036037    ................
  25     010   040041 045043   044045 046047   050051 052053   054055 056057     !%#$%&'()*+,-./
  25     014   060061 062063   064065 066067   070071 072073   074075 076077    0123456789:;<=>?
  25     020   100101 102103   104105 106107   110111 112113   114115 116117    @ABCDEFGHIJKLMNO
  25     024   120121 122123   124125 126127   130131 132133   134135 136137    PQRSTUVWXYZ[\]^_
  25     030   140141 142143   144145 146147   150151 152153   154155 156157    `abcdefghijklmno
  25     034   160161 162163   164165 166167   170171 172173   174175 176177    pqrstuvwxyz{|}~.

CONTROL
 Sect OctLoc
  26     000   777777 777777   000000 000001   000000 000000   000000 000036    ................
  26     004   000000 000060   000000 000000   000000 000000   000000 000000    ...0............
  26     010   000000 000000   000000 000000   000000 000000   000000 000000    ................
  26     020*  040040 040040   040040 040040   040040 040040   040040 040040
  26     040*  000000 000144   000000 000000   400000 000000   042116 125114    ...d........"NUL
  26     044   114042 040040   040040 040040   042116 125114   114042 040040    L"      "NULL"
  26     050   040040 040040   000000 000060   000000 000000   000000 000000        ...0........
  26     054   000000 000000   000000 000000   000000 000000   000000 000000    ................
PL6.E3A0      #001=ZIG$V_PRINT File=ZIG$V_PRINT.:ZIC0TSI                         FRI 09/05/97 12:22 Page:117
  26     064*  000000 000000   040040 040040   040040 040040   040040 040040    ....
  26     070   000000 000000   000000 000000   000000 000000   000000 000000    ................
  26     074   000000 000002   000000 000000   000000 000000   000000 000000    ................

LANG_ALLOWED
 Sect OctLoc
  27     000   ****** ******   ****** ******   ****** ******   ****** ******    ................

HEADING_TEXT
 Sect OctLoc
  29     000   ****** ******   ****** ******   ****** ******   ****** ******    ................

LANG_TEXT
 Sect OctLoc
  30     000   116117 124040   125123 105104   040040 103117   102117 114040    NOT USED  COBOL
  30     004   040040 040040   106117 122124   122101 116040   040040 101120        FORTRAN   AP
  30     010   114040 040040   040040 040040   102101 123111   103040 040040    L       BASIC
  30     014   040040 ******                                                      ..

HASH_SCHEMA_NAME
 Sect OctLoc
  31     000   0***** ******                                                    ....

LIST_STRING
 Sect OctLoc
  53     000   ****** ******   ****** ******   ****** ******   ****** ******    ................

BL
 Sect OctLoc
  54     001   040040 040040   040040 040040   040040 040040   040040 040040
  54     035*  040040 040040   040040 040040

FIRST_PART
 Sect OctLoc
  54     037   ****** ******   ****** ******   ****** ******   ****** ******    ................

SECOND_PART_STR
PL6.E3A0      #001=ZIG$V_PRINT File=ZIG$V_PRINT.:ZIC0TSI                         FRI 09/05/97 12:22 Page:118
 Sect OctLoc
  54     052   ****** ******   ****** ******   ****** ******   ****** ******    ................

AREA_HEADING
 Sect OctLoc
  54     070   123125 102123   103110 105115   101040 101122   105101 123072    SUBSCHEMA AREAS:
  54     074   040040 040040   040040 040040   040040 040040   040040 040040
  54     104*  040040 040040   040040 040040   040040 040040   040040 040040

MAIN_HEADING
 Sect OctLoc
  54     110   123103 110105   115101 040123   125102 123105   124040 120122    SCHEMA SUBSET PR
  54     114   111116 124056   040040 040040   040040 040040   040040 040040    INT.
  54     120   040040 040040   040040 040040   040040 040040   040040 040040
  54     124   040040 040040   040040 040040   040040 040040   040040 040040

RECORD_HEADING
 Sect OctLoc
  54     130   123125 102123   103110 105115   101040 122105   103117 122104    SUBSCHEMA RECORD
  54     134   123072 040040   040040 040040   040040 040040   040040 040040    S:
  54     140   040040 040040   040040 040040   040040 040040   040040 040040
  54     144   040040 040040   040040 040040   040040 040040   040040 040040

SET_HEADING
 Sect OctLoc
  54     153   123125 102123   103110 105115   101040 123105   124123 072040    SUBSCHEMA SETS:
  54     157   040040 040040   040040 040040   040040 040040   040040 040040
  54     167*  040040 040040   040040 040040   040040 040040   040040 040040

TEMP_STR
 Sect OctLoc
  54     174   ****** ******   ****** ******   ****** ******   ****** ******    ................

MODE
 Sect OctLoc
  54     207   000000 000000                                                    ....

PL6.E3A0      #001=ZIG$V_PRINT File=ZIG$V_PRINT.:ZIC0TSI                         FRI 09/05/97 12:22 Page:119
MOPSTR
 Sect OctLoc
  55     000   113321 ******                                                    K...

(unnamed)
 Sect OctLoc
  55     001   040040 111104   040040 040040   052052 052052   040103 104040      ID    **** CD
  55     005   104105 106136   040040 040040   040040 040040   040040 040040    DEF^
  55     011   040040 040050   123051 040106   122040 040040   040040 122103       (S) FR     RC
  55     015   040055 040040   040040 040040   040040 040040   040040 040040     -
  55     021   040040 040050   122051 040106   122040 040040   106157 162040       (R) FR   For
  55     025   164150 145040   163145 164136   126101 114111   104101 124111    the set^VALIDATI
  55     031   117116 040123   124101 124125   123136 040040   124122 101116    ON STATUS^  TRAN
  55     035   123114 101124   111117 116040   123124 101124   125123 136040    SLATION STATUS^
  55     041   125127 101040   123111 132105   136040 040040   116125 115102    UWA SIZE^   NUMB
  55     045   105122 040101   122105 101123   136040 040040   116125 115102    ER AREAS^   NUMB
  55     051   105122 040122   105103 117122   104123 136040   116125 115102    ER RECORDS^ NUMB
  55     055   105122 040106   111105 114104   123136 040040   116125 115102    ER FIELDS^  NUMB
  55     061   105122 040123   105124 123136   116125 115102   105122 040122    ER SETS^NUMBER R
  55     065   105103 117122   104040 123105   124136 040040   116125 115102    ECORD SET^  NUMB
  55     071   105122 040104   102040 120101   122101 115123   136040 040040    ER DB PARAMS^
  55     075   123103 110105   115101 040116   101115 105136   123125 102123    SCHEMA NAME^SUBS
  55     101   103110 105115   101040 116101   115105 136040   123125 102123    CHEMA NAME^ SUBS
  55     105   103110 105115   101040 114101   116107 125101   107105 136040    CHEMA LANGUAGE^
  55     111   124122 101116   123114 101124   111117 116040   125124 123136    TRANSLATION UTS^
  55     115   126101 114111   104101 124111   117116 040125   124123 136040    VALIDATION UTS^
  55     121   116105 130124   040101 126101   111114 101102   114105 040122    NEXT AVAILABLE R
  55     125   105103 117122   104136 040040   106111 122123   124040 103125    ECORD^  FIRST CU
  55     131   040122 105103   117122 104136   106111 122123   124040 116106     RECORD^FIRST NF
  55     135   040122 105103   117122 104136   106111 122123   124040 123104     RECORD^FIRST SD
  55     141   123040 122105   103117 122104   136040 040040   106111 122123    S RECORD^   FIRS
  55     145   124040 116106   105040 122105   103117 122104   136040 040040    T NFE RECORD^
  55     151   123111 132105   040123 103110   105115 101040   123125 102123    SIZE SCHEMA SUBS
  55     155   105124 136040   040123 123123   040113 105131   117101 040104    ET^  SSS KEYOA D
  55     161   105106 136040   123103 110105   115101 040123   125102 123105    EF^ SCHEMA SUBSE
  55     165   124040 111116   124040 123111   132105 136040   123103 110105    T INT SIZE^ SCHE
  55     171   115101 040123   125102 123105   124040 123111   132105 136040    MA SUBSET SIZE^
PL6.E3A0      #001=ZIG$V_PRINT File=ZIG$V_PRINT.:ZIC0TSI                         FRI 09/05/97 12:22 Page:120
  55     175   123103 110105   115101 040116   101115 105040   105111 123136    SCHEMA NAME EIS^
  55     201   123125 102123   103110 105115   101040 116101   115105 040105    SUBSCHEMA NAME E
  55     205   111123 136040   123103 110105   115101 040124   122101 116123    IS^ SCHEMA TRANS
  55     211   114101 124111   117116 040125   124123 136040   123103 110105    LATION UTS^ SCHE
  55     215   115101 040126   101114 111104   101124 111117   116040 125124    MA VALIDATION UT
  55     221   123136 040040   123111 132105   040117 106040   103125 122122    S^  SIZE OF CURR
  55     225   105116 103111   105123 136040   114101 122107   105123 124040    ENCIES^ LARGEST
  55     231   122105 103117   122104 040111   123136 040040   114111 116113    RECORD IS^  LINK
  55     235   101107 105040   123105 103124   111117 116040   123111 132105    AGE SECTION SIZE
  55     241   136040 040040   113105 131040   120122 117103   105123 123111    ^   KEY PROCESSI
  55     245   116107 040123   111132 105136   114101 122107   105123 124040    NG SIZE^LARGEST
  55     251   120101 040122   105103 117122   104136 040040   040040 040040    PA RECORD^
  55     255   040040 052052   052052 040101   122105 101040   116101 115105      **** AREA NAME
  55     261   040111 123040   040111 104040   075040 040040   101122 105101     IS  ID =   AREA
  55     265   040102 111116   104111 116107   040103 117104   105136 040040     BINDING CODE^
  55     271   101122 105101   040104 105106   136040 040040   102101 123105    AREA DEF^   BASE
  55     275   040104 102113   136040 040040   127117 122113   040123 120101     DBK^   WORK SPA
  55     301   103105 040117   106106 123105   124136 040040   101122 105101    CE OFFSET^  AREA
  55     305   040116 101115   105040 105111   123136 040040   101122 105101     NAME EIS^  AREA
  55     311   040114 117127   040120 101107   105040 116125   115136 040040     LOW PAGE NUM^
  55     315   101122 105101   040110 111107   110040 120101   107105 040116    AREA HIGH PAGE N
  55     321   125115 136040   101122 105101   040114 117127   040104 102113    UM^ AREA LOW DBK
  55     325   040116 125115   136040 040040   101122 105101   040110 111107     NUM^   AREA HIG
  55     331   110040 104102   113040 116125   115136 040040   104102 113123    H DBK NUM^  DBKS
  55     335   040120 105122   040120 101107   105136 040040   104102 113123     PER PAGE^  DBKS
  55     341   040120 105122   040103 101114   103040 110105   101104 105122     PER CALC HEADER
  55     345   136040 040040   111116 126105   116124 117122   131040 124110    ^   INVENTORY TH
  55     351   122105 123110   117114 104136   120101 107105   040123 111132    RESHOLD^PAGE SIZ
  55     355   105136 040040   123111 132105   040117 106040   114117 103101    E^  SIZE OF LOCA
  55     361   114040 104102   113123 136040   101103 040106   114101 107123    L DBKS^ AC FLAGS
  55     365   136040 040040   111116 126105   116124 117122   131040 125116    ^   INVENTORY UN
  55     371   111124 040123   111132 105136   104101 124101   040120 101107    IT SIZE^DATA PAG
  55     375   105123 057040   111116 126040   120101 107105   136040 040040    ES/ INV PAGE^
  55     401   106111 122123   124040 111116   126105 116124   117122 131040    FIRST INVENTORY
  55     405   120101 107105   136040 040040   103101 114103   040116 105130    PAGE^   CALC NEX
  55     411   124040 120124   122040 105111   123136 040040   103101 114103    T PTR EIS^  CALC
  55     415   040120 122111   117122 040120   124122 040105   111123 136040     PRIOR PTR EIS^
PL6.E3A0      #001=ZIG$V_PRINT File=ZIG$V_PRINT.:ZIC0TSI                         FRI 09/05/97 12:22 Page:121
  55     421   040040 040040   040040 052052   052052 040123   105124 040116          **** SET N
  55     425   101115 105040   111123 040040   040040 111104   040075 040040    AME IS    ID =
  55     431   123105 124040   102111 116104   111116 107040   103117 104105    SET BINDING CODE
  55     435   136040 040040   123105 124040   104105 106136   123105 124040    ^   SET DEF^SET
  55     441   127117 122113   040123 120101   103105 040117   106106 123105    WORK SPACE OFFSE
  55     445   124136 040040   111116 104105   130040 111104   136040 040040    T^  INDEX ID^
  55     451   114105 116107   124110 040117   106040 113105   131040 050102    LENGTH OF KEY (B
  55     455   131124 105123   051136 040040   123117 040040   123115 040040    YTES)^  SO  SM
  55     461   052052 052052   040123 105124   040040 040040   040111 104040    **** SET     ID
  55     465   075040 040040   040040 040122   105103 117122   104136 040040    =      RECORD^
  55     471   122123 040104   105106 136040   122123 040116   105130 124040    RS DEF^ RS NEXT
  55     475   120117 111116   124105 122040   105111 123136   122123 040120    POINTER EIS^RS P
  55     501   122111 117122   040120 117111   116124 105122   040105 111123    RIOR POINTER EIS
  55     505   136040 040040   122123 040110   105101 104040   120117 111116    ^   RS HEAD POIN
  55     511   124105 122040   105111 123136   052052 052052   040123 123040    TER EIS^**** SS
  55     515   122105 103136   122123 040123   105101 122103   110040 120117    REC^RS SEARCH PO
  55     521   111116 124105   122136 040040   040040 040040   040040 040040    INTER^
  55     525   040040 040040   052052 052052   040106 122117   115040 040040        **** FROM
  55     531   040040 040040   040052 052040   122105 103117   122104 040116         ** RECORD N
  55     535   101115 105040   111123 040040   122105 103117   122104 040111    AME IS  RECORD I
  55     541   104136 040040   122103 040104   105106 136040   122105 103117    D^  RC DEF^ RECO
  55     545   122104 040123   111132 105040   050102 131124   105123 051136    RD SIZE (BYTES)^
  55     551   122105 103117   122104 040127   117122 113040   123120 101103    RECORD WORK SPAC
  55     555   105040 117106   106123 105124   136040 040040   122105 103117    E OFFSET^   RECO
  55     561   122104 040124   131120 105040   111123 136040   117106 106123    RD TYPE IS^ OFFS
  55     565   105124 040126   101122 111101   102114 105040   114105 116040    ET VARIABLE LEN
  55     571   104101 124101   136040 040040   040040 040040   040040 040040    DATA^
  55     575   040040 052052   052040 122101   040040 101103   040050 040040      *** RA  AC (
  55     601   040051 040040   122101 040104   105106 136040   122101 040114     )  RA DEF^ RA L
  55     605   117127 040104   102113 136040   122101 040110   111107 110040    OW DBK^ RA HIGH
  55     611   104102 113136   116125 115040   103101 114103   040110 104122    DBK^NUM CALC HDR
  55     615   040111 116040   122101 116107   105136 040040   104111 123120     IN RANGE^  DISP
  55     621   114101 103105   115105 116124   040124 117040   103101 114103    LACEMENT TO CALC
  55     625   040110 104122   136040 040040   040040 040040   040040 040040     HDR^
  55     631   040040 052052   052040 106122   040040 040040   040040 111104      *** FR      ID
  55     635   040075 040040   106122 040104   105106 136040   122105 103117     =  FR DEF^ RECO
  55     641   122104 040117   106106 123105   124040 105111   123136 040040    RD OFFSET EIS^
PL6.E3A0      #001=ZIG$V_PRINT File=ZIG$V_PRINT.:ZIC0TSI                         FRI 09/05/97 12:22 Page:122
  55     645   125127 101040   117106 106123   105124 040105   111123 136040    UWA OFFSET EIS^
  55     651   127117 122113   040123 120101   103105 040117   106106 123105    WORK SPACE OFFSE
  55     655   124136 040040   102111 124040   117106 106123   105124 040124    T^  BIT OFFSET T
  55     661   117040 116125   114114 136040   123117 040040   123115 040040    O NULL^ SO  SM
  55     665   040040 040040   040040 040040   040040 040040   052052 052040                ***
  55     671   040040 040123   103040 050040   040051 040040                       SC (  )

(unnamed)
 Sect OctLoc
  59     000   136040 040040   000001 000000   000000 006000   040040 040040    ^   ........
  59     004   000000 000000   000000 000044   000005 006000   000003 006000    .......$........
  59     010   000052 006000   000024 006000   000002 000000   000000 006000    .*..............
  59     014   000004 006000   000110 006000   000027 006000   000001 006000    .....H..........
  59     020   000034 006000   000004 006000   000041 006000   000010 006000    .........!......
  59     024   000044 006000   000011 006000   000050 006000   000012 006000    .$.......(......
  59     030   000054 006000   000013 006000   000060 006000   000014 006000    .,.......0......
  59     034   000063 006000   000015 006000   000070 006000   000020 006000    .3.......8......
  59     040   000075 006000   000030 006000   000100 006000   000000 006000    .=.......@......
  59     044   000002 400000   000104 006000   000005 006000   000053 006000    .....D.......+..
  59     050   000111 006000   000000 000000   000005 006000   000055 006000    .I...........-..
  59     054   000115 006000   000072 006000   000121 006000   000073 006000    .M...:...Q...;..
  59     060   000127 006000   000074 006000   000133 006000   000075 006000    .W...<...[...=..
  59     064   000137 006000   000076 006000   000144 006000   000077 006000    ._...>...d...?..
  59     070   000151 006000   000077 006000   000000 006000   000000 000022    .i...?..........
  59     074   000073 006000   000160 006000   000062 006000   000162 006000    .;...p...2...r..
  59     100   000170 006000   000175 006000   000201 006000   000206 006000    .x...}..........
  59     104   000214 006000   000222 006000   000227 006000   000234 006000    ................
  59     110   000242 006000   000247 006000   000070 006000   000047 006000    .........8...'..
  59     114   000264 006000   000271 006000   000274 006000   000277 006000    ................
  59     120   000304 006000   000310 006000   000315 006000   000322 006000    ................
  59     124   000327 006000   000334 006000   000340 006000   000346 006000    ................
  59     130   000353 006000   000356 006000   000015 400000   000363 006000    ................
  59     134   000366 006000   000373 006000   000401 006000   000407 006000    ................
  59     140   000414 006000   000153 006000   000431 006000   000436 006000    .....k..........
  59     144   000440 006000   000446 006000   000451 006000   000174 006000    .............|..
  59     150   000471 006000   000473 006000   000500 006000   000506 006000    ................
  59     154   000513 006000   000516 006000   000130 006000   000537 006000    .........X......
PL6.E3A0      #001=ZIG$V_PRINT File=ZIG$V_PRINT.:ZIC0TSI                         FRI 09/05/97 12:22 Page:123
  59     160   000542 006000   000544 006000   000551 006000   000560 006000    ................
  59     164   000564 006000   000602 006000   000604 006000   000607 006000    ................
  59     170   000612 006000   000620 006000   000636 006000   000640 006000    ................
  59     174   000645 006000   000651 006000   000656 006000   000004 006000    ................
  59     200   000000 006000                                                    ....

PL6.E3A0      #001=ZIG$V_PRINT File=ZIG$V_PRINT.:ZIC0TSI                         FRI 09/05/97 12:22 Page:124
--  Include file information  --

   ZIG_SSS.:ZIC0TOU  is referenced.
   ZI_SUB_LANG.:ZIC0TOU  is referenced.
   B_MICROPS_C.:LIB_E05  is referenced.
   ZIG_GENERAL.:ZIC0TOU  cannot be made into a system file and is referenced.
   ZI_ERRORS_SUBS.:ZIC0TOU  is referenced.
   ZIG_DIR_STRUCS.:ZIC0TOU  cannot be made into a system file and is referenced.
   B$JIT_C.:E05TOU  was found in the system file and is never referenced.
   CP_6_C.:E05TOU  was found in the system file and is never referenced.
      No diagnostics issued in procedure ZIG$V_PRINT.

   Procedure ZIG$V_PRINT requires 1931 words for executable code.
   Procedure ZIG$V_PRINT requires 26 words of local(AUTO) storage.

    No errors detected in file ZIG$V_PRINT.:ZIC0TSI    .
PL6.E3A0      #001=ZIG$V_PRINT File=ZIG$V_PRINT.:ZIC0TSI                         FRI 09/05/97 12:22 Page:125
          *** CROSS REFERENCE LISTING ***
**     DENOTES     IDENTIFIER DEFINITION
<<                 IDENTIFIER'S VALUE SET
>>                 IDENTIFIER'S VALUE USED
<>                 IDENTIFIER SET AND/OR USED
--                 IDENTIFIER REFERENCED
PL6.E3A0      #001=ZIG$V_PRINT File=ZIG$V_PRINT.:ZIC0TSI                         FRI 09/05/97 12:22 Page:126
          MINI XREF LISTING

ABORT
       687**DCL-ENT  4115--CALL     4224--CALL     4273--CALL     4302--CALL     4326--CALL     4366--CALL
      4390--CALL     4412--CALL     4447--CALL
AC.ABAS
      3510**DCL      4236<>CALL
AC.ACID
      3512**DCL      4233>>ASSIGN
AC.ANAM
      3578**DCL      4229>>CALLBLT  4395>>CALLBLT
AC.BPLDBK
      3536**DCL      4252>>ASSIGN
AC.CLCN
      3550**DCL      4260<>CALL
AC.CLCP
      3559**DCL      4261<>CALL
AC.DBLIM.HIGHDBK
      3529**DCL      4243<>CALL
AC.DBLIM.LOWDBK
      3528**DCL      4242<>CALL
AC.DEF
      3492**DCL      4235<>CALL
AC.DEF.ANL
      3507**DCL      3578--IMP-SIZ  4229>>CALLBLT  4395>>CALLBLT
AC.DEF.FORG
      3494**DCL      3498--REDEF
AC.DEF.TYPE
      3493**DCL      4223>>IF
AC.DPPI
      3548**DCL      4257>>ASSIGN
AC.FIPN
      3549**DCL      4259<>CALL
AC.FLAGS
PL6.E3A0      #001=ZIG$V_PRINT File=ZIG$V_PRINT.:ZIC0TSI                         FRI 09/05/97 12:22 Page:127
      3537**DCL      4254<>CALL
AC.INTVL
      3533**DCL      4246>>ASSIGN
AC.INVT
      3534**DCL      4248>>ASSIGN
AC.IUSZ
      3546**DCL      4255>>ASSIGN
AC.LPP
      3531**DCL      4244>>ASSIGN
AC.OAACN
      3508**DCL      4262>>ASSIGN
AC.PGLIM.HIGHPG
      3526**DCL      4241<>CALL
AC.PGLIM.LOWPG
      3525**DCL      4240<>CALL
AC.PGSZ
      3535**DCL      4250>>ASSIGN
AC.SANAM
      3515**DCL      4239<>CALL
AC.WSOF
      3511**DCL      4237>>ASSIGN
AC$
      3490**DCL      3491--IMP-PTR  4220<<ASSIGN   4221>>ASSIGN   4222>>DOWHILE  4223>>IF       4228>>CALL
      4229>>CALLBLT  4229>>CALLBLT  4233>>ASSIGN   4235>>CALL     4236>>CALL     4237>>ASSIGN   4239>>CALL
      4240>>CALL     4241>>CALL     4242>>CALL     4243>>CALL     4244>>ASSIGN   4246>>ASSIGN   4248>>ASSIGN
      4250>>ASSIGN   4252>>ASSIGN   4254>>CALL     4255>>ASSIGN   4257>>ASSIGN   4259>>CALL     4260>>CALL
      4261>>CALL     4262<<ASSIGN   4262>>ASSIGN   4263>>ASSIGN   4394<<ASSIGN   4395>>CALLBLT  4395>>CALLBLT
AC1$
      3584**DCL      3585--IMP-PTR  4221<<ASSIGN   4263<<ASSIGN
AG$
      3958**DCL      3959--IMP-PTR
AG1$
      3988**DCL      3989--IMP-PTR
AREA_HEADING
      4007**DCL      4219<>CALL
BL
PL6.E3A0      #001=ZIG$V_PRINT File=ZIG$V_PRINT.:ZIC0TSI                         FRI 09/05/97 12:22 Page:128
      3999**DCL      4034>>CALLBLT  4047>>CALLBLT  4071>>CALLBLT  4098>>CALLBLT
BUFFER$
       719**DCL      4175<<ASSIGN
BUFFER_LEN
       721**DCL      4176<<ASSIGN
CD.CDRH
      3930**DCL      4127>>ASSIGN   4131>>CALLBLT
CD.CDRN
      3932**DCL      4435>>ASSIGN
CD.CDSH
      3929**DCL      4117>>ASSIGN   4121>>CALLBLT
CD.CDSN
      3931**DCL      4430>>ASSIGN
CD.DEF
      3919**DCL      4116<>CALL
CD.DEF.TYPE
      3920**DCL      4114>>IF
CD.RSCDH
      3928**DCL      4137>>ASSIGN
CD.RSCDN
      3927**DCL      4337>>ASSIGN   4351>>ASSIGN
CD$
      3917**DCL      3918--IMP-PTR  4114>>IF       4116>>CALL     4116>>CALL     4117>>ASSIGN   4121>>CALLBLT
      4127>>ASSIGN   4131>>CALLBLT  4137>>ASSIGN   4333<<ASSIGN   4335>>DOWHILE  4337<<ASSIGN   4337>>ASSIGN
      4341<<ASSIGN   4342>>IF       4349>>DOWHILE  4351<<ASSIGN   4351>>ASSIGN   4427<<ASSIGN   4428>>DOWHILE
      4430<<ASSIGN   4430>>ASSIGN   4432<<ASSIGN   4433>>DOWHILE  4435<<ASSIGN   4435>>ASSIGN
CHAR_1
      4005**DCL      4068<<CALLBLT  4069>>CALLBLT  4093<<CALLBLT  4094>>CALLBLT
CLOSE_64
      4022**DCL-ENT  4181--CALL     4461--CALL     4466--CALL
CONTROL
      2726**DCL      4145--CALL     4463<>CALL     4465<>CALL
CONTROL.FIRST_CU_RECORD
      2763**DCL      4165<>CALL
CONTROL.FIRST_ISS_BLOCK
      2767**DCL      4169<>CALL     4172<>CALL     4176>>ASSIGN
PL6.E3A0      #001=ZIG$V_PRINT File=ZIG$V_PRINT.:ZIC0TSI                         FRI 09/05/97 12:22 Page:129
CONTROL.FIRST_NFE_RECORD
      2766**DCL      4168<>CALL
CONTROL.FIRST_NF_RECORD
      2764**DCL      4166<>CALL
CONTROL.FIRST_SDS_RECORD
      2765**DCL      4167<>CALL
CONTROL.LANGUAGE
      2744**DCL      4161>>CALL
CONTROL.NEXT_AVAILABLE_RECORD
      2762**DCL      4164<>CALL
CONTROL.NUM_AREAS
      2733**DCL      4153<>CALL
CONTROL.NUM_DB_PARAM
      2738**DCL      4158<>CALL
CONTROL.NUM_FIELDS
      2735**DCL      4155<>CALL
CONTROL.NUM_RECORDS
      2734**DCL      4154<>CALL
CONTROL.NUM_REC_SET_REL
      2737**DCL      4157<>CALL
CONTROL.NUM_SETS
      2736**DCL      4156<>CALL
CONTROL.SCHEMA_NAME
      2741**DCL      4159<>CALL
CONTROL.SUBSCHEMA_NAME
      2742**DCL      4160<>CALL
CONTROL.SUBSCHEMA_UTS
      2750**DCL      4162<>CALL
CONTROL.TRANSLATION_STATUS
      2728**DCL      4151<>CALL
CONTROL.UWA_SIZE
      2731**DCL      4152<>CALL
CONTROL.VALIDATION_STATUS
      2727**DCL      4150<>CALL
CONTROL.VALIDATION_UTS
      2752**DCL      4163<>CALL
PL6.E3A0      #001=ZIG$V_PRINT File=ZIG$V_PRINT.:ZIC0TSI                         FRI 09/05/97 12:22 Page:130
DP$
      3936**DCL      3937--IMP-PTR
DP1$
      3950**DCL      3951--IMP-PTR
FIRST_PART
      4000**DCL      4031<<ASSIGN   4034>>CALLBLT  4044<<ASSIGN   4047>>CALLBLT  4059<<ASSIGN   4071>>CALLBLT
      4084<<ASSIGN   4098>>CALLBLT  4416<<ASSIGN   4417>>CALLBLT
FIR_SW
      4020**DCL      4462<<ASSIGN
FR.CDRN
      3627**DCL      4432>>ASSIGN
FR.CDSN
      3626**DCL      4427>>ASSIGN
FR.DEF
      3595**DCL      4420<>CALL
FR.DEF.TYPE
      3596**DCL      4411>>IF
FR.FNAM
      3633**DCL      4123>>CALLBLT  4133>>CALLBLT  4416>>ASSIGN
FR.FNL
      3629**DCL      3633--IMP-SIZ  4123>>CALLBLT  4133>>CALLBLT  4416>>ASSIGN
FR.FRWSO
      3632**DCL      4423>>ASSIGN
FR.RCFRH
      3631**DCL      4120>>ASSIGN   4130>>ASSIGN
FR.RCFRN
      3630**DCL      4437>>ASSIGN
FR.ROFST
      3607**DCL      4421<>CALL
FR.UOFST
      3616**DCL      4422<>CALL
FR.UOFST.EIS.OFFSET
      3619**DCL      3622--REDEF
FR$
      3593**DCL      3594--IMP-PTR  4408<<ASSIGN   4409>>ASSIGN   4410>>DOWHILE  4411>>IF       4415>>CALL
      4416>>ASSIGN   4416>>ASSIGN   4420>>CALL     4421>>CALL     4422>>CALL     4423>>ASSIGN   4427>>ASSIGN
PL6.E3A0      #001=ZIG$V_PRINT File=ZIG$V_PRINT.:ZIC0TSI                         FRI 09/05/97 12:22 Page:131
      4432>>ASSIGN   4437<<ASSIGN   4437>>ASSIGN   4438>>ASSIGN
FR1.NLIND
      3641**DCL      4425>>ASSIGN
FR1$
      3638**DCL      3639--IMP-PTR  4409<<ASSIGN   4425>>ASSIGN   4438<<ASSIGN
GET_NUM
      4104**PROC     4228--CALL     4277--CALL     4309--CALL     4370--CALL     4415--CALL
HEADING IN PROCEDURE PRINT
      4027**DCL      4026--PROC     4030>>CALLBLT  4031>>ASSIGN
HEADING IN PROCEDURE PRINT_O
      4053**DCL      4052--PROC     4058>>CALLBLT  4059>>ASSIGN
HEADING IN PROCEDURE PRINT_O_ID
      4077**DCL      4076--PROC     4083>>CALLBLT  4084>>ASSIGN
HEADING IN PROCEDURE PRINT_S
      4040**DCL      4039--PROC     4043>>CALLBLT  4044>>ASSIGN
I
      4003**DCL      4193<<ASSIGN   4194<>CALL     4195<<ASSIGN   4196<>CALL     4201<<ASSIGN   4202<>CALL
      4203<<ASSIGN   4204<>CALL     4205<<ASSIGN   4206<>CALL     4207<<ASSIGN   4208<>CALL     4209<<ASSIGN
      4210<>CALL     4211<<ASSIGN   4212<>CALL     4213<<ASSIGN   4214<>CALL     4233<<ASSIGN   4234<>CALL
      4237<<ASSIGN   4238<>CALL     4244<<ASSIGN   4245<>CALL     4246<<ASSIGN   4247<>CALL     4248<<ASSIGN
      4249<>CALL     4250<<ASSIGN   4251<>CALL     4252<<ASSIGN   4253<>CALL     4255<<ASSIGN   4256<>CALL
      4257<<ASSIGN   4258<>CALL     4282<<ASSIGN   4283<>CALL     4285<<ASSIGN   4286<>CALL     4289<<ASSIGN
      4290<>CALL     4291<<ASSIGN   4292<>CALL     4331<<ASSIGN   4332<>CALL     4374<<ASSIGN   4376<>CALL
      4378<<ASSIGN   4379<>CALL     4380<<ASSIGN   4381<>CALL     4382<<ASSIGN   4383<>CALL     4384<<ASSIGN
      4385<>CALL     4423<<ASSIGN   4424<>CALL     4425<<ASSIGN   4426<>CALL
I IN PROCEDURE PRINT
      4029**DCL      4030<<CALLBLT  4031>>ASSIGN
I IN PROCEDURE PRINT_O
      4056**DCL      4058<<CALLBLT  4059>>ASSIGN   4061<<DOINDEX  4062>>ASSIGN   4063>>IF       4067>>IF
      4068>>CALLBLT
I IN PROCEDURE PRINT_O_ID
      4080**DCL      4083<<CALLBLT  4084>>ASSIGN   4086<<DOINDEX  4087>>ASSIGN   4088>>IF       4092>>IF
I IN PROCEDURE PRINT_S
      4042**DCL      4043<<CALLBLT  4044>>ASSIGN   4045<<CALLBLT  4046>>ASSIGN
ID IN PROCEDURE PRINT_O_ID
      4082**DCL      4076--PROC     4096>>CALLBLT
PL6.E3A0      #001=ZIG$V_PRINT File=ZIG$V_PRINT.:ZIC0TSI                         FRI 09/05/97 12:22 Page:132
J
      4023**DCL      4146>>IF       4179>>IF
K IN PROCEDURE PRINT_O
      4057**DCL      4062<<ASSIGN   4067<<ASSIGN   4067>>ASSIGN   4069>>CALLBLT
K IN PROCEDURE PRINT_O_ID
      4081**DCL      4087<<ASSIGN   4092<<ASSIGN   4092>>ASSIGN   4093>>CALLBLT  4094>>CALLBLT
LANG_TEXT
      2791**DCL      4161<>CALL
LEN IN PROCEDURE PRINT_O
      4054**DCL      4052--PROC     4061>>DOINDEX
LEN IN PROCEDURE PRINT_O_ID
      4078**DCL      4076--PROC     4086>>DOINDEX
LIST
       694**DCL-ENT  4035--CALL     4048--CALL     4072--CALL     4100--CALL     4125--CALL     4135--CALL
      4226--CALL     4227--CALL     4231--CALL     4275--CALL     4276--CALL     4280--CALL     4304--CALL
      4328--CALL     4345--CALL     4347--CALL     4368--CALL     4369--CALL     4373--CALL     4392--CALL
      4397--CALL     4414--CALL     4419--CALL     4442--CALL     4443--CALL     4454--CALL
LIST_STRING
      3997**DCL      4034<<CALLBLT  4035<>CALL     4047<<CALLBLT  4048<>CALL     4071<<CALLBLT  4072<>CALL
      4098<<CALLBLT  4100<>CALL     4123<<CALLBLT  4125<>CALL     4133<<CALLBLT  4135<>CALL     4225<<ASSIGN
      4226<>CALL     4227<>CALL     4229<<CALLBLT  4231<>CALL     4274<<ASSIGN   4275<>CALL     4276<>CALL
      4278<<CALLBLT  4280<>CALL     4303<<ASSIGN   4304<>CALL     4310<<CALLBLT  4314<>CALL     4327<<ASSIGN
      4328<>CALL     4344<<ASSIGN   4345<>CALL     4346<<CALLBLT  4347<>CALL     4367<<ASSIGN   4368<>CALL
      4369<>CALL     4371<<CALLBLT  4373<>CALL     4391<<ASSIGN   4392<>CALL     4395<<CALLBLT  4397<>CALL
      4413<<ASSIGN   4414<>CALL     4417<<CALLBLT  4419<>CALL     4441<<ASSIGN   4442<>CALL     4443<>CALL
      4452<<CALLBLT  4454<>CALL
MAIN_HEADING
      4008**DCL      4148<>CALL
MODE
      4019**DCL      4460>>IF
MOPSTR
      4004**DCL      4033>>CALLBLT  4097>>CALLBLT  4108>>CALLBLT  4122>>CALLBLT  4132>>CALLBLT
NUM IN PROCEDURE GET_NUM
      4106**DCL      4104--PROC     4107>>CALLBLT
NUM IN PROCEDURE PRINT
      4028**DCL      4026--PROC     4032>>CALLBLT
PL6.E3A0      #001=ZIG$V_PRINT File=ZIG$V_PRINT.:ZIC0TSI                         FRI 09/05/97 12:22 Page:133
NUM IN PROCEDURE PRINT_O
      4055**DCL      4052--PROC     4068>>CALLBLT
NUM IN PROCEDURE PRINT_O_ID
      4079**DCL      4076--PROC     4093>>CALLBLT
OA.ACNT
      3773**DCL      4201>>ASSIGN
OA.CSZ
      3774**DCL      4203>>ASSIGN
OA.DEF
      3729**DCL      4192<>CALL
OA.KPASZ
      3780**DCL      4211>>ASSIGN
OA.LPASZ
      3782**DCL      4213>>ASSIGN
OA.LRSZ
      3775**DCL      4205>>ASSIGN
OA.LSSZ
      3777**DCL      4209>>ASSIGN
OA.OAACN
      3735**DCL      4220>>ASSIGN
OA.OARCN
      3737**DCL      4361>>ASSIGN
OA.OASCN
      3736**DCL      4269>>ASSIGN
OA.SCNAM
      3741**DCL      4197<>CALL
OA.SCNAM.EIS.COUNT
      3749**DCL      3786--IMP-SIZ
OA.SSDT
      3760**DCL      4199<>CALL
OA.SSNAM
      3750**DCL      4198<>CALL
OA.SSVDT
      3762**DCL      4200<>CALL
OA.SZISS
      3734**DCL      4193>>ASSIGN
PL6.E3A0      #001=ZIG$V_PRINT File=ZIG$V_PRINT.:ZIC0TSI                         FRI 09/05/97 12:22 Page:134
OA.UWSSZ
      3738**DCL      4195>>ASSIGN
OA.UWSZ
      3776**DCL      4207>>ASSIGN
OA$
      3727**DCL      3728--IMP-PTR  4178<<ASSIGN   4192>>CALL     4193>>ASSIGN   4195>>ASSIGN   4197>>CALL
      4198>>CALL     4199>>CALL     4200>>CALL     4201>>ASSIGN   4203>>ASSIGN   4205>>ASSIGN   4207>>ASSIGN
      4209>>ASSIGN   4211>>ASSIGN   4213>>ASSIGN   4220>>ASSIGN   4269>>ASSIGN   4361>>ASSIGN
OA1$
      3793**DCL      3794--IMP-PTR
PRINT
      4026**PROC     4150--CALL     4151--CALL     4152--CALL     4153--CALL     4154--CALL     4155--CALL
      4156--CALL     4157--CALL     4158--CALL     4164--CALL     4165--CALL     4166--CALL     4167--CALL
      4168--CALL     4169--CALL     4194--CALL     4196--CALL     4202--CALL     4204--CALL     4206--CALL
      4208--CALL     4210--CALL     4212--CALL     4214--CALL     4234--CALL     4236--CALL     4238--CALL
      4240--CALL     4241--CALL     4242--CALL     4243--CALL     4245--CALL     4247--CALL     4249--CALL
      4251--CALL     4253--CALL     4256--CALL     4258--CALL     4259--CALL     4283--CALL     4286--CALL
      4290--CALL     4292--CALL     4332--CALL     4376--CALL     4379--CALL     4381--CALL     4383--CALL
      4385--CALL     4399--CALL     4400--CALL     4403--CALL     4404--CALL     4424--CALL     4426--CALL
PRINT_CD
      4113**PROC     4336--CALL     4350--CALL     4429--CALL     4434--CALL
PRINT_O
      4052**PROC     4162--CALL     4163--CALL     4192--CALL     4197--CALL     4198--CALL     4199--CALL
      4200--CALL     4235--CALL     4239--CALL     4254--CALL     4260--CALL     4261--CALL     4284--CALL
      4316--CALL     4317--CALL     4318--CALL     4321--CALL     4377--CALL     4398--CALL     4420--CALL
      4421--CALL     4422--CALL
PRINT_O_ID
      4076**PROC     4116--CALL     4330--CALL
PRINT_S
      4039**PROC     4142--CALL     4159--CALL     4160--CALL     4161--CALL     4314--CALL
RA.ACRAH
      3812**DCL      4394>>ASSIGN
RA.CHRD
      3817**DCL      4404<>CALL
RA.DEF
      3803**DCL      4398<>CALL
PL6.E3A0      #001=ZIG$V_PRINT File=ZIG$V_PRINT.:ZIC0TSI                         FRI 09/05/97 12:22 Page:135
RA.DEF.TYPE
      3804**DCL      4388>>IF       4388>>IF       4401>>IF
RA.NCHRS
      3816**DCL      4403<>CALL
RA.PGRNG.HIGHDBK
      3815**DCL      4400<>CALL
RA.PGRNG.LOWDBK
      3814**DCL      4399<>CALL
RA.RCRAN
      3809**DCL      4406>>ASSIGN
RA$
      3801**DCL      3802--IMP-PTR  4386<<ASSIGN   4387>>DOWHILE  4388>>IF       4388>>IF       4394>>ASSIGN
      4398>>CALL     4399>>CALL     4400>>CALL     4401>>IF       4403>>CALL     4404>>CALL     4406<<ASSIGN
      4406>>ASSIGN
RC.DEF
      3686**DCL      4377<>CALL
RC.DEF.RNL
      3701**DCL      3711--IMP-SIZ  4123>>CALLBLT  4133>>CALLBLT  4313>>ASSIGN   4371>>CALLBLT
RC.DEF.TYPE
      3687**DCL      4365>>IF
RC.OARCN
      3704**DCL      4457>>ASSIGN
RC.RCFRN
      3710**DCL      4408>>ASSIGN
RC.RCID
      3703**DCL      4374>>ASSIGN
RC.RCRAN
      3702**DCL      4386>>ASSIGN
RC.RCRSN
      3705**DCL      4440>>ASSIGN
RC.RCWSO
      3709**DCL      4380>>ASSIGN
RC.RNAM
      3711**DCL      4123>>CALLBLT  4133>>CALLBLT  4313>>ASSIGN   4371>>CALLBLT
RC.RSIZ
      3706**DCL      4378>>ASSIGN
PL6.E3A0      #001=ZIG$V_PRINT File=ZIG$V_PRINT.:ZIC0TSI                         FRI 09/05/97 12:22 Page:136
RC.RTYP
      3708**DCL      4382>>ASSIGN
RC$
      3684**DCL      3685--IMP-PTR  4312<<ASSIGN   4313>>ASSIGN   4313>>ASSIGN   4361<<ASSIGN   4362>>ASSIGN
      4364>>DOWHILE  4365>>IF       4370>>CALL     4371>>CALLBLT  4371>>CALLBLT  4374>>ASSIGN   4377>>CALL
      4378>>ASSIGN   4380>>ASSIGN   4382>>ASSIGN   4386>>ASSIGN   4408>>ASSIGN   4440>>ASSIGN   4457<<ASSIGN
      4457>>ASSIGN   4458>>ASSIGN
RC1.OTVL
      3721**DCL      4384>>ASSIGN
RC1$
      3716**DCL      3717--IMP-PTR  4362<<ASSIGN   4384>>ASSIGN   4458<<ASSIGN
READ64
      3996**DCL-ENT  4145--CALL     4463--CALL
RECORD_HEADING
      4009**DCL      4363<>CALL
RS.DEF
      3823**DCL      4316<>CALL
RS.DEF.TYPE
      3824**DCL      4300>>IF       4300>>IF       4305>>IF       4445>>IF       4445>>IF       4449>>IF
RS.HPOS
      3874**DCL      4321<>CALL
RS.NPOS
      3847**DCL      3856--REDEF    4317<>CALL
RS.PPOS
      3865**DCL      4318<>CALL
RS.RCRSH
      3845**DCL      4312>>ASSIGN
RS.RCRSN
      3844**DCL      4455>>ASSIGN
RS.RSCDN
      3841**DCL      4341>>ASSIGN
RS.RSSSN
      3842**DCL      4323>>ASSIGN
RS.SCRSH
      3846**DCL      4140>>ASSIGN   4448>>ASSIGN
RS.SCRSN
PL6.E3A0      #001=ZIG$V_PRINT File=ZIG$V_PRINT.:ZIC0TSI                         FRI 09/05/97 12:22 Page:137
      3843**DCL      4353>>ASSIGN
RS$
      3821**DCL      3822--IMP-PTR  4298<<ASSIGN   4299>>DOWHILE  4300>>IF       4300>>IF       4305>>IF
      4309>>CALL     4312>>ASSIGN   4316>>CALL     4317>>CALL     4318>>CALL     4321>>CALL     4323>>ASSIGN
      4341>>ASSIGN   4353<<ASSIGN   4353>>ASSIGN   4440<<ASSIGN   4444>>DOWHILE  4445>>IF       4445>>IF
      4448>>ASSIGN   4449>>IF       4455<<ASSIGN   4455>>ASSIGN
SC.DEF
      3649**DCL      4284<>CALL
SC.DEF.SETT
      3659**DCL      4287>>IF       4287>>IF
SC.DEF.SNL
      3660**DCL      3665--IMP-SIZ  4141>>ASSIGN   4278>>CALLBLT  4452>>CALLBLT
SC.DEF.TYPE
      3650**DCL      4272>>IF
SC.OASCN
      3662**DCL      4355>>ASSIGN
SC.SCID
      3664**DCL      4282>>ASSIGN
SC.SCRSN
      3663**DCL      4298>>ASSIGN
SC.SCWSO
      3661**DCL      4285>>ASSIGN
SC.SNAM
      3665**DCL      4141>>ASSIGN   4278>>CALLBLT  4452>>CALLBLT
SC$
      3647**DCL      3648--IMP-PTR  4269<<ASSIGN   4270>>ASSIGN   4271>>DOWHILE  4272>>IF       4277>>CALL
      4278>>CALLBLT  4278>>CALLBLT  4282>>ASSIGN   4284>>CALL     4285>>ASSIGN   4287>>IF       4287>>IF
      4298>>ASSIGN   4355<<ASSIGN   4355>>ASSIGN   4356>>ASSIGN   4448<<ASSIGN   4452>>CALLBLT  4452>>CALLBLT
SC1.IXID
      3675**DCL      4289>>ASSIGN
SC1.KLNG
      3676**DCL      4291>>ASSIGN
SC1$
      3673**DCL      3674--IMP-PTR  4270<<ASSIGN   4289>>ASSIGN   4291>>ASSIGN   4356<<ASSIGN
SECOND_OCTAL
      4006**DCL      4060<<ASSIGN   4065<<CALLBLT  4069<<CALLBLT  4071>>CALLBLT  4085<<ASSIGN   4090<<CALLBLT
PL6.E3A0      #001=ZIG$V_PRINT File=ZIG$V_PRINT.:ZIC0TSI                         FRI 09/05/97 12:22 Page:138
      4094<<CALLBLT  4098>>CALLBLT
SECOND_PART
      4001**DCL      4032<<CALLBLT  4033<<CALLBLT  4033>>CALLBLT  4034>>CALLBLT  4096<<CALLBLT  4097<<CALLBLT
      4097>>CALLBLT  4098>>CALLBLT  4121<<CALLBLT  4122<<CALLBLT  4122>>CALLBLT  4123>>CALLBLT  4131<<CALLBLT
      4132<<CALLBLT  4132>>CALLBLT  4133>>CALLBLT  4228<>CALL     4229>>CALLBLT  4277<>CALL     4278>>CALLBLT
      4309<>CALL     4310>>CALLBLT  4370<>CALL     4371>>CALLBLT  4415<>CALL     4417>>CALLBLT
SECOND_PART_STR
      4002**DCL      4046<<ASSIGN   4047>>CALLBLT  4141<<ASSIGN   4142<>CALL
SET_HEADING
      4013**DCL      4268<>CALL
SM1$
      3895**DCL      3896--IMP-PTR
SPECIAL_KEY.COUNT
       716**DCL      4174<<ASSIGN
SS.DEF
      3905**DCL      4330<>CALL
SS.DEF.TYPE
      3906**DCL      4138>>IF       4325>>IF
SS.RSCDN
      3910**DCL      4333>>ASSIGN
SS.RSSSH
      3913**DCL      4139>>ASSIGN
SS.RSSSN
      3911**DCL      4339>>ASSIGN
SS.SSH
      3912**DCL      4331>>ASSIGN
SS$
      3903**DCL      3904--IMP-PTR  4323<<ASSIGN   4324>>DOWHILE  4325>>IF       4330>>CALL     4330>>CALL
      4331>>ASSIGN   4333>>ASSIGN   4339<<ASSIGN   4339>>ASSIGN
SSS$
      3485**DCL      4116>>CALL     4117>>ASSIGN   4118>>IF       4120>>ASSIGN   4127>>ASSIGN   4128>>IF
      4130>>ASSIGN   4137>>ASSIGN   4139>>ASSIGN   4140>>ASSIGN   4172<>CALL     4175>>ASSIGN   4178>>ASSIGN
      4220>>ASSIGN   4222>>DOWHILE  4228>>CALL     4262>>ASSIGN   4269>>ASSIGN   4271>>DOWHILE  4277>>CALL
      4298>>ASSIGN   4299>>DOWHILE  4309>>CALL     4312>>ASSIGN   4323>>ASSIGN   4324>>DOWHILE  4330>>CALL
      4333>>ASSIGN   4335>>DOWHILE  4337>>ASSIGN   4339>>ASSIGN   4341>>ASSIGN   4342>>IF       4349>>DOWHILE
      4351>>ASSIGN   4353>>ASSIGN   4355>>ASSIGN   4361>>ASSIGN   4364>>DOWHILE  4370>>CALL     4386>>ASSIGN
PL6.E3A0      #001=ZIG$V_PRINT File=ZIG$V_PRINT.:ZIC0TSI                         FRI 09/05/97 12:22 Page:139
      4387>>DOWHILE  4394>>ASSIGN   4406>>ASSIGN   4408>>ASSIGN   4410>>DOWHILE  4415>>CALL     4427>>ASSIGN
      4428>>DOWHILE  4430>>ASSIGN   4432>>ASSIGN   4433>>DOWHILE  4435>>ASSIGN   4437>>ASSIGN   4440>>ASSIGN
      4444>>DOWHILE  4448>>ASSIGN   4455>>ASSIGN   4457>>ASSIGN
START
      3998**DCL      4034>>CALLBLT  4047>>CALLBLT  4071>>CALLBLT  4098>>CALLBLT  4149<<ASSIGN   4191<<ASSIGN
      4232<<ASSIGN   4281<<ASSIGN   4308<<ASSIGN   4315<<ASSIGN   4329<<ASSIGN   4334<<ASSIGN   4375<<ASSIGN
      4393<<ASSIGN
STR IN PROCEDURE GET_NUM
      4105**DCL      4104--PROC     4107<<CALLBLT  4108<<CALLBLT  4108>>CALLBLT
STR IN PROCEDURE PRINT_S
      4041**DCL      4039--PROC     4045>>CALLBLT  4046>>ASSIGN
SUBLST
       696**DCL-ENT  4148--CALL     4219--CALL     4268--CALL     4363--CALL
SUBSCHEMA_KEY
       714**DCL       715--REDEF    4173<<ASSIGN
T3PTR$
      4018**DCL      4137<<ASSIGN   4138>>IF       4139<<ASSIGN   4139>>ASSIGN   4140<<ASSIGN   4140>>ASSIGN
      4141>>ASSIGN   4141>>ASSIGN
TEMP_FR$
      4017**DCL      4117<<ASSIGN   4118>>IF       4120>>ASSIGN   4123>>CALLBLT  4123>>CALLBLT  4127<<ASSIGN
      4128>>IF       4130>>ASSIGN   4133>>CALLBLT  4133>>CALLBLT
TEMP_RC$
      4016**DCL      4120<<ASSIGN   4123>>CALLBLT  4123>>CALLBLT  4130<<ASSIGN   4133>>CALLBLT  4133>>CALLBLT
TEMP_STR
      4015**DCL      4313<<ASSIGN   4314<>CALL
TYPE_RS
      4014**DCL      4306<<ASSIGN   4307<<ASSIGN   4310>>CALLBLT  4319>>IF       4324>>DOWHILE  4342>>IF
      4346>>CALLBLT  4349>>DOWHILE  4450<<ASSIGN   4451<<ASSIGN   4452>>CALLBLT
WRIT64
      4021**DCL-ENT  4465--CALL
ZIG$G_DYN_MEM_6
       689**DCL-ENT  4172--CALL
ZIG$SS_RVAR
       712**DCL-ENT  4177--CALL
ZIG$SS_WVAR
       713**DCL-ENT  4464--CALL
