
PL6.E3A0      #001=ZII$BLDNAM File=ZII$BLDNAM.:ZIC0TSI                           FRI 09/05/97 12:25 Page:1
        1        1        /*M*                           I-D-S/II    INTERFACE MODULE*/
        2        2        /*T***********************************************************/
        3        3        /*T*                                                         */
        4        4        /*T* Copyright (c) Bull HN Information Systems Inc., 1997    */
        5        5        /*T*                                                         */
        6        6        /*T***********************************************************/
        7        7        /*P*
        8        8          NAME:  ZII$BLDNAM
        9        9          PURPOSE: This mod will build  6 tables needed by the APL and IDP
       10       10                   processers . The tables are:
       11       11                       IA - needed  by IDS
       12       12                       UWA - descriptions of all elements in a given subschema
       13       13                       RVA - reference vector addresses used to locate elements in the UWA
       14       14                NAM1 - table of all elements in the subschema file with ptrs to  their desc.
       15       15                       NAM2 - table  of decriptors used in describing elements in NAM1
       16       16                               handling if present
       17       17                  INPUTS:
       18       18                      MEM_  = vector of memory allocated to build tables
       19       19                  OUTPUTS:
       20       20                      UWA_ = vector of the UWA table
       21       21                      RVA_ = vector of the RVA table
       22       22                      IA_  = vector of the IA table
       23       23                      NAM1_ = vector of  the NAM1 table
       24       24                      NAM2 = vector of the NAM2 table
       25       25        */
       26       26        /**********************************************************************/
       27       27        ZII$BLDNAM: PROC (MEM_,UWA_,RVA_,IA_,NAM1_,NAM2_) ALTRET AVOID($PR5,$PR6,$PR7);
       28       28        %INCLUDE CP_6;
       29      109        %INCLUDE CP_6_SUBS;
       30      649        /*****************PARAMETERS*****************/
       31      650        %VLP_VECTOR(FPTN=MEM_,STCLASS=);
       32      665        %VLP_VECTOR(FPTN=UWA_,STCLASS=);
       33      680        %VLP_VECTOR(FPTN=RVA_,STCLASS=);
       34      695        %VLP_VECTOR(FPTN=IA_,STCLASS=);
       35      710        %VLP_VECTOR(FPTN=NAM1_,STCLASS=);
       36      725        %VLP_VECTOR(FPTN=NAM2_,STCLASS=);
       37      740        /**/
PL6.E3A0      #001=ZII$BLDNAM File=ZII$BLDNAM.:ZIC0TSI                           FRI 09/05/97 12:25 Page:2
       38      741        /****************BASED DCLS***************/
       39      742    1   DCL 1 SEG BASED(MEM_.PTR$),
       40      743    1         2 * CHAR(1) UNAL,
       41      744    1         2 * CHAR(MEM_.W1.VSIZE#) UNAL;
       42      745        /****************AUTO DCLS****************/
       43      746    1   DCL I UBIN(36); /*Do varible*/
       44      747    1   DCL SEG_SIZ UBIN(36) ALIGNED;
       45      748    1   DCL NF_SIZ REDEF SEG_SIZ UBIN(36);
       46      749    1   DCL SDS_SIZ REDEF SEG_SIZ UBIN(36);
       47      750    1   DCL NFE_SIZ REDEF SEG_SIZ UBIN(36);
       48      751        /****************EXT DCLS**************/
       49      752    1   DCL TNAM2$ PTR EXT;
       50      753    1   DCL HSH_VAL UBIN(36) ALIGNED EXT;
       51      754    1   DCL STK_IDX UBIN(36) EXT;
       52      755    1   DCL 1 LVL_STK EXT,
       53      756    1         2 * (0:49) UBIN(36) UNAL;
       54      757    1   DCL REC$ PTR EXT;
       55      758    1   DCL I_O_BUF (0:1) CHAR(128) EXT; /*Read into this buffer 1 blk at a time*/
       56      759    1   DCL I_O_IDX UBIN(36) EXT;
       57      760    1   DCL PRC_CAL UBIN(36) EXT;
       58      761    1   DCL ERROR_CODE UBIN(36) EXT;
       59      762    1   DCL SUBSCH_CON_BLK (0:63) UBIN(36) EXT;
       60      763    1   DCL RVA_SIZ UBIN(36) EXT;
       61      764    1   DCL IA_SIZ UBIN(36) EXT;
       62      765    1   DCL SUB_CONBLK$ PTR EXT;
       63      766    1   DCL 1 SUBSCH EXT,
       64      767    1         2 NAME ,
       65      768    1           3 CNT UBIN(9) UNAL,
       66      769    1           3 TEXT CHAR(32) UNAL,
       67      770    1         2 DCB# UBIN(18) ALIGNED;
       68      771    1   DCL ZI$ENTRY_COUNT UBIN(36) EXTROOT;
       69      772    1   DCL ZI$KEY_NUMBER UBIN(36) EXTROOT;
       70      773    1   DCL S_SW UBIN WORD EXTROOT;
       71      774    1   DCL R_SW UBIN WORD EXTROOT;
       72      775    1   DCL A_SW UBIN WORD EXTROOT;
       73      776    1   DCL K_SW UBIN WORD EXTROOT;
       74      777        /*****************ENTRY DCLS***************/
PL6.E3A0      #001=ZII$BLDNAM File=ZII$BLDNAM.:ZIC0TSI                           FRI 09/05/97 12:25 Page:3
       75      778    1   DCL ZII$ADD_KEYWORDS ENTRY ALTRET;
       76      779    1   DCL ZII$BLD_NAM ENTRY ALTRET;
       77      780    1   DCL ZII$BLD_IA ENTRY ALTRET;
       78      781    1   DCL ZII$READ_SS ENTRY ALTRET;
       79      782    1   DCL ZII$ADD_NAM ENTRY ALTRET;
       80      783    1   DCL ZII$FDDESC ENTRY(5) ALTRET;
       81      784    1   DCL ZII$WRT_COMP_REC ENTRY ALTRET;
       82      785        /*****************INCLUDE FILES*************/
       83      786        %INCLUDE ZI$STRUCTS;
       84      858        %UWA1;
       85      881        %NAM1;
       86      910        %NAM2;
       87      924        %INCLUDE ZI_SUB_LANG;
       88     2639        %CONTROL_BLOCK (STCLASS="BASED(SUB_CONBLK$)");
       89     2747        %DESC_TYPE_9 (STCLASS="BASED(REC$)");
       90     2924        %INCLUDE ZI$DESC;
       91     3774        %DSC_AREA (STCLASS="EXT");
       92     3796        %DSC_REC (STCLASS="EXT");
       93     3830        %DSC_FLD (STCLASS="EXT");
       94     3945        %DSC_SET (STCLASS="EXT");
       95     3987        %DSC_KEY (STCLASS="EXT");
       96     3997        %LIST;
       97     3998        %DSC_PARAM (STCLASS="EXT");
              3999    1   DCL DP$ PTR STCLASS ALIGNED;
              4000    1   DCL 1 DSC_PARAM BASED(DP$) ALIGNED,
              4001    1         2 NAM_IDX UBIN(18) UNAL, /*Index inot NMA1 for the data_base_parameter  */
              4002    1         2 RVA_OFF         UBIN(18) UNAL,  /*Index into the RVA for this element */
              4003    1         2 UWA_OFF UBIN(18) UNAL, /*Word offset into UWA for the db parameter    */
              4004    1         2 *               UBIN(18) UNAL,
              4005    1         2 * (0:1) UBIN(36) UNAL,
              4006    1         2 BYT_NIB BIT(1) UNAL,            /* 1=NIB, 0=BYTE                      */
              4007    1         2 *    BIT(1) UNAL,
              4008    1         2 TYPE UBIN(16) UNAL,             /* DATA TYPE OF PARAM - SAME AS FIELD */
              4009    1         2 *   UBIN(18)  UNAL,
              4010    1         2 LEN UBIN(36) UNAL,              /* LEN OF PARAM                       */
              4011    1         2 * UBIN(36) UNAL,
              4012    1         2 RP_DSC$         PTR,  /*Ptr to the Rec/Param desc for this parameter  */
PL6.E3A0      #001=ZII$BLDNAM File=ZII$BLDNAM.:ZIC0TSI                           FRI 09/05/97 12:25 Page:4
              4013    1         2 LLIST$          PTR;            /*Ptr to next desc in link list       */
       98     4015        %PLIST;
       99     4016        %DSC_DESC (STCLASS="EXT");
      100     4024        %DSC_RFK (STCLASS="EXT");
      101     4040        %DSC_RA (STCLASS="EXT");
      102     4055        %DSC_RP (STCLASS="EXT");
      103     4065        %DSC_RFS (STCLASS="EXT");
      104     4110        %TYPE_SUBS;
      105     4120        %PROC_SUBS;
      106     4127        %INCLUDE ZI$USER;
      107     4272        %IA (STCLASS="EXT");
      108     4321        %RVA (STCLASS="EXT");
      109     4334        %INCLUDE ZI_ERRORS_SUBS;
      110     4854        %FPT_OPEN(FPTN=OPEN_FPT,FUN=IN,ORG=KEYED,ACS=DIRECT,ASN=FILE,SETDCB=YES,SHARE=ALL);
      111     4963        %FPT_CLOSE(FPTN=CLOSE_FPT);
      112     5005        /******************Program Procedure******************/
      113     5006    1       ERROR_CODE=0; /*Initailize the error code upon 1st entering ZII$BLDNAM*/
      114     5007    1       ZI$ENTRY_COUNT=0;
      115     5008        /* ZI$ENTRY_COUNT is the external count of the # of elements in the
      116     5009           NAM1 table minus 1, or the last usable index of NAM1. */
      117     5010    1       S_SW=0;
      118     5011    1       R_SW=0;
      119     5012    1       A_SW=0;
      120     5013    1       K_SW=0;
      121     5014    1       SEG='0'B; /*Zero out the segment  gotten for dump
      122     5015         readability purposes only */
      123     5016    1       LVL_STK='0'B; /*Zero out the level tracker stack used in ZII$BLD_NAM*/
      124     5017    1       STK_IDX = 0; /*Initialize the level stack index for use in ZII$BLD_NAM*/
      125     5018         /*Open the subschema file to retrieve info
      126     5019            for building the tables only*/
      127     5020    1       OPEN_FPT.V.DCB#=SUBSCH.DCB#; /*Set up the  DCB */
      128     5021    1       CALL M$OPEN(OPEN_FPT) ALTRET(ER_OPEN);
      129     5022        /****************************************************************************/
      130     5023        /*                Build the vectors to return to apl and idp  for their use
              5023                 */
      131     5024        /****************************************************************************/
      132     5025    1       IF PRC_CAL ~= #IDP THEN /*Are we being called from  IDP ?? */
PL6.E3A0      #001=ZII$BLDNAM File=ZII$BLDNAM.:ZIC0TSI                           FRI 09/05/97 12:25 Page:5
      133     5026    2       DO; /*NO.... */
      134     5027    2           UWA$=MEM_.PTR$; /*Set up the UWA vector to return back to */
      135     5028    2           UWA#=(CONTROL.UWA_SIZE-48)*4;
      136     5029    2           UWA_=VECTOR(UWA); /*Uwa  is the 1st table built in memory */
      137     5030    2           UWA_.W1.VSIZE#=UWA_SIZ*4-1;
      138     5031    2           RVA$=PINCRW(UWA$,CONTROL.UWA_SIZE); /*Set up the  RVA vector */
      139     5032    2           END;
      140     5033    2       ELSE DO; /*We were called from IDP */
      141     5034        /*             IDP  is a special case because they want the UWA to be in their work
              5034        space
      142     5035              ,so they will pass a UWa vector instead of me returning one to them         */
      143     5036    2           UWA$=UWA_.PTR$; /*Set up the UWA ptr from the vector they passed*/
      144     5037    2           UWA#=(CONTROL.UWA_SIZE -48)*4;
              5037                    /*Get the size from the subschema control blk*/
      145     5038    2           RVA$=MEM_.PTR$;
      146     5039    2           END;
      147     5040    1       RVA_=VECTOR(RVA); /*Rva is the 2nd table built in memory */
      148     5041    1       RVA_.W1.VSIZE#=RVA_SIZ*4-1;
      149     5042    1       IA$=PINCRW(RVA$,RVA_SIZ); /*Set up the IA vector */
      150     5043    1       IA_=VECTOR(IA); /*Ia is the 3rd table built in memory */
      151     5044    1       NAM1$=PINCRW(IA$,IA_SIZ); /*Ia is a constant size of 46 words */
      152     5045    1       NAM1_=VECTOR(NAM1); /*NAM1 is the 4th table built in memory */
      153     5046    1       NAM1_.W1.VSIZE#=NAM1_SIZ*4-1;
      154     5047    1       NAM2$=PINCRW(NAM1$,NAM1_SIZ); /*Set up the NAM" vector */
      155     5048    1       DESC#=(NAM2_SIZ-#ENTRY)*4; /*Size of the descriptor portion of NAM2 */
      156     5049    1       NAM2_=VECTOR(NAM2); /*NAM2 is the 5th table built in memory */
      157     5050    1       NAM2_.W1.VSIZE#=NAM2_SIZ*4-1;
      158     5051    2       DO I=0 TO #ENTRY-1 BY 1; /* Initialize the ptr array in NAM2 */
      159     5052    2           NAM2.LLIST$(I)=ADDR(NIL);
      160     5053    2           END;
      161     5054        /**/
      162     5055    1       TNAM2$=ADDR(NAM2.LLIST$(#ENTRY-#DSC_SIZ));
      163     5056         /* Init TNAM2$ to point #DSC_SIZ (9) words back from where
      164     5057            table descriptors are to be stored so that when we
      165     5058            PINCRW forward to store the 1st one, we'll be in the
      166     5059            right place. */
      167     5060        /*   Add NULL element for "FIND ANY", etc.
PL6.E3A0      #001=ZII$BLDNAM File=ZII$BLDNAM.:ZIC0TSI                           FRI 09/05/97 12:25 Page:6
      168     5061             The type code for the NULL element in the RVA is 4.   */
      169     5062    1       RVA.RVE.T(0)=4;
      170     5063    1       RVA.W1.COUNT=1; /*Initialize the rva count */
      171     5064         /**********************************************************************************
              5064        *********
      172     5065
      173     5066            SUBSCHEMA   NAME     SEGMENT    SEARCH
      174     5067
      175     5068         *****************************************************************************/
      176     5069    1       I_O_IDX=2; /*Init I_O_IDX */
      177     5070    1       ZI$KEY_NUMBER=(CONTROL.FIRST_NF_RECORD/2)-1;
      178     5071    1       CALL ZII$READ_SS ALTRET(ER_CHKRNG);
      179     5072    2       DO WHILE (SUBSTR(I_O_BUF(I_O_IDX),0,12)~='/*/*/*/*/*/*');
              5072                /*Test to see if we are at the
      180     5073         end of the  NAME SEGMENT */
      181     5074    2           REC$=ADDR(I_O_BUF(I_O_IDX)); /*Set up the ptr to the record in the  bloc */
      182     5075    2           IF DESC_TYPE_9.TYPE = 9 THEN /*Is this a type 9 descriptor */
      183     5076    2               CALL ZII$BLD_NAM ALTRET(ER_BLD_NAM);
              5076                        /*YES..  Build entry in NAM1 and NAM2 */
      184     5077    2           I_O_IDX=I_O_IDX+1; /*Increment I_O_IDX */
      185     5078    2           CALL ZII$READ_SS ALTRET(ER_CHKRNG);
      186     5079    2           END;
      187     5080        /***********************************************************************************
              5080        ************
      188     5081
      189     5082                         SUBSCHEMA  DESCRIPTOR SEGMENT SEARCH
      190     5083
      191     5084        ******************************************************************************/
      192     5085    1       I_O_IDX=2;
      193     5086    1       ZI$KEY_NUMBER=(CONTROL.FIRST_SDS_RECORD/2)-1;
      194     5087    1       CALL ZII$READ_SS ALTRET(ER_CHKRNG);
      195     5088    2       DO WHILE (SUBSTR(I_O_BUF(I_O_IDX),0,12) ~='/*/*/*/*/*/*');
              5088                /*Chk for end of DESC. SEG */
      196     5089    2           REC$=ADDR(I_O_BUF(I_O_IDX));
      197     5090    2           CALL ZII$ADD_NAM ALTRET(ER_ADD_NAM);
              5090                    /*Add info to NAM2 table for this descriptor elem*/
      198     5091    2           I_O_IDX=I_O_IDX+1; /*Increment I_O_IDX */
PL6.E3A0      #001=ZII$BLDNAM File=ZII$BLDNAM.:ZIC0TSI                           FRI 09/05/97 12:25 Page:7
      199     5092    2           CALL ZII$READ_SS ALTRET(ER_CHKRNG);
      200     5093    2           END;
      201     5094        /***********************************************************************************
              5094        ***********
      202     5095
      203     5096                        SUBSCHEMA NAME EXTENTION SEGMENT SEARCH
      204     5097
      205     5098        ******************************************************************************/
      206     5099    1       I_O_IDX=2;
      207     5100    1       ZI$KEY_NUMBER=(CONTROL.FIRST_NFE_RECORD/2)-1;
      208     5101    1       CALL ZII$READ_SS ALTRET(ER_CHKRNG);
      209     5102    1       I_O_IDX=MOD(CONTROL.FIRST_NFE_RECORD,2);
      210     5103    1       I=0; /*Initialize I */
      211     5104    2       DO WHILE(I <= 2 ); /*This test  is for the  number of
      212     5105         encountered...should be 3 */
      213     5106    2           REC$=ADDR(I_O_BUF(I_O_IDX)); /*Set up record ptr */
      214     5107    2           IF (SUBSTR(I_O_BUF(I_O_IDX),0,12) = '/*/*/*/*/*/*') THEN
      215     5108    2               I=I+1;
      216     5109    2           ELSE IF DESC_TYPE_9.TYPE = 9 THEN /*Is this a type 9 descriptor / */
      217     5110    3               DO; /*YES..must be a descriptor for a  parameter in subsch*/
      218     5111    3                   NAM1_IDX=NAM1_IDX+1; /*Put  info into NAM1 table */
      219     5112    3                   NAM1.NAME.CNT(NAM1_IDX)=DESC_TYPE_9.NAME_SIZE;
      220     5113    3                   NAM1.NAME.TEXT(NAM1_IDX)=DESC_TYPE_9.NAME;
      221     5114    3                   NAM1.TYPE(NAM1_IDX)=#PARAM;
      222     5115    3                   CALL ZII$FDDESC(NAM1.NAME.TEXT(NAM1_IDX),NAM1.TYPE(NAM1_IDX),DD$,
              5115                            #STORE,) ALTRET(ER_FDDESC);
      223     5116    3                   NAM1.DESC$(NAM1_IDX)=DD$;
      224     5117    3                   DP$=DD$;
      225     5118    3                   DSC_PARAM.NAM_IDX=NAM1_IDX;
      226     5119    3                   DSC_PARAM.RVA_OFF=0;
              5119                            /*There's no RVA offset for  data-base parameters*/
      227     5120    3                   DSC_PARAM.UWA_OFF=DESC_TYPE_9.OFFSET;/*Get UWA offset */
      228     5121    3                   DSC_PARAM.RP_DSC$=ADDR(NIL);
      229     5122    3                   DSC_PARAM.LLIST$=ADDR(NIL);
      230     5123    3                   IF DESC_TYPE_9.COMP OR DESC_TYPE_9.COMP_4 THEN
      231     5124    4                   DO;
      232     5125    4                       IF DESC_TYPE_9.PIC_HAS_S THEN
PL6.E3A0      #001=ZII$BLDNAM File=ZII$BLDNAM.:ZIC0TSI                           FRI 09/05/97 12:25 Page:8
      233     5126    4                           DSC_PARAM.TYPE = 4;
      234     5127    4                       ELSE
      235     5128    4                           DSC_PARAM.TYPE = 3;
      236     5129    4                       END;
      237     5130    3                   ELSE
      238     5131    3                       IF DESC_TYPE_9.COMP_3 THEN
      239     5132    4                       DO;
      240     5133    4                           IF DESC_TYPE_9.PIC_HAS_S THEN
      241     5134    4                               DSC_PARAM.TYPE = 5;
      242     5135    4                           ELSE
      243     5136    4                               DSC_PARAM.TYPE = 3;
      244     5137    4                           END;
      245     5138    3                       ELSE
      246     5139    3                           IF DESC_TYPE_9.ALPHANUM OR DESC_TYPE_9.ALPHABETIC THEN
      247     5140    3                               DSC_PARAM.TYPE = 0;
      248     5141    3                           ELSE
      249     5142    3                               IF DESC_TYPE_9.DISPLAY THEN
      250     5143    4                               DO;
      251     5144    4                                   IF DESC_TYPE_9.PIC_HAS_S THEN
      252     5145    5                                   DO;
      253     5146    5                                       IF DESC_TYPE_9.SIGN_TYP = '001'B THEN DSC_PARAM.
              5146                                                TYPE = 10;
      254     5147    5                                       ELSE
      255     5148    5                                           IF DESC_TYPE_9.SIGN_TYP = '010'B THEN
              5148                                                    DSC_PARAM.TYPE = 9;
      256     5149    5                                           ELSE
      257     5150    5                                               IF DESC_TYPE_9.SIGN_TYP = '011'B THEN
              5150                                                        DSC_PARAM.TYPE = 8;
      258     5151    5                                               ELSE
      259     5152    5                                             IF DESC_TYPE_9.SIGN_TYP = '100'B THEN
              5152                                                      DSC_PARAM.TYPE = 7;
      260     5153    5                                       END;
      261     5154    4                                   ELSE
      262     5155    4                                       DSC_PARAM.TYPE = 6;
      263     5156    4                                   END;
      264     5157    3                               ELSE
      265     5158    3                                   IF DESC_TYPE_9.F_DBK THEN DSC_PARAM.TYPE = 1;
PL6.E3A0      #001=ZII$BLDNAM File=ZII$BLDNAM.:ZIC0TSI                           FRI 09/05/97 12:25 Page:9
      266     5159    3                                   ELSE
      267     5160    3                                       IF DESC_TYPE_9.DB_KEY THEN DSC_PARAM.TYPE = 2;
      268     5161    3                                       ELSE
      269     5162    3                                           IF DESC_TYPE_9.COMP_1 THEN DSC_PARAM.TYPE =
              5162                                                    11;
      270     5163    3                                           ELSE
      271     5164    3                                               IF DESC_TYPE_9.COMP5A AND DESC_TYPE_9.
              5164                                                        COMP_2 THEN
      272     5165    3                                                   DSC_PARAM.TYPE = 13;
      273     5166    3                                               ELSE
      274     5167    3                                                   IF DESC_TYPE_9.COMP5A AND
              5167                                                            DESC_TYPE_9.COMP_3 THEN
      275     5168    3                                                       DSC_PARAM.TYPE = 14;
      276     5169    3                                                   ELSE
      277     5170    3                                                    IF DESC_TYPE_9.COMP_2 THEN
              5170                                                             DSC_PARAM.TYPE = 12;
      278     5171    3                                                       ELSE
      279     5172    3                                                IF DESC_TYPE_9.COMPLEX THEN DSC_PARAM.
              5172                                                         TYPE = 15;
      280     5173    3                                                           ELSE
      281     5174    3                                           IF DESC_TYPE_9.D_COMPLEX THEN DSC_PARAM.TYPE
              5174                                                    = 16;
      282     5175    3                                                               ELSE
      283     5176    3                                            IF DESC_TYPE_9.LOGICAL THEN DSC_PARAM.TYPE
              5176                                                     = 17;
      284     5177
      285     5178    3                   IF DESC_TYPE_9.COMP_4 OR DESC_TYPE_9.COMP OR
      286     5179    3                      (DESC_TYPE_9.COMP_3 AND ~DESC_TYPE_9.COMP5A) THEN
      287     5180    3                       DSC_PARAM.BYT_NIB = '1'B;
      288     5181    3                   ELSE
      289     5182    3                       DSC_PARAM.BYT_NIB = '0'B;
      290     5183    3                   DSC_PARAM.LEN = DESC_TYPE_9.LENGTH;
      291     5184    3                   END;
      292     5185    2               ELSE CALL ZII$ADD_NAM ALTRET(ER_ADD_NAM);
              5185                        /*Not a type_9 so just add info to NAM2*/
      293     5186    2           IF I<=2 THEN
      294     5187    3           DO;
PL6.E3A0      #001=ZII$BLDNAM File=ZII$BLDNAM.:ZIC0TSI                           FRI 09/05/97 12:25 Page:10
      295     5188    3               I_O_IDX=I_O_IDX+1; /*Increment I_O_IDX */
      296     5189    3               CALL ZII$READ_SS ALTRET(ER_CHKRNG);
      297     5190    3               END;
      298     5191    2           END;
      299     5192    1       CALL ZII$BLD_IA ALTRET(ER_BLD_IA); /*Go build the information area */
      300     5193    1       IF PRC_CAL = #APL THEN CALL ZII$ADD_KEYWORDS ALTRET(ER_ADD_KEYWORDS);
      301     5194    1       CLOSE_FPT.V.DCB#=SUBSCH.DCB#;
      302     5195    1       CALL M$CLOSE (CLOSE_FPT) ALTRET(ER_CLOSE);
      303     5196    1       CALL ZII$WRT_COMP_REC ALTRET(ER_WRT_COMP_REC);
      304     5197    1   RET:
      305     5198    1       ZI$ENTRY_COUNT=NAM1_IDX;
      306     5199    1       RETURN;
      307     5200    1   ER_CHKRNG: ;
      308     5201    1   ER_BLD_NAM:;
      309     5202    1   ER_BLD_IA: ;
      310     5203    1   ER_ADD_NAM:;
      311     5204    1   ER_ADD_KEYWORDS:;
      312     5205    1       GOTO COM_ERR;
      313     5206    1   ER_OPEN: ;
      314     5207        /***************************************************************************/
      315     5208        /*E*
      316     5209              ERROR: ZII-#OPNER-C
      317     5210        MESSAGE: Cannot open the subschema file %U1.
      318     5211        */
      319     5212        /***************************************************************************/
      320     5213    1       ERROR_CODE=#OPNER;
      321     5214    1       GOTO COM_ERR;
      322     5215    1   ER_CLOSE:
      323     5216        /****************************************************************/
      324     5217        /*E*
      325     5218            ERROR: ZII-#CLOSE_ER-C
      326     5219            MESSAGE: Error in closing the subschema file.
      327     5220        */
      328     5221        /***************************************************************************/
      329     5222    1       ERROR_CODE=#CLOSE_ER;
      330     5223    1       GOTO COM_ERR;
      331     5224    1   ER_FDDESC:;
PL6.E3A0      #001=ZII$BLDNAM File=ZII$BLDNAM.:ZIC0TSI                           FRI 09/05/97 12:25 Page:11
      332     5225        /***************************************************************************/
      333     5226        /*
      334     5227           ERROR: ZII-#BADDESC-C
      335     5228           MESSAGE: Cannot find  NAM2 descriptor for subschema %U1.
      336     5229        */
      337     5230        /***************************************************************************/
      338     5231    1       ERROR_CODE=#BADDESC;
      339     5232    1       GOTO COM_ERR;
      340     5233    1   ER_WRT_COMP_REC:
      341     5234    1       ALTRETURN;
      342     5235    1   COM_ERR: ;
      343     5236    1       CLOSE_FPT.V.DCB#=SUBSCH.DCB#;
      344     5237    1       CALL M$CLOSE(CLOSE_FPT);
      345     5238    1       ALTRETURN;
      346     5239    1   END ZII$BLDNAM;
      347     5240        %EOD;

PL6.E3A0      #001=ZII$BLDNAM File=ZII$BLDNAM.:ZIC0TSI                           FRI 09/05/97 12:25 Page:12
--  Include file information  --

   ZI_ERRORS_SUBS.:ZIC0TOU  is referenced.
   ZI$USER.:ZIC0TOU  is referenced.
   ZI$DESC.:ZIC0TOU  is referenced.
   ZI_SUB_LANG.:ZIC0TOU  is referenced.
   ZI$STRUCTS.:ZIC0TOU  is referenced.
   CP_6_SUBS.:LIB_E05  is referenced.
   CP_6.:LIB_E05  cannot be made into a system file and is referenced.
   B$JIT_C.:E05TOU  was found in the system file and is never referenced.
   CP_6_C.:E05TOU  was found in the system file and is referenced.
      No diagnostics issued in procedure ZII$BLDNAM.

   Procedure ZII$BLDNAM requires 572 words for executable code.
   Procedure ZII$BLDNAM requires 16 words of local(AUTO) storage.

PL6.E3A0      #001=ZII$BLDNAM File=ZII$BLDNAM.:ZIC0TSI                           FRI 09/05/97 12:25 Page:13

 Object Unit name= ZII$BLDNAM                                 File name= ZII$BLDNAM.:ZIC0TOU
 UTS= SEP 05 '97 12:25:32.28 FRI                              Compiler= PL-6/E31         Sev=      00
 SharedLib= :SHARED_SYSTEM                                    Alt SharedLib=


    ****  Control sections  ****

 Sect   Type Bound  Init  Size OctSiz  Section name(segment info)
    0   DCB   even  none     0      0  M$UC
    1  LblCom even  none     1      1  TNAM2$
    2  LblCom even  none     1      1  HSH_VAL
    3  LblCom even  none     1      1  STK_IDX
    4  LblCom even  none    50     62  LVL_STK
    5  LblCom even  none     1      1  REC$
    6  LblCom even  none    64    100  I_O_BUF
    7  LblCom even  none     1      1  I_O_IDX
    8  LblCom even  none     1      1  PRC_CAL
    9  LblCom even  none     1      1  ERROR_CODE
   10  LblCom even  none    64    100  SUBSCH_CON_BLK
   11  LblCom even  none     1      1  RVA_SIZ
   12  LblCom even  none     1      1  IA_SIZ
   13  LblCom even  none     1      1  SUB_CONBLK$
   14  LblCom even  none    10     12  SUBSCH
   15  RtLbCm even  none     1      1  ZI$ENTRY_COUNT
   16  RtLbCm even  none     1      1  ZI$KEY_NUMBER
   17  RtLbCm even  none     1      1  S_SW
   18  RtLbCm even  none     1      1  R_SW
   19  RtLbCm even  none     1      1  A_SW
   20  RtLbCm even  none     1      1  K_SW
   21  LblCom even  none     1      1  UWA$
   22  LblCom even  none     1      1  UWA_SIZ
   23  LblCom even  none     1      1  UWA#
   24  LblCom even  none     1      1  NAM1$
   25  LblCom even  none     1      1  NAM1_SIZ
   26  LblCom even  none     1      1  NAM1_IDX
   27  LblCom even  none     1      1  NAM2$
   28  LblCom even  none     1      1  NAM2_SIZ
PL6.E3A0      #001=ZII$BLDNAM File=ZII$BLDNAM.:ZIC0TSI                           FRI 09/05/97 12:25 Page:14
   29  LblCom even  none     1      1  DESC#
   30  LblCom even  none     1      1  DA$
   31  LblCom even  none     1      1  DR$
   32  LblCom even  none     1      1  DF$
   33  LblCom even  none     1      1  DS$
   34  LblCom even  none     1      1  DK$
   35  LblCom even  none     1      1  DP$
   36  LblCom even  none     1      1  DD$
   37  LblCom even  none     1      1  DRFK$
   38  LblCom even  none     1      1  DRA$
   39  LblCom even  none     1      1  DRP$
   40  LblCom even  none     1      1  DRFS$
   41  LblCom even  none     1      1  IA$
   42  LblCom even  none     1      1  RVA$
   43   Data  even  none    88    130  ZII$BLDNAM
   44  RoData even  UTS      3      3  ZII$BLDNAM
   45   Proc  even  none   572   1074  ZII$BLDNAM
   46  RoData even  none    20     24  ZII$BLDNAM

    ****  Entry defs  ****

                              Check   Calling
                             calling  sequence
  Sect OctLoc Primary Altret sequence   type   Parms  Name
    45      0   yes    yes     yes      XStd       6  ZII$BLDNAM
PL6.E3A0      #001=ZII$BLDNAM File=ZII$BLDNAM.:ZIC0TSI                           FRI 09/05/97 12:25 Page:15

  ****  Entry refs  ****

         Check        Calling
        calling       sequence
Altret sequence SRef   type   Args  Name
 yes     yes           XStd      0 ZII$READ_SS
 yes     yes           XStd      0 ZII$BLD_NAM
 yes     yes           XStd      5 ZII$FDDESC
 yes     yes           XStd      0 ZII$BLD_IA
 yes     yes           XStd      0 ZII$ADD_KEYWORDS
 yes     yes           XStd      0 ZII$ADD_NAM
 yes     yes           XStd      0 ZII$WRT_COMP_REC
                       nStd      0 X66_AUTO_N
                       nStd      0 X66_ARET
                       nStd      0 X66_AALT

  ****  Data refs  ****

  Flags:  r = read only, s = secondary
Flgs Name                             Flgs Name                             Flgs Name
     M$UC

  ****  Segment refs  ****

  Flags:  r = read only, s = secondary
Flgs Name                             Flgs Name                             Flgs Name
     ISSID                                 NULLSID
PL6.E3A0      #001=ZII$BLDNAM File=ZII$BLDNAM.:ZIC0TSI                           FRI 09/05/97 12:25 Page:16


        1        1        /*M*                           I-D-S/II    INTERFACE MODULE*/
        2        2        /*T***********************************************************/
        3        3        /*T*                                                         */
        4        4        /*T* Copyright (c) Bull HN Information Systems Inc., 1997    */
        5        5        /*T*                                                         */
        6        6        /*T***********************************************************/
        7        7        /*P*
        8        8          NAME:  ZII$BLDNAM
        9        9          PURPOSE: This mod will build  6 tables needed by the APL and IDP
       10       10                   processers . The tables are:
       11       11                       IA - needed  by IDS
       12       12                       UWA - descriptions of all elements in a given subschema
       13       13                       RVA - reference vector addresses used to locate elements in the UWA
       14       14                NAM1 - table of all elements in the subschema file with ptrs to their desc.
       15       15                       NAM2 - table  of decriptors used in describing elements in NAM1
       16       16                               handling if present
       17       17                  INPUTS:
       18       18                      MEM_  = vector of memory allocated to build tables
       19       19                  OUTPUTS:
       20       20                      UWA_ = vector of the UWA table
       21       21                      RVA_ = vector of the RVA table
       22       22                      IA_  = vector of the IA table
       23       23                      NAM1_ = vector of  the NAM1 table
       24       24                      NAM2 = vector of the NAM2 table
       25       25        */
       26       26        /**********************************************************************/
       27       27        ZII$BLDNAM: PROC (MEM_,UWA_,RVA_,IA_,NAM1_,NAM2_) ALTRET AVOID($PR5,$PR6,$PR7);

     27 45 000000   000000 700200 xent  ZII$BLDNAM   TSX0  ! X66_AUTO_N
        45 000001   000020 000006                    ZERO    16,6

       28       28        %INCLUDE CP_6;
       29      109        %INCLUDE CP_6_SUBS;
       30      649        /*****************PARAMETERS*****************/
       31      650        %VLP_VECTOR(FPTN=MEM_,STCLASS=);
       32      665        %VLP_VECTOR(FPTN=UWA_,STCLASS=);
PL6.E3A0      #001=ZII$BLDNAM File=ZII$BLDNAM.:ZIC0TSI                           FRI 09/05/97 12:25 Page:17
       33      680        %VLP_VECTOR(FPTN=RVA_,STCLASS=);
       34      695        %VLP_VECTOR(FPTN=IA_,STCLASS=);
       35      710        %VLP_VECTOR(FPTN=NAM1_,STCLASS=);
       36      725        %VLP_VECTOR(FPTN=NAM2_,STCLASS=);
       37      740        /**/
       38      741        /****************BASED DCLS***************/
       39      742    1   DCL 1 SEG BASED(MEM_.PTR$),
       40      743    1         2 * CHAR(1) UNAL,
       41      744    1         2 * CHAR(MEM_.W1.VSIZE#) UNAL;
       42      745        /****************AUTO DCLS****************/
       43      746    1   DCL I UBIN(36); /*Do varible*/
       44      747    1   DCL SEG_SIZ UBIN(36) ALIGNED;
       45      748    1   DCL NF_SIZ REDEF SEG_SIZ UBIN(36);
       46      749    1   DCL SDS_SIZ REDEF SEG_SIZ UBIN(36);
       47      750    1   DCL NFE_SIZ REDEF SEG_SIZ UBIN(36);
       48      751        /****************EXT DCLS**************/
       49      752    1   DCL TNAM2$ PTR EXT;
       50      753    1   DCL HSH_VAL UBIN(36) ALIGNED EXT;
       51      754    1   DCL STK_IDX UBIN(36) EXT;
       52      755    1   DCL 1 LVL_STK EXT,
       53      756    1         2 * (0:49) UBIN(36) UNAL;
       54      757    1   DCL REC$ PTR EXT;
       55      758    1   DCL I_O_BUF (0:1) CHAR(128) EXT; /*Read into this buffer 1 blk at a time*/
       56      759    1   DCL I_O_IDX UBIN(36) EXT;
       57      760    1   DCL PRC_CAL UBIN(36) EXT;
       58      761    1   DCL ERROR_CODE UBIN(36) EXT;
       59      762    1   DCL SUBSCH_CON_BLK (0:63) UBIN(36) EXT;
       60      763    1   DCL RVA_SIZ UBIN(36) EXT;
       61      764    1   DCL IA_SIZ UBIN(36) EXT;
       62      765    1   DCL SUB_CONBLK$ PTR EXT;
       63      766    1   DCL 1 SUBSCH EXT,
       64      767    1         2 NAME ,
       65      768    1           3 CNT UBIN(9) UNAL,
       66      769    1           3 TEXT CHAR(32) UNAL,
       67      770    1         2 DCB# UBIN(18) ALIGNED;
       68      771    1   DCL ZI$ENTRY_COUNT UBIN(36) EXTROOT;
       69      772    1   DCL ZI$KEY_NUMBER UBIN(36) EXTROOT;
PL6.E3A0      #001=ZII$BLDNAM File=ZII$BLDNAM.:ZIC0TSI                           FRI 09/05/97 12:25 Page:18
       70      773    1   DCL S_SW UBIN WORD EXTROOT;
       71      774    1   DCL R_SW UBIN WORD EXTROOT;
       72      775    1   DCL A_SW UBIN WORD EXTROOT;
       73      776    1   DCL K_SW UBIN WORD EXTROOT;
       74      777        /*****************ENTRY DCLS***************/
       75      778    1   DCL ZII$ADD_KEYWORDS ENTRY ALTRET;
       76      779    1   DCL ZII$BLD_NAM ENTRY ALTRET;
       77      780    1   DCL ZII$BLD_IA ENTRY ALTRET;
       78      781    1   DCL ZII$READ_SS ENTRY ALTRET;
       79      782    1   DCL ZII$ADD_NAM ENTRY ALTRET;
       80      783    1   DCL ZII$FDDESC ENTRY(5) ALTRET;
       81      784    1   DCL ZII$WRT_COMP_REC ENTRY ALTRET;
       82      785        /*****************INCLUDE FILES*************/
       83      786        %INCLUDE ZI$STRUCTS;
       84      858        %UWA1;
       85      881        %NAM1;
       86      910        %NAM2;
       87      924        %INCLUDE ZI_SUB_LANG;
       88     2639        %CONTROL_BLOCK (STCLASS="BASED(SUB_CONBLK$)");
       89     2747        %DESC_TYPE_9 (STCLASS="BASED(REC$)");
       90     2924        %INCLUDE ZI$DESC;
       91     3774        %DSC_AREA (STCLASS="EXT");
       92     3796        %DSC_REC (STCLASS="EXT");
       93     3830        %DSC_FLD (STCLASS="EXT");
       94     3945        %DSC_SET (STCLASS="EXT");
       95     3987        %DSC_KEY (STCLASS="EXT");
       96     3997        %LIST;
       97     3998        %DSC_PARAM (STCLASS="EXT");
              3999    1   DCL DP$ PTR STCLASS ALIGNED;
              4000    1   DCL 1 DSC_PARAM BASED(DP$) ALIGNED,
              4001    1         2 NAM_IDX UBIN(18) UNAL, /*Index inot NMA1 for the data_base_parameter  */
              4002    1         2 RVA_OFF         UBIN(18) UNAL,  /*Index into the RVA for this element */
              4003    1         2 UWA_OFF UBIN(18) UNAL, /*Word offset into UWA for the db parameter    */
              4004    1         2 *               UBIN(18) UNAL,
              4005    1         2 * (0:1) UBIN(36) UNAL,
              4006    1         2 BYT_NIB BIT(1) UNAL,            /* 1=NIB, 0=BYTE                      */
              4007    1         2 *    BIT(1) UNAL,
PL6.E3A0      #001=ZII$BLDNAM File=ZII$BLDNAM.:ZIC0TSI                           FRI 09/05/97 12:25 Page:19
              4008    1         2 TYPE UBIN(16) UNAL,             /* DATA TYPE OF PARAM - SAME AS FIELD */
              4009    1         2 *   UBIN(18)  UNAL,
              4010    1         2 LEN UBIN(36) UNAL,              /* LEN OF PARAM                       */
              4011    1         2 * UBIN(36) UNAL,
              4012    1         2 RP_DSC$         PTR,  /*Ptr to the Rec/Param desc for this parameter  */
              4013    1         2 LLIST$          PTR;            /*Ptr to next desc in link list       */
       98     4015        %PLIST;
       99     4016        %DSC_DESC (STCLASS="EXT");
      100     4024        %DSC_RFK (STCLASS="EXT");
      101     4040        %DSC_RA (STCLASS="EXT");
      102     4055        %DSC_RP (STCLASS="EXT");
      103     4065        %DSC_RFS (STCLASS="EXT");
      104     4110        %TYPE_SUBS;
      105     4120        %PROC_SUBS;
      106     4127        %INCLUDE ZI$USER;
      107     4272        %IA (STCLASS="EXT");
      108     4321        %RVA (STCLASS="EXT");
      109     4334        %INCLUDE ZI_ERRORS_SUBS;
      110     4854        %FPT_OPEN(FPTN=OPEN_FPT,FUN=IN,ORG=KEYED,ACS=DIRECT,ASN=FILE,SETDCB=YES,SHARE=ALL);
      111     4963        %FPT_CLOSE(FPTN=CLOSE_FPT);
      112     5005        /******************Program Procedure******************/
      113     5006    1       ERROR_CODE=0; /*Initailize the error code upon 1st entering ZII$BLDNAM*/

   5006 45 000002   000000 450000 9                  STZ     ERROR_CODE

      114     5007    1       ZI$ENTRY_COUNT=0;

   5007 45 000003   000000 450000 15                 STZ     ZI$ENTRY_COUNT

      115     5008        /* ZI$ENTRY_COUNT is the external count of the # of elements in the
      116     5009           NAM1 table minus 1, or the last usable index of NAM1. */
      117     5010    1       S_SW=0;

   5010 45 000004   000000 450000 17                 STZ     S_SW

      118     5011    1       R_SW=0;

PL6.E3A0      #001=ZII$BLDNAM File=ZII$BLDNAM.:ZIC0TSI                           FRI 09/05/97 12:25 Page:20
   5011 45 000005   000000 450000 18                 STZ     R_SW

      119     5012    1       A_SW=0;

   5012 45 000006   000000 450000 19                 STZ     A_SW

      120     5013    1       K_SW=0;

   5013 45 000007   000000 450000 20                 STZ     K_SW

      121     5014    1       SEG='0'B; /*Zero out the segment  gotten for dump

   5014 45 000010   200003 470500                    LDP0    @MEM_,,AUTO
        45 000011   000001 471500                    LDP1    1,,PR0
        45 000012   000000 236100                    LDQ     0,,PR0
        45 000013   000020 772000                    QRL     16
        45 000014   000001 620006                    EAX0    1,QL
        45 000015   000140 100400                    MLR     fill='000'O
        45 000016   000000 000001 46                 ADSC9   0                        cn=0,n=1
        45 000017   100000 000010                    ADSC9   0,,PR1                   cn=0,n=*X0

      122     5015         readability purposes only */
      123     5016    1       LVL_STK='0'B; /*Zero out the level tracker stack used in ZII$BLD_NAM*/

   5016 45 000020   000000 100400                    MLR     fill='000'O
        45 000021   000000 000001 46                 ADSC9   0                        cn=0,n=1
        45 000022   000000 000310 4                  ADSC9   LVL_STK                  cn=0,n=200

      124     5017    1       STK_IDX = 0; /*Initialize the level stack index for use in ZII$BLD_NAM*/

   5017 45 000023   000000 450000 3                  STZ     STK_IDX

      125     5018         /*Open the subschema file to retrieve info
      126     5019            for building the tables only*/
      127     5020    1       OPEN_FPT.V.DCB#=SUBSCH.DCB#; /*Set up the  DCB */

   5020 45 000024   000011 220000 14                 LDX0    SUBSCH+9
PL6.E3A0      #001=ZII$BLDNAM File=ZII$BLDNAM.:ZIC0TSI                           FRI 09/05/97 12:25 Page:21
        45 000025   000044 740000 43                 STX0    OPEN_FPT+36

      128     5021    1       CALL M$OPEN(OPEN_FPT) ALTRET(ER_OPEN);

   5021 45 000026   000000 630400 43                 EPPR0   OPEN_FPT
        45 000027   450000 713400                    CLIMB   alt,open
        45 000030   410400 401760                    pmme    nvectors=18
        45 000031   001054 702000 45                 TSX2    ER_OPEN

      129     5022        /****************************************************************************/
      130     5023        /*                Build the vectors to return to apl and idp  for their use
              5023                 */
      131     5024        /****************************************************************************/
      132     5025    1       IF PRC_CAL ~= #IDP THEN /*Are we being called from  IDP ?? */

   5025 45 000032   000000 235000 8                  LDA     PRC_CAL
        45 000033   000004 115007                    CMPA    4,DL
        45 000034   000066 600000 45                 TZE     s:5036

      133     5026    2       DO; /*NO.... */

      134     5027    2           UWA$=MEM_.PTR$; /*Set up the UWA vector to return back to */

   5027 45 000035   200003 470500                    LDP0    @MEM_,,AUTO
        45 000036   000001 236100                    LDQ     1,,PR0
        45 000037   000000 756000 21                 STQ     UWA$

      135     5028    2           UWA#=(CONTROL.UWA_SIZE-48)*4;

   5028 45 000040   000000 471400 13                 LDP1    SUB_CONBLK$
        45 000041   100004 235100                    LDA     4,,PR1
        45 000042   000002 735000                    ALS     2
        45 000043   000300 135007                    SBLA    192,DL
        45 000044   000000 755000 23                 STA     UWA#

      136     5029    2           UWA_=VECTOR(UWA); /*Uwa  is the 1st table built in memory */

PL6.E3A0      #001=ZII$BLDNAM File=ZII$BLDNAM.:ZIC0TSI                           FRI 09/05/97 12:25 Page:22
   5029 45 000045   000020 735000                    ALS     16
        45 000046   000001 035000 46                 ADLA    1
        45 000047   200004 473500                    LDP3    @UWA_,,AUTO
        45 000050   300000 757100                    STAQ    0,,PR3

      137     5030    2           UWA_.W1.VSIZE#=UWA_SIZ*4-1;

   5030 45 000051   000000 236000 22                 LDQ     UWA_SIZ
        45 000052   000002 736000                    QLS     2
        45 000053   000001 136007                    SBLQ    1,DL
        45 000054   000020 736000                    QLS     16
        45 000055   300000 676100                    ERQ     0,,PR3
        45 000056   000002 376000 46                 ANQ     2
        45 000057   300000 656100                    ERSQ    0,,PR3

      138     5031    2           RVA$=PINCRW(UWA$,CONTROL.UWA_SIZE); /*Set up the  RVA vector */

   5031 45 000060   000000 471400 13                 LDP1    SUB_CONBLK$
        45 000061   100004 720100                    LXL0    4,,PR1
        45 000062   000000 636010                    EAQ     0,X0
        45 000063   000000 036000 21                 ADLQ    UWA$
        45 000064   000000 756000 42                 STQ     RVA$

      139     5032    2           END;

   5032 45 000065   000101 710000 45                 TRA     s:5040

      140     5033    2       ELSE DO; /*We were called from IDP */

      141     5034        /*             IDP  is a special case because they want the UWA to be in their work
              5034        space
      142     5035              ,so they will pass a UWa vector instead of me returning one to them        */
      143     5036    2           UWA$=UWA_.PTR$; /*Set up the UWA ptr from the vector they passed*/

   5036 45 000066   200004 470500                    LDP0    @UWA_,,AUTO
        45 000067   000001 236100                    LDQ     1,,PR0
        45 000070   000000 756000 21                 STQ     UWA$
PL6.E3A0      #001=ZII$BLDNAM File=ZII$BLDNAM.:ZIC0TSI                           FRI 09/05/97 12:25 Page:23

      144     5037    2           UWA#=(CONTROL.UWA_SIZE -48)*4;
              5037                    /*Get the size from the subschema control blk*/

   5037 45 000071   000000 471400 13                 LDP1    SUB_CONBLK$
        45 000072   100004 235100                    LDA     4,,PR1
        45 000073   000002 735000                    ALS     2
        45 000074   000300 135007                    SBLA    192,DL
        45 000075   000000 755000 23                 STA     UWA#

      145     5038    2           RVA$=MEM_.PTR$;

   5038 45 000076   200003 473500                    LDP3    @MEM_,,AUTO
        45 000077   300001 236100                    LDQ     1,,PR3
        45 000100   000000 756000 42                 STQ     RVA$

      146     5039    2           END;

      147     5040    1       RVA_=VECTOR(RVA); /*Rva is the 2nd table built in memory */

   5040 45 000101   000003 235000 46                 LDA     3
        45 000102   200005 470500                    LDP0    @RVA_,,AUTO
        45 000103   000000 757100                    STAQ    0,,PR0

      148     5041    1       RVA_.W1.VSIZE#=RVA_SIZ*4-1;

   5041 45 000104   000000 236000 11                 LDQ     RVA_SIZ
        45 000105   000002 736000                    QLS     2
        45 000106   000001 136007                    SBLQ    1,DL
        45 000107   000020 736000                    QLS     16
        45 000110   000000 676100                    ERQ     0,,PR0
        45 000111   000002 376000 46                 ANQ     2
        45 000112   000000 656100                    ERSQ    0,,PR0

      149     5042    1       IA$=PINCRW(RVA$,RVA_SIZ); /*Set up the IA vector */

   5042 45 000113   000000 236000 11                 LDQ     RVA_SIZ
PL6.E3A0      #001=ZII$BLDNAM File=ZII$BLDNAM.:ZIC0TSI                           FRI 09/05/97 12:25 Page:24
        45 000114   000022 736000                    QLS     18
        45 000115   000000 036000 42                 ADLQ    RVA$
        45 000116   000000 756000 41                 STQ     IA$

      150     5043    1       IA_=VECTOR(IA); /*Ia is the 3rd table built in memory */

   5043 45 000117   000004 235000 46                 LDA     4
        45 000120   200006 471500                    LDP1    @IA_,,AUTO
        45 000121   100000 757100                    STAQ    0,,PR1

      151     5044    1       NAM1$=PINCRW(IA$,IA_SIZ); /*Ia is a constant size of 46 words */

   5044 45 000122   000000 236000 12                 LDQ     IA_SIZ
        45 000123   000022 736000                    QLS     18
        45 000124   000000 036000 41                 ADLQ    IA$
        45 000125   000000 756000 24                 STQ     NAM1$

      152     5045    1       NAM1_=VECTOR(NAM1); /*NAM1 is the 4th table built in memory */

   5045 45 000126   000005 235000 46                 LDA     5
        45 000127   200007 473500                    LDP3    @NAM1_,,AUTO
        45 000130   300000 757100                    STAQ    0,,PR3

      153     5046    1       NAM1_.W1.VSIZE#=NAM1_SIZ*4-1;

   5046 45 000131   000000 236000 25                 LDQ     NAM1_SIZ
        45 000132   000002 736000                    QLS     2
        45 000133   000001 136007                    SBLQ    1,DL
        45 000134   000020 736000                    QLS     16
        45 000135   300000 676100                    ERQ     0,,PR3
        45 000136   000002 376000 46                 ANQ     2
        45 000137   300000 656100                    ERSQ    0,,PR3

      154     5047    1       NAM2$=PINCRW(NAM1$,NAM1_SIZ); /*Set up the NAM" vector */

   5047 45 000140   000000 236000 25                 LDQ     NAM1_SIZ
        45 000141   000022 736000                    QLS     18
PL6.E3A0      #001=ZII$BLDNAM File=ZII$BLDNAM.:ZIC0TSI                           FRI 09/05/97 12:25 Page:25
        45 000142   000000 036000 24                 ADLQ    NAM1$
        45 000143   000000 756000 27                 STQ     NAM2$

      155     5048    1       DESC#=(NAM2_SIZ-#ENTRY)*4; /*Size of the descriptor portion of NAM2 */

   5048 45 000144   000000 235000 28                 LDA     NAM2_SIZ
        45 000145   000002 735000                    ALS     2
        45 000146   006234 135007                    SBLA    3228,DL
        45 000147   000000 755000 29                 STA     DESC#

      156     5049    1       NAM2_=VECTOR(NAM2); /*NAM2 is the 5th table built in memory */

   5049 45 000150   000020 735000                    ALS     16
        45 000151   000006 035000 46                 ADLA    6
        45 000152   200010 474500                    LDP4    @NAM2_,,AUTO
        45 000153   400000 757100                    STAQ    0,,PR4

      157     5050    1       NAM2_.W1.VSIZE#=NAM2_SIZ*4-1;

   5050 45 000154   000000 236000 28                 LDQ     NAM2_SIZ
        45 000155   000002 736000                    QLS     2
        45 000156   000001 136007                    SBLQ    1,DL
        45 000157   000020 736000                    QLS     16
        45 000160   400000 676100                    ERQ     0,,PR4
        45 000161   000002 376000 46                 ANQ     2
        45 000162   400000 656100                    ERSQ    0,,PR4

      158     5051    2       DO I=0 TO #ENTRY-1 BY 1; /* Initialize the ptr array in NAM2 */

   5051 45 000163   200011 450100                    STZ     I,,AUTO
        45 000164   000174 710000 45                 TRA     s:5053+3

      159     5052    2           NAM2.LLIST$(I)=ADDR(NIL);

   5052 45 000165   000007 236000 46                 LDQ     7
        45 000166   000000 470400 27                 LDP0    NAM2$
        45 000167   200011 720100                    LXL0    I,,AUTO
PL6.E3A0      #001=ZII$BLDNAM File=ZII$BLDNAM.:ZIC0TSI                           FRI 09/05/97 12:25 Page:26
        45 000170   000000 756110                    STQ     0,X0,PR0

      160     5053    2           END;

   5053 45 000171   200011 235100                    LDA     I,,AUTO
        45 000172   000001 035007                    ADLA    1,DL
        45 000173   200011 755100                    STA     I,,AUTO
        45 000174   200011 235100                    LDA     I,,AUTO
        45 000175   001447 115007                    CMPA    807,DL
        45 000176   000165 602000 45                 TNC     s:5052

      161     5054        /**/
      162     5055    1       TNAM2$=ADDR(NAM2.LLIST$(#ENTRY-#DSC_SIZ));

   5055 45 000177   000000 236000 27                 LDQ     NAM2$
        45 000200   001436 036003                    ADLQ    798,DU
        45 000201   000000 756000 1                  STQ     TNAM2$

      163     5056         /* Init TNAM2$ to point #DSC_SIZ (9) words back from where
      164     5057            table descriptors are to be stored so that when we
      165     5058            PINCRW forward to store the 1st one, we'll be in the
      166     5059            right place. */
      167     5060        /*   Add NULL element for "FIND ANY", etc.
      168     5061             The type code for the NULL element in the RVA is 4.   */
      169     5062    1       RVA.RVE.T(0)=4;

   5062 45 000202   000004 220003                    LDX0    4,DU
        45 000203   000000 470400 42                 LDP0    RVA$
        45 000204   000001 740100                    STX0    1,,PR0

      170     5063    1       RVA.W1.COUNT=1; /*Initialize the rva count */

   5063 45 000205   000000 236100                    LDQ     0,,PR0
        45 000206   000010 376000 46                 ANQ     8
        45 000207   000001 276003                    ORQ     1,DU
        45 000210   000000 756100                    STQ     0,,PR0

PL6.E3A0      #001=ZII$BLDNAM File=ZII$BLDNAM.:ZIC0TSI                           FRI 09/05/97 12:25 Page:27
      171     5064        /**********************************************************************************
              5064        *********
      172     5065
      173     5066            SUBSCHEMA   NAME     SEGMENT    SEARCH
      174     5067
      175     5068         *****************************************************************************/
      176     5069    1       I_O_IDX=2; /*Init I_O_IDX */

   5069 45 000211   000002 236007                    LDQ     2,DL
        45 000212   000000 756000 7                  STQ     I_O_IDX

      177     5070    1       ZI$KEY_NUMBER=(CONTROL.FIRST_NF_RECORD/2)-1;

   5070 45 000213   000000 470400 13                 LDP0    SUB_CONBLK$
        45 000214   000074 236100                    LDQ     60,,PR0
        45 000215   000001 772000                    QRL     1
        45 000216   000001 136007                    SBLQ    1,DL
        45 000217   000000 756000 16                 STQ     ZI$KEY_NUMBER

      178     5071    1       CALL ZII$READ_SS ALTRET(ER_CHKRNG);

   5071 45 000220   000000 631400 46                 EPPR1   0
        45 000221   000000 701000 xent               TSX1    ZII$READ_SS
        45 000222   001053 702000 45                 TSX2    ER_CHKRNG

      179     5072    2       DO WHILE (SUBSTR(I_O_BUF(I_O_IDX),0,12)~='/*/*/*/*/*/*');
              5072                /*Test to see if we are at the

   5072 45 000223   000250 710000 45                 TRA     s:5079

      180     5073         end of the  NAME SEGMENT */
      181     5074    2           REC$=ADDR(I_O_BUF(I_O_IDX)); /*Set up the ptr to the record in the  bloc */

   5074 45 000224   000000 236000 7                  LDQ     I_O_IDX
        45 000225   000027 736000                    QLS     23
        45 000226   000011 036000 46                 ADLQ    9
        45 000227   000000 756000 5                  STQ     REC$
PL6.E3A0      #001=ZII$BLDNAM File=ZII$BLDNAM.:ZIC0TSI                           FRI 09/05/97 12:25 Page:28

      182     5075    2           IF DESC_TYPE_9.TYPE = 9 THEN /*Is this a type 9 descriptor */

   5075 45 000230   000000 470400 5                  LDP0    REC$
        45 000231   000100 100500                    MLR     fill='000'O
        45 000232   000003 000004                    ADSC9   3,,PR0                   cn=0,n=4
        45 000233   200014 000004                    ADSC9   SEG_SIZ+2,,AUTO          cn=0,n=4
        45 000234   200014 236100                    LDQ     SEG_SIZ+2,,AUTO
        45 000235   000011 116007                    CMPQ    9,DL
        45 000236   000242 601000 45                 TNZ     s:5077

      183     5076    2               CALL ZII$BLD_NAM ALTRET(ER_BLD_NAM);
              5076                        /*YES..  Build entry in NAM1 and NAM2 */

   5076 45 000237   000000 631400 46                 EPPR1   0
        45 000240   000000 701000 xent               TSX1    ZII$BLD_NAM
        45 000241   001053 702000 45                 TSX2    ER_CHKRNG

      184     5077    2           I_O_IDX=I_O_IDX+1; /*Increment I_O_IDX */

   5077 45 000242   000000 235000 7                  LDA     I_O_IDX
        45 000243   000001 035007                    ADLA    1,DL
        45 000244   000000 755000 7                  STA     I_O_IDX

      185     5078    2           CALL ZII$READ_SS ALTRET(ER_CHKRNG);

   5078 45 000245   000000 631400 46                 EPPR1   0
        45 000246   000000 701000 xent               TSX1    ZII$READ_SS
        45 000247   001053 702000 45                 TSX2    ER_CHKRNG

      186     5079    2           END;

   5079 45 000250   000000 235000 7                  LDA     I_O_IDX
        45 000251   000007 735000                    ALS     7
        45 000252   040000 106405                    CMPC    fill='040'O
        45 000253   000000 000014 6                  ADSC9   I_O_BUF,A                cn=0,n=12
        45 000254   000000 000014 44                 ADSC9   0                        cn=0,n=12
PL6.E3A0      #001=ZII$BLDNAM File=ZII$BLDNAM.:ZIC0TSI                           FRI 09/05/97 12:25 Page:29
        45 000255   000224 601000 45                 TNZ     s:5074

      187     5080       /***********************************************************************************
              5080        ************
      188     5081
      189     5082                         SUBSCHEMA  DESCRIPTOR SEGMENT SEARCH
      190     5083
      191     5084        ******************************************************************************/
      192     5085    1       I_O_IDX=2;

   5085 45 000256   000002 236007                    LDQ     2,DL
        45 000257   000000 756000 7                  STQ     I_O_IDX

      193     5086    1       ZI$KEY_NUMBER=(CONTROL.FIRST_SDS_RECORD/2)-1;

   5086 45 000260   000000 470400 13                 LDP0    SUB_CONBLK$
        45 000261   000075 236100                    LDQ     61,,PR0
        45 000262   000001 772000                    QRL     1
        45 000263   000001 136007                    SBLQ    1,DL
        45 000264   000000 756000 16                 STQ     ZI$KEY_NUMBER

      194     5087    1       CALL ZII$READ_SS ALTRET(ER_CHKRNG);

   5087 45 000265   000000 631400 46                 EPPR1   0
        45 000266   000000 701000 xent               TSX1    ZII$READ_SS
        45 000267   001053 702000 45                 TSX2    ER_CHKRNG

      195     5088    2       DO WHILE (SUBSTR(I_O_BUF(I_O_IDX),0,12) ~='/*/*/*/*/*/*');
              5088                /*Chk for end of DESC. SEG */

   5088 45 000270   000306 710000 45                 TRA     s:5093

      196     5089    2           REC$=ADDR(I_O_BUF(I_O_IDX));

   5089 45 000271   000000 236000 7                  LDQ     I_O_IDX
        45 000272   000027 736000                    QLS     23
        45 000273   000011 036000 46                 ADLQ    9
PL6.E3A0      #001=ZII$BLDNAM File=ZII$BLDNAM.:ZIC0TSI                           FRI 09/05/97 12:25 Page:30
        45 000274   000000 756000 5                  STQ     REC$

      197     5090    2           CALL ZII$ADD_NAM ALTRET(ER_ADD_NAM);
              5090                    /*Add info to NAM2 table for this descriptor elem*/

   5090 45 000275   000000 631400 46                 EPPR1   0
        45 000276   000000 701000 xent               TSX1    ZII$ADD_NAM
        45 000277   001053 702000 45                 TSX2    ER_CHKRNG

      198     5091    2           I_O_IDX=I_O_IDX+1; /*Increment I_O_IDX */

   5091 45 000300   000000 235000 7                  LDA     I_O_IDX
        45 000301   000001 035007                    ADLA    1,DL
        45 000302   000000 755000 7                  STA     I_O_IDX

      199     5092    2           CALL ZII$READ_SS ALTRET(ER_CHKRNG);

   5092 45 000303   000000 631400 46                 EPPR1   0
        45 000304   000000 701000 xent               TSX1    ZII$READ_SS
        45 000305   001053 702000 45                 TSX2    ER_CHKRNG

      200     5093    2           END;

   5093 45 000306   000000 235000 7                  LDA     I_O_IDX
        45 000307   000007 735000                    ALS     7
        45 000310   040000 106405                    CMPC    fill='040'O
        45 000311   000000 000014 6                  ADSC9   I_O_BUF,A                cn=0,n=12
        45 000312   000000 000014 44                 ADSC9   0                        cn=0,n=12
        45 000313   000271 601000 45                 TNZ     s:5089

      201     5094       /***********************************************************************************
              5094        ***********
      202     5095
      203     5096                        SUBSCHEMA NAME EXTENTION SEGMENT SEARCH
      204     5097
      205     5098        ******************************************************************************/
      206     5099    1       I_O_IDX=2;
PL6.E3A0      #001=ZII$BLDNAM File=ZII$BLDNAM.:ZIC0TSI                           FRI 09/05/97 12:25 Page:31

   5099 45 000314   000002 236007                    LDQ     2,DL
        45 000315   000000 756000 7                  STQ     I_O_IDX

      207     5100    1       ZI$KEY_NUMBER=(CONTROL.FIRST_NFE_RECORD/2)-1;

   5100 45 000316   000000 470400 13                 LDP0    SUB_CONBLK$
        45 000317   000076 236100                    LDQ     62,,PR0
        45 000320   000001 772000                    QRL     1
        45 000321   000001 136007                    SBLQ    1,DL
        45 000322   000000 756000 16                 STQ     ZI$KEY_NUMBER

      208     5101    1       CALL ZII$READ_SS ALTRET(ER_CHKRNG);

   5101 45 000323   000000 631400 46                 EPPR1   0
        45 000324   000000 701000 xent               TSX1    ZII$READ_SS
        45 000325   001053 702000 45                 TSX2    ER_CHKRNG

      209     5102    1       I_O_IDX=MOD(CONTROL.FIRST_NFE_RECORD,2);

   5102 45 000326   000000 470400 13                 LDP0    SUB_CONBLK$
        45 000327   000076 236100                    LDQ     62,,PR0
        45 000330   000001 376007                    ANQ     1,DL
        45 000331   000000 756000 7                  STQ     I_O_IDX

      210     5103    1       I=0; /*Initialize I */

   5103 45 000332   200011 450100                    STZ     I,,AUTO

      211     5104    2       DO WHILE(I <= 2 ); /*This test  is for the  number of

   5104 45 000333   200011 235100                    LDA     I,,AUTO
        45 000334   000003 115007                    CMPA    3,DL
        45 000335   001026 603000 45                 TRC     s:5192

      212     5105         encountered...should be 3 */
      213     5106    2           REC$=ADDR(I_O_BUF(I_O_IDX)); /*Set up record ptr */
PL6.E3A0      #001=ZII$BLDNAM File=ZII$BLDNAM.:ZIC0TSI                           FRI 09/05/97 12:25 Page:32

   5106 45 000336   000000 236000 7                  LDQ     I_O_IDX
        45 000337   000027 736000                    QLS     23
        45 000340   000011 036000 46                 ADLQ    9
        45 000341   000000 756000 5                  STQ     REC$

      214     5107    2           IF (SUBSTR(I_O_BUF(I_O_IDX),0,12) = '/*/*/*/*/*/*') THEN

   5107 45 000342   000000 235000 7                  LDA     I_O_IDX
        45 000343   000007 735000                    ALS     7
        45 000344   040000 106405                    CMPC    fill='040'O
        45 000345   000000 000014 6                  ADSC9   I_O_BUF,A                cn=0,n=12
        45 000346   000000 000014 44                 ADSC9   0                        cn=0,n=12
        45 000347   000354 601000 45                 TNZ     s:5109

      215     5108    2               I=I+1;

   5108 45 000350   200011 235100                    LDA     I,,AUTO
        45 000351   000001 035007                    ADLA    1,DL
        45 000352   200011 755100                    STA     I,,AUTO
        45 000353   001012 710000 45                 TRA     s:5186

      216     5109    2           ELSE IF DESC_TYPE_9.TYPE = 9 THEN /*Is this a type 9 descriptor / */

   5109 45 000354   000000 470400 5                  LDP0    REC$
        45 000355   000100 100500                    MLR     fill='000'O
        45 000356   000003 000004                    ADSC9   3,,PR0                   cn=0,n=4
        45 000357   200014 000004                    ADSC9   SEG_SIZ+2,,AUTO          cn=0,n=4
        45 000360   200014 236100                    LDQ     SEG_SIZ+2,,AUTO
        45 000361   000011 116007                    CMPQ    9,DL
        45 000362   001007 601000 45                 TNZ     s:5185

      217     5110    3               DO; /*YES..must be a descriptor for a  parameter in subsch*/

      218     5111    3                   NAM1_IDX=NAM1_IDX+1; /*Put  info into NAM1 table */

   5111 45 000363   000000 054000 26                 AOS     NAM1_IDX
PL6.E3A0      #001=ZII$BLDNAM File=ZII$BLDNAM.:ZIC0TSI                           FRI 09/05/97 12:25 Page:33

      219     5112    3                   NAM1.NAME.CNT(NAM1_IDX)=DESC_TYPE_9.NAME_SIZE;

   5112 45 000364   000000 236000 26                 LDQ     NAM1_IDX
        45 000365   000012 402007                    MPY     10,DL
        45 000366   000002 736000                    QLS     2
        45 000367   000000 471400 24                 LDP1    NAM1$
        45 000370   000106 101500                    MRL     fill='000'O
        45 000371   000027 000004                    ADSC9   23,,PR0                  cn=0,n=4
        45 000372   100000 600001                    ADSC9   0,Q,PR1                  cn=3,n=1

      220     5113    3                   NAM1.NAME.TEXT(NAM1_IDX)=DESC_TYPE_9.NAME;

   5113 45 000373   000000 236000 26                 LDQ     NAM1_IDX
        45 000374   000050 402007                    MPY     40,DL
        45 000375   000000 470400 5                  LDP0    REC$
        45 000376   000000 471400 24                 LDP1    NAM1$
        45 000377   040106 100500                    MLR     fill='040'O
        45 000400   000030 000036                    ADSC9   24,,PR0                  cn=0,n=30
        45 000401   100001 000040                    ADSC9   1,Q,PR1                  cn=0,n=32

      221     5114    3                   NAM1.TYPE(NAM1_IDX)=#PARAM;

   5114 45 000402   000000 236000 26                 LDQ     NAM1_IDX
        45 000403   000012 402007                    MPY     10,DL
        45 000404   000000 470400 24                 LDP0    NAM1$
        45 000405   000000 620006                    EAX0    0,QL
        45 000406   000000 236106                    LDQ     0,QL,PR0
        45 000407   000012 376000 46                 ANQ     10
        45 000410   005000 276003                    ORQ     2560,DU
        45 000411   000000 756110                    STQ     0,X0,PR0

      222     5115    3                   CALL ZII$FDDESC(NAM1.NAME.TEXT(NAM1_IDX),NAM1.TYPE(NAM1_IDX),DD$,
              5115                            #STORE,) ALTRET(ER_FDDESC);

   5115 45 000412   000016 237000 46                 LDAQ    14
        45 000413   200016 757100                    STAQ    SEG_SIZ+4,,AUTO
PL6.E3A0      #001=ZII$BLDNAM File=ZII$BLDNAM.:ZIC0TSI                           FRI 09/05/97 12:25 Page:34
        45 000414   000000 236000 26                 LDQ     NAM1_IDX
        45 000415   000012 402003                    MPY     10,DU
        45 000416   000000 036000 24                 ADLQ    NAM1$
        45 000417   200015 756100                    STQ     SEG_SIZ+3,,AUTO
        45 000420   000000 236000 26                 LDQ     NAM1_IDX
        45 000421   000012 402003                    MPY     10,DU
        45 000422   000001 036003                    ADLQ    1,DU
        45 000423   000000 036000 24                 ADLQ    NAM1$
        45 000424   200014 756100                    STQ     SEG_SIZ+2,,AUTO
        45 000425   200014 630500                    EPPR0   SEG_SIZ+2,,AUTO
        45 000426   000013 631400 46                 EPPR1   11
        45 000427   000000 701000 xent               TSX1    ZII$FDDESC
        45 000430   001062 702000 45                 TSX2    ER_FDDESC

      223     5116    3                   NAM1.DESC$(NAM1_IDX)=DD$;

   5116 45 000431   000000 236000 26                 LDQ     NAM1_IDX
        45 000432   000012 402007                    MPY     10,DL
        45 000433   000000 620006                    EAX0    0,QL
        45 000434   000000 236000 36                 LDQ     DD$
        45 000435   000000 470400 24                 LDP0    NAM1$
        45 000436   000011 756110                    STQ     9,X0,PR0

      224     5117    3                   DP$=DD$;

   5117 45 000437   000000 236000 36                 LDQ     DD$
        45 000440   000000 756000 35                 STQ     DP$

      225     5118    3                   DSC_PARAM.NAM_IDX=NAM1_IDX;

   5118 45 000441   000000 720000 26                 LXL0    NAM1_IDX
        45 000442   000000 470400 35                 LDP0    DP$
        45 000443   000000 740100                    STX0    0,,PR0

      226     5119    3                   DSC_PARAM.RVA_OFF=0;
              5119                            /*There's no RVA offset for  data-base parameters*/

PL6.E3A0      #001=ZII$BLDNAM File=ZII$BLDNAM.:ZIC0TSI                           FRI 09/05/97 12:25 Page:35
   5119 45 000444   000000 220003                    LDX0    0,DU
        45 000445   000000 470400 35                 LDP0    DP$
        45 000446   000000 440100                    SXL0    0,,PR0

      227     5120    3                   DSC_PARAM.UWA_OFF=DESC_TYPE_9.OFFSET;/*Get UWA offset */

   5120 45 000447   000000 470400 5                  LDP0    REC$
        45 000450   000000 471400 35                 LDP1    DP$
        45 000451   000100 101500                    MRL     fill='000'O
        45 000452   000024 000004                    ADSC9   20,,PR0                  cn=0,n=4
        45 000453   100001 000002                    ADSC9   1,,PR1                   cn=0,n=2

      228     5121    3                   DSC_PARAM.RP_DSC$=ADDR(NIL);

   5121 45 000454   000007 236000 46                 LDQ     7
        45 000455   100007 756100                    STQ     7,,PR1

      229     5122    3                   DSC_PARAM.LLIST$=ADDR(NIL);

   5122 45 000456   000007 236000 46                 LDQ     7
        45 000457   100010 756100                    STQ     8,,PR1

      230     5123    3                   IF DESC_TYPE_9.COMP OR DESC_TYPE_9.COMP_4 THEN

   5123 45 000460   000000 066500                    CMPB    filb='0'B
        45 000461   000021 610001                    BDSC    17,,PR0                  by=3,bit=1,n=1
        45 000462   000000 000022 46                 BDSC    0                        by=0,bit=0,n=18
        45 000463   000470 601000 45                 TNZ     s:5125
        45 000464   000000 066500                    CMPB    filb='0'B
        45 000465   000022 000001                    BDSC    18,,PR0                  by=0,bit=0,n=1
        45 000466   000000 000022 46                 BDSC    0                        by=0,bit=0,n=18
        45 000467   000506 600000 45                 TZE     s:5131

      231     5124    4                   DO;

      232     5125    4                       IF DESC_TYPE_9.PIC_HAS_S THEN

PL6.E3A0      #001=ZII$BLDNAM File=ZII$BLDNAM.:ZIC0TSI                           FRI 09/05/97 12:25 Page:36
   5125 45 000470   000000 066500                    CMPB    filb='0'B
        45 000471   000021 470001                    BDSC    17,,PR0                  by=2,bit=7,n=1
        45 000472   000000 000022 46                 BDSC    0                        by=0,bit=0,n=18
        45 000473   000501 600000 45                 TZE     s:5128

      233     5126    4                           DSC_PARAM.TYPE = 4;

   5126 45 000474   100004 236100                    LDQ     4,,PR1
        45 000475   000015 376000 46                 ANQ     13
        45 000476   000004 276003                    ORQ     4,DU
        45 000477   100004 756100                    STQ     4,,PR1
        45 000500   000754 710000 45                 TRA     s:5178

      234     5127    4                       ELSE
      235     5128    4                           DSC_PARAM.TYPE = 3;

   5128 45 000501   100004 236100                    LDQ     4,,PR1
        45 000502   000015 376000 46                 ANQ     13
        45 000503   000003 276003                    ORQ     3,DU
        45 000504   100004 756100                    STQ     4,,PR1

      236     5129    4                       END;

   5129 45 000505   000754 710000 45                 TRA     s:5178

      237     5130    3                   ELSE
      238     5131    3                       IF DESC_TYPE_9.COMP_3 THEN

   5131 45 000506   000000 066500                    CMPB    filb='0'B
        45 000507   000021 640001                    BDSC    17,,PR0                  by=3,bit=4,n=1
        45 000510   000000 000022 46                 BDSC    0                        by=0,bit=0,n=18
        45 000511   000530 600000 45                 TZE     s:5139

      239     5132    4                       DO;

      240     5133    4                           IF DESC_TYPE_9.PIC_HAS_S THEN

PL6.E3A0      #001=ZII$BLDNAM File=ZII$BLDNAM.:ZIC0TSI                           FRI 09/05/97 12:25 Page:37
   5133 45 000512   000000 066500                    CMPB    filb='0'B
        45 000513   000021 470001                    BDSC    17,,PR0                  by=2,bit=7,n=1
        45 000514   000000 000022 46                 BDSC    0                        by=0,bit=0,n=18
        45 000515   000523 600000 45                 TZE     s:5136

      241     5134    4                               DSC_PARAM.TYPE = 5;

   5134 45 000516   100004 236100                    LDQ     4,,PR1
        45 000517   000015 376000 46                 ANQ     13
        45 000520   000005 276003                    ORQ     5,DU
        45 000521   100004 756100                    STQ     4,,PR1
        45 000522   000754 710000 45                 TRA     s:5178

      242     5135    4                           ELSE
      243     5136    4                               DSC_PARAM.TYPE = 3;

   5136 45 000523   100004 236100                    LDQ     4,,PR1
        45 000524   000015 376000 46                 ANQ     13
        45 000525   000003 276003                    ORQ     3,DU
        45 000526   100004 756100                    STQ     4,,PR1

      244     5137    4                           END;

   5137 45 000527   000754 710000 45                 TRA     s:5178

      245     5138    3                       ELSE
      246     5139    3                           IF DESC_TYPE_9.ALPHANUM OR DESC_TYPE_9.ALPHABETIC THEN

   5139 45 000530   000000 066500                    CMPB    filb='0'B
        45 000531   000021 410001                    BDSC    17,,PR0                  by=2,bit=1,n=1
        45 000532   000000 000022 46                 BDSC    0                        by=0,bit=0,n=18
        45 000533   000540 601000 45                 TNZ     s:5140
        45 000534   000000 066500                    CMPB    filb='0'B
        45 000535   000021 430001                    BDSC    17,,PR0                  by=2,bit=3,n=1
        45 000536   000000 000022 46                 BDSC    0                        by=0,bit=0,n=18
        45 000537   000543 600000 45                 TZE     s:5142

PL6.E3A0      #001=ZII$BLDNAM File=ZII$BLDNAM.:ZIC0TSI                           FRI 09/05/97 12:25 Page:38
      247     5140    3                               DSC_PARAM.TYPE = 0;

   5140 45 000540   000015 236000 46                 LDQ     13
        45 000541   100004 356100                    ANSQ    4,,PR1
        45 000542   000754 710000 45                 TRA     s:5178

      248     5141    3                           ELSE
      249     5142    3                               IF DESC_TYPE_9.DISPLAY THEN

   5142 45 000543   000000 066500                    CMPB    filb='0'B
        45 000544   000021 600001                    BDSC    17,,PR0                  by=3,bit=0,n=1
        45 000545   000000 000022 46                 BDSC    0                        by=0,bit=0,n=18
        45 000546   000624 600000 45                 TZE     s:5158

      250     5143    4                               DO;

      251     5144    4                                   IF DESC_TYPE_9.PIC_HAS_S THEN

   5144 45 000547   000000 066500                    CMPB    filb='0'B
        45 000550   000021 470001                    BDSC    17,,PR0                  by=2,bit=7,n=1
        45 000551   000000 000022 46                 BDSC    0                        by=0,bit=0,n=18
        45 000552   000617 600000 45                 TZE     s:5155

      252     5145    5                                   DO;

      253     5146    5                                      IF DESC_TYPE_9.SIGN_TYP = '001'B THEN DSC_PARAM.
              5146                                                TYPE = 10;

   5146 45 000553   000000 066500                    CMPB    filb='0'B
        45 000554   000022 240003                    BDSC    18,,PR0                  by=1,bit=4,n=3
        45 000555   000020 000022 46                 BDSC    16                       by=0,bit=0,n=18
        45 000556   000564 601000 45                 TNZ     s:5148

   5146 45 000557   100004 236100                    LDQ     4,,PR1
        45 000560   000015 376000 46                 ANQ     13
        45 000561   000012 276003                    ORQ     10,DU
        45 000562   100004 756100                    STQ     4,,PR1
PL6.E3A0      #001=ZII$BLDNAM File=ZII$BLDNAM.:ZIC0TSI                           FRI 09/05/97 12:25 Page:39
        45 000563   000754 710000 45                 TRA     s:5178

      254     5147    5                                       ELSE
      255     5148    5                                           IF DESC_TYPE_9.SIGN_TYP = '010'B THEN
              5148                                                    DSC_PARAM.TYPE = 9;

   5148 45 000564   000000 066500                    CMPB    filb='0'B
        45 000565   000022 240003                    BDSC    18,,PR0                  by=1,bit=4,n=3
        45 000566   000021 000022 46                 BDSC    17                       by=0,bit=0,n=18
        45 000567   000575 601000 45                 TNZ     s:5150

   5148 45 000570   100004 236100                    LDQ     4,,PR1
        45 000571   000015 376000 46                 ANQ     13
        45 000572   000011 276003                    ORQ     9,DU
        45 000573   100004 756100                    STQ     4,,PR1
        45 000574   000754 710000 45                 TRA     s:5178

      256     5149    5                                           ELSE
      257     5150    5                                               IF DESC_TYPE_9.SIGN_TYP = '011'B THEN
              5150                                                        DSC_PARAM.TYPE = 8;

   5150 45 000575   000000 066500                    CMPB    filb='0'B
        45 000576   000022 240003                    BDSC    18,,PR0                  by=1,bit=4,n=3
        45 000577   000022 000022 46                 BDSC    18                       by=0,bit=0,n=18
        45 000600   000606 601000 45                 TNZ     s:5152

   5150 45 000601   100004 236100                    LDQ     4,,PR1
        45 000602   000015 376000 46                 ANQ     13
        45 000603   000010 276003                    ORQ     8,DU
        45 000604   100004 756100                    STQ     4,,PR1
        45 000605   000754 710000 45                 TRA     s:5178

      258     5151    5                                               ELSE
      259     5152    5                                             IF DESC_TYPE_9.SIGN_TYP = '100'B THEN
              5152                                                      DSC_PARAM.TYPE = 7;

   5152 45 000606   000000 066500                    CMPB    filb='0'B
PL6.E3A0      #001=ZII$BLDNAM File=ZII$BLDNAM.:ZIC0TSI                           FRI 09/05/97 12:25 Page:40
        45 000607   000022 240003                    BDSC    18,,PR0                  by=1,bit=4,n=3
        45 000610   000014 000022 46                 BDSC    12                       by=0,bit=0,n=18
        45 000611   000754 601000 45                 TNZ     s:5178

   5152 45 000612   100004 236100                    LDQ     4,,PR1
        45 000613   000015 376000 46                 ANQ     13
        45 000614   000007 276003                    ORQ     7,DU
        45 000615   100004 756100                    STQ     4,,PR1

      260     5153    5                                       END;

   5153 45 000616   000754 710000 45                 TRA     s:5178

      261     5154    4                                   ELSE
      262     5155    4                                       DSC_PARAM.TYPE = 6;

   5155 45 000617   100004 236100                    LDQ     4,,PR1
        45 000620   000015 376000 46                 ANQ     13
        45 000621   000006 276003                    ORQ     6,DU
        45 000622   100004 756100                    STQ     4,,PR1

      263     5156    4                                   END;

   5156 45 000623   000754 710000 45                 TRA     s:5178

      264     5157    3                               ELSE
      265     5158    3                                   IF DESC_TYPE_9.F_DBK THEN DSC_PARAM.TYPE = 1;

   5158 45 000624   000000 066500                    CMPB    filb='0'B
        45 000625   000010 600001                    BDSC    8,,PR0                   by=3,bit=0,n=1
        45 000626   000000 000022 46                 BDSC    0                        by=0,bit=0,n=18
        45 000627   000635 600000 45                 TZE     s:5160

   5158 45 000630   100004 236100                    LDQ     4,,PR1
        45 000631   000015 376000 46                 ANQ     13
        45 000632   000001 276003                    ORQ     1,DU
        45 000633   100004 756100                    STQ     4,,PR1
PL6.E3A0      #001=ZII$BLDNAM File=ZII$BLDNAM.:ZIC0TSI                           FRI 09/05/97 12:25 Page:41
        45 000634   000754 710000 45                 TRA     s:5178

      266     5159    3                                   ELSE
      267     5160    3                                       IF DESC_TYPE_9.DB_KEY THEN DSC_PARAM.TYPE = 2;

   5160 45 000635   000000 066500                    CMPB    filb='0'B
        45 000636   000021 660001                    BDSC    17,,PR0                  by=3,bit=6,n=1
        45 000637   000000 000022 46                 BDSC    0                        by=0,bit=0,n=18
        45 000640   000646 600000 45                 TZE     s:5162

   5160 45 000641   100004 236100                    LDQ     4,,PR1
        45 000642   000015 376000 46                 ANQ     13
        45 000643   000002 276003                    ORQ     2,DU
        45 000644   100004 756100                    STQ     4,,PR1
        45 000645   000754 710000 45                 TRA     s:5178

      268     5161    3                                       ELSE
      269     5162    3                                           IF DESC_TYPE_9.COMP_1 THEN DSC_PARAM.TYPE =
              5162                                                    11;

   5162 45 000646   000000 066500                    CMPB    filb='0'B
        45 000647   000021 620001                    BDSC    17,,PR0                  by=3,bit=2,n=1
        45 000650   000000 000022 46                 BDSC    0                        by=0,bit=0,n=18
        45 000651   000657 600000 45                 TZE     s:5164

   5162 45 000652   100004 236100                    LDQ     4,,PR1
        45 000653   000015 376000 46                 ANQ     13
        45 000654   000013 276003                    ORQ     11,DU
        45 000655   100004 756100                    STQ     4,,PR1
        45 000656   000754 710000 45                 TRA     s:5178

      270     5163    3                                           ELSE
      271     5164    3                                               IF DESC_TYPE_9.COMP5A AND DESC_TYPE_9.
              5164                                                        COMP_2 THEN

   5164 45 000657   000000 066500                    CMPB    filb='0'B
        45 000660   000022 640001                    BDSC    18,,PR0                  by=3,bit=4,n=1
PL6.E3A0      #001=ZII$BLDNAM File=ZII$BLDNAM.:ZIC0TSI                           FRI 09/05/97 12:25 Page:42
        45 000661   000000 000022 46                 BDSC    0                        by=0,bit=0,n=18
        45 000662   000674 600000 45                 TZE     s:5167
        45 000663   000000 066500                    CMPB    filb='0'B
        45 000664   000021 630001                    BDSC    17,,PR0                  by=3,bit=3,n=1
        45 000665   000000 000022 46                 BDSC    0                        by=0,bit=0,n=18
        45 000666   000674 600000 45                 TZE     s:5167

      272     5165    3                                                   DSC_PARAM.TYPE = 13;

   5165 45 000667   100004 236100                    LDQ     4,,PR1
        45 000670   000015 376000 46                 ANQ     13
        45 000671   000015 276003                    ORQ     13,DU
        45 000672   100004 756100                    STQ     4,,PR1
        45 000673   000754 710000 45                 TRA     s:5178

      273     5166    3                                               ELSE
      274     5167    3                                                   IF DESC_TYPE_9.COMP5A AND
              5167                                                            DESC_TYPE_9.COMP_3 THEN

   5167 45 000674   000000 066500                    CMPB    filb='0'B
        45 000675   000022 640001                    BDSC    18,,PR0                  by=3,bit=4,n=1
        45 000676   000000 000022 46                 BDSC    0                        by=0,bit=0,n=18
        45 000677   000711 600000 45                 TZE     s:5170
        45 000700   000000 066500                    CMPB    filb='0'B
        45 000701   000021 640001                    BDSC    17,,PR0                  by=3,bit=4,n=1
        45 000702   000000 000022 46                 BDSC    0                        by=0,bit=0,n=18
        45 000703   000711 600000 45                 TZE     s:5170

      275     5168    3                                                       DSC_PARAM.TYPE = 14;

   5168 45 000704   100004 236100                    LDQ     4,,PR1
        45 000705   000015 376000 46                 ANQ     13
        45 000706   000016 276003                    ORQ     14,DU
        45 000707   100004 756100                    STQ     4,,PR1
        45 000710   000754 710000 45                 TRA     s:5178

      276     5169    3                                                   ELSE
PL6.E3A0      #001=ZII$BLDNAM File=ZII$BLDNAM.:ZIC0TSI                           FRI 09/05/97 12:25 Page:43
      277     5170    3                                                    IF DESC_TYPE_9.COMP_2 THEN
              5170                                                             DSC_PARAM.TYPE = 12;

   5170 45 000711   000000 066500                    CMPB    filb='0'B
        45 000712   000021 630001                    BDSC    17,,PR0                  by=3,bit=3,n=1
        45 000713   000000 000022 46                 BDSC    0                        by=0,bit=0,n=18
        45 000714   000722 600000 45                 TZE     s:5172

   5170 45 000715   100004 236100                    LDQ     4,,PR1
        45 000716   000015 376000 46                 ANQ     13
        45 000717   000014 276003                    ORQ     12,DU
        45 000720   100004 756100                    STQ     4,,PR1
        45 000721   000754 710000 45                 TRA     s:5178

      278     5171    3                                                       ELSE
      279     5172    3                                                IF DESC_TYPE_9.COMPLEX THEN DSC_PARAM.
              5172                                                         TYPE = 15;

   5172 45 000722   000000 066500                    CMPB    filb='0'B
        45 000723   000010 630001                    BDSC    8,,PR0                   by=3,bit=3,n=1
        45 000724   000000 000022 46                 BDSC    0                        by=0,bit=0,n=18
        45 000725   000733 600000 45                 TZE     s:5174

   5172 45 000726   100004 236100                    LDQ     4,,PR1
        45 000727   000015 376000 46                 ANQ     13
        45 000730   000017 276003                    ORQ     15,DU
        45 000731   100004 756100                    STQ     4,,PR1
        45 000732   000754 710000 45                 TRA     s:5178

      280     5173    3                                                           ELSE
      281     5174    3                                          IF DESC_TYPE_9.D_COMPLEX THEN DSC_PARAM.TYPE
              5174                                                    = 16;

   5174 45 000733   000000 066500                    CMPB    filb='0'B
        45 000734   000010 640001                    BDSC    8,,PR0                   by=3,bit=4,n=1
        45 000735   000000 000022 46                 BDSC    0                        by=0,bit=0,n=18
        45 000736   000744 600000 45                 TZE     s:5176
PL6.E3A0      #001=ZII$BLDNAM File=ZII$BLDNAM.:ZIC0TSI                           FRI 09/05/97 12:25 Page:44

   5174 45 000737   100004 236100                    LDQ     4,,PR1
        45 000740   000015 376000 46                 ANQ     13
        45 000741   000020 276003                    ORQ     16,DU
        45 000742   100004 756100                    STQ     4,,PR1
        45 000743   000754 710000 45                 TRA     s:5178

      282     5175    3                                                               ELSE
      283     5176    3                                            IF DESC_TYPE_9.LOGICAL THEN DSC_PARAM.TYPE
              5176                                                     = 17;

   5176 45 000744   000000 066500                    CMPB    filb='0'B
        45 000745   000010 650001                    BDSC    8,,PR0                   by=3,bit=5,n=1
        45 000746   000000 000022 46                 BDSC    0                        by=0,bit=0,n=18
        45 000747   000754 600000 45                 TZE     s:5178

   5176 45 000750   100004 236100                    LDQ     4,,PR1
        45 000751   000015 376000 46                 ANQ     13
        45 000752   000021 276003                    ORQ     17,DU
        45 000753   100004 756100                    STQ     4,,PR1

      284     5177
      285     5178    3                   IF DESC_TYPE_9.COMP_4 OR DESC_TYPE_9.COMP OR

   5178 45 000754   000000 066500                    CMPB    filb='0'B
        45 000755   000022 000001                    BDSC    18,,PR0                  by=0,bit=0,n=1
        45 000756   000000 000022 46                 BDSC    0                        by=0,bit=0,n=18
        45 000757   000776 601000 45                 TNZ     s:5180
        45 000760   000000 066500                    CMPB    filb='0'B
        45 000761   000021 610001                    BDSC    17,,PR0                  by=3,bit=1,n=1
        45 000762   000000 000022 46                 BDSC    0                        by=0,bit=0,n=18
        45 000763   000776 601000 45                 TNZ     s:5180
        45 000764   000000 066500                    CMPB    filb='0'B
        45 000765   000021 640001                    BDSC    17,,PR0                  by=3,bit=4,n=1
        45 000766   000000 000022 46                 BDSC    0                        by=0,bit=0,n=18
        45 000767   001001 600000 45                 TZE     s:5182
        45 000770   003100 060500                    CSL     bolr='003'O
PL6.E3A0      #001=ZII$BLDNAM File=ZII$BLDNAM.:ZIC0TSI                           FRI 09/05/97 12:25 Page:45
        45 000771   000022 640001                    BDSC    18,,PR0                  by=3,bit=4,n=1
        45 000772   200014 000044                    BDSC    SEG_SIZ+2,,AUTO          by=0,bit=0,n=36
        45 000773   200014 236100                    LDQ     SEG_SIZ+2,,AUTO
        45 000774   400000 676003                    ERQ     -131072,DU
        45 000775   001001 600000 45                 TZE     s:5182

      286     5179    3                      (DESC_TYPE_9.COMP_3 AND ~DESC_TYPE_9.COMP5A) THEN
      287     5180    3                       DSC_PARAM.BYT_NIB = '1'B;

   5180 45 000776   400000 236003                    LDQ     -131072,DU
        45 000777   100004 256100                    ORSQ    4,,PR1
        45 001000   001003 710000 45                 TRA     s:5183

      288     5181    3                   ELSE
      289     5182    3                       DSC_PARAM.BYT_NIB = '0'B;

   5182 45 001001   000023 236000 46                 LDQ     19
        45 001002   100004 356100                    ANSQ    4,,PR1

      290     5183    3                   DSC_PARAM.LEN = DESC_TYPE_9.LENGTH;

   5183 45 001003   000100 100500                    MLR     fill='000'O
        45 001004   000016 000004                    ADSC9   14,,PR0                  cn=0,n=4
        45 001005   100005 000004                    ADSC9   5,,PR1                   cn=0,n=4

      291     5184    3                   END;

   5184 45 001006   001012 710000 45                 TRA     s:5186

      292     5185    2               ELSE CALL ZII$ADD_NAM ALTRET(ER_ADD_NAM);
              5185                        /*Not a type_9 so just add info to NAM2*/

   5185 45 001007   000000 631400 46                 EPPR1   0
        45 001010   000000 701000 xent               TSX1    ZII$ADD_NAM
        45 001011   001053 702000 45                 TSX2    ER_CHKRNG

      293     5186    2           IF I<=2 THEN
PL6.E3A0      #001=ZII$BLDNAM File=ZII$BLDNAM.:ZIC0TSI                           FRI 09/05/97 12:25 Page:46

   5186 45 001012   200011 235100                    LDA     I,,AUTO
        45 001013   000003 115007                    CMPA    3,DL
        45 001014   001023 603000 45                 TRC     s:5191

      294     5187    3           DO;

      295     5188    3               I_O_IDX=I_O_IDX+1; /*Increment I_O_IDX */

   5188 45 001015   000000 236000 7                  LDQ     I_O_IDX
        45 001016   000001 036007                    ADLQ    1,DL
        45 001017   000000 756000 7                  STQ     I_O_IDX

      296     5189    3               CALL ZII$READ_SS ALTRET(ER_CHKRNG);

   5189 45 001020   000000 631400 46                 EPPR1   0
        45 001021   000000 701000 xent               TSX1    ZII$READ_SS
        45 001022   001053 702000 45                 TSX2    ER_CHKRNG

      297     5190    3               END;

      298     5191    2           END;

   5191 45 001023   200011 235100                    LDA     I,,AUTO
        45 001024   000003 115007                    CMPA    3,DL
        45 001025   000336 602000 45                 TNC     s:5106

      299     5192    1       CALL ZII$BLD_IA ALTRET(ER_BLD_IA); /*Go build the information area */

   5192 45 001026   000000 631400 46                 EPPR1   0
        45 001027   000000 701000 xent               TSX1    ZII$BLD_IA
        45 001030   001053 702000 45                 TSX2    ER_CHKRNG

      300     5193    1       IF PRC_CAL = #APL THEN CALL ZII$ADD_KEYWORDS ALTRET(ER_ADD_KEYWORDS);

   5193 45 001031   000000 235000 8                  LDA     PRC_CAL
        45 001032   000003 115007                    CMPA    3,DL
PL6.E3A0      #001=ZII$BLDNAM File=ZII$BLDNAM.:ZIC0TSI                           FRI 09/05/97 12:25 Page:47
        45 001033   001037 601000 45                 TNZ     s:5194

   5193 45 001034   000000 631400 46                 EPPR1   0
        45 001035   000000 701000 xent               TSX1    ZII$ADD_KEYWORDS
        45 001036   001053 702000 45                 TSX2    ER_CHKRNG

      301     5194    1       CLOSE_FPT.V.DCB#=SUBSCH.DCB#;

   5194 45 001037   000011 220000 14                 LDX0    SUBSCH+9
        45 001040   000124 740000 43                 STX0    CLOSE_FPT+26

      302     5195    1       CALL M$CLOSE (CLOSE_FPT) ALTRET(ER_CLOSE);

   5195 45 001041   000072 630400 43                 EPPR0   CLOSE_FPT
        45 001042   450001 713400                    CLIMB   alt,close
        45 001043   406000 401760                    pmme    nvectors=13
        45 001044   001057 702000 45                 TSX2    ER_CLOSE

      303     5196    1       CALL ZII$WRT_COMP_REC ALTRET(ER_WRT_COMP_REC);

   5196 45 001045   000000 631400 46                 EPPR1   0
        45 001046   000000 701000 xent               TSX1    ZII$WRT_COMP_REC
        45 001047   001065 702000 45                 TSX2    ER_WRT_COMP_REC

      304     5197    1   RET:
      305     5198    1       ZI$ENTRY_COUNT=NAM1_IDX;

   5198 45 001050   000000 235000 26    RET          LDA     NAM1_IDX
        45 001051   000000 755000 15                 STA     ZI$ENTRY_COUNT

      306     5199    1       RETURN;

   5199 45 001052   000000 702200 xent               TSX2  ! X66_ARET

   5194 45 001053                       ER_CHKRNG    null
   5194 45 001053                       ER_BLD_NAM   null
   5194 45 001053                       ER_BLD_IA    null
PL6.E3A0      #001=ZII$BLDNAM File=ZII$BLDNAM.:ZIC0TSI                           FRI 09/05/97 12:25 Page:48
   5194 45 001053                       ER_ADD_NAM   null
   5194 45 001053                       ER_ADD_KEYW* null
      307     5200    1   ER_CHKRNG: ;
      308     5201    1   ER_BLD_NAM:;
      309     5202    1   ER_BLD_IA: ;
      310     5203    1   ER_ADD_NAM:;
      311     5204    1   ER_ADD_KEYWORDS:;
      312     5205    1       GOTO COM_ERR;

   5205 45 001053   001066 710000 45                 TRA     COM_ERR

   5194 45 001054                       ER_OPEN      null
      313     5206    1   ER_OPEN: ;
      314     5207        /***************************************************************************/
      315     5208        /*E*
      316     5209              ERROR: ZII-#OPNER-C
      317     5210        MESSAGE: Cannot open the subschema file %U1.
      318     5211        */
      319     5212        /***************************************************************************/
      320     5213    1       ERROR_CODE=#OPNER;

   5213 45 001054   011612 235007                    LDA     5002,DL
        45 001055   000000 755000 9                  STA     ERROR_CODE

      321     5214    1       GOTO COM_ERR;

   5214 45 001056   001066 710000 45                 TRA     COM_ERR

      322     5215    1   ER_CLOSE:
      323     5216        /****************************************************************/
      324     5217        /*E*
      325     5218            ERROR: ZII-#CLOSE_ER-C
      326     5219            MESSAGE: Error in closing the subschema file.
      327     5220        */
      328     5221        /***************************************************************************/
      329     5222    1       ERROR_CODE=#CLOSE_ER;

PL6.E3A0      #001=ZII$BLDNAM File=ZII$BLDNAM.:ZIC0TSI                           FRI 09/05/97 12:25 Page:49
   5222 45 001057   011623 235007       ER_CLOSE     LDA     5011,DL
        45 001060   000000 755000 9                  STA     ERROR_CODE

      330     5223    1       GOTO COM_ERR;

   5223 45 001061   001066 710000 45                 TRA     COM_ERR

   5213 45 001062                       ER_FDDESC    null
      331     5224    1   ER_FDDESC:;
      332     5225        /***************************************************************************/
      333     5226        /*
      334     5227           ERROR: ZII-#BADDESC-C
      335     5228           MESSAGE: Cannot find  NAM2 descriptor for subschema %U1.
      336     5229        */
      337     5230        /***************************************************************************/
      338     5231    1       ERROR_CODE=#BADDESC;

   5231 45 001062   011611 235007                    LDA     5001,DL
        45 001063   000000 755000 9                  STA     ERROR_CODE

      339     5232    1       GOTO COM_ERR;

   5232 45 001064   001066 710000 45                 TRA     COM_ERR

      340     5233    1   ER_WRT_COMP_REC:
      341     5234    1       ALTRETURN;

   5234 45 001065   000000 702200 xent  ER_WRT_COMP* TSX2  ! X66_AALT

   5231 45 001066                       COM_ERR      null
      342     5235    1   COM_ERR: ;
      343     5236    1       CLOSE_FPT.V.DCB#=SUBSCH.DCB#;

   5236 45 001066   000011 220000 14                 LDX0    SUBSCH+9
        45 001067   000124 740000 43                 STX0    CLOSE_FPT+26

      344     5237    1       CALL M$CLOSE(CLOSE_FPT);
PL6.E3A0      #001=ZII$BLDNAM File=ZII$BLDNAM.:ZIC0TSI                           FRI 09/05/97 12:25 Page:50

   5237 45 001070   000072 630400 43                 EPPR0   CLOSE_FPT
        45 001071   050001 713400                    CLIMB   close
        45 001072   406000 401760                    pmme    nvectors=13

      345     5238    1       ALTRETURN;

   5238 45 001073   000000 702200 xent               TSX2  ! X66_AALT

LVL_STK
 Sect OctLoc
   4     000   ****** ******   ****** ******   ****** ******   ****** ******    ................

I_O_BUF
 Sect OctLoc
   6     000   ****** ******   ****** ******   ****** ******   ****** ******    ................

SUBSCH_CON_BLK
 Sect OctLoc
  10     000   ****** ******   ****** ******   ****** ******   ****** ******    ................

SUBSCH
 Sect OctLoc
  14     000   ****** ******   ****** ******   ****** ******   ****** ******    ................

OPEN_FPT
 Sect OctLoc
  43     000   000025 777640   000044 006000   000000 177640   000000 006014    .....$..........
  43     004   000000 177640   000000 006014   000000 177640   000000 006014    ................
  43     044*  000000 100052   000000 002001   252525 002002   000040 252520    ..@*......... ..
  43     050   000040 040040   000000 000000   000000 777777   000000 000000    .   ............
  43     054   000000 000000   000000 000000   000000 000000   000000 000000    ................
  43     060   251000 622000   000000 000000   000000 000000   111250 000000    ............I...
  43     064   040040 040040   000000 000000   000000 000000   000000 000000        ............
  43     070   000000 000000   ****** ******                                    ........

CLOSE_FPT
PL6.E3A0      #001=ZII$BLDNAM File=ZII$BLDNAM.:ZIC0TSI                           FRI 09/05/97 12:25 Page:51
 Sect OctLoc
  43     072   000003 777640   000124 006000   000000 177640   000000 006014    .....T..........
  43     076   000000 177640   000000 006014   000000 177640   000000 006014    ................
  43     122*  000000 177640   000000 006014   000000 000000   000000 000040    ...............
  43     126   000220 000000   000000 000000                                    ........

(unnamed)
 Sect OctLoc
  44     000   057052 057052   057052 057052   057052 057052                    /*/*/*/*/*/*

(unnamed)
 Sect OctLoc
  46     000   000000 000000   000057 777640   777777 600000   000001 777640    ...../..........
  46     004   000055 777640   000011 777640   001446 777640   000000 006014    .-..............
  46     010   400000 777777   000000 006000   000777 777777   000004 000000    ................
  46     014   400000 000000   600000 777777   000000 006000   000014 006000    ................
  46     020   100000 000000   200000 000000   300000 000000   377777 777777    @...............
      346     5239    1   END ZII$BLDNAM;
      347     5240        %EOD;

PL6.E3A0      #001=ZII$BLDNAM File=ZII$BLDNAM.:ZIC0TSI                           FRI 09/05/97 12:25 Page:52
--  Include file information  --

   ZI_ERRORS_SUBS.:ZIC0TOU  is referenced.
   ZI$USER.:ZIC0TOU  is referenced.
   ZI$DESC.:ZIC0TOU  is referenced.
   ZI_SUB_LANG.:ZIC0TOU  is referenced.
   ZI$STRUCTS.:ZIC0TOU  is referenced.
   CP_6_SUBS.:LIB_E05  is referenced.
   CP_6.:LIB_E05  cannot be made into a system file and is referenced.
   B$JIT_C.:E05TOU  was found in the system file and is never referenced.
   CP_6_C.:E05TOU  was found in the system file and is referenced.
      No diagnostics issued in procedure ZII$BLDNAM.

   Procedure ZII$BLDNAM requires 572 words for executable code.
   Procedure ZII$BLDNAM requires 16 words of local(AUTO) storage.
PL6.E3A0      #001=ZII$BLDNAM File=ZII$BLDNAM.:ZIC0TSI                           FRI 09/05/97 12:25 Page:53
          *** CROSS REFERENCE LISTING ***
**     DENOTES     IDENTIFIER DEFINITION
<<                 IDENTIFIER'S VALUE SET
>>                 IDENTIFIER'S VALUE USED
<>                 IDENTIFIER SET AND/OR USED
--                 IDENTIFIER REFERENCED
PL6.E3A0      #001=ZII$BLDNAM File=ZII$BLDNAM.:ZIC0TSI                           FRI 09/05/97 12:25 Page:54
          MINI XREF LISTING

A_SW
       775**DCL      5012<<ASSIGN
CLOSE_FPT
      4986**DCL      5195<>CALL     5237<>CALL
CLOSE_FPT.SN_
      4986**DCL      4986--REDEF
CLOSE_FPT.UTL_
      4987**DCL      4987--REDEF
CLOSE_FPT.V
      4991**DCL      4986--DCLINIT
CLOSE_FPT.V.DCB#
      4992**DCL      5194<<ASSIGN   5236<<ASSIGN
CLOSE_FPT.V.EXPIRE#
      5001**DCL      5001--REDEF
CLOSE_FPT.V.TYPE#
      4999**DCL      4999--REDEF
CLOSE_FPT.V.XTNSIZE#
      4996**DCL      4996--REDEF    4998--REDEF
COM_ERR
      5231**LABEL    5205--GOTO     5214--GOTO     5223--GOTO     5232--GOTO
CONTROL.FIRST_NFE_RECORD
      2744**DCL      5100>>ASSIGN   5102>>ASSIGN
CONTROL.FIRST_NF_RECORD
      2742**DCL      5070>>ASSIGN
CONTROL.FIRST_SDS_RECORD
      2743**DCL      5086>>ASSIGN
CONTROL.UWA_SIZE
      2709**DCL      5028>>ASSIGN   5031>>ASSIGN   5037>>ASSIGN
DA$
      3775**DCL      3776--IMP-PTR
DD$
      4017**DCL      4018--IMP-PTR  5115<>CALL     5116>>ASSIGN   5117>>ASSIGN
PL6.E3A0      #001=ZII$BLDNAM File=ZII$BLDNAM.:ZIC0TSI                           FRI 09/05/97 12:25 Page:55
DESC#
       917**DCL       922--IMP-SIZ  5048<<ASSIGN   5049>>ASSIGN
DESC_TYPE_9.ALPHABETIC
      2890**DCL      5139>>IF
DESC_TYPE_9.ALPHANUM
      2888**DCL      5139>>IF
DESC_TYPE_9.COMP
      2897**DCL      5123>>IF       5178>>IF
DESC_TYPE_9.COMP5A
      2915**DCL      5164>>IF       5167>>IF       5178>>IF
DESC_TYPE_9.COMPLEX
      2869**DCL      5172>>IF
DESC_TYPE_9.COMP_1
      2898**DCL      5162>>IF
DESC_TYPE_9.COMP_2
      2899**DCL      5164>>IF       5170>>IF
DESC_TYPE_9.COMP_3
      2900**DCL      5131>>IF       5167>>IF       5178>>IF
DESC_TYPE_9.COMP_4
      2905**DCL      5123>>IF       5178>>IF
DESC_TYPE_9.DB_KEY
      2902**DCL      5160>>IF
DESC_TYPE_9.DISPLAY
      2896**DCL      5142>>IF
DESC_TYPE_9.D_COMPLEX
      2870**DCL      5174>>IF
DESC_TYPE_9.F_DBK
      2866**DCL      5158>>IF
DESC_TYPE_9.LENGTH
      2876**DCL      5183>>ASSIGN
DESC_TYPE_9.LOGICAL
      2871**DCL      5176>>IF
DESC_TYPE_9.NAME
      2921**DCL      5113>>ASSIGN
DESC_TYPE_9.NAME_SIZE
      2920**DCL      5112>>ASSIGN
PL6.E3A0      #001=ZII$BLDNAM File=ZII$BLDNAM.:ZIC0TSI                           FRI 09/05/97 12:25 Page:56
DESC_TYPE_9.OFFSET
      2918**DCL      5120>>ASSIGN
DESC_TYPE_9.PIC_HAS_S
      2894**DCL      5125>>IF       5133>>IF       5144>>IF
DESC_TYPE_9.SIGN_TYP
      2910**DCL      5146>>IF       5148>>IF       5150>>IF       5152>>IF
DESC_TYPE_9.TYPE
      2854**DCL      5075>>IF       5109>>IF
DF$
      3831**DCL      3832--IMP-PTR
DK$
      3988**DCL      3989--IMP-PTR
DP$
      3999**DCL      4000--IMP-PTR  5117<<ASSIGN   5118>>ASSIGN   5119>>ASSIGN   5120>>ASSIGN   5121>>ASSIGN
      5122>>ASSIGN   5126>>ASSIGN   5128>>ASSIGN   5134>>ASSIGN   5136>>ASSIGN   5140>>ASSIGN   5146>>ASSIGN
      5148>>ASSIGN   5150>>ASSIGN   5152>>ASSIGN   5155>>ASSIGN   5158>>ASSIGN   5160>>ASSIGN   5162>>ASSIGN
      5165>>ASSIGN   5168>>ASSIGN   5170>>ASSIGN   5172>>ASSIGN   5174>>ASSIGN   5176>>ASSIGN   5180>>ASSIGN
      5182>>ASSIGN   5183>>ASSIGN
DR$
      3797**DCL      3798--IMP-PTR
DRA$
      4041**DCL      4042--IMP-PTR
DRFK$
      4025**DCL      4026--IMP-PTR
DRFS$
      4066**DCL      4067--IMP-PTR
DRP$
      4056**DCL      4057--IMP-PTR
DS$
      3946**DCL      3947--IMP-PTR
DSC_PARAM.BYT_NIB
      4006**DCL      5180<<ASSIGN   5182<<ASSIGN
DSC_PARAM.LEN
      4010**DCL      5183<<ASSIGN
DSC_PARAM.LLIST$
      4013**DCL      5122<<ASSIGN
PL6.E3A0      #001=ZII$BLDNAM File=ZII$BLDNAM.:ZIC0TSI                           FRI 09/05/97 12:25 Page:57
DSC_PARAM.NAM_IDX
      4001**DCL      5118<<ASSIGN
DSC_PARAM.RP_DSC$
      4012**DCL      5121<<ASSIGN
DSC_PARAM.RVA_OFF
      4002**DCL      5119<<ASSIGN
DSC_PARAM.TYPE
      4008**DCL      5126<<ASSIGN   5128<<ASSIGN   5134<<ASSIGN   5136<<ASSIGN   5140<<ASSIGN   5146<<ASSIGN
      5148<<ASSIGN   5150<<ASSIGN   5152<<ASSIGN   5155<<ASSIGN   5158<<ASSIGN   5160<<ASSIGN   5162<<ASSIGN
      5165<<ASSIGN   5168<<ASSIGN   5170<<ASSIGN   5172<<ASSIGN   5174<<ASSIGN   5176<<ASSIGN
DSC_PARAM.UWA_OFF
      4003**DCL      5120<<ASSIGN
ERROR_CODE
       761**DCL      5006<<ASSIGN   5213<<ASSIGN   5222<<ASSIGN   5231<<ASSIGN
ER_ADD_KEYWORDS
      5194**LABEL    5193--CALLALT
ER_ADD_NAM
      5194**LABEL    5090--CALLALT  5185--CALLALT
ER_BLD_IA
      5194**LABEL    5192--CALLALT
ER_BLD_NAM
      5194**LABEL    5076--CALLALT
ER_CHKRNG
      5194**LABEL    5071--CALLALT  5078--CALLALT  5087--CALLALT  5092--CALLALT  5101--CALLALT  5189--CALLALT
ER_CLOSE
      5222**LABEL    5195--CALLALT
ER_FDDESC
      5213**LABEL    5115--CALLALT
ER_OPEN
      5194**LABEL    5021--CALLALT
ER_WRT_COMP_REC
      5234**LABEL    5196--CALLALT
FIELD.EIS_BITS.NDSC
      3903**DCL      3932--REDEF
FIELD.FLAG_BITS_1
      3844**DCL      3845--REDEF
PL6.E3A0      #001=ZII$BLDNAM File=ZII$BLDNAM.:ZIC0TSI                           FRI 09/05/97 12:25 Page:58
FIELD.FLAG_BITS_2
      3871**DCL      3872--REDEF
I
       746**DCL      5051<<DOINDEX  5052>>ASSIGN   5103<<ASSIGN   5104>>DOWHILE  5108<<ASSIGN   5108>>ASSIGN
      5186>>IF
IA
      4276**DCL      5043--ASSIGN
IA.SNAME
      4297**DCL      4298--REDEF
IA.SSDT
      4309**DCL      4310--REDEF
IA.SSNAME
      4300**DCL      4301--REDEF
IA$
      4311**DCL      4276--IMP-PTR  5042<<ASSIGN   5043>>ASSIGN   5044>>ASSIGN
IA_
       706**DCL        27--PROC     5043<<ASSIGN
IA_.W2
       707**DCL       708--REDEF
IA_SIZ
       764**DCL      5044>>ASSIGN
I_O_BUF
       758**DCL      5072>>DOWHILE  5074--ASSIGN   5088>>DOWHILE  5089--ASSIGN   5106--ASSIGN   5107>>IF
I_O_IDX
       759**DCL      5069<<ASSIGN   5072>>DOWHILE  5074>>ASSIGN   5077<<ASSIGN   5077>>ASSIGN   5085<<ASSIGN
      5088>>DOWHILE  5089>>ASSIGN   5091<<ASSIGN   5091>>ASSIGN   5099<<ASSIGN   5102<<ASSIGN   5106>>ASSIGN
      5107>>IF       5188<<ASSIGN   5188>>ASSIGN
K_SW
       776**DCL      5013<<ASSIGN
LVL_STK
       755**DCL      5016<<ASSIGN
M$CLOSE
        37**DCL-ENT  5195--CALL     5237--CALL
M$OPEN
        37**DCL-ENT  5021--CALL
MEM_
PL6.E3A0      #001=ZII$BLDNAM File=ZII$BLDNAM.:ZIC0TSI                           FRI 09/05/97 12:25 Page:59
       661**DCL        27--PROC
MEM_.PTR$
       663**DCL       742--IMP-PTR  5014>>ASSIGN   5027>>ASSIGN   5038>>ASSIGN
MEM_.W1.VSIZE#
       661**DCL       744--IMP-SIZ  5014>>ASSIGN
MEM_.W2
       662**DCL       663--REDEF
NAM1
       893**DCL      5045--ASSIGN
NAM1.DESC$
       908**DCL      5116<<ASSIGN
NAM1.NAME.CNT
       906**DCL      5112<<ASSIGN
NAM1.NAME.TEXT
       907**DCL      5113<<ASSIGN   5115<>CALL
NAM1.TYPE
       894**DCL      5114<<ASSIGN   5115<>CALL
NAM1$
       890**DCL       893--IMP-PTR  5044<<ASSIGN   5045>>ASSIGN   5047>>ASSIGN   5112>>ASSIGN   5113>>ASSIGN
      5114>>ASSIGN   5115>>CALL     5115>>CALL     5116>>ASSIGN
NAM1_
       721**DCL        27--PROC     5045<<ASSIGN
NAM1_.W1.VSIZE#
       721**DCL      5046<<ASSIGN
NAM1_.W2
       722**DCL       723--REDEF
NAM1_IDX
       892**DCL      5111<<ASSIGN   5111>>ASSIGN   5112>>ASSIGN   5113>>ASSIGN   5114>>ASSIGN   5115>>CALL
      5115>>CALL     5116>>ASSIGN   5118>>ASSIGN   5198>>ASSIGN
NAM1_SIZ
       891**DCL      5046>>ASSIGN   5047>>ASSIGN
NAM2
       918**DCL      5049--ASSIGN
NAM2.DESC
       921**DCL       922--REDEF
NAM2.LLIST$
PL6.E3A0      #001=ZII$BLDNAM File=ZII$BLDNAM.:ZIC0TSI                           FRI 09/05/97 12:25 Page:60
       919**DCL      5052<<ASSIGN   5055--ASSIGN
NAM2$
       915**DCL       918--IMP-PTR  5047<<ASSIGN   5049>>ASSIGN   5052>>ASSIGN   5055>>ASSIGN
NAM2_
       736**DCL        27--PROC     5049<<ASSIGN
NAM2_.W1.VSIZE#
       736**DCL      5050<<ASSIGN
NAM2_.W2
       737**DCL       738--REDEF
NAM2_SIZ
       916**DCL      5048>>ASSIGN   5050>>ASSIGN
OPEN_FPT
      4919**DCL      5021<>CALL
OPEN_FPT.ACSVEH_
      4921**DCL      4922--REDEF
OPEN_FPT.ALTKEYS_
      4927**DCL      4928--REDEF    4928--REDEF
OPEN_FPT.HDR_
      4926**DCL      4927--REDEF
OPEN_FPT.TAB_
      4925**DCL      4926--REDEF
OPEN_FPT.UHL_
      4919**DCL      4920--REDEF    4920--REDEF
OPEN_FPT.V
      4928**DCL      4919--DCLINIT
OPEN_FPT.V.DCB#
      4928**DCL      5020<<ASSIGN
OPEN_FPT.V.FSN#
      4959**DCL      4959--REDEF    4959--REDEF
OPEN_FPT.WSN_
      4925**DCL      4925--REDEF
PRC_CAL
       760**DCL      5025>>IF       5193>>IF
REC$
       757**DCL      2850--IMP-PTR  5074<<ASSIGN   5075>>IF       5089<<ASSIGN   5106<<ASSIGN   5109>>IF
      5112>>ASSIGN   5113>>ASSIGN   5120>>ASSIGN   5123>>IF       5123>>IF       5125>>IF       5131>>IF
PL6.E3A0      #001=ZII$BLDNAM File=ZII$BLDNAM.:ZIC0TSI                           FRI 09/05/97 12:25 Page:61
      5133>>IF       5139>>IF       5139>>IF       5142>>IF       5144>>IF       5146>>IF       5148>>IF
      5150>>IF       5152>>IF       5158>>IF       5160>>IF       5162>>IF       5164>>IF       5164>>IF
      5167>>IF       5167>>IF       5170>>IF       5172>>IF       5174>>IF       5176>>IF       5178>>IF
      5178>>IF       5178>>IF       5178>>IF       5183>>ASSIGN
RECORD.FLAG_BITS
      3802**DCL      3803--REDEF
RVA
      4324**DCL      5040--ASSIGN
RVA.RVE.EO
      4330**DCL      4331--REDEF
RVA.RVE.T
      4331**DCL      5062<<ASSIGN
RVA.W1.COUNT
      4327**DCL      5063<<ASSIGN
RVA$
      4323**DCL      4324--IMP-PTR  5031<<ASSIGN   5038<<ASSIGN   5040>>ASSIGN   5042>>ASSIGN   5062>>ASSIGN
      5063>>ASSIGN
RVA_
       691**DCL        27--PROC     5040<<ASSIGN
RVA_.W1.VSIZE#
       691**DCL      5041<<ASSIGN
RVA_.W2
       692**DCL       693--REDEF
RVA_SIZ
       763**DCL      5041>>ASSIGN   5042>>ASSIGN
R_SW
       774**DCL      5011<<ASSIGN
SEG
       742**DCL      5014<<ASSIGN
SEG_SIZ
       747**DCL       748--REDEF     749--REDEF     750--REDEF
SET.FLAG_BITS
      3952**DCL      3953--REDEF
STK_IDX
       754**DCL      5017<<ASSIGN
SUBSCH.DCB#
PL6.E3A0      #001=ZII$BLDNAM File=ZII$BLDNAM.:ZIC0TSI                           FRI 09/05/97 12:25 Page:62
       770**DCL      5020>>ASSIGN   5194>>ASSIGN   5236>>ASSIGN
SUB_CONBLK$
       765**DCL      2704--IMP-PTR  5028>>ASSIGN   5031>>ASSIGN   5037>>ASSIGN   5070>>ASSIGN   5086>>ASSIGN
      5100>>ASSIGN   5102>>ASSIGN
S_SW
       773**DCL      5010<<ASSIGN
TNAM2$
       752**DCL      5055<<ASSIGN
UWA
       862**DCL      5029--ASSIGN
UWA#
       861**DCL       879--IMP-SIZ  5028<<ASSIGN   5029>>ASSIGN   5037<<ASSIGN
UWA$
       859**DCL       862--IMP-PTR  5027<<ASSIGN   5029>>ASSIGN   5031>>ASSIGN   5036<<ASSIGN
UWA_
       676**DCL        27--PROC     5029<<ASSIGN
UWA_.PTR$
       678**DCL      5036>>ASSIGN
UWA_.W1.VSIZE#
       676**DCL      5030<<ASSIGN
UWA_.W2
       677**DCL       678--REDEF
UWA_SIZ
       860**DCL      5030>>ASSIGN
ZI$ENTRY_COUNT
       771**DCL      5007<<ASSIGN   5198<<ASSIGN
ZI$KEY_NUMBER
       772**DCL      5070<<ASSIGN   5086<<ASSIGN   5100<<ASSIGN
ZII$ADD_KEYWORDS
       778**DCL-ENT  5193--CALL
ZII$ADD_NAM
       782**DCL-ENT  5090--CALL     5185--CALL
ZII$BLD_IA
       780**DCL-ENT  5192--CALL
ZII$BLD_NAM
       779**DCL-ENT  5076--CALL
PL6.E3A0      #001=ZII$BLDNAM File=ZII$BLDNAM.:ZIC0TSI                           FRI 09/05/97 12:25 Page:63
ZII$FDDESC
       783**DCL-ENT  5115--CALL
ZII$READ_SS
       781**DCL-ENT  5071--CALL     5078--CALL     5087--CALL     5092--CALL     5101--CALL     5189--CALL
ZII$WRT_COMP_REC
       784**DCL-ENT  5196--CALL

PL6.E3A0      #002=ZII$ADD_KEYWORDS File=ZII$BLDNAM.:ZIC0TSI                     FRI 09/05/97 12:26 Page:64
      348        1        /*T***********************************************************/
      349        2        /*T*                                                         */
      350        3        /*T* Copyright (c) Bull HN Information Systems Inc., 1997    */
      351        4        /*T*                                                         */
      352        5        /*T***********************************************************/
      353        6        /********************Ext Dcls**********/
      354        7        ZII$ADD_KEYWORDS: PROC ALTRET AVOID($PR5,$PR6,$PR7);
      355        8    1   DCL ERROR_CODE UBIN(36) EXT;
      356        9    1   DCL TNAM2$ PTR EXT;
      357       10    1   DCL HSH_VAL UBIN(36) EXT;
      358       11        /***********************auto  dcls*****/
      359       12    1   DCL I UBIN(36);
      360       13        /********************Entry Dcls********/
      361       14    1   DCL ZII$FDDESC ENTRY(5) ALTRET;
      362       15    1   DCL ZII$HASH ENTRY(3);
      363       16        /********************include files*****/
      364       17        %INCLUDE ZI$DESC;
      365      867        %DSC_KW (STCLASS="EXT");
      366      875        %APL_KEYWD_LIST;
      367     1259        %INCLUDE ZI_ERRORS_SUBS;
      368     1779        %INCLUDE ZI$STRUCTS;
      369     1851        %NAM1;
      370     1880        %NAM2;
      371     1894    2       DO I = 0 TO #KEYWDS-1 BY 1;
      372     1895    2           NAM1_IDX=NAM1_IDX+1;
      373     1896    2           NAM1(NAM1_IDX)=KEYWD(I);
      374     1897    2           CALL ZII$FDDESC(NAM1.NAME.TEXT(NAM1_IDX),#KEYWORD,DKW$,#STORE,) ALTRET(
              1897                    ER_FDDESC);
      375     1898
      376     1899    2           NAM1.DESC$(NAM1_IDX)=DKW$;
      377     1900    2           KEYWRD.NAM_IDX=NAM1_IDX;
      378     1901    2           KEYWRD.CON_VALUE=KEYWD.ENT.VALUE(I);
      379     1902    2           KEYWRD.LLIST$=ADDR(NIL);
      380     1903    2           END;
      381     1904    1       RETURN;
      382     1905    1   ER_FDDESC:;
      383     1906        /****************************************************************************/
PL6.E3A0      #002=ZII$ADD_KEYWORDS File=ZII$BLDNAM.:ZIC0TSI                     FRI 09/05/97 12:26 Page:65
      384     1907        /*
      385     1908           ERROR: ZII-#BADDESC-C
      386     1909           MESSAGE: Cannot find  NAM2 descriptor for subschema %U1.
      387     1910        */
      388     1911        /****************************************************************************/
      389     1912    1       ERROR_CODE=#BADDESC;
      390     1913    1       ALTRETURN;
      391     1914    1   END ZII$ADD_KEYWORDS;

PL6.E3A0      #002=ZII$ADD_KEYWORDS File=ZII$BLDNAM.:ZIC0TSI                     FRI 09/05/97 12:26 Page:66
--  Include file information  --

   ZI$STRUCTS.:ZIC0TOU  is referenced.
   ZI_ERRORS_SUBS.:ZIC0TOU  is referenced.
   ZI$DESC.:ZIC0TOU  is referenced.
   B$JIT_C.:E05TOU  was found in the system file and is never referenced.
   CP_6_C.:E05TOU  was found in the system file and is never referenced.
      No diagnostics issued in procedure ZII$ADD_KEYWORDS.

   Procedure ZII$ADD_KEYWORDS requires 55 words for executable code.
   Procedure ZII$ADD_KEYWORDS requires 8 words of local(AUTO) storage.

    No errors detected in file ZII$BLDNAM.:ZIC0TSI    .

PL6.E3A0      #002=ZII$ADD_KEYWORDS File=ZII$BLDNAM.:ZIC0TSI                     FRI 09/05/97 12:26 Page:67

 Object Unit name= ZII$ADD_KEYWORDS                           File name= ZII$BLDNAM.:ZIC0TOU
 UTS= SEP 05 '97 12:26:15.08 FRI                              Compiler= PL-6/E31         Sev=      00
 SharedLib= :SHARED_SYSTEM                                    Alt SharedLib=


    ****  Control sections  ****

 Sect   Type Bound  Init  Size OctSiz  Section name(segment info)
    0  LblCom even  none     1      1  ERROR_CODE
    1  LblCom even  none     1      1  TNAM2$
    2  LblCom even  none     1      1  HSH_VAL
    3  LblCom even  none     1      1  DKW$
    4  RoData even  UTS    450    702  ZII$ADD_KEYWORDS
    5  LblCom even  none     1      1  NAM1$
    6  LblCom even  none     1      1  NAM1_SIZ
    7  LblCom even  none     1      1  NAM1_IDX
    8  LblCom even  none     1      1  NAM2$
    9  LblCom even  none     1      1  NAM2_SIZ
   10  LblCom even  none     1      1  DESC#
   11   Proc  even  none    55     67  ZII$ADD_KEYWORDS
   12  RoData even  none     7      7  ZII$ADD_KEYWORDS

    ****  Entry defs  ****

                              Check   Calling
                             calling  sequence
  Sect OctLoc Primary Altret sequence   type   Parms  Name
    11      0   yes    yes     yes      XStd       0  ZII$ADD_KEYWORDS
PL6.E3A0      #002=ZII$ADD_KEYWORDS File=ZII$BLDNAM.:ZIC0TSI                     FRI 09/05/97 12:26 Page:68

  ****  Entry refs  ****

         Check        Calling
        calling       sequence
Altret sequence SRef   type   Args  Name
 yes     yes           XStd      5 ZII$FDDESC
                       nStd      0 X66_AUTO_0
                       nStd      0 X66_ARET
                       nStd      0 X66_AALT

  ****  Segment refs  ****

  Flags:  r = read only, s = secondary
Flgs Name                             Flgs Name                             Flgs Name
     NULLSID                               ISSID
PL6.E3A0      #002=ZII$ADD_KEYWORDS File=ZII$BLDNAM.:ZIC0TSI                     FRI 09/05/97 12:26 Page:69


      348        1        /*T***********************************************************/
      349        2        /*T*                                                         */
      350        3        /*T* Copyright (c) Bull HN Information Systems Inc., 1997    */
      351        4        /*T*                                                         */
      352        5        /*T***********************************************************/
      353        6        /********************Ext Dcls**********/
      354        7        ZII$ADD_KEYWORDS: PROC ALTRET AVOID($PR5,$PR6,$PR7);

      7 11 000000   000000 700200 xent  ZII$ADD_KEY* TSX0  ! X66_AUTO_0
        11 000001   000010 000000                    ZERO    8,0

      355        8    1   DCL ERROR_CODE UBIN(36) EXT;
      356        9    1   DCL TNAM2$ PTR EXT;
      357       10    1   DCL HSH_VAL UBIN(36) EXT;
      358       11        /***********************auto  dcls*****/
      359       12    1   DCL I UBIN(36);
      360       13        /********************Entry Dcls********/
      361       14    1   DCL ZII$FDDESC ENTRY(5) ALTRET;
      362       15    1   DCL ZII$HASH ENTRY(3);
      363       16        /********************include files*****/
      364       17        %INCLUDE ZI$DESC;
      365      867        %DSC_KW (STCLASS="EXT");
      366      875        %APL_KEYWD_LIST;
      367     1259        %INCLUDE ZI_ERRORS_SUBS;
      368     1779        %INCLUDE ZI$STRUCTS;
      369     1851        %NAM1;
      370     1880        %NAM2;
      371     1894    2       DO I = 0 TO #KEYWDS-1 BY 1;

   1894 11 000002   200003 450100                    STZ     I,,AUTO
        11 000003   000060 710000 11                 TRA     s:1903+3

      372     1895    2           NAM1_IDX=NAM1_IDX+1;

   1895 11 000004   000000 054000 7                  AOS     NAM1_IDX

PL6.E3A0      #002=ZII$ADD_KEYWORDS File=ZII$BLDNAM.:ZIC0TSI                     FRI 09/05/97 12:26 Page:70
      373     1896    2           NAM1(NAM1_IDX)=KEYWD(I);

   1896 11 000005   200003 236100                    LDQ     I,,AUTO
        11 000006   000050 402007                    MPY     40,DL
        11 000007   200004 756100                    STQ     I+1,,AUTO
        11 000010   000000 236000 7                  LDQ     NAM1_IDX
        11 000011   000050 402007                    MPY     40,DL
        11 000012   200004 235100                    LDA     I+1,,AUTO
        11 000013   000000 470400 5                  LDP0    NAM1$
        11 000014   000106 100405                    MLR     fill='000'O
        11 000015   000000 000050 4                  ADSC9   APL_KEYWDS,A             cn=0,n=40
        11 000016   000000 000050                    ADSC9   0,Q,PR0                  cn=0,n=40

      374     1897    2           CALL ZII$FDDESC(NAM1.NAME.TEXT(NAM1_IDX),#KEYWORD,DKW$,#STORE,) ALTRET(
              1897                    ER_FDDESC);

   1897 11 000017   000004 237000 12                 LDAQ    4
        11 000020   200006 757100                    STAQ    I+3,,AUTO
        11 000021   000003 236000 12                 LDQ     3
        11 000022   200005 756100                    STQ     I+2,,AUTO
        11 000023   000000 236000 7                  LDQ     NAM1_IDX
        11 000024   000012 402003                    MPY     10,DU
        11 000025   000001 036003                    ADLQ    1,DU
        11 000026   000000 036000 5                  ADLQ    NAM1$
        11 000027   200004 756100                    STQ     I+1,,AUTO
        11 000030   200004 630500                    EPPR0   I+1,,AUTO
        11 000031   000000 631400 12                 EPPR1   0
        11 000032   000000 701000 xent               TSX1    ZII$FDDESC
        11 000033   000064 702000 11                 TSX2    ER_FDDESC

      375     1898
      376     1899    2           NAM1.DESC$(NAM1_IDX)=DKW$;

   1899 11 000034   000000 236000 7                  LDQ     NAM1_IDX
        11 000035   000012 402007                    MPY     10,DL
        11 000036   000000 620006                    EAX0    0,QL
        11 000037   000000 236000 3                  LDQ     DKW$
PL6.E3A0      #002=ZII$ADD_KEYWORDS File=ZII$BLDNAM.:ZIC0TSI                     FRI 09/05/97 12:26 Page:71
        11 000040   000000 470400 5                  LDP0    NAM1$
        11 000041   000011 756110                    STQ     9,X0,PR0

      377     1900    2           KEYWRD.NAM_IDX=NAM1_IDX;

   1900 11 000042   000000 720000 7                  LXL0    NAM1_IDX
        11 000043   000000 470400 3                  LDP0    DKW$
        11 000044   000000 740100                    STX0    0,,PR0

      378     1901    2           KEYWRD.CON_VALUE=KEYWD.ENT.VALUE(I);

   1901 11 000045   200003 236100                    LDQ     I,,AUTO
        11 000046   000012 402007                    MPY     10,DL
        11 000047   000011 720006 4                  LXL0    APL_KEYWDS+9,QL
        11 000050   000000 470400 3                  LDP0    DKW$
        11 000051   000000 440100                    SXL0    0,,PR0

      379     1902    2           KEYWRD.LLIST$=ADDR(NIL);

   1902 11 000052   000006 236000 12                 LDQ     6
        11 000053   000000 470400 3                  LDP0    DKW$
        11 000054   000010 756100                    STQ     8,,PR0

      380     1903    2           END;

   1903 11 000055   200003 235100                    LDA     I,,AUTO
        11 000056   000001 035007                    ADLA    1,DL
        11 000057   200003 755100                    STA     I,,AUTO
        11 000060   200003 235100                    LDA     I,,AUTO
        11 000061   000055 115007                    CMPA    45,DL
        11 000062   000004 602000 11                 TNC     s:1895

      381     1904    1       RETURN;

   1904 11 000063   000000 702200 xent               TSX2  ! X66_ARET

   1902 11 000064                       ER_FDDESC    null
PL6.E3A0      #002=ZII$ADD_KEYWORDS File=ZII$BLDNAM.:ZIC0TSI                     FRI 09/05/97 12:26 Page:72
      382     1905    1   ER_FDDESC:;
      383     1906        /****************************************************************************/
      384     1907        /*
      385     1908           ERROR: ZII-#BADDESC-C
      386     1909           MESSAGE: Cannot find  NAM2 descriptor for subschema %U1.
      387     1910        */
      388     1911        /****************************************************************************/
      389     1912    1       ERROR_CODE=#BADDESC;

   1912 11 000064   011611 235007                    LDA     5001,DL
        11 000065   000000 755000 0                  STA     ERROR_CODE

      390     1913    1       ALTRETURN;

   1913 11 000066   000000 702200 xent               TSX2  ! X66_AALT

APL_KEYWDS
 Sect OctLoc
   4     000   007000 000003   101114 114040   040040 040040   040040 040040    ....ALL
   4     004   040040 040040   040040 040040   040040 040040   040040 040040
   4     010   040040 040040   000000 000006   007000 000003   101116 131040        ........ANY
   4     014   040040 040040   040040 040040   040040 040040   040040 040040
   4     020   040040 040040   040040 040040   040040 040040   000000 000007                ....
   4     024   007000 000010   122105 101114   115116 101115   105040 040040    ....REALMNAME
   4     030   040040 040040   040040 040040   040040 040040   040040 040040
   4     034   040040 040040   000000 000010   007000 000004   122105 101114        ........REAL
   4     040   115040 040040   040040 040040   040040 040040   040040 040040    M
   4     044   040040 040040   040040 040040   040040 040040   000000 000011                ....
   4     050   007000 000011   103125 122122   105116 103131   040040 040040    ....CURRENCY
   4     054   040040 040040   040040 040040   040040 040040   040040 040040
   4     060   040040 040040   000000 000012   007000 000010   103125 122122        ........CURR
   4     064   105116 124040   040040 040040   040040 040040   040040 040040    ENT
   4     070   040040 040040   040040 040040   040040 040040   000000 000013                ....
   4     074   007000 000005   104102 113105   131040 040040   040040 040040    ....DBKEY
   4     100   040040 040040   040040 040040   040040 040040   040040 040040
   4     104   040040 040040   000000 000014   007000 000011   104125 120114        ........DUPL
   4     110   111103 101124   105040 040040   040040 040040   040040 040040    ICATE
PL6.E3A0      #002=ZII$ADD_KEYWORDS File=ZII$BLDNAM.:ZIC0TSI                     FRI 09/05/97 12:26 Page:73
   4     114   040040 040040   040040 040040   040040 040040   000000 000015                ....
   4     120   007000 000005   106111 122123   124040 040040   040040 040040    ....FIRST
   4     124   040040 040040   040040 040040   040040 040040   040040 040040
   4     130   040040 040040   000000 000016   007000 000011   111116 103114        ........INCL
   4     134   125104 111116   107040 040040   040040 040040   040040 040040    UDING
   4     140   040040 040040   040040 040040   040040 040040   000000 000017                ....
   4     144   007000 000004   111124 105115   040040 040040   040040 040040    ....ITEM
   4     150   040040 040040   040040 040040   040040 040040   040040 040040
   4     154   040040 040040   000000 000020   007000 000004   114101 123124        ........LAST
   4     160   040040 040040   040040 040040   040040 040040   040040 040040
   4     164   040040 040040   040040 040040   040040 040040   000000 000021                ....
   4     170   007000 000004   114117 101104   040040 040040   040040 040040    ....LOAD
   4     174   040040 040040   040040 040040   040040 040040   040040 040040
   4     200   040040 040040   000000 000022   007000 000004   116105 130124        ........NEXT
   4     204   040040 040040   040040 040040   040040 040040   040040 040040
   4     210   040040 040040   040040 040040   040040 040040   000000 000023                ....
   4     214   007000 000007   116117 123110   101122 105040   040040 040040    ....NOSHARE
   4     220   040040 040040   040040 040040   040040 040040   040040 040040
   4     224   040040 040040   000000 000024   007000 000004   117116 114131        ........ONLY
   4     230   040040 040040   040040 040040   040040 040040   040040 040040
   4     234   040040 040040   040040 040040   040040 040040   000000 000025                ....
   4     240   007000 000005   117127 116105   122040 040040   040040 040040    ....OWNER
   4     244   040040 040040   040040 040040   040040 040040   040040 040040
   4     250   040040 040040   000000 000026   007000 000005   120122 111117        ........PRIO
   4     254   122040 040040   040040 040040   040040 040040   040040 040040    R
   4     260   040040 040040   040040 040040   040040 040040   000000 000027                ....
   4     264   007000 000006   122105 103117   122104 040040   040040 040040    ....RECORD
   4     270   040040 040040   040040 040040   040040 040040   040040 040040
   4     274   040040 040040   000000 000030   007000 000011   122105 124122        ........RETR
   4     300   111105 126101   114040 040040   040040 040040   040040 040040    IEVAL
   4     304   040040 040040   040040 040040   040040 040040   000000 000031                ....
   4     310   007000 000003   123105 124040   040040 040040   040040 040040    ....SET
   4     314   040040 040040   040040 040040   040040 040040   040040 040040
   4     320   040040 040040   000000 000032   007000 000004   123105 124123        ........SETS
   4     324   040040 040040   040040 040040   040040 040040   040040 040040
   4     330   040040 040040   040040 040040   040040 040040   000000 000033                ....
   4     334   007000 000010   123110 101122   105101 114114   040040 040040    ....SHAREALL
PL6.E3A0      #002=ZII$ADD_KEYWORDS File=ZII$BLDNAM.:ZIC0TSI                     FRI 09/05/97 12:26 Page:74
   4     340   040040 040040   040040 040040   040040 040040   040040 040040
   4     344   040040 040040   000000 000034   007000 000007   123110 101122        ........SHAR
   4     350   105111 116040   040040 040040   040040 040040   040040 040040    EIN
   4     354   040040 040040   040040 040040   040040 040040   000000 000036                ....
   4     360   007000 000006   125120 104101   124105 040040   040040 040040    ....UPDATE
   4     364   040040 040040   040040 040040   040040 040040   040040 040040
   4     370   040040 040040   000000 000037   007000 000005   125123 111116        ........USIN
   4     374   107040 040040   040040 040040   040040 040040   040040 040040    G
   4     400   040040 040040   040040 040040   040040 040040   000000 000040                ...
   4     404   007000 000006   127111 124110   111116 040040   040040 040040    ....WITHIN
   4     410   040040 040040   040040 040040   040040 040040   040040 040040
   4     414   040040 040040   000000 000041   007000 000003   106117 122040        ...!....FOR
   4     420   040040 040040   040040 040040   040040 040040   040040 040040
   4     424   040040 040040   040040 040040   040040 040040   000000 000042                ..."
   4     430   007000 000004   106122 117115   040040 040040   040040 040040    ....FROM
   4     434   040040 040040   040040 040040   040040 040040   040040 040040
   4     440   040040 040040   000000 000043   007000 000002   111123 040040        ...#....IS
   4     444   040040 040040   040040 040040   040040 040040   040040 040040
   4     450   040040 040040   040040 040040   040040 040040   000000 000044                ...$
   4     454   007000 000007   115105 115102   105122 123040   040040 040040    ....MEMBERS
   4     460   040040 040040   040040 040040   040040 040040   040040 040040
   4     464   040040 040040   000000 000045   007000 000012   115105 115102        ...%....MEMB
   4     470   105122 123110   111120 040040   040040 040040   040040 040040    ERSHIP
   4     474   040040 040040   040040 040040   040040 040040   000000 000046                ...&
   4     500   007000 000010   123110 101122   105101 116131   040040 040040    ....SHAREANY
   4     504   040040 040040   040040 040040   040040 040040   040040 040040
   4     510   040040 040040   000000 000035   007000 000002   124117 040040        ........TO
   4     514   040040 040040   040040 040040   040040 040040   040040 040040
   4     520   040040 040040   040040 040040   040040 040040   000000 000047                ...'
   4     524   007000 000005   125123 101107   105040 040040   040040 040040    ....USAGE
   4     530   040040 040040   040040 040040   040040 040040   040040 040040
   4     534   040040 040040   000000 000050   007000 000011   125123 101107        ...(....USAG
   4     540   105115 117104   105040 040040   040040 040040   040040 040040    EMODE
   4     544   040040 040040   040040 040040   040040 040040   000000 000050                ...(
   4     550   007000 000007   103117 116116   105103 124040   040040 040040    ....CONNECT
   4     554   040040 040040   040040 040040   040040 040040   040040 040040
   4     560   040040 040040   000000 000051   007000 000012   104111 123103        ...)....DISC
PL6.E3A0      #002=ZII$ADD_KEYWORDS File=ZII$BLDNAM.:ZIC0TSI                     FRI 09/05/97 12:26 Page:75
   4     564   117116 116105   103124 040040   040040 040040   040040 040040    ONNECT
   4     570   040040 040040   040040 040040   040040 040040   000000 000052                ...*
   4     574   007000 000005   123124 117122   105040 040040   040040 040040    ....STORE
   4     600   040040 040040   040040 040040   040040 040040   040040 040040
   4     604   040040 040040   000000 000053   007000 000005   105122 101123        ...+....ERAS
   4     610   105040 040040   040040 040040   040040 040040   040040 040040    E
   4     614   040040 040040   040040 040040   040040 040040   000000 000054                ...,
   4     620   007000 000006   115117 104111   106131 040040   040040 040040    ....MODIFY
   4     624   040040 040040   040040 040040   040040 040040   040040 040040
   4     630   040040 040040   000000 000055   007000 000004   106111 116104        ...-....FIND
   4     634   040040 040040   040040 040040   040040 040040   040040 040040
   4     640   040040 040040   040040 040040   040040 040040   000000 000056                ....
   4     644   007000 000003   107105 124040   040040 040040   040040 040040    ....GET
   4     650   040040 040040   040040 040040   040040 040040   040040 040040
   4     654   040040 040040   000000 000057   007000 000010   123110 101122        .../....SHAR
   4     660   105103 125122   040040 040040   040040 040040   040040 040040    ECUR
   4     664   040040 040040   040040 040040   040040 040040   000000 000060                ...0
   4     670   007000 000012   123110 101122   105111 116103   125122 040040    ....SHAREINCUR
   4     674   040040 040040   040040 040040   040040 040040   040040 040040
   4     700   040040 040040   000000 000061                                        ...1

(unnamed)
 Sect OctLoc
  12     000   000004 000000   000000 000007   400000 000000   000001 006000    ................
  12     004   000000 006000   000002 006000   000000 006014                    ............
      391     1914    1   END ZII$ADD_KEYWORDS;

PL6.E3A0      #002=ZII$ADD_KEYWORDS File=ZII$BLDNAM.:ZIC0TSI                     FRI 09/05/97 12:26 Page:76
--  Include file information  --

   ZI$STRUCTS.:ZIC0TOU  is referenced.
   ZI_ERRORS_SUBS.:ZIC0TOU  is referenced.
   ZI$DESC.:ZIC0TOU  is referenced.
   B$JIT_C.:E05TOU  was found in the system file and is never referenced.
   CP_6_C.:E05TOU  was found in the system file and is never referenced.
      No diagnostics issued in procedure ZII$ADD_KEYWORDS.

   Procedure ZII$ADD_KEYWORDS requires 55 words for executable code.
   Procedure ZII$ADD_KEYWORDS requires 8 words of local(AUTO) storage.

    No errors detected in file ZII$BLDNAM.:ZIC0TSI    .
PL6.E3A0      #002=ZII$ADD_KEYWORDS File=ZII$BLDNAM.:ZIC0TSI                     FRI 09/05/97 12:26 Page:77
          *** CROSS REFERENCE LISTING ***
**     DENOTES     IDENTIFIER DEFINITION
<<                 IDENTIFIER'S VALUE SET
>>                 IDENTIFIER'S VALUE USED
<>                 IDENTIFIER SET AND/OR USED
--                 IDENTIFIER REFERENCED
PL6.E3A0      #002=ZII$ADD_KEYWORDS File=ZII$BLDNAM.:ZIC0TSI                     FRI 09/05/97 12:26 Page:78
          MINI XREF LISTING

APL_KEYWDS
       934**DCL      1250--REDEF
DESC#
      1887**DCL      1892--IMP-SIZ
DKW$
       868**DCL       869--IMP-PTR  1897<>CALL     1899>>ASSIGN   1900>>ASSIGN   1901>>ASSIGN   1902>>ASSIGN
ERROR_CODE
         8**DCL      1912<<ASSIGN
ER_FDDESC
      1902**LABEL    1897--CALLALT
I
        12**DCL      1894<<DOINDEX  1896>>ASSIGN   1901>>ASSIGN
KEYWD
      1250**DCL      1896>>ASSIGN
KEYWD.ENT.VALUE
      1257**DCL      1901>>ASSIGN
KEYWRD.CON_VALUE
       871**DCL      1901<<ASSIGN
KEYWRD.LLIST$
       873**DCL      1902<<ASSIGN
KEYWRD.NAM_IDX
       870**DCL      1900<<ASSIGN
NAM1
      1863**DCL      1896<<ASSIGN
NAM1.DESC$
      1878**DCL      1899<<ASSIGN
NAM1.NAME.TEXT
      1877**DCL      1897<>CALL
NAM1$
      1860**DCL      1863--IMP-PTR  1896>>ASSIGN   1897>>CALL     1899>>ASSIGN
NAM1_IDX
      1862**DCL      1895<<ASSIGN   1895>>ASSIGN   1896>>ASSIGN   1897>>CALL     1899>>ASSIGN   1900>>ASSIGN
PL6.E3A0      #002=ZII$ADD_KEYWORDS File=ZII$BLDNAM.:ZIC0TSI                     FRI 09/05/97 12:26 Page:79
NAM2.DESC
      1891**DCL      1892--REDEF
NAM2$
      1885**DCL      1888--IMP-PTR
ZII$FDDESC
        14**DCL-ENT  1897--CALL
