
PL6.E3A0      #001=ZII$BLD_IA File=ZII$BLD_IA.:ZIC0TSI                           FRI 09/05/97 12:26 Page:1
        1        1        /*T***********************************************************/
        2        2        /*T*                                                         */
        3        3        /*T* Copyright (c) Bull HN Information Systems Inc., 1997    */
        4        4        /*T*                                                         */
        5        5        /*T***********************************************************/
        6        6        /*M:           I-d-s/ii              interface module     */
        7        7        /*P*
        8        8          NAME: ZII$BLD_IA
        9        9          PURPOSE:  Used to build the information area (IA) used by IDS
       10       10                    on calls to the ASL
       11       11        */
       12       12        /***************************************************************/
       13       13        ZII$BLD_IA: PROC ALTRET AVOID($PR5,$PR6,$PR7);
       14       14        /***************STATIC DCLS*****************/
       15       15    1   DCL ONE_CHANGE (0:3) CHAR(2) STATIC INIT('  ',
       16       16    1   '-_', /*COBOL*/
       17       17    1   '$_', /*FORTRAN*/
       18       18    1   '__'); /*APL*/
       19       19        /*****************AUTO DCLS******************/
       20       20    1   DCL INDX UBIN(36);
       21       21        /*****************EXT DCLS****************/
       22       22    1   DCL 1 SUBSCH EXT,
       23       23    1         2 NAME,
       24       24    1           3 CNT UBIN(9) UNAL,
       25       25    1           3 TEXT CHAR(32) UNAL,
       26       26    1         2 DCB# UBIN(18) ALIGNED;
       27       27    1   DCL ERROR_CODE UBIN(36) EXT;
       28       28    1   DCL PRC_CAL UBIN(36) EXT;
       29       29    1   DCL SUBSCH_CON_BLK (0:63) UBIN(36) EXT;
       30       30    1   DCL SUB_CONBLK$ PTR EXT;
       31       31        /****************INCLUDE FILES***************/
       32       32        %INCLUDE ZI$USER;
       33      177        %IA (STCLASS="EXT");
       34      226        %RVA (STCLASS="EXT");
       35      239        %INCLUDE ZI_SUB_LANG;
       36     1954        %CONTROL_BLOCK (STCLASS="BASED(SUB_CONBLK$)");
       37     2062        %INCLUDE CP_6;
PL6.E3A0      #001=ZII$BLD_IA File=ZII$BLD_IA.:ZIC0TSI                           FRI 09/05/97 12:26 Page:2
       38     2143        %INCLUDE CP_6_SUBS;
       39     2683        %FPT_TIME(SOURCE=CLOCK,DEST=UTS);
       40     2702        %F$DCB;
       41     2759        %INCLUDE ZI_ERRORS_SUBS;
       42     3279        %INCLUDE ZI$DESC;
       43     4129        %PROC_SUBS;
       44     4136        /**/
       45     4137    1       IA.SNAME=CONTROL.SCHEMA_NAME;
       46     4138    1       IF CONTROL.LANGUAGE ~= #APL THEN /* Not APL */
       47     4139    2       DO WHILE ('1'B);
       48     4140    2           CALL INDEX1(INDX,SUBSTR(ONE_CHANGE(CONTROL.LANGUAGE),0,1),IA.SNAME) ALTRET(
              4140                    ALTINST);
       49     4141    2           CALL INSERT(IA.SNAME,INDX,1,SUBSTR(ONE_CHANGE(CONTROL.LANGUAGE),1,1)) ALTRET
              4141                    (ALTINST);
       50     4142    2           END;
       51     4143    1   ALTINST:
       52     4144    1       IA.SSNAME=CONTROL.SUBSCHEMA_NAME; /*Put the  subschema name into the ia */
       53     4145    1       IA.SSTDT(1)=CONTROL.SUBSCHEMA_UTS;
       54     4146    1       IA.SSTDT(0)=0;
       55     4147    1       IA.RVP=RVA$; /*Put in the rva pointer  (not really needed) */
       56     4148    1       IF PRC_CAL=#APL THEN /* Is this routine being called from apl*/
       57     4149    2       DO;
       58     4150    2           IA.PNAME='APL';
       59     4151    2           IA.EC=6;
       60     4152    2           END;
       61     4153    1       ELSE IF PRC_CAL=#IDP THEN /*Is this routine being called from idp ? */
       62     4154    2           DO;
       63     4155    2               IA.PNAME='IDP';
       64     4156    2               IA.EC=7;
       65     4157    2               END;
       66     4158    1       IA.AUTHOR=DCBADDR(SUBSCH.DCB#)->F$DCB.ACCT#;
              4158                /*Get the account of who running the prog. for the author field*/
       67     4159    1       FPT_TIME.TSTAMP_=VECTOR(IA.CMPTIME);
              4159                /*Get a tstamp of what time this progam is being run*/
       68     4160    1       CALL M$TIME(FPT_TIME) ALTRET(ER_TIME);
       69     4161         /* Ia is now built and ready to return */
       70     4162    1       RETURN;
PL6.E3A0      #001=ZII$BLD_IA File=ZII$BLD_IA.:ZIC0TSI                           FRI 09/05/97 12:26 Page:3
       71     4163    1   ER_TIME:
       72     4164        /**********************************************************/
       73     4165        /*E*
       74     4166           ERROR: ZII-#BADTME-C
       75     4167           MESSAGE: ERROR in getting TSTAMP in IA for subschema %U1.
       76     4168        */
       77     4169        /**************************************************************/
       78     4170    1       ERROR_CODE=#BADTME;
       79     4171    1       ALTRETURN;
       80     4172    1   END ZII$BLD_IA;

PL6.E3A0      #001=ZII$BLD_IA File=ZII$BLD_IA.:ZIC0TSI                           FRI 09/05/97 12:26 Page:4
--  Include file information  --

   ZI$DESC.:ZIC0TOU  is referenced.
   ZI_ERRORS_SUBS.:ZIC0TOU  is referenced.
   CP_6_SUBS.:LIB_E05  is referenced.
   CP_6.:LIB_E05  cannot be made into a system file and is referenced.
   ZI_SUB_LANG.:ZIC0TOU  is referenced.
   ZI$USER.:ZIC0TOU  is referenced.
   B$JIT_C.:E05TOU  was found in the system file and is never referenced.
   CP_6_C.:E05TOU  was found in the system file and is referenced.
      No diagnostics issued in procedure ZII$BLD_IA.

   Procedure ZII$BLD_IA requires 71 words for executable code.
   Procedure ZII$BLD_IA requires 4 words of local(AUTO) storage.

    No errors detected in file ZII$BLD_IA.:ZIC0TSI    .

PL6.E3A0      #001=ZII$BLD_IA File=ZII$BLD_IA.:ZIC0TSI                           FRI 09/05/97 12:26 Page:5

 Object Unit name= ZII$BLD_IA                                 File name= ZII$BLD_IA.:ZIC0TOU
 UTS= SEP 05 '97 12:26:29.68 FRI                              Compiler= PL-6/E31         Sev=      00
 SharedLib= :SHARED_SYSTEM                                    Alt SharedLib=


    ****  Control sections  ****

 Sect   Type Bound  Init  Size OctSiz  Section name(segment info)
    0   Data  even  none    14     16  ZII$BLD_IA
    1  LblCom even  none    10     12  SUBSCH
    2  LblCom even  none     1      1  ERROR_CODE
    3  LblCom even  none     1      1  PRC_CAL
    4  LblCom even  none    64    100  SUBSCH_CON_BLK
    5  LblCom even  none     1      1  SUB_CONBLK$
    6  LblCom even  none     1      1  IA$
    7  LblCom even  none     1      1  RVA$
    8   DCB   even  none     0      0  M$UC
    9  RoData even  UTS      2      2  ZII$BLD_IA
   10   Proc  even  none    71    107  ZII$BLD_IA
   11  RoData even  none     1      1  ZII$BLD_IA

    ****  Entry defs  ****

                              Check   Calling
                             calling  sequence
  Sect OctLoc Primary Altret sequence   type   Parms  Name
    10      0   yes    yes     yes      XStd       0  ZII$BLD_IA

  ****  Entry refs  ****

         Check        Calling
        calling       sequence
Altret sequence SRef   type   Args  Name
                       nStd      0 X66_AUTO_0
                       nStd      0 X66_ARET
                       nStd      0 X66_AALT
PL6.E3A0      #001=ZII$BLD_IA File=ZII$BLD_IA.:ZIC0TSI                           FRI 09/05/97 12:26 Page:6

  ****  Data refs  ****

  Flags:  r = read only, s = secondary
Flgs Name                             Flgs Name                             Flgs Name
     M$UC

  ****  Segment refs  ****

  Flags:  r = read only, s = secondary
Flgs Name                             Flgs Name                             Flgs Name
     ISSID                                 NULLSID                               ROSID
PL6.E3A0      #001=ZII$BLD_IA File=ZII$BLD_IA.:ZIC0TSI                           FRI 09/05/97 12:26 Page:7


        1        1        /*T***********************************************************/
        2        2        /*T*                                                         */
        3        3        /*T* Copyright (c) Bull HN Information Systems Inc., 1997    */
        4        4        /*T*                                                         */
        5        5        /*T***********************************************************/
        6        6        /*M:           I-d-s/ii              interface module     */
        7        7        /*P*
        8        8          NAME: ZII$BLD_IA
        9        9          PURPOSE:  Used to build the information area (IA) used by IDS
       10       10                    on calls to the ASL
       11       11        */
       12       12        /***************************************************************/
       13       13        ZII$BLD_IA: PROC ALTRET AVOID($PR5,$PR6,$PR7);

     13 10 000000   000000 700200 xent  ZII$BLD_IA   TSX0  ! X66_AUTO_0
        10 000001   000004 000000                    ZERO    4,0

       14       14        /***************STATIC DCLS*****************/
       15       15    1   DCL ONE_CHANGE (0:3) CHAR(2) STATIC INIT('  ',
       16       16    1   '-_', /*COBOL*/
       17       17    1   '$_', /*FORTRAN*/
       18       18    1   '__'); /*APL*/
       19       19        /*****************AUTO DCLS******************/
       20       20    1   DCL INDX UBIN(36);
       21       21        /*****************EXT DCLS****************/
       22       22    1   DCL 1 SUBSCH EXT,
       23       23    1         2 NAME,
       24       24    1           3 CNT UBIN(9) UNAL,
       25       25    1           3 TEXT CHAR(32) UNAL,
       26       26    1         2 DCB# UBIN(18) ALIGNED;
       27       27    1   DCL ERROR_CODE UBIN(36) EXT;
       28       28    1   DCL PRC_CAL UBIN(36) EXT;
       29       29    1   DCL SUBSCH_CON_BLK (0:63) UBIN(36) EXT;
       30       30    1   DCL SUB_CONBLK$ PTR EXT;
       31       31        /****************INCLUDE FILES***************/
       32       32        %INCLUDE ZI$USER;
PL6.E3A0      #001=ZII$BLD_IA File=ZII$BLD_IA.:ZIC0TSI                           FRI 09/05/97 12:26 Page:8
       33      177        %IA (STCLASS="EXT");
       34      226        %RVA (STCLASS="EXT");
       35      239        %INCLUDE ZI_SUB_LANG;
       36     1954        %CONTROL_BLOCK (STCLASS="BASED(SUB_CONBLK$)");
       37     2062        %INCLUDE CP_6;
       38     2143        %INCLUDE CP_6_SUBS;
       39     2683        %FPT_TIME(SOURCE=CLOCK,DEST=UTS);
       40     2702        %F$DCB;
       41     2759        %INCLUDE ZI_ERRORS_SUBS;
       42     3279        %INCLUDE ZI$DESC;
       43     4129        %PROC_SUBS;
       44     4136        /**/
       45     4137    1       IA.SNAME=CONTROL.SCHEMA_NAME;

   4137 10 000002   000000 470400 5                  LDP0    SUB_CONBLK$
        10 000003   000000 471400 6                  LDP1    IA$
        10 000004   040100 100500                    MLR     fill='040'O
        10 000005   000020 000036                    ADSC9   16,,PR0                  cn=0,n=30
        10 000006   100012 000036                    ADSC9   10,,PR1                  cn=0,n=30

       46     4138    1       IF CONTROL.LANGUAGE ~= #APL THEN /* Not APL */

   4138 10 000007   000041 235100                    LDA     33,,PR0
        10 000010   000003 115007                    CMPA    3,DL
        10 000011   000032 600000 10                 TZE     ALTINST

       47     4139    2       DO WHILE ('1'B);

       48     4140    2           CALL INDEX1(INDX,SUBSTR(ONE_CHANGE(CONTROL.LANGUAGE),0,1),IA.SNAME) ALTRET(
              4140                    ALTINST);

   4140 10 000012   000000 470400 5                  LDP0    SUB_CONBLK$
        10 000013   000041 235100                    LDA     33,,PR0
        10 000014   000001 735000                    ALS     1
        10 000015   000000 471400 6                  LDP1    IA$
        10 000016   000005 124500                    SCM     mask='000'O
        10 000017   100012 000036                    ADSC9   10,,PR1                  cn=0,n=30
PL6.E3A0      #001=ZII$BLD_IA File=ZII$BLD_IA.:ZIC0TSI                           FRI 09/05/97 12:26 Page:9
        10 000020   000000 000001 0                  ADSC9   ONE_CHANGE,A             cn=0,n=1
        10 000021   200003 000100                    ARG     INDX,,AUTO
        10 000022   000032 606400 10                 TTN     ALTINST

       49     4141    2          CALL INSERT(IA.SNAME,INDX,1,SUBSTR(ONE_CHANGE(CONTROL.LANGUAGE),1,1)) ALTRET
              4141                    (ALTINST);

   4141 10 000023   000041 235100                    LDA     33,,PR0
        10 000024   000001 735000                    ALS     1
        10 000025   200003 236100                    LDQ     INDX,,AUTO
        10 000026   040106 100405                    MLR     fill='040'O
        10 000027   000000 200001 0                  ADSC9   ONE_CHANGE,A             cn=1,n=1
        10 000030   100012 000001                    ADSC9   10,Q,PR1                 cn=0,n=1

       50     4142    2           END;

   4142 10 000031   000012 710000 10                 TRA     s:4140

       51     4143    1   ALTINST:
       52     4144    1       IA.SSNAME=CONTROL.SUBSCHEMA_NAME; /*Put the  subschema name into the ia */

   4144 10 000032   000000 470400 5     ALTINST      LDP0    SUB_CONBLK$
        10 000033   000000 471400 6                  LDP1    IA$
        10 000034   040100 100500                    MLR     fill='040'O
        10 000035   000030 000036                    ADSC9   24,,PR0                  cn=0,n=30
        10 000036   100022 000036                    ADSC9   18,,PR1                  cn=0,n=30

       53     4145    1       IA.SSTDT(1)=CONTROL.SUBSCHEMA_UTS;

   4145 10 000037   000053 235100                    LDA     43,,PR0
        10 000040   100055 755100                    STA     45,,PR1

       54     4146    1       IA.SSTDT(0)=0;

   4146 10 000041   100054 450100                    STZ     44,,PR1

       55     4147    1       IA.RVP=RVA$; /*Put in the rva pointer  (not really needed) */
PL6.E3A0      #001=ZII$BLD_IA File=ZII$BLD_IA.:ZIC0TSI                           FRI 09/05/97 12:26 Page:10

   4147 10 000042   000000 236000 7                  LDQ     RVA$
        10 000043   100010 756100                    STQ     8,,PR1

       56     4148    1       IF PRC_CAL=#APL THEN /* Is this routine being called from apl*/

   4148 10 000044   000000 235000 3                  LDA     PRC_CAL
        10 000045   000003 115007                    CMPA    3,DL
        10 000046   000055 601000 10                 TNZ     s:4153

       57     4149    2       DO;

       58     4150    2           IA.PNAME='APL';

   4150 10 000047   040100 100400                    MLR     fill='040'O
        10 000050   000000 000003 9                  ADSC9   0                        cn=0,n=3
        10 000051   100032 000036                    ADSC9   26,,PR1                  cn=0,n=30

       59     4151    2           IA.EC=6;

   4151 10 000052   000006 235007                    LDA     6,DL
        10 000053   100052 755100                    STA     42,,PR1

       60     4152    2           END;

   4152 10 000054   000064 710000 10                 TRA     s:4158

       61     4153    1       ELSE IF PRC_CAL=#IDP THEN /*Is this routine being called from idp ? */

   4153 10 000055   000004 115007                    CMPA    4,DL
        10 000056   000064 601000 10                 TNZ     s:4158

       62     4154    2           DO;

       63     4155    2               IA.PNAME='IDP';

   4155 10 000057   040100 100400                    MLR     fill='040'O
PL6.E3A0      #001=ZII$BLD_IA File=ZII$BLD_IA.:ZIC0TSI                           FRI 09/05/97 12:26 Page:11
        10 000060   000001 000003 9                  ADSC9   1                        cn=0,n=3
        10 000061   100032 000036                    ADSC9   26,,PR1                  cn=0,n=30

       64     4156    2               IA.EC=7;

   4156 10 000062   000007 235007                    LDA     7,DL
        10 000063   100052 755100                    STA     42,,PR1

       65     4157    2               END;

       66     4158    1       IA.AUTHOR=DCBADDR(SUBSCH.DCB#)->F$DCB.ACCT#;
              4158                /*Get the account of who running the prog. for the author field*/

   4158 10 000064   000000 473400 11                 LDP3    0
        10 000065   300000 474500                    LDP4    0,,PR3
        10 000066   000011 220000 1                  LDX0    SUBSCH+9
        10 000067   400000 470510                    LDP0    0,X0,PR4
        10 000070   040100 100500                    MLR     fill='040'O
        10 000071   000020 000010                    ADSC9   16,,PR0                  cn=0,n=8
        10 000072   100042 000036                    ADSC9   34,,PR1                  cn=0,n=30

       67     4159    1       FPT_TIME.TSTAMP_=VECTOR(IA.CMPTIME);
              4159                /*Get a tstamp of what time this progam is being run*/

   4159 10 000073   777640 235007                    LDA     -96,DL
        10 000074   000000 236000 6                  LDQ     IA$
        10 000075   000053 036003                    ADLQ    43,DU
        10 000076   000012 757000 0                  STAQ    FPT_TIME+8

       68     4160    1       CALL M$TIME(FPT_TIME) ALTRET(ER_TIME);

   4160 10 000077   000002 630400 0                  EPPR0   FPT_TIME
        10 000100   420004 713400                    CLIMB   alt,+8196
        10 000101   402000 401760                    pmme    nvectors=5
        10 000102   000104 702000 10                 TSX2    ER_TIME

       69     4161         /* Ia is now built and ready to return */
PL6.E3A0      #001=ZII$BLD_IA File=ZII$BLD_IA.:ZIC0TSI                           FRI 09/05/97 12:26 Page:12
       70     4162    1       RETURN;

   4162 10 000103   000000 702200 xent               TSX2  ! X66_ARET

       71     4163    1   ER_TIME:
       72     4164        /**********************************************************/
       73     4165        /*E*
       74     4166           ERROR: ZII-#BADTME-C
       75     4167           MESSAGE: ERROR in getting TSTAMP in IA for subschema %U1.
       76     4168        */
       77     4169        /**************************************************************/
       78     4170    1       ERROR_CODE=#BADTME;

   4170 10 000104   011615 235007       ER_TIME      LDA     5005,DL
        10 000105   000000 755000 2                  STA     ERROR_CODE

       79     4171    1       ALTRETURN;

   4171 10 000106   000000 702200 xent               TSX2  ! X66_AALT

ONE_CHANGE
 Sect OctLoc
   0     000   040040 055137   044137 137137                                      -_$___

FPT_TIME
 Sect OctLoc
   0     002   000001 777640   000014 006000   000000 177640   000000 006014    ................
   0     006   000000 177640   000000 006014   000000 177640   000000 006014    ................
   0     012   000000 177640   000000 006014   000004 000000   ****** ******    ................

SUBSCH
 Sect OctLoc
   1     000   ****** ******   ****** ******   ****** ******   ****** ******    ................

SUBSCH_CON_BLK
 Sect OctLoc
   4     000   ****** ******   ****** ******   ****** ******   ****** ******    ................
PL6.E3A0      #001=ZII$BLD_IA File=ZII$BLD_IA.:ZIC0TSI                           FRI 09/05/97 12:26 Page:13

(unnamed)
 Sect OctLoc
   9     000   101120 114040   111104 120040                                    APL IDP

(unnamed)
 Sect OctLoc
  11     000   000000 006003                                                    ....
       80     4172    1   END ZII$BLD_IA;

PL6.E3A0      #001=ZII$BLD_IA File=ZII$BLD_IA.:ZIC0TSI                           FRI 09/05/97 12:26 Page:14
--  Include file information  --

   ZI$DESC.:ZIC0TOU  is referenced.
   ZI_ERRORS_SUBS.:ZIC0TOU  is referenced.
   CP_6_SUBS.:LIB_E05  is referenced.
   CP_6.:LIB_E05  cannot be made into a system file and is referenced.
   ZI_SUB_LANG.:ZIC0TOU  is referenced.
   ZI$USER.:ZIC0TOU  is referenced.
   B$JIT_C.:E05TOU  was found in the system file and is never referenced.
   CP_6_C.:E05TOU  was found in the system file and is referenced.
      No diagnostics issued in procedure ZII$BLD_IA.

   Procedure ZII$BLD_IA requires 71 words for executable code.
   Procedure ZII$BLD_IA requires 4 words of local(AUTO) storage.

    No errors detected in file ZII$BLD_IA.:ZIC0TSI    .
PL6.E3A0      #001=ZII$BLD_IA File=ZII$BLD_IA.:ZIC0TSI                           FRI 09/05/97 12:26 Page:15
          *** CROSS REFERENCE LISTING ***
**     DENOTES     IDENTIFIER DEFINITION
<<                 IDENTIFIER'S VALUE SET
>>                 IDENTIFIER'S VALUE USED
<>                 IDENTIFIER SET AND/OR USED
--                 IDENTIFIER REFERENCED
PL6.E3A0      #001=ZII$BLD_IA File=ZII$BLD_IA.:ZIC0TSI                           FRI 09/05/97 12:26 Page:16
          MINI XREF LISTING

ALTINST
      4144**LABEL    4140--CALLALT  4141--CALLALT
CONTROL.LANGUAGE
      2037**DCL      4138>>IF       4140>>CALLBLT  4141>>CALLBLT
CONTROL.SCHEMA_NAME
      2034**DCL      4137>>ASSIGN
CONTROL.SUBSCHEMA_NAME
      2035**DCL      4144>>ASSIGN
CONTROL.SUBSCHEMA_UTS
      2043**DCL      4145>>ASSIGN
ERROR_CODE
        27**DCL      4170<<ASSIGN
ER_TIME
      4170**LABEL    4160--CALLALT
F$DCB.ACCT#
      2719**DCL      4158>>ASSIGN
F$DCB.ACTPOS
      2735**DCL      2735--REDEF
F$DCB.ARS#
      2709**DCL      2709--REDEF
F$DCB.ATTR
      2728**DCL      2729--REDEF
F$DCB.BORROW
      2743**DCL      2743--REDEF    2743--REDEF    2743--REDEF
F$DCB.DCBNAME.L
      2757**DCL      2757--IMP-SIZ
F$DCB.EOMCHAR#
      2713**DCL      2713--REDEF
F$DCB.FLDID
      2738**DCL      2738--REDEF
F$DCB.FORM$
      2732**DCL      2732--REDEF
PL6.E3A0      #001=ZII$BLD_IA File=ZII$BLD_IA.:ZIC0TSI                           FRI 09/05/97 12:26 Page:17
F$DCB.FSECT
      2748**DCL      2748--REDEF
F$DCB.FSN#
      2725**DCL      2725--REDEF    2725--REDEF    2726--REDEF
F$DCB.HEADER$
      2731**DCL      2731--REDEF
F$DCB.IXTNSIZE#
      2729**DCL      2729--REDEF
F$DCB.LASTSTA$
      2718**DCL      2718--REDEF
F$DCB.LVL
      2744**DCL      2744--REDEF
F$DCB.NAME#.C
      2719**DCL      2719--REDEF
F$DCB.NOEOF
      2741**DCL      2741--REDEF
F$DCB.NRECS#
      2730**DCL      2730--REDEF
F$DCB.NRECX
      2749**DCL      2749--REDEF
F$DCB.OHDR
      2741**DCL      2741--REDEF
F$DCB.ORG#
      2724**DCL      2724--REDEF
F$DCB.PRECNO
      2747**DCL      2747--REDEF
F$DCB.RCSZ
      2753**DCL      2753--REDEF
F$DCB.RES#
      2720**DCL      2720--REDEF
F$DCB.SETX
      2732**DCL      2732--REDEF
F$DCB.TAB$
      2732**DCL      2732--REDEF
F$DCB.TDA
      2746**DCL      2747--REDEF
PL6.E3A0      #001=ZII$BLD_IA File=ZII$BLD_IA.:ZIC0TSI                           FRI 09/05/97 12:26 Page:18
F$DCB.WSN#
      2720**DCL      2720--REDEF
FPT_TIME
      2694**DCL      4160<>CALL
FPT_TIME.TSTAMP_
      2697**DCL      4159<<ASSIGN
FPT_TIME.V
      2698**DCL      2694--DCLINIT
IA.AUTHOR
       210**DCL      4158<<ASSIGN
IA.CMPTIME
       213**DCL      4159--ASSIGN
IA.EC
       212**DCL      4151<<ASSIGN   4156<<ASSIGN
IA.PNAME
       208**DCL      4150<<ASSIGN   4155<<ASSIGN
IA.RVP
       200**DCL      4147<<ASSIGN
IA.SNAME
       202**DCL       203--REDEF    4137<<ASSIGN   4140>>CALLBLT  4141<<CALLBLT
IA.SSDT
       214**DCL       215--REDEF
IA.SSNAME
       205**DCL       206--REDEF    4144<<ASSIGN
IA.SSTDT
       215**DCL      4145<<ASSIGN   4146<<ASSIGN
IA$
       216**DCL       181--IMP-PTR  4137>>ASSIGN   4140>>CALLBLT  4141>>CALLBLT  4144>>ASSIGN   4145>>ASSIGN
      4146>>ASSIGN   4147>>ASSIGN   4150>>ASSIGN   4151>>ASSIGN   4155>>ASSIGN   4156>>ASSIGN   4158>>ASSIGN
      4159>>ASSIGN
INDX
        20**DCL      4140<<CALLBLT  4141>>CALLBLT
M$TIME
      2138**DCL-ENT  4160--CALL
ONE_CHANGE
        15**DCL      4140>>CALLBLT  4141>>CALLBLT
PL6.E3A0      #001=ZII$BLD_IA File=ZII$BLD_IA.:ZIC0TSI                           FRI 09/05/97 12:26 Page:19
PRC_CAL
        28**DCL      4148>>IF       4153>>IF
RVA.RVE.EO
       235**DCL       236--REDEF
RVA$
       228**DCL       229--IMP-PTR  4147>>ASSIGN
SUBSCH.DCB#
        26**DCL      4158--ASSIGN
SUB_CONBLK$
        30**DCL      2019--IMP-PTR  4137>>ASSIGN   4138>>IF       4140>>CALLBLT  4141>>CALLBLT  4144>>ASSIGN
      4145>>ASSIGN
