
 12:26 09/05/97  FILE=ZII$DBCSCI.:ZIC0TSI                                                                1    BMAP - B00
                                         1  *M*      ZII$DBCSCI
                                         2  *T***********************************************************
                                         3  *T*                                                         *
                                         4  *T* Copyright (c) Bull HN Information Systems Inc., 1997    *
                                         5  *T*                                                         *
                                         6  *T***********************************************************
 0 000000                                7           USE       K693,1           PROCEDURE SECTION

 12:26 09/05/97  FILE=ZII$DBCSCI.:ZIC0TSI         H6600H2.396     CBL74-DBCS INTERFACE FOR CP-6  781005  2    BMAP - B00
                                         8           TTL       H6600H2.396     CBL74-DBCS INTERFACE FOR CP-6  781005K693
                                         9           CPR       1978
                                        10           ENTDEF    .DBHIA
                                        11           ENTDEF    .DBRDY
                                        12           ENTDEF    .DBFIN
                                        13           ENTDEF    .DBSTO
                                        14           ENTDEF    .DBERS
                                        15           ENTDEF    .DBMOD
                                        16           ENTDEF    .DBCON
                                        17           ENTDEF    .DBDIS
                                        18           ENTDEF    .DBACN
                                        19           ENTDEF    .DBACC
                                        20           ENTDEF    .DBIFT
                                        21           ENTDEF    .DBIST
                                        22           ENTDEF    .DBIFM
                                        23           ENTDEF    .DBFKY
                                        24           ENTDEF    .DBFKC
                                        25           ENTDEF    .DBFDP
                                        26           ENTDEF    .DBFDC
                                        27           ENTDEF    .DBFCD
                                        28           ENTDEF    .DBFOR
                                        29           ENTDEF    .DBFCT
                                        30           ENTDEF    .DBFCR
                                        31           ENTDEF    .DBFAS
                                        32           ENTDEF    .DBFAA
                                        33           ENTDEF    .DBFRS
                                        34           ENTDEF    .DBFRA
                                        35           ENTDEF    .DBFDR
                                        36           ENTDEF    .DBFUI
                                        37           ENTDEF    .DBFRI
                                        38           ENTDEF    .DBGET
                                        39           ENTDEF    .DBGTF
                                        40           ENTDEF    IDSCALC
                                        41           ENTDEF    IDSCHECK
                                        42           ENTDEF    IDSROLL
                                        43           ENTDEF    IDSTRACEON
                                        44           ENTDEF    IDSTRACEOFF
 12:26 09/05/97  FILE=ZII$DBCSCI.:ZIC0TSI         H6600H2.396     CBL74-DBCS INTERFACE FOR CP-6  781005  3    BMAP - B00
                                        45           ENTDEF    IDSSTATSON
                                        46           ENTDEF    IDSSTATSOFF
                                        47           ENTDEF    IDSCRPT
                                        48           ENTDEF    IDSSHARE
                                        49           ENTDEF    IDSBUFFERS
                                        50           ENTDEF    IDSSHAREIN
                                        51           ENTDEF    IDSNOSHARE
                                        52           ENTDEF    IDSSHAREANY
                                        53           ENTDEF    IDSSHARECUR
                                        54           ENTDEF    IDSKEEP
                                        55           ENTDEF    IDSREDUCEQ
                                        56           ENTDEF    IDSSHAREINCUR
                                        57           ENTDEF    IDSRPTSTATS
                                        58           SYMDEF    ZI_RETADDR
                                        59           SYMDEF    ZI_IAORG
                                        60           SYMDEF    ZI_UWAORG
                                        61           SYMDEF    IDSSYSERR
                                        62           SYMDEF      IDSSYSDCB
                                        63           ENTREF      ZII$COB_PARAM_ERR
                                        64  *  THE FUNCTION OF THIS ROUTINE IS TO MAP THE STANDARD COBOL-74
                                        65  *  CALLING SEQUENCES TO THE IDS/II DBCS SUBROUTINES INTO AN
                                        66  *  APPROPRIATE NSA CLIMB MECHANISM WITH ITS ACCOMPANYING
                                        67  *  PARAMETER STACK, ETC.
                                        68  *
             000000001762               69  .ISR     BOOL      1762                Instruction segment  SEG-ID
             000000700000               70  .RETCUR  BOOL      700000                        Used in a test for special retainin
                                        71  *
             000000000000               72  X0       EQU       0                   Symbolic index register 0
             000000000001               73  X1       EQU       1                   Symbolic index register 1
             000000000002               74  X2       EQU       2                   Symbolic index register 2
             000000000003               75  X3       EQU       3                   Symbolic index register 3
             000000000004               76  X4       EQU       4                   Symbolic index register 4
             000000000005               77  X5       EQU       5                   Symbolic index register 5
             000000000006               78  X6       EQU       6                   Symbolic index register 6
             000000000007               79  X7       EQU       7                   Symbolic index register 7
             000000000000               80  PR0      EQU       0                   Pointer register 0
             000000000001               81  PR1      EQU       1                   pointer register 1
 12:26 09/05/97  FILE=ZII$DBCSCI.:ZIC0TSI         H6600H2.396     CBL74-DBCS INTERFACE FOR CP-6  781005  4    BMAP - B00
             000000000002               82  PR2      EQU       2                   Pointer register 2
             000000000003               83  PR3      EQU       3                   Pointer register 3
             000000000004               84  PR4      EQU       4                            "
             000000000005               85  PR5      EQU       5                            "
             000000000006               86  PR6      EQU       6                            "
             000000000007               87  PR7      EQU       7                            "
             000000000056               88  IALEN    EQU       46                  DBCS information area length (IA)
                                        89           LODM      ZI_DBCS_FCNS

 12:26 09/05/97  FILE=ZII$DBCSCI.:ZIC0TSI         H6600H2.396     CBL74-DBCS INTERFACE FOR CP-6  781005  5    BMAP - B00
                                        90           EJECT
                                        91           DBCS_FCNS LIST
                                             PMC ON

                                                 Data Base Control System climb function codes.


                                             DBCS_ENTRY I$ROL,ZIM$EROL,IDS,0    Rollback Transient File
             000000000001                   I$ROL EQU I$DBCSEXCFCN
                                             PMC ON
                                             DBCS_ENTRY I$HIA,ZIM$HEREIAM,HIA,1    Here I Am.
             000000000002                   I$HIA EQU I$DBCSEXCFCN
                                             PMC ON
                                             DBCS_ENTRY I$RDY,ZIG$DBRDY,RY,1  READY
             000000000003                   I$RDY EQU I$DBCSEXCFCN
                                             PMC ON
                                             DBCS_ENTRY I$FIN,ZIM$FINISH,FI,1   Finish
             000000000004                   I$FIN EQU I$DBCSEXCFCN
                                             PMC ON
                                             DBCS_ENTRY I$STO,ZIG$DBSTO,ST,1 STORE
             000000000005                   I$STO EQU I$DBCSEXCFCN
                                             PMC ON
                                             DBCS_ENTRY I$ERS,ZIG$DBERS,ES,1 ERASE
             000000000006                   I$ERS EQU I$DBCSEXCFCN
                                             PMC ON
                                             DBCS_ENTRY I$MOD,ZIG$DBMOD,MD,1 MODIFY
             000000000007                   I$MOD EQU I$DBCSEXCFCN
                                             PMC ON
                                             DBCS_ENTRY I$CON,ZIG$DBCON,CN,1 CONNECT
             000000000010                   I$CON EQU I$DBCSEXCFCN
                                             PMC ON
                                             DBCS_ENTRY I$DIS,ZIM$EDIS,DS,1 DISCONNECT
             000000000011                   I$DIS EQU I$DBCSEXCFCN
                                             PMC ON
                                             DBCS_ENTRY I$ACN,ZIG$DBACN,AC,1 MOVE;AREA NAME
             000000000012                   I$ACN EQU I$DBCSEXCFCN
                                             PMC ON
 12:26 09/05/97  FILE=ZII$DBCSCI.:ZIC0TSI         H6600H2.396     CBL74-DBCS INTERFACE FOR CP-6  781005  6    BMAP - B00
                                             DBCS_ENTRY I$ACC,ZIG$DBACC,AC,1 MOVE;CURRENCY INDICATOR
             000000000013                   I$ACC EQU I$DBCSEXCFCN
                                             PMC ON
                                             DBCS_ENTRY I$IFT,ZIG$DBIFT,IF,1  IF TENANT
             000000000014                   I$IFT EQU I$DBCSEXCFCN
                                             PMC ON
                                             DBCS_ENTRY I$IST,ZIG$DBIST,IF,1  IF SET
             000000000015                   I$IST EQU I$DBCSEXCFCN
                                             PMC ON
                                             DBCS_ENTRY I$IFM,ZIG$DBIFM,IF,1  IF MEMBER
             000000000016                   I$IFM EQU I$DBCSEXCFCN
                                             PMC ON
                                             DBCS_ENTRY I$FKY,ZIG$DBFKY,FD,1 FIND;WITH KEY
             000000000017                   I$FKY EQU I$DBCSEXCFCN
                                             PMC ON
                                             DBCS_ENTRY I$FKC,ZIG$DBFKC,FD,1 FIND;WITH KEY IN CUR SET
             000000000020                   I$FKC EQU I$DBCSEXCFCN
                                             PMC ON
                                             DBCS_ENTRY I$FDP,ZIG$DBFDP,FD,1 FIND;DUPLICATE RECORD
             000000000021                   I$FDP EQU I$DBCSEXCFCN
                                             PMC ON
                                             DBCS_ENTRY I$FDC,ZIG$DBFDC,FD,1 FIND;CALC RECORD
             000000000022                   I$FDC EQU I$DBCSEXCFCN
                                             PMC ON
                                             DBCS_ENTRY I$FCD,ZIG$DBFCD,FD,1 FIND;DUP CALC RECORD
             000000000023                   I$FCD EQU I$DBCSEXCFCN
                                             PMC ON
                                             DBCS_ENTRY I$FOR,ZIG$DBFOR,FD,1 FIND;OWNER
             000000000024                   I$FOR EQU I$DBCSEXCFCN
                                             PMC ON
                                             DBCS_ENTRY I$FCT,ZIG$DBFCT,FD,1 FIND;CUR OF REC TYPE
             000000000025                   I$FCT EQU I$DBCSEXCFCN
                                             PMC ON
                                             DBCS_ENTRY I$FCR,ZIG$DBFCR,FD,1 FIND;CUR OF RUN
             000000000026                   I$FCR EQU I$DBCSEXCFCN
                                             PMC ON
                                             DBCS_ENTRY I$FAS,ZIG$DBFAS,FD,1 FIND;ITH ABS REC IN SET
 12:26 09/05/97  FILE=ZII$DBCSCI.:ZIC0TSI         H6600H2.396     CBL74-DBCS INTERFACE FOR CP-6  781005  7    BMAP - B00
             000000000027                   I$FAS EQU I$DBCSEXCFCN
                                             PMC ON
                                             DBCS_ENTRY I$FAA,ZIG$DBFAA,FD,1 FIND;ITH ABS REC IN AREA
             000000000030                   I$FAA EQU I$DBCSEXCFCN
                                             PMC ON
                                             DBCS_ENTRY I$FRS,ZIG$DBFRS,FD,1 FIND;RELATIVE TO SET
             000000000031                   I$FRS EQU I$DBCSEXCFCN
                                             PMC ON
                                             DBCS_ENTRY I$FRA,ZIG$DBFRA,FD,1 FIND;RELATIVE TO AREA
             000000000032                   I$FRA EQU I$DBCSEXCFCN
                                             PMC ON
                                             DBCS_ENTRY I$FDR,ZIG$DBFDR,FD,1 FIND;DIRECT
             000000000033                   I$FDR EQU I$DBCSEXCFCN
                                             PMC ON
                                             DBCS_ENTRY I$FUI,ZIG$DBFUI,FD,1  FIND;USING RECORD KEY
             000000000034                   I$FUI EQU I$DBCSEXCFCN
                                             PMC ON
                                             DBCS_ENTRY I$FRI,ZIG$DBFRI,FD,1  FIND;RELATIVE TO INDEX
             000000000035                   I$FRI EQU I$DBCSEXCFCN
                                             PMC ON
                                             DBCS_ENTRY I$GET,ZIG$DBGET,GT,1 GET;ALL FIELDS OF CUR REC
             000000000036                   I$GET EQU I$DBCSEXCFCN
                                             PMC ON
                                             DBCS_ENTRY I$GTF,ZIG$DBGTF,GT,1 GET;SPECIFIED FIELDS
             000000000037                   I$GTF EQU I$DBCSEXCFCN
                                             PMC ON
                                             DBCS_ENTRY I$CHK,ZIM$ECKPT,IDS,0     Checkpoint the data base
             000000000040                   I$CHK EQU I$DBCSEXCFCN
                                             PMC ON
                                             DBCS_ENTRY I$TRON,ZIM$ETRON,IDS,0    TRACE ON
             000000000041                   I$TRON EQU I$DBCSEXCFCN
                                             PMC ON
                                             DBCS_ENTRY I$TROFF,ZIM$ETROFF,IDS,0        OFF
             000000000042                   I$TROFF EQU I$DBCSEXCFCN
                                             PMC ON
                                             DBCS_ENTRY I$STON,ZIM$ESTON,IDS,0    STATS ON
             000000000043                   I$STON EQU I$DBCSEXCFCN
 12:26 09/05/97  FILE=ZII$DBCSCI.:ZIC0TSI         H6600H2.396     CBL74-DBCS INTERFACE FOR CP-6  781005  8    BMAP - B00
                                             PMC ON
                                             DBCS_ENTRY I$STOFF,ZIM$ESTOFF,IDS,0        OFF
             000000000044                   I$STOFF EQU I$DBCSEXCFCN
                                             PMC ON
                                             DBCS_ENTRY I$SHIN,ZIM$ESHIN,IDS,0    SHARE IN
             000000000045                   I$SHIN EQU I$DBCSEXCFCN
                                             PMC ON
                                             DBCS_ENTRY I$SHALL,ZIM$ESHALL,IDS,0        ALL
             000000000046                   I$SHALL EQU I$DBCSEXCFCN
                                             PMC ON
                                             DBCS_ENTRY I$SHNO,ZIM$ESHNO,IDS,0          NONE
             000000000047                   I$SHNO EQU I$DBCSEXCFCN
                                             PMC ON
                                             DBCS_ENTRY I$CRPT,ZIM$ECRPT,IDS,0    ENCRIPTION SEED
             000000000050                   I$CRPT EQU I$DBCSEXCFCN
                                             PMC ON
                                             DBCS_ENTRY I$RPT,ZIE$STATS,IDS,0      Report statistics
             000000000051                   I$RPT EQU I$DBCSEXCFCN
                                             PMC ON
                                             DBCS_ENTRY I$SHCUR,ZIM$ESHCUR,IDS,0   SHARE MODE CURRENCY ONLY
             000000000052                   I$SHCUR EQU I$DBCSEXCFCN
                                             PMC ON
                                             DBCS_ENTRY I$NBF,ZIM$EADDBUF,IDS,0    Add number of buffers
             000000000053                   I$NBF EQU I$DBCSEXCFCN
                                             PMC ON
                                             DBCS_ENTRY I$ETC,ZIR$DBETC,IDS,1      Continue for privacy
             000000000054                   I$ETC EQU I$DBCSEXCFCN
                                             PMC ON
                                             DBCS_ENTRY I$INA,ZIG$DBINA,RY,1   Ready & initialize area
             000000000055                   I$INA EQU I$DBCSEXCFCN
                                             PMC ON
                                             DBCS_ENTRY I$SHANY,ZIM$ESHANY,IDS,0   SHARE MODE ANY
             000000000056                   I$SHANY EQU I$DBCSEXCFCN
                                             PMC ON
                                             DBCS_ENTRY I$CALC,ZIM$CALC,IDS,1      Precalc routine
             000000000057                   I$CALC EQU I$DBCSEXCFCN
                                             PMC ON
 12:26 09/05/97  FILE=ZII$DBCSCI.:ZIC0TSI         H6600H2.396     CBL74-DBCS INTERFACE FOR CP-6  781005  9    BMAP - B00
                                             DBCS_ENTRY I$KEEP,ZIM$EKEEP,IDS,0      KEEP CRUN ENQED UNTIL CHECKPOINT
             000000000060                   I$KEEP EQU I$DBCSEXCFCN
                                             PMC ON
                                             DBCS_ENTRY I$REDUCEQ,ZIM$EREDUCEQ,IDS,0 PURGE ENQ TABLE EXCEPT CURRENCIES
             000000000061                   I$REDUCEQ EQU I$DBCSEXCFCN
                                             PMC ON
                                             DBCS_ENTRY I$SHINCUR,ZIM$ESHINCUR,IDS,0  SHAREIN CURRENCY
             000000000062                   I$SHINCUR EQU I$DBCSEXCFCN
                                             PMC ON

 12:26 09/05/97  FILE=ZII$DBCSCI.:ZIC0TSI         H6600H2.396     CBL74-DBCS INTERFACE FOR CP-6  781005  10   BMAP - B00
                                        92           EJECT
                                        93
                                        94                     CONSTANTS
                                        95
             000000000004               96  BIT15    BOOL      000004
             000000000002               97  BIT16    BOOL      000002
             000000000001               98  BIT17    BOOL      000001
             000000177777               99  MASK     BOOL      177777               Cover bits 20-35
                                       100  *
                                       101  *
                                       102  *
                                       103  *
                                       104           SEGREF    ASLENTSID
                                       105           SEGREF    ISSID
                                       106           ENTDEF    ZIT$ENTRY
             000000713400              107  CLIMBOP  BOOL     713400

 12:26 09/05/97  FILE=ZII$DBCSCI.:ZIC0TSI         H6600H2.396     CBL74-DBCS INTERFACE FOR CP-6  781005  11   BMAP - B00
                                       108           EJECT
   000000                              109  .DBHIA   NULL
   000000 (2)000001 4410 00            110           SXL      X1,ZI_RETADDR        Save return address
   000001    000002 2250 03            111           LDX       X5,I$HIA,DU         Load function code for Here I Am
   000002    0 77776 6211 00           112           EAX      X1,-2,,PR0            Fudge to simulate old sequence
   000003 (0)001006 7030 00            113           TSX       X3,VECSET           Go set up the vectors(IA,UWA,RVA,USEP)
   000004    000017 2240 03            114           LDX       X4,5ARGS,DU         Set for 4 parameters
   000005 (0)000650 7100 00            115           TRA       KALL                Go to DBCS intialization

 12:26 09/05/97  FILE=ZII$DBCSCI.:ZIC0TSI         H6600H2.396     CBL74-DBCS INTERFACE FOR CP-6  781005  12   BMAP - B00
                                       116           EJECT
   000006                              117  .DBRDY   NULL
   000006    000003 2250 03            118           LDX       X5,I$RDY,DU         Load function code for Ready
   000007 (0)001053 7060 00            119           TSX       X6,CKPTSAVE          Save the ptr regs for rollback condition
   000010 (0)000017 7100 00            120           TRA       CMC2
   000011                              121  .DBFIN   NULL
   000011    000004 2250 03            122           LDX       X5,I$FIN,DU         Load function code for Finish
   000012 (0)000017 7100 00            123           TRA       CMC2
   000013                              124  .DBGTF   NULL
   000013    000037 2250 03            125           LDX       X5,I$GTF,DU         Load function code for Get
   000014 (0)000017 7100 00            126           TRA       CMC2
   000015                              127  .DBFCR   NULL
   000015    000026 2250 03            128           LDX       X5,I$FCR,DU         Load function code for Find Current of Run
   000016 (0)000017 7100 00            129           TRA       CMC2
   000017                              130  CMC2     NULL                          Used for .DBGTF .DBFIN .DBRDY .DBFCR
   000017 (0)001036 7060 00            131           TSX       X6,MVE_IPT
                                       132  ****   PREPARE FPT OVER ARG LIST
   000020    000003 2350 31            133           LDA       3,X1*               Overlay RL with contents
   000021    1 00000 7551 00           134           STA       0,,PR1
   000022 (2)000000 2350 00            135           LDA      ARGSIZE              Get argument size in bytes
   000023    000002 7710 00            136           ARL      2                    Back to words
   000024    000001 1350 07            137           SBLA     1,DL                 Skip one more besides IA
   000025 (0)000641 6000 00            138           TZE       VEC.P               There were none passed
   000026    1 00001 6231 00           139           EAX       X3,1,,PR1           Get address of last arg to convert
   000027 (0)000640 7100 00            140           TRA       VECPREP             Go prepare Climb vectors for IPT,IA,UWA,RVA,U

 12:26 09/05/97  FILE=ZII$DBCSCI.:ZIC0TSI         H6600H2.396     CBL74-DBCS INTERFACE FOR CP-6  781005  13   BMAP - B00
                                       141           EJECT
   000030                              142  .DBSTO   NULL
   000030    000005 2250 03            143           LDX       X5,I$STO,DU         Load function code for Store
   000031 (0)000041 7100 00            144           TRA       CMC3
   000032                              145  .DBFDC   NULL
   000032    000022 2250 03            146           LDX       X5,I$FDC,DU         Load function code for Find Calc
   000033 (0)000041 7100 00            147           TRA       CMC3
   000034                              148  .DBFCD   NULL
   000034    000023 2250 03            149           LDX       X5,I$FCD,DU         Load function code for Find Duplicate Calc
   000035 (0)000041 7100 00            150           TRA       CMC3
   000036                              151  .DBFOR   NULL
   000036    000024 2250 03            152           LDX       X5,I$FOR,DU         Load function code for Find Owner
   000037 (0)000041 7100 00            153           TRA       CMC3
   000040                              154  .DBFCT   NULL
   000040    000025 2250 03            155           LDX       X5,I$FCT,DU         Load function code for Find Current of Record
   000041                              156  CMC3     NULL                          Use for .DBSTO .DBFDC .DBFCD .DBFOR .DBFCT
   000041 (0)001036 7060 00            157           TSX       X6,MVE_IPT
                                       158  ****   PREPARE FPT OVER ARG LIST
   000042 (0)000626 7060 00            159           TSX       X6,CVOF             Convert the RC address to an RVA offset
   000043    000004 2350 31            160           LDA       4,X1*               Overlay RC ptr with
   000044    1 00001 7551 00           161           STA       1,,PR1               RETENTION LIST CONTROL WORD
   000045    000377 3750 07            162           ANA  =O377,DL            SHIFT COUNT TO LOWER HALF WORD
   000046 (0)000641 6000 00            163           TZE  VEC.P               NO LIST - GO SETUP VECTORS
   000047    1 00002 6231 00           164           EAX       X3,2,,PR1            Last arg to convert
   000050 (0)000640 7100 00            165           TRA       VECPREP               Prepare Climb vectors: FPT,IA,UWA,RVA,USEP

 12:26 09/05/97  FILE=ZII$DBCSCI.:ZIC0TSI         H6600H2.396     CBL74-DBCS INTERFACE FOR CP-6  781005  14   BMAP - B00
                                       166           EJECT
   000051                              167  .DBERS   NULL
   000051    000006 2250 03            168           LDX       X5,I$ERS,DU         Load function code for Erase
   000052 (0)001036 7060 00            169           TSX       X6,MVE_IPT
                                       170  ****   PREPARE FPT OVER ARG LIST
   000053 (0)000626 7060 00            171           TSX       X6,CVOF             Go convert RC addresses to RVa offsets
   000054    000004 2350 31            172           LDA       4,X1*               Overlay RC ptr with contents
   000055    1 00001 7551 00           173           STA       1,,PR1
   000056 (0)000641 7100 00            174           TRA       VEC.P               Prepare Climb Vectors: IPT,IA,UWA,RVA,USEP

 12:26 09/05/97  FILE=ZII$DBCSCI.:ZIC0TSI         H6600H2.396     CBL74-DBCS INTERFACE FOR CP-6  781005  15   BMAP - B00
                                       175           EJECT
   000057                              176  .DBMOD   NULL
   000057    000007 2250 03            177           LDX       X5,I$MOD,DU         Load function code for Modify
   000060 (0)001036 7060 00            178           TSX       X6,MVE_IPT
                                       179  ****   PREPARE FPT OVER ARG LIST
   000061 (0)000626 7060 00            180           TSX       X6,CVOF             Convert RC address to an RVA offset
   000062    000004 2350 31            181           LDA       4,X1*               Overlay MC ptr with contents of the address
   000063    1 00001 7551 00           182           STA       1,,PR1
   000064    000005 2350 31            183           LDA       5,X1*               Overlay the FC ptr with contents of the addes
   000065    1 00002 7551 00           184           STA       2,,PR1
   000066    000006 2350 31            185           LDA       6,X1*               Overlay Sl ptr with contents of the address
   000067    1 00003 7551 00           186           STA       3,,PR1
   000070    000005 2350 31            187           LDA       5,X1*               Get # of arguments
   000071    000006 0750 31            188           ADA       6,X1*
   000072 (0)000641 6000 00            189           TZE       VEC.P               None ....Transfer
   000073    000022 7310 00            190           ARS       18                  Number of arguments to convert
   000074    1 00004 6231 00           191           EAX       X3,4,,PR1           Get address of 1st argument
   000075 (0)000640 7100 00            192           TRA       VECPREP             Prepare the Climb vector(IA,UWA,RVA,USEP)

 12:26 09/05/97  FILE=ZII$DBCSCI.:ZIC0TSI         H6600H2.396     CBL74-DBCS INTERFACE FOR CP-6  781005  16   BMAP - B00
                                       193           EJECT
   000076                              194  .DBCON   NULL
   000076    000010 2250 03            195           LDX       X5,I$CON,DU         Load the function code
   000077 (0)000101 7100 00            196           TRA       CMC6                Transfer to set up arguments
   000100                              197  .DBDIS   NULL
   000100    000011 2250 03            198           LDX       X5,I$DIS,DU         Load the function code
   000101                              199  CMC6     NULL
   000101 (0)001036 7060 00            200           TSX       X6,MVE_IPT
                                       201  ****   PREPARE FPT OVER ARG LIST
   000102    000002 2350 07            202           LDA       2,DL                Load $A with number of args to convert
   000103    1 00000 6231 00           203           EAX       X3,0,,PR1           Load $X3 with adress of 1st argument
   000104 (0)000640 7100 00            204           TRA       VECPREP             Prepare the climb vectors(IA,UWA,RVA,USEP)

 12:26 09/05/97  FILE=ZII$DBCSCI.:ZIC0TSI         H6600H2.396     CBL74-DBCS INTERFACE FOR CP-6  781005  17   BMAP - B00
                                       205           EJECT
   000105                              206  .DBACC   NULL
   000105    000013 2250 03            207           LDX       X5,I$ACC,DU         Load function code
   000106 (0)001036 7060 00            208           TSX       X6,MVE_IPT
                                       209  *   SPECIAL CASE, WORD 1 OF FPT IS MEANINGLESS
   000107    000003 2350 31            210           LDA       3,X1*               Get the currency control word
   000110    1 00000 7551 00           211           STA       0,,PR1              Overlay address with actual contents
   000111    000007 3150 03            212           CANA      BIT15+BIT16+BIT17,DU   TRAP T=>000> CASE
   000112 (0)000120 6000 00            213           TZE       CMC7A
   000113    000005 2350 11            214           LDA       5,X1                Get RVA ptr
   000114    000002 2220 11            215           LDX       X2,2,X1             Get IA origin
   000115    000010 1350 12            216           SBLA      8,X2                Calculate offset into the RVA
   000116    1 00002 7551 00           217           STA       2,,PR1              Store into word 2 of the FPT
   000117 (0)000121 7100 00            218           TRA       CMC7B
   000120                              219  CMC7A    NULL
   000120    1 00002 4501 00           220           STZ       2,,PR1              Zero out word 2 of the FPT
   000121                              221  CMC7B    NULL
   000121    000022 2240 03            222           LDX       X4,6ARGS,DU         Set up for 6 parameters
   000122    000004 2260 11            223           LDX       X6,4,X1             Get the 3rd parameter
   000123 (2)000027 7460 00            224           STX       X6,PM6+1               Set up param #3 offset
   000124    000000 2260 03            225           LDX       X6,,DU
   000125 (2)000026 7460 00            226           STX       X6,PM6              Set size field = 3 bytes
   000126 (0)000642 7100 00            227           TRA       VEC.Q

 12:26 09/05/97  FILE=ZII$DBCSCI.:ZIC0TSI         H6600H2.396     CBL74-DBCS INTERFACE FOR CP-6  781005  18   BMAP - B00
                                       228           EJECT
   000127                              229  .DBACN   NULL
   000127    000012 2250 03            230           LDX       X5,I$ACN,DU         Load the function code
   000130 (0)001036 7060 00            231           TSX       X6,MVE_IPT
                                       232  *  SPECIAL CASE, WORD 1 OF FPT IS MEANINGLESS
   000131    000003 2350 31            233           LDA       3,X1*               Get the NAME CONTROL WORD
   000132    1 00000 7551 00           234           STA       0,,PR1              Overlay ptr with new contents of address
   000133    000001 3150 03            235           CANA      BIT17,DU            Differentiate between cases
   000134 (0)000142 6000 00            236           TZE       CMC8A               Transfer if = to T=00  OR  T=10
   000135    000005 2350 11            237           LDA       5,X1                Get pointer into RVA
   000136    000002 2220 11            238           LDX       X2,2,X1             Get IA origin
   000137    000010 1350 12            239           SBLA      8,X2                Calculate offset into RVA
   000140    1 00002 7551 00           240           STA       2,,PR1              Store into word 2 of the FPT
   000141 (0)000145 7100 00            241           TRA       CMC8B
   000142                              242  CMC8A    NULL
   000142    000005 2260 11            243           LDX       X6,5,X1             Locate DBK
   000143 (2)000031 7460 00            244           STX       X6,PM7+1            Store DBK into word 2 of Fpt
   000144    1 00002 4501 00           245           STZ       2,,PR1              Zero out were DBK was
   000145                              246  CMC8B    NULL
   000145    000022 2240 03            247           LDX       X4,6ARGS,DU         Set up for 6 parameters
   000146    000003 2360 31            248           LDQ       3,X1*               Check T field
   000147    000001 3160 03            249           CANQ      BIT17,DU            TRAP T=00 & T=10
   000150    000002 6010 04            250           TNZ       2,IC                Skip if T=01  OR  T=11
   000151    000025 2240 03            251           LDX       X4,7ARGS,DU         Set up for 7 parameters
   000152    000004 2260 11            252           LDX       X6,4,X1             Locate the 3rd parameter
   000153 (2)000027 7460 00            253           STX       X6,PM6+1            Set up for 3rd parameter
   000154    000007 2260 03            254           LDX       X6,7,DU
   000155 (2)000026 7460 00            255           STX       X6,PM6              Set up size field = 31 bytes
   000156 (0)000642 7100 00            256           TRA       VEC.Q

 12:26 09/05/97  FILE=ZII$DBCSCI.:ZIC0TSI         H6600H2.396     CBL74-DBCS INTERFACE FOR CP-6  781005  19   BMAP - B00
                                       257           EJECT
   000157                              258  .DBIFT   NULL
   000157    000014 2250 03            259           LDX       X5,I$IFT,DU         Load function code
   000160 (0)001036 7060 00            260           TSX       X6,MVE_IPT
                                       261  ****   PREPARE FPT OVER ARG LIST
   000161    000003 2350 31            262           LDA       3,X1*               Overlay TD ptr with contents of the address
   000162    1 00000 7551 00           263           STA       0,,PR1
   000163 (0)000641 7100 00            264           TRA       VEC.P               Prepare Climb vectors(IA,UWA,RVA,USEP)

 12:26 09/05/97  FILE=ZII$DBCSCI.:ZIC0TSI         H6600H2.396     CBL74-DBCS INTERFACE FOR CP-6  781005  20   BMAP - B00
                                       265           EJECT
   000164                              266  .DBIST   NULL
   000164    000015 2250 03            267           LDX       X5,I$IST,DU         Load function code
   000165 (0)001036 7060 00            268           TSX       X6,MVE_IPT
                                       269  ****   PREPARE FPT OVER ARG LIST
   000166    000003 2350 31            270           LDA       3,X1*               Overlay TD ptr with contents of address
   000167    1 00000 7551 00           271           STA       0,,PR1
   000170    000001 2350 07            272           LDA       1,DL                Get number of arguments to convert
   000171    1 00001 6231 00           273           EAX       X3,1,,PR1           Get address of 1st argument
   000172 (0)000640 7100 00            274           TRA       VECPREP             Preare climb vector(IA,UWA,RVA,USEP)

 12:26 09/05/97  FILE=ZII$DBCSCI.:ZIC0TSI         H6600H2.396     CBL74-DBCS INTERFACE FOR CP-6  781005  21   BMAP - B00
                                       275           EJECT
   000173                              276  .DBIFM   NULL
   000173    000016 2250 03            277           LDX       X5,I$IFM,DU         Load function code
   000174 (0)000176 7100 00            278           TRA       CMC11
   000175                              279  .DBGET   NULL
   000175    000036 2250 03            280           LDX       X5,I$GET,DU
   000176                              281  CMC11    NULL                          Used for .DBIFM .DBGET
   000176 (0)001036 7060 00            282           TSX       X6,MVE_IPT
                                       283  ****   PREPARE FPT OVER ARG LIST
   000177 (0)000626 7060 00            284           TSX       X6,CVOF             Convert SC to offset
   000200 (0)000641 7100 00            285           TRA       VEC.P               Prepare climb vectors(IA,UWA,RVA,USEP)

 12:26 09/05/97  FILE=ZII$DBCSCI.:ZIC0TSI         H6600H2.396     CBL74-DBCS INTERFACE FOR CP-6  781005  22   BMAP - B00
                                       286           EJECT
   000201                              287  .DBFKY   NULL
   000201    000017 2250 03            288           LDX       X5,I$FKY,DU         Load function code
   000202 (0)000204 7100 00            289           TRA       CMC12
   000203                              290  .DBFKC   NULL
   000203    000020 2250 03            291           LDX       X5,I$FKC,DU         Load function code
   000204                              292  CMC12    NULL                          Used for .DBFKY .DBFKC
   000204 (0)001036 7060 00            293           TSX       X6,MVE_IPT
                                       294  ****   PREPARE FPT OVER ARG LIST
   000205    000002 2350 07            295           LDA       2,DL                Get number of arguments to convert
   000206    1 00000 6231 00           296           EAX       X3,0,,PR1           Get address of 1st arg to convert
   000207 (0)000611 7060 00            297           TSX       X6,CVOFS            Convert RC & SC to RVA offsets
   000210    000005 2350 31            298           LDA       5,X1*               Overlay  FL ptr with contents of its address
   000211    1 00002 7551 00           299           STA       2,,PR1
   000212    000006 2350 31            300           LDA       6,X1*               Overlay RL ptr with contents of its address
   000213    1 00003 7551 00           301           STA       3,,PR1
   000214    000377 3750 07            302           ANA  =O377,DL            ISOLATE COUNT
   000215    000022 7350 00            303           ALS   18                 TO UPPER HALF TO ADD
   000216    1 00002 0751 00           304           ADA   2,,PR1             ADD FIELD-LIST COUNT
   000217 (0)000641 6000 00            305           TZE   VEC.P              ZERO - NO CONVERTION
   000220    000022 7310 00            306          ARS       18                   $A has # of arguments to convert
   000221    1 00004 6231 00           307           EAX       X3,4,,PR1           Get address of 1st arg
   000222 (0)000640 7100 00            308           TRA       VECPREP             Prepare climb vector(IA,UWA,RVA,USEP)

 12:26 09/05/97  FILE=ZII$DBCSCI.:ZIC0TSI         H6600H2.396     CBL74-DBCS INTERFACE FOR CP-6  781005  23   BMAP - B00
                                       309           EJECT
   000223                              310  .DBFDP   NULL
   000223    000021 2250 03            311           LDX       X5,I$FDP,DU         Load function code
   000224 (0)001036 7060 00            312           TSX       X6,MVE_IPT
                                       313  ****   PREPARE FPT OVER ARG LIST
   000225 (0)000626 7060 00            314           TSX       X6,CVOF             Convert SC to an RVA offset
   000226    000004 2350 31            315           LDA       4,X1*               Overlay FL ptr with contents of its address
   000227    1 00001 7551 00           316           STA       1,,PR1
   000230    000005 2350 31            317           LDA       5,X1*               Overlay RL ptr with contents of its address
   000231    1 00002 7551 00           318           STA       2,,PR1
   000232    000377 3750 07            319           ANA  =O377,DL
   000233    000022 7350 00            320           ALS   18
   000234    1 00001 0751 00           321           ADA  1,,PR1              ADD TO FL COUNT
   000235 (0)000641 6000 00            322           TZE   VEC.P
   000236    000022 7710 00            323           ARL    18
   000237    1 00003 6231 00           324           EAX       X3,3,,PR1           Get address of 1st arg  to convert
   000240 (0)000640 7100 00            325           TRA       VECPREP             Prepare Climb vector(IA,UWA,RVA,USEP)

 12:26 09/05/97  FILE=ZII$DBCSCI.:ZIC0TSI         H6600H2.396     CBL74-DBCS INTERFACE FOR CP-6  781005  24   BMAP - B00
                                       326           EJECT
   000241                              327  .DBFAA   NULL
   000241    000030 2250 03            328           LDX       X5,I$FAA,DU         Load function code
   000242 (0)000252 7100 00            329           TRA       CMC15
   000243                              330  .DBFAS   NULL
   000243    000027 2250 03            331           LDX       X5,I$FAS,DU         Load function code
   000244 (0)000252 7100 00            332           TRA       CMC15
   000245                              333  .DBFRS   NULL
   000245    000031 2250 03            334           LDX       X5,I$FRS,DU         Load function code
   000246 (0)000252 7100 00            335           TRA       CMC15
   000247                              336  .DBFRA   NULL
   000247    000032 2250 03            337           LDX       X5,I$FRA,DU         Load function code
   000250 (0)000252 7100 00            338           TRA       CMC15
   000251                              339  .DBFRI   NULL
   000251    000035 2250 03            340           LDX       X5,I$FRI,DU         Load function code
   000252                              341  CMC15    NULL                          Used for.DBFAA .DBFAS .DBFRS .DBFRA  DBFRI
   000252 (0)001036 7060 00            342           TSX       X6,MVE_IPT
                                       343  ****   PREPARE FPT OVER ARG LIST
   000253    000003 2350 31            344           LDA       3,X1*               Overlay ID ptr with contents if its address
   000254    1 00000 7551 00           345           STA       0,,PR1
   000255    000002 2350 07            346           LDA       2,DL                Get the number of arguments
   000256    1 00001 6231 00           347           EAX       X3,1,,PR1           Get addr of 1st argument
   000257 (0)000611 7060 00            348           TSX       X6,CVOFS
   000260    000006 2350 31            349           LDA       6,X1*               Overlay RL ptr with contents of its address
   000261    1 00003 7551 00           350           STA       3,,PR1
   000262    000377 3750 07            351           ANA  =O377,DL            SHIFT COUNT TO LOWER HALF WORD
   000263 (0)000641 6000 00            352           TZE  VEC.P               NO LIST - GO SETUP VECTORS
   000264    1 00004 6231 00           353           EAX       X3,4,,PR1           Get address of 1st arg  to convert
   000265 (0)000640 7100 00            354           TRA       VECPREP             Prepare climb vector(IA,UWA,RVA,USEP)

 12:26 09/05/97  FILE=ZII$DBCSCI.:ZIC0TSI         H6600H2.396     CBL74-DBCS INTERFACE FOR CP-6  781005  25   BMAP - B00
                                       355           EJECT
   000266                              356  .DBFDR   NULL
   000266    000033 2250 03            357           LDX       X5,I$FDR,DU         Load function code
   000267 (0)001036 7060 00            358           TSX       X6,MVE_IPT
   000270 (0)000626 7060 00            359           TSX       X6,CVOF
   000271    000005 2350 31            360           LDA       5,X1*               Get retention list control word
   000272    1 00002 7551 00           361           STA       2,,PR1              Overlay the ptr with contents of its address
   000273    000377 3750 07            362           ANA  =O377,DL            SHIFT COUNT TO LOWER HALF
   000274 (0)000277 6000 00            363           TZE       FDRX                Transfer if none
                                       364  *                                      $A has # of args to convert
   000275    1 00003 6231 00           365           EAX       X3,3,,PR1           Get address of 1st argument
   000276 (0)000611 7060 00            366           TSX       X6,CVOFS
   000277                              367  FDRX     NULL
   000277    000004 2260 11            368           LDX       X6,4,X1             Locate DBK in parameter list
   000300 (2)000027 7460 00            369           STX       X6,PM6+1            Store DBK
   000301    000000 2260 03            370           LDX       X6,,DU
   000302 (2)000026 7460 00            371           STX       X6,PM6              Set size field of vector= 3 bytes
   000303    000022 2240 03            372           LDX       X4,6ARGS,DU         Set up for 6 parameters
   000304 (0)000642 7100 00            373           TRA       VEC.Q

 12:26 09/05/97  FILE=ZII$DBCSCI.:ZIC0TSI         H6600H2.396     CBL74-DBCS INTERFACE FOR CP-6  781005  26   BMAP - B00
                                       374           EJECT
   000305                              375  .DBFUI   NULL
   000305    000034 2250 03            376           LDX       X5,I$FUI,DU         load function code
   000306 (0)001036 7060 00            377           TSX       X6,MVE_IPT
                                       378  ****   PREPARE FPT OVER ARG LIST
   000307    000002 2350 07            379           LDA       2,DL                Get # of arguments to convert
   000310    1 00000 6231 00           380           EAX       X3,0,,PR1           Get addr of 1st argument to convert
   000311 (0)000611 7060 00            381           TSX       X6,CVOFS
   000312    000005 2350 31            382           LDA       5,X1*               Overlay ptr with contents
   000313    1 00002 7551 00           383           STA       2,,PR1
   000314    000377 3750 07            384           ANA  =O377,DL            SHIFT COUNT TO LOWER HALF WORD
   000315 (0)000641 6000 00            385           TZE  VEC.P               NO LIST - GO SETUP VECTORS
   000316    1 00003 6231 00           386           EAX       X3,3,,PR1           Get address of 1st arg to convert
   000317 (0)000640 7100 00            387           TRA       VECPREP             Go prepare climb vectors(IA,UWA,RVA,USEP)

 12:26 09/05/97  FILE=ZII$DBCSCI.:ZIC0TSI         H6600H2.396     CBL74-DBCS INTERFACE FOR CP-6  781005  27   BMAP - B00
                                       388           EJECT
   000320                              389  IDSCALC  NULL
   000320 (2)000001 4410 00            390           SXL       X1,ZI_RETADDR      Save return address
   000321    000057 2250 03            391           LDX       X5,I$CALC,DU                  Load the function code
   000322    1 00000 2261 00           392           LDX       X6,0,,PR1          Get number of params passed
   000323    000002 1060 03            393           CMPX6     2,DU               Compare with required no. of params
   000324 (0)000607 6010 00            394           TNZ       ERRPARAMS          Transfer if incorrect no. of params passed
   000325    000022 2240 03            395           LDX       X4,6ARGS,DU                   Load the number of args
   000326 (0)001036 7060 00            396           TSX       X6,MVE_IPT                    Move the parameters to  temp space
   000327    000003 2260 11            397           LDX       X6,3,X1                       Get address of 2nd param(dbk to be
   000330 (2)000027 7460 00            398           STX       X6,PM6+1                      Store it in IPT location for DBK
   000331    000000 2260 03            399           LDX       X6,,DU
   000332 (2)000026 7460 00            400           STX       X6,PM6
   000333    000002 2260 11            401           LDX       X6,2,X1                       Get UWA address of the element(reco
   000334 (2)000021 1260 00            402           SBLX      X6,ZI_UWAORG                  Subtract UWA start address to get U
   000335    1 00000 7461 00           403           STX       X6,0,,PR1
   000336    1 00000 2351 00           404           LDA       0,,PR1
   000337    000022 7310 00            405           ARS       18                            Isolate and move to lower half of w
   000340    1 00000 7551 00           406           STA       0,,PR1
   000341    000004 2350 07            407           LDA       4,DL                          Get length in bytes of  V_
   000342 (2)000014 6220 00            408           EAX       X2,PM1                        Get address of the paramter to put
   000343 (0)000632 7060 00            409           TSX       X6,LEN.S
   000344    1 00000 6231 00           410           EAX       X3,0,,PR1
   000345 (2)000015 7430 00            411           STX       X3,PM1+1
   000346 (0)000650 7100 00            412           TRA       KALL                          Transfer to do the climb
   000347                              413  IDSSHAREIN NULL
   000347 (2)000001 4410 00            414           SXL      X1,ZI_RETADDR        Save return address
   000350    000045 2250 03            415           LDX       X5,I$SHIN,DU
   000351    000000 2240 03            416           LDX        X4,0ARG,DU
   000352 (0)000651 7100 00            417           TRA       KLIMER
   000353                              418  IDSNOSHARE NULL
   000353 (2)000001 4410 00            419           SXL      X1,ZI_RETADDR        Save return address
   000354    000047 2250 03            420           LDX       X5,I$SHNO,DU
   000355    000000 2240 03            421           LDX        X4,0ARG,DU
   000356 (0)000651 7100 00            422           TRA       KLIMER
   000357                              423  IDSSHARE NULL
   000357 (2)000001 4410 00            424           SXL      X1,ZI_RETADDR        Save return address
 12:26 09/05/97  FILE=ZII$DBCSCI.:ZIC0TSI         H6600H2.396     CBL74-DBCS INTERFACE FOR CP-6  781005  28   BMAP - B00
   000360    000046 2250 03            425           LDX       X5,I$SHALL,DU
   000361    000000 2240 03            426           LDX        X4,0ARG,DU
   000362 (0)000651 7100 00            427           TRA       KLIMER
   000363                              428  IDSSHAREANY NULL
   000363 (2)000001 4410 00            429           SXL      X1,ZI_RETADDR        Save return address
   000364    000056 2250 03            430           LDX       X5,I$SHANY,DU
   000365    000000 2240 03            431           LDX        X4,0ARG,DU
   000366 (0)000651 7100 00            432           TRA       KLIMER
   000367                              433  IDSSHARECUR NULL
   000367 (2)000001 4410 00            434           SXL       X1,ZI_RETADDR
   000370    000052 2250 03            435           LDX       X5,I$SHCUR,DU
   000371    000000 2240 03            436           LDX       X4,0ARG,DU
   000372 (0)000651 7100 00            437           TRA       KLIMER
   000373                              438  IDSSHAREINCUR NULL
   000373 (2)000001 4410 00            439           SXL       X1,ZI_RETADDR
   000374    000062 2250 03            440           LDX       X5,I$SHINCUR,DU
   000375    000000 2240 03            441           LDX       X4,0ARG,DU
   000376 (0)000651 7100 00            442           TRA       KLIMER
   000377                              443  IDSREDUCEQ  NULL
   000377 (2)000001 4410 00            444           SXL       X1,ZI_RETADDR
   000400    000061 2250 03            445           LDX       X5,I$REDUCEQ,DU
   000401    1 00000 2261 00           446           LDX       X6,0,,PR1          Get number of params passed
   000402    000001 1060 03            447           CMPX6     1,DU               Compare with required no. of params
   000403 (0)000607 6010 00            448           TNZ       ERRPARAMS          Transfer if incorrect no. of params passed
   000404    000003 2240 03            449           LDX       X4,1ARG,DU
   000405 (2)000003 6260 00            450           EAX       X6,CNT         RETURN NUM PAGE DEQED HERE IN CNT
   000406 (2)000033 7460 00            451           STX       X6,CPM1+1
   000407    000004 2350 07            452           LDA       4,DL           SBIN WORD OF CNT
   000410 (2)000032 6220 00            453           EAX       X2,CPM1        VECTOR ADDRESS
   000411 (0)000632 7060 00            454           TSX       X6,LEN.S       MAKE VECTOR FOR THE PARAMETER
   000412 (2)000032 6304 00            455           EPPR      PR0,CVECTR
   000413 (0)000651 7100 00            456           TRA       KLIMER
   000414                              457  IDSKEEP  NULL
   000414 (2)000001 4410 00            458           SXL       X1,ZI_RETADDR
   000415    000060 2250 03            459           LDX       X5,I$KEEP,DU
   000416    1 00000 2261 00           460           LDX       X6,0,,PR1          Get number of params passed
   000417    000001 1060 03            461           CMPX6     1,DU               Compare with required no. of params
 12:26 09/05/97  FILE=ZII$DBCSCI.:ZIC0TSI         H6600H2.396     CBL74-DBCS INTERFACE FOR CP-6  781005  29   BMAP - B00
   000420 (0)000607 6010 00            462           TNZ       ERRPARAMS          Transfer if incorrect no. of params passed
   000421    000003 2240 03            463           LDX       X4,1ARG,DU
   000422    0 00000 2261 00           464           LDX       X6,0,,PR0      LOAD ADDR OF F1RST ARG
   000423 (2)000033 7460 00            465           STX       X6,CPM1+1
   000424    000007 2350 07            466           LDA       7,DL           SIZE OF PARAM (DB_STATUS 7 CHAR)
   000425 (2)000032 6220 00            467           EAX       X2,CPM1        VECTOR ADDRESS
   000426 (0)000632 7060 00            468           TSX       X6,LEN.S       MAKE VECTOR FOR THE PARAMETER
   000427 (2)000032 6304 00            469           EPPR      PR0,CVECTR
   000430 (0)000651 7100 00            470           TRA       KLIMER

 12:26 09/05/97  FILE=ZII$DBCSCI.:ZIC0TSI         H6600H2.396     CBL74-DBCS INTERFACE FOR CP-6  781005  30   BMAP - B00
                                       471           EJECT
   000431                              472  IDSTRACEON NULL
   000431    000041 2250 03            473           LDX       X5,I$TRON,DU
   000432 (0)000434 7100 00            474           TRA       TRCARG              Go set up the arguments
   000433                              475  IDSTRACEOFF NULL
   000433    000042 2250 03            476           LDX       X5,I$TROFF,DU
   000434                              477  TRCARG   NULL
   000434 (2)000001 4410 00            478           SXL      X1,ZI_RETADDR        Save return address
   000435    1 00000 2261 00           479           LDX      X6,0,,PR1            Get number of params
   000436 (0)000447 6010 00            480           TNZ       1PARMF              Transfer if  1 was passed
   000437    000003 2240 03            481           LDX      X4,1ARG,DU           One argument
   000440 (2)000032 6304 00            482           EPPR      PR0,CVECTR
   000441 (2)000002 2260 03            483           LDX       X6,DUMMYZERO,DU
   000442 (2)000033 7460 00            484           STX       X6,CPM1+1           Frame the address of a dummy zero word
   000443    000004 2350 07            485           LDA       4,DL                Size in bytes of the param
   000444 (2)000032 6220 00            486           EAX       X2,CPM1             Store the address of CPM1 in reg $x2
   000445 (0)000632 7060 00            487           TSX       X6,LEN.S            Call to store the length of the param into th
   000446 (0)000651 7100 00            488           TRA       KLIMER
   000447                              489  1PARMF   NULL
   000447    000001 1060 03            490           CMPX6     1,DU               Compare with required no. of params
   000450 (0)000607 6010 00            491           TNZ       ERRPARAMS          Transfer if incorrect no. of params passed
   000451    000003 2240 03            492           LDX      X4,1ARG,DU           One argument call
   000452    0 00000 2261 00           493           LDX      X6,0,,PR0            Get parameter address
   000453 (2)000033 7460 00            494           STX       X6,CPM1+1           Store address of the  parameter into the vect
   000454    000004 2350 07            495           LDA       4,DL                Size in byte of the param being passed(Trace
   000455 (2)000032 6220 00            496           EAX       X2,CPM1             Get the address of CPM1
   000456 (0)000632 7060 00            497           TSX       X6,LEN.S            Store the length of the parameter into the ve
   000457 (2)000032 6304 00            498           EPPR     PR0,CVECTR
   000460 (0)000651 7100 00            499           TRA       KLIMER

 12:26 09/05/97  FILE=ZII$DBCSCI.:ZIC0TSI         H6600H2.396     CBL74-DBCS INTERFACE FOR CP-6  781005  31   BMAP - B00
                                       500           EJECT
   000461                              501  IDSSTATSON NULL
   000461 (2)000001 4410 00            502           SXL      X1,ZI_RETADDR        Save return address
   000462    000043 2250 03            503           LDX       X5,I$STON,DU
   000463    000000 2240 03            504           LDX       X4,0ARG,DU          No arguments being passed
   000464 (0)000651 7100 00            505           TRA       KLIMER
   000465                              506  IDSSTATSOFF NULL
   000465 (2)000001 4410 00            507           SXL      X1,ZI_RETADDR        Save return address
   000466    000044 2250 03            508           LDX       X5,I$STOFF,DU
   000467    000000 2240 03            509           LDX       X4,0ARG,DU          No arguments being passed
   000470 (0)000651 7100 00            510           TRA       KLIMER
   000471                              511  IDSRPTSTATS NULL
   000471 (2)000001 4410 00            512           SXL      X1,ZI_RETADDR        Save return address
   000472    000051 2250 03            513           LDX       X5,I$RPT,DU         Load function code
   000473    000000 2240 03            514           LDX       X4,0ARG,DU          No arguments being passed
   000474 (0)000651 7100 00            515           TRA       KLIMER

 12:26 09/05/97  FILE=ZII$DBCSCI.:ZIC0TSI         H6600H2.396     CBL74-DBCS INTERFACE FOR CP-6  781005  32   BMAP - B00
                                       516           EJECT
   000475                              517  IDSCHECK NULL
   000475 (2)000001 4410 00            518           SXL      X1,ZI_RETADDR        Save return address
   000476    000040 2250 03            519           LDX       X5,I$CHK,DU         Load function code
   000477    1 00000 2261 00           520           LDX       X6,0,,PR1          Get number of params passed
   000500    000002 1060 03            521           CMPX6     2,DU               Compare with required no. of params
   000501 (0)000607 6010 00            522           TNZ       ERRPARAMS          Transfer if incorrect no. of params passed
   000502 (0)001053 7060 00            523           TSX       X6,CKPTSAVE         Save the ptr regs in case of roll back condit
   000503    000011 2240 03            524           LDX       X4,3ARGS,DU         # args(ckpt#,error_code & IA)
   000504    0 00000 2261 00           525           LDX      X6,0,,PR0            Get the checkpoint number addr.
   000505 (2)000037 7460 00            526           STX       X6,CPM3+1           Store the ckpt# as the  3rd param(CPM3)
   000506    000004 2350 07            527           LDA       4,DL                Size of the parameter in bytes
   000507 (2)000036 6220 00            528           EAX       X2,CPM3             Get address of cmp3 for vector
   000510 (0)000632 7060 00            529           TSX       X6,LEN.S            Store the size into the vector
   000511 (2)000017 2260 00            530           LDX       X6,ZI_IAORG         Get the address of the IA
   000512 (2)000035 7460 00            531           STX       X6,CPM2+1           Store it into the vector
   000513    000270 2350 07            532           LDA       IASZBYTES,DL        Get the length of the IA in byt
   000514 (2)000034 6220 00            533           EAX       X2,CPM2             Get address of the 2nd parameter vector
   000515 (0)000632 7060 00            534           TSX       X6,LEN.S
   000516    0 00001 2261 00           535           LDX      X6,1,,PR0            Get the error no address
   000517 (2)000033 7460 00            536           STX       X6,CPM1+1                     Set up as the first parameter vecto
   000520    000010 2350 07            537           LDA       8,DL                SIze will frame 2 words(8 bytes for DB-status
   000521 (2)000032 6220 00            538           EAX       X2,CPM1             Get address of the vector in order to store s
   000522 (0)000632 7060 00            539           TSX       X6,LEN.S
   000523 (2)000032 6304 00            540           EPPR     PR0,CVECTR
   000524 (0)000651 7100 00            541           TRA       KLIMER
   000525                              542  IDSROLL NULL
   000525 (2)000001 4410 00            543           SXL      X1,ZI_RETADDR        Save return address
   000526    000001 2250 03            544           LDX       X5,I$ROL,DU         Load the function code
   000527    1 00000 2261 00           545           LDX       X6,0,,PR1          Get number of params passed
   000530    000001 1060 03            546           CMPX6     1,DU               Compare with required no. of params
   000531 (0)000607 6010 00            547           TNZ       ERRPARAMS          Transfer if incorrect no. of params passed
   000532    000006 2240 03            548           LDX       X4,2ARGS,DU
   000533    0 00000 2261 00           549           LDX      X6,0,,PR0            Get the first art (error code)
   000534 (2)000033 7460 00            550           STX       X6,CPM1+1           Store into the vector
   000535    000010 2350 07            551           LDA       8,DL                Size of the parameter in bytes
   000536 (2)000032 6220 00            552           EAX       X2,CPM1             Get address of the  1st param vector
 12:26 09/05/97  FILE=ZII$DBCSCI.:ZIC0TSI         H6600H2.396     CBL74-DBCS INTERFACE FOR CP-6  781005  33   BMAP - B00
   000537 (0)000632 7060 00            553           TSX       X6,LEN.S            Store size into  vector
   000540 (2)000017 2260 00            554           LDX       X6,ZI_IAORG         Get address of the IA
   000541 (2)000035 7460 00            555           STX       X6,CPM2+1
   000542    000270 2350 07            556           LDA       IASZBYTES,DL        length of IA for CLIMB setup
   000543 (2)000034 6220 00            557           EAX       X2,CPM2
   000544 (0)000632 7060 00            558           TSX       X6,LEN.s            Store the parameter length into the vector
   000545 (2)000017 2230 00            559           LDX       X3,ZI_IAORG         Load address of IA into  $X3
   000546 (2)000032 6304 00            560           EPPR     PR0,CVECTR
   000547 (0)000651 7100 00            561           TRA       KLIMER

 12:26 09/05/97  FILE=ZII$DBCSCI.:ZIC0TSI         H6600H2.396     CBL74-DBCS INTERFACE FOR CP-6  781005  34   BMAP - B00
                                       562           EJECT
   000550                              563  IDSCRPT NULL
   000550 (2)000001 4410 00            564           SXL      X1,ZI_RETADDR        Save return address
   000551    000050 2250 03            565           LDX       X5,I$CRPT,DU
   000552    1 00000 2261 00           566           LDX       X6,0,,PR1          Get number of params passed
   000553    000001 1060 03            567           CMPX6     1,DU               Compare with required no. of params
   000554 (0)000607 6010 00            568           TNZ       ERRPARAMS          Transfer if incorrect no. of params passed
   000555    000003 2240 03            569           LDX       X4,1ARG,DU
   000556    0 00000 2261 00           570           LDX      X6,0,,PR0            Get the encryption seed address
   000557 (2)000033 7460 00            571           STX       X6,CPM1+1           Store address of encryp seed into 1st param v
   000560    000004 2350 07            572           LDA       4,DL                Number of bytes of the arg
   000561 (2)000032 6220 00            573           EAX       X2,CPM1             Get address of the param vector
   000562 (0)000632 7060 00            574           TSX       X6,LEN.S            Store the param size into the param vector
   000563 (2)000032 6304 00            575           EPPR     PR0,CVECTR
   000564 (0)000651 7100 00            576           TRA       KLIMER
   000565                              577  IDSBUFFERS NULL
   000565 (2)000001 4410 00            578           SXL      X1,ZI_RETADDR        Save return address
   000566    000053 2250 03            579           LDX       X5,I$NBF,DU        Store the function code
   000567    1 00000 2261 00           580           LDX       X6,0,,PR1          Get number of params passed
   000570    000002 1060 03            581           CMPX6     2,DU               Compare with required no. of params
   000571 (0)000607 6010 00            582           TNZ       ERRPARAMS          Transfer if incorrect no. of params passed
   000572    000006 2240 03            583           LDX       X4,2ARGS,DU
   000573    0 00000 2261 00           584           LDX      X6,0,,PR0            Get buffer request address
   000574 (2)000033 7460 00            585           STX       X6,CPM1+1           Store it into the 1st param vector
   000575    000004 2350 07            586           LDA       4,DL                Get the size of 1st aram in bytes
   000576 (2)000032 6220 00            587           EAX       X2,CPM1             Put addr of CPM1 in $X2
   000577 (0)000632 7060 00            588           TSX       X6,LEN.S            Store length of the param into Param vector
   000600    0 00001 2261 00           589           LDX      X6,1,,PR0            Get buffer received address
   000601 (2)000035 7460 00            590           STX       X6,CPM2+1           Store it into 2nd param vector
   000602    000004 2350 07            591           LDA       4,DL                Get size of 2nd param in bytes
   000603 (2)000034 6220 00            592           EAX       X2,CPM2
   000604 (0)000632 7060 00            593           TSX       X6,LEN.S            Store the length of the 2 param into 2 param
   000605 (2)000032 6304 00            594           EPPR     PR0,CVECTR
   000606 (0)000651 7100 00            595           TRA       KLIMER

 12:26 09/05/97  FILE=ZII$DBCSCI.:ZIC0TSI         H6600H2.396     CBL74-DBCS INTERFACE FOR CP-6  781005  35   BMAP - B00
                                       596           EJECT
   000607                              597  ERRPARAMS NULL
   000607  X 000000 7010 00            598           TSX       X1,ZII$COB_PARAM_ERR
   000610    000000 0110 00            599           NOP       0

 12:26 09/05/97  FILE=ZII$DBCSCI.:ZIC0TSI         H6600H2.396     CBL74-DBCS INTERFACE FOR CP-6  781005  36   BMAP - B00
                                       600           EJECT
                                       601  *
                                       602  *   Subroutine to change addr of RVA elements to RVA offsets
                                       603  *    $A = number of args to change
                                       604  *    $X3 = starting addr  of args to convert
                                       605  *
   000611                              606  CVOFS    NULL
   000611 (2)000003 7550 00            607           STA       CNT
   000612 (2)000003 7220 00            608           LXL       X2,CNT
   000613    000001 1220 03            609           SBLX      X2,1,DU
   000614    000000 6304 13            610           EPPR      PR0,0,X3            Set up for modification
   000615    000002 2240 11            611           LDX       X4,2,X1             Origin of IA
   000616    000010 3240 14            612           LCX       X4,8,X4             Complement of RVA origin
   000617                              613  CVOFS_DO NULL
   000617    0 00000 0441 12           614           ASX       X4,0,X2,PR0         Convert value to offset
   000620    000002 6050 04            615           TPL       2,IC                Offset is valid
   000621    1 00000 4501 12           616           STZ       0,X2,PR1            Operand is null
   000622    000001 1220 03            617           SBLX      X2,1,DU             Decrement argument count
   000623 (0)000617 6050 00            618           TPL       CVOFS_DO            Continue til argument count exhausts
   000624 (0)000617 6000 00            619           TZE       CVOFS_DO             Continue
   000625    000000 7100 16            620           TRA       0,X6                Return
                                       621  *
                                       622  * Subroutine to change first argument address to an RVA offset
                                       623  *
   000626                              624  CVOF     NULL
   000626    000002 2220 11            625           LDX       X2,2,X1             Get the ptr to the IA
   000627    000010 3240 12            626           LCX       X4,8,X2             Complement of the RVA
   000630    1 00000 0441 00           627           ASX       X4,0,,PR1           Convert to offset
   000631    000000 7100 16            628           TRA       0,X6                Return
                                       629  *
                                       630  *  Subroutine to set up 20 bit bound field
                                       631  *  $X2 locates the vector, $A has the bytes count
                                       632  *
   000632                              633  LEN.S    NULL                          Length subroutine
   000632    177777 2360 07            634           LDQ       MASK,DL
   000633    000000 3560 12            635           ANSQ      0,X2                Save bits 20 - 35
   000634    777777 6350 05            636           EAA       -1,AL               # of bytes -1
 12:26 09/05/97  FILE=ZII$DBCSCI.:ZIC0TSI         H6600H2.396     CBL74-DBCS INTERFACE FOR CP-6  781005  37   BMAP - B00
   000635    000002 7310 00            637           ARS       2                   Byte portion of bits 18 & 19
   000636    000000 2550 12            638           ORSA      0,X2                Insert into vector size field
   000637    000000 7100 16            639           TRA       0,X6                Return

 12:26 09/05/97  FILE=ZII$DBCSCI.:ZIC0TSI         H6600H2.396     CBL74-DBCS INTERFACE FOR CP-6  781005  38   BMAP - B00
                                       640           EJECT
   000640                              641  VECPREP  NULL
   000640 (0)000611 7060 00            642           TSX       X6,CVOFS            Convert arguments to offsets
                                       643  *
   000641                              644  VEC.P    NULL
   000641    000017 2240 03            645           LDX       X4,5ARGS,DU         Set up for five (5) arguments
                                       646  *          Build the FPT(VLP) vector
   000642                              647  VEC.Q    NULL
   000642 (0)001006 7030 00            648           TSX       X3,VECSET
   000643 (2)000000 2350 00            649           LDA      ARGSIZE              Get argument size in bytes
   000644 (2)000014 6220 00            650           EAX       X2,PM1              Get address of IPT vector
   000645 (0)000632 7060 00            651           TSX       X6,LEN.S
   000646    1 00000 6231 00           652           EAX      X3,0,,PR1            Start of FPT
   000647 (2)000015 7430 00            653           STX      X3,PM1+1             Set offset in vector
                                       654  *
                                       655  *    This section is for all IDS calls
                                       656  *
   000650                              657  KALL     NULL
   000650 (2)000014 6304 00            658           EPPR      PR0,ZI_IPT          Ptr to the vector list
   000651                              659  KLIMER   NULL                          Climb subroutine
   000651 (2)000017 2230 00            660           LDX       X3,ZI_IAORG         Locate IA
   000652 (2)000001 7210 00            661           LXL      X1,ZI_RETADDR        Remember return address
   000653    000006 4410 13            662           SXL       X1,6,X3             Store return address into IA
   000654    000007 4500 13            663           STZ       7,X3                          Zero out the IA.UPFLAG.FLAGS
   000655    000000 6200 15            664           EAX       X0,0,X5             Notice  that X0 now gets  destroyed
   000656 (0)000726 7100 14            665           TRA       ASLCLIMB,X4         Go climb to the ASL
                                       666  ***    The following code is for executing DBCS outside the ASL.  ***
                                       667  ***     To use, make the following changes:
                                       668  ***       1. Modify above instruction from...  TRA ASLCLIMB,X4
                                       669  ***                                     to...  TRA 2,IC
                                       670  ***       2. Modify instruction at ENTDEF'd location ZIT$ENTRY
                                       671  ***          from... TRA ZIT$ENTRY  to... TRA ZIR$ENTRY
   000657                              672  ZIT$ENTRY NULL
   000657 (0)000657 7100 00            673           TRA       ZIT$ENTRY           Change to ZIR$ENTRY if DBCS outside ASL
   000660 (2)000006 4524 00            674           STP       PR2,PR2SAVE         Save AUTO pointer
   000661 (2)000007 4534 00            675           STP       PR3,PR3SAVE         PR3 through PR7
   000662 (2)000010 4544 00            676           STP       PR4,PR4SAVE         dedicated
 12:26 09/05/97  FILE=ZII$DBCSCI.:ZIC0TSI         H6600H2.396     CBL74-DBCS INTERFACE FOR CP-6  781005  39   BMAP - B00
   000663 (2)000011 4554 00            677           STP       PR5,PR5SAVE              by
   000664 (2)000012 4564 00            678           STP       PR6,PR6SAVE             COBOL
   000665 (2)000013 4574 00            679           STP       PR7,PR7SAVE         Subroutines
   000666 (0)000756 7100 14            680           TRA       ICLIMB,X4           Do intra-domain climb
   000667                              681  ZITRET   NULL
   000667 (2)000017 2230 00            682           LDX       X3,ZI_IAORG         Restore IA origin in X3
   000670    000006 7210 13            683           LXL       X1,6,X3
   000671 (2)000006 4724 00            684           LDP       PR2,PR2SAVE
   000672                              685  RGRSTR   NULL                          This is a regular restore of the ptr regs
   000672 (2)000007 4734 00            686           LDP       PR3,PR3SAVE
   000673 (2)000010 4744 00            687           LDP       PR4,PR4SAVE
   000674 (2)000011 4754 00            688           LDP       PR5,PR5SAVE
   000675 (2)000012 4764 00            689           LDP       PR6,PR6SAVE
   000676 (2)000013 4774 00            690           LDP       PR7,PR7SAVE
   000677                              691  CHECK    NULL
   000677    000005 2360 13            692           LDQ      5,X3                 Get CP-6 error code
   000700 (2)000122 7560 00            693           STQ      IDSSYSERR            Store it in external location
   000701    000004 7210 13            694           LXL      X1,4,X3              Get possible DCB number
   000702 (2)000123 4410 00            695           SXL      X1,IDSSYSDCB         Store in external location
   000703    000006 7210 13            696           LXL       X1,6,X3             Restore caller's return address
   000704    000006 2260 13            697           LDX       X6,6,X3             Check to see if a roll back was performed om
   000705 (0)000715 6000 00            698           TZE       CONT                No rollback performed
   000706 (2)000125 4734 00            699           LDP       PR3,PR3CKPT         Restore the ptr back to the last ckpt
   000707 (2)000126 4744 00            700           LDP       PR4,PR4CKPT
   000710 (2)000127 4754 00            701           LDP       PR5,PR5CKPT
   000711 (2)000130 4764 00            702           LDP       PR6,PR6CKPT
   000712 (2)000131 4774 00            703           LDP       PR7,PR7CKPT
   000713    000000 6200 00            704           EAX       X0,0                          Zero out the rollback flag turned o
   000714    000006 7400 13            705           STX       X0,6,X3                       IDS located in the IA
   000715                              706  CONT     NULL
   000715    000007 2200 13            707           LDX       X0,7,X3             IA.UPFLAG.UPADR returned by DBCS
   000716    000001 6000 11            708           TZE       1,X1           No user procedure so return
   000717    000000 7000 10            709           TSX       X0,0,X0             Execute the 'use' procedure
   000720 (2)000017 2230 00            710           LDX       X3,ZI_IAORG         Locate IA
   000721    000006 7210 13            711           LXL       X1,6,X3             Restore $X1 because USEP destroys it
   000722    000007 7200 13            712           LXL       X0,7,X3             IA.UPFLAG.FLAGS returned by DBCS
   000723    000001 6000 11            713           TZE       1,X1           If exception then return back to user
 12:26 09/05/97  FILE=ZII$DBCSCI.:ZIC0TSI         H6600H2.396     CBL74-DBCS INTERFACE FOR CP-6  781005  40   BMAP - B00
   000724    000054 2250 03            714           LDX5      I$ETC,DU            Re-enter DBCS for ETC oper
   000725 (0)000650 7100 00            715           TRA       KALL

 12:26 09/05/97  FILE=ZII$DBCSCI.:ZIC0TSI         H6600H2.396     CBL74-DBCS INTERFACE FOR CP-6  781005  41   BMAP - B00
                                       716           EJECT
                                       717  *
                                       718  *              ASL climb instructions
   000726                              719  ASLCLIMB NULL
             000000000000              720  0ARG     EQU        *-ASLCLIMB
   000726    000000 7134 10            721           ENTER     ASLENTSID,0,(,X0)   ASL climb (0 parameters)
   000727    0 000 000 60 X 0000
   000730 (0)000677 7100 00            722           TRA       CHECK
             000000000003              723  1ARG     EQU        *-ASLCLIMB
   000731    000000 7134 10            724           ENTER     ASLENTSID,1,(,X0)   ASL climb (1 parameters)
   000732    1 000 000 60 X 0000
   000733 (0)000677 7100 00            725           TRA       CHECK
             000000000006              726  2ARGS    EQU       *-ASLCLIMB
   000734    000000 7134 10            727           ENTER     ASLENTSID,2,(,X0)   ASL climb (2 parameters)
   000735    1 001 000 60 X 0000
   000736 (0)000677 7100 00            728           TRA       CHECK
             000000000011              729  3ARGS    EQU       *-ASLCLIMB
   000737    000000 7134 10            730           ENTER     ASLENTSID,3,(,X0)   ASL climb (3 parameters)
   000740    1 002 000 60 X 0000
   000741 (0)000677 7100 00            731           TRA       CHECK
             000000000014              732  4ARGS    EQU       *-ASLCLIMB
   000742    000000 7134 10            733           ENTER     ASLENTSID,4,(,X0)   ASL climb (4 parameters)
   000743    1 003 000 60 X 0000
   000744 (0)000677 7100 00            734           TRA       CHECK
             000000000017              735  5ARGS    EQU       *-ASLCLIMB
   000745    000000 7134 10            736           ENTER     ASLENTSID,5,(,X0)   ASL climb (5 parameters)
   000746    1 004 000 60 X 0000
   000747 (0)000677 7100 00            737           TRA       CHECK
             000000000022              738  6ARGS    EQU        *-ASLCLIMB
   000750    000000 7134 10            739           ENTER     ASLENTSID,6,(,X0)   ASL climb (6 parameters)
   000751    1 005 000 60 X 0000
   000752 (0)000677 7100 00            740           TRA       CHECK
             000000000025              741  7ARGS    EQU        *-ASLCLIMB
   000753    000000 7134 10            742           ENTER     ASLENTSID,7,(,X0)   ASL climb (7 parameters)
   000754    1 006 000 60 X 0000
   000755 (0)000677 7100 00            743           TRA       CHECK
                                       744  *
 12:26 09/05/97  FILE=ZII$DBCSCI.:ZIC0TSI         H6600H2.396     CBL74-DBCS INTERFACE FOR CP-6  781005  42   BMAP - B00
                                       745  *              Intra-domain climb instructions
   000756                              746  ICLIMB   NULL
   000756 (0)000657 713400             747           ZERO      ZIT$ENTRY,CLIMBOP   intra-domain climb (0 params)
   000757    0 777 000 00 X 0000       748           VFD       1/0,9/0-1,8/0,6/0,12/ISSID
   000760 (0)000667 7100 00            749           TRA       ZITRET
   000761 (0)000657 713400             750           ZERO      ZIT$ENTRY,CLIMBOP   intra-domain climb (1 params)
   000762    1 000 000 00 X 0000       751           VFD       1/1,9/1-1,8/0,6/0,12/ISSID
   000763 (0)000667 7100 00            752           TRA       ZITRET
   000764 (0)000657 713400             753           ZERO      ZIT$ENTRY,CLIMBOP   intra-domain climb (2 params)
   000765    1 001 000 00 X 0000       754           VFD       1/1,9/2-1,8/0,6/0,12/ISSID
   000766 (0)000667 7100 00            755           TRA       ZITRET
   000767 (0)000657 713400             756           ZERO      ZIT$ENTRY,CLIMBOP   intra-domain climb (3 params)
   000770    1 002 000 00 X 0000       757           VFD       1/1,9/3-1,8/0,6/0,12/ISSID
   000771 (0)000667 7100 00            758           TRA       ZITRET
   000772 (0)000657 713400             759           ZERO      ZIT$ENTRY,CLIMBOP   intra-domain climb (4 params)
   000773    1 003 000 00 X 0000       760           VFD       1/1,9/4-1,8/0,6/0,12/ISSID
   000774 (0)000667 7100 00            761           TRA       ZITRET
   000775 (0)000657 713400             762           ZERO      ZIT$ENTRY,CLIMBOP   intra-domain climb (5 params)
   000776    1 004 000 00 X 0000       763           VFD       1/1,9/5-1,8/0,6/0,12/ISSID
   000777 (0)000667 7100 00            764           TRA       ZITRET
   001000 (0)000657 713400             765           ZERO      ZIT$ENTRY,CLIMBOP   intra-domain climb (6 params)
   001001    1 005 000 00 X 0000       766           VFD       1/1,9/6-1,8/0,6/0,12/ISSID
   001002 (0)000667 7100 00            767           TRA       ZITRET
   001003 (0)000657 713400             768           ZERO      ZIT$ENTRY,CLIMBOP   intra-domain climb (7 params)
   001004    1 006 000 00 X 0000       769           VFD       1/1,9/7-1,8/0,6/0,12/ISSID
   001005 (0)000667 7100 00            770           TRA       ZITRET

 12:26 09/05/97  FILE=ZII$DBCSCI.:ZIC0TSI         H6600H2.396     CBL74-DBCS INTERFACE FOR CP-6  781005  43   BMAP - B00
                                       771           EJECT
   001006                              772  VECSET   NULL
                                       773                     SET-UP THE IA VECTOR
   001006    000002 2260 11            774           LDX       X6,2,X1             Get the IA ptr
   001007 (2)000017 7460 00            775           STX       X6,PM2+1            Store the IA addr into the vector param
   001010 (2)000017 7460 00            776           STX       X6,ZI_IAORG         Save the IA address into the temp storage
   001011    000002 2350 07            777           LDA      2,DL                 Language is COBOL
   001012    000052 7550 16            778           STA      42,X6                Put into IA
                                       779                     SET-UP THE UWA VECTOR
   001013    000001 2220 16            780           LDX       X2,1,X6             Get the UWA ptr
   001014 (2)000021 7420 00            781           STX       X2,ZI_UWAORG        Store the UWA address into the 3 vector param
   001015    001762 4704 07            782           LDP0      .ISR,DL             ISR to the ptr register
   001016 (2)000004 0504 00            783           STD0      ISRTMP              Bound field of the ISR is the
   001017 (2)000004 2220 00            784           LDX       X2,ISRTMP           beginning of memory
   001020    000001 1220 16            785           SBLX      X2,1,X6             Subtract the UWA start address
   001021    000001 1220 03            786           SBLX      X2,1,DU             Adjust for 20-bit zsize = 4N-1
   001022 (2)000020 7420 00            787           STX       X2,PM3              Set bound field for vector
                                       788                     SET-UP THE RVA VECTOR
   001023    000010 2220 16            789           LDX       X2,8,X6             Get the RVA ptr
   001024 (2)000023 7420 00            790           STX       X2,PM4+1            Set the base field of the vector
   001025    000000 2220 12            791           LDX       X2,0,X2             Get the size of the reference vector
   001026    377777 3620 03            792           ANX       X2,=O377777,DU      Mask off the bit-0
   001027 (2)000022 7420 00            793           STX       X2,PM4              No size adjust; length = N+1
                                       794                     SET-UP THE USE PROCEDURE TBL VECTOR
   001030    000011 2220 16            795           LDX       X2,9,X6             Get the USEP ptr
   001031 (2)000025 7420 00            796           STX       X2,PM5+1            Set the base field of the vector
   001032    000000 2350 12            797           LDA       0,X2                17 bit size field
   001033    000001 7350 00            798           ALS       1                   Lose bit 0; N = N * 2
   001034 (2)000024 5510 60            799           STBA      PM5,60              Set bound; no adjust needed
   001035    000000 7100 13            800           TRA       0,X3                Return

 12:26 09/05/97  FILE=ZII$DBCSCI.:ZIC0TSI         H6600H2.396     CBL74-DBCS INTERFACE FOR CP-6  781005  44   BMAP - B00
                                       801           EJECT
   001036                              802  MVE_IPT  NULL
   001036 (2)000001 4410 00            803           SXL      X1,ZI_RETADDR        Save return address
   001037    1 00000 2351 00           804           LDA      0,,PR1               Get # of arguments
   001040    000022 7710 00            805           ARL      18                   Isolate
   001041    000001 1350 07            806           SBLA     1,DL                 Adjust to skip IA
   001042    000002 7350 00            807           ALS      2                    Change into byte count
   001043 (2)000000 7550 00            808           STA      ARGSIZE              Save for now
   001044    0 77776 6211 00           809           EAX      X1,-2,,PR0            Fudge to simulate old sequence
   001045    000003 6304 11            810           EPPR      PR0,3,X1            Get ptr to 1st arg to go into IPT
   001046 (2)000132 6314 00            811           EPPR      PR1,TMP_IPT         Get ptr to temporary IPT
   001047    000 0 140 1005 40         812           MLR (1,1),(1,1)
   001050    0 00000 0 0 0 0005        813           ADSC9     0,,A,PR0
   001051    1 00000 0 0 0 0005        814           ADSC9     0,,A,PR1
                                       815  *                                      We just move the args after the TSX1
                                       816  *                                      to a temporary location(IPT_TMP)
                                       817  *                                      which we will frame as the IPT
   001052    000000 7100 16            818           TRA       0,X6                Return
   001053                              819  CKPTSAVE NULL                          Save the ptr in case the user get rolled back
   001053 (2)000125 4534 00            820           STP       PR3,PR3CKPT         Save PR3
   001054 (2)000126 4544 00            821           STP       PR4,PR4CKPT          "   PR4
   001055 (2)000127 4554 00            822           STP       PR5,PR5CKPT          "   PR5
   001056 (2)000130 4564 00            823           STP       PR6,PR6CKPT          "   PR6
   001057 (2)000131 4574 00            824           STP       PR7,PR7CKPT          "   PR7
   001060    000000 7100 16            825           TRA       0,X6                Return
 2 000000                              826           USE       K693$,0             Data
   000000                              827  ARGSIZE  BSS      1                    Temp for number of args (bytes)
   000001                              828  ZI_RETADDR BSS    1                    Temp for return address
   000002                              829  DUMMYZERO BSS      1                    Dummy word of zero used when there are no pa
   000003                              830  CNT       BSS      1                   Tmp storage for cnt of args to convert
             000000000270              831  IASZBYTES EQU      184                 Size of IA in bytes
                                       832           EVEN
   000004                              833  ISRTMP   BSS       2                   Temp storage for ISR
   000006                              834  PR2SAVE  BSS       1                    save PR2
   000007                              835  PR3SAVE  BSS       1                      PR3
   000010                              836  PR4SAVE  BSS       1                      PR4
   000011                              837  PR5SAVE  BSS       1                      PR5
 12:26 09/05/97  FILE=ZII$DBCSCI.:ZIC0TSI         H6600H2.396     CBL74-DBCS INTERFACE FOR CP-6  781005  45   BMAP - B00
   000012                              838  PR6SAVE  BSS       1                      PR6
   000013                              839  PR7SAVE  BSS       1                      PR7
                                       840  *
   000014                              841  ZI_IPT   NULL                          Parameter stack vectors
   000014    000000 3 777 1 00         842  PM1      VEC       .ISR,**,1           FPT DESC
   000015    000000 0 00 1762
   000016    000055 3 777 1 00         843  PM2      VEC       .ISR,DUMMYIA,IALEN  IA DESC
   000017 (2)000044 0 00 1762
   000020    000000 3 777 1 00         844  PM3      VEC       .ISR,**,1           UWA DESC
   000021    000000 0 00 1762
   000022    000000 3 777 1 00         845  PM4      VEC       .ISR,**,1           RVA DESC
   000023    000000 0 00 1762
   000024    000000 3 777 1 00         846  PM5      VEC       .ISR,**,1           USEP DESC
   000025    000000 0 00 1762
   000026    000000 3 777 1 00         847  PM6      VEC       .ISR,**,1           6TH PARAMETER (VARIBLE)
   000027    000000 0 00 1762
   000030    000000 3 777 1 00         848  PM7      VEC       .ISR,**,1           7TH PARAMETER (VARIBLE)
   000031    000000 0 00 1762
                                       849  *
   000032                              850  CVECTR   NULL                          Call parameter stack vectors
   000032    000000 3 777 1 00         851  CPM1     VEC       .ISR,**,1           PARAM#1
   000033    000000 0 00 1762
   000034    000000 3 777 1 00         852  CPM2     VEC       .ISR,**,1           PARAM#2
   000035    000000 0 00 1762
   000036    000000 3 777 1 00         853  CPM3     VEC       .ISR,**,1           PARAM#3
   000037    000000 0 00 1762
   000040    000000 3 777 1 00         854  CPM4     VEC       .ISR,**,1           PARAM#4
   000041    000000 0 00 1762
   000042    000000 3 777 1 00         855  CPM5     VEC       .ISR,**,1           PARAM#5
   000043    000000 0 00 1762
                                       856  *
          (2)000000000017              857  ZI_IAORG EQU       PM2+1               Origin of information area
          (2)000000000021              858  ZI_UWAORG EQU      PM3+1               User work area origin
   000044                              859  DUMMYIA  BSS       46                  Dummy IA  to get rid of possible memory fault
   000122                              860  IDSSYSERR   BSS   1
   000123    000000000000              861  IDSSYSDCB   DEC   0
                                       862  *                                      Used when a user get rolled back on a call
 12:26 09/05/97  FILE=ZII$DBCSCI.:ZIC0TSI         H6600H2.396     CBL74-DBCS INTERFACE FOR CP-6  781005  46   BMAP - B00
   000124                              863  PR2CKPT  BSS       1                    save PR2
   000125                              864  PR3CKPT  BSS       1                      PR3
   000126                              865  PR4CKPT  BSS       1                      PR4
   000127                              866  PR5CKPT  BSS       1                      PR5
   000130                              867  PR6CKPT  BSS       1                      PR6
   000131                              868  PR7CKPT  BSS       1                      PR7
                                       869           EVEN
   000132                              870  TMP_IPT  BSS       50                  Temp location to bld the IPT
                                       871           END

  CONTROL SECTION TABLE

   0 CODE   EVEN  001061 K693
   1 RODATA EVEN  000000 LITERALS
   2 DATA   EVEN  000214 K693$

 12:26 09/05/97  FILE=ZII$DBCSCI.:ZIC0TSI     SYMBOL TABLE                                               47   BMAP - B00
 12101000 000000000105 .DBACC          19      *206
 12101000 000000000127 .DBACN          18      *229
 12101000 000000000076 .DBCON          16      *194
 12101000 000000000100 .DBDIS          17      *197
 12101000 000000000051 .DBERS          14      *167
 12101000 000000000241 .DBFAA          32      *327
 12101000 000000000243 .DBFAS          31      *330
 12101000 000000000034 .DBFCD          27      *148
 12101000 000000000015 .DBFCR          30      *127
 12101000 000000000040 .DBFCT          29      *154
 12101000 000000000032 .DBFDC          26      *145
 12101000 000000000223 .DBFDP          25      *310
 12101000 000000000266 .DBFDR          35      *356
 12101000 000000000011 .DBFIN          12      *121
 12101000 000000000203 .DBFKC          24      *290
 12101000 000000000201 .DBFKY          23      *287
 12101000 000000000036 .DBFOR          28      *151
 12101000 000000000247 .DBFRA          34      *336
 12101000 000000000251 .DBFRI          37      *339
 12101000 000000000245 .DBFRS          33      *333
 12101000 000000000305 .DBFUI          36      *375
 12101000 000000000175 .DBGET          38      *279
 12101000 000000000013 .DBGTF          39      *124
 12101000 000000000000 .DBHIA          10      *109
 12101000 000000000173 .DBIFM          22      *276
 12101000 000000000157 .DBIFT          20      *258
 12101000 000000000164 .DBIST          21      *266
 12101000 000000000057 .DBMOD          15      *176
 12101000 000000000006 .DBRDY          11      *117
 12101000 000000000030 .DBSTO          13      *142
 41000000 000000001762 .ISR           *69       782       842       843       844       845       846
                                      847       848       851       852       853       854       855
 40000000 000000700000 .RETCUR        *70
 41000000 000000000000 0ARG           416       421       426       431       436       441       504
                                      509       514      *720
 41000000 000000000003 1ARG           449       463       481       492       569      *723
 01101000 000000000447 1PARMF         480      *489
 12:26 09/05/97  FILE=ZII$DBCSCI.:ZIC0TSI     SYMBOL TABLE                                               48   BMAP - B00
 41000000 000000000006 2ARGS          548       583      *726
 41000000 000000000011 3ARGS          524      *729
 40000000 000000000014 4ARGS         *732
 41000000 000000000017 5ARGS          114       645      *735
 41000000 000000000022 6ARGS          222       247       372       395      *738
 41000000 000000000025 7ARGS          251      *741
 61000000 000000000000 @1             *91
 01101002 000000000000 ARGSIZE        135       649       808      *827
 01101000 000000000726 ASLCLIMB       665      *719       720       723       726       729       732
                                      735       738       741
 03601000 000000000000 ASLENTSID     *104       721       724       727       730       733       736
                                      739       742
 41000000 000000000004 BIT15          *96       212
 41000000 000000000002 BIT16          *97       212
 41000000 000000000001 BIT17          *98       212       235       249
 01101000 000000000677 CHECK         *691       722       725       728       731       734       737
                                      740       743
 01101000 000000001053 CKPTSAVE       119       523      *819
 41000000 000000713400 CLIMBOP       *107       747       750       753       756       759       762
                                      765       768
 01101000 000000000176 CMC11          278      *281
 01101000 000000000204 CMC12          289      *292
 01101000 000000000252 CMC15          329       332       335       338      *341
 01101000 000000000017 CMC2           120       123       126       129      *130
 01101000 000000000041 CMC3           144       147       150       153      *156
 01101000 000000000101 CMC6           196      *199
 01101000 000000000120 CMC7A          213      *219
 01101000 000000000121 CMC7B          218      *221
 01101000 000000000142 CMC8A          236      *242
 01101000 000000000145 CMC8B          241      *246
 01101002 000000000003 CNT            450       607       608      *830
 01101000 000000000715 CONT           698      *706
 01101002 000000000032 CPM1           451       453       465       467       484       486       494
                                      496       536       538       550       552       571       573
                                      585       587      *851
 01101002 000000000034 CPM2           531       533       555       557       590       592      *852
 01101002 000000000036 CPM3           526       528      *853
 12:26 09/05/97  FILE=ZII$DBCSCI.:ZIC0TSI     SYMBOL TABLE                                               49   BMAP - B00
 00101002 000000000040 CPM4          *854
 00101002 000000000042 CPM5          *855
 01101002 000000000032 CVECTR         455       469       482       498       540       560       575
                                      594      *850
 01101000 000000000626 CVOF           159       171       180       284       314       359      *624
 01101000 000000000611 CVOFS          297       348       366       381      *606       642
 01101000 000000000617 CVOFS_DO      *613       618       619
 01101002 000000000044 DUMMYIA        843      *859
 01101002 000000000002 DUMMYZERO      483      *829
 01101000 000000000607 ERRPARAMS      394       448       462       491       522       547       568
                                      582      *597
 01101000 000000000277 FDRX           363      *367
 41000000 000000000013 I$ACC          *91       207
 41000000 000000000012 I$ACN          *91       230
 41000000 000000000057 I$CALC         *91       391
 41000000 000000000040 I$CHK          *91       519
 41000000 000000000010 I$CON          *91       195
 41000000 000000000050 I$CRPT         *91       565
 60000000 000000000063 I$DBCSEXCFCN   *91
 41000000 000000000011 I$DIS          *91       198
 41000000 000000000006 I$ERS          *91       168
 41000000 000000000054 I$ETC          *91       714
 41000000 000000000030 I$FAA          *91       328
 41000000 000000000027 I$FAS          *91       331
 41000000 000000000023 I$FCD          *91       149
 41000000 000000000026 I$FCR          *91       128
 41000000 000000000025 I$FCT          *91       155
 41000000 000000000022 I$FDC          *91       146
 41000000 000000000021 I$FDP          *91       311
 41000000 000000000033 I$FDR          *91       357
 41000000 000000000004 I$FIN          *91       122
 41000000 000000000020 I$FKC          *91       291
 41000000 000000000017 I$FKY          *91       288
 41000000 000000000024 I$FOR          *91       152
 41000000 000000000032 I$FRA          *91       337
 41000000 000000000035 I$FRI          *91       340
 41000000 000000000031 I$FRS          *91       334
 12:26 09/05/97  FILE=ZII$DBCSCI.:ZIC0TSI     SYMBOL TABLE                                               50   BMAP - B00
 41000000 000000000034 I$FUI          *91       376
 41000000 000000000036 I$GET          *91       280
 41000000 000000000037 I$GTF          *91       125
 41000000 000000000002 I$HIA          *91       111
 41000000 000000000016 I$IFM          *91       277
 41000000 000000000014 I$IFT          *91       259
 40000000 000000000055 I$INA          *91
 41000000 000000000015 I$IST          *91       267
 41000000 000000000060 I$KEEP         *91       459
 41000000 000000000007 I$MOD          *91       177
 41000000 000000000053 I$NBF          *91       579
 41000000 000000000003 I$RDY          *91       118
 41000000 000000000061 I$REDUCEQ      *91       445
 41000000 000000000001 I$ROL          *91       544
 41000000 000000000051 I$RPT          *91       513
 41000000 000000000046 I$SHALL        *91       425
 41000000 000000000056 I$SHANY        *91       430
 41000000 000000000052 I$SHCUR        *91       435
 41000000 000000000045 I$SHIN         *91       415
 41000000 000000000062 I$SHINCUR      *91       440
 41000000 000000000047 I$SHNO         *91       420
 41000000 000000000005 I$STO          *91       143
 41000000 000000000044 I$STOFF        *91       508
 41000000 000000000043 I$STON         *91       503
 41000000 000000000042 I$TROFF        *91       476
 41000000 000000000041 I$TRON         *91       473
 41000000 000000000056 IALEN          *88       843
 41000000 000000000270 IASZBYTES      532       556      *831
 01101000 000000000756 ICLIMB         680      *746
 12101000 000000000565 IDSBUFFERS      49      *577
 12101000 000000000320 IDSCALC         40      *389
 12101000 000000000475 IDSCHECK        41      *517
 12101000 000000000550 IDSCRPT         47      *563
 12101000 000000000414 IDSKEEP         54      *457
 12101000 000000000353 IDSNOSHARE      51      *418
 12101000 000000000377 IDSREDUCEQ      55      *443
 12101000 000000000525 IDSROLL         42      *542
 12:26 09/05/97  FILE=ZII$DBCSCI.:ZIC0TSI     SYMBOL TABLE                                               51   BMAP - B00
 12101000 000000000471 IDSRPTSTATS     57      *511
 12101000 000000000357 IDSSHARE        48      *423
 12101000 000000000363 IDSSHAREANY     52      *428
 12101000 000000000367 IDSSHARECUR     53      *433
 12101000 000000000347 IDSSHAREIN      50      *413
 12101000 000000000373 IDSSHAREINCUR   56      *438
 12101000 000000000465 IDSSTATSOFF     46      *506
 12101000 000000000461 IDSSTATSON      45      *501
 07101002 000000000123 IDSSYSDCB       62       695      *861
 07101002 000000000122 IDSSYSERR       61       693      *860
 12101000 000000000433 IDSTRACEOFF     44      *475
 12101000 000000000431 IDSTRACEON      43      *472
 01101002 000000000004 ISRTMP         783       784      *833
 03601001 000000000000 ISSID         *105       748       751       754       757       760       763
                                      766       769
 01101000 000000000650 KALL           115       412      *657       715
 01101000 000000000651 KLIMER         417       422       427       432       437       442       456
                                      470       488       499       505       510       515       541
                                      561       576       595      *659
 01101000 000000000632 LEN.S          409       454       468       487       497       529       534
                                      539       553       558       574       588       593      *633
                                      651
 41000000 000000177777 MASK           *99       634
 01101000 000000001036 MVE_IPT        131       157       169       178       200       208       231
                                      260       268       282       293       312       342       358
                                      377       396      *802
 01101002 000000000014 PM1            408       411       650       653      *842
 01101002 000000000016 PM2            775      *843       857
 01101002 000000000020 PM3            787      *844       858
 01101002 000000000022 PM4            790       793      *845
 01101002 000000000024 PM5            796       799      *846
 01101002 000000000026 PM6            224       226       253       255       369       371       398
                                      400      *847
 01101002 000000000030 PM7            244      *848
 41000000 000000000000 PR0            *80       112       455       464       469       482       493
                                      498       525       535       540       549       560       570
                                      575       584       589       594       610       614       658
 12:26 09/05/97  FILE=ZII$DBCSCI.:ZIC0TSI     SYMBOL TABLE                                               52   BMAP - B00
                                      809       810       813
 41000000 000000000001 PR1            *81       134       139       161       164       173       182
                                      184       186       191       203       211       217       220
                                      234       240       245       263       271       273       296
                                      299       301       304       307       316       318       321
                                      324       345       347       350       353       361       365
                                      380       383       386       392       403       404       406
                                      410       446       460       479       520       545       566
                                      580       616       627       652       804       811       814
 41000000 000000000002 PR2            *82       674       684
 00101002 000000000124 PR2CKPT       *863
 01101002 000000000006 PR2SAVE        674       684      *834
 41000000 000000000003 PR3            *83       675       686       699       820
 01101002 000000000125 PR3CKPT        699       820      *864
 01101002 000000000007 PR3SAVE        675       686      *835
 41000000 000000000004 PR4            *84       676       687       700       821
 01101002 000000000126 PR4CKPT        700       821      *865
 01101002 000000000010 PR4SAVE        676       687      *836
 41000000 000000000005 PR5            *85       677       688       701       822
 01101002 000000000127 PR5CKPT        701       822      *866
 01101002 000000000011 PR5SAVE        677       688      *837
 41000000 000000000006 PR6            *86       678       689       702       823
 01101002 000000000130 PR6CKPT        702       823      *867
 01101002 000000000012 PR6SAVE        678       689      *838
 41000000 000000000007 PR7            *87       679       690       703       824
 01101002 000000000131 PR7CKPT        703       824      *868
 01101002 000000000013 PR7SAVE        679       690      *839
 00101000 000000000672 RGRSTR        *685
 01101002 000000000132 TMP_IPT        811      *870
 01101000 000000000434 TRCARG         474      *477
 01101000 000000000641 VEC.P          138       163       174       189       264       285       305
                                      322       352       385      *644
 01101000 000000000642 VEC.Q          227       256       373      *647
 01101000 000000000640 VECPREP        140       165       192       204       274       308       325
                                      354       387      *641
 01101000 000000001006 VECSET         113       648      *772
 41000000 000000000000 X0             *72       664       704       705       707       709       712
 12:26 09/05/97  FILE=ZII$DBCSCI.:ZIC0TSI     SYMBOL TABLE                                               53   BMAP - B00
 41000000 000000000001 X1             *73       110       112       390       414       419       424
                                      429       434       439       444       458       478       502
                                      507       512       518       543       564       578       598
                                      661       662       683       694       695       696       711
                                      803       809
 41000000 000000000002 X2             *74       215       238       408       453       467       486
                                      496       528       533       538       552       557       573
                                      587       592       608       609       617       625       650
                                      780       781       784       785       786       787       789
                                      790       791       792       793       795       796
 41000000 000000000003 X3             *75       113       139       164       191       203       273
                                      296       307       324       347       353       365       380
                                      386       410       411       559       648       652       653
                                      660       682       710
 41000000 000000000004 X4             *76       114       222       247       251       372       395
                                      416       421       426       431       436       441       449
                                      463       481       492       504       509       514       524
                                      548       569       583       611       612       614       626
                                      627       645
 41000000 000000000005 X5             *77       111       118       122       125       128       143
                                      146       149       152       155       168       177       195
                                      198       207       230       259       267       277       280
                                      288       291       311       328       331       334       337
                                      340       357       376       391       415       420       425
                                      430       435       440       445       459       473       476
                                      503       508       513       519       544       565       579
 41000000 000000000006 X6             *78       119       131       157       159       169       171
                                      178       180       200       208       223       224       225
                                      226       231       243       244       252       253       254
                                      255       260       268       282       284       293       297
                                      312       314       342       348       358       359       366
                                      368       369       370       371       377       381       392
                                      396       397       398       399       400       401       402
                                      403       409       446       450       451       454       460
                                      464       465       468       479       483       484       487
                                      493       494       497       520       523       525       526
                                      529       530       531       534       535       536       539
 12:26 09/05/97  FILE=ZII$DBCSCI.:ZIC0TSI     SYMBOL TABLE                                               54   BMAP - B00
                                      545       549       550       553       554       555       558
                                      566       570       571       574       580       584       585
                                      588       589       590       593       642       651       697
                                      774       775       776
 40000000 000000000007 X7             *79
 03201000 000000000000 ZII$COB_PARAM_ERR        *63       598
 13101000 000000000657 ZIT$ENTRY      106      *672       673       747       750       753       756
                                      759       762       765       768
 01101000 000000000667 ZITRET        *681       749       752       755       758       761       764
                                      767       770
 00101000 000000000000 ZI_FCNVCT      *91
 47101002 000000000017 ZI_IAORG        59       530       554       559       660       682       710
                                      776      *857
 01101002 000000000014 ZI_IPT         658      *841
 07101002 000000000001 ZI_RETADDR      58       110       390       414       419       424       429
                                      434       439       444       458       478       502       507
                                      512       518       543       564       578       661       803
                                     *828
 47101002 000000000021 ZI_UWAORG       60       402       781      *858

     207 SYMBOLS

 12:26 09/05/97  FILE=ZII$DBCSCI.:ZIC0TSI     MACRO TABLE                                                55   BMAP - B00
 DBCS_ENTRY      91
 DBCS_FCNS       91

       3 MACROS

    SYMBOL SPACE USED  3575 WORDS
     MACRO SPACE USED   819 WORDS
   INPUT RECORDS READ  1834
 STATEMENTS PROCESSED  1488
         ELAPSED TIME  0:15.32
             CPU TIME     9.54 SEC.
        ASSEMBLY RATE  9358 STATEMENTS/CPU MIN.

      NO ERRORS

