
 12:27 09/05/97  FILE=ZII$FIND_FIRST_MOVE                                                                1    BMAP - B00
                                         1  *M* ZII$FIND_FIRST_MOVE  Move various flavors of zero as needed.
                                         2  *T***********************************************************
                                         3  *T*                                                         *
                                         4  *T* Copyright (c) Bull HN Information Systems Inc., 1997    *
                                         5  *T*                                                         *
                                         6  *T***********************************************************
                                         7  *
 0 000000                                8           USE       ZII$FIND_FIRST_MOVE_P,1
                                         9           ENTDEF    ZII$FIND_FIRST_MOVE
                                        10           ENTDEF    ZII$FIND1ST_MOVE_Z
                                        11           ENTDEF    ZII$FIND1ST_MOVE_4UN
                                        12           ENTDEF    ZII$FIND1ST_MOVE_4LS
                                        13           ENTDEF    ZII$FIND1ST_MOVE_4TS
                                        14           ENTDEF    ZII$FIND1ST_MOVE_9UN
                                        15           ENTDEF    ZII$FIND1ST_MOVE_9LS
                                        16           ENTDEF    ZII$FIND1ST_MOVE_9TS
             000000000001               17  PR       BOOL      1                   PR EIS descriptor modification
             000000000001               18  RL       BOOL      1                   RL EIS descriptor modification
             000000000001               19  ID       BOOL      1                   ID EIS descriptor modification
                                        20
             000000000060               21  ASC_0    BOOL      060
                                        22  *
             000000000000               23  PK_0     BOOL      000
                                        24  *
             000000000007               25  PR7      BOOL      7

 12:27 09/05/97  FILE=ZII$FIND_FIRST_MOVE                                                                2    BMAP - B00
                                        26           EJECT
   000000                               27  ZII$FIND_FIRST_MOVE  NULL
   000000                               28  ZII$FIND1ST_MOVE_Z   NULL
   000000 (2)000000 4774 00             29           LDP7      ZII_FIND1ST_MOVE_PTR$
   000001 (2)000001 2360 00             30           LDQ       ZII_FIND1ST_MOVE_OFF
   000002 (2)000002 7270 00             31           LXL7      ZII_FIND1ST_MOVE_LEN
   000003    000 0 146 1004 00          32           MLR       ,(PR,RL,,Q),0
   000004    000000 0 0 0 0000          33           ADSC9     0
   000005    7 00000 0 0 0 0017         34           ADSC9     0,,X7,PR7
   000006    000001 7020 11             35           TSX2      1,X1
                                        36  *
                                        37  *
                                        38  *
   000007    053060060060               39  ASC_PL   EDEC      4A+000
   000010    300000000000               40  PK_PL    EDEC      8P+0000000
                                        41  *
                                        42  *
                                        43  *
   000011                               44  ZII$FIND1ST_MOVE_4UN NULL
   000011 (2)000000 4774 00             45           LDP7      ZII_FIND1ST_MOVE_PTR$
   000012 (2)000001 2360 00             46           LDQ       ZII_FIND1ST_MOVE_OFF
   000013 (2)000002 7270 00             47           LXL7      ZII_FIND1ST_MOVE_LEN
   000014    000 0 146 1004 00          48           MLR       ,(PR,RL,,Q),PK_0
   000015    000000 0 2 0 0000          49           ADSC4     0
   000016    7 00000 0 2 0 0017         50           ADSC4     0,,X7,PR7
   000017    000001 7020 11             51           TSX2      1,X1
                                        52  *
                                        53  *
                                        54  *
   000020                               55  ZII$FIND1ST_MOVE_4LS NULL
   000020 (2)000000 4774 00             56           LDP7      ZII_FIND1ST_MOVE_PTR$
   000021 (2)000001 2360 00             57           LDQ       ZII_FIND1ST_MOVE_OFF
   000022 (2)000002 7270 00             58           LXL7      ZII_FIND1ST_MOVE_LEN
   000023    000 0 146 1004 00          59           MLR       ,(PR,RL,,Q),PK_0
   000024 (0)000010 0 2 0 0001          60           ADSC4     PK_PL,,1
   000025    7 00000 0 2 0 0017         61           ADSC4     0,,X7,PR7
   000026    000001 7020 11             62           TSX2      1,X1
 12:27 09/05/97  FILE=ZII$FIND_FIRST_MOVE                                                                3    BMAP - B00
                                        63  *
                                        64  *
                                        65  *
   000027                               66  ZII$FIND1ST_MOVE_4TS NULL
   000027 (2)000000 4774 00             67           LDP7      ZII_FIND1ST_MOVE_PTR$
   000030 (2)000001 2360 00             68           LDQ       ZII_FIND1ST_MOVE_OFF
   000031 (2)000002 7270 00             69           LXL7      ZII_FIND1ST_MOVE_LEN
   000032    000 0 146 1014 00          70           MRL       ,(PR,RL,,Q),PK_0
   000033 (0)000010 0 2 0 0001          71           ADSC4     PK_PL,,1
   000034    7 00000 0 2 0 0017         72           ADSC4     0,,X7,PR7
   000035    000001 7020 11             73           TSX2      1,X1
                                        74  *
                                        75  *
                                        76  *
   000036                               77  ZII$FIND1ST_MOVE_9UN NULL
   000036 (2)000000 4774 00             78           LDP7      ZII_FIND1ST_MOVE_PTR$
   000037 (2)000001 2360 00             79           LDQ       ZII_FIND1ST_MOVE_OFF
   000040 (2)000002 7270 00             80           LXL7      ZII_FIND1ST_MOVE_LEN
   000041    060 0 146 1004 00          81           MLR       ,(PR,RL,,Q),ASC_0
   000042    000000 0 0 0 0000          82           ADSC9     0
   000043    7 00000 0 0 0 0017         83           ADSC9     0,,X7,PR7
   000044    000001 7020 11             84           TSX2      1,X1
                                        85  *
                                        86  *
                                        87  *
   000045                               88  ZII$FIND1ST_MOVE_9LS NULL
   000045 (2)000000 4774 00             89           LDP7      ZII_FIND1ST_MOVE_PTR$
   000046 (2)000001 2360 00             90           LDQ       ZII_FIND1ST_MOVE_OFF
   000047 (2)000002 7270 00             91           LXL7      ZII_FIND1ST_MOVE_LEN
   000050    060 0 146 1004 00          92           MLR       ,(PR,RL,,Q),ASC_0
   000051 (0)000007 0 0 0 0001          93           ADSC9     ASC_PL,,1
   000052    7 00000 0 0 0 0017         94           ADSC9     0,,X7,PR7
   000053    000001 7020 11             95           TSX2      1,X1
                                        96  *
                                        97  *
                                        98  *
   000054                               99  ZII$FIND1ST_MOVE_9TS NULL
 12:27 09/05/97  FILE=ZII$FIND_FIRST_MOVE                                                                4    BMAP - B00
   000054 (2)000000 4774 00            100           LDP7      ZII_FIND1ST_MOVE_PTR$
   000055 (2)000001 2360 00            101           LDQ       ZII_FIND1ST_MOVE_OFF
   000056 (2)000002 7270 00            102           LXL7      ZII_FIND1ST_MOVE_LEN
   000057    060 0 146 1014 00         103           MRL       ,(PR,RL,,Q),ASC_0
   000060 (0)000007 0 0 0 0001         104           ADSC9     ASC_PL,,1
   000061    7 00000 0 0 0 0017        105           ADSC9     0,,X7,PR7
   000062    000001 7020 11            106           TSX2      1,X1
                                       107  *
                                       108  *
                                       109  *
 2 000000                              110           USE       ZII$FIND_FIRST_MOVE_D,0
                                       111           SYMDEF    ZII_FIND1ST_MOVE_PTR$
                                       112           SYMDEF    ZII_FIND1ST_MOVE_OFF
                                       113           SYMDEF    ZII_FIND1ST_MOVE_LEN
   000000    000000000000              114  ZII_FIND1ST_MOVE_PTR$ OCT 0
   000001    000000000000              115  ZII_FIND1ST_MOVE_OFF  OCT 0
   000002    000000000000              116  ZII_FIND1ST_MOVE_LEN  OCT 0
                                       117           END

  CONTROL SECTION TABLE

   0 CODE   EVEN  000063 ZII$FIND_FIRST_MOVE_P
   1 RODATA EVEN  000000 LITERALS
   2 DATA   EVEN  000003 ZII$FIND_FIRST_MOVE_D

 12:27 09/05/97  FILE=ZII$FIND_FIRST_MOVE     SYMBOL TABLE                                               5    BMAP - B00
 41000000 000000000060 ASC_0          *21        81        92       103
 01101000 000000000007 ASC_PL         *39        93       104
 40000000 000000000001 ID             *19
 41000000 000000000000 PK_0           *23        48        59        70
 01101000 000000000010 PK_PL          *40        60        71
 41000000 000000000001 PR             *17        32        48        59        70        81        92
                                      103
 41000000 000000000007 PR7            *25        34        50        61        72        83        94
                                      105
 41000000 000000000001 RL             *18        32        48        59        70        81        92
                                      103
 12101000 000000000020 ZII$FIND1ST_MOVE_4LS      12       *55
 12101000 000000000027 ZII$FIND1ST_MOVE_4TS      13       *66
 12101000 000000000011 ZII$FIND1ST_MOVE_4UN      11       *44
 12101000 000000000045 ZII$FIND1ST_MOVE_9LS      15       *88
 12101000 000000000054 ZII$FIND1ST_MOVE_9TS      16       *99
 12101000 000000000036 ZII$FIND1ST_MOVE_9UN      14       *77
 12101000 000000000000 ZII$FIND1ST_MOVE_Z        10       *28
 12101000 000000000000 ZII$FIND_FIRST_MOVE        9       *27
 07101002 000000000002 ZII_FIND1ST_MOVE_LEN      31        47        58        69        80        91
                                      102       113      *116
 07101002 000000000001 ZII_FIND1ST_MOVE_OFF      30        46        57        68        79        90
                                      101       112      *115
 07101002 000000000000 ZII_FIND1ST_MOVE_PTR$     29        45        56        67        78        89
                                      100       111      *114

      19 SYMBOLS

       0 MACROS

    SYMBOL SPACE USED   339 WORDS
     MACRO SPACE USED     0 WORDS
   INPUT RECORDS READ   234
 STATEMENTS PROCESSED   105
         ELAPSED TIME  0:02.04
             CPU TIME     0.89 SEC.
        ASSEMBLY RATE  7079 STATEMENTS/CPU MIN.
 12:27 09/05/97  FILE=ZII$FIND_FIRST_MOVE     SYMBOL TABLE                                               6    BMAP - B00

      NO ERRORS

