
PL6.E3A0      #001=ZII$GET_RVA File=ZII$GET_RVA.:ZIC0TSI                         FRI 09/05/97 12:27 Page:1
        1        1        /*T***********************************************************/
        2        2        /*T*                                                         */
        3        3        /*T* Copyright (c) Bull HN Information Systems Inc., 1997    */
        4        4        /*T*                                                         */
        5        5        /*T***********************************************************/
        6        6        ZII$GET_RVA: PROC (TYPE) AVOID($PR5,$PR6,$PR7);
        7        7    1   DCL TYPE UBIN(36) ;
        8        8    1   DCL 1 RVE_IDX UBIN(18) EXT;
        9        9    1   DCL REC$ PTR EXT;
       10       10    1   DCL RVA_SIZ UBIN(36) EXT;
       11       11        /**/
       12       12        %INCLUDE ZI$USER;
       13      157        %RVA (STCLASS="EXT");
       14      170        %INCLUDE ZI_SUB_LANG;
       15     1885        %DESC_TYPE_9 (STCLASS="BASED(REC$)");
       16     2062        %DESC_TYPE_430 (STCLASS="BASED(REC$)");
       17     2221        /**/
       18     2222    1       RVA.RVE.T(RVA.W1.COUNT)=TYPE;
              2222                /* Put in the type code for the element  to go into the rva */
       19     2223    1       IF TYPE=0 OR TYPE=1 THEN
       20     2224    1           RVA.RVE.NAME(RVA.W1.COUNT)=DESC_TYPE_9.OFFSET;
       21     2225    1       ELSE
       22     2226    1           IF TYPE=3 THEN
       23     2227    1               IF TYPE_430.DATA_TYPE=3 OR
       24     2228    1                  TYPE_430.DATA_TYPE=4 OR
       25     2229    1                  TYPE_430.DATA_TYPE=5 THEN
       26     2230    1                   RVA.RVE.NAME(RVA.W1.COUNT)=TYPE_430.OFFSET;
       27     2231    1               ELSE
       28     2232    1                   RVA.RVE.NAME(RVA.W1.COUNT)=TYPE_430.OFFSET*2;
       29     2233    1           ELSE
       30     2234    1               RVA.RVE.NAME(RVA.W1.COUNT)=DESC_TYPE_9.OFFSET*2;
       31     2235    1       RVA.W1.COUNT=RVA.W1.COUNT+1; /*Increment the count used to index into the rva */
       32     2236    1       RVE_IDX=RVA.W1.COUNT; /*Put into RVE_IDX and return */
       33     2237    1   RET:
       34     2238    1       RETURN;
       35     2239    1   END ZII$GET_RVA;

PL6.E3A0      #001=ZII$GET_RVA File=ZII$GET_RVA.:ZIC0TSI                         FRI 09/05/97 12:27 Page:2
--  Include file information  --

   ZI_SUB_LANG.:ZIC0TOU  is referenced.
   ZI$USER.:ZIC0TOU  is referenced.
   B$JIT_C.:E05TOU  was found in the system file and is never referenced.
   CP_6_C.:E05TOU  was found in the system file and is never referenced.
      No diagnostics issued in procedure ZII$GET_RVA.

   Procedure ZII$GET_RVA requires 86 words for executable code.
   Procedure ZII$GET_RVA requires 8 words of local(AUTO) storage.

    No errors detected in file ZII$GET_RVA.:ZIC0TSI    .

PL6.E3A0      #001=ZII$GET_RVA File=ZII$GET_RVA.:ZIC0TSI                         FRI 09/05/97 12:27 Page:3

 Object Unit name= ZII$GET_RVA                                File name= ZII$GET_RVA.:ZIC0TOU
 UTS= SEP 05 '97 12:27:21.24 FRI                              Compiler= PL-6/E31         Sev=      00
 SharedLib= :SHARED_SYSTEM                                    Alt SharedLib=


    ****  Control sections  ****

 Sect   Type Bound  Init  Size OctSiz  Section name(segment info)
    0  LblCom even  none     1      1  RVE_IDX
    1  LblCom even  none     1      1  REC$
    2  LblCom even  none     1      1  RVA_SIZ
    3  LblCom even  none     1      1  RVA$
    4   Proc  even  none    86    126  ZII$GET_RVA

    ****  Entry defs  ****

                              Check   Calling
                             calling  sequence
  Sect OctLoc Primary Altret sequence   type   Parms  Name
     4      0   yes            yes      XStd       1  ZII$GET_RVA

  ****  Entry refs  ****

         Check        Calling
        calling       sequence
Altret sequence SRef   type   Args  Name
                       nStd      0 X66_AUTO_1
                       nStd      0 X66_ARET
PL6.E3A0      #001=ZII$GET_RVA File=ZII$GET_RVA.:ZIC0TSI                         FRI 09/05/97 12:27 Page:4


        1        1        /*T***********************************************************/
        2        2        /*T*                                                         */
        3        3        /*T* Copyright (c) Bull HN Information Systems Inc., 1997    */
        4        4        /*T*                                                         */
        5        5        /*T***********************************************************/
        6        6        ZII$GET_RVA: PROC (TYPE) AVOID($PR5,$PR6,$PR7);

      6  4 000000   000000 700200 xent  ZII$GET_RVA  TSX0  ! X66_AUTO_1
         4 000001   000010 000001                    ZERO    8,1

        7        7    1   DCL TYPE UBIN(36) ;
        8        8    1   DCL 1 RVE_IDX UBIN(18) EXT;
        9        9    1   DCL REC$ PTR EXT;
       10       10    1   DCL RVA_SIZ UBIN(36) EXT;
       11       11        /**/
       12       12        %INCLUDE ZI$USER;
       13      157        %RVA (STCLASS="EXT");
       14      170        %INCLUDE ZI_SUB_LANG;
       15     1885        %DESC_TYPE_9 (STCLASS="BASED(REC$)");
       16     2062        %DESC_TYPE_430 (STCLASS="BASED(REC$)");
       17     2221        /**/
       18     2222    1       RVA.RVE.T(RVA.W1.COUNT)=TYPE;
              2222                /* Put in the type code for the element  to go into the rva */

   2222  4 000002   000000 470400 3                  LDP0    RVA$
         4 000003   000000 220100                    LDX0    0,,PR0
         4 000004   377777 360003                    ANX0    131071,DU
         4 000005   200003 471500                    LDP1    @TYPE,,AUTO
         4 000006   100000 721100                    LXL1    0,,PR1
         4 000007   000001 741110                    STX1    1,X0,PR0

       19     2223    1       IF TYPE=0 OR TYPE=1 THEN

   2223  4 000010   100000 235100                    LDA     0,,PR1
         4 000011   000014 600000 4                  TZE     s:2224
         4 000012   000001 115007                    CMPA    1,DL
PL6.E3A0      #001=ZII$GET_RVA File=ZII$GET_RVA.:ZIC0TSI                         FRI 09/05/97 12:27 Page:5
         4 000013   000026 601000 4                  TNZ     s:2226

       20     2224    1           RVA.RVE.NAME(RVA.W1.COUNT)=DESC_TYPE_9.OFFSET;

   2224  4 000014   000000 470400 3                  LDP0    RVA$
         4 000015   000000 220100                    LDX0    0,,PR0
         4 000016   377777 360003                    ANX0    131071,DU
         4 000017   000000 636010                    EAQ     0,X0
         4 000020   000020 772000                    QRL     16
         4 000021   000000 473400 1                  LDP3    REC$
         4 000022   000106 101500                    MRL     fill='000'O
         4 000023   300024 000004                    ADSC9   20,,PR3                  cn=0,n=4
         4 000024   000001 400002                    ADSC9   1,Q,PR0                  cn=2,n=2
         4 000025   000110 710000 4                  TRA     s:2235

       21     2225    1       ELSE
       22     2226    1           IF TYPE=3 THEN

   2226  4 000026   000003 115007                    CMPA    3,DL
         4 000027   000076 601000 4                  TNZ     s:2234

       23     2227    1               IF TYPE_430.DATA_TYPE=3 OR

   2227  4 000030   000000 470400 1                  LDP0    REC$
         4 000031   000100 100500                    MLR     fill='000'O
         4 000032   000024 000004                    ADSC9   20,,PR0                  cn=0,n=4
         4 000033   200004 000004                    ADSC9   @TYPE+1,,AUTO            cn=0,n=4
         4 000034   200004 236100                    LDQ     @TYPE+1,,AUTO
         4 000035   000003 116007                    CMPQ    3,DL
         4 000036   000053 600000 4                  TZE     s:2230
         4 000037   000100 100500                    MLR     fill='000'O
         4 000040   000024 000004                    ADSC9   20,,PR0                  cn=0,n=4
         4 000041   200005 000004                    ADSC9   @TYPE+2,,AUTO            cn=0,n=4
         4 000042   200005 236100                    LDQ     @TYPE+2,,AUTO
         4 000043   000004 116007                    CMPQ    4,DL
         4 000044   000053 600000 4                  TZE     s:2230
         4 000045   000100 100500                    MLR     fill='000'O
PL6.E3A0      #001=ZII$GET_RVA File=ZII$GET_RVA.:ZIC0TSI                         FRI 09/05/97 12:27 Page:6
         4 000046   000024 000004                    ADSC9   20,,PR0                  cn=0,n=4
         4 000047   200006 000004                    ADSC9   @TYPE+3,,AUTO            cn=0,n=4
         4 000050   200006 236100                    LDQ     @TYPE+3,,AUTO
         4 000051   000005 116007                    CMPQ    5,DL
         4 000052   000064 601000 4                  TNZ     s:2232

       24     2228    1                  TYPE_430.DATA_TYPE=4 OR
       25     2229    1                  TYPE_430.DATA_TYPE=5 THEN
       26     2230    1                   RVA.RVE.NAME(RVA.W1.COUNT)=TYPE_430.OFFSET;

   2230  4 000053   000000 473400 3                  LDP3    RVA$
         4 000054   300000 220100                    LDX0    0,,PR3
         4 000055   377777 360003                    ANX0    131071,DU
         4 000056   000000 635010                    EAA     0,X0
         4 000057   000020 771000                    ARL     16
         4 000060   000105 101500                    MRL     fill='000'O
         4 000061   000023 000004                    ADSC9   19,,PR0                  cn=0,n=4
         4 000062   300001 400002                    ADSC9   1,A,PR3                  cn=2,n=2
         4 000063   000110 710000 4                  TRA     s:2235

       27     2231    1               ELSE
       28     2232    1                   RVA.RVE.NAME(RVA.W1.COUNT)=TYPE_430.OFFSET*2;

   2232  4 000064   000000 473400 3                  LDP3    RVA$
         4 000065   300000 220100                    LDX0    0,,PR3
         4 000066   377777 360003                    ANX0    131071,DU
         4 000067   000100 101500                    MRL     fill='000'O
         4 000070   000023 000004                    ADSC9   19,,PR0                  cn=0,n=4
         4 000071   200004 000002                    ADSC9   @TYPE+1,,AUTO            cn=0,n=2
         4 000072   200004 221100                    LDX1    @TYPE+1,,AUTO
         4 000073   200004 021100                    ADLX1   @TYPE+1,,AUTO
         4 000074   300001 441110                    SXL1    1,X0,PR3
         4 000075   000110 710000 4                  TRA     s:2235

       29     2233    1           ELSE
       30     2234    1               RVA.RVE.NAME(RVA.W1.COUNT)=DESC_TYPE_9.OFFSET*2;

PL6.E3A0      #001=ZII$GET_RVA File=ZII$GET_RVA.:ZIC0TSI                         FRI 09/05/97 12:27 Page:7
   2234  4 000076   000000 470400 3                  LDP0    RVA$
         4 000077   000000 220100                    LDX0    0,,PR0
         4 000100   377777 360003                    ANX0    131071,DU
         4 000101   000000 473400 1                  LDP3    REC$
         4 000102   000100 101500                    MRL     fill='000'O
         4 000103   300024 000004                    ADSC9   20,,PR3                  cn=0,n=4
         4 000104   200004 000002                    ADSC9   @TYPE+1,,AUTO            cn=0,n=2
         4 000105   200004 221100                    LDX1    @TYPE+1,,AUTO
         4 000106   200004 021100                    ADLX1   @TYPE+1,,AUTO
         4 000107   000001 441110                    SXL1    1,X0,PR0

       31     2235    1      RVA.W1.COUNT=RVA.W1.COUNT+1; /*Increment the count used to index into the rva */

   2235  4 000110   000000 470400 3                  LDP0    RVA$
         4 000111   000000 236100                    LDQ     0,,PR0
         4 000112   000022 772000                    QRL     18
         4 000113   377777 376007                    ANQ     131071,DL
         4 000114   000001 036007                    ADLQ    1,DL
         4 000115   000022 736000                    QLS     18
         4 000116   000000 676100                    ERQ     0,,PR0
         4 000117   377777 376003                    ANQ     131071,DU
         4 000120   000000 656100                    ERSQ    0,,PR0

       32     2236    1       RVE_IDX=RVA.W1.COUNT; /*Put into RVE_IDX and return */

   2236  4 000121   000000 470400 3                  LDP0    RVA$
         4 000122   000000 220100                    LDX0    0,,PR0
         4 000123   377777 360003                    ANX0    131071,DU
         4 000124   000000 740000 0                  STX0    RVE_IDX

       33     2237    1   RET:
       34     2238    1       RETURN;

   2238  4 000125   000000 702200 xent  RET          TSX2  ! X66_ARET
       35     2239    1   END ZII$GET_RVA;

PL6.E3A0      #001=ZII$GET_RVA File=ZII$GET_RVA.:ZIC0TSI                         FRI 09/05/97 12:27 Page:8
--  Include file information  --

   ZI_SUB_LANG.:ZIC0TOU  is referenced.
   ZI$USER.:ZIC0TOU  is referenced.
   B$JIT_C.:E05TOU  was found in the system file and is never referenced.
   CP_6_C.:E05TOU  was found in the system file and is never referenced.
      No diagnostics issued in procedure ZII$GET_RVA.

   Procedure ZII$GET_RVA requires 86 words for executable code.
   Procedure ZII$GET_RVA requires 8 words of local(AUTO) storage.

    No errors detected in file ZII$GET_RVA.:ZIC0TSI    .
PL6.E3A0      #001=ZII$GET_RVA File=ZII$GET_RVA.:ZIC0TSI                         FRI 09/05/97 12:27 Page:9
          *** CROSS REFERENCE LISTING ***
**     DENOTES     IDENTIFIER DEFINITION
<<                 IDENTIFIER'S VALUE SET
>>                 IDENTIFIER'S VALUE USED
<>                 IDENTIFIER SET AND/OR USED
--                 IDENTIFIER REFERENCED
PL6.E3A0      #001=ZII$GET_RVA File=ZII$GET_RVA.:ZIC0TSI                         FRI 09/05/97 12:27 Page:10
          MINI XREF LISTING

DESC_TYPE_9.OFFSET
      2056**DCL      2224>>ASSIGN   2234>>ASSIGN
REC$
         9**DCL      1988--IMP-PTR  2119--IMP-PTR  2224>>ASSIGN   2227>>IF       2227>>IF       2227>>IF
      2230>>ASSIGN   2232>>ASSIGN   2234>>ASSIGN
RVA.RVE.EO
       166**DCL       167--REDEF
RVA.RVE.NAME
       168**DCL      2224<<ASSIGN   2230<<ASSIGN   2232<<ASSIGN   2234<<ASSIGN
RVA.RVE.T
       167**DCL      2222<<ASSIGN
RVA.W1.COUNT
       163**DCL      2222>>ASSIGN   2224>>ASSIGN   2230>>ASSIGN   2232>>ASSIGN   2234>>ASSIGN   2235<<ASSIGN
      2235>>ASSIGN   2236>>ASSIGN
RVA$
       159**DCL       160--IMP-PTR  2222>>ASSIGN   2222>>ASSIGN   2224>>ASSIGN   2224>>ASSIGN   2230>>ASSIGN
      2230>>ASSIGN   2232>>ASSIGN   2232>>ASSIGN   2234>>ASSIGN   2234>>ASSIGN   2235>>ASSIGN   2235>>ASSIGN
      2236>>ASSIGN
RVE_IDX
         8**DCL      2236<<ASSIGN
TYPE
         7**DCL         6--PROC     2222>>ASSIGN   2223>>IF       2223>>IF       2226>>IF
TYPE_430.DATA_TYPE
      2128**DCL      2227>>IF       2227>>IF       2227>>IF
TYPE_430.EIS.ADDER
      2138**DCL      2139--REDEF    2140--REDEF
TYPE_430.EIS.EIS_BITS
      2143**DCL      2144--REDEF    2148--REDEF    2176--REDEF
TYPE_430.INFO
      2185**DCL      2186--REDEF
TYPE_430.OFFSET
      2127**DCL      2230>>ASSIGN   2232>>ASSIGN
