PL6.E3A0      #002=ZII$FIND_PRESENCE_IDX File=ZII$RET_LIB.:ZIC0TSI               FRI 09/05/97 12:31 Page:189
     1209        1        /*T***********************************************************/
     1210        2        /*T*                                                         */
     1211        3        /*T* Copyright (c) Bull HN Information Systems Inc., 1997    */
     1212        4        /*T*                                                         */
     1213        5        /*T***********************************************************/
     1214        6        ZII$FIND_PRESENCE_IDX: PROC (PRESENCE_LIST,IN_VAL,OUT_IDX);
     1215        7    1   DCL IN_VAL UBIN(18);
     1216        8    1   DCL OUT_IDX UBIN;
     1217        9    1   DCL 1 PRESENCE_LIST (0:0) ALIGNED,
     1218       10    1         2 REC_NO UBIN(18) UNAL,
     1219       11    1         2 P_VALUE UBIN(18) UNAL,
     1220       12    1         2 DB_KEY_SAVE UBIN(36) UNAL;
     1221       13    1   DCL I UBIN AUTO;
     1222       14        /**/
     1223       15        %INCLUDE ZI$TOP_STRUCTS;
     1224       76        /**/
     1225       77    1       I=1;
     1226       78    2       DO WHILE(I <= PRESENCE_LIST.REC_NO(0));
     1227       79    2           IF PRESENCE_LIST.REC_NO(I) = IN_VAL THEN
     1228       80    3           DO;
     1229       81    3               OUT_IDX=I;
     1230       82    3               RETURN;
     1231       83    3               END;
     1232       84    2           I=I+1;
     1233       85    2           END;
     1234       86    1       RETURN;
     1235       87    1   END ZII$FIND_PRESENCE_IDX;
     1236       88        %EOD;

PL6.E3A0      #002=ZII$FIND_PRESENCE_IDX File=ZII$RET_LIB.:ZIC0TSI               FRI 09/05/97 12:31 Page:190
--  Include file information  --

   ZI$TOP_STRUCTS.:ZIC0TOU  is referenced.
   B$JIT_C.:E05TOU  was found in the system file and is never referenced.
   CP_6_C.:E05TOU  was found in the system file and is never referenced.
      No diagnostics issued in procedure ZII$FIND_PRESENCE_IDX.

   Procedure ZII$FIND_PRESENCE_IDX requires 28 words for executable code.
   Procedure ZII$FIND_PRESENCE_IDX requires 8 words of local(AUTO) storage.

PL6.E3A0      #002=ZII$FIND_PRESENCE_IDX File=ZII$RET_LIB.:ZIC0TSI               FRI 09/05/97 12:31 Page:191

 Object Unit name= ZII$FIND_PRESENCE_IDX                      File name= ZII$RET_LIB.:ZIC0TOU
 UTS= SEP 05 '97 12:31:31.36 FRI                              Compiler= PL-6/E31         Sev=      00
 SharedLib= :SHARED_SYSTEM                                    Alt SharedLib=


    ****  Control sections  ****

 Sect   Type Bound  Init  Size OctSiz  Section name(segment info)
    0   Proc  even  none    28     34  ZII$FIND_PRESENCE_IDX

    ****  Entry defs  ****

                              Check   Calling
                             calling  sequence
  Sect OctLoc Primary Altret sequence   type   Parms  Name
     0      0   yes            yes      Std        3  ZII$FIND_PRESENCE_IDX

  ****  Entry refs  ****

         Check        Calling
        calling       sequence
Altret sequence SRef   type   Args  Name
                       nStd      0 X66_AUTO_3
                       nStd      0 X66_ARET
PL6.E3A0      #002=ZII$FIND_PRESENCE_IDX File=ZII$RET_LIB.:ZIC0TSI               FRI 09/05/97 12:31 Page:192


     1209        1        /*T***********************************************************/
     1210        2        /*T*                                                         */
     1211        3        /*T* Copyright (c) Bull HN Information Systems Inc., 1997    */
     1212        4        /*T*                                                         */
     1213        5        /*T***********************************************************/
     1214        6        ZII$FIND_PRESENCE_IDX: PROC (PRESENCE_LIST,IN_VAL,OUT_IDX);

      6  0 000000   000000 700200 xent  ZII$FIND_PR* TSX0  ! X66_AUTO_3
         0 000001   000010 000003                    ZERO    8,3

     1215        7    1   DCL IN_VAL UBIN(18);
     1216        8    1   DCL OUT_IDX UBIN;
     1217        9    1   DCL 1 PRESENCE_LIST (0:0) ALIGNED,
     1218       10    1         2 REC_NO UBIN(18) UNAL,
     1219       11    1         2 P_VALUE UBIN(18) UNAL,
     1220       12    1         2 DB_KEY_SAVE UBIN(36) UNAL;
     1221       13    1   DCL I UBIN AUTO;
     1222       14        /**/
     1223       15        %INCLUDE ZI$TOP_STRUCTS;
     1224       76        /**/
     1225       77    1       I=1;

     77  0 000002   000001 235007                    LDA     1,DL
         0 000003   200006 755100                    STA     I,,AUTO

     1226       78    2       DO WHILE(I <= PRESENCE_LIST.REC_NO(0));

     78  0 000004   200003 470500                    LDP0    @PRESENCE_LIST,,AUTO
         0 000005   000000 236100                    LDQ     0,,PR0
         0 000006   000022 772000                    QRL     18
         0 000007   200006 116100                    CMPQ    I,,AUTO
         0 000010   000033 602000 0                  TNC     s:86

     1227       79    2           IF PRESENCE_LIST.REC_NO(I) = IN_VAL THEN

     79  0 000011   200006 235100                    LDA     I,,AUTO
PL6.E3A0      #002=ZII$FIND_PRESENCE_IDX File=ZII$RET_LIB.:ZIC0TSI               FRI 09/05/97 12:31 Page:193
         0 000012   000001 735000                    ALS     1
         0 000013   200003 470500                    LDP0    @PRESENCE_LIST,,AUTO
         0 000014   000000 220105                    LDX0    0,AL,PR0
         0 000015   200004 471500                    LDP1    @IN_VAL,,AUTO
         0 000016   100000 100100                    CMPX0   0,,PR1
         0 000017   000024 601000 0                  TNZ     s:84

     1228       80    3           DO;

     1229       81    3               OUT_IDX=I;

     81  0 000020   200005 473500                    LDP3    @OUT_IDX,,AUTO
         0 000021   200006 236100                    LDQ     I,,AUTO
         0 000022   300000 756100                    STQ     0,,PR3

     1230       82    3               RETURN;

     82  0 000023   000000 702200 xent               TSX2  ! X66_ARET

     1231       83    3               END;
     1232       84    2           I=I+1;

     84  0 000024   200006 236100                    LDQ     I,,AUTO
         0 000025   000001 036007                    ADLQ    1,DL
         0 000026   200006 756100                    STQ     I,,AUTO

     1233       85    2           END;

     85  0 000027   000000 236100                    LDQ     0,,PR0
         0 000030   000022 772000                    QRL     18
         0 000031   200006 116100                    CMPQ    I,,AUTO
         0 000032   000011 603000 0                  TRC     s:79

     1234       86    1       RETURN;

     86  0 000033   000000 702200 xent               TSX2  ! X66_ARET
     1235       87    1   END ZII$FIND_PRESENCE_IDX;
PL6.E3A0      #002=ZII$FIND_PRESENCE_IDX File=ZII$RET_LIB.:ZIC0TSI               FRI 09/05/97 12:31 Page:194
     1236       88        %EOD;

PL6.E3A0      #002=ZII$FIND_PRESENCE_IDX File=ZII$RET_LIB.:ZIC0TSI               FRI 09/05/97 12:31 Page:195
--  Include file information  --

   ZI$TOP_STRUCTS.:ZIC0TOU  is referenced.
   B$JIT_C.:E05TOU  was found in the system file and is never referenced.
   CP_6_C.:E05TOU  was found in the system file and is never referenced.
      No diagnostics issued in procedure ZII$FIND_PRESENCE_IDX.

   Procedure ZII$FIND_PRESENCE_IDX requires 28 words for executable code.
   Procedure ZII$FIND_PRESENCE_IDX requires 8 words of local(AUTO) storage.
PL6.E3A0      #002=ZII$FIND_PRESENCE_IDX File=ZII$RET_LIB.:ZIC0TSI               FRI 09/05/97 12:31 Page:196
          *** CROSS REFERENCE LISTING ***
**     DENOTES     IDENTIFIER DEFINITION
<<                 IDENTIFIER'S VALUE SET
>>                 IDENTIFIER'S VALUE USED
<>                 IDENTIFIER SET AND/OR USED
--                 IDENTIFIER REFERENCED
PL6.E3A0      #002=ZII$FIND_PRESENCE_IDX File=ZII$RET_LIB.:ZIC0TSI               FRI 09/05/97 12:31 Page:197
          MINI XREF LISTING

I
        13**DCL        77<<ASSIGN     78>>DOWHILE    79>>IF         81>>ASSIGN     84<<ASSIGN     84>>ASSIGN
IN_VAL
         7**DCL         6--PROC       79>>IF
OUT_IDX
         8**DCL         6--PROC       81<<ASSIGN
PRESENCE_LIST
         9**DCL         6--PROC
PRESENCE_LIST.REC_NO
        10**DCL        78>>DOWHILE    79>>IF

PL6.E3A0      #003=ZII$RECURSE File=ZII$RET_LIB.:ZIC0TSI                         FRI 09/05/97 12:31 Page:198
     1237        1        /*M* ZII$RECURSE Performs all of the FINDs and GETs for ZII$RETRIEVE. */
     1238        2        /*T***********************************************************/
     1239        3        /*T*                                                         */
     1240        4        /*T* Copyright (c) Bull HN Information Systems Inc., 1997    */
     1241        5        /*T*                                                         */
     1242        6        /*T***********************************************************/
     1243        7        /*P* NAME:       ZII$RECURSE
     1244        8
     1245        9             PURPOSE:     This module does all of the chain-chasing for one
     1246       10                          branch of the retrieval outlined in the path list.
     1247       11                          ZII$RECURSE does all of the actual FINDs and any
     1248       12                          indicated GETs for ZII$RETRIEVE. ZII$RETRIEVE tells
     1249       13                          ZII$RECURSE which branch of the path to traverse via
     1250       14                          the N parameter. ZII$RECURSE then tries to retrieve
     1251       15                          all of it. ZII$RECURSE returns when it either
     1252       16                          successfully finds every record for every set down
     1253       17                          the branch or hits end-of-set at some point in the
     1254       18                          branch. It altreturns if any other error occurs.
     1255       19
     1256       20             DESCRIPTION: ZII$RECURSE is a recursive routine designed to
     1257       21                          traverse a selected branch of the path given to
     1258       22                          it by ZII$RETRIEVE. If it successfully finds  record
     1259       23                          occurrences along the path, it looks at the Path
     1260       24                          list to see whether to GET this record occurrence.
     1261       25                          If so, it GETs the record, and then continues down
     1262       26                          the branch until either it reaches the end of the
     1263       27                          branch or detects end-of-set at any place on the
     1264       28                          branch via the UWA.DB_STATUS special register.
     1265       29                                                                              */
     1266       30        /*D* NAME:       ZII$RECURSE
     1267       31
     1268       32             CALL:       CALL ZII$RECURSE(N,PATH_LIST,PRESENCE_LIST,
     1269       33                                          START_OF_BRANCH,STATUS_CODE)
     1270       34                              ALTRET(LBL);
     1271       35
     1272       36             INPUT:      N             - index into PATH_LIST, indicating
     1273       37                                         where to start
PL6.E3A0      #003=ZII$RECURSE File=ZII$RET_LIB.:ZIC0TSI                         FRI 09/05/97 12:31 Page:199
     1274       38
     1275       39                         PATH_LIST     - Array describing the path of the
     1276       40                                         entire retrieval
     1277       41
     1278       42                         PRESENCE_LIST - Array containing one element for each
     1279       43                                         different record in the entire
     1280       44                                         retrieval, used to indicate whether
     1281       45                                         a record was found and store the
     1282       46                                         DBKEYs of found records
     1283       47
     1284       48                         START_OF_BRANCH - index into PATH_LIST of the start
     1285       49                                         of the branch being traversed
     1286       50
     1287       51             OUTPUT:     STATUS_CODE   - Indicates specific errors. 0 if no
     1288       52                                         error detected.
     1289       53
     1290       54             DESCRIPTION: N is the index into the PATH_LIST of the entry
     1291       55                          which describes the set to be followed for a
     1292       56                          a particular call to ZII$RECURSE. PATH_LIST.OWN_NEXT
     1293       57                          indicates whether a FIND owner or FIND member of the
     1294       58                          set should be done; '1'B =  owner, '0'B = member.
     1295       59                          In either case, PATH_LIST.REC_NO(N+1) indicates
     1296       60                          which record type is expected to be found on this
     1297       61                          call.
     1298       62
     1299       63                          The only acceptable error on a FIND is end-of-set
     1300       64                          for a FIND member, indicating that no more records
     1301       65                          of the desired type exist on this set occurrence.
     1302       66                          If any other error is specified in UWA.DB_STATUS,
     1303       67                          the STATUS_CODE is set and the altreturn taken.
     1304       68                          If end-of-set is detected, several more things are
     1305       69                          checked and possibly set. If ZII$RECURSE was trying
     1306       70                          to find a member of the first set in the branch,
     1307       71                          then the PATH_LIST.BRANCH_EXHAUSTED flag for the
     1308       72                          current branch is set since the current branch
     1309       73                          occurrence can't be traversed any further. (This
     1310       74                          indicates to ZII$RETRIEVE that it shouldn't position
PL6.E3A0      #003=ZII$RECURSE File=ZII$RET_LIB.:ZIC0TSI                         FRI 09/05/97 12:31 Page:200
     1311       75                          to this branch any more until it's time to find a
     1312       76                          new record, and hence new set occurrences, for the
     1313       77                          start of this branch. ZII$RETRIEVE takes care of
     1314       78                          those problems. ZII$RETRIEVE also takes care of
     1315       79                          setting BRANCH_EXHAUSTED flags in all other
     1316       80                          situations, such as a branch starting with a find
     1317       81                          owner.) Then, any necessary PATH_LIST.FIND_FIRST
     1318       82                          indicators are set. If the PATH_LIST indicates a
     1319       83                          lambda structure (multiple branches), then
     1320       84                          PIVOT_REC_IDX indicates the index into PATH_LIST of
     1321       85                          the first reference to the record from which
     1322       86                          branching occurs. So, if N < PIVOT_REC_IDX,
     1323       87                          ZII$RECURSE tried to find either the branching
     1324       88                          (or pivot) record itself or a record which precedes
     1325       89                          the branching point in the path. In this case,
     1326       90                          appropriate FIND_FIRST flags are set for all records
     1327       91                          from N+1 to the end of the path in order to include
     1328       92                          all branches. If N >= PIVOT_REC_IDX, we're inside
     1329       93                          a branch and don't want to upset the apple cart for
     1330       94                          any other branches. So, in this case, appropriate
     1331       95                          FIND_FIRST flags are set only for those records from
     1332       96                          N+1 to the end of the current branch.
     1333       97                          Then, the presence value (P_VALUE) of the record in
     1334       98                          the PRESENCE_LIST is set to 0 to indicate that the
     1335       99                          record was not found. The PATH_LIST.INIT_EPTR
     1336      100                          routine is used to initialize the original caller's
     1337      101                          (IDP's) specified area to something appropriate,
     1338      102                          probably zeroes or blanks. If it exists, the
     1339      103                          PATH_LIST.CONSTRAINT_EPTR is then used to constrain
     1340      104                          against the initialized area. If the constraint
     1341      105                          fails, the CONSTRAINT_FAILED flag is set. In either
     1342      106                          case, ZII$RECURSE unwinds to ZII$RETRIEVE since it
     1343      107                          can't traverse the current iteration of the branch
     1344      108                          any further.
     1345      109
     1346      110                          If a record is successfully found, N is incremented
     1347      111                          by 1. The index into the PRESENCE_LIST for the
PL6.E3A0      #003=ZII$RECURSE File=ZII$RET_LIB.:ZIC0TSI                         FRI 09/05/97 12:31 Page:201
     1348      112                          found record is located, and the presence value
     1349      113                          (P_VALUE) for the record in the PRESENCE_LIST is
     1350      114                          set to 2 (%NEW) to indicate that this record was
     1351      115                          just found. The DBKEY for the found record is
     1352      116                          stored in the PRESENCE_LIST as well. The DBKEY may
     1353      117                          be needed by ZII$RETRIEVE later in order to restore
     1354      118                          record currencies in case the database is shared.
     1355      119                          Then, PATH_LIST.GET_IND(N) is checked to see
     1356      120                          whether we should GET the found record. (GETs are
     1357      121                          not necessary if the record is only used to connect
     1358      122                          us to other records we need to find in the path.
     1359      123                          I.e., GETs are only done for records used for
     1360      124                          display or constraint.) A GET should never fail, so
     1361      125                          the STATUS_CODE is set and the altreturn taken if
     1362      126                          it does.
     1363      127
     1364      128                          If a GET is indicated and succeeds, the routine
     1365      129                          specified by PATH_LIST.CONVERT_EPTR is called to
     1366      130                          convert the record contents into whatever form the
     1367      131                          original caller of ZII$RETRIEVE (IDP) wanted and put
     1368      132                          the converted form wherever the caller indicated it
     1369      133                          should go. If PATH_LIST.CONSTRAINT_EPTR exists,
     1370      134                          that routine is called to constrain against the
     1371      135                          converted area. If the constraints fail, there's
     1372      136                          no reason to traverse the branch further since the
     1373      137                          output record being formed by ZII$RETRIEVE will
     1374      138                          never be printed, so the CONSTRAINT_FAILED flag is
     1375      139                          set and ZII$RECURSE unwinds back to ZII$RETRIEVE
     1376      140                          from wherever it is in the recursion process.
     1377      141                          ZII$RETRIEVE will then figure out where it should
     1378      142                          start in the path in order to collect the pieces of
     1379      143                          a new output record and call ZII$RECURSE again
     1380      144                          later.
     1381      145
     1382      146                          If the constraints don't fail, PATH_LIST.SET_NO(N)
     1383      147                          is checked to see if the last record was obtained
     1384      148                          for this iteration of the current branch. If not,
PL6.E3A0      #003=ZII$RECURSE File=ZII$RET_LIB.:ZIC0TSI                         FRI 09/05/97 12:31 Page:202
     1385      149                          ZII$RECURSE calls itself with the newly incremented
     1386      150                          N in order to proceed further down the branch. If
     1387      151                          so, it unwinds to ZII$RETRIEVE. ZII$RETRIEVE will
     1388      152                          position N to the proper place to start the next
     1389      153                          branch and call ZII$RECURSE again later.
     1390      154
     1391      155                          Note: The method for FINDing a member of a set has
     1392      156                          been altered somewhat from the method used in B03
     1393      157                          IDP. In the old days, simple FIND NEXTs were done,
     1394      158                          which works most of the time. However, since it is
     1395      159                          possible for multiple member record types to be
     1396      160                          present on a set AND for one or more of them to be
     1397      161                          used someplace else in the path, simple FIND NEXTs
     1398      162                          don't always work since the record-set currencies
     1399      163                          may be changed. So, to be safe, it's necessary to
     1400      164                          FIND the current of record in order to restore the
     1401      165                          proper set currencies prior to a FIND NEXT. But, one
     1402      166                          can't FIND CURRENT if no such record has been found
     1403      167                          yet for this occurrence of the set. So, a FIND FIRST
     1404      168                          is done whenever a new set occurrence is begun.
     1405      169                          After the first desired record on the set occurrence
     1406      170                          has been found, it is possible to FIND CURRENT of
     1407      171                          record and then FIND NEXT within set in order to
     1408      172                          find all other members until end-of-set is detected.
     1409      173                                                                              */
     1410      174        ZII$RECURSE: PROC (N,PATH_LIST,PRESENCE_LIST,START_OF_BRANCH,STATUS_CODE) ALTRET;
     1411      175    1   DCL N UBIN;
     1412      176    1   DCL START_OF_BRANCH UBIN;
     1413      177    1   DCL STATUS_CODE UBIN;
     1414      178    1   DCL 1 ZII$PARAMS (0:20) SYMREF,
     1415      179    1         2 L_HALF UBIN(18) UNAL,
     1416      180    1         2 R_HALF UBIN(18) UNAL;
     1417      181    1   DCL ZII$INTEGER1 SBIN SYMREF;
     1418      182    1   DCL DB_KEY_SAVE UBIN(36) UNAL EXT;
     1419      183    1   DCL RETRIEVE_RETURN BIT(72) EXT;
     1420      184    1   DCL I UBIN AUTO;
     1421      185        %EQU NEW = 2;
PL6.E3A0      #003=ZII$RECURSE File=ZII$RET_LIB.:ZIC0TSI                         FRI 09/05/97 12:31 Page:203
     1422      186    1   DCL 1 PRESENCE_LIST (0:0) ALIGNED,
     1423      187    1         2 REC_NO UBIN(18) UNAL,
     1424      188    1         2 P_VALUE UBIN(18) UNAL,
     1425      189    1         2 DB_KEY_SAVE UBIN(36) UNAL;
     1426      190    1   DCL ZI_PRINT_FLAG BIT(1) EXT;
     1427      191    1   DCL CONSTRAINT_FAILED BIT(1) ALIGNED EXT;
     1428      192    1   DCL TEMP_VALUE UBIN AUTO;
     1429      193    1   DCL PIVOT_REC_IDX UBIN EXT;
     1430      194    1   DCL GEN_CODE_EPTR EPTR STATIC;
     1431      195        /**/
     1432      196        %INCLUDE CP_6;
     1433      277        %INCLUDE ZI$STRUCTS;
     1434      349        %NAM1;
     1435      378        %UWA1;
     1436      401        %INCLUDE ZI$DESC;
     1437     1251        %DSC_SET;
     1438     1293        %DSC_REC;
     1439     1327        %KEYWD_VAL;
     1440     1374        %INCLUDE ZI$PATH_STRUCTS;
     1441     1512        %PATH_DESC (STCLASS=" ");
     1442     1552        %INCLUDE ZI$TOP_STRUCTS;
     1443     1613        %TBL_DIM_DESC (STCLASS="EXT");
     1444     1618        %INCLUDE ZI_IDPERR_SUBS;
     1445     1652        /**/
     1446     1653    1   DCL ZII$FIND ENTRY ALTRET;
     1447     1654    1   DCL ZII$GET ENTRY ALTRET;
     1448     1655    1   DCL ZII$CLR_PARAMS ENTRY;
     1449     1656    1   DCL ZII$FIND_PRESENCE_IDX ENTRY(3);
     1450     1657        /**/
     1451     1658    1       STATUS_CODE=0;
     1452     1659    1       ZII$PARAMS='0'B;
     1453     1660    1       IF NOT PATH_LIST.OWN_NEXT(N) THEN
     1454     1661    2       DO; /* Want to find next (or maybe first) member of set */
     1455     1662    2           DR$ = NAM1.DESC$(PATH_LIST.REC_NO(N+1));
     1456     1663    2           DS$ = NAM1.DESC$(PATH_LIST.SET_NO(N));
     1457     1664    2           IF PATH_LIST.FIND_FIRST(N+1) THEN /* Set up Find First */
     1458     1665    3           DO;
PL6.E3A0      #003=ZII$RECURSE File=ZII$RET_LIB.:ZIC0TSI                         FRI 09/05/97 12:31 Page:204
     1459     1666    3               ZII$PARAMS.R_HALF(0) = 4;
     1460     1667    3               ZII$PARAMS.R_HALF(1) = %FIRST;
     1461     1668    3               ZII$PARAMS.L_HALF(2) = RECORD.RVA_OFF;
     1462     1669    3               ZII$PARAMS.R_HALF(3) = %WITHIN;
     1463     1670    3               ZII$PARAMS.L_HALF(4) = SET.RVA_OFF;
     1464     1671    3               PATH_LIST.FIND_FIRST(N+1) = '0'B;
     1465     1672    3               END;
     1466     1673    3           ELSE DO; /* Find Cur of Record, then set up Find Next */
     1467     1674    3               ZII$PARAMS.R_HALF(0) = 2;
     1468     1675    3               ZII$PARAMS.R_HALF(1) = %CURRENT;
     1469     1676    3               ZII$PARAMS.L_HALF(2) = RECORD.RVA_OFF;
     1470     1677    3               CALL ZII$FIND ALTRET(BAD_FIND);
     1471     1678    3               IF UWA.DB_STATUS ~= '0000000' THEN
     1472     1679    3                   GOTO BAD_FIND;
     1473     1680    3               ZII$PARAMS = '0'B;
     1474     1681    3               ZII$PARAMS.R_HALF(0) = 3;
     1475     1682    3               ZII$PARAMS.R_HALF(1) = %NEXT;
     1476     1683    3               ZII$PARAMS.L_HALF(2) = RECORD.RVA_OFF;
     1477     1684    3               ZII$PARAMS.L_HALF(3) = SET.RVA_OFF;
     1478     1685    3               END;
     1479     1686    2           END;
     1480     1687    1       ELSE
     1481     1688    2       DO; /* Set up for find owner of set */
     1482     1689    2           ZII$PARAMS.R_HALF(0)=2;
     1483     1690    2           ZII$PARAMS.R_HALF(1)=%OWNER;
     1484     1691    2           DS$=NAM1.DESC$(PATH_LIST.SET_NO(N));
     1485     1692    2           ZII$PARAMS.L_HALF(2)=SET.RVA_OFF;
     1486     1693    2           END;
     1487     1694    1       CALL ZII$FIND ALTRET(BAD_FIND);
     1488     1695    1       PATH_LIST.FIND_ATTEMPTED(N)='1'B;
     1489     1696    1       IF UWA.DB_STATUS='0000000' THEN
     1490     1697    2       DO;
     1491     1698    2           N=N+1;
     1492     1699    2           CALL ZII$FIND_PRESENCE_IDX(PRESENCE_LIST,PATH_LIST.REC_NO(N),TEMP_VALUE);
     1493     1700    2           PRESENCE_LIST.P_VALUE(TEMP_VALUE)=%NEW;
     1494     1701    2           PRESENCE_LIST.DB_KEY_SAVE(TEMP_VALUE)=UWA.DIRECT_REFERENCE;
     1495     1702    2           PATH_LIST.BRANCH_EXHAUSTED(N)='0'B;
PL6.E3A0      #003=ZII$RECURSE File=ZII$RET_LIB.:ZIC0TSI                         FRI 09/05/97 12:31 Page:205
     1496     1703    2           END;
     1497     1704    1       ELSE
     1498     1705    1           IF UWA.DB_STATUS='0502100' /* End of Set */ THEN
     1499     1706    2           DO;
     1500     1707    2               IF PATH_LIST.REC_NO(N)=PATH_LIST.REC_NO(START_OF_BRANCH) THEN
     1501     1708    2                   PATH_LIST.BRANCH_EXHAUSTED(N)='1'B;
     1502     1709         /*
     1503     1710            If rec not found is at the lambda branching point or
     1504     1711            earlier, ensure that ZII$RETRIEVE won't try to send us thru
     1505     1712            2nd or higher branches while it's traipsing down the
     1506     1713            current iteration of the path. Keeps the EVAL_PRESENCE
     1507     1714            routine from getting confused.
     1508     1715         */
     1509     1716    2               IF N < PIVOT_REC_IDX THEN
     1510     1717    3               DO I = N+1 TO PATH_LIST.REC_NO(0)-1;
     1511     1718    3                   IF PATH_LIST.SET_NO(I) = 0 THEN
     1512     1719    3                       PATH_LIST.BRANCH_EXHAUSTED(I+1) = '1'B;
     1513     1720    3                   END;
     1514     1721         /*
     1515     1722            Set the find first flags. If the record not found is at
     1516     1723            the branching point or earlier, then we need to set the
     1517     1724            appropriate find first flags for all the branches.
     1518     1725            Otherwise, just set them from N+1 down to the end of the
     1519     1726            branch we're on.
     1520     1727         */
     1521     1728    2               IF N < PIVOT_REC_IDX THEN
     1522     1729    3               DO I = N TO PATH_LIST.REC_NO(0)-1; /* all branches */
     1523     1730    3                   IF NOT PATH_LIST.OWN_NEXT(I) AND PATH_LIST.SET_NO(I)~=0 THEN
     1524     1731    3                       PATH_LIST.FIND_FIRST(I+1)='1'B;
     1525     1732    3                   END;
     1526     1733    3               ELSE DO;
     1527     1734    3                   I=N;
     1528     1735    4                   DO WHILE(PATH_LIST.SET_NO(I)~=0); /* the rest of this branch */
     1529     1736    4                       IF NOT PATH_LIST.OWN_NEXT(I) THEN
     1530     1737    4                           PATH_LIST.FIND_FIRST(I+1)='1'B;
     1531     1738    4                       I=I+1;
     1532     1739    4                       END;
PL6.E3A0      #003=ZII$RECURSE File=ZII$RET_LIB.:ZIC0TSI                         FRI 09/05/97 12:31 Page:206
     1533     1740    3                   END;
     1534     1741    2               CALL ZII$FIND_PRESENCE_IDX(PRESENCE_LIST,PATH_LIST.REC_NO(N+1),
              1741                        TEMP_VALUE);
     1535     1742    2               PRESENCE_LIST.P_VALUE(TEMP_VALUE)=0;
     1536     1743    2               GEN_CODE_EPTR=PATH_LIST.INIT_EPTR(N+1);
     1537     1744    2               CALL GEN_CODE_EPTR ALTRET(BAD_INIT);
     1538     1745    2               GEN_CODE_EPTR = PATH_LIST.CONSTRAINT_EPTR(N+1);
     1539     1746    2               IF GEN_CODE_EPTR ~= ENTADDR(NIL) THEN
     1540     1747    2                   CALL GEN_CODE_EPTR ALTRET(CONSTLBL);
     1541     1748    2               GOTO UNWINDLBL;
     1542     1749    2               END;
     1543     1750    1           ELSE
     1544     1751    1               GOTO BAD_FIND;
     1545     1752    1       IF PATH_LIST.GET_IND(N) THEN
     1546     1753    2       DO;
     1547     1754    2           ZII$PARAMS='0'B;
     1548     1755    2           CALL ZII$GET ALTRET(BAD_GET);
     1549     1756    2           IF UWA.DB_STATUS~='0000000' THEN
     1550     1757    3           DO;
     1551     1758    3               GEN_CODE_EPTR=PATH_LIST.INIT_EPTR(N);
     1552     1759    3               CALL GEN_CODE_EPTR;
     1553     1760    3               GOTO BAD_GET;
     1554     1761    3               END;
     1555     1762    2           GEN_CODE_EPTR=PATH_LIST.CONVERT_EPTR(N);
     1556     1763    2           CALL GEN_CODE_EPTR;
     1557     1764    2           GEN_CODE_EPTR=PATH_LIST.CONSTRAINT_EPTR(N);
     1558     1765    2           IF GEN_CODE_EPTR~=ENTADDR(NIL) THEN
     1559     1766    2               CALL GEN_CODE_EPTR ALTRET(CONSTLBL);
     1560     1767    2           END;
     1561     1768    1       IF PATH_LIST.SET_NO(N)=0 THEN /* at end of this branch */
     1562     1769    1   UNWINDLBL: UNWIND TO RETRIEVE_RETURN;
     1563     1770         /* Otherwise, keep recursing down this branch. */
     1564     1771    1       CALL ZII$RECURSE(N,PATH_LIST,PRESENCE_LIST,START_OF_BRANCH,STATUS_CODE);
     1565     1772    1   CONSTLBL: IF PATH_LIST.SET_NO(N)~=0 THEN
     1566     1773    2       DO;
     1567     1774    2           CALL ZII$FIND_PRESENCE_IDX(PRESENCE_LIST,PATH_LIST.REC_NO(N+1),TEMP_VALUE);
     1568     1775    2           PRESENCE_LIST.P_VALUE(TEMP_VALUE) = 0;
PL6.E3A0      #003=ZII$RECURSE File=ZII$RET_LIB.:ZIC0TSI                         FRI 09/05/97 12:31 Page:207
     1569     1776    2           END;
     1570     1777    1       CONSTRAINT_FAILED = '1'B;
     1571     1778    1       GOTO UNWINDLBL;
     1572     1779    1   BAD_FIND:
     1573     1780    1       STATUS_CODE=%ZII_BAD_FIND;
     1574     1781    1       ALTRETURN;
     1575     1782    1   BAD_GET:
     1576     1783    1       STATUS_CODE=%ZII_BAD_GET;
     1577     1784    1       ALTRETURN;
     1578     1785    1   BAD_INIT:
     1579     1786    1       CALL M$ERR;
     1580     1787    1   END ZII$RECURSE;
     1581     1788        %EOD;

PL6.E3A0      #003=ZII$RECURSE File=ZII$RET_LIB.:ZIC0TSI                         FRI 09/05/97 12:31 Page:208
--  Include file information  --

   ZI_IDPERR_SUBS.:ZIC0TOU  is referenced.
   ZI$TOP_STRUCTS.:ZIC0TOU  is referenced.
   ZI$PATH_STRUCTS.:ZIC0TOU  is referenced.
   ZI$DESC.:ZIC0TOU  is referenced.
   ZI$STRUCTS.:ZIC0TOU  is referenced.
   CP_6.:LIB_E05  cannot be made into a system file and is referenced.
   B$JIT_C.:E05TOU  was found in the system file and is never referenced.
   CP_6_C.:E05TOU  was found in the system file and is referenced.
      No diagnostics issued in procedure ZII$RECURSE.

   Procedure ZII$RECURSE requires 366 words for executable code.
   Procedure ZII$RECURSE requires 14 words of local(AUTO) storage.

PL6.E3A0      #003=ZII$RECURSE File=ZII$RET_LIB.:ZIC0TSI                         FRI 09/05/97 12:31 Page:209

 Object Unit name= ZII$RECURSE                                File name= ZII$RET_LIB.:ZIC0TOU
 UTS= SEP 05 '97 12:31:33.96 FRI                              Compiler= PL-6/E31         Sev=      00
 SharedLib= :SHARED_SYSTEM                                    Alt SharedLib=


    ****  Control sections  ****

 Sect   Type Bound  Init  Size OctSiz  Section name(segment info)
    0  LblCom even  none     1      1  DB_KEY_SAVE
    1  LblCom even  none     2      2  RETRIEVE_RETURN
    2  LblCom even  none     1      1  ZI_PRINT_FLAG
    3  LblCom even  none     1      1  CONSTRAINT_FAILED
    4  LblCom even  none     1      1  PIVOT_REC_IDX
    5   Data  even  none     1      1  ZII$RECURSE
    6   DCB   even  none     0      0  M$UC
    7  LblCom even  none     1      1  NAM1$
    8  LblCom even  none     1      1  NAM1_SIZ
    9  LblCom even  none     1      1  NAM1_IDX
   10  LblCom even  none     1      1  UWA$
   11  LblCom even  none     1      1  UWA_SIZ
   12  LblCom even  none     1      1  UWA#
   13  LblCom even  none     1      1  DS$
   14  LblCom even  none     1      1  DR$
   15  LblCom even  none     1      1  TBL_DIM
   16  RoData even  UTS      4      4  ZII$RECURSE
   17   Proc  even  none   366    556  ZII$RECURSE
   18  RoData even  none     5      5  ZII$RECURSE

    ****  Entry defs  ****

                              Check   Calling
                             calling  sequence
  Sect OctLoc Primary Altret sequence   type   Parms  Name
    17      0   yes    yes     yes      Std        5  ZII$RECURSE
PL6.E3A0      #003=ZII$RECURSE File=ZII$RET_LIB.:ZIC0TSI                         FRI 09/05/97 12:31 Page:210

  ****  Entry refs  ****

         Check        Calling
        calling       sequence
Altret sequence SRef   type   Args  Name
 yes     yes           Std       0 ZII$FIND
         yes           Std       3 ZII$FIND_PRESENCE_IDX
 yes     yes           Std       0 ZII$GET
                       nStd      0 X66_AUTO_5
                       nStd      0 X66_AUNWIND
                       nStd      0 X66_AALT
                       nStd      0 X66_ARET

  ****  Data refs  ****

  Flags:  r = read only, s = secondary
Flgs Name                             Flgs Name                             Flgs Name
     ZII$PARAMS                            ZII$INTEGER1                          M$UC
PL6.E3A0      #003=ZII$RECURSE File=ZII$RET_LIB.:ZIC0TSI                         FRI 09/05/97 12:31 Page:211


     1237        1        /*M* ZII$RECURSE Performs all of the FINDs and GETs for ZII$RETRIEVE. */
     1238        2        /*T***********************************************************/
     1239        3        /*T*                                                         */
     1240        4        /*T* Copyright (c) Bull HN Information Systems Inc., 1997    */
     1241        5        /*T*                                                         */
     1242        6        /*T***********************************************************/
     1243        7        /*P* NAME:       ZII$RECURSE
     1244        8
     1245        9             PURPOSE:     This module does all of the chain-chasing for one
     1246       10                          branch of the retrieval outlined in the path list.
     1247       11                          ZII$RECURSE does all of the actual FINDs and any
     1248       12                          indicated GETs for ZII$RETRIEVE. ZII$RETRIEVE tells
     1249       13                          ZII$RECURSE which branch of the path to traverse via
     1250       14                          the N parameter. ZII$RECURSE then tries to retrieve
     1251       15                          all of it. ZII$RECURSE returns when it either
     1252       16                          successfully finds every record for every set down
     1253       17                          the branch or hits end-of-set at some point in the
     1254       18                          branch. It altreturns if any other error occurs.
     1255       19
     1256       20             DESCRIPTION: ZII$RECURSE is a recursive routine designed to
     1257       21                          traverse a selected branch of the path given to
     1258       22                          it by ZII$RETRIEVE. If it successfully finds  record
     1259       23                          occurrences along the path, it looks at the Path
     1260       24                          list to see whether to GET this record occurrence.
     1261       25                          If so, it GETs the record, and then continues down
     1262       26                          the branch until either it reaches the end of the
     1263       27                          branch or detects end-of-set at any place on the
     1264       28                          branch via the UWA.DB_STATUS special register.
     1265       29                                                                              */
     1266       30        /*D* NAME:       ZII$RECURSE
     1267       31
     1268       32             CALL:       CALL ZII$RECURSE(N,PATH_LIST,PRESENCE_LIST,
     1269       33                                          START_OF_BRANCH,STATUS_CODE)
     1270       34                              ALTRET(LBL);
     1271       35
     1272       36             INPUT:      N             - index into PATH_LIST, indicating
PL6.E3A0      #003=ZII$RECURSE File=ZII$RET_LIB.:ZIC0TSI                         FRI 09/05/97 12:31 Page:212
     1273       37                                         where to start
     1274       38
     1275       39                         PATH_LIST     - Array describing the path of the
     1276       40                                         entire retrieval
     1277       41
     1278       42                         PRESENCE_LIST - Array containing one element for each
     1279       43                                         different record in the entire
     1280       44                                         retrieval, used to indicate whether
     1281       45                                         a record was found and store the
     1282       46                                         DBKEYs of found records
     1283       47
     1284       48                         START_OF_BRANCH - index into PATH_LIST of the start
     1285       49                                         of the branch being traversed
     1286       50
     1287       51             OUTPUT:     STATUS_CODE   - Indicates specific errors. 0 if no
     1288       52                                         error detected.
     1289       53
     1290       54             DESCRIPTION: N is the index into the PATH_LIST of the entry
     1291       55                          which describes the set to be followed for a
     1292       56                          a particular call to ZII$RECURSE. PATH_LIST.OWN_NEXT
     1293       57                          indicates whether a FIND owner or FIND member of the
     1294       58                          set should be done; '1'B =  owner, '0'B = member.
     1295       59                          In either case, PATH_LIST.REC_NO(N+1) indicates
     1296       60                          which record type is expected to be found on this
     1297       61                          call.
     1298       62
     1299       63                          The only acceptable error on a FIND is end-of-set
     1300       64                          for a FIND member, indicating that no more records
     1301       65                          of the desired type exist on this set occurrence.
     1302       66                          If any other error is specified in UWA.DB_STATUS,
     1303       67                          the STATUS_CODE is set and the altreturn taken.
     1304       68                          If end-of-set is detected, several more things are
     1305       69                          checked and possibly set. If ZII$RECURSE was trying
     1306       70                          to find a member of the first set in the branch,
     1307       71                          then the PATH_LIST.BRANCH_EXHAUSTED flag for the
     1308       72                          current branch is set since the current branch
     1309       73                          occurrence can't be traversed any further. (This
PL6.E3A0      #003=ZII$RECURSE File=ZII$RET_LIB.:ZIC0TSI                         FRI 09/05/97 12:31 Page:213
     1310       74                          indicates to ZII$RETRIEVE that it shouldn't position
     1311       75                          to this branch any more until it's time to find a
     1312       76                          new record, and hence new set occurrences, for the
     1313       77                          start of this branch. ZII$RETRIEVE takes care of
     1314       78                          those problems. ZII$RETRIEVE also takes care of
     1315       79                          setting BRANCH_EXHAUSTED flags in all other
     1316       80                          situations, such as a branch starting with a find
     1317       81                          owner.) Then, any necessary PATH_LIST.FIND_FIRST
     1318       82                          indicators are set. If the PATH_LIST indicates a
     1319       83                          lambda structure (multiple branches), then
     1320       84                          PIVOT_REC_IDX indicates the index into PATH_LIST of
     1321       85                          the first reference to the record from which
     1322       86                          branching occurs. So, if N < PIVOT_REC_IDX,
     1323       87                          ZII$RECURSE tried to find either the branching
     1324       88                          (or pivot) record itself or a record which precedes
     1325       89                          the branching point in the path. In this case,
     1326       90                          appropriate FIND_FIRST flags are set for all records
     1327       91                          from N+1 to the end of the path in order to include
     1328       92                          all branches. If N >= PIVOT_REC_IDX, we're inside
     1329       93                          a branch and don't want to upset the apple cart for
     1330       94                          any other branches. So, in this case, appropriate
     1331       95                          FIND_FIRST flags are set only for those records from
     1332       96                          N+1 to the end of the current branch.
     1333       97                          Then, the presence value (P_VALUE) of the record in
     1334       98                          the PRESENCE_LIST is set to 0 to indicate that the
     1335       99                          record was not found. The PATH_LIST.INIT_EPTR
     1336      100                          routine is used to initialize the original caller's
     1337      101                          (IDP's) specified area to something appropriate,
     1338      102                          probably zeroes or blanks. If it exists, the
     1339      103                          PATH_LIST.CONSTRAINT_EPTR is then used to constrain
     1340      104                          against the initialized area. If the constraint
     1341      105                          fails, the CONSTRAINT_FAILED flag is set. In either
     1342      106                          case, ZII$RECURSE unwinds to ZII$RETRIEVE since it
     1343      107                          can't traverse the current iteration of the branch
     1344      108                          any further.
     1345      109
     1346      110                          If a record is successfully found, N is incremented
PL6.E3A0      #003=ZII$RECURSE File=ZII$RET_LIB.:ZIC0TSI                         FRI 09/05/97 12:31 Page:214
     1347      111                          by 1. The index into the PRESENCE_LIST for the
     1348      112                          found record is located, and the presence value
     1349      113                          (P_VALUE) for the record in the PRESENCE_LIST is
     1350      114                          set to 2 (%NEW) to indicate that this record was
     1351      115                          just found. The DBKEY for the found record is
     1352      116                          stored in the PRESENCE_LIST as well. The DBKEY may
     1353      117                          be needed by ZII$RETRIEVE later in order to restore
     1354      118                          record currencies in case the database is shared.
     1355      119                          Then, PATH_LIST.GET_IND(N) is checked to see
     1356      120                          whether we should GET the found record. (GETs are
     1357      121                          not necessary if the record is only used to connect
     1358      122                          us to other records we need to find in the path.
     1359      123                          I.e., GETs are only done for records used for
     1360      124                          display or constraint.) A GET should never fail, so
     1361      125                          the STATUS_CODE is set and the altreturn taken if
     1362      126                          it does.
     1363      127
     1364      128                          If a GET is indicated and succeeds, the routine
     1365      129                          specified by PATH_LIST.CONVERT_EPTR is called to
     1366      130                          convert the record contents into whatever form the
     1367      131                          original caller of ZII$RETRIEVE (IDP) wanted and put
     1368      132                          the converted form wherever the caller indicated it
     1369      133                          should go. If PATH_LIST.CONSTRAINT_EPTR exists,
     1370      134                          that routine is called to constrain against the
     1371      135                          converted area. If the constraints fail, there's
     1372      136                          no reason to traverse the branch further since the
     1373      137                          output record being formed by ZII$RETRIEVE will
     1374      138                          never be printed, so the CONSTRAINT_FAILED flag is
     1375      139                          set and ZII$RECURSE unwinds back to ZII$RETRIEVE
     1376      140                          from wherever it is in the recursion process.
     1377      141                          ZII$RETRIEVE will then figure out where it should
     1378      142                          start in the path in order to collect the pieces of
     1379      143                          a new output record and call ZII$RECURSE again
     1380      144                          later.
     1381      145
     1382      146                          If the constraints don't fail, PATH_LIST.SET_NO(N)
     1383      147                          is checked to see if the last record was obtained
PL6.E3A0      #003=ZII$RECURSE File=ZII$RET_LIB.:ZIC0TSI                         FRI 09/05/97 12:31 Page:215
     1384      148                          for this iteration of the current branch. If not,
     1385      149                          ZII$RECURSE calls itself with the newly incremented
     1386      150                          N in order to proceed further down the branch. If
     1387      151                          so, it unwinds to ZII$RETRIEVE. ZII$RETRIEVE will
     1388      152                          position N to the proper place to start the next
     1389      153                          branch and call ZII$RECURSE again later.
     1390      154
     1391      155                          Note: The method for FINDing a member of a set has
     1392      156                          been altered somewhat from the method used in B03
     1393      157                          IDP. In the old days, simple FIND NEXTs were done,
     1394      158                          which works most of the time. However, since it is
     1395      159                          possible for multiple member record types to be
     1396      160                          present on a set AND for one or more of them to be
     1397      161                          used someplace else in the path, simple FIND NEXTs
     1398      162                          don't always work since the record-set currencies
     1399      163                          may be changed. So, to be safe, it's necessary to
     1400      164                          FIND the current of record in order to restore the
     1401      165                          proper set currencies prior to a FIND NEXT. But, one
     1402      166                          can't FIND CURRENT if no such record has been found
     1403      167                          yet for this occurrence of the set. So, a FIND FIRST
     1404      168                          is done whenever a new set occurrence is begun.
     1405      169                          After the first desired record on the set occurrence
     1406      170                          has been found, it is possible to FIND CURRENT of
     1407      171                          record and then FIND NEXT within set in order to
     1408      172                          find all other members until end-of-set is detected.
     1409      173                                                                              */
     1410      174        ZII$RECURSE: PROC (N,PATH_LIST,PRESENCE_LIST,START_OF_BRANCH,STATUS_CODE) ALTRET;

    174 17 000000   000000 700200 xent  ZII$RECURSE  TSX0  ! X66_AUTO_5
        17 000001   000016 000005                    ZERO    14,5

     1411      175    1   DCL N UBIN;
     1412      176    1   DCL START_OF_BRANCH UBIN;
     1413      177    1   DCL STATUS_CODE UBIN;
     1414      178    1   DCL 1 ZII$PARAMS (0:20) SYMREF,
     1415      179    1         2 L_HALF UBIN(18) UNAL,
     1416      180    1         2 R_HALF UBIN(18) UNAL;
PL6.E3A0      #003=ZII$RECURSE File=ZII$RET_LIB.:ZIC0TSI                         FRI 09/05/97 12:31 Page:216
     1417      181    1   DCL ZII$INTEGER1 SBIN SYMREF;
     1418      182    1   DCL DB_KEY_SAVE UBIN(36) UNAL EXT;
     1419      183    1   DCL RETRIEVE_RETURN BIT(72) EXT;
     1420      184    1   DCL I UBIN AUTO;
     1421      185        %EQU NEW = 2;
     1422      186    1   DCL 1 PRESENCE_LIST (0:0) ALIGNED,
     1423      187    1         2 REC_NO UBIN(18) UNAL,
     1424      188    1         2 P_VALUE UBIN(18) UNAL,
     1425      189    1         2 DB_KEY_SAVE UBIN(36) UNAL;
     1426      190    1   DCL ZI_PRINT_FLAG BIT(1) EXT;
     1427      191    1   DCL CONSTRAINT_FAILED BIT(1) ALIGNED EXT;
     1428      192    1   DCL TEMP_VALUE UBIN AUTO;
     1429      193    1   DCL PIVOT_REC_IDX UBIN EXT;
     1430      194    1   DCL GEN_CODE_EPTR EPTR STATIC;
     1431      195        /**/
     1432      196        %INCLUDE CP_6;
     1433      277        %INCLUDE ZI$STRUCTS;
     1434      349        %NAM1;
     1435      378        %UWA1;
     1436      401        %INCLUDE ZI$DESC;
     1437     1251        %DSC_SET;
     1438     1293        %DSC_REC;
     1439     1327        %KEYWD_VAL;
     1440     1374        %INCLUDE ZI$PATH_STRUCTS;
     1441     1512        %PATH_DESC (STCLASS=" ");
     1442     1552        %INCLUDE ZI$TOP_STRUCTS;
     1443     1613        %TBL_DIM_DESC (STCLASS="EXT");
     1444     1618        %INCLUDE ZI_IDPERR_SUBS;
     1445     1652        /**/
     1446     1653    1   DCL ZII$FIND ENTRY ALTRET;
     1447     1654    1   DCL ZII$GET ENTRY ALTRET;
     1448     1655    1   DCL ZII$CLR_PARAMS ENTRY;
     1449     1656    1   DCL ZII$FIND_PRESENCE_IDX ENTRY(3);
     1450     1657        /**/
     1451     1658    1       STATUS_CODE=0;

   1658 17 000002   200007 470500                    LDP0    @STATUS_CODE,,AUTO
PL6.E3A0      #003=ZII$RECURSE File=ZII$RET_LIB.:ZIC0TSI                         FRI 09/05/97 12:31 Page:217
        17 000003   000000 450100                    STZ     0,,PR0

     1452     1659    1       ZII$PARAMS='0'B;

   1659 17 000004   000000 100400                    MLR     fill='000'O
        17 000005   000000 000001 18                 ADSC9   0                        cn=0,n=1
        17 000006   000000 000124 xsym               ADSC9   ZII$PARAMS               cn=0,n=84

     1453     1660    1       IF NOT PATH_LIST.OWN_NEXT(N) THEN

   1660 17 000007   200003 471500                    LDP1    @N,,AUTO
        17 000010   100000 236100                    LDQ     0,,PR1
        17 000011   000005 402007                    MPY     5,DL
        17 000012   200004 473500                    LDP3    @PATH_LIST,,AUTO
        17 000013   300001 234106                    SZN     1,QL,PR3
        17 000014   000116 604000 17                 TMI     s:1689

     1454     1661    2       DO; /* Want to find next (or maybe first) member of set */

     1455     1662    2           DR$ = NAM1.DESC$(PATH_LIST.REC_NO(N+1));

   1662 17 000015   300005 236106                    LDQ     5,QL,PR3
        17 000016   000022 772000                    QRL     18
        17 000017   000012 402007                    MPY     10,DL
        17 000020   000000 474400 7                  LDP4    NAM1$
        17 000021   400011 236106                    LDQ     9,QL,PR4
        17 000022   000000 756000 14                 STQ     DR$

     1456     1663    2           DS$ = NAM1.DESC$(PATH_LIST.SET_NO(N));

   1663 17 000023   100000 236100                    LDQ     0,,PR1
        17 000024   000005 402007                    MPY     5,DL
        17 000025   300000 236106                    LDQ     0,QL,PR3
        17 000026   777777 376007                    ANQ     -1,DL
        17 000027   000012 402007                    MPY     10,DL
        17 000030   400011 236106                    LDQ     9,QL,PR4
        17 000031   000000 756000 13                 STQ     DS$
PL6.E3A0      #003=ZII$RECURSE File=ZII$RET_LIB.:ZIC0TSI                         FRI 09/05/97 12:31 Page:218

     1457     1664    2           IF PATH_LIST.FIND_FIRST(N+1) THEN /* Set up Find First */

   1664 17 000032   100000 236100                    LDQ     0,,PR1
        17 000033   000005 402007                    MPY     5,DL
        17 000034   300006 236106                    LDQ     6,QL,PR3
        17 000035   004000 316003                    CANQ    2048,DU
        17 000036   000061 600000 17                 TZE     s:1674

     1458     1665    3           DO;

     1459     1666    3               ZII$PARAMS.R_HALF(0) = 4;

   1666 17 000037   000004 220003                    LDX0    4,DU
        17 000040   000000 440000 xsym               SXL0    ZII$PARAMS

     1460     1667    3               ZII$PARAMS.R_HALF(1) = %FIRST;

   1667 17 000041   000016 221003                    LDX1    14,DU
        17 000042   000001 441000 xsym               SXL1    ZII$PARAMS+1

     1461     1668    3               ZII$PARAMS.L_HALF(2) = RECORD.RVA_OFF;

   1668 17 000043   000000 475400 14                 LDP5    DR$
        17 000044   500000 722100                    LXL2    0,,PR5
        17 000045   000002 742000 xsym               STX2    ZII$PARAMS+2

     1462     1669    3               ZII$PARAMS.R_HALF(3) = %WITHIN;

   1669 17 000046   000041 223003                    LDX3    33,DU
        17 000047   000003 443000 xsym               SXL3    ZII$PARAMS+3

     1463     1670    3               ZII$PARAMS.L_HALF(4) = SET.RVA_OFF;

   1670 17 000050   000000 476400 13                 LDP6    DS$
        17 000051   600000 724100                    LXL4    0,,PR6
        17 000052   000004 744000 xsym               STX4    ZII$PARAMS+4
PL6.E3A0      #003=ZII$RECURSE File=ZII$RET_LIB.:ZIC0TSI                         FRI 09/05/97 12:31 Page:219

     1464     1671    3               PATH_LIST.FIND_FIRST(N+1) = '0'B;

   1671 17 000053   100000 236100                    LDQ     0,,PR1
        17 000054   000005 402007                    MPY     5,DL
        17 000055   000000 625006                    EAX5    0,QL
        17 000056   000001 236000 18                 LDQ     1
        17 000057   300006 356115                    ANSQ    6,X5,PR3

     1465     1672    3               END;

   1672 17 000060   000135 710000 17                 TRA     s:1694

     1466     1673    3           ELSE DO; /* Find Cur of Record, then set up Find Next */

     1467     1674    3               ZII$PARAMS.R_HALF(0) = 2;

   1674 17 000061   000002 220003                    LDX0    2,DU
        17 000062   000000 440000 xsym               SXL0    ZII$PARAMS

     1468     1675    3               ZII$PARAMS.R_HALF(1) = %CURRENT;

   1675 17 000063   000013 221003                    LDX1    11,DU
        17 000064   000001 441000 xsym               SXL1    ZII$PARAMS+1

     1469     1676    3               ZII$PARAMS.L_HALF(2) = RECORD.RVA_OFF;

   1676 17 000065   000000 475400 14                 LDP5    DR$
        17 000066   500000 722100                    LXL2    0,,PR5
        17 000067   000002 742000 xsym               STX2    ZII$PARAMS+2

     1470     1677    3               CALL ZII$FIND ALTRET(BAD_FIND);

   1677 17 000070   000000 631400 18                 EPPR1   0
        17 000071   000000 701000 xent               TSX1    ZII$FIND
        17 000072   000543 702000 17                 TSX2    BAD_FIND

PL6.E3A0      #003=ZII$RECURSE File=ZII$RET_LIB.:ZIC0TSI                         FRI 09/05/97 12:31 Page:220
     1471     1678    3               IF UWA.DB_STATUS ~= '0000000' THEN

   1678 17 000073   000000 470400 10                 LDP0    UWA$
        17 000074   040000 106500                    CMPC    fill='040'O
        17 000075   000001 000007                    ADSC9   1,,PR0                   cn=0,n=7
        17 000076   000000 000007 16                 ADSC9   0                        cn=0,n=7
        17 000077   000543 601000 17                 TNZ     BAD_FIND

     1472     1679    3                   GOTO BAD_FIND;
     1473     1680    3               ZII$PARAMS = '0'B;

   1680 17 000100   000000 100400                    MLR     fill='000'O
        17 000101   000000 000001 18                 ADSC9   0                        cn=0,n=1
        17 000102   000000 000124 xsym               ADSC9   ZII$PARAMS               cn=0,n=84

     1474     1681    3               ZII$PARAMS.R_HALF(0) = 3;

   1681 17 000103   000003 220003                    LDX0    3,DU
        17 000104   000000 440000 xsym               SXL0    ZII$PARAMS

     1475     1682    3               ZII$PARAMS.R_HALF(1) = %NEXT;

   1682 17 000105   000023 221003                    LDX1    19,DU
        17 000106   000001 441000 xsym               SXL1    ZII$PARAMS+1

     1476     1683    3               ZII$PARAMS.L_HALF(2) = RECORD.RVA_OFF;

   1683 17 000107   000000 471400 14                 LDP1    DR$
        17 000110   100000 722100                    LXL2    0,,PR1
        17 000111   000002 742000 xsym               STX2    ZII$PARAMS+2

     1477     1684    3               ZII$PARAMS.L_HALF(3) = SET.RVA_OFF;

   1684 17 000112   000000 473400 13                 LDP3    DS$
        17 000113   300000 723100                    LXL3    0,,PR3
        17 000114   000003 743000 xsym               STX3    ZII$PARAMS+3

PL6.E3A0      #003=ZII$RECURSE File=ZII$RET_LIB.:ZIC0TSI                         FRI 09/05/97 12:31 Page:221
     1478     1685    3               END;

     1479     1686    2           END;

   1686 17 000115   000135 710000 17                 TRA     s:1694

     1480     1687    1       ELSE
     1481     1688    2       DO; /* Set up for find owner of set */

     1482     1689    2           ZII$PARAMS.R_HALF(0)=2;

   1689 17 000116   000002 220003                    LDX0    2,DU
        17 000117   000000 440000 xsym               SXL0    ZII$PARAMS

     1483     1690    2           ZII$PARAMS.R_HALF(1)=%OWNER;

   1690 17 000120   000026 221003                    LDX1    22,DU
        17 000121   000001 441000 xsym               SXL1    ZII$PARAMS+1

     1484     1691    2           DS$=NAM1.DESC$(PATH_LIST.SET_NO(N));

   1691 17 000122   100000 236100                    LDQ     0,,PR1
        17 000123   000005 402007                    MPY     5,DL
        17 000124   300000 236106                    LDQ     0,QL,PR3
        17 000125   777777 376007                    ANQ     -1,DL
        17 000126   000012 402007                    MPY     10,DL
        17 000127   000000 474400 7                  LDP4    NAM1$
        17 000130   400011 236106                    LDQ     9,QL,PR4
        17 000131   000000 756000 13                 STQ     DS$

     1485     1692    2           ZII$PARAMS.L_HALF(2)=SET.RVA_OFF;

   1692 17 000132   000000 475400 13                 LDP5    DS$
        17 000133   500000 722100                    LXL2    0,,PR5
        17 000134   000002 742000 xsym               STX2    ZII$PARAMS+2

     1486     1693    2           END;
PL6.E3A0      #003=ZII$RECURSE File=ZII$RET_LIB.:ZIC0TSI                         FRI 09/05/97 12:31 Page:222

     1487     1694    1       CALL ZII$FIND ALTRET(BAD_FIND);

   1694 17 000135   000000 631400 18                 EPPR1   0
        17 000136   000000 701000 xent               TSX1    ZII$FIND
        17 000137   000543 702000 17                 TSX2    BAD_FIND

     1488     1695    1       PATH_LIST.FIND_ATTEMPTED(N)='1'B;

   1695 17 000140   200003 470500                    LDP0    @N,,AUTO
        17 000141   000000 236100                    LDQ     0,,PR0
        17 000142   000005 402007                    MPY     5,DL
        17 000143   200004 471500                    LDP1    @PATH_LIST,,AUTO
        17 000144   000000 620006                    EAX0    0,QL
        17 000145   100000 236003                    LDQ     32768,DU
        17 000146   100001 256110                    ORSQ    1,X0,PR1

     1489     1696    1       IF UWA.DB_STATUS='0000000' THEN

   1696 17 000147   000000 473400 10                 LDP3    UWA$
        17 000150   040000 106500                    CMPC    fill='040'O
        17 000151   300001 000007                    ADSC9   1,,PR3                   cn=0,n=7
        17 000152   000000 000007 16                 ADSC9   0                        cn=0,n=7
        17 000153   000216 601000 17                 TNZ     s:1705

     1490     1697    2       DO;

     1491     1698    2           N=N+1;

   1698 17 000154   000000 235100                    LDA     0,,PR0
        17 000155   000001 035007                    ADLA    1,DL
        17 000156   000000 755100                    STA     0,,PR0

     1492     1699    2           CALL ZII$FIND_PRESENCE_IDX(PRESENCE_LIST,PATH_LIST.REC_NO(N),TEMP_VALUE);

   1699 17 000157   000000 236100                    LDQ     0,,PR0
        17 000160   000005 402007                    MPY     5,DL
PL6.E3A0      #003=ZII$RECURSE File=ZII$RET_LIB.:ZIC0TSI                         FRI 09/05/97 12:31 Page:223
        17 000161   200011 633500                    EPPR3   TEMP_VALUE,,AUTO
        17 000162   200014 453500                    STP3    TEMP_VALUE+3,,AUTO
        17 000163   000022 736000                    QLS     18
        17 000164   200004 036100                    ADLQ    @PATH_LIST,,AUTO
        17 000165   200005 235100                    LDA     @PRESENCE_LIST,,AUTO
        17 000166   200012 757100                    STAQ    TEMP_VALUE+1,,AUTO
        17 000167   200012 630500                    EPPR0   TEMP_VALUE+1,,AUTO
        17 000170   000002 631400 18                 EPPR1   2
        17 000171   000000 701000 xent               TSX1    ZII$FIND_PRESENCE_IDX
        17 000172   000000 011000                    NOP     0

     1493     1700    2           PRESENCE_LIST.P_VALUE(TEMP_VALUE)=%NEW;

   1700 17 000173   200011 235100                    LDA     TEMP_VALUE,,AUTO
        17 000174   000001 735000                    ALS     1
        17 000175   000002 220003                    LDX0    2,DU
        17 000176   200005 470500                    LDP0    @PRESENCE_LIST,,AUTO
        17 000177   000000 440105                    SXL0    0,AL,PR0

     1494     1701    2           PRESENCE_LIST.DB_KEY_SAVE(TEMP_VALUE)=UWA.DIRECT_REFERENCE;

   1701 17 000200   200011 235100                    LDA     TEMP_VALUE,,AUTO
        17 000201   000001 735000                    ALS     1
        17 000202   000000 471400 10                 LDP1    UWA$
        17 000203   000000 621005                    EAX1    0,AL
        17 000204   100036 235100                    LDA     30,,PR1
        17 000205   000001 755111                    STA     1,X1,PR0

     1495     1702    2           PATH_LIST.BRANCH_EXHAUSTED(N)='0'B;

   1702 17 000206   200003 471500                    LDP1    @N,,AUTO
        17 000207   100000 236100                    LDQ     0,,PR1
        17 000210   000005 402007                    MPY     5,DL
        17 000211   200004 473500                    LDP3    @PATH_LIST,,AUTO
        17 000212   000000 621006                    EAX1    0,QL
        17 000213   000003 236000 18                 LDQ     3
        17 000214   300001 356111                    ANSQ    1,X1,PR3
PL6.E3A0      #003=ZII$RECURSE File=ZII$RET_LIB.:ZIC0TSI                         FRI 09/05/97 12:31 Page:224

     1496     1703    2           END;

   1703 17 000215   000414 710000 17                 TRA     s:1752

     1497     1704    1       ELSE
     1498     1705    1           IF UWA.DB_STATUS='0502100' /* End of Set */ THEN

   1705 17 000216   040000 106500                    CMPC    fill='040'O
        17 000217   300001 000007                    ADSC9   1,,PR3                   cn=0,n=7
        17 000220   000002 000007 16                 ADSC9   2                        cn=0,n=7
        17 000221   000543 601000 17                 TNZ     BAD_FIND

     1499     1706    2           DO;

     1500     1707    2               IF PATH_LIST.REC_NO(N)=PATH_LIST.REC_NO(START_OF_BRANCH) THEN

   1707 17 000222   000000 236100                    LDQ     0,,PR0
        17 000223   000005 402007                    MPY     5,DL
        17 000224   200006 474500                    LDP4    @START_OF_BRANCH,,AUTO
        17 000225   000000 620006                    EAX0    0,QL
        17 000226   400000 236100                    LDQ     0,,PR4
        17 000227   000005 402007                    MPY     5,DL
        17 000230   100000 221110                    LDX1    0,X0,PR1
        17 000231   100000 101106                    CMPX1   0,QL,PR1
        17 000232   000235 601000 17                 TNZ     s:1716

     1501     1708    2                   PATH_LIST.BRANCH_EXHAUSTED(N)='1'B;

   1708 17 000233   020000 236003                    LDQ     8192,DU
        17 000234   100001 256110                    ORSQ    1,X0,PR1

     1502     1709         /*
     1503     1710            If rec not found is at the lambda branching point or
     1504     1711            earlier, ensure that ZII$RETRIEVE won't try to send us thru
     1505     1712            2nd or higher branches while it's traipsing down the
     1506     1713            current iteration of the path. Keeps the EVAL_PRESENCE
PL6.E3A0      #003=ZII$RECURSE File=ZII$RET_LIB.:ZIC0TSI                         FRI 09/05/97 12:31 Page:225
     1507     1714            routine from getting confused.
     1508     1715         */
     1509     1716    2               IF N < PIVOT_REC_IDX THEN

   1716 17 000235   000000 236100                    LDQ     0,,PR0
        17 000236   000000 116000 4                  CMPQ    PIVOT_REC_IDX
        17 000237   000264 603000 17                 TRC     s:1728

     1510     1717    3               DO I = N+1 TO PATH_LIST.REC_NO(0)-1;

   1717 17 000240   000001 036007                    ADLQ    1,DL
        17 000241   200010 756100                    STQ     I,,AUTO
        17 000242   000256 710000 17                 TRA     s:1720+3

     1511     1718    3                   IF PATH_LIST.SET_NO(I) = 0 THEN

   1718 17 000243   200010 236100                    LDQ     I,,AUTO
        17 000244   000005 402007                    MPY     5,DL
        17 000245   200004 470500                    LDP0    @PATH_LIST,,AUTO
        17 000246   000000 720106                    LXL0    0,QL,PR0
        17 000247   000253 601000 17                 TNZ     s:1720

     1512     1719    3                       PATH_LIST.BRANCH_EXHAUSTED(I+1) = '1'B;

   1719 17 000250   000000 621006                    EAX1    0,QL
        17 000251   020000 236003                    LDQ     8192,DU
        17 000252   000006 256111                    ORSQ    6,X1,PR0

     1513     1720    3                   END;

   1720 17 000253   200010 235100                    LDA     I,,AUTO
        17 000254   000001 035007                    ADLA    1,DL
        17 000255   200010 755100                    STA     I,,AUTO
        17 000256   200004 470500                    LDP0    @PATH_LIST,,AUTO
        17 000257   000000 236100                    LDQ     0,,PR0
        17 000260   000022 772000                    QRL     18
        17 000261   200010 116100                    CMPQ    I,,AUTO
PL6.E3A0      #003=ZII$RECURSE File=ZII$RET_LIB.:ZIC0TSI                         FRI 09/05/97 12:31 Page:226
        17 000262   000264 600000 17                 TZE     s:1728
        17 000263   000243 603000 17                 TRC     s:1718

     1514     1721         /*
     1515     1722            Set the find first flags. If the record not found is at
     1516     1723            the branching point or earlier, then we need to set the
     1517     1724            appropriate find first flags for all the branches.
     1518     1725            Otherwise, just set them from N+1 down to the end of the
     1519     1726            branch we're on.
     1520     1727         */
     1521     1728    2               IF N < PIVOT_REC_IDX THEN

   1728 17 000264   200003 470500                    LDP0    @N,,AUTO
        17 000265   000000 236100                    LDQ     0,,PR0
        17 000266   000000 116000 4                  CMPQ    PIVOT_REC_IDX
        17 000267   000316 603000 17                 TRC     s:1734

     1522     1729    3               DO I = N TO PATH_LIST.REC_NO(0)-1; /* all branches */

   1729 17 000270   200010 756100                    STQ     I,,AUTO
        17 000271   000307 710000 17                 TRA     s:1732+3

     1523     1730    3                   IF NOT PATH_LIST.OWN_NEXT(I) AND PATH_LIST.SET_NO(I)~=0 THEN

   1730 17 000272   200010 236100                    LDQ     I,,AUTO
        17 000273   000005 402007                    MPY     5,DL
        17 000274   200004 470500                    LDP0    @PATH_LIST,,AUTO
        17 000275   000001 234106                    SZN     1,QL,PR0
        17 000276   000304 604000 17                 TMI     s:1732
        17 000277   000000 720106                    LXL0    0,QL,PR0
        17 000300   000304 600000 17                 TZE     s:1732

     1524     1731    3                       PATH_LIST.FIND_FIRST(I+1)='1'B;

   1731 17 000301   000000 621006                    EAX1    0,QL
        17 000302   004000 236003                    LDQ     2048,DU
        17 000303   000006 256111                    ORSQ    6,X1,PR0
PL6.E3A0      #003=ZII$RECURSE File=ZII$RET_LIB.:ZIC0TSI                         FRI 09/05/97 12:31 Page:227

     1525     1732    3                   END;

   1732 17 000304   200010 235100                    LDA     I,,AUTO
        17 000305   000001 035007                    ADLA    1,DL
        17 000306   200010 755100                    STA     I,,AUTO
        17 000307   200004 470500                    LDP0    @PATH_LIST,,AUTO
        17 000310   000000 236100                    LDQ     0,,PR0
        17 000311   000022 772000                    QRL     18
        17 000312   200010 116100                    CMPQ    I,,AUTO
        17 000313   000315 600000 17                 TZE     s:1732+9
        17 000314   000272 603000 17                 TRC     s:1730
        17 000315   000342 710000 17                 TRA     s:1741

     1526     1733    3               ELSE DO;

     1527     1734    3                   I=N;

   1734 17 000316   200010 756100                    STQ     I,,AUTO

     1528     1735    4                   DO WHILE(PATH_LIST.SET_NO(I)~=0); /* the rest of this branch */

   1735 17 000317   000005 402007                    MPY     5,DL
        17 000320   200004 471500                    LDP1    @PATH_LIST,,AUTO
        17 000321   100000 720106                    LXL0    0,QL,PR1
        17 000322   000342 600000 17                 TZE     s:1741

     1529     1736    4                       IF NOT PATH_LIST.OWN_NEXT(I) THEN

   1736 17 000323   200010 236100                    LDQ     I,,AUTO
        17 000324   000005 402007                    MPY     5,DL
        17 000325   200004 470500                    LDP0    @PATH_LIST,,AUTO
        17 000326   000001 234106                    SZN     1,QL,PR0
        17 000327   000333 604000 17                 TMI     s:1738

     1530     1737    4                           PATH_LIST.FIND_FIRST(I+1)='1'B;

PL6.E3A0      #003=ZII$RECURSE File=ZII$RET_LIB.:ZIC0TSI                         FRI 09/05/97 12:31 Page:228
   1737 17 000330   000000 620006                    EAX0    0,QL
        17 000331   004000 236003                    LDQ     2048,DU
        17 000332   000006 256110                    ORSQ    6,X0,PR0

     1531     1738    4                       I=I+1;

   1738 17 000333   200010 235100                    LDA     I,,AUTO
        17 000334   000001 035007                    ADLA    1,DL
        17 000335   200010 755100                    STA     I,,AUTO

     1532     1739    4                       END;

   1739 17 000336   200010 236100                    LDQ     I,,AUTO
        17 000337   000005 402007                    MPY     5,DL
        17 000340   000000 720106                    LXL0    0,QL,PR0
        17 000341   000323 601000 17                 TNZ     s:1736

     1533     1740    3                   END;

     1534     1741    2               CALL ZII$FIND_PRESENCE_IDX(PRESENCE_LIST,PATH_LIST.REC_NO(N+1),
              1741                        TEMP_VALUE);

   1741 17 000342   200003 470500                    LDP0    @N,,AUTO
        17 000343   000000 236100                    LDQ     0,,PR0
        17 000344   000005 402007                    MPY     5,DL
        17 000345   200011 631500                    EPPR1   TEMP_VALUE,,AUTO
        17 000346   200014 451500                    STP1    TEMP_VALUE+3,,AUTO
        17 000347   000022 736000                    QLS     18
        17 000350   000005 036003                    ADLQ    5,DU
        17 000351   200004 036100                    ADLQ    @PATH_LIST,,AUTO
        17 000352   200005 235100                    LDA     @PRESENCE_LIST,,AUTO
        17 000353   200012 757100                    STAQ    TEMP_VALUE+1,,AUTO
        17 000354   200012 630500                    EPPR0   TEMP_VALUE+1,,AUTO
        17 000355   000002 631400 18                 EPPR1   2
        17 000356   000000 701000 xent               TSX1    ZII$FIND_PRESENCE_IDX
        17 000357   000000 011000                    NOP     0

PL6.E3A0      #003=ZII$RECURSE File=ZII$RET_LIB.:ZIC0TSI                         FRI 09/05/97 12:31 Page:229
     1535     1742    2               PRESENCE_LIST.P_VALUE(TEMP_VALUE)=0;

   1742 17 000360   200011 235100                    LDA     TEMP_VALUE,,AUTO
        17 000361   000001 735000                    ALS     1
        17 000362   000000 220003                    LDX0    0,DU
        17 000363   200005 470500                    LDP0    @PRESENCE_LIST,,AUTO
        17 000364   000000 440105                    SXL0    0,AL,PR0

     1536     1743    2               GEN_CODE_EPTR=PATH_LIST.INIT_EPTR(N+1);

   1743 17 000365   200003 471500                    LDP1    @N,,AUTO
        17 000366   100000 236100                    LDQ     0,,PR1
        17 000367   000005 402007                    MPY     5,DL
        17 000370   200004 473500                    LDP3    @PATH_LIST,,AUTO
        17 000371   300007 236106                    LDQ     7,QL,PR3
        17 000372   000000 756000 5                  STQ     GEN_CODE_EPTR

     1537     1744    2               CALL GEN_CODE_EPTR ALTRET(BAD_INIT);

   1744 17 000373   000000 221000 5                  LDX1    GEN_CODE_EPTR
        17 000374   000000 631400 18                 EPPR1   0
        17 000375   000000 701011                    TSX1    0,X1
        17 000376   000553 702000 17                 TSX2    BAD_INIT

     1538     1745    2               GEN_CODE_EPTR = PATH_LIST.CONSTRAINT_EPTR(N+1);

   1745 17 000377   200003 470500                    LDP0    @N,,AUTO
        17 000400   000000 236100                    LDQ     0,,PR0
        17 000401   000005 402007                    MPY     5,DL
        17 000402   200004 471500                    LDP1    @PATH_LIST,,AUTO
        17 000403   100011 236106                    LDQ     9,QL,PR1
        17 000404   000000 756000 5                  STQ     GEN_CODE_EPTR

     1539     1746    2               IF GEN_CODE_EPTR ~= ENTADDR(NIL) THEN

   1746 17 000405   000000 116000 18                 CMPQ    0
        17 000406   000413 600000 17                 TZE     s:1748
PL6.E3A0      #003=ZII$RECURSE File=ZII$RET_LIB.:ZIC0TSI                         FRI 09/05/97 12:31 Page:230

     1540     1747    2                   CALL GEN_CODE_EPTR ALTRET(CONSTLBL);

   1747 17 000407   000000 220000 5                  LDX0    GEN_CODE_EPTR
        17 000410   000000 631400 18                 EPPR1   0
        17 000411   000000 701010                    TSX1    0,X0
        17 000412   000512 702000 17                 TSX2    CONSTLBL

     1541     1748    2               GOTO UNWINDLBL;

   1748 17 000413   000503 710000 17                 TRA     UNWINDLBL

     1542     1749    2               END;
     1543     1750    1           ELSE
     1544     1751    1               GOTO BAD_FIND;
     1545     1752    1       IF PATH_LIST.GET_IND(N) THEN

   1752 17 000414   100000 236100                    LDQ     0,,PR1
        17 000415   000005 402007                    MPY     5,DL
        17 000416   300001 236106                    LDQ     1,QL,PR3
        17 000417   200000 316003                    CANQ    65536,DU
        17 000420   000475 600000 17                 TZE     s:1768

     1546     1753    2       DO;

     1547     1754    2           ZII$PARAMS='0'B;

   1754 17 000421   000000 100400                    MLR     fill='000'O
        17 000422   000000 000001 18                 ADSC9   0                        cn=0,n=1
        17 000423   000000 000124 xsym               ADSC9   ZII$PARAMS               cn=0,n=84

     1548     1755    2           CALL ZII$GET ALTRET(BAD_GET);

   1755 17 000424   000000 631400 18                 EPPR1   0
        17 000425   000000 701000 xent               TSX1    ZII$GET
        17 000426   000547 702000 17                 TSX2    BAD_GET

PL6.E3A0      #003=ZII$RECURSE File=ZII$RET_LIB.:ZIC0TSI                         FRI 09/05/97 12:31 Page:231
     1549     1756    2           IF UWA.DB_STATUS~='0000000' THEN

   1756 17 000427   000000 470400 10                 LDP0    UWA$
        17 000430   040000 106500                    CMPC    fill='040'O
        17 000431   000001 000007                    ADSC9   1,,PR0                   cn=0,n=7
        17 000432   000000 000007 16                 ADSC9   0                        cn=0,n=7
        17 000433   000447 600000 17                 TZE     s:1762

     1550     1757    3           DO;

     1551     1758    3               GEN_CODE_EPTR=PATH_LIST.INIT_EPTR(N);

   1758 17 000434   200003 471500                    LDP1    @N,,AUTO
        17 000435   100000 236100                    LDQ     0,,PR1
        17 000436   000005 402007                    MPY     5,DL
        17 000437   200004 473500                    LDP3    @PATH_LIST,,AUTO
        17 000440   300002 236106                    LDQ     2,QL,PR3
        17 000441   000000 756000 5                  STQ     GEN_CODE_EPTR

     1552     1759    3               CALL GEN_CODE_EPTR;

   1759 17 000442   000000 220000 5                  LDX0    GEN_CODE_EPTR
        17 000443   000000 631400 18                 EPPR1   0
        17 000444   000000 701010                    TSX1    0,X0
        17 000445   000000 011000                    NOP     0

     1553     1760    3               GOTO BAD_GET;

   1760 17 000446   000547 710000 17                 TRA     BAD_GET

     1554     1761    3               END;
     1555     1762    2           GEN_CODE_EPTR=PATH_LIST.CONVERT_EPTR(N);

   1762 17 000447   200003 471500                    LDP1    @N,,AUTO
        17 000450   100000 236100                    LDQ     0,,PR1
        17 000451   000005 402007                    MPY     5,DL
        17 000452   200004 473500                    LDP3    @PATH_LIST,,AUTO
PL6.E3A0      #003=ZII$RECURSE File=ZII$RET_LIB.:ZIC0TSI                         FRI 09/05/97 12:31 Page:232
        17 000453   300003 236106                    LDQ     3,QL,PR3
        17 000454   000000 756000 5                  STQ     GEN_CODE_EPTR

     1556     1763    2           CALL GEN_CODE_EPTR;

   1763 17 000455   000000 220000 5                  LDX0    GEN_CODE_EPTR
        17 000456   000000 631400 18                 EPPR1   0
        17 000457   000000 701010                    TSX1    0,X0
        17 000460   000000 011000                    NOP     0

     1557     1764    2           GEN_CODE_EPTR=PATH_LIST.CONSTRAINT_EPTR(N);

   1764 17 000461   200003 470500                    LDP0    @N,,AUTO
        17 000462   000000 236100                    LDQ     0,,PR0
        17 000463   000005 402007                    MPY     5,DL
        17 000464   200004 471500                    LDP1    @PATH_LIST,,AUTO
        17 000465   100004 236106                    LDQ     4,QL,PR1
        17 000466   000000 756000 5                  STQ     GEN_CODE_EPTR

     1558     1765    2           IF GEN_CODE_EPTR~=ENTADDR(NIL) THEN

   1765 17 000467   000000 116000 18                 CMPQ    0
        17 000470   000475 600000 17                 TZE     s:1768

     1559     1766    2               CALL GEN_CODE_EPTR ALTRET(CONSTLBL);

   1766 17 000471   000000 220000 5                  LDX0    GEN_CODE_EPTR
        17 000472   000000 631400 18                 EPPR1   0
        17 000473   000000 701010                    TSX1    0,X0
        17 000474   000512 702000 17                 TSX2    CONSTLBL

     1560     1767    2           END;

     1561     1768    1       IF PATH_LIST.SET_NO(N)=0 THEN /* at end of this branch */

   1768 17 000475   200003 470500                    LDP0    @N,,AUTO
        17 000476   000000 236100                    LDQ     0,,PR0
PL6.E3A0      #003=ZII$RECURSE File=ZII$RET_LIB.:ZIC0TSI                         FRI 09/05/97 12:31 Page:233
        17 000477   000005 402007                    MPY     5,DL
        17 000500   200004 471500                    LDP1    @PATH_LIST,,AUTO
        17 000501   100000 720106                    LXL0    0,QL,PR1
        17 000502   000506 601000 17                 TNZ     s:1771

     1562     1769    1   UNWINDLBL: UNWIND TO RETRIEVE_RETURN;

   1769 17 000503   000000 237200 1     UNWINDLBL    LDAQ  ! RETRIEVE_RETURN
        17 000504   000000 700200 xent               TSX0  ! X66_AUNWIND
        17 000505   000000 000200                    ZERO    0,128

     1563     1770         /* Otherwise, keep recursing down this branch. */
     1564     1771    1       CALL ZII$RECURSE(N,PATH_LIST,PRESENCE_LIST,START_OF_BRANCH,STATUS_CODE);

   1771 17 000506   200003 630500                    EPPR0   @N,,AUTO
        17 000507   000004 631400 18                 EPPR1   4
        17 000510   000000 701000 17                 TSX1    s:174
        17 000511   000000 011000                    NOP     0

     1565     1772    1   CONSTLBL: IF PATH_LIST.SET_NO(N)~=0 THEN

   1772 17 000512   200003 470500       CONSTLBL     LDP0    @N,,AUTO
        17 000513   000000 236100                    LDQ     0,,PR0
        17 000514   000005 402007                    MPY     5,DL
        17 000515   200004 471500                    LDP1    @PATH_LIST,,AUTO
        17 000516   100000 720106                    LXL0    0,QL,PR1
        17 000517   000540 600000 17                 TZE     s:1777

     1566     1773    2       DO;

     1567     1774    2           CALL ZII$FIND_PRESENCE_IDX(PRESENCE_LIST,PATH_LIST.REC_NO(N+1),TEMP_VALUE);

   1774 17 000520   200011 633500                    EPPR3   TEMP_VALUE,,AUTO
        17 000521   200014 453500                    STP3    TEMP_VALUE+3,,AUTO
        17 000522   000022 736000                    QLS     18
        17 000523   000005 036003                    ADLQ    5,DU
        17 000524   200004 036100                    ADLQ    @PATH_LIST,,AUTO
PL6.E3A0      #003=ZII$RECURSE File=ZII$RET_LIB.:ZIC0TSI                         FRI 09/05/97 12:31 Page:234
        17 000525   200005 235100                    LDA     @PRESENCE_LIST,,AUTO
        17 000526   200012 757100                    STAQ    TEMP_VALUE+1,,AUTO
        17 000527   200012 630500                    EPPR0   TEMP_VALUE+1,,AUTO
        17 000530   000002 631400 18                 EPPR1   2
        17 000531   000000 701000 xent               TSX1    ZII$FIND_PRESENCE_IDX
        17 000532   000000 011000                    NOP     0

     1568     1775    2           PRESENCE_LIST.P_VALUE(TEMP_VALUE) = 0;

   1775 17 000533   200011 235100                    LDA     TEMP_VALUE,,AUTO
        17 000534   000001 735000                    ALS     1
        17 000535   000000 220003                    LDX0    0,DU
        17 000536   200005 470500                    LDP0    @PRESENCE_LIST,,AUTO
        17 000537   000000 440105                    SXL0    0,AL,PR0

     1569     1776    2           END;

     1570     1777    1       CONSTRAINT_FAILED = '1'B;

   1777 17 000540   400000 236003                    LDQ     -131072,DU
        17 000541   000000 756000 3                  STQ     CONSTRAINT_FAILED

     1571     1778    1       GOTO UNWINDLBL;

   1778 17 000542   000503 710000 17                 TRA     UNWINDLBL

     1572     1779    1   BAD_FIND:
     1573     1780    1       STATUS_CODE=%ZII_BAD_FIND;

   1780 17 000543   013564 235007       BAD_FIND     LDA     6004,DL
        17 000544   200007 470500                    LDP0    @STATUS_CODE,,AUTO
        17 000545   000000 755100                    STA     0,,PR0

     1574     1781    1       ALTRETURN;

   1781 17 000546   000000 702200 xent               TSX2  ! X66_AALT

PL6.E3A0      #003=ZII$RECURSE File=ZII$RET_LIB.:ZIC0TSI                         FRI 09/05/97 12:31 Page:235
     1575     1782    1   BAD_GET:
     1576     1783    1       STATUS_CODE=%ZII_BAD_GET;

   1783 17 000547   013565 235007       BAD_GET      LDA     6005,DL
        17 000550   200007 470500                    LDP0    @STATUS_CODE,,AUTO
        17 000551   000000 755100                    STA     0,,PR0

     1577     1784    1       ALTRETURN;

   1784 17 000552   000000 702200 xent               TSX2  ! X66_AALT

     1578     1785    1   BAD_INIT:
     1579     1786    1       CALL M$ERR;

   1786 17 000553   000002 713400       BAD_INIT     CLIMB   err
        17 000554   000000 401760                    pmme    nvectors=0

     1580     1787    1   END ZII$RECURSE;

   1787 17 000555   000000 702200 xent               TSX2  ! X66_ARET

(unnamed)
 Sect OctLoc
  16     000   060060 060060   060060 060040   060065 060062   061060 060040    0000000 0502100

(unnamed)
 Sect OctLoc
  18     000   000000 000000   773777 777777   000003 000000   757777 777777    ................
  18     004   000005 000000                                                    ....
     1581     1788        %EOD;

PL6.E3A0      #003=ZII$RECURSE File=ZII$RET_LIB.:ZIC0TSI                         FRI 09/05/97 12:31 Page:236
--  Include file information  --

   ZI_IDPERR_SUBS.:ZIC0TOU  is referenced.
   ZI$TOP_STRUCTS.:ZIC0TOU  is referenced.
   ZI$PATH_STRUCTS.:ZIC0TOU  is referenced.
   ZI$DESC.:ZIC0TOU  is referenced.
   ZI$STRUCTS.:ZIC0TOU  is referenced.
   CP_6.:LIB_E05  cannot be made into a system file and is referenced.
   B$JIT_C.:E05TOU  was found in the system file and is never referenced.
   CP_6_C.:E05TOU  was found in the system file and is referenced.
      No diagnostics issued in procedure ZII$RECURSE.

   Procedure ZII$RECURSE requires 366 words for executable code.
   Procedure ZII$RECURSE requires 14 words of local(AUTO) storage.
PL6.E3A0      #003=ZII$RECURSE File=ZII$RET_LIB.:ZIC0TSI                         FRI 09/05/97 12:31 Page:237
          *** CROSS REFERENCE LISTING ***
**     DENOTES     IDENTIFIER DEFINITION
<<                 IDENTIFIER'S VALUE SET
>>                 IDENTIFIER'S VALUE USED
<>                 IDENTIFIER SET AND/OR USED
--                 IDENTIFIER REFERENCED
PL6.E3A0      #003=ZII$RECURSE File=ZII$RET_LIB.:ZIC0TSI                         FRI 09/05/97 12:31 Page:238
          MINI XREF LISTING

BAD_FIND
      1780**LABEL    1677--CALLALT  1679--GOTO     1694--CALLALT  1751--GOTO
BAD_GET
      1783**LABEL    1755--CALLALT  1760--GOTO
BAD_INIT
      1786**LABEL    1744--CALLALT
CONSTLBL
      1772**LABEL    1747--CALLALT  1766--CALLALT
CONSTRAINT_FAILED
       191**DCL      1777<<ASSIGN
DR$
      1294**DCL      1295--IMP-PTR  1662<<ASSIGN   1668>>ASSIGN   1676>>ASSIGN   1683>>ASSIGN
DS$
      1252**DCL      1253--IMP-PTR  1663<<ASSIGN   1670>>ASSIGN   1684>>ASSIGN   1691<<ASSIGN   1692>>ASSIGN
GEN_CODE_EPTR
       194**DCL      1743<<ASSIGN   1744>>CALL     1745<<ASSIGN   1746>>IF       1747>>CALL     1758<<ASSIGN
      1759>>CALL     1762<<ASSIGN   1763>>CALL     1764<<ASSIGN   1765>>IF       1766>>CALL
I
       184**DCL      1717<<DOINDEX  1718>>IF       1719>>ASSIGN   1729<<DOINDEX  1730>>IF       1730>>IF
      1731>>ASSIGN   1734<<ASSIGN   1735>>DOWHILE  1736>>IF       1737>>ASSIGN   1738<<ASSIGN   1738>>ASSIGN
M$ERR
       217**DCL-ENT  1786--CALL
N
       175**DCL       174--PROC     1660>>IF       1662>>ASSIGN   1663>>ASSIGN   1664>>IF       1671>>ASSIGN
      1691>>ASSIGN   1695>>ASSIGN   1698<<ASSIGN   1698>>ASSIGN   1699>>CALL     1702>>ASSIGN   1707>>IF
      1708>>ASSIGN   1716>>IF       1717>>DOINDEX  1728>>IF       1729>>DOINDEX  1734>>ASSIGN   1741>>CALL
      1743>>ASSIGN   1745>>ASSIGN   1752>>IF       1758>>ASSIGN   1762>>ASSIGN   1764>>ASSIGN   1768>>IF
      1771<>CALL     1772>>IF       1774>>CALL
NAM1.DESC$
       376**DCL      1662>>ASSIGN   1663>>ASSIGN   1691>>ASSIGN
NAM1$
       358**DCL       361--IMP-PTR  1662>>ASSIGN   1663>>ASSIGN   1691>>ASSIGN
PL6.E3A0      #003=ZII$RECURSE File=ZII$RET_LIB.:ZIC0TSI                         FRI 09/05/97 12:31 Page:239
PATH_LIST
      1513**DCL       174--PROC     1771<>CALL
PATH_LIST.BRANCH_EXHAUSTED
      1529**DCL      1702<<ASSIGN   1708<<ASSIGN   1719<<ASSIGN
PATH_LIST.CONSTRAINT_EPTR
      1549**DCL      1745>>ASSIGN   1764>>ASSIGN
PATH_LIST.CONVERT_EPTR
      1546**DCL      1762>>ASSIGN
PATH_LIST.FIND_ATTEMPTED
      1520**DCL      1695<<ASSIGN
PATH_LIST.FIND_FIRST
      1535**DCL      1664>>IF       1671<<ASSIGN   1731<<ASSIGN   1737<<ASSIGN
PATH_LIST.GET_IND
      1518**DCL      1752>>IF
PATH_LIST.INIT_EPTR
      1544**DCL      1743>>ASSIGN   1758>>ASSIGN
PATH_LIST.OWN_NEXT
      1516**DCL      1660>>IF       1730>>IF       1736>>IF
PATH_LIST.REC_NO
      1514**DCL      1662>>ASSIGN   1699<>CALL     1707>>IF       1707>>IF       1717>>DOINDEX  1729>>DOINDEX
      1741<>CALL     1774<>CALL
PATH_LIST.SET_NO
      1515**DCL      1663>>ASSIGN   1691>>ASSIGN   1718>>IF       1730>>IF       1735>>DOWHILE  1768>>IF
      1772>>IF
PIVOT_REC_IDX
       193**DCL      1716>>IF       1728>>IF
PRESENCE_LIST
       186**DCL       174--PROC     1699<>CALL     1741<>CALL     1771<>CALL     1774<>CALL
PRESENCE_LIST.DB_KEY_SAVE
       189**DCL      1701<<ASSIGN
PRESENCE_LIST.P_VALUE
       188**DCL      1700<<ASSIGN   1742<<ASSIGN   1775<<ASSIGN
RECORD.FLAG_BITS
      1299**DCL      1300--REDEF
RECORD.RVA_OFF
      1297**DCL      1668>>ASSIGN   1676>>ASSIGN   1683>>ASSIGN
PL6.E3A0      #003=ZII$RECURSE File=ZII$RET_LIB.:ZIC0TSI                         FRI 09/05/97 12:31 Page:240
RETRIEVE_RETURN
       183**DCL      1769>>UNWIND
SET.FLAG_BITS
      1258**DCL      1259--REDEF
SET.RVA_OFF
      1255**DCL      1670>>ASSIGN   1684>>ASSIGN   1692>>ASSIGN
START_OF_BRANCH
       176**DCL       174--PROC     1707>>IF       1771<>CALL
STATUS_CODE
       177**DCL       174--PROC     1658<<ASSIGN   1771<>CALL     1780<<ASSIGN   1783<<ASSIGN
TEMP_VALUE
       192**DCL      1699<>CALL     1700>>ASSIGN   1701>>ASSIGN   1741<>CALL     1742>>ASSIGN   1774<>CALL
      1775>>ASSIGN
UNWINDLBL
      1769**LABEL    1748--GOTO     1778--GOTO
UWA.DB_STATUS
       384**DCL      1678>>IF       1696>>IF       1705>>IF       1756>>IF
UWA.DIRECT_REFERENCE
       393**DCL      1701>>ASSIGN
UWA#
       381**DCL       399--IMP-SIZ
UWA$
       379**DCL       382--IMP-PTR  1678>>IF       1696>>IF       1701>>ASSIGN   1705>>IF       1756>>IF
ZII$FIND
      1653**DCL-ENT  1677--CALL     1694--CALL
ZII$FIND_PRESENCE_IDX
      1656**DCL-ENT  1699--CALL     1741--CALL     1774--CALL
ZII$GET
      1654**DCL-ENT  1755--CALL
ZII$PARAMS
       178**DCL      1659<<ASSIGN   1680<<ASSIGN   1754<<ASSIGN
ZII$PARAMS.L_HALF
       179**DCL      1668<<ASSIGN   1670<<ASSIGN   1676<<ASSIGN   1683<<ASSIGN   1684<<ASSIGN   1692<<ASSIGN
ZII$PARAMS.R_HALF
       180**DCL      1666<<ASSIGN   1667<<ASSIGN   1669<<ASSIGN   1674<<ASSIGN   1675<<ASSIGN   1681<<ASSIGN
      1682<<ASSIGN   1689<<ASSIGN   1690<<ASSIGN
PL6.E3A0      #003=ZII$RECURSE File=ZII$RET_LIB.:ZIC0TSI                         FRI 09/05/97 12:31 Page:241
ZII$RECURSE
       174**PROC     1771--CALL

PL6.E3A0      #004=ZII$CLR_PARAMS File=ZII$RET_LIB.:ZIC0TSI                      FRI 09/05/97 12:31 Page:242
     1582        1        /*T***********************************************************/
     1583        2        /*T*                                                         */
     1584        3        /*T* Copyright (c) Bull HN Information Systems Inc., 1997    */
     1585        4        /*T*                                                         */
     1586        5        /*T***********************************************************/
     1587        6        ZII$CLR_PARAMS: PROC;
     1588        7    1   DCL 1 ZII$PARAMS (0:20) SYMREF,
     1589        8    1         2 L_HALF UBIN(18) UNAL,
     1590        9    1         2 R_HALF UBIN(18) UNAL;
     1591       10    1   DCL N UBIN AUTO;
     1592       11        /**/
     1593       12    1       N=0;
     1594       13    2       DO WHILE (N<=20);
     1595       14    2           ZII$PARAMS.L_HALF(N)=0;
     1596       15    2           ZII$PARAMS.R_HALF(N)=0;
     1597       16    2           N=N+1;
     1598       17    2           END;
     1599       18    1       RETURN;
     1600       19    1   END ZII$CLR_PARAMS;
     1601       20        %EOD;

PL6.E3A0      #004=ZII$CLR_PARAMS File=ZII$RET_LIB.:ZIC0TSI                      FRI 09/05/97 12:31 Page:243
--  Include file information  --

   B$JIT_C.:E05TOU  was found in the system file and is never referenced.
   CP_6_C.:E05TOU  was found in the system file and is never referenced.
      No diagnostics issued in procedure ZII$CLR_PARAMS.

   Procedure ZII$CLR_PARAMS requires 16 words for executable code.
   Procedure ZII$CLR_PARAMS requires 4 words of local(AUTO) storage.

PL6.E3A0      #004=ZII$CLR_PARAMS File=ZII$RET_LIB.:ZIC0TSI                      FRI 09/05/97 12:31 Page:244

 Object Unit name= ZII$CLR_PARAMS                             File name= ZII$RET_LIB.:ZIC0TOU
 UTS= SEP 05 '97 12:31:45.32 FRI                              Compiler= PL-6/E31         Sev=      00
 SharedLib= :SHARED_SYSTEM                                    Alt SharedLib=


    ****  Control sections  ****

 Sect   Type Bound  Init  Size OctSiz  Section name(segment info)
    0   Proc  even  none    16     20  ZII$CLR_PARAMS

    ****  Entry defs  ****

                              Check   Calling
                             calling  sequence
  Sect OctLoc Primary Altret sequence   type   Parms  Name
     0      0   yes            yes      Std        0  ZII$CLR_PARAMS

  ****  Entry refs  ****

         Check        Calling
        calling       sequence
Altret sequence SRef   type   Args  Name
                       nStd      0 X66_AUTO_0
                       nStd      0 X66_ARET

  ****  Data refs  ****

  Flags:  r = read only, s = secondary
Flgs Name                             Flgs Name                             Flgs Name
     ZII$PARAMS
PL6.E3A0      #004=ZII$CLR_PARAMS File=ZII$RET_LIB.:ZIC0TSI                      FRI 09/05/97 12:31 Page:245


     1582        1        /*T***********************************************************/
     1583        2        /*T*                                                         */
     1584        3        /*T* Copyright (c) Bull HN Information Systems Inc., 1997    */
     1585        4        /*T*                                                         */
     1586        5        /*T***********************************************************/
     1587        6        ZII$CLR_PARAMS: PROC;

      6  0 000000   000000 700200 xent  ZII$CLR_PAR* TSX0  ! X66_AUTO_0
         0 000001   000004 000000                    ZERO    4,0

     1588        7    1   DCL 1 ZII$PARAMS (0:20) SYMREF,
     1589        8    1         2 L_HALF UBIN(18) UNAL,
     1590        9    1         2 R_HALF UBIN(18) UNAL;
     1591       10    1   DCL N UBIN AUTO;
     1592       11        /**/
     1593       12    1       N=0;

     12  0 000002   200003 450100                    STZ     N,,AUTO

     1594       13    2       DO WHILE (N<=20);

     13  0 000003   200003 235100                    LDA     N,,AUTO
         0 000004   000025 115007                    CMPA    21,DL
         0 000005   000017 603000 0                  TRC     s:18

     1595       14    2           ZII$PARAMS.L_HALF(N)=0;

     14  0 000006   000000 220003                    LDX0    0,DU
         0 000007   200003 721100                    LXL1    N,,AUTO
         0 000010   000000 740011 xsym               STX0    ZII$PARAMS,X1

     1596       15    2           ZII$PARAMS.R_HALF(N)=0;

     15  0 000011   000000 440011 xsym               SXL0    ZII$PARAMS,X1

     1597       16    2           N=N+1;
PL6.E3A0      #004=ZII$CLR_PARAMS File=ZII$RET_LIB.:ZIC0TSI                      FRI 09/05/97 12:31 Page:246

     16  0 000012   200003 235100                    LDA     N,,AUTO
         0 000013   000001 035007                    ADLA    1,DL
         0 000014   200003 755100                    STA     N,,AUTO

     1598       17    2           END;

     17  0 000015   000025 115007                    CMPA    21,DL
         0 000016   000006 602000 0                  TNC     s:14

     1599       18    1       RETURN;

     18  0 000017   000000 702200 xent               TSX2  ! X66_ARET
     1600       19    1   END ZII$CLR_PARAMS;
     1601       20        %EOD;

PL6.E3A0      #004=ZII$CLR_PARAMS File=ZII$RET_LIB.:ZIC0TSI                      FRI 09/05/97 12:31 Page:247
--  Include file information  --

   B$JIT_C.:E05TOU  was found in the system file and is never referenced.
   CP_6_C.:E05TOU  was found in the system file and is never referenced.
      No diagnostics issued in procedure ZII$CLR_PARAMS.

   Procedure ZII$CLR_PARAMS requires 16 words for executable code.
   Procedure ZII$CLR_PARAMS requires 4 words of local(AUTO) storage.
PL6.E3A0      #004=ZII$CLR_PARAMS File=ZII$RET_LIB.:ZIC0TSI                      FRI 09/05/97 12:31 Page:248
          *** CROSS REFERENCE LISTING ***
**     DENOTES     IDENTIFIER DEFINITION
<<                 IDENTIFIER'S VALUE SET
>>                 IDENTIFIER'S VALUE USED
<>                 IDENTIFIER SET AND/OR USED
--                 IDENTIFIER REFERENCED
PL6.E3A0      #004=ZII$CLR_PARAMS File=ZII$RET_LIB.:ZIC0TSI                      FRI 09/05/97 12:31 Page:249
          MINI XREF LISTING

N
        10**DCL        12<<ASSIGN     13>>DOWHILE    14>>ASSIGN     15>>ASSIGN     16<<ASSIGN     16>>ASSIGN
ZII$PARAMS.L_HALF
         8**DCL        14<<ASSIGN
ZII$PARAMS.R_HALF
         9**DCL        15<<ASSIGN

PL6.E3A0      #005=ZII$FIND_FIRST File=ZII$RET_LIB.:ZIC0TSI                      FRI 09/05/97 12:31 Page:250
     1602        1        /*M* ZII$FIND_FIRST Find the "first" record using some alternate key          */
     1603        2        /*T***********************************************************/
     1604        3        /*T*                                                         */
     1605        4        /*T* Copyright (c) Bull HN Information Systems Inc., 1997    */
     1606        5        /*T*                                                         */
     1607        6        /*T***********************************************************/
     1608        7        ZII$FIND_FIRST: PROC(ACCESS_LIST) ALTRET;
     1609        8
     1610        9        %INCLUDE ZI$DESC;
     1611      859        %INCLUDE ZI$PATH_STRUCTS;
     1612      997        %INCLUDE ZI$STRUCTS;
     1613     1069
     1614     1070        %ACCESS_DESC(STCLASS=" ");
     1615     1109
     1616     1110        %NAM1;
     1617     1139        %NAM2;
     1618     1153        %UWA1;
     1619     1176
     1620     1177        %DSC_REC(STCLASS=" ");
     1621     1211        %DSC_RFK(STCLASS=" ");
     1622     1227        %DSC_FLD(STCLASS=" ");
     1623     1342
     1624     1343    1   DCL ZII$FIND1ST_MOVE_Z ENTRY;
     1625     1344    1   DCL ZII$FIND1ST_MOVE_4UN ENTRY;
     1626     1345    1   DCL ZII$FIND1ST_MOVE_4LS ENTRY;
     1627     1346    1   DCL ZII$FIND1ST_MOVE_4TS ENTRY;
     1628     1347    1   DCL ZII$FIND1ST_MOVE_9UN ENTRY;
     1629     1348    1   DCL ZII$FIND1ST_MOVE_9LS ENTRY;
     1630     1349    1   DCL ZII$FIND1ST_MOVE_9TS ENTRY;
     1631     1350
     1632     1351    1   DCL ZII_FIND1ST_MOVE_PTR$ PTR SYMREF;
     1633     1352    1   DCL ZII_FIND1ST_MOVE_OFF UBIN SYMREF;
     1634     1353    1   DCL ZII_FIND1ST_MOVE_LEN UBIN SYMREF;
     1635     1354
     1636     1355
     1637     1356
     1638     1357         /*
PL6.E3A0      #005=ZII$FIND_FIRST File=ZII$RET_LIB.:ZIC0TSI                      FRI 09/05/97 12:31 Page:251
     1639     1358            Use the NAM1 indices ACCESS_LIST.PORT and ACCESS_LIST.PORT_KEY to
     1640     1359            set DF$ to the key field control item for this combination of
     1641     1360            record and field.
     1642     1361         */
     1643     1362
     1644     1363    1       DRFK$ = NAM1.DESC$(ACCESS_LIST.PORT)->RECORD.RFK_DSC$;
     1645     1364    2       DO WHILE(DRFK$ ~= ADDR(NIL));
     1646     1365    3           IF ACCESS_LIST.PORT_KEY = RFK_DSC.KEY_IDX THEN DO;
     1647     1366    3               DF$ = NAM1.DESC$(RFK_DSC.FLD$->RFK_DSC.FLD_IDX);
     1648     1367    3               GOTO DO_THE_FIND_FIRST;
     1649     1368    3               END;
     1650     1369    2           DRFK$ = RFK_DSC.REC$;
     1651     1370    2           END;
     1652     1371    1       ALTRETURN;
     1653     1372
     1654     1373    1   DO_THE_FIND_FIRST: ;
     1655     1374         /*
     1656     1375            ZII_FIND1ST_MOVE_PTR$ points to the start of the UWA.
     1657     1376            ZII_FIND1ST_MOVE_OFF is computed from FIELD.UWA_OFF and is the
     1658     1377            digit offset (4 or 9-bit as appropriate) to the key field.
     1659     1378            ZII_FIND1ST_MOVE_LEN is the digit length of the key field.
     1660     1379         */
     1661     1380
     1662     1381    1       ZII_FIND1ST_MOVE_PTR$ = UWA$;
     1663     1382    1       ZII_FIND1ST_MOVE_OFF = FIELD.UWA_OFF;
     1664     1383    1       ZII_FIND1ST_MOVE_LEN = FIELD.EIS_BITS.NDSC.N;
     1665     1384
     1666     1385    2       DO CASE(FIELD.FLAGS_2.DATA_TYPE);
     1667     1386    2       CASE(#FDT_CHAR);
     1668     1387    2           ZII_FIND1ST_MOVE_LEN = FIELD.EIS_BITS.ADSC.N;
     1669     1388    2           IF FIELD.FLAGS_2.BYT_NIB THEN
     1670     1389    2               ZII_FIND1ST_MOVE_OFF = ZII_FIND1ST_MOVE_OFF / 2;
     1671     1390    2           CALL ZII$FIND1ST_MOVE_Z;
     1672     1391    2       CASE(#FDT_DBK,#FDT_INTEGER,#FDT_CMP2,#FDT_FLT_SINGLE);
     1673     1392    2           ZII_FIND1ST_MOVE_LEN = 4;
     1674     1393    2           IF FIELD.FLAGS_2.BYT_NIB THEN
     1675     1394    2               ZII_FIND1ST_MOVE_OFF = ZII_FIND1ST_MOVE_OFF / 2;
PL6.E3A0      #005=ZII$FIND_FIRST File=ZII$RET_LIB.:ZIC0TSI                      FRI 09/05/97 12:31 Page:252
     1676     1395    2           CALL ZII$FIND1ST_MOVE_Z;
     1677     1396    2       CASE(#FDT_CMP_UNSIGN);
     1678     1397    2           IF NOT FIELD.FLAGS_2.BYT_NIB THEN
     1679     1398    2               ZII_FIND1ST_MOVE_OFF = ZII_FIND1ST_MOVE_OFF * 2;
     1680     1399    2           CALL ZII$FIND1ST_MOVE_4UN;
     1681     1400    2       CASE(#FDT_CMP_SIGN,#FDT_CMP3_SIGN);
     1682     1401    2           IF NOT FIELD.FLAGS_2.BYT_NIB THEN
     1683     1402    2               ZII_FIND1ST_MOVE_OFF = ZII_FIND1ST_MOVE_OFF * 2;
     1684     1403    2           IF FIELD.EIS_BITS.NDSC.S = '01'B THEN
     1685     1404    2               CALL ZII$FIND1ST_MOVE_4LS;
     1686     1405    2           ELSE
     1687     1406    2               CALL ZII$FIND1ST_MOVE_4TS;
     1688     1407    2       CASE(#FDT_DISP_NUM,#FDT_DISP_NUM010,#FDT_DISP_NUM001);
     1689     1408    2           IF FIELD.FLAGS_2.BYT_NIB THEN
     1690     1409    2               ZII_FIND1ST_MOVE_OFF = ZII_FIND1ST_MOVE_OFF / 2;
     1691     1410    2           CALL ZII$FIND1ST_MOVE_9UN;
     1692     1411    2       CASE(#FDT_DISP_NUM100);
     1693     1412    2           IF FIELD.FLAGS_2.BYT_NIB THEN
     1694     1413    2               ZII_FIND1ST_MOVE_OFF = ZII_FIND1ST_MOVE_OFF / 2;
     1695     1414    2           CALL ZII$FIND1ST_MOVE_9LS;
     1696     1415    2       CASE(#FDT_DISP_NUM011);
     1697     1416    2           IF FIELD.FLAGS_2.BYT_NIB THEN
     1698     1417    2               ZII_FIND1ST_MOVE_OFF = ZII_FIND1ST_MOVE_OFF / 2;
     1699     1418    2           CALL ZII$FIND1ST_MOVE_9TS;
     1700     1419    2       CASE(#FDT_CMP1);
     1701     1420    2           ZII_FIND1ST_MOVE_LEN = 2;
     1702     1421    2           IF FIELD.FLAGS_2.BYT_NIB THEN
     1703     1422    2               ZII_FIND1ST_MOVE_OFF = ZII_FIND1ST_MOVE_OFF / 2;
     1704     1423    2           CALL ZII$FIND1ST_MOVE_Z;
     1705     1424    2       CASE(#FDT_FLT_DOUBLE,#FDT_CMPLX_SINGLE);
     1706     1425    2           ZII_FIND1ST_MOVE_LEN = 8;
     1707     1426    2           IF FIELD.FLAGS_2.BYT_NIB THEN
     1708     1427    2               ZII_FIND1ST_MOVE_OFF = ZII_FIND1ST_MOVE_OFF / 2;
     1709     1428    2           CALL ZII$FIND1ST_MOVE_Z;
     1710     1429    2       CASE(#FDT_CMPLX_DOUBLE);
     1711     1430    2           ZII_FIND1ST_MOVE_LEN = 16;
     1712     1431    2           IF FIELD.FLAGS_2.BYT_NIB THEN
PL6.E3A0      #005=ZII$FIND_FIRST File=ZII$RET_LIB.:ZIC0TSI                      FRI 09/05/97 12:31 Page:253
     1713     1432    2               ZII_FIND1ST_MOVE_OFF = ZII_FIND1ST_MOVE_OFF / 2;
     1714     1433    2           CALL ZII$FIND1ST_MOVE_Z;
     1715     1434    2       CASE(#FDT_LOGICAL);
     1716     1435    2           ZII_FIND1ST_MOVE_LEN = 1;
     1717     1436    2           IF FIELD.FLAGS_2.BYT_NIB THEN
     1718     1437    2               ZII_FIND1ST_MOVE_OFF = ZII_FIND1ST_MOVE_OFF / 2;
     1719     1438    2           CALL ZII$FIND1ST_MOVE_Z;
     1720     1439    2       CASE(ELSE);
     1721     1440    2           ALTRETURN;
     1722     1441    2           END; /* Do Case(FIELD.FLAGS_2.DATA_TYPE) */
     1723     1442         /*
     1724     1443            At this point an appropriate zero has been moved into the
     1725     1444            appropriate key item and I'm going to turn this all over to
     1726     1445            Mark Quinty.
     1727     1446         */
     1728     1447    1   END;

PL6.E3A0      #005=ZII$FIND_FIRST File=ZII$RET_LIB.:ZIC0TSI                      FRI 09/05/97 12:31 Page:254
--  Include file information  --

   ZI$STRUCTS.:ZIC0TOU  is referenced.
   ZI$PATH_STRUCTS.:ZIC0TOU  is referenced.
   ZI$DESC.:ZIC0TOU  is referenced.
   B$JIT_C.:E05TOU  was found in the system file and is never referenced.
   CP_6_C.:E05TOU  was found in the system file and is never referenced.
      No diagnostics issued in procedure ZII$FIND_FIRST.

   Procedure ZII$FIND_FIRST requires 184 words for executable code.
   Procedure ZII$FIND_FIRST requires 8 words of local(AUTO) storage.

    No errors detected in file ZII$RET_LIB.:ZIC0TSI    .

PL6.E3A0      #005=ZII$FIND_FIRST File=ZII$RET_LIB.:ZIC0TSI                      FRI 09/05/97 12:31 Page:255

 Object Unit name= ZII$FIND_FIRST                             File name= ZII$RET_LIB.:ZIC0TOU
 UTS= SEP 05 '97 12:31:46.72 FRI                              Compiler= PL-6/E31         Sev=      00
 SharedLib= :SHARED_SYSTEM                                    Alt SharedLib=


    ****  Control sections  ****

 Sect   Type Bound  Init  Size OctSiz  Section name(segment info)
    0  LblCom even  none     1      1  NAM1$
    1  LblCom even  none     1      1  NAM1_SIZ
    2  LblCom even  none     1      1  NAM1_IDX
    3  LblCom even  none     1      1  NAM2$
    4  LblCom even  none     1      1  NAM2_SIZ
    5  LblCom even  none     1      1  DESC#
    6  LblCom even  none     1      1  UWA$
    7  LblCom even  none     1      1  UWA_SIZ
    8  LblCom even  none     1      1  UWA#
    9   Proc  even  none   184    270  ZII$FIND_FIRST
   10  RoData even  none     2      2  ZII$FIND_FIRST

    ****  Entry defs  ****

                              Check   Calling
                             calling  sequence
  Sect OctLoc Primary Altret sequence   type   Parms  Name
     9      0   yes    yes     yes      Std        1  ZII$FIND_FIRST
PL6.E3A0      #005=ZII$FIND_FIRST File=ZII$RET_LIB.:ZIC0TSI                      FRI 09/05/97 12:31 Page:256

  ****  Entry refs  ****

         Check        Calling
        calling       sequence
Altret sequence SRef   type   Args  Name
         yes           Std       0 ZII$FIND1ST_MOVE_Z
         yes           Std       0 ZII$FIND1ST_MOVE_4UN
         yes           Std       0 ZII$FIND1ST_MOVE_4LS
         yes           Std       0 ZII$FIND1ST_MOVE_4TS
         yes           Std       0 ZII$FIND1ST_MOVE_9UN
         yes           Std       0 ZII$FIND1ST_MOVE_9TS
         yes           Std       0 ZII$FIND1ST_MOVE_9LS
                       nStd      0 X66_AUTO_1
                       nStd      0 X66_AALT
                       nStd      0 X66_ARET

  ****  Data refs  ****

  Flags:  r = read only, s = secondary
Flgs Name                             Flgs Name                             Flgs Name
     ZII_FIND1ST_MOVE_PTR$                 ZII_FIND1ST_MOVE_OFF                  ZII_FIND1ST_MOVE_LEN

  ****  Segment refs  ****

  Flags:  r = read only, s = secondary
Flgs Name                             Flgs Name                             Flgs Name
     NULLSID
PL6.E3A0      #005=ZII$FIND_FIRST File=ZII$RET_LIB.:ZIC0TSI                      FRI 09/05/97 12:31 Page:257


     1602        1        /*M* ZII$FIND_FIRST Find the "first" record using some alternate key          */
     1603        2        /*T***********************************************************/
     1604        3        /*T*                                                         */
     1605        4        /*T* Copyright (c) Bull HN Information Systems Inc., 1997    */
     1606        5        /*T*                                                         */
     1607        6        /*T***********************************************************/
     1608        7        ZII$FIND_FIRST: PROC(ACCESS_LIST) ALTRET;

      7  9 000000   000000 700200 xent  ZII$FIND_FI* TSX0  ! X66_AUTO_1
         9 000001   000010 000001                    ZERO    8,1

     1609        8
     1610        9        %INCLUDE ZI$DESC;
     1611      859        %INCLUDE ZI$PATH_STRUCTS;
     1612      997        %INCLUDE ZI$STRUCTS;
     1613     1069
     1614     1070        %ACCESS_DESC(STCLASS=" ");
     1615     1109
     1616     1110        %NAM1;
     1617     1139        %NAM2;
     1618     1153        %UWA1;
     1619     1176
     1620     1177        %DSC_REC(STCLASS=" ");
     1621     1211        %DSC_RFK(STCLASS=" ");
     1622     1227        %DSC_FLD(STCLASS=" ");
     1623     1342
     1624     1343    1   DCL ZII$FIND1ST_MOVE_Z ENTRY;
     1625     1344    1   DCL ZII$FIND1ST_MOVE_4UN ENTRY;
     1626     1345    1   DCL ZII$FIND1ST_MOVE_4LS ENTRY;
     1627     1346    1   DCL ZII$FIND1ST_MOVE_4TS ENTRY;
     1628     1347    1   DCL ZII$FIND1ST_MOVE_9UN ENTRY;
     1629     1348    1   DCL ZII$FIND1ST_MOVE_9LS ENTRY;
     1630     1349    1   DCL ZII$FIND1ST_MOVE_9TS ENTRY;
     1631     1350
     1632     1351    1   DCL ZII_FIND1ST_MOVE_PTR$ PTR SYMREF;
     1633     1352    1   DCL ZII_FIND1ST_MOVE_OFF UBIN SYMREF;
PL6.E3A0      #005=ZII$FIND_FIRST File=ZII$RET_LIB.:ZIC0TSI                      FRI 09/05/97 12:31 Page:258
     1634     1353    1   DCL ZII_FIND1ST_MOVE_LEN UBIN SYMREF;
     1635     1354
     1636     1355
     1637     1356
     1638     1357         /*
     1639     1358            Use the NAM1 indices ACCESS_LIST.PORT and ACCESS_LIST.PORT_KEY to
     1640     1359            set DF$ to the key field control item for this combination of
     1641     1360            record and field.
     1642     1361         */
     1643     1362
     1644     1363    1       DRFK$ = NAM1.DESC$(ACCESS_LIST.PORT)->RECORD.RFK_DSC$;

   1363  9 000002   200003 470500                    LDP0    @ACCESS_LIST,,AUTO
         9 000003   000000 236100                    LDQ     0,,PR0
         9 000004   000022 772000                    QRL     18
         9 000005   000012 402007                    MPY     10,DL
         9 000006   000000 471400 0                  LDP1    NAM1$
         9 000007   100011 473506                    LDP3    9,QL,PR1
         9 000010   300007 236100                    LDQ     7,,PR3
         9 000011   200005 756100                    STQ     DRFK$,,AUTO

     1645     1364    2       DO WHILE(DRFK$ ~= ADDR(NIL));

   1364  9 000012   000033 710000 9                  TRA     s:1370

     1646     1365    3           IF ACCESS_LIST.PORT_KEY = RFK_DSC.KEY_IDX THEN DO;

   1365  9 000013   200005 470500                    LDP0    DRFK$,,AUTO
         9 000014   200003 471500                    LDP1    @ACCESS_LIST,,AUTO
         9 000015   100000 236100                    LDQ     0,,PR1
         9 000016   000000 676100                    ERQ     0,,PR0
         9 000017   777777 376007                    ANQ     -1,DL
         9 000020   000031 601000 9                  TNZ     s:1369

     1647     1366    3               DF$ = NAM1.DESC$(RFK_DSC.FLD$->RFK_DSC.FLD_IDX);

   1366  9 000021   000007 473500                    LDP3    7,,PR0
PL6.E3A0      #005=ZII$FIND_FIRST File=ZII$RET_LIB.:ZIC0TSI                      FRI 09/05/97 12:31 Page:259
         9 000022   300001 236100                    LDQ     1,,PR3
         9 000023   000022 772000                    QRL     18
         9 000024   000012 402007                    MPY     10,DL
         9 000025   000000 474400 0                  LDP4    NAM1$
         9 000026   400011 236106                    LDQ     9,QL,PR4
         9 000027   200006 756100                    STQ     DF$,,AUTO

     1648     1367    3               GOTO DO_THE_FIND_FIRST;

   1367  9 000030   000036 710000 9                  TRA     DO_THE_FIND_FIRST

     1649     1368    3               END;
     1650     1369    2           DRFK$ = RFK_DSC.REC$;

   1369  9 000031   000005 236100                    LDQ     5,,PR0
         9 000032   200005 756100                    STQ     DRFK$,,AUTO

     1651     1370    2           END;

   1370  9 000033   000000 116000 10                 CMPQ    0
         9 000034   000013 601000 9                  TNZ     s:1365

     1652     1371    1       ALTRETURN;

   1371  9 000035   000000 702200 xent               TSX2  ! X66_AALT

     1653     1372
     1654     1373    1   DO_THE_FIND_FIRST: ;

   1373  9 000036                       DO_THE_FIND* null
     1655     1374         /*
     1656     1375            ZII_FIND1ST_MOVE_PTR$ points to the start of the UWA.
     1657     1376            ZII_FIND1ST_MOVE_OFF is computed from FIELD.UWA_OFF and is the
     1658     1377            digit offset (4 or 9-bit as appropriate) to the key field.
     1659     1378            ZII_FIND1ST_MOVE_LEN is the digit length of the key field.
     1660     1379         */
     1661     1380
PL6.E3A0      #005=ZII$FIND_FIRST File=ZII$RET_LIB.:ZIC0TSI                      FRI 09/05/97 12:31 Page:260
     1662     1381    1       ZII_FIND1ST_MOVE_PTR$ = UWA$;

   1381  9 000036   000000 236000 6                  LDQ     UWA$
         9 000037   000000 756000 xsym               STQ     ZII_FIND1ST_MOVE_PTR$

     1663     1382    1       ZII_FIND1ST_MOVE_OFF = FIELD.UWA_OFF;

   1382  9 000040   200006 475500                    LDP5    DF$,,AUTO
         9 000041   500001 236100                    LDQ     1,,PR5
         9 000042   000022 772000                    QRL     18
         9 000043   000000 756000 xsym               STQ     ZII_FIND1ST_MOVE_OFF

     1664     1383    1       ZII_FIND1ST_MOVE_LEN = FIELD.EIS_BITS.NDSC.N;

   1383  9 000044   500005 236100                    LDQ     5,,PR5
         9 000045   000077 376007                    ANQ     63,DL
         9 000046   000000 756000 xsym               STQ     ZII_FIND1ST_MOVE_LEN

     1665     1384
     1666     1385    2       DO CASE(FIELD.FLAGS_2.DATA_TYPE);

   1385  9 000047   500004 220100                    LDX0    4,,PR5
         9 000050   177777 360003                    ANX0    65535,DU
         9 000051   000022 100003                    CMPX0   18,DU
         9 000052   000054 602010 9                  TNC     s:1385+5,X0
         9 000053   000266 710000 9                  TRA     s:1440
         9 000054   000076 710000 9                  TRA     s:1387
         9 000055   000112 710000 9                  TRA     s:1392
         9 000056   000112 710000 9                  TRA     s:1392
         9 000057   000125 710000 9                  TRA     s:1397
         9 000060   000136 710000 9                  TRA     s:1401
         9 000061   000136 710000 9                  TRA     s:1401
         9 000062   000157 710000 9                  TRA     s:1408
         9 000063   000170 710000 9                  TRA     s:1412
         9 000064   000201 710000 9                  TRA     s:1416
         9 000065   000157 710000 9                  TRA     s:1408
         9 000066   000157 710000 9                  TRA     s:1408
PL6.E3A0      #005=ZII$FIND_FIRST File=ZII$RET_LIB.:ZIC0TSI                      FRI 09/05/97 12:31 Page:261
         9 000067   000212 710000 9                  TRA     s:1420
         9 000070   000112 710000 9                  TRA     s:1392
         9 000071   000112 710000 9                  TRA     s:1392
         9 000072   000225 710000 9                  TRA     s:1425
         9 000073   000225 710000 9                  TRA     s:1425
         9 000074   000240 710000 9                  TRA     s:1430
         9 000075   000253 710000 9                  TRA     s:1435

     1667     1386    2       CASE(#FDT_CHAR);

     1668     1387    2           ZII_FIND1ST_MOVE_LEN = FIELD.EIS_BITS.ADSC.N;

   1387  9 000076   500005 236100                    LDQ     5,,PR5
         9 000077   007777 376007                    ANQ     4095,DL
         9 000100   000000 756000 xsym               STQ     ZII_FIND1ST_MOVE_LEN

     1669     1388    2           IF FIELD.FLAGS_2.BYT_NIB THEN

   1388  9 000101   500004 234100                    SZN     4,,PR5
         9 000102   000106 605000 9                  TPL     s:1390

     1670     1389    2               ZII_FIND1ST_MOVE_OFF = ZII_FIND1ST_MOVE_OFF / 2;

   1389  9 000103   000000 236000 xsym               LDQ     ZII_FIND1ST_MOVE_OFF
         9 000104   000001 772000                    QRL     1
         9 000105   000000 756000 xsym               STQ     ZII_FIND1ST_MOVE_OFF

     1671     1390    2           CALL ZII$FIND1ST_MOVE_Z;

   1390  9 000106   000001 631400 10                 EPPR1   1
         9 000107   000000 701000 xent               TSX1    ZII$FIND1ST_MOVE_Z
         9 000110   000000 011000                    NOP     0
         9 000111   000267 710000 9                  TRA     s:1447

     1672     1391    2       CASE(#FDT_DBK,#FDT_INTEGER,#FDT_CMP2,#FDT_FLT_SINGLE);

     1673     1392    2           ZII_FIND1ST_MOVE_LEN = 4;
PL6.E3A0      #005=ZII$FIND_FIRST File=ZII$RET_LIB.:ZIC0TSI                      FRI 09/05/97 12:31 Page:262

   1392  9 000112   000004 235007                    LDA     4,DL
         9 000113   000000 755000 xsym               STA     ZII_FIND1ST_MOVE_LEN

     1674     1393    2           IF FIELD.FLAGS_2.BYT_NIB THEN

   1393  9 000114   500004 234100                    SZN     4,,PR5
         9 000115   000121 605000 9                  TPL     s:1395

     1675     1394    2               ZII_FIND1ST_MOVE_OFF = ZII_FIND1ST_MOVE_OFF / 2;

   1394  9 000116   000000 236000 xsym               LDQ     ZII_FIND1ST_MOVE_OFF
         9 000117   000001 772000                    QRL     1
         9 000120   000000 756000 xsym               STQ     ZII_FIND1ST_MOVE_OFF

     1676     1395    2           CALL ZII$FIND1ST_MOVE_Z;

   1395  9 000121   000001 631400 10                 EPPR1   1
         9 000122   000000 701000 xent               TSX1    ZII$FIND1ST_MOVE_Z
         9 000123   000000 011000                    NOP     0
         9 000124   000267 710000 9                  TRA     s:1447

     1677     1396    2       CASE(#FDT_CMP_UNSIGN);

     1678     1397    2           IF NOT FIELD.FLAGS_2.BYT_NIB THEN

   1397  9 000125   500004 234100                    SZN     4,,PR5
         9 000126   000132 604000 9                  TMI     s:1399

     1679     1398    2               ZII_FIND1ST_MOVE_OFF = ZII_FIND1ST_MOVE_OFF * 2;

   1398  9 000127   000000 235000 xsym               LDA     ZII_FIND1ST_MOVE_OFF
         9 000130   000001 735000                    ALS     1
         9 000131   000000 755000 xsym               STA     ZII_FIND1ST_MOVE_OFF

     1680     1399    2           CALL ZII$FIND1ST_MOVE_4UN;

PL6.E3A0      #005=ZII$FIND_FIRST File=ZII$RET_LIB.:ZIC0TSI                      FRI 09/05/97 12:31 Page:263
   1399  9 000132   000001 631400 10                 EPPR1   1
         9 000133   000000 701000 xent               TSX1    ZII$FIND1ST_MOVE_4UN
         9 000134   000000 011000                    NOP     0
         9 000135   000267 710000 9                  TRA     s:1447

     1681     1400    2       CASE(#FDT_CMP_SIGN,#FDT_CMP3_SIGN);

     1682     1401    2           IF NOT FIELD.FLAGS_2.BYT_NIB THEN

   1401  9 000136   500004 234100                    SZN     4,,PR5
         9 000137   000143 604000 9                  TMI     s:1403

     1683     1402    2               ZII_FIND1ST_MOVE_OFF = ZII_FIND1ST_MOVE_OFF * 2;

   1402  9 000140   000000 235000 xsym               LDA     ZII_FIND1ST_MOVE_OFF
         9 000141   000001 735000                    ALS     1
         9 000142   000000 755000 xsym               STA     ZII_FIND1ST_MOVE_OFF

     1684     1403    2           IF FIELD.EIS_BITS.NDSC.S = '01'B THEN

   1403  9 000143   500005 236100                    LDQ     5,,PR5
         9 000144   030000 376007                    ANQ     12288,DL
         9 000145   010000 116007                    CMPQ    4096,DL
         9 000146   000153 601000 9                  TNZ     s:1406

     1685     1404    2               CALL ZII$FIND1ST_MOVE_4LS;

   1404  9 000147   000001 631400 10                 EPPR1   1
         9 000150   000000 701000 xent               TSX1    ZII$FIND1ST_MOVE_4LS
         9 000151   000000 011000                    NOP     0
         9 000152   000267 710000 9                  TRA     s:1447

     1686     1405    2           ELSE
     1687     1406    2               CALL ZII$FIND1ST_MOVE_4TS;

   1406  9 000153   000001 631400 10                 EPPR1   1
         9 000154   000000 701000 xent               TSX1    ZII$FIND1ST_MOVE_4TS
PL6.E3A0      #005=ZII$FIND_FIRST File=ZII$RET_LIB.:ZIC0TSI                      FRI 09/05/97 12:31 Page:264
         9 000155   000000 011000                    NOP     0
         9 000156   000267 710000 9                  TRA     s:1447

     1688     1407    2       CASE(#FDT_DISP_NUM,#FDT_DISP_NUM010,#FDT_DISP_NUM001);

     1689     1408    2           IF FIELD.FLAGS_2.BYT_NIB THEN

   1408  9 000157   500004 234100                    SZN     4,,PR5
         9 000160   000164 605000 9                  TPL     s:1410

     1690     1409    2               ZII_FIND1ST_MOVE_OFF = ZII_FIND1ST_MOVE_OFF / 2;

   1409  9 000161   000000 236000 xsym               LDQ     ZII_FIND1ST_MOVE_OFF
         9 000162   000001 772000                    QRL     1
         9 000163   000000 756000 xsym               STQ     ZII_FIND1ST_MOVE_OFF

     1691     1410    2           CALL ZII$FIND1ST_MOVE_9UN;

   1410  9 000164   000001 631400 10                 EPPR1   1
         9 000165   000000 701000 xent               TSX1    ZII$FIND1ST_MOVE_9UN
         9 000166   000000 011000                    NOP     0
         9 000167   000267 710000 9                  TRA     s:1447

     1692     1411    2       CASE(#FDT_DISP_NUM100);

     1693     1412    2           IF FIELD.FLAGS_2.BYT_NIB THEN

   1412  9 000170   500004 234100                    SZN     4,,PR5
         9 000171   000175 605000 9                  TPL     s:1414

     1694     1413    2               ZII_FIND1ST_MOVE_OFF = ZII_FIND1ST_MOVE_OFF / 2;

   1413  9 000172   000000 236000 xsym               LDQ     ZII_FIND1ST_MOVE_OFF
         9 000173   000001 772000                    QRL     1
         9 000174   000000 756000 xsym               STQ     ZII_FIND1ST_MOVE_OFF

     1695     1414    2           CALL ZII$FIND1ST_MOVE_9LS;
PL6.E3A0      #005=ZII$FIND_FIRST File=ZII$RET_LIB.:ZIC0TSI                      FRI 09/05/97 12:31 Page:265

   1414  9 000175   000001 631400 10                 EPPR1   1
         9 000176   000000 701000 xent               TSX1    ZII$FIND1ST_MOVE_9LS
         9 000177   000000 011000                    NOP     0
         9 000200   000267 710000 9                  TRA     s:1447

     1696     1415    2       CASE(#FDT_DISP_NUM011);

     1697     1416    2           IF FIELD.FLAGS_2.BYT_NIB THEN

   1416  9 000201   500004 234100                    SZN     4,,PR5
         9 000202   000206 605000 9                  TPL     s:1418

     1698     1417    2               ZII_FIND1ST_MOVE_OFF = ZII_FIND1ST_MOVE_OFF / 2;

   1417  9 000203   000000 236000 xsym               LDQ     ZII_FIND1ST_MOVE_OFF
         9 000204   000001 772000                    QRL     1
         9 000205   000000 756000 xsym               STQ     ZII_FIND1ST_MOVE_OFF

     1699     1418    2           CALL ZII$FIND1ST_MOVE_9TS;

   1418  9 000206   000001 631400 10                 EPPR1   1
         9 000207   000000 701000 xent               TSX1    ZII$FIND1ST_MOVE_9TS
         9 000210   000000 011000                    NOP     0
         9 000211   000267 710000 9                  TRA     s:1447

     1700     1419    2       CASE(#FDT_CMP1);

     1701     1420    2           ZII_FIND1ST_MOVE_LEN = 2;

   1420  9 000212   000002 235007                    LDA     2,DL
         9 000213   000000 755000 xsym               STA     ZII_FIND1ST_MOVE_LEN

     1702     1421    2           IF FIELD.FLAGS_2.BYT_NIB THEN

   1421  9 000214   500004 234100                    SZN     4,,PR5
         9 000215   000221 605000 9                  TPL     s:1423
PL6.E3A0      #005=ZII$FIND_FIRST File=ZII$RET_LIB.:ZIC0TSI                      FRI 09/05/97 12:31 Page:266

     1703     1422    2               ZII_FIND1ST_MOVE_OFF = ZII_FIND1ST_MOVE_OFF / 2;

   1422  9 000216   000000 236000 xsym               LDQ     ZII_FIND1ST_MOVE_OFF
         9 000217   000001 772000                    QRL     1
         9 000220   000000 756000 xsym               STQ     ZII_FIND1ST_MOVE_OFF

     1704     1423    2           CALL ZII$FIND1ST_MOVE_Z;

   1423  9 000221   000001 631400 10                 EPPR1   1
         9 000222   000000 701000 xent               TSX1    ZII$FIND1ST_MOVE_Z
         9 000223   000000 011000                    NOP     0
         9 000224   000267 710000 9                  TRA     s:1447

     1705     1424    2       CASE(#FDT_FLT_DOUBLE,#FDT_CMPLX_SINGLE);

     1706     1425    2           ZII_FIND1ST_MOVE_LEN = 8;

   1425  9 000225   000010 235007                    LDA     8,DL
         9 000226   000000 755000 xsym               STA     ZII_FIND1ST_MOVE_LEN

     1707     1426    2           IF FIELD.FLAGS_2.BYT_NIB THEN

   1426  9 000227   500004 234100                    SZN     4,,PR5
         9 000230   000234 605000 9                  TPL     s:1428

     1708     1427    2               ZII_FIND1ST_MOVE_OFF = ZII_FIND1ST_MOVE_OFF / 2;

   1427  9 000231   000000 236000 xsym               LDQ     ZII_FIND1ST_MOVE_OFF
         9 000232   000001 772000                    QRL     1
         9 000233   000000 756000 xsym               STQ     ZII_FIND1ST_MOVE_OFF

     1709     1428    2           CALL ZII$FIND1ST_MOVE_Z;

   1428  9 000234   000001 631400 10                 EPPR1   1
         9 000235   000000 701000 xent               TSX1    ZII$FIND1ST_MOVE_Z
         9 000236   000000 011000                    NOP     0
PL6.E3A0      #005=ZII$FIND_FIRST File=ZII$RET_LIB.:ZIC0TSI                      FRI 09/05/97 12:31 Page:267
         9 000237   000267 710000 9                  TRA     s:1447

     1710     1429    2       CASE(#FDT_CMPLX_DOUBLE);

     1711     1430    2           ZII_FIND1ST_MOVE_LEN = 16;

   1430  9 000240   000020 235007                    LDA     16,DL
         9 000241   000000 755000 xsym               STA     ZII_FIND1ST_MOVE_LEN

     1712     1431    2           IF FIELD.FLAGS_2.BYT_NIB THEN

   1431  9 000242   500004 234100                    SZN     4,,PR5
         9 000243   000247 605000 9                  TPL     s:1433

     1713     1432    2               ZII_FIND1ST_MOVE_OFF = ZII_FIND1ST_MOVE_OFF / 2;

   1432  9 000244   000000 236000 xsym               LDQ     ZII_FIND1ST_MOVE_OFF
         9 000245   000001 772000                    QRL     1
         9 000246   000000 756000 xsym               STQ     ZII_FIND1ST_MOVE_OFF

     1714     1433    2           CALL ZII$FIND1ST_MOVE_Z;

   1433  9 000247   000001 631400 10                 EPPR1   1
         9 000250   000000 701000 xent               TSX1    ZII$FIND1ST_MOVE_Z
         9 000251   000000 011000                    NOP     0
         9 000252   000267 710000 9                  TRA     s:1447

     1715     1434    2       CASE(#FDT_LOGICAL);

     1716     1435    2           ZII_FIND1ST_MOVE_LEN = 1;

   1435  9 000253   000001 235007                    LDA     1,DL
         9 000254   000000 755000 xsym               STA     ZII_FIND1ST_MOVE_LEN

     1717     1436    2           IF FIELD.FLAGS_2.BYT_NIB THEN

   1436  9 000255   500004 234100                    SZN     4,,PR5
PL6.E3A0      #005=ZII$FIND_FIRST File=ZII$RET_LIB.:ZIC0TSI                      FRI 09/05/97 12:31 Page:268
         9 000256   000262 605000 9                  TPL     s:1438

     1718     1437    2               ZII_FIND1ST_MOVE_OFF = ZII_FIND1ST_MOVE_OFF / 2;

   1437  9 000257   000000 236000 xsym               LDQ     ZII_FIND1ST_MOVE_OFF
         9 000260   000001 772000                    QRL     1
         9 000261   000000 756000 xsym               STQ     ZII_FIND1ST_MOVE_OFF

     1719     1438    2           CALL ZII$FIND1ST_MOVE_Z;

   1438  9 000262   000001 631400 10                 EPPR1   1
         9 000263   000000 701000 xent               TSX1    ZII$FIND1ST_MOVE_Z
         9 000264   000000 011000                    NOP     0
         9 000265   000267 710000 9                  TRA     s:1447

     1720     1439    2       CASE(ELSE);

     1721     1440    2           ALTRETURN;

   1440  9 000266   000000 702200 xent               TSX2  ! X66_AALT

     1722     1441    2           END; /* Do Case(FIELD.FLAGS_2.DATA_TYPE) */

     1723     1442         /*
     1724     1443            At this point an appropriate zero has been moved into the
     1725     1444            appropriate key item and I'm going to turn this all over to
     1726     1445            Mark Quinty.
     1727     1446         */
     1728     1447    1   END;

   1447  9 000267   000000 702200 xent               TSX2  ! X66_ARET

(unnamed)
 Sect OctLoc
  10     000   000000 006014   000000 000000                                    ........

PL6.E3A0      #005=ZII$FIND_FIRST File=ZII$RET_LIB.:ZIC0TSI                      FRI 09/05/97 12:31 Page:269
--  Include file information  --

   ZI$STRUCTS.:ZIC0TOU  is referenced.
   ZI$PATH_STRUCTS.:ZIC0TOU  is referenced.
   ZI$DESC.:ZIC0TOU  is referenced.
   B$JIT_C.:E05TOU  was found in the system file and is never referenced.
   CP_6_C.:E05TOU  was found in the system file and is never referenced.
      No diagnostics issued in procedure ZII$FIND_FIRST.

   Procedure ZII$FIND_FIRST requires 184 words for executable code.
   Procedure ZII$FIND_FIRST requires 8 words of local(AUTO) storage.

    No errors detected in file ZII$RET_LIB.:ZIC0TSI    .
PL6.E3A0      #005=ZII$FIND_FIRST File=ZII$RET_LIB.:ZIC0TSI                      FRI 09/05/97 12:31 Page:270
          *** CROSS REFERENCE LISTING ***
**     DENOTES     IDENTIFIER DEFINITION
<<                 IDENTIFIER'S VALUE SET
>>                 IDENTIFIER'S VALUE USED
<>                 IDENTIFIER SET AND/OR USED
--                 IDENTIFIER REFERENCED
PL6.E3A0      #005=ZII$FIND_FIRST File=ZII$RET_LIB.:ZIC0TSI                      FRI 09/05/97 12:31 Page:271
          MINI XREF LISTING

ACCESS_LIST
      1071**DCL         7--PROC
ACCESS_LIST.DIRECT
      1083**DCL      1085--REDEF    1092--REDEF
ACCESS_LIST.PORT
      1072**DCL      1363>>ASSIGN
ACCESS_LIST.PORT_KEY
      1074**DCL      1365>>IF
DESC#
      1146**DCL      1151--IMP-SIZ
DF$
      1228**DCL      1229--IMP-PTR  1366<<ASSIGN   1382>>ASSIGN   1383>>ASSIGN   1385>>DOCASE   1387>>ASSIGN
      1388>>IF       1393>>IF       1397>>IF       1401>>IF       1403>>IF       1408>>IF       1412>>IF
      1416>>IF       1421>>IF       1426>>IF       1431>>IF       1436>>IF
DO_THE_FIND_FIRST
      1373**LABEL    1367--GOTO
DR$
      1178**DCL      1179--IMP-PTR
DRFK$
      1212**DCL      1213--IMP-PTR  1363<<ASSIGN   1364>>DOWHILE  1365>>IF       1366>>ASSIGN   1369<<ASSIGN
      1369>>ASSIGN
FIELD.EIS_BITS.ADSC.N
      1337**DCL      1387>>ASSIGN
FIELD.EIS_BITS.NDSC
      1300**DCL      1329--REDEF
FIELD.EIS_BITS.NDSC.N
      1328**DCL      1383>>ASSIGN
FIELD.EIS_BITS.NDSC.S
      1319**DCL      1403>>IF
FIELD.FLAGS_2.BYT_NIB
      1270**DCL      1388>>IF       1393>>IF       1397>>IF       1401>>IF       1408>>IF       1412>>IF
      1416>>IF       1421>>IF       1426>>IF       1431>>IF       1436>>IF
PL6.E3A0      #005=ZII$FIND_FIRST File=ZII$RET_LIB.:ZIC0TSI                      FRI 09/05/97 12:31 Page:272
FIELD.FLAGS_2.DATA_TYPE
      1276**DCL      1385>>DOCASE
FIELD.FLAG_BITS_1
      1241**DCL      1242--REDEF
FIELD.FLAG_BITS_2
      1268**DCL      1269--REDEF
FIELD.UWA_OFF
      1232**DCL      1382>>ASSIGN
NAM1.DESC$
      1137**DCL      1363>>ASSIGN   1366>>ASSIGN
NAM1$
      1119**DCL      1122--IMP-PTR  1363>>ASSIGN   1366>>ASSIGN
NAM2.DESC
      1150**DCL      1151--REDEF
NAM2$
      1144**DCL      1147--IMP-PTR
RECORD.FLAG_BITS
      1183**DCL      1184--REDEF
RECORD.RFK_DSC$
      1208**DCL      1363>>ASSIGN
RFK_DSC.FLD$
      1224**DCL      1366>>ASSIGN
RFK_DSC.FLD_IDX
      1216**DCL      1366>>ASSIGN
RFK_DSC.KEY_IDX
      1215**DCL      1365>>IF
RFK_DSC.REC$
      1222**DCL      1369>>ASSIGN
UWA#
      1156**DCL      1174--IMP-SIZ
UWA$
      1154**DCL      1157--IMP-PTR  1381>>ASSIGN
ZII$FIND1ST_MOVE_4LS
      1345**DCL-ENT  1404--CALL
ZII$FIND1ST_MOVE_4TS
      1346**DCL-ENT  1406--CALL
PL6.E3A0      #005=ZII$FIND_FIRST File=ZII$RET_LIB.:ZIC0TSI                      FRI 09/05/97 12:31 Page:273
ZII$FIND1ST_MOVE_4UN
      1344**DCL-ENT  1399--CALL
ZII$FIND1ST_MOVE_9LS
      1348**DCL-ENT  1414--CALL
ZII$FIND1ST_MOVE_9TS
      1349**DCL-ENT  1418--CALL
ZII$FIND1ST_MOVE_9UN
      1347**DCL-ENT  1410--CALL
ZII$FIND1ST_MOVE_Z
      1343**DCL-ENT  1390--CALL     1395--CALL     1423--CALL     1428--CALL     1433--CALL     1438--CALL
ZII_FIND1ST_MOVE_LEN
      1353**DCL      1383<<ASSIGN   1387<<ASSIGN   1392<<ASSIGN   1420<<ASSIGN   1425<<ASSIGN   1430<<ASSIGN
      1435<<ASSIGN
ZII_FIND1ST_MOVE_OFF
      1352**DCL      1382<<ASSIGN   1389<<ASSIGN   1389>>ASSIGN   1394<<ASSIGN   1394>>ASSIGN   1398<<ASSIGN
      1398>>ASSIGN   1402<<ASSIGN   1402>>ASSIGN   1409<<ASSIGN   1409>>ASSIGN   1413<<ASSIGN   1413>>ASSIGN
      1417<<ASSIGN   1417>>ASSIGN   1422<<ASSIGN   1422>>ASSIGN   1427<<ASSIGN   1427>>ASSIGN   1432<<ASSIGN
      1432>>ASSIGN   1437<<ASSIGN   1437>>ASSIGN
ZII_FIND1ST_MOVE_PTR$
      1351**DCL      1381<<ASSIGN
