
PL6.E3A0      #001=ZII$SEGSZ File=ZII$SEGSZ.:ZIC0TSI                             FRI 09/05/97 12:32 Page:1
        1        1        /*M*           I-D-S/II              INTERFACE MODULE     */
        2        2        /*T***********************************************************/
        3        3        /*T*                                                         */
        4        4        /*T* Copyright (c) Bull HN Information Systems Inc., 1997    */
        5        5        /*T*                                                         */
        6        6        /*T***********************************************************/
        7        7        /*P*
        8        8            NAME: ZII$SEGSZ
        9        9            PURPOSE:
       10       10                   Called by IDP via ZII$BUILD_TABLES, APL at the execution of
       11       11                   the 'DBSUB' directive, and by BASIC at the execution of
       12       12                   the 'DB SUB' directive. Returns a value in words of
       13       13                   the amount of memory needed to build the tables for
       14       14        ZII$SEGSZ: PROC (SSNAME,SEG_SIZ,PROC_CALL,SCHNAME,LOCK_VAL,SYSSID,TRNDT) ALTRET AVOI
                14        D($PR5,$PR6,$PR7);
       15       15               INPUTS:
       16       16                   SSNAME = subschema name
       17       17                   PROC_CALL = tells what proccessor is calling the interface module
       18       18                   LOCK_VAL  = has the privacy lock for invoking the subschema
       19       19                   SYSSID  =  has an indentification of the user using this subschema
       20       20               OUTPUTS:
       21       21                   SEGSZ = number of words needed to build the required tables
       22       22                   SCHNAME = Schema name of the referenced subschema file
       23       23                   TRNDT  = Date of subschema translation
       24       24        ************************************************************/
       25       25        ZII$SEGSZ: PROC (SSNAME,SEG_SIZ,PROC_CALL,SCHNAME,LOCK_VAL,SYSSID,TRNDT) ALTRET;
       26       26        /******************  PARAMETERS  ******************/
       27       27    1   DCL SSNAME CHAR(30);
       28       28    1   DCL SEG_SIZ UBIN WORD;
       29       29    1   DCL PROC_CALL UBIN; /*Flags to tell which processor is calling me.Values are:
       30       30         1 = cobol
       31       31         2 = fortran
       32       32         3 = apl
       33       33         4 = idp */
       34       34    1   DCL SCHNAME CHAR(30);
       35       35    1   DCL LOCK_VAL CHAR(12);
       36       36    1   DCL SYSSID CHAR(32);
PL6.E3A0      #001=ZII$SEGSZ File=ZII$SEGSZ.:ZIC0TSI                             FRI 09/05/97 12:32 Page:2
       37       37    1   DCL TRNDT UBIN(36) ;
       38       38        /******************  AUTO DCLS   ******************/
       39       39    1   DCL INDX UBIN(36);
       40       40        /***************  EXT DCLS  ********************/
       41       41    1   DCL REC$ PTR EXT;
       42       42    1   DCL PRC_CAL UBIN(36) INIT(0) EXT;
       43       43    1   DCL 1 SUBSCH EXT,
       44       44    1         2 NAME,
       45       45    1           3 CNT UBIN(9) UNAL,
       46       46    1           3 TEXT CHAR(32) UNAL,
       47       47    1         2 DCB# UBIN(18) ALIGNED;
       48       48    1   DCL RVA_SIZ UBIN WORD INIT(0) EXT ALIGNED;
       49       49    1   DCL IA_SIZ UBIN(36) INIT(46) EXT ALIGNED;
       50       50    1   DCL 1 SUBSCH_CON_BLK EXT,
       51       51    1         2 * (0:63) UBIN(36) INIT(0*64) UNAL;
       52       52    1   DCL SUB_CONBLK$ PTR INIT(ADDR(SUBSCH_CON_BLK)) EXT;
       53       53    1   DCL 1 I_O_BUF EXT,
       54       54    1         2 REC (0:1) CHAR(128) UNAL;
       55       55    1   DCL I_O_IDX UBIN(36) INIT(0) EXT;
       56       56    1   DCL HASH_VAL UBIN(36) INIT(0) EXT;
       57       57    1   DCL SYS_ID CHAR(32) EXT;
       58       58    1   DCL 1 ERROR_CODE UBIN(36) EXT;
       59       59        /***************  INCLUDE FILES  ******************/
       60       60        %INCLUDE CP_6;
       61      141        %INCLUDE CP_6_SUBS;
       62      681        %FPT_GETDCB(FPTN=GETDCB_FPT);
       63      696        %FPT_OPEN(FPTN=OPEN_FPT,FUN=IN,ORG=CONSEC,ACS=SEQUEN,ASN=FILE,
       64      697         SETDCB=YES,SHARE=IN,SCRUB=YES);
       65      806        %FPT_OPEN(FPTN=RES_FPT,REASSIGN=YES,SETDCB=NO);
       66      915        %FPT_CLOSE(FPTN=CLOSE_FPT);
       67      957        %FPT_READ (FPTN=READ_FPT,BUF=I_O_BUF);
       68      996        %INCLUDE ZI_ERRORS_SUBS;
       69     1516        %INCLUDE ZI$STRUCTS;
       70     1588        %UWA1 (STCLASS="EXT");
       71     1611        %NAM1 (STCLASS="EXT");
       72     1640        %NAM2 (STCLASS="EXT");
       73     1654        %INCLUDE ZI_SUB_LANG;
PL6.E3A0      #001=ZII$SEGSZ File=ZII$SEGSZ.:ZIC0TSI                             FRI 09/05/97 12:32 Page:3
       74     3369        %INCLUDE ZI$DESC;
       75     4219        %PROC_SUBS;
       76     4226        %APL_KEYWD_LIST;
       77     4610        %CONTROL_BLOCK (STCLASS="BASED(SUB_CONBLK$)");
       78     4718        %COMPILATION_UNIT_REC (STCLASS="BASED(REC$)");
       79     4751        %INCLUDE ZI$TOP_STRUCTS;
       80     4812        %TBL_DIM_DESC;
       81     4817        /***************PROGRAM PROCEDURE******************/
       82     4818    1       ERROR_CODE=0; /*Initailize the error code upon 1st entering ZII$SEGSZ*/
       83     4819    1       I_O_IDX=2; /*Initialize these values for start*/
       84     4820    1       NAM1_IDX=-1; /*Initialize the NAM1 index*/
       85     4821    1       SUBSCH.NAME.TEXT=SSNAME;
       86     4822    1       CALL INDEX(INDX,' ',SUBSCH.NAME.TEXT);
              4822                /*Get number of characters in subschema name*/
       87     4823    1       SUBSCH.NAME.CNT=INDX;
       88     4824    1       IF SUBSCH.DCB#=0 OR PROC_CALL~=#IDP THEN
       89     4825    2       DO;
       90     4826    2           GETDCB_FPT.DCBNAME_=VECTOR(SUBSCH.NAME);
              4826                    /*Frame the textc field for a call to M$GETDCB */
       91     4827    2           CALL M$GETDCB(GETDCB_FPT) ALTRET(ER_GETDCB);
       92     4828    2           SUBSCH.DCB#=GETDCB_FPT.V.DCB#; /*Return the DCB# from call to M$GETDCB */
       93     4829    2           OPEN_FPT.V.DCB#=SUBSCH.DCB#;
       94     4830    2           OPEN_FPT.NAME_=VECTOR(SUBSCH);
              4830                    /*Put in the default file name for the subschema*/
       95     4831    2           CALL M$OPEN(OPEN_FPT) ALTRET(ER_OPEN);
              4831                    /*Open the subschema file update to get info*/
       96     4832    2           RES_FPT.V.DCB#=SUBSCH.DCB#;
       97     4833    2           CALL M$OPEN(RES_FPT) ALTRET(ER_OPEN);
       98     4834        /* Open to merge in user's set command if present. */
       99     4835    2           END;
      100     4836    1       READ_FPT.V.DCB#=SUBSCH.DCB#;
      101     4837    1       CALL M$READ(READ_FPT) ALTRET(ER_READ);
              4837                /*Read the control block of the subschema file*/
      102     4838    1       SUBSCH_CON_BLK=I_O_BUF; /*Move control block of subsch into a  temp area*/
      103     4839    1       SUB_CONBLK$=ADDR(SUBSCH_CON_BLK);
              4839                /*Set up ptr to over control blk with structure*/
      104     4840    1       TBL_DIM=CONTROL.NUM_RECORDS;
PL6.E3A0      #001=ZII$SEGSZ File=ZII$SEGSZ.:ZIC0TSI                             FRI 09/05/97 12:32 Page:4
      105     4841    1       IF CONTROL.VALIDATION_STATUS = -1 THEN
              4841                /*Subschema has not been validated  error */
      106     4842    1           GOTO ER_SUBSCH;
      107     4843    1       IF CONTROL.SUBSCHEMA_NAME ~= SSNAME THEN
              4843                /*Subsch name given doesn't match name in the subschema file*/
      108     4844    1           GOTO ER_SUBNAM;
      109     4845    1       IF PROC_CALL = #BASIC AND
      110     4846    1          CONTROL.LANGUAGE ~= 4 THEN
      111     4847    1           GOTO ER_LNG; /* not a BASIC subschema */
      112     4848    1       IF LOCK_VAL ~= CONTROL.INVOKE_PRIVACY_LOCK THEN GOTO ER_PRIV;
              4848                /*Test for invoking*/
      113     4849    1       PRC_CAL=PROC_CALL; /*Put in the proc type that called us */
      114     4850    1       UWA_SIZ=CONTROL.UWA_SIZE; /*Get the uwa size from the control block*/
      115     4851    1       NAM1_SIZ=(CONTROL.NUM_AREAS+CONTROL.NUM_RECORDS+CONTROL.NUM_FIELDS+CONTROL.
              4851                NUM_SETS
      116     4852    1          +CONTROL.NUM_DB_PARAM+CONTROL.NUM_LOCKS)*10;
      117     4853         /*Get the NAM1 table size from info in the con. blk*/
      118     4854    1       NAM2_SIZ=807+((CONTROL.NUM_AREAS+CONTROL.NUM_RECORDS+CONTROL.NUM_FIELDS+
      119     4855    1          CONTROL.NUM_SETS+CONTROL.NUM_REC_SET_REL+CONTROL.NUM_DB_PARAM+CONTROL.
              4855                   NUM_LOCKS
      120     4856    1          +CONTROL.NUM_REC_AREA_REL+CONTROL.NUM_FIELD_SET+CONTROL.NUM_SET_SET_DESC)*9);
      121     4857         /*Get NAM2 size for info in con. blk + 807 wrds of ptrs*/
      122     4858    1       IF PROC_CALL = #APL THEN /*Are we being called from APL ? */
      123     4859    2       DO; /*Yes.. add size to NAM1 & NAM2  for KEYWORDS */
      124     4860    2           NAM1_SIZ=NAM1_SIZ+(10*(#KEYWDS));
      125     4861    2           NAM2_SIZ=NAM2_SIZ+(9*(#KEYWDS));
      126     4862    2           END;
      127     4863    1       RVA_SIZ=2+CONTROL.NUM_AREAS+CONTROL.NUM_RECORDS+CONTROL.NUM_FIELDS+
      128     4864    1          CONTROL.NUM_SETS;
      129     4865         /*Get RVA size from con. blk +2 wrds for count & NULL element*/
      130     4866    1       IF PROC_CALL ~= #IDP THEN /*Are we being called from IDP ? */
      131     4867         /*NO     Add up all table sizes for SEG_SIZ*/
      132     4868    1           SEG_SIZ = UWA_SIZ+RVA_SIZ+IA_SIZ+NAM1_SIZ+NAM2_SIZ;
      133     4869         /*YES  .. Add all tables except UWA for SEG_SIZ */
      134     4870    1       ELSE SEG_SIZ = RVA_SIZ+IA_SIZ+NAM1_SIZ+NAM2_SIZ;
      135     4871    1       SCHNAME=CONTROL.SCHEMA_NAME; /*Put in  schema name */
      136     4872    1       TRNDT=CONTROL.SUBSCHEMA_UTS;
PL6.E3A0      #001=ZII$SEGSZ File=ZII$SEGSZ.:ZIC0TSI                             FRI 09/05/97 12:32 Page:5
      137     4873    1       SYS_ID = SYSSID;
      138     4874    1   CLSE_UP:
      139     4875    1       CLOSE_FPT.V.DCB#=SUBSCH.DCB#; /*Close the subschema file*/
      140     4876    1       CALL M$CLOSE(CLOSE_FPT) ALTRET(ER_CLOSE);
      141     4877    1   RET:
      142     4878    1       RETURN;
      143     4879    1   ER_OPEN:
      144     4880        /**************************************************************/
      145     4881        /*
      146     4882              ERROR: ZII-#OPNER-C
      147     4883        MESSAGE: Cannot open the subschema file %U1.
      148     4884        */
      149     4885        /**********************************************************/
      150     4886    1       ERROR_CODE=#OPNER;
      151     4887    1       GOTO COM_ERR;
      152     4888    1   ER_GETDCB:
      153     4889        /**********************************************************/
      154     4890        /*E*
      155     4891              ERROR: ZII-#GETDCBER-C
      156     4892        MESSAGE: Error on GETDCB for subschema %U1.
      157     4893        */
      158     4894        /**********************************************************/
      159     4895    1       ERROR_CODE=#GETDCBER;
      160     4896    1       GOTO COM_ERR;
      161     4897    1   ER_READ: ;
      162     4898    1       GOTO COM_ERR;
      163     4899    1   ER_SUBSCH:
      164     4900        /*********************************************************/
      165     4901        /*E*
      166     4902             ERROR: ZII-#BADSUB-C
      167     4903        MESSAGE: Subschema %U1 is not a valid subschema.
      168     4904        */
      169     4905        /********************************************************/
      170     4906    1       ERROR_CODE=#BADSUB;
      171     4907    1       GOTO COM_ERR;
      172     4908    1   ER_SUBNAM:
      173     4909        /*****************************************************************/
PL6.E3A0      #001=ZII$SEGSZ File=ZII$SEGSZ.:ZIC0TSI                             FRI 09/05/97 12:32 Page:6
      174     4910        /*E*
      175     4911            ERROR: ZII-#BADSUBNAM-C
      176     4912        MESSAGE: Subschema name on directive does not  match the name in the
      177     4913                       subschema file opened %U1.
      178     4914        */
      179     4915        /********************************************************************/
      180     4916    1       ERROR_CODE = #BADSUBNAM;
      181     4917    1       GOTO COM_ERR;
      182     4918    1   ER_LNG:
      183     4919        /*********************************************************/
      184     4920        /*E*
      185     4921             ERROR: ZII-#BADLNG-C
      186     4922        MESSAGE: Subschema %U1 is not an APL subschema.
      187     4923        */
      188     4924        /********************************************************/
      189     4925    1       ERROR_CODE=#BADLNG; /* BASIC writes its own msg for this */
      190     4926    1       GOTO COM_ERR;
      191     4927    1   ER_PRIV:
      192     4928        /************************************************************/
      193     4929        /*E*
      194     4930        ERROR:  ZII-#BADPRIV-C
      195     4931                MESSAGE: Privacy checks have not been passed for invoking the subschema %U1.
      196     4932        */
      197     4933        /***********************************************************/
      198     4934    1       ERROR_CODE=#BADPRIV;
      199     4935    1       GOTO COM_ERR;
      200     4936    1   ER_CLOSE:
      201     4937        /************************************************************/
      202     4938        /*
      203     4939        ERROR:  ZII-#CLOSE_ER-C
      204     4940                  MESSAGE: Error in closing the subschema file.
      205     4941        */
      206     4942        /***********************************************************/
      207     4943    1       ERROR_CODE=#CLOSE_ER;
      208     4944    1       GOTO COM_ERR;
      209     4945    1   COM_ERR:
      210     4946    1       CLOSE_FPT.V.DCB#=SUBSCH.DCB#;
PL6.E3A0      #001=ZII$SEGSZ File=ZII$SEGSZ.:ZIC0TSI                             FRI 09/05/97 12:32 Page:7
      211     4947    1       CALL M$CLOSE(CLOSE_FPT);
      212     4948    1       ALTRETURN;
      213     4949    1   END ZII$SEGSZ;

PL6.E3A0      #001=ZII$SEGSZ File=ZII$SEGSZ.:ZIC0TSI                             FRI 09/05/97 12:32 Page:8
--  Include file information  --

   ZI$TOP_STRUCTS.:ZIC0TOU  is referenced.
   ZI$DESC.:ZIC0TOU  is referenced.
   ZI_SUB_LANG.:ZIC0TOU  is referenced.
   ZI$STRUCTS.:ZIC0TOU  is referenced.
   ZI_ERRORS_SUBS.:ZIC0TOU  is referenced.
   CP_6_SUBS.:LIB_E05  is referenced.
   CP_6.:LIB_E05  cannot be made into a system file and is referenced.
   B$JIT_C.:E05TOU  was found in the system file and is never referenced.
   CP_6_C.:E05TOU  was found in the system file and is referenced.
      No diagnostics issued in procedure ZII$SEGSZ.

   Procedure ZII$SEGSZ requires 181 words for executable code.
   Procedure ZII$SEGSZ requires 12 words of local(AUTO) storage.

    No errors detected in file ZII$SEGSZ.:ZIC0TSI    .

PL6.E3A0      #001=ZII$SEGSZ File=ZII$SEGSZ.:ZIC0TSI                             FRI 09/05/97 12:32 Page:9

 Object Unit name= ZII$SEGSZ                                  File name= ZII$SEGSZ.:ZIC0TOU
 UTS= SEP 05 '97 12:32:00.56 FRI                              Compiler= PL-6/E31         Sev=      00
 SharedLib= :SHARED_SYSTEM                                    Alt SharedLib=


    ****  Control sections  ****

 Sect   Type Bound  Init  Size OctSiz  Section name(segment info)
    0  LblCom even  none     1      1  REC$
    1  LblCom even  none     1      1  PRC_CAL
    2  LblCom even  none    10     12  SUBSCH
    3  LblCom even  none     1      1  RVA_SIZ
    4  LblCom even  none     1      1  IA_SIZ
    5  LblCom even  none    64    100  SUBSCH_CON_BLK
    6  LblCom even  none     1      1  SUB_CONBLK$
    7  LblCom even  none    64    100  I_O_BUF
    8  LblCom even  none     1      1  I_O_IDX
    9  LblCom even  none     1      1  HASH_VAL
   10  LblCom even  none     8     10  SYS_ID
   11  LblCom even  none     1      1  ERROR_CODE
   12   DCB   even  none     0      0  M$UC
   13   Data  even  none   168    250  ZII$SEGSZ
   14  LblCom even  none     1      1  UWA$
   15  LblCom even  none     1      1  UWA_SIZ
   16  LblCom even  none     1      1  UWA#
   17  LblCom even  none     1      1  NAM1$
   18  LblCom even  none     1      1  NAM1_SIZ
   19  LblCom even  none     1      1  NAM1_IDX
   20  LblCom even  none     1      1  NAM2$
   21  LblCom even  none     1      1  NAM2_SIZ
   22  LblCom even  none     1      1  DESC#
   23  RoData even  UTS    450    702  ZII$SEGSZ
   24  LblCom even  none     1      1  TBL_DIM
   25   Proc  even  none   181    265  ZII$SEGSZ
   26  RoData even  none     7      7  ZII$SEGSZ
PL6.E3A0      #001=ZII$SEGSZ File=ZII$SEGSZ.:ZIC0TSI                             FRI 09/05/97 12:32 Page:10

    ****  Entry defs  ****

                              Check   Calling
                             calling  sequence
  Sect OctLoc Primary Altret sequence   type   Parms  Name
    25      0   yes    yes     yes      Std        7  ZII$SEGSZ

  ****  Entry refs  ****

         Check        Calling
        calling       sequence
Altret sequence SRef   type   Args  Name
                       nStd      0 X66_AUTO_N
                       nStd      0 X66_ARET
                       nStd      0 X66_AALT

  ****  Data refs  ****

  Flags:  r = read only, s = secondary
Flgs Name                             Flgs Name                             Flgs Name
     M$UC

  ****  Segment refs  ****

  Flags:  r = read only, s = secondary
Flgs Name                             Flgs Name                             Flgs Name
     ISSID                                 NULLSID
PL6.E3A0      #001=ZII$SEGSZ File=ZII$SEGSZ.:ZIC0TSI                             FRI 09/05/97 12:32 Page:11


        1        1        /*M*           I-D-S/II              INTERFACE MODULE     */
        2        2        /*T***********************************************************/
        3        3        /*T*                                                         */
        4        4        /*T* Copyright (c) Bull HN Information Systems Inc., 1997    */
        5        5        /*T*                                                         */
        6        6        /*T***********************************************************/
        7        7        /*P*
        8        8            NAME: ZII$SEGSZ
        9        9            PURPOSE:
       10       10                   Called by IDP via ZII$BUILD_TABLES, APL at the execution of
       11       11                   the 'DBSUB' directive, and by BASIC at the execution of
       12       12                   the 'DB SUB' directive. Returns a value in words of
       13       13                   the amount of memory needed to build the tables for
       14       14       ZII$SEGSZ: PROC (SSNAME,SEG_SIZ,PROC_CALL,SCHNAME,LOCK_VAL,SYSSID,TRNDT) ALTRET AVOI
                14        D($PR5,$PR6,$PR7);
       15       15               INPUTS:
       16       16                   SSNAME = subschema name
       17       17                   PROC_CALL = tells what proccessor is calling the interface module
       18       18                   LOCK_VAL  = has the privacy lock for invoking the subschema
       19       19                   SYSSID  =  has an indentification of the user using this subschema
       20       20               OUTPUTS:
       21       21                   SEGSZ = number of words needed to build the required tables
       22       22                   SCHNAME = Schema name of the referenced subschema file
       23       23                   TRNDT  = Date of subschema translation
       24       24        ************************************************************/
       25       25        ZII$SEGSZ: PROC (SSNAME,SEG_SIZ,PROC_CALL,SCHNAME,LOCK_VAL,SYSSID,TRNDT) ALTRET;

     25 25 000000   000000 700200 xent  ZII$SEGSZ    TSX0  ! X66_AUTO_N
        25 000001   000014 000007                    ZERO    12,7

       26       26        /******************  PARAMETERS  ******************/
       27       27    1   DCL SSNAME CHAR(30);
       28       28    1   DCL SEG_SIZ UBIN WORD;
       29       29    1   DCL PROC_CALL UBIN; /*Flags to tell which processor is calling me.Values are:
       30       30         1 = cobol
       31       31         2 = fortran
PL6.E3A0      #001=ZII$SEGSZ File=ZII$SEGSZ.:ZIC0TSI                             FRI 09/05/97 12:32 Page:12
       32       32         3 = apl
       33       33         4 = idp */
       34       34    1   DCL SCHNAME CHAR(30);
       35       35    1   DCL LOCK_VAL CHAR(12);
       36       36    1   DCL SYSSID CHAR(32);
       37       37    1   DCL TRNDT UBIN(36) ;
       38       38        /******************  AUTO DCLS   ******************/
       39       39    1   DCL INDX UBIN(36);
       40       40        /***************  EXT DCLS  ********************/
       41       41    1   DCL REC$ PTR EXT;
       42       42    1   DCL PRC_CAL UBIN(36) INIT(0) EXT;
       43       43    1   DCL 1 SUBSCH EXT,
       44       44    1         2 NAME,
       45       45    1           3 CNT UBIN(9) UNAL,
       46       46    1           3 TEXT CHAR(32) UNAL,
       47       47    1         2 DCB# UBIN(18) ALIGNED;
       48       48    1   DCL RVA_SIZ UBIN WORD INIT(0) EXT ALIGNED;
       49       49    1   DCL IA_SIZ UBIN(36) INIT(46) EXT ALIGNED;
       50       50    1   DCL 1 SUBSCH_CON_BLK EXT,
       51       51    1         2 * (0:63) UBIN(36) INIT(0*64) UNAL;
       52       52    1   DCL SUB_CONBLK$ PTR INIT(ADDR(SUBSCH_CON_BLK)) EXT;
       53       53    1   DCL 1 I_O_BUF EXT,
       54       54    1         2 REC (0:1) CHAR(128) UNAL;
       55       55    1   DCL I_O_IDX UBIN(36) INIT(0) EXT;
       56       56    1   DCL HASH_VAL UBIN(36) INIT(0) EXT;
       57       57    1   DCL SYS_ID CHAR(32) EXT;
       58       58    1   DCL 1 ERROR_CODE UBIN(36) EXT;
       59       59        /***************  INCLUDE FILES  ******************/
       60       60        %INCLUDE CP_6;
       61      141        %INCLUDE CP_6_SUBS;
       62      681        %FPT_GETDCB(FPTN=GETDCB_FPT);
       63      696        %FPT_OPEN(FPTN=OPEN_FPT,FUN=IN,ORG=CONSEC,ACS=SEQUEN,ASN=FILE,
       64      697         SETDCB=YES,SHARE=IN,SCRUB=YES);
       65      806        %FPT_OPEN(FPTN=RES_FPT,REASSIGN=YES,SETDCB=NO);
       66      915        %FPT_CLOSE(FPTN=CLOSE_FPT);
       67      957        %FPT_READ (FPTN=READ_FPT,BUF=I_O_BUF);
       68      996        %INCLUDE ZI_ERRORS_SUBS;
PL6.E3A0      #001=ZII$SEGSZ File=ZII$SEGSZ.:ZIC0TSI                             FRI 09/05/97 12:32 Page:13
       69     1516        %INCLUDE ZI$STRUCTS;
       70     1588        %UWA1 (STCLASS="EXT");
       71     1611        %NAM1 (STCLASS="EXT");
       72     1640        %NAM2 (STCLASS="EXT");
       73     1654        %INCLUDE ZI_SUB_LANG;
       74     3369        %INCLUDE ZI$DESC;
       75     4219        %PROC_SUBS;
       76     4226        %APL_KEYWD_LIST;
       77     4610        %CONTROL_BLOCK (STCLASS="BASED(SUB_CONBLK$)");
       78     4718        %COMPILATION_UNIT_REC (STCLASS="BASED(REC$)");
       79     4751        %INCLUDE ZI$TOP_STRUCTS;
       80     4812        %TBL_DIM_DESC;
       81     4817        /***************PROGRAM PROCEDURE******************/
       82     4818    1       ERROR_CODE=0; /*Initailize the error code upon 1st entering ZII$SEGSZ*/

   4818 25 000002   000000 450000 11                 STZ     ERROR_CODE

       83     4819    1       I_O_IDX=2; /*Initialize these values for start*/

   4819 25 000003   000002 235007                    LDA     2,DL
        25 000004   000000 755000 8                  STA     I_O_IDX

       84     4820    1       NAM1_IDX=-1; /*Initialize the NAM1 index*/

   4820 25 000005   000001 336007                    LCQ     1,DL
        25 000006   000000 756000 19                 STQ     NAM1_IDX

       85     4821    1       SUBSCH.NAME.TEXT=SSNAME;

   4821 25 000007   200003 470500                    LDP0    @SSNAME,,AUTO
        25 000010   040000 100500                    MLR     fill='040'O
        25 000011   000000 000036                    ADSC9   0,,PR0                   cn=0,n=30
        25 000012   000000 200040 2                  ADSC9   SUBSCH                   cn=1,n=32

       86     4822    1       CALL INDEX(INDX,' ',SUBSCH.NAME.TEXT);
              4822                /*Get number of characters in subschema name*/

PL6.E3A0      #001=ZII$SEGSZ File=ZII$SEGSZ.:ZIC0TSI                             FRI 09/05/97 12:32 Page:14
   4822 25 000013   000000 124400                    SCM     mask='000'O
        25 000014   000000 200040 2                  ADSC9   SUBSCH                   cn=1,n=32
        25 000015   000000 000001 26                 ADSC9   0                        cn=0,n=1
        25 000016   200012 000100                    ARG     INDX,,AUTO

       87     4823    1       SUBSCH.NAME.CNT=INDX;

   4823 25 000017   200012 236100                    LDQ     INDX,,AUTO
        25 000020   000033 736000                    QLS     27
        25 000021   000000 552040 2                  STBQ    SUBSCH,'40'O

       88     4824    1       IF SUBSCH.DCB#=0 OR PROC_CALL~=#IDP THEN

   4824 25 000022   000011 220000 2                  LDX0    SUBSCH+9
        25 000023   000030 600000 25                 TZE     s:4826
        25 000024   200005 471500                    LDP1    @PROC_CALL,,AUTO
        25 000025   100000 235100                    LDA     0,,PR1
        25 000026   000004 115007                    CMPA    4,DL
        25 000027   000055 600000 25                 TZE     s:4836

       89     4825    2       DO;

       90     4826    2           GETDCB_FPT.DCBNAME_=VECTOR(SUBSCH.NAME);
              4826                    /*Frame the textc field for a call to M$GETDCB */

   4826 25 000030   000002 237000 26                 LDAQ    2
        25 000031   000002 757000 13                 STAQ    GETDCB_FPT+2

       91     4827    2           CALL M$GETDCB(GETDCB_FPT) ALTRET(ER_GETDCB);

   4827 25 000032   000000 630400 13                 EPPR0   GETDCB_FPT
        25 000033   460002 713400                    CLIMB   alt,+24578
        25 000034   401000 401760                    pmme    nvectors=3
        25 000035   000234 702000 25                 TSX2    ER_GETDCB

       92     4828    2           SUBSCH.DCB#=GETDCB_FPT.V.DCB#; /*Return the DCB# from call to M$GETDCB */

PL6.E3A0      #001=ZII$SEGSZ File=ZII$SEGSZ.:ZIC0TSI                             FRI 09/05/97 12:32 Page:15
   4828 25 000036   000006 220000 13                 LDX0    GETDCB_FPT+6
        25 000037   000011 740000 2                  STX0    SUBSCH+9

       93     4829    2           OPEN_FPT.V.DCB#=SUBSCH.DCB#;

   4829 25 000040   000054 740000 13                 STX0    OPEN_FPT+36

       94     4830    2           OPEN_FPT.NAME_=VECTOR(SUBSCH);
              4830                    /*Put in the default file name for the subschema*/

   4830 25 000041   000004 237000 26                 LDAQ    4
        25 000042   000016 757000 13                 STAQ    OPEN_FPT+6

       95     4831    2           CALL M$OPEN(OPEN_FPT) ALTRET(ER_OPEN);
              4831                    /*Open the subschema file update to get info*/

   4831 25 000043   000010 630400 13                 EPPR0   OPEN_FPT
        25 000044   450000 713400                    CLIMB   alt,open
        25 000045   410400 401760                    pmme    nvectors=18
        25 000046   000231 702000 25                 TSX2    ER_OPEN

       96     4832    2           RES_FPT.V.DCB#=SUBSCH.DCB#;

   4832 25 000047   000011 220000 2                  LDX0    SUBSCH+9
        25 000050   000146 740000 13                 STX0    RES_FPT+36

       97     4833    2           CALL M$OPEN(RES_FPT) ALTRET(ER_OPEN);

   4833 25 000051   000102 630400 13                 EPPR0   RES_FPT
        25 000052   450000 713400                    CLIMB   alt,open
        25 000053   410400 401760                    pmme    nvectors=18
        25 000054   000231 702000 25                 TSX2    ER_OPEN

       98     4834        /* Open to merge in user's set command if present. */
       99     4835    2           END;

      100     4836    1       READ_FPT.V.DCB#=SUBSCH.DCB#;
PL6.E3A0      #001=ZII$SEGSZ File=ZII$SEGSZ.:ZIC0TSI                             FRI 09/05/97 12:32 Page:16

   4836 25 000055   000011 220000 2                  LDX0    SUBSCH+9
        25 000056   000242 740000 13                 STX0    READ_FPT+8

      101     4837    1       CALL M$READ(READ_FPT) ALTRET(ER_READ);
              4837                /*Read the control block of the subschema file*/

   4837 25 000057   000232 630400 13                 EPPR0   READ_FPT
        25 000060   440000 713400                    CLIMB   alt,read
        25 000061   401400 401760                    pmme    nvectors=4
        25 000062   000237 702000 25                 TSX2    ER_READ

      102     4838    1       SUBSCH_CON_BLK=I_O_BUF; /*Move control block of subsch into a  temp area*/

   4838 25 000063   000000 100400                    MLR     fill='000'O
        25 000064   000000 000400 7                  ADSC9   I_O_BUF                  cn=0,n=256
        25 000065   000000 000400 5                  ADSC9   SUBSCH_CON_BLK           cn=0,n=256

      103     4839    1       SUB_CONBLK$=ADDR(SUBSCH_CON_BLK);
              4839                /*Set up ptr to over control blk with structure*/

   4839 25 000066   000001 236000 26                 LDQ     1
        25 000067   000000 756000 6                  STQ     SUB_CONBLK$

      104     4840    1       TBL_DIM=CONTROL.NUM_RECORDS;

   4840 25 000070   000000 470400 6                  LDP0    SUB_CONBLK$
        25 000071   000011 235100                    LDA     9,,PR0
        25 000072   000000 755000 24                 STA     TBL_DIM

      105     4841    1       IF CONTROL.VALIDATION_STATUS = -1 THEN
              4841                /*Subschema has not been validated  error */

   4841 25 000073   000000 235100                    LDA     0,,PR0
        25 000074   000006 115000 26                 CMPA    6
        25 000075   000240 600000 25                 TZE     ER_SUBSCH

PL6.E3A0      #001=ZII$SEGSZ File=ZII$SEGSZ.:ZIC0TSI                             FRI 09/05/97 12:32 Page:17
      106     4842    1           GOTO ER_SUBSCH;
      107     4843    1       IF CONTROL.SUBSCHEMA_NAME ~= SSNAME THEN
              4843                /*Subsch name given doesn't match name in the subschema file*/

   4843 25 000076   200003 471500                    LDP1    @SSNAME,,AUTO
        25 000077   040100 106500                    CMPC    fill='040'O
        25 000100   000030 000040                    ADSC9   24,,PR0                  cn=0,n=32
        25 000101   100000 000036                    ADSC9   0,,PR1                   cn=0,n=30
        25 000102   000243 601000 25                 TNZ     ER_SUBNAM

      108     4844    1           GOTO ER_SUBNAM;
      109     4845    1       IF PROC_CALL = #BASIC AND

   4845 25 000103   200005 473500                    LDP3    @PROC_CALL,,AUTO
        25 000104   300000 235100                    LDA     0,,PR3
        25 000105   000005 115007                    CMPA    5,DL
        25 000106   000112 601000 25                 TNZ     s:4848
        25 000107   000041 235100                    LDA     33,,PR0
        25 000110   000004 115007                    CMPA    4,DL
        25 000111   000246 601000 25                 TNZ     ER_LNG

      110     4846    1          CONTROL.LANGUAGE ~= 4 THEN
      111     4847    1           GOTO ER_LNG; /* not a BASIC subschema */
      112     4848    1       IF LOCK_VAL ~= CONTROL.INVOKE_PRIVACY_LOCK THEN GOTO ER_PRIV;
              4848                /*Test for invoking*/

   4848 25 000112   200007 474500                    LDP4    @LOCK_VAL,,AUTO
        25 000113   040100 106500                    CMPC    fill='040'O
        25 000114   400000 000014                    ADSC9   0,,PR4                   cn=0,n=12
        25 000115   000065 000014                    ADSC9   53,,PR0                  cn=0,n=12
        25 000116   000251 601000 25                 TNZ     ER_PRIV

      113     4849    1       PRC_CAL=PROC_CALL; /*Put in the proc type that called us */

   4849 25 000117   300000 235100                    LDA     0,,PR3
        25 000120   000000 755000 1                  STA     PRC_CAL

PL6.E3A0      #001=ZII$SEGSZ File=ZII$SEGSZ.:ZIC0TSI                             FRI 09/05/97 12:32 Page:18
      114     4850    1       UWA_SIZ=CONTROL.UWA_SIZE; /*Get the uwa size from the control block*/

   4850 25 000121   000004 235100                    LDA     4,,PR0
        25 000122   000000 755000 15                 STA     UWA_SIZ

      115     4851    1       NAM1_SIZ=(CONTROL.NUM_AREAS+CONTROL.NUM_RECORDS+CONTROL.NUM_FIELDS+CONTROL.
              4851                NUM_SETS

   4851 25 000123   000010 236100                    LDQ     8,,PR0
        25 000124   000011 036100                    ADLQ    9,,PR0
        25 000125   000012 036100                    ADLQ    10,,PR0
        25 000126   000013 036100                    ADLQ    11,,PR0
        25 000127   000015 036100                    ADLQ    13,,PR0
        25 000130   000016 036100                    ADLQ    14,,PR0
        25 000131   000012 402007                    MPY     10,DL
        25 000132   000000 756000 18                 STQ     NAM1_SIZ

      116     4852    1          +CONTROL.NUM_DB_PARAM+CONTROL.NUM_LOCKS)*10;
      117     4853         /*Get the NAM1 table size from info in the con. blk*/
      118     4854    1       NAM2_SIZ=807+((CONTROL.NUM_AREAS+CONTROL.NUM_RECORDS+CONTROL.NUM_FIELDS+

   4854 25 000133   000010 236100                    LDQ     8,,PR0
        25 000134   000011 036100                    ADLQ    9,,PR0
        25 000135   000012 036100                    ADLQ    10,,PR0
        25 000136   000013 036100                    ADLQ    11,,PR0
        25 000137   000014 036100                    ADLQ    12,,PR0
        25 000140   000015 036100                    ADLQ    13,,PR0
        25 000141   000016 036100                    ADLQ    14,,PR0
        25 000142   000017 036100                    ADLQ    15,,PR0
        25 000143   000002 036100                    ADLQ    2,,PR0
        25 000144   000057 036100                    ADLQ    47,,PR0
        25 000145   000011 402007                    MPY     9,DL
        25 000146   001447 036007                    ADLQ    807,DL
        25 000147   000000 756000 21                 STQ     NAM2_SIZ

      119     4855    1          CONTROL.NUM_SETS+CONTROL.NUM_REC_SET_REL+CONTROL.NUM_DB_PARAM+CONTROL.
              4855                   NUM_LOCKS
PL6.E3A0      #001=ZII$SEGSZ File=ZII$SEGSZ.:ZIC0TSI                             FRI 09/05/97 12:32 Page:19
      120     4856    1         +CONTROL.NUM_REC_AREA_REL+CONTROL.NUM_FIELD_SET+CONTROL.NUM_SET_SET_DESC)*9);
      121     4857         /*Get NAM2 size for info in con. blk + 807 wrds of ptrs*/
      122     4858    1       IF PROC_CALL = #APL THEN /*Are we being called from APL ? */

   4858 25 000150   300000 235100                    LDA     0,,PR3
        25 000151   000003 115007                    CMPA    3,DL
        25 000152   000160 601000 25                 TNZ     s:4863

      123     4859    2       DO; /*Yes.. add size to NAM1 & NAM2  for KEYWORDS */

      124     4860    2           NAM1_SIZ=NAM1_SIZ+(10*(#KEYWDS));

   4860 25 000153   000000 235000 18                 LDA     NAM1_SIZ
        25 000154   000702 035007                    ADLA    450,DL
        25 000155   000000 755000 18                 STA     NAM1_SIZ

      125     4861    2           NAM2_SIZ=NAM2_SIZ+(9*(#KEYWDS));

   4861 25 000156   000625 036007                    ADLQ    405,DL
        25 000157   000000 756000 21                 STQ     NAM2_SIZ

      126     4862    2           END;

      127     4863    1       RVA_SIZ=2+CONTROL.NUM_AREAS+CONTROL.NUM_RECORDS+CONTROL.NUM_FIELDS+

   4863 25 000160   000010 236100                    LDQ     8,,PR0
        25 000161   000011 036100                    ADLQ    9,,PR0
        25 000162   000012 036100                    ADLQ    10,,PR0
        25 000163   000013 036100                    ADLQ    11,,PR0
        25 000164   000002 036007                    ADLQ    2,DL
        25 000165   000000 756000 3                  STQ     RVA_SIZ

      128     4864    1          CONTROL.NUM_SETS;
      129     4865         /*Get RVA size from con. blk +2 wrds for count & NULL element*/
      130     4866    1       IF PROC_CALL ~= #IDP THEN /*Are we being called from IDP ? */

   4866 25 000166   300000 235100                    LDA     0,,PR3
PL6.E3A0      #001=ZII$SEGSZ File=ZII$SEGSZ.:ZIC0TSI                             FRI 09/05/97 12:32 Page:20
        25 000167   000004 115007                    CMPA    4,DL
        25 000170   000200 600000 25                 TZE     s:4870

      131     4867         /*NO     Add up all table sizes for SEG_SIZ*/
      132     4868    1           SEG_SIZ = UWA_SIZ+RVA_SIZ+IA_SIZ+NAM1_SIZ+NAM2_SIZ;

   4868 25 000171   000000 036000 15                 ADLQ    UWA_SIZ
        25 000172   000000 036000 4                  ADLQ    IA_SIZ
        25 000173   000000 036000 18                 ADLQ    NAM1_SIZ
        25 000174   000000 036000 21                 ADLQ    NAM2_SIZ
        25 000175   200004 475500                    LDP5    @SEG_SIZ,,AUTO
        25 000176   500000 756100                    STQ     0,,PR5
        25 000177   000205 710000 25                 TRA     s:4871

      133     4869         /*YES  .. Add all tables except UWA for SEG_SIZ */
      134     4870    1       ELSE SEG_SIZ = RVA_SIZ+IA_SIZ+NAM1_SIZ+NAM2_SIZ;

   4870 25 000200   000000 036000 4                  ADLQ    IA_SIZ
        25 000201   000000 036000 18                 ADLQ    NAM1_SIZ
        25 000202   000000 036000 21                 ADLQ    NAM2_SIZ
        25 000203   200004 475500                    LDP5    @SEG_SIZ,,AUTO
        25 000204   500000 756100                    STQ     0,,PR5

      135     4871    1       SCHNAME=CONTROL.SCHEMA_NAME; /*Put in  schema name */

   4871 25 000205   000000 470400 6                  LDP0    SUB_CONBLK$
        25 000206   200006 476500                    LDP6    @SCHNAME,,AUTO
        25 000207   040100 100500                    MLR     fill='040'O
        25 000210   000020 000036                    ADSC9   16,,PR0                  cn=0,n=30
        25 000211   600000 000036                    ADSC9   0,,PR6                   cn=0,n=30

      136     4872    1       TRNDT=CONTROL.SUBSCHEMA_UTS;

   4872 25 000212   000000 470400 6                  LDP0    SUB_CONBLK$
        25 000213   200011 477500                    LDP7    @TRNDT,,AUTO
        25 000214   000053 235100                    LDA     43,,PR0
        25 000215   700000 755100                    STA     0,,PR7
PL6.E3A0      #001=ZII$SEGSZ File=ZII$SEGSZ.:ZIC0TSI                             FRI 09/05/97 12:32 Page:21

      137     4873    1       SYS_ID = SYSSID;

   4873 25 000216   200010 470500                    LDP0    @SYSSID,,AUTO
        25 000217   040000 100500                    MLR     fill='040'O
        25 000220   000000 000040                    ADSC9   0,,PR0                   cn=0,n=32
        25 000221   000000 000040 10                 ADSC9   SYS_ID                   cn=0,n=32

      138     4874    1   CLSE_UP:
      139     4875    1       CLOSE_FPT.V.DCB#=SUBSCH.DCB#; /*Close the subschema file*/

   4875 25 000222   000011 220000 2     CLSE_UP      LDX0    SUBSCH+9
        25 000223   000226 740000 13                 STX0    CLOSE_FPT+26

      140     4876    1       CALL M$CLOSE(CLOSE_FPT) ALTRET(ER_CLOSE);

   4876 25 000224   000174 630400 13                 EPPR0   CLOSE_FPT
        25 000225   450001 713400                    CLIMB   alt,close
        25 000226   406000 401760                    pmme    nvectors=13
        25 000227   000254 702000 25                 TSX2    ER_CLOSE

      141     4877    1   RET:
      142     4878    1       RETURN;

   4878 25 000230   000000 702200 xent  RET          TSX2  ! X66_ARET

      143     4879    1   ER_OPEN:
      144     4880        /**************************************************************/
      145     4881        /*
      146     4882              ERROR: ZII-#OPNER-C
      147     4883        MESSAGE: Cannot open the subschema file %U1.
      148     4884        */
      149     4885        /**********************************************************/
      150     4886    1       ERROR_CODE=#OPNER;

   4886 25 000231   011612 235007       ER_OPEN      LDA     5002,DL
        25 000232   000000 755000 11                 STA     ERROR_CODE
PL6.E3A0      #001=ZII$SEGSZ File=ZII$SEGSZ.:ZIC0TSI                             FRI 09/05/97 12:32 Page:22

      151     4887    1       GOTO COM_ERR;

   4887 25 000233   000257 710000 25                 TRA     COM_ERR

      152     4888    1   ER_GETDCB:
      153     4889        /**********************************************************/
      154     4890        /*E*
      155     4891              ERROR: ZII-#GETDCBER-C
      156     4892        MESSAGE: Error on GETDCB for subschema %U1.
      157     4893        */
      158     4894        /**********************************************************/
      159     4895    1       ERROR_CODE=#GETDCBER;

   4895 25 000234   011613 235007       ER_GETDCB    LDA     5003,DL
        25 000235   000000 755000 11                 STA     ERROR_CODE

      160     4896    1       GOTO COM_ERR;

   4896 25 000236   000257 710000 25                 TRA     COM_ERR

   4873 25 000237                       ER_READ      null
      161     4897    1   ER_READ: ;
      162     4898    1       GOTO COM_ERR;

   4898 25 000237   000257 710000 25                 TRA     COM_ERR

      163     4899    1   ER_SUBSCH:
      164     4900        /*********************************************************/
      165     4901        /*E*
      166     4902             ERROR: ZII-#BADSUB-C
      167     4903        MESSAGE: Subschema %U1 is not a valid subschema.
      168     4904        */
      169     4905        /********************************************************/
      170     4906    1       ERROR_CODE=#BADSUB;

   4906 25 000240   011617 235007       ER_SUBSCH    LDA     5007,DL
PL6.E3A0      #001=ZII$SEGSZ File=ZII$SEGSZ.:ZIC0TSI                             FRI 09/05/97 12:32 Page:23
        25 000241   000000 755000 11                 STA     ERROR_CODE

      171     4907    1       GOTO COM_ERR;

   4907 25 000242   000257 710000 25                 TRA     COM_ERR

      172     4908    1   ER_SUBNAM:
      173     4909        /*****************************************************************/
      174     4910        /*E*
      175     4911            ERROR: ZII-#BADSUBNAM-C
      176     4912        MESSAGE: Subschema name on directive does not  match the name in the
      177     4913                       subschema file opened %U1.
      178     4914        */
      179     4915        /********************************************************************/
      180     4916    1       ERROR_CODE = #BADSUBNAM;

   4916 25 000243   011622 235007       ER_SUBNAM    LDA     5010,DL
        25 000244   000000 755000 11                 STA     ERROR_CODE

      181     4917    1       GOTO COM_ERR;

   4917 25 000245   000257 710000 25                 TRA     COM_ERR

      182     4918    1   ER_LNG:
      183     4919        /*********************************************************/
      184     4920        /*E*
      185     4921             ERROR: ZII-#BADLNG-C
      186     4922        MESSAGE: Subschema %U1 is not an APL subschema.
      187     4923        */
      188     4924        /********************************************************/
      189     4925    1       ERROR_CODE=#BADLNG; /* BASIC writes its own msg for this */

   4925 25 000246   011616 235007       ER_LNG       LDA     5006,DL
        25 000247   000000 755000 11                 STA     ERROR_CODE

      190     4926    1       GOTO COM_ERR;

PL6.E3A0      #001=ZII$SEGSZ File=ZII$SEGSZ.:ZIC0TSI                             FRI 09/05/97 12:32 Page:24
   4926 25 000250   000257 710000 25                 TRA     COM_ERR

      191     4927    1   ER_PRIV:
      192     4928        /************************************************************/
      193     4929        /*E*
      194     4930        ERROR:  ZII-#BADPRIV-C
      195     4931               MESSAGE: Privacy checks have not been passed for invoking the subschema %U1.
      196     4932        */
      197     4933        /***********************************************************/
      198     4934    1       ERROR_CODE=#BADPRIV;

   4934 25 000251   011620 235007       ER_PRIV      LDA     5008,DL
        25 000252   000000 755000 11                 STA     ERROR_CODE

      199     4935    1       GOTO COM_ERR;

   4935 25 000253   000257 710000 25                 TRA     COM_ERR

      200     4936    1   ER_CLOSE:
      201     4937        /************************************************************/
      202     4938        /*
      203     4939        ERROR:  ZII-#CLOSE_ER-C
      204     4940                  MESSAGE: Error in closing the subschema file.
      205     4941        */
      206     4942        /***********************************************************/
      207     4943    1       ERROR_CODE=#CLOSE_ER;

   4943 25 000254   011623 235007       ER_CLOSE     LDA     5011,DL
        25 000255   000000 755000 11                 STA     ERROR_CODE

      208     4944    1       GOTO COM_ERR;

   4944 25 000256   000257 710000 25                 TRA     COM_ERR

      209     4945    1   COM_ERR:
      210     4946    1       CLOSE_FPT.V.DCB#=SUBSCH.DCB#;

PL6.E3A0      #001=ZII$SEGSZ File=ZII$SEGSZ.:ZIC0TSI                             FRI 09/05/97 12:32 Page:25
   4946 25 000257   000011 220000 2     COM_ERR      LDX0    SUBSCH+9
        25 000260   000226 740000 13                 STX0    CLOSE_FPT+26

      211     4947    1       CALL M$CLOSE(CLOSE_FPT);

   4947 25 000261   000174 630400 13                 EPPR0   CLOSE_FPT
        25 000262   050001 713400                    CLIMB   close
        25 000263   406000 401760                    pmme    nvectors=13

      212     4948    1       ALTRETURN;

   4948 25 000264   000000 702200 xent               TSX2  ! X66_AALT

PRC_CAL
 Sect OctLoc
   1     000   000000 000000                                                    ....

SUBSCH
 Sect OctLoc
   2     000   ****** ******   ****** ******   ****** ******   ****** ******    ................

RVA_SIZ
 Sect OctLoc
   3     000   000000 000000                                                    ....

IA_SIZ
 Sect OctLoc
   4     000   000000 000056                                                    ....

SUBSCH_CON_BLK
 Sect OctLoc
   5     000   000000 000000   000000 000000   000000 000000   000000 000000    ................
   5     074*  000000 000000   000000 000000   000000 000000   000000 000000    ................

SUB_CONBLK$
 Sect OctLoc
   6     000   000000 006000                                                    ....
PL6.E3A0      #001=ZII$SEGSZ File=ZII$SEGSZ.:ZIC0TSI                             FRI 09/05/97 12:32 Page:26

I_O_BUF
 Sect OctLoc
   7     000   ****** ******   ****** ******   ****** ******   ****** ******    ................

I_O_IDX
 Sect OctLoc
   8     000   000000 000000                                                    ....

HASH_VAL
 Sect OctLoc
   9     000   000000 000000                                                    ....

SYS_ID
 Sect OctLoc
  10     000   ****** ******   ****** ******   ****** ******   ****** ******    ................

GETDCB_FPT
 Sect OctLoc
  13     000   000001 777640   000006 006000   000000 177640   000000 006014    ................
  13     004   000000 177640   000000 006014   000000 000000   000000 000000    ................

OPEN_FPT
 Sect OctLoc
  13     010   000025 777640   000054 006000   000000 177640   000000 006014    .....,..........
  13     014   000000 177640   000000 006014   000000 177640   000000 006014    ................
  13     054*  000000 500062   000000 002001   252525 001001   000040 252520    ...2......... ..
  13     060   000040 040040   000000 000000   000000 777777   000000 000000    .   ............
  13     064   000000 000000   000000 000000   000000 000000   000000 000000    ................
  13     070   251000 622000   000000 000000   000000 000000   111250 000000    ............I...
  13     074   040040 040040   000000 000000   000000 000000   000000 000000        ............
  13     100   000000 000000   ****** ******                                    ........

RES_FPT
 Sect OctLoc
  13     102   000025 777640   000146 006000   000000 177640   000000 006014    .....f..........
  13     106   000000 177640   000000 006014   000000 177640   000000 006014    ................
PL6.E3A0      #001=ZII$SEGSZ File=ZII$SEGSZ.:ZIC0TSI                             FRI 09/05/97 12:32 Page:27
  13     146*  000000 200042   000000 000000   252525 000000   000040 252520    ..."......... ..
  13     152   000040 040040   000000 000000   000000 777777   000000 000000    .   ............
  13     156   000000 000000   000000 000000   000000 000000   000000 000000    ................
  13     162   251000 622000   000000 000000   000000 000000   111250 000000    ............I...
  13     166   040040 040040   000000 000000   000000 000000   000000 000000        ............
  13     172   000000 000000   ****** ******                                    ........

CLOSE_FPT
 Sect OctLoc
  13     174   000003 777640   000226 006000   000000 177640   000000 006014    ................
  13     200   000000 177640   000000 006014   000000 177640   000000 006014    ................
  13     224*  000000 177640   000000 006014   000000 000000   000000 000040    ...............
  13     230   000220 000000   000000 000000                                    ........

READ_FPT
 Sect OctLoc
  13     232   000005 777640   000242 006000   000000 177640   000000 006014    ................
  13     236   000077 777640   000000 006000   000000 177640   000000 006014    .?..............
  13     242   000000 400000   000000 000000   000000 000000   000000 000000    ................
  13     246   000000 000000   000000 000000                                    ........

APL_KEYWDS
 Sect OctLoc
  23     000   007000 000003   101114 114040   040040 040040   040040 040040    ....ALL
  23     004   040040 040040   040040 040040   040040 040040   040040 040040
  23     010   040040 040040   000000 000006   007000 000003   101116 131040        ........ANY
  23     014   040040 040040   040040 040040   040040 040040   040040 040040
  23     020   040040 040040   040040 040040   040040 040040   000000 000007                ....
  23     024   007000 000010   122105 101114   115116 101115   105040 040040    ....REALMNAME
  23     030   040040 040040   040040 040040   040040 040040   040040 040040
  23     034   040040 040040   000000 000010   007000 000004   122105 101114        ........REAL
  23     040   115040 040040   040040 040040   040040 040040   040040 040040    M
  23     044   040040 040040   040040 040040   040040 040040   000000 000011                ....
  23     050   007000 000011   103125 122122   105116 103131   040040 040040    ....CURRENCY
  23     054   040040 040040   040040 040040   040040 040040   040040 040040
  23     060   040040 040040   000000 000012   007000 000010   103125 122122        ........CURR
  23     064   105116 124040   040040 040040   040040 040040   040040 040040    ENT
PL6.E3A0      #001=ZII$SEGSZ File=ZII$SEGSZ.:ZIC0TSI                             FRI 09/05/97 12:32 Page:28
  23     070   040040 040040   040040 040040   040040 040040   000000 000013                ....
  23     074   007000 000005   104102 113105   131040 040040   040040 040040    ....DBKEY
  23     100   040040 040040   040040 040040   040040 040040   040040 040040
  23     104   040040 040040   000000 000014   007000 000011   104125 120114        ........DUPL
  23     110   111103 101124   105040 040040   040040 040040   040040 040040    ICATE
  23     114   040040 040040   040040 040040   040040 040040   000000 000015                ....
  23     120   007000 000005   106111 122123   124040 040040   040040 040040    ....FIRST
  23     124   040040 040040   040040 040040   040040 040040   040040 040040
  23     130   040040 040040   000000 000016   007000 000011   111116 103114        ........INCL
  23     134   125104 111116   107040 040040   040040 040040   040040 040040    UDING
  23     140   040040 040040   040040 040040   040040 040040   000000 000017                ....
  23     144   007000 000004   111124 105115   040040 040040   040040 040040    ....ITEM
  23     150   040040 040040   040040 040040   040040 040040   040040 040040
  23     154   040040 040040   000000 000020   007000 000004   114101 123124        ........LAST
  23     160   040040 040040   040040 040040   040040 040040   040040 040040
  23     164   040040 040040   040040 040040   040040 040040   000000 000021                ....
  23     170   007000 000004   114117 101104   040040 040040   040040 040040    ....LOAD
  23     174   040040 040040   040040 040040   040040 040040   040040 040040
  23     200   040040 040040   000000 000022   007000 000004   116105 130124        ........NEXT
  23     204   040040 040040   040040 040040   040040 040040   040040 040040
  23     210   040040 040040   040040 040040   040040 040040   000000 000023                ....
  23     214   007000 000007   116117 123110   101122 105040   040040 040040    ....NOSHARE
  23     220   040040 040040   040040 040040   040040 040040   040040 040040
  23     224   040040 040040   000000 000024   007000 000004   117116 114131        ........ONLY
  23     230   040040 040040   040040 040040   040040 040040   040040 040040
  23     234   040040 040040   040040 040040   040040 040040   000000 000025                ....
  23     240   007000 000005   117127 116105   122040 040040   040040 040040    ....OWNER
  23     244   040040 040040   040040 040040   040040 040040   040040 040040
  23     250   040040 040040   000000 000026   007000 000005   120122 111117        ........PRIO
  23     254   122040 040040   040040 040040   040040 040040   040040 040040    R
  23     260   040040 040040   040040 040040   040040 040040   000000 000027                ....
  23     264   007000 000006   122105 103117   122104 040040   040040 040040    ....RECORD
  23     270   040040 040040   040040 040040   040040 040040   040040 040040
  23     274   040040 040040   000000 000030   007000 000011   122105 124122        ........RETR
  23     300   111105 126101   114040 040040   040040 040040   040040 040040    IEVAL
  23     304   040040 040040   040040 040040   040040 040040   000000 000031                ....
  23     310   007000 000003   123105 124040   040040 040040   040040 040040    ....SET
PL6.E3A0      #001=ZII$SEGSZ File=ZII$SEGSZ.:ZIC0TSI                             FRI 09/05/97 12:32 Page:29
  23     314   040040 040040   040040 040040   040040 040040   040040 040040
  23     320   040040 040040   000000 000032   007000 000004   123105 124123        ........SETS
  23     324   040040 040040   040040 040040   040040 040040   040040 040040
  23     330   040040 040040   040040 040040   040040 040040   000000 000033                ....
  23     334   007000 000010   123110 101122   105101 114114   040040 040040    ....SHAREALL
  23     340   040040 040040   040040 040040   040040 040040   040040 040040
  23     344   040040 040040   000000 000034   007000 000007   123110 101122        ........SHAR
  23     350   105111 116040   040040 040040   040040 040040   040040 040040    EIN
  23     354   040040 040040   040040 040040   040040 040040   000000 000036                ....
  23     360   007000 000006   125120 104101   124105 040040   040040 040040    ....UPDATE
  23     364   040040 040040   040040 040040   040040 040040   040040 040040
  23     370   040040 040040   000000 000037   007000 000005   125123 111116        ........USIN
  23     374   107040 040040   040040 040040   040040 040040   040040 040040    G
  23     400   040040 040040   040040 040040   040040 040040   000000 000040                ...
  23     404   007000 000006   127111 124110   111116 040040   040040 040040    ....WITHIN
  23     410   040040 040040   040040 040040   040040 040040   040040 040040
  23     414   040040 040040   000000 000041   007000 000003   106117 122040        ...!....FOR
  23     420   040040 040040   040040 040040   040040 040040   040040 040040
  23     424   040040 040040   040040 040040   040040 040040   000000 000042                ..."
  23     430   007000 000004   106122 117115   040040 040040   040040 040040    ....FROM
  23     434   040040 040040   040040 040040   040040 040040   040040 040040
  23     440   040040 040040   000000 000043   007000 000002   111123 040040        ...#....IS
  23     444   040040 040040   040040 040040   040040 040040   040040 040040
  23     450   040040 040040   040040 040040   040040 040040   000000 000044                ...$
  23     454   007000 000007   115105 115102   105122 123040   040040 040040    ....MEMBERS
  23     460   040040 040040   040040 040040   040040 040040   040040 040040
  23     464   040040 040040   000000 000045   007000 000012   115105 115102        ...%....MEMB
  23     470   105122 123110   111120 040040   040040 040040   040040 040040    ERSHIP
  23     474   040040 040040   040040 040040   040040 040040   000000 000046                ...&
  23     500   007000 000010   123110 101122   105101 116131   040040 040040    ....SHAREANY
  23     504   040040 040040   040040 040040   040040 040040   040040 040040
  23     510   040040 040040   000000 000035   007000 000002   124117 040040        ........TO
  23     514   040040 040040   040040 040040   040040 040040   040040 040040
  23     520   040040 040040   040040 040040   040040 040040   000000 000047                ...'
  23     524   007000 000005   125123 101107   105040 040040   040040 040040    ....USAGE
  23     530   040040 040040   040040 040040   040040 040040   040040 040040
  23     534   040040 040040   000000 000050   007000 000011   125123 101107        ...(....USAG
PL6.E3A0      #001=ZII$SEGSZ File=ZII$SEGSZ.:ZIC0TSI                             FRI 09/05/97 12:32 Page:30
  23     540   105115 117104   105040 040040   040040 040040   040040 040040    EMODE
  23     544   040040 040040   040040 040040   040040 040040   000000 000050                ...(
  23     550   007000 000007   103117 116116   105103 124040   040040 040040    ....CONNECT
  23     554   040040 040040   040040 040040   040040 040040   040040 040040
  23     560   040040 040040   000000 000051   007000 000012   104111 123103        ...)....DISC
  23     564   117116 116105   103124 040040   040040 040040   040040 040040    ONNECT
  23     570   040040 040040   040040 040040   040040 040040   000000 000052                ...*
  23     574   007000 000005   123124 117122   105040 040040   040040 040040    ....STORE
  23     600   040040 040040   040040 040040   040040 040040   040040 040040
  23     604   040040 040040   000000 000053   007000 000005   105122 101123        ...+....ERAS
  23     610   105040 040040   040040 040040   040040 040040   040040 040040    E
  23     614   040040 040040   040040 040040   040040 040040   000000 000054                ...,
  23     620   007000 000006   115117 104111   106131 040040   040040 040040    ....MODIFY
  23     624   040040 040040   040040 040040   040040 040040   040040 040040
  23     630   040040 040040   000000 000055   007000 000004   106111 116104        ...-....FIND
  23     634   040040 040040   040040 040040   040040 040040   040040 040040
  23     640   040040 040040   040040 040040   040040 040040   000000 000056                ....
  23     644   007000 000003   107105 124040   040040 040040   040040 040040    ....GET
  23     650   040040 040040   040040 040040   040040 040040   040040 040040
  23     654   040040 040040   000000 000057   007000 000010   123110 101122        .../....SHAR
  23     660   105103 125122   040040 040040   040040 040040   040040 040040    ECUR
  23     664   040040 040040   040040 040040   040040 040040   000000 000060                ...0
  23     670   007000 000012   123110 101122   105111 116103   125122 040040    ....SHAREINCUR
  23     674   040040 040040   040040 040040   040040 040040   040040 040040
  23     700   040040 040040   000000 000061                                        ...1

(unnamed)
 Sect OctLoc
  26     000   040040 040040   000000 006000   000010 177640   000000 006000        ............
  26     004   000011 777640   000000 006000   777777 777777                    ............
      213     4949    1   END ZII$SEGSZ;

PL6.E3A0      #001=ZII$SEGSZ File=ZII$SEGSZ.:ZIC0TSI                             FRI 09/05/97 12:32 Page:31
--  Include file information  --

   ZI$TOP_STRUCTS.:ZIC0TOU  is referenced.
   ZI$DESC.:ZIC0TOU  is referenced.
   ZI_SUB_LANG.:ZIC0TOU  is referenced.
   ZI$STRUCTS.:ZIC0TOU  is referenced.
   ZI_ERRORS_SUBS.:ZIC0TOU  is referenced.
   CP_6_SUBS.:LIB_E05  is referenced.
   CP_6.:LIB_E05  cannot be made into a system file and is referenced.
   B$JIT_C.:E05TOU  was found in the system file and is never referenced.
   CP_6_C.:E05TOU  was found in the system file and is referenced.
      No diagnostics issued in procedure ZII$SEGSZ.

   Procedure ZII$SEGSZ requires 181 words for executable code.
   Procedure ZII$SEGSZ requires 12 words of local(AUTO) storage.

    No errors detected in file ZII$SEGSZ.:ZIC0TSI    .
PL6.E3A0      #001=ZII$SEGSZ File=ZII$SEGSZ.:ZIC0TSI                             FRI 09/05/97 12:32 Page:32
          *** CROSS REFERENCE LISTING ***
**     DENOTES     IDENTIFIER DEFINITION
<<                 IDENTIFIER'S VALUE SET
>>                 IDENTIFIER'S VALUE USED
<>                 IDENTIFIER SET AND/OR USED
--                 IDENTIFIER REFERENCED
PL6.E3A0      #001=ZII$SEGSZ File=ZII$SEGSZ.:ZIC0TSI                             FRI 09/05/97 12:32 Page:33
          MINI XREF LISTING

APL_KEYWDS
      4285**DCL      4601--REDEF
CLOSE_FPT
       938**DCL      4876<>CALL     4947<>CALL
CLOSE_FPT.SN_
       938**DCL       938--REDEF
CLOSE_FPT.UTL_
       939**DCL       939--REDEF
CLOSE_FPT.V
       943**DCL       938--DCLINIT
CLOSE_FPT.V.DCB#
       944**DCL      4875<<ASSIGN   4946<<ASSIGN
CLOSE_FPT.V.EXPIRE#
       953**DCL       953--REDEF
CLOSE_FPT.V.TYPE#
       951**DCL       951--REDEF
CLOSE_FPT.V.XTNSIZE#
       948**DCL       948--REDEF     950--REDEF
COM_ERR
      4946**LABEL    4887--GOTO     4896--GOTO     4898--GOTO     4907--GOTO     4917--GOTO     4926--GOTO
      4935--GOTO     4944--GOTO
CONTROL.INVOKE_PRIVACY_LOCK
      4705**DCL      4848>>IF
CONTROL.LANGUAGE
      4693**DCL      4845>>IF
CONTROL.NUM_AREAS
      4682**DCL      4851>>ASSIGN   4854>>ASSIGN   4863>>ASSIGN
CONTROL.NUM_DB_PARAM
      4687**DCL      4851>>ASSIGN   4854>>ASSIGN
CONTROL.NUM_FIELDS
      4684**DCL      4851>>ASSIGN   4854>>ASSIGN   4863>>ASSIGN
CONTROL.NUM_FIELD_SET
PL6.E3A0      #001=ZII$SEGSZ File=ZII$SEGSZ.:ZIC0TSI                             FRI 09/05/97 12:32 Page:34
      4678**DCL      4854>>ASSIGN
CONTROL.NUM_LOCKS
      4688**DCL      4851>>ASSIGN   4854>>ASSIGN
CONTROL.NUM_RECORDS
      4683**DCL      4840>>ASSIGN   4851>>ASSIGN   4854>>ASSIGN   4863>>ASSIGN
CONTROL.NUM_REC_AREA_REL
      4689**DCL      4854>>ASSIGN
CONTROL.NUM_REC_SET_REL
      4686**DCL      4854>>ASSIGN
CONTROL.NUM_SETS
      4685**DCL      4851>>ASSIGN   4854>>ASSIGN   4863>>ASSIGN
CONTROL.NUM_SET_SET_DESC
      4703**DCL      4854>>ASSIGN
CONTROL.SCHEMA_NAME
      4690**DCL      4871>>ASSIGN
CONTROL.SUBSCHEMA_NAME
      4691**DCL      4843>>IF
CONTROL.SUBSCHEMA_UTS
      4699**DCL      4872>>ASSIGN
CONTROL.UWA_SIZE
      4680**DCL      4850>>ASSIGN
CONTROL.VALIDATION_STATUS
      4676**DCL      4841>>IF
DESC#
      1647**DCL      1652--IMP-SIZ
ERROR_CODE
        58**DCL      4818<<ASSIGN   4886<<ASSIGN   4895<<ASSIGN   4906<<ASSIGN   4916<<ASSIGN   4925<<ASSIGN
      4934<<ASSIGN   4943<<ASSIGN
ER_CLOSE
      4943**LABEL    4876--CALLALT
ER_GETDCB
      4895**LABEL    4827--CALLALT
ER_LNG
      4925**LABEL    4847--GOTO
ER_OPEN
      4886**LABEL    4831--CALLALT  4833--CALLALT
PL6.E3A0      #001=ZII$SEGSZ File=ZII$SEGSZ.:ZIC0TSI                             FRI 09/05/97 12:32 Page:35
ER_PRIV
      4934**LABEL    4848--GOTO
ER_READ
      4873**LABEL    4837--CALLALT
ER_SUBNAM
      4916**LABEL    4844--GOTO
ER_SUBSCH
      4906**LABEL    4842--GOTO
GETDCB_FPT
       692**DCL      4827<>CALL
GETDCB_FPT.DCBNAME_
       692**DCL      4826<<ASSIGN
GETDCB_FPT.V
       693**DCL       692--DCLINIT
GETDCB_FPT.V.DCB#
       693**DCL      4828>>ASSIGN
IA_SIZ
        49**DCL      4868>>ASSIGN   4870>>ASSIGN
INDX
        39**DCL      4822<<CALLBLT  4823>>ASSIGN
I_O_BUF
        53**DCL       976--DCLINIT   977--DCLINIT  4838>>ASSIGN
I_O_IDX
        55**DCL      4819<<ASSIGN
LOCK_VAL
        35**DCL        25--PROC     4848>>IF
M$CLOSE
        69**DCL-ENT  4876--CALL     4947--CALL
M$GETDCB
        75**DCL-ENT  4827--CALL
M$OPEN
        69**DCL-ENT  4831--CALL     4833--CALL
M$READ
        70**DCL-ENT  4837--CALL
NAM1$
      1620**DCL      1623--IMP-PTR
PL6.E3A0      #001=ZII$SEGSZ File=ZII$SEGSZ.:ZIC0TSI                             FRI 09/05/97 12:32 Page:36
NAM1_IDX
      1622**DCL      4820<<ASSIGN
NAM1_SIZ
      1621**DCL      4851<<ASSIGN   4860<<ASSIGN   4860>>ASSIGN   4868>>ASSIGN   4870>>ASSIGN
NAM2.DESC
      1651**DCL      1652--REDEF
NAM2$
      1645**DCL      1648--IMP-PTR
NAM2_SIZ
      1646**DCL      4854<<ASSIGN   4861<<ASSIGN   4861>>ASSIGN   4868>>ASSIGN   4870>>ASSIGN
OPEN_FPT
       762**DCL      4831<>CALL
OPEN_FPT.ACSVEH_
       764**DCL       765--REDEF
OPEN_FPT.ALTKEYS_
       770**DCL       771--REDEF     771--REDEF
OPEN_FPT.HDR_
       769**DCL       770--REDEF
OPEN_FPT.NAME_
       763**DCL      4830<<ASSIGN
OPEN_FPT.TAB_
       768**DCL       769--REDEF
OPEN_FPT.UHL_
       762**DCL       763--REDEF     763--REDEF
OPEN_FPT.V
       771**DCL       762--DCLINIT
OPEN_FPT.V.DCB#
       771**DCL      4829<<ASSIGN
OPEN_FPT.V.FSN#
       802**DCL       802--REDEF     802--REDEF
OPEN_FPT.WSN_
       768**DCL       768--REDEF
PRC_CAL
        42**DCL      4849<<ASSIGN
PROC_CALL
        29**DCL        25--PROC     4824>>IF       4845>>IF       4849>>ASSIGN   4858>>IF       4866>>IF
PL6.E3A0      #001=ZII$SEGSZ File=ZII$SEGSZ.:ZIC0TSI                             FRI 09/05/97 12:32 Page:37
READ_FPT
       974**DCL      4837<>CALL
READ_FPT.STATION_
       977**DCL       978--REDEF
READ_FPT.V
       978**DCL       974--DCLINIT
READ_FPT.V.DCB#
       978**DCL      4836<<ASSIGN
READ_FPT.V.DVBYTE.REREAD#
       989**DCL       989--REDEF
READ_FPT.V.INDX#
       987**DCL       987--REDEF
REC$
        41**DCL      4739--IMP-PTR
RES_FPT
       871**DCL      4833<>CALL
RES_FPT.ACSVEH_
       873**DCL       874--REDEF
RES_FPT.ALTKEYS_
       879**DCL       880--REDEF     880--REDEF
RES_FPT.HDR_
       878**DCL       879--REDEF
RES_FPT.TAB_
       877**DCL       878--REDEF
RES_FPT.UHL_
       871**DCL       872--REDEF     872--REDEF
RES_FPT.V
       880**DCL       871--DCLINIT
RES_FPT.V.DCB#
       880**DCL      4832<<ASSIGN
RES_FPT.V.FSN#
       911**DCL       911--REDEF     911--REDEF
RES_FPT.WSN_
       877**DCL       877--REDEF
RVA_SIZ
        48**DCL      4863<<ASSIGN   4868>>ASSIGN   4870>>ASSIGN
PL6.E3A0      #001=ZII$SEGSZ File=ZII$SEGSZ.:ZIC0TSI                             FRI 09/05/97 12:32 Page:38
SCHNAME
        34**DCL        25--PROC     4871<<ASSIGN
SEG_SIZ
        28**DCL        25--PROC     4868<<ASSIGN   4870<<ASSIGN
SSNAME
        27**DCL        25--PROC     4821>>ASSIGN   4843>>IF
SUBSCH
        43**DCL      4830--ASSIGN
SUBSCH.DCB#
        47**DCL      4824>>IF       4828<<ASSIGN   4829>>ASSIGN   4832>>ASSIGN   4836>>ASSIGN   4875>>ASSIGN
      4946>>ASSIGN
SUBSCH.NAME
        44**DCL      4826--ASSIGN
SUBSCH.NAME.CNT
        45**DCL      4823<<ASSIGN
SUBSCH.NAME.TEXT
        46**DCL      4821<<ASSIGN   4822>>CALLBLT
SUBSCH_CON_BLK
        50**DCL        52--DCLINIT  4838<<ASSIGN   4839--ASSIGN
SUB_CONBLK$
        52**DCL      4675--IMP-PTR  4839<<ASSIGN   4840>>ASSIGN   4841>>IF       4843>>IF       4845>>IF
      4848>>IF       4850>>ASSIGN   4851>>ASSIGN   4851>>ASSIGN   4851>>ASSIGN   4851>>ASSIGN   4851>>ASSIGN
      4851>>ASSIGN   4854>>ASSIGN   4854>>ASSIGN   4854>>ASSIGN   4854>>ASSIGN   4854>>ASSIGN   4854>>ASSIGN
      4854>>ASSIGN   4854>>ASSIGN   4854>>ASSIGN   4854>>ASSIGN   4863>>ASSIGN   4863>>ASSIGN   4863>>ASSIGN
      4863>>ASSIGN   4871>>ASSIGN   4872>>ASSIGN
SYSSID
        36**DCL        25--PROC     4873>>ASSIGN
SYS_ID
        57**DCL      4873<<ASSIGN
TBL_DIM
      4813**DCL      4840<<ASSIGN
TRNDT
        37**DCL        25--PROC     4872<<ASSIGN
UWA#
      1591**DCL      1609--IMP-SIZ
UWA$
PL6.E3A0      #001=ZII$SEGSZ File=ZII$SEGSZ.:ZIC0TSI                             FRI 09/05/97 12:32 Page:39
      1589**DCL      1592--IMP-PTR
UWA_SIZ
      1590**DCL      4850<<ASSIGN   4868>>ASSIGN
