PL6.E3A0      #002=ZII$BUILD_TABLES File=ZII$TOP_LIB.:ZIC0TSI                    FRI 09/05/97 12:33 Page:249
     1748        1        /*T***********************************************************/
     1749        2        /*T*                                                         */
     1750        3        /*T* Copyright (c) Bull HN Information Systems Inc., 1997    */
     1751        4        /*T*                                                         */
     1752        5        /*T***********************************************************/
     1753        6        ZII$BUILD_TABLES: PROC (SCHNAM,SSCHNAM,LOCK_VALUE,STATUS_CODE);
     1754        7    1   DCL MEM_ND UBIN(36) STATIC ALIGNED;
     1755        8    1   DCL MEMORY_NEEDED UBIN AUTO;
     1756        9    1   DCL MEMORY_FRAME UBIN(36) EXTROOT;
     1757       10    1   DCL MUPT_ BIT(72) INIT('0'B) STATIC ALIGNED;
     1758       11    1   DCL LOCK_VALUE CHAR(12);
     1759       12    1   DCL STATUS_CODE UBIN(36);
     1760       13    1   DCL MMEM_ BIT(72) INIT('0'B) STATIC ALIGNED;
     1761       14    1   DCL ERROR_CODE UBIN(36) INIT(0) EXT;
     1762       15    1   DCL SCHNAM CHAR(32) ALIGNED;
     1763       16    1   DCL SSCHNAM CHAR(32) ALIGNED;
     1764       17    1   DCL HASH_VALUE UBIN(18) STATIC;
     1765       18    1   DCL B$JIT$ PTR SYMREF;
     1766       19    1   DCL SYSID CHAR(32) INIT(' ') STATIC;
     1767       20    1   DCL TRNDT CHAR(32) INIT(' ') STATIC;
     1768       21    1   DCL ZII$COMMON$ PTR EXTROOT;
     1769       22    1   DCL M UBIN AUTO;
     1770       23    1   DCL N UBIN AUTO;
     1771       24    1   DCL K UBIN AUTO;
     1772       25    1   DCL X UBIN AUTO;
     1773       26    1   DCL TEMP_ARG UBIN AUTO;
     1774       27    1   DCL TEMP_ARG1 UBIN AUTO;
     1775       28    1   DCL TEMP_ARG2 UBIN AUTO;
     1776       29        /**/
     1777       30    1   DCL ZII$FIND_IDX ENTRY(2);
     1778       31    1   DCL ZII$SEGSZ ENTRY(7) ALTRET;
     1779       32    1   DCL ZII$BLDNAM ENTRY(6) ALTRET;
     1780       33    1   DCL ZII$FIND_D2_IDX ENTRY(3);
     1781       34    1   DCL ZII$COMMON_MEMORY ENTRY(2) ALTRET;
     1782       35        /**/
     1783       36        %INCLUDE CP_6;
     1784      117        %INCLUDE CP_6_SUBS;
PL6.E3A0      #002=ZII$BUILD_TABLES File=ZII$TOP_LIB.:ZIC0TSI                    FRI 09/05/97 12:33 Page:250
     1785      657        %INCLUDE B$JIT;
     1786      947        %INCLUDE ZI$STRUCTS;
     1787     1019        %NAM1;
     1788     1048        %NAM2;
     1789     1062        %UWA1;
     1790     1085        %INCLUDE ZI$DESC;
     1791     1935        %PROC_SUBS;
     1792     1942        %DSC_AREA;
     1793     1964        %DSC_RFS;
     1794     2009        %DSC_FLD;
     1795     2124        %DSC_REC;
     1796     2158        %DSC_SET;
     1797     2200        %DSC_DESC;
     1798     2208        %TYPE_SUBS;
     1799     2218        /**/
     1800     2219        %INCLUDE ZI$TOP_STRUCTS;
     1801     2280        %D_DESC;
     1802     2289        %D2_DESC;
     1803     2296        %TBL_DIM_DESC;
     1804     2301        %INCLUDE ZI_IDPERR_SUBS;
     1805     2335        /**/
     1806     2336        %FPT_FDS(FPTN=FDS_FPT,COMMON=YES,RESULTS=RESULTSE);
     1807     2351        %VLP_VECTOR(FPTN=RESULTSE);
     1808     2366    1   DCL 1 SEGMENT_FRAME REDEF RESULTSE,
     1809     2367    1         2 COUNT UBIN HALF UNAL,
     1810     2368    1         2 * (0:2) UBIN HALF UNAL;
     1811     2369        %VLP_VECTOR(FPTN=NAM1_);
     1812     2384        %VLP_VECTOR(FPTN=NAM2_);
     1813     2399        %VLP_VECTOR(FPTN=IA_,STCLASS=EXTROOT);
     1814     2414        %VLP_VECTOR(FPTN=UWA_,STCLASS=EXTROOT);
     1815     2429        %VLP_VECTOR(FPTN=RVA_,STCLASS=EXTROOT);
     1816     2444        /**/
     1817     2445    1       STATUS_CODE=0;
     1818     2446    1       SYSID=B$JIT.UNAME;
     1819     2447    1       CALL ZII$SEGSZ(SSCHNAM,MEM_ND,#IDP,SCHNAM,LOCK_VALUE,SYSID,TRNDT) ALTRET(ER_SUBS
              2447                );
     1820     2448    1       FDS_FPT.V.SEGSIZE#=0;
PL6.E3A0      #002=ZII$BUILD_TABLES File=ZII$TOP_LIB.:ZIC0TSI                    FRI 09/05/97 12:33 Page:251
     1821     2449    1       CALL M$FDS(FDS_FPT) ALTRET(ER_FDS);
     1822     2450    1       IF SEGMENT_FRAME.COUNT>0 THEN
     1823     2451    2       DO;
     1824     2452    2           FDS_FPT.V.SEGSIZE#=SEGMENT_FRAME.COUNT;
     1825     2453    2           CALL M$FDS(FDS_FPT);
     1826     2454    2           END;
     1827     2455    1       MEMORY_NEEDED=MEM_ND;
     1828     2456    1       MEMORY_FRAME=0;
     1829     2457    1       CALL ZII$COMMON_MEMORY(MEMORY_NEEDED,RESULTSE) ALTRET(ER_GDS);
     1830     2458    1       CALL ZII$BLDNAM(RESULTSE,UWA_,RVA_,IA_,NAM1_,NAM2_) ALTRET(
     1831     2459    1          ER_SUBS);
     1832     2460    1       NAM1$=NAM1_.PTR$;
     1833     2461    1       NAM2$=NAM2_.PTR$;
     1834     2462    1       MEMORY_NEEDED = TBL_DIM * LENGTHW(D_TABLE(0));
     1835     2463    1       D_TBL$=PINCRW(RESULTSE.PTR$,MEMORY_FRAME);
     1836     2464    1       CALL ZII$COMMON_MEMORY(MEMORY_NEEDED,RESULTSE) ALTRET(ER_GDS);
     1837     2465    1       M=0;
     1838     2466    1       DA$=NAM1.DESC$(0);
     1839     2467    1       DR$=AREA.LREC$;
     1840     2468    2       DO WHILE (DR$~=ADDR(NIL));
     1841     2469    2           D_TABLE.REC_NO(M)=RECORD.NAM_IDX;
     1842     2470    2           DRFS$=RECORD.RFS_DSC$;
     1843     2471    3           DO WHILE(DRFS$~=ADDR(NIL));
     1844     2472    3               IF RFS_DSC.FLD_IDX=0 THEN
     1845     2473    4               DO;
     1846     2474    4                   IF RFS_DSC.OWN_MEM THEN
     1847     2475    4                       D_TABLE.IN_CLASS(M)=D_TABLE.IN_CLASS(M)+1;
     1848     2476    4                   ELSE
     1849     2477    4                       D_TABLE.OUT_CLASS(M)=D_TABLE.OUT_CLASS(M)+1;
     1850     2478    4                   END;
     1851     2479    3               DRFS$=RFS_DSC.REC$;
     1852     2480    3               END;
     1853     2481    2           DR$=RECORD.LREC$;
     1854     2482    2           M=M+1;
     1855     2483    2           END;
     1856     2484    1       IF TBL_DIM = 1 THEN
     1857     2485    1           MEMORY_NEEDED = 1;
PL6.E3A0      #002=ZII$BUILD_TABLES File=ZII$TOP_LIB.:ZIC0TSI                    FRI 09/05/97 12:33 Page:252
     1858     2486    1       ELSE
     1859     2487    2       DO;
     1860     2488    2           M=TBL_DIM - 1;
     1861     2489    2           N=TBL_DIM - 2;
     1862     2490    2           MEMORY_NEEDED=((((M*M)+M)-((2*M)-(2*N)))/2)+1;
     1863     2491    2           END;
     1864     2492    1       D2_TBL$=PINCRW(RESULTSE.PTR$,MEMORY_FRAME);
     1865     2493    1       CALL ZII$COMMON_MEMORY(MEMORY_NEEDED,RESULTSE) ALTRET(ER_GDS);
     1866     2494    1       ZII$COMMON$=PINCRW(RESULTSE.PTR$,MEMORY_FRAME);
     1867     2495    1       D2_TABLE='0'B;
     1868     2496    1       DA$=NAM1.DESC$(0);
     1869     2497    1       DS$=AREA.LSET$;
     1870     2498    2       DO WHILE (DS$~=ADDR(NIL));
     1871     2499    2           N=0;
     1872     2500    2           TEMP_ARG1=SET.OWNER_IDX;
     1873     2501    3           IF TEMP_ARG1 ~= 0 THEN DO;
     1874     2502    3               DRFS$=SET.RFS_DSC$;
     1875     2503    4               DO WHILE (DRFS$~=ADDR(NIL));
     1876     2504    4                   TEMP_ARG2=RFS_DSC.REC_IDX;
     1877     2505    4                   IF TEMP_ARG1~=TEMP_ARG2 THEN
     1878     2506    5                   DO;
     1879     2507    5                       CALL ZII$FIND_D2_IDX(TEMP_ARG1,TEMP_ARG2,X);
     1880     2508    5                       D2_TABLE.SET_IND(X)=SET.NAM_IDX;
     1881     2509    5                       END;
     1882     2510    4                   DRFS$=RFS_DSC.SET$;
     1883     2511    4                   END;
     1884     2512    3               END;
     1885     2513    2           DS$=SET.LSET$;
     1886     2514    2           END;
     1887     2515    1       RETURN;
     1888     2516    1   ER_SUBS:
     1889     2517    1       STATUS_CODE=ERROR_CODE;
     1890     2518    1       RETURN;
     1891     2519    1   ER_GDS:
     1892     2520    1       STATUS_CODE=%ZII_NO_MEMORY;
     1893     2521    1       RETURN;
     1894     2522    1   ER_FDS:
PL6.E3A0      #002=ZII$BUILD_TABLES File=ZII$TOP_LIB.:ZIC0TSI                    FRI 09/05/97 12:33 Page:253
     1895     2523    1       STATUS_CODE=%ZII_NO_MEMORY;
     1896     2524    1       RETURN;
     1897     2525    1   END ZII$BUILD_TABLES;
     1898     2526        %EOD;

PL6.E3A0      #002=ZII$BUILD_TABLES File=ZII$TOP_LIB.:ZIC0TSI                    FRI 09/05/97 12:33 Page:254
--  Include file information  --

   ZI_IDPERR_SUBS.:ZIC0TOU  is referenced.
   ZI$TOP_STRUCTS.:ZIC0TOU  is referenced.
   ZI$DESC.:ZIC0TOU  is referenced.
   ZI$STRUCTS.:ZIC0TOU  is referenced.
   B$JIT.:LIB_E05  cannot be made into a system file and is referenced.
   CP_6_SUBS.:LIB_E05  is referenced.
   CP_6.:LIB_E05  cannot be made into a system file and is referenced.
   B$JIT_C.:E05TOU  was found in the system file and is referenced.
   CP_6_C.:E05TOU  was found in the system file and is referenced.
      No diagnostics issued in procedure ZII$BUILD_TABLES.

   Procedure ZII$BUILD_TABLES requires 226 words for executable code.
   Procedure ZII$BUILD_TABLES requires 24 words of local(AUTO) storage.

PL6.E3A0      #002=ZII$BUILD_TABLES File=ZII$TOP_LIB.:ZIC0TSI                    FRI 09/05/97 12:33 Page:255

 Object Unit name= ZII$BUILD_TABLES                           File name= ZII$TOP_LIB.:ZIC0TOU
 UTS= SEP 05 '97 12:33:26.64 FRI                              Compiler= PL-6/E31         Sev=      00
 SharedLib= :SHARED_SYSTEM                                    Alt SharedLib=


    ****  Control sections  ****

 Sect   Type Bound  Init  Size OctSiz  Section name(segment info)
    0   Data  even  none    34     42  ZII$BUILD_TABLES
    1  RtLbCm even  none     1      1  MEMORY_FRAME
    2  LblCom even  none     1      1  ERROR_CODE
    3  RtLbCm even  none     1      1  ZII$COMMON$
    4   DCB   even  none     0      0  M$UC
    5  LblCom even  none     1      1  NAM1$
    6  LblCom even  none     1      1  NAM1_SIZ
    7  LblCom even  none     1      1  NAM1_IDX
    8  LblCom even  none     1      1  NAM2$
    9  LblCom even  none     1      1  NAM2_SIZ
   10  LblCom even  none     1      1  DESC#
   11  LblCom even  none     1      1  UWA$
   12  LblCom even  none     1      1  UWA_SIZ
   13  LblCom even  none     1      1  UWA#
   14  LblCom even  none     1      1  DA$
   15  LblCom even  none     1      1  DRFS$
   16  LblCom even  none     1      1  DF$
   17  LblCom even  none     1      1  DR$
   18  LblCom even  none     1      1  DS$
   19  LblCom even  none     1      1  DD$
   20  LblCom even  none     1      1  D_TBL$
   21  LblCom even  none     1      1  D2_TBL$
   22  LblCom even  none     1      1  TBL_DIM
   23  RtLbCm even  none     2      2  IA_
   24  RtLbCm even  none     2      2  UWA_
   25  RtLbCm even  none     2      2  RVA_
   26   Proc  even  none   226    342  ZII$BUILD_TABLES
   27  RoData even  none    18     22  ZII$BUILD_TABLES
PL6.E3A0      #002=ZII$BUILD_TABLES File=ZII$TOP_LIB.:ZIC0TSI                    FRI 09/05/97 12:33 Page:256

    ****  Entry defs  ****

                              Check   Calling
                             calling  sequence
  Sect OctLoc Primary Altret sequence   type   Parms  Name
    26      0   yes            yes      Std        4  ZII$BUILD_TABLES

  ****  Entry refs  ****

         Check        Calling
        calling       sequence
Altret sequence SRef   type   Args  Name
 yes     yes           Std       7 ZII$SEGSZ
 yes     yes           Std       6 ZII$BLDNAM
 yes     yes           Std       2 ZII$COMMON_MEMORY
         yes           Std       3 ZII$FIND_D2_IDX
                       nStd      0 X66_AUTO_4
                       nStd      0 X66_ARET

  ****  Data refs  ****

  Flags:  r = read only, s = secondary
Flgs Name                             Flgs Name                             Flgs Name
     B$JIT$                                M$UC

  ****  Segment refs  ****

  Flags:  r = read only, s = secondary
Flgs Name                             Flgs Name                             Flgs Name
     ISSID                                 NULLSID
PL6.E3A0      #002=ZII$BUILD_TABLES File=ZII$TOP_LIB.:ZIC0TSI                    FRI 09/05/97 12:33 Page:257


     1748        1        /*T***********************************************************/
     1749        2        /*T*                                                         */
     1750        3        /*T* Copyright (c) Bull HN Information Systems Inc., 1997    */
     1751        4        /*T*                                                         */
     1752        5        /*T***********************************************************/
     1753        6        ZII$BUILD_TABLES: PROC (SCHNAM,SSCHNAM,LOCK_VALUE,STATUS_CODE);

      6 26 000000   000000 700200 xent  ZII$BUILD_T* TSX0  ! X66_AUTO_4
        26 000001   000030 000004                    ZERO    24,4

     1754        7    1   DCL MEM_ND UBIN(36) STATIC ALIGNED;
     1755        8    1   DCL MEMORY_NEEDED UBIN AUTO;
     1756        9    1   DCL MEMORY_FRAME UBIN(36) EXTROOT;
     1757       10    1   DCL MUPT_ BIT(72) INIT('0'B) STATIC ALIGNED;
     1758       11    1   DCL LOCK_VALUE CHAR(12);
     1759       12    1   DCL STATUS_CODE UBIN(36);
     1760       13    1   DCL MMEM_ BIT(72) INIT('0'B) STATIC ALIGNED;
     1761       14    1   DCL ERROR_CODE UBIN(36) INIT(0) EXT;
     1762       15    1   DCL SCHNAM CHAR(32) ALIGNED;
     1763       16    1   DCL SSCHNAM CHAR(32) ALIGNED;
     1764       17    1   DCL HASH_VALUE UBIN(18) STATIC;
     1765       18    1   DCL B$JIT$ PTR SYMREF;
     1766       19    1   DCL SYSID CHAR(32) INIT(' ') STATIC;
     1767       20    1   DCL TRNDT CHAR(32) INIT(' ') STATIC;
     1768       21    1   DCL ZII$COMMON$ PTR EXTROOT;
     1769       22    1   DCL M UBIN AUTO;
     1770       23    1   DCL N UBIN AUTO;
     1771       24    1   DCL K UBIN AUTO;
     1772       25    1   DCL X UBIN AUTO;
     1773       26    1   DCL TEMP_ARG UBIN AUTO;
     1774       27    1   DCL TEMP_ARG1 UBIN AUTO;
     1775       28    1   DCL TEMP_ARG2 UBIN AUTO;
     1776       29        /**/
     1777       30    1   DCL ZII$FIND_IDX ENTRY(2);
     1778       31    1   DCL ZII$SEGSZ ENTRY(7) ALTRET;
     1779       32    1   DCL ZII$BLDNAM ENTRY(6) ALTRET;
PL6.E3A0      #002=ZII$BUILD_TABLES File=ZII$TOP_LIB.:ZIC0TSI                    FRI 09/05/97 12:33 Page:258
     1780       33    1   DCL ZII$FIND_D2_IDX ENTRY(3);
     1781       34    1   DCL ZII$COMMON_MEMORY ENTRY(2) ALTRET;
     1782       35        /**/
     1783       36        %INCLUDE CP_6;
     1784      117        %INCLUDE CP_6_SUBS;
     1785      657        %INCLUDE B$JIT;
     1786      947        %INCLUDE ZI$STRUCTS;
     1787     1019        %NAM1;
     1788     1048        %NAM2;
     1789     1062        %UWA1;
     1790     1085        %INCLUDE ZI$DESC;
     1791     1935        %PROC_SUBS;
     1792     1942        %DSC_AREA;
     1793     1964        %DSC_RFS;
     1794     2009        %DSC_FLD;
     1795     2124        %DSC_REC;
     1796     2158        %DSC_SET;
     1797     2200        %DSC_DESC;
     1798     2208        %TYPE_SUBS;
     1799     2218        /**/
     1800     2219        %INCLUDE ZI$TOP_STRUCTS;
     1801     2280        %D_DESC;
     1802     2289        %D2_DESC;
     1803     2296        %TBL_DIM_DESC;
     1804     2301        %INCLUDE ZI_IDPERR_SUBS;
     1805     2335        /**/
     1806     2336        %FPT_FDS(FPTN=FDS_FPT,COMMON=YES,RESULTS=RESULTSE);
     1807     2351        %VLP_VECTOR(FPTN=RESULTSE);
     1808     2366    1   DCL 1 SEGMENT_FRAME REDEF RESULTSE,
     1809     2367    1         2 COUNT UBIN HALF UNAL,
     1810     2368    1         2 * (0:2) UBIN HALF UNAL;
     1811     2369        %VLP_VECTOR(FPTN=NAM1_);
     1812     2384        %VLP_VECTOR(FPTN=NAM2_);
     1813     2399        %VLP_VECTOR(FPTN=IA_,STCLASS=EXTROOT);
     1814     2414        %VLP_VECTOR(FPTN=UWA_,STCLASS=EXTROOT);
     1815     2429        %VLP_VECTOR(FPTN=RVA_,STCLASS=EXTROOT);
     1816     2444        /**/
PL6.E3A0      #002=ZII$BUILD_TABLES File=ZII$TOP_LIB.:ZIC0TSI                    FRI 09/05/97 12:33 Page:259
     1817     2445    1       STATUS_CODE=0;

   2445 26 000002   200006 470500                    LDP0    @STATUS_CODE,,AUTO
        26 000003   000000 450100                    STZ     0,,PR0

     1818     2446    1       SYSID=B$JIT.UNAME;

   2446 26 000004   000000 471400 xsym               LDP1    B$JIT$
        26 000005   040000 100500                    MLR     fill='040'O
        26 000006   100003 000014                    ADSC9   3,,PR1                   cn=0,n=12
        26 000007   000006 000040 0                  ADSC9   SYSID                    cn=0,n=32

     1819     2447    1      CALL ZII$SEGSZ(SSCHNAM,MEM_ND,#IDP,SCHNAM,LOCK_VALUE,SYSID,TRNDT) ALTRET(ER_SUBS
              2447                );

   2447 26 000010   000002 236000 27                 LDQ     2
        26 000011   200026 756100                    STQ     TEMP_ARG2+8,,AUTO
        26 000012   000003 236000 27                 LDQ     3
        26 000013   200005 235100                    LDA     @LOCK_VALUE,,AUTO
        26 000014   200024 757100                    STAQ    TEMP_ARG2+6,,AUTO
        26 000015   200003 236100                    LDQ     @SCHNAM,,AUTO
        26 000016   000004 235000 27                 LDA     4
        26 000017   200022 757100                    STAQ    TEMP_ARG2+4,,AUTO
        26 000020   000005 236000 27                 LDQ     5
        26 000021   200004 235100                    LDA     @SSCHNAM,,AUTO
        26 000022   200020 757100                    STAQ    TEMP_ARG2+2,,AUTO
        26 000023   200020 630500                    EPPR0   TEMP_ARG2+2,,AUTO
        26 000024   000000 631400 27                 EPPR1   0
        26 000025   000000 701000 xent               TSX1    ZII$SEGSZ
        26 000026   000326 702000 26                 TSX2    ER_SUBS

     1820     2448    1       FDS_FPT.V.SEGSIZE#=0;

   2448 26 000027   000000 220003                    LDX0    0,DU
        26 000030   000032 440000 0                  SXL0    FDS_FPT+4

     1821     2449    1       CALL M$FDS(FDS_FPT) ALTRET(ER_FDS);
PL6.E3A0      #002=ZII$BUILD_TABLES File=ZII$TOP_LIB.:ZIC0TSI                    FRI 09/05/97 12:33 Page:260

   2449 26 000031   000026 630400 0                  EPPR0   FDS_FPT
        26 000032   430002 713400                    CLIMB   alt,fds
        26 000033   400400 401760                    pmme    nvectors=2
        26 000034   000336 702000 26                 TSX2    ER_FDS

     1822     2450    1       IF SEGMENT_FRAME.COUNT>0 THEN

   2450 26 000035   000034 220000 0                  LDX0    RESULTSE
        26 000036   000043 600000 26                 TZE     s:2455

     1823     2451    2       DO;

     1824     2452    2           FDS_FPT.V.SEGSIZE#=SEGMENT_FRAME.COUNT;

   2452 26 000037   000032 440000 0                  SXL0    FDS_FPT+4

     1825     2453    2           CALL M$FDS(FDS_FPT);

   2453 26 000040   000026 630400 0                  EPPR0   FDS_FPT
        26 000041   030002 713400                    CLIMB   fds
        26 000042   400400 401760                    pmme    nvectors=2

     1826     2454    2           END;

     1827     2455    1       MEMORY_NEEDED=MEM_ND;

   2455 26 000043   000000 235000 0                  LDA     MEM_ND
        26 000044   200007 755100                    STA     MEMORY_NEEDED,,AUTO

     1828     2456    1       MEMORY_FRAME=0;

   2456 26 000045   000000 450000 1                  STZ     MEMORY_FRAME

     1829     2457    1       CALL ZII$COMMON_MEMORY(MEMORY_NEEDED,RESULTSE) ALTRET(ER_GDS);

   2457 26 000046   000007 236000 27                 LDQ     7
PL6.E3A0      #002=ZII$BUILD_TABLES File=ZII$TOP_LIB.:ZIC0TSI                    FRI 09/05/97 12:33 Page:261
        26 000047   200021 756100                    STQ     TEMP_ARG2+3,,AUTO
        26 000050   200007 630500                    EPPR0   MEMORY_NEEDED,,AUTO
        26 000051   200020 450500                    STP0    TEMP_ARG2+2,,AUTO
        26 000052   200020 630500                    EPPR0   TEMP_ARG2+2,,AUTO
        26 000053   000006 631400 27                 EPPR1   6
        26 000054   000000 701000 xent               TSX1    ZII$COMMON_MEMORY
        26 000055   000332 702000 26                 TSX2    ER_GDS

     1830     2458    1       CALL ZII$BLDNAM(RESULTSE,UWA_,RVA_,IA_,NAM1_,NAM2_) ALTRET(

   2458 26 000056   000011 630400 27                 EPPR0   9
        26 000057   000010 631400 27                 EPPR1   8
        26 000060   000000 701000 xent               TSX1    ZII$BLDNAM
        26 000061   000326 702000 26                 TSX2    ER_SUBS

     1831     2459    1          ER_SUBS);
     1832     2460    1       NAM1$=NAM1_.PTR$;

   2460 26 000062   000037 236000 0                  LDQ     NAM1_+1
        26 000063   000000 756000 5                  STQ     NAM1$

     1833     2461    1       NAM2$=NAM2_.PTR$;

   2461 26 000064   000041 236000 0                  LDQ     NAM2_+1
        26 000065   000000 756000 8                  STQ     NAM2$

     1834     2462    1       MEMORY_NEEDED = TBL_DIM * LENGTHW(D_TABLE(0));

   2462 26 000066   000000 235000 22                 LDA     TBL_DIM
        26 000067   000002 735000                    ALS     2
        26 000070   200007 755100                    STA     MEMORY_NEEDED,,AUTO

     1835     2463    1       D_TBL$=PINCRW(RESULTSE.PTR$,MEMORY_FRAME);

   2463 26 000071   000000 236000 1                  LDQ     MEMORY_FRAME
        26 000072   000022 736000                    QLS     18
        26 000073   000035 036000 0                  ADLQ    RESULTSE+1
PL6.E3A0      #002=ZII$BUILD_TABLES File=ZII$TOP_LIB.:ZIC0TSI                    FRI 09/05/97 12:33 Page:262
        26 000074   000000 756000 20                 STQ     D_TBL$

     1836     2464    1       CALL ZII$COMMON_MEMORY(MEMORY_NEEDED,RESULTSE) ALTRET(ER_GDS);

   2464 26 000075   000007 236000 27                 LDQ     7
        26 000076   200021 756100                    STQ     TEMP_ARG2+3,,AUTO
        26 000077   200007 630500                    EPPR0   MEMORY_NEEDED,,AUTO
        26 000100   200020 450500                    STP0    TEMP_ARG2+2,,AUTO
        26 000101   200020 630500                    EPPR0   TEMP_ARG2+2,,AUTO
        26 000102   000006 631400 27                 EPPR1   6
        26 000103   000000 701000 xent               TSX1    ZII$COMMON_MEMORY
        26 000104   000332 702000 26                 TSX2    ER_GDS

     1837     2465    1       M=0;

   2465 26 000105   200010 450100                    STZ     M,,AUTO

     1838     2466    1       DA$=NAM1.DESC$(0);

   2466 26 000106   000000 470400 5                  LDP0    NAM1$
        26 000107   000011 236100                    LDQ     9,,PR0
        26 000110   000000 756000 14                 STQ     DA$

     1839     2467    1       DR$=AREA.LREC$;

   2467 26 000111   000000 471400 14                 LDP1    DA$
        26 000112   100003 236100                    LDQ     3,,PR1
        26 000113   000000 756000 17                 STQ     DR$

     1840     2468    2       DO WHILE (DR$~=ADDR(NIL));

   2468 26 000114   000167 710000 26                 TRA     s:2483

     1841     2469    2           D_TABLE.REC_NO(M)=RECORD.NAM_IDX;

   2469 26 000115   200010 235100                    LDA     M,,AUTO
        26 000116   000002 735000                    ALS     2
PL6.E3A0      #002=ZII$BUILD_TABLES File=ZII$TOP_LIB.:ZIC0TSI                    FRI 09/05/97 12:33 Page:263
        26 000117   000000 470400 17                 LDP0    DR$
        26 000120   000000 220100                    LDX0    0,,PR0
        26 000121   000000 471400 20                 LDP1    D_TBL$
        26 000122   100000 740105                    STX0    0,AL,PR1

     1842     2470    2           DRFS$=RECORD.RFS_DSC$;

   2470 26 000123   000000 470400 17                 LDP0    DR$
        26 000124   000006 236100                    LDQ     6,,PR0
        26 000125   000000 756000 15                 STQ     DRFS$

     1843     2471    3           DO WHILE(DRFS$~=ADDR(NIL));

   2471 26 000126   000157 710000 26                 TRA     s:2480

     1844     2472    3               IF RFS_DSC.FLD_IDX=0 THEN

   2472 26 000127   000000 470400 15                 LDP0    DRFS$
        26 000130   000001 220100                    LDX0    1,,PR0
        26 000131   000154 601000 26                 TNZ     s:2479

     1845     2473    4               DO;

     1846     2474    4                   IF RFS_DSC.OWN_MEM THEN

   2474 26 000132   000001 236100                    LDQ     1,,PR0
        26 000133   400000 316007                    CANQ    -131072,DL
        26 000134   000145 600000 26                 TZE     s:2477

     1847     2475    4                       D_TABLE.IN_CLASS(M)=D_TABLE.IN_CLASS(M)+1;

   2475 26 000135   200010 235100                    LDA     M,,AUTO
        26 000136   000002 735000                    ALS     2
        26 000137   000000 471400 20                 LDP1    D_TBL$
        26 000140   000000 621005                    EAX1    0,AL
        26 000141   100001 235105                    LDA     1,AL,PR1
        26 000142   000001 035007                    ADLA    1,DL
PL6.E3A0      #002=ZII$BUILD_TABLES File=ZII$TOP_LIB.:ZIC0TSI                    FRI 09/05/97 12:33 Page:264
        26 000143   100001 755111                    STA     1,X1,PR1
        26 000144   000154 710000 26                 TRA     s:2479

     1848     2476    4                   ELSE
     1849     2477    4                       D_TABLE.OUT_CLASS(M)=D_TABLE.OUT_CLASS(M)+1;

   2477 26 000145   200010 235100                    LDA     M,,AUTO
        26 000146   000002 735000                    ALS     2
        26 000147   000000 471400 20                 LDP1    D_TBL$
        26 000150   000000 621005                    EAX1    0,AL
        26 000151   100002 235105                    LDA     2,AL,PR1
        26 000152   000001 035007                    ADLA    1,DL
        26 000153   100002 755111                    STA     2,X1,PR1

     1850     2478    4                   END;

     1851     2479    3               DRFS$=RFS_DSC.REC$;

   2479 26 000154   000000 470400 15                 LDP0    DRFS$
        26 000155   000005 236100                    LDQ     5,,PR0
        26 000156   000000 756000 15                 STQ     DRFS$

     1852     2480    3               END;

   2480 26 000157   000017 116000 27                 CMPQ    15
        26 000160   000127 601000 26                 TNZ     s:2472

     1853     2481    2           DR$=RECORD.LREC$;

   2481 26 000161   000000 470400 17                 LDP0    DR$
        26 000162   000005 236100                    LDQ     5,,PR0
        26 000163   000000 756000 17                 STQ     DR$

     1854     2482    2           M=M+1;

   2482 26 000164   200010 235100                    LDA     M,,AUTO
        26 000165   000001 035007                    ADLA    1,DL
PL6.E3A0      #002=ZII$BUILD_TABLES File=ZII$TOP_LIB.:ZIC0TSI                    FRI 09/05/97 12:33 Page:265
        26 000166   200010 755100                    STA     M,,AUTO

     1855     2483    2           END;

   2483 26 000167   000017 116000 27                 CMPQ    15
        26 000170   000115 601000 26                 TNZ     s:2469

     1856     2484    1       IF TBL_DIM = 1 THEN

   2484 26 000171   000000 235000 22                 LDA     TBL_DIM
        26 000172   000001 115007                    CMPA    1,DL
        26 000173   000177 601000 26                 TNZ     s:2488

     1857     2485    1           MEMORY_NEEDED = 1;

   2485 26 000174   000001 235007                    LDA     1,DL
        26 000175   200007 755100                    STA     MEMORY_NEEDED,,AUTO
        26 000176   000221 710000 26                 TRA     s:2492

     1858     2486    1       ELSE
     1859     2487    2       DO;

     1860     2488    2           M=TBL_DIM - 1;

   2488 26 000177   000001 135007                    SBLA    1,DL
        26 000200   200010 755100                    STA     M,,AUTO

     1861     2489    2           N=TBL_DIM - 2;

   2489 26 000201   000000 235000 22                 LDA     TBL_DIM
        26 000202   000002 135007                    SBLA    2,DL
        26 000203   200011 755100                    STA     N,,AUTO

     1862     2490    2           MEMORY_NEEDED=((((M*M)+M)-((2*M)-(2*N)))/2)+1;

   2490 26 000204   200010 236100                    LDQ     M,,AUTO
        26 000205   200010 402100                    MPY     M,,AUTO
PL6.E3A0      #002=ZII$BUILD_TABLES File=ZII$TOP_LIB.:ZIC0TSI                    FRI 09/05/97 12:33 Page:266
        26 000206   200010 036100                    ADLQ    M,,AUTO
        26 000207   200020 756100                    STQ     TEMP_ARG2+2,,AUTO
        26 000210   200010 236100                    LDQ     M,,AUTO
        26 000211   200011 136100                    SBLQ    N,,AUTO
        26 000212   000001 736000                    QLS     1
        26 000213   000020 676000 27                 ERQ     16
        26 000214   000001 036007                    ADLQ    1,DL
        26 000215   200020 036100                    ADLQ    TEMP_ARG2+2,,AUTO
        26 000216   000002 506007                    DIV     2,DL
        26 000217   000001 036007                    ADLQ    1,DL
        26 000220   200007 756100                    STQ     MEMORY_NEEDED,,AUTO

     1863     2491    2           END;

     1864     2492    1       D2_TBL$=PINCRW(RESULTSE.PTR$,MEMORY_FRAME);

   2492 26 000221   000000 236000 1                  LDQ     MEMORY_FRAME
        26 000222   000022 736000                    QLS     18
        26 000223   000035 036000 0                  ADLQ    RESULTSE+1
        26 000224   000000 756000 21                 STQ     D2_TBL$

     1865     2493    1       CALL ZII$COMMON_MEMORY(MEMORY_NEEDED,RESULTSE) ALTRET(ER_GDS);

   2493 26 000225   000007 236000 27                 LDQ     7
        26 000226   200021 756100                    STQ     TEMP_ARG2+3,,AUTO
        26 000227   200007 630500                    EPPR0   MEMORY_NEEDED,,AUTO
        26 000230   200020 450500                    STP0    TEMP_ARG2+2,,AUTO
        26 000231   200020 630500                    EPPR0   TEMP_ARG2+2,,AUTO
        26 000232   000006 631400 27                 EPPR1   6
        26 000233   000000 701000 xent               TSX1    ZII$COMMON_MEMORY
        26 000234   000332 702000 26                 TSX2    ER_GDS

     1866     2494    1       ZII$COMMON$=PINCRW(RESULTSE.PTR$,MEMORY_FRAME);

   2494 26 000235   000000 236000 1                  LDQ     MEMORY_FRAME
        26 000236   000022 736000                    QLS     18
        26 000237   000035 036000 0                  ADLQ    RESULTSE+1
PL6.E3A0      #002=ZII$BUILD_TABLES File=ZII$TOP_LIB.:ZIC0TSI                    FRI 09/05/97 12:33 Page:267
        26 000240   000000 756000 3                  STQ     ZII$COMMON$

     1867     2495    1       D2_TABLE='0'B;

   2495 26 000241   000000 220003                    LDX0    0,DU
        26 000242   000000 470400 21                 LDP0    D2_TBL$
        26 000243   000000 740100                    STX0    0,,PR0

     1868     2496    1       DA$=NAM1.DESC$(0);

   2496 26 000244   000000 470400 5                  LDP0    NAM1$
        26 000245   000011 236100                    LDQ     9,,PR0
        26 000246   000000 756000 14                 STQ     DA$

     1869     2497    1       DS$=AREA.LSET$;

   2497 26 000247   000000 471400 14                 LDP1    DA$
        26 000250   100004 236100                    LDQ     4,,PR1
        26 000251   000000 756000 18                 STQ     DS$

     1870     2498    2       DO WHILE (DS$~=ADDR(NIL));

   2498 26 000252   000323 710000 26                 TRA     s:2514

     1871     2499    2           N=0;

   2499 26 000253   200011 450100                    STZ     N,,AUTO

     1872     2500    2           TEMP_ARG1=SET.OWNER_IDX;

   2500 26 000254   000000 470400 18                 LDP0    DS$
        26 000255   000001 236100                    LDQ     1,,PR0
        26 000256   000022 772000                    QRL     18
        26 000257   200015 756100                    STQ     TEMP_ARG1,,AUTO

     1873     2501    3           IF TEMP_ARG1 ~= 0 THEN DO;

PL6.E3A0      #002=ZII$BUILD_TABLES File=ZII$TOP_LIB.:ZIC0TSI                    FRI 09/05/97 12:33 Page:268
   2501 26 000260   000320 600000 26                 TZE     s:2513

     1874     2502    3               DRFS$=SET.RFS_DSC$;

   2502 26 000261   000007 236100                    LDQ     7,,PR0
        26 000262   000000 756000 15                 STQ     DRFS$

     1875     2503    4               DO WHILE (DRFS$~=ADDR(NIL));

   2503 26 000263   000316 710000 26                 TRA     s:2511

     1876     2504    4                   TEMP_ARG2=RFS_DSC.REC_IDX;

   2504 26 000264   000000 470400 15                 LDP0    DRFS$
        26 000265   000000 236100                    LDQ     0,,PR0
        26 000266   000022 772000                    QRL     18
        26 000267   200016 756100                    STQ     TEMP_ARG2,,AUTO

     1877     2505    4                   IF TEMP_ARG1~=TEMP_ARG2 THEN

   2505 26 000270   200015 116100                    CMPQ    TEMP_ARG1,,AUTO
        26 000271   000313 600000 26                 TZE     s:2510

     1878     2506    5                   DO;

     1879     2507    5                       CALL ZII$FIND_D2_IDX(TEMP_ARG1,TEMP_ARG2,X);

   2507 26 000272   200013 631500                    EPPR1   X,,AUTO
        26 000273   200022 451500                    STP1    TEMP_ARG2+4,,AUTO
        26 000274   200016 633500                    EPPR3   TEMP_ARG2,,AUTO
        26 000275   200021 453500                    STP3    TEMP_ARG2+3,,AUTO
        26 000276   200015 634500                    EPPR4   TEMP_ARG1,,AUTO
        26 000277   200020 454500                    STP4    TEMP_ARG2+2,,AUTO
        26 000300   200020 630500                    EPPR0   TEMP_ARG2+2,,AUTO
        26 000301   000021 631400 27                 EPPR1   17
        26 000302   000000 701000 xent               TSX1    ZII$FIND_D2_IDX
        26 000303   000000 011000                    NOP     0
PL6.E3A0      #002=ZII$BUILD_TABLES File=ZII$TOP_LIB.:ZIC0TSI                    FRI 09/05/97 12:33 Page:269

     1880     2508    5                       D2_TABLE.SET_IND(X)=SET.NAM_IDX;

   2508 26 000304   200013 235100                    LDA     X,,AUTO
        26 000305   000001 735000                    ALS     1
        26 000306   000000 470400 18                 LDP0    DS$
        26 000307   000000 471400 21                 LDP1    D2_TBL$
        26 000310   000105 100500                    MLR     fill='000'O
        26 000311   000000 000002                    ADSC9   0,,PR0                   cn=0,n=2
        26 000312   100000 000002                    ADSC9   0,A,PR1                  cn=0,n=2

     1881     2509    5                       END;

     1882     2510    4                   DRFS$=RFS_DSC.SET$;

   2510 26 000313   000000 470400 15                 LDP0    DRFS$
        26 000314   000006 236100                    LDQ     6,,PR0
        26 000315   000000 756000 15                 STQ     DRFS$

     1883     2511    4                   END;

   2511 26 000316   000017 116000 27                 CMPQ    15
        26 000317   000264 601000 26                 TNZ     s:2504

     1884     2512    3               END;

     1885     2513    2           DS$=SET.LSET$;

   2513 26 000320   000000 470400 18                 LDP0    DS$
        26 000321   000006 236100                    LDQ     6,,PR0
        26 000322   000000 756000 18                 STQ     DS$

     1886     2514    2           END;

   2514 26 000323   000017 116000 27                 CMPQ    15
        26 000324   000253 601000 26                 TNZ     s:2499

PL6.E3A0      #002=ZII$BUILD_TABLES File=ZII$TOP_LIB.:ZIC0TSI                    FRI 09/05/97 12:33 Page:270
     1887     2515    1       RETURN;

   2515 26 000325   000000 702200 xent               TSX2  ! X66_ARET

     1888     2516    1   ER_SUBS:
     1889     2517    1       STATUS_CODE=ERROR_CODE;

   2517 26 000326   200006 470500       ER_SUBS      LDP0    @STATUS_CODE,,AUTO
        26 000327   000000 235000 2                  LDA     ERROR_CODE
        26 000330   000000 755100                    STA     0,,PR0

     1890     2518    1       RETURN;

   2518 26 000331   000000 702200 xent               TSX2  ! X66_ARET

     1891     2519    1   ER_GDS:
     1892     2520    1       STATUS_CODE=%ZII_NO_MEMORY;

   2520 26 000332   013561 235007       ER_GDS       LDA     6001,DL
        26 000333   200006 470500                    LDP0    @STATUS_CODE,,AUTO
        26 000334   000000 755100                    STA     0,,PR0

     1893     2521    1       RETURN;

   2521 26 000335   000000 702200 xent               TSX2  ! X66_ARET

     1894     2522    1   ER_FDS:
     1895     2523    1       STATUS_CODE=%ZII_NO_MEMORY;

   2523 26 000336   013561 235007       ER_FDS       LDA     6001,DL
        26 000337   200006 470500                    LDP0    @STATUS_CODE,,AUTO
        26 000340   000000 755100                    STA     0,,PR0

     1896     2524    1       RETURN;

   2524 26 000341   000000 702200 xent               TSX2  ! X66_ARET

PL6.E3A0      #002=ZII$BUILD_TABLES File=ZII$TOP_LIB.:ZIC0TSI                    FRI 09/05/97 12:33 Page:271
MUPT_
 Sect OctLoc
   0     001   000000 000000   000000 000000                                    ........

MMEM_
 Sect OctLoc
   0     003   000000 000000   000000 000000                                    ........

SYSID
 Sect OctLoc
   0     006   040040 040040   040040 040040   040040 040040   040040 040040
   0     012   040040 040040   040040 040040   040040 040040   040040 040040

TRNDT
 Sect OctLoc
   0     016   040040 040040   040040 040040   040040 040040   040040 040040
   0     022   040040 040040   040040 040040   040040 040040   040040 040040

FDS_FPT
 Sect OctLoc
   0     026   000001 777640   000032 006000   000001 777640   000034 006000    ................
   0     032   200000 000000   ****** ******                                    ........

RESULTSE
 Sect OctLoc
   0     034   000000 177640   000000 006014                                    ........

NAM1_
 Sect OctLoc
   0     036   000000 177640   000000 006014                                    ........

NAM2_
 Sect OctLoc
   0     040   000000 177640   000000 006014                                    ........

ERROR_CODE
 Sect OctLoc
PL6.E3A0      #002=ZII$BUILD_TABLES File=ZII$TOP_LIB.:ZIC0TSI                    FRI 09/05/97 12:33 Page:272
   2     000   000000 000000                                                    ....

IA_
 Sect OctLoc
  23     000   000000 177640   000000 006014                                    ........

UWA_
 Sect OctLoc
  24     000   000000 177640   000000 006014                                    ........

RVA_
 Sect OctLoc
  25     000   000000 177640   000000 006014                                    ........

(unnamed)
 Sect OctLoc
  27     000   000007 000000   000000 000004   000016 006000   000006 006000    ................
  27     004   000001 006000   000000 006000   000002 000000   000034 006000    ................
  27     010   000006 000000   000034 006000   000000 006000   000000 006000    ................
  27     014   000000 006000   000036 006000   000040 006000   000000 006014    ......... ......
  27     020   777777 777777   000003 000000                                    ........
     1897     2525    1   END ZII$BUILD_TABLES;
     1898     2526        %EOD;

PL6.E3A0      #002=ZII$BUILD_TABLES File=ZII$TOP_LIB.:ZIC0TSI                    FRI 09/05/97 12:33 Page:273
--  Include file information  --

   ZI_IDPERR_SUBS.:ZIC0TOU  is referenced.
   ZI$TOP_STRUCTS.:ZIC0TOU  is referenced.
   ZI$DESC.:ZIC0TOU  is referenced.
   ZI$STRUCTS.:ZIC0TOU  is referenced.
   B$JIT.:LIB_E05  cannot be made into a system file and is referenced.
   CP_6_SUBS.:LIB_E05  is referenced.
   CP_6.:LIB_E05  cannot be made into a system file and is referenced.
   B$JIT_C.:E05TOU  was found in the system file and is referenced.
   CP_6_C.:E05TOU  was found in the system file and is referenced.
      No diagnostics issued in procedure ZII$BUILD_TABLES.

   Procedure ZII$BUILD_TABLES requires 226 words for executable code.
   Procedure ZII$BUILD_TABLES requires 24 words of local(AUTO) storage.
PL6.E3A0      #002=ZII$BUILD_TABLES File=ZII$TOP_LIB.:ZIC0TSI                    FRI 09/05/97 12:33 Page:274
          *** CROSS REFERENCE LISTING ***
**     DENOTES     IDENTIFIER DEFINITION
<<                 IDENTIFIER'S VALUE SET
>>                 IDENTIFIER'S VALUE USED
<>                 IDENTIFIER SET AND/OR USED
--                 IDENTIFIER REFERENCED
PL6.E3A0      #002=ZII$BUILD_TABLES File=ZII$TOP_LIB.:ZIC0TSI                    FRI 09/05/97 12:33 Page:275
          MINI XREF LISTING

AREA.LREC$
      1957**DCL      2467>>ASSIGN
AREA.LSET$
      1958**DCL      2497>>ASSIGN
B$JIT.CPFLAGS1.SLEAZE
       765**DCL       765--REDEF
B$JIT.ERR.MID
       672**DCL       672--REDEF
B$JIT.JRESPEAK
       833**DCL       834--REDEF
B$JIT.ORIGINATOR_PORT.FROM_CR
       942**DCL       942--REDEF     943--REDEF
B$JIT.PNR
       846**DCL       846--REDEF
B$JIT.TSLINE
       940**DCL       941--REDEF
B$JIT.UNAME
       671**DCL      2446>>ASSIGN
B$JIT$
        18**DCL       666--IMP-PTR  2446>>ASSIGN
D2_TABLE
      2291**DCL      2495<<ASSIGN
D2_TABLE.SET_IND
      2292**DCL      2508<<ASSIGN
D2_TBL$
      2290**DCL      2291--IMP-PTR  2492<<ASSIGN   2495>>ASSIGN   2508>>ASSIGN
DA$
      1943**DCL      1944--IMP-PTR  2466<<ASSIGN   2467>>ASSIGN   2496<<ASSIGN   2497>>ASSIGN
DD$
      2201**DCL      2202--IMP-PTR
DESC#
      1055**DCL      1060--IMP-SIZ
PL6.E3A0      #002=ZII$BUILD_TABLES File=ZII$TOP_LIB.:ZIC0TSI                    FRI 09/05/97 12:33 Page:276
DF$
      2010**DCL      2011--IMP-PTR
DR$
      2125**DCL      2126--IMP-PTR  2467<<ASSIGN   2468>>DOWHILE  2469>>ASSIGN   2470>>ASSIGN   2481<<ASSIGN
      2481>>ASSIGN
DRFS$
      1965**DCL      1966--IMP-PTR  2470<<ASSIGN   2471>>DOWHILE  2472>>IF       2474>>IF       2479<<ASSIGN
      2479>>ASSIGN   2502<<ASSIGN   2503>>DOWHILE  2504>>ASSIGN   2510<<ASSIGN   2510>>ASSIGN
DS$
      2159**DCL      2160--IMP-PTR  2497<<ASSIGN   2498>>DOWHILE  2500>>ASSIGN   2502>>ASSIGN   2508>>ASSIGN
      2513<<ASSIGN   2513>>ASSIGN
D_TABLE
      2282**DCL      2462--ASSIGN
D_TABLE.IN_CLASS
      2285**DCL      2475<<ASSIGN   2475>>ASSIGN
D_TABLE.OUT_CLASS
      2286**DCL      2477<<ASSIGN   2477>>ASSIGN
D_TABLE.REC_NO
      2283**DCL      2469<<ASSIGN
D_TBL$
      2281**DCL      2282--IMP-PTR  2463<<ASSIGN   2469>>ASSIGN   2475>>ASSIGN   2475>>ASSIGN   2477>>ASSIGN
      2477>>ASSIGN
ERROR_CODE
        14**DCL      2517>>ASSIGN
ER_FDS
      2523**LABEL    2449--CALLALT
ER_GDS
      2520**LABEL    2457--CALLALT  2464--CALLALT  2493--CALLALT
ER_SUBS
      2517**LABEL    2447--CALLALT  2458--CALLALT
FDS_FPT
      2347**DCL      2449<>CALL     2453<>CALL
FDS_FPT.V
      2347**DCL      2347--DCLINIT
FDS_FPT.V.SEGSIZE#
      2349**DCL      2448<<ASSIGN   2452<<ASSIGN
PL6.E3A0      #002=ZII$BUILD_TABLES File=ZII$TOP_LIB.:ZIC0TSI                    FRI 09/05/97 12:33 Page:277
FIELD.EIS_BITS.NDSC
      2082**DCL      2111--REDEF
FIELD.FLAG_BITS_1
      2023**DCL      2024--REDEF
FIELD.FLAG_BITS_2
      2050**DCL      2051--REDEF
IA_
      2410**DCL      2458<>CALL
IA_.W2
      2411**DCL      2412--REDEF
LOCK_VALUE
        11**DCL         6--PROC     2447<>CALL
M
        22**DCL      2465<<ASSIGN   2469>>ASSIGN   2475>>ASSIGN   2475>>ASSIGN   2477>>ASSIGN   2477>>ASSIGN
      2482<<ASSIGN   2482>>ASSIGN   2488<<ASSIGN   2490>>ASSIGN   2490>>ASSIGN   2490>>ASSIGN   2490>>ASSIGN
M$FDS
        80**DCL-ENT  2449--CALL     2453--CALL
MEMORY_FRAME
         9**DCL      2456<<ASSIGN   2463>>ASSIGN   2492>>ASSIGN   2494>>ASSIGN
MEMORY_NEEDED
         8**DCL      2455<<ASSIGN   2457<>CALL     2462<<ASSIGN   2464<>CALL     2485<<ASSIGN   2490<<ASSIGN
      2493<>CALL
MEM_ND
         7**DCL      2447<>CALL     2455>>ASSIGN
N
        23**DCL      2489<<ASSIGN   2490>>ASSIGN   2499<<ASSIGN
NAM1.DESC$
      1046**DCL      2466>>ASSIGN   2496>>ASSIGN
NAM1$
      1028**DCL      1031--IMP-PTR  2460<<ASSIGN   2466>>ASSIGN   2496>>ASSIGN
NAM1_
      2380**DCL      2458<>CALL
NAM1_.PTR$
      2382**DCL      2460>>ASSIGN
NAM1_.W2
      2381**DCL      2382--REDEF
PL6.E3A0      #002=ZII$BUILD_TABLES File=ZII$TOP_LIB.:ZIC0TSI                    FRI 09/05/97 12:33 Page:278
NAM2.DESC
      1059**DCL      1060--REDEF
NAM2$
      1053**DCL      1056--IMP-PTR  2461<<ASSIGN
NAM2_
      2395**DCL      2458<>CALL
NAM2_.PTR$
      2397**DCL      2461>>ASSIGN
NAM2_.W2
      2396**DCL      2397--REDEF
RECORD.FLAG_BITS
      2130**DCL      2131--REDEF
RECORD.LREC$
      2153**DCL      2481>>ASSIGN
RECORD.NAM_IDX
      2127**DCL      2469>>ASSIGN
RECORD.RFS_DSC$
      2154**DCL      2470>>ASSIGN
RESULTSE
      2362**DCL      2347--DCLINIT  2366--REDEF    2457<>CALL     2458<>CALL     2464<>CALL     2493<>CALL
RESULTSE.PTR$
      2364**DCL      2463>>ASSIGN   2492>>ASSIGN   2494>>ASSIGN
RESULTSE.W2
      2363**DCL      2364--REDEF
RFS_DSC.FLD_IDX
      1969**DCL      2472>>IF
RFS_DSC.OWN_MEM
      1970**DCL      2474>>IF
RFS_DSC.REC$
      2004**DCL      2479>>ASSIGN
RFS_DSC.REC_IDX
      1967**DCL      2504>>ASSIGN
RFS_DSC.SET$
      2005**DCL      2510>>ASSIGN
RVA_
      2440**DCL      2458<>CALL
PL6.E3A0      #002=ZII$BUILD_TABLES File=ZII$TOP_LIB.:ZIC0TSI                    FRI 09/05/97 12:33 Page:279
RVA_.W2
      2441**DCL      2442--REDEF
SCHNAM
        15**DCL         6--PROC     2447<>CALL
SEGMENT_FRAME.COUNT
      2367**DCL      2450>>IF       2452>>ASSIGN
SET.FLAG_BITS
      2165**DCL      2166--REDEF
SET.LSET$
      2196**DCL      2513>>ASSIGN
SET.NAM_IDX
      2161**DCL      2508>>ASSIGN
SET.OWNER_IDX
      2163**DCL      2500>>ASSIGN
SET.RFS_DSC$
      2197**DCL      2502>>ASSIGN
SSCHNAM
        16**DCL         6--PROC     2447<>CALL
STATUS_CODE
        12**DCL         6--PROC     2445<<ASSIGN   2517<<ASSIGN   2520<<ASSIGN   2523<<ASSIGN
SYSID
        19**DCL      2446<<ASSIGN   2447<>CALL
TBL_DIM
      2297**DCL      2462>>ASSIGN   2484>>IF       2488>>ASSIGN   2489>>ASSIGN
TEMP_ARG1
        27**DCL      2500<<ASSIGN   2501>>IF       2505>>IF       2507<>CALL
TEMP_ARG2
        28**DCL      2504<<ASSIGN   2505>>IF       2507<>CALL
TRNDT
        20**DCL      2447<>CALL
UWA#
      1065**DCL      1083--IMP-SIZ
UWA$
      1063**DCL      1066--IMP-PTR
UWA_
      2425**DCL      2458<>CALL
PL6.E3A0      #002=ZII$BUILD_TABLES File=ZII$TOP_LIB.:ZIC0TSI                    FRI 09/05/97 12:33 Page:280
UWA_.W2
      2426**DCL      2427--REDEF
X
        25**DCL      2507<>CALL     2508>>ASSIGN
ZII$BLDNAM
        32**DCL-ENT  2458--CALL
ZII$COMMON$
        21**DCL      2494<<ASSIGN
ZII$COMMON_MEMORY
        34**DCL-ENT  2457--CALL     2464--CALL     2493--CALL
ZII$FIND_D2_IDX
        33**DCL-ENT  2507--CALL
ZII$SEGSZ
        31**DCL-ENT  2447--CALL

PL6.E3A0      #003=ZII$FIND_IDX File=ZII$TOP_LIB.:ZIC0TSI                        FRI 09/05/97 12:33 Page:281
     1899        1        /*T***********************************************************/
     1900        2        /*T*                                                         */
     1901        3        /*T* Copyright (c) Bull HN Information Systems Inc., 1997    */
     1902        4        /*T*                                                         */
     1903        5        /*T***********************************************************/
     1904        6        ZII$FIND_IDX: PROC (IN_REC,OUT_INDX);
     1905        7    1   DCL IN_REC UBIN;
     1906        8    1   DCL OUT_INDX UBIN;
     1907        9    1   DCL I UBIN AUTO;
     1908       10        /**/
     1909       11        %INCLUDE ZI$TOP_STRUCTS;
     1910       72        %D_DESC;
     1911       81        %TBL_DIM_DESC;
     1912       86        /**/
     1913       87    1       OUT_INDX=0;
     1914       88    1       I=0;
     1915       89    2       DO WHILE (I<TBL_DIM);
     1916       90    2           IF IN_REC=D_TABLE.REC_NO(I) THEN
     1917       91    3           DO;
     1918       92    3               OUT_INDX=I;
     1919       93    3               I=TBL_DIM;
     1920       94    3               END;
     1921       95    2           I=I+1;
     1922       96    2           END;
     1923       97    1       RETURN;
     1924       98    1   END ZII$FIND_IDX;
     1925       99        %EOD;

PL6.E3A0      #003=ZII$FIND_IDX File=ZII$TOP_LIB.:ZIC0TSI                        FRI 09/05/97 12:33 Page:282
--  Include file information  --

   ZI$TOP_STRUCTS.:ZIC0TOU  is referenced.
   B$JIT_C.:E05TOU  was found in the system file and is never referenced.
   CP_6_C.:E05TOU  was found in the system file and is never referenced.
      No diagnostics issued in procedure ZII$FIND_IDX.

   Procedure ZII$FIND_IDX requires 28 words for executable code.
   Procedure ZII$FIND_IDX requires 6 words of local(AUTO) storage.

PL6.E3A0      #003=ZII$FIND_IDX File=ZII$TOP_LIB.:ZIC0TSI                        FRI 09/05/97 12:33 Page:283

 Object Unit name= ZII$FIND_IDX                               File name= ZII$TOP_LIB.:ZIC0TOU
 UTS= SEP 05 '97 12:33:37.96 FRI                              Compiler= PL-6/E31         Sev=      00
 SharedLib= :SHARED_SYSTEM                                    Alt SharedLib=


    ****  Control sections  ****

 Sect   Type Bound  Init  Size OctSiz  Section name(segment info)
    0  LblCom even  none     1      1  D_TBL$
    1  LblCom even  none     1      1  TBL_DIM
    2   Proc  even  none    28     34  ZII$FIND_IDX

    ****  Entry defs  ****

                              Check   Calling
                             calling  sequence
  Sect OctLoc Primary Altret sequence   type   Parms  Name
     2      0   yes            yes      Std        2  ZII$FIND_IDX

  ****  Entry refs  ****

         Check        Calling
        calling       sequence
Altret sequence SRef   type   Args  Name
                       nStd      0 X66_AUTO_2
                       nStd      0 X66_ARET
PL6.E3A0      #003=ZII$FIND_IDX File=ZII$TOP_LIB.:ZIC0TSI                        FRI 09/05/97 12:33 Page:284


     1899        1        /*T***********************************************************/
     1900        2        /*T*                                                         */
     1901        3        /*T* Copyright (c) Bull HN Information Systems Inc., 1997    */
     1902        4        /*T*                                                         */
     1903        5        /*T***********************************************************/
     1904        6        ZII$FIND_IDX: PROC (IN_REC,OUT_INDX);

      6  2 000000   000000 700200 xent  ZII$FIND_IDX TSX0  ! X66_AUTO_2
         2 000001   000006 000002                    ZERO    6,2

     1905        7    1   DCL IN_REC UBIN;
     1906        8    1   DCL OUT_INDX UBIN;
     1907        9    1   DCL I UBIN AUTO;
     1908       10        /**/
     1909       11        %INCLUDE ZI$TOP_STRUCTS;
     1910       72        %D_DESC;
     1911       81        %TBL_DIM_DESC;
     1912       86        /**/
     1913       87    1       OUT_INDX=0;

     87  2 000002   200004 470500                    LDP0    @OUT_INDX,,AUTO
         2 000003   000000 450100                    STZ     0,,PR0

     1914       88    1       I=0;

     88  2 000004   200005 450100                    STZ     I,,AUTO

     1915       89    2       DO WHILE (I<TBL_DIM);

     89  2 000005   200005 236100                    LDQ     I,,AUTO
         2 000006   000000 116000 1                  CMPQ    TBL_DIM
         2 000007   000033 603000 2                  TRC     s:97

     1916       90    2           IF IN_REC=D_TABLE.REC_NO(I) THEN

     90  2 000010   200003 470500                    LDP0    @IN_REC,,AUTO
PL6.E3A0      #003=ZII$FIND_IDX File=ZII$TOP_LIB.:ZIC0TSI                        FRI 09/05/97 12:33 Page:285
         2 000011   200005 235100                    LDA     I,,AUTO
         2 000012   000002 735000                    ALS     2
         2 000013   000000 471400 0                  LDP1    D_TBL$
         2 000014   100000 236105                    LDQ     0,AL,PR1
         2 000015   000022 772000                    QRL     18
         2 000016   000000 116100                    CMPQ    0,,PR0
         2 000017   000025 601000 2                  TNZ     s:95

     1917       91    3           DO;

     1918       92    3               OUT_INDX=I;

     92  2 000020   200004 473500                    LDP3    @OUT_INDX,,AUTO
         2 000021   200005 235100                    LDA     I,,AUTO
         2 000022   300000 755100                    STA     0,,PR3

     1919       93    3               I=TBL_DIM;

     93  2 000023   000000 236000 1                  LDQ     TBL_DIM
         2 000024   200005 756100                    STQ     I,,AUTO

     1920       94    3               END;

     1921       95    2           I=I+1;

     95  2 000025   200005 235100                    LDA     I,,AUTO
         2 000026   000001 035007                    ADLA    1,DL
         2 000027   200005 755100                    STA     I,,AUTO

     1922       96    2           END;

     96  2 000030   200005 236100                    LDQ     I,,AUTO
         2 000031   000000 116000 1                  CMPQ    TBL_DIM
         2 000032   000010 602000 2                  TNC     s:90

     1923       97    1       RETURN;

PL6.E3A0      #003=ZII$FIND_IDX File=ZII$TOP_LIB.:ZIC0TSI                        FRI 09/05/97 12:33 Page:286
     97  2 000033   000000 702200 xent               TSX2  ! X66_ARET
     1924       98    1   END ZII$FIND_IDX;
     1925       99        %EOD;

PL6.E3A0      #003=ZII$FIND_IDX File=ZII$TOP_LIB.:ZIC0TSI                        FRI 09/05/97 12:33 Page:287
--  Include file information  --

   ZI$TOP_STRUCTS.:ZIC0TOU  is referenced.
   B$JIT_C.:E05TOU  was found in the system file and is never referenced.
   CP_6_C.:E05TOU  was found in the system file and is never referenced.
      No diagnostics issued in procedure ZII$FIND_IDX.

   Procedure ZII$FIND_IDX requires 28 words for executable code.
   Procedure ZII$FIND_IDX requires 6 words of local(AUTO) storage.
PL6.E3A0      #003=ZII$FIND_IDX File=ZII$TOP_LIB.:ZIC0TSI                        FRI 09/05/97 12:33 Page:288
          *** CROSS REFERENCE LISTING ***
**     DENOTES     IDENTIFIER DEFINITION
<<                 IDENTIFIER'S VALUE SET
>>                 IDENTIFIER'S VALUE USED
<>                 IDENTIFIER SET AND/OR USED
--                 IDENTIFIER REFERENCED
PL6.E3A0      #003=ZII$FIND_IDX File=ZII$TOP_LIB.:ZIC0TSI                        FRI 09/05/97 12:33 Page:289
          MINI XREF LISTING

D_TABLE.REC_NO
        75**DCL        90>>IF
D_TBL$
        73**DCL        74--IMP-PTR    90>>IF
I
         9**DCL        88<<ASSIGN     89>>DOWHILE    90>>IF         92>>ASSIGN     93<<ASSIGN     95<<ASSIGN
        95>>ASSIGN
IN_REC
         7**DCL         6--PROC       90>>IF
OUT_INDX
         8**DCL         6--PROC       87<<ASSIGN     92<<ASSIGN
TBL_DIM
        82**DCL        89>>DOWHILE    93>>ASSIGN

PL6.E3A0      #004=ZII$FIND_D2_IDX File=ZII$TOP_LIB.:ZIC0TSI                     FRI 09/05/97 12:33 Page:290
     1926        1        /*T***********************************************************/
     1927        2        /*T*                                                         */
     1928        3        /*T* Copyright (c) Bull HN Information Systems Inc., 1997    */
     1929        4        /*T*                                                         */
     1930        5        /*T***********************************************************/
     1931        6        ZII$FIND_D2_IDX: PROC (X,Y,OUT_IDX);
     1932        7    1   DCL X UBIN;
     1933        8    1   DCL Y UBIN;
     1934        9    1   DCL OUT_IDX UBIN;
     1935       10    1   DCL M UBIN AUTO;
     1936       11    1   DCL N UBIN AUTO;
     1937       12        /**/
     1938       13        %INCLUDE ZI$TOP_STRUCTS;
     1939       74        %D2_DESC;
     1940       81        /**/
     1941       82    1   DCL ZII$FIND_IDX ENTRY(2);
     1942       83        /**/
     1943       84    1       CALL ZII$FIND_IDX(X,N);
     1944       85    1       CALL ZII$FIND_IDX(Y,M);
     1945       86    1       OUT_IDX=0;
     1946       87    1       IF N>M THEN
     1947       88    1           OUT_IDX=(((N*N)+N)-((2*N)-(2*M)))/2;
     1948       89    1       ELSE
     1949       90    1           OUT_IDX=(((M*M)+M)-((2*M)-(2*N)))/2;
     1950       91    1       RETURN;
     1951       92    1   END ZII$FIND_D2_IDX;
     1952       93        %EOD;

PL6.E3A0      #004=ZII$FIND_D2_IDX File=ZII$TOP_LIB.:ZIC0TSI                     FRI 09/05/97 12:33 Page:291
--  Include file information  --

   ZI$TOP_STRUCTS.:ZIC0TOU  is referenced.
   B$JIT_C.:E05TOU  was found in the system file and is never referenced.
   CP_6_C.:E05TOU  was found in the system file and is never referenced.
      No diagnostics issued in procedure ZII$FIND_D2_IDX.

   Procedure ZII$FIND_D2_IDX requires 48 words for executable code.
   Procedure ZII$FIND_D2_IDX requires 10 words of local(AUTO) storage.

PL6.E3A0      #004=ZII$FIND_D2_IDX File=ZII$TOP_LIB.:ZIC0TSI                     FRI 09/05/97 12:33 Page:292

 Object Unit name= ZII$FIND_D2_IDX                            File name= ZII$TOP_LIB.:ZIC0TOU
 UTS= SEP 05 '97 12:33:39.60 FRI                              Compiler= PL-6/E31         Sev=      00
 SharedLib= :SHARED_SYSTEM                                    Alt SharedLib=


    ****  Control sections  ****

 Sect   Type Bound  Init  Size OctSiz  Section name(segment info)
    0  LblCom even  none     1      1  D2_TBL$
    1   Proc  even  none    48     60  ZII$FIND_D2_IDX
    2  RoData even  none     2      2  ZII$FIND_D2_IDX

    ****  Entry defs  ****

                              Check   Calling
                             calling  sequence
  Sect OctLoc Primary Altret sequence   type   Parms  Name
     1      0   yes            yes      Std        3  ZII$FIND_D2_IDX

  ****  Entry refs  ****

         Check        Calling
        calling       sequence
Altret sequence SRef   type   Args  Name
         yes           Std       2 ZII$FIND_IDX
                       nStd      0 X66_AUTO_3
                       nStd      0 X66_ARET
PL6.E3A0      #004=ZII$FIND_D2_IDX File=ZII$TOP_LIB.:ZIC0TSI                     FRI 09/05/97 12:33 Page:293


     1926        1        /*T***********************************************************/
     1927        2        /*T*                                                         */
     1928        3        /*T* Copyright (c) Bull HN Information Systems Inc., 1997    */
     1929        4        /*T*                                                         */
     1930        5        /*T***********************************************************/
     1931        6        ZII$FIND_D2_IDX: PROC (X,Y,OUT_IDX);

      6  1 000000   000000 700200 xent  ZII$FIND_D2* TSX0  ! X66_AUTO_3
         1 000001   000012 000003                    ZERO    10,3

     1932        7    1   DCL X UBIN;
     1933        8    1   DCL Y UBIN;
     1934        9    1   DCL OUT_IDX UBIN;
     1935       10    1   DCL M UBIN AUTO;
     1936       11    1   DCL N UBIN AUTO;
     1937       12        /**/
     1938       13        %INCLUDE ZI$TOP_STRUCTS;
     1939       74        %D2_DESC;
     1940       81        /**/
     1941       82    1   DCL ZII$FIND_IDX ENTRY(2);
     1942       83        /**/
     1943       84    1       CALL ZII$FIND_IDX(X,N);

     84  1 000002   200007 630500                    EPPR0   N,,AUTO
         1 000003   200011 450500                    STP0    N+2,,AUTO
         1 000004   200003 236100                    LDQ     @X,,AUTO
         1 000005   200010 756100                    STQ     N+1,,AUTO
         1 000006   200010 630500                    EPPR0   N+1,,AUTO
         1 000007   000000 631400 2                  EPPR1   0
         1 000010   000000 701000 xent               TSX1    ZII$FIND_IDX
         1 000011   000000 011000                    NOP     0

     1944       85    1       CALL ZII$FIND_IDX(Y,M);

     85  1 000012   200006 630500                    EPPR0   M,,AUTO
         1 000013   200011 450500                    STP0    N+2,,AUTO
PL6.E3A0      #004=ZII$FIND_D2_IDX File=ZII$TOP_LIB.:ZIC0TSI                     FRI 09/05/97 12:33 Page:294
         1 000014   200004 236100                    LDQ     @Y,,AUTO
         1 000015   200010 756100                    STQ     N+1,,AUTO
         1 000016   200010 630500                    EPPR0   N+1,,AUTO
         1 000017   000000 631400 2                  EPPR1   0
         1 000020   000000 701000 xent               TSX1    ZII$FIND_IDX
         1 000021   000000 011000                    NOP     0

     1945       86    1       OUT_IDX=0;

     86  1 000022   200005 470500                    LDP0    @OUT_IDX,,AUTO
         1 000023   000000 450100                    STZ     0,,PR0

     1946       87    1       IF N>M THEN

     87  1 000024   200006 236100                    LDQ     M,,AUTO
         1 000025   200007 116100                    CMPQ    N,,AUTO
         1 000026   000044 603000 1                  TRC     s:90

     1947       88    1           OUT_IDX=(((N*N)+N)-((2*N)-(2*M)))/2;

     88  1 000027   200007 236100                    LDQ     N,,AUTO
         1 000030   200007 402100                    MPY     N,,AUTO
         1 000031   200007 036100                    ADLQ    N,,AUTO
         1 000032   200010 756100                    STQ     N+1,,AUTO
         1 000033   200007 236100                    LDQ     N,,AUTO
         1 000034   200006 136100                    SBLQ    M,,AUTO
         1 000035   000001 736000                    QLS     1
         1 000036   000001 676000 2                  ERQ     1
         1 000037   000001 036007                    ADLQ    1,DL
         1 000040   200010 036100                    ADLQ    N+1,,AUTO
         1 000041   000002 506007                    DIV     2,DL
         1 000042   000000 756100                    STQ     0,,PR0
         1 000043   000057 710000 1                  TRA     s:91

     1948       89    1       ELSE
     1949       90    1           OUT_IDX=(((M*M)+M)-((2*M)-(2*N)))/2;

PL6.E3A0      #004=ZII$FIND_D2_IDX File=ZII$TOP_LIB.:ZIC0TSI                     FRI 09/05/97 12:33 Page:295
     90  1 000044   200006 402100                    MPY     M,,AUTO
         1 000045   200006 036100                    ADLQ    M,,AUTO
         1 000046   200010 756100                    STQ     N+1,,AUTO
         1 000047   200006 236100                    LDQ     M,,AUTO
         1 000050   200007 136100                    SBLQ    N,,AUTO
         1 000051   000001 736000                    QLS     1
         1 000052   000001 676000 2                  ERQ     1
         1 000053   000001 036007                    ADLQ    1,DL
         1 000054   200010 036100                    ADLQ    N+1,,AUTO
         1 000055   000002 506007                    DIV     2,DL
         1 000056   000000 756100                    STQ     0,,PR0

     1950       91    1       RETURN;

     91  1 000057   000000 702200 xent               TSX2  ! X66_ARET

(unnamed)
 Sect OctLoc
   2     000   000002 000000   777777 777777                                    ........
     1951       92    1   END ZII$FIND_D2_IDX;
     1952       93        %EOD;

PL6.E3A0      #004=ZII$FIND_D2_IDX File=ZII$TOP_LIB.:ZIC0TSI                     FRI 09/05/97 12:33 Page:296
--  Include file information  --

   ZI$TOP_STRUCTS.:ZIC0TOU  is referenced.
   B$JIT_C.:E05TOU  was found in the system file and is never referenced.
   CP_6_C.:E05TOU  was found in the system file and is never referenced.
      No diagnostics issued in procedure ZII$FIND_D2_IDX.

   Procedure ZII$FIND_D2_IDX requires 48 words for executable code.
   Procedure ZII$FIND_D2_IDX requires 10 words of local(AUTO) storage.
PL6.E3A0      #004=ZII$FIND_D2_IDX File=ZII$TOP_LIB.:ZIC0TSI                     FRI 09/05/97 12:33 Page:297
          *** CROSS REFERENCE LISTING ***
**     DENOTES     IDENTIFIER DEFINITION
<<                 IDENTIFIER'S VALUE SET
>>                 IDENTIFIER'S VALUE USED
<>                 IDENTIFIER SET AND/OR USED
--                 IDENTIFIER REFERENCED
PL6.E3A0      #004=ZII$FIND_D2_IDX File=ZII$TOP_LIB.:ZIC0TSI                     FRI 09/05/97 12:33 Page:298
          MINI XREF LISTING

D2_TBL$
        75**DCL        76--IMP-PTR
M
        10**DCL        85<>CALL       87>>IF         88>>ASSIGN     90>>ASSIGN     90>>ASSIGN     90>>ASSIGN
        90>>ASSIGN
N
        11**DCL        84<>CALL       87>>IF         88>>ASSIGN     88>>ASSIGN     88>>ASSIGN     88>>ASSIGN
        90>>ASSIGN
OUT_IDX
         9**DCL         6--PROC       86<<ASSIGN     88<<ASSIGN     90<<ASSIGN
X
         7**DCL         6--PROC       84<>CALL
Y
         8**DCL         6--PROC       85<>CALL
ZII$FIND_IDX
        82**DCL-ENT    84--CALL       85--CALL

PL6.E3A0      #005=ZII$PATH_MEMORY File=ZII$TOP_LIB.:ZIC0TSI                     FRI 09/05/97 12:33 Page:299
     1953        1        /*T***********************************************************/
     1954        2        /*T*                                                         */
     1955        3        /*T* Copyright (c) Bull HN Information Systems Inc., 1997    */
     1956        4        /*T*                                                         */
     1957        5        /*T***********************************************************/
     1958        6        ZII$PATH_MEMORY: PROC (PATH_SLOTS_NEEDED,MODE) ALTRET;
     1959        7    1   DCL PATH_SLOTS_NEEDED UBIN;
     1960        8    1   DCL NUM_WORDS UBIN AUTO;
     1961        9    1   DCL MODE UBIN;
     1962       10    1   DCL MEMORY_FRAME UBIN(36) EXT;
     1963       11        %EQU GET = 1;
     1964       12        %EQU RLSE = 0;
     1965       13        /**/
     1966       14    1   DCL ZII$COMMON_MEMORY ENTRY(2) ALTRET;
     1967       15        /**/
     1968       16        %INCLUDE CP_6;
     1969       97        %FPT_FDS(FPTN=FDS_FPT,COMMON=YES,RESULTS=RESULTS_VECTOR);
     1970      112        %INCLUDE ZI$PATH_STRUCTS;
     1971      250        %PATH_DESC (STCLASS="STATIC");
     1972      290        %VLP_VECTOR (FPTN=RESULTSE);
     1973      305        %VLP_VECTOR(FPTN=RESULTS_VECTOR);
     1974      320        /**/
     1975      321    1       NUM_WORDS = LENGTHW(PATH_LIST(0))*PATH_SLOTS_NEEDED;
     1976      322    1       IF ADDR(MODE) = ADDR(NIL) OR MODE = %GET THEN
     1977      323    2       DO;
     1978      324    2           CALL ZII$COMMON_MEMORY(NUM_WORDS,RESULTSE) ALTRET(ER_COMMON);
     1979      325    2           RETURN;
     1980      326    2   ER_COMMON:;
     1981      327    2           ALTRETURN;
     1982      328    2           END;
     1983      329    2       ELSE DO; /* MODE = %RLSE */
     1984      330    2           FDS_FPT.V.SEGSIZE# = NUM_WORDS;
     1985      331    2           CALL M$FDS(FDS_FPT);
     1986      332    2           RESULTSE = RESULTS_VECTOR;
     1987      333    2           MEMORY_FRAME = MEMORY_FRAME - NUM_WORDS;
     1988      334    2           END;
     1989      335    1   END ZII$PATH_MEMORY;
PL6.E3A0      #005=ZII$PATH_MEMORY File=ZII$TOP_LIB.:ZIC0TSI                     FRI 09/05/97 12:33 Page:300
     1990      336        %EOD;

PL6.E3A0      #005=ZII$PATH_MEMORY File=ZII$TOP_LIB.:ZIC0TSI                     FRI 09/05/97 12:33 Page:301
--  Include file information  --

   ZI$PATH_STRUCTS.:ZIC0TOU  is referenced.
   CP_6.:LIB_E05  cannot be made into a system file and is referenced.
   B$JIT_C.:E05TOU  was found in the system file and is never referenced.
   CP_6_C.:E05TOU  was found in the system file and is referenced.
      No diagnostics issued in procedure ZII$PATH_MEMORY.

   Procedure ZII$PATH_MEMORY requires 34 words for executable code.
   Procedure ZII$PATH_MEMORY requires 8 words of local(AUTO) storage.

PL6.E3A0      #005=ZII$PATH_MEMORY File=ZII$TOP_LIB.:ZIC0TSI                     FRI 09/05/97 12:33 Page:302

 Object Unit name= ZII$PATH_MEMORY                            File name= ZII$TOP_LIB.:ZIC0TOU
 UTS= SEP 05 '97 12:33:41.40 FRI                              Compiler= PL-6/E31         Sev=      00
 SharedLib= :SHARED_SYSTEM                                    Alt SharedLib=


    ****  Control sections  ****

 Sect   Type Bound  Init  Size OctSiz  Section name(segment info)
    0  LblCom even  none     1      1  MEMORY_FRAME
    1   DCB   even  none     0      0  M$UC
    2   Data  even  none    16     20  ZII$PATH_MEMORY
    3   Proc  even  none    34     42  ZII$PATH_MEMORY
    4  RoData even  none     3      3  ZII$PATH_MEMORY

    ****  Entry defs  ****

                              Check   Calling
                             calling  sequence
  Sect OctLoc Primary Altret sequence   type   Parms  Name
     3      0   yes    yes     yes      Std        2  ZII$PATH_MEMORY

  ****  Entry refs  ****

         Check        Calling
        calling       sequence
Altret sequence SRef   type   Args  Name
 yes     yes           Std       2 ZII$COMMON_MEMORY
                       nStd      0 X66_AUTO_2
                       nStd      0 X66_ARET
                       nStd      0 X66_AALT

  ****  Data refs  ****

  Flags:  r = read only, s = secondary
Flgs Name                             Flgs Name                             Flgs Name
     M$UC
PL6.E3A0      #005=ZII$PATH_MEMORY File=ZII$TOP_LIB.:ZIC0TSI                     FRI 09/05/97 12:33 Page:303

  ****  Segment refs  ****

  Flags:  r = read only, s = secondary
Flgs Name                             Flgs Name                             Flgs Name
     ISSID                                 NULLSID
PL6.E3A0      #005=ZII$PATH_MEMORY File=ZII$TOP_LIB.:ZIC0TSI                     FRI 09/05/97 12:33 Page:304


     1953        1        /*T***********************************************************/
     1954        2        /*T*                                                         */
     1955        3        /*T* Copyright (c) Bull HN Information Systems Inc., 1997    */
     1956        4        /*T*                                                         */
     1957        5        /*T***********************************************************/
     1958        6        ZII$PATH_MEMORY: PROC (PATH_SLOTS_NEEDED,MODE) ALTRET;

      6  3 000000   000000 700200 xent  ZII$PATH_ME* TSX0  ! X66_AUTO_2
         3 000001   000010 000002                    ZERO    8,2

     1959        7    1   DCL PATH_SLOTS_NEEDED UBIN;
     1960        8    1   DCL NUM_WORDS UBIN AUTO;
     1961        9    1   DCL MODE UBIN;
     1962       10    1   DCL MEMORY_FRAME UBIN(36) EXT;
     1963       11        %EQU GET = 1;
     1964       12        %EQU RLSE = 0;
     1965       13        /**/
     1966       14    1   DCL ZII$COMMON_MEMORY ENTRY(2) ALTRET;
     1967       15        /**/
     1968       16        %INCLUDE CP_6;
     1969       97        %FPT_FDS(FPTN=FDS_FPT,COMMON=YES,RESULTS=RESULTS_VECTOR);
     1970      112        %INCLUDE ZI$PATH_STRUCTS;
     1971      250        %PATH_DESC (STCLASS="STATIC");
     1972      290        %VLP_VECTOR (FPTN=RESULTSE);
     1973      305        %VLP_VECTOR(FPTN=RESULTS_VECTOR);
     1974      320        /**/
     1975      321    1       NUM_WORDS = LENGTHW(PATH_LIST(0))*PATH_SLOTS_NEEDED;

    321  3 000002   200003 470500                    LDP0    @PATH_SLOTS_NEEDED,,AUTO
         3 000003   000000 236100                    LDQ     0,,PR0
         3 000004   000005 402007                    MPY     5,DL
         3 000005   200005 756100                    STQ     NUM_WORDS,,AUTO

     1976      322    1       IF ADDR(MODE) = ADDR(NIL) OR MODE = %GET THEN

    322  3 000006   200004 236100                    LDQ     @MODE,,AUTO
PL6.E3A0      #005=ZII$PATH_MEMORY File=ZII$TOP_LIB.:ZIC0TSI                     FRI 09/05/97 12:33 Page:305
         3 000007   000000 116000 4                  CMPQ    0
         3 000010   000015 600000 3                  TZE     s:324
         3 000011   200004 471500                    LDP1    @MODE,,AUTO
         3 000012   100000 235100                    LDA     0,,PR1
         3 000013   000001 115007                    CMPA    1,DL
         3 000014   000027 601000 3                  TNZ     s:330

     1977      323    2       DO;

     1978      324    2           CALL ZII$COMMON_MEMORY(NUM_WORDS,RESULTSE) ALTRET(ER_COMMON);

    324  3 000015   000002 236000 4                  LDQ     2
         3 000016   200007 756100                    STQ     NUM_WORDS+2,,AUTO
         3 000017   200005 631500                    EPPR1   NUM_WORDS,,AUTO
         3 000020   200006 451500                    STP1    NUM_WORDS+1,,AUTO
         3 000021   200006 630500                    EPPR0   NUM_WORDS+1,,AUTO
         3 000022   000001 631400 4                  EPPR1   1
         3 000023   000000 701000 xent               TSX1    ZII$COMMON_MEMORY
         3 000024   000026 702000 3                  TSX2    ER_COMMON

     1979      325    2           RETURN;

    325  3 000025   000000 702200 xent               TSX2  ! X66_ARET

    324  3 000026                       ER_COMMON    null
     1980      326    2   ER_COMMON:;
     1981      327    2           ALTRETURN;

    327  3 000026   000000 702200 xent               TSX2  ! X66_AALT

     1982      328    2           END;
     1983      329    2       ELSE DO; /* MODE = %RLSE */

     1984      330    2           FDS_FPT.V.SEGSIZE# = NUM_WORDS;

    330  3 000027   200005 720100                    LXL0    NUM_WORDS,,AUTO
         3 000030   000004 440000 2                  SXL0    FDS_FPT+4
PL6.E3A0      #005=ZII$PATH_MEMORY File=ZII$TOP_LIB.:ZIC0TSI                     FRI 09/05/97 12:33 Page:306

     1985      331    2           CALL M$FDS(FDS_FPT);

    331  3 000031   000000 630400 2                  EPPR0   FDS_FPT
         3 000032   030002 713400                    CLIMB   fds
         3 000033   400400 401760                    pmme    nvectors=2

     1986      332    2           RESULTSE = RESULTS_VECTOR;

    332  3 000034   000016 237000 2                  LDAQ    RESULTS_VECTOR
         3 000035   000014 757000 2                  STAQ    RESULTSE

     1987      333    2           MEMORY_FRAME = MEMORY_FRAME - NUM_WORDS;

    333  3 000036   000000 236000 0                  LDQ     MEMORY_FRAME
         3 000037   200005 136100                    SBLQ    NUM_WORDS,,AUTO
         3 000040   000000 756000 0                  STQ     MEMORY_FRAME

     1988      334    2           END;

     1989      335    1   END ZII$PATH_MEMORY;

    335  3 000041   000000 702200 xent               TSX2  ! X66_ARET

FDS_FPT
 Sect OctLoc
   2     000   000001 777640   000004 006000   000001 777640   000016 006000    ................
   2     004   200000 000000   ****** ******                                    ........

PATH_LIST
 Sect OctLoc
   2     006   ****** ******   ****** ******   ****** ******   ****** ******    ................

RESULTSE
 Sect OctLoc
   2     014   000000 177640   000000 006014                                    ........

PL6.E3A0      #005=ZII$PATH_MEMORY File=ZII$TOP_LIB.:ZIC0TSI                     FRI 09/05/97 12:33 Page:307
RESULTS_VECTOR
 Sect OctLoc
   2     016   000000 177640   000000 006014                                    ........

(unnamed)
 Sect OctLoc
   4     000   000000 006014   000002 000000   000014 006000                    ............
     1990      336        %EOD;

PL6.E3A0      #005=ZII$PATH_MEMORY File=ZII$TOP_LIB.:ZIC0TSI                     FRI 09/05/97 12:33 Page:308
--  Include file information  --

   ZI$PATH_STRUCTS.:ZIC0TOU  is referenced.
   CP_6.:LIB_E05  cannot be made into a system file and is referenced.
   B$JIT_C.:E05TOU  was found in the system file and is never referenced.
   CP_6_C.:E05TOU  was found in the system file and is referenced.
      No diagnostics issued in procedure ZII$PATH_MEMORY.

   Procedure ZII$PATH_MEMORY requires 34 words for executable code.
   Procedure ZII$PATH_MEMORY requires 8 words of local(AUTO) storage.
PL6.E3A0      #005=ZII$PATH_MEMORY File=ZII$TOP_LIB.:ZIC0TSI                     FRI 09/05/97 12:33 Page:309
          *** CROSS REFERENCE LISTING ***
**     DENOTES     IDENTIFIER DEFINITION
<<                 IDENTIFIER'S VALUE SET
>>                 IDENTIFIER'S VALUE USED
<>                 IDENTIFIER SET AND/OR USED
--                 IDENTIFIER REFERENCED
PL6.E3A0      #005=ZII$PATH_MEMORY File=ZII$TOP_LIB.:ZIC0TSI                     FRI 09/05/97 12:33 Page:310
          MINI XREF LISTING

ER_COMMON
       324**LABEL     324--CALLALT
FDS_FPT
       108**DCL       331<>CALL
FDS_FPT.V
       108**DCL       108--DCLINIT
FDS_FPT.V.SEGSIZE#
       110**DCL       330<<ASSIGN
M$FDS
        60**DCL-ENT   331--CALL
MEMORY_FRAME
        10**DCL       333<<ASSIGN    333>>ASSIGN
MODE
         9**DCL         6--PROC      322--IF        322>>IF
NUM_WORDS
         8**DCL       321<<ASSIGN    324<>CALL      330>>ASSIGN    333>>ASSIGN
PATH_LIST
       251**DCL       321--ASSIGN
PATH_SLOTS_NEEDED
         7**DCL         6--PROC      321>>ASSIGN
RESULTSE
       301**DCL       324<>CALL      332<<ASSIGN
RESULTSE.W2
       302**DCL       303--REDEF
RESULTS_VECTOR
       316**DCL       108--DCLINIT   332>>ASSIGN
RESULTS_VECTOR.W2
       317**DCL       318--REDEF
ZII$COMMON_MEMORY
        14**DCL-ENT   324--CALL

PL6.E3A0      #006=ZII$PRINT_PATH File=ZII$TOP_LIB.:ZIC0TSI                      FRI 09/05/97 12:33 Page:311
     1991        1        /*T***********************************************************/
     1992        2        /*T*                                                         */
     1993        3        /*T* Copyright (c) Bull HN Information Systems Inc., 1997    */
     1994        4        /*T*                                                         */
     1995        5        /*T***********************************************************/
     1996        6        ZII$PRINT_PATH: PROC(ACCESS_LIST,PATH_LIST,DISPLAY_LIST) ALTRET;
     1997        7
     1998        8        %INCLUDE CP_6;
     1999       89        %INCLUDE ZI$STRUCTS;
     2000      161        %INCLUDE ZI$PATH_STRUCTS;
     2001      299
     2002      300        %NAM1;
     2003      329        %PATH_DESC;
     2004      369        %ACCESS_DESC;
     2005      408        %DISPLAY_DESC;
     2006      419
     2007      420        %EQU TOP_HDR = 'BIDP Topology Analysis:';
     2008      421
     2009      422
     2010      423    1   DCL BUFFER CHAR(120) ALIGNED;
     2011      424    1   DCL BUFX UBIN;
     2012      425    1   DCL M$LO DCB;
     2013      426        %FPT_WRITE(
     2014      427         DCB=M$LO,
     2015      428         VFC=YES);
     2016      459        %MACRO MOVE_LIT(S=,O=BUFX,X=);
     2017      460            CALL INSERT(BUFFER,O,%LENGTHC(S),S);
     2018      461        %IF TEXTCHAR(O) = 'BUFX';
     2019      462            BUFX = BUFX + %LENGTHC(S) X;
     2020      463        %ENDIF;
     2021      464        %MEND;
     2022      465
     2023      466    1   DCL LX UBIN;
     2024      467    1   DCL
     2025      468    1    1 LEVEL(0:100) ALIGNED,
     2026      469    1    2 REC_NO UBIN HALF UNAL,
     2027      470    1    2 BRANCH UBIN HALF UNAL;
PL6.E3A0      #006=ZII$PRINT_PATH File=ZII$TOP_LIB.:ZIC0TSI                      FRI 09/05/97 12:33 Page:312
     2028      471
     2029      472    1   DCL PX UBIN;
     2030      473    1   DCL PN UBIN;
     2031      474    1   DCL REC_NO UBIN;
     2032      475    1   DCL SET_NO UBIN;
     2033      476    1   DCL X UBIN;
     2034      477         %EJECT;
PL6.E3A0      #006=ZII$PRINT_PATH File=ZII$TOP_LIB.:ZIC0TSI                      FRI 09/05/97 12:33 Page:313
     2035      478    1       BUFFER = 'A';
     2036      479    1       FPT_WRITE.BUF_ = VECTOR(SUBSTR(BUFFER,0,2));
     2037      480    1       CALL M$WRITE(FPT_WRITE);
     2038      481    1       CALL INSERT(BUFFER,0,%LENGTHC(TOP_HDR),%TOP_HDR);
     2039      482    1       FPT_WRITE.BUF_.BOUND = %LENGTHC(TOP_HDR) - 1;
     2040      483    1       CALL M$WRITE(FPT_WRITE);
     2041      484
     2042      485    1       PN = PATH_LIST.REC_NO(0);
     2043      486    1       REC_NO = PATH_LIST.REC_NO(1);
     2044      487    1       BUFX = 0;
     2045      488            %MOVE_LIT(S='B  Port is ');
     2046      494    1       CALL MOVE_NAM1(REC_NO);
     2047      495            %MOVE_LIT(S=' access is ');
     2048      501    2       DO CASE(ACCESS_LIST.PORT_TYPE);
     2049      502    2       CASE(%SERIAL_ACCESS);
     2050      503                %MOVE_LIT(S='SERIAL.');
     2051      509    2       CASE(%DIRECT_ACCESS);
     2052      510                %MOVE_LIT(S='DIRECT.');
     2053      516    2       CASE(%CALC_ACCESS);
     2054      517                %MOVE_LIT(S='CALC.');
     2055      523    2       CASE(%KEYED_ACCESS);
     2056      524                %MOVE_LIT(S='KEYED');
     2057      530    2           CALL INSERT(BUFFER,0,1,'A');
     2058      531    2           FPT_WRITE.BUF_.BOUND = BUFX - 1;
     2059      532    2           CALL M$WRITE(FPT_WRITE);
     2060      533    2           BUFX = 0;
     2061      534                %MOVE_LIT(S='B    via ');
     2062      540    2           X = ACCESS_LIST.PORT_KEY;
     2063      541    2           CALL MOVE_NAM1(X);
     2064      542                %MOVE_LIT(S='.');
     2065      548    2       CASE(ELSE);
     2066      549                %MOVE_LIT(S='? bad access mode ?');
     2067      555    2           END;
     2068      556
     2069      557    1       FPT_WRITE.BUF_.BOUND = BUFX - 1;
     2070      558    1       LX = 0;
     2071      559    1       PX = 1;
PL6.E3A0      #006=ZII$PRINT_PATH File=ZII$TOP_LIB.:ZIC0TSI                      FRI 09/05/97 12:33 Page:314
     2072      560    1       CALL TEST_BRANCH_AND_PRINT;
     2073      561
     2074      562    1       SET_NO = PATH_LIST.SET_NO(1);
     2075      563    2       DO PX = 2 TO PN;
     2076      564    2           REC_NO = PATH_LIST.REC_NO(PX);
     2077      565         /*
     2078      566            If the .REPEAT_IND is true, then this is the beginning of a
     2079      567            lambda branch (and not the first branch).  Pop the level stack,
     2080      568            possibly zero times and increment the branch number at the
     2081      569            appropriate level.
     2082      570         */
     2083      571    3           IF PATH_LIST.REPEAT_IND(PX) THEN DO;
     2084      572    3               SET_NO = PATH_LIST.SET_NO(PX);
     2085      573    4               DO WHILE(REC_NO ~= LEVEL.REC_NO(LX));
     2086      574    4                   IF LX > 0
     2087      575    4                   THEN LX = LX - 1;
     2088      576    4                   ELSE ALTRETURN; /* Path list is screwed. */
     2089      577    4                   END;
     2090      578    3               LEVEL.BRANCH(LX) = LEVEL.BRANCH(LX) + 1;
     2091      579    3               CALL PRINT_LAMBDA;
     2092      580    3               END;
     2093      581    3           ELSE DO;
     2094      582         /*
     2095      583            ELSE this is just a regular old node so print it (indented
     2096      584            properly of course).
     2097      585         */
     2098      586    3               BUFFER = 'A';
     2099      587    3               BUFX = LX * 2 + 2;
     2100      588    3               IF BUFX > 22 THEN BUFX = 22;
     2101      589                    %MOVE_LIT(S='Record is',X=+1);
     2102      595    3               CALL MOVE_NAM1(REC_NO);
     2103      596    3               FPT_WRITE.BUF_.BOUND = BUFX - 1;
     2104      597    3               CALL M$WRITE(FPT_WRITE);
     2105      598    3               BUFFER = 'A';
     2106      599    3               BUFX = LX * 2 + 4;
     2107      600    3               IF BUFX > 24 THEN BUFX = 24;
     2108      601                    %MOVE_LIT(S='as member of',X=+1);
PL6.E3A0      #006=ZII$PRINT_PATH File=ZII$TOP_LIB.:ZIC0TSI                      FRI 09/05/97 12:33 Page:315
     2109      607    3               IF PATH_LIST.OWN_NEXT(PX-1) THEN
     2110      608    3                   CALL INSERT(BUFFER,BUFX-%LENGTHC('member of '),6,'owner ');
     2111      609    3               CALL MOVE_NAM1(SET_NO);
     2112      610    3               CALL GET_INDICATORS;
     2113      611    4               DO CASE(X);
     2114      612    4               CASE(0);
     2115      613                        %MOVE_LIT(S=' to complete path.');
     2116      619    4               CASE(1);
     2117      620                        %MOVE_LIT(S=' for constraint.');
     2118      626    4               CASE(2);
     2119      627                        %MOVE_LIT(S=' for display.');
     2120      633    4               CASE(3);
     2121      634                        %MOVE_LIT(S=' for display and constraint.');
     2122      640    4                   END;
     2123      641    3               FPT_WRITE.BUF_.BOUND = BUFX - 1;
     2124      642    3               SET_NO = PATH_LIST.SET_NO(PX);
     2125      643    4               IF SET_NO = 0 THEN DO;
     2126      644    4                   CALL INSERT(BUFFER,0,1,'B');
     2127      645    4                   CALL M$WRITE(FPT_WRITE);
     2128      646    4                   END;
     2129      647    3               ELSE
     2130      648    3                   CALL TEST_BRANCH_AND_PRINT;
     2131      649    3               END;
     2132      650    2           END;
     2133      651    1       RETURN;
     2134      652         %EJECT;
PL6.E3A0      #006=ZII$PRINT_PATH File=ZII$TOP_LIB.:ZIC0TSI                      FRI 09/05/97 12:33 Page:316
     2135      653
     2136      654    1   GET_INDICATORS: PROC;
     2137      655    3       DO X = 1 TO DISPLAY_LIST.REC_NO(0);
     2138      656    4           IF REC_NO = DISPLAY_LIST.REC_NO(X) THEN DO;
     2139      657    4               X = DISPLAY_LIST.IND.DISPLAY(X) * 2 +
     2140      658    4                  DISPLAY_LIST.IND.CONSTRAINT(X);
     2141      659    4               RETURN;
     2142      660    4               END;
     2143      661    3           END;
     2144      662    2       X = 0;
     2145      663    2   END;
     2146      664
     2147      665
     2148      666
     2149      667    1   TEST_BRANCH_AND_PRINT: PROC;
     2150      668    2   DCL I UBIN;
     2151      669
     2152      670    3       DO I = PX+1 TO PN;
     2153      671    4           IF PATH_LIST.REC_NO(I) = REC_NO THEN DO;
     2154      672    4               LX = LX + 1;
     2155      673    4               LEVEL.REC_NO(LX) = REC_NO;
     2156      674    4               LEVEL.BRANCH(LX) = 1;
     2157      675    4               CALL INSERT(BUFFER,0,1,'B');
     2158      676    4               CALL M$WRITE(FPT_WRITE);
     2159      677    4               CALL PRINT_LAMBDA;
     2160      678    4               RETURN;
     2161      679    4               END;
     2162      680    3           END;
     2163      681    2       CALL M$WRITE(FPT_WRITE);
     2164      682    2   END;
     2165      683         %EJECT;
PL6.E3A0      #006=ZII$PRINT_PATH File=ZII$TOP_LIB.:ZIC0TSI                      FRI 09/05/97 12:33 Page:317
     2166      684    1   PRINT_LAMBDA: PROC;
     2167      685    2   DCL BRANCH UBIN;
     2168      686
     2169      687    2       BUFFER = 'A';
     2170      688    2       BUFX = LX * 2;
     2171      689    2       IF BUFX > 20 THEN BUFX = 20;
     2172      690            %MOVE_LIT(S='<< Lambda level',X=+1);
     2173      696    2       CALL XDEC(LX);
     2174      697            %MOVE_LIT(S=' branch',X=+1);
     2175      703    2       BRANCH = LEVEL.BRANCH(LX);
     2176      704    2       CALL XDEC(BRANCH);
     2177      705            %MOVE_LIT(S=' >>');
     2178      711    2       FPT_WRITE.BUF_.BOUND = BUFX - 1;
     2179      712    2       CALL M$WRITE(FPT_WRITE);
     2180      713    2   END;
     2181      714         %EJECT;
PL6.E3A0      #006=ZII$PRINT_PATH File=ZII$TOP_LIB.:ZIC0TSI                      FRI 09/05/97 12:33 Page:318
     2182      715    1   XDEC: PROC(XBIN);
     2183      716    2   DCL XBIN SBIN;
     2184      717    2   DCL XCH CHAR(4) ALIGNED;
     2185      718
     2186      719    2       CALL BINCHAR(XCH,XBIN);
     2187      720    3       IF XBIN < 10 THEN DO;
     2188      721    3           CALL INSERT(BUFFER,BUFX,1,SUBSTR(XCH,3,1));
     2189      722    3           BUFX = BUFX + 1;
     2190      723    3           END;
     2191      724    3       ELSE IF XBIN < 100 THEN DO;
     2192      725    3               CALL INSERT(BUFFER,BUFX,2,SUBSTR(XCH,2,2));
     2193      726    3               BUFX = BUFX + 2;
     2194      727    3               END;
     2195      728    3           ELSE IF XBIN < 1000 THEN DO;
     2196      729    3                   CALL INSERT(BUFFER,BUFX,3,SUBSTR(XCH,1,3));
     2197      730    3                   BUFX = BUFX + 3;
     2198      731    3                   END;
     2199      732    3               ELSE DO;
     2200      733    3                   CALL INSERT(BUFFER,BUFX,4,SUBSTR(XCH,0,4));
     2201      734    3                   BUFX = BUFX + 4;
     2202      735    3                   END;
     2203      736    2   END;
     2204      737
     2205      738
     2206      739
     2207      740    1   MOVE_NAM1: PROC(N1X);
     2208      741    2   DCL N1X UBIN;
     2209      742    2   DCL CNT UBIN;
     2210      743    2       CNT = NAM1.NAME.CNT(N1X);
     2211      744    2       CALL INSERT(BUFFER,BUFX,CNT,
     2212      745    2          SUBSTR(NAM1.NAME.TEXT(N1X),0,CNT));
     2213      746    2       BUFX = BUFX + CNT;
     2214      747    2   END;
     2215      748
     2216      749    1   END; /* ZII$PRINT_PATH */
     2217      750        %EOD;

PL6.E3A0      #006=ZII$PRINT_PATH File=ZII$TOP_LIB.:ZIC0TSI                      FRI 09/05/97 12:33 Page:319
--  Include file information  --

   ZI$PATH_STRUCTS.:ZIC0TOU  is referenced.
   ZI$STRUCTS.:ZIC0TOU  is referenced.
   CP_6.:LIB_E05  cannot be made into a system file and is referenced.
   B$JIT_C.:E05TOU  was found in the system file and is never referenced.
   CP_6_C.:E05TOU  was found in the system file and is referenced.
      No diagnostics issued in procedure ZII$PRINT_PATH.

   Procedure ZII$PRINT_PATH requires 484 words for executable code.
   Procedure ZII$PRINT_PATH requires 154 words of local(AUTO) storage.

PL6.E3A0      #006=ZII$PRINT_PATH File=ZII$TOP_LIB.:ZIC0TSI                      FRI 09/05/97 12:33 Page:320

 Object Unit name= ZII$PRINT_PATH                             File name= ZII$TOP_LIB.:ZIC0TOU
 UTS= SEP 05 '97 12:33:44.80 FRI                              Compiler= PL-6/E31         Sev=      00
 SharedLib= :SHARED_SYSTEM                                    Alt SharedLib=


    ****  Control sections  ****

 Sect   Type Bound  Init  Size OctSiz  Section name(segment info)
    0   DCB   even  none     0      0  M$UC
    1  LblCom even  none     1      1  NAM1$
    2  LblCom even  none     1      1  NAM1_SIZ
    3  LblCom even  none     1      1  NAM1_IDX
    4   DCB   even  none     0      0  M$LO
    5   Data  even  none    12     14  ZII$PRINT_PATH
    6  RoData even  UTS     63     77  ZII$PRINT_PATH
    7   Proc  even  none   484    744  ZII$PRINT_PATH
    8  RoData even  none     4      4  ZII$PRINT_PATH

    ****  Entry defs  ****

                              Check   Calling
                             calling  sequence
  Sect OctLoc Primary Altret sequence   type   Parms  Name
     7      0   yes    yes     yes      Std        3  ZII$PRINT_PATH

  ****  Entry refs  ****

         Check        Calling
        calling       sequence
Altret sequence SRef   type   Args  Name
                       nStd      0 X66_AUTO_3
                       nStd      0 X66_AALT
                       nStd      0 X66_ARET
PL6.E3A0      #006=ZII$PRINT_PATH File=ZII$TOP_LIB.:ZIC0TSI                      FRI 09/05/97 12:33 Page:321

  ****  Data refs  ****

  Flags:  r = read only, s = secondary
Flgs Name                             Flgs Name                             Flgs Name
     M$UC                                  M$LO

  ****  Segment refs  ****

  Flags:  r = read only, s = secondary
Flgs Name                             Flgs Name                             Flgs Name
     ISSID                                 NULLSID
PL6.E3A0      #006=ZII$PRINT_PATH File=ZII$TOP_LIB.:ZIC0TSI                      FRI 09/05/97 12:33 Page:322


     1991        1        /*T***********************************************************/
     1992        2        /*T*                                                         */
     1993        3        /*T* Copyright (c) Bull HN Information Systems Inc., 1997    */
     1994        4        /*T*                                                         */
     1995        5        /*T***********************************************************/
     1996        6        ZII$PRINT_PATH: PROC(ACCESS_LIST,PATH_LIST,DISPLAY_LIST) ALTRET;

      6  7 000000   000000 700200 xent  ZII$PRINT_P* TSX0  ! X66_AUTO_3
         7 000001   000232 000003                    ZERO    154,3

     1997        7
     1998        8        %INCLUDE CP_6;
     1999       89        %INCLUDE ZI$STRUCTS;
     2000      161        %INCLUDE ZI$PATH_STRUCTS;
     2001      299
     2002      300        %NAM1;
     2003      329        %PATH_DESC;
     2004      369        %ACCESS_DESC;
     2005      408        %DISPLAY_DESC;
     2006      419
     2007      420        %EQU TOP_HDR = 'BIDP Topology Analysis:';
     2008      421
     2009      422
     2010      423    1   DCL BUFFER CHAR(120) ALIGNED;
     2011      424    1   DCL BUFX UBIN;
     2012      425    1   DCL M$LO DCB;
     2013      426        %FPT_WRITE(
     2014      427         DCB=M$LO,
     2015      428         VFC=YES);
     2016      459        %MACRO MOVE_LIT(S=,O=BUFX,X=);
     2017      460            CALL INSERT(BUFFER,O,%LENGTHC(S),S);
     2018      461        %IF TEXTCHAR(O) = 'BUFX';
     2019      462            BUFX = BUFX + %LENGTHC(S) X;
     2020      463        %ENDIF;
     2021      464        %MEND;
     2022      465
PL6.E3A0      #006=ZII$PRINT_PATH File=ZII$TOP_LIB.:ZIC0TSI                      FRI 09/05/97 12:33 Page:323
     2023      466    1   DCL LX UBIN;
     2024      467    1   DCL
     2025      468    1    1 LEVEL(0:100) ALIGNED,
     2026      469    1    2 REC_NO UBIN HALF UNAL,
     2027      470    1    2 BRANCH UBIN HALF UNAL;
     2028      471
     2029      472    1   DCL PX UBIN;
     2030      473    1   DCL PN UBIN;
     2031      474    1   DCL REC_NO UBIN;
     2032      475    1   DCL SET_NO UBIN;
     2033      476    1   DCL X UBIN;
     2034      477         %EJECT;
PL6.E3A0      #006=ZII$PRINT_PATH File=ZII$TOP_LIB.:ZIC0TSI                      FRI 09/05/97 12:33 Page:324
     2035      478    1       BUFFER = 'A';

    478  7 000002   040100 100400                    MLR     fill='040'O
         7 000003   000000 000001 8                  ADSC9   0                        cn=0,n=1
         7 000004   200006 000170                    ADSC9   BUFFER,,AUTO             cn=0,n=120

     2036      479    1       FPT_WRITE.BUF_ = VECTOR(SUBSTR(BUFFER,0,2));

    479  7 000005   377640 235007                    LDA     130976,DL
         7 000006   200230 452500                    STP2    XCH+2,,AUTO
         7 000007   200230 236100                    LDQ     XCH+2,,AUTO
         7 000010   000006 036003                    ADLQ    6,DU
         7 000011   000004 757000 5                  STAQ    FPT_WRITE+4

     2037      480    1       CALL M$WRITE(FPT_WRITE);

    480  7 000012   000000 630400 5                  EPPR0   FPT_WRITE
         7 000013   040001 713400                    CLIMB   write
         7 000014   401400 401760                    pmme    nvectors=4

     2038      481    1       CALL INSERT(BUFFER,0,%LENGTHC(TOP_HDR),%TOP_HDR);

    481  7 000015   040100 100400                    MLR     fill='040'O
         7 000016   000000 000027 6                  ADSC9   0                        cn=0,n=23
         7 000017   200006 000027                    ADSC9   BUFFER,,AUTO             cn=0,n=23

     2039      482    1       FPT_WRITE.BUF_.BOUND = %LENGTHC(TOP_HDR) - 1;

    482  7 000020   000004 236000 5                  LDQ     FPT_WRITE+4
         7 000021   177777 376007                    ANQ     65535,DL
         7 000022   000001 276000 8                  ORQ     1
         7 000023   000004 756000 5                  STQ     FPT_WRITE+4

     2040      483    1       CALL M$WRITE(FPT_WRITE);

    483  7 000024   000000 630400 5                  EPPR0   FPT_WRITE
         7 000025   040001 713400                    CLIMB   write
PL6.E3A0      #006=ZII$PRINT_PATH File=ZII$TOP_LIB.:ZIC0TSI                      FRI 09/05/97 12:33 Page:325
         7 000026   401400 401760                    pmme    nvectors=4

     2041      484
     2042      485    1       PN = PATH_LIST.REC_NO(0);

    485  7 000027   200004 470500                    LDP0    @PATH_LIST,,AUTO
         7 000030   000000 236100                    LDQ     0,,PR0
         7 000031   000022 772000                    QRL     18
         7 000032   200214 756100                    STQ     PN,,AUTO

     2043      486    1       REC_NO = PATH_LIST.REC_NO(1);

    486  7 000033   000005 236100                    LDQ     5,,PR0
         7 000034   000022 772000                    QRL     18
         7 000035   200215 756100                    STQ     REC_NO,,AUTO

     2044      487    1       BUFX = 0;

    487  7 000036   200044 450100                    STZ     BUFX,,AUTO

     2045      488            %MOVE_LIT(S='B  Port is ');

    489  7 000037   200044 235100                    LDA     BUFX,,AUTO
         7 000040   040105 100400                    MLR     fill='040'O
         7 000041   000006 000013 6                  ADSC9   6                        cn=0,n=11
         7 000042   200006 000013                    ADSC9   BUFFER,A,AUTO            cn=0,n=11

    491  7 000043   000013 035007                    ADLA    11,DL
         7 000044   200044 755100                    STA     BUFX,,AUTO

     2046      494    1       CALL MOVE_NAM1(REC_NO);

    494  7 000045   200215 631500                    EPPR1   REC_NO,,AUTO
         7 000046   200221 451500                    STP1    X+2,,AUTO
         7 000047   000717 701000 7                  TSX1    MOVE_NAM1
         7 000050   000000 011000                    NOP     0

PL6.E3A0      #006=ZII$PRINT_PATH File=ZII$TOP_LIB.:ZIC0TSI                      FRI 09/05/97 12:33 Page:326
     2047      495            %MOVE_LIT(S=' access is ');

    496  7 000051   200044 235100                    LDA     BUFX,,AUTO
         7 000052   040105 100400                    MLR     fill='040'O
         7 000053   000011 000013 6                  ADSC9   9                        cn=0,n=11
         7 000054   200006 000013                    ADSC9   BUFFER,A,AUTO            cn=0,n=11

    498  7 000055   000013 035007                    ADLA    11,DL
         7 000056   200044 755100                    STA     BUFX,,AUTO

     2048      501    2       DO CASE(ACCESS_LIST.PORT_TYPE);

    501  7 000057   200003 470500                    LDP0    @ACCESS_LIST,,AUTO
         7 000060   000001 220100                    LDX0    1,,PR0
         7 000061   000005 100003                    CMPX0   5,DU
         7 000062   000064 602010 7                  TNC     s:501+5,X0
         7 000063   000161 710000 7                  TRA     s:550
         7 000064   000161 710000 7                  TRA     s:550
         7 000065   000071 710000 7                  TRA     s:504
         7 000066   000077 710000 7                  TRA     s:511
         7 000067   000113 710000 7                  TRA     s:525
         7 000070   000105 710000 7                  TRA     s:518

     2049      502    2       CASE(%SERIAL_ACCESS);

     2050      503                %MOVE_LIT(S='SERIAL.');

    504  7 000071   040105 100400                    MLR     fill='040'O
         7 000072   000014 000007 6                  ADSC9   12                       cn=0,n=7
         7 000073   200006 000007                    ADSC9   BUFFER,A,AUTO            cn=0,n=7

    506  7 000074   000007 035007                    ADLA    7,DL
         7 000075   200044 755100                    STA     BUFX,,AUTO
         7 000076   000166 710000 7                  TRA     s:557

     2051      509    2       CASE(%DIRECT_ACCESS);

PL6.E3A0      #006=ZII$PRINT_PATH File=ZII$TOP_LIB.:ZIC0TSI                      FRI 09/05/97 12:33 Page:327
     2052      510                %MOVE_LIT(S='DIRECT.');

    511  7 000077   040105 100400                    MLR     fill='040'O
         7 000100   000016 000007 6                  ADSC9   14                       cn=0,n=7
         7 000101   200006 000007                    ADSC9   BUFFER,A,AUTO            cn=0,n=7

    513  7 000102   000007 035007                    ADLA    7,DL
         7 000103   200044 755100                    STA     BUFX,,AUTO
         7 000104   000166 710000 7                  TRA     s:557

     2053      516    2       CASE(%CALC_ACCESS);

     2054      517                %MOVE_LIT(S='CALC.');

    518  7 000105   040105 100400                    MLR     fill='040'O
         7 000106   000020 000005 6                  ADSC9   16                       cn=0,n=5
         7 000107   200006 000005                    ADSC9   BUFFER,A,AUTO            cn=0,n=5

    520  7 000110   000005 035007                    ADLA    5,DL
         7 000111   200044 755100                    STA     BUFX,,AUTO
         7 000112   000166 710000 7                  TRA     s:557

     2055      523    2       CASE(%KEYED_ACCESS);

     2056      524                %MOVE_LIT(S='KEYED');

    525  7 000113   040105 100400                    MLR     fill='040'O
         7 000114   000022 000005 6                  ADSC9   18                       cn=0,n=5
         7 000115   200006 000005                    ADSC9   BUFFER,A,AUTO            cn=0,n=5

    527  7 000116   000005 035007                    ADLA    5,DL
         7 000117   200044 755100                    STA     BUFX,,AUTO

     2057      530    2           CALL INSERT(BUFFER,0,1,'A');

    530  7 000120   101000 236003                    LDQ     33280,DU
         7 000121   200006 552140                    STBQ    BUFFER,'40'O,AUTO
PL6.E3A0      #006=ZII$PRINT_PATH File=ZII$TOP_LIB.:ZIC0TSI                      FRI 09/05/97 12:33 Page:328

     2058      531    2           FPT_WRITE.BUF_.BOUND = BUFX - 1;

    531  7 000122   200044 236100                    LDQ     BUFX,,AUTO
         7 000123   000001 136007                    SBLQ    1,DL
         7 000124   000020 736000                    QLS     16
         7 000125   000004 676000 5                  ERQ     FPT_WRITE+4
         7 000126   000002 376000 8                  ANQ     2
         7 000127   000004 656000 5                  ERSQ    FPT_WRITE+4

     2059      532    2           CALL M$WRITE(FPT_WRITE);

    532  7 000130   000000 630400 5                  EPPR0   FPT_WRITE
         7 000131   040001 713400                    CLIMB   write
         7 000132   401400 401760                    pmme    nvectors=4

     2060      533    2           BUFX = 0;

    533  7 000133   200044 450100                    STZ     BUFX,,AUTO

     2061      534                %MOVE_LIT(S='B    via ');

    535  7 000134   200044 235100                    LDA     BUFX,,AUTO
         7 000135   040105 100400                    MLR     fill='040'O
         7 000136   000024 000011 6                  ADSC9   20                       cn=0,n=9
         7 000137   200006 000011                    ADSC9   BUFFER,A,AUTO            cn=0,n=9

    537  7 000140   000011 035007                    ADLA    9,DL
         7 000141   200044 755100                    STA     BUFX,,AUTO

     2062      540    2           X = ACCESS_LIST.PORT_KEY;

    540  7 000142   200003 470500                    LDP0    @ACCESS_LIST,,AUTO
         7 000143   000000 236100                    LDQ     0,,PR0
         7 000144   777777 376007                    ANQ     -1,DL
         7 000145   200217 756100                    STQ     X,,AUTO

PL6.E3A0      #006=ZII$PRINT_PATH File=ZII$TOP_LIB.:ZIC0TSI                      FRI 09/05/97 12:33 Page:329
     2063      541    2           CALL MOVE_NAM1(X);

    541  7 000146   200217 631500                    EPPR1   X,,AUTO
         7 000147   200221 451500                    STP1    X+2,,AUTO
         7 000150   000717 701000 7                  TSX1    MOVE_NAM1
         7 000151   000000 011000                    NOP     0

     2064      542                %MOVE_LIT(S='.');

    543  7 000152   200044 235100                    LDA     BUFX,,AUTO
         7 000153   040105 100400                    MLR     fill='040'O
         7 000154   000003 000001 8                  ADSC9   3                        cn=0,n=1
         7 000155   200006 000001                    ADSC9   BUFFER,A,AUTO            cn=0,n=1

    545  7 000156   000001 035007                    ADLA    1,DL
         7 000157   200044 755100                    STA     BUFX,,AUTO
         7 000160   000166 710000 7                  TRA     s:557

     2065      548    2       CASE(ELSE);

     2066      549                %MOVE_LIT(S='? bad access mode ?');

    550  7 000161   040105 100400                    MLR     fill='040'O
         7 000162   000027 000023 6                  ADSC9   23                       cn=0,n=19
         7 000163   200006 000023                    ADSC9   BUFFER,A,AUTO            cn=0,n=19

    552  7 000164   000023 035007                    ADLA    19,DL
         7 000165   200044 755100                    STA     BUFX,,AUTO

     2067      555    2           END;

     2068      556
     2069      557    1       FPT_WRITE.BUF_.BOUND = BUFX - 1;

    557  7 000166   200044 236100                    LDQ     BUFX,,AUTO
         7 000167   000001 136007                    SBLQ    1,DL
         7 000170   000020 736000                    QLS     16
PL6.E3A0      #006=ZII$PRINT_PATH File=ZII$TOP_LIB.:ZIC0TSI                      FRI 09/05/97 12:33 Page:330
         7 000171   000004 676000 5                  ERQ     FPT_WRITE+4
         7 000172   000002 376000 8                  ANQ     2
         7 000173   000004 656000 5                  ERSQ    FPT_WRITE+4

     2070      558    1       LX = 0;

    558  7 000174   200045 450100                    STZ     LX,,AUTO

     2071      559    1       PX = 1;

    559  7 000175   000001 236007                    LDQ     1,DL
         7 000176   200213 756100                    STQ     PX,,AUTO

     2072      560    1       CALL TEST_BRANCH_AND_PRINT;

    560  7 000177   000512 701000 7                  TSX1    TEST_BRANCH_AND_PRINT
         7 000200   000000 011000                    NOP     0

     2073      561
     2074      562    1       SET_NO = PATH_LIST.SET_NO(1);

    562  7 000201   200004 470500                    LDP0    @PATH_LIST,,AUTO
         7 000202   000005 236100                    LDQ     5,,PR0
         7 000203   777777 376007                    ANQ     -1,DL
         7 000204   200216 756100                    STQ     SET_NO,,AUTO

     2075      563    2       DO PX = 2 TO PN;

    563  7 000205   000002 235007                    LDA     2,DL
         7 000206   200213 755100                    STA     PX,,AUTO
         7 000207   000447 710000 7                  TRA     s:650+3

     2076      564    2           REC_NO = PATH_LIST.REC_NO(PX);

    564  7 000210   200213 236100                    LDQ     PX,,AUTO
         7 000211   000005 402007                    MPY     5,DL
         7 000212   200004 470500                    LDP0    @PATH_LIST,,AUTO
PL6.E3A0      #006=ZII$PRINT_PATH File=ZII$TOP_LIB.:ZIC0TSI                      FRI 09/05/97 12:33 Page:331
         7 000213   000000 236106                    LDQ     0,QL,PR0
         7 000214   000022 772000                    QRL     18
         7 000215   200215 756100                    STQ     REC_NO,,AUTO

     2077      565         /*
     2078      566            If the .REPEAT_IND is true, then this is the beginning of a
     2079      567            lambda branch (and not the first branch).  Pop the level stack,
     2080      568            possibly zero times and increment the branch number at the
     2081      569            appropriate level.
     2082      570         */
     2083      571    3           IF PATH_LIST.REPEAT_IND(PX) THEN DO;

    571  7 000216   200213 236100                    LDQ     PX,,AUTO
         7 000217   000005 402007                    MPY     5,DL
         7 000220   000001 236106                    LDQ     1,QL,PR0
         7 000221   040000 316003                    CANQ    16384,DU
         7 000222   000256 600000 7                  TZE     s:586

     2084      572    3               SET_NO = PATH_LIST.SET_NO(PX);

    572  7 000223   200213 236100                    LDQ     PX,,AUTO
         7 000224   000005 402007                    MPY     5,DL
         7 000225   000000 236106                    LDQ     0,QL,PR0
         7 000226   777777 376007                    ANQ     -1,DL
         7 000227   200216 756100                    STQ     SET_NO,,AUTO

     2085      573    4               DO WHILE(REC_NO ~= LEVEL.REC_NO(LX));

    573  7 000230   200045 720100                    LXL0    LX,,AUTO
         7 000231   200046 236110                    LDQ     LEVEL,X0,AUTO
         7 000232   000022 772000                    QRL     18
         7 000233   200215 116100                    CMPQ    REC_NO,,AUTO
         7 000234   000247 600000 7                  TZE     s:578

     2086      574    4                   IF LX > 0

    574  7 000235   200045 235100                    LDA     LX,,AUTO
PL6.E3A0      #006=ZII$PRINT_PATH File=ZII$TOP_LIB.:ZIC0TSI                      FRI 09/05/97 12:33 Page:332
         7 000236   000242 600000 7                  TZE     s:576

     2087      575    4                   THEN LX = LX - 1;

    575  7 000237   000001 135007                    SBLA    1,DL
         7 000240   200045 755100                    STA     LX,,AUTO
         7 000241   000243 710000 7                  TRA     s:577

     2088      576    4                   ELSE ALTRETURN; /* Path list is screwed. */

    576  7 000242   000000 702200 xent               TSX2  ! X66_AALT

     2089      577    4                   END;

    577  7 000243   200046 236105                    LDQ     LEVEL,AL,AUTO
         7 000244   000022 772000                    QRL     18
         7 000245   200215 116100                    CMPQ    REC_NO,,AUTO
         7 000246   000235 601000 7                  TNZ     s:574

     2090      578    3               LEVEL.BRANCH(LX) = LEVEL.BRANCH(LX) + 1;

    578  7 000247   200045 720100                    LXL0    LX,,AUTO
         7 000250   200046 721110                    LXL1    LEVEL,X0,AUTO
         7 000251   000001 622011                    EAX2    1,X1
         7 000252   200046 442110                    SXL2    LEVEL,X0,AUTO

     2091      579    3               CALL PRINT_LAMBDA;

    579  7 000253   000562 701000 7                  TSX1    PRINT_LAMBDA
         7 000254   000000 011000                    NOP     0

     2092      580    3               END;

    580  7 000255   000444 710000 7                  TRA     s:650

     2093      581    3           ELSE DO;

PL6.E3A0      #006=ZII$PRINT_PATH File=ZII$TOP_LIB.:ZIC0TSI                      FRI 09/05/97 12:33 Page:333
     2094      582         /*
     2095      583            ELSE this is just a regular old node so print it (indented
     2096      584            properly of course).
     2097      585         */
     2098      586    3               BUFFER = 'A';

    586  7 000256   040100 100400                    MLR     fill='040'O
         7 000257   000000 000001 8                  ADSC9   0                        cn=0,n=1
         7 000260   200006 000170                    ADSC9   BUFFER,,AUTO             cn=0,n=120

     2099      587    3               BUFX = LX * 2 + 2;

    587  7 000261   200045 235100                    LDA     LX,,AUTO
         7 000262   000001 735000                    ALS     1
         7 000263   000002 035007                    ADLA    2,DL
         7 000264   200044 755100                    STA     BUFX,,AUTO

     2100      588    3               IF BUFX > 22 THEN BUFX = 22;

    588  7 000265   000027 115007                    CMPA    23,DL
         7 000266   000271 602000 7                  TNC     s:590

    588  7 000267   000026 236007                    LDQ     22,DL
         7 000270   200044 756100                    STQ     BUFX,,AUTO

     2101      589                    %MOVE_LIT(S='Record is',X=+1);

    590  7 000271   200044 236100                    LDQ     BUFX,,AUTO
         7 000272   040106 100400                    MLR     fill='040'O
         7 000273   000034 000011 6                  ADSC9   28                       cn=0,n=9
         7 000274   200006 000011                    ADSC9   BUFFER,Q,AUTO            cn=0,n=9

    592  7 000275   000012 036007                    ADLQ    10,DL
         7 000276   200044 756100                    STQ     BUFX,,AUTO

     2102      595    3               CALL MOVE_NAM1(REC_NO);

PL6.E3A0      #006=ZII$PRINT_PATH File=ZII$TOP_LIB.:ZIC0TSI                      FRI 09/05/97 12:33 Page:334
    595  7 000277   200215 631500                    EPPR1   REC_NO,,AUTO
         7 000300   200221 451500                    STP1    X+2,,AUTO
         7 000301   000717 701000 7                  TSX1    MOVE_NAM1
         7 000302   000000 011000                    NOP     0

     2103      596    3               FPT_WRITE.BUF_.BOUND = BUFX - 1;

    596  7 000303   200044 236100                    LDQ     BUFX,,AUTO
         7 000304   000001 136007                    SBLQ    1,DL
         7 000305   000020 736000                    QLS     16
         7 000306   000004 676000 5                  ERQ     FPT_WRITE+4
         7 000307   000002 376000 8                  ANQ     2
         7 000310   000004 656000 5                  ERSQ    FPT_WRITE+4

     2104      597    3               CALL M$WRITE(FPT_WRITE);

    597  7 000311   000000 630400 5                  EPPR0   FPT_WRITE
         7 000312   040001 713400                    CLIMB   write
         7 000313   401400 401760                    pmme    nvectors=4

     2105      598    3               BUFFER = 'A';

    598  7 000314   040100 100400                    MLR     fill='040'O
         7 000315   000000 000001 8                  ADSC9   0                        cn=0,n=1
         7 000316   200006 000170                    ADSC9   BUFFER,,AUTO             cn=0,n=120

     2106      599    3               BUFX = LX * 2 + 4;

    599  7 000317   200045 235100                    LDA     LX,,AUTO
         7 000320   000001 735000                    ALS     1
         7 000321   000004 035007                    ADLA    4,DL
         7 000322   200044 755100                    STA     BUFX,,AUTO

     2107      600    3               IF BUFX > 24 THEN BUFX = 24;

    600  7 000323   000031 115007                    CMPA    25,DL
         7 000324   000327 602000 7                  TNC     s:602
PL6.E3A0      #006=ZII$PRINT_PATH File=ZII$TOP_LIB.:ZIC0TSI                      FRI 09/05/97 12:33 Page:335

    600  7 000325   000030 236007                    LDQ     24,DL
         7 000326   200044 756100                    STQ     BUFX,,AUTO

     2108      601                    %MOVE_LIT(S='as member of',X=+1);

    602  7 000327   200044 236100                    LDQ     BUFX,,AUTO
         7 000330   040106 100400                    MLR     fill='040'O
         7 000331   000037 000014 6                  ADSC9   31                       cn=0,n=12
         7 000332   200006 000014                    ADSC9   BUFFER,Q,AUTO            cn=0,n=12

    604  7 000333   000015 036007                    ADLQ    13,DL
         7 000334   200044 756100                    STQ     BUFX,,AUTO

     2109      607    3               IF PATH_LIST.OWN_NEXT(PX-1) THEN

    607  7 000335   200213 236100                    LDQ     PX,,AUTO
         7 000336   000005 402007                    MPY     5,DL
         7 000337   200004 470500                    LDP0    @PATH_LIST,,AUTO
         7 000340   077774 234106                    SZN     -4,QL,PR0
         7 000341   000346 605000 7                  TPL     s:609

     2110      608    3                   CALL INSERT(BUFFER,BUFX-%LENGTHC('member of '),6,'owner ');

    608  7 000342   200044 235100                    LDA     BUFX,,AUTO
         7 000343   040105 100400                    MLR     fill='040'O
         7 000344   000042 000006 6                  ADSC9   34                       cn=0,n=6
         7 000345   200003 400006                    ADSC9   @ACCESS_LIST,A,AUTO      cn=2,n=6

     2111      609    3               CALL MOVE_NAM1(SET_NO);

    609  7 000346   200216 631500                    EPPR1   SET_NO,,AUTO
         7 000347   200221 451500                    STP1    X+2,,AUTO
         7 000350   000717 701000 7                  TSX1    MOVE_NAM1
         7 000351   000000 011000                    NOP     0

     2112      610    3               CALL GET_INDICATORS;
PL6.E3A0      #006=ZII$PRINT_PATH File=ZII$TOP_LIB.:ZIC0TSI                      FRI 09/05/97 12:33 Page:336

    610  7 000352   000453 701000 7                  TSX1    GET_INDICATORS
         7 000353   000000 011000                    NOP     0

     2113      611    4               DO CASE(X);

    611  7 000354   200217 235100                    LDA     X,,AUTO
         7 000355   000004 115007                    CMPA    4,DL
         7 000356   000360 602005 7                  TNC     s:611+4,AL
         7 000357   000417 710000 7                  TRA     s:641
         7 000360   000364 710000 7                  TRA     s:614
         7 000361   000373 710000 7                  TRA     s:621
         7 000362   000402 710000 7                  TRA     s:628
         7 000363   000411 710000 7                  TRA     s:635

     2114      612    4               CASE(0);

     2115      613                        %MOVE_LIT(S=' to complete path.');

    614  7 000364   200044 236100                    LDQ     BUFX,,AUTO
         7 000365   040106 100400                    MLR     fill='040'O
         7 000366   000044 000022 6                  ADSC9   36                       cn=0,n=18
         7 000367   200006 000022                    ADSC9   BUFFER,Q,AUTO            cn=0,n=18

    616  7 000370   000022 036007                    ADLQ    18,DL
         7 000371   200044 756100                    STQ     BUFX,,AUTO
         7 000372   000417 710000 7                  TRA     s:641

     2116      619    4               CASE(1);

     2117      620                        %MOVE_LIT(S=' for constraint.');

    621  7 000373   200044 236100                    LDQ     BUFX,,AUTO
         7 000374   040106 100400                    MLR     fill='040'O
         7 000375   000051 000020 6                  ADSC9   41                       cn=0,n=16
         7 000376   200006 000020                    ADSC9   BUFFER,Q,AUTO            cn=0,n=16

PL6.E3A0      #006=ZII$PRINT_PATH File=ZII$TOP_LIB.:ZIC0TSI                      FRI 09/05/97 12:33 Page:337
    623  7 000377   000020 036007                    ADLQ    16,DL
         7 000400   200044 756100                    STQ     BUFX,,AUTO
         7 000401   000417 710000 7                  TRA     s:641

     2118      626    4               CASE(2);

     2119      627                        %MOVE_LIT(S=' for display.');

    628  7 000402   200044 236100                    LDQ     BUFX,,AUTO
         7 000403   040106 100400                    MLR     fill='040'O
         7 000404   000055 000015 6                  ADSC9   45                       cn=0,n=13
         7 000405   200006 000015                    ADSC9   BUFFER,Q,AUTO            cn=0,n=13

    630  7 000406   000015 036007                    ADLQ    13,DL
         7 000407   200044 756100                    STQ     BUFX,,AUTO
         7 000410   000417 710000 7                  TRA     s:641

     2120      633    4               CASE(3);

     2121      634                        %MOVE_LIT(S=' for display and constraint.');

    635  7 000411   200044 236100                    LDQ     BUFX,,AUTO
         7 000412   040106 100400                    MLR     fill='040'O
         7 000413   000061 000034 6                  ADSC9   49                       cn=0,n=28
         7 000414   200006 000034                    ADSC9   BUFFER,Q,AUTO            cn=0,n=28

    637  7 000415   000034 036007                    ADLQ    28,DL
         7 000416   200044 756100                    STQ     BUFX,,AUTO

     2122      640    4                   END;

     2123      641    3               FPT_WRITE.BUF_.BOUND = BUFX - 1;

    641  7 000417   200044 236100                    LDQ     BUFX,,AUTO
         7 000420   000001 136007                    SBLQ    1,DL
         7 000421   000020 736000                    QLS     16
         7 000422   000004 676000 5                  ERQ     FPT_WRITE+4
PL6.E3A0      #006=ZII$PRINT_PATH File=ZII$TOP_LIB.:ZIC0TSI                      FRI 09/05/97 12:33 Page:338
         7 000423   000002 376000 8                  ANQ     2
         7 000424   000004 656000 5                  ERSQ    FPT_WRITE+4

     2124      642    3               SET_NO = PATH_LIST.SET_NO(PX);

    642  7 000425   200213 236100                    LDQ     PX,,AUTO
         7 000426   000005 402007                    MPY     5,DL
         7 000427   200004 470500                    LDP0    @PATH_LIST,,AUTO
         7 000430   000000 236106                    LDQ     0,QL,PR0
         7 000431   777777 376007                    ANQ     -1,DL
         7 000432   200216 756100                    STQ     SET_NO,,AUTO

     2125      643    4               IF SET_NO = 0 THEN DO;

    643  7 000433   000442 601000 7                  TNZ     s:648

     2126      644    4                   CALL INSERT(BUFFER,0,1,'B');

    644  7 000434   102000 236003                    LDQ     33792,DU
         7 000435   200006 552140                    STBQ    BUFFER,'40'O,AUTO

     2127      645    4                   CALL M$WRITE(FPT_WRITE);

    645  7 000436   000000 630400 5                  EPPR0   FPT_WRITE
         7 000437   040001 713400                    CLIMB   write
         7 000440   401400 401760                    pmme    nvectors=4

     2128      646    4                   END;

    646  7 000441   000444 710000 7                  TRA     s:650

     2129      647    3               ELSE
     2130      648    3                   CALL TEST_BRANCH_AND_PRINT;

    648  7 000442   000512 701000 7                  TSX1    TEST_BRANCH_AND_PRINT
         7 000443   000000 011000                    NOP     0

PL6.E3A0      #006=ZII$PRINT_PATH File=ZII$TOP_LIB.:ZIC0TSI                      FRI 09/05/97 12:33 Page:339
     2131      649    3               END;

     2132      650    2           END;

    650  7 000444   200213 235100                    LDA     PX,,AUTO
         7 000445   000001 035007                    ADLA    1,DL
         7 000446   200213 755100                    STA     PX,,AUTO
         7 000447   200214 236100                    LDQ     PN,,AUTO
         7 000450   200213 116100                    CMPQ    PX,,AUTO
         7 000451   000210 603000 7                  TRC     s:564

     2133      651    1       RETURN;

    651  7 000452   000000 702200 xent               TSX2  ! X66_ARET

     2134      652         %EJECT;
PL6.E3A0      #006=ZII$PRINT_PATH File=ZII$TOP_LIB.:ZIC0TSI                      FRI 09/05/97 12:33 Page:340
     2135      653
     2136      654    1   GET_INDICATORS: PROC;

    654  7 000453   200220 741300       GET_INDICAT* STX1  ! X+1,,AUTO

     2137      655    3       DO X = 1 TO DISPLAY_LIST.REC_NO(0);

    655  7 000454   000001 235007                    LDA     1,DL
         7 000455   200217 755100                    STA     X,,AUTO
         7 000456   000502 710000 7                  TRA     s:661+3

     2138      656    4           IF REC_NO = DISPLAY_LIST.REC_NO(X) THEN DO;

    656  7 000457   200005 470500                    LDP0    @DISPLAY_LIST,,AUTO
         7 000460   200217 720100                    LXL0    X,,AUTO
         7 000461   000000 236110                    LDQ     0,X0,PR0
         7 000462   777777 376007                    ANQ     -1,DL
         7 000463   200215 116100                    CMPQ    REC_NO,,AUTO
         7 000464   000477 601000 7                  TNZ     s:661

     2139      657    4               X = DISPLAY_LIST.IND.DISPLAY(X) * 2 +

    657  7 000465   000000 236110                    LDQ     0,X0,PR0
         7 000466   000033 772000                    QRL     27
         7 000467   200230 756100                    STQ     XCH+2,,AUTO
         7 000470   000000 236110                    LDQ     0,X0,PR0
         7 000471   000021 772000                    QRL     17
         7 000472   001776 376007                    ANQ     1022,DL
         7 000473   200230 036100                    ADLQ    XCH+2,,AUTO
         7 000474   200217 756100                    STQ     X,,AUTO

     2140      658    4                  DISPLAY_LIST.IND.CONSTRAINT(X);
     2141      659    4               RETURN;

    659  7 000475   200220 221300                    LDX1  ! X+1,,AUTO
         7 000476   000001 702211                    TSX2  ! 1,X1

PL6.E3A0      #006=ZII$PRINT_PATH File=ZII$TOP_LIB.:ZIC0TSI                      FRI 09/05/97 12:33 Page:341
     2142      660    4               END;
     2143      661    3           END;

    661  7 000477   200217 235100                    LDA     X,,AUTO
         7 000500   000001 035007                    ADLA    1,DL
         7 000501   200217 755100                    STA     X,,AUTO
         7 000502   200005 470500                    LDP0    @DISPLAY_LIST,,AUTO
         7 000503   000000 236100                    LDQ     0,,PR0
         7 000504   777777 376007                    ANQ     -1,DL
         7 000505   200217 116100                    CMPQ    X,,AUTO
         7 000506   000457 603000 7                  TRC     s:656

     2144      662    2       X = 0;

    662  7 000507   200217 450100                    STZ     X,,AUTO

     2145      663    2   END;

    663  7 000510   200220 221300                    LDX1  ! X+1,,AUTO
         7 000511   000001 702211                    TSX2  ! 1,X1

     2146      664
     2147      665
     2148      666
     2149      667    1   TEST_BRANCH_AND_PRINT: PROC;

    667  7 000512   200220 741300       TEST_BRANCH* STX1  ! X+1,,AUTO

     2150      668    2   DCL I UBIN;
     2151      669
     2152      670    3       DO I = PX+1 TO PN;

    670  7 000513   200213 235100                    LDA     PX,,AUTO
         7 000514   000001 035007                    ADLA    1,DL
         7 000515   200221 755100                    STA     I,,AUTO
         7 000516   000552 710000 7                  TRA     s:680+3

PL6.E3A0      #006=ZII$PRINT_PATH File=ZII$TOP_LIB.:ZIC0TSI                      FRI 09/05/97 12:33 Page:342
     2153      671    4           IF PATH_LIST.REC_NO(I) = REC_NO THEN DO;

    671  7 000517   200221 236100                    LDQ     I,,AUTO
         7 000520   000005 402007                    MPY     5,DL
         7 000521   200004 470500                    LDP0    @PATH_LIST,,AUTO
         7 000522   000000 236106                    LDQ     0,QL,PR0
         7 000523   000022 772000                    QRL     18
         7 000524   200215 116100                    CMPQ    REC_NO,,AUTO
         7 000525   000547 601000 7                  TNZ     s:680

     2154      672    4               LX = LX + 1;

    672  7 000526   200045 235100                    LDA     LX,,AUTO
         7 000527   000001 035007                    ADLA    1,DL
         7 000530   200045 755100                    STA     LX,,AUTO

     2155      673    4               LEVEL.REC_NO(LX) = REC_NO;

    673  7 000531   200215 720100                    LXL0    REC_NO,,AUTO
         7 000532   200046 740105                    STX0    LEVEL,AL,AUTO

     2156      674    4               LEVEL.BRANCH(LX) = 1;

    674  7 000533   000001 221003                    LDX1    1,DU
         7 000534   200045 722100                    LXL2    LX,,AUTO
         7 000535   200046 441112                    SXL1    LEVEL,X2,AUTO

     2157      675    4               CALL INSERT(BUFFER,0,1,'B');

    675  7 000536   102000 236003                    LDQ     33792,DU
         7 000537   200006 552140                    STBQ    BUFFER,'40'O,AUTO

     2158      676    4               CALL M$WRITE(FPT_WRITE);

    676  7 000540   000000 630400 5                  EPPR0   FPT_WRITE
         7 000541   040001 713400                    CLIMB   write
         7 000542   401400 401760                    pmme    nvectors=4
PL6.E3A0      #006=ZII$PRINT_PATH File=ZII$TOP_LIB.:ZIC0TSI                      FRI 09/05/97 12:33 Page:343

     2159      677    4               CALL PRINT_LAMBDA;

    677  7 000543   000562 701000 7                  TSX1    PRINT_LAMBDA
         7 000544   000000 011000                    NOP     0

     2160      678    4               RETURN;

    678  7 000545   200220 221300                    LDX1  ! X+1,,AUTO
         7 000546   000001 702211                    TSX2  ! 1,X1

     2161      679    4               END;
     2162      680    3           END;

    680  7 000547   200221 235100                    LDA     I,,AUTO
         7 000550   000001 035007                    ADLA    1,DL
         7 000551   200221 755100                    STA     I,,AUTO
         7 000552   200214 236100                    LDQ     PN,,AUTO
         7 000553   200221 116100                    CMPQ    I,,AUTO
         7 000554   000517 603000 7                  TRC     s:671

     2163      681    2       CALL M$WRITE(FPT_WRITE);

    681  7 000555   000000 630400 5                  EPPR0   FPT_WRITE
         7 000556   040001 713400                    CLIMB   write
         7 000557   401400 401760                    pmme    nvectors=4

     2164      682    2   END;

    682  7 000560   200220 221300                    LDX1  ! X+1,,AUTO
         7 000561   000001 702211                    TSX2  ! 1,X1

     2165      683         %EJECT;
PL6.E3A0      #006=ZII$PRINT_PATH File=ZII$TOP_LIB.:ZIC0TSI                      FRI 09/05/97 12:33 Page:344
     2166      684    1   PRINT_LAMBDA: PROC;

    684  7 000562   200222 741300       PRINT_LAMBDA STX1  ! @N1X+1,,AUTO

     2167      685    2   DCL BRANCH UBIN;
     2168      686
     2169      687    2       BUFFER = 'A';

    687  7 000563   040100 100400                    MLR     fill='040'O
         7 000564   000000 000001 8                  ADSC9   0                        cn=0,n=1
         7 000565   200006 000170                    ADSC9   BUFFER,,AUTO             cn=0,n=120

     2170      688    2       BUFX = LX * 2;

    688  7 000566   200045 235100                    LDA     LX,,AUTO
         7 000567   000001 735000                    ALS     1
         7 000570   200044 755100                    STA     BUFX,,AUTO

     2171      689    2       IF BUFX > 20 THEN BUFX = 20;

    689  7 000571   000025 115007                    CMPA    21,DL
         7 000572   000575 602000 7                  TNC     s:691

    689  7 000573   000024 236007                    LDQ     20,DL
         7 000574   200044 756100                    STQ     BUFX,,AUTO

     2172      690            %MOVE_LIT(S='<< Lambda level',X=+1);

    691  7 000575   200044 236100                    LDQ     BUFX,,AUTO
         7 000576   040106 100400                    MLR     fill='040'O
         7 000577   000070 000017 6                  ADSC9   56                       cn=0,n=15
         7 000600   200006 000017                    ADSC9   BUFFER,Q,AUTO            cn=0,n=15

    693  7 000601   000020 036007                    ADLQ    16,DL
         7 000602   200044 756100                    STQ     BUFX,,AUTO

     2173      696    2       CALL XDEC(LX);
PL6.E3A0      #006=ZII$PRINT_PATH File=ZII$TOP_LIB.:ZIC0TSI                      FRI 09/05/97 12:33 Page:345

    696  7 000603   200045 630500                    EPPR0   LX,,AUTO
         7 000604   200225 450500                    STP0    BRANCH+2,,AUTO
         7 000605   000646 701000 7                  TSX1    XDEC
         7 000606   000000 011000                    NOP     0

     2174      697            %MOVE_LIT(S=' branch',X=+1);

    698  7 000607   200044 235100                    LDA     BUFX,,AUTO
         7 000610   040105 100400                    MLR     fill='040'O
         7 000611   000074 000007 6                  ADSC9   60                       cn=0,n=7
         7 000612   200006 000007                    ADSC9   BUFFER,A,AUTO            cn=0,n=7

    700  7 000613   000010 035007                    ADLA    8,DL
         7 000614   200044 755100                    STA     BUFX,,AUTO

     2175      703    2       BRANCH = LEVEL.BRANCH(LX);

    703  7 000615   200045 720100                    LXL0    LX,,AUTO
         7 000616   200046 236110                    LDQ     LEVEL,X0,AUTO
         7 000617   777777 376007                    ANQ     -1,DL
         7 000620   200223 756100                    STQ     BRANCH,,AUTO

     2176      704    2       CALL XDEC(BRANCH);

    704  7 000621   200223 630500                    EPPR0   BRANCH,,AUTO
         7 000622   200225 450500                    STP0    BRANCH+2,,AUTO
         7 000623   000646 701000 7                  TSX1    XDEC
         7 000624   000000 011000                    NOP     0

     2177      705            %MOVE_LIT(S=' >>');

    706  7 000625   200044 235100                    LDA     BUFX,,AUTO
         7 000626   040105 100400                    MLR     fill='040'O
         7 000627   000076 000003 6                  ADSC9   62                       cn=0,n=3
         7 000630   200006 000003                    ADSC9   BUFFER,A,AUTO            cn=0,n=3

PL6.E3A0      #006=ZII$PRINT_PATH File=ZII$TOP_LIB.:ZIC0TSI                      FRI 09/05/97 12:33 Page:346
    708  7 000631   000003 035007                    ADLA    3,DL
         7 000632   200044 755100                    STA     BUFX,,AUTO

     2178      711    2       FPT_WRITE.BUF_.BOUND = BUFX - 1;

    711  7 000633   200044 236100                    LDQ     BUFX,,AUTO
         7 000634   000001 136007                    SBLQ    1,DL
         7 000635   000020 736000                    QLS     16
         7 000636   000004 676000 5                  ERQ     FPT_WRITE+4
         7 000637   000002 376000 8                  ANQ     2
         7 000640   000004 656000 5                  ERSQ    FPT_WRITE+4

     2179      712    2       CALL M$WRITE(FPT_WRITE);

    712  7 000641   000000 630400 5                  EPPR0   FPT_WRITE
         7 000642   040001 713400                    CLIMB   write
         7 000643   401400 401760                    pmme    nvectors=4

     2180      713    2   END;

    713  7 000644   200222 221300                    LDX1  ! @N1X+1,,AUTO
         7 000645   000001 702211                    TSX2  ! 1,X1

     2181      714         %EJECT;
PL6.E3A0      #006=ZII$PRINT_PATH File=ZII$TOP_LIB.:ZIC0TSI                      FRI 09/05/97 12:33 Page:347
     2182      715    1   XDEC: PROC(XBIN);

    715  7 000646   200224 741300       XDEC         STX1  ! BRANCH+1,,AUTO

     2183      716    2   DCL XBIN SBIN;
     2184      717    2   DCL XCH CHAR(4) ALIGNED;
     2185      718
     2186      719    2       CALL BINCHAR(XCH,XBIN);

    719  7 000647   200225 470500                    LDP0    @XBIN,,AUTO
         7 000650   000100 301500                    BTD
         7 000651   000000 000004                    NDSC9   0,,PR0                   cn=0,s=lsgnf,sf=0,n=4
         7 000652   200226 030004                    NDSC9   XCH,,AUTO                cn=0,s=nosgn,sf=0,n=4

     2187      720    3       IF XBIN < 10 THEN DO;

    720  7 000653   000000 235100                    LDA     0,,PR0
         7 000654   000012 115007                    CMPA    10,DL
         7 000655   000665 605000 7                  TPL     s:724

     2188      721    3           CALL INSERT(BUFFER,BUFX,1,SUBSTR(XCH,3,1));

    721  7 000656   200044 236100                    LDQ     BUFX,,AUTO
         7 000657   040106 100500                    MLR     fill='040'O
         7 000660   200226 600001                    ADSC9   XCH,,AUTO                cn=3,n=1
         7 000661   200006 000001                    ADSC9   BUFFER,Q,AUTO            cn=0,n=1

     2189      722    3           BUFX = BUFX + 1;

    722  7 000662   000001 036007                    ADLQ    1,DL
         7 000663   200044 756100                    STQ     BUFX,,AUTO

     2190      723    3           END;

    723  7 000664   000715 710000 7                  TRA     s:736

     2191      724    3       ELSE IF XBIN < 100 THEN DO;
PL6.E3A0      #006=ZII$PRINT_PATH File=ZII$TOP_LIB.:ZIC0TSI                      FRI 09/05/97 12:33 Page:348

    724  7 000665   000144 115007                    CMPA    100,DL
         7 000666   000676 605000 7                  TPL     s:728

     2192      725    3               CALL INSERT(BUFFER,BUFX,2,SUBSTR(XCH,2,2));

    725  7 000667   200044 236100                    LDQ     BUFX,,AUTO
         7 000670   040106 100500                    MLR     fill='040'O
         7 000671   200226 400002                    ADSC9   XCH,,AUTO                cn=2,n=2
         7 000672   200006 000002                    ADSC9   BUFFER,Q,AUTO            cn=0,n=2

     2193      726    3               BUFX = BUFX + 2;

    726  7 000673   000002 036007                    ADLQ    2,DL
         7 000674   200044 756100                    STQ     BUFX,,AUTO

     2194      727    3               END;

    727  7 000675   000715 710000 7                  TRA     s:736

     2195      728    3           ELSE IF XBIN < 1000 THEN DO;

    728  7 000676   001750 115007                    CMPA    1000,DL
         7 000677   000707 605000 7                  TPL     s:733

     2196      729    3                   CALL INSERT(BUFFER,BUFX,3,SUBSTR(XCH,1,3));

    729  7 000700   200044 236100                    LDQ     BUFX,,AUTO
         7 000701   040106 100500                    MLR     fill='040'O
         7 000702   200226 200003                    ADSC9   XCH,,AUTO                cn=1,n=3
         7 000703   200006 000003                    ADSC9   BUFFER,Q,AUTO            cn=0,n=3

     2197      730    3                   BUFX = BUFX + 3;

    730  7 000704   000003 036007                    ADLQ    3,DL
         7 000705   200044 756100                    STQ     BUFX,,AUTO

PL6.E3A0      #006=ZII$PRINT_PATH File=ZII$TOP_LIB.:ZIC0TSI                      FRI 09/05/97 12:33 Page:349
     2198      731    3                   END;

    731  7 000706   000715 710000 7                  TRA     s:736

     2199      732    3               ELSE DO;

     2200      733    3                   CALL INSERT(BUFFER,BUFX,4,SUBSTR(XCH,0,4));

    733  7 000707   200044 236100                    LDQ     BUFX,,AUTO
         7 000710   040106 100500                    MLR     fill='040'O
         7 000711   200226 000004                    ADSC9   XCH,,AUTO                cn=0,n=4
         7 000712   200006 000004                    ADSC9   BUFFER,Q,AUTO            cn=0,n=4

     2201      734    3                   BUFX = BUFX + 4;

    734  7 000713   000004 036007                    ADLQ    4,DL
         7 000714   200044 756100                    STQ     BUFX,,AUTO

     2202      735    3                   END;

     2203      736    2   END;

    736  7 000715   200224 221300                    LDX1  ! BRANCH+1,,AUTO
         7 000716   000001 702211                    TSX2  ! 1,X1

     2204      737
     2205      738
     2206      739
     2207      740    1   MOVE_NAM1: PROC(N1X);

    740  7 000717   200220 741300       MOVE_NAM1    STX1  ! X+1,,AUTO

     2208      741    2   DCL N1X UBIN;
     2209      742    2   DCL CNT UBIN;
     2210      743    2       CNT = NAM1.NAME.CNT(N1X);

    743  7 000720   200221 470500                    LDP0    @N1X,,AUTO
PL6.E3A0      #006=ZII$PRINT_PATH File=ZII$TOP_LIB.:ZIC0TSI                      FRI 09/05/97 12:33 Page:350
         7 000721   000000 236100                    LDQ     0,,PR0
         7 000722   000012 402007                    MPY     10,DL
         7 000723   000000 471400 1                  LDP1    NAM1$
         7 000724   100000 236106                    LDQ     0,QL,PR1
         7 000725   000777 376007                    ANQ     511,DL
         7 000726   200222 756100                    STQ     CNT,,AUTO

     2211      744    2       CALL INSERT(BUFFER,BUFX,CNT,

    744  7 000727   000000 236100                    LDQ     0,,PR0
         7 000730   000012 402007                    MPY     10,DL
         7 000731   000002 736000                    QLS     2
         7 000732   200222 720100                    LXL0    CNT,,AUTO
         7 000733   200044 235100                    LDA     BUFX,,AUTO
         7 000734   040145 100546                    MLR     fill='040'O
         7 000735   100001 000010                    ADSC9   1,Q,PR1                  cn=0,n=*X0
         7 000736   200006 000010                    ADSC9   BUFFER,A,AUTO            cn=0,n=*X0

     2212      745    2          SUBSTR(NAM1.NAME.TEXT(N1X),0,CNT));
     2213      746    2       BUFX = BUFX + CNT;

    746  7 000737   200044 236100                    LDQ     BUFX,,AUTO
         7 000740   200222 036100                    ADLQ    CNT,,AUTO
         7 000741   200044 756100                    STQ     BUFX,,AUTO

     2214      747    2   END;

    747  7 000742   200220 221300                    LDX1  ! X+1,,AUTO
         7 000743   000001 702211                    TSX2  ! 1,X1

FPT_WRITE
 Sect OctLoc
   5     000   000003 777640   000010 006000   000000 177640   000000 006014    ................
   5     004   000000 177640   000000 006014   000000 177640   000000 006014    ................
   5     010   000000 400400   000000 000000   000000 000000   100000 000000    ............@...

(unnamed)
PL6.E3A0      #006=ZII$PRINT_PATH File=ZII$TOP_LIB.:ZIC0TSI                      FRI 09/05/97 12:33 Page:351
 Sect OctLoc
   6     000   102111 104120   040124 157160   157154 157147   171040 101156    BIDP Topology An
   6     004   141154 171163   151163 072040   102040 040120   157162 164040    alysis: B  Port
   6     010   151163 040040   040141 143143   145163 163040   151163 040040    is   access is
   6     014   123105 122111   101114 056040   104111 122105   103124 056040    SERIAL. DIRECT.
   6     020   103101 114103   056040 040040   113105 131105   104040 040040    CALC.   KEYED
   6     024   102040 040040   040166 151141   040040 040040   077040 142141    B    via    ? ba
   6     030   144040 141143   143145 163163   040155 157144   145040 077040    d access mode ?
   6     034   122145 143157   162144 040151   163040 040040   141163 040155    Record is   as m
   6     040   145155 142145   162040 157146   157167 156145   162040 040040    ember ofowner
   6     044   040164 157040   143157 155160   154145 164145   040160 141164     to complete pat
   6     050   150056 040040   040146 157162   040143 157156   163164 162141    h.   for constra
   6     054   151156 164056   040146 157162   040144 151163   160154 141171    int. for display
   6     060   056040 040040   040146 157162   040144 151163   160154 141171    .    for display
   6     064   040141 156144   040143 157156   163164 162141   151156 164056     and constraint.
   6     070   074074 040114   141155 142144   141040 154145   166145 154040    << Lambda level
   6     074   040142 162141   156143 150040   040076 076040                     branch  >>

(unnamed)
 Sect OctLoc
   8     000   101040 040040   000005 400000   777777 600000   056040 040040    A   .........
     2215      748
     2216      749    1   END; /* ZII$PRINT_PATH */
     2217      750        %EOD;

PL6.E3A0      #006=ZII$PRINT_PATH File=ZII$TOP_LIB.:ZIC0TSI                      FRI 09/05/97 12:33 Page:352
--  Include file information  --

   ZI$PATH_STRUCTS.:ZIC0TOU  is referenced.
   ZI$STRUCTS.:ZIC0TOU  is referenced.
   CP_6.:LIB_E05  cannot be made into a system file and is referenced.
   B$JIT_C.:E05TOU  was found in the system file and is never referenced.
   CP_6_C.:E05TOU  was found in the system file and is referenced.
      No diagnostics issued in procedure ZII$PRINT_PATH.

   Procedure ZII$PRINT_PATH requires 484 words for executable code.
   Procedure ZII$PRINT_PATH requires 154 words of local(AUTO) storage.
PL6.E3A0      #006=ZII$PRINT_PATH File=ZII$TOP_LIB.:ZIC0TSI                      FRI 09/05/97 12:33 Page:353
          *** CROSS REFERENCE LISTING ***
**     DENOTES     IDENTIFIER DEFINITION
<<                 IDENTIFIER'S VALUE SET
>>                 IDENTIFIER'S VALUE USED
<>                 IDENTIFIER SET AND/OR USED
--                 IDENTIFIER REFERENCED
PL6.E3A0      #006=ZII$PRINT_PATH File=ZII$TOP_LIB.:ZIC0TSI                      FRI 09/05/97 12:33 Page:354
          MINI XREF LISTING

ACCESS_LIST
       370**DCL         6--PROC
ACCESS_LIST.DIRECT
       382**DCL       384--REDEF     391--REDEF
ACCESS_LIST.PORT_KEY
       373**DCL       540>>ASSIGN
ACCESS_LIST.PORT_TYPE
       375**DCL       501>>DOCASE
BRANCH IN PROCEDURE PRINT_LAMBDA
       685**DCL       703<<ASSIGN    704<>CALL
BUFFER
       423**DCL       478<<ASSIGN    479--ASSIGN    481<<CALLBLT   489<<CALLBLT   496<<CALLBLT   504<<CALLBLT
       511<<CALLBLT   518<<CALLBLT   525<<CALLBLT   530<<CALLBLT   535<<CALLBLT   543<<CALLBLT   550<<CALLBLT
       586<<ASSIGN    590<<CALLBLT   598<<ASSIGN    602<<CALLBLT   608<<CALLBLT   614<<CALLBLT   621<<CALLBLT
       628<<CALLBLT   635<<CALLBLT   644<<CALLBLT   675<<CALLBLT   687<<ASSIGN    691<<CALLBLT   698<<CALLBLT
       706<<CALLBLT   721<<CALLBLT   725<<CALLBLT   729<<CALLBLT   733<<CALLBLT   744<<CALLBLT
BUFX
       424**DCL       487<<ASSIGN    489>>CALLBLT   491<<ASSIGN    491>>ASSIGN    496>>CALLBLT   498<<ASSIGN
       498>>ASSIGN    504>>CALLBLT   506<<ASSIGN    506>>ASSIGN    511>>CALLBLT   513<<ASSIGN    513>>ASSIGN
       518>>CALLBLT   520<<ASSIGN    520>>ASSIGN    525>>CALLBLT   527<<ASSIGN    527>>ASSIGN    531>>ASSIGN
       533<<ASSIGN    535>>CALLBLT   537<<ASSIGN    537>>ASSIGN    543>>CALLBLT   545<<ASSIGN    545>>ASSIGN
       550>>CALLBLT   552<<ASSIGN    552>>ASSIGN    557>>ASSIGN    587<<ASSIGN    588>>IF        588<<ASSIGN
       590>>CALLBLT   592<<ASSIGN    592>>ASSIGN    596>>ASSIGN    599<<ASSIGN    600>>IF        600<<ASSIGN
       602>>CALLBLT   604<<ASSIGN    604>>ASSIGN    608>>CALLBLT   614>>CALLBLT   616<<ASSIGN    616>>ASSIGN
       621>>CALLBLT   623<<ASSIGN    623>>ASSIGN    628>>CALLBLT   630<<ASSIGN    630>>ASSIGN    635>>CALLBLT
       637<<ASSIGN    637>>ASSIGN    641>>ASSIGN    688<<ASSIGN    689>>IF        689<<ASSIGN    691>>CALLBLT
       693<<ASSIGN    693>>ASSIGN    698>>CALLBLT   700<<ASSIGN    700>>ASSIGN    706>>CALLBLT   708<<ASSIGN
       708>>ASSIGN    711>>ASSIGN    721>>CALLBLT   722<<ASSIGN    722>>ASSIGN    725>>CALLBLT   726<<ASSIGN
       726>>ASSIGN    729>>CALLBLT   730<<ASSIGN    730>>ASSIGN    733>>CALLBLT   734<<ASSIGN    734>>ASSIGN
       744>>CALLBLT   746<<ASSIGN    746>>ASSIGN
CNT IN PROCEDURE MOVE_NAM1
       742**DCL       743<<ASSIGN    744>>CALLBLT   744>>CALLBLT   746>>ASSIGN
PL6.E3A0      #006=ZII$PRINT_PATH File=ZII$TOP_LIB.:ZIC0TSI                      FRI 09/05/97 12:33 Page:355
DISPLAY_LIST
       409**DCL         6--PROC
DISPLAY_LIST.IND.CONSTRAINT
       412**DCL       657>>ASSIGN
DISPLAY_LIST.IND.DISPLAY
       414**DCL       657>>ASSIGN
DISPLAY_LIST.REC_NO
       416**DCL       655>>DOINDEX   656>>IF
FPT_WRITE
       445**DCL       480<>CALL      483<>CALL      532<>CALL      597<>CALL      645<>CALL      676<>CALL
       681<>CALL      712<>CALL
FPT_WRITE.BUF_
       445**DCL       479<<ASSIGN
FPT_WRITE.BUF_.BOUND
       445**DCL       482<<ASSIGN    531<<ASSIGN    557<<ASSIGN    596<<ASSIGN    641<<ASSIGN    711<<ASSIGN
FPT_WRITE.STATION_
       447**DCL       447--REDEF
FPT_WRITE.V
       448**DCL       445--DCLINIT
FPT_WRITE.V.DVBYTE.VFC#
       454**DCL       454--REDEF
GET_INDICATORS
       654**PROC      610--CALL
I IN PROCEDURE TEST_BRANCH_AND_PRINT
       668**DCL       670<<DOINDEX   671>>IF
LEVEL.BRANCH
       470**DCL       578<<ASSIGN    578>>ASSIGN    674<<ASSIGN    703>>ASSIGN
LEVEL.REC_NO
       469**DCL       573>>DOWHILE   673<<ASSIGN
LX
       466**DCL       558<<ASSIGN    573>>DOWHILE   574>>IF        575<<ASSIGN    575>>ASSIGN    578>>ASSIGN
       578>>ASSIGN    587>>ASSIGN    599>>ASSIGN    672<<ASSIGN    672>>ASSIGN    673>>ASSIGN    674>>ASSIGN
       688>>ASSIGN    696<>CALL      703>>ASSIGN
M$WRITE
        18**DCL-ENT   480--CALL      483--CALL      532--CALL      597--CALL      645--CALL      676--CALL
       681--CALL      712--CALL
PL6.E3A0      #006=ZII$PRINT_PATH File=ZII$TOP_LIB.:ZIC0TSI                      FRI 09/05/97 12:33 Page:356
MOVE_NAM1
       740**PROC      494--CALL      541--CALL      595--CALL      609--CALL
N1X IN PROCEDURE MOVE_NAM1
       741**DCL       740--PROC      743>>ASSIGN    744>>CALLBLT
NAM1.NAME.CNT
       325**DCL       743>>ASSIGN
NAM1.NAME.TEXT
       326**DCL       744>>CALLBLT
NAM1$
       309**DCL       312--IMP-PTR   743>>ASSIGN    744>>CALLBLT
PATH_LIST
       330**DCL         6--PROC
PATH_LIST.OWN_NEXT
       333**DCL       607>>IF
PATH_LIST.REC_NO
       331**DCL       485>>ASSIGN    486>>ASSIGN    564>>ASSIGN    671>>IF
PATH_LIST.REPEAT_IND
       341**DCL       571>>IF
PATH_LIST.SET_NO
       332**DCL       562>>ASSIGN    572>>ASSIGN    642>>ASSIGN
PN
       473**DCL       485<<ASSIGN    563>>DOINDEX   670>>DOINDEX
PRINT_LAMBDA
       684**PROC      579--CALL      677--CALL
PX
       472**DCL       559<<ASSIGN    563<<DOINDEX   564>>ASSIGN    571>>IF        572>>ASSIGN    607>>IF
       642>>ASSIGN    670>>DOINDEX
REC_NO
       474**DCL       486<<ASSIGN    494<>CALL      564<<ASSIGN    573>>DOWHILE   595<>CALL      656>>IF
       671>>IF        673>>ASSIGN
SET_NO
       475**DCL       562<<ASSIGN    572<<ASSIGN    609<>CALL      642<<ASSIGN    643>>IF
TEST_BRANCH_AND_PRINT
       667**PROC      560--CALL      648--CALL
X
       476**DCL       540<<ASSIGN    541<>CALL      611>>DOCASE    655<<DOINDEX   656>>IF        657<<ASSIGN
PL6.E3A0      #006=ZII$PRINT_PATH File=ZII$TOP_LIB.:ZIC0TSI                      FRI 09/05/97 12:33 Page:357
       657>>ASSIGN    657>>ASSIGN    662<<ASSIGN
XBIN IN PROCEDURE XDEC
       716**DCL       715--PROC      719>>CALLBLT   720>>IF        724>>IF        728>>IF
XCH IN PROCEDURE XDEC
       717**DCL       719<<CALLBLT   721>>CALLBLT   725>>CALLBLT   729>>CALLBLT   733>>CALLBLT
XDEC
       715**PROC      696--CALL      704--CALL

PL6.E3A0      #007=ZII$COMMON_MEMORY File=ZII$TOP_LIB.:ZIC0TSI                   FRI 09/05/97 12:33 Page:358
     2218        1        /*T***********************************************************/
     2219        2        /*T*                                                         */
     2220        3        /*T* Copyright (c) Bull HN Information Systems Inc., 1997    */
     2221        4        /*T*                                                         */
     2222        5        /*T***********************************************************/
     2223        6        ZII$COMMON_MEMORY: PROC(NUMBER_OF_WORDS,RESULTSE) ALTRET;
     2224        7    1   DCL NUMBER_OF_WORDS UBIN;
     2225        8    1   DCL MEMORY_FRAME UBIN(36) EXT;
     2226        9    1   DCL ZERO_OUT$ PTR AUTO;
     2227       10    1   DCL ZERO_OUT# UBIN AUTO;
     2228       11    1   DCL 1 ZERO_OUT_MEM BASED(ZERO_OUT$) ALIGNED,
     2229       12    1         2 * CHAR(ZERO_OUT#);
     2230       13        %EQU MAX_WORDS = 262143; /* Max size of GDS_FPT.V.SEGSIZE# */
     2231       14        /**/
     2232       15        %INCLUDE CP_6;
     2233       96        %FPT_GDS(FPTN=GDS_FPT,COMMON=YES,RESULTS=RESULTS_VECTOR);
     2234      112        %VLP_VECTOR(FPTN=RESULTS_VECTOR);
     2235      127        %VLP_VECTOR(FPTN=RESULTSE,STCLASS=);
     2236      142        /**/
     2237      143    1       IF NUMBER_OF_WORDS > %MAX_WORDS THEN
     2238      144    1           GOTO ER_GDS; /* Asking for more than can fit in a segment */
     2239      145    1       GDS_FPT.V.SEGSIZE#=NUMBER_OF_WORDS;
     2240      146    1       CALL M$GDS(GDS_FPT) ALTRET(ER_GDS);
     2241      147    1       RESULTSE=RESULTS_VECTOR;
     2242      148        /*
     2243      149          Init the new memory with Zeros.
     2244      150        */
     2245      151    1       ZERO_OUT$=PINCRW(RESULTS_VECTOR.PTR$,MEMORY_FRAME);
     2246      152    1       ZERO_OUT#=NUMBER_OF_WORDS * 4;
     2247      153    1       ZERO_OUT_MEM='0'B;
     2248      154    1       MEMORY_FRAME=MEMORY_FRAME + NUMBER_OF_WORDS;
     2249      155    1       RETURN;
     2250      156    1   ER_GDS:
     2251      157    1       ALTRETURN;
     2252      158    1   END ZII$COMMON_MEMORY;

PL6.E3A0      #007=ZII$COMMON_MEMORY File=ZII$TOP_LIB.:ZIC0TSI                   FRI 09/05/97 12:33 Page:359
--  Include file information  --

   CP_6.:LIB_E05  cannot be made into a system file and is referenced.
   B$JIT_C.:E05TOU  was found in the system file and is never referenced.
   CP_6_C.:E05TOU  was found in the system file and is referenced.
      No diagnostics issued in procedure ZII$COMMON_MEMORY.

   Procedure ZII$COMMON_MEMORY requires 33 words for executable code.
   Procedure ZII$COMMON_MEMORY requires 8 words of local(AUTO) storage.

    No errors detected in file ZII$TOP_LIB.:ZIC0TSI    .

PL6.E3A0      #007=ZII$COMMON_MEMORY File=ZII$TOP_LIB.:ZIC0TSI                   FRI 09/05/97 12:33 Page:360

 Object Unit name= ZII$COMMON_MEMORY                          File name= ZII$TOP_LIB.:ZIC0TOU
 UTS= SEP 05 '97 12:33:53.96 FRI                              Compiler= PL-6/E31         Sev=      00
 SharedLib= :SHARED_SYSTEM                                    Alt SharedLib=


    ****  Control sections  ****

 Sect   Type Bound  Init  Size OctSiz  Section name(segment info)
    0  LblCom even  none     1      1  MEMORY_FRAME
    1   DCB   even  none     0      0  M$UC
    2   Data  even  none     8     10  ZII$COMMON_MEMORY
    3   Proc  even  none    33     41  ZII$COMMON_MEMORY
    4  RoData even  none     1      1  ZII$COMMON_MEMORY

    ****  Entry defs  ****

                              Check   Calling
                             calling  sequence
  Sect OctLoc Primary Altret sequence   type   Parms  Name
     3      0   yes    yes     yes      Std        2  ZII$COMMON_MEMORY

  ****  Entry refs  ****

         Check        Calling
        calling       sequence
Altret sequence SRef   type   Args  Name
                       nStd      0 X66_AUTO_2
                       nStd      0 X66_ARET
                       nStd      0 X66_AALT

  ****  Data refs  ****

  Flags:  r = read only, s = secondary
Flgs Name                             Flgs Name                             Flgs Name
     M$UC
PL6.E3A0      #007=ZII$COMMON_MEMORY File=ZII$TOP_LIB.:ZIC0TSI                   FRI 09/05/97 12:33 Page:361

  ****  Segment refs  ****

  Flags:  r = read only, s = secondary
Flgs Name                             Flgs Name                             Flgs Name
     ISSID
PL6.E3A0      #007=ZII$COMMON_MEMORY File=ZII$TOP_LIB.:ZIC0TSI                   FRI 09/05/97 12:33 Page:362


     2218        1        /*T***********************************************************/
     2219        2        /*T*                                                         */
     2220        3        /*T* Copyright (c) Bull HN Information Systems Inc., 1997    */
     2221        4        /*T*                                                         */
     2222        5        /*T***********************************************************/
     2223        6        ZII$COMMON_MEMORY: PROC(NUMBER_OF_WORDS,RESULTSE) ALTRET;

      6  3 000000   000000 700200 xent  ZII$COMMON_* TSX0  ! X66_AUTO_2
         3 000001   000010 000002                    ZERO    8,2

     2224        7    1   DCL NUMBER_OF_WORDS UBIN;
     2225        8    1   DCL MEMORY_FRAME UBIN(36) EXT;
     2226        9    1   DCL ZERO_OUT$ PTR AUTO;
     2227       10    1   DCL ZERO_OUT# UBIN AUTO;
     2228       11    1   DCL 1 ZERO_OUT_MEM BASED(ZERO_OUT$) ALIGNED,
     2229       12    1         2 * CHAR(ZERO_OUT#);
     2230       13        %EQU MAX_WORDS = 262143; /* Max size of GDS_FPT.V.SEGSIZE# */
     2231       14        /**/
     2232       15        %INCLUDE CP_6;
     2233       96        %FPT_GDS(FPTN=GDS_FPT,COMMON=YES,RESULTS=RESULTS_VECTOR);
     2234      112        %VLP_VECTOR(FPTN=RESULTS_VECTOR);
     2235      127        %VLP_VECTOR(FPTN=RESULTSE,STCLASS=);
     2236      142        /**/
     2237      143    1       IF NUMBER_OF_WORDS > %MAX_WORDS THEN

    143  3 000002   200003 470500                    LDP0    @NUMBER_OF_WORDS,,AUTO
         3 000003   000000 235100                    LDA     0,,PR0
         3 000004   000001 115003                    CMPA    1,DU
         3 000005   000040 603000 3                  TRC     ER_GDS

     2238      144    1           GOTO ER_GDS; /* Asking for more than can fit in a segment */
     2239      145    1       GDS_FPT.V.SEGSIZE#=NUMBER_OF_WORDS;

    145  3 000006   000000 720100                    LXL0    0,,PR0
         3 000007   000004 440000 2                  SXL0    GDS_FPT+4

PL6.E3A0      #007=ZII$COMMON_MEMORY File=ZII$TOP_LIB.:ZIC0TSI                   FRI 09/05/97 12:33 Page:363
     2240      146    1       CALL M$GDS(GDS_FPT) ALTRET(ER_GDS);

    146  3 000010   000000 630400 2                  EPPR0   GDS_FPT
         3 000011   430001 713400                    CLIMB   alt,gds
         3 000012   400400 401760                    pmme    nvectors=2
         3 000013   000040 702000 3                  TSX2    ER_GDS

     2241      147    1       RESULTSE=RESULTS_VECTOR;

    147  3 000014   000006 237000 2                  LDAQ    RESULTS_VECTOR
         3 000015   200004 470500                    LDP0    @RESULTSE,,AUTO
         3 000016   000000 757100                    STAQ    0,,PR0

     2242      148        /*
     2243      149          Init the new memory with Zeros.
     2244      150        */
     2245      151    1       ZERO_OUT$=PINCRW(RESULTS_VECTOR.PTR$,MEMORY_FRAME);

    151  3 000017   000000 236000 0                  LDQ     MEMORY_FRAME
         3 000020   000022 736000                    QLS     18
         3 000021   000007 036000 2                  ADLQ    RESULTS_VECTOR+1
         3 000022   200005 756100                    STQ     ZERO_OUT$,,AUTO

     2246      152    1       ZERO_OUT#=NUMBER_OF_WORDS * 4;

    152  3 000023   200003 471500                    LDP1    @NUMBER_OF_WORDS,,AUTO
         3 000024   100000 235100                    LDA     0,,PR1
         3 000025   000002 735000                    ALS     2
         3 000026   200006 755100                    STA     ZERO_OUT#,,AUTO

     2247      153    1       ZERO_OUT_MEM='0'B;

    153  3 000027   200005 473500                    LDP3    ZERO_OUT$,,AUTO
         3 000030   000000 620005                    EAX0    0,AL
         3 000031   000140 100400                    MLR     fill='000'O
         3 000032   000000 000001 4                  ADSC9   0                        cn=0,n=1
         3 000033   300000 000010                    ADSC9   0,,PR3                   cn=0,n=*X0
PL6.E3A0      #007=ZII$COMMON_MEMORY File=ZII$TOP_LIB.:ZIC0TSI                   FRI 09/05/97 12:33 Page:364

     2248      154    1       MEMORY_FRAME=MEMORY_FRAME + NUMBER_OF_WORDS;

    154  3 000034   000000 236000 0                  LDQ     MEMORY_FRAME
         3 000035   100000 036100                    ADLQ    0,,PR1
         3 000036   000000 756000 0                  STQ     MEMORY_FRAME

     2249      155    1       RETURN;

    155  3 000037   000000 702200 xent               TSX2  ! X66_ARET

     2250      156    1   ER_GDS:
     2251      157    1       ALTRETURN;

    157  3 000040   000000 702200 xent  ER_GDS       TSX2  ! X66_AALT

GDS_FPT
 Sect OctLoc
   2     000   000001 777640   000004 006000   000001 777640   000006 006000    ................
   2     004   200600 000000   ****** ******                                    ........

RESULTS_VECTOR
 Sect OctLoc
   2     006   000000 177640   000000 006014                                    ........

(unnamed)
 Sect OctLoc
   4     000   000000 000000                                                    ....
     2252      158    1   END ZII$COMMON_MEMORY;

PL6.E3A0      #007=ZII$COMMON_MEMORY File=ZII$TOP_LIB.:ZIC0TSI                   FRI 09/05/97 12:33 Page:365
--  Include file information  --

   CP_6.:LIB_E05  cannot be made into a system file and is referenced.
   B$JIT_C.:E05TOU  was found in the system file and is never referenced.
   CP_6_C.:E05TOU  was found in the system file and is referenced.
      No diagnostics issued in procedure ZII$COMMON_MEMORY.

   Procedure ZII$COMMON_MEMORY requires 33 words for executable code.
   Procedure ZII$COMMON_MEMORY requires 8 words of local(AUTO) storage.

    No errors detected in file ZII$TOP_LIB.:ZIC0TSI    .
PL6.E3A0      #007=ZII$COMMON_MEMORY File=ZII$TOP_LIB.:ZIC0TSI                   FRI 09/05/97 12:33 Page:366
          *** CROSS REFERENCE LISTING ***
**     DENOTES     IDENTIFIER DEFINITION
<<                 IDENTIFIER'S VALUE SET
>>                 IDENTIFIER'S VALUE USED
<>                 IDENTIFIER SET AND/OR USED
--                 IDENTIFIER REFERENCED
PL6.E3A0      #007=ZII$COMMON_MEMORY File=ZII$TOP_LIB.:ZIC0TSI                   FRI 09/05/97 12:33 Page:367
          MINI XREF LISTING

ER_GDS
       157**LABEL     144--GOTO      146--CALLALT
GDS_FPT
       107**DCL       146<>CALL
GDS_FPT.V
       107**DCL       107--DCLINIT
GDS_FPT.V.SEGSIZE#
       110**DCL       145<<ASSIGN
M$GDS
        59**DCL-ENT   146--CALL
MEMORY_FRAME
         8**DCL       151>>ASSIGN    154<<ASSIGN    154>>ASSIGN
NUMBER_OF_WORDS
         7**DCL         6--PROC      143>>IF        145>>ASSIGN    152>>ASSIGN    154>>ASSIGN
RESULTSE
       138**DCL         6--PROC      147<<ASSIGN
RESULTSE.W2
       139**DCL       140--REDEF
RESULTS_VECTOR
       123**DCL       107--DCLINIT   147>>ASSIGN
RESULTS_VECTOR.PTR$
       125**DCL       151>>ASSIGN
RESULTS_VECTOR.W2
       124**DCL       125--REDEF
ZERO_OUT#
        10**DCL        12--IMP-SIZ   152<<ASSIGN    153>>ASSIGN
ZERO_OUT$
         9**DCL        11--IMP-PTR   151<<ASSIGN    153>>ASSIGN
ZERO_OUT_MEM
        11**DCL       153<<ASSIGN
