
 12:35 09/05/97  FILE=ZIM$CALLER.:ZIC0TSI                                                                1    BMAP - B00
                                         1  *M*     ZIT$CALLER - PL6 IDS interface for inter and intra climbs
                                         2  *T***********************************************************
                                         3  *T*                                                         *
                                         4  *T* Copyright (c) Bull HN Information Systems Inc., 1997    *
                                         5  *T*                                                         *
                                         6  *T***********************************************************
                                         7  ****************************************************************
                                         8  *
                                         9  *  ASL CALLER (this version performs intra-domain climb's)
                                        10  *
                                        11  *      This routine is used to test the DBCS in the user's
                                        12  *      workspace.  It is not meant to be a production tool.
                                        13  *      The original program from which this was taken was
                                        14  *      written by Incognito W. Programmer.
                                        15  *
                                        16  *      This routine is called at the almost exact point in
                                        17  *      time as a real world CLIMB would be executed.  The
                                        18  *      "FPT" containing the vectors to place on the parameter
                                        19  *      stack are assumed to be the contents of the first
                                        20  *      few locations of the argument which is passed.  Thus,
                                        21  *      the whole of what this routine does is to load up
                                        22  *      the appropriate index to the transfer vector in the
                                        23  *      DBCS, load PR0 pointing to the start of the vectors
                                        24  *      and CLIMB to the DBCS.  That's about it.
                                        25  *
                                        26  *      Note that to call the DBCS successfully from this
                                        27  *      routine the 'TESTMODE' flag in the DBCS' receiving
                                        28  *      routine must be set to '1' and that routine must
                                        29  *      be reassembled.
                                        30  *
                                        31  ****************************************************************
                                        32  *
                                        33         ENTDEF  U$ROL
                                        34         ENTDEF  U$HIA
                                        35         ENTDEF  U$RDY
                                        36         ENTDEF  U$FIN
                                        37         ENTDEF  U$STO
 12:35 09/05/97  FILE=ZIM$CALLER.:ZIC0TSI                                                                2    BMAP - B00
                                        38         ENTDEF  U$ERS
                                        39         ENTDEF  U$MOD
                                        40         ENTDEF  U$CON
                                        41         ENTDEF  U$DIS
                                        42         ENTDEF  U$ACN
                                        43         ENTDEF  U$ACC
                                        44         ENTDEF  U$IFT
                                        45         ENTDEF  U$IST
                                        46         ENTDEF  U$IFM
                                        47         ENTDEF  U$FKY
                                        48         ENTDEF  U$FKC
                                        49         ENTDEF  U$FDP
                                        50         ENTDEF  U$FDC
                                        51         ENTDEF  U$FCD
                                        52         ENTDEF  U$FOR
                                        53         ENTDEF  U$FCT
                                        54         ENTDEF  U$FCR
                                        55         ENTDEF  U$FAS
                                        56         ENTDEF  U$FAA
                                        57         ENTDEF  U$FRS
                                        58         ENTDEF  U$FRA
                                        59         ENTDEF  U$FDR
                                        60         ENTDEF  U$FUI
                                        61         ENTDEF  U$FRI
                                        62         ENTDEF  U$GET
                                        63         ENTDEF  U$GTF
                                        64          ENTDEF   U$KEEP
                                        65          ENTDEF   U$REDUCEQ
                                        66          ENTDEF   U$SHCUR
                                        67           ENTDEF  U$SHINCUR
                                        68         ENTDEF  U$CHK
                                        69         ENTDEF  U$TRON
                                        70         ENTDEF  U$TROFF
                                        71         ENTDEF  U$STON
                                        72         ENTDEF  U$STOFF
                                        73         ENTDEF  U$SHIN
                                        74         ENTDEF  U$SHALL
 12:35 09/05/97  FILE=ZIM$CALLER.:ZIC0TSI                                                                3    BMAP - B00
                                        75         ENTDEF  U$SHNO
                                        76         ENTDEF  U$CRPT
                                        77         ENTDEF  U$RPT
                                        78         ENTDEF  U$NBF
                                        79         ENTDEF  U$ETC
                                        80         ENTDEF  U$INA
                                        81           ENTDEF      U$SHANY
                                        82           ENTDEF   U$CALC
                                        83  *
                                        84         ENTREF  ZIR$ENTRY            DBCS Receiving Routine
                                        85           SEGREF   ISSID
                                        86  *
                                        87         LODM    Q2MA
                                        88  *
             000000713400               89  CLIMBOP BOOL   713400
                                        90  *

 12:35 09/05/97  FILE=ZIM$CALLER.:ZIC0TSI                                                                4    BMAP - B00
                                        91          EJECT
                                        92          LODM   ZI_DBCS_FCNS
                                        93          DBCS_FCNS
                                             PMC ON

                                                 Data Base Control System climb function codes.


                                             DBCS_ENTRY I$ROL,ZIM$EROL,IDS,0    Rollback Transient File
             000000000001                   I$ROL EQU I$DBCSEXCFCN
                                             PMC ON
                                             DBCS_ENTRY I$HIA,ZIM$HEREIAM,HIA,1    Here I Am.
             000000000002                   I$HIA EQU I$DBCSEXCFCN
                                             PMC ON
                                             DBCS_ENTRY I$RDY,ZIG$DBRDY,RY,1  READY
             000000000003                   I$RDY EQU I$DBCSEXCFCN
                                             PMC ON
                                             DBCS_ENTRY I$FIN,ZIM$FINISH,FI,1   Finish
             000000000004                   I$FIN EQU I$DBCSEXCFCN
                                             PMC ON
                                             DBCS_ENTRY I$STO,ZIG$DBSTO,ST,1 STORE
             000000000005                   I$STO EQU I$DBCSEXCFCN
                                             PMC ON
                                             DBCS_ENTRY I$ERS,ZIG$DBERS,ES,1 ERASE
             000000000006                   I$ERS EQU I$DBCSEXCFCN
                                             PMC ON
                                             DBCS_ENTRY I$MOD,ZIG$DBMOD,MD,1 MODIFY
             000000000007                   I$MOD EQU I$DBCSEXCFCN
                                             PMC ON
                                             DBCS_ENTRY I$CON,ZIG$DBCON,CN,1 CONNECT
             000000000010                   I$CON EQU I$DBCSEXCFCN
                                             PMC ON
                                             DBCS_ENTRY I$DIS,ZIM$EDIS,DS,1 DISCONNECT
             000000000011                   I$DIS EQU I$DBCSEXCFCN
                                             PMC ON
                                             DBCS_ENTRY I$ACN,ZIG$DBACN,AC,1 MOVE;AREA NAME
             000000000012                   I$ACN EQU I$DBCSEXCFCN
 12:35 09/05/97  FILE=ZIM$CALLER.:ZIC0TSI                                                                5    BMAP - B00
                                             PMC ON
                                             DBCS_ENTRY I$ACC,ZIG$DBACC,AC,1 MOVE;CURRENCY INDICATOR
             000000000013                   I$ACC EQU I$DBCSEXCFCN
                                             PMC ON
                                             DBCS_ENTRY I$IFT,ZIG$DBIFT,IF,1  IF TENANT
             000000000014                   I$IFT EQU I$DBCSEXCFCN
                                             PMC ON
                                             DBCS_ENTRY I$IST,ZIG$DBIST,IF,1  IF SET
             000000000015                   I$IST EQU I$DBCSEXCFCN
                                             PMC ON
                                             DBCS_ENTRY I$IFM,ZIG$DBIFM,IF,1  IF MEMBER
             000000000016                   I$IFM EQU I$DBCSEXCFCN
                                             PMC ON
                                             DBCS_ENTRY I$FKY,ZIG$DBFKY,FD,1 FIND;WITH KEY
             000000000017                   I$FKY EQU I$DBCSEXCFCN
                                             PMC ON
                                             DBCS_ENTRY I$FKC,ZIG$DBFKC,FD,1 FIND;WITH KEY IN CUR SET
             000000000020                   I$FKC EQU I$DBCSEXCFCN
                                             PMC ON
                                             DBCS_ENTRY I$FDP,ZIG$DBFDP,FD,1 FIND;DUPLICATE RECORD
             000000000021                   I$FDP EQU I$DBCSEXCFCN
                                             PMC ON
                                             DBCS_ENTRY I$FDC,ZIG$DBFDC,FD,1 FIND;CALC RECORD
             000000000022                   I$FDC EQU I$DBCSEXCFCN
                                             PMC ON
                                             DBCS_ENTRY I$FCD,ZIG$DBFCD,FD,1 FIND;DUP CALC RECORD
             000000000023                   I$FCD EQU I$DBCSEXCFCN
                                             PMC ON
                                             DBCS_ENTRY I$FOR,ZIG$DBFOR,FD,1 FIND;OWNER
             000000000024                   I$FOR EQU I$DBCSEXCFCN
                                             PMC ON
                                             DBCS_ENTRY I$FCT,ZIG$DBFCT,FD,1 FIND;CUR OF REC TYPE
             000000000025                   I$FCT EQU I$DBCSEXCFCN
                                             PMC ON
                                             DBCS_ENTRY I$FCR,ZIG$DBFCR,FD,1 FIND;CUR OF RUN
             000000000026                   I$FCR EQU I$DBCSEXCFCN
                                             PMC ON
 12:35 09/05/97  FILE=ZIM$CALLER.:ZIC0TSI                                                                6    BMAP - B00
                                             DBCS_ENTRY I$FAS,ZIG$DBFAS,FD,1 FIND;ITH ABS REC IN SET
             000000000027                   I$FAS EQU I$DBCSEXCFCN
                                             PMC ON
                                             DBCS_ENTRY I$FAA,ZIG$DBFAA,FD,1 FIND;ITH ABS REC IN AREA
             000000000030                   I$FAA EQU I$DBCSEXCFCN
                                             PMC ON
                                             DBCS_ENTRY I$FRS,ZIG$DBFRS,FD,1 FIND;RELATIVE TO SET
             000000000031                   I$FRS EQU I$DBCSEXCFCN
                                             PMC ON
                                             DBCS_ENTRY I$FRA,ZIG$DBFRA,FD,1 FIND;RELATIVE TO AREA
             000000000032                   I$FRA EQU I$DBCSEXCFCN
                                             PMC ON
                                             DBCS_ENTRY I$FDR,ZIG$DBFDR,FD,1 FIND;DIRECT
             000000000033                   I$FDR EQU I$DBCSEXCFCN
                                             PMC ON
                                             DBCS_ENTRY I$FUI,ZIG$DBFUI,FD,1  FIND;USING RECORD KEY
             000000000034                   I$FUI EQU I$DBCSEXCFCN
                                             PMC ON
                                             DBCS_ENTRY I$FRI,ZIG$DBFRI,FD,1  FIND;RELATIVE TO INDEX
             000000000035                   I$FRI EQU I$DBCSEXCFCN
                                             PMC ON
                                             DBCS_ENTRY I$GET,ZIG$DBGET,GT,1 GET;ALL FIELDS OF CUR REC
             000000000036                   I$GET EQU I$DBCSEXCFCN
                                             PMC ON
                                             DBCS_ENTRY I$GTF,ZIG$DBGTF,GT,1 GET;SPECIFIED FIELDS
             000000000037                   I$GTF EQU I$DBCSEXCFCN
                                             PMC ON
                                             DBCS_ENTRY I$CHK,ZIM$ECKPT,IDS,0     Checkpoint the data base
             000000000040                   I$CHK EQU I$DBCSEXCFCN
                                             PMC ON
                                             DBCS_ENTRY I$TRON,ZIM$ETRON,IDS,0    TRACE ON
             000000000041                   I$TRON EQU I$DBCSEXCFCN
                                             PMC ON
                                             DBCS_ENTRY I$TROFF,ZIM$ETROFF,IDS,0        OFF
             000000000042                   I$TROFF EQU I$DBCSEXCFCN
                                             PMC ON
                                             DBCS_ENTRY I$STON,ZIM$ESTON,IDS,0    STATS ON
 12:35 09/05/97  FILE=ZIM$CALLER.:ZIC0TSI                                                                7    BMAP - B00
             000000000043                   I$STON EQU I$DBCSEXCFCN
                                             PMC ON
                                             DBCS_ENTRY I$STOFF,ZIM$ESTOFF,IDS,0        OFF
             000000000044                   I$STOFF EQU I$DBCSEXCFCN
                                             PMC ON
                                             DBCS_ENTRY I$SHIN,ZIM$ESHIN,IDS,0    SHARE IN
             000000000045                   I$SHIN EQU I$DBCSEXCFCN
                                             PMC ON
                                             DBCS_ENTRY I$SHALL,ZIM$ESHALL,IDS,0        ALL
             000000000046                   I$SHALL EQU I$DBCSEXCFCN
                                             PMC ON
                                             DBCS_ENTRY I$SHNO,ZIM$ESHNO,IDS,0          NONE
             000000000047                   I$SHNO EQU I$DBCSEXCFCN
                                             PMC ON
                                             DBCS_ENTRY I$CRPT,ZIM$ECRPT,IDS,0    ENCRIPTION SEED
             000000000050                   I$CRPT EQU I$DBCSEXCFCN
                                             PMC ON
                                             DBCS_ENTRY I$RPT,ZIE$STATS,IDS,0      Report statistics
             000000000051                   I$RPT EQU I$DBCSEXCFCN
                                             PMC ON
                                             DBCS_ENTRY I$SHCUR,ZIM$ESHCUR,IDS,0   SHARE MODE CURRENCY ONLY
             000000000052                   I$SHCUR EQU I$DBCSEXCFCN
                                             PMC ON
                                             DBCS_ENTRY I$NBF,ZIM$EADDBUF,IDS,0    Add number of buffers
             000000000053                   I$NBF EQU I$DBCSEXCFCN
                                             PMC ON
                                             DBCS_ENTRY I$ETC,ZIR$DBETC,IDS,1      Continue for privacy
             000000000054                   I$ETC EQU I$DBCSEXCFCN
                                             PMC ON
                                             DBCS_ENTRY I$INA,ZIG$DBINA,RY,1   Ready & initialize area
             000000000055                   I$INA EQU I$DBCSEXCFCN
                                             PMC ON
                                             DBCS_ENTRY I$SHANY,ZIM$ESHANY,IDS,0   SHARE MODE ANY
             000000000056                   I$SHANY EQU I$DBCSEXCFCN
                                             PMC ON
                                             DBCS_ENTRY I$CALC,ZIM$CALC,IDS,1      Precalc routine
             000000000057                   I$CALC EQU I$DBCSEXCFCN
 12:35 09/05/97  FILE=ZIM$CALLER.:ZIC0TSI                                                                8    BMAP - B00
                                             PMC ON
                                             DBCS_ENTRY I$KEEP,ZIM$EKEEP,IDS,0      KEEP CRUN ENQED UNTIL CHECKPOINT
             000000000060                   I$KEEP EQU I$DBCSEXCFCN
                                             PMC ON
                                             DBCS_ENTRY I$REDUCEQ,ZIM$EREDUCEQ,IDS,0 PURGE ENQ TABLE EXCEPT CURRENCIES
             000000000061                   I$REDUCEQ EQU I$DBCSEXCFCN
                                             PMC ON
                                             DBCS_ENTRY I$SHINCUR,ZIM$ESHINCUR,IDS,0  SHAREIN CURRENCY
             000000000062                   I$SHINCUR EQU I$DBCSEXCFCN
                                             PMC ON

 12:35 09/05/97  FILE=ZIM$CALLER.:ZIC0TSI                                                                9    BMAP - B00
                                        94         EJECT
                                        95  ****************************************************************
                                        96  *
                                        97  *  ENTASL MACRO
                                        98  *
                                        99  *      This macro does everything for us.  First it sets up
                                       100  *      the appropriate registers and then it CLIMBS to the
                                       101  *      DBCS.
                                       102  *
                                       103  *      Invocation
                                       104  *
                                       105  *              ENTASL  vectors,code
                                       106  *
                                       107  *      Definition of Parameters
                                       108  *
                                       109  *              vectors  is the number of vectors to place
                                       110  *                       on the parameter stack.
                                       111  *
                                       112  *              code     is the transfer vector code assigned
                                       113  *                       in the DBCS for the routine being
                                       114  *                       called.
                                       115  *
                                       116  *      Considerations
                                       117  *
                                       118  *           Since this calling sequence uses the ZI_DBCS include
                                       119  *           file it is gauranteed to have the correct values for
                                       120  *           the entry points.  The only reason PR2 is saved and
                                       121  *           restored on calles is that for the READY/ETC combination
                                       122  *           the user wants her AUTO frame and the ASL wants his.
                                       123  *           Also when issuing the READY any ETC's must be issued
                                       124  *           from the same level of subroutine.  If any interviening
                                       125  *           calls are made to 6AAUTO, 6RET or other AUTO managment
                                       126  *           routines the results cannot be predicted.
                                       127  *
                                       128  ****************************************************************
                                       129  *
                                       130  ENTASL MACRO   vectors,code
 12:35 09/05/97  FILE=ZIM$CALLER.:ZIC0TSI                                                                10   BMAP - B00
                                       131  @1       SET      0
                                       132           INE      #1,0,2
                                       133  @1       SET      1
                                       134           LDP      PR0,0,,PR0
                                       135           IFL      #1,2                 If no IA passed
                                       136           EPPR     PR1,DUMMYIA          Use dummy IA
                                       137           IFG      #1,1                 If IA present
                                       138           LDP      PR1,3,,PR0           Its always second vector
                                       139           STP      PR1,SAVEIA           Save pointer to IA
                                       140           SXL      X1,6,,PR1            Save return address in IA
                                       141           STP      PR2,SAVEPR2          Save PR2 pointer for climb
                                       142         LDX     X0,#2,DU             X0 = Transfer vector code
                                       143         ZERO    ZIR$ENTRY,CLIMBOP  perform intra-domain climb to DBCS
                                       144           VFD      1/@1,9/#1-1,8/0,6/0,12/ISSID
                                       145           LDP      PR1,SAVEIA           Restore pointer to IA
                                       146           LDP      PR2,SAVEPR2          Restore pointer to PR2
                                       147           EAX      X1,0                 zero.
                                       148           STX      X1,6,,PR1            Clear possible rollback flag
                                       149           LXL      X1,6,,PR1            Restore return address from IA
                                       150           TRA      1,X1                 RETURN
                                       151         ENDM    ENTASL
                                       152         PMC     ON
                                       153  *
 0 000000                              154  U$ROL   ENTASL   2,I$ROL
             000000000000                   @1 SET 0
                                             INE 2,0,2
             000000000001                   @1 SET 1
   000000    0 00000 4705 00                 LDP PR0,0,,PR0
                                             IFL 2,2                 If no IA passed
                                             EPPR PR1,DUMMYIA          Use dummy IA
                                             IFG 2,1                 If IA present
   000001    0 00003 4715 00                 LDP PR1,3,,PR0           Its always second vector
   000002 (2)000000 4514 00                  STP PR1,SAVEIA           Save pointer to IA
   000003    1 00006 4411 00                 SXL X1,6,,PR1            Save return address in IA
   000004 (2)000001 4524 00                  STP PR2,SAVEPR2          Save PR2 pointer for climb
   000005    000001 2200 03                  LDX X0,I$ROL,DU             X0 = Transfer vector code
   000006  X 000000 713400                   ZERO ZIR$ENTRY,CLIMBOP  perform intra-domain climb to DBCS
 12:35 09/05/97  FILE=ZIM$CALLER.:ZIC0TSI                                                                11   BMAP - B00
   000007    1 001 000 00 X 0000             VFD 1/@1,9/2-1,8/0,6/0,12/ISSID
   000010 (2)000000 4714 00                  LDP PR1,SAVEIA           Restore pointer to IA
   000011 (2)000001 4724 00                  LDP PR2,SAVEPR2          Restore pointer to PR2
   000012    000000 6210 00                  EAX X1,0                 zero.
   000013    1 00006 7411 00                 STX X1,6,,PR1            Clear possible rollback flag
   000014    1 00006 7211 00                 LXL X1,6,,PR1            Restore return address from IA
   000015    000001 7100 11                  TRA 1,X1                 RETURN
   000016                              155  U$HIA   ENTASL  5,I$HIA
             000000000000                   @1 SET 0
                                             INE 5,0,2
             000000000001                   @1 SET 1
   000016    0 00000 4705 00                 LDP PR0,0,,PR0
                                             IFL 5,2                 If no IA passed
                                             EPPR PR1,DUMMYIA          Use dummy IA
                                             IFG 5,1                 If IA present
   000017    0 00003 4715 00                 LDP PR1,3,,PR0           Its always second vector
   000020 (2)000000 4514 00                  STP PR1,SAVEIA           Save pointer to IA
   000021    1 00006 4411 00                 SXL X1,6,,PR1            Save return address in IA
   000022 (2)000001 4524 00                  STP PR2,SAVEPR2          Save PR2 pointer for climb
   000023    000002 2200 03                  LDX X0,I$HIA,DU             X0 = Transfer vector code
   000024  X 000000 713400                   ZERO ZIR$ENTRY,CLIMBOP  perform intra-domain climb to DBCS
   000025    1 004 000 00 X 0000             VFD 1/@1,9/5-1,8/0,6/0,12/ISSID
   000026 (2)000000 4714 00                  LDP PR1,SAVEIA           Restore pointer to IA
   000027 (2)000001 4724 00                  LDP PR2,SAVEPR2          Restore pointer to PR2
   000030    000000 6210 00                  EAX X1,0                 zero.
   000031    1 00006 7411 00                 STX X1,6,,PR1            Clear possible rollback flag
   000032    1 00006 7211 00                 LXL X1,6,,PR1            Restore return address from IA
   000033    000001 7100 11                  TRA 1,X1                 RETURN
   000034                              156  U$RDY   ENTASL  5,I$RDY
             000000000000                   @1 SET 0
                                             INE 5,0,2
             000000000001                   @1 SET 1
   000034    0 00000 4705 00                 LDP PR0,0,,PR0
                                             IFL 5,2                 If no IA passed
                                             EPPR PR1,DUMMYIA          Use dummy IA
                                             IFG 5,1                 If IA present
   000035    0 00003 4715 00                 LDP PR1,3,,PR0           Its always second vector
 12:35 09/05/97  FILE=ZIM$CALLER.:ZIC0TSI                                                                12   BMAP - B00
   000036 (2)000000 4514 00                  STP PR1,SAVEIA           Save pointer to IA
   000037    1 00006 4411 00                 SXL X1,6,,PR1            Save return address in IA
   000040 (2)000001 4524 00                  STP PR2,SAVEPR2          Save PR2 pointer for climb
   000041    000003 2200 03                  LDX X0,I$RDY,DU             X0 = Transfer vector code
   000042  X 000000 713400                   ZERO ZIR$ENTRY,CLIMBOP  perform intra-domain climb to DBCS
   000043    1 004 000 00 X 0000             VFD 1/@1,9/5-1,8/0,6/0,12/ISSID
   000044 (2)000000 4714 00                  LDP PR1,SAVEIA           Restore pointer to IA
   000045 (2)000001 4724 00                  LDP PR2,SAVEPR2          Restore pointer to PR2
   000046    000000 6210 00                  EAX X1,0                 zero.
   000047    1 00006 7411 00                 STX X1,6,,PR1            Clear possible rollback flag
   000050    1 00006 7211 00                 LXL X1,6,,PR1            Restore return address from IA
   000051    000001 7100 11                  TRA 1,X1                 RETURN
   000052                              157  U$FIN   ENTASL  5,I$FIN
             000000000000                   @1 SET 0
                                             INE 5,0,2
             000000000001                   @1 SET 1
   000052    0 00000 4705 00                 LDP PR0,0,,PR0
                                             IFL 5,2                 If no IA passed
                                             EPPR PR1,DUMMYIA          Use dummy IA
                                             IFG 5,1                 If IA present
   000053    0 00003 4715 00                 LDP PR1,3,,PR0           Its always second vector
   000054 (2)000000 4514 00                  STP PR1,SAVEIA           Save pointer to IA
   000055    1 00006 4411 00                 SXL X1,6,,PR1            Save return address in IA
   000056 (2)000001 4524 00                  STP PR2,SAVEPR2          Save PR2 pointer for climb
   000057    000004 2200 03                  LDX X0,I$FIN,DU             X0 = Transfer vector code
   000060  X 000000 713400                   ZERO ZIR$ENTRY,CLIMBOP  perform intra-domain climb to DBCS
   000061    1 004 000 00 X 0000             VFD 1/@1,9/5-1,8/0,6/0,12/ISSID
   000062 (2)000000 4714 00                  LDP PR1,SAVEIA           Restore pointer to IA
   000063 (2)000001 4724 00                  LDP PR2,SAVEPR2          Restore pointer to PR2
   000064    000000 6210 00                  EAX X1,0                 zero.
   000065    1 00006 7411 00                 STX X1,6,,PR1            Clear possible rollback flag
   000066    1 00006 7211 00                 LXL X1,6,,PR1            Restore return address from IA
   000067    000001 7100 11                  TRA 1,X1                 RETURN
   000070                              158  U$STO   ENTASL  5,I$STO
             000000000000                   @1 SET 0
                                             INE 5,0,2
             000000000001                   @1 SET 1
 12:35 09/05/97  FILE=ZIM$CALLER.:ZIC0TSI                                                                13   BMAP - B00
   000070    0 00000 4705 00                 LDP PR0,0,,PR0
                                             IFL 5,2                 If no IA passed
                                             EPPR PR1,DUMMYIA          Use dummy IA
                                             IFG 5,1                 If IA present
   000071    0 00003 4715 00                 LDP PR1,3,,PR0           Its always second vector
   000072 (2)000000 4514 00                  STP PR1,SAVEIA           Save pointer to IA
   000073    1 00006 4411 00                 SXL X1,6,,PR1            Save return address in IA
   000074 (2)000001 4524 00                  STP PR2,SAVEPR2          Save PR2 pointer for climb
   000075    000005 2200 03                  LDX X0,I$STO,DU             X0 = Transfer vector code
   000076  X 000000 713400                   ZERO ZIR$ENTRY,CLIMBOP  perform intra-domain climb to DBCS
   000077    1 004 000 00 X 0000             VFD 1/@1,9/5-1,8/0,6/0,12/ISSID
   000100 (2)000000 4714 00                  LDP PR1,SAVEIA           Restore pointer to IA
   000101 (2)000001 4724 00                  LDP PR2,SAVEPR2          Restore pointer to PR2
   000102    000000 6210 00                  EAX X1,0                 zero.
   000103    1 00006 7411 00                 STX X1,6,,PR1            Clear possible rollback flag
   000104    1 00006 7211 00                 LXL X1,6,,PR1            Restore return address from IA
   000105    000001 7100 11                  TRA 1,X1                 RETURN
   000106                              159  U$ERS   ENTASL  5,I$ERS
             000000000000                   @1 SET 0
                                             INE 5,0,2
             000000000001                   @1 SET 1
   000106    0 00000 4705 00                 LDP PR0,0,,PR0
                                             IFL 5,2                 If no IA passed
                                             EPPR PR1,DUMMYIA          Use dummy IA
                                             IFG 5,1                 If IA present
   000107    0 00003 4715 00                 LDP PR1,3,,PR0           Its always second vector
   000110 (2)000000 4514 00                  STP PR1,SAVEIA           Save pointer to IA
   000111    1 00006 4411 00                 SXL X1,6,,PR1            Save return address in IA
   000112 (2)000001 4524 00                  STP PR2,SAVEPR2          Save PR2 pointer for climb
   000113    000006 2200 03                  LDX X0,I$ERS,DU             X0 = Transfer vector code
   000114  X 000000 713400                   ZERO ZIR$ENTRY,CLIMBOP  perform intra-domain climb to DBCS
   000115    1 004 000 00 X 0000             VFD 1/@1,9/5-1,8/0,6/0,12/ISSID
   000116 (2)000000 4714 00                  LDP PR1,SAVEIA           Restore pointer to IA
   000117 (2)000001 4724 00                  LDP PR2,SAVEPR2          Restore pointer to PR2
   000120    000000 6210 00                  EAX X1,0                 zero.
   000121    1 00006 7411 00                 STX X1,6,,PR1            Clear possible rollback flag
   000122    1 00006 7211 00                 LXL X1,6,,PR1            Restore return address from IA
 12:35 09/05/97  FILE=ZIM$CALLER.:ZIC0TSI                                                                14   BMAP - B00
   000123    000001 7100 11                  TRA 1,X1                 RETURN
   000124                              160  U$MOD   ENTASL  5,I$MOD
             000000000000                   @1 SET 0
                                             INE 5,0,2
             000000000001                   @1 SET 1
   000124    0 00000 4705 00                 LDP PR0,0,,PR0
                                             IFL 5,2                 If no IA passed
                                             EPPR PR1,DUMMYIA          Use dummy IA
                                             IFG 5,1                 If IA present
   000125    0 00003 4715 00                 LDP PR1,3,,PR0           Its always second vector
   000126 (2)000000 4514 00                  STP PR1,SAVEIA           Save pointer to IA
   000127    1 00006 4411 00                 SXL X1,6,,PR1            Save return address in IA
   000130 (2)000001 4524 00                  STP PR2,SAVEPR2          Save PR2 pointer for climb
   000131    000007 2200 03                  LDX X0,I$MOD,DU             X0 = Transfer vector code
   000132  X 000000 713400                   ZERO ZIR$ENTRY,CLIMBOP  perform intra-domain climb to DBCS
   000133    1 004 000 00 X 0000             VFD 1/@1,9/5-1,8/0,6/0,12/ISSID
   000134 (2)000000 4714 00                  LDP PR1,SAVEIA           Restore pointer to IA
   000135 (2)000001 4724 00                  LDP PR2,SAVEPR2          Restore pointer to PR2
   000136    000000 6210 00                  EAX X1,0                 zero.
   000137    1 00006 7411 00                 STX X1,6,,PR1            Clear possible rollback flag
   000140    1 00006 7211 00                 LXL X1,6,,PR1            Restore return address from IA
   000141    000001 7100 11                  TRA 1,X1                 RETURN
   000142                              161  U$CON   ENTASL  5,I$CON
             000000000000                   @1 SET 0
                                             INE 5,0,2
             000000000001                   @1 SET 1
   000142    0 00000 4705 00                 LDP PR0,0,,PR0
                                             IFL 5,2                 If no IA passed
                                             EPPR PR1,DUMMYIA          Use dummy IA
                                             IFG 5,1                 If IA present
   000143    0 00003 4715 00                 LDP PR1,3,,PR0           Its always second vector
   000144 (2)000000 4514 00                  STP PR1,SAVEIA           Save pointer to IA
   000145    1 00006 4411 00                 SXL X1,6,,PR1            Save return address in IA
   000146 (2)000001 4524 00                  STP PR2,SAVEPR2          Save PR2 pointer for climb
   000147    000010 2200 03                  LDX X0,I$CON,DU             X0 = Transfer vector code
   000150  X 000000 713400                   ZERO ZIR$ENTRY,CLIMBOP  perform intra-domain climb to DBCS
   000151    1 004 000 00 X 0000             VFD 1/@1,9/5-1,8/0,6/0,12/ISSID
 12:35 09/05/97  FILE=ZIM$CALLER.:ZIC0TSI                                                                15   BMAP - B00
   000152 (2)000000 4714 00                  LDP PR1,SAVEIA           Restore pointer to IA
   000153 (2)000001 4724 00                  LDP PR2,SAVEPR2          Restore pointer to PR2
   000154    000000 6210 00                  EAX X1,0                 zero.
   000155    1 00006 7411 00                 STX X1,6,,PR1            Clear possible rollback flag
   000156    1 00006 7211 00                 LXL X1,6,,PR1            Restore return address from IA
   000157    000001 7100 11                  TRA 1,X1                 RETURN
   000160                              162  U$DIS   ENTASL  5,I$DIS
             000000000000                   @1 SET 0
                                             INE 5,0,2
             000000000001                   @1 SET 1
   000160    0 00000 4705 00                 LDP PR0,0,,PR0
                                             IFL 5,2                 If no IA passed
                                             EPPR PR1,DUMMYIA          Use dummy IA
                                             IFG 5,1                 If IA present
   000161    0 00003 4715 00                 LDP PR1,3,,PR0           Its always second vector
   000162 (2)000000 4514 00                  STP PR1,SAVEIA           Save pointer to IA
   000163    1 00006 4411 00                 SXL X1,6,,PR1            Save return address in IA
   000164 (2)000001 4524 00                  STP PR2,SAVEPR2          Save PR2 pointer for climb
   000165    000011 2200 03                  LDX X0,I$DIS,DU             X0 = Transfer vector code
   000166  X 000000 713400                   ZERO ZIR$ENTRY,CLIMBOP  perform intra-domain climb to DBCS
   000167    1 004 000 00 X 0000             VFD 1/@1,9/5-1,8/0,6/0,12/ISSID
   000170 (2)000000 4714 00                  LDP PR1,SAVEIA           Restore pointer to IA
   000171 (2)000001 4724 00                  LDP PR2,SAVEPR2          Restore pointer to PR2
   000172    000000 6210 00                  EAX X1,0                 zero.
   000173    1 00006 7411 00                 STX X1,6,,PR1            Clear possible rollback flag
   000174    1 00006 7211 00                 LXL X1,6,,PR1            Restore return address from IA
   000175    000001 7100 11                  TRA 1,X1                 RETURN
   000176                              163  U$ACN    ENTASL   7,I$ACN
             000000000000                   @1 SET 0
                                             INE 7,0,2
             000000000001                   @1 SET 1
   000176    0 00000 4705 00                 LDP PR0,0,,PR0
                                             IFL 7,2                 If no IA passed
                                             EPPR PR1,DUMMYIA          Use dummy IA
                                             IFG 7,1                 If IA present
   000177    0 00003 4715 00                 LDP PR1,3,,PR0           Its always second vector
   000200 (2)000000 4514 00                  STP PR1,SAVEIA           Save pointer to IA
 12:35 09/05/97  FILE=ZIM$CALLER.:ZIC0TSI                                                                16   BMAP - B00
   000201    1 00006 4411 00                 SXL X1,6,,PR1            Save return address in IA
   000202 (2)000001 4524 00                  STP PR2,SAVEPR2          Save PR2 pointer for climb
   000203    000012 2200 03                  LDX X0,I$ACN,DU             X0 = Transfer vector code
   000204  X 000000 713400                   ZERO ZIR$ENTRY,CLIMBOP  perform intra-domain climb to DBCS
   000205    1 006 000 00 X 0000             VFD 1/@1,9/7-1,8/0,6/0,12/ISSID
   000206 (2)000000 4714 00                  LDP PR1,SAVEIA           Restore pointer to IA
   000207 (2)000001 4724 00                  LDP PR2,SAVEPR2          Restore pointer to PR2
   000210    000000 6210 00                  EAX X1,0                 zero.
   000211    1 00006 7411 00                 STX X1,6,,PR1            Clear possible rollback flag
   000212    1 00006 7211 00                 LXL X1,6,,PR1            Restore return address from IA
   000213    000001 7100 11                  TRA 1,X1                 RETURN
   000214                              164  U$ACC   ENTASL  6,I$ACC
             000000000000                   @1 SET 0
                                             INE 6,0,2
             000000000001                   @1 SET 1
   000214    0 00000 4705 00                 LDP PR0,0,,PR0
                                             IFL 6,2                 If no IA passed
                                             EPPR PR1,DUMMYIA          Use dummy IA
                                             IFG 6,1                 If IA present
   000215    0 00003 4715 00                 LDP PR1,3,,PR0           Its always second vector
   000216 (2)000000 4514 00                  STP PR1,SAVEIA           Save pointer to IA
   000217    1 00006 4411 00                 SXL X1,6,,PR1            Save return address in IA
   000220 (2)000001 4524 00                  STP PR2,SAVEPR2          Save PR2 pointer for climb
   000221    000013 2200 03                  LDX X0,I$ACC,DU             X0 = Transfer vector code
   000222  X 000000 713400                   ZERO ZIR$ENTRY,CLIMBOP  perform intra-domain climb to DBCS
   000223    1 005 000 00 X 0000             VFD 1/@1,9/6-1,8/0,6/0,12/ISSID
   000224 (2)000000 4714 00                  LDP PR1,SAVEIA           Restore pointer to IA
   000225 (2)000001 4724 00                  LDP PR2,SAVEPR2          Restore pointer to PR2
   000226    000000 6210 00                  EAX X1,0                 zero.
   000227    1 00006 7411 00                 STX X1,6,,PR1            Clear possible rollback flag
   000230    1 00006 7211 00                 LXL X1,6,,PR1            Restore return address from IA
   000231    000001 7100 11                  TRA 1,X1                 RETURN
   000232                              165  U$IFT   ENTASL  5,I$IFT
             000000000000                   @1 SET 0
                                             INE 5,0,2
             000000000001                   @1 SET 1
   000232    0 00000 4705 00                 LDP PR0,0,,PR0
 12:35 09/05/97  FILE=ZIM$CALLER.:ZIC0TSI                                                                17   BMAP - B00
                                             IFL 5,2                 If no IA passed
                                             EPPR PR1,DUMMYIA          Use dummy IA
                                             IFG 5,1                 If IA present
   000233    0 00003 4715 00                 LDP PR1,3,,PR0           Its always second vector
   000234 (2)000000 4514 00                  STP PR1,SAVEIA           Save pointer to IA
   000235    1 00006 4411 00                 SXL X1,6,,PR1            Save return address in IA
   000236 (2)000001 4524 00                  STP PR2,SAVEPR2          Save PR2 pointer for climb
   000237    000014 2200 03                  LDX X0,I$IFT,DU             X0 = Transfer vector code
   000240  X 000000 713400                   ZERO ZIR$ENTRY,CLIMBOP  perform intra-domain climb to DBCS
   000241    1 004 000 00 X 0000             VFD 1/@1,9/5-1,8/0,6/0,12/ISSID
   000242 (2)000000 4714 00                  LDP PR1,SAVEIA           Restore pointer to IA
   000243 (2)000001 4724 00                  LDP PR2,SAVEPR2          Restore pointer to PR2
   000244    000000 6210 00                  EAX X1,0                 zero.
   000245    1 00006 7411 00                 STX X1,6,,PR1            Clear possible rollback flag
   000246    1 00006 7211 00                 LXL X1,6,,PR1            Restore return address from IA
   000247    000001 7100 11                  TRA 1,X1                 RETURN
   000250                              166  U$IST   ENTASL  5,I$IST
             000000000000                   @1 SET 0
                                             INE 5,0,2
             000000000001                   @1 SET 1
   000250    0 00000 4705 00                 LDP PR0,0,,PR0
                                             IFL 5,2                 If no IA passed
                                             EPPR PR1,DUMMYIA          Use dummy IA
                                             IFG 5,1                 If IA present
   000251    0 00003 4715 00                 LDP PR1,3,,PR0           Its always second vector
   000252 (2)000000 4514 00                  STP PR1,SAVEIA           Save pointer to IA
   000253    1 00006 4411 00                 SXL X1,6,,PR1            Save return address in IA
   000254 (2)000001 4524 00                  STP PR2,SAVEPR2          Save PR2 pointer for climb
   000255    000015 2200 03                  LDX X0,I$IST,DU             X0 = Transfer vector code
   000256  X 000000 713400                   ZERO ZIR$ENTRY,CLIMBOP  perform intra-domain climb to DBCS
   000257    1 004 000 00 X 0000             VFD 1/@1,9/5-1,8/0,6/0,12/ISSID
   000260 (2)000000 4714 00                  LDP PR1,SAVEIA           Restore pointer to IA
   000261 (2)000001 4724 00                  LDP PR2,SAVEPR2          Restore pointer to PR2
   000262    000000 6210 00                  EAX X1,0                 zero.
   000263    1 00006 7411 00                 STX X1,6,,PR1            Clear possible rollback flag
   000264    1 00006 7211 00                 LXL X1,6,,PR1            Restore return address from IA
   000265    000001 7100 11                  TRA 1,X1                 RETURN
 12:35 09/05/97  FILE=ZIM$CALLER.:ZIC0TSI                                                                18   BMAP - B00
   000266                              167  U$IFM   ENTASL  5,I$IFM
             000000000000                   @1 SET 0
                                             INE 5,0,2
             000000000001                   @1 SET 1
   000266    0 00000 4705 00                 LDP PR0,0,,PR0
                                             IFL 5,2                 If no IA passed
                                             EPPR PR1,DUMMYIA          Use dummy IA
                                             IFG 5,1                 If IA present
   000267    0 00003 4715 00                 LDP PR1,3,,PR0           Its always second vector
   000270 (2)000000 4514 00                  STP PR1,SAVEIA           Save pointer to IA
   000271    1 00006 4411 00                 SXL X1,6,,PR1            Save return address in IA
   000272 (2)000001 4524 00                  STP PR2,SAVEPR2          Save PR2 pointer for climb
   000273    000016 2200 03                  LDX X0,I$IFM,DU             X0 = Transfer vector code
   000274  X 000000 713400                   ZERO ZIR$ENTRY,CLIMBOP  perform intra-domain climb to DBCS
   000275    1 004 000 00 X 0000             VFD 1/@1,9/5-1,8/0,6/0,12/ISSID
   000276 (2)000000 4714 00                  LDP PR1,SAVEIA           Restore pointer to IA
   000277 (2)000001 4724 00                  LDP PR2,SAVEPR2          Restore pointer to PR2
   000300    000000 6210 00                  EAX X1,0                 zero.
   000301    1 00006 7411 00                 STX X1,6,,PR1            Clear possible rollback flag
   000302    1 00006 7211 00                 LXL X1,6,,PR1            Restore return address from IA
   000303    000001 7100 11                  TRA 1,X1                 RETURN
   000304                              168  U$FKY   ENTASL  5,I$FKY
             000000000000                   @1 SET 0
                                             INE 5,0,2
             000000000001                   @1 SET 1
   000304    0 00000 4705 00                 LDP PR0,0,,PR0
                                             IFL 5,2                 If no IA passed
                                             EPPR PR1,DUMMYIA          Use dummy IA
                                             IFG 5,1                 If IA present
   000305    0 00003 4715 00                 LDP PR1,3,,PR0           Its always second vector
   000306 (2)000000 4514 00                  STP PR1,SAVEIA           Save pointer to IA
   000307    1 00006 4411 00                 SXL X1,6,,PR1            Save return address in IA
   000310 (2)000001 4524 00                  STP PR2,SAVEPR2          Save PR2 pointer for climb
   000311    000017 2200 03                  LDX X0,I$FKY,DU             X0 = Transfer vector code
   000312  X 000000 713400                   ZERO ZIR$ENTRY,CLIMBOP  perform intra-domain climb to DBCS
   000313    1 004 000 00 X 0000             VFD 1/@1,9/5-1,8/0,6/0,12/ISSID
   000314 (2)000000 4714 00                  LDP PR1,SAVEIA           Restore pointer to IA
 12:35 09/05/97  FILE=ZIM$CALLER.:ZIC0TSI                                                                19   BMAP - B00
   000315 (2)000001 4724 00                  LDP PR2,SAVEPR2          Restore pointer to PR2
   000316    000000 6210 00                  EAX X1,0                 zero.
   000317    1 00006 7411 00                 STX X1,6,,PR1            Clear possible rollback flag
   000320    1 00006 7211 00                 LXL X1,6,,PR1            Restore return address from IA
   000321    000001 7100 11                  TRA 1,X1                 RETURN
   000322                              169  U$FKC   ENTASL  5,I$FKC
             000000000000                   @1 SET 0
                                             INE 5,0,2
             000000000001                   @1 SET 1
   000322    0 00000 4705 00                 LDP PR0,0,,PR0
                                             IFL 5,2                 If no IA passed
                                             EPPR PR1,DUMMYIA          Use dummy IA
                                             IFG 5,1                 If IA present
   000323    0 00003 4715 00                 LDP PR1,3,,PR0           Its always second vector
   000324 (2)000000 4514 00                  STP PR1,SAVEIA           Save pointer to IA
   000325    1 00006 4411 00                 SXL X1,6,,PR1            Save return address in IA
   000326 (2)000001 4524 00                  STP PR2,SAVEPR2          Save PR2 pointer for climb
   000327    000020 2200 03                  LDX X0,I$FKC,DU             X0 = Transfer vector code
   000330  X 000000 713400                   ZERO ZIR$ENTRY,CLIMBOP  perform intra-domain climb to DBCS
   000331    1 004 000 00 X 0000             VFD 1/@1,9/5-1,8/0,6/0,12/ISSID
   000332 (2)000000 4714 00                  LDP PR1,SAVEIA           Restore pointer to IA
   000333 (2)000001 4724 00                  LDP PR2,SAVEPR2          Restore pointer to PR2
   000334    000000 6210 00                  EAX X1,0                 zero.
   000335    1 00006 7411 00                 STX X1,6,,PR1            Clear possible rollback flag
   000336    1 00006 7211 00                 LXL X1,6,,PR1            Restore return address from IA
   000337    000001 7100 11                  TRA 1,X1                 RETURN
   000340                              170  U$FDP   ENTASL  5,I$FDP
             000000000000                   @1 SET 0
                                             INE 5,0,2
             000000000001                   @1 SET 1
   000340    0 00000 4705 00                 LDP PR0,0,,PR0
                                             IFL 5,2                 If no IA passed
                                             EPPR PR1,DUMMYIA          Use dummy IA
                                             IFG 5,1                 If IA present
   000341    0 00003 4715 00                 LDP PR1,3,,PR0           Its always second vector
   000342 (2)000000 4514 00                  STP PR1,SAVEIA           Save pointer to IA
   000343    1 00006 4411 00                 SXL X1,6,,PR1            Save return address in IA
 12:35 09/05/97  FILE=ZIM$CALLER.:ZIC0TSI                                                                20   BMAP - B00
   000344 (2)000001 4524 00                  STP PR2,SAVEPR2          Save PR2 pointer for climb
   000345    000021 2200 03                  LDX X0,I$FDP,DU             X0 = Transfer vector code
   000346  X 000000 713400                   ZERO ZIR$ENTRY,CLIMBOP  perform intra-domain climb to DBCS
   000347    1 004 000 00 X 0000             VFD 1/@1,9/5-1,8/0,6/0,12/ISSID
   000350 (2)000000 4714 00                  LDP PR1,SAVEIA           Restore pointer to IA
   000351 (2)000001 4724 00                  LDP PR2,SAVEPR2          Restore pointer to PR2
   000352    000000 6210 00                  EAX X1,0                 zero.
   000353    1 00006 7411 00                 STX X1,6,,PR1            Clear possible rollback flag
   000354    1 00006 7211 00                 LXL X1,6,,PR1            Restore return address from IA
   000355    000001 7100 11                  TRA 1,X1                 RETURN
   000356                              171  U$FDC   ENTASL  5,I$FDC
             000000000000                   @1 SET 0
                                             INE 5,0,2
             000000000001                   @1 SET 1
   000356    0 00000 4705 00                 LDP PR0,0,,PR0
                                             IFL 5,2                 If no IA passed
                                             EPPR PR1,DUMMYIA          Use dummy IA
                                             IFG 5,1                 If IA present
   000357    0 00003 4715 00                 LDP PR1,3,,PR0           Its always second vector
   000360 (2)000000 4514 00                  STP PR1,SAVEIA           Save pointer to IA
   000361    1 00006 4411 00                 SXL X1,6,,PR1            Save return address in IA
   000362 (2)000001 4524 00                  STP PR2,SAVEPR2          Save PR2 pointer for climb
   000363    000022 2200 03                  LDX X0,I$FDC,DU             X0 = Transfer vector code
   000364  X 000000 713400                   ZERO ZIR$ENTRY,CLIMBOP  perform intra-domain climb to DBCS
   000365    1 004 000 00 X 0000             VFD 1/@1,9/5-1,8/0,6/0,12/ISSID
   000366 (2)000000 4714 00                  LDP PR1,SAVEIA           Restore pointer to IA
   000367 (2)000001 4724 00                  LDP PR2,SAVEPR2          Restore pointer to PR2
   000370    000000 6210 00                  EAX X1,0                 zero.
   000371    1 00006 7411 00                 STX X1,6,,PR1            Clear possible rollback flag
   000372    1 00006 7211 00                 LXL X1,6,,PR1            Restore return address from IA
   000373    000001 7100 11                  TRA 1,X1                 RETURN
   000374                              172  U$FCD   ENTASL  5,I$FCD
             000000000000                   @1 SET 0
                                             INE 5,0,2
             000000000001                   @1 SET 1
   000374    0 00000 4705 00                 LDP PR0,0,,PR0
                                             IFL 5,2                 If no IA passed
 12:35 09/05/97  FILE=ZIM$CALLER.:ZIC0TSI                                                                21   BMAP - B00
                                             EPPR PR1,DUMMYIA          Use dummy IA
                                             IFG 5,1                 If IA present
   000375    0 00003 4715 00                 LDP PR1,3,,PR0           Its always second vector
   000376 (2)000000 4514 00                  STP PR1,SAVEIA           Save pointer to IA
   000377    1 00006 4411 00                 SXL X1,6,,PR1            Save return address in IA
   000400 (2)000001 4524 00                  STP PR2,SAVEPR2          Save PR2 pointer for climb
   000401    000023 2200 03                  LDX X0,I$FCD,DU             X0 = Transfer vector code
   000402  X 000000 713400                   ZERO ZIR$ENTRY,CLIMBOP  perform intra-domain climb to DBCS
   000403    1 004 000 00 X 0000             VFD 1/@1,9/5-1,8/0,6/0,12/ISSID
   000404 (2)000000 4714 00                  LDP PR1,SAVEIA           Restore pointer to IA
   000405 (2)000001 4724 00                  LDP PR2,SAVEPR2          Restore pointer to PR2
   000406    000000 6210 00                  EAX X1,0                 zero.
   000407    1 00006 7411 00                 STX X1,6,,PR1            Clear possible rollback flag
   000410    1 00006 7211 00                 LXL X1,6,,PR1            Restore return address from IA
   000411    000001 7100 11                  TRA 1,X1                 RETURN
   000412                              173  U$FOR   ENTASL  5,I$FOR
             000000000000                   @1 SET 0
                                             INE 5,0,2
             000000000001                   @1 SET 1
   000412    0 00000 4705 00                 LDP PR0,0,,PR0
                                             IFL 5,2                 If no IA passed
                                             EPPR PR1,DUMMYIA          Use dummy IA
                                             IFG 5,1                 If IA present
   000413    0 00003 4715 00                 LDP PR1,3,,PR0           Its always second vector
   000414 (2)000000 4514 00                  STP PR1,SAVEIA           Save pointer to IA
   000415    1 00006 4411 00                 SXL X1,6,,PR1            Save return address in IA
   000416 (2)000001 4524 00                  STP PR2,SAVEPR2          Save PR2 pointer for climb
   000417    000024 2200 03                  LDX X0,I$FOR,DU             X0 = Transfer vector code
   000420  X 000000 713400                   ZERO ZIR$ENTRY,CLIMBOP  perform intra-domain climb to DBCS
   000421    1 004 000 00 X 0000             VFD 1/@1,9/5-1,8/0,6/0,12/ISSID
   000422 (2)000000 4714 00                  LDP PR1,SAVEIA           Restore pointer to IA
   000423 (2)000001 4724 00                  LDP PR2,SAVEPR2          Restore pointer to PR2
   000424    000000 6210 00                  EAX X1,0                 zero.
   000425    1 00006 7411 00                 STX X1,6,,PR1            Clear possible rollback flag
   000426    1 00006 7211 00                 LXL X1,6,,PR1            Restore return address from IA
   000427    000001 7100 11                  TRA 1,X1                 RETURN
   000430                              174  U$FCT   ENTASL  5,I$FCT
 12:35 09/05/97  FILE=ZIM$CALLER.:ZIC0TSI                                                                22   BMAP - B00
             000000000000                   @1 SET 0
                                             INE 5,0,2
             000000000001                   @1 SET 1
   000430    0 00000 4705 00                 LDP PR0,0,,PR0
                                             IFL 5,2                 If no IA passed
                                             EPPR PR1,DUMMYIA          Use dummy IA
                                             IFG 5,1                 If IA present
   000431    0 00003 4715 00                 LDP PR1,3,,PR0           Its always second vector
   000432 (2)000000 4514 00                  STP PR1,SAVEIA           Save pointer to IA
   000433    1 00006 4411 00                 SXL X1,6,,PR1            Save return address in IA
   000434 (2)000001 4524 00                  STP PR2,SAVEPR2          Save PR2 pointer for climb
   000435    000025 2200 03                  LDX X0,I$FCT,DU             X0 = Transfer vector code
   000436  X 000000 713400                   ZERO ZIR$ENTRY,CLIMBOP  perform intra-domain climb to DBCS
   000437    1 004 000 00 X 0000             VFD 1/@1,9/5-1,8/0,6/0,12/ISSID
   000440 (2)000000 4714 00                  LDP PR1,SAVEIA           Restore pointer to IA
   000441 (2)000001 4724 00                  LDP PR2,SAVEPR2          Restore pointer to PR2
   000442    000000 6210 00                  EAX X1,0                 zero.
   000443    1 00006 7411 00                 STX X1,6,,PR1            Clear possible rollback flag
   000444    1 00006 7211 00                 LXL X1,6,,PR1            Restore return address from IA
   000445    000001 7100 11                  TRA 1,X1                 RETURN
   000446                              175  U$FCR   ENTASL  5,I$FCR
             000000000000                   @1 SET 0
                                             INE 5,0,2
             000000000001                   @1 SET 1
   000446    0 00000 4705 00                 LDP PR0,0,,PR0
                                             IFL 5,2                 If no IA passed
                                             EPPR PR1,DUMMYIA          Use dummy IA
                                             IFG 5,1                 If IA present
   000447    0 00003 4715 00                 LDP PR1,3,,PR0           Its always second vector
   000450 (2)000000 4514 00                  STP PR1,SAVEIA           Save pointer to IA
   000451    1 00006 4411 00                 SXL X1,6,,PR1            Save return address in IA
   000452 (2)000001 4524 00                  STP PR2,SAVEPR2          Save PR2 pointer for climb
   000453    000026 2200 03                  LDX X0,I$FCR,DU             X0 = Transfer vector code
   000454  X 000000 713400                   ZERO ZIR$ENTRY,CLIMBOP  perform intra-domain climb to DBCS
   000455    1 004 000 00 X 0000             VFD 1/@1,9/5-1,8/0,6/0,12/ISSID
   000456 (2)000000 4714 00                  LDP PR1,SAVEIA           Restore pointer to IA
   000457 (2)000001 4724 00                  LDP PR2,SAVEPR2          Restore pointer to PR2
 12:35 09/05/97  FILE=ZIM$CALLER.:ZIC0TSI                                                                23   BMAP - B00
   000460    000000 6210 00                  EAX X1,0                 zero.
   000461    1 00006 7411 00                 STX X1,6,,PR1            Clear possible rollback flag
   000462    1 00006 7211 00                 LXL X1,6,,PR1            Restore return address from IA
   000463    000001 7100 11                  TRA 1,X1                 RETURN
   000464                              176  U$FAS   ENTASL  5,I$FAS
             000000000000                   @1 SET 0
                                             INE 5,0,2
             000000000001                   @1 SET 1
   000464    0 00000 4705 00                 LDP PR0,0,,PR0
                                             IFL 5,2                 If no IA passed
                                             EPPR PR1,DUMMYIA          Use dummy IA
                                             IFG 5,1                 If IA present
   000465    0 00003 4715 00                 LDP PR1,3,,PR0           Its always second vector
   000466 (2)000000 4514 00                  STP PR1,SAVEIA           Save pointer to IA
   000467    1 00006 4411 00                 SXL X1,6,,PR1            Save return address in IA
   000470 (2)000001 4524 00                  STP PR2,SAVEPR2          Save PR2 pointer for climb
   000471    000027 2200 03                  LDX X0,I$FAS,DU             X0 = Transfer vector code
   000472  X 000000 713400                   ZERO ZIR$ENTRY,CLIMBOP  perform intra-domain climb to DBCS
   000473    1 004 000 00 X 0000             VFD 1/@1,9/5-1,8/0,6/0,12/ISSID
   000474 (2)000000 4714 00                  LDP PR1,SAVEIA           Restore pointer to IA
   000475 (2)000001 4724 00                  LDP PR2,SAVEPR2          Restore pointer to PR2
   000476    000000 6210 00                  EAX X1,0                 zero.
   000477    1 00006 7411 00                 STX X1,6,,PR1            Clear possible rollback flag
   000500    1 00006 7211 00                 LXL X1,6,,PR1            Restore return address from IA
   000501    000001 7100 11                  TRA 1,X1                 RETURN
   000502                              177  U$FAA   ENTASL  5,I$FAA
             000000000000                   @1 SET 0
                                             INE 5,0,2
             000000000001                   @1 SET 1
   000502    0 00000 4705 00                 LDP PR0,0,,PR0
                                             IFL 5,2                 If no IA passed
                                             EPPR PR1,DUMMYIA          Use dummy IA
                                             IFG 5,1                 If IA present
   000503    0 00003 4715 00                 LDP PR1,3,,PR0           Its always second vector
   000504 (2)000000 4514 00                  STP PR1,SAVEIA           Save pointer to IA
   000505    1 00006 4411 00                 SXL X1,6,,PR1            Save return address in IA
   000506 (2)000001 4524 00                  STP PR2,SAVEPR2          Save PR2 pointer for climb
 12:35 09/05/97  FILE=ZIM$CALLER.:ZIC0TSI                                                                24   BMAP - B00
   000507    000030 2200 03                  LDX X0,I$FAA,DU             X0 = Transfer vector code
   000510  X 000000 713400                   ZERO ZIR$ENTRY,CLIMBOP  perform intra-domain climb to DBCS
   000511    1 004 000 00 X 0000             VFD 1/@1,9/5-1,8/0,6/0,12/ISSID
   000512 (2)000000 4714 00                  LDP PR1,SAVEIA           Restore pointer to IA
   000513 (2)000001 4724 00                  LDP PR2,SAVEPR2          Restore pointer to PR2
   000514    000000 6210 00                  EAX X1,0                 zero.
   000515    1 00006 7411 00                 STX X1,6,,PR1            Clear possible rollback flag
   000516    1 00006 7211 00                 LXL X1,6,,PR1            Restore return address from IA
   000517    000001 7100 11                  TRA 1,X1                 RETURN
   000520                              178  U$FRS   ENTASL  5,I$FRS
             000000000000                   @1 SET 0
                                             INE 5,0,2
             000000000001                   @1 SET 1
   000520    0 00000 4705 00                 LDP PR0,0,,PR0
                                             IFL 5,2                 If no IA passed
                                             EPPR PR1,DUMMYIA          Use dummy IA
                                             IFG 5,1                 If IA present
   000521    0 00003 4715 00                 LDP PR1,3,,PR0           Its always second vector
   000522 (2)000000 4514 00                  STP PR1,SAVEIA           Save pointer to IA
   000523    1 00006 4411 00                 SXL X1,6,,PR1            Save return address in IA
   000524 (2)000001 4524 00                  STP PR2,SAVEPR2          Save PR2 pointer for climb
   000525    000031 2200 03                  LDX X0,I$FRS,DU             X0 = Transfer vector code
   000526  X 000000 713400                   ZERO ZIR$ENTRY,CLIMBOP  perform intra-domain climb to DBCS
   000527    1 004 000 00 X 0000             VFD 1/@1,9/5-1,8/0,6/0,12/ISSID
   000530 (2)000000 4714 00                  LDP PR1,SAVEIA           Restore pointer to IA
   000531 (2)000001 4724 00                  LDP PR2,SAVEPR2          Restore pointer to PR2
   000532    000000 6210 00                  EAX X1,0                 zero.
   000533    1 00006 7411 00                 STX X1,6,,PR1            Clear possible rollback flag
   000534    1 00006 7211 00                 LXL X1,6,,PR1            Restore return address from IA
   000535    000001 7100 11                  TRA 1,X1                 RETURN
   000536                              179  U$FRA   ENTASL  5,I$FRA
             000000000000                   @1 SET 0
                                             INE 5,0,2
             000000000001                   @1 SET 1
   000536    0 00000 4705 00                 LDP PR0,0,,PR0
                                             IFL 5,2                 If no IA passed
                                             EPPR PR1,DUMMYIA          Use dummy IA
 12:35 09/05/97  FILE=ZIM$CALLER.:ZIC0TSI                                                                25   BMAP - B00
                                             IFG 5,1                 If IA present
   000537    0 00003 4715 00                 LDP PR1,3,,PR0           Its always second vector
   000540 (2)000000 4514 00                  STP PR1,SAVEIA           Save pointer to IA
   000541    1 00006 4411 00                 SXL X1,6,,PR1            Save return address in IA
   000542 (2)000001 4524 00                  STP PR2,SAVEPR2          Save PR2 pointer for climb
   000543    000032 2200 03                  LDX X0,I$FRA,DU             X0 = Transfer vector code
   000544  X 000000 713400                   ZERO ZIR$ENTRY,CLIMBOP  perform intra-domain climb to DBCS
   000545    1 004 000 00 X 0000             VFD 1/@1,9/5-1,8/0,6/0,12/ISSID
   000546 (2)000000 4714 00                  LDP PR1,SAVEIA           Restore pointer to IA
   000547 (2)000001 4724 00                  LDP PR2,SAVEPR2          Restore pointer to PR2
   000550    000000 6210 00                  EAX X1,0                 zero.
   000551    1 00006 7411 00                 STX X1,6,,PR1            Clear possible rollback flag
   000552    1 00006 7211 00                 LXL X1,6,,PR1            Restore return address from IA
   000553    000001 7100 11                  TRA 1,X1                 RETURN
   000554                              180  U$FDR   ENTASL  6,I$FDR
             000000000000                   @1 SET 0
                                             INE 6,0,2
             000000000001                   @1 SET 1
   000554    0 00000 4705 00                 LDP PR0,0,,PR0
                                             IFL 6,2                 If no IA passed
                                             EPPR PR1,DUMMYIA          Use dummy IA
                                             IFG 6,1                 If IA present
   000555    0 00003 4715 00                 LDP PR1,3,,PR0           Its always second vector
   000556 (2)000000 4514 00                  STP PR1,SAVEIA           Save pointer to IA
   000557    1 00006 4411 00                 SXL X1,6,,PR1            Save return address in IA
   000560 (2)000001 4524 00                  STP PR2,SAVEPR2          Save PR2 pointer for climb
   000561    000033 2200 03                  LDX X0,I$FDR,DU             X0 = Transfer vector code
   000562  X 000000 713400                   ZERO ZIR$ENTRY,CLIMBOP  perform intra-domain climb to DBCS
   000563    1 005 000 00 X 0000             VFD 1/@1,9/6-1,8/0,6/0,12/ISSID
   000564 (2)000000 4714 00                  LDP PR1,SAVEIA           Restore pointer to IA
   000565 (2)000001 4724 00                  LDP PR2,SAVEPR2          Restore pointer to PR2
   000566    000000 6210 00                  EAX X1,0                 zero.
   000567    1 00006 7411 00                 STX X1,6,,PR1            Clear possible rollback flag
   000570    1 00006 7211 00                 LXL X1,6,,PR1            Restore return address from IA
   000571    000001 7100 11                  TRA 1,X1                 RETURN
   000572                              181  U$FUI   ENTASL  5,I$FUI
             000000000000                   @1 SET 0
 12:35 09/05/97  FILE=ZIM$CALLER.:ZIC0TSI                                                                26   BMAP - B00
                                             INE 5,0,2
             000000000001                   @1 SET 1
   000572    0 00000 4705 00                 LDP PR0,0,,PR0
                                             IFL 5,2                 If no IA passed
                                             EPPR PR1,DUMMYIA          Use dummy IA
                                             IFG 5,1                 If IA present
   000573    0 00003 4715 00                 LDP PR1,3,,PR0           Its always second vector
   000574 (2)000000 4514 00                  STP PR1,SAVEIA           Save pointer to IA
   000575    1 00006 4411 00                 SXL X1,6,,PR1            Save return address in IA
   000576 (2)000001 4524 00                  STP PR2,SAVEPR2          Save PR2 pointer for climb
   000577    000034 2200 03                  LDX X0,I$FUI,DU             X0 = Transfer vector code
   000600  X 000000 713400                   ZERO ZIR$ENTRY,CLIMBOP  perform intra-domain climb to DBCS
   000601    1 004 000 00 X 0000             VFD 1/@1,9/5-1,8/0,6/0,12/ISSID
   000602 (2)000000 4714 00                  LDP PR1,SAVEIA           Restore pointer to IA
   000603 (2)000001 4724 00                  LDP PR2,SAVEPR2          Restore pointer to PR2
   000604    000000 6210 00                  EAX X1,0                 zero.
   000605    1 00006 7411 00                 STX X1,6,,PR1            Clear possible rollback flag
   000606    1 00006 7211 00                 LXL X1,6,,PR1            Restore return address from IA
   000607    000001 7100 11                  TRA 1,X1                 RETURN
   000610                              182  U$FRI   ENTASL  5,I$FRI
             000000000000                   @1 SET 0
                                             INE 5,0,2
             000000000001                   @1 SET 1
   000610    0 00000 4705 00                 LDP PR0,0,,PR0
                                             IFL 5,2                 If no IA passed
                                             EPPR PR1,DUMMYIA          Use dummy IA
                                             IFG 5,1                 If IA present
   000611    0 00003 4715 00                 LDP PR1,3,,PR0           Its always second vector
   000612 (2)000000 4514 00                  STP PR1,SAVEIA           Save pointer to IA
   000613    1 00006 4411 00                 SXL X1,6,,PR1            Save return address in IA
   000614 (2)000001 4524 00                  STP PR2,SAVEPR2          Save PR2 pointer for climb
   000615    000035 2200 03                  LDX X0,I$FRI,DU             X0 = Transfer vector code
   000616  X 000000 713400                   ZERO ZIR$ENTRY,CLIMBOP  perform intra-domain climb to DBCS
   000617    1 004 000 00 X 0000             VFD 1/@1,9/5-1,8/0,6/0,12/ISSID
   000620 (2)000000 4714 00                  LDP PR1,SAVEIA           Restore pointer to IA
   000621 (2)000001 4724 00                  LDP PR2,SAVEPR2          Restore pointer to PR2
   000622    000000 6210 00                  EAX X1,0                 zero.
 12:35 09/05/97  FILE=ZIM$CALLER.:ZIC0TSI                                                                27   BMAP - B00
   000623    1 00006 7411 00                 STX X1,6,,PR1            Clear possible rollback flag
   000624    1 00006 7211 00                 LXL X1,6,,PR1            Restore return address from IA
   000625    000001 7100 11                  TRA 1,X1                 RETURN
   000626                              183  U$GET   ENTASL  5,I$GET
             000000000000                   @1 SET 0
                                             INE 5,0,2
             000000000001                   @1 SET 1
   000626    0 00000 4705 00                 LDP PR0,0,,PR0
                                             IFL 5,2                 If no IA passed
                                             EPPR PR1,DUMMYIA          Use dummy IA
                                             IFG 5,1                 If IA present
   000627    0 00003 4715 00                 LDP PR1,3,,PR0           Its always second vector
   000630 (2)000000 4514 00                  STP PR1,SAVEIA           Save pointer to IA
   000631    1 00006 4411 00                 SXL X1,6,,PR1            Save return address in IA
   000632 (2)000001 4524 00                  STP PR2,SAVEPR2          Save PR2 pointer for climb
   000633    000036 2200 03                  LDX X0,I$GET,DU             X0 = Transfer vector code
   000634  X 000000 713400                   ZERO ZIR$ENTRY,CLIMBOP  perform intra-domain climb to DBCS
   000635    1 004 000 00 X 0000             VFD 1/@1,9/5-1,8/0,6/0,12/ISSID
   000636 (2)000000 4714 00                  LDP PR1,SAVEIA           Restore pointer to IA
   000637 (2)000001 4724 00                  LDP PR2,SAVEPR2          Restore pointer to PR2
   000640    000000 6210 00                  EAX X1,0                 zero.
   000641    1 00006 7411 00                 STX X1,6,,PR1            Clear possible rollback flag
   000642    1 00006 7211 00                 LXL X1,6,,PR1            Restore return address from IA
   000643    000001 7100 11                  TRA 1,X1                 RETURN
   000644                              184  U$GTF   ENTASL  5,I$GTF
             000000000000                   @1 SET 0
                                             INE 5,0,2
             000000000001                   @1 SET 1
   000644    0 00000 4705 00                 LDP PR0,0,,PR0
                                             IFL 5,2                 If no IA passed
                                             EPPR PR1,DUMMYIA          Use dummy IA
                                             IFG 5,1                 If IA present
   000645    0 00003 4715 00                 LDP PR1,3,,PR0           Its always second vector
   000646 (2)000000 4514 00                  STP PR1,SAVEIA           Save pointer to IA
   000647    1 00006 4411 00                 SXL X1,6,,PR1            Save return address in IA
   000650 (2)000001 4524 00                  STP PR2,SAVEPR2          Save PR2 pointer for climb
   000651    000037 2200 03                  LDX X0,I$GTF,DU             X0 = Transfer vector code
 12:35 09/05/97  FILE=ZIM$CALLER.:ZIC0TSI                                                                28   BMAP - B00
   000652  X 000000 713400                   ZERO ZIR$ENTRY,CLIMBOP  perform intra-domain climb to DBCS
   000653    1 004 000 00 X 0000             VFD 1/@1,9/5-1,8/0,6/0,12/ISSID
   000654 (2)000000 4714 00                  LDP PR1,SAVEIA           Restore pointer to IA
   000655 (2)000001 4724 00                  LDP PR2,SAVEPR2          Restore pointer to PR2
   000656    000000 6210 00                  EAX X1,0                 zero.
   000657    1 00006 7411 00                 STX X1,6,,PR1            Clear possible rollback flag
   000660    1 00006 7211 00                 LXL X1,6,,PR1            Restore return address from IA
   000661    000001 7100 11                  TRA 1,X1                 RETURN
   000662                              185  U$KEEP  ENTASL   1,I$KEEP
             000000000000                   @1 SET 0
                                             INE 1,0,2
             000000000001                   @1 SET 1
   000662    0 00000 4705 00                 LDP PR0,0,,PR0
                                             IFL 1,2                 If no IA passed
   000663 (2)000002 6314 00                  EPPR PR1,DUMMYIA          Use dummy IA
                                             IFG 1,1                 If IA present
                                             LDP PR1,3,,PR0           Its always second vector
   000664 (2)000000 4514 00                  STP PR1,SAVEIA           Save pointer to IA
   000665    1 00006 4411 00                 SXL X1,6,,PR1            Save return address in IA
   000666 (2)000001 4524 00                  STP PR2,SAVEPR2          Save PR2 pointer for climb
   000667    000060 2200 03                  LDX X0,I$KEEP,DU             X0 = Transfer vector code
   000670  X 000000 713400                   ZERO ZIR$ENTRY,CLIMBOP  perform intra-domain climb to DBCS
   000671    1 000 000 00 X 0000             VFD 1/@1,9/1-1,8/0,6/0,12/ISSID
   000672 (2)000000 4714 00                  LDP PR1,SAVEIA           Restore pointer to IA
   000673 (2)000001 4724 00                  LDP PR2,SAVEPR2          Restore pointer to PR2
   000674    000000 6210 00                  EAX X1,0                 zero.
   000675    1 00006 7411 00                 STX X1,6,,PR1            Clear possible rollback flag
   000676    1 00006 7211 00                 LXL X1,6,,PR1            Restore return address from IA
   000677    000001 7100 11                  TRA 1,X1                 RETURN
   000700                              186  U$REDUCEQ ENTASL 1,I$REDUCEQ
             000000000000                   @1 SET 0
                                             INE 1,0,2
             000000000001                   @1 SET 1
   000700    0 00000 4705 00                 LDP PR0,0,,PR0
                                             IFL 1,2                 If no IA passed
   000701 (2)000002 6314 00                  EPPR PR1,DUMMYIA          Use dummy IA
                                             IFG 1,1                 If IA present
 12:35 09/05/97  FILE=ZIM$CALLER.:ZIC0TSI                                                                29   BMAP - B00
                                             LDP PR1,3,,PR0           Its always second vector
   000702 (2)000000 4514 00                  STP PR1,SAVEIA           Save pointer to IA
   000703    1 00006 4411 00                 SXL X1,6,,PR1            Save return address in IA
   000704 (2)000001 4524 00                  STP PR2,SAVEPR2          Save PR2 pointer for climb
   000705    000061 2200 03                  LDX X0,I$REDUCEQ,DU             X0 = Transfer vector code
   000706  X 000000 713400                   ZERO ZIR$ENTRY,CLIMBOP  perform intra-domain climb to DBCS
   000707    1 000 000 00 X 0000             VFD 1/@1,9/1-1,8/0,6/0,12/ISSID
   000710 (2)000000 4714 00                  LDP PR1,SAVEIA           Restore pointer to IA
   000711 (2)000001 4724 00                  LDP PR2,SAVEPR2          Restore pointer to PR2
   000712    000000 6210 00                  EAX X1,0                 zero.
   000713    1 00006 7411 00                 STX X1,6,,PR1            Clear possible rollback flag
   000714    1 00006 7211 00                 LXL X1,6,,PR1            Restore return address from IA
   000715    000001 7100 11                  TRA 1,X1                 RETURN
   000716                              187  U$SHCUR ENTASL   0,I$SHCUR
             000000000000                   @1 SET 0
                                             INE 0,0,2
                                            @1 SET 1
                                             LDP PR0,0,,PR0
                                             IFL 0,2                 If no IA passed
   000716 (2)000002 6314 00                  EPPR PR1,DUMMYIA          Use dummy IA
                                             IFG 0,1                 If IA present
                                             LDP PR1,3,,PR0           Its always second vector
   000717 (2)000000 4514 00                  STP PR1,SAVEIA           Save pointer to IA
   000720    1 00006 4411 00                 SXL X1,6,,PR1            Save return address in IA
   000721 (2)000001 4524 00                  STP PR2,SAVEPR2          Save PR2 pointer for climb
   000722    000052 2200 03                  LDX X0,I$SHCUR,DU             X0 = Transfer vector code
   000723  X 000000 713400                   ZERO ZIR$ENTRY,CLIMBOP  perform intra-domain climb to DBCS
   000724    0 777 000 00 X 0000             VFD 1/@1,9/0-1,8/0,6/0,12/ISSID
   000725 (2)000000 4714 00                  LDP PR1,SAVEIA           Restore pointer to IA
   000726 (2)000001 4724 00                  LDP PR2,SAVEPR2          Restore pointer to PR2
   000727    000000 6210 00                  EAX X1,0                 zero.
   000730    1 00006 7411 00                 STX X1,6,,PR1            Clear possible rollback flag
   000731    1 00006 7211 00                 LXL X1,6,,PR1            Restore return address from IA
   000732    000001 7100 11                  TRA 1,X1                 RETURN
   000733                              188  U$SHINCUR ENTASL 0,I$SHINCUR
             000000000000                   @1 SET 0
                                             INE 0,0,2
 12:35 09/05/97  FILE=ZIM$CALLER.:ZIC0TSI                                                                30   BMAP - B00
                                            @1 SET 1
                                             LDP PR0,0,,PR0
                                             IFL 0,2                 If no IA passed
   000733 (2)000002 6314 00                  EPPR PR1,DUMMYIA          Use dummy IA
                                             IFG 0,1                 If IA present
                                             LDP PR1,3,,PR0           Its always second vector
   000734 (2)000000 4514 00                  STP PR1,SAVEIA           Save pointer to IA
   000735    1 00006 4411 00                 SXL X1,6,,PR1            Save return address in IA
   000736 (2)000001 4524 00                  STP PR2,SAVEPR2          Save PR2 pointer for climb
   000737    000062 2200 03                  LDX X0,I$SHINCUR,DU             X0 = Transfer vector code
   000740  X 000000 713400                   ZERO ZIR$ENTRY,CLIMBOP  perform intra-domain climb to DBCS
   000741    0 777 000 00 X 0000             VFD 1/@1,9/0-1,8/0,6/0,12/ISSID
   000742 (2)000000 4714 00                  LDP PR1,SAVEIA           Restore pointer to IA
   000743 (2)000001 4724 00                  LDP PR2,SAVEPR2          Restore pointer to PR2
   000744    000000 6210 00                  EAX X1,0                 zero.
   000745    1 00006 7411 00                 STX X1,6,,PR1            Clear possible rollback flag
   000746    1 00006 7211 00                 LXL X1,6,,PR1            Restore return address from IA
   000747    000001 7100 11                  TRA 1,X1                 RETURN
   000750                              189  U$CHK  ENTASL    3,I$CHK
             000000000000                   @1 SET 0
                                             INE 3,0,2
             000000000001                   @1 SET 1
   000750    0 00000 4705 00                 LDP PR0,0,,PR0
                                             IFL 3,2                 If no IA passed
                                             EPPR PR1,DUMMYIA          Use dummy IA
                                             IFG 3,1                 If IA present
   000751    0 00003 4715 00                 LDP PR1,3,,PR0           Its always second vector
   000752 (2)000000 4514 00                  STP PR1,SAVEIA           Save pointer to IA
   000753    1 00006 4411 00                 SXL X1,6,,PR1            Save return address in IA
   000754 (2)000001 4524 00                  STP PR2,SAVEPR2          Save PR2 pointer for climb
   000755    000040 2200 03                  LDX X0,I$CHK,DU             X0 = Transfer vector code
   000756  X 000000 713400                   ZERO ZIR$ENTRY,CLIMBOP  perform intra-domain climb to DBCS
   000757    1 002 000 00 X 0000             VFD 1/@1,9/3-1,8/0,6/0,12/ISSID
   000760 (2)000000 4714 00                  LDP PR1,SAVEIA           Restore pointer to IA
   000761 (2)000001 4724 00                  LDP PR2,SAVEPR2          Restore pointer to PR2
   000762    000000 6210 00                  EAX X1,0                 zero.
   000763    1 00006 7411 00                 STX X1,6,,PR1            Clear possible rollback flag
 12:35 09/05/97  FILE=ZIM$CALLER.:ZIC0TSI                                                                31   BMAP - B00
   000764    1 00006 7211 00                 LXL X1,6,,PR1            Restore return address from IA
   000765    000001 7100 11                  TRA 1,X1                 RETURN
   000766                              190  U$TRON ENTASL    1,I$TRON
             000000000000                   @1 SET 0
                                             INE 1,0,2
             000000000001                   @1 SET 1
   000766    0 00000 4705 00                 LDP PR0,0,,PR0
                                             IFL 1,2                 If no IA passed
   000767 (2)000002 6314 00                  EPPR PR1,DUMMYIA          Use dummy IA
                                             IFG 1,1                 If IA present
                                             LDP PR1,3,,PR0           Its always second vector
   000770 (2)000000 4514 00                  STP PR1,SAVEIA           Save pointer to IA
   000771    1 00006 4411 00                 SXL X1,6,,PR1            Save return address in IA
   000772 (2)000001 4524 00                  STP PR2,SAVEPR2          Save PR2 pointer for climb
   000773    000041 2200 03                  LDX X0,I$TRON,DU             X0 = Transfer vector code
   000774  X 000000 713400                   ZERO ZIR$ENTRY,CLIMBOP  perform intra-domain climb to DBCS
   000775    1 000 000 00 X 0000             VFD 1/@1,9/1-1,8/0,6/0,12/ISSID
   000776 (2)000000 4714 00                  LDP PR1,SAVEIA           Restore pointer to IA
   000777 (2)000001 4724 00                  LDP PR2,SAVEPR2          Restore pointer to PR2
   001000    000000 6210 00                  EAX X1,0                 zero.
   001001    1 00006 7411 00                 STX X1,6,,PR1            Clear possible rollback flag
   001002    1 00006 7211 00                 LXL X1,6,,PR1            Restore return address from IA
   001003    000001 7100 11                  TRA 1,X1                 RETURN
   001004                              191  U$TROFF ENTASL   1,I$TROFF
             000000000000                   @1 SET 0
                                             INE 1,0,2
             000000000001                   @1 SET 1
   001004    0 00000 4705 00                 LDP PR0,0,,PR0
                                             IFL 1,2                 If no IA passed
   001005 (2)000002 6314 00                  EPPR PR1,DUMMYIA          Use dummy IA
                                             IFG 1,1                 If IA present
                                             LDP PR1,3,,PR0           Its always second vector
   001006 (2)000000 4514 00                  STP PR1,SAVEIA           Save pointer to IA
   001007    1 00006 4411 00                 SXL X1,6,,PR1            Save return address in IA
   001010 (2)000001 4524 00                  STP PR2,SAVEPR2          Save PR2 pointer for climb
   001011    000042 2200 03                  LDX X0,I$TROFF,DU             X0 = Transfer vector code
   001012  X 000000 713400                   ZERO ZIR$ENTRY,CLIMBOP  perform intra-domain climb to DBCS
 12:35 09/05/97  FILE=ZIM$CALLER.:ZIC0TSI                                                                32   BMAP - B00
   001013    1 000 000 00 X 0000             VFD 1/@1,9/1-1,8/0,6/0,12/ISSID
   001014 (2)000000 4714 00                  LDP PR1,SAVEIA           Restore pointer to IA
   001015 (2)000001 4724 00                  LDP PR2,SAVEPR2          Restore pointer to PR2
   001016    000000 6210 00                  EAX X1,0                 zero.
   001017    1 00006 7411 00                 STX X1,6,,PR1            Clear possible rollback flag
   001020    1 00006 7211 00                 LXL X1,6,,PR1            Restore return address from IA
   001021    000001 7100 11                  TRA 1,X1                 RETURN
   001022                              192  U$STON  ENTASL  0,I$STON
             000000000000                   @1 SET 0
                                             INE 0,0,2
                                            @1 SET 1
                                             LDP PR0,0,,PR0
                                             IFL 0,2                 If no IA passed
   001022 (2)000002 6314 00                  EPPR PR1,DUMMYIA          Use dummy IA
                                             IFG 0,1                 If IA present
                                             LDP PR1,3,,PR0           Its always second vector
   001023 (2)000000 4514 00                  STP PR1,SAVEIA           Save pointer to IA
   001024    1 00006 4411 00                 SXL X1,6,,PR1            Save return address in IA
   001025 (2)000001 4524 00                  STP PR2,SAVEPR2          Save PR2 pointer for climb
   001026    000043 2200 03                  LDX X0,I$STON,DU             X0 = Transfer vector code
   001027  X 000000 713400                   ZERO ZIR$ENTRY,CLIMBOP  perform intra-domain climb to DBCS
   001030    0 777 000 00 X 0000             VFD 1/@1,9/0-1,8/0,6/0,12/ISSID
   001031 (2)000000 4714 00                  LDP PR1,SAVEIA           Restore pointer to IA
   001032 (2)000001 4724 00                  LDP PR2,SAVEPR2          Restore pointer to PR2
   001033    000000 6210 00                  EAX X1,0                 zero.
   001034    1 00006 7411 00                 STX X1,6,,PR1            Clear possible rollback flag
   001035    1 00006 7211 00                 LXL X1,6,,PR1            Restore return address from IA
   001036    000001 7100 11                  TRA 1,X1                 RETURN
   001037                              193  U$STOFF ENTASL  0,I$STOFF
             000000000000                   @1 SET 0
                                             INE 0,0,2
                                            @1 SET 1
                                             LDP PR0,0,,PR0
                                             IFL 0,2                 If no IA passed
   001037 (2)000002 6314 00                  EPPR PR1,DUMMYIA          Use dummy IA
                                             IFG 0,1                 If IA present
                                             LDP PR1,3,,PR0           Its always second vector
 12:35 09/05/97  FILE=ZIM$CALLER.:ZIC0TSI                                                                33   BMAP - B00
   001040 (2)000000 4514 00                  STP PR1,SAVEIA           Save pointer to IA
   001041    1 00006 4411 00                 SXL X1,6,,PR1            Save return address in IA
   001042 (2)000001 4524 00                  STP PR2,SAVEPR2          Save PR2 pointer for climb
   001043    000044 2200 03                  LDX X0,I$STOFF,DU             X0 = Transfer vector code
   001044  X 000000 713400                   ZERO ZIR$ENTRY,CLIMBOP  perform intra-domain climb to DBCS
   001045    0 777 000 00 X 0000             VFD 1/@1,9/0-1,8/0,6/0,12/ISSID
   001046 (2)000000 4714 00                  LDP PR1,SAVEIA           Restore pointer to IA
   001047 (2)000001 4724 00                  LDP PR2,SAVEPR2          Restore pointer to PR2
   001050    000000 6210 00                  EAX X1,0                 zero.
   001051    1 00006 7411 00                 STX X1,6,,PR1            Clear possible rollback flag
   001052    1 00006 7211 00                 LXL X1,6,,PR1            Restore return address from IA
   001053    000001 7100 11                  TRA 1,X1                 RETURN
   001054                              194  U$SHIN  ENTASL  0,I$SHIN
             000000000000                   @1 SET 0
                                             INE 0,0,2
                                            @1 SET 1
                                             LDP PR0,0,,PR0
                                             IFL 0,2                 If no IA passed
   001054 (2)000002 6314 00                  EPPR PR1,DUMMYIA          Use dummy IA
                                             IFG 0,1                 If IA present
                                             LDP PR1,3,,PR0           Its always second vector
   001055 (2)000000 4514 00                  STP PR1,SAVEIA           Save pointer to IA
   001056    1 00006 4411 00                 SXL X1,6,,PR1            Save return address in IA
   001057 (2)000001 4524 00                  STP PR2,SAVEPR2          Save PR2 pointer for climb
   001060    000045 2200 03                  LDX X0,I$SHIN,DU             X0 = Transfer vector code
   001061  X 000000 713400                   ZERO ZIR$ENTRY,CLIMBOP  perform intra-domain climb to DBCS
   001062    0 777 000 00 X 0000             VFD 1/@1,9/0-1,8/0,6/0,12/ISSID
   001063 (2)000000 4714 00                  LDP PR1,SAVEIA           Restore pointer to IA
   001064 (2)000001 4724 00                  LDP PR2,SAVEPR2          Restore pointer to PR2
   001065    000000 6210 00                  EAX X1,0                 zero.
   001066    1 00006 7411 00                 STX X1,6,,PR1            Clear possible rollback flag
   001067    1 00006 7211 00                 LXL X1,6,,PR1            Restore return address from IA
   001070    000001 7100 11                  TRA 1,X1                 RETURN
   001071                              195  U$SHALL ENTASL  0,I$SHALL
             000000000000                   @1 SET 0
                                             INE 0,0,2
                                            @1 SET 1
 12:35 09/05/97  FILE=ZIM$CALLER.:ZIC0TSI                                                                34   BMAP - B00
                                             LDP PR0,0,,PR0
                                             IFL 0,2                 If no IA passed
   001071 (2)000002 6314 00                  EPPR PR1,DUMMYIA          Use dummy IA
                                             IFG 0,1                 If IA present
                                             LDP PR1,3,,PR0           Its always second vector
   001072 (2)000000 4514 00                  STP PR1,SAVEIA           Save pointer to IA
   001073    1 00006 4411 00                 SXL X1,6,,PR1            Save return address in IA
   001074 (2)000001 4524 00                  STP PR2,SAVEPR2          Save PR2 pointer for climb
   001075    000046 2200 03                  LDX X0,I$SHALL,DU             X0 = Transfer vector code
   001076  X 000000 713400                   ZERO ZIR$ENTRY,CLIMBOP  perform intra-domain climb to DBCS
   001077    0 777 000 00 X 0000             VFD 1/@1,9/0-1,8/0,6/0,12/ISSID
   001100 (2)000000 4714 00                  LDP PR1,SAVEIA           Restore pointer to IA
   001101 (2)000001 4724 00                  LDP PR2,SAVEPR2          Restore pointer to PR2
   001102    000000 6210 00                  EAX X1,0                 zero.
   001103    1 00006 7411 00                 STX X1,6,,PR1            Clear possible rollback flag
   001104    1 00006 7211 00                 LXL X1,6,,PR1            Restore return address from IA
   001105    000001 7100 11                  TRA 1,X1                 RETURN
   001106                              196  U$SHNO  ENTASL  0,I$SHNO
             000000000000                   @1 SET 0
                                             INE 0,0,2
                                            @1 SET 1
                                             LDP PR0,0,,PR0
                                             IFL 0,2                 If no IA passed
   001106 (2)000002 6314 00                  EPPR PR1,DUMMYIA          Use dummy IA
                                             IFG 0,1                 If IA present
                                             LDP PR1,3,,PR0           Its always second vector
   001107 (2)000000 4514 00                  STP PR1,SAVEIA           Save pointer to IA
   001110    1 00006 4411 00                 SXL X1,6,,PR1            Save return address in IA
   001111 (2)000001 4524 00                  STP PR2,SAVEPR2          Save PR2 pointer for climb
   001112    000047 2200 03                  LDX X0,I$SHNO,DU             X0 = Transfer vector code
   001113  X 000000 713400                   ZERO ZIR$ENTRY,CLIMBOP  perform intra-domain climb to DBCS
   001114    0 777 000 00 X 0000             VFD 1/@1,9/0-1,8/0,6/0,12/ISSID
   001115 (2)000000 4714 00                  LDP PR1,SAVEIA           Restore pointer to IA
   001116 (2)000001 4724 00                  LDP PR2,SAVEPR2          Restore pointer to PR2
   001117    000000 6210 00                  EAX X1,0                 zero.
   001120    1 00006 7411 00                 STX X1,6,,PR1            Clear possible rollback flag
   001121    1 00006 7211 00                 LXL X1,6,,PR1            Restore return address from IA
 12:35 09/05/97  FILE=ZIM$CALLER.:ZIC0TSI                                                                35   BMAP - B00
   001122    000001 7100 11                  TRA 1,X1                 RETURN
   001123                              197  U$CRPT   ENTASL      1,I$CRPT
             000000000000                   @1 SET 0
                                             INE 1,0,2
             000000000001                   @1 SET 1
   001123    0 00000 4705 00                 LDP PR0,0,,PR0
                                             IFL 1,2                 If no IA passed
   001124 (2)000002 6314 00                  EPPR PR1,DUMMYIA          Use dummy IA
                                             IFG 1,1                 If IA present
                                             LDP PR1,3,,PR0           Its always second vector
   001125 (2)000000 4514 00                  STP PR1,SAVEIA           Save pointer to IA
   001126    1 00006 4411 00                 SXL X1,6,,PR1            Save return address in IA
   001127 (2)000001 4524 00                  STP PR2,SAVEPR2          Save PR2 pointer for climb
   001130    000050 2200 03                  LDX X0,I$CRPT,DU             X0 = Transfer vector code
   001131  X 000000 713400                   ZERO ZIR$ENTRY,CLIMBOP  perform intra-domain climb to DBCS
   001132    1 000 000 00 X 0000             VFD 1/@1,9/1-1,8/0,6/0,12/ISSID
   001133 (2)000000 4714 00                  LDP PR1,SAVEIA           Restore pointer to IA
   001134 (2)000001 4724 00                  LDP PR2,SAVEPR2          Restore pointer to PR2
   001135    000000 6210 00                  EAX X1,0                 zero.
   001136    1 00006 7411 00                 STX X1,6,,PR1            Clear possible rollback flag
   001137    1 00006 7211 00                 LXL X1,6,,PR1            Restore return address from IA
   001140    000001 7100 11                  TRA 1,X1                 RETURN
   001141                              198  U$RPT   ENTASL  0,I$RPT
             000000000000                   @1 SET 0
                                             INE 0,0,2
                                            @1 SET 1
                                             LDP PR0,0,,PR0
                                             IFL 0,2                 If no IA passed
   001141 (2)000002 6314 00                  EPPR PR1,DUMMYIA          Use dummy IA
                                             IFG 0,1                 If IA present
                                             LDP PR1,3,,PR0           Its always second vector
   001142 (2)000000 4514 00                  STP PR1,SAVEIA           Save pointer to IA
   001143    1 00006 4411 00                 SXL X1,6,,PR1            Save return address in IA
   001144 (2)000001 4524 00                  STP PR2,SAVEPR2          Save PR2 pointer for climb
   001145    000051 2200 03                  LDX X0,I$RPT,DU             X0 = Transfer vector code
   001146  X 000000 713400                   ZERO ZIR$ENTRY,CLIMBOP  perform intra-domain climb to DBCS
   001147    0 777 000 00 X 0000             VFD 1/@1,9/0-1,8/0,6/0,12/ISSID
 12:35 09/05/97  FILE=ZIM$CALLER.:ZIC0TSI                                                                36   BMAP - B00
   001150 (2)000000 4714 00                  LDP PR1,SAVEIA           Restore pointer to IA
   001151 (2)000001 4724 00                  LDP PR2,SAVEPR2          Restore pointer to PR2
   001152    000000 6210 00                  EAX X1,0                 zero.
   001153    1 00006 7411 00                 STX X1,6,,PR1            Clear possible rollback flag
   001154    1 00006 7211 00                 LXL X1,6,,PR1            Restore return address from IA
   001155    000001 7100 11                  TRA 1,X1                 RETURN
   001156                              199  U$NBF   ENTASL  2,I$NBF
             000000000000                   @1 SET 0
                                             INE 2,0,2
             000000000001                   @1 SET 1
   001156    0 00000 4705 00                 LDP PR0,0,,PR0
                                             IFL 2,2                 If no IA passed
                                             EPPR PR1,DUMMYIA          Use dummy IA
                                             IFG 2,1                 If IA present
   001157    0 00003 4715 00                 LDP PR1,3,,PR0           Its always second vector
   001160 (2)000000 4514 00                  STP PR1,SAVEIA           Save pointer to IA
   001161    1 00006 4411 00                 SXL X1,6,,PR1            Save return address in IA
   001162 (2)000001 4524 00                  STP PR2,SAVEPR2          Save PR2 pointer for climb
   001163    000053 2200 03                  LDX X0,I$NBF,DU             X0 = Transfer vector code
   001164  X 000000 713400                   ZERO ZIR$ENTRY,CLIMBOP  perform intra-domain climb to DBCS
   001165    1 001 000 00 X 0000             VFD 1/@1,9/2-1,8/0,6/0,12/ISSID
   001166 (2)000000 4714 00                  LDP PR1,SAVEIA           Restore pointer to IA
   001167 (2)000001 4724 00                  LDP PR2,SAVEPR2          Restore pointer to PR2
   001170    000000 6210 00                  EAX X1,0                 zero.
   001171    1 00006 7411 00                 STX X1,6,,PR1            Clear possible rollback flag
   001172    1 00006 7211 00                 LXL X1,6,,PR1            Restore return address from IA
   001173    000001 7100 11                  TRA 1,X1                 RETURN
   001174                              200  U$ETC   ENTASL  5,I$ETC
             000000000000                   @1 SET 0
                                             INE 5,0,2
             000000000001                   @1 SET 1
   001174    0 00000 4705 00                 LDP PR0,0,,PR0
                                             IFL 5,2                 If no IA passed
                                             EPPR PR1,DUMMYIA          Use dummy IA
                                             IFG 5,1                 If IA present
   001175    0 00003 4715 00                 LDP PR1,3,,PR0           Its always second vector
   001176 (2)000000 4514 00                  STP PR1,SAVEIA           Save pointer to IA
 12:35 09/05/97  FILE=ZIM$CALLER.:ZIC0TSI                                                                37   BMAP - B00
   001177    1 00006 4411 00                 SXL X1,6,,PR1            Save return address in IA
   001200 (2)000001 4524 00                  STP PR2,SAVEPR2          Save PR2 pointer for climb
   001201    000054 2200 03                  LDX X0,I$ETC,DU             X0 = Transfer vector code
   001202  X 000000 713400                   ZERO ZIR$ENTRY,CLIMBOP  perform intra-domain climb to DBCS
   001203    1 004 000 00 X 0000             VFD 1/@1,9/5-1,8/0,6/0,12/ISSID
   001204 (2)000000 4714 00                  LDP PR1,SAVEIA           Restore pointer to IA
   001205 (2)000001 4724 00                  LDP PR2,SAVEPR2          Restore pointer to PR2
   001206    000000 6210 00                  EAX X1,0                 zero.
   001207    1 00006 7411 00                 STX X1,6,,PR1            Clear possible rollback flag
   001210    1 00006 7211 00                 LXL X1,6,,PR1            Restore return address from IA
   001211    000001 7100 11                  TRA 1,X1                 RETURN
   001212                              201  U$INA   ENTASL  5,I$INA
             000000000000                   @1 SET 0
                                             INE 5,0,2
             000000000001                   @1 SET 1
   001212    0 00000 4705 00                 LDP PR0,0,,PR0
                                             IFL 5,2                 If no IA passed
                                             EPPR PR1,DUMMYIA          Use dummy IA
                                             IFG 5,1                 If IA present
   001213    0 00003 4715 00                 LDP PR1,3,,PR0           Its always second vector
   001214 (2)000000 4514 00                  STP PR1,SAVEIA           Save pointer to IA
   001215    1 00006 4411 00                 SXL X1,6,,PR1            Save return address in IA
   001216 (2)000001 4524 00                  STP PR2,SAVEPR2          Save PR2 pointer for climb
   001217    000055 2200 03                  LDX X0,I$INA,DU             X0 = Transfer vector code
   001220  X 000000 713400                   ZERO ZIR$ENTRY,CLIMBOP  perform intra-domain climb to DBCS
   001221    1 004 000 00 X 0000             VFD 1/@1,9/5-1,8/0,6/0,12/ISSID
   001222 (2)000000 4714 00                  LDP PR1,SAVEIA           Restore pointer to IA
   001223 (2)000001 4724 00                  LDP PR2,SAVEPR2          Restore pointer to PR2
   001224    000000 6210 00                  EAX X1,0                 zero.
   001225    1 00006 7411 00                 STX X1,6,,PR1            Clear possible rollback flag
   001226    1 00006 7211 00                 LXL X1,6,,PR1            Restore return address from IA
   001227    000001 7100 11                  TRA 1,X1                 RETURN
   001230                              202  U$SHANY  ENTASL      0,I$SHANY
             000000000000                   @1 SET 0
                                             INE 0,0,2
                                            @1 SET 1
                                             LDP PR0,0,,PR0
 12:35 09/05/97  FILE=ZIM$CALLER.:ZIC0TSI                                                                38   BMAP - B00
                                             IFL 0,2                 If no IA passed
   001230 (2)000002 6314 00                  EPPR PR1,DUMMYIA          Use dummy IA
                                             IFG 0,1                 If IA present
                                             LDP PR1,3,,PR0           Its always second vector
   001231 (2)000000 4514 00                  STP PR1,SAVEIA           Save pointer to IA
   001232    1 00006 4411 00                 SXL X1,6,,PR1            Save return address in IA
   001233 (2)000001 4524 00                  STP PR2,SAVEPR2          Save PR2 pointer for climb
   001234    000056 2200 03                  LDX X0,I$SHANY,DU             X0 = Transfer vector code
   001235  X 000000 713400                   ZERO ZIR$ENTRY,CLIMBOP  perform intra-domain climb to DBCS
   001236    0 777 000 00 X 0000             VFD 1/@1,9/0-1,8/0,6/0,12/ISSID
   001237 (2)000000 4714 00                  LDP PR1,SAVEIA           Restore pointer to IA
   001240 (2)000001 4724 00                  LDP PR2,SAVEPR2          Restore pointer to PR2
   001241    000000 6210 00                  EAX X1,0                 zero.
   001242    1 00006 7411 00                 STX X1,6,,PR1            Clear possible rollback flag
   001243    1 00006 7211 00                 LXL X1,6,,PR1            Restore return address from IA
   001244    000001 7100 11                  TRA 1,X1                 RETURN
   001245                              203  U$CALC   ENTASL   6,I$CALC
             000000000000                   @1 SET 0
                                             INE 6,0,2
             000000000001                   @1 SET 1
   001245    0 00000 4705 00                 LDP PR0,0,,PR0
                                             IFL 6,2                 If no IA passed
                                             EPPR PR1,DUMMYIA          Use dummy IA
                                             IFG 6,1                 If IA present
   001246    0 00003 4715 00                 LDP PR1,3,,PR0           Its always second vector
   001247 (2)000000 4514 00                  STP PR1,SAVEIA           Save pointer to IA
   001250    1 00006 4411 00                 SXL X1,6,,PR1            Save return address in IA
   001251 (2)000001 4524 00                  STP PR2,SAVEPR2          Save PR2 pointer for climb
   001252    000057 2200 03                  LDX X0,I$CALC,DU             X0 = Transfer vector code
   001253  X 000000 713400                   ZERO ZIR$ENTRY,CLIMBOP  perform intra-domain climb to DBCS
   001254    1 005 000 00 X 0000             VFD 1/@1,9/6-1,8/0,6/0,12/ISSID
   001255 (2)000000 4714 00                  LDP PR1,SAVEIA           Restore pointer to IA
   001256 (2)000001 4724 00                  LDP PR2,SAVEPR2          Restore pointer to PR2
   001257    000000 6210 00                  EAX X1,0                 zero.
   001260    1 00006 7411 00                 STX X1,6,,PR1            Clear possible rollback flag
   001261    1 00006 7211 00                 LXL X1,6,,PR1            Restore return address from IA
   001262    000001 7100 11                  TRA 1,X1                 RETURN
 12:35 09/05/97  FILE=ZIM$CALLER.:ZIC0TSI                                                                39   BMAP - B00
 2 000000                              204        USE   ZIT$CALLER_D,0             Static data section
   000000                              205  SAVEIA   BSS      1
   000001                              206  SAVEPR2  BSS      1
   000002                              207  DUMMYIA  BSS      46                   Dummy IA for non DML's
                                       208         END

  CONTROL SECTION TABLE

   0 CODE   EVEN  001263
   1 RODATA EVEN  000000 LITERALS
   2 DATA   EVEN  000060 ZIT$CALLER_D

 12:35 09/05/97  FILE=ZIM$CALLER.:ZIC0TSI     SYMBOL TABLE                                               40   BMAP - B00
 61000000 000000000001 @1             *93      *154      *155      *156      *157      *158      *159
                                     *160      *161      *162      *163      *164      *165      *166
                                     *167      *168      *169      *170      *171      *172      *173
                                     *174      *175      *176      *177      *178      *179      *180
                                     *181      *182      *183      *184      *185      *186      *187
                                     *188      *189      *190      *191      *192      *193      *194
                                     *195      *196      *197      *198      *199      *200      *201
                                     *202      *203
 41000000 000000713400 CLIMBOP        *89       154       155       156       157       158       159
                                      160       161       162       163       164       165       166
                                      167       168       169       170       171       172       173
                                      174       175       176       177       178       179       180
                                      181       182       183       184       185       186       187
                                      188       189       190       191       192       193       194
                                      195       196       197       198       199       200       201
                                      202       203
 01101002 000000000002 DUMMYIA        185       186       187       188       190       191       192
                                      193       194       195       196       197       198       202
                                     *207
 41000000 000000000013 I$ACC          *93       164
 41000000 000000000012 I$ACN          *93       163
 41000000 000000000057 I$CALC         *93       203
 41000000 000000000040 I$CHK          *93       189
 41000000 000000000010 I$CON          *93       161
 41000000 000000000050 I$CRPT         *93       197
 60000000 000000000063 I$DBCSEXCFCN   *93
 41000000 000000000011 I$DIS          *93       162
 41000000 000000000006 I$ERS          *93       159
 41000000 000000000054 I$ETC          *93       200
 41000000 000000000030 I$FAA          *93       177
 41000000 000000000027 I$FAS          *93       176
 41000000 000000000023 I$FCD          *93       172
 41000000 000000000026 I$FCR          *93       175
 41000000 000000000025 I$FCT          *93       174
 41000000 000000000022 I$FDC          *93       171
 41000000 000000000021 I$FDP          *93       170
 41000000 000000000033 I$FDR          *93       180
 12:35 09/05/97  FILE=ZIM$CALLER.:ZIC0TSI     SYMBOL TABLE                                               41   BMAP - B00
 41000000 000000000004 I$FIN          *93       157
 41000000 000000000020 I$FKC          *93       169
 41000000 000000000017 I$FKY          *93       168
 41000000 000000000024 I$FOR          *93       173
 41000000 000000000032 I$FRA          *93       179
 41000000 000000000035 I$FRI          *93       182
 41000000 000000000031 I$FRS          *93       178
 41000000 000000000034 I$FUI          *93       181
 41000000 000000000036 I$GET          *93       183
 41000000 000000000037 I$GTF          *93       184
 41000000 000000000002 I$HIA          *93       155
 41000000 000000000016 I$IFM          *93       167
 41000000 000000000014 I$IFT          *93       165
 41000000 000000000055 I$INA          *93       201
 41000000 000000000015 I$IST          *93       166
 41000000 000000000060 I$KEEP         *93       185
 41000000 000000000007 I$MOD          *93       160
 41000000 000000000053 I$NBF          *93       199
 41000000 000000000003 I$RDY          *93       156
 41000000 000000000061 I$REDUCEQ      *93       186
 41000000 000000000001 I$ROL          *93       154
 41000000 000000000051 I$RPT          *93       198
 41000000 000000000046 I$SHALL        *93       195
 41000000 000000000056 I$SHANY        *93       202
 41000000 000000000052 I$SHCUR        *93       187
 41000000 000000000045 I$SHIN         *93       194
 41000000 000000000062 I$SHINCUR      *93       188
 41000000 000000000047 I$SHNO         *93       196
 41000000 000000000005 I$STO          *93       158
 41000000 000000000044 I$STOFF        *93       193
 41000000 000000000043 I$STON         *93       192
 41000000 000000000042 I$TROFF        *93       191
 41000000 000000000041 I$TRON         *93       190
 40000000 000000000001 IASID          *87
 03601000 000000000000 ISSID          *85       154       155       156       157       158       159
                                      160       161       162       163       164       165       166
                                      167       168       169       170       171       172       173
 12:35 09/05/97  FILE=ZIM$CALLER.:ZIC0TSI     SYMBOL TABLE                                               42   BMAP - B00
                                      174       175       176       177       178       179       180
                                      181       182       183       184       185       186       187
                                      188       189       190       191       192       193       194
                                      195       196       197       198       199       200       201
                                      202       203
 41000000 000000000000 PR0            *87       154       155       156       157       158       159
                                      160       161       162       163       164       165       166
                                      167       168       169       170       171       172       173
                                      174       175       176       177       178       179       180
                                      181       182       183       184       185       186       189
                                      190       191       197       199       200       201       203
 41000000 000000000001 PR1            *87       154       155       156       157       158       159
                                      160       161       162       163       164       165       166
                                      167       168       169       170       171       172       173
                                      174       175       176       177       178       179       180
                                      181       182       183       184       185       186       187
                                      188       189       190       191       192       193       194
                                      195       196       197       198       199       200       201
                                      202       203
 41000000 000000000002 PR2            *87       154       155       156       157       158       159
                                      160       161       162       163       164       165       166
                                      167       168       169       170       171       172       173
                                      174       175       176       177       178       179       180
                                      181       182       183       184       185       186       187
                                      188       189       190       191       192       193       194
                                      195       196       197       198       199       200       201
                                      202       203
 40000000 000000000003 PR3            *87
 40000000 000000000004 PR4            *87
 40000000 000000000005 PR5            *87
 40000000 000000000006 PR6            *87
 40000000 000000000007 PR7            *87
 41000000 000000000000 PS0SID         *87
 41000000 000000000001 PS1SID         *87
 41000000 000000000002 PS2SID         *87
 41000000 000000000003 PS3SID         *87
 41000000 000000000004 PS4SID         *87
 12:35 09/05/97  FILE=ZIM$CALLER.:ZIC0TSI     SYMBOL TABLE                                               43   BMAP - B00
 40000000 000000000005 PS5SID         *87
 40000000 000000000006 PS6SID         *87
 40000000 000000000003 RVASID         *87
 01101002 000000000000 SAVEIA         154       155       156       157       158       159       160
                                      161       162       163       164       165       166       167
                                      168       169       170       171       172       173       174
                                      175       176       177       178       179       180       181
                                      182       183       184       185       186       187       188
                                      189       190       191       192       193       194       195
                                      196       197       198       199       200       201       202
                                      203      *205
 01101002 000000000001 SAVEPR2        154       155       156       157       158       159       160
                                      161       162       163       164       165       166       167
                                      168       169       170       171       172       173       174
                                      175       176       177       178       179       180       181
                                      182       183       184       185       186       187       188
                                      189       190       191       192       193       194       195
                                      196       197       198       199       200       201       202
                                      203      *206
 12101000 000000000214 U$ACC           43      *164
 12101000 000000000176 U$ACN           42      *163
 12101000 000000001245 U$CALC          82      *203
 12101000 000000000750 U$CHK           68      *189
 12101000 000000000142 U$CON           40      *161
 12101000 000000001123 U$CRPT          76      *197
 12101000 000000000160 U$DIS           41      *162
 12101000 000000000106 U$ERS           38      *159
 12101000 000000001174 U$ETC           79      *200
 12101000 000000000502 U$FAA           56      *177
 12101000 000000000464 U$FAS           55      *176
 12101000 000000000374 U$FCD           51      *172
 12101000 000000000446 U$FCR           54      *175
 12101000 000000000430 U$FCT           53      *174
 12101000 000000000356 U$FDC           50      *171
 12101000 000000000340 U$FDP           49      *170
 12101000 000000000554 U$FDR           59      *180
 12101000 000000000052 U$FIN           36      *157
 12:35 09/05/97  FILE=ZIM$CALLER.:ZIC0TSI     SYMBOL TABLE                                               44   BMAP - B00
 12101000 000000000322 U$FKC           48      *169
 12101000 000000000304 U$FKY           47      *168
 12101000 000000000412 U$FOR           52      *173
 12101000 000000000536 U$FRA           58      *179
 12101000 000000000610 U$FRI           61      *182
 12101000 000000000520 U$FRS           57      *178
 12101000 000000000572 U$FUI           60      *181
 12101000 000000000626 U$GET           62      *183
 12101000 000000000644 U$GTF           63      *184
 12101000 000000000016 U$HIA           34      *155
 12101000 000000000266 U$IFM           46      *167
 12101000 000000000232 U$IFT           44      *165
 12101000 000000001212 U$INA           80      *201
 12101000 000000000250 U$IST           45      *166
 12101000 000000000662 U$KEEP          64      *185
 12101000 000000000124 U$MOD           39      *160
 12101000 000000001156 U$NBF           78      *199
 12101000 000000000034 U$RDY           35      *156
 12101000 000000000700 U$REDUCEQ       65      *186
 12101000 000000000000 U$ROL           33      *154
 12101000 000000001141 U$RPT           77      *198
 12101000 000000001071 U$SHALL         74      *195
 12101000 000000001230 U$SHANY         81      *202
 12101000 000000000716 U$SHCUR         66      *187
 12101000 000000001054 U$SHIN          73      *194
 12101000 000000000733 U$SHINCUR       67      *188
 12101000 000000001106 U$SHNO          75      *196
 12101000 000000000070 U$STO           37      *158
 12101000 000000001037 U$STOFF         72      *193
 12101000 000000001022 U$STON          71      *192
 12101000 000000001004 U$TROFF         70      *191
 12101000 000000000766 U$TRON          69      *190
 40000000 000000000004 UPTSID         *87
 40000000 000000000002 UWASID         *87
 40000000 000000000000 VLPSID         *87
 41000000 000000000000 X0             *87       154       155       156       157       158       159
                                      160       161       162       163       164       165       166
 12:35 09/05/97  FILE=ZIM$CALLER.:ZIC0TSI     SYMBOL TABLE                                               45   BMAP - B00
                                      167       168       169       170       171       172       173
                                      174       175       176       177       178       179       180
                                      181       182       183       184       185       186       187
                                      188       189       190       191       192       193       194
                                      195       196       197       198       199       200       201
                                      202       203
 41000000 000000000001 X1             *87       154       155       156       157       158       159
                                      160       161       162       163       164       165       166
                                      167       168       169       170       171       172       173
                                      174       175       176       177       178       179       180
                                      181       182       183       184       185       186       187
                                      188       189       190       191       192       193       194
                                      195       196       197       198       199       200       201
                                      202       203
 40000000 000000000002 X2             *87
 40000000 000000000003 X3             *87
 40000000 000000000004 X4             *87
 40000000 000000000005 X5             *87
 40000000 000000000006 X6             *87
 02201002 000000000000 X66_ARET       *87
 02201001 000000000000 X66_AUTO_0     *87
 40000000 000000000007 X7             *87
 03201000 000000000000 ZIR$ENTRY      *84       154       155       156       157       158       159
                                      160       161       162       163       164       165       166
                                      167       168       169       170       171       172       173
                                      174       175       176       177       178       179       180
                                      181       182       183       184       185       186       187
                                      188       189       190       191       192       193       194
                                      195       196       197       198       199       200       201
                                      202       203
 00101000 000000000000 ZI_FCNVCT      *93

     139 SYMBOLS

 12:35 09/05/97  FILE=ZIM$CALLER.:ZIC0TSI     MACRO TABLE                                                46   BMAP - B00
 DBCS_ENTRY      93
 DBCS_FCNS       93
 ENTASL         154       155       156       157       158       159       160       161       162
                163       164       165       166       167       168       169       170       171
                172       173       174       175       176       177       178       179       180
                181       182       183       184       185       186       187       188       189
                190       191       192       193       194       195       196       197       198
                199       200       201       202       203

      41 MACROS

    SYMBOL SPACE USED  2816 WORDS
     MACRO SPACE USED 14035 WORDS
   INPUT RECORDS READ  2310
 STATEMENTS PROCESSED  1985
         ELAPSED TIME  0:13.44
             CPU TIME    12.37 SEC.
        ASSEMBLY RATE  9628 STATEMENTS/CPU MIN.

      NO ERRORS

