
 12:36 09/05/97  FILE=ZIM$CANSSS.:ZIC0TSI                                                                1    BMAP - B00
                                         1  *M*      ZIB$DBSSS
                                         2  *T***********************************************************
                                         3  *T*                                                         *
                                         4  *T* Copyright (c) Bull HN Information Systems Inc., 1997    *
                                         5  *T*                                                         *
                                         6  *T***********************************************************

 12:36 09/05/97  FILE=ZIM$CANSSS.:ZIC0TSI     IDS/II DB4.0 CANNED SCHEMA SUBSET                          2    BMAP - B00
                                         7         TTL     IDS/II DB4.0 CANNED SCHEMA SUBSET
                                         8           SYMDEF   ZITSSSSIZ
                                         9           SYMDEF   SSORG
                                        10           SYMDEF   SFOA,SFAC1
                                        11           SYMDEF   SF$AS,AS$SI,SN$SI,SN$LT,LK$LT
             000000000000               12  .DIDS2 EQU     0          UFAS. NO LONGER USED
                                        13         PMC      OFF
                                        14         LODM    Q2MA
                                        15         Q2SYM
                                        16  *
                                        17  *  SCHEMA SUBSET FOR RETRIEVAL OF PRIVACY LOCKS
                                        18  *
                                        19  *  SUBSET IS SUFFICIENT FOR PRIMITIVE RETRIEVALS ONLY
                                        20  *    NO RA'S
                                        21  *    NO FR'S
                                        22  *    NO SS'S
                                        23  *    NO CD'S
                                        24  *
                                        25  *  OA RECORD
             000000000002               26         .DBOA   SFAC1,SF$AS,SF,SSORG,2
 0 000000    000000 000000
   000001    4000 00000000
   000002    000030 000133
   000003    000067 000000
   000004    000000 000000
   000005    000000000000
   000006    000000000000
   000007    000000000000
   000010    000000000000
   000011    000000000000
   000012    000000000000
   000013    000000000000
   000014    000000000000
   000015    000000000000
   000016    000000000000
   000017    000000000000
   000020    000000000000
 12:36 09/05/97  FILE=ZIM$CANSSS.:ZIC0TSI     IDS/II DB4.0 CANNED SCHEMA SUBSET                          3    BMAP - B00
   000021    000000000000
   000022    000000000000
   000023    000000000000
   000024    000000000000
   000025    000000000000
                                        27  *  AC RECORD
   000026    000000 0110 00             28           .DBAC SFAC1,SSORG,SSORG,0,7,32,1,4096,128,4084,.B3,0,30,THISISATHIRTYCHARAC
   000027    000000 000000
   000030    2000 00 000 0 36
   000031    000000 000000
   000032    000000000000
   000033    001225 000000
   000034    000035 000007
   000035    0 00056 0 0 0 0036
   000036    000000000001
   000037    000000000040
   000040    000000000001
   000041    000000010000
   000042    000000 000200
   000043    000000 000200
   000044    000000 007764
   000045    000002 040000
   000046    000000 000000
   000047    000000 000000
   000050    000000 007750
   000051    000000000000
   000052    3 00001 0 0 0 0002
   000053    3 00001 4 0 0 0002
   000054    000000 000000
   000055    000000 000000
   000056    124110111123
   000057    111123101124
   000060    110111122124
   000061    131103110101
   000062    122101103124
   000063    105122104101
   000064    124101116101
 12:36 09/05/97  FILE=ZIM$CANSSS.:ZIC0TSI     IDS/II DB4.0 CANNED SCHEMA SUBSET                          4    BMAP - B00
   000065    115105040040
                                        29  *  RC RECORDS
   000066    000000 000000              30         .DBRC   SF,1500,41,SSORG,SFASO,SSORG,AS,0
   000067    1000 0 0 000000
   000070    000000 000000
   000071    000075 000157
   000072    000051 20 2734
   000073    000000 000000
   000074    000000 000000              31         .DBRC   AS,1501,77,SSORG,SFASM,SSORG,SI,0
   000075    1000 0 0 000000
   000076    000000 000000
   000077    000103 000166
   000100    000115 20 2735
   000101    000000 000000
   000102    000000 000000              32         .DBRC   SI,1504,34,SSORG,ASSIM,SSORG,SN,0
   000103    1000 0 0 000000
   000104    000000 000000
   000105    000111 000205
   000106    000042 20 2740
   000107    000000 000000
   000110    000000 000000              33         .DBRC   SN,1521,78,SSORG,SNSIO,SSORG,LT,0
   000111    1000 0 0 000000
   000112    000000 000000
   000113    000117 000225
   000114    000116 20 2761
   000115    000000 000000
   000116    000000 000000              34         .DBRC   LT,1526,25,SSORG,SNLTM,SSORG,LK,0
   000117    1000 0 0 000000
   000120    000000 000000
   000121    000125 000243
   000122    000031 20 2766
   000123    000000 000000
   000124    000000 000000              35         .DBRC   LK,1523,60,SSORG,LKLTO,SSORG,SSORG,0
   000125    1000 0 0 000000
   000126    000000 000000
   000127    000000 000263
   000130    000074 20 2763
 12:36 09/05/97  FILE=ZIM$CANSSS.:ZIC0TSI     IDS/II DB4.0 CANNED SCHEMA SUBSET                          5    BMAP - B00
   000131    000000 000000
                                        36  *  SC RECORDS
   000132    000000 000000              37         .DBSC   SF$AS,SFASO,AS$SI,0
   000133    0400 00 000 0 000
   000134    000000 000137
   000135    000157 000000
   000136    000000 000000              38         .DBSC   AS$SI,ASSIO,SN$SI,0
   000137    0400 00 000 0 000
   000140    000000 000143
   000141    000176 000000
   000142    000000 000000              39         .DBSC   SN$SI,SNSIO,SN$LT,0
   000143    0400 00 000 0 000
   000144    000000 000147
   000145    000225 000000
   000146    000000 000000              40         .DBSC   SN$LT,SNLTO,LK$LT,0
   000147    0400 00 000 0 000
   000150    000000 000153
   000151    000234 000000
   000152    000000 000000              41         .DBSC   LK$LT,LKLTO,SSORG,0
   000153    0400 00 000 0 000
   000154    000000 000000
   000155    000263 000000
                                        42  *  RS RECORDS
   000156    000000 000000              43         .DBRS   SFASO,0,SFASM,SSORG,SF$AS,SF,(3,0),(3,2)
   000157    0100 00000000
   000160    000000 000000
   000161    000166 000000
   000162    000067 000133
   000163    3 00003 0 0 0 0002
   000164    3 00003 4 0 0 0002
   000165    000000 000000              44         .DBRS   SFASM,1,SSORG,ASSIO,SF$AS,AS,(5,0),(5,2),(6,0)
   000166    0040 00000000
   000167    000000 000000
   000170    000000 000176
   000171    000075 000133
   000172    3 00005 0 0 0 0002
   000173    3 00005 4 0 0 0002
 12:36 09/05/97  FILE=ZIM$CANSSS.:ZIC0TSI     IDS/II DB4.0 CANNED SCHEMA SUBSET                          6    BMAP - B00
   000174    3 00006 0 0 0 0002
   000175    000000 000000              45         .DBRS   ASSIO,0,ASSIM,SSORG,AS$SI,AS,(4,0),(4,2)
   000176    0100 00000000
   000177    000000 000000
   000200    000205 000000
   000201    000075 000137
   000202    3 00004 0 0 0 0002
   000203    3 00004 4 0 0 0002
   000204    000000 000000              46         .DBRS   ASSIM,1,SSORG,SNSIM,AS$SI,SI,(1,0),(1,2),(2,0)
   000205    0040 00000000
   000206    000000 000000
   000207    000000 000215
   000210    000103 000137
   000211    3 00001 0 0 0 0002
   000212    3 00001 4 0 0 0002
   000213    3 00002 0 0 0 0002
   000214    000000 000000              47         .DBRS   SNSIM,1,SSORG,SSORG,SN$SI,SI,(3,2),(4,0),(4,2)
   000215    0040 00000000
   000216    000000 000000
   000217    000000 000000
   000220    000103 000143
   000221    3 00003 4 0 0 0002
   000222    3 00004 0 0 0 0002
   000223    3 00004 4 0 0 0002
   000224    000000 000000              48         .DBRS   SNSIO,0,SNSIM,SNLTO,SN$SI,SN,(7,2),(8,0)
   000225    0100 00000000
   000226    000000 000000
   000227    000215 000234
   000230    000111 000143
   000231    3 00007 4 0 0 0002
   000232    3 00010 0 0 0 0002
   000233    000000 000000              49         .DBRS   SNLTO,0,SNLTM,SSORG,SN$LT,SN,(3,2),(4,0)
   000234    0100 00000000
   000235    000000 000000
   000236    000243 000000
   000237    000111 000147
   000240    3 00003 4 0 0 0002
 12:36 09/05/97  FILE=ZIM$CANSSS.:ZIC0TSI     IDS/II DB4.0 CANNED SCHEMA SUBSET                          7    BMAP - B00
   000241    3 00004 0 0 0 0002
   000242    000000 000000              50         .DBRS   SNLTM,1,SSORG,LKLTM,SN$LT,LT,(2,2),(3,0),(3,2)
   000243    0040 00000000
   000244    000000 000000
   000245    000000 000253
   000246    000117 000147
   000247    3 00002 4 0 0 0002
   000250    3 00003 0 0 0 0002
   000251    3 00003 4 0 0 0002
   000252    000000 000000              51         .DBRS   LKLTM,1,SSORG,SSORG,LK$LT,LT,(1,0),(1,2),(2,0)
   000253    0040 00000000
   000254    000000 000000
   000255    000000 000000
   000256    000117 000153
   000257    3 00001 0 0 0 0002
   000260    3 00001 4 0 0 0002
   000261    3 00002 0 0 0 0002
   000262    000000 000000              52         .DBRS   LKLTO,0,LKLTM,SSORG,LK$LT,LK,(3,2),(4,0)
   000263    0100 00000000
   000264    000000 000000
   000265    000253 000000
   000266    000125 000153
   000267    3 00003 4 0 0 0002
   000270    3 00004 0 0 0 0002
   000271                               53  SSEND  NULL
   000271    000000000271 0             54  ZITSSSSIZ  VFD  34/SSEND-SSORG,2/0   SIZE OF CANED SSS IN BYTES
                                        55         END

  CONTROL SECTION TABLE

   0 CODE   EVEN  000272
   1 RODATA EVEN  000000 LITERALS

 12:36 09/05/97  FILE=ZIM$CANSSS.:ZIC0TSI     SYMBOL TABLE                                               8    BMAP - B00
 40000000 000000200000 .AC            *15
 40000000 000000000100 .AG            *15
 40000000 000000002000 .ALTO          *15
 40000000 000000000077 .ANL           *15
 40000000 000000200000 .APDN          *15
 40000000 000000000100 .ATMP          *15
 40000000 000000400000 .AV            *15
 40000000 000000400000 .B0            *15
 40000000 000000200000 .B1            *15
 40000000 000000000200 .B10           *15
 40000000 000000000100 .B11           *15
 40000000 000000000040 .B12           *15
 40000000 000000000020 .B13           *15
 40000000 000000000010 .B14           *15
 40000000 000000000004 .B15           *15
 40000000 000000000002 .B16           *15
 40000000 000000000001 .B17           *15
 40000000 000000400000 .B18           *15
 40000000 000000200000 .B19           *15
 40000000 000000100000 .B2            *15
 40000000 000000100000 .B20           *15
 40000000 000000040000 .B21           *15
 40000000 000000020000 .B22           *15
 40000000 000000010000 .B23           *15
 40000000 000000004000 .B24           *15
 40000000 000000002000 .B25           *15
 40000000 000000001000 .B26           *15
 40000000 000000000400 .B27           *15
 40000000 000000000200 .B28           *15
 40000000 000000000100 .B29           *15
 41000000 000000040000 .B3            *15        28
 40000000 000000000040 .B30           *15
 40000000 000000000020 .B31           *15
 40000000 000000000010 .B32           *15
 40000000 000000000004 .B33           *15
 40000000 000000000002 .B34           *15
 40000000 000000000001 .B35           *15
 12:36 09/05/97  FILE=ZIM$CANSSS.:ZIC0TSI     SYMBOL TABLE                                               9    BMAP - B00
 40000000 000000020000 .B4            *15
 40000000 000000010000 .B5            *15
 40000000 000000004000 .B6            *15
 41000000 000000002000 .B7            *15        28
 40000000 000000001000 .B8            *15
 40000000 000000000400 .B9            *15
 40000000 000000000001 .BREAK         *15
 40000000 000000010000 .BRK           *15
 40000000 000000020000 .BTB           *15
 40000000 000000000001 .CAC           *15
 40000000 000000000000 .CAE           *15
 40000000 000000000200 .CANSSS        *15
 40000000 000000000400 .CD            *15
 40000000 000000040000 .CFLC          *15
 40000000 000000400000 .CHKSUM        *15
 40000000 000000100000 .CJRNL         *15
 40000000 000000000077 .CNSZ          *15
 40000000 000000160000 .COMC          *15
 40000000 000000000020 .CONT          *15
 40000000 000000000000 .CSE           *15
 40000000 000000700000 .CTYP          *15
 41000000 000000000270 .DBEST         *15
 41000000 000000000470 .DBIC          *15
 40000000 000000077777 .DBPT          *15
 41000000 000000000370 .DBSTK         *15
 40000000 000000020000 .DELM          *15
 40000000 000000002000 .DIDP          *15
 41000000 000000000000 .DIDS2         *12        28
 40000000 000000000077 .DNDX          *15
 40000000 000000600000 .DORD          *15
 40000000 000000000200 .DP            *15
 40000000 000000100000 .DPS           *15
 40000000 000000200000 .DPSA          *15
 40000000 000000400000 .DPST          *15
 40000000 000000000002 .DUMP          *15
 40000000 000000002000 .DUPC          *15
 40000000 000000010000 .DUPP          *15
 12:36 09/05/97  FILE=ZIM$CANSSS.:ZIC0TSI     SYMBOL TABLE                                               10   BMAP - B00
 40000000 000000200000 .EBCL          *15
 40000000 000000400000 .EBCM          *15
 40000000 000000200000 .ENCRP         *15
 40000000 000000000077 .ENDX          *15
 40000000 000000000400 .ENQ           *15
 40000000 000000004000 .ETC           *15
 40000000 000000000400 .EXIT          *15
 40000000 000000000200 .FMOD          *15
 40000000 000000000077 .FNL           *15
 40000000 000000000074 .FORG          *15
 40000000 000000002000 .FR            *15
 40000000 000000000100 .FSR           *15
 40000000 000000003400 .FUSE          *15
 40000000 000000010000 .FVF           *15
 40000000 000000040000 .FVR           *15
 40000000 000000000010 .INDEXED       *15
 40000000 000000777777 .IXID          *15
 40000000 000000001777 .IXNUM         *15
 40000000 000000000004 .KEYED         *15
 40000000 000000010000 .LCK           *15
 40000000 000000400000 .LEIL          *15
 40000000 000000001000 .LG            *15
 40000000 000000000002 .LOAD          *15
 40000000 000000020000 .MAR           *15
 40000000 000000000007 .MEMT          *15
 40000000 000000010000 .MRL           *15
 40000000 000000040000 .MSM           *15
 60000000 000000000001 .N6685         *15
 40000000 000000100000 .NAI           *15
 40000000 000000200000 .NBI           *15
 40000000 000000000002 .NCIA          *15
 40000000 000000040000 .NMV           *15
 40000000 000000017777 .NOENT         *15
 40000000 000000400000 .OA            *15
 40000000 000000740000 .OPEV          *15
 40000000 000000100000 .OSM           *15
 40000000 000000100000 .PAFIL         *15
 12:36 09/05/97  FILE=ZIM$CANSSS.:ZIC0TSI     SYMBOL TABLE                                               11   BMAP - B00
 40000000 000000200000 .PAHVR         *15
 40000000 000000000001 .PAIA          *15
 40000000 000000040000 .PALIL         *15
 40000000 000000020000 .PALVR         *15
 40000000 000000400000 .PANLL         *15
 40000000 000000400000 .PCKD          *15
 40000000 000000001600 .PMOD          *15
 40000000 000000000520 .PRCSE         *15
 40000000 000000000007 .PSTO          *15
 40000000 000000006040 .PTAS          *15
 40000000 000000010100 .PTCHK         *15
 40000000 000000010200 .PTDEC         *15
 40000000 000000010140 .PTENC         *15
 40000000 000000020000 .RA            *15
 40000000 000000100000 .RC            *15
 40000000 000000400000 .RELEASE       *15
 40000000 000000000017 .RELT          *15
 40000000 000000004000 .RERA          *15
 40000000 000000400000 .RERS          *15
 40000000 000000010000 .RKEY          *15
 40000000 000000000077 .RNL           *15
 40000000 000000200000 .RSTO          *15
 40000000 000000007777 .RTYP          *15
 40000000 000000040000 .SC            *15
 40000000 000000000070 .SETM          *15
 40000000 000000740000 .SETO          *15
 40000000 000000000700 .SETT          *15
 40000000 000000040000 .SFNP          *15
 40000000 000000004000 .SM            *15
 40000000 000000020000 .SMOD          *15
 40000000 000000000077 .SNL           *15
 40000000 000000020000 .SNSS          *15
 40000000 000000010000 .SO            *15
 40000000 000000100000 .SR            *15
 40000000 000000004000 .SRCR          *15
 40000000 000000001000 .SS            *15
 40000000 000000000007 .SSTP          *15
 12:36 09/05/97  FILE=ZIM$CANSSS.:ZIC0TSI     SYMBOL TABLE                                               12   BMAP - B00
 40000000 000000004000 .SYN           *15
 40000000 000000000040 .SYNC          *15
 40000000 000000020000 .TJRNL         *15
 40000000 000000040000 .TMPLT         *15
 40000000 000000040000 .TRACE         *15
 40000000 000000000001 .TRENTRY       *15
 40000000 000000000012 .TRIDEL        *15
 40000000 000000000021 .TRIDELENQ     *15
 40000000 000000000024 .TRIDEQ        *15
 40000000 000000000013 .TRIMOD        *15
 40000000 000000000022 .TRIMODENQ     *15
 40000000 000000000014 .TRIREAD       *15
 40000000 000000000023 .TRIREADENQ    *15
 40000000 000000000011 .TRISTO        *15
 40000000 000000000020 .TRISTOENQ     *15
 40000000 000000000017 .TRPDEQ        *15
 40000000 000000000004 .TRPMOD        *15
 40000000 000000000016 .TRPMODENQ     *15
 40000000 000000000002 .TRPREAD       *15
 40000000 000000000015 .TRPREADENQ    *15
 40000000 000000000003 .TRPWRITE      *15
 40000000 000000000010 .TRRACC        *15
 40000000 000000000006 .TRRDEL        *15
 40000000 000000000007 .TRRMOD        *15
 40000000 000000000005 .TRRSTO        *15
 40000000 000000004000 .ULCK          *15
 40000000 000000400000 .UPDT          *15
 40000000 000000000040 .VIA           *15
 60000000 000000000001 A              *15
 40000000 000000000002 ABAS           *15
 40000000 000000000001 AC             *15
 40000000 777777777760 ACDEF          *15
 40000000 000000211070 ACDNL          *15
 40000000 000000000003 ACID           *15
 40000000 000000001016 ACOPN          *15
 40000000 000000000002 ACP            *15
 40000000 000000000005 ACPTR          *15
 12:36 09/05/97  FILE=ZIM$CANSSS.:ZIC0TSI     SYMBOL TABLE                                               13   BMAP - B00
 40000000 000000000002 ACRAH          *15
 40000000 000000000001 ACRAN          *15
 40000000 000000001003 ACREC          *15
 40000000 000000000001 ACTDBCB        *15
 40000000 000000000002 ACTDBNO        *15
 40000000 000000001017 ACTP           *15
 40000000 000000000000 ACTSSS         *15
 40000000 000000000000 ACTSZ          *15
 40000000 000000210565 AFNP           *15
 40000000 000000000635 AFT            *15
 40000000 000000022124 AIR            *15
 40000000 000000000016 AMAX           *15
 41000000 000000000026 ANAM           *15        28
 40000000 000000021614 ANR            *15
 40000000 000000000001 APNO           *15
 40000000 000000210562 ARGER          *15
 41000000 000000000020 ARGS           *15
 40000000 000000000077 ARGS2          *15
 40000000 000000210713 ARNAF          *15
 01101000 000000000075 AS              30       *31        44        45
 07101000 000000000137 AS$SI           11        37       *38        45        46
 01101000 000000000205 ASSIM           32        45       *46
 01101000 000000000176 ASSIO           38        44       *45
 40000000 000000000003 ATBL           *15
 40000000 000000000000 ATRIB          *15
 40000000 000000000002 AVLN           *15
 40000000 000000000013 AWS$           *15
 40000000 000000000010 AWSZ           *15
 60000000 000000000001 B              *15
 40000000 000000001006 B32N           *15
 40000000 000000001007 B36N           *15
 40000000 000000001056 B72N           *15
 40000000 000000000001 BADDR          *15
 40000000 000000210712 BADSEED        *15
 40000000 777777777765 BDCW           *15
 40000000 000000000633 BEF            *15
 40000000 000000020000 BEFW           *15
 12:36 09/05/97  FILE=ZIM$CANSSS.:ZIC0TSI     SYMBOL TABLE                                               14   BMAP - B00
 40000000 000000000751 BEMT           *15
 40000000 777777777761 BID            *15
 40000000 777777777762 BIND           *15
 40000000 000000000007 BLKD           *15
 40000000 000000303331 BME02          *15
 41000000 000000001203 BMPB           *15
 40000000 000000000652 BN1            *15
 40000000 000000000654 BN2            *15
 40000000 000000000004 BPL            *15
 40000000 000000000015 BPLDBK         *15
 40000000 000000000034 BSPG           *15
 40000000 777777777763 BSTAT          *15
 40000000 000000000750 BTX0           *15
 41000000 000000001160 BUF4           *15
 41000000 000000001170 BUF6           *15
 41000000 000000000000 BUFORG         *15
 40000000 000000001060 BUFRQ          *15
 40000000 000000000006 BURRID         *15
 41000000 000000000020 BWASZ          *15
 60000000 000000000001 C              *15
 40000000 000000000050 CAAC           *15
 40000000 000000000050 CACD           *15
 40000000 000000000111 CAG            *15
 40000000 000000001033 CAL            *15
 40000000 000000000026 CALLPM0        *15
 40000000 000000000003 CANSSS         *15
 40000000 000000000003 CBCPA          *15
 40000000 000000000002 CBCPO          *15
 40000000 000000000002 CBENO          *15
 40000000 000000000014 CBFSZ          *15
 40000000 000000000753 CBIB           *15
 40000000 000000001030 CBID           *15
 40000000 000000000014 CBRCE          *15
 40000000 000000000014 CBRCP          *15
 40000000 000000001033 CBRID          *15
 40000000 000000000015 CBRPA          *15
 61000000 000000000041 CC             *28
 12:36 09/05/97  FILE=ZIM$CANSSS.:ZIC0TSI     SYMBOL TABLE                                               15   BMAP - B00
 40000000 000000000031 CCHAR          *15
 40000000 000000000040 CDBK           *15
 40000000 000000000030 CDES           *15
 40000000 000000000110 CDP            *15
 40000000 000000001044 CDPSI          *15
 40000000 000000000002 CDRH           *15
 40000000 000000000003 CDRN           *15
 40000000 000000000002 CDSH           *15
 40000000 000000000003 CDSN           *15
 40000000 000000000722 CENTRN         *15
 40000000 000000000722 CENTRO         *15
 40000000 000000000716 CENTRY         *15
 41000000 000000001053 CFCT           *15
 40000000 000000000670 CFLPT1         *15
 40000000 000000000672 CFLPT2         *15
 40000000 000000000015 CFSA           *15
 40000000 000000000646 CHDBK          *15
 40000000 000000000773 CHR            *15
 40000000 000000000006 CHRD           *15
 40000000 000000000772 CHRO           *15
 40000000 000000007640 CHRTP          *15
 40000000 000000001043 CIAC           *15
 40000000 000000000012 CIAWS          *15
 40000000 000000001051 CIBSI          *15
 40000000 000000000516 CIND           *15
 40000000 000000001041 CINVSZ         *15
 40000000 000000001042 CIPG           *15
 40000000 000000001050 CIPSI          *15
 40000000 000000000000 CIRUN          *15
 40000000 000000000002 CIRWS          *15
 40000000 000000000002 CISWS          *15
 40000000 000000000014 CIWSOF         *15
 40000000 000000303374 CKSM           *15
 40000000 000000000022 CLCN           *15
 40000000 000000000023 CLCP           *15
 40000000 000000000003 CLCRC          *15
 40000000 000000000003 CLCSC          *15
 12:36 09/05/97  FILE=ZIM$CANSSS.:ZIC0TSI     SYMBOL TABLE                                               16   BMAP - B00
 40000000 000000000237 CLI            *15
 40000000 000000000026 CLNG           *15
 40000000 000000000052 CMPL           *15
 40000000 000000000002 CN             *15
 40000000 000000303315 CNE1           *15
 40000000 000000006034 CNUL           *15
 40000000 000000100000 COB74          *15
 40000000 000000000001 COFS           *15
 40000000 000000000045 CONCD          *15
 40000000 000000007764 CP6PGSZB       *15
 41000000 000000001775 CP6PGSZW       *15
 40000000 000000001000 CPGR           *15
 40000000 000000000723 CPTRN          *15
 40000000 000000000723 CPTRO          *15
 60000000 000000000004 CPW            *15
 40000000 000000000112 CRA            *15
 40000000 000000001004 CRD            *15
 40000000 000000000764 CREC           *15
 40000000 000000006344 CRIT           *15
 40000000 000000006200 CRNUL          *15
 40000000 000000007330 CRST           *15
 41000000 000000001223 CRUN           *15
 41000000 000000000000 CSECT          *15
 40000000 000000000007 CSMPP          *15
 40000000 000000001000 CSPAC          *15
 40000000 000000000004 CSPAH          *15
 40000000 777777777776 CSPES          *15
 40000000 777777777776 CSPSB          *15
 40000000 000000000115 CSTS           *15
 40000000 000000000071 CSUB           *15
 40000000 000000000017 CSZ            *15
 40000000 000000000057 CTMASK         *15
 40000000 000000000774 CTPAI          *15
 40000000 000000000240 CURLN          *15
 40000000 000000000236 CURLT          *15
 40000000 000000000770 CURPG          *15
 40000000 000000000001 CURR           *15
 12:36 09/05/97  FILE=ZIM$CANSSS.:ZIC0TSI     SYMBOL TABLE                                               17   BMAP - B00
 40000000 000000000035 CURRS          *15
 40000000 000000000037 CURSS          *15
 40000000 000000001005 CWRT           *15
 40000000 000000000237 CWSOF          *15
 60000000 000000000001 D              *15
 40000000 000000000003 DBAN           *15
 40000000 000000000036 DBDR           *15
 40000000 000000000037 DBFN           *15
 40000000 000000000754 DBK            *15
 40000000 000000000777 DBKAC          *15
 40000000 000000000000 DBKEY          *15
 40000000 000000000000 DBKL           *15
 40000000 000000007474 DBKN           *15
 41000000 000000000776 DBKR           *15
 40000000 000000000777 DBKRQ          *15
 40000000 000000000234 DBKSI          *15
 40000000 000000000651 DBKSR          *15
 41000000 000000000002 DBKSZ          *26        28        43        44        45        46        47
                                       48        49        50        51        52
 40000000 000000000047 DBKYN          *15
 40000000 000000210652 DBLC01         *15
 40000000 000000210653 DBLC05         *15
 40000000 000000303334 DBLC07         *15
 40000000 000000210655 DBLD01         *15
 40000000 000000000010 DBLIM          *15
 40000000 000000000033 DBPKY          *15
 40000000 000000000023 DBRN           *15
 40000000 000000000013 DBSN           *15
 40000000 000000000001 DBST           *15
 40000000 000000000757 DCDSR          *15
 40000000 000000210650 DCE1           *15
 40000000 000000001053 DCPR           *15
 40000000 000000001053 DCPW           *15
 40000000 000000000015 DCTBL          *15
 40000000 000000000032 DDBK           *15
 40000000 000000000006 DDCB           *15
 40000000 000000011754 DDI            *15
 12:36 09/05/97  FILE=ZIM$CANSSS.:ZIC0TSI     SYMBOL TABLE                                               18   BMAP - B00
 40000000 000000000000 DEF            *15
 40000000 000000000014 DEF2           *15
 40000000 000000303413 DELAK          *15
 40000000 000000000036 DELRS          *15
 40000000 000000000732 DEPCW          *15
 40000000 000000303414 DLDBK          *15
 40000000 000000210627 DLE1           *15
 40000000 000000303310 DLE2           *15
 40000000 000000210631 DLE3           *15
 40000000 000000016040 DNES           *15
 40000000 777777777777 DPAGN          *15
 40000000 000000000020 DPPI           *15
 40000000 000000000053 DPSLW          *15
 40000000 000000000003 DS             *15
 40000000 000000001063 DSDES          *15
 40000000 000000303316 DSE1           *15
 40000000 000000000735 DUSEPA         *15
 60000000 000000000001 E              *15
 40000000 000000303251 EDPER          *15
 40000000 000000000026 EEIND          *15
 40000000 000000000713 EFIND          *15
 40000000 000000001030 ELO            *15
 40000000 000000210711 ENCPNA         *15
 40000000 000000000007 ENCRP          *15
 40000000 000000000752 ENDSR          *15
 40000000 000000210647 ENE1           *15
 40000000 000000000716 ENIND          *15
 40000000 000000000013 ENTBL          *15
 40000000 000000000710 ENTNO          *15
 40000000 000000000712 ENTPTR         *15
 40000000 000000000717 ENTSZ          *15
 40000000 000000000711 ENTTYP         *15
 40000000 000000004064 EOSR           *15
 40000000 000000000004 ES             *15
 41000000 000000000100 ESTSZ          *15
 40000000 000000000725 ESZ            *15
 40000000 000000000005 ETCADR         *15
 12:36 09/05/97  FILE=ZIM$CANSSS.:ZIC0TSI     SYMBOL TABLE                                               19   BMAP - B00
 40000000 000000000005 ETCDBNO        *15
 40000000 000000000064 EXCCD          *15
 40000000 000000234534 FALRT          *15
 40000000 000000001055 FBF72          *15
 40000000 000000001025 FBU61          *15
 40000000 000000001020 FBUF           *15
 40000000 000000001026 FBUF1          *15
 40000000 000000001027 FBUF4          *15
 40000000 000000001024 FBUF6          *15
 40000000 000000001022 FBUFM          *15
 40000000 000000001021 FBUFU          *15
 40000000 000000001023 FBUMD          *15
 40000000 000000000004 FCN            *15
 40000000 000000000051 FCNT           *15
 40000000 000000000002 FCP            *15
 40000000 000000000047 FCSS           *15
 40000000 000000000005 FD             *15
 40000000 000000210637 FDE1           *15
 40000000 000000303320 FDE2           *15
 40000000 000000303321 FDE3           *15
 40000000 000000210642 FDE4           *15
 40000000 000000210643 FDE5           *15
 40000000 000000210644 FDE6           *15
 40000000 000000303325 FDE7           *15
 40000000 000000303326 FDE8           *15
 40000000 000000000021 FEASZ          *15
 40000000 000000000740 FETM           *15
 40000000 000000000006 FI             *15
 40000000 000000000103 FIAC           *15
 41000000 000000001100 FIB1           *15
 41000000 000000001130 FIBP           *15
 40000000 000000000000 FIBX           *15
 40000000 000000000102 FICNT          *15
 40000000 000000000005 FIPN           *15
 40000000 000000000054 FKIND          *15
 40000000 000000000015 FLAGS          *15
 40000000 000000000244 FLDDSC         *15
 12:36 09/05/97  FILE=ZIM$CANSSS.:ZIC0TSI     SYMBOL TABLE                                               20   BMAP - B00
 40000000 000000000046 FLDTL          *15
 40000000 000000000020 FMSBF          *15
 40000000 000000000006 FNAM           *15
 40000000 000000000250 FNIND          *15
 40000000 000000000004 FNL            *15
 40000000 000000000101 FRAC           *15
 40000000 000000000002 FRANGE         *15
 40000000 000000211400 FRDNL          *15
 40000000 000000200000 FRTRN          *15
 40000000 000000000005 FRWSO          *15
 40000000 000000000767 FSLN           *15
 40000000 000000000766 FSOF           *15
 40000000 000000000060 FTIND          *15
 40000000 000000303240 FTLINCR        *15
 40000000 000000000021 FWSSZ          *15
 40000000 000000000246 GACDK          *15
 40000000 000000000014 GDCB           *15
 40000000 000000000006 GERROR         *15
 40000000 000000000016 GINHIB         *15
 40000000 000000000020 GIOAWS         *15
 40000000 000000000022 GIOBUF         *15
 40000000 000000000021 GIOPGNO        *15
 40000000 000000000015 GPAGE          *15
 40000000 000000000010 GRETAC         *15
 40000000 000000000011 GRETFR         *15
 40000000 000000000013 GRETRC         *15
 40000000 000000000012 GRETSC         *15
 40000000 000000000025 GRLCW          *15
 40000000 000000000014 GSTCD          *15
 40000000 000000000007 GSYSERR        *15
 40000000 000000000010 GT             *15
 40000000 000000000046 GTRNAME        *15
 40000000 000000000055 GTRPDCB        *15
 40000000 000000000056 GTRPNO         *15
 40000000 000000000057 GTRRDBK        *15
 40000000 000000000060 GTRRTYPE       *15
 40000000 000000000060 GTRTYPE        *15
 12:36 09/05/97  FILE=ZIM$CANSSS.:ZIC0TSI     SYMBOL TABLE                                               21   BMAP - B00
 40000000 000000000027 HASH           *15
 40000000 000000000022 HIA            *15
 40000000 000000000775 HIDB           *15
 40000000 000000000003 HIGHDBK        *15
 40000000 000000000004 HIGHPG         *15
 40000000 000000001037 HIL            *15
 40000000 000000000002 HILN           *15
 40000000 000000000006 HPOS           *15
 40000000 000000000756 IAAC           *15
 40000000 000000001011 IACLN          *15
 40000000 000000001010 IALC           *15
 40000000 000000010314 IAN            *15
 40000000 000000001012 IANLN          *15
 40000000 000000000001 IASID          *14
 40000000 000000020320 ICA            *15
 40000000 000000000023 ICKSMP         *15
 40000000 000000000024 ICKSMV         *15
 40000000 000000210742 ICNR           *15
 41000000 000000000020 ICSIZ          *15
 40000000 000000010004 IDBK           *15
 40000000 000000012120 IDI            *15
 40000000 000000000023 IDS            *15
 40000000 000000000011 IF             *15
 40000000 000000000021 IFIPN          *15
 40000000 000000000000 IFR            *15
 40000000 000000234546 IKSEQ          *15
 40000000 000000000113 INAFLAG        *15
 40000000 000000000016 INCHA          *15
 40000000 000000210566 INNM           *15
 40000000 000000210567 INSS           *15
 40000000 000000210575 INSST          *15
 40000000 000000303241 INTER          *15
 40000000 000000400000 INTII          *15
 40000000 000000000013 INTVL          *15
 40000000 000000001060 INVFLG         *15
 40000000 000000001043 INVOF          *15
 40000000 000000000014 INVT           *15
 12:36 09/05/97  FILE=ZIM$CANSSS.:ZIC0TSI     SYMBOL TABLE                                               22   BMAP - B00
 40000000 000000000034 IOBLK          *15
 40000000 000000303354 IOCLSD         *15
 40000000 000000303355 IOCLSK         *15
 40000000 000000303257 IOE1           *15
 40000000 000000303264 IOE11          *15
 40000000 000000303265 IOE12          *15
 40000000 000000303266 IOE18          *15
 40000000 000000303260 IOE2           *15
 40000000 000000303261 IOE3           *15
 40000000 000000303262 IOE7           *15
 40000000 000000303263 IOE8           *15
 40000000 000000303363 IOFLSH         *15
 40000000 000000210676 IOGDCB         *15
 40000000 000000001002 IOINC          *15
 40000000 000000305160 IOINI          *15
 40000000 000000305155 IONOTIDS       *15
 40000000 000000305154 IONOTKEY       *15
 40000000 000000210677 IOOPND         *15
 40000000 000000210700 IOOPNK         *15
 40000000 000000303361 IORDD          *15
 40000000 000000305156 IOSCHEMA       *15
 40000000 000000001052 IOSTS          *15
 40000000 000000303362 IOWRTD         *15
 41000000 000000000750 IOWS           *15
 40000000 000000000647 IPC            *15
 40000000 000000000650 IPCF           *15
 40000000 000000000006 IROLLFLAG      *15
 40000000 000000010150 IRSN           *15
 40000000 000000000004 ISYSDCB        *15
 40000000 000000000005 ISYSERR        *15
 40000000 000000000061 ITPTR          *15
 40000000 000000000060 ITRS           *15
 40000000 000000021760 IUM            *15
 40000000 000000000017 IUSZ           *15
 40000000 000000234522 IVDBK          *15
 40000000 000000000011 IXBUF$         *15
 40000000 000000000046 IXFBSZ         *15
 12:36 09/05/97  FILE=ZIM$CANSSS.:ZIC0TSI     SYMBOL TABLE                                               23   BMAP - B00
 40000000 777777777776 IXID           *15
 40000000 777777777777 IXPLL          *15
 40000000 000000000523 KCARG0         *15
 40000000 000000000524 KCARG3         *15
 40000000 000000000525 KCARG4         *15
 40000000 000000000700 KCREG          *15
 40000000 000000000006 KDCB           *15
 40000000 000000000666 KEYDS          *15
 40000000 000000000010 KEYPA          *15
 40000000 777777777776 KLNG           *15
 40000000 000000000022 KPASZ          *15
 40000000 000000000006 KWSZ           *15
 40000000 000000000052 LANGC          *15
 40000000 000000001014 LAS            *15
 40000000 000000700000 LCODM          *15
 40000000 000000001045 LDPSI          *15
 40000000 000000001071 LINPT          *15
 01101000 000000000125 LK              34       *35        52
 07101000 000000000153 LK$LT           11        40       *41        51        52
 01101000 000000000253 LKLTM           50       *51        52
 01101000 000000000263 LKLTO           35        41       *52
 40000000 000000001017 LNCNT          *15
 40000000 000000000762 LNNO           *15
 40000000 000000001036 LOL            *15
 40000000 000000000715 LOLIM          *15
 40000000 000000000023 LPASZ          *15
 40000000 000000000012 LPP            *15
 61000000 000000000200 LPPAG          *28
 40000000 000000257764 LR             *15
 40000000 000000301270 LRA            *15
 40000000 000000000017 LRSZ           *15
 40000000 000000001035 LSPC           *15
 01101000 000000000117 LT              33       *34        50        51
 40000000 000000000750 LUPD           *15
 61000000 000000000001 M9             *15
 40000000 000000000013 MD             *15
 40000000 000000300000 MDQS           *15
 12:36 09/05/97  FILE=ZIM$CANSSS.:ZIC0TSI     SYMBOL TABLE                                               24   BMAP - B00
 40000000 000000000730 MEMPTR         *15
 40000000 000000000727 MEMTYP         *15
 40000000 000000000045 MODCD          *15
 41000000 000000001207 MODFL          *15
 40000000 000000000042 MODFR          *15
 40000000 000000000044 MODIN          *15
 40000000 000000000044 MODRS          *15
 40000000 000000000043 MODSC          *15
 40000000 000000000047 MRBKI          *15
 40000000 000000210632 MRE4           *15
 40000000 000000303313 MRE5           *15
 40000000 000000210634 MRE7           *15
 40000000 000000400000 MW             *15
 40000000 000000000025 NCH            *15
 40000000 000000000002 NCHA           *15
 40000000 000000000005 NCHRS          *15
 40000000 000000000014 NDCD           *15
 40000000 000000000012 NENC           *15
 40000000 000000000634 NEW            *15
 40000000 000000001072 NEWSIZ         *15
 40000000 000000235164 NKA            *15
 40000000 000000235020 NKDB           *15
 40000000 000000303415 NLDBK          *15
 40000000 777777777777 NLIND          *15
 40000000 000000001040 NLN            *15
 40000000 000000400000 NLNSA          *15
 41000000 000000001053 NOBF           *15
 40000000 000000000711 NOPTRS         *15
 40000000 000000000742 NPARCW         *15
 40000000 000000000630 NPIND          *15
 40000000 000000000004 NPOS           *15
 40000000 000000234510 NSA            *15
 40000000 000000234654 NSCS           *15
 40000000 000000234344 NSDB           *15
 40000000 000000000001 NSTS           *15
 40000000 000000000726 NUMENT         *15
 40000000 000000000727 NUMPTR         *15
 12:36 09/05/97  FILE=ZIM$CANSSS.:ZIC0TSI     SYMBOL TABLE                                               25   BMAP - B00
 40000000 777777777760 NXBUF          *15
 40000000 000000000713 NXPRI          *15
 40000000 000000000771 NXTC           *15
 40000000 000000000001 OAACN          *15
 40000000 000000000022 OACIWSOF       *15
 40000000 000000000001 OAOFST         *15
 40000000 000000000002 OARCN          *15
 40000000 000000000001 OASCN          *15
 40000000 000000000014 OD             *15
 40000000 000000000074 ODBK           *15
 40000000 000000001072 OLDSIZ         *15
 40000000 000000000101 OPADP          *15
 40000000 000000000741 OPARCW         *15
 40000000 000000210570 ORDNI          *15
 40000000 777777777777 OTVL           *15
 40000000 000000000252 OWNPTR         *15
 40000000 000000000016 PABUF          *15
 40000000 000000001041 PACD           *15
 40000000 000000000001 PACW           *15
 40000000 000000000733 PADBK          *15
 40000000 000000000740 PADUP          *15
 40000000 000000000745 PAEN           *15
 40000000 000000000745 PAEO           *15
 40000000 000000000734 PAEOF          *15
 40000000 000000303336 PAER1          *15
 40000000 000000303337 PAER2          *15
 40000000 000000303340 PAER3          *15
 40000000 000000303341 PAER4          *15
 40000000 000000303342 PAER5          *15
 40000000 000000303343 PAER6          *15
 40000000 000000000747 PAESZ          *15
 40000000 000000001060 PAFLG          *15
 40000000 000000000731 PAOPTR         *15
 40000000 000000000734 PAPOF          *15
 40000000 000000000714 PARCW          *15
 40000000 000000000726 PARVPA         *15
 40000000 000000000724 PASPLT         *15
 12:36 09/05/97  FILE=ZIM$CANSSS.:ZIC0TSI     SYMBOL TABLE                                               26   BMAP - B00
 40000000 000000000004 PAWSZ          *15
 40000000 777777777762 PBUF           *15
 40000000 000000000020 PC             *15
 41000000 000000000510 PCB            *15
 40000000 000000000642 PCD            *15
 40000000 000000000642 PCD2           *15
 40000000 000000000247 PCEXI          *15
 40000000 000000000675 PCMIN          *15
 40000000 000000004541 PCOMP          *15
 40000000 000000000010 PD             *15
 40000000 000000000040 PE             *15
 40000000 000000000017 PENDING        *15
 40000000 000000000004 PF             *15
 40000000 000000000400 PFG            *15
 40000000 000000000200 PFM            *15
 40000000 000000000100 PFS            *15
 40000000 000000000400 PG             *15
 40000000 000000001064 PGHD           *15
 40000000 000000000006 PGLIM          *15
 40000000 000000000003 PGRNG          *15
 40000000 000000000746 PGSIZE         *15
 40000000 000000000641 PGSPLT         *15
 40000000 000000000100 PKAW           *15
 40000000 000000001034 PLO            *15
 40000000 000000000004 PLSEP          *15
 40000000 000000000200 PM             *15
 40000000 000000001054 PNEOO          *15
 40000000 000000001047 POFSI          *15
 40000000 000000000005 PPOS           *15
 40000000 000000000000 PR0            *14
 40000000 000000000001 PR1            *14
 40000000 000000000002 PR2            *14
 40000000 000000000003 PR3            *14
 40000000 000000000004 PR4            *14
 40000000 000000000005 PR5            *14
 40000000 000000000006 PR6            *14
 40000000 000000000007 PR7            *14
 12:36 09/05/97  FILE=ZIM$CANSSS.:ZIC0TSI     SYMBOL TABLE                                               27   BMAP - B00
 40000000 000000303267 PRE1           *15
 40000000 000000303277 PRE10          *15
 40000000 000000303270 PRE3           *15
 40000000 000000303271 PRE4           *15
 40000000 000000303272 PRE5           *15
 40000000 000000210613 PRE6           *15
 40000000 000000210614 PRE7           *15
 40000000 000000210615 PRE8           *15
 40000000 000000303276 PRE9           *15
 40000000 000000000522 PREXC          *15
 40000000 000000000521 PRFR           *15
 40000000 000000000521 PRFR2          *15
 40000000 000000000000 PRIV           *15
 40000000 000000000526 PROPA          *15
 40000000 000000000517 PRRC           *15
 40000000 000000000517 PRRS           *15
 40000000 000000000520 PRSC           *15
 40000000 000000000516 PRSS           *15
 40000000 000000000644 PRSTS          *15
 40000000 000000000100 PS             *15
 41000000 000000000000 PS0SID         *14
 41000000 000000000001 PS1SID         *14
 41000000 000000000002 PS2SID         *14
 41000000 000000000003 PS3SID         *14
 41000000 000000000004 PS4SID         *14
 40000000 000000000005 PS5SID         *14
 40000000 000000000006 PS6SID         *14
 40000000 000000303416 PSA            *15
 40000000 000000000020 PSC            *15
 40000000 000000000010 PSD            *15
 40000000 000000000004 PSF            *15
 40000000 000000000400 PSO            *15
 40000000 000000000720 PTESZ          *15
 40000000 000000000631 PTR            *15
 40000000 000000000724 PTRESZ         *15
 40000000 000000000710 PTRNO          *15
 41000000 000000000630 PWS            *15
 12:36 09/05/97  FILE=ZIM$CANSSS.:ZIC0TSI     SYMBOL TABLE                                               28   BMAP - B00
 40000000 000000000002 RADDR          *15
 40000000 000000000010 RADIX          *15
 40000000 000000000005 RAPTR          *15
 40000000 000000000004 RAWSOF         *15
 40000000 777777777766 RBA            *15
 40000000 000000023432 RCBI           *15
 40000000 000000211234 RCDNL          *15
 40000000 000000000005 RCFRH          *15
 40000000 000000000004 RCFRN          *15
 40000000 000000001075 RCHD           *15
 40000000 000000000001 RCID           *15
 40000000 000000000006 RCPTR          *15
 40000000 000000000002 RCRAH          *15
 40000000 000000000001 RCRAN          *15
 40000000 000000000003 RCRSH          *15
 40000000 000000000002 RCRSN          *15
 40000000 000000210667 RCVER1         *15
 40000000 000000210670 RCVER2         *15
 40000000 000000210671 RCVER4         *15
 40000000 000000210672 RCVER5         *15
 40000000 000000210673 RCVER6         *15
 40000000 000000000736 RCW1           *15
 40000000 000000000737 RCW2           *15
 40000000 000000000004 RCWSO          *15
 40000000 000000000077 RDAC           *15
 40000000 000000000076 RDCNT          *15
 40000000 000000040000 RDI            *15
 40000000 000000015674 RDLT           *15
 40000000 000000000075 RDYCW          *15
 40000000 000000000066 RECAC          *15
 40000000 000000000065 RECFR          *15
 40000000 000000000070 RECRC          *15
 40000000 000000000067 RECSC          *15
 40000000 000000000003 RECSZ          *15
 40000000 000000000235 REMLT          *15
 40000000 000000000062 REM_RECOVER    *15
 40000000 000000000251 RETFR          *15
 12:36 09/05/97  FILE=ZIM$CANSSS.:ZIC0TSI     SYMBOL TABLE                                               29   BMAP - B00
 40000000 000000210724 RFDNL          *15
 40000000 000000017644 RIM            *15
 40000000 000000000005 RNAM           *15
 40000000 000000015706 RNDLT          *15
 40000000 000000000662 RNG1           *15
 40000000 000000000664 RNG2           *15
 40000000 000000000073 RNGD           *15
 40000000 000000000072 RNGO           *15
 40000000 000000000660 RNGTAL         *15
 40000000 000000020154 RNM            *15
 40000000 000000000041 ROCUR          *15
 40000000 000000000001 ROFST          *15
 40000000 000000002114 ROLL           *15
 40000000 000000020010 RPM            *15
 40000000 000000000001 RSCDH          *15
 40000000 000000000001 RSCDN          *15
 40000000 000000211710 RSDNL          *15
 40000000 000000004540 RSEE           *15
 40000000 000000000003 RSIZ           *15
 40000000 000000000110 RSPAM          *15
 40000000 000000000004 RSPTR          *15
 40000000 000000000037 RSREQ          *15
 40000000 000000000002 RSSSH          *15
 40000000 000000000001 RSSSN          *15
 40000000 000000210574 RSZER          *15
 40000000 000000000632 RSZTP          *15
 40000000 000000000003 RTP            *15
 40000000 000000000003 RTYP           *15
 40000000 000000000530 RV1            *15
 40000000 000000000550 RV2            *15
 40000000 000000000570 RV3            *15
 40000000 000000000610 RV4            *15
 40000000 000000000003 RVASID         *14
 40000000 000000000510 RVI            *15
 40000000 000000000511 RVO            *15
 40000000 000000000513 RVPA           *15
 40000000 000000000512 RVT            *15
 12:36 09/05/97  FILE=ZIM$CANSSS.:ZIC0TSI     SYMBOL TABLE                                               30   BMAP - B00
 40000000 000000000022 RVTAL          *15
 40000000 000000000002 RWSZ           *15
 40000000 000000000015 RY             *15
 40000000 000000210620 RYE1           *15
 40000000 000000210621 RYE4           *15
 40000000 777777777767 SA             *15
 40000000 000000000005 SANAM          *15
 40000000 000000001062 SCDES          *15
 40000000 000000211544 SCDNL          *15
 40000000 000000000024 SCFC           *15
 40000000 000000000002 SCID           *15
 40000000 000000000024 SCLST          *15
 40000000 000000000004 SCNAM          *15
 40000000 000000000004 SCPTR          *15
 40000000 000000000003 SCRSH          *15
 40000000 000000000002 SCRSN          *15
 40000000 000000000001 SCWSO          *15
 01101000 000000000067 SF              26       *30        43
 07101000 000000000133 SF$AS           11        26       *37        43        44
 07101000 000000000030 SFAC1           10        26       *28
 01101000 000000000166 SFASM           31        43       *44
 01101000 000000000157 SFASO           30        37       *43
 06101000 000000000001 SFOA            10       *26
 41000000 000000001225 SFWS           *15        28
 01101000 000000000103 SI              31       *32        46        47
 40000000 000000001073 SIZCHG         *15
 40000000 000000000645 SKFLG          *15
 40000000 000000000643 SKIND          *15
 40000000 000000000641 SKTYP          *15
 40000000 000000020464 SMCR           *15
 01101000 000000000111 SN              32       *33        48        49
 07101000 000000000147 SN$LT           11        39       *40        49        50
 07101000 000000000143 SN$SI           11        38       *39        47        48
 40000000 000000000003 SNAM           *15
 40000000 000000000107 SNIND          *15
 01101000 000000000243 SNLTM           34        49       *50
 01101000 000000000234 SNLTO           40        48       *49
 12:36 09/05/97  FILE=ZIM$CANSSS.:ZIC0TSI     SYMBOL TABLE                                               31   BMAP - B00
 40000000 000000000735 SNPAE          *15
 40000000 000000001046 SNSI           *15
 01101000 000000000215 SNSIM           46       *47        48
 01101000 000000000225 SNSIO           33        39       *48
 40000000 000000000743 SOE            *15
 40000000 000000020630 SORSA          *15
 40000000 000000004374 SOSE           *15
 40000000 000000000000 SPAV           *15
 40000000 000000000744 SPCAVN         *15
 40000000 000000000744 SPCAVO         *15
 40000000 000000000765 SPLF           *15
 41000000 000000000765 SPND           *15
 40000000 000000000006 SSDT           *15
 01101000 000000000271 SSEND          *53        54
 40000000 000000303243 SSER           *15
 40000000 000000303244 SSER1          *15
 40000000 000000000002 SSH            *15
 40000000 000000000005 SSNAM          *15
 40000000 000000210573 SSNF           *15
 40000000 000000210576 SSNV           *15
 07101000 000000000000 SSORG            9       *26        28        30        31        32        33
                                       34        35        37        38        39        40        41
                                       43        44        45        46        47        48        49
                                       50        51        52        54
 40000000 000000000020 SSSPTR         *15
 40000000 000000000010 SSVDT          *15
 40000000 000000000033 SSZTP          *15
 40000000 000000000017 ST             *15
 40000000 000000000104 STBIN          *15
 40000000 000000000105 STDEC          *15
 40000000 000000303302 STE1           *15
 40000000 000000303303 STE2           *15
 40000000 000000210624 STE3           *15
 40000000 000000303305 STE4           *15
 40000000 000000303306 STE5           *15
 41000000 000000000100 STKSIZ         *15
 40000000 000000000055 STMASK         *15
 12:36 09/05/97  FILE=ZIM$CANSSS.:ZIC0TSI     SYMBOL TABLE                                               32   BMAP - B00
 40000000 000000000062 SUST           *15
 41000000 000000000020 SWS            *15
 40000000 000000000000 SWSAC          *15
 40000000 000000000002 SWSZ           *15
 40000000 000000000000 SYSSF          *15
 40000000 000000000765 SZREQ          *15
 40000000 000000000004 TBUF           *15
 40000000 000000001061 TCTRS          *15
 60000000 000000000000 TDS            *15
 41000000 000000000113 TEMP           *15
 40000000 000000000640 TFLD           *15
 40000000 000000000657 TFLD2          *15
 40000000 000000000056 TMASK          *15
 40000000 000000000061 TMODE          *15
 40000000 000000000676 TMPPA          *15
 40000000 000000000003 TPAI           *15
 40000000 000000500000 TPRCOD         *15
 40000000 000000001031 TSFN           *15
 40000000 000000000021 TSI            *15
 40000000 000000001013 UBRD2          *15
 41000000 000000001223 UBSZ           *15
 40000000 000000000667 UCADR          *15
 40000000 000000000036 UCRS           *15
 40000000 000000000024 UFSPK          *15
 40000000 000000000024 UFSPK2         *15
 40000000 000000000715 ULIM           *15
 40000000 000000004230 UNA            *15
 40000000 000000303417 UNIM           *15
 40000000 000000000002 UOFST          *15
 40000000 000000001035 UPACD          *15
 40000000 000000000721 UPACW          *15
 40000000 000000000007 UPFLAG         *15
 40000000 000000000103 UPPAI          *15
 40000000 000000000004 UPTSID         *14
 40000000 000000000674 USTAT          *15
 40000000 000000000002 UWASID         *14
 40000000 000000000002 UWSSZ          *15
 12:36 09/05/97  FILE=ZIM$CANSSS.:ZIC0TSI     SYMBOL TABLE                                               33   BMAP - B00
 40000000 000000000020 UWSZ           *15
 40000000 000000000243 VFDSC          *15
 40000000 000000001070 VFDSR          *15
 40000000 000000000656 VFLD           *15
 40000000 000000001074 VFLNG          *15
 40000000 000000001124 VIB1           *15
 40000000 000000001154 VIBP           *15
 40000000 000000000000 VLPSID         *14
 40000000 000000001074 VRSIZ          *15
 61000000 000000000010 WC             *28
 40000000 000000001067 WLOA           *15
 40000000 000000100000 WRTI           *15
 40000000 000000000000 WSBID          *15
 40000000 000000000003 WSOF           *15
 40000000 000000000000 X0             *14
 40000000 000000000001 X1             *14
 40000000 000000000002 X2             *14
 40000000 000000000003 X3             *14
 40000000 000000000004 X4             *14
 40000000 000000000005 X5             *14
 40000000 000000000006 X6             *14
 02201001 000000000000 X66_ARET       *14
 02201000 000000000000 X66_AUTO_0     *14
 40000000 000000000007 X7             *14
 40000000 000000210665 XASL           *15
 40000000 000000303420 XLD            *15
 40000000 000000303421 XPD            *15
 40000000 000000000676 XPRS           *15
 40000000 000000210666 XROLL          *15
 40000000 000000210664 XUNEX          *15
 40000000 777777777777 XXDPN          *15
 06101000 000000000271 ZITSSSSIZ        8       *54

     953 SYMBOLS

 12:36 09/05/97  FILE=ZIM$CANSSS.:ZIC0TSI     MACRO TABLE                                                34   BMAP - B00
 .DBAC           28
 .DBOA           26
 .DBRC           30        31        32        33        34        35
 .DBRS           43        44        45        46        47        48        49        50        51
                 52
 .DBSC           37        38        39        40        41
 CBSYM           15
 Q2SYM           15
 SSSYM           15

      37 MACROS

    SYMBOL SPACE USED  8995 WORDS
     MACRO SPACE USED 13054 WORDS
   INPUT RECORDS READ  1912
 STATEMENTS PROCESSED  2276
         ELAPSED TIME  0:10.28
             CPU TIME     9.81 SEC.
        ASSEMBLY RATE 13920 STATEMENTS/CPU MIN.

      NO ERRORS

