
PL6.E3A0      #001=ZIM$ECKPT File=ZIM$CKROL.:ZIC0TSI                             FRI 09/05/97 12:36 Page:1
        1        1        /*T***********************************************************/
        2        2        /*T*                                                         */
        3        3        /*T* Copyright (c) Bull HN Information Systems Inc., 1997    */
        4        4        /*T*                                                         */
        5        5        /*T***********************************************************/
        6        6        ZIM$ECKPT: PROC ALTRET
        7        7               AVOID($PR5,$PR6,$PR7);
        8        8        %INCLUDE ZI$GLOBAL;
        9      494            %GLOBALS;
       10      802        %INCLUDE ZI$USER;
       11      947            %IA;
       12      996        %INCLUDE ZI_ERRORS_C;
       13     1322    1   DCL PS0$ PTR SYMREF;
       14     1323    1   DCL PS2$ PTR SYMREF;
       15     1324    1   DCL ZIM$CHKPT ENTRY(1) ALTRET;
       16     1325    1   DCL ONEWORD UBIN(36) BASED;
       17     1326    1   DCL 1 DBSTATUS BASED(PS0$),
       18     1327    1         2 STATUS CHAR(7),
       19     1328    1         2 * CHAR(1);
       20     1329    1       CALL ZIM$CHKPT(PS2$->ONEWORD) ALTRET(ER_ALT);
       21     1330    1       CALL BINCHAR(DBSTATUS.STATUS,0);
       22     1331    1       IA.SYSERR=GLOBAL.RET.SYSERR#;
       23     1332    1       RETURN;
       24     1333    1   ER_ALT: CALL BINCHAR(DBSTATUS.STATUS,GLOBAL.RET.ERROR#+
       25     1334    1          GLOBAL.RET.STCD#*FTL#ERR#INCR);
       26     1335    1       IA.SYSERR=GLOBAL.RET.SYSERR#;
       27     1336    1       RETURN;
       28     1337    1   END ZIM$ECKPT;
       29     1338        %EOD;

PL6.E3A0      #001=ZIM$ECKPT File=ZIM$CKROL.:ZIC0TSI                             FRI 09/05/97 12:36 Page:2
--  Include file information  --

   ZI_ERRORS_C.:ZIC0TOU  is referenced.
   ZI$USER.:ZIC0TOU  is referenced.
   ZI$GLOBAL.:ZIC0TOU  is referenced.
   B$JIT_C.:E05TOU  was found in the system file and is never referenced.
   CP_6_C.:E05TOU  was found in the system file and is never referenced.
      No diagnostics issued in procedure ZIM$ECKPT.

   Procedure ZIM$ECKPT requires 33 words for executable code.
   Procedure ZIM$ECKPT requires 6 words of local(AUTO) storage.

PL6.E3A0      #001=ZIM$ECKPT File=ZIM$CKROL.:ZIC0TSI                             FRI 09/05/97 12:36 Page:3

 Object Unit name= ZIM$ECKPT                                  File name= ZIM$CKROL.:ZIC0TOU
 UTS= SEP 05 '97 12:36:38.96 FRI                              Compiler= PL-6/E31         Sev=      00
 SharedLib= :SHARED_SYSTEM                                    Alt SharedLib=


    ****  Control sections  ****

 Sect   Type Bound  Init  Size OctSiz  Section name(segment info)
    0   Proc  even  none    33     41  ZIM$ECKPT
    1  RoData even  none     1      1  ZIM$ECKPT

    ****  Entry defs  ****

                              Check   Calling
                             calling  sequence
  Sect OctLoc Primary Altret sequence   type   Parms  Name
     0      0   yes    yes     yes      XStd       0  ZIM$ECKPT

  ****  Entry refs  ****

         Check        Calling
        calling       sequence
Altret sequence SRef   type   Args  Name
 yes     yes           XStd      1 ZIM$CHKPT
                       nStd      0 X66_AUTO_0
                       nStd      0 X66_ARET

  ****  Data refs  ****

  Flags:  r = read only, s = secondary
Flgs Name                             Flgs Name                             Flgs Name
r    GLOBAL$                               IA$                                   PS0$
     PS2$
PL6.E3A0      #001=ZIM$ECKPT File=ZIM$CKROL.:ZIC0TSI                             FRI 09/05/97 12:36 Page:4


        1        1        /*T***********************************************************/
        2        2        /*T*                                                         */
        3        3        /*T* Copyright (c) Bull HN Information Systems Inc., 1997    */
        4        4        /*T*                                                         */
        5        5        /*T***********************************************************/
        6        6        ZIM$ECKPT: PROC ALTRET

      6  0 000000   000000 700200 xent  ZIM$ECKPT    TSX0  ! X66_AUTO_0
         0 000001   000006 000000                    ZERO    6,0

        7        7               AVOID($PR5,$PR6,$PR7);
        8        8        %INCLUDE ZI$GLOBAL;
        9      494            %GLOBALS;
       10      802        %INCLUDE ZI$USER;
       11      947            %IA;
       12      996        %INCLUDE ZI_ERRORS_C;
       13     1322    1   DCL PS0$ PTR SYMREF;
       14     1323    1   DCL PS2$ PTR SYMREF;
       15     1324    1   DCL ZIM$CHKPT ENTRY(1) ALTRET;
       16     1325    1   DCL ONEWORD UBIN(36) BASED;
       17     1326    1   DCL 1 DBSTATUS BASED(PS0$),
       18     1327    1         2 STATUS CHAR(7),
       19     1328    1         2 * CHAR(1);
       20     1329    1       CALL ZIM$CHKPT(PS2$->ONEWORD) ALTRET(ER_ALT);

   1329  0 000002   000000 630400 xsym               EPPR0   PS2$
         0 000003   000000 631400 1                  EPPR1   0
         0 000004   000000 701000 xent               TSX1    ZIM$CHKPT
         0 000005   000022 702000 0                  TSX2    ER_ALT

       21     1330    1       CALL BINCHAR(DBSTATUS.STATUS,0);

   1330  0 000006   000000 235003                    LDA     0,DU
         0 000007   000044 773000                    LRL     36
         0 000010   200004 757100                    STAQ    4,,AUTO
         0 000011   000000 470400 xsym               LDP0    PS0$
PL6.E3A0      #001=ZIM$ECKPT File=ZIM$CKROL.:ZIC0TSI                             FRI 09/05/97 12:36 Page:5
         0 000012   000100 301500                    BTD
         0 000013   200004 000010                    NDSC9   4,,AUTO                  cn=0,s=lsgnf,sf=0,n=8
         0 000014   000000 030007                    NDSC9   0,,PR0                   cn=0,s=nosgn,sf=0,n=7

       22     1331    1       IA.SYSERR=GLOBAL.RET.SYSERR#;

   1331  0 000015   000000 470400 xsym               LDP0    GLOBAL$
         0 000016   000007 236100                    LDQ     7,,PR0
         0 000017   000000 471400 xsym               LDP1    IA$
         0 000020   100005 756100                    STQ     5,,PR1

       23     1332    1       RETURN;

   1332  0 000021   000000 702200 xent               TSX2  ! X66_ARET

       24     1333    1   ER_ALT: CALL BINCHAR(DBSTATUS.STATUS,GLOBAL.RET.ERROR#+

   1333  0 000022   000000 470400 xsym  ER_ALT       LDP0    GLOBAL$
         0 000023   000014 236100                    LDQ     12,,PR0
         0 000024   777777 376007                    ANQ     -1,DL
         0 000025   303240 402007                    MPY     100000,DL
         0 000026   000006 036100                    ADLQ    6,,PR0
         0 000027   000000 235003                    LDA     0,DU
         0 000030   200004 757100                    STAQ    4,,AUTO
         0 000031   000000 471400 xsym               LDP1    PS0$
         0 000032   000100 301500                    BTD
         0 000033   200004 000010                    NDSC9   4,,AUTO                  cn=0,s=lsgnf,sf=0,n=8
         0 000034   100000 030007                    NDSC9   0,,PR1                   cn=0,s=nosgn,sf=0,n=7

       25     1334    1          GLOBAL.RET.STCD#*FTL#ERR#INCR);
       26     1335    1       IA.SYSERR=GLOBAL.RET.SYSERR#;

   1335  0 000035   000007 236100                    LDQ     7,,PR0
         0 000036   000000 471400 xsym               LDP1    IA$
         0 000037   100005 756100                    STQ     5,,PR1

       27     1336    1       RETURN;
PL6.E3A0      #001=ZIM$ECKPT File=ZIM$CKROL.:ZIC0TSI                             FRI 09/05/97 12:36 Page:6

   1336  0 000040   000000 702200 xent               TSX2  ! X66_ARET

(unnamed)
 Sect OctLoc
   1     000   000001 000000                                                    ....
       28     1337    1   END ZIM$ECKPT;
       29     1338        %EOD;

PL6.E3A0      #001=ZIM$ECKPT File=ZIM$CKROL.:ZIC0TSI                             FRI 09/05/97 12:36 Page:7
--  Include file information  --

   ZI_ERRORS_C.:ZIC0TOU  is referenced.
   ZI$USER.:ZIC0TOU  is referenced.
   ZI$GLOBAL.:ZIC0TOU  is referenced.
   B$JIT_C.:E05TOU  was found in the system file and is never referenced.
   CP_6_C.:E05TOU  was found in the system file and is never referenced.
      No diagnostics issued in procedure ZIM$ECKPT.

   Procedure ZIM$ECKPT requires 33 words for executable code.
   Procedure ZIM$ECKPT requires 6 words of local(AUTO) storage.
PL6.E3A0      #001=ZIM$ECKPT File=ZIM$CKROL.:ZIC0TSI                             FRI 09/05/97 12:36 Page:8
          *** CROSS REFERENCE LISTING ***
**     DENOTES     IDENTIFIER DEFINITION
<<                 IDENTIFIER'S VALUE SET
>>                 IDENTIFIER'S VALUE USED
<>                 IDENTIFIER SET AND/OR USED
--                 IDENTIFIER REFERENCED
PL6.E3A0      #001=ZIM$ECKPT File=ZIM$CKROL.:ZIC0TSI                             FRI 09/05/97 12:36 Page:9
          MINI XREF LISTING

DBSTATUS.STATUS
      1327**DCL      1330<<CALLBLT  1333<<CALLBLT
ER_ALT
      1333**LABEL    1329--CALLALT
GLOBAL.ACTIVE.DBCB$
       501**DCL       502--REDEF
GLOBAL.ACTIVE.SSS$
       497**DCL       498--REDEF
GLOBAL.KEY
       705**DCL       708--REDEF
GLOBAL.PARAN.TRACE.MODE
       580**DCL       587--REDEF
GLOBAL.PRINTBUF.BUFFER
       739**DCL       740--REDEF     741--REDEF     742--REDEF
GLOBAL.PRINTBUF.ERR.V
       744**DCL       747--REDEF     748--REDEF     749--REDEF
GLOBAL.RET.ERROR#
       515**DCL      1333>>CALLBLT
GLOBAL.RET.STCD#
       522**DCL      1333>>CALLBLT
GLOBAL.RET.SYSERR#
       516**DCL      1331>>ASSIGN   1335>>ASSIGN
GLOBAL$
       799**DCL       495--IMP-PTR  1331>>ASSIGN   1333>>CALLBLT  1333>>CALLBLT  1335>>ASSIGN
IA.SNAME
       972**DCL       973--REDEF
IA.SSDT
       984**DCL       985--REDEF
IA.SSNAME
       975**DCL       976--REDEF
IA.SYSERR
       958**DCL      1331<<ASSIGN   1335<<ASSIGN
PL6.E3A0      #001=ZIM$ECKPT File=ZIM$CKROL.:ZIC0TSI                             FRI 09/05/97 12:36 Page:10
IA$
       986**DCL       951--IMP-PTR  1331>>ASSIGN   1335>>ASSIGN
ONEWORD
      1325**DCL      1329<>CALL
PS0$
      1322**DCL      1326--IMP-PTR  1330>>CALLBLT  1333>>CALLBLT
PS2$
      1323**DCL      1329>>CALL
ZIM$CHKPT
      1324**DCL-ENT  1329--CALL

PL6.E3A0      #002=ZIM$CHKPT File=ZIM$CKROL.:ZIC0TSI                             FRI 09/05/97 12:36 Page:11
       30        1        /*T***********************************************************/
       31        2        /*T*                                                         */
       32        3        /*T* Copyright (c) Bull HN Information Systems Inc., 1997    */
       33        4        /*T*                                                         */
       34        5        /*T***********************************************************/
       35        6        ZIM$CHKPT: PROC(CKPTNO) ALTRET
       36        7               AVOID($PR5,$PR6,$PR7);
       37        8        %INCLUDE ZI$GLOBAL;
       38      494            %GLOBALS;
       39      802        %INCLUDE ZI$USER;
       40      947            %IA;
       41      996        %INCLUDE CP_6_SUBS;
       42     1536    1   DCL ZIM$JCKPT ENTRY(1);
       43     1537    1   DCL ZIM$NULL ENTRY ALTRET;
       44     1538    1   DCL ZIO$FLUSH ENTRY(1) ALTRET;
       45     1539    1   DCL ERROR UBIN(36);
       46     1540    1   DCL CKPTNO UBIN(36);
       47     1541    1       ERROR=0;
       48     1542    1       IF ~GLOBAL.PENDING.XCON THEN
       49     1543    1           GLOBAL.ROLLADDR=IA.UCALL_LOC;
       50     1544    1       CALL ZIO$FLUSH(%NO#) ALTRET(ER_ALT);
       51     1545    1       IF CKPTNO=0 THEN
       52     1546    2       DO;
       53     1547    2           GLOBAL.CKPTNO=GLOBAL.CKPTNO-1;
       54     1548    2           CALL ZIM$JCKPT(GLOBAL.CKPTNO);
       55     1549    2           END;
       56     1550    1       ELSE
       57     1551    1           CALL ZIM$JCKPT(CKPTNO);
       58     1552        /*       Clear outstanding ENQ's and null currencies */
       59     1553    1       CALL ZIM$NULL ALTRET(ER_ALT);
       60     1554    1       RETURN;
       61     1555    1   ER_ALT: ;
       62     1556            %DBALT;
       63     1570    1   END ZIM$CHKPT;
       64     1571        %EOD;

PL6.E3A0      #002=ZIM$CHKPT File=ZIM$CKROL.:ZIC0TSI                             FRI 09/05/97 12:36 Page:12
--  Include file information  --

   CP_6_SUBS.:LIB_E05  is referenced.
   ZI$USER.:ZIC0TOU  is referenced.
   ZI$GLOBAL.:ZIC0TOU  is referenced.
   B$JIT_C.:E05TOU  was found in the system file and is never referenced.
   CP_6_C.:E05TOU  was found in the system file and is never referenced.
      No diagnostics issued in procedure ZIM$CHKPT.

   Procedure ZIM$CHKPT requires 57 words for executable code.
   Procedure ZIM$CHKPT requires 8 words of local(AUTO) storage.

PL6.E3A0      #002=ZIM$CHKPT File=ZIM$CKROL.:ZIC0TSI                             FRI 09/05/97 12:36 Page:13

 Object Unit name= ZIM$CHKPT                                  File name= ZIM$CKROL.:ZIC0TOU
 UTS= SEP 05 '97 12:36:42.88 FRI                              Compiler= PL-6/E31         Sev=      00
 SharedLib= :SHARED_SYSTEM                                    Alt SharedLib=


    ****  Control sections  ****

 Sect   Type Bound  Init  Size OctSiz  Section name(segment info)
    0   Proc  even  none    57     71  ZIM$CHKPT
    1  RoData even  none     3      3  ZIM$CHKPT

    ****  Entry defs  ****

                              Check   Calling
                             calling  sequence
  Sect OctLoc Primary Altret sequence   type   Parms  Name
     0      0   yes    yes     yes      XStd       1  ZIM$CHKPT

  ****  Entry refs  ****

         Check        Calling
        calling       sequence
Altret sequence SRef   type   Args  Name
 yes     yes           XStd      1 ZIO$FLUSH
         yes           XStd      1 ZIM$JCKPT
         yes           XStd      0 ZIB$ERR
 yes     yes           XStd      0 ZIM$NULL
                       nStd      0 X66_AUTO_1
                       nStd      0 X66_ARET
                       nStd      0 X66_AALT

  ****  Data refs  ****

  Flags:  r = read only, s = secondary
Flgs Name                             Flgs Name                             Flgs Name
r    GLOBAL$                               IA$
PL6.E3A0      #002=ZIM$CHKPT File=ZIM$CKROL.:ZIC0TSI                             FRI 09/05/97 12:36 Page:14

  ****  Segment refs  ****

  Flags:  r = read only, s = secondary
Flgs Name                             Flgs Name                             Flgs Name
     ISSID
PL6.E3A0      #002=ZIM$CHKPT File=ZIM$CKROL.:ZIC0TSI                             FRI 09/05/97 12:36 Page:15


       30        1        /*T***********************************************************/
       31        2        /*T*                                                         */
       32        3        /*T* Copyright (c) Bull HN Information Systems Inc., 1997    */
       33        4        /*T*                                                         */
       34        5        /*T***********************************************************/
       35        6        ZIM$CHKPT: PROC(CKPTNO) ALTRET

      6  0 000000   000000 700200 xent  ZIM$CHKPT    TSX0  ! X66_AUTO_1
         0 000001   000010 000001                    ZERO    8,1

       36        7               AVOID($PR5,$PR6,$PR7);
       37        8        %INCLUDE ZI$GLOBAL;
       38      494            %GLOBALS;
       39      802        %INCLUDE ZI$USER;
       40      947            %IA;
       41      996        %INCLUDE CP_6_SUBS;
       42     1536    1   DCL ZIM$JCKPT ENTRY(1);
       43     1537    1   DCL ZIM$NULL ENTRY ALTRET;
       44     1538    1   DCL ZIO$FLUSH ENTRY(1) ALTRET;
       45     1539    1   DCL ERROR UBIN(36);
       46     1540    1   DCL CKPTNO UBIN(36);
       47     1541    1       ERROR=0;

   1541  0 000002   200004 450100                    STZ     ERROR,,AUTO

       48     1542    1       IF ~GLOBAL.PENDING.XCON THEN

   1542  0 000003   000000 470400 xsym               LDP0    GLOBAL$
         0 000004   000017 236100                    LDQ     15,,PR0
         0 000005   000006 736000                    QLS     6
         0 000006   400000 376003                    ANQ     -131072,DU
         0 000007   400000 676003                    ERQ     -131072,DU
         0 000010   000015 600000 0                  TZE     s:1544

       49     1543    1           GLOBAL.ROLLADDR=IA.UCALL_LOC;

PL6.E3A0      #002=ZIM$CHKPT File=ZIM$CKROL.:ZIC0TSI                             FRI 09/05/97 12:36 Page:16
   1543  0 000011   000000 471400 xsym               LDP1    IA$
         0 000012   100006 236100                    LDQ     6,,PR1
         0 000013   777777 376007                    ANQ     -1,DL
         0 000014   002612 756100                    STQ     1418,,PR0

       50     1544    1       CALL ZIO$FLUSH(%NO#) ALTRET(ER_ALT);

   1544  0 000015   000002 630400 1                  EPPR0   2
         0 000016   000000 631400 1                  EPPR1   0
         0 000017   000000 701000 xent               TSX1    ZIO$FLUSH
         0 000020   000050 702000 0                  TSX2    ER_ALT

       51     1545    1       IF CKPTNO=0 THEN

   1545  0 000021   200003 470500                    LDP0    @CKPTNO,,AUTO
         0 000022   000000 235100                    LDA     0,,PR0
         0 000023   000040 601000 0                  TNZ     s:1551

       52     1546    2       DO;

       53     1547    2           GLOBAL.CKPTNO=GLOBAL.CKPTNO-1;

   1547  0 000024   000000 471400 xsym               LDP1    GLOBAL$
         0 000025   102611 235100                    LDA     1417,,PR1
         0 000026   000001 135007                    SBLA    1,DL
         0 000027   102611 755100                    STA     1417,,PR1

       54     1548    2           CALL ZIM$JCKPT(GLOBAL.CKPTNO);

   1548  0 000030   000000 236000 xsym               LDQ     GLOBAL$
         0 000031   002611 036003                    ADLQ    1417,DU
         0 000032   200006 756100                    STQ     ERROR+2,,AUTO
         0 000033   200006 630500                    EPPR0   ERROR+2,,AUTO
         0 000034   000000 631400 1                  EPPR1   0
         0 000035   000000 701000 xent               TSX1    ZIM$JCKPT
         0 000036   000000 011000                    NOP     0

PL6.E3A0      #002=ZIM$CHKPT File=ZIM$CKROL.:ZIC0TSI                             FRI 09/05/97 12:36 Page:17
       55     1549    2           END;

   1549  0 000037   000044 710000 0                  TRA     s:1553

       56     1550    1       ELSE
       57     1551    1           CALL ZIM$JCKPT(CKPTNO);

   1551  0 000040   200003 630500                    EPPR0   @CKPTNO,,AUTO
         0 000041   000000 631400 1                  EPPR1   0
         0 000042   000000 701000 xent               TSX1    ZIM$JCKPT
         0 000043   000000 011000                    NOP     0

       58     1552        /*       Clear outstanding ENQ's and null currencies */
       59     1553    1       CALL ZIM$NULL ALTRET(ER_ALT);

   1553  0 000044   000001 631400 1                  EPPR1   1
         0 000045   000000 701000 xent               TSX1    ZIM$NULL
         0 000046   000050 702000 0                  TSX2    ER_ALT

       60     1554    1       RETURN;

   1554  0 000047   000000 702200 xent               TSX2  ! X66_ARET

   1545  0 000050                       ER_ALT       null
       61     1555    1   ER_ALT: ;
       62     1556            %DBALT;

   1557  0 000050   000000 470400 xsym               LDP0    GLOBAL$
         0 000051   000006 235100                    LDA     6,,PR0
         0 000052   000061 601000 0                  TNZ     s:1565

   1559  0 000053   000010 450100                    STZ     8,,PR0

   1560  0 000054   000012 450100                    STZ     10,,PR0

   1561  0 000055   000013 450100                    STZ     11,,PR0

PL6.E3A0      #002=ZIM$CHKPT File=ZIM$CKROL.:ZIC0TSI                             FRI 09/05/97 12:36 Page:18
   1562  0 000056   000011 450100                    STZ     9,,PR0

   1563  0 000057   200004 236100                    LDQ     ERROR,,AUTO
         0 000060   000006 756100                    STQ     6,,PR0

   1565  0 000061   000006 235100                    LDA     6,,PR0
         0 000062   303240 115007                    CMPA    100000,DL
         0 000063   000065 603000 0                  TRC     s:1568

   1566  0 000064   000000 702200 xent               TSX2  ! X66_AALT

   1568  0 000065   000001 631400 1                  EPPR1   1
         0 000066   000000 701000 xent               TSX1    ZIB$ERR
         0 000067   000000 011000                    NOP     0

       63     1570    1   END ZIM$CHKPT;

   1570  0 000070   000000 702200 xent               TSX2  ! X66_ARET

(unnamed)
 Sect OctLoc
   1     000   000001 000000   000000 000000   000001 006000                    ............
       64     1571        %EOD;

PL6.E3A0      #002=ZIM$CHKPT File=ZIM$CKROL.:ZIC0TSI                             FRI 09/05/97 12:36 Page:19
--  Include file information  --

   CP_6_SUBS.:LIB_E05  is referenced.
   ZI$USER.:ZIC0TOU  is referenced.
   ZI$GLOBAL.:ZIC0TOU  is referenced.
   B$JIT_C.:E05TOU  was found in the system file and is never referenced.
   CP_6_C.:E05TOU  was found in the system file and is never referenced.
      No diagnostics issued in procedure ZIM$CHKPT.

   Procedure ZIM$CHKPT requires 57 words for executable code.
   Procedure ZIM$CHKPT requires 8 words of local(AUTO) storage.
PL6.E3A0      #002=ZIM$CHKPT File=ZIM$CKROL.:ZIC0TSI                             FRI 09/05/97 12:36 Page:20
          *** CROSS REFERENCE LISTING ***
**     DENOTES     IDENTIFIER DEFINITION
<<                 IDENTIFIER'S VALUE SET
>>                 IDENTIFIER'S VALUE USED
<>                 IDENTIFIER SET AND/OR USED
--                 IDENTIFIER REFERENCED
PL6.E3A0      #002=ZIM$CHKPT File=ZIM$CKROL.:ZIC0TSI                             FRI 09/05/97 12:36 Page:21
          MINI XREF LISTING

CKPTNO
      1540**DCL         6--PROC     1545>>IF       1551<>CALL
ERROR
      1539**DCL      1541<<ASSIGN   1563>>ASSIGN
ER_ALT
      1545**LABEL    1544--CALLALT  1553--CALLALT
GLOBAL.ACTIVE.DBCB$
       501**DCL       502--REDEF
GLOBAL.ACTIVE.SSS$
       497**DCL       498--REDEF
GLOBAL.CKPTNO
       691**DCL      1547<<ASSIGN   1547>>ASSIGN   1548<>CALL
GLOBAL.KEY
       705**DCL       708--REDEF
GLOBAL.PARAN.TRACE.MODE
       580**DCL       587--REDEF
GLOBAL.PENDING.XCON
       534**DCL      1542>>IF
GLOBAL.PRINTBUF.BUFFER
       739**DCL       740--REDEF     741--REDEF     742--REDEF
GLOBAL.PRINTBUF.ERR.V
       744**DCL       747--REDEF     748--REDEF     749--REDEF
GLOBAL.RET.AC#
       517**DCL      1559<<ASSIGN
GLOBAL.RET.ERROR#
       515**DCL      1557>>IF       1563<<ASSIGN   1565>>IF
GLOBAL.RET.FR#
       518**DCL      1562<<ASSIGN
GLOBAL.RET.RC#
       520**DCL      1561<<ASSIGN
GLOBAL.RET.SC#
       519**DCL      1560<<ASSIGN
PL6.E3A0      #002=ZIM$CHKPT File=ZIM$CKROL.:ZIC0TSI                             FRI 09/05/97 12:36 Page:22
GLOBAL.ROLLADDR
       692**DCL      1543<<ASSIGN
GLOBAL$
       799**DCL       495--IMP-PTR  1542>>IF       1543>>ASSIGN   1547>>ASSIGN   1547>>ASSIGN   1548>>CALL
      1557>>IF       1559>>ASSIGN   1560>>ASSIGN   1561>>ASSIGN   1562>>ASSIGN   1563>>ASSIGN   1565>>IF
IA.SNAME
       972**DCL       973--REDEF
IA.SSDT
       984**DCL       985--REDEF
IA.SSNAME
       975**DCL       976--REDEF
IA.UCALL_LOC
       960**DCL      1543>>ASSIGN
IA$
       986**DCL       951--IMP-PTR  1543>>ASSIGN
ZIB$ERR
       800**DCL-ENT  1568--CALL
ZIM$JCKPT
      1536**DCL-ENT  1548--CALL     1551--CALL
ZIM$NULL
      1537**DCL-ENT  1553--CALL
ZIO$FLUSH
      1538**DCL-ENT  1544--CALL

PL6.E3A0      #003=ZIM$EROL File=ZIM$CKROL.:ZIC0TSI                              FRI 09/05/97 12:36 Page:23
       65        1        /*T***********************************************************/
       66        2        /*T*                                                         */
       67        3        /*T* Copyright (c) Bull HN Information Systems Inc., 1997    */
       68        4        /*T*                                                         */
       69        5        /*T***********************************************************/
       70        6        ZIM$EROL: PROC ALTRET
       71        7               AVOID($PR5,$PR6,$PR7);
       72        8    1   DCL ZIM$PROL ENTRY ALTRET;
       73        9    1   DCL ZIO$FLUSH ENTRY(1) ALTRET;
       74       10    1   DCL PS0$ PTR SYMREF;
       75       11    1   DCL B$JIT$ PTR SYMREF;
       76       12    1   DCL 1 DBSTATUS BASED(PS0$),
       77       13    1         2 STATUS CHAR(7),
       78       14    1         2 * CHAR(1);
       79       15    1   DCL ROLLMSG CHAR(37) CONSTANT INIT('Rollback unsuccessful during recovery');
       80       16        %INCLUDE CP_6;
       81       97         %FPT_KEYIN(FPTN=FPT$KEYIN,STCLASS=BASED);
       82      116        %INCLUDE CP_6_SUBS;
       83      656        %INCLUDE ZI$GLOBAL;
       84     1142        %GLOBALS;
       85     1450        %INCLUDE ZI_ERRORS_C;
       86     1776        %INCLUDE ZI$USER;
       87     1921         %IA;
       88     1970        %INCLUDE B$JIT;
       89     2260
       90     2261
       91     2262    1       CALL ZIO$FLUSH(%YES#) ALTRET(ALT);
       92     2263    2       IF B$JIT$->B$JIT.SYSID=1 AND B$JIT$->B$JIT.USER=1 THEN DO;
       93     2264    2           GLOBAL.PENDING.RECVRY = '1'B;
       94     2265    2           GLOBAL.PENDING.RELEASE=%YES#;
       95     2266    2           END;
       96     2267    2       IF GLOBAL.PENDING.RECVRY OR GLOBAL.UPDATE.TJRNL>0 THEN DO;
       97     2268    2           CALL ZIM$PROL ALTRET(ER_PROL);
       98     2269    2           IF NOT GLOBAL.PENDING.RECVRY THEN
       99     2270    2               CALL BINCHAR(DBSTATUS.STATUS,GLOBAL.RET.ERROR#+
      100     2271    2                  GLOBAL.RET.STCD#*FTL#ERR#INCR);
      101     2272    2           END;
PL6.E3A0      #003=ZIM$EROL File=ZIM$CKROL.:ZIC0TSI                              FRI 09/05/97 12:36 Page:24
      102     2273    2       ELSE DO; /* User called Rollback when not valid. */
      103     2274    2           GLOBAL.RET.ERROR#=ERR#RL#TJNA;
      104     2275    2           CALL BINCHAR(DBSTATUS.STATUS,GLOBAL.RET.ERROR#+
      105     2276    2              GLOBAL.RET.STCD#*FTL#ERR#INCR);
      106     2277    2           IA.SYSERR=GLOBAL.RET.SYSERR#;
      107     2278    2           END;
      108     2279    1       RETURN;
      109     2280    1   ER_PROL: ;
      110     2281    1   ALT: ;
      111     2282    2       IF ~GLOBAL.PENDING.RECVRY THEN DO;
      112     2283    2           CALL BINCHAR(DBSTATUS.STATUS,GLOBAL.RET.ERROR#+
      113     2284    2              GLOBAL.RET.STCD#*FTL#ERR#INCR);
      114     2285    2           IA.SYSERR=GLOBAL.RET.SYSERR#;
      115     2286    2           END;
      116     2287    2       ELSE DO;
      117     2288    2           GLOBAL.PRINTBUF.BUFFER=ROLLMSG;
      118     2289    2           CALL M$KEYIN(GLOBAL.KEYIN$->FPT$KEYIN);
      119     2290    2           END;
      120     2291    1       CALL M$ERR;
      121     2292    1   END ZIM$EROL;
      122     2293        %EOD;

PL6.E3A0      #003=ZIM$EROL File=ZIM$CKROL.:ZIC0TSI                              FRI 09/05/97 12:36 Page:25
--  Include file information  --

   B$JIT.:LIB_E05  cannot be made into a system file and is referenced.
   ZI$USER.:ZIC0TOU  is referenced.
   ZI_ERRORS_C.:ZIC0TOU  is referenced.
   ZI$GLOBAL.:ZIC0TOU  is referenced.
   CP_6_SUBS.:LIB_E05  is referenced.
   CP_6.:LIB_E05  cannot be made into a system file and is referenced.
   B$JIT_C.:E05TOU  was found in the system file and is referenced.
   CP_6_C.:E05TOU  was found in the system file and is referenced.
      No diagnostics issued in procedure ZIM$EROL.

   Procedure ZIM$EROL requires 89 words for executable code.
   Procedure ZIM$EROL requires 6 words of local(AUTO) storage.

PL6.E3A0      #003=ZIM$EROL File=ZIM$CKROL.:ZIC0TSI                              FRI 09/05/97 12:36 Page:26

 Object Unit name= ZIM$EROL                                   File name= ZIM$CKROL.:ZIC0TOU
 UTS= SEP 05 '97 12:36:47.84 FRI                              Compiler= PL-6/E31         Sev=      00
 SharedLib= :SHARED_SYSTEM                                    Alt SharedLib=


    ****  Control sections  ****

 Sect   Type Bound  Init  Size OctSiz  Section name(segment info)
    0  RoData even  UTS     10     12  ZIM$EROL
    1   DCB   even  none     0      0  M$UC
    2   Proc  even  none    89    131  ZIM$EROL
    3  RoData even  none     4      4  ZIM$EROL

    ****  Entry defs  ****

                              Check   Calling
                             calling  sequence
  Sect OctLoc Primary Altret sequence   type   Parms  Name
     2      0   yes    yes     yes      XStd       0  ZIM$EROL

  ****  Entry refs  ****

         Check        Calling
        calling       sequence
Altret sequence SRef   type   Args  Name
 yes     yes           XStd      1 ZIO$FLUSH
 yes     yes           XStd      0 ZIM$PROL
                       nStd      0 X66_AUTO_0
                       nStd      0 X66_ARET

  ****  Data refs  ****

  Flags:  r = read only, s = secondary
Flgs Name                             Flgs Name                             Flgs Name
     PS0$                                  B$JIT$                                M$UC
r    GLOBAL$                               IA$
PL6.E3A0      #003=ZIM$EROL File=ZIM$CKROL.:ZIC0TSI                              FRI 09/05/97 12:36 Page:27

  ****  Segment refs  ****

  Flags:  r = read only, s = secondary
Flgs Name                             Flgs Name                             Flgs Name
     ISSID
PL6.E3A0      #003=ZIM$EROL File=ZIM$CKROL.:ZIC0TSI                              FRI 09/05/97 12:36 Page:28


       65        1        /*T***********************************************************/
       66        2        /*T*                                                         */
       67        3        /*T* Copyright (c) Bull HN Information Systems Inc., 1997    */
       68        4        /*T*                                                         */
       69        5        /*T***********************************************************/
       70        6        ZIM$EROL: PROC ALTRET

      6  2 000000   000000 700200 xent  ZIM$EROL     TSX0  ! X66_AUTO_0
         2 000001   000006 000000                    ZERO    6,0

       71        7               AVOID($PR5,$PR6,$PR7);
       72        8    1   DCL ZIM$PROL ENTRY ALTRET;
       73        9    1   DCL ZIO$FLUSH ENTRY(1) ALTRET;
       74       10    1   DCL PS0$ PTR SYMREF;
       75       11    1   DCL B$JIT$ PTR SYMREF;
       76       12    1   DCL 1 DBSTATUS BASED(PS0$),
       77       13    1         2 STATUS CHAR(7),
       78       14    1         2 * CHAR(1);
       79       15    1   DCL ROLLMSG CHAR(37) CONSTANT INIT('Rollback unsuccessful during recovery');
       80       16        %INCLUDE CP_6;
       81       97         %FPT_KEYIN(FPTN=FPT$KEYIN,STCLASS=BASED);
       82      116        %INCLUDE CP_6_SUBS;
       83      656        %INCLUDE ZI$GLOBAL;
       84     1142        %GLOBALS;
       85     1450        %INCLUDE ZI_ERRORS_C;
       86     1776        %INCLUDE ZI$USER;
       87     1921         %IA;
       88     1970        %INCLUDE B$JIT;
       89     2260
       90     2261
       91     2262    1       CALL ZIO$FLUSH(%YES#) ALTRET(ALT);

   2262  2 000002   000002 630400 3                  EPPR0   2
         2 000003   000000 631400 3                  EPPR1   0
         2 000004   000000 701000 xent               TSX1    ZIO$FLUSH
         2 000005   000073 702000 2                  TSX2    ER_PROL
PL6.E3A0      #003=ZIM$EROL File=ZIM$CKROL.:ZIC0TSI                              FRI 09/05/97 12:36 Page:29

       92     2263    2       IF B$JIT$->B$JIT.SYSID=1 AND B$JIT$->B$JIT.USER=1 THEN DO;

   2263  2 000006   000000 470400 xsym               LDP0    B$JIT$
         2 000007   000000 720100                    LXL0    0,,PR0
         2 000010   000001 100003                    CMPX0   1,DU
         2 000011   000023 601000 2                  TNZ     s:2267
         2 000012   000000 236100                    LDQ     0,,PR0
         2 000013   000777 376003                    ANQ     511,DU
         2 000014   000001 116003                    CMPQ    1,DU
         2 000015   000023 601000 2                  TNZ     s:2267

       93     2264    2           GLOBAL.PENDING.RECVRY = '1'B;

   2264  2 000016   000000 471400 xsym               LDP1    GLOBAL$
         2 000017   010000 236003                    LDQ     4096,DU
         2 000020   100017 256100                    ORSQ    15,,PR1

       94     2265    2           GLOBAL.PENDING.RELEASE=%YES#;

   2265  2 000021   400000 236003                    LDQ     -131072,DU
         2 000022   100017 256100                    ORSQ    15,,PR1

       95     2266    2           END;

       96     2267    2       IF GLOBAL.PENDING.RECVRY OR GLOBAL.UPDATE.TJRNL>0 THEN DO;

   2267  2 000023   000000 471400 xsym               LDP1    GLOBAL$
         2 000024   100017 236100                    LDQ     15,,PR1
         2 000025   010000 316003                    CANQ    4096,DU
         2 000026   000031 601000 2                  TNZ     s:2268
         2 000027   102613 220100                    LDX0    1419,,PR1
         2 000030   000053 600000 2                  TZE     s:2274

       97     2268    2           CALL ZIM$PROL ALTRET(ER_PROL);

   2268  2 000031   000003 631400 3                  EPPR1   3
PL6.E3A0      #003=ZIM$EROL File=ZIM$CKROL.:ZIC0TSI                              FRI 09/05/97 12:36 Page:30
         2 000032   000000 701000 xent               TSX1    ZIM$PROL
         2 000033   000073 702000 2                  TSX2    ER_PROL

       98     2269    2           IF NOT GLOBAL.PENDING.RECVRY THEN

   2269  2 000034   000000 470400 xsym               LDP0    GLOBAL$
         2 000035   000017 236100                    LDQ     15,,PR0
         2 000036   010000 316003                    CANQ    4096,DU
         2 000037   000072 601000 2                  TNZ     s:2279

       99     2270    2               CALL BINCHAR(DBSTATUS.STATUS,GLOBAL.RET.ERROR#+

   2270  2 000040   000014 236100                    LDQ     12,,PR0
         2 000041   777777 376007                    ANQ     -1,DL
         2 000042   303240 402007                    MPY     100000,DL
         2 000043   000006 036100                    ADLQ    6,,PR0
         2 000044   000000 235003                    LDA     0,DU
         2 000045   200004 757100                    STAQ    4,,AUTO
         2 000046   000000 471400 xsym               LDP1    PS0$
         2 000047   000100 301500                    BTD
         2 000050   200004 000010                    NDSC9   4,,AUTO                  cn=0,s=lsgnf,sf=0,n=8
         2 000051   100000 030007                    NDSC9   0,,PR1                   cn=0,s=nosgn,sf=0,n=7

      100     2271    2                  GLOBAL.RET.STCD#*FTL#ERR#INCR);
      101     2272    2           END;

   2272  2 000052   000072 710000 2                  TRA     s:2279

      102     2273    2       ELSE DO; /* User called Rollback when not valid. */

      103     2274    2           GLOBAL.RET.ERROR#=ERR#RL#TJNA;

   2274  2 000053   210723 235007                    LDA     70099,DL
         2 000054   100006 755100                    STA     6,,PR1

      104     2275    2           CALL BINCHAR(DBSTATUS.STATUS,GLOBAL.RET.ERROR#+

PL6.E3A0      #003=ZIM$EROL File=ZIM$CKROL.:ZIC0TSI                              FRI 09/05/97 12:36 Page:31
   2275  2 000055   100014 236100                    LDQ     12,,PR1
         2 000056   777777 376007                    ANQ     -1,DL
         2 000057   303240 402007                    MPY     100000,DL
         2 000060   100006 036100                    ADLQ    6,,PR1
         2 000061   000000 235003                    LDA     0,DU
         2 000062   200004 757100                    STAQ    4,,AUTO
         2 000063   000000 473400 xsym               LDP3    PS0$
         2 000064   000100 301500                    BTD
         2 000065   200004 000010                    NDSC9   4,,AUTO                  cn=0,s=lsgnf,sf=0,n=8
         2 000066   300000 030007                    NDSC9   0,,PR3                   cn=0,s=nosgn,sf=0,n=7

      105     2276    2              GLOBAL.RET.STCD#*FTL#ERR#INCR);
      106     2277    2           IA.SYSERR=GLOBAL.RET.SYSERR#;

   2277  2 000067   100007 236100                    LDQ     7,,PR1
         2 000070   000000 470400 xsym               LDP0    IA$
         2 000071   000005 756100                    STQ     5,,PR0

      107     2278    2           END;

      108     2279    1       RETURN;

   2279  2 000072   000000 702200 xent               TSX2  ! X66_ARET

      109     2280    1   ER_PROL: ;

   2280  2 000073                       ER_PROL      null
   2280  2 000073                       ALT          null
      110     2281    1   ALT: ;
      111     2282    2       IF ~GLOBAL.PENDING.RECVRY THEN DO;

   2282  2 000073   000000 470400 xsym               LDP0    GLOBAL$
         2 000074   000017 236100                    LDQ     15,,PR0
         2 000075   000005 736000                    QLS     5
         2 000076   400000 376003                    ANQ     -131072,DU
         2 000077   400000 676003                    ERQ     -131072,DU
         2 000100   000117 600000 2                  TZE     s:2288
PL6.E3A0      #003=ZIM$EROL File=ZIM$CKROL.:ZIC0TSI                              FRI 09/05/97 12:36 Page:32

      112     2283    2           CALL BINCHAR(DBSTATUS.STATUS,GLOBAL.RET.ERROR#+

   2283  2 000101   000014 236100                    LDQ     12,,PR0
         2 000102   777777 376007                    ANQ     -1,DL
         2 000103   303240 402007                    MPY     100000,DL
         2 000104   000006 036100                    ADLQ    6,,PR0
         2 000105   000000 235003                    LDA     0,DU
         2 000106   200004 757100                    STAQ    4,,AUTO
         2 000107   000000 471400 xsym               LDP1    PS0$
         2 000110   000100 301500                    BTD
         2 000111   200004 000010                    NDSC9   4,,AUTO                  cn=0,s=lsgnf,sf=0,n=8
         2 000112   100000 030007                    NDSC9   0,,PR1                   cn=0,s=nosgn,sf=0,n=7

      113     2284    2              GLOBAL.RET.STCD#*FTL#ERR#INCR);
      114     2285    2           IA.SYSERR=GLOBAL.RET.SYSERR#;

   2285  2 000113   000007 236100                    LDQ     7,,PR0
         2 000114   000000 471400 xsym               LDP1    IA$
         2 000115   100005 756100                    STQ     5,,PR1

      115     2286    2           END;

   2286  2 000116   000126 710000 2                  TRA     s:2291

      116     2287    2       ELSE DO;

      117     2288    2           GLOBAL.PRINTBUF.BUFFER=ROLLMSG;

   2288  2 000117   040100 100400                    MLR     fill='040'O
         2 000120   000000 000045 0                  ADSC9   ROLLMSG                  cn=0,n=37
         2 000121   005025 000204                    ADSC9   2581,,PR0                cn=0,n=132

      118     2289    2           CALL M$KEYIN(GLOBAL.KEYIN$->FPT$KEYIN);

   2289  2 000122   005125 471500                    LDP1    2645,,PR0
         2 000123   100000 630500                    EPPR0   0,,PR1
PL6.E3A0      #003=ZIM$EROL File=ZIM$CKROL.:ZIC0TSI                              FRI 09/05/97 12:36 Page:33
         2 000124   120000 713400                    CLIMB   40960
         2 000125   401400 401760                    pmme    nvectors=4

      119     2290    2           END;

      120     2291    1       CALL M$ERR;

   2291  2 000126   000002 713400                    CLIMB   err
         2 000127   000000 401760                    pmme    nvectors=0

      121     2292    1   END ZIM$EROL;

   2292  2 000130   000000 702200 xent               TSX2  ! X66_ARET

ROLLMSG
 Sect OctLoc
   0     000   122157 154154   142141 143153   040165 156163   165143 143145    Rollback unsucce
   0     004   163163 146165   154040 144165   162151 156147   040162 145143    ssful during rec
   0     010   157166 145162   171*** ******                                    overy...

(unnamed)
 Sect OctLoc
   3     000   000001 000000   400000 000000   000001 006000   000000 000000    ................
      122     2293        %EOD;

PL6.E3A0      #003=ZIM$EROL File=ZIM$CKROL.:ZIC0TSI                              FRI 09/05/97 12:36 Page:34
--  Include file information  --

   B$JIT.:LIB_E05  cannot be made into a system file and is referenced.
   ZI$USER.:ZIC0TOU  is referenced.
   ZI_ERRORS_C.:ZIC0TOU  is referenced.
   ZI$GLOBAL.:ZIC0TOU  is referenced.
   CP_6_SUBS.:LIB_E05  is referenced.
   CP_6.:LIB_E05  cannot be made into a system file and is referenced.
   B$JIT_C.:E05TOU  was found in the system file and is referenced.
   CP_6_C.:E05TOU  was found in the system file and is referenced.
      No diagnostics issued in procedure ZIM$EROL.

   Procedure ZIM$EROL requires 89 words for executable code.
   Procedure ZIM$EROL requires 6 words of local(AUTO) storage.
PL6.E3A0      #003=ZIM$EROL File=ZIM$CKROL.:ZIC0TSI                              FRI 09/05/97 12:36 Page:35
          *** CROSS REFERENCE LISTING ***
**     DENOTES     IDENTIFIER DEFINITION
<<                 IDENTIFIER'S VALUE SET
>>                 IDENTIFIER'S VALUE USED
<>                 IDENTIFIER SET AND/OR USED
--                 IDENTIFIER REFERENCED
PL6.E3A0      #003=ZIM$EROL File=ZIM$CKROL.:ZIC0TSI                              FRI 09/05/97 12:36 Page:36
          MINI XREF LISTING

ALT
      2280**LABEL    2262--CALLALT
B$JIT.CPFLAGS1.SLEAZE
      2078**DCL      2078--REDEF
B$JIT.ERR.MID
      1985**DCL      1985--REDEF
B$JIT.JRESPEAK
      2146**DCL      2147--REDEF
B$JIT.ORIGINATOR_PORT.FROM_CR
      2255**DCL      2255--REDEF    2256--REDEF
B$JIT.PNR
      2159**DCL      2159--REDEF
B$JIT.SYSID
      1984**DCL      2263>>IF
B$JIT.TSLINE
      2253**DCL      2254--REDEF
B$JIT.USER
      1984**DCL      2263>>IF
B$JIT$
        11**DCL      1979--IMP-PTR  2263>>IF       2263>>IF
DBSTATUS.STATUS
        13**DCL      2270<<CALLBLT  2275<<CALLBLT  2283<<CALLBLT
ER_PROL
      2280**LABEL    2268--CALLALT
FPT$KEYIN
       108**DCL      2289<>CALL
GLOBAL.ACTIVE.DBCB$
      1149**DCL      1150--REDEF
GLOBAL.ACTIVE.SSS$
      1145**DCL      1146--REDEF
GLOBAL.KEY
      1353**DCL      1356--REDEF
PL6.E3A0      #003=ZIM$EROL File=ZIM$CKROL.:ZIC0TSI                              FRI 09/05/97 12:36 Page:37
GLOBAL.KEYIN$
      1431**DCL      2289>>CALL
GLOBAL.PARAN.TRACE.MODE
      1228**DCL      1235--REDEF
GLOBAL.PENDING.RECVRY
      1181**DCL      2264<<ASSIGN   2267>>IF       2269>>IF       2282>>IF
GLOBAL.PENDING.RELEASE
      1177**DCL      2265<<ASSIGN
GLOBAL.PRINTBUF.BUFFER
      1387**DCL      1388--REDEF    1389--REDEF    1390--REDEF    2288<<ASSIGN
GLOBAL.PRINTBUF.ERR.V
      1392**DCL      1395--REDEF    1396--REDEF    1397--REDEF
GLOBAL.RET.ERROR#
      1163**DCL      2270>>CALLBLT  2274<<ASSIGN   2275>>CALLBLT  2283>>CALLBLT
GLOBAL.RET.STCD#
      1170**DCL      2270>>CALLBLT  2275>>CALLBLT  2283>>CALLBLT
GLOBAL.RET.SYSERR#
      1164**DCL      2277>>ASSIGN   2285>>ASSIGN
GLOBAL.UPDATE.TJRNL
      1342**DCL      2267>>IF
GLOBAL$
      1447**DCL      1143--IMP-PTR  2264>>ASSIGN   2265>>ASSIGN   2267>>IF       2267>>IF       2269>>IF
      2270>>CALLBLT  2270>>CALLBLT  2274>>ASSIGN   2275>>CALLBLT  2275>>CALLBLT  2277>>ASSIGN   2282>>IF
      2283>>CALLBLT  2283>>CALLBLT  2285>>ASSIGN   2288>>ASSIGN   2289>>CALL
IA.SNAME
      1946**DCL      1947--REDEF
IA.SSDT
      1958**DCL      1959--REDEF
IA.SSNAME
      1949**DCL      1950--REDEF
IA.SYSERR
      1932**DCL      2277<<ASSIGN   2285<<ASSIGN
IA$
      1960**DCL      1925--IMP-PTR  2277>>ASSIGN   2285>>ASSIGN
M$ERR
        37**DCL-ENT  2291--CALL
PL6.E3A0      #003=ZIM$EROL File=ZIM$CKROL.:ZIC0TSI                              FRI 09/05/97 12:36 Page:38
M$KEYIN
        30**DCL-ENT  2289--CALL
PS0$
        10**DCL        12--IMP-PTR  2270>>CALLBLT  2275>>CALLBLT  2283>>CALLBLT
ROLLMSG
        15**DCL      2288>>ASSIGN
ZIM$PROL
         8**DCL-ENT  2268--CALL
ZIO$FLUSH
         9**DCL-ENT  2262--CALL

