
PL6.E3A0      #001=ZIO$DBCLOSE File=ZIM$CLOSE.:ZIC0TSI                           FRI 09/05/97 12:37 Page:1
        1        1        /*M* ZIO$DBCLOSE - closes the area pointed to by DBCB.IOWS.ACOPN.ACPTR
        2        2        */
        3        3        /*T***********************************************************/
        4        4        /*T*                                                         */
        5        5        /*T* Copyright (c) Bull HN Information Systems Inc., 1997    */
        6        6        /*T*                                                         */
        7        7        /*T***********************************************************/
        8        8        %INCLUDE ZI$GLOBAL;
        9      494        ZIO$DBCLOSE: PROC ALTRET
       10      495         /* USE($PR5 FOR GLOBAL$) */
       11      496               AVOID($PR5,$PR6,$PR7);
       12      497    1   DCL ERROR SBIN;
       13      498        %INCLUDE CP_6;
       14      579         %FPT_CLOSE(FPTN=FPT$CLOSE,STCLASS=BASED);
       15      621         %FPT_RELDCB(FPTN=FPT$RELDCB,STCLASS=BASED);
       16      635         %F$DCB(BASED="BASED(F$DCB$)");
       17      692         %B$TCB;
       18      695         %B$ALT;
       19      703        %INCLUDE CP_6_SUBS;
       20     1243        %GLOBALS;
       21     1551        %INCLUDE ZI$DBCB;
       22     2193        %AWS;
       23     2233        %INCLUDE ZI$PG_STRUCTS;
       24     2336         %ATBLK_PG(PSTCLASS=AUTO);
       25     2392        %INCLUDE ZI_ERRORS_C;
       26     2718    1   DCL ZIM$JCLOSE ENTRY;
       27     2719    1   DCL ZIO$FLUSH ENTRY(1) ALTRET;
       28     2720    1   DCL ZIM$DEQ_DCB ENTRY(1) ALTRET;
       29     2721    1   DCL ZIO$DBREAD ENTRY ALTRET;
       30     2722    1   DCL ZIO$MODIFY ENTRY ALTRET;
       31     2723    1   DCL B$TCB$ PTR SYMREF;
       32     2724    1   DCL F$DCB$ PTR;
       33     2725        %EJECT;
PL6.E3A0      #001=ZIO$DBCLOSE File=ZIM$CLOSE.:ZIC0TSI                           FRI 09/05/97 12:37 Page:2
       34     2726    1       ERROR = 0;
       35     2727    1       AWS$=GLOBAL.PARAN.IO.AWS$;
       36     2728    1       IF GLOBAL.PENDING.RECVRY AND AWS.ATRIB.UNPROTECT='0'B THEN
       37     2729    2       DO; /* IF RECOV A UNPROTECT USER, DONT RESET LOCK BIT */
       38     2730    2           GLOBAL.PARAN.IO.PGNO=0;
       39     2731    2           CALL ZIO$DBREAD ALTRET(FLUSH);
       40     2732    2           ATBLK$=PINCRW(GLOBAL.PARAN.IO.BUF$,-3);
       41     2733    2           ATBLK_PG.STATUS.LOCKED=%NO#;
       42     2734    2           ATBLK_PG.STATUS.KFILE_CURR=%NO#;
       43     2735    2           ATBLK_PG.REASON_LOCKED.ROLLBACK_FAIL=%NO#;
       44     2736    2           CALL ZIO$MODIFY ALTRET(ALT);
       45     2737    2           END;
       46     2738    1   FLUSH: CALL ZIO$FLUSH(%YES#) ALTRET(CLOSED);
       47     2739    1   CLOSED: F$DCB$=DCBADDR(AWS.DDCB);
       48     2740    1       IF F$DCB.FUN#~=%IN# THEN
       49     2741    1           IF AWS.ATRIB.TJRNL THEN
       50     2742    1               GLOBAL.UPDATE.TJRNL=GLOBAL.UPDATE.TJRNL-1;
       51     2743    1           ELSE
       52     2744    1               GLOBAL.UPDATE.NOTJRNL=GLOBAL.UPDATE.NOTJRNL-1;
       53     2745    1       IF AWS.ATRIB.CAC THEN
       54     2746    1           GLOBAL.CAC=GLOBAL.CAC-1;
       55     2747    1       IF AWS.ATRIB.SHANY THEN
       56     2748    1           GLOBAL.SHANY=GLOBAL.SHANY-1;
       57     2749    1       IF ~AWS.ATRIB.CANSSS THEN
       58     2750    1           CALL ZIM$JCLOSE;
       59     2751    1       IF AWS.ATRIB.CAC THEN
       60     2752    1           CALL ZIM$DEQ_DCB(AWS.DDCB) ALTRET(ALT);
       61     2753    1       GLOBAL.CLOSE$->FPT$CLOSE.V.DCB#=AWS.DDCB;
       62     2754    1       CALL M$CLOSE(GLOBAL.CLOSE$->FPT$CLOSE) ALTRET(ER_CLOSE);
       63     2755    1       GLOBAL.RELDCB$->FPT$RELDCB.V.DCB#=AWS.DDCB;
       64     2756    1       CALL M$RELDCB(GLOBAL.RELDCB$->FPT$RELDCB);
       65     2757    1       AWS.DDCB=0;
       66     2758    1   CLOSEK: IF AWS.ATRIB.KEYED=%YES# AND
       67     2759    1          AWS.KDCB~=0 THEN
       68     2760    2       DO;
       69     2761    2           GLOBAL.CLOSE$->FPT$CLOSE.V.DCB#=AWS.KDCB;
       70     2762    2           GLOBAL.CLOSE$->FPT$CLOSE.V.OPER.RELG#=%YES#;
PL6.E3A0      #001=ZIO$DBCLOSE File=ZIM$CLOSE.:ZIC0TSI                           FRI 09/05/97 12:37 Page:3
       71     2763    2           GLOBAL.CLOSE$->FPT$CLOSE.V.OPER.REBLD#='0'B; /* DONT REBK */
       72     2764    2           CALL M$CLOSE(GLOBAL.CLOSE$->FPT$CLOSE) ALTRET(ER_CLOSEK);
       73     2765    2           GLOBAL.CLOSE$->FPT$CLOSE.V.OPER.RELG#=%NO#;
       74     2766    2           GLOBAL.RELDCB$->FPT$RELDCB.V.DCB#=AWS.KDCB;
       75     2767    2           CALL M$RELDCB(GLOBAL.RELDCB$->FPT$RELDCB);
       76     2768    2           AWS.KDCB=0;
       77     2769    2           END;
       78     2770    1       IF ERROR=0 THEN
       79     2771    1           RETURN;
       80     2772    1       GOTO ALT;
       81     2773        %EJECT;
PL6.E3A0      #001=ZIO$DBCLOSE File=ZIM$CLOSE.:ZIC0TSI                           FRI 09/05/97 12:37 Page:4
       82     2774    1   ER_CLOSEK: ERROR=ERR#IO#CLSK;
       83     2775    1       GLOBAL.RET.SYSERR#=B$TCB$->B$TCB.ALT$->B$ALT.ERR;
       84     2776    1       GLOBAL.RET.DCB#=GLOBAL.CLOSE$->FPT$CLOSE.V.DCB#;
       85     2777    1       GLOBAL.CLOSE$->FPT$CLOSE.V.OPER.RELG#=%NO#;
       86     2778    1       GOTO ALT;
       87     2779    1   ALT: ;
       88     2780            %DBALT;
       89     2794    1   ER_CLOSE: ERROR=ERR#IO#CLSD;
       90     2795    1       GLOBAL.RET.SYSERR#=B$TCB$->B$TCB.ALT$->B$ALT.ERR;
       91     2796    1       GLOBAL.RET.DCB#=GLOBAL.CLOSE$->FPT$CLOSE.V.DCB#;
       92     2797    1       GOTO CLOSEK;
       93     2798    1   END ZIO$DBCLOSE;

PL6.E3A0      #001=ZIO$DBCLOSE File=ZIM$CLOSE.:ZIC0TSI                           FRI 09/05/97 12:37 Page:5
--  Include file information  --

   ZI_ERRORS_C.:ZIC0TOU  is referenced.
   ZI$PG_STRUCTS.:ZIC0TOU  is referenced.
   ZI$DBCB.:ZIC0TOU  is referenced.
   CP_6_SUBS.:LIB_E05  is referenced.
   CP_6.:LIB_E05  cannot be made into a system file and is referenced.
   ZI$GLOBAL.:ZIC0TOU  is referenced.
   B$JIT_C.:E05TOU  was found in the system file and is never referenced.
   CP_6_C.:E05TOU  was found in the system file and is referenced.
      No diagnostics issued in procedure ZIO$DBCLOSE.

   Procedure ZIO$DBCLOSE requires 190 words for executable code.
   Procedure ZIO$DBCLOSE requires 10 words of local(AUTO) storage.

    No errors detected in file ZIM$CLOSE.:ZIC0TSI    .

PL6.E3A0      #001=ZIO$DBCLOSE File=ZIM$CLOSE.:ZIC0TSI                           FRI 09/05/97 12:37 Page:6

 Object Unit name= ZIO$DBCLOSE                                File name= ZIM$CLOSE.:ZIC0TOU
 UTS= SEP 05 '97 12:37:47.28 FRI                              Compiler= PL-6/E31         Sev=      00
 SharedLib= :SHARED_SYSTEM                                    Alt SharedLib=


    ****  Control sections  ****

 Sect   Type Bound  Init  Size OctSiz  Section name(segment info)
    0   DCB   even  none     0      0  M$UC
    1   Proc  even  none   190    276  ZIO$DBCLOSE
    2  RoData even  none     9     11  ZIO$DBCLOSE

    ****  Entry defs  ****

                              Check   Calling
                             calling  sequence
  Sect OctLoc Primary Altret sequence   type   Parms  Name
     1      0   yes    yes     yes      XStd       0  ZIO$DBCLOSE

  ****  Entry refs  ****

         Check        Calling
        calling       sequence
Altret sequence SRef   type   Args  Name
 yes     yes           XStd      0 ZIO$DBREAD
 yes     yes           XStd      1 ZIM$DEQ_DCB
 yes     yes           XStd      0 ZIO$MODIFY
         yes           XStd      0 ZIM$JCLOSE
 yes     yes           XStd      1 ZIO$FLUSH
         yes           XStd      0 ZIB$ERR
                       nStd      0 X66_AUTO_0
                       nStd      0 X66_ARET
                       nStd      0 X66_AALT
PL6.E3A0      #001=ZIO$DBCLOSE File=ZIM$CLOSE.:ZIC0TSI                           FRI 09/05/97 12:37 Page:7

  ****  Data refs  ****

  Flags:  r = read only, s = secondary
Flgs Name                             Flgs Name                             Flgs Name
     M$UC                             r    GLOBAL$                               B$TCB$

  ****  Segment refs  ****

  Flags:  r = read only, s = secondary
Flgs Name                             Flgs Name                             Flgs Name
     ROSID                                 ISSID
PL6.E3A0      #001=ZIO$DBCLOSE File=ZIM$CLOSE.:ZIC0TSI                           FRI 09/05/97 12:37 Page:8


        1        1        /*M* ZIO$DBCLOSE - closes the area pointed to by DBCB.IOWS.ACOPN.ACPTR
        2        2        */
        3        3        /*T***********************************************************/
        4        4        /*T*                                                         */
        5        5        /*T* Copyright (c) Bull HN Information Systems Inc., 1997    */
        6        6        /*T*                                                         */
        7        7        /*T***********************************************************/
        8        8        %INCLUDE ZI$GLOBAL;
        9      494        ZIO$DBCLOSE: PROC ALTRET

    494  1 000000   000000 700200 xent  ZIO$DBCLOSE  TSX0  ! X66_AUTO_0
         1 000001   000012 000000                    ZERO    10,0

       10      495         /* USE($PR5 FOR GLOBAL$) */
       11      496               AVOID($PR5,$PR6,$PR7);
       12      497    1   DCL ERROR SBIN;
       13      498        %INCLUDE CP_6;
       14      579         %FPT_CLOSE(FPTN=FPT$CLOSE,STCLASS=BASED);
       15      621         %FPT_RELDCB(FPTN=FPT$RELDCB,STCLASS=BASED);
       16      635         %F$DCB(BASED="BASED(F$DCB$)");
       17      692         %B$TCB;
       18      695         %B$ALT;
       19      703        %INCLUDE CP_6_SUBS;
       20     1243        %GLOBALS;
       21     1551        %INCLUDE ZI$DBCB;
       22     2193        %AWS;
       23     2233        %INCLUDE ZI$PG_STRUCTS;
       24     2336         %ATBLK_PG(PSTCLASS=AUTO);
       25     2392        %INCLUDE ZI_ERRORS_C;
       26     2718    1   DCL ZIM$JCLOSE ENTRY;
       27     2719    1   DCL ZIO$FLUSH ENTRY(1) ALTRET;
       28     2720    1   DCL ZIM$DEQ_DCB ENTRY(1) ALTRET;
       29     2721    1   DCL ZIO$DBREAD ENTRY ALTRET;
       30     2722    1   DCL ZIO$MODIFY ENTRY ALTRET;
       31     2723    1   DCL B$TCB$ PTR SYMREF;
       32     2724    1   DCL F$DCB$ PTR;
PL6.E3A0      #001=ZIO$DBCLOSE File=ZIM$CLOSE.:ZIC0TSI                           FRI 09/05/97 12:37 Page:9
       33     2725        %EJECT;
PL6.E3A0      #001=ZIO$DBCLOSE File=ZIM$CLOSE.:ZIC0TSI                           FRI 09/05/97 12:37 Page:10
       34     2726    1       ERROR = 0;

   2726  1 000002   200003 450100                    STZ     ERROR,,AUTO

       35     2727    1       AWS$=GLOBAL.PARAN.IO.AWS$;

   2727  1 000003   000000 470400 xsym               LDP0    GLOBAL$
         1 000004   000020 236100                    LDQ     16,,PR0
         1 000005   200004 756100                    STQ     AWS$,,AUTO

       36     2728    1       IF GLOBAL.PENDING.RECVRY AND AWS.ATRIB.UNPROTECT='0'B THEN

   2728  1 000006   000017 236100                    LDQ     15,,PR0
         1 000007   010000 316003                    CANQ    4096,DU
         1 000010   000036 600000 1                  TZE     FLUSH
         1 000011   200004 471500                    LDP1    AWS$,,AUTO
         1 000012   100000 236100                    LDQ     0,,PR1
         1 000013   400000 316007                    CANQ    -131072,DL
         1 000014   000036 601000 1                  TNZ     FLUSH

       37     2729    2       DO; /* IF RECOV A UNPROTECT USER, DONT RESET LOCK BIT */

       38     2730    2           GLOBAL.PARAN.IO.PGNO=0;

   2730  1 000015   000021 450100                    STZ     17,,PR0

       39     2731    2           CALL ZIO$DBREAD ALTRET(FLUSH);

   2731  1 000016   000000 631400 2                  EPPR1   0
         1 000017   000000 701000 xent               TSX1    ZIO$DBREAD
         1 000020   000036 702000 1                  TSX2    FLUSH

       40     2732    2           ATBLK$=PINCRW(GLOBAL.PARAN.IO.BUF$,-3);

   2732  1 000021   000000 470400 xsym               LDP0    GLOBAL$
         1 000022   000022 236100                    LDQ     18,,PR0
         1 000023   777775 036003                    ADLQ    -3,DU
PL6.E3A0      #001=ZIO$DBCLOSE File=ZIM$CLOSE.:ZIC0TSI                           FRI 09/05/97 12:37 Page:11
         1 000024   200005 756100                    STQ     ATBLK$,,AUTO

       41     2733    2           ATBLK_PG.STATUS.LOCKED=%NO#;

   2733  1 000025   200005 471500                    LDP1    ATBLK$,,AUTO
         1 000026   000001 236000 2                  LDQ     1
         1 000027   100041 356100                    ANSQ    33,,PR1

       42     2734    2           ATBLK_PG.STATUS.KFILE_CURR=%NO#;

   2734  1 000030   000002 236000 2                  LDQ     2
         1 000031   100041 356100                    ANSQ    33,,PR1

       43     2735    2           ATBLK_PG.REASON_LOCKED.ROLLBACK_FAIL=%NO#;

   2735  1 000032   100043 356100                    ANSQ    35,,PR1

       44     2736    2           CALL ZIO$MODIFY ALTRET(ALT);

   2736  1 000033   000000 631400 2                  EPPR1   0
         1 000034   000000 701000 xent               TSX1    ZIO$MODIFY
         1 000035   000243 702000 1                  TSX2    ALT

       45     2737    2           END;

       46     2738    1   FLUSH: CALL ZIO$FLUSH(%YES#) ALTRET(CLOSED);

   2738  1 000036   000005 630400 2     FLUSH        EPPR0   5
         1 000037   000003 631400 2                  EPPR1   3
         1 000040   000000 701000 xent               TSX1    ZIO$FLUSH
         1 000041   000042 702000 1                  TSX2    CLOSED

       47     2739    1   CLOSED: F$DCB$=DCBADDR(AWS.DDCB);

   2739  1 000042   000006 470400 2     CLOSED       LDP0    6
         1 000043   000000 471500                    LDP1    0,,PR0
         1 000044   200004 473500                    LDP3    AWS$,,AUTO
PL6.E3A0      #001=ZIO$DBCLOSE File=ZIM$CLOSE.:ZIC0TSI                           FRI 09/05/97 12:37 Page:12
         1 000045   300006 220100                    LDX0    6,,PR3
         1 000046   100000 236110                    LDQ     0,X0,PR1
         1 000047   200006 756100                    STQ     F$DCB$,,AUTO

       48     2740    1       IF F$DCB.FUN#~=%IN# THEN

   2740  1 000050   200006 474500                    LDP4    F$DCB$,,AUTO
         1 000051   400032 236100                    LDQ     26,,PR4
         1 000052   000777 376003                    ANQ     511,DU
         1 000053   000002 116003                    CMPQ    2,DU
         1 000054   000071 600000 1                  TZE     s:2745

       49     2741    1           IF AWS.ATRIB.TJRNL THEN

   2741  1 000055   300000 236100                    LDQ     0,,PR3
         1 000056   020000 316003                    CANQ    8192,DU
         1 000057   000065 600000 1                  TZE     s:2744

       50     2742    1               GLOBAL.UPDATE.TJRNL=GLOBAL.UPDATE.TJRNL-1;

   2742  1 000060   000000 470400 xsym               LDP0    GLOBAL$
         1 000061   002613 221100                    LDX1    1419,,PR0
         1 000062   777777 622011                    EAX2    -1,X1
         1 000063   002613 742100                    STX2    1419,,PR0
         1 000064   000071 710000 1                  TRA     s:2745

       51     2743    1           ELSE
       52     2744    1               GLOBAL.UPDATE.NOTJRNL=GLOBAL.UPDATE.NOTJRNL-1;

   2744  1 000065   000000 470400 xsym               LDP0    GLOBAL$
         1 000066   002613 721100                    LXL1    1419,,PR0
         1 000067   777777 622011                    EAX2    -1,X1
         1 000070   002613 442100                    SXL2    1419,,PR0

       53     2745    1       IF AWS.ATRIB.CAC THEN

   2745  1 000071   300000 236100                    LDQ     0,,PR3
PL6.E3A0      #001=ZIO$DBCLOSE File=ZIM$CLOSE.:ZIC0TSI                           FRI 09/05/97 12:37 Page:13
         1 000072   000001 316003                    CANQ    1,DU
         1 000073   000100 600000 1                  TZE     s:2747

       54     2746    1           GLOBAL.CAC=GLOBAL.CAC-1;

   2746  1 000074   000000 470400 xsym               LDP0    GLOBAL$
         1 000075   002614 235100                    LDA     1420,,PR0
         1 000076   000001 135007                    SBLA    1,DL
         1 000077   002614 755100                    STA     1420,,PR0

       55     2747    1       IF AWS.ATRIB.SHANY THEN

   2747  1 000100   300000 430100                    FSZN    0,,PR3
         1 000101   000106 605000 1                  TPL     s:2749

       56     2748    1           GLOBAL.SHANY=GLOBAL.SHANY-1;

   2748  1 000102   000000 470400 xsym               LDP0    GLOBAL$
         1 000103   002615 235100                    LDA     1421,,PR0
         1 000104   000001 135007                    SBLA    1,DL
         1 000105   002615 755100                    STA     1421,,PR0

       57     2749    1       IF ~AWS.ATRIB.CANSSS THEN

   2749  1 000106   300000 236100                    LDQ     0,,PR3
         1 000107   000012 736000                    QLS     10
         1 000110   400000 376003                    ANQ     -131072,DU
         1 000111   400000 676003                    ERQ     -131072,DU
         1 000112   000116 600000 1                  TZE     s:2751

       58     2750    1           CALL ZIM$JCLOSE;

   2750  1 000113   000000 631400 2                  EPPR1   0
         1 000114   000000 701000 xent               TSX1    ZIM$JCLOSE
         1 000115   000000 011000                    NOP     0

       59     2751    1       IF AWS.ATRIB.CAC THEN
PL6.E3A0      #001=ZIO$DBCLOSE File=ZIM$CLOSE.:ZIC0TSI                           FRI 09/05/97 12:37 Page:14

   2751  1 000116   200004 470500                    LDP0    AWS$,,AUTO
         1 000117   000000 236100                    LDQ     0,,PR0
         1 000120   000001 316003                    CANQ    1,DU
         1 000121   000131 600000 1                  TZE     s:2753

       60     2752    1           CALL ZIM$DEQ_DCB(AWS.DDCB) ALTRET(ALT);

   2752  1 000122   200004 236100                    LDQ     AWS$,,AUTO
         1 000123   000006 036003                    ADLQ    6,DU
         1 000124   200010 756100                    STQ     F$DCB$+2,,AUTO
         1 000125   200010 630500                    EPPR0   F$DCB$+2,,AUTO
         1 000126   000003 631400 2                  EPPR1   3
         1 000127   000000 701000 xent               TSX1    ZIM$DEQ_DCB
         1 000130   000243 702000 1                  TSX2    ALT

       61     2753    1       GLOBAL.CLOSE$->FPT$CLOSE.V.DCB#=AWS.DDCB;

   2753  1 000131   000000 470400 xsym               LDP0    GLOBAL$
         1 000132   005072 471500                    LDP1    2618,,PR0
         1 000133   200004 473500                    LDP3    AWS$,,AUTO
         1 000134   300006 220100                    LDX0    6,,PR3
         1 000135   100032 740100                    STX0    26,,PR1

       62     2754    1       CALL M$CLOSE(GLOBAL.CLOSE$->FPT$CLOSE) ALTRET(ER_CLOSE);

   2754  1 000136   005072 471500                    LDP1    2618,,PR0
         1 000137   100000 630500                    EPPR0   0,,PR1
         1 000140   450001 713400                    CLIMB   alt,close
         1 000141   406000 401760                    pmme    nvectors=13
         1 000142   000263 702000 1                  TSX2    ER_CLOSE

       63     2755    1       GLOBAL.RELDCB$->FPT$RELDCB.V.DCB#=AWS.DDCB;

   2755  1 000143   000000 470400 xsym               LDP0    GLOBAL$
         1 000144   005105 471500                    LDP1    2629,,PR0
         1 000145   200004 473500                    LDP3    AWS$,,AUTO
PL6.E3A0      #001=ZIO$DBCLOSE File=ZIM$CLOSE.:ZIC0TSI                           FRI 09/05/97 12:37 Page:15
         1 000146   300006 220100                    LDX0    6,,PR3
         1 000147   100002 740100                    STX0    2,,PR1

       64     2756    1       CALL M$RELDCB(GLOBAL.RELDCB$->FPT$RELDCB);

   2756  1 000150   005105 471500                    LDP1    2629,,PR0
         1 000151   100000 630500                    EPPR0   0,,PR1
         1 000152   060003 713400                    CLIMB   24579
         1 000153   400000 401760                    pmme    nvectors=1

       65     2757    1       AWS.DDCB=0;

   2757  1 000154   000000 220003                    LDX0    0,DU
         1 000155   200004 470500                    LDP0    AWS$,,AUTO
         1 000156   000006 740100                    STX0    6,,PR0

       66     2758    1   CLOSEK: IF AWS.ATRIB.KEYED=%YES# AND

   2758  1 000157   200004 470500       CLOSEK       LDP0    AWS$,,AUTO
         1 000160   000000 236100                    LDQ     0,,PR0
         1 000161   000004 316003                    CANQ    4,DU
         1 000162   000222 600000 1                  TZE     s:2770
         1 000163   000006 720100                    LXL0    6,,PR0
         1 000164   000222 600000 1                  TZE     s:2770

       67     2759    1          AWS.KDCB~=0 THEN
       68     2760    2       DO;

       69     2761    2           GLOBAL.CLOSE$->FPT$CLOSE.V.DCB#=AWS.KDCB;

   2761  1 000165   000000 471400 xsym               LDP1    GLOBAL$
         1 000166   105072 473500                    LDP3    2618,,PR1
         1 000167   300032 740100                    STX0    26,,PR3

       70     2762    2           GLOBAL.CLOSE$->FPT$CLOSE.V.OPER.RELG#=%YES#;

   2762  1 000170   105072 473500                    LDP3    2618,,PR1
PL6.E3A0      #001=ZIO$DBCLOSE File=ZIM$CLOSE.:ZIC0TSI                           FRI 09/05/97 12:37 Page:16
         1 000171   200000 236007                    LDQ     65536,DL
         1 000172   300032 256100                    ORSQ    26,,PR3

       71     2763    2           GLOBAL.CLOSE$->FPT$CLOSE.V.OPER.REBLD#='0'B; /* DONT REBK */

   2763  1 000173   105072 473500                    LDP3    2618,,PR1
         1 000174   000007 236000 2                  LDQ     7
         1 000175   300032 356100                    ANSQ    26,,PR3

       72     2764    2           CALL M$CLOSE(GLOBAL.CLOSE$->FPT$CLOSE) ALTRET(ER_CLOSEK);

   2764  1 000176   105072 473500                    LDP3    2618,,PR1
         1 000177   300000 630500                    EPPR0   0,,PR3
         1 000200   450001 713400                    CLIMB   alt,close
         1 000201   406000 401760                    pmme    nvectors=13
         1 000202   000226 702000 1                  TSX2    ER_CLOSEK

       73     2765    2           GLOBAL.CLOSE$->FPT$CLOSE.V.OPER.RELG#=%NO#;

   2765  1 000203   000000 470400 xsym               LDP0    GLOBAL$
         1 000204   005072 471500                    LDP1    2618,,PR0
         1 000205   000010 236000 2                  LDQ     8
         1 000206   100032 356100                    ANSQ    26,,PR1

       74     2766    2           GLOBAL.RELDCB$->FPT$RELDCB.V.DCB#=AWS.KDCB;

   2766  1 000207   005105 471500                    LDP1    2629,,PR0
         1 000210   200004 473500                    LDP3    AWS$,,AUTO
         1 000211   300006 720100                    LXL0    6,,PR3
         1 000212   100002 740100                    STX0    2,,PR1

       75     2767    2           CALL M$RELDCB(GLOBAL.RELDCB$->FPT$RELDCB);

   2767  1 000213   005105 471500                    LDP1    2629,,PR0
         1 000214   100000 630500                    EPPR0   0,,PR1
         1 000215   060003 713400                    CLIMB   24579
         1 000216   400000 401760                    pmme    nvectors=1
PL6.E3A0      #001=ZIO$DBCLOSE File=ZIM$CLOSE.:ZIC0TSI                           FRI 09/05/97 12:37 Page:17

       76     2768    2           AWS.KDCB=0;

   2768  1 000217   000000 220003                    LDX0    0,DU
         1 000220   200004 470500                    LDP0    AWS$,,AUTO
         1 000221   000006 440100                    SXL0    6,,PR0

       77     2769    2           END;

       78     2770    1       IF ERROR=0 THEN

   2770  1 000222   200003 235100                    LDA     ERROR,,AUTO
         1 000223   000225 601000 1                  TNZ     s:2772

       79     2771    1           RETURN;

   2771  1 000224   000000 702200 xent               TSX2  ! X66_ARET

       80     2772    1       GOTO ALT;

   2772  1 000225   000243 710000 1                  TRA     ALT

       81     2773        %EJECT;
PL6.E3A0      #001=ZIO$DBCLOSE File=ZIM$CLOSE.:ZIC0TSI                           FRI 09/05/97 12:37 Page:18
       82     2774    1   ER_CLOSEK: ERROR=ERR#IO#CLSK;

   2774  1 000226   303355 235007       ER_CLOSEK    LDA     100077,DL
         1 000227   200003 755100                    STA     ERROR,,AUTO

       83     2775    1       GLOBAL.RET.SYSERR#=B$TCB$->B$TCB.ALT$->B$ALT.ERR;

   2775  1 000230   000000 470400 xsym               LDP0    B$TCB$
         1 000231   000000 471500                    LDP1    0,,PR0
         1 000232   100102 236100                    LDQ     66,,PR1
         1 000233   000000 473400 xsym               LDP3    GLOBAL$
         1 000234   300007 756100                    STQ     7,,PR3

       84     2776    1       GLOBAL.RET.DCB#=GLOBAL.CLOSE$->FPT$CLOSE.V.DCB#;

   2776  1 000235   305072 471500                    LDP1    2618,,PR3
         1 000236   100032 220100                    LDX0    26,,PR1
         1 000237   300014 740100                    STX0    12,,PR3

       85     2777    1       GLOBAL.CLOSE$->FPT$CLOSE.V.OPER.RELG#=%NO#;

   2777  1 000240   000010 236000 2                  LDQ     8
         1 000241   100032 356100                    ANSQ    26,,PR1

       86     2778    1       GOTO ALT;

   2778  1 000242   000243 710000 1                  TRA     ALT

   2777  1 000243                       ALT          null
       87     2779    1   ALT: ;
       88     2780            %DBALT;

   2781  1 000243   000000 470400 xsym               LDP0    GLOBAL$
         1 000244   000006 235100                    LDA     6,,PR0
         1 000245   000254 601000 1                  TNZ     s:2789

   2783  1 000246   000010 450100                    STZ     8,,PR0
PL6.E3A0      #001=ZIO$DBCLOSE File=ZIM$CLOSE.:ZIC0TSI                           FRI 09/05/97 12:37 Page:19

   2784  1 000247   000012 450100                    STZ     10,,PR0

   2785  1 000250   000013 450100                    STZ     11,,PR0

   2786  1 000251   000011 450100                    STZ     9,,PR0

   2787  1 000252   200003 236100                    LDQ     ERROR,,AUTO
         1 000253   000006 756100                    STQ     6,,PR0

   2789  1 000254   000006 235100                    LDA     6,,PR0
         1 000255   303240 115007                    CMPA    100000,DL
         1 000256   000260 603000 1                  TRC     s:2792

   2790  1 000257   000000 702200 xent               TSX2  ! X66_AALT

   2792  1 000260   000000 631400 2                  EPPR1   0
         1 000261   000000 701000 xent               TSX1    ZIB$ERR
         1 000262   000000 011000                    NOP     0

       89     2794    1   ER_CLOSE: ERROR=ERR#IO#CLSD;

   2794  1 000263   303354 235007       ER_CLOSE     LDA     100076,DL
         1 000264   200003 755100                    STA     ERROR,,AUTO

       90     2795    1       GLOBAL.RET.SYSERR#=B$TCB$->B$TCB.ALT$->B$ALT.ERR;

   2795  1 000265   000000 470400 xsym               LDP0    B$TCB$
         1 000266   000000 471500                    LDP1    0,,PR0
         1 000267   100102 236100                    LDQ     66,,PR1
         1 000270   000000 473400 xsym               LDP3    GLOBAL$
         1 000271   300007 756100                    STQ     7,,PR3

       91     2796    1       GLOBAL.RET.DCB#=GLOBAL.CLOSE$->FPT$CLOSE.V.DCB#;

   2796  1 000272   305072 471500                    LDP1    2618,,PR3
         1 000273   100032 220100                    LDX0    26,,PR1
PL6.E3A0      #001=ZIO$DBCLOSE File=ZIM$CLOSE.:ZIC0TSI                           FRI 09/05/97 12:37 Page:20
         1 000274   300014 740100                    STX0    12,,PR3

       92     2797    1       GOTO CLOSEK;

   2797  1 000275   000157 710000 1                  TRA     CLOSEK

(unnamed)
 Sect OctLoc
   2     000   000000 000000   377777 777777   677777 777777   000001 000000    ................
   2     004   400000 000000   000004 006000   000000 006003   777777 677777    ................
   2     010   777777 577777                                                    ....
       93     2798    1   END ZIO$DBCLOSE;

PL6.E3A0      #001=ZIO$DBCLOSE File=ZIM$CLOSE.:ZIC0TSI                           FRI 09/05/97 12:37 Page:21
--  Include file information  --

   ZI_ERRORS_C.:ZIC0TOU  is referenced.
   ZI$PG_STRUCTS.:ZIC0TOU  is referenced.
   ZI$DBCB.:ZIC0TOU  is referenced.
   CP_6_SUBS.:LIB_E05  is referenced.
   CP_6.:LIB_E05  cannot be made into a system file and is referenced.
   ZI$GLOBAL.:ZIC0TOU  is referenced.
   B$JIT_C.:E05TOU  was found in the system file and is never referenced.
   CP_6_C.:E05TOU  was found in the system file and is referenced.
      No diagnostics issued in procedure ZIO$DBCLOSE.

   Procedure ZIO$DBCLOSE requires 190 words for executable code.
   Procedure ZIO$DBCLOSE requires 10 words of local(AUTO) storage.

    No errors detected in file ZIM$CLOSE.:ZIC0TSI    .
PL6.E3A0      #001=ZIO$DBCLOSE File=ZIM$CLOSE.:ZIC0TSI                           FRI 09/05/97 12:37 Page:22
          *** CROSS REFERENCE LISTING ***
**     DENOTES     IDENTIFIER DEFINITION
<<                 IDENTIFIER'S VALUE SET
>>                 IDENTIFIER'S VALUE USED
<>                 IDENTIFIER SET AND/OR USED
--                 IDENTIFIER REFERENCED
PL6.E3A0      #001=ZIO$DBCLOSE File=ZIM$CLOSE.:ZIC0TSI                           FRI 09/05/97 12:37 Page:23
          MINI XREF LISTING

ALT
      2777**LABEL    2736--CALLALT  2752--CALLALT  2772--GOTO     2778--GOTO
ATBLK$
      2337**DCL      2338--IMP-PTR  2732<<ASSIGN   2733>>ASSIGN   2734>>ASSIGN   2735>>ASSIGN
ATBLK_PG.AREA_NM
      2363**DCL      2364--REDEF
ATBLK_PG.REASON_LOCKED.ROLLBACK_FAIL
      2387**DCL      2735<<ASSIGN
ATBLK_PG.STATUS
      2372**DCL      2380--REDEF
ATBLK_PG.STATUS.KFILE_CURR
      2375**DCL      2734<<ASSIGN
ATBLK_PG.STATUS.LOCKED
      2373**DCL      2733<<ASSIGN
AWS.ATRIB.CAC
      2212**DCL      2745>>IF       2751>>IF
AWS.ATRIB.CANSSS
      2206**DCL      2749>>IF
AWS.ATRIB.KEYED
      2210**DCL      2758>>IF
AWS.ATRIB.SHANY
      2204**DCL      2747>>IF
AWS.ATRIB.TJRNL
      2201**DCL      2741>>IF
AWS.ATRIB.UNPROTECT
      2213**DCL      2728>>IF
AWS.DDCB
      2220**DCL      2739--ASSIGN   2752<>CALL     2753>>ASSIGN   2755>>ASSIGN   2757<<ASSIGN
AWS.KDCB
      2221**DCL      2758>>IF       2761>>ASSIGN   2766>>ASSIGN   2768<<ASSIGN
AWS$
      2194**DCL      2195--IMP-PTR  2727<<ASSIGN   2728>>IF       2739>>ASSIGN   2741>>IF       2745>>IF
PL6.E3A0      #001=ZIO$DBCLOSE File=ZIM$CLOSE.:ZIC0TSI                           FRI 09/05/97 12:37 Page:24
      2747>>IF       2749>>IF       2751>>IF       2752>>CALL     2753>>ASSIGN   2755>>ASSIGN   2757>>ASSIGN
      2758>>IF       2758>>IF       2761>>ASSIGN   2766>>ASSIGN   2768>>ASSIGN
B$ALT.CODE
       697**DCL       697--REDEF     698--REDEF     698--REDEF
B$ALT.ERR
       698**DCL      2775>>ASSIGN   2795>>ASSIGN
B$ALT.ERR.ERR#
       699**DCL       699--REDEF
B$ALT.EVID
       698**DCL       698--REDEF     698--REDEF
B$TCB.ALT$
       693**DCL      2775>>ASSIGN   2795>>ASSIGN
B$TCB$
      2723**DCL      2775>>ASSIGN   2795>>ASSIGN
CLOSED
      2739**LABEL    2738--CALLALT
CLOSEK
      2758**LABEL    2797--GOTO
ERROR
       497**DCL      2726<<ASSIGN   2770>>IF       2774<<ASSIGN   2787>>ASSIGN   2794<<ASSIGN
ER_CLOSE
      2794**LABEL    2754--CALLALT
ER_CLOSEK
      2774**LABEL    2764--CALLALT
F$DCB.ACTPOS
       668**DCL       668--REDEF
F$DCB.ARS#
       642**DCL       642--REDEF
F$DCB.ATTR
       661**DCL       662--REDEF
F$DCB.BORROW
       676**DCL       676--REDEF     676--REDEF     676--REDEF
F$DCB.DCBNAME.L
       690**DCL       690--IMP-SIZ
F$DCB.EOMCHAR#
       646**DCL       646--REDEF
PL6.E3A0      #001=ZIO$DBCLOSE File=ZIM$CLOSE.:ZIC0TSI                           FRI 09/05/97 12:37 Page:25
F$DCB.FLDID
       671**DCL       671--REDEF
F$DCB.FORM$
       665**DCL       665--REDEF
F$DCB.FSECT
       681**DCL       681--REDEF
F$DCB.FSN#
       658**DCL       658--REDEF     658--REDEF     659--REDEF
F$DCB.FUN#
       657**DCL      2740>>IF
F$DCB.HEADER$
       664**DCL       664--REDEF
F$DCB.IXTNSIZE#
       662**DCL       662--REDEF
F$DCB.LASTSTA$
       651**DCL       651--REDEF
F$DCB.LVL
       677**DCL       677--REDEF
F$DCB.NAME#.C
       652**DCL       652--REDEF
F$DCB.NOEOF
       674**DCL       674--REDEF
F$DCB.NRECS#
       663**DCL       663--REDEF
F$DCB.NRECX
       682**DCL       682--REDEF
F$DCB.OHDR
       674**DCL       674--REDEF
F$DCB.ORG#
       657**DCL       657--REDEF
F$DCB.PRECNO
       680**DCL       680--REDEF
F$DCB.RCSZ
       686**DCL       686--REDEF
F$DCB.RES#
       653**DCL       653--REDEF
PL6.E3A0      #001=ZIO$DBCLOSE File=ZIM$CLOSE.:ZIC0TSI                           FRI 09/05/97 12:37 Page:26
F$DCB.SETX
       665**DCL       665--REDEF
F$DCB.TAB$
       665**DCL       665--REDEF
F$DCB.TDA
       679**DCL       680--REDEF
F$DCB.WSN#
       653**DCL       653--REDEF
F$DCB$
      2724**DCL       636--IMP-PTR  2739<<ASSIGN   2740>>IF
FLUSH
      2738**LABEL    2731--CALLALT
FPT$CLOSE
       602**DCL      2754<>CALL     2764<>CALL
FPT$CLOSE.SN_
       602**DCL       602--REDEF
FPT$CLOSE.UTL_
       603**DCL       603--REDEF
FPT$CLOSE.V.DCB#
       608**DCL      2753<<ASSIGN   2761<<ASSIGN   2776>>ASSIGN   2796>>ASSIGN
FPT$CLOSE.V.EXPIRE#
       617**DCL       617--REDEF
FPT$CLOSE.V.OPER.REBLD#
       609**DCL      2763<<ASSIGN
FPT$CLOSE.V.OPER.RELG#
       608**DCL      2762<<ASSIGN   2765<<ASSIGN   2777<<ASSIGN
FPT$CLOSE.V.TYPE#
       615**DCL       615--REDEF
FPT$CLOSE.V.XTNSIZE#
       612**DCL       612--REDEF     614--REDEF
FPT$RELDCB
       632**DCL      2756<>CALL     2767<>CALL
FPT$RELDCB.V.DCB#
       632**DCL      2755<<ASSIGN   2766<<ASSIGN
GLOBAL.ACTIVE.DBCB$
      1250**DCL      1251--REDEF
PL6.E3A0      #001=ZIO$DBCLOSE File=ZIM$CLOSE.:ZIC0TSI                           FRI 09/05/97 12:37 Page:27
GLOBAL.ACTIVE.SSS$
      1246**DCL      1247--REDEF
GLOBAL.CAC
      1445**DCL      2746<<ASSIGN   2746>>ASSIGN
GLOBAL.CLOSE$
      1505**DCL      2753>>ASSIGN   2754>>CALL     2761>>ASSIGN   2762>>ASSIGN   2763>>ASSIGN   2764>>CALL
      2765>>ASSIGN   2776>>ASSIGN   2777>>ASSIGN   2796>>ASSIGN
GLOBAL.KEY
      1454**DCL      1457--REDEF
GLOBAL.PARAN.IO.AWS$
      1293**DCL      2727>>ASSIGN
GLOBAL.PARAN.IO.BUF$
      1295**DCL      2732>>ASSIGN
GLOBAL.PARAN.IO.PGNO
      1294**DCL      2730<<ASSIGN
GLOBAL.PARAN.TRACE.MODE
      1329**DCL      1336--REDEF
GLOBAL.PENDING.RECVRY
      1282**DCL      2728>>IF
GLOBAL.PRINTBUF.BUFFER
      1488**DCL      1489--REDEF    1490--REDEF    1491--REDEF
GLOBAL.PRINTBUF.ERR.V
      1493**DCL      1496--REDEF    1497--REDEF    1498--REDEF
GLOBAL.RELDCB$
      1516**DCL      2755>>ASSIGN   2756>>CALL     2766>>ASSIGN   2767>>CALL
GLOBAL.RET.AC#
      1266**DCL      2783<<ASSIGN
GLOBAL.RET.DCB#
      1270**DCL      2776<<ASSIGN   2796<<ASSIGN
GLOBAL.RET.ERROR#
      1264**DCL      2781>>IF       2787<<ASSIGN   2789>>IF
GLOBAL.RET.FR#
      1267**DCL      2786<<ASSIGN
GLOBAL.RET.RC#
      1269**DCL      2785<<ASSIGN
GLOBAL.RET.SC#
PL6.E3A0      #001=ZIO$DBCLOSE File=ZIM$CLOSE.:ZIC0TSI                           FRI 09/05/97 12:37 Page:28
      1268**DCL      2784<<ASSIGN
GLOBAL.RET.SYSERR#
      1265**DCL      2775<<ASSIGN   2795<<ASSIGN
GLOBAL.SHANY
      1446**DCL      2748<<ASSIGN   2748>>ASSIGN
GLOBAL.UPDATE.NOTJRNL
      1444**DCL      2744<<ASSIGN   2744>>ASSIGN
GLOBAL.UPDATE.TJRNL
      1443**DCL      2742<<ASSIGN   2742>>ASSIGN
GLOBAL$
      1548**DCL      1244--IMP-PTR  2727>>ASSIGN   2728>>IF       2730>>ASSIGN   2732>>ASSIGN   2742>>ASSIGN
      2742>>ASSIGN   2744>>ASSIGN   2744>>ASSIGN   2746>>ASSIGN   2746>>ASSIGN   2748>>ASSIGN   2748>>ASSIGN
      2753>>ASSIGN   2754>>CALL     2755>>ASSIGN   2756>>CALL     2761>>ASSIGN   2762>>ASSIGN   2763>>ASSIGN
      2764>>CALL     2765>>ASSIGN   2766>>ASSIGN   2767>>CALL     2775>>ASSIGN   2776>>ASSIGN   2776>>ASSIGN
      2777>>ASSIGN   2781>>IF       2783>>ASSIGN   2784>>ASSIGN   2785>>ASSIGN   2786>>ASSIGN   2787>>ASSIGN
      2789>>IF       2795>>ASSIGN   2796>>ASSIGN   2796>>ASSIGN
M$CLOSE
       507**DCL-ENT  2754--CALL     2764--CALL
M$RELDCB
       513**DCL-ENT  2756--CALL     2767--CALL
ZIB$ERR
      1549**DCL-ENT  2792--CALL
ZIM$DEQ_DCB
      2720**DCL-ENT  2752--CALL
ZIM$JCLOSE
      2718**DCL-ENT  2750--CALL
ZIO$DBREAD
      2721**DCL-ENT  2731--CALL
ZIO$FLUSH
      2719**DCL-ENT  2738--CALL
ZIO$MODIFY
      2722**DCL-ENT  2736--CALL
