
PL6.E3A0      #001=ZIM$EDIS File=ZIM$CONDIS.:ZIC0TSI                             FRI 09/05/97 12:38 Page:1
        1        1        /*T***********************************************************/
        2        2        /*T*                                                         */
        3        3        /*T* Copyright (c) Bull HN Information Systems Inc., 1997    */
        4        4        /*T*                                                         */
        5        5        /*T***********************************************************/
        6        6        ZIM$EDIS: PROC ALTRET
        7        7               AVOID($PR5,$PR6,$PR7);
        8        8        %INCLUDE ZI$GLOBAL;
        9      494            %GLOBALS;
       10      802            %ADSC(STCLASS="BASED(ADSC$)");
       11      814        %INCLUDE ZI$SSS;
       12     1363            %OA1;
       13     1371            %AC;
       14     1466            %SC;
       15     1493            %RC;
       16     1525            %RS;
       17     1601        %INCLUDE ZI$DBCB;
       18     2243            %DBCB;
       19     2721            %SETWS;
       20     2740            %SETWSPA;
       21     2758            %RWS;
       22     2778            %RECVAR;
       23     2812        %INCLUDE ZI$USER;
       24     2957            %RVA;
       25     2970        %INCLUDE ZI_ERRORS_C;
       26     3296        %INCLUDE ZI$DBCSV_C;
       27     3434            %IPT$DIS_V(BASED="BASED(VLP$)");
       28     3437    1   DCL ZIG$DBPCR ENTRY ALTRET;
       29     3438    1   DCL ZIO$DBBCC ENTRY ALTRET;
       30     3439    1   DCL ZIO$LOCK ENTRY ALTRET;
       31     3440    1   DCL ZIO$UNLOCK ENTRY ALTRET;
       32     3441    1   DCL ZIO$MODIFY ENTRY ALTRET;
       33     3442    1   DCL ZIM$GETRS ENTRY(3) ALTRET;
       34     3443    1   DCL ZIM$JSET ENTRY(3);
       35     3444    1   DCL ZIM$PDIS ENTRY ALTRET;
       36     3445    1   DCL ZIG$DBPFP ENTRY ALTRET;
       37     3446    1   DCL ZIB$FPTRECOVER ENTRY ALTRET;
PL6.E3A0      #001=ZIM$EDIS File=ZIM$CONDIS.:ZIC0TSI                             FRI 09/05/97 12:38 Page:2
       38     3447    1   DCL ZIB$CLRRECOVER ENTRY;
       39     3448    1   DCL VLP$ PTR SYMREF;
       40     3449    1   DCL ADSC$ PTR;
       41     3450    1   DCL RADDR$ PTR;
       42     3451    1   DCL RVI$ PTR;
       43     3452    1   DCL RVT$ PTR;
       44     3453    1   DCL RVO$ PTR;
       45     3454    1   DCL RVPA$ PTR;
       46     3455    1   DCL ERR_SET BIT(1);
       47     3456    1   DCL ERROR UBIN(36);
       48     3457    1   DCL TEMP UBIN(36);
       49     3458    1   DCL SETL UBIN(36);
       50     3459    1   DCL SETP CHAR(SETL) BASED;
       51     3460    1       ERR_SET = '0'B;
       52     3461    1       DBCB$=GLOBAL.ACTIVE.DBCB$;
       53     3462    1       SSS$=GLOBAL.ACTIVE.SSS$;
       54     3463            %DBCAL(NAME=ZIG$DBPCR,ALT=GCER5);
       55     3479    1       SC$=PINCRW(SSS$,RVA.RVE.EO(IPT$DIS_V.SC.SC_OFFSET-1));
       56     3480    1       IF SC.DEF.TYPE~=SC_CLASS THEN
       57     3481    1           GOTO ER_ARGER;
       58     3482    1       IF SC.DEF.SNSS THEN
       59     3483    1           GOTO ER_IRSN;
       60     3484    1       RC$=PINCRW(SSS$,RVA.RVE.EO(IPT$DIS_V.RC.RC_OFFSET-1));
       61     3485    1       IF RC$=SSS$ THEN /* OFFSET WAS NULL */
       62     3486    1           RC$=PINCRW(SSS$,PINCRW(DBCB$,DBCB.PCB.RVI)->RECVAR.RCPTR);
       63     3487    1       ELSE
       64     3488    1           IF RC.DEF.TYPE~=RC_CLASS THEN
       65     3489    1               GOTO ER_ARGER;
       66     3490    1           ELSE
       67     3491    1               IF PINCRW(SSS$,DBCB.CRUN.RC)~=RC$ THEN
       68     3492    1                   GOTO ER_CRIT;
       69     3493    1       DBCB.PCB.PRSC=POFFW(SC$,SSS$);
       70     3494    1       SETWS$=PINCRW(DBCB$,SC.SCWSO);
       71     3495    1       IF ~SETWS.PRIV.PSD THEN
       72     3496    1           GOTO ER_LR;
       73     3497    1       RWS$=PINCRW(DBCB$,RC.RCWSO);
       74     3498    1       IF ~RWS.PRIV.PD THEN
PL6.E3A0      #001=ZIM$EDIS File=ZIM$CONDIS.:ZIC0TSI                             FRI 09/05/97 12:38 Page:3
       75     3499    1           GOTO ER_LR;
       76     3500    1       RVI$=PINCRW(DBCB$,DBCB.PCB.RVI);
       77     3501    1       GLOBAL.PARAN.IO.BUF$=RVI$->RECVAR.BADDR$;
       78     3502    1       CALL ZIO$LOCK ALTRET(LKER3);
       79     3503         /* Set RECOVER addr for FPT checker */
       80     3504    1       CALL ZIB$FPTRECOVER ALTRET(DSER1);
       81     3505    1       CALL ZIO$MODIFY ALTRET(LKER3);
       82     3506    1       CALL ZIM$GETRS(SC$,RC$,RS$) ALTRET(GRSER);
       83     3507    1       RVI$->RECVAR.RSPTR=POFFW(RS$,SSS$);
       84     3508    1       IF SC.DEF.SETM=2 THEN
       85     3509    2       DO;
       86     3510    2           RADDR$=RVI$->RECVAR.RADDR$;
       87     3511    2           ADSC$=ADDR(RS.CSPAH);
       88     3512    2           SETL=ADSC.N;
       89     3513    2           RVI$->RECVAR.PA.CBRPA=0; /* ZERO PTR BEFORE ASSIGN IT */
       90     3514    2           PINCRC(ADDR(RVI$->RECVAR.PA.CBRPA),4-SETL)->SETP =
       91     3515    2              PINCRC(RADDR$,BITBIN(ADSC.OFFSET))->SETP;
       92     3516    2           IF ~SC.DEF.LG THEN
       93     3517    3           DO;
       94     3518    3               RVI$->RECVAR.PA.CBRPA=RVI$->RECVAR.PA.CBRPA+
       95     3519    3                  PINCRW(SSS$,RVI$->RECVAR.ACPTR)->AC.ABAS;
       96     3520    3               RVI$->RECVAR.PA.CBRCE=0;
       97     3521    3               END;
       98     3522    2           END;
       99     3523    1       DBCB.PCB.PRRC=BITBIN('400000'O);
      100     3524            %DBCAL(NAME=ZIG$DBPFP,EXC=PNP,ALT=PER1);
      101     3540    1   PNP: TEMP=DBCB.PCB.RVO;
      102     3541    1       DBCB.PCB.RVO=DBCB.PCB.RVT;
      103     3542    1       DBCB.PCB.RVT=TEMP;
      104     3543    1       RVI$=PINCRW(DBCB$,DBCB.PCB.RVI);
      105     3544    1       RS$=PINCRW(SSS$,RVI$->RECVAR.RSPTR);
      106     3545    1       IF ~RS.DEF.OSM THEN
      107     3546    1           GOTO ER_RPM;
      108     3547    1       CALL ZIM$PDIS ALTRET(DSER1);
      109     3548    1       RVI$ = PINCRW(DBCB$,DBCB.PCB.RVI);
      110     3549    1       RVT$ = PINCRW(DBCB$,DBCB.PCB.RVT);
      111     3550    1       CALL ZIM$JSET(RVI$,RS.NPOS,0);
PL6.E3A0      #001=ZIM$EDIS File=ZIM$CONDIS.:ZIC0TSI                             FRI 09/05/97 12:38 Page:4
      112     3551    1       IF NOT (SC.DEF.SETM=2 AND RS.DEF.MEMT=1) THEN
      113     3552    1           CALL ZIM$JSET(RVI$,RS.PPOS,0);
      114     3553    1       CALL ZIM$JSET(RVI$,RS.HPOS,0);
      115     3554    1       IF SETWS.CURR = RVI$->RECVAR.DBKEY THEN
      116     3555    2       DO;
      117     3556    2           SETWS.CURR = RVT$->RECVAR.DBKEY;
      118     3557    2           SETWS.AC = RVT$->RECVAR.ACPTR;
      119     3558    2           IF SC.DEF.SETM=2 THEN /* SET IS PA */
      120     3559    2               SETWSPA.PA = RVT$->RECVAR.PA;
      121     3560    2           END;
      122     3561    1       GLOBAL.PARAN.IO.BUF$=RVI$->RECVAR.BADDR$;
      123     3562    1       CALL ZIO$UNLOCK ALTRET(ULER3);
      124     3563         /* Clear RECOVER addr for FPT checker */
      125     3564    1       CALL ZIB$CLRRECOVER;
      126     3565    1       TEMP=DBCB.PCB.RVI;
      127     3566    1       DBCB.PCB.RVI=DBCB.PCB.RVO;
      128     3567    1       DBCB.PCB.RVO=TEMP;
      129     3568    1       RETURN;
      130     3569    1   ER_RPM: ERROR=EXC#RPM;
      131     3570    1       ERR_SET = '1'B;
      132     3571    1   GRSER: ;
      133     3572    1   PER1: ;
      134     3573    1   DSER1: ;
      135     3574         /* Clear RECOVER addr for FPT checker */
      136     3575    1       CALL ZIB$CLRRECOVER;
      137     3576    1       ERROR=GLOBAL.RET.ERROR#;
      138     3577    1       RVI$=PINCRW(DBCB$,DBCB.PCB.RVI);
      139     3578    1       GLOBAL.PARAN.CALLPM0$=RVI$->RECVAR.BADDR$;
      140     3579            %DBCAL(NAME=ZIO$DBBCC,ALT=UNL1);
      141     3595    1       GLOBAL.PARAN.IO.BUF$=RVI$->RECVAR.BADDR$;
      142     3596    1       CALL ZIO$UNLOCK ALTRET(UNL1);
      143     3597    1   UNL1: RVO$=PINCRW(DBCB$,DBCB.PCB.RVO);
      144     3598    1       GLOBAL.PARAN.CALLPM0$=RVO$->RECVAR.BADDR$;
      145     3599            %DBCAL(NAME=ZIO$DBBCC,ALT=UNL2);
      146     3615    1       GLOBAL.PARAN.IO.BUF$=RVO$->RECVAR.BADDR$;
      147     3616    1       CALL ZIO$UNLOCK ALTRET(UNL2);
      148     3617    1   UNL2: RVT$=PINCRW(DBCB$,DBCB.PCB.RVT);
PL6.E3A0      #001=ZIM$EDIS File=ZIM$CONDIS.:ZIC0TSI                             FRI 09/05/97 12:38 Page:5
      149     3618    1       GLOBAL.PARAN.CALLPM0$=RVT$->RECVAR.BADDR$;
      150     3619            %DBCAL(NAME=ZIO$DBBCC,ALT=UNL3);
      151     3635    1       GLOBAL.PARAN.IO.BUF$=RVT$->RECVAR.BADDR$;
      152     3636    1       CALL ZIO$UNLOCK ALTRET(UNL3);
      153     3637    1   UNL3: RVPA$=PINCRW(DBCB$,DBCB.PCB.RVPA);
      154     3638    1       GLOBAL.PARAN.CALLPM0$=RVPA$->RECVAR.BADDR$;
      155     3639            %DBCAL(NAME=ZIO$DBBCC,ALT=UNL4);
      156     3655    1       GLOBAL.PARAN.IO.BUF$=RVPA$->RECVAR.BADDR$;
      157     3656    1       CALL ZIO$UNLOCK ALTRET(UNL4);
      158     3657    1   UNL4: GLOBAL.RET.ERROR# = ERROR;
      159     3658    1       GOTO ALTR;
      160     3659    1   ER_ARGER: IF NOT ERR_SET THEN
      161     3660    1           ERROR = ERR#CM#ARGER;
      162     3661    1       GOTO ALTR;
      163     3662    1   ER_CRIT: ERROR=EXC#CRIT;
      164     3663    1       GOTO ALTR;
      165     3664    1   ER_IRSN: ERROR=EXC#IRSN;
      166     3665    1       GOTO ALTR;
      167     3666    1   ER_LR: ERROR=EXC#LR;
      168     3667    1       GOTO ALTR;
      169     3668    1   GCER5: ;
      170     3669    1   LKER3: ;
      171     3670    1   ULER3: ;
      172     3671    1   ALTR: ;
      173     3672    1   ER_MSET: ;
      174     3673            %DBALT;
      175     3687    1   END ZIM$EDIS;
      176     3688        %EOD;

PL6.E3A0      #001=ZIM$EDIS File=ZIM$CONDIS.:ZIC0TSI                             FRI 09/05/97 12:38 Page:6
--  Include file information  --

   ZI$DBCSV_C.:ZIC0TOU  is referenced.
   ZI_ERRORS_C.:ZIC0TOU  is referenced.
   ZI$USER.:ZIC0TOU  is referenced.
   ZI$DBCB.:ZIC0TOU  is referenced.
   ZI$SSS.:ZIC0TOU  cannot be made into a system file and is referenced.
   ZI$GLOBAL.:ZIC0TOU  is referenced.
   B$JIT_C.:E05TOU  was found in the system file and is never referenced.
   CP_6_C.:E05TOU  was found in the system file and is never referenced.
      No diagnostics issued in procedure ZIM$EDIS.

   Procedure ZIM$EDIS requires 416 words for executable code.
   Procedure ZIM$EDIS requires 26 words of local(AUTO) storage.

PL6.E3A0      #001=ZIM$EDIS File=ZIM$CONDIS.:ZIC0TSI                             FRI 09/05/97 12:38 Page:7

 Object Unit name= ZIM$EDIS                                   File name= ZIM$CONDIS.:ZIC0TOU
 UTS= SEP 05 '97 12:38:06.44 FRI                              Compiler= PL-6/E31         Sev=      00
 SharedLib= :SHARED_SYSTEM                                    Alt SharedLib=


    ****  Control sections  ****

 Sect   Type Bound  Init  Size OctSiz  Section name(segment info)
    0   Proc  even  none   416    640  ZIM$EDIS
    1  RoData even  none     3      3  ZIM$EDIS

    ****  Entry defs  ****

                              Check   Calling
                             calling  sequence
  Sect OctLoc Primary Altret sequence   type   Parms  Name
     0      0   yes    yes     yes      XStd       0  ZIM$EDIS

  ****  Entry refs  ****

         Check        Calling
        calling       sequence
Altret sequence SRef   type   Args  Name
 yes     yes           XStd      0 ZIG$DBPCR
 yes     yes           XStd      0 ZIO$LOCK
 yes     yes           XStd      0 ZIB$FPTRECOVER
 yes     yes           XStd      0 ZIO$MODIFY
 yes     yes           XStd      3 ZIM$GETRS
         yes           XStd      0 ZIB$ERR
 yes     yes           XStd      0 ZIO$DBBCC
 yes     yes           XStd      0 ZIG$DBPFP
 yes     yes           XStd      0 ZIM$PDIS
 yes     yes           XStd      0 ZIO$UNLOCK
         yes           XStd      3 ZIM$JSET
         yes           XStd      0 ZIB$CLRRECOVER
                       nStd      0 X66_AUTO_0
                       nStd      0 X66_ARET
PL6.E3A0      #001=ZIM$EDIS File=ZIM$CONDIS.:ZIC0TSI                             FRI 09/05/97 12:38 Page:8
                       nStd      0 X66_AALT

  ****  Data refs  ****

  Flags:  r = read only, s = secondary
Flgs Name                             Flgs Name                             Flgs Name
r    GLOBAL$                               RVA$                                  VLP$

  ****  Segment refs  ****

  Flags:  r = read only, s = secondary
Flgs Name                             Flgs Name                             Flgs Name
     ISSID
PL6.E3A0      #001=ZIM$EDIS File=ZIM$CONDIS.:ZIC0TSI                             FRI 09/05/97 12:38 Page:9


        1        1        /*T***********************************************************/
        2        2        /*T*                                                         */
        3        3        /*T* Copyright (c) Bull HN Information Systems Inc., 1997    */
        4        4        /*T*                                                         */
        5        5        /*T***********************************************************/
        6        6        ZIM$EDIS: PROC ALTRET

      6  0 000000   000000 700200 xent  ZIM$EDIS     TSX0  ! X66_AUTO_0
         0 000001   000032 000000                    ZERO    26,0

        7        7               AVOID($PR5,$PR6,$PR7);
        8        8        %INCLUDE ZI$GLOBAL;
        9      494            %GLOBALS;
       10      802            %ADSC(STCLASS="BASED(ADSC$)");
       11      814        %INCLUDE ZI$SSS;
       12     1363            %OA1;
       13     1371            %AC;
       14     1466            %SC;
       15     1493            %RC;
       16     1525            %RS;
       17     1601        %INCLUDE ZI$DBCB;
       18     2243            %DBCB;
       19     2721            %SETWS;
       20     2740            %SETWSPA;
       21     2758            %RWS;
       22     2778            %RECVAR;
       23     2812        %INCLUDE ZI$USER;
       24     2957            %RVA;
       25     2970        %INCLUDE ZI_ERRORS_C;
       26     3296        %INCLUDE ZI$DBCSV_C;
       27     3434            %IPT$DIS_V(BASED="BASED(VLP$)");
       28     3437    1   DCL ZIG$DBPCR ENTRY ALTRET;
       29     3438    1   DCL ZIO$DBBCC ENTRY ALTRET;
       30     3439    1   DCL ZIO$LOCK ENTRY ALTRET;
       31     3440    1   DCL ZIO$UNLOCK ENTRY ALTRET;
       32     3441    1   DCL ZIO$MODIFY ENTRY ALTRET;
PL6.E3A0      #001=ZIM$EDIS File=ZIM$CONDIS.:ZIC0TSI                             FRI 09/05/97 12:38 Page:10
       33     3442    1   DCL ZIM$GETRS ENTRY(3) ALTRET;
       34     3443    1   DCL ZIM$JSET ENTRY(3);
       35     3444    1   DCL ZIM$PDIS ENTRY ALTRET;
       36     3445    1   DCL ZIG$DBPFP ENTRY ALTRET;
       37     3446    1   DCL ZIB$FPTRECOVER ENTRY ALTRET;
       38     3447    1   DCL ZIB$CLRRECOVER ENTRY;
       39     3448    1   DCL VLP$ PTR SYMREF;
       40     3449    1   DCL ADSC$ PTR;
       41     3450    1   DCL RADDR$ PTR;
       42     3451    1   DCL RVI$ PTR;
       43     3452    1   DCL RVT$ PTR;
       44     3453    1   DCL RVO$ PTR;
       45     3454    1   DCL RVPA$ PTR;
       46     3455    1   DCL ERR_SET BIT(1);
       47     3456    1   DCL ERROR UBIN(36);
       48     3457    1   DCL TEMP UBIN(36);
       49     3458    1   DCL SETL UBIN(36);
       50     3459    1   DCL SETP CHAR(SETL) BASED;
       51     3460    1       ERR_SET = '0'B;

   3460  0 000002   200022 450100                    STZ     ERR_SET,,AUTO

       52     3461    1       DBCB$=GLOBAL.ACTIVE.DBCB$;

   3461  0 000003   000000 470400 xsym               LDP0    GLOBAL$
         0 000004   000001 236100                    LDQ     1,,PR0
         0 000005   200011 756100                    STQ     DBCB$,,AUTO

       53     3462    1       SSS$=GLOBAL.ACTIVE.SSS$;

   3462  0 000006   000000 236100                    LDQ     0,,PR0
         0 000007   200003 756100                    STQ     SSS$,,AUTO

       54     3463            %DBCAL(NAME=ZIG$DBPCR,ALT=GCER5);

   3467  0 000010   000000 631400 1                  EPPR1   0
         0 000011   000000 701000 xent               TSX1    ZIG$DBPCR
PL6.E3A0      #001=ZIM$EDIS File=ZIM$CONDIS.:ZIC0TSI                             FRI 09/05/97 12:38 Page:11
         0 000012   000617 702000 0                  TSX2    GCER5

   3468  0 000013   000000 470400 xsym               LDP0    GLOBAL$
         0 000014   000006 235100                    LDA     6,,PR0
         0 000015   000617 601000 0                  TNZ     GCER5

       55     3479    1       SC$=PINCRW(SSS$,RVA.RVE.EO(IPT$DIS_V.SC.SC_OFFSET-1));

   3479  0 000016   000000 471400 xsym               LDP1    VLP$
         0 000017   100001 220100                    LDX0    1,,PR1
         0 000020   000000 473400 xsym               LDP3    RVA$
         0 000021   300000 221110                    LDX1    0,X0,PR3
         0 000022   000000 636011                    EAQ     0,X1
         0 000023   200003 036100                    ADLQ    SSS$,,AUTO
         0 000024   200006 756100                    STQ     SC$,,AUTO

       56     3480    1       IF SC.DEF.TYPE~=SC_CLASS THEN

   3480  0 000025   200006 474500                    LDP4    SC$,,AUTO
         0 000026   400000 236100                    LDQ     0,,PR4
         0 000027   777700 376003                    ANQ     -64,DU
         0 000030   040000 116003                    CMPQ    16384,DU
         0 000031   000601 601000 0                  TNZ     ER_ARGER

       57     3481    1           GOTO ER_ARGER;
       58     3482    1       IF SC.DEF.SNSS THEN

   3482  0 000032   400000 236100                    LDQ     0,,PR4
         0 000033   020000 316007                    CANQ    8192,DL
         0 000034   000611 601000 0                  TNZ     ER_IRSN

       59     3483    1           GOTO ER_IRSN;
       60     3484    1       RC$=PINCRW(SSS$,RVA.RVE.EO(IPT$DIS_V.RC.RC_OFFSET-1));

   3484  0 000035   100000 220100                    LDX0    0,,PR1
         0 000036   300000 221110                    LDX1    0,X0,PR3
         0 000037   000000 636011                    EAQ     0,X1
PL6.E3A0      #001=ZIM$EDIS File=ZIM$CONDIS.:ZIC0TSI                             FRI 09/05/97 12:38 Page:12
         0 000040   200003 036100                    ADLQ    SSS$,,AUTO
         0 000041   200007 756100                    STQ     RC$,,AUTO

       61     3485    1       IF RC$=SSS$ THEN /* OFFSET WAS NULL */

   3485  0 000042   200003 116100                    CMPQ    SSS$,,AUTO
         0 000043   000053 601000 0                  TNZ     s:3488

       62     3486    1           RC$=PINCRW(SSS$,PINCRW(DBCB$,DBCB.PCB.RVI)->RECVAR.RCPTR);

   3486  0 000044   200011 470500                    LDP0    DBCB$,,AUTO
         0 000045   000510 220100                    LDX0    328,,PR0
         0 000046   000006 221110                    LDX1    6,X0,PR0
         0 000047   000000 636011                    EAQ     0,X1
         0 000050   200003 036100                    ADLQ    SSS$,,AUTO
         0 000051   200007 756100                    STQ     RC$,,AUTO
         0 000052   000066 710000 0                  TRA     s:3493

       63     3487    1       ELSE
       64     3488    1           IF RC.DEF.TYPE~=RC_CLASS THEN

   3488  0 000053   200007 470500                    LDP0    RC$,,AUTO
         0 000054   000000 236100                    LDQ     0,,PR0
         0 000055   777700 376003                    ANQ     -64,DU
         0 000056   100000 116003                    CMPQ    32768,DU
         0 000057   000601 601000 0                  TNZ     ER_ARGER

       65     3489    1               GOTO ER_ARGER;
       66     3490    1           ELSE
       67     3491    1               IF PINCRW(SSS$,DBCB.CRUN.RC)~=RC$ THEN

   3491  0 000060   200011 470500                    LDP0    DBCB$,,AUTO
         0 000061   001224 220100                    LDX0    660,,PR0
         0 000062   000000 636010                    EAQ     0,X0
         0 000063   200003 036100                    ADLQ    SSS$,,AUTO
         0 000064   200007 116100                    CMPQ    RC$,,AUTO
         0 000065   000606 601000 0                  TNZ     ER_CRIT
PL6.E3A0      #001=ZIM$EDIS File=ZIM$CONDIS.:ZIC0TSI                             FRI 09/05/97 12:38 Page:13

       68     3492    1                   GOTO ER_CRIT;
       69     3493    1       DBCB.PCB.PRSC=POFFW(SC$,SSS$);

   3493  0 000066   200003 235100                    LDA     SSS$,,AUTO
         0 000067   000022 771000                    ARL     18
         0 000070   200026 755100                    STA     SETL+1,,AUTO
         0 000071   200006 236100                    LDQ     SC$,,AUTO
         0 000072   000022 772000                    QRL     18
         0 000073   200026 136100                    SBLQ    SETL+1,,AUTO
         0 000074   000000 620006                    EAX0    0,QL
         0 000075   000520 740100                    STX0    336,,PR0

       70     3494    1       SETWS$=PINCRW(DBCB$,SC.SCWSO);

   3494  0 000076   400001 221100                    LDX1    1,,PR4
         0 000077   000000 636011                    EAQ     0,X1
         0 000100   200011 036100                    ADLQ    DBCB$,,AUTO
         0 000101   200012 756100                    STQ     SETWS$,,AUTO

       71     3495    1       IF ~SETWS.PRIV.PSD THEN

   3495  0 000102   200012 470500                    LDP0    SETWS$,,AUTO
         0 000103   000000 236100                    LDQ     0,,PR0
         0 000104   000016 736000                    QLS     14
         0 000105   400000 376003                    ANQ     -131072,DU
         0 000106   400000 676003                    ERQ     -131072,DU
         0 000107   000614 601000 0                  TNZ     ER_LR

       72     3496    1           GOTO ER_LR;
       73     3497    1       RWS$=PINCRW(DBCB$,RC.RCWSO);

   3497  0 000110   200007 470500                    LDP0    RC$,,AUTO
         0 000111   000004 220100                    LDX0    4,,PR0
         0 000112   000000 636010                    EAQ     0,X0
         0 000113   200011 036100                    ADLQ    DBCB$,,AUTO
         0 000114   200013 756100                    STQ     RWS$,,AUTO
PL6.E3A0      #001=ZIM$EDIS File=ZIM$CONDIS.:ZIC0TSI                             FRI 09/05/97 12:38 Page:14

       74     3498    1       IF ~RWS.PRIV.PD THEN

   3498  0 000115   200013 470500                    LDP0    RWS$,,AUTO
         0 000116   000000 236100                    LDQ     0,,PR0
         0 000117   000016 736000                    QLS     14
         0 000120   400000 376003                    ANQ     -131072,DU
         0 000121   400000 676003                    ERQ     -131072,DU
         0 000122   000614 601000 0                  TNZ     ER_LR

       75     3499    1           GOTO ER_LR;
       76     3500    1       RVI$=PINCRW(DBCB$,DBCB.PCB.RVI);

   3500  0 000123   200011 470500                    LDP0    DBCB$,,AUTO
         0 000124   000510 220100                    LDX0    328,,PR0
         0 000125   000000 636010                    EAQ     0,X0
         0 000126   200011 036100                    ADLQ    DBCB$,,AUTO
         0 000127   200016 756100                    STQ     RVI$,,AUTO

       77     3501    1       GLOBAL.PARAN.IO.BUF$=RVI$->RECVAR.BADDR$;

   3501  0 000130   200016 470500                    LDP0    RVI$,,AUTO
         0 000131   000001 236100                    LDQ     1,,PR0
         0 000132   000000 470400 xsym               LDP0    GLOBAL$
         0 000133   000022 756100                    STQ     18,,PR0

       78     3502    1       CALL ZIO$LOCK ALTRET(LKER3);

   3502  0 000134   000000 631400 1                  EPPR1   0
         0 000135   000000 701000 xent               TSX1    ZIO$LOCK
         0 000136   000617 702000 0                  TSX2    GCER5

       79     3503         /* Set RECOVER addr for FPT checker */
       80     3504    1       CALL ZIB$FPTRECOVER ALTRET(DSER1);

   3504  0 000137   000000 631400 1                  EPPR1   0
         0 000140   000000 701000 xent               TSX1    ZIB$FPTRECOVER
PL6.E3A0      #001=ZIM$EDIS File=ZIM$CONDIS.:ZIC0TSI                             FRI 09/05/97 12:38 Page:15
         0 000141   000444 702000 0                  TSX2    GRSER

       81     3505    1       CALL ZIO$MODIFY ALTRET(LKER3);

   3505  0 000142   000000 631400 1                  EPPR1   0
         0 000143   000000 701000 xent               TSX1    ZIO$MODIFY
         0 000144   000617 702000 0                  TSX2    GCER5

       82     3506    1       CALL ZIM$GETRS(SC$,RC$,RS$) ALTRET(GRSER);

   3506  0 000145   200010 630500                    EPPR0   RS$,,AUTO
         0 000146   200030 450500                    STP0    SETL+3,,AUTO
         0 000147   200007 631500                    EPPR1   RC$,,AUTO
         0 000150   200027 451500                    STP1    SETL+2,,AUTO
         0 000151   200006 633500                    EPPR3   SC$,,AUTO
         0 000152   200026 453500                    STP3    SETL+1,,AUTO
         0 000153   200026 630500                    EPPR0   SETL+1,,AUTO
         0 000154   000001 631400 1                  EPPR1   1
         0 000155   000000 701000 xent               TSX1    ZIM$GETRS
         0 000156   000444 702000 0                  TSX2    GRSER

       83     3507    1       RVI$->RECVAR.RSPTR=POFFW(RS$,SSS$);

   3507  0 000157   200003 235100                    LDA     SSS$,,AUTO
         0 000160   000022 771000                    ARL     18
         0 000161   200026 755100                    STA     SETL+1,,AUTO
         0 000162   200010 236100                    LDQ     RS$,,AUTO
         0 000163   000022 772000                    QRL     18
         0 000164   200026 136100                    SBLQ    SETL+1,,AUTO
         0 000165   000000 620006                    EAX0    0,QL
         0 000166   200016 470500                    LDP0    RVI$,,AUTO
         0 000167   000004 440100                    SXL0    4,,PR0

       84     3508    1       IF SC.DEF.SETM=2 THEN

   3508  0 000170   200006 470500                    LDP0    SC$,,AUTO
         0 000171   000000 236100                    LDQ     0,,PR0
PL6.E3A0      #001=ZIM$EDIS File=ZIM$CONDIS.:ZIC0TSI                             FRI 09/05/97 12:38 Page:16
         0 000172   000070 376003                    ANQ     56,DU
         0 000173   000020 116003                    CMPQ    16,DU
         0 000174   000242 601000 0                  TNZ     s:3523

       85     3509    2       DO;

       86     3510    2           RADDR$=RVI$->RECVAR.RADDR$;

   3510  0 000175   200016 471500                    LDP1    RVI$,,AUTO
         0 000176   100002 236100                    LDQ     2,,PR1
         0 000177   200015 756100                    STQ     RADDR$,,AUTO

       87     3511    2           ADSC$=ADDR(RS.CSPAH);

   3511  0 000200   200010 236100                    LDQ     RS$,,AUTO
         0 000201   000004 036003                    ADLQ    4,DU
         0 000202   200014 756100                    STQ     ADSC$,,AUTO

       88     3512    2           SETL=ADSC.N;

   3512  0 000203   200014 473500                    LDP3    ADSC$,,AUTO
         0 000204   300000 236100                    LDQ     0,,PR3
         0 000205   007777 376007                    ANQ     4095,DL
         0 000206   200025 756100                    STQ     SETL,,AUTO

       89     3513    2           RVI$->RECVAR.PA.CBRPA=0; /* ZERO PTR BEFORE ASSIGN IT */

   3513  0 000207   100015 450100                    STZ     13,,PR1

       90     3514    2           PINCRC(ADDR(RVI$->RECVAR.PA.CBRPA),4-SETL)->SETP =

   3514  0 000210   300000 236100                    LDQ     0,,PR3
         0 000211   000020 772000                    QRL     16
         0 000212   377777 376007                    ANQ     131071,DL
         0 000213   000000 235003                    LDA     0,DU
         0 000214   200025 135100                    SBLA    SETL,,AUTO
         0 000215   200015 471500                    LDP1    RADDR$,,AUTO
PL6.E3A0      #001=ZIM$EDIS File=ZIM$CONDIS.:ZIC0TSI                             FRI 09/05/97 12:38 Page:17
         0 000216   200025 720100                    LXL0    SETL,,AUTO
         0 000217   200016 474500                    LDP4    RVI$,,AUTO
         0 000220   040145 100546                    MLR     fill='040'O
         0 000221   100000 000010                    ADSC9   0,Q,PR1                  cn=0,n=*X0
         0 000222   400016 000010                    ADSC9   14,A,PR4                 cn=0,n=*X0

       91     3515    2              PINCRC(RADDR$,BITBIN(ADSC.OFFSET))->SETP;
       92     3516    2           IF ~SC.DEF.LG THEN

   3516  0 000223   200006 470500                    LDP0    SC$,,AUTO
         0 000224   000000 236100                    LDQ     0,,PR0
         0 000225   000032 736000                    QLS     26
         0 000226   400000 376003                    ANQ     -131072,DU
         0 000227   400000 676003                    ERQ     -131072,DU
         0 000230   000242 600000 0                  TZE     s:3523

       93     3517    3           DO;

       94     3518    3               RVI$->RECVAR.PA.CBRPA=RVI$->RECVAR.PA.CBRPA+

   3518  0 000231   200016 474500                    LDP4    RVI$,,AUTO
         0 000232   400005 221100                    LDX1    5,,PR4
         0 000233   200003 470500                    LDP0    SSS$,,AUTO
         0 000234   400015 236100                    LDQ     13,,PR4
         0 000235   000002 036111                    ADLQ    2,X1,PR0
         0 000236   400015 756100                    STQ     13,,PR4

       95     3519    3                  PINCRW(SSS$,RVI$->RECVAR.ACPTR)->AC.ABAS;
       96     3520    3               RVI$->RECVAR.PA.CBRCE=0;

   3520  0 000237   000000 221003                    LDX1    0,DU
         0 000240   200016 474500                    LDP4    RVI$,,AUTO
         0 000241   400014 741100                    STX1    12,,PR4

       97     3521    3               END;

       98     3522    2           END;
PL6.E3A0      #001=ZIM$EDIS File=ZIM$CONDIS.:ZIC0TSI                             FRI 09/05/97 12:38 Page:18

       99     3523    1       DBCB.PCB.PRRC=BITBIN('400000'O);

   3523  0 000242   400000 220003                    LDX0    -131072,DU
         0 000243   200011 470500                    LDP0    DBCB$,,AUTO
         0 000244   000517 740100                    STX0    335,,PR0

      100     3524            %DBCAL(NAME=ZIG$DBPFP,EXC=PNP,ALT=PER1);

   3528  0 000245   000000 631400 1                  EPPR1   0
         0 000246   000000 701000 xent               TSX1    ZIG$DBPFP
         0 000247   000444 702000 0                  TSX2    GRSER

   3529  0 000250   000000 470400 xsym               LDP0    GLOBAL$
         0 000251   000006 235100                    LDA     6,,PR0
         0 000252   000255 600000 0                  TZE     PNP

   3534  0 000253   000006 450100                    STZ     6,,PR0

   3535  0 000254   000255 710000 0                  TRA     PNP

      101     3540    1   PNP: TEMP=DBCB.PCB.RVO;

   3540  0 000255   200011 471500       PNP          LDP1    DBCB$,,AUTO
         0 000256   100511 236100                    LDQ     329,,PR1
         0 000257   000022 772000                    QRL     18
         0 000260   200024 756100                    STQ     TEMP,,AUTO

      102     3541    1       DBCB.PCB.RVO=DBCB.PCB.RVT;

   3541  0 000261   100512 220100                    LDX0    330,,PR1
         0 000262   100511 740100                    STX0    329,,PR1

      103     3542    1       DBCB.PCB.RVT=TEMP;

   3542  0 000263   000000 621006                    EAX1    0,QL
         0 000264   100512 741100                    STX1    330,,PR1
PL6.E3A0      #001=ZIM$EDIS File=ZIM$CONDIS.:ZIC0TSI                             FRI 09/05/97 12:38 Page:19

      104     3543    1       RVI$=PINCRW(DBCB$,DBCB.PCB.RVI);

   3543  0 000265   100510 222100                    LDX2    328,,PR1
         0 000266   000000 636012                    EAQ     0,X2
         0 000267   200011 036100                    ADLQ    DBCB$,,AUTO
         0 000270   200016 756100                    STQ     RVI$,,AUTO

      105     3544    1       RS$=PINCRW(SSS$,RVI$->RECVAR.RSPTR);

   3544  0 000271   200016 473500                    LDP3    RVI$,,AUTO
         0 000272   300004 723100                    LXL3    4,,PR3
         0 000273   000000 636013                    EAQ     0,X3
         0 000274   200003 036100                    ADLQ    SSS$,,AUTO
         0 000275   200010 756100                    STQ     RS$,,AUTO

      106     3545    1       IF ~RS.DEF.OSM THEN

   3545  0 000276   200010 474500                    LDP4    RS$,,AUTO
         0 000277   400000 236100                    LDQ     0,,PR4
         0 000300   000024 736000                    QLS     20
         0 000301   400000 376003                    ANQ     -131072,DU
         0 000302   400000 676003                    ERQ     -131072,DU
         0 000303   000440 601000 0                  TNZ     ER_RPM

      107     3546    1           GOTO ER_RPM;
      108     3547    1       CALL ZIM$PDIS ALTRET(DSER1);

   3547  0 000304   000000 631400 1                  EPPR1   0
         0 000305   000000 701000 xent               TSX1    ZIM$PDIS
         0 000306   000444 702000 0                  TSX2    GRSER

      109     3548    1       RVI$ = PINCRW(DBCB$,DBCB.PCB.RVI);

   3548  0 000307   200011 470500                    LDP0    DBCB$,,AUTO
         0 000310   000510 220100                    LDX0    328,,PR0
         0 000311   000000 636010                    EAQ     0,X0
PL6.E3A0      #001=ZIM$EDIS File=ZIM$CONDIS.:ZIC0TSI                             FRI 09/05/97 12:38 Page:20
         0 000312   200011 036100                    ADLQ    DBCB$,,AUTO
         0 000313   200016 756100                    STQ     RVI$,,AUTO

      110     3549    1       RVT$ = PINCRW(DBCB$,DBCB.PCB.RVT);

   3549  0 000314   000512 221100                    LDX1    330,,PR0
         0 000315   000000 636011                    EAQ     0,X1
         0 000316   200011 036100                    ADLQ    DBCB$,,AUTO
         0 000317   200017 756100                    STQ     RVT$,,AUTO

      111     3550    1       CALL ZIM$JSET(RVI$,RS.NPOS,0);

   3550  0 000320   000002 236000 1                  LDQ     2
         0 000321   200030 756100                    STQ     SETL+3,,AUTO
         0 000322   200010 236100                    LDQ     RS$,,AUTO
         0 000323   000004 036003                    ADLQ    4,DU
         0 000324   200027 756100                    STQ     SETL+2,,AUTO
         0 000325   200016 631500                    EPPR1   RVI$,,AUTO
         0 000326   200026 451500                    STP1    SETL+1,,AUTO
         0 000327   200026 630500                    EPPR0   SETL+1,,AUTO
         0 000330   000001 631400 1                  EPPR1   1
         0 000331   000000 701000 xent               TSX1    ZIM$JSET
         0 000332   000000 011000                    NOP     0

      112     3551    1       IF NOT (SC.DEF.SETM=2 AND RS.DEF.MEMT=1) THEN

   3551  0 000333   200006 470500                    LDP0    SC$,,AUTO
         0 000334   000000 236100                    LDQ     0,,PR0
         0 000335   000070 376003                    ANQ     56,DU
         0 000336   000020 116003                    CMPQ    16,DU
         0 000337   000345 601000 0                  TNZ     s:3552
         0 000340   200010 471500                    LDP1    RS$,,AUTO
         0 000341   100000 236100                    LDQ     0,,PR1
         0 000342   000007 376003                    ANQ     7,DU
         0 000343   000001 116003                    CMPQ    1,DU
         0 000344   000360 600000 0                  TZE     s:3553

PL6.E3A0      #001=ZIM$EDIS File=ZIM$CONDIS.:ZIC0TSI                             FRI 09/05/97 12:38 Page:21
      113     3552    1           CALL ZIM$JSET(RVI$,RS.PPOS,0);

   3552  0 000345   000002 236000 1                  LDQ     2
         0 000346   200030 756100                    STQ     SETL+3,,AUTO
         0 000347   200010 236100                    LDQ     RS$,,AUTO
         0 000350   000005 036003                    ADLQ    5,DU
         0 000351   200027 756100                    STQ     SETL+2,,AUTO
         0 000352   200016 631500                    EPPR1   RVI$,,AUTO
         0 000353   200026 451500                    STP1    SETL+1,,AUTO
         0 000354   200026 630500                    EPPR0   SETL+1,,AUTO
         0 000355   000001 631400 1                  EPPR1   1
         0 000356   000000 701000 xent               TSX1    ZIM$JSET
         0 000357   000000 011000                    NOP     0

      114     3553    1       CALL ZIM$JSET(RVI$,RS.HPOS,0);

   3553  0 000360   000002 236000 1                  LDQ     2
         0 000361   200030 756100                    STQ     SETL+3,,AUTO
         0 000362   200010 236100                    LDQ     RS$,,AUTO
         0 000363   000006 036003                    ADLQ    6,DU
         0 000364   200027 756100                    STQ     SETL+2,,AUTO
         0 000365   200016 630500                    EPPR0   RVI$,,AUTO
         0 000366   200026 450500                    STP0    SETL+1,,AUTO
         0 000367   200026 630500                    EPPR0   SETL+1,,AUTO
         0 000370   000001 631400 1                  EPPR1   1
         0 000371   000000 701000 xent               TSX1    ZIM$JSET
         0 000372   000000 011000                    NOP     0

      115     3554    1       IF SETWS.CURR = RVI$->RECVAR.DBKEY THEN

   3554  0 000373   200012 470500                    LDP0    SETWS$,,AUTO
         0 000374   200016 471500                    LDP1    RVI$,,AUTO
         0 000375   000001 236100                    LDQ     1,,PR0
         0 000376   100000 116100                    CMPQ    0,,PR1
         0 000377   000415 601000 0                  TNZ     s:3561

      116     3555    2       DO;
PL6.E3A0      #001=ZIM$EDIS File=ZIM$CONDIS.:ZIC0TSI                             FRI 09/05/97 12:38 Page:22

      117     3556    2           SETWS.CURR = RVT$->RECVAR.DBKEY;

   3556  0 000400   200017 473500                    LDP3    RVT$,,AUTO
         0 000401   300000 235100                    LDA     0,,PR3
         0 000402   000001 755100                    STA     1,,PR0

      118     3557    2           SETWS.AC = RVT$->RECVAR.ACPTR;

   3557  0 000403   300005 220100                    LDX0    5,,PR3
         0 000404   000000 440100                    SXL0    0,,PR0

      119     3558    2           IF SC.DEF.SETM=2 THEN /* SET IS PA */

   3558  0 000405   200006 471500                    LDP1    SC$,,AUTO
         0 000406   100000 236100                    LDQ     0,,PR1
         0 000407   000070 376003                    ANQ     56,DU
         0 000410   000020 116003                    CMPQ    16,DU
         0 000411   000415 601000 0                  TNZ     s:3561

      120     3559    2               SETWSPA.PA = RVT$->RECVAR.PA;

   3559  0 000412   000100 100500                    MLR     fill='000'O
         0 000413   300014 000010                    ADSC9   12,,PR3                  cn=0,n=8
         0 000414   000002 000010                    ADSC9   2,,PR0                   cn=0,n=8

      121     3560    2           END;

      122     3561    1       GLOBAL.PARAN.IO.BUF$=RVI$->RECVAR.BADDR$;

   3561  0 000415   200016 471500                    LDP1    RVI$,,AUTO
         0 000416   100001 236100                    LDQ     1,,PR1
         0 000417   000000 473400 xsym               LDP3    GLOBAL$
         0 000420   300022 756100                    STQ     18,,PR3

      123     3562    1       CALL ZIO$UNLOCK ALTRET(ULER3);

PL6.E3A0      #001=ZIM$EDIS File=ZIM$CONDIS.:ZIC0TSI                             FRI 09/05/97 12:38 Page:23
   3562  0 000421   000000 631400 1                  EPPR1   0
         0 000422   000000 701000 xent               TSX1    ZIO$UNLOCK
         0 000423   000617 702000 0                  TSX2    GCER5

      124     3563         /* Clear RECOVER addr for FPT checker */
      125     3564    1       CALL ZIB$CLRRECOVER;

   3564  0 000424   000000 631400 1                  EPPR1   0
         0 000425   000000 701000 xent               TSX1    ZIB$CLRRECOVER
         0 000426   000000 011000                    NOP     0

      126     3565    1       TEMP=DBCB.PCB.RVI;

   3565  0 000427   200011 470500                    LDP0    DBCB$,,AUTO
         0 000430   000510 236100                    LDQ     328,,PR0
         0 000431   000022 772000                    QRL     18
         0 000432   200024 756100                    STQ     TEMP,,AUTO

      127     3566    1       DBCB.PCB.RVI=DBCB.PCB.RVO;

   3566  0 000433   000511 220100                    LDX0    329,,PR0
         0 000434   000510 740100                    STX0    328,,PR0

      128     3567    1       DBCB.PCB.RVO=TEMP;

   3567  0 000435   000000 621006                    EAX1    0,QL
         0 000436   000511 741100                    STX1    329,,PR0

      129     3568    1       RETURN;

   3568  0 000437   000000 702200 xent               TSX2  ! X66_ARET

      130     3569    1   ER_RPM: ERROR=EXC#RPM;

   3569  0 000440   020010 235007       ER_RPM       LDA     8200,DL
         0 000441   200023 755100                    STA     ERROR,,AUTO

PL6.E3A0      #001=ZIM$EDIS File=ZIM$CONDIS.:ZIC0TSI                             FRI 09/05/97 12:38 Page:24
      131     3570    1       ERR_SET = '1'B;

   3570  0 000442   400000 236003                    LDQ     -131072,DU
         0 000443   200022 756100                    STQ     ERR_SET,,AUTO

   3570  0 000444                       GRSER        null
   3570  0 000444                       PER1         null
   3570  0 000444                       DSER1        null
      132     3571    1   GRSER: ;
      133     3572    1   PER1: ;
      134     3573    1   DSER1: ;
      135     3574         /* Clear RECOVER addr for FPT checker */
      136     3575    1       CALL ZIB$CLRRECOVER;

   3575  0 000444   000000 631400 1                  EPPR1   0
         0 000445   000000 701000 xent               TSX1    ZIB$CLRRECOVER
         0 000446   000000 011000                    NOP     0

      137     3576    1       ERROR=GLOBAL.RET.ERROR#;

   3576  0 000447   000000 470400 xsym               LDP0    GLOBAL$
         0 000450   000006 235100                    LDA     6,,PR0
         0 000451   200023 755100                    STA     ERROR,,AUTO

      138     3577    1       RVI$=PINCRW(DBCB$,DBCB.PCB.RVI);

   3577  0 000452   200011 471500                    LDP1    DBCB$,,AUTO
         0 000453   100510 220100                    LDX0    328,,PR1
         0 000454   000000 636010                    EAQ     0,X0
         0 000455   200011 036100                    ADLQ    DBCB$,,AUTO
         0 000456   200016 756100                    STQ     RVI$,,AUTO

      139     3578    1       GLOBAL.PARAN.CALLPM0$=RVI$->RECVAR.BADDR$;

   3578  0 000457   200016 473500                    LDP3    RVI$,,AUTO
         0 000460   300001 236100                    LDQ     1,,PR3
         0 000461   000026 756100                    STQ     22,,PR0
PL6.E3A0      #001=ZIM$EDIS File=ZIM$CONDIS.:ZIC0TSI                             FRI 09/05/97 12:38 Page:25

      140     3579            %DBCAL(NAME=ZIO$DBBCC,ALT=UNL1);

   3583  0 000462   000000 631400 1                  EPPR1   0
         0 000463   000000 701000 xent               TSX1    ZIO$DBBCC
         0 000464   000476 702000 0                  TSX2    UNL1

   3584  0 000465   000000 470400 xsym               LDP0    GLOBAL$
         0 000466   000006 235100                    LDA     6,,PR0
         0 000467   000476 601000 0                  TNZ     UNL1

      141     3595    1       GLOBAL.PARAN.IO.BUF$=RVI$->RECVAR.BADDR$;

   3595  0 000470   200016 471500                    LDP1    RVI$,,AUTO
         0 000471   100001 236100                    LDQ     1,,PR1
         0 000472   000022 756100                    STQ     18,,PR0

      142     3596    1       CALL ZIO$UNLOCK ALTRET(UNL1);

   3596  0 000473   000000 631400 1                  EPPR1   0
         0 000474   000000 701000 xent               TSX1    ZIO$UNLOCK
         0 000475   000476 702000 0                  TSX2    UNL1

      143     3597    1   UNL1: RVO$=PINCRW(DBCB$,DBCB.PCB.RVO);

   3597  0 000476   200011 470500       UNL1         LDP0    DBCB$,,AUTO
         0 000477   000511 220100                    LDX0    329,,PR0
         0 000500   000000 636010                    EAQ     0,X0
         0 000501   200011 036100                    ADLQ    DBCB$,,AUTO
         0 000502   200020 756100                    STQ     RVO$,,AUTO

      144     3598    1       GLOBAL.PARAN.CALLPM0$=RVO$->RECVAR.BADDR$;

   3598  0 000503   200020 471500                    LDP1    RVO$,,AUTO
         0 000504   100001 236100                    LDQ     1,,PR1
         0 000505   000000 473400 xsym               LDP3    GLOBAL$
         0 000506   300026 756100                    STQ     22,,PR3
PL6.E3A0      #001=ZIM$EDIS File=ZIM$CONDIS.:ZIC0TSI                             FRI 09/05/97 12:38 Page:26

      145     3599            %DBCAL(NAME=ZIO$DBBCC,ALT=UNL2);

   3603  0 000507   000000 631400 1                  EPPR1   0
         0 000510   000000 701000 xent               TSX1    ZIO$DBBCC
         0 000511   000523 702000 0                  TSX2    UNL2

   3604  0 000512   000000 470400 xsym               LDP0    GLOBAL$
         0 000513   000006 235100                    LDA     6,,PR0
         0 000514   000523 601000 0                  TNZ     UNL2

      146     3615    1       GLOBAL.PARAN.IO.BUF$=RVO$->RECVAR.BADDR$;

   3615  0 000515   200020 471500                    LDP1    RVO$,,AUTO
         0 000516   100001 236100                    LDQ     1,,PR1
         0 000517   000022 756100                    STQ     18,,PR0

      147     3616    1       CALL ZIO$UNLOCK ALTRET(UNL2);

   3616  0 000520   000000 631400 1                  EPPR1   0
         0 000521   000000 701000 xent               TSX1    ZIO$UNLOCK
         0 000522   000523 702000 0                  TSX2    UNL2

      148     3617    1   UNL2: RVT$=PINCRW(DBCB$,DBCB.PCB.RVT);

   3617  0 000523   200011 470500       UNL2         LDP0    DBCB$,,AUTO
         0 000524   000512 220100                    LDX0    330,,PR0
         0 000525   000000 636010                    EAQ     0,X0
         0 000526   200011 036100                    ADLQ    DBCB$,,AUTO
         0 000527   200017 756100                    STQ     RVT$,,AUTO

      149     3618    1       GLOBAL.PARAN.CALLPM0$=RVT$->RECVAR.BADDR$;

   3618  0 000530   200017 471500                    LDP1    RVT$,,AUTO
         0 000531   100001 236100                    LDQ     1,,PR1
         0 000532   000000 473400 xsym               LDP3    GLOBAL$
         0 000533   300026 756100                    STQ     22,,PR3
PL6.E3A0      #001=ZIM$EDIS File=ZIM$CONDIS.:ZIC0TSI                             FRI 09/05/97 12:38 Page:27

      150     3619            %DBCAL(NAME=ZIO$DBBCC,ALT=UNL3);

   3623  0 000534   000000 631400 1                  EPPR1   0
         0 000535   000000 701000 xent               TSX1    ZIO$DBBCC
         0 000536   000550 702000 0                  TSX2    UNL3

   3624  0 000537   000000 470400 xsym               LDP0    GLOBAL$
         0 000540   000006 235100                    LDA     6,,PR0
         0 000541   000550 601000 0                  TNZ     UNL3

      151     3635    1       GLOBAL.PARAN.IO.BUF$=RVT$->RECVAR.BADDR$;

   3635  0 000542   200017 471500                    LDP1    RVT$,,AUTO
         0 000543   100001 236100                    LDQ     1,,PR1
         0 000544   000022 756100                    STQ     18,,PR0

      152     3636    1       CALL ZIO$UNLOCK ALTRET(UNL3);

   3636  0 000545   000000 631400 1                  EPPR1   0
         0 000546   000000 701000 xent               TSX1    ZIO$UNLOCK
         0 000547   000550 702000 0                  TSX2    UNL3

      153     3637    1   UNL3: RVPA$=PINCRW(DBCB$,DBCB.PCB.RVPA);

   3637  0 000550   200011 470500       UNL3         LDP0    DBCB$,,AUTO
         0 000551   000513 220100                    LDX0    331,,PR0
         0 000552   000000 636010                    EAQ     0,X0
         0 000553   200011 036100                    ADLQ    DBCB$,,AUTO
         0 000554   200021 756100                    STQ     RVPA$,,AUTO

      154     3638    1       GLOBAL.PARAN.CALLPM0$=RVPA$->RECVAR.BADDR$;

   3638  0 000555   200021 471500                    LDP1    RVPA$,,AUTO
         0 000556   100001 236100                    LDQ     1,,PR1
         0 000557   000000 473400 xsym               LDP3    GLOBAL$
         0 000560   300026 756100                    STQ     22,,PR3
PL6.E3A0      #001=ZIM$EDIS File=ZIM$CONDIS.:ZIC0TSI                             FRI 09/05/97 12:38 Page:28

      155     3639            %DBCAL(NAME=ZIO$DBBCC,ALT=UNL4);

   3643  0 000561   000000 631400 1                  EPPR1   0
         0 000562   000000 701000 xent               TSX1    ZIO$DBBCC
         0 000563   000575 702000 0                  TSX2    UNL4

   3644  0 000564   000000 470400 xsym               LDP0    GLOBAL$
         0 000565   000006 235100                    LDA     6,,PR0
         0 000566   000575 601000 0                  TNZ     UNL4

      156     3655    1       GLOBAL.PARAN.IO.BUF$=RVPA$->RECVAR.BADDR$;

   3655  0 000567   200021 471500                    LDP1    RVPA$,,AUTO
         0 000570   100001 236100                    LDQ     1,,PR1
         0 000571   000022 756100                    STQ     18,,PR0

      157     3656    1       CALL ZIO$UNLOCK ALTRET(UNL4);

   3656  0 000572   000000 631400 1                  EPPR1   0
         0 000573   000000 701000 xent               TSX1    ZIO$UNLOCK
         0 000574   000575 702000 0                  TSX2    UNL4

      158     3657    1   UNL4: GLOBAL.RET.ERROR# = ERROR;

   3657  0 000575   000000 470400 xsym  UNL4         LDP0    GLOBAL$
         0 000576   200023 235100                    LDA     ERROR,,AUTO
         0 000577   000006 755100                    STA     6,,PR0

      159     3658    1       GOTO ALTR;

   3658  0 000600   000617 710000 0                  TRA     GCER5

      160     3659    1   ER_ARGER: IF NOT ERR_SET THEN

   3659  0 000601   200022 234100       ER_ARGER     SZN     ERR_SET,,AUTO
         0 000602   000605 604000 0                  TMI     s:3661
PL6.E3A0      #001=ZIM$EDIS File=ZIM$CONDIS.:ZIC0TSI                             FRI 09/05/97 12:38 Page:29

      161     3660    1           ERROR = ERR#CM#ARGER;

   3660  0 000603   210562 235007                    LDA     70002,DL
         0 000604   200023 755100                    STA     ERROR,,AUTO

      162     3661    1       GOTO ALTR;

   3661  0 000605   000617 710000 0                  TRA     GCER5

      163     3662    1   ER_CRIT: ERROR=EXC#CRIT;

   3662  0 000606   006344 235007       ER_CRIT      LDA     3300,DL
         0 000607   200023 755100                    STA     ERROR,,AUTO

      164     3663    1       GOTO ALTR;

   3663  0 000610   000617 710000 0                  TRA     GCER5

      165     3664    1   ER_IRSN: ERROR=EXC#IRSN;

   3664  0 000611   010150 235007       ER_IRSN      LDA     4200,DL
         0 000612   200023 755100                    STA     ERROR,,AUTO

      166     3665    1       GOTO ALTR;

   3665  0 000613   000617 710000 0                  TRA     GCER5

      167     3666    1   ER_LR: ERROR=EXC#LR;

   3666  0 000614   257764 236007       ER_LR        LDQ     90100,DL
         0 000615   200023 756100                    STQ     ERROR,,AUTO

      168     3667    1       GOTO ALTR;

   3667  0 000616   000617 710000 0                  TRA     GCER5

PL6.E3A0      #001=ZIM$EDIS File=ZIM$CONDIS.:ZIC0TSI                             FRI 09/05/97 12:38 Page:30
   3659  0 000617                       GCER5        null
   3659  0 000617                       LKER3        null
   3659  0 000617                       ULER3        null
   3659  0 000617                       ALTR         null
      169     3668    1   GCER5: ;
      170     3669    1   LKER3: ;
      171     3670    1   ULER3: ;
      172     3671    1   ALTR: ;
      173     3672    1   ER_MSET: ;

   3672  0 000617                       ER_MSET      null
      174     3673            %DBALT;

   3674  0 000617   000000 470400 xsym               LDP0    GLOBAL$
         0 000620   000006 235100                    LDA     6,,PR0
         0 000621   000630 601000 0                  TNZ     s:3682

   3676  0 000622   000010 450100                    STZ     8,,PR0

   3677  0 000623   000012 450100                    STZ     10,,PR0

   3678  0 000624   000013 450100                    STZ     11,,PR0

   3679  0 000625   000011 450100                    STZ     9,,PR0

   3680  0 000626   200023 236100                    LDQ     ERROR,,AUTO
         0 000627   000006 756100                    STQ     6,,PR0

   3682  0 000630   000006 235100                    LDA     6,,PR0
         0 000631   303240 115007                    CMPA    100000,DL
         0 000632   000634 603000 0                  TRC     s:3685

   3683  0 000633   000000 702200 xent               TSX2  ! X66_AALT

   3685  0 000634   000000 631400 1                  EPPR1   0
         0 000635   000000 701000 xent               TSX1    ZIB$ERR
         0 000636   000000 011000                    NOP     0
PL6.E3A0      #001=ZIM$EDIS File=ZIM$CONDIS.:ZIC0TSI                             FRI 09/05/97 12:38 Page:31

      175     3687    1   END ZIM$EDIS;

   3687  0 000637   000000 702200 xent               TSX2  ! X66_ARET

(unnamed)
 Sect OctLoc
   1     000   000000 000000   000003 000000   000000 006000                    ............
      176     3688        %EOD;

PL6.E3A0      #001=ZIM$EDIS File=ZIM$CONDIS.:ZIC0TSI                             FRI 09/05/97 12:38 Page:32
--  Include file information  --

   ZI$DBCSV_C.:ZIC0TOU  is referenced.
   ZI_ERRORS_C.:ZIC0TOU  is referenced.
   ZI$USER.:ZIC0TOU  is referenced.
   ZI$DBCB.:ZIC0TOU  is referenced.
   ZI$SSS.:ZIC0TOU  cannot be made into a system file and is referenced.
   ZI$GLOBAL.:ZIC0TOU  is referenced.
   B$JIT_C.:E05TOU  was found in the system file and is never referenced.
   CP_6_C.:E05TOU  was found in the system file and is never referenced.
      No diagnostics issued in procedure ZIM$EDIS.

   Procedure ZIM$EDIS requires 416 words for executable code.
   Procedure ZIM$EDIS requires 26 words of local(AUTO) storage.
PL6.E3A0      #001=ZIM$EDIS File=ZIM$CONDIS.:ZIC0TSI                             FRI 09/05/97 12:38 Page:33
          *** CROSS REFERENCE LISTING ***
**     DENOTES     IDENTIFIER DEFINITION
<<                 IDENTIFIER'S VALUE SET
>>                 IDENTIFIER'S VALUE USED
<>                 IDENTIFIER SET AND/OR USED
--                 IDENTIFIER REFERENCED
PL6.E3A0      #001=ZIM$EDIS File=ZIM$CONDIS.:ZIC0TSI                             FRI 09/05/97 12:38 Page:34
          MINI XREF LISTING

AC.ABAS
      1394**DCL      3518>>ASSIGN
AC.DEF.ANL
      1391**DCL      1462--IMP-SIZ
AC.DEF.FORG
      1378**DCL      1382--REDEF
AC$
      1374**DCL      1375--IMP-PTR
ADSC.N
       811**DCL      3512>>ASSIGN
ADSC.OFFSET
       805**DCL      3514>>ASSIGN
ADSC$
      3449**DCL       803--IMP-PTR  3511<<ASSIGN   3512>>ASSIGN   3514>>ASSIGN
ALTR
      3659**LABEL    3658--GOTO     3661--GOTO     3663--GOTO     3665--GOTO     3667--GOTO
DBCB.CRUN.RC
      2704**DCL      3491>>IF
DBCB.IOWS.CFCT
      2673**DCL      2674--REDEF
DBCB.IOWS.DBKF.RQ
      2616**DCL      2617--REDEF
DBCB.IOWS.DBKR
      2613**DCL      2614--REDEF
DBCB.IOWS.NOBF
      2675**DCL      2676--REDEF
DBCB.IOWS.SPND
      2601**DCL      2602--REDEF
DBCB.PCB.PRRC
      2460**DCL      3523<<ASSIGN
DBCB.PCB.PRSC
      2462**DCL      3493<<ASSIGN
PL6.E3A0      #001=ZIM$EDIS File=ZIM$CONDIS.:ZIC0TSI                             FRI 09/05/97 12:38 Page:35
DBCB.PCB.RVI
      2449**DCL      3486>>ASSIGN   3500>>ASSIGN   3543>>ASSIGN   3548>>ASSIGN   3565>>ASSIGN   3566<<ASSIGN
      3577>>ASSIGN
DBCB.PCB.RVO
      2451**DCL      3540>>ASSIGN   3541<<ASSIGN   3566>>ASSIGN   3567<<ASSIGN   3597>>ASSIGN
DBCB.PCB.RVPA
      2455**DCL      3637>>ASSIGN
DBCB.PCB.RVT
      2453**DCL      3541>>ASSIGN   3542<<ASSIGN   3549>>ASSIGN   3617>>ASSIGN
DBCB.SWS.RDYCW
      2339**DCL      2340--REDEF
DBCB.SWS.TEMP.PTR1$
      2373**DCL      2374--REDEF    2375--REDEF
DBCB.SWS.TEMP.PTR2$
      2376**DCL      2377--REDEF
DBCB$
      2244**DCL      2245--IMP-PTR  3461<<ASSIGN   3486>>ASSIGN   3486>>ASSIGN   3491>>IF       3493>>ASSIGN
      3494>>ASSIGN   3497>>ASSIGN   3500>>ASSIGN   3500>>ASSIGN   3523>>ASSIGN   3540>>ASSIGN   3541>>ASSIGN
      3541>>ASSIGN   3542>>ASSIGN   3543>>ASSIGN   3543>>ASSIGN   3548>>ASSIGN   3548>>ASSIGN   3549>>ASSIGN
      3549>>ASSIGN   3565>>ASSIGN   3566>>ASSIGN   3566>>ASSIGN   3567>>ASSIGN   3577>>ASSIGN   3577>>ASSIGN
      3597>>ASSIGN   3597>>ASSIGN   3617>>ASSIGN   3617>>ASSIGN   3637>>ASSIGN   3637>>ASSIGN
DSER1
      3570**LABEL    3504--CALLALT  3547--CALLALT
ERROR
      3456**DCL      3569<<ASSIGN   3576<<ASSIGN   3657>>ASSIGN   3660<<ASSIGN   3662<<ASSIGN   3664<<ASSIGN
      3666<<ASSIGN   3680>>ASSIGN
ERR_SET
      3455**DCL      3460<<ASSIGN   3570<<ASSIGN   3659>>IF
ER_ARGER
      3659**LABEL    3481--GOTO     3489--GOTO
ER_CRIT
      3662**LABEL    3492--GOTO
ER_IRSN
      3664**LABEL    3483--GOTO
ER_LR
      3666**LABEL    3496--GOTO     3499--GOTO
PL6.E3A0      #001=ZIM$EDIS File=ZIM$CONDIS.:ZIC0TSI                             FRI 09/05/97 12:38 Page:36
ER_RPM
      3569**LABEL    3546--GOTO
GCER5
      3659**LABEL    3467--CALLALT  3470--GOTO
GLOBAL.ACTIVE.DBCB$
       501**DCL       502--REDEF    3461>>ASSIGN
GLOBAL.ACTIVE.SSS$
       497**DCL       498--REDEF    3462>>ASSIGN
GLOBAL.KEY
       705**DCL       708--REDEF
GLOBAL.PARAN.CALLPM0$
       557**DCL      3578<<ASSIGN   3598<<ASSIGN   3618<<ASSIGN   3638<<ASSIGN
GLOBAL.PARAN.IO.BUF$
       546**DCL      3501<<ASSIGN   3561<<ASSIGN   3595<<ASSIGN   3615<<ASSIGN   3635<<ASSIGN   3655<<ASSIGN
GLOBAL.PARAN.TRACE.MODE
       580**DCL       587--REDEF
GLOBAL.PRINTBUF.BUFFER
       739**DCL       740--REDEF     741--REDEF     742--REDEF
GLOBAL.PRINTBUF.ERR.V
       744**DCL       747--REDEF     748--REDEF     749--REDEF
GLOBAL.RET.AC#
       517**DCL      3676<<ASSIGN
GLOBAL.RET.ERROR#
       515**DCL      3468>>IF       3529>>IF       3534<<ASSIGN   3576>>ASSIGN   3584>>IF       3604>>IF
      3624>>IF       3644>>IF       3657<<ASSIGN   3674>>IF       3680<<ASSIGN   3682>>IF
GLOBAL.RET.FR#
       518**DCL      3679<<ASSIGN
GLOBAL.RET.RC#
       520**DCL      3678<<ASSIGN
GLOBAL.RET.SC#
       519**DCL      3677<<ASSIGN
GLOBAL$
       799**DCL       495--IMP-PTR  3461>>ASSIGN   3462>>ASSIGN   3468>>IF       3501>>ASSIGN   3529>>IF
      3534>>ASSIGN   3561>>ASSIGN   3576>>ASSIGN   3578>>ASSIGN   3584>>IF       3595>>ASSIGN   3598>>ASSIGN
      3604>>IF       3615>>ASSIGN   3618>>ASSIGN   3624>>IF       3635>>ASSIGN   3638>>ASSIGN   3644>>IF
      3655>>ASSIGN   3657>>ASSIGN   3674>>IF       3676>>ASSIGN   3677>>ASSIGN   3678>>ASSIGN   3679>>ASSIGN
PL6.E3A0      #001=ZIM$EDIS File=ZIM$CONDIS.:ZIC0TSI                             FRI 09/05/97 12:38 Page:37
      3680>>ASSIGN   3682>>IF
GRSER
      3570**LABEL    3506--CALLALT
IPT$DIS_V.RC.RC_OFFSET
      3435**DCL      3484>>ASSIGN
IPT$DIS_V.SC.SC_OFFSET
      3435**DCL      3479>>ASSIGN
LKER3
      3659**LABEL    3502--CALLALT  3505--CALLALT
OA1$
      1365**DCL      1366--IMP-PTR
PER1
      3570**LABEL    3528--CALLALT
PNP
      3540**LABEL    3535--GOTO
RADDR$
      3450**DCL      3510<<ASSIGN   3514>>ASSIGN
RC.DEF.RNL
      1512**DCL      1522--IMP-SIZ
RC.DEF.TYPE
      1499**DCL      3488>>IF
RC.RCWSO
      1520**DCL      3497>>ASSIGN
RC$
      1496**DCL      1497--IMP-PTR  3484<<ASSIGN   3485>>IF       3486<<ASSIGN   3488>>IF       3491>>IF
      3497>>ASSIGN   3506<>CALL
RECVAR.ACPTR
      2799**DCL      3518>>ASSIGN   3557>>ASSIGN
RECVAR.BADDR
      2781**DCL      2784--REDEF
RECVAR.BADDR$
      2784**DCL      3501>>ASSIGN   3561>>ASSIGN   3578>>ASSIGN   3595>>ASSIGN   3598>>ASSIGN   3615>>ASSIGN
      3618>>ASSIGN   3635>>ASSIGN   3638>>ASSIGN   3655>>ASSIGN
RECVAR.DBKEY
      2780**DCL      3554>>IF       3556>>ASSIGN
RECVAR.PA
PL6.E3A0      #001=ZIM$EDIS File=ZIM$CONDIS.:ZIC0TSI                             FRI 09/05/97 12:38 Page:38
      2806**DCL      3559>>ASSIGN
RECVAR.PA.CBRCE
      2807**DCL      3520<<ASSIGN
RECVAR.PA.CBRPA
      2809**DCL      3513<<ASSIGN   3514--ASSIGN   3518<<ASSIGN   3518>>ASSIGN
RECVAR.RADDR
      2785**DCL      2789--REDEF
RECVAR.RADDR$
      2789**DCL      3510>>ASSIGN
RECVAR.RCPTR
      2801**DCL      3486>>ASSIGN
RECVAR.RSPTR
      2798**DCL      3507<<ASSIGN   3544>>ASSIGN
RS.CSPAH
      1562**DCL      3511--ASSIGN
RS.DEF.MEMT
      1535**DCL      3551>>IF
RS.DEF.OSM
      1540**DCL      3545>>IF
RS.HPOS
      1580**DCL      3553<>CALL
RS.NPOS
      1553**DCL      1562--REDEF    3550<>CALL
RS.PPOS
      1571**DCL      3552<>CALL
RS$
      1527**DCL      1528--IMP-PTR  3506<>CALL     3507>>ASSIGN   3511>>ASSIGN   3544<<ASSIGN   3545>>IF
      3550>>CALL     3551>>IF       3552>>CALL     3553>>CALL
RVA.RVE.EO
      2966**DCL      2967--REDEF    3479>>ASSIGN   3484>>ASSIGN
RVA$
      2959**DCL      2960--IMP-PTR  3479>>ASSIGN   3484>>ASSIGN
RVI$
      3451**DCL      3500<<ASSIGN   3501>>ASSIGN   3507>>ASSIGN   3510>>ASSIGN   3513>>ASSIGN   3514>>ASSIGN
      3518>>ASSIGN   3518>>ASSIGN   3518>>ASSIGN   3520>>ASSIGN   3543<<ASSIGN   3544>>ASSIGN   3548<<ASSIGN
      3550<>CALL     3552<>CALL     3553<>CALL     3554>>IF       3561>>ASSIGN   3577<<ASSIGN   3578>>ASSIGN
PL6.E3A0      #001=ZIM$EDIS File=ZIM$CONDIS.:ZIC0TSI                             FRI 09/05/97 12:38 Page:39
      3595>>ASSIGN
RVO$
      3453**DCL      3597<<ASSIGN   3598>>ASSIGN   3615>>ASSIGN
RVPA$
      3454**DCL      3637<<ASSIGN   3638>>ASSIGN   3655>>ASSIGN
RVT$
      3452**DCL      3549<<ASSIGN   3556>>ASSIGN   3557>>ASSIGN   3559>>ASSIGN   3617<<ASSIGN   3618>>ASSIGN
      3635>>ASSIGN
RWS.KEY.LENGTH
      2774**DCL      2775--IMP-SIZ
RWS.PRIV.PD
      2768**DCL      3498>>IF
RWS$
      2759**DCL      2760--IMP-PTR  3497<<ASSIGN   3498>>IF
SC.DEF.LG
      1480**DCL      3516>>IF
SC.DEF.SETM
      1473**DCL      3508>>IF       3551>>IF       3558>>IF
SC.DEF.SNL
      1482**DCL      1487--IMP-SIZ
SC.DEF.SNSS
      1476**DCL      3482>>IF
SC.DEF.TYPE
      1472**DCL      3480>>IF
SC.SCWSO
      1483**DCL      3494>>ASSIGN
SC$
      1469**DCL      1470--IMP-PTR  3479<<ASSIGN   3480>>IF       3482>>IF       3493>>ASSIGN   3494>>ASSIGN
      3506<>CALL     3508>>IF       3516>>IF       3551>>IF       3558>>IF
SETL
      3458**DCL      3459--IMP-SIZ  3512<<ASSIGN   3514>>ASSIGN   3514>>ASSIGN   3514>>ASSIGN
SETP
      3459**DCL      3514<<ASSIGN   3514>>ASSIGN
SETWS.AC
      2733**DCL      3557<<ASSIGN
SETWS.CURR
PL6.E3A0      #001=ZIM$EDIS File=ZIM$CONDIS.:ZIC0TSI                             FRI 09/05/97 12:38 Page:40
      2734**DCL      3554>>IF       3556<<ASSIGN
SETWS.KEY.LENGTH
      2736**DCL      2737--IMP-SIZ
SETWS.PRIV.PSD
      2730**DCL      3495>>IF
SETWS$
      2722**DCL      2723--IMP-PTR  2741--IMP-PTR  3494<<ASSIGN   3495>>IF       3554>>IF       3556>>ASSIGN
      3557>>ASSIGN   3559>>ASSIGN
SETWSPA.PA
      2753**DCL      3559<<ASSIGN
SSS$
       821**DCL      3462<<ASSIGN   3479>>ASSIGN   3484>>ASSIGN   3485>>IF       3486>>ASSIGN   3491>>IF
      3493>>ASSIGN   3507>>ASSIGN   3518>>ASSIGN   3544>>ASSIGN
TEMP
      3457**DCL      3540<<ASSIGN   3542>>ASSIGN   3565<<ASSIGN   3567>>ASSIGN
ULER3
      3659**LABEL    3562--CALLALT
UNL1
      3597**LABEL    3583--CALLALT  3586--GOTO     3596--CALLALT
UNL2
      3617**LABEL    3603--CALLALT  3606--GOTO     3616--CALLALT
UNL3
      3637**LABEL    3623--CALLALT  3626--GOTO     3636--CALLALT
UNL4
      3657**LABEL    3643--CALLALT  3646--GOTO     3656--CALLALT
VLP$
      3448**DCL      3435--IMP-PTR  3479>>ASSIGN   3484>>ASSIGN
ZIB$CLRRECOVER
      3447**DCL-ENT  3564--CALL     3575--CALL
ZIB$ERR
       800**DCL-ENT  3685--CALL
ZIB$FPTRECOVER
      3446**DCL-ENT  3504--CALL
ZIG$DBPCR
      3437**DCL-ENT  3467--CALL
ZIG$DBPFP
PL6.E3A0      #001=ZIM$EDIS File=ZIM$CONDIS.:ZIC0TSI                             FRI 09/05/97 12:38 Page:41
      3445**DCL-ENT  3528--CALL
ZIM$GETRS
      3442**DCL-ENT  3506--CALL
ZIM$JSET
      3443**DCL-ENT  3550--CALL     3552--CALL     3553--CALL
ZIM$PDIS
      3444**DCL-ENT  3547--CALL
ZIO$DBBCC
      3438**DCL-ENT  3583--CALL     3603--CALL     3623--CALL     3643--CALL
ZIO$LOCK
      3439**DCL-ENT  3502--CALL
ZIO$MODIFY
      3441**DCL-ENT  3505--CALL
ZIO$UNLOCK
      3440**DCL-ENT  3562--CALL     3596--CALL     3616--CALL     3636--CALL     3656--CALL

PL6.E3A0      #002=ZIM$PDIS File=ZIM$CONDIS.:ZIC0TSI                             FRI 09/05/97 12:38 Page:42
      177        1        /*T***********************************************************/
      178        2        /*T*                                                         */
      179        3        /*T* Copyright (c) Bull HN Information Systems Inc., 1997    */
      180        4        /*T*                                                         */
      181        5        /*T***********************************************************/
      182        6        ZIM$PDIS: PROC ALTRET
      183        7               AVOID($PR5,$PR6,$PR7);
      184        8        %INCLUDE ZI$GLOBAL;
      185      494            %GLOBALS;
      186      802        %INCLUDE ZI$DBCB;
      187     1444            %DBCB;
      188     1922            %RECVAR;
      189     1956        %INCLUDE ZI$SSS;
      190     2505            %OA1;
      191     2513            %OA;
      192     2578            %AC;
      193     2673            %SC;
      194     2700            %RS;
      195     2776    1   DCL ZIG$DBADE ENTRY ALTRET;
      196     2777    1   DCL ZIG$DBPFN ENTRY ALTRET;
      197     2778    1   DCL ZIG$DBPNC ENTRY ALTRET;
      198     2779    1   DCL ZIM$JSET ENTRY(3);
      199     2780    1   DCL ZIO$MODIFY ENTRY ALTRET;
      200     2781    1   DCL ZIO$LOCK ENTRY ALTRET;
      201     2782    1   DCL ZIO$UNLOCK ENTRY ALTRET;
      202     2783    1   DCL BEF UBIN(36);
      203     2784    1   DCL AFT UBIN(36);
      204     2785    1   DCL RVI$ PTR;
      205     2786    1   DCL RVO$ PTR;
      206     2787    1   DCL RVT$ PTR;
      207     2788    1   DCL ERROR UBIN(36);
      208     2789    1       DBCB$=GLOBAL.ACTIVE.DBCB$;
      209     2790    1       SSS$=GLOBAL.ACTIVE.SSS$;
      210     2791    1       SC$=PINCRW(SSS$,DBCB.PCB.PRSC);
      211     2792    1       RVI$=PINCRW(DBCB$,DBCB.PCB.RVI);
      212     2793    1       OA$=PINCRW(SSS$,SIZEW(OA1));
      213     2794    1       RS$=PINCRW(SSS$,RVI$->RECVAR.RSPTR);
PL6.E3A0      #002=ZIM$PDIS File=ZIM$CONDIS.:ZIC0TSI                             FRI 09/05/97 12:38 Page:43
      214     2795    1       IF RS.DEF.MEMT=1 AND SC$ ~= PINCRW(SSS$, OA.CLCSC) THEN
      215     2796    2       DO;
      216     2797                %DBCAL(NAME=ZIG$DBADE,ALT=DPAER);
      217     2813    2           GOTO RET;
      218     2814    2           END;
      219     2815    1       DBCB.PCB.PRRC=BITBIN('400000'O);
      220     2816    1       RVT$=PINCRW(DBCB$,DBCB.PCB.RVT);
      221     2817    1       GLOBAL.PARAN.IO.BUF$=RVT$->RECVAR.BADDR$;
      222     2818    1       CALL ZIO$LOCK ALTRET(ER_LOCK);
      223     2819            %DBCAL(NAME=ZIG$DBPFN,EXC=NNP2,ALT=PGER6);
      224     2835        /*       RVI and RVO could change from this call */
      225     2836    1   NNP2: RVO$=PINCRW(DBCB$,DBCB.PCB.RVO);
      226     2837    1       RVI$=PINCRW(DBCB$,DBCB.PCB.RVI);
      227     2838    1       GLOBAL.PARAN.IO.BUF$=RVT$->RECVAR.BADDR$;
      228     2839    1       CALL ZIO$UNLOCK ALTRET(ER_UNLK);
      229     2840    1       AFT=RVO$->RECVAR.DBKEY;
      230     2841    1       GLOBAL.PARAN.IO.BUF$=RVO$->RECVAR.BADDR$;
      231     2842    1       CALL ZIO$MODIFY ALTRET(ER_MOD);
      232     2843    1       BEF=RVT$->RECVAR.DBKEY;
      233     2844    1       GLOBAL.PARAN.IO.BUF$=RVT$->RECVAR.BADDR$;
      234     2845    1       CALL ZIO$MODIFY ALTRET(ER_MOD);
      235     2846    1       IF ~SC.DEF.LG THEN
      236     2847    2       DO;
      237     2848    2           AC$=PINCRW(SSS$,RVI$->RECVAR.ACPTR);
      238     2849    2           BEF=BEF-AC.ABAS;
      239     2850    2           AFT=AFT-AC.ABAS;
      240     2851    2           END;
      241     2852    1       IF SC$~=PINCRW(SSS$,OA.CLCSC) THEN
      242     2853        /*          Not calc set.  Disconnect from next and prior */
      243     2854    2       DO;
      244     2855    2           RS$=PINCRW(SSS$,RVT$->RECVAR.RSPTR);
      245     2856    2           CALL ZIM$JSET(RVT$,RS.NPOS,AFT);
      246     2857    2           RS$=PINCRW(SSS$,RVO$->RECVAR.RSPTR);
      247     2858    2           CALL ZIM$JSET(RVO$,RS.PPOS,BEF);
      248     2859    2           END;
      249     2860    1       ELSE
      250     2861        /*          Disconnect from calc set */
PL6.E3A0      #002=ZIM$PDIS File=ZIM$CONDIS.:ZIC0TSI                             FRI 09/05/97 12:38 Page:44
      251     2862    2       DO;
      252     2863    2           AC$=PINCRW(SSS$,RVT$->RECVAR.ACPTR);
      253     2864    2           CALL ZIM$JSET(RVT$,AC.CLCN,AFT);
      254     2865    2           AC$=PINCRW(SSS$,RVO$->RECVAR.ACPTR);
      255     2866    2           CALL ZIM$JSET(RVO$,AC.CLCP,BEF);
      256     2867    2           END;
      257     2868    1       RETURN;
      258     2869    1   RET: RETURN;
      259     2870    1   PGER6: ;
      260     2871    1   DPAER: ;
      261     2872    1   ER_MOD: ;
      262     2873    1   ER_MSET: ;
      263     2874    1   ER_LOCK: ;
      264     2875    1   ER_UNLK: ;
      265     2876    1   ALTR: ;
      266     2877            %DBALT;
      267     2891    1   END ZIM$PDIS;
      268     2892        %EOD;

PL6.E3A0      #002=ZIM$PDIS File=ZIM$CONDIS.:ZIC0TSI                             FRI 09/05/97 12:38 Page:45
--  Include file information  --

   ZI$SSS.:ZIC0TOU  cannot be made into a system file and is referenced.
   ZI$DBCB.:ZIC0TOU  is referenced.
   ZI$GLOBAL.:ZIC0TOU  is referenced.
   B$JIT_C.:E05TOU  was found in the system file and is never referenced.
   CP_6_C.:E05TOU  was found in the system file and is never referenced.
      No diagnostics issued in procedure ZIM$PDIS.

   Procedure ZIM$PDIS requires 200 words for executable code.
   Procedure ZIM$PDIS requires 20 words of local(AUTO) storage.

PL6.E3A0      #002=ZIM$PDIS File=ZIM$CONDIS.:ZIC0TSI                             FRI 09/05/97 12:38 Page:46

 Object Unit name= ZIM$PDIS                                   File name= ZIM$CONDIS.:ZIC0TOU
 UTS= SEP 05 '97 12:38:20.20 FRI                              Compiler= PL-6/E31         Sev=      00
 SharedLib= :SHARED_SYSTEM                                    Alt SharedLib=


    ****  Control sections  ****

 Sect   Type Bound  Init  Size OctSiz  Section name(segment info)
    0   Proc  even  none   200    310  ZIM$PDIS
    1  RoData even  none     3      3  ZIM$PDIS

    ****  Entry defs  ****

                              Check   Calling
                             calling  sequence
  Sect OctLoc Primary Altret sequence   type   Parms  Name
     0      0   yes    yes     yes      XStd       0  ZIM$PDIS

  ****  Entry refs  ****

         Check        Calling
        calling       sequence
Altret sequence SRef   type   Args  Name
 yes     yes           XStd      0 ZIG$DBADE
 yes     yes           XStd      0 ZIO$LOCK
 yes     yes           XStd      0 ZIG$DBPFN
 yes     yes           XStd      0 ZIO$MODIFY
         yes           XStd      0 ZIB$ERR
 yes     yes           XStd      0 ZIO$UNLOCK
         yes           XStd      3 ZIM$JSET
                       nStd      0 X66_AUTO_0
                       nStd      0 X66_ARET
                       nStd      0 X66_AALT
PL6.E3A0      #002=ZIM$PDIS File=ZIM$CONDIS.:ZIC0TSI                             FRI 09/05/97 12:38 Page:47

  ****  Data refs  ****

  Flags:  r = read only, s = secondary
Flgs Name                             Flgs Name                             Flgs Name
r    GLOBAL$

  ****  Segment refs  ****

  Flags:  r = read only, s = secondary
Flgs Name                             Flgs Name                             Flgs Name
     NULLSID
PL6.E3A0      #002=ZIM$PDIS File=ZIM$CONDIS.:ZIC0TSI                             FRI 09/05/97 12:38 Page:48


      177        1        /*T***********************************************************/
      178        2        /*T*                                                         */
      179        3        /*T* Copyright (c) Bull HN Information Systems Inc., 1997    */
      180        4        /*T*                                                         */
      181        5        /*T***********************************************************/
      182        6        ZIM$PDIS: PROC ALTRET

      6  0 000000   000000 700200 xent  ZIM$PDIS     TSX0  ! X66_AUTO_0
         0 000001   000024 000000                    ZERO    20,0

      183        7               AVOID($PR5,$PR6,$PR7);
      184        8        %INCLUDE ZI$GLOBAL;
      185      494            %GLOBALS;
      186      802        %INCLUDE ZI$DBCB;
      187     1444            %DBCB;
      188     1922            %RECVAR;
      189     1956        %INCLUDE ZI$SSS;
      190     2505            %OA1;
      191     2513            %OA;
      192     2578            %AC;
      193     2673            %SC;
      194     2700            %RS;
      195     2776    1   DCL ZIG$DBADE ENTRY ALTRET;
      196     2777    1   DCL ZIG$DBPFN ENTRY ALTRET;
      197     2778    1   DCL ZIG$DBPNC ENTRY ALTRET;
      198     2779    1   DCL ZIM$JSET ENTRY(3);
      199     2780    1   DCL ZIO$MODIFY ENTRY ALTRET;
      200     2781    1   DCL ZIO$LOCK ENTRY ALTRET;
      201     2782    1   DCL ZIO$UNLOCK ENTRY ALTRET;
      202     2783    1   DCL BEF UBIN(36);
      203     2784    1   DCL AFT UBIN(36);
      204     2785    1   DCL RVI$ PTR;
      205     2786    1   DCL RVO$ PTR;
      206     2787    1   DCL RVT$ PTR;
      207     2788    1   DCL ERROR UBIN(36);
      208     2789    1       DBCB$=GLOBAL.ACTIVE.DBCB$;
PL6.E3A0      #002=ZIM$PDIS File=ZIM$CONDIS.:ZIC0TSI                             FRI 09/05/97 12:38 Page:49

   2789  0 000002   000000 470400 xsym               LDP0    GLOBAL$
         0 000003   000001 236100                    LDQ     1,,PR0
         0 000004   200003 756100                    STQ     DBCB$,,AUTO

      209     2790    1       SSS$=GLOBAL.ACTIVE.SSS$;

   2790  0 000005   000000 236100                    LDQ     0,,PR0
         0 000006   200004 756100                    STQ     SSS$,,AUTO

      210     2791    1       SC$=PINCRW(SSS$,DBCB.PCB.PRSC);

   2791  0 000007   200003 471500                    LDP1    DBCB$,,AUTO
         0 000010   100520 220100                    LDX0    336,,PR1
         0 000011   000000 636010                    EAQ     0,X0
         0 000012   200004 036100                    ADLQ    SSS$,,AUTO
         0 000013   200010 756100                    STQ     SC$,,AUTO

      211     2792    1       RVI$=PINCRW(DBCB$,DBCB.PCB.RVI);

   2792  0 000014   100510 221100                    LDX1    328,,PR1
         0 000015   000000 636011                    EAQ     0,X1
         0 000016   200003 036100                    ADLQ    DBCB$,,AUTO
         0 000017   200014 756100                    STQ     RVI$,,AUTO

      212     2793    1       OA$=PINCRW(SSS$,SIZEW(OA1));

   2793  0 000020   200004 236100                    LDQ     SSS$,,AUTO
         0 000021   000001 036003                    ADLQ    1,DU
         0 000022   200006 756100                    STQ     OA$,,AUTO

      213     2794    1       RS$=PINCRW(SSS$,RVI$->RECVAR.RSPTR);

   2794  0 000023   200014 473500                    LDP3    RVI$,,AUTO
         0 000024   300004 722100                    LXL2    4,,PR3
         0 000025   000000 636012                    EAQ     0,X2
         0 000026   200004 036100                    ADLQ    SSS$,,AUTO
PL6.E3A0      #002=ZIM$PDIS File=ZIM$CONDIS.:ZIC0TSI                             FRI 09/05/97 12:38 Page:50
         0 000027   200011 756100                    STQ     RS$,,AUTO

      214     2795    1       IF RS.DEF.MEMT=1 AND SC$ ~= PINCRW(SSS$, OA.CLCSC) THEN

   2795  0 000030   200011 474500                    LDP4    RS$,,AUTO
         0 000031   400000 236100                    LDQ     0,,PR4
         0 000032   000007 376003                    ANQ     7,DU
         0 000033   000001 116003                    CMPQ    1,DU
         0 000034   000052 601000 0                  TNZ     s:2815
         0 000035   200006 470500                    LDP0    OA$,,AUTO
         0 000036   000003 223100                    LDX3    3,,PR0
         0 000037   000000 636013                    EAQ     0,X3
         0 000040   200004 036100                    ADLQ    SSS$,,AUTO
         0 000041   200010 116100                    CMPQ    SC$,,AUTO
         0 000042   000052 600000 0                  TZE     s:2815

      215     2796    2       DO;

      216     2797                %DBCAL(NAME=ZIG$DBADE,ALT=DPAER);

   2801  0 000043   000001 631400 1                  EPPR1   1
         0 000044   000000 701000 xent               TSX1    ZIG$DBADE
         0 000045   000267 702000 0                  TSX2    PGER6

   2802  0 000046   000000 470400 xsym               LDP0    GLOBAL$
         0 000047   000006 235100                    LDA     6,,PR0
         0 000050   000267 601000 0                  TNZ     PGER6

      217     2813    2           GOTO RET;

   2813  0 000051   000266 710000 0                  TRA     RET

      218     2814    2           END;
      219     2815    1       DBCB.PCB.PRRC=BITBIN('400000'O);

   2815  0 000052   400000 223003                    LDX3    -131072,DU
         0 000053   100517 743100                    STX3    335,,PR1
PL6.E3A0      #002=ZIM$PDIS File=ZIM$CONDIS.:ZIC0TSI                             FRI 09/05/97 12:38 Page:51

      220     2816    1       RVT$=PINCRW(DBCB$,DBCB.PCB.RVT);

   2816  0 000054   100512 222100                    LDX2    330,,PR1
         0 000055   000000 636012                    EAQ     0,X2
         0 000056   200003 036100                    ADLQ    DBCB$,,AUTO
         0 000057   200016 756100                    STQ     RVT$,,AUTO

      221     2817    1       GLOBAL.PARAN.IO.BUF$=RVT$->RECVAR.BADDR$;

   2817  0 000060   200016 470500                    LDP0    RVT$,,AUTO
         0 000061   000001 236100                    LDQ     1,,PR0
         0 000062   000000 470400 xsym               LDP0    GLOBAL$
         0 000063   000022 756100                    STQ     18,,PR0

      222     2818    1       CALL ZIO$LOCK ALTRET(ER_LOCK);

   2818  0 000064   000001 631400 1                  EPPR1   1
         0 000065   000000 701000 xent               TSX1    ZIO$LOCK
         0 000066   000267 702000 0                  TSX2    PGER6

      223     2819            %DBCAL(NAME=ZIG$DBPFN,EXC=NNP2,ALT=PGER6);

   2823  0 000067   000001 631400 1                  EPPR1   1
         0 000070   000000 701000 xent               TSX1    ZIG$DBPFN
         0 000071   000267 702000 0                  TSX2    PGER6

   2824  0 000072   000000 470400 xsym               LDP0    GLOBAL$
         0 000073   000006 235100                    LDA     6,,PR0
         0 000074   000077 600000 0                  TZE     NNP2

   2829  0 000075   000006 450100                    STZ     6,,PR0

   2830  0 000076   000077 710000 0                  TRA     NNP2

      224     2835        /*       RVI and RVO could change from this call */
      225     2836    1   NNP2: RVO$=PINCRW(DBCB$,DBCB.PCB.RVO);
PL6.E3A0      #002=ZIM$PDIS File=ZIM$CONDIS.:ZIC0TSI                             FRI 09/05/97 12:38 Page:52

   2836  0 000077   200003 471500       NNP2         LDP1    DBCB$,,AUTO
         0 000100   100511 220100                    LDX0    329,,PR1
         0 000101   000000 636010                    EAQ     0,X0
         0 000102   200003 036100                    ADLQ    DBCB$,,AUTO
         0 000103   200015 756100                    STQ     RVO$,,AUTO

      226     2837    1       RVI$=PINCRW(DBCB$,DBCB.PCB.RVI);

   2837  0 000104   100510 221100                    LDX1    328,,PR1
         0 000105   000000 636011                    EAQ     0,X1
         0 000106   200003 036100                    ADLQ    DBCB$,,AUTO
         0 000107   200014 756100                    STQ     RVI$,,AUTO

      227     2838    1       GLOBAL.PARAN.IO.BUF$=RVT$->RECVAR.BADDR$;

   2838  0 000110   200016 473500                    LDP3    RVT$,,AUTO
         0 000111   300001 236100                    LDQ     1,,PR3
         0 000112   000022 756100                    STQ     18,,PR0

      228     2839    1       CALL ZIO$UNLOCK ALTRET(ER_UNLK);

   2839  0 000113   000001 631400 1                  EPPR1   1
         0 000114   000000 701000 xent               TSX1    ZIO$UNLOCK
         0 000115   000267 702000 0                  TSX2    PGER6

      229     2840    1       AFT=RVO$->RECVAR.DBKEY;

   2840  0 000116   200015 470500                    LDP0    RVO$,,AUTO
         0 000117   000000 235100                    LDA     0,,PR0
         0 000120   200013 755100                    STA     AFT,,AUTO

      230     2841    1       GLOBAL.PARAN.IO.BUF$=RVO$->RECVAR.BADDR$;

   2841  0 000121   000001 236100                    LDQ     1,,PR0
         0 000122   000000 471400 xsym               LDP1    GLOBAL$
         0 000123   100022 756100                    STQ     18,,PR1
PL6.E3A0      #002=ZIM$PDIS File=ZIM$CONDIS.:ZIC0TSI                             FRI 09/05/97 12:38 Page:53

      231     2842    1       CALL ZIO$MODIFY ALTRET(ER_MOD);

   2842  0 000124   000001 631400 1                  EPPR1   1
         0 000125   000000 701000 xent               TSX1    ZIO$MODIFY
         0 000126   000267 702000 0                  TSX2    PGER6

      232     2843    1       BEF=RVT$->RECVAR.DBKEY;

   2843  0 000127   200016 470500                    LDP0    RVT$,,AUTO
         0 000130   000000 235100                    LDA     0,,PR0
         0 000131   200012 755100                    STA     BEF,,AUTO

      233     2844    1       GLOBAL.PARAN.IO.BUF$=RVT$->RECVAR.BADDR$;

   2844  0 000132   000001 236100                    LDQ     1,,PR0
         0 000133   000000 471400 xsym               LDP1    GLOBAL$
         0 000134   100022 756100                    STQ     18,,PR1

      234     2845    1       CALL ZIO$MODIFY ALTRET(ER_MOD);

   2845  0 000135   000001 631400 1                  EPPR1   1
         0 000136   000000 701000 xent               TSX1    ZIO$MODIFY
         0 000137   000267 702000 0                  TSX2    PGER6

      235     2846    1       IF ~SC.DEF.LG THEN

   2846  0 000140   200010 470500                    LDP0    SC$,,AUTO
         0 000141   000000 236100                    LDQ     0,,PR0
         0 000142   000032 736000                    QLS     26
         0 000143   400000 376003                    ANQ     -131072,DU
         0 000144   400000 676003                    ERQ     -131072,DU
         0 000145   000162 600000 0                  TZE     s:2852

      236     2847    2       DO;

      237     2848    2           AC$=PINCRW(SSS$,RVI$->RECVAR.ACPTR);
PL6.E3A0      #002=ZIM$PDIS File=ZIM$CONDIS.:ZIC0TSI                             FRI 09/05/97 12:38 Page:54

   2848  0 000146   200014 471500                    LDP1    RVI$,,AUTO
         0 000147   100005 220100                    LDX0    5,,PR1
         0 000150   000000 636010                    EAQ     0,X0
         0 000151   200004 036100                    ADLQ    SSS$,,AUTO
         0 000152   200007 756100                    STQ     AC$,,AUTO

      238     2849    2           BEF=BEF-AC.ABAS;

   2849  0 000153   200007 473500                    LDP3    AC$,,AUTO
         0 000154   200012 236100                    LDQ     BEF,,AUTO
         0 000155   300002 136100                    SBLQ    2,,PR3
         0 000156   200012 756100                    STQ     BEF,,AUTO

      239     2850    2           AFT=AFT-AC.ABAS;

   2850  0 000157   200013 236100                    LDQ     AFT,,AUTO
         0 000160   300002 136100                    SBLQ    2,,PR3
         0 000161   200013 756100                    STQ     AFT,,AUTO

      240     2851    2           END;

      241     2852    1       IF SC$~=PINCRW(SSS$,OA.CLCSC) THEN

   2852  0 000162   200006 471500                    LDP1    OA$,,AUTO
         0 000163   100003 220100                    LDX0    3,,PR1
         0 000164   000000 636010                    EAQ     0,X0
         0 000165   200004 036100                    ADLQ    SSS$,,AUTO
         0 000166   200010 116100                    CMPQ    SC$,,AUTO
         0 000167   000227 600000 0                  TZE     s:2863

      242     2853        /*          Not calc set.  Disconnect from next and prior */
      243     2854    2       DO;

      244     2855    2           RS$=PINCRW(SSS$,RVT$->RECVAR.RSPTR);

   2855  0 000170   200016 473500                    LDP3    RVT$,,AUTO
PL6.E3A0      #002=ZIM$PDIS File=ZIM$CONDIS.:ZIC0TSI                             FRI 09/05/97 12:38 Page:55
         0 000171   300004 721100                    LXL1    4,,PR3
         0 000172   000000 636011                    EAQ     0,X1
         0 000173   200004 036100                    ADLQ    SSS$,,AUTO
         0 000174   200011 756100                    STQ     RS$,,AUTO

      245     2856    2           CALL ZIM$JSET(RVT$,RS.NPOS,AFT);

   2856  0 000175   200013 634500                    EPPR4   AFT,,AUTO
         0 000176   200022 454500                    STP4    ERROR+3,,AUTO
         0 000177   000004 036003                    ADLQ    4,DU
         0 000200   200021 756100                    STQ     ERROR+2,,AUTO
         0 000201   200016 630500                    EPPR0   RVT$,,AUTO
         0 000202   200020 450500                    STP0    ERROR+1,,AUTO
         0 000203   200020 630500                    EPPR0   ERROR+1,,AUTO
         0 000204   000002 631400 1                  EPPR1   2
         0 000205   000000 701000 xent               TSX1    ZIM$JSET
         0 000206   000000 011000                    NOP     0

      246     2857    2           RS$=PINCRW(SSS$,RVO$->RECVAR.RSPTR);

   2857  0 000207   200015 470500                    LDP0    RVO$,,AUTO
         0 000210   000004 720100                    LXL0    4,,PR0
         0 000211   000000 636010                    EAQ     0,X0
         0 000212   200004 036100                    ADLQ    SSS$,,AUTO
         0 000213   200011 756100                    STQ     RS$,,AUTO

      247     2858    2           CALL ZIM$JSET(RVO$,RS.PPOS,BEF);

   2858  0 000214   200012 631500                    EPPR1   BEF,,AUTO
         0 000215   200022 451500                    STP1    ERROR+3,,AUTO
         0 000216   000005 036003                    ADLQ    5,DU
         0 000217   200021 756100                    STQ     ERROR+2,,AUTO
         0 000220   200015 633500                    EPPR3   RVO$,,AUTO
         0 000221   200020 453500                    STP3    ERROR+1,,AUTO
         0 000222   200020 630500                    EPPR0   ERROR+1,,AUTO
         0 000223   000002 631400 1                  EPPR1   2
         0 000224   000000 701000 xent               TSX1    ZIM$JSET
PL6.E3A0      #002=ZIM$PDIS File=ZIM$CONDIS.:ZIC0TSI                             FRI 09/05/97 12:38 Page:56
         0 000225   000000 011000                    NOP     0

      248     2859    2           END;

   2859  0 000226   000265 710000 0                  TRA     s:2868

      249     2860    1       ELSE
      250     2861        /*          Disconnect from calc set */
      251     2862    2       DO;

      252     2863    2           AC$=PINCRW(SSS$,RVT$->RECVAR.ACPTR);

   2863  0 000227   200016 473500                    LDP3    RVT$,,AUTO
         0 000230   300005 221100                    LDX1    5,,PR3
         0 000231   000000 636011                    EAQ     0,X1
         0 000232   200004 036100                    ADLQ    SSS$,,AUTO
         0 000233   200007 756100                    STQ     AC$,,AUTO

      253     2864    2           CALL ZIM$JSET(RVT$,AC.CLCN,AFT);

   2864  0 000234   200013 634500                    EPPR4   AFT,,AUTO
         0 000235   200022 454500                    STP4    ERROR+3,,AUTO
         0 000236   000022 036003                    ADLQ    18,DU
         0 000237   200021 756100                    STQ     ERROR+2,,AUTO
         0 000240   200016 630500                    EPPR0   RVT$,,AUTO
         0 000241   200020 450500                    STP0    ERROR+1,,AUTO
         0 000242   200020 630500                    EPPR0   ERROR+1,,AUTO
         0 000243   000002 631400 1                  EPPR1   2
         0 000244   000000 701000 xent               TSX1    ZIM$JSET
         0 000245   000000 011000                    NOP     0

      254     2865    2           AC$=PINCRW(SSS$,RVO$->RECVAR.ACPTR);

   2865  0 000246   200015 470500                    LDP0    RVO$,,AUTO
         0 000247   000005 220100                    LDX0    5,,PR0
         0 000250   000000 636010                    EAQ     0,X0
         0 000251   200004 036100                    ADLQ    SSS$,,AUTO
PL6.E3A0      #002=ZIM$PDIS File=ZIM$CONDIS.:ZIC0TSI                             FRI 09/05/97 12:38 Page:57
         0 000252   200007 756100                    STQ     AC$,,AUTO

      255     2866    2           CALL ZIM$JSET(RVO$,AC.CLCP,BEF);

   2866  0 000253   200012 631500                    EPPR1   BEF,,AUTO
         0 000254   200022 451500                    STP1    ERROR+3,,AUTO
         0 000255   000023 036003                    ADLQ    19,DU
         0 000256   200021 756100                    STQ     ERROR+2,,AUTO
         0 000257   200015 633500                    EPPR3   RVO$,,AUTO
         0 000260   200020 453500                    STP3    ERROR+1,,AUTO
         0 000261   200020 630500                    EPPR0   ERROR+1,,AUTO
         0 000262   000002 631400 1                  EPPR1   2
         0 000263   000000 701000 xent               TSX1    ZIM$JSET
         0 000264   000000 011000                    NOP     0

      256     2867    2           END;

      257     2868    1       RETURN;

   2868  0 000265   000000 702200 xent               TSX2  ! X66_ARET

      258     2869    1   RET: RETURN;

   2869  0 000266   000000 702200 xent  RET          TSX2  ! X66_ARET

   2865  0 000267                       PGER6        null
   2865  0 000267                       DPAER        null
   2865  0 000267                       ER_MOD       null
   2865  0 000267                       ER_MSET      null
   2865  0 000267                       ER_LOCK      null
   2865  0 000267                       ER_UNLK      null
   2865  0 000267                       ALTR         null
      259     2870    1   PGER6: ;
      260     2871    1   DPAER: ;
      261     2872    1   ER_MOD: ;
      262     2873    1   ER_MSET: ;
      263     2874    1   ER_LOCK: ;
PL6.E3A0      #002=ZIM$PDIS File=ZIM$CONDIS.:ZIC0TSI                             FRI 09/05/97 12:38 Page:58
      264     2875    1   ER_UNLK: ;
      265     2876    1   ALTR: ;
      266     2877            %DBALT;

   2878  0 000267   000000 470400 xsym               LDP0    GLOBAL$
         0 000270   000006 235100                    LDA     6,,PR0
         0 000271   000300 601000 0                  TNZ     s:2886

   2880  0 000272   000010 450100                    STZ     8,,PR0

   2881  0 000273   000012 450100                    STZ     10,,PR0

   2882  0 000274   000013 450100                    STZ     11,,PR0

   2883  0 000275   000011 450100                    STZ     9,,PR0

   2884  0 000276   200017 236100                    LDQ     ERROR,,AUTO
         0 000277   000006 756100                    STQ     6,,PR0

   2886  0 000300   000006 235100                    LDA     6,,PR0
         0 000301   303240 115007                    CMPA    100000,DL
         0 000302   000304 603000 0                  TRC     s:2889

   2887  0 000303   000000 702200 xent               TSX2  ! X66_AALT

   2889  0 000304   000001 631400 1                  EPPR1   1
         0 000305   000000 701000 xent               TSX1    ZIB$ERR
         0 000306   000000 011000                    NOP     0

      267     2891    1   END ZIM$PDIS;

   2891  0 000307   000000 702200 xent               TSX2  ! X66_ARET

(unnamed)
 Sect OctLoc
   1     000   000000 006014   000000 000000   000003 000000                    ............
      268     2892        %EOD;
PL6.E3A0      #002=ZIM$PDIS File=ZIM$CONDIS.:ZIC0TSI                             FRI 09/05/97 12:38 Page:59

PL6.E3A0      #002=ZIM$PDIS File=ZIM$CONDIS.:ZIC0TSI                             FRI 09/05/97 12:38 Page:60
--  Include file information  --

   ZI$SSS.:ZIC0TOU  cannot be made into a system file and is referenced.
   ZI$DBCB.:ZIC0TOU  is referenced.
   ZI$GLOBAL.:ZIC0TOU  is referenced.
   B$JIT_C.:E05TOU  was found in the system file and is never referenced.
   CP_6_C.:E05TOU  was found in the system file and is never referenced.
      No diagnostics issued in procedure ZIM$PDIS.

   Procedure ZIM$PDIS requires 200 words for executable code.
   Procedure ZIM$PDIS requires 20 words of local(AUTO) storage.
PL6.E3A0      #002=ZIM$PDIS File=ZIM$CONDIS.:ZIC0TSI                             FRI 09/05/97 12:38 Page:61
          *** CROSS REFERENCE LISTING ***
**     DENOTES     IDENTIFIER DEFINITION
<<                 IDENTIFIER'S VALUE SET
>>                 IDENTIFIER'S VALUE USED
<>                 IDENTIFIER SET AND/OR USED
--                 IDENTIFIER REFERENCED
PL6.E3A0      #002=ZIM$PDIS File=ZIM$CONDIS.:ZIC0TSI                             FRI 09/05/97 12:38 Page:62
          MINI XREF LISTING

AC.ABAS
      2601**DCL      2849>>ASSIGN   2850>>ASSIGN
AC.CLCN
      2641**DCL      2864<>CALL
AC.CLCP
      2650**DCL      2866<>CALL
AC.DEF.ANL
      2598**DCL      2669--IMP-SIZ
AC.DEF.FORG
      2585**DCL      2589--REDEF
AC$
      2581**DCL      2582--IMP-PTR  2848<<ASSIGN   2849>>ASSIGN   2850>>ASSIGN   2863<<ASSIGN   2864>>CALL
      2865<<ASSIGN   2866>>CALL
AFT
      2784**DCL      2840<<ASSIGN   2850<<ASSIGN   2850>>ASSIGN   2856<>CALL     2864<>CALL
BEF
      2783**DCL      2843<<ASSIGN   2849<<ASSIGN   2849>>ASSIGN   2858<>CALL     2866<>CALL
DBCB.IOWS.CFCT
      1874**DCL      1875--REDEF
DBCB.IOWS.DBKF.RQ
      1817**DCL      1818--REDEF
DBCB.IOWS.DBKR
      1814**DCL      1815--REDEF
DBCB.IOWS.NOBF
      1876**DCL      1877--REDEF
DBCB.IOWS.SPND
      1802**DCL      1803--REDEF
DBCB.PCB.PRRC
      1661**DCL      2815<<ASSIGN
DBCB.PCB.PRSC
      1663**DCL      2791>>ASSIGN
DBCB.PCB.RVI
PL6.E3A0      #002=ZIM$PDIS File=ZIM$CONDIS.:ZIC0TSI                             FRI 09/05/97 12:38 Page:63
      1650**DCL      2792>>ASSIGN   2837>>ASSIGN
DBCB.PCB.RVO
      1652**DCL      2836>>ASSIGN
DBCB.PCB.RVT
      1654**DCL      2816>>ASSIGN
DBCB.SWS.RDYCW
      1540**DCL      1541--REDEF
DBCB.SWS.TEMP.PTR1$
      1574**DCL      1575--REDEF    1576--REDEF
DBCB.SWS.TEMP.PTR2$
      1577**DCL      1578--REDEF
DBCB$
      1445**DCL      1446--IMP-PTR  2789<<ASSIGN   2791>>ASSIGN   2792>>ASSIGN   2792>>ASSIGN   2815>>ASSIGN
      2816>>ASSIGN   2816>>ASSIGN   2836>>ASSIGN   2836>>ASSIGN   2837>>ASSIGN   2837>>ASSIGN
DPAER
      2865**LABEL    2801--CALLALT  2804--GOTO
ERROR
      2788**DCL      2884>>ASSIGN
ER_LOCK
      2865**LABEL    2818--CALLALT
ER_MOD
      2865**LABEL    2842--CALLALT  2845--CALLALT
ER_UNLK
      2865**LABEL    2839--CALLALT
GLOBAL.ACTIVE.DBCB$
       501**DCL       502--REDEF    2789>>ASSIGN
GLOBAL.ACTIVE.SSS$
       497**DCL       498--REDEF    2790>>ASSIGN
GLOBAL.KEY
       705**DCL       708--REDEF
GLOBAL.PARAN.IO.BUF$
       546**DCL      2817<<ASSIGN   2838<<ASSIGN   2841<<ASSIGN   2844<<ASSIGN
GLOBAL.PARAN.TRACE.MODE
       580**DCL       587--REDEF
GLOBAL.PRINTBUF.BUFFER
       739**DCL       740--REDEF     741--REDEF     742--REDEF
PL6.E3A0      #002=ZIM$PDIS File=ZIM$CONDIS.:ZIC0TSI                             FRI 09/05/97 12:38 Page:64
GLOBAL.PRINTBUF.ERR.V
       744**DCL       747--REDEF     748--REDEF     749--REDEF
GLOBAL.RET.AC#
       517**DCL      2880<<ASSIGN
GLOBAL.RET.ERROR#
       515**DCL      2802>>IF       2824>>IF       2829<<ASSIGN   2878>>IF       2884<<ASSIGN   2886>>IF
GLOBAL.RET.FR#
       518**DCL      2883<<ASSIGN
GLOBAL.RET.RC#
       520**DCL      2882<<ASSIGN
GLOBAL.RET.SC#
       519**DCL      2881<<ASSIGN
GLOBAL$
       799**DCL       495--IMP-PTR  2789>>ASSIGN   2790>>ASSIGN   2802>>IF       2817>>ASSIGN   2824>>IF
      2829>>ASSIGN   2838>>ASSIGN   2841>>ASSIGN   2844>>ASSIGN   2878>>IF       2880>>ASSIGN   2881>>ASSIGN
      2882>>ASSIGN   2883>>ASSIGN   2884>>ASSIGN   2886>>IF
NNP2
      2836**LABEL    2830--GOTO
OA.CLCSC
      2528**DCL      2795>>IF       2852>>IF
OA.SCNAM.EIS.COUNT
      2538**DCL      2573--IMP-SIZ
OA$
      2516**DCL      2517--IMP-PTR  2793<<ASSIGN   2795>>IF       2852>>IF
OA1
      2508**DCL      2793--ASSIGN
OA1$
      2507**DCL      2508--IMP-PTR
PGER6
      2865**LABEL    2823--CALLALT
RECVAR.ACPTR
      1943**DCL      2848>>ASSIGN   2863>>ASSIGN   2865>>ASSIGN
RECVAR.BADDR
      1925**DCL      1928--REDEF
RECVAR.BADDR$
      1928**DCL      2817>>ASSIGN   2838>>ASSIGN   2841>>ASSIGN   2844>>ASSIGN
PL6.E3A0      #002=ZIM$PDIS File=ZIM$CONDIS.:ZIC0TSI                             FRI 09/05/97 12:38 Page:65
RECVAR.DBKEY
      1924**DCL      2840>>ASSIGN   2843>>ASSIGN
RECVAR.RADDR
      1929**DCL      1933--REDEF
RECVAR.RSPTR
      1942**DCL      2794>>ASSIGN   2855>>ASSIGN   2857>>ASSIGN
RET
      2869**LABEL    2813--GOTO
RS.DEF.MEMT
      2710**DCL      2795>>IF
RS.NPOS
      2728**DCL      2737--REDEF    2856<>CALL
RS.PPOS
      2746**DCL      2858<>CALL
RS$
      2702**DCL      2703--IMP-PTR  2794<<ASSIGN   2795>>IF       2855<<ASSIGN   2856>>CALL     2857<<ASSIGN
      2858>>CALL
RVI$
      2785**DCL      2792<<ASSIGN   2794>>ASSIGN   2837<<ASSIGN   2848>>ASSIGN
RVO$
      2786**DCL      2836<<ASSIGN   2840>>ASSIGN   2841>>ASSIGN   2857>>ASSIGN   2858<>CALL     2865>>ASSIGN
      2866<>CALL
RVT$
      2787**DCL      2816<<ASSIGN   2817>>ASSIGN   2838>>ASSIGN   2843>>ASSIGN   2844>>ASSIGN   2855>>ASSIGN
      2856<>CALL     2863>>ASSIGN   2864<>CALL
SC.DEF.LG
      2687**DCL      2846>>IF
SC.DEF.SNL
      2689**DCL      2694--IMP-SIZ
SC$
      2676**DCL      2677--IMP-PTR  2791<<ASSIGN   2795>>IF       2846>>IF       2852>>IF
SSS$
      1963**DCL      2790<<ASSIGN   2791>>ASSIGN   2793>>ASSIGN   2794>>ASSIGN   2795>>IF       2848>>ASSIGN
      2852>>IF       2855>>ASSIGN   2857>>ASSIGN   2863>>ASSIGN   2865>>ASSIGN
ZIB$ERR
       800**DCL-ENT  2889--CALL
PL6.E3A0      #002=ZIM$PDIS File=ZIM$CONDIS.:ZIC0TSI                             FRI 09/05/97 12:38 Page:66
ZIG$DBADE
      2776**DCL-ENT  2801--CALL
ZIG$DBPFN
      2777**DCL-ENT  2823--CALL
ZIM$JSET
      2779**DCL-ENT  2856--CALL     2858--CALL     2864--CALL     2866--CALL
ZIO$LOCK
      2781**DCL-ENT  2818--CALL
ZIO$MODIFY
      2780**DCL-ENT  2842--CALL     2845--CALL
ZIO$UNLOCK
      2782**DCL-ENT  2839--CALL

PL6.E3A0      #003=ZIM$PCON File=ZIM$CONDIS.:ZIC0TSI                             FRI 09/05/97 12:38 Page:67
      269        1        /*T***********************************************************/
      270        2        /*T*                                                         */
      271        3        /*T* Copyright (c) Bull HN Information Systems Inc., 1997    */
      272        4        /*T*                                                         */
      273        5        /*T***********************************************************/
      274        6        ZIM$PCON: PROC ALTRET
      275        7               AVOID($PR5,$PR6,$PR7);
      276        8        %INCLUDE ZI$GLOBAL;
      277      494            %GLOBALS;
      278      802            %ADSC(STCLASS="BASED(ADSC$)");
      279      814        %INCLUDE ZI$DBCB;
      280     1456            %DBCB;
      281     1934            %RECVAR;
      282     1968        %INCLUDE ZI$SSS;
      283     2517            %OA1;
      284     2525            %OA;
      285     2590            %AC;
      286     2685            %SC;
      287     2712            %RS;
      288     2788        %INCLUDE ZI_ERRORS_C;
      289     3114    1   DCL ZIG$DBACE ENTRY ALTRET;
      290     3115    1   DCL ZIG$DBAIS ENTRY ALTRET;
      291     3116    1   DCL ZIO$MODIFY ENTRY ALTRET;
      292     3117    1   DCL ZIM$JSET ENTRY(3);
      293     3118    1   DCL ERROR UBIN(36);
      294     3119    1   DCL NEW UBIN(36);
      295     3120    1   DCL BEF UBIN(36);
      296     3121    1   DCL AFT UBIN(36);
      297     3122    1   DCL ADSC$ PTR;
      298     3123    1   DCL RADDR$ PTR;
      299     3124    1   DCL RVI$ PTR;
      300     3125    1   DCL RVO$ PTR;
      301     3126    1   DCL RVT$ PTR;
      302     3127    1   DCL SETL UBIN(36);
      303     3128    1   DCL SETP CHAR(SETL) BASED;
      304     3129    1   DCL HEAD UBIN(36);
      305     3130    1   DCL CHEAD REDEF HEAD CHAR(4);
PL6.E3A0      #003=ZIM$PCON File=ZIM$CONDIS.:ZIC0TSI                             FRI 09/05/97 12:38 Page:68
      306     3131    1       DBCB$=GLOBAL.ACTIVE.DBCB$;
      307     3132    1       SSS$=GLOBAL.ACTIVE.SSS$;
      308     3133    1       SC$=PINCRW(SSS$,DBCB.PCB.PRSC);
      309     3134    1       OA$=PINCRW(SSS$,SIZEW(OA1));
      310     3135    1       RVI$=PINCRW(DBCB$,DBCB.PCB.RVI);
      311     3136    1       RVO$=PINCRW(DBCB$,DBCB.PCB.RVO);
      312     3137    1       RVT$=PINCRW(DBCB$,DBCB.PCB.RVT);
      313     3138    1       RS$=PINCRW(SSS$,RVT$->RECVAR.RSPTR);
      314     3139    1       IF SC$~=PINCRW(SSS$,OA.CLCSC) AND RS.DEF.MEMT=1 THEN
      315     3140    2       DO;
      316     3141                %DBCAL(NAME=ZIG$DBACE,ALT=CPAER); /* PA SET */
      317     3157                %DBCAL(NAME=ZIG$DBAIS,ALT=CNPAE);
      318     3173    2           GOTO RET;
      319     3174    2           END;
      320     3175    1       NEW=RVT$->RECVAR.DBKEY;
      321     3176    1       AFT=RVO$->RECVAR.DBKEY;
      322     3177    1       BEF=RVI$->RECVAR.DBKEY;
      323     3178    1       GLOBAL.PARAN.IO.BUF$=RVI$->RECVAR.BADDR$;
      324     3179    1       CALL ZIO$MODIFY ALTRET(ER_MOD);
      325     3180    1       GLOBAL.PARAN.IO.BUF$=RVO$->RECVAR.BADDR$;
      326     3181    1       CALL ZIO$MODIFY ALTRET(ER_MOD); /* PA SET HAS NO AFT */
      327     3182    1       IF SC$~=PINCRW(SSS$,OA.CLCSC) THEN
      328     3183        /*          Not calc set connect to other records */
      329     3184    2       DO;
      330     3185    2           IF ~SC.DEF.LG THEN
      331     3186    3           DO;
      332     3187    3               IF RVI$->RECVAR.ACPTR~=RVT$->RECVAR.ACPTR THEN
      333     3188    3                   GOTO ER_SORSA;
      334     3189    3               AC$=PINCRW(SSS$,RVT$->RECVAR.ACPTR);
      335     3190    3               NEW=NEW-AC.ABAS;
      336     3191    3               AFT=AFT-AC.ABAS;
      337     3192    3               BEF=BEF-AC.ABAS;
      338     3193    3               END;
      339     3194        /*          Put next pointer in before record */
      340     3195    2           RS$=PINCRW(SSS$,RVI$->RECVAR.RSPTR);
      341     3196    2           CALL ZIM$JSET(RVI$,RS.NPOS,NEW);
      342     3197        /*          Get pointer to owner for this set type */
PL6.E3A0      #003=ZIM$PCON File=ZIM$CONDIS.:ZIC0TSI                             FRI 09/05/97 12:38 Page:69
      343     3198    2           IF RS.DEF.TYPE='0100'O THEN
      344     3199    2               HEAD=BEF;
      345     3200    2           ELSE
      346     3201    3           DO;
      347     3202    3               ADSC$=ADDR(RS.HPOS);
      348     3203    3               RADDR$=RVI$->RECVAR.RADDR$;
      349     3204    3               HEAD=0;
      350     3205    3               SETL=ADSC.N;
      351     3206    3               CALL INSERT(CHEAD,4-SETL,SETL,PINCRC(RADDR$,BITBIN(ADSC.OFFSET))->SETP);
      352     3207    3               END;
      353     3208        /*          Insert owner pointer in head of new record */
      354     3209    2           RS$=PINCRW(SSS$,RVT$->RECVAR.RSPTR);
      355     3210    2           CALL ZIM$JSET(RVT$,RS.HPOS,HEAD);
      356     3211        /*          Put prior in new record */
      357     3212    2           CALL ZIM$JSET(RVT$,RS.PPOS,BEF);
      358     3213        /*          Put next in new record */
      359     3214    2           CALL ZIM$JSET(RVT$,RS.NPOS,AFT);
      360     3215        /*          Put prior pointer in next record */
      361     3216    2           RS$=PINCRW(SSS$,RVO$->RECVAR.RSPTR);
      362     3217    2           CALL ZIM$JSET(RVO$,RS.PPOS,NEW);
      363     3218    2           END;
      364     3219    1       ELSE
      365     3220        /*          Its a calc record.  Connect to calc set */
      366     3221    2       DO;
      367     3222    2           AC$=PINCRW(SSS$,RVI$->RECVAR.ACPTR);
      368     3223    2           CALL ZIM$JSET(RVI$,AC.CLCN,NEW);
      369     3224    2           CALL ZIM$JSET(RVT$,AC.CLCN,AFT);
      370     3225    2           CALL ZIM$JSET(RVT$,AC.CLCP,BEF);
      371     3226    2           CALL ZIM$JSET(RVO$,AC.CLCP,NEW);
      372     3227    2           END;
      373     3228    1       GOTO RET;
      374     3229        %EJECT;
PL6.E3A0      #003=ZIM$PCON File=ZIM$CONDIS.:ZIC0TSI                             FRI 09/05/97 12:38 Page:70
      375     3230    1   ZIM$PCONO: ENTRY ALTRET;
      376     3231    1       DBCB$=GLOBAL.ACTIVE.DBCB$;
      377     3232    1       SSS$=GLOBAL.ACTIVE.SSS$;
      378     3233    1       RVT$=PINCRW(DBCB$,DBCB.PCB.RVT);
      379     3234    1       NEW=RVT$->RECVAR.DBKEY;
      380     3235    1       RS$=PINCRW(SSS$,DBCB.PCB.PRRS);
      381     3236    1       IF ~PINCRW(SSS$,RS.SCRSH)->SC.DEF.LG THEN
      382     3237    1           NEW=NEW-PINCRW(SSS$,RVT$->RECVAR.ACPTR)->AC.ABAS;
      383     3238    1       CALL ZIM$JSET(RVT$,RS.NPOS,NEW);
      384     3239    1       CALL ZIM$JSET(RVT$,RS.PPOS,NEW);
      385     3240    1   RET: RETURN;
      386     3241    1   ER_SORSA: ERROR=EXC#SORSA;
      387     3242    1       GOTO RET;
      388     3243    1   CRER4: ;
      389     3244    1   PGER4: ;
      390     3245    1   CFER5: ;
      391     3246    1   CRER3: ;
      392     3247    1   LKER8: ;
      393     3248    1   ULER8: ;
      394     3249    1   CPAER: ;
      395     3250    1   CNPAE: ;
      396     3251    1   ER_MOD: ;
      397     3252    1   ER_MSET: ;
      398     3253    1   ALTR: ;
      399     3254            %DBALT;
      400     3268    1   END ZIM$PCON;

PL6.E3A0      #003=ZIM$PCON File=ZIM$CONDIS.:ZIC0TSI                             FRI 09/05/97 12:38 Page:71
--  Include file information  --

   ZI_ERRORS_C.:ZIC0TOU  is referenced.
   ZI$SSS.:ZIC0TOU  cannot be made into a system file and is referenced.
   ZI$DBCB.:ZIC0TOU  is referenced.
   ZI$GLOBAL.:ZIC0TOU  is referenced.
   B$JIT_C.:E05TOU  was found in the system file and is never referenced.
   CP_6_C.:E05TOU  was found in the system file and is never referenced.
      No diagnostics issued in procedure ZIM$PCON.

   Procedure ZIM$PCON requires 328 words for executable code.
   Procedure ZIM$PCON requires 26 words of local(AUTO) storage.

    No errors detected in file ZIM$CONDIS.:ZIC0TSI    .

PL6.E3A0      #003=ZIM$PCON File=ZIM$CONDIS.:ZIC0TSI                             FRI 09/05/97 12:38 Page:72

 Object Unit name= ZIM$PCON                                   File name= ZIM$CONDIS.:ZIC0TOU
 UTS= SEP 05 '97 12:38:30.00 FRI                              Compiler= PL-6/E31         Sev=      00
 SharedLib= :SHARED_SYSTEM                                    Alt SharedLib=


    ****  Control sections  ****

 Sect   Type Bound  Init  Size OctSiz  Section name(segment info)
    0   Proc  even  none   328    510  ZIM$PCON
    1  RoData even  none     3      3  ZIM$PCON

    ****  Entry defs  ****

                              Check   Calling
                             calling  sequence
  Sect OctLoc Primary Altret sequence   type   Parms  Name
     0      0   yes    yes     yes      XStd       0  ZIM$PCON
     0    376          yes     yes      XStd       0  ZIM$PCONO

  ****  Entry refs  ****

         Check        Calling
        calling       sequence
Altret sequence SRef   type   Args  Name
 yes     yes           XStd      0 ZIG$DBACE
 yes     yes           XStd      0 ZIO$MODIFY
         yes           XStd      0 ZIB$ERR
 yes     yes           XStd      0 ZIG$DBAIS
         yes           XStd      3 ZIM$JSET
                       nStd      0 X66_AUTO_0
                       nStd      0 X66_ARET
                       nStd      0 X66_AALT
PL6.E3A0      #003=ZIM$PCON File=ZIM$CONDIS.:ZIC0TSI                             FRI 09/05/97 12:38 Page:73

  ****  Data refs  ****

  Flags:  r = read only, s = secondary
Flgs Name                             Flgs Name                             Flgs Name
r    GLOBAL$

  ****  Segment refs  ****

  Flags:  r = read only, s = secondary
Flgs Name                             Flgs Name                             Flgs Name
     NULLSID
PL6.E3A0      #003=ZIM$PCON File=ZIM$CONDIS.:ZIC0TSI                             FRI 09/05/97 12:38 Page:74


      269        1        /*T***********************************************************/
      270        2        /*T*                                                         */
      271        3        /*T* Copyright (c) Bull HN Information Systems Inc., 1997    */
      272        4        /*T*                                                         */
      273        5        /*T***********************************************************/
      274        6        ZIM$PCON: PROC ALTRET

      6  0 000000   000000 700200 xent  ZIM$PCON     TSX0  ! X66_AUTO_0
         0 000001   000032 000000                    ZERO    26,0

      275        7               AVOID($PR5,$PR6,$PR7);
      276        8        %INCLUDE ZI$GLOBAL;
      277      494            %GLOBALS;
      278      802            %ADSC(STCLASS="BASED(ADSC$)");
      279      814        %INCLUDE ZI$DBCB;
      280     1456            %DBCB;
      281     1934            %RECVAR;
      282     1968        %INCLUDE ZI$SSS;
      283     2517            %OA1;
      284     2525            %OA;
      285     2590            %AC;
      286     2685            %SC;
      287     2712            %RS;
      288     2788        %INCLUDE ZI_ERRORS_C;
      289     3114    1   DCL ZIG$DBACE ENTRY ALTRET;
      290     3115    1   DCL ZIG$DBAIS ENTRY ALTRET;
      291     3116    1   DCL ZIO$MODIFY ENTRY ALTRET;
      292     3117    1   DCL ZIM$JSET ENTRY(3);
      293     3118    1   DCL ERROR UBIN(36);
      294     3119    1   DCL NEW UBIN(36);
      295     3120    1   DCL BEF UBIN(36);
      296     3121    1   DCL AFT UBIN(36);
      297     3122    1   DCL ADSC$ PTR;
      298     3123    1   DCL RADDR$ PTR;
      299     3124    1   DCL RVI$ PTR;
      300     3125    1   DCL RVO$ PTR;
PL6.E3A0      #003=ZIM$PCON File=ZIM$CONDIS.:ZIC0TSI                             FRI 09/05/97 12:38 Page:75
      301     3126    1   DCL RVT$ PTR;
      302     3127    1   DCL SETL UBIN(36);
      303     3128    1   DCL SETP CHAR(SETL) BASED;
      304     3129    1   DCL HEAD UBIN(36);
      305     3130    1   DCL CHEAD REDEF HEAD CHAR(4);
      306     3131    1       DBCB$=GLOBAL.ACTIVE.DBCB$;

   3131  0 000002   000000 470400 xsym               LDP0    GLOBAL$
         0 000003   000001 236100                    LDQ     1,,PR0
         0 000004   200003 756100                    STQ     DBCB$,,AUTO

      307     3132    1       SSS$=GLOBAL.ACTIVE.SSS$;

   3132  0 000005   000000 236100                    LDQ     0,,PR0
         0 000006   200004 756100                    STQ     SSS$,,AUTO

      308     3133    1       SC$=PINCRW(SSS$,DBCB.PCB.PRSC);

   3133  0 000007   200003 471500                    LDP1    DBCB$,,AUTO
         0 000010   100520 220100                    LDX0    336,,PR1
         0 000011   000000 636010                    EAQ     0,X0
         0 000012   200004 036100                    ADLQ    SSS$,,AUTO
         0 000013   200010 756100                    STQ     SC$,,AUTO

      309     3134    1       OA$=PINCRW(SSS$,SIZEW(OA1));

   3134  0 000014   200004 236100                    LDQ     SSS$,,AUTO
         0 000015   000001 036003                    ADLQ    1,DU
         0 000016   200006 756100                    STQ     OA$,,AUTO

      310     3135    1       RVI$=PINCRW(DBCB$,DBCB.PCB.RVI);

   3135  0 000017   100510 221100                    LDX1    328,,PR1
         0 000020   000000 636011                    EAQ     0,X1
         0 000021   200003 036100                    ADLQ    DBCB$,,AUTO
         0 000022   200020 756100                    STQ     RVI$,,AUTO

PL6.E3A0      #003=ZIM$PCON File=ZIM$CONDIS.:ZIC0TSI                             FRI 09/05/97 12:38 Page:76
      311     3136    1       RVO$=PINCRW(DBCB$,DBCB.PCB.RVO);

   3136  0 000023   100511 222100                    LDX2    329,,PR1
         0 000024   000000 636012                    EAQ     0,X2
         0 000025   200003 036100                    ADLQ    DBCB$,,AUTO
         0 000026   200021 756100                    STQ     RVO$,,AUTO

      312     3137    1       RVT$=PINCRW(DBCB$,DBCB.PCB.RVT);

   3137  0 000027   100512 223100                    LDX3    330,,PR1
         0 000030   000000 636013                    EAQ     0,X3
         0 000031   200003 036100                    ADLQ    DBCB$,,AUTO
         0 000032   200022 756100                    STQ     RVT$,,AUTO

      313     3138    1       RS$=PINCRW(SSS$,RVT$->RECVAR.RSPTR);

   3138  0 000033   200022 473500                    LDP3    RVT$,,AUTO
         0 000034   300004 724100                    LXL4    4,,PR3
         0 000035   000000 636014                    EAQ     0,X4
         0 000036   200004 036100                    ADLQ    SSS$,,AUTO
         0 000037   200011 756100                    STQ     RS$,,AUTO

      314     3139    1       IF SC$~=PINCRW(SSS$,OA.CLCSC) AND RS.DEF.MEMT=1 THEN

   3139  0 000040   200006 474500                    LDP4    OA$,,AUTO
         0 000041   400003 225100                    LDX5    3,,PR4
         0 000042   000000 636015                    EAQ     0,X5
         0 000043   200004 036100                    ADLQ    SSS$,,AUTO
         0 000044   200010 116100                    CMPQ    SC$,,AUTO
         0 000045   000070 600000 0                  TZE     s:3175
         0 000046   200011 470500                    LDP0    RS$,,AUTO
         0 000047   000000 236100                    LDQ     0,,PR0
         0 000050   000007 376003                    ANQ     7,DU
         0 000051   000001 116003                    CMPQ    1,DU
         0 000052   000070 601000 0                  TNZ     s:3175

      315     3140    2       DO;
PL6.E3A0      #003=ZIM$PCON File=ZIM$CONDIS.:ZIC0TSI                             FRI 09/05/97 12:38 Page:77

      316     3141                %DBCAL(NAME=ZIG$DBACE,ALT=CPAER); /* PA SET */

   3145  0 000053   000001 631400 1                  EPPR1   1
         0 000054   000000 701000 xent               TSX1    ZIG$DBACE
         0 000055   000467 702000 0                  TSX2    CRER4

   3146  0 000056   000000 470400 xsym               LDP0    GLOBAL$
         0 000057   000006 235100                    LDA     6,,PR0
         0 000060   000467 601000 0                  TNZ     CRER4

      317     3157                %DBCAL(NAME=ZIG$DBAIS,ALT=CNPAE);

   3161  0 000061   000001 631400 1                  EPPR1   1
         0 000062   000000 701000 xent               TSX1    ZIG$DBAIS
         0 000063   000467 702000 0                  TSX2    CRER4

   3162  0 000064   000000 470400 xsym               LDP0    GLOBAL$
         0 000065   000006 235100                    LDA     6,,PR0
         0 000066   000467 601000 0                  TNZ     CRER4

      318     3173    2           GOTO RET;

   3173  0 000067   000463 710000 0                  TRA     RET

      319     3174    2           END;
      320     3175    1       NEW=RVT$->RECVAR.DBKEY;

   3175  0 000070   300000 235100                    LDA     0,,PR3
         0 000071   200013 755100                    STA     NEW,,AUTO

      321     3176    1       AFT=RVO$->RECVAR.DBKEY;

   3176  0 000072   200021 470500                    LDP0    RVO$,,AUTO
         0 000073   000000 235100                    LDA     0,,PR0
         0 000074   200015 755100                    STA     AFT,,AUTO

PL6.E3A0      #003=ZIM$PCON File=ZIM$CONDIS.:ZIC0TSI                             FRI 09/05/97 12:38 Page:78
      322     3177    1       BEF=RVI$->RECVAR.DBKEY;

   3177  0 000075   200020 470500                    LDP0    RVI$,,AUTO
         0 000076   000000 235100                    LDA     0,,PR0
         0 000077   200014 755100                    STA     BEF,,AUTO

      323     3178    1       GLOBAL.PARAN.IO.BUF$=RVI$->RECVAR.BADDR$;

   3178  0 000100   000001 236100                    LDQ     1,,PR0
         0 000101   000000 470400 xsym               LDP0    GLOBAL$
         0 000102   000022 756100                    STQ     18,,PR0

      324     3179    1       CALL ZIO$MODIFY ALTRET(ER_MOD);

   3179  0 000103   000001 631400 1                  EPPR1   1
         0 000104   000000 701000 xent               TSX1    ZIO$MODIFY
         0 000105   000467 702000 0                  TSX2    CRER4

      325     3180    1       GLOBAL.PARAN.IO.BUF$=RVO$->RECVAR.BADDR$;

   3180  0 000106   200021 470500                    LDP0    RVO$,,AUTO
         0 000107   000001 236100                    LDQ     1,,PR0
         0 000110   000000 471400 xsym               LDP1    GLOBAL$
         0 000111   100022 756100                    STQ     18,,PR1

      326     3181    1       CALL ZIO$MODIFY ALTRET(ER_MOD); /* PA SET HAS NO AFT */

   3181  0 000112   000001 631400 1                  EPPR1   1
         0 000113   000000 701000 xent               TSX1    ZIO$MODIFY
         0 000114   000467 702000 0                  TSX2    CRER4

      327     3182    1       IF SC$~=PINCRW(SSS$,OA.CLCSC) THEN

   3182  0 000115   200006 470500                    LDP0    OA$,,AUTO
         0 000116   000003 220100                    LDX0    3,,PR0
         0 000117   000000 636010                    EAQ     0,X0
         0 000120   200004 036100                    ADLQ    SSS$,,AUTO
PL6.E3A0      #003=ZIM$PCON File=ZIM$CONDIS.:ZIC0TSI                             FRI 09/05/97 12:38 Page:79
         0 000121   200010 116100                    CMPQ    SC$,,AUTO
         0 000122   000315 600000 0                  TZE     s:3222

      328     3183        /*          Not calc set connect to other records */
      329     3184    2       DO;

      330     3185    2           IF ~SC.DEF.LG THEN

   3185  0 000123   200010 471500                    LDP1    SC$,,AUTO
         0 000124   100000 236100                    LDQ     0,,PR1
         0 000125   000032 736000                    QLS     26
         0 000126   400000 376003                    ANQ     -131072,DU
         0 000127   400000 676003                    ERQ     -131072,DU
         0 000130   000154 600000 0                  TZE     s:3195

      331     3186    3           DO;

      332     3187    3               IF RVI$->RECVAR.ACPTR~=RVT$->RECVAR.ACPTR THEN

   3187  0 000131   200020 473500                    LDP3    RVI$,,AUTO
         0 000132   300005 221100                    LDX1    5,,PR3
         0 000133   200022 474500                    LDP4    RVT$,,AUTO
         0 000134   400005 101100                    CMPX1   5,,PR4
         0 000135   000464 601000 0                  TNZ     ER_SORSA

      333     3188    3                   GOTO ER_SORSA;
      334     3189    3               AC$=PINCRW(SSS$,RVT$->RECVAR.ACPTR);

   3189  0 000136   400005 222100                    LDX2    5,,PR4
         0 000137   000000 636012                    EAQ     0,X2
         0 000140   200004 036100                    ADLQ    SSS$,,AUTO
         0 000141   200007 756100                    STQ     AC$,,AUTO

      335     3190    3               NEW=NEW-AC.ABAS;

   3190  0 000142   200007 470500                    LDP0    AC$,,AUTO
         0 000143   200013 236100                    LDQ     NEW,,AUTO
PL6.E3A0      #003=ZIM$PCON File=ZIM$CONDIS.:ZIC0TSI                             FRI 09/05/97 12:38 Page:80
         0 000144   000002 136100                    SBLQ    2,,PR0
         0 000145   200013 756100                    STQ     NEW,,AUTO

      336     3191    3               AFT=AFT-AC.ABAS;

   3191  0 000146   200015 236100                    LDQ     AFT,,AUTO
         0 000147   000002 136100                    SBLQ    2,,PR0
         0 000150   200015 756100                    STQ     AFT,,AUTO

      337     3192    3               BEF=BEF-AC.ABAS;

   3192  0 000151   200014 236100                    LDQ     BEF,,AUTO
         0 000152   000002 136100                    SBLQ    2,,PR0
         0 000153   200014 756100                    STQ     BEF,,AUTO

      338     3193    3               END;

      339     3194        /*          Put next pointer in before record */
      340     3195    2           RS$=PINCRW(SSS$,RVI$->RECVAR.RSPTR);

   3195  0 000154   200020 470500                    LDP0    RVI$,,AUTO
         0 000155   000004 720100                    LXL0    4,,PR0
         0 000156   000000 636010                    EAQ     0,X0
         0 000157   200004 036100                    ADLQ    SSS$,,AUTO
         0 000160   200011 756100                    STQ     RS$,,AUTO

      341     3196    2           CALL ZIM$JSET(RVI$,RS.NPOS,NEW);

   3196  0 000161   200013 633500                    EPPR3   NEW,,AUTO
         0 000162   200030 453500                    STP3    HEAD+4,,AUTO
         0 000163   000004 036003                    ADLQ    4,DU
         0 000164   200027 756100                    STQ     HEAD+3,,AUTO
         0 000165   200020 634500                    EPPR4   RVI$,,AUTO
         0 000166   200026 454500                    STP4    HEAD+2,,AUTO
         0 000167   200026 630500                    EPPR0   HEAD+2,,AUTO
         0 000170   000002 631400 1                  EPPR1   2
         0 000171   000000 701000 xent               TSX1    ZIM$JSET
PL6.E3A0      #003=ZIM$PCON File=ZIM$CONDIS.:ZIC0TSI                             FRI 09/05/97 12:38 Page:81
         0 000172   000000 011000                    NOP     0

      342     3197        /*          Get pointer to owner for this set type */
      343     3198    2           IF RS.DEF.TYPE='0100'O THEN

   3198  0 000173   200011 470500                    LDP0    RS$,,AUTO
         0 000174   000000 236100                    LDQ     0,,PR0
         0 000175   777700 376003                    ANQ     -64,DU
         0 000176   010000 116003                    CMPQ    4096,DU
         0 000177   000203 601000 0                  TNZ     s:3202

      344     3199    2               HEAD=BEF;

   3199  0 000200   200014 235100                    LDA     BEF,,AUTO
         0 000201   200024 755100                    STA     HEAD,,AUTO
         0 000202   000230 710000 0                  TRA     s:3209

      345     3200    2           ELSE
      346     3201    3           DO;

      347     3202    3               ADSC$=ADDR(RS.HPOS);

   3202  0 000203   200011 236100                    LDQ     RS$,,AUTO
         0 000204   000006 036003                    ADLQ    6,DU
         0 000205   200016 756100                    STQ     ADSC$,,AUTO

      348     3203    3               RADDR$=RVI$->RECVAR.RADDR$;

   3203  0 000206   200020 471500                    LDP1    RVI$,,AUTO
         0 000207   100002 236100                    LDQ     2,,PR1
         0 000210   200017 756100                    STQ     RADDR$,,AUTO

      349     3204    3               HEAD=0;

   3204  0 000211   200024 450100                    STZ     HEAD,,AUTO

      350     3205    3               SETL=ADSC.N;
PL6.E3A0      #003=ZIM$PCON File=ZIM$CONDIS.:ZIC0TSI                             FRI 09/05/97 12:38 Page:82

   3205  0 000212   200016 473500                    LDP3    ADSC$,,AUTO
         0 000213   300000 236100                    LDQ     0,,PR3
         0 000214   007777 376007                    ANQ     4095,DL
         0 000215   200023 756100                    STQ     SETL,,AUTO

      351     3206    3              CALL INSERT(CHEAD,4-SETL,SETL,PINCRC(RADDR$,BITBIN(ADSC.OFFSET))->SETP);

   3206  0 000216   300000 236100                    LDQ     0,,PR3
         0 000217   000020 772000                    QRL     16
         0 000220   377777 376007                    ANQ     131071,DL
         0 000221   000000 235003                    LDA     0,DU
         0 000222   200023 135100                    SBLA    SETL,,AUTO
         0 000223   200017 474500                    LDP4    RADDR$,,AUTO
         0 000224   200023 720100                    LXL0    SETL,,AUTO
         0 000225   040145 100546                    MLR     fill='040'O
         0 000226   400000 000010                    ADSC9   0,Q,PR4                  cn=0,n=*X0
         0 000227   200025 000010                    ADSC9   HEAD+1,A,AUTO            cn=0,n=*X0

      352     3207    3               END;

      353     3208        /*          Insert owner pointer in head of new record */
      354     3209    2           RS$=PINCRW(SSS$,RVT$->RECVAR.RSPTR);

   3209  0 000230   200022 471500                    LDP1    RVT$,,AUTO
         0 000231   100004 720100                    LXL0    4,,PR1
         0 000232   000000 636010                    EAQ     0,X0
         0 000233   200004 036100                    ADLQ    SSS$,,AUTO
         0 000234   200011 756100                    STQ     RS$,,AUTO

      355     3210    2           CALL ZIM$JSET(RVT$,RS.HPOS,HEAD);

   3210  0 000235   200024 630500                    EPPR0   HEAD,,AUTO
         0 000236   200030 450500                    STP0    HEAD+4,,AUTO
         0 000237   000006 036003                    ADLQ    6,DU
         0 000240   200027 756100                    STQ     HEAD+3,,AUTO
         0 000241   200022 633500                    EPPR3   RVT$,,AUTO
PL6.E3A0      #003=ZIM$PCON File=ZIM$CONDIS.:ZIC0TSI                             FRI 09/05/97 12:38 Page:83
         0 000242   200026 453500                    STP3    HEAD+2,,AUTO
         0 000243   200026 630500                    EPPR0   HEAD+2,,AUTO
         0 000244   000002 631400 1                  EPPR1   2
         0 000245   000000 701000 xent               TSX1    ZIM$JSET
         0 000246   000000 011000                    NOP     0

      356     3211        /*          Put prior in new record */
      357     3212    2           CALL ZIM$JSET(RVT$,RS.PPOS,BEF);

   3212  0 000247   200014 630500                    EPPR0   BEF,,AUTO
         0 000250   200030 450500                    STP0    HEAD+4,,AUTO
         0 000251   200011 236100                    LDQ     RS$,,AUTO
         0 000252   000005 036003                    ADLQ    5,DU
         0 000253   200027 756100                    STQ     HEAD+3,,AUTO
         0 000254   200022 631500                    EPPR1   RVT$,,AUTO
         0 000255   200026 451500                    STP1    HEAD+2,,AUTO
         0 000256   200026 630500                    EPPR0   HEAD+2,,AUTO
         0 000257   000002 631400 1                  EPPR1   2
         0 000260   000000 701000 xent               TSX1    ZIM$JSET
         0 000261   000000 011000                    NOP     0

      358     3213        /*          Put next in new record */
      359     3214    2           CALL ZIM$JSET(RVT$,RS.NPOS,AFT);

   3214  0 000262   200015 630500                    EPPR0   AFT,,AUTO
         0 000263   200030 450500                    STP0    HEAD+4,,AUTO
         0 000264   200011 236100                    LDQ     RS$,,AUTO
         0 000265   000004 036003                    ADLQ    4,DU
         0 000266   200027 756100                    STQ     HEAD+3,,AUTO
         0 000267   200022 631500                    EPPR1   RVT$,,AUTO
         0 000270   200026 451500                    STP1    HEAD+2,,AUTO
         0 000271   200026 630500                    EPPR0   HEAD+2,,AUTO
         0 000272   000002 631400 1                  EPPR1   2
         0 000273   000000 701000 xent               TSX1    ZIM$JSET
         0 000274   000000 011000                    NOP     0

      360     3215        /*          Put prior pointer in next record */
PL6.E3A0      #003=ZIM$PCON File=ZIM$CONDIS.:ZIC0TSI                             FRI 09/05/97 12:38 Page:84
      361     3216    2           RS$=PINCRW(SSS$,RVO$->RECVAR.RSPTR);

   3216  0 000275   200021 470500                    LDP0    RVO$,,AUTO
         0 000276   000004 720100                    LXL0    4,,PR0
         0 000277   000000 636010                    EAQ     0,X0
         0 000300   200004 036100                    ADLQ    SSS$,,AUTO
         0 000301   200011 756100                    STQ     RS$,,AUTO

      362     3217    2           CALL ZIM$JSET(RVO$,RS.PPOS,NEW);

   3217  0 000302   200013 631500                    EPPR1   NEW,,AUTO
         0 000303   200030 451500                    STP1    HEAD+4,,AUTO
         0 000304   000005 036003                    ADLQ    5,DU
         0 000305   200027 756100                    STQ     HEAD+3,,AUTO
         0 000306   200021 633500                    EPPR3   RVO$,,AUTO
         0 000307   200026 453500                    STP3    HEAD+2,,AUTO
         0 000310   200026 630500                    EPPR0   HEAD+2,,AUTO
         0 000311   000002 631400 1                  EPPR1   2
         0 000312   000000 701000 xent               TSX1    ZIM$JSET
         0 000313   000000 011000                    NOP     0

      363     3218    2           END;

   3218  0 000314   000375 710000 0                  TRA     s:3228

      364     3219    1       ELSE
      365     3220        /*          Its a calc record.  Connect to calc set */
      366     3221    2       DO;

      367     3222    2           AC$=PINCRW(SSS$,RVI$->RECVAR.ACPTR);

   3222  0 000315   200020 471500                    LDP1    RVI$,,AUTO
         0 000316   100005 221100                    LDX1    5,,PR1
         0 000317   000000 636011                    EAQ     0,X1
         0 000320   200004 036100                    ADLQ    SSS$,,AUTO
         0 000321   200007 756100                    STQ     AC$,,AUTO

PL6.E3A0      #003=ZIM$PCON File=ZIM$CONDIS.:ZIC0TSI                             FRI 09/05/97 12:38 Page:85
      368     3223    2           CALL ZIM$JSET(RVI$,AC.CLCN,NEW);

   3223  0 000322   200013 633500                    EPPR3   NEW,,AUTO
         0 000323   200030 453500                    STP3    HEAD+4,,AUTO
         0 000324   000022 036003                    ADLQ    18,DU
         0 000325   200027 756100                    STQ     HEAD+3,,AUTO
         0 000326   200020 634500                    EPPR4   RVI$,,AUTO
         0 000327   200026 454500                    STP4    HEAD+2,,AUTO
         0 000330   200026 630500                    EPPR0   HEAD+2,,AUTO
         0 000331   000002 631400 1                  EPPR1   2
         0 000332   000000 701000 xent               TSX1    ZIM$JSET
         0 000333   000000 011000                    NOP     0

      369     3224    2           CALL ZIM$JSET(RVT$,AC.CLCN,AFT);

   3224  0 000334   200015 630500                    EPPR0   AFT,,AUTO
         0 000335   200030 450500                    STP0    HEAD+4,,AUTO
         0 000336   200007 236100                    LDQ     AC$,,AUTO
         0 000337   000022 036003                    ADLQ    18,DU
         0 000340   200027 756100                    STQ     HEAD+3,,AUTO
         0 000341   200022 631500                    EPPR1   RVT$,,AUTO
         0 000342   200026 451500                    STP1    HEAD+2,,AUTO
         0 000343   200026 630500                    EPPR0   HEAD+2,,AUTO
         0 000344   000002 631400 1                  EPPR1   2
         0 000345   000000 701000 xent               TSX1    ZIM$JSET
         0 000346   000000 011000                    NOP     0

      370     3225    2           CALL ZIM$JSET(RVT$,AC.CLCP,BEF);

   3225  0 000347   200014 630500                    EPPR0   BEF,,AUTO
         0 000350   200030 450500                    STP0    HEAD+4,,AUTO
         0 000351   200007 236100                    LDQ     AC$,,AUTO
         0 000352   000023 036003                    ADLQ    19,DU
         0 000353   200027 756100                    STQ     HEAD+3,,AUTO
         0 000354   200022 631500                    EPPR1   RVT$,,AUTO
         0 000355   200026 451500                    STP1    HEAD+2,,AUTO
         0 000356   200026 630500                    EPPR0   HEAD+2,,AUTO
PL6.E3A0      #003=ZIM$PCON File=ZIM$CONDIS.:ZIC0TSI                             FRI 09/05/97 12:38 Page:86
         0 000357   000002 631400 1                  EPPR1   2
         0 000360   000000 701000 xent               TSX1    ZIM$JSET
         0 000361   000000 011000                    NOP     0

      371     3226    2           CALL ZIM$JSET(RVO$,AC.CLCP,NEW);

   3226  0 000362   200013 630500                    EPPR0   NEW,,AUTO
         0 000363   200030 450500                    STP0    HEAD+4,,AUTO
         0 000364   200007 236100                    LDQ     AC$,,AUTO
         0 000365   000023 036003                    ADLQ    19,DU
         0 000366   200027 756100                    STQ     HEAD+3,,AUTO
         0 000367   200021 631500                    EPPR1   RVO$,,AUTO
         0 000370   200026 451500                    STP1    HEAD+2,,AUTO
         0 000371   200026 630500                    EPPR0   HEAD+2,,AUTO
         0 000372   000002 631400 1                  EPPR1   2
         0 000373   000000 701000 xent               TSX1    ZIM$JSET
         0 000374   000000 011000                    NOP     0

      372     3227    2           END;

      373     3228    1       GOTO RET;

   3228  0 000375   000463 710000 0                  TRA     RET

      374     3229        %EJECT;
PL6.E3A0      #003=ZIM$PCON File=ZIM$CONDIS.:ZIC0TSI                             FRI 09/05/97 12:38 Page:87
      375     3230    1   ZIM$PCONO: ENTRY ALTRET;

   3230  0 000376   000000 700200 xent  ZIM$PCONO    TSX0  ! X66_AUTO_0
         0 000377   000032 000000                    ZERO    26,0

      376     3231    1       DBCB$=GLOBAL.ACTIVE.DBCB$;

   3231  0 000400   000000 470400 xsym               LDP0    GLOBAL$
         0 000401   000001 236100                    LDQ     1,,PR0
         0 000402   200003 756100                    STQ     DBCB$,,AUTO

      377     3232    1       SSS$=GLOBAL.ACTIVE.SSS$;

   3232  0 000403   000000 236100                    LDQ     0,,PR0
         0 000404   200004 756100                    STQ     SSS$,,AUTO

      378     3233    1       RVT$=PINCRW(DBCB$,DBCB.PCB.RVT);

   3233  0 000405   200003 471500                    LDP1    DBCB$,,AUTO
         0 000406   100512 220100                    LDX0    330,,PR1
         0 000407   000000 636010                    EAQ     0,X0
         0 000410   200003 036100                    ADLQ    DBCB$,,AUTO
         0 000411   200022 756100                    STQ     RVT$,,AUTO

      379     3234    1       NEW=RVT$->RECVAR.DBKEY;

   3234  0 000412   200022 473500                    LDP3    RVT$,,AUTO
         0 000413   300000 235100                    LDA     0,,PR3
         0 000414   200013 755100                    STA     NEW,,AUTO

      380     3235    1       RS$=PINCRW(SSS$,DBCB.PCB.PRRS);

   3235  0 000415   100517 721100                    LXL1    335,,PR1
         0 000416   000000 636011                    EAQ     0,X1
         0 000417   200004 036100                    ADLQ    SSS$,,AUTO
         0 000420   200011 756100                    STQ     RS$,,AUTO

PL6.E3A0      #003=ZIM$PCON File=ZIM$CONDIS.:ZIC0TSI                             FRI 09/05/97 12:38 Page:88
      381     3236    1       IF ~PINCRW(SSS$,RS.SCRSH)->SC.DEF.LG THEN

   3236  0 000421   200011 474500                    LDP4    RS$,,AUTO
         0 000422   400003 722100                    LXL2    3,,PR4
         0 000423   200004 470500                    LDP0    SSS$,,AUTO
         0 000424   000000 236112                    LDQ     0,X2,PR0
         0 000425   000032 736000                    QLS     26
         0 000426   400000 376003                    ANQ     -131072,DU
         0 000427   400000 676003                    ERQ     -131072,DU
         0 000430   000435 600000 0                  TZE     s:3238

      382     3237    1           NEW=NEW-PINCRW(SSS$,RVT$->RECVAR.ACPTR)->AC.ABAS;

   3237  0 000431   300005 223100                    LDX3    5,,PR3
         0 000432   200013 236100                    LDQ     NEW,,AUTO
         0 000433   000002 136113                    SBLQ    2,X3,PR0
         0 000434   200013 756100                    STQ     NEW,,AUTO

      383     3238    1       CALL ZIM$JSET(RVT$,RS.NPOS,NEW);

   3238  0 000435   200013 630500                    EPPR0   NEW,,AUTO
         0 000436   200030 450500                    STP0    HEAD+4,,AUTO
         0 000437   200011 236100                    LDQ     RS$,,AUTO
         0 000440   000004 036003                    ADLQ    4,DU
         0 000441   200027 756100                    STQ     HEAD+3,,AUTO
         0 000442   200022 630500                    EPPR0   RVT$,,AUTO
         0 000443   200026 450500                    STP0    HEAD+2,,AUTO
         0 000444   200026 630500                    EPPR0   HEAD+2,,AUTO
         0 000445   000002 631400 1                  EPPR1   2
         0 000446   000000 701000 xent               TSX1    ZIM$JSET
         0 000447   000000 011000                    NOP     0

      384     3239    1       CALL ZIM$JSET(RVT$,RS.PPOS,NEW);

   3239  0 000450   200013 630500                    EPPR0   NEW,,AUTO
         0 000451   200030 450500                    STP0    HEAD+4,,AUTO
         0 000452   200011 236100                    LDQ     RS$,,AUTO
PL6.E3A0      #003=ZIM$PCON File=ZIM$CONDIS.:ZIC0TSI                             FRI 09/05/97 12:38 Page:89
         0 000453   000005 036003                    ADLQ    5,DU
         0 000454   200027 756100                    STQ     HEAD+3,,AUTO
         0 000455   200022 631500                    EPPR1   RVT$,,AUTO
         0 000456   200026 451500                    STP1    HEAD+2,,AUTO
         0 000457   200026 630500                    EPPR0   HEAD+2,,AUTO
         0 000460   000002 631400 1                  EPPR1   2
         0 000461   000000 701000 xent               TSX1    ZIM$JSET
         0 000462   000000 011000                    NOP     0

      385     3240    1   RET: RETURN;

   3240  0 000463   000000 702200 xent  RET          TSX2  ! X66_ARET

      386     3241    1   ER_SORSA: ERROR=EXC#SORSA;

   3241  0 000464   020630 235007       ER_SORSA     LDA     8600,DL
         0 000465   200012 755100                    STA     ERROR,,AUTO

      387     3242    1       GOTO RET;

   3242  0 000466   000463 710000 0                  TRA     RET

   3239  0 000467                       CRER4        null
   3239  0 000467                       PGER4        null
   3239  0 000467                       CFER5        null
   3239  0 000467                       CRER3        null
   3239  0 000467                       LKER8        null
   3239  0 000467                       ULER8        null
   3239  0 000467                       CPAER        null
   3239  0 000467                       CNPAE        null
   3239  0 000467                       ER_MOD       null
   3239  0 000467                       ER_MSET      null
      388     3243    1   CRER4: ;
      389     3244    1   PGER4: ;
      390     3245    1   CFER5: ;
      391     3246    1   CRER3: ;
      392     3247    1   LKER8: ;
PL6.E3A0      #003=ZIM$PCON File=ZIM$CONDIS.:ZIC0TSI                             FRI 09/05/97 12:38 Page:90
      393     3248    1   ULER8: ;
      394     3249    1   CPAER: ;
      395     3250    1   CNPAE: ;
      396     3251    1   ER_MOD: ;
      397     3252    1   ER_MSET: ;
      398     3253    1   ALTR: ;

   3253  0 000467                       ALTR         null
      399     3254            %DBALT;

   3255  0 000467   000000 470400 xsym               LDP0    GLOBAL$
         0 000470   000006 235100                    LDA     6,,PR0
         0 000471   000500 601000 0                  TNZ     s:3263

   3257  0 000472   000010 450100                    STZ     8,,PR0

   3258  0 000473   000012 450100                    STZ     10,,PR0

   3259  0 000474   000013 450100                    STZ     11,,PR0

   3260  0 000475   000011 450100                    STZ     9,,PR0

   3261  0 000476   200012 236100                    LDQ     ERROR,,AUTO
         0 000477   000006 756100                    STQ     6,,PR0

   3263  0 000500   000006 235100                    LDA     6,,PR0
         0 000501   303240 115007                    CMPA    100000,DL
         0 000502   000504 603000 0                  TRC     s:3266

   3264  0 000503   000000 702200 xent               TSX2  ! X66_AALT

   3266  0 000504   000001 631400 1                  EPPR1   1
         0 000505   000000 701000 xent               TSX1    ZIB$ERR
         0 000506   000000 011000                    NOP     0

      400     3268    1   END ZIM$PCON;

PL6.E3A0      #003=ZIM$PCON File=ZIM$CONDIS.:ZIC0TSI                             FRI 09/05/97 12:38 Page:91
   3268  0 000507   000000 702200 xent               TSX2  ! X66_ARET

(unnamed)
 Sect OctLoc
   1     000   000000 006014   000000 000000   000003 000000                    ............

PL6.E3A0      #003=ZIM$PCON File=ZIM$CONDIS.:ZIC0TSI                             FRI 09/05/97 12:38 Page:92
--  Include file information  --

   ZI_ERRORS_C.:ZIC0TOU  is referenced.
   ZI$SSS.:ZIC0TOU  cannot be made into a system file and is referenced.
   ZI$DBCB.:ZIC0TOU  is referenced.
   ZI$GLOBAL.:ZIC0TOU  is referenced.
   B$JIT_C.:E05TOU  was found in the system file and is never referenced.
   CP_6_C.:E05TOU  was found in the system file and is never referenced.
      No diagnostics issued in procedure ZIM$PCON.

   Procedure ZIM$PCON requires 328 words for executable code.
   Procedure ZIM$PCON requires 26 words of local(AUTO) storage.

    No errors detected in file ZIM$CONDIS.:ZIC0TSI    .
PL6.E3A0      #003=ZIM$PCON File=ZIM$CONDIS.:ZIC0TSI                             FRI 09/05/97 12:38 Page:93
          *** CROSS REFERENCE LISTING ***
**     DENOTES     IDENTIFIER DEFINITION
<<                 IDENTIFIER'S VALUE SET
>>                 IDENTIFIER'S VALUE USED
<>                 IDENTIFIER SET AND/OR USED
--                 IDENTIFIER REFERENCED
PL6.E3A0      #003=ZIM$PCON File=ZIM$CONDIS.:ZIC0TSI                             FRI 09/05/97 12:38 Page:94
          MINI XREF LISTING

AC.ABAS
      2613**DCL      3190>>ASSIGN   3191>>ASSIGN   3192>>ASSIGN   3237>>ASSIGN
AC.CLCN
      2653**DCL      3223<>CALL     3224<>CALL
AC.CLCP
      2662**DCL      3225<>CALL     3226<>CALL
AC.DEF.ANL
      2610**DCL      2681--IMP-SIZ
AC.DEF.FORG
      2597**DCL      2601--REDEF
AC$
      2593**DCL      2594--IMP-PTR  3189<<ASSIGN   3190>>ASSIGN   3191>>ASSIGN   3192>>ASSIGN   3222<<ASSIGN
      3223>>CALL     3224>>CALL     3225>>CALL     3226>>CALL
ADSC.N
       811**DCL      3205>>ASSIGN
ADSC.OFFSET
       805**DCL      3206>>CALLBLT
ADSC$
      3122**DCL       803--IMP-PTR  3202<<ASSIGN   3205>>ASSIGN   3206>>CALLBLT
AFT
      3121**DCL      3176<<ASSIGN   3191<<ASSIGN   3191>>ASSIGN   3214<>CALL     3224<>CALL
BEF
      3120**DCL      3177<<ASSIGN   3192<<ASSIGN   3192>>ASSIGN   3199>>ASSIGN   3212<>CALL     3225<>CALL
CHEAD
      3130**DCL      3206<<CALLBLT
CNPAE
      3239**LABEL    3161--CALLALT  3164--GOTO
CPAER
      3239**LABEL    3145--CALLALT  3148--GOTO
DBCB.IOWS.CFCT
      1886**DCL      1887--REDEF
DBCB.IOWS.DBKF.RQ
PL6.E3A0      #003=ZIM$PCON File=ZIM$CONDIS.:ZIC0TSI                             FRI 09/05/97 12:38 Page:95
      1829**DCL      1830--REDEF
DBCB.IOWS.DBKR
      1826**DCL      1827--REDEF
DBCB.IOWS.NOBF
      1888**DCL      1889--REDEF
DBCB.IOWS.SPND
      1814**DCL      1815--REDEF
DBCB.PCB.PRRS
      1674**DCL      3235>>ASSIGN
DBCB.PCB.PRSC
      1675**DCL      3133>>ASSIGN
DBCB.PCB.RVI
      1662**DCL      3135>>ASSIGN
DBCB.PCB.RVO
      1664**DCL      3136>>ASSIGN
DBCB.PCB.RVT
      1666**DCL      3137>>ASSIGN   3233>>ASSIGN
DBCB.SWS.RDYCW
      1552**DCL      1553--REDEF
DBCB.SWS.TEMP.PTR1$
      1586**DCL      1587--REDEF    1588--REDEF
DBCB.SWS.TEMP.PTR2$
      1589**DCL      1590--REDEF
DBCB$
      1457**DCL      1458--IMP-PTR  3131<<ASSIGN   3133>>ASSIGN   3135>>ASSIGN   3135>>ASSIGN   3136>>ASSIGN
      3136>>ASSIGN   3137>>ASSIGN   3137>>ASSIGN   3231<<ASSIGN   3233>>ASSIGN   3233>>ASSIGN   3235>>ASSIGN
ERROR
      3118**DCL      3241<<ASSIGN   3261>>ASSIGN
ER_MOD
      3239**LABEL    3179--CALLALT  3181--CALLALT
ER_SORSA
      3241**LABEL    3188--GOTO
GLOBAL.ACTIVE.DBCB$
       501**DCL       502--REDEF    3131>>ASSIGN   3231>>ASSIGN
GLOBAL.ACTIVE.SSS$
       497**DCL       498--REDEF    3132>>ASSIGN   3232>>ASSIGN
PL6.E3A0      #003=ZIM$PCON File=ZIM$CONDIS.:ZIC0TSI                             FRI 09/05/97 12:38 Page:96
GLOBAL.KEY
       705**DCL       708--REDEF
GLOBAL.PARAN.IO.BUF$
       546**DCL      3178<<ASSIGN   3180<<ASSIGN
GLOBAL.PARAN.TRACE.MODE
       580**DCL       587--REDEF
GLOBAL.PRINTBUF.BUFFER
       739**DCL       740--REDEF     741--REDEF     742--REDEF
GLOBAL.PRINTBUF.ERR.V
       744**DCL       747--REDEF     748--REDEF     749--REDEF
GLOBAL.RET.AC#
       517**DCL      3257<<ASSIGN
GLOBAL.RET.ERROR#
       515**DCL      3146>>IF       3162>>IF       3255>>IF       3261<<ASSIGN   3263>>IF
GLOBAL.RET.FR#
       518**DCL      3260<<ASSIGN
GLOBAL.RET.RC#
       520**DCL      3259<<ASSIGN
GLOBAL.RET.SC#
       519**DCL      3258<<ASSIGN
GLOBAL$
       799**DCL       495--IMP-PTR  3131>>ASSIGN   3132>>ASSIGN   3146>>IF       3162>>IF       3178>>ASSIGN
      3180>>ASSIGN   3231>>ASSIGN   3232>>ASSIGN   3255>>IF       3257>>ASSIGN   3258>>ASSIGN   3259>>ASSIGN
      3260>>ASSIGN   3261>>ASSIGN   3263>>IF
HEAD
      3129**DCL      3130--REDEF    3199<<ASSIGN   3204<<ASSIGN   3210<>CALL
NEW
      3119**DCL      3175<<ASSIGN   3190<<ASSIGN   3190>>ASSIGN   3196<>CALL     3217<>CALL     3223<>CALL
      3226<>CALL     3234<<ASSIGN   3237<<ASSIGN   3237>>ASSIGN   3238<>CALL     3239<>CALL
OA.CLCSC
      2540**DCL      3139>>IF       3182>>IF
OA.SCNAM.EIS.COUNT
      2550**DCL      2585--IMP-SIZ
OA$
      2528**DCL      2529--IMP-PTR  3134<<ASSIGN   3139>>IF       3182>>IF
OA1
PL6.E3A0      #003=ZIM$PCON File=ZIM$CONDIS.:ZIC0TSI                             FRI 09/05/97 12:38 Page:97
      2520**DCL      3134--ASSIGN
OA1$
      2519**DCL      2520--IMP-PTR
RADDR$
      3123**DCL      3203<<ASSIGN   3206>>CALLBLT
RECVAR.ACPTR
      1955**DCL      3187>>IF       3187>>IF       3189>>ASSIGN   3222>>ASSIGN   3237>>ASSIGN
RECVAR.BADDR
      1937**DCL      1940--REDEF
RECVAR.BADDR$
      1940**DCL      3178>>ASSIGN   3180>>ASSIGN
RECVAR.DBKEY
      1936**DCL      3175>>ASSIGN   3176>>ASSIGN   3177>>ASSIGN   3234>>ASSIGN
RECVAR.RADDR
      1941**DCL      1945--REDEF
RECVAR.RADDR$
      1945**DCL      3203>>ASSIGN
RECVAR.RSPTR
      1954**DCL      3138>>ASSIGN   3195>>ASSIGN   3209>>ASSIGN   3216>>ASSIGN
RET
      3240**LABEL    3173--GOTO     3228--GOTO     3242--GOTO
RS.DEF.MEMT
      2722**DCL      3139>>IF
RS.DEF.TYPE
      2717**DCL      3198>>IF
RS.HPOS
      2767**DCL      3202--ASSIGN   3210<>CALL
RS.NPOS
      2740**DCL      2749--REDEF    3196<>CALL     3214<>CALL     3238<>CALL
RS.PPOS
      2758**DCL      3212<>CALL     3217<>CALL     3239<>CALL
RS.SCRSH
      2739**DCL      3236>>IF
RS$
      2714**DCL      2715--IMP-PTR  3138<<ASSIGN   3139>>IF       3195<<ASSIGN   3196>>CALL     3198>>IF
      3202>>ASSIGN   3209<<ASSIGN   3210>>CALL     3212>>CALL     3214>>CALL     3216<<ASSIGN   3217>>CALL
PL6.E3A0      #003=ZIM$PCON File=ZIM$CONDIS.:ZIC0TSI                             FRI 09/05/97 12:38 Page:98
      3235<<ASSIGN   3236>>IF       3238>>CALL     3239>>CALL
RVI$
      3124**DCL      3135<<ASSIGN   3177>>ASSIGN   3178>>ASSIGN   3187>>IF       3195>>ASSIGN   3196<>CALL
      3203>>ASSIGN   3222>>ASSIGN   3223<>CALL
RVO$
      3125**DCL      3136<<ASSIGN   3176>>ASSIGN   3180>>ASSIGN   3216>>ASSIGN   3217<>CALL     3226<>CALL
RVT$
      3126**DCL      3137<<ASSIGN   3138>>ASSIGN   3175>>ASSIGN   3187>>IF       3189>>ASSIGN   3209>>ASSIGN
      3210<>CALL     3212<>CALL     3214<>CALL     3224<>CALL     3225<>CALL     3233<<ASSIGN   3234>>ASSIGN
      3237>>ASSIGN   3238<>CALL     3239<>CALL
SC.DEF.LG
      2699**DCL      3185>>IF       3236>>IF
SC.DEF.SNL
      2701**DCL      2706--IMP-SIZ
SC$
      2688**DCL      2689--IMP-PTR  3133<<ASSIGN   3139>>IF       3182>>IF       3185>>IF
SETL
      3127**DCL      3128--IMP-SIZ  3205<<ASSIGN   3206>>CALLBLT  3206>>CALLBLT  3206>>CALLBLT
SETP
      3128**DCL      3206>>CALLBLT
SSS$
      1975**DCL      3132<<ASSIGN   3133>>ASSIGN   3134>>ASSIGN   3138>>ASSIGN   3139>>IF       3182>>IF
      3189>>ASSIGN   3195>>ASSIGN   3209>>ASSIGN   3216>>ASSIGN   3222>>ASSIGN   3232<<ASSIGN   3235>>ASSIGN
      3236>>IF       3237>>ASSIGN
ZIB$ERR
       800**DCL-ENT  3266--CALL
ZIG$DBACE
      3114**DCL-ENT  3145--CALL
ZIG$DBAIS
      3115**DCL-ENT  3161--CALL
ZIM$JSET
      3117**DCL-ENT  3196--CALL     3210--CALL     3212--CALL     3214--CALL     3217--CALL     3223--CALL
      3224--CALL     3225--CALL     3226--CALL     3238--CALL     3239--CALL
ZIO$MODIFY
      3116**DCL-ENT  3179--CALL     3181--CALL
