
 12:38 09/05/97  FILE=ZIM$DBAA.:ZIC0TSI                                                                  1    BMAP - B00
                                         1  *M*      ZIG$DBAA
                                         2  *T***********************************************************
                                         3  *T*                                                         *
                                         4  *T* Copyright (c) Bull HN Information Systems Inc., 1997    *
                                         5  *T*                                                         *
                                         6  *T***********************************************************

 12:38 09/05/97  FILE=ZIM$DBAA.:ZIC0TSI       H6600H2.519     IDS/II FIND ABSOL. W/I AREA    780113DBAA  2    BMAP - B00
                                         7         TTL     H6600H2.519     IDS/II FIND ABSOL. W/I AREA    780113DBAA
                                         8         CPR     1974
                                         9         PMC     OFF
                                        10         ENTREF  ZIG$DBPNA
                                        11         ENTREF  ZIG$DBPPA
                                        12           ENTREF      ZIM$IFINDF
                                        13           ENTREF      ZIM$IFINDL
                                        14         ENTREF  ZIG$DBUPC            Update Currencies
                                        15         ENTREF  ZIG$DBUSR
                                        16  *
                                        17         ENTDEF  ZIG$DBFAA
                                        18  *
                                        19         LODM    Q2MA
                                        20  *
                                        21         Q2SYM
                                        22  *

 12:38 09/05/97  FILE=ZIM$DBAA.:ZIC0TSI       IDS-II  FIND ABSOLUTE WITHIN AREA                          3    BMAP - B00
                                        23         TTLS    IDS-II  FIND ABSOLUTE WITHIN AREA
                                        24  ****************************************************************
                                        25  *
                                        26  *  - DBFAA -
                                        27  *
                                        28  *      FIND.  Find the i'th record within an area.
                                        29  *
                                        30  *      Parameter   Description
                                        31  *      ---------   -----------
                                        32  *
                                        33  *          0       IA
                                        34  *          1       UWA
                                        35  *          2       FPT
                                        36  *
                                        37  *      FPT Format...
                                        38  *
                                        39  *      Word 0:  Occurrence number of the record to be
                                        40  *          located.  If negative, the occurrence number
                                        41  *          is relative to the end of the area.
                                        42  *      Word 1:  RVA offset to a schema subset element which
                                        43  *          describes a data base record.  This argument will
                                        44  *          be zero if no record type was specified.
                                        45  *      Word 2:  RVA offset to a schema subset element which
                                        46  *          describes the area within which the record is to
                                        47  *          be found.
                                        48  *      Word 3:  Retention List Control Word
                                        49  *      Words 4->M:  Retention List.  RVA offsets to the
                                        50  *          schema subset elements which describe the sets
                                        51  *          for which currencies are to be retained.
                                        52  *
                                        53  ****************************************************************
                                        54  *
 0 000000                               55  ZIG$DBFAA   NULL
   000000  X 000000 7000 00             56           DBSAV
   000001    000004 000000
                                        57  *  Get the arguments
   000002    000000 4704 07             58         LDP    PR0,VLPSID,DL            VLP$
 12:38 09/05/97  FILE=ZIM$DBAA.:ZIC0TSI       IDS-II  FIND ABSOLUTE WITHIN AREA                          4    BMAP - B00
   000003    000004 2350 03             59           LDA      4,DU                 Retention list
   000004    0 00003 2751 00            60           ORA      3,,PR0               RLCW
   000005    5 00025 7551 00            61           STA      GRLCW,,PR5           Save it
   000006    000003 4714 07             62           LDP      PR1,RVASID,DL           RVA$
   000007    0 00000 2351 00            63         LDA     0,,PR0               FPT Word 0:  Record occurence #
   000010    7 00041 7551 00            64         STA     ROCUR,,PR7      SAVE
   000011    0 00002 2201 00            65         LDX     X0,2,,PR0            Offset into RVA to AC pointer
   000012    1 00000 2201 10            66           LDX      X0,,X0,PR1           Get AC offset into SSS
   000013    0 00001 2271 00            67         LDX     X7,1,,PR0            Offset into RVA to RC pointer
   000014    1 00000 2271 17            68           LDX      X7,,X7,PR1           Get RC offset into SSS
   000015 (0)000024 6000 00             69         TZE     NRC8                 B/ If no RC specified
                                        70         IFE     A,1,%CK1
   000016    6 00000 2211 17            71         LDX     X1,DEF,X7,PR6   GET DEF TYPE FROM RC
   000017    100000 3010 03             72         CANX    X1,.RC,DU       IS IT AN RC
   000020 (0)000145 6000 00             73         TZE     CLE15           NO - ERROR
                                        74  CK1    MARK
                                        75  *              CHECK THAT REC IS IN SUB-SCHEMA
   000021    6 00000 7211 17            76         LXL     X1,DEF,X7,PR6
   000022    100000 3010 03             77         CANX    X1,.SR,DU       IS IT IN SS
   000023    000127 6010 04             78         TNZ     AAE1,$          NO - ERROR
   000024                               79  NRC8   NULL
   000024    7 00517 7471 00            80         STX     X7,PRRC,,PR7    SAVE RC PTR
   000025    6 00000 2211 10            81         LDX     X1,DEF,X0,PR6   GET DEF TYPE FROM AC
   000026    200000 3010 03             82         CANX    X1,.AC,DU       IS IT AN AC
   000027 (0)000145 6000 00             83         TZE     CLE16           NO - ERROR
   000030    000010 3010 03             84           CANX     X1,.INDEXED,DU       Is it indexed
   000031 (0)000100 6010 00             85           TNZ      AIND                 Yes. Find absolute for indexed
   000032    7 00041 2341 00            86         SZN     ROCUR,,PR7
   000033 (0)000156 6000 00             87         TZE     ROZ             ZERO - ERROR
   000034 (0)000056 6040 00             88         TMI     RONEG
                                        89  *  RECORD OCUR. NO. IS POS - START FROM BEGINNING OF AREA
   000035    6 00010 2361 10            90         LDQ     DBLIM,X0,PR6    GET LO DBK OF AREA
   000036    000001 1360 07             91         SBLQ    1,DL            MAKE IT DBK 1 LESS THAN AREA MAX
   000037    7 00510 2231 00            92         LDX     X3,RVI,,PR7     SET X3 TO REC VAR IN
   000040    7 00000 7561 13            93         STQ     DBKEY,X3,PR7    PUT DBK OF 1ST REC IN REC VAR
   000041    7 00005 7401 13            94         STX     X0,ACPTR,X3,PR7  PUT AC IN REC VAR
   000042                               95  FL1      NULL
 12:38 09/05/97  FILE=ZIM$DBAA.:ZIC0TSI       IDS-II  FIND ABSOLUTE WITHIN AREA                          5    BMAP - B00
   000042  X 000000 7010 00             96           DBCAL    ZIG$DBPNA,,PER18     FIND NEXT OF AREA
   000043 (0)000170 7020 00
   000044    5 00006 2341 00
   000045    777776 6010 04
   000046    7 00041 2351 00            97         LDA     ROCUR,,PR7      GET OCUR. NO.
   000047    000001 1350 07             98         SBLA    1,DL            DECR.
   000050 (0)000126 6000 00             99         TZE     RECF4           ZERO - DONE
   000051    7 00041 7551 00           100         STA     ROCUR,,PR7      SAVE
   000052    7 00510 2371 00           101         LDAQ    RVI,,PR7        * REVERSE
   000053    7 00511 7551 00           102         STA     RVO,,PR7        *  IN &
   000054    7 00510 7561 00           103         STQ     RVI,,PR7        *   OUT REC VAR
   000055 (0)000042 7100 00            104         TRA     FL1             GO GET NEXT
                                       105  *  RECORD OCCURRENCE NO. IS NEG - START FROM END OF AREA
   000056                              106  RONEG  NULL
   000056    6 00003 2231 10           107           LDX      X3,WSOF,X0,PR6       Get work space offset
   000057    7 00003 2361 13           108           LDQ      HIGHDBK,X3,PR7       Get high DBK of area
   000060    000001 0360 07            109         ADLQ    1,DL            MAKE IT 1 MORE THAN AREA MAX
   000061    7 00510 2231 00           110         LDX     X3,RVI,,PR7     SET X3 TO REC VAR IN
   000062    7 00000 7561 13           111         STQ     DBKEY,X3,PR7    PUT LAST DBK OF AREA + 1 IN REC VAR
   000063    7 00005 7401 13           112         STX     X0,ACPTR,X3,PR7  PUT AC IN REC VAR
   000064                              113  RL1    NULL
   000064  X 000000 7010 00            114           DBCAL    ZIG$DBPPA,,PER19     Find prior of area
   000065 (0)000170 7020 00
   000066    5 00006 2341 00
   000067    777776 6010 04
   000070    7 00041 2351 00           115         LDA     ROCUR,,PR7      GET OCUR. NO.
   000071    000001 0350 07            116         ADLA    1,DL            INCR.
   000072 (0)000126 6000 00            117         TZE     RECF4           ZERO - DONE
   000073    7 00041 7551 00           118         STA     ROCUR,,PR7      SAVE
   000074    7 00510 2371 00           119         LDAQ    RVI,,PR7        * REVERSE
   000075    7 00511 7551 00           120         STA     RVO,,PR7        *  IN &
   000076    7 00510 7561 00           121         STQ     RVI,,PR7        *   OUT REC VAR
   000077 (0)000064 7100 00            122         TRA     RL1             GO GET PRIOR
                                       123  *
                                       124  *        Find absolute within indexed area handled here
                                       125  *
   000100                              126  AIND     NULL
 12:38 09/05/97  FILE=ZIM$DBAA.:ZIC0TSI       IDS-II  FIND ABSOLUTE WITHIN AREA                          6    BMAP - B00
   000100    7 00517 2271 00           127           LDX      X7,PRRC,,PR7         Get RC pointer
   000101 (0)000105 6010 00            128           TNZ      GOTRC
   000102    6 00001 7241 10           129           LXL      X4,ACRAN,X0,PR6      Follow chain to
   000103    6 00002 2271 14           130           LDX      X7,RCRAH,X4,PR6      RC for area
   000104    7 00517 7471 00           131           STX      X7,PRRC,,PR7         Save RC
   000105                              132  GOTRC    NULL
   000105    6 00002 7251 17           133           LXL      X5,RCRSN,X7,PR6      Follow chain to
   000106    6 00003 7261 15           134           LXL      X6,SCRSH,X5,PR6      SC for primary (always first)
   000107    7 00520 7461 00           135           STX      X6,PRSC,,PR7         Save SC
   000110    7 00510 2231 00           136           LDX      X3,RVI,,PR7          Set X3 to RVI
   000111    7 00005 7401 13           137           STX      X0,ACPTR,X3,PR7      Save in RECVAR
                                       138  *  Parameters now set up for proper call
   000112    7 00041 2341 00           139           SZN      ROCUR,,PR7
   000113 (0)000156 6000 00            140           TZE      ROZ                  Zero illegal
   000114 (0)000122 6040 00            141           TMI      INEG
   000115  X 000000 7010 00            142           DBCAL    ZIM$IFINDF,,PER20    Find first
   000116 (0)000170 7020 00
   000117    5 00006 2341 00
   000120    777776 6010 04
   000121 (0)000126 7100 00            143          TRA     RECF4
   000122  X 000000 7010 00            144  INEG     DBCAL    ZIM$IFINDL,,PER20    Find last
   000123 (0)000170 7020 00
   000124    5 00006 2341 00
   000125    777776 6010 04
                                       145
   000126                              146  RECF4  NULL
                                       147  *  CHECK REC PRIVACY
   000126    7 00511 2221 00           148         LDX     X2,RVO,,PR7
   000127    7 00006 2271 12           149         LDX     X7,RCPTR,X2,PR7  GET RC
   000130    6 00004 2211 17           150         LDX     X1,RCWSO,X7,PR6  GET WORK SPACE OFST
   000131    7 00000 2211 11           151         LDX     X1,PRIV,X1,PR7
   000132    000004 3010 03            152         CANX    X1,PF,DU        IS PRIVACY SATISFIED
   000133 (0)000163 6000 00            153         TZE     PRVE1           NO
                                       154  *  UPDATE CURRENCIES
   000134  X 000000 7010 00            155           ICCAL    ZIG$DBUPC,,UCER9     Update currencies
   000135 (0)000167 7020 00
   000136    5 00006 2341 00
 12:38 09/05/97  FILE=ZIM$DBAA.:ZIC0TSI       IDS-II  FIND ABSOLUTE WITHIN AREA                          7    BMAP - B00
   000137    777776 6010 04
                                       156  *  MOVE NAMES TO SPEC. REGS.
   000140  X 000000 7010 00            157         DBCAL   ZIG$DBUSR,,USRE7
   000141 (0)000167 7020 00
   000142    5 00006 2341 00
   000143    777776 6010 04
                                       158  *  RETURN
   000144  X 000000 7020 00            159           DBRET
                                       160  *
                                       161  *  ERRORS DETECTED IN THIS ROUTINE
                                       162  *
                                       163         IFE     A,1,%CK1
   000145                              164  CLE15  NULL                    3RD ARG NOT RC OR ZERO
   000145                              165  CLE16  NULL                    4TH ARG NOT AC
   000145    210562 2350 07            166         LDA     ARGER,DL
   000146    000000 6200 00            167         EAX     X0,0            NULL AC
   000147    000000 6260 00            168         EAX     X6,0            NULL SC
   000150    000000 6270 00            169         EAX     X7,0            NULL RC
   000151 (0)000171 7100 00            170         TRA     FAR1
                                       171  CK1    MARK
   000152                              172  AAE1   NULL                    REC NOT IN SUB-SCHEMA
   000152    010150 2350 07            173         LDA     IRSN,DL
   000153    000000 6200 00            174         EAX     X0,0            NULL AC
   000154    000000 6260 00            175         EAX     X6,0            NULL SC
   000155    000014 7100 04            176         TRA     FAR1,$
   000156                              177  ROZ    NULL                    RECORD OCUR. NO. ZERO
   000156    210562 2350 07            178         LDA     ARGER,DL
   000157    000000 6200 00            179         EAX     X0,0            NULL AC
   000160    000000 6260 00            180         EAX     X6,0            NULL SC
   000161    000000 6270 00            181         EAX     X7,0            NULL RC
   000162 (0)000171 7100 00            182         TRA     FAR1
   000163                              183  PRVE1  NULL                    REC PRIVACY NOT SATISFIED
   000163    257764 2350 07            184         LDA     LR,DL
   000164    000000 6200 00            185         EAX     X0,0            NULL AC
   000165    000000 6260 00            186         EAX     X6,0            NULL SC
   000166 (0)000171 7100 00            187         TRA     FAR1
                                       188  *
 12:38 09/05/97  FILE=ZIM$DBAA.:ZIC0TSI       IDS-II  FIND ABSOLUTE WITHIN AREA                          8    BMAP - B00
                                       189  *  ERRORS DETECTED IN SUBORDINATE ROUTINES
                                       190  *
   000167                              191  UCER9  NULL                    UPDATE CURRENCY ERROR
   000167                              192  USRE7  NULL                    UPDATE SPEC REG ERROR
   000167                              193  STER1  NULL                    ERROR ACCUMULATING STATISTICS
   000167 (0)000171 7100 00            194         TRA     FAR1
                                       195  *
                                       196  *  ERRORS DETECTED IN PRIMITIVES
                                       197  *
   000170                              198  PER18  NULL                    PAGE ERROR - FIND NEXT
   000170                              199  PER19  NULL                    PAGE ERROR - FIND PRIOR
   000170                              200  PER20  NULL                    PAGE ERROR - FIND NEXT DELETED           <EHW>
   000170 (0)000171 7100 00            201         TRA     FAR1
                                       202  *
                                       203  *  COMMON ERROR RETURN
                                       204  *
   000171  X 000000 7020 00            205  FAR1     DBALT
                                       206         END

  CONTROL SECTION TABLE

   0 CODE   EVEN  000172
   1 RODATA EVEN  000000 LITERALS

 12:38 09/05/97  FILE=ZIM$DBAA.:ZIC0TSI       SYMBOL TABLE                                               9    BMAP - B00
 41000000 000000200000 .AC            *21        82
 40000000 000000000100 .AG            *21
 40000000 000000002000 .ALTO          *21
 40000000 000000000077 .ANL           *21
 40000000 000000200000 .APDN          *21
 40000000 000000000100 .ATMP          *21
 40000000 000000400000 .AV            *21
 40000000 000000400000 .B0            *21
 40000000 000000200000 .B1            *21
 40000000 000000000200 .B10           *21
 40000000 000000000100 .B11           *21
 40000000 000000000040 .B12           *21
 40000000 000000000020 .B13           *21
 40000000 000000000010 .B14           *21
 40000000 000000000004 .B15           *21
 40000000 000000000002 .B16           *21
 40000000 000000000001 .B17           *21
 40000000 000000400000 .B18           *21
 40000000 000000200000 .B19           *21
 40000000 000000100000 .B2            *21
 40000000 000000100000 .B20           *21
 40000000 000000040000 .B21           *21
 40000000 000000020000 .B22           *21
 40000000 000000010000 .B23           *21
 40000000 000000004000 .B24           *21
 40000000 000000002000 .B25           *21
 40000000 000000001000 .B26           *21
 40000000 000000000400 .B27           *21
 40000000 000000000200 .B28           *21
 40000000 000000000100 .B29           *21
 40000000 000000040000 .B3            *21
 40000000 000000000040 .B30           *21
 40000000 000000000020 .B31           *21
 40000000 000000000010 .B32           *21
 40000000 000000000004 .B33           *21
 40000000 000000000002 .B34           *21
 40000000 000000000001 .B35           *21
 12:38 09/05/97  FILE=ZIM$DBAA.:ZIC0TSI       SYMBOL TABLE                                               10   BMAP - B00
 40000000 000000020000 .B4            *21
 40000000 000000010000 .B5            *21
 40000000 000000004000 .B6            *21
 40000000 000000002000 .B7            *21
 40000000 000000001000 .B8            *21
 40000000 000000000400 .B9            *21
 40000000 000000000001 .BREAK         *21
 40000000 000000010000 .BRK           *21
 40000000 000000020000 .BTB           *21
 40000000 000000000001 .CAC           *21
 40000000 000000000000 .CAE           *21
 40000000 000000000200 .CANSSS        *21
 40000000 000000000400 .CD            *21
 40000000 000000040000 .CFLC          *21
 40000000 000000400000 .CHKSUM        *21
 40000000 000000100000 .CJRNL         *21
 40000000 000000000077 .CNSZ          *21
 40000000 000000160000 .COMC          *21
 40000000 000000000020 .CONT          *21
 40000000 000000000000 .CSE           *21
 40000000 000000700000 .CTYP          *21
 41000000 000000000270 .DBEST         *21
 41000000 000000000470 .DBIC          *21
 40000000 000000077777 .DBPT          *21
 41000000 000000000370 .DBSTK         *21
 40000000 000000020000 .DELM          *21
 40000000 000000002000 .DIDP          *21
 40000000 000000000077 .DNDX          *21
 40000000 000000600000 .DORD          *21
 40000000 000000000200 .DP            *21
 40000000 000000100000 .DPS           *21
 40000000 000000200000 .DPSA          *21
 40000000 000000400000 .DPST          *21
 40000000 000000000002 .DUMP          *21
 40000000 000000002000 .DUPC          *21
 40000000 000000010000 .DUPP          *21
 40000000 000000200000 .EBCL          *21
 12:38 09/05/97  FILE=ZIM$DBAA.:ZIC0TSI       SYMBOL TABLE                                               11   BMAP - B00
 40000000 000000400000 .EBCM          *21
 40000000 000000200000 .ENCRP         *21
 40000000 000000000077 .ENDX          *21
 40000000 000000000400 .ENQ           *21
 40000000 000000004000 .ETC           *21
 40000000 000000000400 .EXIT          *21
 40000000 000000000200 .FMOD          *21
 40000000 000000000077 .FNL           *21
 40000000 000000000074 .FORG          *21
 40000000 000000002000 .FR            *21
 40000000 000000000100 .FSR           *21
 40000000 000000003400 .FUSE          *21
 40000000 000000010000 .FVF           *21
 40000000 000000040000 .FVR           *21
 41000000 000000000010 .INDEXED       *21        84
 40000000 000000777777 .IXID          *21
 40000000 000000001777 .IXNUM         *21
 40000000 000000000004 .KEYED         *21
 40000000 000000010000 .LCK           *21
 40000000 000000400000 .LEIL          *21
 40000000 000000001000 .LG            *21
 40000000 000000000002 .LOAD          *21
 40000000 000000020000 .MAR           *21
 40000000 000000000007 .MEMT          *21
 40000000 000000010000 .MRL           *21
 40000000 000000040000 .MSM           *21
 60000000 000000000001 .N6685         *21
 40000000 000000100000 .NAI           *21
 40000000 000000200000 .NBI           *21
 40000000 000000000002 .NCIA          *21
 40000000 000000040000 .NMV           *21
 40000000 000000017777 .NOENT         *21
 40000000 000000400000 .OA            *21
 40000000 000000740000 .OPEV          *21
 40000000 000000100000 .OSM           *21
 40000000 000000100000 .PAFIL         *21
 40000000 000000200000 .PAHVR         *21
 12:38 09/05/97  FILE=ZIM$DBAA.:ZIC0TSI       SYMBOL TABLE                                               12   BMAP - B00
 40000000 000000000001 .PAIA          *21
 40000000 000000040000 .PALIL         *21
 40000000 000000020000 .PALVR         *21
 40000000 000000400000 .PANLL         *21
 40000000 000000400000 .PCKD          *21
 40000000 000000001600 .PMOD          *21
 40000000 000000000520 .PRCSE         *21
 40000000 000000000007 .PSTO          *21
 40000000 000000006040 .PTAS          *21
 40000000 000000010100 .PTCHK         *21
 40000000 000000010200 .PTDEC         *21
 40000000 000000010140 .PTENC         *21
 40000000 000000020000 .RA            *21
 41000000 000000100000 .RC            *21        72
 40000000 000000400000 .RELEASE       *21
 40000000 000000000017 .RELT          *21
 40000000 000000004000 .RERA          *21
 40000000 000000400000 .RERS          *21
 40000000 000000010000 .RKEY          *21
 40000000 000000000077 .RNL           *21
 40000000 000000200000 .RSTO          *21
 40000000 000000007777 .RTYP          *21
 40000000 000000040000 .SC            *21
 40000000 000000000070 .SETM          *21
 40000000 000000740000 .SETO          *21
 40000000 000000000700 .SETT          *21
 40000000 000000040000 .SFNP          *21
 40000000 000000004000 .SM            *21
 40000000 000000020000 .SMOD          *21
 40000000 000000000077 .SNL           *21
 40000000 000000020000 .SNSS          *21
 40000000 000000010000 .SO            *21
 41000000 000000100000 .SR            *21        77
 40000000 000000004000 .SRCR          *21
 40000000 000000001000 .SS            *21
 40000000 000000000007 .SSTP          *21
 40000000 000000004000 .SYN           *21
 12:38 09/05/97  FILE=ZIM$DBAA.:ZIC0TSI       SYMBOL TABLE                                               13   BMAP - B00
 40000000 000000000040 .SYNC          *21
 40000000 000000020000 .TJRNL         *21
 40000000 000000040000 .TMPLT         *21
 40000000 000000040000 .TRACE         *21
 40000000 000000000001 .TRENTRY       *21
 40000000 000000000012 .TRIDEL        *21
 40000000 000000000021 .TRIDELENQ     *21
 40000000 000000000024 .TRIDEQ        *21
 40000000 000000000013 .TRIMOD        *21
 40000000 000000000022 .TRIMODENQ     *21
 40000000 000000000014 .TRIREAD       *21
 40000000 000000000023 .TRIREADENQ    *21
 40000000 000000000011 .TRISTO        *21
 40000000 000000000020 .TRISTOENQ     *21
 40000000 000000000017 .TRPDEQ        *21
 40000000 000000000004 .TRPMOD        *21
 40000000 000000000016 .TRPMODENQ     *21
 40000000 000000000002 .TRPREAD       *21
 40000000 000000000015 .TRPREADENQ    *21
 40000000 000000000003 .TRPWRITE      *21
 40000000 000000000010 .TRRACC        *21
 40000000 000000000006 .TRRDEL        *21
 40000000 000000000007 .TRRMOD        *21
 40000000 000000000005 .TRRSTO        *21
 40000000 000000004000 .ULCK          *21
 40000000 000000400000 .UPDT          *21
 40000000 000000000040 .VIA           *21
 61000000 000000000001 A              *21        70       163
 01101000 000000000152 AAE1            78      *172
 40000000 000000000002 ABAS           *21
 40000000 000000000001 AC             *21
 40000000 777777777760 ACDEF          *21
 40000000 000000211070 ACDNL          *21
 40000000 000000000003 ACID           *21
 40000000 000000001016 ACOPN          *21
 40000000 000000000002 ACP            *21
 41000000 000000000005 ACPTR          *21        94       112       137
 12:38 09/05/97  FILE=ZIM$DBAA.:ZIC0TSI       SYMBOL TABLE                                               14   BMAP - B00
 40000000 000000000002 ACRAH          *21
 41000000 000000000001 ACRAN          *21       129
 40000000 000000001003 ACREC          *21
 40000000 000000000001 ACTDBCB        *21
 40000000 000000000002 ACTDBNO        *21
 40000000 000000001017 ACTP           *21
 40000000 000000000000 ACTSSS         *21
 40000000 000000000000 ACTSZ          *21
 40000000 000000210565 AFNP           *21
 40000000 000000000635 AFT            *21
 01101000 000000000100 AIND            85      *126
 40000000 000000022124 AIR            *21
 40000000 000000000016 AMAX           *21
 40000000 000000000026 ANAM           *21
 40000000 000000021614 ANR            *21
 40000000 000000000001 APNO           *21
 41000000 000000210562 ARGER          *21       166       178
 41000000 000000000020 ARGS           *21
 40000000 000000000077 ARGS2          *21
 40000000 000000210713 ARNAF          *21
 40000000 000000000003 ATBL           *21
 40000000 000000000000 ATRIB          *21
 40000000 000000000002 AVLN           *21
 40000000 000000000013 AWS$           *21
 40000000 000000000010 AWSZ           *21
 60000000 000000000001 B              *21
 40000000 000000001006 B32N           *21
 40000000 000000001007 B36N           *21
 40000000 000000001056 B72N           *21
 40000000 000000000001 BADDR          *21
 40000000 000000210712 BADSEED        *21
 40000000 777777777765 BDCW           *21
 40000000 000000000633 BEF            *21
 40000000 000000020000 BEFW           *21
 40000000 000000000751 BEMT           *21
 40000000 777777777761 BID            *21
 40000000 777777777762 BIND           *21
 12:38 09/05/97  FILE=ZIM$DBAA.:ZIC0TSI       SYMBOL TABLE                                               15   BMAP - B00
 40000000 000000000007 BLKD           *21
 40000000 000000303331 BME02          *21
 41000000 000000001203 BMPB           *21
 40000000 000000000652 BN1            *21
 40000000 000000000654 BN2            *21
 40000000 000000000004 BPL            *21
 40000000 000000000015 BPLDBK         *21
 40000000 000000000034 BSPG           *21
 40000000 777777777763 BSTAT          *21
 40000000 000000000750 BTX0           *21
 41000000 000000001160 BUF4           *21
 41000000 000000001170 BUF6           *21
 41000000 000000000000 BUFORG         *21
 40000000 000000001060 BUFRQ          *21
 40000000 000000000006 BURRID         *21
 41000000 000000000020 BWASZ          *21
 60000000 000000000001 C              *21
 40000000 000000000050 CAAC           *21
 40000000 000000000050 CACD           *21
 40000000 000000000111 CAG            *21
 40000000 000000001033 CAL            *21
 40000000 000000000026 CALLPM0        *21
 40000000 000000000003 CANSSS         *21
 40000000 000000000003 CBCPA          *21
 40000000 000000000002 CBCPO          *21
 40000000 000000000002 CBENO          *21
 40000000 000000000014 CBFSZ          *21
 40000000 000000000753 CBIB           *21
 40000000 000000001030 CBID           *21
 40000000 000000000014 CBRCE          *21
 40000000 000000000014 CBRCP          *21
 40000000 000000001033 CBRID          *21
 40000000 000000000015 CBRPA          *21
 40000000 000000000031 CCHAR          *21
 40000000 000000000040 CDBK           *21
 40000000 000000000030 CDES           *21
 40000000 000000000110 CDP            *21
 12:38 09/05/97  FILE=ZIM$DBAA.:ZIC0TSI       SYMBOL TABLE                                               16   BMAP - B00
 40000000 000000001044 CDPSI          *21
 40000000 000000000002 CDRH           *21
 40000000 000000000003 CDRN           *21
 40000000 000000000002 CDSH           *21
 40000000 000000000003 CDSN           *21
 40000000 000000000722 CENTRN         *21
 40000000 000000000722 CENTRO         *21
 40000000 000000000716 CENTRY         *21
 41000000 000000001053 CFCT           *21
 40000000 000000000670 CFLPT1         *21
 40000000 000000000672 CFLPT2         *21
 40000000 000000000015 CFSA           *21
 40000000 000000000646 CHDBK          *21
 40000000 000000000773 CHR            *21
 40000000 000000000006 CHRD           *21
 40000000 000000000772 CHRO           *21
 40000000 000000007640 CHRTP          *21
 40000000 000000001043 CIAC           *21
 40000000 000000000012 CIAWS          *21
 40000000 000000001051 CIBSI          *21
 40000000 000000000516 CIND           *21
 40000000 000000001041 CINVSZ         *21
 40000000 000000001042 CIPG           *21
 40000000 000000001050 CIPSI          *21
 40000000 000000000000 CIRUN          *21
 40000000 000000000002 CIRWS          *21
 40000000 000000000002 CISWS          *21
 40000000 000000000014 CIWSOF         *21
 40000000 000000303374 CKSM           *21
 40000000 000000000022 CLCN           *21
 40000000 000000000023 CLCP           *21
 40000000 000000000003 CLCRC          *21
 40000000 000000000003 CLCSC          *21
 01101000 000000000145 CLE15           73      *164
 01101000 000000000145 CLE16           83      *165
 40000000 000000000237 CLI            *21
 40000000 000000000026 CLNG           *21
 12:38 09/05/97  FILE=ZIM$DBAA.:ZIC0TSI       SYMBOL TABLE                                               17   BMAP - B00
 40000000 000000000052 CMPL           *21
 40000000 000000000002 CN             *21
 40000000 000000303315 CNE1           *21
 40000000 000000006034 CNUL           *21
 40000000 000000100000 COB74          *21
 40000000 000000000001 COFS           *21
 40000000 000000000045 CONCD          *21
 40000000 000000007764 CP6PGSZB       *21
 41000000 000000001775 CP6PGSZW       *21
 40000000 000000001000 CPGR           *21
 40000000 000000000723 CPTRN          *21
 40000000 000000000723 CPTRO          *21
 60000000 000000000004 CPW            *21
 40000000 000000000112 CRA            *21
 40000000 000000001004 CRD            *21
 40000000 000000000764 CREC           *21
 40000000 000000006344 CRIT           *21
 40000000 000000006200 CRNUL          *21
 40000000 000000007330 CRST           *21
 41000000 000000001223 CRUN           *21
 41000000 000000000000 CSECT          *21
 40000000 000000000007 CSMPP          *21
 40000000 000000001000 CSPAC          *21
 40000000 000000000004 CSPAH          *21
 40000000 777777777776 CSPES          *21
 40000000 777777777776 CSPSB          *21
 40000000 000000000115 CSTS           *21
 40000000 000000000071 CSUB           *21
 40000000 000000000017 CSZ            *21
 40000000 000000000057 CTMASK         *21
 40000000 000000000774 CTPAI          *21
 40000000 000000000240 CURLN          *21
 40000000 000000000236 CURLT          *21
 40000000 000000000770 CURPG          *21
 40000000 000000000001 CURR           *21
 40000000 000000000035 CURRS          *21
 40000000 000000000037 CURSS          *21
 12:38 09/05/97  FILE=ZIM$DBAA.:ZIC0TSI       SYMBOL TABLE                                               18   BMAP - B00
 40000000 000000001005 CWRT           *21
 40000000 000000000237 CWSOF          *21
 60000000 000000000001 D              *21
 40000000 000000000003 DBAN           *21
 40000000 000000000036 DBDR           *21
 40000000 000000000037 DBFN           *21
 40000000 000000000754 DBK            *21
 40000000 000000000777 DBKAC          *21
 41000000 000000000000 DBKEY          *21        93       111
 40000000 000000000000 DBKL           *21
 40000000 000000007474 DBKN           *21
 41000000 000000000776 DBKR           *21
 40000000 000000000777 DBKRQ          *21
 40000000 000000000234 DBKSI          *21
 40000000 000000000651 DBKSR          *21
 40000000 000000000047 DBKYN          *21
 40000000 000000210652 DBLC01         *21
 40000000 000000210653 DBLC05         *21
 40000000 000000303334 DBLC07         *21
 40000000 000000210655 DBLD01         *21
 41000000 000000000010 DBLIM          *21        90
 40000000 000000000033 DBPKY          *21
 40000000 000000000023 DBRN           *21
 40000000 000000000013 DBSN           *21
 40000000 000000000001 DBST           *21
 40000000 000000000757 DCDSR          *21
 40000000 000000210650 DCE1           *21
 40000000 000000001053 DCPR           *21
 40000000 000000001053 DCPW           *21
 40000000 000000000015 DCTBL          *21
 40000000 000000000032 DDBK           *21
 40000000 000000000006 DDCB           *21
 40000000 000000011754 DDI            *21
 41000000 000000000000 DEF            *21        71        76        81
 40000000 000000000014 DEF2           *21
 40000000 000000303413 DELAK          *21
 40000000 000000000036 DELRS          *21
 12:38 09/05/97  FILE=ZIM$DBAA.:ZIC0TSI       SYMBOL TABLE                                               19   BMAP - B00
 40000000 000000000732 DEPCW          *21
 40000000 000000303414 DLDBK          *21
 40000000 000000210627 DLE1           *21
 40000000 000000303310 DLE2           *21
 40000000 000000210631 DLE3           *21
 40000000 000000016040 DNES           *21
 40000000 777777777777 DPAGN          *21
 40000000 000000000020 DPPI           *21
 40000000 000000000053 DPSLW          *21
 40000000 000000000003 DS             *21
 40000000 000000001063 DSDES          *21
 40000000 000000303316 DSE1           *21
 40000000 000000000735 DUSEPA         *21
 60000000 000000000001 E              *21
 40000000 000000303251 EDPER          *21
 40000000 000000000026 EEIND          *21
 40000000 000000000713 EFIND          *21
 40000000 000000001030 ELO            *21
 40000000 000000210711 ENCPNA         *21
 40000000 000000000007 ENCRP          *21
 40000000 000000000752 ENDSR          *21
 40000000 000000210647 ENE1           *21
 40000000 000000000716 ENIND          *21
 40000000 000000000013 ENTBL          *21
 40000000 000000000710 ENTNO          *21
 40000000 000000000712 ENTPTR         *21
 40000000 000000000717 ENTSZ          *21
 40000000 000000000711 ENTTYP         *21
 40000000 000000004064 EOSR           *21
 40000000 000000000004 ES             *21
 41000000 000000000100 ESTSZ          *21
 40000000 000000000725 ESZ            *21
 40000000 000000000005 ETCADR         *21
 40000000 000000000005 ETCDBNO        *21
 40000000 000000000064 EXCCD          *21
 40000000 000000234534 FALRT          *21
 01101000 000000000171 FAR1           170       176       182       187       194       201      *205
 12:38 09/05/97  FILE=ZIM$DBAA.:ZIC0TSI       SYMBOL TABLE                                               20   BMAP - B00
 40000000 000000001055 FBF72          *21
 40000000 000000001025 FBU61          *21
 40000000 000000001020 FBUF           *21
 40000000 000000001026 FBUF1          *21
 40000000 000000001027 FBUF4          *21
 40000000 000000001024 FBUF6          *21
 40000000 000000001022 FBUFM          *21
 40000000 000000001021 FBUFU          *21
 40000000 000000001023 FBUMD          *21
 40000000 000000000004 FCN            *21
 40000000 000000000051 FCNT           *21
 40000000 000000000002 FCP            *21
 40000000 000000000047 FCSS           *21
 40000000 000000000005 FD             *21
 40000000 000000210637 FDE1           *21
 40000000 000000303320 FDE2           *21
 40000000 000000303321 FDE3           *21
 40000000 000000210642 FDE4           *21
 40000000 000000210643 FDE5           *21
 40000000 000000210644 FDE6           *21
 40000000 000000303325 FDE7           *21
 40000000 000000303326 FDE8           *21
 40000000 000000000021 FEASZ          *21
 40000000 000000000740 FETM           *21
 40000000 000000000006 FI             *21
 40000000 000000000103 FIAC           *21
 41000000 000000001100 FIB1           *21
 41000000 000000001130 FIBP           *21
 40000000 000000000000 FIBX           *21
 40000000 000000000102 FICNT          *21
 40000000 000000000005 FIPN           *21
 40000000 000000000054 FKIND          *21
 01101000 000000000042 FL1            *95       104
 40000000 000000000015 FLAGS          *21
 40000000 000000000244 FLDDSC         *21
 40000000 000000000046 FLDTL          *21
 40000000 000000000020 FMSBF          *21
 12:38 09/05/97  FILE=ZIM$DBAA.:ZIC0TSI       SYMBOL TABLE                                               21   BMAP - B00
 40000000 000000000006 FNAM           *21
 40000000 000000000250 FNIND          *21
 40000000 000000000004 FNL            *21
 40000000 000000000101 FRAC           *21
 40000000 000000000002 FRANGE         *21
 40000000 000000211400 FRDNL          *21
 40000000 000000200000 FRTRN          *21
 40000000 000000000005 FRWSO          *21
 40000000 000000000767 FSLN           *21
 40000000 000000000766 FSOF           *21
 40000000 000000000060 FTIND          *21
 40000000 000000303240 FTLINCR        *21
 40000000 000000000021 FWSSZ          *21
 40000000 000000000246 GACDK          *21
 40000000 000000000014 GDCB           *21
 41000000 000000000006 GERROR         *21        96       114       142       144       155       157
 40000000 000000000016 GINHIB         *21
 40000000 000000000020 GIOAWS         *21
 40000000 000000000022 GIOBUF         *21
 40000000 000000000021 GIOPGNO        *21
 01101000 000000000105 GOTRC          128      *132
 40000000 000000000015 GPAGE          *21
 40000000 000000000010 GRETAC         *21
 40000000 000000000011 GRETFR         *21
 40000000 000000000013 GRETRC         *21
 40000000 000000000012 GRETSC         *21
 41000000 000000000025 GRLCW          *21        61
 40000000 000000000014 GSTCD          *21
 40000000 000000000007 GSYSERR        *21
 40000000 000000000010 GT             *21
 40000000 000000000046 GTRNAME        *21
 40000000 000000000055 GTRPDCB        *21
 40000000 000000000056 GTRPNO         *21
 40000000 000000000057 GTRRDBK        *21
 40000000 000000000060 GTRRTYPE       *21
 40000000 000000000060 GTRTYPE        *21
 40000000 000000000027 HASH           *21
 12:38 09/05/97  FILE=ZIM$DBAA.:ZIC0TSI       SYMBOL TABLE                                               22   BMAP - B00
 40000000 000000000022 HIA            *21
 40000000 000000000775 HIDB           *21
 41000000 000000000003 HIGHDBK        *21       108
 40000000 000000000004 HIGHPG         *21
 40000000 000000001037 HIL            *21
 40000000 000000000002 HILN           *21
 40000000 000000000006 HPOS           *21
 40000000 000000000756 IAAC           *21
 40000000 000000001011 IACLN          *21
 40000000 000000001010 IALC           *21
 40000000 000000010314 IAN            *21
 40000000 000000001012 IANLN          *21
 40000000 000000000001 IASID          *19
 40000000 000000020320 ICA            *21
 40000000 000000000023 ICKSMP         *21
 40000000 000000000024 ICKSMV         *21
 40000000 000000210742 ICNR           *21
 41000000 000000000020 ICSIZ          *21
 40000000 000000010004 IDBK           *21
 40000000 000000012120 IDI            *21
 40000000 000000000023 IDS            *21
 40000000 000000000011 IF             *21
 40000000 000000000021 IFIPN          *21
 40000000 000000000000 IFR            *21
 40000000 000000234546 IKSEQ          *21
 40000000 000000000113 INAFLAG        *21
 40000000 000000000016 INCHA          *21
 01101000 000000000122 INEG           141      *144
 40000000 000000210566 INNM           *21
 40000000 000000210567 INSS           *21
 40000000 000000210575 INSST          *21
 40000000 000000303241 INTER          *21
 40000000 000000400000 INTII          *21
 40000000 000000000013 INTVL          *21
 40000000 000000001060 INVFLG         *21
 40000000 000000001043 INVOF          *21
 40000000 000000000014 INVT           *21
 12:38 09/05/97  FILE=ZIM$DBAA.:ZIC0TSI       SYMBOL TABLE                                               23   BMAP - B00
 40000000 000000000034 IOBLK          *21
 40000000 000000303354 IOCLSD         *21
 40000000 000000303355 IOCLSK         *21
 40000000 000000303257 IOE1           *21
 40000000 000000303264 IOE11          *21
 40000000 000000303265 IOE12          *21
 40000000 000000303266 IOE18          *21
 40000000 000000303260 IOE2           *21
 40000000 000000303261 IOE3           *21
 40000000 000000303262 IOE7           *21
 40000000 000000303263 IOE8           *21
 40000000 000000303363 IOFLSH         *21
 40000000 000000210676 IOGDCB         *21
 40000000 000000001002 IOINC          *21
 40000000 000000305160 IOINI          *21
 40000000 000000305155 IONOTIDS       *21
 40000000 000000305154 IONOTKEY       *21
 40000000 000000210677 IOOPND         *21
 40000000 000000210700 IOOPNK         *21
 40000000 000000303361 IORDD          *21
 40000000 000000305156 IOSCHEMA       *21
 40000000 000000001052 IOSTS          *21
 40000000 000000303362 IOWRTD         *21
 41000000 000000000750 IOWS           *21
 40000000 000000000647 IPC            *21
 40000000 000000000650 IPCF           *21
 40000000 000000000006 IROLLFLAG      *21
 41000000 000000010150 IRSN           *21       173
 40000000 000000000004 ISYSDCB        *21
 40000000 000000000005 ISYSERR        *21
 40000000 000000000061 ITPTR          *21
 40000000 000000000060 ITRS           *21
 40000000 000000021760 IUM            *21
 40000000 000000000017 IUSZ           *21
 40000000 000000234522 IVDBK          *21
 40000000 000000000011 IXBUF$         *21
 40000000 000000000046 IXFBSZ         *21
 12:38 09/05/97  FILE=ZIM$DBAA.:ZIC0TSI       SYMBOL TABLE                                               24   BMAP - B00
 40000000 777777777776 IXID           *21
 40000000 777777777777 IXPLL          *21
 40000000 000000000523 KCARG0         *21
 40000000 000000000524 KCARG3         *21
 40000000 000000000525 KCARG4         *21
 40000000 000000000700 KCREG          *21
 40000000 000000000006 KDCB           *21
 40000000 000000000666 KEYDS          *21
 40000000 000000000010 KEYPA          *21
 40000000 777777777776 KLNG           *21
 40000000 000000000022 KPASZ          *21
 40000000 000000000006 KWSZ           *21
 40000000 000000000052 LANGC          *21
 40000000 000000001014 LAS            *21
 40000000 000000700000 LCODM          *21
 40000000 000000001045 LDPSI          *21
 40000000 000000001071 LINPT          *21
 40000000 000000001017 LNCNT          *21
 40000000 000000000762 LNNO           *21
 40000000 000000001036 LOL            *21
 40000000 000000000715 LOLIM          *21
 40000000 000000000023 LPASZ          *21
 40000000 000000000012 LPP            *21
 41000000 000000257764 LR             *21       184
 40000000 000000301270 LRA            *21
 40000000 000000000017 LRSZ           *21
 40000000 000000001035 LSPC           *21
 40000000 000000000750 LUPD           *21
 61000000 000000000001 M9             *21
 40000000 000000000013 MD             *21
 40000000 000000300000 MDQS           *21
 40000000 000000000730 MEMPTR         *21
 40000000 000000000727 MEMTYP         *21
 40000000 000000000045 MODCD          *21
 41000000 000000001207 MODFL          *21
 40000000 000000000042 MODFR          *21
 40000000 000000000044 MODIN          *21
 12:38 09/05/97  FILE=ZIM$DBAA.:ZIC0TSI       SYMBOL TABLE                                               25   BMAP - B00
 40000000 000000000044 MODRS          *21
 40000000 000000000043 MODSC          *21
 40000000 000000000047 MRBKI          *21
 40000000 000000210632 MRE4           *21
 40000000 000000303313 MRE5           *21
 40000000 000000210634 MRE7           *21
 40000000 000000400000 MW             *21
 40000000 000000000025 NCH            *21
 40000000 000000000002 NCHA           *21
 40000000 000000000005 NCHRS          *21
 40000000 000000000014 NDCD           *21
 40000000 000000000012 NENC           *21
 40000000 000000000634 NEW            *21
 40000000 000000001072 NEWSIZ         *21
 40000000 000000235164 NKA            *21
 40000000 000000235020 NKDB           *21
 40000000 000000303415 NLDBK          *21
 40000000 777777777777 NLIND          *21
 40000000 000000001040 NLN            *21
 40000000 000000400000 NLNSA          *21
 41000000 000000001053 NOBF           *21
 40000000 000000000711 NOPTRS         *21
 40000000 000000000742 NPARCW         *21
 40000000 000000000630 NPIND          *21
 40000000 000000000004 NPOS           *21
 01101000 000000000024 NRC8            69       *79
 40000000 000000234510 NSA            *21
 40000000 000000234654 NSCS           *21
 40000000 000000234344 NSDB           *21
 40000000 000000000001 NSTS           *21
 40000000 000000000726 NUMENT         *21
 40000000 000000000727 NUMPTR         *21
 40000000 777777777760 NXBUF          *21
 40000000 000000000713 NXPRI          *21
 40000000 000000000771 NXTC           *21
 40000000 000000000001 OAACN          *21
 40000000 000000000022 OACIWSOF       *21
 12:38 09/05/97  FILE=ZIM$DBAA.:ZIC0TSI       SYMBOL TABLE                                               26   BMAP - B00
 40000000 000000000001 OAOFST         *21
 40000000 000000000002 OARCN          *21
 40000000 000000000001 OASCN          *21
 40000000 000000000014 OD             *21
 40000000 000000000074 ODBK           *21
 40000000 000000001072 OLDSIZ         *21
 40000000 000000000101 OPADP          *21
 40000000 000000000741 OPARCW         *21
 40000000 000000210570 ORDNI          *21
 40000000 777777777777 OTVL           *21
 40000000 000000000252 OWNPTR         *21
 40000000 000000000016 PABUF          *21
 40000000 000000001041 PACD           *21
 40000000 000000000001 PACW           *21
 40000000 000000000733 PADBK          *21
 40000000 000000000740 PADUP          *21
 40000000 000000000745 PAEN           *21
 40000000 000000000745 PAEO           *21
 40000000 000000000734 PAEOF          *21
 40000000 000000303336 PAER1          *21
 40000000 000000303337 PAER2          *21
 40000000 000000303340 PAER3          *21
 40000000 000000303341 PAER4          *21
 40000000 000000303342 PAER5          *21
 40000000 000000303343 PAER6          *21
 40000000 000000000747 PAESZ          *21
 40000000 000000001060 PAFLG          *21
 40000000 000000000731 PAOPTR         *21
 40000000 000000000734 PAPOF          *21
 40000000 000000000714 PARCW          *21
 40000000 000000000726 PARVPA         *21
 40000000 000000000724 PASPLT         *21
 40000000 000000000004 PAWSZ          *21
 40000000 777777777762 PBUF           *21
 40000000 000000000020 PC             *21
 41000000 000000000510 PCB            *21
 40000000 000000000642 PCD            *21
 12:38 09/05/97  FILE=ZIM$DBAA.:ZIC0TSI       SYMBOL TABLE                                               27   BMAP - B00
 40000000 000000000642 PCD2           *21
 40000000 000000000247 PCEXI          *21
 40000000 000000000675 PCMIN          *21
 40000000 000000004541 PCOMP          *21
 40000000 000000000010 PD             *21
 40000000 000000000040 PE             *21
 40000000 000000000017 PENDING        *21
 01101000 000000000170 PER18           96      *198
 01101000 000000000170 PER19          114      *199
 01101000 000000000170 PER20          142       144      *200
 41000000 000000000004 PF             *21       152
 40000000 000000000400 PFG            *21
 40000000 000000000200 PFM            *21
 40000000 000000000100 PFS            *21
 40000000 000000000400 PG             *21
 40000000 000000001064 PGHD           *21
 40000000 000000000006 PGLIM          *21
 40000000 000000000003 PGRNG          *21
 40000000 000000000746 PGSIZE         *21
 40000000 000000000641 PGSPLT         *21
 40000000 000000000100 PKAW           *21
 40000000 000000001034 PLO            *21
 40000000 000000000004 PLSEP          *21
 40000000 000000000200 PM             *21
 40000000 000000001054 PNEOO          *21
 40000000 000000001047 POFSI          *21
 40000000 000000000005 PPOS           *21
 41000000 000000000000 PR0            *19        58        60        63        65        67
 41000000 000000000001 PR1            *19        62        66        68
 40000000 000000000002 PR2            *19
 40000000 000000000003 PR3            *19
 40000000 000000000004 PR4            *19
 41000000 000000000005 PR5            *19        61        96       114       142       144       155
                                      157
 41000000 000000000006 PR6            *19        71        76        81        90       107       129
                                      130       133       134       150
 41000000 000000000007 PR7            *19        64        80        86        92        93        94
 12:38 09/05/97  FILE=ZIM$DBAA.:ZIC0TSI       SYMBOL TABLE                                               28   BMAP - B00
                                       97       100       101       102       103       108       110
                                      111       112       115       118       119       120       121
                                      127       131       135       136       137       139       148
                                      149       151
 40000000 000000303267 PRE1           *21
 40000000 000000303277 PRE10          *21
 40000000 000000303270 PRE3           *21
 40000000 000000303271 PRE4           *21
 40000000 000000303272 PRE5           *21
 40000000 000000210613 PRE6           *21
 40000000 000000210614 PRE7           *21
 40000000 000000210615 PRE8           *21
 40000000 000000303276 PRE9           *21
 40000000 000000000522 PREXC          *21
 40000000 000000000521 PRFR           *21
 40000000 000000000521 PRFR2          *21
 41000000 000000000000 PRIV           *21       151
 40000000 000000000526 PROPA          *21
 41000000 000000000517 PRRC           *21        80       127       131
 40000000 000000000517 PRRS           *21
 41000000 000000000520 PRSC           *21       135
 40000000 000000000516 PRSS           *21
 40000000 000000000644 PRSTS          *21
 01101000 000000000163 PRVE1          153      *183
 40000000 000000000100 PS             *21
 41000000 000000000000 PS0SID         *19
 41000000 000000000001 PS1SID         *19
 41000000 000000000002 PS2SID         *19
 41000000 000000000003 PS3SID         *19
 41000000 000000000004 PS4SID         *19
 40000000 000000000005 PS5SID         *19
 40000000 000000000006 PS6SID         *19
 40000000 000000303416 PSA            *21
 40000000 000000000020 PSC            *21
 40000000 000000000010 PSD            *21
 40000000 000000000004 PSF            *21
 40000000 000000000400 PSO            *21
 12:38 09/05/97  FILE=ZIM$DBAA.:ZIC0TSI       SYMBOL TABLE                                               29   BMAP - B00
 40000000 000000000720 PTESZ          *21
 40000000 000000000631 PTR            *21
 40000000 000000000724 PTRESZ         *21
 40000000 000000000710 PTRNO          *21
 41000000 000000000630 PWS            *21
 40000000 000000000002 RADDR          *21
 40000000 000000000010 RADIX          *21
 40000000 000000000005 RAPTR          *21
 40000000 000000000004 RAWSOF         *21
 40000000 777777777766 RBA            *21
 40000000 000000023432 RCBI           *21
 40000000 000000211234 RCDNL          *21
 40000000 000000000005 RCFRH          *21
 40000000 000000000004 RCFRN          *21
 40000000 000000001075 RCHD           *21
 40000000 000000000001 RCID           *21
 41000000 000000000006 RCPTR          *21       149
 41000000 000000000002 RCRAH          *21       130
 40000000 000000000001 RCRAN          *21
 40000000 000000000003 RCRSH          *21
 41000000 000000000002 RCRSN          *21       133
 40000000 000000210667 RCVER1         *21
 40000000 000000210670 RCVER2         *21
 40000000 000000210671 RCVER4         *21
 40000000 000000210672 RCVER5         *21
 40000000 000000210673 RCVER6         *21
 40000000 000000000736 RCW1           *21
 40000000 000000000737 RCW2           *21
 41000000 000000000004 RCWSO          *21       150
 40000000 000000000077 RDAC           *21
 40000000 000000000076 RDCNT          *21
 40000000 000000040000 RDI            *21
 40000000 000000015674 RDLT           *21
 40000000 000000000075 RDYCW          *21
 40000000 000000000066 RECAC          *21
 01101000 000000000126 RECF4           99       117       143      *146
 40000000 000000000065 RECFR          *21
 12:38 09/05/97  FILE=ZIM$DBAA.:ZIC0TSI       SYMBOL TABLE                                               30   BMAP - B00
 40000000 000000000070 RECRC          *21
 40000000 000000000067 RECSC          *21
 40000000 000000000003 RECSZ          *21
 40000000 000000000235 REMLT          *21
 40000000 000000000062 REM_RECOVER    *21
 40000000 000000000251 RETFR          *21
 40000000 000000210724 RFDNL          *21
 40000000 000000017644 RIM            *21
 01101000 000000000064 RL1           *113       122
 40000000 000000000005 RNAM           *21
 40000000 000000015706 RNDLT          *21
 40000000 000000000662 RNG1           *21
 40000000 000000000664 RNG2           *21
 40000000 000000000073 RNGD           *21
 40000000 000000000072 RNGO           *21
 40000000 000000000660 RNGTAL         *21
 40000000 000000020154 RNM            *21
 41000000 000000000041 ROCUR          *21        64        86        97       100       115       118
                                      139
 40000000 000000000001 ROFST          *21
 40000000 000000002114 ROLL           *21
 01101000 000000000056 RONEG           88      *106
 01101000 000000000156 ROZ             87       140      *177
 40000000 000000020010 RPM            *21
 40000000 000000000001 RSCDH          *21
 40000000 000000000001 RSCDN          *21
 40000000 000000211710 RSDNL          *21
 40000000 000000004540 RSEE           *21
 40000000 000000000003 RSIZ           *21
 40000000 000000000110 RSPAM          *21
 40000000 000000000004 RSPTR          *21
 40000000 000000000037 RSREQ          *21
 40000000 000000000002 RSSSH          *21
 40000000 000000000001 RSSSN          *21
 40000000 000000210574 RSZER          *21
 40000000 000000000632 RSZTP          *21
 40000000 000000000003 RTP            *21
 12:38 09/05/97  FILE=ZIM$DBAA.:ZIC0TSI       SYMBOL TABLE                                               31   BMAP - B00
 40000000 000000000003 RTYP           *21
 40000000 000000000530 RV1            *21
 40000000 000000000550 RV2            *21
 40000000 000000000570 RV3            *21
 40000000 000000000610 RV4            *21
 41000000 000000000003 RVASID         *19        62
 41000000 000000000510 RVI            *21        92       101       103       110       119       121
                                      136
 41000000 000000000511 RVO            *21       102       120       148
 40000000 000000000513 RVPA           *21
 40000000 000000000512 RVT            *21
 40000000 000000000022 RVTAL          *21
 40000000 000000000002 RWSZ           *21
 40000000 000000000015 RY             *21
 40000000 000000210620 RYE1           *21
 40000000 000000210621 RYE4           *21
 40000000 777777777767 SA             *21
 40000000 000000000005 SANAM          *21
 40000000 000000001062 SCDES          *21
 40000000 000000211544 SCDNL          *21
 40000000 000000000024 SCFC           *21
 40000000 000000000002 SCID           *21
 40000000 000000000024 SCLST          *21
 40000000 000000000004 SCNAM          *21
 40000000 000000000004 SCPTR          *21
 41000000 000000000003 SCRSH          *21       134
 40000000 000000000002 SCRSN          *21
 40000000 000000000001 SCWSO          *21
 40000000 000000001225 SFWS           *21
 40000000 000000001073 SIZCHG         *21
 40000000 000000000645 SKFLG          *21
 40000000 000000000643 SKIND          *21
 40000000 000000000641 SKTYP          *21
 40000000 000000020464 SMCR           *21
 40000000 000000000003 SNAM           *21
 40000000 000000000107 SNIND          *21
 40000000 000000000735 SNPAE          *21
 12:38 09/05/97  FILE=ZIM$DBAA.:ZIC0TSI       SYMBOL TABLE                                               32   BMAP - B00
 40000000 000000001046 SNSI           *21
 40000000 000000000743 SOE            *21
 40000000 000000020630 SORSA          *21
 40000000 000000004374 SOSE           *21
 40000000 000000000000 SPAV           *21
 40000000 000000000744 SPCAVN         *21
 40000000 000000000744 SPCAVO         *21
 40000000 000000000765 SPLF           *21
 41000000 000000000765 SPND           *21
 40000000 000000000006 SSDT           *21
 40000000 000000303243 SSER           *21
 40000000 000000303244 SSER1          *21
 40000000 000000000002 SSH            *21
 40000000 000000000005 SSNAM          *21
 40000000 000000210573 SSNF           *21
 40000000 000000210576 SSNV           *21
 40000000 000000000020 SSSPTR         *21
 40000000 000000000010 SSVDT          *21
 40000000 000000000033 SSZTP          *21
 40000000 000000000017 ST             *21
 40000000 000000000104 STBIN          *21
 40000000 000000000105 STDEC          *21
 40000000 000000303302 STE1           *21
 40000000 000000303303 STE2           *21
 40000000 000000210624 STE3           *21
 40000000 000000303305 STE4           *21
 40000000 000000303306 STE5           *21
 00101000 000000000167 STER1         *193
 41000000 000000000100 STKSIZ         *21
 40000000 000000000055 STMASK         *21
 40000000 000000000062 SUST           *21
 41000000 000000000020 SWS            *21
 40000000 000000000000 SWSAC          *21
 40000000 000000000002 SWSZ           *21
 40000000 000000000000 SYSSF          *21
 40000000 000000000765 SZREQ          *21
 40000000 000000000004 TBUF           *21
 12:38 09/05/97  FILE=ZIM$DBAA.:ZIC0TSI       SYMBOL TABLE                                               33   BMAP - B00
 40000000 000000001061 TCTRS          *21
 60000000 000000000000 TDS            *21
 41000000 000000000113 TEMP           *21
 40000000 000000000640 TFLD           *21
 40000000 000000000657 TFLD2          *21
 40000000 000000000056 TMASK          *21
 40000000 000000000061 TMODE          *21
 40000000 000000000676 TMPPA          *21
 40000000 000000000003 TPAI           *21
 40000000 000000500000 TPRCOD         *21
 40000000 000000001031 TSFN           *21
 40000000 000000000021 TSI            *21
 40000000 000000001013 UBRD2          *21
 41000000 000000001223 UBSZ           *21
 40000000 000000000667 UCADR          *21
 01101000 000000000167 UCER9          155      *191
 40000000 000000000036 UCRS           *21
 40000000 000000000024 UFSPK          *21
 40000000 000000000024 UFSPK2         *21
 40000000 000000000715 ULIM           *21
 40000000 000000004230 UNA            *21
 40000000 000000303417 UNIM           *21
 40000000 000000000002 UOFST          *21
 40000000 000000001035 UPACD          *21
 40000000 000000000721 UPACW          *21
 40000000 000000000007 UPFLAG         *21
 40000000 000000000103 UPPAI          *21
 40000000 000000000004 UPTSID         *19
 01101000 000000000167 USRE7          157      *192
 40000000 000000000674 USTAT          *21
 40000000 000000000002 UWASID         *19
 40000000 000000000002 UWSSZ          *21
 40000000 000000000020 UWSZ           *21
 40000000 000000000243 VFDSC          *21
 40000000 000000001070 VFDSR          *21
 40000000 000000000656 VFLD           *21
 40000000 000000001074 VFLNG          *21
 12:38 09/05/97  FILE=ZIM$DBAA.:ZIC0TSI       SYMBOL TABLE                                               34   BMAP - B00
 40000000 000000001124 VIB1           *21
 40000000 000000001154 VIBP           *21
 41000000 000000000000 VLPSID         *19        58
 40000000 000000001074 VRSIZ          *21
 40000000 000000001067 WLOA           *21
 40000000 000000100000 WRTI           *21
 40000000 000000000000 WSBID          *21
 41000000 000000000003 WSOF           *21       107
 41000000 000000000000 X0             *19        65        66        94       112       137       167
                                      174       179       185
 41000000 000000000001 X1             *19        71        72        76        77        81        82
                                       84        96       114       142       144       150       151
                                      152       155       157
 41000000 000000000002 X2             *19       148
 41000000 000000000003 X3             *19        92       107       110       136
 41000000 000000000004 X4             *19       129
 41000000 000000000005 X5             *19       133
 41000000 000000000006 X6             *19       134       135       168       175       180       186
 03201007 000000000000 X66_ARET       *19       159
 03201006 000000000000 X66_AUTO_0     *19        56
 41000000 000000000007 X7             *19        67        68        80       127       130       131
                                      149       169       181
 40000000 000000210665 XASL           *21
 40000000 000000303420 XLD            *21
 40000000 000000303421 XPD            *21
 40000000 000000000676 XPRS           *21
 40000000 000000210666 XROLL          *21
 40000000 000000210664 XUNEX          *21
 40000000 777777777777 XXDPN          *21
 03201008 000000000000 ZIB$DBALT     *205
 12101000 000000000000 ZIG$DBFAA       17       *55
 03201000 000000000000 ZIG$DBPNA      *10        96
 03201001 000000000000 ZIG$DBPPA      *11       114
 03201004 000000000000 ZIG$DBUPC      *14       155
 03201005 000000000000 ZIG$DBUSR      *15       157
 03201002 000000000000 ZIM$IFINDF     *12       142
 03201003 000000000000 ZIM$IFINDL     *13       144
 12:38 09/05/97  FILE=ZIM$DBAA.:ZIC0TSI       SYMBOL TABLE                                               35   BMAP - B00

     950 SYMBOLS

 12:38 09/05/97  FILE=ZIM$DBAA.:ZIC0TSI       MACRO TABLE                                                36   BMAP - B00
 CBSYM           21
 DBALT          205
 DBCAL           96       114       142       144       155       157
 DBRET          159
 DBSAV           56
 ICCAL          155
 Q2SYM           21
 SSSYM           21

      37 MACROS

    SYMBOL SPACE USED  9141 WORDS
     MACRO SPACE USED 13055 WORDS
   INPUT RECORDS READ  2214
 STATEMENTS PROCESSED  2160
         ELAPSED TIME  0:10.52
             CPU TIME     9.93 SEC.
        ASSEMBLY RATE 13051 STATEMENTS/CPU MIN.

      NO ERRORS

