
 12:39 09/05/97  FILE=ZIM$DBAC.:ZIC0TSI                                                                  1    BMAP - B00
                                         1  *M*      ZIG$DBAC
                                         2  *T***********************************************************
                                         3  *T*                                                         *
                                         4  *T* Copyright (c) Bull HN Information Systems Inc., 1997    *
                                         5  *T*                                                         *
                                         6  *T***********************************************************

 12:39 09/05/97  FILE=ZIM$DBAC.:ZIC0TSI       H6600H2.508     IDS/IT ACCEPT DBK              780405DBAC  2    BMAP - B00
                                         7         TTL     H6600H2.508     IDS/IT ACCEPT DBK              780405DBAC
                                         8         CPR     1974
                                         9         PMC     OFF
                                        10         ENTDEF  ZIG$DBACC
                                        11  *
                                        12         ENTREF  ZIQ$DBGRC
                                        13         ENTREF  ZIG$DBGRS
                                        14         ENTREF  ZIG$DBPFD
                                        15         ENTREF  ZIG$DBPFN
                                        16         ENTREF  ZIG$DBPFP
                                        17  *
                                        18         LODM    Q2MA
                                        19  *
                                        20         Q2SYM

 12:39 09/05/97  FILE=ZIM$DBAC.:ZIC0TSI       IDS-II  MOVE CURRENCY INDICATOR SUBROUTINE                 3    BMAP - B00
                                        21         TTLS    IDS-II  MOVE CURRENCY INDICATOR SUBROUTINE
                                        22  ****************************************************************
                                        23  *
                                        24  *  - DBACC -
                                        25  *
                                        26  *      ACCEPT.  Move a currency indicator to the UWA.
                                        27  *
                                        28  *      Parameter   Description
                                        29  *      ---------   -----------
                                        30  *
                                        31  *          0       IA
                                        32  *          1       UWA
                                        33  *          2       FPT
                                        34  *          3       One word field to move DBK to
                                        35  *
                                        36  *      FPT Format...
                                        37  *
                                        38  *      Word 0:  Currency Control Word
                                        39  *          HW 0:  Selected Currency Indicator
                                        40  *              0   Current of run
                                        41  *              1   Current of record type
                                        42  *              2   Current of area
                                        43  *              3   Current of set
                                        44  *              4   Next of set
                                        45  *              5   Prior of set
                                        46  *              6   Owner of set
                                        47  *      Word 1:  Unused
                                        48  *      Word 2:  The contents of this word depend on the
                                        49  *          Selected Currency Indicator (SCI).
                                        50  *          IF SCI=0 This word is not passed, or it is zero
                                        51  *          IF SCI=1 RVA offset to a schema subset element which
                                        52  *              describes a data base record.
                                        53  *          IF SCI=2 RVA offset to a schema subset element which
                                        54  *              describes a data base area.
                                        55  *          IF SCI=3->6 RVA offset to a schema subset element
                                        56  *              which describes a set.
                                        57  *
 12:39 09/05/97  FILE=ZIM$DBAC.:ZIC0TSI       IDS-II  MOVE CURRENCY INDICATOR SUBROUTINE                 4    BMAP - B00
                                        58  ****************************************************************
                                        59  *
 0 000000                               60  ZIG$DBACC NULL
   000000  X 000000 7000 00             61           DBSAV
   000001    000004 000000
                                        62  *  GET CURRENCY CONTROL WORD & GO TO PROPER ROUTINE
   000002    000000 4704 07             63         LDP    PR0,VLPSID,DL            VLP$
   000003    000003 4714 07             64           LDP      PR1,RVASID,DL           RVA$
   000004    0 00000 2351 00            65         LDA     0,,PR0               Get Currency Control Word
   000005    000007 3750 03             66         ANA     7,DU            ISOLATE
   000006 (0)000007 7100 01             67         TRA     *+1,AU          GO TO CORRECT ROUTINE
   000007 (0)000017 7100 00             68         TRA     RUN
   000010 (0)000027 7100 00             69         TRA     REC
   000011 (0)000046 7100 00             70         TRA     AREA
   000012    000054 7100 04             71         TRA     ACCS,$
   000013    000071 7100 04             72         TRA     ACNS,$
   000014    000070 7100 04             73         TRA     ACPS,$
   000015    000067 7100 04             74         TRA     ACOS,$
   000016 (0)000252 7100 00             75         TRA     ILOPT           ILLEGAL OPTION
                                        76  *
                                        77  *  CURRENT OF RUN
                                        78  *
   000017                               79  RUN    NULL
   000017    7 01224 2271 00            80           LDX      X7,CRUN+1,,PR7       Get RC
   000020    6 00000 2211 17            81           LDX      X1,DEF,X7,PR6        Get def word for RC.
   000021    000007 3610 03             82           ANX      X1,.PSTO,DU          Mask out junk
   000022    000004 1010 03             83           CMPX     X1,4,DU              Is it indexed
   000023 (0)000317 6000 00             84           TZE      AINDX                Yes.  Error.
   000024    7 01223 2361 00            85         LDQ     CRUN,,PR7       GET DBK OF CURRENT OF RUN
   000025 (0)000257 6000 00             86         TZE     NRC             NULL
   000026 (0)000245 7100 00             87         TRA     ARET            RETURN IT
                                        88  *
                                        89  *  CURRENT OF RECORD TYPE
                                        90  *
   000027                               91  REC    NULL
   000027    0 00002 2271 00            92         LDX     X7,2,,PR0            Get offset to RC pointer from FPT
   000030    1 00000 2271 17            93           LDX      X7,,X7,PR1           Get RC offset from RVA
 12:39 09/05/97  FILE=ZIM$DBAC.:ZIC0TSI       IDS-II  MOVE CURRENCY INDICATOR SUBROUTINE                 5    BMAP - B00
                                        94         IFE     A,1,%CK1
   000031    6 00000 2211 17            95         LDX     X1,DEF,X7,PR6   GET DEF TYPE
   000032    100000 3010 03             96         CANX    X1,.RC,DU       IS IT AN RC
   000033 (0)000252 6000 00             97         TZE     CER11           NO - ERROR
   000034    000007 3610 03             98         ANX        X1,.PSTO,DU       ISOLATE LOC MODE
   000035    000004 1010 03             99         CMPX       X1,4,DU           IS IT INDEXED
   000036 (0)000313 6000 00            100         TZE        RINDX             YES. ERROR.
                                       101  CK1    MARK
                                       102  *              CHECK THAT REC IS IN SUB-SCHEMA
   000037    6 00000 7211 17           103         LXL     X1,DEF,X7,PR6
   000040    100000 3010 03            104         CANX    X1,.SR,DU       IS IT IN SS
   000041    000223 6010 04            105         TNZ     ACE1,$          NO - ERROR
   000042    6 00004 2211 17           106         LDX     X1,RCWSO,X7,PR6  GET WORK SPACE OFST
   000043    7 00001 2361 11           107         LDQ     CURR,X1,PR7     GET DBK OF CURRENT
   000044 (0)000270 6000 00            108         TZE     NTC             NULL
   000045 (0)000245 7100 00            109         TRA     ARET            RETURN IT
                                       110  *
                                       111  *  CURRENT OF AREA
                                       112  *
   000046                              113  AREA   NULL
   000046    0 00002 2201 00           114         LDX     X0,2,,PR0            Get offset to AC pointer from FPT
   000047    1 00000 2201 10           115           LDX      X0,,X0,PR1           Get AC offset from RVA
                                       116         IFE     A,1,%CK1
   000050    6 00000 2211 10           117         LDX     X1,DEF,X0,PR6   GET DEF TYPE
   000051    200000 3010 03            118         CANX    X1,.AC,DU       IS IT AN AC
   000052 (0)000252 6000 00            119         TZE     CER11           NO - ERROR
   000053    6 00000 2351 10           120           LDA      DEF,X0,PR6        GET DEF TYPE
   000054    000074 3750 03            121           ANA      .FORG,DU          ISOLATE FILE ORG
   000055    000002 7710 00            122           ARL      2                 INTO BITS 15-17
   000056    000002 3150 03            123           CANA     =2,DU          Is it indexed
   000057 (0)000317 6010 00            124           TNZ      AINDX          Yes. Illegal here.
                                       125  CK1    MARK
   000060    6 00003 2211 10           126         LDX     X1,WSOF,X0,PR6  GET WORK SPACE OFST
   000061    7 00000 2341 11           127         SZN     .CAE,X1,PR7     IS CURR ERASED
   000062    000212 6040 04            128         TMI     NAC,$           YES - NO CURR
   000063    7 00001 2361 11           129         LDQ     CURR,X1,PR7     GET DBK OF CURRENT
   000064 (0)000274 6000 00            130         TZE     NAC             NULL
 12:39 09/05/97  FILE=ZIM$DBAC.:ZIC0TSI       IDS-II  MOVE CURRENCY INDICATOR SUBROUTINE                 6    BMAP - B00
   000065 (0)000245 7100 00            131         TRA     ARET            RETURN IT
                                       132  *
                                       133  *  CURRENT OF SET
                                       134  *
   000066                              135  ACCS   NULL                    CURRENT OF SET
   000066    0 00002 2261 00           136         LDX     X6,2,,PR0            Get offset to SC pointer from FPT
   000067    1 00000 2261 16           137           LDX      X6,,X6,PR1           Get SC offset from RVA
                                       138         IFE     A,1,%CK1
   000070    6 00000 2211 16           139         LDX     X1,DEF,X6,PR6
   000071    040000 3010 03            140         CANX    X1,.SC,DU       IS IT AN SC
   000072    000160 6000 04            141         TZE     CER11,$         NO - ERROR
                                       142  CK1    MARK
                                       143  *              CHECK THAT SET IS IN SUB-SCHEMA
   000073    6 00000 7211 16           144         LXL     X1,DEF,X6,PR6
   000074    020000 3010 03            145         CANX    X1,.SNSS,DU     IS IT IN SS
   000075    000203 6010 04            146         TNZ     ACE3,$          NO - ERROR
   000076    6 00001 2211 16           147         LDX     X1,SCWSO,X6,PR6
   000077    7 00000 2341 11           148         SZN     .CSE,X1,PR7     IS CURR ERASED
   000100    000204 6040 04            149         TMI     NSC,$           YES - NO CURR
   000101    7 00001 2361 11           150         LDQ     CURR,X1,PR7     GET CURR DBK
   000102 (0)000304 6000 00            151         TZE     NSC             NO CURR
   000103    000142 7100 04            152         TRA     ARET,$          RETURN IT
                                       153  *  SET POINTERS
                                       154  *
   000104                              155  ACNS   NULL                    NEXT
   000104                              156  ACPS   NULL                    PRIOR
   000104                              157  ACOS   NULL                    OWNER
   000104    0 00002 2261 00           158         LDX     X6,2,,PR0            Get offset to SC pointer from FPT
   000105    1 00000 2261 16           159           LDX      X6,,X6,PR1           Get SC offset from RVA
                                       160         IFE     A,1,%CK1
   000106    6 00000 2211 16           161         LDX     X1,DEF,X6,PR6   GET DEF TYPE
   000107    040000 3010 03            162         CANX    X1,.SC,DU       IS IT AN SC
   000110 (0)000252 6000 00            163         TZE     CER11           NO - ERROR
                                       164  CK1    MARK
                                       165  *              CHECK THAT SET IS IN SUB-SCHEMA
   000111    6 00000 7211 16           166         LXL     X1,DEF,X6,PR6
   000112    020000 3010 03            167         CANX    X1,.SNSS,DU     IS IT IN SS
 12:39 09/05/97  FILE=ZIM$DBAC.:ZIC0TSI       IDS-II  MOVE CURRENCY INDICATOR SUBROUTINE                 7    BMAP - B00
   000113    000165 6010 04            168         TNZ     ACE2,$          NO - ERROR
   000114    000700 3750 07            169           ANA      .SETT,DL             Isolate set type
   000115 (1)000000 1150 00            170           CMPA     =O300                Is it primary key for indexed
   000116 (0)000317 6000 00            171           TZE      AINDX                Yes.
   000117    6 00001 2211 16           172         LDX     X1,SCWSO,X6,PR6  GET WORK SPACE OFST
   000120    7 00001 2361 11           173         LDQ     CURR,X1,PR7     GET DBK OF CURRENT
   000121 (0)000304 6000 00            174         TZE     NSC             NULL
   000122    0 00000 2351 00           175         LDA     0,,PR0               Get Currency Control Word from FPT
   000123    000003 3750 03            176         ANA     3,DU            ISOLATE
   000124    000005 1150 03            177         CMPA    5,DU            IS IT PRIOR REQUEST
   000125    000004 6010 04            178         TNZ     GETC,$          NO - GO ON
   000126    6 00001 2211 16           179         LDX     X1,SCWSO,X6,PR6
   000127    7 00000 2341 11           180         SZN     .CSE,X1,PR7     IS CURR = PRIOR
   000130    000115 6040 04            181         TMI     ARET,$          YES - RETURN IT
   000131                              182  GETC   NULL
                                       183  *  FIND THE CURRENT REC
   000131    7 00510 2231 00           184         LDX     X3,RVI,,PR7     SET X3 TO REC VAR IN
   000132    7 00000 7561 13           185         STQ     DBKEY,X3,PR7    PUT DBK OF CURR IN REC VAR
   000133  X 000000 7010 00            186           DBCAL    ZIG$DBPFD,,PER16
   000134 (0)000324 7020 00
   000135    5 00006 2341 00
   000136    777776 6010 04
   000137    7 00510 2231 00           187         LDX     X3,RVI,,PR7
   000140    7 00005 2201 13           188         LDX     X0,ACPTR,X3,PR7  GET AC PTR
   000141    7 00003 2351 13           189         LDA     RTP,X3,PR7      GET TYPE OF REC FOUND
   000142  X 000000 7010 00            190         ICCAL   ZIQ$DBGRC,,NRC10 GET RC PTR
   000143 (0)000323 7020 00
   000144    5 00006 2341 00
   000145    777776 6010 04
   000146    000000 4704 07            191         LDP    PR0,VLPSID,DL            VLP$
   000147    000003 4714 07            192           LDP      PR1,RVASID,DL           RVA$
   000150    0 00002 2261 00           193         LDX     X6,2,,PR0            Get offset to SC pointer from FPT
   000151    1 00000 2261 16           194           LDX      X6,,X6,PR1           Get SC offset from RVA
   000152  X 000000 7010 00            195         DBCAL   ZIG$DBGRS,,NRS10
   000153 (0)000323 7020 00
   000154    5 00006 2341 00
   000155    777776 6010 04
 12:39 09/05/97  FILE=ZIM$DBAC.:ZIC0TSI       IDS-II  MOVE CURRENCY INDICATOR SUBROUTINE                 8    BMAP - B00
   000156    7 00510 2231 00           196         LDX     X3,RVI,,PR7
   000157    7 00006 7471 13           197         STX     X7,RCPTR,X3,PR7  SAVE RC PTR
   000160    7 00004 7461 13           198         STX     X6,SCPTR,X3,PR7  SAVE SC PTR
   000161    7 00520 7461 00           199         STX     X6,PRSC,,PR7    SET CLASS                                <EHW>
   000162    7 00004 4451 13           200         SXL     X5,RSPTR,X3,PR7  SAVE RS PTR
                                       201  *  IF PA SET, MOVE INFO ON OWNER PA REC OF CURR OF SET TO RVI
   000163    6 00000 2211 16           202         LDX     X1,DEF,X6,PR6   GET SET MODE
   000164    000070 3610 03            203         ANX     X1,.SETM,DU     ISOLATE
   000165    000020 1010 03            204         CMPX    X1,=O20,DU      IS IT POINTER ARRAY
   000166 (0)000173 6010 00            205         TNZ     SVRS            NO
   000167    6 00001 2211 16           206         LDX     X1,SCWSO,X6,PR6  YES - GET SET WORKSPACE
   000170    7 00003 2361 11           207         LDQ     CBCPA,X1,PR7    GET DBK OF PA REC OF CURR
   000171    7 00002 2351 11           208         LDA     CBENO,X1,PR7    SAVE PA ENTRY & PTR OFFSETS
   000172    7 00014 7571 13           209         STAQ    CBRCE,X3,PR7    SAVE IN RVI
   000173                              210  SVRS   NULL
   000173    7 00002 4735 13           211         LDP     PR3,RADDR,X3,PR7  GET ADDR OF REC
   000174    000000 6210 00            212         EAX     X1,0                                                     <EHW>
   000175    7 00517 7411 00           213         STX     X1,PRRC,,PR7    SET TO ANY TYPE WITHIN SUB-SCHEMA        <EHW>
   000176    000000 4704 07            214         LDP    PR0,VLPSID,DL            VLP$
   000177    0 00000 2211 00           215         LDX     X1,0,,PR0            Get Currency Control Word from FPT
   000200    000007 3610 03            216         ANX     X1,7,DU         ISOLATE REQUEST TYPE
   000201 (0)000176 7100 11            217         TRA     *-3,X1          GO TO CORRECT ROUTINE
   000202 (0)000206 7100 00            218         TRA     NXT
   000203 (0)000215 7100 00            219         TRA     PRI
   000204 (0)000227 7100 00            220         TRA     OWN
   000205 (0)000252 7100 00            221         TRA     ILOPT           ILLEGAL OPTION
                                       222  *  NEXT OF SET
   000206                              223  NXT    NULL
   000206  X 000000 7010 00            224         DBCAL   ZIG$DBPFN,GETKEY,NPNF GET NEXT OF SET                    <EHW>
   000207 (0)000324 7020 00
   000210    5 00006 2341 00
   000211    000003 6000 04
   000212    5 00006 4501 00
   000213 (0)000223 7020 00
   000214 (0)000223 7100 00            225         TRA     GETKEY          GET DBKEY                                <EHW>
                                       226  *  PRIOR OF SET
   000215                              227  PRI    NULL
 12:39 09/05/97  FILE=ZIM$DBAC.:ZIC0TSI       IDS-II  MOVE CURRENCY INDICATOR SUBROUTINE                 9    BMAP - B00
   000215  X 000000 7010 00            228         DBCAL   ZIG$DBPFP,GETKEY,NPNF GET PRIOR OF SET                   <EHW>
   000216 (0)000324 7020 00
   000217    5 00006 2341 00
   000220    000003 6000 04
   000221    5 00006 4501 00
   000222 (0)000223 7020 00
                                       229  *  GET DBKEY                                                            <EHW>
   000223                              230  GETKEY NULL                                                             <EHW>
   000223    7 00511 2231 00           231         LDX     X3,RVO,,PR7     OUT REC VAR                              <EHW>
   000224    7 00000 2361 13           232         LDQ     DBKEY,X3,PR7    DATABASE KEY
   000225    7 00032 7561 00           233         STQ     DDBK,,PR7       SAVE IN WORKSPACE
   000226 (0)000245 7100 00            234         TRA     ARET            RETURN IT
                                       235  *  OWNER OF SET
   000227                              236  OWN    NULL
   000227    7 00000 2361 13           237         LDQ     DBKEY,X3,PR7    GET DBK OF CURR
   000230    6 00000 2211 15           238         LDX     X1,DEF,X5,PR6   GET DEF TYPE OF RS
   000231    010000 3010 03            239         CANX    X1,.SO,DU       IS IT AN OWNER
   000232    000013 6010 04            240         TNZ     ARET,$          YES
   000233    000 1 100 1015 20         241         MRL     (1,,1),(1),0,1  * MOVE
   000234    6 00006 0001 15           242         ARG     HPOS,X5,PR6     *  OWNER PTR TO
   000235    7 00032 0 0 0 0004        243         ADSC9   DDBK,0,4,PR7         Work Space
                                       244  *  MAKE PTR GLOBAL IF SET IS LOCAL
   000236                              245  RETDB  NULL
   000236    7 00032 2361 00           246         LDQ     DDBK,,PR7       GET DBK
   000237 (0)000310 6000 00            247         TZE     PTZ             ZERO - REC NOT MEMBER
   000240    6 00000 7211 16           248         LXL     X1,DEF,X6,PR6   GET LOCAL-GLOBAL IND
   000241    001000 3010 03            249         CANX    X1,.LG,DU       IS IT GLOBAL
   000242    000003 6010 04            250         TNZ     ARET,$          YES
   000243    7 00005 2201 13           251         LDX     X0,ACPTR,X3,PR7  GET AC
   000244    6 00002 0361 10           252         ADLQ    ABAS,X0,PR6     ADD BASE
                                       253  *  RETURN
   000245                              254  ARET   NULL
   000245    000005 4704 07            255         LDP    PR0,PS5SID,DL            DBK$
   000246    0 00000 7561 00           256         STQ     0,,PR0               Put DBK there
                                       257  *  MARK OUTPUT REC VAR AS NOT CURR OF RUN
   000247    000000 6210 00            258         EAX     X1,0
   000250    7 00511 4411 00           259         SXL     X1,RVO,,PR7     MARK RVO AS NOT CURR OF RUN
 12:39 09/05/97  FILE=ZIM$DBAC.:ZIC0TSI       IDS-II  MOVE CURRENCY INDICATOR SUBROUTINE                 10   BMAP - B00
                                       260  *  RETURN
   000251  X 000000 7020 00            261           DBRET
                                       262  *
                                       263  *  ERRORS DETECTED IN THIS ROUTINE
                                       264  *
                                       265         IFE     A,1,%CK1
   000252                              266  CER11  NULL                    4TH ARGUMENT NOT CORRECT TYPE
   000252                              267  ILOPT  NULL                    ILLEGAL OPTION - ARG 2
   000252    210562 2350 07            268         LDA     ARGER,DL
   000253    000000 6200 00            269         EAX     X0,0            NULL AC
   000254    000000 6260 00            270         EAX     X6,0            NULL SC
   000255    000000 6270 00            271         EAX     X7,0            NULL RC
   000256 (0)000325 7100 00            272         TRA     ACR1
                                       273  CK1    MARK
   000257                              274  NRC    NULL                    CURR OF RUN  IS NULL
   000257    006200 2350 07            275         LDA     CRNUL,DL
   000260    000000 6200 00            276         EAX     X0,0            NULL AC
   000261    000000 6260 00            277         EAX     X6,0            NULL SC
   000262    000000 6270 00            278         EAX     X7,0            NULL RC
   000263 (0)000325 7100 00            279         TRA     ACR1
   000264                              280  ACE1   NULL                    REC NOT IN SUB-SCHEMA
   000264    010150 2350 07            281         LDA     IRSN,DL
   000265    000000 6200 00            282         EAX     X0,0            NULL AC
   000266    000000 6260 00            283         EAX     X6,0            NULL SC
   000267    000036 7100 04            284         TRA     ACR1,$
   000270                              285  NTC    NULL                    CURR OF TYPE IS NULL
   000270    006034 2350 07            286         LDA     CNUL,DL
   000271    000000 6200 00            287         EAX     X0,0            NULL AC
   000272    000000 6260 00            288         EAX     X6,0            NULL SC
   000273 (0)000325 7100 00            289         TRA     ACR1
   000274                              290  NAC    NULL                    CURR OF AREA IS NULL
   000274    006034 2350 07            291         LDA     CNUL,DL
   000275    000000 6260 00            292         EAX     X6,0            NULL SC
   000276    000000 6270 00            293         EAX     X7,0            NULL RC
   000277 (0)000325 7100 00            294         TRA     ACR1
   000300                              295  ACE2   NULL                    SET NOT IN SUB-SCHEMA
   000300                              296  ACE3   NULL                    SET NOT IN SUB-SCHEMA
 12:39 09/05/97  FILE=ZIM$DBAC.:ZIC0TSI       IDS-II  MOVE CURRENCY INDICATOR SUBROUTINE                 11   BMAP - B00
   000300    010150 2350 07            297         LDA     IRSN,DL
   000301    000000 6200 00            298         EAX     X0,0            NULL AC
   000302    000000 6270 00            299         EAX     X7,0            NULL RC
   000303    000022 7100 04            300         TRA     ACR1,$
   000304                              301  NSC    NULL                    CURR OF SET  IS NULL
   000304    006034 2350 07            302         LDA     CNUL,DL
   000305    000000 6200 00            303         EAX     X0,0            NULL AC
   000306    000000 6270 00            304         EAX     X7,0            NULL RC
   000307 (0)000325 7100 00            305         TRA     ACR1
   000310                              306  PTZ    NULL                    RECORD NOT MEMBER OF SET
   000310    020154 2350 07            307         LDA     RNM,DL
   000311    000000 6200 00            308         EAX     X0,0            NULL AC
   000312 (0)000325 7100 00            309         TRA     ACR1
   000313                              310  RINDX    NULL                       INDEX CURRENCY NOT RETURNABLE.
   000313    210742 2350 07            311           LDA      ICNR,DL
   000314    000000 6200 00            312           EAX      X0,0              NULL AC
   000315    000000 6260 00            313           EAX      X6,0              NULL SC
   000316    000007 7100 04            314           TRA      ACR1,$
   000317                              315  AINDX    NULL                       INDEX CURRENTY NOT RETURNABLE.
   000317    210742 2350 07            316           LDA      ICNR,DL
   000320    000000 6260 00            317           EAX      X6,0              NULL SC
   000321    000000 6270 00            318           EAX      X7,0              NULL RC
   000322    000003 7100 04            319           TRA      ACR1,$
                                       320  *
                                       321  *  ERRORS DETECTED IN SUBORDINATE ROUTINES
                                       322  *
   000323                              323  NRC10  NULL                    RC NOT FOUND FOR CURR OF SET
   000323                              324  NRS10  NULL                    CURR OF SET NOT IN SET
   000323                              325  STER1  NULL                    ERROR ACCUMULATING STATISTICS
   000323 (0)000325 7100 00            326         TRA     ACR1
                                       327  *
                                       328  *  ERRORS DETECTED IN PRIMITIVES
                                       329  *
   000324                              330  PER16  NULL                    PAGE ERROR - FIND CURRENT OF SET
   000324                              331  NPNF   NULL                    NEXT/PRIOR OF SET ERROR                  <EHW>
   000324 (0)000325 7100 00            332         TRA     ACR1
                                       333  *
 12:39 09/05/97  FILE=ZIM$DBAC.:ZIC0TSI       IDS-II  MOVE CURRENCY INDICATOR SUBROUTINE                 12   BMAP - B00
                                       334  *  COMMON ERROR RETURN
                                       335  *
   000325  X 000000 7020 00            336  ACR1     DBALT
                                       337         END
 1 000000    000000000300

  CONTROL SECTION TABLE

   0 CODE   EVEN  000326
   1 RODATA EVEN  000001 LITERALS

 12:39 09/05/97  FILE=ZIM$DBAC.:ZIC0TSI       SYMBOL TABLE                                               13   BMAP - B00
 41000000 000000200000 .AC            *20       118
 40000000 000000000100 .AG            *20
 40000000 000000002000 .ALTO          *20
 40000000 000000000077 .ANL           *20
 40000000 000000200000 .APDN          *20
 40000000 000000000100 .ATMP          *20
 40000000 000000400000 .AV            *20
 40000000 000000400000 .B0            *20
 40000000 000000200000 .B1            *20
 40000000 000000000200 .B10           *20
 40000000 000000000100 .B11           *20
 40000000 000000000040 .B12           *20
 40000000 000000000020 .B13           *20
 40000000 000000000010 .B14           *20
 40000000 000000000004 .B15           *20
 40000000 000000000002 .B16           *20
 40000000 000000000001 .B17           *20
 40000000 000000400000 .B18           *20
 40000000 000000200000 .B19           *20
 40000000 000000100000 .B2            *20
 40000000 000000100000 .B20           *20
 40000000 000000040000 .B21           *20
 40000000 000000020000 .B22           *20
 40000000 000000010000 .B23           *20
 40000000 000000004000 .B24           *20
 40000000 000000002000 .B25           *20
 40000000 000000001000 .B26           *20
 40000000 000000000400 .B27           *20
 40000000 000000000200 .B28           *20
 40000000 000000000100 .B29           *20
 40000000 000000040000 .B3            *20
 40000000 000000000040 .B30           *20
 40000000 000000000020 .B31           *20
 40000000 000000000010 .B32           *20
 40000000 000000000004 .B33           *20
 40000000 000000000002 .B34           *20
 40000000 000000000001 .B35           *20
 12:39 09/05/97  FILE=ZIM$DBAC.:ZIC0TSI       SYMBOL TABLE                                               14   BMAP - B00
 40000000 000000020000 .B4            *20
 40000000 000000010000 .B5            *20
 40000000 000000004000 .B6            *20
 40000000 000000002000 .B7            *20
 40000000 000000001000 .B8            *20
 40000000 000000000400 .B9            *20
 40000000 000000000001 .BREAK         *20
 40000000 000000010000 .BRK           *20
 40000000 000000020000 .BTB           *20
 40000000 000000000001 .CAC           *20
 41000000 000000000000 .CAE           *20       127
 40000000 000000000200 .CANSSS        *20
 40000000 000000000400 .CD            *20
 40000000 000000040000 .CFLC          *20
 40000000 000000400000 .CHKSUM        *20
 40000000 000000100000 .CJRNL         *20
 40000000 000000000077 .CNSZ          *20
 40000000 000000160000 .COMC          *20
 40000000 000000000020 .CONT          *20
 41000000 000000000000 .CSE           *20       148       180
 40000000 000000700000 .CTYP          *20
 41000000 000000000270 .DBEST         *20
 41000000 000000000470 .DBIC          *20
 40000000 000000077777 .DBPT          *20
 41000000 000000000370 .DBSTK         *20
 40000000 000000020000 .DELM          *20
 40000000 000000002000 .DIDP          *20
 40000000 000000000077 .DNDX          *20
 40000000 000000600000 .DORD          *20
 40000000 000000000200 .DP            *20
 40000000 000000100000 .DPS           *20
 40000000 000000200000 .DPSA          *20
 40000000 000000400000 .DPST          *20
 40000000 000000000002 .DUMP          *20
 40000000 000000002000 .DUPC          *20
 40000000 000000010000 .DUPP          *20
 40000000 000000200000 .EBCL          *20
 12:39 09/05/97  FILE=ZIM$DBAC.:ZIC0TSI       SYMBOL TABLE                                               15   BMAP - B00
 40000000 000000400000 .EBCM          *20
 40000000 000000200000 .ENCRP         *20
 40000000 000000000077 .ENDX          *20
 40000000 000000000400 .ENQ           *20
 40000000 000000004000 .ETC           *20
 40000000 000000000400 .EXIT          *20
 40000000 000000000200 .FMOD          *20
 40000000 000000000077 .FNL           *20
 41000000 000000000074 .FORG          *20       121
 40000000 000000002000 .FR            *20
 40000000 000000000100 .FSR           *20
 40000000 000000003400 .FUSE          *20
 40000000 000000010000 .FVF           *20
 40000000 000000040000 .FVR           *20
 40000000 000000000010 .INDEXED       *20
 40000000 000000777777 .IXID          *20
 40000000 000000001777 .IXNUM         *20
 40000000 000000000004 .KEYED         *20
 40000000 000000010000 .LCK           *20
 40000000 000000400000 .LEIL          *20
 41000000 000000001000 .LG            *20       249
 40000000 000000000002 .LOAD          *20
 40000000 000000020000 .MAR           *20
 40000000 000000000007 .MEMT          *20
 40000000 000000010000 .MRL           *20
 40000000 000000040000 .MSM           *20
 60000000 000000000001 .N6685         *20
 40000000 000000100000 .NAI           *20
 40000000 000000200000 .NBI           *20
 40000000 000000000002 .NCIA          *20
 40000000 000000040000 .NMV           *20
 40000000 000000017777 .NOENT         *20
 40000000 000000400000 .OA            *20
 40000000 000000740000 .OPEV          *20
 40000000 000000100000 .OSM           *20
 40000000 000000100000 .PAFIL         *20
 40000000 000000200000 .PAHVR         *20
 12:39 09/05/97  FILE=ZIM$DBAC.:ZIC0TSI       SYMBOL TABLE                                               16   BMAP - B00
 40000000 000000000001 .PAIA          *20
 40000000 000000040000 .PALIL         *20
 40000000 000000020000 .PALVR         *20
 40000000 000000400000 .PANLL         *20
 40000000 000000400000 .PCKD          *20
 40000000 000000001600 .PMOD          *20
 40000000 000000000520 .PRCSE         *20
 41000000 000000000007 .PSTO          *20        82        98
 40000000 000000006040 .PTAS          *20
 40000000 000000010100 .PTCHK         *20
 40000000 000000010200 .PTDEC         *20
 40000000 000000010140 .PTENC         *20
 40000000 000000020000 .RA            *20
 41000000 000000100000 .RC            *20        96
 40000000 000000400000 .RELEASE       *20
 40000000 000000000017 .RELT          *20
 40000000 000000004000 .RERA          *20
 40000000 000000400000 .RERS          *20
 40000000 000000010000 .RKEY          *20
 40000000 000000000077 .RNL           *20
 40000000 000000200000 .RSTO          *20
 40000000 000000007777 .RTYP          *20
 41000000 000000040000 .SC            *20       140       162
 41000000 000000000070 .SETM          *20       203
 40000000 000000740000 .SETO          *20
 41000000 000000000700 .SETT          *20       169
 40000000 000000040000 .SFNP          *20
 40000000 000000004000 .SM            *20
 40000000 000000020000 .SMOD          *20
 40000000 000000000077 .SNL           *20
 41000000 000000020000 .SNSS          *20       145       167
 41000000 000000010000 .SO            *20       239
 41000000 000000100000 .SR            *20       104
 40000000 000000004000 .SRCR          *20
 40000000 000000001000 .SS            *20
 40000000 000000000007 .SSTP          *20
 40000000 000000004000 .SYN           *20
 12:39 09/05/97  FILE=ZIM$DBAC.:ZIC0TSI       SYMBOL TABLE                                               17   BMAP - B00
 40000000 000000000040 .SYNC          *20
 40000000 000000020000 .TJRNL         *20
 40000000 000000040000 .TMPLT         *20
 40000000 000000040000 .TRACE         *20
 40000000 000000000001 .TRENTRY       *20
 40000000 000000000012 .TRIDEL        *20
 40000000 000000000021 .TRIDELENQ     *20
 40000000 000000000024 .TRIDEQ        *20
 40000000 000000000013 .TRIMOD        *20
 40000000 000000000022 .TRIMODENQ     *20
 40000000 000000000014 .TRIREAD       *20
 40000000 000000000023 .TRIREADENQ    *20
 40000000 000000000011 .TRISTO        *20
 40000000 000000000020 .TRISTOENQ     *20
 40000000 000000000017 .TRPDEQ        *20
 40000000 000000000004 .TRPMOD        *20
 40000000 000000000016 .TRPMODENQ     *20
 40000000 000000000002 .TRPREAD       *20
 40000000 000000000015 .TRPREADENQ    *20
 40000000 000000000003 .TRPWRITE      *20
 40000000 000000000010 .TRRACC        *20
 40000000 000000000006 .TRRDEL        *20
 40000000 000000000007 .TRRMOD        *20
 40000000 000000000005 .TRRSTO        *20
 40000000 000000004000 .ULCK          *20
 40000000 000000400000 .UPDT          *20
 40000000 000000000040 .VIA           *20
 61000000 000000000001 A              *20        94       116       138       160       265
 41000000 000000000002 ABAS           *20       252
 40000000 000000000001 AC             *20
 01101000 000000000066 ACCS            71      *135
 40000000 777777777760 ACDEF          *20
 40000000 000000211070 ACDNL          *20
 01101000 000000000264 ACE1           105      *280
 01101000 000000000300 ACE2           168      *295
 01101000 000000000300 ACE3           146      *296
 40000000 000000000003 ACID           *20
 12:39 09/05/97  FILE=ZIM$DBAC.:ZIC0TSI       SYMBOL TABLE                                               18   BMAP - B00
 01101000 000000000104 ACNS            72      *155
 40000000 000000001016 ACOPN          *20
 01101000 000000000104 ACOS            74      *157
 40000000 000000000002 ACP            *20
 01101000 000000000104 ACPS            73      *156
 41000000 000000000005 ACPTR          *20       188       251
 01101000 000000000325 ACR1           272       279       284       289       294       300       305
                                      309       314       319       326       332      *336
 40000000 000000000002 ACRAH          *20
 40000000 000000000001 ACRAN          *20
 40000000 000000001003 ACREC          *20
 40000000 000000000001 ACTDBCB        *20
 40000000 000000000002 ACTDBNO        *20
 40000000 000000001017 ACTP           *20
 40000000 000000000000 ACTSSS         *20
 40000000 000000000000 ACTSZ          *20
 40000000 000000210565 AFNP           *20
 40000000 000000000635 AFT            *20
 01101000 000000000317 AINDX           84       124       171      *315
 40000000 000000022124 AIR            *20
 40000000 000000000016 AMAX           *20
 40000000 000000000026 ANAM           *20
 40000000 000000021614 ANR            *20
 40000000 000000000001 APNO           *20
 01101000 000000000046 AREA            70      *113
 01101000 000000000245 ARET            87       109       131       152       181       234       240
                                      250      *254
 41000000 000000210562 ARGER          *20       268
 41000000 000000000020 ARGS           *20
 40000000 000000000077 ARGS2          *20
 40000000 000000210713 ARNAF          *20
 40000000 000000000003 ATBL           *20
 40000000 000000000000 ATRIB          *20
 40000000 000000000002 AVLN           *20
 40000000 000000000013 AWS$           *20
 40000000 000000000010 AWSZ           *20
 60000000 000000000001 B              *20
 12:39 09/05/97  FILE=ZIM$DBAC.:ZIC0TSI       SYMBOL TABLE                                               19   BMAP - B00
 40000000 000000001006 B32N           *20
 40000000 000000001007 B36N           *20
 40000000 000000001056 B72N           *20
 40000000 000000000001 BADDR          *20
 40000000 000000210712 BADSEED        *20
 40000000 777777777765 BDCW           *20
 40000000 000000000633 BEF            *20
 40000000 000000020000 BEFW           *20
 40000000 000000000751 BEMT           *20
 40000000 777777777761 BID            *20
 40000000 777777777762 BIND           *20
 40000000 000000000007 BLKD           *20
 40000000 000000303331 BME02          *20
 41000000 000000001203 BMPB           *20
 40000000 000000000652 BN1            *20
 40000000 000000000654 BN2            *20
 40000000 000000000004 BPL            *20
 40000000 000000000015 BPLDBK         *20
 40000000 000000000034 BSPG           *20
 40000000 777777777763 BSTAT          *20
 40000000 000000000750 BTX0           *20
 41000000 000000001160 BUF4           *20
 41000000 000000001170 BUF6           *20
 41000000 000000000000 BUFORG         *20
 40000000 000000001060 BUFRQ          *20
 40000000 000000000006 BURRID         *20
 41000000 000000000020 BWASZ          *20
 60000000 000000000001 C              *20
 40000000 000000000050 CAAC           *20
 40000000 000000000050 CACD           *20
 40000000 000000000111 CAG            *20
 40000000 000000001033 CAL            *20
 40000000 000000000026 CALLPM0        *20
 40000000 000000000003 CANSSS         *20
 41000000 000000000003 CBCPA          *20       207
 40000000 000000000002 CBCPO          *20
 41000000 000000000002 CBENO          *20       208
 12:39 09/05/97  FILE=ZIM$DBAC.:ZIC0TSI       SYMBOL TABLE                                               20   BMAP - B00
 40000000 000000000014 CBFSZ          *20
 40000000 000000000753 CBIB           *20
 40000000 000000001030 CBID           *20
 41000000 000000000014 CBRCE          *20       209
 40000000 000000000014 CBRCP          *20
 40000000 000000001033 CBRID          *20
 40000000 000000000015 CBRPA          *20
 40000000 000000000031 CCHAR          *20
 40000000 000000000040 CDBK           *20
 40000000 000000000030 CDES           *20
 40000000 000000000110 CDP            *20
 40000000 000000001044 CDPSI          *20
 40000000 000000000002 CDRH           *20
 40000000 000000000003 CDRN           *20
 40000000 000000000002 CDSH           *20
 40000000 000000000003 CDSN           *20
 40000000 000000000722 CENTRN         *20
 40000000 000000000722 CENTRO         *20
 40000000 000000000716 CENTRY         *20
 01101000 000000000252 CER11           97       119       141       163      *266
 41000000 000000001053 CFCT           *20
 40000000 000000000670 CFLPT1         *20
 40000000 000000000672 CFLPT2         *20
 40000000 000000000015 CFSA           *20
 40000000 000000000646 CHDBK          *20
 40000000 000000000773 CHR            *20
 40000000 000000000006 CHRD           *20
 40000000 000000000772 CHRO           *20
 40000000 000000007640 CHRTP          *20
 40000000 000000001043 CIAC           *20
 40000000 000000000012 CIAWS          *20
 40000000 000000001051 CIBSI          *20
 40000000 000000000516 CIND           *20
 40000000 000000001041 CINVSZ         *20
 40000000 000000001042 CIPG           *20
 40000000 000000001050 CIPSI          *20
 40000000 000000000000 CIRUN          *20
 12:39 09/05/97  FILE=ZIM$DBAC.:ZIC0TSI       SYMBOL TABLE                                               21   BMAP - B00
 40000000 000000000002 CIRWS          *20
 40000000 000000000002 CISWS          *20
 40000000 000000000014 CIWSOF         *20
 40000000 000000303374 CKSM           *20
 40000000 000000000022 CLCN           *20
 40000000 000000000023 CLCP           *20
 40000000 000000000003 CLCRC          *20
 40000000 000000000003 CLCSC          *20
 40000000 000000000237 CLI            *20
 40000000 000000000026 CLNG           *20
 40000000 000000000052 CMPL           *20
 40000000 000000000002 CN             *20
 40000000 000000303315 CNE1           *20
 41000000 000000006034 CNUL           *20       286       291       302
 40000000 000000100000 COB74          *20
 40000000 000000000001 COFS           *20
 40000000 000000000045 CONCD          *20
 40000000 000000007764 CP6PGSZB       *20
 41000000 000000001775 CP6PGSZW       *20
 40000000 000000001000 CPGR           *20
 40000000 000000000723 CPTRN          *20
 40000000 000000000723 CPTRO          *20
 60000000 000000000004 CPW            *20
 40000000 000000000112 CRA            *20
 40000000 000000001004 CRD            *20
 40000000 000000000764 CREC           *20
 40000000 000000006344 CRIT           *20
 41000000 000000006200 CRNUL          *20       275
 40000000 000000007330 CRST           *20
 41000000 000000001223 CRUN           *20        80        85
 41000000 000000000000 CSECT          *20
 40000000 000000000007 CSMPP          *20
 40000000 000000001000 CSPAC          *20
 40000000 000000000004 CSPAH          *20
 40000000 777777777776 CSPES          *20
 40000000 777777777776 CSPSB          *20
 40000000 000000000115 CSTS           *20
 12:39 09/05/97  FILE=ZIM$DBAC.:ZIC0TSI       SYMBOL TABLE                                               22   BMAP - B00
 40000000 000000000071 CSUB           *20
 40000000 000000000017 CSZ            *20
 40000000 000000000057 CTMASK         *20
 40000000 000000000774 CTPAI          *20
 40000000 000000000240 CURLN          *20
 40000000 000000000236 CURLT          *20
 40000000 000000000770 CURPG          *20
 41000000 000000000001 CURR           *20       107       129       150       173
 40000000 000000000035 CURRS          *20
 40000000 000000000037 CURSS          *20
 40000000 000000001005 CWRT           *20
 40000000 000000000237 CWSOF          *20
 60000000 000000000001 D              *20
 40000000 000000000003 DBAN           *20
 40000000 000000000036 DBDR           *20
 40000000 000000000037 DBFN           *20
 40000000 000000000754 DBK            *20
 40000000 000000000777 DBKAC          *20
 41000000 000000000000 DBKEY          *20       185       232       237
 40000000 000000000000 DBKL           *20
 40000000 000000007474 DBKN           *20
 41000000 000000000776 DBKR           *20
 40000000 000000000777 DBKRQ          *20
 40000000 000000000234 DBKSI          *20
 40000000 000000000651 DBKSR          *20
 40000000 000000000047 DBKYN          *20
 40000000 000000210652 DBLC01         *20
 40000000 000000210653 DBLC05         *20
 40000000 000000303334 DBLC07         *20
 40000000 000000210655 DBLD01         *20
 40000000 000000000010 DBLIM          *20
 40000000 000000000033 DBPKY          *20
 40000000 000000000023 DBRN           *20
 40000000 000000000013 DBSN           *20
 40000000 000000000001 DBST           *20
 40000000 000000000757 DCDSR          *20
 40000000 000000210650 DCE1           *20
 12:39 09/05/97  FILE=ZIM$DBAC.:ZIC0TSI       SYMBOL TABLE                                               23   BMAP - B00
 40000000 000000001053 DCPR           *20
 40000000 000000001053 DCPW           *20
 40000000 000000000015 DCTBL          *20
 41000000 000000000032 DDBK           *20       233       243       246
 40000000 000000000006 DDCB           *20
 40000000 000000011754 DDI            *20
 41000000 000000000000 DEF            *20        81        95       103       117       120       139
                                      144       161       166       202       238       248
 40000000 000000000014 DEF2           *20
 40000000 000000303413 DELAK          *20
 40000000 000000000036 DELRS          *20
 40000000 000000000732 DEPCW          *20
 40000000 000000303414 DLDBK          *20
 40000000 000000210627 DLE1           *20
 40000000 000000303310 DLE2           *20
 40000000 000000210631 DLE3           *20
 40000000 000000016040 DNES           *20
 40000000 777777777777 DPAGN          *20
 40000000 000000000020 DPPI           *20
 40000000 000000000053 DPSLW          *20
 40000000 000000000003 DS             *20
 40000000 000000001063 DSDES          *20
 40000000 000000303316 DSE1           *20
 40000000 000000000735 DUSEPA         *20
 60000000 000000000001 E              *20
 40000000 000000303251 EDPER          *20
 40000000 000000000026 EEIND          *20
 40000000 000000000713 EFIND          *20
 40000000 000000001030 ELO            *20
 40000000 000000210711 ENCPNA         *20
 40000000 000000000007 ENCRP          *20
 40000000 000000000752 ENDSR          *20
 40000000 000000210647 ENE1           *20
 40000000 000000000716 ENIND          *20
 40000000 000000000013 ENTBL          *20
 40000000 000000000710 ENTNO          *20
 40000000 000000000712 ENTPTR         *20
 12:39 09/05/97  FILE=ZIM$DBAC.:ZIC0TSI       SYMBOL TABLE                                               24   BMAP - B00
 40000000 000000000717 ENTSZ          *20
 40000000 000000000711 ENTTYP         *20
 40000000 000000004064 EOSR           *20
 40000000 000000000004 ES             *20
 41000000 000000000100 ESTSZ          *20
 40000000 000000000725 ESZ            *20
 40000000 000000000005 ETCADR         *20
 40000000 000000000005 ETCDBNO        *20
 40000000 000000000064 EXCCD          *20
 40000000 000000234534 FALRT          *20
 40000000 000000001055 FBF72          *20
 40000000 000000001025 FBU61          *20
 40000000 000000001020 FBUF           *20
 40000000 000000001026 FBUF1          *20
 40000000 000000001027 FBUF4          *20
 40000000 000000001024 FBUF6          *20
 40000000 000000001022 FBUFM          *20
 40000000 000000001021 FBUFU          *20
 40000000 000000001023 FBUMD          *20
 40000000 000000000004 FCN            *20
 40000000 000000000051 FCNT           *20
 40000000 000000000002 FCP            *20
 40000000 000000000047 FCSS           *20
 40000000 000000000005 FD             *20
 40000000 000000210637 FDE1           *20
 40000000 000000303320 FDE2           *20
 40000000 000000303321 FDE3           *20
 40000000 000000210642 FDE4           *20
 40000000 000000210643 FDE5           *20
 40000000 000000210644 FDE6           *20
 40000000 000000303325 FDE7           *20
 40000000 000000303326 FDE8           *20
 40000000 000000000021 FEASZ          *20
 40000000 000000000740 FETM           *20
 40000000 000000000006 FI             *20
 40000000 000000000103 FIAC           *20
 41000000 000000001100 FIB1           *20
 12:39 09/05/97  FILE=ZIM$DBAC.:ZIC0TSI       SYMBOL TABLE                                               25   BMAP - B00
 41000000 000000001130 FIBP           *20
 40000000 000000000000 FIBX           *20
 40000000 000000000102 FICNT          *20
 40000000 000000000005 FIPN           *20
 40000000 000000000054 FKIND          *20
 40000000 000000000015 FLAGS          *20
 40000000 000000000244 FLDDSC         *20
 40000000 000000000046 FLDTL          *20
 40000000 000000000020 FMSBF          *20
 40000000 000000000006 FNAM           *20
 40000000 000000000250 FNIND          *20
 40000000 000000000004 FNL            *20
 40000000 000000000101 FRAC           *20
 40000000 000000000002 FRANGE         *20
 40000000 000000211400 FRDNL          *20
 40000000 000000200000 FRTRN          *20
 40000000 000000000005 FRWSO          *20
 40000000 000000000767 FSLN           *20
 40000000 000000000766 FSOF           *20
 40000000 000000000060 FTIND          *20
 40000000 000000303240 FTLINCR        *20
 40000000 000000000021 FWSSZ          *20
 40000000 000000000246 GACDK          *20
 40000000 000000000014 GDCB           *20
 41000000 000000000006 GERROR         *20       186       190       195       224       228
 01101000 000000000131 GETC           178      *182
 01101000 000000000223 GETKEY         224       225       228      *230
 40000000 000000000016 GINHIB         *20
 40000000 000000000020 GIOAWS         *20
 40000000 000000000022 GIOBUF         *20
 40000000 000000000021 GIOPGNO        *20
 40000000 000000000015 GPAGE          *20
 40000000 000000000010 GRETAC         *20
 40000000 000000000011 GRETFR         *20
 40000000 000000000013 GRETRC         *20
 40000000 000000000012 GRETSC         *20
 40000000 000000000025 GRLCW          *20
 12:39 09/05/97  FILE=ZIM$DBAC.:ZIC0TSI       SYMBOL TABLE                                               26   BMAP - B00
 40000000 000000000014 GSTCD          *20
 40000000 000000000007 GSYSERR        *20
 40000000 000000000010 GT             *20
 40000000 000000000046 GTRNAME        *20
 40000000 000000000055 GTRPDCB        *20
 40000000 000000000056 GTRPNO         *20
 40000000 000000000057 GTRRDBK        *20
 40000000 000000000060 GTRRTYPE       *20
 40000000 000000000060 GTRTYPE        *20
 40000000 000000000027 HASH           *20
 40000000 000000000022 HIA            *20
 40000000 000000000775 HIDB           *20
 40000000 000000000003 HIGHDBK        *20
 40000000 000000000004 HIGHPG         *20
 40000000 000000001037 HIL            *20
 40000000 000000000002 HILN           *20
 41000000 000000000006 HPOS           *20       242
 40000000 000000000756 IAAC           *20
 40000000 000000001011 IACLN          *20
 40000000 000000001010 IALC           *20
 40000000 000000010314 IAN            *20
 40000000 000000001012 IANLN          *20
 40000000 000000000001 IASID          *18
 40000000 000000020320 ICA            *20
 40000000 000000000023 ICKSMP         *20
 40000000 000000000024 ICKSMV         *20
 41000000 000000210742 ICNR           *20       311       316
 41000000 000000000020 ICSIZ          *20
 40000000 000000010004 IDBK           *20
 40000000 000000012120 IDI            *20
 40000000 000000000023 IDS            *20
 40000000 000000000011 IF             *20
 40000000 000000000021 IFIPN          *20
 40000000 000000000000 IFR            *20
 40000000 000000234546 IKSEQ          *20
 01101000 000000000252 ILOPT           75       221      *267
 40000000 000000000113 INAFLAG        *20
 12:39 09/05/97  FILE=ZIM$DBAC.:ZIC0TSI       SYMBOL TABLE                                               27   BMAP - B00
 40000000 000000000016 INCHA          *20
 40000000 000000210566 INNM           *20
 40000000 000000210567 INSS           *20
 40000000 000000210575 INSST          *20
 40000000 000000303241 INTER          *20
 40000000 000000400000 INTII          *20
 40000000 000000000013 INTVL          *20
 40000000 000000001060 INVFLG         *20
 40000000 000000001043 INVOF          *20
 40000000 000000000014 INVT           *20
 40000000 000000000034 IOBLK          *20
 40000000 000000303354 IOCLSD         *20
 40000000 000000303355 IOCLSK         *20
 40000000 000000303257 IOE1           *20
 40000000 000000303264 IOE11          *20
 40000000 000000303265 IOE12          *20
 40000000 000000303266 IOE18          *20
 40000000 000000303260 IOE2           *20
 40000000 000000303261 IOE3           *20
 40000000 000000303262 IOE7           *20
 40000000 000000303263 IOE8           *20
 40000000 000000303363 IOFLSH         *20
 40000000 000000210676 IOGDCB         *20
 40000000 000000001002 IOINC          *20
 40000000 000000305160 IOINI          *20
 40000000 000000305155 IONOTIDS       *20
 40000000 000000305154 IONOTKEY       *20
 40000000 000000210677 IOOPND         *20
 40000000 000000210700 IOOPNK         *20
 40000000 000000303361 IORDD          *20
 40000000 000000305156 IOSCHEMA       *20
 40000000 000000001052 IOSTS          *20
 40000000 000000303362 IOWRTD         *20
 41000000 000000000750 IOWS           *20
 40000000 000000000647 IPC            *20
 40000000 000000000650 IPCF           *20
 40000000 000000000006 IROLLFLAG      *20
 12:39 09/05/97  FILE=ZIM$DBAC.:ZIC0TSI       SYMBOL TABLE                                               28   BMAP - B00
 41000000 000000010150 IRSN           *20       281       297
 40000000 000000000004 ISYSDCB        *20
 40000000 000000000005 ISYSERR        *20
 40000000 000000000061 ITPTR          *20
 40000000 000000000060 ITRS           *20
 40000000 000000021760 IUM            *20
 40000000 000000000017 IUSZ           *20
 40000000 000000234522 IVDBK          *20
 40000000 000000000011 IXBUF$         *20
 40000000 000000000046 IXFBSZ         *20
 40000000 777777777776 IXID           *20
 40000000 777777777777 IXPLL          *20
 40000000 000000000523 KCARG0         *20
 40000000 000000000524 KCARG3         *20
 40000000 000000000525 KCARG4         *20
 40000000 000000000700 KCREG          *20
 40000000 000000000006 KDCB           *20
 40000000 000000000666 KEYDS          *20
 40000000 000000000010 KEYPA          *20
 40000000 777777777776 KLNG           *20
 40000000 000000000022 KPASZ          *20
 40000000 000000000006 KWSZ           *20
 40000000 000000000052 LANGC          *20
 40000000 000000001014 LAS            *20
 40000000 000000700000 LCODM          *20
 40000000 000000001045 LDPSI          *20
 40000000 000000001071 LINPT          *20
 40000000 000000001017 LNCNT          *20
 40000000 000000000762 LNNO           *20
 40000000 000000001036 LOL            *20
 40000000 000000000715 LOLIM          *20
 40000000 000000000023 LPASZ          *20
 40000000 000000000012 LPP            *20
 40000000 000000257764 LR             *20
 40000000 000000301270 LRA            *20
 40000000 000000000017 LRSZ           *20
 40000000 000000001035 LSPC           *20
 12:39 09/05/97  FILE=ZIM$DBAC.:ZIC0TSI       SYMBOL TABLE                                               29   BMAP - B00
 40000000 000000000750 LUPD           *20
 61000000 000000000001 M9             *20
 40000000 000000000013 MD             *20
 40000000 000000300000 MDQS           *20
 40000000 000000000730 MEMPTR         *20
 40000000 000000000727 MEMTYP         *20
 40000000 000000000045 MODCD          *20
 41000000 000000001207 MODFL          *20
 40000000 000000000042 MODFR          *20
 40000000 000000000044 MODIN          *20
 40000000 000000000044 MODRS          *20
 40000000 000000000043 MODSC          *20
 40000000 000000000047 MRBKI          *20
 40000000 000000210632 MRE4           *20
 40000000 000000303313 MRE5           *20
 40000000 000000210634 MRE7           *20
 40000000 000000400000 MW             *20
 01101000 000000000274 NAC            128       130      *290
 40000000 000000000025 NCH            *20
 40000000 000000000002 NCHA           *20
 40000000 000000000005 NCHRS          *20
 40000000 000000000014 NDCD           *20
 40000000 000000000012 NENC           *20
 40000000 000000000634 NEW            *20
 40000000 000000001072 NEWSIZ         *20
 40000000 000000235164 NKA            *20
 40000000 000000235020 NKDB           *20
 40000000 000000303415 NLDBK          *20
 40000000 777777777777 NLIND          *20
 40000000 000000001040 NLN            *20
 40000000 000000400000 NLNSA          *20
 41000000 000000001053 NOBF           *20
 40000000 000000000711 NOPTRS         *20
 40000000 000000000742 NPARCW         *20
 40000000 000000000630 NPIND          *20
 01101000 000000000324 NPNF           224       228      *331
 40000000 000000000004 NPOS           *20
 12:39 09/05/97  FILE=ZIM$DBAC.:ZIC0TSI       SYMBOL TABLE                                               30   BMAP - B00
 01101000 000000000257 NRC             86      *274
 01101000 000000000323 NRC10          190      *323
 01101000 000000000323 NRS10          195      *324
 40000000 000000234510 NSA            *20
 01101000 000000000304 NSC            149       151       174      *301
 40000000 000000234654 NSCS           *20
 40000000 000000234344 NSDB           *20
 40000000 000000000001 NSTS           *20
 01101000 000000000270 NTC            108      *285
 40000000 000000000726 NUMENT         *20
 40000000 000000000727 NUMPTR         *20
 40000000 777777777760 NXBUF          *20
 40000000 000000000713 NXPRI          *20
 01101000 000000000206 NXT            218      *223
 40000000 000000000771 NXTC           *20
 40000000 000000000001 OAACN          *20
 40000000 000000000022 OACIWSOF       *20
 40000000 000000000001 OAOFST         *20
 40000000 000000000002 OARCN          *20
 40000000 000000000001 OASCN          *20
 40000000 000000000014 OD             *20
 40000000 000000000074 ODBK           *20
 40000000 000000001072 OLDSIZ         *20
 40000000 000000000101 OPADP          *20
 40000000 000000000741 OPARCW         *20
 40000000 000000210570 ORDNI          *20
 40000000 777777777777 OTVL           *20
 01101000 000000000227 OWN            220      *236
 40000000 000000000252 OWNPTR         *20
 40000000 000000000016 PABUF          *20
 40000000 000000001041 PACD           *20
 40000000 000000000001 PACW           *20
 40000000 000000000733 PADBK          *20
 40000000 000000000740 PADUP          *20
 40000000 000000000745 PAEN           *20
 40000000 000000000745 PAEO           *20
 40000000 000000000734 PAEOF          *20
 12:39 09/05/97  FILE=ZIM$DBAC.:ZIC0TSI       SYMBOL TABLE                                               31   BMAP - B00
 40000000 000000303336 PAER1          *20
 40000000 000000303337 PAER2          *20
 40000000 000000303340 PAER3          *20
 40000000 000000303341 PAER4          *20
 40000000 000000303342 PAER5          *20
 40000000 000000303343 PAER6          *20
 40000000 000000000747 PAESZ          *20
 40000000 000000001060 PAFLG          *20
 40000000 000000000731 PAOPTR         *20
 40000000 000000000734 PAPOF          *20
 40000000 000000000714 PARCW          *20
 40000000 000000000726 PARVPA         *20
 40000000 000000000724 PASPLT         *20
 40000000 000000000004 PAWSZ          *20
 40000000 777777777762 PBUF           *20
 40000000 000000000020 PC             *20
 41000000 000000000510 PCB            *20
 40000000 000000000642 PCD            *20
 40000000 000000000642 PCD2           *20
 40000000 000000000247 PCEXI          *20
 40000000 000000000675 PCMIN          *20
 40000000 000000004541 PCOMP          *20
 40000000 000000000010 PD             *20
 40000000 000000000040 PE             *20
 40000000 000000000017 PENDING        *20
 01101000 000000000324 PER16          186      *330
 40000000 000000000004 PF             *20
 40000000 000000000400 PFG            *20
 40000000 000000000200 PFM            *20
 40000000 000000000100 PFS            *20
 40000000 000000000400 PG             *20
 40000000 000000001064 PGHD           *20
 40000000 000000000006 PGLIM          *20
 40000000 000000000003 PGRNG          *20
 40000000 000000000746 PGSIZE         *20
 40000000 000000000641 PGSPLT         *20
 40000000 000000000100 PKAW           *20
 12:39 09/05/97  FILE=ZIM$DBAC.:ZIC0TSI       SYMBOL TABLE                                               32   BMAP - B00
 40000000 000000001034 PLO            *20
 40000000 000000000004 PLSEP          *20
 40000000 000000000200 PM             *20
 40000000 000000001054 PNEOO          *20
 40000000 000000001047 POFSI          *20
 40000000 000000000005 PPOS           *20
 41000000 000000000000 PR0            *18        63        65        92       114       136       158
                                      175       191       193       214       215       255       256
 41000000 000000000001 PR1            *18        64        93       115       137       159       192
                                      194
 40000000 000000000002 PR2            *18
 41000000 000000000003 PR3            *18       211
 40000000 000000000004 PR4            *18
 41000000 000000000005 PR5            *18       186       190       195       224       228
 41000000 000000000006 PR6            *18        81        95       103       106       117       120
                                      126       139       144       147       161       166       172
                                      179       202       206       238       242       248       252
 41000000 000000000007 PR7            *18        80        85       107       127       129       148
                                      150       173       180       184       185       187       188
                                      189       196       197       198       199       200       207
                                      208       209       211       213       231       232       233
                                      237       243       246       251       259
 40000000 000000303267 PRE1           *20
 40000000 000000303277 PRE10          *20
 40000000 000000303270 PRE3           *20
 40000000 000000303271 PRE4           *20
 40000000 000000303272 PRE5           *20
 40000000 000000210613 PRE6           *20
 40000000 000000210614 PRE7           *20
 40000000 000000210615 PRE8           *20
 40000000 000000303276 PRE9           *20
 40000000 000000000522 PREXC          *20
 40000000 000000000521 PRFR           *20
 40000000 000000000521 PRFR2          *20
 01101000 000000000215 PRI            219      *227
 40000000 000000000000 PRIV           *20
 40000000 000000000526 PROPA          *20
 12:39 09/05/97  FILE=ZIM$DBAC.:ZIC0TSI       SYMBOL TABLE                                               33   BMAP - B00
 41000000 000000000517 PRRC           *20       213
 40000000 000000000517 PRRS           *20
 41000000 000000000520 PRSC           *20       199
 40000000 000000000516 PRSS           *20
 40000000 000000000644 PRSTS          *20
 40000000 000000000100 PS             *20
 41000000 000000000000 PS0SID         *18
 41000000 000000000001 PS1SID         *18
 41000000 000000000002 PS2SID         *18
 41000000 000000000003 PS3SID         *18
 41000000 000000000004 PS4SID         *18
 41000000 000000000005 PS5SID         *18       255
 40000000 000000000006 PS6SID         *18
 40000000 000000303416 PSA            *20
 40000000 000000000020 PSC            *20
 40000000 000000000010 PSD            *20
 40000000 000000000004 PSF            *20
 40000000 000000000400 PSO            *20
 40000000 000000000720 PTESZ          *20
 40000000 000000000631 PTR            *20
 40000000 000000000724 PTRESZ         *20
 40000000 000000000710 PTRNO          *20
 01101000 000000000310 PTZ            247      *306
 41000000 000000000630 PWS            *20
 41000000 000000000002 RADDR          *20       211
 40000000 000000000010 RADIX          *20
 40000000 000000000005 RAPTR          *20
 40000000 000000000004 RAWSOF         *20
 40000000 777777777766 RBA            *20
 40000000 000000023432 RCBI           *20
 40000000 000000211234 RCDNL          *20
 40000000 000000000005 RCFRH          *20
 40000000 000000000004 RCFRN          *20
 40000000 000000001075 RCHD           *20
 40000000 000000000001 RCID           *20
 41000000 000000000006 RCPTR          *20       197
 40000000 000000000002 RCRAH          *20
 12:39 09/05/97  FILE=ZIM$DBAC.:ZIC0TSI       SYMBOL TABLE                                               34   BMAP - B00
 40000000 000000000001 RCRAN          *20
 40000000 000000000003 RCRSH          *20
 40000000 000000000002 RCRSN          *20
 40000000 000000210667 RCVER1         *20
 40000000 000000210670 RCVER2         *20
 40000000 000000210671 RCVER4         *20
 40000000 000000210672 RCVER5         *20
 40000000 000000210673 RCVER6         *20
 40000000 000000000736 RCW1           *20
 40000000 000000000737 RCW2           *20
 41000000 000000000004 RCWSO          *20       106
 40000000 000000000077 RDAC           *20
 40000000 000000000076 RDCNT          *20
 40000000 000000040000 RDI            *20
 40000000 000000015674 RDLT           *20
 40000000 000000000075 RDYCW          *20
 01101000 000000000027 REC             69       *91
 40000000 000000000066 RECAC          *20
 40000000 000000000065 RECFR          *20
 40000000 000000000070 RECRC          *20
 40000000 000000000067 RECSC          *20
 40000000 000000000003 RECSZ          *20
 40000000 000000000235 REMLT          *20
 40000000 000000000062 REM_RECOVER    *20
 00101000 000000000236 RETDB         *245
 40000000 000000000251 RETFR          *20
 40000000 000000210724 RFDNL          *20
 40000000 000000017644 RIM            *20
 01101000 000000000313 RINDX          100      *310
 40000000 000000000005 RNAM           *20
 40000000 000000015706 RNDLT          *20
 40000000 000000000662 RNG1           *20
 40000000 000000000664 RNG2           *20
 40000000 000000000073 RNGD           *20
 40000000 000000000072 RNGO           *20
 40000000 000000000660 RNGTAL         *20
 41000000 000000020154 RNM            *20       307
 12:39 09/05/97  FILE=ZIM$DBAC.:ZIC0TSI       SYMBOL TABLE                                               35   BMAP - B00
 40000000 000000000041 ROCUR          *20
 40000000 000000000001 ROFST          *20
 40000000 000000002114 ROLL           *20
 40000000 000000020010 RPM            *20
 40000000 000000000001 RSCDH          *20
 40000000 000000000001 RSCDN          *20
 40000000 000000211710 RSDNL          *20
 40000000 000000004540 RSEE           *20
 40000000 000000000003 RSIZ           *20
 40000000 000000000110 RSPAM          *20
 41000000 000000000004 RSPTR          *20       200
 40000000 000000000037 RSREQ          *20
 40000000 000000000002 RSSSH          *20
 40000000 000000000001 RSSSN          *20
 40000000 000000210574 RSZER          *20
 40000000 000000000632 RSZTP          *20
 41000000 000000000003 RTP            *20       189
 40000000 000000000003 RTYP           *20
 01101000 000000000017 RUN             68       *79
 40000000 000000000530 RV1            *20
 40000000 000000000550 RV2            *20
 40000000 000000000570 RV3            *20
 40000000 000000000610 RV4            *20
 41000000 000000000003 RVASID         *18        64       192
 41000000 000000000510 RVI            *20       184       187       196
 41000000 000000000511 RVO            *20       231       259
 40000000 000000000513 RVPA           *20
 40000000 000000000512 RVT            *20
 40000000 000000000022 RVTAL          *20
 40000000 000000000002 RWSZ           *20
 40000000 000000000015 RY             *20
 40000000 000000210620 RYE1           *20
 40000000 000000210621 RYE4           *20
 40000000 777777777767 SA             *20
 40000000 000000000005 SANAM          *20
 40000000 000000001062 SCDES          *20
 40000000 000000211544 SCDNL          *20
 12:39 09/05/97  FILE=ZIM$DBAC.:ZIC0TSI       SYMBOL TABLE                                               36   BMAP - B00
 40000000 000000000024 SCFC           *20
 40000000 000000000002 SCID           *20
 40000000 000000000024 SCLST          *20
 40000000 000000000004 SCNAM          *20
 41000000 000000000004 SCPTR          *20       198
 40000000 000000000003 SCRSH          *20
 40000000 000000000002 SCRSN          *20
 41000000 000000000001 SCWSO          *20       147       172       179       206
 40000000 000000001225 SFWS           *20
 40000000 000000001073 SIZCHG         *20
 40000000 000000000645 SKFLG          *20
 40000000 000000000643 SKIND          *20
 40000000 000000000641 SKTYP          *20
 40000000 000000020464 SMCR           *20
 40000000 000000000003 SNAM           *20
 40000000 000000000107 SNIND          *20
 40000000 000000000735 SNPAE          *20
 40000000 000000001046 SNSI           *20
 40000000 000000000743 SOE            *20
 40000000 000000020630 SORSA          *20
 40000000 000000004374 SOSE           *20
 40000000 000000000000 SPAV           *20
 40000000 000000000744 SPCAVN         *20
 40000000 000000000744 SPCAVO         *20
 40000000 000000000765 SPLF           *20
 41000000 000000000765 SPND           *20
 40000000 000000000006 SSDT           *20
 40000000 000000303243 SSER           *20
 40000000 000000303244 SSER1          *20
 40000000 000000000002 SSH            *20
 40000000 000000000005 SSNAM          *20
 40000000 000000210573 SSNF           *20
 40000000 000000210576 SSNV           *20
 40000000 000000000020 SSSPTR         *20
 40000000 000000000010 SSVDT          *20
 40000000 000000000033 SSZTP          *20
 40000000 000000000017 ST             *20
 12:39 09/05/97  FILE=ZIM$DBAC.:ZIC0TSI       SYMBOL TABLE                                               37   BMAP - B00
 40000000 000000000104 STBIN          *20
 40000000 000000000105 STDEC          *20
 40000000 000000303302 STE1           *20
 40000000 000000303303 STE2           *20
 40000000 000000210624 STE3           *20
 40000000 000000303305 STE4           *20
 40000000 000000303306 STE5           *20
 00101000 000000000323 STER1         *325
 41000000 000000000100 STKSIZ         *20
 40000000 000000000055 STMASK         *20
 40000000 000000000062 SUST           *20
 01101000 000000000173 SVRS           205      *210
 41000000 000000000020 SWS            *20
 40000000 000000000000 SWSAC          *20
 40000000 000000000002 SWSZ           *20
 40000000 000000000000 SYSSF          *20
 40000000 000000000765 SZREQ          *20
 40000000 000000000004 TBUF           *20
 40000000 000000001061 TCTRS          *20
 60000000 000000000000 TDS            *20
 41000000 000000000113 TEMP           *20
 40000000 000000000640 TFLD           *20
 40000000 000000000657 TFLD2          *20
 40000000 000000000056 TMASK          *20
 40000000 000000000061 TMODE          *20
 40000000 000000000676 TMPPA          *20
 40000000 000000000003 TPAI           *20
 40000000 000000500000 TPRCOD         *20
 40000000 000000001031 TSFN           *20
 40000000 000000000021 TSI            *20
 40000000 000000001013 UBRD2          *20
 41000000 000000001223 UBSZ           *20
 40000000 000000000667 UCADR          *20
 40000000 000000000036 UCRS           *20
 40000000 000000000024 UFSPK          *20
 40000000 000000000024 UFSPK2         *20
 40000000 000000000715 ULIM           *20
 12:39 09/05/97  FILE=ZIM$DBAC.:ZIC0TSI       SYMBOL TABLE                                               38   BMAP - B00
 40000000 000000004230 UNA            *20
 40000000 000000303417 UNIM           *20
 40000000 000000000002 UOFST          *20
 40000000 000000001035 UPACD          *20
 40000000 000000000721 UPACW          *20
 40000000 000000000007 UPFLAG         *20
 40000000 000000000103 UPPAI          *20
 40000000 000000000004 UPTSID         *18
 40000000 000000000674 USTAT          *20
 40000000 000000000002 UWASID         *18
 40000000 000000000002 UWSSZ          *20
 40000000 000000000020 UWSZ           *20
 40000000 000000000243 VFDSC          *20
 40000000 000000001070 VFDSR          *20
 40000000 000000000656 VFLD           *20
 40000000 000000001074 VFLNG          *20
 40000000 000000001124 VIB1           *20
 40000000 000000001154 VIBP           *20
 41000000 000000000000 VLPSID         *18        63       191       214
 40000000 000000001074 VRSIZ          *20
 40000000 000000001067 WLOA           *20
 40000000 000000100000 WRTI           *20
 40000000 000000000000 WSBID          *20
 41000000 000000000003 WSOF           *20       126
 41000000 000000000000 X0             *18       114       115       188       251       269       276
                                      282       287       298       303       308       312
 41000000 000000000001 X1             *18        81        82        83        95        96        98
                                       99       103       104       106       117       118       126
                                      139       140       144       145       147       161       162
                                      166       167       172       179       186       190       195
                                      202       203       204       206       212       213       215
                                      216       224       228       238       239       248       249
                                      258       259
 40000000 000000000002 X2             *18
 41000000 000000000003 X3             *18       184       187       196       231
 40000000 000000000004 X4             *18
 41000000 000000000005 X5             *18       200
 12:39 09/05/97  FILE=ZIM$DBAC.:ZIC0TSI       SYMBOL TABLE                                               39   BMAP - B00
 41000000 000000000006 X6             *18       136       137       158       159       193       194
                                      198       199       270       277       283       288       292
                                      313       317
 03201006 000000000000 X66_ARET       *18       261
 03201005 000000000000 X66_AUTO_0     *18        61
 41000000 000000000007 X7             *18        80        92        93       197       271       278
                                      293       299       304       318
 40000000 000000210665 XASL           *20
 40000000 000000303420 XLD            *20
 40000000 000000303421 XPD            *20
 40000000 000000000676 XPRS           *20
 40000000 000000210666 XROLL          *20
 40000000 000000210664 XUNEX          *20
 40000000 777777777777 XXDPN          *20
 03201007 000000000000 ZIB$DBALT     *336
 12101000 000000000000 ZIG$DBACC       10       *60
 03201001 000000000000 ZIG$DBGRS      *13       195
 03201002 000000000000 ZIG$DBPFD      *14       186
 03201003 000000000000 ZIG$DBPFN      *15       224
 03201004 000000000000 ZIG$DBPFP      *16       228
 03201000 000000000000 ZIQ$DBGRC      *12       190

     962 SYMBOLS

 12:39 09/05/97  FILE=ZIM$DBAC.:ZIC0TSI       MACRO TABLE                                                40   BMAP - B00
 CBSYM           20
 DBALT          336
 DBCAL          186       190       195       224       228
 DBRET          261
 DBSAV           61
 ICCAL          190
 Q2SYM           20
 SSSYM           20

      37 MACROS

    SYMBOL SPACE USED  9503 WORDS
     MACRO SPACE USED 13055 WORDS
   INPUT RECORDS READ  2476
 STATEMENTS PROCESSED  2275
         ELAPSED TIME  0:11.52
             CPU TIME    10.93 SEC.
        ASSEMBLY RATE 12489 STATEMENTS/CPU MIN.

      NO ERRORS

