
 12:39 09/05/97  FILE=ZIM$DBAN.:ZIC0TSI                                                                  1    BMAP - B00
                                         1  *M*      ZIG$DBAN
                                         2  *T***********************************************************
                                         3  *T*                                                         *
                                         4  *T* Copyright (c) Bull HN Information Systems Inc., 1997    *
                                         5  *T*                                                         *
                                         6  *T***********************************************************

 12:39 09/05/97  FILE=ZIM$DBAN.:ZIC0TSI       H6600H2.509     IDS/IT ACCEPT AREA NAME        780113DBAN  2    BMAP - B00
                                         7         TTL     H6600H2.509     IDS/IT ACCEPT AREA NAME        780113DBAN
                                         8         CPR     1974
                                         9         PMC     OFF
                                        10  *
                                        11         ENTDEF  ZIG$DBACN
                                        12  *
                                        13         ENTREF  ZIQ$DBIOA
                                        14  *
                                        15         LODM    Q2MA
                                        16  *
                                        17         Q2SYM

 12:39 09/05/97  FILE=ZIM$DBAN.:ZIC0TSI       IDS II  MOVE AREA NAME SUBROUTINE                          3    BMAP - B00
                                        18         TTLS    IDS II  MOVE AREA NAME SUBROUTINE
                                        19  ****************************************************************
                                        20  *
                                        21  *  - DBACN -
                                        22  *
                                        23  *      ACCEPT.  Move an area name to user-defined storage.
                                        24  *
                                        25  *      Parameter   Description
                                        26  *      ---------   -----------
                                        27  *
                                        28  *          0       IA
                                        29  *          1       UWA
                                        30  *          2       FPT
                                        31  *          3       Alphanumeric data item to receive area name
                                        32  *          4       Data base key
                                        33  *
                                        34  *      FPT Format...
                                        35  *
                                        36  *      Word 0:  Name Control Word
                                        37  *          HW 0:  Currency indicator defining the area to move
                                        38  *              0  Current of run
                                        39  *              1  Current of record type
                                        40  *              2  DBK given in the call (Parameter number 4)
                                        41  *              3  Current of set
                                        42  *          HW 1:  The number of bytes in the data item
                                        43  *      Word 1:  Unused
                                        44  *      Word 2:  The contents of this word depend on the
                                        45  *          Name Control Word (NCW).
                                        46  *          If NCW=0 this parameter is not passed, or is zero
                                        47  *          If NCW=1 RVA offset to a schema subset element which
                                        48  *              describes a data base record
                                        49  *          If NCW=2 this word will be null, or zero, and
                                        50  *              parameter number 4 will frame a data base key
                                        51  *              in the user's instruction segement.
                                        52  *          If NCW=3 RVA offset to a schema subset element which
                                        53  *              describes a set.
                                        54  *
 12:39 09/05/97  FILE=ZIM$DBAN.:ZIC0TSI       IDS II  MOVE AREA NAME SUBROUTINE                          4    BMAP - B00
                                        55  ****************************************************************
                                        56  *
 0 000000                               57  ZIG$DBACN NULL
   000000  X 000000 7000 00             58           DBSAV
   000001    000004 000000
                                        59  *  GET NAME CONTROL WORD & GO TO PROPER ROUTINE
   000002    000000 4704 07             60         LDP    PR0,VLPSID,DL            VLP$
   000003    000003 4714 07             61           LDP      PR1,RVASID,DL           RVA$
   000004    0 00000 2351 00            62         LDA     0,,PR0               Get Name Control Word from FPT
   000005    000003 3750 03             63         ANA     3,DU            ISOLATE
   000006 (0)000007 7100 01             64         TRA     *+1,AU          GO TO CORRECT ROUTINE
   000007 (0)000013 7100 00             65         TRA     RUNC
   000010 (0)000017 7100 00             66         TRA     RECT
   000011 (0)000034 7100 00             67         TRA     DBKF
   000012 (0)000041 7100 00             68         TRA     SETC
                                        69  *  CURRENT OF RUN
   000013                               70  RUNC   NULL
   000013    7 01223 2361 00            71         LDQ     CRUN,,PR7       GET DBK OF CURRENT OF RUN
   000014    7 00777 7561 00            72         STQ     DBKAC,,PR7           Store it in DBCB for ZIQ$DBIOA
   000015 (0)000123 6000 00             73         TZE     NCURR           NONE - ERROR
   000016 (0)000060 7100 00             74         TRA     RETN            GO TO GET NAME
                                        75  *  CURRENT OF RECORD TYPE
   000017                               76  RECT   NULL
   000017    0 00002 2271 00            77         LDX     X7,2,,PR0            Get offset to RC pointer from FPT
   000020    1 00000 2271 17            78           LDX      X7,,X7,PR1           Get RC offset from RVA
                                        79         IFE     A,1,%CK1
   000021    6 00000 2211 17            80         LDX     X1,DEF,X7,PR6   GET DEF TYPE
   000022    100000 3010 03             81         CANX    X1,.RC,DU       IS IT AN RC
   000023 (0)000101 6000 00             82         TZE     CER12           NO - ERROR
                                        83  CK1    MARK
                                        84  *              CHECK THAT REC IS IN SUB-SCHEMA
   000024    6 00000 7211 17            85         LXL     X1,DEF,X7,PR6
   000025    100000 3010 03             86         CANX    X1,.SR,DU       IS IT IN SS
   000026    000060 6010 04             87         TNZ     ANE1,$          NO - ERROR
   000027    6 00004 2211 17            88         LDX     X1,RCWSO,X7,PR6  GET WORK SPACE OFST
   000030    7 00001 2361 11            89         LDQ     CURR,X1,PR7     GET DBK OF CURRENT
   000031    7 00777 7561 00            90         STQ     DBKAC,,PR7           Store it in DBCB for ZIQ$DBIOA
 12:39 09/05/97  FILE=ZIM$DBAN.:ZIC0TSI       IDS II  MOVE AREA NAME SUBROUTINE                          5    BMAP - B00
   000032 (0)000130 6000 00             91         TZE     NCURT           NONE - ERROR
   000033 (0)000060 7100 00             92         TRA     RETN            GO TO GET NAME
                                        93  *  AREA FROM DBK GIVEN
   000034                               94  DBKF   NULL
   000034    000006 4704 07             95         LDP    PR0,PS6SID,DL            DBK$
   000035    0 00000 2361 00            96         LDQ     0,,PR0               Get DBK from Parameter Stack
   000036    7 00777 7561 00            97         STQ     DBKAC,,PR7           Store it in DBCB for ZIQ$DBIOA
   000037 (0)000116 6000 00             98         TZE     DBKZ            ZERO - ERROR
   000040 (0)000060 7100 00             99         TRA     RETN            GO TO GET NAME
                                       100  *  CURRENT OF SET
   000041                              101  SETC   NULL
   000041    0 00002 2261 00           102         LDX     X6,2,,PR0            Get offset to RC pointer from FPT
   000042    1 00000 2261 16           103           LDX      X6,,X6,PR1           Get RC pointer from RVA
                                       104         IFE     A,1,%CK1
   000043    6 00000 2211 16           105         LDX     X1,DEF,X6,PR6   GET DEF TYPE
   000044    040000 3010 03            106         CANX    X1,.SC,DU       IS IT AN SC
   000045 (0)000101 6000 00            107         TZE     CER12           NO - ERROR
                                       108  CK1    MARK
                                       109  *              CHECK THAT SET IS IN SUB-SCHEMA
   000046    6 00000 7211 16           110         LXL     X1,DEF,X6,PR6
   000047    020000 3010 03            111         CANX    X1,.SNSS,DU     IS IT IN SS
   000050    000042 6010 04            112         TNZ     ANE2,$          NO - ERROR
   000051    6 00001 2211 16           113         LDX     X1,SCWSO,X6,PR6  GET WORK SPACE OFST
   000052    7 00000 2341 11           114         SZN     .CSE,X1,PR7     IS CURR ERASED
   000053    000061 6040 04            115         TMI     NCURS,$         YES - RETURN EXCEPT.
   000054    7 00001 2361 11           116         LDQ     CURR,X1,PR7     GET DBK OF CURRENT
   000055    7 00777 7561 00           117         STQ     DBKAC,,PR7           Store it in DBCB for ZIQ$DBIOA
   000056 (0)000134 6000 00            118         TZE     NCURS           NONE - ERROR
   000057 (0)000060 7100 00            119         TRA     RETN            GO TO GET NAME
                                       120  *  GET AREA NAME & RETURN IT TO CALLER
   000060                              121  RETN   NULL
   000060  X 000000 7010 00            122         ICCAL   ZIQ$DBIOA,,AER1 GET AC PTR
   000061 (0)000140 7020 00
   000062    5 00006 2341 00
   000063    777776 6010 04
   000064    000000 4704 07            123         LDP    PR0,VLPSID,DL            VLP$
   000065    0 00000 7211 00           124           LXL      X1,0,,PR0            Size of receiving field
 12:39 09/05/97  FILE=ZIM$DBAN.:ZIC0TSI       IDS II  MOVE AREA NAME SUBROUTINE                          6    BMAP - B00
   000066    000026 6350 10            125           EAA      ANAM,X0              Save offset of AC
   000067    000020 7710 00            126           ARL      16                   Make into Char offset
   000070    6 00000 7201 10           127           LXL      X0,DEF,X0,PR6        X0=Length of Area Name
   000071    000077 3600 03            128         ANX     X0,.ANL,DU           (Isolate just the length)
   000072    000005 4704 07            129         LDP    PR0,PS5SID,DL            RECEIVING FIELD
   000073    000000 1010 03            130         CMPX    X1,0,DU              If zero, don't attempt the move
   000074 (0)000100 6000 00            131         TZE     NMOV                 B/ If zero
   000075    040 0 140 1005 45         132         MLR     (1,1,,A),(1,1),040,0 Move area name
   000076    6 00000 0 0 0 0010        133         ADSC9   0,0,X0,PR6             from schema-subset
   000077    0 00000 0 0 0 0011        134         ADSC9   0,0,X1,PR0             to   user's receiving field
   000100                              135  NMOV   NULL
                                       136  *  RETURN
   000100  X 000000 7020 00            137           DBRET
                                       138  *
                                       139  *  ERRORS DETECTED IN THIS ROUTINE
                                       140  *
                                       141         IFE     A,1,%CK1
   000101                              142  CER12  NULL                    4TH ARGUMENT NOT CORRECT
   000101    210562 2350 07            143         LDA     ARGER,DL
   000102    000000 6200 00            144         EAX     X0,0            NULL AC
   000103    000000 6260 00            145         EAX     X6,0            NULL SC
   000104    000000 6270 00            146         EAX     X7,0            NULL RC
   000105 (0)000141 7100 00            147         TRA     ANR1
                                       148  CK1    MARK
   000106                              149  ANE1   NULL                    REC NOT IN SUB-SCHEMA
   000106    010150 2350 07            150         LDA     IRSN,DL
   000107    000000 6200 00            151         EAX     X0,0            NULL AC
   000110    000000 6260 00            152         EAX     X6,0            NULL SC
   000111    000030 7100 04            153         TRA     ANR1,$
   000112                              154  ANE2   NULL                    SET NOT IN SUB-SCHEMA
   000112    010150 2350 07            155         LDA     IRSN,DL
   000113    000000 6200 00            156         EAX     X0,0            NULL AC
   000114    000000 6270 00            157         EAX     X7,0            NULL RC
   000115    000024 7100 04            158         TRA     ANR1,$
   000116                              159  DBKZ   NULL                    DBK GIVEN IS ZERO
   000116    007474 2350 07            160         LDA     DBKN,DL
   000117    000000 6200 00            161         EAX     X0,0            NULL AC
 12:39 09/05/97  FILE=ZIM$DBAN.:ZIC0TSI       IDS II  MOVE AREA NAME SUBROUTINE                          7    BMAP - B00
   000120    000000 6260 00            162         EAX     X6,0            NULL SC
   000121    000000 6270 00            163         EAX     X7,0            NULL RC
   000122 (0)000141 7100 00            164         TRA     ANR1
   000123                              165  NCURR  NULL                    NO CURRENT OF RUN
   000123    006200 2350 07            166         LDA     CRNUL,DL
   000124    000000 6200 00            167         EAX     X0,0            NULL AC
   000125    000000 6260 00            168         EAX     X6,0            NULL SC
   000126    000000 6270 00            169         EAX     X7,0            NULL RC
   000127 (0)000141 7100 00            170         TRA     ANR1
   000130                              171  NCURT  NULL                    NO CURRENT OF REC TYPE
   000130    006034 2350 07            172         LDA     CNUL,DL
   000131    000000 6200 00            173         EAX     X0,0            NULL AC
   000132    000000 6260 00            174         EAX     X6,0            NULL SC
   000133 (0)000141 7100 00            175         TRA     ANR1
   000134                              176  NCURS  NULL                    NO CURRENT OF SET
   000134    006034 2350 07            177         LDA     CNUL,DL
   000135    000000 6200 00            178         EAX     X0,0            NULL AC
   000136    000000 6270 00            179         EAX     X7,0            NULL RC
   000137 (0)000141 7100 00            180         TRA     ANR1
                                       181  *
                                       182  *  ERRORS DETECTED IN SUBORDINATE ROUTINES
                                       183  *
   000140                              184  AER1   NULL                    AREA NOT READIED
   000140                              185  STER1  NULL                    ERROR ACCUMULATING STATISTICS
   000140 (0)000141 7100 00            186         TRA     ANR1
                                       187  *
                                       188  *  ERRORS DETECTED IN PRIMITIVES
                                       189  *
                                       190  *
                                       191  *  COMMON ERROR RETURN
                                       192  *
   000141  X 000000 7020 00            193  ANR1     DBALT
                                       194         END

  CONTROL SECTION TABLE

   0 CODE   EVEN  000142
 12:39 09/05/97  FILE=ZIM$DBAN.:ZIC0TSI       IDS II  MOVE AREA NAME SUBROUTINE                          8    BMAP - B00
   1 RODATA EVEN  000000 LITERALS

 12:39 09/05/97  FILE=ZIM$DBAN.:ZIC0TSI       SYMBOL TABLE                                               9    BMAP - B00
 40000000 000000200000 .AC            *17
 40000000 000000000100 .AG            *17
 40000000 000000002000 .ALTO          *17
 41000000 000000000077 .ANL           *17       128
 40000000 000000200000 .APDN          *17
 40000000 000000000100 .ATMP          *17
 40000000 000000400000 .AV            *17
 40000000 000000400000 .B0            *17
 40000000 000000200000 .B1            *17
 40000000 000000000200 .B10           *17
 40000000 000000000100 .B11           *17
 40000000 000000000040 .B12           *17
 40000000 000000000020 .B13           *17
 40000000 000000000010 .B14           *17
 40000000 000000000004 .B15           *17
 40000000 000000000002 .B16           *17
 40000000 000000000001 .B17           *17
 40000000 000000400000 .B18           *17
 40000000 000000200000 .B19           *17
 40000000 000000100000 .B2            *17
 40000000 000000100000 .B20           *17
 40000000 000000040000 .B21           *17
 40000000 000000020000 .B22           *17
 40000000 000000010000 .B23           *17
 40000000 000000004000 .B24           *17
 40000000 000000002000 .B25           *17
 40000000 000000001000 .B26           *17
 40000000 000000000400 .B27           *17
 40000000 000000000200 .B28           *17
 40000000 000000000100 .B29           *17
 40000000 000000040000 .B3            *17
 40000000 000000000040 .B30           *17
 40000000 000000000020 .B31           *17
 40000000 000000000010 .B32           *17
 40000000 000000000004 .B33           *17
 40000000 000000000002 .B34           *17
 40000000 000000000001 .B35           *17
 12:39 09/05/97  FILE=ZIM$DBAN.:ZIC0TSI       SYMBOL TABLE                                               10   BMAP - B00
 40000000 000000020000 .B4            *17
 40000000 000000010000 .B5            *17
 40000000 000000004000 .B6            *17
 40000000 000000002000 .B7            *17
 40000000 000000001000 .B8            *17
 40000000 000000000400 .B9            *17
 40000000 000000000001 .BREAK         *17
 40000000 000000010000 .BRK           *17
 40000000 000000020000 .BTB           *17
 40000000 000000000001 .CAC           *17
 40000000 000000000000 .CAE           *17
 40000000 000000000200 .CANSSS        *17
 40000000 000000000400 .CD            *17
 40000000 000000040000 .CFLC          *17
 40000000 000000400000 .CHKSUM        *17
 40000000 000000100000 .CJRNL         *17
 40000000 000000000077 .CNSZ          *17
 40000000 000000160000 .COMC          *17
 40000000 000000000020 .CONT          *17
 41000000 000000000000 .CSE           *17       114
 40000000 000000700000 .CTYP          *17
 41000000 000000000270 .DBEST         *17
 41000000 000000000470 .DBIC          *17
 40000000 000000077777 .DBPT          *17
 41000000 000000000370 .DBSTK         *17
 40000000 000000020000 .DELM          *17
 40000000 000000002000 .DIDP          *17
 40000000 000000000077 .DNDX          *17
 40000000 000000600000 .DORD          *17
 40000000 000000000200 .DP            *17
 40000000 000000100000 .DPS           *17
 40000000 000000200000 .DPSA          *17
 40000000 000000400000 .DPST          *17
 40000000 000000000002 .DUMP          *17
 40000000 000000002000 .DUPC          *17
 40000000 000000010000 .DUPP          *17
 40000000 000000200000 .EBCL          *17
 12:39 09/05/97  FILE=ZIM$DBAN.:ZIC0TSI       SYMBOL TABLE                                               11   BMAP - B00
 40000000 000000400000 .EBCM          *17
 40000000 000000200000 .ENCRP         *17
 40000000 000000000077 .ENDX          *17
 40000000 000000000400 .ENQ           *17
 40000000 000000004000 .ETC           *17
 40000000 000000000400 .EXIT          *17
 40000000 000000000200 .FMOD          *17
 40000000 000000000077 .FNL           *17
 40000000 000000000074 .FORG          *17
 40000000 000000002000 .FR            *17
 40000000 000000000100 .FSR           *17
 40000000 000000003400 .FUSE          *17
 40000000 000000010000 .FVF           *17
 40000000 000000040000 .FVR           *17
 40000000 000000000010 .INDEXED       *17
 40000000 000000777777 .IXID          *17
 40000000 000000001777 .IXNUM         *17
 40000000 000000000004 .KEYED         *17
 40000000 000000010000 .LCK           *17
 40000000 000000400000 .LEIL          *17
 40000000 000000001000 .LG            *17
 40000000 000000000002 .LOAD          *17
 40000000 000000020000 .MAR           *17
 40000000 000000000007 .MEMT          *17
 40000000 000000010000 .MRL           *17
 40000000 000000040000 .MSM           *17
 60000000 000000000001 .N6685         *17
 40000000 000000100000 .NAI           *17
 40000000 000000200000 .NBI           *17
 40000000 000000000002 .NCIA          *17
 40000000 000000040000 .NMV           *17
 40000000 000000017777 .NOENT         *17
 40000000 000000400000 .OA            *17
 40000000 000000740000 .OPEV          *17
 40000000 000000100000 .OSM           *17
 40000000 000000100000 .PAFIL         *17
 40000000 000000200000 .PAHVR         *17
 12:39 09/05/97  FILE=ZIM$DBAN.:ZIC0TSI       SYMBOL TABLE                                               12   BMAP - B00
 40000000 000000000001 .PAIA          *17
 40000000 000000040000 .PALIL         *17
 40000000 000000020000 .PALVR         *17
 40000000 000000400000 .PANLL         *17
 40000000 000000400000 .PCKD          *17
 40000000 000000001600 .PMOD          *17
 40000000 000000000520 .PRCSE         *17
 40000000 000000000007 .PSTO          *17
 40000000 000000006040 .PTAS          *17
 40000000 000000010100 .PTCHK         *17
 40000000 000000010200 .PTDEC         *17
 40000000 000000010140 .PTENC         *17
 40000000 000000020000 .RA            *17
 41000000 000000100000 .RC            *17        81
 40000000 000000400000 .RELEASE       *17
 40000000 000000000017 .RELT          *17
 40000000 000000004000 .RERA          *17
 40000000 000000400000 .RERS          *17
 40000000 000000010000 .RKEY          *17
 40000000 000000000077 .RNL           *17
 40000000 000000200000 .RSTO          *17
 40000000 000000007777 .RTYP          *17
 41000000 000000040000 .SC            *17       106
 40000000 000000000070 .SETM          *17
 40000000 000000740000 .SETO          *17
 40000000 000000000700 .SETT          *17
 40000000 000000040000 .SFNP          *17
 40000000 000000004000 .SM            *17
 40000000 000000020000 .SMOD          *17
 40000000 000000000077 .SNL           *17
 41000000 000000020000 .SNSS          *17       111
 40000000 000000010000 .SO            *17
 41000000 000000100000 .SR            *17        86
 40000000 000000004000 .SRCR          *17
 40000000 000000001000 .SS            *17
 40000000 000000000007 .SSTP          *17
 40000000 000000004000 .SYN           *17
 12:39 09/05/97  FILE=ZIM$DBAN.:ZIC0TSI       SYMBOL TABLE                                               13   BMAP - B00
 40000000 000000000040 .SYNC          *17
 40000000 000000020000 .TJRNL         *17
 40000000 000000040000 .TMPLT         *17
 40000000 000000040000 .TRACE         *17
 40000000 000000000001 .TRENTRY       *17
 40000000 000000000012 .TRIDEL        *17
 40000000 000000000021 .TRIDELENQ     *17
 40000000 000000000024 .TRIDEQ        *17
 40000000 000000000013 .TRIMOD        *17
 40000000 000000000022 .TRIMODENQ     *17
 40000000 000000000014 .TRIREAD       *17
 40000000 000000000023 .TRIREADENQ    *17
 40000000 000000000011 .TRISTO        *17
 40000000 000000000020 .TRISTOENQ     *17
 40000000 000000000017 .TRPDEQ        *17
 40000000 000000000004 .TRPMOD        *17
 40000000 000000000016 .TRPMODENQ     *17
 40000000 000000000002 .TRPREAD       *17
 40000000 000000000015 .TRPREADENQ    *17
 40000000 000000000003 .TRPWRITE      *17
 40000000 000000000010 .TRRACC        *17
 40000000 000000000006 .TRRDEL        *17
 40000000 000000000007 .TRRMOD        *17
 40000000 000000000005 .TRRSTO        *17
 40000000 000000004000 .ULCK          *17
 40000000 000000400000 .UPDT          *17
 40000000 000000000040 .VIA           *17
 61000000 000000000001 A              *17        79       104       141
 40000000 000000000002 ABAS           *17
 40000000 000000000001 AC             *17
 40000000 777777777760 ACDEF          *17
 40000000 000000211070 ACDNL          *17
 40000000 000000000003 ACID           *17
 40000000 000000001016 ACOPN          *17
 40000000 000000000002 ACP            *17
 40000000 000000000005 ACPTR          *17
 40000000 000000000002 ACRAH          *17
 12:39 09/05/97  FILE=ZIM$DBAN.:ZIC0TSI       SYMBOL TABLE                                               14   BMAP - B00
 40000000 000000000001 ACRAN          *17
 40000000 000000001003 ACREC          *17
 40000000 000000000001 ACTDBCB        *17
 40000000 000000000002 ACTDBNO        *17
 40000000 000000001017 ACTP           *17
 40000000 000000000000 ACTSSS         *17
 40000000 000000000000 ACTSZ          *17
 01101000 000000000140 AER1           122      *184
 40000000 000000210565 AFNP           *17
 40000000 000000000635 AFT            *17
 40000000 000000022124 AIR            *17
 40000000 000000000016 AMAX           *17
 41000000 000000000026 ANAM           *17       125
 01101000 000000000106 ANE1            87      *149
 01101000 000000000112 ANE2           112      *154
 40000000 000000021614 ANR            *17
 01101000 000000000141 ANR1           147       153       158       164       170       175       180
                                      186      *193
 40000000 000000000001 APNO           *17
 41000000 000000210562 ARGER          *17       143
 41000000 000000000020 ARGS           *17
 40000000 000000000077 ARGS2          *17
 40000000 000000210713 ARNAF          *17
 40000000 000000000003 ATBL           *17
 40000000 000000000000 ATRIB          *17
 40000000 000000000002 AVLN           *17
 40000000 000000000013 AWS$           *17
 40000000 000000000010 AWSZ           *17
 60000000 000000000001 B              *17
 40000000 000000001006 B32N           *17
 40000000 000000001007 B36N           *17
 40000000 000000001056 B72N           *17
 40000000 000000000001 BADDR          *17
 40000000 000000210712 BADSEED        *17
 40000000 777777777765 BDCW           *17
 40000000 000000000633 BEF            *17
 40000000 000000020000 BEFW           *17
 12:39 09/05/97  FILE=ZIM$DBAN.:ZIC0TSI       SYMBOL TABLE                                               15   BMAP - B00
 40000000 000000000751 BEMT           *17
 40000000 777777777761 BID            *17
 40000000 777777777762 BIND           *17
 40000000 000000000007 BLKD           *17
 40000000 000000303331 BME02          *17
 41000000 000000001203 BMPB           *17
 40000000 000000000652 BN1            *17
 40000000 000000000654 BN2            *17
 40000000 000000000004 BPL            *17
 40000000 000000000015 BPLDBK         *17
 40000000 000000000034 BSPG           *17
 40000000 777777777763 BSTAT          *17
 40000000 000000000750 BTX0           *17
 41000000 000000001160 BUF4           *17
 41000000 000000001170 BUF6           *17
 41000000 000000000000 BUFORG         *17
 40000000 000000001060 BUFRQ          *17
 40000000 000000000006 BURRID         *17
 41000000 000000000020 BWASZ          *17
 60000000 000000000001 C              *17
 40000000 000000000050 CAAC           *17
 40000000 000000000050 CACD           *17
 40000000 000000000111 CAG            *17
 40000000 000000001033 CAL            *17
 40000000 000000000026 CALLPM0        *17
 40000000 000000000003 CANSSS         *17
 40000000 000000000003 CBCPA          *17
 40000000 000000000002 CBCPO          *17
 40000000 000000000002 CBENO          *17
 40000000 000000000014 CBFSZ          *17
 40000000 000000000753 CBIB           *17
 40000000 000000001030 CBID           *17
 40000000 000000000014 CBRCE          *17
 40000000 000000000014 CBRCP          *17
 40000000 000000001033 CBRID          *17
 40000000 000000000015 CBRPA          *17
 40000000 000000000031 CCHAR          *17
 12:39 09/05/97  FILE=ZIM$DBAN.:ZIC0TSI       SYMBOL TABLE                                               16   BMAP - B00
 40000000 000000000040 CDBK           *17
 40000000 000000000030 CDES           *17
 40000000 000000000110 CDP            *17
 40000000 000000001044 CDPSI          *17
 40000000 000000000002 CDRH           *17
 40000000 000000000003 CDRN           *17
 40000000 000000000002 CDSH           *17
 40000000 000000000003 CDSN           *17
 40000000 000000000722 CENTRN         *17
 40000000 000000000722 CENTRO         *17
 40000000 000000000716 CENTRY         *17
 01101000 000000000101 CER12           82       107      *142
 41000000 000000001053 CFCT           *17
 40000000 000000000670 CFLPT1         *17
 40000000 000000000672 CFLPT2         *17
 40000000 000000000015 CFSA           *17
 40000000 000000000646 CHDBK          *17
 40000000 000000000773 CHR            *17
 40000000 000000000006 CHRD           *17
 40000000 000000000772 CHRO           *17
 40000000 000000007640 CHRTP          *17
 40000000 000000001043 CIAC           *17
 40000000 000000000012 CIAWS          *17
 40000000 000000001051 CIBSI          *17
 40000000 000000000516 CIND           *17
 40000000 000000001041 CINVSZ         *17
 40000000 000000001042 CIPG           *17
 40000000 000000001050 CIPSI          *17
 40000000 000000000000 CIRUN          *17
 40000000 000000000002 CIRWS          *17
 40000000 000000000002 CISWS          *17
 40000000 000000000014 CIWSOF         *17
 40000000 000000303374 CKSM           *17
 40000000 000000000022 CLCN           *17
 40000000 000000000023 CLCP           *17
 40000000 000000000003 CLCRC          *17
 40000000 000000000003 CLCSC          *17
 12:39 09/05/97  FILE=ZIM$DBAN.:ZIC0TSI       SYMBOL TABLE                                               17   BMAP - B00
 40000000 000000000237 CLI            *17
 40000000 000000000026 CLNG           *17
 40000000 000000000052 CMPL           *17
 40000000 000000000002 CN             *17
 40000000 000000303315 CNE1           *17
 41000000 000000006034 CNUL           *17       172       177
 40000000 000000100000 COB74          *17
 40000000 000000000001 COFS           *17
 40000000 000000000045 CONCD          *17
 40000000 000000007764 CP6PGSZB       *17
 41000000 000000001775 CP6PGSZW       *17
 40000000 000000001000 CPGR           *17
 40000000 000000000723 CPTRN          *17
 40000000 000000000723 CPTRO          *17
 60000000 000000000004 CPW            *17
 40000000 000000000112 CRA            *17
 40000000 000000001004 CRD            *17
 40000000 000000000764 CREC           *17
 40000000 000000006344 CRIT           *17
 41000000 000000006200 CRNUL          *17       166
 40000000 000000007330 CRST           *17
 41000000 000000001223 CRUN           *17        71
 41000000 000000000000 CSECT          *17
 40000000 000000000007 CSMPP          *17
 40000000 000000001000 CSPAC          *17
 40000000 000000000004 CSPAH          *17
 40000000 777777777776 CSPES          *17
 40000000 777777777776 CSPSB          *17
 40000000 000000000115 CSTS           *17
 40000000 000000000071 CSUB           *17
 40000000 000000000017 CSZ            *17
 40000000 000000000057 CTMASK         *17
 40000000 000000000774 CTPAI          *17
 40000000 000000000240 CURLN          *17
 40000000 000000000236 CURLT          *17
 40000000 000000000770 CURPG          *17
 41000000 000000000001 CURR           *17        89       116
 12:39 09/05/97  FILE=ZIM$DBAN.:ZIC0TSI       SYMBOL TABLE                                               18   BMAP - B00
 40000000 000000000035 CURRS          *17
 40000000 000000000037 CURSS          *17
 40000000 000000001005 CWRT           *17
 40000000 000000000237 CWSOF          *17
 60000000 000000000001 D              *17
 40000000 000000000003 DBAN           *17
 40000000 000000000036 DBDR           *17
 40000000 000000000037 DBFN           *17
 40000000 000000000754 DBK            *17
 41000000 000000000777 DBKAC          *17        72        90        97       117
 40000000 000000000000 DBKEY          *17
 01101000 000000000034 DBKF            67       *94
 40000000 000000000000 DBKL           *17
 41000000 000000007474 DBKN           *17       160
 41000000 000000000776 DBKR           *17
 40000000 000000000777 DBKRQ          *17
 40000000 000000000234 DBKSI          *17
 40000000 000000000651 DBKSR          *17
 40000000 000000000047 DBKYN          *17
 01101000 000000000116 DBKZ            98      *159
 40000000 000000210652 DBLC01         *17
 40000000 000000210653 DBLC05         *17
 40000000 000000303334 DBLC07         *17
 40000000 000000210655 DBLD01         *17
 40000000 000000000010 DBLIM          *17
 40000000 000000000033 DBPKY          *17
 40000000 000000000023 DBRN           *17
 40000000 000000000013 DBSN           *17
 40000000 000000000001 DBST           *17
 40000000 000000000757 DCDSR          *17
 40000000 000000210650 DCE1           *17
 40000000 000000001053 DCPR           *17
 40000000 000000001053 DCPW           *17
 40000000 000000000015 DCTBL          *17
 40000000 000000000032 DDBK           *17
 40000000 000000000006 DDCB           *17
 40000000 000000011754 DDI            *17
 12:39 09/05/97  FILE=ZIM$DBAN.:ZIC0TSI       SYMBOL TABLE                                               19   BMAP - B00
 41000000 000000000000 DEF            *17        80        85       105       110       127
 40000000 000000000014 DEF2           *17
 40000000 000000303413 DELAK          *17
 40000000 000000000036 DELRS          *17
 40000000 000000000732 DEPCW          *17
 40000000 000000303414 DLDBK          *17
 40000000 000000210627 DLE1           *17
 40000000 000000303310 DLE2           *17
 40000000 000000210631 DLE3           *17
 40000000 000000016040 DNES           *17
 40000000 777777777777 DPAGN          *17
 40000000 000000000020 DPPI           *17
 40000000 000000000053 DPSLW          *17
 40000000 000000000003 DS             *17
 40000000 000000001063 DSDES          *17
 40000000 000000303316 DSE1           *17
 40000000 000000000735 DUSEPA         *17
 60000000 000000000001 E              *17
 40000000 000000303251 EDPER          *17
 40000000 000000000026 EEIND          *17
 40000000 000000000713 EFIND          *17
 40000000 000000001030 ELO            *17
 40000000 000000210711 ENCPNA         *17
 40000000 000000000007 ENCRP          *17
 40000000 000000000752 ENDSR          *17
 40000000 000000210647 ENE1           *17
 40000000 000000000716 ENIND          *17
 40000000 000000000013 ENTBL          *17
 40000000 000000000710 ENTNO          *17
 40000000 000000000712 ENTPTR         *17
 40000000 000000000717 ENTSZ          *17
 40000000 000000000711 ENTTYP         *17
 40000000 000000004064 EOSR           *17
 40000000 000000000004 ES             *17
 41000000 000000000100 ESTSZ          *17
 40000000 000000000725 ESZ            *17
 40000000 000000000005 ETCADR         *17
 12:39 09/05/97  FILE=ZIM$DBAN.:ZIC0TSI       SYMBOL TABLE                                               20   BMAP - B00
 40000000 000000000005 ETCDBNO        *17
 40000000 000000000064 EXCCD          *17
 40000000 000000234534 FALRT          *17
 40000000 000000001055 FBF72          *17
 40000000 000000001025 FBU61          *17
 40000000 000000001020 FBUF           *17
 40000000 000000001026 FBUF1          *17
 40000000 000000001027 FBUF4          *17
 40000000 000000001024 FBUF6          *17
 40000000 000000001022 FBUFM          *17
 40000000 000000001021 FBUFU          *17
 40000000 000000001023 FBUMD          *17
 40000000 000000000004 FCN            *17
 40000000 000000000051 FCNT           *17
 40000000 000000000002 FCP            *17
 40000000 000000000047 FCSS           *17
 40000000 000000000005 FD             *17
 40000000 000000210637 FDE1           *17
 40000000 000000303320 FDE2           *17
 40000000 000000303321 FDE3           *17
 40000000 000000210642 FDE4           *17
 40000000 000000210643 FDE5           *17
 40000000 000000210644 FDE6           *17
 40000000 000000303325 FDE7           *17
 40000000 000000303326 FDE8           *17
 40000000 000000000021 FEASZ          *17
 40000000 000000000740 FETM           *17
 40000000 000000000006 FI             *17
 40000000 000000000103 FIAC           *17
 41000000 000000001100 FIB1           *17
 41000000 000000001130 FIBP           *17
 40000000 000000000000 FIBX           *17
 40000000 000000000102 FICNT          *17
 40000000 000000000005 FIPN           *17
 40000000 000000000054 FKIND          *17
 40000000 000000000015 FLAGS          *17
 40000000 000000000244 FLDDSC         *17
 12:39 09/05/97  FILE=ZIM$DBAN.:ZIC0TSI       SYMBOL TABLE                                               21   BMAP - B00
 40000000 000000000046 FLDTL          *17
 40000000 000000000020 FMSBF          *17
 40000000 000000000006 FNAM           *17
 40000000 000000000250 FNIND          *17
 40000000 000000000004 FNL            *17
 40000000 000000000101 FRAC           *17
 40000000 000000000002 FRANGE         *17
 40000000 000000211400 FRDNL          *17
 40000000 000000200000 FRTRN          *17
 40000000 000000000005 FRWSO          *17
 40000000 000000000767 FSLN           *17
 40000000 000000000766 FSOF           *17
 40000000 000000000060 FTIND          *17
 40000000 000000303240 FTLINCR        *17
 40000000 000000000021 FWSSZ          *17
 40000000 000000000246 GACDK          *17
 40000000 000000000014 GDCB           *17
 41000000 000000000006 GERROR         *17       122
 40000000 000000000016 GINHIB         *17
 40000000 000000000020 GIOAWS         *17
 40000000 000000000022 GIOBUF         *17
 40000000 000000000021 GIOPGNO        *17
 40000000 000000000015 GPAGE          *17
 40000000 000000000010 GRETAC         *17
 40000000 000000000011 GRETFR         *17
 40000000 000000000013 GRETRC         *17
 40000000 000000000012 GRETSC         *17
 40000000 000000000025 GRLCW          *17
 40000000 000000000014 GSTCD          *17
 40000000 000000000007 GSYSERR        *17
 40000000 000000000010 GT             *17
 40000000 000000000046 GTRNAME        *17
 40000000 000000000055 GTRPDCB        *17
 40000000 000000000056 GTRPNO         *17
 40000000 000000000057 GTRRDBK        *17
 40000000 000000000060 GTRRTYPE       *17
 40000000 000000000060 GTRTYPE        *17
 12:39 09/05/97  FILE=ZIM$DBAN.:ZIC0TSI       SYMBOL TABLE                                               22   BMAP - B00
 40000000 000000000027 HASH           *17
 40000000 000000000022 HIA            *17
 40000000 000000000775 HIDB           *17
 40000000 000000000003 HIGHDBK        *17
 40000000 000000000004 HIGHPG         *17
 40000000 000000001037 HIL            *17
 40000000 000000000002 HILN           *17
 40000000 000000000006 HPOS           *17
 40000000 000000000756 IAAC           *17
 40000000 000000001011 IACLN          *17
 40000000 000000001010 IALC           *17
 40000000 000000010314 IAN            *17
 40000000 000000001012 IANLN          *17
 40000000 000000000001 IASID          *15
 40000000 000000020320 ICA            *17
 40000000 000000000023 ICKSMP         *17
 40000000 000000000024 ICKSMV         *17
 40000000 000000210742 ICNR           *17
 41000000 000000000020 ICSIZ          *17
 40000000 000000010004 IDBK           *17
 40000000 000000012120 IDI            *17
 40000000 000000000023 IDS            *17
 40000000 000000000011 IF             *17
 40000000 000000000021 IFIPN          *17
 40000000 000000000000 IFR            *17
 40000000 000000234546 IKSEQ          *17
 40000000 000000000113 INAFLAG        *17
 40000000 000000000016 INCHA          *17
 40000000 000000210566 INNM           *17
 40000000 000000210567 INSS           *17
 40000000 000000210575 INSST          *17
 40000000 000000303241 INTER          *17
 40000000 000000400000 INTII          *17
 40000000 000000000013 INTVL          *17
 40000000 000000001060 INVFLG         *17
 40000000 000000001043 INVOF          *17
 40000000 000000000014 INVT           *17
 12:39 09/05/97  FILE=ZIM$DBAN.:ZIC0TSI       SYMBOL TABLE                                               23   BMAP - B00
 40000000 000000000034 IOBLK          *17
 40000000 000000303354 IOCLSD         *17
 40000000 000000303355 IOCLSK         *17
 40000000 000000303257 IOE1           *17
 40000000 000000303264 IOE11          *17
 40000000 000000303265 IOE12          *17
 40000000 000000303266 IOE18          *17
 40000000 000000303260 IOE2           *17
 40000000 000000303261 IOE3           *17
 40000000 000000303262 IOE7           *17
 40000000 000000303263 IOE8           *17
 40000000 000000303363 IOFLSH         *17
 40000000 000000210676 IOGDCB         *17
 40000000 000000001002 IOINC          *17
 40000000 000000305160 IOINI          *17
 40000000 000000305155 IONOTIDS       *17
 40000000 000000305154 IONOTKEY       *17
 40000000 000000210677 IOOPND         *17
 40000000 000000210700 IOOPNK         *17
 40000000 000000303361 IORDD          *17
 40000000 000000305156 IOSCHEMA       *17
 40000000 000000001052 IOSTS          *17
 40000000 000000303362 IOWRTD         *17
 41000000 000000000750 IOWS           *17
 40000000 000000000647 IPC            *17
 40000000 000000000650 IPCF           *17
 40000000 000000000006 IROLLFLAG      *17
 41000000 000000010150 IRSN           *17       150       155
 40000000 000000000004 ISYSDCB        *17
 40000000 000000000005 ISYSERR        *17
 40000000 000000000061 ITPTR          *17
 40000000 000000000060 ITRS           *17
 40000000 000000021760 IUM            *17
 40000000 000000000017 IUSZ           *17
 40000000 000000234522 IVDBK          *17
 40000000 000000000011 IXBUF$         *17
 40000000 000000000046 IXFBSZ         *17
 12:39 09/05/97  FILE=ZIM$DBAN.:ZIC0TSI       SYMBOL TABLE                                               24   BMAP - B00
 40000000 777777777776 IXID           *17
 40000000 777777777777 IXPLL          *17
 40000000 000000000523 KCARG0         *17
 40000000 000000000524 KCARG3         *17
 40000000 000000000525 KCARG4         *17
 40000000 000000000700 KCREG          *17
 40000000 000000000006 KDCB           *17
 40000000 000000000666 KEYDS          *17
 40000000 000000000010 KEYPA          *17
 40000000 777777777776 KLNG           *17
 40000000 000000000022 KPASZ          *17
 40000000 000000000006 KWSZ           *17
 40000000 000000000052 LANGC          *17
 40000000 000000001014 LAS            *17
 40000000 000000700000 LCODM          *17
 40000000 000000001045 LDPSI          *17
 40000000 000000001071 LINPT          *17
 40000000 000000001017 LNCNT          *17
 40000000 000000000762 LNNO           *17
 40000000 000000001036 LOL            *17
 40000000 000000000715 LOLIM          *17
 40000000 000000000023 LPASZ          *17
 40000000 000000000012 LPP            *17
 40000000 000000257764 LR             *17
 40000000 000000301270 LRA            *17
 40000000 000000000017 LRSZ           *17
 40000000 000000001035 LSPC           *17
 40000000 000000000750 LUPD           *17
 61000000 000000000001 M9             *17
 40000000 000000000013 MD             *17
 40000000 000000300000 MDQS           *17
 40000000 000000000730 MEMPTR         *17
 40000000 000000000727 MEMTYP         *17
 40000000 000000000045 MODCD          *17
 41000000 000000001207 MODFL          *17
 40000000 000000000042 MODFR          *17
 40000000 000000000044 MODIN          *17
 12:39 09/05/97  FILE=ZIM$DBAN.:ZIC0TSI       SYMBOL TABLE                                               25   BMAP - B00
 40000000 000000000044 MODRS          *17
 40000000 000000000043 MODSC          *17
 40000000 000000000047 MRBKI          *17
 40000000 000000210632 MRE4           *17
 40000000 000000303313 MRE5           *17
 40000000 000000210634 MRE7           *17
 40000000 000000400000 MW             *17
 40000000 000000000025 NCH            *17
 40000000 000000000002 NCHA           *17
 40000000 000000000005 NCHRS          *17
 01101000 000000000123 NCURR           73      *165
 01101000 000000000134 NCURS          115       118      *176
 01101000 000000000130 NCURT           91      *171
 40000000 000000000014 NDCD           *17
 40000000 000000000012 NENC           *17
 40000000 000000000634 NEW            *17
 40000000 000000001072 NEWSIZ         *17
 40000000 000000235164 NKA            *17
 40000000 000000235020 NKDB           *17
 40000000 000000303415 NLDBK          *17
 40000000 777777777777 NLIND          *17
 40000000 000000001040 NLN            *17
 40000000 000000400000 NLNSA          *17
 01101000 000000000100 NMOV           131      *135
 41000000 000000001053 NOBF           *17
 40000000 000000000711 NOPTRS         *17
 40000000 000000000742 NPARCW         *17
 40000000 000000000630 NPIND          *17
 40000000 000000000004 NPOS           *17
 40000000 000000234510 NSA            *17
 40000000 000000234654 NSCS           *17
 40000000 000000234344 NSDB           *17
 40000000 000000000001 NSTS           *17
 40000000 000000000726 NUMENT         *17
 40000000 000000000727 NUMPTR         *17
 40000000 777777777760 NXBUF          *17
 40000000 000000000713 NXPRI          *17
 12:39 09/05/97  FILE=ZIM$DBAN.:ZIC0TSI       SYMBOL TABLE                                               26   BMAP - B00
 40000000 000000000771 NXTC           *17
 40000000 000000000001 OAACN          *17
 40000000 000000000022 OACIWSOF       *17
 40000000 000000000001 OAOFST         *17
 40000000 000000000002 OARCN          *17
 40000000 000000000001 OASCN          *17
 40000000 000000000014 OD             *17
 40000000 000000000074 ODBK           *17
 40000000 000000001072 OLDSIZ         *17
 40000000 000000000101 OPADP          *17
 40000000 000000000741 OPARCW         *17
 40000000 000000210570 ORDNI          *17
 40000000 777777777777 OTVL           *17
 40000000 000000000252 OWNPTR         *17
 40000000 000000000016 PABUF          *17
 40000000 000000001041 PACD           *17
 40000000 000000000001 PACW           *17
 40000000 000000000733 PADBK          *17
 40000000 000000000740 PADUP          *17
 40000000 000000000745 PAEN           *17
 40000000 000000000745 PAEO           *17
 40000000 000000000734 PAEOF          *17
 40000000 000000303336 PAER1          *17
 40000000 000000303337 PAER2          *17
 40000000 000000303340 PAER3          *17
 40000000 000000303341 PAER4          *17
 40000000 000000303342 PAER5          *17
 40000000 000000303343 PAER6          *17
 40000000 000000000747 PAESZ          *17
 40000000 000000001060 PAFLG          *17
 40000000 000000000731 PAOPTR         *17
 40000000 000000000734 PAPOF          *17
 40000000 000000000714 PARCW          *17
 40000000 000000000726 PARVPA         *17
 40000000 000000000724 PASPLT         *17
 40000000 000000000004 PAWSZ          *17
 40000000 777777777762 PBUF           *17
 12:39 09/05/97  FILE=ZIM$DBAN.:ZIC0TSI       SYMBOL TABLE                                               27   BMAP - B00
 40000000 000000000020 PC             *17
 41000000 000000000510 PCB            *17
 40000000 000000000642 PCD            *17
 40000000 000000000642 PCD2           *17
 40000000 000000000247 PCEXI          *17
 40000000 000000000675 PCMIN          *17
 40000000 000000004541 PCOMP          *17
 40000000 000000000010 PD             *17
 40000000 000000000040 PE             *17
 40000000 000000000017 PENDING        *17
 40000000 000000000004 PF             *17
 40000000 000000000400 PFG            *17
 40000000 000000000200 PFM            *17
 40000000 000000000100 PFS            *17
 40000000 000000000400 PG             *17
 40000000 000000001064 PGHD           *17
 40000000 000000000006 PGLIM          *17
 40000000 000000000003 PGRNG          *17
 40000000 000000000746 PGSIZE         *17
 40000000 000000000641 PGSPLT         *17
 40000000 000000000100 PKAW           *17
 40000000 000000001034 PLO            *17
 40000000 000000000004 PLSEP          *17
 40000000 000000000200 PM             *17
 40000000 000000001054 PNEOO          *17
 40000000 000000001047 POFSI          *17
 40000000 000000000005 PPOS           *17
 41000000 000000000000 PR0            *15        60        62        77        95        96       102
                                      123       124       129       134
 41000000 000000000001 PR1            *15        61        78       103
 40000000 000000000002 PR2            *15
 40000000 000000000003 PR3            *15
 40000000 000000000004 PR4            *15
 41000000 000000000005 PR5            *15       122
 41000000 000000000006 PR6            *15        80        85        88       105       110       113
                                      127       133
 41000000 000000000007 PR7            *15        71        72        89        90        97       114
 12:39 09/05/97  FILE=ZIM$DBAN.:ZIC0TSI       SYMBOL TABLE                                               28   BMAP - B00
                                      116       117
 40000000 000000303267 PRE1           *17
 40000000 000000303277 PRE10          *17
 40000000 000000303270 PRE3           *17
 40000000 000000303271 PRE4           *17
 40000000 000000303272 PRE5           *17
 40000000 000000210613 PRE6           *17
 40000000 000000210614 PRE7           *17
 40000000 000000210615 PRE8           *17
 40000000 000000303276 PRE9           *17
 40000000 000000000522 PREXC          *17
 40000000 000000000521 PRFR           *17
 40000000 000000000521 PRFR2          *17
 40000000 000000000000 PRIV           *17
 40000000 000000000526 PROPA          *17
 40000000 000000000517 PRRC           *17
 40000000 000000000517 PRRS           *17
 40000000 000000000520 PRSC           *17
 40000000 000000000516 PRSS           *17
 40000000 000000000644 PRSTS          *17
 40000000 000000000100 PS             *17
 41000000 000000000000 PS0SID         *15
 41000000 000000000001 PS1SID         *15
 41000000 000000000002 PS2SID         *15
 41000000 000000000003 PS3SID         *15
 41000000 000000000004 PS4SID         *15
 41000000 000000000005 PS5SID         *15       129
 41000000 000000000006 PS6SID         *15        95
 40000000 000000303416 PSA            *17
 40000000 000000000020 PSC            *17
 40000000 000000000010 PSD            *17
 40000000 000000000004 PSF            *17
 40000000 000000000400 PSO            *17
 40000000 000000000720 PTESZ          *17
 40000000 000000000631 PTR            *17
 40000000 000000000724 PTRESZ         *17
 40000000 000000000710 PTRNO          *17
 12:39 09/05/97  FILE=ZIM$DBAN.:ZIC0TSI       SYMBOL TABLE                                               29   BMAP - B00
 41000000 000000000630 PWS            *17
 40000000 000000000002 RADDR          *17
 40000000 000000000010 RADIX          *17
 40000000 000000000005 RAPTR          *17
 40000000 000000000004 RAWSOF         *17
 40000000 777777777766 RBA            *17
 40000000 000000023432 RCBI           *17
 40000000 000000211234 RCDNL          *17
 40000000 000000000005 RCFRH          *17
 40000000 000000000004 RCFRN          *17
 40000000 000000001075 RCHD           *17
 40000000 000000000001 RCID           *17
 40000000 000000000006 RCPTR          *17
 40000000 000000000002 RCRAH          *17
 40000000 000000000001 RCRAN          *17
 40000000 000000000003 RCRSH          *17
 40000000 000000000002 RCRSN          *17
 40000000 000000210667 RCVER1         *17
 40000000 000000210670 RCVER2         *17
 40000000 000000210671 RCVER4         *17
 40000000 000000210672 RCVER5         *17
 40000000 000000210673 RCVER6         *17
 40000000 000000000736 RCW1           *17
 40000000 000000000737 RCW2           *17
 41000000 000000000004 RCWSO          *17        88
 40000000 000000000077 RDAC           *17
 40000000 000000000076 RDCNT          *17
 40000000 000000040000 RDI            *17
 40000000 000000015674 RDLT           *17
 40000000 000000000075 RDYCW          *17
 40000000 000000000066 RECAC          *17
 40000000 000000000065 RECFR          *17
 40000000 000000000070 RECRC          *17
 40000000 000000000067 RECSC          *17
 40000000 000000000003 RECSZ          *17
 01101000 000000000017 RECT            66       *76
 40000000 000000000235 REMLT          *17
 12:39 09/05/97  FILE=ZIM$DBAN.:ZIC0TSI       SYMBOL TABLE                                               30   BMAP - B00
 40000000 000000000062 REM_RECOVER    *17
 40000000 000000000251 RETFR          *17
 01101000 000000000060 RETN            74        92        99       119      *121
 40000000 000000210724 RFDNL          *17
 40000000 000000017644 RIM            *17
 40000000 000000000005 RNAM           *17
 40000000 000000015706 RNDLT          *17
 40000000 000000000662 RNG1           *17
 40000000 000000000664 RNG2           *17
 40000000 000000000073 RNGD           *17
 40000000 000000000072 RNGO           *17
 40000000 000000000660 RNGTAL         *17
 40000000 000000020154 RNM            *17
 40000000 000000000041 ROCUR          *17
 40000000 000000000001 ROFST          *17
 40000000 000000002114 ROLL           *17
 40000000 000000020010 RPM            *17
 40000000 000000000001 RSCDH          *17
 40000000 000000000001 RSCDN          *17
 40000000 000000211710 RSDNL          *17
 40000000 000000004540 RSEE           *17
 40000000 000000000003 RSIZ           *17
 40000000 000000000110 RSPAM          *17
 40000000 000000000004 RSPTR          *17
 40000000 000000000037 RSREQ          *17
 40000000 000000000002 RSSSH          *17
 40000000 000000000001 RSSSN          *17
 40000000 000000210574 RSZER          *17
 40000000 000000000632 RSZTP          *17
 40000000 000000000003 RTP            *17
 40000000 000000000003 RTYP           *17
 01101000 000000000013 RUNC            65       *70
 40000000 000000000530 RV1            *17
 40000000 000000000550 RV2            *17
 40000000 000000000570 RV3            *17
 40000000 000000000610 RV4            *17
 41000000 000000000003 RVASID         *15        61
 12:39 09/05/97  FILE=ZIM$DBAN.:ZIC0TSI       SYMBOL TABLE                                               31   BMAP - B00
 40000000 000000000510 RVI            *17
 40000000 000000000511 RVO            *17
 40000000 000000000513 RVPA           *17
 40000000 000000000512 RVT            *17
 40000000 000000000022 RVTAL          *17
 40000000 000000000002 RWSZ           *17
 40000000 000000000015 RY             *17
 40000000 000000210620 RYE1           *17
 40000000 000000210621 RYE4           *17
 40000000 777777777767 SA             *17
 40000000 000000000005 SANAM          *17
 40000000 000000001062 SCDES          *17
 40000000 000000211544 SCDNL          *17
 40000000 000000000024 SCFC           *17
 40000000 000000000002 SCID           *17
 40000000 000000000024 SCLST          *17
 40000000 000000000004 SCNAM          *17
 40000000 000000000004 SCPTR          *17
 40000000 000000000003 SCRSH          *17
 40000000 000000000002 SCRSN          *17
 41000000 000000000001 SCWSO          *17       113
 01101000 000000000041 SETC            68      *101
 40000000 000000001225 SFWS           *17
 40000000 000000001073 SIZCHG         *17
 40000000 000000000645 SKFLG          *17
 40000000 000000000643 SKIND          *17
 40000000 000000000641 SKTYP          *17
 40000000 000000020464 SMCR           *17
 40000000 000000000003 SNAM           *17
 40000000 000000000107 SNIND          *17
 40000000 000000000735 SNPAE          *17
 40000000 000000001046 SNSI           *17
 40000000 000000000743 SOE            *17
 40000000 000000020630 SORSA          *17
 40000000 000000004374 SOSE           *17
 40000000 000000000000 SPAV           *17
 40000000 000000000744 SPCAVN         *17
 12:39 09/05/97  FILE=ZIM$DBAN.:ZIC0TSI       SYMBOL TABLE                                               32   BMAP - B00
 40000000 000000000744 SPCAVO         *17
 40000000 000000000765 SPLF           *17
 41000000 000000000765 SPND           *17
 40000000 000000000006 SSDT           *17
 40000000 000000303243 SSER           *17
 40000000 000000303244 SSER1          *17
 40000000 000000000002 SSH            *17
 40000000 000000000005 SSNAM          *17
 40000000 000000210573 SSNF           *17
 40000000 000000210576 SSNV           *17
 40000000 000000000020 SSSPTR         *17
 40000000 000000000010 SSVDT          *17
 40000000 000000000033 SSZTP          *17
 40000000 000000000017 ST             *17
 40000000 000000000104 STBIN          *17
 40000000 000000000105 STDEC          *17
 40000000 000000303302 STE1           *17
 40000000 000000303303 STE2           *17
 40000000 000000210624 STE3           *17
 40000000 000000303305 STE4           *17
 40000000 000000303306 STE5           *17
 00101000 000000000140 STER1         *185
 41000000 000000000100 STKSIZ         *17
 40000000 000000000055 STMASK         *17
 40000000 000000000062 SUST           *17
 41000000 000000000020 SWS            *17
 40000000 000000000000 SWSAC          *17
 40000000 000000000002 SWSZ           *17
 40000000 000000000000 SYSSF          *17
 40000000 000000000765 SZREQ          *17
 40000000 000000000004 TBUF           *17
 40000000 000000001061 TCTRS          *17
 60000000 000000000000 TDS            *17
 41000000 000000000113 TEMP           *17
 40000000 000000000640 TFLD           *17
 40000000 000000000657 TFLD2          *17
 40000000 000000000056 TMASK          *17
 12:39 09/05/97  FILE=ZIM$DBAN.:ZIC0TSI       SYMBOL TABLE                                               33   BMAP - B00
 40000000 000000000061 TMODE          *17
 40000000 000000000676 TMPPA          *17
 40000000 000000000003 TPAI           *17
 40000000 000000500000 TPRCOD         *17
 40000000 000000001031 TSFN           *17
 40000000 000000000021 TSI            *17
 40000000 000000001013 UBRD2          *17
 41000000 000000001223 UBSZ           *17
 40000000 000000000667 UCADR          *17
 40000000 000000000036 UCRS           *17
 40000000 000000000024 UFSPK          *17
 40000000 000000000024 UFSPK2         *17
 40000000 000000000715 ULIM           *17
 40000000 000000004230 UNA            *17
 40000000 000000303417 UNIM           *17
 40000000 000000000002 UOFST          *17
 40000000 000000001035 UPACD          *17
 40000000 000000000721 UPACW          *17
 40000000 000000000007 UPFLAG         *17
 40000000 000000000103 UPPAI          *17
 40000000 000000000004 UPTSID         *15
 40000000 000000000674 USTAT          *17
 40000000 000000000002 UWASID         *15
 40000000 000000000002 UWSSZ          *17
 40000000 000000000020 UWSZ           *17
 40000000 000000000243 VFDSC          *17
 40000000 000000001070 VFDSR          *17
 40000000 000000000656 VFLD           *17
 40000000 000000001074 VFLNG          *17
 40000000 000000001124 VIB1           *17
 40000000 000000001154 VIBP           *17
 41000000 000000000000 VLPSID         *15        60       123
 40000000 000000001074 VRSIZ          *17
 40000000 000000001067 WLOA           *17
 40000000 000000100000 WRTI           *17
 40000000 000000000000 WSBID          *17
 40000000 000000000003 WSOF           *17
 12:39 09/05/97  FILE=ZIM$DBAN.:ZIC0TSI       SYMBOL TABLE                                               34   BMAP - B00
 41000000 000000000000 X0             *15       127       128       144       151       156       161
                                      167       173       178
 41000000 000000000001 X1             *15        80        81        85        86        88       105
                                      106       110       111       113       122       124       130
 40000000 000000000002 X2             *15
 40000000 000000000003 X3             *15
 40000000 000000000004 X4             *15
 40000000 000000000005 X5             *15
 41000000 000000000006 X6             *15       102       103       145       152       162       168
                                      174
 03201002 000000000000 X66_ARET       *15       137
 03201001 000000000000 X66_AUTO_0     *15        58
 41000000 000000000007 X7             *15        77        78       146       157       163       169
                                      179
 40000000 000000210665 XASL           *17
 40000000 000000303420 XLD            *17
 40000000 000000303421 XPD            *17
 40000000 000000000676 XPRS           *17
 40000000 000000210666 XROLL          *17
 40000000 000000210664 XUNEX          *17
 40000000 777777777777 XXDPN          *17
 03201003 000000000000 ZIB$DBALT     *193
 12101000 000000000000 ZIG$DBACN       11       *57
 03201000 000000000000 ZIQ$DBIOA      *13       122

     941 SYMBOLS

 12:39 09/05/97  FILE=ZIM$DBAN.:ZIC0TSI       MACRO TABLE                                                35   BMAP - B00
 CBSYM           17
 DBALT          193
 DBCAL          122
 DBRET          137
 DBSAV           58
 ICCAL          122
 Q2SYM           17
 SSSYM           17

      37 MACROS

    SYMBOL SPACE USED  8919 WORDS
     MACRO SPACE USED 13055 WORDS
   INPUT RECORDS READ  2190
 STATEMENTS PROCESSED  2049
         ELAPSED TIME  0:10.00
             CPU TIME     9.50 SEC.
        ASSEMBLY RATE 12941 STATEMENTS/CPU MIN.

      NO ERRORS

