
 12:39 09/05/97  FILE=ZIM$DBAR.:ZIC0TSI                                                                  1    BMAP - B00
                                         1  *M*    ZIG$DBAR
                                         2  *T***********************************************************
                                         3  *T*                                                         *
                                         4  *T* Copyright (c) Bull HN Information Systems Inc., 1997    *
                                         5  *T*                                                         *
                                         6  *T***********************************************************

 12:39 09/05/97  FILE=ZIM$DBAR.:ZIC0TSI       H6600H2.892    IDS/II PA RETRIEVAL PRIMITIVES  780719DBAR  2    BMAP - B00
                                         7         TTL     H6600H2.892    IDS/II PA RETRIEVAL PRIMITIVES  780719DBAR
                                         8         CPR     1977
                                         9         PMC     OFF
                                        10         ENTDEF   ZIM$DBAR
                                        11         ENTDEF  ZIG$DBAKP,ZIG$DBAMP,ZIG$DBAKU,ZIG$DBAMU
                                        12         ENTDEF  ZIG$DBABS,ZIG$DBAVO
                                        13         ENTDEF  ZIG$DBAFN,ZIG$DBAFP
                                        14         ENTDEF  ZIG$DBAFE,ZIG$DBAFF
                                        15         ENTREF  ZIG$DBPFD,ZIG$DBPR2,ZIG$DBPFO
                                        16         ENTREF  ZIQ$DBIOL,ZIG$DBXCI,ZIG$DBECD
                                        17         LODM    Q2MA
                                        18         Q2SYM
 0 000000                               19  ZIM$DBAR  NULL

 12:39 09/05/97  FILE=ZIM$DBAR.:ZIC0TSI       FIND NEXT/PRIOR OF PA SET                                  3    BMAP - B00
                                        20         TTLS    FIND NEXT/PRIOR OF PA SET
                                        21  *
                                        22  *  THIS ROUTINE WILL IDENTIFY THE DBK OF THE NEXT OR
                                        23  *  PRIOR RECORD IN A POINTER ARRAY SET.  IT WILL ALSO
                                        24  *  IDENTIFY THE OWNER POINTER ARRAY RECORD AND THE
                                        25  *  CORRESPONDING ENTRY AND POINTER OFFSETS WITHIN
                                        26  *  THE POINTER ARRAY RECORD.  THE RECORD IDENTIFIED
                                        27  *  WILL NOT BE ACCESSED.
                                        28  *
                                        29  *  INPUT ARGUMENTS:
                                        30  *      RVI -   DBK OF CURRENT OF SET
                                        31  *              DBK OF PA RECORD OF CURR OF SET(IF CURR IS NOT OWNER)
                                        32  *              PA ENTRY OFFSET OF CURR OF SET
                                        33  *              PA POINTER OFFSET OF CURR OF SET
                                        34  *              RECORD TYPE
                                        35  *              RC PTR
                                        36  *              RS PTR
                                        37  *
                                        38  *      PRRC-   RECORD TYPE REQUESTED
                                        39  *               POS- IS RC PTR - MUST BE IN SS
                                        40  *               NEG- IF FOR ANY TYPE
                                        41  *               ZERO-IF FOR ANY TYPE IN SS
                                        42  *      PRSC-   SC PTR FOR PA SET
                                        43  *
                                        44  *  OUTPUT ARGUMENTS:
                                        45  *      RVO -   DBK OF NEXT/PRIOR OF SET(RECORD NOT ACCESSED)
                                        46  *              DBK OF PA RECORD OF NEXT/PRIOR
                                        47  *              PA ENTRY OFFSET OF NEXT/PRIOR
                                        48  *              PA POINTER OFFSET OF NEXT/PRIOR
                                        49  *
                                        50  *  EXCEPTION:  END OF SET
                                        51  *
   000000                               52  ZIG$DBAFN NULL                    FIND NEXT OF PA SET
   000000  X 000000 7000 00             53         DBSAV
   000001    000004 000000
   000002    000001 6210 00             54         EAX     X1,1
   000003    7 00713 7411 00            55         STX     X1,NXPRI,,PR7   SET N/P INDIC. TO NEXT
 12:39 09/05/97  FILE=ZIM$DBAR.:ZIC0TSI       FIND NEXT/PRIOR OF PA SET                                  4    BMAP - B00
   000004 (0)000011 7100 00             56         TRA     GETPA
   000005                               57  ZIG$DBAFP NULL                    FIND PRIOR OF PA SET
   000005  X 000000 7000 00             58         DBSAV
   000006    000004 000000
   000007    777777 6210 00             59         EAX     X1,-1
   000010    7 00713 7411 00            60         STX     X1,NXPRI,,PR7   SET N/P INDIC. TO PRIOR
   000011                               61  GETPA  NULL
   000011    7 00510 2231 00            62         LDX     X3,RVI,,PR7
   000012    7 00004 7251 13            63         LXL     X5,RSPTR,X3,PR7  GET RS PTR FOR CURR OF SET
                                        64  *  SEE IF CURR OF SET IS SET OWNER
   000013    6 00000 2211 15            65         LDX     X1,DEF,X5,PR6
   000014    010000 3010 03             66         CANX    X1,.SO,DU       IS IT A SET OWNER
   000015 (0)000032 6000 00             67         TZE     MEMPA           NO
                                        68  *  CURR OF PA SET IS SET OWNER
   000016 (0)001023 7010 00             69         DBCAL   ZIG$DBAFF,EOPAS,FFER1  FIND FIRST LOWER LEVEL PA REC IN SET
   000017 (0)000541 7020 00
   000020    5 00006 2341 00
   000021    000003 6000 04
   000022    5 00006 4501 00
   000023 (0)000506 7020 00
   000024    7 00510 2231 00            70         LDX     X3,RVI,,PR7
   000025    000000 6210 00             71        EAX     X1,0
   000026    7 00710 7411 00            72        STX     X1,ENTNO,,PR7       RESET CURRENT ENTRY NO = 0
   000027    000000 6210 00             73         EAX     X1,0
   000030    7 00710 4411 00            74         SXL     X1,PTRNO,,PR7   RESET CURR PTR NO = 0
   000031 (0)000077 7100 00             75         TRA     GNPLP
   000032                               76  MEMPA  NULL
   000032    7 00513 2211 00            77         LDX     X1,RVPA,,PR7
   000033    7 00015 2361 13            78         LDQ     CBRPA,X3,PR7    GET DBK OF PA OF CURR OF SET
   000034 (0)000527 6000 00             79         TZE     RNMEM           REC NOT CURRENTLY A MEMBER
   000035    7 00000 7561 11            80         STQ     DBKEY,X1,PR7    SAVE
   000036  X 000000 7010 00             81         ICCAL   ZIQ$DBIOL,,FLER3 FIND PA RECORD
   000037 (0)000542 7020 00
   000040    5 00006 2341 00
   000041    777776 6010 04
   000042    7 00513 2211 00            82         LDX     X1,RVPA,,PR7
   000043    5 00020 2351 00            83        LDA     GIOAWS,,PR5         AREA WORK SPACE POINTER
 12:39 09/05/97  FILE=ZIM$DBAR.:ZIC0TSI       FIND NEXT/PRIOR OF PA SET                                  5    BMAP - B00
   000044    7 00013 7551 11            84        STA     AWS$,X1,PR7         SAVE IN REC VAR
   000045    7 00002 4535 11            85         STP     PR3,RADDR,X1,PR7  SAVE ADDR OF REC
   000046    7 00001 4545 11            86         STP     PR4,BADDR,X1,PR7  SAVE ADDR OF BUFFER
   000047    7 00005 7401 11            87         STX     X0,ACPTR,X1,PR7  SAVE AC PTR
   000050    000 1 100 1005 00          88         MLR     (1),(1),,1         * MOVE
   000051    3 00000 0 0 0 0004         89         ADSC9   ,,4,PR3              *  REC TYPE,SIZE TO
   000052    7 00632 0 0 0 0004         90         ADSC9   RSZTP,0,4,PR7        *   WORKSPACE
   000053    7 00632 2351 00            91         LDA     RSZTP,,PR7      GET TYPE
   000054    000022 7750 00             92         ALR     18              INTO POSITION
   000055    7 00003 7551 11            93         STA     RTP,X1,PR7      SAVE IN REC VAR
   000056    7 00510 2231 00            94         LDX     X3,RVI,,PR7
   000057    7 00004 7251 13            95         LXL     X5,RSPTR,X3,PR7  GET RS FOR CURR OF PA SET
   000060                               96  FSMLP  NULL
   000060    6 00002 2251 15            97         LDX     X5,SCRSN,X5,PR6  GET RS FOR PA REC
   000061 (0)000535 6000 00             98         TZE     RSPAE1          RS FOR PA REC NOT FOUND
   000062    6 00000 2231 15            99         LDX     X3,DEF,X5,PR6   GET MEMBER TYPE TO MAKE SURE IS SM FOR PA
   000063    000007 3630 03            100         ANX     X3,.MEMT,DU     ISOLATE
   000064    000002 1030 03            101         CMPX    X3,=O2,DU       IS IT AN SM FOR A PA REC
   000065 (0)000060 6010 00            102         TNZ     FSMLP           NO - GET NEXT SM
   000066    7 00004 4451 11           103         SXL     X5,RSPTR,X1,PR7  SAVE RS PTR IN REC VAR
   000067    6 00003 2271 15           104         LDX     X7,RCRSH,X5,PR6  GET RC FOR PA RECORD
   000070    7 00006 7471 11           105         STX     X7,RCPTR,X1,PR7  SAVE RC PTR IN REC VAR
   000071    7 00520 2261 00           106         LDX     X6,PRSC,,PR7
   000072    7 00004 7461 11           107         STX     X6,SCPTR,X1,PR7  SAVE SC PTR IN REC VAR
                                       108  *  VERIFY PA OFFSETS OF CURR OF SET AND UPDATE OFFSETS IF INCORRECT
   000073 (0)001357 7010 00            109         DBCAL   ZIG$DBAVO,,VOER1   VERIFY OFFSETS
   000074 (0)000541 7020 00
   000075    5 00006 2341 00
   000076    777776 6010 04
                                       110  *  INITIALIZE PA ENTRY AND POINTER OFFSETS OF NEXT/PRIOR
   000077                              111  GNPLP  NULL
   000077    7 00510 2231 00           112         LDX     X3,RVI,,PR7
   000100    7 00014 2211 13           113         LDX     X1,CBRCE,X3,PR7  INIT ENTRY OFFSET = OFST OF CURR
   000101    7 00014 7221 13           114         LXL     X2,CBRCP,X3,PR7  INIT POINTER OFFSET = OFST OF CURR
                                       115  *  FIND OUT NO. OF ENTRIES IN PA RECORD
   000102    7 00513 2231 00           116         LDX     X3,RVPA,,PR7
   000103    7 00002 4735 13           117         LDP     PR3,RADDR,X3,PR7  GET ADDRESS OF PA REC
 12:39 09/05/97  FILE=ZIM$DBAR.:ZIC0TSI       FIND NEXT/PRIOR OF PA SET                                  6    BMAP - B00
   000104    000 1 100 1005 00         118         MLR     (1),(1),,1         * MOVE
   000105    3 00001 0 0 0 0002        119         ADSC9   PACW,0,2,PR3         *  NO. OF ENTRIES IN PA REC
   000106    7 00714 0 0 0 0002        120         ADSC9   PARCW,0,2,PR7        *   TO WORKSPACE
   000107    7 00714 2231 00           121         LDX     X3,PARCW,,PR7   GET NO. OF ENTRIES IN REC
   000110    017777 3630 03            122         ANX     X3,.NOENT,DU    ISOLATE
   000111    000001 0230 03            123         ADLX    X3,1,DU         ADD 1
   000112    7 00715 7431 00           124         STX     X3,ULIM,,PR7    SAVE AS UPPER LIMIT
   000113    7 00710 7231 00           125         LXL     X3,PTRNO,,PR7   GET PTR NO OF CURR
   000114 (0)000166 6010 00            126         TNZ     PGRP            CURR IS A MEMBER OF A PTR GROUP
                                       127  *  CHECK IF THERE IS A NEXT/PRIOR ENTRY IN THIS PA REC
   000115                              128  GTENT  NULL
   000115    7 00710 2231 00           129         LDX     X3,ENTNO,,PR7   GET ENTRY NO. OF CURR
   000116    000000 6250 13            130        EAX     X5,0,X3             SAVE X3 INTO X5
   000117    7 00713 0231 00           131         ADLX    X3,NXPRI,,PR7   INC OR DEC TO GET NEXT OR PRIOR ENTRY NO.
   000120 (0)000262 6000 00            132         TZE     GPPA            NEED TO GET PRIOR PA REC
   000121 (0)000267 6040 00            133        TMI     GPPA2               GET PRIOR BYPASS .PAFIL CHECK
   000122    7 00715 1031 00           134         CMPX    X3,ULIM,,PR7    IS IT .GT. NO. OF ENTRIES IN PA
   000123 (0)000276 6030 00            135         TRC     GNPA            YES - NEED TO GET NEXT PA REC
   000124    7 00710 7431 00           136         STX     X3,ENTNO,,PR7   UPDATE CURRENT ENTRY NO.
   000125    7 00513 2231 00           137         LDX     X3,RVPA,,PR7
   000126    7 00006 2271 13           138         LDX     X7,RCPTR,X3,PR7  GET RC PTR FOR PA REC
   000127    6 77776 2351 17           139         LDA     CSPES,X7,PR6    GET SIZE OF PA ENTRY
   000130    777777 3750 07            140         ANA     -1,DL           ISOLATE
   000131    7 00713 2341 00           141         SZN     NXPRI,,PR7      GET NEXT/PRIOR INDICATOR
   000132 (0)000134 6050 00            142         TPL     *+2             NEXT - LEAVE ENTRY SIZE POS
   000133    000000 5310 00            143         NEG                     PRIOR-MAKE ENTRY SIZE NEG
   000134    000022 7350 00            144         ALS     18
   000135    7 00717 7551 00           145         STA     ENTSZ,,PR7      SAVE
   000136    000000 1050 03            146        CMPX    X5,0,DU             IF PRIOR IS OWNER
   000137 (0)000141 6000 00            147        TZE     *+2                 DONT ADD ENTSIZE, IT IS RIGHT ONE
   000140    7 00717 0211 00           148         ADLX    X1,ENTSZ,,PR7   X1 = ENTRY OFST OF NEXT/PRIOR
                                       149  *  MOVE MEMBER TYPE AND PTR INDICATOR(0=MEMBER PTR,1=PTR TO PTR GROUP)
   000141    7 00002 4735 13           150         LDP     PR3,RADDR,X3,PR7  GET PA RECORD ADDRESS
   000142    3 00000 5005 11           151         A9BD    ,X1,PR3         SET PR3 = ADDR OF N/P ENTRY
   000143                              152  GMPTR  NULL
   000143    000 1 100 1005 00         153         MLR     (1),(1),,1         * MOVE
   000144    3 00000 0 0 0 0002        154         ADSC9   0,0,2,PR3            *  INDICATOR AND MEMBER TYPE
 12:39 09/05/97  FILE=ZIM$DBAR.:ZIC0TSI       FIND NEXT/PRIOR OF PA SET                                  7    BMAP - B00
   000145    7 00711 4 0 0 0002        155         ADSC9   ENTTYP,2,2,PR7       *   TO WORKSPACE
                                       156  *  MOVE ENTRY PTR TO WORKSPACE
   000146    7 00513 2231 00           157         LDX     X3,RVPA,,PR7
   000147    7 00004 7251 13           158         LXL     X5,RSPTR,X3,PR7  GET RS PTR
   000150    000 1 100 1015 20         159         MRL     (1,,1),(1),,1      * MOVE
   000151    6 00007 0001 15           160         ARG     CSMPP,X5,PR6       *  MEMBER PTR
   000152    7 00712 0 0 0 0004        161         ADSC9   ENTPTR,0,4,PR7       *   TO WORKSPACE
   000153    7 00711 7201 00           162         LXL     X0,ENTTYP,,PR7  GET PTR INDICATOR
   000154 (0)000231 6040 00            163         TMI     SETPT           IS A PTR TO A PTR GROUP
   000155    7 00712 2361 00           164         LDQ     ENTPTR,,PR7     GET PTR
   000156 (0)000521 6000 00            165         TZE     MEMPN           NULL-ERROR
   000157    7 00520 2261 00           166         LDX     X6,PRSC,,PR7    GET SC PTR
   000160    6 00000 7201 16           167         LXL     X0,DEF,X6,PR6   GET DEF FROM SC
   000161    001000 3000 03            168         CANX    X0,.LG,DU       IS IT A GLOBAL SET
   000162 (0)000165 6010 00            169         TNZ     GDBK            YES-DONT NEED TO ADJUST
   000163    7 00005 2201 13           170         LDX     X0,ACPTR,X3,PR7  NO - GET AC PTR
   000164    6 00002 0361 10           171         ADLQ    ABAS,X0,PR6     MAKE PTR A GLOBAL DBK
   000165                              172  GDBK   NULL
   000165 (0)000405 7100 00            173         TRA     FNPRET          GO RETURN
   000166                              174  PGRP   NULL                    NEED TO SET PTR OFFSET OF NEXT/PRIOR
   000166    7 00513 2231 00           175         LDX     X3,RVPA,,PR7
   000167    7 00004 7251 13           176         LXL     X5,RSPTR,X3,PR7  GET RS PTR
   000170    3 00000 5005 11           177         A9BD    ,X1,PR3         SET PR3 = ADDR OF ENTRY OFFSET
   000171    000 1 100 1015 20         178         MRL     (1,,1),(1),,1      * MOVE
   000172    6 00007 0001 15           179         ARG     CSMPP,X5,PR6       *  OFFSET OF PTR GROUP
   000173    7 00712 0 0 0 0004        180         ADSC9   ENTPTR,0,4,PR7       *   TO WORKSPACE
   000174    7 00002 4735 13           181         LDP     PR3,RADDR,X3,PR7  RESET PR3 = ADDR OF PA REC
   000175    7 00712 2361 00           182         LDQ     ENTPTR,,PR7     GET OFST TO PTR GROUP
   000176 (0)000521 6000 00            183         TZE     PGNL1           ERROR-PTR GROUP OFFSET NULL
   000177    3 00000 5005 06           184         A9BD    0,QL,PR3        SET PR3 = OFFSET TO PTR GROUP
                                       185  *  MOVE NO. OF PTRS IN PTR GROUP TO WORKSPACE
   000200    000 1 100 1005 00         186         MLR     (1),(1),,1         * MOVE
   000201    3 00000 0 0 0 0002        187         ADSC9   0,0,2,PR3            *  NO. OF PTRS IN PTR GROUP
   000202    7 00711 0 0 0 0002        188         ADSC9   NOPTRS,0,2,PR7       *   TO WORKSPACE
   000203    7 00710 7201 00           189         LXL     X0,PTRNO,,PR7
   000204    7 00713 0201 00           190         ADLX    X0,NXPRI,,PR7   INC OR DEC TO GET NEXT OR PRIOR
   000205 (0)000211 6000 00            191         TZE     GNP             NO - NEED TO GET NEXT OR PRIOR ENTRY
 12:39 09/05/97  FILE=ZIM$DBAR.:ZIC0TSI       FIND NEXT/PRIOR OF PA SET                                  8    BMAP - B00
   000206    7 00711 1001 00           192         CMPX    X0,NOPTRS,,PR7  IS IT .LE. NO. OF PTRS IN PTR GROUP
   000207 (0)000214 6000 00            193         TZE     DPO             YES-GO DETERMINE PTR OFFSET OF N/P
   000210 (0)000214 6020 00            194         TNC     DPO             YES
   000211                              195  GNP    NULL                    NO - GET NEXT OR PRIOR ENTRY
   000211    000000 6220 00            196         EAX     X2,0            SET PTR OFFSET = 0
   000212    7 00710 4421 00           197         SXL     X2,PTRNO,,PR7   SET PTR NUMBER TO 0
   000213 (0)000115 7100 00            198         TRA     GTENT           GO GET NEXT/PRIOR ENTRY
   000214                              199  DPO    NULL
                                       200  *  CALCULATE OFFSET OF NEXT/PRIOR PTR
   000214    7 00710 4401 00           201         SXL     X0,PTRNO,,PR7   UPDATE CURRENT PTR NO.
   000215    6 00007 2351 15           202         LDA     CSMPP,X5,PR6    GET SIZE OF PTR
   000216    007777 3750 07            203         ANA     =O7777,DL       ISOLATE
   000217    000002 0350 07            204         ADLA    2,DL            ADD SIZE OF REC TYPE FIELD
   000220    7 00713 2341 00           205         SZN     NXPRI,,PR7      GET NEXT/PRIOR INDICATOR
   000221 (0)000223 6050 00            206         TPL     *+2             NEXT - LEAVE SIZE POSITIVE
   000222    000000 5310 00            207         NEG                     PRIOR - MAKE SIZE OF PTR ENTRY NEGATIVE
   000223    000022 7350 00            208         ALS     18
   000224    7 00717 7551 00           209         STA     ENTSZ,,PR7      SAVE SIZE OF PTR ENTRY
   000225    7 00717 0221 00           210         ADLX    X2,ENTSZ,,PR7   X2 = PTR OFFSET OF NEXT/PRIOR
   000226    7 00002 4735 13           211         LDP     PR3,RADDR,X3,PR7
   000227    3 00000 5005 12           212         A9BD    ,X2,PR3         SET PR3 = OFFSET OF N/P PTR
   000230 (0)000143 7100 00            213         TRA     GMPTR           GO GET REC TYPE AND DBK OF MEMBER
   000231                              214  SETPT  NULL
   000231    7 00712 2361 00           215         LDQ     ENTPTR,,PR7
   000232 (0)000521 6000 00            216         TZE     PGNL2           ERROR - PTR GROUP OFFSET NULL
   000233    7 00002 4735 13           217         LDP     PR3,RADDR,X3,PR7  RESET PR3 = ADDRESS OF PA REC
   000234    3 00000 5005 06           218         A9BD    0,QL,PR3        SET PR3 = ADDRESS OF PTR GRP
   000235    000001 6230 00            219         EAX     X3,1            INIT CURRENT PTR NO TO 1ST
   000236    7 00713 2341 00           220         SZN     NXPRI,,PR7
   000237 (0)000255 6050 00            221         TPL     SETAR
   000240    000 1 100 1005 00         222         MLR     (1),(1),,1         * MOVE
   000241    3 00000 0 0 0 0002        223         ADSC9   0,0,2,PR3            *  NO. OF PTRS IN PTR GRP
   000242    7 00711 0 0 0 0002        224         ADSC9   NOPTRS,0,2,PR7       *   TO WORKSPACE
   000243    6 00007 2361 15           225         LDQ     CSMPP,X5,PR6    GET SIZE OF PTR
   000244    007777 3760 07            226         ANQ     =O7777,DL       ISOLATE
   000245    000002 0360 07            227         ADLQ    2,DL            ADD SIZE OF REC TYPE FIELD
   000246    7 00717 7561 00           228         STQ     ENTSZ,,PR7      SAVE SIZE OF A PTR ENTRY
 12:39 09/05/97  FILE=ZIM$DBAR.:ZIC0TSI       FIND NEXT/PRIOR OF PA SET                                  9    BMAP - B00
   000247    7 00711 2361 00           229         LDQ     NOPTRS,,PR7     GET HIGH PTR NO
   000250    000000 6230 02            230         EAX     X3,,QU          SET CURR PTR NO = LAST PTR IN GROUP
   000251    000022 7720 00            231         QRL     18              INTO QL
   000252    000001 1360 07            232         SBLQ    1,DL
   000253    7 00717 4021 00           233         MPY     ENTSZ,,PR7      MULTIPLY BY SIZE OF PTR ENTRY
   000254    3 00000 5005 06           234         A9BD    ,QL,PR3         PR3 = ADDR OF LAST PTR -2
   000255                              235  SETAR  NULL
   000255    000002 6220 00            236         EAX     X2,2            ADD 2 FOR NO. OF PTRS FLD
   000256    3 00000 5005 12           237         A9BD    ,X2,PR3         PR3 = ADDR OF LAST PTR OR ADDR OF FIRST
   000257    000002 6220 06            238         EAX     X2,2,QL         SET X2 = OFFSET OF PTR
   000260    7 00710 4431 00           239         SXL     X3,PTRNO,,PR7   RESET CURRENT PTR NO.
   000261 (0)000143 7100 00            240         TRA     GMPTR
                                       241  *  GET LAST ENTRY IN PRIOR PA RECORD
   000262                              242  GPPA   NULL
   000262    7 00513 2211 00           243         LDX     X1,RVPA,,PR7
   000263    7 00000 2361 11           244        LDQ     DBKEY,X1,PR7        SAVE DBK OF THIS PA
   000264    7 00714 2251 00           245        LDX     X5,PARCW,,PR7       GET PA CONTROL WORD
   000265    100000 3050 03            246        CANX    X5,.PAFIL,DU        IS IT FIRST IN LEVEL
   000266 (0)000457 6010 00            247        TNZ     NPOR                YES - NEXT/PRIOR IS OWNER REC
   000267                              248  GPPA2 NULL                        BYPASS PAFIL CHECK
   000267    7 00513 2211 00           249        LDX     X1,RVPA,,PR7
   000270    7 00002 4735 11           250         LDP     PR3,RADDR,X1,PR7  GET ADDRESS OF CURRENT PA
   000271    7 00004 7251 11           251         LXL     X5,RSPTR,X1,PR7  GET RS PTR FOR PA REC
   000272    000 1 100 1015 20         252         MRL     (1,,1),(1),,1      * MOVE
   000273    6 00005 0001 15           253         ARG     PPOS,X5,PR6        *  PRIOR PTR
   000274    7 00631 0 0 0 0004        254         ADSC9   PTR,0,4,PR7          *   TO WORKSPACE
   000275 (0)000322 7100 00            255         TRA     FPARC           GO FIND PRIOR PA RECORD
                                       256  *  GET FIRST ENTRY IN NEXT PA RECORD
   000276                              257  GNPA   NULL
   000276    7 00513 2211 00           258         LDX     X1,RVPA,,PR7
   000277    7 00002 4735 11           259         LDP     PR3,RADDR,X1,PR7  ADDRESS OF CURRENT PA
   000300    7 00004 7251 11           260         LXL     X5,RSPTR,X1,PR7  GET RS PTR
   000301    000 1 100 1015 20         261         MRL     (1,,1),(1),,1      * MOVE
   000302    6 00004 0001 15           262         ARG     NPOS,X5,PR6        *  NEXT PTR
   000303    7 00631 0 0 0 0004        263         ADSC9   PTR,0,4,PR7          *   TO WORKSPACE
   000304    7 00714 2201 00           264        LDX     X0,PARCW,,PR7       GET PA CONTROL WORD
   000305    040000 3000 03            265        CANX    X0,.PALIL,DU        IS IT LAST IN LEVEL
 12:39 09/05/97  FILE=ZIM$DBAR.:ZIC0TSI       FIND NEXT/PRIOR OF PA SET                                  10   BMAP - B00
   000306 (0)000322 6000 00            266        TZE     FPARC               NO - THEN OK
   000307    7 00000 2361 11           267        LDQ     DBKEY,X1,PR7        GET DBK OF CURRENT PA REC
   000310    100000 3000 03            268        CANX    X0,.PAFIL,DU        CHK IF IT IS ALSO FIRST IN LEVEL
   000311 (0)000457 6010 00            269        TNZ     NPOR                YES - THEN WE GOT THE RIGHT PA DBK
   000312    7 00631 2361 00           270        LDQ     PTR,,PR7           OWNER FOUND, GET DBKEY OF PA OF NEXT
   000313    7 00520 2261 00           271        LDX     X6,PRSC,,PR7
   000314    6 00000 7201 16           272        LXL     X0,DEF,X6,PR6
   000315    001000 3000 03            273        CANX    X0,.LG,DU           SET LOCAL?
   000316 (0)000457 6010 00            274        TNZ     NPOR                NO - RETURN OWNER FOUND
   000317    7 00005 2201 11           275        LDX     X0,ACPTR,X1,PR7     GET AC
   000320    6 00002 0361 10           276        ADLQ    ABAS,X0,PR6         MAKE DBK GLOBAL
   000321 (0)000457 7100 00            277        TRA     NPOR
   000322                              278  FPARC  NULL
   000322    7 00631 2361 00           279         LDQ     PTR,,PR7        GET PTR TO NEXT/PRIOR PA
   000323 (0)000521 6000 00            280        TZE     NLPAE               NULL - ERROR
   000324    000 1 100 1015 20         281         MRL     (1,,1),(1),,1      * MOVE
   000325    6 00006 0001 15           282         ARG     HPOS,X5,PR6        *  OWNER PTR
   000326    7 00631 0 0 0 0004        283         ADSC9   PTR,0,4,PR7          *   TO WORKSPACE
   000327    7 00631 1161 00           284         CMPQ    PTR,,PR7        IS THIS THE HIGH LEVEL PA REC
                                       285  *                                (OWNER PTR = NEXT OR PRIOR)
   000330 (0)000352 6000 00            286         TZE     HVREC           YES - ONLY 1 PA
   000331    7 00520 2261 00           287         LDX     X6,PRSC,,PR7    GET SC PTR
   000332    6 00000 7201 16           288         LXL     X0,DEF,X6,PR6   GET DEF FROM SC
   000333    001000 3000 03            289         CANX    X0,.LG,DU       IS IT A GLOBAL SET
   000334 (0)000337 6010 00            290         TNZ     GTREC           YES- DONT NEED TO ADJUST
   000335    7 00005 2201 11           291         LDX     X0,ACPTR,X1,PR7  GET AC PTR
   000336    6 00002 0361 10           292         ADLQ    ABAS,X0,PR6     MAKE PTR GLOBAL DBK
   000337                              293  GTREC  NULL
   000337    7 00000 7561 11           294         STQ     DBKEY,X1,PR7
   000340  X 000000 7010 00            295         ICCAL   ZIQ$DBIOL,,FLER4 FIND PA RECORD
   000341 (0)000542 7020 00
   000342    5 00006 2341 00
   000343    777776 6010 04
   000344    7 00513 2211 00           296         LDX     X1,RVPA,,PR7
   000345    5 00020 2351 00           297        LDA     GIOAWS,,PR5         AREA WORK SPACE POINTER
   000346    7 00013 7551 11           298        STA     AWS$,X1,PR7
   000347    7 00002 4535 11           299         STP     PR3,RADDR,X1,PR7  SAVE ADDR OF REC
 12:39 09/05/97  FILE=ZIM$DBAR.:ZIC0TSI       FIND NEXT/PRIOR OF PA SET                                  11   BMAP - B00
   000350    7 00001 4545 11           300         STP     PR4,BADDR,X1,PR7  SAVE ADDR OF BUFFER
   000351    7 00005 7401 11           301         STX     X0,ACPTR,X1,PR7  SAVE AC PTR
   000352                              302  HVREC  NULL
   000352    7 00006 2271 11           303         LDX     X7,RCPTR,X1,PR7  GET RC PTR FOR PA(RC IN RVPA FROM
                                       304  *                              FIND OF THE CURR PA REC)
   000353    6 77776 2211 17           305         LDX     X1,CSPSB,X7,PR6  INIT ENTRY OFFSET TO FIRST ENTRY IN REC
   000354    7 00713 2341 00           306         SZN     NXPRI,,PR7
   000355 (0)000363 6040 00            307         TMI     PIND            PRIOR-NEED TO FIND OFFSET OF LAST IN REC
   000356    3 00000 5005 11           308         A9BD    ,X1,PR3         NEXT- WANT 1ST ENTRY
   000357    000001 6230 00            309         EAX     X3,1
   000360    7 00710 7431 00           310         STX     X3,ENTNO,,PR7   SET CURR ENTRY NO TO 1
   000361    000000 6220 00            311         EAX     X2,0            INIT PTR OFFSET = 0
   000362 (0)000143 7100 00            312         TRA     GMPTR
   000363                              313  PIND   NULL
                                       314  *  MOVE NO OF ENTRIES IN PA REC TO WORKSPACE
   000363    000 1 100 1005 00         315         MLR     (1),(1),,1         * MOVE
   000364    3 00001 0 0 0 0002        316         ADSC9   PACW,0,2,PR3         *  NO OF ENTRIES IN PA REC
   000365    7 00714 0 0 0 0002        317         ADSC9   PARCW,0,2,PR7        *   TO WORKSPACE
   000366    7 00714 2361 00           318         LDQ     PARCW,,PR7      GET NO. OF ENTRIES
   000367    017777 3760 03            319         ANQ     .NOENT,DU       ISOLATE
   000370    000000 6230 02            320         EAX     X3,,QU
   000371    7 00710 7431 00           321         STX     X3,ENTNO,,PR7   RESET CURRENT ENTRY NO.
   000372    6 77776 2351 17           322         LDA     CSPES,X7,PR6    GET SIZE OF ENTRY
   000373    777777 3750 07            323         ANA     -1,DL           ISOLATE
   000374    7 00717 7551 00           324         STA     ENTSZ,,PR7      SAVE
   000375    777777 6360 02            325         EAQ     -1,QU           MAKE NO OF ENTRIES REL. TO ZERO
   000376    000022 7720 00            326         QRL     18              INTO QL FOR MULTIPLY
   000377    7 00717 4021 00           327         MPY     ENTSZ,,PR7      MULTIPLY BY SIZE OF ENTRY
   000400    000000 6210 06            328         EAX     X1,,QL
   000401    6 77776 0211 17           329         ADLX    X1,CSPSB,X7,PR6  ADD STARTING BYTE
   000402    3 00000 5005 11           330         A9BD    ,X1,PR3         SET PR3 = OFFSET OF HIGH ENTRY IN PA
   000403    000000 6220 00            331         EAX     X2,0            SET PTR OFFSET = 0
   000404 (0)000143 7100 00            332         TRA     GMPTR
                                       333  *
                                       334  *  SET UP ARGUMENTS FOR NEXT/PRIOR OF PA SET IN RVO.
   000405                              335  FNPRET NULL
   000405    7 00511 2231 00           336         LDX     X3,RVO,,PR7
 12:39 09/05/97  FILE=ZIM$DBAR.:ZIC0TSI       FIND NEXT/PRIOR OF PA SET                                  12   BMAP - B00
   000406    7 00513 2201 00           337         LDX     X0,RVPA,,PR7
   000407    7 00000 7561 13           338         STQ     DBKEY,X3,PR7    SAVE DBK OF NEXT/PRIOR MEMBER RECORD
   000410    7 00014 7411 13           339         STX     X1,CBRCE,X3,PR7  SAVE PA ENTRY OFFSET OF NEXT/PRIOR
   000411    7 00014 4421 13           340         SXL     X2,CBRCP,X3,PR7  SAVE PA POINTER OFFSET OF NEXT/PRIOR
   000412    7 00000 2361 10           341         LDQ     DBKEY,X0,PR7    GET DBK OF PA REC
   000413    7 00015 7561 13           342         STQ     CBRPA,X3,PR7    SAVE IN RVO
   000414    7 00711 2351 00           343         LDA     ENTTYP,,PR7     GET REC TYPE OF NEW NEXT/PRIOR
   000415    777777 3750 07            344         ANA     -1,DL           ISOLATE
   000416    7 00003 7551 13           345         STA     RTP,X3,PR7      SAVE REC TYPE(NOTE: SIZE NOT SAVED)
   000417    7 00510 2201 00           346         LDX     X0,RVI,,PR7
   000420    7 00004 7251 10           347         LXL     X5,RSPTR,X0,PR7  GET RS FOR INPUT REC
   000421    7 00004 2261 10           348         LDX     X6,SCPTR,X0,PR7  GET SC FOR INPUT REC
   000422    7 00006 2271 10           349         LDX     X7,RCPTR,X0,PR7  GET RC FOR INPUT REC
   000423    7 00057 2361 00           350         LDQ     CTMASK,,PR7     LOAD TYPE MASK
   000424    6 00003 2111 17           351         CMK     RTYP,X7,PR6     IS THE NEXT/PRIOR SAME TYPE AS CURRENT
   000425 (0)000432 6000 00            352         TZE     GTPTR           YES
   000426  X 000000 7010 00            353         ICCAL   ZIG$DBPR2,,FRCER1    FIND RC & RS PTRS FOR NEXT/PRIOR
   000427 (0)000530 7020 00
   000430    5 00006 2341 00
   000431    777776 6010 04
   000432                              354  GTPTR  NULL
   000432    7 00511 2231 00           355         LDX     X3,RVO,,PR7
   000433    7 00006 7471 13           356         STX     X7,RCPTR,X3,PR7  SAVE RC PTR
   000434    7 00004 7461 13           357         STX     X6,SCPTR,X3,PR7  SAVE SC PTR
   000435    7 00004 4451 13           358         SXL     X5,RSPTR,X3,PR7  SAVE RS PTR
                                       359  *  SEE IF REC RETRIEVED IS SET OWNER
   000436    6 00000 2211 15           360         LDX     X1,DEF,X5,PR6
   000437    010000 3010 03            361         CANX    X1,.SO,DU       IS IT SET OWNER RS
   000440 (0)000514 6010 00            362         TNZ     FOWNR           YES -(DUMMY PA REC FOUND)
                                       363  *  SEE IF REQUEST IS FOR ANY TYPE
   000441    7 00517 2341 00           364         SZN     PRRC,,PR7       IS RC NEG
   000442 (0)000456 6040 00            365         TMI     RTREC           YES - RETURN RECORD
                                       366  *  SEE IF REC FOUND IS IN SUBSCHEMA
   000443    6 00000 7211 17           367         LXL     X1,DEF,X7,PR6
   000444    100000 3010 03            368         CANX    X1,.SR,DU       IS REC IN SS
   000445 (0)000452 6010 00            369         TNZ     RNSS            NO
                                       370  *  SEE IF REC RETRIEVED IS TYPE REQUESTED
 12:39 09/05/97  FILE=ZIM$DBAR.:ZIC0TSI       FIND NEXT/PRIOR OF PA SET                                  13   BMAP - B00
   000446    7 00517 2271 00           371         LDX     X7,PRRC,,PR7    GET RC REQUESTED
   000447 (0)000456 6000 00            372         TZE     RTREC           NONE - HAVE A GOOD REC
   000450    7 00006 1071 13           373         CMPX    X7,RCPTR,X3,PR7  IS IT TYPE REQUESTED
   000451 (0)000456 6000 00            374         TZE     RTREC           YES
                                       375  *  MAKE REC IDENTIFIED INPUT AND GET NEXT/PRIOR
   000452                              376  RNSS   NULL
   000452    7 00510 2371 00           377         LDAQ    RVI,,PR7        * REVERSE
   000453    7 00511 7551 00           378         STA     RVO,,PR7        *  IN AND OUT
   000454    7 00510 7561 00           379         STQ     RVI,,PR7        *   REC VARIABLES
   000455 (0)000077 7100 00            380         TRA     GNPLP           GET NEXT/PRIOR REC
                                       381  *  NORMAL RETURN
   000456                              382  RTREC  NULL
   000456  X 000000 7020 00            383         DBRET                   NORMAL RETURN
                                       384  *
                                       385  *  EXCEPTIONS
                                       386  *
   000457                              387  NPOR  NULL
   000457    7 00511 2231 00           388        LDX     X3,RVO,,PR7
   000460    7 00015 7561 13           389        STQ     CBRPA,X3,PR7         DBK OF FIRST PA REC IN LOWEST LEVEL
   000461    7 00014 4501 13           390        STZ     CBRCE,X3,PR7
   000462    7 00510 2211 00           391        LDX     X1,RVI,,PR7          RVI HAS THE CURRENT OF RECORD
   000463    7 00000 2361 11           392        LDQ     DBKEY,X1,PR7         GET THE DBK OF CURRENT OF SET
   000464  X 000000 7010 00            393        ICCAL   ZIQ$DBIOL,,FLER3     READ IT IN CORE
   000465 (0)000542 7020 00
   000466    5 00006 2341 00
   000467    777776 6010 04
   000470    7 00511 2231 00           394        LDX     X3,RVO,,PR7          RESTORE RVO PTR
   000471    7 00510 2211 00           395        LDX     X1,RVI,,PR7              AND RVI PTR
   000472    7 00004 7251 11           396        LXL     X5,RSPTR,X1,PR7      GET IT RS
   000473    000 1 100 1015 20         397        MRL     (1,,1),(1),,1        *   MOVE OWNER PTR
   000474    6 00006 0001 15           398        ARG     HPOS,X5,PR6
   000475    7 00631 0 0 0 0004        399        ADSC9   PTR,0,4,PR7          *   TO WORK SPACE
   000476    7 00631 2361 00           400        LDQ     PTR,,PR7             NOW CHK LOCAL TO GLOBAL
   000477    7 00520 2261 00           401        LDX     X6,PRSC,,PR7         GET SC
   000500    6 00000 7221 16           402        LXL     X2,DEF,X6,PR6        GET DEF WORD OF SC
   000501    001000 3020 03            403        CANX    X2,.LG,DU            IS SET LOCAL?
   000502 (0)000504 6010 00            404        TNZ     *+2                  NO - NO NEED TO ADJUST
 12:39 09/05/97  FILE=ZIM$DBAR.:ZIC0TSI       FIND NEXT/PRIOR OF PA SET                                  14   BMAP - B00
   000503    6 00002 0361 10           405        ADLQ    ABAS,X0,PR6          MAKE OWNER GLOBAL (X0 HAS AC PTR)
   000504    7 00000 7561 13           406        STQ     DBKEY,X3,PR7         PUT IN RVO
   000505 (0)000456 7100 00            407        TRA     RTREC                NORMAL RETURN
   000506                              408  EOPAS  NULL                    SET EMPTY-FOUND OWNER
   000506    7 00510 2201 00           409         LDX     X0,RVI,,PR7
   000507    7 00511 2211 00           410         LDX     X1,RVO,,PR7
   000510    7 00000 2361 10           411         LDQ     DBKEY,X0,PR7    GET OWNER DBK
   000511    7 00000 7561 11           412         STQ     DBKEY,X1,PR7    SAVE IN OUT REC VAR
   000512    7 00014 4501 11           413         STZ     CBRCE,X1,PR7    ZERO OUT PA ENTRY AND PTR OFSTS
   000513    7 00015 4501 11           414         STZ     CBRPA,X1,PR7    ZERO OUT DBK OF PA OWNER
   000514                              415  FOWNR  NULL                    FOUND OWNER
   000514    004064 2350 07            416         LDA     EOSR,DL
   000515    000000 6200 00            417         EAX     X0,0            NULL AC
   000516    000000 6270 00            418         EAX     X7,0            NULL RC
   000517    7 00520 2261 00           419         LDX     X6,PRSC,,PR7    GET SC PTR
   000520  X 000000 7020 00            420         DBEXC                   EXCEPTION RETURN
                                       421  *
                                       422  *  ERRORS DETECTED IN THIS PRIMITIVE
                                       423  *
   000521                              424  NLPAE  NULL                    NEXT OR PRIOR PTR IN PA REC NULL
   000521                              425  MEMPN  NULL                    MEMBER PTR IN PA REC NULL
   000521                              426  PGNL1  NULL                    OFFSET TO PTR GROUP NULL
   000521                              427  PGNL2  NULL                    OFFSET TO PTR GROUP NULL
   000521    020154 2350 07            428         LDA     RNM,DL
   000522    000000 6200 00            429         EAX     X0,0
   000523    7 00513 2231 00           430         LDX     X3,RVPA,,PR7
   000524    7 00004 2261 13           431         LDX     X6,SCPTR,X3,PR7  GET SC PTR
   000525    7 00006 2271 13           432         LDX     X7,RCPTR,X3,PR7  GET RC PTR
   000526 (0)000545 7100 00            433         TRA     FNCER
   000527                              434  RNMEM  NULL                    REC NOT A MEMBER
   000527    020154 2350 07            435         LDA     RNM,DL
   000530                              436  FRCER1 NULL    EXCEPTION FINDING RC & RS FOR N/P
   000530    000000 6200 00            437         EAX     X0,0            NULL AC PTR
   000531    7 00510 2211 00           438         LDX     X1,RVI,,PR7
   000532    7 00004 2261 11           439         LDX     X6,SCPTR,X1,PR7  GET SC PTR
   000533    7 00006 2271 11           440         LDX     X7,RCPTR,X1,PR7  GET RC PTR
   000534 (0)000545 7100 00            441         TRA     FNCER
 12:39 09/05/97  FILE=ZIM$DBAR.:ZIC0TSI       FIND NEXT/PRIOR OF PA SET                                  15   BMAP - B00
   000535                              442  RSPAE1 NULL                    RS FOR PA REC NOT FOUND
   000535    303243 2350 07            443         LDA     SSER,DL
   000536    000000 6200 00            444         EAX     X0,0            NULL AC PTR
   000537    000000 6270 00            445         EAX     X7,0            NULL RC PTR
   000540 (0)000545 7100 00            446         TRA     FNCER
                                       447  *
                                       448  *  ERRORS DETECTED IN SUBORDINATE ROUTINES
                                       449  *
   000541                              450  FFER1  NULL                    ERROR FINDING FIRST PA IN LOW LEVEL
   000541                              451  VOER1  NULL                    ERROR VERIFYING PA OFFSETS OF CURR OF SET
   000541 (0)000545 7100 00            452         TRA     FNCER
                                       453  *
                                       454  *  ERRORS DETECTED IN I/O ROUTINES
                                       455  *
   000542                              456  FLER3  NULL                    ERROR FINDING OWNER PA REC OF CURR
   000542                              457  FLER4  NULL                    ERROR FINDING NEXT/PRIOR PA REC
   000542                              458  FLOER5 NULL                       ERROR FIND OWNER REC OF CURR OF SET
   000542    000000 6260 00            459         EAX     X6,0            NULL SC
   000543    000000 6270 00            460         EAX     X7,0            NULL RC
   000544 (0)000545 7100 00            461         TRA     FNCER
                                       462  *  COMMON ERROR RETURN
   000545                              463  FNCER  NULL
   000545  X 000000 7020 00            464         DBALT

 12:39 09/05/97  FILE=ZIM$DBAR.:ZIC0TSI       FIND PA ENTRY                                              16   BMAP - B00
                                       465         TTLS    FIND PA ENTRY
                                       466  *
                                       467  *  THIS ROUTINE WILL PERFORM A BINARY SEARCH OF THE POINTER
                                       468  *  ARRAY RECORDS IN A SET TO FIND AN ENTRY WITH POINTER ARRAY
                                       469  *  KEYS WHICH MATCH THE KEYS IN THE KEY PROCESS AREA.  IF AN
                                       470  *  EXACT MATCH IS NOT FOUND, A POINTER IS RETURNED TO AN ENTRY
                                       471  *  WHICH WOULD BE PRIOR TO THE ENTRY WITH THE GIVEN KEYS.
                                       472  *
                                       473  *  INPUT ARGUMENTS:
                                       474  *      RVI -   DBK OF CURR OF SET
                                       475  *              ADDRESS OF BUFFER OF CURR OF SET
                                       476  *              ADDRESS OF CURR REC OF SET
                                       477  *              REC TYPE OF CURR OF SET
                                       478  *              AC PTR
                                       479  *      PRSC -  SC PTR FOR PA SET
                                       480  *
                                       481  *  OUTPUT ARGUMENTS:
                                       482  *      RVO -   DBK OF REC FOUND (PRIOR REC IF ENTRY DOES NOT EXIST)-
                                       483  *                  RECORD IS NOT RETRIEVED
                                       484  *              DBK OF OWNER PA RECORD
                                       485  *              PA ENTRY OFFSET
                                       486  *              PA POINTER OFFSET
                                       487  *              RECORD TYPE
                                       488  *
                                       489  *  EXCEPTION: ENTRY NOT FOUND
                                       490  *
   000546                              491  ZIG$DBAFE NULL
   000546  X 000000 7000 00            492         DBSAV
   000547    000004 000000
                                       493  *  FIND OWNER OF SET OCCURRENCE
   000550  X 000000 7010 00            494        DBCAL   ZIG$DBPFO,NOEXC,FOER1         FIND OWNER
   000551 (0)001621 7020 00
   000552    7 00511 2231 00           495         LDX     X3,RVO,,PR7     SET X1 TO OUTPUT REC VARIABLE
   000553    7 00002 4735 13           496         LDP     PR3,RADDR,X3,PR7  GET ADDR OF RECORD
   000554    7 00000 2361 13           497         LDQ     DBKEY,X3,PR7    GET DBK OF OWNER OF SET
   000555    7 00526 7561 00           498         STQ     PROPA,,PR7      SAVE
   000556    7 00004 7251 13           499         LXL     X5,RSPTR,X3,PR7  GET RS PTR
 12:39 09/05/97  FILE=ZIM$DBAR.:ZIC0TSI       FIND PA ENTRY                                              17   BMAP - B00
   000557    000 1 100 1015 20         500         MRL     (1,,1),(1),,1      * MOVE
   000560    6 00004 0001 15           501         ARG     NPOS,X5,PR6        *  NEXT PTR
   000561    7 00631 0 0 0 0004        502         ADSC9   PTR,0,4,PR7          *   TO WORKSPACE
   000562    7 00631 2361 00           503         LDQ     PTR,,PR7        GET NEXT PTR
   000563 (0)001012 6000 00            504         TZE     NPNE1           NULL - ERROR
   000564    7 00520 2261 00           505         LDX     X6,PRSC,,PR7    GET SC PTR
   000565    6 00000 7201 16           506         LXL     X0,DEF,X6,PR6   GET DEF FROM SC
   000566    001000 3000 03            507         CANX    X0,.LG,DU       IS IT A GLOBAL SET
   000567 (0)000572 6010 00            508         TNZ     GNXRC           YES- DONT NEED TO ADJUST
   000570    7 00005 2201 13           509         LDX     X0,ACPTR,X3,PR7  GET AC PTR
   000571    6 00002 0361 10           510         ADLQ    ABAS,X0,PR6     MAKE PTR GLOBAL DBK
   000572                              511  GNXRC  NULL
   000572    7 00000 1161 13           512         CMPQ    DBKEY,X3,PR7    IS SET EMPTY
   000573 (0)001005 6000 00            513         TZE     SEMTY           YES - TAKE EXCEPTION RETURN
                                       514  *  GET THE RECORD
   000574                              515  BNLP   NULL
   000574    7 00513 2231 00           516         LDX     X3,RVPA,,PR7
   000575    7 00000 7561 13           517         STQ     DBKEY,X3,PR7
   000576  X 000000 7010 00            518         ICCAL   ZIQ$DBIOL,,FLER1 FIND PA RECORD
   000577 (0)001020 7020 00
   000600    5 00006 2341 00
   000601    777776 6010 04
   000602    7 00513 2211 00           519         LDX     X1,RVPA,,PR7
   000603    5 00020 2351 00           520        LDA     GIOAWS,,PR5         AREA WORK SPACE POINTER
   000604    7 00013 7551 11           521        STA     AWS$,X1,PR7         SAVE IN REC VAR
   000605    7 00002 4535 11           522         STP     PR3,RADDR,X1,PR7  SAVE ADDR OF REC
   000606    7 00001 4545 11           523         STP     PR4,BADDR,X1,PR7  SAVE ADDR OF BUFFER
   000607    7 00005 7401 11           524         STX     X0,ACPTR,X1,PR7  SAVE AC PTR
                                       525  *  MOVE PACW TO WORK SPACE FOR LATER USE
   000610    000 1 100 1005 00         526        MLR     (1),(1),,1
   000611    3 00001 0 0 0 0004        527        ADSC9   PACW,0,4,PR3        * FROM PA REC
   000612    7 00714 0 0 0 0004        528        ADSC9   PARCW,0,4,PR7       * TO PRIM WORK SPACE
                                       529  *  GET RECORD TYPE OF PA RECORD
   000613    000 1 100 1005 00         530         MLR     (1),(1),,1         * MOVE
   000614    3 00000 0 0 0 0004        531         ADSC9   ,,4,PR3              *  REC TYPE, SIZE
   000615    7 00632 0 0 0 0004        532         ADSC9   RSZTP,0,4,PR7        *   TO WORKSPACE
   000616    7 00632 2351 00           533         LDA     RSZTP,,PR7
 12:39 09/05/97  FILE=ZIM$DBAR.:ZIC0TSI       FIND PA ENTRY                                              18   BMAP - B00
   000617    000022 7750 00            534         ALR     18              INTO POSITION
   000620    7 00003 7551 11           535         STA     RTP,X1,PR7      SAVE IN REC VAR
   000621    7 00520 2261 00           536         LDX     X6,PRSC,,PR7    GET SC PTR
                                       537  *  GET RS PTR FOR PA REC
   000622  X 000000 7010 00            538         ICCAL   ZIG$DBPR2,,FRSE1   GET RS PTR
   000623 (0)001014 7020 00
   000624    5 00006 2341 00
   000625    777776 6010 04
   000626    7 00513 2211 00           539         LDX     X1,RVPA,,PR7
   000627    7 00006 7471 11           540         STX     X7,RCPTR,X1,PR7  SAVE RC PTR
   000630    7 00004 7461 11           541         STX     X6,SCPTR,X1,PR7  SAVE SC PTR
   000631    7 00004 4451 11           542         SXL     X5,RSPTR,X1,PR7  SAVE RS PTR
   000632    7 00516 7451 00           543         STX     X5,PRSS,,PR7    SAVE RS FOR BINARY SEARCH
   000633 (0)001216 7010 00            544         ICCAL   ZIG$DBABS,ENFND,BSER1    DO BINARY SEARCH ON RECORD
   000634 (0)001017 7020 00
   000635    5 00006 2341 00
   000636    000003 6000 04
   000637    5 00006 4501 00
   000640 (0)000731 7020 00
                                       545  *  ENTRY FOUND IN PA RECORD
   000641    000001 6230 00            546         EAX     X3,1
   000642    7 00713 4431 00           547         SXL     X3,EFIND,,PR7   SET INDICATOR = ENTRY FOUND
   000643                              548  COPA   NULL
                                       549  *  CALCULATE OFFSET OF PA ENTRY
   000643    7 00516 2251 00           550         LDX     X5,PRSS,,PR7    GET RS PTR FOR PA RECORD
   000644    7 00513 2211 00           551         LDX     X1,RVPA,,PR7
   000645    7 00006 2271 11           552         LDX     X7,RCPTR,X1,PR7  GET RC PTR
   000646    6 77776 2351 17           553         LDA     CSPES,X7,PR6    GET ENTRY SIZE
   000647    777777 3750 07            554         ANA     -1,DL           ISOLATE
   000650    7 00717 7551 00           555         STA     ENTSZ,,PR7      SAVE
   000651    000001 1360 07            556         SBLQ    1,DL            GET ENTRY NO -1
   000652    7 00717 4021 00           557         MPY     ENTSZ,,PR7      MULTIPLY BY ENTRY SIZE
   000653    000000 6210 06            558         EAX     X1,,QL
   000654    6 77776 0211 17           559         ADLX    X1,CSPSB,X7,PR6  SET X1= OFFSET OF ENTRY IN PA REC
   000655    3 00000 5005 11           560         A9BD    ,X1,PR3         SET PR3= ADDRESS OF ENTRY
   000656    000000 6220 00            561         EAX     X2,0            INIT PTR OFFSET
   000657                              562  MMTPI  NULL
 12:39 09/05/97  FILE=ZIM$DBAR.:ZIC0TSI       FIND PA ENTRY                                              19   BMAP - B00
                                       563  *  MOVE MEMBER TYPE AND PTR INDICATOR (0=MEMBER PTR,1=PTR TO PTR GRP)
   000657    000 1 100 1005 00         564         MLR     (1),(1),,1         * MOVE
   000660    3 00000 0 0 0 0002        565         ADSC9   0,0,2,PR3            *  INDICATOR AND MEMBER TYPE
   000661    7 00711 4 0 0 0002        566         ADSC9   ENTTYP,2,2,PR7       *   TO WORKSPACE
                                       567  *  MOVE ENTRY PTR TO WORKSPACE
   000662    000 1 100 1015 20         568         MRL     (1,,1),(1),,1      * MOVE
   000663    6 00007 0001 15           569         ARG     CSMPP,X5,PR6       *  MEMBER PTR
   000664    7 00712 0 0 0 0004        570         ADSC9   ENTPTR,0,4,PR7       *   TO WORKSPACE
   000665    7 00711 7231 00           571         LXL     X3,ENTTYP,,PR7  GET PTR INDICATOR
   000666 (0)000702 6040 00            572         TMI     PGP             PTR GROUP PRESENT
   000667    7 00712 2361 00           573         LDQ     ENTPTR,,PR7     GET PTR
   000670    7 00520 2261 00           574         LDX     X6,PRSC,,PR7    GET SC PTR
   000671    6 00000 7231 16           575         LXL     X3,DEF,X6,PR6   GET DEF FROM SC
   000672    001000 3030 03            576         CANX    X3,.LG,DU       IS IT A GLOBAL SET
   000673 (0)000677 6010 00            577         TNZ     CKLVL           YES-DONT NEED TO ADJUST
   000674    7 00513 2231 00           578         LDX     X3,RVPA,,PR7
   000675    7 00005 2201 13           579         LDX     X0,ACPTR,X3,PR7  GET AC PTR
   000676    6 00002 0361 10           580         ADLQ    ABAS,X0,PR6     NO- MAKE PTR GLOBAL DBK
   000677                              581  CKLVL  NULL
   000677    7 00714 2351 00           582         LDA     PARCW,,PR7      IS THIS A LOW LEVEL PA
   000700 (0)000574 6040 00            583         TMI     BNLP            NO- GO GET NEXT LEVEL
   000701 (0)000770 7100 00            584         TRA     FERET           YES- RETURN
                                       585  *  POINTER GROUP PRESENT
   000702                              586  PGP    NULL
   000702    7 00513 2231 00           587         LDX     X3,RVPA,,PR7
   000703    7 00002 4735 13           588         LDP     PR3,RADDR,X3,PR7  RESET PR3 = ADDR OF PA REC
   000704    7 00712 2361 00           589         LDQ     ENTPTR,,PR7     OFFSET TO PTR GROUP
   000705    3 00000 5005 06           590         A9BD    0,QL,PR3        SET PR3 = OFFSET OF PTR GROUP
                                       591  *  IF ENTRY FOUND, GET OFFSET OF LOW PTR IN PTR GROUP
                                       592  *  IF PRIOR ENTRY IDENTIFIED, GET OFFSET OF HIGH PTR IN PTR GROUP
   000706    7 00713 7231 00           593         LXL     X3,EFIND,,PR7   WAS ENTRY FOUND
   000707 (0)000725 6010 00            594         TNZ     FPTR            YES
                                       595  *  MOVE NO. OF PTRS IN PTR GROUP TO WORKSPACE AND CALCULATE
                                       596  *  OFFSET OF LAST PTR IN GROUP
   000710    000 1 100 1005 00         597         MLR     (1),(1),,1         * MOVE
   000711    3 00000 0 0 0 0002        598         ADSC9   0,0,2,PR3            *  NO. OF PTRS IN PTR GROUP
   000712    7 00710 4 0 0 0002        599         ADSC9   PTRNO,2,2,PR7        *   TO WORKSPACE
 12:39 09/05/97  FILE=ZIM$DBAR.:ZIC0TSI       FIND PA ENTRY                                              20   BMAP - B00
   000713    7 00516 2251 00           600         LDX     X5,PRSS,,PR7    GET RS PTR FOR PA REC
   000714    6 00007 2361 15           601         LDQ     CSMPP,X5,PR6    GET SIZE OF PTR
   000715    007777 3760 07            602         ANQ     =O7777,DL       ISOLATE
   000716    000002 0360 07            603         ADLQ    2,DL            ADD SIZE OF REC TYPE FIELD
   000717    7 00717 7561 00           604         STQ     ENTSZ,,PR7      SAVE SIZE OF PTR ENTRY
   000720    7 00710 2361 00           605         LDQ     PTRNO,,PR7      GET HIGH PTR NO.
   000721    777777 3760 07            606         ANQ     -1,DL           ISOLATE
   000722    000001 1360 07            607         SBLQ    1,DL            RELATIVE TO 0
   000723    7 00717 4021 00           608         MPY     ENTSZ,,PR7      MULTIPLY BY SIZE OF EACH ENTRY
   000724    3 00000 5005 06           609         A9BD    ,QL,PR3         PR3=ADDR OF LAST PTR
   000725                              610  FPTR   NULL
   000725    000002 6220 00            611         EAX     X2,2            ADD 2 FOR NO. OF PTRS FLD
   000726    3 00000 5005 12           612         A9BD    ,X2,PR3         ADD TO OFST FOR THE NO. OF PTRS FIELD
   000727    000002 6220 06            613         EAX     X2,2,QL         X2 = PTR OFFSET FOR ENTRY FOUND
   000730 (0)000657 7100 00            614         TRA     MMTPI           GO GET MEMBER PTR
                                       615  *
                                       616  *  ENTRY NOT FOUND IN BINARY SEARCH - PRIOR ENTRY IDENTIFIED
                                       617  *
   000731                              618  ENFND  NULL
   000731    000000 6230 00            619         EAX     X3,0
   000732    7 00713 4431 00           620         SXL     X3,EFIND,,PR7   SET INDICATOR = ENTRY NOT FOUND
   000733    000000 7360 00            621         QLS     0               IS PRIOR ENTRY ZERO
   000734 (0)000643 6010 00            622         TNZ     COPA            NO
                                       623  *  ENTRY NO IS 0  - CHK IF THIS IS FIRST IN LEVEL
   000735    7 00714 2231 00           624         LDX     X3,PARCW,,PR7      GET THE CONTROL WD
   000736    100000 3030 03            625         CANX    X3,.PAFIL,DU
   000737 (0)000751 6000 00            626         TZE     GETPROR            NOT FIL, SO SEARCH PRIOR REC
   000740    000001 2360 07            627         LDQ     1,DL               SET ENTNO = 1 TO GO TO LOWER LEVEL
   000741    7 00714 2351 00           628         LDA     PARCW,,PR7         NOW, CHK IF LOWEST LEVEL
   000742 (0)000643 6040 00            629         TMI     COPA               CHK LUCK AT LOWER LEVEL
                                       630  *      WE ARE IN FIRST OF THE LOWEST LEVEL, BUT NO PRIOR ENTRY IDENT
                                       631  *      SO PRIOR RECORD IS THE OWNER RECORD
   000743    7 00511 2231 00           632         LDX     X3,RVO,,PR7
   000744    7 00513 2201 00           633         LDX     X0,RVPA,,PR7
   000745    7 00000 2351 10           634         LDA     DBKEY,X0,PR7       GET CURRENT PA REC DBK
   000746    7 00015 7551 13           635         STA     CBRPA,X3,PR7       SET OWNER'S PA REC TO THIS PA
   000747    7 00014 4501 13           636         STZ     CBRCE,X3,PR7       ZERO ENT OFFSET AND PTR OFFSET
 12:39 09/05/97  FILE=ZIM$DBAR.:ZIC0TSI       FIND PA ENTRY                                              21   BMAP - B00
   000750 (0)001005 7100 00            637         TRA     FEEXC              EXCPTION RETURN  (EOS)
   000751                              638  GETPROR NULL
                                       639  *  ENTRY NO IS 0  - GET LAST ENTRY IN PRIOR PA
   000751    7 00513 2231 00           640         LDX     X3,RVPA,,PR7
   000752    7 00002 4735 13           641         LDP     PR3,RADDR,X3,PR7  GET ADDR OF CURR PA
   000753    7 00516 2251 00           642         LDX     X5,PRSS,,PR7    GET RS PTR FOR PA REC
   000754    000 1 100 1015 20         643         MRL     (1,,1),(1),,1      * MOVE
   000755    6 00005 0001 15           644         ARG     PPOS,X5,PR6        *  PTR OF PRIOR PA
   000756    7 00631 0 0 0 0004        645         ADSC9   PTR,0,4,PR7          *   TO WORKSPACE
   000757    7 00631 2361 00           646         LDQ     PTR,,PR7        GET PRIOR PTR
   000760 (0)001012 6000 00            647         TZE     PPNE1           NULL - ERROR
   000761    7 00520 2261 00           648         LDX     X6,PRSC,,PR7    GET SC PTR
   000762    6 00000 7201 16           649         LXL     X0,DEF,X6,PR6   GET DEF FROM SC
   000763    001000 3000 03            650         CANX    X0,.LG,DU       IS IT A GLOBAL SET
   000764 (0)000574 6010 00            651        TNZ     BNLP           YES  DONT NEED TO ADJUST
   000765    7 00005 2201 13           652        LDX     X0,ACPTR,X3,PR7   GET AC PTR
   000766    6 00002 0361 10           653        ADLQ    ABAS,X0,PR6    MAKE IT GLOBAL
   000767 (0)000574 7100 00            654        TRA     BNLP           GO DO BINARY SEARCH ON PRIOR FOR INSERT PT
   000770                              655  FERET  NULL
                                       656  *
                                       657  *  READY TO RETURN - HOWEVER NEED TO SAVE INFO ON ENTRY IDENTIFIED
                                       658  *
   000770    7 00513 2231 00           659         LDX     X3,RVPA,,PR7
   000771    7 00511 2201 00           660         LDX     X0,RVO,,PR7
   000772    7 00000 7561 10           661         STQ     DBKEY,X0,PR7    SAVE DBK OF MEMBER RECORD
   000773    7 00014 7411 10           662         STX     X1,CBRCE,X0,PR7  SAVE PA ENTRY OFFSET
   000774    7 00014 4421 10           663         SXL     X2,CBRCP,X0,PR7  SAVE PA POINTER OFFSET
   000775    7 00000 2361 13           664         LDQ     DBKEY,X3,PR7
   000776    7 00015 7561 10           665         STQ     CBRPA,X0,PR7    SAVE DBK OF PA RECORD
   000777    7 00711 2351 00           666         LDA     ENTTYP,,PR7     GET REC TYPE OF ENTRY IDENTIFIED
   001000    7 00056 3751 00           667         ANA     TMASK,,PR7      ISOLATE
   001001    7 00003 7551 10           668         STA     RTP,X0,PR7      SAVE IN REC VAR
                                       669  *  IF EXACT MATCH FOUND, TAKE NORMAL RETURN.
                                       670  *  IF PRIOR ENTRY IDENTIFIED, TAKE EXCEPTION RETURN.
   001002    7 00713 7231 00           671         LXL     X3,EFIND,,PR7   WAS EXACT MATCH FOUND
   001003 (0)001005 6000 00            672         TZE     FEEXC           NO-TAKE EXCEPTION
                                       673  *  NORMAL RETURN
 12:39 09/05/97  FILE=ZIM$DBAR.:ZIC0TSI       FIND PA ENTRY                                              22   BMAP - B00
   001004  X 000000 7020 00            674         DBRET
                                       675  *
                                       676  *  EXCEPTION CONDITION
                                       677  *
   001005                              678  SEMTY  NULL                    SET EMPTY
   001005                              679  FEEXC  NULL                    ENTRY NOT FOUND
   001005    004540 2350 07            680         LDA     RSEE,DL
   001006    7 00520 2261 00           681         LDX     X6,PRSC,,PR7
   001007    000000 6200 00            682         EAX     X0,0            NULL AC
   001010    000000 6270 00            683         EAX     X7,0            NULL RC
   001011  X 000000 7020 00            684         DBEXC
                                       685  *
                                       686  *  ERRORS DETECTED IN THIS PRIMITIVE
                                       687  *
   001012                              688  NPNE1  NULL                    NEXT POINTER IN OWNER REC = 0
   001012                              689  PPNE1  NULL                    PRIOR POINTER IN PA REC = 0
   001012    020154 2350 07            690         LDA     RNM,DL
   001013    7 00520 2261 00           691         LDX     X6,PRSC,,PR7    GET SC PTR
   001014                              692  FRSE1  NULL    EXCEPT FIND RS FOR PA RECORD
   001014    000000 6200 00            693         EAX     X0,0            NULL AC PTR
   001015    6 00003 2271 15           694         LDX     X7,RCRSH,X5,PR6  GET RC PTR
   001016 (0)001022 7100 00            695         TRA     FECER
                                       696  *
                                       697  *  ERRORS DETECTED IN SUBORDINATE PRIMITIVES
                                       698  *
   001017                              699  BSER1  NULL                    ERROR IN BINARY SEARCH
   001017 (0)001022 7100 00            700         TRA     FECER
                                       701  *
                                       702  *  ERRORS DETECTED IN I/O ROUTINES
                                       703  *
   001020                              704  FLER1  NULL                    PAGE ERROR - FIND NEXT
   001020                              705  FLER2  NULL                    PAGE ERROR - FIND NEXT
   001020    000000 6260 00            706         EAX     X6,0            NULL SC
   001021    000000 6270 00            707         EAX     X7,0            NULL RC
                                       708  *  COMMON ERROR ROUTINE
   001022                              709  FECER  NULL
   001022  X 000000 7020 00            710         DBALT

 12:39 09/05/97  FILE=ZIM$DBAR.:ZIC0TSI       FIND FIRST IN PA SET                                       23   BMAP - B00
                                       711         TTLS    FIND FIRST IN PA SET
                                       712  *
                                       713  *  THIS ROUTINE WILL IDENTIFY THE FIRST ENTRY IN THE POINTER
                                       714  *  ARRAY SET GIVEN THE DBK AND THE ADDRESS OF THE OWNER OF THE
                                       715  *  PA SET. THE ENTRY IDENTIFIED WILL BE THE SPECIAL POINTER ARRAY
                                       716  *  HEADER RECORD WHICH IS ALWAYS THE VERY FIRST ENTRY IN A
                                       717  *  POINTER ARRAY SET.
                                       718  *
                                       719  *  INPUT ARGUMENTS:
                                       720  *      RVI -   DBK OF OWNER OF PA SET
                                       721  *              BUFFER ADDRESS OF OWNER OF SET
                                       722  *              RECORD ADDRESS OF OWNER OF SET
                                       723  *              RECORD TYPE OF OWNER
                                       724  *              RC PTR
                                       725  *              RS PTR
                                       726  *              AC PTR
                                       727  *
                                       728  *      PRSC -  SC PTR FOR PA SET
                                       729  *
                                       730  *  OUTPUT ARGUMENTS:
                                       731  *      RVI     DBK OF OWNER OF PA SET
                                       732  *              BUFFER ADDRESS OF OWNER
                                       733  *              RECORD ADDRESS OF OWNER
                                       734  *              RECORD TYPE OF OWNER
                                       735  *              RC PTR
                                       736  *              RS PTR
                                       737  *              AC PTR
                                       738  *              DBK OF FIRST PA IN SET
                                       739  *              ENTRY OFFSET OF SPECIAL PA HEADER ENTRY
                                       740  *              PTR OFFSET OF SPECIAL PA HEADER ENTRY
                                       741  *
                                       742  *      RVPA -
                                       743  *              DBK OF PA REC
                                       744  *              REC ADDR OF PA REC
                                       745  *              BUFFER ADDRESS OF PA REC
                                       746  *              REC TYPE
                                       747  *              RC PTR
 12:39 09/05/97  FILE=ZIM$DBAR.:ZIC0TSI       FIND FIRST IN PA SET                                       24   BMAP - B00
                                       748  *              RS PTR
                                       749  *              AC PTR
                                       750  *              SC PTR
                                       751  *
                                       752  *  EXCEPTION:  END OF SET (SET EMPTY)
                                       753  *
   001023                              754  ZIG$DBAFF NULL
   001023  X 000000 7000 00            755         DBSAV
   001024    000004 000000
   001025    7 00510 2211 00           756         LDX     X1,RVI,,PR7     SET X1 = INPUT REC VAR
   001026    7 00002 4735 11           757         LDP     PR3,RADDR,X1,PR7  GET ADDRESS OF OWNER REC
   001027    7 00004 7251 11           758         LXL     X5,RSPTR,X1,PR7  GET RS PTR FOR OWNER
   001030    000 1 100 1015 20         759         MRL     (1,,1),(1),,1      * MOVE
   001031    6 00004 0001 15           760         ARG     NPOS,X5,PR6        *  NEXT PTR TO
   001032    7 00631 0 0 0 0004        761         ADSC9   PTR,0,4,PR7          *   WORKSPACE
   001033    7 00631 2361 00           762         LDQ     PTR,,PR7        GET PTR
   001034 (0)001166 6000 00            763         TZE     NPNE2           NULL - ERROR
   001035    7 00520 2261 00           764         LDX     X6,PRSC,,PR7    GET SC PTR
   001036    6 00000 7201 16           765         LXL     X0,DEF,X6,PR6   GET DEF FROM SC
   001037    001000 3000 03            766         CANX    X0,.LG,DU       IS IT A GLOBAL SET
   001040 (0)001043 6010 00            767         TNZ     PTGLB           YES - DONT NEED TO ADJUST
   001041    7 00005 2201 11           768         LDX     X0,ACPTR,X1,PR7  GET AC PTR
   001042    6 00002 0361 10           769         ADLQ    ABAS,X0,PR6     MAKE PTR GLOBAL DBK
   001043                              770  PTGLB  NULL
   001043    7 00000 1161 11           771         CMPQ    DBKEY,X1,PR7    IS SET EMPTY(NEXT PTR = OWNER)
   001044 (0)001162 6000 00            772         TZE     PASE            YES - EXCEPTION RETURN
   001045    7 00513 2221 00           773         LDX     X2,RVPA,,PR7
                                       774  *  DETERMINE RC PTR AND RS PTR FOR PA REC AND SAVE IN RVPA
                                       775  *  NOTE - THERE CAN BE MORE THAN ONE RS FOR PA REC. THERE ARE AS
                                       776  *  MANY RS'S FOR PA REC AS THERE ARE PA MEMBER RECS. FOR THE PURPOSES
                                       777  *  OF THIS ROUTINE ANY ONE WILL DUE. WILL USE THE FIRST ONE ENCOUNTERED
                                       778  *  IN THE SC-RS CHAIN.
   001046    7 00520 2261 00           779         LDX     X6,PRSC,,PR7    GET SC FOR PA SET
   001047    7 00004 7251 11           780         LXL     X5,RSPTR,X1,PR7  GET RS FOR SET OWNER
   001050                              781  FRSLP  NULL
   001050    6 00002 2251 15           782         LDX     X5,SCRSN,X5,PR6  GET NEXT RS
   001051 (0)001207 6000 00            783         TZE     RSPAE2          DONE - RS FOR PA REC NOT FOUND
 12:39 09/05/97  FILE=ZIM$DBAR.:ZIC0TSI       FIND FIRST IN PA SET                                       25   BMAP - B00
   001052    6 00000 2201 15           784         LDX     X0,DEF,X5,PR6   GET MEMBER TYPE
   001053    000007 3600 03            785         ANX     X0,.MEMT,DU     ISOLATE
   001054    000002 1000 03            786         CMPX    X0,=O2,DU       IS IT AN SM FOR A PA REC
   001055 (0)001050 6010 00            787         TNZ     FRSLP           NO - GET NEXT RS
   001056    6 00003 2271 15           788         LDX     X7,RCRSH,X5,PR6  GET RC FOR PA REC
   001057    7 00004 4451 12           789         SXL     X5,RSPTR,X2,PR7  SAVE RS FOR PA REC IN RVPA REC VAR
   001060    7 00004 7461 12           790         STX     X6,SCPTR,X2,PR7  SAVE SC
   001061    7 00006 7471 12           791         STX     X7,RCPTR,X2,PR7  SAVE RC
                                       792  *  FIND PA RECORD
   001062                              793  GNXPA  NULL
   001062    7 00513 2221 00           794         LDX     X2,RVPA,,PR7
   001063    7 00000 7561 12           795         STQ     DBKEY,X2,PR7    SAVE DBK OF NEXT PA TO RETRIEVE
   001064  X 000000 7010 00            796         ICCAL   ZIQ$DBIOL,,PGER1 FIND PA RECORD
   001065 (0)001213 7020 00
   001066    5 00006 2341 00
   001067    777776 6010 04
   001070    7 00513 2211 00           797         LDX     X1,RVPA,,PR7
   001071    5 00020 2351 00           798        LDA     GIOAWS,,PR5
   001072    7 00013 7551 11           799        STA     AWS$,X1,PR7
   001073    7 00002 4535 11           800         STP     PR3,RADDR,X1,PR7  SAVE ADDR OF PA REC
   001074    7 00001 4545 11           801         STP     PR4,BADDR,X1,PR7  SAVE BUFFER ADDRESS OF PA
   001075    7 00005 7401 11           802         STX     X0,ACPTR,X1,PR7  SAVE AC PTR FOR PA REC
   001076    000 1 100 1005 00         803         MLR     (1),(1),,1         * MOVE
   001077    3 00000 0 0 0 0004        804         ADSC9   ,,4,PR3              *  REC TYPE AND SIZE TO
   001100    7 00632 0 0 0 0004        805         ADSC9   RSZTP,0,4,PR7        *   WORKSPACE
   001101    7 00632 2351 00           806         LDA     RSZTP,,PR7      GET TYPE
   001102    000022 7750 00            807         ALR     18              INTO POSITION
   001103    7 00003 7551 11           808         STA     RTP,X1,PR7      SAVE IN RVPA REC VAR
   001104    7 00510 2231 00           809         LDX     X3,RVI,,PR7
   001105    7 00004 7251 13           810         LXL     X5,RSPTR,X3,PR7  GET RS FOR OWNER OF SET
                                       811  *  INITIALIZE ENTRY AND POINTER OFFSETS
   001106    7 00006 2271 11           812         LDX     X7,RCPTR,X1,PR7  GET RC PTR FOR PA
   001107    6 77776 2211 17           813         LDX     X1,CSPSB,X7,PR6  SET ENTRY OFFSET TO STARTING BYTE
   001110    000000 6220 00            814         EAX     X2,0            INIT PTR OFFSET = 0
                                       815  *  MOVE MEMBER TYPE AND PTR INDICATOR(0=MEMBER PTR,1=PTR TO PTR GROUP)
   001111    3 00000 5005 11           816         A9BD    ,X1,PR3         SET PR3 = ADDR OF FIRST ENTRY
   001112                              817  GMP    NULL
 12:39 09/05/97  FILE=ZIM$DBAR.:ZIC0TSI       FIND FIRST IN PA SET                                       26   BMAP - B00
   001112    000 1 100 1005 00         818         MLR     (1),(1),,1         * MOVE
   001113    3 00000 0 0 0 0002        819         ADSC9   0,0,2,PR3            *  INDICATOR AND MEMBER TYPE
   001114    7 00711 4 0 0 0002        820         ADSC9   ENTTYP,2,2,PR7       *   TO WORKSPACE
                                       821  *  MOVE PTR TO WORKSPACE
   001115    7 00513 2231 00           822         LDX     X3,RVPA,,PR7
   001116    7 00004 7251 13           823         LXL     X5,RSPTR,X3,PR7  GET RS PTR FOR PA REC
   001117    000 1 100 1015 20         824         MRL     (1,,1),(1),,1      * MOVE
   001120    6 00007 0001 15           825         ARG     CSMPP,X5,PR6       *  MEMBER PTR
   001121    7 00712 0 0 0 0004        826         ADSC9   ENTPTR,0,4,PR7       *   TO WORKSPACE
   001122    7 00711 7201 00           827         LXL     X0,ENTTYP,,PR7  GET PTR INDICATOR
   001123 (0)001144 6040 00            828         TMI     IAPG            IS A PTR TO A PTR GROUP
   001124    7 00712 2361 00           829         LDQ     ENTPTR,,PR7     GET MEMBER PTR
   001125 (0)001173 6000 00            830         TZE     MPNE1           ERROR - NULL PTR
   001126    7 00520 2261 00           831         LDX     X6,PRSC,,PR7
   001127    6 00000 7201 16           832         LXL     X0,DEF,X6,PR6   GET DEF FROM SC
   001130    001000 3000 03            833         CANX    X0,.LG,DU       IS IT A GLOBAL SET
   001131 (0)001134 6010 00            834         TNZ     AGLBL           YES - DONT NEED TO ADJUST
   001132    7 00005 2201 13           835         LDX     X0,ACPTR,X3,PR7  GET AC PTR
   001133    6 00002 0361 10           836         ADLQ    ABAS,X0,PR6     MAKE PTR A GLOBAL DBK
   001134                              837  AGLBL  NULL
                                       838  *  CHECK LEVEL OF PA REC. IF LOWEST LEVEL PA, RETURN. IF NOT LOWEST
                                       839  *  LEVEL, GET THE PA REC IN NEXT LEVEL. (THE DBK OF THE NEXT PA IS IN
                                       840  *  THE QR).
   001134    7 00002 4735 13           841         LDP     PR3,RADDR,X3,PR7  RESET PR3 = ADDRESS OF PA REC
                                       842  *  MOVE LEVEL INDICATOR BITS WHICH ARE IN THE PA RECORD CONTROL WORD
                                       843  *  TO WORKSPACE
   001135    000 1 100 1005 00         844         MLR     (1),(1),,1         * MOVE
   001136    3 00001 0 0 0 0002        845         ADSC9   PACW,0,2,PR3         *  NO. OF ENTRIES IN PA REC
   001137    7 00714 0 0 0 0002        846         ADSC9   PARCW,0,2,PR7        *   TO WORKSPACE
   001140    7 00714 2201 00           847         LDX     X0,PARCW,,PR7   GET BIT INDICATING IF PA IS LOWEST LEVEL
   001141    400000 3000 03            848         CANX    X0,.PANLL,DU    IS IT LOWEST LEVEL
   001142 (0)001062 6010 00            849         TNZ     GNXPA           NO - GO GET NEXT PA
   001143 (0)001153 7100 00            850         TRA     FFRET           YES - RETURN
   001144                              851  IAPG   NULL
                                       852  *  POINTER GROUP PRESENT FOR FIRST ENTRY - GET FIRST PTR IN GROUP
   001144    7 00712 2361 00           853         LDQ     ENTPTR,,PR7     GET OFFSET TO PTR GROUP
   001145 (0)001173 6000 00            854         TZE     PONE1           ERROR - OFFSET IS NULL
 12:39 09/05/97  FILE=ZIM$DBAR.:ZIC0TSI       FIND FIRST IN PA SET                                       27   BMAP - B00
   001146    7 00002 4735 13           855         LDP     PR3,RADDR,X3,PR7   RESET REC ADDR
   001147    000002 0760 07            856         ADQ     2,DL               POINT PR3 TO THE 1ST PTR GROUP ENTRY
   001150    3 00000 5005 06           857         A9BD    0,QL,PR3
   001151    000002 6220 06            858         EAX     X2,2,QL         SET X2 = OFFSET OF 1ST PTR
   001152 (0)001112 7100 00            859         TRA     GMP             GO GET MEM REC TYPE AND PTR OF 1ST
                                       860  *  FIRST ENTRY IN LOWEST LEVEL PA IDENTIFIED - SHOULD BE UNIQUE
                                       861  *  SINCE IT IS THE SPECIAL PA HEADER RECORD
   001153                              862  FFRET  NULL
   001153    7 00510 2201 00           863         LDX     X0,RVI,,PR7
   001154    7 00014 7411 10           864         STX     X1,CBRCE,X0,PR7  SAVE ENTRY OFFSET
   001155    7 00014 4421 10           865         SXL     X2,CBRCP,X0,PR7  SAVE PTR OFFSET
   001156    7 00513 2231 00           866         LDX     X3,RVPA,,PR7
   001157    7 00000 2361 13           867         LDQ     DBKEY,X3,PR7    GET DBK OF PA OWNER
   001160    7 00015 7561 10           868         STQ     CBRPA,X0,PR7    SAVE IN RVI
                                       869  *  NORMAL RETURN
   001161  X 000000 7020 00            870         DBRET                   NORMAL RETURN
                                       871  *
                                       872  *  EXCEPTION CONDITION
                                       873  *
   001162                              874  PASE   NULL                    OWNER FOUND - SET EMPTY
   001162    004064 2350 07            875         LDA     EOSR,DL
   001163    000000 6200 00            876         EAX     X0,0            NULL AC
   001164    000000 6270 00            877         EAX     X7,0            NULL RC
   001165  X 000000 7020 00            878         DBEXC
                                       879  *
                                       880  *  ERRORS DETECTED IN THIS PRIMITIVE
                                       881  *
   001166                              882  NPNE2  NULL                    NEXT PTR IN OWNER REC NULL
   001166    020154 2350 07            883         LDA     RNM,DL
   001167    000000 6200 00            884         EAX     X0,0            NULL AC
   001170    7 00004 2261 11           885         LDX     X6,SCPTR,X1,PR7  GET SC
   001171    7 00006 2271 11           886         LDX     X7,RCPTR,X1,PR7  GET RC
   001172 (0)001215 7100 00            887         TRA     FFCER
   001173                              888  MPNE1  NULL                    MEMBER PTR NULL
   001173                              889  PONE1  NULL                    OFFSET TO PTR GRP NULL
   001173    303336 2350 07            890         LDA     PAER1,DL
   001174    000000 6200 00            891         EAX     X0,0            NULL AC
 12:39 09/05/97  FILE=ZIM$DBAR.:ZIC0TSI       FIND FIRST IN PA SET                                       28   BMAP - B00
   001175    7 00513 2231 00           892         LDX     X3,RVPA,,PR7
   001176    7 00006 2271 13           893         LDX     X7,RCPTR,X3,PR7  GET RC
   001177    000000 6260 00            894         EAX     X6,0            NULL SC
   001200 (0)001215 7100 00            895         TRA     FFCER
   001201                              896  PAHDE  NULL                    FIRST ENTRY IN SET NOT PA HDR
   001201    303337 2350 07            897         LDA     PAER2,DL
   001202    000000 6200 00            898         EAX     X0,0            NULL AC
   001203    000000 6260 00            899         EAX     X6,0            NULL SC
   001204    7 00513 2231 00           900         LDX     X3,RVPA,,PR7
   001205    7 00006 2271 13           901         LDX     X7,RCPTR,X3,PR7  GET RC PTR
   001206 (0)001215 7100 00            902         TRA     FFCER
   001207                              903  RSPAE2 NULL                    RS FOR PA REC NOT FOUND
   001207    303243 2350 07            904         LDA     SSER,DL
   001210    000000 6200 00            905         EAX     X0,0            NULL AC PTR
   001211    000000 6270 00            906         EAX     X7,0            NULL RC PTR
   001212 (0)000545 7100 00            907         TRA     FNCER
                                       908  *
                                       909  *  ERRORS DETECTED IN SUBORDINATE PRIMITIVES
                                       910  *
                                       911  *
                                       912  *
                                       913  *
                                       914  *  ERRORS DETECTED IN I/O ROUTINES
                                       915  *
   001213                              916  PGER1  NULL                    PAGE ERROR - FIND PA REC
   001213    000000 6260 00            917         EAX     X6,0            NULL AC
   001214    000000 6270 00            918         EAX     X7,0            NULL SC
                                       919  *  COMMON ERROR RETURN
   001215                              920  FFCER  NULL
   001215  X 000000 7020 00            921         DBALT

 12:39 09/05/97  FILE=ZIM$DBAR.:ZIC0TSI       PA BINARY SEARCH ROUTINE                                   29   BMAP - B00
                                       922         TTLS    PA BINARY SEARCH ROUTINE
                                       923  *
                                       924  *  THIS ROUTINE WILL PERFORM A BINARY SEARCH ON A
                                       925  *  GIVEN POINTER ARRAY RECORD TO FIND AN ENTRY WITH
                                       926  *  POINTER ARRAY KEYS WHICH MATCH THE KEYS IN THE KEY PROCESS AREA.
                                       927  *
                                       928  *  INPUT ARGUMENTS:
                                       929  *      PRSS - RS PTR FOR PA KEYS
                                       930  *      PR3  - ADDRESS OF PA RECORD
                                       931  *      PRSS - RS PTR FOR PA KEYS
                                       932  *
                                       933  *  OUTPUT ARGUMENTS:
                                       934  *      QR- ENTRY NO
                                       935  *
                                       936  *  EXCEPTION RETURN:
                                       937  *      NO ENTRY FOUND WITH KEYS MATCHING THOSE IN THE KEY PROCESS AREA
                                       938  *      HOWEVER QR = ENTRY NO OF PREVIOUS ENTRY
                                       939  *
   001216                              940  ZIG$DBABS NULL
   001216    7 00470 7411 56           941         ICSAV
   001217    000 1 100 1005 00         942         MLR     (1),(1),,1         * MOVE
   001220    3 00001 0 0 0 0004        943         ADSC9   PACW,0,4,PR3         *  POINTER ARRAY RECORD CONTROL WORD
   001221    7 00714 0 0 0 0004        944         ADSC9   PARCW,0,4,PR7        *   TO WORKSPACE
   001222    7 00714 2211 00           945         LDX     X1,PARCW,,PR7   GET NO. OF ENTRIES IN PA RECORD
   001223    017777 3610 03            946         ANX     X1,.NOENT,DU    ISOLATE
   001224    000001 0210 03            947         ADLX    X1,1,DU         ADD 1 TO GET UPPER LIMIT
   001225    7 00715 7411 00           948         STX     X1,ULIM,,PR7    SAVE
   001226    000000 6210 00            949         EAX     X1,0            INIT LOWER LIMIT = 0
   001227    7 00715 4411 00           950         SXL     X1,LOLIM,,PR7   SAVE
   001230    777777 6210 00            951         EAX     X1,-1
   001231    7 00713 7411 00           952         STX     X1,NXPRI,,PR7   INIT NEXT/PRIOR INDICATOR TO PRIOR
   001232    000001 6210 00            953         EAX     X1,1
   001233    7 00716 7411 00           954         STX     X1,CENTRY,,PR7  INIT CURRENT ENTRY NO. TO 1
   001234    7 00525 4535 00           955         STP     PR3,KCARG4,,PR7  SAVE ADDRESS OF PA RECORD
   001235                              956  BSL1   NULL
   001235    7 00715 7211 00           957         LXL     X1,LOLIM,,PR7   GET LOWER LIMIT
   001236    000001 0210 03            958         ADLX    X1,1,DU         ADD 1
 12:39 09/05/97  FILE=ZIM$DBAR.:ZIC0TSI       PA BINARY SEARCH ROUTINE                                   30   BMAP - B00
   001237    7 00715 1011 00           959         CMPX    X1,ULIM,,PR7    IS THE SEARCH DONE
   001240 (0)001250 6010 00            960         TNZ     CCHK            NO
                                       961  * THE SEARCH IS DONE - NO ENTRY FOUND WITH KEYS MATCHING THOSE
                                       962  *  IN THE KEY PROCESS AREA
   001241                              963  SID    NULL
   001241    7 00525 4735 00           964         LDP     PR3,KCARG4,,PR7  RESTORE ADDRESS REG 3= PA REC
   001242    7 00716 2361 00           965         LDQ     CENTRY,,PR7     GET ENTRY NO. IN QR
   001243    7 00713 2341 00           966         SZN     NXPRI,,PR7      IS THE INDICATOR SET TO NEXT OR PRIOR
                                       967  *              IDENTIFY THE PRIOR PA KEY IN THE REC
   001244 (0)001246 6050 00            968         TPL     *+2             NEXT - ENTRY NO IS THE PRIOR
   001245    777777 6360 02            969         EAQ     -1,QU           PRIOR - ENTRY NO -1 IS THE PRIOR
   001246    000022 7720 00            970         QRL     18              INTO QL
   001247 (0)001351 7100 00            971         TRA     NEFND           GO TAKE EXCEPTION RETURN
                                       972  *  CONTINUE WITH THE SEARCH
   001250                              973  CCHK   NULL
                                       974  *  SET THE NEXT ENTRY TO COMPARE = (LOW LIMIT + HIGH LIMIT)/2
   001250    7 00715 7211 00           975         LXL     X1,LOLIM,,PR7   GET LOW LIMIT
   001251    7 00715 0211 00           976         ADLX    X1,ULIM,,PR7    ADD HIGH LIMIT
                                       977  *      SINCE 1ST KEY IN THE PA OF FIRST IN LEVEL IS WILD, MAKE SURE
                                       978  *      IF WE HAVE 1ST AND THE 2ND ENTRIES LEFT TO COMPARE, USE
                                       979  *      THE 2ND ONE BEFORE USING THE 1ST ONE.
   001252    000003 1010 03            980         CMPX    X1,3,DU            ENTRIES LEFT TO COMPARE = 2?
   001253 (0)001255 6010 00            981         TNZ     *+2                NO - GO ON
   001254    000004 2210 03            982         LDX     X1,4,DU            LET NEXT ONE BE THE 2ND ENTRY
   001255    000000 6360 11            983         EAQ     ,X1             PUT IN QU
   001256    000001 7720 00            984         QRL     1               DIVIDE BY 2
   001257    7 00716 5521 60           985         STBQ    CENTRY,60,PR7   SAVE AS NEW CURRENT ENTRY NO.
   001260    7 00516 2241 00           986         LDX     X4,PRSS,,PR7    GET RS PTR FOR PA RECORD
   001261    7 00642 7441 00           987         STX     X4,PCD,,PR7     SAVE AS CURR CD
                                       988  *  CALCULATE ADDRESS OF CURRENT ENTRY AND PUT IN PR3 FOR COMPARE RTN.
                                       989  *  ADDRESS = ADDRESS OF PA REC + STARTING BYTE +
                                       990  *  CURR ENTRY NO.-1)(ENTRY SIZE)
   001262    6 00003 2271 14           991         LDX     X7,RCRSH,X4,PR6  GET RC PTR FOR PA RECORD
   001263    6 77776 2351 17           992         LDA     CSPES,X7,PR6    GET ENTRY SIZE
   001264    777777 3750 07            993         ANA     -1,DL           ISOLATE
   001265    7 00717 7551 00           994         STA     ENTSZ,,PR7      SAVE
   001266    777777 6360 02            995         EAQ     -1,QU           DECREMENT CURR ENTRY NO. BY 1
 12:39 09/05/97  FILE=ZIM$DBAR.:ZIC0TSI       PA BINARY SEARCH ROUTINE                                   31   BMAP - B00
   001267    000022 7720 00            996         QRL     18              PUT INTO QL
   001270    7 00717 4021 00           997         MPY     ENTSZ,,PR7      MULTIPLY BY ENTRY SIZE
   001271    7 00525 4735 00           998         LDP     PR3,KCARG4,,PR7  ADDRESS OF PA RECORD
   001272    6 77776 2211 17           999         LDX     X1,CSPSB,X7,PR6  GET STARTING BYTE
   001273    3 00000 5005 11          1000         A9BD    ,X1,PR3         ADD STARTING BYTE
   001274    3 00000 5005 06          1001         A9BD    ,QL,PR3           + (ENTRY NO.-1)*(ENTRY SIZE)
   001275                             1002  BSL2   NULL                    LOOP TO COMPARE FIELDS IN KEY
   001275    7 00642 2201 00          1003         LDX     X0,PCD,,PR7     GET CURR CD
   001276    6 00001 2201 10          1004         LDX     X0,RSCDN,X0,PR6  GET NEXT CD
   001277 (0)001344 6000 00           1005         TZE     BSDUN           NO - DONE
   001300    7 00642 7401 00          1006         STX     X0,PCD,,PR7     SAVE AS CURR CD
   001301    6 00002 2241 10          1007         LDX     X4,CDSH,X0,PR6  GET FR FOR THIS CD
   001302    7 00521 7441 00          1008         STX     X4,PRFR,,PR7    SAVE AS FR FOR 1ST OPERAND
   001303    7 00521 4441 00          1009         SXL     X4,PRFR2,,PR7   SAVE AS FR FOR 2ND OPERAND
   001304    7 00010 4745 00          1010         LDP     PR4,KEYPA,,PR7  SET PR4= ADDRESS OF KEY PROCESS AREA
   001305  X 000000 7010 00           1011         DBCAL   ZIG$DBXCI,KYSEQ,CKER1   COMPARE PA KEYS
   001306 (0)001356 7020 00
   001307    5 00006 2341 00
   001310    000003 6000 04
   001311    5 00006 4501 00
   001312 (0)001343 7020 00
   001313    7 00516 7211 00          1012         LXL     X1,CIND,,PR7    GET COMPARE INDICATOR
   001314 (0)001325 6040 00           1013         TMI     KPLPA
                                      1014  *  FIELD IN KEY PROCESS AREA >= FIELD IN PA ENTRY IN PA RECORD
   001315    777777 6220 00           1015         EAX     X2,-1           INIT NEXT PRIOR INDIC. TO PRIOR
   001316    7 00642 2201 00          1016         LDX     X0,PCD,,PR7     GET CURR CD
   001317    6 00000 2211 10          1017         LDX     X1,DEF,X0,PR6   GET CONTROL TYPE FROM CD
   001320    000020 3010 03           1018         CANX    X1,.CONT,DU     IS IT ASCENDING
   001321 (0)001323 6010 00           1019         TNZ     *+2             NO
   001322    000001 6220 00           1020         EAX     X2,1            YES-SET NEXT/PRIOR INDIC. TO NEXT
   001323    7 00713 7421 00          1021         STX     X2,NXPRI,,PR7   SAVE INDICATOR
   001324 (0)001334 7100 00           1022         TRA     CKNP
                                      1023  *  FIELD IN KEY PROCESS AREA < FIELD IN PA ENTRY IN PA RECORD
   001325                             1024  KPLPA  NULL
   001325    777777 6220 00           1025         EAX     X2,-1           INIT NEXT/PRIOR INDICATOR TO PRIOR
   001326    7 00642 2201 00          1026         LDX     X0,PCD,,PR7     GET CURR CD
   001327    6 00000 2211 10          1027         LDX     X1,DEF,X0,PR6   GET CONTROL TYPE FROM CD
 12:39 09/05/97  FILE=ZIM$DBAR.:ZIC0TSI       PA BINARY SEARCH ROUTINE                                   32   BMAP - B00
   001330    000020 3010 03           1028         CANX    X1,.CONT,DU     IS IT ASCENDING
   001331 (0)001333 6000 00           1029         TZE     *+2             YES
   001332    000001 6220 00           1030         EAX     X2,1            NO - SET N/P INDIC. TO NEXT
   001333    7 00713 7421 00          1031         STX     X2,NXPRI,,PR7   SAVE
   001334                             1032  CKNP   NULL
                                      1033  *  CHECK NEXT/PRIOR INDICATOR TO SET LIMITS TO DETERMINE NEXT
                                      1034  *  ENTRY TO COMPARE
   001334    7 00716 2211 00          1035         LDX     X1,CENTRY,,PR7  CURRENT ENTRY NO.
   001335    7 00713 2341 00          1036         SZN     NXPRI,,PR7      GET NEXT/PRIOR INDICATOR
   001336 (0)001341 6050 00           1037         TPL     ISNX            IS SET TO NEXT
                                      1038  *  N/P INDICATOR IS SET TO PRIOR. SET UPPER LIMIT = CURRENT
                                      1039  *  ENTRY NO.
   001337    7 00715 7411 00          1040         STX     X1,ULIM,,PR7    SAVE CURR ENTRY NO. AS UPPER LIMIT
   001340 (0)001235 7100 00           1041         TRA     BSL1            GO DETERMINE NEXT ENTRY TO COMPARE
                                      1042  *  N/P INDICATOR IS SET TO NEXT. SET LOWER LIMIT = CURRENT
                                      1043  *  ENTRY NO.
   001341                             1044  ISNX   NULL
   001341    7 00715 4411 00          1045         SXL     X1,LOLIM,,PR7   SAVE CURR ENTRY NO. AS LOWER LIMIT
   001342 (0)001235 7100 00           1046         TRA     BSL1            GO DETERMINE NEXT ENTRY TO COMPARE
   001343                             1047  KYSEQ  NULL
   001343 (0)001275 7100 00           1048         TRA     BSL2            GO GET ANOTHER FIELD TO COMPARE
   001344                             1049  BSDUN  NULL                    ENTRY FOUND WITH EXACT MATCH
   001344    7 00525 4735 00          1050         LDP     PR3,KCARG4,,PR7  RESTORE PR3 = ADDR OF PA RECORD
   001345    7 00716 2361 00          1051         LDQ     CENTRY,,PR7     GET ENTRY NO. IN QU
   001346    000022 7720 00           1052         QRL     18              INTO QL
   001347    7 00470 2211 54          1053         ICRET                   RETURN
   001350    000001 7100 11
                                      1054  *
                                      1055  *  EXCEPTIONS
                                      1056  *
   001351                             1057  NEFND  NULL                    NO ENTRY FOUND
   001351    000000 6200 00           1058         EAX     X0,0            NULL AC
   001352    000000 6260 00           1059         EAX     X6,0            NULL RC
   001353    7 00516 2241 00          1060         LDX     X4,PRSS,,PR7
   001354    6 00003 2271 14          1061         LDX     X7,RCRSH,X4,PR6  GET RC PTR
   001355  X 000000 7020 00           1062         ICEXC
                                      1063  *
 12:39 09/05/97  FILE=ZIM$DBAR.:ZIC0TSI       PA BINARY SEARCH ROUTINE                                   33   BMAP - B00
                                      1064  *  ERRORS DETECTED IN THIS PRIMITIVE
                                      1065  *
                                      1066  *
                                      1067  *
                                      1068  *
                                      1069  *  ERRORS DETECTED IN SUBORDINATE PRIMITIVES
                                      1070  *
   001356                             1071  CKER1  NULL                    ERROR COMPARING PA KEYS
                                      1072  *  COMMON ERROR RETURN
   001356                             1073  BSCER  NULL
   001356  X 000000 7020 00           1074         ICALT

 12:39 09/05/97  FILE=ZIM$DBAR.:ZIC0TSI       VERIFY POINTER ARRAY OFFSETS IN A PA RECORD                34   BMAP - B00
                                      1075         TTLS    VERIFY POINTER ARRAY OFFSETS IN A PA RECORD
                                      1076  *
                                      1077  *  GIVEN THE DATABASE KEY OF A POINTER ARRAY MEMBER RECORD AND
                                      1078  *  THE CORRESPONDING POINTER ARRAY ENTRY AND POINTER OFFSETS,
                                      1079  *  THIS ROUTINE WILL CHECK THE OWNER POINTER ARRAY RECORD TO
                                      1080  *  VERIFY THAT THE OFFSETS ARE CORRECT. IF THEY ARE INCORRECT,
                                      1081  *  THE POINTER ARRAY RECORD WILL BE SEARCHED SEQUENTIALLY TO
                                      1082  *  DETERMINE THE PROPER OFFSETS FOR THE MEMBER RECORD.
                                      1083  *
                                      1084  *  INPUT ARGUMENTS:
                                      1085  *      RVI - DBK OF DATA RECORD
                                      1086  *            DBK OF OWNER PA RECORD
                                      1087  *            PA ENTRY OFFSET
                                      1088  *            PA POINTER OFFSET
                                      1089  *
                                      1090  *      RVPA- DBK OF PA RECORD
                                      1091  *            ADDRESS OF BUFFER CONTAINING PA RECORD
                                      1092  *            ADDRESS OF PA RECORD
                                      1093  *            RECORD TYPE
                                      1094  *            RECORD SIZE
                                      1095  *            BURID
                                      1096  *            RC PTR
                                      1097  *            AC PTR
                                      1098  *
                                      1099  *      PRSC - SC PTR FOR PA SET
                                      1100  *
                                      1101  *  OUTPUT ARGUMENTS:
                                      1102  *      RVI - DBK OF DATA RECORD
                                      1103  *            DBK OF OWNER PA RECORD
                                      1104  *            PA ENTRY OFFSET   - UPDATED IF INCORRECT
                                      1105  *            PA POINTER OFFSET - UPDATED IF INCORRECT
                                      1106  *
                                      1107  *      ENTNO - ENTRY NO. OF CURRENT
                                      1108  *
                                      1109  *      PTRNO - POINTER NO. OF CURRENT
                                      1110  *
                                      1111  *  EXCEPTION RETURN: NONE
 12:39 09/05/97  FILE=ZIM$DBAR.:ZIC0TSI       VERIFY POINTER ARRAY OFFSETS IN A PA RECORD                35   BMAP - B00
                                      1112  *
   001357                             1113  ZIG$DBAVO NULL
   001357  X 000000 7000 00           1114         DBSAV
   001360    000004 000000
   001361    7 00513 2201 00          1115         LDX     X0,RVPA,,PR7    PA REC VAR
   001362    7 00002 4735 10          1116         LDP     PR3,RADDR,X0,PR7  ADDRESS OF PA RECORD
   001363    000000 6210 00           1117         EAX     X1,0
   001364    7 00710 4411 00          1118         SXL     X1,PTRNO,,PR7   INIT CURRENT PTR NO.
   001365    7 00510 2211 00          1119         LDX     X1,RVI,,PR7
   001366    7 00004 7221 11          1120         LXL     X2,RSPTR,X1,PR7    GET RS FOR THE REC IN RVI
   001367    6 00000 2221 12          1121         LDX     X2,DEF,X2,PR6
   001370    010000 3020 03           1122         CANX    X2,.SO,DU          CHK IF THIS REC IS SET OWNER
   001371 (0)001374 6000 00           1123         TZE     *+3                NO - REC IN RVI IS A MEMBER
   001372    7 00014 4501 11          1124         STZ     CBRCE,X1,PR7       ZERO ENT OFST AND PTR OFST
   001373 (0)001613 7100 00           1125         TRA     VORET              NORMAL RETURN WITH NOTHING
                                      1126  *  FIND OUT THE NO. OF ENTRIES THAT ARE IN THE PA RECORD
   001374    000 1 100 1005 00        1127         MLR     (1),(1),,1         * MOVE
   001375    3 00001 0 0 0 0002       1128         ADSC9   PACW,0,2,PR3         *  NO. OF ENTRIES IN PA REC
   001376    7 00714 0 0 0 0002       1129         ADSC9   PARCW,0,2,PR7        *   TO WORKSPACE
   001377    7 00714 2221 00          1130         LDX     X2,PARCW,,PR7   GET NO OF ENTRIES
   001400    017777 3620 03           1131         ANX     X2,.NOENT,DU    ISOLATE
   001401    000001 0220 03           1132         ADLX    X2,1,DU         ADD 1
   001402    7 00715 7421 00          1133         STX     X2,ULIM,,PR7    SAVE AS UPPER LIMIT
                                      1134  *  CONVERT PA ENTRY OFFSET OF MEMBER RECORD TO ENTRY NUMBER
   001403    7 00006 2271 10          1135         LDX     X7,RCPTR,X0,PR7  GET RC PTR OF PA REC
   001404    6 77776 2351 17          1136         LDA     CSPES,X7,PR6    GET SIZE OF ENTRY IN PA REC
   001405    777777 3750 07           1137         ANA     -1,DL           ISOLATE
   001406    7 00717 7551 00          1138         STA     ENTSZ,,PR7      SAVE
   001407    7 00014 2221 11          1139         LDX     X2,CBRCE,X1,PR7  GET ENTRY OFFSET OF PA MEMBER
   001410    6 77776 1221 17          1140         SBLX    X2,CSPSB,X7,PR6  SUBTRACT STARTING BYTE OF ENTRIES
   001411    000000 6360 12           1141         EAQ     ,X2
   001412    000022 7720 00           1142         QRL     18              PUT INTO QL FOR MULTIPLY
   001413    7 00717 5061 00          1143         DIV     ENTSZ,,PR7      DIVIDE BY ENTRY SIZE
   001414    000000 7350 00           1144         ALS     0               ANY REMAINDER
   001415 (0)001506 6010 00           1145         TNZ     SRCH            YES-INCORRECT-GO SEARCH PA RECORD
   001416    000001 6220 06           1146         EAX     X2,1,QL         X2 HAS ENTRY NO.
                                      1147  *  NOW CHECK IF PA ENTRY NUMBER IS CORRECT
 12:39 09/05/97  FILE=ZIM$DBAR.:ZIC0TSI       VERIFY POINTER ARRAY OFFSETS IN A PA RECORD                36   BMAP - B00
   001417 (0)001506 6044 00           1148         TMOZ    SRCH            ENTRY NO INCORRECT
   001420    7 00715 1021 00          1149         CMPX    X2,ULIM,,PR7    IS IT LESS THAN NO OF ENTRIES IN PA
   001421 (0)001506 6030 00           1150         TRC     SRCH            NO-MUST BE INCORRECT
   001422    7 00710 7421 00          1151         STX     X2,ENTNO,,PR7   SAVE ENTRY NO. OF CURR
   001423    7 00014 2361 11          1152         LDQ     CBRCE,X1,PR7    GET ENTRY OFFSET IN QU
   001424    777777 3760 03           1153         ANQ     -1,DU           ISOLATE
   001425    000000 6220 02           1154         EAX     X2,,QU
   001426                             1155  MVPTR  NULL
                                      1156  *  QU HAS ENTRY OFFSET
                                      1157  *  QL HAS PTR OFFSET
                                      1158  *  X2 HAS OFFSET OF REC TYPE FIELD AND PTR TO MOVE
   001426    7 00513 2231 00          1159         LDX     X3,RVPA,,PR7
   001427    7 00002 4735 13          1160         LDP     PR3,RADDR,X3,PR7  RESET PR3 = ADDRESS OF PA RECORD
   001430    3 00000 5005 12          1161         A9BD    ,X2,PR3         SET PR3 = ADDRESS OF ENTRY
   001431    000 1 100 1005 00        1162         MLR     (1),(1),,1         * MOVE
   001432    3 00000 0 0 0 0002       1163         ADSC9   0,0,2,PR3            *  TYPE FIELD AND INDIC. FROM PA ENTRY
   001433    7 00711 4 0 0 0002       1164         ADSC9   ENTTYP,2,2,PR7       *   TO WORKSPACE
   001434    6 00002 7251 17          1165         LXL     X5,RCRSN,X7,PR6  GET RS PTR FOR PA REC
   001435    000 1 100 1015 20        1166         MRL     (1,,1),(1),,1      * MOVE
   001436    6 00007 0001 15          1167         ARG     CSMPP,X5,PR6       *  POINTER FROM PA ENTRY TO WORKSPACE
   001437    7 00712 0 0 0 0004       1168         ADSC9   ENTPTR,0,4,PR7       *
   001440    7 00711 7261 00          1169         LXL     X6,ENTTYP,,PR7  GET INDICATOR FROM PA ENTRY
   001441 (0)001455 6040 00           1170         TMI     PTRGRP          POINTER IS BYTE OFFSET TO PTR GROUP
                                      1171  *  NO POINTER GROUP PRESENT - ONLY NEED TO ADJUST PTR IF SET IS LOCAL
   001442    7 00520 2261 00          1172         LDX     X6,PRSC,,PR7    GET SC PTR
   001443    7 00712 2351 00          1173         LDA     ENTPTR,,PR7     GET PTR TO MEMBER RECORD
   001444    6 00000 7201 16          1174         LXL     X0,DEF,X6,PR6   GET DEF. FROM SC
   001445    001000 3000 03           1175         CANX    X0,.LG,DU       IS IT A GLOBAL SET
   001446 (0)001451 6010 00           1176         TNZ     CKPTR           YES
   001447    7 00005 2201 11          1177         LDX     X0,ACPTR,X1,PR7  NO-GET AC AND
   001450    6 00002 0351 10          1178         ADLA    ABAS,X0,PR6     MAKE PTR A GLOBAL DBK
   001451                             1179  CKPTR  NULL
                                      1180  *  CHECK IF MEMBER PTR IS CORRECT
   001451    7 00000 1151 11          1181         CMPA    DBKEY,X1,PR7    IS THE MEMBER PTR CORRECT
   001452 (0)001506 6010 00           1182         TNZ     SRCH            NO- GO SEARCH PA RECORD
   001453    7 00014 7561 11          1183         STQ     CBRCE,X1,PR7    YES
   001454 (0)001613 7100 00           1184         TRA     VORET           RETURN
 12:39 09/05/97  FILE=ZIM$DBAR.:ZIC0TSI       VERIFY POINTER ARRAY OFFSETS IN A PA RECORD                37   BMAP - B00
   001455                             1185  PTRGRP NULL
                                      1186  *  A POINTER GROUP IS PRESENT - CONVERT PTR OFFSET TO PTR NO. AND
                                      1187  *    DETERMINE IF CORRECT.
   001455    7 00712 2351 00          1188         LDA     ENTPTR,,PR7     GET OFFSET TO PTR GROUP
   001456    7 00002 4735 13          1189         LDP     PR3,RADDR,X3,PR7  RESET PR3 = ADDRESS OF PA
   001457    000 1 100 1005 05        1190         MLR     (1,,,AL),(1),,1    * MOVE
   001460    3 00000 0 0 0 0002       1191         ADSC9   0,0,2,PR3            *  NO. OF PTRS IN PTR GROUP
   001461    7 00711 0 0 0 0002       1192         ADSC9   NOPTRS,0,2,PR7       *   TO WORKSPACE
                                      1193  *  CONVERT PTR OFFSET OF MEMBER RECORD TO PTR NUMBER
                                      1194  *                              DETERMINE SIZE OF PTR GROUP
   001462    6 00007 2351 15          1195         LDA     CSMPP,X5,PR6    GET PTR SIZE FROM EIS DESCRIPTOR
   001463    007777 3750 07           1196         ANA     =O7777,DL       ISOLATE
   001464    000002 0350 07           1197         ADLA    2,DL            ADD 2 FOR RECORD TYPE FIELD
   001465    7 00720 7551 00          1198         STA     PTESZ,,PR7      SAVE FOR DIVIDE
   001466    7 00014 2361 11          1199         LDQ     CBRCP,X1,PR7    GET PTR OFFSET OF MEMBER RECORD
   001467    777777 3760 07           1200         ANQ     -1,DL           ISOLATE
   001470    7 00712 1361 00          1201         SBLQ    ENTPTR,,PR7     SUBTRACT OFFSET OF PTR GROUP
   001471    000002 1360 07           1202         SBLQ    2,DL            SUBTRACT 2 FOR NO OF PTRS FIELD
   001472    7 00720 5061 00          1203         DIV     PTESZ,,PR7      DIVIDE BY SIZE OF A PTR GROUP ENTRY
   001473    000000 7350 00           1204         ALS     0               ANY REMAINDER
   001474 (0)001506 6010 00           1205         TNZ     SRCH            YES - OFFSETS NOT CORRECT
   001475    000001 6220 06           1206         EAX     X2,1,QL         X2 HAS PTR NO
   001476 (0)001506 6044 00           1207         TMOZ    SRCH            PTR NO INCORRECT
   001477    7 00711 1021 00          1208         CMPX    X2,NOPTRS,,PR7  IS IT LESS THAN NO.OF PTRS IN PTR GROUP
   001500 (0)001502 6000 00           1209         TZE     *+2             YES
   001501 (0)001506 6030 00           1210         TRC     SRCH            NO - GO SEARCH PA RECORD
   001502    7 00710 4421 00          1211         SXL     X2,PTRNO,,PR7   SAVE PTR NO. OF CURR
   001503    7 00014 2361 11          1212         LDQ     CBRCE,X1,PR7    GET ENTRY OFFSET & PTR OFFSET
   001504    000000 6220 06           1213         EAX     X2,,QL          X2 HAS PTR OFFSET
   001505 (0)001426 7100 00           1214         TRA     MVPTR           GO CHECK MEMBER PTR AT OFST IN PTR GROUP

 12:39 09/05/97  FILE=ZIM$DBAR.:ZIC0TSI       SEARCH PA RECORD TO FIND OFFSETS OF MEMBER RECORD          38   BMAP - B00
                                      1215         TTLS    SEARCH PA RECORD TO FIND OFFSETS OF MEMBER RECORD
                                      1216  *
                                      1217  *  PA OFFSETS OF MEMBER RECORD IN RVI ARE INCORRECT - NEED TO
                                      1218  *  SEQUENTIALLY SEARCH THE PA RECORD TO FIND THE CORRECT OFFSETS.
                                      1219  *
   001506                             1220  SRCH   NULL
   001506    000000 6210 00           1221       EAX   X1,0
   001507    7 00710 4411 00          1222       SXL   X1,PTRNO,,PR7      INIT PTRNO AGAIN
   001510    000001 6210 00           1223         EAX     X1,1            INIT ENTRY NO TO 1
   001511    7 00513 2231 00          1224         LDX     X3,RVPA,,PR7
   001512    7 00004 7251 13          1225         LXL     X5,RSPTR,X3,PR7  SET X5 = RS PTR FOR PA REC
   001513    6 77776 2351 17          1226         LDA     CSPSB,X7,PR6    INIT ENTRY OFFSET = STARTING BYTE
   001514    000022 7710 00           1227         ARL     18              INTO AL
                                      1228  *  CALCULATE SIZE OF A PTR ENTRY IN A PTR GROUP
   001515    6 00007 7221 15          1229         LXL     X2,CSMPP,X5,PR6  GET PTR SIZE FROM EIS DESCRIP IN RS
   001516    007777 3620 03           1230         ANX     X2,=O7777,DU    ISOLATE
   001517    000002 0220 03           1231         ADLX    X2,2,DU         ADD 2 FOR TYPE FIELD
   001520    7 00720 7421 00          1232         STX     X2,PTESZ,,PR7   SAVE
   001521    7 00510 2221 00          1233         LDX     X2,RVI,,PR7
   001522    7 00000 2361 12          1234         LDQ     DBKEY,X2,PR7    GET DBK OF MEMBER RECORD
   001523    7 00520 2261 00          1235         LDX     X6,PRSC,,PR7    GET SC PTR FOR PA SET
   001524    6 00000 7201 16          1236         LXL     X0,DEF,X6,PR6   GET DEF BITS
   001525    001000 3000 03           1237         CANX    X0,.LG,DU       IS IT A GLOBAL SET
   001526 (0)001531 6010 00           1238         TNZ     FOLP1           YES
                                      1239  *  LOCAL SET SO CONVERT GLOBAL DBK OF MEMBER RECORD TO LOCAL
                                      1240  *  PTR FOR FASTER COMPARES
   001527    7 00005 2201 12          1241         LDX     X0,ACPTR,X2,PR7  GET AC PTR
   001530    6 00002 1361 10          1242         SBLQ    ABAS,X0,PR6     ADJUST DBK OF MEMBER REC
   001531                             1243  FOLP1  NULL
   001531    7 00715 1011 00          1244         CMPX    X1,ULIM,,PR7    IS ENTRY NO. .LT. NO OF ENTRIES IN PA
   001532 (0)001614 6030 00           1245         TRC     ONF             NO - ERROR - OFFSETS NOT FOUND
   001533    7 00002 4735 13          1246         LDP     PR3,RADDR,X3,PR7  RESET PR3 = ADDRESS OF REC
   001534    3 00000 5005 05          1247         A9BD    ,AL,PR3         SET PR3 = ADDRESS OF ENTRY
   001535    000 1 100 1005 00        1248         MLR     (1),(1),,1         * MOVE
   001536    3 00000 0 0 0 0002       1249         ADSC9   0,0,2,PR3            *  TYPE FIELD AND INDIC FROM PA ENTRY
   001537    7 00711 4 0 0 0002       1250         ADSC9   ENTTYP,2,2,PR7       *   TO WORKSPACE
   001540    000 1 100 1015 20        1251         MRL     (1,,1),(1),,1      * MOVE
 12:39 09/05/97  FILE=ZIM$DBAR.:ZIC0TSI       SEARCH PA RECORD TO FIND OFFSETS OF MEMBER RECORD          39   BMAP - B00
   001541    6 00007 0001 15          1252         ARG     CSMPP,X5,PR6       *  POINTER FROM PA ENTRY
   001542    7 00712 0 0 0 0004       1253         ADSC9   ENTPTR,0,4,PR7       *   TO WORKSPACE
   001543    7 00711 7201 00          1254         LXL     X0,ENTTYP,,PR7  GET INDICATOR FROM PA ENTRY
   001544 (0)001557 6040 00           1255         TMI     SRCPG           PTR GROUP PRESENT - GO SEARCH IT
   001545    7 00712 1161 00          1256         CMPQ    ENTPTR,,PR7     IS THIS THE CORRECT ENTRY
   001546 (0)001554 6010 00           1257         TNZ     GONE            NO- GET OFST OF NEXT ENTRY
   001547    000022 7350 00           1258         ALS     18              YES - GET ENTRY OFST INTO POSITION
   001550    7 00510 2221 00          1259         LDX     X2,RVI,,PR7
   001551    7 00014 7551 12          1260         STA     CBRCE,X2,PR7    SAVE ENTRY OFFSET(PTR OFST = 0)
   001552    7 00710 7411 00          1261         STX     X1,ENTNO,,PR7   SAVE ENTRY NO. OF CURR
   001553 (0)001613 7100 00           1262         TRA     VORET           RETURN
   001554                             1263  GONE   NULL
   001554    7 00717 0351 00          1264         ADLA    ENTSZ,,PR7      SET AR = OFST OF NEXT ENTRY
   001555    000001 6210 11           1265         EAX     X1,1,X1         UPDATE X1 = NEXT ENTRY NUMBER
   001556 (0)001531 7100 00           1266         TRA     FOLP1           GO CHECK NEXT ENTRY
   001557                             1267  SRCPG  NULL
                                      1268  *  POINTER GROUP PRESENT FOR CURRENT ENTRY -CHECK EACH PTR
                                      1269  *  TO SEE IF MATCHES PTR OF MEMBER RECORD
   001557    7 00712 7201 00          1270         LXL     X0,ENTPTR,,PR7  GET OFFSET TO PTR GROUP
   001560    7 00002 4735 13          1271         LDP     PR3,RADDR,X3,PR7  RESET PR3 = ADDRESS OF PA REC
   001561    3 00000 5005 10          1272         A9BD    ,X0,PR3         SET PR3 - ADDRESS OF PTR GROUP
   001562    000 1 100 1005 00        1273         MLR     (1),(1),,1         * MOVE
   001563    3 00000 0 0 0 0002       1274         ADSC9   0,0,2,PR3            *  NO. OF PTRS IN PTR GROUP
   001564    7 00711 0 0 0 0002       1275         ADSC9   NOPTRS,0,2,PR7       *   TO WORKSPACE
   001565    000000 6220 00           1276         EAX     X2,0            INIT PTR NO
   001566    000002 6200 10           1277         EAX     X0,2,X0         INIT X0 = OFST OF 1ST PTR IN GROUP
   001567                             1278  FOLP2  NULL
   001567    7 00711 1021 00          1279         CMPX    X2,NOPTRS,,PR7
   001570 (0)001554 6030 00           1280         TRC     GONE            DONE WITH PTR GROUP
   001571    7 00002 4735 13          1281         LDP     PR3,RADDR,X3,PR7  RESET PR3 = ADDR OF PA REC
   001572    3 00000 5005 10          1282         A9BD    ,X0,PR3         NO-SET PR3=ADDR OF CURR PTR IN PTR GRP
   001573    000 1 100 1015 20        1283         MRL     (1,,1),(1),,1      * MOVE
   001574    6 00007 0001 15          1284         ARG     CSMPP,X5,PR6       *  POINTER FROM PA ENTRY
   001575    7 00712 0 0 0 0004       1285         ADSC9   ENTPTR,0,4,PR7       *   TO WORKSPACE
   001576    7 00712 1161 00          1286         CMPQ    ENTPTR,,PR7     IS IT THE CORRECT ENTRY
   001577 (0)001610 6010 00           1287         TNZ     GONP            NO- GET OFFSET OF NEXT PTR
   001600    000022 7350 00           1288         ALS     18              PUT ENTRY OFFSET INTO POSITION
 12:39 09/05/97  FILE=ZIM$DBAR.:ZIC0TSI       SEARCH PA RECORD TO FIND OFFSETS OF MEMBER RECORD          40   BMAP - B00
   001601    7 00510 2241 00          1289         LDX     X4,RVI,,PR7
   001602    7 00014 7551 14          1290         STA     CBRCE,X4,PR7    SAVE ENTRY OFFSET IN RVI
   001603    7 00014 4401 14          1291         SXL     X0,CBRCP,X4,PR7  SAVE PTR OFFSET IN RVI
   001604    7 00710 7411 00          1292         STX     X1,ENTNO,,PR7   SAVE ENTRY NO. OF CURR
   001605    000001 6220 12           1293         EAX     X2,1,X2
   001606    7 00710 4421 00          1294         SXL     X2,PTRNO,,PR7   SAVE PTR NO. OF CURR
   001607 (0)001613 7100 00           1295         TRA     VORET           RETURN
   001610                             1296  GONP   NULL
   001610    000001 6220 12           1297         EAX     X2,1,X2         UPDATE X2 = NEXT PTR NO.
   001611    7 00720 0201 00          1298         ADLX    X0,PTESZ,,PR7   UPDATE X0 = OFFSET OF NEXT PTR
   001612 (0)001567 7100 00           1299         TRA     FOLP2           GO CHECK NEXT PTR
   001613                             1300  VORET  NULL
                                      1301  *  NORMAL RETURN
   001613  X 000000 7020 00           1302         DBRET
                                      1303  *
                                      1304  *  ERRORS DETECTED IN THIS PRIMITIVE
                                      1305  *
   001614                             1306  ONF    NULL                    OFFSETS NOT FOUND IN PA REC
   001614    303342 2350 07           1307         LDA     PAER5,DL
   001615    000000 6200 00           1308         EAX     X0,0            NULL AC
   001616    000000 6260 00           1309         EAX     X6,0            NULL SC
   001617    7 00006 2271 13          1310         LDX     X7,RCPTR,X3,PR7  GET RC PTR
   001620 (0)001621 7100 00           1311         TRA     VOCER
                                      1312  *
                                      1313  *
                                      1314  *
                                      1315  *  ERRORS DETECTED IN SUBORDINATE PRIMITIVES
                                      1316  *
   001621                             1317  FOER1  NULL
                                      1318  *  COMMON ERROR RETURN
   001621                             1319  VOCER  NULL
   001621  X 000000 7020 00           1320         DBALT

 12:39 09/05/97  FILE=ZIM$DBAR.:ZIC0TSI       MOVE PA KEY FROM TEMP BUF TO KEY PROCESS AREA              41   BMAP - B00
                                      1321         TTLS    MOVE PA KEY FROM TEMP BUF TO KEY PROCESS AREA
                                      1322  *
                                      1323  *  THIS ROUTINE WILL MOVE ALL OF THE FIELDS OF A POINTER ARRAY
                                      1324  *  KEY FROM THE TEMP BUFFER TO THE KEY PROCESS AREA IN THE FORMAT
                                      1325  *  OF THE FIELDS IN THE POINTER ARRAY RECORD.
                                      1326  *
                                      1327  *  INPUT ARGUMENTS:
                                      1328  *      PRSS - RS FOR PA MEMBER
                                      1329  *
                                      1330  *  OUTPUT ARGUMENTS:
                                      1331  *      PA KEYS MOVED TO KEY PROCESS AREA
                                      1332  *
                                      1333  *  EXCEPTION: NONE
                                      1334  *
   001622                             1335  ZIG$DBAKP NULL
   001622  X 000000 7000 00           1336         DBSAV
   001623    000004 000000
   001624    7 00516 2241 00          1337         LDX     X4,PRSS,,PR7    GET BS PTR
   001625    6 00002 2241 14          1338         LDX     X4,SCRSN,X4,PR6  GET RS FOR PA RECORD
   001626    7 00642 7441 00          1339         STX     X4,PCD,,PR7     SAVE AS CURR CD
   001627    6 00003 2271 14          1340         LDX     X7,RCRSH,X4,PR6  GET RC PTR FOR PA RECORD
   001630    6 77776 2351 17          1341         LDA     CSPES,X7,PR6    GET SIZE OF A PA ENTRY
   001631    777777 3750 07           1342         ANA     -1,DL           ISOLATE
   001632    7 00010 4735 00          1343         LDP     PR3,KEYPA,,PR7  ADDRESS OF KEY PROCESS AREA
   001633    000 0 140 1004 00        1344         MLR     ,(1,1),0            * MOVE
   001634    000000 0 0 0 0000        1345         ADSC9   0,0,0               *  ZEROES TO
   001635    3 00000 0 0 0 0005       1346         ADSC9   0,0,AL,PR3            *   SPACE IN KEY PROCESS AREA
   001636                             1347  KPL1   NULL
   001636    7 00642 2201 00          1348         LDX     X0,PCD,,PR7     GET CURR CD
   001637    6 00001 2201 10          1349         LDX     X0,RSCDN,X0,PR6  GET NEXT CD
   001640 (0)001653 6000 00           1350         TZE     KPDUN           NO - DONE
   001641    7 00642 7401 00          1351         STX     X0,PCD,,PR7     SAVE AS CURR CD
   001642    6 00002 2241 10          1352         LDX     X4,CDSH,X0,PR6  GET FR FOR FIELD IN PA REC(OR KEY PROCESS
                                      1353  *                                AREA)
   001643    7 00521 4441 00          1354         SXL     X4,PRFR2,,PR7   PUT IN PRIM REQ.
   001644    6 00002 7241 10          1355         LXL     X4,CDRH,X0,PR6  GET FR FOR FIELD IN MEMBER RECORD
   001645    7 00521 7441 00          1356         STX     X4,PRFR,,PR7    PUT IN PRIM REQ.
 12:39 09/05/97  FILE=ZIM$DBAR.:ZIC0TSI       MOVE PA KEY FROM TEMP BUF TO KEY PROCESS AREA              42   BMAP - B00
   001646 (0)001655 7010 00           1357         DBCAL   ZIG$DBAMP,,MPER1   MOVE FIELD TO KEY PROCESS AREA
   001647 (0)001654 7020 00
   001650    5 00006 2341 00
   001651    777776 6010 04
   001652 (0)001636 7100 00           1358         TRA     KPL1            GO GET NEXT FIELD
                                      1359  *  LAST FIELD MOVED - DONE
   001653                             1360  KPDUN  NULL
   001653  X 000000 7020 00           1361         DBRET                   RETURN
                                      1362  *
                                      1363  *  ERRORS DETECTED IN THIS PRIMITIVE
                                      1364  *
                                      1365  *
                                      1366  *
                                      1367  *
                                      1368  *  ERRORS DETECTED IN SUBORDINATE PRIMITIVES
                                      1369  *
   001654                             1370  MPER1  NULL                    ERROR MOVING FIELD TO KEY PROCESS AREA
                                      1371  *
                                      1372  *  ERRORS DETECTED IN I/O ROUTINES
                                      1373  *
                                      1374  *
                                      1375  *
                                      1376  *  COMMON ERROR RETURN
   001654                             1377  KPCER  NULL
   001654  X 000000 7020 00           1378         DBALT

 12:39 09/05/97  FILE=ZIM$DBAR.:ZIC0TSI       MOVE PA FIELD FROM PAGE BUF TO KEY PROCESS AREA            43   BMAP - B00
                                      1379         TTLS    MOVE PA FIELD FROM PAGE BUF TO KEY PROCESS AREA
                                      1380  *
                                      1381  *  THIS ROUTINE WILL MOVE A POINTER ARRAY FIELD FROM THE
                                      1382  *  PAGE BUFFER TO THE KEY PROCESS AREA IN THE FORMAT OF
                                      1383  *  THE FIELD IN THE POINTER ARRAY RECORD.
                                      1384  *
                                      1385  *   INPUT ARGUMENTS:
                                      1386  *      RVT - ADDRESS OF RECORD IN BUFFER
                                      1387  *      PRFR- FR PTR FOR FIELD IN THE MEMBER RECORD
                                      1388  *      PRFR2 - FR PTR FOR FIELD IN THE POINTER ARRAY RECORD ENTRY
                                      1389  *
                                      1390  *   OUTPUT ARGUMENTS:
                                      1391  *      FIELD MOVED TO KEY PROCESS AREA
                                      1392  *
                                      1393  *   EXCEPTION: NONE
                                      1394  *
                                      1395  *
   001655                             1396  ZIG$DBAMP NULL
   001655  X 000000 7000 00           1397         DBSAV
   001656    000004 000000
   001657    7 00521 7241 00          1398         LXL     X4,PRFR2,,PR7   GET FR PTR FOR FIELD IN KEY PROCESS AREA
   001660    6 00001 2351 14          1399         LDA     ROFST,X4,PR6    GET BUFFER EIS DESCRIPTOR
   001661    7 00521 2241 00          1400         LDX     X4,PRFR,,PR7    GET FR PTR FOR FIELD IN MEMBER RECORD
   001662    6 00001 2361 14          1401         LDQ     ROFST,X4,PR6    GET BUFFER EIS DESCRIPTOR
   001663    6 00000 7211 14          1402         LXL     X1,DEF,X4,PR6   GET COMPARE CODE
   001664    160000 3610 03           1403         ANX     X1,.COMC,DU     ISOLATE
   001665    020000 1010 03           1404         CMPX    X1,=O020000,DU  IS DESCR NUMERIC
   001666 (0)001671 6010 00           1405         TNZ     *+3             NO
   001667 (1)000000 3750 00           1406         ANA     =O777777740077  YES -MAKE DESCRIPTORS ALPHA
   001670 (1)000000 3760 00           1407         ANQ     =O777777740077
   001671    7 00657 7561 00          1408         STQ     TFLD2,,PR7      SAVE DESCR IN TEMP FIELD
   001672    100000 0350 03           1409         ADLA    =O100000,DU     CHANGE FROM PR3 MOD TO PR4
   001673    7 00640 7551 00          1410         STA     TFLD,,PR7       SAVE DESCR IN TEMP FLD DESC
                                      1411  *  MOVE THE FIELD
   001674    7 00010 4745 00          1412         LDP     PR4,KEYPA,,PR7  ADDRESS OF KEY PROCESS AREA
   001675    7 00004 4735 00          1413         LDP     PR3,TBUF,,PR7   GET ADDRESS OF TEMP BUF
   001676    000 0 120 1005 20        1414         MLR     (1,,1),(1,,1)       * MOVE
 12:39 09/05/97  FILE=ZIM$DBAR.:ZIC0TSI       MOVE PA FIELD FROM PAGE BUF TO KEY PROCESS AREA            44   BMAP - B00
   001677    7 00657 0001 00          1415         ARG     TFLD2,,PR7          *  FIELD IN PAGE BUF
   001700    7 00640 0001 00          1416         ARG     TFLD,,PR7           *   TO PROCESS AREA
                                      1417  *  RETURN
   001701  X 000000 7020 00           1418         DBRET
                                      1419  *
                                      1420  *  ERRORS DETECTED IN THIS PRIMITIVE
                                      1421  *

 12:39 09/05/97  FILE=ZIM$DBAR.:ZIC0TSI       MOVE PA KEY FROM UWA TO KEY PROCESS AREA                   45   BMAP - B00
                                      1422         TTLS    MOVE PA KEY FROM UWA TO KEY PROCESS AREA
                                      1423  *
                                      1424  *  THIS ROUTINE WILL ENCODE ALL OF THE FIELDS OF A
                                      1425  *  POINTER ARRAY KEY FROM THE UWA TO THE KEY PROCESS AREA
                                      1426  *  IN THE FORMAT OF THE POINTER ARRAY RECORD.
                                      1427  *
                                      1428  *  INPUT ARGUMENTS:
                                      1429  *      PRSS - RS FOR PA MEMBER
                                      1430  *
                                      1431  *
                                      1432  *  OUTPUT ARGUMENTS:
                                      1433  *      PA KEYS ENCODED TO THE KEY PROCESS AREA
                                      1434  *
                                      1435  *  EXCEPTION : NONE
                                      1436  *
   001702                             1437  ZIG$DBAKU NULL
   001702  X 000000 7000 00           1438         DBSAV
   001703    000004 000000
   001704    7 00516 2241 00          1439         LDX     X4,PRSS,,PR7    GET RS PTR
   001705    6 00002 2241 14          1440         LDX     X4,SCRSN,X4,PR6  GET RS FOR PA RECORD
   001706    7 00642 7441 00          1441         STX     X4,PCD,,PR7     SAVE AS CURR CD
   001707    6 00003 2271 14          1442         LDX     X7,RCRSH,X4,PR6  GET RC PTR FOR PA RECORD
   001710    6 77776 2351 17          1443         LDA     CSPES,X7,PR6    GET SIZE OF A PA ENTRY
   001711    777777 3750 07           1444         ANA     -1,DL           ISOLATE
   001712    7 00010 4735 00          1445         LDP     PR3,KEYPA,,PR7  ADDRESS OF KEY PROCESS AREA
   001713    000 0 140 1004 00        1446         MLR     ,(1,1),0           * MOVE
   001714    000000 0 0 0 0000        1447         ADSC9   0,0,0              *  ZEROES TO
   001715    3 00000 0 0 0 0005       1448         ADSC9   0,0,AL,PR3           *   SPACE IN KEY PROCESS AREA
   001716                             1449  KUL1   NULL
   001716    7 00642 2201 00          1450         LDX     X0,PCD,,PR7     GET CURR CD
   001717    6 00001 2201 10          1451         LDX     X0,RSCDN,X0,PR6  GET NEXT CD
   001720 (0)001731 6000 00           1452         TZE     KUDUN           NO - DONE
   001721    7 00642 7401 00          1453         STX     X0,PCD,,PR7     SAVE AS CURR CD
   001722    6 00002 2241 10          1454         LDX     X4,CDSH,X0,PR6  GET FR PTR
   001723    7 00521 4441 00          1455         SXL     X4,PRFR2,,PR7   PUT IN PRIM REQ.
   001724 (0)001733 7010 00           1456         DBCAL   ZIG$DBAMU,,MUER1   MOVE FIELD FROM UWA TO KEY PROCESS AREA
   001725 (0)001732 7020 00
 12:39 09/05/97  FILE=ZIM$DBAR.:ZIC0TSI       MOVE PA KEY FROM UWA TO KEY PROCESS AREA                   46   BMAP - B00
   001726    5 00006 2341 00
   001727    777776 6010 04
   001730 (0)001716 7100 00           1457         TRA     KUL1            GO GET NEXT FIELD
                                      1458  *  LAST FIELD MOVED - DONE
   001731                             1459  KUDUN  NULL
   001731  X 000000 7020 00           1460         DBRET                   RETURN
                                      1461  *
                                      1462  *  ERRORS DETECTED IN THIS PRIMITIVE
                                      1463  *
                                      1464  *
                                      1465  *
                                      1466  *
                                      1467  *  ERRORS DETECTED IN SUBORDINATE ROUTINES
                                      1468  *
   001732                             1469  MUER1  NULL                    ERROR MOVING FIELD FROM UWA TO KEY PROCES
                                      1470  *
                                      1471  *  ERRORS DETECTED IN I/O ROUTINES
                                      1472  *
                                      1473  *
                                      1474  *
                                      1475  *  COMMON ERROR RETURN
   001732                             1476  KUCER  NULL
   001732  X 000000 7020 00           1477         DBALT

 12:39 09/05/97  FILE=ZIM$DBAR.:ZIC0TSI       MOVE PA FIELD FROM UWA TO KEY PROCESS AREA                 47   BMAP - B00
                                      1478         TTLS    MOVE PA FIELD FROM UWA TO KEY PROCESS AREA
                                      1479  *
                                      1480  *  THIS ROUTINE WILL ENCODE A POINTER ARRAY FIELD
                                      1481  *  FROM A PAGE BUFFER TO THE KEY PROCESS AREA IN THE
                                      1482  *  FORMAT OF THE FIELD IN THE POINTER ARRAY RECORD ENTRY.
                                      1483  *
                                      1484  *  INPUT ARGUMENTS:
                                      1485  *      PRFR2 -  FR PTR FOR FIELD TO MOVE
                                      1486  *
                                      1487  *  OUTPUT ARGUMENTS
                                      1488  *      FIELD ENCODED TO KEY PROCESS AREA
                                      1489  *
                                      1490  *  EXCEPTION : NONE
                                      1491  *
                                      1492  *
                                      1493  *
   001733                             1494  ZIG$DBAMU NULL
   001733  X 000000 7000 00           1495         DBSAV
   001734    000004 000000
   001735    7 00521 7241 00          1496         LXL     X4,PRFR2,,PR7   GET FR PTR
   001736    7 00010 4735 00          1497         LDP     PR3,KEYPA,,PR7  SET PR3 = ADDR OF KEY PROCESS AREA
   001737  X 000000 7010 00           1498         ICCAL   ZIG$DBECD,,ENCE1 CALL ENCODE PROCEDURE
   001740 (0)001744 7020 00
   001741    5 00006 2341 00
   001742    777776 6010 04
   001743  X 000000 7020 00           1499         DBRET                   RETURN
                                      1500  *
                                      1501  *  ERRORS DETECTED IN THIS PRIMITIVE
                                      1502  *
   001744                             1503  ENCE1  NULL
   001744  X 000000 7020 00           1504         DBALT
                                      1505         END
 1 000000    777777740077

  CONTROL SECTION TABLE

   0 CODE   EVEN  001745
 12:39 09/05/97  FILE=ZIM$DBAR.:ZIC0TSI       MOVE PA FIELD FROM UWA TO KEY PROCESS AREA                 48   BMAP - B00
   1 RODATA EVEN  000001 LITERALS

 12:39 09/05/97  FILE=ZIM$DBAR.:ZIC0TSI       SYMBOL TABLE                                               49   BMAP - B00
 40000000 000000200000 .AC            *18
 40000000 000000000100 .AG            *18
 40000000 000000002000 .ALTO          *18
 40000000 000000000077 .ANL           *18
 40000000 000000200000 .APDN          *18
 40000000 000000000100 .ATMP          *18
 40000000 000000400000 .AV            *18
 40000000 000000400000 .B0            *18
 40000000 000000200000 .B1            *18
 40000000 000000000200 .B10           *18
 40000000 000000000100 .B11           *18
 40000000 000000000040 .B12           *18
 40000000 000000000020 .B13           *18
 40000000 000000000010 .B14           *18
 40000000 000000000004 .B15           *18
 40000000 000000000002 .B16           *18
 40000000 000000000001 .B17           *18
 40000000 000000400000 .B18           *18
 40000000 000000200000 .B19           *18
 40000000 000000100000 .B2            *18
 40000000 000000100000 .B20           *18
 40000000 000000040000 .B21           *18
 40000000 000000020000 .B22           *18
 40000000 000000010000 .B23           *18
 40000000 000000004000 .B24           *18
 40000000 000000002000 .B25           *18
 40000000 000000001000 .B26           *18
 40000000 000000000400 .B27           *18
 40000000 000000000200 .B28           *18
 40000000 000000000100 .B29           *18
 40000000 000000040000 .B3            *18
 40000000 000000000040 .B30           *18
 40000000 000000000020 .B31           *18
 40000000 000000000010 .B32           *18
 40000000 000000000004 .B33           *18
 40000000 000000000002 .B34           *18
 40000000 000000000001 .B35           *18
 12:39 09/05/97  FILE=ZIM$DBAR.:ZIC0TSI       SYMBOL TABLE                                               50   BMAP - B00
 40000000 000000020000 .B4            *18
 40000000 000000010000 .B5            *18
 40000000 000000004000 .B6            *18
 40000000 000000002000 .B7            *18
 40000000 000000001000 .B8            *18
 40000000 000000000400 .B9            *18
 40000000 000000000001 .BREAK         *18
 40000000 000000010000 .BRK           *18
 40000000 000000020000 .BTB           *18
 40000000 000000000001 .CAC           *18
 40000000 000000000000 .CAE           *18
 40000000 000000000200 .CANSSS        *18
 40000000 000000000400 .CD            *18
 40000000 000000040000 .CFLC          *18
 40000000 000000400000 .CHKSUM        *18
 40000000 000000100000 .CJRNL         *18
 40000000 000000000077 .CNSZ          *18
 41000000 000000160000 .COMC          *18      1403
 41000000 000000000020 .CONT          *18      1018      1028
 40000000 000000000000 .CSE           *18
 40000000 000000700000 .CTYP          *18
 41000000 000000000270 .DBEST         *18
 41000000 000000000470 .DBIC          *18       941      1053
 40000000 000000077777 .DBPT          *18
 41000000 000000000370 .DBSTK         *18
 40000000 000000020000 .DELM          *18
 40000000 000000002000 .DIDP          *18
 40000000 000000000077 .DNDX          *18
 40000000 000000600000 .DORD          *18
 40000000 000000000200 .DP            *18
 40000000 000000100000 .DPS           *18
 40000000 000000200000 .DPSA          *18
 40000000 000000400000 .DPST          *18
 40000000 000000000002 .DUMP          *18
 40000000 000000002000 .DUPC          *18
 40000000 000000010000 .DUPP          *18
 40000000 000000200000 .EBCL          *18
 12:39 09/05/97  FILE=ZIM$DBAR.:ZIC0TSI       SYMBOL TABLE                                               51   BMAP - B00
 40000000 000000400000 .EBCM          *18
 40000000 000000200000 .ENCRP         *18
 40000000 000000000077 .ENDX          *18
 40000000 000000000400 .ENQ           *18
 40000000 000000004000 .ETC           *18
 40000000 000000000400 .EXIT          *18
 40000000 000000000200 .FMOD          *18
 40000000 000000000077 .FNL           *18
 40000000 000000000074 .FORG          *18
 40000000 000000002000 .FR            *18
 40000000 000000000100 .FSR           *18
 40000000 000000003400 .FUSE          *18
 40000000 000000010000 .FVF           *18
 40000000 000000040000 .FVR           *18
 40000000 000000000010 .INDEXED       *18
 40000000 000000777777 .IXID          *18
 40000000 000000001777 .IXNUM         *18
 40000000 000000000004 .KEYED         *18
 40000000 000000010000 .LCK           *18
 40000000 000000400000 .LEIL          *18
 41000000 000000001000 .LG            *18       168       273       289       403       507       576
                                      650       766       833      1175      1237
 40000000 000000000002 .LOAD          *18
 40000000 000000020000 .MAR           *18
 41000000 000000000007 .MEMT          *18       100       785
 40000000 000000010000 .MRL           *18
 40000000 000000040000 .MSM           *18
 60000000 000000000001 .N6685         *18
 40000000 000000100000 .NAI           *18
 40000000 000000200000 .NBI           *18
 40000000 000000000002 .NCIA          *18
 40000000 000000040000 .NMV           *18
 41000000 000000017777 .NOENT         *18       122       319       946      1131
 40000000 000000400000 .OA            *18
 40000000 000000740000 .OPEV          *18
 40000000 000000100000 .OSM           *18
 41000000 000000100000 .PAFIL         *18       246       268       625
 12:39 09/05/97  FILE=ZIM$DBAR.:ZIC0TSI       SYMBOL TABLE                                               52   BMAP - B00
 40000000 000000200000 .PAHVR         *18
 40000000 000000000001 .PAIA          *18
 41000000 000000040000 .PALIL         *18       265
 40000000 000000020000 .PALVR         *18
 41000000 000000400000 .PANLL         *18       848
 40000000 000000400000 .PCKD          *18
 40000000 000000001600 .PMOD          *18
 40000000 000000000520 .PRCSE         *18
 40000000 000000000007 .PSTO          *18
 40000000 000000006040 .PTAS          *18
 40000000 000000010100 .PTCHK         *18
 40000000 000000010200 .PTDEC         *18
 40000000 000000010140 .PTENC         *18
 40000000 000000020000 .RA            *18
 40000000 000000100000 .RC            *18
 40000000 000000400000 .RELEASE       *18
 40000000 000000000017 .RELT          *18
 40000000 000000004000 .RERA          *18
 40000000 000000400000 .RERS          *18
 40000000 000000010000 .RKEY          *18
 40000000 000000000077 .RNL           *18
 40000000 000000200000 .RSTO          *18
 40000000 000000007777 .RTYP          *18
 40000000 000000040000 .SC            *18
 40000000 000000000070 .SETM          *18
 40000000 000000740000 .SETO          *18
 40000000 000000000700 .SETT          *18
 40000000 000000040000 .SFNP          *18
 40000000 000000004000 .SM            *18
 40000000 000000020000 .SMOD          *18
 40000000 000000000077 .SNL           *18
 40000000 000000020000 .SNSS          *18
 41000000 000000010000 .SO            *18        66       361      1122
 41000000 000000100000 .SR            *18       368
 40000000 000000004000 .SRCR          *18
 40000000 000000001000 .SS            *18
 40000000 000000000007 .SSTP          *18
 12:39 09/05/97  FILE=ZIM$DBAR.:ZIC0TSI       SYMBOL TABLE                                               53   BMAP - B00
 40000000 000000004000 .SYN           *18
 40000000 000000000040 .SYNC          *18
 40000000 000000020000 .TJRNL         *18
 40000000 000000040000 .TMPLT         *18
 40000000 000000040000 .TRACE         *18
 40000000 000000000001 .TRENTRY       *18
 40000000 000000000012 .TRIDEL        *18
 40000000 000000000021 .TRIDELENQ     *18
 40000000 000000000024 .TRIDEQ        *18
 40000000 000000000013 .TRIMOD        *18
 40000000 000000000022 .TRIMODENQ     *18
 40000000 000000000014 .TRIREAD       *18
 40000000 000000000023 .TRIREADENQ    *18
 40000000 000000000011 .TRISTO        *18
 40000000 000000000020 .TRISTOENQ     *18
 40000000 000000000017 .TRPDEQ        *18
 40000000 000000000004 .TRPMOD        *18
 40000000 000000000016 .TRPMODENQ     *18
 40000000 000000000002 .TRPREAD       *18
 40000000 000000000015 .TRPREADENQ    *18
 40000000 000000000003 .TRPWRITE      *18
 40000000 000000000010 .TRRACC        *18
 40000000 000000000006 .TRRDEL        *18
 40000000 000000000007 .TRRMOD        *18
 40000000 000000000005 .TRRSTO        *18
 40000000 000000004000 .ULCK          *18
 40000000 000000400000 .UPDT          *18
 40000000 000000000040 .VIA           *18
 60000000 000000000001 A              *18
 41000000 000000000002 ABAS           *18       171       276       292       405       510       580
                                      653       769       836      1178      1242
 40000000 000000000001 AC             *18
 40000000 777777777760 ACDEF          *18
 40000000 000000211070 ACDNL          *18
 40000000 000000000003 ACID           *18
 40000000 000000001016 ACOPN          *18
 40000000 000000000002 ACP            *18
 12:39 09/05/97  FILE=ZIM$DBAR.:ZIC0TSI       SYMBOL TABLE                                               54   BMAP - B00
 41000000 000000000005 ACPTR          *18        87       170       275       291       301       509
                                      524       579       652       768       802       835      1177
                                     1241
 40000000 000000000002 ACRAH          *18
 40000000 000000000001 ACRAN          *18
 40000000 000000001003 ACREC          *18
 40000000 000000000001 ACTDBCB        *18
 40000000 000000000002 ACTDBNO        *18
 40000000 000000001017 ACTP           *18
 40000000 000000000000 ACTSSS         *18
 40000000 000000000000 ACTSZ          *18
 40000000 000000210565 AFNP           *18
 40000000 000000000635 AFT            *18
 01101000 000000001134 AGLBL          834      *837
 40000000 000000022124 AIR            *18
 40000000 000000000016 AMAX           *18
 40000000 000000000026 ANAM           *18
 40000000 000000021614 ANR            *18
 40000000 000000000001 APNO           *18
 40000000 000000210562 ARGER          *18
 41000000 000000000020 ARGS           *18
 40000000 000000000077 ARGS2          *18
 40000000 000000210713 ARNAF          *18
 40000000 000000000003 ATBL           *18
 40000000 000000000000 ATRIB          *18
 40000000 000000000002 AVLN           *18
 41000000 000000000013 AWS$           *18        84       298       521       799
 40000000 000000000010 AWSZ           *18
 60000000 000000000001 B              *18
 40000000 000000001006 B32N           *18
 40000000 000000001007 B36N           *18
 40000000 000000001056 B72N           *18
 41000000 000000000001 BADDR          *18        86       300       523       801
 40000000 000000210712 BADSEED        *18
 40000000 777777777765 BDCW           *18
 40000000 000000000633 BEF            *18
 40000000 000000020000 BEFW           *18
 12:39 09/05/97  FILE=ZIM$DBAR.:ZIC0TSI       SYMBOL TABLE                                               55   BMAP - B00
 40000000 000000000751 BEMT           *18
 40000000 777777777761 BID            *18
 40000000 777777777762 BIND           *18
 40000000 000000000007 BLKD           *18
 40000000 000000303331 BME02          *18
 41000000 000000001203 BMPB           *18
 40000000 000000000652 BN1            *18
 40000000 000000000654 BN2            *18
 01101000 000000000574 BNLP          *515       583       651       654
 40000000 000000000004 BPL            *18
 40000000 000000000015 BPLDBK         *18
 00101000 000000001356 BSCER        *1073
 01101000 000000001344 BSDUN         1005     *1049
 01101000 000000001017 BSER1          544      *699
 01101000 000000001235 BSL1          *956      1041      1046
 01101000 000000001275 BSL2         *1002      1048
 40000000 000000000034 BSPG           *18
 40000000 777777777763 BSTAT          *18
 40000000 000000000750 BTX0           *18
 41000000 000000001160 BUF4           *18
 41000000 000000001170 BUF6           *18
 41000000 000000000000 BUFORG         *18
 40000000 000000001060 BUFRQ          *18
 40000000 000000000006 BURRID         *18
 41000000 000000000020 BWASZ          *18
 60000000 000000000001 C              *18
 40000000 000000000050 CAAC           *18
 40000000 000000000050 CACD           *18
 40000000 000000000111 CAG            *18
 40000000 000000001033 CAL            *18
 40000000 000000000026 CALLPM0        *18
 40000000 000000000003 CANSSS         *18
 40000000 000000000003 CBCPA          *18
 40000000 000000000002 CBCPO          *18
 40000000 000000000002 CBENO          *18
 40000000 000000000014 CBFSZ          *18
 40000000 000000000753 CBIB           *18
 12:39 09/05/97  FILE=ZIM$DBAR.:ZIC0TSI       SYMBOL TABLE                                               56   BMAP - B00
 40000000 000000001030 CBID           *18
 41000000 000000000014 CBRCE          *18       113       339       390       413       636       662
                                      864      1124      1139      1152      1183      1212      1260
                                     1290
 41000000 000000000014 CBRCP          *18       114       340       663       865      1199      1291
 40000000 000000001033 CBRID          *18
 41000000 000000000015 CBRPA          *18        78       342       389       414       635       665
                                      868
 40000000 000000000031 CCHAR          *18
 01101000 000000001250 CCHK           960      *973
 40000000 000000000040 CDBK           *18
 40000000 000000000030 CDES           *18
 40000000 000000000110 CDP            *18
 40000000 000000001044 CDPSI          *18
 41000000 000000000002 CDRH           *18      1355
 40000000 000000000003 CDRN           *18
 41000000 000000000002 CDSH           *18      1007      1352      1454
 40000000 000000000003 CDSN           *18
 40000000 000000000722 CENTRN         *18
 40000000 000000000722 CENTRO         *18
 41000000 000000000716 CENTRY         *18       954       965       985      1035      1051
 41000000 000000001053 CFCT           *18
 40000000 000000000670 CFLPT1         *18
 40000000 000000000672 CFLPT2         *18
 40000000 000000000015 CFSA           *18
 40000000 000000000646 CHDBK          *18
 40000000 000000000773 CHR            *18
 40000000 000000000006 CHRD           *18
 40000000 000000000772 CHRO           *18
 40000000 000000007640 CHRTP          *18
 40000000 000000001043 CIAC           *18
 40000000 000000000012 CIAWS          *18
 40000000 000000001051 CIBSI          *18
 41000000 000000000516 CIND           *18      1012
 40000000 000000001041 CINVSZ         *18
 40000000 000000001042 CIPG           *18
 40000000 000000001050 CIPSI          *18
 12:39 09/05/97  FILE=ZIM$DBAR.:ZIC0TSI       SYMBOL TABLE                                               57   BMAP - B00
 40000000 000000000000 CIRUN          *18
 40000000 000000000002 CIRWS          *18
 40000000 000000000002 CISWS          *18
 40000000 000000000014 CIWSOF         *18
 01101000 000000001356 CKER1         1011     *1071
 01101000 000000000677 CKLVL          577      *581
 01101000 000000001334 CKNP          1022     *1032
 01101000 000000001451 CKPTR         1176     *1179
 40000000 000000303374 CKSM           *18
 40000000 000000000022 CLCN           *18
 40000000 000000000023 CLCP           *18
 40000000 000000000003 CLCRC          *18
 40000000 000000000003 CLCSC          *18
 40000000 000000000237 CLI            *18
 40000000 000000000026 CLNG           *18
 40000000 000000000052 CMPL           *18
 40000000 000000000002 CN             *18
 40000000 000000303315 CNE1           *18
 40000000 000000006034 CNUL           *18
 40000000 000000100000 COB74          *18
 40000000 000000000001 COFS           *18
 40000000 000000000045 CONCD          *18
 01101000 000000000643 COPA          *548       622       629
 40000000 000000007764 CP6PGSZB       *18
 41000000 000000001775 CP6PGSZW       *18
 40000000 000000001000 CPGR           *18
 40000000 000000000723 CPTRN          *18
 40000000 000000000723 CPTRO          *18
 60000000 000000000004 CPW            *18
 40000000 000000000112 CRA            *18
 40000000 000000001004 CRD            *18
 40000000 000000000764 CREC           *18
 40000000 000000006344 CRIT           *18
 40000000 000000006200 CRNUL          *18
 40000000 000000007330 CRST           *18
 41000000 000000001223 CRUN           *18
 41000000 000000000000 CSECT          *18
 12:39 09/05/97  FILE=ZIM$DBAR.:ZIC0TSI       SYMBOL TABLE                                               58   BMAP - B00
 41000000 000000000007 CSMPP          *18       160       179       202       225       569       601
                                      825      1167      1195      1229      1252      1284
 40000000 000000001000 CSPAC          *18
 40000000 000000000004 CSPAH          *18
 41000000 777777777776 CSPES          *18       139       322       553       992      1136      1341
                                     1443
 41000000 777777777776 CSPSB          *18       305       329       559       813       999      1140
                                     1226
 40000000 000000000115 CSTS           *18
 40000000 000000000071 CSUB           *18
 40000000 000000000017 CSZ            *18
 41000000 000000000057 CTMASK         *18       350
 40000000 000000000774 CTPAI          *18
 40000000 000000000240 CURLN          *18
 40000000 000000000236 CURLT          *18
 40000000 000000000770 CURPG          *18
 40000000 000000000001 CURR           *18
 40000000 000000000035 CURRS          *18
 40000000 000000000037 CURSS          *18
 40000000 000000001005 CWRT           *18
 40000000 000000000237 CWSOF          *18
 60000000 000000000001 D              *18
 40000000 000000000003 DBAN           *18
 40000000 000000000036 DBDR           *18
 40000000 000000000037 DBFN           *18
 40000000 000000000754 DBK            *18
 40000000 000000000777 DBKAC          *18
 41000000 000000000000 DBKEY          *18        80       244       267       294       338       341
                                      392       406       411       412       497       512       517
                                      634       661       664       771       795       867      1181
                                     1234
 40000000 000000000000 DBKL           *18
 40000000 000000007474 DBKN           *18
 41000000 000000000776 DBKR           *18
 40000000 000000000777 DBKRQ          *18
 40000000 000000000234 DBKSI          *18
 40000000 000000000651 DBKSR          *18
 12:39 09/05/97  FILE=ZIM$DBAR.:ZIC0TSI       SYMBOL TABLE                                               59   BMAP - B00
 40000000 000000000047 DBKYN          *18
 40000000 000000210652 DBLC01         *18
 40000000 000000210653 DBLC05         *18
 40000000 000000303334 DBLC07         *18
 40000000 000000210655 DBLD01         *18
 40000000 000000000010 DBLIM          *18
 40000000 000000000033 DBPKY          *18
 40000000 000000000023 DBRN           *18
 40000000 000000000013 DBSN           *18
 40000000 000000000001 DBST           *18
 40000000 000000000757 DCDSR          *18
 40000000 000000210650 DCE1           *18
 40000000 000000001053 DCPR           *18
 40000000 000000001053 DCPW           *18
 40000000 000000000015 DCTBL          *18
 40000000 000000000032 DDBK           *18
 40000000 000000000006 DDCB           *18
 40000000 000000011754 DDI            *18
 41000000 000000000000 DEF            *18        65        99       167       272       288       360
                                      367       402       506       575       649       765       784
                                      832      1017      1027      1121      1174      1236      1402
 40000000 000000000014 DEF2           *18
 40000000 000000303413 DELAK          *18
 40000000 000000000036 DELRS          *18
 40000000 000000000732 DEPCW          *18
 40000000 000000303414 DLDBK          *18
 40000000 000000210627 DLE1           *18
 40000000 000000303310 DLE2           *18
 40000000 000000210631 DLE3           *18
 40000000 000000016040 DNES           *18
 40000000 777777777777 DPAGN          *18
 01101000 000000000214 DPO            193       194      *199
 40000000 000000000020 DPPI           *18
 40000000 000000000053 DPSLW          *18
 40000000 000000000003 DS             *18
 40000000 000000001063 DSDES          *18
 40000000 000000303316 DSE1           *18
 12:39 09/05/97  FILE=ZIM$DBAR.:ZIC0TSI       SYMBOL TABLE                                               60   BMAP - B00
 40000000 000000000735 DUSEPA         *18
 60000000 000000000001 E              *18
 40000000 000000303251 EDPER          *18
 40000000 000000000026 EEIND          *18
 41000000 000000000713 EFIND          *18       547       593       620       671
 40000000 000000001030 ELO            *18
 01101000 000000001744 ENCE1         1498     *1503
 40000000 000000210711 ENCPNA         *18
 40000000 000000000007 ENCRP          *18
 40000000 000000000752 ENDSR          *18
 40000000 000000210647 ENE1           *18
 01101000 000000000731 ENFND          544      *618
 40000000 000000000716 ENIND          *18
 40000000 000000000013 ENTBL          *18
 41000000 000000000710 ENTNO          *18        72       129       136       310       321      1151
                                     1261      1292
 41000000 000000000712 ENTPTR         *18       161       164       180       182       215       570
                                      573       589       826       829       853      1168      1173
                                     1188      1201      1253      1256      1270      1285      1286
 41000000 000000000717 ENTSZ          *18       145       148       209       210       228       233
                                      324       327       555       557       604       608       994
                                      997      1138      1143      1264
 41000000 000000000711 ENTTYP         *18       155       162       343       566       571       666
                                      820       827      1164      1169      1250      1254
 01101000 000000000506 EOPAS           69      *408
 41000000 000000004064 EOSR           *18       416       875
 40000000 000000000004 ES             *18
 41000000 000000000100 ESTSZ          *18
 40000000 000000000725 ESZ            *18
 40000000 000000000005 ETCADR         *18
 40000000 000000000005 ETCDBNO        *18
 40000000 000000000064 EXCCD          *18
 40000000 000000234534 FALRT          *18
 40000000 000000001055 FBF72          *18
 40000000 000000001025 FBU61          *18
 40000000 000000001020 FBUF           *18
 40000000 000000001026 FBUF1          *18
 12:39 09/05/97  FILE=ZIM$DBAR.:ZIC0TSI       SYMBOL TABLE                                               61   BMAP - B00
 40000000 000000001027 FBUF4          *18
 40000000 000000001024 FBUF6          *18
 40000000 000000001022 FBUFM          *18
 40000000 000000001021 FBUFU          *18
 40000000 000000001023 FBUMD          *18
 40000000 000000000004 FCN            *18
 40000000 000000000051 FCNT           *18
 40000000 000000000002 FCP            *18
 40000000 000000000047 FCSS           *18
 40000000 000000000005 FD             *18
 40000000 000000210637 FDE1           *18
 40000000 000000303320 FDE2           *18
 40000000 000000303321 FDE3           *18
 40000000 000000210642 FDE4           *18
 40000000 000000210643 FDE5           *18
 40000000 000000210644 FDE6           *18
 40000000 000000303325 FDE7           *18
 40000000 000000303326 FDE8           *18
 40000000 000000000021 FEASZ          *18
 01101000 000000001022 FECER          695       700      *709
 01101000 000000001005 FEEXC          637       672      *679
 01101000 000000000770 FERET          584      *655
 40000000 000000000740 FETM           *18
 01101000 000000001215 FFCER          887       895       902      *920
 01101000 000000000541 FFER1           69      *450
 01101000 000000001153 FFRET          850      *862
 40000000 000000000006 FI             *18
 40000000 000000000103 FIAC           *18
 41000000 000000001100 FIB1           *18
 41000000 000000001130 FIBP           *18
 40000000 000000000000 FIBX           *18
 40000000 000000000102 FICNT          *18
 40000000 000000000005 FIPN           *18
 40000000 000000000054 FKIND          *18
 40000000 000000000015 FLAGS          *18
 40000000 000000000244 FLDDSC         *18
 40000000 000000000046 FLDTL          *18
 12:39 09/05/97  FILE=ZIM$DBAR.:ZIC0TSI       SYMBOL TABLE                                               62   BMAP - B00
 01101000 000000001020 FLER1          518      *704
 00101000 000000001020 FLER2         *705
 01101000 000000000542 FLER3           81       393      *456
 01101000 000000000542 FLER4          295      *457
 00101000 000000000542 FLOER5        *458
 40000000 000000000020 FMSBF          *18
 40000000 000000000006 FNAM           *18
 01101000 000000000545 FNCER          433       441       446       452       461      *463       907
 40000000 000000000250 FNIND          *18
 40000000 000000000004 FNL            *18
 01101000 000000000405 FNPRET         173      *335
 01101000 000000001621 FOER1          494     *1317
 01101000 000000001531 FOLP1         1238     *1243      1266
 01101000 000000001567 FOLP2        *1278      1299
 01101000 000000000514 FOWNR          362      *415
 01101000 000000000322 FPARC          255       266      *278
 01101000 000000000725 FPTR           594      *610
 40000000 000000000101 FRAC           *18
 40000000 000000000002 FRANGE         *18
 01101000 000000000530 FRCER1         353      *436
 40000000 000000211400 FRDNL          *18
 01101000 000000001014 FRSE1          538      *692
 01101000 000000001050 FRSLP         *781       787
 40000000 000000200000 FRTRN          *18
 40000000 000000000005 FRWSO          *18
 40000000 000000000767 FSLN           *18
 01101000 000000000060 FSMLP          *96       102
 40000000 000000000766 FSOF           *18
 40000000 000000000060 FTIND          *18
 40000000 000000303240 FTLINCR        *18
 40000000 000000000021 FWSSZ          *18
 40000000 000000000246 GACDK          *18
 01101000 000000000165 GDBK           169      *172
 40000000 000000000014 GDCB           *18
 41000000 000000000006 GERROR         *18        69        81       109       295       353       393
                                      518       538       544       796      1011      1357      1456
                                     1498
 12:39 09/05/97  FILE=ZIM$DBAR.:ZIC0TSI       SYMBOL TABLE                                               63   BMAP - B00
 01101000 000000000011 GETPA           56       *61
 01101000 000000000751 GETPROR        626      *638
 40000000 000000000016 GINHIB         *18
 41000000 000000000020 GIOAWS         *18        83       297       520       798
 40000000 000000000022 GIOBUF         *18
 40000000 000000000021 GIOPGNO        *18
 01101000 000000001112 GMP           *817       859
 01101000 000000000143 GMPTR         *152       213       240       312       332
 01101000 000000000211 GNP            191      *195
 01101000 000000000276 GNPA           135      *257
 01101000 000000000077 GNPLP           75      *111       380
 01101000 000000001062 GNXPA         *793       849
 01101000 000000000572 GNXRC          508      *511
 01101000 000000001554 GONE          1257     *1263      1280
 01101000 000000001610 GONP          1287     *1296
 40000000 000000000015 GPAGE          *18
 01101000 000000000262 GPPA           132      *242
 01101000 000000000267 GPPA2          133      *248
 40000000 000000000010 GRETAC         *18
 40000000 000000000011 GRETFR         *18
 40000000 000000000013 GRETRC         *18
 40000000 000000000012 GRETSC         *18
 40000000 000000000025 GRLCW          *18
 40000000 000000000014 GSTCD          *18
 40000000 000000000007 GSYSERR        *18
 40000000 000000000010 GT             *18
 01101000 000000000115 GTENT         *128       198
 01101000 000000000432 GTPTR          352      *354
 01101000 000000000337 GTREC          290      *293
 40000000 000000000046 GTRNAME        *18
 40000000 000000000055 GTRPDCB        *18
 40000000 000000000056 GTRPNO         *18
 40000000 000000000057 GTRRDBK        *18
 40000000 000000000060 GTRRTYPE       *18
 40000000 000000000060 GTRTYPE        *18
 40000000 000000000027 HASH           *18
 40000000 000000000022 HIA            *18
 12:39 09/05/97  FILE=ZIM$DBAR.:ZIC0TSI       SYMBOL TABLE                                               64   BMAP - B00
 40000000 000000000775 HIDB           *18
 40000000 000000000003 HIGHDBK        *18
 40000000 000000000004 HIGHPG         *18
 40000000 000000001037 HIL            *18
 40000000 000000000002 HILN           *18
 41000000 000000000006 HPOS           *18       282       398
 01101000 000000000352 HVREC          286      *302
 40000000 000000000756 IAAC           *18
 40000000 000000001011 IACLN          *18
 40000000 000000001010 IALC           *18
 40000000 000000010314 IAN            *18
 40000000 000000001012 IANLN          *18
 01101000 000000001144 IAPG           828      *851
 40000000 000000000001 IASID          *17
 40000000 000000020320 ICA            *18
 40000000 000000000023 ICKSMP         *18
 40000000 000000000024 ICKSMV         *18
 40000000 000000210742 ICNR           *18
 41000000 000000000020 ICSIZ          *18
 40000000 000000010004 IDBK           *18
 40000000 000000012120 IDI            *18
 40000000 000000000023 IDS            *18
 40000000 000000000011 IF             *18
 40000000 000000000021 IFIPN          *18
 40000000 000000000000 IFR            *18
 40000000 000000234546 IKSEQ          *18
 40000000 000000000113 INAFLAG        *18
 40000000 000000000016 INCHA          *18
 40000000 000000210566 INNM           *18
 40000000 000000210567 INSS           *18
 40000000 000000210575 INSST          *18
 40000000 000000303241 INTER          *18
 40000000 000000400000 INTII          *18
 40000000 000000000013 INTVL          *18
 40000000 000000001060 INVFLG         *18
 40000000 000000001043 INVOF          *18
 40000000 000000000014 INVT           *18
 12:39 09/05/97  FILE=ZIM$DBAR.:ZIC0TSI       SYMBOL TABLE                                               65   BMAP - B00
 40000000 000000000034 IOBLK          *18
 40000000 000000303354 IOCLSD         *18
 40000000 000000303355 IOCLSK         *18
 40000000 000000303257 IOE1           *18
 40000000 000000303264 IOE11          *18
 40000000 000000303265 IOE12          *18
 40000000 000000303266 IOE18          *18
 40000000 000000303260 IOE2           *18
 40000000 000000303261 IOE3           *18
 40000000 000000303262 IOE7           *18
 40000000 000000303263 IOE8           *18
 40000000 000000303363 IOFLSH         *18
 40000000 000000210676 IOGDCB         *18
 40000000 000000001002 IOINC          *18
 40000000 000000305160 IOINI          *18
 40000000 000000305155 IONOTIDS       *18
 40000000 000000305154 IONOTKEY       *18
 40000000 000000210677 IOOPND         *18
 40000000 000000210700 IOOPNK         *18
 40000000 000000303361 IORDD          *18
 40000000 000000305156 IOSCHEMA       *18
 40000000 000000001052 IOSTS          *18
 40000000 000000303362 IOWRTD         *18
 41000000 000000000750 IOWS           *18
 40000000 000000000647 IPC            *18
 40000000 000000000650 IPCF           *18
 40000000 000000000006 IROLLFLAG      *18
 40000000 000000010150 IRSN           *18
 01101000 000000001341 ISNX          1037     *1044
 40000000 000000000004 ISYSDCB        *18
 40000000 000000000005 ISYSERR        *18
 40000000 000000000061 ITPTR          *18
 40000000 000000000060 ITRS           *18
 40000000 000000021760 IUM            *18
 40000000 000000000017 IUSZ           *18
 40000000 000000234522 IVDBK          *18
 40000000 000000000011 IXBUF$         *18
 12:39 09/05/97  FILE=ZIM$DBAR.:ZIC0TSI       SYMBOL TABLE                                               66   BMAP - B00
 40000000 000000000046 IXFBSZ         *18
 40000000 777777777776 IXID           *18
 40000000 777777777777 IXPLL          *18
 40000000 000000000523 KCARG0         *18
 40000000 000000000524 KCARG3         *18
 41000000 000000000525 KCARG4         *18       955       964       998      1050
 40000000 000000000700 KCREG          *18
 40000000 000000000006 KDCB           *18
 40000000 000000000666 KEYDS          *18
 41000000 000000000010 KEYPA          *18      1010      1343      1412      1445      1497
 40000000 777777777776 KLNG           *18
 40000000 000000000022 KPASZ          *18
 00101000 000000001654 KPCER        *1377
 01101000 000000001653 KPDUN         1350     *1360
 01101000 000000001636 KPL1         *1347      1358
 01101000 000000001325 KPLPA         1013     *1024
 00101000 000000001732 KUCER        *1476
 01101000 000000001731 KUDUN         1452     *1459
 01101000 000000001716 KUL1         *1449      1457
 40000000 000000000006 KWSZ           *18
 01101000 000000001343 KYSEQ         1011     *1047
 40000000 000000000052 LANGC          *18
 40000000 000000001014 LAS            *18
 40000000 000000700000 LCODM          *18
 40000000 000000001045 LDPSI          *18
 40000000 000000001071 LINPT          *18
 40000000 000000001017 LNCNT          *18
 40000000 000000000762 LNNO           *18
 40000000 000000001036 LOL            *18
 41000000 000000000715 LOLIM          *18       950       957       975      1045
 40000000 000000000023 LPASZ          *18
 40000000 000000000012 LPP            *18
 40000000 000000257764 LR             *18
 40000000 000000301270 LRA            *18
 40000000 000000000017 LRSZ           *18
 40000000 000000001035 LSPC           *18
 40000000 000000000750 LUPD           *18
 12:39 09/05/97  FILE=ZIM$DBAR.:ZIC0TSI       SYMBOL TABLE                                               67   BMAP - B00
 61000000 000000000001 M9             *18
 40000000 000000000013 MD             *18
 40000000 000000300000 MDQS           *18
 01101000 000000000032 MEMPA           67       *76
 01101000 000000000521 MEMPN          165      *425
 40000000 000000000730 MEMPTR         *18
 40000000 000000000727 MEMTYP         *18
 01101000 000000000657 MMTPI         *562       614
 40000000 000000000045 MODCD          *18
 41000000 000000001207 MODFL          *18
 40000000 000000000042 MODFR          *18
 40000000 000000000044 MODIN          *18
 40000000 000000000044 MODRS          *18
 40000000 000000000043 MODSC          *18
 01101000 000000001654 MPER1         1357     *1370
 01101000 000000001173 MPNE1          830      *888
 40000000 000000000047 MRBKI          *18
 40000000 000000210632 MRE4           *18
 40000000 000000303313 MRE5           *18
 40000000 000000210634 MRE7           *18
 01101000 000000001732 MUER1         1456     *1469
 01101000 000000001426 MVPTR        *1155      1214
 40000000 000000400000 MW             *18
 40000000 000000000025 NCH            *18
 40000000 000000000002 NCHA           *18
 40000000 000000000005 NCHRS          *18
 40000000 000000000014 NDCD           *18
 01101000 000000001351 NEFND          971     *1057
 40000000 000000000012 NENC           *18
 40000000 000000000634 NEW            *18
 40000000 000000001072 NEWSIZ         *18
 40000000 000000235164 NKA            *18
 40000000 000000235020 NKDB           *18
 40000000 000000303415 NLDBK          *18
 40000000 777777777777 NLIND          *18
 40000000 000000001040 NLN            *18
 40000000 000000400000 NLNSA          *18
 12:39 09/05/97  FILE=ZIM$DBAR.:ZIC0TSI       SYMBOL TABLE                                               68   BMAP - B00
 01101000 000000000521 NLPAE          280      *424
 41000000 000000001053 NOBF           *18
 41000000 000000000711 NOPTRS         *18       188       192       224       229      1192      1208
                                     1275      1279
 40000000 000000000742 NPARCW         *18
 40000000 000000000630 NPIND          *18
 01101000 000000001012 NPNE1          504      *688
 01101000 000000001166 NPNE2          763      *882
 01101000 000000000457 NPOR           247       269       274       277      *387
 41000000 000000000004 NPOS           *18       262       501       760
 40000000 000000234510 NSA            *18
 40000000 000000234654 NSCS           *18
 40000000 000000234344 NSDB           *18
 40000000 000000000001 NSTS           *18
 40000000 000000000726 NUMENT         *18
 40000000 000000000727 NUMPTR         *18
 40000000 777777777760 NXBUF          *18
 41000000 000000000713 NXPRI          *18        55        60       131       141       190       205
                                      220       306       952       966      1021      1031      1036
 40000000 000000000771 NXTC           *18
 40000000 000000000001 OAACN          *18
 40000000 000000000022 OACIWSOF       *18
 40000000 000000000001 OAOFST         *18
 40000000 000000000002 OARCN          *18
 40000000 000000000001 OASCN          *18
 40000000 000000000014 OD             *18
 40000000 000000000074 ODBK           *18
 40000000 000000001072 OLDSIZ         *18
 01101000 000000001614 ONF           1245     *1306
 40000000 000000000101 OPADP          *18
 40000000 000000000741 OPARCW         *18
 40000000 000000210570 ORDNI          *18
 40000000 777777777777 OTVL           *18
 40000000 000000000252 OWNPTR         *18
 40000000 000000000016 PABUF          *18
 40000000 000000001041 PACD           *18
 41000000 000000000001 PACW           *18       119       316       527       845       943      1128
 12:39 09/05/97  FILE=ZIM$DBAR.:ZIC0TSI       SYMBOL TABLE                                               69   BMAP - B00
 40000000 000000000733 PADBK          *18
 40000000 000000000740 PADUP          *18
 40000000 000000000745 PAEN           *18
 40000000 000000000745 PAEO           *18
 40000000 000000000734 PAEOF          *18
 41000000 000000303336 PAER1          *18       890
 41000000 000000303337 PAER2          *18       897
 40000000 000000303340 PAER3          *18
 40000000 000000303341 PAER4          *18
 41000000 000000303342 PAER5          *18      1307
 40000000 000000303343 PAER6          *18
 40000000 000000000747 PAESZ          *18
 40000000 000000001060 PAFLG          *18
 00101000 000000001201 PAHDE         *896
 40000000 000000000731 PAOPTR         *18
 40000000 000000000734 PAPOF          *18
 41000000 000000000714 PARCW          *18       120       121       245       264       317       318
                                      528       582       624       628       846       847       944
                                      945      1129      1130
 40000000 000000000726 PARVPA         *18
 01101000 000000001162 PASE           772      *874
 40000000 000000000724 PASPLT         *18
 40000000 000000000004 PAWSZ          *18
 40000000 777777777762 PBUF           *18
 40000000 000000000020 PC             *18
 41000000 000000000510 PCB            *18
 41000000 000000000642 PCD            *18       987      1003      1006      1016      1026      1339
                                     1348      1351      1441      1450      1453
 40000000 000000000642 PCD2           *18
 40000000 000000000247 PCEXI          *18
 40000000 000000000675 PCMIN          *18
 40000000 000000004541 PCOMP          *18
 40000000 000000000010 PD             *18
 40000000 000000000040 PE             *18
 40000000 000000000017 PENDING        *18
 40000000 000000000004 PF             *18
 40000000 000000000400 PFG            *18
 12:39 09/05/97  FILE=ZIM$DBAR.:ZIC0TSI       SYMBOL TABLE                                               70   BMAP - B00
 40000000 000000000200 PFM            *18
 40000000 000000000100 PFS            *18
 40000000 000000000400 PG             *18
 01101000 000000001213 PGER1          796      *916
 40000000 000000001064 PGHD           *18
 40000000 000000000006 PGLIM          *18
 01101000 000000000521 PGNL1          183      *426
 01101000 000000000521 PGNL2          216      *427
 01101000 000000000702 PGP            572      *586
 40000000 000000000003 PGRNG          *18
 01101000 000000000166 PGRP           126      *174
 40000000 000000000746 PGSIZE         *18
 40000000 000000000641 PGSPLT         *18
 01101000 000000000363 PIND           307      *313
 40000000 000000000100 PKAW           *18
 40000000 000000001034 PLO            *18
 40000000 000000000004 PLSEP          *18
 40000000 000000000200 PM             *18
 40000000 000000001054 PNEOO          *18
 40000000 000000001047 POFSI          *18
 01101000 000000001173 PONE1          854      *889
 01101000 000000001012 PPNE1          647      *689
 41000000 000000000005 PPOS           *18       253       644
 40000000 000000000000 PR0            *17
 40000000 000000000001 PR1            *17
 40000000 000000000002 PR2            *17
 41000000 000000000003 PR3            *17        85        89       117       119       150       151
                                      154       177       181       184       187       211       212
                                      217       218       223       234       237       250       259
                                      299       308       316       330       496       522       527
                                      531       560       565       588       590       598       609
                                      612       641       757       800       804       816       819
                                      841       845       855       857       943       955       964
                                      998      1000      1001      1050      1116      1128      1160
                                     1161      1163      1189      1191      1246      1247      1249
                                     1271      1272      1274      1281      1282      1343      1346
                                     1413      1445      1448      1497
 12:39 09/05/97  FILE=ZIM$DBAR.:ZIC0TSI       SYMBOL TABLE                                               71   BMAP - B00
 41000000 000000000004 PR4            *17        86       300       523       801      1010      1412
 41000000 000000000005 PR5            *17        69        81        83       109       295       297
                                      353       393       518       520       538       544       796
                                      798      1011      1357      1456      1498
 41000000 000000000006 PR6            *17        65        97        99       104       139       160
                                      167       171       179       202       225       253       262
                                      272       276       282       288       292       305       322
                                      329       351       360       367       398       402       405
                                      501       506       510       553       559       569       575
                                      580       601       644       649       653       694       760
                                      765       769       782       784       788       813       825
                                      832       836       991       992       999      1004      1007
                                     1017      1027      1061      1121      1136      1140      1165
                                     1167      1174      1178      1195      1226      1229      1236
                                     1242      1252      1284      1338      1340      1341      1349
                                     1352      1355      1399      1401      1402      1440      1442
                                     1443      1451      1454
 41000000 000000000007 PR7            *17        55        60        62        63        70        72
                                       74        77        78        80        82        84        85
                                       86        87        90        91        93        94        95
                                      103       105       106       107       112       113       114
                                      116       117       120       121       124       125       129
                                      131       134       136       137       138       141       145
                                      148       150       155       157       158       161       162
                                      164       166       170       175       176       180       181
                                      182       188       189       190       192       197       201
                                      205       209       210       211       215       217       220
                                      224       228       229       233       239       243       244
                                      245       249       250       251       254       258       259
                                      260       263       264       267       270       271       275
                                      279       283       284       287       291       294       296
                                      298       299       300       301       303       306       310
                                      317       318       321       324       327       336       337
                                      338       339       340       341       342       343       345
                                      346       347       348       349       350       355       356
                                      357       358       364       371       373       377       378
                                      379       388       389       390       391       392       394
 12:39 09/05/97  FILE=ZIM$DBAR.:ZIC0TSI       SYMBOL TABLE                                               72   BMAP - B00
                                      395       396       399       400       401       406       409
                                      410       411       412       413       414       419       430
                                      431       432       438       439       440       495       496
                                      497       498       499       502       503       505       509
                                      512       516       517       519       521       522       523
                                      524       528       532       533       535       536       539
                                      540       541       542       543       547       550       551
                                      552       555       557       566       570       571       573
                                      574       578       579       582       587       588       589
                                      593       599       600       604       605       608       620
                                      624       628       632       633       634       635       636
                                      640       641       642       645       646       648       652
                                      659       660       661       662       663       664       665
                                      666       667       668       671       681       691       756
                                      757       758       761       762       764       768       771
                                      773       779       780       789       790       791       794
                                      795       797       799       800       801       802       805
                                      806       808       809       810       812       820       822
                                      823       826       827       829       831       835       841
                                      846       847       853       855       863       864       865
                                      866       867       868       885       886       892       893
                                      900       901       941       944       945       948       950
                                      952       954       955       957       959       964       965
                                      966       975       976       985       986       987       994
                                      997       998      1003      1006      1008      1009      1010
                                     1012      1016      1021      1026      1031      1035      1036
                                     1040      1045      1050      1051      1053      1060      1115
                                     1116      1118      1119      1120      1124      1129      1130
                                     1133      1135      1138      1139      1143      1149      1151
                                     1152      1159      1160      1164      1168      1169      1172
                                     1173      1177      1181      1183      1188      1189      1192
                                     1198      1199      1201      1203      1208      1211      1212
                                     1222      1224      1225      1232      1233      1234      1235
                                     1241      1244      1246      1250      1253      1254      1256
                                     1259      1260      1261      1264      1270      1271      1275
                                     1279      1281      1285      1286      1289      1290      1291
                                     1292      1294      1298      1310      1337      1339      1343
 12:39 09/05/97  FILE=ZIM$DBAR.:ZIC0TSI       SYMBOL TABLE                                               73   BMAP - B00
                                     1348      1351      1354      1356      1398      1400      1408
                                     1410      1412      1413      1415      1416      1439      1441
                                     1445      1450      1453      1455      1496      1497
 40000000 000000303267 PRE1           *18
 40000000 000000303277 PRE10          *18
 40000000 000000303270 PRE3           *18
 40000000 000000303271 PRE4           *18
 40000000 000000303272 PRE5           *18
 40000000 000000210613 PRE6           *18
 40000000 000000210614 PRE7           *18
 40000000 000000210615 PRE8           *18
 40000000 000000303276 PRE9           *18
 40000000 000000000522 PREXC          *18
 41000000 000000000521 PRFR           *18      1008      1356      1400
 41000000 000000000521 PRFR2          *18      1009      1354      1398      1455      1496
 40000000 000000000000 PRIV           *18
 41000000 000000000526 PROPA          *18       498
 41000000 000000000517 PRRC           *18       364       371
 40000000 000000000517 PRRS           *18
 41000000 000000000520 PRSC           *18       106       166       271       287       401       419
                                      505       536       574       648       681       691       764
                                      779       831      1172      1235
 41000000 000000000516 PRSS           *18       543       550       600       642       986      1060
                                     1337      1439
 40000000 000000000644 PRSTS          *18
 40000000 000000000100 PS             *18
 41000000 000000000000 PS0SID         *17
 41000000 000000000001 PS1SID         *17
 41000000 000000000002 PS2SID         *17
 41000000 000000000003 PS3SID         *17
 41000000 000000000004 PS4SID         *17
 40000000 000000000005 PS5SID         *17
 40000000 000000000006 PS6SID         *17
 40000000 000000303416 PSA            *18
 40000000 000000000020 PSC            *18
 40000000 000000000010 PSD            *18
 40000000 000000000004 PSF            *18
 12:39 09/05/97  FILE=ZIM$DBAR.:ZIC0TSI       SYMBOL TABLE                                               74   BMAP - B00
 40000000 000000000400 PSO            *18
 41000000 000000000720 PTESZ          *18      1198      1203      1232      1298
 01101000 000000001043 PTGLB          767      *770
 41000000 000000000631 PTR            *18       254       263       270       279       283       284
                                      399       400       502       503       645       646       761
                                      762
 40000000 000000000724 PTRESZ         *18
 01101000 000000001455 PTRGRP        1170     *1185
 41000000 000000000710 PTRNO          *18        74       125       189       197       201       239
                                      599       605      1118      1211      1222      1294
 41000000 000000000630 PWS            *18
 41000000 000000000002 RADDR          *18        85       117       150       181       211       217
                                      250       259       299       496       522       588       641
                                      757       800       841       855      1116      1160      1189
                                     1246      1271      1281
 40000000 000000000010 RADIX          *18
 40000000 000000000005 RAPTR          *18
 40000000 000000000004 RAWSOF         *18
 40000000 777777777766 RBA            *18
 40000000 000000023432 RCBI           *18
 40000000 000000211234 RCDNL          *18
 40000000 000000000005 RCFRH          *18
 40000000 000000000004 RCFRN          *18
 40000000 000000001075 RCHD           *18
 40000000 000000000001 RCID           *18
 41000000 000000000006 RCPTR          *18       105       138       303       349       356       373
                                      432       440       540       552       791       812       886
                                      893       901      1135      1310
 40000000 000000000002 RCRAH          *18
 40000000 000000000001 RCRAN          *18
 41000000 000000000003 RCRSH          *18       104       694       788       991      1061      1340
                                     1442
 41000000 000000000002 RCRSN          *18      1165
 40000000 000000210667 RCVER1         *18
 40000000 000000210670 RCVER2         *18
 40000000 000000210671 RCVER4         *18
 40000000 000000210672 RCVER5         *18
 12:39 09/05/97  FILE=ZIM$DBAR.:ZIC0TSI       SYMBOL TABLE                                               75   BMAP - B00
 40000000 000000210673 RCVER6         *18
 40000000 000000000736 RCW1           *18
 40000000 000000000737 RCW2           *18
 40000000 000000000004 RCWSO          *18
 40000000 000000000077 RDAC           *18
 40000000 000000000076 RDCNT          *18
 40000000 000000040000 RDI            *18
 40000000 000000015674 RDLT           *18
 40000000 000000000075 RDYCW          *18
 40000000 000000000066 RECAC          *18
 40000000 000000000065 RECFR          *18
 40000000 000000000070 RECRC          *18
 40000000 000000000067 RECSC          *18
 40000000 000000000003 RECSZ          *18
 40000000 000000000235 REMLT          *18
 40000000 000000000062 REM_RECOVER    *18
 40000000 000000000251 RETFR          *18
 40000000 000000210724 RFDNL          *18
 40000000 000000017644 RIM            *18
 40000000 000000000005 RNAM           *18
 40000000 000000015706 RNDLT          *18
 40000000 000000000662 RNG1           *18
 40000000 000000000664 RNG2           *18
 40000000 000000000073 RNGD           *18
 40000000 000000000072 RNGO           *18
 40000000 000000000660 RNGTAL         *18
 41000000 000000020154 RNM            *18       428       435       690       883
 01101000 000000000527 RNMEM           79      *434
 01101000 000000000452 RNSS           369      *376
 40000000 000000000041 ROCUR          *18
 41000000 000000000001 ROFST          *18      1399      1401
 40000000 000000002114 ROLL           *18
 40000000 000000020010 RPM            *18
 40000000 000000000001 RSCDH          *18
 41000000 000000000001 RSCDN          *18      1004      1349      1451
 40000000 000000211710 RSDNL          *18
 41000000 000000004540 RSEE           *18       680
 12:39 09/05/97  FILE=ZIM$DBAR.:ZIC0TSI       SYMBOL TABLE                                               76   BMAP - B00
 40000000 000000000003 RSIZ           *18
 01101000 000000000535 RSPAE1          98      *442
 01101000 000000001207 RSPAE2         783      *903
 40000000 000000000110 RSPAM          *18
 41000000 000000000004 RSPTR          *18        63        95       103       158       176       251
                                      260       347       358       396       499       542       758
                                      780       789       810       823      1120      1225
 40000000 000000000037 RSREQ          *18
 40000000 000000000002 RSSSH          *18
 40000000 000000000001 RSSSN          *18
 40000000 000000210574 RSZER          *18
 41000000 000000000632 RSZTP          *18        90        91       532       533       805       806
 41000000 000000000003 RTP            *18        93       345       535       668       808
 01101000 000000000456 RTREC          365       372       374      *382       407
 41000000 000000000003 RTYP           *18       351
 40000000 000000000530 RV1            *18
 40000000 000000000550 RV2            *18
 40000000 000000000570 RV3            *18
 40000000 000000000610 RV4            *18
 40000000 000000000003 RVASID         *17
 41000000 000000000510 RVI            *18        62        70        94       112       346       377
                                      379       391       395       409       438       756       809
                                      863      1119      1233      1259      1289
 41000000 000000000511 RVO            *18       336       355       378       388       394       410
                                      495       632       660
 41000000 000000000513 RVPA           *18        77        82       116       137       157       175
                                      243       249       258       296       337       430       516
                                      519       539       551       578       587       633       640
                                      659       773       794       797       822       866       892
                                      900      1115      1159      1224
 40000000 000000000512 RVT            *18
 40000000 000000000022 RVTAL          *18
 40000000 000000000002 RWSZ           *18
 40000000 000000000015 RY             *18
 40000000 000000210620 RYE1           *18
 40000000 000000210621 RYE4           *18
 40000000 777777777767 SA             *18
 12:39 09/05/97  FILE=ZIM$DBAR.:ZIC0TSI       SYMBOL TABLE                                               77   BMAP - B00
 40000000 000000000005 SANAM          *18
 40000000 000000001062 SCDES          *18
 40000000 000000211544 SCDNL          *18
 40000000 000000000024 SCFC           *18
 40000000 000000000002 SCID           *18
 40000000 000000000024 SCLST          *18
 40000000 000000000004 SCNAM          *18
 41000000 000000000004 SCPTR          *18       107       348       357       431       439       541
                                      790       885
 40000000 000000000003 SCRSH          *18
 41000000 000000000002 SCRSN          *18        97       782      1338      1440
 40000000 000000000001 SCWSO          *18
 01101000 000000001005 SEMTY          513      *678
 01101000 000000000255 SETAR          221      *235
 01101000 000000000231 SETPT          163      *214
 40000000 000000001225 SFWS           *18
 00101000 000000001241 SID           *963
 40000000 000000001073 SIZCHG         *18
 40000000 000000000645 SKFLG          *18
 40000000 000000000643 SKIND          *18
 40000000 000000000641 SKTYP          *18
 40000000 000000020464 SMCR           *18
 40000000 000000000003 SNAM           *18
 40000000 000000000107 SNIND          *18
 40000000 000000000735 SNPAE          *18
 40000000 000000001046 SNSI           *18
 40000000 000000000743 SOE            *18
 40000000 000000020630 SORSA          *18
 40000000 000000004374 SOSE           *18
 40000000 000000000000 SPAV           *18
 40000000 000000000744 SPCAVN         *18
 40000000 000000000744 SPCAVO         *18
 40000000 000000000765 SPLF           *18
 41000000 000000000765 SPND           *18
 01101000 000000001506 SRCH          1145      1148      1150      1182      1205      1207      1210
                                    *1220
 01101000 000000001557 SRCPG         1255     *1267
 12:39 09/05/97  FILE=ZIM$DBAR.:ZIC0TSI       SYMBOL TABLE                                               78   BMAP - B00
 40000000 000000000006 SSDT           *18
 41000000 000000303243 SSER           *18       443       904
 40000000 000000303244 SSER1          *18
 40000000 000000000002 SSH            *18
 40000000 000000000005 SSNAM          *18
 40000000 000000210573 SSNF           *18
 40000000 000000210576 SSNV           *18
 40000000 000000000020 SSSPTR         *18
 40000000 000000000010 SSVDT          *18
 40000000 000000000033 SSZTP          *18
 40000000 000000000017 ST             *18
 40000000 000000000104 STBIN          *18
 40000000 000000000105 STDEC          *18
 40000000 000000303302 STE1           *18
 40000000 000000303303 STE2           *18
 40000000 000000210624 STE3           *18
 40000000 000000303305 STE4           *18
 40000000 000000303306 STE5           *18
 41000000 000000000100 STKSIZ         *18
 40000000 000000000055 STMASK         *18
 40000000 000000000062 SUST           *18
 41000000 000000000020 SWS            *18
 40000000 000000000000 SWSAC          *18
 40000000 000000000002 SWSZ           *18
 40000000 000000000000 SYSSF          *18
 40000000 000000000765 SZREQ          *18
 41000000 000000000004 TBUF           *18      1413
 40000000 000000001061 TCTRS          *18
 60000000 000000000000 TDS            *18
 41000000 000000000113 TEMP           *18
 41000000 000000000640 TFLD           *18      1410      1416
 41000000 000000000657 TFLD2          *18      1408      1415
 41000000 000000000056 TMASK          *18       667
 40000000 000000000061 TMODE          *18
 40000000 000000000676 TMPPA          *18
 40000000 000000000003 TPAI           *18
 40000000 000000500000 TPRCOD         *18
 12:39 09/05/97  FILE=ZIM$DBAR.:ZIC0TSI       SYMBOL TABLE                                               79   BMAP - B00
 40000000 000000001031 TSFN           *18
 40000000 000000000021 TSI            *18
 40000000 000000001013 UBRD2          *18
 41000000 000000001223 UBSZ           *18
 40000000 000000000667 UCADR          *18
 40000000 000000000036 UCRS           *18
 40000000 000000000024 UFSPK          *18
 40000000 000000000024 UFSPK2         *18
 41000000 000000000715 ULIM           *18       124       134       948       959       976      1040
                                     1133      1149      1244
 40000000 000000004230 UNA            *18
 40000000 000000303417 UNIM           *18
 40000000 000000000002 UOFST          *18
 40000000 000000001035 UPACD          *18
 40000000 000000000721 UPACW          *18
 40000000 000000000007 UPFLAG         *18
 40000000 000000000103 UPPAI          *18
 40000000 000000000004 UPTSID         *17
 40000000 000000000674 USTAT          *18
 40000000 000000000002 UWASID         *17
 40000000 000000000002 UWSSZ          *18
 40000000 000000000020 UWSZ           *18
 40000000 000000000243 VFDSC          *18
 40000000 000000001070 VFDSR          *18
 40000000 000000000656 VFLD           *18
 40000000 000000001074 VFLNG          *18
 40000000 000000001124 VIB1           *18
 40000000 000000001154 VIBP           *18
 40000000 000000000000 VLPSID         *17
 01101000 000000001621 VOCER         1311     *1319
 01101000 000000000541 VOER1          109      *451
 01101000 000000001613 VORET         1125      1184      1262      1295     *1300
 40000000 000000001074 VRSIZ          *18
 40000000 000000001067 WLOA           *18
 40000000 000000100000 WRTI           *18
 40000000 000000000000 WSBID          *18
 40000000 000000000003 WSOF           *18
 12:39 09/05/97  FILE=ZIM$DBAR.:ZIC0TSI       SYMBOL TABLE                                               80   BMAP - B00
 41000000 000000000000 X0             *17        87       162       167       168       170       189
                                      190       192       201       264       265       268       272
                                      273       275       288       289       291       301       337
                                      346       409       417       429       437       444       506
                                      507       509       524       579       633       649       650
                                      652       660       682       693       765       766       768
                                      784       785       786       802       827       832       833
                                      835       847       848       863       876       884       891
                                      898       905      1003      1004      1006      1016      1026
                                     1058      1115      1174      1175      1177      1236      1237
                                     1241      1254      1270      1277      1291      1298      1308
                                     1348      1349      1351      1450      1451      1453
 41000000 000000000001 X1             *17        54        55        59        60        65        66
                                       69        71        72        73        74        77        81
                                       82       109       113       148       243       249       258
                                      295       296       305       328       329       339       353
                                      360       361       367       368       391       393       395
                                      410       438       494       518       519       538       539
                                      544       551       558       559       662       756       796
                                      797       813       864       941       945       946       947
                                      948       949       950       951       952       953       954
                                      957       958       959       975       976       980       982
                                      999      1011      1012      1017      1018      1027      1028
                                     1035      1040      1045      1053      1117      1118      1119
                                     1221      1222      1223      1244      1261      1265      1292
                                     1357      1402      1403      1404      1456      1498
 41000000 000000000002 X2             *17       114       196       197       210       236       238
                                      311       331       340       402       403       561       611
                                      613       663       773       794       814       858       865
                                     1015      1020      1021      1025      1030      1031      1120
                                     1121      1122      1130      1131      1132      1133      1139
                                     1140      1146      1149      1151      1154      1206      1208
                                     1211      1213      1229      1230      1231      1232      1233
                                     1259      1276      1279      1293      1294      1297
 41000000 000000000003 X3             *17        62        70        94        99       100       101
                                      112       116       121       122       123       124       125
                                      129       131       134       136       137       157       175
 12:39 09/05/97  FILE=ZIM$DBAR.:ZIC0TSI       SYMBOL TABLE                                               81   BMAP - B00
                                      219       230       239       309       310       320       321
                                      336       355       388       394       430       495       516
                                      546       547       571       575       576       578       587
                                      593       619       620       624       625       632       640
                                      659       671       809       822       866       892       900
                                     1159      1224
 41000000 000000000004 X4             *17       986       987      1007      1008      1009      1060
                                     1289      1337      1338      1339      1352      1354      1355
                                     1356      1398      1400      1439      1440      1441      1454
                                     1455      1496
 41000000 000000000005 X5             *17        63        95        97       103       130       146
                                      158       176       245       246       251       260       347
                                      358       396       499       542       543       550       600
                                      642       758       780       782       789       810       823
                                     1165      1225
 41000000 000000000006 X6             *17       106       107       166       271       287       348
                                      357       401       419       431       439       459       505
                                      536       541       574       648       681       691       706
                                      764       779       790       831       885       894       899
                                      917      1059      1169      1172      1235      1309
 03201007 000000000000 X66_ARET       *17       383       674       870      1302      1361      1418
                                     1460      1499
 03201006 000000000000 X66_AUTO_0     *17        53        58       492       755      1114      1336
                                     1397      1438      1495
 41000000 000000000007 X7             *17       104       105       138       303       349       356
                                      371       373       418       432       440       445       460
                                      540       552       683       694       707       788       791
                                      812       877       886       893       901       906       918
                                      991      1061      1135      1310      1340      1442
 40000000 000000210665 XASL           *18
 40000000 000000303420 XLD            *18
 40000000 000000303421 XPD            *18
 40000000 000000000676 XPRS           *18
 40000000 000000210666 XROLL          *18
 40000000 000000210664 XUNEX          *18
 40000000 777777777777 XXDPN          *18
 03201009 000000000000 ZIB$DBALT     *464      *710      *921     *1320     *1378     *1477     *1504
 12:39 09/05/97  FILE=ZIM$DBAR.:ZIC0TSI       SYMBOL TABLE                                               82   BMAP - B00
 03201008 000000000000 ZIB$DBEXC     *420      *684      *878
 03201011 000000000000 ZIB$ICALT    *1074
 03201010 000000000000 ZIB$ICEXC    *1062
 13101000 000000001216 ZIG$DBABS       12       544      *940
 12101000 000000000546 ZIG$DBAFE       14      *491
 13101000 000000001023 ZIG$DBAFF       14        69      *754
 12101000 000000000000 ZIG$DBAFN       13       *52
 12101000 000000000005 ZIG$DBAFP       13       *57
 12101000 000000001622 ZIG$DBAKP       11     *1335
 12101000 000000001702 ZIG$DBAKU       11     *1437
 13101000 000000001655 ZIG$DBAMP       11      1357     *1396
 13101000 000000001733 ZIG$DBAMU       11      1456     *1494
 13101000 000000001357 ZIG$DBAVO       12       109     *1113
 03201005 000000000000 ZIG$DBECD      *16      1498
 02201000 000000000000 ZIG$DBPFD      *15
 03201002 000000000000 ZIG$DBPFO      *15       494
 03201001 000000000000 ZIG$DBPR2      *15       353       538
 03201004 000000000000 ZIG$DBXCI      *16      1011
 12101000 000000000000 ZIM$DBAR        10       *19
 03201003 000000000000 ZIQ$DBIOL      *16        81       295       393       518       796

    1050 SYMBOLS

 12:39 09/05/97  FILE=ZIM$DBAR.:ZIC0TSI       MACRO TABLE                                                83   BMAP - B00
 CBSYM           18
 DBALT          464       710       921      1320      1378      1477      1504
 DBCAL           69        81       109       295       353       393       494       518       538
                544       796      1011      1357      1456      1498
 DBEXC          420       684       878
 DBRET          383       674       870      1302      1361      1418      1460      1499
 DBSAV           53        58       492       755      1114      1336      1397      1438      1495
 ICALT         1074
 ICCAL           81       295       353       393       518       538       544       796      1498
 ICEXC         1062
 ICRET         1053
 ICSAV          941
 Q2SYM           18
 SSSYM           18

      37 MACROS

    SYMBOL SPACE USED 13282 WORDS
     MACRO SPACE USED 13057 WORDS
   INPUT RECORDS READ  4812
 STATEMENTS PROCESSED  3505
         ELAPSED TIME  0:22.32
             CPU TIME    20.91 SEC.
        ASSEMBLY RATE 10057 STATEMENTS/CPU MIN.

      NO ERRORS

