
 12:41 09/05/97  FILE=ZIM$DBCA.:ZIC0TSI                                                                  1    BMAP - B00
                                         1  *M*      ZIG$DBCA
                                         2  *T***********************************************************
                                         3  *T*                                                         *
                                         4  *T* Copyright (c) Bull HN Information Systems Inc., 1997    *
                                         5  *T*                                                         *
                                         6  *T***********************************************************

 12:41 09/05/97  FILE=ZIM$DBCA.:ZIC0TSI       H6600H2.515     IDS/II CALC ROUTINE            780321DBCA  2    BMAP - B00
                                         7         TTL     H6600H2.515     IDS/II CALC ROUTINE            780321DBCA
                                         8         CPR     1974
                                         9         PMC     OFF
                                        10  *
                                        11         ENTDEF  ZIM$CALC
                                        12         ENTDEF  ZIQ$DBCLC
                                        13  *
                                        14         ENTREF  ZIQ$DBMAS
                                        15           ENTREF      ZIG$DBGRS,ZIG$DBPMS
                                        16  *
                                        17         LODM    Q2MA
                                        18  *
                                        19         Q2SYM
                                        20  *

 12:41 09/05/97  FILE=ZIM$DBCA.:ZIC0TSI                IDS-II PRECALC ROUTINE                            3    BMAP - B00
                                        21           TTLS           IDS-II PRECALC ROUTINE
 0 000000                               22  ZIM$CALC NULL
   000000  X 000000 7000 00             23           DBSAV
   000001    000004 000000
                                        24  *
                                        25  *        Get UWA offset from call and find RC
                                        26  *
   000002    000000 4704 07             27           LDP      PR0,VLPSID,DL        Pointer to UWA offset
   000003    0 00000 2351 00            28           LDA      0,,PR0               Get it.
   000004    000003 7350 00             29           ALS      3                    Into nibbles.
   000005    777777 2360 03             30           LDQ      -1,DU                Mask for compare
   000006    000001 6270 00             31           EAX      X7,OAOFST            Init RC offset
   000007                               32  LOOP3    NULL
   000007    6 00002 2271 17            33           LDX      X7,OARCN,X7,PR6      Get next RC.
   000010 (0)000043 6000 00             34           TZE      CAER1                No further entries to check
   000011    6 00001 2111 17            35           CMK      RCID,X7,PR6          Compare To binding code.
   000012 (0)000007 6010 00             36           TNZ      LOOP3                Try next
                                        37  * RC FOUND
   000013    6 00000 7211 17            38           LXL      X1,DEF,X7,PR6        Is it in SSS
   000014    100000 3010 03             39           CANX     X1,.SR,DU
   000015 (0)000043 6010 00             40           TNZ      CAER1                No.
                                        41  * FIND RS FOR RECORD IN CALC SET
   000016    6 00004 2261 00            42           LDX      X6,OAOFST+CLCSC,,PR6 Get SC for clalc set.
   000017  X 000000 7010 00             43           DBCAL    ZIG$DBGRS,,CAER2     Find RS
   000020 (0)000053 7020 00
   000021    5 00006 2341 00
   000022    777776 6010 04
                                        44  * GET SS FOR CALC KEYS
   000023    6 00001 7241 15            45           LXL      X4,RSSSN,X5,PR6      Get SS
   000024 (0)000047 6000 00             46           TZE      CAER3                None error
   000025    7 00516 7441 00            47           STX      X4,PRSS,,PR7         Put in prim req
                                        48  * MOVE CLAC KEYS TO REC BUF
   000026  X 000000 7010 00             49           DBCAL    ZIG$DBPMS,,MSER1     Move keys
   000027 (0)000053 7020 00
   000030    5 00006 2341 00
   000031    777776 6010 04
                                        50  * CALL CALC ROUTINE
 12:41 09/05/97  FILE=ZIM$DBCA.:ZIC0TSI                IDS-II PRECALC ROUTINE                            4    BMAP - B00
   000032    7 00516 2241 00            51           LDX      X4,PRSS,,PR7         Get ss pointer.
   000033    000000 6200 00             52           EAX      X0,0                 Area selection wil be called
   000034 (0)000055 7010 00             53           ICCAL    ZIQ$DBCLC,,CLE1
   000035 (0)000053 7020 00
   000036    5 00006 2341 00
   000037    777776 6010 04
                                        54  * RETURN RESULT
   000040    000005 4704 07             55           LDP      PR0,PS5SID,DL        Pointer to Parameter
   000041    0 00000 7561 00            56           STQ      0,,PR0               Return DBKEY.
                                        57  * RETURN
   000042  X 000000 7020 00             58           DBRET
                                        59  *
                                        60  *        ERRORS DETECTED IN THIS ROUTINE
                                        61  *
   000043                               62  CAER1    NULL
   000043    010150 2350 07             63           LDA      IRSN,DL              Record not in subschema
   000044    000000 6200 00             64           EAX      X0,0
   000045    000000 6260 00             65           EAX      X6,0
   000046 (0)000054 7100 00             66           TRA      CAR2
   000047                               67  CAER3    NULL                          No SS entry
   000047    303320 2350 07             68           LDA      FDE2,DL
   000050    000000 6200 00             69           EAX      X0,0
   000051    000000 6260 00             70           EAX      X6,0
   000052 (0)000054 7100 00             71           TRA      CAR2
                                        72  *
                                        73  *        ERRORS DETECTED IN SUBORDINATE ROUTINES
                                        74  *
   000053                               75  CAER2    NULL
   000053                               76  CLE1     NULL
   000053                               77  MSER1    NULL
   000053 (0)000054 7100 00             78           TRA      CAR2
                                        79  *
                                        80  *        COMMON ERROR RETURN
                                        81  *
   000054                               82  CAR2     NULL
   000054  X 000000 7020 00             83           DBALT

 12:41 09/05/97  FILE=ZIM$DBCA.:ZIC0TSI       IDS-II  CALC ROUTINE                                       5    BMAP - B00
                                        84         TTLS    IDS-II  CALC ROUTINE
                                        85  *
                                        86  ****************************************************************
                                        87  *
                                        88  *  - DBCLC -
                                        89  *
                                        90  *      Calc Routine.
                                        91  *
                                        92  *      Calling
                                        93  *
                                        94  *              ICCAL    ZIQ$DBCLC,,altret
                                        95  *
                                        96  *      Considerations
                                        97  *
                                        98  *              Note that no exception return is possible
                                        99  *              from this subroutine.
                                       100  *
                                       101  *      Input
                                       102  *
                                       103  *              X0 - AC pointer or zero
                                       104  *                   If non-zero, this value will be used
                                       105  *                      as the AC pointer.
                                       106  *                   If zero, ZIQ$DBMAS will be called to
                                       107  *                      to select an area.
                                       108  *              X4 - SS pointer
                                       109  *              Calc Keys must be in the record buffer
                                       110  *
                                       111  *      Output
                                       112  *
                                       113  *              QR - Area, Page and Line Number
                                       114  *              X0 - AC Def Pointer
                                       115  *              X4 - RA Def Pointer
                                       116  *              X7 - RC Def Pointer
                                       117  *
                                       118  ****************************************************************
                                       119  *
   000055                              120  ZIQ$DBCLC NULL
 12:41 09/05/97  FILE=ZIM$DBCA.:ZIC0TSI       IDS-II  CALC ROUTINE                                       6    BMAP - B00
   000055    7 00470 7411 56           121         ICSAV
   000056    7 00027 4501 00           122         STZ     HASH,,PR7       INIT HASH
   000057    7 00050 4401 00           123         SXL     X0,CAAC,,PR7    SAVE AC
                                       124  *
                                       125  *  FIND A RANDOMIZE FIELD
                                       126  *
   000060    7 00050 7441 00           127         STX     X4,CACD,,PR7    SAVE SS AS CURR CD
   000061                              128  LOOP1  NULL
   000061    7 00050 2201 00           129         LDX     X0,CACD,,PR7    GET CURR CD
   000062    6 00001 2201 10           130         LDX     X0,RSCDN,X0,PR6  GET NEXT CD
   000063 (0)000124 6000 00            131         TZE     LFR             NO - DONE
   000064    7 00050 7401 00           132         STX     X0,CACD,,PR7    SAVE NEXT CD AS CURR
   000065    6 00002 2241 10           133         LDX     X4,CDSH,X0,PR6  SET X4 TO FR FOR CD
                                       134  *  FOUND A FIELD - BUILD ALPHANUMERIC DESCR. FOR IT
   000066    6 00001 2351 14           135         LDA     ROFST,X4,PR6    GET DESCR.
   000067    6 00000 7211 14           136         LXL     X1,DEF,X4,PR6   GET COMPARE CODE
   000070    160000 3610 03            137         ANX     X1,.COMC,DU     ISOLATE
   000071    020000 1010 03            138         CMPX    X1,=O020000,DU  IS IT A NUMERIC DESCR.
   000072 (0)000074 6010 00            139         TNZ     *+2             NO
   000073 (1)000000 3750 00            140         ANA     =O777777740077  YES - MAKE IT ALPHA
   000074    7 00030 7551 00           141         STA     CDES,,PR7       SAVE
   000075    007777 3750 07            142         ANA     =O7777,DL       ISOLATE LENGTH
   000076    000022 7350 00            143         ALS     18              PUT IN AU
   000077    7 00026 7551 00           144         STA     CLNG,,PR7       SAVE
   000100    000001 2350 07            145           LDA      1,DL                 Change length in descriptor
   000101    7 00030 7511 03           146           STCA     CDES,3,PR7           to one byte
   000102                              147  RAND   NULL
   000102    000000 6210 00            148         EAX     X1,0            INIT LOOP CNTR
   000103    7 00004 4735 00           149         LDP     PR3,TBUF,,PR7        PR3->Temporary Buffer
   000104    7 00027 2351 00           150         LDA     HASH,,PR7       GET CURR HASH
   000105                              151  LOOP2  NULL
   000105    000 0 100 1005 31         152         MLR     (1,,1,1),(1),0,0    * MOVE
   000106    7 00030 0001 00           153         ARG     CDES,,PR7           *  NEXT CHAR OF FLD TO
   000107    7 00031 6 0 0 0001        154         ADSC9   CCHAR,3,1,PR7        Work Space
   000110    7 00031 0351 00           155         ADLA    CCHAR,,PR7      ADD NEXT CHAR
   000111    000027 7750 00            156         ALR     36-13           RIGHT ROTATE 13 BITS
   000112    000001 3150 07            157         CANA    1,DL            IS HASH ODD
 12:41 09/05/97  FILE=ZIM$DBCA.:ZIC0TSI       IDS-II  CALC ROUTINE                                       7    BMAP - B00
   000113 (0)000115 6010 00            158         TNZ     *+2             YES
   000114    400000 6750 03            159         ERA     .B0,DU          FLIP HIGH BIT
   000115    7 00031 0351 00           160         ADLA    CCHAR,,PR7      ADD CHAR AGAIN
   000116    000027 7750 00            161         ALR     36-13           RIGHT ROTATE 13 BITS
   000117    000001 6210 11            162         EAX     X1,1,X1         INCR CHAR CNT
   000120    7 00026 1011 00           163         CMPX    X1,CLNG,,PR7    WAS IT LAST
   000121 (0)000105 6020 00            164         TNC     LOOP2           NO
                                       165  *  DONE WITH FIELD - CHECK NEXT FR
   000122    7 00027 7551 00           166         STA     HASH,,PR7       SAVE CURR HASH
   000123 (0)000061 7100 00            167         TRA     LOOP1           GO TO NEXT FR
                                       168  *
                                       169  *  ALL FR'S HASHED - GENERATE BASE CALC HEADER DBK
                                       170  *
   000124                              171  LFR    NULL
   000124    6 00005 2271 14           172         LDX     X7,RCFRH,X4,PR6  GET RC FOR REC
   000125    6 00000 2211 17           173         LDX     X1,DEF,X7,PR6   GET DEF TYPE
   000126    100000 3010 03            174         CANX    X1,.RC,DU       IS IT AN RC
   000127 (0)000170 6000 00            175         TZE     RCER1           NO - ERROR
                                       176  *  GET RA & AC
   000130    7 00050 7201 00           177         LXL     X0,CAAC,,PR7    GET X0 FROM CALL
   000131    000006 6000 04            178         TZE     PKAC,$          ZERO - GO CALL .DBMAS
   000132 (0)000200 7010 00            179         ICCAL   ZIG$DBGRA,,FRAE1
   000133 (0)000175 7020 00
   000134    5 00006 2341 00
   000135    777776 6010 04
   000136    000005 7100 04            180         TRA     GRA,$
   000137                              181  PKAC   NULL
   000137  X 000000 7010 00            182         ICCAL   ZIQ$DBMAS,,ASER1 check user's proc./id. field
   000140 (0)000175 7020 00
   000141    5 00006 2341 00
   000142    777776 6010 04
   000143                              183  GRA    NULL
   000143    6 00000 2211 14           184           LDX      X1,DEF,X4,PR6        Get def word
   000144    000002 3010 03            185           CANX     X1,FRANGE,DU         Is it full range
   000145 (0)000151 6000 00            186           TZE      RACLC                No.  Use range in RA.
   000146    6 00003 2211 10           187           LDX      X1,WSOF,X0,PR6       Area work space
   000147    7 00002 2351 11           188           LDA      NCHA,X1,PR7          Number of calc headers in area
 12:41 09/05/97  FILE=ZIM$DBCA.:ZIC0TSI       IDS-II  CALC ROUTINE                                       8    BMAP - B00
   000150 (0)000152 7100 00            189           TRA      DIVIDE
   000151    6 00005 2351 14           190  RACLC    LDA      NCHRS,X4,PR6         # of calc headers for record
   000152    7 00025 7551 00           191  DIVIDE   STA      NCH,,PR7             Save for divide
                                       192  *  COMPUTE DBK OF CHR
   000153    000000 6360 00            193         EAQ     0               INIT QR(REMAINDER) TO 0
   000154    000001 2350 07            194         LDA     1,DL
   000155    7 00025 1151 00           195           CMPA     NCH,,PR7             No. of calc headers 0 or 1?
   000156 (0)000164 6030 00            196         TRC     RZERO           YES - DON'T DIVIDE
   000157    000000 6350 00            197         EAA     0               ZERO AR
   000160    7 00027 2361 00           198         LDQ     HASH,,PR7       GET HASH RESULT
   000161    000001 7370 00            199         LLS     1               DOUBLE FOR DVF
   000162    7 00025 5071 00           200           DVF      NCH,,PR7             Divide by # of clac headers
   000163    6 00013 4021 10           201         MPY     INTVL,X0,PR6    MULT. BY DBK'S PER CALC HDR
   000164                              202  RZERO  NULL
   000164    6 00003 0361 14           203         ADLQ    PGRNG,X4,PR6    ADD LO OF RNG
   000165    6 00006 0361 14           204         ADLQ    CHRD,X4,PR6     ADD OFST TO CHR
   000166    7 00470 2211 54           205         ICRET
   000167    000001 7100 11
                                       206  *
                                       207  *  ERRORS DETECTED IN THIS ROUTINE
                                       208  *
   000170                              209  RCER1  NULL
   000170    303243 2350 07            210         LDA     SSER,DL
   000171    000000 6200 00            211         EAX     X0,0            NULL AC
   000172    000000 6260 00            212         EAX     X6,0            NULL SC
   000173    000000 6270 00            213         EAX     X7,0            NULL RC
   000174 (0)000177 7100 00            214         TRA     CAR1
                                       215  *
                                       216  *  ERRORS DETECTED IN SUBORDINATE ROUTINES
                                       217  *
   000175                              218  FRAE1  NULL                    ERROR FINDING RA
   000175                              219  ASER1  NULL                    FIND AREA ERROR
   000175 (0)000177 7100 00            220         TRA     CAR1
                                       221  *
                                       222  *  ERRORS DETECTED IN PRIMITIVES
                                       223  *
   000176                              224  MKER5  NULL                    MOVE FIELD ERROR
 12:41 09/05/97  FILE=ZIM$DBCA.:ZIC0TSI       IDS-II  CALC ROUTINE                                       9    BMAP - B00
   000176 (0)000177 7100 00            225         TRA     CAR1
                                       226  *
                                       227  *  COMMON ERROR RETURN
                                       228  *
   000177                              229  CAR1   NULL
   000177  X 000000 7020 00            230           ICALT

 12:41 09/05/97  FILE=ZIM$DBCA.:ZIC0TSI       FIND RA ROUTINE                                            10   BMAP - B00
                                       231         TTLS    FIND RA ROUTINE
                                       232  *
                                       233  *  FIND RA ROUTINE
                                       234  *
                                       235  *  INPUT : X0 - AC PTR
                                       236  *          X7 - RC PTR
                                       237  *
                                       238  *  OUTPUT: X0 - AC PTR
                                       239  *          X4 - RA PTR
                                       240  *          X7 - RC PTR
                                       241  *
   000200                              242  ZIG$DBGRA NULL
   000200    7 00470 7411 56           243         ICSAV
   000201    000000 6240 17            244         EAX     X4,,X7          INIT X4 TO RC
   000202    000000 6350 10            245         EAA     ,X0
   000203    000022 7710 00            246         ARL     18              GET AC PTR TO AL
   000204    777777 2360 03            247         LDQ     -1,DU           LOAD MASK
   000205                              248  GRAL1  NULL
   000205    6 00001 2241 14           249         LDX     X4,RCRAN,X4,PR6  GET NEXT
   000206    000005 6000 04            250         TZE     RAFE1,$         LAST - RA NOT FOUND
   000207    6 00002 2111 14           251         CMK     ACRAH,X4,PR6    IS THIS THE CORRECT RA
   000210    777775 6010 04            252         TNZ     GRAL1,$         NO - CHECK NEXT
                                       253  *  RA FOUND RETURN
   000211    7 00470 2211 54           254         ICRET
   000212    000001 7100 11
                                       255  *
                                       256  *  ERRORS DETECTED IN THIS ROUTINE
                                       257  *
   000213                              258  RAFE1  NULL
   000213    210644 2350 07            259         LDA     FDE6,DL
   000214    000000 6260 00            260         EAX     X6,0            NULL SC
   000215  X 000000 7020 00            261           ICALT
                                       262         END
 1 000000    777777740077

  CONTROL SECTION TABLE

 12:41 09/05/97  FILE=ZIM$DBCA.:ZIC0TSI       FIND RA ROUTINE                                            11   BMAP - B00
   0 CODE   EVEN  000216
   1 RODATA EVEN  000001 LITERALS

 12:41 09/05/97  FILE=ZIM$DBCA.:ZIC0TSI       SYMBOL TABLE                                               12   BMAP - B00
 40000000 000000200000 .AC            *19
 40000000 000000000100 .AG            *19
 40000000 000000002000 .ALTO          *19
 40000000 000000000077 .ANL           *19
 40000000 000000200000 .APDN          *19
 40000000 000000000100 .ATMP          *19
 40000000 000000400000 .AV            *19
 41000000 000000400000 .B0            *19       159
 40000000 000000200000 .B1            *19
 40000000 000000000200 .B10           *19
 40000000 000000000100 .B11           *19
 40000000 000000000040 .B12           *19
 40000000 000000000020 .B13           *19
 40000000 000000000010 .B14           *19
 40000000 000000000004 .B15           *19
 40000000 000000000002 .B16           *19
 40000000 000000000001 .B17           *19
 40000000 000000400000 .B18           *19
 40000000 000000200000 .B19           *19
 40000000 000000100000 .B2            *19
 40000000 000000100000 .B20           *19
 40000000 000000040000 .B21           *19
 40000000 000000020000 .B22           *19
 40000000 000000010000 .B23           *19
 40000000 000000004000 .B24           *19
 40000000 000000002000 .B25           *19
 40000000 000000001000 .B26           *19
 40000000 000000000400 .B27           *19
 40000000 000000000200 .B28           *19
 40000000 000000000100 .B29           *19
 40000000 000000040000 .B3            *19
 40000000 000000000040 .B30           *19
 40000000 000000000020 .B31           *19
 40000000 000000000010 .B32           *19
 40000000 000000000004 .B33           *19
 40000000 000000000002 .B34           *19
 40000000 000000000001 .B35           *19
 12:41 09/05/97  FILE=ZIM$DBCA.:ZIC0TSI       SYMBOL TABLE                                               13   BMAP - B00
 40000000 000000020000 .B4            *19
 40000000 000000010000 .B5            *19
 40000000 000000004000 .B6            *19
 40000000 000000002000 .B7            *19
 40000000 000000001000 .B8            *19
 40000000 000000000400 .B9            *19
 40000000 000000000001 .BREAK         *19
 40000000 000000010000 .BRK           *19
 40000000 000000020000 .BTB           *19
 40000000 000000000001 .CAC           *19
 40000000 000000000000 .CAE           *19
 40000000 000000000200 .CANSSS        *19
 40000000 000000000400 .CD            *19
 40000000 000000040000 .CFLC          *19
 40000000 000000400000 .CHKSUM        *19
 40000000 000000100000 .CJRNL         *19
 40000000 000000000077 .CNSZ          *19
 41000000 000000160000 .COMC          *19       137
 40000000 000000000020 .CONT          *19
 40000000 000000000000 .CSE           *19
 40000000 000000700000 .CTYP          *19
 41000000 000000000270 .DBEST         *19
 41000000 000000000470 .DBIC          *19       121       205       243       254
 40000000 000000077777 .DBPT          *19
 41000000 000000000370 .DBSTK         *19
 40000000 000000020000 .DELM          *19
 40000000 000000002000 .DIDP          *19
 40000000 000000000077 .DNDX          *19
 40000000 000000600000 .DORD          *19
 40000000 000000000200 .DP            *19
 40000000 000000100000 .DPS           *19
 40000000 000000200000 .DPSA          *19
 40000000 000000400000 .DPST          *19
 40000000 000000000002 .DUMP          *19
 40000000 000000002000 .DUPC          *19
 40000000 000000010000 .DUPP          *19
 40000000 000000200000 .EBCL          *19
 12:41 09/05/97  FILE=ZIM$DBCA.:ZIC0TSI       SYMBOL TABLE                                               14   BMAP - B00
 40000000 000000400000 .EBCM          *19
 40000000 000000200000 .ENCRP         *19
 40000000 000000000077 .ENDX          *19
 40000000 000000000400 .ENQ           *19
 40000000 000000004000 .ETC           *19
 40000000 000000000400 .EXIT          *19
 40000000 000000000200 .FMOD          *19
 40000000 000000000077 .FNL           *19
 40000000 000000000074 .FORG          *19
 40000000 000000002000 .FR            *19
 40000000 000000000100 .FSR           *19
 40000000 000000003400 .FUSE          *19
 40000000 000000010000 .FVF           *19
 40000000 000000040000 .FVR           *19
 40000000 000000000010 .INDEXED       *19
 40000000 000000777777 .IXID          *19
 40000000 000000001777 .IXNUM         *19
 40000000 000000000004 .KEYED         *19
 40000000 000000010000 .LCK           *19
 40000000 000000400000 .LEIL          *19
 40000000 000000001000 .LG            *19
 40000000 000000000002 .LOAD          *19
 40000000 000000020000 .MAR           *19
 40000000 000000000007 .MEMT          *19
 40000000 000000010000 .MRL           *19
 40000000 000000040000 .MSM           *19
 60000000 000000000001 .N6685         *19
 40000000 000000100000 .NAI           *19
 40000000 000000200000 .NBI           *19
 40000000 000000000002 .NCIA          *19
 40000000 000000040000 .NMV           *19
 40000000 000000017777 .NOENT         *19
 40000000 000000400000 .OA            *19
 40000000 000000740000 .OPEV          *19
 40000000 000000100000 .OSM           *19
 40000000 000000100000 .PAFIL         *19
 40000000 000000200000 .PAHVR         *19
 12:41 09/05/97  FILE=ZIM$DBCA.:ZIC0TSI       SYMBOL TABLE                                               15   BMAP - B00
 40000000 000000000001 .PAIA          *19
 40000000 000000040000 .PALIL         *19
 40000000 000000020000 .PALVR         *19
 40000000 000000400000 .PANLL         *19
 40000000 000000400000 .PCKD          *19
 40000000 000000001600 .PMOD          *19
 40000000 000000000520 .PRCSE         *19
 40000000 000000000007 .PSTO          *19
 40000000 000000006040 .PTAS          *19
 40000000 000000010100 .PTCHK         *19
 40000000 000000010200 .PTDEC         *19
 40000000 000000010140 .PTENC         *19
 40000000 000000020000 .RA            *19
 41000000 000000100000 .RC            *19       174
 40000000 000000400000 .RELEASE       *19
 40000000 000000000017 .RELT          *19
 40000000 000000004000 .RERA          *19
 40000000 000000400000 .RERS          *19
 40000000 000000010000 .RKEY          *19
 40000000 000000000077 .RNL           *19
 40000000 000000200000 .RSTO          *19
 40000000 000000007777 .RTYP          *19
 40000000 000000040000 .SC            *19
 40000000 000000000070 .SETM          *19
 40000000 000000740000 .SETO          *19
 40000000 000000000700 .SETT          *19
 40000000 000000040000 .SFNP          *19
 40000000 000000004000 .SM            *19
 40000000 000000020000 .SMOD          *19
 40000000 000000000077 .SNL           *19
 40000000 000000020000 .SNSS          *19
 40000000 000000010000 .SO            *19
 41000000 000000100000 .SR            *19        39
 40000000 000000004000 .SRCR          *19
 40000000 000000001000 .SS            *19
 40000000 000000000007 .SSTP          *19
 40000000 000000004000 .SYN           *19
 12:41 09/05/97  FILE=ZIM$DBCA.:ZIC0TSI       SYMBOL TABLE                                               16   BMAP - B00
 40000000 000000000040 .SYNC          *19
 40000000 000000020000 .TJRNL         *19
 40000000 000000040000 .TMPLT         *19
 40000000 000000040000 .TRACE         *19
 40000000 000000000001 .TRENTRY       *19
 40000000 000000000012 .TRIDEL        *19
 40000000 000000000021 .TRIDELENQ     *19
 40000000 000000000024 .TRIDEQ        *19
 40000000 000000000013 .TRIMOD        *19
 40000000 000000000022 .TRIMODENQ     *19
 40000000 000000000014 .TRIREAD       *19
 40000000 000000000023 .TRIREADENQ    *19
 40000000 000000000011 .TRISTO        *19
 40000000 000000000020 .TRISTOENQ     *19
 40000000 000000000017 .TRPDEQ        *19
 40000000 000000000004 .TRPMOD        *19
 40000000 000000000016 .TRPMODENQ     *19
 40000000 000000000002 .TRPREAD       *19
 40000000 000000000015 .TRPREADENQ    *19
 40000000 000000000003 .TRPWRITE      *19
 40000000 000000000010 .TRRACC        *19
 40000000 000000000006 .TRRDEL        *19
 40000000 000000000007 .TRRMOD        *19
 40000000 000000000005 .TRRSTO        *19
 40000000 000000004000 .ULCK          *19
 40000000 000000400000 .UPDT          *19
 40000000 000000000040 .VIA           *19
 60000000 000000000001 A              *19
 40000000 000000000002 ABAS           *19
 40000000 000000000001 AC             *19
 40000000 777777777760 ACDEF          *19
 40000000 000000211070 ACDNL          *19
 40000000 000000000003 ACID           *19
 40000000 000000001016 ACOPN          *19
 40000000 000000000002 ACP            *19
 40000000 000000000005 ACPTR          *19
 41000000 000000000002 ACRAH          *19       251
 12:41 09/05/97  FILE=ZIM$DBCA.:ZIC0TSI       SYMBOL TABLE                                               17   BMAP - B00
 40000000 000000000001 ACRAN          *19
 40000000 000000001003 ACREC          *19
 40000000 000000000001 ACTDBCB        *19
 40000000 000000000002 ACTDBNO        *19
 40000000 000000001017 ACTP           *19
 40000000 000000000000 ACTSSS         *19
 40000000 000000000000 ACTSZ          *19
 40000000 000000210565 AFNP           *19
 40000000 000000000635 AFT            *19
 40000000 000000022124 AIR            *19
 40000000 000000000016 AMAX           *19
 40000000 000000000026 ANAM           *19
 40000000 000000021614 ANR            *19
 40000000 000000000001 APNO           *19
 40000000 000000210562 ARGER          *19
 41000000 000000000020 ARGS           *19
 40000000 000000000077 ARGS2          *19
 40000000 000000210713 ARNAF          *19
 01101000 000000000175 ASER1          182      *219
 40000000 000000000003 ATBL           *19
 40000000 000000000000 ATRIB          *19
 40000000 000000000002 AVLN           *19
 40000000 000000000013 AWS$           *19
 40000000 000000000010 AWSZ           *19
 60000000 000000000001 B              *19
 40000000 000000001006 B32N           *19
 40000000 000000001007 B36N           *19
 40000000 000000001056 B72N           *19
 40000000 000000000001 BADDR          *19
 40000000 000000210712 BADSEED        *19
 40000000 777777777765 BDCW           *19
 40000000 000000000633 BEF            *19
 40000000 000000020000 BEFW           *19
 40000000 000000000751 BEMT           *19
 40000000 777777777761 BID            *19
 40000000 777777777762 BIND           *19
 40000000 000000000007 BLKD           *19
 12:41 09/05/97  FILE=ZIM$DBCA.:ZIC0TSI       SYMBOL TABLE                                               18   BMAP - B00
 40000000 000000303331 BME02          *19
 41000000 000000001203 BMPB           *19
 40000000 000000000652 BN1            *19
 40000000 000000000654 BN2            *19
 40000000 000000000004 BPL            *19
 40000000 000000000015 BPLDBK         *19
 40000000 000000000034 BSPG           *19
 40000000 777777777763 BSTAT          *19
 40000000 000000000750 BTX0           *19
 41000000 000000001160 BUF4           *19
 41000000 000000001170 BUF6           *19
 41000000 000000000000 BUFORG         *19
 40000000 000000001060 BUFRQ          *19
 40000000 000000000006 BURRID         *19
 41000000 000000000020 BWASZ          *19
 60000000 000000000001 C              *19
 41000000 000000000050 CAAC           *19       123       177
 41000000 000000000050 CACD           *19       127       129       132
 01101000 000000000043 CAER1           34        40       *62
 01101000 000000000053 CAER2           43       *75
 01101000 000000000047 CAER3           46       *67
 40000000 000000000111 CAG            *19
 40000000 000000001033 CAL            *19
 40000000 000000000026 CALLPM0        *19
 40000000 000000000003 CANSSS         *19
 01101000 000000000177 CAR1           214       220       225      *229
 01101000 000000000054 CAR2            66        71        78       *82
 40000000 000000000003 CBCPA          *19
 40000000 000000000002 CBCPO          *19
 40000000 000000000002 CBENO          *19
 40000000 000000000014 CBFSZ          *19
 40000000 000000000753 CBIB           *19
 40000000 000000001030 CBID           *19
 40000000 000000000014 CBRCE          *19
 40000000 000000000014 CBRCP          *19
 40000000 000000001033 CBRID          *19
 40000000 000000000015 CBRPA          *19
 12:41 09/05/97  FILE=ZIM$DBCA.:ZIC0TSI       SYMBOL TABLE                                               19   BMAP - B00
 41000000 000000000031 CCHAR          *19       154       155       160
 40000000 000000000040 CDBK           *19
 41000000 000000000030 CDES           *19       141       146       153
 40000000 000000000110 CDP            *19
 40000000 000000001044 CDPSI          *19
 40000000 000000000002 CDRH           *19
 40000000 000000000003 CDRN           *19
 41000000 000000000002 CDSH           *19       133
 40000000 000000000003 CDSN           *19
 40000000 000000000722 CENTRN         *19
 40000000 000000000722 CENTRO         *19
 40000000 000000000716 CENTRY         *19
 41000000 000000001053 CFCT           *19
 40000000 000000000670 CFLPT1         *19
 40000000 000000000672 CFLPT2         *19
 40000000 000000000015 CFSA           *19
 40000000 000000000646 CHDBK          *19
 40000000 000000000773 CHR            *19
 41000000 000000000006 CHRD           *19       204
 40000000 000000000772 CHRO           *19
 40000000 000000007640 CHRTP          *19
 40000000 000000001043 CIAC           *19
 40000000 000000000012 CIAWS          *19
 40000000 000000001051 CIBSI          *19
 40000000 000000000516 CIND           *19
 40000000 000000001041 CINVSZ         *19
 40000000 000000001042 CIPG           *19
 40000000 000000001050 CIPSI          *19
 40000000 000000000000 CIRUN          *19
 40000000 000000000002 CIRWS          *19
 40000000 000000000002 CISWS          *19
 40000000 000000000014 CIWSOF         *19
 40000000 000000303374 CKSM           *19
 40000000 000000000022 CLCN           *19
 40000000 000000000023 CLCP           *19
 40000000 000000000003 CLCRC          *19
 41000000 000000000003 CLCSC          *19        42
 12:41 09/05/97  FILE=ZIM$DBCA.:ZIC0TSI       SYMBOL TABLE                                               20   BMAP - B00
 01101000 000000000053 CLE1            53       *76
 40000000 000000000237 CLI            *19
 41000000 000000000026 CLNG           *19       144       163
 40000000 000000000052 CMPL           *19
 40000000 000000000002 CN             *19
 40000000 000000303315 CNE1           *19
 40000000 000000006034 CNUL           *19
 40000000 000000100000 COB74          *19
 40000000 000000000001 COFS           *19
 40000000 000000000045 CONCD          *19
 40000000 000000007764 CP6PGSZB       *19
 41000000 000000001775 CP6PGSZW       *19
 40000000 000000001000 CPGR           *19
 40000000 000000000723 CPTRN          *19
 40000000 000000000723 CPTRO          *19
 60000000 000000000004 CPW            *19
 40000000 000000000112 CRA            *19
 40000000 000000001004 CRD            *19
 40000000 000000000764 CREC           *19
 40000000 000000006344 CRIT           *19
 40000000 000000006200 CRNUL          *19
 40000000 000000007330 CRST           *19
 41000000 000000001223 CRUN           *19
 41000000 000000000000 CSECT          *19
 40000000 000000000007 CSMPP          *19
 40000000 000000001000 CSPAC          *19
 40000000 000000000004 CSPAH          *19
 40000000 777777777776 CSPES          *19
 40000000 777777777776 CSPSB          *19
 40000000 000000000115 CSTS           *19
 40000000 000000000071 CSUB           *19
 40000000 000000000017 CSZ            *19
 40000000 000000000057 CTMASK         *19
 40000000 000000000774 CTPAI          *19
 40000000 000000000240 CURLN          *19
 40000000 000000000236 CURLT          *19
 40000000 000000000770 CURPG          *19
 12:41 09/05/97  FILE=ZIM$DBCA.:ZIC0TSI       SYMBOL TABLE                                               21   BMAP - B00
 40000000 000000000001 CURR           *19
 40000000 000000000035 CURRS          *19
 40000000 000000000037 CURSS          *19
 40000000 000000001005 CWRT           *19
 40000000 000000000237 CWSOF          *19
 60000000 000000000001 D              *19
 40000000 000000000003 DBAN           *19
 40000000 000000000036 DBDR           *19
 40000000 000000000037 DBFN           *19
 40000000 000000000754 DBK            *19
 40000000 000000000777 DBKAC          *19
 40000000 000000000000 DBKEY          *19
 40000000 000000000000 DBKL           *19
 40000000 000000007474 DBKN           *19
 41000000 000000000776 DBKR           *19
 40000000 000000000777 DBKRQ          *19
 40000000 000000000234 DBKSI          *19
 40000000 000000000651 DBKSR          *19
 40000000 000000000047 DBKYN          *19
 40000000 000000210652 DBLC01         *19
 40000000 000000210653 DBLC05         *19
 40000000 000000303334 DBLC07         *19
 40000000 000000210655 DBLD01         *19
 40000000 000000000010 DBLIM          *19
 40000000 000000000033 DBPKY          *19
 40000000 000000000023 DBRN           *19
 40000000 000000000013 DBSN           *19
 40000000 000000000001 DBST           *19
 40000000 000000000757 DCDSR          *19
 40000000 000000210650 DCE1           *19
 40000000 000000001053 DCPR           *19
 40000000 000000001053 DCPW           *19
 40000000 000000000015 DCTBL          *19
 40000000 000000000032 DDBK           *19
 40000000 000000000006 DDCB           *19
 40000000 000000011754 DDI            *19
 41000000 000000000000 DEF            *19        38       136       173       184
 12:41 09/05/97  FILE=ZIM$DBCA.:ZIC0TSI       SYMBOL TABLE                                               22   BMAP - B00
 40000000 000000000014 DEF2           *19
 40000000 000000303413 DELAK          *19
 40000000 000000000036 DELRS          *19
 40000000 000000000732 DEPCW          *19
 01101000 000000000152 DIVIDE         189      *191
 40000000 000000303414 DLDBK          *19
 40000000 000000210627 DLE1           *19
 40000000 000000303310 DLE2           *19
 40000000 000000210631 DLE3           *19
 40000000 000000016040 DNES           *19
 40000000 777777777777 DPAGN          *19
 40000000 000000000020 DPPI           *19
 40000000 000000000053 DPSLW          *19
 40000000 000000000003 DS             *19
 40000000 000000001063 DSDES          *19
 40000000 000000303316 DSE1           *19
 40000000 000000000735 DUSEPA         *19
 60000000 000000000001 E              *19
 40000000 000000303251 EDPER          *19
 40000000 000000000026 EEIND          *19
 40000000 000000000713 EFIND          *19
 40000000 000000001030 ELO            *19
 40000000 000000210711 ENCPNA         *19
 40000000 000000000007 ENCRP          *19
 40000000 000000000752 ENDSR          *19
 40000000 000000210647 ENE1           *19
 40000000 000000000716 ENIND          *19
 40000000 000000000013 ENTBL          *19
 40000000 000000000710 ENTNO          *19
 40000000 000000000712 ENTPTR         *19
 40000000 000000000717 ENTSZ          *19
 40000000 000000000711 ENTTYP         *19
 40000000 000000004064 EOSR           *19
 40000000 000000000004 ES             *19
 41000000 000000000100 ESTSZ          *19
 40000000 000000000725 ESZ            *19
 40000000 000000000005 ETCADR         *19
 12:41 09/05/97  FILE=ZIM$DBCA.:ZIC0TSI       SYMBOL TABLE                                               23   BMAP - B00
 40000000 000000000005 ETCDBNO        *19
 40000000 000000000064 EXCCD          *19
 40000000 000000234534 FALRT          *19
 40000000 000000001055 FBF72          *19
 40000000 000000001025 FBU61          *19
 40000000 000000001020 FBUF           *19
 40000000 000000001026 FBUF1          *19
 40000000 000000001027 FBUF4          *19
 40000000 000000001024 FBUF6          *19
 40000000 000000001022 FBUFM          *19
 40000000 000000001021 FBUFU          *19
 40000000 000000001023 FBUMD          *19
 40000000 000000000004 FCN            *19
 40000000 000000000051 FCNT           *19
 40000000 000000000002 FCP            *19
 40000000 000000000047 FCSS           *19
 40000000 000000000005 FD             *19
 40000000 000000210637 FDE1           *19
 41000000 000000303320 FDE2           *19        68
 40000000 000000303321 FDE3           *19
 40000000 000000210642 FDE4           *19
 40000000 000000210643 FDE5           *19
 41000000 000000210644 FDE6           *19       259
 40000000 000000303325 FDE7           *19
 40000000 000000303326 FDE8           *19
 40000000 000000000021 FEASZ          *19
 40000000 000000000740 FETM           *19
 40000000 000000000006 FI             *19
 40000000 000000000103 FIAC           *19
 41000000 000000001100 FIB1           *19
 41000000 000000001130 FIBP           *19
 40000000 000000000000 FIBX           *19
 40000000 000000000102 FICNT          *19
 40000000 000000000005 FIPN           *19
 40000000 000000000054 FKIND          *19
 40000000 000000000015 FLAGS          *19
 40000000 000000000244 FLDDSC         *19
 12:41 09/05/97  FILE=ZIM$DBCA.:ZIC0TSI       SYMBOL TABLE                                               24   BMAP - B00
 40000000 000000000046 FLDTL          *19
 40000000 000000000020 FMSBF          *19
 40000000 000000000006 FNAM           *19
 40000000 000000000250 FNIND          *19
 40000000 000000000004 FNL            *19
 40000000 000000000101 FRAC           *19
 01101000 000000000175 FRAE1          179      *218
 41000000 000000000002 FRANGE         *19       185
 40000000 000000211400 FRDNL          *19
 40000000 000000200000 FRTRN          *19
 40000000 000000000005 FRWSO          *19
 40000000 000000000767 FSLN           *19
 40000000 000000000766 FSOF           *19
 40000000 000000000060 FTIND          *19
 40000000 000000303240 FTLINCR        *19
 40000000 000000000021 FWSSZ          *19
 40000000 000000000246 GACDK          *19
 40000000 000000000014 GDCB           *19
 41000000 000000000006 GERROR         *19        43        49        53       179       182
 40000000 000000000016 GINHIB         *19
 40000000 000000000020 GIOAWS         *19
 40000000 000000000022 GIOBUF         *19
 40000000 000000000021 GIOPGNO        *19
 40000000 000000000015 GPAGE          *19
 01101000 000000000143 GRA            180      *183
 01101000 000000000205 GRAL1         *248       252
 40000000 000000000010 GRETAC         *19
 40000000 000000000011 GRETFR         *19
 40000000 000000000013 GRETRC         *19
 40000000 000000000012 GRETSC         *19
 40000000 000000000025 GRLCW          *19
 40000000 000000000014 GSTCD          *19
 40000000 000000000007 GSYSERR        *19
 40000000 000000000010 GT             *19
 40000000 000000000046 GTRNAME        *19
 40000000 000000000055 GTRPDCB        *19
 40000000 000000000056 GTRPNO         *19
 12:41 09/05/97  FILE=ZIM$DBCA.:ZIC0TSI       SYMBOL TABLE                                               25   BMAP - B00
 40000000 000000000057 GTRRDBK        *19
 40000000 000000000060 GTRRTYPE       *19
 40000000 000000000060 GTRTYPE        *19
 41000000 000000000027 HASH           *19       122       150       166       198
 40000000 000000000022 HIA            *19
 40000000 000000000775 HIDB           *19
 40000000 000000000003 HIGHDBK        *19
 40000000 000000000004 HIGHPG         *19
 40000000 000000001037 HIL            *19
 40000000 000000000002 HILN           *19
 40000000 000000000006 HPOS           *19
 40000000 000000000756 IAAC           *19
 40000000 000000001011 IACLN          *19
 40000000 000000001010 IALC           *19
 40000000 000000010314 IAN            *19
 40000000 000000001012 IANLN          *19
 40000000 000000000001 IASID          *17
 40000000 000000020320 ICA            *19
 40000000 000000000023 ICKSMP         *19
 40000000 000000000024 ICKSMV         *19
 40000000 000000210742 ICNR           *19
 41000000 000000000020 ICSIZ          *19
 40000000 000000010004 IDBK           *19
 40000000 000000012120 IDI            *19
 40000000 000000000023 IDS            *19
 40000000 000000000011 IF             *19
 40000000 000000000021 IFIPN          *19
 40000000 000000000000 IFR            *19
 40000000 000000234546 IKSEQ          *19
 40000000 000000000113 INAFLAG        *19
 40000000 000000000016 INCHA          *19
 40000000 000000210566 INNM           *19
 40000000 000000210567 INSS           *19
 40000000 000000210575 INSST          *19
 40000000 000000303241 INTER          *19
 40000000 000000400000 INTII          *19
 41000000 000000000013 INTVL          *19       201
 12:41 09/05/97  FILE=ZIM$DBCA.:ZIC0TSI       SYMBOL TABLE                                               26   BMAP - B00
 40000000 000000001060 INVFLG         *19
 40000000 000000001043 INVOF          *19
 40000000 000000000014 INVT           *19
 40000000 000000000034 IOBLK          *19
 40000000 000000303354 IOCLSD         *19
 40000000 000000303355 IOCLSK         *19
 40000000 000000303257 IOE1           *19
 40000000 000000303264 IOE11          *19
 40000000 000000303265 IOE12          *19
 40000000 000000303266 IOE18          *19
 40000000 000000303260 IOE2           *19
 40000000 000000303261 IOE3           *19
 40000000 000000303262 IOE7           *19
 40000000 000000303263 IOE8           *19
 40000000 000000303363 IOFLSH         *19
 40000000 000000210676 IOGDCB         *19
 40000000 000000001002 IOINC          *19
 40000000 000000305160 IOINI          *19
 40000000 000000305155 IONOTIDS       *19
 40000000 000000305154 IONOTKEY       *19
 40000000 000000210677 IOOPND         *19
 40000000 000000210700 IOOPNK         *19
 40000000 000000303361 IORDD          *19
 40000000 000000305156 IOSCHEMA       *19
 40000000 000000001052 IOSTS          *19
 40000000 000000303362 IOWRTD         *19
 41000000 000000000750 IOWS           *19
 40000000 000000000647 IPC            *19
 40000000 000000000650 IPCF           *19
 40000000 000000000006 IROLLFLAG      *19
 41000000 000000010150 IRSN           *19        63
 40000000 000000000004 ISYSDCB        *19
 40000000 000000000005 ISYSERR        *19
 40000000 000000000061 ITPTR          *19
 40000000 000000000060 ITRS           *19
 40000000 000000021760 IUM            *19
 40000000 000000000017 IUSZ           *19
 12:41 09/05/97  FILE=ZIM$DBCA.:ZIC0TSI       SYMBOL TABLE                                               27   BMAP - B00
 40000000 000000234522 IVDBK          *19
 40000000 000000000011 IXBUF$         *19
 40000000 000000000046 IXFBSZ         *19
 40000000 777777777776 IXID           *19
 40000000 777777777777 IXPLL          *19
 40000000 000000000523 KCARG0         *19
 40000000 000000000524 KCARG3         *19
 40000000 000000000525 KCARG4         *19
 40000000 000000000700 KCREG          *19
 40000000 000000000006 KDCB           *19
 40000000 000000000666 KEYDS          *19
 40000000 000000000010 KEYPA          *19
 40000000 777777777776 KLNG           *19
 40000000 000000000022 KPASZ          *19
 40000000 000000000006 KWSZ           *19
 40000000 000000000052 LANGC          *19
 40000000 000000001014 LAS            *19
 40000000 000000700000 LCODM          *19
 40000000 000000001045 LDPSI          *19
 01101000 000000000124 LFR            131      *171
 40000000 000000001071 LINPT          *19
 40000000 000000001017 LNCNT          *19
 40000000 000000000762 LNNO           *19
 40000000 000000001036 LOL            *19
 40000000 000000000715 LOLIM          *19
 01101000 000000000061 LOOP1         *128       167
 01101000 000000000105 LOOP2         *151       164
 01101000 000000000007 LOOP3          *32        36
 40000000 000000000023 LPASZ          *19
 40000000 000000000012 LPP            *19
 40000000 000000257764 LR             *19
 40000000 000000301270 LRA            *19
 40000000 000000000017 LRSZ           *19
 40000000 000000001035 LSPC           *19
 40000000 000000000750 LUPD           *19
 61000000 000000000001 M9             *19
 40000000 000000000013 MD             *19
 12:41 09/05/97  FILE=ZIM$DBCA.:ZIC0TSI       SYMBOL TABLE                                               28   BMAP - B00
 40000000 000000300000 MDQS           *19
 40000000 000000000730 MEMPTR         *19
 40000000 000000000727 MEMTYP         *19
 00101000 000000000176 MKER5         *224
 40000000 000000000045 MODCD          *19
 41000000 000000001207 MODFL          *19
 40000000 000000000042 MODFR          *19
 40000000 000000000044 MODIN          *19
 40000000 000000000044 MODRS          *19
 40000000 000000000043 MODSC          *19
 40000000 000000000047 MRBKI          *19
 40000000 000000210632 MRE4           *19
 40000000 000000303313 MRE5           *19
 40000000 000000210634 MRE7           *19
 01101000 000000000053 MSER1           49       *77
 40000000 000000400000 MW             *19
 41000000 000000000025 NCH            *19       191       195       200
 41000000 000000000002 NCHA           *19       188
 41000000 000000000005 NCHRS          *19       190
 40000000 000000000014 NDCD           *19
 40000000 000000000012 NENC           *19
 40000000 000000000634 NEW            *19
 40000000 000000001072 NEWSIZ         *19
 40000000 000000235164 NKA            *19
 40000000 000000235020 NKDB           *19
 40000000 000000303415 NLDBK          *19
 40000000 777777777777 NLIND          *19
 40000000 000000001040 NLN            *19
 40000000 000000400000 NLNSA          *19
 41000000 000000001053 NOBF           *19
 40000000 000000000711 NOPTRS         *19
 40000000 000000000742 NPARCW         *19
 40000000 000000000630 NPIND          *19
 40000000 000000000004 NPOS           *19
 40000000 000000234510 NSA            *19
 40000000 000000234654 NSCS           *19
 40000000 000000234344 NSDB           *19
 12:41 09/05/97  FILE=ZIM$DBCA.:ZIC0TSI       SYMBOL TABLE                                               29   BMAP - B00
 40000000 000000000001 NSTS           *19
 40000000 000000000726 NUMENT         *19
 40000000 000000000727 NUMPTR         *19
 40000000 777777777760 NXBUF          *19
 40000000 000000000713 NXPRI          *19
 40000000 000000000771 NXTC           *19
 40000000 000000000001 OAACN          *19
 40000000 000000000022 OACIWSOF       *19
 41000000 000000000001 OAOFST         *19        31        42
 41000000 000000000002 OARCN          *19        33
 40000000 000000000001 OASCN          *19
 40000000 000000000014 OD             *19
 40000000 000000000074 ODBK           *19
 40000000 000000001072 OLDSIZ         *19
 40000000 000000000101 OPADP          *19
 40000000 000000000741 OPARCW         *19
 40000000 000000210570 ORDNI          *19
 40000000 777777777777 OTVL           *19
 40000000 000000000252 OWNPTR         *19
 40000000 000000000016 PABUF          *19
 40000000 000000001041 PACD           *19
 40000000 000000000001 PACW           *19
 40000000 000000000733 PADBK          *19
 40000000 000000000740 PADUP          *19
 40000000 000000000745 PAEN           *19
 40000000 000000000745 PAEO           *19
 40000000 000000000734 PAEOF          *19
 40000000 000000303336 PAER1          *19
 40000000 000000303337 PAER2          *19
 40000000 000000303340 PAER3          *19
 40000000 000000303341 PAER4          *19
 40000000 000000303342 PAER5          *19
 40000000 000000303343 PAER6          *19
 40000000 000000000747 PAESZ          *19
 40000000 000000001060 PAFLG          *19
 40000000 000000000731 PAOPTR         *19
 40000000 000000000734 PAPOF          *19
 12:41 09/05/97  FILE=ZIM$DBCA.:ZIC0TSI       SYMBOL TABLE                                               30   BMAP - B00
 40000000 000000000714 PARCW          *19
 40000000 000000000726 PARVPA         *19
 40000000 000000000724 PASPLT         *19
 40000000 000000000004 PAWSZ          *19
 40000000 777777777762 PBUF           *19
 40000000 000000000020 PC             *19
 41000000 000000000510 PCB            *19
 40000000 000000000642 PCD            *19
 40000000 000000000642 PCD2           *19
 40000000 000000000247 PCEXI          *19
 40000000 000000000675 PCMIN          *19
 40000000 000000004541 PCOMP          *19
 40000000 000000000010 PD             *19
 40000000 000000000040 PE             *19
 40000000 000000000017 PENDING        *19
 40000000 000000000004 PF             *19
 40000000 000000000400 PFG            *19
 40000000 000000000200 PFM            *19
 40000000 000000000100 PFS            *19
 40000000 000000000400 PG             *19
 40000000 000000001064 PGHD           *19
 40000000 000000000006 PGLIM          *19
 41000000 000000000003 PGRNG          *19       203
 40000000 000000000746 PGSIZE         *19
 40000000 000000000641 PGSPLT         *19
 01101000 000000000137 PKAC           178      *181
 40000000 000000000100 PKAW           *19
 40000000 000000001034 PLO            *19
 40000000 000000000004 PLSEP          *19
 40000000 000000000200 PM             *19
 40000000 000000001054 PNEOO          *19
 40000000 000000001047 POFSI          *19
 40000000 000000000005 PPOS           *19
 41000000 000000000000 PR0            *17        27        28        55        56
 40000000 000000000001 PR1            *17
 40000000 000000000002 PR2            *17
 41000000 000000000003 PR3            *17       149
 12:41 09/05/97  FILE=ZIM$DBCA.:ZIC0TSI       SYMBOL TABLE                                               31   BMAP - B00
 40000000 000000000004 PR4            *17
 41000000 000000000005 PR5            *17        43        49        53       179       182
 41000000 000000000006 PR6            *17        33        35        38        42        45       130
                                      133       135       136       172       173       184       187
                                      190       201       203       204       249       251
 41000000 000000000007 PR7            *17        47        51       121       122       123       127
                                      129       132       141       144       146       149       150
                                      153       154       155       160       163       166       177
                                      188       191       195       198       200       205       243
                                      254
 40000000 000000303267 PRE1           *19
 40000000 000000303277 PRE10          *19
 40000000 000000303270 PRE3           *19
 40000000 000000303271 PRE4           *19
 40000000 000000303272 PRE5           *19
 40000000 000000210613 PRE6           *19
 40000000 000000210614 PRE7           *19
 40000000 000000210615 PRE8           *19
 40000000 000000303276 PRE9           *19
 40000000 000000000522 PREXC          *19
 40000000 000000000521 PRFR           *19
 40000000 000000000521 PRFR2          *19
 40000000 000000000000 PRIV           *19
 40000000 000000000526 PROPA          *19
 40000000 000000000517 PRRC           *19
 40000000 000000000517 PRRS           *19
 40000000 000000000520 PRSC           *19
 41000000 000000000516 PRSS           *19        47        51
 40000000 000000000644 PRSTS          *19
 40000000 000000000100 PS             *19
 41000000 000000000000 PS0SID         *17
 41000000 000000000001 PS1SID         *17
 41000000 000000000002 PS2SID         *17
 41000000 000000000003 PS3SID         *17
 41000000 000000000004 PS4SID         *17
 41000000 000000000005 PS5SID         *17        55
 40000000 000000000006 PS6SID         *17
 12:41 09/05/97  FILE=ZIM$DBCA.:ZIC0TSI       SYMBOL TABLE                                               32   BMAP - B00
 40000000 000000303416 PSA            *19
 40000000 000000000020 PSC            *19
 40000000 000000000010 PSD            *19
 40000000 000000000004 PSF            *19
 40000000 000000000400 PSO            *19
 40000000 000000000720 PTESZ          *19
 40000000 000000000631 PTR            *19
 40000000 000000000724 PTRESZ         *19
 40000000 000000000710 PTRNO          *19
 41000000 000000000630 PWS            *19
 01101000 000000000151 RACLC          186      *190
 40000000 000000000002 RADDR          *19
 40000000 000000000010 RADIX          *19
 01101000 000000000213 RAFE1          250      *258
 00101000 000000000102 RAND          *147
 40000000 000000000005 RAPTR          *19
 40000000 000000000004 RAWSOF         *19
 40000000 777777777766 RBA            *19
 40000000 000000023432 RCBI           *19
 40000000 000000211234 RCDNL          *19
 01101000 000000000170 RCER1          175      *209
 41000000 000000000005 RCFRH          *19       172
 40000000 000000000004 RCFRN          *19
 40000000 000000001075 RCHD           *19
 41000000 000000000001 RCID           *19        35
 40000000 000000000006 RCPTR          *19
 40000000 000000000002 RCRAH          *19
 41000000 000000000001 RCRAN          *19       249
 40000000 000000000003 RCRSH          *19
 40000000 000000000002 RCRSN          *19
 40000000 000000210667 RCVER1         *19
 40000000 000000210670 RCVER2         *19
 40000000 000000210671 RCVER4         *19
 40000000 000000210672 RCVER5         *19
 40000000 000000210673 RCVER6         *19
 40000000 000000000736 RCW1           *19
 40000000 000000000737 RCW2           *19
 12:41 09/05/97  FILE=ZIM$DBCA.:ZIC0TSI       SYMBOL TABLE                                               33   BMAP - B00
 40000000 000000000004 RCWSO          *19
 40000000 000000000077 RDAC           *19
 40000000 000000000076 RDCNT          *19
 40000000 000000040000 RDI            *19
 40000000 000000015674 RDLT           *19
 40000000 000000000075 RDYCW          *19
 40000000 000000000066 RECAC          *19
 40000000 000000000065 RECFR          *19
 40000000 000000000070 RECRC          *19
 40000000 000000000067 RECSC          *19
 40000000 000000000003 RECSZ          *19
 40000000 000000000235 REMLT          *19
 40000000 000000000062 REM_RECOVER    *19
 40000000 000000000251 RETFR          *19
 40000000 000000210724 RFDNL          *19
 40000000 000000017644 RIM            *19
 40000000 000000000005 RNAM           *19
 40000000 000000015706 RNDLT          *19
 40000000 000000000662 RNG1           *19
 40000000 000000000664 RNG2           *19
 40000000 000000000073 RNGD           *19
 40000000 000000000072 RNGO           *19
 40000000 000000000660 RNGTAL         *19
 40000000 000000020154 RNM            *19
 40000000 000000000041 ROCUR          *19
 41000000 000000000001 ROFST          *19       135
 40000000 000000002114 ROLL           *19
 40000000 000000020010 RPM            *19
 40000000 000000000001 RSCDH          *19
 41000000 000000000001 RSCDN          *19       130
 40000000 000000211710 RSDNL          *19
 40000000 000000004540 RSEE           *19
 40000000 000000000003 RSIZ           *19
 40000000 000000000110 RSPAM          *19
 40000000 000000000004 RSPTR          *19
 40000000 000000000037 RSREQ          *19
 40000000 000000000002 RSSSH          *19
 12:41 09/05/97  FILE=ZIM$DBCA.:ZIC0TSI       SYMBOL TABLE                                               34   BMAP - B00
 41000000 000000000001 RSSSN          *19        45
 40000000 000000210574 RSZER          *19
 40000000 000000000632 RSZTP          *19
 40000000 000000000003 RTP            *19
 40000000 000000000003 RTYP           *19
 40000000 000000000530 RV1            *19
 40000000 000000000550 RV2            *19
 40000000 000000000570 RV3            *19
 40000000 000000000610 RV4            *19
 40000000 000000000003 RVASID         *17
 40000000 000000000510 RVI            *19
 40000000 000000000511 RVO            *19
 40000000 000000000513 RVPA           *19
 40000000 000000000512 RVT            *19
 40000000 000000000022 RVTAL          *19
 40000000 000000000002 RWSZ           *19
 40000000 000000000015 RY             *19
 40000000 000000210620 RYE1           *19
 40000000 000000210621 RYE4           *19
 01101000 000000000164 RZERO          196      *202
 40000000 777777777767 SA             *19
 40000000 000000000005 SANAM          *19
 40000000 000000001062 SCDES          *19
 40000000 000000211544 SCDNL          *19
 40000000 000000000024 SCFC           *19
 40000000 000000000002 SCID           *19
 40000000 000000000024 SCLST          *19
 40000000 000000000004 SCNAM          *19
 40000000 000000000004 SCPTR          *19
 40000000 000000000003 SCRSH          *19
 40000000 000000000002 SCRSN          *19
 40000000 000000000001 SCWSO          *19
 40000000 000000001225 SFWS           *19
 40000000 000000001073 SIZCHG         *19
 40000000 000000000645 SKFLG          *19
 40000000 000000000643 SKIND          *19
 40000000 000000000641 SKTYP          *19
 12:41 09/05/97  FILE=ZIM$DBCA.:ZIC0TSI       SYMBOL TABLE                                               35   BMAP - B00
 40000000 000000020464 SMCR           *19
 40000000 000000000003 SNAM           *19
 40000000 000000000107 SNIND          *19
 40000000 000000000735 SNPAE          *19
 40000000 000000001046 SNSI           *19
 40000000 000000000743 SOE            *19
 40000000 000000020630 SORSA          *19
 40000000 000000004374 SOSE           *19
 40000000 000000000000 SPAV           *19
 40000000 000000000744 SPCAVN         *19
 40000000 000000000744 SPCAVO         *19
 40000000 000000000765 SPLF           *19
 41000000 000000000765 SPND           *19
 40000000 000000000006 SSDT           *19
 41000000 000000303243 SSER           *19       210
 40000000 000000303244 SSER1          *19
 40000000 000000000002 SSH            *19
 40000000 000000000005 SSNAM          *19
 40000000 000000210573 SSNF           *19
 40000000 000000210576 SSNV           *19
 40000000 000000000020 SSSPTR         *19
 40000000 000000000010 SSVDT          *19
 40000000 000000000033 SSZTP          *19
 40000000 000000000017 ST             *19
 40000000 000000000104 STBIN          *19
 40000000 000000000105 STDEC          *19
 40000000 000000303302 STE1           *19
 40000000 000000303303 STE2           *19
 40000000 000000210624 STE3           *19
 40000000 000000303305 STE4           *19
 40000000 000000303306 STE5           *19
 41000000 000000000100 STKSIZ         *19
 40000000 000000000055 STMASK         *19
 40000000 000000000062 SUST           *19
 41000000 000000000020 SWS            *19
 40000000 000000000000 SWSAC          *19
 40000000 000000000002 SWSZ           *19
 12:41 09/05/97  FILE=ZIM$DBCA.:ZIC0TSI       SYMBOL TABLE                                               36   BMAP - B00
 40000000 000000000000 SYSSF          *19
 40000000 000000000765 SZREQ          *19
 41000000 000000000004 TBUF           *19       149
 40000000 000000001061 TCTRS          *19
 60000000 000000000000 TDS            *19
 41000000 000000000113 TEMP           *19
 40000000 000000000640 TFLD           *19
 40000000 000000000657 TFLD2          *19
 40000000 000000000056 TMASK          *19
 40000000 000000000061 TMODE          *19
 40000000 000000000676 TMPPA          *19
 40000000 000000000003 TPAI           *19
 40000000 000000500000 TPRCOD         *19
 40000000 000000001031 TSFN           *19
 40000000 000000000021 TSI            *19
 40000000 000000001013 UBRD2          *19
 41000000 000000001223 UBSZ           *19
 40000000 000000000667 UCADR          *19
 40000000 000000000036 UCRS           *19
 40000000 000000000024 UFSPK          *19
 40000000 000000000024 UFSPK2         *19
 40000000 000000000715 ULIM           *19
 40000000 000000004230 UNA            *19
 40000000 000000303417 UNIM           *19
 40000000 000000000002 UOFST          *19
 40000000 000000001035 UPACD          *19
 40000000 000000000721 UPACW          *19
 40000000 000000000007 UPFLAG         *19
 40000000 000000000103 UPPAI          *19
 40000000 000000000004 UPTSID         *17
 40000000 000000000674 USTAT          *19
 40000000 000000000002 UWASID         *17
 40000000 000000000002 UWSSZ          *19
 40000000 000000000020 UWSZ           *19
 40000000 000000000243 VFDSC          *19
 40000000 000000001070 VFDSR          *19
 40000000 000000000656 VFLD           *19
 12:41 09/05/97  FILE=ZIM$DBCA.:ZIC0TSI       SYMBOL TABLE                                               37   BMAP - B00
 40000000 000000001074 VFLNG          *19
 40000000 000000001124 VIB1           *19
 40000000 000000001154 VIBP           *19
 41000000 000000000000 VLPSID         *17        27
 40000000 000000001074 VRSIZ          *19
 40000000 000000001067 WLOA           *19
 40000000 000000100000 WRTI           *19
 40000000 000000000000 WSBID          *19
 41000000 000000000003 WSOF           *19       187
 41000000 000000000000 X0             *17        52        64        69       123       129       130
                                      132       177       211
 41000000 000000000001 X1             *17        38        39        43        49        53       121
                                      136       137       138       148       162       163       173
                                      174       179       182       184       185       187       205
                                      243       254
 40000000 000000000002 X2             *17
 40000000 000000000003 X3             *17
 41000000 000000000004 X4             *17        45        47        51       127       133       244
                                      249
 40000000 000000000005 X5             *17
 41000000 000000000006 X6             *17        42        65        70       212       260
 03201004 000000000000 X66_ARET       *17        58
 03201003 000000000000 X66_AUTO_0     *17        23
 41000000 000000000007 X7             *17        31        33       172       213
 40000000 000000210665 XASL           *19
 40000000 000000303420 XLD            *19
 40000000 000000303421 XPD            *19
 40000000 000000000676 XPRS           *19
 40000000 000000210666 XROLL          *19
 40000000 000000210664 XUNEX          *19
 40000000 777777777777 XXDPN          *19
 03201005 000000000000 ZIB$DBALT      *83
 03201006 000000000000 ZIB$ICALT     *230      *261
 01101000 000000000200 ZIG$DBGRA      179      *242
 03201001 000000000000 ZIG$DBGRS      *15        43
 03201002 000000000000 ZIG$DBPMS      *15        49
 12101000 000000000000 ZIM$CALC        11       *22
 12:41 09/05/97  FILE=ZIM$DBCA.:ZIC0TSI       SYMBOL TABLE                                               38   BMAP - B00
 13101000 000000000055 ZIQ$DBCLC       12        53      *120
 03201000 000000000000 ZIQ$DBMAS      *14       182

     953 SYMBOLS

 12:41 09/05/97  FILE=ZIM$DBCA.:ZIC0TSI       MACRO TABLE                                                39   BMAP - B00
 CBSYM           19
 DBALT           83
 DBCAL           43        49        53       179       182
 DBRET           58
 DBSAV           23
 ICALT          230       261
 ICCAL           53       179       182
 ICRET          205       254
 ICSAV          121       243
 Q2SYM           19
 SSSYM           19

      37 MACROS

    SYMBOL SPACE USED  9201 WORDS
     MACRO SPACE USED 13055 WORDS
   INPUT RECORDS READ  2326
 STATEMENTS PROCESSED  2183
         ELAPSED TIME  0:10.76
             CPU TIME    10.16 SEC.
        ASSEMBLY RATE 12892 STATEMENTS/CPU MIN.

      NO ERRORS

