
 12:41 09/05/97  FILE=ZIM$DBCN.:ZIC0TSI                                                                  1    BMAP - B00
                                         1  *M*      ZIG$DBCN
                                         2  *T***********************************************************
                                         3  *T*                                                         *
                                         4  *T* Copyright (c) Bull HN Information Systems Inc., 1997    *
                                         5  *T*                                                         *
                                         6  *T***********************************************************

 12:41 09/05/97  FILE=ZIM$DBCN.:ZIC0TSI       H6600H2.506     IDS/II CONNECT                 780214DBCN  2    BMAP - B00
                                         7         TTL     H6600H2.506     IDS/II CONNECT                 780214DBCN
                                         8         CPR     1974
                                         9         PMC     OFF
                                        10         ENTDEF  ZIG$DBCON
                                        11        ENTREF  ZIG$DBPCR,ZIG$DBPFI
                                        12        ENTREF  ZIM$DBPLK,ZIM$DBPUL,ZIM$DBPMR
                                        13           ENTREF   ZIM$PCON
                                        14         ENTREF  ZIG$DBPMA
                                        15         ENTREF  ZIG$DBGRS,ZIG$DBAF
                                        16         ENTREF  ZIG$DBAKP
                                        17         ENTREF  ZIB$FPTRECOVER
                                        18         ENTREF  ZIB$CLRRECOVER
                                        19          ENTREF  ZIO$DBBCC
                                        20         LODM    Q2MA
                                        21         Q2SYM

 12:41 09/05/97  FILE=ZIM$DBCN.:ZIC0TSI       IDS-II CONNECT SUBROUTINE                                  3    BMAP - B00
                                        22         TTLS    IDS-II CONNECT SUBROUTINE
                                        23  ****************************************************************
                                        24  *
                                        25  *  - DBCON -
                                        26  *
                                        27  *      CONNECT.  Connect the current of run into the
                                        28  *      specified set.
                                        29  *
                                        30  *      Parameter   Description
                                        31  *      ---------   -----------
                                        32  *
                                        33  *          0       IA
                                        34  *          1       UWA
                                        35  *          2       FPT
                                        36  *
                                        37  *      FPT Format...
                                        38  *
                                        39  *      Word 0:  RVA offset to a schema subset element which
                                        40  *          describes a data base record.  This argument will
                                        41  *          be zero if no record type is specified.
                                        42  *      Word 1:  RVA offset to a schema subset element which
                                        43  *          describes a set
                                        44  *
                                        45  ****************************************************************
                                        46  *
 0 000000                               47  ZIG$DBCON NULL
   000000  X 000000 7000 00             48           DBSAV
   000001    000004 000000
                                        49  *  Set RECOVER addr for FPT checker
   000002  X 000000 7010 00             50         DBCAL   ZIB$FPTRECOVER,,CNR1
   000003 (0)000250 7020 00
   000004    5 00006 2341 00
   000005    777776 6010 04
                                        51  *  GET CURRENT OF RUN
   000006  X 000000 7010 00             52         DBCAL   ZIG$DBPCR,,GCER4 GET CURR OF RUN
   000007 (0)000247 7020 00
   000010    5 00006 2341 00
 12:41 09/05/97  FILE=ZIM$DBCN.:ZIC0TSI       IDS-II CONNECT SUBROUTINE                                  4    BMAP - B00
   000011    777776 6010 04
                                        53  *  GET ARGUMENTS
   000012    000000 4704 07             54         LDP    PR0,VLPSID,DL            VLP$
   000013    000003 4714 07             55           LDP      PR1,RVASID,DL           RVA$
   000014    0 00001 2261 00            56         LDX     X6,1,,PR0            Get offset to SC pointer from FPT
   000015    1 00000 2261 16            57           LDX      X6,,X6,PR1           Get SC offset from RVA
   000016    0 00000 2271 00            58         LDX     X7,0,,PR0            Get offset to RC pointer from FPT
   000017    1 00000 2271 17            59           LDX      X7,,X7,PR1           Get RC offset from RVA
   000020 (0)000026 6000 00             60         TZE     NRC2                 B/ If no RC is given
                                        61         IFE     A,1,%CK1
   000021    6 00000 2211 17            62         LDX     X1,DEF,X7,PR6   GET DEF TYPE FROM RC
   000022    100000 3010 03             63         CANX    X1,.RC,DU       IS IT AN RC
   000023 (0)000212 6000 00             64         TZE     CALE2           NO - ERROR
                                        65  CK1    MARK
   000024    7 01224 1071 00            66         CMPX    X7,CRUN+1,,PR7  IS TYPE REQ. SAME AS CURR OF RUN
   000025 (0)000217 6010 00             67         TNZ     CALE3           NO
   000026                               68  NRC2   NULL
                                        69         IFE     A,1,%CK1
   000026    6 00000 2211 16            70         LDX     X1,DEF,X6,PR6   GET DEF TYPE FROM SC
   000027    040000 3010 03             71         CANX    X1,.SC,DU       IS IT AN SC
   000030 (0)000212 6000 00             72         TZE     CALE2           NO - ERROR
                                        73  CK1    MARK
   000031    7 00520 7461 00            74         STX     X6,PRSC,,PR7    PUT SC IN PRIM. CALL
                                        75  *  CHECK THAT SET IS IN SUB-SCHEMA
   000032    6 00000 7211 16            76         LXL     X1,DEF,X6,PR6
   000033    020000 3010 03             77         CANX    X1,.SNSS,DU     IS IT IN SS
   000034    000170 6010 04             78         TNZ     CONE1,$         NO - ERROR
                                        79  *  CHECK SET PRIVACY
   000035    6 00001 2211 16            80         LDX     X1,SCWSO,X6,PR6  GET WORK SPACE OFST
   000036    7 00000 2211 11            81         LDX     X1,PRIV,X1,PR7
   000037    000020 3010 03             82         CANX    X1,PSC,DU       IS PRIVACY SATISFIED
   000040 (0)000234 6000 00             83         TZE     PRVE2           NO
                                        84  *  INIT RLCW SO NO CURRENCIES ARE RETAINED IN SOS RETRIEVAL
   000041    5 00025 4501 00            85           STZ      GRLCW,,PR5
                                        86  *  LOCK BUF FOR INPUT REC VAR & SET MW SWITCH
   000042    7 00510 2231 00            87        LOCK    RVI
   000043  X 000000 7010 00
 12:41 09/05/97  FILE=ZIM$DBCN.:ZIC0TSI       IDS-II CONNECT SUBROUTINE                                  5    BMAP - B00
   000044    000000 0020 00
   000045    7 00510 2231 00            88        LDX     X3,RVI,,PR7
   000046  X 000000 7010 00             89        DBCAL   ZIM$DBPMR,NOEXC,LKER5    LOCK AND SET MUST WRITE
   000047 (0)000247 7020 00
                                        90  *  PUT CURR OF RUN IN TEMP REC VAR
   000050    7 00510 2351 00            91         LDA     RVI,,PR7        *
   000051    7 00512 2361 00            92         LDQ     RVT,,PR7        * MAKE THE CURR OF RUN
   000052    7 00512 7551 00            93         STA     RVT,,PR7        *  THE TEMP REC VAR
   000053    7 00510 7561 00            94         STQ     RVI,,PR7        *
                                        95  *  CHECK REC PRIVACY
   000054    7 00512 2211 00            96         LDX     X1,RVT,,PR7
   000055    7 00006 2271 11            97         LDX     X7,RCPTR,X1,PR7  GET RC PTR
   000056    6 00004 2211 17            98         LDX     X1,RCWSO,X7,PR6  GET WORK SPACE OFST
   000057    7 00000 2211 11            99         LDX     X1,PRIV,X1,PR7
   000060    000020 3010 03            100         CANX    X1,PC,DU        IS PRIVACY SATISFIED
   000061 (0)000230 6000 00            101         TZE     PRVE1           NO
                                       102  *  GET RS PTR
   000062    7 00520 2261 00           103         LDX     X6,PRSC,,PR7    GET SC PTR
   000063  X 000000 7010 00            104         DBCAL   ZIG$DBGRS,,RSER1
   000064 (0)000246 7020 00
   000065    5 00006 2341 00
   000066    777776 6010 04
   000067    7 00512 2211 00           105         LDX     X1,RVT,,PR7
   000070    7 00004 7461 11           106         STX     X6,SCPTR,X1,PR7  SAVE SC PTR
   000071    7 00004 4451 11           107         SXL     X5,RSPTR,X1,PR7  SAVE RS PTR
                                       108  *  CHECK THAT REC IS MANUAL MEMBER
   000072    6 00000 7211 15           109         LXL     X1,DEF,X5,PR6
   000073    040000 3010 03            110         CANX    X1,.MSM,DU      IS IT MANUAL MEMBER
   000074 (0)000077 6010 00            111         TNZ     *+3             YES
   000075    100000 3010 03            112         CANX    X1,.OSM,DU      IS IT AN OPTIONAL MEMBER
   000076 (0)000243 6000 00            113         TZE     NMM             NO - ERROR - NOT MANUAL OR OPTIONAL
                                       114  *  CHECK THAT REC ISN'T NOW A MEMBER
   000077    7 00512 2211 00           115         LDX     X1,RVT,,PR7
   000100    7 00002 4735 11           116         LDP     PR3,RADDR,X1,PR7  GET REC ADDR
   000101    000 1 100 1015 20         117         MRL     (1,,1),(1),0,1  * MOVE
   000102    6 00004 0001 15           118         ARG     NPOS,X5,PR6     *  NEXT PTR TO
   000103    7 00061 0 0 0 0004        119         ADSC9   ITPTR,0,4,PR7        Work space
 12:41 09/05/97  FILE=ZIM$DBCN.:ZIC0TSI       IDS-II CONNECT SUBROUTINE                                  6    BMAP - B00
   000104    7 00061 2341 00           120         SZN     ITPTR,,PR7      IS REC IN SET
   000105 (0)000240 6010 00            121         TNZ     CNER1           YES
                                       122  *  GET SET OCCUR. TO INSERT INTO
   000106    7 00512 2211 00           123         LDX     X1,RVT,,PR7
   000107    7 00004 7251 11           124         LXL     X5,RSPTR,X1,PR7
   000110  X 000000 7010 00            125        DBCAL   ZIG$DBAF,NOEXC,CNER4
   000111 (0)000247 7020 00
                                       126  *  MOVE SORT & DUP KEYS FROM PAGE BUF TO TEMP REC BUF
   000112    7 00512 2211 00           127         LDX     X1,RVT,,PR7
   000113    7 00004 7251 11           128         LXL     X5,RSPTR,X1,PR7  GET RS PTR
   000114    7 00045 4451 00           129         SXL     X5,CONCD,,PR7   SAVE AS CURR CD
   000115                              130  CNL1   NULL
   000115    7 00045 7201 00           131         LXL     X0,CONCD,,PR7   GET CURR CD
   000116    6 00001 2201 10           132         LDX     X0,RSCDN,X0,PR6  GET NEXT RS.CD
   000117 (0)000130 6000 00            133         TZE     LCD1            NO - DONE
   000120    7 00045 4401 00           134         SXL     X0,CONCD,,PR7   SAVE NEXT AS CURR CD
   000121    6 00002 2241 10           135         LDX     X4,CDSH,X0,PR6  GET FR
   000122    7 00521 7441 00           136         STX     X4,PRFR,,PR7    PUT IN PRIM. REQ.
   000123  X 000000 7010 00            137         DBCAL   ZIG$DBPMA,,MAER1    MOVE KEY
   000124 (0)000247 7020 00
   000125    5 00006 2341 00
   000126    777776 6010 04
   000127 (0)000115 7100 00            138         TRA     CNL1
   000130                              139  LCD1   NULL
                                       140  *  IF SET IS PA, MOVE PA KEYS FROM PAGE BUF TO KEY PROCESS AREA
   000130    7 00512 2211 00           141         LDX     X1,RVT,,PR7
   000131    7 00004 7251 11           142         LXL     X5,RSPTR,X1,PR7  GET RS PTR
   000132    6 00000 2211 15           143         LDX     X1,DEF,X5,PR6   GET MEMBER TYPE
   000133    000007 3610 03            144         ANX     X1,.MEMT,DU     ISOLATE
   000134    000001 1010 03            145         CMPX    X1,=1,DU        IS IT A PA MEMBER
   000135 (0)000143 6010 00            146         TNZ     FIPT            NO - DONT MOVE KEYS TO KEY PROCESS AREA
   000136    7 00516 7451 00           147         STX     X5,PRSS,,PR7    YES - SAVE RS PTR FOR MOVE
   000137  X 000000 7010 00            148         DBCAL   ZIG$DBAKP,,MPAER MOVE PA KEYS TO KEY PROCESS AREA
   000140 (0)000247 7020 00
   000141    5 00006 2341 00
   000142    777776 6010 04
   000143                              149  FIPT   NULL
 12:41 09/05/97  FILE=ZIM$DBCN.:ZIC0TSI       IDS-II CONNECT SUBROUTINE                                  7    BMAP - B00
                                       150  *  INSERT THE RECORD INTO THE SET
   000143    000000 4704 07            151         LDP    PR0,VLPSID,DL            VLP$
   000144    000003 4714 07            152           LDP      PR1,RVASID,DL           RVA$
   000145    0 00001 2261 00           153         LDX     X6,1,,PR0            Get offset to SC pointer from FPT
   000146    1 00000 2261 16           154           LDX      X6,,X6,PR1           Get SC offset from RVA
   000147    7 00520 7461 00           155         STX     X6,PRSC,,PR7    PUT IN PRIM. CALL
   000150  X 000000 7010 00            156         DBCAL   ZIG$DBPFI,,FIPE4 FIND INSERT POINT
   000151 (0)000247 7020 00
   000152    5 00006 2341 00
   000153    777776 6010 04
   000154  X 000000 7010 00            157           DBCAL    ZIM$PCON,,CNER6      Connect
   000155 (0)000247 7020 00
   000156    5 00006 2341 00
   000157    777776 6010 04
                                       158  *  UNLOCK RECORD
   000160    7 00512 2231 00           159        UNLOCK  RVT
   000161  X 000000 7010 00
   000162    000000 0020 00
                                       160  *  PUT CURR OF RUN BACK INTO OUTPUT REC VAR
   000163    7 00511 2351 00           161         LDA     RVO,,PR7        *  REVERSE
   000164    7 00512 2361 00           162         LDQ     RVT,,PR7        *   OUT & TEMP REC VAR
   000165    7 00512 7551 00           163         STA     RVT,,PR7        *
   000166    7 00511 7561 00           164         STQ     RVO,,PR7        *
                                       165  *  UPDATE CURRENT OF SET
   000167    7 00520 2261 00           166         LDX     X6,PRSC,,PR7    GET SC
   000170    6 00001 2211 16           167         LDX     X1,SCWSO,X6,PR6  GET WORK SPC OFST
   000171    7 00511 2221 00           168         LDX     X2,RVO,,PR7
   000172    7 00000 2361 12           169         LDQ     DBKEY,X2,PR7    GET DBK OF REC
   000173    7 00001 7561 11           170         STQ     CURR,X1,PR7     MAKE IT CURR
   000174    377777 2200 03            171         LDX     X0,=O377777,DU
   000175    7 00000 3401 11           172         ANSX    X0,.CSE,X1,PR7  TURN OFF CURR IS ERASED BIT
   000176    7 00005 2201 12           173        LDX     X0,ACPTR,X2,PR7     GET ACPTR AND SAVE IN SET WS
   000177    7 00000 4401 11           174         SXL     X0,WSBID,X1,PR7
                                       175  *  IF PA SET, UPDATE INFO ON PA RECORD IN SET CURRENCY
   000200    6 00000 2201 16           176         LDX     X0,DEF,X6,PR6   GET SET MODE
   000201    000070 3600 03            177         ANX     X0,.SETM,DU     ISOLATE
   000202    000020 1000 03            178         CMPX    X0,=O20,DU      IS IT POINTER ARRAY
 12:41 09/05/97  FILE=ZIM$DBCN.:ZIC0TSI       IDS-II CONNECT SUBROUTINE                                  8    BMAP - B00
   000203 (0)000207 6010 00            179         TNZ     ASTAT           NO
   000204    7 00014 2371 12           180         LDAQ    CBRCE,X2,PR7    YES - SAVE PA ENTRY & PTR OFSTS
   000205    7 00002 7551 11           181         STA     CBENO,X1,PR7        IN SET WORKSPACE
   000206    7 00003 7561 11           182         STQ     CBCPA,X1,PR7    SAVE DBK OF OWNER PA REC IN SET WORKSPACE
   000207                              183  ASTAT  NULL
                                       184  *  Clear RECOVER addr for FPT checker
   000207  X 000000 7010 00            185         DBCAL   ZIB$CLRRECOVER,,NOALT
   000210    000000 0020 00
                                       186  *  RETURN
   000211  X 000000 7020 00            187           DBRET
                                       188  *
                                       189  *  ERRORS DETECTED IN THIS ROUTINE
                                       190  *
                                       191         IFE     A,1,%CK1
   000212                              192  CALE2  NULL                    CALLING ARG ERROR
   000212    210562 2350 07            193         LDA     ARGER,DL
   000213    000000 6200 00            194         EAX     X0,0            NULL AC
   000214    000000 6260 00            195         EAX     X6,0            NULL SC
   000215    000000 6270 00            196         EAX     X7,0            NULL RC
   000216 (0)000250 7100 00            197         TRA     CNR1
                                       198  CK1    MARK
   000217                              199  CALE3  NULL                    TYPE REQ. NOT SAME AS CURR. OF RUN
   000217    006344 2350 07            200         LDA     CRIT,DL
   000220    000000 6200 00            201         EAX     X0,0            NULL AC
   000221    000000 6260 00            202         EAX     X6,0            NULL SC
   000222    7 01224 2271 00           203         LDX     X7,CRUN+1,,PR7  GET RC
   000223 (0)000250 7100 00            204         TRA     CNR1
   000224                              205  CONE1  NULL                    SET NOT IN SUB-SCHEMA
   000224    010150 2350 07            206         LDA     IRSN,DL
   000225    000000 6200 00            207         EAX     X0,0            NULL AC
   000226    000000 6270 00            208         EAX     X7,0            NULL RC
   000227    000021 7100 04            209         TRA     CNR1,$
   000230                              210  PRVE1  NULL                    PRIVACY ERROR FOR REC
   000230    257764 2350 07            211         LDA     LR,DL
   000231    000000 6200 00            212         EAX     X0,0            NULL AC
   000232    000000 6260 00            213         EAX     X6,0            NULL SC
   000233 (0)000250 7100 00            214         TRA     CNR1
 12:41 09/05/97  FILE=ZIM$DBCN.:ZIC0TSI       IDS-II CONNECT SUBROUTINE                                  9    BMAP - B00
   000234                              215  PRVE2  NULL                    PRIVACY ERROR FOR SET
   000234    257764 2350 07            216         LDA     LR,DL
   000235    000000 6200 00            217         EAX     X0,0            NULL AC
   000236    000000 6270 00            218         EAX     X7,0            NULL RC
   000237 (0)000250 7100 00            219         TRA     CNR1
   000240                              220  CNER1  NULL                    CURR OF RUN IS MEMBER OF SET
   000240    017644 2350 07            221         LDA     RIM,DL
   000241    000000 6200 00            222         EAX     X0,0            NULL AC
   000242 (0)000250 7100 00            223         TRA     CNR1
   000243                              224  NMM    NULL                    REC NOT MANUAL MEMBER
   000243    020010 2350 07            225         LDA     RPM,DL
   000244    000000 6200 00            226         EAX     X0,0            NULL AC
   000245 (0)000250 7100 00            227         TRA     CNR1
                                       228  *
                                       229  *  ERRORS DETECTED IN SUBORDINATE ROUTINES
                                       230  *
   000246                              231  RSER1  NULL                    RS NOT FOUND FOR CURR OF RUN
   000246                              232  STER1  NULL                    ERROR ACCUMULATING STATISTICS
   000246 (0)000250 7100 00            233         TRA     CNR1
                                       234  *
                                       235  *  ERRORS DETECTED IN PRIMITIVES
                                       236  *
   000247                              237  GCER4  NULL                    GET CURR OF RUN ERROR
   000247                              238  LKER5  NULL                    LOCK & SET MW SWITCH ERROR
   000247                              239  CNER4  NULL
   000247                              240  MAER1  NULL                    ERROR MOVING FIELD TO TEMP REC BUF
   000247                              241  CNER6  NULL
   000247                              242  FIPE4  NULL                    FIND INSERT POINT ERROR
   000247                              243  ULER5  NULL                    UNLOCK REC ERROR
   000247                              244  MPAER  NULL                    ERROR MOVING KEYS TO KEY PROCESS AREA
   000247 (0)000250 7100 00            245         TRA     CNR1
                                       246  *
                                       247  *  COMMON ERROR RETURN
                                       248  *
   000250  X 000000 7020 00            249  CNR1     DBALT    RECOVER
                                       250  *  Clear RECOVER addr for FPT checker
   000251  X 000000 7010 00            251         DBCAL   ZIB$CLRRECOVER,,NOALT
 12:41 09/05/97  FILE=ZIM$DBCN.:ZIC0TSI       IDS-II CONNECT SUBROUTINE                                  10   BMAP - B00
   000252    000000 0020 00
                                       252  *  UNLOCK ALL RECORD VARIABLES
   000253                              253  UNL0    NULL
   000253    7 00510 2231 00           254          LDX     X3,RVI,,PR7
   000254    7 00001 4735 13           255          LDP     PR3,BADDR,X3,PR7
   000255    5 00026 4535 00           256          STP     PR3,CALLPM0,,PR5
   000256  X 000000 7010 00            257          DBCAL   ZIO$DBBCC,UNL1,NOALT
   000257    000000 0020 00
   000260    5 00006 2341 00
   000261    000003 6000 04
   000262    5 00006 4501 00
   000263 (0)000267 7020 00
   000264    7 00510 2231 00           258          UNLOCK  RVI
   000265  X 000000 7010 00
   000266    000000 0020 00
   000267                              259  UNL1    NULL
   000267    7 00511 2231 00           260          LDX     X3,RVO,,PR7
   000270    7 00001 4735 13           261          LDP     PR3,BADDR,X3,PR7
   000271    5 00026 4535 00           262          STP     PR3,CALLPM0,,PR5
   000272  X 000000 7010 00            263          DBCAL   ZIO$DBBCC,UNL2,NOALT
   000273    000000 0020 00
   000274    5 00006 2341 00
   000275    000003 6000 04
   000276    5 00006 4501 00
   000277 (0)000303 7020 00
   000300    7 00511 2231 00           264          UNLOCK  RVO
   000301  X 000000 7010 00
   000302    000000 0020 00
   000303                              265  UNL2    NULL
   000303    7 00512 2231 00           266          LDX     X3,RVT,,PR7
   000304    7 00001 4735 13           267          LDP     PR3,BADDR,X3,PR7
   000305    5 00026 4535 00           268          STP     PR3,CALLPM0,,PR5
   000306  X 000000 7010 00            269          DBCAL   ZIO$DBBCC,UNL3,NOALT
   000307    000000 0020 00
   000310    5 00006 2341 00
   000311    000003 6000 04
   000312    5 00006 4501 00
 12:41 09/05/97  FILE=ZIM$DBCN.:ZIC0TSI       IDS-II CONNECT SUBROUTINE                                  11   BMAP - B00
   000313 (0)000317 7020 00
   000314    7 00512 2231 00           270          UNLOCK  RVT
   000315  X 000000 7010 00
   000316    000000 0020 00
   000317                              271  UNL3    NULL
   000317    7 00513 2231 00           272          LDX     X3,RVPA,,PR7
   000320    7 00001 4735 13           273          LDP     PR3,BADDR,X3,PR7
   000321    5 00026 4535 00           274          STP     PR3,CALLPM0,,PR5
   000322  X 000000 7010 00            275          DBCAL   ZIO$DBBCC,UNL4,NOALT
   000323    000000 0020 00
   000324    5 00006 2341 00
   000325    000003 6000 04
   000326    5 00006 4501 00
   000327 (0)000333 7020 00
   000330    7 00513 2231 00           276          UNLOCK  RVPA
   000331  X 000000 7010 00
   000332    000000 0020 00
   000333                              277  UNL4    NULL
   000333                              278  BNL    NULL
   000333  X 000000 7020 00            279           DBALTO
   000334  X 000000 7020 00            280           DBALT
                                       281  *
                                       282  *  RECOVERY ERRORS
                                       283  *
   000335                              284  ULER6  NULL
   000335    000022 7350 00            285           DBREC    CNE1
   000336    7 00062 2551 00
   000337    303315 2350 07
   000340  X 000000 7020 00
                                       286         END

  CONTROL SECTION TABLE

   0 CODE   EVEN  000341
   1 RODATA EVEN  000000 LITERALS

 12:41 09/05/97  FILE=ZIM$DBCN.:ZIC0TSI       SYMBOL TABLE                                               12   BMAP - B00
 40000000 000000200000 .AC            *21
 40000000 000000000100 .AG            *21
 40000000 000000002000 .ALTO          *21
 40000000 000000000077 .ANL           *21
 40000000 000000200000 .APDN          *21
 40000000 000000000100 .ATMP          *21
 40000000 000000400000 .AV            *21
 40000000 000000400000 .B0            *21
 40000000 000000200000 .B1            *21
 40000000 000000000200 .B10           *21
 40000000 000000000100 .B11           *21
 40000000 000000000040 .B12           *21
 40000000 000000000020 .B13           *21
 40000000 000000000010 .B14           *21
 40000000 000000000004 .B15           *21
 40000000 000000000002 .B16           *21
 40000000 000000000001 .B17           *21
 40000000 000000400000 .B18           *21
 40000000 000000200000 .B19           *21
 40000000 000000100000 .B2            *21
 40000000 000000100000 .B20           *21
 40000000 000000040000 .B21           *21
 40000000 000000020000 .B22           *21
 40000000 000000010000 .B23           *21
 40000000 000000004000 .B24           *21
 40000000 000000002000 .B25           *21
 40000000 000000001000 .B26           *21
 40000000 000000000400 .B27           *21
 40000000 000000000200 .B28           *21
 40000000 000000000100 .B29           *21
 40000000 000000040000 .B3            *21
 40000000 000000000040 .B30           *21
 40000000 000000000020 .B31           *21
 40000000 000000000010 .B32           *21
 40000000 000000000004 .B33           *21
 40000000 000000000002 .B34           *21
 40000000 000000000001 .B35           *21
 12:41 09/05/97  FILE=ZIM$DBCN.:ZIC0TSI       SYMBOL TABLE                                               13   BMAP - B00
 40000000 000000020000 .B4            *21
 40000000 000000010000 .B5            *21
 40000000 000000004000 .B6            *21
 40000000 000000002000 .B7            *21
 40000000 000000001000 .B8            *21
 40000000 000000000400 .B9            *21
 40000000 000000000001 .BREAK         *21
 40000000 000000010000 .BRK           *21
 40000000 000000020000 .BTB           *21
 40000000 000000000001 .CAC           *21
 40000000 000000000000 .CAE           *21
 40000000 000000000200 .CANSSS        *21
 40000000 000000000400 .CD            *21
 40000000 000000040000 .CFLC          *21
 40000000 000000400000 .CHKSUM        *21
 40000000 000000100000 .CJRNL         *21
 40000000 000000000077 .CNSZ          *21
 40000000 000000160000 .COMC          *21
 40000000 000000000020 .CONT          *21
 41000000 000000000000 .CSE           *21       172
 40000000 000000700000 .CTYP          *21
 41000000 000000000270 .DBEST         *21
 41000000 000000000470 .DBIC          *21
 40000000 000000077777 .DBPT          *21
 41000000 000000000370 .DBSTK         *21
 40000000 000000020000 .DELM          *21
 40000000 000000002000 .DIDP          *21
 40000000 000000000077 .DNDX          *21
 40000000 000000600000 .DORD          *21
 40000000 000000000200 .DP            *21
 40000000 000000100000 .DPS           *21
 40000000 000000200000 .DPSA          *21
 40000000 000000400000 .DPST          *21
 40000000 000000000002 .DUMP          *21
 40000000 000000002000 .DUPC          *21
 40000000 000000010000 .DUPP          *21
 40000000 000000200000 .EBCL          *21
 12:41 09/05/97  FILE=ZIM$DBCN.:ZIC0TSI       SYMBOL TABLE                                               14   BMAP - B00
 40000000 000000400000 .EBCM          *21
 40000000 000000200000 .ENCRP         *21
 40000000 000000000077 .ENDX          *21
 40000000 000000000400 .ENQ           *21
 40000000 000000004000 .ETC           *21
 40000000 000000000400 .EXIT          *21
 40000000 000000000200 .FMOD          *21
 40000000 000000000077 .FNL           *21
 40000000 000000000074 .FORG          *21
 40000000 000000002000 .FR            *21
 40000000 000000000100 .FSR           *21
 40000000 000000003400 .FUSE          *21
 40000000 000000010000 .FVF           *21
 40000000 000000040000 .FVR           *21
 40000000 000000000010 .INDEXED       *21
 40000000 000000777777 .IXID          *21
 40000000 000000001777 .IXNUM         *21
 40000000 000000000004 .KEYED         *21
 40000000 000000010000 .LCK           *21
 40000000 000000400000 .LEIL          *21
 40000000 000000001000 .LG            *21
 40000000 000000000002 .LOAD          *21
 40000000 000000020000 .MAR           *21
 41000000 000000000007 .MEMT          *21       144
 40000000 000000010000 .MRL           *21
 41000000 000000040000 .MSM           *21       110
 60000000 000000000001 .N6685         *21
 40000000 000000100000 .NAI           *21
 40000000 000000200000 .NBI           *21
 40000000 000000000002 .NCIA          *21
 40000000 000000040000 .NMV           *21
 40000000 000000017777 .NOENT         *21
 40000000 000000400000 .OA            *21
 40000000 000000740000 .OPEV          *21
 41000000 000000100000 .OSM           *21       112
 40000000 000000100000 .PAFIL         *21
 40000000 000000200000 .PAHVR         *21
 12:41 09/05/97  FILE=ZIM$DBCN.:ZIC0TSI       SYMBOL TABLE                                               15   BMAP - B00
 40000000 000000000001 .PAIA          *21
 40000000 000000040000 .PALIL         *21
 40000000 000000020000 .PALVR         *21
 40000000 000000400000 .PANLL         *21
 40000000 000000400000 .PCKD          *21
 40000000 000000001600 .PMOD          *21
 40000000 000000000520 .PRCSE         *21
 40000000 000000000007 .PSTO          *21
 40000000 000000006040 .PTAS          *21
 40000000 000000010100 .PTCHK         *21
 40000000 000000010200 .PTDEC         *21
 40000000 000000010140 .PTENC         *21
 40000000 000000020000 .RA            *21
 41000000 000000100000 .RC            *21        63
 40000000 000000400000 .RELEASE       *21
 40000000 000000000017 .RELT          *21
 40000000 000000004000 .RERA          *21
 40000000 000000400000 .RERS          *21
 40000000 000000010000 .RKEY          *21
 40000000 000000000077 .RNL           *21
 40000000 000000200000 .RSTO          *21
 40000000 000000007777 .RTYP          *21
 41000000 000000040000 .SC            *21        71
 41000000 000000000070 .SETM          *21       177
 40000000 000000740000 .SETO          *21
 40000000 000000000700 .SETT          *21
 40000000 000000040000 .SFNP          *21
 40000000 000000004000 .SM            *21
 40000000 000000020000 .SMOD          *21
 40000000 000000000077 .SNL           *21
 41000000 000000020000 .SNSS          *21        77
 40000000 000000010000 .SO            *21
 40000000 000000100000 .SR            *21
 40000000 000000004000 .SRCR          *21
 40000000 000000001000 .SS            *21
 40000000 000000000007 .SSTP          *21
 40000000 000000004000 .SYN           *21
 12:41 09/05/97  FILE=ZIM$DBCN.:ZIC0TSI       SYMBOL TABLE                                               16   BMAP - B00
 40000000 000000000040 .SYNC          *21
 40000000 000000020000 .TJRNL         *21
 40000000 000000040000 .TMPLT         *21
 40000000 000000040000 .TRACE         *21
 40000000 000000000001 .TRENTRY       *21
 40000000 000000000012 .TRIDEL        *21
 40000000 000000000021 .TRIDELENQ     *21
 40000000 000000000024 .TRIDEQ        *21
 40000000 000000000013 .TRIMOD        *21
 40000000 000000000022 .TRIMODENQ     *21
 40000000 000000000014 .TRIREAD       *21
 40000000 000000000023 .TRIREADENQ    *21
 40000000 000000000011 .TRISTO        *21
 40000000 000000000020 .TRISTOENQ     *21
 40000000 000000000017 .TRPDEQ        *21
 40000000 000000000004 .TRPMOD        *21
 40000000 000000000016 .TRPMODENQ     *21
 40000000 000000000002 .TRPREAD       *21
 40000000 000000000015 .TRPREADENQ    *21
 40000000 000000000003 .TRPWRITE      *21
 40000000 000000000010 .TRRACC        *21
 40000000 000000000006 .TRRDEL        *21
 40000000 000000000007 .TRRMOD        *21
 40000000 000000000005 .TRRSTO        *21
 40000000 000000004000 .ULCK          *21
 40000000 000000400000 .UPDT          *21
 40000000 000000000040 .VIA           *21
 61000000 000000000001 A              *21        61        69       191
 40000000 000000000002 ABAS           *21
 40000000 000000000001 AC             *21
 40000000 777777777760 ACDEF          *21
 40000000 000000211070 ACDNL          *21
 40000000 000000000003 ACID           *21
 40000000 000000001016 ACOPN          *21
 40000000 000000000002 ACP            *21
 41000000 000000000005 ACPTR          *21       173
 40000000 000000000002 ACRAH          *21
 12:41 09/05/97  FILE=ZIM$DBCN.:ZIC0TSI       SYMBOL TABLE                                               17   BMAP - B00
 40000000 000000000001 ACRAN          *21
 40000000 000000001003 ACREC          *21
 40000000 000000000001 ACTDBCB        *21
 40000000 000000000002 ACTDBNO        *21
 40000000 000000001017 ACTP           *21
 40000000 000000000000 ACTSSS         *21
 40000000 000000000000 ACTSZ          *21
 40000000 000000210565 AFNP           *21
 40000000 000000000635 AFT            *21
 40000000 000000022124 AIR            *21
 40000000 000000000016 AMAX           *21
 40000000 000000000026 ANAM           *21
 40000000 000000021614 ANR            *21
 40000000 000000000001 APNO           *21
 41000000 000000210562 ARGER          *21       193
 41000000 000000000020 ARGS           *21
 40000000 000000000077 ARGS2          *21
 40000000 000000210713 ARNAF          *21
 01101000 000000000207 ASTAT          179      *183
 40000000 000000000003 ATBL           *21
 40000000 000000000000 ATRIB          *21
 40000000 000000000002 AVLN           *21
 40000000 000000000013 AWS$           *21
 40000000 000000000010 AWSZ           *21
 60000000 000000000001 B              *21
 40000000 000000001006 B32N           *21
 40000000 000000001007 B36N           *21
 40000000 000000001056 B72N           *21
 41000000 000000000001 BADDR          *21       255       261       267       273
 40000000 000000210712 BADSEED        *21
 40000000 777777777765 BDCW           *21
 40000000 000000000633 BEF            *21
 40000000 000000020000 BEFW           *21
 40000000 000000000751 BEMT           *21
 40000000 777777777761 BID            *21
 40000000 777777777762 BIND           *21
 40000000 000000000007 BLKD           *21
 12:41 09/05/97  FILE=ZIM$DBCN.:ZIC0TSI       SYMBOL TABLE                                               18   BMAP - B00
 40000000 000000303331 BME02          *21
 41000000 000000001203 BMPB           *21
 40000000 000000000652 BN1            *21
 40000000 000000000654 BN2            *21
 00101000 000000000333 BNL           *278
 40000000 000000000004 BPL            *21
 40000000 000000000015 BPLDBK         *21
 40000000 000000000034 BSPG           *21
 40000000 777777777763 BSTAT          *21
 40000000 000000000750 BTX0           *21
 41000000 000000001160 BUF4           *21
 41000000 000000001170 BUF6           *21
 41000000 000000000000 BUFORG         *21
 40000000 000000001060 BUFRQ          *21
 40000000 000000000006 BURRID         *21
 41000000 000000000020 BWASZ          *21
 60000000 000000000001 C              *21
 40000000 000000000050 CAAC           *21
 40000000 000000000050 CACD           *21
 40000000 000000000111 CAG            *21
 40000000 000000001033 CAL            *21
 01101000 000000000212 CALE2           64        72      *192
 01101000 000000000217 CALE3           67      *199
 41000000 000000000026 CALLPM0        *21       256       262       268       274
 40000000 000000000003 CANSSS         *21
 41000000 000000000003 CBCPA          *21       182
 40000000 000000000002 CBCPO          *21
 41000000 000000000002 CBENO          *21       181
 40000000 000000000014 CBFSZ          *21
 40000000 000000000753 CBIB           *21
 40000000 000000001030 CBID           *21
 41000000 000000000014 CBRCE          *21       180
 40000000 000000000014 CBRCP          *21
 40000000 000000001033 CBRID          *21
 40000000 000000000015 CBRPA          *21
 40000000 000000000031 CCHAR          *21
 40000000 000000000040 CDBK           *21
 12:41 09/05/97  FILE=ZIM$DBCN.:ZIC0TSI       SYMBOL TABLE                                               19   BMAP - B00
 40000000 000000000030 CDES           *21
 40000000 000000000110 CDP            *21
 40000000 000000001044 CDPSI          *21
 40000000 000000000002 CDRH           *21
 40000000 000000000003 CDRN           *21
 41000000 000000000002 CDSH           *21       135
 40000000 000000000003 CDSN           *21
 40000000 000000000722 CENTRN         *21
 40000000 000000000722 CENTRO         *21
 40000000 000000000716 CENTRY         *21
 41000000 000000001053 CFCT           *21
 40000000 000000000670 CFLPT1         *21
 40000000 000000000672 CFLPT2         *21
 40000000 000000000015 CFSA           *21
 40000000 000000000646 CHDBK          *21
 40000000 000000000773 CHR            *21
 40000000 000000000006 CHRD           *21
 40000000 000000000772 CHRO           *21
 40000000 000000007640 CHRTP          *21
 40000000 000000001043 CIAC           *21
 40000000 000000000012 CIAWS          *21
 40000000 000000001051 CIBSI          *21
 40000000 000000000516 CIND           *21
 40000000 000000001041 CINVSZ         *21
 40000000 000000001042 CIPG           *21
 40000000 000000001050 CIPSI          *21
 40000000 000000000000 CIRUN          *21
 40000000 000000000002 CIRWS          *21
 40000000 000000000002 CISWS          *21
 40000000 000000000014 CIWSOF         *21
 40000000 000000303374 CKSM           *21
 40000000 000000000022 CLCN           *21
 40000000 000000000023 CLCP           *21
 40000000 000000000003 CLCRC          *21
 40000000 000000000003 CLCSC          *21
 40000000 000000000237 CLI            *21
 40000000 000000000026 CLNG           *21
 12:41 09/05/97  FILE=ZIM$DBCN.:ZIC0TSI       SYMBOL TABLE                                               20   BMAP - B00
 40000000 000000000052 CMPL           *21
 40000000 000000000002 CN             *21
 41000000 000000303315 CNE1           *21       285
 01101000 000000000240 CNER1          121      *220
 01101000 000000000247 CNER4          125      *239
 01101000 000000000247 CNER6          157      *241
 01101000 000000000115 CNL1          *130       138
 01101000 000000000250 CNR1            50       197       204       209       214       219       223
                                      227       233       245      *249
 40000000 000000006034 CNUL           *21
 40000000 000000100000 COB74          *21
 40000000 000000000001 COFS           *21
 41000000 000000000045 CONCD          *21       129       131       134
 01101000 000000000224 CONE1           78      *205
 40000000 000000007764 CP6PGSZB       *21
 41000000 000000001775 CP6PGSZW       *21
 40000000 000000001000 CPGR           *21
 40000000 000000000723 CPTRN          *21
 40000000 000000000723 CPTRO          *21
 60000000 000000000004 CPW            *21
 40000000 000000000112 CRA            *21
 40000000 000000001004 CRD            *21
 40000000 000000000764 CREC           *21
 41000000 000000006344 CRIT           *21       200
 40000000 000000006200 CRNUL          *21
 40000000 000000007330 CRST           *21
 41000000 000000001223 CRUN           *21        66       203
 41000000 000000000000 CSECT          *21
 40000000 000000000007 CSMPP          *21
 40000000 000000001000 CSPAC          *21
 40000000 000000000004 CSPAH          *21
 40000000 777777777776 CSPES          *21
 40000000 777777777776 CSPSB          *21
 40000000 000000000115 CSTS           *21
 40000000 000000000071 CSUB           *21
 40000000 000000000017 CSZ            *21
 40000000 000000000057 CTMASK         *21
 12:41 09/05/97  FILE=ZIM$DBCN.:ZIC0TSI       SYMBOL TABLE                                               21   BMAP - B00
 40000000 000000000774 CTPAI          *21
 40000000 000000000240 CURLN          *21
 40000000 000000000236 CURLT          *21
 40000000 000000000770 CURPG          *21
 41000000 000000000001 CURR           *21       170
 40000000 000000000035 CURRS          *21
 40000000 000000000037 CURSS          *21
 40000000 000000001005 CWRT           *21
 40000000 000000000237 CWSOF          *21
 60000000 000000000001 D              *21
 40000000 000000000003 DBAN           *21
 40000000 000000000036 DBDR           *21
 40000000 000000000037 DBFN           *21
 40000000 000000000754 DBK            *21
 40000000 000000000777 DBKAC          *21
 41000000 000000000000 DBKEY          *21       169
 40000000 000000000000 DBKL           *21
 40000000 000000007474 DBKN           *21
 41000000 000000000776 DBKR           *21
 40000000 000000000777 DBKRQ          *21
 40000000 000000000234 DBKSI          *21
 40000000 000000000651 DBKSR          *21
 40000000 000000000047 DBKYN          *21
 40000000 000000210652 DBLC01         *21
 40000000 000000210653 DBLC05         *21
 40000000 000000303334 DBLC07         *21
 40000000 000000210655 DBLD01         *21
 40000000 000000000010 DBLIM          *21
 40000000 000000000033 DBPKY          *21
 40000000 000000000023 DBRN           *21
 40000000 000000000013 DBSN           *21
 40000000 000000000001 DBST           *21
 40000000 000000000757 DCDSR          *21
 40000000 000000210650 DCE1           *21
 40000000 000000001053 DCPR           *21
 40000000 000000001053 DCPW           *21
 40000000 000000000015 DCTBL          *21
 12:41 09/05/97  FILE=ZIM$DBCN.:ZIC0TSI       SYMBOL TABLE                                               22   BMAP - B00
 40000000 000000000032 DDBK           *21
 40000000 000000000006 DDCB           *21
 40000000 000000011754 DDI            *21
 41000000 000000000000 DEF            *21        62        70        76       109       143       176
 40000000 000000000014 DEF2           *21
 40000000 000000303413 DELAK          *21
 40000000 000000000036 DELRS          *21
 40000000 000000000732 DEPCW          *21
 40000000 000000303414 DLDBK          *21
 40000000 000000210627 DLE1           *21
 40000000 000000303310 DLE2           *21
 40000000 000000210631 DLE3           *21
 40000000 000000016040 DNES           *21
 40000000 777777777777 DPAGN          *21
 40000000 000000000020 DPPI           *21
 40000000 000000000053 DPSLW          *21
 40000000 000000000003 DS             *21
 40000000 000000001063 DSDES          *21
 40000000 000000303316 DSE1           *21
 40000000 000000000735 DUSEPA         *21
 60000000 000000000001 E              *21
 40000000 000000303251 EDPER          *21
 40000000 000000000026 EEIND          *21
 40000000 000000000713 EFIND          *21
 40000000 000000001030 ELO            *21
 40000000 000000210711 ENCPNA         *21
 40000000 000000000007 ENCRP          *21
 40000000 000000000752 ENDSR          *21
 40000000 000000210647 ENE1           *21
 40000000 000000000716 ENIND          *21
 40000000 000000000013 ENTBL          *21
 40000000 000000000710 ENTNO          *21
 40000000 000000000712 ENTPTR         *21
 40000000 000000000717 ENTSZ          *21
 40000000 000000000711 ENTTYP         *21
 40000000 000000004064 EOSR           *21
 40000000 000000000004 ES             *21
 12:41 09/05/97  FILE=ZIM$DBCN.:ZIC0TSI       SYMBOL TABLE                                               23   BMAP - B00
 41000000 000000000100 ESTSZ          *21
 40000000 000000000725 ESZ            *21
 40000000 000000000005 ETCADR         *21
 40000000 000000000005 ETCDBNO        *21
 40000000 000000000064 EXCCD          *21
 40000000 000000234534 FALRT          *21
 40000000 000000001055 FBF72          *21
 40000000 000000001025 FBU61          *21
 40000000 000000001020 FBUF           *21
 40000000 000000001026 FBUF1          *21
 40000000 000000001027 FBUF4          *21
 40000000 000000001024 FBUF6          *21
 40000000 000000001022 FBUFM          *21
 40000000 000000001021 FBUFU          *21
 40000000 000000001023 FBUMD          *21
 40000000 000000000004 FCN            *21
 40000000 000000000051 FCNT           *21
 40000000 000000000002 FCP            *21
 40000000 000000000047 FCSS           *21
 40000000 000000000005 FD             *21
 40000000 000000210637 FDE1           *21
 40000000 000000303320 FDE2           *21
 40000000 000000303321 FDE3           *21
 40000000 000000210642 FDE4           *21
 40000000 000000210643 FDE5           *21
 40000000 000000210644 FDE6           *21
 40000000 000000303325 FDE7           *21
 40000000 000000303326 FDE8           *21
 40000000 000000000021 FEASZ          *21
 40000000 000000000740 FETM           *21
 40000000 000000000006 FI             *21
 40000000 000000000103 FIAC           *21
 41000000 000000001100 FIB1           *21
 41000000 000000001130 FIBP           *21
 40000000 000000000000 FIBX           *21
 40000000 000000000102 FICNT          *21
 01101000 000000000247 FIPE4          156      *242
 12:41 09/05/97  FILE=ZIM$DBCN.:ZIC0TSI       SYMBOL TABLE                                               24   BMAP - B00
 40000000 000000000005 FIPN           *21
 01101000 000000000143 FIPT           146      *149
 40000000 000000000054 FKIND          *21
 40000000 000000000015 FLAGS          *21
 40000000 000000000244 FLDDSC         *21
 40000000 000000000046 FLDTL          *21
 40000000 000000000020 FMSBF          *21
 40000000 000000000006 FNAM           *21
 40000000 000000000250 FNIND          *21
 40000000 000000000004 FNL            *21
 40000000 000000000101 FRAC           *21
 40000000 000000000002 FRANGE         *21
 40000000 000000211400 FRDNL          *21
 40000000 000000200000 FRTRN          *21
 40000000 000000000005 FRWSO          *21
 40000000 000000000767 FSLN           *21
 40000000 000000000766 FSOF           *21
 40000000 000000000060 FTIND          *21
 40000000 000000303240 FTLINCR        *21
 40000000 000000000021 FWSSZ          *21
 40000000 000000000246 GACDK          *21
 01101000 000000000247 GCER4           52      *237
 40000000 000000000014 GDCB           *21
 41000000 000000000006 GERROR         *21        50        52       104       137       148       156
                                      157       257       263       269       275
 40000000 000000000016 GINHIB         *21
 40000000 000000000020 GIOAWS         *21
 40000000 000000000022 GIOBUF         *21
 40000000 000000000021 GIOPGNO        *21
 40000000 000000000015 GPAGE          *21
 40000000 000000000010 GRETAC         *21
 40000000 000000000011 GRETFR         *21
 40000000 000000000013 GRETRC         *21
 40000000 000000000012 GRETSC         *21
 41000000 000000000025 GRLCW          *21        85
 40000000 000000000014 GSTCD          *21
 40000000 000000000007 GSYSERR        *21
 12:41 09/05/97  FILE=ZIM$DBCN.:ZIC0TSI       SYMBOL TABLE                                               25   BMAP - B00
 40000000 000000000010 GT             *21
 40000000 000000000046 GTRNAME        *21
 40000000 000000000055 GTRPDCB        *21
 40000000 000000000056 GTRPNO         *21
 40000000 000000000057 GTRRDBK        *21
 40000000 000000000060 GTRRTYPE       *21
 40000000 000000000060 GTRTYPE        *21
 40000000 000000000027 HASH           *21
 40000000 000000000022 HIA            *21
 40000000 000000000775 HIDB           *21
 40000000 000000000003 HIGHDBK        *21
 40000000 000000000004 HIGHPG         *21
 40000000 000000001037 HIL            *21
 40000000 000000000002 HILN           *21
 40000000 000000000006 HPOS           *21
 40000000 000000000756 IAAC           *21
 40000000 000000001011 IACLN          *21
 40000000 000000001010 IALC           *21
 40000000 000000010314 IAN            *21
 40000000 000000001012 IANLN          *21
 40000000 000000000001 IASID          *20
 40000000 000000020320 ICA            *21
 40000000 000000000023 ICKSMP         *21
 40000000 000000000024 ICKSMV         *21
 40000000 000000210742 ICNR           *21
 41000000 000000000020 ICSIZ          *21
 40000000 000000010004 IDBK           *21
 40000000 000000012120 IDI            *21
 40000000 000000000023 IDS            *21
 40000000 000000000011 IF             *21
 40000000 000000000021 IFIPN          *21
 40000000 000000000000 IFR            *21
 40000000 000000234546 IKSEQ          *21
 40000000 000000000113 INAFLAG        *21
 40000000 000000000016 INCHA          *21
 40000000 000000210566 INNM           *21
 40000000 000000210567 INSS           *21
 12:41 09/05/97  FILE=ZIM$DBCN.:ZIC0TSI       SYMBOL TABLE                                               26   BMAP - B00
 40000000 000000210575 INSST          *21
 40000000 000000303241 INTER          *21
 40000000 000000400000 INTII          *21
 40000000 000000000013 INTVL          *21
 40000000 000000001060 INVFLG         *21
 40000000 000000001043 INVOF          *21
 40000000 000000000014 INVT           *21
 40000000 000000000034 IOBLK          *21
 40000000 000000303354 IOCLSD         *21
 40000000 000000303355 IOCLSK         *21
 40000000 000000303257 IOE1           *21
 40000000 000000303264 IOE11          *21
 40000000 000000303265 IOE12          *21
 40000000 000000303266 IOE18          *21
 40000000 000000303260 IOE2           *21
 40000000 000000303261 IOE3           *21
 40000000 000000303262 IOE7           *21
 40000000 000000303263 IOE8           *21
 40000000 000000303363 IOFLSH         *21
 40000000 000000210676 IOGDCB         *21
 40000000 000000001002 IOINC          *21
 40000000 000000305160 IOINI          *21
 40000000 000000305155 IONOTIDS       *21
 40000000 000000305154 IONOTKEY       *21
 40000000 000000210677 IOOPND         *21
 40000000 000000210700 IOOPNK         *21
 40000000 000000303361 IORDD          *21
 40000000 000000305156 IOSCHEMA       *21
 40000000 000000001052 IOSTS          *21
 40000000 000000303362 IOWRTD         *21
 41000000 000000000750 IOWS           *21
 40000000 000000000647 IPC            *21
 40000000 000000000650 IPCF           *21
 40000000 000000000006 IROLLFLAG      *21
 41000000 000000010150 IRSN           *21       206
 40000000 000000000004 ISYSDCB        *21
 40000000 000000000005 ISYSERR        *21
 12:41 09/05/97  FILE=ZIM$DBCN.:ZIC0TSI       SYMBOL TABLE                                               27   BMAP - B00
 41000000 000000000061 ITPTR          *21       119       120
 40000000 000000000060 ITRS           *21
 40000000 000000021760 IUM            *21
 40000000 000000000017 IUSZ           *21
 40000000 000000234522 IVDBK          *21
 40000000 000000000011 IXBUF$         *21
 40000000 000000000046 IXFBSZ         *21
 40000000 777777777776 IXID           *21
 40000000 777777777777 IXPLL          *21
 40000000 000000000523 KCARG0         *21
 40000000 000000000524 KCARG3         *21
 40000000 000000000525 KCARG4         *21
 40000000 000000000700 KCREG          *21
 40000000 000000000006 KDCB           *21
 40000000 000000000666 KEYDS          *21
 40000000 000000000010 KEYPA          *21
 40000000 777777777776 KLNG           *21
 40000000 000000000022 KPASZ          *21
 40000000 000000000006 KWSZ           *21
 40000000 000000000052 LANGC          *21
 40000000 000000001014 LAS            *21
 01101000 000000000130 LCD1           133      *139
 40000000 000000700000 LCODM          *21
 40000000 000000001045 LDPSI          *21
 40000000 000000001071 LINPT          *21
 01101000 000000000247 LKER5           89      *238
 40000000 000000001017 LNCNT          *21
 40000000 000000000762 LNNO           *21
 40000000 000000001036 LOL            *21
 40000000 000000000715 LOLIM          *21
 40000000 000000000023 LPASZ          *21
 40000000 000000000012 LPP            *21
 41000000 000000257764 LR             *21       211       216
 40000000 000000301270 LRA            *21
 40000000 000000000017 LRSZ           *21
 40000000 000000001035 LSPC           *21
 40000000 000000000750 LUPD           *21
 12:41 09/05/97  FILE=ZIM$DBCN.:ZIC0TSI       SYMBOL TABLE                                               28   BMAP - B00
 61000000 000000000001 M9             *21
 01101000 000000000247 MAER1          137      *240
 40000000 000000000013 MD             *21
 40000000 000000300000 MDQS           *21
 40000000 000000000730 MEMPTR         *21
 40000000 000000000727 MEMTYP         *21
 40000000 000000000045 MODCD          *21
 41000000 000000001207 MODFL          *21
 40000000 000000000042 MODFR          *21
 40000000 000000000044 MODIN          *21
 40000000 000000000044 MODRS          *21
 40000000 000000000043 MODSC          *21
 01101000 000000000247 MPAER          148      *244
 40000000 000000000047 MRBKI          *21
 40000000 000000210632 MRE4           *21
 40000000 000000303313 MRE5           *21
 40000000 000000210634 MRE7           *21
 40000000 000000400000 MW             *21
 40000000 000000000025 NCH            *21
 40000000 000000000002 NCHA           *21
 40000000 000000000005 NCHRS          *21
 40000000 000000000014 NDCD           *21
 40000000 000000000012 NENC           *21
 40000000 000000000634 NEW            *21
 40000000 000000001072 NEWSIZ         *21
 40000000 000000235164 NKA            *21
 40000000 000000235020 NKDB           *21
 40000000 000000303415 NLDBK          *21
 40000000 777777777777 NLIND          *21
 40000000 000000001040 NLN            *21
 40000000 000000400000 NLNSA          *21
 01101000 000000000243 NMM            113      *224
 41000000 000000001053 NOBF           *21
 40000000 000000000711 NOPTRS         *21
 40000000 000000000742 NPARCW         *21
 40000000 000000000630 NPIND          *21
 41000000 000000000004 NPOS           *21       118
 12:41 09/05/97  FILE=ZIM$DBCN.:ZIC0TSI       SYMBOL TABLE                                               29   BMAP - B00
 01101000 000000000026 NRC2            60       *68
 40000000 000000234510 NSA            *21
 40000000 000000234654 NSCS           *21
 40000000 000000234344 NSDB           *21
 40000000 000000000001 NSTS           *21
 40000000 000000000726 NUMENT         *21
 40000000 000000000727 NUMPTR         *21
 40000000 777777777760 NXBUF          *21
 40000000 000000000713 NXPRI          *21
 40000000 000000000771 NXTC           *21
 40000000 000000000001 OAACN          *21
 40000000 000000000022 OACIWSOF       *21
 40000000 000000000001 OAOFST         *21
 40000000 000000000002 OARCN          *21
 40000000 000000000001 OASCN          *21
 40000000 000000000014 OD             *21
 40000000 000000000074 ODBK           *21
 40000000 000000001072 OLDSIZ         *21
 40000000 000000000101 OPADP          *21
 40000000 000000000741 OPARCW         *21
 40000000 000000210570 ORDNI          *21
 40000000 777777777777 OTVL           *21
 40000000 000000000252 OWNPTR         *21
 40000000 000000000016 PABUF          *21
 40000000 000000001041 PACD           *21
 40000000 000000000001 PACW           *21
 40000000 000000000733 PADBK          *21
 40000000 000000000740 PADUP          *21
 40000000 000000000745 PAEN           *21
 40000000 000000000745 PAEO           *21
 40000000 000000000734 PAEOF          *21
 40000000 000000303336 PAER1          *21
 40000000 000000303337 PAER2          *21
 40000000 000000303340 PAER3          *21
 40000000 000000303341 PAER4          *21
 40000000 000000303342 PAER5          *21
 40000000 000000303343 PAER6          *21
 12:41 09/05/97  FILE=ZIM$DBCN.:ZIC0TSI       SYMBOL TABLE                                               30   BMAP - B00
 40000000 000000000747 PAESZ          *21
 40000000 000000001060 PAFLG          *21
 40000000 000000000731 PAOPTR         *21
 40000000 000000000734 PAPOF          *21
 40000000 000000000714 PARCW          *21
 40000000 000000000726 PARVPA         *21
 40000000 000000000724 PASPLT         *21
 40000000 000000000004 PAWSZ          *21
 40000000 777777777762 PBUF           *21
 41000000 000000000020 PC             *21       100
 41000000 000000000510 PCB            *21
 40000000 000000000642 PCD            *21
 40000000 000000000642 PCD2           *21
 40000000 000000000247 PCEXI          *21
 40000000 000000000675 PCMIN          *21
 40000000 000000004541 PCOMP          *21
 40000000 000000000010 PD             *21
 40000000 000000000040 PE             *21
 40000000 000000000017 PENDING        *21
 40000000 000000000004 PF             *21
 40000000 000000000400 PFG            *21
 40000000 000000000200 PFM            *21
 40000000 000000000100 PFS            *21
 40000000 000000000400 PG             *21
 40000000 000000001064 PGHD           *21
 40000000 000000000006 PGLIM          *21
 40000000 000000000003 PGRNG          *21
 40000000 000000000746 PGSIZE         *21
 40000000 000000000641 PGSPLT         *21
 40000000 000000000100 PKAW           *21
 40000000 000000001034 PLO            *21
 40000000 000000000004 PLSEP          *21
 40000000 000000000200 PM             *21
 40000000 000000001054 PNEOO          *21
 40000000 000000001047 POFSI          *21
 40000000 000000000005 PPOS           *21
 41000000 000000000000 PR0            *20        54        56        58       151       153
 12:41 09/05/97  FILE=ZIM$DBCN.:ZIC0TSI       SYMBOL TABLE                                               31   BMAP - B00
 41000000 000000000001 PR1            *20        55        57        59       152       154
 40000000 000000000002 PR2            *20
 41000000 000000000003 PR3            *20       116       255       256       261       262       267
                                      268       273       274
 40000000 000000000004 PR4            *20
 41000000 000000000005 PR5            *20        50        52        85       104       137       148
                                      156       157       256       257       262       263       268
                                      269       274       275
 41000000 000000000006 PR6            *20        62        70        76        80        98       109
                                      118       132       135       143       167       176
 41000000 000000000007 PR7            *20        66        74        81        87        88        91
                                       92        93        94        96        97        99       103
                                      105       106       107       115       116       119       120
                                      123       124       127       128       129       131       134
                                      136       141       142       147       155       159       161
                                      162       163       164       166       168       169       170
                                      172       173       174       180       181       182       203
                                      254       255       258       260       261       264       266
                                      267       270       272       273       276       285
 40000000 000000303267 PRE1           *21
 40000000 000000303277 PRE10          *21
 40000000 000000303270 PRE3           *21
 40000000 000000303271 PRE4           *21
 40000000 000000303272 PRE5           *21
 40000000 000000210613 PRE6           *21
 40000000 000000210614 PRE7           *21
 40000000 000000210615 PRE8           *21
 40000000 000000303276 PRE9           *21
 40000000 000000000522 PREXC          *21
 41000000 000000000521 PRFR           *21       136
 40000000 000000000521 PRFR2          *21
 41000000 000000000000 PRIV           *21        81        99
 40000000 000000000526 PROPA          *21
 40000000 000000000517 PRRC           *21
 40000000 000000000517 PRRS           *21
 41000000 000000000520 PRSC           *21        74       103       155       166
 41000000 000000000516 PRSS           *21       147
 12:41 09/05/97  FILE=ZIM$DBCN.:ZIC0TSI       SYMBOL TABLE                                               32   BMAP - B00
 40000000 000000000644 PRSTS          *21
 01101000 000000000230 PRVE1          101      *210
 01101000 000000000234 PRVE2           83      *215
 40000000 000000000100 PS             *21
 41000000 000000000000 PS0SID         *20
 41000000 000000000001 PS1SID         *20
 41000000 000000000002 PS2SID         *20
 41000000 000000000003 PS3SID         *20
 41000000 000000000004 PS4SID         *20
 40000000 000000000005 PS5SID         *20
 40000000 000000000006 PS6SID         *20
 40000000 000000303416 PSA            *21
 41000000 000000000020 PSC            *21        82
 40000000 000000000010 PSD            *21
 40000000 000000000004 PSF            *21
 40000000 000000000400 PSO            *21
 40000000 000000000720 PTESZ          *21
 40000000 000000000631 PTR            *21
 40000000 000000000724 PTRESZ         *21
 40000000 000000000710 PTRNO          *21
 41000000 000000000630 PWS            *21
 41000000 000000000002 RADDR          *21       116
 40000000 000000000010 RADIX          *21
 40000000 000000000005 RAPTR          *21
 40000000 000000000004 RAWSOF         *21
 40000000 777777777766 RBA            *21
 40000000 000000023432 RCBI           *21
 40000000 000000211234 RCDNL          *21
 40000000 000000000005 RCFRH          *21
 40000000 000000000004 RCFRN          *21
 40000000 000000001075 RCHD           *21
 40000000 000000000001 RCID           *21
 41000000 000000000006 RCPTR          *21        97
 40000000 000000000002 RCRAH          *21
 40000000 000000000001 RCRAN          *21
 40000000 000000000003 RCRSH          *21
 40000000 000000000002 RCRSN          *21
 12:41 09/05/97  FILE=ZIM$DBCN.:ZIC0TSI       SYMBOL TABLE                                               33   BMAP - B00
 40000000 000000210667 RCVER1         *21
 40000000 000000210670 RCVER2         *21
 40000000 000000210671 RCVER4         *21
 40000000 000000210672 RCVER5         *21
 40000000 000000210673 RCVER6         *21
 40000000 000000000736 RCW1           *21
 40000000 000000000737 RCW2           *21
 41000000 000000000004 RCWSO          *21        98
 40000000 000000000077 RDAC           *21
 40000000 000000000076 RDCNT          *21
 40000000 000000040000 RDI            *21
 40000000 000000015674 RDLT           *21
 40000000 000000000075 RDYCW          *21
 40000000 000000000066 RECAC          *21
 40000000 000000000065 RECFR          *21
 40000000 000000000070 RECRC          *21
 40000000 000000000067 RECSC          *21
 40000000 000000000003 RECSZ          *21
 40000000 000000000235 REMLT          *21
 40000000 000000000062 REM_RECOVER    *21
 40000000 000000000251 RETFR          *21
 40000000 000000210724 RFDNL          *21
 41000000 000000017644 RIM            *21       221
 40000000 000000000005 RNAM           *21
 40000000 000000015706 RNDLT          *21
 40000000 000000000662 RNG1           *21
 40000000 000000000664 RNG2           *21
 40000000 000000000073 RNGD           *21
 40000000 000000000072 RNGO           *21
 40000000 000000000660 RNGTAL         *21
 40000000 000000020154 RNM            *21
 40000000 000000000041 ROCUR          *21
 40000000 000000000001 ROFST          *21
 40000000 000000002114 ROLL           *21
 41000000 000000020010 RPM            *21       225
 40000000 000000000001 RSCDH          *21
 41000000 000000000001 RSCDN          *21       132
 12:41 09/05/97  FILE=ZIM$DBCN.:ZIC0TSI       SYMBOL TABLE                                               34   BMAP - B00
 40000000 000000211710 RSDNL          *21
 40000000 000000004540 RSEE           *21
 01101000 000000000246 RSER1          104      *231
 40000000 000000000003 RSIZ           *21
 40000000 000000000110 RSPAM          *21
 41000000 000000000004 RSPTR          *21       107       124       128       142
 40000000 000000000037 RSREQ          *21
 40000000 000000000002 RSSSH          *21
 40000000 000000000001 RSSSN          *21
 40000000 000000210574 RSZER          *21
 40000000 000000000632 RSZTP          *21
 40000000 000000000003 RTP            *21
 40000000 000000000003 RTYP           *21
 40000000 000000000530 RV1            *21
 40000000 000000000550 RV2            *21
 40000000 000000000570 RV3            *21
 40000000 000000000610 RV4            *21
 41000000 000000000003 RVASID         *20        55       152
 41000000 000000000510 RVI            *21        87        88        91        94       254       258
 41000000 000000000511 RVO            *21       161       164       168       260       264
 41000000 000000000513 RVPA           *21       272       276
 41000000 000000000512 RVT            *21        92        93        96       105       115       123
                                      127       141       159       162       163       266       270
 40000000 000000000022 RVTAL          *21
 40000000 000000000002 RWSZ           *21
 40000000 000000000015 RY             *21
 40000000 000000210620 RYE1           *21
 40000000 000000210621 RYE4           *21
 40000000 777777777767 SA             *21
 40000000 000000000005 SANAM          *21
 40000000 000000001062 SCDES          *21
 40000000 000000211544 SCDNL          *21
 40000000 000000000024 SCFC           *21
 40000000 000000000002 SCID           *21
 40000000 000000000024 SCLST          *21
 40000000 000000000004 SCNAM          *21
 41000000 000000000004 SCPTR          *21       106
 12:41 09/05/97  FILE=ZIM$DBCN.:ZIC0TSI       SYMBOL TABLE                                               35   BMAP - B00
 40000000 000000000003 SCRSH          *21
 40000000 000000000002 SCRSN          *21
 41000000 000000000001 SCWSO          *21        80       167
 40000000 000000001225 SFWS           *21
 40000000 000000001073 SIZCHG         *21
 40000000 000000000645 SKFLG          *21
 40000000 000000000643 SKIND          *21
 40000000 000000000641 SKTYP          *21
 40000000 000000020464 SMCR           *21
 40000000 000000000003 SNAM           *21
 40000000 000000000107 SNIND          *21
 40000000 000000000735 SNPAE          *21
 40000000 000000001046 SNSI           *21
 40000000 000000000743 SOE            *21
 40000000 000000020630 SORSA          *21
 40000000 000000004374 SOSE           *21
 40000000 000000000000 SPAV           *21
 40000000 000000000744 SPCAVN         *21
 40000000 000000000744 SPCAVO         *21
 40000000 000000000765 SPLF           *21
 41000000 000000000765 SPND           *21
 40000000 000000000006 SSDT           *21
 40000000 000000303243 SSER           *21
 40000000 000000303244 SSER1          *21
 40000000 000000000002 SSH            *21
 40000000 000000000005 SSNAM          *21
 40000000 000000210573 SSNF           *21
 40000000 000000210576 SSNV           *21
 40000000 000000000020 SSSPTR         *21
 40000000 000000000010 SSVDT          *21
 40000000 000000000033 SSZTP          *21
 40000000 000000000017 ST             *21
 40000000 000000000104 STBIN          *21
 40000000 000000000105 STDEC          *21
 40000000 000000303302 STE1           *21
 40000000 000000303303 STE2           *21
 40000000 000000210624 STE3           *21
 12:41 09/05/97  FILE=ZIM$DBCN.:ZIC0TSI       SYMBOL TABLE                                               36   BMAP - B00
 40000000 000000303305 STE4           *21
 40000000 000000303306 STE5           *21
 00101000 000000000246 STER1         *232
 41000000 000000000100 STKSIZ         *21
 40000000 000000000055 STMASK         *21
 41000000 000000000062 SUST           *21       285
 41000000 000000000020 SWS            *21
 40000000 000000000000 SWSAC          *21
 40000000 000000000002 SWSZ           *21
 40000000 000000000000 SYSSF          *21
 40000000 000000000765 SZREQ          *21
 40000000 000000000004 TBUF           *21
 40000000 000000001061 TCTRS          *21
 60000000 000000000000 TDS            *21
 41000000 000000000113 TEMP           *21
 40000000 000000000640 TFLD           *21
 40000000 000000000657 TFLD2          *21
 40000000 000000000056 TMASK          *21
 40000000 000000000061 TMODE          *21
 40000000 000000000676 TMPPA          *21
 40000000 000000000003 TPAI           *21
 40000000 000000500000 TPRCOD         *21
 40000000 000000001031 TSFN           *21
 40000000 000000000021 TSI            *21
 40000000 000000001013 UBRD2          *21
 41000000 000000001223 UBSZ           *21
 40000000 000000000667 UCADR          *21
 40000000 000000000036 UCRS           *21
 40000000 000000000024 UFSPK          *21
 40000000 000000000024 UFSPK2         *21
 00101000 000000000247 ULER5         *243
 00101000 000000000335 ULER6         *284
 40000000 000000000715 ULIM           *21
 40000000 000000004230 UNA            *21
 40000000 000000303417 UNIM           *21
 00101000 000000000253 UNL0          *253
 01101000 000000000267 UNL1           257      *259
 12:41 09/05/97  FILE=ZIM$DBCN.:ZIC0TSI       SYMBOL TABLE                                               37   BMAP - B00
 01101000 000000000303 UNL2           263      *265
 01101000 000000000317 UNL3           269      *271
 01101000 000000000333 UNL4           275      *277
 40000000 000000000002 UOFST          *21
 40000000 000000001035 UPACD          *21
 40000000 000000000721 UPACW          *21
 40000000 000000000007 UPFLAG         *21
 40000000 000000000103 UPPAI          *21
 40000000 000000000004 UPTSID         *20
 40000000 000000000674 USTAT          *21
 40000000 000000000002 UWASID         *20
 40000000 000000000002 UWSSZ          *21
 40000000 000000000020 UWSZ           *21
 40000000 000000000243 VFDSC          *21
 40000000 000000001070 VFDSR          *21
 40000000 000000000656 VFLD           *21
 40000000 000000001074 VFLNG          *21
 40000000 000000001124 VIB1           *21
 40000000 000000001154 VIBP           *21
 41000000 000000000000 VLPSID         *20        54       151
 40000000 000000001074 VRSIZ          *21
 40000000 000000001067 WLOA           *21
 40000000 000000100000 WRTI           *21
 41000000 000000000000 WSBID          *21       174
 40000000 000000000003 WSOF           *21
 41000000 000000000000 X0             *20       131       132       134       171       172       173
                                      174       176       177       178       194       201       207
                                      212       217       222       226
 41000000 000000000001 X1             *20        50        52        62        63        70        71
                                       76        77        80        81        82        87        89
                                       96        98        99       100       104       105       109
                                      110       112       115       123       125       127       137
                                      141       143       144       145       148       156       157
                                      159       167       185       251       257       258       263
                                      264       269       270       275       276
 41000000 000000000002 X2             *20       168
 41000000 000000000003 X3             *20        87        88       159       254       258       260
 12:41 09/05/97  FILE=ZIM$DBCN.:ZIC0TSI       SYMBOL TABLE                                               38   BMAP - B00
                                      264       266       270       272       276
 41000000 000000000004 X4             *20       135       136
 41000000 000000000005 X5             *20       107       124       128       129       142       147
 41000000 000000000006 X6             *20        56        57        74       103       106       153
                                      154       155       166       195       202       213
 03201014 000000000000 X66_ARET       *20       187
 03201013 000000000000 X66_AUTO_0     *20        48
 41000000 000000000007 X7             *20        58        59        66        97       196       203
                                      208       218
 40000000 000000210665 XASL           *21
 40000000 000000303420 XLD            *21
 40000000 000000303421 XPD            *21
 40000000 000000000676 XPRS           *21
 40000000 000000210666 XROLL          *21
 40000000 000000210664 XUNEX          *21
 40000000 777777777777 XXDPN          *21
 03201011 000000000000 ZIB$CLRRECOVER           *18       185       251
 03201017 000000000000 ZIB$DBALT     *280      *285
 03201016 000000000000 ZIB$DBALTO    *279
 03201015 000000000000 ZIB$DBALTR    *249
 03201010 000000000000 ZIB$FPTRECOVER           *17        50
 03201008 000000000000 ZIG$DBAF       *15       125
 03201009 000000000000 ZIG$DBAKP      *16       148
 12101000 000000000000 ZIG$DBCON       10       *47
 03201007 000000000000 ZIG$DBGRS      *15       104
 03201000 000000000000 ZIG$DBPCR      *11        52
 03201001 000000000000 ZIG$DBPFI      *11       156
 03201006 000000000000 ZIG$DBPMA      *14       137
 03201002 000000000000 ZIM$DBPLK      *12        87
 03201004 000000000000 ZIM$DBPMR      *12        89
 03201003 000000000000 ZIM$DBPUL      *12       159       258       264       270       276
 03201005 000000000000 ZIM$PCON       *13       157
 03201012 000000000000 ZIO$DBBCC      *19       257       263       269       275

     969 SYMBOLS

 12:41 09/05/97  FILE=ZIM$DBCN.:ZIC0TSI       MACRO TABLE                                                39   BMAP - B00
 CBSYM           21
 DBALT          249       280
 DBALTO         279
 DBCAL           50        52        87        89       104       125       137       148       156
                157       185       251       257       263       269       275
 DBREC          285
 DBRET          187
 DBSAV           48
 LOCK            87
 Q2SYM           21
 SSSYM           21
 UNLOCK         159       258       264       270       276

      37 MACROS

    SYMBOL SPACE USED  9733 WORDS
     MACRO SPACE USED 13050 WORDS
   INPUT RECORDS READ  2374
 STATEMENTS PROCESSED  2465
         ELAPSED TIME  0:11.76
             CPU TIME    11.18 SEC.
        ASSEMBLY RATE 13229 STATEMENTS/CPU MIN.

      NO ERRORS

