
 12:42 09/05/97  FILE=ZIM$DBDL.:ZIC0TSI                                                                  1    BMAP - B00
                                         1  *M*      ZIG$DBDL
                                         2  *T***********************************************************
                                         3  *T*                                                         *
                                         4  *T* Copyright (c) Bull HN Information Systems Inc., 1997    *
                                         5  *T*                                                         *
                                         6  *T***********************************************************

 12:42 09/05/97  FILE=ZIM$DBDL.:ZIC0TSI       H6600H2.504     IDS/IT ERASE                   780321DBDL  2    BMAP - B00
                                         7         TTL     H6600H2.504     IDS/IT ERASE                   780321DBDL
                                         8         CPR     1974
                                         9         PMC     OFF
                                        10         ENTDEF  ZIG$DBERS
                                        11           ENTREF      ZIQ$DBPR1
                                        12         ENTREF  ZIG$DBPDR,ZIG$DBPFD,ZIG$DBPFP
                                        13        ENTREF  ZIG$DBPFN,ZIG$DBPCR,ZIG$DBPFI
                                        14        ENTREF  ZIM$DBPLK,ZIM$DBPUL,ZIM$DBPMR
                                        15           ENTREF      ZIM$PCON
                                        16           ENTREF      ZIM$PDIS
                                        17           ENTREF      ZIM$JDEL
                                        18         ENTREF     ZIG$DBXKT
                                        19           ENTREF      ZIM$KDEL
                                        20           ENTREF      ZIM$KSTO
                                        21           ENTREF      ZIM$IDEL
                                        22           ENTREF      ZIM$KCURR
                                        23         ENTREF  ZIG$DBGRS
                                        24           ENTREF      ZIM$TRACE
                                        25          ENTREF  ZIO$DBBCC
                                        26           ENTREF    ZIG$DBAKP
                                        27          ENTREF   ZIG$DBPFO
                                        28          ENTREF   ZIB$FPTRECOVER
                                        29          ENTREF   ZIB$CLRRECOVER
                                        30         LODM    Q2MA
                                        31         Q2SYM

 12:42 09/05/97  FILE=ZIM$DBDL.:ZIC0TSI       IDS-II ERASE SUBROUTINE                                    3    BMAP - B00
                                        32         TTLS    IDS-II ERASE SUBROUTINE
                                        33  **********************************************************************
                                        34  *
                                        35  *  - DBERS -
                                        36  *
                                        37  *      ERASE.  Remove a record from the data base and,
                                        38  *      optionally, remove the members of all sets owned
                                        39  *      by that record.
                                        40  *
                                        41  *      Parameter   Description
                                        42  *      ---------   -----------
                                        43  *
                                        44  *          0       IA
                                        45  *          1       UWA
                                        46  *          2       FPT
                                        47  *
                                        48  *      FPT Format...
                                        49  *
                                        50  *      Word 0:  RVA offset to a schema subset element which
                                        51  *          describes a data base record.  This argument will
                                        52  *          be zero if no record type is specified.
                                        53  *      Word 1:  Erase Control Word
                                        54  *              Bit 0:  If set, all members will be erased.
                                        55  *
                                        56  **********************************************************************
                                        57  *
 0 000000                               58  ZIG$DBERS NULL
   000000  X 000000 7000 00             59           DBSAV
   000001    000004 000000
                                        60  *  INIT STACK
   000002    7 00271 2351 00            61         LDA     .DBEST+1,,PR7   GET TALLY REFRESH
   000003    7 00270 7551 00            62         STA     .DBEST,,PR7     SAVE AS TALLY
   000004    7 00371 2351 00            63         LDA     .DBSTK+1,,PR7   GET TALLY REFRESH
   000005    7 00370 7551 00            64         STA     .DBSTK,,PR7     SAVE AS TALLY
                                        65  *  Set RECOVER addr for FPT checker
   000006  X 000000 7010 00             66         DBCAL   ZIB$FPTRECOVER,,DLR1
   000007 (0)000660 7020 00
 12:42 09/05/97  FILE=ZIM$DBDL.:ZIC0TSI       IDS-II ERASE SUBROUTINE                                    4    BMAP - B00
   000010    5 00006 2341 00
   000011    777776 6010 04
                                        67  *  GET CURRENT OF RUN
   000012  X 000000 7010 00             68           DBCAL    ZIG$DBPCR,,GCER1     Get current of run
   000013 (0)000657 7020 00
   000014    5 00006 2341 00
   000015    777776 6010 04
                                        69  *  Check RC for correct type
   000016    000000 4704 07             70         LDP    PR0,VLPSID,DL            VLP$
   000017    000003 4714 07             71           LDP      PR1,RVASID,DL           RVA$
   000020    0 00000 2271 00            72         LDX     X7,0,,PR0            Get offset to RC pointer from FPT
   000021    1 00000 2271 17            73           LDX      X7,,X7,PR1           Get RC offset from RVA
   000022 (0)000030 6000 00             74         TZE     NRC1            NONE - GO FIND IT
                                        75         IFE     A,1,%CK1
   000023    6 00000 2211 17            76         LDX     X1,DEF,X7,PR6   GET DEF TYPE FROM RC
   000024    100000 3010 03             77         CANX    X1,.RC,DU       IS IT AN RC
   000025 (0)000574 6000 00             78         TZE     CALE1           NO - ERROR
                                        79  CK1    MARK
   000026    7 01224 1071 00            80         CMPX    X7,CRUN+1,,PR7  IS TYPE REQUESTED CURR OF RUN
   000027 (0)000601 6010 00             81         TNZ     CER2            NO
   000030                               82  NRC1   NULL
                                        83  *  SET UP FOR DELETE OF THIS REC
   000030                               84  RSL4   NULL
   000030    7 00510 2231 00            85         LDX     X3,RVI,,PR7
   000031    7 00006 2271 13            86         LDX     X7,RCPTR,X3,PR7  GET RC
   000032    7 00036 7471 00            87         STX     X7,DELRS,,PR7   SAVE RC AS CURRENT RS
                                        88  *  CHECK PRIVACY
   000033                               89  RSL7   NULL
   000033    6 00004 2211 17            90         LDX     X1,RCWSO,X7,PR6  GET WORK SPACE OFST
   000034    7 00000 2211 11            91         LDX     X1,PRIV,X1,PR7
   000035    000040 3010 03             92         CANX    X1,PE,DU        IS PRIVACY SATISFIED
   000036 (0)000616 6000 00             93         TZE     PRVE1           NO
                                        94  *  CHECK THAT THIS REC CAN BE ERASED
   000037    6 00000 7211 17            95         LXL     X1,DEF,X7,PR6
   000040    500000 3010 03             96         CANX    X1,.RERS+.SR,DU  CAN IT BE ERASED
   000041 (0)000606 6010 00             97         TNZ     RER2            NO
                                        98  *  IF ALL MEMBERS IS SPECIFIED, CHECK THAT IT IS ALLOWED
 12:42 09/05/97  FILE=ZIM$DBDL.:ZIC0TSI       IDS-II ERASE SUBROUTINE                                    5    BMAP - B00
   000042                               99  RSL2   NULL
   000042    0 00001 2341 00           100         SZN     1,,PR0               Test Erase Control Word
   000043 (0)000047 6050 00            101         TPL     *+4             NO - SKIP CHECK
   000044    6 00000 7211 17           102         LXL     X1,DEF,X7,PR6
   000045    004000 3010 03            103         CANX    X1,.RERA,DU     YES - CAN IT BE SPECIFIED
   000046 (0)000612 6010 00            104         TNZ     RER3            NO - ERROR
   000047    7 00036 2271 00           105           LDX      X7,DELRS,,PR7        Restore RS pointer
   000050    6 00000 2211 17           106         LDX        X1,DEF,X7,PR6     GET LOCATION MODE
   000051    000007 3610 03            107         ANX        X1,.PSTO,DU       ISOLATE
   000052    000004 1010 03            108         CMPX       X1,4,DU           IS IT INDEXED
   000053 (0)000062 6000 00            109           TZE      RSL1                 Yes.  Don't lock or unlock it.
                                       110  *  LOCK RECORD
   000054    7 00510 2231 00           111        LOCK    RVI
   000055  X 000000 7010 00
   000056    000000 0020 00
   000057    7 00510 2231 00           112        LDX     X3,RVI,,PR7
   000060  X 000000 7010 00            113        DBCAL   ZIM$DBPMR,NOEXC,LKER6
   000061 (0)000657 7020 00
                                       114  *  PROCESS SO & SM'S FOR THIS REC
                                       115  *    DISCONNECT FROM EACH SET THIS REC IS CURRENTLY A MEMBER OF
                                       116  *    IF IT IS OWNER OF A SET THAT CURRENTLY HAS MEMBERS - PUSH THIS
                                       117  *      REC ON STACK & GO DELETE 1ST MEMBER
                                       118  *
                                       119  *  GET NEXT RS DEF FOR THIS RC
   000062                              120  RSL1   NULL
   000062    7 00036 2251 00           121         LDX     X5,DELRS,,PR7   GET CURR RS
   000063    6 00002 7251 15           122         LXL     X5,RCRSN,X5,PR6  GET NEXT RS
   000064 (0)000100 6000 00            123         TZE     RSMEM           LAST RS - DONE THIS REC
   000065    7 00036 7451 00           124         STX     X5,DELRS,,PR7   SAVE AS CURR RS
   000066                              125  RSL3   NULL
   000066    7 00371 2351 00           126         LDA     .DBSTK+1,,PR7   GET TALLY REFRESH
   000067    7 00370 7551 00           127         STA     .DBSTK,,PR7     NO BACKOUT FOR OWNERS
   000070    6 00003 7261 15           128         LXL     X6,SCRSH,X5,PR6  GET SC FOR THIS RS
   000071    7 00520 7461 00           129         STX     X6,PRSC,,PR7    PUT IN PRIM. REQUEST
   000072    400000 2350 03            130         LDA     .B0,DU
   000073    7 00517 7551 00           131         STA     PRRC,,PR7       SET TYPE REQUEST TO ANY
   000074    6 00000 2211 15           132         LDX     X1,DEF,X5,PR6
 12:42 09/05/97  FILE=ZIM$DBDL.:ZIC0TSI       IDS-II ERASE SUBROUTINE                                    6    BMAP - B00
   000075    010000 3010 03            133         CANX    X1,.SO,DU       IS THIS SET OWNER RS
   000076 (0)000136 6010 00            134         TNZ     PSOD            YES - PROCESS SET OOWNER RS
   000077 (0)000062 7100 00            135         TRA     RSL1            NO - GO GET NEXT OWNER RS
                                       136  *  NOW PROCESS MEMBER RS
   000100                              137  RSMEM  NULL
                                       138  * MOVE REC TO TEMP BUFFER IF REC HAS ALTERNATE KEYS
   000100    7 00510 2231 00           139         LDX     X3,RVI,,PR7     REC VAR IN
   000101    7 00036 2271 00           140         LDX     X7,DELRS,,PR7   GET CURR RS PTR (OR RC IF NO RS'S)
   000102    6 00000 2211 17           141         LDX     X1,DEF,X7,PR6   GET DEF WORD FROM RC OR RS
   000103    100000 3010 03            142         CANX    X1,.RC,DU       IS IT AN RC OR RS PTR
   000104 (0)000106 6010 00            143         TNZ     *+2             RC - SKIP GETTING RC-RS HEAD
   000105    6 00003 2271 17           144         LDX     X7,RCRSH,X7,PR6  GET RC PTR
   000106    7 00036 7471 00           145         STX     X7,DELRS,,PR7   START OVER - SAVE RC AS CURR RS
   000107    6 00000 7211 17           146         LXL     X1,DEF,X7,PR6   GET DEF WORD FOR RC
   000110    010000 3010 03            147         CANX    X1,.RKEY,DU     DOES REC HAVE ALT. KEYS
   000111 (0)000120 6000 00            148         TZE     DMOVE           NO - DONT MOVE REC
   000112    7 00002 4735 13           149         LDP     PR3,RADDR,X3,PR7  GET RECORD ADDRESS
   000113    7 00004 4745 00           150         LDP     PR4,TBUF,,PR7   TEMP BUF ADDRESS
   000114    7 00003 2211 13           151         LDX     X1,RECSZ,X3,PR7  GET RECORD SIZE
   000115    000 0 140 1005 40         152         MLR     (1,1),(1,1)        * MOVE REC
   000116    3 00000 0 0 0 0011        153         ADSC9   0,0,X1,PR3         *  FROM DATA BUFFER
   000117    4 00000 0 0 0 0011        154         ADSC9   0,0,X1,PR4         *   TO TEMP REC BUFFER
   000120                              155  DMOVE  NULL
                                       156  *  INIT FIND STACK FOR MEMBER RS'S N BACKOUT
   000120    7 00371 2351 00           157         LDA     .DBSTK+1,,PR7   GET TALLY REFRESH
   000121    7 00370 7551 00           158         STA     .DBSTK,,PR7     SAVE AS TALLY
   000122                              159  RSML1  NULL
   000122    7 00036 2251 00           160         LDX     X5,DELRS,,PR7    GET CURR RS
   000123    6 00002 7251 15           161         LXL     X5,RCRSN,X5,PR6  GET NEXT RS
   000124 (0)000416 6000 00            162         TZE     SPDON            LAST RS - DONE THIS REC
   000125    7 00036 7451 00           163         STX     X5,DELRS,,PR7    SAVE AS CURR RS
   000126                              164  RSML2  NULL
   000126    6 00003 7261 15           165         LXL     X6,SCRSH,X5,PR6  GET SC FOR THIS RS
   000127    7 00520 7461 00           166         STX     X6,PRSC,,PR7     PUT IN PRIM REQUEST
   000130    400000 2350 03            167         LDA     .B0,DU
   000131    7 00517 7551 00           168         STA     PRRC,,PR7        SET TYPE REQUEST TO ANY
   000132    6 00000 2211 15           169         LDX     X1,DEF,X5,PR6
 12:42 09/05/97  FILE=ZIM$DBDL.:ZIC0TSI       IDS-II ERASE SUBROUTINE                                    7    BMAP - B00
   000133    004000 3010 03            170         CANX    X1,.SM,DU        IS THIS SET MEMBER RS
   000134 (0)000244 6010 00            171         TNZ     PSM              YES - PROCESS SET MEMBER
   000135 (0)000122 7100 00            172         TRA     RSML1            NO - GET NEXT SET MEMBER
   000136                              173  PSOD   NULL
                                       174  *  PROCESS SET OWNER DEF
                                       175  *  MAKE CURR OF SET NULL IF THIS REC IS CURR
   000136    7 00510 2231 00           176         LDX     X3,RVI,,PR7
   000137    7 00000 2361 13           177         LDQ     DBKEY,X3,PR7    GET DBK OF REC JUST DISC.
   000140    6 00001 2211 16           178         LDX     X1,SCWSO,X6,PR6  GET WORK SPACE OFST
   000141    7 00001 1161 11           179         CMPQ    CURR,X1,PR7     IS REC CURR OF SET
   000142    000004 6010 04            180         TNZ     DNC1,$          NO
   000143    7 00001 4501 11           181         STZ     CURR,X1,PR7     NULL CURR OF SET
   000144    377777 2200 03            182         LDX     X0,=O377777,DU
   000145    7 00000 3401 11           183         ANSX    X0,.CSE,X1,PR7  SET CURR ERASED BIT OFF
   000146                              184  DNC1   NULL
                                       185  *  CHECK FOR EMPTY SET
   000146    7 00002 4735 13           186         LDP     PR3,RADDR,X3,PR7  GET ADDR OF REC
   000147    000 0 100 1015 20         187         MRL     (1,,1),(1),0    * MOVE
   000150    6 00004 0001 15           188         ARG     NPOS,X5,PR6     *  NEXT PTR TO
   000151    7 00061 0 0 0 0004        189         ADSC9   ITPTR,0,4,PR7
   000152    7 00061 2361 00           190         LDQ     ITPTR,,PR7      GET PTR
   000153    6 00000 7211 16           191         LXL     X1,DEF,X6,PR6
   000154    001000 3010 03            192         CANX    X1,.LG,DU       IS SET GLOBAL
   000155 (0)000160 6010 00            193         TNZ     *+3             YES
   000156    7 00005 2201 13           194         LDX     X0,ACPTR,X3,PR7  GET AC
   000157    6 00002 0361 10           195         ADLQ    ABAS,X0,PR6     MAKE PTR A DBK
   000160    7 00000 1161 13           196         CMPQ    DBKEY,X3,PR7    IS SET EMPTY
   000161 (0)000062 6000 00            197         TZE     RSL1            YES - GO TO NEXT RS
                                       198  *    CHECK THAT ALL IS SPECIFIED
   000162    000000 4704 07            199         LDP    PR0,VLPSID,DL            VLP$
   000163    0 00001 2341 00           200         SZN     1,,PR0               Test Erase Control Word
   000164 (0)000206 6040 00            201         TMI     SISS                 B/ If all specified
                                       202  *  CHECK IF SET MEMBERS ARE DELETED                                     <EHW>
   000165                              203  CFES   NULL                                                             <EHW>
   000165  X 000000 7010 00            204         DBCAL   ZIG$DBPFN,NOMEM,FNER2 FIND NEXT OF SET                   <EHW>
   000166 (0)000657 7020 00
   000167    5 00006 2341 00
 12:42 09/05/97  FILE=ZIM$DBDL.:ZIC0TSI       IDS-II ERASE SUBROUTINE                                    8    BMAP - B00
   000170    000003 6000 04
   000171    5 00006 4501 00
   000172 (0)000203 7020 00
   000173    7 00511 2231 00           205         LDX     X3,RVO,,PR7     NEXT IN REC VAR OUT                      <EHW>
   000174    7 00003 7201 13           206         LXL     X0,RTP,X3,PR7   GET DELETE INDICATOR BIT                 <EHW>
   000175    100000 3000 03            207         CANX    X0,.B2,DU       IS RECORD LOGICALLY DELETED              <EHW>
   000176 (0)000622 6000 00            208         TZE     ALNS            NO - ERROR, ALL NOT SPECIFIED            <EHW>
   000177    7 00510 2371 00           209         LDAQ    RVI,,PR7        REVERSE IN AND OUT VARS                  <EHW>
   000200    7 00511 7551 00           210         STA     RVO,,PR7                                                 <EHW>
   000201    7 00510 7561 00           211         STQ     RVI,,PR7                                                 <EHW>
   000202 (0)000165 7100 00            212         TRA     CFES            GO GET NEXT                              <EHW>
   000203                              213  NOMEM  NULL    SET HAS NO MEMBERS                                       <EHW>
   000203    7 00510 2371 00           214         LDAQ    RVI,,PR7        RESTORE SET OWNER                        <EHW>
   000204    7 00511 7551 00           215         STA     RVO,,PR7        *                                        <EHW>
   000205    7 00510 7561 00           216         STQ     RVI,,PR7        *  IN REC VAR IN                         <EHW>
   000206                              217  SISS   NULL                                                             <EHW>
                                       218  *  CHECK THAT SET IS IN SUB-SCHEMA
   000206    6 00000 7211 16           219         LXL     X1,DEF,X6,PR6
   000207    020000 3010 03            220         CANX    X1,.SNSS,DU     IS SET IN SUB-SCHEMA
   000210    000430 6010 04            221         TNZ     EANA,$          NO - ERROR
                                       222  *  GET NEXT REC OF SET
   000211                              223  FNXT   NULL                                                             <EHW>
   000211  X 000000 7010 00            224           DBCAL    ZIG$DBPFN,RSL1,FNER1 Find next
   000212 (0)000657 7020 00
   000213    5 00006 2341 00
   000214    000003 6000 04
   000215    5 00006 4501 00
   000216 (0)000062 7020 00
                                       225  *     PUT RS & DBK IN STACK
   000217    7 00510 2231 00           226         LDX     X3,RVI,,PR7     SET X3 TO REC VAR IN
   000220    7 00004 7251 13           227         LXL     X5,RSPTR,X3,PR7  GET RS PTR FOR REC
   000221    7 00000 2361 13           228         LDQ     DBKEY,X3,PR7    GET DBK
                                       229  *                                                                       <EHW>
                                       230  *  FOR PHYSICAL DELETES OWNER GOES IN STACK                             <EHW>
                                       231  *                                                                       <EHW>
   000222    000000 6350 15            232         PSHRS   ESFUL           PUSH
   000223    7 00270 7571 53
 12:42 09/05/97  FILE=ZIM$DBDL.:ZIC0TSI       IDS-II ERASE SUBROUTINE                                    9    BMAP - B00
   000224 (0)000644 6064 00
                                       233  *     UNLOCK THE REC
   000225    7 00510 2231 00           234        UNLOCK  RVI
   000226  X 000000 7010 00
   000227    000000 0020 00
   000230    7 00510 2371 00           235         LDAQ    RVI,,PR7        * REVERSE
   000231    7 00511 7551 00           236         STA     RVO,,PR7        *  IN &
   000232    7 00510 7561 00           237         STQ     RVI,,PR7        *   OUT REC VAR
   000233    7 00510 2231 00           238         LDX     X3,RVI,,PR7
   000234    7 00006 2271 13           239         LDX     X7,RCPTR,X3,PR7 *   GET RC
   000235    7 00036 7471 00           240         STX     X7,DELRS,,PR7   * SAVE RC AS CURRENT RS
   000236    6 00000 7211 17           241         LXL     X1,DEF,X7,PR6
   000237    100000 3010 03            242         CANX    X1,.SR,DU       IS IT IN SUBSCHEMA
   000240 (0)000033 6000 00            243         TZE     RSL7
   000241    400000 3010 03            244         CANX    X1,.RERS,DU     *   CAN IT BE ERASED
   000242 (0)000606 6000 00            245         TZE     RER2            *   NO
   000243 (0)000042 7100 00            246         TRA     RSL2            GO PROCESS REC
                                       247  *  PROCESS SET MEMBER DEF.
   000244                              248  PSM    NULL
                                       249  *  CHECK THAT REC IS CURRENTLY A MEMBER
   000244    6 00000 7211 15           250         LXL     X1,DEF,X5,PR6
   000245    140000 3010 03            251         CANX    X1,.MSM+.OSM,DU  IS IT MANUAL OR OPTIONAL MEMBER
   000246 (0)000256 6000 00            252         TZE     NMOO            NO
   000247    7 00510 2231 00           253         LDX     X3,RVI,,PR7
   000250    7 00002 4735 13           254         LDP     PR3,RADDR,X3,PR7  GET REC ADDR
   000251    000 1 100 1015 20         255         MRL     (1,,1),(1),0,1  * MOVE
   000252    6 00004 0001 15           256         ARG     NPOS,X5,PR6     *  NEXT PTR TO
   000253    7 00061 0 0 0 0004        257         ADSC9   ITPTR,0,4,PR7        Work Space
   000254    7 00061 2341 00           258         SZN     ITPTR,,PR7      IS REC A MEMBER
   000255 (0)000122 6000 00            259         TZE     RSML1           NO - GO TO NEXT RS
   000256                              260  NMOO   NULL
   000256    6 00000 2351 16           261         LDA     DEF,X6,PR6      GET SET TYPE
   000257    000700 3750 07            262         ANA     .SETT,DL        ISOLATE
   000260    000200 1150 07            263         CMPA    =O200,DL        IS IT A PRIMARY KEY
   000261 (0)000122 6000 00            264         TZE     RSML1           YES - GO TO NEXT RS
   000262    000300 1150 07            265         CMPA    =O300,DL        IS IT AN ALT. KEY
   000263 (0)000330 6000 00            266         TZE     ALT             YES
 12:42 09/05/97  FILE=ZIM$DBDL.:ZIC0TSI       IDS-II ERASE SUBROUTINE                                    10   BMAP - B00
                                       267  *
                                       268  * IF SET IS POINTER ARRAY - NEED TO GET THE DBK OF PA REC FROM CURR REC
                                       269  *
   000264    6 00000 2211 16           270         LDX     X1,DEF,X6,PR6   GET SET MODE
   000265    000070 3610 03            271         ANX     X1,.SETM,DU     ISOLATE
   000266    000020 1010 03            272         CMPX    X1,=O020,DU     IS IT POINTER ARRAY
   000267 (0)000305 6010 00            273         TNZ     FNDP            NO - GO FIND PRIOR
   000270    7 00510 2231 00           274         LDX     X3,RVI,,PR7
   000271    7 00002 4735 13           275         LDP     PR3,RADDR,X3,PR7  GET REC ADDRESS
                                       276  *
   000272    000 1 100 1015 20         277         MRL     (1,,1),(1),0,1    *MOVE
   000273    6 00004 0001 15           278         ARG     CSPAH,X5,PR6       *DBK OF OWNER PA REC
   000274    7 00061 0 0 0 0004        279         ADSC9   ITPTR,0,4,PR7        To Work Space
   000275    7 00061 2351 00           280         LDA     ITPTR,,PR7      GET PTR
   000276    6 00000 7201 16           281         LXL     X0,DEF,X6,PR6   GET LOCAL/GLOBAL IND FROM SC
   000277    001000 3000 03            282         CANX    X0,.LG,DU       IS IT A GLOBAL SET
   000300 (0)000303 6010 00            283         TNZ     SDBK            YES - DONT ADJUST
                                       284  *
   000301    7 00005 2201 13           285         LDX     X0,ACPTR,X3,PR7  GET AC PTR
   000302    6 00002 0351 10           286         ADLA    ABAS,X0,PR6     MAKE PTR GLOBAL DBK
                                       287  *
   000303                              288  SDBK   NULL
   000303    7 00015 7551 13           289         STA     CBRPA,X3,PR7    SAVE DBK OF PA REC IN RVI
   000304    7 00014 4501 13           290         STZ     CBRCE,X3,PR7    ZERO OUT ENTRY AND PTR OFSTS
                                       291  *
   000305                              292  FNDP   NULL
                                       293  *  DISCONNECT THE REC
   000305  X 000000 7010 00            294         DBCAL   ZIG$DBPFP,FMEM,PER2 FIND PRIOR
   000306 (0)000657 7020 00
   000307    5 00006 2341 00
   000310    000003 6000 04
   000311    5 00006 4501 00
   000312 (0)000313 7020 00
   000313                              295  FMEM   NULL
   000313    7 00511 2351 00           296         LDA     RVO,,PR7        *
   000314    7 00512 2361 00           297         LDQ     RVT,,PR7        *  REVERSE OUT & TEMP
   000315    7 00512 7551 00           298         STA     RVT,,PR7        *    REC VAR
 12:42 09/05/97  FILE=ZIM$DBDL.:ZIC0TSI       IDS-II ERASE SUBROUTINE                                    11   BMAP - B00
   000316    7 00511 7561 00           299         STQ     RVO,,PR7        *
   000317  X 000000 7010 00            300           DBCAL    ZIM$PDIS,,DER2       Disconnect
   000320 (0)000657 7020 00
   000321    5 00006 2341 00
   000322    777776 6010 04
   000323    7 00512 2211 00           301         LDX     X1,RVT,,PR7
   000324    7 00000 2361 11           302         LDQ     DBKEY,X1,PR7     GET DBK OF PRIOR
   000325    7 00520 2261 00           303         LDX     X6,PRSC,,PR7     GET SC PTR
   000326    7 00512 2201 00           304         LDX     X0,RVT,,PR7     REC VAR TEMP
   000327 (0)000364 7100 00            305         TRA     PSTK
                                       306  *
                                       307  *  RS FOR ALTERNATE KEY
                                       308  *
   000330                              309  ALT    NULL
                                       310  *
                                       311  *  If alternate key on indexed area no seperate delete just
                                       312  *  handle currencies and continue
                                       313  *
   000330    6 00003 2271 15           314           LDX      X7,RCRSH,X5,PR6      Get RC for this RS
   000331    6 00000 2211 17           315           LDX      X1,DEF,X7,PR6        Get def word of RC
   000332    000007 3610 03            316           ANX      X1,.PSTO,DU          Isolate
   000333    000004 1010 03            317           CMPX     X1,4,DU              Is it indexed
   000334 (0)000347 6000 00            318           TZE      NOALT                Yes.
   000335    7 00516 7451 00           319         STX     X5,PRSS,,PR7    SAVE RS PTR FOR MOVE
   000336    7 00676 4451 00           320         SXL     X5,XPRS,,PR7    SAVE RS FOR INDEX PRIMS
                                       321  *  MOVE KEY FROM TEMP BUF TO KEY PROCESS AREA
   000337  X 000000 7010 00            322         DBCAL   ZIG$DBXKT,,MKER1 MOVE KEY
   000340 (0)000657 7020 00
   000341    5 00006 2341 00
   000342    777776 6010 04
                                       323  *  DELETE ENTRY FROM ALTERNATE INDEX
   000343  X 000000 7010 00            324           DBCAL    ZIM$KDEL,,DAER1      Delete alternate key
   000344 (0)000657 7020 00
   000345    5 00006 2341 00
   000346    777776 6010 04
   000347                              325  NOALT    NULL
   000347    7 00510 2201 00           326         LDX     X0,RVI,,PR7     REC VAR IN
 12:42 09/05/97  FILE=ZIM$DBDL.:ZIC0TSI       IDS-II ERASE SUBROUTINE                                    12   BMAP - B00
                                       327  *  IF REC IS CURRENT OF ALTERNATE KEY, WILL PUT
                                       328  *  THE SAME KEY BACK IN CURRENCY AND THEN SET THE
                                       329  *  CURRENT WAS ERASED INDICATOR ON.  THERE IS REALLY
                                       330  *  NO PRIOR FOR ALTERNATES.
   000350    7 00520 2261 00           331         LDX     X6,PRSC,,PR7    GET SC PTR
   000351    7 00676 7211 00           332         LXL     X1,XPRS,,PR7    GET RS PTR
   000352    000000 6360 11            333         EAQ     ,X1             PUT IN QU
   000353    7 00370 7461 56           334         STX     X6,.DBSTK,ID,PR7  SAVE SC PTR
   000354 (0)000651 6064 00            335         TTN     FSFUL           ERROR - TABLE OVERFLOW
   000355    7 00370 7561 56           336         STQ     .DBSTK,ID,PR7   SAVE PRIOR DBK IN STACK
   000356 (0)000651 6064 00            337         TTN     FSFUL
   000357    7 00000 2361 10           338         LDQ     DBKEY,X0,PR7    GET DBK OF RECORD DISCONNECTED
   000360    6 00001 2211 16           339         LDX     X1,SCWSO,X6,PR6  GET WORK SPACE OFFSET
   000361    7 00001 1161 11           340         CMPQ    CURR,X1,PR7     IS REC CURR
   000362 (0)000415 6010 00            341         TNZ     DNC2
   000363 (0)000413 7100 00            342         TRA     DNC4
   000364                              343  PSTK   NULL
                                       344  *  PUSH STACK
                                       345  *
   000364    7 00036 2251 00           346         LDX     X5,DELRS,,PR7           GET RS DEF
   000365    7 00370 4451 51           347         SXL     X5,.DBSTK,I,PR7         SAVE IN STACK
   000366    7 00370 7461 56           348         STX     X6,.DBSTK,ID,PR7  SAVE SC PTR
   000367 (0)000651 6064 00            349         TTN     FSFUL            ERROR - TABLE OVERFLOW
   000370    7 00370 7561 56           350         STQ     .DBSTK,ID,PR7    SAVE PRIOR DBK IN STACK
   000371 (0)000651 6064 00            351         TTN     FSFUL            ERROR - TABLE OVERFLOW
   000372    7 00520 2261 00           352         LDX     X6,PRSC,,PR7    GET SC
   000373    7 00510 2231 00           353         LDX     X3,RVI,,PR7
   000374    7 00000 2361 13           354         LDQ     DBKEY,X3,PR7    GET DBK OF REC DISCONNECTED
   000375    6 00001 2211 16           355         LDX     X1,SCWSO,X6,PR6  GET WORK SPACE OFST
   000376    7 00001 1161 11           356         CMPQ    CURR,X1,PR7     IS REC CURR
   000377    000016 6010 04            357         TNZ     DNC2,$          NO
   000400    7 00000 2361 10           358         LDQ     DBKEY,X0,PR7    GET DBK OF PRIOR
   000401    7 00001 7561 11           359         STQ     CURR,X1,PR7     SAVE AS CURR
   000402    6 00000 2231 16           360         LDX     X3,DEF,X6,PR6   GET SET MODE
   000403    000070 3630 03            361         ANX     X3,.SETM,DU     ISOLATE
   000404    000020 1030 03            362         CMPX    X3,=O020,DU     IS IT POINTER ARRAY
   000405 (0)000411 6010 00            363         TNZ     SCWE            NO - GO SET CURR WAS ERASED IND.
 12:42 09/05/97  FILE=ZIM$DBDL.:ZIC0TSI       IDS-II ERASE SUBROUTINE                                    13   BMAP - B00
   000406    7 00014 2371 10           364         LDAQ    CBRCE,X0,PR7    YES - SAVE PA ENTRY AND PTR OFSTS OF PRIOR
   000407    7 00002 7551 11           365         STA     CBENO,X1,PR7          IN SET WS
   000410    7 00003 7561 11           366         STQ     CBCPA,X1,PR7    SAVE DBK OF PA REC OF PRIOR IN SET WS
   000411                              367  SCWE   NULL
   000411    7 00005 2231 10           368        LDX     X3,ACPTR,X0,PR7     GET ACPTR OF PRIOR
   000412    7 00000 4431 11           369         SXL     X3,WSBID,X1,PR7  SAVE AS CURR BURID
   000413                              370  DNC4   NULL
   000413    400000 6200 00            371         EAX     X0,.B0
   000414    7 00000 2401 11           372         ORSX    X0,.CSE,X1,PR7  SET CURR WAS ERASED INDICATOR
   000415                              373  DNC2   NULL
   000415 (0)000122 7100 00            374         TRA     RSML1           GO TO NEXT RS
                                       375  *
                                       376  *  SET PROCESSING DONE - DELETE
                                       377  *
   000416                              378  SPDON  NULL
   000416    7 00510 2231 00           379           LDX      X3,RVI,,PR7          Input record variable
   000417    7 00006 2271 13           380           LDX      X7,RCPTR,X3,PR7      Is RC null
   000420 (0)000431 6010 00            381           TNZ      CKINDX               Check to see if indexed area
   000421    7 00005 2201 13           382           LDX      X0,ACPTR,X3,PR7      Get AC
   000422    7 00003 2351 13           383           LDA      RTP,X3,PR7           Get Record type
   000423  X 000000 7010 00            384           ICCAL    ZIQ$DBPR1,,EFR1      Get RC and RS for record
   000424 (0)000657 7020 00
   000425    5 00006 2341 00
   000426    777776 6010 04
   000427    7 00510 2231 00           385           LDX     X3,RVI,,PR7           Input record variable
   000430    7 00006 7471 13           386           STX      X7,RCPTR,X3,PR7      Save RC for record
   000431                              387  CKINDX   NULL
   000431    6 00000 2211 17           388           LDX      X1,DEF,X7,PR6        Get def word of RC
   000432    000007 3610 03            389           ANX      X1,.PSTO,DU          Isolate
   000433    000004 1010 03            390           CMPX     X1,4,DU              Is it indexed
   000434 (0)000444 6000 00            391           TZE      INDX                 Yes.
                                       392  *
                                       393  *           JOURNAL DELETE OF RECORD
                                       394  *
   000435  X 000000 7010 00            395           DBCAL    ZIM$JDEL,,NOALT
   000436    000000 0020 00
   000437  X 000000 7010 00            396         DBCAL   ZIG$DBPDR,,DRER1
 12:42 09/05/97  FILE=ZIM$DBDL.:ZIC0TSI       IDS-II ERASE SUBROUTINE                                    14   BMAP - B00
   000440 (0)000657 7020 00
   000441    5 00006 2341 00
   000442    777776 6010 04
   000443 (0)000460 7100 00            397           TRA      UNLK                 Unlock record
                                       398  *
                                       399  *  INDEX RECORD - CALL UFAS TO DELETE RECORD AND
                                       400  *  REMOVE FROM PRIME KEY
                                       401  *
   000444                              402  INDX   NULL
   000444    6 00002 7251 17           403         LXL     X5,RCRSN,X7,PR6  GET 1ST RS (MUST BE PRIME)
   000445    6 00003 7261 15           404         LXL     X6,SCRSH,X5,PR6  GET SC PTR
   000446    7 00520 7461 00           405         STX     X6,PRSC,,PR7    SAVE FOR UPDATE KEY
   000447  X 000000 7010 00            406           DBCAL    ZIM$IDEL,,DIER1      Delete index record
   000450 (0)000657 7020 00
   000451    5 00006 2341 00
   000452    777776 6010 04
   000453    7 00520 2261 00           407         LDX     X6,PRSC,,PR7    SC FOR PRIME KEY
   000454    6 00001 2211 16           408         LDX     X1,SCWSO,X6,PR6  WORKSPACE FOR SC
   000455    400000 6200 00            409         EAX     X0,.B0
   000456    7 00000 2401 11           410         ORSX    X0,.CSE,X1,PR7  SET CURR WAS ERASED INDIC.
   000457 (0)000507 7100 00            411           TRA      NCTYP
                                       412  *  UNLOCK RECORD
   000460                              413  UNLK     NULL
   000460    7 00510 2231 00           414        UNLOCK  RVI
   000461  X 000000 7010 00
   000462    000000 0020 00
                                       415  *        CHECK IF TRACE ON OF RECORD UPDATE OPTION
   000463    5 00061 2221 00           416           LDX      X2,TMODE,,PR5      GET GLOBAL.PARAM.TRACE.MODE
   000464 (0)000507 6000 00            417           TZE      NCTYP              NO OPTION IS ON
   000465    7 00510 2231 00           418           LDX      X3,RVI,,PR7
   000466    7 00006 2271 13           419           LDX      X7,RCPTR,X3,PR7   Get offset ot RC record
   000467    6 00000 2351 17           420           LDA      DEF,X7,PR6        GET THE  RECORD  NAME SIZE
   000470    000077 3750 07            421           ANA      .ANL,DL           ISOLATE
   000471    7 00006 2361 13           422           LDQ      RCPTR,X3,PR7       Get word offset to current RC record
   000472    000002 7360 00            423           QLS      2                  Make it a byte offset
   000473    040 1 100 1005 42         424           MLR      (1,1,,QU),(1),040,1   MOVE  NAME INTO GLOBAL.PARAM.TRACE.RECNAM
   000474    6 00005 0 0 0 0005        425           ADSC9    RNAM,0,A,PR6
 12:42 09/05/97  FILE=ZIM$DBDL.:ZIC0TSI       IDS-II ERASE SUBROUTINE                                    15   BMAP - B00
   000475    5 00046 0 0 0 0036        426           ADSC9    GTRNAME,0,30,PR5
   000476    7 00000 2361 13           427           LDQ      DBKEY,X3,PR7         DBK
   000477    5 00057 7561 00           428           STQ      GTRRDBK,,PR5         Save in parameter block
   000500    6 00003 7211 17           429           LXL      X1,RTYP,X7,PR6       Record type
   000501    007777 3610 03            430           ANX      X1,.RTYP,DU
   000502    5 00060 4411 00           431           SXL      X1,GTRRTYPE,,PR5     Save in parameter block
   000503    000006 2210 03            432           LDX      X1,.TRRDEL,DU        Call type
   000504    5 00060 7411 00           433           STX      X1,GTRTYPE,,PR5      Save in parameter block
   000505  X 000000 7010 00            434           DBCAL    ZIM$TRACE,,NOALT
   000506    000000 0020 00
   000507                              435  NCTYP    NULL
                                       436  *  MAKE CURR OF TYPE NULL IF THIS REC IS CURR
   000507    7 00510 2231 00           437         LDX     X3,RVI,,PR7
   000510    7 00000 2361 13           438         LDQ     DBKEY,X3,PR7    GET DBK OF REC JUST DELETED
   000511    7 00006 2271 13           439         LDX     X7,RCPTR,X3,PR7  GET RC PTR
   000512    6 00004 2211 17           440         LDX     X1,RCWSO,X7,PR6  GET WORK SPACE OFST
   000513    7 00001 1161 11           441         CMPQ    CURR,X1,PR7     IS THIS REC CURR OF TYPE
   000514 (0)000516 6010 00            442         TNZ     CKARE           NO - GO CHECK CURR OF AREA
   000515    7 00001 4501 11           443         STZ     CURR,X1,PR7     YES - NULL CURR OF TYPE
   000516                              444  CKARE  NULL
                                       445  *  SET INDICATOR FOR CURRENT OF AREA IF THIS REC IS CURR
   000516    7 00005 2201 13           446         LDX     X0,ACPTR,X3,PR7  GET AC
   000517    6 00003 2211 10           447         LDX     X1,WSOF,X0,PR6  GET WORK SPC OFST
   000520    7 00001 1161 11           448         CMPQ    CURR,X1,PR7     IS THIS REC CURR OF AREA
   000521    000003 6010 04            449         TNZ     DNC3,$          NO
   000522    400000 6200 00            450         EAX     X0,.B0
   000523    7 00000 2401 11           451           ORSX     X0,.CAE,X1,PR7       Set currency was erased
                                       452  *  GET REC FROM STACK
   000524                              453  DNC3     NULL
   000524    7 00272 6211 00           454         POPRS   DLDON           GET RS AND DBK
   000525    7 00270 1011 00
   000526 (0)000563 6000 00
   000527    7 00270 2371 44
   000530    000000 6250 01
   000531    7 00036 7451 00           455         STX     X5,DELRS,,PR7   SAVE RS AS CURRENT RS
   000532    7 00510 2231 00           456         LDX     X3,RVI,,PR7     SET X3 TO REC VAR IN
   000533    7 00000 7561 13           457         STQ     DBKEY,X3,PR7    PUT DBK IN REC VAR
 12:42 09/05/97  FILE=ZIM$DBDL.:ZIC0TSI       IDS-II ERASE SUBROUTINE                                    16   BMAP - B00
   000534  X 000000 7010 00            458           DBCAL    ZIG$DBPFD,,PER3      Get record
   000535 (0)000657 7020 00
   000536    5 00006 2341 00
   000537    777776 6010 04
   000540    7 00510 2231 00           459        LOCK    RVI
   000541  X 000000 7010 00
   000542    000000 0020 00
   000543    7 00510 2231 00           460        LDX     X3,RVI,,PR7
   000544  X 000000 7010 00            461        DBCAL   ZIM$DBPMR,NOEXC,LKER8
   000545 (0)000657 7020 00
   000546    7 00036 2251 00           462         LDX     X5,DELRS,,PR7   GET RS
   000547 (0)000066 7100 00            463         TRA     RSL3            GO PROCESS IT
   000550                              464  LDEL1  NULL                                                             <EHW>
                                       465  *  GET REC FROM STACK                                                   <EHW>
   000550    7 00272 6211 00           466         POPRS   LDDON           GET RS AND DBK                           <EHW>
   000551    7 00270 1011 00
   000552 (0)000560 6000 00
   000553    7 00270 2371 44
   000554    000000 6250 01
   000555    6 00003 7261 15           467         LXL     X6,SCRSH,X5,PR6  GET SC FOR THIS RS                       <EHW>
   000556    7 00520 7461 00           468         STX     X6,PRSC,,PR7    PUT IN PRIM. REQUEST                     <EHW>
   000557 (0)000211 7100 00            469         TRA     FNXT            GET NEXT IN SET                          <EHW>
   000560                              470  LDDON  NULL                                                             <EHW>
                                       471  *  LAST LOGICAL DELETE COMPLETED - UNLOCK BUFFER
   000560    7 00510 2231 00           472        UNLOCK  RVI
   000561  X 000000 7010 00
   000562    000000 0020 00
   000563                              473  DLDON  NULL
                                       474  *  MAKE CURRENT OF RUN NULL
   000563    7 01223 4501 00           475         STZ     CRUN,,PR7       ZERO CURR OF RUN
   000564    7 01224 4501 00           476         STZ     CRUN+1,,PR7     ZERO RC PTR
   000565    000002 4714 07            477         LDP    PR1,UWASID,DL            UWA$
   000566    1 00036 4501 00           478         STZ    DBDR,,PR1                ZERO DIRECT REFRENCE
   000567    000000 6210 00            479         EAX     X1,0
   000570    7 00511 4411 00           480         SXL     X1,RVO,,PR7     MARK RVO AS NOT CURR OF RUN
                                       481  *  Clear RECOVER addr for FPT checker
   000571  X 000000 7010 00            482         DBCAL   ZIB$CLRRECOVER,,NOALT
 12:42 09/05/97  FILE=ZIM$DBDL.:ZIC0TSI       IDS-II ERASE SUBROUTINE                                    17   BMAP - B00
   000572    000000 0020 00
                                       483  *  RETURN
   000573  X 000000 7020 00            484           DBRET
                                       485  *
                                       486  *  ERRORS DETECTED IN THIS ROUTINE
                                       487  *
                                       488         IFE     A,1,%CK1
   000574                              489  CALE1  NULL                    CALL ARG ERROR
   000574    210562 2350 07            490         LDA     ARGER,DL
   000575    000000 6200 00            491         EAX     X0,0            NULL AC
   000576    000000 6260 00            492         EAX     X6,0            NULL SC
   000577    000000 6270 00            493         EAX     X7,0            NULL RC
   000600 (0)000660 7100 00            494         TRA     DLR1
                                       495  CK1    MARK
   000601                              496  CER2   NULL                    CURRENT OF RUN NOT TYPE SPECIFIED
   000601    006344 2350 07            497         LDA     CRIT,DL
   000602    000000 6200 00            498         EAX     X0,0            NULL AC
   000603    000000 6260 00            499         EAX     X6,0            NULL SC
   000604    7 01224 2271 00           500         LDX     X7,CRUN+1,,PR7  GET  RC
   000605 (0)000660 7100 00            501         TRA     DLR1
   000606                              502  RER2   NULL                    ERASE NOT ALLOWED - INCOMPLETE STRUC.
   000606    210627 2350 07            503         LDA     DLE1,DL
   000607    000000 6200 00            504         EAX     X0,0            NULL AC
   000610    000000 6260 00            505         EAX     X6,0            NULL SC
   000611 (0)000660 7100 00            506         TRA     DLR1
   000612                              507  RER3   NULL                    ERASE ALL NOT ALLOWED
   000612    210631 2350 07            508         LDA     DLE3,DL
   000613    000000 6200 00            509         EAX     X0,0            NULL AC
   000614    000000 6260 00            510         EAX     X6,0            NULL SC
   000615 (0)000660 7100 00            511         TRA     DLR1
   000616                              512  PRVE1  NULL                    ERASE NOT ALLOWED - PRIVACY NOT SATISFIED
   000616    257764 2350 07            513         LDA     LR,DL
   000617    000000 6200 00            514         EAX     X0,0            NULL AC
   000620    000000 6260 00            515         EAX     X6,0            NULL SC
   000621 (0)000660 7100 00            516         TRA     DLR1
   000622                              517  ALNS   NULL                    REC IS OWNER OF NON-NULL SET - ALL NOT S
   000622    7 00510 2371 00           518         LDAQ     RVI,,PR7
 12:42 09/05/97  FILE=ZIM$DBDL.:ZIC0TSI       IDS-II ERASE SUBROUTINE                                    18   BMAP - B00
   000623    7 00511 7551 00           519         STA      RVO,,PR7
   000624    7 00510 7561 00           520         STQ      RVI,,PR7
   000625  X 000000 7010 00            521        DBCAL   ZIG$DBPFO,NOEXC,FOER1         REFIND SET OWNER
   000626 (0)000657 7020 00
   000627    7 00510 2371 00           522         LDAQ     RVI,,PR7
   000630    7 00511 7551 00           523         STA      RVO,,PR7
   000631    7 00510 7561 00           524         STQ      RVI,,PR7
   000632    016040 2350 07            525         LDA     DNES,DL
   000633    7 00510 2231 00           526         LDX     X3,RVI,,PR7
   000634    000000 6200 00            527         EAX     X0,0            NULL AC
   000635    7 00004 2261 13           528         LDX     X6,SCPTR,X3,PR7  GET SC
   000636    7 00006 2271 13           529         LDX     X7,RCPTR,X3,PR7  GET RC
   000637 (0)000660 7100 00            530         TRA     DLR1
   000640                              531  EANA   NULL                    ERASE ALL NOT ALLOWED
   000640    210631 2350 07            532         LDA     DLE3,DL
   000641    000000 6200 00            533         EAX     X0,0            NULL AC
   000642    6 00003 2271 15           534         LDX     X7,RCRSH,X5,PR6  GET RC
   000643    000015 7100 04            535         TRA     DLR1,$
   000644                              536  ESFUL  NULL                    ERASE STACK FULL
   000644    234654 2350 07            537         LDA     NSCS,DL
   000645    000000 6200 00            538         EAX     X0,0            NULL AC
   000646    7 00004 2261 13           539         LDX     X6,SCPTR,X3,PR7  GET SC
   000647    7 00006 2271 13           540         LDX     X7,RCPTR,X3,PR7  GET RC
   000650 (0)000660 7100 00            541         TRA     DLR1
   000651                              542  FSFUL  NULL                    FIND STACK OF MEMBER RS'S FULL
   000651    234654 2350 07            543         LDA     NSCS,DL
   000652    000000 6200 00            544         EAX     X0,0              NULL AC
   000653    7 00004 2261 11           545         LDX     X6,SCPTR,X1,PR7   GET SC
   000654    7 00006 2271 11           546         LDX     X7,RCPTR,X1,PR7   GET RC
   000655 (0)000660 7100 00            547         TRA     DLR1
                                       548  *
                                       549  *  ERRORS DETECTED IN SUBORDINATE ROUTINES
                                       550  *
   000656                              551  STER1  NULL                    ERROR ACCUMULATING STATISTICS
   000656 (0)000660 7100 00            552         TRA     DLR1
                                       553  *
                                       554  *  ERRORS DETECTED IN PRIMITIVES
 12:42 09/05/97  FILE=ZIM$DBDL.:ZIC0TSI       IDS-II ERASE SUBROUTINE                                    19   BMAP - B00
                                       555  *
   000657                              556  GCER1  NULL                    GET CURR OF RUN ERROR
   000657                              557  LKER6  NULL                    LOCK RECORD ERROR
   000657                              558  ULER7  NULL                    UNLOCK RECORD ERROR
   000657                              559  FNER1  NULL                    PAGE ERROR - FIND NEXT
   000657                              560  FNER2  NULL                    ERROR - FIND NEXT                        <EHW>
   000657                              561  PER2   NULL                    PAGE ERROR - FIND PRIOR
   000657                              562  DER2   NULL                    ERROR IN DISCONNECT
   000657                              563  DRER1  NULL                    ERROR IN DELETE  REC
   000657                              564  ULER6  NULL                    UNLOCK RECORD ERROR
   000657                              565  PER3   NULL                    PAGE ERROR - FIND AFTER POP
   000657                              566  LKER8  NULL                    LOCK REC ERROR AFTER POP
   000657                              567  MKER1  NULL                    MOVE KEY TO PROCESS AREA ERROR
   000657                              568  DAER1  NULL                    ERROR DELETING ALTERNATE KEY
   000657                              569  DIER1  NULL                    ERROR DELETING INDEX REC
   000657                              570  FOER1  NULL                    ERROR REFINDING SET OWNER
   000657                              571  EFR1     NULL                    ERROR FINDING RC POINTER
   000657 (0)000660 7100 00            572         TRA     DLR1
                                       573  *
                                       574  *  COMMON ERROR RETURN
                                       575  *
   000660  X 000000 7020 00            576  DLR1     DBALT    RECOVER
                                       577  *  Clear RECOVER addr for FPT checker
   000661  X 000000 7010 00            578         DBCAL   ZIB$CLRRECOVER,,NOALT
   000662    000000 0020 00
                                       579  *  REC IS IN REC VAR IN - PUT IT IN TEMP
   000663    7 00510 2351 00           580         LDA     RVI,,PR7
   000664    7 00512 2361 00           581         LDQ     RVT,,PR7        * MOVE REC VAR IN
   000665    7 00512 7551 00           582         STA     RVT,,PR7        *  TO TEMP REC VAR
   000666    7 00510 7561 00           583         STQ     RVI,,PR7
                                       584  *  NOW HAVE CURRENT IN TEMP REC VAR
                                       585  *
                                       586  *   MOVE REC FROM PAGE BUF TO TEMP BUF
                                       587  *
   000667    7 00512 2211 00           588         LDX     X1,RVT,,PR7
   000670    7 00002 4735 11           589         LDP     PR3,RADDR,X1,PR7
   000671    7 00004 4745 00           590         LDP     PR4,TBUF,,PR7
 12:42 09/05/97  FILE=ZIM$DBDL.:ZIC0TSI       IDS-II ERASE SUBROUTINE                                    20   BMAP - B00
   000672    7 00003 2211 11           591         LDX     X1,RECSZ,X1,PR7
   000673    000 0 140 1005 40         592         MLR     (1,1),(1,1)   MOVE REC
   000674    3 00000 0 0 0 0011        593         ADSC9   0,0,X1,PR3
   000675    4 00000 0 0 0 0011        594         ADSC9   0,0,X1,PR4
   000676                              595  POPEM  NULL
                                       596  *  POP STACK
                                       597  *        NOTHING IN STACK FOR INDEXED RECORDS
   000676    7 00372 6211 00           598         EAX     X1,.DBSTK+2,,PR7
   000677    7 00370 1011 00           599         CMPX    X1,.DBSTK,,PR7  IS IT ALL DONE
   000700 (0)001006 6000 00            600         TZE     STDUN           YES
   000701    7 00370 2361 54           601         LDQ     .DBSTK,DI,PR7   NO - CONTINUE BACKING OUT
   000702    7 00370 2351 54           602         LDA     .DBSTK,DI,PR7
   000703    000000 6260 01            603         EAX     X6,,AU        PUT SC INTO X6
   000704    000000 6250 05            604         EAX     X5,,AL        PUT RS INTO X5
   000705    7 00516 7451 00           605         STX     X5,PRSS,,PR7
   000706    6 00000 2351 16           606         LDA     DEF,X6,PR6      GET SET TYPE
   000707    000700 3750 07            607         ANA     .SETT,DL        ISOLATE
   000710    000300 1150 07            608         CMPA    =O300,DL        IS IT A SECONDARY KEY
   000711 (0)000771 6000 00            609         TZE     ALT2            YES
   000712    400000 2350 03            610         LDA     .B0,DU
   000713    7 00517 7551 00           611         STA     PRRC,,PR7       SET TYPE REQUEST TO ANY
   000714    7 00074 7561 00           612         STQ     ODBK,,PR7       SAVE DBK OF PRIOR
   000715    7 00520 7461 00           613         STX     X6,PRSC,,PR7    PUT SC IN PRIM. REQ.
   000716    7 00510 2231 00           614         LDX     X3,RVI,,PR7
   000717    7 00000 7561 13           615         STQ     DBKEY,X3,PR7    PUT PRIOR DBK IN REC VAR IN
   000720  X 000000 7010 00            616           DBCAL    ZIG$DBPFD,,BCKE2     Get old prior
   000721 (0)001074 7020 00
   000722    5 00006 2341 00
   000723    777776 6010 04
                                       617  *
                                       618  * IF SET IS POINTER ARRAY - GET DBK OF PA OWNER AND REGULAR OWNER
                                       619  *    FROM PRIOR REC
                                       620  *
   000724    7 00520 2261 00           621         LDX     X6,PRSC,,PR7    GET SC PTR
   000725    6 00000 2201 16           622         LDX     X0,DEF,X6,PR6   GET SET MODE
   000726    000070 3600 03            623         ANX     X0,.SETM,DU     ISOLATE
   000727    000020 1000 03            624         CMPX    X0,=O020,DU     IS IT POINTER ARRAY
 12:42 09/05/97  FILE=ZIM$DBDL.:ZIC0TSI       IDS-II ERASE SUBROUTINE                                    21   BMAP - B00
   000730 (0)000742 6010 00            625         TNZ     FNXT1           NO - GO ON
                                       626  *
                                       627  *
                                       628  *      POINTER ARRAY SET
                                       629  *
                                       630  *      MOVE PA KEY FROM TEMP BUF TO KEY PROCESS AREA
                                       631  *
   000731  X 000000 7010 00            632         DBCAL   ZIG$DBAKP,,MPAKE3 MOVE KEY
   000732 (0)001074 7020 00
   000733    5 00006 2341 00
   000734    777776 6010 04
                                       633  *   FIND INSERT PT IN PA SET
   000735  X 000000 7010 00            634        DBCAL   ZIG$DBPFI,,FIPE5    REFIND INSERT PT IN PA SET
   000736 (0)001074 7020 00
   000737    5 00006 2341 00
   000740    777776 6010 04
   000741 (0)000756 7100 00            635         TRA     CNEC            GO CONNECT INTO SET
                                       636  *
                                       637  *
   000742                              638  FNXT1  NULL
   000742    7 00510 2231 00           639        LOCK    RVI
   000743  X 000000 7010 00
   000744    000000 0020 00
   000745  X 000000 7010 00            640         DBCAL   ZIG$DBPFN,CBACK,BCKE6  GET NEXT
   000746 (0)001067 7020 00
   000747    5 00006 2341 00
   000750    000003 6000 04
   000751    5 00006 4501 00
   000752 (0)000753 7020 00
   000753                              641  CBACK  NULL
   000753    7 00510 2231 00           642        UNLOCK  RVI
   000754  X 000000 7010 00
   000755    000000 0020 00
   000756                              643  CNEC   NULL                    NEW LABEL
   000756    7 00510 2231 00           644        LDX     X3,RVI,,PR7
   000757  X 000000 7010 00            645        DBCAL   ZIM$DBPMR,NOEXC,BCKE3
   000760 (0)001074 7020 00
 12:42 09/05/97  FILE=ZIM$DBDL.:ZIC0TSI       IDS-II ERASE SUBROUTINE                                    22   BMAP - B00
   000761    7 00516 2251 00           646           LDX  X5,PRSS,,PR7
   000762    7 00512 2231 00           647           LDX  X3,RVT,,PR7
   000763    7 00004 4451 13           648           SXL  X5,RSPTR,X3,PR7       PUT RS IN RVT
   000764  X 000000 7010 00            649           DBCAL    ZIM$PCON,,BCKE5      Connect
   000765 (0)001074 7020 00
   000766    5 00006 2341 00
   000767    777776 6010 04
                                       650  *  CURR OF RUN STILL IN TEMP REC VAR - GO POP AGAIN
   000770 (0)000676 7100 00            651         TRA     POPEM           GO TO NEXT SET
   000771                              652  ALT2   NULL
                                       653  *  RS FOR ALTERNATE KEY - ENTER KEY VALUE IN ALTERNATE INDEX
   000771    7 00512 2211 00           654         LDX     X1,RVT,,PR7     TEMP REC VAR
   000772    000000 6250 02            655         EAX     X5,,QU          RS PTR
   000773    7 00516 7451 00           656         STX     X5,PRSS,,PR7    SAVE RS PTR FOR PRIM REQ.
   000774    7 00676 4451 00           657         SXL     X5,XPRS,,PR7    SAVE RS FOR INDEX PRIMS
                                       658  *  MOVE ALTERNATE KEY FROM TEMP BUF TO PROCESS AREA
   000775  X 000000 7010 00            659         DBCAL   ZIG$DBXKT,,BCKE8 MOVE KEY
   000776 (0)001074 7020 00
   000777    5 00006 2341 00
   001000    777776 6010 04
                                       660  *  PUT ENTRY INTO ALTERNATE KEY
   001001  X 000000 7010 00            661           DBCAL    ZIM$KSTO,,BCKE9      Store alternate key
   001002 (0)001074 7020 00
   001003    5 00006 2341 00
   001004    777776 6010 04
   001005 (0)000676 7100 00            662         TRA     POPEM           GO TO NEXT RS
   001006                              663  STDUN  NULL
                                       664  *  UNLOCK ALL RECORD VARIABLES
   001006                              665  UNL0    NULL
   001006    7 00510 2231 00           666          LDX     X3,RVI,,PR7
   001007    7 00001 4735 13           667          LDP     PR3,BADDR,X3,PR7
   001010    5 00026 4535 00           668          STP     PR3,CALLPM0,,PR5
   001011  X 000000 7010 00            669          DBCAL   ZIO$DBBCC,UNL1,NOALT
   001012    000000 0020 00
   001013    5 00006 2341 00
   001014    000003 6000 04
   001015    5 00006 4501 00
 12:42 09/05/97  FILE=ZIM$DBDL.:ZIC0TSI       IDS-II ERASE SUBROUTINE                                    23   BMAP - B00
   001016 (0)001022 7020 00
   001017    7 00510 2231 00           670          UNLOCK  RVI
   001020  X 000000 7010 00
   001021    000000 0020 00
   001022                              671  UNL1    NULL
   001022    7 00511 2231 00           672          LDX     X3,RVO,,PR7
   001023    7 00001 4735 13           673          LDP     PR3,BADDR,X3,PR7
   001024    5 00026 4535 00           674          STP     PR3,CALLPM0,,PR5
   001025  X 000000 7010 00            675          DBCAL   ZIO$DBBCC,UNL2,NOALT
   001026    000000 0020 00
   001027    5 00006 2341 00
   001030    000003 6000 04
   001031    5 00006 4501 00
   001032 (0)001036 7020 00
   001033    7 00511 2231 00           676          UNLOCK  RVO
   001034  X 000000 7010 00
   001035    000000 0020 00
   001036                              677  UNL2    NULL
   001036    7 00512 2231 00           678          LDX     X3,RVT,,PR7
   001037    7 00001 4735 13           679          LDP     PR3,BADDR,X3,PR7
   001040    5 00026 4535 00           680          STP     PR3,CALLPM0,,PR5
   001041  X 000000 7010 00            681          DBCAL   ZIO$DBBCC,UNL3,NOALT
   001042    000000 0020 00
   001043    5 00006 2341 00
   001044    000003 6000 04
   001045    5 00006 4501 00
   001046 (0)001052 7020 00
   001047    7 00512 2231 00           682          UNLOCK  RVT
   001050  X 000000 7010 00
   001051    000000 0020 00
   001052                              683  UNL3    NULL
   001052    7 00513 2231 00           684          LDX     X3,RVPA,,PR7
   001053    7 00001 4735 13           685          LDP     PR3,BADDR,X3,PR7
   001054    5 00026 4535 00           686          STP     PR3,CALLPM0,,PR5
   001055  X 000000 7010 00            687          DBCAL   ZIO$DBBCC,UNL4,NOALT
   001056    000000 0020 00
   001057    5 00006 2341 00
 12:42 09/05/97  FILE=ZIM$DBDL.:ZIC0TSI       IDS-II ERASE SUBROUTINE                                    24   BMAP - B00
   001060    000003 6000 04
   001061    5 00006 4501 00
   001062 (0)001066 7020 00
   001063    7 00513 2231 00           688          UNLOCK  RVPA
   001064  X 000000 7010 00
   001065    000000 0020 00
   001066                              689  UNL4    NULL
   001066                              690  BNLK   NULL
                                       691  *  GO TO ERROR ROUTINE
   001066                              692  CURNP  NULL
   001066  X 000000 7020 00            693           DBALTO
                                       694  *
                                       695  *  ERRORS IN RECOVERY - WHEN INPUT REC IS LOCKED
                                       696  *
   001067                              697  BCKE6  NULL
   001067    7 00062 7551 00           698         STA     SUST,,PR7       SAVE STATUS
   001070    7 00510 2231 00           699        UNLOCK  RVI
   001071  X 000000 7010 00
   001072    000000 0020 00
   001073    7 00062 2351 00           700         LDA     SUST,,PR7         GET STATUS
   001074                              701  BCKE7  NULL
                                       702  *
                                       703  *  ERRORS IN RECOVERY
                                       704  *
   001074                              705  BCKE2  NULL                    ERROR IN FIND DIRECT OF OLD PRIOR
   001074                              706  BCKE3  NULL                    ERROR IN LOCKING BUFFER
   001074                              707  BCKE4  NULL                    ERROR IN UNLOCKING BUFFER
   001074                              708  BCKE5  NULL                    ERROR IN RECONNECTING BUFFER
   001074                              709  RECE1  NULL                    ERROR UNLOCKING BUF
   001074                              710  BCKE8  NULL                    MOVE KEY TO PROCESS AREA ERROR
   001074                              711  BCKE9  NULL                    ERROR STORING ALTERNATE KEY
   001074                              712  BCKE10 NULL
   001074                              713  MPAKE3 NULL
   001074                              714  FIPE5  NULL
   001074    000022 7350 00            715           DBREC    DLE2
   001075    7 00062 2551 00
   001076    303310 2350 07
 12:42 09/05/97  FILE=ZIM$DBDL.:ZIC0TSI       IDS-II ERASE SUBROUTINE                                    25   BMAP - B00
   001077  X 000000 7020 00
                                       716         END

  CONTROL SECTION TABLE

   0 CODE   EVEN  001100
   1 RODATA EVEN  000000 LITERALS

 12:42 09/05/97  FILE=ZIM$DBDL.:ZIC0TSI       SYMBOL TABLE                                               26   BMAP - B00
 40000000 000000200000 .AC            *31
 40000000 000000000100 .AG            *31
 40000000 000000002000 .ALTO          *31
 41000000 000000000077 .ANL           *31       421
 40000000 000000200000 .APDN          *31
 40000000 000000000100 .ATMP          *31
 40000000 000000400000 .AV            *31
 41000000 000000400000 .B0            *31       130       167       371       409       450       610
 40000000 000000200000 .B1            *31
 40000000 000000000200 .B10           *31
 40000000 000000000100 .B11           *31
 40000000 000000000040 .B12           *31
 40000000 000000000020 .B13           *31
 40000000 000000000010 .B14           *31
 40000000 000000000004 .B15           *31
 40000000 000000000002 .B16           *31
 40000000 000000000001 .B17           *31
 40000000 000000400000 .B18           *31
 40000000 000000200000 .B19           *31
 41000000 000000100000 .B2            *31       207
 40000000 000000100000 .B20           *31
 40000000 000000040000 .B21           *31
 40000000 000000020000 .B22           *31
 40000000 000000010000 .B23           *31
 40000000 000000004000 .B24           *31
 40000000 000000002000 .B25           *31
 40000000 000000001000 .B26           *31
 40000000 000000000400 .B27           *31
 40000000 000000000200 .B28           *31
 40000000 000000000100 .B29           *31
 40000000 000000040000 .B3            *31
 40000000 000000000040 .B30           *31
 40000000 000000000020 .B31           *31
 40000000 000000000010 .B32           *31
 40000000 000000000004 .B33           *31
 40000000 000000000002 .B34           *31
 40000000 000000000001 .B35           *31
 12:42 09/05/97  FILE=ZIM$DBDL.:ZIC0TSI       SYMBOL TABLE                                               27   BMAP - B00
 40000000 000000020000 .B4            *31
 40000000 000000010000 .B5            *31
 40000000 000000004000 .B6            *31
 40000000 000000002000 .B7            *31
 40000000 000000001000 .B8            *31
 40000000 000000000400 .B9            *31
 40000000 000000000001 .BREAK         *31
 40000000 000000010000 .BRK           *31
 40000000 000000020000 .BTB           *31
 40000000 000000000001 .CAC           *31
 41000000 000000000000 .CAE           *31       451
 40000000 000000000200 .CANSSS        *31
 40000000 000000000400 .CD            *31
 40000000 000000040000 .CFLC          *31
 40000000 000000400000 .CHKSUM        *31
 40000000 000000100000 .CJRNL         *31
 40000000 000000000077 .CNSZ          *31
 40000000 000000160000 .COMC          *31
 40000000 000000000020 .CONT          *31
 41000000 000000000000 .CSE           *31       183       372       410
 40000000 000000700000 .CTYP          *31
 41000000 000000000270 .DBEST         *31        61        62       232       454       466
 41000000 000000000470 .DBIC          *31
 40000000 000000077777 .DBPT          *31
 41000000 000000000370 .DBSTK         *31        63        64       126       127       157       158
                                      334       336       347       348       350       598       599
                                      601       602
 40000000 000000020000 .DELM          *31
 40000000 000000002000 .DIDP          *31
 40000000 000000000077 .DNDX          *31
 40000000 000000600000 .DORD          *31
 40000000 000000000200 .DP            *31
 40000000 000000100000 .DPS           *31
 40000000 000000200000 .DPSA          *31
 40000000 000000400000 .DPST          *31
 40000000 000000000002 .DUMP          *31
 40000000 000000002000 .DUPC          *31
 12:42 09/05/97  FILE=ZIM$DBDL.:ZIC0TSI       SYMBOL TABLE                                               28   BMAP - B00
 40000000 000000010000 .DUPP          *31
 40000000 000000200000 .EBCL          *31
 40000000 000000400000 .EBCM          *31
 40000000 000000200000 .ENCRP         *31
 40000000 000000000077 .ENDX          *31
 40000000 000000000400 .ENQ           *31
 40000000 000000004000 .ETC           *31
 40000000 000000000400 .EXIT          *31
 40000000 000000000200 .FMOD          *31
 40000000 000000000077 .FNL           *31
 40000000 000000000074 .FORG          *31
 40000000 000000002000 .FR            *31
 40000000 000000000100 .FSR           *31
 40000000 000000003400 .FUSE          *31
 40000000 000000010000 .FVF           *31
 40000000 000000040000 .FVR           *31
 40000000 000000000010 .INDEXED       *31
 40000000 000000777777 .IXID          *31
 40000000 000000001777 .IXNUM         *31
 40000000 000000000004 .KEYED         *31
 40000000 000000010000 .LCK           *31
 40000000 000000400000 .LEIL          *31
 41000000 000000001000 .LG            *31       192       282
 40000000 000000000002 .LOAD          *31
 40000000 000000020000 .MAR           *31
 40000000 000000000007 .MEMT          *31
 40000000 000000010000 .MRL           *31
 41000000 000000040000 .MSM           *31       251
 60000000 000000000001 .N6685         *31
 40000000 000000100000 .NAI           *31
 40000000 000000200000 .NBI           *31
 40000000 000000000002 .NCIA          *31
 40000000 000000040000 .NMV           *31
 40000000 000000017777 .NOENT         *31
 40000000 000000400000 .OA            *31
 40000000 000000740000 .OPEV          *31
 41000000 000000100000 .OSM           *31       251
 12:42 09/05/97  FILE=ZIM$DBDL.:ZIC0TSI       SYMBOL TABLE                                               29   BMAP - B00
 40000000 000000100000 .PAFIL         *31
 40000000 000000200000 .PAHVR         *31
 40000000 000000000001 .PAIA          *31
 40000000 000000040000 .PALIL         *31
 40000000 000000020000 .PALVR         *31
 40000000 000000400000 .PANLL         *31
 40000000 000000400000 .PCKD          *31
 40000000 000000001600 .PMOD          *31
 40000000 000000000520 .PRCSE         *31
 41000000 000000000007 .PSTO          *31       107       316       389
 40000000 000000006040 .PTAS          *31
 40000000 000000010100 .PTCHK         *31
 40000000 000000010200 .PTDEC         *31
 40000000 000000010140 .PTENC         *31
 40000000 000000020000 .RA            *31
 41000000 000000100000 .RC            *31        77       142
 40000000 000000400000 .RELEASE       *31
 40000000 000000000017 .RELT          *31
 41000000 000000004000 .RERA          *31       103
 41000000 000000400000 .RERS          *31        96       244
 41000000 000000010000 .RKEY          *31       147
 40000000 000000000077 .RNL           *31
 40000000 000000200000 .RSTO          *31
 41000000 000000007777 .RTYP          *31       430
 40000000 000000040000 .SC            *31
 41000000 000000000070 .SETM          *31       271       361       623
 40000000 000000740000 .SETO          *31
 41000000 000000000700 .SETT          *31       262       607
 40000000 000000040000 .SFNP          *31
 41000000 000000004000 .SM            *31       170
 40000000 000000020000 .SMOD          *31
 40000000 000000000077 .SNL           *31
 41000000 000000020000 .SNSS          *31       220
 41000000 000000010000 .SO            *31       133
 41000000 000000100000 .SR            *31        96       242
 40000000 000000004000 .SRCR          *31
 40000000 000000001000 .SS            *31
 12:42 09/05/97  FILE=ZIM$DBDL.:ZIC0TSI       SYMBOL TABLE                                               30   BMAP - B00
 40000000 000000000007 .SSTP          *31
 40000000 000000004000 .SYN           *31
 40000000 000000000040 .SYNC          *31
 40000000 000000020000 .TJRNL         *31
 40000000 000000040000 .TMPLT         *31
 40000000 000000040000 .TRACE         *31
 40000000 000000000001 .TRENTRY       *31
 40000000 000000000012 .TRIDEL        *31
 40000000 000000000021 .TRIDELENQ     *31
 40000000 000000000024 .TRIDEQ        *31
 40000000 000000000013 .TRIMOD        *31
 40000000 000000000022 .TRIMODENQ     *31
 40000000 000000000014 .TRIREAD       *31
 40000000 000000000023 .TRIREADENQ    *31
 40000000 000000000011 .TRISTO        *31
 40000000 000000000020 .TRISTOENQ     *31
 40000000 000000000017 .TRPDEQ        *31
 40000000 000000000004 .TRPMOD        *31
 40000000 000000000016 .TRPMODENQ     *31
 40000000 000000000002 .TRPREAD       *31
 40000000 000000000015 .TRPREADENQ    *31
 40000000 000000000003 .TRPWRITE      *31
 40000000 000000000010 .TRRACC        *31
 41000000 000000000006 .TRRDEL        *31       432
 40000000 000000000007 .TRRMOD        *31
 40000000 000000000005 .TRRSTO        *31
 40000000 000000004000 .ULCK          *31
 40000000 000000400000 .UPDT          *31
 40000000 000000000040 .VIA           *31
 61000000 000000000001 A              *31        75       488
 41000000 000000000002 ABAS           *31       195       286
 40000000 000000000001 AC             *31
 40000000 777777777760 ACDEF          *31
 40000000 000000211070 ACDNL          *31
 40000000 000000000003 ACID           *31
 40000000 000000001016 ACOPN          *31
 40000000 000000000002 ACP            *31
 12:42 09/05/97  FILE=ZIM$DBDL.:ZIC0TSI       SYMBOL TABLE                                               31   BMAP - B00
 41000000 000000000005 ACPTR          *31       194       285       368       382       446
 40000000 000000000002 ACRAH          *31
 40000000 000000000001 ACRAN          *31
 40000000 000000001003 ACREC          *31
 40000000 000000000001 ACTDBCB        *31
 40000000 000000000002 ACTDBNO        *31
 40000000 000000001017 ACTP           *31
 40000000 000000000000 ACTSSS         *31
 40000000 000000000000 ACTSZ          *31
 40000000 000000210565 AFNP           *31
 40000000 000000000635 AFT            *31
 40000000 000000022124 AIR            *31
 01101000 000000000622 ALNS           208      *517
 01101000 000000000330 ALT            266      *309
 01101000 000000000771 ALT2           609      *652
 40000000 000000000016 AMAX           *31
 40000000 000000000026 ANAM           *31
 40000000 000000021614 ANR            *31
 40000000 000000000001 APNO           *31
 41000000 000000210562 ARGER          *31       490
 41000000 000000000020 ARGS           *31
 40000000 000000000077 ARGS2          *31
 40000000 000000210713 ARNAF          *31
 40000000 000000000003 ATBL           *31
 40000000 000000000000 ATRIB          *31
 40000000 000000000002 AVLN           *31
 40000000 000000000013 AWS$           *31
 40000000 000000000010 AWSZ           *31
 60000000 000000000001 B              *31
 40000000 000000001006 B32N           *31
 40000000 000000001007 B36N           *31
 40000000 000000001056 B72N           *31
 41000000 000000000001 BADDR          *31       667       673       679       685
 40000000 000000210712 BADSEED        *31
 00101000 000000001074 BCKE10        *712
 01101000 000000001074 BCKE2          616      *705
 01101000 000000001074 BCKE3          645      *706
 12:42 09/05/97  FILE=ZIM$DBDL.:ZIC0TSI       SYMBOL TABLE                                               32   BMAP - B00
 00101000 000000001074 BCKE4         *707
 01101000 000000001074 BCKE5          649      *708
 01101000 000000001067 BCKE6          640      *697
 00101000 000000001074 BCKE7         *701
 01101000 000000001074 BCKE8          659      *710
 01101000 000000001074 BCKE9          661      *711
 40000000 777777777765 BDCW           *31
 40000000 000000000633 BEF            *31
 40000000 000000020000 BEFW           *31
 40000000 000000000751 BEMT           *31
 40000000 777777777761 BID            *31
 40000000 777777777762 BIND           *31
 40000000 000000000007 BLKD           *31
 40000000 000000303331 BME02          *31
 41000000 000000001203 BMPB           *31
 40000000 000000000652 BN1            *31
 40000000 000000000654 BN2            *31
 00101000 000000001066 BNLK          *690
 40000000 000000000004 BPL            *31
 40000000 000000000015 BPLDBK         *31
 40000000 000000000034 BSPG           *31
 40000000 777777777763 BSTAT          *31
 40000000 000000000750 BTX0           *31
 41000000 000000001160 BUF4           *31
 41000000 000000001170 BUF6           *31
 41000000 000000000000 BUFORG         *31
 40000000 000000001060 BUFRQ          *31
 40000000 000000000006 BURRID         *31
 41000000 000000000020 BWASZ          *31
 60000000 000000000001 C              *31
 40000000 000000000050 CAAC           *31
 40000000 000000000050 CACD           *31
 40000000 000000000111 CAG            *31
 40000000 000000001033 CAL            *31
 01101000 000000000574 CALE1           78      *489
 41000000 000000000026 CALLPM0        *31       668       674       680       686
 40000000 000000000003 CANSSS         *31
 12:42 09/05/97  FILE=ZIM$DBDL.:ZIC0TSI       SYMBOL TABLE                                               33   BMAP - B00
 01101000 000000000753 CBACK          640      *641
 41000000 000000000003 CBCPA          *31       366
 40000000 000000000002 CBCPO          *31
 41000000 000000000002 CBENO          *31       365
 40000000 000000000014 CBFSZ          *31
 40000000 000000000753 CBIB           *31
 40000000 000000001030 CBID           *31
 41000000 000000000014 CBRCE          *31       290       364
 40000000 000000000014 CBRCP          *31
 40000000 000000001033 CBRID          *31
 41000000 000000000015 CBRPA          *31       289
 40000000 000000000031 CCHAR          *31
 40000000 000000000040 CDBK           *31
 40000000 000000000030 CDES           *31
 40000000 000000000110 CDP            *31
 40000000 000000001044 CDPSI          *31
 40000000 000000000002 CDRH           *31
 40000000 000000000003 CDRN           *31
 40000000 000000000002 CDSH           *31
 40000000 000000000003 CDSN           *31
 40000000 000000000722 CENTRN         *31
 40000000 000000000722 CENTRO         *31
 40000000 000000000716 CENTRY         *31
 01101000 000000000601 CER2            81      *496
 41000000 000000001053 CFCT           *31
 01101000 000000000165 CFES          *203       212
 40000000 000000000670 CFLPT1         *31
 40000000 000000000672 CFLPT2         *31
 40000000 000000000015 CFSA           *31
 40000000 000000000646 CHDBK          *31
 40000000 000000000773 CHR            *31
 40000000 000000000006 CHRD           *31
 40000000 000000000772 CHRO           *31
 40000000 000000007640 CHRTP          *31
 40000000 000000001043 CIAC           *31
 40000000 000000000012 CIAWS          *31
 40000000 000000001051 CIBSI          *31
 12:42 09/05/97  FILE=ZIM$DBDL.:ZIC0TSI       SYMBOL TABLE                                               34   BMAP - B00
 40000000 000000000516 CIND           *31
 40000000 000000001041 CINVSZ         *31
 40000000 000000001042 CIPG           *31
 40000000 000000001050 CIPSI          *31
 40000000 000000000000 CIRUN          *31
 40000000 000000000002 CIRWS          *31
 40000000 000000000002 CISWS          *31
 40000000 000000000014 CIWSOF         *31
 01101000 000000000516 CKARE          442      *444
 01101000 000000000431 CKINDX         381      *387
 40000000 000000303374 CKSM           *31
 40000000 000000000022 CLCN           *31
 40000000 000000000023 CLCP           *31
 40000000 000000000003 CLCRC          *31
 40000000 000000000003 CLCSC          *31
 40000000 000000000237 CLI            *31
 40000000 000000000026 CLNG           *31
 40000000 000000000052 CMPL           *31
 40000000 000000000002 CN             *31
 40000000 000000303315 CNE1           *31
 01101000 000000000756 CNEC           635      *643
 40000000 000000006034 CNUL           *31
 40000000 000000100000 COB74          *31
 40000000 000000000001 COFS           *31
 40000000 000000000045 CONCD          *31
 40000000 000000007764 CP6PGSZB       *31
 41000000 000000001775 CP6PGSZW       *31
 40000000 000000001000 CPGR           *31
 40000000 000000000723 CPTRN          *31
 40000000 000000000723 CPTRO          *31
 60000000 000000000004 CPW            *31
 40000000 000000000112 CRA            *31
 40000000 000000001004 CRD            *31
 40000000 000000000764 CREC           *31
 41000000 000000006344 CRIT           *31       497
 40000000 000000006200 CRNUL          *31
 40000000 000000007330 CRST           *31
 12:42 09/05/97  FILE=ZIM$DBDL.:ZIC0TSI       SYMBOL TABLE                                               35   BMAP - B00
 41000000 000000001223 CRUN           *31        80       475       476       500
 41000000 000000000000 CSECT          *31
 40000000 000000000007 CSMPP          *31
 40000000 000000001000 CSPAC          *31
 41000000 000000000004 CSPAH          *31       278
 40000000 777777777776 CSPES          *31
 40000000 777777777776 CSPSB          *31
 40000000 000000000115 CSTS           *31
 40000000 000000000071 CSUB           *31
 40000000 000000000017 CSZ            *31
 40000000 000000000057 CTMASK         *31
 40000000 000000000774 CTPAI          *31
 40000000 000000000240 CURLN          *31
 40000000 000000000236 CURLT          *31
 00101000 000000001066 CURNP         *692
 40000000 000000000770 CURPG          *31
 41000000 000000000001 CURR           *31       179       181       340       356       359       441
                                      443       448
 40000000 000000000035 CURRS          *31
 40000000 000000000037 CURSS          *31
 40000000 000000001005 CWRT           *31
 40000000 000000000237 CWSOF          *31
 60000000 000000000001 D              *31
 01101000 000000000657 DAER1          324      *568
 40000000 000000000003 DBAN           *31
 41000000 000000000036 DBDR           *31       478
 40000000 000000000037 DBFN           *31
 40000000 000000000754 DBK            *31
 40000000 000000000777 DBKAC          *31
 41000000 000000000000 DBKEY          *31       177       196       228       302       338       354
                                      358       427       438       457       615
 40000000 000000000000 DBKL           *31
 40000000 000000007474 DBKN           *31
 41000000 000000000776 DBKR           *31
 40000000 000000000777 DBKRQ          *31
 40000000 000000000234 DBKSI          *31
 40000000 000000000651 DBKSR          *31
 12:42 09/05/97  FILE=ZIM$DBDL.:ZIC0TSI       SYMBOL TABLE                                               36   BMAP - B00
 40000000 000000000047 DBKYN          *31
 40000000 000000210652 DBLC01         *31
 40000000 000000210653 DBLC05         *31
 40000000 000000303334 DBLC07         *31
 40000000 000000210655 DBLD01         *31
 40000000 000000000010 DBLIM          *31
 40000000 000000000033 DBPKY          *31
 40000000 000000000023 DBRN           *31
 40000000 000000000013 DBSN           *31
 40000000 000000000001 DBST           *31
 40000000 000000000757 DCDSR          *31
 40000000 000000210650 DCE1           *31
 40000000 000000001053 DCPR           *31
 40000000 000000001053 DCPW           *31
 40000000 000000000015 DCTBL          *31
 40000000 000000000032 DDBK           *31
 40000000 000000000006 DDCB           *31
 40000000 000000011754 DDI            *31
 41000000 000000000000 DEF            *31        76        95       102       106       132       141
                                      146       169       191       219       241       250       261
                                      270       281       315       360       388       420       606
                                      622
 40000000 000000000014 DEF2           *31
 40000000 000000303413 DELAK          *31
 41000000 000000000036 DELRS          *31        87       105       121       124       140       145
                                      160       163       240       346       455       462
 40000000 000000000732 DEPCW          *31
 01101000 000000000657 DER2           300      *562
 01101000 000000000657 DIER1          406      *569
 40000000 000000303414 DLDBK          *31
 01101000 000000000563 DLDON          454      *473
 41000000 000000210627 DLE1           *31       503
 41000000 000000303310 DLE2           *31       715
 41000000 000000210631 DLE3           *31       508       532
 01101000 000000000660 DLR1            66       494       501       506       511       516       530
                                      535       541       547       552       572      *576
 01101000 000000000120 DMOVE          148      *155
 12:42 09/05/97  FILE=ZIM$DBDL.:ZIC0TSI       SYMBOL TABLE                                               37   BMAP - B00
 01101000 000000000146 DNC1           180      *184
 01101000 000000000415 DNC2           341       357      *373
 01101000 000000000524 DNC3           449      *453
 01101000 000000000413 DNC4           342      *370
 41000000 000000016040 DNES           *31       525
 40000000 777777777777 DPAGN          *31
 40000000 000000000020 DPPI           *31
 40000000 000000000053 DPSLW          *31
 01101000 000000000657 DRER1          396      *563
 40000000 000000000003 DS             *31
 40000000 000000001063 DSDES          *31
 40000000 000000303316 DSE1           *31
 40000000 000000000735 DUSEPA         *31
 60000000 000000000001 E              *31
 01101000 000000000640 EANA           221      *531
 40000000 000000303251 EDPER          *31
 40000000 000000000026 EEIND          *31
 40000000 000000000713 EFIND          *31
 01101000 000000000657 EFR1           384      *571
 40000000 000000001030 ELO            *31
 40000000 000000210711 ENCPNA         *31
 40000000 000000000007 ENCRP          *31
 40000000 000000000752 ENDSR          *31
 40000000 000000210647 ENE1           *31
 40000000 000000000716 ENIND          *31
 40000000 000000000013 ENTBL          *31
 40000000 000000000710 ENTNO          *31
 40000000 000000000712 ENTPTR         *31
 40000000 000000000717 ENTSZ          *31
 40000000 000000000711 ENTTYP         *31
 40000000 000000004064 EOSR           *31
 40000000 000000000004 ES             *31
 01101000 000000000644 ESFUL          232      *536
 41000000 000000000100 ESTSZ          *31
 40000000 000000000725 ESZ            *31
 40000000 000000000005 ETCADR         *31
 40000000 000000000005 ETCDBNO        *31
 12:42 09/05/97  FILE=ZIM$DBDL.:ZIC0TSI       SYMBOL TABLE                                               38   BMAP - B00
 40000000 000000000064 EXCCD          *31
 40000000 000000234534 FALRT          *31
 40000000 000000001055 FBF72          *31
 40000000 000000001025 FBU61          *31
 40000000 000000001020 FBUF           *31
 40000000 000000001026 FBUF1          *31
 40000000 000000001027 FBUF4          *31
 40000000 000000001024 FBUF6          *31
 40000000 000000001022 FBUFM          *31
 40000000 000000001021 FBUFU          *31
 40000000 000000001023 FBUMD          *31
 40000000 000000000004 FCN            *31
 40000000 000000000051 FCNT           *31
 40000000 000000000002 FCP            *31
 40000000 000000000047 FCSS           *31
 40000000 000000000005 FD             *31
 40000000 000000210637 FDE1           *31
 40000000 000000303320 FDE2           *31
 40000000 000000303321 FDE3           *31
 40000000 000000210642 FDE4           *31
 40000000 000000210643 FDE5           *31
 40000000 000000210644 FDE6           *31
 40000000 000000303325 FDE7           *31
 40000000 000000303326 FDE8           *31
 40000000 000000000021 FEASZ          *31
 40000000 000000000740 FETM           *31
 40000000 000000000006 FI             *31
 40000000 000000000103 FIAC           *31
 41000000 000000001100 FIB1           *31
 41000000 000000001130 FIBP           *31
 40000000 000000000000 FIBX           *31
 40000000 000000000102 FICNT          *31
 01101000 000000001074 FIPE5          634      *714
 40000000 000000000005 FIPN           *31
 40000000 000000000054 FKIND          *31
 40000000 000000000015 FLAGS          *31
 40000000 000000000244 FLDDSC         *31
 12:42 09/05/97  FILE=ZIM$DBDL.:ZIC0TSI       SYMBOL TABLE                                               39   BMAP - B00
 40000000 000000000046 FLDTL          *31
 01101000 000000000313 FMEM           294      *295
 40000000 000000000020 FMSBF          *31
 40000000 000000000006 FNAM           *31
 01101000 000000000305 FNDP           273      *292
 01101000 000000000657 FNER1          224      *559
 01101000 000000000657 FNER2          204      *560
 40000000 000000000250 FNIND          *31
 40000000 000000000004 FNL            *31
 01101000 000000000211 FNXT          *223       469
 01101000 000000000742 FNXT1          625      *638
 01101000 000000000657 FOER1          521      *570
 40000000 000000000101 FRAC           *31
 40000000 000000000002 FRANGE         *31
 40000000 000000211400 FRDNL          *31
 40000000 000000200000 FRTRN          *31
 40000000 000000000005 FRWSO          *31
 01101000 000000000651 FSFUL          335       337       349       351      *542
 40000000 000000000767 FSLN           *31
 40000000 000000000766 FSOF           *31
 40000000 000000000060 FTIND          *31
 40000000 000000303240 FTLINCR        *31
 40000000 000000000021 FWSSZ          *31
 40000000 000000000246 GACDK          *31
 01101000 000000000657 GCER1           68      *556
 40000000 000000000014 GDCB           *31
 41000000 000000000006 GERROR         *31        66        68       204       224       294       300
                                      322       324       384       396       406       458       616
                                      632       634       640       649       659       661       669
                                      675       681       687
 40000000 000000000016 GINHIB         *31
 40000000 000000000020 GIOAWS         *31
 40000000 000000000022 GIOBUF         *31
 40000000 000000000021 GIOPGNO        *31
 40000000 000000000015 GPAGE          *31
 40000000 000000000010 GRETAC         *31
 40000000 000000000011 GRETFR         *31
 12:42 09/05/97  FILE=ZIM$DBDL.:ZIC0TSI       SYMBOL TABLE                                               40   BMAP - B00
 40000000 000000000013 GRETRC         *31
 40000000 000000000012 GRETSC         *31
 40000000 000000000025 GRLCW          *31
 40000000 000000000014 GSTCD          *31
 40000000 000000000007 GSYSERR        *31
 40000000 000000000010 GT             *31
 41000000 000000000046 GTRNAME        *31       426
 40000000 000000000055 GTRPDCB        *31
 40000000 000000000056 GTRPNO         *31
 41000000 000000000057 GTRRDBK        *31       428
 41000000 000000000060 GTRRTYPE       *31       431
 41000000 000000000060 GTRTYPE        *31       433
 40000000 000000000027 HASH           *31
 40000000 000000000022 HIA            *31
 40000000 000000000775 HIDB           *31
 40000000 000000000003 HIGHDBK        *31
 40000000 000000000004 HIGHPG         *31
 40000000 000000001037 HIL            *31
 40000000 000000000002 HILN           *31
 40000000 000000000006 HPOS           *31
 40000000 000000000756 IAAC           *31
 40000000 000000001011 IACLN          *31
 40000000 000000001010 IALC           *31
 40000000 000000010314 IAN            *31
 40000000 000000001012 IANLN          *31
 40000000 000000000001 IASID          *30
 40000000 000000020320 ICA            *31
 40000000 000000000023 ICKSMP         *31
 40000000 000000000024 ICKSMV         *31
 40000000 000000210742 ICNR           *31
 41000000 000000000020 ICSIZ          *31
 40000000 000000010004 IDBK           *31
 40000000 000000012120 IDI            *31
 40000000 000000000023 IDS            *31
 40000000 000000000011 IF             *31
 40000000 000000000021 IFIPN          *31
 40000000 000000000000 IFR            *31
 12:42 09/05/97  FILE=ZIM$DBDL.:ZIC0TSI       SYMBOL TABLE                                               41   BMAP - B00
 40000000 000000234546 IKSEQ          *31
 40000000 000000000113 INAFLAG        *31
 40000000 000000000016 INCHA          *31
 01101000 000000000444 INDX           391      *402
 40000000 000000210566 INNM           *31
 40000000 000000210567 INSS           *31
 40000000 000000210575 INSST          *31
 40000000 000000303241 INTER          *31
 40000000 000000400000 INTII          *31
 40000000 000000000013 INTVL          *31
 40000000 000000001060 INVFLG         *31
 40000000 000000001043 INVOF          *31
 40000000 000000000014 INVT           *31
 40000000 000000000034 IOBLK          *31
 40000000 000000303354 IOCLSD         *31
 40000000 000000303355 IOCLSK         *31
 40000000 000000303257 IOE1           *31
 40000000 000000303264 IOE11          *31
 40000000 000000303265 IOE12          *31
 40000000 000000303266 IOE18          *31
 40000000 000000303260 IOE2           *31
 40000000 000000303261 IOE3           *31
 40000000 000000303262 IOE7           *31
 40000000 000000303263 IOE8           *31
 40000000 000000303363 IOFLSH         *31
 40000000 000000210676 IOGDCB         *31
 40000000 000000001002 IOINC          *31
 40000000 000000305160 IOINI          *31
 40000000 000000305155 IONOTIDS       *31
 40000000 000000305154 IONOTKEY       *31
 40000000 000000210677 IOOPND         *31
 40000000 000000210700 IOOPNK         *31
 40000000 000000303361 IORDD          *31
 40000000 000000305156 IOSCHEMA       *31
 40000000 000000001052 IOSTS          *31
 40000000 000000303362 IOWRTD         *31
 41000000 000000000750 IOWS           *31
 12:42 09/05/97  FILE=ZIM$DBDL.:ZIC0TSI       SYMBOL TABLE                                               42   BMAP - B00
 40000000 000000000647 IPC            *31
 40000000 000000000650 IPCF           *31
 40000000 000000000006 IROLLFLAG      *31
 40000000 000000010150 IRSN           *31
 40000000 000000000004 ISYSDCB        *31
 40000000 000000000005 ISYSERR        *31
 41000000 000000000061 ITPTR          *31       189       190       257       258       279       280
 40000000 000000000060 ITRS           *31
 40000000 000000021760 IUM            *31
 40000000 000000000017 IUSZ           *31
 40000000 000000234522 IVDBK          *31
 40000000 000000000011 IXBUF$         *31
 40000000 000000000046 IXFBSZ         *31
 40000000 777777777776 IXID           *31
 40000000 777777777777 IXPLL          *31
 40000000 000000000523 KCARG0         *31
 40000000 000000000524 KCARG3         *31
 40000000 000000000525 KCARG4         *31
 40000000 000000000700 KCREG          *31
 40000000 000000000006 KDCB           *31
 40000000 000000000666 KEYDS          *31
 40000000 000000000010 KEYPA          *31
 40000000 777777777776 KLNG           *31
 40000000 000000000022 KPASZ          *31
 40000000 000000000006 KWSZ           *31
 40000000 000000000052 LANGC          *31
 40000000 000000001014 LAS            *31
 40000000 000000700000 LCODM          *31
 01101000 000000000560 LDDON          466      *470
 00101000 000000000550 LDEL1         *464
 40000000 000000001045 LDPSI          *31
 40000000 000000001071 LINPT          *31
 01101000 000000000657 LKER6          113      *557
 01101000 000000000657 LKER8          461      *566
 40000000 000000001017 LNCNT          *31
 40000000 000000000762 LNNO           *31
 40000000 000000001036 LOL            *31
 12:42 09/05/97  FILE=ZIM$DBDL.:ZIC0TSI       SYMBOL TABLE                                               43   BMAP - B00
 40000000 000000000715 LOLIM          *31
 40000000 000000000023 LPASZ          *31
 40000000 000000000012 LPP            *31
 41000000 000000257764 LR             *31       513
 40000000 000000301270 LRA            *31
 40000000 000000000017 LRSZ           *31
 40000000 000000001035 LSPC           *31
 40000000 000000000750 LUPD           *31
 61000000 000000000001 M9             *31
 40000000 000000000013 MD             *31
 40000000 000000300000 MDQS           *31
 40000000 000000000730 MEMPTR         *31
 40000000 000000000727 MEMTYP         *31
 01101000 000000000657 MKER1          322      *567
 40000000 000000000045 MODCD          *31
 41000000 000000001207 MODFL          *31
 40000000 000000000042 MODFR          *31
 40000000 000000000044 MODIN          *31
 40000000 000000000044 MODRS          *31
 40000000 000000000043 MODSC          *31
 01101000 000000001074 MPAKE3         632      *713
 40000000 000000000047 MRBKI          *31
 40000000 000000210632 MRE4           *31
 40000000 000000303313 MRE5           *31
 40000000 000000210634 MRE7           *31
 40000000 000000400000 MW             *31
 40000000 000000000025 NCH            *31
 40000000 000000000002 NCHA           *31
 40000000 000000000005 NCHRS          *31
 01101000 000000000507 NCTYP          411       417      *435
 40000000 000000000014 NDCD           *31
 40000000 000000000012 NENC           *31
 40000000 000000000634 NEW            *31
 40000000 000000001072 NEWSIZ         *31
 40000000 000000235164 NKA            *31
 40000000 000000235020 NKDB           *31
 40000000 000000303415 NLDBK          *31
 12:42 09/05/97  FILE=ZIM$DBDL.:ZIC0TSI       SYMBOL TABLE                                               44   BMAP - B00
 40000000 777777777777 NLIND          *31
 40000000 000000001040 NLN            *31
 40000000 000000400000 NLNSA          *31
 01101000 000000000256 NMOO           252      *260
 01101000 000000000347 NOALT          318      *325
 41000000 000000001053 NOBF           *31
 01101000 000000000203 NOMEM          204      *213
 40000000 000000000711 NOPTRS         *31
 40000000 000000000742 NPARCW         *31
 40000000 000000000630 NPIND          *31
 41000000 000000000004 NPOS           *31       188       256
 01101000 000000000030 NRC1            74       *82
 40000000 000000234510 NSA            *31
 41000000 000000234654 NSCS           *31       537       543
 40000000 000000234344 NSDB           *31
 40000000 000000000001 NSTS           *31
 40000000 000000000726 NUMENT         *31
 40000000 000000000727 NUMPTR         *31
 40000000 777777777760 NXBUF          *31
 40000000 000000000713 NXPRI          *31
 40000000 000000000771 NXTC           *31
 40000000 000000000001 OAACN          *31
 40000000 000000000022 OACIWSOF       *31
 40000000 000000000001 OAOFST         *31
 40000000 000000000002 OARCN          *31
 40000000 000000000001 OASCN          *31
 40000000 000000000014 OD             *31
 41000000 000000000074 ODBK           *31       612
 40000000 000000001072 OLDSIZ         *31
 40000000 000000000101 OPADP          *31
 40000000 000000000741 OPARCW         *31
 40000000 000000210570 ORDNI          *31
 40000000 777777777777 OTVL           *31
 40000000 000000000252 OWNPTR         *31
 40000000 000000000016 PABUF          *31
 40000000 000000001041 PACD           *31
 40000000 000000000001 PACW           *31
 12:42 09/05/97  FILE=ZIM$DBDL.:ZIC0TSI       SYMBOL TABLE                                               45   BMAP - B00
 40000000 000000000733 PADBK          *31
 40000000 000000000740 PADUP          *31
 40000000 000000000745 PAEN           *31
 40000000 000000000745 PAEO           *31
 40000000 000000000734 PAEOF          *31
 40000000 000000303336 PAER1          *31
 40000000 000000303337 PAER2          *31
 40000000 000000303340 PAER3          *31
 40000000 000000303341 PAER4          *31
 40000000 000000303342 PAER5          *31
 40000000 000000303343 PAER6          *31
 40000000 000000000747 PAESZ          *31
 40000000 000000001060 PAFLG          *31
 40000000 000000000731 PAOPTR         *31
 40000000 000000000734 PAPOF          *31
 40000000 000000000714 PARCW          *31
 40000000 000000000726 PARVPA         *31
 40000000 000000000724 PASPLT         *31
 40000000 000000000004 PAWSZ          *31
 40000000 777777777762 PBUF           *31
 40000000 000000000020 PC             *31
 41000000 000000000510 PCB            *31
 40000000 000000000642 PCD            *31
 40000000 000000000642 PCD2           *31
 40000000 000000000247 PCEXI          *31
 40000000 000000000675 PCMIN          *31
 40000000 000000004541 PCOMP          *31
 40000000 000000000010 PD             *31
 41000000 000000000040 PE             *31        92
 40000000 000000000017 PENDING        *31
 01101000 000000000657 PER2           294      *561
 01101000 000000000657 PER3           458      *565
 40000000 000000000004 PF             *31
 40000000 000000000400 PFG            *31
 40000000 000000000200 PFM            *31
 40000000 000000000100 PFS            *31
 40000000 000000000400 PG             *31
 12:42 09/05/97  FILE=ZIM$DBDL.:ZIC0TSI       SYMBOL TABLE                                               46   BMAP - B00
 40000000 000000001064 PGHD           *31
 40000000 000000000006 PGLIM          *31
 40000000 000000000003 PGRNG          *31
 40000000 000000000746 PGSIZE         *31
 40000000 000000000641 PGSPLT         *31
 40000000 000000000100 PKAW           *31
 40000000 000000001034 PLO            *31
 40000000 000000000004 PLSEP          *31
 40000000 000000000200 PM             *31
 40000000 000000001054 PNEOO          *31
 40000000 000000001047 POFSI          *31
 01101000 000000000676 POPEM         *595       651       662
 40000000 000000000005 PPOS           *31
 41000000 000000000000 PR0            *30        70        72       100       199       200
 41000000 000000000001 PR1            *30        71        73       477       478
 40000000 000000000002 PR2            *30
 41000000 000000000003 PR3            *30       149       153       186       254       275       589
                                      593       667       668       673       674       679       680
                                      685       686
 41000000 000000000004 PR4            *30       150       154       590       594
 41000000 000000000005 PR5            *30        66        68       204       224       294       300
                                      322       324       384       396       406       416       426
                                      428       431       433       458       616       632       634
                                      640       649       659       661       668       669       674
                                      675       680       681       686       687
 41000000 000000000006 PR6            *30        76        90        95       102       106       122
                                      128       132       141       144       146       161       165
                                      169       178       188       191       195       219       241
                                      250       256       261       270       278       281       286
                                      314       315       339       355       360       388       403
                                      404       408       420       425       429       440       447
                                      467       534       606       622
 41000000 000000000007 PR7            *30        61        62        63        64        80        85
                                       86        87        91       105       111       112       121
                                      124       126       127       129       131       139       140
                                      145       149       150       151       157       158       160
                                      163       166       168       176       177       179       181
 12:42 09/05/97  FILE=ZIM$DBDL.:ZIC0TSI       SYMBOL TABLE                                               47   BMAP - B00
                                      183       186       189       190       194       196       205
                                      206       209       210       211       214       215       216
                                      226       227       228       232       234       235       236
                                      237       238       239       240       253       254       257
                                      258       274       275       279       280       285       289
                                      290       296       297       298       299       301       302
                                      303       304       319       320       326       331       332
                                      334       336       338       340       346       347       348
                                      350       352       353       354       356       358       359
                                      364       365       366       368       369       372       379
                                      380       382       383       385       386       405       407
                                      410       414       418       419       422       427       437
                                      438       439       441       443       446       448       451
                                      454       455       456       457       459       460       462
                                      466       468       472       475       476       480       500
                                      518       519       520       522       523       524       526
                                      528       529       539       540       545       546       580
                                      581       582       583       588       589       590       591
                                      598       599       601       602       605       611       612
                                      613       614       615       621       639       642       644
                                      646       647       648       654       656       657       666
                                      667       670       672       673       676       678       679
                                      682       684       685       688       698       699       700
                                      715
 40000000 000000303267 PRE1           *31
 40000000 000000303277 PRE10          *31
 40000000 000000303270 PRE3           *31
 40000000 000000303271 PRE4           *31
 40000000 000000303272 PRE5           *31
 40000000 000000210613 PRE6           *31
 40000000 000000210614 PRE7           *31
 40000000 000000210615 PRE8           *31
 40000000 000000303276 PRE9           *31
 40000000 000000000522 PREXC          *31
 40000000 000000000521 PRFR           *31
 40000000 000000000521 PRFR2          *31
 41000000 000000000000 PRIV           *31        91
 12:42 09/05/97  FILE=ZIM$DBDL.:ZIC0TSI       SYMBOL TABLE                                               48   BMAP - B00
 40000000 000000000526 PROPA          *31
 41000000 000000000517 PRRC           *31       131       168       611
 40000000 000000000517 PRRS           *31
 41000000 000000000520 PRSC           *31       129       166       303       331       352       405
                                      407       468       613       621
 41000000 000000000516 PRSS           *31       319       605       646       656
 40000000 000000000644 PRSTS          *31
 01101000 000000000616 PRVE1           93      *512
 40000000 000000000100 PS             *31
 41000000 000000000000 PS0SID         *30
 41000000 000000000001 PS1SID         *30
 41000000 000000000002 PS2SID         *30
 41000000 000000000003 PS3SID         *30
 41000000 000000000004 PS4SID         *30
 40000000 000000000005 PS5SID         *30
 40000000 000000000006 PS6SID         *30
 40000000 000000303416 PSA            *31
 40000000 000000000020 PSC            *31
 40000000 000000000010 PSD            *31
 40000000 000000000004 PSF            *31
 01101000 000000000244 PSM            171      *248
 40000000 000000000400 PSO            *31
 01101000 000000000136 PSOD           134      *173
 01101000 000000000364 PSTK           305      *343
 40000000 000000000720 PTESZ          *31
 40000000 000000000631 PTR            *31
 40000000 000000000724 PTRESZ         *31
 40000000 000000000710 PTRNO          *31
 41000000 000000000630 PWS            *31
 41000000 000000000002 RADDR          *31       149       186       254       275       589
 40000000 000000000010 RADIX          *31
 40000000 000000000005 RAPTR          *31
 40000000 000000000004 RAWSOF         *31
 40000000 777777777766 RBA            *31
 40000000 000000023432 RCBI           *31
 40000000 000000211234 RCDNL          *31
 40000000 000000000005 RCFRH          *31
 12:42 09/05/97  FILE=ZIM$DBDL.:ZIC0TSI       SYMBOL TABLE                                               49   BMAP - B00
 40000000 000000000004 RCFRN          *31
 40000000 000000001075 RCHD           *31
 40000000 000000000001 RCID           *31
 41000000 000000000006 RCPTR          *31        86       239       380       386       419       422
                                      439       529       540       546
 40000000 000000000002 RCRAH          *31
 40000000 000000000001 RCRAN          *31
 41000000 000000000003 RCRSH          *31       144       314       534
 41000000 000000000002 RCRSN          *31       122       161       403
 40000000 000000210667 RCVER1         *31
 40000000 000000210670 RCVER2         *31
 40000000 000000210671 RCVER4         *31
 40000000 000000210672 RCVER5         *31
 40000000 000000210673 RCVER6         *31
 40000000 000000000736 RCW1           *31
 40000000 000000000737 RCW2           *31
 41000000 000000000004 RCWSO          *31        90       440
 40000000 000000000077 RDAC           *31
 40000000 000000000076 RDCNT          *31
 40000000 000000040000 RDI            *31
 40000000 000000015674 RDLT           *31
 40000000 000000000075 RDYCW          *31
 40000000 000000000066 RECAC          *31
 00101000 000000001074 RECE1         *709
 40000000 000000000065 RECFR          *31
 40000000 000000000070 RECRC          *31
 40000000 000000000067 RECSC          *31
 41000000 000000000003 RECSZ          *31       151       591
 40000000 000000000235 REMLT          *31
 40000000 000000000062 REM_RECOVER    *31
 01101000 000000000606 RER2            97       245      *502
 01101000 000000000612 RER3           104      *507
 40000000 000000000251 RETFR          *31
 40000000 000000210724 RFDNL          *31
 40000000 000000017644 RIM            *31
 41000000 000000000005 RNAM           *31       425
 40000000 000000015706 RNDLT          *31
 12:42 09/05/97  FILE=ZIM$DBDL.:ZIC0TSI       SYMBOL TABLE                                               50   BMAP - B00
 40000000 000000000662 RNG1           *31
 40000000 000000000664 RNG2           *31
 40000000 000000000073 RNGD           *31
 40000000 000000000072 RNGO           *31
 40000000 000000000660 RNGTAL         *31
 40000000 000000020154 RNM            *31
 40000000 000000000041 ROCUR          *31
 40000000 000000000001 ROFST          *31
 40000000 000000002114 ROLL           *31
 40000000 000000020010 RPM            *31
 40000000 000000000001 RSCDH          *31
 40000000 000000000001 RSCDN          *31
 40000000 000000211710 RSDNL          *31
 40000000 000000004540 RSEE           *31
 40000000 000000000003 RSIZ           *31
 01101000 000000000062 RSL1           109      *120       135       197       224
 01101000 000000000042 RSL2           *99       246
 01101000 000000000066 RSL3          *125       463
 00101000 000000000030 RSL4           *84
 01101000 000000000033 RSL7           *89       243
 01101000 000000000100 RSMEM          123      *137
 01101000 000000000122 RSML1         *159       172       259       264       374
 00101000 000000000126 RSML2         *164
 40000000 000000000110 RSPAM          *31
 41000000 000000000004 RSPTR          *31       227       648
 40000000 000000000037 RSREQ          *31
 40000000 000000000002 RSSSH          *31
 40000000 000000000001 RSSSN          *31
 40000000 000000210574 RSZER          *31
 40000000 000000000632 RSZTP          *31
 41000000 000000000003 RTP            *31       206       383
 41000000 000000000003 RTYP           *31       429
 40000000 000000000530 RV1            *31
 40000000 000000000550 RV2            *31
 40000000 000000000570 RV3            *31
 40000000 000000000610 RV4            *31
 41000000 000000000003 RVASID         *30        71
 12:42 09/05/97  FILE=ZIM$DBDL.:ZIC0TSI       SYMBOL TABLE                                               51   BMAP - B00
 41000000 000000000510 RVI            *31        85       111       112       139       176       209
                                      211       214       216       226       234       235       237
                                      238       253       274       326       353       379       385
                                      414       418       437       456       459       460       472
                                      518       520       522       524       526       580       583
                                      614       639       642       644       666       670       699
 41000000 000000000511 RVO            *31       205       210       215       236       296       299
                                      480       519       523       672       676
 41000000 000000000513 RVPA           *31       684       688
 41000000 000000000512 RVT            *31       297       298       301       304       581       582
                                      588       647       654       678       682
 40000000 000000000022 RVTAL          *31
 40000000 000000000002 RWSZ           *31
 40000000 000000000015 RY             *31
 40000000 000000210620 RYE1           *31
 40000000 000000210621 RYE4           *31
 40000000 777777777767 SA             *31
 40000000 000000000005 SANAM          *31
 40000000 000000001062 SCDES          *31
 40000000 000000211544 SCDNL          *31
 40000000 000000000024 SCFC           *31
 40000000 000000000002 SCID           *31
 40000000 000000000024 SCLST          *31
 40000000 000000000004 SCNAM          *31
 41000000 000000000004 SCPTR          *31       528       539       545
 41000000 000000000003 SCRSH          *31       128       165       404       467
 40000000 000000000002 SCRSN          *31
 01101000 000000000411 SCWE           363      *367
 41000000 000000000001 SCWSO          *31       178       339       355       408
 01101000 000000000303 SDBK           283      *288
 40000000 000000001225 SFWS           *31
 01101000 000000000206 SISS           201      *217
 40000000 000000001073 SIZCHG         *31
 40000000 000000000645 SKFLG          *31
 40000000 000000000643 SKIND          *31
 40000000 000000000641 SKTYP          *31
 40000000 000000020464 SMCR           *31
 12:42 09/05/97  FILE=ZIM$DBDL.:ZIC0TSI       SYMBOL TABLE                                               52   BMAP - B00
 40000000 000000000003 SNAM           *31
 40000000 000000000107 SNIND          *31
 40000000 000000000735 SNPAE          *31
 40000000 000000001046 SNSI           *31
 40000000 000000000743 SOE            *31
 40000000 000000020630 SORSA          *31
 40000000 000000004374 SOSE           *31
 40000000 000000000000 SPAV           *31
 40000000 000000000744 SPCAVN         *31
 40000000 000000000744 SPCAVO         *31
 01101000 000000000416 SPDON          162      *378
 40000000 000000000765 SPLF           *31
 41000000 000000000765 SPND           *31
 40000000 000000000006 SSDT           *31
 40000000 000000303243 SSER           *31
 40000000 000000303244 SSER1          *31
 40000000 000000000002 SSH            *31
 40000000 000000000005 SSNAM          *31
 40000000 000000210573 SSNF           *31
 40000000 000000210576 SSNV           *31
 40000000 000000000020 SSSPTR         *31
 40000000 000000000010 SSVDT          *31
 40000000 000000000033 SSZTP          *31
 40000000 000000000017 ST             *31
 40000000 000000000104 STBIN          *31
 40000000 000000000105 STDEC          *31
 01101000 000000001006 STDUN          600      *663
 40000000 000000303302 STE1           *31
 40000000 000000303303 STE2           *31
 40000000 000000210624 STE3           *31
 40000000 000000303305 STE4           *31
 40000000 000000303306 STE5           *31
 00101000 000000000656 STER1         *551
 41000000 000000000100 STKSIZ         *31
 40000000 000000000055 STMASK         *31
 41000000 000000000062 SUST           *31       698       700       715
 41000000 000000000020 SWS            *31
 12:42 09/05/97  FILE=ZIM$DBDL.:ZIC0TSI       SYMBOL TABLE                                               53   BMAP - B00
 40000000 000000000000 SWSAC          *31
 40000000 000000000002 SWSZ           *31
 40000000 000000000000 SYSSF          *31
 40000000 000000000765 SZREQ          *31
 41000000 000000000004 TBUF           *31       150       590
 40000000 000000001061 TCTRS          *31
 60000000 000000000000 TDS            *31
 41000000 000000000113 TEMP           *31
 40000000 000000000640 TFLD           *31
 40000000 000000000657 TFLD2          *31
 40000000 000000000056 TMASK          *31
 41000000 000000000061 TMODE          *31       416
 40000000 000000000676 TMPPA          *31
 40000000 000000000003 TPAI           *31
 40000000 000000500000 TPRCOD         *31
 40000000 000000001031 TSFN           *31
 40000000 000000000021 TSI            *31
 40000000 000000001013 UBRD2          *31
 41000000 000000001223 UBSZ           *31
 40000000 000000000667 UCADR          *31
 40000000 000000000036 UCRS           *31
 40000000 000000000024 UFSPK          *31
 40000000 000000000024 UFSPK2         *31
 00101000 000000000657 ULER6         *564
 00101000 000000000657 ULER7         *558
 40000000 000000000715 ULIM           *31
 40000000 000000004230 UNA            *31
 40000000 000000303417 UNIM           *31
 00101000 000000001006 UNL0          *665
 01101000 000000001022 UNL1           669      *671
 01101000 000000001036 UNL2           675      *677
 01101000 000000001052 UNL3           681      *683
 01101000 000000001066 UNL4           687      *689
 01101000 000000000460 UNLK           397      *413
 40000000 000000000002 UOFST          *31
 40000000 000000001035 UPACD          *31
 40000000 000000000721 UPACW          *31
 12:42 09/05/97  FILE=ZIM$DBDL.:ZIC0TSI       SYMBOL TABLE                                               54   BMAP - B00
 40000000 000000000007 UPFLAG         *31
 40000000 000000000103 UPPAI          *31
 40000000 000000000004 UPTSID         *30
 40000000 000000000674 USTAT          *31
 41000000 000000000002 UWASID         *30       477
 40000000 000000000002 UWSSZ          *31
 40000000 000000000020 UWSZ           *31
 40000000 000000000243 VFDSC          *31
 40000000 000000001070 VFDSR          *31
 40000000 000000000656 VFLD           *31
 40000000 000000001074 VFLNG          *31
 40000000 000000001124 VIB1           *31
 40000000 000000001154 VIBP           *31
 41000000 000000000000 VLPSID         *30        70       199
 40000000 000000001074 VRSIZ          *31
 40000000 000000001067 WLOA           *31
 40000000 000000100000 WRTI           *31
 41000000 000000000000 WSBID          *31       369
 41000000 000000000003 WSOF           *31       447
 41000000 000000000000 X0             *30       182       183       194       206       207       281
                                      282       285       304       326       371       372       382
                                      409       410       446       450       451       491       498
                                      504       509       514       527       533       538       544
                                      622       623       624
 41000000 000000000001 X1             *30        66        68        76        77        90        91
                                       92        95        96       102       103       106       107
                                      108       111       113       132       133       141       142
                                      146       147       151       169       170       178       191
                                      192       204       219       220       224       234       241
                                      242       244       250       251       270       271       272
                                      294       300       301       315       316       317       322
                                      324       332       339       355       384       388       389
                                      390       395       396       406       408       414       429
                                      430       431       432       433       434       440       447
                                      454       458       459       461       466       472       479
                                      480       482       521       578       588       591       598
                                      599       616       632       634       639       640       642
 12:42 09/05/97  FILE=ZIM$DBDL.:ZIC0TSI       SYMBOL TABLE                                               55   BMAP - B00
                                      645       649       654       659       661       669       670
                                      675       676       681       682       687       688       699
 41000000 000000000002 X2             *30       416
 41000000 000000000003 X3             *30        85       111       112       139       176       205
                                      226       234       238       253       274       353       360
                                      361       362       368       369       379       385       414
                                      418       437       456       459       460       472       526
                                      614       639       642       644       647       666       670
                                      672       676       678       682       684       688       699
 40000000 000000000004 X4             *30
 41000000 000000000005 X5             *30       121       122       124       160       161       163
                                      227       319       320       346       347       403       454
                                      455       462       466       604       605       646       648
                                      655       656       657
 41000000 000000000006 X6             *30       128       129       165       166       303       331
                                      334       348       352       404       405       407       467
                                      468       492       499       505       510       515       528
                                      539       545       603       613       621
 03201026 000000000000 X66_ARET       *30       484
 03201025 000000000000 X66_AUTO_0     *30        59
 41000000 000000000007 X7             *30        72        73        80        86        87       105
                                      140       144       145       239       240       314       380
                                      386       419       439       493       500       529       534
                                      540       546
 40000000 000000210665 XASL           *31
 40000000 000000303420 XLD            *31
 40000000 000000303421 XPD            *31
 41000000 000000000676 XPRS           *31       320       332       657
 40000000 000000210666 XROLL          *31
 40000000 000000210664 XUNEX          *31
 40000000 777777777777 XXDPN          *31
 03201024 000000000000 ZIB$CLRRECOVER           *29       482       578
 03201029 000000000000 ZIB$DBALT     *715
 03201028 000000000000 ZIB$DBALTO    *693
 03201027 000000000000 ZIB$DBALTR    *576
 03201023 000000000000 ZIB$FPTRECOVER           *28        66
 03201021 000000000000 ZIG$DBAKP      *26       632
 12:42 09/05/97  FILE=ZIM$DBDL.:ZIC0TSI       SYMBOL TABLE                                               56   BMAP - B00
 12101000 000000000000 ZIG$DBERS       10       *58
 02201018 000000000000 ZIG$DBGRS      *23
 03201005 000000000000 ZIG$DBPCR      *13        68
 03201001 000000000000 ZIG$DBPDR      *12       396
 03201002 000000000000 ZIG$DBPFD      *12       458       616
 03201006 000000000000 ZIG$DBPFI      *13       634
 03201004 000000000000 ZIG$DBPFN      *13       204       224       640
 03201022 000000000000 ZIG$DBPFO      *27       521
 03201003 000000000000 ZIG$DBPFP      *12       294
 03201013 000000000000 ZIG$DBXKT      *18       322       659
 03201007 000000000000 ZIM$DBPLK      *14       111       459       639
 03201009 000000000000 ZIM$DBPMR      *14       113       461       645
 03201008 000000000000 ZIM$DBPUL      *14       234       414       472       642       670       676
                                      682       688       699
 03201016 000000000000 ZIM$IDEL       *21       406
 03201012 000000000000 ZIM$JDEL       *17       395
 02201017 000000000000 ZIM$KCURR      *22
 03201014 000000000000 ZIM$KDEL       *19       324
 03201015 000000000000 ZIM$KSTO       *20       661
 03201010 000000000000 ZIM$PCON       *15       649
 03201011 000000000000 ZIM$PDIS       *16       300
 03201019 000000000000 ZIM$TRACE      *24       434
 03201020 000000000000 ZIO$DBBCC      *25       669       675       681       687
 03201000 000000000000 ZIQ$DBPR1      *11       384

    1040 SYMBOLS

 12:42 09/05/97  FILE=ZIM$DBDL.:ZIC0TSI       MACRO TABLE                                                57   BMAP - B00
 CBSYM           31
 DBALT          576
 DBALTO         693
 DBCAL           66        68       111       113       204       224       294       300       322
                324       384       395       396       406       434       458       459       461
                482       521       578       616       632       634       639       640       645
                649       659       661       669       675       681       687
 DBREC          715
 DBRET          484
 DBSAV           59
 ICCAL          384
 LOCK           111       459       639
 POPRS          454       466
 PSHRS          232
 Q2SYM           31
 SSSYM           31
 UNLOCK         234       414       472       642       670       676       682       688       699

      37 MACROS

    SYMBOL SPACE USED 11704 WORDS
     MACRO SPACE USED 13055 WORDS
   INPUT RECORDS READ  3234
 STATEMENTS PROCESSED  3205
         ELAPSED TIME  0:16.56
             CPU TIME    15.73 SEC.
        ASSEMBLY RATE 12225 STATEMENTS/CPU MIN.

      NO ERRORS

