
 12:42 09/05/97  FILE=ZIM$DBDP.:ZIC0TSI                                                                  1    BMAP - B00
                                         1  *M*      ZIG$DBDP
                                         2  *T***********************************************************
                                         3  *T*                                                         *
                                         4  *T* Copyright (c) Bull HN Information Systems Inc., 1997    *
                                         5  *T*                                                         *
                                         6  *T***********************************************************

 12:42 09/05/97  FILE=ZIM$DBDP.:ZIC0TSI       H6600H2.537     IDS/II DB PROCEDURE INTERFACE  771213DBDP  2    BMAP - B00
                                         7         TTL     H6600H2.537     IDS/II DB PROCEDURE INTERFACE  771213DBDP
                                         8         CPR     1974
                                         9         PMC     OFF
                                        10         ENTDEF  ZIQ$DBMAS
                                        11         ENTDEF  ZIG$DBDPI
                                        12         ENTDEF  ZIG$DBECK
                                        13         ENTDEF  ZIG$DBNPF
                                        14         LODM    Q2MA
                                        15         Q2SYM

 12:42 09/05/97  FILE=ZIM$DBDP.:ZIC0TSI       SELECT AREA FOR A MULTI-AREA RECORD                        3    BMAP - B00
                                        16         TTLS    SELECT AREA FOR A MULTI-AREA RECORD
                                        17  *
                                        18  *  SELECT AREA FOR A MULTI-AREA RECORD
                                        19  *
                                        20  *  INPUT :     X7 - RC PTR FOR REC
                                        21  *
                                        22  *  OUTPUT:     X0 - AC PTR
                                        23  *              X4 - RA PTR
                                        24  *              X7 - RC PTR
                                        25  *
 0 000000                               26  ZIQ$DBMAS NULL
   000000    7 00470 7411 56            27         ICSAV
   000001    6 00000 7211 17            28         LXL     X1,DEF,X7,PR6
   000002    020000 3010 03             29         CANX    X1,.MAR,DU      IS THIS A MULTI-AREA REC
   000003 (0)000010 6010 00             30         TNZ     PIKA            YES
                                        31  *
                                        32  *  SINGLE AREA REC
                                        33  *
   000004    6 00001 2241 17            34         LDX     X4,RCRAN,X7,PR6  GET 1ST RA
   000005    6 00002 7201 14            35         LXL     X0,ACRAH,X4,PR6  GET AC FOR RA
   000006    7 00470 2211 54            36         ICRET
   000007    000001 7100 11
                                        37  *
                                        38  *  MULTI-AREA REC
                                        39  *
   000010                               40  PIKA   NULL
   000010    7 00100 7471 00            41         STX     X7,PKAW,,PR7    SAVE RC
   000011    7 00107 4501 00            42         STZ     SNIND,,PR7      SET IND TO CHECK SUB-SCHEMA NAME OF AREA
                                        43  *  FIND AREA ID FIELD
   000012                               44  FAIDF  NULL
   000012    7 00100 2241 00            45         LDX     X4,PKAW,,PR7    INIT X4 TO RC
   000013                               46  LP1    NULL
   000013    6 00004 7241 14            47         LXL     X4,RCFRN,X4,PR6  GET NEXT FR
   000014 (0)000054 6000 00             48         TZE     AIDNF           NO - ERROR
   000015    6 00000 2351 14            49         LDA     DEF,X4,PR6
   000016    003400 3750 07             50         ANA     .FUSE,DL        ISOLATE USE CODE
   000017    001000 1150 07             51         CMPA    =O1000,DL       IS THIS THE AREA-ID FIELD
 12:42 09/05/97  FILE=ZIM$DBDP.:ZIC0TSI       SELECT AREA FOR A MULTI-AREA RECORD                        4    BMAP - B00
   000020 (0)000013 6010 00             52         TNZ     LP1             NO - GET NEXT
   000021    7 00100 4441 00            53         SXL     X4,PKAW,,PR7    SAVE FR
                                        54  *  FIND AREA W/ CORRECT NAME  (SUBSCHEMA NAME FOR REALM)
   000022    7 00100 2271 00            55         LDX     X7,PKAW,,PR7    GET RC
   000023    000000 6240 17             56         EAX     X4,,X7          INIT RC
   000024    000002 4714 07             57         LDP    PR1,UWASID,DL            UWA$
   000025                               58  LP2    NULL
   000025    6 00001 2241 14            59         LDX     X4,RCRAN,X4,PR6  GET NEXT RA
   000026 (0)000061 6000 00             60         TZE     ACNF            NO - ERROR
   000027    6 00002 7201 14            61         LXL     X0,ACRAH,X4,PR6  GET AC
   000030    7 00107 2341 00            62         SZN     SNIND,,PR7      WAS THERE A DB PROC.
   000031 (0)000045 6010 00             63         TNZ     CKSAN           YES - CHECK SCHEMA AREA NAME
                                        64  *  CHECK SUBSCHEMA NAME OF THIS AREA
   000032    6 00000 2351 10            65         LDA     DEF,X0,PR6      GET LENGTH OF NAME
   000033    000077 3750 07             66         ANA     .ANL,DL         ISOLATE
   000034    000000 6360 10             67         EAQ     ,X0
   000035    000002 7360 00             68         QLS     2               QR = BYTE OFST TO AC
   000036    7 00100 7211 00            69         LXL     X1,PKAW,,PR7    GET FR
   000037    040 0 120 1065 42          70         CMPC    (1,1,,QU),(1,,1),040      * COMPARE
   000040    6 00026 0 0 0 0005         71         ADSC9   ANAM,0,A,PR6              *  REALM NAME TO
   000041    6 00002 0001 11            72         ARG     UOFST,X1,PR6              *   AREA-ID FLD
   000042 (0)000025 6010 00             73         TNZ     LP2             NOT THIS ONE - CHECK NEXT
                                        74  *  RETURN
   000043    7 00470 2211 54            75           ICRET
   000044    000001 7100 11
                                        76  *  CHECK SCHEMA NAME OF THIS AREA
   000045                               77  CKSAN  NULL
   000045    7 00100 7211 00            78         LXL     X1,PKAW,,PR7    GET FR
   000046    040 0 120 1065 20          79         CMPC    (1,,1),(1,,1),040   * COMPARE
   000047    6 00005 0001 10            80         ARG     SANAM,X0,PR6        *  SCHEMA AREA NAME TO
   000050    6 00002 0001 11            81         ARG     UOFST,X1,PR6        *    AREA-ID FIELD
   000051 (0)000025 6010 00             82         TNZ     LP2
                                        83  *  RETURN
   000052    7 00470 2211 54            84           ICRET
   000053    000001 7100 11
                                        85  *
                                        86  *
 12:42 09/05/97  FILE=ZIM$DBDP.:ZIC0TSI       SELECT AREA FOR A MULTI-AREA RECORD                        5    BMAP - B00
                                        87  *  ERROR DETECTED IN THIS ROUTINE
                                        88  *
   000054                               89  AIDNF  NULL                    AREA-ID FIELD NOT FOUND
   000054    210565 2350 07             90         LDA     AFNP,DL
   000055    000000 6200 00             91         EAX     X0,0            NULL AC
   000056    000000 6260 00             92         EAX     X6,0            NULL SC
   000057    7 00100 2271 00            93         LDX     X7,PKAW,,PR7    GET RC
   000060 (0)000073 7100 00             94         TRA     MAR1
   000061                               95  ACNF   NULL                    AREA DEF NOT FOUND FOR NAME GIVEN
   000061    010314 2350 07             96         LDA     IAN,DL
   000062    000000 6200 00             97         EAX     X0,0            NULL AC
   000063    000000 6260 00             98         EAX     X6,0            NULL SC
   000064 (0)000073 7100 00             99         TRA     MAR1
   000065                              100  PRRJ   NULL                    AREA SELECTION PROC. RET'D ERROR
   000065    211070 0350 07            101         ADLA    ACDNL,DL
   000066    000000 6200 00            102         EAX     X0,0            NULL AC
   000067    000000 6260 00            103         EAX     X6,0            NULL SC
   000070    7 00100 2271 00           104         LDX     X7,PKAW,,PR7    GET  RC
   000071 (0)000073 7100 00            105         TRA     MAR1
                                       106  *
                                       107  *  ERRORS DETECTED IN SUBORDINATE ROUTINES
                                       108  *
   000072                              109  PRER1  NULL                    ERROR IN CALLING PROC.
   000072 (0)000073 7100 00            110         TRA     MAR1
                                       111  *
                                       112  *  COMMON ERROR RETURN
                                       113  *
   000073                              114  MAR1   NULL
   000073  X 000000 7020 00            115           ICALT

 12:42 09/05/97  FILE=ZIM$DBDP.:ZIC0TSI       CALL USERS CHECK PROCEDURE                                 6    BMAP - B00
                                       116         TTLS    CALL USERS CHECK PROCEDURE
                                       117  *
                                       118  *  CALL A USERS CHECK PROCEDURE IF ONE EXISTS
                                       119  *
                                       120  *       INPUT - X4 = FR PTR
                                       121  *
   000074                              122  ZIG$DBECK NULL
   000074  X 000000 7000 00            123         DBSAV
   000075    000004 000000
                                       124  *        NO LONGER USED IN CP6
   000076  X 000000 7020 00            125         DBRET                    RETURN

 12:42 09/05/97  FILE=ZIM$DBDP.:ZIC0TSI       CALL A DATA BASE PROCEDURE                                 7    BMAP - B00
                                       126         TTLS    CALL A DATA BASE PROCEDURE
                                       127  *
                                       128  *  CALL A DATA BASE PROCEDURE
                                       129  *
                                       130  *  INPUT - X2 = DP PTR FOR PROCEDURE TO CALL
                                       131  *
                                       132  *  EXCEPTION RETURN -
                                       133  *    PROCEDURE RETURNED NON-ZERO STATUS
                                       134  *    ARGUMENTS ARE NOT RETURNED IF PROC. RETURNS ERROR
                                       135  *
   000077                              136  ZIG$DBDPI NULL
   000077  X 000000 7000 00            137         DBSAV
   000100    000004 000000
                                       138  *        NO LONGER USED IN CP6
   000101  X 000000 7020 00            139           DBALT
                                       140  *  ERROR DETECTED BY DATA BASE PROC LOAD ROUTINE. THE DB PROC
                                       141  *  TO BE CALLED IS NOT LOADED.  THIS LOC IS  CALLED INSTEAD OF
                                       142  *  THE MISSING PROCEDURE.
   000102                              143  ZIG$DBNPF NULL                 TRIED TO EXECUTE A DB PROC NOT LOADED
   000102    210655 2350 07            144         LDA     DBLD01,DL
   000103    000000 6200 00            145         EAX     X0,0            NULL AC
   000104    000000 6260 00            146         EAX     X6,0            NULL SC
   000105    000000 6270 00            147         EAX     X7,0            NULL RC
   000106 (0)000110 7100 00            148         TRA     DPIR1
                                       149  *
                                       150  *  ERRORS DETECTED IN SUBORDINATE ROUTINES
                                       151  *
                                       152  *
                                       153  *  ERRORS DETECTED IN ENCODE/DECODE ROUTINES
                                       154  *
   000107                              155  MAE1   NULL                    ENCODE ERROR
   000107                              156  MAE2   NULL                    DECODE ERROR
   000107 (0)000110 7100 00            157         TRA     DPIR1
                                       158  *  COMMON ERROR RETURN
   000110                              159  DPIR1  NULL
   000110  X 000000 7020 00            160           DBALT
                                       161         END
 12:42 09/05/97  FILE=ZIM$DBDP.:ZIC0TSI       CALL A DATA BASE PROCEDURE                                 8    BMAP - B00

  CONTROL SECTION TABLE

   0 CODE   EVEN  000111
   1 RODATA EVEN  000000 LITERALS

 12:42 09/05/97  FILE=ZIM$DBDP.:ZIC0TSI       SYMBOL TABLE                                               9    BMAP - B00
 40000000 000000200000 .AC            *15
 40000000 000000000100 .AG            *15
 40000000 000000002000 .ALTO          *15
 41000000 000000000077 .ANL           *15        66
 40000000 000000200000 .APDN          *15
 40000000 000000000100 .ATMP          *15
 40000000 000000400000 .AV            *15
 40000000 000000400000 .B0            *15
 40000000 000000200000 .B1            *15
 40000000 000000000200 .B10           *15
 40000000 000000000100 .B11           *15
 40000000 000000000040 .B12           *15
 40000000 000000000020 .B13           *15
 40000000 000000000010 .B14           *15
 40000000 000000000004 .B15           *15
 40000000 000000000002 .B16           *15
 40000000 000000000001 .B17           *15
 40000000 000000400000 .B18           *15
 40000000 000000200000 .B19           *15
 40000000 000000100000 .B2            *15
 40000000 000000100000 .B20           *15
 40000000 000000040000 .B21           *15
 40000000 000000020000 .B22           *15
 40000000 000000010000 .B23           *15
 40000000 000000004000 .B24           *15
 40000000 000000002000 .B25           *15
 40000000 000000001000 .B26           *15
 40000000 000000000400 .B27           *15
 40000000 000000000200 .B28           *15
 40000000 000000000100 .B29           *15
 40000000 000000040000 .B3            *15
 40000000 000000000040 .B30           *15
 40000000 000000000020 .B31           *15
 40000000 000000000010 .B32           *15
 40000000 000000000004 .B33           *15
 40000000 000000000002 .B34           *15
 40000000 000000000001 .B35           *15
 12:42 09/05/97  FILE=ZIM$DBDP.:ZIC0TSI       SYMBOL TABLE                                               10   BMAP - B00
 40000000 000000020000 .B4            *15
 40000000 000000010000 .B5            *15
 40000000 000000004000 .B6            *15
 40000000 000000002000 .B7            *15
 40000000 000000001000 .B8            *15
 40000000 000000000400 .B9            *15
 40000000 000000000001 .BREAK         *15
 40000000 000000010000 .BRK           *15
 40000000 000000020000 .BTB           *15
 40000000 000000000001 .CAC           *15
 40000000 000000000000 .CAE           *15
 40000000 000000000200 .CANSSS        *15
 40000000 000000000400 .CD            *15
 40000000 000000040000 .CFLC          *15
 40000000 000000400000 .CHKSUM        *15
 40000000 000000100000 .CJRNL         *15
 40000000 000000000077 .CNSZ          *15
 40000000 000000160000 .COMC          *15
 40000000 000000000020 .CONT          *15
 40000000 000000000000 .CSE           *15
 40000000 000000700000 .CTYP          *15
 41000000 000000000270 .DBEST         *15
 41000000 000000000470 .DBIC          *15        27        36        75        84
 40000000 000000077777 .DBPT          *15
 41000000 000000000370 .DBSTK         *15
 40000000 000000020000 .DELM          *15
 40000000 000000002000 .DIDP          *15
 40000000 000000000077 .DNDX          *15
 40000000 000000600000 .DORD          *15
 40000000 000000000200 .DP            *15
 40000000 000000100000 .DPS           *15
 40000000 000000200000 .DPSA          *15
 40000000 000000400000 .DPST          *15
 40000000 000000000002 .DUMP          *15
 40000000 000000002000 .DUPC          *15
 40000000 000000010000 .DUPP          *15
 40000000 000000200000 .EBCL          *15
 12:42 09/05/97  FILE=ZIM$DBDP.:ZIC0TSI       SYMBOL TABLE                                               11   BMAP - B00
 40000000 000000400000 .EBCM          *15
 40000000 000000200000 .ENCRP         *15
 40000000 000000000077 .ENDX          *15
 40000000 000000000400 .ENQ           *15
 40000000 000000004000 .ETC           *15
 40000000 000000000400 .EXIT          *15
 40000000 000000000200 .FMOD          *15
 40000000 000000000077 .FNL           *15
 40000000 000000000074 .FORG          *15
 40000000 000000002000 .FR            *15
 40000000 000000000100 .FSR           *15
 41000000 000000003400 .FUSE          *15        50
 40000000 000000010000 .FVF           *15
 40000000 000000040000 .FVR           *15
 40000000 000000000010 .INDEXED       *15
 40000000 000000777777 .IXID          *15
 40000000 000000001777 .IXNUM         *15
 40000000 000000000004 .KEYED         *15
 40000000 000000010000 .LCK           *15
 40000000 000000400000 .LEIL          *15
 40000000 000000001000 .LG            *15
 40000000 000000000002 .LOAD          *15
 41000000 000000020000 .MAR           *15        29
 40000000 000000000007 .MEMT          *15
 40000000 000000010000 .MRL           *15
 40000000 000000040000 .MSM           *15
 60000000 000000000001 .N6685         *15
 40000000 000000100000 .NAI           *15
 40000000 000000200000 .NBI           *15
 40000000 000000000002 .NCIA          *15
 40000000 000000040000 .NMV           *15
 40000000 000000017777 .NOENT         *15
 40000000 000000400000 .OA            *15
 40000000 000000740000 .OPEV          *15
 40000000 000000100000 .OSM           *15
 40000000 000000100000 .PAFIL         *15
 40000000 000000200000 .PAHVR         *15
 12:42 09/05/97  FILE=ZIM$DBDP.:ZIC0TSI       SYMBOL TABLE                                               12   BMAP - B00
 40000000 000000000001 .PAIA          *15
 40000000 000000040000 .PALIL         *15
 40000000 000000020000 .PALVR         *15
 40000000 000000400000 .PANLL         *15
 40000000 000000400000 .PCKD          *15
 40000000 000000001600 .PMOD          *15
 40000000 000000000520 .PRCSE         *15
 40000000 000000000007 .PSTO          *15
 40000000 000000006040 .PTAS          *15
 40000000 000000010100 .PTCHK         *15
 40000000 000000010200 .PTDEC         *15
 40000000 000000010140 .PTENC         *15
 40000000 000000020000 .RA            *15
 40000000 000000100000 .RC            *15
 40000000 000000400000 .RELEASE       *15
 40000000 000000000017 .RELT          *15
 40000000 000000004000 .RERA          *15
 40000000 000000400000 .RERS          *15
 40000000 000000010000 .RKEY          *15
 40000000 000000000077 .RNL           *15
 40000000 000000200000 .RSTO          *15
 40000000 000000007777 .RTYP          *15
 40000000 000000040000 .SC            *15
 40000000 000000000070 .SETM          *15
 40000000 000000740000 .SETO          *15
 40000000 000000000700 .SETT          *15
 40000000 000000040000 .SFNP          *15
 40000000 000000004000 .SM            *15
 40000000 000000020000 .SMOD          *15
 40000000 000000000077 .SNL           *15
 40000000 000000020000 .SNSS          *15
 40000000 000000010000 .SO            *15
 40000000 000000100000 .SR            *15
 40000000 000000004000 .SRCR          *15
 40000000 000000001000 .SS            *15
 40000000 000000000007 .SSTP          *15
 40000000 000000004000 .SYN           *15
 12:42 09/05/97  FILE=ZIM$DBDP.:ZIC0TSI       SYMBOL TABLE                                               13   BMAP - B00
 40000000 000000000040 .SYNC          *15
 40000000 000000020000 .TJRNL         *15
 40000000 000000040000 .TMPLT         *15
 40000000 000000040000 .TRACE         *15
 40000000 000000000001 .TRENTRY       *15
 40000000 000000000012 .TRIDEL        *15
 40000000 000000000021 .TRIDELENQ     *15
 40000000 000000000024 .TRIDEQ        *15
 40000000 000000000013 .TRIMOD        *15
 40000000 000000000022 .TRIMODENQ     *15
 40000000 000000000014 .TRIREAD       *15
 40000000 000000000023 .TRIREADENQ    *15
 40000000 000000000011 .TRISTO        *15
 40000000 000000000020 .TRISTOENQ     *15
 40000000 000000000017 .TRPDEQ        *15
 40000000 000000000004 .TRPMOD        *15
 40000000 000000000016 .TRPMODENQ     *15
 40000000 000000000002 .TRPREAD       *15
 40000000 000000000015 .TRPREADENQ    *15
 40000000 000000000003 .TRPWRITE      *15
 40000000 000000000010 .TRRACC        *15
 40000000 000000000006 .TRRDEL        *15
 40000000 000000000007 .TRRMOD        *15
 40000000 000000000005 .TRRSTO        *15
 40000000 000000004000 .ULCK          *15
 40000000 000000400000 .UPDT          *15
 40000000 000000000040 .VIA           *15
 60000000 000000000001 A              *15
 40000000 000000000002 ABAS           *15
 40000000 000000000001 AC             *15
 40000000 777777777760 ACDEF          *15
 41000000 000000211070 ACDNL          *15       101
 40000000 000000000003 ACID           *15
 01101000 000000000061 ACNF            60       *95
 40000000 000000001016 ACOPN          *15
 40000000 000000000002 ACP            *15
 40000000 000000000005 ACPTR          *15
 12:42 09/05/97  FILE=ZIM$DBDP.:ZIC0TSI       SYMBOL TABLE                                               14   BMAP - B00
 41000000 000000000002 ACRAH          *15        35        61
 40000000 000000000001 ACRAN          *15
 40000000 000000001003 ACREC          *15
 40000000 000000000001 ACTDBCB        *15
 40000000 000000000002 ACTDBNO        *15
 40000000 000000001017 ACTP           *15
 40000000 000000000000 ACTSSS         *15
 40000000 000000000000 ACTSZ          *15
 41000000 000000210565 AFNP           *15        90
 40000000 000000000635 AFT            *15
 01101000 000000000054 AIDNF           48       *89
 40000000 000000022124 AIR            *15
 40000000 000000000016 AMAX           *15
 41000000 000000000026 ANAM           *15        71
 40000000 000000021614 ANR            *15
 40000000 000000000001 APNO           *15
 40000000 000000210562 ARGER          *15
 41000000 000000000020 ARGS           *15
 40000000 000000000077 ARGS2          *15
 40000000 000000210713 ARNAF          *15
 40000000 000000000003 ATBL           *15
 40000000 000000000000 ATRIB          *15
 40000000 000000000002 AVLN           *15
 40000000 000000000013 AWS$           *15
 40000000 000000000010 AWSZ           *15
 60000000 000000000001 B              *15
 40000000 000000001006 B32N           *15
 40000000 000000001007 B36N           *15
 40000000 000000001056 B72N           *15
 40000000 000000000001 BADDR          *15
 40000000 000000210712 BADSEED        *15
 40000000 777777777765 BDCW           *15
 40000000 000000000633 BEF            *15
 40000000 000000020000 BEFW           *15
 40000000 000000000751 BEMT           *15
 40000000 777777777761 BID            *15
 40000000 777777777762 BIND           *15
 12:42 09/05/97  FILE=ZIM$DBDP.:ZIC0TSI       SYMBOL TABLE                                               15   BMAP - B00
 40000000 000000000007 BLKD           *15
 40000000 000000303331 BME02          *15
 41000000 000000001203 BMPB           *15
 40000000 000000000652 BN1            *15
 40000000 000000000654 BN2            *15
 40000000 000000000004 BPL            *15
 40000000 000000000015 BPLDBK         *15
 40000000 000000000034 BSPG           *15
 40000000 777777777763 BSTAT          *15
 40000000 000000000750 BTX0           *15
 41000000 000000001160 BUF4           *15
 41000000 000000001170 BUF6           *15
 41000000 000000000000 BUFORG         *15
 40000000 000000001060 BUFRQ          *15
 40000000 000000000006 BURRID         *15
 41000000 000000000020 BWASZ          *15
 60000000 000000000001 C              *15
 40000000 000000000050 CAAC           *15
 40000000 000000000050 CACD           *15
 40000000 000000000111 CAG            *15
 40000000 000000001033 CAL            *15
 40000000 000000000026 CALLPM0        *15
 40000000 000000000003 CANSSS         *15
 40000000 000000000003 CBCPA          *15
 40000000 000000000002 CBCPO          *15
 40000000 000000000002 CBENO          *15
 40000000 000000000014 CBFSZ          *15
 40000000 000000000753 CBIB           *15
 40000000 000000001030 CBID           *15
 40000000 000000000014 CBRCE          *15
 40000000 000000000014 CBRCP          *15
 40000000 000000001033 CBRID          *15
 40000000 000000000015 CBRPA          *15
 40000000 000000000031 CCHAR          *15
 40000000 000000000040 CDBK           *15
 40000000 000000000030 CDES           *15
 40000000 000000000110 CDP            *15
 12:42 09/05/97  FILE=ZIM$DBDP.:ZIC0TSI       SYMBOL TABLE                                               16   BMAP - B00
 40000000 000000001044 CDPSI          *15
 40000000 000000000002 CDRH           *15
 40000000 000000000003 CDRN           *15
 40000000 000000000002 CDSH           *15
 40000000 000000000003 CDSN           *15
 40000000 000000000722 CENTRN         *15
 40000000 000000000722 CENTRO         *15
 40000000 000000000716 CENTRY         *15
 41000000 000000001053 CFCT           *15
 40000000 000000000670 CFLPT1         *15
 40000000 000000000672 CFLPT2         *15
 40000000 000000000015 CFSA           *15
 40000000 000000000646 CHDBK          *15
 40000000 000000000773 CHR            *15
 40000000 000000000006 CHRD           *15
 40000000 000000000772 CHRO           *15
 40000000 000000007640 CHRTP          *15
 40000000 000000001043 CIAC           *15
 40000000 000000000012 CIAWS          *15
 40000000 000000001051 CIBSI          *15
 40000000 000000000516 CIND           *15
 40000000 000000001041 CINVSZ         *15
 40000000 000000001042 CIPG           *15
 40000000 000000001050 CIPSI          *15
 40000000 000000000000 CIRUN          *15
 40000000 000000000002 CIRWS          *15
 40000000 000000000002 CISWS          *15
 40000000 000000000014 CIWSOF         *15
 01101000 000000000045 CKSAN           63       *77
 40000000 000000303374 CKSM           *15
 40000000 000000000022 CLCN           *15
 40000000 000000000023 CLCP           *15
 40000000 000000000003 CLCRC          *15
 40000000 000000000003 CLCSC          *15
 40000000 000000000237 CLI            *15
 40000000 000000000026 CLNG           *15
 40000000 000000000052 CMPL           *15
 12:42 09/05/97  FILE=ZIM$DBDP.:ZIC0TSI       SYMBOL TABLE                                               17   BMAP - B00
 40000000 000000000002 CN             *15
 40000000 000000303315 CNE1           *15
 40000000 000000006034 CNUL           *15
 40000000 000000100000 COB74          *15
 40000000 000000000001 COFS           *15
 40000000 000000000045 CONCD          *15
 40000000 000000007764 CP6PGSZB       *15
 41000000 000000001775 CP6PGSZW       *15
 40000000 000000001000 CPGR           *15
 40000000 000000000723 CPTRN          *15
 40000000 000000000723 CPTRO          *15
 60000000 000000000004 CPW            *15
 40000000 000000000112 CRA            *15
 40000000 000000001004 CRD            *15
 40000000 000000000764 CREC           *15
 40000000 000000006344 CRIT           *15
 40000000 000000006200 CRNUL          *15
 40000000 000000007330 CRST           *15
 41000000 000000001223 CRUN           *15
 41000000 000000000000 CSECT          *15
 40000000 000000000007 CSMPP          *15
 40000000 000000001000 CSPAC          *15
 40000000 000000000004 CSPAH          *15
 40000000 777777777776 CSPES          *15
 40000000 777777777776 CSPSB          *15
 40000000 000000000115 CSTS           *15
 40000000 000000000071 CSUB           *15
 40000000 000000000017 CSZ            *15
 40000000 000000000057 CTMASK         *15
 40000000 000000000774 CTPAI          *15
 40000000 000000000240 CURLN          *15
 40000000 000000000236 CURLT          *15
 40000000 000000000770 CURPG          *15
 40000000 000000000001 CURR           *15
 40000000 000000000035 CURRS          *15
 40000000 000000000037 CURSS          *15
 40000000 000000001005 CWRT           *15
 12:42 09/05/97  FILE=ZIM$DBDP.:ZIC0TSI       SYMBOL TABLE                                               18   BMAP - B00
 40000000 000000000237 CWSOF          *15
 60000000 000000000001 D              *15
 40000000 000000000003 DBAN           *15
 40000000 000000000036 DBDR           *15
 40000000 000000000037 DBFN           *15
 40000000 000000000754 DBK            *15
 40000000 000000000777 DBKAC          *15
 40000000 000000000000 DBKEY          *15
 40000000 000000000000 DBKL           *15
 40000000 000000007474 DBKN           *15
 41000000 000000000776 DBKR           *15
 40000000 000000000777 DBKRQ          *15
 40000000 000000000234 DBKSI          *15
 40000000 000000000651 DBKSR          *15
 40000000 000000000047 DBKYN          *15
 40000000 000000210652 DBLC01         *15
 40000000 000000210653 DBLC05         *15
 40000000 000000303334 DBLC07         *15
 41000000 000000210655 DBLD01         *15       144
 40000000 000000000010 DBLIM          *15
 40000000 000000000033 DBPKY          *15
 40000000 000000000023 DBRN           *15
 40000000 000000000013 DBSN           *15
 40000000 000000000001 DBST           *15
 40000000 000000000757 DCDSR          *15
 40000000 000000210650 DCE1           *15
 40000000 000000001053 DCPR           *15
 40000000 000000001053 DCPW           *15
 40000000 000000000015 DCTBL          *15
 40000000 000000000032 DDBK           *15
 40000000 000000000006 DDCB           *15
 40000000 000000011754 DDI            *15
 41000000 000000000000 DEF            *15        28        49        65
 40000000 000000000014 DEF2           *15
 40000000 000000303413 DELAK          *15
 40000000 000000000036 DELRS          *15
 40000000 000000000732 DEPCW          *15
 12:42 09/05/97  FILE=ZIM$DBDP.:ZIC0TSI       SYMBOL TABLE                                               19   BMAP - B00
 40000000 000000303414 DLDBK          *15
 40000000 000000210627 DLE1           *15
 40000000 000000303310 DLE2           *15
 40000000 000000210631 DLE3           *15
 40000000 000000016040 DNES           *15
 40000000 777777777777 DPAGN          *15
 01101000 000000000110 DPIR1          148       157      *159
 40000000 000000000020 DPPI           *15
 40000000 000000000053 DPSLW          *15
 40000000 000000000003 DS             *15
 40000000 000000001063 DSDES          *15
 40000000 000000303316 DSE1           *15
 40000000 000000000735 DUSEPA         *15
 60000000 000000000001 E              *15
 40000000 000000303251 EDPER          *15
 40000000 000000000026 EEIND          *15
 40000000 000000000713 EFIND          *15
 40000000 000000001030 ELO            *15
 40000000 000000210711 ENCPNA         *15
 40000000 000000000007 ENCRP          *15
 40000000 000000000752 ENDSR          *15
 40000000 000000210647 ENE1           *15
 40000000 000000000716 ENIND          *15
 40000000 000000000013 ENTBL          *15
 40000000 000000000710 ENTNO          *15
 40000000 000000000712 ENTPTR         *15
 40000000 000000000717 ENTSZ          *15
 40000000 000000000711 ENTTYP         *15
 40000000 000000004064 EOSR           *15
 40000000 000000000004 ES             *15
 41000000 000000000100 ESTSZ          *15
 40000000 000000000725 ESZ            *15
 40000000 000000000005 ETCADR         *15
 40000000 000000000005 ETCDBNO        *15
 40000000 000000000064 EXCCD          *15
 00101000 000000000012 FAIDF          *44
 40000000 000000234534 FALRT          *15
 12:42 09/05/97  FILE=ZIM$DBDP.:ZIC0TSI       SYMBOL TABLE                                               20   BMAP - B00
 40000000 000000001055 FBF72          *15
 40000000 000000001025 FBU61          *15
 40000000 000000001020 FBUF           *15
 40000000 000000001026 FBUF1          *15
 40000000 000000001027 FBUF4          *15
 40000000 000000001024 FBUF6          *15
 40000000 000000001022 FBUFM          *15
 40000000 000000001021 FBUFU          *15
 40000000 000000001023 FBUMD          *15
 40000000 000000000004 FCN            *15
 40000000 000000000051 FCNT           *15
 40000000 000000000002 FCP            *15
 40000000 000000000047 FCSS           *15
 40000000 000000000005 FD             *15
 40000000 000000210637 FDE1           *15
 40000000 000000303320 FDE2           *15
 40000000 000000303321 FDE3           *15
 40000000 000000210642 FDE4           *15
 40000000 000000210643 FDE5           *15
 40000000 000000210644 FDE6           *15
 40000000 000000303325 FDE7           *15
 40000000 000000303326 FDE8           *15
 40000000 000000000021 FEASZ          *15
 40000000 000000000740 FETM           *15
 40000000 000000000006 FI             *15
 40000000 000000000103 FIAC           *15
 41000000 000000001100 FIB1           *15
 41000000 000000001130 FIBP           *15
 40000000 000000000000 FIBX           *15
 40000000 000000000102 FICNT          *15
 40000000 000000000005 FIPN           *15
 40000000 000000000054 FKIND          *15
 40000000 000000000015 FLAGS          *15
 40000000 000000000244 FLDDSC         *15
 40000000 000000000046 FLDTL          *15
 40000000 000000000020 FMSBF          *15
 40000000 000000000006 FNAM           *15
 12:42 09/05/97  FILE=ZIM$DBDP.:ZIC0TSI       SYMBOL TABLE                                               21   BMAP - B00
 40000000 000000000250 FNIND          *15
 40000000 000000000004 FNL            *15
 40000000 000000000101 FRAC           *15
 40000000 000000000002 FRANGE         *15
 40000000 000000211400 FRDNL          *15
 40000000 000000200000 FRTRN          *15
 40000000 000000000005 FRWSO          *15
 40000000 000000000767 FSLN           *15
 40000000 000000000766 FSOF           *15
 40000000 000000000060 FTIND          *15
 40000000 000000303240 FTLINCR        *15
 40000000 000000000021 FWSSZ          *15
 40000000 000000000246 GACDK          *15
 40000000 000000000014 GDCB           *15
 40000000 000000000006 GERROR         *15
 40000000 000000000016 GINHIB         *15
 40000000 000000000020 GIOAWS         *15
 40000000 000000000022 GIOBUF         *15
 40000000 000000000021 GIOPGNO        *15
 40000000 000000000015 GPAGE          *15
 40000000 000000000010 GRETAC         *15
 40000000 000000000011 GRETFR         *15
 40000000 000000000013 GRETRC         *15
 40000000 000000000012 GRETSC         *15
 40000000 000000000025 GRLCW          *15
 40000000 000000000014 GSTCD          *15
 40000000 000000000007 GSYSERR        *15
 40000000 000000000010 GT             *15
 40000000 000000000046 GTRNAME        *15
 40000000 000000000055 GTRPDCB        *15
 40000000 000000000056 GTRPNO         *15
 40000000 000000000057 GTRRDBK        *15
 40000000 000000000060 GTRRTYPE       *15
 40000000 000000000060 GTRTYPE        *15
 40000000 000000000027 HASH           *15
 40000000 000000000022 HIA            *15
 40000000 000000000775 HIDB           *15
 12:42 09/05/97  FILE=ZIM$DBDP.:ZIC0TSI       SYMBOL TABLE                                               22   BMAP - B00
 40000000 000000000003 HIGHDBK        *15
 40000000 000000000004 HIGHPG         *15
 40000000 000000001037 HIL            *15
 40000000 000000000002 HILN           *15
 40000000 000000000006 HPOS           *15
 40000000 000000000756 IAAC           *15
 40000000 000000001011 IACLN          *15
 40000000 000000001010 IALC           *15
 41000000 000000010314 IAN            *15        96
 40000000 000000001012 IANLN          *15
 40000000 000000000001 IASID          *14
 40000000 000000020320 ICA            *15
 40000000 000000000023 ICKSMP         *15
 40000000 000000000024 ICKSMV         *15
 40000000 000000210742 ICNR           *15
 41000000 000000000020 ICSIZ          *15
 40000000 000000010004 IDBK           *15
 40000000 000000012120 IDI            *15
 40000000 000000000023 IDS            *15
 40000000 000000000011 IF             *15
 40000000 000000000021 IFIPN          *15
 40000000 000000000000 IFR            *15
 40000000 000000234546 IKSEQ          *15
 40000000 000000000113 INAFLAG        *15
 40000000 000000000016 INCHA          *15
 40000000 000000210566 INNM           *15
 40000000 000000210567 INSS           *15
 40000000 000000210575 INSST          *15
 40000000 000000303241 INTER          *15
 40000000 000000400000 INTII          *15
 40000000 000000000013 INTVL          *15
 40000000 000000001060 INVFLG         *15
 40000000 000000001043 INVOF          *15
 40000000 000000000014 INVT           *15
 40000000 000000000034 IOBLK          *15
 40000000 000000303354 IOCLSD         *15
 40000000 000000303355 IOCLSK         *15
 12:42 09/05/97  FILE=ZIM$DBDP.:ZIC0TSI       SYMBOL TABLE                                               23   BMAP - B00
 40000000 000000303257 IOE1           *15
 40000000 000000303264 IOE11          *15
 40000000 000000303265 IOE12          *15
 40000000 000000303266 IOE18          *15
 40000000 000000303260 IOE2           *15
 40000000 000000303261 IOE3           *15
 40000000 000000303262 IOE7           *15
 40000000 000000303263 IOE8           *15
 40000000 000000303363 IOFLSH         *15
 40000000 000000210676 IOGDCB         *15
 40000000 000000001002 IOINC          *15
 40000000 000000305160 IOINI          *15
 40000000 000000305155 IONOTIDS       *15
 40000000 000000305154 IONOTKEY       *15
 40000000 000000210677 IOOPND         *15
 40000000 000000210700 IOOPNK         *15
 40000000 000000303361 IORDD          *15
 40000000 000000305156 IOSCHEMA       *15
 40000000 000000001052 IOSTS          *15
 40000000 000000303362 IOWRTD         *15
 41000000 000000000750 IOWS           *15
 40000000 000000000647 IPC            *15
 40000000 000000000650 IPCF           *15
 40000000 000000000006 IROLLFLAG      *15
 40000000 000000010150 IRSN           *15
 40000000 000000000004 ISYSDCB        *15
 40000000 000000000005 ISYSERR        *15
 40000000 000000000061 ITPTR          *15
 40000000 000000000060 ITRS           *15
 40000000 000000021760 IUM            *15
 40000000 000000000017 IUSZ           *15
 40000000 000000234522 IVDBK          *15
 40000000 000000000011 IXBUF$         *15
 40000000 000000000046 IXFBSZ         *15
 40000000 777777777776 IXID           *15
 40000000 777777777777 IXPLL          *15
 40000000 000000000523 KCARG0         *15
 12:42 09/05/97  FILE=ZIM$DBDP.:ZIC0TSI       SYMBOL TABLE                                               24   BMAP - B00
 40000000 000000000524 KCARG3         *15
 40000000 000000000525 KCARG4         *15
 40000000 000000000700 KCREG          *15
 40000000 000000000006 KDCB           *15
 40000000 000000000666 KEYDS          *15
 40000000 000000000010 KEYPA          *15
 40000000 777777777776 KLNG           *15
 40000000 000000000022 KPASZ          *15
 40000000 000000000006 KWSZ           *15
 40000000 000000000052 LANGC          *15
 40000000 000000001014 LAS            *15
 40000000 000000700000 LCODM          *15
 40000000 000000001045 LDPSI          *15
 40000000 000000001071 LINPT          *15
 40000000 000000001017 LNCNT          *15
 40000000 000000000762 LNNO           *15
 40000000 000000001036 LOL            *15
 40000000 000000000715 LOLIM          *15
 01101000 000000000013 LP1            *46        52
 01101000 000000000025 LP2            *58        73        82
 40000000 000000000023 LPASZ          *15
 40000000 000000000012 LPP            *15
 40000000 000000257764 LR             *15
 40000000 000000301270 LRA            *15
 40000000 000000000017 LRSZ           *15
 40000000 000000001035 LSPC           *15
 40000000 000000000750 LUPD           *15
 61000000 000000000001 M9             *15
 00101000 000000000107 MAE1          *155
 00101000 000000000107 MAE2          *156
 01101000 000000000073 MAR1            94        99       105       110      *114
 40000000 000000000013 MD             *15
 40000000 000000300000 MDQS           *15
 40000000 000000000730 MEMPTR         *15
 40000000 000000000727 MEMTYP         *15
 40000000 000000000045 MODCD          *15
 41000000 000000001207 MODFL          *15
 12:42 09/05/97  FILE=ZIM$DBDP.:ZIC0TSI       SYMBOL TABLE                                               25   BMAP - B00
 40000000 000000000042 MODFR          *15
 40000000 000000000044 MODIN          *15
 40000000 000000000044 MODRS          *15
 40000000 000000000043 MODSC          *15
 40000000 000000000047 MRBKI          *15
 40000000 000000210632 MRE4           *15
 40000000 000000303313 MRE5           *15
 40000000 000000210634 MRE7           *15
 40000000 000000400000 MW             *15
 40000000 000000000025 NCH            *15
 40000000 000000000002 NCHA           *15
 40000000 000000000005 NCHRS          *15
 40000000 000000000014 NDCD           *15
 40000000 000000000012 NENC           *15
 40000000 000000000634 NEW            *15
 40000000 000000001072 NEWSIZ         *15
 40000000 000000235164 NKA            *15
 40000000 000000235020 NKDB           *15
 40000000 000000303415 NLDBK          *15
 40000000 777777777777 NLIND          *15
 40000000 000000001040 NLN            *15
 40000000 000000400000 NLNSA          *15
 41000000 000000001053 NOBF           *15
 40000000 000000000711 NOPTRS         *15
 40000000 000000000742 NPARCW         *15
 40000000 000000000630 NPIND          *15
 40000000 000000000004 NPOS           *15
 40000000 000000234510 NSA            *15
 40000000 000000234654 NSCS           *15
 40000000 000000234344 NSDB           *15
 40000000 000000000001 NSTS           *15
 40000000 000000000726 NUMENT         *15
 40000000 000000000727 NUMPTR         *15
 40000000 777777777760 NXBUF          *15
 40000000 000000000713 NXPRI          *15
 40000000 000000000771 NXTC           *15
 40000000 000000000001 OAACN          *15
 12:42 09/05/97  FILE=ZIM$DBDP.:ZIC0TSI       SYMBOL TABLE                                               26   BMAP - B00
 40000000 000000000022 OACIWSOF       *15
 40000000 000000000001 OAOFST         *15
 40000000 000000000002 OARCN          *15
 40000000 000000000001 OASCN          *15
 40000000 000000000014 OD             *15
 40000000 000000000074 ODBK           *15
 40000000 000000001072 OLDSIZ         *15
 40000000 000000000101 OPADP          *15
 40000000 000000000741 OPARCW         *15
 40000000 000000210570 ORDNI          *15
 40000000 777777777777 OTVL           *15
 40000000 000000000252 OWNPTR         *15
 40000000 000000000016 PABUF          *15
 40000000 000000001041 PACD           *15
 40000000 000000000001 PACW           *15
 40000000 000000000733 PADBK          *15
 40000000 000000000740 PADUP          *15
 40000000 000000000745 PAEN           *15
 40000000 000000000745 PAEO           *15
 40000000 000000000734 PAEOF          *15
 40000000 000000303336 PAER1          *15
 40000000 000000303337 PAER2          *15
 40000000 000000303340 PAER3          *15
 40000000 000000303341 PAER4          *15
 40000000 000000303342 PAER5          *15
 40000000 000000303343 PAER6          *15
 40000000 000000000747 PAESZ          *15
 40000000 000000001060 PAFLG          *15
 40000000 000000000731 PAOPTR         *15
 40000000 000000000734 PAPOF          *15
 40000000 000000000714 PARCW          *15
 40000000 000000000726 PARVPA         *15
 40000000 000000000724 PASPLT         *15
 40000000 000000000004 PAWSZ          *15
 40000000 777777777762 PBUF           *15
 40000000 000000000020 PC             *15
 41000000 000000000510 PCB            *15
 12:42 09/05/97  FILE=ZIM$DBDP.:ZIC0TSI       SYMBOL TABLE                                               27   BMAP - B00
 40000000 000000000642 PCD            *15
 40000000 000000000642 PCD2           *15
 40000000 000000000247 PCEXI          *15
 40000000 000000000675 PCMIN          *15
 40000000 000000004541 PCOMP          *15
 40000000 000000000010 PD             *15
 40000000 000000000040 PE             *15
 40000000 000000000017 PENDING        *15
 40000000 000000000004 PF             *15
 40000000 000000000400 PFG            *15
 40000000 000000000200 PFM            *15
 40000000 000000000100 PFS            *15
 40000000 000000000400 PG             *15
 40000000 000000001064 PGHD           *15
 40000000 000000000006 PGLIM          *15
 40000000 000000000003 PGRNG          *15
 40000000 000000000746 PGSIZE         *15
 40000000 000000000641 PGSPLT         *15
 01101000 000000000010 PIKA            30       *40
 41000000 000000000100 PKAW           *15        41        45        53        55        69        78
                                       93       104
 40000000 000000001034 PLO            *15
 40000000 000000000004 PLSEP          *15
 40000000 000000000200 PM             *15
 40000000 000000001054 PNEOO          *15
 40000000 000000001047 POFSI          *15
 40000000 000000000005 PPOS           *15
 40000000 000000000000 PR0            *14
 41000000 000000000001 PR1            *14        57
 40000000 000000000002 PR2            *14
 40000000 000000000003 PR3            *14
 40000000 000000000004 PR4            *14
 40000000 000000000005 PR5            *14
 41000000 000000000006 PR6            *14        28        34        35        47        49        59
                                       61        65        71        72        80        81
 41000000 000000000007 PR7            *14        27        36        41        42        45        53
                                       55        62        69        75        78        84        93
 12:42 09/05/97  FILE=ZIM$DBDP.:ZIC0TSI       SYMBOL TABLE                                               28   BMAP - B00
                                      104
 40000000 000000303267 PRE1           *15
 40000000 000000303277 PRE10          *15
 40000000 000000303270 PRE3           *15
 40000000 000000303271 PRE4           *15
 40000000 000000303272 PRE5           *15
 40000000 000000210613 PRE6           *15
 40000000 000000210614 PRE7           *15
 40000000 000000210615 PRE8           *15
 40000000 000000303276 PRE9           *15
 00101000 000000000072 PRER1         *109
 40000000 000000000522 PREXC          *15
 40000000 000000000521 PRFR           *15
 40000000 000000000521 PRFR2          *15
 40000000 000000000000 PRIV           *15
 40000000 000000000526 PROPA          *15
 40000000 000000000517 PRRC           *15
 00101000 000000000065 PRRJ          *100
 40000000 000000000517 PRRS           *15
 40000000 000000000520 PRSC           *15
 40000000 000000000516 PRSS           *15
 40000000 000000000644 PRSTS          *15
 40000000 000000000100 PS             *15
 41000000 000000000000 PS0SID         *14
 41000000 000000000001 PS1SID         *14
 41000000 000000000002 PS2SID         *14
 41000000 000000000003 PS3SID         *14
 41000000 000000000004 PS4SID         *14
 40000000 000000000005 PS5SID         *14
 40000000 000000000006 PS6SID         *14
 40000000 000000303416 PSA            *15
 40000000 000000000020 PSC            *15
 40000000 000000000010 PSD            *15
 40000000 000000000004 PSF            *15
 40000000 000000000400 PSO            *15
 40000000 000000000720 PTESZ          *15
 40000000 000000000631 PTR            *15
 12:42 09/05/97  FILE=ZIM$DBDP.:ZIC0TSI       SYMBOL TABLE                                               29   BMAP - B00
 40000000 000000000724 PTRESZ         *15
 40000000 000000000710 PTRNO          *15
 41000000 000000000630 PWS            *15
 40000000 000000000002 RADDR          *15
 40000000 000000000010 RADIX          *15
 40000000 000000000005 RAPTR          *15
 40000000 000000000004 RAWSOF         *15
 40000000 777777777766 RBA            *15
 40000000 000000023432 RCBI           *15
 40000000 000000211234 RCDNL          *15
 40000000 000000000005 RCFRH          *15
 41000000 000000000004 RCFRN          *15        47
 40000000 000000001075 RCHD           *15
 40000000 000000000001 RCID           *15
 40000000 000000000006 RCPTR          *15
 40000000 000000000002 RCRAH          *15
 41000000 000000000001 RCRAN          *15        34        59
 40000000 000000000003 RCRSH          *15
 40000000 000000000002 RCRSN          *15
 40000000 000000210667 RCVER1         *15
 40000000 000000210670 RCVER2         *15
 40000000 000000210671 RCVER4         *15
 40000000 000000210672 RCVER5         *15
 40000000 000000210673 RCVER6         *15
 40000000 000000000736 RCW1           *15
 40000000 000000000737 RCW2           *15
 40000000 000000000004 RCWSO          *15
 40000000 000000000077 RDAC           *15
 40000000 000000000076 RDCNT          *15
 40000000 000000040000 RDI            *15
 40000000 000000015674 RDLT           *15
 40000000 000000000075 RDYCW          *15
 40000000 000000000066 RECAC          *15
 40000000 000000000065 RECFR          *15
 40000000 000000000070 RECRC          *15
 40000000 000000000067 RECSC          *15
 40000000 000000000003 RECSZ          *15
 12:42 09/05/97  FILE=ZIM$DBDP.:ZIC0TSI       SYMBOL TABLE                                               30   BMAP - B00
 40000000 000000000235 REMLT          *15
 40000000 000000000062 REM_RECOVER    *15
 40000000 000000000251 RETFR          *15
 40000000 000000210724 RFDNL          *15
 40000000 000000017644 RIM            *15
 40000000 000000000005 RNAM           *15
 40000000 000000015706 RNDLT          *15
 40000000 000000000662 RNG1           *15
 40000000 000000000664 RNG2           *15
 40000000 000000000073 RNGD           *15
 40000000 000000000072 RNGO           *15
 40000000 000000000660 RNGTAL         *15
 40000000 000000020154 RNM            *15
 40000000 000000000041 ROCUR          *15
 40000000 000000000001 ROFST          *15
 40000000 000000002114 ROLL           *15
 40000000 000000020010 RPM            *15
 40000000 000000000001 RSCDH          *15
 40000000 000000000001 RSCDN          *15
 40000000 000000211710 RSDNL          *15
 40000000 000000004540 RSEE           *15
 40000000 000000000003 RSIZ           *15
 40000000 000000000110 RSPAM          *15
 40000000 000000000004 RSPTR          *15
 40000000 000000000037 RSREQ          *15
 40000000 000000000002 RSSSH          *15
 40000000 000000000001 RSSSN          *15
 40000000 000000210574 RSZER          *15
 40000000 000000000632 RSZTP          *15
 40000000 000000000003 RTP            *15
 40000000 000000000003 RTYP           *15
 40000000 000000000530 RV1            *15
 40000000 000000000550 RV2            *15
 40000000 000000000570 RV3            *15
 40000000 000000000610 RV4            *15
 40000000 000000000003 RVASID         *14
 40000000 000000000510 RVI            *15
 12:42 09/05/97  FILE=ZIM$DBDP.:ZIC0TSI       SYMBOL TABLE                                               31   BMAP - B00
 40000000 000000000511 RVO            *15
 40000000 000000000513 RVPA           *15
 40000000 000000000512 RVT            *15
 40000000 000000000022 RVTAL          *15
 40000000 000000000002 RWSZ           *15
 40000000 000000000015 RY             *15
 40000000 000000210620 RYE1           *15
 40000000 000000210621 RYE4           *15
 40000000 777777777767 SA             *15
 41000000 000000000005 SANAM          *15        80
 40000000 000000001062 SCDES          *15
 40000000 000000211544 SCDNL          *15
 40000000 000000000024 SCFC           *15
 40000000 000000000002 SCID           *15
 40000000 000000000024 SCLST          *15
 40000000 000000000004 SCNAM          *15
 40000000 000000000004 SCPTR          *15
 40000000 000000000003 SCRSH          *15
 40000000 000000000002 SCRSN          *15
 40000000 000000000001 SCWSO          *15
 40000000 000000001225 SFWS           *15
 40000000 000000001073 SIZCHG         *15
 40000000 000000000645 SKFLG          *15
 40000000 000000000643 SKIND          *15
 40000000 000000000641 SKTYP          *15
 40000000 000000020464 SMCR           *15
 40000000 000000000003 SNAM           *15
 41000000 000000000107 SNIND          *15        42        62
 40000000 000000000735 SNPAE          *15
 40000000 000000001046 SNSI           *15
 40000000 000000000743 SOE            *15
 40000000 000000020630 SORSA          *15
 40000000 000000004374 SOSE           *15
 40000000 000000000000 SPAV           *15
 40000000 000000000744 SPCAVN         *15
 40000000 000000000744 SPCAVO         *15
 40000000 000000000765 SPLF           *15
 12:42 09/05/97  FILE=ZIM$DBDP.:ZIC0TSI       SYMBOL TABLE                                               32   BMAP - B00
 41000000 000000000765 SPND           *15
 40000000 000000000006 SSDT           *15
 40000000 000000303243 SSER           *15
 40000000 000000303244 SSER1          *15
 40000000 000000000002 SSH            *15
 40000000 000000000005 SSNAM          *15
 40000000 000000210573 SSNF           *15
 40000000 000000210576 SSNV           *15
 40000000 000000000020 SSSPTR         *15
 40000000 000000000010 SSVDT          *15
 40000000 000000000033 SSZTP          *15
 40000000 000000000017 ST             *15
 40000000 000000000104 STBIN          *15
 40000000 000000000105 STDEC          *15
 40000000 000000303302 STE1           *15
 40000000 000000303303 STE2           *15
 40000000 000000210624 STE3           *15
 40000000 000000303305 STE4           *15
 40000000 000000303306 STE5           *15
 41000000 000000000100 STKSIZ         *15
 40000000 000000000055 STMASK         *15
 40000000 000000000062 SUST           *15
 41000000 000000000020 SWS            *15
 40000000 000000000000 SWSAC          *15
 40000000 000000000002 SWSZ           *15
 40000000 000000000000 SYSSF          *15
 40000000 000000000765 SZREQ          *15
 40000000 000000000004 TBUF           *15
 40000000 000000001061 TCTRS          *15
 60000000 000000000000 TDS            *15
 41000000 000000000113 TEMP           *15
 40000000 000000000640 TFLD           *15
 40000000 000000000657 TFLD2          *15
 40000000 000000000056 TMASK          *15
 40000000 000000000061 TMODE          *15
 40000000 000000000676 TMPPA          *15
 40000000 000000000003 TPAI           *15
 12:42 09/05/97  FILE=ZIM$DBDP.:ZIC0TSI       SYMBOL TABLE                                               33   BMAP - B00
 40000000 000000500000 TPRCOD         *15
 40000000 000000001031 TSFN           *15
 40000000 000000000021 TSI            *15
 40000000 000000001013 UBRD2          *15
 41000000 000000001223 UBSZ           *15
 40000000 000000000667 UCADR          *15
 40000000 000000000036 UCRS           *15
 40000000 000000000024 UFSPK          *15
 40000000 000000000024 UFSPK2         *15
 40000000 000000000715 ULIM           *15
 40000000 000000004230 UNA            *15
 40000000 000000303417 UNIM           *15
 41000000 000000000002 UOFST          *15        72        81
 40000000 000000001035 UPACD          *15
 40000000 000000000721 UPACW          *15
 40000000 000000000007 UPFLAG         *15
 40000000 000000000103 UPPAI          *15
 40000000 000000000004 UPTSID         *14
 40000000 000000000674 USTAT          *15
 41000000 000000000002 UWASID         *14        57
 40000000 000000000002 UWSSZ          *15
 40000000 000000000020 UWSZ           *15
 40000000 000000000243 VFDSC          *15
 40000000 000000001070 VFDSR          *15
 40000000 000000000656 VFLD           *15
 40000000 000000001074 VFLNG          *15
 40000000 000000001124 VIB1           *15
 40000000 000000001154 VIBP           *15
 40000000 000000000000 VLPSID         *14
 40000000 000000001074 VRSIZ          *15
 40000000 000000001067 WLOA           *15
 40000000 000000100000 WRTI           *15
 40000000 000000000000 WSBID          *15
 40000000 000000000003 WSOF           *15
 41000000 000000000000 X0             *14        35        61        91        97       102       145
 41000000 000000000001 X1             *14        27        28        29        36        69        75
                                       78        84
 12:42 09/05/97  FILE=ZIM$DBDP.:ZIC0TSI       SYMBOL TABLE                                               34   BMAP - B00
 40000000 000000000002 X2             *14
 40000000 000000000003 X3             *14
 41000000 000000000004 X4             *14        34        45        47        53        56        59
 40000000 000000000005 X5             *14
 41000000 000000000006 X6             *14        92        98       103       146
 03201001 000000000000 X66_ARET       *14       125
 03201000 000000000000 X66_AUTO_0     *14       123       137
 41000000 000000000007 X7             *14        41        55        93       104       147
 40000000 000000210665 XASL           *15
 40000000 000000303420 XLD            *15
 40000000 000000303421 XPD            *15
 40000000 000000000676 XPRS           *15
 40000000 000000210666 XROLL          *15
 40000000 000000210664 XUNEX          *15
 40000000 777777777777 XXDPN          *15
 03201003 000000000000 ZIB$DBALT     *139      *160
 03201002 000000000000 ZIB$ICALT     *115
 12101000 000000000077 ZIG$DBDPI       11      *136
 12101000 000000000074 ZIG$DBECK       12      *122
 12101000 000000000102 ZIG$DBNPF       13      *143
 12101000 000000000000 ZIQ$DBMAS       10       *26

     941 SYMBOLS

 12:42 09/05/97  FILE=ZIM$DBDP.:ZIC0TSI       MACRO TABLE                                                35   BMAP - B00
 CBSYM           15
 DBALT          139       160
 DBRET          125
 DBSAV          123       137
 ICALT          115
 ICRET           36        75        84
 ICSAV           27
 Q2SYM           15
 SSSYM           15

      37 MACROS

    SYMBOL SPACE USED  8886 WORDS
     MACRO SPACE USED 13043 WORDS
   INPUT RECORDS READ  2124
 STATEMENTS PROCESSED  2024
         ELAPSED TIME  0:10.32
             CPU TIME     9.31 SEC.
        ASSEMBLY RATE 13044 STATEMENTS/CPU MIN.

      NO ERRORS

