
 12:42 09/05/97  FILE=ZIM$DBED.:ZIC0TSI                                                                  1    BMAP - B00
                                         1  *M*      ZIG$DBED
                                         2  *T***********************************************************
                                         3  *T*                                                         *
                                         4  *T* Copyright (c) Bull HN Information Systems Inc., 1997    *
                                         5  *T*                                                         *
                                         6  *T***********************************************************

 12:42 09/05/97  FILE=ZIM$DBED.:ZIC0TSI       H6600H2.531     IDS/II ENCODE/DECODE ROUTINES  771213DBED  2    BMAP - B00
                                         7         TTL     H6600H2.531     IDS/II ENCODE/DECODE ROUTINES  771213DBED
                                         8         CPR     1974
                                         9         PMC     OFF
                                        10           ENTDEF   ZIG$DBECD,ZIG$DBDCD
                                        11         ENTREF  ZIG$DBDPI
                                        12         LODM    Q2MA
                                        13         Q2SYM

 12:42 09/05/97  FILE=ZIM$DBED.:ZIC0TSI       ENCODE ROUTINES                                            3    BMAP - B00
                                        14         TTLS    ENCODE ROUTINES
                                        15  *
                                        16  *  ENCODE ROUTINES
                                        17  *  MOVE UWA FIELD TO REC
                                        18  *
                                        19  *  INPUT :     X4 = FR DEF PTR FOR FIELD
                                        20  *                 PS1 = ADDR OF UWA
                                        21  *              PR3= ADDR OF REC BUF TO MOVE TO
                                        22  *
                                        23  *  EXCEPTION RETURN-
                                        24  *    NONE
                                        25  *  ERROR RETURN-
                                        26  *    CODE IN AR
                                        27  *
                                        28  *
                                        29  *  ENCODE ERROR - ILLEGAL CONVERSION SPECIFIED
                                        30  *
 0 000000                               31  ZIG$DBECD NULL
   000000    7 00470 7411 56            32           ICSAV
   000001    000002 4714 07             33         LDP    PR1,UWASID,DL            UWA$
   000002    6 00000 2211 14            34           LDX      X1,DEF,X4,PR6     ENCODE ROUTINE NUMBER
   000003    000077 3610 03             35           ANX      X1,.ENDX,DU       MASK OUT GARBAGE
   000004    000055 1010 03             36           CMPX     X1,45,DU          MAX NUMBER OF ENCODES
   000005 (0)001126 6030 00             37           TRC      BEDX              TOO LARGE. ERROR
   000006 (0)000007 7100 11             38           TRA      *+1,X1            GO TO RIGHT ROUTINE
   000007 (0)000064 7100 00             39           TRA      ZIG$DBE00
   000010 (0)000065 7100 00             40           TRA      ZIG$DBE01
   000011 (0)000072 7100 00             41           TRA      ZIG$DBE02
   000012 (0)000107 7100 00             42           TRA      ZIG$DBE03
   000013 (0)000114 7100 00             43           TRA      ZIG$DBE04
   000014 (0)000124 7100 00             44           TRA      ZIG$DBE05
   000015 (0)000141 7100 00             45           TRA      ZIG$DBE06
   000016 (0)000156 7100 00             46           TRA      ZIG$DBE07
   000017 (0)000166 7100 00             47           TRA      ZIG$DBE08
   000020 (0)000206 7100 00             48           TRA      ZIG$DBE09
   000021 (0)000217 7100 00             49           TRA      ZIG$DBE10
   000022 (0)000230 7100 00             50           TRA      ZIG$DBE11
 12:42 09/05/97  FILE=ZIM$DBED.:ZIC0TSI       ENCODE ROUTINES                                            4    BMAP - B00
   000023 (0)000246 7100 00             51           TRA      ZIG$DBE12
   000024 (0)000260 7100 00             52           TRA      ZIG$DBE13
   000025 (0)000260 7100 00             53           TRA      ZIG$DBE14
   000026 (0)000274 7100 00             54           TRA      ZIG$DBE15
   000027 (0)000274 7100 00             55           TRA      ZIG$DBE16
   000030 (0)000305 7100 00             56           TRA      ZIG$DBE17
   000031 (0)000305 7100 00             57           TRA      ZIG$DBE18
   000032 (0)000322 7100 00             58           TRA      ZIG$DBE19
   000033 (0)000344 7100 00             59           TRA      ZIG$DBE20
   000034 (0)000064 7100 00             60           TRA      ZIG$DBE00
   000035 (0)000365 7100 00             61           TRA      ZIG$DBE22
   000036 (0)000372 7100 00             62           TRA      ZIG$DBE23
   000037 (0)000400 7100 00             63           TRA      ZIG$DBE24
   000040 (0)000411 7100 00             64           TRA      ZIG$DBE25
   000041 (0)000427 7100 00             65           TRA      ZIG$DBE26
   000042 (0)000427 7100 00             66           TRA      ZIG$DBE27
   000043 (0)000441 7100 00             67           TRA      ZIG$DBE28
   000044 (0)000454 7100 00             68           TRA      ZIG$DBE29
   000045 (0)000512 7100 00             69           TRA      ZIG$DBE30
   000046 (0)000530 7100 00             70           TRA      ZIG$DBE31
   000047 (0)000547 7100 00             71           TRA      ZIG$DBE32
   000050 (0)000562 7100 00             72           TRA      ZIG$DBE33
   000051 (0)000567 7100 00             73           TRA      ZIG$DBE34
   000052 (0)000601 7100 00             74           TRA      ZIG$DBE35
   000053 (0)000617 7100 00             75           TRA      ZIG$DBE36
   000054 (0)000724 7100 00             76           TRA      ZIG$DBE37
   000055 (0)000765 7100 00             77           TRA      ZIG$DBE38
   000056 (0)001007 7100 00             78           TRA      ZIG$DBE39
   000057 (0)001024 7100 00             79           TRA      ZIG$DBE40
   000060 (0)001026 7100 00             80           TRA      ZIG$DBE41
   000061 (0)001044 7100 00             81           TRA      ZIG$DBE42
   000062 (0)001065 7100 00             82           TRA      ZIG$DBE43
   000063 (0)001067 7100 00             83           TRA      ZIG$DBE44

 12:42 09/05/97  FILE=ZIM$DBED.:ZIC0TSI       ENCODE ROUTINES                                            5    BMAP - B00
                                        84           EJECT
   000064                               85  ZIG$DBE00 NULL
                                        86  *
   000064 (0)001120 7100 00             87         TRA     ENER1
                                        88  *
                                        89  *  ASCII TO ASCII WITH BLANK FILL
                                        90  *
   000065                               91  ZIG$DBE01 NULL
   000065                               92  ZIG$DBNCE NULL
                                        93  *
   000065    040 0 120 1005 20          94         MLR     (1,,1),(1,,1),040,0 * MOVE FIELD FROM
   000066    6 00002 0001 14            95         ARG     UOFST,X4,PR6        *  UWA TO
   000067    6 00001 0001 14            96         ARG     ROFST,X4,PR6        *   REC BUF (WITH ASCII BL. FILL)
   000070    7 00470 2211 54            97           ICRET
   000071    000001 7100 11
                                        98  *
                                        99  *  ASCII TO DECIMAL
                                       100  *
   000072                              101  ZIG$DBE02 NULL
                                       102  *
   000072    000 0 000 1645 20         103         DBTCE   NNE02           CHECK FOR NON-NUMERIC DATA
   000073    6 00002 0001 14
   000074 (0)001251 0000 00
   000075    7 01061 0001 00
   000076 (0)001130 6070 00
   000077    6 00002 2351 14           104         LDA     UOFST,X4,PR6    GET UWA DESCR.
   000100    030000 2750 07            105         ORA     .B22+.B23,DL    SET TO NUM. UNSIGN. SCALED
   000101    7 00752 7551 00           106         STA     ENDSR,,PR7
   000102    0 000 0 1 120 3005 20     107         MVN     (1,,1),(1,,1),1     * MOVE
   000103    7 00752 0001 00           108         ARG     ENDSR,,PR7          *  ASCII IN UWA TO
   000104    6 00001 0001 14           109         ARG     ROFST,X4,PR6        *   DEC IN REC
   000105    7 00470 2211 54           110           ICRET
   000106    000001 7100 11
                                       111  *
                                       112  *  DECIMAL TO DECIMAL
                                       113  *
   000107                              114  ZIG$DBE03 NULL
 12:42 09/05/97  FILE=ZIM$DBED.:ZIC0TSI       ENCODE ROUTINES                                            6    BMAP - B00
                                       115  *
   000107    0 000 0 1 120 3005 20     116         MVN     (1,,1),(1,,1),1     * MOVE
   000110    6 00002 0001 14           117         ARG     UOFST,X4,PR6        *  DEC IN UWA TO
   000111    6 00001 0001 14           118         ARG     ROFST,X4,PR6        *   DEC IN REC
   000112    7 00470 2211 54           119           ICRET
   000113    000001 7100 11
                                       120  *
                                       121  *  FIXED BINARY(35) TO DECIMAL
                                       122  *
   000114                              123  ZIG$DBE04 NULL
                                       124  *
   000114    0 000 120 3015 20         125         BTD     (1,,1),(1,,1)       * CONVERT
   000115    6 00002 0001 14           126         ARG     UOFST,X4,PR6        *  BINARY IN UWA TO
   000116    7 01026 0001 00           127         ARG     FBUF1,,PR7      *   DEC IN BUF
   000117    0 000 0 1 120 3005 20     128         MVN     (1,,1),(1,,1),1     * MOVE
   000120    7 01026 0001 00           129         ARG     FBUF1,,PR7          *  DEC IN BUF TO
   000121    6 00001 0001 14           130         ARG     ROFST,X4,PR6        *   DEC IN REC
   000122    7 00470 2211 54           131           ICRET
   000123    000001 7100 11
                                       132  *
                                       133  *  IBM FIXED BINARY(15 OR 31) TO DECIMAL
                                       134  *
   000124                              135  ZIG$DBE05 NULL
                                       136  *
   000124 (0)001153 7010 00            137         ICCAL   ZIG$DBCI1,,CVE1 CONVERT TO 36 BIT NO.
   000125 (0)001132 7020 00
   000126    5 00006 2341 00
   000127    777776 6010 04
   000130    7 01007 7551 00           138         STA     B36N,,PR7       SAVE
   000131    0 000 120 3015 00         139         BTD     (1),(1,,1)          * CONVERT
   000132    7 01007 0 0 0 00 04       140         NDSC9   B36N,0,4,0,0,PR7    *  BINARY TO
   000133    7 01026 0001 00           141         ARG     FBUF1,,PR7      *   DEC IN BUF
   000134    0 000 0 1 120 3005 20     142         MVN     (1,,1),(1,,1),1     * MOVE
   000135    7 01026 0001 00           143         ARG     FBUF1,,PR7          *  DEC IN BUF TO
   000136    6 00001 0001 14           144         ARG     ROFST,X4,PR6        *   DEC IN REC
   000137    7 00470 2211 54           145           ICRET
   000140    000001 7100 11
 12:42 09/05/97  FILE=ZIM$DBED.:ZIC0TSI       ENCODE ROUTINES                                            7    BMAP - B00
                                       146  *
                                       147  *  ASCII TO FIXED BINARY (17,35 OR 71)
                                       148  *
   000141                              149  ZIG$DBE06 NULL
                                       150  *
   000141    000 0 000 1645 20         151         DBTCE   NNE06           CHECK FOR NON-NUMERIC DATA
   000142    6 00002 0001 14
   000143 (0)001251 0000 00
   000144    7 01061 0001 00
   000145 (0)001130 6070 00
   000146    6 00002 2351 14           152         LDA     UOFST,X4,PR6    GET UWA DESCR.
   000147    030000 2750 07            153         ORA     .B22+.B23,DL    CONVERT TO NUM. UNSIGNED SCALED
   000150    7 00752 7551 00           154         STA     ENDSR,,PR7
   000151    000 120 3055 20           155         DTB     (1,,1),(1,,1)       * CONVERT
   000152    7 00752 0001 00           156         ARG     ENDSR,,PR7          *  DEC IN UWA TO
   000153    6 00001 0001 14           157         ARG     ROFST,X4,PR6        *   BINARY IN REC
   000154    7 00470 2211 54           158           ICRET
   000155    000001 7100 11
                                       159  *
                                       160  *  DECIMAL TO FIXED BINARY(17,35 OR 71)
                                       161  *
   000156                              162  ZIG$DBE07 NULL
                                       163  *
   000156    0 000 0 1 120 3005 20     164         MVN     (1,,1),(1,,1),1     * MOVE
   000157    6 00002 0001 14           165         ARG     UOFST,X4,PR6        *  DEC IN UWA TO
   000160    7 01055 0001 00           166         ARG     FBF72,,PR7          *   DEC IN BUF
   000161    000 120 3055 20           167         DTB     (1,,1),(1,,1)   * CONVERT
   000162    7 01055 0001 00           168         ARG     FBF72,,PR7      *  DEC IN BUF TO
   000163    6 00001 0001 14           169         ARG     ROFST,X4,PR6    *   BINARY IN REC
   000164    7 00470 2211 54           170           ICRET
   000165    000001 7100 11
                                       171  *
                                       172  *  IBM FIXED BINARY(15 OR 31) TO FIXED BIN(17,35 OR 71)
                                       173  *
   000166                              174  ZIG$DBE08 NULL
                                       175  *
   000166 (0)001153 7010 00            176         ICCAL   ZIG$DBCI1,,CVE2 CONVERT TO 36 BIT NO.
 12:42 09/05/97  FILE=ZIM$DBED.:ZIC0TSI       ENCODE ROUTINES                                            8    BMAP - B00
   000167 (0)001132 7020 00
   000170    5 00006 2341 00
   000171    777776 6010 04
   000172    000044 7330 00            177         LRS     36              PROPOGATE SIGN TO MAKE 71 BIT
   000173    7 01056 7571 00           178         STAQ    B72N,,PR7       SAVE
   000174    6 00001 7211 14           179         LXL     X1,ROFST,X4,PR6
   000175    000002 3010 03            180         CANX    X1,.B16,DU      IS LENGTH OF RESULT 2
   000176 (0)000201 6000 00            181         TZE     *+3             YES
   000177    000022 7350 00            182         ALS     18              WILL NO. FIT IN 18 BITS
   000200 (0)001130 6030 00            183         TRC     ERE08           NO - ERROR
   000201    000 0 120 1015 00         184         MRL     (1),(1,,1)          * MOVE
   000202    7 01056 0 0 0 0010        185         ADSC9   B72N,0,8,PR7        *  BIN NO. TO
   000203    6 00001 0001 14           186         ARG     ROFST,X4,PR6        *   REC
   000204    7 00470 2211 54           187           ICRET
   000205    000001 7100 11
                                       188  *
                                       189  *  DECIMAL TO ASCII
                                       190  *
   000206                              191  ZIG$DBE09 NULL
                                       192  *
   000206    6 00001 2351 14           193         LDA     ROFST,X4,PR6    GET BUF DESCR.
   000207    030000 2750 07            194         ORA     .B22+.B23,DL    MAKE IT NUM. UNSIGNED
   000210    7 00752 7551 00           195         STA     ENDSR,,PR7
   000211    0 000 0 1 120 3005 20     196         MVN     (1,,1),(1,,1),1     * MOVE
   000212    6 00002 0001 14           197         ARG     UOFST,X4,PR6        *  DEC IN UWA TO
   000213    7 00752 0001 00           198         ARG     ENDSR,,PR7          *   REC
   000214 (0)001130 6040 00            199         TMI     LSE09           NEG - SIGN LOST
   000215    7 00470 2211 54           200           ICRET
   000216    000001 7100 11
                                       201  *
                                       202  *  FIXED BINARY(35) TO ASCII
                                       203  *
   000217                              204  ZIG$DBE10 NULL
                                       205  *
   000217    6 00001 2351 14           206         LDA     ROFST,X4,PR6    GET BUF DESCR.
   000220    030000 2750 07            207         ORA     .B22+.B23,DL    MAKE IT NUM. UNSIGNED
   000221    7 00752 7551 00           208         STA     ENDSR,,PR7
 12:42 09/05/97  FILE=ZIM$DBED.:ZIC0TSI       ENCODE ROUTINES                                            9    BMAP - B00
   000222    0 000 120 3015 20         209         BTD     (1,,1),(1,,1)       * CONVERT
   000223    6 00002 0001 14           210         ARG     UOFST,X4,PR6        *  BINARY IN UWA TO
   000224    7 00752 0001 00           211         ARG     ENDSR,,PR7          *   ASCII IN REC
   000225 (0)001130 6040 00            212         TMI     LSE10           NEG - SIGN IS LOST
   000226    7 00470 2211 54           213           ICRET
   000227    000001 7100 11
                                       214  *
                                       215  *  IBM FIXED BINARY(15 OR 31) TO ASCII
                                       216  *
   000230                              217  ZIG$DBE11 NULL
                                       218  *
   000230 (0)001153 7010 00            219         ICCAL   ZIG$DBCI1,,CVE3 CONVERT UWA TO 36 BIT NO.
   000231 (0)001132 7020 00
   000232    5 00006 2341 00
   000233    777776 6010 04
   000234    7 01007 7551 00           220         STA     B36N,,PR7       SAVE
   000235    6 00001 2351 14           221         LDA     ROFST,X4,PR6    GET BUF DESCR.
   000236    030000 2750 07            222         ORA     .B22+.B23,DL    MAKE IT NUMER. UNSIGNED
   000237    7 00752 7551 00           223         STA     ENDSR,,PR7
   000240    0 000 120 3015 00         224         BTD     (1),(1,,1)          * CONVERT
   000241    7 01007 0 0 0 00 04       225         NDSC9   B36N,0,4,0,0,PR7    *  BINARY TO
   000242    7 00752 0001 00           226         ARG     ENDSR,,PR7          *   DEC IN REC
   000243 (0)001130 6040 00            227         TMI     LSE11           NEG - SIGN IS LOST
   000244    7 00470 2211 54           228           ICRET
   000245    000001 7100 11
                                       229  *
                                       230  *  FIXED BINARY(35) TO FIXED BINARY(17)
                                       231  *
   000246                              232  ZIG$DBE12 NULL
                                       233  *
   000246    6 00002 2211 14           234         LDX     X1,UOFST,X4,PR6  GET UWA DESCR.
   000247    077777 3610 03            235         ANX     X1,=O77777,DU   REMOVE ADDR. REG. MOD.
   000250    1 00000 2361 11           236           LDQ      0,X1,PR1          GET NO. FROM UWA
   000251    000022 7360 00            237         QLS     18              WILL NO. FIT IN 18 BITS
   000252 (0)001130 6030 00            238         TRC     ERE12           NO - ERROR
   000253    000 0 120 1015 20         239         MRL     (1,,1),(1,,1)       * MOVE
   000254    6 00002 0001 14           240         ARG     UOFST,X4,PR6        *  BIN IN UWA TO
 12:42 09/05/97  FILE=ZIM$DBED.:ZIC0TSI       ENCODE ROUTINES                                            10   BMAP - B00
   000255    6 00001 0001 14           241         ARG     ROFST,X4,PR6        *   BIN IN REC
   000256    7 00470 2211 54           242           ICRET
   000257    000001 7100 11
                                       243  *
                                       244  *  UNPACKED DECIMAL OVERPUNCHED IN MSD TO FIXED BINARY(17,35 OR 71)
                                       245  *
   000260                              246  ZIG$DBE13 NULL
                                       247  *
                                       248  *  UNPACKED DECIMAL OVERPUNCHED IN LSD TO FIXED BINARY(17,35 OR 71)
                                       249  *
   000260                              250  ZIG$DBE14 NULL
                                       251  *
   000260 (0)001200 7010 00            252         ICCAL   ZIG$DBCO1,,CVE20    CONVERT O.P. NO. TO P.D. LEADING SIGN
   000261 (0)001132 7020 00
   000262    5 00006 2341 00
   000263    777776 6010 04
   000264    0 000 0 1 100 3005 20     253         MVN     (1,,1),(1),1       * MOVE
   000265    7 00757 0001 00           254         ARG     DCDSR,,PR7         *  DEC NO WITH SCALE FACTOR
   000266    7 01170 0 1 1 00 77       255         NDSC4   BUF6,0,63,1,0,PR7  *   TO DEC NO WITH SF = 0
   000267    000 120 3055 00           256         DTB     (1),(1,,1)         * CONVERT
   000270    7 01170 0 1 1 00 77       257         NDSC4   BUF6,0,63,1,0,PR7  *  DEC NO TO
   000271    6 00001 0001 14           258         ARG     ROFST,X4,PR6       *   BIN NO IN REC
   000272    7 00470 2211 54           259           ICRET
   000273    000001 7100 11
                                       260  *
                                       261  *  UNPACKED DECIMAL OVERPUNCHED IN MSD TO DECIMAL
                                       262  *
   000274                              263  ZIG$DBE15 NULL
                                       264  *
                                       265  *  UNPACKED DECIMAL OVERPUNCHED IN LSD TO DECIMAL
                                       266  *
   000274                              267  ZIG$DBE16 NULL
                                       268  *
   000274 (0)001200 7010 00            269         ICCAL   ZIG$DBCO1,,CVE21    CONVERT O.P. NO. TO DEC
   000275 (0)001132 7020 00
   000276    5 00006 2341 00
   000277    777776 6010 04
 12:42 09/05/97  FILE=ZIM$DBED.:ZIC0TSI       ENCODE ROUTINES                                            11   BMAP - B00
   000300    0 000 0 1 120 3005 20     270         MVN     (1,,1),(1,,1),1     * MOVE
   000301    7 00757 0001 00           271         ARG     DCDSR,,PR7         *  DEC NO. TO
   000302    6 00001 0001 14           272         ARG     ROFST,X4,PR6        *   DEC IN REC
   000303    7 00470 2211 54           273           ICRET
   000304    000001 7100 11
                                       274  *
                                       275  *  UNPACKED DECIMAL OVERPUNCHED IN MSD TO ASCII
                                       276  *
   000305                              277  ZIG$DBE17 NULL
                                       278  *
                                       279  *  UNPACKED DECIMAL OVERPUNCHED IN LSD TO ASCII
                                       280  *
   000305                              281  ZIG$DBE18 NULL
                                       282  *
   000305 (0)001200 7010 00            283         ICCAL   ZIG$DBCO1,,CVE22    CONVERT O.P. NO. TO DEC
   000306 (0)001132 7020 00
   000307    5 00006 2341 00
   000310    777776 6010 04
   000311    6 00001 2351 14           284         LDA     ROFST,X4,PR6    GET BUF DESCR.
   000312    030000 2750 07            285         ORA     .B22+.B23,DL    MAKE IT NUMER. UNSIGNED
   000313    7 00752 7551 00           286         STA     ENDSR,,PR7      SAVE
   000314    0 000 0 1 120 3005 20     287         MVN     (1,,1),(1,,1),1     * MOVE
   000315    7 00757 0001 00           288         ARG     DCDSR,,PR7         *  DEC NO. TO
   000316    7 00752 0001 00           289         ARG     ENDSR,,PR7          *   ASCII IN REC
   000317 (0)001130 6040 00            290         TMI     LSE18           NEG - SIGN IS LOST
   000320    7 00470 2211 54           291           ICRET
   000321    000001 7100 11
                                       292  *
                                       293  *  ASCII TO ASCII (SUBSCHEMA LENGTH GREATER THAN SCHEMA LENGTH)
                                       294  *
   000322                              295  ZIG$DBE19 NULL
                                       296  *
                                       297  *  CHECK FOR BLANKS IN TRUNCATED PORTION
   000322    010000 3350 07            298         LCA     =O10000,DL      AR=777777770000
   000323    6 00002 3751 14           299         ANA     UOFST,X4,PR6    GET UWA DESCR. W/O LENGTH
   000324    000005 2750 07            300         ORA     =O05,DL         PUT IN LENGTH = A REG
   000325    7 00752 7551 00           301         STA     ENDSR,,PR7      PUT IN WORK SPACE FOR CMPC
 12:42 09/05/97  FILE=ZIM$DBED.:ZIC0TSI       ENCODE ROUTINES                                            12   BMAP - B00
   000326    6 00002 2351 14           302         LDA     UOFST,X4,PR6    GET LENGTH OF FLD IN UWA
   000327    6 00001 1351 14           303         SBLA    ROFST,X4,PR6    SUB LENGTH OF FLD IN REC
   000330    007777 3750 07            304         ANA     =O7777,DL       AR = LENGTH OF TRUNCATED PORTION
   000331    6 00001 7211 14           305         LXL     X1,ROFST,X4,PR6
   000332    007777 3610 03            306         ANX     X1,=O7777,DU    X1 = OFST TO START OF TRUNCATED PORTION
   000333    040 0 171 1064 00         307         CMPC    ,(1,1,1,1),040      * COMPARE
   000334    000000 0 0 0 0000         308         ADSC9   0,0,0               *  BLANK FILL TO
   000335    7 00752 0001 00           309         ARG     ENDSR,,PR7          *   TRUNCATED PORTION IN UWA
   000336 (0)001130 6010 00            310         TNZ     NBTE            ERROR - NON-BLANK TRUNCATION
                                       311  *  MOVE THE NON-TRUNCATED PORTION TO REC
   000337    000 0 120 1005 20         312         MLR     (1,,1),(1,,1)       * MOVE
   000340    6 00002 0001 14           313         ARG     UOFST,X4,PR6        *  FLD IN UWA TO
   000341    6 00001 0001 14           314         ARG     ROFST,X4,PR6        *   FLD IN REC
   000342    7 00470 2211 54           315           ICRET
   000343    000001 7100 11
                                       316  *
                                       317  *  NO ENCODE - USED WHEN ENCODING ARGS FOR DB PROCEDURES
                                       318  *
   000344                              319  ZIG$DBE20 NULL
                                       320  *
   000344    7 00470 2211 54           321           ICRET
   000345    000001 7100 11
                                       322  *
                                       323  *  USER'S ENCODE PROCEDURE
                                       324  *
   000346                              325  ZIG$DBE21 NULL
                                       326  *
                                       327  *  FIND THE DP
   000346    000000 6220 14            328         EAX     X2,,X4          INIT X2 TO FR
   000347    010140 2350 07            329         LDA     .PTENC,DL       LOAD PROC. TYPE
   000350    100000 3360 07            330         LCQ     .DBPT+1,DL      LOAD MASK
   000351                              331  UEL1   NULL
   000351    6 77777 2221 12           332         LDX     X2,XXDPN,X2,PR6  GET NEXT DP
   000352 (0)001122 6000 00            333         TZE     UEPNF           NO - ENCODE PROC. NOT FOUND
   000353    6 00000 2111 12           334         CMK     DEF,X2,PR6      IS THIS THE ENCODE PROC.
   000354 (0)000351 6010 00            335         TNZ     UEL1            NO
                                       336  *  CALL THE PROCEDURE
 12:42 09/05/97  FILE=ZIM$DBED.:ZIC0TSI       ENCODE ROUTINES                                            13   BMAP - B00
   000355  X 000000 7010 00            337         ICCAL   ZIG$DBDPI,UEPR,UEPE CALL THE PROC
   000356 (0)001132 7020 00
   000357    5 00006 2341 00
   000360    000003 6000 04
   000361    5 00006 4501 00
   000362 (0)001124 7020 00
   000363    7 00470 2211 54           338           ICRET
   000364    000001 7100 11
                                       339  *
                                       340  *  BIT STRING MOVE - LEFT TO RIGHT
                                       341  *
   000365                              342  ZIG$DBE22 NULL
                                       343  *
   000365    0 00 03 0 120 0605 20     344         CSL     (1,,1),(1,,1),03    * MOVE
   000366    6 00002 0001 14           345         ARG     UOFST,X4,PR6        *  FLD IN UWA TO
   000367    6 00001 0001 14           346         ARG     ROFST,X4,PR6        *   FLD IN REC(ARG LIST)
   000370    7 00470 2211 54           347           ICRET
   000371    000001 7100 11
                                       348  *
                                       349  *  SIGNED DECIMAL TO UNSIGNED DEC
                                       350  *
   000372                              351  ZIG$DBE23 NULL
                                       352  *
   000372    0 000 0 1 120 3005 20     353         MVN     (1,,1),(1,,1),1     * MOVE
   000373    6 00002 0001 14           354         ARG     UOFST,X4,PR6        *  DEC IN UWA TO
   000374    6 00001 0001 14           355         ARG     ROFST,X4,PR6        *   DEC IN REC
   000375 (0)001130 6040 00            356         TMI     LSE23           NEG - SIGN IS LOST
   000376    7 00470 2211 54           357           ICRET
   000377    000001 7100 11
                                       358  *
                                       359  *  FIXED BIN(35) TO UNSIGNED DECIMAL
                                       360  *
   000400                              361  ZIG$DBE24 NULL
                                       362  *
   000400    0 000 120 3015 20         363         BTD     (1,,1),(1,,1)   * CONVERT
   000401    6 00002 0001 14           364         ARG     UOFST,X4,PR6    *  BIN NO. IN UWA TO
   000402    7 01026 0001 00           365         ARG     FBUF1,,PR7      *   DEC IN BUF
 12:42 09/05/97  FILE=ZIM$DBED.:ZIC0TSI       ENCODE ROUTINES                                            14   BMAP - B00
   000403 (0)001130 6040 00            366         TMI     LSE24           NEG - SIGN IS LOST
   000404    0 000 0 1 120 3005 20     367         MVN     (1,,1),(1,,1),1     * MOVE
   000405    7 01026 0001 00           368         ARG     FBUF1,,PR7          *  DEC IN BUF TO
   000406    6 00001 0001 14           369         ARG     ROFST,X4,PR6        *   DEC IN REC
   000407    7 00470 2211 54           370           ICRET
   000410    000001 7100 11
                                       371  *
                                       372  *  IBM FIXED BIN(15 OR 31) TO UNSIGNED DECIMAL
                                       373  *
   000411                              374  ZIG$DBE25 NULL
                                       375  *
   000411 (0)001153 7010 00            376         ICCAL   ZIG$DBCI1,,CVE4 CONVERT TO 36 BIT NO.
   000412 (0)001132 7020 00
   000413    5 00006 2341 00
   000414    777776 6010 04
   000415    7 01007 7551 00           377         STA     B36N,,PR7       SAVE
   000416    0 000 120 3015 00         378         BTD     (1),(1,,1)          * CONVERT
   000417    7 01007 0 0 0 00 04       379         NDSC9   B36N,0,4,0,0,PR7    *  BIN NO. TO
   000420    7 01026 0001 00           380         ARG     FBUF1,,PR7          *   DEC IN BUF
   000421 (0)001130 6040 00            381         TMI     LSE25           NEG - SIGN IS LOST
   000422    0 000 0 1 120 3005 20     382         MVN     (1,,1),(1,,1),1     * MOVE
   000423    7 01026 0001 00           383         ARG     FBUF1,,PR7          *  DEC IN BUF TO
   000424    6 00001 0001 14           384         ARG     ROFST,X4,PR6        *   DEC IN REC
   000425    7 00470 2211 54           385           ICRET
   000426    000001 7100 11
                                       386  *
                                       387  *  UNPACKED DEC OVERPUNCHED IN MSD TO UNSIGNED DECIMAL
                                       388  *
   000427                              389  ZIG$DBE26 NULL
                                       390  *
                                       391  *  UNPACKED DEC OVERPUNCHED IN LSD TO UNSIGNED DECIMAL
                                       392  *
   000427                              393  ZIG$DBE27 NULL
                                       394  *
   000427 (0)001200 7010 00            395         ICCAL   ZIG$DBCO1,,CVE27 CONVERT O.P. NO. TO DEC
   000430 (0)001132 7020 00
   000431    5 00006 2341 00
 12:42 09/05/97  FILE=ZIM$DBED.:ZIC0TSI       ENCODE ROUTINES                                            15   BMAP - B00
   000432    777776 6010 04
   000433    0 000 0 1 120 3005 20     396         MVN     (1,,1),(1,,1),1     * MOVE
   000434    7 00757 0001 00           397         ARG     DCDSR,,PR7         *  DEC NO. TO
   000435    6 00001 0001 14           398         ARG     ROFST,X4,PR6        *  REC
   000436 (0)001130 6040 00            399         TMI     LSE26           NEG - SIGN IS LOST
   000437    7 00470 2211 54           400           ICRET
   000440    000001 7100 11
                                       401  *
                                       402  *  FIXED BINARY (35) TO FIXED BINARY (71)
                                       403  *              RECORD DESCRIPTOR IS 9-BIT ALPHA, N=8
                                       404  *              UWA DESCRIPTOR IS 9-BIT ALPHA, N=4
                                       405  *
   000441                              406  ZIG$DBE28 NULL
                                       407  *
   000441    000 0 100 1005 20         408         MLR     (1,,1),(1),0        * MOVE
   000442    6 00002 0001 14           409         ARG     UOFST,X4,PR6        *  BINARY NUMBER IN UWA TO
   000443    7 01056 0 0 0 0004        410         ADSC9   B72N,0,4,PR7        *   WORK SPACE
   000444    7 01056 2351 00           411         LDA     B72N,,PR7       GET NO
   000445    000044 7330 00            412         LRS     36              PROPOGATE SIGN
   000446    7 01056 7571 00           413         STAQ    B72N,,PR7       SAVE
   000447    000 0 120 1015 00         414         MRL     (1),(1,,1),0        * MOVE
   000450    7 01056 0 0 0 0010        415         ADSC9   B72N,0,8,PR7        *  72-BIT BIN NO TO
   000451    6 00001 0001 14           416         ARG     ROFST,X4,PR6        *   REC BUF
   000452    7 00470 2211 54           417           ICRET
   000453    000001 7100 11
                                       418  *
                                       419  *  FIXED LENGTH ASCII TO VARYING LENGTH ASCII
                                       420  *
   000454                              421  ZIG$DBE29 NULL
                                       422  *
                                       423  *  FIND # OF BYTES IN VARYING FIELD
   000454 (0)001137 7010 00            424         ICCAL   ZIG$DBSCN,,SCE1
   000455 (0)001132 7020 00
   000456    5 00006 2341 00
   000457    777776 6010 04
                                       425  *  CHECK FOR NON-BLANK TRUNCATION
   000460    6 00001 2351 14           426         LDA     ROFST,X4,PR6    GET MAX LENGTH OF VARYING FIELD
 12:42 09/05/97  FILE=ZIM$DBED.:ZIC0TSI       ENCODE ROUTINES                                            16   BMAP - B00
   000461    007777 3750 07            427         ANA     =O7777,DL
   000462    7 01061 1151 00           428         CMPA    TCTRS,,PR7      COMPARE TO # BYTES IN FIELD
   000463 (0)001130 6020 00            429         TNC     NBTE            ERROR - NON-BLANK TRUNCATION
                                       430  *  BUILD EIS DESC TO PUT IN RECORD
   000464    7 01074 2351 00           431         LDA     VRSIZ,,PR7      BYTE OFFSET OF VARYING FIELD
   000465    777777 3750 07            432         ANA     -1,DL
   000466    000020 7350 00            433         ALS     16              PUT IN EIS DESC FORMAT
   000467    7 01061 2751 00           434         ORA     TCTRS,,PR7      PUT IN LENGTH
   000470    7 01070 7551 00           435         STA     VFDSR,,PR7      PUT INTO WORK SPACE FOR MOVE
                                       436  *  BUILD EIS DESC WHICH DEFINES DESC IN RECORD
   000471    010000 3350 07            437         LCA     =O10000,DL      AR = 777777770000
   000472    6 00001 3751 14           438         ANA     ROFST,X4,PR6    GET BUFFER DESC W/O LENGTH
   000473    000004 2750 07            439         ORA     =O04,DL         LENGTH = 4 BYTES
   000474    7 00752 7551 00           440         STA     ENDSR,,PR7      PUT IN WORK SPACE FOR MOVE
                                       441  *  MOVE EIS DESC INTO RECORD IN BUFFER
   000475    000 0 120 1005 00         442         MLR     (1),(1,,1)
   000476    7 01070 0 0 0 0004        443         ADSC9   VFDSR,,4,PR7
   000477    7 00752 0001 00           444         ARG     ENDSR,,PR7
                                       445  *  MOVE VARYING FIELD TO RECORD IN BUFFER
   000500    6 00001 2351 14           446         LDA     ROFST,X4,PR6    GET DESC
   000501    700000 3750 03            447         ANA     =O700000,DU     ISOLATE ADDR REG
   000502    7 01070 2551 00           448         ORSA    VFDSR,,PR7      ADD TO DESC
   000503    000 0 120 1005 20         449         MLR     (1,,1),(1,,1)
   000504    6 00002 0001 14           450         ARG     UOFST,X4,PR6    MOVE FIELD
   000505    7 01070 0001 00           451         ARG     VFDSR,,PR7      * INTO BUFFER
                                       452  *  UPDATE VARYING RECORD SIZE
   000506    7 01061 2351 00           453         LDA     TCTRS,,PR7      GET LENGTH OF FIELD
   000507    7 01074 0551 00           454         ASA     VRSIZ,,PR7      ADD TO TOTAL SIZE
   000510    7 00470 2211 54           455           ICRET
   000511    000001 7100 11
                                       456  *
                                       457  *  MOVE LENGTH IN THE DESCRIPTOR TO FIXED BIN (35)
                                       458  *
   000512                              459  ZIG$DBE30 NULL
                                       460  *
                                       461  *  BUILD EIS DESC TO MOVE LENGTH-OF-INPUT TO WORK SPACE
   000512    010000 3350 07            462         LCA     =O10000,DL      AR = 777777770000
 12:42 09/05/97  FILE=ZIM$DBED.:ZIC0TSI       ENCODE ROUTINES                                            17   BMAP - B00
   000513    6 00002 3751 14           463         ANA     UOFST,X4,PR6    GET UWA DESC W/O LENGTH
   000514    000004 2750 07            464         ORA     =O4,DL          LENGTH = 4
   000515    7 00752 7551 00           465         STA     ENDSR,,PR7      PUT IN WORK SPACE FOR MOVE
                                       466  *  MOVE LENGTH-OF-INPUT TO WORK SPACE
   000516    000 0 100 1015 20         467         MRL     (1,,1),(1)
   000517    7 00752 0001 00           468         ARG     ENDSR,,PR7
   000520    7 01071 4 0 0 0002        469         ADSC9   LINPT,2,2,PR7
   000521    007777 2350 07            470         LDA     =O7777,DL       ISOLATE LENGTH
   000522    7 01071 3551 00           471         ANSA    LINPT,,PR7
                                       472  *  MOVE LENGTH-OF-INPUT FROM WORK SPACE TO BUFFER
   000523    000 0 120 1015 00         473         MRL     (1),(1,,1)
   000524    7 01071 4 0 0 0002        474         ADSC9   LINPT,2,2,PR7
   000525    6 00001 0001 14           475         ARG     ROFST,X4,PR6
   000526    7 00470 2211 54           476           ICRET
   000527    000001 7100 11
                                       477  *
                                       478  *  VARYING LENGTH ASCII TO FIXED LENGTH ASCII
                                       479  *
   000530                              480  ZIG$DBE31 NULL
                                       481  *
                                       482  *  BUILD EIS DESC FOR DESC IN RECORD
   000530    010000 3350 07            483         LCA     =O10000,DL      AR = 777777770000
   000531    6 00002 3751 14           484         ANA     UOFST,X4,PR6    GET DESC W/0 LENGTH
   000532    000004 2750 07            485         ORA     =O4,DL          LENGTH = 4
   000533    7 00752 7551 00           486         STA     ENDSR,,PR7      PUT IN WORK SPACE FOR MOVE
                                       487  *  MOVE DESC IN RECORD TO WORK SPACE
   000534    000 0 100 1005 20         488         MLR     (1,,1),(1)
   000535    7 00752 0001 00           489         ARG     ENDSR,,PR7
   000536    7 01070 0 0 0 0004        490         ADSC9   VFDSR,,4,PR7
                                       491  *  MOVE FIELD TO BUFFER
   000537    6 00002 2211 14           492         LDX     X1,UOFST,X4,PR6
   000540    700000 3610 03            493         ANX     X1,=O700000,DU  GET AR MODIFIER
   000541    7 01070 2411 00           494         ORSX    X1,VFDSR,,PR7   PUT IN DESC
   000542    040 0 120 1005 20         495         MLR     (1,,1),(1,,1),040
   000543    7 01070 0001 00           496         ARG     VFDSR,,PR7
   000544    6 00001 0001 14           497         ARG     ROFST,X4,PR6
   000545    7 00470 2211 54           498           ICRET
 12:42 09/05/97  FILE=ZIM$DBED.:ZIC0TSI       ENCODE ROUTINES                                            18   BMAP - B00
   000546    000001 7100 11
                                       499  *
                                       500  *  ENCODE FORTRAN LOGICAL TO FIXED BIN (17,35)
                                       501  *
                                       502  *    UWA DESCRIP IS ASCII 4
                                       503  *    BUFFER DESCRIP IS ASCII 2 OR ASCII 4
                                       504  *      IF UWA DATA IS ZERO, MOVE ZERO TO BUFFER.
                                       505  *      IF UWA DATA IS NOT ZERO, MOVE A 1 TO THE BUFFER.
                                       506  *
                                       507  *    NO EXCEPTION POSSIBLE
                                       508  *
   000547                              509  ZIG$DBE32 NULL
                                       510  *
   000547    6 00002 2211 14           511         LDX     X1,UOFST,X4,PR6  GET UWA DESCRIPTOR
   000550    077777 3610 03            512         ANX     X1,=O77777,DU   REMOVE ADDR REG MOD
   000551    1 00000 2361 11           513           LDQ      0,X1,PR1          GET NO. FROM UWA
   000552 (0)000554 6000 00            514         TZE     *+2
   000553    000001 2360 07            515         LDQ     1,DL            NOT ZERO SO SET = 1
   000554    7 01007 7561 00           516         STQ     B36N,,PR7
   000555    000 0 120 1015 00         517         MRL     (1),(1,,1),0       * MOVE
   000556    7 01007 0 0 0 0004        518         ADSC9   B36N,0,4,PR7       *  EITHER A 35 BIT BIN 0 OR 1
   000557    6 00001 0001 14           519         ARG     ROFST,X4,PR6       *   TO REC BUF
   000560    7 00470 2211 54           520           ICRET
   000561    000001 7100 11
                                       521  *   ACSII TO ASCII WITH ZERO FILL
                                       522  *     UWA DESCRIPTOR IS 9 BIT ALPHA
                                       523  *     RECORD DESCRIPTOR IS 9 BIT ALPHA
   000562                              524  ZIG$DBE33 NULL
   000562    000 0 120 1005 20         525         MLR     (1,,1),(1,,1),0,0   *MOVE FILED FROM
   000563    6 00002 0001 14           526         ARG     UOFST,X4,PR6        *  UWA TO
   000564    6 00001 0001 14           527         ARG     ROFST,X4,PR6     *  REC BUF (WITH BINARY 0 FILL)
   000565    7 00470 2211 54           528         ICRET   RETURN
   000566    000001 7100 11
                                       529  *
                                       530  *  FLOAT BIN(71) TO FLOAT BIN(35)
                                       531  *     UWA DESCRIPTOR IS 9 BIT ALPHA, N=8
                                       532  *     RECORD DESCRIPTOR IS 9 BIT ALPHA, N=4
 12:42 09/05/97  FILE=ZIM$DBED.:ZIC0TSI       ENCODE ROUTINES                                            19   BMAP - B00
                                       533  *     ROUNDING MAY OCCUR
   000567                              534  ZIG$DBE34 NULL
   000567    000 1 100 1005 20         535         MLR     (1,,1),(1),,1   * MOVE
   000570    6 00002 0001 14           536         ARG     UOFST,X4,PR6    *  FLOAT BINARY NO IN UWA
   000571    7 00670 0 0 0 0010        537         ADSC9   CFLPT1,0,8,PR7  *  TO WORKSPACE
   000572    7 00670 4331 00           538         DFLD    CFLPT1,,PR7     GET FLOATING POINT NUMBER
   000573    7 00672 4701 00           539         FSTR    CFLPT2,,PR7     ROUND TO SINGLE PRECISION & STORE
   000574    000 1 120 1005 00         540         MLR     (1),(1,,1),,1   * MOVE
   000575    7 00672 0 0 0 0004        541         ADSC9   CFLPT2,0,X4,PR7 *   ROUNDED SINGLE PREC FLOAT NO.
   000576    6 00001 0001 14           542         ARG     ROFST,X4,PR6    *  TO RECORD IN BUFFER
   000577    7 00470 2211 54           543         ICRET   RETURN
   000600    000001 7100 11
                                       544  *   FLOAT BIN(35 OR 71) TO UNSIGNED PACKED DEC
                                       545  *       UWA DESCRIPTOR IS 9 BIT ALPHA, N=4 OR N=8
                                       546  *       RECORD DESCRIPTOR IS 4 BIT NUMERIC(UNSIGNED)
   000601                              547  ZIG$DBE35 NULL
   000601    000 0 100 1005 20         548         MLR     (1,,1),(1),0    *MOVE
   000602    6 00002 0001 14           549         ARG     UOFST,X4,PR6    *  FLOAT BIN NO. IN UWA
   000603    7 00670 0 0 0 0010        550         ADSC9   CFLPT1,0,8,PR7  *  TO WORKSPACE
   000604    7 00670 4331 00           551         DFLD    CFLPT1,,PR7     IS FLOAT BIN NO. NEGATIVE
   000605 (0)000761 6040 00            552         TMI     LSE35           YES - EXCEPTION - LOST SIGN
   000606 (0)000634 7010 00            553         ICCAL   ZIG$DBFLD,,FLDE2   CONVERT TO DECIMAL
   000607 (0)000763 7020 00
   000610    5 00006 2341 00
   000611    777776 6010 04
                                       554  *   MOVE DECIMAL RESULT
   000612    0 000 0 1 120 3005 20     555         MVN     (1,,1),(1,,1),1 *MOVE
   000613 (0)000741 0000 00            556         ARG     RSDES           *  DECIMAL RESULT
   000614    6 00001 0001 14           557         ARG     ROFST,X4,PR6    *  TO RECORD BUFFER
                                       558  * RETURN
   000615    7 00470 2211 54           559         ICRET   RETURN
   000616    000001 7100 11
                                       560  *
                                       561  *  FLOAT BINARY(35 OR 71) TO SIGNED PACKED DECIMAL
                                       562  *      UWA DESCRIPTOR IS 9 BIT ALPHA, N=4 OR N=8
                                       563  *      RECORD DESCRIPTOR IS 4 BIT NUMERIC SIGNED
                                       564  *
 12:42 09/05/97  FILE=ZIM$DBED.:ZIC0TSI       ENCODE ROUTINES                                            20   BMAP - B00
   000617                              565  ZIG$DBE36 NULL
   000617    000 0 100 1005 20         566         MLR     (1,,1),(1),0       * MOVE
   000620    6 00002 0001 14           567         ARG     UOFST,X4,PR6       * FIELD IN UWA
   000621    7 00670 0 0 0 0010        568         ADSC9   CFLPT1,0,8,PR7     *   TO TEMP LOCATION
   000622    7 00670 4331 00           569         DFLD    CFLPT1,,PR7     GET FLOATING POINT BINARY NUMBER
   000623 (0)000634 7010 00            570         ICCAL   ZIG$DBFLD,,FLDE1   CONVERT TO DECIMAL
   000624 (0)000763 7020 00
   000625    5 00006 2341 00
   000626    777776 6010 04
                                       571  *  MOVE RESULT
   000627    1 000 0 1 120 3005 20     572         MVN     (1,,1),(1,,1),1,1  * MOVE
   000630 (0)000741 0000 00            573         ARG     RSDES              *  DECIMAL RESULT
   000631    6 00001 0001 14           574         ARG     ROFST,X4,PR6       *   TO RECORD BUFFER
                                       575  *  RETURN
   000632    7 00470 2211 54           576         ICRET
   000633    000001 7100 11
                                       577  *
                                       578  *  FLOAT BINARY TO PACKED DECIMAL ROUTINE
                                       579  *
                                       580  *  DESCRIPTION OF SYMBOLS USED IN ZIG$DBFLD
                                       581  *              DCLSO - A DECIMAL NO. WITH LEADING SIGN HAVING
                                       582  *                      A VALUE OF +0
                                       583  *              DCLS1 - A DECIMAL NO. WITH LEADING SIGN HAVING
                                       584  *                      A VALUE OF +1
                                       585  *              RSDES - EIS DESCRITOR FOR DECIMAL RESULT (FROM
                                       586  *                       CONVERTING FLOAT BINARY TO DECIMAL). THE
                                       587  *                       RESULT IS STORED IN THE 4 BIT BUFFER (BUF4)
                                       588  *                       OF THE DBCB (8 WORDS).
                                       589  *              B36N (1 WORD) - VALUE OF THE EXPONENT
                                       590  *
                                       591  *              BN1 (2 WORDS) - VALUE OF THE MANTISSA
                                       592  *
                                       593  *              B72N (1 WORD) - NEGATIVE EXPONENT
                                       594  *
                                       595  *              B72N+1 (1 WORD) - POSITIVE EXPONENT
                                       596  *
                                       597  *              B32N (1 WORD) - SIGN OF THE EXPONENT
 12:42 09/05/97  FILE=ZIM$DBED.:ZIC0TSI       ENCODE ROUTINES                                            21   BMAP - B00
                                       598  *
                                       599  *                      IS ACTUALLY STORED IN THE FIRST 8 WORDS OF TEMP 6
                                       600  *                      BIT BUFFER (BUF6)
                                       601  *
                                       602  *              CURLN (3 WORDS) - INTERMEDIATE DECIMAL RESULTS
                                       603  *
                                       604  *              BUF6+8 (LAST 3 WORDS IN 6-BIT BUFFER) - VALUE OF
                                       605  *                       MANTISSA
                                       606  *
                                       607  *    INPUT:  EAQ = FLOATING BINARY NUMBER NORMALIZED
                                       608  *
                                       609  *    OUTPUT:  DECIMAL NUMBER IN 4 BIT BUFFER WITH FLOATING SIGN
                                       610  *
   000634                              611  ZIG$DBFLD NULL
   000634    7 00470 7411 56           612         ICSAV
   000635    7 01056 4561 00           613         STE    B72N,,PR7      SAVE EXPONENT
   000636    7 00652 7571 00           614         STAQ   BN1,,PR7       SAVE MANTISSA
   000637 (0)000644 6010 00            615         TNZ    NOTZERO
   000640    1 000 0 1 120 3004 00     616         MVN    ,(1,,1),1,1
   000641 (0)000742 0 0 1 00 04        617         NDSC9  DCLS0,0,4,1
   000642 (0)000741 0000 00            618         ARG    RSDES
   000643 (0)000720 7100 00            619         TRA    ADJST
   000644                              620  NOTZERO NULL
                                       621  *
                                       622  *      Convert mantissa to digit string
                                       623  *      x = 16**e * f
                                       624  *
   000644    7 01175 4501 00           625         STZ    BUF6+5,,PR7
   000645    0 000 100 3015 00         626         BTD    (1),(1)
   000646    7 00652 0 0 0 00 10       627         NDSC9  BN1,0,8,,,PR7
   000647    7 01170 0 0 1 00 27       628         NDSC9  BUF6,0,23,1,,PR7
                                       629  *
                                       630  *      Process hexadecimal exponent
                                       631  *
   000650    7 01056 2351 00           632         LDA    B72N,,PR7
   000651    000034 7310 00            633         ARS    28
   000652    000007 0350 07            634         ADLA   7,DL           Apply bias
 12:42 09/05/97  FILE=ZIM$DBED.:ZIC0TSI       ENCODE ROUTINES                                            22   BMAP - B00
   000653    000000 6360 05            635         EAQ    0,AL
   000654 (1)000000 3750 00            636         ANA    =O777777777760 GET 16*E1
   000655    7 01056 7551 00           637         STA    B72N,,PR7
   000656 (0)000664 6000 00            638         TZE    LAST
                                       639  *
                                       640  *      First step of radix conversion.
                                       641  *
   000657    000001 7310 00            642         ARS    1
   000660    7 01056 0351 00           643         ADLA   B72N,,PR7
   000661    0 000 0 0 100 2064 05     644         MP2D   (0,0,0,A),(1)
   000662 (0)001731 0 0 0 00 30        645         NDSC9  FACTOR1,0,24
   000663    7 01170 0 0 0 00 30       646         NDSC9  BUF6,0,24,0,0,PR7
   000664                              647  LAST   NULL
   000664    000017 3760 03            648         ANQ    =O000017,DU
   000665    000030 4020 07            649         MPY    24,DL
   000666    0 000 0 0 100 2064 02     650         MP2D   (0,0,0,QU),(1)
   000667 (0)002017 0 0 0 00 30        651         NDSC9  FACTOR2,,24
   000670    7 01170 0 0 0 00 30       652         NDSC9  BUF6,0,24,0,0,PR7
                                       653  *
                                       654  *   Put exponent in proper form.
                                       655  *
   000671    7 01175 2351 00           656        LDA     BUF6+5,,PR7    Get exp(d2)
   000672    000010 7330 00            657        LRS     8
   000673    000034 7320 00            658        QRS     28
   000674    7 01056 0361 00           659        ADLQ    B72N,,PR7
   000675    000026 0360 07            660        ADLQ    22,DL
                                       661  *
                                       662  *   Round to number of digits.
                                       663  *
   000676 (1)000001 6340 00            664        LDI     =O004010
   000677    0 000 0 0 100 2024 00     665        AD2D    ,(1)
   000700 (0)002157 0 0 3 00 01        666        NDSC9   FIVER,,1,3,0
   000701    7 01170 2 0 3 00 26       667        NDSC9   BUF6,2,22,3,0,PR7
   000702 (0)000704 6170 00            668        TOV     RNDOUT
                                       669  *
                                       670  *     Q = exponent
                                       671  *     A = length
 12:42 09/05/97  FILE=ZIM$DBED.:ZIC0TSI       ENCODE ROUTINES                                            23   BMAP - B00
                                       672  *     BUF6,,PR7 = number
                                       673  *
   000703 (0)000710 7100 00            674        TRA     FLOATIT
   000704    000 0 100 1004 00         675  RNDOUT MLR    ,(1)
   000705 (0)002160 0 0 0 0001         676        ADSC9   ONER,0,1
   000706    7 01170 2 0 0 0001        677        ADSC9   BUF6,1,1,PR7
   000707    000001 0360 07            678        ADLQ    1,DL
   000710                              679  FLOATIT   NULL
                                       680  *
                                       681  *   Now make into float packed decimal by
                                       682  *   putting exponent into posision 63 of BUF6
                                       683  *
   000710    000026 1760 07            684           SBQ       22,DL
   000711    7 01056 7561 00           685           STQ       B72N,,PR7
   000712    000 0 100 1005 00         686           MLR       (1),(1)
   000713    7 01056 6 0 0 0001        687           ADSC9     B72N,3,1,PR7
   000714    7 01175 6 0 0 0001        688           ADSC9     BUF6+5,3,1,PR7
                                       689  *
                                       690  *     Put in RSDES
                                       691  *
   000715    1 000 0 1 120 3005 00     692           MVN       (1),(1,,1),1,1
   000716    7 01170 0 0 0 00 30       693           NDSC9     BUF6,0,24,0,,PR7
   000717 (0)000741 0000 00            694           ARG       RSDES
                                       695  *
                                       696  *     Round things
                                       697  *
   000720                              698  ADJST    NULL
                                       699  *        MP2D      ,(1,,1),1
                                       700  *        NDSC4     LONG1,0,63
                                       701  *        ARG       RSDES
   000720    7 00470 2211 54           702           ICRET
   000721    000001 7100 11
                                       703  *  RETURN
   000722    7 00470 2211 54           704         ICRET
   000723    000001 7100 11
                                       705  *
                                       706  *      SUBSCHEMA INTEGER TO SCHEMA FLOAT SINGLE
 12:42 09/05/97  FILE=ZIM$DBED.:ZIC0TSI       ENCODE ROUTINES                                            24   BMAP - B00
                                       707  *
   000724                              708  ZIG$DBE37     NULL
   000724    000 0 100 1005 20         709           MLR (1,,1),(1),0
   000725    6 00002 0001 14           710           ARG UOFST,X4,PR6
   000726    7 01056 0 0 0 0004        711           ADSC9 B72N,0,4,PR7
   000727    022100 4310 03            712           FLD =O022100,DU
   000730    7 01056 2351 00           713           LDA  B72N,,PR7
   000731    000001 7330 00            714           LRS  1
   000732    400000 4750 03            715           FAD  =O400000,DU
   000733    7 00670 4551 00           716           FST  CFLPT1,,PR7
   000734    001 0 120 1005 00         717           MLR  (1),(1,,1),1
   000735    7 00670 0 0 0 0004        718           ADSC9     CFLPT1,0,4,PR7
   000736    6 00001 0001 14           719           ARG       ROFST,X4,PR6
   000737    7 00470 2211 54           720           ICRET
   000740    000001 7100 11
                                       721  *
                                       722  *  DESCRIPTORS USED BY THIS ROUTINE
                                       723  *
   000741    7 01160 0 1 0 00 76       724  RSDES  NDSC4   BUF4,0,62,0,0,PR7 DESCRIPTOR FOR RESULT
                                       725  *
                                       726  *  CONSTANTS USED BY THIS ROUTINE
                                       727  *
                                       728  *
   000742    053060060060              729  DCLS0  ASCII   1,+000          LEADING SIGN DECIMAL 0
   000743    053060060061              730  DCLS1  ASCII   1,+001          LEADING SIGN DECIMAL 1
                                       731         EVEN
   000744    777777777777              732  MINUS1 DEC     -1
   000745    777777777777              733         DEC     -1
                                       734         EVEN
   000746    107042066144              735  TWO72  OCT     107042066144    2**72 IN PACKED DECIMAL
   000747    202206226105              736         OCT     202206226105
   000750    041066226000              737         OCT     041066226000
   000751    260020000000              738  LONG1  OCT     260020000000,0,0,0,0,0,0,014140
   000752    000000000000
   000753    000000000000
   000754    000000000000
   000755    000000000000
 12:42 09/05/97  FILE=ZIM$DBED.:ZIC0TSI       ENCODE ROUTINES                                            25   BMAP - B00
   000756    000000000000
   000757    000000000000
   000760    000000014140
                                       739  *
                                       740  *  ERRORS DETECTED IN ENCODE ROUTINES
                                       741  *
   000761                              742  LSE35  NULL                    NEG SIGN LOST - E35
   000761    012120 2350 07            743         LDA     IDI,DL
   000762 (0)000764 7100 00            744         TRA     ECER
                                       745  *
                                       746  *
                                       747  *  ERRORS DETECTED IN SUBORDINATE ROUTINES
                                       748  *
   000763                              749  FLDE2  NULL                    ERROR CONVERTING FLT BIN TO DEC - E35
   000763                              750  FLDE1  NULL                    ERROR IN CONVERTING FLT BIN TO DECIMAL
   000763 (0)000764 7100 00            751         TRA     ECER
                                       752  *  COMMON ERROR RETURN
   000764                              753  ECER   NULL
   000764  X 000000 7020 00            754         ICALT
                                       755  *
                                       756  *
                                       757  *      SUBSCHEMA FLOAT (S/D) TO SCHEMA INTEGER
                                       758  *
   000765                              759  ZIG$DBE38     NULL
   000765    000 0 100 1005 20         760           MLR  (1,,1),(1),0
   000766    6 00002 0001 14           761           ARG       UOFST,X4,PR6
   000767    7 00670 0 0 0 0010        762           ADSC9     CFLPT1,0,8,PR7
   000770    7 00670 4331 00           763           DFLD CFLPT1,,PR7
   000771    042000 4350 03            764           UFA  =O042000,DU
   000772 (0)001116 0770 00            765           ADAQ ROUNDER
   000773    000003 7330 00            766           LRS  3
   000774    7 01056 7561 00           767           STQ  B72N,,PR7
   000775    7 00670 4301 00           768           FSZN CFLPT1,,PR7
   000776 (0)001002 6050 00            769           TPL  *+4
   000777    7 01056 2351 00           770           LDA  B72N,,PR7
   001000    000000 5310 00            771           NEG
   001001    7 01056 7551 00           772           STA  B72N,,PR7
 12:42 09/05/97  FILE=ZIM$DBED.:ZIC0TSI       ENCODE ROUTINES                                            26   BMAP - B00
   001002    001 0 120 1005 00         773           MLR  (1),(1,,1),1
   001003    7 01056 0 0 0 0004        774           ADSC9     B72N,0,4,PR7
   001004    6 00001 0001 14           775           ARG       ROFST,X4,PR6
   001005    7 00470 2211 54           776           ICRET
   001006    000001 7100 11
                                       777  *
                                       778  *      SUBSCHEMA INTEGER TO SCHEMA FLOAT DOUBLE
                                       779  *
   001007                              780  ZIG$DBE39     NULL
   001007    000 0 100 1005 20         781           MLR  (1,,1),(1),0
   001010    6 00002 0001 14           782           ARG       UOFST,X4,PR6
   001011    7 01056 0 0 0 0004        783           ADSC9     B72N,0,4,PR7
   001012    022100 4310 03            784           FLD       =O022100,DU
   001013    7 01056 2351 00           785           LDA       B72N,,PR7
   001014    000001 7330 00            786           LRS       1
   001015    400000 4750 03            787           FAD       =O400000,DU
   001016    7 00670 4571 00           788           DFST      CFLPT1,,PR7
   001017    001 0 120 1005 00         789           MLR  (1),(1,,1),1
   001020    7 00670 0 0 0 0010        790           ADSC9     CFLPT1,0,8,PR7
   001021    6 00001 0001 14           791           ARG       ROFST,X4,PR6
   001022    7 00470 2211 54           792           ICRET
   001023    000001 7100 11
                                       793  *
                                       794  *          PACKED DECIMAL TO FLOAT BINARY(35)
                                       795  *
   001024                              796  ZIG$DBE40     NULL
   001024    000001 6230 00            797      EAX3      1
   001025 (0)001027 7100 00            798      TRA       SKIP41
                                       799  *
                                       800  *          PACKED DECIMAL TO FLOAT BINARY(71)
                                       801  *
   001026                              802  ZIG$DBE41     NULL
   001026    000000 6230 00            803      EAX3      0
   001027                              804  SKIP41   NULL
   001027    0 000 0 1 120 3005 20     805      MVN  (1,,1),(1,,1),1
   001030    6 00002 0001 14           806      ARG       UOFST,X4,PR6
   001031 (0)003344 0000 13            807      ARG       FLTM0,X3
 12:42 09/05/97  FILE=ZIM$DBED.:ZIC0TSI       ENCODE ROUTINES                                            27   BMAP - B00
   001032 (0)003120 7010 00            808      ICCAL     ZIG$DBDFL,,CVE20
   001033 (0)001132 7020 00
   001034    5 00006 2341 00
   001035    777776 6010 04
   001036    7 00670 4721 00           809      DFSTR     CFLPT1,,PR7         SAVE FLOAT NUMBER.
   001037    001 0 120 1005 00         810      MLR  (1),(1,,1),1
   001040    7 00670 0 0 0 0010        811      ADSC9     CFLPT1,0,8,PR7
   001041    6 00001 0001 14           812      ARG       ROFST,X4,PR6
   001042    7 00470 2211 54           813      ICRET
   001043    000001 7100 11
                                       814  *
                                       815  *        FLOAT HEX (35 OR 71) TO ASCII
                                       816  *
   001044                              817  ZIG$DBE42     NULL
   001044    000 0 100 1005 20         818         MLR     (1,,1),(1),0       * MOVE
   001045    6 00002 0001 14           819         ARG     UOFST,X4,PR6       * FIELD IN UWA
   001046    7 00670 0 0 0 0010        820         ADSC9   CFLPT1,0,8,PR7     *   TO TEMP LOCATION
   001047    7 00670 4331 00           821         DFLD    CFLPT1,,PR7     GET FLOATING POINT BINARY NUMBER
   001050 (0)000634 7010 00            822         ICCAL   ZIG$DBFLD,,FLDE1   CONVERT TO DECIMAL
   001051 (0)000763 7020 00
   001052    5 00006 2341 00
   001053    777776 6010 04
                                       823  *  MOVE RESULT
   001054    6 00001 2351 14           824         LDA     ROFST,X4,PR6    GET BUF DESCR.
   001055    030000 2750 07            825         ORA     .B22+.B23,DL    MAKE IT NUM. UNSIGNED
   001056    7 00752 7551 00           826         STA     ENDSR,,PR7
   001057    0 000 0 1 120 3005 20     827         MVN     (1,,1),(1,,1),1     * MOVE
   001060 (0)000741 0000 00            828         ARG     RSDES               *  IN TEMP BUFFER
   001061    7 00752 0001 00           829         ARG     ENDSR,,PR7          *   REC
   001062 (0)001130 6040 00            830         TMI     LSE09           NEG - SIGN LOST
   001063    7 00470 2211 54           831           ICRET
   001064    000001 7100 11
                                       832  *
                                       833  *   ACSII TO FLOAT HEX (35)
                                       834  *
   001065                              835  ZIG$DBE43     NULL
   001065    000001 6230 00            836      EAX3      1
 12:42 09/05/97  FILE=ZIM$DBED.:ZIC0TSI       ENCODE ROUTINES                                            28   BMAP - B00
   001066 (0)001070 7100 00            837      TRA       SKIP43
                                       838  *
                                       839  *   ASCII TO FLOAT HEX (71)
                                       840  *
   001067                              841  ZIG$DBE44     NULL
   001067    000000 6230 00            842      EAX3      0
   001070                              843  SKIP43   NULL
   001070    000 0 000 1645 20         844      DBTCE     NNE02          CHECK FOR NON-NUMERIC DATA
   001071    6 00002 0001 14
   001072 (0)001251 0000 00
   001073    7 01061 0001 00
   001074 (0)001130 6070 00
   001075    6 00002 2351 14           845      LDA       UOFST,X4,PR6
   001076    030000 2750 07            846      ORA       .B22+.B23,DL   SET TO NUM. AND UNSIGNED
   001077    7 00752 7551 00           847      STA       ENDSR,,PR7
   001100    0 000 0 1 120 3005 20     848      MVN  (1,,1),(1,,1),1
   001101    7 00752 0001 00           849      ARG       ENDSR,,PR7          * ASCII TO DECIMAL
   001102 (0)003344 0000 13            850      ARG       FLTM0,X3
   001103 (0)003120 7010 00            851      ICCAL     ZIG$DBDFL,,CVE20
   001104 (0)001132 7020 00
   001105    5 00006 2341 00
   001106    777776 6010 04
   001107    7 00670 4721 00           852      DFSTR     CFLPT1,,PR7          SAVE FLOAT NUMBER.
   001110    001 0 120 1005 00         853      MLR       (1),(1,,1),1
   001111    7 00670 0 0 0 0010        854      ADSC9     CFLPT1,0,8,PR7
   001112    6 00001 0001 14           855      ARG       ROFST,X4,PR6
   001113    7 00470 2211 54           856      ICRET
   001114    000001 7100 11
   001115    000000 0110 00            857           EVEN
   001116
   001116    000000000000              858  ROUNDER  OCT  0,4
   001117    000000000004
                                       859  *  ERRORS DETECTED IN ENCODE ROUTINES
                                       860  *
   001120                              861  ENER1  NULL                    ILLEGAL ENCODE SPECIFIED
   001120    210647 2350 07            862         LDA     ENE1,DL
   001121 (0)001133 7100 00            863         TRA     ER1
 12:42 09/05/97  FILE=ZIM$DBED.:ZIC0TSI       ENCODE ROUTINES                                            29   BMAP - B00
   001122                              864  UEPNF  NULL    USER'S ENCODE PROC. NOT FOUND
   001122    303251 2350 07            865         LDA     EDPER,DL
   001123 (0)001133 7100 00            866         TRA     ER1
   001124                              867  UEPR   NULL                    USER'S PROC. RETURNED ERROR
   001124    012120 0350 07            868         ADLA    IDI,DL
   001125 (0)001133 7100 00            869         TRA     ER1
   001126    303271 2350 07            870  BEDX     LDA      PRE4,DL
   001127 (0)001133 7100 00            871           TRA      ER1
   001130                              872  NBTE   NULL                    NON-BLANK TRUNCATION ON ENCODE
   001130                              873  ERE08  NULL                    OVERFLOW  - E08
   001130                              874  ERE12  NULL                    OVERFLOW  - E12
   001130                              875  LSE09  NULL                    NEG SIGN LOST - E09
   001130                              876  LSE10  NULL                    NEG SIGN LOST - E10
   001130                              877  LSE11  NULL                    NEG SIGN LOST - E11
   001130                              878  LSE18  NULL                    NEG SIGN LOST - E18
   001130                              879  LSE23  NULL                    NEG SIGN LOST - E23
   001130                              880  LSE24  NULL                    NEG SIGN LOST - E24
   001130                              881  LSE25  NULL                    NEG SIGN LOST - E25
   001130                              882  LSE26  NULL                    NEG SIGN LOST - E26
   001130                              883  NNE02  NULL                    ILLEGAL TRANSFER OF NON-NUM DATA-E02
   001130                              884  NNE06  NULL                    ILLEGAL TRANSFER OF NON-NUM DATA-E06
   001130    012120 2350 07            885         LDA     IDI,DL
   001131 (0)001133 7100 00            886         TRA     ER1
                                       887  *
                                       888  *  ERRORS DETECTED IN SUBORDINATE ROUTINES
                                       889  *
   001132                              890  CVE1   NULL                    CONVERSION ERROR - E05
   001132                              891  CVE2   NULL                    CONVERSION ERROR - E08
   001132                              892  CVE3   NULL                    CONVERSION ERROR - E11
   001132                              893  CVE4   NULL                    CONVERSION ERROR - E25
   001132                              894  CVE20  NULL                    CONVERT O.P. DATA ERROR
   001132                              895  CVE21  NULL                    CONVERT O.P. DATA ERROR
   001132                              896  CVE22  NULL                    CONVERT O.P. DATA ERROR
   001132                              897  CVE27  NULL                    CONVERT O.P. DATA ERROR
   001132                              898  UEPE   NULL                    ERROR IN USER'S PROC.
   001132                              899  SCE1   NULL                    SCAN FIELD FOR LENGTH ERROR              <EHW>
   001132 (0)001133 7100 00            900         TRA     ER1
 12:42 09/05/97  FILE=ZIM$DBED.:ZIC0TSI       ENCODE ROUTINES                                            30   BMAP - B00
                                       901  *  COMMON ERROR RETURN
   001133                              902  ER1    NULL
   001133    000000 6200 00            903           EAX      X0,0              NULL AC
   001134    000000 6260 00            904           EAX      X6,0              NULL SC
   001135    6 00005 6271 14           905           EAX      X7,RCFRH,X4,PR6   GET RC
   001136  X 000000 7020 00            906           ICALT

 12:42 09/05/97  FILE=ZIM$DBED.:ZIC0TSI       FIND # OF BYTES IN VARYING FIELD                           31   BMAP - B00
                                       907         TTLS    FIND # OF BYTES IN VARYING FIELD
                                       908  *
                                       909  *  FIND # OF BYTES IN VARYING FIELD
                                       910  *
                                       911  *  INPUT - X4 = FR PTR FOR FIELD
                                       912  *
                                       913  *  OUTPUT - TCTRS CONTAINS # OF BYTES IN VARYING FIELD
                                       914  *
   001137                              915  ZIG$DBSCN NULL
   001137    7 00470 7411 56           916           ICSAV
   001140    000 0 000 1655 20         917         TCTR    (1,,1)          FIND FIRST NON-BLANK CHAR IN REVERSE
   001141    6 00002 0001 14           918         ARG     UOFST,X4,PR6
   001142 (0)001451 0000 00            919         ARG     TCTBL2          TEST CHAR TABLE
   001143    7 01061 0001 00           920         ARG     TCTRS,,PR7      SAVE RESULT
   001144    007777 2350 07            921         LDA     =O7777,DL       MASK FOR COUNT ONLY
   001145    7 01061 3551 00           922         ANSA    TCTRS,,PR7
   001146    6 00002 3751 14           923         ANA     UOFST,X4,PR6    GET LENGTH IN UWA DESC
   001147    7 01061 1351 00           924         SBLA    TCTRS,,PR7
   001150    7 01061 7551 00           925         STA     TCTRS,,PR7      # OF BYTES IN VARYING FIELD
   001151    7 00470 2211 54           926           ICRET
   001152    000001 7100 11

 12:42 09/05/97  FILE=ZIM$DBED.:ZIC0TSI       32 BIT NO. CONVERSION ROUTINE                              32   BMAP - B00
                                       927         TTLS    32 BIT NO. CONVERSION ROUTINE
                                       928  *
                                       929  *  CONVERT IBM 16 OR 32 BIT NO. IN UWA TO 36 BIT BINARY
                                       930  *
                                       931  *  INPUT - X4  FR PTR FOR FIELD
                                       932  *
                                       933  *  OUTPUT- AR  36 BIT BINARY NO.
                                       934  *
   001153                              935  ZIG$DBCI1 NULL
   001153    7 00470 7411 56           936           ICSAV
   001154    000 0 100 1015 20         937         MRL     (1,,1),(1),0        * MOVE
   001155    6 00002 0001 14           938         ARG     UOFST,X4,PR6        *  16 OR 32 BIT NO. TO
   001156    7 01006 0 0 0 0004        939         ADSC9   B32N,0,4,PR7        *   WORK SPACE
   001157    000001 6210 00            940         EAX     X1,1            INIT X1 FOR RPD
   001160    000010 6220 00            941         EAX     X2,8            INIT X2 FOR RPD
   001161    7 01006 2361 00           942         LDQ     B32N,,PR7       GET IBM NO.
                                       943         IFE     .N6685,1,6
   001162    000004 2200 03            944         LDX     X0,4,DU
   001163                              945  DBC1   NULL
   001163    000000 7360 11            946         QLS     ,X1
   001164    000000 7370 12            947         LLS     ,X2
   001165    000001 1200 03            948         SBLX    X0,1,DU
   001166 (0)001163 6010 00            949         TNZ     DBC1
                                       950         IFE     .N6685,0,3
                                       951         RPD     4,X0            * MOVE
                                       952         QLS     ,X1             *  32 BIT RT. JUST. NO. TO
                                       953         LLS     ,X2             *   AR
   001167    000004 7350 00            954         ALS     4
   001170    000004 7310 00            955         ARS     4               PROPAGATE SIGN FOR 32 BIT NO.
   001171    6 00002 7211 14           956         LXL     X1,UOFST,X4,PR6  GET N FROM DESCR.
   001172    000004 3010 03            957         CANX    X1,.B15,DU      IS LENGTH 4
   001173 (0)001176 6010 00            958         TNZ     *+3             YES
   001174    000024 7350 00            959         ALS     20
   001175    000024 7310 00            960         ARS     20              PROPAGATE SIGN FOR 16 BIT NO.
   001176    7 00470 2211 54           961           ICRET
   001177    000001 7100 11

 12:42 09/05/97  FILE=ZIM$DBED.:ZIC0TSI       OVERPUNCHED 9-BIT CONVERSION ROUTINE                       33   BMAP - B00
                                       962         TTLS    OVERPUNCHED 9-BIT CONVERSION ROUTINE
                                       963  *
                                       964  *  CONVERT 9-BIT O.P. NO. IN UWA TO 4-BIT  LEADING SIGN NO. IN FBUF
                                       965  *
                                       966  *  INPUT - X4  FR PTR
                                       967  *
                                       968  *  OUTPUT- FBUF CONTAINS 4-BIT NO.
                                       969  *
   001200                              970  ZIG$DBCO1 NULL
   001200    7 00470 7411 56           971           ICSAV
                                       972  *  CONVERT O.P. NO. TO 6-BIT BCD DATA IN FBUF
   001201    077701 3350 07            973         LCA     =O077701,DL
   001202    6 00002 3751 14           974         ANA     UOFST,X4,PR6    REMOVE S,SF FROM UWA DESCR
   001203    7 00752 7551 00           975         STA     ENDSR,,PR7      SAVE
   001204    6 00002 7221 14           976         LXL     X2,UOFST,X4,PR6  GET LENGTH
   001205    000077 3620 03            977         ANX     X2,=O77,DU
   001206    000 0 160 1605 20         978         MVT     (1,,1),(1,1,1)      * CONVERT
   001207    7 00752 0001 00           979         ARG     ENDSR,,PR7          *  9-BIT DATA
   001210    7 01024 0001 00           980         ARG     FBUF6,,PR7          *   6-BIT DATA
   001211 (0)001211 0000 00            981         ARG     C1TBL-10
                                       982  *  CONVERT 6-BIT O.P. DATA TO 4-BIT LEADING SIGN NO.
   001212    400 0 120 1015 60         983         MRL     (1,1,1),(1,,1),400        * MOVE
   001213    7 01024 0001 00           984         ARG     FBUF6,,PR7                *  6-BIT O.P. TO
   001214    7 01027 0001 00           985         ARG     FBUF4,,PR7                *   4-BIT BUF
   001215    6 00002 2351 14           986         LDA     UOFST,X4,PR6    GET UWA DESCRIPTOR
   001216    007700 3750 07            987         ANA     =O7700,DL       JUST THE SCALE FACTOR
   001217    7 01020 2751 00           988         ORA     FBUF,,PR7       PUT SF IN 4-BIT DESCRIP
   001220    7 00757 7551 00           989         STA     DCDSR,,PR7      SAVE IN TEMP LOCATION
                                       990  *  RETURN
   001221    7 00470 2211 54           991           ICRET
   001222    000001 7100 11
                                       992  *  9-BIT O.P. TO  6-BIT O.P. CONVERSION TABLE
   001223                              993  C1TBL  NULL
   001223    000000000000              994         OCT     000000000000             +            050
   001224    000040000000              995         OCT     000040000000        -                 054
   001225    000001002003              996         OCT     000001002003     0  1  2  3           060
   001226    004005006007              997         OCT     004005006007     4  5  6  7           064
 12:42 09/05/97  FILE=ZIM$DBED.:ZIC0TSI       OVERPUNCHED 9-BIT CONVERSION ROUTINE                       34   BMAP - B00
   001227    010011000000              998         OCT     010011000000     8  9                 070
   001230    000000000000              999         OCT     0                                     074
   001231    000001002003             1000         OCT     000001002003       +1 +2 +3           100
   001232    004005006007             1001         OCT     004005006007    +4 +5 +6 +7           104
   001233    010011041042             1002         OCT     010011041042    +8 +9 -1 -2           110
   001234    043044045046             1003         OCT     043044045046    -3 -4 -5 -6           114
   001235    047050051000             1004         OCT     047050051000    -7 -8 -9  X           120
   001236                             1005         BSS     2
   001240    000000040000             1006         OCT     000000040000             -0           134
   001241                             1007         BSS     6
   001247    000000000000             1008         OCT     000000000000             +0           170
   001250    000040000000             1009         OCT     000040000000       -0                 174

 12:42 09/05/97  FILE=ZIM$DBED.:ZIC0TSI       TABLE FOR TCT INSTRUCTION                                  35   BMAP - B00
                                      1010         TTLS    TABLE FOR TCT INSTRUCTION
                                      1011  *
                                      1012  *
                                      1013  *  THIS TABLE IS USED FOR THE TEST CHARACTER AND TRANSLATE
                                      1014  *     INSTRUCTIONS FOR BOTH ENCODE AND DECODE ROUTINES.
                                      1015  *     THE ONLY VALID CHARACTERS ARE 0 THRU 9;  ALL
                                      1016  *     NON-NUMERIC CHARACTERS ARE INVALID.
                                      1017  *
                                      1018  *
   001251                             1019  TCTBL  NULL
   001251    777001002003             1020           OCT      777001002003
   001252    004005006007             1021           OCT      004005006007
   001253    010011012013             1022           OCT      010011012013
   001254    014015016017             1023           OCT      014015016017
   001255    020021022023             1024           OCT      020021022023
   001256    024025026027             1025           OCT      024025026027
   001257    030031032033             1026           OCT      030031032033
   001260    034035036037             1027           OCT      034035036037
   001261    040041042043             1028           OCT      040041042043
   001262    044045046047             1029           OCT      044045046047
   001263    050051052053             1030           OCT      050051052053
   001264    054055056057             1031           OCT      054055056057
   001265    000000000000             1032           OCT      000000000000      0   1   2   3
   001266    000000000000             1033           OCT      000000000000      4   5   6   7
   001267    000000072073             1034           OCT      000000072073      8   9
   001270    074075076077             1035           OCT      074075076077
   001271    100101102103             1036           OCT      100101102103
   001272    104105106107             1037           OCT      104105106107
   001273    110111112113             1038           OCT      110111112113
   001274    114115116117             1039           OCT      114115116117
   001275    120121122123             1040           OCT      120121122123
   001276    124125126127             1041           OCT      124125126127
   001277    130131132133             1042           OCT      130131132133
   001300    134135136137             1043           OCT      134135136137
   001301    140141142143             1044           OCT      140141142143
   001302    144145146147             1045           OCT      144145146147
   001303    150151152153             1046           OCT      150151152153
 12:42 09/05/97  FILE=ZIM$DBED.:ZIC0TSI       TABLE FOR TCT INSTRUCTION                                  36   BMAP - B00
   001304    154155156157             1047           OCT      154155156157
   001305    160161162163             1048           OCT      160161162163
   001306    164165166167             1049           OCT      164165166167
   001307    170171172173             1050           OCT      170171172173
   001310    174175176177             1051           OCT      174175176177
   001311    200201202203             1052           OCT      200201202203
   001312    204205206207             1053           OCT      204205206207
   001313    210211212213             1054           OCT      210211212213
   001314    214215216217             1055           OCT      214215216217
   001315    220221222223             1056           OCT      220221222223
   001316    224225226227             1057           OCT      224225226227
   001317    230231232233             1058           OCT      230231232233
   001320    234235236237             1059           OCT      234235236237
   001321    240241242243             1060           OCT      240241242243
   001322    244245246247             1061           OCT      244245246247
   001323    250251252253             1062           OCT      250251252253
   001324    254255256257             1063           OCT      254255256257
   001325    260261262263             1064           OCT      260261262263
   001326    264265266267             1065           OCT      264265266267
   001327    270271272273             1066           OCT      270271272273
   001330    274275276277             1067           OCT      274275276277
   001331    300301302303             1068           OCT      300301302303
   001332    304305306307             1069           OCT      304305306307
   001333    310311312313             1070           OCT      310311312313
   001334    314315316317             1071           OCT      314315316317
   001335    320321322323             1072           OCT      320321322323
   001336    324325326327             1073           OCT      324325326327
   001337    330331332333             1074           OCT      330331332333
   001340    334335336337             1075           OCT      334335336337
   001341    340341342343             1076           OCT      340341342343
   001342    344345346347             1077           OCT      344345346347
   001343    350351352353             1078           OCT      350351352353
   001344    354355356357             1079           OCT      354355356357
   001345    360361362363             1080           OCT      360361362363
   001346    364365366367             1081           OCT      364365366367
   001347    370371372373             1082           OCT      370371372373
   001350    374375376377             1083           OCT      374375376377
 12:42 09/05/97  FILE=ZIM$DBED.:ZIC0TSI       TABLE FOR TCT INSTRUCTION                                  37   BMAP - B00
   001351    400401402403             1084           OCT      400401402403
   001352    404405406407             1085           OCT      404405406407
   001353    410411412413             1086           OCT      410411412413
   001354    414415416417             1087           OCT      414415416417
   001355    420421422423             1088           OCT      420421422423
   001356    424425426427             1089           OCT      424425426427
   001357    430431432433             1090           OCT      430431432433
   001360    434435436437             1091           OCT      434435436437
   001361    440441442443             1092           OCT      440441442443
   001362    444445446447             1093           OCT      444445446447
   001363    450451452453             1094           OCT      450451452453
   001364    454455456457             1095           OCT      454455456457
   001365    460461462463             1096           OCT      460461462463
   001366    464465466467             1097           OCT      464465466467
   001367    470471472473             1098           OCT      470471472473
   001370    474475476477             1099           OCT      474475476477
   001371    500501502503             1100           OCT      500501502503
   001372    504505506507             1101           OCT      504505506507
   001373    510511512513             1102           OCT      510511512513
   001374    514515516517             1103           OCT      514515516517
   001375    520521522523             1104           OCT      520521522523
   001376    524525526527             1105           OCT      524525526527
   001377    530531532533             1106           OCT      530531532533
   001400    534535536537             1107           OCT      534535536537
   001401    540541542543             1108           OCT      540541542543
   001402    544545546547             1109           OCT      544545546547
   001403    550551552553             1110           OCT      550551552553
   001404    554555556557             1111           OCT      554555556557
   001405    560561562563             1112           OCT      560561562563
   001406    564565566567             1113           OCT      564565566567
   001407    570571572573             1114           OCT      570571572573
   001410    574575576577             1115           OCT      574575576577
   001411    600601602603             1116           OCT      600601602603
   001412    604605606607             1117           OCT      604605606607
   001413    610611612613             1118           OCT      610611612613
   001414    614615616617             1119           OCT      614615616617
   001415    620621622623             1120           OCT      620621622623
 12:42 09/05/97  FILE=ZIM$DBED.:ZIC0TSI       TABLE FOR TCT INSTRUCTION                                  38   BMAP - B00
   001416    624625626627             1121           OCT      624625626627
   001417    630631632633             1122           OCT      630631632633
   001420    634635636637             1123           OCT      634635636637
   001421    640641642643             1124           OCT      640641642643
   001422    644645646647             1125           OCT      644645646647
   001423    650651652653             1126           OCT      650651652653
   001424    654655656657             1127           OCT      654655656657
   001425    660661662663             1128           OCT      660661662663
   001426    664665666667             1129           OCT      664665666667
   001427    670671672673             1130           OCT      670671672673
   001430    674675676677             1131           OCT      674675676677
   001431    700701702703             1132           OCT      700701702703
   001432    704705706707             1133           OCT      704705706707
   001433    710711712713             1134           OCT      710711712713
   001434    714715716717             1135           OCT      714715716717
   001435    720721722723             1136           OCT      720721722723
   001436    724725726727             1137           OCT      724725726727
   001437    730731732733             1138           OCT      730731732733
   001440    734735736737             1139           OCT      734735736737
   001441    740741742743             1140           OCT      740741742743
   001442    744745746747             1141           OCT      744745746747
   001443    750751752753             1142           OCT      750751752753
   001444    754755756757             1143           OCT      754755756757
   001445    760761762763             1144           OCT      760761762763
   001446    764765766767             1145           OCT      764765766767
   001447    770771772773             1146           OCT      770771772773
   001450    774775776777             1147           OCT      774775776777

 12:42 09/05/97  FILE=ZIM$DBED.:ZIC0TSI       TABLE FOR TCT INSTRUCTION                                  39   BMAP - B00
                                      1148         EJECT
                                      1149  *
                                      1150  *
                                      1151  *  THIS TABLE IS USED FOR THE TEST CHARACTER NAD TRANSLATE
                                      1152  *  INSTRUCTION.  THE ONLY VALID CHARACTER IS BLANK
                                      1153  *
                                      1154  *
   001451                             1155  TCTBL2 NULL
   001451    777001002003             1156           OCT      777001002003
   001452    004005006007             1157           OCT      004005006007
   001453    010011012013             1158           OCT      010011012013
   001454    014015016017             1159           OCT      014015016017
   001455    020021022023             1160           OCT      020021022023
   001456    024025026027             1161           OCT      024025026027
   001457    030031032033             1162           OCT      030031032033
   001460    034035036037             1163           OCT      034035036037
   001461    000041042043             1164           OCT      000041042043      BLANK
   001462    044045046047             1165           OCT      044045046047
   001463    050051052053             1166           OCT      050051052053
   001464    054055056057             1167           OCT      054055056057
   001465    060061062063             1168           OCT      060061062063
   001466    064065066067             1169           OCT      064065066067
   001467    070071072073             1170           OCT      070071072073
   001470    074075076077             1171           OCT      074075076077
   001471    100101102103             1172           OCT      100101102103
   001472    104105106107             1173           OCT      104105106107
   001473    110111112113             1174           OCT      110111112113
   001474    114115116117             1175           OCT      114115116117
   001475    120121122123             1176           OCT      120121122123
   001476    124125126127             1177           OCT      124125126127
   001477    130131132133             1178           OCT      130131132133
   001500    134135136137             1179           OCT      134135136137
   001501    140141142143             1180           OCT      140141142143
   001502    144145146147             1181           OCT      144145146147
   001503    150151152153             1182           OCT      150151152153
   001504    154155156157             1183           OCT      154155156157
   001505    160161162163             1184           OCT      160161162163
 12:42 09/05/97  FILE=ZIM$DBED.:ZIC0TSI       TABLE FOR TCT INSTRUCTION                                  40   BMAP - B00
   001506    164165166167             1185           OCT      164165166167
   001507    170171172173             1186           OCT      170171172173
   001510    174175176177             1187           OCT      174175176177
   001511    200201202203             1188           OCT      200201202203
   001512    204205206207             1189           OCT      204205206207
   001513    210211212213             1190           OCT      210211212213
   001514    214215216217             1191           OCT      214215216217
   001515    220221222223             1192           OCT      220221222223
   001516    224225226227             1193           OCT      224225226227
   001517    230231232233             1194           OCT      230231232233
   001520    234235236237             1195           OCT      234235236237
   001521    240241242243             1196           OCT      240241242243
   001522    244245246247             1197           OCT      244245246247
   001523    250251252253             1198           OCT      250251252253
   001524    254255256257             1199           OCT      254255256257
   001525    260261262263             1200           OCT      260261262263
   001526    264265266267             1201           OCT      264265266267
   001527    270271272273             1202           OCT      270271272273
   001530    274275276277             1203           OCT      274275276277
   001531    300301302303             1204           OCT      300301302303
   001532    304305306307             1205           OCT      304305306307
   001533    310311312313             1206           OCT      310311312313
   001534    314315316317             1207           OCT      314315316317
   001535    320321322323             1208           OCT      320321322323
   001536    324325326327             1209           OCT      324325326327
   001537    330331332333             1210           OCT      330331332333
   001540    334335336337             1211           OCT      334335336337
   001541    340341342343             1212           OCT      340341342343
   001542    344345346347             1213           OCT      344345346347
   001543    350351352353             1214           OCT      350351352353
   001544    354355356357             1215           OCT      354355356357
   001545    360361362363             1216           OCT      360361362363
   001546    364365366367             1217           OCT      364365366367
   001547    370371372373             1218           OCT      370371372373
   001550    374375376377             1219           OCT      374375376377
   001551    400401402403             1220           OCT      400401402403
   001552    404405406407             1221           OCT      404405406407
 12:42 09/05/97  FILE=ZIM$DBED.:ZIC0TSI       TABLE FOR TCT INSTRUCTION                                  41   BMAP - B00
   001553    410411412413             1222           OCT      410411412413
   001554    414415416417             1223           OCT      414415416417
   001555    420421422423             1224           OCT      420421422423
   001556    424425426427             1225           OCT      424425426427
   001557    430431432433             1226           OCT      430431432433
   001560    434435436437             1227           OCT      434435436437
   001561    440441442443             1228           OCT      440441442443
   001562    444445446447             1229           OCT      444445446447
   001563    450451452453             1230           OCT      450451452453
   001564    454455456457             1231           OCT      454455456457
   001565    460461462463             1232           OCT      460461462463
   001566    464465466467             1233           OCT      464465466467
   001567    470471472473             1234           OCT      470471472473
   001570    474475476477             1235           OCT      474475476477
   001571    500501502503             1236           OCT      500501502503
   001572    504505506507             1237           OCT      504505506507
   001573    510511512513             1238           OCT      510511512513
   001574    514515516517             1239           OCT      514515516517
   001575    520521522523             1240           OCT      520521522523
   001576    524525526527             1241           OCT      524525526527
   001577    530531532533             1242           OCT      530531532533
   001600    534535536537             1243           OCT      534535536537
   001601    540541542543             1244           OCT      540541542543
   001602    544545546547             1245           OCT      544545546547
   001603    550551552553             1246           OCT      550551552553
   001604    554555556557             1247           OCT      554555556557
   001605    560561562563             1248           OCT      560561562563
   001606    564565566567             1249           OCT      564565566567
   001607    570571572573             1250           OCT      570571572573
   001610    574575576577             1251           OCT      574575576577
   001611    600601602603             1252           OCT      600601602603
   001612    604605606607             1253           OCT      604605606607
   001613    610611612613             1254           OCT      610611612613
   001614    614615616617             1255           OCT      614615616617
   001615    620621622623             1256           OCT      620621622623
   001616    624625626627             1257           OCT      624625626627
   001617    630631632633             1258           OCT      630631632633
 12:42 09/05/97  FILE=ZIM$DBED.:ZIC0TSI       TABLE FOR TCT INSTRUCTION                                  42   BMAP - B00
   001620    634635636637             1259           OCT      634635636637
   001621    640641642643             1260           OCT      640641642643
   001622    644645646647             1261           OCT      644645646647
   001623    650651652653             1262           OCT      650651652653
   001624    654655656657             1263           OCT      654655656657
   001625    660661662663             1264           OCT      660661662663
   001626    664665666667             1265           OCT      664665666667
   001627    670671672673             1266           OCT      670671672673
   001630    674675676677             1267           OCT      674675676677
   001631    700701702703             1268           OCT      700701702703
   001632    704705706707             1269           OCT      704705706707
   001633    710711712713             1270           OCT      710711712713
   001634    714715716717             1271           OCT      714715716717
   001635    720721722723             1272           OCT      720721722723
   001636    724725726727             1273           OCT      724725726727
   001637    730731732733             1274           OCT      730731732733
   001640    734735736737             1275           OCT      734735736737
   001641    740741742743             1276           OCT      740741742743
   001642    744745746747             1277           OCT      744745746747
   001643    750751752753             1278           OCT      750751752753
   001644    754755756757             1279           OCT      754755756757
   001645    760761762763             1280           OCT      760761762763
   001646    764765766767             1281           OCT      764765766767
   001647    770771772773             1282           OCT      770771772773
   001650    774775776777             1283           OCT      774775776777
                                      1284  *
                                      1285  *
                                      1286  **********************************************************************
                                      1287  *                                                                    *
                                      1288  *   Constants -                                                      *
                                      1289  *                                                                    *
                                      1290  **********************************************************************
                                      1291  *
                                      1292  *
          (0)000000001731             1293  FACTOR1 EQU  *+8*6      Table of 1.6**(16*E1) for E1 = -8 to +8.1
                                      1294  *
   001651    053067064065             1295         EDEC    24A+7.458340731200206743290E-27      (E1 = -8)
 12:42 09/05/97  FILE=ZIM$DBED.:ZIC0TSI       TABLE FOR TCT INSTRUCTION                                  43   BMAP - B00
   001652    070063064060
   001653    067063061062
   001654    060060062060
   001655    066067064063
   001656    062071060320
   001657    053061063067             1296         EDEC    24A+1.375821026829739776367E-23      (E1 = -7)
   001660    065070062061
   001661    060062066070
   001662    062071067063
   001663    071067067066
   001664    063066067324
   001665    053062065063             1297         EDEC    24A+2.537941837315649223274E-20      (E1 = -6)
   001666    067071064061
   001667    070063067063
   001670    061065066064
   001671    071062062063
   001672    062067064327
   001673    053064066070             1298         EDEC    24A+4.681676354692198327155E-17      (E1 = -5)
   001674    061066067066
   001675    063065064066
   001676    071062061071
   001677    070063062067
   001700    061065065332
   001701    053070066063             1299         EDEC    24A+8.636168555094444625386E-14      (E1 = -4)
   001702    066061066070
   001703    065065065060
   001704    071064064064
   001705    064066062065
   001706    063070066335
   001707    053061065071             1300         EDEC    24A+1.593091911132452277029E-10      (E1 = -3)
   001710    063060071061
   001711    071061061061
   001712    063062064065
   001713    062062067067
   001714    060062071341
   001715    053062071063             1301         EDEC    24A+2.938735877055718769922E-7       (E1 = -2)
   001716    070067063065
 12:42 09/05/97  FILE=ZIM$DBED.:ZIC0TSI       TABLE FOR TCT INSTRUCTION                                  44   BMAP - B00
   001717    070067067060
   001720    065065067061
   001721    070067066071
   001722    071062062344
   001723    053065064062             1302         EDEC    24A+5.421010862427522170037E-4       (E1 = -1)
   001724    061060061060
   001725    070066062064
   001726    062067065062
   001727    062061067060
   001730    060063067347
   001731    053061060060             1303         EDEC    24A+1.000000000000000000000E0        (E1 = 0)
   001732    060060060060
   001733    060060060060
   001734    060060060060
   001735    060060060060
   001736    060060060353
   001737    053061070064             1304         EDEC    24A+1.844674407370955161600E3        (E1 = 1)
   001740    064066067064
   001741    064060067063
   001742    067060071065
   001743    065061066061
   001744    066060060356
   001745    053063064060             1305         EDEC    24A+3.402823669209384634633E6        (E1 = 2)
   001746    062070062063
   001747    066066071062
   001750    060071063070
   001751    064066063064
   001752    066063063361
   001753    053066062067             1306         EDEC    24A+6.277101735386680763833E9        (E1 = 3)
   001754    067061060061
   001755    067063065063
   001756    070066066070
   001757    060067066063
   001760    070063063364
   001761    053061061065             1307         EDEC    24A+1.157920892373161954235E13       (E1 = 4)
   001762    067071062060
   001763    070071062063
 12:42 09/05/97  FILE=ZIM$DBED.:ZIC0TSI       TABLE FOR TCT INSTRUCTION                                  45   BMAP - B00
   001764    067063061066
   001765    061071065064
   001766    062063065370
   001767    053062061063             1308         EDEC    24A+2.135987035920910082393E16       (E1 = 5)
   001770    065071070067
   001771    060063065071
   001772    062060071061
   001773    060060070062
   001774    063071063373
   001775    053063071064             1309         EDEC    24A+3.940200619639447921223E19       (E1 = 6)
   001776    060062060060
   001777    066061071066
   002000    063071064064
   002001    067071062061
   002002    062062063376
   002003    053067062066             1310         EDEC    24A+7.268387242956068905481E22       (E1 = 7)
   002004    070063070067
   002005    062064062071
   002006    065066060066
   002007    070071060065
   002010    064070061001
   002011    053061063064             1311         EDEC    24A+1.340780792994259709955E26       (E1 = 8)
   002012    060067070060
   002013    067071062071
   002014    071064062065
   002015    071067060071
   002016    071065065005
                                      1312  *
                                      1313  *
   002017                             1314  FACTOR2 NULL            Table of 16**(E2-7) * 2**-71 for E2 = 0 to 15.
                                      1315  *
   002017    053061065067             1316         EDEC    24A+1.577721810442023610823E-30      (E2 = 0)
   002020    067067062061
   002021    070061060064
   002022    064062060062
   002023    063066061060
   002024    070062063315
 12:42 09/05/97  FILE=ZIM$DBED.:ZIC0TSI       TABLE FOR TCT INSTRUCTION                                  46   BMAP - B00
   002025    053062065062             1317         EDEC    24A+2.524354896707237777317E-29      (E2 = 1)
   002026    064063065064
   002027    070071066067
   002030    060067062063
   002031    067067067067
   002032    063061067316
   002033    053064060063             1318         EDEC    24A+4.038967834731580443708E-28      (E2 = 2)
   002034    070071066067
   002035    070063064067
   002036    063061065070
   002037    060064064063
   002040    067060070317
   002041    053066064066             1319         EDEC    24A+6.462348535570528709933E-27      (E2 = 3)
   002042    062063064070
   002043    065063065065
   002044    067060065062
   002045    070067060071
   002046    071063063320
   002047    053061060063             1320         EDEC    24A+1.033975765691284593589E-25      (E2 = 4)
   002050    063071067065
   002051    067066065066
   002052    071061062070
   002053    064065071063
   002054    065070071322
   002055    053061066065             1321         EDEC    24A+1.654361225106055349743E-24      (E2 = 5)
   002056    064063066061
   002057    062062065061
   002060    060066060065
   002061    065063064071
   002062    067064063323
   002063    053062066064             1322         EDEC    24A+2.646977960169688559588E-23      (E2 = 6)
   002064    066071067067
   002065    071066060061
   002066    066071066070
   002067    070065065071
   002070    065070070324
   002071    053064062063             1323         EDEC    24A+4.235164736271501695341E-22      (E2 = 7)
 12:42 09/05/97  FILE=ZIM$DBED.:ZIC0TSI       TABLE FOR TCT INSTRUCTION                                  47   BMAP - B00
   002072    065061066064
   002073    067063066062
   002074    067061065060
   002075    061066071065
   002076    063064061325
   002077    053066067067             1324         EDEC    24A+6.776263578034402712546E-21      (E2 = 8)
   002100    066062066063
   002101    065067070060
   002102    063064064060
   002103    062067061062
   002104    065064066326
   002105    053061060070             1325         EDEC    24A+1.084202172485504434007E-19      (E2 = 9)
   002106    064062060062
   002107    061067062064
   002110    070065065060
   002111    064064063064
   002112    060060067330
   002113    053061067063             1326         EDEC    24A+1.734723475976807094412E-18      (E2 = 10)
   002114    064067062063
   002115    064067065071
   002116    067066070060
   002117    067060071064
   002120    064061062331
   002121    053062067067             1327         EDEC    24A+2.775557561562891351059E-17      (E2 = 11)
   002122    065065065067
   002123    065066061065
   002124    066062070071
   002125    061063065061
   002126    060065071332
   002127    053064064064             1328         EDEC    24A+4.440892098500626161694E-16      (E2 = 12)
   002130    060070071062
   002131    060071070065
   002132    060060066062
   002133    066061066061
   002134    066071064333
   002135    053067061060             1329         EDEC    24A+7.105427357601001858711E-15      (E2 = 13)
   002136    065064062067
 12:42 09/05/97  FILE=ZIM$DBED.:ZIC0TSI       TABLE FOR TCT INSTRUCTION                                  48   BMAP - B00
   002137    063065067066
   002140    060061060060
   002141    061070065070
   002142    067061061334
   002143    053061061063             1330         EDEC    24A+1.136868377216160297394E-13      (E2 = 14)
   002144    066070066070
   002145    063067067062
   002146    061066061066
   002147    060062071067
   002150    063071064336
   002151    053061070061             1331         EDEC    24A+1.818989403545856475830E-12      (E2 = 15)
   002152    070071070071
   002153    064060063065
   002154    064065070065
   002155    066064067065
   002156    070063060337
                                      1332  *
                                      1333  *
                                      1334  *
   002157    065040040040             1335  FIVER  ASCII   1,5             '5   '
   002160    061040040040             1336  ONER   ASCII   1,1             '1   '
   002161    043061060060             1337  TENTH  ASCII   1,#100          '#100'
                                      1338  *
                                      1339  *
                                      1340  **********************************************************************

 12:42 09/05/97  FILE=ZIM$DBED.:ZIC0TSI       DECODE ROUTINES                                            49   BMAP - B00
                                      1341         TTLS    DECODE ROUTINES
                                      1342  *
                                      1343  *  DECODE ROUTINES
                                      1344  *  MOVE FIELD IN REC BUF TO UWA
                                      1345  *
                                      1346  *  INPUT :     X4 = FR DEF FOR FIELD
                                      1347  *        PR6 = ADDR OF SSS
                                      1348  *              PR3= ADDR OF REC BUF
                                      1349  *
                                      1350  *  EXCEPTION RETURN-
                                      1351  *    NONE
                                      1352  *  ERROR RETURN-
                                      1353  *    CODE IN AR
                                      1354  *
                                      1355  *
                                      1356  *  DECODE ERROR
                                      1357  *
   002162                             1358  ZIG$DBDCD NULL
   002162    7 00470 7411 56          1359           ICSAV
   002163    000002 4714 07           1360         LDP    PR1,UWASID,DL            UWA$
   002164    6 00000 7211 14          1361           LXL      X1,DEF,X4,PR6     GET DECODE ROUTINE NUMBER
   002165    000077 3610 03           1362           ANX      X1,.DNDX,DU       MASK OUT GARBAGE
   002166    000054 1010 03           1363           CMPX     X1,44,DU          MAX. NUMBER OF DECODE ROUTINES
   002167 (0)003422 6030 00           1364           TRC      BDCX              INVALID
   002170 (0)002171 7100 11           1365           TRA      *+1,X1            GO TO RIGHT ROUTINE
   002171 (0)002245 7100 00           1366           TRA      ZIG$DBD00
   002172 (0)002246 7100 00           1367           TRA      ZIG$DBD01
   002173 (0)002253 7100 00           1368           TRA      ZIG$DBD02
   002174 (0)002264 7100 00           1369           TRA      ZIG$DBD03
   002175 (0)002274 7100 00           1370           TRA      ZIG$DBD04
   002176 (0)002304 7100 00           1371           TRA      ZIG$DBD05
   002177 (0)002317 7100 00           1372           TRA      ZIG$DBD06
   002200 (0)002332 7100 00           1373           TRA      ZIG$DBD07
   002201 (0)002354 7100 00           1374           TRA      ZIG$DBD08
   002202 (0)002361 7100 00           1375           TRA      ZIG$DBD09
   002203 (0)002366 7100 00           1376           TRA      ZIG$DBD10
   002204 (0)002377 7100 00           1377           TRA      ZIG$DBD11
 12:42 09/05/97  FILE=ZIM$DBED.:ZIC0TSI       DECODE ROUTINES                                            50   BMAP - B00
   002205 (0)002420 7100 00           1378           TRA      ZIG$DBD12
   002206 (0)002441 7100 00           1379           TRA      ZIG$DBD13
   002207 (0)002456 7100 00           1380           TRA      ZIG$DBD14
   002210 (0)002466 7100 00           1381           TRA      ZIG$DBD15
   002211 (0)002503 7100 00           1382           TRA      ZIG$DBD16
   002212 (0)002520 7100 00           1383           TRA      ZIG$DBD17
   002213 (0)002535 7100 00           1384           TRA      ZIG$DBD18
   002214 (0)002557 7100 00           1385           TRA      ZIG$DBD19
   002215 (0)002601 7100 00           1386           TRA      ZIG$DBD20
   002216 (0)002614 7100 00           1387           TRA      ZIG$DBD21
   002217 (0)002245 7100 00           1388           TRA      ZIG$DBD00
   002220 (0)002635 7100 00           1389           TRA      ZIG$DBD23
   002221 (0)002642 7100 00           1390           TRA      ZIG$DBD24
   002222 (0)002653 7100 00           1391           TRA      ZIG$DBD25
   002223 (0)002661 7100 00           1392           TRA      ZIG$DBD26
   002224 (0)002674 7100 00           1393           TRA      ZIG$DBD27
   002225 (0)002722 7100 00           1394           TRA      ZIG$DBD28
   002226 (0)002765 7100 00           1395           TRA      ZIG$DBD29
   002227 (0)002772 7100 00           1396           TRA      ZIG$DBD30
   002230 (0)003020 7100 00           1397           TRA      ZIG$DBD31
   002231 (0)003031 7100 00           1398           TRA      ZIG$DBD32
   002232 (0)003061 7100 00           1399           TRA      ZIG$DBD33
   002233 (0)003066 7100 00           1400           TRA      ZIG$DBD34
   002234 (0)003100 7100 00           1401           TRA      ZIG$DBD35
   002235 (0)003102 7100 00           1402           TRA      ZIG$DBD36
   002236 (0)003202 7100 00           1403           TRA      ZIG$DBD37
   002237 (0)003217 7100 00           1404           TRA      ZIG$DBD38
   002240 (0)003241 7100 00           1405           TRA      ZIG$DBD39
   002241 (0)003256 7100 00           1406           TRA      ZIG$DBD40
   002242 (0)003273 7100 00           1407           TRA      ZIG$DBD41
   002243 (0)003275 7100 00           1408           TRA      ZIG$DBD42
   002244 (0)003323 7100 00           1409           TRA      ZIG$DBD43

 12:42 09/05/97  FILE=ZIM$DBED.:ZIC0TSI       DECODE ROUTINES                                            51   BMAP - B00
                                      1410           EJECT
   002245                             1411  ZIG$DBD00 NULL
                                      1412  *
   002245 (0)003416 7100 00           1413         TRA     DCER1
                                      1414  *
                                      1415  *  ASCII TO ASCII WITH BLANK FILL
                                      1416  *
   002246                             1417  ZIG$DBD01 NULL
   002246                             1418  ZIG$DBNCD NULL
                                      1419  *
   002246    040 0 120 1005 20        1420         MLR     (1,,1),(1,,1),040,0 * MOVE FIELD FROM
   002247    6 00001 0001 14          1421         ARG     ROFST,X4,PR6        *  REC BUF TO
   002250    6 00002 0001 14          1422         ARG     UOFST,X4,PR6        *   UWA (WITH ASCII BLANK FILL)
   002251    7 00470 2211 54          1423           ICRET
   002252    000001 7100 11
                                      1424  *
                                      1425  *  FIXED BINARY(17,35 OR 71) TO ASCII
                                      1426  *
   002253                             1427  ZIG$DBD02 NULL
                                      1428  *
   002253    6 00002 2351 14          1429         LDA     UOFST,X4,PR6    GET UWA DESCR.
   002254    030000 2750 07           1430         ORA     .B22+.B23,DL    MAKE IT NUM. UNSIGNED
   002255    7 00757 7551 00          1431         STA     DCDSR,,PR7
   002256    0 000 120 3015 20        1432         BTD     (1,,1),(1,,1)       * CONVERT
   002257    6 00001 0001 14          1433         ARG     ROFST,X4,PR6        *  BINARY IN REC TO
   002260    7 00757 0001 00          1434         ARG     DCDSR,,PR7          *   ASCII IN UWA
   002261 (0)003424 6040 00           1435         TMI     LSD02           NEG - SIGN IS LOST
   002262    7 00470 2211 54          1436           ICRET
   002263    000001 7100 11
                                      1437  *
                                      1438  *  FIXED BINARY(17,35 OR 71) TO DECIMAL - PLUS IS 014(8) IF 4-BIT SIGNED
                                      1439  *
   002264                             1440  ZIG$DBD03 NULL
                                      1441  *
   002264    0 000 120 3015 20        1442         BTD     (1,,1),(1,,1)   * CONVERT
   002265    6 00001 0001 14          1443         ARG     ROFST,X4,PR6    *  BINARY IN REC TO
   002266    7 01055 0001 00          1444         ARG     FBF72,,PR7      *   DEC IN BUF
 12:42 09/05/97  FILE=ZIM$DBED.:ZIC0TSI       DECODE ROUTINES                                            52   BMAP - B00
   002267    0 000 0 1 120 3005 20    1445         MVN     (1,,1),(1,,1),1     * MOVE
   002270    7 01055 0001 00          1446         ARG     FBF72,,PR7          *  DEC IN BUF TO
   002271    6 00002 0001 14          1447         ARG     UOFST,X4,PR6        *   DEC IN UWA
   002272    7 00470 2211 54          1448           ICRET
   002273    000001 7100 11
                                      1449  *
                                      1450  *  FIXED BINARY(17,35 OR 71) TO DECIMAL(PLUS 013)
                                      1451  *
   002274                             1452  ZIG$DBD04 NULL
                                      1453  *
   002274    0 000 120 3015 20        1454         BTD     (1,,1),(1,,1)       * CONVERT
   002275    6 00001 0001 14          1455         ARG     ROFST,X4,PR6        *  DEC IN REC TO
   002276    7 01055 0001 00          1456         ARG     FBF72,,PR7      *   DEC IN BUF
   002277    1 000 0 1 120 3005 20    1457         MVN     (1,,1),(1,,1),1,1   * MOVE
   002300    7 01055 0001 00          1458         ARG     FBF72,,PR7          *  DEC IN BUF TO
   002301    6 00002 0001 14          1459         ARG     UOFST,X4,PR6        *   DEC IN UWA
   002302    7 00470 2211 54          1460           ICRET
   002303    000001 7100 11
                                      1461  *
                                      1462  *  FIXED BINARY(17,35,71) TO UNPACKED DECIMAL WITH OVERPUNCH IN MSD
                                      1463  *
   002304                             1464  ZIG$DBD05 NULL
                                      1465  *
   002304    0 000 120 3015 20        1466         BTD     (1,,1),(1,,1)       * CONVERT
   002305    6 00001 0001 14          1467         ARG     ROFST,X4,PR6        *  BIN NO. IN REC TO
   002306    7 01020 0001 00          1468         ARG     FBUF,,PR7           *   DEC
   002307    7 01021 2351 00          1469         LDA     FBUFU,,PR7      GET 4-BIT BUF DESCRIP LESS SIGN
   002310    7 00752 7551 00          1470         STA     ENDSR,,PR7      SAVE FOR MOVE IN .DBC02
   002311 (0)003475 7010 00           1471         ICCAL   ZIG$DBCO2,,CVE23    CONVERT DEC TO O.P. NO.
   002312 (0)003426 7020 00
   002313    5 00006 2341 00
   002314    777776 6010 04
   002315    7 00470 2211 54          1472           ICRET
   002316    000001 7100 11
                                      1473  *
                                      1474  *  FIXED BINARY(17,35,71) TO UNPACKED DECIMAL WITH OVERPUNCH IN LSD
                                      1475  *
 12:42 09/05/97  FILE=ZIM$DBED.:ZIC0TSI       DECODE ROUTINES                                            53   BMAP - B00
   002317                             1476  ZIG$DBD06 NULL
                                      1477  *
   002317    0 000 120 3015 20        1478         BTD     (1,,1),(1,,1)       * CONVERT
   002320    6 00001 0001 14          1479         ARG     ROFST,X4,PR6        *  BIN NO. IN REC TO
   002321    7 01020 0001 00          1480         ARG     FBUF,,PR7           *   DEC
   002322    7 01021 2351 00          1481         LDA     FBUFU,,PR7      GET 4-BIT BUF DESCRIP LESS SIGN
   002323    7 00752 7551 00          1482         STA     ENDSR,,PR7      SAVE FOR MOVE IN .DBC03
   002324 (0)003503 7010 00           1483         ICCAL   ZIG$DBCO3,,CVE24    CONVERT DEC TO O.P. NO.
   002325 (0)003426 7020 00
   002326    5 00006 2341 00
   002327    777776 6010 04
   002330    7 00470 2211 54          1484           ICRET
   002331    000001 7100 11
                                      1485  *
                                      1486  *  FIXED BINARY(17,35,71) TO IBM FIXED BINARY(15 OR 31)
                                      1487  *
   002332                             1488  ZIG$DBD07 NULL
                                      1489  *
   002332    000 0 100 1015 20        1490         MRL     (1,,1),(1)          * MOVE
   002333    6 00001 0001 14          1491         ARG     ROFST,X4,PR6        *  BIN NO. IN REC TO
   002334    7 01056 0 0 0 0010       1492         ADSC9   B72N,0,8,PR7        *   WORK SPACE
   002335    7 01056 2371 00          1493         LDAQ    B72N,,PR7       CONVERT NO TO 36-BIT BINARY
   002336    000044 7370 00           1494         LLS     36
   002337 (0)003420 6030 00           1495         TRC     CVE07           ERROR - WONT FIT
   002340    000044 7730 00           1496         LRL     36              BACK INTO Q
   002341    6 00001 7211 14          1497         LXL     X1,ROFST,X4,PR6  GET LENGTH
   002342    000004 3010 03           1498         CANX    X1,.B15,DU      IS IT 4
   002343 (0)002346 6010 00           1499         TNZ     *+3             YES
   002344    000022 7360 00           1500         QLS     18
   002345    000022 7320 00           1501         QRS     18              EXTEND SIGN BIT TO QU
   002346 (0)003433 7010 00           1502         ICCAL   ZIG$DBCI2,,CVE10 CONVERT TO IBM FIXED BIN
   002347 (0)003426 7020 00
   002350    5 00006 2341 00
   002351    777776 6010 04
   002352    7 00470 2211 54          1503           ICRET
   002353    000001 7100 11
                                      1504  *
 12:42 09/05/97  FILE=ZIM$DBED.:ZIC0TSI       DECODE ROUTINES                                            54   BMAP - B00
                                      1505  *  DECIMAL TO DECIMAL(PLUS 014)
                                      1506  *
   002354                             1507  ZIG$DBD08 NULL
                                      1508  *
   002354    0 000 0 1 120 3005 20    1509         MVN     (1,,1),(1,,1),1     * MOVE
   002355    6 00001 0001 14          1510         ARG     ROFST,X4,PR6        *  FLD IN REC TO
   002356    6 00002 0001 14          1511         ARG     UOFST,X4,PR6        *   FLD IN UWA
   002357    7 00470 2211 54          1512           ICRET
   002360    000001 7100 11
                                      1513  *
                                      1514  *  DECIMAL TO DECIMAL(PLUS 013)
                                      1515  *
   002361                             1516  ZIG$DBD09 NULL
                                      1517  *
   002361    1 000 0 1 120 3005 20    1518         MVN     (1,,1),(1,,1),1,1   * MOVE
   002362    6 00001 0001 14          1519         ARG     ROFST,X4,PR6        *  FLD IN REC TO
   002363    6 00002 0001 14          1520         ARG     UOFST,X4,PR6        *   FLD IN UWA
   002364    7 00470 2211 54          1521           ICRET
   002365    000001 7100 11
                                      1522  *
                                      1523  *  DECIMAL TO ASCII
                                      1524  *
   002366                             1525  ZIG$DBD10 NULL
                                      1526  *
   002366    6 00002 2351 14          1527         LDA     UOFST,X4,PR6    GET UWA DESCR.
   002367    030000 2750 07           1528         ORA     .B22+.B23,DL    MAKE IT NUMER. UNSIGNED
   002370    7 00757 7551 00          1529         STA     DCDSR,,PR7      SAVE FOR MVN
   002371    0 000 0 1 120 3005 20    1530         MVN     (1,,1),(1,,1),1     * MOVE
   002372    6 00001 0001 14          1531         ARG     ROFST,X4,PR6        *  FLD IN REC TO
   002373    7 00757 0001 00          1532         ARG     DCDSR,,PR7          *   FLD IN UWA
   002374 (0)003424 6040 00           1533         TMI     LSD10           NEG - SIGN IS LOST
   002375    7 00470 2211 54          1534           ICRET
   002376    000001 7100 11
                                      1535  *
                                      1536  *  DECIMAL TO UNPACKED DECIMAL WITH OVERPUNCH IN MSD
                                      1537  *
   002377                             1538  ZIG$DBD11 NULL
 12:42 09/05/97  FILE=ZIM$DBED.:ZIC0TSI       DECODE ROUTINES                                            55   BMAP - B00
                                      1539  *
   002377    6 00001 2351 14          1540         LDA     ROFST,X4,PR6    GET BUFFER DESCRIPTOR
   002400    007700 3750 07           1541         ANA     =O7700,DL       JUST THE SCALE FACTOR
   002401    7 01020 2751 00          1542         ORA     FBUF,,PR7       PUT SF IN 4-BIT BUF DESCRIP
   002402    7 00757 7551 00          1543         STA     DCDSR,,PR7      SAVE
   002403    0 000 0 1 120 3005 20    1544         MVN     (1,,1),(1,,1),1     * MOVE
   002404    6 00001 0001 14          1545         ARG     ROFST,X4,PR6        *  DEC IN REC TO
   002405    7 00757 0001 00          1546         ARG     DCDSR,,PR7          *   DEC
   002406    6 00001 2351 14          1547         LDA     ROFST,X4,PR6    GET BUFFER DESCRIPTOR
   002407    007700 3750 07           1548         ANA     =O7700,DL       JUST THE SCALE FACTOR
   002410    7 01021 2751 00          1549         ORA     FBUFU,,PR7      PUT SCALE FACTOR IN 4-BIT BUF DESCRIP
   002411    7 00752 7551 00          1550         STA     ENDSR,,PR7      SAVE FOR MOVE IN .DBC02
   002412 (0)003475 7010 00           1551         ICCAL   ZIG$DBCO2,,CVE25    CONVERT DEC TO O.P. NO.
   002413 (0)003426 7020 00
   002414    5 00006 2341 00
   002415    777776 6010 04
   002416    7 00470 2211 54          1552           ICRET
   002417    000001 7100 11
                                      1553  *
                                      1554  *  DECIMAL TO UNPACKED DECIMAL WITH OVERPUNCH IN LSD
                                      1555  *
   002420                             1556  ZIG$DBD12 NULL
                                      1557  *
   002420    6 00001 2351 14          1558         LDA     ROFST,X4,PR6    GET BUFFER DESCRIPTOR
   002421    007700 3750 07           1559         ANA     =O7700,DL       JUST THE SCALE FACTOR
   002422    7 01020 2751 00          1560         ORA     FBUF,,PR7       PUT SCALE FACTOR IN 4-BIT BUF DESCRIP
   002423    7 00757 7551 00          1561         STA     DCDSR,,PR7      SAVE
   002424    0 000 0 1 120 3005 20    1562         MVN     (1,,1),(1,,1),1     * MOVE
   002425    6 00001 0001 14          1563         ARG     ROFST,X4,PR6        *  DEC IN REC TO
   002426    7 00757 0001 00          1564         ARG     DCDSR,,PR7         *   DEC
   002427    6 00001 2351 14          1565         LDA     ROFST,X4,PR6    GET BUFFER DESCRIPTOR
   002430    007700 3750 07           1566         ANA     =O7700,DL       JUST THE SCALE FACTOR
   002431    7 01021 2751 00          1567         ORA     FBUFU,,PR7      PUT SF IN 4-BIT BUF DESCR LESS SIGN
   002432    7 00752 7551 00          1568         STA     ENDSR,,PR7      SAVE FOR MOVE IN .DBC03
   002433 (0)003503 7010 00           1569         ICCAL   ZIG$DBCO3,,CVE26    CONVERT DEC TO O.P. NO.
   002434 (0)003426 7020 00
   002435    5 00006 2341 00
 12:42 09/05/97  FILE=ZIM$DBED.:ZIC0TSI       DECODE ROUTINES                                            56   BMAP - B00
   002436    777776 6010 04
   002437    7 00470 2211 54          1570           ICRET
   002440    000001 7100 11
                                      1571  *
                                      1572  *  DECIMAL TO IBM FIXED BINARY(15 OR 31)
                                      1573  *
   002441                             1574  ZIG$DBD13 NULL
                                      1575  *
   002441    0 000 0 1 120 3005 20    1576         MVN     (1,,1),(1,,1),1     * MOVE
   002442    6 00001 0001 14          1577         ARG     ROFST,X4,PR6        *  DEC IN REC TO
   002443    7 01026 0001 00          1578         ARG     FBUF1,,PR7          *   4-BIT BUF
   002444    000 100 3055 20          1579         DTB     (1,,1),(1)          * CONVERT
   002445    7 01026 0001 00          1580         ARG     FBUF1,,PR7          *  DEC IN 4-BIT BUF TO
   002446    7 01007 0 0 0 00 04      1581         NDSC9   B36N,0,4,0,0,PR7    *   BIN IN WORK SPACE
   002447    7 01007 2361 00          1582         LDQ     B36N,,PR7
   002450 (0)003433 7010 00           1583         ICCAL   ZIG$DBCI2,,CVE11 CONVERT TO IBM FIXED BIN
   002451 (0)003426 7020 00
   002452    5 00006 2341 00
   002453    777776 6010 04
   002454    7 00470 2211 54          1584           ICRET
   002455    000001 7100 11
                                      1585  *
                                      1586  *  DECIMAL TO FIXED BINARY(35)
                                      1587  *
   002456                             1588  ZIG$DBD14 NULL
                                      1589  *
   002456    0 000 0 1 120 3005 20    1590         MVN     (1,,1),(1,,1),1     * MOVE
   002457    6 00001 0001 14          1591         ARG     ROFST,X4,PR6        *  DEC IN REC TO
   002460    7 01026 0001 00          1592         ARG     FBUF1,,PR7          *   DEC IN BUF
   002461    000 120 3055 20          1593         DTB     (1,,1),(1,,1)       * CONVERT
   002462    7 01026 0001 00          1594         ARG     FBUF1,,PR7      *  DEC IN BUF TO
   002463    6 00002 0001 14          1595         ARG     UOFST,X4,PR6        *   BINARY IN UWA
   002464    7 00470 2211 54          1596           ICRET
   002465    000001 7100 11
                                      1597  *
                                      1598  *  ASCII TO FIXED BINARY(35)
                                      1599  *
 12:42 09/05/97  FILE=ZIM$DBED.:ZIC0TSI       DECODE ROUTINES                                            57   BMAP - B00
   002466                             1600  ZIG$DBD15 NULL
                                      1601  *
   002466    000 0 000 1645 20        1602         DBTCD   NND15           CHECK FOR NON-NUMERIC DATA
   002467    6 00001 0001 14
   002470 (0)001251 0000 00
   002471    7 01061 0001 00
   002472 (0)003424 6070 00
   002473    6 00001 2351 14          1603         LDA     ROFST,X4,PR6    GET REC DESCR.
   002474    030000 2750 07           1604         ORA     .B22+.B23,DL    MAKE IT NUMER. UNSIGNED
   002475    7 00757 7551 00          1605         STA     DCDSR,,PR7      SAVE FOR DTB
   002476    000 120 3055 20          1606         DTB     (1,,1),(1,,1)       * CONVERT
   002477    7 00757 0001 00          1607         ARG     DCDSR,,PR7          *  ASCII IN REC TO
   002500    6 00002 0001 14          1608         ARG     UOFST,X4,PR6        *   BINARY IN UWA
   002501    7 00470 2211 54          1609           ICRET
   002502    000001 7100 11
                                      1610  *
                                      1611  *  ASCII TO DECIMAL(PLUS 014)
                                      1612  *
   002503                             1613  ZIG$DBD16 NULL
                                      1614  *
   002503    000 0 000 1645 20        1615         DBTCD   NND16           CHECK FOR NON-NUMERIC DATA
   002504    6 00001 0001 14
   002505 (0)001251 0000 00
   002506    7 01061 0001 00
   002507 (0)003424 6070 00
   002510    6 00001 2351 14          1616         LDA     ROFST,X4,PR6    GET REC DESCR.
   002511    030000 2750 07           1617         ORA     .B22+.B23,DL    MAKE IT NUMER. UNSIGNED
   002512    7 00757 7551 00          1618         STA     DCDSR,,PR7      SAVE FOR MVN
   002513    0 000 0 1 120 3005 20    1619         MVN     (1,,1),(1,,1),1     * MOVE
   002514    7 00757 0001 00          1620         ARG     DCDSR,,PR7          *  ASCII IN REC TO
   002515    6 00002 0001 14          1621         ARG     UOFST,X4,PR6        *   DEC IN UWA
   002516    7 00470 2211 54          1622           ICRET
   002517    000001 7100 11
                                      1623  *
                                      1624  *  ASCII TO DECIMAL(PLUS 013)
                                      1625  *
   002520                             1626  ZIG$DBD17 NULL
 12:42 09/05/97  FILE=ZIM$DBED.:ZIC0TSI       DECODE ROUTINES                                            58   BMAP - B00
                                      1627  *
   002520    000 0 000 1645 20        1628         DBTCD   NND17           CHECK FOR NON-NUMERIC DATA
   002521    6 00001 0001 14
   002522 (0)001251 0000 00
   002523    7 01061 0001 00
   002524 (0)003424 6070 00
   002525    6 00001 2351 14          1629         LDA     ROFST,X4,PR6    GET REC DESCR.
   002526    030000 2750 07           1630         ORA     .B22+.B23,DL    MAKE IT NUMER. UNSIGNED
   002527    7 00757 7551 00          1631         STA     DCDSR,,PR7      SAVE FOR MVN
   002530    1 000 0 1 120 3005 20    1632         MVN     (1,,1),(1,,1),1,1   * MOVE
   002531    7 00757 0001 00          1633         ARG     DCDSR,,PR7          *  ASCII IN REC TO
   002532    6 00002 0001 14          1634         ARG     UOFST,X4,PR6        *   DEC IN UWA
   002533    7 00470 2211 54          1635           ICRET
   002534    000001 7100 11
                                      1636  *
                                      1637  *  ASCII TO IBM FIXED BINARY(15 OR 31
                                      1638  *
   002535                             1639  ZIG$DBD18 NULL
                                      1640  *
   002535    000 0 000 1645 20        1641         DBTCD   NND18           CHECK FOR NON-NUMERIC DATA
   002536    6 00001 0001 14
   002537 (0)001251 0000 00
   002540    7 01061 0001 00
   002541 (0)003424 6070 00
   002542    6 00001 2351 14          1642         LDA     ROFST,X4,PR6    GET REC DESCR.
   002543    030000 2750 07           1643         ORA     .B22+.B23,DL    MAKE IT NUMER. UNSIGNED
   002544    7 00757 7551 00          1644         STA     DCDSR,,PR7      SAVE
   002545    000 100 3055 20          1645         DTB     (1,,1),(1)          * CONVERT
   002546    7 00757 0001 00          1646         ARG     DCDSR,,PR7          *  ASCII IN REC TO
   002547    7 01007 0 0 0 00 04      1647         NDSC9   B36N,0,4,0,0,PR7    *   BIN IN WORK SPACE
   002550    7 01007 2361 00          1648         LDQ     B36N,,PR7
   002551 (0)003433 7010 00           1649         ICCAL   ZIG$DBCI2,,CVE12 CONVERT TO IBM FIXED BIN
   002552 (0)003426 7020 00
   002553    5 00006 2341 00
   002554    777776 6010 04
   002555    7 00470 2211 54          1650           ICRET
   002556    000001 7100 11
 12:42 09/05/97  FILE=ZIM$DBED.:ZIC0TSI       DECODE ROUTINES                                            59   BMAP - B00
                                      1651  *
                                      1652  *  ASCII TO ASCII(SCHEMA LENGTH GREATER THAN SUBSCHEMA LENGTH)
                                      1653  *                (WARNING IF NON-BLANK TRUNCATION OCCURS)
                                      1654  *
   002557                             1655  ZIG$DBD19 NULL
                                      1656  *
                                      1657  *  MOVE THE NON-TRUNCATED PORTION TO UWA
   002557    000 0 120 1005 20        1658         MLR     (1,,1),(1,,1)       * MOVE
   002560    6 00001 0001 14          1659         ARG     ROFST,X4,PR6        *  FLD IN REC TO
   002561    6 00002 0001 14          1660         ARG     UOFST,X4,PR6        *   FLD IN UWA
                                      1661  *  CHECK FOR BLANKS IN TRUNCATED PORTION OF REC
   002562    010000 3350 07           1662         LCA     =O10000,DL      AR=777777770000
   002563    6 00001 3751 14          1663         ANA     ROFST,X4,PR6    GET REC DESCR. W/O LENGTH
   002564    000005 2750 07           1664         ORA     =O05,DL         PUT IN LENGTH = A REG
   002565    7 00757 7551 00          1665         STA     DCDSR,,PR7      PUT IN WORK SPACE FOR CMPC
   002566    6 00001 2351 14          1666         LDA     ROFST,X4,PR6    GET LENGTH OF FLD IN REC
   002567    6 00002 1351 14          1667         SBLA    UOFST,X4,PR6    SUB LENGTH OF FLD IN UWA
   002570    007777 3750 07           1668         ANA     =O7777,DL       AR = LENGTH OF TRUNCATED PORTION
   002571    6 00002 7211 14          1669         LXL     X1,UOFST,X4,PR6
   002572    007777 3610 03           1670         ANX     X1,=O7777,DU    X1 = OFST TO START OF TRUNCATED PORTION
   002573    040 0 171 1064 00        1671         CMPC    ,(1,1,1,1),040      * COMPARE
   002574    000000 0 0 0 0000        1672         ADSC9   0,0,0               *  BLANK FILL TO
   002575    7 00757 0001 00          1673         ARG     DCDSR,,PR7          *   TRUNCATED PORTION IN REC
   002576 (0)003424 6010 00           1674         TNZ     NBTD            ERROR - NON-BLANK TRUNCATION
   002577    7 00470 2211 54          1675           ICRET
   002600    000001 7100 11
                                      1676  *
                                      1677  *  FIXED BIN(17) TO FIXED BIN(35)
                                      1678  *
   002601                             1679  ZIG$DBD20 NULL
                                      1680  *
   002601    000 0 100 1015 20        1681         MRL     (1,,1),(1),0    * MOVE
   002602    6 00001 0001 14          1682         ARG     ROFST,X4,PR6    *  BIN NO. IN REC TO
   002603    7 01007 0 0 0 0002       1683         ADSC9   B36N,0,2,PR7    *   WORK SPACE
   002604    7 01007 2361 00          1684         LDQ     B36N,,PR7       GET NO.
   002605    000022 7320 00           1685         QRS     18              PROPAGE SIGN BIT
   002606    7 01007 7561 00          1686         STQ     B36N,,PR7
 12:42 09/05/97  FILE=ZIM$DBED.:ZIC0TSI       DECODE ROUTINES                                            60   BMAP - B00
   002607    000 0 120 1015 00        1687         MRL     (1),(1,,1),0    * MOVE
   002610    7 01007 0 0 0 0004       1688         ADSC9   B36N,0,4,PR7    *  BIN NO. TO
   002611    6 00002 0001 14          1689         ARG     UOFST,X4,PR6    *   UWA
   002612    7 00470 2211 54          1690           ICRET
   002613    000001 7100 11
                                      1691  *
                                      1692  *  NO DECODE - USED WHEN DECODING ARGS FOR DB PROCEDURES
                                      1693  *
   002614                             1694  ZIG$DBD21 NULL
                                      1695  *
   002614    7 00470 2211 54          1696           ICRET
   002615    000001 7100 11
                                      1697  *
                                      1698  *  USER'S DECODE PROCEDURE
                                      1699  *
   002616                             1700  ZIG$DBD22 NULL
                                      1701  *
                                      1702  *  FIND THE DP
   002616    000000 6220 14           1703         EAX     X2,,X4          INIT X2 TO THE FR
   002617    010200 2350 07           1704         LDA     .PTDEC,DL       LOAD PROC. TYPE
   002620    100000 3360 07           1705         LCQ     .DBPT+1,DL      LOAD MASK
   002621                             1706  UDL1   NULL
   002621    6 77777 2221 12          1707         LDX     X2,XXDPN,X2,PR6  GET NEXT DP
   002622 (0)003412 6000 00           1708         TZE     UDPNF           NO - DECODE PROC. NOT FOUND
   002623    6 00000 2111 12          1709         CMK     DEF,X2,PR6      IS THIS THE DECODE PROC.
   002624 (0)002621 6010 00           1710         TNZ     UDL1            NO
                                      1711  *  CALL THE PROCEDURE
   002625  X 000000 7010 00           1712         ICCAL   ZIG$DBDPI,UDPR,UDPE CALL THE PROC.
   002626 (0)003426 7020 00
   002627    5 00006 2341 00
   002630    000003 6000 04
   002631    5 00006 4501 00
   002632 (0)003414 7020 00
   002633    7 00470 2211 54          1713           ICRET
   002634    000001 7100 11
                                      1714  *
                                      1715  *  BIT STRING MOVE - LEFT TO RIGHT
 12:42 09/05/97  FILE=ZIM$DBED.:ZIC0TSI       DECODE ROUTINES                                            61   BMAP - B00
                                      1716  *
   002635                             1717  ZIG$DBD23 NULL
                                      1718  *
   002635    0 00 03 0 120 0605 20    1719         CSL     (1,,1),(1,,1),03    * MOVE
   002636    6 00001 0001 14          1720         ARG     ROFST,X4,PR6        *  FLD IN REC(ARG LIST) TO
   002637    6 00002 0001 14          1721         ARG     UOFST,X4,PR6        *   FLD IN UWA
   002640    7 00470 2211 54          1722           ICRET
   002641    000001 7100 11
                                      1723  *
                                      1724  *  FIXED BIN(17,35 OR 71) TO UNSIGNED DECIMAL
                                      1725  *
   002642                             1726  ZIG$DBD24 NULL
                                      1727  *
   002642    0 000 120 3015 20        1728         BTD     (1,,1),(1,,1)       * CONVERT
   002643    6 00001 0001 14          1729         ARG     ROFST,X4,PR6        *  BIN IN REC TO
   002644    7 01055 0001 00          1730         ARG     FBF72,,PR7          *   DEC IN BUF
   002645    0 000 0 1 120 3005 20    1731         MVN     (1,,1),(1,,1),1     * MOVE
   002646    7 01055 0001 00          1732         ARG     FBF72,,PR7          *  DEC IN BUF TO
   002647    6 00002 0001 14          1733         ARG     UOFST,X4,PR6        *   DEC IN UWA
   002650 (0)003424 6040 00           1734         TMI     LSD24           NEG - SIGN IS LOST
   002651    7 00470 2211 54          1735           ICRET
   002652    000001 7100 11
                                      1736  *
                                      1737  *  SIGNED DECIMAL TO UNSIGNED DECIMAL
                                      1738  *
   002653                             1739  ZIG$DBD25 NULL
                                      1740  *
   002653    0 000 0 1 120 3005 20    1741         MVN     (1,,1),(1,,1),1     * MOVE
   002654    6 00001 0001 14          1742         ARG     ROFST,X4,PR6        *  DEC IN REC TO
   002655    6 00002 0001 14          1743         ARG     UOFST,X4,PR6        *   DEC IN UWA
   002656 (0)003424 6040 00           1744         TMI     LSD25           NEG - SIGN IS LOST
   002657    7 00470 2211 54          1745           ICRET
   002660    000001 7100 11
                                      1746  *
                                      1747  *  FIXED BINARY (71) TO FIXED BINARY (35)
                                      1748  *              RECORD DESCRIPTOR IS 9-BIT ALPHA, N=8
                                      1749  *              UWA DESCRIPTOR IS 9-BIT ALPHA, N=4
 12:42 09/05/97  FILE=ZIM$DBED.:ZIC0TSI       DECODE ROUTINES                                            62   BMAP - B00
                                      1750  *
   002661                             1751  ZIG$DBD26 NULL
                                      1752  *
   002661    000 0 100 1005 20        1753         MLR     (1,,1),(1),0        * MOVE
   002662    6 00001 0001 14          1754         ARG     ROFST,X4,PR6        *  BIN NO. IN REC BUF TO
   002663    7 01056 0 0 0 0010       1755         ADSC9   B72N,0,8,PR7        *   WORK SPACE
   002664    7 01056 2371 00          1756         LDAQ    B72N,,PR7       GET NO.
   002665    000044 7370 00           1757         LLS     36              WILL NO. FIT IN 36 BITS
   002666 (0)003424 6030 00           1758         TRC     ERD26           NO - OVERFLOW ERROR
   002667    000 0 120 1015 00        1759         MRL     (1),(1,,1),0        * MOVE
   002670    7 01056 0 0 0 0010       1760         ADSC9   B72N,0,8,PR7        *  BIN NO. IN WORK SPACE TO
   002671    6 00002 0001 14          1761         ARG     UOFST,X4,PR6        *   UWA
   002672    7 00470 2211 54          1762           ICRET
   002673    000001 7100 11
                                      1763  *
                                      1764  *  VARYING LENGTH ASCII TO FIXED LENGTH ASCII
                                      1765  *
   002674                             1766  ZIG$DBD27 NULL
                                      1767  *
                                      1768  *  BUILD EIS DESC FOR DESC IN RECORD
   002674    010000 3350 07           1769         LCA     =O10000,DL      AR = 777777770000
   002675    6 00001 3751 14          1770         ANA     ROFST,X4,PR6    GET DESC W/O LENGTH
   002676    000004 2750 07           1771         ORA     =O04,DL         LENGTH = 4
   002677    7 00757 7551 00          1772         STA     DCDSR,,PR7      PUT IN WORK SPACE FOR MOVE
                                      1773  *  MOVE DESC IN RECORD TO WORK SPACE
   002700    000 0 100 1005 20        1774         MLR     (1,,1),(1)
   002701    7 00757 0001 00          1775         ARG     DCDSR,,PR7
   002702    7 01070 0 0 0 0004       1776         ADSC9   VFDSR,,4,PR7
   002703    6 00001 2211 14          1777         LDX     X1,ROFST,X4,PR6  GET AR MODIFIER FROM DESC
   002704    700000 3610 03           1778         ANX     X1,=O700000,DU
   002705    7 01070 2411 00          1779         ORSX    X1,VFDSR,,PR7   SAVE
                                      1780  *  MOVE FIELD TO UWA
   002706    040 0 120 1005 20        1781         MLR     (1,,1),(1,,1),040
   002707    7 01070 0001 00          1782         ARG     VFDSR,,PR7
   002710    6 00002 0001 14          1783         ARG     UOFST,X4,PR6
                                      1784  *  CHECK FOR NON BLANK TRUNCATION
   002711    000000 6360 14           1785         EAQ     0,X4            GET FR OFFSET
 12:42 09/05/97  FILE=ZIM$DBED.:ZIC0TSI       DECODE ROUTINES                                            63   BMAP - B00
   002712    000022 7720 00           1786         QRL     18              MOVE TO LOWER
   002713    000006 4020 07           1787         MPY     6,DL            MAKE CHARACTER COUNT
   002714    000 0 100 1065 06        1788         CMPC    (1,,,Q),(1)
   002715    6 00002 4 1 0 0002       1789         ADSC6   UOFST,4,2,PR6
   002716    7 01070 4 1 0 0002       1790         ADSC6   VFDSR,4,2,PR7
   002717 (0)003424 6020 00           1791         TNC     NBTD            ERROR - NON-BLANK TRUNCATION
   002720    7 00470 2211 54          1792           ICRET
   002721    000001 7100 11
                                      1793  *
                                      1794  *  ASCII WITH LENGTH SPECIFIEDIN THE DBCB TO VARYING LENGTH ASCII
                                      1795  *
   002722                             1796  ZIG$DBD28 NULL
                                      1797  *
                                      1798  *  CHECK FOR NON-BLANK TRUNCATION
   002722    6 00002 7211 14          1799         LXL     X1,UOFST,X4,PR6  GET MAX LENGTH OF FIELD
   002723    007777 3610 03           1800         ANX     X1,=O7777,DU
   002724    7 01074 1011 00          1801         CMPX    X1,VFLNG,,PR7   COMPARE TO # BYTES IN FIELD
   002725 (0)003424 6020 00           1802         TNC     NBTD            ERROR - NON-BLANK TRUNCATION
                                      1803  *  BUILD EIS DESC TO PUT IN RECORD
   002726    7 01074 2351 00          1804         LDA     VRSIZ,,PR7      BYTE OFFSET OF VARYING FIELD
   002727    777777 3750 07           1805         ANA     -1,DL
   002730    000020 7350 00           1806         ALS     16              PUT IN EIS DESC FORMAT
   002731    7 01070 7551 00          1807         STA     VFDSR,,PR7      PUT INTO WORK SPACE FOR MOVE
   002732    7 01074 2351 00          1808         LDA     VFLNG,,PR7      GET LENGTH
   002733    000022 7710 00           1809         ARL     18
   002734    7 01070 2551 00          1810         ORSA    VFDSR,,PR7      SAVE IN DESC
                                      1811  *  BUILD EIS DESC WHICH DEFINES DESC IN RECORD
   002735    010000 3350 07           1812         LCA     =O10000,DL      AR = 777777770000
   002736    6 00002 3751 14          1813         ANA     UOFST,X4,PR6    GET DESC W/O LENGTH
   002737    000004 2750 07           1814         ORA     =O04,DL         LENGTH = 4 BYTES
   002740    7 00757 7551 00          1815         STA     DCDSR,,PR7      PUT INWORK SPACE FOR MOVE
                                      1816  *  MOVE EIS DESC INTO RECORD IN BUFFER
   002741    000 0 120 1005 00        1817         MLR     (1),(1,,1)
   002742    7 01070 0 0 0 0004       1818         ADSC9   VFDSR,,4,PR7
   002743    7 00757 0001 00          1819         ARG     DCDSR,,PR7
                                      1820  *  BUILD EIS DESC WITH LENGTH FROM DBCB
   002744    010000 3350 07           1821         LCA     =O10000,DL      AR = 777777770000
 12:42 09/05/97  FILE=ZIM$DBED.:ZIC0TSI       DECODE ROUTINES                                            64   BMAP - B00
   002745    6 00001 3751 14          1822         ANA     ROFST,X4,PR6    GET DESC W/O LENGTH
   002746    7 00757 7551 00          1823         STA     DCDSR,,PR7      PUT IN WORK SPACE
   002747    7 01074 2351 00          1824         LDA     VFLNG,,PR7      LENGTH FROM DBCB
   002750    000022 7710 00           1825         ARL     18              MOVE TO AL
   002751    7 00757 2551 00          1826         ORSA    DCDSR,,PR7
                                      1827  *  MOVE OUTPUT-VALUE TO BUFFER
   002752    6 00002 2351 14          1828         LDA     UOFST,X4,PR6    GET DESC
   002753    700000 3750 03           1829         ANA     =O700000,DU     ISOLATE ADDR REG
   002754    7 01070 2551 00          1830         ORSA    VFDSR,,PR7      ADD TO DESC
   002755    000 0 120 1005 20        1831         MLR     (1,,1),(1,,1)
   002756    7 00757 0001 00          1832         ARG     DCDSR,,PR7
   002757    7 01070 0001 00          1833         ARG     VFDSR,,PR7
                                      1834  *  UPDATE VARYING RECORD SIZE
   002760    7 01074 2351 00          1835         LDA     VFLNG,,PR7      GET LENGTH OF FIELD
   002761    000022 7710 00           1836         ARL     18
   002762    7 01074 0551 00          1837         ASA     VRSIZ,,PR7
   002763    7 00470 2211 54          1838           ICRET
   002764    000001 7100 11
                                      1839  *
                                      1840  *  LENGTH-OF-OUTPUT TO FIELD IN DBCB
                                      1841  *
   002765                             1842  ZIG$DBD29 NULL
                                      1843  *
   002765    000 0 100 1015 20        1844         MRL     (1,,1),(1)      *  MOVE
   002766    6 00001 0001 14          1845         ARG     ROFST,X4,PR6    *   LENGTH-OF-OUTPUT
   002767    7 01074 0 0 0 0002       1846         ADSC9   VFLNG,,2,PR7    *   TO DBCB
   002770    7 00470 2211 54          1847           ICRET
   002771    000001 7100 11
                                      1848  *
                                      1849  *  DECODE FIXED BINARY (17,35) TO FORTRAN LOGICAL
                                      1850  *
                                      1851  *    BUFFER DESCRIP IS ASCII 2 OR ASCII 4
                                      1852  *    UWA DESCRIP IS ASCII 4
                                      1853  *
                                      1854  *      IF BUFFER DATA IS 0, MOVE 0 TO UWA.
                                      1855  *      IF BUFFER DATA IS A + OR - 1, MOVE A 1 TO UWA.
                                      1856  *      ANY OTHER BUFFER DATA VALUE WILL CAUSE AN EXCEPTION.
 12:42 09/05/97  FILE=ZIM$DBED.:ZIC0TSI       DECODE ROUTINES                                            65   BMAP - B00
                                      1857  *
   002772                             1858  ZIG$DBD30 NULL
                                      1859  *
   002772    000 0 100 1015 20        1860         MRL     (1,,1),(1),0       * MOVE
   002773    6 00001 0001 14          1861         ARG     ROFST,X4,PR6       *  BINARY DATA
   002774    7 01007 0 0 0 0004       1862         ADSC9   B36N,0,4,PR7       *   TO WORKSPACE
   002775    7 01007 2351 00          1863         LDA     B36N,,PR7       GET BINARY NO.
   002776 (0)003013 6000 00           1864         TZE     MTUWA           ZERO - MOVE AS IS
   002777    000001 1150 07           1865         CMPA    =1,DL           IS IT +1
   003000 (0)003013 6000 00           1866         TZE     MTUWA           YES-GO MOVE VALUE TO UWA
   003001    6 00001 2361 14          1867         LDQ     ROFST,X4,PR6    NO - NOW CHECK FOR -1
   003002    007777 3760 07           1868         ANQ     =O7777,DL       GET LENGTH OF BUF DESCRIP
   003003    000002 1160 07           1869         CMPQ    =2,DL           IS IT FIXED BIN (17)
   003004 (0)003007 6010 00           1870         TNZ     *+3             NO
   003005    000022 7350 00           1871         ALS     18              YES - CONVERT TO FIXED BIN (35)
   003006    000022 7310 00           1872         ARS     18                PROPOGATE SIGN
   003007 (1)000002 1150 00           1873         CMPA    =-1             IS IT A -1
   003010 (0)003424 6010 00           1874         TNZ     D30ER           NO - EXCEPTION
   003011    000001 2350 07           1875         LDA     1,DL            YES - SET = TO +1
   003012    7 01007 7551 00          1876         STA     B36N,,PR7       YES - SET = +1
   003013                             1877  MTUWA  NULL
   003013    000 0 120 1015 00        1878         MRL     (1),(1,,1),0       * MOVE
   003014    7 01007 0 0 0 0004       1879         ADSC9   B36N,0,4,PR7       *  A 0 OR 1
   003015    6 00002 0001 14          1880         ARG     UOFST,X4,PR6       *   TO UWA LOGICAL DATA TYPE
   003016    7 00470 2211 54          1881           ICRET
   003017    000001 7100 11
                                      1882  *
                                      1883  *  DECODE ASCII TO ASCII WITH SPACE FILL TO WORD BOUNDARY
                                      1884  *
                                      1885  *    UWA DESCRIP IS >= BUFFER DESCRIP LENGTH
                                      1886  *    UWA CN = 0 (STARTS AT WORD BOUNDARY)
                                      1887  *
                                      1888  *    UWA DESCRIP LENGTH IS NOT EVENLY DIVISIBLE BY 4.
                                      1889  *    ROUND UP TO NEXT MULTIPLE OF 4 AND THEN MOVE
                                      1890  *    WITH SPACE FILL.
                                      1891  *
                                      1892  *    NO EXCEPTION POSSIBLE
 12:42 09/05/97  FILE=ZIM$DBED.:ZIC0TSI       DECODE ROUTINES                                            66   BMAP - B00
                                      1893  *
   003020                             1894  ZIG$DBD31 NULL
                                      1895  *
   003020    6 00002 2351 14          1896         LDA     UOFST,X4,PR6    GET UWA DESCRIP
   003021    000003 0350 07           1897         ADLA    CPW-1,DL        ROUND UP TO WORD BOUNDARY
   003022 (1)000003 3750 00           1898         ANA     =O777777777774
   003023    7 00757 7551 00          1899         STA     DCDSR,,PR7      SAVE
   003024    040 0 120 1005 20        1900         MLR     (1,,1),(1,,1),040,0   * MOVE ASCII FROM BUF
   003025    6 00001 0001 14          1901         ARG     ROFST,X4,PR6       *  TO UWA WITH BLANK FILL
   003026    7 00757 0001 00          1902         ARG     DCDSR,,PR7         *   TO WORD BOUNDARY
   003027    7 00470 2211 54          1903           ICRET
   003030    000001 7100 11
                                      1904  *
                                      1905  *  DECODE ASCII TO ASCII WITH SPACE FILL TO WORD BOUNDARY
                                      1906  *
                                      1907  *    UWA DESCRIP LENGTH < BUFFER DESCRIP LENGTH
                                      1908  *    UWA CN = 0
                                      1909  *
                                      1910  *    IF NON-BLANK TRUNCATION THEN AN EXCEPTION OCCURS
                                      1911  *    AFTER FIELD HAS BEEN MOVED.
                                      1912  *
   003031                             1913  ZIG$DBD32 NULL
                                      1914  *
                                      1915  *  MOVE THE NON-TRUNCATION PORTION TO THE UWA
   003031    6 00002 2351 14          1916         LDA     UOFST,X4,PR6    GET UWA DESCRIP
   003032    000003 0350 07           1917         ADLA    CPW-1,DL        ROUND UP TO WORD BOUNDARY
   003033 (1)000003 3750 00           1918         ANA     =O777777777774
   003034    7 00757 7551 00          1919         STA     DCDSR,,PR7      SAVE
   003035    010000 3350 07           1920         LCA     =O10000,DL      AR = 777777770000
   003036    6 00001 3751 14          1921         ANA     ROFST,X4,PR6    GET REC DESC W/O LENGTH
   003037    000005 2750 07           1922         ORA     =O05,DL         PUT IN LENGTH = A REG
   003040    7 00752 7551 00          1923         STA     ENDSR,,PR7      SAVE
   003041    6 00002 2351 14          1924         LDA     UOFST,X4,PR6
   003042    007777 3750 07           1925         ANA     =O7777,DL       GET LENGTH OF UWA DESCRIP
   003043    040 0 120 1005 60        1926         MLR     (1,1,1),(1,,1),040,0  * MOVE
   003044    7 00752 0001 00          1927         ARG     ENDSR,,PR7           *  NON-TRUNCATED PORTION
   003045    7 00757 0001 00          1928         ARG     DCDSR,,PR7           *   TO UWA WITH BLANK FILL
 12:42 09/05/97  FILE=ZIM$DBED.:ZIC0TSI       DECODE ROUTINES                                            67   BMAP - B00
                                      1929  *                                   *    TO WORD BOUNDARY
                                      1930  *  CHECK FOR BLANKS IN TRUNCATED PORTION
   003046    6 00001 2351 14          1931         LDA     ROFST,X4,PR6    GET LENGTH OF FIELD IN REC
   003047    6 00002 1351 14          1932         SBLA    UOFST,X4,PR6    SUB LENGTH OF FLD IN UWA
   003050    007777 3750 07           1933         ANA     =O7777,DL       AR = LENGTH OF TRUNCATED PORTION
   003051    6 00002 7211 14          1934         LXL     X1,UOFST,X4,PR6
   003052    007777 3610 03           1935         ANX     X1,=O7777,DU    X1 = OFST TO START OF TRUNCATED PORTION
   003053    040 0 171 1064 00        1936         CMPC    ,(1,1,1,1),040     * COMPARE
   003054    000000 0 0 0 0000        1937         ADSC9   0,0,0              *  BLANK FILL TO
   003055    7 00752 0001 00          1938         ARG     ENDSR,,PR7         *   TRUNCATED PORTION IN REC
   003056 (0)003424 6010 00           1939         TNZ     NBTD            ERROR - NON-BLANK TRUNCATION
   003057    7 00470 2211 54          1940           ICRET
   003060    000001 7100 11
                                      1941  *   ASCII TO ASCII WITHIN ZERO FILL
                                      1942  *      RECORD DESCRIPTOR IS 9 BIT ALPHA
                                      1943  *      UWA DESCRIPTOR IS 9 BIT ALPHA
                                      1944  *
   003061                             1945  ZIG$DBD33 NULL
   003061    000 0 120 1005 20        1946         MLR     (1,,1),(1,,1),0,0  *MOVE FIELD FROM
   003062    6 00001 0001 14          1947         ARG     ROFST,X4,PR6    *  REC BUFFER
   003063    6 00002 0001 14          1948         ARG     UOFST,X4,PR6    *  TO UWA (WITH BINARY 0 FILL)
                                      1949  *
   003064    7 00470 2211 54          1950         ICRET   RETURN
   003065    000001 7100 11
                                      1951  *
                                      1952  *   FLOAT BIN(71) TO FLOAT BIN(35)
                                      1953  *     RECORD DESCRIPTOR IS 9 BIT ALPHA, N=8
                                      1954  *     UWA DESCRIPTOR IS 9 BIT ALPHA, N=4
                                      1955  *
                                      1956  *     NUMBER WILL BE ROUNDED TO FIT IN SINGLE PRECISION
                                      1957  *
   003066                             1958  ZIG$DBD34 NULL
   003066    000 1 100 1005 20        1959         MLR     (1,,1),(1),,1   *MOVE
   003067    6 00001 0001 14          1960         ARG     ROFST,X4,PR6    * FLOAT BIN(71) NO. FROM REC BUF
   003070    7 00670 0 0 0 0010       1961         ADSC9   CFLPT1,0,8,PR7  * TO WORKSPACE
                                      1962  *
   003071    7 00670 4331 00          1963         DFLD    CFLPT1,,PR7     GET FLOATING PT NUMBER
 12:42 09/05/97  FILE=ZIM$DBED.:ZIC0TSI       DECODE ROUTINES                                            68   BMAP - B00
   003072    7 00672 4701 00          1964         FSTR    CFLPT2,,PR7     ROUND TO SINGLE PRECISION & STORE
                                      1965  *
   003073    000 1 120 1005 00        1966         MLR     (1),(1,,1),,1   *MOVE
   003074    7 00672 0 0 0 0004       1967         ADSC9   CFLPT2,0,4,PR7  * ROUNDED SINGLE PREC FLOAT BIN NO.
   003075    6 00002 0001 14          1968         ARG     UOFST,X4,PR6    * TO UWA
   003076    7 00470 2211 54          1969         ICRET   RETURN
   003077    000001 7100 11
                                      1970  *
                                      1971  *
                                      1972  *  DECIMAL TO FLOAT BINARY (35)
                                      1973  *    RECORD DESCRIPTOR IS 4 BIT NUMERIC
                                      1974  *    UWA DESCRIPTOR IS 9 BIT ALPHA, N=4
                                      1975  *
   003100                             1976  ZIG$DBD35 NULL
   003100    000001 6230 00           1977         EAX3    1               SET X3 TO SHOW SINGLE PRECISION
   003101 (0)003103 7100 00           1978         TRA     SVDES
                                      1979  *
                                      1980  *  DECIMAL TO FLOAT BINARY(71)
                                      1981  *      RECORD DESCRIPTOR IS 4 BIT NUMERIC
                                      1982  *      UWA DESCRIPTOR IS 9 BIT ALPHA, N=8
                                      1983  *
   003102                             1984  ZIG$DBD36 NULL
   003102    000000 6230 00           1985         EAX3    0               SET X3 TO SHOW DOUBLE PRECISION
   003103                             1986  SVDES  NULL
   003103    0 000 0 1 120 3005 20    1987         MVN     (1,,1),(1,,1),1    * MOVE
   003104    6 00001 0001 14          1988         ARG     ROFST,X4,PR6       *  4 BIT DATA FROM REC BUF & ROUND
   003105 (0)003344 0000 13           1989         ARG     FLTM0,3            *   TO LARGEST NO. FLT BIN CAN HOLD
   003106 (0)003120 7010 00           1990         ICCAL   ZIG$DBDFL,,DFLE1   CONVERT TO FLOATING BIN NUMBER
   003107 (0)003410 7020 00
   003110    5 00006 2341 00
   003111    777776 6010 04
   003112    7 00670 4721 00          1991         DFSTR   CFLPT1,,PR7     FLOATING RESULT
   003113    001 0 120 1005 00        1992         MLR     (1),(1,,1),1       * MOVE
   003114    7 00670 0 0 0 0010       1993         ADSC9   CFLPT1,0,8,PR7     *  FLOATING BINARY RESULT
   003115    6 00002 0001 14          1994         ARG     UOFST,X4,PR6       *   TO FLD IN REC BUF
                                      1995  *  RETURN
   003116    7 00470 2211 54          1996         ICRET
 12:42 09/05/97  FILE=ZIM$DBED.:ZIC0TSI       DECODE ROUTINES                                            69   BMAP - B00
   003117    000001 7100 11
                                      1997  *
                                      1998  *  PACKED DECIMAL TO FLOATING BINARY ROUTINE
                                      1999  *
                                      2000  *      INPUT:  ROUNDED PACKED DECIMAL NUMBER IN 4 BIT BUFFER
                                      2001  *               (ROUNDED TO LARGEST NUMBER THAT FLOAT BINARY
                                      2002  *                CAN HOLD)
                                      2003  *
                                      2004  *      OUTPUT:  EAQ - FLOATING BINARY NUMBER
                                      2005  *
                                      2006  *        X3   - 0 = DOUBLE FLOAT
                                      2007  *               1 = SINGLE FLOAT
                                      2008  *
   003120                             2009  ZIG$DBDFL NULL
   003120    7 00470 7411 56          2010         ICSAV
   003121    7 01163 2351 00          2011         LDA     BUF4+3,,PR7     EXP. IN UPPER BYTE OF 3RD WORD IN BUF
   003122    000001 7350 00           2012         ALS     1               BIT 0 NOT USED
   003123    000012 7310 00           2013         ARS     18-8            PROPOGATE SIGN
   003124    7 01007 7551 00          2014         STA     B36N,,PR7
   003125    000022 7310 00           2015         ARS     18
   003126 (0)003130 6050 00           2016         TPL     *+2             GET ABSOLUTE VALUE OF EXPONENT
   003127    000000 5310 00           2017         NEG
   003130    000000 6220 05           2018         EAX2    0,AL            X2 = ABS (SCALE)
   003131    000 100 3055 20          2019         DTB     (1,,1),(1)         * CONVERT
   003132 (0)003346 0000 13           2020         ARG     FLTM2,X3           *  DECIMAL DATA
   003133    7 00672 0 0 0 00 10      2021         NDSC9   CFLPT2,0,8,,,PR7   *   TO FIXED BIN NO
   003134    044100 4310 03           2022         FLD    =O044100,DU
   003135    7 00672 2371 00          2023         LDAQ   CFLPT2,,PR7
   003136    400000 4750 03           2024         FAD    =O400000,DU
   003137    000001 7330 00           2025         LRS    1
   003140 (0)003200 6000 00           2026         TZE     VZERO           VALUE IS ZERO
   003141    000000 6220 12           2027         EAX2    0,2             CHECK EXPON FOR ZERO
   003142 (0)003200 6000 00           2028         TZE     VZERO
   003143    7 01007 2341 00          2029         SZN     B36N,,PR7
   003144 (0)003147 6050 00           2030         TPL     *+3
   003145 (0)003370 6210 00           2031         EAX1    MPW10           MINUS POWERS
   003146 (0)003150 7100 00           2032         TRA     *+2
 12:42 09/05/97  FILE=ZIM$DBED.:ZIC0TSI       DECODE ROUTINES                                            70   BMAP - B00
   003147 (0)003350 6210 00           2033         EAX1    PPW10           POSITIVE POWERS
   003150    000001 3020 03           2034         CANX2   1,DU            CHECK EXPON FOR 1
   003151 (0)003153 6000 00           2035         TZE     *+2
   003152    000000 4630 11           2036         DFMP    PW1,1           DBL PREC. FLOATING MULTIPLY
   003153    000002 3020 03           2037         CANX2   2,DU            CHECK 2
   003154 (0)003156 6000 00           2038         TZE     *+2
   003155    000002 4630 11           2039         DFMP    PW2,1
   003156    000004 3020 03           2040         CANX2   4,DU            CHECK 4
   003157 (0)003161 6000 00           2041         TZE     *+2
   003160    000004 4630 11           2042         DFMP    PW4,1
   003161    000010 3020 03           2043         CANX2   8,DU            CHECK 8
   003162 (0)003164 6000 00           2044         TZE     *+2
   003163    000006 4630 11           2045         DFMP    PW8,1
   003164    000160 3020 03           2046         CANX2   16+32+64,DU
   003165 (0)003200 6000 00           2047         TZE     VZERO           NO BITS LEFT ON
   003166    000020 3020 03           2048         CANX2   16,DU           CHECK 16
   003167 (0)003171 6000 00           2049         TZE     *+2
   003170    000010 4630 11           2050         DFMP    PW16,1
   003171    000040 3020 03           2051         CANX2   32,DU           CHECK 32
   003172 (0)003174 6000 00           2052         TZE     *+2
   003173    000012 4630 11           2053         DFMP    PW32,1
   003174    000100 3020 03           2054         CANX2   64,DU           CHECK 64
   003175 (0)003200 6000 00           2055         TZE     VZERO
   003176    000010 4630 11           2056         DFMP    PW16,1          64 = 16*4
   003177    000004 4630 11           2057         DFMP    PW4,1
   003200                             2058  VZERO  NULL
                                      2059  *  RETURN
   003200    7 00470 2211 54          2060         ICRET                   RETURN
   003201    000001 7100 11
                                      2061  *
                                      2062  *      SCHEMA INTEGER TO SUBSCHEMA FLOAT SINGLE
                                      2063  *
   003202                             2064  ZIG$DBD37     NULL
   003202    001 0 100 1005 20        2065           MLR  (1,,1),(1),1
   003203    6 00001 0001 14          2066           ARG       ROFST,X4,PR6
   003204    7 00670 0 0 0 0004       2067           ADSC9     CFLPT1,0,4,PR7
   003205    022100 4310 03           2068           FLD       =O022100,DU
 12:42 09/05/97  FILE=ZIM$DBED.:ZIC0TSI       DECODE ROUTINES                                            71   BMAP - B00
   003206    7 00670 2351 00          2069           LDA       CFLPT1,,PR7
   003207    000001 7330 00           2070           LRS       1
   003210    400000 4750 03           2071           FAD       =O400000,DU
   003211    7 00670 4551 00          2072           FST       CFLPT1,,PR7
   003212    001 0 120 1005 00        2073           MLR  (1),(1,,1),1
   003213    7 00670 0 0 0 0004       2074           ADSC9     CFLPT1,0,4,PR7
   003214    6 00002 0001 14          2075           ARG       UOFST,X4,PR6
   003215    7 00470 2211 54          2076           ICRET
   003216    000001 7100 11
                                      2077  *
                                      2078  *      SCHEMA FLOAT (S/D) TO SUBSCHEMA INTEGER
                                      2079  *
   003217                             2080  ZIG$DBD38     NULL
   003217    000 0 100 1005 20        2081           MLR  (1,,1),(1),0
   003220    6 00001 0001 14          2082           ARG       ROFST,X4,PR6
   003221    7 00670 0 0 0 0010       2083           ADSC9     CFLPT1,0,8,PR7
   003222    7 00670 4331 00          2084           DFLD      CFLPT1,,PR7
   003223    042000 4350 03           2085           UFA       =O042000,DU
   003224 (0)001116 0770 00           2086           ADAQ      ROUNDER
   003225    000003 7330 00           2087           LRS       3
   003226    7 01056 7561 00          2088           STQ       B72N,,PR7
   003227    7 00670 4301 00          2089           FSZN      CFLPT1,,PR7
   003230 (0)003234 6050 00           2090           TPL       *+4
   003231    7 01056 2351 00          2091           LDA       B72N,,PR7
   003232    000000 5310 00           2092           NEG
   003233    7 01056 7551 00          2093           STA       B72N,,PR7
   003234    001 0 120 1005 00        2094           MLR  (1),(1,,1),1
   003235    7 01056 0 0 0 0004       2095           ADSC9     B72N,0,4,PR7
   003236    6 00002 0001 14          2096           ARG       UOFST,X4,PR6
   003237    7 00470 2211 54          2097           ICRET
   003240    000001 7100 11
                                      2098  *
                                      2099  *      SCHEMA INTEGER TO SUBSCHEMA FLOAT DOUBLE
                                      2100  *
   003241                             2101  ZIG$DBD39     NULL
   003241    001 0 100 1005 20        2102           MLR  (1,,1),(1),1
   003242    6 00001 0001 14          2103           ARG       ROFST,X4,PR6
 12:42 09/05/97  FILE=ZIM$DBED.:ZIC0TSI       DECODE ROUTINES                                            72   BMAP - B00
   003243    7 00670 0 0 0 0004       2104           ADSC9     CFLPT1,0,4,PR7
   003244    022100 4310 03           2105           FLD       =O022100,DU
   003245    7 00670 2351 00          2106           LDA       CFLPT1,,PR7
   003246    000001 7330 00           2107           LRS       1
   003247    400000 4750 03           2108           FAD       =O400000,DU
   003250    7 00670 4571 00          2109           DFST      CFLPT1,,PR7
   003251    001 0 120 1005 00        2110           MLR  (1),(1,,1),1
   003252    7 00670 0 0 0 0010       2111           ADSC9     CFLPT1,0,8,PR7
   003253    6 00002 0001 14          2112           ARG       UOFST,X4,PR6
   003254    7 00470 2211 54          2113           ICRET
   003255    000001 7100 11
                                      2114  *
                                      2115  *  FLOAT BINARY(35 OR 71) TO SIGNED PACKED DECIMAL
                                      2116  *      UWA DESCRIPTOR IS 9 BIT ALPHA, N=4 OR N=8
                                      2117  *      RECORD DESCRIPTOR IS 4 BIT NUMERIC SIGNED
                                      2118  *
   003256                             2119  ZIG$DBD40 NULL
   003256    000 0 100 1005 20        2120         MLR     (1,,1),(1),0       * MOVE
   003257    6 00001 0001 14          2121         ARG     ROFST,X4,PR6       * FIELD IN UWA
   003260    7 00670 0 0 0 0010       2122         ADSC9   CFLPT1,0,8,PR7     *   TO TEMP LOCATION
   003261    7 00670 4331 00          2123         DFLD    CFLPT1,,PR7     GET FLOATING POINT BINARY NUMBER
   003262 (0)000634 7010 00           2124         ICCAL   ZIG$DBFLD,,CVE10   CONVERT TO DECIMAL
   003263 (0)003426 7020 00
   003264    5 00006 2341 00
   003265    777776 6010 04
                                      2125  *  MOVE RESULT
   003266    1 000 0 1 120 3005 20    2126         MVN     (1,,1),(1,,1),1,1  * MOVE
   003267 (0)000741 0000 00           2127         ARG     RSDES              *  DECIMAL RESULT
   003270    6 00002 0001 14          2128         ARG     UOFST,X4,PR6       *   TO RECORD BUFFER
                                      2129  *  RETURN
   003271    7 00470 2211 54          2130         ICRET
   003272    000001 7100 11
                                      2131  *
                                      2132  *   ACSII TO FLOAT HEX (35)
                                      2133  *
   003273                             2134  ZIG$DBD41     NULL
   003273    000001 6230 00           2135      EAX3      1
 12:42 09/05/97  FILE=ZIM$DBED.:ZIC0TSI       DECODE ROUTINES                                            73   BMAP - B00
   003274 (0)003276 7100 00           2136      TRA       SKIPD42
                                      2137  *
                                      2138  *   ASCII TO FLOAT HEX (71)
                                      2139  *
   003275                             2140  ZIG$DBD42     NULL
   003275    000000 6230 00           2141      EAX3      0
   003276                             2142  SKIPD42  NULL
   003276    000 0 000 1645 20        2143      DBTCD     NND18          CHECK FOR NON-NUMERIC DATA
   003277    6 00001 0001 14
   003300 (0)001251 0000 00
   003301    7 01061 0001 00
   003302 (0)003424 6070 00
   003303    6 00001 2351 14          2144      LDA       ROFST,X4,PR6
   003304    030000 2750 07           2145      ORA       .B22+.B23,DL   SET TO NUM. AND UNSIGNED
   003305    7 00752 7551 00          2146      STA       ENDSR,,PR7
   003306    0 000 0 1 120 3005 20    2147      MVN  (1,,1),(1,,1),1
   003307    7 00752 0001 00          2148      ARG       ENDSR,,PR7          * ASCII TO DECIMAL
   003310 (0)003344 0000 13           2149      ARG       FLTM0,X3
   003311 (0)003120 7010 00           2150      ICCAL     ZIG$DBDFL,,CVE20
   003312 (0)001132 7020 00
   003313    5 00006 2341 00
   003314    777776 6010 04
   003315    7 00670 4721 00          2151      DFSTR     CFLPT1,,PR7          SAVE FLOAT NUMBER.
   003316    001 0 120 1005 00        2152      MLR       (1),(1,,1),1
   003317    7 00670 0 0 0 0010       2153      ADSC9     CFLPT1,0,8,PR7
   003320    6 00002 0001 14          2154      ARG       UOFST,X4,PR6
   003321    7 00470 2211 54          2155      ICRET
   003322    000001 7100 11
                                      2156  *
                                      2157  *        FLOAT HEX (35 OR 71) TO ASCII
                                      2158  *
   003323                             2159  ZIG$DBD43     NULL
   003323    000 0 100 1005 20        2160         MLR     (1,,1),(1),0       * MOVE
   003324    6 00001 0001 14          2161         ARG     ROFST,X4,PR6       * FIELD IN UWA
   003325    7 00670 0 0 0 0010       2162         ADSC9   CFLPT1,0,8,PR7     *   TO TEMP LOCATION
   003326    7 00670 4331 00          2163         DFLD    CFLPT1,,PR7     GET FLOATING POINT BINARY NUMBER
   003327 (0)000634 7010 00           2164         ICCAL   ZIG$DBFLD,,FLDE1   CONVERT TO DECIMAL
 12:42 09/05/97  FILE=ZIM$DBED.:ZIC0TSI       DECODE ROUTINES                                            74   BMAP - B00
   003330 (0)000763 7020 00
   003331    5 00006 2341 00
   003332    777776 6010 04
                                      2165  *  MOVE RESULT
   003333    6 00002 2351 14          2166         LDA     UOFST,X4,PR6    GET BUF DESCR.
   003334    030000 2750 07           2167         ORA     .B22+.B23,DL    MAKE IT NUM. UNSIGNED
   003335    7 00752 7551 00          2168         STA     ENDSR,,PR7
   003336    0 000 0 1 120 3005 20    2169         MVN     (1,,1),(1,,1),1     * MOVE
   003337 (0)000741 0000 00           2170         ARG     RSDES               *  IN TEMP BUFFER
   003340    7 00752 0001 00          2171         ARG     ENDSR,,PR7          *   REC
   003341 (0)003424 6040 00           2172         TMI     LSD02           NEG - SIGN LOST
   003342    7 00470 2211 54          2173           ICRET
   003343    000001 7100 11
                                      2174  *
                                      2175  *  DESCRIPTOR USED BY THIS ROUTINE
                                      2176  *
   003344    7 01160 2 1 0 00 30      2177  FLTM0  NDSC4   BUF4,2,24,,,PR7 4 BIT NUMER DESCRIP FOR DBL PREC.
   003345    7 01161 5 1 0 00 15      2178         NDSC4   BUF4+1,5,13,,,PR7 4 BIT NUMER DESCRIP FOR SINGLE PREC
   003346    7 01160 2 1 1 00 26      2179  FLTM2  NDSC4   BUF4,2,22,1,,PR7  4 BIT DESCRIP W/O EXP - DBL PREC.
   003347    7 01161 5 1 1 00 13      2180         NDSC4   BUF4+1,5,11,1,,PR7 4 BIT DESCR W/O EXP - SINGLE PREC.
                                      2181  *
                                      2182  *  CONSTANTS USED BY THIS ROUTINE
                                      2183  *
                                      2184         EVEN
   003350    002500000000             2185  PPW10  DEC     1.D1,1.D2,1.D4,1.D8,1.D16,1.D32,1.D0,1.D0
   003351    000000000000
   003352    004310000000
   003353    000000000000
   003354    010116100000
   003355    000000000000
   003356    016276570200
   003357    000000000000
   003360    034107033623
   003361    374040000000
   003362    066235613266
   003363    501267026547
   003364    002040000000
 12:42 09/05/97  FILE=ZIM$DBED.:ZIC0TSI       DECODE ROUTINES                                            75   BMAP - B00
   003365    000000000000
   003366    002040000000
   003367    000000000000
                                      2186         EVEN
   003370    000063146314             2187  MPW10  DEC     1.D-1,1.D-2,1.D-4,1.D-8,1.D-16,1.D-32,1.D0,1.D0
   003371    631463146315
   003372    776121727024
   003373    365605075342
   003374    772321556135
   003375    307041454513
   003376    764125714356
   003377    106043034740
   003400    746346453122
   003401    766104674126
   003402    714147661075
   003403    265051631226
   003404    002040000000
   003405    000000000000
   003406    002040000000
   003407    000000000000
             000000000000             2188  PW1    EQU     0
             000000000002             2189  PW2    EQU     2
             000000000004             2190  PW4    EQU     4
             000000000006             2191  PW8    EQU     6
             000000000010             2192  PW16   EQU     8
             000000000012             2193  PW32   EQU     10
                                      2194  *
                                      2195  *  ERRORS DETECTED IN DECODE ROUTINES
                                      2196  *
                                      2197
                                      2198  *
                                      2199  *  ERRORS DETECTED IN SUBORDINATE ROUTINESA
                                      2200  *
   003410                             2201  DFLE1  NULL                    ERROR IN CONVERTING DEC TO FLT BIN
   003410 (0)003411 7100 00           2202         TRA     DCER
                                      2203  *  COMMON ERROR RETURN
   003411                             2204  DCER   NULL
 12:42 09/05/97  FILE=ZIM$DBED.:ZIC0TSI       DECODE ROUTINES                                            76   BMAP - B00
   003411  X 000000 7020 00           2205         ICALT
                                      2206  *
                                      2207  *  ERRORS DETECTED IN DECODE ROUTINES
                                      2208  *
   003412                             2209  UDPNF  NULL                    USER'S DECODE PROC. NOT FOUND
   003412    303251 2350 07           2210         LDA     EDPER,DL
   003413 (0)003427 7100 00           2211         TRA     DR1
   003414                             2212  UDPR   NULL                    USER'S PROC. RETURNED ERROR
   003414    012120 0350 07           2213         ADLA    IDI,DL
   003415 (0)003427 7100 00           2214         TRA     DR1
   003416                             2215  DCER1  NULL                    ILLEGAL DECODE SPECIFIED
   003416    210650 2350 07           2216         LDA     DCE1,DL
   003417 (0)003427 7100 00           2217         TRA     DR1
   003420                             2218  CVE07  NULL                    NO. IS TOO BIG FOR 35 BITS
   003420    012120 2350 07           2219         LDA     IDI,DL
   003421 (0)003427 7100 00           2220         TRA     DR1
   003422                             2221  BDCX     NULL                 DECODE INDEX OUTSIDE LIMITS
   003422    303272 2350 07           2222           LDA      PRE5,DL
   003423 (0)003427 7100 00           2223           TRA      DR1
   003424                             2224  NBTD   NULL                    NON-BLANK TRUNCATION ON DECODE
   003424                             2225  LSD02  NULL                    LOST SIGN - D02
   003424                             2226  LSD10  NULL                    LOST SIGN - D10
   003424                             2227  LSD24  NULL                    LOST SIGN - D24
   003424                             2228  LSD25  NULL                    LOST SIGN - D25
   003424                             2229  ERD26  NULL                    OVERFLOW - D26
   003424                             2230  NND15  NULL                    ILLEGAL TRANSFER OF NON-NUM DATA-D15
   003424                             2231  NND16  NULL                    ILLEGAL TRANSFER OF NON-NUM DATA-D16
   003424                             2232  NND17  NULL                    ILLEGAL TRANSFER OF NON-NUM DATA-D17
   003424                             2233  NND18  NULL                    ILLEGAL TRANSFER OF NON-NUM DATA-D18
   003424                             2234  D30ER  NULL                    LOGICAL DATA NOT 0, +1,OR -1
   003424    012120 2350 07           2235         LDA     IDI,DL
   003425 (0)003427 7100 00           2236         TRA     DR1
                                      2237  *
                                      2238  *  ERRORS DETECTED IN SUBORDINATE ROUTINES
                                      2239  *
   003426                             2240  CVE10  NULL                    CONVERSION ERROR - D07
   003426                             2241  CVE11  NULL                    CONVERSION ERROR - D13
 12:42 09/05/97  FILE=ZIM$DBED.:ZIC0TSI       DECODE ROUTINES                                            77   BMAP - B00
   003426                             2242  CVE12  NULL                    CONVERSION ERROR - D18
   003426                             2243  CVE23  NULL                    CONVERT TO O.P. DATA ERROR
   003426                             2244  CVE24  NULL                    CONVERT TO O.P. DATA ERROR
   003426                             2245  CVE25  NULL                    CONVERT TO O.P. DATA ERROR
   003426                             2246  CVE26  NULL                    CONVERT TO O.P. DATA ERROR
   003426                             2247  UDPE   NULL                    ERROR IN USER'S PROC.
   003426 (0)003427 7100 00           2248         TRA     DR1
                                      2249  *  COMMON ERROR RETURN
   003427                             2250  DR1    NULL
   003427    000000 6200 00           2251           EAX      X0,0              NULL AC
   003430    000000 6260 00           2252           EAX      X6,0              NULL SC
   003431    6 00005 2271 14          2253           LDX      X7,RCFRH,X4,PR6   GET RC
   003432  X 000000 7020 00           2254           ICALT

 12:42 09/05/97  FILE=ZIM$DBED.:ZIC0TSI       32 BIT NO. CONVERSION ROUTINES                             78   BMAP - B00
                                      2255         TTLS    32 BIT NO. CONVERSION ROUTINES
                                      2256  *
                                      2257  *  CONVERT 36 BIT BINARY NO. TO IBM 16 OR 32 BIT NO. IN UWA
                                      2258  *
                                      2259  *  INPUT - QR  36 BIT NO.
                                      2260  *          X4  FR PTR
                                      2261  *
   003433                             2262  ZIG$DBCI2 NULL
   003433    7 00470 7411 56          2263           ICSAV
   003434    000000 6230 00           2264         EAX     X3,0            INIT X3
   003435    000004 7360 00           2265         QLS     4               WILL NO. FIT IN 32 BITS
   003436 (0)003440 6020 00           2266         TNC     *+2             YES
   003437    000001 6230 00           2267         EAX     X3,1            SET X3 FOR ERROR RETURN
   003440    000004 7320 00           2268         QRS     4
   003441    6 00002 7211 14          2269         LXL     X1,UOFST,X4,PR6  GET LENGTH
   003442    000004 3010 03           2270         CANX    X1,.B15,DU      IS IT 4 BYTES
   003443 (0)003450 6010 00           2271         TNZ     NOT16           YES
   003444    000024 7360 00           2272         QLS     20              WILL NO. FIT IN 16 BITS
   003445 (0)003447 6020 00           2273         TNC     *+2             YES
   003446    000001 6230 00           2274         EAX     X3,1            SET X3 FOR ERROR RETURN
   003447    000024 7320 00           2275         QRS     20              RESTORE NO.
   003450                             2276  NOT16  NULL
   003450    000001 6210 00           2277         EAX     X1,1            INIT X1 FOR RPD
   003451    000010 6220 00           2278         EAX     X2,8            INIT X2 FOR RPD
   003452    000004 7360 00           2279         QLS     4               REMOVE 1ST 4 BITS
                                      2280         IFE     .N6685,1,6
   003453    000004 2200 03           2281         LDX     X0,4,DU
   003454                             2282  NOT17  NULL
   003454    000000 7350 11           2283         ALS     ,X1
   003455    000000 7370 12           2284         LLS     ,X2
   003456    000001 1200 03           2285         SBLX    X0,1,DU
   003457 (0)003454 6010 00           2286         TNZ     NOT17
                                      2287         IFE     .N6685,0,3
                                      2288         RPD     4,X0            * MOVE
                                      2289         ALS     ,X1             *  32 BIT NO. TO
                                      2290         LLS     ,X2             *   AR
   003460    7 01006 7551 00          2291         STA     B32N,,PR7       SAVE
 12:42 09/05/97  FILE=ZIM$DBED.:ZIC0TSI       32 BIT NO. CONVERSION ROUTINES                             79   BMAP - B00
   003461    000 0 120 1015 00        2292         MRL     (1),(1,,1)          * MOVE
   003462    7 01006 0 0 0 0004       2293         ADSC9   B32N,0,4,PR7        *  IBM 16/32 BIT NO. TO
   003463    6 00002 0001 14          2294         ARG     UOFST,X4,PR6        *   UWA
   003464    000000 6230 13           2295         EAX     X3,,X3          WAS THE NO. TOO BIG
   003465 (0)003470 6010 00           2296         TNZ     CI2ER           YES - ERROR
   003466    7 00470 2211 54          2297           ICRET
   003467    000001 7100 11
                                      2298  *
                                      2299  *  ERRORS DETECTED IN THIS ROUTINE
                                      2300  *
   003470                             2301  CI2ER  NULL                    NO. IS TOO BIG FOR 16 BITS
   003470    012120 2350 07           2302         LDA     IDI,DL
   003471    000000 6200 00           2303         EAX     X0,0            NULL AC
   003472    000000 6260 00           2304         EAX     X6,0            NULL SC
   003473    6 00005 2271 14          2305         LDX     X7,RCFRH,X4,PR6  GET RC
   003474  X 000000 7020 00           2306           ICALT

 12:42 09/05/97  FILE=ZIM$DBED.:ZIC0TSI       OVERPUNCHED 9-BIT CONVERSION ROUTINES                      80   BMAP - B00
                                      2307         TTLS    OVERPUNCHED 9-BIT CONVERSION ROUTINES
                                      2308  *
                                      2309  *  CONVERT 4-BIT  LEADING SIGN NO. IN FBUF TO 9-BIT O.P. NO. IN UWA
                                      2310  *  OVERPUNCH IS IN MSD  -  UWA DESCR IS 9-BIT NUMER.
                                      2311  *
                                      2312  *  INPUT - FBUF CONTAINS 4-BIT  LEADING SIGN NO.
                                      2313  *          X4   FR PTR
                                      2314  *
   003475                             2315  ZIG$DBCO2 NULL
   003475    7 00470 7411 56          2316           ICSAV
                                      2317  *  BUILD DESCR. FOR MSD OF UWA FLD
   003476    100000 3350 07           2318         LCA     =O100000,DL
   003477    6 00002 3751 14          2319         ANA     UOFST,X4,PR6    GET UWA DESCR LESS TN,S,SF,N
   003500    000001 0350 07           2320         ADLA    1,DL            MAKE N=1
   003501    7 00757 7551 00          2321         STA     DCDSR,,PR7      SAVE
                                      2322  *  GO CONVERT TO O.P. NO.
   003502 (0)003514 7100 00           2323         TRA     MOPN
                                      2324  *
                                      2325  *  CONVERT 4-BIT LEADING SIGN NO. IN FBUF TO 9-BIT O.P. NO. IN UWA
                                      2326  *  OVERPUNCH IN LSD - UWA DESCR. IS 9-BIT NUMER.
                                      2327  *
                                      2328  *  INPUT - FBUF CONTAINS 4-BIT  LEADING SIGN NO.
                                      2329  *          X4   FR PTR
                                      2330  *
   003503                             2331  ZIG$DBCO3 NULL
   003503    7 00470 7411 56          2332           ICSAV
                                      2333  *  BUILD DESCR. FOR LAST BYTE OF UWA FLD
   003504    6 00002 2351 14          2334         LDA     UOFST,X4,PR6    GET LENGTH OF UWA FLD
   003505    000077 3750 07           2335         ANA     =O77,DL         ISOLATE
   003506    000001 1350 07           2336         SBLA    1,DL            BACK 1
   003507    000020 7350 00           2337         ALS     16              INTO POSITION FOR CN
   003510    6 00002 0351 14          2338         ADLA    UOFST,X4,PR6    ADD TO UWA DESCR.
   003511 (1)000004 3750 00           2339         ANA     =O777777700000  REMOVE N
   003512    000001 0350 07           2340         ADLA    1,DL            SET N=1
   003513    7 00757 7551 00          2341         STA     DCDSR,,PR7      SAVE
                                      2342  *  MOVE NUMERIC PORTION OF NO. TO UWA
   003514                             2343  MOPN   NULL
 12:42 09/05/97  FILE=ZIM$DBED.:ZIC0TSI       OVERPUNCHED 9-BIT CONVERSION ROUTINES                      81   BMAP - B00
   003514    0 000 0 1 120 3005 20    2344         MVN     (1,,1),(1,,1),1     * MOVE
   003515    7 00752 0001 00          2345         ARG     ENDSR,,PR7          *  NO LESS SIGN TO
   003516    6 00002 0001 14          2346         ARG     UOFST,X4,PR6        *   UWA
                                      2347  *  MOVE CHAR OF UWA TO BE OVERPUNCHED TO MSD OF FBUF
                                      2348  *  DCDSR CONTAINS DESCR FOR CHAR IN UWA
   003517    000 0 120 1005 20        2349         MLR     (1,,1),(1,,1)       * MOVE
   003520    7 00757 0001 00          2350         ARG     DCDSR,,PR7          *  CHAR OF UWA TO
   003521    7 01023 0001 00          2351         ARG     FBUMD,,PR7          *   MSD OF FBUF
                                      2352  *  CHECK IF -0, IF SO MVNE WON'T WORK
   003522    7 01160 2201 00          2353         LDX     X0,BUF4,,PR7    GET SIGN AND OVP
   003523    777000 3600 03           2354         ANX     X0,=O777000,DU
   003524    320000 1000 03           2355         CMPX    X0,=O320000,DU  IS IT -0
   003525 (0)003531 6010 00           2356         TNZ     MVNE..          NO
   003526    400000 2200 03           2357         LDX     X0,=O400000,DU
   003527    7 01170 7401 00          2358         STX     X0,BUF6,,PR7    OFFSET IN C2TBL FOR -0
   003530 (0)003535 7100 00           2359         TRA     MVT..
   003531                             2360  MVNE.. NULL
                                      2361  *  MOVE MSD WITH O.P. TO 6-BIT CHAR
   003531    120 000 0245 20          2362         MVNE    (1,,1),,(1,,1)            * MOVE
   003532    7 01022 0001 00          2363         ARG     FBUFM,,PR7                *  DIGIT
   003533 (0)003543 0 0 0 0005        2364         ADSC9   C3MOP,0,5                 *   W/ O.P. TO
   003534    7 01025 0001 00          2365         ARG     FBU61,,PR7                *    6-BIT BUF
                                      2366  *  CONVERT 6-BIT O.P. NO. TO ASCII
   003535                             2367  MVT..  NULL
   003535    000 0 120 1605 20        2368         MVT     (1,,1),(1,,1)       * CONVERT
   003536    7 01025 0001 00          2369         ARG     FBU61,,PR7          *  6-BIT CHAR TO
   003537    7 00757 0001 00          2370         ARG     DCDSR,,PR7          *   ASCII
   003540 (0)003541 0000 00           2371         ARG     C2TBL-4
                                      2372  *  RETURN
   003541    7 00470 2211 54          2373           ICRET
   003542    000001 7100 11
                                      2374  *  MICROP FOR MVNE
   003543    403120404140             2375  C3MOP    OCT      403120404140
   003544    361000000000             2376           OCT      361000000000
                                      2377  * Above replaces
                                      2378  *        MICROP   (LTE,3),1O20,(LTE,4),1O40,(MORS,1)
                                      2379  * Which BMAP generates incorrectly
 12:42 09/05/97  FILE=ZIM$DBED.:ZIC0TSI       OVERPUNCHED 9-BIT CONVERSION ROUTINES                      82   BMAP - B00
                                      2380  *  TABLE FOR MVT (OVERPUNCHED BCD TO ASCII)
   003545                             2381  C2TBL  NULL
   003545    173101102103             2382         OCT     173101102103    +0 +1 +2 +3
   003546    104105106107             2383         OCT     104105106107    +4 +5 +6 +7
   003547    110111000000             2384         OCT     110111000000    +8 +9
   003550    000000000000             2385         OCT     0
   003551    175112113114             2386         OCT     175112113114    -0 -1 -2 -3
   003552    115116117120             2387         OCT     115116117120    -4 -5 -6 -7
   003553    121122000000             2388         OCT     121122000000    -8 -9
                                      2389         END
 1 000000    777777777760
   000001    000000004010
   000002    777777777777
   000003    777777777774
   000004    777777700000

  CONTROL SECTION TABLE

   0 CODE   EVEN  003554
   1 RODATA EVEN  000005 LITERALS

 12:42 09/05/97  FILE=ZIM$DBED.:ZIC0TSI       SYMBOL TABLE                                               83   BMAP - B00
 40000000 000000200000 .AC            *13
 40000000 000000000100 .AG            *13
 40000000 000000002000 .ALTO          *13
 40000000 000000000077 .ANL           *13
 40000000 000000200000 .APDN          *13
 40000000 000000000100 .ATMP          *13
 40000000 000000400000 .AV            *13
 40000000 000000400000 .B0            *13
 40000000 000000200000 .B1            *13
 40000000 000000000200 .B10           *13
 40000000 000000000100 .B11           *13
 40000000 000000000040 .B12           *13
 40000000 000000000020 .B13           *13
 40000000 000000000010 .B14           *13
 41000000 000000000004 .B15           *13       957      1498      2270
 41000000 000000000002 .B16           *13       180
 40000000 000000000001 .B17           *13
 40000000 000000400000 .B18           *13
 40000000 000000200000 .B19           *13
 40000000 000000100000 .B2            *13
 40000000 000000100000 .B20           *13
 40000000 000000040000 .B21           *13
 41000000 000000020000 .B22           *13       105       153       194       207       222       285
                                      825       846      1430      1528      1604      1617      1630
                                     1643      2145      2167
 41000000 000000010000 .B23           *13       105       153       194       207       222       285
                                      825       846      1430      1528      1604      1617      1630
                                     1643      2145      2167
 40000000 000000004000 .B24           *13
 40000000 000000002000 .B25           *13
 40000000 000000001000 .B26           *13
 40000000 000000000400 .B27           *13
 40000000 000000000200 .B28           *13
 40000000 000000000100 .B29           *13
 40000000 000000040000 .B3            *13
 40000000 000000000040 .B30           *13
 40000000 000000000020 .B31           *13
 12:42 09/05/97  FILE=ZIM$DBED.:ZIC0TSI       SYMBOL TABLE                                               84   BMAP - B00
 40000000 000000000010 .B32           *13
 40000000 000000000004 .B33           *13
 40000000 000000000002 .B34           *13
 40000000 000000000001 .B35           *13
 40000000 000000020000 .B4            *13
 40000000 000000010000 .B5            *13
 40000000 000000004000 .B6            *13
 40000000 000000002000 .B7            *13
 40000000 000000001000 .B8            *13
 40000000 000000000400 .B9            *13
 40000000 000000000001 .BREAK         *13
 40000000 000000010000 .BRK           *13
 40000000 000000020000 .BTB           *13
 40000000 000000000001 .CAC           *13
 40000000 000000000000 .CAE           *13
 40000000 000000000200 .CANSSS        *13
 40000000 000000000400 .CD            *13
 40000000 000000040000 .CFLC          *13
 40000000 000000400000 .CHKSUM        *13
 40000000 000000100000 .CJRNL         *13
 40000000 000000000077 .CNSZ          *13
 40000000 000000160000 .COMC          *13
 40000000 000000000020 .CONT          *13
 40000000 000000000000 .CSE           *13
 40000000 000000700000 .CTYP          *13
 41000000 000000000270 .DBEST         *13
 41000000 000000000470 .DBIC          *13        32        97       110       119       131       145
                                      158       170       187       200       213       228       242
                                      259       273       291       315       321       338       347
                                      357       370       385       400       417       455       476
                                      498       520       528       543       559       576       612
                                      702       704       720       776       792       813       831
                                      856       916       926       936       961       971       991
                                     1359      1423      1436      1448      1460      1472      1484
                                     1503      1512      1521      1534      1552      1570      1584
                                     1596      1609      1622      1635      1650      1675      1690
                                     1696      1713      1722      1735      1745      1762      1792
 12:42 09/05/97  FILE=ZIM$DBED.:ZIC0TSI       SYMBOL TABLE                                               85   BMAP - B00
                                     1838      1847      1881      1903      1940      1950      1969
                                     1996      2010      2060      2076      2097      2113      2130
                                     2155      2173      2263      2297      2316      2332      2373
 41000000 000000077777 .DBPT          *13       330      1705
 41000000 000000000370 .DBSTK         *13
 40000000 000000020000 .DELM          *13
 40000000 000000002000 .DIDP          *13
 41000000 000000000077 .DNDX          *13      1362
 40000000 000000600000 .DORD          *13
 40000000 000000000200 .DP            *13
 40000000 000000100000 .DPS           *13
 40000000 000000200000 .DPSA          *13
 40000000 000000400000 .DPST          *13
 40000000 000000000002 .DUMP          *13
 40000000 000000002000 .DUPC          *13
 40000000 000000010000 .DUPP          *13
 40000000 000000200000 .EBCL          *13
 40000000 000000400000 .EBCM          *13
 40000000 000000200000 .ENCRP         *13
 41000000 000000000077 .ENDX          *13        35
 40000000 000000000400 .ENQ           *13
 40000000 000000004000 .ETC           *13
 40000000 000000000400 .EXIT          *13
 40000000 000000000200 .FMOD          *13
 40000000 000000000077 .FNL           *13
 40000000 000000000074 .FORG          *13
 40000000 000000002000 .FR            *13
 40000000 000000000100 .FSR           *13
 40000000 000000003400 .FUSE          *13
 40000000 000000010000 .FVF           *13
 40000000 000000040000 .FVR           *13
 40000000 000000000010 .INDEXED       *13
 40000000 000000777777 .IXID          *13
 40000000 000000001777 .IXNUM         *13
 40000000 000000000004 .KEYED         *13
 40000000 000000010000 .LCK           *13
 40000000 000000400000 .LEIL          *13
 12:42 09/05/97  FILE=ZIM$DBED.:ZIC0TSI       SYMBOL TABLE                                               86   BMAP - B00
 40000000 000000001000 .LG            *13
 40000000 000000000002 .LOAD          *13
 40000000 000000020000 .MAR           *13
 40000000 000000000007 .MEMT          *13
 40000000 000000010000 .MRL           *13
 40000000 000000040000 .MSM           *13
 61000000 000000000001 .N6685         *13       943       950      2280      2287
 40000000 000000100000 .NAI           *13
 40000000 000000200000 .NBI           *13
 40000000 000000000002 .NCIA          *13
 40000000 000000040000 .NMV           *13
 40000000 000000017777 .NOENT         *13
 40000000 000000400000 .OA            *13
 40000000 000000740000 .OPEV          *13
 40000000 000000100000 .OSM           *13
 40000000 000000100000 .PAFIL         *13
 40000000 000000200000 .PAHVR         *13
 40000000 000000000001 .PAIA          *13
 40000000 000000040000 .PALIL         *13
 40000000 000000020000 .PALVR         *13
 40000000 000000400000 .PANLL         *13
 40000000 000000400000 .PCKD          *13
 40000000 000000001600 .PMOD          *13
 40000000 000000000520 .PRCSE         *13
 40000000 000000000007 .PSTO          *13
 40000000 000000006040 .PTAS          *13
 40000000 000000010100 .PTCHK         *13
 41000000 000000010200 .PTDEC         *13      1704
 41000000 000000010140 .PTENC         *13       329
 40000000 000000020000 .RA            *13
 40000000 000000100000 .RC            *13
 40000000 000000400000 .RELEASE       *13
 40000000 000000000017 .RELT          *13
 40000000 000000004000 .RERA          *13
 40000000 000000400000 .RERS          *13
 40000000 000000010000 .RKEY          *13
 40000000 000000000077 .RNL           *13
 12:42 09/05/97  FILE=ZIM$DBED.:ZIC0TSI       SYMBOL TABLE                                               87   BMAP - B00
 40000000 000000200000 .RSTO          *13
 40000000 000000007777 .RTYP          *13
 40000000 000000040000 .SC            *13
 40000000 000000000070 .SETM          *13
 40000000 000000740000 .SETO          *13
 40000000 000000000700 .SETT          *13
 40000000 000000040000 .SFNP          *13
 40000000 000000004000 .SM            *13
 40000000 000000020000 .SMOD          *13
 40000000 000000000077 .SNL           *13
 40000000 000000020000 .SNSS          *13
 40000000 000000010000 .SO            *13
 40000000 000000100000 .SR            *13
 40000000 000000004000 .SRCR          *13
 40000000 000000001000 .SS            *13
 40000000 000000000007 .SSTP          *13
 40000000 000000004000 .SYN           *13
 40000000 000000000040 .SYNC          *13
 40000000 000000020000 .TJRNL         *13
 40000000 000000040000 .TMPLT         *13
 40000000 000000040000 .TRACE         *13
 40000000 000000000001 .TRENTRY       *13
 40000000 000000000012 .TRIDEL        *13
 40000000 000000000021 .TRIDELENQ     *13
 40000000 000000000024 .TRIDEQ        *13
 40000000 000000000013 .TRIMOD        *13
 40000000 000000000022 .TRIMODENQ     *13
 40000000 000000000014 .TRIREAD       *13
 40000000 000000000023 .TRIREADENQ    *13
 40000000 000000000011 .TRISTO        *13
 40000000 000000000020 .TRISTOENQ     *13
 40000000 000000000017 .TRPDEQ        *13
 40000000 000000000004 .TRPMOD        *13
 40000000 000000000016 .TRPMODENQ     *13
 40000000 000000000002 .TRPREAD       *13
 40000000 000000000015 .TRPREADENQ    *13
 40000000 000000000003 .TRPWRITE      *13
 12:42 09/05/97  FILE=ZIM$DBED.:ZIC0TSI       SYMBOL TABLE                                               88   BMAP - B00
 40000000 000000000010 .TRRACC        *13
 40000000 000000000006 .TRRDEL        *13
 40000000 000000000007 .TRRMOD        *13
 40000000 000000000005 .TRRSTO        *13
 40000000 000000004000 .ULCK          *13
 40000000 000000400000 .UPDT          *13
 40000000 000000000040 .VIA           *13
 60000000 000000000001 A              *13
 40000000 000000000002 ABAS           *13
 40000000 000000000001 AC             *13
 40000000 777777777760 ACDEF          *13
 40000000 000000211070 ACDNL          *13
 40000000 000000000003 ACID           *13
 40000000 000000001016 ACOPN          *13
 40000000 000000000002 ACP            *13
 40000000 000000000005 ACPTR          *13
 40000000 000000000002 ACRAH          *13
 40000000 000000000001 ACRAN          *13
 40000000 000000001003 ACREC          *13
 40000000 000000000001 ACTDBCB        *13
 40000000 000000000002 ACTDBNO        *13
 40000000 000000001017 ACTP           *13
 40000000 000000000000 ACTSSS         *13
 40000000 000000000000 ACTSZ          *13
 01101000 000000000720 ADJST          619      *698
 40000000 000000210565 AFNP           *13
 40000000 000000000635 AFT            *13
 40000000 000000022124 AIR            *13
 40000000 000000000016 AMAX           *13
 40000000 000000000026 ANAM           *13
 40000000 000000021614 ANR            *13
 40000000 000000000001 APNO           *13
 40000000 000000210562 ARGER          *13
 41000000 000000000020 ARGS           *13
 40000000 000000000077 ARGS2          *13
 40000000 000000210713 ARNAF          *13
 40000000 000000000003 ATBL           *13
 12:42 09/05/97  FILE=ZIM$DBED.:ZIC0TSI       SYMBOL TABLE                                               89   BMAP - B00
 40000000 000000000000 ATRIB          *13
 40000000 000000000002 AVLN           *13
 40000000 000000000013 AWS$           *13
 40000000 000000000010 AWSZ           *13
 60000000 000000000001 B              *13
 41000000 000000001006 B32N           *13       939       942      2291      2293
 41000000 000000001007 B36N           *13       138       140       220       225       377       379
                                      516       518      1581      1582      1647      1648      1683
                                     1684      1686      1688      1862      1863      1876      1879
                                     2014      2029
 41000000 000000001056 B72N           *13       178       185       410       411       413       415
                                      613       632       637       643       659       685       687
                                      711       713       767       770       772       774       783
                                      785      1492      1493      1755      1756      1760      2088
                                     2091      2093      2095
 40000000 000000000001 BADDR          *13
 40000000 000000210712 BADSEED        *13
 40000000 777777777765 BDCW           *13
 01101000 000000003422 BDCX          1364     *2221
 01101000 000000001126 BEDX            37      *870
 40000000 000000000633 BEF            *13
 40000000 000000020000 BEFW           *13
 40000000 000000000751 BEMT           *13
 40000000 777777777761 BID            *13
 40000000 777777777762 BIND           *13
 40000000 000000000007 BLKD           *13
 40000000 000000303331 BME02          *13
 41000000 000000001203 BMPB           *13
 41000000 000000000652 BN1            *13       614       627
 40000000 000000000654 BN2            *13
 40000000 000000000004 BPL            *13
 40000000 000000000015 BPLDBK         *13
 40000000 000000000034 BSPG           *13
 40000000 777777777763 BSTAT          *13
 40000000 000000000750 BTX0           *13
 41000000 000000001160 BUF4           *13       724      2011      2177      2178      2179      2180
                                     2353
 12:42 09/05/97  FILE=ZIM$DBED.:ZIC0TSI       SYMBOL TABLE                                               90   BMAP - B00
 41000000 000000001170 BUF6           *13       255       257       625       628       646       652
                                      656       667       677       688       693      2358
 41000000 000000000000 BUFORG         *13
 40000000 000000001060 BUFRQ          *13
 40000000 000000000006 BURRID         *13
 41000000 000000000020 BWASZ          *13
 60000000 000000000001 C              *13
 01101000 000000001223 C1TBL          981      *993
 01101000 000000003545 C2TBL         2371     *2381
 01101000 000000003543 C3MOP         2364     *2375
 40000000 000000000050 CAAC           *13
 40000000 000000000050 CACD           *13
 40000000 000000000111 CAG            *13
 40000000 000000001033 CAL            *13
 40000000 000000000026 CALLPM0        *13
 40000000 000000000003 CANSSS         *13
 40000000 000000000003 CBCPA          *13
 40000000 000000000002 CBCPO          *13
 40000000 000000000002 CBENO          *13
 40000000 000000000014 CBFSZ          *13
 40000000 000000000753 CBIB           *13
 40000000 000000001030 CBID           *13
 40000000 000000000014 CBRCE          *13
 40000000 000000000014 CBRCP          *13
 40000000 000000001033 CBRID          *13
 40000000 000000000015 CBRPA          *13
 40000000 000000000031 CCHAR          *13
 40000000 000000000040 CDBK           *13
 40000000 000000000030 CDES           *13
 40000000 000000000110 CDP            *13
 40000000 000000001044 CDPSI          *13
 40000000 000000000002 CDRH           *13
 40000000 000000000003 CDRN           *13
 40000000 000000000002 CDSH           *13
 40000000 000000000003 CDSN           *13
 40000000 000000000722 CENTRN         *13
 40000000 000000000722 CENTRO         *13
 12:42 09/05/97  FILE=ZIM$DBED.:ZIC0TSI       SYMBOL TABLE                                               91   BMAP - B00
 40000000 000000000716 CENTRY         *13
 41000000 000000001053 CFCT           *13
 41000000 000000000670 CFLPT1         *13       537       538       550       551       568       569
                                      716       718       762       763       768       788       790
                                      809       811       820       821       852       854      1961
                                     1963      1991      1993      2067      2069      2072      2074
                                     2083      2084      2089      2104      2106      2109      2111
                                     2122      2123      2151      2153      2162      2163
 41000000 000000000672 CFLPT2         *13       539       541      1964      1967      2021      2023
 40000000 000000000015 CFSA           *13
 40000000 000000000646 CHDBK          *13
 40000000 000000000773 CHR            *13
 40000000 000000000006 CHRD           *13
 40000000 000000000772 CHRO           *13
 40000000 000000007640 CHRTP          *13
 01101000 000000003470 CI2ER         2296     *2301
 40000000 000000001043 CIAC           *13
 40000000 000000000012 CIAWS          *13
 40000000 000000001051 CIBSI          *13
 40000000 000000000516 CIND           *13
 40000000 000000001041 CINVSZ         *13
 40000000 000000001042 CIPG           *13
 40000000 000000001050 CIPSI          *13
 40000000 000000000000 CIRUN          *13
 40000000 000000000002 CIRWS          *13
 40000000 000000000002 CISWS          *13
 40000000 000000000014 CIWSOF         *13
 40000000 000000303374 CKSM           *13
 40000000 000000000022 CLCN           *13
 40000000 000000000023 CLCP           *13
 40000000 000000000003 CLCRC          *13
 40000000 000000000003 CLCSC          *13
 40000000 000000000237 CLI            *13
 40000000 000000000026 CLNG           *13
 40000000 000000000052 CMPL           *13
 40000000 000000000002 CN             *13
 40000000 000000303315 CNE1           *13
 12:42 09/05/97  FILE=ZIM$DBED.:ZIC0TSI       SYMBOL TABLE                                               92   BMAP - B00
 40000000 000000006034 CNUL           *13
 40000000 000000100000 COB74          *13
 40000000 000000000001 COFS           *13
 40000000 000000000045 CONCD          *13
 40000000 000000007764 CP6PGSZB       *13
 41000000 000000001775 CP6PGSZW       *13
 40000000 000000001000 CPGR           *13
 40000000 000000000723 CPTRN          *13
 40000000 000000000723 CPTRO          *13
 61000000 000000000004 CPW            *13      1897      1917
 40000000 000000000112 CRA            *13
 40000000 000000001004 CRD            *13
 40000000 000000000764 CREC           *13
 40000000 000000006344 CRIT           *13
 40000000 000000006200 CRNUL          *13
 40000000 000000007330 CRST           *13
 41000000 000000001223 CRUN           *13
 41000000 000000000000 CSECT          *13
 40000000 000000000007 CSMPP          *13
 40000000 000000001000 CSPAC          *13
 40000000 000000000004 CSPAH          *13
 40000000 777777777776 CSPES          *13
 40000000 777777777776 CSPSB          *13
 40000000 000000000115 CSTS           *13
 40000000 000000000071 CSUB           *13
 40000000 000000000017 CSZ            *13
 40000000 000000000057 CTMASK         *13
 40000000 000000000774 CTPAI          *13
 40000000 000000000240 CURLN          *13
 40000000 000000000236 CURLT          *13
 40000000 000000000770 CURPG          *13
 40000000 000000000001 CURR           *13
 40000000 000000000035 CURRS          *13
 40000000 000000000037 CURSS          *13
 01101000 000000003420 CVE07         1495     *2218
 01101000 000000001132 CVE1           137      *890
 01101000 000000003426 CVE10         1502      2124     *2240
 12:42 09/05/97  FILE=ZIM$DBED.:ZIC0TSI       SYMBOL TABLE                                               93   BMAP - B00
 01101000 000000003426 CVE11         1583     *2241
 01101000 000000003426 CVE12         1649     *2242
 01101000 000000001132 CVE2           176      *891
 01101000 000000001132 CVE20          252       808       851      *894      2150
 01101000 000000001132 CVE21          269      *895
 01101000 000000001132 CVE22          283      *896
 01101000 000000003426 CVE23         1471     *2243
 01101000 000000003426 CVE24         1483     *2244
 01101000 000000003426 CVE25         1551     *2245
 01101000 000000003426 CVE26         1569     *2246
 01101000 000000001132 CVE27          395      *897
 01101000 000000001132 CVE3           219      *892
 01101000 000000001132 CVE4           376      *893
 40000000 000000001005 CWRT           *13
 40000000 000000000237 CWSOF          *13
 60000000 000000000001 D              *13
 01101000 000000003424 D30ER         1874     *2234
 40000000 000000000003 DBAN           *13
 01101000 000000001163 DBC1          *945       949
 40000000 000000000036 DBDR           *13
 40000000 000000000037 DBFN           *13
 40000000 000000000754 DBK            *13
 40000000 000000000777 DBKAC          *13
 40000000 000000000000 DBKEY          *13
 40000000 000000000000 DBKL           *13
 40000000 000000007474 DBKN           *13
 41000000 000000000776 DBKR           *13
 40000000 000000000777 DBKRQ          *13
 40000000 000000000234 DBKSI          *13
 40000000 000000000651 DBKSR          *13
 40000000 000000000047 DBKYN          *13
 40000000 000000210652 DBLC01         *13
 40000000 000000210653 DBLC05         *13
 40000000 000000303334 DBLC07         *13
 40000000 000000210655 DBLD01         *13
 40000000 000000000010 DBLIM          *13
 40000000 000000000033 DBPKY          *13
 12:42 09/05/97  FILE=ZIM$DBED.:ZIC0TSI       SYMBOL TABLE                                               94   BMAP - B00
 40000000 000000000023 DBRN           *13
 40000000 000000000013 DBSN           *13
 40000000 000000000001 DBST           *13
 41000000 000000000757 DCDSR          *13       254       271       288       397       989      1431
                                     1434      1529      1532      1543      1546      1561      1564
                                     1605      1607      1618      1620      1631      1633      1644
                                     1646      1665      1673      1772      1775      1815      1819
                                     1823      1826      1832      1899      1902      1919      1928
                                     2321      2341      2350      2370
 41000000 000000210650 DCE1           *13      2216
 01101000 000000003411 DCER          2202     *2204
 01101000 000000003416 DCER1         1413     *2215
 01101000 000000000742 DCLS0          617      *729
 00101000 000000000743 DCLS1         *730
 40000000 000000001053 DCPR           *13
 40000000 000000001053 DCPW           *13
 40000000 000000000015 DCTBL          *13
 40000000 000000000032 DDBK           *13
 40000000 000000000006 DDCB           *13
 40000000 000000011754 DDI            *13
 41000000 000000000000 DEF            *13        34       334      1361      1709
 40000000 000000000014 DEF2           *13
 40000000 000000303413 DELAK          *13
 40000000 000000000036 DELRS          *13
 40000000 000000000732 DEPCW          *13
 01101000 000000003410 DFLE1         1990     *2201
 40000000 000000303414 DLDBK          *13
 40000000 000000210627 DLE1           *13
 40000000 000000303310 DLE2           *13
 40000000 000000210631 DLE3           *13
 40000000 000000016040 DNES           *13
 40000000 777777777777 DPAGN          *13
 40000000 000000000020 DPPI           *13
 40000000 000000000053 DPSLW          *13
 01101000 000000003427 DR1           2211      2214      2217      2220      2223      2236      2248
                                    *2250
 40000000 000000000003 DS             *13
 12:42 09/05/97  FILE=ZIM$DBED.:ZIC0TSI       SYMBOL TABLE                                               95   BMAP - B00
 40000000 000000001063 DSDES          *13
 40000000 000000303316 DSE1           *13
 40000000 000000000735 DUSEPA         *13
 60000000 000000000001 E              *13
 01101000 000000000764 ECER           744       751      *753
 41000000 000000303251 EDPER          *13       865      2210
 40000000 000000000026 EEIND          *13
 40000000 000000000713 EFIND          *13
 40000000 000000001030 ELO            *13
 40000000 000000210711 ENCPNA         *13
 40000000 000000000007 ENCRP          *13
 41000000 000000000752 ENDSR          *13       106       108       154       156       195       198
                                      208       211       223       226       286       289       301
                                      309       440       444       465       468       486       489
                                      826       829       847       849       975       979      1470
                                     1482      1550      1568      1923      1927      1938      2146
                                     2148      2168      2171      2345
 41000000 000000210647 ENE1           *13       862
 01101000 000000001120 ENER1           87      *861
 40000000 000000000716 ENIND          *13
 40000000 000000000013 ENTBL          *13
 40000000 000000000710 ENTNO          *13
 40000000 000000000712 ENTPTR         *13
 40000000 000000000717 ENTSZ          *13
 40000000 000000000711 ENTTYP         *13
 40000000 000000004064 EOSR           *13
 01101000 000000001133 ER1            863       866       869       871       886       900      *902
 01101000 000000003424 ERD26         1758     *2229
 01101000 000000001130 ERE08          183      *873
 01101000 000000001130 ERE12          238      *874
 40000000 000000000004 ES             *13
 41000000 000000000100 ESTSZ          *13
 40000000 000000000725 ESZ            *13
 40000000 000000000005 ETCADR         *13
 40000000 000000000005 ETCDBNO        *13
 40000000 000000000064 EXCCD          *13
 41101000 000000001731 FACTOR1        645     *1293
 12:42 09/05/97  FILE=ZIM$DBED.:ZIC0TSI       SYMBOL TABLE                                               96   BMAP - B00
 01101000 000000002017 FACTOR2        651     *1314
 40000000 000000234534 FALRT          *13
 41000000 000000001055 FBF72          *13       166       168      1444      1446      1456      1458
                                     1730      1732
 41000000 000000001025 FBU61          *13      2365      2369
 41000000 000000001020 FBUF           *13       988      1468      1480      1542      1560
 41000000 000000001026 FBUF1          *13       127       129       141       143       365       368
                                      380       383      1578      1580      1592      1594
 41000000 000000001027 FBUF4          *13       985
 41000000 000000001024 FBUF6          *13       980       984
 41000000 000000001022 FBUFM          *13      2363
 41000000 000000001021 FBUFU          *13      1469      1481      1549      1567
 41000000 000000001023 FBUMD          *13      2351
 40000000 000000000004 FCN            *13
 40000000 000000000051 FCNT           *13
 40000000 000000000002 FCP            *13
 40000000 000000000047 FCSS           *13
 40000000 000000000005 FD             *13
 40000000 000000210637 FDE1           *13
 40000000 000000303320 FDE2           *13
 40000000 000000303321 FDE3           *13
 40000000 000000210642 FDE4           *13
 40000000 000000210643 FDE5           *13
 40000000 000000210644 FDE6           *13
 40000000 000000303325 FDE7           *13
 40000000 000000303326 FDE8           *13
 40000000 000000000021 FEASZ          *13
 40000000 000000000740 FETM           *13
 40000000 000000000006 FI             *13
 40000000 000000000103 FIAC           *13
 41000000 000000001100 FIB1           *13
 41000000 000000001130 FIBP           *13
 40000000 000000000000 FIBX           *13
 40000000 000000000102 FICNT          *13
 40000000 000000000005 FIPN           *13
 01101000 000000002157 FIVER          666     *1335
 40000000 000000000054 FKIND          *13
 12:42 09/05/97  FILE=ZIM$DBED.:ZIC0TSI       SYMBOL TABLE                                               97   BMAP - B00
 40000000 000000000015 FLAGS          *13
 40000000 000000000244 FLDDSC         *13
 01101000 000000000763 FLDE1          570      *750       822      2164
 01101000 000000000763 FLDE2          553      *749
 40000000 000000000046 FLDTL          *13
 01101000 000000000710 FLOATIT        674      *679
 01101000 000000003344 FLTM0          807       850      1989      2149     *2177
 01101000 000000003346 FLTM2         2020     *2179
 40000000 000000000020 FMSBF          *13
 40000000 000000000006 FNAM           *13
 40000000 000000000250 FNIND          *13
 40000000 000000000004 FNL            *13
 40000000 000000000101 FRAC           *13
 40000000 000000000002 FRANGE         *13
 40000000 000000211400 FRDNL          *13
 40000000 000000200000 FRTRN          *13
 40000000 000000000005 FRWSO          *13
 40000000 000000000767 FSLN           *13
 40000000 000000000766 FSOF           *13
 40000000 000000000060 FTIND          *13
 40000000 000000303240 FTLINCR        *13
 40000000 000000000021 FWSSZ          *13
 40000000 000000000246 GACDK          *13
 40000000 000000000014 GDCB           *13
 41000000 000000000006 GERROR         *13       137       176       219       252       269       283
                                      337       376       395       424       553       570       808
                                      822       851      1471      1483      1502      1551      1569
                                     1583      1649      1712      1990      2124      2150      2164
 40000000 000000000016 GINHIB         *13
 40000000 000000000020 GIOAWS         *13
 40000000 000000000022 GIOBUF         *13
 40000000 000000000021 GIOPGNO        *13
 40000000 000000000015 GPAGE          *13
 40000000 000000000010 GRETAC         *13
 40000000 000000000011 GRETFR         *13
 40000000 000000000013 GRETRC         *13
 40000000 000000000012 GRETSC         *13
 12:42 09/05/97  FILE=ZIM$DBED.:ZIC0TSI       SYMBOL TABLE                                               98   BMAP - B00
 40000000 000000000025 GRLCW          *13
 40000000 000000000014 GSTCD          *13
 40000000 000000000007 GSYSERR        *13
 40000000 000000000010 GT             *13
 40000000 000000000046 GTRNAME        *13
 40000000 000000000055 GTRPDCB        *13
 40000000 000000000056 GTRPNO         *13
 40000000 000000000057 GTRRDBK        *13
 40000000 000000000060 GTRRTYPE       *13
 40000000 000000000060 GTRTYPE        *13
 40000000 000000000027 HASH           *13
 40000000 000000000022 HIA            *13
 40000000 000000000775 HIDB           *13
 40000000 000000000003 HIGHDBK        *13
 40000000 000000000004 HIGHPG         *13
 40000000 000000001037 HIL            *13
 40000000 000000000002 HILN           *13
 40000000 000000000006 HPOS           *13
 40000000 000000000756 IAAC           *13
 40000000 000000001011 IACLN          *13
 40000000 000000001010 IALC           *13
 40000000 000000010314 IAN            *13
 40000000 000000001012 IANLN          *13
 40000000 000000000001 IASID          *12
 40000000 000000020320 ICA            *13
 40000000 000000000023 ICKSMP         *13
 40000000 000000000024 ICKSMV         *13
 40000000 000000210742 ICNR           *13
 41000000 000000000020 ICSIZ          *13
 40000000 000000010004 IDBK           *13
 41000000 000000012120 IDI            *13       743       868       885      2213      2219      2235
                                     2302
 40000000 000000000023 IDS            *13
 40000000 000000000011 IF             *13
 40000000 000000000021 IFIPN          *13
 40000000 000000000000 IFR            *13
 40000000 000000234546 IKSEQ          *13
 12:42 09/05/97  FILE=ZIM$DBED.:ZIC0TSI       SYMBOL TABLE                                               99   BMAP - B00
 40000000 000000000113 INAFLAG        *13
 40000000 000000000016 INCHA          *13
 40000000 000000210566 INNM           *13
 40000000 000000210567 INSS           *13
 40000000 000000210575 INSST          *13
 40000000 000000303241 INTER          *13
 40000000 000000400000 INTII          *13
 40000000 000000000013 INTVL          *13
 40000000 000000001060 INVFLG         *13
 40000000 000000001043 INVOF          *13
 40000000 000000000014 INVT           *13
 40000000 000000000034 IOBLK          *13
 40000000 000000303354 IOCLSD         *13
 40000000 000000303355 IOCLSK         *13
 40000000 000000303257 IOE1           *13
 40000000 000000303264 IOE11          *13
 40000000 000000303265 IOE12          *13
 40000000 000000303266 IOE18          *13
 40000000 000000303260 IOE2           *13
 40000000 000000303261 IOE3           *13
 40000000 000000303262 IOE7           *13
 40000000 000000303263 IOE8           *13
 40000000 000000303363 IOFLSH         *13
 40000000 000000210676 IOGDCB         *13
 40000000 000000001002 IOINC          *13
 40000000 000000305160 IOINI          *13
 40000000 000000305155 IONOTIDS       *13
 40000000 000000305154 IONOTKEY       *13
 40000000 000000210677 IOOPND         *13
 40000000 000000210700 IOOPNK         *13
 40000000 000000303361 IORDD          *13
 40000000 000000305156 IOSCHEMA       *13
 40000000 000000001052 IOSTS          *13
 40000000 000000303362 IOWRTD         *13
 41000000 000000000750 IOWS           *13
 40000000 000000000647 IPC            *13
 40000000 000000000650 IPCF           *13
 12:42 09/05/97  FILE=ZIM$DBED.:ZIC0TSI       SYMBOL TABLE                                               100  BMAP - B00
 40000000 000000000006 IROLLFLAG      *13
 40000000 000000010150 IRSN           *13
 40000000 000000000004 ISYSDCB        *13
 40000000 000000000005 ISYSERR        *13
 40000000 000000000061 ITPTR          *13
 40000000 000000000060 ITRS           *13
 40000000 000000021760 IUM            *13
 40000000 000000000017 IUSZ           *13
 40000000 000000234522 IVDBK          *13
 40000000 000000000011 IXBUF$         *13
 40000000 000000000046 IXFBSZ         *13
 40000000 777777777776 IXID           *13
 40000000 777777777777 IXPLL          *13
 40000000 000000000523 KCARG0         *13
 40000000 000000000524 KCARG3         *13
 40000000 000000000525 KCARG4         *13
 40000000 000000000700 KCREG          *13
 40000000 000000000006 KDCB           *13
 40000000 000000000666 KEYDS          *13
 40000000 000000000010 KEYPA          *13
 40000000 777777777776 KLNG           *13
 40000000 000000000022 KPASZ          *13
 40000000 000000000006 KWSZ           *13
 40000000 000000000052 LANGC          *13
 40000000 000000001014 LAS            *13
 01101000 000000000664 LAST           638      *647
 40000000 000000700000 LCODM          *13
 40000000 000000001045 LDPSI          *13
 41000000 000000001071 LINPT          *13       469       471       474
 40000000 000000001017 LNCNT          *13
 40000000 000000000762 LNNO           *13
 40000000 000000001036 LOL            *13
 40000000 000000000715 LOLIM          *13
 00101000 000000000751 LONG1         *738
 40000000 000000000023 LPASZ          *13
 40000000 000000000012 LPP            *13
 40000000 000000257764 LR             *13
 12:42 09/05/97  FILE=ZIM$DBED.:ZIC0TSI       SYMBOL TABLE                                               101  BMAP - B00
 40000000 000000301270 LRA            *13
 40000000 000000000017 LRSZ           *13
 01101000 000000003424 LSD02         1435      2172     *2225
 01101000 000000003424 LSD10         1533     *2226
 01101000 000000003424 LSD24         1734     *2227
 01101000 000000003424 LSD25         1744     *2228
 01101000 000000001130 LSE09          199       830      *875
 01101000 000000001130 LSE10          212      *876
 01101000 000000001130 LSE11          227      *877
 01101000 000000001130 LSE18          290      *878
 01101000 000000001130 LSE23          356      *879
 01101000 000000001130 LSE24          366      *880
 01101000 000000001130 LSE25          381      *881
 01101000 000000001130 LSE26          399      *882
 01101000 000000000761 LSE35          552      *742
 40000000 000000001035 LSPC           *13
 40000000 000000000750 LUPD           *13
 61000000 000000000001 M9             *13
 40000000 000000000013 MD             *13
 40000000 000000300000 MDQS           *13
 40000000 000000000730 MEMPTR         *13
 40000000 000000000727 MEMTYP         *13
 00101000 000000000744 MINUS1        *732
 40000000 000000000045 MODCD          *13
 41000000 000000001207 MODFL          *13
 40000000 000000000042 MODFR          *13
 40000000 000000000044 MODIN          *13
 40000000 000000000044 MODRS          *13
 40000000 000000000043 MODSC          *13
 01101000 000000003514 MOPN          2323     *2343
 01101000 000000003370 MPW10         2031     *2187
 40000000 000000000047 MRBKI          *13
 40000000 000000210632 MRE4           *13
 40000000 000000303313 MRE5           *13
 40000000 000000210634 MRE7           *13
 01101000 000000003013 MTUWA         1864      1866     *1877
 01101000 000000003531 MVNE..        2356     *2360
 12:42 09/05/97  FILE=ZIM$DBED.:ZIC0TSI       SYMBOL TABLE                                               102  BMAP - B00
 01101000 000000003535 MVT..         2359     *2367
 40000000 000000400000 MW             *13
 01101000 000000003424 NBTD          1674      1791      1802      1939     *2224
 01101000 000000001130 NBTE           310       429      *872
 40000000 000000000025 NCH            *13
 40000000 000000000002 NCHA           *13
 40000000 000000000005 NCHRS          *13
 40000000 000000000014 NDCD           *13
 40000000 000000000012 NENC           *13
 40000000 000000000634 NEW            *13
 40000000 000000001072 NEWSIZ         *13
 40000000 000000235164 NKA            *13
 40000000 000000235020 NKDB           *13
 40000000 000000303415 NLDBK          *13
 40000000 777777777777 NLIND          *13
 40000000 000000001040 NLN            *13
 40000000 000000400000 NLNSA          *13
 01101000 000000003424 NND15         1602     *2230
 01101000 000000003424 NND16         1615     *2231
 01101000 000000003424 NND17         1628     *2232
 01101000 000000003424 NND18         1641      2143     *2233
 01101000 000000001130 NNE02          103       844      *883
 01101000 000000001130 NNE06          151      *884
 41000000 000000001053 NOBF           *13
 40000000 000000000711 NOPTRS         *13
 01101000 000000003450 NOT16         2271     *2276
 01101000 000000003454 NOT17        *2282      2286
 01101000 000000000644 NOTZERO        615      *620
 40000000 000000000742 NPARCW         *13
 40000000 000000000630 NPIND          *13
 40000000 000000000004 NPOS           *13
 40000000 000000234510 NSA            *13
 40000000 000000234654 NSCS           *13
 40000000 000000234344 NSDB           *13
 40000000 000000000001 NSTS           *13
 40000000 000000000726 NUMENT         *13
 40000000 000000000727 NUMPTR         *13
 12:42 09/05/97  FILE=ZIM$DBED.:ZIC0TSI       SYMBOL TABLE                                               103  BMAP - B00
 40000000 777777777760 NXBUF          *13
 40000000 000000000713 NXPRI          *13
 40000000 000000000771 NXTC           *13
 40000000 000000000001 OAACN          *13
 40000000 000000000022 OACIWSOF       *13
 40000000 000000000001 OAOFST         *13
 40000000 000000000002 OARCN          *13
 40000000 000000000001 OASCN          *13
 40000000 000000000014 OD             *13
 40000000 000000000074 ODBK           *13
 40000000 000000001072 OLDSIZ         *13
 01101000 000000002160 ONER           676     *1336
 40000000 000000000101 OPADP          *13
 40000000 000000000741 OPARCW         *13
 40000000 000000210570 ORDNI          *13
 40000000 777777777777 OTVL           *13
 40000000 000000000252 OWNPTR         *13
 40000000 000000000016 PABUF          *13
 40000000 000000001041 PACD           *13
 40000000 000000000001 PACW           *13
 40000000 000000000733 PADBK          *13
 40000000 000000000740 PADUP          *13
 40000000 000000000745 PAEN           *13
 40000000 000000000745 PAEO           *13
 40000000 000000000734 PAEOF          *13
 40000000 000000303336 PAER1          *13
 40000000 000000303337 PAER2          *13
 40000000 000000303340 PAER3          *13
 40000000 000000303341 PAER4          *13
 40000000 000000303342 PAER5          *13
 40000000 000000303343 PAER6          *13
 40000000 000000000747 PAESZ          *13
 40000000 000000001060 PAFLG          *13
 40000000 000000000731 PAOPTR         *13
 40000000 000000000734 PAPOF          *13
 40000000 000000000714 PARCW          *13
 40000000 000000000726 PARVPA         *13
 12:42 09/05/97  FILE=ZIM$DBED.:ZIC0TSI       SYMBOL TABLE                                               104  BMAP - B00
 40000000 000000000724 PASPLT         *13
 40000000 000000000004 PAWSZ          *13
 40000000 777777777762 PBUF           *13
 40000000 000000000020 PC             *13
 41000000 000000000510 PCB            *13
 40000000 000000000642 PCD            *13
 40000000 000000000642 PCD2           *13
 40000000 000000000247 PCEXI          *13
 40000000 000000000675 PCMIN          *13
 40000000 000000004541 PCOMP          *13
 40000000 000000000010 PD             *13
 40000000 000000000040 PE             *13
 40000000 000000000017 PENDING        *13
 40000000 000000000004 PF             *13
 40000000 000000000400 PFG            *13
 40000000 000000000200 PFM            *13
 40000000 000000000100 PFS            *13
 40000000 000000000400 PG             *13
 40000000 000000001064 PGHD           *13
 40000000 000000000006 PGLIM          *13
 40000000 000000000003 PGRNG          *13
 40000000 000000000746 PGSIZE         *13
 40000000 000000000641 PGSPLT         *13
 40000000 000000000100 PKAW           *13
 40000000 000000001034 PLO            *13
 40000000 000000000004 PLSEP          *13
 40000000 000000000200 PM             *13
 40000000 000000001054 PNEOO          *13
 40000000 000000001047 POFSI          *13
 40000000 000000000005 PPOS           *13
 01101000 000000003350 PPW10         2033     *2185
 40000000 000000000000 PR0            *12
 41000000 000000000001 PR1            *12        33       236       513      1360
 40000000 000000000002 PR2            *12
 40000000 000000000003 PR3            *12
 40000000 000000000004 PR4            *12
 41000000 000000000005 PR5            *12       137       176       219       252       269       283
 12:42 09/05/97  FILE=ZIM$DBED.:ZIC0TSI       SYMBOL TABLE                                               105  BMAP - B00
                                      337       376       395       424       553       570       808
                                      822       851      1471      1483      1502      1551      1569
                                     1583      1649      1712      1990      2124      2150      2164
 41000000 000000000006 PR6            *12        34        95        96       103       104       109
                                      117       118       126       130       144       151       152
                                      157       165       169       179       186       193       197
                                      206       210       221       234       240       241       258
                                      272       284       299       302       303       305       313
                                      314       332       334       345       346       354       355
                                      364       369       384       398       409       416       426
                                      438       446       450       463       475       484       492
                                      497       511       519       526       527       536       542
                                      549       557       567       574       710       719       761
                                      775       782       791       806       812       819       824
                                      844       845       855       905       918       923       938
                                      956       974       976       986      1361      1421      1422
                                     1429      1433      1443      1447      1455      1459      1467
                                     1479      1491      1497      1510      1511      1519      1520
                                     1527      1531      1540      1545      1547      1558      1563
                                     1565      1577      1591      1595      1602      1603      1608
                                     1615      1616      1621      1628      1629      1634      1641
                                     1642      1659      1660      1663      1666      1667      1669
                                     1682      1689      1707      1709      1720      1721      1729
                                     1733      1742      1743      1754      1761      1770      1777
                                     1783      1789      1799      1813      1822      1828      1845
                                     1861      1867      1880      1896      1901      1916      1921
                                     1924      1931      1932      1934      1947      1948      1960
                                     1968      1988      1994      2066      2075      2082      2096
                                     2103      2112      2121      2128      2143      2144      2154
                                     2161      2166      2253      2269      2294      2305      2319
                                     2334      2338      2346
 41000000 000000000007 PR7            *12        32        97       103       106       108       110
                                      119       127       129       131       138       140       141
                                      143       145       151       154       156       158       166
                                      168       170       178       185       187       195       198
                                      200       208       211       213       220       223       225
                                      226       228       242       254       255       257       259
 12:42 09/05/97  FILE=ZIM$DBED.:ZIC0TSI       SYMBOL TABLE                                               106  BMAP - B00
                                      271       273       286       288       289       291       301
                                      309       315       321       338       347       357       365
                                      368       370       377       379       380       383       385
                                      397       400       410       411       413       415       417
                                      428       431       434       435       440       443       444
                                      448       451       453       454       455       465       468
                                      469       471       474       476       486       489       490
                                      494       496       498       516       518       520       528
                                      537       538       539       541       543       550       551
                                      559       568       569       576       612       613       614
                                      625       627       628       632       637       643       646
                                      652       656       659       667       677       685       687
                                      688       693       702       704       711       713       716
                                      718       720       724       762       763       767       768
                                      770       772       774       776       783       785       788
                                      790       792       809       811       813       820       821
                                      826       829       831       844       847       849       852
                                      854       856       916       920       922       924       925
                                      926       936       939       942       961       971       975
                                      979       980       984       985       988       989       991
                                     1359      1423      1431      1434      1436      1444      1446
                                     1448      1456      1458      1460      1468      1469      1470
                                     1472      1480      1481      1482      1484      1492      1493
                                     1503      1512      1521      1529      1532      1534      1542
                                     1543      1546      1549      1550      1552      1560      1561
                                     1564      1567      1568      1570      1578      1580      1581
                                     1582      1584      1592      1594      1596      1602      1605
                                     1607      1609      1615      1618      1620      1622      1628
                                     1631      1633      1635      1641      1644      1646      1647
                                     1648      1650      1665      1673      1675      1683      1684
                                     1686      1688      1690      1696      1713      1722      1730
                                     1732      1735      1745      1755      1756      1760      1762
                                     1772      1775      1776      1779      1782      1790      1792
                                     1801      1804      1807      1808      1810      1815      1818
                                     1819      1823      1824      1826      1830      1832      1833
                                     1835      1837      1838      1846      1847      1862      1863
                                     1876      1879      1881      1899      1902      1903      1919
 12:42 09/05/97  FILE=ZIM$DBED.:ZIC0TSI       SYMBOL TABLE                                               107  BMAP - B00
                                     1923      1927      1928      1938      1940      1950      1961
                                     1963      1964      1967      1969      1991      1993      1996
                                     2010      2011      2014      2021      2023      2029      2060
                                     2067      2069      2072      2074      2076      2083      2084
                                     2088      2089      2091      2093      2095      2097      2104
                                     2106      2109      2111      2113      2122      2123      2130
                                     2143      2146      2148      2151      2153      2155      2162
                                     2163      2168      2171      2173      2177      2178      2179
                                     2180      2263      2291      2293      2297      2316      2321
                                     2332      2341      2345      2350      2351      2353      2358
                                     2363      2365      2369      2370      2373
 40000000 000000303267 PRE1           *13
 40000000 000000303277 PRE10          *13
 40000000 000000303270 PRE3           *13
 41000000 000000303271 PRE4           *13       870
 41000000 000000303272 PRE5           *13      2222
 40000000 000000210613 PRE6           *13
 40000000 000000210614 PRE7           *13
 40000000 000000210615 PRE8           *13
 40000000 000000303276 PRE9           *13
 40000000 000000000522 PREXC          *13
 40000000 000000000521 PRFR           *13
 40000000 000000000521 PRFR2          *13
 40000000 000000000000 PRIV           *13
 40000000 000000000526 PROPA          *13
 40000000 000000000517 PRRC           *13
 40000000 000000000517 PRRS           *13
 40000000 000000000520 PRSC           *13
 40000000 000000000516 PRSS           *13
 40000000 000000000644 PRSTS          *13
 40000000 000000000100 PS             *13
 41000000 000000000000 PS0SID         *12
 41000000 000000000001 PS1SID         *12
 41000000 000000000002 PS2SID         *12
 41000000 000000000003 PS3SID         *12
 41000000 000000000004 PS4SID         *12
 40000000 000000000005 PS5SID         *12
 12:42 09/05/97  FILE=ZIM$DBED.:ZIC0TSI       SYMBOL TABLE                                               108  BMAP - B00
 40000000 000000000006 PS6SID         *12
 40000000 000000303416 PSA            *13
 40000000 000000000020 PSC            *13
 40000000 000000000010 PSD            *13
 40000000 000000000004 PSF            *13
 40000000 000000000400 PSO            *13
 40000000 000000000720 PTESZ          *13
 40000000 000000000631 PTR            *13
 40000000 000000000724 PTRESZ         *13
 40000000 000000000710 PTRNO          *13
 41000000 000000000000 PW1           2036     *2188
 41000000 000000000010 PW16          2050      2056     *2192
 41000000 000000000002 PW2           2039     *2189
 41000000 000000000012 PW32          2053     *2193
 41000000 000000000004 PW4           2042      2057     *2190
 41000000 000000000006 PW8           2045     *2191
 41000000 000000000630 PWS            *13
 40000000 000000000002 RADDR          *13
 40000000 000000000010 RADIX          *13
 40000000 000000000005 RAPTR          *13
 40000000 000000000004 RAWSOF         *13
 40000000 777777777766 RBA            *13
 40000000 000000023432 RCBI           *13
 40000000 000000211234 RCDNL          *13
 41000000 000000000005 RCFRH          *13       905      2253      2305
 40000000 000000000004 RCFRN          *13
 40000000 000000001075 RCHD           *13
 40000000 000000000001 RCID           *13
 40000000 000000000006 RCPTR          *13
 40000000 000000000002 RCRAH          *13
 40000000 000000000001 RCRAN          *13
 40000000 000000000003 RCRSH          *13
 40000000 000000000002 RCRSN          *13
 40000000 000000210667 RCVER1         *13
 40000000 000000210670 RCVER2         *13
 40000000 000000210671 RCVER4         *13
 40000000 000000210672 RCVER5         *13
 12:42 09/05/97  FILE=ZIM$DBED.:ZIC0TSI       SYMBOL TABLE                                               109  BMAP - B00
 40000000 000000210673 RCVER6         *13
 40000000 000000000736 RCW1           *13
 40000000 000000000737 RCW2           *13
 40000000 000000000004 RCWSO          *13
 40000000 000000000077 RDAC           *13
 40000000 000000000076 RDCNT          *13
 40000000 000000040000 RDI            *13
 40000000 000000015674 RDLT           *13
 40000000 000000000075 RDYCW          *13
 40000000 000000000066 RECAC          *13
 40000000 000000000065 RECFR          *13
 40000000 000000000070 RECRC          *13
 40000000 000000000067 RECSC          *13
 40000000 000000000003 RECSZ          *13
 40000000 000000000235 REMLT          *13
 40000000 000000000062 REM_RECOVER    *13
 40000000 000000000251 RETFR          *13
 40000000 000000210724 RFDNL          *13
 40000000 000000017644 RIM            *13
 40000000 000000000005 RNAM           *13
 40000000 000000015706 RNDLT          *13
 01101000 000000000704 RNDOUT         668      *675
 40000000 000000000662 RNG1           *13
 40000000 000000000664 RNG2           *13
 40000000 000000000073 RNGD           *13
 40000000 000000000072 RNGO           *13
 40000000 000000000660 RNGTAL         *13
 40000000 000000020154 RNM            *13
 40000000 000000000041 ROCUR          *13
 41000000 000000000001 ROFST          *13        96       109       118       130       144       157
                                      169       179       186       193       206       221       241
                                      258       272       284       303       305       314       346
                                      355       369       384       398       416       426       438
                                      446       475       497       519       527       542       557
                                      574       719       775       791       812       824       855
                                     1421      1433      1443      1455      1467      1479      1491
                                     1497      1510      1519      1531      1540      1545      1547
 12:42 09/05/97  FILE=ZIM$DBED.:ZIC0TSI       SYMBOL TABLE                                               110  BMAP - B00
                                     1558      1563      1565      1577      1591      1602      1603
                                     1615      1616      1628      1629      1641      1642      1659
                                     1663      1666      1682      1720      1729      1742      1754
                                     1770      1777      1822      1845      1861      1867      1901
                                     1921      1931      1947      1960      1988      2066      2082
                                     2103      2121      2143      2144      2161
 40000000 000000002114 ROLL           *13
 01101000 000000001116 ROUNDER        765      *858      2086
 40000000 000000020010 RPM            *13
 40000000 000000000001 RSCDH          *13
 40000000 000000000001 RSCDN          *13
 01101000 000000000741 RSDES          556       573       618       694      *724       828      2127
                                     2170
 40000000 000000211710 RSDNL          *13
 40000000 000000004540 RSEE           *13
 40000000 000000000003 RSIZ           *13
 40000000 000000000110 RSPAM          *13
 40000000 000000000004 RSPTR          *13
 40000000 000000000037 RSREQ          *13
 40000000 000000000002 RSSSH          *13
 40000000 000000000001 RSSSN          *13
 40000000 000000210574 RSZER          *13
 40000000 000000000632 RSZTP          *13
 40000000 000000000003 RTP            *13
 40000000 000000000003 RTYP           *13
 40000000 000000000530 RV1            *13
 40000000 000000000550 RV2            *13
 40000000 000000000570 RV3            *13
 40000000 000000000610 RV4            *13
 40000000 000000000003 RVASID         *12
 40000000 000000000510 RVI            *13
 40000000 000000000511 RVO            *13
 40000000 000000000513 RVPA           *13
 40000000 000000000512 RVT            *13
 40000000 000000000022 RVTAL          *13
 40000000 000000000002 RWSZ           *13
 40000000 000000000015 RY             *13
 12:42 09/05/97  FILE=ZIM$DBED.:ZIC0TSI       SYMBOL TABLE                                               111  BMAP - B00
 40000000 000000210620 RYE1           *13
 40000000 000000210621 RYE4           *13
 40000000 777777777767 SA             *13
 40000000 000000000005 SANAM          *13
 40000000 000000001062 SCDES          *13
 40000000 000000211544 SCDNL          *13
 01101000 000000001132 SCE1           424      *899
 40000000 000000000024 SCFC           *13
 40000000 000000000002 SCID           *13
 40000000 000000000024 SCLST          *13
 40000000 000000000004 SCNAM          *13
 40000000 000000000004 SCPTR          *13
 40000000 000000000003 SCRSH          *13
 40000000 000000000002 SCRSN          *13
 40000000 000000000001 SCWSO          *13
 40000000 000000001225 SFWS           *13
 40000000 000000001073 SIZCHG         *13
 40000000 000000000645 SKFLG          *13
 40000000 000000000643 SKIND          *13
 01101000 000000001027 SKIP41         798      *804
 01101000 000000001070 SKIP43         837      *843
 01101000 000000003276 SKIPD42       2136     *2142
 40000000 000000000641 SKTYP          *13
 40000000 000000020464 SMCR           *13
 40000000 000000000003 SNAM           *13
 40000000 000000000107 SNIND          *13
 40000000 000000000735 SNPAE          *13
 40000000 000000001046 SNSI           *13
 40000000 000000000743 SOE            *13
 40000000 000000020630 SORSA          *13
 40000000 000000004374 SOSE           *13
 40000000 000000000000 SPAV           *13
 40000000 000000000744 SPCAVN         *13
 40000000 000000000744 SPCAVO         *13
 40000000 000000000765 SPLF           *13
 41000000 000000000765 SPND           *13
 40000000 000000000006 SSDT           *13
 12:42 09/05/97  FILE=ZIM$DBED.:ZIC0TSI       SYMBOL TABLE                                               112  BMAP - B00
 40000000 000000303243 SSER           *13
 40000000 000000303244 SSER1          *13
 40000000 000000000002 SSH            *13
 40000000 000000000005 SSNAM          *13
 40000000 000000210573 SSNF           *13
 40000000 000000210576 SSNV           *13
 40000000 000000000020 SSSPTR         *13
 40000000 000000000010 SSVDT          *13
 40000000 000000000033 SSZTP          *13
 40000000 000000000017 ST             *13
 40000000 000000000104 STBIN          *13
 40000000 000000000105 STDEC          *13
 40000000 000000303302 STE1           *13
 40000000 000000303303 STE2           *13
 40000000 000000210624 STE3           *13
 40000000 000000303305 STE4           *13
 40000000 000000303306 STE5           *13
 41000000 000000000100 STKSIZ         *13
 40000000 000000000055 STMASK         *13
 40000000 000000000062 SUST           *13
 01101000 000000003103 SVDES         1978     *1986
 41000000 000000000020 SWS            *13
 40000000 000000000000 SWSAC          *13
 40000000 000000000002 SWSZ           *13
 40000000 000000000000 SYSSF          *13
 40000000 000000000765 SZREQ          *13
 40000000 000000000004 TBUF           *13
 01101000 000000001251 TCTBL          103       151       844     *1019      1602      1615      1628
                                     1641      2143
 01101000 000000001451 TCTBL2         919     *1155
 41000000 000000001061 TCTRS          *13       103       151       428       434       453       844
                                      920       922       924       925      1602      1615      1628
                                     1641      2143
 60000000 000000000000 TDS            *13
 41000000 000000000113 TEMP           *13
 00101000 000000002161 TENTH        *1337
 40000000 000000000640 TFLD           *13
 12:42 09/05/97  FILE=ZIM$DBED.:ZIC0TSI       SYMBOL TABLE                                               113  BMAP - B00
 40000000 000000000657 TFLD2          *13
 40000000 000000000056 TMASK          *13
 40000000 000000000061 TMODE          *13
 40000000 000000000676 TMPPA          *13
 40000000 000000000003 TPAI           *13
 40000000 000000500000 TPRCOD         *13
 40000000 000000001031 TSFN           *13
 40000000 000000000021 TSI            *13
 00101000 000000000746 TWO72         *735
 40000000 000000001013 UBRD2          *13
 41000000 000000001223 UBSZ           *13
 40000000 000000000667 UCADR          *13
 40000000 000000000036 UCRS           *13
 01101000 000000002621 UDL1         *1706      1710
 01101000 000000003426 UDPE          1712     *2247
 01101000 000000003412 UDPNF         1708     *2209
 01101000 000000003414 UDPR          1712     *2212
 01101000 000000000351 UEL1          *331       335
 01101000 000000001132 UEPE           337      *898
 01101000 000000001122 UEPNF          333      *864
 01101000 000000001124 UEPR           337      *867
 40000000 000000000024 UFSPK          *13
 40000000 000000000024 UFSPK2         *13
 40000000 000000000715 ULIM           *13
 40000000 000000004230 UNA            *13
 40000000 000000303417 UNIM           *13
 41000000 000000000002 UOFST          *13        95       103       104       117       126       151
                                      152       165       197       210       234       240       299
                                      302       313       345       354       364       409       450
                                      463       484       492       511       526       536       549
                                      567       710       761       782       806       819       844
                                      845       918       923       938       956       974       976
                                      986      1422      1429      1447      1459      1511      1520
                                     1527      1595      1608      1621      1634      1660      1667
                                     1669      1689      1721      1733      1743      1761      1783
                                     1789      1799      1813      1828      1880      1896      1916
                                     1924      1932      1934      1948      1968      1994      2075
 12:42 09/05/97  FILE=ZIM$DBED.:ZIC0TSI       SYMBOL TABLE                                               114  BMAP - B00
                                     2096      2112      2128      2154      2166      2269      2294
                                     2319      2334      2338      2346
 40000000 000000001035 UPACD          *13
 40000000 000000000721 UPACW          *13
 40000000 000000000007 UPFLAG         *13
 40000000 000000000103 UPPAI          *13
 40000000 000000000004 UPTSID         *12
 40000000 000000000674 USTAT          *13
 41000000 000000000002 UWASID         *12        33      1360
 40000000 000000000002 UWSSZ          *13
 40000000 000000000020 UWSZ           *13
 40000000 000000000243 VFDSC          *13
 41000000 000000001070 VFDSR          *13       435       443       448       451       490       494
                                      496      1776      1779      1782      1790      1807      1810
                                     1818      1830      1833
 40000000 000000000656 VFLD           *13
 41000000 000000001074 VFLNG          *13      1801      1808      1824      1835      1846
 40000000 000000001124 VIB1           *13
 40000000 000000001154 VIBP           *13
 40000000 000000000000 VLPSID         *12
 41000000 000000001074 VRSIZ          *13       431       454      1804      1837
 01101000 000000003200 VZERO         2026      2028      2047      2055     *2058
 40000000 000000001067 WLOA           *13
 40000000 000000100000 WRTI           *13
 40000000 000000000000 WSBID          *13
 40000000 000000000003 WSOF           *13
 41000000 000000000000 X0             *12       903       944       948      2251      2281      2285
                                     2303      2353      2354      2355      2357      2358
 41000000 000000000001 X1             *12        32        34        35        36        97       110
                                      119       131       137       145       158       170       176
                                      179       180       187       200       213       219       228
                                      234       235       242       252       259       269       273
                                      283       291       305       306       315       321       337
                                      338       347       357       370       376       385       395
                                      400       417       424       455       476       492       493
                                      494       498       511       512       520       528       543
                                      553       559       570       576       612       702       704
 12:42 09/05/97  FILE=ZIM$DBED.:ZIC0TSI       SYMBOL TABLE                                               115  BMAP - B00
                                      720       776       792       808       813       822       831
                                      851       856       916       926       936       940       956
                                      957       961       971       991      1359      1361      1362
                                     1363      1423      1436      1448      1460      1471      1472
                                     1483      1484      1497      1498      1502      1503      1512
                                     1521      1534      1551      1552      1569      1570      1583
                                     1584      1596      1609      1622      1635      1649      1650
                                     1669      1670      1675      1690      1696      1712      1713
                                     1722      1735      1745      1762      1777      1778      1779
                                     1792      1799      1800      1801      1838      1847      1881
                                     1903      1934      1935      1940      1950      1969      1990
                                     1996      2010      2060      2076      2097      2113      2124
                                     2130      2150      2155      2164      2173      2263      2269
                                     2270      2277      2297      2316      2332      2373
 41000000 000000000002 X2             *12       328       332       941       976       977      1703
                                     1707      2278
 41000000 000000000003 X3             *12      2264      2267      2274      2295
 41000000 000000000004 X4             *12       541
 40000000 000000000005 X5             *12
 41000000 000000000006 X6             *12       904      2252      2304
 02201002 000000000000 X66_ARET       *12
 02201001 000000000000 X66_AUTO_0     *12
 41000000 000000000007 X7             *12       905      2253      2305
 40000000 000000210665 XASL           *13
 40000000 000000303420 XLD            *13
 40000000 000000303421 XPD            *13
 40000000 000000000676 XPRS           *13
 40000000 000000210666 XROLL          *13
 40000000 000000210664 XUNEX          *13
 41000000 777777777777 XXDPN          *13       332      1707
 03201003 000000000000 ZIB$ICALT     *754      *906     *2205     *2254     *2306
 01101000 000000001153 ZIG$DBCI1      137       176       219       376      *935
 01101000 000000003433 ZIG$DBCI2     1502      1583      1649     *2262
 01101000 000000001200 ZIG$DBCO1      252       269       283       395      *970
 01101000 000000003475 ZIG$DBCO2     1471      1551     *2315
 01101000 000000003503 ZIG$DBCO3     1483      1569     *2331
 01101000 000000002245 ZIG$DBD00     1366      1388     *1411
 12:42 09/05/97  FILE=ZIM$DBED.:ZIC0TSI       SYMBOL TABLE                                               116  BMAP - B00
 01101000 000000002246 ZIG$DBD01     1367     *1417
 01101000 000000002253 ZIG$DBD02     1368     *1427
 01101000 000000002264 ZIG$DBD03     1369     *1440
 01101000 000000002274 ZIG$DBD04     1370     *1452
 01101000 000000002304 ZIG$DBD05     1371     *1464
 01101000 000000002317 ZIG$DBD06     1372     *1476
 01101000 000000002332 ZIG$DBD07     1373     *1488
 01101000 000000002354 ZIG$DBD08     1374     *1507
 01101000 000000002361 ZIG$DBD09     1375     *1516
 01101000 000000002366 ZIG$DBD10     1376     *1525
 01101000 000000002377 ZIG$DBD11     1377     *1538
 01101000 000000002420 ZIG$DBD12     1378     *1556
 01101000 000000002441 ZIG$DBD13     1379     *1574
 01101000 000000002456 ZIG$DBD14     1380     *1588
 01101000 000000002466 ZIG$DBD15     1381     *1600
 01101000 000000002503 ZIG$DBD16     1382     *1613
 01101000 000000002520 ZIG$DBD17     1383     *1626
 01101000 000000002535 ZIG$DBD18     1384     *1639
 01101000 000000002557 ZIG$DBD19     1385     *1655
 01101000 000000002601 ZIG$DBD20     1386     *1679
 01101000 000000002614 ZIG$DBD21     1387     *1694
 00101000 000000002616 ZIG$DBD22    *1700
 01101000 000000002635 ZIG$DBD23     1389     *1717
 01101000 000000002642 ZIG$DBD24     1390     *1726
 01101000 000000002653 ZIG$DBD25     1391     *1739
 01101000 000000002661 ZIG$DBD26     1392     *1751
 01101000 000000002674 ZIG$DBD27     1393     *1766
 01101000 000000002722 ZIG$DBD28     1394     *1796
 01101000 000000002765 ZIG$DBD29     1395     *1842
 01101000 000000002772 ZIG$DBD30     1396     *1858
 01101000 000000003020 ZIG$DBD31     1397     *1894
 01101000 000000003031 ZIG$DBD32     1398     *1913
 01101000 000000003061 ZIG$DBD33     1399     *1945
 01101000 000000003066 ZIG$DBD34     1400     *1958
 01101000 000000003100 ZIG$DBD35     1401     *1976
 01101000 000000003102 ZIG$DBD36     1402     *1984
 01101000 000000003202 ZIG$DBD37     1403     *2064
 12:42 09/05/97  FILE=ZIM$DBED.:ZIC0TSI       SYMBOL TABLE                                               117  BMAP - B00
 01101000 000000003217 ZIG$DBD38     1404     *2080
 01101000 000000003241 ZIG$DBD39     1405     *2101
 01101000 000000003256 ZIG$DBD40     1406     *2119
 01101000 000000003273 ZIG$DBD41     1407     *2134
 01101000 000000003275 ZIG$DBD42     1408     *2140
 01101000 000000003323 ZIG$DBD43     1409     *2159
 12101000 000000002162 ZIG$DBDCD       10     *1358
 01101000 000000003120 ZIG$DBDFL      808       851      1990     *2009      2150
 03201000 000000000000 ZIG$DBDPI      *11       337      1712
 01101000 000000000064 ZIG$DBE00       39        60       *85
 01101000 000000000065 ZIG$DBE01       40       *91
 01101000 000000000072 ZIG$DBE02       41      *101
 01101000 000000000107 ZIG$DBE03       42      *114
 01101000 000000000114 ZIG$DBE04       43      *123
 01101000 000000000124 ZIG$DBE05       44      *135
 01101000 000000000141 ZIG$DBE06       45      *149
 01101000 000000000156 ZIG$DBE07       46      *162
 01101000 000000000166 ZIG$DBE08       47      *174
 01101000 000000000206 ZIG$DBE09       48      *191
 01101000 000000000217 ZIG$DBE10       49      *204
 01101000 000000000230 ZIG$DBE11       50      *217
 01101000 000000000246 ZIG$DBE12       51      *232
 01101000 000000000260 ZIG$DBE13       52      *246
 01101000 000000000260 ZIG$DBE14       53      *250
 01101000 000000000274 ZIG$DBE15       54      *263
 01101000 000000000274 ZIG$DBE16       55      *267
 01101000 000000000305 ZIG$DBE17       56      *277
 01101000 000000000305 ZIG$DBE18       57      *281
 01101000 000000000322 ZIG$DBE19       58      *295
 01101000 000000000344 ZIG$DBE20       59      *319
 00101000 000000000346 ZIG$DBE21     *325
 01101000 000000000365 ZIG$DBE22       61      *342
 01101000 000000000372 ZIG$DBE23       62      *351
 01101000 000000000400 ZIG$DBE24       63      *361
 01101000 000000000411 ZIG$DBE25       64      *374
 01101000 000000000427 ZIG$DBE26       65      *389
 01101000 000000000427 ZIG$DBE27       66      *393
 12:42 09/05/97  FILE=ZIM$DBED.:ZIC0TSI       SYMBOL TABLE                                               118  BMAP - B00
 01101000 000000000441 ZIG$DBE28       67      *406
 01101000 000000000454 ZIG$DBE29       68      *421
 01101000 000000000512 ZIG$DBE30       69      *459
 01101000 000000000530 ZIG$DBE31       70      *480
 01101000 000000000547 ZIG$DBE32       71      *509
 01101000 000000000562 ZIG$DBE33       72      *524
 01101000 000000000567 ZIG$DBE34       73      *534
 01101000 000000000601 ZIG$DBE35       74      *547
 01101000 000000000617 ZIG$DBE36       75      *565
 01101000 000000000724 ZIG$DBE37       76      *708
 01101000 000000000765 ZIG$DBE38       77      *759
 01101000 000000001007 ZIG$DBE39       78      *780
 01101000 000000001024 ZIG$DBE40       79      *796
 01101000 000000001026 ZIG$DBE41       80      *802
 01101000 000000001044 ZIG$DBE42       81      *817
 01101000 000000001065 ZIG$DBE43       82      *835
 01101000 000000001067 ZIG$DBE44       83      *841
 12101000 000000000000 ZIG$DBECD       10       *31
 01101000 000000000634 ZIG$DBFLD      553       570      *611       822      2124      2164
 00101000 000000002246 ZIG$DBNCD    *1418
 00101000 000000000065 ZIG$DBNCE      *92
 01101000 000000001137 ZIG$DBSCN      424      *915

    1131 SYMBOLS

 12:42 09/05/97  FILE=ZIM$DBED.:ZIC0TSI       MACRO TABLE                                                119  BMAP - B00
 CBSYM           13
 DBCAL          137       176       219       252       269       283       337       376       395
                424       553       570       808       822       851      1471      1483      1502
               1551      1569      1583      1649      1712      1990      2124      2150      2164
 DBTCD         1602      1615      1628      1641      2143
 DBTCE          103       151       844
 ICALT          754       906      2205      2254      2306
 ICCAL          137       176       219       252       269       283       337       376       395
                424       553       570       808       822       851      1471      1483      1502
               1551      1569      1583      1649      1712      1990      2124      2150      2164
 ICRET           97       110       119       131       145       158       170       187       200
                213       228       242       259       273       291       315       321       338
                347       357       370       385       400       417       455       476       498
                520       528       543       559       576       702       704       720       776
                792       813       831       856       926       961       991      1423      1436
               1448      1460      1472      1484      1503      1512      1521      1534      1552
               1570      1584      1596      1609      1622      1635      1650      1675      1690
               1696      1713      1722      1735      1745      1762      1792      1838      1847
               1881      1903      1940      1950      1969      1996      2060      2076      2097
               2113      2130      2155      2173      2297      2373
 ICSAV           32       612       916       936       971      1359      2010      2263      2316
               2332
 Q2SYM           13
 SSSYM           13

      37 MACROS

    SYMBOL SPACE USED 14230 WORDS
     MACRO SPACE USED 13057 WORDS
   INPUT RECORDS READ  6580
 STATEMENTS PROCESSED  5008
         ELAPSED TIME  0:28.48
             CPU TIME    27.33 SEC.
        ASSEMBLY RATE 10995 STATEMENTS/CPU MIN.

      NO ERRORS

