
 12:43 09/05/97  FILE=ZIM$DBFA.:ZIC0TSI                                                                  1    BMAP - B00
                                         1  *M*      ZIG$DBFA
                                         2  *T***********************************************************
                                         3  *T*                                                         *
                                         4  *T* Copyright (c) Bull HN Information Systems Inc., 1997    *
                                         5  *T*                                                         *
                                         6  *T***********************************************************

 12:43 09/05/97  FILE=ZIM$DBFA.:ZIC0TSI       H6600H2.513     IDS/IT FIND ASSOCIATIVE        780320DBFA  2    BMAP - B00
                                         7         TTL     H6600H2.513     IDS/IT FIND ASSOCIATIVE        780320DBFA
                                         8         CPR     1974
                                         9         PMC     OFF
                                        10  *
                                        11         ENTDEF  ZIG$DBFKC
                                        12         ENTDEF  ZIG$DBAF
                                        13         ENTDEF  ZIG$DBFKY
                                        14  *
                                        15         ENTREF  ZIG$DBAFE
                                        16         ENTREF  ZIG$DBAKU
                                        17         ENTREF  ZIG$DBCMP
                                        18         ENTREF  ZIQ$DBFCH
                                        19         ENTREF  ZIG$DBGRS
                                        20         ENTREF  ZIG$DBPCF
                                        21         ENTREF  ZIG$DBPCK
                                        22         ENTREF  ZIG$DBPFD
                                        23         ENTREF  ZIG$DBPFN
                                        24         ENTREF  ZIG$DBPFO
                                        25         ENTREF  ZIG$DBPMK
                                        26         ENTREF  ZIG$DBPMS
                                        27         ENTREF  ZIG$DBUPC            Updates Currencies
                                        28         ENTREF  ZIG$DBUSR
                                        29  *
                                        30         LODM    Q2MA
                                        31  *
                                        32         Q2SYM
                                        33  *
                                        34  *  SET 'USCAF' TO A 1 TO GET CURRENCY UPDATED DURING ASSOC. RETRIEVAL
                                        35  *
             000000000000               36  USCAF  EQU     0               DON'T UPDATE CURRENCY

 12:43 09/05/97  FILE=ZIM$DBFA.:ZIC0TSI       FIND WITH KEY                                              3    BMAP - B00
                                        37         TTLS    FIND WITH KEY
                                        38  ****************************************************************
                                        39  *
                                        40  *  - DBFKC -
                                        41  *
                                        42  *      FIND.  Find with key within current set.  Locate a
                                        43  *      record within the current set which, 1) is of the
                                        44  *      specified record type and, 2) which contains fields whose
                                        45  *      contents are equal to the contents of the data items
                                        46  *      defined by the field list.
                                        47  *
                                        48  *      Parameter   Description
                                        49  *      ---------   -----------
                                        50  *
                                        51  *          0       IA
                                        52  *          1       UWA
                                        53  *          2       FPT
                                        54  *
                                        55  *      FPT Format...
                                        56  *
                                        57  *      Word 0:  RVA offset to a schema subset element which
                                        58  *          describes a data base record.
                                        59  *      Word 1:  RVA offset to a schema subset element which
                                        60  *          describes a set.
                                        61  *      Word 2:  Field List Control Word
                                        62  *          HW 0:  Number of fields in the field list
                                        63  *      Word 3:  Retention List Control Word
                                        64  *      Words 4->M:  Field List.  RVA offsets to the
                                        65  *          schema subset elements which describe the fields
                                        66  *          on which to base the record selection.
                                        67  *      Words M+1->K:  Retention List.  RVA offsets to the
                                        68  *          schema subset elements which describe the sets
                                        69  *          for which currencies are to be retained.
                                        70  *
                                        71  ****************************************************************
                                        72  *
 0 000000                               73  ZIG$DBFKC NULL                      Find within current
 12:43 09/05/97  FILE=ZIM$DBFA.:ZIC0TSI       FIND WITH KEY                                              4    BMAP - B00
   000000  X 000000 7000 00             74           DBSAV
   000001    000004 000000
   000002    7 00054 7501 00            75         STC2    FKIND,,PR7      MARK REQ AS FIND W/I CURR
   000003 (0)000007 7100 00             76         TRA     FCEN

 12:43 09/05/97  FILE=ZIM$DBFA.:ZIC0TSI       FIND WITH KEY                                              5    BMAP - B00
                                        77         EJECT
                                        78  ****************************************************************
                                        79  *
                                        80  *  - DBFKY -
                                        81  *
                                        82  *      FIND.  Find with key.  1)  Select the specified
                                        83  *      set depending on the set selection criteria provided.
                                        84  *      2)  Set the current of run to be a record within the
                                        85  *      set instance which is of the specified record type and
                                        86  *      which contains fields whose contents are equal to
                                        87  *      the contents of the data items identified in the
                                        88  *      field list.
                                        89  *
                                        90  *      Parameter   Description
                                        91  *      ---------   -----------
                                        92  *
                                        93  *          0       IA
                                        94  *          1       UWA
                                        95  *          2       FPT
                                        96  *
                                        97  *      FPT Format...
                                        98  *
                                        99  *      Word 0:  RVA offset to a schema subset element which
                                       100  *          describes a data base record.
                                       101  *      Word 1:  RVA offset to a schema subset element which
                                       102  *          describes a set.
                                       103  *      Word 2:  Field List Control Word
                                       104  *          HW 0:  Number of fields in the field list
                                       105  *      Word 3:  Retention List Control Word
                                       106  *      Words 4->M: Field List.  RVA offsets to the
                                       107  *          schema subset elements which describe the fields
                                       108  *          upon which the record selection will be based.
                                       109  *      Words M+1->K: Retention List.  RVA offsets to the
                                       110  *          schema subset elements which describe the sets
                                       111  *          for which currencies are to be retained.
                                       112  *
                                       113  ****************************************************************
 12:43 09/05/97  FILE=ZIM$DBFA.:ZIC0TSI       FIND WITH KEY                                              6    BMAP - B00
                                       114  *
   000004                              115  ZIG$DBFKY NULL
   000004  X 000000 7000 00            116           DBSAV
   000005    000004 000000
   000006    7 00054 4501 00           117         STZ     FKIND,,PR7      MARK REQ AS FIND ASSOC.
   000007                              118  FCEN   NULL
                                       119  *  GET RETAIN LIST CONTROL WORD
   000007    000000 4704 07            120         LDP    PR0,VLPSID,DL            VLP$
   000010    000003 4714 07            121           LDP      PR1,RVASID,DL           RVA$
   000011    0 00002 2351 00           122         LDA     2,,PR0               Get Field List Control Word
   000012    000004 0750 03            123         ADA     4,DU                 Compute offset to Retention List
   000013    0 00003 2751 00           124         ORA     3,,PR0               OR in the RLCW
   000014    5 00025 7551 00           125           STA      GRLCW,,PR5           Save it.
                                       126  *  GET RC & SC PTRS
   000015    0 00000 2271 00           127         LDX     X7,0,,PR0            Get offset to RC pointer from FPT
   000016    1 00000 2271 17           128           LDX      X7,,X7,PR1           Get RC offset from RVA
   000017    0 00001 2261 00           129         LDX     X6,1,,PR0            Get offset to SC pointer from FPT
   000020    1 00000 2261 16           130           LDX      X6,,X6,PR1           Get SC offset from RVA
                                       131         IFE     A,1,%CK1
   000021    6 00000 2211 17           132         LDX     X1,DEF,X7,PR6   GET DEF TYPE FROM RC
   000022    100000 3010 03            133         CANX    X1,.RC,DU       IS IT AN RC
   000023 (0)000312 6000 00            134         TZE     CALER           NO
   000024    6 00000 2211 16           135         LDX     X1,DEF,X6,PR6   GET DEF TYPE FROM SC
   000025    040000 3010 03            136         CANX    X1,.SC,DU       IS IT AN SC
   000026 (0)000312 6000 00            137         TZE     CALER           NO
                                       138  CK1    MARK
                                       139  *  CHECK THAT REC IS IN SUB-SCHEMA
   000027    6 00000 7211 17           140         LXL     X1,DEF,X7,PR6
   000030    100000 3010 03            141         CANX    X1,.SR,DU       IS IT IN SS
   000031    000266 6010 04            142         TNZ     FAE1,$          NO - ERROR
                                       143  *  CHECK THAT SET IS IN SUB-SCHEMA
   000032    6 00000 7211 16           144         LXL     X1,DEF,X6,PR6
   000033    020000 3010 03            145         CANX    X1,.SNSS,DU     IS IT IN SS
   000034    000267 6010 04            146         TNZ     FAE2,$          NO - ERROR
                                       147  *  CHECK REC PRIVACY
   000035    6 00004 2211 17           148         LDX     X1,RCWSO,X7,PR6  GET WORK SPACE OFST
   000036    7 00000 2211 11           149         LDX     X1,PRIV,X1,PR7
 12:43 09/05/97  FILE=ZIM$DBFA.:ZIC0TSI       FIND WITH KEY                                              7    BMAP - B00
   000037    000004 3010 03            150         CANX    X1,PF,DU        IS PRIVACY SATISFIED
   000040 (0)000326 6000 00            151         TZE     PRVE1           NO
                                       152  *  CHECK SET PRIVACY
   000041    6 00001 2211 16           153         LDX     X1,SCWSO,X6,PR6  GET WORK SPACE OFST - SET
   000042    7 00000 2211 11           154         LDX     X1,PRIV,X1,PR7
   000043    000004 3010 03            155         CANX    X1,PSF,DU       IS PRIVACY SATISFIED
   000044 (0)000332 6000 00            156         TZE     PRVE2           NO
                                       157  *  GET RS
   000045  X 000000 7010 00            158         DBCAL   ZIG$DBGRS,,CLER1
   000046 (0)000353 7020 00
   000047    5 00006 2341 00
   000050    777776 6010 04
   000051    7 00110 4451 00           159         SXL     X5,RSPAM,,PR7   SAVE RS PTR
                                       160  *
                                       161  *  FIND CORRECT SET OCCURRENCE
                                       162  *
   000052    7 00054 2341 00           163         SZN     FKIND,,PR7      IS THIS FIND W/I CURR
   000053 (0)000103 6000 00            164         TZE     FASC            NO
   000054    6 00001 2211 16           165         LDX     X1,SCWSO,X6,PR6  GET WORK SPC OFST
   000055    7 00001 2361 11           166         LDQ     CURR,X1,PR7     GET CURR OF SET
   000056 (0)000336 6000 00            167         TZE     NCUR2           NULL - ERROR
   000057    7 00510 2231 00           168         LDX     X3,RVI,,PR7
   000060    7 00000 7561 13           169         STQ     DBKEY,X3,PR7    PUT DBK IN REC VAR
   000061  X 000000 7010 00            170           DBCAL    ZIG$DBPFD,,PER1      Find current of set
   000062 (0)000353 7020 00
   000063    5 00006 2341 00
   000064    777776 6010 04
                                       171  * IF SET IS POINTER ARRAY - MOVE INFO ON OWNER PA REC TO RVI
   000065    000000 4704 07            172         LDP    PR0,VLPSID,DL            VLP$
   000066    000003 4714 07            173           LDP      PR1,RVASID,DL           RVA$
   000067    0 00001 2261 00           174         LDX     X6,1,,PR0            Get offset to SC pointer from FPT
   000070    1 00000 2261 16           175           LDX      X6,,X6,PR1           Get SC offset from RVA
   000071    6 00000 2211 16           176         LDX     X1,DEF,X6,PR6   GET SET MODE
   000072    000070 3610 03            177         ANX     X1,.SETM,DU     ISOLATE
   000073    000020 1010 03            178         CMPX    X1,=O020,DU     IS IT POINTER ARRAY
   000074 (0)000105 6010 00            179         TNZ     GSO             NO - GO FIND RECORD OCCUR.
                                       180  *
 12:43 09/05/97  FILE=ZIM$DBFA.:ZIC0TSI       FIND WITH KEY                                              8    BMAP - B00
   000075    6 00001 2211 16           181         LDX     X1,SCWSO,X6,PR6  GET SET WORKSPACE
   000076    7 00002 2351 11           182         LDA     CBENO,X1,PR7    GET PA ENTRY AND PTR OFSTS FROM SET WS
   000077    7 00003 2361 11           183         LDQ     CBCPA,X1,PR7    GET DBK OF OWNER PA REC FROM SET WS
   000100    7 00510 2211 00           184         LDX     X1,RVI,,PR7
   000101    7 00014 7571 11           185         STAQ    CBRCE,X1,PR7    SAVE PA OFSTS AND DBK OF PA REC IN RVI
   000102 (0)000115 7100 00            186         TRA     GSO1
   000103                              187  FASC   NULL
   000103 (0)000437 7010 00            188        DBCAL   ZIG$DBAF,NOEXC,FSOER          FIND SET OCCUR THRU SOS
   000104 (0)000353 7020 00
   000105                              189  GSO    NULL
                                       190  *
                                       191  * CHECK IF SET IS A POINTER ARRAY SET
   000105    000000 4704 07            192         LDP    PR0,VLPSID,DL            VLP$
   000106    000003 4714 07            193           LDP      PR1,RVASID,DL           RVA$
   000107    0 00001 2261 00           194         LDX     X6,1,,PR0            Get offset to SC pointer from FPT
   000110    1 00000 2261 16           195           LDX      X6,,X6,PR1           Get SC offset from RVA
   000111    6 00000 2211 16           196         LDX     X1,DEF,X6,PR6   GET SET MODE
   000112    000070 3610 03            197         ANX     X1,.SETM,DU     ISOLATE
   000113    000020 1010 03            198         CMPX    X1,=O020,DU     IS IT POINTER ARRAY
   000114 (0)000213 6010 00            199         TNZ     GSO2            NO
                                       200  *
                                       201  * SET IS PA, CHECK IF THE FIELDS SPECIFIED ARE = PA FIELDS.
                                       202  * IF SO, SEARCH PA RECS RATHER THAN MEMBERS
                                       203  *
   000115                              204  GSO1   NULL
   000115    7 00110 7251 00           205         LXL     X5,RSPAM,,PR7   GET RS FOR PA MEMBER
   000116    6 00002 2251 15           206         LDX     X5,SCRSN,X5,PR6  GET RS FOR PA RECORD
   000117    000000 4704 07            207         LDP    PR0,VLPSID,DL            VLP$
   000120    0 00002 2351 00           208         LDA     2,,PR0               Get Field List Control Word from FPT
   000121 (0)000213 6000 00            209         TZE     GSO2            NO FRS - GO ON
                                       210  *
   000122    000022 7710 00            211         ARL     18              GET FR COUNT FROM LOWER BOUND
   000123    7 00051 7551 00           212         STA     FCNT,,PR7       SAVE
   000124    000004 2200 03            213         LDX     X0,4,DU              Get offset to Field List in FPT
   000125    7 00051 7401 00           214         STX     X0,FCNT,,PR7    SAVE
   000126    000000 6230 00            215         EAX     X3,0            INIT COUNT OF PA FIELDS
                                       216  *
 12:43 09/05/97  FILE=ZIM$DBFA.:ZIC0TSI       FIND WITH KEY                                              9    BMAP - B00
   000127                              217  GSO1L  NULL
   000127    6 00001 2251 15           218         LDX     X5,RSCDN,X5,PR6  GET NEXT CD
   000130 (0)000144 6000 00            219         TZE     CKCT            DONE
                                       220  *
   000131    000001 6230 13            221         EAX     X3,1,X3         ADD 1 TO COUNT OF PA FIELDS
   000132    6 00002 7241 15           222         LXL     X4,CDRH,X5,PR6  GET FR FOR THIS CD
   000133    7 00051 2211 00           223         LDX     X1,FCNT,,PR7         Get offset to FR list in FPT
   000134    7 00051 7201 00           224         LXL     X0,FCNT,,PR7    GET COUNT AND TZE
   000135                              225  KS    NULL
   000135    0 00000 2221 11           226        LDX     X2,0,X1,PR0         GET RVA OFFSET FOR EACH FR-LIST
   000136    1 00000 1041 12           227        CMPX    X4,0,X2,PR1         IS IT THE SORT KEY FR?
   000137 (0)000127 6000 00            228        TZE     GSO1L               YES
   000140    000001 0210 03            229        ADLX    X1,1,DU             NEXT IN IPT FR_LIST
   000141    000001 1200 03            230        SBLX    X0,1,DU             DECREMENT COUNT
   000142 (0)000135 6010 00            231        TNZ     KS                  KEEP SEARCH LIST
   000143 (0)000213 7100 00            232         TRA     GSO2            NO - DO SEQUENTIAL SEARCH OF SET
                                       233  *
   000144                              234  CKCT   NULL
                                       235  *
                                       236  * ALL OF THE PA FIELDS HAVE BEEN SPECIFIED NOW
                                       237  * CHECK IF NO. OF FIELDS IN PA KEY = NO. OF FIELDS SPECIFIED
                                       238  * IN LIST
                                       239  *
   000144    000000 4704 07            240         LDP    PR0,VLPSID,DL            VLP$
   000145    0 00002 1031 00           241         CMPX    X3,2,,PR0            Are the number of fields equal?
   000146 (0)000213 6010 00            242         TNZ     GSO2            NO - NEED TO CHECK MEMBER RECORDS
                                       243  *
                                       244  * FIELDS SPECIFIED = PA FIELDS SO CAN SEARCH FOR CORRECT MEMBER RECORD
                                       245  * BY SEARCHING PA RECORDS
                                       246  *
   000147    7 00110 7251 00           247         LXL     X5,RSPAM,,PR7   GET RS PTR FOR PA MEMBER
   000150    7 00516 7451 00           248         STX     X5,PRSS,,PR7    SAVE FOR CALL TO MOVE FIELDS
   000151  X 000000 7010 00            249         DBCAL   ZIG$DBAKU,,MPAER MOVE PA FIELDS FROM UWA TO KEY PROCESS AREA
   000152 (0)000353 7020 00
   000153    5 00006 2341 00
   000154    777776 6010 04
                                       250  *
 12:43 09/05/97  FILE=ZIM$DBFA.:ZIC0TSI       FIND WITH KEY                                              10   BMAP - B00
                                       251  * SET UP REC TYPE REQUEST FOR FIND ENTRY
                                       252  *
   000155    000000 4704 07            253         LDP    PR0,VLPSID,DL            VLP$
   000156    000003 4714 07            254           LDP      PR1,RVASID,DL           RVA$
   000157    0 00000 2271 00           255         LDX     X7,0,,PR0            Get offset to RC pointer from FPT
   000160    1 00000 2271 17           256           LDX      X7,,X7,PR1           Get RC offset from RVA
   000161    0 00001 2261 00           257         LDX     X6,1,,PR0            Get offset to SC pointer from FPT
   000162    1 00000 2261 16           258           LDX      X6,,X6,PR1           Get SC offset from RVA
   000163    7 00517 7471 00           259         STX     X7,PRRC,,PR7    PUT RC PTR IN PRIM REQUEST
   000164    7 00520 7461 00           260         STX     X6,PRSC,,PR7    PUT SC PTR IN PRIM REQUEST
   000165  X 000000 7010 00            261           DBCAL    ZIG$DBAFE,,FEERR     Find entry in PA record
   000166 (0)000354 7020 00
   000167    5 00006 2341 00
   000170    777776 6010 04
                                       262  *  RETRIEVE DATA RECORD
   000171    7 00510 2371 00           263         LDAQ    RVI,,PR7        * REVERSE
   000172    7 00511 7551 00           264         STA     RVO,,PR7        *  IN AND OUT
   000173    7 00510 7561 00           265         STQ     RVI,,PR7        *   RECORD VARIABLES
   000174  X 000000 7010 00            266           DBCAL    ZIG$DBPFD,,FDER1     Find direct
   000175 (0)000354 7020 00
   000176    5 00006 2341 00
   000177    777776 6010 04
   000200    7 00510 2371 00           267         LDAQ    RVI,,PR7        * REVERSE
   000201    7 00511 7551 00           268         STA     RVO,,PR7        *  IN AND OUT
   000202    7 00510 7561 00           269         STQ     RVI,,PR7        *   RECORD VARIABLES
   000203    7 00517 2271 00           270         LDX     X7,PRRC,,PR7    GET RC REQUESTED
   000204    7 00511 2231 00           271         LDX     X3,RVO,,PR7
   000205    7 00003 2351 13           272         LDA     RTP,X3,PR7      GET REC TYPE FOUND
   000206    7 00057 2361 00           273         LDQ     CTMASK,,PR7     LOAD MASK
   000207    6 00003 2111 17           274         CMK     RTYP,X7,PR6     WAS CORRECT TYPE RETRIEVED
   000210 (0)000347 6010 00            275         TNZ     RER1            NO - ERROR
   000211    7 00006 7471 13           276         STX     X7,RCPTR,X3,PR7  YES - SAVE RC PTR IN REC VAR
   000212 (0)000301 7100 00            277         TRA     RFND2           RECORD FOUND
                                       278  *
                                       279  *
                                       280  *
   000213                              281  GSO2   NULL
 12:43 09/05/97  FILE=ZIM$DBFA.:ZIC0TSI       FIND WITH KEY                                              11   BMAP - B00
                                       282  *
                                       283  *  FIND CORRECT RECORD OCCURRENCE OF SET
                                       284  *
                                       285  *  MOVE KEYS TO TEMP BUF
   000213    000000 4704 07            286         LDP    PR0,VLPSID,DL            VLP$
   000214    000003 4714 07            287           LDP      PR1,RVASID,DL           RVA$
   000215    0 00000 2271 00           288         LDX     X7,0,,PR0            Get offset to RC pointer from FPT
   000216    1 00000 2271 17           289           LDX      X7,,X7,PR1           Get RC offset from RVA
   000217 (0)000356 7010 00            290         DBCAL   ZIG$DBMVK,,MVER1 MOVE FIELDS
   000220 (0)000353 7020 00
   000221    5 00006 2341 00
   000222    777776 6010 04
                                       291  *  SET UP REC TYPE REQ FOR FIND NEXT
   000223    000000 4704 07            292         LDP    PR0,VLPSID,DL            VLP$
   000224    000003 4714 07            293           LDP      PR1,RVASID,DL           RVA$
   000225    000000 6270 00            294           EAX      X7,0              SET RC TO ANY REC TYPE IN SUBSCHEMA
   000226    0 00001 2261 00           295         LDX     X6,1,,PR0            Get offset to SC pointer from FPT
   000227    1 00000 2261 16           296           LDX      X6,,X6,PR1           Get SC offset from RVA
   000230    7 00517 7471 00           297         STX     X7,PRRC,,PR7    PUT RC PTR IN PRIM. REQ.
   000231    7 00520 7461 00           298         STX     X6,PRSC,,PR7    PUT IN PRIM REQUEST
                                       299  *  CHECK FOR FIELD LIST
   000232    0 00002 2341 00           300         SZN     2,,PR0               Is the Field List present?
   000233 (0)000241 6010 00            301         TNZ     FLP
   000234  X 000000 7010 00            302        DBCAL   ZIG$DBPFO,NOEXC,FOER1         FIND OWNER REC
   000235 (0)000354 7020 00
   000236    7 00510 2371 00           303         LDAQ    RVI,,PR7        * REVERSE
   000237    7 00511 7551 00           304         STA     RVO,,PR7        *  IN & OUT REC VAR
   000240    7 00510 7561 00           305         STQ     RVI,,PR7        *
   000241                              306  FLP    NULL
                                       307  *  SAVE CURR DBK
   000241    7 00510 2231 00           308         LDX     X3,RVI,,PR7
   000242    7 00000 2361 13           309         LDQ     DBKEY,X3,PR7    GET CURR DBK
   000243    7 00040 7561 00           310         STQ     CDBK,,PR7       SAVE
                                       311  *  FIND NEXT OF SET
   000244                              312  FKLP1  NULL
   000244  X 000000 7010 00            313         DBCAL   ZIG$DBPFN,EOS1,FNER1
   000245 (0)000354 7020 00
 12:43 09/05/97  FILE=ZIM$DBFA.:ZIC0TSI       FIND WITH KEY                                              12   BMAP - B00
   000246    5 00006 2341 00
   000247    000003 6000 04
   000250    5 00006 4501 00
   000251 (0)000271 7020 00
   000252    000000 4704 07            314         LDP    PR0,VLPSID,DL            VLP$
   000253    000003 4714 07            315           LDP      PR1,RVASID,DL           RVA$
   000254    000004 2350 07            316         LDA     4,DL                 Offset to Field List in FPT
   000255    0 00002 2751 00           317         ORA     2,,PR0               OR in Field List Control Word
   000256    0 00000 2271 00           318         LDX     X7,0,,PR0            Get offset to RC pointer from FPT
   000257    1 00000 2271 17           319           LDX      X7,,X7,PR1           Get Rc offset from RVA
   000260    7 00511 2231 00           320           LDX      X3,RVO,,PR7          GET RC FOUND
   000261    7 00006 1071 13           321           CMPX     X7,RCPTR,X3,PR7    IS IT WHAT WE WANTED
   000262 (0)000271 6010 00            322           TNZ      EOS1               IF NOT,GO GET NEXT IN ENTRY
   000263  X 000000 7010 00            323           ICCAL    ZIG$DBCMP,RFND2,CMER2
   000264 (0)000353 7020 00
   000265    5 00006 2341 00
   000266    000003 6000 04
   000267    5 00006 4501 00
   000270 (0)000301 7020 00
   000271                              324  EOS1   NULL
   000271    7 00510 2371 00           325         LDAQ    RVI,,PR7            *  REVERSE
   000272    7 00511 7551 00           326         STA     RVO,,PR7            *    REC VAR IN AND
   000273    7 00510 7561 00           327         STQ     RVI,,PR7            *     REC VAR OUT
   000274    7 00510 2231 00           328         LDX     X3,RVI,,PR7
   000275    7 00000 2361 13           329         LDQ     DBKEY,X3,PR7    GET DBK OF REC FOUND
   000276    7 00040 1161 00           330         CMPQ    CDBK,,PR7       IS IT THE ONE STARTED WITH
   000277 (0)000244 6010 00            331         TNZ     FKLP1           NO - GET NEXT
   000300 (0)000342 7100 00            332         TRA     RNF2            YES - REC NOT FOUND
                                       333  *  RECORD FOUND - UPDATE CURRENCIES
   000301                              334  RFND2  NULL
   000301  X 000000 7010 00            335           ICCAL    ZIG$DBUPC,,UPER1     Update currencies
   000302 (0)000353 7020 00
   000303    5 00006 2341 00
   000304    777776 6010 04
                                       336  *  MOVE NAMES TO SPECIAL REGISTERS
   000305  X 000000 7010 00            337         DBCAL   ZIG$DBUSR,,USRE2
   000306 (0)000353 7020 00
 12:43 09/05/97  FILE=ZIM$DBFA.:ZIC0TSI       FIND WITH KEY                                              13   BMAP - B00
   000307    5 00006 2341 00
   000310    777776 6010 04
                                       338  *  RETURN
   000311  X 000000 7020 00            339           DBRET
                                       340  *
                                       341  *  ERRORS DETECTED IN THIS ROUTINE
                                       342  *
                                       343         IFE     A,1,%CK1
   000312                              344  CALER  NULL                    ERROR IN ONE OF CALLING ARGUMENTS
   000312    210562 2350 07            345         LDA     ARGER,DL
   000313    000000 6200 00            346         EAX     X0,0            NULL AC
   000314    000000 6260 00            347         EAX     X6,0            NULL SC
   000315    000000 6270 00            348         EAX     X7,0            NULL RC
   000316 (0)000355 7100 00            349         TRA     FAR1
                                       350  CK1    MARK
   000317                              351  FAE1   NULL                    REC NOT IN SUB-SCHEMA
   000317    010150 2350 07            352         LDA     IRSN,DL
   000320    000000 6200 00            353         EAX     X0,0
   000321    000000 6260 00            354         EAX     X6,0
   000322    000033 7100 04            355         TRA     FAR1,$
   000323                              356  FAE2   NULL                    SET NOT IN SUB-SCHEMA
   000323    000000 6200 00            357         EAX     X0,0
   000324    000000 6270 00            358         EAX     X7,0
   000325    000030 7100 04            359         TRA     FAR1,$
   000326                              360  PRVE1  NULL                    PRIVACY ERROR - REC
   000326    257764 2350 07            361         LDA     LR,DL
   000327    000000 6200 00            362         EAX     X0,0            NULL AC
   000330    000000 6260 00            363         EAX     X6,0            NULL SC
   000331 (0)000355 7100 00            364         TRA     FAR1
   000332                              365  PRVE2  NULL                    PRIVACY ERROR - SET
   000332    257764 2350 07            366         LDA     LR,DL
   000333    000000 6200 00            367         EAX     X0,0            NULL AC
   000334    000000 6270 00            368         EAX     X7,0            NULL RC
   000335 (0)000355 7100 00            369         TRA     FAR1
   000336                              370  NCUR2  NULL                    CURR OF SET IS NULL
   000336    006034 2350 07            371         LDA     CNUL,DL
   000337    000000 6200 00            372         EAX     X0,0            NULL AC
 12:43 09/05/97  FILE=ZIM$DBFA.:ZIC0TSI       FIND WITH KEY                                              14   BMAP - B00
   000340    000000 6270 00            373         EAX     X7,0            NULL RC
   000341 (0)000355 7100 00            374         TRA     FAR1
   000342                              375  RNF2   NULL                    REC NOT FOUND
   000342    004540 2350 07            376         LDA     RSEE,DL
   000343    000000 6200 00            377         EAX     X0,0            NULL AC
   000344    7 00520 2261 00           378         LDX     X6,PRSC,,PR7    GET SC
   000345    7 00517 2271 00           379         LDX     X7,PRRC,,PR7    GET RC
   000346 (0)000355 7100 00            380         TRA     FAR1
   000347                              381  RER1   NULL                    REC RETRIEVED NOT CORRECT TYPE
   000347    210643 2350 07            382         LDA     FDE5,DL
   000350    7 00005 2201 13           383         LDX     X0,ACPTR,X3,PR7  GET AC PTR
   000351    000000 6260 00            384         EAX     X6,0            NULL SC
   000352 (0)000355 7100 00            385         TRA     FAR1
                                       386  *
                                       387  *  ERRORS DETECTED IN SUBORDINATE ROUTINES
                                       388  *
   000353                              389  CLER1  NULL                    RECORD NOT IN REQUESTED SET
   000353                              390  PER1   NULL                    FIND CURR OF SET ERROR
   000353                              391  FSOER  NULL                    ERROR FINDING SET OCCURRENCE
   000353                              392  MVER1  NULL                    MOVE KEY TO TEMP BUF ERROR
   000353                              393  CMER2  NULL                    COMPARE ERROR - LAST LEVEL
   000353                              394  UPER1  NULL                    UPDATE CURRENCY ERROR
   000353                              395  USRE2  NULL                    ERROR UPDATING SPEC. REGS.
   000353                              396  STER1  NULL                    ERROR ACCUMULATING STATISTICS
   000353                              397  MPAER  NULL                    MOVE PA FIELDS ERROR
   000353 (0)000355 7100 00            398         TRA     FAR1
                                       399  *
                                       400  *  ERRORS DETECTED IN PRIMITIVES
                                       401  *
   000354                              402  FOER1  NULL                    FIND OWNER ERROR
   000354                              403  FNER1  NULL                    FIND NEXT ERROR - LAST LEVEL
   000354                              404  FEERR  NULL                    FIND PA ENTRY ERROR
   000354                              405  FDER1  NULL                    ERROR FINDING PA MEMBER
   000354 (0)000355 7100 00            406         TRA     FAR1
                                       407  *
                                       408  *  COMMON ERROR RETURN
                                       409  *
 12:43 09/05/97  FILE=ZIM$DBFA.:ZIC0TSI       FIND WITH KEY                                              15   BMAP - B00
   000355  X 000000 7020 00            410  FAR1     DBALT

 12:43 09/05/97  FILE=ZIM$DBFA.:ZIC0TSI       MOVE KEYS FROM UWA TO TEMP REC BUF                         16   BMAP - B00
                                       411         TTLS    MOVE KEYS FROM UWA TO TEMP REC BUF
                                       412  *
                                       413  ****************************************************************
                                       414  *
                                       415  *  - DBMVK -
                                       416  *
                                       417  *      Move fields from the UWA to temporary record buffer.
                                       418  *
                                       419  *      Calling
                                       420  *
                                       421  *              DBCAL   ZIG$DBMVK,,altret
                                       422  *
                                       423  *      Parameters
                                       424  *
                                       425  *              X7 - RC pointer
                                       426  *
                                       427  *      (Note that no exception return is possible from DBMVK.)
                                       428  *
                                       429  ****************************************************************
                                       430  *
   000356                              431  ZIG$DBMVK NULL
   000356  X 000000 7000 00            432         DBSAV
   000357    000004 000000
   000360    000000 4704 07            433         LDP    PR0,VLPSID,DL            VLP$
   000361    0 00002 2201 00           434         LDX     X0,2,,PR0       get field count from FPT
   000362    000041 6000 04            435         TZE     NFTM,$          YES - RETURN
   000363    7 00051 4501 00           436         STZ     FCNT,,PR7       Must zero lower part of word
   000364    7 00051 7401 00           437         STX     X0,FCNT,,PR7    save FR count
   000365    000000 7200 07            438         LXL     X0,0,DL
   000366    7 00052 7401 00           439         STX     X0,CMPL,,PR7    SAVE ADDR OF LIST AS CURR POS
   000367    6 00000 2351 17           440         LDA     DEF,X7,PR6      RC DEFINITION                            <EHW>
   000370    040000 3750 07            441         ANA     .FVR,DL         DOES RECORD HAVE VARIABLE FIELDS         <EHW>
   000371 (0)000376 6000 00            442         TZE     MVL1            NO                                       <EHW>
   000372    6 77777 7211 17           443         LXL     X1,OTVL,X7,PR6  OFST OF VARIABLE DATA                    <EHW>
   000373 (0)000375 6010 00            444         TNZ     *+2                                                      <EHW>
   000374    6 00003 2211 17           445         LDX     X1,RSIZ,X7,PR6  NONE PRESENT, USE FIXED SIZE             <EHW>
   000375    7 01074 4411 00           446         SXL     X1,VRSIZ,,PR7   AVE IN WORK SPACE                        <EHW>
 12:43 09/05/97  FILE=ZIM$DBFA.:ZIC0TSI       MOVE KEYS FROM UWA TO TEMP REC BUF                         17   BMAP - B00
   000376                              447  MVL1   NULL
   000376    7 00052 2201 00           448         LDX     X0,CMPL,,PR7    GET CURR POS IN LIST
   000377    000000 4704 07            449         LDP    PR0,VLPSID,DL            VLP$
   000400    000003 4714 07            450           LDP      PR1,RVASID,DL           RVA$
   000401    0 00004 2241 10           451         LDX     X4,4,X0,PR0          Get FR pointer from list in FPT
   000402    1 00000 2241 14           452           LDX      X4,,X4,PR1           Get FR offset from RVA
   000403    000001 6200 10            453         EAX     X0,1,X0         INCR LIST PTR
   000404    7 00052 7401 00           454         STX     X0,CMPL,,PR7    SAVE
                                       455         IFE     D,1,%CK4
   000405    6 00000 2211 14           456         LDX     X1,DEF,X4,PR6
   000406    002000 3010 03            457         CANX    X1,.FR,DU       IS IT AN FR
   000407    000015 6000 04            458         TZE     FRER4,$         NO - ERROR
   000410    6 00005 1071 14           459         CMPX    X7,RCFRH,X4,PR6  IS IT IN THE RECORD
   000411    000020 6010 04            460         TNZ     FRER5,$         NO - ERROR
                                       461  CK4    MARK
   000412    7 00521 7441 00           462         STX     X4,PRFR,,PR7    PUT FR IN PRIM. REQ.
   000413  X 000000 7010 00            463         DBCAL   ZIG$DBPMK,,MKER4 MOVE THE FIELD
   000414 (0)000435 7020 00
   000415    5 00006 2341 00
   000416    777776 6010 04
   000417    7 00051 2351 00           464         LDA     FCNT,,PR7       GET FLD COUNT
   000420    000001 1350 03            465         SBLA    1,DU            DECR.
   000421    7 00051 7551 00           466         STA     FCNT,,PR7       SAVE
   000422    777754 6010 04            467         TNZ     MVL1,$          GO DO NEXT
                                       468  *  RETURN
   000423                              469  NFTM   NULL
   000423  X 000000 7020 00            470         DBRET
                                       471  *
                                       472  *  ERRORS DETECTED IN THIS ROUTINE
                                       473  *
   000424                              474  FRER4  NULL                    ENTRY IN LIST NOT AN FR
   000424    210562 2350 07            475         LDA     ARGER,DL
   000425    000000 6200 00            476         EAX     X0,0            NULL AC
   000426    000000 6260 00            477         EAX     X6,0            NULL SC
   000427    000000 6270 00            478         EAX     X7,0            NULL RC
   000430    000006 7100 04            479         TRA     MVR1,$
   000431                              480  FRER5  NULL                    FR NOT IN RECORD
 12:43 09/05/97  FILE=ZIM$DBFA.:ZIC0TSI       MOVE KEYS FROM UWA TO TEMP REC BUF                         18   BMAP - B00
   000431    210637 2350 07            481         LDA     FDE1,DL
   000432    000000 6200 00            482         EAX     X0,0            NULL AC
   000433    000000 6260 00            483         EAX     X6,0            NULL SC
   000434    000002 7100 04            484         TRA     MVR1,$
                                       485  *
                                       486  *  ERRORS DETECTED IN PRIMITIVES
                                       487  *
   000435                              488  MKER4  NULL                    MOVE FIELD ERROR
   000435    000001 7100 04            489         TRA     MVR1,$
                                       490  *  COMMON ERROR RETURN
   000436                              491  MVR1   NULL
   000436  X 000000 7020 00            492           DBALT

 12:43 09/05/97  FILE=ZIM$DBFA.:ZIC0TSI       ASSOCIATIVE FIND                                           19   BMAP - B00
                                       493         TTLS    ASSOCIATIVE FIND
                                       494  *
                                       495  ****************************************************************
                                       496  *
                                       497  *  - DBAF -
                                       498  *
                                       499  *      Associative Find.  Find owner of set occurrence using
                                       500  *      SOS.
                                       501  *
                                       502  *      Calling
                                       503  *
                                       504  *              DBCAL    ZIG$DBAF,exception,altret
                                       505  *
                                       506  *      Input
                                       507  *
                                       508  *                X5 - RS Def pointer
                                       509  *              RLCW - Retain List Control Word
                                       510  *                     HW 0:  Offset to Retain List in FPT
                                       511  *                     HW 1:  Count of entries in the
                                       512  *                            Retention List.
                                       513  *
                                       514  *      Output
                                       515  *
                                       516  *              Rec Var In - DBK of owner occurrence
                                       517  *                           Buffer pointer
                                       518  *                           Record pointer
                                       519  *                           RC Type and Record Type
                                       520  *
                                       521  *                  .PRCSE - Bit 18 will be set to 1 if SOS
                                       522  *                           is only one level and it is by
                                       523  *                           current of set and CURR=PRIOR
                                       524  *                           because of a previous ERASE or
                                       525  *                           DISCONNECT.
                                       526  *
                                       527  ****************************************************************
                                       528  *
   000437                              529  ZIG$DBAF NULL
 12:43 09/05/97  FILE=ZIM$DBFA.:ZIC0TSI       ASSOCIATIVE FIND                                           20   BMAP - B00
   000437  X 000000 7000 00            530         DBSAV
   000440    000004 000000
                                       531  *  INIT STACK
   000441    7 00371 2351 00           532         LDA     .DBSTK+1,,PR7   GET TALLY REFRESH
   000442    7 00370 7551 00           533         STA     .DBSTK,,PR7     SAVE AS TALLY
                                       534  *  INIT .PRCSE
   000443    400001 3350 07            535         LCA     .B18+1,DL
   000444    7 00520 3551 00           536         ANSA    .PRCSE,,PR7
                                       537  *
                                       538  *  FIND ENTRY POINT INTO DATABASE
                                       539  *
   000445    7 00037 4451 00           540         SXL     X5,RSREQ,,PR7   SAVE RS REQUESTED
                                       541  *  GET THE ENTRY SS DEF
   000446                              542  AFL1   NULL
   000446    6 00001 7241 15           543         LXL     X4,RSSSN,X5,PR6  GET 1ST SS
   000447    000152 6000 04            544         TZE     NENT,$          NONE
   000450    7 00037 7441 00           545         STX     X4,CURSS,,PR7   SAVE AS CURRENT
   000451    6 00000 2211 14           546         LDX     X1,DEF,X4,PR6   GET DEF TYPE
   000452    000007 3610 03            547         ANX     X1,.SSTP,DU     ISOLATE
   000453 (0)000454 7100 11            548         TRA     *+1,X1          GO TO ROUTINE
   000454 (0)000464 7100 00            549         TRA     CALC            ENTRY IS CALC   RECORD
   000455 (0)000500 7100 00            550         TRA     DIRCT           ENTRY IS DIRECT RECORD
   000456 (0)000554 7100 00            551         TRA     CURNT           ENTRY IS CURRENT OF SET
   000457 (0)000615 7100 00            552         TRA     MEMB            USE SOS FOR ANOTHER RECORD
   000460 (0)000626 7100 00            553         TRA     ERR1            ILLEGAL TYPE SS
   000461 (0)000626 7100 00            554         TRA     ERR1            ILLEGAL TYPE SS
   000462 (0)000626 7100 00            555         TRA     ERR1            ILLEGAL TYPE SS
   000463 (0)000626 7100 00            556         TRA     ERR1            ILLEGAL TYPE SS
                                       557  *
                                       558  *  GET CALC HEADER
                                       559  *
   000464                              560  CALC   NULL
   000464    7 00516 7441 00           561         STX     X4,PRSS,,PR7    PUT SS IN PRIM. REQ.
   000465  X 000000 7010 00            562         DBCAL   ZIG$DBPMS,,MSER7 MOVE CALC KEYS TO TEMP REC BUF
   000466 (0)000705 7020 00
   000467    5 00006 2341 00
   000470    777776 6010 04
 12:43 09/05/97  FILE=ZIM$DBFA.:ZIC0TSI       ASSOCIATIVE FIND                                           21   BMAP - B00
   000471    000000 6200 00            563         EAX     X0,0            ZERO X0 SO THAT .DBMAS WILL BE CALLED
   000472    7 00037 2241 00           564         LDX     X4,CURSS,,PR7   GET SS
   000473  X 000000 7010 00            565         ICCAL   ZIQ$DBFCH,,ERR2 FIND CALC HEADER REC
   000474 (0)000704 7020 00
   000475    5 00006 2341 00
   000476    777776 6010 04
   000477 (0)000707 7100 00            566         TRA     WLKSS           GO TO NEXT SS
                                       567  *
                                       568  *  GET DIRECT ENTRY RECORD
                                       569  *
   000500                              570  DIRCT  NULL
                                       571  *  CHECK REC PRIV
   000500    6 00002 2251 14           572         LDX     X5,SSH,X4,PR6   GET RS
   000501    6 00003 2271 15           573         LDX     X7,RCRSH,X5,PR6  GET RC
   000502    6 00004 2211 17           574         LDX     X1,RCWSO,X7,PR6  GET WORK SPACE OFST
   000503    7 00000 2211 11           575         LDX     X1,PRIV,X1,PR7
   000504    000004 3010 03            576         CANX    X1,PF,DU        IS PRIVACY SATISFIED
   000505 (0)000633 6000 00            577         TZE     PRVE3           NO
                                       578  *  GET FR & DBK
   000506    6 00001 2201 14           579         LDX     X0,RSCDN,X4,PR6  GET CD DEF
                                       580         IFE     C,1,%CK3
   000507    6 00000 2211 10           581         LDX     X1,DEF,X0,PR6   GET DEF TYPE
   000510    000400 3010 03            582         CANX    X1,.CD,DU       IS IT A CD
   000511 (0)000637 6000 00            583         TZE     CDER1           NO - ERROR
                                       584  CK3    MARK
   000512    6 00002 2241 10           585         LDX     X4,CDSH,X0,PR6  GET FR FOR THIS CD
                                       586         IFE     C,1,%CK3
   000513    6 00000 2211 14           587         LDX     X1,DEF,X4,PR6   GET DEF TYPE
   000514    002000 3010 03            588         CANX    X1,.FR,DU       IS IT AN FR
   000515 (0)000644 6000 00            589         TZE     FRER1           NO - ERROR
                                       590  CK3    MARK
   000516    6 00002 2211 14           591         LDX     X1,UOFST,X4,PR6  GET UWA OFFSET FOR FIELD
   000517    077777 3610 03            592         ANX     X1,=O077777,DU  ISOLATE OFFSET
   000520    000002 4714 07            593         LDP    PR1,UWASID,DL            UWA$
   000521    1 00000 2361 11           594         LDQ    0,X1,PR1                 GET DBK
   000522 (0)000651 6000 00            595         TZE     DBZ             NULL - ERROR
   000523    7 00510 2231 00           596         LDX     X3,RVI,,PR7     SET X3 TO REC VAR IN
 12:43 09/05/97  FILE=ZIM$DBFA.:ZIC0TSI       ASSOCIATIVE FIND                                           22   BMAP - B00
   000524    7 00000 7561 13           597         STQ     DBKEY,X3,PR7    SAVE DBK
                                       598  *  GET THE REC
   000525  X 000000 7010 00            599           DBCAL    ZIG$DBPFD,,ERR6
   000526 (0)000705 7020 00
   000527    5 00006 2341 00
   000530    777776 6010 04
                                       600  *  CHECK REC TYPE
   000531    7 00037 2241 00           601         LDX     X4,CURSS,,PR7   GET CURRENT SS
   000532    6 00002 2251 14           602         LDX     X5,SSH,X4,PR6   GET RS FOR THIS SS
   000533    6 00003 2271 15           603         LDX     X7,RCRSH,X5,PR6  GET RC FOR OWNER OF SET
   000534    7 00510 2231 00           604         LDX     X3,RVI,,PR7     SET X3 TO REC VAR IN
   000535    7 00003 2351 13           605         LDA     RTP,X3,PR7      GET REC TYPE
   000536    7 00057 2361 00           606         LDQ     CTMASK,,PR7     LOAD MASK
   000537    6 00003 2111 17           607         CMK     RTYP,X7,PR6     IS REC FOUND CORRECT TYPE
   000540 (0)000656 6010 00            608         TNZ     RCER2           NO - ERROR
   000541    7 00006 7471 13           609         STX     X7,RCPTR,X3,PR7  SAVE RC PTR IN REC VAR
                                       610  *              CHECK REC SIZE
                                       611         IFE     E,1,%CK5                                                 <EHW>
   000542    6 00003 2211 17           612         LDX     X1,RSIZ,X7,PR6  GET REC SIZE FROM RC
   000543    6 00000 2351 17           613         LDA     DEF,X7,PR6      RC DEFINITION                            <EHW>
   000544    040000 3750 07            614         ANA     .FVR,DL         IS RECORD VARIABLE SIZE                  <EHW>
   000545 (0)000551 6000 00            615         TZE     *+4             NO                                       <EHW>
   000546    7 00003 1011 13           616         CMPX    X1,RECSZ,X3,PR7  YES-IS SIZE > OR = TO SIZE IN REC        <EHW>
   000547 (0)000663 6020 00            617         TNC     SZE4            NO - ERROR                               <EHW>
   000550 (0)000707 7100 00            618         TRA     WLKSS           GO TO NEXT                               <EHW>
   000551    7 00003 1011 13           619         CMPX    X1,RECSZ,X3,PR7  IS IT EQUAL TO SIZE FROM REC
   000552    000111 6010 04            620         TNZ     SZE4,$          NO - ERROR
                                       621  CK5    MARK                                                             <EHW>
   000553 (0)000707 7100 00            622         TRA     WLKSS           GO TO NEXT
                                       623  *
                                       624  *  GET CURRENT ENTRY RECORD
                                       625  *
   000554                              626  CURNT  NULL
   000554    6 00002 2251 14           627         LDX     X5,SSH,X4,PR6   GET RS FOR THIS SS
                                       628  *  CHECK REC PRIVACY FOR OWNER OF SET
   000555    6 00003 2271 15           629         LDX     X7,RCRSH,X5,PR6  GET RC
   000556    6 00004 2211 17           630         LDX     X1,RCWSO,X7,PR6  GET WORK SPACE OFST
 12:43 09/05/97  FILE=ZIM$DBFA.:ZIC0TSI       ASSOCIATIVE FIND                                           23   BMAP - B00
   000557    7 00000 2211 11           631         LDX     X1,PRIV,X1,PR7
   000560    000004 3010 03            632         CANX    X1,PF,DU        IS PRIVACY SATISFIED
   000561 (0)000667 6000 00            633         TZE     PRVE4           NO
                                       634  *  GET DBK OF CURRENT
   000562    6 00003 7261 15           635         LXL     X6,SCRSH,X5,PR6  GET SC FOR THIS RS
   000563    6 00001 2211 16           636         LDX     X1,SCWSO,X6,PR6  GET OFST TO SET WORK SPACE
   000564    7 00000 2341 11           637         SZN     .CSE,X1,PR7     IS CURR ERASED
   000565    000003 6050 04            638         TPL     3,IC            NO - GO ON
   000566    400000 2350 07            639         LDA     .B18,DL
   000567    7 00520 2551 00           640         ORSA    .PRCSE,,PR7     SET .PRCSE IN CASE INSERTION IS BEFORE
   000570    7 00001 2361 11           641         LDQ     CURR,X1,PR7     GET CURR DBK
   000571 (0)000673 6000 00            642         TZE     NCUR1           NO CURRENT OF SET - ERROR
   000572    7 00510 2231 00           643         LDX     X3,RVI,,PR7     SET X3 TO REC VAR IN
   000573    7 00000 7561 13           644         STQ     DBKEY,X3,PR7    PUT IN DBK
                                       645  *  GET THE REC
   000574  X 000000 7010 00            646           DBCAL    ZIG$DBPFD,,ERR8
   000575 (0)000705 7020 00
   000576    5 00006 2341 00
   000577    777776 6010 04
                                       647  *
                                       648  * IF SET IS PA, MOVE INFO ON PA REC FROM SET WORKSPACE TO RVI
                                       649  *
   000600    7 00037 2241 00           650         LDX     X4,CURSS,,PR7   GET CURRENT SS
   000601    6 00002 2251 14           651         LDX     X5,SSH,X4,PR6   GET RS FOR THIS SS
   000602    6 00003 7261 15           652         LXL     X6,SCRSH,X5,PR6  GET SC FOR THIS RS
   000603    6 00000 2211 16           653         LDX     X1,DEF,X6,PR6   GET SET MODE
   000604    000070 3610 03            654         ANX     X1,.SETM,DU     ISOLATE
   000605    000020 1010 03            655         CMPX    X1,=O020,DU     IS IT POINTER ARRAY
   000606 (0)000707 6010 00            656         TNZ     WLKSS           NO
   000607    6 00001 2211 16           657         LDX     X1,SCWSO,X6,PR6  YES - SET X1 = OFST TO SET WORKSPACE
   000610    7 00510 2231 00           658         LDX     X3,RVI,,PR7     SET X3 TO REC VAR IN
   000611    7 00002 2351 11           659         LDA     CBENO,X1,PR7    PA ENTRY OFST AND PTR OFST
   000612    7 00003 2361 11           660         LDQ     CBCPA,X1,PR7    DBK OF PA RECORD
   000613    7 00014 7571 13           661         STAQ    CBRCE,X3,PR7    SAVE IN RVI
   000614 (0)000707 7100 00            662         TRA     WLKSS
                                       663  *
                                       664  *  USE ANOTHER SOS
 12:43 09/05/97  FILE=ZIM$DBFA.:ZIC0TSI       ASSOCIATIVE FIND                                           24   BMAP - B00
                                       665  *
   000615                              666  MEMB   NULL
   000615    7 00370 7441 56           667         PSHSS   ERR10           SAVE CURRENT SS
   000616 (0)000677 6064 00
   000617    6 00002 2251 14           668         LDX     X5,SSH,X4,PR6   GET RS PTR
   000620 (0)000446 7100 00            669         TRA     AFL1            GO PROCESS SOS
                                       670  *
                                       671  *  ERRORS DETECTED IN THIS ROUTINE
                                       672  *
   000621                              673  NENT   NULL                    NO ENTRY SS
   000621    303320 2350 07            674         LDA     FDE2,DL
   000622    000000 6200 00            675         EAX     X0,0            NULL AC
   000623    6 00003 7261 15           676         LXL     X6,SCRSH,X5,PR6  GET  SC
   000624    6 00003 2271 15           677         LDX     X7,RCRSH,X5,PR6  GET  RC
   000625 (0)000706 7100 00            678         TRA     AFR1
   000626                              679  ERR1   NULL                    ILLEGAL ENTRY SS TYPE
   000626    303243 2350 07            680         LDA     SSER,DL
   000627    000000 6200 00            681         EAX     X0,0            NULL AC
   000630    6 00003 7261 15           682         LXL     X6,SCRSH,X5,PR6  GET  SC
   000631    6 00003 2271 15           683         LDX     X7,RCRSH,X5,PR6  GET  RC
   000632 (0)000706 7100 00            684         TRA     AFR1
   000633                              685  PRVE3  NULL                    PRIVACY NOT SATISFIED - DIRECT REC ENTRY
   000633    257764 2350 07            686         LDA     LR,DL
   000634    000000 6200 00            687         EAX     X0,0            NULL AC
   000635    000000 6260 00            688         EAX     X6,0            NULL SC
   000636 (0)000706 7100 00            689         TRA     AFR1
                                       690         IFE     C,1,%CK1
   000637                              691  CDER1  NULL                    CD NOT FOUND - DIRECT REC ENTRY
   000637    303243 2350 07            692         LDA     SSER,DL
   000640    000000 6200 00            693         EAX     X0,0            NULL AC
   000641    6 00003 7261 15           694         LXL     X6,SCRSH,X5,PR6  GET  SC
   000642    6 00003 2271 15           695         LDX     X7,RCRSH,X5,PR6  GET  RC
   000643 (0)000706 7100 00            696         TRA     AFR1
   000644                              697  FRER1  NULL                    FR NOT FOUND - DIRECT REC ENTRY
   000644    303243 2350 07            698         LDA     SSER,DL
   000645    000000 6200 00            699         EAX     X0,0            NULL AC
   000646    6 00003 7261 15           700         LXL     X6,SCRSH,X5,PR6  GET  SC
 12:43 09/05/97  FILE=ZIM$DBFA.:ZIC0TSI       ASSOCIATIVE FIND                                           25   BMAP - B00
   000647    6 00003 2271 15           701         LDX     X7,RCRSH,X5,PR6  GET  RC
   000650 (0)000706 7100 00            702         TRA     AFR1
                                       703  CK1    MARK
   000651                              704  DBZ    NULL                    DBK GIVEN IS NULL
   000651    007474 2350 07            705         LDA     DBKN,DL
   000652    000000 6200 00            706         EAX     X0,0            NULL AC
   000653    6 00003 7261 15           707         LXL     X6,SCRSH,X5,PR6  GET SC
   000654    6 00003 2271 15           708         LDX     X7,RCRSH,X5,PR6  GET RC
   000655 (0)000706 7100 00            709         TRA     AFR1
   000656                              710  RCER2  NULL                    REC FND NOT CORRECT TYPE - DIRECT ENTRY
   000656    004374 2350 07            711         LDA     SOSE,DL
   000657    7 00510 2231 00           712         LDX     X3,RVI,,PR7
   000660    7 00005 2201 13           713         LDX     X0,ACPTR,X3,PR7  GET AC
   000661    000000 6260 00            714         EAX     X6,0            NULL SC
   000662 (0)000706 7100 00            715         TRA     AFR1
                                       716         IFE     E,1,%CK5
   000663                              717  SZE4   NULL                    RECORD SIZE ERROR
   000663    210574 2350 07            718         LDA     RSZER,DL
   000664    7 00005 2201 13           719         LDX     X0,ACPTR,X3,PR7  GET AC
   000665    000000 6260 00            720         EAX     X6,0            NULL SC
   000666    000020 7100 04            721         TRA     AFR1,$
                                       722  CK5    MARK
   000667                              723  PRVE4  NULL                    PRIVACY NOT SATISFIED - CURR REC ENTRY
   000667    257764 2350 07            724         LDA     LR,DL
   000670    000000 6200 00            725         EAX     X0,0            NULL AC
   000671    000000 6260 00            726         EAX     X6,0            NULL SC
   000672 (0)000706 7100 00            727         TRA     AFR1
   000673                              728  NCUR1  NULL                    NO CURRENT - CURR REC ENTRY
   000673    006034 2350 07            729         LDA     CNUL,DL
   000674    000000 6200 00            730         EAX     X0,0            NULL AC
   000675    000000 6270 00            731         EAX     X7,0            NULL RC
   000676 (0)000706 7100 00            732         TRA     AFR1
   000677                              733  ERR10  NULL                    SOS STACK OVERFLOW
   000677    234654 2350 07            734         LDA     NSCS,DL
   000700    000000 6200 00            735         EAX     X0,0            NULL AC
   000701    6 00003 7261 15           736         LXL     X6,SCRSH,X5,PR6  GET  SC
   000702    6 00003 2271 15           737         LDX     X7,RCRSH,X5,PR6  GET  RC
 12:43 09/05/97  FILE=ZIM$DBFA.:ZIC0TSI       ASSOCIATIVE FIND                                           26   BMAP - B00
   000703 (0)000706 7100 00            738         TRA     AFR1
                                       739  *
                                       740  *  ERRORS DETECTED IN SUBORDINATE ROUTINES
                                       741  *
   000704                              742  ERR2   NULL                    REC NOT FOUND - FIND CALC REC
   000704 (0)000706 7100 00            743         TRA     AFR1
                                       744  *
                                       745  *  ERRORS DETECTED IN PRIMITIVES
                                       746  *
   000705                              747  MSER7  NULL                    ERROR MOVING CALC KEYS TO TEMP BUF
   000705                              748  ERR6   NULL                    PAGE ERROR - DIRECT REC ENTRY
   000705                              749  ERR8   NULL                    PAGE ERROR - CURR REC ENTRY
   000705 (0)000706 7100 00            750         TRA     AFR1
                                       751  *
                                       752  *  COMMON ERROR RETURN
                                       753  *
   000706                              754  AFR1   NULL
   000706  X 000000 7020 00            755           DBALT

 12:43 09/05/97  FILE=ZIM$DBFA.:ZIC0TSI       ASSOCIATIVE FIND                                           27   BMAP - B00
                                       756         EJECT
                                       757  *
                                       758  *  FIND RECORD DESIRED FROM ENTRY POINT
                                       759  *
                                       760  *  INPUT RECORD VARIABLE CONTAINS ENTRY POINT RECORD
                                       761  *
                                       762  *  CURSS CONTAINS SS PTR FOR ENTRY POINT RECORD
                                       763  *
   000707                              764  WLKSS  NULL
   000707                              765  WLK1   NULL
                                       766  *  GET NEXT SS
   000707    7 00037 2241 00           767         LDX     X4,CURSS,,PR7   GET CURRENT SS
   000710    6 00001 7241 14           768         LXL     X4,RSSSN,X4,PR6  GET NEXT SS
   000711    000123 6000 04            769         TZE     LSTSS,$         DONE
   000712    7 00037 7441 00           770         STX     X4,CURSS,,PR7   SAVE AS CURRENT
   000713    7 00516 7441 00           771         STX     X4,PRSS,,PR7    PUT SS IN PRIM. REQ.
                                       772  *  TURN OFF .PRCSE - THERE IS MORE THAN ONE LEVEL OF SOS
   000714    400001 3350 07            773         LCA     .B18+1,DL
   000715    7 00520 3551 00           774         ANSA    .PRCSE,,PR7
                                       775  *  GET TYPE OF RECORD BEING SOUGHT - THIS LEVEL
   000716    6 00002 2251 14           776         LDX     X5,SSH,X4,PR6   GET RS PTR FOR THIS SS
   000717    6 00003 7261 15           777         LXL     X6,SCRSH,X5,PR6  GET SC PTR FOR THIS RS
   000720    6 00003 2271 15           778         LDX     X7,RCRSH,X5,PR6  GET RC PTR FOR THIS RS
   000721    7 00517 7471 00           779         STX     X7,PRRC,,PR7    SAVE RC
   000722    7 00520 7461 00           780         STX     X6,PRSC,,PR7    SAVE SC
                                       781  *  CHECK REC PRIVACY
   000723    6 00004 2211 17           782         LDX     X1,RCWSO,X7,PR6  GET WORK SPACE OFST
   000724    7 00000 2211 11           783         LDX     X1,PRIV,X1,PR7
   000725    000004 3010 03            784         CANX    X1,PF,DU        IS PRIVACY SATISFIED
   000726 (0)001043 6000 00            785         TZE     PRVE5           NO
                                       786  *  CHECK SET PRIVACY
   000727    6 00001 2211 16           787         LDX     X1,SCWSO,X6,PR6  GET WORK SPACE OFST
   000730    7 00000 2211 11           788         LDX     X1,PRIV,X1,PR7
   000731    000004 3010 03            789         CANX    X1,PSF,DU       IS PRIVACY SATISFIED
   000732 (0)001047 6000 00            790         TZE     PRVE6           NO
                                       791  *  IF SET IS PA AND THE SCAN KEYS ARE THE PA KEYS,
                                       792  *  MOVE THE PA KEYS TO THE KEY PROCESS AREA AND
 12:43 09/05/97  FILE=ZIM$DBFA.:ZIC0TSI       ASSOCIATIVE FIND                                           28   BMAP - B00
                                       793  *  FIND THE CORRECT RECORD BY SEARCHING THE PA
                                       794  *  RECORDS.
   000733    6 00000 2211 16           795         LDX     X1,DEF,X6,PR6   GET SETMODE
   000734    000070 3610 03            796         ANX     X1,.SETM,DU     ISOLATE
   000735    000020 1010 03            797         CMPX    X1,=O020,DU     IS IT POINTER ARRAY
   000736 (0)000775 6010 00            798         TNZ     MKF             NO
                                       799  *
   000737    6 00000 2211 14           800         LDX     X1,DEF,X4,PR6   GET SET SELECTION TYPE FROM SS
   000740    000007 3610 03            801         ANX     X1,.SSTP,DU     ISOLATE
   000741    000006 1010 03            802         CMPX    X1,=O6,DU       IS IT SCAN PA RECORDS
   000742 (0)000775 6010 00            803         TNZ     MKF             NO
                                       804  *
   000743  X 000000 7010 00            805         DBCAL   ZIG$DBAKU,,MPAKE MOVE PA KEYS TO KEY PROCESS AREA
   000744 (0)001065 7020 00
   000745    5 00006 2341 00
   000746    777776 6010 04
   000747  X 000000 7010 00            806           DBCAL    ZIG$DBAFE,,FEER2     Find entry
   000750 (0)001065 7020 00
   000751    5 00006 2341 00
   000752    777776 6010 04
                                       807  *  RETRIEVE DATA RECORD
   000753    7 00510 2371 00           808         LDAQ    RVI,,PR7        * REVERSE
   000754    7 00511 7551 00           809         STA     RVO,,PR7        *  IN AND OUT
   000755    7 00510 7561 00           810         STQ     RVI,,PR7        *   RECORD VARIABLES
   000756  X 000000 7010 00            811           DBCAL    ZIG$DBPFD,,FDER2     Find direct
   000757 (0)001065 7020 00
   000760    5 00006 2341 00
   000761    777776 6010 04
   000762    7 00510 2371 00           812         LDAQ    RVI,,PR7        * REVERSE
   000763    7 00511 7551 00           813         STA     RVO,,PR7        *  IN AND OUT
   000764    7 00510 7561 00           814         STQ     RVI,,PR7        *   RECORD VARIABLES
   000765    7 00517 2271 00           815         LDX     X7,PRRC,,PR7    GET RC REQUESTED
   000766    7 00511 2231 00           816         LDX     X3,RVO,,PR7
   000767    7 00003 2351 13           817         LDA     RTP,X3,PR7      GET REC TYPE RETRIEVED
   000770    7 00057 2361 00           818         LDQ     CTMASK,,PR7     GET MASK
   000771    6 00003 2111 17           819         CMK     RTYP,X7,PR6     WAS CORRECT TYPE RETRIEVED
   000772 (0)001060 6010 00            820         TNZ     RER2            NO - ERROR
 12:43 09/05/97  FILE=ZIM$DBFA.:ZIC0TSI       ASSOCIATIVE FIND                                           29   BMAP - B00
   000773    7 00006 7471 13           821         STX     X7,RCPTR,X3,PR7  SAVE RC PTR IN REC VAR
   000774 (0)001030 7100 00            822         TRA     RFND            RECORD FOUND
                                       823  *
                                       824  *
   000775                              825  MKF    NULL
                                       826  *
                                       827  *  MOVE KEY FIELDS TO TEMP BUF
   000775  X 000000 7010 00            828         DBCAL   ZIG$DBPMS,,MKER3 MOVE KEYS
   000776 (0)001065 7020 00
   000777    5 00006 2341 00
   001000    777776 6010 04
                                       829  *  SAVE CURR DBK
   001001    7 00510 2231 00           830         LDX     X3,RVI,,PR7
   001002    7 00000 2361 13           831         LDQ     DBKEY,X3,PR7    GET CURR DBK
   001003    7 00040 7561 00           832         STQ     CDBK,,PR7       SAVE
                                       833  *  GET THE NEXT RECORD IN SET
   001004                              834  FAL1   NULL
   001004  X 000000 7010 00            835         DBCAL   ZIG$DBPFN,EOS2,ERR9 FIND NEXT
   001005 (0)001065 7020 00
   001006    5 00006 2341 00
   001007    000003 6000 04
   001010    5 00006 4501 00
   001011 (0)001020 7020 00
                                       836  *  COMPARE KEYS IN RECORD
   001012  X 000000 7010 00            837         DBCAL   ZIG$DBPCK,RFND,CMER1 COMPARE KEYS
   001013 (0)001065 7020 00
   001014    5 00006 2341 00
   001015    000003 6000 04
   001016    5 00006 4501 00
   001017 (0)001030 7020 00
   001020                              838  EOS2   NULL
   001020    7 00510 2371 00           839         LDAQ    RVI,,PR7        *  REVERSE
   001021    7 00511 7551 00           840         STA     RVO,,PR7        *   IN &
   001022    7 00510 7561 00           841         STQ     RVI,,PR7        *    OUT REC VAR
   001023    7 00510 2231 00           842         LDX     X3,RVI,,PR7
   001024    7 00000 2361 13           843         LDQ     DBKEY,X3,PR7    GET DBK OF REC FOUND
   001025    7 00040 1161 00           844         CMPQ    CDBK,,PR7       IS IT THE ONE STARTED WITH
 12:43 09/05/97  FILE=ZIM$DBFA.:ZIC0TSI       ASSOCIATIVE FIND                                           30   BMAP - B00
   001026 (0)001004 6010 00            845         TNZ     FAL1            NO - GET NEXT
   001027 (0)001053 7100 00            846         TRA     RNF1            YES - REC NOT FOUND
                                       847  *  RECORD FOUND THIS LEVEL
   001030                              848  RFND   NULL
   001030    7 00510 2371 00           849         LDAQ    RVI,,PR7        * REVERSE
   001031    7 00511 7551 00           850         STA     RVO,,PR7        *  IN &
   001032    7 00510 7561 00           851         STQ     RVI,,PR7        *   OUT REC VAR
   001033 (0)000707 7100 00            852         TRA     WLK1            GO TO NEXT SS DEF
                                       853  *  LAST SS PROCESSED
   001034                              854  LSTSS  NULL
                                       855  *
                                       856  *  GET PREV SS FROM STACK
                                       857  *
   001034    7 00372 6211 00           858         POPSS   STKMT
   001035    7 00370 1011 00
   001036 (0)001042 6000 00
   001037    7 00370 2241 54
   001040    7 00037 7441 00           859         STX     X4,CURSS,,PR7   MAKE THE SS CURRENT
   001041 (0)000707 7100 00            860         TRA     WLK1            GO PROCESS IT
                                       861  *
                                       862  *  RETURN
                                       863  *
   001042                              864  STKMT  NULL
   001042  X 000000 7020 00            865         DBRET                   NORMAL RETURN
                                       866  *
                                       867  *  ERRORS DETECTED IN THIS ROUTINE
                                       868  *
   001043                              869  PRVE5  NULL                    REC PRIVACY NOT SATISFIED
   001043    257764 2350 07            870         LDA     LR,DL
   001044    000000 6200 00            871         EAX     X0,0            NULL AC
   001045    000000 6260 00            872         EAX     X6,0            NULL SC
   001046 (0)001066 7100 00            873         TRA     WKR1
   001047                              874  PRVE6  NULL                    SET PRIVACY NOT SATISFIED
   001047    257764 2350 07            875         LDA     LR,DL
   001050    000000 6200 00            876         EAX     X0,0            NULL AC
   001051    000000 6270 00            877         EAX     X7,0            NULL RC
   001052 (0)001066 7100 00            878         TRA     WKR1
 12:43 09/05/97  FILE=ZIM$DBFA.:ZIC0TSI       ASSOCIATIVE FIND                                           31   BMAP - B00
   001053                              879  RNF1   NULL                    END OF SET - REC NOT FOUND
   001053    004374 2350 07            880         LDA     SOSE,DL
   001054    000000 6200 00            881         EAX     X0,0            NULL AC
   001055    7 00520 2261 00           882         LDX     X6,PRSC,,PR7    GET SC
   001056    7 00517 2271 00           883         LDX     X7,PRRC,,PR7    GET RC
   001057 (0)001066 7100 00            884         TRA     WKR1
   001060                              885  RER2   NULL                    REC RETRIEVED NOT CORRECT TYPE
   001060    210643 2350 07            886         LDA     FDE5,DL
   001061    7 00005 2201 13           887         LDX     X0,ACPTR,X3,PR7  GET AC PTR
   001062    000000 6260 00            888         EAX     X6,0            NULL SC PTR
   001063 (0)001066 7100 00            889         TRA     WKR1
                                       890  *
                                       891  *  ERRORS DETECTED IN SUBORDINATE ROUTINES
                                       892  *
   001064                              893  UPER2  NULL                    UPDATE SET CURRENCY ERROR
   001064 (0)001066 7100 00            894         TRA     WKR1
                                       895  *
                                       896  *  ERRORS DETECTED IN PRIMITIVES
                                       897  *
   001065                              898  MKER3  NULL                    MOVE KEY ERROR
   001065                              899  ERR9   NULL                    PAGE ERROR - FIND ASSOC
   001065                              900  ERR11  NULL                    PAGE ERROR - GIND NEXT OF CALC SET
   001065                              901  CMER1  NULL                    ERROR COMPARE KEYS
   001065                              902  CMER3  NULL                    ERROR COMPARING KEYS - CALC SET
   001065                              903  MPAKE  NULL                    MOVE PA KEY TO PROCESS AREA ERROR
   001065                              904  FEER2  NULL                    ERROR RETURN FROM FIND ENTRY
   001065                              905  FDER2  NULL                    ERROR FINDING PA MEMBER
   001065 (0)001066 7100 00            906         TRA     WKR1
                                       907  *
                                       908  *  COMMON ERROR RETURN
                                       909  *    CODE IN AR
                                       910  *
   001066                              911  WKR1   NULL
   001066  X 000000 7020 00            912           DBALT
                                       913         END

  CONTROL SECTION TABLE
 12:43 09/05/97  FILE=ZIM$DBFA.:ZIC0TSI       ASSOCIATIVE FIND                                           32   BMAP - B00

   0 CODE   EVEN  001067
   1 RODATA EVEN  000000 LITERALS

 12:43 09/05/97  FILE=ZIM$DBFA.:ZIC0TSI       SYMBOL TABLE                                               33   BMAP - B00
 40000000 000000200000 .AC            *32
 40000000 000000000100 .AG            *32
 40000000 000000002000 .ALTO          *32
 40000000 000000000077 .ANL           *32
 40000000 000000200000 .APDN          *32
 40000000 000000000100 .ATMP          *32
 40000000 000000400000 .AV            *32
 40000000 000000400000 .B0            *32
 40000000 000000200000 .B1            *32
 40000000 000000000200 .B10           *32
 40000000 000000000100 .B11           *32
 40000000 000000000040 .B12           *32
 40000000 000000000020 .B13           *32
 40000000 000000000010 .B14           *32
 40000000 000000000004 .B15           *32
 40000000 000000000002 .B16           *32
 40000000 000000000001 .B17           *32
 41000000 000000400000 .B18           *32       535       639       773
 40000000 000000200000 .B19           *32
 40000000 000000100000 .B2            *32
 40000000 000000100000 .B20           *32
 40000000 000000040000 .B21           *32
 40000000 000000020000 .B22           *32
 40000000 000000010000 .B23           *32
 40000000 000000004000 .B24           *32
 40000000 000000002000 .B25           *32
 40000000 000000001000 .B26           *32
 40000000 000000000400 .B27           *32
 40000000 000000000200 .B28           *32
 40000000 000000000100 .B29           *32
 40000000 000000040000 .B3            *32
 40000000 000000000040 .B30           *32
 40000000 000000000020 .B31           *32
 40000000 000000000010 .B32           *32
 40000000 000000000004 .B33           *32
 40000000 000000000002 .B34           *32
 40000000 000000000001 .B35           *32
 12:43 09/05/97  FILE=ZIM$DBFA.:ZIC0TSI       SYMBOL TABLE                                               34   BMAP - B00
 40000000 000000020000 .B4            *32
 40000000 000000010000 .B5            *32
 40000000 000000004000 .B6            *32
 40000000 000000002000 .B7            *32
 40000000 000000001000 .B8            *32
 40000000 000000000400 .B9            *32
 40000000 000000000001 .BREAK         *32
 40000000 000000010000 .BRK           *32
 40000000 000000020000 .BTB           *32
 40000000 000000000001 .CAC           *32
 40000000 000000000000 .CAE           *32
 40000000 000000000200 .CANSSS        *32
 41000000 000000000400 .CD            *32       582
 40000000 000000040000 .CFLC          *32
 40000000 000000400000 .CHKSUM        *32
 40000000 000000100000 .CJRNL         *32
 40000000 000000000077 .CNSZ          *32
 40000000 000000160000 .COMC          *32
 40000000 000000000020 .CONT          *32
 41000000 000000000000 .CSE           *32       637
 40000000 000000700000 .CTYP          *32
 41000000 000000000270 .DBEST         *32
 41000000 000000000470 .DBIC          *32
 40000000 000000077777 .DBPT          *32
 41000000 000000000370 .DBSTK         *32       532       533       667       858
 40000000 000000020000 .DELM          *32
 40000000 000000002000 .DIDP          *32
 40000000 000000000077 .DNDX          *32
 40000000 000000600000 .DORD          *32
 40000000 000000000200 .DP            *32
 40000000 000000100000 .DPS           *32
 40000000 000000200000 .DPSA          *32
 40000000 000000400000 .DPST          *32
 40000000 000000000002 .DUMP          *32
 40000000 000000002000 .DUPC          *32
 40000000 000000010000 .DUPP          *32
 40000000 000000200000 .EBCL          *32
 12:43 09/05/97  FILE=ZIM$DBFA.:ZIC0TSI       SYMBOL TABLE                                               35   BMAP - B00
 40000000 000000400000 .EBCM          *32
 40000000 000000200000 .ENCRP         *32
 40000000 000000000077 .ENDX          *32
 40000000 000000000400 .ENQ           *32
 40000000 000000004000 .ETC           *32
 40000000 000000000400 .EXIT          *32
 40000000 000000000200 .FMOD          *32
 40000000 000000000077 .FNL           *32
 40000000 000000000074 .FORG          *32
 41000000 000000002000 .FR            *32       457       588
 40000000 000000000100 .FSR           *32
 40000000 000000003400 .FUSE          *32
 40000000 000000010000 .FVF           *32
 41000000 000000040000 .FVR           *32       441       614
 40000000 000000000010 .INDEXED       *32
 40000000 000000777777 .IXID          *32
 40000000 000000001777 .IXNUM         *32
 40000000 000000000004 .KEYED         *32
 40000000 000000010000 .LCK           *32
 40000000 000000400000 .LEIL          *32
 40000000 000000001000 .LG            *32
 40000000 000000000002 .LOAD          *32
 40000000 000000020000 .MAR           *32
 40000000 000000000007 .MEMT          *32
 40000000 000000010000 .MRL           *32
 40000000 000000040000 .MSM           *32
 60000000 000000000001 .N6685         *32
 40000000 000000100000 .NAI           *32
 40000000 000000200000 .NBI           *32
 40000000 000000000002 .NCIA          *32
 40000000 000000040000 .NMV           *32
 40000000 000000017777 .NOENT         *32
 40000000 000000400000 .OA            *32
 40000000 000000740000 .OPEV          *32
 40000000 000000100000 .OSM           *32
 40000000 000000100000 .PAFIL         *32
 40000000 000000200000 .PAHVR         *32
 12:43 09/05/97  FILE=ZIM$DBFA.:ZIC0TSI       SYMBOL TABLE                                               36   BMAP - B00
 40000000 000000000001 .PAIA          *32
 40000000 000000040000 .PALIL         *32
 40000000 000000020000 .PALVR         *32
 40000000 000000400000 .PANLL         *32
 40000000 000000400000 .PCKD          *32
 40000000 000000001600 .PMOD          *32
 41000000 000000000520 .PRCSE         *32       536       640       774
 40000000 000000000007 .PSTO          *32
 40000000 000000006040 .PTAS          *32
 40000000 000000010100 .PTCHK         *32
 40000000 000000010200 .PTDEC         *32
 40000000 000000010140 .PTENC         *32
 40000000 000000020000 .RA            *32
 41000000 000000100000 .RC            *32       133
 40000000 000000400000 .RELEASE       *32
 40000000 000000000017 .RELT          *32
 40000000 000000004000 .RERA          *32
 40000000 000000400000 .RERS          *32
 40000000 000000010000 .RKEY          *32
 40000000 000000000077 .RNL           *32
 40000000 000000200000 .RSTO          *32
 40000000 000000007777 .RTYP          *32
 41000000 000000040000 .SC            *32       136
 41000000 000000000070 .SETM          *32       177       197       654       796
 40000000 000000740000 .SETO          *32
 40000000 000000000700 .SETT          *32
 40000000 000000040000 .SFNP          *32
 40000000 000000004000 .SM            *32
 40000000 000000020000 .SMOD          *32
 40000000 000000000077 .SNL           *32
 41000000 000000020000 .SNSS          *32       145
 40000000 000000010000 .SO            *32
 41000000 000000100000 .SR            *32       141
 40000000 000000004000 .SRCR          *32
 40000000 000000001000 .SS            *32
 41000000 000000000007 .SSTP          *32       547       801
 40000000 000000004000 .SYN           *32
 12:43 09/05/97  FILE=ZIM$DBFA.:ZIC0TSI       SYMBOL TABLE                                               37   BMAP - B00
 40000000 000000000040 .SYNC          *32
 40000000 000000020000 .TJRNL         *32
 40000000 000000040000 .TMPLT         *32
 40000000 000000040000 .TRACE         *32
 40000000 000000000001 .TRENTRY       *32
 40000000 000000000012 .TRIDEL        *32
 40000000 000000000021 .TRIDELENQ     *32
 40000000 000000000024 .TRIDEQ        *32
 40000000 000000000013 .TRIMOD        *32
 40000000 000000000022 .TRIMODENQ     *32
 40000000 000000000014 .TRIREAD       *32
 40000000 000000000023 .TRIREADENQ    *32
 40000000 000000000011 .TRISTO        *32
 40000000 000000000020 .TRISTOENQ     *32
 40000000 000000000017 .TRPDEQ        *32
 40000000 000000000004 .TRPMOD        *32
 40000000 000000000016 .TRPMODENQ     *32
 40000000 000000000002 .TRPREAD       *32
 40000000 000000000015 .TRPREADENQ    *32
 40000000 000000000003 .TRPWRITE      *32
 40000000 000000000010 .TRRACC        *32
 40000000 000000000006 .TRRDEL        *32
 40000000 000000000007 .TRRMOD        *32
 40000000 000000000005 .TRRSTO        *32
 40000000 000000004000 .ULCK          *32
 40000000 000000400000 .UPDT          *32
 40000000 000000000040 .VIA           *32
 61000000 000000000001 A              *32       131       343
 40000000 000000000002 ABAS           *32
 40000000 000000000001 AC             *32
 40000000 777777777760 ACDEF          *32
 40000000 000000211070 ACDNL          *32
 40000000 000000000003 ACID           *32
 40000000 000000001016 ACOPN          *32
 40000000 000000000002 ACP            *32
 41000000 000000000005 ACPTR          *32       383       713       719       887
 40000000 000000000002 ACRAH          *32
 12:43 09/05/97  FILE=ZIM$DBFA.:ZIC0TSI       SYMBOL TABLE                                               38   BMAP - B00
 40000000 000000000001 ACRAN          *32
 40000000 000000001003 ACREC          *32
 40000000 000000000001 ACTDBCB        *32
 40000000 000000000002 ACTDBNO        *32
 40000000 000000001017 ACTP           *32
 40000000 000000000000 ACTSSS         *32
 40000000 000000000000 ACTSZ          *32
 01101000 000000000446 AFL1          *542       669
 40000000 000000210565 AFNP           *32
 01101000 000000000706 AFR1           678       684       689       696       702       709       715
                                      721       727       732       738       743       750      *754
 40000000 000000000635 AFT            *32
 40000000 000000022124 AIR            *32
 40000000 000000000016 AMAX           *32
 40000000 000000000026 ANAM           *32
 40000000 000000021614 ANR            *32
 40000000 000000000001 APNO           *32
 41000000 000000210562 ARGER          *32       345       475
 41000000 000000000020 ARGS           *32
 40000000 000000000077 ARGS2          *32
 40000000 000000210713 ARNAF          *32
 40000000 000000000003 ATBL           *32
 40000000 000000000000 ATRIB          *32
 40000000 000000000002 AVLN           *32
 40000000 000000000013 AWS$           *32
 40000000 000000000010 AWSZ           *32
 60000000 000000000001 B              *32
 40000000 000000001006 B32N           *32
 40000000 000000001007 B36N           *32
 40000000 000000001056 B72N           *32
 40000000 000000000001 BADDR          *32
 40000000 000000210712 BADSEED        *32
 40000000 777777777765 BDCW           *32
 40000000 000000000633 BEF            *32
 40000000 000000020000 BEFW           *32
 40000000 000000000751 BEMT           *32
 40000000 777777777761 BID            *32
 12:43 09/05/97  FILE=ZIM$DBFA.:ZIC0TSI       SYMBOL TABLE                                               39   BMAP - B00
 40000000 777777777762 BIND           *32
 40000000 000000000007 BLKD           *32
 40000000 000000303331 BME02          *32
 41000000 000000001203 BMPB           *32
 40000000 000000000652 BN1            *32
 40000000 000000000654 BN2            *32
 40000000 000000000004 BPL            *32
 40000000 000000000015 BPLDBK         *32
 40000000 000000000034 BSPG           *32
 40000000 777777777763 BSTAT          *32
 40000000 000000000750 BTX0           *32
 41000000 000000001160 BUF4           *32
 41000000 000000001170 BUF6           *32
 41000000 000000000000 BUFORG         *32
 40000000 000000001060 BUFRQ          *32
 40000000 000000000006 BURRID         *32
 41000000 000000000020 BWASZ          *32
 61000000 000000000001 C              *32       580       586       690
 40000000 000000000050 CAAC           *32
 40000000 000000000050 CACD           *32
 40000000 000000000111 CAG            *32
 40000000 000000001033 CAL            *32
 01101000 000000000464 CALC           549      *560
 01101000 000000000312 CALER          134       137      *344
 40000000 000000000026 CALLPM0        *32
 40000000 000000000003 CANSSS         *32
 41000000 000000000003 CBCPA          *32       183       660
 40000000 000000000002 CBCPO          *32
 41000000 000000000002 CBENO          *32       182       659
 40000000 000000000014 CBFSZ          *32
 40000000 000000000753 CBIB           *32
 40000000 000000001030 CBID           *32
 41000000 000000000014 CBRCE          *32       185       661
 40000000 000000000014 CBRCP          *32
 40000000 000000001033 CBRID          *32
 40000000 000000000015 CBRPA          *32
 40000000 000000000031 CCHAR          *32
 12:43 09/05/97  FILE=ZIM$DBFA.:ZIC0TSI       SYMBOL TABLE                                               40   BMAP - B00
 41000000 000000000040 CDBK           *32       310       330       832       844
 01101000 000000000637 CDER1          583      *691
 40000000 000000000030 CDES           *32
 40000000 000000000110 CDP            *32
 40000000 000000001044 CDPSI          *32
 41000000 000000000002 CDRH           *32       222
 40000000 000000000003 CDRN           *32
 41000000 000000000002 CDSH           *32       585
 40000000 000000000003 CDSN           *32
 40000000 000000000722 CENTRN         *32
 40000000 000000000722 CENTRO         *32
 40000000 000000000716 CENTRY         *32
 41000000 000000001053 CFCT           *32
 40000000 000000000670 CFLPT1         *32
 40000000 000000000672 CFLPT2         *32
 40000000 000000000015 CFSA           *32
 40000000 000000000646 CHDBK          *32
 40000000 000000000773 CHR            *32
 40000000 000000000006 CHRD           *32
 40000000 000000000772 CHRO           *32
 40000000 000000007640 CHRTP          *32
 40000000 000000001043 CIAC           *32
 40000000 000000000012 CIAWS          *32
 40000000 000000001051 CIBSI          *32
 40000000 000000000516 CIND           *32
 40000000 000000001041 CINVSZ         *32
 40000000 000000001042 CIPG           *32
 40000000 000000001050 CIPSI          *32
 40000000 000000000000 CIRUN          *32
 40000000 000000000002 CIRWS          *32
 40000000 000000000002 CISWS          *32
 40000000 000000000014 CIWSOF         *32
 01101000 000000000144 CKCT           219      *234
 40000000 000000303374 CKSM           *32
 40000000 000000000022 CLCN           *32
 40000000 000000000023 CLCP           *32
 40000000 000000000003 CLCRC          *32
 12:43 09/05/97  FILE=ZIM$DBFA.:ZIC0TSI       SYMBOL TABLE                                               41   BMAP - B00
 40000000 000000000003 CLCSC          *32
 01101000 000000000353 CLER1          158      *389
 40000000 000000000237 CLI            *32
 40000000 000000000026 CLNG           *32
 01101000 000000001065 CMER1          837      *901
 01101000 000000000353 CMER2          323      *393
 00101000 000000001065 CMER3         *902
 41000000 000000000052 CMPL           *32       439       448       454
 40000000 000000000002 CN             *32
 40000000 000000303315 CNE1           *32
 41000000 000000006034 CNUL           *32       371       729
 40000000 000000100000 COB74          *32
 40000000 000000000001 COFS           *32
 40000000 000000000045 CONCD          *32
 40000000 000000007764 CP6PGSZB       *32
 41000000 000000001775 CP6PGSZW       *32
 40000000 000000001000 CPGR           *32
 40000000 000000000723 CPTRN          *32
 40000000 000000000723 CPTRO          *32
 60000000 000000000004 CPW            *32
 40000000 000000000112 CRA            *32
 40000000 000000001004 CRD            *32
 40000000 000000000764 CREC           *32
 40000000 000000006344 CRIT           *32
 40000000 000000006200 CRNUL          *32
 40000000 000000007330 CRST           *32
 41000000 000000001223 CRUN           *32
 41000000 000000000000 CSECT          *32
 40000000 000000000007 CSMPP          *32
 40000000 000000001000 CSPAC          *32
 40000000 000000000004 CSPAH          *32
 40000000 777777777776 CSPES          *32
 40000000 777777777776 CSPSB          *32
 40000000 000000000115 CSTS           *32
 40000000 000000000071 CSUB           *32
 40000000 000000000017 CSZ            *32
 41000000 000000000057 CTMASK         *32       273       606       818
 12:43 09/05/97  FILE=ZIM$DBFA.:ZIC0TSI       SYMBOL TABLE                                               42   BMAP - B00
 40000000 000000000774 CTPAI          *32
 40000000 000000000240 CURLN          *32
 40000000 000000000236 CURLT          *32
 01101000 000000000554 CURNT          551      *626
 40000000 000000000770 CURPG          *32
 41000000 000000000001 CURR           *32       166       641
 40000000 000000000035 CURRS          *32
 41000000 000000000037 CURSS          *32       545       564       601       650       767       770
                                      859
 40000000 000000001005 CWRT           *32
 40000000 000000000237 CWSOF          *32
 61000000 000000000001 D              *32       455
 40000000 000000000003 DBAN           *32
 40000000 000000000036 DBDR           *32
 40000000 000000000037 DBFN           *32
 40000000 000000000754 DBK            *32
 40000000 000000000777 DBKAC          *32
 41000000 000000000000 DBKEY          *32       169       309       329       597       644       831
                                      843
 40000000 000000000000 DBKL           *32
 41000000 000000007474 DBKN           *32       705
 41000000 000000000776 DBKR           *32
 40000000 000000000777 DBKRQ          *32
 40000000 000000000234 DBKSI          *32
 40000000 000000000651 DBKSR          *32
 40000000 000000000047 DBKYN          *32
 40000000 000000210652 DBLC01         *32
 40000000 000000210653 DBLC05         *32
 40000000 000000303334 DBLC07         *32
 40000000 000000210655 DBLD01         *32
 40000000 000000000010 DBLIM          *32
 40000000 000000000033 DBPKY          *32
 40000000 000000000023 DBRN           *32
 40000000 000000000013 DBSN           *32
 40000000 000000000001 DBST           *32
 01101000 000000000651 DBZ            595      *704
 40000000 000000000757 DCDSR          *32
 12:43 09/05/97  FILE=ZIM$DBFA.:ZIC0TSI       SYMBOL TABLE                                               43   BMAP - B00
 40000000 000000210650 DCE1           *32
 40000000 000000001053 DCPR           *32
 40000000 000000001053 DCPW           *32
 40000000 000000000015 DCTBL          *32
 40000000 000000000032 DDBK           *32
 40000000 000000000006 DDCB           *32
 40000000 000000011754 DDI            *32
 41000000 000000000000 DEF            *32       132       135       140       144       176       196
                                      440       456       546       581       587       613       653
                                      795       800
 40000000 000000000014 DEF2           *32
 40000000 000000303413 DELAK          *32
 40000000 000000000036 DELRS          *32
 40000000 000000000732 DEPCW          *32
 01101000 000000000500 DIRCT          550      *570
 40000000 000000303414 DLDBK          *32
 40000000 000000210627 DLE1           *32
 40000000 000000303310 DLE2           *32
 40000000 000000210631 DLE3           *32
 40000000 000000016040 DNES           *32
 40000000 777777777777 DPAGN          *32
 40000000 000000000020 DPPI           *32
 40000000 000000000053 DPSLW          *32
 40000000 000000000003 DS             *32
 40000000 000000001063 DSDES          *32
 40000000 000000303316 DSE1           *32
 40000000 000000000735 DUSEPA         *32
 61000000 000000000001 E              *32       611       716
 40000000 000000303251 EDPER          *32
 40000000 000000000026 EEIND          *32
 40000000 000000000713 EFIND          *32
 40000000 000000001030 ELO            *32
 40000000 000000210711 ENCPNA         *32
 40000000 000000000007 ENCRP          *32
 40000000 000000000752 ENDSR          *32
 40000000 000000210647 ENE1           *32
 40000000 000000000716 ENIND          *32
 12:43 09/05/97  FILE=ZIM$DBFA.:ZIC0TSI       SYMBOL TABLE                                               44   BMAP - B00
 40000000 000000000013 ENTBL          *32
 40000000 000000000710 ENTNO          *32
 40000000 000000000712 ENTPTR         *32
 40000000 000000000717 ENTSZ          *32
 40000000 000000000711 ENTTYP         *32
 01101000 000000000271 EOS1           313       322      *324
 01101000 000000001020 EOS2           835      *838
 40000000 000000004064 EOSR           *32
 01101000 000000000626 ERR1           553       554       555       556      *679
 01101000 000000000677 ERR10          667      *733
 00101000 000000001065 ERR11         *900
 01101000 000000000704 ERR2           565      *742
 01101000 000000000705 ERR6           599      *748
 01101000 000000000705 ERR8           646      *749
 01101000 000000001065 ERR9           835      *899
 40000000 000000000004 ES             *32
 41000000 000000000100 ESTSZ          *32
 40000000 000000000725 ESZ            *32
 40000000 000000000005 ETCADR         *32
 40000000 000000000005 ETCDBNO        *32
 40000000 000000000064 EXCCD          *32
 01101000 000000000317 FAE1           142      *351
 01101000 000000000323 FAE2           146      *356
 01101000 000000001004 FAL1          *834       845
 40000000 000000234534 FALRT          *32
 01101000 000000000355 FAR1           349       355       359       364       369       374       380
                                      385       398       406      *410
 01101000 000000000103 FASC           164      *187
 40000000 000000001055 FBF72          *32
 40000000 000000001025 FBU61          *32
 40000000 000000001020 FBUF           *32
 40000000 000000001026 FBUF1          *32
 40000000 000000001027 FBUF4          *32
 40000000 000000001024 FBUF6          *32
 40000000 000000001022 FBUFM          *32
 40000000 000000001021 FBUFU          *32
 40000000 000000001023 FBUMD          *32
 12:43 09/05/97  FILE=ZIM$DBFA.:ZIC0TSI       SYMBOL TABLE                                               45   BMAP - B00
 01101000 000000000007 FCEN            76      *118
 40000000 000000000004 FCN            *32
 41000000 000000000051 FCNT           *32       212       214       223       224       436       437
                                      464       466
 40000000 000000000002 FCP            *32
 40000000 000000000047 FCSS           *32
 40000000 000000000005 FD             *32
 41000000 000000210637 FDE1           *32       481
 41000000 000000303320 FDE2           *32       674
 40000000 000000303321 FDE3           *32
 40000000 000000210642 FDE4           *32
 41000000 000000210643 FDE5           *32       382       886
 40000000 000000210644 FDE6           *32
 40000000 000000303325 FDE7           *32
 40000000 000000303326 FDE8           *32
 01101000 000000000354 FDER1          266      *405
 01101000 000000001065 FDER2          811      *905
 40000000 000000000021 FEASZ          *32
 01101000 000000001065 FEER2          806      *904
 01101000 000000000354 FEERR          261      *404
 40000000 000000000740 FETM           *32
 40000000 000000000006 FI             *32
 40000000 000000000103 FIAC           *32
 41000000 000000001100 FIB1           *32
 41000000 000000001130 FIBP           *32
 40000000 000000000000 FIBX           *32
 40000000 000000000102 FICNT          *32
 40000000 000000000005 FIPN           *32
 41000000 000000000054 FKIND          *32        75       117       163
 01101000 000000000244 FKLP1         *312       331
 40000000 000000000015 FLAGS          *32
 40000000 000000000244 FLDDSC         *32
 40000000 000000000046 FLDTL          *32
 01101000 000000000241 FLP            301      *306
 40000000 000000000020 FMSBF          *32
 40000000 000000000006 FNAM           *32
 01101000 000000000354 FNER1          313      *403
 12:43 09/05/97  FILE=ZIM$DBFA.:ZIC0TSI       SYMBOL TABLE                                               46   BMAP - B00
 40000000 000000000250 FNIND          *32
 40000000 000000000004 FNL            *32
 01101000 000000000354 FOER1          302      *402
 40000000 000000000101 FRAC           *32
 40000000 000000000002 FRANGE         *32
 40000000 000000211400 FRDNL          *32
 01101000 000000000644 FRER1          589      *697
 01101000 000000000424 FRER4          458      *474
 01101000 000000000431 FRER5          460      *480
 40000000 000000200000 FRTRN          *32
 40000000 000000000005 FRWSO          *32
 40000000 000000000767 FSLN           *32
 01101000 000000000353 FSOER          188      *391
 40000000 000000000766 FSOF           *32
 40000000 000000000060 FTIND          *32
 40000000 000000303240 FTLINCR        *32
 40000000 000000000021 FWSSZ          *32
 40000000 000000000246 GACDK          *32
 40000000 000000000014 GDCB           *32
 41000000 000000000006 GERROR         *32       158       170       249       261       266       290
                                      313       323       335       337       463       562       565
                                      599       646       805       806       811       828       835
                                      837
 40000000 000000000016 GINHIB         *32
 40000000 000000000020 GIOAWS         *32
 40000000 000000000022 GIOBUF         *32
 40000000 000000000021 GIOPGNO        *32
 40000000 000000000015 GPAGE          *32
 40000000 000000000010 GRETAC         *32
 40000000 000000000011 GRETFR         *32
 40000000 000000000013 GRETRC         *32
 40000000 000000000012 GRETSC         *32
 41000000 000000000025 GRLCW          *32       125
 01101000 000000000105 GSO            179      *189
 01101000 000000000115 GSO1           186      *204
 01101000 000000000127 GSO1L         *217       228
 01101000 000000000213 GSO2           199       209       232       242      *281
 12:43 09/05/97  FILE=ZIM$DBFA.:ZIC0TSI       SYMBOL TABLE                                               47   BMAP - B00
 40000000 000000000014 GSTCD          *32
 40000000 000000000007 GSYSERR        *32
 40000000 000000000010 GT             *32
 40000000 000000000046 GTRNAME        *32
 40000000 000000000055 GTRPDCB        *32
 40000000 000000000056 GTRPNO         *32
 40000000 000000000057 GTRRDBK        *32
 40000000 000000000060 GTRRTYPE       *32
 40000000 000000000060 GTRTYPE        *32
 40000000 000000000027 HASH           *32
 40000000 000000000022 HIA            *32
 40000000 000000000775 HIDB           *32
 40000000 000000000003 HIGHDBK        *32
 40000000 000000000004 HIGHPG         *32
 40000000 000000001037 HIL            *32
 40000000 000000000002 HILN           *32
 40000000 000000000006 HPOS           *32
 40000000 000000000756 IAAC           *32
 40000000 000000001011 IACLN          *32
 40000000 000000001010 IALC           *32
 40000000 000000010314 IAN            *32
 40000000 000000001012 IANLN          *32
 40000000 000000000001 IASID          *30
 40000000 000000020320 ICA            *32
 40000000 000000000023 ICKSMP         *32
 40000000 000000000024 ICKSMV         *32
 40000000 000000210742 ICNR           *32
 41000000 000000000020 ICSIZ          *32
 40000000 000000010004 IDBK           *32
 40000000 000000012120 IDI            *32
 40000000 000000000023 IDS            *32
 40000000 000000000011 IF             *32
 40000000 000000000021 IFIPN          *32
 40000000 000000000000 IFR            *32
 40000000 000000234546 IKSEQ          *32
 40000000 000000000113 INAFLAG        *32
 40000000 000000000016 INCHA          *32
 12:43 09/05/97  FILE=ZIM$DBFA.:ZIC0TSI       SYMBOL TABLE                                               48   BMAP - B00
 40000000 000000210566 INNM           *32
 40000000 000000210567 INSS           *32
 40000000 000000210575 INSST          *32
 40000000 000000303241 INTER          *32
 40000000 000000400000 INTII          *32
 40000000 000000000013 INTVL          *32
 40000000 000000001060 INVFLG         *32
 40000000 000000001043 INVOF          *32
 40000000 000000000014 INVT           *32
 40000000 000000000034 IOBLK          *32
 40000000 000000303354 IOCLSD         *32
 40000000 000000303355 IOCLSK         *32
 40000000 000000303257 IOE1           *32
 40000000 000000303264 IOE11          *32
 40000000 000000303265 IOE12          *32
 40000000 000000303266 IOE18          *32
 40000000 000000303260 IOE2           *32
 40000000 000000303261 IOE3           *32
 40000000 000000303262 IOE7           *32
 40000000 000000303263 IOE8           *32
 40000000 000000303363 IOFLSH         *32
 40000000 000000210676 IOGDCB         *32
 40000000 000000001002 IOINC          *32
 40000000 000000305160 IOINI          *32
 40000000 000000305155 IONOTIDS       *32
 40000000 000000305154 IONOTKEY       *32
 40000000 000000210677 IOOPND         *32
 40000000 000000210700 IOOPNK         *32
 40000000 000000303361 IORDD          *32
 40000000 000000305156 IOSCHEMA       *32
 40000000 000000001052 IOSTS          *32
 40000000 000000303362 IOWRTD         *32
 41000000 000000000750 IOWS           *32
 40000000 000000000647 IPC            *32
 40000000 000000000650 IPCF           *32
 40000000 000000000006 IROLLFLAG      *32
 41000000 000000010150 IRSN           *32       352
 12:43 09/05/97  FILE=ZIM$DBFA.:ZIC0TSI       SYMBOL TABLE                                               49   BMAP - B00
 40000000 000000000004 ISYSDCB        *32
 40000000 000000000005 ISYSERR        *32
 40000000 000000000061 ITPTR          *32
 40000000 000000000060 ITRS           *32
 40000000 000000021760 IUM            *32
 40000000 000000000017 IUSZ           *32
 40000000 000000234522 IVDBK          *32
 40000000 000000000011 IXBUF$         *32
 40000000 000000000046 IXFBSZ         *32
 40000000 777777777776 IXID           *32
 40000000 777777777777 IXPLL          *32
 40000000 000000000523 KCARG0         *32
 40000000 000000000524 KCARG3         *32
 40000000 000000000525 KCARG4         *32
 40000000 000000000700 KCREG          *32
 40000000 000000000006 KDCB           *32
 40000000 000000000666 KEYDS          *32
 40000000 000000000010 KEYPA          *32
 40000000 777777777776 KLNG           *32
 40000000 000000000022 KPASZ          *32
 01101000 000000000135 KS            *225       231
 40000000 000000000006 KWSZ           *32
 40000000 000000000052 LANGC          *32
 40000000 000000001014 LAS            *32
 40000000 000000700000 LCODM          *32
 40000000 000000001045 LDPSI          *32
 40000000 000000001071 LINPT          *32
 40000000 000000001017 LNCNT          *32
 40000000 000000000762 LNNO           *32
 40000000 000000001036 LOL            *32
 40000000 000000000715 LOLIM          *32
 40000000 000000000023 LPASZ          *32
 40000000 000000000012 LPP            *32
 41000000 000000257764 LR             *32       361       366       686       724       870       875
 40000000 000000301270 LRA            *32
 40000000 000000000017 LRSZ           *32
 40000000 000000001035 LSPC           *32
 12:43 09/05/97  FILE=ZIM$DBFA.:ZIC0TSI       SYMBOL TABLE                                               50   BMAP - B00
 01101000 000000001034 LSTSS          769      *854
 40000000 000000000750 LUPD           *32
 61000000 000000000001 M9             *32
 40000000 000000000013 MD             *32
 40000000 000000300000 MDQS           *32
 01101000 000000000615 MEMB           552      *666
 40000000 000000000730 MEMPTR         *32
 40000000 000000000727 MEMTYP         *32
 01101000 000000001065 MKER3          828      *898
 01101000 000000000435 MKER4          463      *488
 01101000 000000000775 MKF            798       803      *825
 40000000 000000000045 MODCD          *32
 41000000 000000001207 MODFL          *32
 40000000 000000000042 MODFR          *32
 40000000 000000000044 MODIN          *32
 40000000 000000000044 MODRS          *32
 40000000 000000000043 MODSC          *32
 01101000 000000000353 MPAER          249      *397
 01101000 000000001065 MPAKE          805      *903
 40000000 000000000047 MRBKI          *32
 40000000 000000210632 MRE4           *32
 40000000 000000303313 MRE5           *32
 40000000 000000210634 MRE7           *32
 01101000 000000000705 MSER7          562      *747
 01101000 000000000353 MVER1          290      *392
 01101000 000000000376 MVL1           442      *447       467
 01101000 000000000436 MVR1           479       484       489      *491
 40000000 000000400000 MW             *32
 40000000 000000000025 NCH            *32
 40000000 000000000002 NCHA           *32
 40000000 000000000005 NCHRS          *32
 01101000 000000000673 NCUR1          642      *728
 01101000 000000000336 NCUR2          167      *370
 40000000 000000000014 NDCD           *32
 40000000 000000000012 NENC           *32
 01101000 000000000621 NENT           544      *673
 40000000 000000000634 NEW            *32
 12:43 09/05/97  FILE=ZIM$DBFA.:ZIC0TSI       SYMBOL TABLE                                               51   BMAP - B00
 40000000 000000001072 NEWSIZ         *32
 01101000 000000000423 NFTM           435      *469
 40000000 000000235164 NKA            *32
 40000000 000000235020 NKDB           *32
 40000000 000000303415 NLDBK          *32
 40000000 777777777777 NLIND          *32
 40000000 000000001040 NLN            *32
 40000000 000000400000 NLNSA          *32
 41000000 000000001053 NOBF           *32
 40000000 000000000711 NOPTRS         *32
 40000000 000000000742 NPARCW         *32
 40000000 000000000630 NPIND          *32
 40000000 000000000004 NPOS           *32
 40000000 000000234510 NSA            *32
 41000000 000000234654 NSCS           *32       734
 40000000 000000234344 NSDB           *32
 40000000 000000000001 NSTS           *32
 40000000 000000000726 NUMENT         *32
 40000000 000000000727 NUMPTR         *32
 40000000 777777777760 NXBUF          *32
 40000000 000000000713 NXPRI          *32
 40000000 000000000771 NXTC           *32
 40000000 000000000001 OAACN          *32
 40000000 000000000022 OACIWSOF       *32
 40000000 000000000001 OAOFST         *32
 40000000 000000000002 OARCN          *32
 40000000 000000000001 OASCN          *32
 40000000 000000000014 OD             *32
 40000000 000000000074 ODBK           *32
 40000000 000000001072 OLDSIZ         *32
 40000000 000000000101 OPADP          *32
 40000000 000000000741 OPARCW         *32
 40000000 000000210570 ORDNI          *32
 41000000 777777777777 OTVL           *32       443
 40000000 000000000252 OWNPTR         *32
 40000000 000000000016 PABUF          *32
 40000000 000000001041 PACD           *32
 12:43 09/05/97  FILE=ZIM$DBFA.:ZIC0TSI       SYMBOL TABLE                                               52   BMAP - B00
 40000000 000000000001 PACW           *32
 40000000 000000000733 PADBK          *32
 40000000 000000000740 PADUP          *32
 40000000 000000000745 PAEN           *32
 40000000 000000000745 PAEO           *32
 40000000 000000000734 PAEOF          *32
 40000000 000000303336 PAER1          *32
 40000000 000000303337 PAER2          *32
 40000000 000000303340 PAER3          *32
 40000000 000000303341 PAER4          *32
 40000000 000000303342 PAER5          *32
 40000000 000000303343 PAER6          *32
 40000000 000000000747 PAESZ          *32
 40000000 000000001060 PAFLG          *32
 40000000 000000000731 PAOPTR         *32
 40000000 000000000734 PAPOF          *32
 40000000 000000000714 PARCW          *32
 40000000 000000000726 PARVPA         *32
 40000000 000000000724 PASPLT         *32
 40000000 000000000004 PAWSZ          *32
 40000000 777777777762 PBUF           *32
 40000000 000000000020 PC             *32
 41000000 000000000510 PCB            *32
 40000000 000000000642 PCD            *32
 40000000 000000000642 PCD2           *32
 40000000 000000000247 PCEXI          *32
 40000000 000000000675 PCMIN          *32
 40000000 000000004541 PCOMP          *32
 40000000 000000000010 PD             *32
 40000000 000000000040 PE             *32
 40000000 000000000017 PENDING        *32
 01101000 000000000353 PER1           170      *390
 41000000 000000000004 PF             *32       150       576       632       784
 40000000 000000000400 PFG            *32
 40000000 000000000200 PFM            *32
 40000000 000000000100 PFS            *32
 40000000 000000000400 PG             *32
 12:43 09/05/97  FILE=ZIM$DBFA.:ZIC0TSI       SYMBOL TABLE                                               53   BMAP - B00
 40000000 000000001064 PGHD           *32
 40000000 000000000006 PGLIM          *32
 40000000 000000000003 PGRNG          *32
 40000000 000000000746 PGSIZE         *32
 40000000 000000000641 PGSPLT         *32
 40000000 000000000100 PKAW           *32
 40000000 000000001034 PLO            *32
 40000000 000000000004 PLSEP          *32
 40000000 000000000200 PM             *32
 40000000 000000001054 PNEOO          *32
 40000000 000000001047 POFSI          *32
 40000000 000000000005 PPOS           *32
 41000000 000000000000 PR0            *30       120       122       124       127       129       172
                                      174       192       194       207       208       226       240
                                      241       253       255       257       286       288       292
                                      295       300       314       317       318       433       434
                                      449       451
 41000000 000000000001 PR1            *30       121       128       130       173       175       193
                                      195       227       254       256       258       287       289
                                      293       296       315       319       450       452       593
                                      594
 40000000 000000000002 PR2            *30
 40000000 000000000003 PR3            *30
 40000000 000000000004 PR4            *30
 41000000 000000000005 PR5            *30       125       158       170       249       261       266
                                      290       313       323       335       337       463       562
                                      565       599       646       805       806       811       828
                                      835       837
 41000000 000000000006 PR6            *30       132       135       140       144       148       153
                                      165       176       181       196       206       218       222
                                      274       440       443       445       456       459       543
                                      546       572       573       574       579       581       585
                                      587       591       602       603       607       612       613
                                      627       629       630       635       636       651       652
                                      653       657       668       676       677       682       683
                                      694       695       700       701       707       708       736
                                      737       768       776       777       778       782       787
 12:43 09/05/97  FILE=ZIM$DBFA.:ZIC0TSI       SYMBOL TABLE                                               54   BMAP - B00
                                      795       800       819
 41000000 000000000007 PR7            *30        75       117       149       154       159       163
                                      166       168       169       182       183       184       185
                                      205       212       214       223       224       247       248
                                      259       260       263       264       265       267       268
                                      269       270       271       272       273       276       297
                                      298       303       304       305       308       309       310
                                      320       321       325       326       327       328       329
                                      330       378       379       383       436       437       439
                                      446       448       454       462       464       466       532
                                      533       536       540       545       561       564       575
                                      596       597       601       604       605       606       609
                                      616       619       631       637       640       641       643
                                      644       650       658       659       660       661       667
                                      712       713       719       767       770       771       774
                                      779       780       783       788       808       809       810
                                      812       813       814       815       816       817       818
                                      821       830       831       832       839       840       841
                                      842       843       844       849       850       851       858
                                      859       882       883       887
 40000000 000000303267 PRE1           *32
 40000000 000000303277 PRE10          *32
 40000000 000000303270 PRE3           *32
 40000000 000000303271 PRE4           *32
 40000000 000000303272 PRE5           *32
 40000000 000000210613 PRE6           *32
 40000000 000000210614 PRE7           *32
 40000000 000000210615 PRE8           *32
 40000000 000000303276 PRE9           *32
 40000000 000000000522 PREXC          *32
 41000000 000000000521 PRFR           *32       462
 40000000 000000000521 PRFR2          *32
 41000000 000000000000 PRIV           *32       149       154       575       631       783       788
 40000000 000000000526 PROPA          *32
 41000000 000000000517 PRRC           *32       259       270       297       379       779       815
                                      883
 40000000 000000000517 PRRS           *32
 12:43 09/05/97  FILE=ZIM$DBFA.:ZIC0TSI       SYMBOL TABLE                                               55   BMAP - B00
 41000000 000000000520 PRSC           *32       260       298       378       780       882
 41000000 000000000516 PRSS           *32       248       561       771
 40000000 000000000644 PRSTS          *32
 01101000 000000000326 PRVE1          151      *360
 01101000 000000000332 PRVE2          156      *365
 01101000 000000000633 PRVE3          577      *685
 01101000 000000000667 PRVE4          633      *723
 01101000 000000001043 PRVE5          785      *869
 01101000 000000001047 PRVE6          790      *874
 40000000 000000000100 PS             *32
 41000000 000000000000 PS0SID         *30
 41000000 000000000001 PS1SID         *30
 41000000 000000000002 PS2SID         *30
 41000000 000000000003 PS3SID         *30
 41000000 000000000004 PS4SID         *30
 40000000 000000000005 PS5SID         *30
 40000000 000000000006 PS6SID         *30
 40000000 000000303416 PSA            *32
 40000000 000000000020 PSC            *32
 40000000 000000000010 PSD            *32
 41000000 000000000004 PSF            *32       155       789
 40000000 000000000400 PSO            *32
 40000000 000000000720 PTESZ          *32
 40000000 000000000631 PTR            *32
 40000000 000000000724 PTRESZ         *32
 40000000 000000000710 PTRNO          *32
 41000000 000000000630 PWS            *32
 40000000 000000000002 RADDR          *32
 40000000 000000000010 RADIX          *32
 40000000 000000000005 RAPTR          *32
 40000000 000000000004 RAWSOF         *32
 40000000 777777777766 RBA            *32
 40000000 000000023432 RCBI           *32
 40000000 000000211234 RCDNL          *32
 01101000 000000000656 RCER2          608      *710
 41000000 000000000005 RCFRH          *32       459
 40000000 000000000004 RCFRN          *32
 12:43 09/05/97  FILE=ZIM$DBFA.:ZIC0TSI       SYMBOL TABLE                                               56   BMAP - B00
 40000000 000000001075 RCHD           *32
 40000000 000000000001 RCID           *32
 41000000 000000000006 RCPTR          *32       276       321       609       821
 40000000 000000000002 RCRAH          *32
 40000000 000000000001 RCRAN          *32
 41000000 000000000003 RCRSH          *32       573       603       629       677       683       695
                                      701       708       737       778
 40000000 000000000002 RCRSN          *32
 40000000 000000210667 RCVER1         *32
 40000000 000000210670 RCVER2         *32
 40000000 000000210671 RCVER4         *32
 40000000 000000210672 RCVER5         *32
 40000000 000000210673 RCVER6         *32
 40000000 000000000736 RCW1           *32
 40000000 000000000737 RCW2           *32
 41000000 000000000004 RCWSO          *32       148       574       630       782
 40000000 000000000077 RDAC           *32
 40000000 000000000076 RDCNT          *32
 40000000 000000040000 RDI            *32
 40000000 000000015674 RDLT           *32
 40000000 000000000075 RDYCW          *32
 40000000 000000000066 RECAC          *32
 40000000 000000000065 RECFR          *32
 40000000 000000000070 RECRC          *32
 40000000 000000000067 RECSC          *32
 41000000 000000000003 RECSZ          *32       616       619
 40000000 000000000235 REMLT          *32
 40000000 000000000062 REM_RECOVER    *32
 01101000 000000000347 RER1           275      *381
 01101000 000000001060 RER2           820      *885
 40000000 000000000251 RETFR          *32
 40000000 000000210724 RFDNL          *32
 01101000 000000001030 RFND           822       837      *848
 01101000 000000000301 RFND2          277       323      *334
 40000000 000000017644 RIM            *32
 40000000 000000000005 RNAM           *32
 40000000 000000015706 RNDLT          *32
 12:43 09/05/97  FILE=ZIM$DBFA.:ZIC0TSI       SYMBOL TABLE                                               57   BMAP - B00
 01101000 000000001053 RNF1           846      *879
 01101000 000000000342 RNF2           332      *375
 40000000 000000000662 RNG1           *32
 40000000 000000000664 RNG2           *32
 40000000 000000000073 RNGD           *32
 40000000 000000000072 RNGO           *32
 40000000 000000000660 RNGTAL         *32
 40000000 000000020154 RNM            *32
 40000000 000000000041 ROCUR          *32
 40000000 000000000001 ROFST          *32
 40000000 000000002114 ROLL           *32
 40000000 000000020010 RPM            *32
 40000000 000000000001 RSCDH          *32
 41000000 000000000001 RSCDN          *32       218       579
 40000000 000000211710 RSDNL          *32
 41000000 000000004540 RSEE           *32       376
 41000000 000000000003 RSIZ           *32       445       612
 41000000 000000000110 RSPAM          *32       159       205       247
 40000000 000000000004 RSPTR          *32
 41000000 000000000037 RSREQ          *32       540
 40000000 000000000002 RSSSH          *32
 41000000 000000000001 RSSSN          *32       543       768
 41000000 000000210574 RSZER          *32       718
 40000000 000000000632 RSZTP          *32
 41000000 000000000003 RTP            *32       272       605       817
 41000000 000000000003 RTYP           *32       274       607       819
 40000000 000000000530 RV1            *32
 40000000 000000000550 RV2            *32
 40000000 000000000570 RV3            *32
 40000000 000000000610 RV4            *32
 41000000 000000000003 RVASID         *30       121       173       193       254       287       293
                                      315       450
 41000000 000000000510 RVI            *32       168       184       263       265       267       269
                                      303       305       308       325       327       328       596
                                      604       643       658       712       808       810       812
                                      814       830       839       841       842       849       851
 41000000 000000000511 RVO            *32       264       268       271       304       320       326
 12:43 09/05/97  FILE=ZIM$DBFA.:ZIC0TSI       SYMBOL TABLE                                               58   BMAP - B00
                                      809       813       816       840       850
 40000000 000000000513 RVPA           *32
 40000000 000000000512 RVT            *32
 40000000 000000000022 RVTAL          *32
 40000000 000000000002 RWSZ           *32
 40000000 000000000015 RY             *32
 40000000 000000210620 RYE1           *32
 40000000 000000210621 RYE4           *32
 40000000 777777777767 SA             *32
 40000000 000000000005 SANAM          *32
 40000000 000000001062 SCDES          *32
 40000000 000000211544 SCDNL          *32
 40000000 000000000024 SCFC           *32
 40000000 000000000002 SCID           *32
 40000000 000000000024 SCLST          *32
 40000000 000000000004 SCNAM          *32
 40000000 000000000004 SCPTR          *32
 41000000 000000000003 SCRSH          *32       635       652       676       682       694       700
                                      707       736       777
 41000000 000000000002 SCRSN          *32       206
 41000000 000000000001 SCWSO          *32       153       165       181       636       657       787
 40000000 000000001225 SFWS           *32
 40000000 000000001073 SIZCHG         *32
 40000000 000000000645 SKFLG          *32
 40000000 000000000643 SKIND          *32
 40000000 000000000641 SKTYP          *32
 40000000 000000020464 SMCR           *32
 40000000 000000000003 SNAM           *32
 40000000 000000000107 SNIND          *32
 40000000 000000000735 SNPAE          *32
 40000000 000000001046 SNSI           *32
 40000000 000000000743 SOE            *32
 40000000 000000020630 SORSA          *32
 41000000 000000004374 SOSE           *32       711       880
 40000000 000000000000 SPAV           *32
 40000000 000000000744 SPCAVN         *32
 40000000 000000000744 SPCAVO         *32
 12:43 09/05/97  FILE=ZIM$DBFA.:ZIC0TSI       SYMBOL TABLE                                               59   BMAP - B00
 40000000 000000000765 SPLF           *32
 41000000 000000000765 SPND           *32
 40000000 000000000006 SSDT           *32
 41000000 000000303243 SSER           *32       680       692       698
 40000000 000000303244 SSER1          *32
 41000000 000000000002 SSH            *32       572       602       627       651       668       776
 40000000 000000000005 SSNAM          *32
 40000000 000000210573 SSNF           *32
 40000000 000000210576 SSNV           *32
 40000000 000000000020 SSSPTR         *32
 40000000 000000000010 SSVDT          *32
 40000000 000000000033 SSZTP          *32
 40000000 000000000017 ST             *32
 40000000 000000000104 STBIN          *32
 40000000 000000000105 STDEC          *32
 40000000 000000303302 STE1           *32
 40000000 000000303303 STE2           *32
 40000000 000000210624 STE3           *32
 40000000 000000303305 STE4           *32
 40000000 000000303306 STE5           *32
 00101000 000000000353 STER1         *396
 01101000 000000001042 STKMT          858      *864
 41000000 000000000100 STKSIZ         *32
 40000000 000000000055 STMASK         *32
 40000000 000000000062 SUST           *32
 41000000 000000000020 SWS            *32
 40000000 000000000000 SWSAC          *32
 40000000 000000000002 SWSZ           *32
 40000000 000000000000 SYSSF          *32
 01101000 000000000663 SZE4           617       620      *717
 40000000 000000000765 SZREQ          *32
 40000000 000000000004 TBUF           *32
 40000000 000000001061 TCTRS          *32
 60000000 000000000000 TDS            *32
 41000000 000000000113 TEMP           *32
 40000000 000000000640 TFLD           *32
 40000000 000000000657 TFLD2          *32
 12:43 09/05/97  FILE=ZIM$DBFA.:ZIC0TSI       SYMBOL TABLE                                               60   BMAP - B00
 40000000 000000000056 TMASK          *32
 40000000 000000000061 TMODE          *32
 40000000 000000000676 TMPPA          *32
 40000000 000000000003 TPAI           *32
 40000000 000000500000 TPRCOD         *32
 40000000 000000001031 TSFN           *32
 40000000 000000000021 TSI            *32
 40000000 000000001013 UBRD2          *32
 41000000 000000001223 UBSZ           *32
 40000000 000000000667 UCADR          *32
 40000000 000000000036 UCRS           *32
 40000000 000000000024 UFSPK          *32
 40000000 000000000024 UFSPK2         *32
 40000000 000000000715 ULIM           *32
 40000000 000000004230 UNA            *32
 40000000 000000303417 UNIM           *32
 41000000 000000000002 UOFST          *32       591
 40000000 000000001035 UPACD          *32
 40000000 000000000721 UPACW          *32
 01101000 000000000353 UPER1          335      *394
 00101000 000000001064 UPER2         *893
 40000000 000000000007 UPFLAG         *32
 40000000 000000000103 UPPAI          *32
 40000000 000000000004 UPTSID         *30
 40000000 000000000000 USCAF          *36
 01101000 000000000353 USRE2          337      *395
 40000000 000000000674 USTAT          *32
 41000000 000000000002 UWASID         *30       593
 40000000 000000000002 UWSSZ          *32
 40000000 000000000020 UWSZ           *32
 40000000 000000000243 VFDSC          *32
 40000000 000000001070 VFDSR          *32
 40000000 000000000656 VFLD           *32
 40000000 000000001074 VFLNG          *32
 40000000 000000001124 VIB1           *32
 40000000 000000001154 VIBP           *32
 41000000 000000000000 VLPSID         *30       120       172       192       207       240       253
 12:43 09/05/97  FILE=ZIM$DBFA.:ZIC0TSI       SYMBOL TABLE                                               61   BMAP - B00
                                      286       292       314       433       449
 41000000 000000001074 VRSIZ          *32       446
 01101000 000000001066 WKR1           873       878       884       889       894       906      *911
 01101000 000000000707 WLK1          *765       852       860
 01101000 000000000707 WLKSS          566       618       622       656       662      *764
 40000000 000000001067 WLOA           *32
 40000000 000000100000 WRTI           *32
 40000000 000000000000 WSBID          *32
 40000000 000000000003 WSOF           *32
 41000000 000000000000 X0             *30       213       214       224       230       346       353
                                      357       362       367       372       377       383       434
                                      437       438       439       448       453       454       476
                                      482       563       579       675       681       687       693
                                      699       706       713       719       725       730       735
                                      871       876       881       887
 41000000 000000000001 X1             *30       132       133       135       136       140       141
                                      144       145       148       149       150       153       154
                                      155       158       165       170       176       177       178
                                      181       184       188       196       197       198       223
                                      229       249       261       266       290       302       313
                                      323       335       337       443       445       446       456
                                      457       463       546       547       562       565       574
                                      575       576       581       582       587       588       591
                                      592       599       612       616       619       630       631
                                      632       636       646       653       654       655       657
                                      782       783       784       787       788       789       795
                                      796       797       800       801       802       805       806
                                      811       828       835       837       858
 41000000 000000000002 X2             *30       226
 41000000 000000000003 X3             *30       168       215       221       241       271       308
                                      320       328       596       604       643       658       712
                                      816       830       842
 41000000 000000000004 X4             *30       222       227       451       452       462       543
                                      545       561       564       585       601       650       667
                                      767       768       770       771       858       859
 41000000 000000000005 X5             *30       159       205       206       218       247       248
                                      540       572       602       627       651       668       776
 12:43 09/05/97  FILE=ZIM$DBFA.:ZIC0TSI       SYMBOL TABLE                                               62   BMAP - B00
 41000000 000000000006 X6             *30       129       130       174       175       194       195
                                      257       258       260       295       296       298       347
                                      354       363       378       384       477       483       635
                                      652       676       682       688       694       700       707
                                      714       720       726       736       777       780       872
                                      882       888
 03201015 000000000000 X66_ARET       *30       339       470       865
 03201014 000000000000 X66_AUTO_0     *30        74       116       432       530
 41000000 000000000007 X7             *30       127       128       255       256       259       270
                                      276       288       289       294       297       318       319
                                      321       348       358       368       373       379       459
                                      478       573       603       609       629       677       683
                                      695       701       708       731       737       778       779
                                      815       821       877       883
 40000000 000000210665 XASL           *32
 40000000 000000303420 XLD            *32
 40000000 000000303421 XPD            *32
 40000000 000000000676 XPRS           *32
 40000000 000000210666 XROLL          *32
 40000000 000000210664 XUNEX          *32
 40000000 777777777777 XXDPN          *32
 03201016 000000000000 ZIB$DBALT     *410      *492      *755      *912
 13101000 000000000437 ZIG$DBAF        12       188      *529
 03201000 000000000000 ZIG$DBAFE      *15       261       806
 03201001 000000000000 ZIG$DBAKU      *16       249       805
 03201002 000000000000 ZIG$DBCMP      *17       323
 12101000 000000000000 ZIG$DBFKC       11       *73
 12101000 000000000004 ZIG$DBFKY       13      *115
 03201004 000000000000 ZIG$DBGRS      *19       158
 01101000 000000000356 ZIG$DBMVK      290      *431
 02201005 000000000000 ZIG$DBPCF      *20
 03201006 000000000000 ZIG$DBPCK      *21       837
 03201007 000000000000 ZIG$DBPFD      *22       170       266       599       646       811
 03201008 000000000000 ZIG$DBPFN      *23       313       835
 03201009 000000000000 ZIG$DBPFO      *24       302
 03201010 000000000000 ZIG$DBPMK      *25       463
 03201011 000000000000 ZIG$DBPMS      *26       562       828
 12:43 09/05/97  FILE=ZIM$DBFA.:ZIC0TSI       SYMBOL TABLE                                               63   BMAP - B00
 03201012 000000000000 ZIG$DBUPC      *27       335
 03201013 000000000000 ZIG$DBUSR      *28       337
 03201003 000000000000 ZIQ$DBFCH      *18       565

    1025 SYMBOLS

 12:43 09/05/97  FILE=ZIM$DBFA.:ZIC0TSI       MACRO TABLE                                                64   BMAP - B00
 CBSYM           32
 DBALT          410       492       755       912
 DBCAL          158       170       188       249       261       266       290       302       313
                323       335       337       463       562       565       599       646       805
                806       811       828       835       837
 DBRET          339       470       865
 DBSAV           74       116       432       530
 ICCAL          323       335       565
 POPSS          858
 PSHSS          667
 Q2SYM           32
 SSSYM           32

      37 MACROS

    SYMBOL SPACE USED 11427 WORDS
     MACRO SPACE USED 13057 WORDS
   INPUT RECORDS READ  3628
 STATEMENTS PROCESSED  3094
         ELAPSED TIME  0:16.56
             CPU TIME    15.91 SEC.
        ASSEMBLY RATE 11668 STATEMENTS/CPU MIN.

      NO ERRORS

