
 12:43 09/05/97  FILE=ZIM$DBFC.:ZIC0TSI                                                                  1    BMAP - B00
                                         1  *M*      ZIG$DBFC
                                         2  *T***********************************************************
                                         3  *T*                                                         *
                                         4  *T* Copyright (c) Bull HN Information Systems Inc., 1997    *
                                         5  *T*                                                         *
                                         6  *T***********************************************************

 12:43 09/05/97  FILE=ZIM$DBFC.:ZIC0TSI       H6600H2.514     IDS/II FIND CALC               780113DBFC  2    BMAP - B00
                                         7         TTL     H6600H2.514     IDS/II FIND CALC               780113DBFC
                                         8         CPR     1974
                                         9         PMC     OFF
                                        10  *
                                        11         ENTDEF  ZIG$DBFDC
                                        12         ENTDEF  ZIQ$DBFCH
                                        13         ENTDEF  ZIG$DBGRS
                                        14  *
                                        15         ENTREF  ZIQ$DBCLC
                                        16         ENTREF  ZIG$DBPCK
                                        17         ENTREF  ZIG$DBPFD
                                        18         ENTREF  ZIG$DBPMS
                                        19         ENTREF  ZIG$DBPNC
                                        20         ENTREF  ZIG$DBUPC            Updates Currencies
                                        21         ENTREF  ZIG$DBUSR
                                        22  *
                                        23         LODM    Q2MA
                                        24  *
                                        25         Q2SYM
                                        26  *

 12:43 09/05/97  FILE=ZIM$DBFC.:ZIC0TSI       FIND CALC RECORD ROUTINE                                   3    BMAP - B00
                                        27         TTLS    FIND CALC RECORD ROUTINE
                                        28  ****************************************************************
                                        29  *
                                        30  *  - DBFDC -
                                        31  *
                                        32  *      FIND.  Find a calc record.  Locate a record using
                                        33  *      the calc keys defined in the schema subset.
                                        34  *
                                        35  *      Parameter   Description
                                        36  *      ---------   -----------
                                        37  *
                                        38  *          0       IA
                                        39  *          1       UWA
                                        40  *          2       FPT
                                        41  *
                                        42  *      FPT Format...
                                        43  *
                                        44  *      Word 0:  RVA offset to a schema subset element which
                                        45  *          describes a data base record whose location mode
                                        46  *          is calc.
                                        47  *      Word 1:  Retention List Control Word
                                        48  *      Words 2->M:  Retention List.  RVA offsets to the
                                        49  *          schema subset elements which describe the sets
                                        50  *          for which currencies are to be retained.
                                        51  *
                                        52  ****************************************************************
                                        53  *
 0 000000                               54  ZIG$DBFDC NULL
   000000  X 000000 7000 00             55           DBSAV
   000001    000004 000000
                                        56  *  GET RC PTR
   000002    000000 4704 07             57         LDP    PR0,VLPSID,DL            VLP$
   000003    000002 2350 03             58           LDA      2,DU                 Retention list
   000004    0 00001 2751 00            59           ORA      1,,PR0               RLCW
   000005    5 00025 7551 00            60           STA      GRLCW,,PR5           Save it
   000006    000003 4714 07             61           LDP      PR1,RVASID,DL           RVA$
   000007    0 00000 2271 00            62         LDX     X7,0,,PR0            Get offset to RC pointer from FPT
 12:43 09/05/97  FILE=ZIM$DBFC.:ZIC0TSI       FIND CALC RECORD ROUTINE                                   4    BMAP - B00
   000010    1 00000 2271 17            63           LDX      X7,,X7,PR1           Get RC offset from RVA
                                        64         IFE     A,1,%CK1
   000011    6 00000 2211 17            65         LDX     X1,DEF,X7,PR6   GET DEF TYPE
   000012    100000 3010 03             66         CANX    X1,.RC,DU       IS IT AN RC
   000013 (0)000105 6000 00             67         TZE     CLER1           NO
                                        68  CK1    MARK
                                        69  *  CHECK THAT REC IS IN SUB-SCHEMA
   000014    6 00000 7211 17            70         LXL     X1,DEF,X7,PR6
   000015    100000 3010 03             71         CANX    X1,.SR,DU       IS IT IN SS
   000016    000074 6010 04             72         TNZ     FCE1,$          NO - ERROR
                                        73  *  CHECK REC PRIVACY
   000017    6 00004 2211 17            74         LDX     X1,RCWSO,X7,PR6  GET WORK SPACE OFST
   000020    7 00000 2211 11            75         LDX     X1,PRIV,X1,PR7
   000021    000004 3010 03             76         CANX    X1,PF,DU        IS PRIVACY SATISFIED
   000022 (0)000116 6000 00             77         TZE     PRVE1           NO
                                        78  *  FIND RS FOR RECORD IN CALC SET
   000023    6 00004 2261 00            79         LDX     X6,CLCSC+OAOFST,,PR6  GET SC FOR CALC SET
   000024 (0)000203 7010 00             80         DBCAL   ZIG$DBGRS,,RNIC
   000025 (0)000130 7020 00
   000026    5 00006 2341 00
   000027    777776 6010 04
                                        81  *  GET SS FOR CALC KEYS
   000030    6 00001 7241 15            82         LXL     X4,RSSSN,X5,PR6  GET SS PTR
   000031    7 00516 7441 00            83         STX     X4,PRSS,,PR7    PUT IN PRIM. REQ.
                                        84  *  MOVE CALC KEYS TO TEMP REC BUF
   000032  X 000000 7010 00             85         DBCAL   ZIG$DBPMS,,MSER1 MOVE KEYS
   000033 (0)000130 7020 00
   000034    5 00006 2341 00
   000035    777776 6010 04
                                        86  *  FIND CALC HEADER RECORD
   000036    000000 6200 00             87         EAX     X0,0            ZERO X0 SO THAT .DBMAS WILL BE CALLED
   000037    7 00516 2241 00            88         LDX     X4,PRSS,,PR7    GET SS
   000040 (0)000133 7010 00             89           ICCAL    ZIQ$DBFCH,,CRER2
   000041 (0)000130 7020 00
   000042    5 00006 2341 00
   000043    777776 6010 04
                                        90  *
 12:43 09/05/97  FILE=ZIM$DBFC.:ZIC0TSI       FIND CALC RECORD ROUTINE                                   5    BMAP - B00
                                        91  *  SEARCH CALC SET FOR REC
                                        92  *
   000044    000000 4704 07             93         LDP    PR0,VLPSID,DL            VLP$
   000045    000003 4714 07             94           LDP      PR1,RVASID,DL           RVA$
   000046    0 00000 2271 00            95         LDX     X7,0,,PR0            Get offset to RC pointer from FPT
   000047    1 00000 2271 17            96           LDX      X7,,X7,PR1           Get RC offset from RVA
   000050    7 00517 7471 00            97         STX     X7,PRRC,,PR7    PUT RC DEF IN PRIM REQ
   000051                               98  CL2    NULL
   000051  X 000000 7010 00             99         DBCAL   ZIG$DBPNC,CHFND,CNER1     FIND NEXT OF CALC SET
   000052 (0)000131 7020 00
   000053    5 00006 2341 00
   000054    000003 6000 04
   000055    5 00006 4501 00
   000056 (0)000122 7020 00
   000057  X 000000 7010 00            100         DBCAL   ZIG$DBPCK,RFND,CRER1
   000060 (0)000130 7020 00
   000061    5 00006 2341 00
   000062    000003 6000 04
   000063    5 00006 4501 00
   000064 (0)000071 7020 00
   000065    7 00510 2371 00           101         LDAQ    RVI,,PR7        * REVERSE
   000066    7 00511 7551 00           102         STA     RVO,,PR7        *  IN &
   000067    7 00510 7561 00           103         STQ     RVI,,PR7        &   OUT REC VAR
   000070 (0)000051 7100 00            104         TRA     CL2             GO CHECK NEXT
                                       105  *  RECORD FOUND
   000071                              106  RFND   NULL
   000071    7 00511 2221 00           107         LDX     X2,RVO,,PR7
   000072    7 00517 2271 00           108         LDX     X7,PRRC,,PR7    GET RC
   000073    7 00006 7471 12           109         STX     X7,RCPTR,X2,PR7  PUT IN OUT REC VAR
                                       110  *  UPDATE CURRENCIES
   000074  X 000000 7010 00            111           ICCAL    ZIG$DBUPC,,UCER1     Update currencies
   000075 (0)000130 7020 00
   000076    5 00006 2341 00
   000077    777776 6010 04
                                       112  *  MOVE NAMES TO SPECIAL REGS.
   000100  X 000000 7010 00            113         DBCAL   ZIG$DBUSR,,USRE3
   000101 (0)000130 7020 00
 12:43 09/05/97  FILE=ZIM$DBFC.:ZIC0TSI       FIND CALC RECORD ROUTINE                                   6    BMAP - B00
   000102    5 00006 2341 00
   000103    777776 6010 04
                                       114  *  RETURN
   000104  X 000000 7020 00            115           DBRET
                                       116  *
                                       117  *  ERRORS DETECTED IN THIS ROUTINE
                                       118  *
                                       119         IFE     A,1,%CK1
   000105                              120  CLER1  NULL                    CALL ERROR - NOT AN RC DEF
   000105    210562 2350 07            121         LDA     ARGER,DL
   000106    000000 6200 00            122         EAX     X0,0            NULL AC
   000107    000000 6260 00            123         EAX     X6,0            NULL SC
   000110    000000 6270 00            124         EAX     X7,0            NULL RC
   000111 (0)000132 7100 00            125         TRA     FCR1
                                       126  CK1    MARK
   000112                              127  FCE1   NULL                    REC NOT IN SUB-SCHEMA
   000112    010150 2350 07            128         LDA     IRSN,DL
   000113    000000 6200 00            129         EAX     X0,0            NULL AC
   000114    000000 6260 00            130         EAX     X6,0            NULL SC
   000115    000015 7100 04            131         TRA     FCR1,$
   000116                              132  PRVE1  NULL                    REC PRIVACY NOT SATISFIED
   000116    257764 2350 07            133         LDA     LR,DL
   000117    000000 6200 00            134         EAX     X0,0            NULL AC
   000120    000000 6260 00            135         EAX     X6,0            NULL SC
   000121 (0)000132 7100 00            136         TRA     FCR1
   000122                              137  CHFND  NULL                    END OF SET - REC NOT FOUND
   000122    004540 2350 07            138         LDA     RSEE,DL
   000123    7 00510 2231 00           139         LDX     X3,RVI,,PR7
   000124    7 00005 2201 13           140         LDX     X0,ACPTR,X3,PR7  GET AC
   000125    000000 6260 00            141         EAX     X6,0            NULL SC
   000126    7 00517 2271 00           142         LDX     X7,PRRC,,PR7    GET RC
   000127 (0)000132 7100 00            143         TRA     FCR1
                                       144  *
                                       145  *  ERRORS DETECTED IN SUBORDINATE ROUTINES
                                       146  *
   000130                              147  RNIC   NULL                    REC REQUESTED NOT IN CALC SET
   000130                              148  MSER1  NULL                    ERROR MOVING CALC KEYS TO REC BUF
 12:43 09/05/97  FILE=ZIM$DBFC.:ZIC0TSI       FIND CALC RECORD ROUTINE                                   7    BMAP - B00
   000130                              149  CRER2  NULL                    ERROR IN FINDING CALC RECORD
   000130                              150  CRER1  NULL                    ERROR IN COMPARING UWA FIELDS TO BUF
   000130                              151  UCER1  NULL                    ERROR UPDATING CURRENCY
   000130                              152  USRE3  NULL                    ERROR UPDATING SPEC. REGS.
   000130                              153  STER1  NULL                    ERROR ACCUMULATING STATISTICS
   000130 (0)000132 7100 00            154         TRA     FCR1
                                       155  *
                                       156  *  ERRORS DETECTED IN PRIMITIVES
                                       157  *
   000131                              158  CNER1  NULL                    ERROR IN FIND NEXT OF CALC SET
   000131 (0)000132 7100 00            159         TRA     FCR1
                                       160  *
                                       161  *  COMMON ERROR RETURN
                                       162  *
   000132  X 000000 7020 00            163  FCR1     DBALT

 12:43 09/05/97  FILE=ZIM$DBFC.:ZIC0TSI       FIND CALC HEADER RECORD                                    8    BMAP - B00
                                       164         TTLS    FIND CALC HEADER RECORD
                                       165  *
                                       166  ****************************************************************
                                       167  *
                                       168  *  - DBFCH -
                                       169  *
                                       170  *      Find calc header record.
                                       171  *
                                       172  *      Calling
                                       173  *
                                       174  *              ICCAL    ZIQ$DBFCH,,altret
                                       175  *
                                       176  *      Considerations
                                       177  *
                                       178  *              Note that no exception return is possible
                                       179  *              from this subroutine.
                                       180  *
                                       181  *      Input
                                       182  *
                                       183  *              X4 - SS pointer
                                       184  *              X0 - AC pointer or zero
                                       185  *                   If non-zero, the value will be used
                                       186  *                      as the AC pointer
                                       187  *                   If zero, ZIG$DBMAS will be called to
                                       188  *                      select an area.
                                       189  *              Calc keys must be in the record buffer.
                                       190  *
                                       191  *      Output
                                       192  *
                                       193  *              X4 - RA pointer for the record that was calced.
                                       194  *              Rec Var In
                                       195  *                 - DBK of Calc Header Record
                                       196  *                 - Buffer pointer
                                       197  *                 - Calc Header Record pointer
                                       198  *                 - AC pointer
                                       199  *
                                       200  ****************************************************************
 12:43 09/05/97  FILE=ZIM$DBFC.:ZIC0TSI       FIND CALC HEADER RECORD                                    9    BMAP - B00
                                       201  *
   000133                              202  ZIQ$DBFCH NULL
   000133    7 00470 7411 56           203         ICSAV
                                       204  *  FIND CALC HEADER RECORD
   000134  X 000000 7010 00            205         ICCAL   ZIQ$DBCLC,,HSER
   000135 (0)000202 7020 00
   000136    5 00006 2341 00
   000137    777776 6010 04
   000140    7 00112 7441 00           206         STX     X4,CRA,,PR7     SAVE RA TO RETURN
   000141    7 00510 2231 00           207         LDX     X3,RVI,,PR7     SET X3 TO REC VAR IN
   000142    7 00000 7561 13           208         STQ     DBKEY,X3,PR7    SAVE DBK
   000143  X 000000 7010 00            209           DBCAL    ZIG$DBPFD,,PGER1
   000144 (0)000202 7020 00
   000145    5 00006 2341 00
   000146    777776 6010 04
   000147    7 00510 2231 00           210         LDX     X3,RVI,,PR7
                                       211  *  CHECK RECORD TYPE
                                       212         IFE     D,1,%CK4
   000150    7 00003 2351 13           213         LDA     RTP,X3,PR7      GET TYPE
   000151    7 00056 3751 00           214         ANA     TMASK,,PR7      ISOLATE
   000152    007640 1150 07            215         CMPA    CHRTP,DL        IS IT A CALC HDR REC
   000153 (0)000171 6010 00            216         TNZ     CHER2           NO
                                       217  CK4    MARK
                                       218  *  CHECK RECORD SIZE
                                       219         IFE     E,1,%CK5
   000154    6 00004 7271 00           220         LXL     X7,CLCRC+OAOFST,,PR6  GET RC FOR CALC HDR
   000155    6 00003 2211 17           221         LDX     X1,RSIZ,X7,PR6  GET REC SIZE FROM RC
   000156    6 00000 2351 17           222         LDA     DEF,X7,PR6      RC DEFINITION                            <EHW>
   000157    040000 3750 07            223         ANA     .FVR,DL         IS RECORD VARIABLE SIZE                  <EHW>
   000160 (0)000164 6000 00            224         TZE     *+4             NO                                       <EHW>
   000161    7 00003 1011 13           225         CMPX    X1,RECSZ,X3,PR7  YES - IS SIZE > OR = TO SIZE IN REC      <EHW>
   000162 (0)000176 6020 00            226         TNC     SZE5            NO - ERROR                               <EHW>
   000163 (0)000166 7100 00            227         TRA     *+3             YES - OK                                 <EHW>
   000164    7 00003 1011 13           228         CMPX    X1,RECSZ,X3,PR7  IS IT EQUAL TO SIZE FROM REC
   000165 (0)000176 6010 00            229         TNZ     SZE5            NO - ERROR
                                       230  CK5    MARK
   000166    7 00112 2241 00           231         LDX     X4,CRA,,PR7     GET RA FROM .DBCLC
 12:43 09/05/97  FILE=ZIM$DBFC.:ZIC0TSI       FIND CALC HEADER RECORD                                    10   BMAP - B00
   000167    7 00470 2211 54           232         ICRET
   000170    000001 7100 11
                                       233  *
                                       234  *  ERRORS DETECTED IN THIS ROUTINE
                                       235  *
                                       236         IFE     D,1,%CK4
   000171                              237  CHER2  NULL                    CALC HDR REC NOT CORRECT TYPE
   000171    303321 2350 07            238         LDA     FDE3,DL
   000172    7 00005 2201 13           239         LDX     X0,ACPTR,X3,PR7  GET AC
   000173    6 00004 2261 00           240         LDX     X6,OAOFST+CLCSC,,PR6  GET SC
   000174    6 00004 7271 00           241         LXL     X7,OAOFST+CLCSC,,PR6  GET RC
   000175 (0)000202 7100 00            242         TRA     FHR1
                                       243  CK4    MARK
                                       244         IFE     E,1,%CK5
   000176                              245  SZE5   NULL                    RECORD SIZE ERROR
   000176    210574 2350 07            246         LDA     RSZER,DL
   000177    7 00005 2201 13           247         LDX     X0,ACPTR,X3,PR7  GET AC
   000200    000000 6260 00            248         EAX     X6,0            NULL SC
   000201    000001 7100 04            249         TRA     FHR1,$
                                       250  CK5    MARK
                                       251  *
                                       252  *  ERRORS DETECTED IN SUBORDINATE ROUTINES
                                       253  *
   000202                              254  HSER   NULL                    ERROR IN HASHING
                                       255  *
                                       256  *  ERRORS DETECTED IN PRIMITIVES
                                       257  *
   000202                              258  PGER1  NULL                    ERROR IN FINDING CALC HEADER RECORD
                                       259  *
                                       260  *  COMMON ERROR RETURN
                                       261  *
   000202                              262  FHR1   NULL
   000202  X 000000 7020 00            263           ICALT

 12:43 09/05/97  FILE=ZIM$DBFC.:ZIC0TSI       FIND RS FROM RC & SC                                       11   BMAP - B00
                                       264         TTLS    FIND RS FROM RC & SC
                                       265  *
                                       266  ****************************************************************
                                       267  *
                                       268  *  - DBGRS -
                                       269  *
                                       270  *      Find RS from RC and SC.
                                       271  *
                                       272  *      Calling
                                       273  *
                                       274  *              DBCAL    ZIG$DBGRS,,altret
                                       275  *
                                       276  *      Considerations
                                       277  *
                                       278  *              Note that no exception return is possible
                                       279  *              from this subroutine.
                                       280  *
                                       281  *      Input
                                       282  *
                                       283  *              X6 - SC pointer
                                       284  *              X7 - RC pointer
                                       285  *
                                       286  *      Output
                                       287  *
                                       288  *              X5 - RS pointer
                                       289  *
                                       290  ****************************************************************
                                       291  *
   000203                              292  ZIG$DBGRS NULL
   000203  X 000000 7000 00            293         DBSAV                   SAVE RETURN
   000204    000004 000000
   000205    000000 6250 16            294         EAX     X5,,X6          INIT X5
   000206                              295  LOOP1  NULL
   000206    6 00002 2251 15           296         LDX     X5,SCRSN,X5,PR6  GET NEXT RS DEF.
   000207 (0)000213 6000 00            297         TZE     RSNF1           NO
   000210    6 00003 1071 15           298         CMPX    X7,RCRSH,X5,PR6  IS THIS THE ONE
   000211 (0)000206 6010 00            299         TNZ     LOOP1           NO
 12:43 09/05/97  FILE=ZIM$DBFC.:ZIC0TSI       FIND RS FROM RC & SC                                       12   BMAP - B00
                                       300  *  RS FOUND
   000212  X 000000 7020 00            301         DBRET                   NORMAL RETURN
                                       302  *
                                       303  *  ERRORS DETECTED IN THIS ROUTINE
                                       304  *
   000213                              305  RSNF1  NULL                    RS NOT FOUND
   000213    210642 2350 07            306         LDA     FDE4,DL
   000214    000000 6200 00            307         EAX     X0,0            NULL AC PTR
   000215  X 000000 7020 00            308           DBALT
                                       309         END

  CONTROL SECTION TABLE

   0 CODE   EVEN  000216
   1 RODATA EVEN  000000 LITERALS

 12:43 09/05/97  FILE=ZIM$DBFC.:ZIC0TSI       SYMBOL TABLE                                               13   BMAP - B00
 40000000 000000200000 .AC            *25
 40000000 000000000100 .AG            *25
 40000000 000000002000 .ALTO          *25
 40000000 000000000077 .ANL           *25
 40000000 000000200000 .APDN          *25
 40000000 000000000100 .ATMP          *25
 40000000 000000400000 .AV            *25
 40000000 000000400000 .B0            *25
 40000000 000000200000 .B1            *25
 40000000 000000000200 .B10           *25
 40000000 000000000100 .B11           *25
 40000000 000000000040 .B12           *25
 40000000 000000000020 .B13           *25
 40000000 000000000010 .B14           *25
 40000000 000000000004 .B15           *25
 40000000 000000000002 .B16           *25
 40000000 000000000001 .B17           *25
 40000000 000000400000 .B18           *25
 40000000 000000200000 .B19           *25
 40000000 000000100000 .B2            *25
 40000000 000000100000 .B20           *25
 40000000 000000040000 .B21           *25
 40000000 000000020000 .B22           *25
 40000000 000000010000 .B23           *25
 40000000 000000004000 .B24           *25
 40000000 000000002000 .B25           *25
 40000000 000000001000 .B26           *25
 40000000 000000000400 .B27           *25
 40000000 000000000200 .B28           *25
 40000000 000000000100 .B29           *25
 40000000 000000040000 .B3            *25
 40000000 000000000040 .B30           *25
 40000000 000000000020 .B31           *25
 40000000 000000000010 .B32           *25
 40000000 000000000004 .B33           *25
 40000000 000000000002 .B34           *25
 40000000 000000000001 .B35           *25
 12:43 09/05/97  FILE=ZIM$DBFC.:ZIC0TSI       SYMBOL TABLE                                               14   BMAP - B00
 40000000 000000020000 .B4            *25
 40000000 000000010000 .B5            *25
 40000000 000000004000 .B6            *25
 40000000 000000002000 .B7            *25
 40000000 000000001000 .B8            *25
 40000000 000000000400 .B9            *25
 40000000 000000000001 .BREAK         *25
 40000000 000000010000 .BRK           *25
 40000000 000000020000 .BTB           *25
 40000000 000000000001 .CAC           *25
 40000000 000000000000 .CAE           *25
 40000000 000000000200 .CANSSS        *25
 40000000 000000000400 .CD            *25
 40000000 000000040000 .CFLC          *25
 40000000 000000400000 .CHKSUM        *25
 40000000 000000100000 .CJRNL         *25
 40000000 000000000077 .CNSZ          *25
 40000000 000000160000 .COMC          *25
 40000000 000000000020 .CONT          *25
 40000000 000000000000 .CSE           *25
 40000000 000000700000 .CTYP          *25
 41000000 000000000270 .DBEST         *25
 41000000 000000000470 .DBIC          *25       203       232
 40000000 000000077777 .DBPT          *25
 41000000 000000000370 .DBSTK         *25
 40000000 000000020000 .DELM          *25
 40000000 000000002000 .DIDP          *25
 40000000 000000000077 .DNDX          *25
 40000000 000000600000 .DORD          *25
 40000000 000000000200 .DP            *25
 40000000 000000100000 .DPS           *25
 40000000 000000200000 .DPSA          *25
 40000000 000000400000 .DPST          *25
 40000000 000000000002 .DUMP          *25
 40000000 000000002000 .DUPC          *25
 40000000 000000010000 .DUPP          *25
 40000000 000000200000 .EBCL          *25
 12:43 09/05/97  FILE=ZIM$DBFC.:ZIC0TSI       SYMBOL TABLE                                               15   BMAP - B00
 40000000 000000400000 .EBCM          *25
 40000000 000000200000 .ENCRP         *25
 40000000 000000000077 .ENDX          *25
 40000000 000000000400 .ENQ           *25
 40000000 000000004000 .ETC           *25
 40000000 000000000400 .EXIT          *25
 40000000 000000000200 .FMOD          *25
 40000000 000000000077 .FNL           *25
 40000000 000000000074 .FORG          *25
 40000000 000000002000 .FR            *25
 40000000 000000000100 .FSR           *25
 40000000 000000003400 .FUSE          *25
 40000000 000000010000 .FVF           *25
 41000000 000000040000 .FVR           *25       223
 40000000 000000000010 .INDEXED       *25
 40000000 000000777777 .IXID          *25
 40000000 000000001777 .IXNUM         *25
 40000000 000000000004 .KEYED         *25
 40000000 000000010000 .LCK           *25
 40000000 000000400000 .LEIL          *25
 40000000 000000001000 .LG            *25
 40000000 000000000002 .LOAD          *25
 40000000 000000020000 .MAR           *25
 40000000 000000000007 .MEMT          *25
 40000000 000000010000 .MRL           *25
 40000000 000000040000 .MSM           *25
 60000000 000000000001 .N6685         *25
 40000000 000000100000 .NAI           *25
 40000000 000000200000 .NBI           *25
 40000000 000000000002 .NCIA          *25
 40000000 000000040000 .NMV           *25
 40000000 000000017777 .NOENT         *25
 40000000 000000400000 .OA            *25
 40000000 000000740000 .OPEV          *25
 40000000 000000100000 .OSM           *25
 40000000 000000100000 .PAFIL         *25
 40000000 000000200000 .PAHVR         *25
 12:43 09/05/97  FILE=ZIM$DBFC.:ZIC0TSI       SYMBOL TABLE                                               16   BMAP - B00
 40000000 000000000001 .PAIA          *25
 40000000 000000040000 .PALIL         *25
 40000000 000000020000 .PALVR         *25
 40000000 000000400000 .PANLL         *25
 40000000 000000400000 .PCKD          *25
 40000000 000000001600 .PMOD          *25
 40000000 000000000520 .PRCSE         *25
 40000000 000000000007 .PSTO          *25
 40000000 000000006040 .PTAS          *25
 40000000 000000010100 .PTCHK         *25
 40000000 000000010200 .PTDEC         *25
 40000000 000000010140 .PTENC         *25
 40000000 000000020000 .RA            *25
 41000000 000000100000 .RC            *25        66
 40000000 000000400000 .RELEASE       *25
 40000000 000000000017 .RELT          *25
 40000000 000000004000 .RERA          *25
 40000000 000000400000 .RERS          *25
 40000000 000000010000 .RKEY          *25
 40000000 000000000077 .RNL           *25
 40000000 000000200000 .RSTO          *25
 40000000 000000007777 .RTYP          *25
 40000000 000000040000 .SC            *25
 40000000 000000000070 .SETM          *25
 40000000 000000740000 .SETO          *25
 40000000 000000000700 .SETT          *25
 40000000 000000040000 .SFNP          *25
 40000000 000000004000 .SM            *25
 40000000 000000020000 .SMOD          *25
 40000000 000000000077 .SNL           *25
 40000000 000000020000 .SNSS          *25
 40000000 000000010000 .SO            *25
 41000000 000000100000 .SR            *25        71
 40000000 000000004000 .SRCR          *25
 40000000 000000001000 .SS            *25
 40000000 000000000007 .SSTP          *25
 40000000 000000004000 .SYN           *25
 12:43 09/05/97  FILE=ZIM$DBFC.:ZIC0TSI       SYMBOL TABLE                                               17   BMAP - B00
 40000000 000000000040 .SYNC          *25
 40000000 000000020000 .TJRNL         *25
 40000000 000000040000 .TMPLT         *25
 40000000 000000040000 .TRACE         *25
 40000000 000000000001 .TRENTRY       *25
 40000000 000000000012 .TRIDEL        *25
 40000000 000000000021 .TRIDELENQ     *25
 40000000 000000000024 .TRIDEQ        *25
 40000000 000000000013 .TRIMOD        *25
 40000000 000000000022 .TRIMODENQ     *25
 40000000 000000000014 .TRIREAD       *25
 40000000 000000000023 .TRIREADENQ    *25
 40000000 000000000011 .TRISTO        *25
 40000000 000000000020 .TRISTOENQ     *25
 40000000 000000000017 .TRPDEQ        *25
 40000000 000000000004 .TRPMOD        *25
 40000000 000000000016 .TRPMODENQ     *25
 40000000 000000000002 .TRPREAD       *25
 40000000 000000000015 .TRPREADENQ    *25
 40000000 000000000003 .TRPWRITE      *25
 40000000 000000000010 .TRRACC        *25
 40000000 000000000006 .TRRDEL        *25
 40000000 000000000007 .TRRMOD        *25
 40000000 000000000005 .TRRSTO        *25
 40000000 000000004000 .ULCK          *25
 40000000 000000400000 .UPDT          *25
 40000000 000000000040 .VIA           *25
 61000000 000000000001 A              *25        64       119
 40000000 000000000002 ABAS           *25
 40000000 000000000001 AC             *25
 40000000 777777777760 ACDEF          *25
 40000000 000000211070 ACDNL          *25
 40000000 000000000003 ACID           *25
 40000000 000000001016 ACOPN          *25
 40000000 000000000002 ACP            *25
 41000000 000000000005 ACPTR          *25       140       239       247
 40000000 000000000002 ACRAH          *25
 12:43 09/05/97  FILE=ZIM$DBFC.:ZIC0TSI       SYMBOL TABLE                                               18   BMAP - B00
 40000000 000000000001 ACRAN          *25
 40000000 000000001003 ACREC          *25
 40000000 000000000001 ACTDBCB        *25
 40000000 000000000002 ACTDBNO        *25
 40000000 000000001017 ACTP           *25
 40000000 000000000000 ACTSSS         *25
 40000000 000000000000 ACTSZ          *25
 40000000 000000210565 AFNP           *25
 40000000 000000000635 AFT            *25
 40000000 000000022124 AIR            *25
 40000000 000000000016 AMAX           *25
 40000000 000000000026 ANAM           *25
 40000000 000000021614 ANR            *25
 40000000 000000000001 APNO           *25
 41000000 000000210562 ARGER          *25       121
 41000000 000000000020 ARGS           *25
 40000000 000000000077 ARGS2          *25
 40000000 000000210713 ARNAF          *25
 40000000 000000000003 ATBL           *25
 40000000 000000000000 ATRIB          *25
 40000000 000000000002 AVLN           *25
 40000000 000000000013 AWS$           *25
 40000000 000000000010 AWSZ           *25
 60000000 000000000001 B              *25
 40000000 000000001006 B32N           *25
 40000000 000000001007 B36N           *25
 40000000 000000001056 B72N           *25
 40000000 000000000001 BADDR          *25
 40000000 000000210712 BADSEED        *25
 40000000 777777777765 BDCW           *25
 40000000 000000000633 BEF            *25
 40000000 000000020000 BEFW           *25
 40000000 000000000751 BEMT           *25
 40000000 777777777761 BID            *25
 40000000 777777777762 BIND           *25
 40000000 000000000007 BLKD           *25
 40000000 000000303331 BME02          *25
 12:43 09/05/97  FILE=ZIM$DBFC.:ZIC0TSI       SYMBOL TABLE                                               19   BMAP - B00
 41000000 000000001203 BMPB           *25
 40000000 000000000652 BN1            *25
 40000000 000000000654 BN2            *25
 40000000 000000000004 BPL            *25
 40000000 000000000015 BPLDBK         *25
 40000000 000000000034 BSPG           *25
 40000000 777777777763 BSTAT          *25
 40000000 000000000750 BTX0           *25
 41000000 000000001160 BUF4           *25
 41000000 000000001170 BUF6           *25
 41000000 000000000000 BUFORG         *25
 40000000 000000001060 BUFRQ          *25
 40000000 000000000006 BURRID         *25
 41000000 000000000020 BWASZ          *25
 60000000 000000000001 C              *25
 40000000 000000000050 CAAC           *25
 40000000 000000000050 CACD           *25
 40000000 000000000111 CAG            *25
 40000000 000000001033 CAL            *25
 40000000 000000000026 CALLPM0        *25
 40000000 000000000003 CANSSS         *25
 40000000 000000000003 CBCPA          *25
 40000000 000000000002 CBCPO          *25
 40000000 000000000002 CBENO          *25
 40000000 000000000014 CBFSZ          *25
 40000000 000000000753 CBIB           *25
 40000000 000000001030 CBID           *25
 40000000 000000000014 CBRCE          *25
 40000000 000000000014 CBRCP          *25
 40000000 000000001033 CBRID          *25
 40000000 000000000015 CBRPA          *25
 40000000 000000000031 CCHAR          *25
 40000000 000000000040 CDBK           *25
 40000000 000000000030 CDES           *25
 40000000 000000000110 CDP            *25
 40000000 000000001044 CDPSI          *25
 40000000 000000000002 CDRH           *25
 12:43 09/05/97  FILE=ZIM$DBFC.:ZIC0TSI       SYMBOL TABLE                                               20   BMAP - B00
 40000000 000000000003 CDRN           *25
 40000000 000000000002 CDSH           *25
 40000000 000000000003 CDSN           *25
 40000000 000000000722 CENTRN         *25
 40000000 000000000722 CENTRO         *25
 40000000 000000000716 CENTRY         *25
 41000000 000000001053 CFCT           *25
 40000000 000000000670 CFLPT1         *25
 40000000 000000000672 CFLPT2         *25
 40000000 000000000015 CFSA           *25
 40000000 000000000646 CHDBK          *25
 01101000 000000000171 CHER2          216      *237
 01101000 000000000122 CHFND           99      *137
 40000000 000000000773 CHR            *25
 40000000 000000000006 CHRD           *25
 40000000 000000000772 CHRO           *25
 41000000 000000007640 CHRTP          *25       215
 40000000 000000001043 CIAC           *25
 40000000 000000000012 CIAWS          *25
 40000000 000000001051 CIBSI          *25
 40000000 000000000516 CIND           *25
 40000000 000000001041 CINVSZ         *25
 40000000 000000001042 CIPG           *25
 40000000 000000001050 CIPSI          *25
 40000000 000000000000 CIRUN          *25
 40000000 000000000002 CIRWS          *25
 40000000 000000000002 CISWS          *25
 40000000 000000000014 CIWSOF         *25
 40000000 000000303374 CKSM           *25
 01101000 000000000051 CL2            *98       104
 40000000 000000000022 CLCN           *25
 40000000 000000000023 CLCP           *25
 41000000 000000000003 CLCRC          *25       220
 41000000 000000000003 CLCSC          *25        79       240       241
 01101000 000000000105 CLER1           67      *120
 40000000 000000000237 CLI            *25
 40000000 000000000026 CLNG           *25
 12:43 09/05/97  FILE=ZIM$DBFC.:ZIC0TSI       SYMBOL TABLE                                               21   BMAP - B00
 40000000 000000000052 CMPL           *25
 40000000 000000000002 CN             *25
 40000000 000000303315 CNE1           *25
 01101000 000000000131 CNER1           99      *158
 40000000 000000006034 CNUL           *25
 40000000 000000100000 COB74          *25
 40000000 000000000001 COFS           *25
 40000000 000000000045 CONCD          *25
 40000000 000000007764 CP6PGSZB       *25
 41000000 000000001775 CP6PGSZW       *25
 40000000 000000001000 CPGR           *25
 40000000 000000000723 CPTRN          *25
 40000000 000000000723 CPTRO          *25
 60000000 000000000004 CPW            *25
 41000000 000000000112 CRA            *25       206       231
 40000000 000000001004 CRD            *25
 40000000 000000000764 CREC           *25
 01101000 000000000130 CRER1          100      *150
 01101000 000000000130 CRER2           89      *149
 40000000 000000006344 CRIT           *25
 40000000 000000006200 CRNUL          *25
 40000000 000000007330 CRST           *25
 41000000 000000001223 CRUN           *25
 41000000 000000000000 CSECT          *25
 40000000 000000000007 CSMPP          *25
 40000000 000000001000 CSPAC          *25
 40000000 000000000004 CSPAH          *25
 40000000 777777777776 CSPES          *25
 40000000 777777777776 CSPSB          *25
 40000000 000000000115 CSTS           *25
 40000000 000000000071 CSUB           *25
 40000000 000000000017 CSZ            *25
 40000000 000000000057 CTMASK         *25
 40000000 000000000774 CTPAI          *25
 40000000 000000000240 CURLN          *25
 40000000 000000000236 CURLT          *25
 40000000 000000000770 CURPG          *25
 12:43 09/05/97  FILE=ZIM$DBFC.:ZIC0TSI       SYMBOL TABLE                                               22   BMAP - B00
 40000000 000000000001 CURR           *25
 40000000 000000000035 CURRS          *25
 40000000 000000000037 CURSS          *25
 40000000 000000001005 CWRT           *25
 40000000 000000000237 CWSOF          *25
 61000000 000000000001 D              *25       212       236
 40000000 000000000003 DBAN           *25
 40000000 000000000036 DBDR           *25
 40000000 000000000037 DBFN           *25
 40000000 000000000754 DBK            *25
 40000000 000000000777 DBKAC          *25
 41000000 000000000000 DBKEY          *25       208
 40000000 000000000000 DBKL           *25
 40000000 000000007474 DBKN           *25
 41000000 000000000776 DBKR           *25
 40000000 000000000777 DBKRQ          *25
 40000000 000000000234 DBKSI          *25
 40000000 000000000651 DBKSR          *25
 40000000 000000000047 DBKYN          *25
 40000000 000000210652 DBLC01         *25
 40000000 000000210653 DBLC05         *25
 40000000 000000303334 DBLC07         *25
 40000000 000000210655 DBLD01         *25
 40000000 000000000010 DBLIM          *25
 40000000 000000000033 DBPKY          *25
 40000000 000000000023 DBRN           *25
 40000000 000000000013 DBSN           *25
 40000000 000000000001 DBST           *25
 40000000 000000000757 DCDSR          *25
 40000000 000000210650 DCE1           *25
 40000000 000000001053 DCPR           *25
 40000000 000000001053 DCPW           *25
 40000000 000000000015 DCTBL          *25
 40000000 000000000032 DDBK           *25
 40000000 000000000006 DDCB           *25
 40000000 000000011754 DDI            *25
 41000000 000000000000 DEF            *25        65        70       222
 12:43 09/05/97  FILE=ZIM$DBFC.:ZIC0TSI       SYMBOL TABLE                                               23   BMAP - B00
 40000000 000000000014 DEF2           *25
 40000000 000000303413 DELAK          *25
 40000000 000000000036 DELRS          *25
 40000000 000000000732 DEPCW          *25
 40000000 000000303414 DLDBK          *25
 40000000 000000210627 DLE1           *25
 40000000 000000303310 DLE2           *25
 40000000 000000210631 DLE3           *25
 40000000 000000016040 DNES           *25
 40000000 777777777777 DPAGN          *25
 40000000 000000000020 DPPI           *25
 40000000 000000000053 DPSLW          *25
 40000000 000000000003 DS             *25
 40000000 000000001063 DSDES          *25
 40000000 000000303316 DSE1           *25
 40000000 000000000735 DUSEPA         *25
 61000000 000000000001 E              *25       219       244
 40000000 000000303251 EDPER          *25
 40000000 000000000026 EEIND          *25
 40000000 000000000713 EFIND          *25
 40000000 000000001030 ELO            *25
 40000000 000000210711 ENCPNA         *25
 40000000 000000000007 ENCRP          *25
 40000000 000000000752 ENDSR          *25
 40000000 000000210647 ENE1           *25
 40000000 000000000716 ENIND          *25
 40000000 000000000013 ENTBL          *25
 40000000 000000000710 ENTNO          *25
 40000000 000000000712 ENTPTR         *25
 40000000 000000000717 ENTSZ          *25
 40000000 000000000711 ENTTYP         *25
 40000000 000000004064 EOSR           *25
 40000000 000000000004 ES             *25
 41000000 000000000100 ESTSZ          *25
 40000000 000000000725 ESZ            *25
 40000000 000000000005 ETCADR         *25
 40000000 000000000005 ETCDBNO        *25
 12:43 09/05/97  FILE=ZIM$DBFC.:ZIC0TSI       SYMBOL TABLE                                               24   BMAP - B00
 40000000 000000000064 EXCCD          *25
 40000000 000000234534 FALRT          *25
 40000000 000000001055 FBF72          *25
 40000000 000000001025 FBU61          *25
 40000000 000000001020 FBUF           *25
 40000000 000000001026 FBUF1          *25
 40000000 000000001027 FBUF4          *25
 40000000 000000001024 FBUF6          *25
 40000000 000000001022 FBUFM          *25
 40000000 000000001021 FBUFU          *25
 40000000 000000001023 FBUMD          *25
 01101000 000000000112 FCE1            72      *127
 40000000 000000000004 FCN            *25
 40000000 000000000051 FCNT           *25
 40000000 000000000002 FCP            *25
 01101000 000000000132 FCR1           125       131       136       143       154       159      *163
 40000000 000000000047 FCSS           *25
 40000000 000000000005 FD             *25
 40000000 000000210637 FDE1           *25
 40000000 000000303320 FDE2           *25
 41000000 000000303321 FDE3           *25       238
 41000000 000000210642 FDE4           *25       306
 40000000 000000210643 FDE5           *25
 40000000 000000210644 FDE6           *25
 40000000 000000303325 FDE7           *25
 40000000 000000303326 FDE8           *25
 40000000 000000000021 FEASZ          *25
 40000000 000000000740 FETM           *25
 01101000 000000000202 FHR1           242       249      *262
 40000000 000000000006 FI             *25
 40000000 000000000103 FIAC           *25
 41000000 000000001100 FIB1           *25
 41000000 000000001130 FIBP           *25
 40000000 000000000000 FIBX           *25
 40000000 000000000102 FICNT          *25
 40000000 000000000005 FIPN           *25
 40000000 000000000054 FKIND          *25
 12:43 09/05/97  FILE=ZIM$DBFC.:ZIC0TSI       SYMBOL TABLE                                               25   BMAP - B00
 40000000 000000000015 FLAGS          *25
 40000000 000000000244 FLDDSC         *25
 40000000 000000000046 FLDTL          *25
 40000000 000000000020 FMSBF          *25
 40000000 000000000006 FNAM           *25
 40000000 000000000250 FNIND          *25
 40000000 000000000004 FNL            *25
 40000000 000000000101 FRAC           *25
 40000000 000000000002 FRANGE         *25
 40000000 000000211400 FRDNL          *25
 40000000 000000200000 FRTRN          *25
 40000000 000000000005 FRWSO          *25
 40000000 000000000767 FSLN           *25
 40000000 000000000766 FSOF           *25
 40000000 000000000060 FTIND          *25
 40000000 000000303240 FTLINCR        *25
 40000000 000000000021 FWSSZ          *25
 40000000 000000000246 GACDK          *25
 40000000 000000000014 GDCB           *25
 41000000 000000000006 GERROR         *25        80        85        89        99       100       111
                                      113       205       209
 40000000 000000000016 GINHIB         *25
 40000000 000000000020 GIOAWS         *25
 40000000 000000000022 GIOBUF         *25
 40000000 000000000021 GIOPGNO        *25
 40000000 000000000015 GPAGE          *25
 40000000 000000000010 GRETAC         *25
 40000000 000000000011 GRETFR         *25
 40000000 000000000013 GRETRC         *25
 40000000 000000000012 GRETSC         *25
 41000000 000000000025 GRLCW          *25        60
 40000000 000000000014 GSTCD          *25
 40000000 000000000007 GSYSERR        *25
 40000000 000000000010 GT             *25
 40000000 000000000046 GTRNAME        *25
 40000000 000000000055 GTRPDCB        *25
 40000000 000000000056 GTRPNO         *25
 12:43 09/05/97  FILE=ZIM$DBFC.:ZIC0TSI       SYMBOL TABLE                                               26   BMAP - B00
 40000000 000000000057 GTRRDBK        *25
 40000000 000000000060 GTRRTYPE       *25
 40000000 000000000060 GTRTYPE        *25
 40000000 000000000027 HASH           *25
 40000000 000000000022 HIA            *25
 40000000 000000000775 HIDB           *25
 40000000 000000000003 HIGHDBK        *25
 40000000 000000000004 HIGHPG         *25
 40000000 000000001037 HIL            *25
 40000000 000000000002 HILN           *25
 40000000 000000000006 HPOS           *25
 01101000 000000000202 HSER           205      *254
 40000000 000000000756 IAAC           *25
 40000000 000000001011 IACLN          *25
 40000000 000000001010 IALC           *25
 40000000 000000010314 IAN            *25
 40000000 000000001012 IANLN          *25
 40000000 000000000001 IASID          *23
 40000000 000000020320 ICA            *25
 40000000 000000000023 ICKSMP         *25
 40000000 000000000024 ICKSMV         *25
 40000000 000000210742 ICNR           *25
 41000000 000000000020 ICSIZ          *25
 40000000 000000010004 IDBK           *25
 40000000 000000012120 IDI            *25
 40000000 000000000023 IDS            *25
 40000000 000000000011 IF             *25
 40000000 000000000021 IFIPN          *25
 40000000 000000000000 IFR            *25
 40000000 000000234546 IKSEQ          *25
 40000000 000000000113 INAFLAG        *25
 40000000 000000000016 INCHA          *25
 40000000 000000210566 INNM           *25
 40000000 000000210567 INSS           *25
 40000000 000000210575 INSST          *25
 40000000 000000303241 INTER          *25
 40000000 000000400000 INTII          *25
 12:43 09/05/97  FILE=ZIM$DBFC.:ZIC0TSI       SYMBOL TABLE                                               27   BMAP - B00
 40000000 000000000013 INTVL          *25
 40000000 000000001060 INVFLG         *25
 40000000 000000001043 INVOF          *25
 40000000 000000000014 INVT           *25
 40000000 000000000034 IOBLK          *25
 40000000 000000303354 IOCLSD         *25
 40000000 000000303355 IOCLSK         *25
 40000000 000000303257 IOE1           *25
 40000000 000000303264 IOE11          *25
 40000000 000000303265 IOE12          *25
 40000000 000000303266 IOE18          *25
 40000000 000000303260 IOE2           *25
 40000000 000000303261 IOE3           *25
 40000000 000000303262 IOE7           *25
 40000000 000000303263 IOE8           *25
 40000000 000000303363 IOFLSH         *25
 40000000 000000210676 IOGDCB         *25
 40000000 000000001002 IOINC          *25
 40000000 000000305160 IOINI          *25
 40000000 000000305155 IONOTIDS       *25
 40000000 000000305154 IONOTKEY       *25
 40000000 000000210677 IOOPND         *25
 40000000 000000210700 IOOPNK         *25
 40000000 000000303361 IORDD          *25
 40000000 000000305156 IOSCHEMA       *25
 40000000 000000001052 IOSTS          *25
 40000000 000000303362 IOWRTD         *25
 41000000 000000000750 IOWS           *25
 40000000 000000000647 IPC            *25
 40000000 000000000650 IPCF           *25
 40000000 000000000006 IROLLFLAG      *25
 41000000 000000010150 IRSN           *25       128
 40000000 000000000004 ISYSDCB        *25
 40000000 000000000005 ISYSERR        *25
 40000000 000000000061 ITPTR          *25
 40000000 000000000060 ITRS           *25
 40000000 000000021760 IUM            *25
 12:43 09/05/97  FILE=ZIM$DBFC.:ZIC0TSI       SYMBOL TABLE                                               28   BMAP - B00
 40000000 000000000017 IUSZ           *25
 40000000 000000234522 IVDBK          *25
 40000000 000000000011 IXBUF$         *25
 40000000 000000000046 IXFBSZ         *25
 40000000 777777777776 IXID           *25
 40000000 777777777777 IXPLL          *25
 40000000 000000000523 KCARG0         *25
 40000000 000000000524 KCARG3         *25
 40000000 000000000525 KCARG4         *25
 40000000 000000000700 KCREG          *25
 40000000 000000000006 KDCB           *25
 40000000 000000000666 KEYDS          *25
 40000000 000000000010 KEYPA          *25
 40000000 777777777776 KLNG           *25
 40000000 000000000022 KPASZ          *25
 40000000 000000000006 KWSZ           *25
 40000000 000000000052 LANGC          *25
 40000000 000000001014 LAS            *25
 40000000 000000700000 LCODM          *25
 40000000 000000001045 LDPSI          *25
 40000000 000000001071 LINPT          *25
 40000000 000000001017 LNCNT          *25
 40000000 000000000762 LNNO           *25
 40000000 000000001036 LOL            *25
 40000000 000000000715 LOLIM          *25
 01101000 000000000206 LOOP1         *295       299
 40000000 000000000023 LPASZ          *25
 40000000 000000000012 LPP            *25
 41000000 000000257764 LR             *25       133
 40000000 000000301270 LRA            *25
 40000000 000000000017 LRSZ           *25
 40000000 000000001035 LSPC           *25
 40000000 000000000750 LUPD           *25
 61000000 000000000001 M9             *25
 40000000 000000000013 MD             *25
 40000000 000000300000 MDQS           *25
 40000000 000000000730 MEMPTR         *25
 12:43 09/05/97  FILE=ZIM$DBFC.:ZIC0TSI       SYMBOL TABLE                                               29   BMAP - B00
 40000000 000000000727 MEMTYP         *25
 40000000 000000000045 MODCD          *25
 41000000 000000001207 MODFL          *25
 40000000 000000000042 MODFR          *25
 40000000 000000000044 MODIN          *25
 40000000 000000000044 MODRS          *25
 40000000 000000000043 MODSC          *25
 40000000 000000000047 MRBKI          *25
 40000000 000000210632 MRE4           *25
 40000000 000000303313 MRE5           *25
 40000000 000000210634 MRE7           *25
 01101000 000000000130 MSER1           85      *148
 40000000 000000400000 MW             *25
 40000000 000000000025 NCH            *25
 40000000 000000000002 NCHA           *25
 40000000 000000000005 NCHRS          *25
 40000000 000000000014 NDCD           *25
 40000000 000000000012 NENC           *25
 40000000 000000000634 NEW            *25
 40000000 000000001072 NEWSIZ         *25
 40000000 000000235164 NKA            *25
 40000000 000000235020 NKDB           *25
 40000000 000000303415 NLDBK          *25
 40000000 777777777777 NLIND          *25
 40000000 000000001040 NLN            *25
 40000000 000000400000 NLNSA          *25
 41000000 000000001053 NOBF           *25
 40000000 000000000711 NOPTRS         *25
 40000000 000000000742 NPARCW         *25
 40000000 000000000630 NPIND          *25
 40000000 000000000004 NPOS           *25
 40000000 000000234510 NSA            *25
 40000000 000000234654 NSCS           *25
 40000000 000000234344 NSDB           *25
 40000000 000000000001 NSTS           *25
 40000000 000000000726 NUMENT         *25
 40000000 000000000727 NUMPTR         *25
 12:43 09/05/97  FILE=ZIM$DBFC.:ZIC0TSI       SYMBOL TABLE                                               30   BMAP - B00
 40000000 777777777760 NXBUF          *25
 40000000 000000000713 NXPRI          *25
 40000000 000000000771 NXTC           *25
 40000000 000000000001 OAACN          *25
 40000000 000000000022 OACIWSOF       *25
 41000000 000000000001 OAOFST         *25        79       220       240       241
 40000000 000000000002 OARCN          *25
 40000000 000000000001 OASCN          *25
 40000000 000000000014 OD             *25
 40000000 000000000074 ODBK           *25
 40000000 000000001072 OLDSIZ         *25
 40000000 000000000101 OPADP          *25
 40000000 000000000741 OPARCW         *25
 40000000 000000210570 ORDNI          *25
 40000000 777777777777 OTVL           *25
 40000000 000000000252 OWNPTR         *25
 40000000 000000000016 PABUF          *25
 40000000 000000001041 PACD           *25
 40000000 000000000001 PACW           *25
 40000000 000000000733 PADBK          *25
 40000000 000000000740 PADUP          *25
 40000000 000000000745 PAEN           *25
 40000000 000000000745 PAEO           *25
 40000000 000000000734 PAEOF          *25
 40000000 000000303336 PAER1          *25
 40000000 000000303337 PAER2          *25
 40000000 000000303340 PAER3          *25
 40000000 000000303341 PAER4          *25
 40000000 000000303342 PAER5          *25
 40000000 000000303343 PAER6          *25
 40000000 000000000747 PAESZ          *25
 40000000 000000001060 PAFLG          *25
 40000000 000000000731 PAOPTR         *25
 40000000 000000000734 PAPOF          *25
 40000000 000000000714 PARCW          *25
 40000000 000000000726 PARVPA         *25
 40000000 000000000724 PASPLT         *25
 12:43 09/05/97  FILE=ZIM$DBFC.:ZIC0TSI       SYMBOL TABLE                                               31   BMAP - B00
 40000000 000000000004 PAWSZ          *25
 40000000 777777777762 PBUF           *25
 40000000 000000000020 PC             *25
 41000000 000000000510 PCB            *25
 40000000 000000000642 PCD            *25
 40000000 000000000642 PCD2           *25
 40000000 000000000247 PCEXI          *25
 40000000 000000000675 PCMIN          *25
 40000000 000000004541 PCOMP          *25
 40000000 000000000010 PD             *25
 40000000 000000000040 PE             *25
 40000000 000000000017 PENDING        *25
 41000000 000000000004 PF             *25        76
 40000000 000000000400 PFG            *25
 40000000 000000000200 PFM            *25
 40000000 000000000100 PFS            *25
 40000000 000000000400 PG             *25
 01101000 000000000202 PGER1          209      *258
 40000000 000000001064 PGHD           *25
 40000000 000000000006 PGLIM          *25
 40000000 000000000003 PGRNG          *25
 40000000 000000000746 PGSIZE         *25
 40000000 000000000641 PGSPLT         *25
 40000000 000000000100 PKAW           *25
 40000000 000000001034 PLO            *25
 40000000 000000000004 PLSEP          *25
 40000000 000000000200 PM             *25
 40000000 000000001054 PNEOO          *25
 40000000 000000001047 POFSI          *25
 40000000 000000000005 PPOS           *25
 41000000 000000000000 PR0            *23        57        59        62        93        95
 41000000 000000000001 PR1            *23        61        63        94        96
 40000000 000000000002 PR2            *23
 40000000 000000000003 PR3            *23
 40000000 000000000004 PR4            *23
 41000000 000000000005 PR5            *23        60        80        85        89        99       100
                                      111       113       205       209
 12:43 09/05/97  FILE=ZIM$DBFC.:ZIC0TSI       SYMBOL TABLE                                               32   BMAP - B00
 41000000 000000000006 PR6            *23        65        70        74        79        82       220
                                      221       222       240       241       296       298
 41000000 000000000007 PR7            *23        75        83        88        97       101       102
                                      103       107       108       109       139       140       142
                                      203       206       207       208       210       213       214
                                      225       228       231       232       239       247
 40000000 000000303267 PRE1           *25
 40000000 000000303277 PRE10          *25
 40000000 000000303270 PRE3           *25
 40000000 000000303271 PRE4           *25
 40000000 000000303272 PRE5           *25
 40000000 000000210613 PRE6           *25
 40000000 000000210614 PRE7           *25
 40000000 000000210615 PRE8           *25
 40000000 000000303276 PRE9           *25
 40000000 000000000522 PREXC          *25
 40000000 000000000521 PRFR           *25
 40000000 000000000521 PRFR2          *25
 41000000 000000000000 PRIV           *25        75
 40000000 000000000526 PROPA          *25
 41000000 000000000517 PRRC           *25        97       108       142
 40000000 000000000517 PRRS           *25
 40000000 000000000520 PRSC           *25
 41000000 000000000516 PRSS           *25        83        88
 40000000 000000000644 PRSTS          *25
 01101000 000000000116 PRVE1           77      *132
 40000000 000000000100 PS             *25
 41000000 000000000000 PS0SID         *23
 41000000 000000000001 PS1SID         *23
 41000000 000000000002 PS2SID         *23
 41000000 000000000003 PS3SID         *23
 41000000 000000000004 PS4SID         *23
 40000000 000000000005 PS5SID         *23
 40000000 000000000006 PS6SID         *23
 40000000 000000303416 PSA            *25
 40000000 000000000020 PSC            *25
 40000000 000000000010 PSD            *25
 12:43 09/05/97  FILE=ZIM$DBFC.:ZIC0TSI       SYMBOL TABLE                                               33   BMAP - B00
 40000000 000000000004 PSF            *25
 40000000 000000000400 PSO            *25
 40000000 000000000720 PTESZ          *25
 40000000 000000000631 PTR            *25
 40000000 000000000724 PTRESZ         *25
 40000000 000000000710 PTRNO          *25
 41000000 000000000630 PWS            *25
 40000000 000000000002 RADDR          *25
 40000000 000000000010 RADIX          *25
 40000000 000000000005 RAPTR          *25
 40000000 000000000004 RAWSOF         *25
 40000000 777777777766 RBA            *25
 40000000 000000023432 RCBI           *25
 40000000 000000211234 RCDNL          *25
 40000000 000000000005 RCFRH          *25
 40000000 000000000004 RCFRN          *25
 40000000 000000001075 RCHD           *25
 40000000 000000000001 RCID           *25
 41000000 000000000006 RCPTR          *25       109
 40000000 000000000002 RCRAH          *25
 40000000 000000000001 RCRAN          *25
 41000000 000000000003 RCRSH          *25       298
 40000000 000000000002 RCRSN          *25
 40000000 000000210667 RCVER1         *25
 40000000 000000210670 RCVER2         *25
 40000000 000000210671 RCVER4         *25
 40000000 000000210672 RCVER5         *25
 40000000 000000210673 RCVER6         *25
 40000000 000000000736 RCW1           *25
 40000000 000000000737 RCW2           *25
 41000000 000000000004 RCWSO          *25        74
 40000000 000000000077 RDAC           *25
 40000000 000000000076 RDCNT          *25
 40000000 000000040000 RDI            *25
 40000000 000000015674 RDLT           *25
 40000000 000000000075 RDYCW          *25
 40000000 000000000066 RECAC          *25
 12:43 09/05/97  FILE=ZIM$DBFC.:ZIC0TSI       SYMBOL TABLE                                               34   BMAP - B00
 40000000 000000000065 RECFR          *25
 40000000 000000000070 RECRC          *25
 40000000 000000000067 RECSC          *25
 41000000 000000000003 RECSZ          *25       225       228
 40000000 000000000235 REMLT          *25
 40000000 000000000062 REM_RECOVER    *25
 40000000 000000000251 RETFR          *25
 40000000 000000210724 RFDNL          *25
 01101000 000000000071 RFND           100      *106
 40000000 000000017644 RIM            *25
 40000000 000000000005 RNAM           *25
 40000000 000000015706 RNDLT          *25
 40000000 000000000662 RNG1           *25
 40000000 000000000664 RNG2           *25
 40000000 000000000073 RNGD           *25
 40000000 000000000072 RNGO           *25
 40000000 000000000660 RNGTAL         *25
 01101000 000000000130 RNIC            80      *147
 40000000 000000020154 RNM            *25
 40000000 000000000041 ROCUR          *25
 40000000 000000000001 ROFST          *25
 40000000 000000002114 ROLL           *25
 40000000 000000020010 RPM            *25
 40000000 000000000001 RSCDH          *25
 40000000 000000000001 RSCDN          *25
 40000000 000000211710 RSDNL          *25
 41000000 000000004540 RSEE           *25       138
 41000000 000000000003 RSIZ           *25       221
 01101000 000000000213 RSNF1          297      *305
 40000000 000000000110 RSPAM          *25
 40000000 000000000004 RSPTR          *25
 40000000 000000000037 RSREQ          *25
 40000000 000000000002 RSSSH          *25
 41000000 000000000001 RSSSN          *25        82
 41000000 000000210574 RSZER          *25       246
 40000000 000000000632 RSZTP          *25
 41000000 000000000003 RTP            *25       213
 12:43 09/05/97  FILE=ZIM$DBFC.:ZIC0TSI       SYMBOL TABLE                                               35   BMAP - B00
 40000000 000000000003 RTYP           *25
 40000000 000000000530 RV1            *25
 40000000 000000000550 RV2            *25
 40000000 000000000570 RV3            *25
 40000000 000000000610 RV4            *25
 41000000 000000000003 RVASID         *23        61        94
 41000000 000000000510 RVI            *25       101       103       139       207       210
 41000000 000000000511 RVO            *25       102       107
 40000000 000000000513 RVPA           *25
 40000000 000000000512 RVT            *25
 40000000 000000000022 RVTAL          *25
 40000000 000000000002 RWSZ           *25
 40000000 000000000015 RY             *25
 40000000 000000210620 RYE1           *25
 40000000 000000210621 RYE4           *25
 40000000 777777777767 SA             *25
 40000000 000000000005 SANAM          *25
 40000000 000000001062 SCDES          *25
 40000000 000000211544 SCDNL          *25
 40000000 000000000024 SCFC           *25
 40000000 000000000002 SCID           *25
 40000000 000000000024 SCLST          *25
 40000000 000000000004 SCNAM          *25
 40000000 000000000004 SCPTR          *25
 40000000 000000000003 SCRSH          *25
 41000000 000000000002 SCRSN          *25       296
 40000000 000000000001 SCWSO          *25
 40000000 000000001225 SFWS           *25
 40000000 000000001073 SIZCHG         *25
 40000000 000000000645 SKFLG          *25
 40000000 000000000643 SKIND          *25
 40000000 000000000641 SKTYP          *25
 40000000 000000020464 SMCR           *25
 40000000 000000000003 SNAM           *25
 40000000 000000000107 SNIND          *25
 40000000 000000000735 SNPAE          *25
 40000000 000000001046 SNSI           *25
 12:43 09/05/97  FILE=ZIM$DBFC.:ZIC0TSI       SYMBOL TABLE                                               36   BMAP - B00
 40000000 000000000743 SOE            *25
 40000000 000000020630 SORSA          *25
 40000000 000000004374 SOSE           *25
 40000000 000000000000 SPAV           *25
 40000000 000000000744 SPCAVN         *25
 40000000 000000000744 SPCAVO         *25
 40000000 000000000765 SPLF           *25
 41000000 000000000765 SPND           *25
 40000000 000000000006 SSDT           *25
 40000000 000000303243 SSER           *25
 40000000 000000303244 SSER1          *25
 40000000 000000000002 SSH            *25
 40000000 000000000005 SSNAM          *25
 40000000 000000210573 SSNF           *25
 40000000 000000210576 SSNV           *25
 40000000 000000000020 SSSPTR         *25
 40000000 000000000010 SSVDT          *25
 40000000 000000000033 SSZTP          *25
 40000000 000000000017 ST             *25
 40000000 000000000104 STBIN          *25
 40000000 000000000105 STDEC          *25
 40000000 000000303302 STE1           *25
 40000000 000000303303 STE2           *25
 40000000 000000210624 STE3           *25
 40000000 000000303305 STE4           *25
 40000000 000000303306 STE5           *25
 00101000 000000000130 STER1         *153
 41000000 000000000100 STKSIZ         *25
 40000000 000000000055 STMASK         *25
 40000000 000000000062 SUST           *25
 41000000 000000000020 SWS            *25
 40000000 000000000000 SWSAC          *25
 40000000 000000000002 SWSZ           *25
 40000000 000000000000 SYSSF          *25
 01101000 000000000176 SZE5           226       229      *245
 40000000 000000000765 SZREQ          *25
 40000000 000000000004 TBUF           *25
 12:43 09/05/97  FILE=ZIM$DBFC.:ZIC0TSI       SYMBOL TABLE                                               37   BMAP - B00
 40000000 000000001061 TCTRS          *25
 60000000 000000000000 TDS            *25
 41000000 000000000113 TEMP           *25
 40000000 000000000640 TFLD           *25
 40000000 000000000657 TFLD2          *25
 41000000 000000000056 TMASK          *25       214
 40000000 000000000061 TMODE          *25
 40000000 000000000676 TMPPA          *25
 40000000 000000000003 TPAI           *25
 40000000 000000500000 TPRCOD         *25
 40000000 000000001031 TSFN           *25
 40000000 000000000021 TSI            *25
 40000000 000000001013 UBRD2          *25
 41000000 000000001223 UBSZ           *25
 40000000 000000000667 UCADR          *25
 01101000 000000000130 UCER1          111      *151
 40000000 000000000036 UCRS           *25
 40000000 000000000024 UFSPK          *25
 40000000 000000000024 UFSPK2         *25
 40000000 000000000715 ULIM           *25
 40000000 000000004230 UNA            *25
 40000000 000000303417 UNIM           *25
 40000000 000000000002 UOFST          *25
 40000000 000000001035 UPACD          *25
 40000000 000000000721 UPACW          *25
 40000000 000000000007 UPFLAG         *25
 40000000 000000000103 UPPAI          *25
 40000000 000000000004 UPTSID         *23
 01101000 000000000130 USRE3          113      *152
 40000000 000000000674 USTAT          *25
 40000000 000000000002 UWASID         *23
 40000000 000000000002 UWSSZ          *25
 40000000 000000000020 UWSZ           *25
 40000000 000000000243 VFDSC          *25
 40000000 000000001070 VFDSR          *25
 40000000 000000000656 VFLD           *25
 40000000 000000001074 VFLNG          *25
 12:43 09/05/97  FILE=ZIM$DBFC.:ZIC0TSI       SYMBOL TABLE                                               38   BMAP - B00
 40000000 000000001124 VIB1           *25
 40000000 000000001154 VIBP           *25
 41000000 000000000000 VLPSID         *23        57        93
 40000000 000000001074 VRSIZ          *25
 40000000 000000001067 WLOA           *25
 40000000 000000100000 WRTI           *25
 40000000 000000000000 WSBID          *25
 40000000 000000000003 WSOF           *25
 41000000 000000000000 X0             *23        87       122       129       134       140       239
                                      247       307
 41000000 000000000001 X1             *23        65        66        70        71        74        75
                                       76        80        85        89        99       100       111
                                      113       203       205       209       221       225       228
                                      232
 41000000 000000000002 X2             *23       107
 41000000 000000000003 X3             *23       139       207       210
 41000000 000000000004 X4             *23        82        83        88       206       231
 41000000 000000000005 X5             *23       294       296
 41000000 000000000006 X6             *23        79       123       130       135       141       240
                                      248
 03201008 000000000000 X66_ARET       *23       115       301
 03201007 000000000000 X66_AUTO_0     *23        55       293
 41000000 000000000007 X7             *23        62        63        95        96        97       108
                                      109       124       142       220       241       298
 40000000 000000210665 XASL           *25
 40000000 000000303420 XLD            *25
 40000000 000000303421 XPD            *25
 40000000 000000000676 XPRS           *25
 40000000 000000210666 XROLL          *25
 40000000 000000210664 XUNEX          *25
 40000000 777777777777 XXDPN          *25
 03201009 000000000000 ZIB$DBALT     *163      *308
 03201010 000000000000 ZIB$ICALT     *263
 12101000 000000000000 ZIG$DBFDC       11       *54
 13101000 000000000203 ZIG$DBGRS       13        80      *292
 03201001 000000000000 ZIG$DBPCK      *16       100
 03201002 000000000000 ZIG$DBPFD      *17       209
 12:43 09/05/97  FILE=ZIM$DBFC.:ZIC0TSI       SYMBOL TABLE                                               39   BMAP - B00
 03201003 000000000000 ZIG$DBPMS      *18        85
 03201004 000000000000 ZIG$DBPNC      *19        99
 03201005 000000000000 ZIG$DBUPC      *20       111
 03201006 000000000000 ZIG$DBUSR      *21       113
 03201000 000000000000 ZIQ$DBCLC      *15       205
 13101000 000000000133 ZIQ$DBFCH       12        89      *202

     956 SYMBOLS

 12:43 09/05/97  FILE=ZIM$DBFC.:ZIC0TSI       MACRO TABLE                                                40   BMAP - B00
 CBSYM           25
 DBALT          163       308
 DBCAL           80        85        89        99       100       111       113       205       209
 DBRET          115       301
 DBSAV           55       293
 ICALT          263
 ICCAL           89       111       205
 ICRET          232
 ICSAV          203
 Q2SYM           25
 SSSYM           25

      37 MACROS

    SYMBOL SPACE USED  9297 WORDS
     MACRO SPACE USED 13055 WORDS
   INPUT RECORDS READ  2420
 STATEMENTS PROCESSED  2285
         ELAPSED TIME  0:10.96
             CPU TIME    10.49 SEC.
        ASSEMBLY RATE 13070 STATEMENTS/CPU MIN.

      NO ERRORS

