
 12:44 09/05/97  FILE=ZIM$DBFD.:ZIC0TSI                                                                  1    BMAP - B00
                                         1  *M*      ZIG$DBFD
                                         2  *T***********************************************************
                                         3  *T*                                                         *
                                         4  *T* Copyright (c) Bull HN Information Systems Inc., 1997    *
                                         5  *T*                                                         *
                                         6  *T***********************************************************

 12:44 09/05/97  FILE=ZIM$DBFD.:ZIC0TSI       H6600H2.523     IDS/II FIND DIRECT             780113DBFD  2    BMAP - B00
                                         7         TTL     H6600H2.523     IDS/II FIND DIRECT             780113DBFD
                                         8         CPR     1974
                                         9         PMC     OFF
                                        10  *
                                        11         ENTDEF  ZIG$DBFDR
                                        12         ENTDEF  ZIQ$DBGRC
                                        13  *
                                        14         ENTREF  ZIG$DBPFD
                                        15         ENTREF  ZIG$DBUPC            Updates Currencies
                                        16         ENTREF  ZIG$DBUSR
                                        17  *
                                        18         LODM    Q2MA
                                        19  *
                                        20         Q2SYM
                                        21  *

 12:44 09/05/97  FILE=ZIM$DBFD.:ZIC0TSI       IDS-II  FIND DIRECT SUBROUTINE                             3    BMAP - B00
                                        22         TTLS    IDS-II  FIND DIRECT SUBROUTINE
                                        23  ****************************************************************
                                        24  *
                                        25  *  - DBFDR -
                                        26  *
                                        27  *      FIND.  Find direct.  Locates a record given its data
                                        28  *      base key.
                                        29  *
                                        30  *      Parameter   Description
                                        31  *      ---------   -----------
                                        32  *
                                        33  *          0       IA
                                        34  *          1       UWA
                                        35  *          2       FPT
                                        36  *          3       Data Base Key
                                        37  *
                                        38  *      FPT Format...
                                        39  *
                                        40  *      Word 0:  RVA offset to a schema subset element which
                                        41  *          describes a data base record.  This argument will
                                        42  *          be zero if no record type is specified.
                                        43  *      word 1:  Unused
                                        44  *      Word 2:  Retention List Control Word
                                        45  *      Words 3->M:  Retention List.  RVA offsets to the
                                        46  *          schema subset elements which describe the sets
                                        47  *          for which currencies are to be retained.
                                        48  *
                                        49  ****************************************************************
                                        50  *
 0 000000                               51  ZIG$DBFDR NULL
   000000  X 000000 7000 00             52           DBSAV
   000001    000004 000000
                                        53  *  GET ARGUMENTS
   000002    000005 4704 07             54         LDP    PR0,PS5SID,DL            DBK$
   000003    000003 4714 07             55           LDP      PR1,RVASID,DL           RVA$
   000004    0 00000 2361 00            56         LDQ     0,,PR0               Get DBK requested
   000005 (0)000105 6000 00             57         TZE     DBZ             NULL - ERROR
 12:44 09/05/97  FILE=ZIM$DBFD.:ZIC0TSI       IDS-II  FIND DIRECT SUBROUTINE                             4    BMAP - B00
   000006    000000 4704 07             58         LDP    PR0,VLPSID,DL            VLP$
   000007    000003 2350 03             59           LDA      3,DU                 Retention list
   000010    0 00002 2751 00            60           ORA      2,,PR0               RLCW
   000011    5 00025 7551 00            61           STA      GRLCW,,PR5           Save it
   000012    0 00000 2271 00            62         LDX     X7,0,,PR0            Get offset to RC pointer from FPT
   000013    1 00000 2271 17            63           LDX      X7,,X7,PR1           Get RC offset from RVA
   000014    000007 6000 04             64         TZE     NRC4,$          NO RC GIVEN
                                        65         IFE     A,1,%CK1
   000015    6 00000 2211 17            66         LDX     X1,DEF,X7,PR6   GET DEF TYPE
   000016    100000 3010 03             67         CANX    X1,.RC,DU       IS IT AN RC
   000017 (0)000112 6000 00             68         TZE     CALE4           NO - ERROR
                                        69  CK1    MARK
   000020    6 00000 7211 17            70         LXL     X1,DEF,X7,PR6
   000021    100000 3010 03             71         CANX    X1,.SR,DU       IS IT IN SS
   000022    000075 6010 04             72         TNZ     FDAE1,$         NO - ERROR
   000023                               73  NRC4   NULL
   000023    7 00517 7471 00            74         STX     X7,PRRC,,PR7    SAVE RC
                                        75  *  GET THE RECORD
   000024    7 00510 2231 00            76         LDX     X3,RVI,,PR7     SET X3 TO REC VAR IN
   000025    7 00000 7561 13            77         STQ     DBKEY,X3,PR7    SAVE DBK
   000026  X 000000 7010 00             78           DBCAL    ZIG$DBPFD,,FDER2
   000027 (0)000141 7020 00
   000030    5 00006 2341 00
   000031    777776 6010 04
                                        79  *  SEE IF RECORD IS TYPE REQUESTED
   000032    7 00517 2271 00            80         LDX     X7,PRRC,,PR7    GET RC REQUESTED
   000033 (0)000037 6000 00             81         TZE     NRC5            NONE - GO FIND IT
   000034    7 00057 2361 00            82         LDQ     CTMASK,,PR7     LOAD MASK FOR TYPE COMPARE
   000035    6 00003 2111 17            83         CMK     RTYP,X7,PR6     IS IT THE RIGHT TYPE
   000036 (0)000123 6010 00             84         TNZ     RCER2           NO
   000037                               85  NRC5   NULL
   000037    7 00510 2231 00            86           LDX      X3,RVI,,PR7          Set X3 to RVI
   000040    7 00005 2201 13            87         LDX     X0,ACPTR,X3,PR7  GET AC PTR
   000041 (0)000143 7010 00             88         ICCAL   ZIQ$DBGRC,,RCER1 FIND RC
   000042 (0)000136 7020 00
   000043    5 00006 2341 00
   000044    777776 6010 04
 12:44 09/05/97  FILE=ZIM$DBFD.:ZIC0TSI       IDS-II  FIND DIRECT SUBROUTINE                             5    BMAP - B00
   000045    7 00510 2231 00            89         LDX     X3,RVI,,PR7
   000046    7 00006 7471 13            90         STX     X7,RCPTR,X3,PR7  SAVE RC PTR IN REC VAR
                                        91  *  CHECK RECORD SIZE
                                        92         IFE     E,1,%CK5
   000047    6 00003 2211 17            93         LDX     X1,RSIZ,X7,PR6  GET SIZE FROM RC
   000050    6 00000 2351 17            94         LDA     DEF,X7,PR6      RC DEFINITION                            <EHW>
   000051    040000 3750 07             95         ANA     .FVR,DL         IS RECORD VARIABLE SIZE                  <EHW>
   000052 (0)000056 6000 00             96         TZE     *+4             NO                                       <EHW>
   000053    7 00003 1011 13            97         CMPX    X1,RECSZ,X3,PR7  YES - IS SIZE > OR = TO SIZE IN REC      <EHW>
   000054 (0)000127 6020 00             98         TNC     SZE6            NO - ERROR                               <EHW>
   000055 (0)000060 7100 00             99         TRA     *+3             YES - OK                                 <EHW>
   000056    7 00003 1011 13           100         CMPX    X1,RECSZ,X3,PR7  IS IT EQUAL TO SIZE FROM REC
   000057    000050 6010 04            101         TNZ     SZE6,$          NO - ERROR
                                       102  CK5    MARK
   000060    7 00510 2371 00           103         LDAQ    RVI,,PR7        * REVERSE
   000061    7 00511 7551 00           104         STA     RVO,,PR7        *  IN & OUT
   000062    7 00510 7561 00           105         STQ     RVI,,PR7        *   REC VAR
                                       106  *  CHECK REC PRIVACY
   000063    6 00004 2211 17           107         LDX     X1,RCWSO,X7,PR6  GET WORK SPACE OFST
   000064    7 00000 2211 11           108         LDX     X1,PRIV,X1,PR7
   000065    000004 3010 03            109         CANX    X1,PF,DU        IS PRIVACY SATISFIED
   000066 (0)000132 6000 00            110         TZE     PRVE1           NO
                                       111  *  UPDATE CURRENCIES
   000067  X 000000 7010 00            112           ICCAL    ZIG$DBUPC,,UCER4     Update currencies
   000070 (0)000140 7020 00
   000071    5 00006 2341 00
   000072    777776 6010 04
                                       113  *  MOVE NAMES TO SPEC. REGS.
   000073  X 000000 7010 00            114         DBCAL   ZIG$DBUSR,,USRE2
   000074 (0)000140 7020 00
   000075    5 00006 2341 00
   000076    777776 6010 04
                                       115  *  RETURN
   000077  X 000000 7020 00            116           DBRET
                                       117  *                                                                       <EHW>
                                       118  *  EXCEPTIONS DETECTED IN THIS ROUTINE                                  <EHW>
                                       119  *                                                                       <EHW>
 12:44 09/05/97  FILE=ZIM$DBFD.:ZIC0TSI       IDS-II  FIND DIRECT SUBROUTINE                             6    BMAP - B00
   000100                              120  ADR    NULL                    ACCESS TO DELETED RECORD                 <EHW>
   000100    015674 2350 07            121         LDA     RDLT,DL                                                  <EHW>
   000101    000000 6200 00            122         EAX     X0,0            NULL AC                                  <EHW>
   000102    000000 6260 00            123         EAX     X6,0            NULL SC                                  <EHW>
   000103    000000 6270 00            124         EAX     X7,0            NULL RC                                  <EHW>
   000104 (0)000142 7100 00            125         TRA     FDR1
   000105                              126  DBZ    NULL                    DBK GIVEN IS NULL
   000105    007474 2350 07            127         LDA     DBKN,DL
   000106    000000 6200 00            128         EAX     X0,0            NULL AC
   000107    000000 6260 00            129         EAX     X6,0            NULL SC
   000110    000000 6270 00            130         EAX     X7,0            NULL RC
   000111 (0)000142 7100 00            131         TRA     FDR1
                                       132         IFE     A,1,%CK1
   000112                              133  CALE4  NULL                    CALLING ARG ERROR
   000112    210562 2350 07            134         LDA     ARGER,DL
   000113    000000 6200 00            135         EAX     X0,0            NULL AC
   000114    000000 6260 00            136         EAX     X6,0            NULL SC
   000115    000000 6270 00            137         EAX     X7,0            NULL RC
   000116 (0)000142 7100 00            138         TRA     FDR1
                                       139  CK1    MARK
   000117                              140  FDAE1  NULL                    REC NOT IN SUB-SCHEMA
   000117    010150 2350 07            141         LDA     IRSN,DL
   000120    000000 6200 00            142         EAX     X0,0            NULL AC
   000121    000000 6260 00            143         EAX     X6,0            NULL SC
   000122    000020 7100 04            144         TRA     FDR1,$
   000123                              145  RCER2  NULL                    REC RETRIEVED NOT TYPE REQUESTED
   000123    004540 2350 07            146         LDA     RSEE,DL
   000124    7 00005 2201 13           147         LDX     X0,ACPTR,X3,PR7  GET AC PTR
   000125    000000 6260 00            148         EAX     X6,0            NULL SC
   000126 (0)000142 7100 00            149         TRA     FDR1
                                       150         IFE     E,1,%CK5
   000127                              151  SZE6   NULL
   000127    210574 2350 07            152         LDA     RSZER,DL
   000130    000000 6260 00            153         EAX     X6,0            NULL SC
   000131    000011 7100 04            154         TRA     FDR1,$
                                       155  CK5    MARK
   000132                              156  PRVE1  NULL                    REC PRIVACY NOT SATISFIED
 12:44 09/05/97  FILE=ZIM$DBFD.:ZIC0TSI       IDS-II  FIND DIRECT SUBROUTINE                             7    BMAP - B00
   000132    257764 2350 07            157         LDA     LR,DL
   000133    000000 6200 00            158         EAX     X0,0            NULL AC
   000134    000000 6260 00            159         EAX     X6,0            NULL SC
   000135 (0)000142 7100 00            160         TRA     FDR1
   000136                              161  RCER1  NULL                    RC NOT FOUND - REC NOT IN SUB-SCHEMA
   000136    010150 2350 07            162         LDA     IRSN,DL
   000137    000003 7100 04            163         TRA     FDR1,$
                                       164  *
                                       165  *  ERRORS DETECTED IN SUBORDINATE ROUTINES
                                       166  *
   000140                              167  UCER4  NULL                    UPDATE CURRENCY ERROR
   000140                              168  USRE2  NULL                    UPDATE SPEC. REG. ERROR
   000140                              169  STER1  NULL                    ERROR ACCUMULATING STATISTICS
   000140 (0)000142 7100 00            170         TRA     FDR1
                                       171  *
                                       172  *  ERRORS DETECTED IN PRIMITIVES
                                       173  *
   000141                              174  FDER2  NULL                    PAGE ERROR
   000141 (0)000142 7100 00            175         TRA     FDR1
                                       176  *
                                       177  *  COMMON ERROR RETURN
                                       178  *
   000142  X 000000 7020 00            179  FDR1     DBALT

 12:44 09/05/97  FILE=ZIM$DBFD.:ZIC0TSI       FIND RA & RC FROM AC & REC TYPE                            8    BMAP - B00
                                       180         TTLS    FIND RA & RC FROM AC & REC TYPE
                                       181  *
                                       182  ****************************************************************
                                       183  *
                                       184  *  - DBGRC -
                                       185  *
                                       186  *      Find RA and RC from AC and Record Type.
                                       187  *
                                       188  *      Calling
                                       189  *
                                       190  *              ICCAL    ZIQ$DBGRC,,altret
                                       191  *
                                       192  *      Considerations
                                       193  *
                                       194  *              Note that no exception return is possible
                                       195  *              from this routine.  On an error return,
                                       196  *              the code is in the A registers.
                                       197  *
                                       198  *      Input
                                       199  *
                                       200  *              AR - Bits 24-35 = Record Type
                                       201  *              X0 - AC Def pointer
                                       202  *
                                       203  *      Output
                                       204  *
                                       205  *              X0 - AC Def pointer
                                       206  *              X4 - RA Def pointer
                                       207  *              X7 - RC Def pointer
                                       208  *
                                       209  ****************************************************************
                                       210  *
   000143                              211  ZIQ$DBGRC NULL
   000143    7 00470 7411 56           212         ICSAV
   000144    000000 6240 10            213         EAX     X4,,X0          INIT X4
   000145    7 00057 2361 00           214         LDQ     CTMASK,,PR7     LOAD MASK FOR TYPE COMPARE
   000146                              215  GRL1   NULL
   000146    6 00001 7241 14           216         LXL     X4,ACRAN,X4,PR6  GET NEXT RA
 12:44 09/05/97  FILE=ZIM$DBFD.:ZIC0TSI       FIND RA & RC FROM AC & REC TYPE                            9    BMAP - B00
   000147 (0)000155 6000 00            217         TZE     RCNF1           NO
   000150    6 00002 2271 14           218         LDX     X7,RCRAH,X4,PR6  GET RC FOR THIS RA
   000151    6 00003 2111 17           219         CMK     RTYP,X7,PR6     IS THIS THE RIGHT ONE
   000152 (0)000146 6010 00            220         TNZ     GRL1            NO - GET NEXT RC
                                       221  *  RECORD CLASS DEFINITION FOUND
   000153    7 00470 2211 54           222         ICRET
   000154    000001 7100 11
                                       223  *
                                       224  *  ERRORS DETECTED IN THIS ROUTINE
                                       225  *
   000155                              226  RCNF1  NULL                    RC NOT FOUND
   000155    010150 2350 07            227         LDA     IRSN,DL
   000156    000000 6260 00            228         EAX     X6,0            NULL SC
   000157    000000 6270 00            229         EAX     X7,0            NULL RC
   000160  X 000000 7020 00            230           ICALT
                                       231         END

  CONTROL SECTION TABLE

   0 CODE   EVEN  000161
   1 RODATA EVEN  000000 LITERALS

 12:44 09/05/97  FILE=ZIM$DBFD.:ZIC0TSI       SYMBOL TABLE                                               10   BMAP - B00
 40000000 000000200000 .AC            *20
 40000000 000000000100 .AG            *20
 40000000 000000002000 .ALTO          *20
 40000000 000000000077 .ANL           *20
 40000000 000000200000 .APDN          *20
 40000000 000000000100 .ATMP          *20
 40000000 000000400000 .AV            *20
 40000000 000000400000 .B0            *20
 40000000 000000200000 .B1            *20
 40000000 000000000200 .B10           *20
 40000000 000000000100 .B11           *20
 40000000 000000000040 .B12           *20
 40000000 000000000020 .B13           *20
 40000000 000000000010 .B14           *20
 40000000 000000000004 .B15           *20
 40000000 000000000002 .B16           *20
 40000000 000000000001 .B17           *20
 40000000 000000400000 .B18           *20
 40000000 000000200000 .B19           *20
 40000000 000000100000 .B2            *20
 40000000 000000100000 .B20           *20
 40000000 000000040000 .B21           *20
 40000000 000000020000 .B22           *20
 40000000 000000010000 .B23           *20
 40000000 000000004000 .B24           *20
 40000000 000000002000 .B25           *20
 40000000 000000001000 .B26           *20
 40000000 000000000400 .B27           *20
 40000000 000000000200 .B28           *20
 40000000 000000000100 .B29           *20
 40000000 000000040000 .B3            *20
 40000000 000000000040 .B30           *20
 40000000 000000000020 .B31           *20
 40000000 000000000010 .B32           *20
 40000000 000000000004 .B33           *20
 40000000 000000000002 .B34           *20
 40000000 000000000001 .B35           *20
 12:44 09/05/97  FILE=ZIM$DBFD.:ZIC0TSI       SYMBOL TABLE                                               11   BMAP - B00
 40000000 000000020000 .B4            *20
 40000000 000000010000 .B5            *20
 40000000 000000004000 .B6            *20
 40000000 000000002000 .B7            *20
 40000000 000000001000 .B8            *20
 40000000 000000000400 .B9            *20
 40000000 000000000001 .BREAK         *20
 40000000 000000010000 .BRK           *20
 40000000 000000020000 .BTB           *20
 40000000 000000000001 .CAC           *20
 40000000 000000000000 .CAE           *20
 40000000 000000000200 .CANSSS        *20
 40000000 000000000400 .CD            *20
 40000000 000000040000 .CFLC          *20
 40000000 000000400000 .CHKSUM        *20
 40000000 000000100000 .CJRNL         *20
 40000000 000000000077 .CNSZ          *20
 40000000 000000160000 .COMC          *20
 40000000 000000000020 .CONT          *20
 40000000 000000000000 .CSE           *20
 40000000 000000700000 .CTYP          *20
 41000000 000000000270 .DBEST         *20
 41000000 000000000470 .DBIC          *20       212       222
 40000000 000000077777 .DBPT          *20
 41000000 000000000370 .DBSTK         *20
 40000000 000000020000 .DELM          *20
 40000000 000000002000 .DIDP          *20
 40000000 000000000077 .DNDX          *20
 40000000 000000600000 .DORD          *20
 40000000 000000000200 .DP            *20
 40000000 000000100000 .DPS           *20
 40000000 000000200000 .DPSA          *20
 40000000 000000400000 .DPST          *20
 40000000 000000000002 .DUMP          *20
 40000000 000000002000 .DUPC          *20
 40000000 000000010000 .DUPP          *20
 40000000 000000200000 .EBCL          *20
 12:44 09/05/97  FILE=ZIM$DBFD.:ZIC0TSI       SYMBOL TABLE                                               12   BMAP - B00
 40000000 000000400000 .EBCM          *20
 40000000 000000200000 .ENCRP         *20
 40000000 000000000077 .ENDX          *20
 40000000 000000000400 .ENQ           *20
 40000000 000000004000 .ETC           *20
 40000000 000000000400 .EXIT          *20
 40000000 000000000200 .FMOD          *20
 40000000 000000000077 .FNL           *20
 40000000 000000000074 .FORG          *20
 40000000 000000002000 .FR            *20
 40000000 000000000100 .FSR           *20
 40000000 000000003400 .FUSE          *20
 40000000 000000010000 .FVF           *20
 41000000 000000040000 .FVR           *20        95
 40000000 000000000010 .INDEXED       *20
 40000000 000000777777 .IXID          *20
 40000000 000000001777 .IXNUM         *20
 40000000 000000000004 .KEYED         *20
 40000000 000000010000 .LCK           *20
 40000000 000000400000 .LEIL          *20
 40000000 000000001000 .LG            *20
 40000000 000000000002 .LOAD          *20
 40000000 000000020000 .MAR           *20
 40000000 000000000007 .MEMT          *20
 40000000 000000010000 .MRL           *20
 40000000 000000040000 .MSM           *20
 60000000 000000000001 .N6685         *20
 40000000 000000100000 .NAI           *20
 40000000 000000200000 .NBI           *20
 40000000 000000000002 .NCIA          *20
 40000000 000000040000 .NMV           *20
 40000000 000000017777 .NOENT         *20
 40000000 000000400000 .OA            *20
 40000000 000000740000 .OPEV          *20
 40000000 000000100000 .OSM           *20
 40000000 000000100000 .PAFIL         *20
 40000000 000000200000 .PAHVR         *20
 12:44 09/05/97  FILE=ZIM$DBFD.:ZIC0TSI       SYMBOL TABLE                                               13   BMAP - B00
 40000000 000000000001 .PAIA          *20
 40000000 000000040000 .PALIL         *20
 40000000 000000020000 .PALVR         *20
 40000000 000000400000 .PANLL         *20
 40000000 000000400000 .PCKD          *20
 40000000 000000001600 .PMOD          *20
 40000000 000000000520 .PRCSE         *20
 40000000 000000000007 .PSTO          *20
 40000000 000000006040 .PTAS          *20
 40000000 000000010100 .PTCHK         *20
 40000000 000000010200 .PTDEC         *20
 40000000 000000010140 .PTENC         *20
 40000000 000000020000 .RA            *20
 41000000 000000100000 .RC            *20        67
 40000000 000000400000 .RELEASE       *20
 40000000 000000000017 .RELT          *20
 40000000 000000004000 .RERA          *20
 40000000 000000400000 .RERS          *20
 40000000 000000010000 .RKEY          *20
 40000000 000000000077 .RNL           *20
 40000000 000000200000 .RSTO          *20
 40000000 000000007777 .RTYP          *20
 40000000 000000040000 .SC            *20
 40000000 000000000070 .SETM          *20
 40000000 000000740000 .SETO          *20
 40000000 000000000700 .SETT          *20
 40000000 000000040000 .SFNP          *20
 40000000 000000004000 .SM            *20
 40000000 000000020000 .SMOD          *20
 40000000 000000000077 .SNL           *20
 40000000 000000020000 .SNSS          *20
 40000000 000000010000 .SO            *20
 41000000 000000100000 .SR            *20        71
 40000000 000000004000 .SRCR          *20
 40000000 000000001000 .SS            *20
 40000000 000000000007 .SSTP          *20
 40000000 000000004000 .SYN           *20
 12:44 09/05/97  FILE=ZIM$DBFD.:ZIC0TSI       SYMBOL TABLE                                               14   BMAP - B00
 40000000 000000000040 .SYNC          *20
 40000000 000000020000 .TJRNL         *20
 40000000 000000040000 .TMPLT         *20
 40000000 000000040000 .TRACE         *20
 40000000 000000000001 .TRENTRY       *20
 40000000 000000000012 .TRIDEL        *20
 40000000 000000000021 .TRIDELENQ     *20
 40000000 000000000024 .TRIDEQ        *20
 40000000 000000000013 .TRIMOD        *20
 40000000 000000000022 .TRIMODENQ     *20
 40000000 000000000014 .TRIREAD       *20
 40000000 000000000023 .TRIREADENQ    *20
 40000000 000000000011 .TRISTO        *20
 40000000 000000000020 .TRISTOENQ     *20
 40000000 000000000017 .TRPDEQ        *20
 40000000 000000000004 .TRPMOD        *20
 40000000 000000000016 .TRPMODENQ     *20
 40000000 000000000002 .TRPREAD       *20
 40000000 000000000015 .TRPREADENQ    *20
 40000000 000000000003 .TRPWRITE      *20
 40000000 000000000010 .TRRACC        *20
 40000000 000000000006 .TRRDEL        *20
 40000000 000000000007 .TRRMOD        *20
 40000000 000000000005 .TRRSTO        *20
 40000000 000000004000 .ULCK          *20
 40000000 000000400000 .UPDT          *20
 40000000 000000000040 .VIA           *20
 61000000 000000000001 A              *20        65       132
 40000000 000000000002 ABAS           *20
 40000000 000000000001 AC             *20
 40000000 777777777760 ACDEF          *20
 40000000 000000211070 ACDNL          *20
 40000000 000000000003 ACID           *20
 40000000 000000001016 ACOPN          *20
 40000000 000000000002 ACP            *20
 41000000 000000000005 ACPTR          *20        87       147
 40000000 000000000002 ACRAH          *20
 12:44 09/05/97  FILE=ZIM$DBFD.:ZIC0TSI       SYMBOL TABLE                                               15   BMAP - B00
 41000000 000000000001 ACRAN          *20       216
 40000000 000000001003 ACREC          *20
 40000000 000000000001 ACTDBCB        *20
 40000000 000000000002 ACTDBNO        *20
 40000000 000000001017 ACTP           *20
 40000000 000000000000 ACTSSS         *20
 40000000 000000000000 ACTSZ          *20
 00101000 000000000100 ADR           *120
 40000000 000000210565 AFNP           *20
 40000000 000000000635 AFT            *20
 40000000 000000022124 AIR            *20
 40000000 000000000016 AMAX           *20
 40000000 000000000026 ANAM           *20
 40000000 000000021614 ANR            *20
 40000000 000000000001 APNO           *20
 41000000 000000210562 ARGER          *20       134
 41000000 000000000020 ARGS           *20
 40000000 000000000077 ARGS2          *20
 40000000 000000210713 ARNAF          *20
 40000000 000000000003 ATBL           *20
 40000000 000000000000 ATRIB          *20
 40000000 000000000002 AVLN           *20
 40000000 000000000013 AWS$           *20
 40000000 000000000010 AWSZ           *20
 60000000 000000000001 B              *20
 40000000 000000001006 B32N           *20
 40000000 000000001007 B36N           *20
 40000000 000000001056 B72N           *20
 40000000 000000000001 BADDR          *20
 40000000 000000210712 BADSEED        *20
 40000000 777777777765 BDCW           *20
 40000000 000000000633 BEF            *20
 40000000 000000020000 BEFW           *20
 40000000 000000000751 BEMT           *20
 40000000 777777777761 BID            *20
 40000000 777777777762 BIND           *20
 40000000 000000000007 BLKD           *20
 12:44 09/05/97  FILE=ZIM$DBFD.:ZIC0TSI       SYMBOL TABLE                                               16   BMAP - B00
 40000000 000000303331 BME02          *20
 41000000 000000001203 BMPB           *20
 40000000 000000000652 BN1            *20
 40000000 000000000654 BN2            *20
 40000000 000000000004 BPL            *20
 40000000 000000000015 BPLDBK         *20
 40000000 000000000034 BSPG           *20
 40000000 777777777763 BSTAT          *20
 40000000 000000000750 BTX0           *20
 41000000 000000001160 BUF4           *20
 41000000 000000001170 BUF6           *20
 41000000 000000000000 BUFORG         *20
 40000000 000000001060 BUFRQ          *20
 40000000 000000000006 BURRID         *20
 41000000 000000000020 BWASZ          *20
 60000000 000000000001 C              *20
 40000000 000000000050 CAAC           *20
 40000000 000000000050 CACD           *20
 40000000 000000000111 CAG            *20
 40000000 000000001033 CAL            *20
 01101000 000000000112 CALE4           68      *133
 40000000 000000000026 CALLPM0        *20
 40000000 000000000003 CANSSS         *20
 40000000 000000000003 CBCPA          *20
 40000000 000000000002 CBCPO          *20
 40000000 000000000002 CBENO          *20
 40000000 000000000014 CBFSZ          *20
 40000000 000000000753 CBIB           *20
 40000000 000000001030 CBID           *20
 40000000 000000000014 CBRCE          *20
 40000000 000000000014 CBRCP          *20
 40000000 000000001033 CBRID          *20
 40000000 000000000015 CBRPA          *20
 40000000 000000000031 CCHAR          *20
 40000000 000000000040 CDBK           *20
 40000000 000000000030 CDES           *20
 40000000 000000000110 CDP            *20
 12:44 09/05/97  FILE=ZIM$DBFD.:ZIC0TSI       SYMBOL TABLE                                               17   BMAP - B00
 40000000 000000001044 CDPSI          *20
 40000000 000000000002 CDRH           *20
 40000000 000000000003 CDRN           *20
 40000000 000000000002 CDSH           *20
 40000000 000000000003 CDSN           *20
 40000000 000000000722 CENTRN         *20
 40000000 000000000722 CENTRO         *20
 40000000 000000000716 CENTRY         *20
 41000000 000000001053 CFCT           *20
 40000000 000000000670 CFLPT1         *20
 40000000 000000000672 CFLPT2         *20
 40000000 000000000015 CFSA           *20
 40000000 000000000646 CHDBK          *20
 40000000 000000000773 CHR            *20
 40000000 000000000006 CHRD           *20
 40000000 000000000772 CHRO           *20
 40000000 000000007640 CHRTP          *20
 40000000 000000001043 CIAC           *20
 40000000 000000000012 CIAWS          *20
 40000000 000000001051 CIBSI          *20
 40000000 000000000516 CIND           *20
 40000000 000000001041 CINVSZ         *20
 40000000 000000001042 CIPG           *20
 40000000 000000001050 CIPSI          *20
 40000000 000000000000 CIRUN          *20
 40000000 000000000002 CIRWS          *20
 40000000 000000000002 CISWS          *20
 40000000 000000000014 CIWSOF         *20
 40000000 000000303374 CKSM           *20
 40000000 000000000022 CLCN           *20
 40000000 000000000023 CLCP           *20
 40000000 000000000003 CLCRC          *20
 40000000 000000000003 CLCSC          *20
 40000000 000000000237 CLI            *20
 40000000 000000000026 CLNG           *20
 40000000 000000000052 CMPL           *20
 40000000 000000000002 CN             *20
 12:44 09/05/97  FILE=ZIM$DBFD.:ZIC0TSI       SYMBOL TABLE                                               18   BMAP - B00
 40000000 000000303315 CNE1           *20
 40000000 000000006034 CNUL           *20
 40000000 000000100000 COB74          *20
 40000000 000000000001 COFS           *20
 40000000 000000000045 CONCD          *20
 40000000 000000007764 CP6PGSZB       *20
 41000000 000000001775 CP6PGSZW       *20
 40000000 000000001000 CPGR           *20
 40000000 000000000723 CPTRN          *20
 40000000 000000000723 CPTRO          *20
 60000000 000000000004 CPW            *20
 40000000 000000000112 CRA            *20
 40000000 000000001004 CRD            *20
 40000000 000000000764 CREC           *20
 40000000 000000006344 CRIT           *20
 40000000 000000006200 CRNUL          *20
 40000000 000000007330 CRST           *20
 41000000 000000001223 CRUN           *20
 41000000 000000000000 CSECT          *20
 40000000 000000000007 CSMPP          *20
 40000000 000000001000 CSPAC          *20
 40000000 000000000004 CSPAH          *20
 40000000 777777777776 CSPES          *20
 40000000 777777777776 CSPSB          *20
 40000000 000000000115 CSTS           *20
 40000000 000000000071 CSUB           *20
 40000000 000000000017 CSZ            *20
 41000000 000000000057 CTMASK         *20        82       214
 40000000 000000000774 CTPAI          *20
 40000000 000000000240 CURLN          *20
 40000000 000000000236 CURLT          *20
 40000000 000000000770 CURPG          *20
 40000000 000000000001 CURR           *20
 40000000 000000000035 CURRS          *20
 40000000 000000000037 CURSS          *20
 40000000 000000001005 CWRT           *20
 40000000 000000000237 CWSOF          *20
 12:44 09/05/97  FILE=ZIM$DBFD.:ZIC0TSI       SYMBOL TABLE                                               19   BMAP - B00
 60000000 000000000001 D              *20
 40000000 000000000003 DBAN           *20
 40000000 000000000036 DBDR           *20
 40000000 000000000037 DBFN           *20
 40000000 000000000754 DBK            *20
 40000000 000000000777 DBKAC          *20
 41000000 000000000000 DBKEY          *20        77
 40000000 000000000000 DBKL           *20
 41000000 000000007474 DBKN           *20       127
 41000000 000000000776 DBKR           *20
 40000000 000000000777 DBKRQ          *20
 40000000 000000000234 DBKSI          *20
 40000000 000000000651 DBKSR          *20
 40000000 000000000047 DBKYN          *20
 40000000 000000210652 DBLC01         *20
 40000000 000000210653 DBLC05         *20
 40000000 000000303334 DBLC07         *20
 40000000 000000210655 DBLD01         *20
 40000000 000000000010 DBLIM          *20
 40000000 000000000033 DBPKY          *20
 40000000 000000000023 DBRN           *20
 40000000 000000000013 DBSN           *20
 40000000 000000000001 DBST           *20
 01101000 000000000105 DBZ             57      *126
 40000000 000000000757 DCDSR          *20
 40000000 000000210650 DCE1           *20
 40000000 000000001053 DCPR           *20
 40000000 000000001053 DCPW           *20
 40000000 000000000015 DCTBL          *20
 40000000 000000000032 DDBK           *20
 40000000 000000000006 DDCB           *20
 40000000 000000011754 DDI            *20
 41000000 000000000000 DEF            *20        66        70        94
 40000000 000000000014 DEF2           *20
 40000000 000000303413 DELAK          *20
 40000000 000000000036 DELRS          *20
 40000000 000000000732 DEPCW          *20
 12:44 09/05/97  FILE=ZIM$DBFD.:ZIC0TSI       SYMBOL TABLE                                               20   BMAP - B00
 40000000 000000303414 DLDBK          *20
 40000000 000000210627 DLE1           *20
 40000000 000000303310 DLE2           *20
 40000000 000000210631 DLE3           *20
 40000000 000000016040 DNES           *20
 40000000 777777777777 DPAGN          *20
 40000000 000000000020 DPPI           *20
 40000000 000000000053 DPSLW          *20
 40000000 000000000003 DS             *20
 40000000 000000001063 DSDES          *20
 40000000 000000303316 DSE1           *20
 40000000 000000000735 DUSEPA         *20
 61000000 000000000001 E              *20        92       150
 40000000 000000303251 EDPER          *20
 40000000 000000000026 EEIND          *20
 40000000 000000000713 EFIND          *20
 40000000 000000001030 ELO            *20
 40000000 000000210711 ENCPNA         *20
 40000000 000000000007 ENCRP          *20
 40000000 000000000752 ENDSR          *20
 40000000 000000210647 ENE1           *20
 40000000 000000000716 ENIND          *20
 40000000 000000000013 ENTBL          *20
 40000000 000000000710 ENTNO          *20
 40000000 000000000712 ENTPTR         *20
 40000000 000000000717 ENTSZ          *20
 40000000 000000000711 ENTTYP         *20
 40000000 000000004064 EOSR           *20
 40000000 000000000004 ES             *20
 41000000 000000000100 ESTSZ          *20
 40000000 000000000725 ESZ            *20
 40000000 000000000005 ETCADR         *20
 40000000 000000000005 ETCDBNO        *20
 40000000 000000000064 EXCCD          *20
 40000000 000000234534 FALRT          *20
 40000000 000000001055 FBF72          *20
 40000000 000000001025 FBU61          *20
 12:44 09/05/97  FILE=ZIM$DBFD.:ZIC0TSI       SYMBOL TABLE                                               21   BMAP - B00
 40000000 000000001020 FBUF           *20
 40000000 000000001026 FBUF1          *20
 40000000 000000001027 FBUF4          *20
 40000000 000000001024 FBUF6          *20
 40000000 000000001022 FBUFM          *20
 40000000 000000001021 FBUFU          *20
 40000000 000000001023 FBUMD          *20
 40000000 000000000004 FCN            *20
 40000000 000000000051 FCNT           *20
 40000000 000000000002 FCP            *20
 40000000 000000000047 FCSS           *20
 40000000 000000000005 FD             *20
 01101000 000000000117 FDAE1           72      *140
 40000000 000000210637 FDE1           *20
 40000000 000000303320 FDE2           *20
 40000000 000000303321 FDE3           *20
 40000000 000000210642 FDE4           *20
 40000000 000000210643 FDE5           *20
 40000000 000000210644 FDE6           *20
 40000000 000000303325 FDE7           *20
 40000000 000000303326 FDE8           *20
 01101000 000000000141 FDER2           78      *174
 01101000 000000000142 FDR1           125       131       138       144       149       154       160
                                      163       170       175      *179
 40000000 000000000021 FEASZ          *20
 40000000 000000000740 FETM           *20
 40000000 000000000006 FI             *20
 40000000 000000000103 FIAC           *20
 41000000 000000001100 FIB1           *20
 41000000 000000001130 FIBP           *20
 40000000 000000000000 FIBX           *20
 40000000 000000000102 FICNT          *20
 40000000 000000000005 FIPN           *20
 40000000 000000000054 FKIND          *20
 40000000 000000000015 FLAGS          *20
 40000000 000000000244 FLDDSC         *20
 40000000 000000000046 FLDTL          *20
 12:44 09/05/97  FILE=ZIM$DBFD.:ZIC0TSI       SYMBOL TABLE                                               22   BMAP - B00
 40000000 000000000020 FMSBF          *20
 40000000 000000000006 FNAM           *20
 40000000 000000000250 FNIND          *20
 40000000 000000000004 FNL            *20
 40000000 000000000101 FRAC           *20
 40000000 000000000002 FRANGE         *20
 40000000 000000211400 FRDNL          *20
 40000000 000000200000 FRTRN          *20
 40000000 000000000005 FRWSO          *20
 40000000 000000000767 FSLN           *20
 40000000 000000000766 FSOF           *20
 40000000 000000000060 FTIND          *20
 40000000 000000303240 FTLINCR        *20
 40000000 000000000021 FWSSZ          *20
 40000000 000000000246 GACDK          *20
 40000000 000000000014 GDCB           *20
 41000000 000000000006 GERROR         *20        78        88       112       114
 40000000 000000000016 GINHIB         *20
 40000000 000000000020 GIOAWS         *20
 40000000 000000000022 GIOBUF         *20
 40000000 000000000021 GIOPGNO        *20
 40000000 000000000015 GPAGE          *20
 40000000 000000000010 GRETAC         *20
 40000000 000000000011 GRETFR         *20
 40000000 000000000013 GRETRC         *20
 40000000 000000000012 GRETSC         *20
 01101000 000000000146 GRL1          *215       220
 41000000 000000000025 GRLCW          *20        61
 40000000 000000000014 GSTCD          *20
 40000000 000000000007 GSYSERR        *20
 40000000 000000000010 GT             *20
 40000000 000000000046 GTRNAME        *20
 40000000 000000000055 GTRPDCB        *20
 40000000 000000000056 GTRPNO         *20
 40000000 000000000057 GTRRDBK        *20
 40000000 000000000060 GTRRTYPE       *20
 40000000 000000000060 GTRTYPE        *20
 12:44 09/05/97  FILE=ZIM$DBFD.:ZIC0TSI       SYMBOL TABLE                                               23   BMAP - B00
 40000000 000000000027 HASH           *20
 40000000 000000000022 HIA            *20
 40000000 000000000775 HIDB           *20
 40000000 000000000003 HIGHDBK        *20
 40000000 000000000004 HIGHPG         *20
 40000000 000000001037 HIL            *20
 40000000 000000000002 HILN           *20
 40000000 000000000006 HPOS           *20
 40000000 000000000756 IAAC           *20
 40000000 000000001011 IACLN          *20
 40000000 000000001010 IALC           *20
 40000000 000000010314 IAN            *20
 40000000 000000001012 IANLN          *20
 40000000 000000000001 IASID          *18
 40000000 000000020320 ICA            *20
 40000000 000000000023 ICKSMP         *20
 40000000 000000000024 ICKSMV         *20
 40000000 000000210742 ICNR           *20
 41000000 000000000020 ICSIZ          *20
 40000000 000000010004 IDBK           *20
 40000000 000000012120 IDI            *20
 40000000 000000000023 IDS            *20
 40000000 000000000011 IF             *20
 40000000 000000000021 IFIPN          *20
 40000000 000000000000 IFR            *20
 40000000 000000234546 IKSEQ          *20
 40000000 000000000113 INAFLAG        *20
 40000000 000000000016 INCHA          *20
 40000000 000000210566 INNM           *20
 40000000 000000210567 INSS           *20
 40000000 000000210575 INSST          *20
 40000000 000000303241 INTER          *20
 40000000 000000400000 INTII          *20
 40000000 000000000013 INTVL          *20
 40000000 000000001060 INVFLG         *20
 40000000 000000001043 INVOF          *20
 40000000 000000000014 INVT           *20
 12:44 09/05/97  FILE=ZIM$DBFD.:ZIC0TSI       SYMBOL TABLE                                               24   BMAP - B00
 40000000 000000000034 IOBLK          *20
 40000000 000000303354 IOCLSD         *20
 40000000 000000303355 IOCLSK         *20
 40000000 000000303257 IOE1           *20
 40000000 000000303264 IOE11          *20
 40000000 000000303265 IOE12          *20
 40000000 000000303266 IOE18          *20
 40000000 000000303260 IOE2           *20
 40000000 000000303261 IOE3           *20
 40000000 000000303262 IOE7           *20
 40000000 000000303263 IOE8           *20
 40000000 000000303363 IOFLSH         *20
 40000000 000000210676 IOGDCB         *20
 40000000 000000001002 IOINC          *20
 40000000 000000305160 IOINI          *20
 40000000 000000305155 IONOTIDS       *20
 40000000 000000305154 IONOTKEY       *20
 40000000 000000210677 IOOPND         *20
 40000000 000000210700 IOOPNK         *20
 40000000 000000303361 IORDD          *20
 40000000 000000305156 IOSCHEMA       *20
 40000000 000000001052 IOSTS          *20
 40000000 000000303362 IOWRTD         *20
 41000000 000000000750 IOWS           *20
 40000000 000000000647 IPC            *20
 40000000 000000000650 IPCF           *20
 40000000 000000000006 IROLLFLAG      *20
 41000000 000000010150 IRSN           *20       141       162       227
 40000000 000000000004 ISYSDCB        *20
 40000000 000000000005 ISYSERR        *20
 40000000 000000000061 ITPTR          *20
 40000000 000000000060 ITRS           *20
 40000000 000000021760 IUM            *20
 40000000 000000000017 IUSZ           *20
 40000000 000000234522 IVDBK          *20
 40000000 000000000011 IXBUF$         *20
 40000000 000000000046 IXFBSZ         *20
 12:44 09/05/97  FILE=ZIM$DBFD.:ZIC0TSI       SYMBOL TABLE                                               25   BMAP - B00
 40000000 777777777776 IXID           *20
 40000000 777777777777 IXPLL          *20
 40000000 000000000523 KCARG0         *20
 40000000 000000000524 KCARG3         *20
 40000000 000000000525 KCARG4         *20
 40000000 000000000700 KCREG          *20
 40000000 000000000006 KDCB           *20
 40000000 000000000666 KEYDS          *20
 40000000 000000000010 KEYPA          *20
 40000000 777777777776 KLNG           *20
 40000000 000000000022 KPASZ          *20
 40000000 000000000006 KWSZ           *20
 40000000 000000000052 LANGC          *20
 40000000 000000001014 LAS            *20
 40000000 000000700000 LCODM          *20
 40000000 000000001045 LDPSI          *20
 40000000 000000001071 LINPT          *20
 40000000 000000001017 LNCNT          *20
 40000000 000000000762 LNNO           *20
 40000000 000000001036 LOL            *20
 40000000 000000000715 LOLIM          *20
 40000000 000000000023 LPASZ          *20
 40000000 000000000012 LPP            *20
 41000000 000000257764 LR             *20       157
 40000000 000000301270 LRA            *20
 40000000 000000000017 LRSZ           *20
 40000000 000000001035 LSPC           *20
 40000000 000000000750 LUPD           *20
 61000000 000000000001 M9             *20
 40000000 000000000013 MD             *20
 40000000 000000300000 MDQS           *20
 40000000 000000000730 MEMPTR         *20
 40000000 000000000727 MEMTYP         *20
 40000000 000000000045 MODCD          *20
 41000000 000000001207 MODFL          *20
 40000000 000000000042 MODFR          *20
 40000000 000000000044 MODIN          *20
 12:44 09/05/97  FILE=ZIM$DBFD.:ZIC0TSI       SYMBOL TABLE                                               26   BMAP - B00
 40000000 000000000044 MODRS          *20
 40000000 000000000043 MODSC          *20
 40000000 000000000047 MRBKI          *20
 40000000 000000210632 MRE4           *20
 40000000 000000303313 MRE5           *20
 40000000 000000210634 MRE7           *20
 40000000 000000400000 MW             *20
 40000000 000000000025 NCH            *20
 40000000 000000000002 NCHA           *20
 40000000 000000000005 NCHRS          *20
 40000000 000000000014 NDCD           *20
 40000000 000000000012 NENC           *20
 40000000 000000000634 NEW            *20
 40000000 000000001072 NEWSIZ         *20
 40000000 000000235164 NKA            *20
 40000000 000000235020 NKDB           *20
 40000000 000000303415 NLDBK          *20
 40000000 777777777777 NLIND          *20
 40000000 000000001040 NLN            *20
 40000000 000000400000 NLNSA          *20
 41000000 000000001053 NOBF           *20
 40000000 000000000711 NOPTRS         *20
 40000000 000000000742 NPARCW         *20
 40000000 000000000630 NPIND          *20
 40000000 000000000004 NPOS           *20
 01101000 000000000023 NRC4            64       *73
 01101000 000000000037 NRC5            81       *85
 40000000 000000234510 NSA            *20
 40000000 000000234654 NSCS           *20
 40000000 000000234344 NSDB           *20
 40000000 000000000001 NSTS           *20
 40000000 000000000726 NUMENT         *20
 40000000 000000000727 NUMPTR         *20
 40000000 777777777760 NXBUF          *20
 40000000 000000000713 NXPRI          *20
 40000000 000000000771 NXTC           *20
 40000000 000000000001 OAACN          *20
 12:44 09/05/97  FILE=ZIM$DBFD.:ZIC0TSI       SYMBOL TABLE                                               27   BMAP - B00
 40000000 000000000022 OACIWSOF       *20
 40000000 000000000001 OAOFST         *20
 40000000 000000000002 OARCN          *20
 40000000 000000000001 OASCN          *20
 40000000 000000000014 OD             *20
 40000000 000000000074 ODBK           *20
 40000000 000000001072 OLDSIZ         *20
 40000000 000000000101 OPADP          *20
 40000000 000000000741 OPARCW         *20
 40000000 000000210570 ORDNI          *20
 40000000 777777777777 OTVL           *20
 40000000 000000000252 OWNPTR         *20
 40000000 000000000016 PABUF          *20
 40000000 000000001041 PACD           *20
 40000000 000000000001 PACW           *20
 40000000 000000000733 PADBK          *20
 40000000 000000000740 PADUP          *20
 40000000 000000000745 PAEN           *20
 40000000 000000000745 PAEO           *20
 40000000 000000000734 PAEOF          *20
 40000000 000000303336 PAER1          *20
 40000000 000000303337 PAER2          *20
 40000000 000000303340 PAER3          *20
 40000000 000000303341 PAER4          *20
 40000000 000000303342 PAER5          *20
 40000000 000000303343 PAER6          *20
 40000000 000000000747 PAESZ          *20
 40000000 000000001060 PAFLG          *20
 40000000 000000000731 PAOPTR         *20
 40000000 000000000734 PAPOF          *20
 40000000 000000000714 PARCW          *20
 40000000 000000000726 PARVPA         *20
 40000000 000000000724 PASPLT         *20
 40000000 000000000004 PAWSZ          *20
 40000000 777777777762 PBUF           *20
 40000000 000000000020 PC             *20
 41000000 000000000510 PCB            *20
 12:44 09/05/97  FILE=ZIM$DBFD.:ZIC0TSI       SYMBOL TABLE                                               28   BMAP - B00
 40000000 000000000642 PCD            *20
 40000000 000000000642 PCD2           *20
 40000000 000000000247 PCEXI          *20
 40000000 000000000675 PCMIN          *20
 40000000 000000004541 PCOMP          *20
 40000000 000000000010 PD             *20
 40000000 000000000040 PE             *20
 40000000 000000000017 PENDING        *20
 41000000 000000000004 PF             *20       109
 40000000 000000000400 PFG            *20
 40000000 000000000200 PFM            *20
 40000000 000000000100 PFS            *20
 40000000 000000000400 PG             *20
 40000000 000000001064 PGHD           *20
 40000000 000000000006 PGLIM          *20
 40000000 000000000003 PGRNG          *20
 40000000 000000000746 PGSIZE         *20
 40000000 000000000641 PGSPLT         *20
 40000000 000000000100 PKAW           *20
 40000000 000000001034 PLO            *20
 40000000 000000000004 PLSEP          *20
 40000000 000000000200 PM             *20
 40000000 000000001054 PNEOO          *20
 40000000 000000001047 POFSI          *20
 40000000 000000000005 PPOS           *20
 41000000 000000000000 PR0            *18        54        56        58        60        62
 41000000 000000000001 PR1            *18        55        63
 40000000 000000000002 PR2            *18
 40000000 000000000003 PR3            *18
 40000000 000000000004 PR4            *18
 41000000 000000000005 PR5            *18        61        78        88       112       114
 41000000 000000000006 PR6            *18        66        70        83        93        94       107
                                      216       218       219
 41000000 000000000007 PR7            *18        74        76        77        80        82        86
                                       87        89        90        97       100       103       104
                                      105       108       147       212       214       222
 40000000 000000303267 PRE1           *20
 12:44 09/05/97  FILE=ZIM$DBFD.:ZIC0TSI       SYMBOL TABLE                                               29   BMAP - B00
 40000000 000000303277 PRE10          *20
 40000000 000000303270 PRE3           *20
 40000000 000000303271 PRE4           *20
 40000000 000000303272 PRE5           *20
 40000000 000000210613 PRE6           *20
 40000000 000000210614 PRE7           *20
 40000000 000000210615 PRE8           *20
 40000000 000000303276 PRE9           *20
 40000000 000000000522 PREXC          *20
 40000000 000000000521 PRFR           *20
 40000000 000000000521 PRFR2          *20
 41000000 000000000000 PRIV           *20       108
 40000000 000000000526 PROPA          *20
 41000000 000000000517 PRRC           *20        74        80
 40000000 000000000517 PRRS           *20
 40000000 000000000520 PRSC           *20
 40000000 000000000516 PRSS           *20
 40000000 000000000644 PRSTS          *20
 01101000 000000000132 PRVE1          110      *156
 40000000 000000000100 PS             *20
 41000000 000000000000 PS0SID         *18
 41000000 000000000001 PS1SID         *18
 41000000 000000000002 PS2SID         *18
 41000000 000000000003 PS3SID         *18
 41000000 000000000004 PS4SID         *18
 41000000 000000000005 PS5SID         *18        54
 40000000 000000000006 PS6SID         *18
 40000000 000000303416 PSA            *20
 40000000 000000000020 PSC            *20
 40000000 000000000010 PSD            *20
 40000000 000000000004 PSF            *20
 40000000 000000000400 PSO            *20
 40000000 000000000720 PTESZ          *20
 40000000 000000000631 PTR            *20
 40000000 000000000724 PTRESZ         *20
 40000000 000000000710 PTRNO          *20
 41000000 000000000630 PWS            *20
 12:44 09/05/97  FILE=ZIM$DBFD.:ZIC0TSI       SYMBOL TABLE                                               30   BMAP - B00
 40000000 000000000002 RADDR          *20
 40000000 000000000010 RADIX          *20
 40000000 000000000005 RAPTR          *20
 40000000 000000000004 RAWSOF         *20
 40000000 777777777766 RBA            *20
 40000000 000000023432 RCBI           *20
 40000000 000000211234 RCDNL          *20
 01101000 000000000136 RCER1           88      *161
 01101000 000000000123 RCER2           84      *145
 40000000 000000000005 RCFRH          *20
 40000000 000000000004 RCFRN          *20
 40000000 000000001075 RCHD           *20
 40000000 000000000001 RCID           *20
 01101000 000000000155 RCNF1          217      *226
 41000000 000000000006 RCPTR          *20        90
 41000000 000000000002 RCRAH          *20       218
 40000000 000000000001 RCRAN          *20
 40000000 000000000003 RCRSH          *20
 40000000 000000000002 RCRSN          *20
 40000000 000000210667 RCVER1         *20
 40000000 000000210670 RCVER2         *20
 40000000 000000210671 RCVER4         *20
 40000000 000000210672 RCVER5         *20
 40000000 000000210673 RCVER6         *20
 40000000 000000000736 RCW1           *20
 40000000 000000000737 RCW2           *20
 41000000 000000000004 RCWSO          *20       107
 40000000 000000000077 RDAC           *20
 40000000 000000000076 RDCNT          *20
 40000000 000000040000 RDI            *20
 41000000 000000015674 RDLT           *20       121
 40000000 000000000075 RDYCW          *20
 40000000 000000000066 RECAC          *20
 40000000 000000000065 RECFR          *20
 40000000 000000000070 RECRC          *20
 40000000 000000000067 RECSC          *20
 41000000 000000000003 RECSZ          *20        97       100
 12:44 09/05/97  FILE=ZIM$DBFD.:ZIC0TSI       SYMBOL TABLE                                               31   BMAP - B00
 40000000 000000000235 REMLT          *20
 40000000 000000000062 REM_RECOVER    *20
 40000000 000000000251 RETFR          *20
 40000000 000000210724 RFDNL          *20
 40000000 000000017644 RIM            *20
 40000000 000000000005 RNAM           *20
 40000000 000000015706 RNDLT          *20
 40000000 000000000662 RNG1           *20
 40000000 000000000664 RNG2           *20
 40000000 000000000073 RNGD           *20
 40000000 000000000072 RNGO           *20
 40000000 000000000660 RNGTAL         *20
 40000000 000000020154 RNM            *20
 40000000 000000000041 ROCUR          *20
 40000000 000000000001 ROFST          *20
 40000000 000000002114 ROLL           *20
 40000000 000000020010 RPM            *20
 40000000 000000000001 RSCDH          *20
 40000000 000000000001 RSCDN          *20
 40000000 000000211710 RSDNL          *20
 41000000 000000004540 RSEE           *20       146
 41000000 000000000003 RSIZ           *20        93
 40000000 000000000110 RSPAM          *20
 40000000 000000000004 RSPTR          *20
 40000000 000000000037 RSREQ          *20
 40000000 000000000002 RSSSH          *20
 40000000 000000000001 RSSSN          *20
 41000000 000000210574 RSZER          *20       152
 40000000 000000000632 RSZTP          *20
 40000000 000000000003 RTP            *20
 41000000 000000000003 RTYP           *20        83       219
 40000000 000000000530 RV1            *20
 40000000 000000000550 RV2            *20
 40000000 000000000570 RV3            *20
 40000000 000000000610 RV4            *20
 41000000 000000000003 RVASID         *18        55
 41000000 000000000510 RVI            *20        76        86        89       103       105
 12:44 09/05/97  FILE=ZIM$DBFD.:ZIC0TSI       SYMBOL TABLE                                               32   BMAP - B00
 41000000 000000000511 RVO            *20       104
 40000000 000000000513 RVPA           *20
 40000000 000000000512 RVT            *20
 40000000 000000000022 RVTAL          *20
 40000000 000000000002 RWSZ           *20
 40000000 000000000015 RY             *20
 40000000 000000210620 RYE1           *20
 40000000 000000210621 RYE4           *20
 40000000 777777777767 SA             *20
 40000000 000000000005 SANAM          *20
 40000000 000000001062 SCDES          *20
 40000000 000000211544 SCDNL          *20
 40000000 000000000024 SCFC           *20
 40000000 000000000002 SCID           *20
 40000000 000000000024 SCLST          *20
 40000000 000000000004 SCNAM          *20
 40000000 000000000004 SCPTR          *20
 40000000 000000000003 SCRSH          *20
 40000000 000000000002 SCRSN          *20
 40000000 000000000001 SCWSO          *20
 40000000 000000001225 SFWS           *20
 40000000 000000001073 SIZCHG         *20
 40000000 000000000645 SKFLG          *20
 40000000 000000000643 SKIND          *20
 40000000 000000000641 SKTYP          *20
 40000000 000000020464 SMCR           *20
 40000000 000000000003 SNAM           *20
 40000000 000000000107 SNIND          *20
 40000000 000000000735 SNPAE          *20
 40000000 000000001046 SNSI           *20
 40000000 000000000743 SOE            *20
 40000000 000000020630 SORSA          *20
 40000000 000000004374 SOSE           *20
 40000000 000000000000 SPAV           *20
 40000000 000000000744 SPCAVN         *20
 40000000 000000000744 SPCAVO         *20
 40000000 000000000765 SPLF           *20
 12:44 09/05/97  FILE=ZIM$DBFD.:ZIC0TSI       SYMBOL TABLE                                               33   BMAP - B00
 41000000 000000000765 SPND           *20
 40000000 000000000006 SSDT           *20
 40000000 000000303243 SSER           *20
 40000000 000000303244 SSER1          *20
 40000000 000000000002 SSH            *20
 40000000 000000000005 SSNAM          *20
 40000000 000000210573 SSNF           *20
 40000000 000000210576 SSNV           *20
 40000000 000000000020 SSSPTR         *20
 40000000 000000000010 SSVDT          *20
 40000000 000000000033 SSZTP          *20
 40000000 000000000017 ST             *20
 40000000 000000000104 STBIN          *20
 40000000 000000000105 STDEC          *20
 40000000 000000303302 STE1           *20
 40000000 000000303303 STE2           *20
 40000000 000000210624 STE3           *20
 40000000 000000303305 STE4           *20
 40000000 000000303306 STE5           *20
 00101000 000000000140 STER1         *169
 41000000 000000000100 STKSIZ         *20
 40000000 000000000055 STMASK         *20
 40000000 000000000062 SUST           *20
 41000000 000000000020 SWS            *20
 40000000 000000000000 SWSAC          *20
 40000000 000000000002 SWSZ           *20
 40000000 000000000000 SYSSF          *20
 01101000 000000000127 SZE6            98       101      *151
 40000000 000000000765 SZREQ          *20
 40000000 000000000004 TBUF           *20
 40000000 000000001061 TCTRS          *20
 60000000 000000000000 TDS            *20
 41000000 000000000113 TEMP           *20
 40000000 000000000640 TFLD           *20
 40000000 000000000657 TFLD2          *20
 40000000 000000000056 TMASK          *20
 40000000 000000000061 TMODE          *20
 12:44 09/05/97  FILE=ZIM$DBFD.:ZIC0TSI       SYMBOL TABLE                                               34   BMAP - B00
 40000000 000000000676 TMPPA          *20
 40000000 000000000003 TPAI           *20
 40000000 000000500000 TPRCOD         *20
 40000000 000000001031 TSFN           *20
 40000000 000000000021 TSI            *20
 40000000 000000001013 UBRD2          *20
 41000000 000000001223 UBSZ           *20
 40000000 000000000667 UCADR          *20
 01101000 000000000140 UCER4          112      *167
 40000000 000000000036 UCRS           *20
 40000000 000000000024 UFSPK          *20
 40000000 000000000024 UFSPK2         *20
 40000000 000000000715 ULIM           *20
 40000000 000000004230 UNA            *20
 40000000 000000303417 UNIM           *20
 40000000 000000000002 UOFST          *20
 40000000 000000001035 UPACD          *20
 40000000 000000000721 UPACW          *20
 40000000 000000000007 UPFLAG         *20
 40000000 000000000103 UPPAI          *20
 40000000 000000000004 UPTSID         *18
 01101000 000000000140 USRE2          114      *168
 40000000 000000000674 USTAT          *20
 40000000 000000000002 UWASID         *18
 40000000 000000000002 UWSSZ          *20
 40000000 000000000020 UWSZ           *20
 40000000 000000000243 VFDSC          *20
 40000000 000000001070 VFDSR          *20
 40000000 000000000656 VFLD           *20
 40000000 000000001074 VFLNG          *20
 40000000 000000001124 VIB1           *20
 40000000 000000001154 VIBP           *20
 41000000 000000000000 VLPSID         *18        58
 40000000 000000001074 VRSIZ          *20
 40000000 000000001067 WLOA           *20
 40000000 000000100000 WRTI           *20
 40000000 000000000000 WSBID          *20
 12:44 09/05/97  FILE=ZIM$DBFD.:ZIC0TSI       SYMBOL TABLE                                               35   BMAP - B00
 40000000 000000000003 WSOF           *20
 41000000 000000000000 X0             *18        87       122       128       135       142       147
                                      158
 41000000 000000000001 X1             *18        66        67        70        71        78        88
                                       93        97       100       107       108       109       112
                                      114       212       222
 40000000 000000000002 X2             *18
 41000000 000000000003 X3             *18        76        86        89
 41000000 000000000004 X4             *18       213       216
 40000000 000000000005 X5             *18
 41000000 000000000006 X6             *18       123       129       136       143       148       153
                                      159       228
 03201004 000000000000 X66_ARET       *18       116
 03201003 000000000000 X66_AUTO_0     *18        52
 41000000 000000000007 X7             *18        62        63        74        80        90       124
                                      130       137       218       229
 40000000 000000210665 XASL           *20
 40000000 000000303420 XLD            *20
 40000000 000000303421 XPD            *20
 40000000 000000000676 XPRS           *20
 40000000 000000210666 XROLL          *20
 40000000 000000210664 XUNEX          *20
 40000000 777777777777 XXDPN          *20
 03201005 000000000000 ZIB$DBALT     *179
 03201006 000000000000 ZIB$ICALT     *230
 12101000 000000000000 ZIG$DBFDR       11       *51
 03201000 000000000000 ZIG$DBPFD      *14        78
 03201001 000000000000 ZIG$DBUPC      *15       112
 03201002 000000000000 ZIG$DBUSR      *16       114
 13101000 000000000143 ZIQ$DBGRC       12        88      *211

     946 SYMBOLS

 12:44 09/05/97  FILE=ZIM$DBFD.:ZIC0TSI       MACRO TABLE                                                36   BMAP - B00
 CBSYM           20
 DBALT          179
 DBCAL           78        88       112       114
 DBRET          116
 DBSAV           52
 ICALT          230
 ICCAL           88       112
 ICRET          222
 ICSAV          212
 Q2SYM           20
 SSSYM           20

      37 MACROS

    SYMBOL SPACE USED  9058 WORDS
     MACRO SPACE USED 13055 WORDS
   INPUT RECORDS READ  2264
 STATEMENTS PROCESSED  2133
         ELAPSED TIME  0:10.28
             CPU TIME     9.86 SEC.
        ASSEMBLY RATE 12980 STATEMENTS/CPU MIN.

      NO ERRORS

