
 12:44 09/05/97  FILE=ZIM$DBFN.:ZIC0TSI                                                                  1    BMAP - B00
                                         1  *M*      ZIG$DBFN
                                         2  *T***********************************************************
                                         3  *T*                                                         *
                                         4  *T* Copyright (c) Bull HN Information Systems Inc., 1997    *
                                         5  *T*                                                         *
                                         6  *T***********************************************************

 12:44 09/05/97  FILE=ZIM$DBFN.:ZIC0TSI       H6600H2.521     IDS/II FIND REL. W/I SET       780113DBFN  2    BMAP - B00
                                         7         TTL     H6600H2.521     IDS/II FIND REL. W/I SET       780113DBFN
                                         8         CPR     1974
                                         9         PMC     OFF
                                        10  *
                                        11         ENTDEF  ZIG$DBFRS
                                        12  *
                                        13         ENTREF  ZIQ$DBGRC
                                        14         ENTREF  ZIG$DBPCR
                                        15         ENTREF  ZIG$DBPFD
                                        16         ENTREF  ZIG$DBPFN
                                        17         ENTREF  ZIG$DBPFP
                                        18           ENTREF      ZIM$IFIND
                                        19           ENTREF      ZIM$IFINDN
                                        20           ENTREF      ZIM$IFINDP
                                        21         ENTREF  ZIG$DBUPC            Updates Currencies
                                        22         ENTREF  ZIG$DBUSR
                                        23  *
                                        24         LODM    Q2MA
                                        25  *
                                        26         Q2SYM

 12:44 09/05/97  FILE=ZIM$DBFN.:ZIC0TSI       IDS-II  FIND RELATIVE WITHIN SET                           3    BMAP - B00
                                        27         TTLS    IDS-II  FIND RELATIVE WITHIN SET
                                        28  ****************************************************************
                                        29  *
                                        30  *  - DBFRS -
                                        31  *
                                        32  *      FIND.  Find a record relative to the current of a set.
                                        33  *
                                        34  *      Parameter   Description
                                        35  *      ---------   -----------
                                        36  *
                                        37  *          0       IA
                                        38  *          1       UWA
                                        39  *          2       FPT
                                        40  *
                                        41  *      FPT Format...
                                        42  *
                                        43  *      Word 0:  Find Control Word
                                        44  *          HW 0:  Record Location
                                        45  *              0  Prior
                                        46  *              1  Current
                                        47  *              2  Next
                                        48  *      Word 1:  RVA offset to a schema subset element which
                                        49  *          describes a data base record.  This argument will
                                        50  *          be zero if no record type is specified.
                                        51  *      Word 2:  RVA offset to a schema subset element which
                                        52  *          describes the set within which the record is to
                                        53  *          be found.
                                        54  *      Word 3:  Retention List Control Word.
                                        55  *      Words 4->M: Retention List.  RVA offsets to the
                                        56  *          schema subset elements which describe the sets
                                        57  *          for which currencies are to be retained.
                                        58  *
                                        59  ****************************************************************
                                        60  *
 0 000000                               61  ZIG$DBFRS NULL
   000000  X 000000 7000 00             62           DBSAV
   000001    000004 000000
 12:44 09/05/97  FILE=ZIM$DBFN.:ZIC0TSI       IDS-II  FIND RELATIVE WITHIN SET                           4    BMAP - B00
                                        63  *  GET THE ARGUMENTS
   000002    000000 4704 07             64         LDP    PR0,VLPSID,DL            VLP$
   000003    000004 2350 03             65           LDA      4,DU                 Retention list
   000004    0 00003 2751 00            66           ORA      3,,PR0               RLCW
   000005    5 00025 7551 00            67           STA      GRLCW,,PR5           Save it
   000006    000003 4714 07             68           LDP      PR1,RVASID,DL           RVA$
   000007    0 00002 2261 00            69         LDX     X6,2,,PR0            Get offset to SC pointer from FPT
   000010    1 00000 2261 16            70           LDX      X6,,X6,PR1           Get SC offset from RVA
   000011    0 00001 2271 00            71         LDX     X7,1,,PR0            Get offset to RC pointer from FPT
   000012    1 00000 2271 17            72           LDX      X7,,X7,PR1           Get RC offset from RVA
   000013 (0)000022 6000 00             73         TZE     NRC6                 B/ If no RC requested
                                        74         IFE     A,1,%CK1
   000014    6 00000 2211 17            75         LDX     X1,DEF,X7,PR6   GET DEF TYPE FROM RC
   000015    100000 3010 03             76         CANX    X1,.RC,DU       IS IT AN RC
   000016 (0)000256 6000 00             77         TZE     CALE6           NO - ERROR
                                        78  CK1    MARK
                                        79  *  CHECK THAT REC IS IN SUB-SCHEMA
   000017    6 00000 7211 17            80         LXL     X1,DEF,X7,PR6
   000020    100000 3010 03             81         CANX    X1,.SR,DU       IS REC IN SS
   000021    000246 6010 04             82         TNZ     FNE2,$          NO - ERROR
   000022                               83  NRC6   NULL
   000022    7 00517 7471 00            84         STX     X7,PRRC,,PR7    SAVE RC PTR IN PRIM. REQ.
                                        85         IFE     A,1,%CK1
   000023    6 00000 2211 16            86         LDX     X1,DEF,X6,PR6   GET DEF TYPE FROM SC
   000024    040000 3010 03             87         CANX    X1,.SC,DU       IS IT AN SC
   000025 (0)000256 6000 00             88         TZE     CALE6           NO - ERROR
                                        89  CK1    MARK
   000026    7 00520 7461 00            90         STX     X6,PRSC,,PR7    SAVE SC
                                        91  *  CHECK THAT SET IS IN SUB-SCHEMA
   000027    6 00000 7211 16            92         LXL     X1,DEF,X6,PR6
   000030    020000 3010 03             93         CANX    X1,.SNSS,DU     IS IT IN SS
   000031 (0)000034 6000 00             94         TZE     SETOK           YES-GO ON
   000032    6 00004 1061 00            95         CMPX    X6,OAOFST+CLCSC,,PR6  IS IT CALC SET
   000033 (0)000263 7100 00             96         TRA     FNE1            CHANGE TO TNZ TO ALLOW CALC SET
   000034                               97  SETOK  NULL
                                        98  *  CHECK SET PRIVACY
   000034    6 00001 2211 16            99         LDX     X1,SCWSO,X6,PR6  GET WORK SPACE OFST
 12:44 09/05/97  FILE=ZIM$DBFN.:ZIC0TSI       IDS-II  FIND RELATIVE WITHIN SET                           5    BMAP - B00
   000035    7 00000 2221 11           100           LDX      X2,PRIV,X1,PR7
   000036    000004 3020 03            101           CANX     X2,PSF,DU            Is privacy satisfied
   000037 (0)000310 6000 00            102           TZE      PRVE1                No.
   000040    7 00001 2361 11           103           LDQ      CURR,X1,PR7          Get current of set
   000041 (0)000304 6000 00            104           TZE      NCUR1                No current
   000042    7 00510 2231 00           105           LDX      X3,RVI,,PR7          Point to RVI
   000043    7 00000 7201 11           106           LXL      X0,SWSAC,X1,PR7      Get current area of set
   000044    6 00000 2221 10           107           LDX      X2,DEF,X0,PR6        Get def word
   000045    000010 3020 03            108           CANX     X2,.INDEXED,DU       Is it indexed
   000046 (0)000175 6010 00            109           TNZ      RIND                 Yes.
   000047    7 00000 2341 11           110         SZN     .CSE,X1,PR7     WAS CURR ERASED
   000050 (0)000055 6050 00            111         TPL     GFCR            NO - GO FIND CURRENT
   000051    0 00000 2221 00           112         LDX     X2,0,,PR0            Yes - Get Find Control Word from FPT
   000052    000003 3620 03            113         ANX     X2,3,DU         ISOLATE TYPE
   000053    000001 1020 03            114         CMPX    X2,1,DU         IS IT FIND CURRENT
   000054 (0)000304 6000 00            115         TZE     NCUR1           YES-ERROR-CURR WAS ERASED
   000055                              116  GFCR   NULL
   000055    7 01223 1161 00           117         CMPQ    CRUN,,PR7       IS IT ALSO CURR OF RUN
   000056 (0)000064 6010 00            118         TNZ     FCRS            NO
   000057  X 000000 7010 00            119         DBCAL   ZIG$DBPCR,,CRER1 FIND CURR OF RUN
   000060 (0)000321 7020 00
   000061    5 00006 2341 00
   000062    777776 6010 04
   000063 (0)000071 7100 00            120         TRA     GOW
   000064                              121  FCRS   NULL
   000064    7 00000 7561 13           122         STQ     DBKEY,X3,PR7    PUT IN REC VAR
   000065  X 000000 7010 00            123           DBCAL    ZIG$DBPFD,,PGER1
   000066 (0)000321 7020 00
   000067    5 00006 2341 00
   000070    777776 6010 04
   000071                              124  GOW    NULL
                                       125  *  IF PA SET, MOVE INFO ON PA RECORD OF CURR OF SET TO RVI
   000071    7 00520 2261 00           126         LDX     X6,PRSC,,PR7    GET SC PTR
   000072    6 00000 2201 16           127         LDX     X0,DEF,X6,PR6   GET SET MODE
   000073    000070 3600 03            128         ANX     X0,.SETM,DU     ISOLATE
   000074    000020 1000 03            129         CMPX    X0,=O20,DU      IS IT POINTER ARRAY
   000075 (0)000103 6010 00            130         TNZ     GTCR            NO
 12:44 09/05/97  FILE=ZIM$DBFN.:ZIC0TSI       IDS-II  FIND RELATIVE WITHIN SET                           6    BMAP - B00
   000076    6 00001 2211 16           131         LDX     X1,SCWSO,X6,PR6  GET SET WORKSPACE OFFSET
   000077    7 00510 2201 00           132         LDX     X0,RVI,,PR7     YES - SAVE PA INFO IN RVI
   000100    7 00002 2351 11           133         LDA     CBENO,X1,PR7    GET PA ENTRY & PTR OFFSETS
   000101    7 00003 2361 11           134         LDQ     CBCPA,X1,PR7    GET DBK OF OWNER PA RECORD
   000102    7 00014 7571 10           135         STAQ    CBRCE,X0,PR7    SAVE IN RVI
   000103                              136  GTCR   NULL
                                       137  *  GET OPTION WORD AND GO TO CORRECT ROUTINE
   000103    000000 4704 07            138         LDP    PR0,VLPSID,DL            VLP$
   000104    0 00000 2211 00           139         LDX     X1,0,,PR0            Get Find Control Word from FPT
   000105    000003 3610 03            140         ANX     X1,3,DU         ISOLATE TYPE
   000106 (0)000107 7100 11            141         TRA     *+1,X1          GO TO CORRECT ROUTINE
   000107 (0)000113 7100 00            142         TRA     PRIS            PRIOR
   000110 (0)000144 7100 00            143         TRA     CURS            CURRENT
   000111 (0)000170 7100 00            144         TRA     NXTS            NEXT
   000112 (0)000273 7100 00            145         TRA     ILOPT           ILLEGAL OPTION
                                       146  *  FIND PRIOR REC IN SET
   000113                              147  PRIS   NULL
   000113    7 00520 2261 00           148         LDX     X6,PRSC,,PR7    GET SC
   000114    6 00001 2211 16           149         LDX     X1,SCWSO,X6,PR6  GET WORK SPACE OFST
   000115    7 00000 2341 11           150         SZN     .CSE,X1,PR7     IS CURR = PRIOR
   000116    000021 6050 04            151         TPL     GTRS,$          NO - GO ON
                                       152  *              GET NEXT SO PRIOR WILL GET CORRECT REC
   000117    400000 2350 03            153         LDA     .B0,DU
   000120    7 00517 7551 00           154         STA     PRRC,,PR7
   000121  X 000000 7010 00            155         DBCAL   ZIG$DBPFN,LMEM,PGER4      FIND NEXT
   000122 (0)000321 7020 00
   000123    5 00006 2341 00
   000124    000003 6000 04
   000125    5 00006 4501 00
   000126 (0)000127 7020 00
   000127                              156  LMEM   NULL
   000127    7 00510 2371 00           157         LDAQ    RVI,,PR7        * REVERSE
   000130    7 00511 7551 00           158         STA     RVO,,PR7        *  IN AND OUT
   000131    7 00510 7561 00           159         STQ     RVI,,PR7        *   REC VAR
   000132    000000 4704 07            160         LDP    PR0,VLPSID,DL            VLP$
   000133    000003 4714 07            161           LDP      PR1,RVASID,DL           RVA$
   000134    0 00001 2271 00           162         LDX     X7,1,,PR0            Get offset to RC pointer from FPT
 12:44 09/05/97  FILE=ZIM$DBFN.:ZIC0TSI       IDS-II  FIND RELATIVE WITHIN SET                           7    BMAP - B00
   000135    1 00000 2271 17           163           LDX      X7,,X7,PR1           Get RC offset from RVA
   000136    7 00517 7471 00           164         STX     X7,PRRC,,PR7    PUT IN PRIM. REQ
   000137                              165  GTRS   NULL
   000137  X 000000 7010 00            166           DBCAL    ZIG$DBPFP,,PGER3
   000140 (0)000321 7020 00
   000141    5 00006 2341 00
   000142    777776 6010 04
   000143 (0)000237 7100 00            167         TRA     RECF            GO RETURN
                                       168  *  FIND CURRENT OF SET
   000144                              169  CURS   NULL
   000144    7 00510 2371 00           170         LDAQ    RVI,,PR7        * REVERSE
   000145    7 00511 7551 00           171         STA     RVO,,PR7        *  IN &
   000146    7 00510 7561 00           172         STQ     RVI,,PR7        *   OUT REC VAR
   000147    7 00511 2221 00           173         LDX     X2,RVO,,PR7     SET X2 TO REC VAR OUT
   000150    7 00003 2351 12           174         LDA     RTP,X2,PR7      GET TYPE OF REC FOUND
   000151    7 00517 2271 00           175         LDX     X7,PRRC,,PR7    GET RC REQUESTED
   000152 (0)000160 6000 00            176         TZE     NRC12           NONE REQUESTED
   000153    7 00057 2361 00           177         LDQ     CTMASK,,PR7     LOAD MASK
   000154    6 00003 2111 17           178         CMK     RTYP,X7,PR6     IS IT TYPE FOUND
   000155 (0)000300 6010 00            179         TNZ     RFNR            NO - ERROR
   000156    7 00006 7471 12           180         STX     X7,RCPTR,X2,PR7  SAVE RC PTR
   000157 (0)000237 7100 00            181         TRA     RECF
   000160                              182  NRC12  NULL
   000160    7 00005 2201 12           183         LDX     X0,ACPTR,X2,PR7  GET AC PTR
   000161  X 000000 7010 00            184         ICCAL   ZIQ$DBGRC,,RCNF1 GET RC
   000162 (0)000320 7020 00
   000163    5 00006 2341 00
   000164    777776 6010 04
   000165    7 00511 2221 00           185         LDX     X2,RVO,,PR7
   000166    7 00006 7471 12           186         STX     X7,RCPTR,X2,PR7  SAVE IN REC VAR OUT
   000167 (0)000237 7100 00            187         TRA     RECF            GO UPDATE CURRENCIES
                                       188  *  GET THE NEXT RECORD IN THE SET
   000170                              189  NXTS   NULL
   000170  X 000000 7010 00            190           DBCAL    ZIG$DBPFN,,PGER2
   000171 (0)000321 7020 00
   000172    5 00006 2341 00
   000173    777776 6010 04
 12:44 09/05/97  FILE=ZIM$DBFN.:ZIC0TSI       IDS-II  FIND RELATIVE WITHIN SET                           8    BMAP - B00
   000174 (0)000237 7100 00            191         TRA     RECF            GO RETURN
                                       192  *
                                       193  *  Find relative within indexed set handled here
                                       194  *
   000175                              195  RIND     NULL
   000175    7 00005 7401 13           196           STX      X0,ACPTR,X3,PR7      Save in RECVAR
   000176    7 00010 4715 00           197           LDP      PR1,KEYPA,,PR7       Key process area
   000177    7 00002 2351 11           198           LDA      CISWS,X1,PR7         Get length field
   000200    1 00000 7551 00           199           STA      0,,PR1               Set length in key process area
   000201    000033 7710 00            200           ARL      27                   Shift into place
   000202    000000 6360 11            201           EAQ      0,X1                 Into arithmetic register
   000203    000020 7320 00            202           QRS      16                   Change into bytes
   000204    000 0 140 1005 46         203           MLR      (1,1,,Q),(1,1)       Move
   000205    7 00002 2 0 0 0005        204           ADSC9    CISWS,1,A,PR7         From current of set
   000206    1 00000 2 0 0 0005        205           ADSC9    0,1,A,PR1              To key process area
                                       206  *  Parameters now set up for proper call
   000207    000000 4704 07            207           LDP      PR0,VLPSID,DL        VLP$
   000210    0 00000 2221 00           208           LDX      X2,0,,PR0            Get find control word
   000211    000003 3620 03            209           ANX      X2,3,DU              Isolate type
   000212 (0)000213 7100 12            210           TRA      *+1,X2               Go to correct routine
   000213 (0)000217 7100 00            211           TRA      IPRIS                Prior
   000214 (0)000224 7100 00            212           TRA      ICURS                Current
   000215 (0)000233 7100 00            213           TRA      INXTS                Next
   000216 (0)000273 7100 00            214           TRA      ILOPT                Illegal option
                                       215  *  Prior of indexed
   000217                              216  IPRIS    NULL
   000217  X 000000 7010 00            217           DBCAL    ZIM$IFINDP,,PGER4    Find prior
   000220 (0)000321 7020 00
   000221    5 00006 2341 00
   000222    777776 6010 04
   000223 (0)000237 7100 00            218           TRA      RECF
                                       219  *  Current of indexed
   000224                              220  ICURS    NULL
   000224    7 00000 2341 11           221           SZN      .CSE,X1,PR7          Is current erased
   000225 (0)000304 6044 00            222           TMOZ     NCUR1                Yes error
   000226  X 000000 7010 00            223           DBCAL    ZIM$IFIND,,PGER4     Find using current of set
   000227 (0)000321 7020 00
 12:44 09/05/97  FILE=ZIM$DBFN.:ZIC0TSI       IDS-II  FIND RELATIVE WITHIN SET                           9    BMAP - B00
   000230    5 00006 2341 00
   000231    777776 6010 04
   000232 (0)000237 7100 00            224           TRA      RECF
                                       225  *  Next of indexed
   000233                              226  INXTS    NULL
   000233  X 000000 7010 00            227           DBCAL    ZIM$IFINDN,,PGER4    Find next
   000234 (0)000321 7020 00
   000235    5 00006 2341 00
   000236    777776 6010 04
                                       228  *  Check rec privacy
   000237                              229  RECF     NULL
   000237    7 00511 2221 00           230         LDX     X2,RVO,,PR7
   000240    7 00006 2271 12           231         LDX     X7,RCPTR,X2,PR7  GET RC
   000241    6 00004 2211 17           232         LDX     X1,RCWSO,X7,PR6  GET WORK SPACE OFST
   000242    7 00000 2211 11           233         LDX     X1,PRIV,X1,PR7
   000243    000004 3010 03            234         CANX    X1,PF,DU        IS PRIVACY SATISFIED
   000244 (0)000314 6000 00            235         TZE     PRVE2           NO
                                       236  *  UPDATE CURRENCIES
   000245  X 000000 7010 00            237           ICCAL    ZIG$DBUPC,,UCER6     Update currencies
   000246 (0)000320 7020 00
   000247    5 00006 2341 00
   000250    777776 6010 04
                                       238  *  MOVE NAMES TO SPEC. REGS
   000251  X 000000 7010 00            239         DBCAL   ZIG$DBUSR,,USRE9
   000252 (0)000320 7020 00
   000253    5 00006 2341 00
   000254    777776 6010 04
                                       240  *  RETURN
   000255  X 000000 7020 00            241           DBRET
                                       242  *
                                       243  *  ERRORS DETECTED IN THIS ROUTINE
                                       244  *
                                       245         IFE     A,1,%CK1
   000256                              246  CALE6  NULL                    CALLING ARG ERROR
   000256    210562 2350 07            247         LDA     ARGER,DL
   000257    000000 6200 00            248         EAX     X0,0            NULL AC
   000260    000000 6260 00            249         EAX     X6,0            NULL SC
 12:44 09/05/97  FILE=ZIM$DBFN.:ZIC0TSI       IDS-II  FIND RELATIVE WITHIN SET                           10   BMAP - B00
   000261    000000 6270 00            250         EAX     X7,0            NULL RC
   000262 (0)000322 7100 00            251         TRA     FNR1
                                       252  CK1    MARK
   000263                              253  FNE1   NULL                    SET NOT IN SUB-SCHEMA
   000263    010150 2350 07            254         LDA     IRSN,DL
   000264    000000 6200 00            255         EAX     X0,0            NULL AC
   000265    000000 6270 00            256         EAX     X7,0            NULL RC
   000266    000034 7100 04            257         TRA     FNR1,$
   000267                              258  FNE2   NULL                    REC NOT IN SUB-SCHEMA
   000267    010150 2350 07            259         LDA     IRSN,DL
   000270    000000 6200 00            260         EAX     X0,0            NULL AC
   000271    000000 6260 00            261         EAX     X6,0            NULL SC
   000272    000030 7100 04            262         TRA     FNR1,$
   000273                              263  ILOPT  NULL                    ILLEGAL FIND OPTION
   000273    210562 2350 07            264         LDA     ARGER,DL
   000274    000000 6200 00            265         EAX     X0,0            NULL AC
   000275    000000 6260 00            266         EAX     X6,0            NULL SC
   000276    000000 6270 00            267         EAX     X7,0            NULL RC
   000277 (0)000322 7100 00            268         TRA     FNR1
   000300                              269  RFNR   NULL                    CURR REC IS NOT TYPE REQUESTED
   000300    004540 2350 07            270         LDA     RSEE,DL
   000301    000000 6200 00            271         EAX     X0,0            NULL AC
   000302    7 00520 2261 00           272         LDX     X6,PRSC,,PR7    GET SC
   000303 (0)000322 7100 00            273         TRA     FNR1
   000304                              274  NCUR1  NULL                    NO CURRENT
   000304    006034 2350 07            275         LDA     CNUL,DL
   000305    000000 6200 00            276         EAX     X0,0            NULL AC
   000306    000000 6270 00            277         EAX     X7,0            NULL RC
   000307 (0)000322 7100 00            278         TRA     FNR1
   000310                              279  PRVE1  NULL                    SET PRIVACY NOT SATISFIED
   000310    257764 2350 07            280         LDA     LR,DL
   000311    000000 6200 00            281         EAX     X0,0            NULL AC
   000312    000000 6270 00            282         EAX     X7,0            NULL RC
   000313 (0)000322 7100 00            283         TRA     FNR1
   000314                              284  PRVE2  NULL                    REC PRIVACY NOT SATISFIED
   000314    257764 2350 07            285         LDA     LR,DL
   000315    000000 6200 00            286         EAX     X0,0            NULL AC
 12:44 09/05/97  FILE=ZIM$DBFN.:ZIC0TSI       IDS-II  FIND RELATIVE WITHIN SET                           11   BMAP - B00
   000316    000000 6260 00            287         EAX     X6,0            NULL SC
   000317 (0)000322 7100 00            288         TRA     FNR1
                                       289  *
                                       290  *  ERRORS DETECTED IN SUBORDINATE ROUTINES
                                       291  *
   000320                              292  RCNF1  NULL                    RC NOT FOUND FOR CURR
   000320                              293  UCER6  NULL                    UPDATE CURRENCY ERROR
   000320                              294  USRE9  NULL                    UPDATE SPEC. REG. ERROR
   000320                              295  STER1  NULL                    ERROR ACCUMULATING STATISTICS
   000320 (0)000322 7100 00            296         TRA     FNR1
                                       297  *
                                       298  *  ERRORS DETECTED IN PRIMITIVES
                                       299  *
   000321                              300  CRER1  NULL                    FIND CURR ERROR
   000321                              301  PGER1  NULL                    PAGE ERROR - FIND CURRENT
   000321                              302  PGER3  NULL                    PAGE ERROR - FIND PRIOR
   000321                              303  PGER2  NULL                    PAGE ERROR - FIND NEXT/PRIOR
   000321                              304  PGER4  NULL                    PAGE ERROR
   000321 (0)000322 7100 00            305         TRA     FNR1
                                       306  *
                                       307  *  COMMON ERROR RETURN
                                       308  *
   000322  X 000000 7020 00            309  FNR1     DBALT
                                       310         END

  CONTROL SECTION TABLE

   0 CODE   EVEN  000323
   1 RODATA EVEN  000000 LITERALS

 12:44 09/05/97  FILE=ZIM$DBFN.:ZIC0TSI       SYMBOL TABLE                                               12   BMAP - B00
 40000000 000000200000 .AC            *26
 40000000 000000000100 .AG            *26
 40000000 000000002000 .ALTO          *26
 40000000 000000000077 .ANL           *26
 40000000 000000200000 .APDN          *26
 40000000 000000000100 .ATMP          *26
 40000000 000000400000 .AV            *26
 41000000 000000400000 .B0            *26       153
 40000000 000000200000 .B1            *26
 40000000 000000000200 .B10           *26
 40000000 000000000100 .B11           *26
 40000000 000000000040 .B12           *26
 40000000 000000000020 .B13           *26
 40000000 000000000010 .B14           *26
 40000000 000000000004 .B15           *26
 40000000 000000000002 .B16           *26
 40000000 000000000001 .B17           *26
 40000000 000000400000 .B18           *26
 40000000 000000200000 .B19           *26
 40000000 000000100000 .B2            *26
 40000000 000000100000 .B20           *26
 40000000 000000040000 .B21           *26
 40000000 000000020000 .B22           *26
 40000000 000000010000 .B23           *26
 40000000 000000004000 .B24           *26
 40000000 000000002000 .B25           *26
 40000000 000000001000 .B26           *26
 40000000 000000000400 .B27           *26
 40000000 000000000200 .B28           *26
 40000000 000000000100 .B29           *26
 40000000 000000040000 .B3            *26
 40000000 000000000040 .B30           *26
 40000000 000000000020 .B31           *26
 40000000 000000000010 .B32           *26
 40000000 000000000004 .B33           *26
 40000000 000000000002 .B34           *26
 40000000 000000000001 .B35           *26
 12:44 09/05/97  FILE=ZIM$DBFN.:ZIC0TSI       SYMBOL TABLE                                               13   BMAP - B00
 40000000 000000020000 .B4            *26
 40000000 000000010000 .B5            *26
 40000000 000000004000 .B6            *26
 40000000 000000002000 .B7            *26
 40000000 000000001000 .B8            *26
 40000000 000000000400 .B9            *26
 40000000 000000000001 .BREAK         *26
 40000000 000000010000 .BRK           *26
 40000000 000000020000 .BTB           *26
 40000000 000000000001 .CAC           *26
 40000000 000000000000 .CAE           *26
 40000000 000000000200 .CANSSS        *26
 40000000 000000000400 .CD            *26
 40000000 000000040000 .CFLC          *26
 40000000 000000400000 .CHKSUM        *26
 40000000 000000100000 .CJRNL         *26
 40000000 000000000077 .CNSZ          *26
 40000000 000000160000 .COMC          *26
 40000000 000000000020 .CONT          *26
 41000000 000000000000 .CSE           *26       110       150       221
 40000000 000000700000 .CTYP          *26
 41000000 000000000270 .DBEST         *26
 41000000 000000000470 .DBIC          *26
 40000000 000000077777 .DBPT          *26
 41000000 000000000370 .DBSTK         *26
 40000000 000000020000 .DELM          *26
 40000000 000000002000 .DIDP          *26
 40000000 000000000077 .DNDX          *26
 40000000 000000600000 .DORD          *26
 40000000 000000000200 .DP            *26
 40000000 000000100000 .DPS           *26
 40000000 000000200000 .DPSA          *26
 40000000 000000400000 .DPST          *26
 40000000 000000000002 .DUMP          *26
 40000000 000000002000 .DUPC          *26
 40000000 000000010000 .DUPP          *26
 40000000 000000200000 .EBCL          *26
 12:44 09/05/97  FILE=ZIM$DBFN.:ZIC0TSI       SYMBOL TABLE                                               14   BMAP - B00
 40000000 000000400000 .EBCM          *26
 40000000 000000200000 .ENCRP         *26
 40000000 000000000077 .ENDX          *26
 40000000 000000000400 .ENQ           *26
 40000000 000000004000 .ETC           *26
 40000000 000000000400 .EXIT          *26
 40000000 000000000200 .FMOD          *26
 40000000 000000000077 .FNL           *26
 40000000 000000000074 .FORG          *26
 40000000 000000002000 .FR            *26
 40000000 000000000100 .FSR           *26
 40000000 000000003400 .FUSE          *26
 40000000 000000010000 .FVF           *26
 40000000 000000040000 .FVR           *26
 41000000 000000000010 .INDEXED       *26       108
 40000000 000000777777 .IXID          *26
 40000000 000000001777 .IXNUM         *26
 40000000 000000000004 .KEYED         *26
 40000000 000000010000 .LCK           *26
 40000000 000000400000 .LEIL          *26
 40000000 000000001000 .LG            *26
 40000000 000000000002 .LOAD          *26
 40000000 000000020000 .MAR           *26
 40000000 000000000007 .MEMT          *26
 40000000 000000010000 .MRL           *26
 40000000 000000040000 .MSM           *26
 60000000 000000000001 .N6685         *26
 40000000 000000100000 .NAI           *26
 40000000 000000200000 .NBI           *26
 40000000 000000000002 .NCIA          *26
 40000000 000000040000 .NMV           *26
 40000000 000000017777 .NOENT         *26
 40000000 000000400000 .OA            *26
 40000000 000000740000 .OPEV          *26
 40000000 000000100000 .OSM           *26
 40000000 000000100000 .PAFIL         *26
 40000000 000000200000 .PAHVR         *26
 12:44 09/05/97  FILE=ZIM$DBFN.:ZIC0TSI       SYMBOL TABLE                                               15   BMAP - B00
 40000000 000000000001 .PAIA          *26
 40000000 000000040000 .PALIL         *26
 40000000 000000020000 .PALVR         *26
 40000000 000000400000 .PANLL         *26
 40000000 000000400000 .PCKD          *26
 40000000 000000001600 .PMOD          *26
 40000000 000000000520 .PRCSE         *26
 40000000 000000000007 .PSTO          *26
 40000000 000000006040 .PTAS          *26
 40000000 000000010100 .PTCHK         *26
 40000000 000000010200 .PTDEC         *26
 40000000 000000010140 .PTENC         *26
 40000000 000000020000 .RA            *26
 41000000 000000100000 .RC            *26        76
 40000000 000000400000 .RELEASE       *26
 40000000 000000000017 .RELT          *26
 40000000 000000004000 .RERA          *26
 40000000 000000400000 .RERS          *26
 40000000 000000010000 .RKEY          *26
 40000000 000000000077 .RNL           *26
 40000000 000000200000 .RSTO          *26
 40000000 000000007777 .RTYP          *26
 41000000 000000040000 .SC            *26        87
 41000000 000000000070 .SETM          *26       128
 40000000 000000740000 .SETO          *26
 40000000 000000000700 .SETT          *26
 40000000 000000040000 .SFNP          *26
 40000000 000000004000 .SM            *26
 40000000 000000020000 .SMOD          *26
 40000000 000000000077 .SNL           *26
 41000000 000000020000 .SNSS          *26        93
 40000000 000000010000 .SO            *26
 41000000 000000100000 .SR            *26        81
 40000000 000000004000 .SRCR          *26
 40000000 000000001000 .SS            *26
 40000000 000000000007 .SSTP          *26
 40000000 000000004000 .SYN           *26
 12:44 09/05/97  FILE=ZIM$DBFN.:ZIC0TSI       SYMBOL TABLE                                               16   BMAP - B00
 40000000 000000000040 .SYNC          *26
 40000000 000000020000 .TJRNL         *26
 40000000 000000040000 .TMPLT         *26
 40000000 000000040000 .TRACE         *26
 40000000 000000000001 .TRENTRY       *26
 40000000 000000000012 .TRIDEL        *26
 40000000 000000000021 .TRIDELENQ     *26
 40000000 000000000024 .TRIDEQ        *26
 40000000 000000000013 .TRIMOD        *26
 40000000 000000000022 .TRIMODENQ     *26
 40000000 000000000014 .TRIREAD       *26
 40000000 000000000023 .TRIREADENQ    *26
 40000000 000000000011 .TRISTO        *26
 40000000 000000000020 .TRISTOENQ     *26
 40000000 000000000017 .TRPDEQ        *26
 40000000 000000000004 .TRPMOD        *26
 40000000 000000000016 .TRPMODENQ     *26
 40000000 000000000002 .TRPREAD       *26
 40000000 000000000015 .TRPREADENQ    *26
 40000000 000000000003 .TRPWRITE      *26
 40000000 000000000010 .TRRACC        *26
 40000000 000000000006 .TRRDEL        *26
 40000000 000000000007 .TRRMOD        *26
 40000000 000000000005 .TRRSTO        *26
 40000000 000000004000 .ULCK          *26
 40000000 000000400000 .UPDT          *26
 40000000 000000000040 .VIA           *26
 61000000 000000000001 A              *26        74        85       245
 40000000 000000000002 ABAS           *26
 40000000 000000000001 AC             *26
 40000000 777777777760 ACDEF          *26
 40000000 000000211070 ACDNL          *26
 40000000 000000000003 ACID           *26
 40000000 000000001016 ACOPN          *26
 40000000 000000000002 ACP            *26
 41000000 000000000005 ACPTR          *26       183       196
 40000000 000000000002 ACRAH          *26
 12:44 09/05/97  FILE=ZIM$DBFN.:ZIC0TSI       SYMBOL TABLE                                               17   BMAP - B00
 40000000 000000000001 ACRAN          *26
 40000000 000000001003 ACREC          *26
 40000000 000000000001 ACTDBCB        *26
 40000000 000000000002 ACTDBNO        *26
 40000000 000000001017 ACTP           *26
 40000000 000000000000 ACTSSS         *26
 40000000 000000000000 ACTSZ          *26
 40000000 000000210565 AFNP           *26
 40000000 000000000635 AFT            *26
 40000000 000000022124 AIR            *26
 40000000 000000000016 AMAX           *26
 40000000 000000000026 ANAM           *26
 40000000 000000021614 ANR            *26
 40000000 000000000001 APNO           *26
 41000000 000000210562 ARGER          *26       247       264
 41000000 000000000020 ARGS           *26
 40000000 000000000077 ARGS2          *26
 40000000 000000210713 ARNAF          *26
 40000000 000000000003 ATBL           *26
 40000000 000000000000 ATRIB          *26
 40000000 000000000002 AVLN           *26
 40000000 000000000013 AWS$           *26
 40000000 000000000010 AWSZ           *26
 60000000 000000000001 B              *26
 40000000 000000001006 B32N           *26
 40000000 000000001007 B36N           *26
 40000000 000000001056 B72N           *26
 40000000 000000000001 BADDR          *26
 40000000 000000210712 BADSEED        *26
 40000000 777777777765 BDCW           *26
 40000000 000000000633 BEF            *26
 40000000 000000020000 BEFW           *26
 40000000 000000000751 BEMT           *26
 40000000 777777777761 BID            *26
 40000000 777777777762 BIND           *26
 40000000 000000000007 BLKD           *26
 40000000 000000303331 BME02          *26
 12:44 09/05/97  FILE=ZIM$DBFN.:ZIC0TSI       SYMBOL TABLE                                               18   BMAP - B00
 41000000 000000001203 BMPB           *26
 40000000 000000000652 BN1            *26
 40000000 000000000654 BN2            *26
 40000000 000000000004 BPL            *26
 40000000 000000000015 BPLDBK         *26
 40000000 000000000034 BSPG           *26
 40000000 777777777763 BSTAT          *26
 40000000 000000000750 BTX0           *26
 41000000 000000001160 BUF4           *26
 41000000 000000001170 BUF6           *26
 41000000 000000000000 BUFORG         *26
 40000000 000000001060 BUFRQ          *26
 40000000 000000000006 BURRID         *26
 41000000 000000000020 BWASZ          *26
 60000000 000000000001 C              *26
 40000000 000000000050 CAAC           *26
 40000000 000000000050 CACD           *26
 40000000 000000000111 CAG            *26
 40000000 000000001033 CAL            *26
 01101000 000000000256 CALE6           77        88      *246
 40000000 000000000026 CALLPM0        *26
 40000000 000000000003 CANSSS         *26
 41000000 000000000003 CBCPA          *26       134
 40000000 000000000002 CBCPO          *26
 41000000 000000000002 CBENO          *26       133
 40000000 000000000014 CBFSZ          *26
 40000000 000000000753 CBIB           *26
 40000000 000000001030 CBID           *26
 41000000 000000000014 CBRCE          *26       135
 40000000 000000000014 CBRCP          *26
 40000000 000000001033 CBRID          *26
 40000000 000000000015 CBRPA          *26
 40000000 000000000031 CCHAR          *26
 40000000 000000000040 CDBK           *26
 40000000 000000000030 CDES           *26
 40000000 000000000110 CDP            *26
 40000000 000000001044 CDPSI          *26
 12:44 09/05/97  FILE=ZIM$DBFN.:ZIC0TSI       SYMBOL TABLE                                               19   BMAP - B00
 40000000 000000000002 CDRH           *26
 40000000 000000000003 CDRN           *26
 40000000 000000000002 CDSH           *26
 40000000 000000000003 CDSN           *26
 40000000 000000000722 CENTRN         *26
 40000000 000000000722 CENTRO         *26
 40000000 000000000716 CENTRY         *26
 41000000 000000001053 CFCT           *26
 40000000 000000000670 CFLPT1         *26
 40000000 000000000672 CFLPT2         *26
 40000000 000000000015 CFSA           *26
 40000000 000000000646 CHDBK          *26
 40000000 000000000773 CHR            *26
 40000000 000000000006 CHRD           *26
 40000000 000000000772 CHRO           *26
 40000000 000000007640 CHRTP          *26
 40000000 000000001043 CIAC           *26
 40000000 000000000012 CIAWS          *26
 40000000 000000001051 CIBSI          *26
 40000000 000000000516 CIND           *26
 40000000 000000001041 CINVSZ         *26
 40000000 000000001042 CIPG           *26
 40000000 000000001050 CIPSI          *26
 40000000 000000000000 CIRUN          *26
 40000000 000000000002 CIRWS          *26
 41000000 000000000002 CISWS          *26       198       204
 40000000 000000000014 CIWSOF         *26
 40000000 000000303374 CKSM           *26
 40000000 000000000022 CLCN           *26
 40000000 000000000023 CLCP           *26
 40000000 000000000003 CLCRC          *26
 41000000 000000000003 CLCSC          *26        95
 40000000 000000000237 CLI            *26
 40000000 000000000026 CLNG           *26
 40000000 000000000052 CMPL           *26
 40000000 000000000002 CN             *26
 40000000 000000303315 CNE1           *26
 12:44 09/05/97  FILE=ZIM$DBFN.:ZIC0TSI       SYMBOL TABLE                                               20   BMAP - B00
 41000000 000000006034 CNUL           *26       275
 40000000 000000100000 COB74          *26
 40000000 000000000001 COFS           *26
 40000000 000000000045 CONCD          *26
 40000000 000000007764 CP6PGSZB       *26
 41000000 000000001775 CP6PGSZW       *26
 40000000 000000001000 CPGR           *26
 40000000 000000000723 CPTRN          *26
 40000000 000000000723 CPTRO          *26
 60000000 000000000004 CPW            *26
 40000000 000000000112 CRA            *26
 40000000 000000001004 CRD            *26
 40000000 000000000764 CREC           *26
 01101000 000000000321 CRER1          119      *300
 40000000 000000006344 CRIT           *26
 40000000 000000006200 CRNUL          *26
 40000000 000000007330 CRST           *26
 41000000 000000001223 CRUN           *26       117
 41000000 000000000000 CSECT          *26
 40000000 000000000007 CSMPP          *26
 40000000 000000001000 CSPAC          *26
 40000000 000000000004 CSPAH          *26
 40000000 777777777776 CSPES          *26
 40000000 777777777776 CSPSB          *26
 40000000 000000000115 CSTS           *26
 40000000 000000000071 CSUB           *26
 40000000 000000000017 CSZ            *26
 41000000 000000000057 CTMASK         *26       177
 40000000 000000000774 CTPAI          *26
 40000000 000000000240 CURLN          *26
 40000000 000000000236 CURLT          *26
 40000000 000000000770 CURPG          *26
 41000000 000000000001 CURR           *26       103
 40000000 000000000035 CURRS          *26
 01101000 000000000144 CURS           143      *169
 40000000 000000000037 CURSS          *26
 40000000 000000001005 CWRT           *26
 12:44 09/05/97  FILE=ZIM$DBFN.:ZIC0TSI       SYMBOL TABLE                                               21   BMAP - B00
 40000000 000000000237 CWSOF          *26
 60000000 000000000001 D              *26
 40000000 000000000003 DBAN           *26
 40000000 000000000036 DBDR           *26
 40000000 000000000037 DBFN           *26
 40000000 000000000754 DBK            *26
 40000000 000000000777 DBKAC          *26
 41000000 000000000000 DBKEY          *26       122
 40000000 000000000000 DBKL           *26
 40000000 000000007474 DBKN           *26
 41000000 000000000776 DBKR           *26
 40000000 000000000777 DBKRQ          *26
 40000000 000000000234 DBKSI          *26
 40000000 000000000651 DBKSR          *26
 40000000 000000000047 DBKYN          *26
 40000000 000000210652 DBLC01         *26
 40000000 000000210653 DBLC05         *26
 40000000 000000303334 DBLC07         *26
 40000000 000000210655 DBLD01         *26
 40000000 000000000010 DBLIM          *26
 40000000 000000000033 DBPKY          *26
 40000000 000000000023 DBRN           *26
 40000000 000000000013 DBSN           *26
 40000000 000000000001 DBST           *26
 40000000 000000000757 DCDSR          *26
 40000000 000000210650 DCE1           *26
 40000000 000000001053 DCPR           *26
 40000000 000000001053 DCPW           *26
 40000000 000000000015 DCTBL          *26
 40000000 000000000032 DDBK           *26
 40000000 000000000006 DDCB           *26
 40000000 000000011754 DDI            *26
 41000000 000000000000 DEF            *26        75        80        86        92       107       127
 40000000 000000000014 DEF2           *26
 40000000 000000303413 DELAK          *26
 40000000 000000000036 DELRS          *26
 40000000 000000000732 DEPCW          *26
 12:44 09/05/97  FILE=ZIM$DBFN.:ZIC0TSI       SYMBOL TABLE                                               22   BMAP - B00
 40000000 000000303414 DLDBK          *26
 40000000 000000210627 DLE1           *26
 40000000 000000303310 DLE2           *26
 40000000 000000210631 DLE3           *26
 40000000 000000016040 DNES           *26
 40000000 777777777777 DPAGN          *26
 40000000 000000000020 DPPI           *26
 40000000 000000000053 DPSLW          *26
 40000000 000000000003 DS             *26
 40000000 000000001063 DSDES          *26
 40000000 000000303316 DSE1           *26
 40000000 000000000735 DUSEPA         *26
 60000000 000000000001 E              *26
 40000000 000000303251 EDPER          *26
 40000000 000000000026 EEIND          *26
 40000000 000000000713 EFIND          *26
 40000000 000000001030 ELO            *26
 40000000 000000210711 ENCPNA         *26
 40000000 000000000007 ENCRP          *26
 40000000 000000000752 ENDSR          *26
 40000000 000000210647 ENE1           *26
 40000000 000000000716 ENIND          *26
 40000000 000000000013 ENTBL          *26
 40000000 000000000710 ENTNO          *26
 40000000 000000000712 ENTPTR         *26
 40000000 000000000717 ENTSZ          *26
 40000000 000000000711 ENTTYP         *26
 40000000 000000004064 EOSR           *26
 40000000 000000000004 ES             *26
 41000000 000000000100 ESTSZ          *26
 40000000 000000000725 ESZ            *26
 40000000 000000000005 ETCADR         *26
 40000000 000000000005 ETCDBNO        *26
 40000000 000000000064 EXCCD          *26
 40000000 000000234534 FALRT          *26
 40000000 000000001055 FBF72          *26
 40000000 000000001025 FBU61          *26
 12:44 09/05/97  FILE=ZIM$DBFN.:ZIC0TSI       SYMBOL TABLE                                               23   BMAP - B00
 40000000 000000001020 FBUF           *26
 40000000 000000001026 FBUF1          *26
 40000000 000000001027 FBUF4          *26
 40000000 000000001024 FBUF6          *26
 40000000 000000001022 FBUFM          *26
 40000000 000000001021 FBUFU          *26
 40000000 000000001023 FBUMD          *26
 40000000 000000000004 FCN            *26
 40000000 000000000051 FCNT           *26
 40000000 000000000002 FCP            *26
 01101000 000000000064 FCRS           118      *121
 40000000 000000000047 FCSS           *26
 40000000 000000000005 FD             *26
 40000000 000000210637 FDE1           *26
 40000000 000000303320 FDE2           *26
 40000000 000000303321 FDE3           *26
 40000000 000000210642 FDE4           *26
 40000000 000000210643 FDE5           *26
 40000000 000000210644 FDE6           *26
 40000000 000000303325 FDE7           *26
 40000000 000000303326 FDE8           *26
 40000000 000000000021 FEASZ          *26
 40000000 000000000740 FETM           *26
 40000000 000000000006 FI             *26
 40000000 000000000103 FIAC           *26
 41000000 000000001100 FIB1           *26
 41000000 000000001130 FIBP           *26
 40000000 000000000000 FIBX           *26
 40000000 000000000102 FICNT          *26
 40000000 000000000005 FIPN           *26
 40000000 000000000054 FKIND          *26
 40000000 000000000015 FLAGS          *26
 40000000 000000000244 FLDDSC         *26
 40000000 000000000046 FLDTL          *26
 40000000 000000000020 FMSBF          *26
 40000000 000000000006 FNAM           *26
 01101000 000000000263 FNE1            96      *253
 12:44 09/05/97  FILE=ZIM$DBFN.:ZIC0TSI       SYMBOL TABLE                                               24   BMAP - B00
 01101000 000000000267 FNE2            82      *258
 40000000 000000000250 FNIND          *26
 40000000 000000000004 FNL            *26
 01101000 000000000322 FNR1           251       257       262       268       273       278       283
                                      288       296       305      *309
 40000000 000000000101 FRAC           *26
 40000000 000000000002 FRANGE         *26
 40000000 000000211400 FRDNL          *26
 40000000 000000200000 FRTRN          *26
 40000000 000000000005 FRWSO          *26
 40000000 000000000767 FSLN           *26
 40000000 000000000766 FSOF           *26
 40000000 000000000060 FTIND          *26
 40000000 000000303240 FTLINCR        *26
 40000000 000000000021 FWSSZ          *26
 40000000 000000000246 GACDK          *26
 40000000 000000000014 GDCB           *26
 41000000 000000000006 GERROR         *26       119       123       155       166       184       190
                                      217       223       227       237       239
 01101000 000000000055 GFCR           111      *116
 40000000 000000000016 GINHIB         *26
 40000000 000000000020 GIOAWS         *26
 40000000 000000000022 GIOBUF         *26
 40000000 000000000021 GIOPGNO        *26
 01101000 000000000071 GOW            120      *124
 40000000 000000000015 GPAGE          *26
 40000000 000000000010 GRETAC         *26
 40000000 000000000011 GRETFR         *26
 40000000 000000000013 GRETRC         *26
 40000000 000000000012 GRETSC         *26
 41000000 000000000025 GRLCW          *26        67
 40000000 000000000014 GSTCD          *26
 40000000 000000000007 GSYSERR        *26
 40000000 000000000010 GT             *26
 01101000 000000000103 GTCR           130      *136
 40000000 000000000046 GTRNAME        *26
 40000000 000000000055 GTRPDCB        *26
 12:44 09/05/97  FILE=ZIM$DBFN.:ZIC0TSI       SYMBOL TABLE                                               25   BMAP - B00
 40000000 000000000056 GTRPNO         *26
 40000000 000000000057 GTRRDBK        *26
 40000000 000000000060 GTRRTYPE       *26
 01101000 000000000137 GTRS           151      *165
 40000000 000000000060 GTRTYPE        *26
 40000000 000000000027 HASH           *26
 40000000 000000000022 HIA            *26
 40000000 000000000775 HIDB           *26
 40000000 000000000003 HIGHDBK        *26
 40000000 000000000004 HIGHPG         *26
 40000000 000000001037 HIL            *26
 40000000 000000000002 HILN           *26
 40000000 000000000006 HPOS           *26
 40000000 000000000756 IAAC           *26
 40000000 000000001011 IACLN          *26
 40000000 000000001010 IALC           *26
 40000000 000000010314 IAN            *26
 40000000 000000001012 IANLN          *26
 40000000 000000000001 IASID          *24
 40000000 000000020320 ICA            *26
 40000000 000000000023 ICKSMP         *26
 40000000 000000000024 ICKSMV         *26
 40000000 000000210742 ICNR           *26
 41000000 000000000020 ICSIZ          *26
 01101000 000000000224 ICURS          212      *220
 40000000 000000010004 IDBK           *26
 40000000 000000012120 IDI            *26
 40000000 000000000023 IDS            *26
 40000000 000000000011 IF             *26
 40000000 000000000021 IFIPN          *26
 40000000 000000000000 IFR            *26
 40000000 000000234546 IKSEQ          *26
 01101000 000000000273 ILOPT          145       214      *263
 40000000 000000000113 INAFLAG        *26
 40000000 000000000016 INCHA          *26
 40000000 000000210566 INNM           *26
 40000000 000000210567 INSS           *26
 12:44 09/05/97  FILE=ZIM$DBFN.:ZIC0TSI       SYMBOL TABLE                                               26   BMAP - B00
 40000000 000000210575 INSST          *26
 40000000 000000303241 INTER          *26
 40000000 000000400000 INTII          *26
 40000000 000000000013 INTVL          *26
 40000000 000000001060 INVFLG         *26
 40000000 000000001043 INVOF          *26
 40000000 000000000014 INVT           *26
 01101000 000000000233 INXTS          213      *226
 40000000 000000000034 IOBLK          *26
 40000000 000000303354 IOCLSD         *26
 40000000 000000303355 IOCLSK         *26
 40000000 000000303257 IOE1           *26
 40000000 000000303264 IOE11          *26
 40000000 000000303265 IOE12          *26
 40000000 000000303266 IOE18          *26
 40000000 000000303260 IOE2           *26
 40000000 000000303261 IOE3           *26
 40000000 000000303262 IOE7           *26
 40000000 000000303263 IOE8           *26
 40000000 000000303363 IOFLSH         *26
 40000000 000000210676 IOGDCB         *26
 40000000 000000001002 IOINC          *26
 40000000 000000305160 IOINI          *26
 40000000 000000305155 IONOTIDS       *26
 40000000 000000305154 IONOTKEY       *26
 40000000 000000210677 IOOPND         *26
 40000000 000000210700 IOOPNK         *26
 40000000 000000303361 IORDD          *26
 40000000 000000305156 IOSCHEMA       *26
 40000000 000000001052 IOSTS          *26
 40000000 000000303362 IOWRTD         *26
 41000000 000000000750 IOWS           *26
 40000000 000000000647 IPC            *26
 40000000 000000000650 IPCF           *26
 01101000 000000000217 IPRIS          211      *216
 40000000 000000000006 IROLLFLAG      *26
 41000000 000000010150 IRSN           *26       254       259
 12:44 09/05/97  FILE=ZIM$DBFN.:ZIC0TSI       SYMBOL TABLE                                               27   BMAP - B00
 40000000 000000000004 ISYSDCB        *26
 40000000 000000000005 ISYSERR        *26
 40000000 000000000061 ITPTR          *26
 40000000 000000000060 ITRS           *26
 40000000 000000021760 IUM            *26
 40000000 000000000017 IUSZ           *26
 40000000 000000234522 IVDBK          *26
 40000000 000000000011 IXBUF$         *26
 40000000 000000000046 IXFBSZ         *26
 40000000 777777777776 IXID           *26
 40000000 777777777777 IXPLL          *26
 40000000 000000000523 KCARG0         *26
 40000000 000000000524 KCARG3         *26
 40000000 000000000525 KCARG4         *26
 40000000 000000000700 KCREG          *26
 40000000 000000000006 KDCB           *26
 40000000 000000000666 KEYDS          *26
 41000000 000000000010 KEYPA          *26       197
 40000000 777777777776 KLNG           *26
 40000000 000000000022 KPASZ          *26
 40000000 000000000006 KWSZ           *26
 40000000 000000000052 LANGC          *26
 40000000 000000001014 LAS            *26
 40000000 000000700000 LCODM          *26
 40000000 000000001045 LDPSI          *26
 40000000 000000001071 LINPT          *26
 01101000 000000000127 LMEM           155      *156
 40000000 000000001017 LNCNT          *26
 40000000 000000000762 LNNO           *26
 40000000 000000001036 LOL            *26
 40000000 000000000715 LOLIM          *26
 40000000 000000000023 LPASZ          *26
 40000000 000000000012 LPP            *26
 41000000 000000257764 LR             *26       280       285
 40000000 000000301270 LRA            *26
 40000000 000000000017 LRSZ           *26
 40000000 000000001035 LSPC           *26
 12:44 09/05/97  FILE=ZIM$DBFN.:ZIC0TSI       SYMBOL TABLE                                               28   BMAP - B00
 40000000 000000000750 LUPD           *26
 61000000 000000000001 M9             *26
 40000000 000000000013 MD             *26
 40000000 000000300000 MDQS           *26
 40000000 000000000730 MEMPTR         *26
 40000000 000000000727 MEMTYP         *26
 40000000 000000000045 MODCD          *26
 41000000 000000001207 MODFL          *26
 40000000 000000000042 MODFR          *26
 40000000 000000000044 MODIN          *26
 40000000 000000000044 MODRS          *26
 40000000 000000000043 MODSC          *26
 40000000 000000000047 MRBKI          *26
 40000000 000000210632 MRE4           *26
 40000000 000000303313 MRE5           *26
 40000000 000000210634 MRE7           *26
 40000000 000000400000 MW             *26
 40000000 000000000025 NCH            *26
 40000000 000000000002 NCHA           *26
 40000000 000000000005 NCHRS          *26
 01101000 000000000304 NCUR1          104       115       222      *274
 40000000 000000000014 NDCD           *26
 40000000 000000000012 NENC           *26
 40000000 000000000634 NEW            *26
 40000000 000000001072 NEWSIZ         *26
 40000000 000000235164 NKA            *26
 40000000 000000235020 NKDB           *26
 40000000 000000303415 NLDBK          *26
 40000000 777777777777 NLIND          *26
 40000000 000000001040 NLN            *26
 40000000 000000400000 NLNSA          *26
 41000000 000000001053 NOBF           *26
 40000000 000000000711 NOPTRS         *26
 40000000 000000000742 NPARCW         *26
 40000000 000000000630 NPIND          *26
 40000000 000000000004 NPOS           *26
 01101000 000000000160 NRC12          176      *182
 12:44 09/05/97  FILE=ZIM$DBFN.:ZIC0TSI       SYMBOL TABLE                                               29   BMAP - B00
 01101000 000000000022 NRC6            73       *83
 40000000 000000234510 NSA            *26
 40000000 000000234654 NSCS           *26
 40000000 000000234344 NSDB           *26
 40000000 000000000001 NSTS           *26
 40000000 000000000726 NUMENT         *26
 40000000 000000000727 NUMPTR         *26
 40000000 777777777760 NXBUF          *26
 40000000 000000000713 NXPRI          *26
 40000000 000000000771 NXTC           *26
 01101000 000000000170 NXTS           144      *189
 40000000 000000000001 OAACN          *26
 40000000 000000000022 OACIWSOF       *26
 41000000 000000000001 OAOFST         *26        95
 40000000 000000000002 OARCN          *26
 40000000 000000000001 OASCN          *26
 40000000 000000000014 OD             *26
 40000000 000000000074 ODBK           *26
 40000000 000000001072 OLDSIZ         *26
 40000000 000000000101 OPADP          *26
 40000000 000000000741 OPARCW         *26
 40000000 000000210570 ORDNI          *26
 40000000 777777777777 OTVL           *26
 40000000 000000000252 OWNPTR         *26
 40000000 000000000016 PABUF          *26
 40000000 000000001041 PACD           *26
 40000000 000000000001 PACW           *26
 40000000 000000000733 PADBK          *26
 40000000 000000000740 PADUP          *26
 40000000 000000000745 PAEN           *26
 40000000 000000000745 PAEO           *26
 40000000 000000000734 PAEOF          *26
 40000000 000000303336 PAER1          *26
 40000000 000000303337 PAER2          *26
 40000000 000000303340 PAER3          *26
 40000000 000000303341 PAER4          *26
 40000000 000000303342 PAER5          *26
 12:44 09/05/97  FILE=ZIM$DBFN.:ZIC0TSI       SYMBOL TABLE                                               30   BMAP - B00
 40000000 000000303343 PAER6          *26
 40000000 000000000747 PAESZ          *26
 40000000 000000001060 PAFLG          *26
 40000000 000000000731 PAOPTR         *26
 40000000 000000000734 PAPOF          *26
 40000000 000000000714 PARCW          *26
 40000000 000000000726 PARVPA         *26
 40000000 000000000724 PASPLT         *26
 40000000 000000000004 PAWSZ          *26
 40000000 777777777762 PBUF           *26
 40000000 000000000020 PC             *26
 41000000 000000000510 PCB            *26
 40000000 000000000642 PCD            *26
 40000000 000000000642 PCD2           *26
 40000000 000000000247 PCEXI          *26
 40000000 000000000675 PCMIN          *26
 40000000 000000004541 PCOMP          *26
 40000000 000000000010 PD             *26
 40000000 000000000040 PE             *26
 40000000 000000000017 PENDING        *26
 41000000 000000000004 PF             *26       234
 40000000 000000000400 PFG            *26
 40000000 000000000200 PFM            *26
 40000000 000000000100 PFS            *26
 40000000 000000000400 PG             *26
 01101000 000000000321 PGER1          123      *301
 01101000 000000000321 PGER2          190      *303
 01101000 000000000321 PGER3          166      *302
 01101000 000000000321 PGER4          155       217       223       227      *304
 40000000 000000001064 PGHD           *26
 40000000 000000000006 PGLIM          *26
 40000000 000000000003 PGRNG          *26
 40000000 000000000746 PGSIZE         *26
 40000000 000000000641 PGSPLT         *26
 40000000 000000000100 PKAW           *26
 40000000 000000001034 PLO            *26
 40000000 000000000004 PLSEP          *26
 12:44 09/05/97  FILE=ZIM$DBFN.:ZIC0TSI       SYMBOL TABLE                                               31   BMAP - B00
 40000000 000000000200 PM             *26
 40000000 000000001054 PNEOO          *26
 40000000 000000001047 POFSI          *26
 40000000 000000000005 PPOS           *26
 41000000 000000000000 PR0            *24        64        66        69        71       112       138
                                      139       160       162       207       208
 41000000 000000000001 PR1            *24        68        70        72       161       163       197
                                      199       205
 40000000 000000000002 PR2            *24
 40000000 000000000003 PR3            *24
 40000000 000000000004 PR4            *24
 41000000 000000000005 PR5            *24        67       119       123       155       166       184
                                      190       217       223       227       237       239
 41000000 000000000006 PR6            *24        75        80        86        92        95        99
                                      107       127       131       149       178       232
 41000000 000000000007 PR7            *24        84        90       100       103       105       106
                                      110       117       122       126       132       133       134
                                      135       148       150       154       157       158       159
                                      164       170       171       172       173       174       175
                                      177       180       183       185       186       196       197
                                      198       204       221       230       231       233       272
 40000000 000000303267 PRE1           *26
 40000000 000000303277 PRE10          *26
 40000000 000000303270 PRE3           *26
 40000000 000000303271 PRE4           *26
 40000000 000000303272 PRE5           *26
 40000000 000000210613 PRE6           *26
 40000000 000000210614 PRE7           *26
 40000000 000000210615 PRE8           *26
 40000000 000000303276 PRE9           *26
 40000000 000000000522 PREXC          *26
 40000000 000000000521 PRFR           *26
 40000000 000000000521 PRFR2          *26
 01101000 000000000113 PRIS           142      *147
 41000000 000000000000 PRIV           *26       100       233
 40000000 000000000526 PROPA          *26
 41000000 000000000517 PRRC           *26        84       154       164       175
 12:44 09/05/97  FILE=ZIM$DBFN.:ZIC0TSI       SYMBOL TABLE                                               32   BMAP - B00
 40000000 000000000517 PRRS           *26
 41000000 000000000520 PRSC           *26        90       126       148       272
 40000000 000000000516 PRSS           *26
 40000000 000000000644 PRSTS          *26
 01101000 000000000310 PRVE1          102      *279
 01101000 000000000314 PRVE2          235      *284
 40000000 000000000100 PS             *26
 41000000 000000000000 PS0SID         *24
 41000000 000000000001 PS1SID         *24
 41000000 000000000002 PS2SID         *24
 41000000 000000000003 PS3SID         *24
 41000000 000000000004 PS4SID         *24
 40000000 000000000005 PS5SID         *24
 40000000 000000000006 PS6SID         *24
 40000000 000000303416 PSA            *26
 40000000 000000000020 PSC            *26
 40000000 000000000010 PSD            *26
 41000000 000000000004 PSF            *26       101
 40000000 000000000400 PSO            *26
 40000000 000000000720 PTESZ          *26
 40000000 000000000631 PTR            *26
 40000000 000000000724 PTRESZ         *26
 40000000 000000000710 PTRNO          *26
 41000000 000000000630 PWS            *26
 40000000 000000000002 RADDR          *26
 40000000 000000000010 RADIX          *26
 40000000 000000000005 RAPTR          *26
 40000000 000000000004 RAWSOF         *26
 40000000 777777777766 RBA            *26
 40000000 000000023432 RCBI           *26
 40000000 000000211234 RCDNL          *26
 40000000 000000000005 RCFRH          *26
 40000000 000000000004 RCFRN          *26
 40000000 000000001075 RCHD           *26
 40000000 000000000001 RCID           *26
 01101000 000000000320 RCNF1          184      *292
 41000000 000000000006 RCPTR          *26       180       186       231
 12:44 09/05/97  FILE=ZIM$DBFN.:ZIC0TSI       SYMBOL TABLE                                               33   BMAP - B00
 40000000 000000000002 RCRAH          *26
 40000000 000000000001 RCRAN          *26
 40000000 000000000003 RCRSH          *26
 40000000 000000000002 RCRSN          *26
 40000000 000000210667 RCVER1         *26
 40000000 000000210670 RCVER2         *26
 40000000 000000210671 RCVER4         *26
 40000000 000000210672 RCVER5         *26
 40000000 000000210673 RCVER6         *26
 40000000 000000000736 RCW1           *26
 40000000 000000000737 RCW2           *26
 41000000 000000000004 RCWSO          *26       232
 40000000 000000000077 RDAC           *26
 40000000 000000000076 RDCNT          *26
 40000000 000000040000 RDI            *26
 40000000 000000015674 RDLT           *26
 40000000 000000000075 RDYCW          *26
 40000000 000000000066 RECAC          *26
 01101000 000000000237 RECF           167       181       187       191       218       224      *229
 40000000 000000000065 RECFR          *26
 40000000 000000000070 RECRC          *26
 40000000 000000000067 RECSC          *26
 40000000 000000000003 RECSZ          *26
 40000000 000000000235 REMLT          *26
 40000000 000000000062 REM_RECOVER    *26
 40000000 000000000251 RETFR          *26
 40000000 000000210724 RFDNL          *26
 01101000 000000000300 RFNR           179      *269
 40000000 000000017644 RIM            *26
 01101000 000000000175 RIND           109      *195
 40000000 000000000005 RNAM           *26
 40000000 000000015706 RNDLT          *26
 40000000 000000000662 RNG1           *26
 40000000 000000000664 RNG2           *26
 40000000 000000000073 RNGD           *26
 40000000 000000000072 RNGO           *26
 40000000 000000000660 RNGTAL         *26
 12:44 09/05/97  FILE=ZIM$DBFN.:ZIC0TSI       SYMBOL TABLE                                               34   BMAP - B00
 40000000 000000020154 RNM            *26
 40000000 000000000041 ROCUR          *26
 40000000 000000000001 ROFST          *26
 40000000 000000002114 ROLL           *26
 40000000 000000020010 RPM            *26
 40000000 000000000001 RSCDH          *26
 40000000 000000000001 RSCDN          *26
 40000000 000000211710 RSDNL          *26
 41000000 000000004540 RSEE           *26       270
 40000000 000000000003 RSIZ           *26
 40000000 000000000110 RSPAM          *26
 40000000 000000000004 RSPTR          *26
 40000000 000000000037 RSREQ          *26
 40000000 000000000002 RSSSH          *26
 40000000 000000000001 RSSSN          *26
 40000000 000000210574 RSZER          *26
 40000000 000000000632 RSZTP          *26
 41000000 000000000003 RTP            *26       174
 41000000 000000000003 RTYP           *26       178
 40000000 000000000530 RV1            *26
 40000000 000000000550 RV2            *26
 40000000 000000000570 RV3            *26
 40000000 000000000610 RV4            *26
 41000000 000000000003 RVASID         *24        68       161
 41000000 000000000510 RVI            *26       105       132       157       159       170       172
 41000000 000000000511 RVO            *26       158       171       173       185       230
 40000000 000000000513 RVPA           *26
 40000000 000000000512 RVT            *26
 40000000 000000000022 RVTAL          *26
 40000000 000000000002 RWSZ           *26
 40000000 000000000015 RY             *26
 40000000 000000210620 RYE1           *26
 40000000 000000210621 RYE4           *26
 40000000 777777777767 SA             *26
 40000000 000000000005 SANAM          *26
 40000000 000000001062 SCDES          *26
 40000000 000000211544 SCDNL          *26
 12:44 09/05/97  FILE=ZIM$DBFN.:ZIC0TSI       SYMBOL TABLE                                               35   BMAP - B00
 40000000 000000000024 SCFC           *26
 40000000 000000000002 SCID           *26
 40000000 000000000024 SCLST          *26
 40000000 000000000004 SCNAM          *26
 40000000 000000000004 SCPTR          *26
 40000000 000000000003 SCRSH          *26
 40000000 000000000002 SCRSN          *26
 41000000 000000000001 SCWSO          *26        99       131       149
 01101000 000000000034 SETOK           94       *97
 40000000 000000001225 SFWS           *26
 40000000 000000001073 SIZCHG         *26
 40000000 000000000645 SKFLG          *26
 40000000 000000000643 SKIND          *26
 40000000 000000000641 SKTYP          *26
 40000000 000000020464 SMCR           *26
 40000000 000000000003 SNAM           *26
 40000000 000000000107 SNIND          *26
 40000000 000000000735 SNPAE          *26
 40000000 000000001046 SNSI           *26
 40000000 000000000743 SOE            *26
 40000000 000000020630 SORSA          *26
 40000000 000000004374 SOSE           *26
 40000000 000000000000 SPAV           *26
 40000000 000000000744 SPCAVN         *26
 40000000 000000000744 SPCAVO         *26
 40000000 000000000765 SPLF           *26
 41000000 000000000765 SPND           *26
 40000000 000000000006 SSDT           *26
 40000000 000000303243 SSER           *26
 40000000 000000303244 SSER1          *26
 40000000 000000000002 SSH            *26
 40000000 000000000005 SSNAM          *26
 40000000 000000210573 SSNF           *26
 40000000 000000210576 SSNV           *26
 40000000 000000000020 SSSPTR         *26
 40000000 000000000010 SSVDT          *26
 40000000 000000000033 SSZTP          *26
 12:44 09/05/97  FILE=ZIM$DBFN.:ZIC0TSI       SYMBOL TABLE                                               36   BMAP - B00
 40000000 000000000017 ST             *26
 40000000 000000000104 STBIN          *26
 40000000 000000000105 STDEC          *26
 40000000 000000303302 STE1           *26
 40000000 000000303303 STE2           *26
 40000000 000000210624 STE3           *26
 40000000 000000303305 STE4           *26
 40000000 000000303306 STE5           *26
 00101000 000000000320 STER1         *295
 41000000 000000000100 STKSIZ         *26
 40000000 000000000055 STMASK         *26
 40000000 000000000062 SUST           *26
 41000000 000000000020 SWS            *26
 41000000 000000000000 SWSAC          *26       106
 40000000 000000000002 SWSZ           *26
 40000000 000000000000 SYSSF          *26
 40000000 000000000765 SZREQ          *26
 40000000 000000000004 TBUF           *26
 40000000 000000001061 TCTRS          *26
 60000000 000000000000 TDS            *26
 41000000 000000000113 TEMP           *26
 40000000 000000000640 TFLD           *26
 40000000 000000000657 TFLD2          *26
 40000000 000000000056 TMASK          *26
 40000000 000000000061 TMODE          *26
 40000000 000000000676 TMPPA          *26
 40000000 000000000003 TPAI           *26
 40000000 000000500000 TPRCOD         *26
 40000000 000000001031 TSFN           *26
 40000000 000000000021 TSI            *26
 40000000 000000001013 UBRD2          *26
 41000000 000000001223 UBSZ           *26
 40000000 000000000667 UCADR          *26
 01101000 000000000320 UCER6          237      *293
 40000000 000000000036 UCRS           *26
 40000000 000000000024 UFSPK          *26
 40000000 000000000024 UFSPK2         *26
 12:44 09/05/97  FILE=ZIM$DBFN.:ZIC0TSI       SYMBOL TABLE                                               37   BMAP - B00
 40000000 000000000715 ULIM           *26
 40000000 000000004230 UNA            *26
 40000000 000000303417 UNIM           *26
 40000000 000000000002 UOFST          *26
 40000000 000000001035 UPACD          *26
 40000000 000000000721 UPACW          *26
 40000000 000000000007 UPFLAG         *26
 40000000 000000000103 UPPAI          *26
 40000000 000000000004 UPTSID         *24
 01101000 000000000320 USRE9          239      *294
 40000000 000000000674 USTAT          *26
 40000000 000000000002 UWASID         *24
 40000000 000000000002 UWSSZ          *26
 40000000 000000000020 UWSZ           *26
 40000000 000000000243 VFDSC          *26
 40000000 000000001070 VFDSR          *26
 40000000 000000000656 VFLD           *26
 40000000 000000001074 VFLNG          *26
 40000000 000000001124 VIB1           *26
 40000000 000000001154 VIBP           *26
 41000000 000000000000 VLPSID         *24        64       138       160       207
 40000000 000000001074 VRSIZ          *26
 40000000 000000001067 WLOA           *26
 40000000 000000100000 WRTI           *26
 40000000 000000000000 WSBID          *26
 40000000 000000000003 WSOF           *26
 41000000 000000000000 X0             *24       106       127       128       129       132       183
                                      196       248       255       260       265       271       276
                                      281       286
 41000000 000000000001 X1             *24        75        76        80        81        86        87
                                       92        93        99       119       123       131       139
                                      140       149       155       166       184       190       217
                                      223       227       232       233       234       237       239
 41000000 000000000002 X2             *24       100       101       107       108       112       113
                                      114       173       185       208       209       230
 41000000 000000000003 X3             *24       105
 40000000 000000000004 X4             *24
 12:44 09/05/97  FILE=ZIM$DBFN.:ZIC0TSI       SYMBOL TABLE                                               38   BMAP - B00
 40000000 000000000005 X5             *24
 41000000 000000000006 X6             *24        69        70        90        95       126       148
                                      249       261       266       272       287
 03201011 000000000000 X66_ARET       *24       241
 03201010 000000000000 X66_AUTO_0     *24        62
 41000000 000000000007 X7             *24        71        72        84       162       163       164
                                      175       180       186       231       250       256       267
                                      277       282
 40000000 000000210665 XASL           *26
 40000000 000000303420 XLD            *26
 40000000 000000303421 XPD            *26
 40000000 000000000676 XPRS           *26
 40000000 000000210666 XROLL          *26
 40000000 000000210664 XUNEX          *26
 40000000 777777777777 XXDPN          *26
 03201012 000000000000 ZIB$DBALT     *309
 12101000 000000000000 ZIG$DBFRS       11       *61
 03201001 000000000000 ZIG$DBPCR      *14       119
 03201002 000000000000 ZIG$DBPFD      *15       123
 03201003 000000000000 ZIG$DBPFN      *16       155       190
 03201004 000000000000 ZIG$DBPFP      *17       166
 03201008 000000000000 ZIG$DBUPC      *21       237
 03201009 000000000000 ZIG$DBUSR      *22       239
 03201005 000000000000 ZIM$IFIND      *18       223
 03201006 000000000000 ZIM$IFINDN     *19       227
 03201007 000000000000 ZIM$IFINDP     *20       217
 03201000 000000000000 ZIQ$DBGRC      *13       184

     969 SYMBOLS

 12:44 09/05/97  FILE=ZIM$DBFN.:ZIC0TSI       MACRO TABLE                                                39   BMAP - B00
 CBSYM           26
 DBALT          309
 DBCAL          119       123       155       166       184       190       217       223       227
                237       239
 DBRET          241
 DBSAV           62
 ICCAL          184       237
 Q2SYM           26
 SSSYM           26

      37 MACROS

    SYMBOL SPACE USED  9586 WORDS
     MACRO SPACE USED 13055 WORDS
   INPUT RECORDS READ  2422
 STATEMENTS PROCESSED  2371
         ELAPSED TIME  0:11.44
             CPU TIME    10.97 SEC.
        ASSEMBLY RATE 12968 STATEMENTS/CPU MIN.

      NO ERRORS

