
 12:44 09/05/97  FILE=ZIM$DBFR.:ZIC0TSI                                                                  1    BMAP - B00
                                         1  *M*      ZIG$DBFR
                                         2  *T***********************************************************
                                         3  *T*                                                         *
                                         4  *T* Copyright (c) Bull HN Information Systems Inc., 1997    *
                                         5  *T*                                                         *
                                         6  *T***********************************************************

 12:44 09/05/97  FILE=ZIM$DBFR.:ZIC0TSI       H6600H2.518     IDS/II FIND CURRENT OF RUN     780113DBFR  2    BMAP - B00
                                         7         TTL     H6600H2.518     IDS/II FIND CURRENT OF RUN     780113DBFR
                                         8         CPR     1974
                                         9         PMC     OFF
                                        10  *
                                        11         ENTDEF  ZIG$DBFCR
                                        12  *
                                        13         ENTREF  ZIG$DBPCR
                                        14           ENTREF      ZIM$ICURR
                                        15         ENTREF  ZIG$DBUPC
                                        16         ENTREF  ZIG$DBUSR
                                        17  *
                                        18         LODM    Q2MA
                                        19  *
                                        20         Q2SYM

 12:44 09/05/97  FILE=ZIM$DBFR.:ZIC0TSI       IDS-II  FIND CURRENT OF RUN SUBROUTINE                     3    BMAP - B00
                                        21         TTLS    IDS-II  FIND CURRENT OF RUN SUBROUTINE
                                        22  ****************************************************************
                                        23  *
                                        24  *  - DBFCR -
                                        25  *
                                        26  *      FIND.  Find the current of run.
                                        27  *
                                        28  *      Parameter   Description
                                        29  *      ---------   -----------
                                        30  *
                                        31  *          0       IA
                                        32  *          1       UWA
                                        33  *          2       FPT
                                        34  *
                                        35  *      FPT Format...
                                        36  *
                                        37  *      Word 0:  Retention List Control Word
                                        38  *      Words 1->M:  Retention List.  RVA offsets to the
                                        39  *          schema subset elements which describe the sets
                                        40  *          for which currencies are to be retained.
                                        41  *
                                        42  ****************************************************************
                                        43  *
 0 000000                               44  ZIG$DBFCR NULL
   000000  X 000000 7000 00             45           DBSAV
   000001    000004 000000
   000002    000000 4704 07             46           LDP      PR0,VLPSID,DL        VLP$
   000003    000001 2350 03             47           LDA      1,DU                 Retention list
   000004    0 00000 2751 00            48           ORA      0,,PR0               RLCW
   000005    5 00025 7551 00            49           STA      GRLCW,,PR5           Save it
                                        50  *  GET THE RECORD
   000006  X 000000 7010 00             51           DBCAL    ZIG$DBPCR,,GCRER     Get current of run
   000007 (0)000037 7020 00
   000010    5 00006 2341 00
   000011    777776 6010 04
   000012    7 00510 2371 00            52         LDAQ    RVI,,PR7        * MAKE THE
   000013    7 00511 7551 00            53         STA     RVO,,PR7        *  REC THE
 12:44 09/05/97  FILE=ZIM$DBFR.:ZIC0TSI       IDS-II  FIND CURRENT OF RUN SUBROUTINE                     4    BMAP - B00
   000014    7 00510 7561 00            54         STQ     RVI,,PR7        *   OUT REC VAR
                                        55  *  UPDATE CURRENCIES
   000015    7 00511 2221 00            56           LDX      X2,RVO,,PR7          Get RVO
   000016    7 00005 2271 12            57           LDX      X7,ACPTR,X2,PR7      Get RC offset
   000017    6 00000 2271 17            58           LDX      X7,DEF,X7,PR6        Get def word
   000020    000007 3670 16             59           ANX      X7,.PSTO,PR6         Mask out junk
   000021    000004 1070 03             60           CMPX     X7,4,DU              Is it indexed area
   000022 (0)000025 6010 00             61           TNZ      UPC                  No.
   000023  X 000000 7010 00             62           DBCAL    ZIM$ICURR,,NOALT     Update index currencies
   000024    000000 0020 00
   000025                               63  UPC      NULL
   000025  X 000000 7010 00             64           ICCAL    ZIG$DBUPC,,UCER9     Update currencies
   000026 (0)000036 7020 00
   000027    5 00006 2341 00
   000030    777776 6010 04
                                        65  *  MOVE NAMES TO SPEC. REGS.
   000031  X 000000 7010 00             66         DBCAL   ZIG$DBUSR,,USRE6
   000032 (0)000036 7020 00
   000033    5 00006 2341 00
   000034    777776 6010 04
                                        67  *  RETURN
   000035  X 000000 7020 00             68           DBRET
                                        69  *
                                        70  *  ERRORS DETECTED IN THIS ROUTINE
                                        71  *
                                        72  *
                                        73  *  ERRORS DETECTED IN SUBORDINATE ROUTINES
                                        74  *
   000036                               75  UCER9  NULL                    UPDATE CURRENCY ERROR
   000036                               76  USRE6  NULL                    UPDATE SPEC. REGS. ERROR
   000036                               77  STER1  NULL                    ERROR ACCUMULATING STATISTICS
   000036 (0)000040 7100 00             78         TRA     FRR1
                                        79  *
                                        80  *  ERRORS DETECTED IN PRIMITIVES
                                        81  *
   000037                               82  GCRER  NULL                    GET CURRENT OF RUN ERROR
   000037 (0)000040 7100 00             83         TRA     FRR1
 12:44 09/05/97  FILE=ZIM$DBFR.:ZIC0TSI       IDS-II  FIND CURRENT OF RUN SUBROUTINE                     5    BMAP - B00
                                        84  *
                                        85  *  COMMON ERROR RETURN
                                        86  *
   000040  X 000000 7020 00             87  FRR1     DBALT
                                        88         END

  CONTROL SECTION TABLE

   0 CODE   EVEN  000041
   1 RODATA EVEN  000000 LITERALS

 12:44 09/05/97  FILE=ZIM$DBFR.:ZIC0TSI       SYMBOL TABLE                                               6    BMAP - B00
 40000000 000000200000 .AC            *20
 40000000 000000000100 .AG            *20
 40000000 000000002000 .ALTO          *20
 40000000 000000000077 .ANL           *20
 40000000 000000200000 .APDN          *20
 40000000 000000000100 .ATMP          *20
 40000000 000000400000 .AV            *20
 40000000 000000400000 .B0            *20
 40000000 000000200000 .B1            *20
 40000000 000000000200 .B10           *20
 40000000 000000000100 .B11           *20
 40000000 000000000040 .B12           *20
 40000000 000000000020 .B13           *20
 40000000 000000000010 .B14           *20
 40000000 000000000004 .B15           *20
 40000000 000000000002 .B16           *20
 40000000 000000000001 .B17           *20
 40000000 000000400000 .B18           *20
 40000000 000000200000 .B19           *20
 40000000 000000100000 .B2            *20
 40000000 000000100000 .B20           *20
 40000000 000000040000 .B21           *20
 40000000 000000020000 .B22           *20
 40000000 000000010000 .B23           *20
 40000000 000000004000 .B24           *20
 40000000 000000002000 .B25           *20
 40000000 000000001000 .B26           *20
 40000000 000000000400 .B27           *20
 40000000 000000000200 .B28           *20
 40000000 000000000100 .B29           *20
 40000000 000000040000 .B3            *20
 40000000 000000000040 .B30           *20
 40000000 000000000020 .B31           *20
 40000000 000000000010 .B32           *20
 40000000 000000000004 .B33           *20
 40000000 000000000002 .B34           *20
 40000000 000000000001 .B35           *20
 12:44 09/05/97  FILE=ZIM$DBFR.:ZIC0TSI       SYMBOL TABLE                                               7    BMAP - B00
 40000000 000000020000 .B4            *20
 40000000 000000010000 .B5            *20
 40000000 000000004000 .B6            *20
 40000000 000000002000 .B7            *20
 40000000 000000001000 .B8            *20
 40000000 000000000400 .B9            *20
 40000000 000000000001 .BREAK         *20
 40000000 000000010000 .BRK           *20
 40000000 000000020000 .BTB           *20
 40000000 000000000001 .CAC           *20
 40000000 000000000000 .CAE           *20
 40000000 000000000200 .CANSSS        *20
 40000000 000000000400 .CD            *20
 40000000 000000040000 .CFLC          *20
 40000000 000000400000 .CHKSUM        *20
 40000000 000000100000 .CJRNL         *20
 40000000 000000000077 .CNSZ          *20
 40000000 000000160000 .COMC          *20
 40000000 000000000020 .CONT          *20
 40000000 000000000000 .CSE           *20
 40000000 000000700000 .CTYP          *20
 41000000 000000000270 .DBEST         *20
 41000000 000000000470 .DBIC          *20
 40000000 000000077777 .DBPT          *20
 41000000 000000000370 .DBSTK         *20
 40000000 000000020000 .DELM          *20
 40000000 000000002000 .DIDP          *20
 40000000 000000000077 .DNDX          *20
 40000000 000000600000 .DORD          *20
 40000000 000000000200 .DP            *20
 40000000 000000100000 .DPS           *20
 40000000 000000200000 .DPSA          *20
 40000000 000000400000 .DPST          *20
 40000000 000000000002 .DUMP          *20
 40000000 000000002000 .DUPC          *20
 40000000 000000010000 .DUPP          *20
 40000000 000000200000 .EBCL          *20
 12:44 09/05/97  FILE=ZIM$DBFR.:ZIC0TSI       SYMBOL TABLE                                               8    BMAP - B00
 40000000 000000400000 .EBCM          *20
 40000000 000000200000 .ENCRP         *20
 40000000 000000000077 .ENDX          *20
 40000000 000000000400 .ENQ           *20
 40000000 000000004000 .ETC           *20
 40000000 000000000400 .EXIT          *20
 40000000 000000000200 .FMOD          *20
 40000000 000000000077 .FNL           *20
 40000000 000000000074 .FORG          *20
 40000000 000000002000 .FR            *20
 40000000 000000000100 .FSR           *20
 40000000 000000003400 .FUSE          *20
 40000000 000000010000 .FVF           *20
 40000000 000000040000 .FVR           *20
 40000000 000000000010 .INDEXED       *20
 40000000 000000777777 .IXID          *20
 40000000 000000001777 .IXNUM         *20
 40000000 000000000004 .KEYED         *20
 40000000 000000010000 .LCK           *20
 40000000 000000400000 .LEIL          *20
 40000000 000000001000 .LG            *20
 40000000 000000000002 .LOAD          *20
 40000000 000000020000 .MAR           *20
 40000000 000000000007 .MEMT          *20
 40000000 000000010000 .MRL           *20
 40000000 000000040000 .MSM           *20
 60000000 000000000001 .N6685         *20
 40000000 000000100000 .NAI           *20
 40000000 000000200000 .NBI           *20
 40000000 000000000002 .NCIA          *20
 40000000 000000040000 .NMV           *20
 40000000 000000017777 .NOENT         *20
 40000000 000000400000 .OA            *20
 40000000 000000740000 .OPEV          *20
 40000000 000000100000 .OSM           *20
 40000000 000000100000 .PAFIL         *20
 40000000 000000200000 .PAHVR         *20
 12:44 09/05/97  FILE=ZIM$DBFR.:ZIC0TSI       SYMBOL TABLE                                               9    BMAP - B00
 40000000 000000000001 .PAIA          *20
 40000000 000000040000 .PALIL         *20
 40000000 000000020000 .PALVR         *20
 40000000 000000400000 .PANLL         *20
 40000000 000000400000 .PCKD          *20
 40000000 000000001600 .PMOD          *20
 40000000 000000000520 .PRCSE         *20
 41000000 000000000007 .PSTO          *20        59
 40000000 000000006040 .PTAS          *20
 40000000 000000010100 .PTCHK         *20
 40000000 000000010200 .PTDEC         *20
 40000000 000000010140 .PTENC         *20
 40000000 000000020000 .RA            *20
 40000000 000000100000 .RC            *20
 40000000 000000400000 .RELEASE       *20
 40000000 000000000017 .RELT          *20
 40000000 000000004000 .RERA          *20
 40000000 000000400000 .RERS          *20
 40000000 000000010000 .RKEY          *20
 40000000 000000000077 .RNL           *20
 40000000 000000200000 .RSTO          *20
 40000000 000000007777 .RTYP          *20
 40000000 000000040000 .SC            *20
 40000000 000000000070 .SETM          *20
 40000000 000000740000 .SETO          *20
 40000000 000000000700 .SETT          *20
 40000000 000000040000 .SFNP          *20
 40000000 000000004000 .SM            *20
 40000000 000000020000 .SMOD          *20
 40000000 000000000077 .SNL           *20
 40000000 000000020000 .SNSS          *20
 40000000 000000010000 .SO            *20
 40000000 000000100000 .SR            *20
 40000000 000000004000 .SRCR          *20
 40000000 000000001000 .SS            *20
 40000000 000000000007 .SSTP          *20
 40000000 000000004000 .SYN           *20
 12:44 09/05/97  FILE=ZIM$DBFR.:ZIC0TSI       SYMBOL TABLE                                               10   BMAP - B00
 40000000 000000000040 .SYNC          *20
 40000000 000000020000 .TJRNL         *20
 40000000 000000040000 .TMPLT         *20
 40000000 000000040000 .TRACE         *20
 40000000 000000000001 .TRENTRY       *20
 40000000 000000000012 .TRIDEL        *20
 40000000 000000000021 .TRIDELENQ     *20
 40000000 000000000024 .TRIDEQ        *20
 40000000 000000000013 .TRIMOD        *20
 40000000 000000000022 .TRIMODENQ     *20
 40000000 000000000014 .TRIREAD       *20
 40000000 000000000023 .TRIREADENQ    *20
 40000000 000000000011 .TRISTO        *20
 40000000 000000000020 .TRISTOENQ     *20
 40000000 000000000017 .TRPDEQ        *20
 40000000 000000000004 .TRPMOD        *20
 40000000 000000000016 .TRPMODENQ     *20
 40000000 000000000002 .TRPREAD       *20
 40000000 000000000015 .TRPREADENQ    *20
 40000000 000000000003 .TRPWRITE      *20
 40000000 000000000010 .TRRACC        *20
 40000000 000000000006 .TRRDEL        *20
 40000000 000000000007 .TRRMOD        *20
 40000000 000000000005 .TRRSTO        *20
 40000000 000000004000 .ULCK          *20
 40000000 000000400000 .UPDT          *20
 40000000 000000000040 .VIA           *20
 60000000 000000000001 A              *20
 40000000 000000000002 ABAS           *20
 40000000 000000000001 AC             *20
 40000000 777777777760 ACDEF          *20
 40000000 000000211070 ACDNL          *20
 40000000 000000000003 ACID           *20
 40000000 000000001016 ACOPN          *20
 40000000 000000000002 ACP            *20
 41000000 000000000005 ACPTR          *20        57
 40000000 000000000002 ACRAH          *20
 12:44 09/05/97  FILE=ZIM$DBFR.:ZIC0TSI       SYMBOL TABLE                                               11   BMAP - B00
 40000000 000000000001 ACRAN          *20
 40000000 000000001003 ACREC          *20
 40000000 000000000001 ACTDBCB        *20
 40000000 000000000002 ACTDBNO        *20
 40000000 000000001017 ACTP           *20
 40000000 000000000000 ACTSSS         *20
 40000000 000000000000 ACTSZ          *20
 40000000 000000210565 AFNP           *20
 40000000 000000000635 AFT            *20
 40000000 000000022124 AIR            *20
 40000000 000000000016 AMAX           *20
 40000000 000000000026 ANAM           *20
 40000000 000000021614 ANR            *20
 40000000 000000000001 APNO           *20
 40000000 000000210562 ARGER          *20
 41000000 000000000020 ARGS           *20
 40000000 000000000077 ARGS2          *20
 40000000 000000210713 ARNAF          *20
 40000000 000000000003 ATBL           *20
 40000000 000000000000 ATRIB          *20
 40000000 000000000002 AVLN           *20
 40000000 000000000013 AWS$           *20
 40000000 000000000010 AWSZ           *20
 60000000 000000000001 B              *20
 40000000 000000001006 B32N           *20
 40000000 000000001007 B36N           *20
 40000000 000000001056 B72N           *20
 40000000 000000000001 BADDR          *20
 40000000 000000210712 BADSEED        *20
 40000000 777777777765 BDCW           *20
 40000000 000000000633 BEF            *20
 40000000 000000020000 BEFW           *20
 40000000 000000000751 BEMT           *20
 40000000 777777777761 BID            *20
 40000000 777777777762 BIND           *20
 40000000 000000000007 BLKD           *20
 40000000 000000303331 BME02          *20
 12:44 09/05/97  FILE=ZIM$DBFR.:ZIC0TSI       SYMBOL TABLE                                               12   BMAP - B00
 41000000 000000001203 BMPB           *20
 40000000 000000000652 BN1            *20
 40000000 000000000654 BN2            *20
 40000000 000000000004 BPL            *20
 40000000 000000000015 BPLDBK         *20
 40000000 000000000034 BSPG           *20
 40000000 777777777763 BSTAT          *20
 40000000 000000000750 BTX0           *20
 41000000 000000001160 BUF4           *20
 41000000 000000001170 BUF6           *20
 41000000 000000000000 BUFORG         *20
 40000000 000000001060 BUFRQ          *20
 40000000 000000000006 BURRID         *20
 41000000 000000000020 BWASZ          *20
 60000000 000000000001 C              *20
 40000000 000000000050 CAAC           *20
 40000000 000000000050 CACD           *20
 40000000 000000000111 CAG            *20
 40000000 000000001033 CAL            *20
 40000000 000000000026 CALLPM0        *20
 40000000 000000000003 CANSSS         *20
 40000000 000000000003 CBCPA          *20
 40000000 000000000002 CBCPO          *20
 40000000 000000000002 CBENO          *20
 40000000 000000000014 CBFSZ          *20
 40000000 000000000753 CBIB           *20
 40000000 000000001030 CBID           *20
 40000000 000000000014 CBRCE          *20
 40000000 000000000014 CBRCP          *20
 40000000 000000001033 CBRID          *20
 40000000 000000000015 CBRPA          *20
 40000000 000000000031 CCHAR          *20
 40000000 000000000040 CDBK           *20
 40000000 000000000030 CDES           *20
 40000000 000000000110 CDP            *20
 40000000 000000001044 CDPSI          *20
 40000000 000000000002 CDRH           *20
 12:44 09/05/97  FILE=ZIM$DBFR.:ZIC0TSI       SYMBOL TABLE                                               13   BMAP - B00
 40000000 000000000003 CDRN           *20
 40000000 000000000002 CDSH           *20
 40000000 000000000003 CDSN           *20
 40000000 000000000722 CENTRN         *20
 40000000 000000000722 CENTRO         *20
 40000000 000000000716 CENTRY         *20
 41000000 000000001053 CFCT           *20
 40000000 000000000670 CFLPT1         *20
 40000000 000000000672 CFLPT2         *20
 40000000 000000000015 CFSA           *20
 40000000 000000000646 CHDBK          *20
 40000000 000000000773 CHR            *20
 40000000 000000000006 CHRD           *20
 40000000 000000000772 CHRO           *20
 40000000 000000007640 CHRTP          *20
 40000000 000000001043 CIAC           *20
 40000000 000000000012 CIAWS          *20
 40000000 000000001051 CIBSI          *20
 40000000 000000000516 CIND           *20
 40000000 000000001041 CINVSZ         *20
 40000000 000000001042 CIPG           *20
 40000000 000000001050 CIPSI          *20
 40000000 000000000000 CIRUN          *20
 40000000 000000000002 CIRWS          *20
 40000000 000000000002 CISWS          *20
 40000000 000000000014 CIWSOF         *20
 40000000 000000303374 CKSM           *20
 40000000 000000000022 CLCN           *20
 40000000 000000000023 CLCP           *20
 40000000 000000000003 CLCRC          *20
 40000000 000000000003 CLCSC          *20
 40000000 000000000237 CLI            *20
 40000000 000000000026 CLNG           *20
 40000000 000000000052 CMPL           *20
 40000000 000000000002 CN             *20
 40000000 000000303315 CNE1           *20
 40000000 000000006034 CNUL           *20
 12:44 09/05/97  FILE=ZIM$DBFR.:ZIC0TSI       SYMBOL TABLE                                               14   BMAP - B00
 40000000 000000100000 COB74          *20
 40000000 000000000001 COFS           *20
 40000000 000000000045 CONCD          *20
 40000000 000000007764 CP6PGSZB       *20
 41000000 000000001775 CP6PGSZW       *20
 40000000 000000001000 CPGR           *20
 40000000 000000000723 CPTRN          *20
 40000000 000000000723 CPTRO          *20
 60000000 000000000004 CPW            *20
 40000000 000000000112 CRA            *20
 40000000 000000001004 CRD            *20
 40000000 000000000764 CREC           *20
 40000000 000000006344 CRIT           *20
 40000000 000000006200 CRNUL          *20
 40000000 000000007330 CRST           *20
 41000000 000000001223 CRUN           *20
 41000000 000000000000 CSECT          *20
 40000000 000000000007 CSMPP          *20
 40000000 000000001000 CSPAC          *20
 40000000 000000000004 CSPAH          *20
 40000000 777777777776 CSPES          *20
 40000000 777777777776 CSPSB          *20
 40000000 000000000115 CSTS           *20
 40000000 000000000071 CSUB           *20
 40000000 000000000017 CSZ            *20
 40000000 000000000057 CTMASK         *20
 40000000 000000000774 CTPAI          *20
 40000000 000000000240 CURLN          *20
 40000000 000000000236 CURLT          *20
 40000000 000000000770 CURPG          *20
 40000000 000000000001 CURR           *20
 40000000 000000000035 CURRS          *20
 40000000 000000000037 CURSS          *20
 40000000 000000001005 CWRT           *20
 40000000 000000000237 CWSOF          *20
 60000000 000000000001 D              *20
 40000000 000000000003 DBAN           *20
 12:44 09/05/97  FILE=ZIM$DBFR.:ZIC0TSI       SYMBOL TABLE                                               15   BMAP - B00
 40000000 000000000036 DBDR           *20
 40000000 000000000037 DBFN           *20
 40000000 000000000754 DBK            *20
 40000000 000000000777 DBKAC          *20
 40000000 000000000000 DBKEY          *20
 40000000 000000000000 DBKL           *20
 40000000 000000007474 DBKN           *20
 41000000 000000000776 DBKR           *20
 40000000 000000000777 DBKRQ          *20
 40000000 000000000234 DBKSI          *20
 40000000 000000000651 DBKSR          *20
 40000000 000000000047 DBKYN          *20
 40000000 000000210652 DBLC01         *20
 40000000 000000210653 DBLC05         *20
 40000000 000000303334 DBLC07         *20
 40000000 000000210655 DBLD01         *20
 40000000 000000000010 DBLIM          *20
 40000000 000000000033 DBPKY          *20
 40000000 000000000023 DBRN           *20
 40000000 000000000013 DBSN           *20
 40000000 000000000001 DBST           *20
 40000000 000000000757 DCDSR          *20
 40000000 000000210650 DCE1           *20
 40000000 000000001053 DCPR           *20
 40000000 000000001053 DCPW           *20
 40000000 000000000015 DCTBL          *20
 40000000 000000000032 DDBK           *20
 40000000 000000000006 DDCB           *20
 40000000 000000011754 DDI            *20
 41000000 000000000000 DEF            *20        58
 40000000 000000000014 DEF2           *20
 40000000 000000303413 DELAK          *20
 40000000 000000000036 DELRS          *20
 40000000 000000000732 DEPCW          *20
 40000000 000000303414 DLDBK          *20
 40000000 000000210627 DLE1           *20
 40000000 000000303310 DLE2           *20
 12:44 09/05/97  FILE=ZIM$DBFR.:ZIC0TSI       SYMBOL TABLE                                               16   BMAP - B00
 40000000 000000210631 DLE3           *20
 40000000 000000016040 DNES           *20
 40000000 777777777777 DPAGN          *20
 40000000 000000000020 DPPI           *20
 40000000 000000000053 DPSLW          *20
 40000000 000000000003 DS             *20
 40000000 000000001063 DSDES          *20
 40000000 000000303316 DSE1           *20
 40000000 000000000735 DUSEPA         *20
 60000000 000000000001 E              *20
 40000000 000000303251 EDPER          *20
 40000000 000000000026 EEIND          *20
 40000000 000000000713 EFIND          *20
 40000000 000000001030 ELO            *20
 40000000 000000210711 ENCPNA         *20
 40000000 000000000007 ENCRP          *20
 40000000 000000000752 ENDSR          *20
 40000000 000000210647 ENE1           *20
 40000000 000000000716 ENIND          *20
 40000000 000000000013 ENTBL          *20
 40000000 000000000710 ENTNO          *20
 40000000 000000000712 ENTPTR         *20
 40000000 000000000717 ENTSZ          *20
 40000000 000000000711 ENTTYP         *20
 40000000 000000004064 EOSR           *20
 40000000 000000000004 ES             *20
 41000000 000000000100 ESTSZ          *20
 40000000 000000000725 ESZ            *20
 40000000 000000000005 ETCADR         *20
 40000000 000000000005 ETCDBNO        *20
 40000000 000000000064 EXCCD          *20
 40000000 000000234534 FALRT          *20
 40000000 000000001055 FBF72          *20
 40000000 000000001025 FBU61          *20
 40000000 000000001020 FBUF           *20
 40000000 000000001026 FBUF1          *20
 40000000 000000001027 FBUF4          *20
 12:44 09/05/97  FILE=ZIM$DBFR.:ZIC0TSI       SYMBOL TABLE                                               17   BMAP - B00
 40000000 000000001024 FBUF6          *20
 40000000 000000001022 FBUFM          *20
 40000000 000000001021 FBUFU          *20
 40000000 000000001023 FBUMD          *20
 40000000 000000000004 FCN            *20
 40000000 000000000051 FCNT           *20
 40000000 000000000002 FCP            *20
 40000000 000000000047 FCSS           *20
 40000000 000000000005 FD             *20
 40000000 000000210637 FDE1           *20
 40000000 000000303320 FDE2           *20
 40000000 000000303321 FDE3           *20
 40000000 000000210642 FDE4           *20
 40000000 000000210643 FDE5           *20
 40000000 000000210644 FDE6           *20
 40000000 000000303325 FDE7           *20
 40000000 000000303326 FDE8           *20
 40000000 000000000021 FEASZ          *20
 40000000 000000000740 FETM           *20
 40000000 000000000006 FI             *20
 40000000 000000000103 FIAC           *20
 41000000 000000001100 FIB1           *20
 41000000 000000001130 FIBP           *20
 40000000 000000000000 FIBX           *20
 40000000 000000000102 FICNT          *20
 40000000 000000000005 FIPN           *20
 40000000 000000000054 FKIND          *20
 40000000 000000000015 FLAGS          *20
 40000000 000000000244 FLDDSC         *20
 40000000 000000000046 FLDTL          *20
 40000000 000000000020 FMSBF          *20
 40000000 000000000006 FNAM           *20
 40000000 000000000250 FNIND          *20
 40000000 000000000004 FNL            *20
 40000000 000000000101 FRAC           *20
 40000000 000000000002 FRANGE         *20
 40000000 000000211400 FRDNL          *20
 12:44 09/05/97  FILE=ZIM$DBFR.:ZIC0TSI       SYMBOL TABLE                                               18   BMAP - B00
 01101000 000000000040 FRR1            78        83       *87
 40000000 000000200000 FRTRN          *20
 40000000 000000000005 FRWSO          *20
 40000000 000000000767 FSLN           *20
 40000000 000000000766 FSOF           *20
 40000000 000000000060 FTIND          *20
 40000000 000000303240 FTLINCR        *20
 40000000 000000000021 FWSSZ          *20
 40000000 000000000246 GACDK          *20
 01101000 000000000037 GCRER           51       *82
 40000000 000000000014 GDCB           *20
 41000000 000000000006 GERROR         *20        51        64        66
 40000000 000000000016 GINHIB         *20
 40000000 000000000020 GIOAWS         *20
 40000000 000000000022 GIOBUF         *20
 40000000 000000000021 GIOPGNO        *20
 40000000 000000000015 GPAGE          *20
 40000000 000000000010 GRETAC         *20
 40000000 000000000011 GRETFR         *20
 40000000 000000000013 GRETRC         *20
 40000000 000000000012 GRETSC         *20
 41000000 000000000025 GRLCW          *20        49
 40000000 000000000014 GSTCD          *20
 40000000 000000000007 GSYSERR        *20
 40000000 000000000010 GT             *20
 40000000 000000000046 GTRNAME        *20
 40000000 000000000055 GTRPDCB        *20
 40000000 000000000056 GTRPNO         *20
 40000000 000000000057 GTRRDBK        *20
 40000000 000000000060 GTRRTYPE       *20
 40000000 000000000060 GTRTYPE        *20
 40000000 000000000027 HASH           *20
 40000000 000000000022 HIA            *20
 40000000 000000000775 HIDB           *20
 40000000 000000000003 HIGHDBK        *20
 40000000 000000000004 HIGHPG         *20
 40000000 000000001037 HIL            *20
 12:44 09/05/97  FILE=ZIM$DBFR.:ZIC0TSI       SYMBOL TABLE                                               19   BMAP - B00
 40000000 000000000002 HILN           *20
 40000000 000000000006 HPOS           *20
 40000000 000000000756 IAAC           *20
 40000000 000000001011 IACLN          *20
 40000000 000000001010 IALC           *20
 40000000 000000010314 IAN            *20
 40000000 000000001012 IANLN          *20
 40000000 000000000001 IASID          *18
 40000000 000000020320 ICA            *20
 40000000 000000000023 ICKSMP         *20
 40000000 000000000024 ICKSMV         *20
 40000000 000000210742 ICNR           *20
 41000000 000000000020 ICSIZ          *20
 40000000 000000010004 IDBK           *20
 40000000 000000012120 IDI            *20
 40000000 000000000023 IDS            *20
 40000000 000000000011 IF             *20
 40000000 000000000021 IFIPN          *20
 40000000 000000000000 IFR            *20
 40000000 000000234546 IKSEQ          *20
 40000000 000000000113 INAFLAG        *20
 40000000 000000000016 INCHA          *20
 40000000 000000210566 INNM           *20
 40000000 000000210567 INSS           *20
 40000000 000000210575 INSST          *20
 40000000 000000303241 INTER          *20
 40000000 000000400000 INTII          *20
 40000000 000000000013 INTVL          *20
 40000000 000000001060 INVFLG         *20
 40000000 000000001043 INVOF          *20
 40000000 000000000014 INVT           *20
 40000000 000000000034 IOBLK          *20
 40000000 000000303354 IOCLSD         *20
 40000000 000000303355 IOCLSK         *20
 40000000 000000303257 IOE1           *20
 40000000 000000303264 IOE11          *20
 40000000 000000303265 IOE12          *20
 12:44 09/05/97  FILE=ZIM$DBFR.:ZIC0TSI       SYMBOL TABLE                                               20   BMAP - B00
 40000000 000000303266 IOE18          *20
 40000000 000000303260 IOE2           *20
 40000000 000000303261 IOE3           *20
 40000000 000000303262 IOE7           *20
 40000000 000000303263 IOE8           *20
 40000000 000000303363 IOFLSH         *20
 40000000 000000210676 IOGDCB         *20
 40000000 000000001002 IOINC          *20
 40000000 000000305160 IOINI          *20
 40000000 000000305155 IONOTIDS       *20
 40000000 000000305154 IONOTKEY       *20
 40000000 000000210677 IOOPND         *20
 40000000 000000210700 IOOPNK         *20
 40000000 000000303361 IORDD          *20
 40000000 000000305156 IOSCHEMA       *20
 40000000 000000001052 IOSTS          *20
 40000000 000000303362 IOWRTD         *20
 41000000 000000000750 IOWS           *20
 40000000 000000000647 IPC            *20
 40000000 000000000650 IPCF           *20
 40000000 000000000006 IROLLFLAG      *20
 40000000 000000010150 IRSN           *20
 40000000 000000000004 ISYSDCB        *20
 40000000 000000000005 ISYSERR        *20
 40000000 000000000061 ITPTR          *20
 40000000 000000000060 ITRS           *20
 40000000 000000021760 IUM            *20
 40000000 000000000017 IUSZ           *20
 40000000 000000234522 IVDBK          *20
 40000000 000000000011 IXBUF$         *20
 40000000 000000000046 IXFBSZ         *20
 40000000 777777777776 IXID           *20
 40000000 777777777777 IXPLL          *20
 40000000 000000000523 KCARG0         *20
 40000000 000000000524 KCARG3         *20
 40000000 000000000525 KCARG4         *20
 40000000 000000000700 KCREG          *20
 12:44 09/05/97  FILE=ZIM$DBFR.:ZIC0TSI       SYMBOL TABLE                                               21   BMAP - B00
 40000000 000000000006 KDCB           *20
 40000000 000000000666 KEYDS          *20
 40000000 000000000010 KEYPA          *20
 40000000 777777777776 KLNG           *20
 40000000 000000000022 KPASZ          *20
 40000000 000000000006 KWSZ           *20
 40000000 000000000052 LANGC          *20
 40000000 000000001014 LAS            *20
 40000000 000000700000 LCODM          *20
 40000000 000000001045 LDPSI          *20
 40000000 000000001071 LINPT          *20
 40000000 000000001017 LNCNT          *20
 40000000 000000000762 LNNO           *20
 40000000 000000001036 LOL            *20
 40000000 000000000715 LOLIM          *20
 40000000 000000000023 LPASZ          *20
 40000000 000000000012 LPP            *20
 40000000 000000257764 LR             *20
 40000000 000000301270 LRA            *20
 40000000 000000000017 LRSZ           *20
 40000000 000000001035 LSPC           *20
 40000000 000000000750 LUPD           *20
 61000000 000000000001 M9             *20
 40000000 000000000013 MD             *20
 40000000 000000300000 MDQS           *20
 40000000 000000000730 MEMPTR         *20
 40000000 000000000727 MEMTYP         *20
 40000000 000000000045 MODCD          *20
 41000000 000000001207 MODFL          *20
 40000000 000000000042 MODFR          *20
 40000000 000000000044 MODIN          *20
 40000000 000000000044 MODRS          *20
 40000000 000000000043 MODSC          *20
 40000000 000000000047 MRBKI          *20
 40000000 000000210632 MRE4           *20
 40000000 000000303313 MRE5           *20
 40000000 000000210634 MRE7           *20
 12:44 09/05/97  FILE=ZIM$DBFR.:ZIC0TSI       SYMBOL TABLE                                               22   BMAP - B00
 40000000 000000400000 MW             *20
 40000000 000000000025 NCH            *20
 40000000 000000000002 NCHA           *20
 40000000 000000000005 NCHRS          *20
 40000000 000000000014 NDCD           *20
 40000000 000000000012 NENC           *20
 40000000 000000000634 NEW            *20
 40000000 000000001072 NEWSIZ         *20
 40000000 000000235164 NKA            *20
 40000000 000000235020 NKDB           *20
 40000000 000000303415 NLDBK          *20
 40000000 777777777777 NLIND          *20
 40000000 000000001040 NLN            *20
 40000000 000000400000 NLNSA          *20
 41000000 000000001053 NOBF           *20
 40000000 000000000711 NOPTRS         *20
 40000000 000000000742 NPARCW         *20
 40000000 000000000630 NPIND          *20
 40000000 000000000004 NPOS           *20
 40000000 000000234510 NSA            *20
 40000000 000000234654 NSCS           *20
 40000000 000000234344 NSDB           *20
 40000000 000000000001 NSTS           *20
 40000000 000000000726 NUMENT         *20
 40000000 000000000727 NUMPTR         *20
 40000000 777777777760 NXBUF          *20
 40000000 000000000713 NXPRI          *20
 40000000 000000000771 NXTC           *20
 40000000 000000000001 OAACN          *20
 40000000 000000000022 OACIWSOF       *20
 40000000 000000000001 OAOFST         *20
 40000000 000000000002 OARCN          *20
 40000000 000000000001 OASCN          *20
 40000000 000000000014 OD             *20
 40000000 000000000074 ODBK           *20
 40000000 000000001072 OLDSIZ         *20
 40000000 000000000101 OPADP          *20
 12:44 09/05/97  FILE=ZIM$DBFR.:ZIC0TSI       SYMBOL TABLE                                               23   BMAP - B00
 40000000 000000000741 OPARCW         *20
 40000000 000000210570 ORDNI          *20
 40000000 777777777777 OTVL           *20
 40000000 000000000252 OWNPTR         *20
 40000000 000000000016 PABUF          *20
 40000000 000000001041 PACD           *20
 40000000 000000000001 PACW           *20
 40000000 000000000733 PADBK          *20
 40000000 000000000740 PADUP          *20
 40000000 000000000745 PAEN           *20
 40000000 000000000745 PAEO           *20
 40000000 000000000734 PAEOF          *20
 40000000 000000303336 PAER1          *20
 40000000 000000303337 PAER2          *20
 40000000 000000303340 PAER3          *20
 40000000 000000303341 PAER4          *20
 40000000 000000303342 PAER5          *20
 40000000 000000303343 PAER6          *20
 40000000 000000000747 PAESZ          *20
 40000000 000000001060 PAFLG          *20
 40000000 000000000731 PAOPTR         *20
 40000000 000000000734 PAPOF          *20
 40000000 000000000714 PARCW          *20
 40000000 000000000726 PARVPA         *20
 40000000 000000000724 PASPLT         *20
 40000000 000000000004 PAWSZ          *20
 40000000 777777777762 PBUF           *20
 40000000 000000000020 PC             *20
 41000000 000000000510 PCB            *20
 40000000 000000000642 PCD            *20
 40000000 000000000642 PCD2           *20
 40000000 000000000247 PCEXI          *20
 40000000 000000000675 PCMIN          *20
 40000000 000000004541 PCOMP          *20
 40000000 000000000010 PD             *20
 40000000 000000000040 PE             *20
 40000000 000000000017 PENDING        *20
 12:44 09/05/97  FILE=ZIM$DBFR.:ZIC0TSI       SYMBOL TABLE                                               24   BMAP - B00
 40000000 000000000004 PF             *20
 40000000 000000000400 PFG            *20
 40000000 000000000200 PFM            *20
 40000000 000000000100 PFS            *20
 40000000 000000000400 PG             *20
 40000000 000000001064 PGHD           *20
 40000000 000000000006 PGLIM          *20
 40000000 000000000003 PGRNG          *20
 40000000 000000000746 PGSIZE         *20
 40000000 000000000641 PGSPLT         *20
 40000000 000000000100 PKAW           *20
 40000000 000000001034 PLO            *20
 40000000 000000000004 PLSEP          *20
 40000000 000000000200 PM             *20
 40000000 000000001054 PNEOO          *20
 40000000 000000001047 POFSI          *20
 40000000 000000000005 PPOS           *20
 41000000 000000000000 PR0            *18        46        48
 40000000 000000000001 PR1            *18
 40000000 000000000002 PR2            *18
 40000000 000000000003 PR3            *18
 40000000 000000000004 PR4            *18
 41000000 000000000005 PR5            *18        49        51        64        66
 41000000 000000000006 PR6            *18        58        59
 41000000 000000000007 PR7            *18        52        53        54        56        57
 40000000 000000303267 PRE1           *20
 40000000 000000303277 PRE10          *20
 40000000 000000303270 PRE3           *20
 40000000 000000303271 PRE4           *20
 40000000 000000303272 PRE5           *20
 40000000 000000210613 PRE6           *20
 40000000 000000210614 PRE7           *20
 40000000 000000210615 PRE8           *20
 40000000 000000303276 PRE9           *20
 40000000 000000000522 PREXC          *20
 40000000 000000000521 PRFR           *20
 40000000 000000000521 PRFR2          *20
 12:44 09/05/97  FILE=ZIM$DBFR.:ZIC0TSI       SYMBOL TABLE                                               25   BMAP - B00
 40000000 000000000000 PRIV           *20
 40000000 000000000526 PROPA          *20
 40000000 000000000517 PRRC           *20
 40000000 000000000517 PRRS           *20
 40000000 000000000520 PRSC           *20
 40000000 000000000516 PRSS           *20
 40000000 000000000644 PRSTS          *20
 40000000 000000000100 PS             *20
 41000000 000000000000 PS0SID         *18
 41000000 000000000001 PS1SID         *18
 41000000 000000000002 PS2SID         *18
 41000000 000000000003 PS3SID         *18
 41000000 000000000004 PS4SID         *18
 40000000 000000000005 PS5SID         *18
 40000000 000000000006 PS6SID         *18
 40000000 000000303416 PSA            *20
 40000000 000000000020 PSC            *20
 40000000 000000000010 PSD            *20
 40000000 000000000004 PSF            *20
 40000000 000000000400 PSO            *20
 40000000 000000000720 PTESZ          *20
 40000000 000000000631 PTR            *20
 40000000 000000000724 PTRESZ         *20
 40000000 000000000710 PTRNO          *20
 41000000 000000000630 PWS            *20
 40000000 000000000002 RADDR          *20
 40000000 000000000010 RADIX          *20
 40000000 000000000005 RAPTR          *20
 40000000 000000000004 RAWSOF         *20
 40000000 777777777766 RBA            *20
 40000000 000000023432 RCBI           *20
 40000000 000000211234 RCDNL          *20
 40000000 000000000005 RCFRH          *20
 40000000 000000000004 RCFRN          *20
 40000000 000000001075 RCHD           *20
 40000000 000000000001 RCID           *20
 40000000 000000000006 RCPTR          *20
 12:44 09/05/97  FILE=ZIM$DBFR.:ZIC0TSI       SYMBOL TABLE                                               26   BMAP - B00
 40000000 000000000002 RCRAH          *20
 40000000 000000000001 RCRAN          *20
 40000000 000000000003 RCRSH          *20
 40000000 000000000002 RCRSN          *20
 40000000 000000210667 RCVER1         *20
 40000000 000000210670 RCVER2         *20
 40000000 000000210671 RCVER4         *20
 40000000 000000210672 RCVER5         *20
 40000000 000000210673 RCVER6         *20
 40000000 000000000736 RCW1           *20
 40000000 000000000737 RCW2           *20
 40000000 000000000004 RCWSO          *20
 40000000 000000000077 RDAC           *20
 40000000 000000000076 RDCNT          *20
 40000000 000000040000 RDI            *20
 40000000 000000015674 RDLT           *20
 40000000 000000000075 RDYCW          *20
 40000000 000000000066 RECAC          *20
 40000000 000000000065 RECFR          *20
 40000000 000000000070 RECRC          *20
 40000000 000000000067 RECSC          *20
 40000000 000000000003 RECSZ          *20
 40000000 000000000235 REMLT          *20
 40000000 000000000062 REM_RECOVER    *20
 40000000 000000000251 RETFR          *20
 40000000 000000210724 RFDNL          *20
 40000000 000000017644 RIM            *20
 40000000 000000000005 RNAM           *20
 40000000 000000015706 RNDLT          *20
 40000000 000000000662 RNG1           *20
 40000000 000000000664 RNG2           *20
 40000000 000000000073 RNGD           *20
 40000000 000000000072 RNGO           *20
 40000000 000000000660 RNGTAL         *20
 40000000 000000020154 RNM            *20
 40000000 000000000041 ROCUR          *20
 40000000 000000000001 ROFST          *20
 12:44 09/05/97  FILE=ZIM$DBFR.:ZIC0TSI       SYMBOL TABLE                                               27   BMAP - B00
 40000000 000000002114 ROLL           *20
 40000000 000000020010 RPM            *20
 40000000 000000000001 RSCDH          *20
 40000000 000000000001 RSCDN          *20
 40000000 000000211710 RSDNL          *20
 40000000 000000004540 RSEE           *20
 40000000 000000000003 RSIZ           *20
 40000000 000000000110 RSPAM          *20
 40000000 000000000004 RSPTR          *20
 40000000 000000000037 RSREQ          *20
 40000000 000000000002 RSSSH          *20
 40000000 000000000001 RSSSN          *20
 40000000 000000210574 RSZER          *20
 40000000 000000000632 RSZTP          *20
 40000000 000000000003 RTP            *20
 40000000 000000000003 RTYP           *20
 40000000 000000000530 RV1            *20
 40000000 000000000550 RV2            *20
 40000000 000000000570 RV3            *20
 40000000 000000000610 RV4            *20
 40000000 000000000003 RVASID         *18
 41000000 000000000510 RVI            *20        52        54
 41000000 000000000511 RVO            *20        53        56
 40000000 000000000513 RVPA           *20
 40000000 000000000512 RVT            *20
 40000000 000000000022 RVTAL          *20
 40000000 000000000002 RWSZ           *20
 40000000 000000000015 RY             *20
 40000000 000000210620 RYE1           *20
 40000000 000000210621 RYE4           *20
 40000000 777777777767 SA             *20
 40000000 000000000005 SANAM          *20
 40000000 000000001062 SCDES          *20
 40000000 000000211544 SCDNL          *20
 40000000 000000000024 SCFC           *20
 40000000 000000000002 SCID           *20
 40000000 000000000024 SCLST          *20
 12:44 09/05/97  FILE=ZIM$DBFR.:ZIC0TSI       SYMBOL TABLE                                               28   BMAP - B00
 40000000 000000000004 SCNAM          *20
 40000000 000000000004 SCPTR          *20
 40000000 000000000003 SCRSH          *20
 40000000 000000000002 SCRSN          *20
 40000000 000000000001 SCWSO          *20
 40000000 000000001225 SFWS           *20
 40000000 000000001073 SIZCHG         *20
 40000000 000000000645 SKFLG          *20
 40000000 000000000643 SKIND          *20
 40000000 000000000641 SKTYP          *20
 40000000 000000020464 SMCR           *20
 40000000 000000000003 SNAM           *20
 40000000 000000000107 SNIND          *20
 40000000 000000000735 SNPAE          *20
 40000000 000000001046 SNSI           *20
 40000000 000000000743 SOE            *20
 40000000 000000020630 SORSA          *20
 40000000 000000004374 SOSE           *20
 40000000 000000000000 SPAV           *20
 40000000 000000000744 SPCAVN         *20
 40000000 000000000744 SPCAVO         *20
 40000000 000000000765 SPLF           *20
 41000000 000000000765 SPND           *20
 40000000 000000000006 SSDT           *20
 40000000 000000303243 SSER           *20
 40000000 000000303244 SSER1          *20
 40000000 000000000002 SSH            *20
 40000000 000000000005 SSNAM          *20
 40000000 000000210573 SSNF           *20
 40000000 000000210576 SSNV           *20
 40000000 000000000020 SSSPTR         *20
 40000000 000000000010 SSVDT          *20
 40000000 000000000033 SSZTP          *20
 40000000 000000000017 ST             *20
 40000000 000000000104 STBIN          *20
 40000000 000000000105 STDEC          *20
 40000000 000000303302 STE1           *20
 12:44 09/05/97  FILE=ZIM$DBFR.:ZIC0TSI       SYMBOL TABLE                                               29   BMAP - B00
 40000000 000000303303 STE2           *20
 40000000 000000210624 STE3           *20
 40000000 000000303305 STE4           *20
 40000000 000000303306 STE5           *20
 00101000 000000000036 STER1          *77
 41000000 000000000100 STKSIZ         *20
 40000000 000000000055 STMASK         *20
 40000000 000000000062 SUST           *20
 41000000 000000000020 SWS            *20
 40000000 000000000000 SWSAC          *20
 40000000 000000000002 SWSZ           *20
 40000000 000000000000 SYSSF          *20
 40000000 000000000765 SZREQ          *20
 40000000 000000000004 TBUF           *20
 40000000 000000001061 TCTRS          *20
 60000000 000000000000 TDS            *20
 41000000 000000000113 TEMP           *20
 40000000 000000000640 TFLD           *20
 40000000 000000000657 TFLD2          *20
 40000000 000000000056 TMASK          *20
 40000000 000000000061 TMODE          *20
 40000000 000000000676 TMPPA          *20
 40000000 000000000003 TPAI           *20
 40000000 000000500000 TPRCOD         *20
 40000000 000000001031 TSFN           *20
 40000000 000000000021 TSI            *20
 40000000 000000001013 UBRD2          *20
 41000000 000000001223 UBSZ           *20
 40000000 000000000667 UCADR          *20
 01101000 000000000036 UCER9           64       *75
 40000000 000000000036 UCRS           *20
 40000000 000000000024 UFSPK          *20
 40000000 000000000024 UFSPK2         *20
 40000000 000000000715 ULIM           *20
 40000000 000000004230 UNA            *20
 40000000 000000303417 UNIM           *20
 40000000 000000000002 UOFST          *20
 12:44 09/05/97  FILE=ZIM$DBFR.:ZIC0TSI       SYMBOL TABLE                                               30   BMAP - B00
 40000000 000000001035 UPACD          *20
 40000000 000000000721 UPACW          *20
 01101000 000000000025 UPC             61       *63
 40000000 000000000007 UPFLAG         *20
 40000000 000000000103 UPPAI          *20
 40000000 000000000004 UPTSID         *18
 01101000 000000000036 USRE6           66       *76
 40000000 000000000674 USTAT          *20
 40000000 000000000002 UWASID         *18
 40000000 000000000002 UWSSZ          *20
 40000000 000000000020 UWSZ           *20
 40000000 000000000243 VFDSC          *20
 40000000 000000001070 VFDSR          *20
 40000000 000000000656 VFLD           *20
 40000000 000000001074 VFLNG          *20
 40000000 000000001124 VIB1           *20
 40000000 000000001154 VIBP           *20
 41000000 000000000000 VLPSID         *18        46
 40000000 000000001074 VRSIZ          *20
 40000000 000000001067 WLOA           *20
 40000000 000000100000 WRTI           *20
 40000000 000000000000 WSBID          *20
 40000000 000000000003 WSOF           *20
 40000000 000000000000 X0             *18
 41000000 000000000001 X1             *18        51        62        64        66
 41000000 000000000002 X2             *18        56
 40000000 000000000003 X3             *18
 40000000 000000000004 X4             *18
 40000000 000000000005 X5             *18
 40000000 000000000006 X6             *18
 03201005 000000000000 X66_ARET       *18        68
 03201004 000000000000 X66_AUTO_0     *18        45
 41000000 000000000007 X7             *18        57        58        59        60
 40000000 000000210665 XASL           *20
 40000000 000000303420 XLD            *20
 40000000 000000303421 XPD            *20
 40000000 000000000676 XPRS           *20
 12:44 09/05/97  FILE=ZIM$DBFR.:ZIC0TSI       SYMBOL TABLE                                               31   BMAP - B00
 40000000 000000210666 XROLL          *20
 40000000 000000210664 XUNEX          *20
 40000000 777777777777 XXDPN          *20
 03201006 000000000000 ZIB$DBALT      *87
 12101000 000000000000 ZIG$DBFCR       11       *44
 03201000 000000000000 ZIG$DBPCR      *13        51
 03201002 000000000000 ZIG$DBUPC      *15        64
 03201003 000000000000 ZIG$DBUSR      *16        66
 03201001 000000000000 ZIM$ICURR      *14        62

     934 SYMBOLS

 12:44 09/05/97  FILE=ZIM$DBFR.:ZIC0TSI       MACRO TABLE                                                32   BMAP - B00
 CBSYM           20
 DBALT           87
 DBCAL           51        62        64        66
 DBRET           68
 DBSAV           45
 ICCAL           64
 Q2SYM           20
 SSSYM           20

      37 MACROS

    SYMBOL SPACE USED  8691 WORDS
     MACRO SPACE USED 13055 WORDS
   INPUT RECORDS READ  1978
 STATEMENTS PROCESSED  1995
         ELAPSED TIME  0:09.28
             CPU TIME     8.86 SEC.
        ASSEMBLY RATE 13510 STATEMENTS/CPU MIN.

      NO ERRORS

