
 12:45 09/05/97  FILE=ZIM$DBFU.:ZIC0TSI                                                                  1    BMAP - B00
                                         1  *M*      ZIG$DBFU
                                         2  *T***********************************************************
                                         3  *T*                                                         *
                                         4  *T* Copyright (c) Bull HN Information Systems Inc., 1997    *
                                         5  *T*                                                         *
                                         6  *T***********************************************************

 12:45 09/05/97  FILE=ZIM$DBFU.:ZIC0TSI       H6600H2.539     IDS/IT FIND DUPLICATE          780113DBFU  2    BMAP - B00
                                         7         TTL     H6600H2.539     IDS/IT FIND DUPLICATE          780113DBFU
                                         8         CPR     1974
                                         9         PMC     OFF
                                        10  *
                                        11         ENTDEF  ZIG$DBFDP
                                        12         ENTDEF  ZIG$DBCMP
                                        13         ENTDEF  ZIG$DBMOV
                                        14  *
                                        15         ENTREF  ZIQ$DBGRC
                                        16         ENTREF  ZIG$DBPCF
                                        17         ENTREF  ZIG$DBPFD
                                        18         ENTREF  ZIG$DBPFN
                                        19         ENTREF  ZIG$DBPMA
                                        20         ENTREF  ZIG$DBUPC            Updates Currencies
                                        21         ENTREF  ZIG$DBUSR
                                        22  *
                                        23         LODM    Q2MA
                                        24  *
                                        25         Q2SYM

 12:45 09/05/97  FILE=ZIM$DBFU.:ZIC0TSI       IDS-II FIND DUPLICATE                                      3    BMAP - B00
                                        26         TTLS    IDS-II FIND DUPLICATE
                                        27  ****************************************************************
                                        28  *
                                        29  *  - DBFDP -
                                        30  *
                                        31  *      FIND.  Find duplicate record within a set.
                                        32  *
                                        33  *      Parameter   Description
                                        34  *      ---------   -----------
                                        35  *
                                        36  *          0       IA
                                        37  *          1       UWA
                                        38  *          2       FPT
                                        39  *
                                        40  *      FPT Format...
                                        41  *
                                        42  *      Word 0:  RVA offset to a schema subset element which
                                        43  *          describes a set.
                                        44  *      Word 1:  Field List Control Word
                                        45  *          HW 0:  Number of fields in the field list
                                        46  *      Word 2:  Retention List Control Word
                                        47  *      Words 3->M:  Field List.  RVA offsets to the
                                        48  *          schema subset elements which describe the fields
                                        49  *          to compare.
                                        50  *      Words M+1->K:  Retention List.  RVA offsets to the
                                        51  *          schema subset elements which describe the sets
                                        52  *          for which currencies are to be retained.
                                        53  *
                                        54  ****************************************************************
                                        55  *
 0 000000                               56  ZIG$DBFDP NULL
   000000  X 000000 7000 00             57           DBSAV
   000001    000004 000000
                                        58  *  GET RETAIN LIST CONTROL WORD
   000002    000000 4704 07             59         LDP    PR0,VLPSID,DL            VLP$
   000003    000003 4714 07             60           LDP      PR1,RVASID,DL           RVA$
   000004    0 00001 2351 00            61         LDA     1,,PR0               Get Field List Control Word
 12:45 09/05/97  FILE=ZIM$DBFU.:ZIC0TSI       IDS-II FIND DUPLICATE                                      4    BMAP - B00
   000005    000003 0750 03             62         ADA     3,DU                 Compute offset to Retention List
   000006    0 00002 2751 00            63         ORA     2,,PR0               OR in Retention List Control Word
   000007    5 00025 7551 00            64           STA      GRLCW,,PR5           Save it.
                                        65  *  GET THE ARGUMENTS
   000010    0 00000 2261 00            66         LDX     X6,0,,PR0            Get offset to SC pointer in FPT
   000011    1 00000 2261 16            67           LDX      X6,,X6,PR1           Get SC offset from RVA
                                        68         IFE     A,1,%CK1
   000012    6 00000 2211 16            69         LDX     X1,DEF,X6,PR6
   000013    040000 3010 03             70         CANX    X1,.SC,DU       IS IT SC
   000014 (0)000135 6000 00             71         TZE     CALE1           NO - ERROR
                                        72  CK1    MARK
   000015    7 00520 7461 00            73         STX     X6,PRSC,,PR7    SAVE SC
                                        74  *  CHECK THAT SET IS IN SUB-SCHEMA
   000016    6 00000 7211 16            75         LXL     X1,DEF,X6,PR6
   000017    020000 3010 03             76         CANX    X1,.SNSS,DU     IS IT IN SS
   000020    000122 6010 04             77         TNZ     FUE1,$          NO - ERROR
                                        78  *  CHECK SET PRIVACY
                                        79  *  REC PRIVACY HAD TO HAVE BEEN SATISFIED WHEN REC BECAME CURR OF SET
   000021    6 00001 2211 16            80         LDX     X1,SCWSO,X6,PR6  GET WORK SPC OFST
   000022    7 00000 2211 11            81         LDX     X1,PRIV,X1,PR7
   000023    000004 3010 03             82         CANX    X1,PSF,DU       IS PRIVACY SATISFIED
   000024 (0)000146 6000 00             83         TZE     PRVE1           NO - ERROR
                                        84  *  GET CURRENT OF SET
   000025    6 00001 2211 16            85         LDX     X1,SCWSO,X6,PR6
   000026    7 00000 2341 11            86         SZN     .CSE,X1,PR7     IS CURR ERASED
   000027    000123 6040 04             87         TMI     NCUR1,$         YES
   000030    7 00001 2361 11            88         LDQ     CURR,X1,PR7     GET CURR
   000031 (0)000152 6000 00             89         TZE     NCUR1           NULL - ERROR
   000032    7 00510 2231 00            90         LDX     X3,RVI,,PR7
   000033    7 00000 7561 13            91         STQ     DBKEY,X3,PR7    PUT DBK IN REC VAR IN
   000034  X 000000 7010 00             92           DBCAL    ZIG$DBPFD,,PGER1
   000035 (0)000160 7020 00
   000036    5 00006 2341 00
   000037    777776 6010 04
                                        93  *  GET RC
   000040    7 00510 2231 00            94         LDX     X3,RVI,,PR7
   000041    7 00005 2201 13            95         LDX     X0,ACPTR,X3,PR7  GET AC
 12:45 09/05/97  FILE=ZIM$DBFU.:ZIC0TSI       IDS-II FIND DUPLICATE                                      5    BMAP - B00
   000042    7 00003 2351 13            96         LDA     RTP,X3,PR7      GET TYPE
   000043  X 000000 7010 00             97         ICCAL   ZIQ$DBGRC,,RCNF1
   000044 (0)000160 7020 00
   000045    5 00006 2341 00
   000046    777776 6010 04
   000047    7 00517 7471 00            98         STX     X7,PRRC,,PR7    SAVE RC
                                        99  *  IF PA SET, MOVE INFO ON OWNER PA RECORD TO RVI
   000050    7 00520 2261 00           100         LDX     X6,PRSC,,PR7    GET SC PTR
   000051    6 00000 2231 16           101         LDX     X3,DEF,X6,PR6   GET SET MODE
   000052    000070 3630 03            102         ANX     X3,.SETM,DU     ISOLATE
   000053    000020 1030 03            103         CMPX    X3,=O20,DU      IS IT POINTER ARRAY
   000054 (0)000062 6010 00            104         TNZ     FCRO            NO
   000055    7 00510 2231 00           105         LDX     X3,RVI,,PR7     YES - SAVE PA INFO IN RVI
   000056    6 00001 2201 16           106         LDX     X0,SCWSO,X6,PR6  GET SET WORKSPACE
   000057    7 00002 2351 10           107         LDA     CBENO,X0,PR7    GET PA ENTRY & PTR OFFSETS
   000060    7 00003 2361 10           108         LDQ     CBCPA,X0,PR7    GET DBK OF PA REC
   000061    7 00014 7571 13           109         STAQ    CBRCE,X3,PR7    SAVE IN RVI
   000062                              110  FCRO   NULL
                                       111  *
                                       112  *  FIND CORRECT RECORD OCCURRENCE
                                       113  *
   000062    7 00510 2351 00           114         LDA     RVI,,PR7        * PUT REC INTO
   000063    7 00512 2361 00           115         LDQ     RVT,,PR7        *  TEMP REC VAR
   000064    7 00512 7551 00           116         STA     RVT,,PR7        *   FOR MOVE OF FIELDS
   000065    7 00510 7561 00           117         STQ     RVI,,PR7        *
   000066    000000 4704 07            118         LDP    PR0,VLPSID,DL            VLP$
   000067    000003 2350 07            119         LDA     3,DL                 Offset to Field List in FPT
   000070    0 00001 2751 00           120         ORA     1,,PR0               OR in Field List Control Word
   000071 (0)000162 7010 00            121           ICCAL    ZIG$DBMOV,,MVER1     Move keys to temp buffer
   000072 (0)000160 7020 00
   000073    5 00006 2341 00
   000074    777776 6010 04
   000075    7 00510 2351 00           122         LDA     RVI,,PR7        * PUT REC BACK INTO
   000076    7 00512 2361 00           123         LDQ     RVT,,PR7        *  INPUT REC VAR
   000077    7 00512 7551 00           124         STA     RVT,,PR7        *
   000100    7 00510 7561 00           125         STQ     RVI,,PR7        *
   000101                              126  FUL1   NULL
 12:45 09/05/97  FILE=ZIM$DBFU.:ZIC0TSI       IDS-II FIND DUPLICATE                                      6    BMAP - B00
   000101  X 000000 7010 00            127         DBCAL   ZIG$DBPFN,EOS1,FNER1
   000102 (0)000160 7020 00
   000103    5 00006 2341 00
   000104    000003 6000 04
   000105    5 00006 4501 00
   000106 (0)000156 7020 00
   000107    000000 4704 07            128         LDP    PR0,VLPSID,DL            VLP$
   000110    000003 2350 07            129         LDA     3,DL                 Offset to Field List in FPT
   000111    0 00001 2751 00           130         ORA     1,,PR0               OR in Field List Control Word
   000112 (0)000233 7010 00            131           ICCAL    ZIG$DBCMP,RFND1,CMER1 Compare fields
   000113 (0)000160 7020 00
   000114    5 00006 2341 00
   000115    000003 6000 04
   000116    5 00006 4501 00
   000117 (0)000124 7020 00
   000120    7 00510 2371 00           132         LDAQ    RVI,,PR7        * REVERSE
   000121    7 00511 7551 00           133         STA     RVO,,PR7        *  REC VAR IN &
   000122    7 00510 7561 00           134         STQ     RVI,,PR7        *   OUT
   000123 (0)000101 7100 00            135         TRA     FUL1            GO GET NEXT REC
                                       136  *  RECORD FOUND - UPDATE CURRENCIES
   000124                              137  RFND1  NULL
   000124  X 000000 7010 00            138           ICCAL    ZIG$DBUPC,,UPER1     Update currencies
   000125 (0)000160 7020 00
   000126    5 00006 2341 00
   000127    777776 6010 04
                                       139  *  MOVE NAMES TO SPECIAL REGISTERS
   000130  X 000000 7010 00            140         DBCAL   ZIG$DBUSR,,USER1
   000131 (0)000160 7020 00
   000132    5 00006 2341 00
   000133    777776 6010 04
                                       141  *  RETURN
   000134  X 000000 7020 00            142           DBRET
                                       143  *
                                       144  *  ERRORS DETECTED IN THIS ROUTINE
                                       145  *
   000135                              146  CALE1  NULL                    ARGUMENT ERROR
   000135    210562 2350 07            147         LDA     ARGER,DL
 12:45 09/05/97  FILE=ZIM$DBFU.:ZIC0TSI       IDS-II FIND DUPLICATE                                      7    BMAP - B00
   000136    000000 6200 00            148         EAX     X0,0            NULL AC
   000137    000000 6260 00            149         EAX     X6,0            NULL SC
   000140    000000 6270 00            150         EAX     X7,0            NULL RC
   000141 (0)000161 7100 00            151         TRA     FUR1
   000142                              152  FUE1   NULL                    SET NOT IN SUB-SCHEMA
   000142    010150 2350 07            153         LDA     IRSN,DL
   000143    000000 6200 00            154         EAX     X0,0
   000144    000000 6270 00            155         EAX     X7,0
   000145    000014 7100 04            156         TRA     FUR1,$
   000146                              157  PRVE1  NULL                    PRIVACY ERROR - SET
   000146    257764 2350 07            158         LDA     LR,DL
   000147    000000 6200 00            159         EAX     X0,0            NULL AC
   000150    000000 6270 00            160         EAX     X7,0            NULL RC
   000151 (0)000161 7100 00            161         TRA     FUR1
   000152                              162  NCUR1  NULL                    CURRENT OF SET IS NULL
   000152    006034 2350 07            163         LDA     CNUL,DL
   000153    000000 6200 00            164         EAX     X0,0            NULL AC
   000154    000000 6270 00            165         EAX     X7,0            NULL RC
   000155 (0)000161 7100 00            166         TRA     FUR1
   000156                              167  EOS1   NULL                    END OF SET
   000156    004540 2350 07            168         LDA     RSEE,DL
   000157 (0)000161 7100 00            169         TRA     FUR1
                                       170  *
                                       171  *  ERRORS DETECTED IN SUBORDINATE ROUTINES
                                       172  *
   000160                              173  PGER1  NULL                    PAGE ERROR - GET CURR OF SET
   000160                              174  RCNF1  NULL                    RC NOT FOUND FOR CURR OF SET
   000160                              175  MVER1  NULL                    ERROR MOVING KEYS
   000160                              176  FNER1  NULL                    PAGE ERROR FIND NEXT
   000160                              177  CMER1  NULL                    ERROR COMPARING KEYS
   000160                              178  UPER1  NULL                    ERROR UPDATING CURRENCIES
   000160                              179  USER1  NULL                    UPDATE SPEC. REG. ERROR
   000160                              180  STER1  NULL                    ACCUMULATE STATISTICS ERROR
   000160 (0)000161 7100 00            181         TRA     FUR1
                                       182  *  COMMON ERROR RETURN
   000161  X 000000 7020 00            183  FUR1     DBALT

 12:45 09/05/97  FILE=ZIM$DBFU.:ZIC0TSI       MOVE FIELDS FROM PAGE BUF TO TEMP REC BUF                  8    BMAP - B00
                                       184         TTLS    MOVE FIELDS FROM PAGE BUF TO TEMP REC BUF
                                       185  *
                                       186  ****************************************************************
                                       187  *
                                       188  *  - DBMOV -
                                       189  *
                                       190  *      Move fields from page buffer to temporary record buffer.
                                       191  *
                                       192  *      Calling
                                       193  *
                                       194  *                 ICCAL    ZIG$DBMOV,,ALTRET
                                       195  *
                                       196  *      Considerations
                                       197  *
                                       198  *              Note that no exception return is possible from
                                       199  *              this subroutine.
                                       200  *
                                       201  *      Input
                                       202  *
                                       203  *              AL - Offset to Field List in FPT
                                       204  *              AU - Field List Control Word
                                       205  *              X7 - RC pointer
                                       206  *             RVT - Offset of record in page buffer
                                       207  *
                                       208  ****************************************************************
                                       209  *
   000162                              210  ZIG$DBMOV NULL
   000162    7 00470 7411 56           211           ICSAV
   000163    000000 6200 05            212         EAX     X0,0,AL              X0 = Offset to Field List
   000164    777777 3750 03            213           ANA      =O777777,DU       JUST LEAVE COUNT
   000165    7 00051 7551 00           214         STA     FCNT,,PR7       SAVE FR COUNT
   000166    000000 7350 00            215         ALS     0               IS FLD CNT ZERO
   000167 (0)000216 6000 00            216         TZE     NFTM            YES - RETURN
   000170    7 00052 7401 00           217         STX     X0,CMPL,,PR7         Save offset as current list offset
   000171                              218  MVL1   NULL
   000171    7 00052 2201 00           219         LDX     X0,CMPL,,PR7    GET CURR POS IN LIST
   000172    000000 4704 07            220         LDP    PR0,VLPSID,DL            VLP$
 12:45 09/05/97  FILE=ZIM$DBFU.:ZIC0TSI       MOVE FIELDS FROM PAGE BUF TO TEMP REC BUF                  9    BMAP - B00
   000173    000003 4714 07            221           LDP      PR1,RVASID,DL           RVA$
   000174    0 00000 2241 10           222         LDX     X4,,X0,PR0           Get FR from list in FPT
   000175    1 00000 2241 14           223           LDX      X4,,X4,PR1           Get FR offset from RVA
   000176    000001 6200 10            224         EAX     X0,1,X0         INCR LIST PTR
   000177    7 00052 7401 00           225         STX     X0,CMPL,,PR7    SAVE
                                       226         IFE     D,1,%CK4
   000200    6 00000 2211 14           227         LDX     X1,DEF,X4,PR6   GET DEF TYPE FROM FR
   000201    002000 3010 03            228         CANX    X1,.FR,DU       IS IT AN FR
   000202 (0)000220 6000 00            229         TZE     FRER4           NO
   000203    6 00005 1071 14           230         CMPX    X7,RCFRH,X4,PR6  IS IT IN THE REC
   000204 (0)000225 6010 00            231         TNZ     FRER5           NO
                                       232  CK4    MARK
   000205    7 00521 7441 00           233         STX     X4,PRFR,,PR7    PUT FR IN PRIM. REQ.
   000206  X 000000 7010 00            234         DBCAL   ZIG$DBPMA,,MKER4 MOVE THE FIELD
   000207 (0)000231 7020 00
   000210    5 00006 2341 00
   000211    777776 6010 04
   000212    7 00051 2351 00           235         LDA     FCNT,,PR7       GET NO. IN LIST
   000213    000001 1350 03            236         SBLA    1,DU            DECR.
   000214    7 00051 7551 00           237         STA     FCNT,,PR7       SAVE
   000215 (0)000171 6010 00            238         TNZ     MVL1            GO GET NEXT
                                       239  *  ALL FIELDS MOVED
   000216                              240  NFTM   NULL
   000216    7 00470 2211 54           241           ICRET
   000217    000001 7100 11
                                       242  *
                                       243  *  ERRORS DETECTED IN THIS ROUTINE
                                       244  *
   000220                              245  FRER4  NULL                    ENTRY IN FIELD LIST NOT AN FR
   000220    210562 2350 07            246         LDA     ARGER,DL
   000221    000000 6200 00            247         EAX     X0,0            NULL AC
   000222    000000 6260 00            248         EAX     X6,0            NULL SC
   000223    000000 6270 00            249         EAX     X7,0            NULL RC
   000224 (0)000232 7100 00            250         TRA     MVR1
   000225                              251  FRER5  NULL                    NOT A FIELD IN THE CURR REC OF SET
   000225    007330 2350 07            252         LDA     CRST,DL
   000226    000000 6200 00            253         EAX     X0,0            NULL AC
 12:45 09/05/97  FILE=ZIM$DBFU.:ZIC0TSI       MOVE FIELDS FROM PAGE BUF TO TEMP REC BUF                  10   BMAP - B00
   000227    000000 6260 00            254         EAX     X6,0            NULL SC
   000230 (0)000232 7100 00            255         TRA     MVR1
                                       256  *
                                       257  *  ERRORS DETECTED IN SUBORDINATE ROUTINES
                                       258  *
                                       259  *
                                       260  *  ERRORS DETECTED IN PRIMITIVES
                                       261  *
   000231                              262  MKER4  NULL                    MOVE FIELD ERROR
   000231 (0)000232 7100 00            263         TRA     MVR1
                                       264  *
                                       265  *  COMMON ERROR RETURN
                                       266  *    CODE IN AR
                                       267  *
   000232                              268  MVR1   NULL
   000232  X 000000 7020 00            269           ICALT

 12:45 09/05/97  FILE=ZIM$DBFU.:ZIC0TSI       COMPARE FIELDS IN A RECORD                                 11   BMAP - B00
                                       270         TTLS    COMPARE FIELDS IN A RECORD
                                       271  *
                                       272  ****************************************************************
                                       273  *
                                       274  *  - DBCMP -
                                       275  *
                                       276  *      Compare fields in temporary buffer to fields in page
                                       277  *      buffer.
                                       278  *
                                       279  *      Calling
                                       280  *
                                       281  *              ICCAL    ZIG$DBCMP,exception,altret
                                       282  *
                                       283  *      Considerations
                                       284  *
                                       285  *              An exception return is effected if all fields
                                       286  *              are equal.  A normal return is effected if all
                                       287  *              fields are not equal.
                                       288  *
                                       289  *      Input
                                       290  *
                                       291  *              AU - Field List Control Word
                                       292  *              AL - Offset to Field List in FPT
                                       293  *              X7 - RC pointer for the record that the
                                       294  *                   fields are in.
                                       295  *
                                       296  ****************************************************************
                                       297  *
   000233                              298  ZIG$DBCMP NULL
   000233    7 00470 7411 56           299           ICSAV                         Save return address
   000234    000000 6200 01            300         EAX     X0,0,AU         X0 = Field List Control Word
   000235 (0)000272 6000 00            301         TZE     NFTC            YES - RETURN
   000236    7 00051 7401 00           302         STX     X0,FCNT,,PR7    save FR count
   000237    000000 6200 05            303         EAX     X0,0,AL         X0 = Offset to Field List in FPT
   000240    7 00052 7401 00           304         STX     X0,CMPL,,PR7    SAVE ADDR OF LIST AS CURR POS
   000241                              305  CML1   NULL
   000241    7 00052 2201 00           306         LDX     X0,CMPL,,PR7    GET CURR ADDR IN LIST
 12:45 09/05/97  FILE=ZIM$DBFU.:ZIC0TSI       COMPARE FIELDS IN A RECORD                                 12   BMAP - B00
   000242    000000 4704 07            307         LDP    PR0,VLPSID,DL            VLP$
   000243    000003 4714 07            308           LDP      PR1,RVASID,DL           RVA$
   000244    0 00000 2241 10           309         LDX     X4,,X0,PR0           Get FR from list in FPT
   000245    1 00000 2241 14           310           LDX      X4,,X4,PR1           Get FR offset from RVA
   000246    000001 6200 10            311         EAX     X0,1,X0         INCR LIST PTR
   000247    7 00052 7401 00           312         STX     X0,CMPL,,PR7    SAVE
                                       313         IFE     D,1,%CK4
   000250    6 00000 2211 14           314         LDX     X1,DEF,X4,PR6   GET DEF TYPE
   000251    002000 3010 03            315         CANX    X1,.FR,DU       IS IT AN FR
   000252 (0)000275 6000 00            316         TZE     FRER2           NO - ERROR
   000253    6 00005 1071 14           317         CMPX    X7,RCFRH,X4,PR6  IS FR IN THE REC
   000254 (0)000302 6010 00            318         TNZ     FRER3           NO - ERROR
                                       319  CK4    MARK
   000255    7 00521 7441 00           320         STX     X4,PRFR,,PR7    PUT FR IN PRIM. REQ.
   000256    7 00521 4441 00           321         SXL     X4,PRFR2,,PR7   PUT FR IN PRIM. REQ. AS 2ND OPER.
   000257  X 000000 7010 00            322         DBCAL   ZIG$DBPCF,FEQ1,CFER2      COMPARE THE FIELD
   000260 (0)000306 7020 00
   000261    5 00006 2341 00
   000262    000003 6000 04
   000263    5 00006 4501 00
   000264 (0)000266 7020 00
   000265 (0)000273 7100 00            323         TRA     FNEQ            NOT EQUAL - RETURN
   000266                              324  FEQ1   NULL
   000266    7 00051 2351 00           325         LDA     FCNT,,PR7       GET NO. IN LIST
   000267    000001 1350 03            326         SBLA    1,DU            DECR. NO. FIELDS
   000270    7 00051 7551 00           327         STA     FCNT,,PR7       SAVE
   000271 (0)000241 6010 00            328         TNZ     CML1            GO GET NEXT
                                       329  *  ALL FIELDS EQUAL
   000272                              330  NFTC   NULL
   000272  X 000000 7020 00            331           ICEXC
                                       332  *  ALL FIELDS NOT EQUAL
   000273                              333  FNEQ   NULL
   000273    7 00470 2211 54           334           ICRET
   000274    000001 7100 11
                                       335  *
                                       336  *  ERRORS DETECTED IN THIS ROUTINE
                                       337  *
 12:45 09/05/97  FILE=ZIM$DBFU.:ZIC0TSI       COMPARE FIELDS IN A RECORD                                 13   BMAP - B00
   000275                              338  FRER2  NULL                    ITEM IN LIST NOT AN FR
   000275    210562 2350 07            339         LDA     ARGER,DL
   000276    000000 6200 00            340         EAX     X0,0            NULL AC
   000277    000000 6260 00            341         EAX     X6,0            NULL SC
   000300    000000 6270 00            342         EAX     X7,0            NULL RC
   000301 (0)000307 7100 00            343         TRA     CPR1
   000302                              344  FRER3  NULL                    FR IN LIST NOT IN REC
   000302    210637 2350 07            345         LDA     FDE1,DL
   000303    000000 6200 00            346         EAX     X0,0            NULL AC
   000304    000000 6260 00            347         EAX     X6,0            NULL SC
   000305 (0)000307 7100 00            348         TRA     CPR1
                                       349  *
                                       350  *  ERRORS DETECTED IN SUBORDINATE ROUTINES
                                       351  *
                                       352  *
                                       353  *  ERRORS DETECTED IN PRIMITIVES
                                       354  *
   000306                              355  CFER2  NULL                    COMPARE FIELD ERROR
   000306 (0)000307 7100 00            356         TRA     CPR1
                                       357  *
                                       358  *  COMMON ERROR RETURN
                                       359  *
   000307                              360  CPR1   NULL
   000307  X 000000 7020 00            361           ICALT
                                       362         END

  CONTROL SECTION TABLE

   0 CODE   EVEN  000310
   1 RODATA EVEN  000000 LITERALS

 12:45 09/05/97  FILE=ZIM$DBFU.:ZIC0TSI       SYMBOL TABLE                                               14   BMAP - B00
 00101000 000000000070               *120
 40000000 000000200000 .AC            *25
 40000000 000000000100 .AG            *25
 40000000 000000002000 .ALTO          *25
 40000000 000000000077 .ANL           *25
 40000000 000000200000 .APDN          *25
 40000000 000000000100 .ATMP          *25
 40000000 000000400000 .AV            *25
 40000000 000000400000 .B0            *25
 40000000 000000200000 .B1            *25
 40000000 000000000200 .B10           *25
 40000000 000000000100 .B11           *25
 40000000 000000000040 .B12           *25
 40000000 000000000020 .B13           *25
 40000000 000000000010 .B14           *25
 40000000 000000000004 .B15           *25
 40000000 000000000002 .B16           *25
 40000000 000000000001 .B17           *25
 40000000 000000400000 .B18           *25
 40000000 000000200000 .B19           *25
 40000000 000000100000 .B2            *25
 40000000 000000100000 .B20           *25
 40000000 000000040000 .B21           *25
 40000000 000000020000 .B22           *25
 40000000 000000010000 .B23           *25
 40000000 000000004000 .B24           *25
 40000000 000000002000 .B25           *25
 40000000 000000001000 .B26           *25
 40000000 000000000400 .B27           *25
 40000000 000000000200 .B28           *25
 40000000 000000000100 .B29           *25
 40000000 000000040000 .B3            *25
 40000000 000000000040 .B30           *25
 40000000 000000000020 .B31           *25
 40000000 000000000010 .B32           *25
 40000000 000000000004 .B33           *25
 40000000 000000000002 .B34           *25
 12:45 09/05/97  FILE=ZIM$DBFU.:ZIC0TSI       SYMBOL TABLE                                               15   BMAP - B00
 40000000 000000000001 .B35           *25
 40000000 000000020000 .B4            *25
 40000000 000000010000 .B5            *25
 40000000 000000004000 .B6            *25
 40000000 000000002000 .B7            *25
 40000000 000000001000 .B8            *25
 40000000 000000000400 .B9            *25
 40000000 000000000001 .BREAK         *25
 40000000 000000010000 .BRK           *25
 40000000 000000020000 .BTB           *25
 40000000 000000000001 .CAC           *25
 40000000 000000000000 .CAE           *25
 40000000 000000000200 .CANSSS        *25
 40000000 000000000400 .CD            *25
 40000000 000000040000 .CFLC          *25
 40000000 000000400000 .CHKSUM        *25
 40000000 000000100000 .CJRNL         *25
 40000000 000000000077 .CNSZ          *25
 40000000 000000160000 .COMC          *25
 40000000 000000000020 .CONT          *25
 41000000 000000000000 .CSE           *25        86
 40000000 000000700000 .CTYP          *25
 41000000 000000000270 .DBEST         *25
 41000000 000000000470 .DBIC          *25       211       241       299       334
 40000000 000000077777 .DBPT          *25
 41000000 000000000370 .DBSTK         *25
 40000000 000000020000 .DELM          *25
 40000000 000000002000 .DIDP          *25
 40000000 000000000077 .DNDX          *25
 40000000 000000600000 .DORD          *25
 40000000 000000000200 .DP            *25
 40000000 000000100000 .DPS           *25
 40000000 000000200000 .DPSA          *25
 40000000 000000400000 .DPST          *25
 40000000 000000000002 .DUMP          *25
 40000000 000000002000 .DUPC          *25
 40000000 000000010000 .DUPP          *25
 12:45 09/05/97  FILE=ZIM$DBFU.:ZIC0TSI       SYMBOL TABLE                                               16   BMAP - B00
 40000000 000000200000 .EBCL          *25
 40000000 000000400000 .EBCM          *25
 40000000 000000200000 .ENCRP         *25
 40000000 000000000077 .ENDX          *25
 40000000 000000000400 .ENQ           *25
 40000000 000000004000 .ETC           *25
 40000000 000000000400 .EXIT          *25
 40000000 000000000200 .FMOD          *25
 40000000 000000000077 .FNL           *25
 40000000 000000000074 .FORG          *25
 41000000 000000002000 .FR            *25       228       315
 40000000 000000000100 .FSR           *25
 40000000 000000003400 .FUSE          *25
 40000000 000000010000 .FVF           *25
 40000000 000000040000 .FVR           *25
 40000000 000000000010 .INDEXED       *25
 40000000 000000777777 .IXID          *25
 40000000 000000001777 .IXNUM         *25
 40000000 000000000004 .KEYED         *25
 40000000 000000010000 .LCK           *25
 40000000 000000400000 .LEIL          *25
 40000000 000000001000 .LG            *25
 40000000 000000000002 .LOAD          *25
 40000000 000000020000 .MAR           *25
 40000000 000000000007 .MEMT          *25
 40000000 000000010000 .MRL           *25
 40000000 000000040000 .MSM           *25
 60000000 000000000001 .N6685         *25
 40000000 000000100000 .NAI           *25
 40000000 000000200000 .NBI           *25
 40000000 000000000002 .NCIA          *25
 40000000 000000040000 .NMV           *25
 40000000 000000017777 .NOENT         *25
 40000000 000000400000 .OA            *25
 40000000 000000740000 .OPEV          *25
 40000000 000000100000 .OSM           *25
 40000000 000000100000 .PAFIL         *25
 12:45 09/05/97  FILE=ZIM$DBFU.:ZIC0TSI       SYMBOL TABLE                                               17   BMAP - B00
 40000000 000000200000 .PAHVR         *25
 40000000 000000000001 .PAIA          *25
 40000000 000000040000 .PALIL         *25
 40000000 000000020000 .PALVR         *25
 40000000 000000400000 .PANLL         *25
 40000000 000000400000 .PCKD          *25
 40000000 000000001600 .PMOD          *25
 40000000 000000000520 .PRCSE         *25
 40000000 000000000007 .PSTO          *25
 40000000 000000006040 .PTAS          *25
 40000000 000000010100 .PTCHK         *25
 40000000 000000010200 .PTDEC         *25
 40000000 000000010140 .PTENC         *25
 40000000 000000020000 .RA            *25
 40000000 000000100000 .RC            *25
 40000000 000000400000 .RELEASE       *25
 40000000 000000000017 .RELT          *25
 40000000 000000004000 .RERA          *25
 40000000 000000400000 .RERS          *25
 40000000 000000010000 .RKEY          *25
 40000000 000000000077 .RNL           *25
 40000000 000000200000 .RSTO          *25
 40000000 000000007777 .RTYP          *25
 41000000 000000040000 .SC            *25        70
 41000000 000000000070 .SETM          *25       102
 40000000 000000740000 .SETO          *25
 40000000 000000000700 .SETT          *25
 40000000 000000040000 .SFNP          *25
 40000000 000000004000 .SM            *25
 40000000 000000020000 .SMOD          *25
 40000000 000000000077 .SNL           *25
 41000000 000000020000 .SNSS          *25        76
 40000000 000000010000 .SO            *25
 40000000 000000100000 .SR            *25
 40000000 000000004000 .SRCR          *25
 40000000 000000001000 .SS            *25
 40000000 000000000007 .SSTP          *25
 12:45 09/05/97  FILE=ZIM$DBFU.:ZIC0TSI       SYMBOL TABLE                                               18   BMAP - B00
 40000000 000000004000 .SYN           *25
 40000000 000000000040 .SYNC          *25
 40000000 000000020000 .TJRNL         *25
 40000000 000000040000 .TMPLT         *25
 40000000 000000040000 .TRACE         *25
 40000000 000000000001 .TRENTRY       *25
 40000000 000000000012 .TRIDEL        *25
 40000000 000000000021 .TRIDELENQ     *25
 40000000 000000000024 .TRIDEQ        *25
 40000000 000000000013 .TRIMOD        *25
 40000000 000000000022 .TRIMODENQ     *25
 40000000 000000000014 .TRIREAD       *25
 40000000 000000000023 .TRIREADENQ    *25
 40000000 000000000011 .TRISTO        *25
 40000000 000000000020 .TRISTOENQ     *25
 40000000 000000000017 .TRPDEQ        *25
 40000000 000000000004 .TRPMOD        *25
 40000000 000000000016 .TRPMODENQ     *25
 40000000 000000000002 .TRPREAD       *25
 40000000 000000000015 .TRPREADENQ    *25
 40000000 000000000003 .TRPWRITE      *25
 40000000 000000000010 .TRRACC        *25
 40000000 000000000006 .TRRDEL        *25
 40000000 000000000007 .TRRMOD        *25
 40000000 000000000005 .TRRSTO        *25
 40000000 000000004000 .ULCK          *25
 40000000 000000400000 .UPDT          *25
 40000000 000000000040 .VIA           *25
 61000000 000000000001 A              *25        68
 40000000 000000000002 ABAS           *25
 40000000 000000000001 AC             *25
 40000000 777777777760 ACDEF          *25
 40000000 000000211070 ACDNL          *25
 40000000 000000000003 ACID           *25
 40000000 000000001016 ACOPN          *25
 40000000 000000000002 ACP            *25
 41000000 000000000005 ACPTR          *25        95
 12:45 09/05/97  FILE=ZIM$DBFU.:ZIC0TSI       SYMBOL TABLE                                               19   BMAP - B00
 40000000 000000000002 ACRAH          *25
 40000000 000000000001 ACRAN          *25
 40000000 000000001003 ACREC          *25
 40000000 000000000001 ACTDBCB        *25
 40000000 000000000002 ACTDBNO        *25
 40000000 000000001017 ACTP           *25
 40000000 000000000000 ACTSSS         *25
 40000000 000000000000 ACTSZ          *25
 40000000 000000210565 AFNP           *25
 40000000 000000000635 AFT            *25
 40000000 000000022124 AIR            *25
 40000000 000000000016 AMAX           *25
 40000000 000000000026 ANAM           *25
 40000000 000000021614 ANR            *25
 40000000 000000000001 APNO           *25
 41000000 000000210562 ARGER          *25       147       246       339
 41000000 000000000020 ARGS           *25
 40000000 000000000077 ARGS2          *25
 40000000 000000210713 ARNAF          *25
 40000000 000000000003 ATBL           *25
 40000000 000000000000 ATRIB          *25
 40000000 000000000002 AVLN           *25
 40000000 000000000013 AWS$           *25
 40000000 000000000010 AWSZ           *25
 60000000 000000000001 B              *25
 40000000 000000001006 B32N           *25
 40000000 000000001007 B36N           *25
 40000000 000000001056 B72N           *25
 40000000 000000000001 BADDR          *25
 40000000 000000210712 BADSEED        *25
 40000000 777777777765 BDCW           *25
 40000000 000000000633 BEF            *25
 40000000 000000020000 BEFW           *25
 40000000 000000000751 BEMT           *25
 40000000 777777777761 BID            *25
 40000000 777777777762 BIND           *25
 40000000 000000000007 BLKD           *25
 12:45 09/05/97  FILE=ZIM$DBFU.:ZIC0TSI       SYMBOL TABLE                                               20   BMAP - B00
 40000000 000000303331 BME02          *25
 41000000 000000001203 BMPB           *25
 40000000 000000000652 BN1            *25
 40000000 000000000654 BN2            *25
 40000000 000000000004 BPL            *25
 40000000 000000000015 BPLDBK         *25
 40000000 000000000034 BSPG           *25
 40000000 777777777763 BSTAT          *25
 40000000 000000000750 BTX0           *25
 41000000 000000001160 BUF4           *25
 41000000 000000001170 BUF6           *25
 41000000 000000000000 BUFORG         *25
 40000000 000000001060 BUFRQ          *25
 40000000 000000000006 BURRID         *25
 41000000 000000000020 BWASZ          *25
 60000000 000000000001 C              *25
 40000000 000000000050 CAAC           *25
 40000000 000000000050 CACD           *25
 40000000 000000000111 CAG            *25
 40000000 000000001033 CAL            *25
 01101000 000000000135 CALE1           71      *146
 40000000 000000000026 CALLPM0        *25
 40000000 000000000003 CANSSS         *25
 41000000 000000000003 CBCPA          *25       108
 40000000 000000000002 CBCPO          *25
 41000000 000000000002 CBENO          *25       107
 40000000 000000000014 CBFSZ          *25
 40000000 000000000753 CBIB           *25
 40000000 000000001030 CBID           *25
 41000000 000000000014 CBRCE          *25       109
 40000000 000000000014 CBRCP          *25
 40000000 000000001033 CBRID          *25
 40000000 000000000015 CBRPA          *25
 40000000 000000000031 CCHAR          *25
 40000000 000000000040 CDBK           *25
 40000000 000000000030 CDES           *25
 40000000 000000000110 CDP            *25
 12:45 09/05/97  FILE=ZIM$DBFU.:ZIC0TSI       SYMBOL TABLE                                               21   BMAP - B00
 40000000 000000001044 CDPSI          *25
 40000000 000000000002 CDRH           *25
 40000000 000000000003 CDRN           *25
 40000000 000000000002 CDSH           *25
 40000000 000000000003 CDSN           *25
 40000000 000000000722 CENTRN         *25
 40000000 000000000722 CENTRO         *25
 40000000 000000000716 CENTRY         *25
 41000000 000000001053 CFCT           *25
 01101000 000000000306 CFER2          322      *355
 40000000 000000000670 CFLPT1         *25
 40000000 000000000672 CFLPT2         *25
 40000000 000000000015 CFSA           *25
 40000000 000000000646 CHDBK          *25
 40000000 000000000773 CHR            *25
 40000000 000000000006 CHRD           *25
 40000000 000000000772 CHRO           *25
 40000000 000000007640 CHRTP          *25
 40000000 000000001043 CIAC           *25
 40000000 000000000012 CIAWS          *25
 40000000 000000001051 CIBSI          *25
 40000000 000000000516 CIND           *25
 40000000 000000001041 CINVSZ         *25
 40000000 000000001042 CIPG           *25
 40000000 000000001050 CIPSI          *25
 40000000 000000000000 CIRUN          *25
 40000000 000000000002 CIRWS          *25
 40000000 000000000002 CISWS          *25
 40000000 000000000014 CIWSOF         *25
 40000000 000000303374 CKSM           *25
 40000000 000000000022 CLCN           *25
 40000000 000000000023 CLCP           *25
 40000000 000000000003 CLCRC          *25
 40000000 000000000003 CLCSC          *25
 40000000 000000000237 CLI            *25
 40000000 000000000026 CLNG           *25
 01101000 000000000160 CMER1          131      *177
 12:45 09/05/97  FILE=ZIM$DBFU.:ZIC0TSI       SYMBOL TABLE                                               22   BMAP - B00
 01101000 000000000241 CML1          *305       328
 41000000 000000000052 CMPL           *25       217       219       225       304       306       312
 40000000 000000000002 CN             *25
 40000000 000000303315 CNE1           *25
 41000000 000000006034 CNUL           *25       163
 40000000 000000100000 COB74          *25
 40000000 000000000001 COFS           *25
 40000000 000000000045 CONCD          *25
 40000000 000000007764 CP6PGSZB       *25
 41000000 000000001775 CP6PGSZW       *25
 40000000 000000001000 CPGR           *25
 01101000 000000000307 CPR1           343       348       356      *360
 40000000 000000000723 CPTRN          *25
 40000000 000000000723 CPTRO          *25
 60000000 000000000004 CPW            *25
 40000000 000000000112 CRA            *25
 40000000 000000001004 CRD            *25
 40000000 000000000764 CREC           *25
 40000000 000000006344 CRIT           *25
 40000000 000000006200 CRNUL          *25
 41000000 000000007330 CRST           *25       252
 41000000 000000001223 CRUN           *25
 41000000 000000000000 CSECT          *25
 40000000 000000000007 CSMPP          *25
 40000000 000000001000 CSPAC          *25
 40000000 000000000004 CSPAH          *25
 40000000 777777777776 CSPES          *25
 40000000 777777777776 CSPSB          *25
 40000000 000000000115 CSTS           *25
 40000000 000000000071 CSUB           *25
 40000000 000000000017 CSZ            *25
 40000000 000000000057 CTMASK         *25
 40000000 000000000774 CTPAI          *25
 40000000 000000000240 CURLN          *25
 40000000 000000000236 CURLT          *25
 40000000 000000000770 CURPG          *25
 41000000 000000000001 CURR           *25        88
 12:45 09/05/97  FILE=ZIM$DBFU.:ZIC0TSI       SYMBOL TABLE                                               23   BMAP - B00
 40000000 000000000035 CURRS          *25
 40000000 000000000037 CURSS          *25
 40000000 000000001005 CWRT           *25
 40000000 000000000237 CWSOF          *25
 61000000 000000000001 D              *25       226       313
 40000000 000000000003 DBAN           *25
 40000000 000000000036 DBDR           *25
 40000000 000000000037 DBFN           *25
 40000000 000000000754 DBK            *25
 40000000 000000000777 DBKAC          *25
 41000000 000000000000 DBKEY          *25        91
 40000000 000000000000 DBKL           *25
 40000000 000000007474 DBKN           *25
 41000000 000000000776 DBKR           *25
 40000000 000000000777 DBKRQ          *25
 40000000 000000000234 DBKSI          *25
 40000000 000000000651 DBKSR          *25
 40000000 000000000047 DBKYN          *25
 40000000 000000210652 DBLC01         *25
 40000000 000000210653 DBLC05         *25
 40000000 000000303334 DBLC07         *25
 40000000 000000210655 DBLD01         *25
 40000000 000000000010 DBLIM          *25
 40000000 000000000033 DBPKY          *25
 40000000 000000000023 DBRN           *25
 40000000 000000000013 DBSN           *25
 40000000 000000000001 DBST           *25
 40000000 000000000757 DCDSR          *25
 40000000 000000210650 DCE1           *25
 40000000 000000001053 DCPR           *25
 40000000 000000001053 DCPW           *25
 40000000 000000000015 DCTBL          *25
 40000000 000000000032 DDBK           *25
 40000000 000000000006 DDCB           *25
 40000000 000000011754 DDI            *25
 41000000 000000000000 DEF            *25        69        75       101       227       314
 40000000 000000000014 DEF2           *25
 12:45 09/05/97  FILE=ZIM$DBFU.:ZIC0TSI       SYMBOL TABLE                                               24   BMAP - B00
 40000000 000000303413 DELAK          *25
 40000000 000000000036 DELRS          *25
 40000000 000000000732 DEPCW          *25
 40000000 000000303414 DLDBK          *25
 40000000 000000210627 DLE1           *25
 40000000 000000303310 DLE2           *25
 40000000 000000210631 DLE3           *25
 40000000 000000016040 DNES           *25
 40000000 777777777777 DPAGN          *25
 40000000 000000000020 DPPI           *25
 40000000 000000000053 DPSLW          *25
 40000000 000000000003 DS             *25
 40000000 000000001063 DSDES          *25
 40000000 000000303316 DSE1           *25
 40000000 000000000735 DUSEPA         *25
 60000000 000000000001 E              *25
 40000000 000000303251 EDPER          *25
 40000000 000000000026 EEIND          *25
 40000000 000000000713 EFIND          *25
 40000000 000000001030 ELO            *25
 40000000 000000210711 ENCPNA         *25
 40000000 000000000007 ENCRP          *25
 40000000 000000000752 ENDSR          *25
 40000000 000000210647 ENE1           *25
 40000000 000000000716 ENIND          *25
 40000000 000000000013 ENTBL          *25
 40000000 000000000710 ENTNO          *25
 40000000 000000000712 ENTPTR         *25
 40000000 000000000717 ENTSZ          *25
 40000000 000000000711 ENTTYP         *25
 01101000 000000000156 EOS1           127      *167
 40000000 000000004064 EOSR           *25
 40000000 000000000004 ES             *25
 41000000 000000000100 ESTSZ          *25
 40000000 000000000725 ESZ            *25
 40000000 000000000005 ETCADR         *25
 40000000 000000000005 ETCDBNO        *25
 12:45 09/05/97  FILE=ZIM$DBFU.:ZIC0TSI       SYMBOL TABLE                                               25   BMAP - B00
 40000000 000000000064 EXCCD          *25
 40000000 000000234534 FALRT          *25
 40000000 000000001055 FBF72          *25
 40000000 000000001025 FBU61          *25
 40000000 000000001020 FBUF           *25
 40000000 000000001026 FBUF1          *25
 40000000 000000001027 FBUF4          *25
 40000000 000000001024 FBUF6          *25
 40000000 000000001022 FBUFM          *25
 40000000 000000001021 FBUFU          *25
 40000000 000000001023 FBUMD          *25
 40000000 000000000004 FCN            *25
 41000000 000000000051 FCNT           *25       214       235       237       302       325       327
 40000000 000000000002 FCP            *25
 01101000 000000000062 FCRO           104      *110
 40000000 000000000047 FCSS           *25
 40000000 000000000005 FD             *25
 41000000 000000210637 FDE1           *25       345
 40000000 000000303320 FDE2           *25
 40000000 000000303321 FDE3           *25
 40000000 000000210642 FDE4           *25
 40000000 000000210643 FDE5           *25
 40000000 000000210644 FDE6           *25
 40000000 000000303325 FDE7           *25
 40000000 000000303326 FDE8           *25
 40000000 000000000021 FEASZ          *25
 01101000 000000000266 FEQ1           322      *324
 40000000 000000000740 FETM           *25
 40000000 000000000006 FI             *25
 40000000 000000000103 FIAC           *25
 41000000 000000001100 FIB1           *25
 41000000 000000001130 FIBP           *25
 40000000 000000000000 FIBX           *25
 40000000 000000000102 FICNT          *25
 40000000 000000000005 FIPN           *25
 40000000 000000000054 FKIND          *25
 40000000 000000000015 FLAGS          *25
 12:45 09/05/97  FILE=ZIM$DBFU.:ZIC0TSI       SYMBOL TABLE                                               26   BMAP - B00
 40000000 000000000244 FLDDSC         *25
 40000000 000000000046 FLDTL          *25
 40000000 000000000020 FMSBF          *25
 40000000 000000000006 FNAM           *25
 01101000 000000000273 FNEQ           323      *333
 01101000 000000000160 FNER1          127      *176
 40000000 000000000250 FNIND          *25
 40000000 000000000004 FNL            *25
 40000000 000000000101 FRAC           *25
 40000000 000000000002 FRANGE         *25
 40000000 000000211400 FRDNL          *25
 01101000 000000000275 FRER2          316      *338
 01101000 000000000302 FRER3          318      *344
 01101000 000000000220 FRER4          229      *245
 01101000 000000000225 FRER5          231      *251
 40000000 000000200000 FRTRN          *25
 40000000 000000000005 FRWSO          *25
 40000000 000000000767 FSLN           *25
 40000000 000000000766 FSOF           *25
 40000000 000000000060 FTIND          *25
 40000000 000000303240 FTLINCR        *25
 01101000 000000000142 FUE1            77      *152
 01101000 000000000101 FUL1          *126       135
 01101000 000000000161 FUR1           151       156       161       166       169       181      *183
 40000000 000000000021 FWSSZ          *25
 40000000 000000000246 GACDK          *25
 40000000 000000000014 GDCB           *25
 41000000 000000000006 GERROR         *25        92        97       121       127       131       138
                                      140       234       322
 40000000 000000000016 GINHIB         *25
 40000000 000000000020 GIOAWS         *25
 40000000 000000000022 GIOBUF         *25
 40000000 000000000021 GIOPGNO        *25
 40000000 000000000015 GPAGE          *25
 40000000 000000000010 GRETAC         *25
 40000000 000000000011 GRETFR         *25
 40000000 000000000013 GRETRC         *25
 12:45 09/05/97  FILE=ZIM$DBFU.:ZIC0TSI       SYMBOL TABLE                                               27   BMAP - B00
 40000000 000000000012 GRETSC         *25
 41000000 000000000025 GRLCW          *25        64
 40000000 000000000014 GSTCD          *25
 40000000 000000000007 GSYSERR        *25
 40000000 000000000010 GT             *25
 40000000 000000000046 GTRNAME        *25
 40000000 000000000055 GTRPDCB        *25
 40000000 000000000056 GTRPNO         *25
 40000000 000000000057 GTRRDBK        *25
 40000000 000000000060 GTRRTYPE       *25
 40000000 000000000060 GTRTYPE        *25
 40000000 000000000027 HASH           *25
 40000000 000000000022 HIA            *25
 40000000 000000000775 HIDB           *25
 40000000 000000000003 HIGHDBK        *25
 40000000 000000000004 HIGHPG         *25
 40000000 000000001037 HIL            *25
 40000000 000000000002 HILN           *25
 40000000 000000000006 HPOS           *25
 40000000 000000000756 IAAC           *25
 40000000 000000001011 IACLN          *25
 40000000 000000001010 IALC           *25
 40000000 000000010314 IAN            *25
 40000000 000000001012 IANLN          *25
 40000000 000000000001 IASID          *23
 40000000 000000020320 ICA            *25
 40000000 000000000023 ICKSMP         *25
 40000000 000000000024 ICKSMV         *25
 40000000 000000210742 ICNR           *25
 41000000 000000000020 ICSIZ          *25
 40000000 000000010004 IDBK           *25
 40000000 000000012120 IDI            *25
 40000000 000000000023 IDS            *25
 40000000 000000000011 IF             *25
 40000000 000000000021 IFIPN          *25
 40000000 000000000000 IFR            *25
 40000000 000000234546 IKSEQ          *25
 12:45 09/05/97  FILE=ZIM$DBFU.:ZIC0TSI       SYMBOL TABLE                                               28   BMAP - B00
 40000000 000000000113 INAFLAG        *25
 40000000 000000000016 INCHA          *25
 40000000 000000210566 INNM           *25
 40000000 000000210567 INSS           *25
 40000000 000000210575 INSST          *25
 40000000 000000303241 INTER          *25
 40000000 000000400000 INTII          *25
 40000000 000000000013 INTVL          *25
 40000000 000000001060 INVFLG         *25
 40000000 000000001043 INVOF          *25
 40000000 000000000014 INVT           *25
 40000000 000000000034 IOBLK          *25
 40000000 000000303354 IOCLSD         *25
 40000000 000000303355 IOCLSK         *25
 40000000 000000303257 IOE1           *25
 40000000 000000303264 IOE11          *25
 40000000 000000303265 IOE12          *25
 40000000 000000303266 IOE18          *25
 40000000 000000303260 IOE2           *25
 40000000 000000303261 IOE3           *25
 40000000 000000303262 IOE7           *25
 40000000 000000303263 IOE8           *25
 40000000 000000303363 IOFLSH         *25
 40000000 000000210676 IOGDCB         *25
 40000000 000000001002 IOINC          *25
 40000000 000000305160 IOINI          *25
 40000000 000000305155 IONOTIDS       *25
 40000000 000000305154 IONOTKEY       *25
 40000000 000000210677 IOOPND         *25
 40000000 000000210700 IOOPNK         *25
 40000000 000000303361 IORDD          *25
 40000000 000000305156 IOSCHEMA       *25
 40000000 000000001052 IOSTS          *25
 40000000 000000303362 IOWRTD         *25
 41000000 000000000750 IOWS           *25
 40000000 000000000647 IPC            *25
 40000000 000000000650 IPCF           *25
 12:45 09/05/97  FILE=ZIM$DBFU.:ZIC0TSI       SYMBOL TABLE                                               29   BMAP - B00
 40000000 000000000006 IROLLFLAG      *25
 41000000 000000010150 IRSN           *25       153
 40000000 000000000004 ISYSDCB        *25
 40000000 000000000005 ISYSERR        *25
 40000000 000000000061 ITPTR          *25
 40000000 000000000060 ITRS           *25
 40000000 000000021760 IUM            *25
 40000000 000000000017 IUSZ           *25
 40000000 000000234522 IVDBK          *25
 40000000 000000000011 IXBUF$         *25
 40000000 000000000046 IXFBSZ         *25
 40000000 777777777776 IXID           *25
 40000000 777777777777 IXPLL          *25
 40000000 000000000523 KCARG0         *25
 40000000 000000000524 KCARG3         *25
 40000000 000000000525 KCARG4         *25
 40000000 000000000700 KCREG          *25
 40000000 000000000006 KDCB           *25
 40000000 000000000666 KEYDS          *25
 40000000 000000000010 KEYPA          *25
 40000000 777777777776 KLNG           *25
 40000000 000000000022 KPASZ          *25
 40000000 000000000006 KWSZ           *25
 40000000 000000000052 LANGC          *25
 40000000 000000001014 LAS            *25
 40000000 000000700000 LCODM          *25
 40000000 000000001045 LDPSI          *25
 40000000 000000001071 LINPT          *25
 40000000 000000001017 LNCNT          *25
 40000000 000000000762 LNNO           *25
 40000000 000000001036 LOL            *25
 40000000 000000000715 LOLIM          *25
 40000000 000000000023 LPASZ          *25
 40000000 000000000012 LPP            *25
 41000000 000000257764 LR             *25       158
 40000000 000000301270 LRA            *25
 40000000 000000000017 LRSZ           *25
 12:45 09/05/97  FILE=ZIM$DBFU.:ZIC0TSI       SYMBOL TABLE                                               30   BMAP - B00
 40000000 000000001035 LSPC           *25
 40000000 000000000750 LUPD           *25
 61000000 000000000001 M9             *25
 40000000 000000000013 MD             *25
 40000000 000000300000 MDQS           *25
 40000000 000000000730 MEMPTR         *25
 40000000 000000000727 MEMTYP         *25
 01101000 000000000231 MKER4          234      *262
 40000000 000000000045 MODCD          *25
 41000000 000000001207 MODFL          *25
 40000000 000000000042 MODFR          *25
 40000000 000000000044 MODIN          *25
 40000000 000000000044 MODRS          *25
 40000000 000000000043 MODSC          *25
 40000000 000000000047 MRBKI          *25
 40000000 000000210632 MRE4           *25
 40000000 000000303313 MRE5           *25
 40000000 000000210634 MRE7           *25
 01101000 000000000160 MVER1          121      *175
 01101000 000000000171 MVL1          *218       238
 01101000 000000000232 MVR1           250       255       263      *268
 40000000 000000400000 MW             *25
 40000000 000000000025 NCH            *25
 40000000 000000000002 NCHA           *25
 40000000 000000000005 NCHRS          *25
 01101000 000000000152 NCUR1           87        89      *162
 40000000 000000000014 NDCD           *25
 40000000 000000000012 NENC           *25
 40000000 000000000634 NEW            *25
 40000000 000000001072 NEWSIZ         *25
 01101000 000000000272 NFTC           301      *330
 01101000 000000000216 NFTM           216      *240
 40000000 000000235164 NKA            *25
 40000000 000000235020 NKDB           *25
 40000000 000000303415 NLDBK          *25
 40000000 777777777777 NLIND          *25
 40000000 000000001040 NLN            *25
 12:45 09/05/97  FILE=ZIM$DBFU.:ZIC0TSI       SYMBOL TABLE                                               31   BMAP - B00
 40000000 000000400000 NLNSA          *25
 41000000 000000001053 NOBF           *25
 40000000 000000000711 NOPTRS         *25
 40000000 000000000742 NPARCW         *25
 40000000 000000000630 NPIND          *25
 40000000 000000000004 NPOS           *25
 40000000 000000234510 NSA            *25
 40000000 000000234654 NSCS           *25
 40000000 000000234344 NSDB           *25
 40000000 000000000001 NSTS           *25
 40000000 000000000726 NUMENT         *25
 40000000 000000000727 NUMPTR         *25
 40000000 777777777760 NXBUF          *25
 40000000 000000000713 NXPRI          *25
 40000000 000000000771 NXTC           *25
 40000000 000000000001 OAACN          *25
 40000000 000000000022 OACIWSOF       *25
 40000000 000000000001 OAOFST         *25
 40000000 000000000002 OARCN          *25
 40000000 000000000001 OASCN          *25
 40000000 000000000014 OD             *25
 40000000 000000000074 ODBK           *25
 40000000 000000001072 OLDSIZ         *25
 40000000 000000000101 OPADP          *25
 40000000 000000000741 OPARCW         *25
 40000000 000000210570 ORDNI          *25
 40000000 777777777777 OTVL           *25
 40000000 000000000252 OWNPTR         *25
 40000000 000000000016 PABUF          *25
 40000000 000000001041 PACD           *25
 40000000 000000000001 PACW           *25
 40000000 000000000733 PADBK          *25
 40000000 000000000740 PADUP          *25
 40000000 000000000745 PAEN           *25
 40000000 000000000745 PAEO           *25
 40000000 000000000734 PAEOF          *25
 40000000 000000303336 PAER1          *25
 12:45 09/05/97  FILE=ZIM$DBFU.:ZIC0TSI       SYMBOL TABLE                                               32   BMAP - B00
 40000000 000000303337 PAER2          *25
 40000000 000000303340 PAER3          *25
 40000000 000000303341 PAER4          *25
 40000000 000000303342 PAER5          *25
 40000000 000000303343 PAER6          *25
 40000000 000000000747 PAESZ          *25
 40000000 000000001060 PAFLG          *25
 40000000 000000000731 PAOPTR         *25
 40000000 000000000734 PAPOF          *25
 40000000 000000000714 PARCW          *25
 40000000 000000000726 PARVPA         *25
 40000000 000000000724 PASPLT         *25
 40000000 000000000004 PAWSZ          *25
 40000000 777777777762 PBUF           *25
 40000000 000000000020 PC             *25
 41000000 000000000510 PCB            *25
 40000000 000000000642 PCD            *25
 40000000 000000000642 PCD2           *25
 40000000 000000000247 PCEXI          *25
 40000000 000000000675 PCMIN          *25
 40000000 000000004541 PCOMP          *25
 40000000 000000000010 PD             *25
 40000000 000000000040 PE             *25
 40000000 000000000017 PENDING        *25
 40000000 000000000004 PF             *25
 40000000 000000000400 PFG            *25
 40000000 000000000200 PFM            *25
 40000000 000000000100 PFS            *25
 40000000 000000000400 PG             *25
 01101000 000000000160 PGER1           92      *173
 40000000 000000001064 PGHD           *25
 40000000 000000000006 PGLIM          *25
 40000000 000000000003 PGRNG          *25
 40000000 000000000746 PGSIZE         *25
 40000000 000000000641 PGSPLT         *25
 40000000 000000000100 PKAW           *25
 40000000 000000001034 PLO            *25
 12:45 09/05/97  FILE=ZIM$DBFU.:ZIC0TSI       SYMBOL TABLE                                               33   BMAP - B00
 40000000 000000000004 PLSEP          *25
 40000000 000000000200 PM             *25
 40000000 000000001054 PNEOO          *25
 40000000 000000001047 POFSI          *25
 40000000 000000000005 PPOS           *25
 41000000 000000000000 PR0            *23        59        61        63        66       118       120
                                      128       130       220       222       307       309
 41000000 000000000001 PR1            *23        60        67       221       223       308       310
 40000000 000000000002 PR2            *23
 40000000 000000000003 PR3            *23
 40000000 000000000004 PR4            *23
 41000000 000000000005 PR5            *23        64        92        97       121       127       131
                                      138       140       234       322
 41000000 000000000006 PR6            *23        69        75        80        85       101       106
                                      227       230       314       317
 41000000 000000000007 PR7            *23        73        81        86        88        90        91
                                       94        95        96        98       100       105       107
                                      108       109       114       115       116       117       122
                                      123       124       125       132       133       134       211
                                      214       217       219       225       233       235       237
                                      241       299       302       304       306       312       320
                                      321       325       327       334
 40000000 000000303267 PRE1           *25
 40000000 000000303277 PRE10          *25
 40000000 000000303270 PRE3           *25
 40000000 000000303271 PRE4           *25
 40000000 000000303272 PRE5           *25
 40000000 000000210613 PRE6           *25
 40000000 000000210614 PRE7           *25
 40000000 000000210615 PRE8           *25
 40000000 000000303276 PRE9           *25
 40000000 000000000522 PREXC          *25
 41000000 000000000521 PRFR           *25       233       320
 41000000 000000000521 PRFR2          *25       321
 41000000 000000000000 PRIV           *25        81
 40000000 000000000526 PROPA          *25
 41000000 000000000517 PRRC           *25        98
 12:45 09/05/97  FILE=ZIM$DBFU.:ZIC0TSI       SYMBOL TABLE                                               34   BMAP - B00
 40000000 000000000517 PRRS           *25
 41000000 000000000520 PRSC           *25        73       100
 40000000 000000000516 PRSS           *25
 40000000 000000000644 PRSTS          *25
 01101000 000000000146 PRVE1           83      *157
 40000000 000000000100 PS             *25
 41000000 000000000000 PS0SID         *23
 41000000 000000000001 PS1SID         *23
 41000000 000000000002 PS2SID         *23
 41000000 000000000003 PS3SID         *23
 41000000 000000000004 PS4SID         *23
 40000000 000000000005 PS5SID         *23
 40000000 000000000006 PS6SID         *23
 40000000 000000303416 PSA            *25
 40000000 000000000020 PSC            *25
 40000000 000000000010 PSD            *25
 41000000 000000000004 PSF            *25        82
 40000000 000000000400 PSO            *25
 40000000 000000000720 PTESZ          *25
 40000000 000000000631 PTR            *25
 40000000 000000000724 PTRESZ         *25
 40000000 000000000710 PTRNO          *25
 41000000 000000000630 PWS            *25
 40000000 000000000002 RADDR          *25
 40000000 000000000010 RADIX          *25
 40000000 000000000005 RAPTR          *25
 40000000 000000000004 RAWSOF         *25
 40000000 777777777766 RBA            *25
 40000000 000000023432 RCBI           *25
 40000000 000000211234 RCDNL          *25
 41000000 000000000005 RCFRH          *25       230       317
 40000000 000000000004 RCFRN          *25
 40000000 000000001075 RCHD           *25
 40000000 000000000001 RCID           *25
 01101000 000000000160 RCNF1           97      *174
 40000000 000000000006 RCPTR          *25
 40000000 000000000002 RCRAH          *25
 12:45 09/05/97  FILE=ZIM$DBFU.:ZIC0TSI       SYMBOL TABLE                                               35   BMAP - B00
 40000000 000000000001 RCRAN          *25
 40000000 000000000003 RCRSH          *25
 40000000 000000000002 RCRSN          *25
 40000000 000000210667 RCVER1         *25
 40000000 000000210670 RCVER2         *25
 40000000 000000210671 RCVER4         *25
 40000000 000000210672 RCVER5         *25
 40000000 000000210673 RCVER6         *25
 40000000 000000000736 RCW1           *25
 40000000 000000000737 RCW2           *25
 40000000 000000000004 RCWSO          *25
 40000000 000000000077 RDAC           *25
 40000000 000000000076 RDCNT          *25
 40000000 000000040000 RDI            *25
 40000000 000000015674 RDLT           *25
 40000000 000000000075 RDYCW          *25
 40000000 000000000066 RECAC          *25
 40000000 000000000065 RECFR          *25
 40000000 000000000070 RECRC          *25
 40000000 000000000067 RECSC          *25
 40000000 000000000003 RECSZ          *25
 40000000 000000000235 REMLT          *25
 40000000 000000000062 REM_RECOVER    *25
 40000000 000000000251 RETFR          *25
 40000000 000000210724 RFDNL          *25
 01101000 000000000124 RFND1          131      *137
 40000000 000000017644 RIM            *25
 40000000 000000000005 RNAM           *25
 40000000 000000015706 RNDLT          *25
 40000000 000000000662 RNG1           *25
 40000000 000000000664 RNG2           *25
 40000000 000000000073 RNGD           *25
 40000000 000000000072 RNGO           *25
 40000000 000000000660 RNGTAL         *25
 40000000 000000020154 RNM            *25
 40000000 000000000041 ROCUR          *25
 40000000 000000000001 ROFST          *25
 12:45 09/05/97  FILE=ZIM$DBFU.:ZIC0TSI       SYMBOL TABLE                                               36   BMAP - B00
 40000000 000000002114 ROLL           *25
 40000000 000000020010 RPM            *25
 40000000 000000000001 RSCDH          *25
 40000000 000000000001 RSCDN          *25
 40000000 000000211710 RSDNL          *25
 41000000 000000004540 RSEE           *25       168
 40000000 000000000003 RSIZ           *25
 40000000 000000000110 RSPAM          *25
 40000000 000000000004 RSPTR          *25
 40000000 000000000037 RSREQ          *25
 40000000 000000000002 RSSSH          *25
 40000000 000000000001 RSSSN          *25
 40000000 000000210574 RSZER          *25
 40000000 000000000632 RSZTP          *25
 41000000 000000000003 RTP            *25        96
 40000000 000000000003 RTYP           *25
 40000000 000000000530 RV1            *25
 40000000 000000000550 RV2            *25
 40000000 000000000570 RV3            *25
 40000000 000000000610 RV4            *25
 41000000 000000000003 RVASID         *23        60       221       308
 41000000 000000000510 RVI            *25        90        94       105       114       117       122
                                      125       132       134
 41000000 000000000511 RVO            *25       133
 40000000 000000000513 RVPA           *25
 41000000 000000000512 RVT            *25       115       116       123       124
 40000000 000000000022 RVTAL          *25
 40000000 000000000002 RWSZ           *25
 40000000 000000000015 RY             *25
 40000000 000000210620 RYE1           *25
 40000000 000000210621 RYE4           *25
 40000000 777777777767 SA             *25
 40000000 000000000005 SANAM          *25
 40000000 000000001062 SCDES          *25
 40000000 000000211544 SCDNL          *25
 40000000 000000000024 SCFC           *25
 40000000 000000000002 SCID           *25
 12:45 09/05/97  FILE=ZIM$DBFU.:ZIC0TSI       SYMBOL TABLE                                               37   BMAP - B00
 40000000 000000000024 SCLST          *25
 40000000 000000000004 SCNAM          *25
 40000000 000000000004 SCPTR          *25
 40000000 000000000003 SCRSH          *25
 40000000 000000000002 SCRSN          *25
 41000000 000000000001 SCWSO          *25        80        85       106
 40000000 000000001225 SFWS           *25
 40000000 000000001073 SIZCHG         *25
 40000000 000000000645 SKFLG          *25
 40000000 000000000643 SKIND          *25
 40000000 000000000641 SKTYP          *25
 40000000 000000020464 SMCR           *25
 40000000 000000000003 SNAM           *25
 40000000 000000000107 SNIND          *25
 40000000 000000000735 SNPAE          *25
 40000000 000000001046 SNSI           *25
 40000000 000000000743 SOE            *25
 40000000 000000020630 SORSA          *25
 40000000 000000004374 SOSE           *25
 40000000 000000000000 SPAV           *25
 40000000 000000000744 SPCAVN         *25
 40000000 000000000744 SPCAVO         *25
 40000000 000000000765 SPLF           *25
 41000000 000000000765 SPND           *25
 40000000 000000000006 SSDT           *25
 40000000 000000303243 SSER           *25
 40000000 000000303244 SSER1          *25
 40000000 000000000002 SSH            *25
 40000000 000000000005 SSNAM          *25
 40000000 000000210573 SSNF           *25
 40000000 000000210576 SSNV           *25
 40000000 000000000020 SSSPTR         *25
 40000000 000000000010 SSVDT          *25
 40000000 000000000033 SSZTP          *25
 40000000 000000000017 ST             *25
 40000000 000000000104 STBIN          *25
 40000000 000000000105 STDEC          *25
 12:45 09/05/97  FILE=ZIM$DBFU.:ZIC0TSI       SYMBOL TABLE                                               38   BMAP - B00
 40000000 000000303302 STE1           *25
 40000000 000000303303 STE2           *25
 40000000 000000210624 STE3           *25
 40000000 000000303305 STE4           *25
 40000000 000000303306 STE5           *25
 00101000 000000000160 STER1         *180
 41000000 000000000100 STKSIZ         *25
 40000000 000000000055 STMASK         *25
 40000000 000000000062 SUST           *25
 41000000 000000000020 SWS            *25
 40000000 000000000000 SWSAC          *25
 40000000 000000000002 SWSZ           *25
 40000000 000000000000 SYSSF          *25
 40000000 000000000765 SZREQ          *25
 40000000 000000000004 TBUF           *25
 40000000 000000001061 TCTRS          *25
 60000000 000000000000 TDS            *25
 41000000 000000000113 TEMP           *25
 40000000 000000000640 TFLD           *25
 40000000 000000000657 TFLD2          *25
 40000000 000000000056 TMASK          *25
 40000000 000000000061 TMODE          *25
 40000000 000000000676 TMPPA          *25
 40000000 000000000003 TPAI           *25
 40000000 000000500000 TPRCOD         *25
 40000000 000000001031 TSFN           *25
 40000000 000000000021 TSI            *25
 40000000 000000001013 UBRD2          *25
 41000000 000000001223 UBSZ           *25
 40000000 000000000667 UCADR          *25
 40000000 000000000036 UCRS           *25
 40000000 000000000024 UFSPK          *25
 40000000 000000000024 UFSPK2         *25
 40000000 000000000715 ULIM           *25
 40000000 000000004230 UNA            *25
 40000000 000000303417 UNIM           *25
 40000000 000000000002 UOFST          *25
 12:45 09/05/97  FILE=ZIM$DBFU.:ZIC0TSI       SYMBOL TABLE                                               39   BMAP - B00
 40000000 000000001035 UPACD          *25
 40000000 000000000721 UPACW          *25
 01101000 000000000160 UPER1          138      *178
 40000000 000000000007 UPFLAG         *25
 40000000 000000000103 UPPAI          *25
 40000000 000000000004 UPTSID         *23
 01101000 000000000160 USER1          140      *179
 40000000 000000000674 USTAT          *25
 40000000 000000000002 UWASID         *23
 40000000 000000000002 UWSSZ          *25
 40000000 000000000020 UWSZ           *25
 40000000 000000000243 VFDSC          *25
 40000000 000000001070 VFDSR          *25
 40000000 000000000656 VFLD           *25
 40000000 000000001074 VFLNG          *25
 40000000 000000001124 VIB1           *25
 40000000 000000001154 VIBP           *25
 41000000 000000000000 VLPSID         *23        59       118       128       220       307
 40000000 000000001074 VRSIZ          *25
 40000000 000000001067 WLOA           *25
 40000000 000000100000 WRTI           *25
 40000000 000000000000 WSBID          *25
 40000000 000000000003 WSOF           *25
 41000000 000000000000 X0             *23        95       106       148       154       159       164
                                      212       217       219       224       225       247       253
                                      300       302       303       304       306       311       312
                                      340       346
 41000000 000000000001 X1             *23        69        70        75        76        80        81
                                       82        85        92        97       121       127       131
                                      138       140       211       227       228       234       241
                                      299       314       315       322       334
 40000000 000000000002 X2             *23
 41000000 000000000003 X3             *23        90        94       101       102       103       105
 41000000 000000000004 X4             *23       222       223       233       309       310       320
                                      321
 40000000 000000000005 X5             *23
 41000000 000000000006 X6             *23        66        67        73       100       149       248
 12:45 09/05/97  FILE=ZIM$DBFU.:ZIC0TSI       SYMBOL TABLE                                               40   BMAP - B00
                                      254       341       347
 03201008 000000000000 X66_ARET       *23       142
 03201007 000000000000 X66_AUTO_0     *23        57
 41000000 000000000007 X7             *23        98       150       155       160       165       230
                                      249       317       342
 40000000 000000210665 XASL           *25
 40000000 000000303420 XLD            *25
 40000000 000000303421 XPD            *25
 40000000 000000000676 XPRS           *25
 40000000 000000210666 XROLL          *25
 40000000 000000210664 XUNEX          *25
 40000000 777777777777 XXDPN          *25
 03201009 000000000000 ZIB$DBALT     *183
 03201010 000000000000 ZIB$ICALT     *269      *361
 03201011 000000000000 ZIB$ICEXC     *331
 13101000 000000000233 ZIG$DBCMP       12       131      *298
 12101000 000000000000 ZIG$DBFDP       11       *56
 13101000 000000000162 ZIG$DBMOV       13       121      *210
 03201001 000000000000 ZIG$DBPCF      *16       322
 03201002 000000000000 ZIG$DBPFD      *17        92
 03201003 000000000000 ZIG$DBPFN      *18       127
 03201004 000000000000 ZIG$DBPMA      *19       234
 03201005 000000000000 ZIG$DBUPC      *20       138
 03201006 000000000000 ZIG$DBUSR      *21       140
 03201000 000000000000 ZIQ$DBGRC      *15        97

     967 SYMBOLS

 12:45 09/05/97  FILE=ZIM$DBFU.:ZIC0TSI       MACRO TABLE                                                41   BMAP - B00
 CBSYM           25
 DBALT          183
 DBCAL           92        97       121       127       131       138       140       234       322
 DBRET          142
 DBSAV           57
 ICALT          269       361
 ICCAL           97       121       131       138
 ICEXC          331
 ICRET          241       334
 ICSAV          211       299
 Q2SYM           25
 SSSYM           25

      37 MACROS

    SYMBOL SPACE USED  9545 WORDS
     MACRO SPACE USED 13057 WORDS
   INPUT RECORDS READ  2526
 STATEMENTS PROCESSED  2346
         ELAPSED TIME  0:11.52
             CPU TIME    11.04 SEC.
        ASSEMBLY RATE 12750 STATEMENTS/CPU MIN.

      NO ERRORS

