
 12:45 09/05/97  FILE=ZIM$DBGF.:ZIC0TSI                                                                  1    BMAP - B00
                                         1  *M*      ZIG$DBGF
                                         2  *T***********************************************************
                                         3  *T*                                                         *
                                         4  *T* Copyright (c) Bull HN Information Systems Inc., 1997    *
                                         5  *T*                                                         *
                                         6  *T***********************************************************

 12:45 09/05/97  FILE=ZIM$DBGF.:ZIC0TSI       H6600H2.525     IDS/II GET FIELDS              780113DBGF  2    BMAP - B00
                                         7         TTL     H6600H2.525     IDS/II GET FIELDS              780113DBGF
                                         8         CPR     1974
                                         9         PMC     OFF
                                        10  *
                                        11         ENTDEF  ZIG$DBGTF
                                        12  *
                                        13         ENTREF  ZIG$DBPCR
                                        14         ENTREF  ZIG$DBPMT
                                        15  *
                                        16         LODM    Q2MA
                                        17  *
                                        18         Q2SYM

 12:45 09/05/97  FILE=ZIM$DBGF.:ZIC0TSI       IDS-II  GET FIELDS SUBROUTINE                              3    BMAP - B00
                                        19         TTLS    IDS-II  GET FIELDS SUBROUTINE
                                        20  ****************************************************************
                                        21  *
                                        22  *  - DBGTF -
                                        23  *
                                        24  *      GET.  Get Fields. This function moves the specified
                                        25  *      fields of the current of run to the UWA.
                                        26  *
                                        27  *      Parameter   Description
                                        28  *      ---------   -----------
                                        29  *
                                        30  *          0       IA
                                        31  *          1       UWA
                                        32  *          2       FPT
                                        33  *
                                        34  *      FPT Format...
                                        35  *
                                        36  *      Word 0:  Field List Control Word
                                        37  *          HW 0:  Number of fields to move.
                                        38  *      Words 1->M: Field List.  RVA offsets to the
                                        39  *          schema subset elements which describe the fields
                                        40  *          to be moved to the UWA.
                                        41  *
                                        42  ****************************************************************
                                        43  *
 0 000000                               44  ZIG$DBGTF NULL
   000000  X 000000 7000 00             45           DBSAV
   000001    000004 000000
                                        46  *  BUILD CONTROL WORD FOR FIELD LIST
   000002    7 00046 4501 00            47         STZ     FLDTL,,PR7      initialize count of fields processed
                                        48  *  GET CURRENT OF RUN
   000003  X 000000 7010 00             49           DBCAL    ZIG$DBPCR,,PER9      Get curr of run
   000004 (0)000115 7020 00
   000005    5 00006 2341 00
   000006    777776 6010 04
                                        50  *  CHECK REC PRIVACY
   000007    7 01224 2271 00            51         LDX     X7,CRUN+1,,PR7  GET RC
 12:45 09/05/97  FILE=ZIM$DBGF.:ZIC0TSI       IDS-II  GET FIELDS SUBROUTINE                              4    BMAP - B00
   000010    6 00004 2211 17            52         LDX     X1,RCWSO,X7,PR6  GET WORK SPACE OFST
   000011    7 00000 2211 11            53         LDX     X1,PRIV,X1,PR7
   000012    000400 3010 03             54         CANX    X1,PG,DU        IS PRIVACY SATISFIED
   000013 (0)000102 6000 00             55         TZE     PRVE2           NO - ERROR
                                        56  *  INIT EXCEPT. CODE
   000014    7 00064 4501 00            57         STZ     EXCCD,,PR7
                                        58  *  CHECK THAT FIELD IS IN CURR REC
   000015                               59  GTFL1  NULL
   000015    7 01224 2271 00            60         LDX     X7,CRUN+1,,PR7
   000016    000000 4704 07             61         LDP    PR0,VLPSID,DL            VLP$
   000017    000003 4714 07             62           LDP      PR1,RVASID,DL           RVA$
   000020    7 00046 2211 00            63         LDX     X1,FLDTL,,PR7        Get current offset to Field List
   000021    0 00000 1011 00            64         CMPX    X1,0,,PR0            See if > number to process
   000022 (0)000055 6000 00             65         TZE     GFDONE          transfer if all done
   000023    0 00001 2241 11            66         LDX     X4,1,X1,PR0          Get offset to FR pointer from FPT
   000024    1 00000 2241 14            67           LDX      X4,,X4,PR1           Get FR offset from RVA
   000025    000001 6210 11             68         EAX     X1,1,X1              Increment offset into Field List
   000026    7 00046 7411 00            69         STX     X1,FLDTL,,PR7        Save it.
                                        70         IFE     A,1,%CK1
   000027    6 00000 2211 14            71         LDX     X1,DEF,X4,PR6   GET DEF TYPE FROM FR
   000030    002000 3010 03             72         CANX    X1,.FR,DU       IS IT AN FR
   000031 (0)000063 6000 00             73         TZE     CALE3
                                        74  CK1    MARK
   000032    6 00005 1071 14            75         CMPX    X7,RCFRH,X4,PR6  IS THE FR IN THE CURR REC
   000033 (0)000070 6010 00             76         TNZ     CALE4           NO - ERROR
   000034    7 00521 7441 00            77         STX     X4,PRFR,,PR7    PUT FR PTR IN PRIM. REQ.
                                        78  *  CHECK THAT FIELD IS IN SUB-SCHEMA
   000035    6 00000 7211 14            79         LXL     X1,DEF,X4,PR6
   000036    004100 3010 03             80         CANX    X1,.SYN+.FSR,DU  IS THIS FIELD IN UWA
   000037 (0)000075 6010 00             81         TNZ     FNG             NO - ERROR
                                        82  *  CHECK PRIVACY
   000040    6 00005 7211 14            83         LXL     X1,FRWSO,X4,PR6  GET WORK SPACE OFST
   000041    7 00000 2211 11            84         LDX     X1,PRIV,X1,PR7
   000042    000400 3010 03             85         CANX    X1,PFG,DU       IS PRIVACY SATISFIED
   000043 (0)000102 6000 00             86         TZE     PRVE1           PRVE1
                                        87  *  MOVE THE FIELD
   000044  X 000000 7010 00             88         DBCAL   ZIG$DBPMT,,MTER1
 12:45 09/05/97  FILE=ZIM$DBGF.:ZIC0TSI       IDS-II  GET FIELDS SUBROUTINE                              5    BMAP - B00
   000045 (0)000051 7020 00
   000046    5 00006 2341 00
   000047    777776 6010 04
   000050 (0)000015 7100 00             89         TRA     GTFL1           normal return, get next FR
   000051                               90  MTER1  NULL                    ERROR RETURN
   000051    012120 1150 07             91         CMPA    IDI,DL          IS THE ERROR INVALID DATA
   000052 (0)000115 6010 00             92         TNZ     MTER3           NO - STOP NOW
   000053    7 00064 7551 00            93         STA     EXCCD,,PR7      YES - SAVE
   000054    7 00251 7441 00            94         STX     X4,RETFR,,PR7   SAVE FR PTR
                                        95  *  DONE - SEE IF THERE WERE ANY ERRORS
   000055                               96  GFDONE NULL
   000055    7 00064 2341 00            97         SZN     EXCCD,,PR7      WERE THERE ERRORS
   000056 (0)000106 6010 00             98         TNZ     MTER2           YES
                                        99  *  PUT CURR OF RUN BACK IN REC VAR OUT
   000057    7 00510 2371 00           100         LDAQ    RVI,,PR7        * REVERSE
   000060    7 00511 7551 00           101         STA     RVO,,PR7        *  IN & OUT
   000061    7 00510 7561 00           102         STQ     RVI,,PR7        *
                                       103  *
                                       104  *  DONE - RETURN
                                       105  *
   000062  X 000000 7020 00            106           DBRET
                                       107  *
                                       108  *  ERRORS DETECTED IN THIS ROUTINE
                                       109  *
                                       110         IFE     A,1,%CK1
   000063                              111  CALE3  NULL                    ONE OF ARGS IN FR LIST NOT AN FR
   000063    210562 2350 07            112         LDA     ARGER,DL
   000064    000000 6200 00            113         EAX     X0,0            NULL AC
   000065    000000 6260 00            114         EAX     X6,0            NULL SC
   000066    000000 6270 00            115         EAX     X7,0            NULL RC
   000067 (0)000116 7100 00            116         TRA     GFR1
                                       117  CK1    MARK
   000070                              118  CALE4  NULL                    ONE OF FR'S IN LIST NOT PART OF CURR REC
   000070    006344 2350 07            119         LDA     CRIT,DL
   000071    7 00510 2231 00           120         LDX     X3,RVI,,PR7
   000072    7 00005 2201 13           121         LDX     X0,ACPTR,X3,PR7  GET AC
   000073    000000 6260 00            122         EAX     X6,0            NULL SC
 12:45 09/05/97  FILE=ZIM$DBGF.:ZIC0TSI       IDS-II  GET FIELDS SUBROUTINE                              6    BMAP - B00
   000074    000022 7100 04            123         TRA     GFR1,$
   000075                              124  FNG    NULL                    FLD IS SYN OR NOT IN SS
   000075    210637 2350 07            125         LDA     FDE1,DL
   000076    7 00510 2231 00           126         LDX     X3,RVI,,PR7
   000077    7 00005 2201 13           127         LDX     X0,ACPTR,X3,PR7  GET AC
   000100    000000 6260 00            128         EAX     X6,0            NULL SC
   000101 (0)000116 7100 00            129         TRA     GFR1
   000102                              130  PRVE1  NULL                    PRIVACY NOT SATISFIED
   000102                              131  PRVE2  NULL                    PRIVACY NOT SATISFIED
   000102    257764 2350 07            132         LDA     LR,DL
   000103    000000 6200 00            133         EAX     X0,0            NULL AC
   000104    000000 6260 00            134         EAX     X6,0            NULL SC
   000105 (0)000116 7100 00            135         TRA     GFR1
   000106                              136  MTER2  NULL                    ERROR DURING ONE OF FIELD MOVES
   000106    7 00064 2351 00           137         LDA     EXCCD,,PR7
   000107    000000 6200 00            138         EAX     X0,0            NULL AC
   000110    000000 6260 00            139         EAX     X6,0            NULL SC
   000111    7 01224 2271 00           140         LDX     X7,CRUN+1,,PR7  GET RC
   000112    7 00251 2241 00           141         LDX     X4,RETFR,,PR7   GET SAVED FR PTR
   000113 (0)000116 7100 00            142         TRA     GFR1
                                       143  *
                                       144  *  ERRORS DETECTED IN SUBORDINATE ROUTINES
                                       145  *
   000114                              146  STER1  NULL                    ERROR ACCUMULATING STATISTICS
   000114 (0)000116 7100 00            147         TRA     GFR1
                                       148  *
                                       149  *  ERRORS DETECTED IN PRIMITIVES
                                       150  *
   000115                              151  PER9   NULL                    PAGE ERROR - FIND CURR OF RUN
   000115                              152  MTER3  NULL                    MOVE FIELD ERROR
   000115 (0)000116 7100 00            153         TRA     GFR1
                                       154  *
                                       155  *  COMMON ERROR RETURN
                                       156  *
   000116  X 000000 7020 00            157  GFR1     DBALT
                                       158         END

 12:45 09/05/97  FILE=ZIM$DBGF.:ZIC0TSI       IDS-II  GET FIELDS SUBROUTINE                              7    BMAP - B00
  CONTROL SECTION TABLE

   0 CODE   EVEN  000117
   1 RODATA EVEN  000000 LITERALS

 12:45 09/05/97  FILE=ZIM$DBGF.:ZIC0TSI       SYMBOL TABLE                                               8    BMAP - B00
 40000000 000000200000 .AC            *18
 40000000 000000000100 .AG            *18
 40000000 000000002000 .ALTO          *18
 40000000 000000000077 .ANL           *18
 40000000 000000200000 .APDN          *18
 40000000 000000000100 .ATMP          *18
 40000000 000000400000 .AV            *18
 40000000 000000400000 .B0            *18
 40000000 000000200000 .B1            *18
 40000000 000000000200 .B10           *18
 40000000 000000000100 .B11           *18
 40000000 000000000040 .B12           *18
 40000000 000000000020 .B13           *18
 40000000 000000000010 .B14           *18
 40000000 000000000004 .B15           *18
 40000000 000000000002 .B16           *18
 40000000 000000000001 .B17           *18
 40000000 000000400000 .B18           *18
 40000000 000000200000 .B19           *18
 40000000 000000100000 .B2            *18
 40000000 000000100000 .B20           *18
 40000000 000000040000 .B21           *18
 40000000 000000020000 .B22           *18
 40000000 000000010000 .B23           *18
 40000000 000000004000 .B24           *18
 40000000 000000002000 .B25           *18
 40000000 000000001000 .B26           *18
 40000000 000000000400 .B27           *18
 40000000 000000000200 .B28           *18
 40000000 000000000100 .B29           *18
 40000000 000000040000 .B3            *18
 40000000 000000000040 .B30           *18
 40000000 000000000020 .B31           *18
 40000000 000000000010 .B32           *18
 40000000 000000000004 .B33           *18
 40000000 000000000002 .B34           *18
 40000000 000000000001 .B35           *18
 12:45 09/05/97  FILE=ZIM$DBGF.:ZIC0TSI       SYMBOL TABLE                                               9    BMAP - B00
 40000000 000000020000 .B4            *18
 40000000 000000010000 .B5            *18
 40000000 000000004000 .B6            *18
 40000000 000000002000 .B7            *18
 40000000 000000001000 .B8            *18
 40000000 000000000400 .B9            *18
 40000000 000000000001 .BREAK         *18
 40000000 000000010000 .BRK           *18
 40000000 000000020000 .BTB           *18
 40000000 000000000001 .CAC           *18
 40000000 000000000000 .CAE           *18
 40000000 000000000200 .CANSSS        *18
 40000000 000000000400 .CD            *18
 40000000 000000040000 .CFLC          *18
 40000000 000000400000 .CHKSUM        *18
 40000000 000000100000 .CJRNL         *18
 40000000 000000000077 .CNSZ          *18
 40000000 000000160000 .COMC          *18
 40000000 000000000020 .CONT          *18
 40000000 000000000000 .CSE           *18
 40000000 000000700000 .CTYP          *18
 41000000 000000000270 .DBEST         *18
 41000000 000000000470 .DBIC          *18
 40000000 000000077777 .DBPT          *18
 41000000 000000000370 .DBSTK         *18
 40000000 000000020000 .DELM          *18
 40000000 000000002000 .DIDP          *18
 40000000 000000000077 .DNDX          *18
 40000000 000000600000 .DORD          *18
 40000000 000000000200 .DP            *18
 40000000 000000100000 .DPS           *18
 40000000 000000200000 .DPSA          *18
 40000000 000000400000 .DPST          *18
 40000000 000000000002 .DUMP          *18
 40000000 000000002000 .DUPC          *18
 40000000 000000010000 .DUPP          *18
 40000000 000000200000 .EBCL          *18
 12:45 09/05/97  FILE=ZIM$DBGF.:ZIC0TSI       SYMBOL TABLE                                               10   BMAP - B00
 40000000 000000400000 .EBCM          *18
 40000000 000000200000 .ENCRP         *18
 40000000 000000000077 .ENDX          *18
 40000000 000000000400 .ENQ           *18
 40000000 000000004000 .ETC           *18
 40000000 000000000400 .EXIT          *18
 40000000 000000000200 .FMOD          *18
 40000000 000000000077 .FNL           *18
 40000000 000000000074 .FORG          *18
 41000000 000000002000 .FR            *18        72
 41000000 000000000100 .FSR           *18        80
 40000000 000000003400 .FUSE          *18
 40000000 000000010000 .FVF           *18
 40000000 000000040000 .FVR           *18
 40000000 000000000010 .INDEXED       *18
 40000000 000000777777 .IXID          *18
 40000000 000000001777 .IXNUM         *18
 40000000 000000000004 .KEYED         *18
 40000000 000000010000 .LCK           *18
 40000000 000000400000 .LEIL          *18
 40000000 000000001000 .LG            *18
 40000000 000000000002 .LOAD          *18
 40000000 000000020000 .MAR           *18
 40000000 000000000007 .MEMT          *18
 40000000 000000010000 .MRL           *18
 40000000 000000040000 .MSM           *18
 60000000 000000000001 .N6685         *18
 40000000 000000100000 .NAI           *18
 40000000 000000200000 .NBI           *18
 40000000 000000000002 .NCIA          *18
 40000000 000000040000 .NMV           *18
 40000000 000000017777 .NOENT         *18
 40000000 000000400000 .OA            *18
 40000000 000000740000 .OPEV          *18
 40000000 000000100000 .OSM           *18
 40000000 000000100000 .PAFIL         *18
 40000000 000000200000 .PAHVR         *18
 12:45 09/05/97  FILE=ZIM$DBGF.:ZIC0TSI       SYMBOL TABLE                                               11   BMAP - B00
 40000000 000000000001 .PAIA          *18
 40000000 000000040000 .PALIL         *18
 40000000 000000020000 .PALVR         *18
 40000000 000000400000 .PANLL         *18
 40000000 000000400000 .PCKD          *18
 40000000 000000001600 .PMOD          *18
 40000000 000000000520 .PRCSE         *18
 40000000 000000000007 .PSTO          *18
 40000000 000000006040 .PTAS          *18
 40000000 000000010100 .PTCHK         *18
 40000000 000000010200 .PTDEC         *18
 40000000 000000010140 .PTENC         *18
 40000000 000000020000 .RA            *18
 40000000 000000100000 .RC            *18
 40000000 000000400000 .RELEASE       *18
 40000000 000000000017 .RELT          *18
 40000000 000000004000 .RERA          *18
 40000000 000000400000 .RERS          *18
 40000000 000000010000 .RKEY          *18
 40000000 000000000077 .RNL           *18
 40000000 000000200000 .RSTO          *18
 40000000 000000007777 .RTYP          *18
 40000000 000000040000 .SC            *18
 40000000 000000000070 .SETM          *18
 40000000 000000740000 .SETO          *18
 40000000 000000000700 .SETT          *18
 40000000 000000040000 .SFNP          *18
 40000000 000000004000 .SM            *18
 40000000 000000020000 .SMOD          *18
 40000000 000000000077 .SNL           *18
 40000000 000000020000 .SNSS          *18
 40000000 000000010000 .SO            *18
 40000000 000000100000 .SR            *18
 40000000 000000004000 .SRCR          *18
 40000000 000000001000 .SS            *18
 40000000 000000000007 .SSTP          *18
 41000000 000000004000 .SYN           *18        80
 12:45 09/05/97  FILE=ZIM$DBGF.:ZIC0TSI       SYMBOL TABLE                                               12   BMAP - B00
 40000000 000000000040 .SYNC          *18
 40000000 000000020000 .TJRNL         *18
 40000000 000000040000 .TMPLT         *18
 40000000 000000040000 .TRACE         *18
 40000000 000000000001 .TRENTRY       *18
 40000000 000000000012 .TRIDEL        *18
 40000000 000000000021 .TRIDELENQ     *18
 40000000 000000000024 .TRIDEQ        *18
 40000000 000000000013 .TRIMOD        *18
 40000000 000000000022 .TRIMODENQ     *18
 40000000 000000000014 .TRIREAD       *18
 40000000 000000000023 .TRIREADENQ    *18
 40000000 000000000011 .TRISTO        *18
 40000000 000000000020 .TRISTOENQ     *18
 40000000 000000000017 .TRPDEQ        *18
 40000000 000000000004 .TRPMOD        *18
 40000000 000000000016 .TRPMODENQ     *18
 40000000 000000000002 .TRPREAD       *18
 40000000 000000000015 .TRPREADENQ    *18
 40000000 000000000003 .TRPWRITE      *18
 40000000 000000000010 .TRRACC        *18
 40000000 000000000006 .TRRDEL        *18
 40000000 000000000007 .TRRMOD        *18
 40000000 000000000005 .TRRSTO        *18
 40000000 000000004000 .ULCK          *18
 40000000 000000400000 .UPDT          *18
 40000000 000000000040 .VIA           *18
 61000000 000000000001 A              *18        70       110
 40000000 000000000002 ABAS           *18
 40000000 000000000001 AC             *18
 40000000 777777777760 ACDEF          *18
 40000000 000000211070 ACDNL          *18
 40000000 000000000003 ACID           *18
 40000000 000000001016 ACOPN          *18
 40000000 000000000002 ACP            *18
 41000000 000000000005 ACPTR          *18       121       127
 40000000 000000000002 ACRAH          *18
 12:45 09/05/97  FILE=ZIM$DBGF.:ZIC0TSI       SYMBOL TABLE                                               13   BMAP - B00
 40000000 000000000001 ACRAN          *18
 40000000 000000001003 ACREC          *18
 40000000 000000000001 ACTDBCB        *18
 40000000 000000000002 ACTDBNO        *18
 40000000 000000001017 ACTP           *18
 40000000 000000000000 ACTSSS         *18
 40000000 000000000000 ACTSZ          *18
 40000000 000000210565 AFNP           *18
 40000000 000000000635 AFT            *18
 40000000 000000022124 AIR            *18
 40000000 000000000016 AMAX           *18
 40000000 000000000026 ANAM           *18
 40000000 000000021614 ANR            *18
 40000000 000000000001 APNO           *18
 41000000 000000210562 ARGER          *18       112
 41000000 000000000020 ARGS           *18
 40000000 000000000077 ARGS2          *18
 40000000 000000210713 ARNAF          *18
 40000000 000000000003 ATBL           *18
 40000000 000000000000 ATRIB          *18
 40000000 000000000002 AVLN           *18
 40000000 000000000013 AWS$           *18
 40000000 000000000010 AWSZ           *18
 60000000 000000000001 B              *18
 40000000 000000001006 B32N           *18
 40000000 000000001007 B36N           *18
 40000000 000000001056 B72N           *18
 40000000 000000000001 BADDR          *18
 40000000 000000210712 BADSEED        *18
 40000000 777777777765 BDCW           *18
 40000000 000000000633 BEF            *18
 40000000 000000020000 BEFW           *18
 40000000 000000000751 BEMT           *18
 40000000 777777777761 BID            *18
 40000000 777777777762 BIND           *18
 40000000 000000000007 BLKD           *18
 40000000 000000303331 BME02          *18
 12:45 09/05/97  FILE=ZIM$DBGF.:ZIC0TSI       SYMBOL TABLE                                               14   BMAP - B00
 41000000 000000001203 BMPB           *18
 40000000 000000000652 BN1            *18
 40000000 000000000654 BN2            *18
 40000000 000000000004 BPL            *18
 40000000 000000000015 BPLDBK         *18
 40000000 000000000034 BSPG           *18
 40000000 777777777763 BSTAT          *18
 40000000 000000000750 BTX0           *18
 41000000 000000001160 BUF4           *18
 41000000 000000001170 BUF6           *18
 41000000 000000000000 BUFORG         *18
 40000000 000000001060 BUFRQ          *18
 40000000 000000000006 BURRID         *18
 41000000 000000000020 BWASZ          *18
 60000000 000000000001 C              *18
 40000000 000000000050 CAAC           *18
 40000000 000000000050 CACD           *18
 40000000 000000000111 CAG            *18
 40000000 000000001033 CAL            *18
 01101000 000000000063 CALE3           73      *111
 01101000 000000000070 CALE4           76      *118
 40000000 000000000026 CALLPM0        *18
 40000000 000000000003 CANSSS         *18
 40000000 000000000003 CBCPA          *18
 40000000 000000000002 CBCPO          *18
 40000000 000000000002 CBENO          *18
 40000000 000000000014 CBFSZ          *18
 40000000 000000000753 CBIB           *18
 40000000 000000001030 CBID           *18
 40000000 000000000014 CBRCE          *18
 40000000 000000000014 CBRCP          *18
 40000000 000000001033 CBRID          *18
 40000000 000000000015 CBRPA          *18
 40000000 000000000031 CCHAR          *18
 40000000 000000000040 CDBK           *18
 40000000 000000000030 CDES           *18
 40000000 000000000110 CDP            *18
 12:45 09/05/97  FILE=ZIM$DBGF.:ZIC0TSI       SYMBOL TABLE                                               15   BMAP - B00
 40000000 000000001044 CDPSI          *18
 40000000 000000000002 CDRH           *18
 40000000 000000000003 CDRN           *18
 40000000 000000000002 CDSH           *18
 40000000 000000000003 CDSN           *18
 40000000 000000000722 CENTRN         *18
 40000000 000000000722 CENTRO         *18
 40000000 000000000716 CENTRY         *18
 41000000 000000001053 CFCT           *18
 40000000 000000000670 CFLPT1         *18
 40000000 000000000672 CFLPT2         *18
 40000000 000000000015 CFSA           *18
 40000000 000000000646 CHDBK          *18
 40000000 000000000773 CHR            *18
 40000000 000000000006 CHRD           *18
 40000000 000000000772 CHRO           *18
 40000000 000000007640 CHRTP          *18
 40000000 000000001043 CIAC           *18
 40000000 000000000012 CIAWS          *18
 40000000 000000001051 CIBSI          *18
 40000000 000000000516 CIND           *18
 40000000 000000001041 CINVSZ         *18
 40000000 000000001042 CIPG           *18
 40000000 000000001050 CIPSI          *18
 40000000 000000000000 CIRUN          *18
 40000000 000000000002 CIRWS          *18
 40000000 000000000002 CISWS          *18
 40000000 000000000014 CIWSOF         *18
 40000000 000000303374 CKSM           *18
 40000000 000000000022 CLCN           *18
 40000000 000000000023 CLCP           *18
 40000000 000000000003 CLCRC          *18
 40000000 000000000003 CLCSC          *18
 40000000 000000000237 CLI            *18
 40000000 000000000026 CLNG           *18
 40000000 000000000052 CMPL           *18
 40000000 000000000002 CN             *18
 12:45 09/05/97  FILE=ZIM$DBGF.:ZIC0TSI       SYMBOL TABLE                                               16   BMAP - B00
 40000000 000000303315 CNE1           *18
 40000000 000000006034 CNUL           *18
 40000000 000000100000 COB74          *18
 40000000 000000000001 COFS           *18
 40000000 000000000045 CONCD          *18
 40000000 000000007764 CP6PGSZB       *18
 41000000 000000001775 CP6PGSZW       *18
 40000000 000000001000 CPGR           *18
 40000000 000000000723 CPTRN          *18
 40000000 000000000723 CPTRO          *18
 60000000 000000000004 CPW            *18
 40000000 000000000112 CRA            *18
 40000000 000000001004 CRD            *18
 40000000 000000000764 CREC           *18
 41000000 000000006344 CRIT           *18       119
 40000000 000000006200 CRNUL          *18
 40000000 000000007330 CRST           *18
 41000000 000000001223 CRUN           *18        51        60       140
 41000000 000000000000 CSECT          *18
 40000000 000000000007 CSMPP          *18
 40000000 000000001000 CSPAC          *18
 40000000 000000000004 CSPAH          *18
 40000000 777777777776 CSPES          *18
 40000000 777777777776 CSPSB          *18
 40000000 000000000115 CSTS           *18
 40000000 000000000071 CSUB           *18
 40000000 000000000017 CSZ            *18
 40000000 000000000057 CTMASK         *18
 40000000 000000000774 CTPAI          *18
 40000000 000000000240 CURLN          *18
 40000000 000000000236 CURLT          *18
 40000000 000000000770 CURPG          *18
 40000000 000000000001 CURR           *18
 40000000 000000000035 CURRS          *18
 40000000 000000000037 CURSS          *18
 40000000 000000001005 CWRT           *18
 40000000 000000000237 CWSOF          *18
 12:45 09/05/97  FILE=ZIM$DBGF.:ZIC0TSI       SYMBOL TABLE                                               17   BMAP - B00
 60000000 000000000001 D              *18
 40000000 000000000003 DBAN           *18
 40000000 000000000036 DBDR           *18
 40000000 000000000037 DBFN           *18
 40000000 000000000754 DBK            *18
 40000000 000000000777 DBKAC          *18
 40000000 000000000000 DBKEY          *18
 40000000 000000000000 DBKL           *18
 40000000 000000007474 DBKN           *18
 41000000 000000000776 DBKR           *18
 40000000 000000000777 DBKRQ          *18
 40000000 000000000234 DBKSI          *18
 40000000 000000000651 DBKSR          *18
 40000000 000000000047 DBKYN          *18
 40000000 000000210652 DBLC01         *18
 40000000 000000210653 DBLC05         *18
 40000000 000000303334 DBLC07         *18
 40000000 000000210655 DBLD01         *18
 40000000 000000000010 DBLIM          *18
 40000000 000000000033 DBPKY          *18
 40000000 000000000023 DBRN           *18
 40000000 000000000013 DBSN           *18
 40000000 000000000001 DBST           *18
 40000000 000000000757 DCDSR          *18
 40000000 000000210650 DCE1           *18
 40000000 000000001053 DCPR           *18
 40000000 000000001053 DCPW           *18
 40000000 000000000015 DCTBL          *18
 40000000 000000000032 DDBK           *18
 40000000 000000000006 DDCB           *18
 40000000 000000011754 DDI            *18
 41000000 000000000000 DEF            *18        71        79
 40000000 000000000014 DEF2           *18
 40000000 000000303413 DELAK          *18
 40000000 000000000036 DELRS          *18
 40000000 000000000732 DEPCW          *18
 40000000 000000303414 DLDBK          *18
 12:45 09/05/97  FILE=ZIM$DBGF.:ZIC0TSI       SYMBOL TABLE                                               18   BMAP - B00
 40000000 000000210627 DLE1           *18
 40000000 000000303310 DLE2           *18
 40000000 000000210631 DLE3           *18
 40000000 000000016040 DNES           *18
 40000000 777777777777 DPAGN          *18
 40000000 000000000020 DPPI           *18
 40000000 000000000053 DPSLW          *18
 40000000 000000000003 DS             *18
 40000000 000000001063 DSDES          *18
 40000000 000000303316 DSE1           *18
 40000000 000000000735 DUSEPA         *18
 60000000 000000000001 E              *18
 40000000 000000303251 EDPER          *18
 40000000 000000000026 EEIND          *18
 40000000 000000000713 EFIND          *18
 40000000 000000001030 ELO            *18
 40000000 000000210711 ENCPNA         *18
 40000000 000000000007 ENCRP          *18
 40000000 000000000752 ENDSR          *18
 40000000 000000210647 ENE1           *18
 40000000 000000000716 ENIND          *18
 40000000 000000000013 ENTBL          *18
 40000000 000000000710 ENTNO          *18
 40000000 000000000712 ENTPTR         *18
 40000000 000000000717 ENTSZ          *18
 40000000 000000000711 ENTTYP         *18
 40000000 000000004064 EOSR           *18
 40000000 000000000004 ES             *18
 41000000 000000000100 ESTSZ          *18
 40000000 000000000725 ESZ            *18
 40000000 000000000005 ETCADR         *18
 40000000 000000000005 ETCDBNO        *18
 41000000 000000000064 EXCCD          *18        57        93        97       137
 40000000 000000234534 FALRT          *18
 40000000 000000001055 FBF72          *18
 40000000 000000001025 FBU61          *18
 40000000 000000001020 FBUF           *18
 12:45 09/05/97  FILE=ZIM$DBGF.:ZIC0TSI       SYMBOL TABLE                                               19   BMAP - B00
 40000000 000000001026 FBUF1          *18
 40000000 000000001027 FBUF4          *18
 40000000 000000001024 FBUF6          *18
 40000000 000000001022 FBUFM          *18
 40000000 000000001021 FBUFU          *18
 40000000 000000001023 FBUMD          *18
 40000000 000000000004 FCN            *18
 40000000 000000000051 FCNT           *18
 40000000 000000000002 FCP            *18
 40000000 000000000047 FCSS           *18
 40000000 000000000005 FD             *18
 41000000 000000210637 FDE1           *18       125
 40000000 000000303320 FDE2           *18
 40000000 000000303321 FDE3           *18
 40000000 000000210642 FDE4           *18
 40000000 000000210643 FDE5           *18
 40000000 000000210644 FDE6           *18
 40000000 000000303325 FDE7           *18
 40000000 000000303326 FDE8           *18
 40000000 000000000021 FEASZ          *18
 40000000 000000000740 FETM           *18
 40000000 000000000006 FI             *18
 40000000 000000000103 FIAC           *18
 41000000 000000001100 FIB1           *18
 41000000 000000001130 FIBP           *18
 40000000 000000000000 FIBX           *18
 40000000 000000000102 FICNT          *18
 40000000 000000000005 FIPN           *18
 40000000 000000000054 FKIND          *18
 40000000 000000000015 FLAGS          *18
 40000000 000000000244 FLDDSC         *18
 41000000 000000000046 FLDTL          *18        47        63        69
 40000000 000000000020 FMSBF          *18
 40000000 000000000006 FNAM           *18
 01101000 000000000075 FNG             81      *124
 40000000 000000000250 FNIND          *18
 40000000 000000000004 FNL            *18
 12:45 09/05/97  FILE=ZIM$DBGF.:ZIC0TSI       SYMBOL TABLE                                               20   BMAP - B00
 40000000 000000000101 FRAC           *18
 40000000 000000000002 FRANGE         *18
 40000000 000000211400 FRDNL          *18
 40000000 000000200000 FRTRN          *18
 41000000 000000000005 FRWSO          *18        83
 40000000 000000000767 FSLN           *18
 40000000 000000000766 FSOF           *18
 40000000 000000000060 FTIND          *18
 40000000 000000303240 FTLINCR        *18
 40000000 000000000021 FWSSZ          *18
 40000000 000000000246 GACDK          *18
 40000000 000000000014 GDCB           *18
 41000000 000000000006 GERROR         *18        49        88
 01101000 000000000055 GFDONE          65       *96
 01101000 000000000116 GFR1           116       123       129       135       142       147       153
                                     *157
 40000000 000000000016 GINHIB         *18
 40000000 000000000020 GIOAWS         *18
 40000000 000000000022 GIOBUF         *18
 40000000 000000000021 GIOPGNO        *18
 40000000 000000000015 GPAGE          *18
 40000000 000000000010 GRETAC         *18
 40000000 000000000011 GRETFR         *18
 40000000 000000000013 GRETRC         *18
 40000000 000000000012 GRETSC         *18
 40000000 000000000025 GRLCW          *18
 40000000 000000000014 GSTCD          *18
 40000000 000000000007 GSYSERR        *18
 40000000 000000000010 GT             *18
 01101000 000000000015 GTFL1          *59        89
 40000000 000000000046 GTRNAME        *18
 40000000 000000000055 GTRPDCB        *18
 40000000 000000000056 GTRPNO         *18
 40000000 000000000057 GTRRDBK        *18
 40000000 000000000060 GTRRTYPE       *18
 40000000 000000000060 GTRTYPE        *18
 40000000 000000000027 HASH           *18
 12:45 09/05/97  FILE=ZIM$DBGF.:ZIC0TSI       SYMBOL TABLE                                               21   BMAP - B00
 40000000 000000000022 HIA            *18
 40000000 000000000775 HIDB           *18
 40000000 000000000003 HIGHDBK        *18
 40000000 000000000004 HIGHPG         *18
 40000000 000000001037 HIL            *18
 40000000 000000000002 HILN           *18
 40000000 000000000006 HPOS           *18
 40000000 000000000756 IAAC           *18
 40000000 000000001011 IACLN          *18
 40000000 000000001010 IALC           *18
 40000000 000000010314 IAN            *18
 40000000 000000001012 IANLN          *18
 40000000 000000000001 IASID          *16
 40000000 000000020320 ICA            *18
 40000000 000000000023 ICKSMP         *18
 40000000 000000000024 ICKSMV         *18
 40000000 000000210742 ICNR           *18
 41000000 000000000020 ICSIZ          *18
 40000000 000000010004 IDBK           *18
 41000000 000000012120 IDI            *18        91
 40000000 000000000023 IDS            *18
 40000000 000000000011 IF             *18
 40000000 000000000021 IFIPN          *18
 40000000 000000000000 IFR            *18
 40000000 000000234546 IKSEQ          *18
 40000000 000000000113 INAFLAG        *18
 40000000 000000000016 INCHA          *18
 40000000 000000210566 INNM           *18
 40000000 000000210567 INSS           *18
 40000000 000000210575 INSST          *18
 40000000 000000303241 INTER          *18
 40000000 000000400000 INTII          *18
 40000000 000000000013 INTVL          *18
 40000000 000000001060 INVFLG         *18
 40000000 000000001043 INVOF          *18
 40000000 000000000014 INVT           *18
 40000000 000000000034 IOBLK          *18
 12:45 09/05/97  FILE=ZIM$DBGF.:ZIC0TSI       SYMBOL TABLE                                               22   BMAP - B00
 40000000 000000303354 IOCLSD         *18
 40000000 000000303355 IOCLSK         *18
 40000000 000000303257 IOE1           *18
 40000000 000000303264 IOE11          *18
 40000000 000000303265 IOE12          *18
 40000000 000000303266 IOE18          *18
 40000000 000000303260 IOE2           *18
 40000000 000000303261 IOE3           *18
 40000000 000000303262 IOE7           *18
 40000000 000000303263 IOE8           *18
 40000000 000000303363 IOFLSH         *18
 40000000 000000210676 IOGDCB         *18
 40000000 000000001002 IOINC          *18
 40000000 000000305160 IOINI          *18
 40000000 000000305155 IONOTIDS       *18
 40000000 000000305154 IONOTKEY       *18
 40000000 000000210677 IOOPND         *18
 40000000 000000210700 IOOPNK         *18
 40000000 000000303361 IORDD          *18
 40000000 000000305156 IOSCHEMA       *18
 40000000 000000001052 IOSTS          *18
 40000000 000000303362 IOWRTD         *18
 41000000 000000000750 IOWS           *18
 40000000 000000000647 IPC            *18
 40000000 000000000650 IPCF           *18
 40000000 000000000006 IROLLFLAG      *18
 40000000 000000010150 IRSN           *18
 40000000 000000000004 ISYSDCB        *18
 40000000 000000000005 ISYSERR        *18
 40000000 000000000061 ITPTR          *18
 40000000 000000000060 ITRS           *18
 40000000 000000021760 IUM            *18
 40000000 000000000017 IUSZ           *18
 40000000 000000234522 IVDBK          *18
 40000000 000000000011 IXBUF$         *18
 40000000 000000000046 IXFBSZ         *18
 40000000 777777777776 IXID           *18
 12:45 09/05/97  FILE=ZIM$DBGF.:ZIC0TSI       SYMBOL TABLE                                               23   BMAP - B00
 40000000 777777777777 IXPLL          *18
 40000000 000000000523 KCARG0         *18
 40000000 000000000524 KCARG3         *18
 40000000 000000000525 KCARG4         *18
 40000000 000000000700 KCREG          *18
 40000000 000000000006 KDCB           *18
 40000000 000000000666 KEYDS          *18
 40000000 000000000010 KEYPA          *18
 40000000 777777777776 KLNG           *18
 40000000 000000000022 KPASZ          *18
 40000000 000000000006 KWSZ           *18
 40000000 000000000052 LANGC          *18
 40000000 000000001014 LAS            *18
 40000000 000000700000 LCODM          *18
 40000000 000000001045 LDPSI          *18
 40000000 000000001071 LINPT          *18
 40000000 000000001017 LNCNT          *18
 40000000 000000000762 LNNO           *18
 40000000 000000001036 LOL            *18
 40000000 000000000715 LOLIM          *18
 40000000 000000000023 LPASZ          *18
 40000000 000000000012 LPP            *18
 41000000 000000257764 LR             *18       132
 40000000 000000301270 LRA            *18
 40000000 000000000017 LRSZ           *18
 40000000 000000001035 LSPC           *18
 40000000 000000000750 LUPD           *18
 61000000 000000000001 M9             *18
 40000000 000000000013 MD             *18
 40000000 000000300000 MDQS           *18
 40000000 000000000730 MEMPTR         *18
 40000000 000000000727 MEMTYP         *18
 40000000 000000000045 MODCD          *18
 41000000 000000001207 MODFL          *18
 40000000 000000000042 MODFR          *18
 40000000 000000000044 MODIN          *18
 40000000 000000000044 MODRS          *18
 12:45 09/05/97  FILE=ZIM$DBGF.:ZIC0TSI       SYMBOL TABLE                                               24   BMAP - B00
 40000000 000000000043 MODSC          *18
 40000000 000000000047 MRBKI          *18
 40000000 000000210632 MRE4           *18
 40000000 000000303313 MRE5           *18
 40000000 000000210634 MRE7           *18
 01101000 000000000051 MTER1           88       *90
 01101000 000000000106 MTER2           98      *136
 01101000 000000000115 MTER3           92      *152
 40000000 000000400000 MW             *18
 40000000 000000000025 NCH            *18
 40000000 000000000002 NCHA           *18
 40000000 000000000005 NCHRS          *18
 40000000 000000000014 NDCD           *18
 40000000 000000000012 NENC           *18
 40000000 000000000634 NEW            *18
 40000000 000000001072 NEWSIZ         *18
 40000000 000000235164 NKA            *18
 40000000 000000235020 NKDB           *18
 40000000 000000303415 NLDBK          *18
 40000000 777777777777 NLIND          *18
 40000000 000000001040 NLN            *18
 40000000 000000400000 NLNSA          *18
 41000000 000000001053 NOBF           *18
 40000000 000000000711 NOPTRS         *18
 40000000 000000000742 NPARCW         *18
 40000000 000000000630 NPIND          *18
 40000000 000000000004 NPOS           *18
 40000000 000000234510 NSA            *18
 40000000 000000234654 NSCS           *18
 40000000 000000234344 NSDB           *18
 40000000 000000000001 NSTS           *18
 40000000 000000000726 NUMENT         *18
 40000000 000000000727 NUMPTR         *18
 40000000 777777777760 NXBUF          *18
 40000000 000000000713 NXPRI          *18
 40000000 000000000771 NXTC           *18
 40000000 000000000001 OAACN          *18
 12:45 09/05/97  FILE=ZIM$DBGF.:ZIC0TSI       SYMBOL TABLE                                               25   BMAP - B00
 40000000 000000000022 OACIWSOF       *18
 40000000 000000000001 OAOFST         *18
 40000000 000000000002 OARCN          *18
 40000000 000000000001 OASCN          *18
 40000000 000000000014 OD             *18
 40000000 000000000074 ODBK           *18
 40000000 000000001072 OLDSIZ         *18
 40000000 000000000101 OPADP          *18
 40000000 000000000741 OPARCW         *18
 40000000 000000210570 ORDNI          *18
 40000000 777777777777 OTVL           *18
 40000000 000000000252 OWNPTR         *18
 40000000 000000000016 PABUF          *18
 40000000 000000001041 PACD           *18
 40000000 000000000001 PACW           *18
 40000000 000000000733 PADBK          *18
 40000000 000000000740 PADUP          *18
 40000000 000000000745 PAEN           *18
 40000000 000000000745 PAEO           *18
 40000000 000000000734 PAEOF          *18
 40000000 000000303336 PAER1          *18
 40000000 000000303337 PAER2          *18
 40000000 000000303340 PAER3          *18
 40000000 000000303341 PAER4          *18
 40000000 000000303342 PAER5          *18
 40000000 000000303343 PAER6          *18
 40000000 000000000747 PAESZ          *18
 40000000 000000001060 PAFLG          *18
 40000000 000000000731 PAOPTR         *18
 40000000 000000000734 PAPOF          *18
 40000000 000000000714 PARCW          *18
 40000000 000000000726 PARVPA         *18
 40000000 000000000724 PASPLT         *18
 40000000 000000000004 PAWSZ          *18
 40000000 777777777762 PBUF           *18
 40000000 000000000020 PC             *18
 41000000 000000000510 PCB            *18
 12:45 09/05/97  FILE=ZIM$DBGF.:ZIC0TSI       SYMBOL TABLE                                               26   BMAP - B00
 40000000 000000000642 PCD            *18
 40000000 000000000642 PCD2           *18
 40000000 000000000247 PCEXI          *18
 40000000 000000000675 PCMIN          *18
 40000000 000000004541 PCOMP          *18
 40000000 000000000010 PD             *18
 40000000 000000000040 PE             *18
 40000000 000000000017 PENDING        *18
 01101000 000000000115 PER9            49      *151
 40000000 000000000004 PF             *18
 41000000 000000000400 PFG            *18        85
 40000000 000000000200 PFM            *18
 40000000 000000000100 PFS            *18
 41000000 000000000400 PG             *18        54
 40000000 000000001064 PGHD           *18
 40000000 000000000006 PGLIM          *18
 40000000 000000000003 PGRNG          *18
 40000000 000000000746 PGSIZE         *18
 40000000 000000000641 PGSPLT         *18
 40000000 000000000100 PKAW           *18
 40000000 000000001034 PLO            *18
 40000000 000000000004 PLSEP          *18
 40000000 000000000200 PM             *18
 40000000 000000001054 PNEOO          *18
 40000000 000000001047 POFSI          *18
 40000000 000000000005 PPOS           *18
 41000000 000000000000 PR0            *16        61        64        66
 41000000 000000000001 PR1            *16        62        67
 40000000 000000000002 PR2            *16
 40000000 000000000003 PR3            *16
 40000000 000000000004 PR4            *16
 41000000 000000000005 PR5            *16        49        88
 41000000 000000000006 PR6            *16        52        71        75        79        83
 41000000 000000000007 PR7            *16        47        51        53        57        60        63
                                       69        77        84        93        94        97       100
                                      101       102       120       121       126       127       137
                                      140       141
 12:45 09/05/97  FILE=ZIM$DBGF.:ZIC0TSI       SYMBOL TABLE                                               27   BMAP - B00
 40000000 000000303267 PRE1           *18
 40000000 000000303277 PRE10          *18
 40000000 000000303270 PRE3           *18
 40000000 000000303271 PRE4           *18
 40000000 000000303272 PRE5           *18
 40000000 000000210613 PRE6           *18
 40000000 000000210614 PRE7           *18
 40000000 000000210615 PRE8           *18
 40000000 000000303276 PRE9           *18
 40000000 000000000522 PREXC          *18
 41000000 000000000521 PRFR           *18        77
 40000000 000000000521 PRFR2          *18
 41000000 000000000000 PRIV           *18        53        84
 40000000 000000000526 PROPA          *18
 40000000 000000000517 PRRC           *18
 40000000 000000000517 PRRS           *18
 40000000 000000000520 PRSC           *18
 40000000 000000000516 PRSS           *18
 40000000 000000000644 PRSTS          *18
 01101000 000000000102 PRVE1           86      *130
 01101000 000000000102 PRVE2           55      *131
 40000000 000000000100 PS             *18
 41000000 000000000000 PS0SID         *16
 41000000 000000000001 PS1SID         *16
 41000000 000000000002 PS2SID         *16
 41000000 000000000003 PS3SID         *16
 41000000 000000000004 PS4SID         *16
 40000000 000000000005 PS5SID         *16
 40000000 000000000006 PS6SID         *16
 40000000 000000303416 PSA            *18
 40000000 000000000020 PSC            *18
 40000000 000000000010 PSD            *18
 40000000 000000000004 PSF            *18
 40000000 000000000400 PSO            *18
 40000000 000000000720 PTESZ          *18
 40000000 000000000631 PTR            *18
 40000000 000000000724 PTRESZ         *18
 12:45 09/05/97  FILE=ZIM$DBGF.:ZIC0TSI       SYMBOL TABLE                                               28   BMAP - B00
 40000000 000000000710 PTRNO          *18
 41000000 000000000630 PWS            *18
 40000000 000000000002 RADDR          *18
 40000000 000000000010 RADIX          *18
 40000000 000000000005 RAPTR          *18
 40000000 000000000004 RAWSOF         *18
 40000000 777777777766 RBA            *18
 40000000 000000023432 RCBI           *18
 40000000 000000211234 RCDNL          *18
 41000000 000000000005 RCFRH          *18        75
 40000000 000000000004 RCFRN          *18
 40000000 000000001075 RCHD           *18
 40000000 000000000001 RCID           *18
 40000000 000000000006 RCPTR          *18
 40000000 000000000002 RCRAH          *18
 40000000 000000000001 RCRAN          *18
 40000000 000000000003 RCRSH          *18
 40000000 000000000002 RCRSN          *18
 40000000 000000210667 RCVER1         *18
 40000000 000000210670 RCVER2         *18
 40000000 000000210671 RCVER4         *18
 40000000 000000210672 RCVER5         *18
 40000000 000000210673 RCVER6         *18
 40000000 000000000736 RCW1           *18
 40000000 000000000737 RCW2           *18
 41000000 000000000004 RCWSO          *18        52
 40000000 000000000077 RDAC           *18
 40000000 000000000076 RDCNT          *18
 40000000 000000040000 RDI            *18
 40000000 000000015674 RDLT           *18
 40000000 000000000075 RDYCW          *18
 40000000 000000000066 RECAC          *18
 40000000 000000000065 RECFR          *18
 40000000 000000000070 RECRC          *18
 40000000 000000000067 RECSC          *18
 40000000 000000000003 RECSZ          *18
 40000000 000000000235 REMLT          *18
 12:45 09/05/97  FILE=ZIM$DBGF.:ZIC0TSI       SYMBOL TABLE                                               29   BMAP - B00
 40000000 000000000062 REM_RECOVER    *18
 41000000 000000000251 RETFR          *18        94       141
 40000000 000000210724 RFDNL          *18
 40000000 000000017644 RIM            *18
 40000000 000000000005 RNAM           *18
 40000000 000000015706 RNDLT          *18
 40000000 000000000662 RNG1           *18
 40000000 000000000664 RNG2           *18
 40000000 000000000073 RNGD           *18
 40000000 000000000072 RNGO           *18
 40000000 000000000660 RNGTAL         *18
 40000000 000000020154 RNM            *18
 40000000 000000000041 ROCUR          *18
 40000000 000000000001 ROFST          *18
 40000000 000000002114 ROLL           *18
 40000000 000000020010 RPM            *18
 40000000 000000000001 RSCDH          *18
 40000000 000000000001 RSCDN          *18
 40000000 000000211710 RSDNL          *18
 40000000 000000004540 RSEE           *18
 40000000 000000000003 RSIZ           *18
 40000000 000000000110 RSPAM          *18
 40000000 000000000004 RSPTR          *18
 40000000 000000000037 RSREQ          *18
 40000000 000000000002 RSSSH          *18
 40000000 000000000001 RSSSN          *18
 40000000 000000210574 RSZER          *18
 40000000 000000000632 RSZTP          *18
 40000000 000000000003 RTP            *18
 40000000 000000000003 RTYP           *18
 40000000 000000000530 RV1            *18
 40000000 000000000550 RV2            *18
 40000000 000000000570 RV3            *18
 40000000 000000000610 RV4            *18
 41000000 000000000003 RVASID         *16        62
 41000000 000000000510 RVI            *18       100       102       120       126
 41000000 000000000511 RVO            *18       101
 12:45 09/05/97  FILE=ZIM$DBGF.:ZIC0TSI       SYMBOL TABLE                                               30   BMAP - B00
 40000000 000000000513 RVPA           *18
 40000000 000000000512 RVT            *18
 40000000 000000000022 RVTAL          *18
 40000000 000000000002 RWSZ           *18
 40000000 000000000015 RY             *18
 40000000 000000210620 RYE1           *18
 40000000 000000210621 RYE4           *18
 40000000 777777777767 SA             *18
 40000000 000000000005 SANAM          *18
 40000000 000000001062 SCDES          *18
 40000000 000000211544 SCDNL          *18
 40000000 000000000024 SCFC           *18
 40000000 000000000002 SCID           *18
 40000000 000000000024 SCLST          *18
 40000000 000000000004 SCNAM          *18
 40000000 000000000004 SCPTR          *18
 40000000 000000000003 SCRSH          *18
 40000000 000000000002 SCRSN          *18
 40000000 000000000001 SCWSO          *18
 40000000 000000001225 SFWS           *18
 40000000 000000001073 SIZCHG         *18
 40000000 000000000645 SKFLG          *18
 40000000 000000000643 SKIND          *18
 40000000 000000000641 SKTYP          *18
 40000000 000000020464 SMCR           *18
 40000000 000000000003 SNAM           *18
 40000000 000000000107 SNIND          *18
 40000000 000000000735 SNPAE          *18
 40000000 000000001046 SNSI           *18
 40000000 000000000743 SOE            *18
 40000000 000000020630 SORSA          *18
 40000000 000000004374 SOSE           *18
 40000000 000000000000 SPAV           *18
 40000000 000000000744 SPCAVN         *18
 40000000 000000000744 SPCAVO         *18
 40000000 000000000765 SPLF           *18
 41000000 000000000765 SPND           *18
 12:45 09/05/97  FILE=ZIM$DBGF.:ZIC0TSI       SYMBOL TABLE                                               31   BMAP - B00
 40000000 000000000006 SSDT           *18
 40000000 000000303243 SSER           *18
 40000000 000000303244 SSER1          *18
 40000000 000000000002 SSH            *18
 40000000 000000000005 SSNAM          *18
 40000000 000000210573 SSNF           *18
 40000000 000000210576 SSNV           *18
 40000000 000000000020 SSSPTR         *18
 40000000 000000000010 SSVDT          *18
 40000000 000000000033 SSZTP          *18
 40000000 000000000017 ST             *18
 40000000 000000000104 STBIN          *18
 40000000 000000000105 STDEC          *18
 40000000 000000303302 STE1           *18
 40000000 000000303303 STE2           *18
 40000000 000000210624 STE3           *18
 40000000 000000303305 STE4           *18
 40000000 000000303306 STE5           *18
 00101000 000000000114 STER1         *146
 41000000 000000000100 STKSIZ         *18
 40000000 000000000055 STMASK         *18
 40000000 000000000062 SUST           *18
 41000000 000000000020 SWS            *18
 40000000 000000000000 SWSAC          *18
 40000000 000000000002 SWSZ           *18
 40000000 000000000000 SYSSF          *18
 40000000 000000000765 SZREQ          *18
 40000000 000000000004 TBUF           *18
 40000000 000000001061 TCTRS          *18
 60000000 000000000000 TDS            *18
 41000000 000000000113 TEMP           *18
 40000000 000000000640 TFLD           *18
 40000000 000000000657 TFLD2          *18
 40000000 000000000056 TMASK          *18
 40000000 000000000061 TMODE          *18
 40000000 000000000676 TMPPA          *18
 40000000 000000000003 TPAI           *18
 12:45 09/05/97  FILE=ZIM$DBGF.:ZIC0TSI       SYMBOL TABLE                                               32   BMAP - B00
 40000000 000000500000 TPRCOD         *18
 40000000 000000001031 TSFN           *18
 40000000 000000000021 TSI            *18
 40000000 000000001013 UBRD2          *18
 41000000 000000001223 UBSZ           *18
 40000000 000000000667 UCADR          *18
 40000000 000000000036 UCRS           *18
 40000000 000000000024 UFSPK          *18
 40000000 000000000024 UFSPK2         *18
 40000000 000000000715 ULIM           *18
 40000000 000000004230 UNA            *18
 40000000 000000303417 UNIM           *18
 40000000 000000000002 UOFST          *18
 40000000 000000001035 UPACD          *18
 40000000 000000000721 UPACW          *18
 40000000 000000000007 UPFLAG         *18
 40000000 000000000103 UPPAI          *18
 40000000 000000000004 UPTSID         *16
 40000000 000000000674 USTAT          *18
 40000000 000000000002 UWASID         *16
 40000000 000000000002 UWSSZ          *18
 40000000 000000000020 UWSZ           *18
 40000000 000000000243 VFDSC          *18
 40000000 000000001070 VFDSR          *18
 40000000 000000000656 VFLD           *18
 40000000 000000001074 VFLNG          *18
 40000000 000000001124 VIB1           *18
 40000000 000000001154 VIBP           *18
 41000000 000000000000 VLPSID         *16        61
 40000000 000000001074 VRSIZ          *18
 40000000 000000001067 WLOA           *18
 40000000 000000100000 WRTI           *18
 40000000 000000000000 WSBID          *18
 40000000 000000000003 WSOF           *18
 41000000 000000000000 X0             *16       113       121       127       133       138
 41000000 000000000001 X1             *16        49        52        53        54        63        64
                                       68        69        71        72        79        80        83
 12:45 09/05/97  FILE=ZIM$DBGF.:ZIC0TSI       SYMBOL TABLE                                               33   BMAP - B00
                                       84        85        88
 40000000 000000000002 X2             *16
 41000000 000000000003 X3             *16       120       126
 41000000 000000000004 X4             *16        66        67        77        94       141
 40000000 000000000005 X5             *16
 41000000 000000000006 X6             *16       114       122       128       134       139
 03201003 000000000000 X66_ARET       *16       106
 03201002 000000000000 X66_AUTO_0     *16        45
 41000000 000000000007 X7             *16        51        60        75       115       140
 40000000 000000210665 XASL           *18
 40000000 000000303420 XLD            *18
 40000000 000000303421 XPD            *18
 40000000 000000000676 XPRS           *18
 40000000 000000210666 XROLL          *18
 40000000 000000210664 XUNEX          *18
 40000000 777777777777 XXDPN          *18
 03201004 000000000000 ZIB$DBALT     *157
 12101000 000000000000 ZIG$DBGTF       11       *44
 03201000 000000000000 ZIG$DBPCR      *13        49
 03201001 000000000000 ZIG$DBPMT      *14        88

     939 SYMBOLS

 12:45 09/05/97  FILE=ZIM$DBGF.:ZIC0TSI       MACRO TABLE                                                34   BMAP - B00
 CBSYM           18
 DBALT          157
 DBCAL           49        88
 DBRET          106
 DBSAV           45
 Q2SYM           18
 SSSYM           18

      37 MACROS

    SYMBOL SPACE USED  8910 WORDS
     MACRO SPACE USED 13043 WORDS
   INPUT RECORDS READ  2118
 STATEMENTS PROCESSED  2035
         ELAPSED TIME  0:09.68
             CPU TIME     9.34 SEC.
        ASSEMBLY RATE 13073 STATEMENTS/CPU MIN.

      NO ERRORS

