
 12:45 09/05/97  FILE=ZIM$DBGT.:ZIC0TSI                                                                  1    BMAP - B00
                                         1  *M*      ZIG$DBGT
                                         2  *T***********************************************************
                                         3  *T*                                                         *
                                         4  *T* Copyright (c) Bull HN Information Systems Inc., 1997    *
                                         5  *T*                                                         *
                                         6  *T***********************************************************

 12:45 09/05/97  FILE=ZIM$DBGT.:ZIC0TSI       H6600H2.524     IDS/II GET RECORD              780113DBGT  2    BMAP - B00
                                         7         TTL     H6600H2.524     IDS/II GET RECORD              780113DBGT
                                         8         CPR     1974
                                         9         PMC     OFF
                                        10  *
                                        11         ENTDEF  ZIG$DBGET
                                        12  *
                                        13         ENTREF  ZIG$DBPCR
                                        14         ENTREF  ZIG$DBPMT
                                        15  *
                                        16         LODM    Q2MA
                                        17  *
                                        18         Q2SYM

 12:45 09/05/97  FILE=ZIM$DBGT.:ZIC0TSI       IDS-II  GET ROUTINE                                        3    BMAP - B00
                                        19         TTLS    IDS-II  GET ROUTINE
                                        20  ****************************************************************
                                        21  *
                                        22  *  - DBGET -
                                        23  *
                                        24  *      GET.  Get Record. This function moves all of the fields
                                        25  *      of the current of run to the UWA.
                                        26  *
                                        27  *      Parameter   Description
                                        28  *      ---------   -----------
                                        29  *
                                        30  *          0       IA
                                        31  *          1       UWA
                                        32  *          2       FPT
                                        33  *
                                        34  *      FPT Format...
                                        35  *
                                        36  *      Word 0:  RVA offset to a schema subset element which
                                        37  *          describes a data base record.  This argument will
                                        38  *          be zero if no record type is specified.
                                        39  *
                                        40  ****************************************************************
                                        41  *
 0 000000                               42  ZIG$DBGET NULL
   000000  X 000000 7000 00             43           DBSAV
   000001    000004 000000
                                        44  *  GET CURRENT OF RUN
   000002  X 000000 7010 00             45           DBCAL    ZIG$DBPCR,,PGER1     Get curr of run
   000003 (0)000114 7020 00
   000004    5 00006 2341 00
   000005    777776 6010 04
                                        46  *  INIT EXCEPT. CODE
   000006    7 00064 4501 00            47         STZ     EXCCD,,PR7
                                        48  *  CHECK ARGUMENTS
   000007    000000 4704 07             49         LDP    PR0,VLPSID,DL            VLP$
   000010    000003 4714 07             50           LDP      PR1,RVASID,DL           RVA$
   000011    0 00000 2271 00            51         LDX     X7,0,,PR0            Get offset to RC pointer from FPT
 12:45 09/05/97  FILE=ZIM$DBGT.:ZIC0TSI       IDS-II  GET ROUTINE                                        4    BMAP - B00
   000012    1 00000 2271 17            52           LDX      X7,,X7,PR1           Get RC offset from RVA
   000013 (0)000021 6000 00             53         TZE     NRC1
                                        54         IFE     A,1,%CK1
   000014    6 00000 2211 17            55         LDX     X1,DEF,X7,PR6   GET DEF TYPE
   000015    100000 3010 03             56         CANX    X1,.RC,DU       IS IT AN RC
   000016 (0)000062 6000 00             57         TZE     CALE7           NO - ERROR
                                        58  CK1    MARK
   000017    7 01224 1071 00            59         CMPX    X7,CRUN+1,,PR7
   000020 (0)000067 6010 00             60         TNZ     CRNC
   000021                               61  NRC1   NULL
                                        62  *  CHECK REC PRIVACY
   000021    7 01224 2271 00            63         LDX     X7,CRUN+1,,PR7  GET RC
   000022    6 00004 2211 17            64         LDX     X1,RCWSO,X7,PR6  GET WORK SPACE OFST
   000023    7 00000 2211 11            65         LDX     X1,PRIV,X1,PR7
   000024    000400 3010 03             66         CANX    X1,PG,DU        IS PRIVACY SATISFIED
   000025 (0)000074 6000 00             67         TZE     PRVE1           NO
                                        68  *  GET AN FR TO MOVE
   000026    7 00521 7471 00            69         STX     X7,PRFR,,PR7    INIT FR PTR WITH RC
   000027                               70  GTL1   NULL
   000027    7 00521 2241 00            71         LDX     X4,PRFR,,PR7    GET CURR FR
   000030    6 00004 7241 14            72         LXL     X4,RCFRN,X4,PR6  GET NEXT FR
   000031 (0)000054 6000 00             73         TZE     GTDN            NO - DONE
   000032    7 00521 7441 00            74         STX     X4,PRFR,,PR7    SAVE NEXT FR AS CURR
   000033    6 00000 7211 14            75         LXL     X1,DEF,X4,PR6
   000034    004100 3010 03             76         CANX    X1,.SYN+.FSR,DU  IS THIS FIELD IN UWA
   000035 (0)000027 6010 00             77         TNZ     GTL1            NO - GO TO NEXT
                                        78  *  CHECK FIELD PRIVACY
   000036    6 00005 7211 14            79         LXL     X1,FRWSO,X4,PR6
   000037    7 00000 2211 11            80         LDX     X1,PRIV,X1,PR7
   000040    000400 3010 03             81         CANX    X1,PFG,DU       IS PRIVACY SATISFIED
   000041 (0)000100 6000 00             82         TZE     PRVE2           NO - ERROR
                                        83  *  MOVE THE FIELD
   000042  X 000000 7010 00             84         DBCAL   ZIG$DBPMT,,MVER2
   000043 (0)000047 7020 00
   000044    5 00006 2341 00
   000045    777776 6010 04
   000046 (0)000027 7100 00             85         TRA     GTL1            NORMAL RETURN - GO TO NEXT FR
 12:45 09/05/97  FILE=ZIM$DBGT.:ZIC0TSI       IDS-II  GET ROUTINE                                        5    BMAP - B00
   000047                               86  MVER2  NULL                    ERROR - CHECK FOR INVALID DATA STATUS
   000047    012120 1150 07             87         CMPA    IDI,DL          IS IT INVALID DATA ERROR
   000050 (0)000114 6010 00             88         TNZ     MVER1           NO - STOP NOW
   000051    7 00064 7551 00            89         STA     EXCCD,,PR7      YES - SAVE
   000052    7 00251 7441 00            90         STX     X4,RETFR,,PR7   SAVE FR PTR
   000053 (0)000027 7100 00             91         TRA     GTL1            GO TO NEXT FIELD
                                        92  *  DONE - SEE IF THERE WERE ANY ERRORS
   000054                               93  GTDN   NULL
   000054    7 00064 2341 00            94         SZN     EXCCD,,PR7      WERE THERE ERRORS
   000055 (0)000105 6010 00             95         TNZ     MVER3           YES
                                        96  *  PUT CURR OF RUN BACK IN REC VAR OUT
   000056    7 00510 2371 00            97         LDAQ    RVI,,PR7        * REVERSE
   000057    7 00511 7551 00            98         STA     RVO,,PR7        *  IN & OUT
   000060    7 00510 7561 00            99         STQ     RVI,,PR7        *
                                       100  *  RETURN
   000061  X 000000 7020 00            101           DBRET
                                       102  *
                                       103  *  ERRORS DETECTED IN THIS ROUTINE
                                       104  *
                                       105         IFE     A,1,%CK1
   000062                              106  CALE7  NULL                    CALLING ARG ERROR
   000062    210562 2350 07            107         LDA     ARGER,DL
   000063    000000 6200 00            108         EAX     X0,0            NULL AC
   000064    000000 6260 00            109         EAX     X6,0            NULL SC
   000065    000000 6270 00            110         EAX     X7,0            NULL RC
   000066 (0)000115 7100 00            111         TRA     GRR1
                                       112  CK1    MARK
   000067                              113  CRNC   NULL                    TYPE SPECIFIED NOT CURR OF RUN
   000067    006344 2350 07            114         LDA     CRIT,DL
   000070    000000 6200 00            115         EAX     X0,0            NULL AC
   000071    000000 6260 00            116         EAX     X6,0            NULL SC
   000072    7 01224 2271 00           117         LDX     X7,CRUN+1,,PR7  GET  RC
   000073 (0)000115 7100 00            118         TRA     GRR1
   000074                              119  PRVE1  NULL                    PRIVACY NOT SATISFIED
   000074    257764 2350 07            120         LDA     LR,DL
   000075    000000 6200 00            121         EAX     X0,0            NULL AC
   000076    000000 6260 00            122         EAX     X6,0            NULL SC
 12:45 09/05/97  FILE=ZIM$DBGT.:ZIC0TSI       IDS-II  GET ROUTINE                                        6    BMAP - B00
   000077    000016 7100 04            123         TRA     GRR1,$
   000100                              124  PRVE2  NULL                    PRIVACY NOT SATISFIED
   000100    257764 2350 07            125         LDA     LR,DL
   000101    000000 6200 00            126         EAX     X0,0            NULL AC
   000102    000000 6260 00            127         EAX     X6,0            NULL SC
   000103    7 01224 2271 00           128         LDX     X7,CRUN+1,,PR7  GET RC
   000104 (0)000115 7100 00            129         TRA     GRR1
   000105                              130  MVER3  NULL
   000105    7 00064 2351 00           131         LDA     EXCCD,,PR7
   000106    000000 6200 00            132         EAX     X0,0            NULL AC
   000107    000000 6260 00            133         EAX     X6,0            NULL SC
   000110    7 01224 2271 00           134         LDX     X7,CRUN+1,,PR7  GET RC
   000111    7 00251 2241 00           135         LDX     X4,RETFR,,PR7   GET SAVED FR PTR
   000112 (0)000115 7100 00            136         TRA     GRR1
                                       137  *
                                       138  *  ERRORS DETECTED IN SUBORDINATE ROUTINES
                                       139  *
   000113                              140  STER1  NULL                    ERROR ACCUMULATING STATISTICS
   000113 (0)000115 7100 00            141         TRA     GRR1
                                       142  *
                                       143  *  ERRORS DETECTED IN PRIMITIVES
                                       144  *
   000114                              145  PGER1  NULL                    PAGE ERROR - FIND CURR OF RUN
   000114                              146  MVER1  NULL                    MOVE ERROR
   000114 (0)000115 7100 00            147         TRA     GRR1
                                       148  *
                                       149  *  COMMON ERROR RETURN
                                       150  *
   000115  X 000000 7020 00            151  GRR1     DBALT
                                       152         END

  CONTROL SECTION TABLE

   0 CODE   EVEN  000116
   1 RODATA EVEN  000000 LITERALS

 12:45 09/05/97  FILE=ZIM$DBGT.:ZIC0TSI       SYMBOL TABLE                                               7    BMAP - B00
 40000000 000000200000 .AC            *18
 40000000 000000000100 .AG            *18
 40000000 000000002000 .ALTO          *18
 40000000 000000000077 .ANL           *18
 40000000 000000200000 .APDN          *18
 40000000 000000000100 .ATMP          *18
 40000000 000000400000 .AV            *18
 40000000 000000400000 .B0            *18
 40000000 000000200000 .B1            *18
 40000000 000000000200 .B10           *18
 40000000 000000000100 .B11           *18
 40000000 000000000040 .B12           *18
 40000000 000000000020 .B13           *18
 40000000 000000000010 .B14           *18
 40000000 000000000004 .B15           *18
 40000000 000000000002 .B16           *18
 40000000 000000000001 .B17           *18
 40000000 000000400000 .B18           *18
 40000000 000000200000 .B19           *18
 40000000 000000100000 .B2            *18
 40000000 000000100000 .B20           *18
 40000000 000000040000 .B21           *18
 40000000 000000020000 .B22           *18
 40000000 000000010000 .B23           *18
 40000000 000000004000 .B24           *18
 40000000 000000002000 .B25           *18
 40000000 000000001000 .B26           *18
 40000000 000000000400 .B27           *18
 40000000 000000000200 .B28           *18
 40000000 000000000100 .B29           *18
 40000000 000000040000 .B3            *18
 40000000 000000000040 .B30           *18
 40000000 000000000020 .B31           *18
 40000000 000000000010 .B32           *18
 40000000 000000000004 .B33           *18
 40000000 000000000002 .B34           *18
 40000000 000000000001 .B35           *18
 12:45 09/05/97  FILE=ZIM$DBGT.:ZIC0TSI       SYMBOL TABLE                                               8    BMAP - B00
 40000000 000000020000 .B4            *18
 40000000 000000010000 .B5            *18
 40000000 000000004000 .B6            *18
 40000000 000000002000 .B7            *18
 40000000 000000001000 .B8            *18
 40000000 000000000400 .B9            *18
 40000000 000000000001 .BREAK         *18
 40000000 000000010000 .BRK           *18
 40000000 000000020000 .BTB           *18
 40000000 000000000001 .CAC           *18
 40000000 000000000000 .CAE           *18
 40000000 000000000200 .CANSSS        *18
 40000000 000000000400 .CD            *18
 40000000 000000040000 .CFLC          *18
 40000000 000000400000 .CHKSUM        *18
 40000000 000000100000 .CJRNL         *18
 40000000 000000000077 .CNSZ          *18
 40000000 000000160000 .COMC          *18
 40000000 000000000020 .CONT          *18
 40000000 000000000000 .CSE           *18
 40000000 000000700000 .CTYP          *18
 41000000 000000000270 .DBEST         *18
 41000000 000000000470 .DBIC          *18
 40000000 000000077777 .DBPT          *18
 41000000 000000000370 .DBSTK         *18
 40000000 000000020000 .DELM          *18
 40000000 000000002000 .DIDP          *18
 40000000 000000000077 .DNDX          *18
 40000000 000000600000 .DORD          *18
 40000000 000000000200 .DP            *18
 40000000 000000100000 .DPS           *18
 40000000 000000200000 .DPSA          *18
 40000000 000000400000 .DPST          *18
 40000000 000000000002 .DUMP          *18
 40000000 000000002000 .DUPC          *18
 40000000 000000010000 .DUPP          *18
 40000000 000000200000 .EBCL          *18
 12:45 09/05/97  FILE=ZIM$DBGT.:ZIC0TSI       SYMBOL TABLE                                               9    BMAP - B00
 40000000 000000400000 .EBCM          *18
 40000000 000000200000 .ENCRP         *18
 40000000 000000000077 .ENDX          *18
 40000000 000000000400 .ENQ           *18
 40000000 000000004000 .ETC           *18
 40000000 000000000400 .EXIT          *18
 40000000 000000000200 .FMOD          *18
 40000000 000000000077 .FNL           *18
 40000000 000000000074 .FORG          *18
 40000000 000000002000 .FR            *18
 41000000 000000000100 .FSR           *18        76
 40000000 000000003400 .FUSE          *18
 40000000 000000010000 .FVF           *18
 40000000 000000040000 .FVR           *18
 40000000 000000000010 .INDEXED       *18
 40000000 000000777777 .IXID          *18
 40000000 000000001777 .IXNUM         *18
 40000000 000000000004 .KEYED         *18
 40000000 000000010000 .LCK           *18
 40000000 000000400000 .LEIL          *18
 40000000 000000001000 .LG            *18
 40000000 000000000002 .LOAD          *18
 40000000 000000020000 .MAR           *18
 40000000 000000000007 .MEMT          *18
 40000000 000000010000 .MRL           *18
 40000000 000000040000 .MSM           *18
 60000000 000000000001 .N6685         *18
 40000000 000000100000 .NAI           *18
 40000000 000000200000 .NBI           *18
 40000000 000000000002 .NCIA          *18
 40000000 000000040000 .NMV           *18
 40000000 000000017777 .NOENT         *18
 40000000 000000400000 .OA            *18
 40000000 000000740000 .OPEV          *18
 40000000 000000100000 .OSM           *18
 40000000 000000100000 .PAFIL         *18
 40000000 000000200000 .PAHVR         *18
 12:45 09/05/97  FILE=ZIM$DBGT.:ZIC0TSI       SYMBOL TABLE                                               10   BMAP - B00
 40000000 000000000001 .PAIA          *18
 40000000 000000040000 .PALIL         *18
 40000000 000000020000 .PALVR         *18
 40000000 000000400000 .PANLL         *18
 40000000 000000400000 .PCKD          *18
 40000000 000000001600 .PMOD          *18
 40000000 000000000520 .PRCSE         *18
 40000000 000000000007 .PSTO          *18
 40000000 000000006040 .PTAS          *18
 40000000 000000010100 .PTCHK         *18
 40000000 000000010200 .PTDEC         *18
 40000000 000000010140 .PTENC         *18
 40000000 000000020000 .RA            *18
 41000000 000000100000 .RC            *18        56
 40000000 000000400000 .RELEASE       *18
 40000000 000000000017 .RELT          *18
 40000000 000000004000 .RERA          *18
 40000000 000000400000 .RERS          *18
 40000000 000000010000 .RKEY          *18
 40000000 000000000077 .RNL           *18
 40000000 000000200000 .RSTO          *18
 40000000 000000007777 .RTYP          *18
 40000000 000000040000 .SC            *18
 40000000 000000000070 .SETM          *18
 40000000 000000740000 .SETO          *18
 40000000 000000000700 .SETT          *18
 40000000 000000040000 .SFNP          *18
 40000000 000000004000 .SM            *18
 40000000 000000020000 .SMOD          *18
 40000000 000000000077 .SNL           *18
 40000000 000000020000 .SNSS          *18
 40000000 000000010000 .SO            *18
 40000000 000000100000 .SR            *18
 40000000 000000004000 .SRCR          *18
 40000000 000000001000 .SS            *18
 40000000 000000000007 .SSTP          *18
 41000000 000000004000 .SYN           *18        76
 12:45 09/05/97  FILE=ZIM$DBGT.:ZIC0TSI       SYMBOL TABLE                                               11   BMAP - B00
 40000000 000000000040 .SYNC          *18
 40000000 000000020000 .TJRNL         *18
 40000000 000000040000 .TMPLT         *18
 40000000 000000040000 .TRACE         *18
 40000000 000000000001 .TRENTRY       *18
 40000000 000000000012 .TRIDEL        *18
 40000000 000000000021 .TRIDELENQ     *18
 40000000 000000000024 .TRIDEQ        *18
 40000000 000000000013 .TRIMOD        *18
 40000000 000000000022 .TRIMODENQ     *18
 40000000 000000000014 .TRIREAD       *18
 40000000 000000000023 .TRIREADENQ    *18
 40000000 000000000011 .TRISTO        *18
 40000000 000000000020 .TRISTOENQ     *18
 40000000 000000000017 .TRPDEQ        *18
 40000000 000000000004 .TRPMOD        *18
 40000000 000000000016 .TRPMODENQ     *18
 40000000 000000000002 .TRPREAD       *18
 40000000 000000000015 .TRPREADENQ    *18
 40000000 000000000003 .TRPWRITE      *18
 40000000 000000000010 .TRRACC        *18
 40000000 000000000006 .TRRDEL        *18
 40000000 000000000007 .TRRMOD        *18
 40000000 000000000005 .TRRSTO        *18
 40000000 000000004000 .ULCK          *18
 40000000 000000400000 .UPDT          *18
 40000000 000000000040 .VIA           *18
 61000000 000000000001 A              *18        54       105
 40000000 000000000002 ABAS           *18
 40000000 000000000001 AC             *18
 40000000 777777777760 ACDEF          *18
 40000000 000000211070 ACDNL          *18
 40000000 000000000003 ACID           *18
 40000000 000000001016 ACOPN          *18
 40000000 000000000002 ACP            *18
 40000000 000000000005 ACPTR          *18
 40000000 000000000002 ACRAH          *18
 12:45 09/05/97  FILE=ZIM$DBGT.:ZIC0TSI       SYMBOL TABLE                                               12   BMAP - B00
 40000000 000000000001 ACRAN          *18
 40000000 000000001003 ACREC          *18
 40000000 000000000001 ACTDBCB        *18
 40000000 000000000002 ACTDBNO        *18
 40000000 000000001017 ACTP           *18
 40000000 000000000000 ACTSSS         *18
 40000000 000000000000 ACTSZ          *18
 40000000 000000210565 AFNP           *18
 40000000 000000000635 AFT            *18
 40000000 000000022124 AIR            *18
 40000000 000000000016 AMAX           *18
 40000000 000000000026 ANAM           *18
 40000000 000000021614 ANR            *18
 40000000 000000000001 APNO           *18
 41000000 000000210562 ARGER          *18       107
 41000000 000000000020 ARGS           *18
 40000000 000000000077 ARGS2          *18
 40000000 000000210713 ARNAF          *18
 40000000 000000000003 ATBL           *18
 40000000 000000000000 ATRIB          *18
 40000000 000000000002 AVLN           *18
 40000000 000000000013 AWS$           *18
 40000000 000000000010 AWSZ           *18
 60000000 000000000001 B              *18
 40000000 000000001006 B32N           *18
 40000000 000000001007 B36N           *18
 40000000 000000001056 B72N           *18
 40000000 000000000001 BADDR          *18
 40000000 000000210712 BADSEED        *18
 40000000 777777777765 BDCW           *18
 40000000 000000000633 BEF            *18
 40000000 000000020000 BEFW           *18
 40000000 000000000751 BEMT           *18
 40000000 777777777761 BID            *18
 40000000 777777777762 BIND           *18
 40000000 000000000007 BLKD           *18
 40000000 000000303331 BME02          *18
 12:45 09/05/97  FILE=ZIM$DBGT.:ZIC0TSI       SYMBOL TABLE                                               13   BMAP - B00
 41000000 000000001203 BMPB           *18
 40000000 000000000652 BN1            *18
 40000000 000000000654 BN2            *18
 40000000 000000000004 BPL            *18
 40000000 000000000015 BPLDBK         *18
 40000000 000000000034 BSPG           *18
 40000000 777777777763 BSTAT          *18
 40000000 000000000750 BTX0           *18
 41000000 000000001160 BUF4           *18
 41000000 000000001170 BUF6           *18
 41000000 000000000000 BUFORG         *18
 40000000 000000001060 BUFRQ          *18
 40000000 000000000006 BURRID         *18
 41000000 000000000020 BWASZ          *18
 60000000 000000000001 C              *18
 40000000 000000000050 CAAC           *18
 40000000 000000000050 CACD           *18
 40000000 000000000111 CAG            *18
 40000000 000000001033 CAL            *18
 01101000 000000000062 CALE7           57      *106
 40000000 000000000026 CALLPM0        *18
 40000000 000000000003 CANSSS         *18
 40000000 000000000003 CBCPA          *18
 40000000 000000000002 CBCPO          *18
 40000000 000000000002 CBENO          *18
 40000000 000000000014 CBFSZ          *18
 40000000 000000000753 CBIB           *18
 40000000 000000001030 CBID           *18
 40000000 000000000014 CBRCE          *18
 40000000 000000000014 CBRCP          *18
 40000000 000000001033 CBRID          *18
 40000000 000000000015 CBRPA          *18
 40000000 000000000031 CCHAR          *18
 40000000 000000000040 CDBK           *18
 40000000 000000000030 CDES           *18
 40000000 000000000110 CDP            *18
 40000000 000000001044 CDPSI          *18
 12:45 09/05/97  FILE=ZIM$DBGT.:ZIC0TSI       SYMBOL TABLE                                               14   BMAP - B00
 40000000 000000000002 CDRH           *18
 40000000 000000000003 CDRN           *18
 40000000 000000000002 CDSH           *18
 40000000 000000000003 CDSN           *18
 40000000 000000000722 CENTRN         *18
 40000000 000000000722 CENTRO         *18
 40000000 000000000716 CENTRY         *18
 41000000 000000001053 CFCT           *18
 40000000 000000000670 CFLPT1         *18
 40000000 000000000672 CFLPT2         *18
 40000000 000000000015 CFSA           *18
 40000000 000000000646 CHDBK          *18
 40000000 000000000773 CHR            *18
 40000000 000000000006 CHRD           *18
 40000000 000000000772 CHRO           *18
 40000000 000000007640 CHRTP          *18
 40000000 000000001043 CIAC           *18
 40000000 000000000012 CIAWS          *18
 40000000 000000001051 CIBSI          *18
 40000000 000000000516 CIND           *18
 40000000 000000001041 CINVSZ         *18
 40000000 000000001042 CIPG           *18
 40000000 000000001050 CIPSI          *18
 40000000 000000000000 CIRUN          *18
 40000000 000000000002 CIRWS          *18
 40000000 000000000002 CISWS          *18
 40000000 000000000014 CIWSOF         *18
 40000000 000000303374 CKSM           *18
 40000000 000000000022 CLCN           *18
 40000000 000000000023 CLCP           *18
 40000000 000000000003 CLCRC          *18
 40000000 000000000003 CLCSC          *18
 40000000 000000000237 CLI            *18
 40000000 000000000026 CLNG           *18
 40000000 000000000052 CMPL           *18
 40000000 000000000002 CN             *18
 40000000 000000303315 CNE1           *18
 12:45 09/05/97  FILE=ZIM$DBGT.:ZIC0TSI       SYMBOL TABLE                                               15   BMAP - B00
 40000000 000000006034 CNUL           *18
 40000000 000000100000 COB74          *18
 40000000 000000000001 COFS           *18
 40000000 000000000045 CONCD          *18
 40000000 000000007764 CP6PGSZB       *18
 41000000 000000001775 CP6PGSZW       *18
 40000000 000000001000 CPGR           *18
 40000000 000000000723 CPTRN          *18
 40000000 000000000723 CPTRO          *18
 60000000 000000000004 CPW            *18
 40000000 000000000112 CRA            *18
 40000000 000000001004 CRD            *18
 40000000 000000000764 CREC           *18
 41000000 000000006344 CRIT           *18       114
 01101000 000000000067 CRNC            60      *113
 40000000 000000006200 CRNUL          *18
 40000000 000000007330 CRST           *18
 41000000 000000001223 CRUN           *18        59        63       117       128       134
 41000000 000000000000 CSECT          *18
 40000000 000000000007 CSMPP          *18
 40000000 000000001000 CSPAC          *18
 40000000 000000000004 CSPAH          *18
 40000000 777777777776 CSPES          *18
 40000000 777777777776 CSPSB          *18
 40000000 000000000115 CSTS           *18
 40000000 000000000071 CSUB           *18
 40000000 000000000017 CSZ            *18
 40000000 000000000057 CTMASK         *18
 40000000 000000000774 CTPAI          *18
 40000000 000000000240 CURLN          *18
 40000000 000000000236 CURLT          *18
 40000000 000000000770 CURPG          *18
 40000000 000000000001 CURR           *18
 40000000 000000000035 CURRS          *18
 40000000 000000000037 CURSS          *18
 40000000 000000001005 CWRT           *18
 40000000 000000000237 CWSOF          *18
 12:45 09/05/97  FILE=ZIM$DBGT.:ZIC0TSI       SYMBOL TABLE                                               16   BMAP - B00
 60000000 000000000001 D              *18
 40000000 000000000003 DBAN           *18
 40000000 000000000036 DBDR           *18
 40000000 000000000037 DBFN           *18
 40000000 000000000754 DBK            *18
 40000000 000000000777 DBKAC          *18
 40000000 000000000000 DBKEY          *18
 40000000 000000000000 DBKL           *18
 40000000 000000007474 DBKN           *18
 41000000 000000000776 DBKR           *18
 40000000 000000000777 DBKRQ          *18
 40000000 000000000234 DBKSI          *18
 40000000 000000000651 DBKSR          *18
 40000000 000000000047 DBKYN          *18
 40000000 000000210652 DBLC01         *18
 40000000 000000210653 DBLC05         *18
 40000000 000000303334 DBLC07         *18
 40000000 000000210655 DBLD01         *18
 40000000 000000000010 DBLIM          *18
 40000000 000000000033 DBPKY          *18
 40000000 000000000023 DBRN           *18
 40000000 000000000013 DBSN           *18
 40000000 000000000001 DBST           *18
 40000000 000000000757 DCDSR          *18
 40000000 000000210650 DCE1           *18
 40000000 000000001053 DCPR           *18
 40000000 000000001053 DCPW           *18
 40000000 000000000015 DCTBL          *18
 40000000 000000000032 DDBK           *18
 40000000 000000000006 DDCB           *18
 40000000 000000011754 DDI            *18
 41000000 000000000000 DEF            *18        55        75
 40000000 000000000014 DEF2           *18
 40000000 000000303413 DELAK          *18
 40000000 000000000036 DELRS          *18
 40000000 000000000732 DEPCW          *18
 40000000 000000303414 DLDBK          *18
 12:45 09/05/97  FILE=ZIM$DBGT.:ZIC0TSI       SYMBOL TABLE                                               17   BMAP - B00
 40000000 000000210627 DLE1           *18
 40000000 000000303310 DLE2           *18
 40000000 000000210631 DLE3           *18
 40000000 000000016040 DNES           *18
 40000000 777777777777 DPAGN          *18
 40000000 000000000020 DPPI           *18
 40000000 000000000053 DPSLW          *18
 40000000 000000000003 DS             *18
 40000000 000000001063 DSDES          *18
 40000000 000000303316 DSE1           *18
 40000000 000000000735 DUSEPA         *18
 60000000 000000000001 E              *18
 40000000 000000303251 EDPER          *18
 40000000 000000000026 EEIND          *18
 40000000 000000000713 EFIND          *18
 40000000 000000001030 ELO            *18
 40000000 000000210711 ENCPNA         *18
 40000000 000000000007 ENCRP          *18
 40000000 000000000752 ENDSR          *18
 40000000 000000210647 ENE1           *18
 40000000 000000000716 ENIND          *18
 40000000 000000000013 ENTBL          *18
 40000000 000000000710 ENTNO          *18
 40000000 000000000712 ENTPTR         *18
 40000000 000000000717 ENTSZ          *18
 40000000 000000000711 ENTTYP         *18
 40000000 000000004064 EOSR           *18
 40000000 000000000004 ES             *18
 41000000 000000000100 ESTSZ          *18
 40000000 000000000725 ESZ            *18
 40000000 000000000005 ETCADR         *18
 40000000 000000000005 ETCDBNO        *18
 41000000 000000000064 EXCCD          *18        47        89        94       131
 40000000 000000234534 FALRT          *18
 40000000 000000001055 FBF72          *18
 40000000 000000001025 FBU61          *18
 40000000 000000001020 FBUF           *18
 12:45 09/05/97  FILE=ZIM$DBGT.:ZIC0TSI       SYMBOL TABLE                                               18   BMAP - B00
 40000000 000000001026 FBUF1          *18
 40000000 000000001027 FBUF4          *18
 40000000 000000001024 FBUF6          *18
 40000000 000000001022 FBUFM          *18
 40000000 000000001021 FBUFU          *18
 40000000 000000001023 FBUMD          *18
 40000000 000000000004 FCN            *18
 40000000 000000000051 FCNT           *18
 40000000 000000000002 FCP            *18
 40000000 000000000047 FCSS           *18
 40000000 000000000005 FD             *18
 40000000 000000210637 FDE1           *18
 40000000 000000303320 FDE2           *18
 40000000 000000303321 FDE3           *18
 40000000 000000210642 FDE4           *18
 40000000 000000210643 FDE5           *18
 40000000 000000210644 FDE6           *18
 40000000 000000303325 FDE7           *18
 40000000 000000303326 FDE8           *18
 40000000 000000000021 FEASZ          *18
 40000000 000000000740 FETM           *18
 40000000 000000000006 FI             *18
 40000000 000000000103 FIAC           *18
 41000000 000000001100 FIB1           *18
 41000000 000000001130 FIBP           *18
 40000000 000000000000 FIBX           *18
 40000000 000000000102 FICNT          *18
 40000000 000000000005 FIPN           *18
 40000000 000000000054 FKIND          *18
 40000000 000000000015 FLAGS          *18
 40000000 000000000244 FLDDSC         *18
 40000000 000000000046 FLDTL          *18
 40000000 000000000020 FMSBF          *18
 40000000 000000000006 FNAM           *18
 40000000 000000000250 FNIND          *18
 40000000 000000000004 FNL            *18
 40000000 000000000101 FRAC           *18
 12:45 09/05/97  FILE=ZIM$DBGT.:ZIC0TSI       SYMBOL TABLE                                               19   BMAP - B00
 40000000 000000000002 FRANGE         *18
 40000000 000000211400 FRDNL          *18
 40000000 000000200000 FRTRN          *18
 41000000 000000000005 FRWSO          *18        79
 40000000 000000000767 FSLN           *18
 40000000 000000000766 FSOF           *18
 40000000 000000000060 FTIND          *18
 40000000 000000303240 FTLINCR        *18
 40000000 000000000021 FWSSZ          *18
 40000000 000000000246 GACDK          *18
 40000000 000000000014 GDCB           *18
 41000000 000000000006 GERROR         *18        45        84
 40000000 000000000016 GINHIB         *18
 40000000 000000000020 GIOAWS         *18
 40000000 000000000022 GIOBUF         *18
 40000000 000000000021 GIOPGNO        *18
 40000000 000000000015 GPAGE          *18
 40000000 000000000010 GRETAC         *18
 40000000 000000000011 GRETFR         *18
 40000000 000000000013 GRETRC         *18
 40000000 000000000012 GRETSC         *18
 40000000 000000000025 GRLCW          *18
 01101000 000000000115 GRR1           111       118       123       129       136       141       147
                                     *151
 40000000 000000000014 GSTCD          *18
 40000000 000000000007 GSYSERR        *18
 40000000 000000000010 GT             *18
 01101000 000000000054 GTDN            73       *93
 01101000 000000000027 GTL1           *70        77        85        91
 40000000 000000000046 GTRNAME        *18
 40000000 000000000055 GTRPDCB        *18
 40000000 000000000056 GTRPNO         *18
 40000000 000000000057 GTRRDBK        *18
 40000000 000000000060 GTRRTYPE       *18
 40000000 000000000060 GTRTYPE        *18
 40000000 000000000027 HASH           *18
 40000000 000000000022 HIA            *18
 12:45 09/05/97  FILE=ZIM$DBGT.:ZIC0TSI       SYMBOL TABLE                                               20   BMAP - B00
 40000000 000000000775 HIDB           *18
 40000000 000000000003 HIGHDBK        *18
 40000000 000000000004 HIGHPG         *18
 40000000 000000001037 HIL            *18
 40000000 000000000002 HILN           *18
 40000000 000000000006 HPOS           *18
 40000000 000000000756 IAAC           *18
 40000000 000000001011 IACLN          *18
 40000000 000000001010 IALC           *18
 40000000 000000010314 IAN            *18
 40000000 000000001012 IANLN          *18
 40000000 000000000001 IASID          *16
 40000000 000000020320 ICA            *18
 40000000 000000000023 ICKSMP         *18
 40000000 000000000024 ICKSMV         *18
 40000000 000000210742 ICNR           *18
 41000000 000000000020 ICSIZ          *18
 40000000 000000010004 IDBK           *18
 41000000 000000012120 IDI            *18        87
 40000000 000000000023 IDS            *18
 40000000 000000000011 IF             *18
 40000000 000000000021 IFIPN          *18
 40000000 000000000000 IFR            *18
 40000000 000000234546 IKSEQ          *18
 40000000 000000000113 INAFLAG        *18
 40000000 000000000016 INCHA          *18
 40000000 000000210566 INNM           *18
 40000000 000000210567 INSS           *18
 40000000 000000210575 INSST          *18
 40000000 000000303241 INTER          *18
 40000000 000000400000 INTII          *18
 40000000 000000000013 INTVL          *18
 40000000 000000001060 INVFLG         *18
 40000000 000000001043 INVOF          *18
 40000000 000000000014 INVT           *18
 40000000 000000000034 IOBLK          *18
 40000000 000000303354 IOCLSD         *18
 12:45 09/05/97  FILE=ZIM$DBGT.:ZIC0TSI       SYMBOL TABLE                                               21   BMAP - B00
 40000000 000000303355 IOCLSK         *18
 40000000 000000303257 IOE1           *18
 40000000 000000303264 IOE11          *18
 40000000 000000303265 IOE12          *18
 40000000 000000303266 IOE18          *18
 40000000 000000303260 IOE2           *18
 40000000 000000303261 IOE3           *18
 40000000 000000303262 IOE7           *18
 40000000 000000303263 IOE8           *18
 40000000 000000303363 IOFLSH         *18
 40000000 000000210676 IOGDCB         *18
 40000000 000000001002 IOINC          *18
 40000000 000000305160 IOINI          *18
 40000000 000000305155 IONOTIDS       *18
 40000000 000000305154 IONOTKEY       *18
 40000000 000000210677 IOOPND         *18
 40000000 000000210700 IOOPNK         *18
 40000000 000000303361 IORDD          *18
 40000000 000000305156 IOSCHEMA       *18
 40000000 000000001052 IOSTS          *18
 40000000 000000303362 IOWRTD         *18
 41000000 000000000750 IOWS           *18
 40000000 000000000647 IPC            *18
 40000000 000000000650 IPCF           *18
 40000000 000000000006 IROLLFLAG      *18
 40000000 000000010150 IRSN           *18
 40000000 000000000004 ISYSDCB        *18
 40000000 000000000005 ISYSERR        *18
 40000000 000000000061 ITPTR          *18
 40000000 000000000060 ITRS           *18
 40000000 000000021760 IUM            *18
 40000000 000000000017 IUSZ           *18
 40000000 000000234522 IVDBK          *18
 40000000 000000000011 IXBUF$         *18
 40000000 000000000046 IXFBSZ         *18
 40000000 777777777776 IXID           *18
 40000000 777777777777 IXPLL          *18
 12:45 09/05/97  FILE=ZIM$DBGT.:ZIC0TSI       SYMBOL TABLE                                               22   BMAP - B00
 40000000 000000000523 KCARG0         *18
 40000000 000000000524 KCARG3         *18
 40000000 000000000525 KCARG4         *18
 40000000 000000000700 KCREG          *18
 40000000 000000000006 KDCB           *18
 40000000 000000000666 KEYDS          *18
 40000000 000000000010 KEYPA          *18
 40000000 777777777776 KLNG           *18
 40000000 000000000022 KPASZ          *18
 40000000 000000000006 KWSZ           *18
 40000000 000000000052 LANGC          *18
 40000000 000000001014 LAS            *18
 40000000 000000700000 LCODM          *18
 40000000 000000001045 LDPSI          *18
 40000000 000000001071 LINPT          *18
 40000000 000000001017 LNCNT          *18
 40000000 000000000762 LNNO           *18
 40000000 000000001036 LOL            *18
 40000000 000000000715 LOLIM          *18
 40000000 000000000023 LPASZ          *18
 40000000 000000000012 LPP            *18
 41000000 000000257764 LR             *18       120       125
 40000000 000000301270 LRA            *18
 40000000 000000000017 LRSZ           *18
 40000000 000000001035 LSPC           *18
 40000000 000000000750 LUPD           *18
 61000000 000000000001 M9             *18
 40000000 000000000013 MD             *18
 40000000 000000300000 MDQS           *18
 40000000 000000000730 MEMPTR         *18
 40000000 000000000727 MEMTYP         *18
 40000000 000000000045 MODCD          *18
 41000000 000000001207 MODFL          *18
 40000000 000000000042 MODFR          *18
 40000000 000000000044 MODIN          *18
 40000000 000000000044 MODRS          *18
 40000000 000000000043 MODSC          *18
 12:45 09/05/97  FILE=ZIM$DBGT.:ZIC0TSI       SYMBOL TABLE                                               23   BMAP - B00
 40000000 000000000047 MRBKI          *18
 40000000 000000210632 MRE4           *18
 40000000 000000303313 MRE5           *18
 40000000 000000210634 MRE7           *18
 01101000 000000000114 MVER1           88      *146
 01101000 000000000047 MVER2           84       *86
 01101000 000000000105 MVER3           95      *130
 40000000 000000400000 MW             *18
 40000000 000000000025 NCH            *18
 40000000 000000000002 NCHA           *18
 40000000 000000000005 NCHRS          *18
 40000000 000000000014 NDCD           *18
 40000000 000000000012 NENC           *18
 40000000 000000000634 NEW            *18
 40000000 000000001072 NEWSIZ         *18
 40000000 000000235164 NKA            *18
 40000000 000000235020 NKDB           *18
 40000000 000000303415 NLDBK          *18
 40000000 777777777777 NLIND          *18
 40000000 000000001040 NLN            *18
 40000000 000000400000 NLNSA          *18
 41000000 000000001053 NOBF           *18
 40000000 000000000711 NOPTRS         *18
 40000000 000000000742 NPARCW         *18
 40000000 000000000630 NPIND          *18
 40000000 000000000004 NPOS           *18
 01101000 000000000021 NRC1            53       *61
 40000000 000000234510 NSA            *18
 40000000 000000234654 NSCS           *18
 40000000 000000234344 NSDB           *18
 40000000 000000000001 NSTS           *18
 40000000 000000000726 NUMENT         *18
 40000000 000000000727 NUMPTR         *18
 40000000 777777777760 NXBUF          *18
 40000000 000000000713 NXPRI          *18
 40000000 000000000771 NXTC           *18
 40000000 000000000001 OAACN          *18
 12:45 09/05/97  FILE=ZIM$DBGT.:ZIC0TSI       SYMBOL TABLE                                               24   BMAP - B00
 40000000 000000000022 OACIWSOF       *18
 40000000 000000000001 OAOFST         *18
 40000000 000000000002 OARCN          *18
 40000000 000000000001 OASCN          *18
 40000000 000000000014 OD             *18
 40000000 000000000074 ODBK           *18
 40000000 000000001072 OLDSIZ         *18
 40000000 000000000101 OPADP          *18
 40000000 000000000741 OPARCW         *18
 40000000 000000210570 ORDNI          *18
 40000000 777777777777 OTVL           *18
 40000000 000000000252 OWNPTR         *18
 40000000 000000000016 PABUF          *18
 40000000 000000001041 PACD           *18
 40000000 000000000001 PACW           *18
 40000000 000000000733 PADBK          *18
 40000000 000000000740 PADUP          *18
 40000000 000000000745 PAEN           *18
 40000000 000000000745 PAEO           *18
 40000000 000000000734 PAEOF          *18
 40000000 000000303336 PAER1          *18
 40000000 000000303337 PAER2          *18
 40000000 000000303340 PAER3          *18
 40000000 000000303341 PAER4          *18
 40000000 000000303342 PAER5          *18
 40000000 000000303343 PAER6          *18
 40000000 000000000747 PAESZ          *18
 40000000 000000001060 PAFLG          *18
 40000000 000000000731 PAOPTR         *18
 40000000 000000000734 PAPOF          *18
 40000000 000000000714 PARCW          *18
 40000000 000000000726 PARVPA         *18
 40000000 000000000724 PASPLT         *18
 40000000 000000000004 PAWSZ          *18
 40000000 777777777762 PBUF           *18
 40000000 000000000020 PC             *18
 41000000 000000000510 PCB            *18
 12:45 09/05/97  FILE=ZIM$DBGT.:ZIC0TSI       SYMBOL TABLE                                               25   BMAP - B00
 40000000 000000000642 PCD            *18
 40000000 000000000642 PCD2           *18
 40000000 000000000247 PCEXI          *18
 40000000 000000000675 PCMIN          *18
 40000000 000000004541 PCOMP          *18
 40000000 000000000010 PD             *18
 40000000 000000000040 PE             *18
 40000000 000000000017 PENDING        *18
 40000000 000000000004 PF             *18
 41000000 000000000400 PFG            *18        81
 40000000 000000000200 PFM            *18
 40000000 000000000100 PFS            *18
 41000000 000000000400 PG             *18        66
 01101000 000000000114 PGER1           45      *145
 40000000 000000001064 PGHD           *18
 40000000 000000000006 PGLIM          *18
 40000000 000000000003 PGRNG          *18
 40000000 000000000746 PGSIZE         *18
 40000000 000000000641 PGSPLT         *18
 40000000 000000000100 PKAW           *18
 40000000 000000001034 PLO            *18
 40000000 000000000004 PLSEP          *18
 40000000 000000000200 PM             *18
 40000000 000000001054 PNEOO          *18
 40000000 000000001047 POFSI          *18
 40000000 000000000005 PPOS           *18
 41000000 000000000000 PR0            *16        49        51
 41000000 000000000001 PR1            *16        50        52
 40000000 000000000002 PR2            *16
 40000000 000000000003 PR3            *16
 40000000 000000000004 PR4            *16
 41000000 000000000005 PR5            *16        45        84
 41000000 000000000006 PR6            *16        55        64        72        75        79
 41000000 000000000007 PR7            *16        47        59        63        65        69        71
                                       74        80        89        90        94        97        98
                                       99       117       128       131       134       135
 40000000 000000303267 PRE1           *18
 12:45 09/05/97  FILE=ZIM$DBGT.:ZIC0TSI       SYMBOL TABLE                                               26   BMAP - B00
 40000000 000000303277 PRE10          *18
 40000000 000000303270 PRE3           *18
 40000000 000000303271 PRE4           *18
 40000000 000000303272 PRE5           *18
 40000000 000000210613 PRE6           *18
 40000000 000000210614 PRE7           *18
 40000000 000000210615 PRE8           *18
 40000000 000000303276 PRE9           *18
 40000000 000000000522 PREXC          *18
 41000000 000000000521 PRFR           *18        69        71        74
 40000000 000000000521 PRFR2          *18
 41000000 000000000000 PRIV           *18        65        80
 40000000 000000000526 PROPA          *18
 40000000 000000000517 PRRC           *18
 40000000 000000000517 PRRS           *18
 40000000 000000000520 PRSC           *18
 40000000 000000000516 PRSS           *18
 40000000 000000000644 PRSTS          *18
 01101000 000000000074 PRVE1           67      *119
 01101000 000000000100 PRVE2           82      *124
 40000000 000000000100 PS             *18
 41000000 000000000000 PS0SID         *16
 41000000 000000000001 PS1SID         *16
 41000000 000000000002 PS2SID         *16
 41000000 000000000003 PS3SID         *16
 41000000 000000000004 PS4SID         *16
 40000000 000000000005 PS5SID         *16
 40000000 000000000006 PS6SID         *16
 40000000 000000303416 PSA            *18
 40000000 000000000020 PSC            *18
 40000000 000000000010 PSD            *18
 40000000 000000000004 PSF            *18
 40000000 000000000400 PSO            *18
 40000000 000000000720 PTESZ          *18
 40000000 000000000631 PTR            *18
 40000000 000000000724 PTRESZ         *18
 40000000 000000000710 PTRNO          *18
 12:45 09/05/97  FILE=ZIM$DBGT.:ZIC0TSI       SYMBOL TABLE                                               27   BMAP - B00
 41000000 000000000630 PWS            *18
 40000000 000000000002 RADDR          *18
 40000000 000000000010 RADIX          *18
 40000000 000000000005 RAPTR          *18
 40000000 000000000004 RAWSOF         *18
 40000000 777777777766 RBA            *18
 40000000 000000023432 RCBI           *18
 40000000 000000211234 RCDNL          *18
 40000000 000000000005 RCFRH          *18
 41000000 000000000004 RCFRN          *18        72
 40000000 000000001075 RCHD           *18
 40000000 000000000001 RCID           *18
 40000000 000000000006 RCPTR          *18
 40000000 000000000002 RCRAH          *18
 40000000 000000000001 RCRAN          *18
 40000000 000000000003 RCRSH          *18
 40000000 000000000002 RCRSN          *18
 40000000 000000210667 RCVER1         *18
 40000000 000000210670 RCVER2         *18
 40000000 000000210671 RCVER4         *18
 40000000 000000210672 RCVER5         *18
 40000000 000000210673 RCVER6         *18
 40000000 000000000736 RCW1           *18
 40000000 000000000737 RCW2           *18
 41000000 000000000004 RCWSO          *18        64
 40000000 000000000077 RDAC           *18
 40000000 000000000076 RDCNT          *18
 40000000 000000040000 RDI            *18
 40000000 000000015674 RDLT           *18
 40000000 000000000075 RDYCW          *18
 40000000 000000000066 RECAC          *18
 40000000 000000000065 RECFR          *18
 40000000 000000000070 RECRC          *18
 40000000 000000000067 RECSC          *18
 40000000 000000000003 RECSZ          *18
 40000000 000000000235 REMLT          *18
 40000000 000000000062 REM_RECOVER    *18
 12:45 09/05/97  FILE=ZIM$DBGT.:ZIC0TSI       SYMBOL TABLE                                               28   BMAP - B00
 41000000 000000000251 RETFR          *18        90       135
 40000000 000000210724 RFDNL          *18
 40000000 000000017644 RIM            *18
 40000000 000000000005 RNAM           *18
 40000000 000000015706 RNDLT          *18
 40000000 000000000662 RNG1           *18
 40000000 000000000664 RNG2           *18
 40000000 000000000073 RNGD           *18
 40000000 000000000072 RNGO           *18
 40000000 000000000660 RNGTAL         *18
 40000000 000000020154 RNM            *18
 40000000 000000000041 ROCUR          *18
 40000000 000000000001 ROFST          *18
 40000000 000000002114 ROLL           *18
 40000000 000000020010 RPM            *18
 40000000 000000000001 RSCDH          *18
 40000000 000000000001 RSCDN          *18
 40000000 000000211710 RSDNL          *18
 40000000 000000004540 RSEE           *18
 40000000 000000000003 RSIZ           *18
 40000000 000000000110 RSPAM          *18
 40000000 000000000004 RSPTR          *18
 40000000 000000000037 RSREQ          *18
 40000000 000000000002 RSSSH          *18
 40000000 000000000001 RSSSN          *18
 40000000 000000210574 RSZER          *18
 40000000 000000000632 RSZTP          *18
 40000000 000000000003 RTP            *18
 40000000 000000000003 RTYP           *18
 40000000 000000000530 RV1            *18
 40000000 000000000550 RV2            *18
 40000000 000000000570 RV3            *18
 40000000 000000000610 RV4            *18
 41000000 000000000003 RVASID         *16        50
 41000000 000000000510 RVI            *18        97        99
 41000000 000000000511 RVO            *18        98
 40000000 000000000513 RVPA           *18
 12:45 09/05/97  FILE=ZIM$DBGT.:ZIC0TSI       SYMBOL TABLE                                               29   BMAP - B00
 40000000 000000000512 RVT            *18
 40000000 000000000022 RVTAL          *18
 40000000 000000000002 RWSZ           *18
 40000000 000000000015 RY             *18
 40000000 000000210620 RYE1           *18
 40000000 000000210621 RYE4           *18
 40000000 777777777767 SA             *18
 40000000 000000000005 SANAM          *18
 40000000 000000001062 SCDES          *18
 40000000 000000211544 SCDNL          *18
 40000000 000000000024 SCFC           *18
 40000000 000000000002 SCID           *18
 40000000 000000000024 SCLST          *18
 40000000 000000000004 SCNAM          *18
 40000000 000000000004 SCPTR          *18
 40000000 000000000003 SCRSH          *18
 40000000 000000000002 SCRSN          *18
 40000000 000000000001 SCWSO          *18
 40000000 000000001225 SFWS           *18
 40000000 000000001073 SIZCHG         *18
 40000000 000000000645 SKFLG          *18
 40000000 000000000643 SKIND          *18
 40000000 000000000641 SKTYP          *18
 40000000 000000020464 SMCR           *18
 40000000 000000000003 SNAM           *18
 40000000 000000000107 SNIND          *18
 40000000 000000000735 SNPAE          *18
 40000000 000000001046 SNSI           *18
 40000000 000000000743 SOE            *18
 40000000 000000020630 SORSA          *18
 40000000 000000004374 SOSE           *18
 40000000 000000000000 SPAV           *18
 40000000 000000000744 SPCAVN         *18
 40000000 000000000744 SPCAVO         *18
 40000000 000000000765 SPLF           *18
 41000000 000000000765 SPND           *18
 40000000 000000000006 SSDT           *18
 12:45 09/05/97  FILE=ZIM$DBGT.:ZIC0TSI       SYMBOL TABLE                                               30   BMAP - B00
 40000000 000000303243 SSER           *18
 40000000 000000303244 SSER1          *18
 40000000 000000000002 SSH            *18
 40000000 000000000005 SSNAM          *18
 40000000 000000210573 SSNF           *18
 40000000 000000210576 SSNV           *18
 40000000 000000000020 SSSPTR         *18
 40000000 000000000010 SSVDT          *18
 40000000 000000000033 SSZTP          *18
 40000000 000000000017 ST             *18
 40000000 000000000104 STBIN          *18
 40000000 000000000105 STDEC          *18
 40000000 000000303302 STE1           *18
 40000000 000000303303 STE2           *18
 40000000 000000210624 STE3           *18
 40000000 000000303305 STE4           *18
 40000000 000000303306 STE5           *18
 00101000 000000000113 STER1         *140
 41000000 000000000100 STKSIZ         *18
 40000000 000000000055 STMASK         *18
 40000000 000000000062 SUST           *18
 41000000 000000000020 SWS            *18
 40000000 000000000000 SWSAC          *18
 40000000 000000000002 SWSZ           *18
 40000000 000000000000 SYSSF          *18
 40000000 000000000765 SZREQ          *18
 40000000 000000000004 TBUF           *18
 40000000 000000001061 TCTRS          *18
 60000000 000000000000 TDS            *18
 41000000 000000000113 TEMP           *18
 40000000 000000000640 TFLD           *18
 40000000 000000000657 TFLD2          *18
 40000000 000000000056 TMASK          *18
 40000000 000000000061 TMODE          *18
 40000000 000000000676 TMPPA          *18
 40000000 000000000003 TPAI           *18
 40000000 000000500000 TPRCOD         *18
 12:45 09/05/97  FILE=ZIM$DBGT.:ZIC0TSI       SYMBOL TABLE                                               31   BMAP - B00
 40000000 000000001031 TSFN           *18
 40000000 000000000021 TSI            *18
 40000000 000000001013 UBRD2          *18
 41000000 000000001223 UBSZ           *18
 40000000 000000000667 UCADR          *18
 40000000 000000000036 UCRS           *18
 40000000 000000000024 UFSPK          *18
 40000000 000000000024 UFSPK2         *18
 40000000 000000000715 ULIM           *18
 40000000 000000004230 UNA            *18
 40000000 000000303417 UNIM           *18
 40000000 000000000002 UOFST          *18
 40000000 000000001035 UPACD          *18
 40000000 000000000721 UPACW          *18
 40000000 000000000007 UPFLAG         *18
 40000000 000000000103 UPPAI          *18
 40000000 000000000004 UPTSID         *16
 40000000 000000000674 USTAT          *18
 40000000 000000000002 UWASID         *16
 40000000 000000000002 UWSSZ          *18
 40000000 000000000020 UWSZ           *18
 40000000 000000000243 VFDSC          *18
 40000000 000000001070 VFDSR          *18
 40000000 000000000656 VFLD           *18
 40000000 000000001074 VFLNG          *18
 40000000 000000001124 VIB1           *18
 40000000 000000001154 VIBP           *18
 41000000 000000000000 VLPSID         *16        49
 40000000 000000001074 VRSIZ          *18
 40000000 000000001067 WLOA           *18
 40000000 000000100000 WRTI           *18
 40000000 000000000000 WSBID          *18
 40000000 000000000003 WSOF           *18
 41000000 000000000000 X0             *16       108       115       121       126       132
 41000000 000000000001 X1             *16        45        55        56        64        65        66
                                       75        76        79        80        81        84
 40000000 000000000002 X2             *16
 12:45 09/05/97  FILE=ZIM$DBGT.:ZIC0TSI       SYMBOL TABLE                                               32   BMAP - B00
 40000000 000000000003 X3             *16
 41000000 000000000004 X4             *16        71        72        74        90       135
 40000000 000000000005 X5             *16
 41000000 000000000006 X6             *16       109       116       122       127       133
 03201003 000000000000 X66_ARET       *16       101
 03201002 000000000000 X66_AUTO_0     *16        43
 41000000 000000000007 X7             *16        51        52        59        63        69       110
                                      117       128       134
 40000000 000000210665 XASL           *18
 40000000 000000303420 XLD            *18
 40000000 000000303421 XPD            *18
 40000000 000000000676 XPRS           *18
 40000000 000000210666 XROLL          *18
 40000000 000000210664 XUNEX          *18
 40000000 777777777777 XXDPN          *18
 03201004 000000000000 ZIB$DBALT     *151
 12101000 000000000000 ZIG$DBGET       11       *42
 03201000 000000000000 ZIG$DBPCR      *13        45
 03201001 000000000000 ZIG$DBPMT      *14        84

     939 SYMBOLS

 12:45 09/05/97  FILE=ZIM$DBGT.:ZIC0TSI       MACRO TABLE                                                33   BMAP - B00
 CBSYM           18
 DBALT          151
 DBCAL           45        84
 DBRET          101
 DBSAV           43
 Q2SYM           18
 SSSYM           18

      37 MACROS

    SYMBOL SPACE USED  8896 WORDS
     MACRO SPACE USED 13043 WORDS
   INPUT RECORDS READ  2106
 STATEMENTS PROCESSED  2034
         ELAPSED TIME  0:09.64
             CPU TIME     9.29 SEC.
        ASSEMBLY RATE 13137 STATEMENTS/CPU MIN.

      NO ERRORS

