
 12:46 09/05/97  FILE=ZIM$DBIC.:ZIC0TSI                                                                  1    BMAP - B00
                                         1  *M*      ZIG$DBIC
                                         2  *T***********************************************************
                                         3  *T*                                                         *
                                         4  *T* Copyright (c) Bull HN Information Systems Inc., 1997    *
                                         5  *T*                                                         *
                                         6  *T***********************************************************

 12:46 09/05/97  FILE=ZIM$DBIC.:ZIC0TSI       H6600H2.534     IDS/II LOGICAL I/O - UPDATE    780117DBIC  2    BMAP - B00
                                         7         TTL     H6600H2.534     IDS/II LOGICAL I/O - UPDATE    780117DBIC
                                         8         CPR     1974
                                         9         PMC     OFF
                                        10         ENTDEF  ZIQ$DBIOS
                                        11         ENTDEF  ZIQ$DBIOD
                                        12         ENTDEF  ZIQ$DBIOM
                                        13         ENTDEF  ZIQ$DBIOK
                                        14         ENTDEF  ZIQ$DBIOU
                                        15         ENTDEF  ZIQ$DBICS                                                <EHW>
                                        16         ENTREF  ZIQ$DBIOR,ZIQ$DBIOA,ZIQ$DBIOL
                                        17        ENTREF  ZIQ$DBIUI,ZIQ$DBIUL
                                        18         LODM    Q2MA
                                        19         Q2SYM
                                        20         ENTREF  ZIO$LOCK         lock buffer in memory.
                                        21         ENTREF  ZIO$UNLOCK       unlock buffer in memory.
                                        22         ENTREF  ZIO$MODIFY       set buffer modified in memory flag.

 12:46 09/05/97  FILE=ZIM$DBIC.:ZIC0TSI       FIND SPACE IN A PAGE                                       3    BMAP - B00
                                        23         TTLS    FIND SPACE IN A PAGE
                                        24  *
                                        25  *  FIND SPACE IN A PAGE
                                        26  *
                                        27  *  INPUT :     QR - DATA BASE KEY DISIRED
                                        28  *                      (LINE NO. = LOWEST THAT WILL BE ASSIGNED)
                                        29  *              AR - HI DBK FOR THIS REC
                                        30  *                      (IS IGNORED IF NOT ON SAME PAGE)
                                        31  *              X4 - NO. CHARS NEEDED
                                        32  *
                                        33  *  OUTPUT:     QR - DATA BASE KEY USED
                                        34  *              X0 - AC DEF PTR
                                        35  *              PR3- ADDRESS OF SPACE FOUND
                                        36  *              PR4- ADDRESS OF BUFFER
                                        37  *              X3 = BURID
                                        38  *
                                        39  *  EXCEPTION RETURN:
                                        40  *    INSUFFICIENT SPACE IN PAGE OR NO LINE NO. AVAILABLE
                                        41  *
                                        42  *  ERROR RETURN-
                                        43  *
 0 000000                               44  ZIQ$DBIOS NULL
   000000    7 00470 7411 56            45         ICSAV
   000001    7 00775 7551 00            46         STA     HIDB,,PR7       SAVE HI DBK
   000002    7 00765 7441 00            47         STX     X4,SPND,,PR7    SAVE SPACE NEEDED
                                        48  *  GET THE PAGE
   000003    7 00777 7561 00            49         STQ     DBKR+1,,PR7     SAVE DBK
   000004  X 000000 7010 00             50         ICCAL   ZIQ$DBIOA,,ANP1 FIND AC
   000005 (0)000316 7020 00
   000006    5 00006 2341 00
   000007    777776 6010 04
   000010    7 01035 4401 00            51         SXL     X0,UPACD,,PR7   SAVE AC PTR
   000011    7 00776 2371 00            52         LDAQ    DBKR,,PR7       GET DBK
   000012    6 00010 1361 10            53         SBLQ    DBLIM,X0,PR6    MAKE IT REL. TO AREA
   000013    6 00012 0361 10            54         ADLQ    LPP,X0,PR6      MAKE IT REL. TO PG 1
   000014    6 00004 2211 10            55         LDX     X1,PLSEP,X0,PR6
   000015    000000 7370 11             56         LLS     ,X1             PAGE NO. TO AR
 12:46 09/05/97  FILE=ZIM$DBIC.:ZIC0TSI       FIND SPACE IN A PAGE                                       4    BMAP - B00
   000016    000000 7720 11             57         QRL     ,X1             RIGHT JUSTIFY LINE NO.
   000017    7 01000 7571 00            58         STAQ    CPGR,,PR7       SAVE PAGE & LINE NO.
   000020  X 000000 7010 00             59         ICCAL   ZIQ$DBIOR,PIB1,RDER4 READ THE PAGE
   000021 (0)000316 7020 00
   000022    5 00006 2341 00
   000023    000003 6000 04
   000024    5 00006 4501 00
   000025 (0)000026 7020 00
   000026                               60  PIB1   NULL
   000026    4 00002 7211 00            61         LXL     X1,HILN,,PR4    GET HI LINE NO ALLOCATED
   000027    000001 0210 03             62         ADLX    X1,1,DU         ADD 1 TO GET NO LINE NOS USED
   000030    7 01040 4411 00            63         SXL     X1,NLN,,PR7     SAVE
                                        64  *  CHECK PAGE FOR ENOUGH SPACE
   000031    4 00000 7211 00            65         LXL     X1,SPAV,,PR4    GET SPACE AVAIL.
   000032    007764 1010 03             66        CMPX    X1,4*CP6PGSZW,DU    IS IT LESS THAN PAGE ACTUAL SIZE
   000033 (0)000310 6030 00             67         TRC     PGER1           NO - ERROR
   000034    7 00765 1211 00            68         SBLX    X1,SPND,,PR7    IS THERE ENOUGH SPACE
   000035    7 00765 4411 00            69         SXL     X1,SPLF,,PR7    SAVE SPACE LEFT
   000036 (0)000304 6040 00             70         TMI     NOSP            EXCEPTION - NOT ENOUGH SPACE
                                        71  *
                                        72  *  ENOUGH SPACE - FIND A LINE NO.
                                        73  *
                                        74  *  SET UP LOW & HI LINES FOR THIS PAGE
   000037    7 01001 2351 00            75         LDA     CPGR+1,,PR7     GET LINE NO.
   000040    7 01036 7551 00            76         STA     LOL,,PR7        SAVE LINE REQUESTED AS LOW
   000041    000000 6350 00             77         EAA     0               ZERO AR
   000042    7 00775 2361 00            78         LDQ     HIDB,,PR7       GET HI DBK
   000043    6 00010 1361 10            79         SBLQ    DBLIM,X0,PR6    SUB LO DBK OF AREA
   000044    6 00012 0361 10            80         ADLQ    LPP,X0,PR6      UP TO 1ST PAGE
   000045    6 00004 2211 10            81         LDX     X1,PLSEP,X0,PR6
   000046    000000 7370 11             82         LLS     ,X1             AR = PG NO.
   000047    000000 7720 11             83         QRL     ,X1             QR = LN NO.
   000050    7 01000 1151 00            84         CMPA    CPGR,,PR7       IS HI DBK ON THIS PAGE
   000051 (0)000054 6000 00             85         TZE     *+3             YES
   000052    6 00012 2361 10            86         LDQ     LPP,X0,PR6      NO - GET NO. LINES ON THIS PAGE
   000053    000001 1360 07             87         SBLQ    1,DL
   000054    7 01037 7561 00            88         STQ     HIL,,PR7        SAVE HI LINE NO.
 12:46 09/05/97  FILE=ZIM$DBIC.:ZIC0TSI       FIND SPACE IN A PAGE                                       5    BMAP - B00
                                        89  *  TRY TO USE A LINE NO. NOW ALLOCATED ON THIS PAGE
   000055    000010 2350 07             90         LDA     AVLN*CPW,DL
   000056    7 01034 7551 00            91         STA     PLO,,PR7        SAVE OFST IN HDR AS PRIOR LINE OFST
   000057    4 00002 2351 00            92         LDA     AVLN,,PR4       GET AVAIL LINE NO.
   000060    000022 7710 00             93         ARL     18              PUT INTO AL
   000061    377777 3750 07             94           ANA      =O377777,DL          For DB's with bad AVLN
   000062 (0)000070 6010 00             95         TNZ     LNAV            NOT 0 - GO AHEAD
                                        96  *  AVAIL LINE = 0;  SEE IF IT IS USED
   000063    000 0 100 1005 00          97           MLR   (1),(1)                    * MOVE
   000064    4 01774 4 0 0 0002         98           ADSC9 CP6PGSZW-1,2,2,PR4         *  LINE 0 OFFSET
   000065    7 01033 4 0 0 0002         99         ADSC9   CAL,2,2,PR7        *   TO WORKSPACE
   000066    7 01033 7211 00           100         LXL     X1,CAL,,PR7     IS LINE 0 USED
   000067 (0)000133 6050 00            101         TPL     ADDL            YES
   000070                              102  LNAV   NULL
   000070    7 00762 7551 00           103         STA     LNNO,,PR7       SAVE LINE NO.
   000071                              104  LP1    NULL
   000071    7 00762 2351 00           105         LDA     LNNO,,PR7
   000072    7 01040 1151 00           106         CMPA    NLN,,PR7        IS AVAIL. LINE WITHIN ARRAY
   000073 (0)000312 6030 00            107         TRC     LNER1           NO - ERROR
   000074    7 01036 1151 00           108         CMPA    LOL,,PR7        IS AVAIL LINE GREATER THAN LO ALLOWED
   000075 (0)000114 6030 00            109         TRC     GTL1            YES
   000076    000001 7350 00            110         ALS     1               AR = LINE NO. * 2 BYTES/LINE NO.
   000077    000000 5310 00            111         NEG
   000100    7 01034 7551 00           112         STA     PLO,,PR7        SAVE OFST
   000101    000 0 100 1005 05         113           MLR   (1,,,A),(1)                * MOVE
   000102    4 01774 4 0 0 0002        114           ADSC9 CP6PGSZW-1,2,2,PR4         *  NEXT AVAIL. LINE NO. TO
   000103    7 00762 4 0 0 0002        115         ADSC9   LNNO,2,2,PR7    *   WORK SPACE
   000104    7 00762 2351 00           116         LDA     LNNO,,PR7       GET NEXT AVAIL. LINE NO.
   000105    400000 3150 07            117         CANA    .B18,DL         IS LINE AVAIL.
   000106 (0)000314 6000 00            118         TZE     LNER2           NO - ERROR
   000107    377777 3750 07            119         ANA     =O377777,DL     REMOVE BIT 18
   000110    7 00762 7551 00           120         STA     LNNO,,PR7
   000111 (0)000071 6010 00            121         TNZ     LP1             GO CHECK NEXT
   000112 (0)000133 7100 00            122         TRA     ADDL            END OF AVAIL. - GO TRY TO ADD A LINE
                                       123  *     CONSTANT DATA -  NEGITIVE OF PAGE SIZE
             000000007764              124  PGSZB       EQU  4*CP6PGSZW       PAGE SIZE IN BYTES
   000113    777777770014              125  NEGCP6PGSZB DEC  -PGSZB
 12:46 09/05/97  FILE=ZIM$DBIC.:ZIC0TSI       FIND SPACE IN A PAGE                                       6    BMAP - B00
   000114                              126  GTL1   NULL
   000114    7 01037 1151 00           127         CMPA    HIL,,PR7        IS NO. FOUND LESS THAN HI GIVEN
   000115 (0)000306 6054 00            128         TPNZ    NLNO            NO - NONE AVAIL.
                                       129  *  FOUND A LINE NO. IN THE ARRAY TO USE - DELINK IT
   000116    7 01034 2341 00           130         SZN     PLO,,PR7        IS PRIOR LINE IN PG HDR
   000117 (0)000123 6044 00            131         TMOZ    NTF1            NO - GO ON
   000120 (0)000113 2350 00            132        LDA     NEGCP6PGSZB         LOAD -4084 INTO $A
   000121    000002 0350 07            133         ADLA    CPW/2,DL        AR = OFST BACK TO START OF PAGE
   000122    7 01034 0551 00           134         ASA     PLO,,PR7        ADD TO PRIOR LINE OFST
   000123                              135  NTF1   NULL
   000123    7 00762 2351 00           136         LDA     LNNO,,PR7
   000124    000001 7350 00            137         ALS     1               AR = LINE NO. * 2 BYTES/LINE NO.
   000125    000000 5310 00            138         NEG
   000126    7 01034 2361 00           139         LDQ     PLO,,PR7        QR = OFST OF PRIOR LINE IN CHAIN
   000127    000 0 106 1005 05         140           MLR   (1,,,A),(1,,,Q)            * MOVE
   000130    4 01774 4 0 0 0002        141           ADSC9 CP6PGSZW-1,2,2,PR4         *  PTR FROM CURR LINE TO
   000131    4 01774 4 0 0 0002        142           ADSC9 CP6PGSZW-1,2,2,PR4         *   PTR FOR PRIOR LINE
   000132 (0)000204 7100 00            143         TRA     FINFS           GO FINISH
                                       144  *  NO LINES NOW AVAIL. - TRY TO ADD TO ARRAY
   000133                              145  ADDL   NULL
   000133    7 01040 2361 00           146         LDQ     NLN,,PR7        GET 1ST LINE TO BE ADDED
   000134    7 01037 1161 00           147         CMPQ    HIL,,PR7        IS IT WITHIN LIMIT GIVEN
   000135 (0)000306 6054 00            148         TPNZ    NLNO            NO
   000136    7 01036 1161 00           149         CMPQ    LOL,,PR7        IS NEXT AVAIL LESS THAN LOW LIMIT
   000137 (0)000141 6050 00            150         TPL     *+2             NO
   000140    7 01036 2361 00           151         LDQ     LOL,,PR7        YES - USE LOW LIMIT
   000141    7 00762 7561 00           152         STQ     LNNO,,PR7       SAVE LINE NO. TO BE USED
   000142    7 01040 1761 00           153         SBQ     NLN,,PR7        SUB CURR SIZE OF ARRAY
   000143    000001 0760 07            154         ADQ     1,DL
   000144    000002 4020 03            155         MPY     CPW/2,DU        QU = NO. CHARS TO BE ADDED
   000145    7 01035 5521 60           156         STBQ    LSPC,60,PR7     SAVE
   000146    7 00765 7211 00           157         LXL     X1,SPLF,,PR7    GET SPACE LEFT
   000147    7 01035 1011 00           158         CMPX    X1,LSPC,,PR7    IS IT ENOUGH
   000150 (0)000306 6020 00            159         TNC     NLNO            NO
                                       160  *  GOT A LINE NO. - ADD LINE NO. TO ARRAY
   000151    7 01034 2341 00           161         SZN     PLO,,PR7        IS PRIOR LINE IN PG HDR
   000152    000004 6044 04            162         TMOZ    NTF2,$           NO - GO ON
 12:46 09/05/97  FILE=ZIM$DBIC.:ZIC0TSI       FIND SPACE IN A PAGE                                       7    BMAP - B00
   000153 (0)000113 2350 00            163        LDA     NEGCP6PGSZB         LOAD -4084 INTO $A
   000154    000002 0350 07            164         ADLA    CPW/2,DL        AR = OFST BACK TO START OF PAGE
   000155    7 01034 0551 00           165         ASA     PLO,,PR7        ADD TO PRIOR LINE OFST
   000156                              166  NTF2   NULL
   000156                              167  LP2    NULL
   000156    7 01040 2351 00           168         LDA     NLN,,PR7
   000157    7 00762 1151 00           169         CMPA    LNNO,,PR7       IS LAST AVAIL. LINKED
   000160 (0)000177 6054 00            170         TPNZ    DNLL            YES - DONE
   000161 (0)000163 6040 00            171         TMI     *+2             NO - LINK IT
   000162    000000 6350 00            172         EAA     0               THIS IS LAST - PUT IN 0 AS NEXT AVAIL.
   000163    400000 2750 07            173         ORA     .B18,DL         PUT IN SIGN BIT
   000164    7 01033 7511 07           174         STCA    CAL,07,PR7      SAVE
   000165    7 01034 2351 00           175         LDA     PLO,,PR7        SET OFST OF PRIOR AVAIL. LINE NO.
   000166    000 0 105 1005 00         176           MLR   (1),(1,,,A)                * MOVE
   000167    7 01033 4 0 0 0002        177           ADSC9 CAL,2,2,PR7                *  CURR AVAIL. LINE NO. TO
   000170    4 01774 4 0 0 0002        178           ADSC9 CP6PGSZW-1,2,2,PR4         *   PRIOR AVAIL.
   000171    7 01040 2351 00           179         LDA     NLN,,PR7        GET CURR LINE NO.
   000172    000001 7350 00            180         ALS     1               AR = LINE NO. * 2 BYTES/LINE NO.
   000173    000000 5310 00            181         NEG
   000174    7 01034 7551 00           182         STA     PLO,,PR7        SAVE OFST
   000175    7 01040 0541 00           183         AOS     NLN,,PR7        INCR NO. LINES ON PAGE
   000176 (0)000156 7100 00            184         TRA     LP2             GO LINK NEXT
   000177                              185  DNLL   NULL
   000177    4 00000 7211 00           186         LXL     X1,SPAV,,PR4    GET SPACE AVAIL.
   000200    7 01035 1211 00           187         SBLX    X1,LSPC,,PR7    SUB. AMT ADDED TO LINE ARRAY
   000201    4 00000 4411 00           188         SXL     X1,SPAV,,PR4    SAVE AS NEW LIMIT
   000202    7 00762 2351 00           189         LDA     LNNO,,PR7       GET LINE NO. USED
   000203    4 00002 7511 07           190         STCA    HILN,07,PR4     SAVE AS NEW HI LINE
                                       191  *  COMPUTE OFST OF REC BEING ADDED
   000204                              192  FINFS  NULL
   000204 (0)000626 7010 00            193        ICCAL   ZIQ$DBIOM,NOEXC,SMWE8     SET PAGE MUST WRITE
   000205 (0)000316 7020 00
   000206    7 01040 2351 00           194         LDA     NLN,,PR7        GET NO. LINES ALLOC.
   000207    000001 7350 00            195         ALS     1               DOUBLE TO GET NO. BYTES IN ARRAY
   000210    000000 5310 00            196         NEG                     COMPLEMENT
   000211    4 00000 1351 00           197         SBLA    SPAV,,PR4       minus space available
   000212    000000 6210 05            198         EAX     X1,,AL          X0 - NEG OF SIZE OF ARRAY
 12:46 09/05/97  FILE=ZIM$DBIC.:ZIC0TSI       FIND SPACE IN A PAGE                                       8    BMAP - B00
   000213    007764 0210 03            199        ADLX    X1,4*CP6PGSZW,DU    PLUS PAGE SIZE
   000214    7 00764 4411 00           200         SXL     X1,CREC,,PR7    MAKE IT CURRENT
                                       201  *  UPDATE SPACE AVAILABLE
   000215    4 00000 7211 00           202         LXL     X1,SPAV,,PR4    GET SPACE AVAIL.
   000216    7 00765 1211 00           203         SBLX    X1,SPND,,PR7    SUB SIZE USED THIS LINE
   000217    4 00000 4411 00           204         SXL     X1,SPAV,,PR4    SAVE AS NEW SPACE AVAIL.
                                       205  *  REMOVE SIGN BIT FROM AVLN IN PG HDR
   000220    377777 2210 03            206         LDX     X1,=O377777,DU
   000221    4 00002 3411 00           207         ANSX    X1,AVLN,,PR4
   000222    7 00762 2351 00           208         LDA     LNNO,,PR7       GET LINE NO. USED
   000223    000001 7350 00            209         ALS     1               DOUBLE
   000224    000000 5310 00            210         NEG                     AR = OFST FROM LINE NO. 0 OFST
   000225    000 0 105 1005 00         211           MLR   (1),(1,,,A)                * MOVE
   000226    7 00764 4 0 0 0002        212           ADSC9 CREC,2,2,PR7               *  AVAIL. SPACE OFFSET TO
   000227    4 01774 4 0 0 0002        213           ADSC9 CP6PGSZW-1,2,2,PR4         *   AVAIL. LINE NO.
                                       214  *  UPDATE INVENTORY IF PAGE IS NOW UNDER INVENTORY CONTROL
                                       215  *    (NEW SPACE AVAILABLE <= INVENTORY THRESHOLD)
   000230    4 00000 7211 00           216         LXL     X1,SPAV,,PR4    GET SPACE AVAIL NOW
   000231    4 00002 2221 00           217        LDX     X2,AVLN,,PR4        GET FIRST AVAIL LINE #
   000232 (0)000244 6010 00            218        TNZ     UPIV2               NOT LINE 0 - GO TO UPDATE INV(IF ANY)
   000233    001774 2220 03            219        LDX     X2,CP6PGSZW-1,DU    LET X2 = PAGE SIZE IN WORDS - 1
   000234    4 00000 7221 12           220        LXL     X2,0,X2,PR4         LOAD LINE 0 OFFSET
   000235 (0)000244 6040 00            221        TMI     UPIV2               NEG - LINE 0 IS AVAIL
   000236    4 00002 2361 00           222        LDQ     HILN,,PR4           GET CURRENT HI LINE #
   000237    777777 3760 07            223        ANQ     =O777777,DL         ZERO OUT UPPER HALF WORD
   000240    000001 0360 07            224        ADLQ    1,DL                $Q = NUMBER OF LINES USED
   000241    6 00012 1161 10           225        CMPQ    LPP,X0,PR6          ARE ALL LINES USED IN THIS PAGE
   000242 (0)000244 6040 00            226        TMI     UPIV2               NO - THERE ARE DBKS LEFT AVAILBALE
                                       227  *  ALL THE DBK USED, WE JUST GAVE AWAY THE LAST DBKEY
   000243    000000 2210 03            228        LDX     X1,0,DU             SET SPACE AVAIL TO 0
   000244                              229  UPIV2 NULL
   000244    7 01060 4411 00           230        SXL     X1,INVFLG,,PR7         SAVE IT THERE
   000245    6 00014 1011 10           231         CMPX    X1,INVT,X0,PR6  IS PAGE UNDER CONTROL
   000246 (0)000271 6030 00            232         TRC     NUIC            NO
   000247    7 00753 4545 00           233         STP     PR4,CBIB,,PR7   SAVE BUFFER ADDR
   000250 (0)000641 7010 00            234         ICCAL  ZIQ$DBIOK,,NOALT    LOCK DATA PAGE IN BUFFER
   000251    000000 0020 00
 12:46 09/05/97  FILE=ZIM$DBIC.:ZIC0TSI       FIND SPACE IN A PAGE                                       9    BMAP - B00
   000252    7 01060 7211 00           235        LXL     X1,INVFLG,,PR7         RESTORE SPACE AVAIL
   000253 (0)000261 6000 00            236        TZE     SPAV0               IT IS ZERO - CALL A SPECIAL ENTRY
   000254  X 000000 7010 00            237        ICCAL   ZIQ$DBIUI,,IUER1    UPDATE INV - NEW SPACE > 0
   000255 (0)000317 7020 00
   000256    5 00006 2341 00
   000257    777776 6010 04
   000260 (0)000265 7100 00            238        TRA     INVDN
   000261                              239  SPAV0 NULL
   000261  X 000000 7010 00            240        ICCAL   ZIQ$DBIUL,,IUER1    UPDATE INV - NEW SPACE = 0
   000262 (0)000317 7020 00
   000263    5 00006 2341 00
   000264    777776 6010 04
   000265                              241  INVDN NULL
   000265    7 01035 7201 00           242         LXL     X0,UPACD,,PR7   GET AC PTR
   000266    7 00753 4745 00           243         LDP     PR4,CBIB,,PR7   GET BUFFER ADDR
   000267 (0)000654 7010 00            244         ICCAL  ZIQ$DBIOU,,NOALT    UNLOCK BUF(NO EXC, NO ALT CAN OCCUR)
   000270    000000 0020 00
   000271                              245  NUIC   NULL                    HERE FOR PAGE NOT UNDER INV. CONTROL
                                       246  *  PUT DBK INTO QR
   000271    7 01000 2361 00           247         LDQ     CPGR,,PR7       GET PAGE NO.
   000272    6 00004 7211 10           248         LXL     X1,BPL,X0,PR6   GET BITS FOR INE NO.
   000273    000000 7360 11            249         QLS     ,X1             MAKE ROOM FOR LINE NO.
   000274    7 00762 2761 00           250         ORQ     LNNO,,PR7       ADD LINE NO.
   000275    6 00010 0361 10           251         ADLQ    DBLIM,X0,PR6    ADD LO DBK OF AREA
   000276    6 00012 1361 10           252         SBLQ    LPP,X0,PR6      SUB FOR PAGE 1
                                       253  *  SET PR3 TO REC ADDR
   000277    4 00000 6335 00           254         EPPR    PR3,,,PR4       set PR3 to buffer address
   000300    7 00764 7211 00           255         LXL     X1,CREC,,PR7    GET REC OFST
   000301    3 00000 5005 11           256         A9BD    ,X1,PR3         ADD TO BUF ADDR
                                       257  *  RETURN
   000302    7 00470 2211 54           258         ICRET                   NORMAL RETURN
   000303    000001 7100 11
                                       259  *
                                       260  *  EXCEPTIONS
                                       261  *
   000304                              262  NOSP   NULL                    NOT ENOUGH SPACE
   000304    234510 2350 07            263         LDA     NSA,DL
 12:46 09/05/97  FILE=ZIM$DBIC.:ZIC0TSI       FIND SPACE IN A PAGE                                       10   BMAP - B00
   000305  X 000000 7020 00            264         ICEXC                   EXCEPT. RETURN
   000306                              265  NLNO   NULL                    NO LINE NOS. AVAILABLE
   000306    235164 2350 07            266         LDA     NKA,DL
   000307  X 000000 7020 00            267         ICEXC                   EXCEPT. RETURN
                                       268  *
                                       269  *  ERRORS DETECTED IN THIS ROUTINE
                                       270  *
   000310                              271  PGER1  NULL                    SPACE AVAIL. GR. THAN ACTIVE SIZE
   000310    303264 2350 07            272         LDA     IOE11,DL
   000311 (0)000324 7100 00            273         TRA     SRET
   000312                              274  LNER1  NULL                    AVAIL. LINE OUTSIDE LINE ARRAY
   000312    303262 2350 07            275         LDA     IOE7,DL
   000313 (0)000324 7100 00            276         TRA     SRET
   000314                              277  LNER2  NULL                    AVAIL LINE NOT AVAIL.
   000314    303263 2350 07            278         LDA     IOE8,DL
   000315 (0)000324 7100 00            279         TRA     SRET
                                       280  *
                                       281  *  ERRORS DETECTED IN SUBORDINATE ROUTINES
                                       282  *
   000316                              283  ANP1   NULL                    ERROR FINDING AC
   000316                              284  RDER4  NULL                    ERROR READING PAGE
   000316                              285  SMWE7  NULL                    PG MODIFY ROUT. ERROR
   000316                              286  SMWE8  NULL                    PG MODIFY ROUT. ERROR
   000316                              287  LBER1  NULL                    ERROR LOCKING BUFFER
   000316                              288  UBER1  NULL                    ERROR UNLOCKING BUFFER
   000316 (0)000324 7100 00            289         TRA     SRET
                                       290  *
                                       291  *  ERRORS DETECTED WHILE BUFFER WAS LOCKED
                                       292  *
   000317                              293  IUER1  NULL                    ERROR UPDATING INVENTORY
   000317    7 01052 7551 00           294         STA     IOSTS,,PR7      SAVE STATUS
   000320    7 00753 4745 00           295         LDP     PR4,CBIB,,PR7   GET BUFF ADDR
   000321 (0)000654 7010 00            296         ICCAL  ZIQ$DBIOU,,NOALT    UNLOCK BUF(NO EXC, NO ALT POSSIBLE)
   000322    000000 0020 00
   000323                              297  UBER2  NULL
   000323 (0)000324 7100 00            298         TRA     SRET
                                       299  *  COMMON ERROR RETURN
 12:46 09/05/97  FILE=ZIM$DBIC.:ZIC0TSI       FIND SPACE IN A PAGE                                       11   BMAP - B00
   000324    7 00021 2361 00           300  SRET     LDQ      GIOPGNO,,PR7
   000325    5 00015 7561 00           301           STQ      GPAGE,,PR5           Save page no of error
   000326  X 000000 7020 00            302           ICALT

 12:46 09/05/97  FILE=ZIM$DBIC.:ZIC0TSI       DELETE A RECORD                                            12   BMAP - B00
                                       303         TTLS    DELETE A RECORD
                                       304  *
                                       305  *  DELETE A RECORD
                                       306  *
                                       307  *  INPUT :     QR - DATA BASE KEY OF RECORD TO DELETE
                                       308  *
                                       309  *  EXCEPTION RETURN:
                                       310  *    NONE
                                       311  *  ERROR RETURN-
                                       312  *    CODE IN AR
                                       313  *
   000327                              314  ZIQ$DBIOD NULL
   000327    7 00470 7411 56           315         ICSAV
                                       316  *  GET THE RECORD
                                       317  *          SET UP LLNO, CREC
   000330  X 000000 7010 00            318           DBCAL    ZIQ$DBIOL,,PGER3
   000331 (0)000503 7020 00
   000332    5 00006 2341 00
   000333    777776 6010 04
   000334    7 01035 4401 00           319         SXL     X0,UPACD,,PR7   SAVE AC
                                       320  *  SAVE SIZE OF RECORD
   000335    4 00002 7211 00           321         LXL     X1,HILN,,PR4    GET HI LINE NO ALLOCATED
   000336    000001 0210 03            322         ADLX    X1,1,DU         ADD 1 TO GET NO LINE NOS USED
   000337    7 01040 4411 00           323         SXL     X1,NLN,,PR7     SAVE
   000340    000 0 100 1005 00         324         MLR     (1),(1),0           * MOVE
   000341    3 00000 4 0 0 0002        325         ADSC9   ,2,2,PR3            *  SIZE
   000342    7 00765 0 0 0 0004        326         ADSC9   SPND,0,4,PR7        *   TO WORK SPACE
                                       327  *  CALL PAGE MODIFY ROUTINE
   000343 (0)000626 7010 00            328        ICCAL   ZIQ$DBIOM,NOEXC,SMWE1         SET MUST WRITE
   000344 (0)000503 7020 00
                                       329  *  UPDATE SPACE AVAILABLE
   000345    7 01060 4501 00           330        STZ     INVFLG,,PR7        SET INVENTORY FLAG TO NO
   000346    4 00000 7211 00           331         LXL     X1,SPAV,,PR4    GET SPACE AVAIL.
   000347    7 00765 0211 00           332         ADLX    X1,SPND,,PR7    ADD SIZE OF REC.
                                       333         IFE     B,1,2
   000350    007764 1010 03            334        CMPX    X1,4*CP6PGSZW,DU    IS IT LESS THAN ACTIVE SIZE
   000351 (0)000475 6030 00            335         TRC     PGER2           NO - ERROR
 12:46 09/05/97  FILE=ZIM$DBIC.:ZIC0TSI       DELETE A RECORD                                            13   BMAP - B00
   000352    4 00000 4411 00           336         SXL     X1,SPAV,,PR4    SAVE NEW SPACE AVAIL.
                                       337  *  FIND PLACE IN CHAIN OF AVAIL. LINES TO PUT THIS LINE
   000353    4 00002 2361 00           338         LDQ     AVLN,,PR4
   000354    400000 2210 03            339         LDX     X1,.B0,DU
   000355    4 00002 2411 00           340         ORSX    X1,AVLN,,PR4    SET SIGN BIT IN 1ST AVAIL LINE
   000356    000012 2210 03            341         LDX     X1,AVLN*CPW+CPW/2,DU
   000357    007764 1210 03            342        SBLX    X1,4*CP6PGSZW,DU    X1=OFFSET FROM LINE OFFSET TO 1ST AVAIL
   000360    000000 6350 11            343         EAA     ,X1             TO AU
   000361    000022 7310 00            344         ARS     18              MAKE IT 36-BIT NEG.
   000362    7 01034 7551 00           345         STA     PLO,,PR7        SAVE AS OFST OF PRIOR AVAIL. LINE
   000363    000022 7720 00            346         QRL     18              IS LINE 0 = 1ST AVAIL
   000364    377777 3760 07            347           ANQ      =O377777,DL          For DB's with bad AVLN
   000365 (0)000375 6010 00            348         TNZ     LP4             NO
   000366    000 0 100 1005 00         349           MLR   (1),(1)                    * MOVE
   000367    4 01774 4 0 0 0002        350           ADSC9 CP6PGSZW-1,2,2,PR4         *  ENTRY AT LINE 0
   000370    7 01033 4 0 0 0002        351         ADSC9   CAL,2,2,PR7        *   TO WORKSPACE
   000371    7 01033 2351 00           352         LDA     CAL,,PR7        GET LINE 0'S ENTRY
   000372    400000 3150 07            353         CANA    .B18,DL         IS LINE 0 AVAIL
   000373 (0)000416 6000 00            354        TZE     CHKFLAG             GO SET INVENTORY FLAG
   000374    7 01034 4501 00           355         STZ     PLO,,PR7        YES - SET PLO = AT LINE 0
   000375                              356  LP4    NULL
   000375    7 01034 2351 00           357         LDA     PLO,,PR7        GET PRIOR LINE OFST
   000376    000 0 100 1005 05         358           MLR   (1,,,A),(1)                * MOVE
   000377    4 01774 4 0 0 0002        359           ADSC9 CP6PGSZW-1,2,2,PR4         *  CURR AVAIL. LINE TO
   000400    7 01033 4 0 0 0002        360         ADSC9   CAL,2,2,PR7         *   CAL
   000401    7 01033 2351 00           361         LDA     CAL,,PR7        GET CURR AVAIL. LINE
   000402    400000 3150 07            362         CANA    .B18,DL         IS IT AVAIL.
   000403 (0)000477 6000 00            363         TZE     LNER4           NO - ERROR
   000404    377777 3750 07            364         ANA     =O377777,DL     REMOVE BIT 18
   000405 (0)000423 6000 00            365         TZE     LNKDL           ZERO - LAST AVAIL
   000406    7 01040 1151 00           366         CMPA    NLN,,PR7        IS IT WITHIN ARRAY
   000407 (0)000501 6030 00            367         TRC     LNER5           NO - ERROR
   000410    7 00762 1151 00           368         CMPA    LNNO,,PR7       IS IT GREATER THAN LINE BEING DELETED
   000411 (0)000423 6030 00            369         TRC     LNKDL           YES
   000412    000001 7350 00            370         ALS     1
   000413    000000 5310 00            371         NEG
   000414    7 01034 7551 00           372         STA     PLO,,PR7        SAVE AS OFST OF PRIOR
 12:46 09/05/97  FILE=ZIM$DBIC.:ZIC0TSI       DELETE A RECORD                                            14   BMAP - B00
   000415 (0)000375 7100 00            373         TRA     LP4
                                       374  *  SET INVENTORY FLAG TO YES IF AVAIL DBK WAS NONE
   000416                              375  CHKFLAG NULL
   000416    6 00012 2351 10           376        LDA     LPP,X0,PR6          GET LINE PER PAGE
   000417    7 01040 1151 00           377        CMPA    NLN,,PR7            IS ALL LINES USED?
   000420 (0)000423 6010 00            378        TNZ     LNKDL               NO - THEN DONT SET FLAG
   000421    000001 2210 03            379        LDX     X1,1,DU
   000422    7 01060 4411 00           380        SXL     X1,INVFLG,,PR7      SET MUST DO INVENTORY FLAG
                                       381  *  LINK THE LINE NO. INTO CHAIN OF AVAIL. LINES
   000423                              382  LNKDL  NULL
   000423    7 00762 2351 00           383         LDA     LNNO,,PR7       GET LINE NO.
   000424    000001 7350 00            384         ALS     1               MULTIPLY BY 2
   000425    000000 5310 00            385         NEG                     MAKE NEGATIVE
   000426    7 01034 2361 00           386         LDQ     PLO,,PR7
   000427    000 0 105 1005 06         387           MLR   (1,,,Q),(1,,,A)            * MOVE
   000430    4 01774 4 0 0 0002        388           ADSC9 CP6PGSZW-1,2,2,PR4         *  PRIOR AVAIL. LINE PTR TO
   000431    4 01774 4 0 0 0002        389           ADSC9 CP6PGSZW-1,2,2,PR4         *   CURR AVAIL. LINE
   000432    7 00762 2351 00           390         LDA     LNNO,,PR7           GET LINE NO.
   000433    400000 2750 07            391         ORA     .B18,DL             PUT IN BIT 18
   000434    7 01033 7551 00           392         STA     CAL,,PR7            SAVE AS CURR AVAIL. LINE NO.
   000435    000 0 106 1005 00         393           MLR   (1),(1,,,Q)                * MOVE
   000436    7 01033 4 0 0 0002        394           ADSC9 CAL,2,2,PR7                *  CURR AVAIL. LINE NO. TO
   000437    4 01774 4 0 0 0002        395           ADSC9 CP6PGSZW-1,2,2,PR4         *   PRIOR LINE PTR
                                       396  *  ADJUST PAGE AND UPDATE POINTERS                                      <EHW>
   000440    7 00765 3211 00           397         LCX     X1,SPND,,PR7    RECORD SIZE                              <EHW>
   000441    7 01073 7411 00           398         STX     X1,SIZCHG,,PR7  SPACE AVAILABLE CHANGE                   <EHW>
   000442    7 00765 2211 00           399         LDX     X1,SPND,,PR7    RECORD SIZE                              <EHW>
   000443    7 01072 4411 00           400         SXL     X1,OLDSIZ,,PR7  OFST FROM CURR REC IS "FROM" ADDR FOR MOVE\<EHW>
   000444    000000 6210 00            401         EAX     X1,0                                                     <EHW>
   000445    7 01072 7411 00           402         STX     X1,NEWSIZ,,PR7  OFST FROM CURR REC IS "TO" ADDRESS FOR OVE\<EHW>
   000446 (0)000514 7010 00            403           ICCAL    ZIQ$DBICE,,NOALT     NO ALTRET OR EXC ALLOWED
   000447    000000 0020 00
   000450    7 01035 7201 00           404         LXL     X0,UPACD,,PR7   GET AC PTR
                                       405  *  UPDATE INVENTORY IF PAGE WAS UNDER CONTROL BEFORE RECORD
                                       406  *  WAS DELETED
   000451    4 00000 7211 00           407         LXL     X1,SPAV,,PR4    GET NEW SPACE AVAIL
   000452    7 00765 1211 00           408         SBLX    X1,SPND,,PR7    SUBTRACT SIZE OF DELETED REC TO
 12:46 09/05/97  FILE=ZIM$DBIC.:ZIC0TSI       DELETE A RECORD                                            15   BMAP - B00
                                       409  *                              GET OLD SPACE AVAIL
   000453    6 00014 2221 10           410        LDX     X2,INVT,X0,PR6      DOES THIS AREA HAVE INV PAGE?
   000454 (0)000473 6000 00            411        TZE     WNUIC               NO - DONT UPDATE INV
   000455    7 01060 7221 00           412        LXL     X2,INVFLG,,PR7     IS INVENTORY FLAG SET
   000456 (0)000461 6010 00            413        TNZ     *+3                 YES - FORCE TO UPDATE INV
   000457    6 00014 1011 10           414         CMPX    X1,INVT,X0,PR6  WAS PAGE UNDER CONTROL
   000460 (0)000473 6030 00            415         TRC     WNUIC           NO
   000461    7 00753 4545 00           416         STP     PR4,CBIB,,PR7   SAVE BUFFER ADDR
   000462 (0)000641 7010 00            417         ICCAL  ZIQ$DBIOK,,NOALT    LOCK BUFFER
   000463    000000 0020 00
   000464  X 000000 7010 00            418         ICCAL   ZIQ$DBIUI,,IUER2  UPDATE INVENTORY
   000465 (0)000504 7020 00
   000466    5 00006 2341 00
   000467    777776 6010 04
   000470    7 00753 4745 00           419         LDP     PR4,CBIB,,PR7   GET BUFFER ADDR
   000471 (0)000654 7010 00            420         ICCAL  ZIQ$DBIOU,,NOALT    UNLOCK BUF
   000472    000000 0020 00
   000473                              421  WNUIC  NULL                    HERE FOR PAGE WASNT UNDER INV CONTRL
                                       422  *
                                       423  *  RETURN
                                       424  *
   000473    7 00470 2211 54           425         ICRET                   NORMAL RETURN
   000474    000001 7100 11
                                       426  *
                                       427  *  ERRORS DETECTED IN THIS ROUTINE
                                       428  *
   000475                              429  PGER2  NULL                    SPACE AVAIL. GR. THAN ACTIVE SIZE
   000475    303264 2350 07            430         LDA     IOE11,DL
   000476 (0)000511 7100 00            431         TRA     DRET
   000477                              432  LNER4  NULL                    LINE IN AVAIL. CHAIN NOT AVAIL.
   000477    303263 2350 07            433         LDA     IOE8,DL
   000500 (0)000511 7100 00            434         TRA     DRET
   000501                              435  LNER5  NULL                    AVAIL. LINE OUTSIDE LINE ARRAY
   000501    303262 2350 07            436         LDA     IOE7,DL
   000502 (0)000511 7100 00            437         TRA     DRET
                                       438  *
                                       439  *  ERRORS DETECTED IN SUBORDINATE ROUTINES
 12:46 09/05/97  FILE=ZIM$DBIC.:ZIC0TSI       DELETE A RECORD                                            16   BMAP - B00
   000503                              440  PGER3  NULL                    PAGE ERROR FIND REC TO DELETE
   000503                              441  SMWE1  NULL                    ERROR SETTING PAGE MODIFY
   000503                              442  LBER2  NULL                    ERROR LOCKING BUFFER
   000503                              443  UBER3  NULL                    ERROR UNLOCKING BUFFER
   000503 (0)000511 7100 00            444         TRA     DRET
                                       445  *
                                       446  *  ERROR DETECTED WHILE BUF WAS LOCKED
   000504                              447  IUER2  NULL                    ERROR UPDATING INVENTORY
   000504    7 01052 7551 00           448         STA     IOSTS,,PR7      SAVE STATUS
   000505    7 00753 4745 00           449         LDP     PR4,CBIB,,PR7   GET BUF ADDR
   000506 (0)000654 7010 00            450         ICCAL  ZIQ$DBIOU,,NOALT    UNLOCK BUF
   000507    000000 0020 00
   000510                              451  UBER4  NULL
   000510 (0)000511 7100 00            452         TRA     DRET
                                       453  *  COMMON ERROR RETURN
   000511    7 00021 2361 00           454  DRET     LDQ      GIOPGNO,,PR7
   000512    5 00015 7561 00           455           STQ      GPAGE,,PR5           Save page no of error
   000513  X 000000 7020 00            456           ICALT

 12:46 09/05/97  FILE=ZIM$DBIC.:ZIC0TSI       COMPACT/EXPAND PAGE                                        17   BMAP - B00
                                       457         TTLS    COMPACT/EXPAND PAGE                                      <EHW>
                                       458  *                                                                       <EHW>
                                       459  *  COMPACT/EXPAND PAGE FROM MODIFY OR DELETE OF RECORD                  <EHW>
                                       460  *                                                                       <EHW>
                                       461  *  INPUT:                                                               <EHW>
                                       462  *    PR4 = ADDRESS OF BUFFER CONTAINING RECORD                          <EHW>
                                       463  *    SIZCHG = SIZE CHANGE OF SPACE AVAILABLE                            <EHW>
                                       464  *                 (NEGATIVE IF COMPACTION, POSITIVE IF EXPANSION)       <EHW>
                                       465  *    OLDSIZ = OFFSET FROM CURRENT REC TO MOVE FROM                      <EHW>
                                       466  *    NEWSIZ = OFFSET FROM CURRENT REC TO MOVE TO                        <EHW>
                                       467  *                  = 0 IF ERASE                                         <EHW>
                                       468  *                                                                       <EHW>
                                       469  *  EXCEPTION RETURN:                                                    <EHW>
                                       470  *    NONE                                                               <EHW>
                                       471  *  ERROR RETURN:                                                        <EHW>
                                       472  *   ERROR SETTING UP DESCRIPTOR ENTRY                                   <EHW>
                                       473  *   MODIFY CI ERROR                                                     <EHW>
                                       474  *                                                                       <EHW>
   000514                              475  ZIQ$DBICE NULL                                                          <EHW>
   000514    7 00470 7411 56           476         ICSAV                                                            <EHW>
   000515    7 01072 2211 00           477         LDX     X1,NEWSIZ,,PR7  IS THIS MODIFY                           <EHW>
   000516 (0)000521 6010 00            478         TNZ     *+3             YES - DO NOT TURN OFF BIT 0              <EHW>
                                       479  *  TURN OFF BIT 0 IN AVLN IN PAGE HDR IN WORKSPACE
   000517    377777 2210 03            480         LDX     X1,=O377777,DU
   000520    4 00002 3411 00           481        ANSX        X1,AVLN,,PR4      TURN BIT OFF
   000521    7 01040 2351 00           482         LDA     NLN,,PR7        GET NO. OF LINE NOS.
   000522    000001 7350 00            483         ALS     1               DOUBLE TO GET NO. BYTES
   000523    7 00764 0351 00           484         ADLA    CREC,,PR7       ADD START OF REC
   000524    000000 5310 00            485         NEG                     COMPLEMENT
   000525    4 00000 1351 00           486         SBLA    SPAV,,PR4       minus space available
   000526    000000 6200 05            487         EAX     X0,,AL          TO X0
   000527    7 01072 1201 00           488         SBLX    X0,NEWSIZ,,PR7  NEW SIZE OF RECORD - = 0 IF DELETE
   000530    007764 0200 03            489           ADLX    X0,4*CP6PGSZW,DU PLUS PAGE SIZE
   000531    000000 6350 10            490         EAA     ,X0             TO AU
   000532    000022 7710 00            491         ARL     18              TO AL
   000533    7 00764 2361 00           492         LDQ     CREC,,PR7       START OF RECORD                          <EHW>
   000534    000000 6200 06            493         EAX     X0,,QL                                                   <EHW>
 12:46 09/05/97  FILE=ZIM$DBIC.:ZIC0TSI       COMPACT/EXPAND PAGE                                        18   BMAP - B00
   000535    7 01072 0201 00           494         ADLX    X0,NEWSIZ,,PR7  "TO" ADDRESS TO X0                       <EHW>
   000536    7 01072 0361 00           495         ADLQ    OLDSIZ,,PR7                                              <EHW>
   000537    000000 6210 06            496         EAX     X1,,QL          "FROM" ADDRESS TO X1                     <EHW>
   000540    7 01073 2341 00           497         SZN     SIZCHG,,PR7     IS SIZE CHANGE + OR -                    <EHW>
   000541 (0)000546 6040 00            498         TMI     LRMOVE          NEGATIVE - MOVE LEFT TO RIGHT            <EHW>
                                       499  *  SIZE CHANGE >0 - MOVE RIGHT TO LEFT                                  <EHW>
   000542    000 0 150 1015 51         500         MRL     (1,1,,1),(1,1,,0)                                        <EHW>
   000543    4 00000 0 0 0 0005        501         ADSC9   0,0,A,PR4                                                <EHW>
   000544    4 00000 0 0 0 0005        502         ADSC9   0,0,A,PR4                                                <EHW>
   000545 (0)000555 7100 00            503         TRA     URP             GO UPDATE RECORD POINTERS                <EHW>
                                       504  *  SIZE CHANGE <0 - MOVE LEFT TO RIGHT                                  <EHW>
   000546                              505  LRMOVE NULL                                                             <EHW>
   000546    000000 6220 05            506        EAX      X2,,AL            COPY OF SIZE TO MOVE
   000547    7 01073 1221 00           507        SBLX     X2,SIZCHG,,PR7    SUB NEG OF SIZE TO ZERO FILL
   000550    000 0 150 1005 51         508         MLR     (1,1,,1),(1,1,,0)         * MOVE
   000551    4 00000 0 0 0 0005        509         ADSC9   0,0,A,PR4           *  RECORDS AFTER THE CURR TO
   000552    4 00000 0 0 0 0012        510        ADSC9    0,0,X2,PR4        * LOC OF CURR
   000553    000000 7350 00            511        ALS      0                 LAST RECORD?
   000554 (0)000624 6000 00            512        TZE      NCOM              YES. NO LINE ARRAY COMPACTION
   000555                              513  URP    NULL
                                       514  *  UPDATE RECORD POINTERS THAT WERE CHANGED                             <EHW>
   000555    7 01035 7201 00           515         LXL     X0,UPACD,,PR7   GET AC                                   <EHW>
   000556    7 00764 7211 00           516         LXL     X1,CREC,,PR7    GET REC PTR DELETED
   000557    7 00766 7411 00           517         STX     X1,FSOF,,PR7    SAVE IN WORK SPACE
   000560    001774 2350 07            518           LDA   CP6PGSZW-1,DL        Offset to last word on page
   000561    7 01030 7511 07           519         STCA    ELO,07,PR7      SAVE
   000562    000000 6210 00            520         EAX     X1,0            INIT LINE COUNTER
   000563    7 01017 4411 00           521         SXL     X1,LNCNT,,PR7   SAVE
   000564                              522  LOOP2  NULL
   000564    7 01030 7221 00           523         LXL     X2,ELO,,PR7
   000565    4 00000 2361 12           524         LDQ     ,X2,PR4
   000566    7 01067 7561 00           525         STQ     WLOA,,PR7       SAVE EVEN AND ODD LINE OFFSETS
   000567    7 01067 7211 00           526         LXL     X1,WLOA,,PR7    GET EVEN LINE OFFSET
   000570 (0)000575 6040 00            527         TMI     ELOK            NOT USED
   000571    7 00766 1011 00           528         CMPX    X1,FSOF,,PR7    WAS IT MOVED
   000572 (0)000575 6044 00            529         TMOZ    ELOK            NO                                       <EHW>
   000573    7 01073 0211 00           530         ADLX    X1,SIZCHG,,PR7  YES - ADD SIZE CHANGE                    <EHW>
 12:46 09/05/97  FILE=ZIM$DBIC.:ZIC0TSI       COMPACT/EXPAND PAGE                                        19   BMAP - B00
   000574    7 01067 4411 00           531         SXL     X1,WLOA,,PR7    SAVE NEW PTR
   000575                              532  ELOK   NULL
   000575    7 01017 2361 00           533         LDQ     LNCNT,,PR7      GET LINE COUNT
   000576    777777 3760 07            534         ANQ     =-1,DL          ISOLATE
   000577    000001 0360 07            535         ADLQ    1,DL            INCR LINE COUNTER
   000600    7 01040 1161 00           536         CMPQ    NLN,,PR7        WAS THAT LAST LINE
   000601    7 01017 7521 07           537         STCQ    LNCNT,07,PR7    INCR LINE COUNTER                        <EHW>
   000602 (0)000613 6030 00            538         TRC     PUTBCK          YES                                      <EHW>
   000603    7 01067 2211 00           539         LDX     X1,WLOA,,PR7    GET ODD LINE OFFSET
   000604 (0)000611 6040 00            540         TMI     OLOK            NOT USED
   000605    7 00766 1011 00           541         CMPX    X1,FSOF,,PR7    WAS IT MOVED
   000606 (0)000611 6044 00            542         TMOZ    OLOK            NO                                       <EHW>
   000607    7 01073 0211 00           543         ADLX    X1,SIZCHG,,PR7  YES - ADD SIZE CHANGE                    <EHW>
   000610    7 01067 7411 00           544         STX     X1,WLOA,,PR7    SAVE NEW PTR
   000611                              545  OLOK   NULL
   000611    000001 0360 07            546         ADLQ    1,DL            INCR LINE COUNTER
   000612    7 01017 7521 07           547         STCQ    LNCNT,07,PR7
   000613                              548  PUTBCK NULL                                                             <EHW>
   000613    7 01067 2351 00           549         LDA     WLOA,,PR7          * MOVE EVEN AND ODD LINE OFSTS
   000614    4 00000 7551 12           550         STA     ,X2,PR4            *  FROM TEMP TO PAGE BUF
   000615    7 01030 7221 00           551         LXL     X2,ELO,,PR7     WORD PTR                                 <EHW>
   000616    777777 6220 12            552         EAX     X2,-1,X2        UP TO NEXT WORD OF PTRS                  <EHW>
   000617    7 01030 4421 00           553         SXL     X2,ELO,,PR7     SAVE                                     <EHW>
   000620    7 01017 2361 00           554         LDQ     LNCNT,,PR7      LINE COUNT
   000621    777777 3760 07            555         ANQ     -1,DL           ISOLATE
   000622    7 01040 1161 00           556         CMPQ    NLN,,PR7        WAS THAT LAST LINE
   000623 (0)000564 6020 00            557         TNC     LOOP2           NO
   000624                              558  NCOM   NULL
                                       559  *  RETURN                                                               <EHW>
   000624    7 00470 2211 54           560         ICRET                                                            <EHW>
   000625    000001 7100 11

 12:46 09/05/97  FILE=ZIM$DBIC.:ZIC0TSI       LOCK, UNLOCK, OR MARK BUFFER MODIFIED                      20   BMAP - B00
                                       561         TTLS    LOCK, UNLOCK, OR MARK BUFFER MODIFIED
                                       562  *
                                       563  *  Increment (LOCK) or decrement (UNLOCK) the buffer lock count,
                                       564  *  or set the buffer modified bit.
                                       565  *  INPUT:
                                       566  *         PR4 - buffer address
                                       567  *          X0 - AC PTR
                                       568  *
                                       569  *  OUTPUT:
                                       570  *          PR4- ADDRESS OF BUFFER
                                       571  *          X0 - AC PTR
                                       572  *
                                       573  *  EXCEPTION RETURN-
                                       574  *    NONE
                                       575  *  ERROR RETURN-
                                       576  *    AREA NOT OPEN FOR WRITE
                                       577  *
   000626                              578  ZIQ$DBIOM NULL
   000626    7 00470 7411 56           579           ICSAV
   000627    7 01041 7401 00           580           STX   X0,PACD,,PR7          SET ARGUMENT
   000630    7 00524 4535 00           581           STP      PR3,KCARG3,,PR7      Save Record pointer
   000631    5 00022 4545 00           582           STP      PR4,GIOBUF,,PR5      For I/O routines
   000632  X 000000 7010 00            583         DBCAL  ZIO$MODIFY,NOEXC,ANOU         NO EXC, ALT IF OPEN IN
   000633 (0)000667 7020 00
   000634    7 00524 4735 00           584           LDP      PR3,KCARG3,,PR7      Restore
   000635    5 00022 4745 00           585           LDP      PR4,GIOBUF,,PR5      Restore arguments
   000636    7 01041 2201 00           586           LDX   X0,PACD,,PR7              TO BEFORE CALL.
   000637    7 00470 2211 54           587           ICRET
   000640    000001 7100 11
   000641                              588  ZIQ$DBIOK   NULL           INCREMENT BUFFER LOCK COUNT ENTRY
   000641    7 00470 7411 56           589           ICSAV
   000642    7 01041 7401 00           590           STX   X0,PACD,,PR7          SET ARGUMENTS
   000643    7 00524 4535 00           591           STP      PR3,KCARG3,,PR7      Save record pointer
   000644    5 00022 4545 00           592           STP      PR4,GIOBUF,,PR5      For I/O routines
   000645  X 000000 7010 00            593           DBCAL    ZIO$LOCK,,NOALT
   000646    000000 0020 00
   000647    7 00524 4735 00           594           LDP      PR3,KCARG3,,PR7      Restore
 12:46 09/05/97  FILE=ZIM$DBIC.:ZIC0TSI       LOCK, UNLOCK, OR MARK BUFFER MODIFIED                      21   BMAP - B00
   000650    5 00022 4745 00           595           LDP      PR4,GIOBUF,,PR5      Restore arguments
   000651    7 01041 2201 00           596           LDX   X0,PACD,,PR7              TO BEFORE CALL.
   000652    7 00470 2211 54           597           ICRET
   000653    000001 7100 11
   000654                              598  ZIQ$DBIOU   NULL           DECREMENT BUFFER LOCK COUNT ENTRY
   000654    7 00470 7411 56           599           ICSAV
   000655    7 01041 7401 00           600           STX   X0,PACD,,PR7          SET ARGUMENTS
   000656    7 00524 4535 00           601           STP      PR3,KCARG3,,PR7      Save record pointer
   000657    5 00022 4545 00           602           STP      PR4,GIOBUF,,PR5      For I/O routines
   000660  X 000000 7010 00            603           DBCAL    ZIO$UNLOCK,,NOALT
   000661    000000 0020 00
   000662    7 00524 4735 00           604           LDP      PR3,KCARG3,,PR7      Restore
   000663    5 00022 4745 00           605           LDP      PR4,GIOBUF,,PR5      Restore arguments
   000664    7 01041 2201 00           606           LDX   X0,PACD,,PR7              TO BEFORE CALL.
   000665    7 00470 2211 54           607         ICRET                   NORMAL RETURN
   000666    000001 7100 11
                                       608  *
                                       609  *  ERRORS
                                       610  *
   000667                              611  ANOU   NULL                    AREA NOT OPEN FOR WRITE
   000667                              612  BMRE1 NULL                     error return from buffer management
   000667    7 01041 2201 00           613         LDX     X0,PACD,,PR7    restore AC
   000670  X 000000 7020 00            614           ICALT

 12:46 09/05/97  FILE=ZIM$DBIC.:ZIC0TSI       CHANGE RECORD SIZE                                         22   BMAP - B00
                                       615         TTLS    CHANGE RECORD SIZE                                       <EHW>
                                       616  *                                                                       <EHW>
                                       617  *  CHANGE RECORD SIZE                                                   <EHW>
                                       618  *                                                                       <EHW>
                                       619  *  INPUT:  PR3 - ADDRESS OF RECORD                                      <EHW>
                                       620  *          PR4 - ADDRESS OF RECORD BUFFER                               <EHW>
                                       621  *            A - OLD RECORD SIZE                                        <EHW>
                                       622  *            Q - NEW RECORD SIZE                                        <EHW>
                                       623  *                                                                       <EHW>
                                       624  *  EXCEPTION RETURN:                                                    <EHW>
                                       625  *    NOT ENOUGH SPACE AVAILABLE                                         <EHW>
                                       626  *                                                                       <EHW>
   000671                              627  ZIQ$DBICS NULL                                                          <EHW>
   000671    7 00470 7411 56           628         ICSAV                                                            <EHW>
                                       629  *  SAVE OLD AND NEW RECORD SIZES AND COMPUTE SIZE CHANGE                <EHW>
   000672    7 01072 7551 00           630         STA     OLDSIZ,,PR7     OLD RECORD SIZE                          <EHW>
   000673    7 00764 4535 00           631        STP     PR3,CREC,,PR7
   000674    7 00764 2351 00           632        LDA     CREC,,PR7           FIGURE OUT THE OFFSET OF THE REC
   000675    000020 7710 00            633        ARL     16                  SHIFT TO GET BYTE OFFSET FROM $LS5
   000676    007777 3750 07            634        ANA     4095,DL             ONLY TAKE OFFSET FROM PAGE BOUNDARY
   000677    000014 1350 07            635        SBLA    12,DL               MAKE IT RELATIVE TO IDS PAGE BOUNDARY
   000700    7 00764 7551 00           636        STA     CREC,,PR7           DONE
   000701    000000 6210 06            637         EAX     X1,,QL                                                   <EHW>
   000702    7 01072 7411 00           638         STX     X1,NEWSIZ,,PR7  NEW RECORD SIZE                          <EHW>
   000703    7 01072 1361 00           639         SBLQ    OLDSIZ,,PR7     NEWSIZ - OLDSIZ                          <EHW>
   000704    4 00002 7211 00           640         LXL     X1,HILN,,PR4    GET HI LINE NO ALLOCATED
   000705    000001 0210 03            641         ADLX    X1,1,DU         ADD 1 TO GET NO LINE NOS USED
   000706    7 01040 4411 00           642         SXL     X1,NLN,,PR7     SAVE
   000707    000000 6210 06            643         EAX     X1,,QL                                                   <EHW>
   000710    7 01073 7411 00           644         STX     X1,SIZCHG,,PR7  SIZE CHANGE                              <EHW>
   000711 (0)000716 6040 00            645         TMI     NOCHK           MINUS - DO NOT COMPARE TO SPACE AVAL.    <EHW>
   000712 (0)000725 6000 00            646         TZE     RETRN           ZERO SIZE CHANGE - RETURN                <EHW>
                                       647  *  COMPARE SIZE CHANGE TO SPACE AAVAILABLE                              <EHW>
   000713    4 00000 7211 00           648         LXL     X1,SPAV,,PR4    SPACE AVAILABLE ON PAGE                  <EHW>
   000714    7 01073 1011 00           649         CMPX    X1,SIZCHG,,PR7  RECORD SIZE CHANGE                       <EHW>
   000715 (0)000727 6020 00            650         TNC     NOSP1           NOT ENOUGH SPACE AVAILABLE TO EXPAND RECO
   000716                              651  NOCHK    NULL
 12:46 09/05/97  FILE=ZIM$DBIC.:ZIC0TSI       CHANGE RECORD SIZE                                         23   BMAP - B00
   000716    4 00000 7211 00           652           LXL      X1,SPAV,,PR4         Space available on page
   000717    7 01073 1211 00           653           SBLX     X1,SIZCHG,,PR7       Compute new size for page
   000720    007764 1010 03            654           CMPX    X1,4*CP6PGSZW,DU GREATER THAN ACTIVE PAGE SIZE
   000721 (0)000475 6030 00            655           TRC      PGER2                Yes error
   000722    4 00000 4411 00           656           SXL      X1,SPAV,,PR4         Update space available
                                       657  *  ADJUST PAGE AND UPDATE RECORD POINTERS                               <EHW>
   000723 (0)000514 7010 00            658           ICCAL    ZIQ$DBICE,,NOALT     NO ALTRET OR EXC ALLOWED
   000724    000000 0020 00
                                       659  *  RETURN                                                               <EHW>
   000725                              660  RETRN  NULL                    NORMAL RETURN                            <EHW>
   000725    7 00470 2211 54           661         ICRET                                                            <EHW>
   000726    000001 7100 11
                                       662  *                                                                       <EHW>
                                       663  *  EXCEPTIONS                                                           <EHW>
                                       664  *                                                                       <EHW>
   000727                              665  NOSP1  NULL                    INVALID DBKEY CHANGE REQUIRED            <EHW>
   000727    234522 2350 07            666         LDA     IVDBK,DL                                                 <EHW>
   000730    000000 6200 00            667         EAX     X0,0            NULL AC                                  <EHW>
   000731  X 000000 7020 00            668         ICEXC                                                            <EHW>
                                       669         END

  CONTROL SECTION TABLE

   0 CODE   EVEN  000732
   1 RODATA EVEN  000000 LITERALS

 12:46 09/05/97  FILE=ZIM$DBIC.:ZIC0TSI       SYMBOL TABLE                                               24   BMAP - B00
 40000000 000000200000 .AC            *19
 40000000 000000000100 .AG            *19
 40000000 000000002000 .ALTO          *19
 40000000 000000000077 .ANL           *19
 40000000 000000200000 .APDN          *19
 40000000 000000000100 .ATMP          *19
 40000000 000000400000 .AV            *19
 41000000 000000400000 .B0            *19       339
 40000000 000000200000 .B1            *19
 40000000 000000000200 .B10           *19
 40000000 000000000100 .B11           *19
 40000000 000000000040 .B12           *19
 40000000 000000000020 .B13           *19
 40000000 000000000010 .B14           *19
 40000000 000000000004 .B15           *19
 40000000 000000000002 .B16           *19
 40000000 000000000001 .B17           *19
 41000000 000000400000 .B18           *19       117       173       353       362       391
 40000000 000000200000 .B19           *19
 40000000 000000100000 .B2            *19
 40000000 000000100000 .B20           *19
 40000000 000000040000 .B21           *19
 40000000 000000020000 .B22           *19
 40000000 000000010000 .B23           *19
 40000000 000000004000 .B24           *19
 40000000 000000002000 .B25           *19
 40000000 000000001000 .B26           *19
 40000000 000000000400 .B27           *19
 40000000 000000000200 .B28           *19
 40000000 000000000100 .B29           *19
 40000000 000000040000 .B3            *19
 40000000 000000000040 .B30           *19
 40000000 000000000020 .B31           *19
 40000000 000000000010 .B32           *19
 40000000 000000000004 .B33           *19
 40000000 000000000002 .B34           *19
 40000000 000000000001 .B35           *19
 12:46 09/05/97  FILE=ZIM$DBIC.:ZIC0TSI       SYMBOL TABLE                                               25   BMAP - B00
 40000000 000000020000 .B4            *19
 40000000 000000010000 .B5            *19
 40000000 000000004000 .B6            *19
 40000000 000000002000 .B7            *19
 40000000 000000001000 .B8            *19
 40000000 000000000400 .B9            *19
 40000000 000000000001 .BREAK         *19
 40000000 000000010000 .BRK           *19
 40000000 000000020000 .BTB           *19
 40000000 000000000001 .CAC           *19
 40000000 000000000000 .CAE           *19
 40000000 000000000200 .CANSSS        *19
 40000000 000000000400 .CD            *19
 40000000 000000040000 .CFLC          *19
 40000000 000000400000 .CHKSUM        *19
 40000000 000000100000 .CJRNL         *19
 40000000 000000000077 .CNSZ          *19
 40000000 000000160000 .COMC          *19
 40000000 000000000020 .CONT          *19
 40000000 000000000000 .CSE           *19
 40000000 000000700000 .CTYP          *19
 41000000 000000000270 .DBEST         *19
 41000000 000000000470 .DBIC          *19        45       258       315       425       476       560
                                      579       587       589       597       599       607       628
                                      661
 40000000 000000077777 .DBPT          *19
 41000000 000000000370 .DBSTK         *19
 40000000 000000020000 .DELM          *19
 40000000 000000002000 .DIDP          *19
 40000000 000000000077 .DNDX          *19
 40000000 000000600000 .DORD          *19
 40000000 000000000200 .DP            *19
 40000000 000000100000 .DPS           *19
 40000000 000000200000 .DPSA          *19
 40000000 000000400000 .DPST          *19
 40000000 000000000002 .DUMP          *19
 40000000 000000002000 .DUPC          *19
 12:46 09/05/97  FILE=ZIM$DBIC.:ZIC0TSI       SYMBOL TABLE                                               26   BMAP - B00
 40000000 000000010000 .DUPP          *19
 40000000 000000200000 .EBCL          *19
 40000000 000000400000 .EBCM          *19
 40000000 000000200000 .ENCRP         *19
 40000000 000000000077 .ENDX          *19
 40000000 000000000400 .ENQ           *19
 40000000 000000004000 .ETC           *19
 40000000 000000000400 .EXIT          *19
 40000000 000000000200 .FMOD          *19
 40000000 000000000077 .FNL           *19
 40000000 000000000074 .FORG          *19
 40000000 000000002000 .FR            *19
 40000000 000000000100 .FSR           *19
 40000000 000000003400 .FUSE          *19
 40000000 000000010000 .FVF           *19
 40000000 000000040000 .FVR           *19
 40000000 000000000010 .INDEXED       *19
 40000000 000000777777 .IXID          *19
 40000000 000000001777 .IXNUM         *19
 40000000 000000000004 .KEYED         *19
 40000000 000000010000 .LCK           *19
 40000000 000000400000 .LEIL          *19
 40000000 000000001000 .LG            *19
 40000000 000000000002 .LOAD          *19
 40000000 000000020000 .MAR           *19
 40000000 000000000007 .MEMT          *19
 40000000 000000010000 .MRL           *19
 40000000 000000040000 .MSM           *19
 60000000 000000000001 .N6685         *19
 40000000 000000100000 .NAI           *19
 40000000 000000200000 .NBI           *19
 40000000 000000000002 .NCIA          *19
 40000000 000000040000 .NMV           *19
 40000000 000000017777 .NOENT         *19
 40000000 000000400000 .OA            *19
 40000000 000000740000 .OPEV          *19
 40000000 000000100000 .OSM           *19
 12:46 09/05/97  FILE=ZIM$DBIC.:ZIC0TSI       SYMBOL TABLE                                               27   BMAP - B00
 40000000 000000100000 .PAFIL         *19
 40000000 000000200000 .PAHVR         *19
 40000000 000000000001 .PAIA          *19
 40000000 000000040000 .PALIL         *19
 40000000 000000020000 .PALVR         *19
 40000000 000000400000 .PANLL         *19
 40000000 000000400000 .PCKD          *19
 40000000 000000001600 .PMOD          *19
 40000000 000000000520 .PRCSE         *19
 40000000 000000000007 .PSTO          *19
 40000000 000000006040 .PTAS          *19
 40000000 000000010100 .PTCHK         *19
 40000000 000000010200 .PTDEC         *19
 40000000 000000010140 .PTENC         *19
 40000000 000000020000 .RA            *19
 40000000 000000100000 .RC            *19
 40000000 000000400000 .RELEASE       *19
 40000000 000000000017 .RELT          *19
 40000000 000000004000 .RERA          *19
 40000000 000000400000 .RERS          *19
 40000000 000000010000 .RKEY          *19
 40000000 000000000077 .RNL           *19
 40000000 000000200000 .RSTO          *19
 40000000 000000007777 .RTYP          *19
 40000000 000000040000 .SC            *19
 40000000 000000000070 .SETM          *19
 40000000 000000740000 .SETO          *19
 40000000 000000000700 .SETT          *19
 40000000 000000040000 .SFNP          *19
 40000000 000000004000 .SM            *19
 40000000 000000020000 .SMOD          *19
 40000000 000000000077 .SNL           *19
 40000000 000000020000 .SNSS          *19
 40000000 000000010000 .SO            *19
 40000000 000000100000 .SR            *19
 40000000 000000004000 .SRCR          *19
 40000000 000000001000 .SS            *19
 12:46 09/05/97  FILE=ZIM$DBIC.:ZIC0TSI       SYMBOL TABLE                                               28   BMAP - B00
 40000000 000000000007 .SSTP          *19
 40000000 000000004000 .SYN           *19
 40000000 000000000040 .SYNC          *19
 40000000 000000020000 .TJRNL         *19
 40000000 000000040000 .TMPLT         *19
 40000000 000000040000 .TRACE         *19
 40000000 000000000001 .TRENTRY       *19
 40000000 000000000012 .TRIDEL        *19
 40000000 000000000021 .TRIDELENQ     *19
 40000000 000000000024 .TRIDEQ        *19
 40000000 000000000013 .TRIMOD        *19
 40000000 000000000022 .TRIMODENQ     *19
 40000000 000000000014 .TRIREAD       *19
 40000000 000000000023 .TRIREADENQ    *19
 40000000 000000000011 .TRISTO        *19
 40000000 000000000020 .TRISTOENQ     *19
 40000000 000000000017 .TRPDEQ        *19
 40000000 000000000004 .TRPMOD        *19
 40000000 000000000016 .TRPMODENQ     *19
 40000000 000000000002 .TRPREAD       *19
 40000000 000000000015 .TRPREADENQ    *19
 40000000 000000000003 .TRPWRITE      *19
 40000000 000000000010 .TRRACC        *19
 40000000 000000000006 .TRRDEL        *19
 40000000 000000000007 .TRRMOD        *19
 40000000 000000000005 .TRRSTO        *19
 40000000 000000004000 .ULCK          *19
 40000000 000000400000 .UPDT          *19
 40000000 000000000040 .VIA           *19
 60000000 000000000001 A              *19
 40000000 000000000002 ABAS           *19
 40000000 000000000001 AC             *19
 40000000 777777777760 ACDEF          *19
 40000000 000000211070 ACDNL          *19
 40000000 000000000003 ACID           *19
 40000000 000000001016 ACOPN          *19
 40000000 000000000002 ACP            *19
 12:46 09/05/97  FILE=ZIM$DBIC.:ZIC0TSI       SYMBOL TABLE                                               29   BMAP - B00
 40000000 000000000005 ACPTR          *19
 40000000 000000000002 ACRAH          *19
 40000000 000000000001 ACRAN          *19
 40000000 000000001003 ACREC          *19
 40000000 000000000001 ACTDBCB        *19
 40000000 000000000002 ACTDBNO        *19
 40000000 000000001017 ACTP           *19
 40000000 000000000000 ACTSSS         *19
 40000000 000000000000 ACTSZ          *19
 01101000 000000000133 ADDL           101       122      *145
 40000000 000000210565 AFNP           *19
 40000000 000000000635 AFT            *19
 40000000 000000022124 AIR            *19
 40000000 000000000016 AMAX           *19
 40000000 000000000026 ANAM           *19
 01101000 000000000667 ANOU           583      *611
 01101000 000000000316 ANP1            50      *283
 40000000 000000021614 ANR            *19
 40000000 000000000001 APNO           *19
 40000000 000000210562 ARGER          *19
 41000000 000000000020 ARGS           *19
 40000000 000000000077 ARGS2          *19
 40000000 000000210713 ARNAF          *19
 40000000 000000000003 ATBL           *19
 40000000 000000000000 ATRIB          *19
 41000000 000000000002 AVLN           *19        90        92       207       217       338       340
                                      341       481
 40000000 000000000013 AWS$           *19
 40000000 000000000010 AWSZ           *19
 61000000 000000000001 B              *19       333
 40000000 000000001006 B32N           *19
 40000000 000000001007 B36N           *19
 40000000 000000001056 B72N           *19
 40000000 000000000001 BADDR          *19
 40000000 000000210712 BADSEED        *19
 40000000 777777777765 BDCW           *19
 40000000 000000000633 BEF            *19
 12:46 09/05/97  FILE=ZIM$DBIC.:ZIC0TSI       SYMBOL TABLE                                               30   BMAP - B00
 40000000 000000020000 BEFW           *19
 40000000 000000000751 BEMT           *19
 40000000 777777777761 BID            *19
 40000000 777777777762 BIND           *19
 40000000 000000000007 BLKD           *19
 40000000 000000303331 BME02          *19
 41000000 000000001203 BMPB           *19
 00101000 000000000667 BMRE1         *612
 40000000 000000000652 BN1            *19
 40000000 000000000654 BN2            *19
 41000000 000000000004 BPL            *19       248
 40000000 000000000015 BPLDBK         *19
 40000000 000000000034 BSPG           *19
 40000000 777777777763 BSTAT          *19
 40000000 000000000750 BTX0           *19
 41000000 000000001160 BUF4           *19
 41000000 000000001170 BUF6           *19
 41000000 000000000000 BUFORG         *19
 40000000 000000001060 BUFRQ          *19
 40000000 000000000006 BURRID         *19
 41000000 000000000020 BWASZ          *19
 60000000 000000000001 C              *19
 40000000 000000000050 CAAC           *19
 40000000 000000000050 CACD           *19
 40000000 000000000111 CAG            *19
 41000000 000000001033 CAL            *19        99       100       174       177       351       352
                                      360       361       392       394
 40000000 000000000026 CALLPM0        *19
 40000000 000000000003 CANSSS         *19
 40000000 000000000003 CBCPA          *19
 40000000 000000000002 CBCPO          *19
 40000000 000000000002 CBENO          *19
 40000000 000000000014 CBFSZ          *19
 41000000 000000000753 CBIB           *19       233       243       295       416       419       449
 40000000 000000001030 CBID           *19
 40000000 000000000014 CBRCE          *19
 40000000 000000000014 CBRCP          *19
 12:46 09/05/97  FILE=ZIM$DBIC.:ZIC0TSI       SYMBOL TABLE                                               31   BMAP - B00
 40000000 000000001033 CBRID          *19
 40000000 000000000015 CBRPA          *19
 40000000 000000000031 CCHAR          *19
 40000000 000000000040 CDBK           *19
 40000000 000000000030 CDES           *19
 40000000 000000000110 CDP            *19
 40000000 000000001044 CDPSI          *19
 40000000 000000000002 CDRH           *19
 40000000 000000000003 CDRN           *19
 40000000 000000000002 CDSH           *19
 40000000 000000000003 CDSN           *19
 40000000 000000000722 CENTRN         *19
 40000000 000000000722 CENTRO         *19
 40000000 000000000716 CENTRY         *19
 41000000 000000001053 CFCT           *19
 40000000 000000000670 CFLPT1         *19
 40000000 000000000672 CFLPT2         *19
 40000000 000000000015 CFSA           *19
 40000000 000000000646 CHDBK          *19
 01101000 000000000416 CHKFLAG        354      *375
 40000000 000000000773 CHR            *19
 40000000 000000000006 CHRD           *19
 40000000 000000000772 CHRO           *19
 40000000 000000007640 CHRTP          *19
 40000000 000000001043 CIAC           *19
 40000000 000000000012 CIAWS          *19
 40000000 000000001051 CIBSI          *19
 40000000 000000000516 CIND           *19
 40000000 000000001041 CINVSZ         *19
 40000000 000000001042 CIPG           *19
 40000000 000000001050 CIPSI          *19
 40000000 000000000000 CIRUN          *19
 40000000 000000000002 CIRWS          *19
 40000000 000000000002 CISWS          *19
 40000000 000000000014 CIWSOF         *19
 40000000 000000303374 CKSM           *19
 40000000 000000000022 CLCN           *19
 12:46 09/05/97  FILE=ZIM$DBIC.:ZIC0TSI       SYMBOL TABLE                                               32   BMAP - B00
 40000000 000000000023 CLCP           *19
 40000000 000000000003 CLCRC          *19
 40000000 000000000003 CLCSC          *19
 40000000 000000000237 CLI            *19
 40000000 000000000026 CLNG           *19
 40000000 000000000052 CMPL           *19
 40000000 000000000002 CN             *19
 40000000 000000303315 CNE1           *19
 40000000 000000006034 CNUL           *19
 40000000 000000100000 COB74          *19
 40000000 000000000001 COFS           *19
 40000000 000000000045 CONCD          *19
 40000000 000000007764 CP6PGSZB       *19
 41000000 000000001775 CP6PGSZW       *19        66        98       114       124       141       142
                                      178       199       213       219       334       342       350
                                      359       388       389       395       489       518       654
 41000000 000000001000 CPGR           *19        58        75        84       247
 40000000 000000000723 CPTRN          *19
 40000000 000000000723 CPTRO          *19
 61000000 000000000004 CPW            *19        90       133       155       164       341
 40000000 000000000112 CRA            *19
 40000000 000000001004 CRD            *19
 41000000 000000000764 CREC           *19       200       212       255       484       492       516
                                      631       632       636
 40000000 000000006344 CRIT           *19
 40000000 000000006200 CRNUL          *19
 40000000 000000007330 CRST           *19
 41000000 000000001223 CRUN           *19
 41000000 000000000000 CSECT          *19
 40000000 000000000007 CSMPP          *19
 40000000 000000001000 CSPAC          *19
 40000000 000000000004 CSPAH          *19
 40000000 777777777776 CSPES          *19
 40000000 777777777776 CSPSB          *19
 40000000 000000000115 CSTS           *19
 40000000 000000000071 CSUB           *19
 40000000 000000000017 CSZ            *19
 12:46 09/05/97  FILE=ZIM$DBIC.:ZIC0TSI       SYMBOL TABLE                                               33   BMAP - B00
 40000000 000000000057 CTMASK         *19
 40000000 000000000774 CTPAI          *19
 40000000 000000000240 CURLN          *19
 40000000 000000000236 CURLT          *19
 40000000 000000000770 CURPG          *19
 40000000 000000000001 CURR           *19
 40000000 000000000035 CURRS          *19
 40000000 000000000037 CURSS          *19
 40000000 000000001005 CWRT           *19
 40000000 000000000237 CWSOF          *19
 60000000 000000000001 D              *19
 40000000 000000000003 DBAN           *19
 40000000 000000000036 DBDR           *19
 40000000 000000000037 DBFN           *19
 40000000 000000000754 DBK            *19
 40000000 000000000777 DBKAC          *19
 40000000 000000000000 DBKEY          *19
 40000000 000000000000 DBKL           *19
 40000000 000000007474 DBKN           *19
 41000000 000000000776 DBKR           *19        49        52
 40000000 000000000777 DBKRQ          *19
 40000000 000000000234 DBKSI          *19
 40000000 000000000651 DBKSR          *19
 40000000 000000000047 DBKYN          *19
 40000000 000000210652 DBLC01         *19
 40000000 000000210653 DBLC05         *19
 40000000 000000303334 DBLC07         *19
 40000000 000000210655 DBLD01         *19
 41000000 000000000010 DBLIM          *19        53        79       251
 40000000 000000000033 DBPKY          *19
 40000000 000000000023 DBRN           *19
 40000000 000000000013 DBSN           *19
 40000000 000000000001 DBST           *19
 40000000 000000000757 DCDSR          *19
 40000000 000000210650 DCE1           *19
 40000000 000000001053 DCPR           *19
 40000000 000000001053 DCPW           *19
 12:46 09/05/97  FILE=ZIM$DBIC.:ZIC0TSI       SYMBOL TABLE                                               34   BMAP - B00
 40000000 000000000015 DCTBL          *19
 40000000 000000000032 DDBK           *19
 40000000 000000000006 DDCB           *19
 40000000 000000011754 DDI            *19
 40000000 000000000000 DEF            *19
 40000000 000000000014 DEF2           *19
 40000000 000000303413 DELAK          *19
 40000000 000000000036 DELRS          *19
 40000000 000000000732 DEPCW          *19
 40000000 000000303414 DLDBK          *19
 40000000 000000210627 DLE1           *19
 40000000 000000303310 DLE2           *19
 40000000 000000210631 DLE3           *19
 40000000 000000016040 DNES           *19
 01101000 000000000177 DNLL           170      *185
 40000000 777777777777 DPAGN          *19
 40000000 000000000020 DPPI           *19
 40000000 000000000053 DPSLW          *19
 01101000 000000000511 DRET           431       434       437       444       452      *454
 40000000 000000000003 DS             *19
 40000000 000000001063 DSDES          *19
 40000000 000000303316 DSE1           *19
 40000000 000000000735 DUSEPA         *19
 60000000 000000000001 E              *19
 40000000 000000303251 EDPER          *19
 40000000 000000000026 EEIND          *19
 40000000 000000000713 EFIND          *19
 41000000 000000001030 ELO            *19       519       523       551       553
 01101000 000000000575 ELOK           527       529      *532
 40000000 000000210711 ENCPNA         *19
 40000000 000000000007 ENCRP          *19
 40000000 000000000752 ENDSR          *19
 40000000 000000210647 ENE1           *19
 40000000 000000000716 ENIND          *19
 40000000 000000000013 ENTBL          *19
 40000000 000000000710 ENTNO          *19
 40000000 000000000712 ENTPTR         *19
 12:46 09/05/97  FILE=ZIM$DBIC.:ZIC0TSI       SYMBOL TABLE                                               35   BMAP - B00
 40000000 000000000717 ENTSZ          *19
 40000000 000000000711 ENTTYP         *19
 40000000 000000004064 EOSR           *19
 40000000 000000000004 ES             *19
 41000000 000000000100 ESTSZ          *19
 40000000 000000000725 ESZ            *19
 40000000 000000000005 ETCADR         *19
 40000000 000000000005 ETCDBNO        *19
 40000000 000000000064 EXCCD          *19
 40000000 000000234534 FALRT          *19
 40000000 000000001055 FBF72          *19
 40000000 000000001025 FBU61          *19
 40000000 000000001020 FBUF           *19
 40000000 000000001026 FBUF1          *19
 40000000 000000001027 FBUF4          *19
 40000000 000000001024 FBUF6          *19
 40000000 000000001022 FBUFM          *19
 40000000 000000001021 FBUFU          *19
 40000000 000000001023 FBUMD          *19
 40000000 000000000004 FCN            *19
 40000000 000000000051 FCNT           *19
 40000000 000000000002 FCP            *19
 40000000 000000000047 FCSS           *19
 40000000 000000000005 FD             *19
 40000000 000000210637 FDE1           *19
 40000000 000000303320 FDE2           *19
 40000000 000000303321 FDE3           *19
 40000000 000000210642 FDE4           *19
 40000000 000000210643 FDE5           *19
 40000000 000000210644 FDE6           *19
 40000000 000000303325 FDE7           *19
 40000000 000000303326 FDE8           *19
 40000000 000000000021 FEASZ          *19
 40000000 000000000740 FETM           *19
 40000000 000000000006 FI             *19
 40000000 000000000103 FIAC           *19
 41000000 000000001100 FIB1           *19
 12:46 09/05/97  FILE=ZIM$DBIC.:ZIC0TSI       SYMBOL TABLE                                               36   BMAP - B00
 41000000 000000001130 FIBP           *19
 40000000 000000000000 FIBX           *19
 40000000 000000000102 FICNT          *19
 01101000 000000000204 FINFS          143      *192
 40000000 000000000005 FIPN           *19
 40000000 000000000054 FKIND          *19
 40000000 000000000015 FLAGS          *19
 40000000 000000000244 FLDDSC         *19
 40000000 000000000046 FLDTL          *19
 40000000 000000000020 FMSBF          *19
 40000000 000000000006 FNAM           *19
 40000000 000000000250 FNIND          *19
 40000000 000000000004 FNL            *19
 40000000 000000000101 FRAC           *19
 40000000 000000000002 FRANGE         *19
 40000000 000000211400 FRDNL          *19
 40000000 000000200000 FRTRN          *19
 40000000 000000000005 FRWSO          *19
 40000000 000000000767 FSLN           *19
 41000000 000000000766 FSOF           *19       517       528       541
 40000000 000000000060 FTIND          *19
 40000000 000000303240 FTLINCR        *19
 40000000 000000000021 FWSSZ          *19
 40000000 000000000246 GACDK          *19
 40000000 000000000014 GDCB           *19
 41000000 000000000006 GERROR         *19        50        59       237       240       318       418
 40000000 000000000016 GINHIB         *19
 40000000 000000000020 GIOAWS         *19
 41000000 000000000022 GIOBUF         *19       582       585       592       595       602       605
 41000000 000000000021 GIOPGNO        *19       300       454
 41000000 000000000015 GPAGE          *19       301       455
 40000000 000000000010 GRETAC         *19
 40000000 000000000011 GRETFR         *19
 40000000 000000000013 GRETRC         *19
 40000000 000000000012 GRETSC         *19
 40000000 000000000025 GRLCW          *19
 40000000 000000000014 GSTCD          *19
 12:46 09/05/97  FILE=ZIM$DBIC.:ZIC0TSI       SYMBOL TABLE                                               37   BMAP - B00
 40000000 000000000007 GSYSERR        *19
 40000000 000000000010 GT             *19
 01101000 000000000114 GTL1           109      *126
 40000000 000000000046 GTRNAME        *19
 40000000 000000000055 GTRPDCB        *19
 40000000 000000000056 GTRPNO         *19
 40000000 000000000057 GTRRDBK        *19
 40000000 000000000060 GTRRTYPE       *19
 40000000 000000000060 GTRTYPE        *19
 40000000 000000000027 HASH           *19
 40000000 000000000022 HIA            *19
 41000000 000000000775 HIDB           *19        46        78
 40000000 000000000003 HIGHDBK        *19
 40000000 000000000004 HIGHPG         *19
 41000000 000000001037 HIL            *19        88       127       147
 41000000 000000000002 HILN           *19        61       190       222       321       640
 40000000 000000000006 HPOS           *19
 40000000 000000000756 IAAC           *19
 40000000 000000001011 IACLN          *19
 40000000 000000001010 IALC           *19
 40000000 000000010314 IAN            *19
 40000000 000000001012 IANLN          *19
 40000000 000000000001 IASID          *18
 40000000 000000020320 ICA            *19
 40000000 000000000023 ICKSMP         *19
 40000000 000000000024 ICKSMV         *19
 40000000 000000210742 ICNR           *19
 41000000 000000000020 ICSIZ          *19
 40000000 000000010004 IDBK           *19
 40000000 000000012120 IDI            *19
 40000000 000000000023 IDS            *19
 40000000 000000000011 IF             *19
 40000000 000000000021 IFIPN          *19
 40000000 000000000000 IFR            *19
 40000000 000000234546 IKSEQ          *19
 40000000 000000000113 INAFLAG        *19
 40000000 000000000016 INCHA          *19
 12:46 09/05/97  FILE=ZIM$DBIC.:ZIC0TSI       SYMBOL TABLE                                               38   BMAP - B00
 40000000 000000210566 INNM           *19
 40000000 000000210567 INSS           *19
 40000000 000000210575 INSST          *19
 40000000 000000303241 INTER          *19
 40000000 000000400000 INTII          *19
 40000000 000000000013 INTVL          *19
 01101000 000000000265 INVDN          238      *241
 41000000 000000001060 INVFLG         *19       230       235       330       380       412
 40000000 000000001043 INVOF          *19
 41000000 000000000014 INVT           *19       231       410       414
 40000000 000000000034 IOBLK          *19
 40000000 000000303354 IOCLSD         *19
 40000000 000000303355 IOCLSK         *19
 40000000 000000303257 IOE1           *19
 41000000 000000303264 IOE11          *19       272       430
 40000000 000000303265 IOE12          *19
 40000000 000000303266 IOE18          *19
 40000000 000000303260 IOE2           *19
 40000000 000000303261 IOE3           *19
 41000000 000000303262 IOE7           *19       275       436
 41000000 000000303263 IOE8           *19       278       433
 40000000 000000303363 IOFLSH         *19
 40000000 000000210676 IOGDCB         *19
 40000000 000000001002 IOINC          *19
 40000000 000000305160 IOINI          *19
 40000000 000000305155 IONOTIDS       *19
 40000000 000000305154 IONOTKEY       *19
 40000000 000000210677 IOOPND         *19
 40000000 000000210700 IOOPNK         *19
 40000000 000000303361 IORDD          *19
 40000000 000000305156 IOSCHEMA       *19
 41000000 000000001052 IOSTS          *19       294       448
 40000000 000000303362 IOWRTD         *19
 41000000 000000000750 IOWS           *19
 40000000 000000000647 IPC            *19
 40000000 000000000650 IPCF           *19
 40000000 000000000006 IROLLFLAG      *19
 12:46 09/05/97  FILE=ZIM$DBIC.:ZIC0TSI       SYMBOL TABLE                                               39   BMAP - B00
 40000000 000000010150 IRSN           *19
 40000000 000000000004 ISYSDCB        *19
 40000000 000000000005 ISYSERR        *19
 40000000 000000000061 ITPTR          *19
 40000000 000000000060 ITRS           *19
 01101000 000000000317 IUER1          237       240      *293
 01101000 000000000504 IUER2          418      *447
 40000000 000000021760 IUM            *19
 40000000 000000000017 IUSZ           *19
 41000000 000000234522 IVDBK          *19       666
 40000000 000000000011 IXBUF$         *19
 40000000 000000000046 IXFBSZ         *19
 40000000 777777777776 IXID           *19
 40000000 777777777777 IXPLL          *19
 40000000 000000000523 KCARG0         *19
 41000000 000000000524 KCARG3         *19       581       584       591       594       601       604
 40000000 000000000525 KCARG4         *19
 40000000 000000000700 KCREG          *19
 40000000 000000000006 KDCB           *19
 40000000 000000000666 KEYDS          *19
 40000000 000000000010 KEYPA          *19
 40000000 777777777776 KLNG           *19
 40000000 000000000022 KPASZ          *19
 40000000 000000000006 KWSZ           *19
 40000000 000000000052 LANGC          *19
 40000000 000000001014 LAS            *19
 00101000 000000000316 LBER1         *287
 00101000 000000000503 LBER2         *442
 40000000 000000700000 LCODM          *19
 40000000 000000001045 LDPSI          *19
 40000000 000000001071 LINPT          *19
 01101000 000000000070 LNAV            95      *102
 41000000 000000001017 LNCNT          *19       521       533       537       547       554
 01101000 000000000312 LNER1          107      *274
 01101000 000000000314 LNER2          118      *277
 01101000 000000000477 LNER4          363      *432
 01101000 000000000501 LNER5          367      *435
 12:46 09/05/97  FILE=ZIM$DBIC.:ZIC0TSI       SYMBOL TABLE                                               40   BMAP - B00
 01101000 000000000423 LNKDL          365       369       378      *382
 41000000 000000000762 LNNO           *19       103       105       115       116       120       136
                                      152       169       189       208       250       368       383
                                      390
 41000000 000000001036 LOL            *19        76       108       149       151
 40000000 000000000715 LOLIM          *19
 01101000 000000000564 LOOP2         *522       557
 01101000 000000000071 LP1           *104       121
 01101000 000000000156 LP2           *167       184
 01101000 000000000375 LP4            348      *356       373
 40000000 000000000023 LPASZ          *19
 41000000 000000000012 LPP            *19        54        80        86       225       252       376
 40000000 000000257764 LR             *19
 40000000 000000301270 LRA            *19
 01101000 000000000546 LRMOVE         498      *505
 40000000 000000000017 LRSZ           *19
 41000000 000000001035 LSPC           *19       156       158       187
 40000000 000000000750 LUPD           *19
 61000000 000000000001 M9             *19
 40000000 000000000013 MD             *19
 40000000 000000300000 MDQS           *19
 40000000 000000000730 MEMPTR         *19
 40000000 000000000727 MEMTYP         *19
 40000000 000000000045 MODCD          *19
 41000000 000000001207 MODFL          *19
 40000000 000000000042 MODFR          *19
 40000000 000000000044 MODIN          *19
 40000000 000000000044 MODRS          *19
 40000000 000000000043 MODSC          *19
 40000000 000000000047 MRBKI          *19
 40000000 000000210632 MRE4           *19
 40000000 000000303313 MRE5           *19
 40000000 000000210634 MRE7           *19
 40000000 000000400000 MW             *19
 40000000 000000000025 NCH            *19
 40000000 000000000002 NCHA           *19
 40000000 000000000005 NCHRS          *19
 12:46 09/05/97  FILE=ZIM$DBIC.:ZIC0TSI       SYMBOL TABLE                                               41   BMAP - B00
 01101000 000000000624 NCOM           512      *558
 40000000 000000000014 NDCD           *19
 01101000 000000000113 NEGCP6PGSZB   *125       132       163
 40000000 000000000012 NENC           *19
 40000000 000000000634 NEW            *19
 41000000 000000001072 NEWSIZ         *19       402       477       488       494       638
 41000000 000000235164 NKA            *19       266
 40000000 000000235020 NKDB           *19
 40000000 000000303415 NLDBK          *19
 40000000 777777777777 NLIND          *19
 41000000 000000001040 NLN            *19        63       106       146       153       168       179
                                      183       194       323       366       377       482       536
                                      556       642
 01101000 000000000306 NLNO           128       148       159      *265
 40000000 000000400000 NLNSA          *19
 41000000 000000001053 NOBF           *19
 01101000 000000000716 NOCHK          645      *651
 40000000 000000000711 NOPTRS         *19
 01101000 000000000304 NOSP            70      *262
 01101000 000000000727 NOSP1          650      *665
 40000000 000000000742 NPARCW         *19
 40000000 000000000630 NPIND          *19
 40000000 000000000004 NPOS           *19
 41000000 000000234510 NSA            *19       263
 40000000 000000234654 NSCS           *19
 40000000 000000234344 NSDB           *19
 40000000 000000000001 NSTS           *19
 01101000 000000000123 NTF1           131      *135
 01101000 000000000156 NTF2           162      *166
 01101000 000000000271 NUIC           232      *245
 40000000 000000000726 NUMENT         *19
 40000000 000000000727 NUMPTR         *19
 40000000 777777777760 NXBUF          *19
 40000000 000000000713 NXPRI          *19
 40000000 000000000771 NXTC           *19
 40000000 000000000001 OAACN          *19
 40000000 000000000022 OACIWSOF       *19
 12:46 09/05/97  FILE=ZIM$DBIC.:ZIC0TSI       SYMBOL TABLE                                               42   BMAP - B00
 40000000 000000000001 OAOFST         *19
 40000000 000000000002 OARCN          *19
 40000000 000000000001 OASCN          *19
 40000000 000000000014 OD             *19
 40000000 000000000074 ODBK           *19
 41000000 000000001072 OLDSIZ         *19       400       495       630       639
 01101000 000000000611 OLOK           540       542      *545
 40000000 000000000101 OPADP          *19
 40000000 000000000741 OPARCW         *19
 40000000 000000210570 ORDNI          *19
 40000000 777777777777 OTVL           *19
 40000000 000000000252 OWNPTR         *19
 40000000 000000000016 PABUF          *19
 41000000 000000001041 PACD           *19       580       586       590       596       600       606
                                      613
 40000000 000000000001 PACW           *19
 40000000 000000000733 PADBK          *19
 40000000 000000000740 PADUP          *19
 40000000 000000000745 PAEN           *19
 40000000 000000000745 PAEO           *19
 40000000 000000000734 PAEOF          *19
 40000000 000000303336 PAER1          *19
 40000000 000000303337 PAER2          *19
 40000000 000000303340 PAER3          *19
 40000000 000000303341 PAER4          *19
 40000000 000000303342 PAER5          *19
 40000000 000000303343 PAER6          *19
 40000000 000000000747 PAESZ          *19
 40000000 000000001060 PAFLG          *19
 40000000 000000000731 PAOPTR         *19
 40000000 000000000734 PAPOF          *19
 40000000 000000000714 PARCW          *19
 40000000 000000000726 PARVPA         *19
 40000000 000000000724 PASPLT         *19
 40000000 000000000004 PAWSZ          *19
 40000000 777777777762 PBUF           *19
 40000000 000000000020 PC             *19
 12:46 09/05/97  FILE=ZIM$DBIC.:ZIC0TSI       SYMBOL TABLE                                               43   BMAP - B00
 41000000 000000000510 PCB            *19
 40000000 000000000642 PCD            *19
 40000000 000000000642 PCD2           *19
 40000000 000000000247 PCEXI          *19
 40000000 000000000675 PCMIN          *19
 40000000 000000004541 PCOMP          *19
 40000000 000000000010 PD             *19
 40000000 000000000040 PE             *19
 40000000 000000000017 PENDING        *19
 40000000 000000000004 PF             *19
 40000000 000000000400 PFG            *19
 40000000 000000000200 PFM            *19
 40000000 000000000100 PFS            *19
 40000000 000000000400 PG             *19
 01101000 000000000310 PGER1           67      *271
 01101000 000000000475 PGER2          335      *429       655
 01101000 000000000503 PGER3          318      *440
 40000000 000000001064 PGHD           *19
 40000000 000000000006 PGLIM          *19
 40000000 000000000003 PGRNG          *19
 40000000 000000000746 PGSIZE         *19
 40000000 000000000641 PGSPLT         *19
 41000000 000000007764 PGSZB         *124       125
 01101000 000000000026 PIB1            59       *60
 40000000 000000000100 PKAW           *19
 41000000 000000001034 PLO            *19        91       112       130       134       139       161
                                      165       175       182       345       355       357       372
                                      386
 41000000 000000000004 PLSEP          *19        55        81
 40000000 000000000200 PM             *19
 40000000 000000001054 PNEOO          *19
 40000000 000000001047 POFSI          *19
 40000000 000000000005 PPOS           *19
 40000000 000000000000 PR0            *18
 40000000 000000000001 PR1            *18
 40000000 000000000002 PR2            *18
 41000000 000000000003 PR3            *18       254       256       325       581       584       591
 12:46 09/05/97  FILE=ZIM$DBIC.:ZIC0TSI       SYMBOL TABLE                                               44   BMAP - B00
                                      594       601       604       631
 41000000 000000000004 PR4            *18        61        65        92        98       114       141
                                      142       178       186       188       190       197       202
                                      204       207       213       216       217       220       222
                                      233       243       254       295       321       331       336
                                      338       340       350       359       388       389       395
                                      407       416       419       449       481       486       501
                                      502       509       510       524       550       582       585
                                      592       595       602       605       640       648       652
                                      656
 41000000 000000000005 PR5            *18        50        59       237       240       301       318
                                      418       455       582       585       592       595       602
                                      605
 41000000 000000000006 PR6            *18        53        54        55        79        80        81
                                       86       225       231       248       251       252       376
                                      410       414
 41000000 000000000007 PR7            *18        45        46        47        49        51        52
                                       58        63        68        69        75        76        78
                                       84        88        91        99       100       103       105
                                      106       108       112       115       116       120       127
                                      130       134       136       139       146       147       149
                                      151       152       153       156       157       158       161
                                      165       168       169       174       175       177       179
                                      182       183       187       189       194       200       203
                                      208       212       230       233       235       242       243
                                      247       250       255       258       294       295       300
                                      315       319       323       326       330       332       345
                                      351       352       355       357       360       361       366
                                      368       372       377       380       383       386       390
                                      392       394       397       398       399       400       402
                                      404       408       412       416       419       425       448
                                      449       454       476       477       482       484       488
                                      492       494       495       497       507       515       516
                                      517       519       521       523       525       526       528
                                      530       531       533       536       537       539       541
                                      543       544       547       549       551       553       554
                                      556       560       579       580       581       584       586
 12:46 09/05/97  FILE=ZIM$DBIC.:ZIC0TSI       SYMBOL TABLE                                               45   BMAP - B00
                                      587       589       590       591       594       596       597
                                      599       600       601       604       606       607       613
                                      628       630       631       632       636       638       639
                                      642       644       649       653       661
 40000000 000000303267 PRE1           *19
 40000000 000000303277 PRE10          *19
 40000000 000000303270 PRE3           *19
 40000000 000000303271 PRE4           *19
 40000000 000000303272 PRE5           *19
 40000000 000000210613 PRE6           *19
 40000000 000000210614 PRE7           *19
 40000000 000000210615 PRE8           *19
 40000000 000000303276 PRE9           *19
 40000000 000000000522 PREXC          *19
 40000000 000000000521 PRFR           *19
 40000000 000000000521 PRFR2          *19
 40000000 000000000000 PRIV           *19
 40000000 000000000526 PROPA          *19
 40000000 000000000517 PRRC           *19
 40000000 000000000517 PRRS           *19
 40000000 000000000520 PRSC           *19
 40000000 000000000516 PRSS           *19
 40000000 000000000644 PRSTS          *19
 40000000 000000000100 PS             *19
 41000000 000000000000 PS0SID         *18
 41000000 000000000001 PS1SID         *18
 41000000 000000000002 PS2SID         *18
 41000000 000000000003 PS3SID         *18
 41000000 000000000004 PS4SID         *18
 40000000 000000000005 PS5SID         *18
 40000000 000000000006 PS6SID         *18
 40000000 000000303416 PSA            *19
 40000000 000000000020 PSC            *19
 40000000 000000000010 PSD            *19
 40000000 000000000004 PSF            *19
 40000000 000000000400 PSO            *19
 40000000 000000000720 PTESZ          *19
 12:46 09/05/97  FILE=ZIM$DBIC.:ZIC0TSI       SYMBOL TABLE                                               46   BMAP - B00
 40000000 000000000631 PTR            *19
 40000000 000000000724 PTRESZ         *19
 40000000 000000000710 PTRNO          *19
 01101000 000000000613 PUTBCK         538      *548
 41000000 000000000630 PWS            *19
 40000000 000000000002 RADDR          *19
 40000000 000000000010 RADIX          *19
 40000000 000000000005 RAPTR          *19
 40000000 000000000004 RAWSOF         *19
 40000000 777777777766 RBA            *19
 40000000 000000023432 RCBI           *19
 40000000 000000211234 RCDNL          *19
 40000000 000000000005 RCFRH          *19
 40000000 000000000004 RCFRN          *19
 40000000 000000001075 RCHD           *19
 40000000 000000000001 RCID           *19
 40000000 000000000006 RCPTR          *19
 40000000 000000000002 RCRAH          *19
 40000000 000000000001 RCRAN          *19
 40000000 000000000003 RCRSH          *19
 40000000 000000000002 RCRSN          *19
 40000000 000000210667 RCVER1         *19
 40000000 000000210670 RCVER2         *19
 40000000 000000210671 RCVER4         *19
 40000000 000000210672 RCVER5         *19
 40000000 000000210673 RCVER6         *19
 40000000 000000000736 RCW1           *19
 40000000 000000000737 RCW2           *19
 40000000 000000000004 RCWSO          *19
 40000000 000000000077 RDAC           *19
 40000000 000000000076 RDCNT          *19
 01101000 000000000316 RDER4           59      *284
 40000000 000000040000 RDI            *19
 40000000 000000015674 RDLT           *19
 40000000 000000000075 RDYCW          *19
 40000000 000000000066 RECAC          *19
 40000000 000000000065 RECFR          *19
 12:46 09/05/97  FILE=ZIM$DBIC.:ZIC0TSI       SYMBOL TABLE                                               47   BMAP - B00
 40000000 000000000070 RECRC          *19
 40000000 000000000067 RECSC          *19
 40000000 000000000003 RECSZ          *19
 40000000 000000000235 REMLT          *19
 40000000 000000000062 REM_RECOVER    *19
 40000000 000000000251 RETFR          *19
 01101000 000000000725 RETRN          646      *660
 40000000 000000210724 RFDNL          *19
 40000000 000000017644 RIM            *19
 40000000 000000000005 RNAM           *19
 40000000 000000015706 RNDLT          *19
 40000000 000000000662 RNG1           *19
 40000000 000000000664 RNG2           *19
 40000000 000000000073 RNGD           *19
 40000000 000000000072 RNGO           *19
 40000000 000000000660 RNGTAL         *19
 40000000 000000020154 RNM            *19
 40000000 000000000041 ROCUR          *19
 40000000 000000000001 ROFST          *19
 40000000 000000002114 ROLL           *19
 40000000 000000020010 RPM            *19
 40000000 000000000001 RSCDH          *19
 40000000 000000000001 RSCDN          *19
 40000000 000000211710 RSDNL          *19
 40000000 000000004540 RSEE           *19
 40000000 000000000003 RSIZ           *19
 40000000 000000000110 RSPAM          *19
 40000000 000000000004 RSPTR          *19
 40000000 000000000037 RSREQ          *19
 40000000 000000000002 RSSSH          *19
 40000000 000000000001 RSSSN          *19
 40000000 000000210574 RSZER          *19
 40000000 000000000632 RSZTP          *19
 40000000 000000000003 RTP            *19
 40000000 000000000003 RTYP           *19
 40000000 000000000530 RV1            *19
 40000000 000000000550 RV2            *19
 12:46 09/05/97  FILE=ZIM$DBIC.:ZIC0TSI       SYMBOL TABLE                                               48   BMAP - B00
 40000000 000000000570 RV3            *19
 40000000 000000000610 RV4            *19
 40000000 000000000003 RVASID         *18
 40000000 000000000510 RVI            *19
 40000000 000000000511 RVO            *19
 40000000 000000000513 RVPA           *19
 40000000 000000000512 RVT            *19
 40000000 000000000022 RVTAL          *19
 40000000 000000000002 RWSZ           *19
 40000000 000000000015 RY             *19
 40000000 000000210620 RYE1           *19
 40000000 000000210621 RYE4           *19
 40000000 777777777767 SA             *19
 40000000 000000000005 SANAM          *19
 40000000 000000001062 SCDES          *19
 40000000 000000211544 SCDNL          *19
 40000000 000000000024 SCFC           *19
 40000000 000000000002 SCID           *19
 40000000 000000000024 SCLST          *19
 40000000 000000000004 SCNAM          *19
 40000000 000000000004 SCPTR          *19
 40000000 000000000003 SCRSH          *19
 40000000 000000000002 SCRSN          *19
 40000000 000000000001 SCWSO          *19
 40000000 000000001225 SFWS           *19
 41000000 000000001073 SIZCHG         *19       398       497       507       530       543       644
                                      649       653
 40000000 000000000645 SKFLG          *19
 40000000 000000000643 SKIND          *19
 40000000 000000000641 SKTYP          *19
 40000000 000000020464 SMCR           *19
 01101000 000000000503 SMWE1          328      *441
 00101000 000000000316 SMWE7         *285
 01101000 000000000316 SMWE8          193      *286
 40000000 000000000003 SNAM           *19
 40000000 000000000107 SNIND          *19
 40000000 000000000735 SNPAE          *19
 12:46 09/05/97  FILE=ZIM$DBIC.:ZIC0TSI       SYMBOL TABLE                                               49   BMAP - B00
 40000000 000000001046 SNSI           *19
 40000000 000000000743 SOE            *19
 40000000 000000020630 SORSA          *19
 40000000 000000004374 SOSE           *19
 41000000 000000000000 SPAV           *19        65       186       188       197       202       204
                                      216       331       336       407       486       648       652
                                      656
 01101000 000000000261 SPAV0          236      *239
 40000000 000000000744 SPCAVN         *19
 40000000 000000000744 SPCAVO         *19
 41000000 000000000765 SPLF           *19        69       157
 41000000 000000000765 SPND           *19        47        68       203       326       332       397
                                      399       408
 01101000 000000000324 SRET           273       276       279       289       298      *300
 40000000 000000000006 SSDT           *19
 40000000 000000303243 SSER           *19
 40000000 000000303244 SSER1          *19
 40000000 000000000002 SSH            *19
 40000000 000000000005 SSNAM          *19
 40000000 000000210573 SSNF           *19
 40000000 000000210576 SSNV           *19
 40000000 000000000020 SSSPTR         *19
 40000000 000000000010 SSVDT          *19
 40000000 000000000033 SSZTP          *19
 40000000 000000000017 ST             *19
 40000000 000000000104 STBIN          *19
 40000000 000000000105 STDEC          *19
 40000000 000000303302 STE1           *19
 40000000 000000303303 STE2           *19
 40000000 000000210624 STE3           *19
 40000000 000000303305 STE4           *19
 40000000 000000303306 STE5           *19
 41000000 000000000100 STKSIZ         *19
 40000000 000000000055 STMASK         *19
 40000000 000000000062 SUST           *19
 41000000 000000000020 SWS            *19
 40000000 000000000000 SWSAC          *19
 12:46 09/05/97  FILE=ZIM$DBIC.:ZIC0TSI       SYMBOL TABLE                                               50   BMAP - B00
 40000000 000000000002 SWSZ           *19
 40000000 000000000000 SYSSF          *19
 40000000 000000000765 SZREQ          *19
 40000000 000000000004 TBUF           *19
 40000000 000000001061 TCTRS          *19
 60000000 000000000000 TDS            *19
 41000000 000000000113 TEMP           *19
 40000000 000000000640 TFLD           *19
 40000000 000000000657 TFLD2          *19
 40000000 000000000056 TMASK          *19
 40000000 000000000061 TMODE          *19
 40000000 000000000676 TMPPA          *19
 40000000 000000000003 TPAI           *19
 40000000 000000500000 TPRCOD         *19
 40000000 000000001031 TSFN           *19
 40000000 000000000021 TSI            *19
 00101000 000000000316 UBER1         *288
 00101000 000000000323 UBER2         *297
 00101000 000000000503 UBER3         *443
 00101000 000000000510 UBER4         *451
 40000000 000000001013 UBRD2          *19
 41000000 000000001223 UBSZ           *19
 40000000 000000000667 UCADR          *19
 40000000 000000000036 UCRS           *19
 40000000 000000000024 UFSPK          *19
 40000000 000000000024 UFSPK2         *19
 40000000 000000000715 ULIM           *19
 40000000 000000004230 UNA            *19
 40000000 000000303417 UNIM           *19
 40000000 000000000002 UOFST          *19
 41000000 000000001035 UPACD          *19        51       242       319       404       515
 40000000 000000000721 UPACW          *19
 40000000 000000000007 UPFLAG         *19
 01101000 000000000244 UPIV2          218       221       226      *229
 40000000 000000000103 UPPAI          *19
 40000000 000000000004 UPTSID         *18
 01101000 000000000555 URP            503      *513
 12:46 09/05/97  FILE=ZIM$DBIC.:ZIC0TSI       SYMBOL TABLE                                               51   BMAP - B00
 40000000 000000000674 USTAT          *19
 40000000 000000000002 UWASID         *18
 40000000 000000000002 UWSSZ          *19
 40000000 000000000020 UWSZ           *19
 40000000 000000000243 VFDSC          *19
 40000000 000000001070 VFDSR          *19
 40000000 000000000656 VFLD           *19
 40000000 000000001074 VFLNG          *19
 40000000 000000001124 VIB1           *19
 40000000 000000001154 VIBP           *19
 40000000 000000000000 VLPSID         *18
 40000000 000000001074 VRSIZ          *19
 41000000 000000001067 WLOA           *19       525       526       531       539       544       549
 01101000 000000000473 WNUIC          411       415      *421
 40000000 000000100000 WRTI           *19
 40000000 000000000000 WSBID          *19
 40000000 000000000003 WSOF           *19
 41000000 000000000000 X0             *18        51       242       319       404       487       488
                                      489       493       494       515       580       586       590
                                      596       600       606       613       667
 41000000 000000000001 X1             *18        45        50        55        59        61        62
                                       63        65        66        68        69        81       100
                                      157       158       186       187       188       193       198
                                      199       200       202       203       204       206       207
                                      216       228       230       231       234       235       237
                                      240       244       248       255       258       296       315
                                      318       321       322       323       328       331       332
                                      334       336       339       340       341       342       379
                                      380       397       398       399       400       401       402
                                      403       407       408       414       417       418       420
                                      425       450       476       477       480       481       496
                                      516       517       520       521       526       528       530
                                      531       539       541       543       544       560       579
                                      583       587       589       593       597       599       603
                                      607       628       637       638       640       641       642
                                      643       644       648       649       652       653       654
                                      656       658       661
 12:46 09/05/97  FILE=ZIM$DBIC.:ZIC0TSI       SYMBOL TABLE                                               52   BMAP - B00
 41000000 000000000002 X2             *18       217       219       220       410       412       506
                                      507       523       551       552       553
 40000000 000000000003 X3             *18
 41000000 000000000004 X4             *18        47
 40000000 000000000005 X5             *18
 40000000 000000000006 X6             *18
 02201006 000000000000 X66_ARET       *18
 02201005 000000000000 X66_AUTO_0     *18
 40000000 000000000007 X7             *18
 40000000 000000210665 XASL           *19
 40000000 000000303420 XLD            *19
 40000000 000000303421 XPD            *19
 40000000 000000000676 XPRS           *19
 40000000 000000210666 XROLL          *19
 40000000 000000210664 XUNEX          *19
 40000000 777777777777 XXDPN          *19
 03201011 000000000000 ZIB$ICALT     *302      *456      *614
 03201010 000000000000 ZIB$ICEXC     *264      *267      *668
 03201007 000000000000 ZIO$LOCK       *20       593
 03201009 000000000000 ZIO$MODIFY     *22       583
 03201008 000000000000 ZIO$UNLOCK     *21       603
 01101000 000000000514 ZIQ$DBICE      403      *475       658
 12101000 000000000671 ZIQ$DBICS       15      *627
 03201001 000000000000 ZIQ$DBIOA      *16        50
 12101000 000000000327 ZIQ$DBIOD       11      *314
 13101000 000000000641 ZIQ$DBIOK       13       234       417      *588
 03201002 000000000000 ZIQ$DBIOL      *16       318
 13101000 000000000626 ZIQ$DBIOM       12       193       328      *578
 03201000 000000000000 ZIQ$DBIOR      *16        59
 12101000 000000000000 ZIQ$DBIOS       10       *44
 13101000 000000000654 ZIQ$DBIOU       14       244       296       420       450      *598
 03201003 000000000000 ZIQ$DBIUI      *17       237       418
 03201004 000000000000 ZIQ$DBIUL      *17       240

     995 SYMBOLS

 12:46 09/05/97  FILE=ZIM$DBIC.:ZIC0TSI       MACRO TABLE                                                53   BMAP - B00
 CBSYM           19
 DBCAL           50        59       193       234       237       240       244       296       318
                328       403       417       418       420       450       583       593       603
                658
 ICALT          302       456       614
 ICCAL           50        59       193       234       237       240       244       296       328
                403       417       418       420       450       658
 ICEXC          264       267       668
 ICRET          258       425       560       587       597       607       661
 ICSAV           45       315       476       579       589       599       628
 Q2SYM           19
 SSSYM           19

      37 MACROS

    SYMBOL SPACE USED 10809 WORDS
     MACRO SPACE USED 13057 WORDS
   INPUT RECORDS READ  3140
 STATEMENTS PROCESSED  2772
         ELAPSED TIME  0:14.88
             CPU TIME    14.36 SEC.
        ASSEMBLY RATE 11582 STATEMENTS/CPU MIN.

      NO ERRORS

