
 12:46 09/05/97  FILE=ZIM$DBIL.:ZIC0TSI                                                                  1    BMAP - B00
                                         1  *M*      ZIG$DBIL
                                         2  *T***********************************************************
                                         3  *T*                                                         *
                                         4  *T* Copyright (c) Bull HN Information Systems Inc., 1997    *
                                         5  *T*                                                         *
                                         6  *T***********************************************************

 12:46 09/05/97  FILE=ZIM$DBIL.:ZIC0TSI       H6600H2.535     IDS/II LOGICAL I/O - RETR.     780117DBIL  2    BMAP - B00
                                         7         TTL     H6600H2.535     IDS/II LOGICAL I/O - RETR.     780117DBIL
                                         8         CPR     1974
                                         9         PMC     OFF
                                        10         ENTDEF  ZIQ$DBIOA
                                        11         ENTDEF  ZIQ$DBIOL
                                        12         ENTDEF  ZIQ$DBION
                                        13         ENTDEF  ZIQ$DBIOP
                                        14         ENTDEF  ZIQ$DBIOR
                                        15         ENTDEF  ZIQ$DBIOG
                                        16         ENTDEF  ZIQ$DBIOF
                                        17         ENTREF  ZIO$DBREAD       CP-6 IDS/II data-base read
                                        18        ENTREF  ZIQ$DBPR1
                                        19        ENTREF  ZIM$TRACE
                                        20         LODM    Q2MA
                                        21         Q2SYM

 12:46 09/05/97  FILE=ZIM$DBIL.:ZIC0TSI       FIND AC DEF FROM DBK                                       3    BMAP - B00
                                        22         TTLS    FIND AC DEF FROM DBK
                                        23  *
                                        24  *  INPUT :     QR - DATA BASE KEY
                                        25  *
                                        26  *  OUTPUT;     X0 - AC DEF. PTR
                                        27  *
                                        28  *  EXCEPTION RETURN-
                                        29  *    NONE
                                        30  *  ERROR RETURN-
                                        31  *    CODE IN AR
 0 000000                               32  ZIQ$DBIOA NULL
   000000    7 00470 7411 56            33         ICSAV
                                        34  *  FIND AC DEFINITION
   000001    7 00777 7561 00            35         STQ     DBKAC,,PR7      SAVE DBK
   000002    7 00003 2211 00            36         LDX     X1,ATBL,,PR7    GET ADDR OF TBL
   000003    7 00003 7201 00            37         LXL     X0,ATBL,,PR7    GET CNT OF AREAS
   000004 (0)000022 6000 00             38         TZE     ANP1            ZERO - NONE READY
                                        39         IFE     .N6685,1,14
   000005    000000 6360 10             40         EAQ     ,X0
   000006    000012 7720 00             41         QRL     10
   000007    000000 6200 02             42         EAX     X0,,QU
   000010                               43  DBI1   NULL
   000010    7 00000 2371 11            44         LDAQ    0,X1,PR7        pick-up area limits from next entry
   000011    7 00777 1111 00            45         CWL     DBKAC,,PR7      compare with subject key.
   000012 (0)000017 6000 00             46         TZE     DBI2
   000013    000004 0210 03             47         ADLX    X1,4,DU
   000014    000001 1200 03             48         SBLX    X0,1,DU
   000015 (0)000010 6010 00             49         TNZ     DBI1
   000016 (0)000022 7100 00             50         TRA     ANP1
   000017                               51  DBI2   NULL
   000017    7 00002 2201 11            52           LDX   X0,ACP,X1,PR7     GET AC
                                        53  *  RETURN
   000020    7 00470 2211 54            54         ICRET
   000021    000001 7100 11
                                        55  *
                                        56  *  ERRORS
                                        57  *
 12:46 09/05/97  FILE=ZIM$DBIL.:ZIC0TSI       FIND AC DEF FROM DBK                                       4    BMAP - B00
   000022                               58  ANP1   NULL                    AREA NO. NOT READIED
   000022    004230 2350 07             59         LDA     UNA,DL
   000023    000000 6200 00             60         EAX     X0,0            NULL AC
   000024  X 000000 7020 00             61           ICALT

 12:46 09/05/97  FILE=ZIM$DBIL.:ZIC0TSI       FIND NEXT/PRIOR OF AREA                                    5    BMAP - B00
                                        62         TTLS    FIND NEXT/PRIOR OF AREA
                                        63  *  FIND NEXT/PRIOR OF AREA
                                        64  *
                                        65  *  INPUT :     QR - DATA BASE KEY OF CURRENT OF AREA
                                        66  *              X0 - AC PTR FOR AREA
                                        67  *
                                        68  *  OUTPUT:     QR - DATA BASE KEY OF RECORD FOUND
                                        69  *              PR3- ADDRESS OF RECORD
                                        70  *              PR4- ADDRESS OF BUFFER CONTAINING RECORD
                                        71  *
                                        72  *  EXCEPTION RETURN: END OF AREA
                                        73  *
                                        74  *  ERROR RETURN-
                                        75  *    CODE IN AR
                                        76  *
                                        77  *  NEXT : .DBION
                                        78  *  PRIOR: .DBIOP
                                        79  *
                                        80  *  FIND PRIOR ENTRY POINT
   000025                               81  ZIQ$DBIOP NULL
   000025    7 00470 7411 56            82         ICSAV                   SAVE RETURN
   000026    000001 3350 07             83         LCA     1,DL            SET INCR  TO -1
   000027    7 01002 7551 00            84         STA     IOINC,,PR7      SAVE
   000030    7 01002 0361 00            85         ADLQ    IOINC,,PR7      ADD INCR.
   000031    6 00010 1161 10            86         CMPQ    DBLIM,X0,PR6    IS IT LESS THAN AREA MIN
   000032    000147 6020 04             87         TNC     EOA,$           YES - END OF AREA
   000033    7 00777 7561 00            88         STQ     DBKR+1,,PR7     SAVE DBK TO START
   000034    000011 7100 04             89         TRA     FRA,$           GO TO COMMON ROUTINE
                                        90  *  FIND NEXT ENTRY POINT
   000035                               91  ZIQ$DBION NULL
   000035    7 00470 7411 56            92         ICSAV                   SAVE RETURN
   000036    000001 2350 07             93         LDA     1,DL            SET INCR  TO +1
   000037    7 01002 7551 00            94         STA     IOINC,,PR7      SAVE
   000040    6 00003 2211 10            95           LDX      X1,WSOF,X0,PR6       Get AWS address
   000041    7 00003 1161 11            96           CMPQ     HIGHDBK,X1,PR7       Compare with high for area
   000042    000137 6030 04             97         TRC     EOA,$           YES - END OF AREA
   000043    7 01002 0361 00            98         ADLQ    IOINC,,PR7      INCR DBK
 12:46 09/05/97  FILE=ZIM$DBIL.:ZIC0TSI       FIND NEXT/PRIOR OF AREA                                    6    BMAP - B00
   000044    7 00777 7561 00            99         STQ     DBKR+1,,PR7
                                       100  *  CHECK THAT AREA IS READY
   000045                              101  FRA    NULL
   000045    6 00003 2211 10           102         LDX     X1,WSOF,X0,PR6
                                       103  *  SEPARATE PAGE & LINE NO.
   000046    7 00776 2371 00           104         LDAQ    DBKR,,PR7       SET AR=0 ; LOAD DBK IN Q
   000047    6 00010 1361 10           105         SBLQ    DBLIM,X0,PR6    SUB LO OF AREA
   000050    6 00012 0361 10           106         ADLQ    LPP,X0,PR6      ADD 1 PAGE
   000051    6 00004 2211 10           107         LDX     X1,PLSEP,X0,PR6
   000052    000000 7370 11            108         LLS     ,X1             PAGE NO. TO AR
   000053    000000 7720 11            109         QRL     ,X1             RIGHT JUSTIFY LINE NO.
   000054    7 01000 7571 00           110         STAQ    CPGR,,PR7
                                       111  *
                                       112  *  GET PAGE IN MEMORY
   000055                              113  FRAL1  NULL
   000055    6 00003 2211 10           114         LDX     X1,WSOF,X0,PR6
   000056    7 00006 2221 11           115           LDX X2,DDCB,X1,PR7      GET DCB NUMBER
   000057 (0)000203 6000 00            116         TZE     ANP2            area is not open if zero
   000060    7 01000 2351 00           117         LDA     CPGR,,PR7       GET PAGE NO.
   000061 (0)000361 7010 00            118         ICCAL   ZIQ$DBIOR,FREC,RDER2
   000062 (0)000207 7020 00
   000063    5 00006 2341 00
   000064    000003 6000 04
   000065    5 00006 4501 00
   000066 (0)000067 7020 00
                                       119  *  GOT PAGE IN MEMORY
   000067                              120  FREC   NULL
   000067    4 00002 7211 00           121         LXL     X1,HILN,,PR4    GET HI LINE NO ALLOCATED
   000070    000001 0210 03            122         ADLX    X1,1,DU         ADD 1 TO GET NO LINE NOS USED
   000071    7 01040 4411 00           123         SXL     X1,NLN,,PR7     SAVE
   000072    7 01002 2341 00           124         SZN     IOINC,,PR7      IS THIS PRIOR REQUEST
   000073    000034 6040 04            125         TMI     FPA,$           YES
                                       126  *  FIND NEXT RECORD ON PAGE
   000074                              127  FRL1   NULL
   000074    7 01001 2351 00           128         LDA     CPGR+1,,PR7     GET CURRENT LINE
   000075    7 01040 1151 00           129         CMPA    NLN,,PR7        IS IT WITHIN ALLOCATED LINES
   000076 (0)000112 6030 00            130         TRC     EOPN            NO - END OF PAGE
 12:46 09/05/97  FILE=ZIM$DBIL.:ZIC0TSI       FIND NEXT/PRIOR OF AREA                                    7    BMAP - B00
   000077    000001 7350 00            131         ALS     1               DOUBLE
   000100    000000 5310 00            132         NEG                     MAKE NEGATIVE
   000101    000 1 100 1005 05         133           MLR   (1,,,A),(1),,1             * MOVE
   000102    4 01774 4 0 0 0002        134           ADSC9 CP6PGSZW-1,2,2,PR4         *  REC OFFSET TO
   000103    7 01003 4 0 0 0002        135         ADSC9   ACREC,2,2,PR7   *   WORK SPACE
   000104    7 01003 7211 00           136         LXL     X1,ACREC,,PR7   GET OFST
   000105    7 00764 4411 00           137         SXL     X1,CREC,,PR7    SAVE AS CUR REC                          <EHW>
   000106 (0)000164 6050 00            138         TPL     RETR            GO RETURN REC
   000107    7 01002 2351 00           139         LDA     IOINC,,PR7      GET INCR
   000110    7 01001 0551 00           140         ASA     CPGR+1,,PR7     ADD TO LINE NO.
   000111 (0)000074 7100 00            141         TRA     FRL1            GET NEXT
   000112                              142  EOPN   NULL                    END OF PAGE - FIND NEXT
   000112    7 01000 2351 00           143         LDA     CPGR,,PR7       GET CURR PAGE NO.
   000113    000001 0350 07            144         ADLA    1,DL            INCR
   000114    7 01000 7551 00           145         STA     CPGR,,PR7       SAVE
   000115    6 00004 7211 10           146         LXL     X1,BPL,X0,PR6   GET BITS/LINE NO.
   000116    000000 7350 11            147         ALS     ,X1             MAKE PAGE NO. A REL. DBK
   000117    6 00010 0351 10           148         ADLA    DBLIM,X0,PR6    ADD LO DBK OF AREA
   000120    6 00012 1351 10           149         SBLA    LPP,X0,PR6      SUB FOR PAGE 0
   000121    6 00003 2211 10           150           LDX      X1,WSOF,X0,PR6       Get work space offset
   000122    7 00003 1151 11           151           CMPA     HIGHDBK,X1,PR7       Is next page still in area.
   000123    000002 6000 04            152         TZE     2,IC            LAST DBK
   000124    000055 6030 04            153         TRC     EOA,$           OUT - END OF AREA
   000125    7 01001 4501 00           154         STZ     CPGR+1,,PR7     ZERO LINE NO.
   000126 (0)000055 7100 00            155         TRA     FRAL1           GO GET NEXT PAGE
                                       156  *  FIND PRIOR RECORD ON PAGE
   000127                              157  FRL2   NULL
   000127                              158  FPA    NULL
   000127    7 01001 2351 00           159         LDA     CPGR+1,,PR7     GET CURR LINE NO
   000130 (0)000151 6040 00            160         TMI     EOPP            END OF PAGE
   000131    7 01040 1151 00           161         CMPA    NLN,,PR7        IS IT WITHIN ALLOCATED LINES
   000132 (0)000136 6020 00            162         TNC     ROK             YES
   000133    7 01040 2351 00           163         LDA     NLN,,PR7        1ST TIME IN PAGE - GET LINES ALLOC.
   000134    000001 1350 07            164         SBLA    1,DL            DECR TO HIGH LINE ON PAGE
   000135    7 01001 7551 00           165         STA     CPGR+1,,PR7     SAVE AS CURRENT
   000136                              166  ROK    NULL
   000136    000001 7350 00            167         ALS     1               DOUBLE TO GET BYTE OFST
 12:46 09/05/97  FILE=ZIM$DBIL.:ZIC0TSI       FIND NEXT/PRIOR OF AREA                                    8    BMAP - B00
   000137    000000 5310 00            168         NEG                     MAKE NEGATIVE
   000140    000 1 100 1005 05         169           MLR   (1,,,A),(1),,1             * MOVE
   000141    4 01774 4 0 0 0002        170           ADSC9 CP6PGSZW-1,2,2,PR4         *  REC OFFSET TO
   000142    7 01003 4 0 0 0002        171         ADSC9   ACREC,2,2,PR7   *   WORK SPACE
   000143    7 01003 7211 00           172         LXL     X1,ACREC,,PR7   GET OFST
   000144    7 00764 4411 00           173         SXL     X1,CREC,,PR7    SAVE AS CURRENT REC                      <EHW>
   000145 (0)000164 6050 00            174         TPL     RETR            GO RETURN REC
   000146    7 01002 2351 00           175         LDA     IOINC,,PR7      GET INCR
   000147    7 01001 0551 00           176         ASA     CPGR+1,,PR7     ADD TO LINE NO.
   000150 (0)000127 7100 00            177         TRA     FRL2            GO GET PRIOR
   000151                              178  EOPP   NULL                    END OF PAGE - FIND PRIOR
   000151    7 01000 2351 00           179         LDA     CPGR,,PR7       GET CURR PAGE
   000152    000001 1350 07            180         SBLA    1,DL            DECR
   000153    6 00006 1151 10           181         CMPA    PGLIM,X0,PR6    IS IT WITHIN AREA
   000154    000025 6020 04            182         TNC     EOA,$           NO - END OF AREA
   000155    7 01000 7551 00           183         STA     CPGR,,PR7       SAVE AS CURRENT PAGE
   000156    6 00004 7211 10           184         LXL     X1,BPL,X0,PR6   GET BITS FOR LINE NO.
   000157    000000 6350 00            185         EAA     0               AR=0
   000160    000001 3360 07            186         LCQ     1,DL            OR=-1
   000161    000000 7370 11            187         LLS     ,X1             AR = HI LINE ON A PAGE
   000162    7 01001 7551 00           188         STA     CPGR+1,,PR7     SAVE AS CURRENT LINE
   000163 (0)000055 7100 00            189         TRA     FRAL1           GO GET PRIOR PAGE
                                       190  *
                                       191  *  RETURN A RECORD
                                       192  *
   000164                              193  RETR   NULL
                                       194         IFE     B,1,%CK2
                                       195  *  RECORD OFFSET IS IN X1
   000164    007764 1010 03            196         CMPX   X1,4*CP6PGSZW,DU    IS IT WITHIN THE PAGE
   000165 (0)000205 6030 00            197         TRC     RER1            NO - ERROR
                                       198  CK2    MARK
   000166    4 00000 6335 00           199         EPPR    PR3,,,PR4       set PR3 to buffer address
   000167    7 01003 7211 00           200         LXL     X1,ACREC,,PR7   GET REC OFST
                                       201         IFE     M9,1,1
   000170    3 00000 5005 11           202         A9BD    ,X1,PR3         ADD CHAR OFST TO BUF ORG
                                       203         IFE     M9,0,1
                                       204         A6BD    ,X1,PR3         ADD CHAR OFST TO BUF ORG
 12:46 09/05/97  FILE=ZIM$DBIL.:ZIC0TSI       FIND NEXT/PRIOR OF AREA                                    9    BMAP - B00
   000171    6 00004 7211 10           205         LXL     X1,BPL,X0,PR6   GET BITS FOR LINE NO.
   000172    7 01000 2361 00           206         LDQ     CPGR,,PR7       GET PAGE NO.
   000173    000000 7360 11            207         QLS     ,X1             GET IN POSITION FOR DBK
   000174    7 01001 2761 00           208         ORQ     CPGR+1,,PR7     PUT IN LINE NO.
   000175    6 00010 0361 10           209         ADLQ    DBLIM,X0,PR6    ADD BASE OF AREA
   000176    6 00012 1361 10           210         SBLQ    LPP,X0,PR6      SUB 1 PAGE
   000177    7 00470 2211 54           211         ICRET                   NORMAL RETURN
   000200    000001 7100 11
                                       212  *
                                       213  *  EXCEPTIONS
   000201    004064 2350 07            214  EOA    LDA     EOSR,DL         END OF AREA
   000202  X 000000 7020 00            215         ICEXC                   EXCEPTION RETURN
                                       216  *
                                       217  *  ERRORS DETECTED IN THIS ROUTINE
   000203    004230 2350 07            218  ANP2   LDA     UNA,DL          AREA NOT READY
   000204 (0)000210 7100 00            219         TRA     ARET
   000205                              220  RER1   NULL                    LINE OFFSET OUTSIDE LIMITS
   000205    303260 2350 07            221         LDA     IOE2,DL
   000206 (0)000210 7100 00            222         TRA     ARET
                                       223  *
                                       224  *  ERRORS DETECTED IN SUBORDINATE ROUTINES
                                       225  *
   000207                              226  ANP    NULL                    AREA NOT PRESENT
   000207                              227  RDER2  NULL                    ISSUE READ ERROR
   000207 (0)000210 7100 00            228         TRA     ARET
                                       229  *  COMMON ERROR RETURN
   000210    5 00021 2361 00           230  ARET     LDQ      GIOPGNO,,PR5
   000211    5 00015 7561 00           231           STQ      GPAGE,,PR5           Save page no of error
   000212  X 000000 7020 00            232           ICALT

 12:46 09/05/97  FILE=ZIM$DBIL.:ZIC0TSI       LOCATE A PAGE AND LINE                                     10   BMAP - B00
                                       233         TTLS    LOCATE A PAGE AND LINE
                                       234  *
                                       235  *  LOCATE A PAGE AND LINE   (.DBIOL)
                                       236  *    THIS IS THE ENTRY POINT IF DONT HAVE THE AC PTR.
                                       237  *
                                       238  *    INPUT :     QR - DATA BASE KEY
                                       239  *
                                       240  *
                                       241  *  FIND PAGE AND LINE   (.DBIOF)
                                       242  *    THIS IS THE ENTRY POINT IF ALREADY HAVE THE AC PTR.
                                       243  *
                                       244  *    INPUT:     QR - DATA BASE KEY
                                       245  *               XO - AC PTR
                                       246  *
                                       247  *
                                       248  *
                                       249  *  OUTPUT:     PR3- ADDRESS OF RECORD
                                       250  *              PR4- ADDRESS OF BUFFER
                                       251  *              X0 - AC PTR
                                       252  *
                                       253  *  EXCEPTION RETURN:
                                       254  *    LINE NO. NOT USED ON PAGE
                                       255  *
                                       256  *  ERROR RETURN-
                                       257  *    CODE IN AR
                                       258  *
   000213                              259  ZIQ$DBIOL NULL
   000213    7 00470 7411 56           260         ICSAV                   SAVE ADDR
   000214    7 00755 7561 00           261         STQ     DBK+1,,PR7      SAVE DBK
                                       262  *  FIND THE AC DEFINITION
   000215 (0)000000 7010 00            263         ICCAL   ZIQ$DBIOA,,ANOTP
   000216 (0)000350 7020 00
   000217    5 00006 2341 00
   000220    777776 6010 04
   000221 (0)000224 7100 00            264         TRA     SPAL            GO SEPARATE PAGE & LINE
   000222                              265  ZIQ$DBIOF NULL                 ENTER HERE IF ALREADY KNOW THE AC
   000222    7 00470 7411 56           266         ICSAV
 12:46 09/05/97  FILE=ZIM$DBIL.:ZIC0TSI       LOCATE A PAGE AND LINE                                     11   BMAP - B00
   000223    7 00755 7561 00           267         STQ     DBK+1,,PR7      SAVE DBK
   000224                              268  SPAL   NULL
                                       269  *  SEPARATE PAGE AND LINE NO.
   000224    7 00754 2371 00           270         LDAQ    DBK,,PR7        SET AR TO 0, GET PAGE & LINE NO.
   000225    6 00010 1361 10           271         SBLQ    DBLIM,X0,PR6    SUB LOW DBK OF AREA
   000226    6 00012 0361 10           272         ADLQ    LPP,X0,PR6      MAKE IT REL. TO PG 1
   000227    6 00004 2211 10           273         LDX     X1,PLSEP,X0,PR6  GET 36 - NO. BITS FOR LINE NO.
   000230    000000 7370 11            274         LLS     ,X1             PAGE NO. TO AR
   000231    000000 7720 11            275         QRL     ,X1             RIGHT JUSTIFY LINE NO.
   000232    7 00762 7561 00           276         STQ     LNNO,,PR7       SAVE LINE NO.
                                       277  *  GET PAGE IN MEMORY
   000233 (0)000361 7010 00            278         ICCAL   ZIQ$DBIOR,FLIN,RDER FIND PAGE
   000234 (0)000350 7020 00
   000235    5 00006 2341 00
   000236    000003 6000 04
   000237    5 00006 4501 00
   000240 (0)000241 7020 00
                                       279  *  FIND LINE ON A PAGE IN A BUFFER
   000241                              280  FLIN   NULL
   000241    4 00002 7211 00           281         LXL     X1,HILN,,PR4    GET HI LINE NO ALLOCATED
   000242    000001 0210 03            282         ADLX    X1,1,DU         ADD 1 TO GET NO LINES USED
   000243    7 01040 4411 00           283         SXL     X1,NLN,,PR7     SAVE
   000244    4 00000 6335 00           284         EPPR    PR3,,,PR4       set PR3 to buffer address
   000245    7 00762 2351 00           285         LDA     LNNO,,PR7       GET LINE NO.
   000246    7 01040 1151 00           286         CMPA    NLN,,PR7        IS IT WITHIN ALLOC. LINES
   000247 (0)000344 6030 00            287         TRC     LNERR           NO - LINE NO. ERROR
   000250    000001 7350 00            288         ALS     1               MULTIPLY BY 2
   000251    000000 5310 00            289         NEG                     MAKE NEGATIVE
   000252    000 1 100 1005 05         290           MLR   (1,,,A),(1),,1             * MOVE
   000253    4 01774 4 0 0 0002        291           ADSC9 CP6PGSZW-1,2,2,PR4         *  CURRENT LINE OFFSET
   000254    7 00764 4 0 0 0002        292           ADSC9 CREC,2,2,PR7               *   TO WORK SPACE
   000255    7 00764 7211 00           293         LXL     X1,CREC,,PR7    IS OFST NEG
   000256 (0)000344 6040 00            294         TMI     LNOTP           YES - LINE NOT PRESENT
                                       295         IFE     B,1,%CK2
                                       296  *  RECORD OFFSET IS IN X1
   000257    007764 1010 03            297        CMPX    X1,4*CP6PGSZW,DU    IS IT WITHIN THE PAGE
   000260 (0)000346 6030 00            298         TRC     PGER            NO - ERROR
 12:46 09/05/97  FILE=ZIM$DBIL.:ZIC0TSI       LOCATE A PAGE AND LINE                                     12   BMAP - B00
                                       299  CK2    MARK
                                       300         IFE     M9,1,1
   000261    3 00000 5005 11           301         A9BD    ,X1,PR3         ADD CHAR OFST TO BUF ADDR
                                       302         IFE     M9,0,1
                                       303         A6BD    ,X1,PR3         ADD CHAR OFST TO BUF ADDR
   000262    5 00061 2211 00           304        LDX     X1,TMODE,,PR5
   000263 (0)000342 6000 00            305        TZE     RETUN               TRACE NOT ON
   000264    7 00755 2361 00           306        LDQ     DBK+1,,PR7          GET DBKEY
   000265    5 00057 7561 00           307        STQ     GTRRDBK,,PR5
   000266    7 00524 4535 00           308        STP     PR3,KCARG3,,PR7       SAVE PR3 BETWEEN ZIM$TRACE
   000267    5 00022 4545 00           309        STP     PR4,GIOBUF,,PR5  SAVE PR4 IN GLOBAL.PARAM.TRACE.PNO
   000270    7 01041 7401 00           310        STX     X0,PACD,,PR7   SAVE X0 IN GLOBAL.PARAM.TRACE.PDCB
   000271    000 1 100 1005 00         311        MLR     (1),(1),,1
   000272    3 00000 0 0 0 0004        312        ADSC9   ,,4,PR3
   000273    7 00632 0 0 0 0004        313        ADSC9   RSZTP,0,4,PR7       MOVE RTYPE TO WORK SPACE
   000274    7 00632 2351 00           314        LDA     RSZTP,,PR7
   000275    000022 7710 00            315        ARL     18
   000276    7 00632 2211 00           316        LDX     X1,RSZTP,,PR7
   000277    5 00060 4411 00           317        SXL     X1,GTRTYPE,,PR5     TRACE TYPE REC ACCESS
   000300    000010 2210 03            318        LDX     X1,.TRRACC,DU
   000301    5 00060 7411 00           319        STX     X1,GTRTYPE,,PR5
   000302    7 00057 2361 00           320        LDQ     CTMASK,,PR7         LOAD MASK FOR COMPARE WITH REC TYPE
   000303                              321  LOOP2 NULL
   000303    6 00001 7201 10           322        LXL     X0,ACRAN,X0,PR6     GET NEXT RA
   000304 (0)000325 6000 00            323        TZE     NORC                END OF CHAIN - RC NOT FOUND
   000305    6 00002 2271 10           324        LDX     X7,RCRAH,X0,PR6     GET RC
   000306    6 00003 2111 17           325        CMK     RTYP,X7,PR6         FOUND?
   000307 (0)000303 6010 00            326        TNZ     LOOP2               NO - GO GET NEXT
   000310    6 00000 2351 17           327        LDA     DEF,X7,PR6
   000311    000077 3750 07            328        ANA     .ANL,DL             GET RECORD NAME SIZE
   000312    000000 2360 07            329        LDQ     0,DL
   000313    000000 6360 17            330        EAQ     0,X7
   000314    000002 7360 00            331        QLS     2
   000315    040 1 100 1005 42         332        MLR     (1,1,,QU),(1),040,1 MOVE NAME TO GLOBAL.TRACE.RNAME
   000316    6 00005 0 0 0 0005        333        ADSC9   RNAM,0,A,PR6
   000317    5 00046 0 0 0 0036        334        ADSC9   GTRNAME,0,30,PR5
   000320 (0)000335 7100 00            335        TRA     TRCE                GO TO CALL TRACE
 12:46 09/05/97  FILE=ZIM$DBIL.:ZIC0TSI       LOCATE A PAGE AND LINE                                     13   BMAP - B00
   000321    052103101114              336  CALC  ASCII   2,*CALC
   000322    103040040040
   000323    052125116113              337  UNK   ASCII   2,*UNKNOWN
   000324    116117127116
   000325                              338  NORC  NULL
   000325    5 00060 7211 00           339        LXL     X1,GTRTYPE,,PR5     GET REC TYPE
   000326    000000 2220 03            340        LDX     X2,0,DU             ASSUME NO BYTE OFFSET
   000327    007640 1010 03            341        CMPX    X1,4000,DU          IS IT *CALC
   000330 (0)000332 6000 00            342        TZE     *+2
   000331    000010 2220 03            343        LDX     X2,8,DU             BYTE OFFSET TO GET 'UNKNOWN'
   000332    040 1 100 1004 12         344        MLR     (,,,X2),(1),040,1
   000333 (0)000321 0 0 0 0010         345        ADSC9   CALC,0,8
   000334    5 00046 0 0 0 0036        346        ADSC9   GTRNAME,0,30,PR5
   000335                              347  TRCE  NULL
   000335  X 000000 7010 00            348        DBCAL   ZIM$TRACE,,NOALT
   000336    000000 0020 00
   000337    7 01041 2201 00           349        LDX     X0,PACD,,PR7   RESTORE X0,PR3 AND PR4
   000340    7 00524 4735 00           350        LDP     PR3,KCARG3,,PR7
   000341    5 00022 4745 00           351        LDP     PR4,GIOBUF,,PR5
   000342                              352  RETUN NULL
   000342    7 00470 2211 54           353         ICRET                   NORM RET
   000343    000001 7100 11
                                       354  *
                                       355  *  EXCEPTIONS
                                       356  *
   000344                              357  LNERR  NULL                    LINE NO. ERROR
   000344                              358  LNOTP  NULL                    LINE NOT PRESENT
   000344    015674 2350 07            359         LDA     RDLT,DL
   000345  X 000000 7020 00            360         ICEXC                   EXCEPT. RET
                                       361  *
                                       362  *  ERRORS DETECTED IN THIS ROUTINE
   000346                              363  PGER   NULL                    LINE OFFSET OUTSIDE PAGE LIMITS
   000346    303260 2350 07            364         LDA     IOE2,DL
   000347 (0)000351 7100 00            365         TRA     LRET
                                       366  *
                                       367  *  ERRORS DETECTED IN SUBORDINATE ROUTINES
   000350                              368  ANOTP  NULL                    AREA NOT PRESENT
 12:46 09/05/97  FILE=ZIM$DBIL.:ZIC0TSI       LOCATE A PAGE AND LINE                                     14   BMAP - B00
   000350                              369  RDER   NULL                    READ ERROR
   000350 (0)000351 7100 00            370         TRA     LRET
                                       371  *  COMMON ERROR RETURN
   000351                              372  LRET   NULL
   000351    5 00021 2361 00           373           LDQ      GIOPGNO,,PR5
   000352    5 00015 7561 00           374           STQ      GPAGE,,PR5           Save page no of error
   000353  X 000000 7020 00            375           ICALT

 12:46 09/05/97  FILE=ZIM$DBIL.:ZIC0TSI       FIND A PAGE                                                15   BMAP - B00
                                       376         TTLS    FIND A PAGE
                                       377  *
                                       378  *  FIND A PAGE
                                       379  *
                                       380  *  INPUT  - AR = PAGE NO.
                                       381  *           X0 = AC DEF PTR
                                       382  *
                                       383  *  OUTPUT - PR4= ADDRESS OF BUFFER
                                       384  *           X0 = AC DEF PTR
                                       385  *
                                       386  *  Return -
                                       387  *    PAGE FOUND IN BUFFER - NO WAIT NECESSARY
                                       388  *
                                       389  *  ERROR RETURN-
                                       390  *    CODE IN AR
                                       391  *
   000354                              392  ZIQ$DBIOG NULL                 HERE FOR READ FROM DISC
                                       393  *                                (RTN NOT CALLED IN TDS)
   000354    7 00470 7411 56           394         ICSAV
   000355    000000 7350 00            395         ALS     0
   000356 (0)000405 6000 00            396         TZE     ILPG            PAGE NO. = 0 ERROR
   000357    000017 6360 00            397         EAQ     15              FUNCTION = READ FROM DISC & WAIT
   000360 (0)000364 7100 00            398         TRA     NSP
   000361                              399  ZIQ$DBIOR NULL                 HERE FOR NORMAL READ
   000361    7 00470 7411 56           400         ICSAV                   SAVE RETURN ADDR
                                       401         IFE     B,1,2
   000362    000000 7350 00            402         ALS     0
   000363 (0)000405 6000 00            403         TZE     ILPG            PAGE NO. = 0 ERROR
   000364                              404  NSP    NULL
   000364    5 00021 7551 00           405           STA      GIOPGNO,,PR5         Save page no.
   000365    7 01016 7401 00           406           STX   X0,ACOPN,,PR7     SAVE AC DEF OFFSET
   000366    5 00001 2361 00           407         LDQ     ACTDBCB,,PR5       GET SEG# FOR AWS$
   000367    5 00020 7561 00           408         STQ     GIOAWS,,PR5
   000370    6 00003 2211 10           409         LDX     X1,WSOF,X0,PR6     GET AREA WORK SPACE OFFSET
   000371    5 00020 7411 00           410         STX     X1,GIOAWS,,PR5     USETUP PARAM.IO.AWS$
   000372  X 000000 7010 00            411           DBCAL    ZIO$DBREAD,,RDDER    GET PAGE
   000373 (0)000412 7020 00
 12:46 09/05/97  FILE=ZIM$DBIL.:ZIC0TSI       FIND A PAGE                                                16   BMAP - B00
   000374    5 00006 2341 00
   000375    777776 6010 04
   000376    7 01016 2201 00           412           LDX   X0,ACOPN,,PR7     GET AC OFFSET
   000377    5 00021 2361 00           413           LDQ      GIOPGNO,,PR5         Get page no. requested
   000400    5 00022 4745 00           414           LDP      PR4,GIOBUF,,PR5      Get buffer address obtained.
   000401    4 00001 1161 00           415         CMPQ    APNO,,PR4       IS IT THE PAGE NO READ
   000402 (0)000410 6010 00            416         TNZ     PRNR1           NO - ERROR
   000403    7 00470 2211 54           417         ICRET                   NORMAL RETURN
   000404    000001 7100 11
                                       418  *
                                       419  *  ERRORS DETECTED IN THIS ROUTINE
                                       420  *
   000405                              421  ILPG   NULL                    PAGE NO. = 0  - ILLEGAL
   000405    303261 2350 07            422         LDA     IOE3,DL
   000406 (0)000413 7100 00            423         TRA     RRET
   000407 (0)000413 7100 00            424         TRA     RRET
   000410                              425  PRNR1  NULL                    PAGE READ NOT PAGE REQUESTED
   000410    303257 2350 07            426         LDA     IOE1,DL
   000411 (0)000413 7100 00            427         TRA     RRET
                                       428  *
                                       429  *  ERRORS DETECTED IN SUBORDINATE ROUTINE
                                       430  *
   000412                              431  RDDER  NULL                     error return from ZIO$DBREAD.
   000412    7 01016 2201 00           432           LDX   X0,ACOPN,,PR7     Restore AC offset
                                       433  *  COMMON ERROR RETURN
   000413                              434  RRET   NULL
   000413    5 00021 4501 00           435           STZ      GIOPGNO,,PR5         Zero so isn't used again
   000414  X 000000 7020 00            436           ICALT
                                       437         END

  CONTROL SECTION TABLE

   0 CODE   EVEN  000415
   1 RODATA EVEN  000000 LITERALS

 12:46 09/05/97  FILE=ZIM$DBIL.:ZIC0TSI       SYMBOL TABLE                                               17   BMAP - B00
 40000000 000000200000 .AC            *21
 40000000 000000000100 .AG            *21
 40000000 000000002000 .ALTO          *21
 41000000 000000000077 .ANL           *21       328
 40000000 000000200000 .APDN          *21
 40000000 000000000100 .ATMP          *21
 40000000 000000400000 .AV            *21
 40000000 000000400000 .B0            *21
 40000000 000000200000 .B1            *21
 40000000 000000000200 .B10           *21
 40000000 000000000100 .B11           *21
 40000000 000000000040 .B12           *21
 40000000 000000000020 .B13           *21
 40000000 000000000010 .B14           *21
 40000000 000000000004 .B15           *21
 40000000 000000000002 .B16           *21
 40000000 000000000001 .B17           *21
 40000000 000000400000 .B18           *21
 40000000 000000200000 .B19           *21
 40000000 000000100000 .B2            *21
 40000000 000000100000 .B20           *21
 40000000 000000040000 .B21           *21
 40000000 000000020000 .B22           *21
 40000000 000000010000 .B23           *21
 40000000 000000004000 .B24           *21
 40000000 000000002000 .B25           *21
 40000000 000000001000 .B26           *21
 40000000 000000000400 .B27           *21
 40000000 000000000200 .B28           *21
 40000000 000000000100 .B29           *21
 40000000 000000040000 .B3            *21
 40000000 000000000040 .B30           *21
 40000000 000000000020 .B31           *21
 40000000 000000000010 .B32           *21
 40000000 000000000004 .B33           *21
 40000000 000000000002 .B34           *21
 40000000 000000000001 .B35           *21
 12:46 09/05/97  FILE=ZIM$DBIL.:ZIC0TSI       SYMBOL TABLE                                               18   BMAP - B00
 40000000 000000020000 .B4            *21
 40000000 000000010000 .B5            *21
 40000000 000000004000 .B6            *21
 40000000 000000002000 .B7            *21
 40000000 000000001000 .B8            *21
 40000000 000000000400 .B9            *21
 40000000 000000000001 .BREAK         *21
 40000000 000000010000 .BRK           *21
 40000000 000000020000 .BTB           *21
 40000000 000000000001 .CAC           *21
 40000000 000000000000 .CAE           *21
 40000000 000000000200 .CANSSS        *21
 40000000 000000000400 .CD            *21
 40000000 000000040000 .CFLC          *21
 40000000 000000400000 .CHKSUM        *21
 40000000 000000100000 .CJRNL         *21
 40000000 000000000077 .CNSZ          *21
 40000000 000000160000 .COMC          *21
 40000000 000000000020 .CONT          *21
 40000000 000000000000 .CSE           *21
 40000000 000000700000 .CTYP          *21
 41000000 000000000270 .DBEST         *21
 41000000 000000000470 .DBIC          *21        33        54        82        92       211       260
                                      266       353       394       400       417
 40000000 000000077777 .DBPT          *21
 41000000 000000000370 .DBSTK         *21
 40000000 000000020000 .DELM          *21
 40000000 000000002000 .DIDP          *21
 40000000 000000000077 .DNDX          *21
 40000000 000000600000 .DORD          *21
 40000000 000000000200 .DP            *21
 40000000 000000100000 .DPS           *21
 40000000 000000200000 .DPSA          *21
 40000000 000000400000 .DPST          *21
 40000000 000000000002 .DUMP          *21
 40000000 000000002000 .DUPC          *21
 40000000 000000010000 .DUPP          *21
 12:46 09/05/97  FILE=ZIM$DBIL.:ZIC0TSI       SYMBOL TABLE                                               19   BMAP - B00
 40000000 000000200000 .EBCL          *21
 40000000 000000400000 .EBCM          *21
 40000000 000000200000 .ENCRP         *21
 40000000 000000000077 .ENDX          *21
 40000000 000000000400 .ENQ           *21
 40000000 000000004000 .ETC           *21
 40000000 000000000400 .EXIT          *21
 40000000 000000000200 .FMOD          *21
 40000000 000000000077 .FNL           *21
 40000000 000000000074 .FORG          *21
 40000000 000000002000 .FR            *21
 40000000 000000000100 .FSR           *21
 40000000 000000003400 .FUSE          *21
 40000000 000000010000 .FVF           *21
 40000000 000000040000 .FVR           *21
 40000000 000000000010 .INDEXED       *21
 40000000 000000777777 .IXID          *21
 40000000 000000001777 .IXNUM         *21
 40000000 000000000004 .KEYED         *21
 40000000 000000010000 .LCK           *21
 40000000 000000400000 .LEIL          *21
 40000000 000000001000 .LG            *21
 40000000 000000000002 .LOAD          *21
 40000000 000000020000 .MAR           *21
 40000000 000000000007 .MEMT          *21
 40000000 000000010000 .MRL           *21
 40000000 000000040000 .MSM           *21
 61000000 000000000001 .N6685         *21        39
 40000000 000000100000 .NAI           *21
 40000000 000000200000 .NBI           *21
 40000000 000000000002 .NCIA          *21
 40000000 000000040000 .NMV           *21
 40000000 000000017777 .NOENT         *21
 40000000 000000400000 .OA            *21
 40000000 000000740000 .OPEV          *21
 40000000 000000100000 .OSM           *21
 40000000 000000100000 .PAFIL         *21
 12:46 09/05/97  FILE=ZIM$DBIL.:ZIC0TSI       SYMBOL TABLE                                               20   BMAP - B00
 40000000 000000200000 .PAHVR         *21
 40000000 000000000001 .PAIA          *21
 40000000 000000040000 .PALIL         *21
 40000000 000000020000 .PALVR         *21
 40000000 000000400000 .PANLL         *21
 40000000 000000400000 .PCKD          *21
 40000000 000000001600 .PMOD          *21
 40000000 000000000520 .PRCSE         *21
 40000000 000000000007 .PSTO          *21
 40000000 000000006040 .PTAS          *21
 40000000 000000010100 .PTCHK         *21
 40000000 000000010200 .PTDEC         *21
 40000000 000000010140 .PTENC         *21
 40000000 000000020000 .RA            *21
 40000000 000000100000 .RC            *21
 40000000 000000400000 .RELEASE       *21
 40000000 000000000017 .RELT          *21
 40000000 000000004000 .RERA          *21
 40000000 000000400000 .RERS          *21
 40000000 000000010000 .RKEY          *21
 40000000 000000000077 .RNL           *21
 40000000 000000200000 .RSTO          *21
 40000000 000000007777 .RTYP          *21
 40000000 000000040000 .SC            *21
 40000000 000000000070 .SETM          *21
 40000000 000000740000 .SETO          *21
 40000000 000000000700 .SETT          *21
 40000000 000000040000 .SFNP          *21
 40000000 000000004000 .SM            *21
 40000000 000000020000 .SMOD          *21
 40000000 000000000077 .SNL           *21
 40000000 000000020000 .SNSS          *21
 40000000 000000010000 .SO            *21
 40000000 000000100000 .SR            *21
 40000000 000000004000 .SRCR          *21
 40000000 000000001000 .SS            *21
 40000000 000000000007 .SSTP          *21
 12:46 09/05/97  FILE=ZIM$DBIL.:ZIC0TSI       SYMBOL TABLE                                               21   BMAP - B00
 40000000 000000004000 .SYN           *21
 40000000 000000000040 .SYNC          *21
 40000000 000000020000 .TJRNL         *21
 40000000 000000040000 .TMPLT         *21
 40000000 000000040000 .TRACE         *21
 40000000 000000000001 .TRENTRY       *21
 40000000 000000000012 .TRIDEL        *21
 40000000 000000000021 .TRIDELENQ     *21
 40000000 000000000024 .TRIDEQ        *21
 40000000 000000000013 .TRIMOD        *21
 40000000 000000000022 .TRIMODENQ     *21
 40000000 000000000014 .TRIREAD       *21
 40000000 000000000023 .TRIREADENQ    *21
 40000000 000000000011 .TRISTO        *21
 40000000 000000000020 .TRISTOENQ     *21
 40000000 000000000017 .TRPDEQ        *21
 40000000 000000000004 .TRPMOD        *21
 40000000 000000000016 .TRPMODENQ     *21
 40000000 000000000002 .TRPREAD       *21
 40000000 000000000015 .TRPREADENQ    *21
 40000000 000000000003 .TRPWRITE      *21
 41000000 000000000010 .TRRACC        *21       318
 40000000 000000000006 .TRRDEL        *21
 40000000 000000000007 .TRRMOD        *21
 40000000 000000000005 .TRRSTO        *21
 40000000 000000004000 .ULCK          *21
 40000000 000000400000 .UPDT          *21
 40000000 000000000040 .VIA           *21
 60000000 000000000001 A              *21
 40000000 000000000002 ABAS           *21
 40000000 000000000001 AC             *21
 40000000 777777777760 ACDEF          *21
 40000000 000000211070 ACDNL          *21
 40000000 000000000003 ACID           *21
 41000000 000000001016 ACOPN          *21       406       412       432
 41000000 000000000002 ACP            *21        52
 40000000 000000000005 ACPTR          *21
 12:46 09/05/97  FILE=ZIM$DBIL.:ZIC0TSI       SYMBOL TABLE                                               22   BMAP - B00
 40000000 000000000002 ACRAH          *21
 41000000 000000000001 ACRAN          *21       322
 41000000 000000001003 ACREC          *21       135       136       171       172       200
 41000000 000000000001 ACTDBCB        *21       407
 40000000 000000000002 ACTDBNO        *21
 40000000 000000001017 ACTP           *21
 40000000 000000000000 ACTSSS         *21
 40000000 000000000000 ACTSZ          *21
 40000000 000000210565 AFNP           *21
 40000000 000000000635 AFT            *21
 40000000 000000022124 AIR            *21
 40000000 000000000016 AMAX           *21
 40000000 000000000026 ANAM           *21
 01101000 000000000350 ANOTP          263      *368
 00101000 000000000207 ANP           *226
 01101000 000000000022 ANP1            38        50       *58
 01101000 000000000203 ANP2           116      *218
 40000000 000000021614 ANR            *21
 41000000 000000000001 APNO           *21       415
 01101000 000000000210 ARET           219       222       228      *230
 40000000 000000210562 ARGER          *21
 41000000 000000000020 ARGS           *21
 40000000 000000000077 ARGS2          *21
 40000000 000000210713 ARNAF          *21
 41000000 000000000003 ATBL           *21        36        37
 40000000 000000000000 ATRIB          *21
 40000000 000000000002 AVLN           *21
 40000000 000000000013 AWS$           *21
 40000000 000000000010 AWSZ           *21
 61000000 000000000001 B              *21       194       295       401
 40000000 000000001006 B32N           *21
 40000000 000000001007 B36N           *21
 40000000 000000001056 B72N           *21
 40000000 000000000001 BADDR          *21
 40000000 000000210712 BADSEED        *21
 40000000 777777777765 BDCW           *21
 40000000 000000000633 BEF            *21
 12:46 09/05/97  FILE=ZIM$DBIL.:ZIC0TSI       SYMBOL TABLE                                               23   BMAP - B00
 40000000 000000020000 BEFW           *21
 40000000 000000000751 BEMT           *21
 40000000 777777777761 BID            *21
 40000000 777777777762 BIND           *21
 40000000 000000000007 BLKD           *21
 40000000 000000303331 BME02          *21
 41000000 000000001203 BMPB           *21
 40000000 000000000652 BN1            *21
 40000000 000000000654 BN2            *21
 41000000 000000000004 BPL            *21       146       184       205
 40000000 000000000015 BPLDBK         *21
 40000000 000000000034 BSPG           *21
 40000000 777777777763 BSTAT          *21
 40000000 000000000750 BTX0           *21
 41000000 000000001160 BUF4           *21
 41000000 000000001170 BUF6           *21
 41000000 000000000000 BUFORG         *21
 40000000 000000001060 BUFRQ          *21
 40000000 000000000006 BURRID         *21
 41000000 000000000020 BWASZ          *21
 60000000 000000000001 C              *21
 40000000 000000000050 CAAC           *21
 40000000 000000000050 CACD           *21
 40000000 000000000111 CAG            *21
 40000000 000000001033 CAL            *21
 01101000 000000000321 CALC          *336       345
 40000000 000000000026 CALLPM0        *21
 40000000 000000000003 CANSSS         *21
 40000000 000000000003 CBCPA          *21
 40000000 000000000002 CBCPO          *21
 40000000 000000000002 CBENO          *21
 40000000 000000000014 CBFSZ          *21
 40000000 000000000753 CBIB           *21
 40000000 000000001030 CBID           *21
 40000000 000000000014 CBRCE          *21
 40000000 000000000014 CBRCP          *21
 40000000 000000001033 CBRID          *21
 12:46 09/05/97  FILE=ZIM$DBIL.:ZIC0TSI       SYMBOL TABLE                                               24   BMAP - B00
 40000000 000000000015 CBRPA          *21
 40000000 000000000031 CCHAR          *21
 40000000 000000000040 CDBK           *21
 40000000 000000000030 CDES           *21
 40000000 000000000110 CDP            *21
 40000000 000000001044 CDPSI          *21
 40000000 000000000002 CDRH           *21
 40000000 000000000003 CDRN           *21
 40000000 000000000002 CDSH           *21
 40000000 000000000003 CDSN           *21
 40000000 000000000722 CENTRN         *21
 40000000 000000000722 CENTRO         *21
 40000000 000000000716 CENTRY         *21
 41000000 000000001053 CFCT           *21
 40000000 000000000670 CFLPT1         *21
 40000000 000000000672 CFLPT2         *21
 40000000 000000000015 CFSA           *21
 40000000 000000000646 CHDBK          *21
 40000000 000000000773 CHR            *21
 40000000 000000000006 CHRD           *21
 40000000 000000000772 CHRO           *21
 40000000 000000007640 CHRTP          *21
 40000000 000000001043 CIAC           *21
 40000000 000000000012 CIAWS          *21
 40000000 000000001051 CIBSI          *21
 40000000 000000000516 CIND           *21
 40000000 000000001041 CINVSZ         *21
 40000000 000000001042 CIPG           *21
 40000000 000000001050 CIPSI          *21
 40000000 000000000000 CIRUN          *21
 40000000 000000000002 CIRWS          *21
 40000000 000000000002 CISWS          *21
 40000000 000000000014 CIWSOF         *21
 40000000 000000303374 CKSM           *21
 40000000 000000000022 CLCN           *21
 40000000 000000000023 CLCP           *21
 40000000 000000000003 CLCRC          *21
 12:46 09/05/97  FILE=ZIM$DBIL.:ZIC0TSI       SYMBOL TABLE                                               25   BMAP - B00
 40000000 000000000003 CLCSC          *21
 40000000 000000000237 CLI            *21
 40000000 000000000026 CLNG           *21
 40000000 000000000052 CMPL           *21
 40000000 000000000002 CN             *21
 40000000 000000303315 CNE1           *21
 40000000 000000006034 CNUL           *21
 40000000 000000100000 COB74          *21
 40000000 000000000001 COFS           *21
 40000000 000000000045 CONCD          *21
 40000000 000000007764 CP6PGSZB       *21
 41000000 000000001775 CP6PGSZW       *21       134       170       196       291       297
 41000000 000000001000 CPGR           *21       110       117       128       140       143       145
                                      154       159       165       176       179       183       188
                                      206       208
 40000000 000000000723 CPTRN          *21
 40000000 000000000723 CPTRO          *21
 60000000 000000000004 CPW            *21
 40000000 000000000112 CRA            *21
 40000000 000000001004 CRD            *21
 41000000 000000000764 CREC           *21       137       173       292       293
 40000000 000000006344 CRIT           *21
 40000000 000000006200 CRNUL          *21
 40000000 000000007330 CRST           *21
 41000000 000000001223 CRUN           *21
 41000000 000000000000 CSECT          *21
 40000000 000000000007 CSMPP          *21
 40000000 000000001000 CSPAC          *21
 40000000 000000000004 CSPAH          *21
 40000000 777777777776 CSPES          *21
 40000000 777777777776 CSPSB          *21
 40000000 000000000115 CSTS           *21
 40000000 000000000071 CSUB           *21
 40000000 000000000017 CSZ            *21
 41000000 000000000057 CTMASK         *21       320
 40000000 000000000774 CTPAI          *21
 40000000 000000000240 CURLN          *21
 12:46 09/05/97  FILE=ZIM$DBIL.:ZIC0TSI       SYMBOL TABLE                                               26   BMAP - B00
 40000000 000000000236 CURLT          *21
 40000000 000000000770 CURPG          *21
 40000000 000000000001 CURR           *21
 40000000 000000000035 CURRS          *21
 40000000 000000000037 CURSS          *21
 40000000 000000001005 CWRT           *21
 40000000 000000000237 CWSOF          *21
 60000000 000000000001 D              *21
 40000000 000000000003 DBAN           *21
 40000000 000000000036 DBDR           *21
 40000000 000000000037 DBFN           *21
 01101000 000000000010 DBI1           *43        49
 01101000 000000000017 DBI2            46       *51
 41000000 000000000754 DBK            *21       261       267       270       306
 41000000 000000000777 DBKAC          *21        35        45
 40000000 000000000000 DBKEY          *21
 40000000 000000000000 DBKL           *21
 40000000 000000007474 DBKN           *21
 41000000 000000000776 DBKR           *21        88        99       104
 40000000 000000000777 DBKRQ          *21
 40000000 000000000234 DBKSI          *21
 40000000 000000000651 DBKSR          *21
 40000000 000000000047 DBKYN          *21
 40000000 000000210652 DBLC01         *21
 40000000 000000210653 DBLC05         *21
 40000000 000000303334 DBLC07         *21
 40000000 000000210655 DBLD01         *21
 41000000 000000000010 DBLIM          *21        86       105       148       209       271
 40000000 000000000033 DBPKY          *21
 40000000 000000000023 DBRN           *21
 40000000 000000000013 DBSN           *21
 40000000 000000000001 DBST           *21
 40000000 000000000757 DCDSR          *21
 40000000 000000210650 DCE1           *21
 40000000 000000001053 DCPR           *21
 40000000 000000001053 DCPW           *21
 40000000 000000000015 DCTBL          *21
 12:46 09/05/97  FILE=ZIM$DBIL.:ZIC0TSI       SYMBOL TABLE                                               27   BMAP - B00
 40000000 000000000032 DDBK           *21
 41000000 000000000006 DDCB           *21       115
 40000000 000000011754 DDI            *21
 41000000 000000000000 DEF            *21       327
 40000000 000000000014 DEF2           *21
 40000000 000000303413 DELAK          *21
 40000000 000000000036 DELRS          *21
 40000000 000000000732 DEPCW          *21
 40000000 000000303414 DLDBK          *21
 40000000 000000210627 DLE1           *21
 40000000 000000303310 DLE2           *21
 40000000 000000210631 DLE3           *21
 40000000 000000016040 DNES           *21
 40000000 777777777777 DPAGN          *21
 40000000 000000000020 DPPI           *21
 40000000 000000000053 DPSLW          *21
 40000000 000000000003 DS             *21
 40000000 000000001063 DSDES          *21
 40000000 000000303316 DSE1           *21
 40000000 000000000735 DUSEPA         *21
 60000000 000000000001 E              *21
 40000000 000000303251 EDPER          *21
 40000000 000000000026 EEIND          *21
 40000000 000000000713 EFIND          *21
 40000000 000000001030 ELO            *21
 40000000 000000210711 ENCPNA         *21
 40000000 000000000007 ENCRP          *21
 40000000 000000000752 ENDSR          *21
 40000000 000000210647 ENE1           *21
 40000000 000000000716 ENIND          *21
 40000000 000000000013 ENTBL          *21
 40000000 000000000710 ENTNO          *21
 40000000 000000000712 ENTPTR         *21
 40000000 000000000717 ENTSZ          *21
 40000000 000000000711 ENTTYP         *21
 01101000 000000000201 EOA             87        97       153       182      *214
 01101000 000000000112 EOPN           130      *142
 12:46 09/05/97  FILE=ZIM$DBIL.:ZIC0TSI       SYMBOL TABLE                                               28   BMAP - B00
 01101000 000000000151 EOPP           160      *178
 41000000 000000004064 EOSR           *21       214
 40000000 000000000004 ES             *21
 41000000 000000000100 ESTSZ          *21
 40000000 000000000725 ESZ            *21
 40000000 000000000005 ETCADR         *21
 40000000 000000000005 ETCDBNO        *21
 40000000 000000000064 EXCCD          *21
 40000000 000000234534 FALRT          *21
 40000000 000000001055 FBF72          *21
 40000000 000000001025 FBU61          *21
 40000000 000000001020 FBUF           *21
 40000000 000000001026 FBUF1          *21
 40000000 000000001027 FBUF4          *21
 40000000 000000001024 FBUF6          *21
 40000000 000000001022 FBUFM          *21
 40000000 000000001021 FBUFU          *21
 40000000 000000001023 FBUMD          *21
 40000000 000000000004 FCN            *21
 40000000 000000000051 FCNT           *21
 40000000 000000000002 FCP            *21
 40000000 000000000047 FCSS           *21
 40000000 000000000005 FD             *21
 40000000 000000210637 FDE1           *21
 40000000 000000303320 FDE2           *21
 40000000 000000303321 FDE3           *21
 40000000 000000210642 FDE4           *21
 40000000 000000210643 FDE5           *21
 40000000 000000210644 FDE6           *21
 40000000 000000303325 FDE7           *21
 40000000 000000303326 FDE8           *21
 40000000 000000000021 FEASZ          *21
 40000000 000000000740 FETM           *21
 40000000 000000000006 FI             *21
 40000000 000000000103 FIAC           *21
 41000000 000000001100 FIB1           *21
 41000000 000000001130 FIBP           *21
 12:46 09/05/97  FILE=ZIM$DBIL.:ZIC0TSI       SYMBOL TABLE                                               29   BMAP - B00
 40000000 000000000000 FIBX           *21
 40000000 000000000102 FICNT          *21
 40000000 000000000005 FIPN           *21
 40000000 000000000054 FKIND          *21
 40000000 000000000015 FLAGS          *21
 40000000 000000000244 FLDDSC         *21
 40000000 000000000046 FLDTL          *21
 01101000 000000000241 FLIN           278      *280
 40000000 000000000020 FMSBF          *21
 40000000 000000000006 FNAM           *21
 40000000 000000000250 FNIND          *21
 40000000 000000000004 FNL            *21
 01101000 000000000127 FPA            125      *158
 01101000 000000000045 FRA             89      *101
 40000000 000000000101 FRAC           *21
 01101000 000000000055 FRAL1         *113       155       189
 40000000 000000000002 FRANGE         *21
 40000000 000000211400 FRDNL          *21
 01101000 000000000067 FREC           118      *120
 01101000 000000000074 FRL1          *127       141
 01101000 000000000127 FRL2          *157       177
 40000000 000000200000 FRTRN          *21
 40000000 000000000005 FRWSO          *21
 40000000 000000000767 FSLN           *21
 40000000 000000000766 FSOF           *21
 40000000 000000000060 FTIND          *21
 40000000 000000303240 FTLINCR        *21
 40000000 000000000021 FWSSZ          *21
 40000000 000000000246 GACDK          *21
 40000000 000000000014 GDCB           *21
 41000000 000000000006 GERROR         *21       118       263       278       411
 40000000 000000000016 GINHIB         *21
 41000000 000000000020 GIOAWS         *21       408       410
 41000000 000000000022 GIOBUF         *21       309       351       414
 41000000 000000000021 GIOPGNO        *21       230       373       405       413       435
 41000000 000000000015 GPAGE          *21       231       374
 40000000 000000000010 GRETAC         *21
 12:46 09/05/97  FILE=ZIM$DBIL.:ZIC0TSI       SYMBOL TABLE                                               30   BMAP - B00
 40000000 000000000011 GRETFR         *21
 40000000 000000000013 GRETRC         *21
 40000000 000000000012 GRETSC         *21
 40000000 000000000025 GRLCW          *21
 40000000 000000000014 GSTCD          *21
 40000000 000000000007 GSYSERR        *21
 40000000 000000000010 GT             *21
 41000000 000000000046 GTRNAME        *21       334       346
 40000000 000000000055 GTRPDCB        *21
 40000000 000000000056 GTRPNO         *21
 41000000 000000000057 GTRRDBK        *21       307
 40000000 000000000060 GTRRTYPE       *21
 41000000 000000000060 GTRTYPE        *21       317       319       339
 40000000 000000000027 HASH           *21
 40000000 000000000022 HIA            *21
 40000000 000000000775 HIDB           *21
 41000000 000000000003 HIGHDBK        *21        96       151
 40000000 000000000004 HIGHPG         *21
 40000000 000000001037 HIL            *21
 41000000 000000000002 HILN           *21       121       281
 40000000 000000000006 HPOS           *21
 40000000 000000000756 IAAC           *21
 40000000 000000001011 IACLN          *21
 40000000 000000001010 IALC           *21
 40000000 000000010314 IAN            *21
 40000000 000000001012 IANLN          *21
 40000000 000000000001 IASID          *20
 40000000 000000020320 ICA            *21
 40000000 000000000023 ICKSMP         *21
 40000000 000000000024 ICKSMV         *21
 40000000 000000210742 ICNR           *21
 41000000 000000000020 ICSIZ          *21
 40000000 000000010004 IDBK           *21
 40000000 000000012120 IDI            *21
 40000000 000000000023 IDS            *21
 40000000 000000000011 IF             *21
 40000000 000000000021 IFIPN          *21
 12:46 09/05/97  FILE=ZIM$DBIL.:ZIC0TSI       SYMBOL TABLE                                               31   BMAP - B00
 40000000 000000000000 IFR            *21
 40000000 000000234546 IKSEQ          *21
 01101000 000000000405 ILPG           396       403      *421
 40000000 000000000113 INAFLAG        *21
 40000000 000000000016 INCHA          *21
 40000000 000000210566 INNM           *21
 40000000 000000210567 INSS           *21
 40000000 000000210575 INSST          *21
 40000000 000000303241 INTER          *21
 40000000 000000400000 INTII          *21
 40000000 000000000013 INTVL          *21
 40000000 000000001060 INVFLG         *21
 40000000 000000001043 INVOF          *21
 40000000 000000000014 INVT           *21
 40000000 000000000034 IOBLK          *21
 40000000 000000303354 IOCLSD         *21
 40000000 000000303355 IOCLSK         *21
 41000000 000000303257 IOE1           *21       426
 40000000 000000303264 IOE11          *21
 40000000 000000303265 IOE12          *21
 40000000 000000303266 IOE18          *21
 41000000 000000303260 IOE2           *21       221       364
 41000000 000000303261 IOE3           *21       422
 40000000 000000303262 IOE7           *21
 40000000 000000303263 IOE8           *21
 40000000 000000303363 IOFLSH         *21
 40000000 000000210676 IOGDCB         *21
 41000000 000000001002 IOINC          *21        84        85        94        98       124       139
                                      175
 40000000 000000305160 IOINI          *21
 40000000 000000305155 IONOTIDS       *21
 40000000 000000305154 IONOTKEY       *21
 40000000 000000210677 IOOPND         *21
 40000000 000000210700 IOOPNK         *21
 40000000 000000303361 IORDD          *21
 40000000 000000305156 IOSCHEMA       *21
 40000000 000000001052 IOSTS          *21
 12:46 09/05/97  FILE=ZIM$DBIL.:ZIC0TSI       SYMBOL TABLE                                               32   BMAP - B00
 40000000 000000303362 IOWRTD         *21
 41000000 000000000750 IOWS           *21
 40000000 000000000647 IPC            *21
 40000000 000000000650 IPCF           *21
 40000000 000000000006 IROLLFLAG      *21
 40000000 000000010150 IRSN           *21
 40000000 000000000004 ISYSDCB        *21
 40000000 000000000005 ISYSERR        *21
 40000000 000000000061 ITPTR          *21
 40000000 000000000060 ITRS           *21
 40000000 000000021760 IUM            *21
 40000000 000000000017 IUSZ           *21
 40000000 000000234522 IVDBK          *21
 40000000 000000000011 IXBUF$         *21
 40000000 000000000046 IXFBSZ         *21
 40000000 777777777776 IXID           *21
 40000000 777777777777 IXPLL          *21
 40000000 000000000523 KCARG0         *21
 41000000 000000000524 KCARG3         *21       308       350
 40000000 000000000525 KCARG4         *21
 40000000 000000000700 KCREG          *21
 40000000 000000000006 KDCB           *21
 40000000 000000000666 KEYDS          *21
 40000000 000000000010 KEYPA          *21
 40000000 777777777776 KLNG           *21
 40000000 000000000022 KPASZ          *21
 40000000 000000000006 KWSZ           *21
 40000000 000000000052 LANGC          *21
 40000000 000000001014 LAS            *21
 40000000 000000700000 LCODM          *21
 40000000 000000001045 LDPSI          *21
 40000000 000000001071 LINPT          *21
 40000000 000000001017 LNCNT          *21
 01101000 000000000344 LNERR          287      *357
 41000000 000000000762 LNNO           *21       276       285
 01101000 000000000344 LNOTP          294      *358
 40000000 000000001036 LOL            *21
 12:46 09/05/97  FILE=ZIM$DBIL.:ZIC0TSI       SYMBOL TABLE                                               33   BMAP - B00
 40000000 000000000715 LOLIM          *21
 01101000 000000000303 LOOP2         *321       326
 40000000 000000000023 LPASZ          *21
 41000000 000000000012 LPP            *21       106       149       210       272
 40000000 000000257764 LR             *21
 40000000 000000301270 LRA            *21
 01101000 000000000351 LRET           365       370      *372
 40000000 000000000017 LRSZ           *21
 40000000 000000001035 LSPC           *21
 40000000 000000000750 LUPD           *21
 61000000 000000000001 M9             *21       201       203       300       302
 40000000 000000000013 MD             *21
 40000000 000000300000 MDQS           *21
 40000000 000000000730 MEMPTR         *21
 40000000 000000000727 MEMTYP         *21
 40000000 000000000045 MODCD          *21
 41000000 000000001207 MODFL          *21
 40000000 000000000042 MODFR          *21
 40000000 000000000044 MODIN          *21
 40000000 000000000044 MODRS          *21
 40000000 000000000043 MODSC          *21
 40000000 000000000047 MRBKI          *21
 40000000 000000210632 MRE4           *21
 40000000 000000303313 MRE5           *21
 40000000 000000210634 MRE7           *21
 40000000 000000400000 MW             *21
 40000000 000000000025 NCH            *21
 40000000 000000000002 NCHA           *21
 40000000 000000000005 NCHRS          *21
 40000000 000000000014 NDCD           *21
 40000000 000000000012 NENC           *21
 40000000 000000000634 NEW            *21
 40000000 000000001072 NEWSIZ         *21
 40000000 000000235164 NKA            *21
 40000000 000000235020 NKDB           *21
 40000000 000000303415 NLDBK          *21
 40000000 777777777777 NLIND          *21
 12:46 09/05/97  FILE=ZIM$DBIL.:ZIC0TSI       SYMBOL TABLE                                               34   BMAP - B00
 41000000 000000001040 NLN            *21       123       129       161       163       283       286
 40000000 000000400000 NLNSA          *21
 41000000 000000001053 NOBF           *21
 40000000 000000000711 NOPTRS         *21
 01101000 000000000325 NORC           323      *338
 40000000 000000000742 NPARCW         *21
 40000000 000000000630 NPIND          *21
 40000000 000000000004 NPOS           *21
 40000000 000000234510 NSA            *21
 40000000 000000234654 NSCS           *21
 40000000 000000234344 NSDB           *21
 01101000 000000000364 NSP            398      *404
 40000000 000000000001 NSTS           *21
 40000000 000000000726 NUMENT         *21
 40000000 000000000727 NUMPTR         *21
 40000000 777777777760 NXBUF          *21
 40000000 000000000713 NXPRI          *21
 40000000 000000000771 NXTC           *21
 40000000 000000000001 OAACN          *21
 40000000 000000000022 OACIWSOF       *21
 40000000 000000000001 OAOFST         *21
 40000000 000000000002 OARCN          *21
 40000000 000000000001 OASCN          *21
 40000000 000000000014 OD             *21
 40000000 000000000074 ODBK           *21
 40000000 000000001072 OLDSIZ         *21
 40000000 000000000101 OPADP          *21
 40000000 000000000741 OPARCW         *21
 40000000 000000210570 ORDNI          *21
 40000000 777777777777 OTVL           *21
 40000000 000000000252 OWNPTR         *21
 40000000 000000000016 PABUF          *21
 41000000 000000001041 PACD           *21       310       349
 40000000 000000000001 PACW           *21
 40000000 000000000733 PADBK          *21
 40000000 000000000740 PADUP          *21
 40000000 000000000745 PAEN           *21
 12:46 09/05/97  FILE=ZIM$DBIL.:ZIC0TSI       SYMBOL TABLE                                               35   BMAP - B00
 40000000 000000000745 PAEO           *21
 40000000 000000000734 PAEOF          *21
 40000000 000000303336 PAER1          *21
 40000000 000000303337 PAER2          *21
 40000000 000000303340 PAER3          *21
 40000000 000000303341 PAER4          *21
 40000000 000000303342 PAER5          *21
 40000000 000000303343 PAER6          *21
 40000000 000000000747 PAESZ          *21
 40000000 000000001060 PAFLG          *21
 40000000 000000000731 PAOPTR         *21
 40000000 000000000734 PAPOF          *21
 40000000 000000000714 PARCW          *21
 40000000 000000000726 PARVPA         *21
 40000000 000000000724 PASPLT         *21
 40000000 000000000004 PAWSZ          *21
 40000000 777777777762 PBUF           *21
 40000000 000000000020 PC             *21
 41000000 000000000510 PCB            *21
 40000000 000000000642 PCD            *21
 40000000 000000000642 PCD2           *21
 40000000 000000000247 PCEXI          *21
 40000000 000000000675 PCMIN          *21
 40000000 000000004541 PCOMP          *21
 40000000 000000000010 PD             *21
 40000000 000000000040 PE             *21
 40000000 000000000017 PENDING        *21
 40000000 000000000004 PF             *21
 40000000 000000000400 PFG            *21
 40000000 000000000200 PFM            *21
 40000000 000000000100 PFS            *21
 40000000 000000000400 PG             *21
 01101000 000000000346 PGER           298      *363
 40000000 000000001064 PGHD           *21
 41000000 000000000006 PGLIM          *21       181
 40000000 000000000003 PGRNG          *21
 40000000 000000000746 PGSIZE         *21
 12:46 09/05/97  FILE=ZIM$DBIL.:ZIC0TSI       SYMBOL TABLE                                               36   BMAP - B00
 40000000 000000000641 PGSPLT         *21
 40000000 000000000100 PKAW           *21
 40000000 000000001034 PLO            *21
 41000000 000000000004 PLSEP          *21       107       273
 40000000 000000000200 PM             *21
 40000000 000000001054 PNEOO          *21
 40000000 000000001047 POFSI          *21
 40000000 000000000005 PPOS           *21
 40000000 000000000000 PR0            *20
 40000000 000000000001 PR1            *20
 40000000 000000000002 PR2            *20
 41000000 000000000003 PR3            *20       199       202       284       301       308       312
                                      350
 41000000 000000000004 PR4            *20       121       134       170       199       281       284
                                      291       309       351       414       415
 41000000 000000000005 PR5            *20       118       230       231       263       278       304
                                      307       309       317       319       334       339       346
                                      351       373       374       405       407       408       410
                                      411       413       414       435
 41000000 000000000006 PR6            *20        86        95       102       105       106       107
                                      114       146       148       149       150       181       184
                                      205       209       210       271       272       273       322
                                      324       325       327       333       409
 41000000 000000000007 PR7            *20        33        35        36        37        44        45
                                       52        54        82        84        85        88        92
                                       94        96        98        99       104       110       115
                                      117       123       124       128       129       135       136
                                      137       139       140       143       145       151       154
                                      159       161       163       165       171       172       173
                                      175       176       179       183       188       200       206
                                      208       211       260       261       266       267       270
                                      276       283       285       286       292       293       306
                                      308       310       313       314       316       320       349
                                      350       353       394       400       406       412       417
                                      432
 40000000 000000303267 PRE1           *21
 40000000 000000303277 PRE10          *21
 12:46 09/05/97  FILE=ZIM$DBIL.:ZIC0TSI       SYMBOL TABLE                                               37   BMAP - B00
 40000000 000000303270 PRE3           *21
 40000000 000000303271 PRE4           *21
 40000000 000000303272 PRE5           *21
 40000000 000000210613 PRE6           *21
 40000000 000000210614 PRE7           *21
 40000000 000000210615 PRE8           *21
 40000000 000000303276 PRE9           *21
 40000000 000000000522 PREXC          *21
 40000000 000000000521 PRFR           *21
 40000000 000000000521 PRFR2          *21
 40000000 000000000000 PRIV           *21
 01101000 000000000410 PRNR1          416      *425
 40000000 000000000526 PROPA          *21
 40000000 000000000517 PRRC           *21
 40000000 000000000517 PRRS           *21
 40000000 000000000520 PRSC           *21
 40000000 000000000516 PRSS           *21
 40000000 000000000644 PRSTS          *21
 40000000 000000000100 PS             *21
 41000000 000000000000 PS0SID         *20
 41000000 000000000001 PS1SID         *20
 41000000 000000000002 PS2SID         *20
 41000000 000000000003 PS3SID         *20
 41000000 000000000004 PS4SID         *20
 40000000 000000000005 PS5SID         *20
 40000000 000000000006 PS6SID         *20
 40000000 000000303416 PSA            *21
 40000000 000000000020 PSC            *21
 40000000 000000000010 PSD            *21
 40000000 000000000004 PSF            *21
 40000000 000000000400 PSO            *21
 40000000 000000000720 PTESZ          *21
 40000000 000000000631 PTR            *21
 40000000 000000000724 PTRESZ         *21
 40000000 000000000710 PTRNO          *21
 41000000 000000000630 PWS            *21
 40000000 000000000002 RADDR          *21
 12:46 09/05/97  FILE=ZIM$DBIL.:ZIC0TSI       SYMBOL TABLE                                               38   BMAP - B00
 40000000 000000000010 RADIX          *21
 40000000 000000000005 RAPTR          *21
 40000000 000000000004 RAWSOF         *21
 40000000 777777777766 RBA            *21
 40000000 000000023432 RCBI           *21
 40000000 000000211234 RCDNL          *21
 40000000 000000000005 RCFRH          *21
 40000000 000000000004 RCFRN          *21
 40000000 000000001075 RCHD           *21
 40000000 000000000001 RCID           *21
 40000000 000000000006 RCPTR          *21
 41000000 000000000002 RCRAH          *21       324
 40000000 000000000001 RCRAN          *21
 40000000 000000000003 RCRSH          *21
 40000000 000000000002 RCRSN          *21
 40000000 000000210667 RCVER1         *21
 40000000 000000210670 RCVER2         *21
 40000000 000000210671 RCVER4         *21
 40000000 000000210672 RCVER5         *21
 40000000 000000210673 RCVER6         *21
 40000000 000000000736 RCW1           *21
 40000000 000000000737 RCW2           *21
 40000000 000000000004 RCWSO          *21
 40000000 000000000077 RDAC           *21
 40000000 000000000076 RDCNT          *21
 01101000 000000000412 RDDER          411      *431
 01101000 000000000350 RDER           278      *369
 01101000 000000000207 RDER2          118      *227
 40000000 000000040000 RDI            *21
 41000000 000000015674 RDLT           *21       359
 40000000 000000000075 RDYCW          *21
 40000000 000000000066 RECAC          *21
 40000000 000000000065 RECFR          *21
 40000000 000000000070 RECRC          *21
 40000000 000000000067 RECSC          *21
 40000000 000000000003 RECSZ          *21
 40000000 000000000235 REMLT          *21
 12:46 09/05/97  FILE=ZIM$DBIL.:ZIC0TSI       SYMBOL TABLE                                               39   BMAP - B00
 40000000 000000000062 REM_RECOVER    *21
 01101000 000000000205 RER1           197      *220
 40000000 000000000251 RETFR          *21
 01101000 000000000164 RETR           138       174      *193
 01101000 000000000342 RETUN          305      *352
 40000000 000000210724 RFDNL          *21
 40000000 000000017644 RIM            *21
 41000000 000000000005 RNAM           *21       333
 40000000 000000015706 RNDLT          *21
 40000000 000000000662 RNG1           *21
 40000000 000000000664 RNG2           *21
 40000000 000000000073 RNGD           *21
 40000000 000000000072 RNGO           *21
 40000000 000000000660 RNGTAL         *21
 40000000 000000020154 RNM            *21
 40000000 000000000041 ROCUR          *21
 40000000 000000000001 ROFST          *21
 01101000 000000000136 ROK            162      *166
 40000000 000000002114 ROLL           *21
 40000000 000000020010 RPM            *21
 01101000 000000000413 RRET           423       424       427      *434
 40000000 000000000001 RSCDH          *21
 40000000 000000000001 RSCDN          *21
 40000000 000000211710 RSDNL          *21
 40000000 000000004540 RSEE           *21
 40000000 000000000003 RSIZ           *21
 40000000 000000000110 RSPAM          *21
 40000000 000000000004 RSPTR          *21
 40000000 000000000037 RSREQ          *21
 40000000 000000000002 RSSSH          *21
 40000000 000000000001 RSSSN          *21
 40000000 000000210574 RSZER          *21
 41000000 000000000632 RSZTP          *21       313       314       316
 40000000 000000000003 RTP            *21
 41000000 000000000003 RTYP           *21       325
 40000000 000000000530 RV1            *21
 40000000 000000000550 RV2            *21
 12:46 09/05/97  FILE=ZIM$DBIL.:ZIC0TSI       SYMBOL TABLE                                               40   BMAP - B00
 40000000 000000000570 RV3            *21
 40000000 000000000610 RV4            *21
 40000000 000000000003 RVASID         *20
 40000000 000000000510 RVI            *21
 40000000 000000000511 RVO            *21
 40000000 000000000513 RVPA           *21
 40000000 000000000512 RVT            *21
 40000000 000000000022 RVTAL          *21
 40000000 000000000002 RWSZ           *21
 40000000 000000000015 RY             *21
 40000000 000000210620 RYE1           *21
 40000000 000000210621 RYE4           *21
 40000000 777777777767 SA             *21
 40000000 000000000005 SANAM          *21
 40000000 000000001062 SCDES          *21
 40000000 000000211544 SCDNL          *21
 40000000 000000000024 SCFC           *21
 40000000 000000000002 SCID           *21
 40000000 000000000024 SCLST          *21
 40000000 000000000004 SCNAM          *21
 40000000 000000000004 SCPTR          *21
 40000000 000000000003 SCRSH          *21
 40000000 000000000002 SCRSN          *21
 40000000 000000000001 SCWSO          *21
 40000000 000000001225 SFWS           *21
 40000000 000000001073 SIZCHG         *21
 40000000 000000000645 SKFLG          *21
 40000000 000000000643 SKIND          *21
 40000000 000000000641 SKTYP          *21
 40000000 000000020464 SMCR           *21
 40000000 000000000003 SNAM           *21
 40000000 000000000107 SNIND          *21
 40000000 000000000735 SNPAE          *21
 40000000 000000001046 SNSI           *21
 40000000 000000000743 SOE            *21
 40000000 000000020630 SORSA          *21
 40000000 000000004374 SOSE           *21
 12:46 09/05/97  FILE=ZIM$DBIL.:ZIC0TSI       SYMBOL TABLE                                               41   BMAP - B00
 01101000 000000000224 SPAL           264      *268
 40000000 000000000000 SPAV           *21
 40000000 000000000744 SPCAVN         *21
 40000000 000000000744 SPCAVO         *21
 40000000 000000000765 SPLF           *21
 41000000 000000000765 SPND           *21
 40000000 000000000006 SSDT           *21
 40000000 000000303243 SSER           *21
 40000000 000000303244 SSER1          *21
 40000000 000000000002 SSH            *21
 40000000 000000000005 SSNAM          *21
 40000000 000000210573 SSNF           *21
 40000000 000000210576 SSNV           *21
 40000000 000000000020 SSSPTR         *21
 40000000 000000000010 SSVDT          *21
 40000000 000000000033 SSZTP          *21
 40000000 000000000017 ST             *21
 40000000 000000000104 STBIN          *21
 40000000 000000000105 STDEC          *21
 40000000 000000303302 STE1           *21
 40000000 000000303303 STE2           *21
 40000000 000000210624 STE3           *21
 40000000 000000303305 STE4           *21
 40000000 000000303306 STE5           *21
 41000000 000000000100 STKSIZ         *21
 40000000 000000000055 STMASK         *21
 40000000 000000000062 SUST           *21
 41000000 000000000020 SWS            *21
 40000000 000000000000 SWSAC          *21
 40000000 000000000002 SWSZ           *21
 40000000 000000000000 SYSSF          *21
 40000000 000000000765 SZREQ          *21
 40000000 000000000004 TBUF           *21
 40000000 000000001061 TCTRS          *21
 60000000 000000000000 TDS            *21
 41000000 000000000113 TEMP           *21
 40000000 000000000640 TFLD           *21
 12:46 09/05/97  FILE=ZIM$DBIL.:ZIC0TSI       SYMBOL TABLE                                               42   BMAP - B00
 40000000 000000000657 TFLD2          *21
 40000000 000000000056 TMASK          *21
 41000000 000000000061 TMODE          *21       304
 40000000 000000000676 TMPPA          *21
 40000000 000000000003 TPAI           *21
 40000000 000000500000 TPRCOD         *21
 01101000 000000000335 TRCE           335      *347
 40000000 000000001031 TSFN           *21
 40000000 000000000021 TSI            *21
 40000000 000000001013 UBRD2          *21
 41000000 000000001223 UBSZ           *21
 40000000 000000000667 UCADR          *21
 40000000 000000000036 UCRS           *21
 40000000 000000000024 UFSPK          *21
 40000000 000000000024 UFSPK2         *21
 40000000 000000000715 ULIM           *21
 41000000 000000004230 UNA            *21        59       218
 40000000 000000303417 UNIM           *21
 00101000 000000000323 UNK           *337
 40000000 000000000002 UOFST          *21
 40000000 000000001035 UPACD          *21
 40000000 000000000721 UPACW          *21
 40000000 000000000007 UPFLAG         *21
 40000000 000000000103 UPPAI          *21
 40000000 000000000004 UPTSID         *20
 40000000 000000000674 USTAT          *21
 40000000 000000000002 UWASID         *20
 40000000 000000000002 UWSSZ          *21
 40000000 000000000020 UWSZ           *21
 40000000 000000000243 VFDSC          *21
 40000000 000000001070 VFDSR          *21
 40000000 000000000656 VFLD           *21
 40000000 000000001074 VFLNG          *21
 40000000 000000001124 VIB1           *21
 40000000 000000001154 VIBP           *21
 40000000 000000000000 VLPSID         *20
 40000000 000000001074 VRSIZ          *21
 12:46 09/05/97  FILE=ZIM$DBIL.:ZIC0TSI       SYMBOL TABLE                                               43   BMAP - B00
 40000000 000000001067 WLOA           *21
 40000000 000000100000 WRTI           *21
 40000000 000000000000 WSBID          *21
 41000000 000000000003 WSOF           *21        95       102       114       150       409
 41000000 000000000000 X0             *20        37        42        48        52        60       310
                                      322       349       406       412       432
 41000000 000000000001 X1             *20        33        36        47        54        82        92
                                       95       102       107       114       118       121       122
                                      123       136       137       146       150       172       173
                                      184       196       200       205       211       260       263
                                      266       273       278       281       282       283       293
                                      297       304       316       317       318       319       339
                                      341       348       353       394       400       409       410
                                      411       417
 41000000 000000000002 X2             *20       115       340       343
 40000000 000000000003 X3             *20
 40000000 000000000004 X4             *20
 40000000 000000000005 X5             *20
 40000000 000000000006 X6             *20
 02201004 000000000000 X66_ARET       *20
 02201003 000000000000 X66_AUTO_0     *20
 41000000 000000000007 X7             *20       324
 40000000 000000210665 XASL           *21
 40000000 000000303420 XLD            *21
 40000000 000000303421 XPD            *21
 40000000 000000000676 XPRS           *21
 40000000 000000210666 XROLL          *21
 40000000 000000210664 XUNEX          *21
 40000000 777777777777 XXDPN          *21
 03201005 000000000000 ZIB$ICALT      *61      *232      *375      *436
 03201006 000000000000 ZIB$ICEXC     *215      *360
 03201002 000000000000 ZIM$TRACE      *19       348
 03201000 000000000000 ZIO$DBREAD     *17       411
 13101000 000000000000 ZIQ$DBIOA       10       *32       263
 12101000 000000000222 ZIQ$DBIOF       16      *265
 12101000 000000000354 ZIQ$DBIOG       15      *392
 12101000 000000000213 ZIQ$DBIOL       11      *259
 12:46 09/05/97  FILE=ZIM$DBIL.:ZIC0TSI       SYMBOL TABLE                                               44   BMAP - B00
 12101000 000000000035 ZIQ$DBION       12       *91
 12101000 000000000025 ZIQ$DBIOP       13       *81
 13101000 000000000361 ZIQ$DBIOR       14       118       278      *399
 02201001 000000000000 ZIQ$DBPR1      *18

     972 SYMBOLS

 12:46 09/05/97  FILE=ZIM$DBIL.:ZIC0TSI       MACRO TABLE                                                45   BMAP - B00
 CBSYM           21
 DBCAL          118       263       278       348       411
 ICALT           61       232       375       436
 ICCAL          118       263       278
 ICEXC          215       360
 ICRET           54       211       353       417
 ICSAV           33        82        92       260       266       394       400
 Q2SYM           21
 SSSYM           21

      37 MACROS

    SYMBOL SPACE USED  9827 WORDS
     MACRO SPACE USED 13057 WORDS
   INPUT RECORDS READ  2676
 STATEMENTS PROCESSED  2370
         ELAPSED TIME  0:12.08
             CPU TIME    11.65 SEC.
        ASSEMBLY RATE 12206 STATEMENTS/CPU MIN.

      NO ERRORS

