
 12:46 09/05/97  FILE=ZIM$DBIM.:ZIC0TSI                                                                  1    BMAP - B00
                                         1  *M*      ZIG$DBIM
                                         2  *T***********************************************************
                                         3  *T*                                                         *
                                         4  *T* Copyright (c) Bull HN Information Systems Inc., 1997    *
                                         5  *T*                                                         *
                                         6  *T***********************************************************

 12:46 09/05/97  FILE=ZIM$DBIM.:ZIC0TSI       H6600H2.512     IDS/II IF MEMBER               780321DBIM  2    BMAP - B00
                                         7         TTL     H6600H2.512     IDS/II IF MEMBER               780321DBIM
                                         8         CPR     1974
                                         9         PMC     OFF
                                        10  *
                                        11         ENTDEF  ZIG$DBIFM
                                        12  *
                                        13         ENTREF  ZIQ$DBGRC
                                        14         ENTREF  ZIG$DBGRS
                                        15         ENTREF  ZIG$DBPFD
                                        16         ENTREF  ZIG$DBPFN
                                        17  *
                                        18         LODM    Q2MA
                                        19  *
                                        20         Q2SYM

 12:46 09/05/97  FILE=ZIM$DBIM.:ZIC0TSI       IDS-II  TEST SET FOR MEMBERS SUBROUTINE                    3    BMAP - B00
                                        21         TTLS    IDS-II  TEST SET FOR MEMBERS SUBROUTINE
                                        22  ****************************************************************
                                        23  *
                                        24  *  - DBIFM -
                                        25  *
                                        26  *      IF MEMBER.  Determine if a specific set has any members.
                                        27  *
                                        28  *      If the current of set is a member of the set,
                                        29  *      the first word of the UWA will be set to zero.
                                        30  *
                                        31  *      If the current of set is the owner of the set,
                                        32  *      and there are member records in the set, the first
                                        33  *      word of the UWA is set to zero.
                                        34  *
                                        35  *      If the current of set is an owner of the set,
                                        36  *      and there are no members in the set, the first
                                        37  *      word of the UWA is set to non-zero.
                                        38  *
                                        39  *      Parameter   Description
                                        40  *      ---------   -----------
                                        41  *
                                        42  *          0       IA
                                        43  *          1       UWA
                                        44  *          2       FPT
                                        45  *
                                        46  *      FPT Format...
                                        47  *
                                        48  *      Word 0:  RVA offset to a schema subset element which
                                        49  *          describes the set to be tested.
                                        50  *
                                        51  ****************************************************************
                                        52  *
 0 000000                               53  ZIG$DBIFM NULL
   000000  X 000000 7000 00             54           DBSAV
   000001    000004 000000
                                        55  *  INIT TEST RESULT TO .TRUE. I.E.  SET IS EMPTY
   000002    000001 2360 07             56        LDQ     1,DL
 12:46 09/05/97  FILE=ZIM$DBIM.:ZIC0TSI       IDS-II  TEST SET FOR MEMBERS SUBROUTINE                    4    BMAP - B00
   000003    000002 4714 07             57        LDP     PR1,UWASID,DL       UWA$
   000004    1 00000 7561 00            58        STQ     IFR,,PR1            SET TO TRUE UNTIL CHANGED
                                        59  *  GET CURRENT OF SET
   000005    000000 4704 07             60         LDP    PR0,VLPSID,DL            VLP$
   000006    000003 4714 07             61           LDP      PR1,RVASID,DL           RVA$
   000007    0 00000 2261 00            62         LDX     X6,0,,PR0            Get offset to SC pointer from FPT
   000010    1 00000 2261 16            63           LDX      X6,,X6,PR1           Get SC offset from RVA
                                        64         IFE     A,1,%CK1
   000011    6 00000 2211 16            65         LDX     X1,DEF,X6,PR6   GET DEF TYPE FROM SC
   000012    040000 3010 03             66         CANX    X1,.SC,DU       IS IT AN SC
   000013 (0)000112 6000 00             67         TZE     CER12           NO - ERROR
                                        68  CK1    MARK
                                        69  *              CHECK THAT SET IS IN SUB-SCHEMA
   000014    6 00000 7211 16            70         LXL     X1,DEF,X6,PR6
   000015    020000 3010 03             71         CANX    X1,.SNSS,DU     IS SET IN SS
   000016    000101 6010 04             72         TNZ     IME1,$          NO - ERROR
   000017    6 00001 2211 16            73         LDX     X1,SCWSO,X6,PR6  GET WORK SPACE OFST
   000020    7 00001 2361 11            74         LDQ     CURR,X1,PR7     GET CURRENT OF SET
   000021 (0)000123 6000 00             75         TZE     NCUR5           NONE
   000022    7 00510 2231 00            76         LDX     X3,RVI,,PR7     SET X3 TO REC VAR IN
   000023    7 00000 7561 13            77         STQ     DBKEY,X3,PR7    PUT DBK IN REC VAR IN
   000024  X 000000 7010 00             78           DBCAL    ZIG$DBPFD,,PER14
   000025 (0)000130 7020 00
   000026    5 00006 2341 00
   000027    777776 6010 04
                                        79  *  GET RC PTR
   000030    7 00510 2231 00            80         LDX     X3,RVI,,PR7     SET X3 TO REC VAR IN
   000031    7 00003 2351 13            81         LDA     RTP,X3,PR7      GET REC TYPE
   000032    7 00005 2201 13            82         LDX     X0,ACPTR,X3,PR7  GET AC PTR
   000033  X 000000 7010 00             83         ICCAL   ZIQ$DBGRC,,RCER3 GET RC
   000034 (0)000127 7020 00
   000035    5 00006 2341 00
   000036    777776 6010 04
                                        84  *  GET RS PTR
   000037    000000 4704 07             85         LDP    PR0,VLPSID,DL            VLP$
   000040    000003 4714 07             86           LDP      PR1,RVASID,DL           RVA$
   000041    0 00000 2261 00            87         LDX     X6,0,,PR0            Get offset to SC pointer from FPT
 12:46 09/05/97  FILE=ZIM$DBIM.:ZIC0TSI       IDS-II  TEST SET FOR MEMBERS SUBROUTINE                    5    BMAP - B00
   000042    1 00000 2261 16            88           LDX      X6,,X6,PR1           Get SC offset from RVA
   000043  X 000000 7010 00             89         DBCAL   ZIG$DBGRS,,RSER4 GET RS
   000044 (0)000127 7020 00
   000045    5 00006 2341 00
   000046    777776 6010 04
   000047    7 00510 2231 00            90         LDX     X3,RVI,,PR7     SET X3 TO REC VAR IN
   000050    7 00006 7471 13            91         STX     X7,RCPTR,X3,PR7  SAVE RC PTR
   000051    7 00004 7461 13            92         STX     X6,SCPTR,X3,PR7  SAVE SC PTR
   000052    7 00520 7461 00            93         STX     X6,PRSC,,PR7                                             <EHW>
   000053    7 00004 4451 13            94         SXL     X5,RSPTR,X3,PR7  SAVE RS PTR
                                        95  *  SEE IF THIS RECORD IS A MEMBER
   000054    6 00000 2211 15            96         LDX     X1,DEF,X5,PR6   GET DEF TYPE FROM RS
   000055    004000 3010 03             97         CANX    X1,.SM,DU       IS IT A SET MEMBER RS
   000056    000027 6010 04             98         TNZ     STR,$           YES - RETURN TRUE
                                        99  *  THIS REC IS OWNER - SEE IF THERE ARE ANY MEMBERS
   000057    7 00002 4735 13           100         LDP     PR3,RADDR,X3,PR7  GET ADDRESS OF RECORD
   000060    000 1 100 1015 20         101         MRL     (1,,1),(1),0,1  * MOVE
   000061    6 00004 0001 15           102         ARG     NPOS,X5,PR6     * NEXT PTR TO
   000062    7 00061 0 0 0 0004        103        ADSC9   ITPTR,0,4,PR7       WORK SPACE
   000063    6 00000 7211 16           104         LXL     X1,DEF,X6,PR6   GET DEF FROM SC
   000064    001000 3010 03            105         CANX    X1,.LG,DU       IS IT A GLOBAL SET
   000065 (0)000072 6010 00            106         TNZ     GOTA            YES
   000066    7 00005 2201 13           107         LDX     X0,ACPTR,X3,PR7  GET AC
   000067    7 00061 2351 00           108         LDA     ITPTR,,PR7      GET PTR
   000070    6 00002 0351 10           109         ADLA    ABAS,X0,PR6     MAKE IT A DBK
   000071    7 00061 7551 00           110         STA     ITPTR,,PR7      SAVE
   000072                              111  GOTA   NULL
   000072    7 00061 2361 00           112         LDQ     ITPTR,,PR7      GET NEXT PTR
   000073    7 00000 1161 13           113         CMPQ    DBKEY,X3,PR7    IS IT DBK OF THIS REC
   000074 (0)000107 6000 00            114         TZE     RETM            YES - NO MEMBERS
   000075    000000 6210 00            115         EAX     X1,0                                                     <EHW>
   000076    7 00517 7411 00           116         STX     X1,PRRC,,PR7    SET TO SKIP LOGICALLY DELETED RECORDS    <EHW>
   000077  X 000000 7010 00            117         DBCAL   ZIG$DBPFN,RETM,FNERR FIND NEXT OF SET                    <EHW>
   000100 (0)000130 7020 00
   000101    5 00006 2341 00
   000102    000003 6000 04
   000103    5 00006 4501 00
 12:46 09/05/97  FILE=ZIM$DBIM.:ZIC0TSI       IDS-II  TEST SET FOR MEMBERS SUBROUTINE                    6    BMAP - B00
   000104 (0)000107 7020 00
   000105                              118  STR    NULL
   000105    000002 4714 07            119         LDP    PR1,UWASID,DL            UWA$
   000106    1 00000 4501 00           120         STZ    IFR,,PR1                 SET TEST RESULTS TO .TRUE.
   000107                              121  RETM   NULL
                                       122  *  MARK OUTPUT REC VAR AS NOT CURR OF RUN
   000107    000000 6210 00            123         EAX     X1,0
   000110    7 00511 4411 00           124         SXL     X1,RVO,,PR7
                                       125  *  RETURN
   000111  X 000000 7020 00            126           DBRET
                                       127  *
                                       128  *  ERRORS DETECTED IN THIS ROUTINE
                                       129  *
                                       130         IFE     A,1,%CK1
   000112                              131  CER12  NULL                    2ND ARGUMENT NOT AN SC PTR
   000112    210562 2350 07            132         LDA     ARGER,DL
   000113    000000 6200 00            133         EAX     X0,0            NULL AC
   000114    000000 6260 00            134         EAX     X6,0            NULL SC
   000115    000000 6270 00            135         EAX     X7,0            NULL RC
   000116 (0)000131 7100 00            136         TRA     IMR1
                                       137  CK1    MARK
   000117                              138  IME1   NULL                    SET NOT IN SUB-SCHEMA
   000117    010150 2350 07            139         LDA     IRSN,DL
   000120    000000 6200 00            140         EAX     X0,0            NULL AC
   000121    000000 6270 00            141         EAX     X7,0            NULL RC
   000122    000007 7100 04            142         TRA     IMR1,$
   000123                              143  NCUR5  NULL                    NO CURRENT OF SET
   000123    006034 2350 07            144         LDA     CNUL,DL
   000124    000000 6200 00            145         EAX     X0,0            NULL AC
   000125    000000 6270 00            146         EAX     X7,0            NULL RC
   000126 (0)000131 7100 00            147         TRA     IMR1
                                       148  *
                                       149  *  ERRORS DETECTED IN SUBORDINATE ROUTINES
                                       150  *
   000127                              151  RCER3  NULL                    RC NOT FOUND FOR CURRENT OF SET
   000127                              152  RSER4  NULL                    CURRENT OF SET NOT IN SET
   000127                              153  STER1  NULL                    ERROR ACCUMULATING STATISTICS
 12:46 09/05/97  FILE=ZIM$DBIM.:ZIC0TSI       IDS-II  TEST SET FOR MEMBERS SUBROUTINE                    7    BMAP - B00
   000127 (0)000131 7100 00            154         TRA     IMR1
                                       155  *
                                       156  *  ERRORS DETECTED IN PRIMITIVES
                                       157  *
   000130                              158  PER14  NULL                    PAGE ERROR - FIND CURR
   000130                              159  FNERR  NULL                    FIND NEXT OF SET ERROR                   <EHW>
   000130 (0)000131 7100 00            160         TRA     IMR1
                                       161  *
                                       162  *  COMMON ERROR RETURN
                                       163  *
   000131  X 000000 7020 00            164  IMR1     DBALT
                                       165         END

  CONTROL SECTION TABLE

   0 CODE   EVEN  000132
   1 RODATA EVEN  000000 LITERALS

 12:46 09/05/97  FILE=ZIM$DBIM.:ZIC0TSI       SYMBOL TABLE                                               8    BMAP - B00
 40000000 000000200000 .AC            *20
 40000000 000000000100 .AG            *20
 40000000 000000002000 .ALTO          *20
 40000000 000000000077 .ANL           *20
 40000000 000000200000 .APDN          *20
 40000000 000000000100 .ATMP          *20
 40000000 000000400000 .AV            *20
 40000000 000000400000 .B0            *20
 40000000 000000200000 .B1            *20
 40000000 000000000200 .B10           *20
 40000000 000000000100 .B11           *20
 40000000 000000000040 .B12           *20
 40000000 000000000020 .B13           *20
 40000000 000000000010 .B14           *20
 40000000 000000000004 .B15           *20
 40000000 000000000002 .B16           *20
 40000000 000000000001 .B17           *20
 40000000 000000400000 .B18           *20
 40000000 000000200000 .B19           *20
 40000000 000000100000 .B2            *20
 40000000 000000100000 .B20           *20
 40000000 000000040000 .B21           *20
 40000000 000000020000 .B22           *20
 40000000 000000010000 .B23           *20
 40000000 000000004000 .B24           *20
 40000000 000000002000 .B25           *20
 40000000 000000001000 .B26           *20
 40000000 000000000400 .B27           *20
 40000000 000000000200 .B28           *20
 40000000 000000000100 .B29           *20
 40000000 000000040000 .B3            *20
 40000000 000000000040 .B30           *20
 40000000 000000000020 .B31           *20
 40000000 000000000010 .B32           *20
 40000000 000000000004 .B33           *20
 40000000 000000000002 .B34           *20
 40000000 000000000001 .B35           *20
 12:46 09/05/97  FILE=ZIM$DBIM.:ZIC0TSI       SYMBOL TABLE                                               9    BMAP - B00
 40000000 000000020000 .B4            *20
 40000000 000000010000 .B5            *20
 40000000 000000004000 .B6            *20
 40000000 000000002000 .B7            *20
 40000000 000000001000 .B8            *20
 40000000 000000000400 .B9            *20
 40000000 000000000001 .BREAK         *20
 40000000 000000010000 .BRK           *20
 40000000 000000020000 .BTB           *20
 40000000 000000000001 .CAC           *20
 40000000 000000000000 .CAE           *20
 40000000 000000000200 .CANSSS        *20
 40000000 000000000400 .CD            *20
 40000000 000000040000 .CFLC          *20
 40000000 000000400000 .CHKSUM        *20
 40000000 000000100000 .CJRNL         *20
 40000000 000000000077 .CNSZ          *20
 40000000 000000160000 .COMC          *20
 40000000 000000000020 .CONT          *20
 40000000 000000000000 .CSE           *20
 40000000 000000700000 .CTYP          *20
 41000000 000000000270 .DBEST         *20
 41000000 000000000470 .DBIC          *20
 40000000 000000077777 .DBPT          *20
 41000000 000000000370 .DBSTK         *20
 40000000 000000020000 .DELM          *20
 40000000 000000002000 .DIDP          *20
 40000000 000000000077 .DNDX          *20
 40000000 000000600000 .DORD          *20
 40000000 000000000200 .DP            *20
 40000000 000000100000 .DPS           *20
 40000000 000000200000 .DPSA          *20
 40000000 000000400000 .DPST          *20
 40000000 000000000002 .DUMP          *20
 40000000 000000002000 .DUPC          *20
 40000000 000000010000 .DUPP          *20
 40000000 000000200000 .EBCL          *20
 12:46 09/05/97  FILE=ZIM$DBIM.:ZIC0TSI       SYMBOL TABLE                                               10   BMAP - B00
 40000000 000000400000 .EBCM          *20
 40000000 000000200000 .ENCRP         *20
 40000000 000000000077 .ENDX          *20
 40000000 000000000400 .ENQ           *20
 40000000 000000004000 .ETC           *20
 40000000 000000000400 .EXIT          *20
 40000000 000000000200 .FMOD          *20
 40000000 000000000077 .FNL           *20
 40000000 000000000074 .FORG          *20
 40000000 000000002000 .FR            *20
 40000000 000000000100 .FSR           *20
 40000000 000000003400 .FUSE          *20
 40000000 000000010000 .FVF           *20
 40000000 000000040000 .FVR           *20
 40000000 000000000010 .INDEXED       *20
 40000000 000000777777 .IXID          *20
 40000000 000000001777 .IXNUM         *20
 40000000 000000000004 .KEYED         *20
 40000000 000000010000 .LCK           *20
 40000000 000000400000 .LEIL          *20
 41000000 000000001000 .LG            *20       105
 40000000 000000000002 .LOAD          *20
 40000000 000000020000 .MAR           *20
 40000000 000000000007 .MEMT          *20
 40000000 000000010000 .MRL           *20
 40000000 000000040000 .MSM           *20
 60000000 000000000001 .N6685         *20
 40000000 000000100000 .NAI           *20
 40000000 000000200000 .NBI           *20
 40000000 000000000002 .NCIA          *20
 40000000 000000040000 .NMV           *20
 40000000 000000017777 .NOENT         *20
 40000000 000000400000 .OA            *20
 40000000 000000740000 .OPEV          *20
 40000000 000000100000 .OSM           *20
 40000000 000000100000 .PAFIL         *20
 40000000 000000200000 .PAHVR         *20
 12:46 09/05/97  FILE=ZIM$DBIM.:ZIC0TSI       SYMBOL TABLE                                               11   BMAP - B00
 40000000 000000000001 .PAIA          *20
 40000000 000000040000 .PALIL         *20
 40000000 000000020000 .PALVR         *20
 40000000 000000400000 .PANLL         *20
 40000000 000000400000 .PCKD          *20
 40000000 000000001600 .PMOD          *20
 40000000 000000000520 .PRCSE         *20
 40000000 000000000007 .PSTO          *20
 40000000 000000006040 .PTAS          *20
 40000000 000000010100 .PTCHK         *20
 40000000 000000010200 .PTDEC         *20
 40000000 000000010140 .PTENC         *20
 40000000 000000020000 .RA            *20
 40000000 000000100000 .RC            *20
 40000000 000000400000 .RELEASE       *20
 40000000 000000000017 .RELT          *20
 40000000 000000004000 .RERA          *20
 40000000 000000400000 .RERS          *20
 40000000 000000010000 .RKEY          *20
 40000000 000000000077 .RNL           *20
 40000000 000000200000 .RSTO          *20
 40000000 000000007777 .RTYP          *20
 41000000 000000040000 .SC            *20        66
 40000000 000000000070 .SETM          *20
 40000000 000000740000 .SETO          *20
 40000000 000000000700 .SETT          *20
 40000000 000000040000 .SFNP          *20
 41000000 000000004000 .SM            *20        97
 40000000 000000020000 .SMOD          *20
 40000000 000000000077 .SNL           *20
 41000000 000000020000 .SNSS          *20        71
 40000000 000000010000 .SO            *20
 40000000 000000100000 .SR            *20
 40000000 000000004000 .SRCR          *20
 40000000 000000001000 .SS            *20
 40000000 000000000007 .SSTP          *20
 40000000 000000004000 .SYN           *20
 12:46 09/05/97  FILE=ZIM$DBIM.:ZIC0TSI       SYMBOL TABLE                                               12   BMAP - B00
 40000000 000000000040 .SYNC          *20
 40000000 000000020000 .TJRNL         *20
 40000000 000000040000 .TMPLT         *20
 40000000 000000040000 .TRACE         *20
 40000000 000000000001 .TRENTRY       *20
 40000000 000000000012 .TRIDEL        *20
 40000000 000000000021 .TRIDELENQ     *20
 40000000 000000000024 .TRIDEQ        *20
 40000000 000000000013 .TRIMOD        *20
 40000000 000000000022 .TRIMODENQ     *20
 40000000 000000000014 .TRIREAD       *20
 40000000 000000000023 .TRIREADENQ    *20
 40000000 000000000011 .TRISTO        *20
 40000000 000000000020 .TRISTOENQ     *20
 40000000 000000000017 .TRPDEQ        *20
 40000000 000000000004 .TRPMOD        *20
 40000000 000000000016 .TRPMODENQ     *20
 40000000 000000000002 .TRPREAD       *20
 40000000 000000000015 .TRPREADENQ    *20
 40000000 000000000003 .TRPWRITE      *20
 40000000 000000000010 .TRRACC        *20
 40000000 000000000006 .TRRDEL        *20
 40000000 000000000007 .TRRMOD        *20
 40000000 000000000005 .TRRSTO        *20
 40000000 000000004000 .ULCK          *20
 40000000 000000400000 .UPDT          *20
 40000000 000000000040 .VIA           *20
 61000000 000000000001 A              *20        64       130
 41000000 000000000002 ABAS           *20       109
 40000000 000000000001 AC             *20
 40000000 777777777760 ACDEF          *20
 40000000 000000211070 ACDNL          *20
 40000000 000000000003 ACID           *20
 40000000 000000001016 ACOPN          *20
 40000000 000000000002 ACP            *20
 41000000 000000000005 ACPTR          *20        82       107
 40000000 000000000002 ACRAH          *20
 12:46 09/05/97  FILE=ZIM$DBIM.:ZIC0TSI       SYMBOL TABLE                                               13   BMAP - B00
 40000000 000000000001 ACRAN          *20
 40000000 000000001003 ACREC          *20
 40000000 000000000001 ACTDBCB        *20
 40000000 000000000002 ACTDBNO        *20
 40000000 000000001017 ACTP           *20
 40000000 000000000000 ACTSSS         *20
 40000000 000000000000 ACTSZ          *20
 40000000 000000210565 AFNP           *20
 40000000 000000000635 AFT            *20
 40000000 000000022124 AIR            *20
 40000000 000000000016 AMAX           *20
 40000000 000000000026 ANAM           *20
 40000000 000000021614 ANR            *20
 40000000 000000000001 APNO           *20
 41000000 000000210562 ARGER          *20       132
 41000000 000000000020 ARGS           *20
 40000000 000000000077 ARGS2          *20
 40000000 000000210713 ARNAF          *20
 40000000 000000000003 ATBL           *20
 40000000 000000000000 ATRIB          *20
 40000000 000000000002 AVLN           *20
 40000000 000000000013 AWS$           *20
 40000000 000000000010 AWSZ           *20
 60000000 000000000001 B              *20
 40000000 000000001006 B32N           *20
 40000000 000000001007 B36N           *20
 40000000 000000001056 B72N           *20
 40000000 000000000001 BADDR          *20
 40000000 000000210712 BADSEED        *20
 40000000 777777777765 BDCW           *20
 40000000 000000000633 BEF            *20
 40000000 000000020000 BEFW           *20
 40000000 000000000751 BEMT           *20
 40000000 777777777761 BID            *20
 40000000 777777777762 BIND           *20
 40000000 000000000007 BLKD           *20
 40000000 000000303331 BME02          *20
 12:46 09/05/97  FILE=ZIM$DBIM.:ZIC0TSI       SYMBOL TABLE                                               14   BMAP - B00
 41000000 000000001203 BMPB           *20
 40000000 000000000652 BN1            *20
 40000000 000000000654 BN2            *20
 40000000 000000000004 BPL            *20
 40000000 000000000015 BPLDBK         *20
 40000000 000000000034 BSPG           *20
 40000000 777777777763 BSTAT          *20
 40000000 000000000750 BTX0           *20
 41000000 000000001160 BUF4           *20
 41000000 000000001170 BUF6           *20
 41000000 000000000000 BUFORG         *20
 40000000 000000001060 BUFRQ          *20
 40000000 000000000006 BURRID         *20
 41000000 000000000020 BWASZ          *20
 60000000 000000000001 C              *20
 40000000 000000000050 CAAC           *20
 40000000 000000000050 CACD           *20
 40000000 000000000111 CAG            *20
 40000000 000000001033 CAL            *20
 40000000 000000000026 CALLPM0        *20
 40000000 000000000003 CANSSS         *20
 40000000 000000000003 CBCPA          *20
 40000000 000000000002 CBCPO          *20
 40000000 000000000002 CBENO          *20
 40000000 000000000014 CBFSZ          *20
 40000000 000000000753 CBIB           *20
 40000000 000000001030 CBID           *20
 40000000 000000000014 CBRCE          *20
 40000000 000000000014 CBRCP          *20
 40000000 000000001033 CBRID          *20
 40000000 000000000015 CBRPA          *20
 40000000 000000000031 CCHAR          *20
 40000000 000000000040 CDBK           *20
 40000000 000000000030 CDES           *20
 40000000 000000000110 CDP            *20
 40000000 000000001044 CDPSI          *20
 40000000 000000000002 CDRH           *20
 12:46 09/05/97  FILE=ZIM$DBIM.:ZIC0TSI       SYMBOL TABLE                                               15   BMAP - B00
 40000000 000000000003 CDRN           *20
 40000000 000000000002 CDSH           *20
 40000000 000000000003 CDSN           *20
 40000000 000000000722 CENTRN         *20
 40000000 000000000722 CENTRO         *20
 40000000 000000000716 CENTRY         *20
 01101000 000000000112 CER12           67      *131
 41000000 000000001053 CFCT           *20
 40000000 000000000670 CFLPT1         *20
 40000000 000000000672 CFLPT2         *20
 40000000 000000000015 CFSA           *20
 40000000 000000000646 CHDBK          *20
 40000000 000000000773 CHR            *20
 40000000 000000000006 CHRD           *20
 40000000 000000000772 CHRO           *20
 40000000 000000007640 CHRTP          *20
 40000000 000000001043 CIAC           *20
 40000000 000000000012 CIAWS          *20
 40000000 000000001051 CIBSI          *20
 40000000 000000000516 CIND           *20
 40000000 000000001041 CINVSZ         *20
 40000000 000000001042 CIPG           *20
 40000000 000000001050 CIPSI          *20
 40000000 000000000000 CIRUN          *20
 40000000 000000000002 CIRWS          *20
 40000000 000000000002 CISWS          *20
 40000000 000000000014 CIWSOF         *20
 40000000 000000303374 CKSM           *20
 40000000 000000000022 CLCN           *20
 40000000 000000000023 CLCP           *20
 40000000 000000000003 CLCRC          *20
 40000000 000000000003 CLCSC          *20
 40000000 000000000237 CLI            *20
 40000000 000000000026 CLNG           *20
 40000000 000000000052 CMPL           *20
 40000000 000000000002 CN             *20
 40000000 000000303315 CNE1           *20
 12:46 09/05/97  FILE=ZIM$DBIM.:ZIC0TSI       SYMBOL TABLE                                               16   BMAP - B00
 41000000 000000006034 CNUL           *20       144
 40000000 000000100000 COB74          *20
 40000000 000000000001 COFS           *20
 40000000 000000000045 CONCD          *20
 40000000 000000007764 CP6PGSZB       *20
 41000000 000000001775 CP6PGSZW       *20
 40000000 000000001000 CPGR           *20
 40000000 000000000723 CPTRN          *20
 40000000 000000000723 CPTRO          *20
 60000000 000000000004 CPW            *20
 40000000 000000000112 CRA            *20
 40000000 000000001004 CRD            *20
 40000000 000000000764 CREC           *20
 40000000 000000006344 CRIT           *20
 40000000 000000006200 CRNUL          *20
 40000000 000000007330 CRST           *20
 41000000 000000001223 CRUN           *20
 41000000 000000000000 CSECT          *20
 40000000 000000000007 CSMPP          *20
 40000000 000000001000 CSPAC          *20
 40000000 000000000004 CSPAH          *20
 40000000 777777777776 CSPES          *20
 40000000 777777777776 CSPSB          *20
 40000000 000000000115 CSTS           *20
 40000000 000000000071 CSUB           *20
 40000000 000000000017 CSZ            *20
 40000000 000000000057 CTMASK         *20
 40000000 000000000774 CTPAI          *20
 40000000 000000000240 CURLN          *20
 40000000 000000000236 CURLT          *20
 40000000 000000000770 CURPG          *20
 41000000 000000000001 CURR           *20        74
 40000000 000000000035 CURRS          *20
 40000000 000000000037 CURSS          *20
 40000000 000000001005 CWRT           *20
 40000000 000000000237 CWSOF          *20
 60000000 000000000001 D              *20
 12:46 09/05/97  FILE=ZIM$DBIM.:ZIC0TSI       SYMBOL TABLE                                               17   BMAP - B00
 40000000 000000000003 DBAN           *20
 40000000 000000000036 DBDR           *20
 40000000 000000000037 DBFN           *20
 40000000 000000000754 DBK            *20
 40000000 000000000777 DBKAC          *20
 41000000 000000000000 DBKEY          *20        77       113
 40000000 000000000000 DBKL           *20
 40000000 000000007474 DBKN           *20
 41000000 000000000776 DBKR           *20
 40000000 000000000777 DBKRQ          *20
 40000000 000000000234 DBKSI          *20
 40000000 000000000651 DBKSR          *20
 40000000 000000000047 DBKYN          *20
 40000000 000000210652 DBLC01         *20
 40000000 000000210653 DBLC05         *20
 40000000 000000303334 DBLC07         *20
 40000000 000000210655 DBLD01         *20
 40000000 000000000010 DBLIM          *20
 40000000 000000000033 DBPKY          *20
 40000000 000000000023 DBRN           *20
 40000000 000000000013 DBSN           *20
 40000000 000000000001 DBST           *20
 40000000 000000000757 DCDSR          *20
 40000000 000000210650 DCE1           *20
 40000000 000000001053 DCPR           *20
 40000000 000000001053 DCPW           *20
 40000000 000000000015 DCTBL          *20
 40000000 000000000032 DDBK           *20
 40000000 000000000006 DDCB           *20
 40000000 000000011754 DDI            *20
 41000000 000000000000 DEF            *20        65        70        96       104
 40000000 000000000014 DEF2           *20
 40000000 000000303413 DELAK          *20
 40000000 000000000036 DELRS          *20
 40000000 000000000732 DEPCW          *20
 40000000 000000303414 DLDBK          *20
 40000000 000000210627 DLE1           *20
 12:46 09/05/97  FILE=ZIM$DBIM.:ZIC0TSI       SYMBOL TABLE                                               18   BMAP - B00
 40000000 000000303310 DLE2           *20
 40000000 000000210631 DLE3           *20
 40000000 000000016040 DNES           *20
 40000000 777777777777 DPAGN          *20
 40000000 000000000020 DPPI           *20
 40000000 000000000053 DPSLW          *20
 40000000 000000000003 DS             *20
 40000000 000000001063 DSDES          *20
 40000000 000000303316 DSE1           *20
 40000000 000000000735 DUSEPA         *20
 60000000 000000000001 E              *20
 40000000 000000303251 EDPER          *20
 40000000 000000000026 EEIND          *20
 40000000 000000000713 EFIND          *20
 40000000 000000001030 ELO            *20
 40000000 000000210711 ENCPNA         *20
 40000000 000000000007 ENCRP          *20
 40000000 000000000752 ENDSR          *20
 40000000 000000210647 ENE1           *20
 40000000 000000000716 ENIND          *20
 40000000 000000000013 ENTBL          *20
 40000000 000000000710 ENTNO          *20
 40000000 000000000712 ENTPTR         *20
 40000000 000000000717 ENTSZ          *20
 40000000 000000000711 ENTTYP         *20
 40000000 000000004064 EOSR           *20
 40000000 000000000004 ES             *20
 41000000 000000000100 ESTSZ          *20
 40000000 000000000725 ESZ            *20
 40000000 000000000005 ETCADR         *20
 40000000 000000000005 ETCDBNO        *20
 40000000 000000000064 EXCCD          *20
 40000000 000000234534 FALRT          *20
 40000000 000000001055 FBF72          *20
 40000000 000000001025 FBU61          *20
 40000000 000000001020 FBUF           *20
 40000000 000000001026 FBUF1          *20
 12:46 09/05/97  FILE=ZIM$DBIM.:ZIC0TSI       SYMBOL TABLE                                               19   BMAP - B00
 40000000 000000001027 FBUF4          *20
 40000000 000000001024 FBUF6          *20
 40000000 000000001022 FBUFM          *20
 40000000 000000001021 FBUFU          *20
 40000000 000000001023 FBUMD          *20
 40000000 000000000004 FCN            *20
 40000000 000000000051 FCNT           *20
 40000000 000000000002 FCP            *20
 40000000 000000000047 FCSS           *20
 40000000 000000000005 FD             *20
 40000000 000000210637 FDE1           *20
 40000000 000000303320 FDE2           *20
 40000000 000000303321 FDE3           *20
 40000000 000000210642 FDE4           *20
 40000000 000000210643 FDE5           *20
 40000000 000000210644 FDE6           *20
 40000000 000000303325 FDE7           *20
 40000000 000000303326 FDE8           *20
 40000000 000000000021 FEASZ          *20
 40000000 000000000740 FETM           *20
 40000000 000000000006 FI             *20
 40000000 000000000103 FIAC           *20
 41000000 000000001100 FIB1           *20
 41000000 000000001130 FIBP           *20
 40000000 000000000000 FIBX           *20
 40000000 000000000102 FICNT          *20
 40000000 000000000005 FIPN           *20
 40000000 000000000054 FKIND          *20
 40000000 000000000015 FLAGS          *20
 40000000 000000000244 FLDDSC         *20
 40000000 000000000046 FLDTL          *20
 40000000 000000000020 FMSBF          *20
 40000000 000000000006 FNAM           *20
 01101000 000000000130 FNERR          117      *159
 40000000 000000000250 FNIND          *20
 40000000 000000000004 FNL            *20
 40000000 000000000101 FRAC           *20
 12:46 09/05/97  FILE=ZIM$DBIM.:ZIC0TSI       SYMBOL TABLE                                               20   BMAP - B00
 40000000 000000000002 FRANGE         *20
 40000000 000000211400 FRDNL          *20
 40000000 000000200000 FRTRN          *20
 40000000 000000000005 FRWSO          *20
 40000000 000000000767 FSLN           *20
 40000000 000000000766 FSOF           *20
 40000000 000000000060 FTIND          *20
 40000000 000000303240 FTLINCR        *20
 40000000 000000000021 FWSSZ          *20
 40000000 000000000246 GACDK          *20
 40000000 000000000014 GDCB           *20
 41000000 000000000006 GERROR         *20        78        83        89       117
 40000000 000000000016 GINHIB         *20
 40000000 000000000020 GIOAWS         *20
 40000000 000000000022 GIOBUF         *20
 40000000 000000000021 GIOPGNO        *20
 01101000 000000000072 GOTA           106      *111
 40000000 000000000015 GPAGE          *20
 40000000 000000000010 GRETAC         *20
 40000000 000000000011 GRETFR         *20
 40000000 000000000013 GRETRC         *20
 40000000 000000000012 GRETSC         *20
 40000000 000000000025 GRLCW          *20
 40000000 000000000014 GSTCD          *20
 40000000 000000000007 GSYSERR        *20
 40000000 000000000010 GT             *20
 40000000 000000000046 GTRNAME        *20
 40000000 000000000055 GTRPDCB        *20
 40000000 000000000056 GTRPNO         *20
 40000000 000000000057 GTRRDBK        *20
 40000000 000000000060 GTRRTYPE       *20
 40000000 000000000060 GTRTYPE        *20
 40000000 000000000027 HASH           *20
 40000000 000000000022 HIA            *20
 40000000 000000000775 HIDB           *20
 40000000 000000000003 HIGHDBK        *20
 40000000 000000000004 HIGHPG         *20
 12:46 09/05/97  FILE=ZIM$DBIM.:ZIC0TSI       SYMBOL TABLE                                               21   BMAP - B00
 40000000 000000001037 HIL            *20
 40000000 000000000002 HILN           *20
 40000000 000000000006 HPOS           *20
 40000000 000000000756 IAAC           *20
 40000000 000000001011 IACLN          *20
 40000000 000000001010 IALC           *20
 40000000 000000010314 IAN            *20
 40000000 000000001012 IANLN          *20
 40000000 000000000001 IASID          *18
 40000000 000000020320 ICA            *20
 40000000 000000000023 ICKSMP         *20
 40000000 000000000024 ICKSMV         *20
 40000000 000000210742 ICNR           *20
 41000000 000000000020 ICSIZ          *20
 40000000 000000010004 IDBK           *20
 40000000 000000012120 IDI            *20
 40000000 000000000023 IDS            *20
 40000000 000000000011 IF             *20
 40000000 000000000021 IFIPN          *20
 41000000 000000000000 IFR            *20        58       120
 40000000 000000234546 IKSEQ          *20
 01101000 000000000117 IME1            72      *138
 01101000 000000000131 IMR1           136       142       147       154       160      *164
 40000000 000000000113 INAFLAG        *20
 40000000 000000000016 INCHA          *20
 40000000 000000210566 INNM           *20
 40000000 000000210567 INSS           *20
 40000000 000000210575 INSST          *20
 40000000 000000303241 INTER          *20
 40000000 000000400000 INTII          *20
 40000000 000000000013 INTVL          *20
 40000000 000000001060 INVFLG         *20
 40000000 000000001043 INVOF          *20
 40000000 000000000014 INVT           *20
 40000000 000000000034 IOBLK          *20
 40000000 000000303354 IOCLSD         *20
 40000000 000000303355 IOCLSK         *20
 12:46 09/05/97  FILE=ZIM$DBIM.:ZIC0TSI       SYMBOL TABLE                                               22   BMAP - B00
 40000000 000000303257 IOE1           *20
 40000000 000000303264 IOE11          *20
 40000000 000000303265 IOE12          *20
 40000000 000000303266 IOE18          *20
 40000000 000000303260 IOE2           *20
 40000000 000000303261 IOE3           *20
 40000000 000000303262 IOE7           *20
 40000000 000000303263 IOE8           *20
 40000000 000000303363 IOFLSH         *20
 40000000 000000210676 IOGDCB         *20
 40000000 000000001002 IOINC          *20
 40000000 000000305160 IOINI          *20
 40000000 000000305155 IONOTIDS       *20
 40000000 000000305154 IONOTKEY       *20
 40000000 000000210677 IOOPND         *20
 40000000 000000210700 IOOPNK         *20
 40000000 000000303361 IORDD          *20
 40000000 000000305156 IOSCHEMA       *20
 40000000 000000001052 IOSTS          *20
 40000000 000000303362 IOWRTD         *20
 41000000 000000000750 IOWS           *20
 40000000 000000000647 IPC            *20
 40000000 000000000650 IPCF           *20
 40000000 000000000006 IROLLFLAG      *20
 41000000 000000010150 IRSN           *20       139
 40000000 000000000004 ISYSDCB        *20
 40000000 000000000005 ISYSERR        *20
 41000000 000000000061 ITPTR          *20       103       108       110       112
 40000000 000000000060 ITRS           *20
 40000000 000000021760 IUM            *20
 40000000 000000000017 IUSZ           *20
 40000000 000000234522 IVDBK          *20
 40000000 000000000011 IXBUF$         *20
 40000000 000000000046 IXFBSZ         *20
 40000000 777777777776 IXID           *20
 40000000 777777777777 IXPLL          *20
 40000000 000000000523 KCARG0         *20
 12:46 09/05/97  FILE=ZIM$DBIM.:ZIC0TSI       SYMBOL TABLE                                               23   BMAP - B00
 40000000 000000000524 KCARG3         *20
 40000000 000000000525 KCARG4         *20
 40000000 000000000700 KCREG          *20
 40000000 000000000006 KDCB           *20
 40000000 000000000666 KEYDS          *20
 40000000 000000000010 KEYPA          *20
 40000000 777777777776 KLNG           *20
 40000000 000000000022 KPASZ          *20
 40000000 000000000006 KWSZ           *20
 40000000 000000000052 LANGC          *20
 40000000 000000001014 LAS            *20
 40000000 000000700000 LCODM          *20
 40000000 000000001045 LDPSI          *20
 40000000 000000001071 LINPT          *20
 40000000 000000001017 LNCNT          *20
 40000000 000000000762 LNNO           *20
 40000000 000000001036 LOL            *20
 40000000 000000000715 LOLIM          *20
 40000000 000000000023 LPASZ          *20
 40000000 000000000012 LPP            *20
 40000000 000000257764 LR             *20
 40000000 000000301270 LRA            *20
 40000000 000000000017 LRSZ           *20
 40000000 000000001035 LSPC           *20
 40000000 000000000750 LUPD           *20
 61000000 000000000001 M9             *20
 40000000 000000000013 MD             *20
 40000000 000000300000 MDQS           *20
 40000000 000000000730 MEMPTR         *20
 40000000 000000000727 MEMTYP         *20
 40000000 000000000045 MODCD          *20
 41000000 000000001207 MODFL          *20
 40000000 000000000042 MODFR          *20
 40000000 000000000044 MODIN          *20
 40000000 000000000044 MODRS          *20
 40000000 000000000043 MODSC          *20
 40000000 000000000047 MRBKI          *20
 12:46 09/05/97  FILE=ZIM$DBIM.:ZIC0TSI       SYMBOL TABLE                                               24   BMAP - B00
 40000000 000000210632 MRE4           *20
 40000000 000000303313 MRE5           *20
 40000000 000000210634 MRE7           *20
 40000000 000000400000 MW             *20
 40000000 000000000025 NCH            *20
 40000000 000000000002 NCHA           *20
 40000000 000000000005 NCHRS          *20
 01101000 000000000123 NCUR5           75      *143
 40000000 000000000014 NDCD           *20
 40000000 000000000012 NENC           *20
 40000000 000000000634 NEW            *20
 40000000 000000001072 NEWSIZ         *20
 40000000 000000235164 NKA            *20
 40000000 000000235020 NKDB           *20
 40000000 000000303415 NLDBK          *20
 40000000 777777777777 NLIND          *20
 40000000 000000001040 NLN            *20
 40000000 000000400000 NLNSA          *20
 41000000 000000001053 NOBF           *20
 40000000 000000000711 NOPTRS         *20
 40000000 000000000742 NPARCW         *20
 40000000 000000000630 NPIND          *20
 41000000 000000000004 NPOS           *20       102
 40000000 000000234510 NSA            *20
 40000000 000000234654 NSCS           *20
 40000000 000000234344 NSDB           *20
 40000000 000000000001 NSTS           *20
 40000000 000000000726 NUMENT         *20
 40000000 000000000727 NUMPTR         *20
 40000000 777777777760 NXBUF          *20
 40000000 000000000713 NXPRI          *20
 40000000 000000000771 NXTC           *20
 40000000 000000000001 OAACN          *20
 40000000 000000000022 OACIWSOF       *20
 40000000 000000000001 OAOFST         *20
 40000000 000000000002 OARCN          *20
 40000000 000000000001 OASCN          *20
 12:46 09/05/97  FILE=ZIM$DBIM.:ZIC0TSI       SYMBOL TABLE                                               25   BMAP - B00
 40000000 000000000014 OD             *20
 40000000 000000000074 ODBK           *20
 40000000 000000001072 OLDSIZ         *20
 40000000 000000000101 OPADP          *20
 40000000 000000000741 OPARCW         *20
 40000000 000000210570 ORDNI          *20
 40000000 777777777777 OTVL           *20
 40000000 000000000252 OWNPTR         *20
 40000000 000000000016 PABUF          *20
 40000000 000000001041 PACD           *20
 40000000 000000000001 PACW           *20
 40000000 000000000733 PADBK          *20
 40000000 000000000740 PADUP          *20
 40000000 000000000745 PAEN           *20
 40000000 000000000745 PAEO           *20
 40000000 000000000734 PAEOF          *20
 40000000 000000303336 PAER1          *20
 40000000 000000303337 PAER2          *20
 40000000 000000303340 PAER3          *20
 40000000 000000303341 PAER4          *20
 40000000 000000303342 PAER5          *20
 40000000 000000303343 PAER6          *20
 40000000 000000000747 PAESZ          *20
 40000000 000000001060 PAFLG          *20
 40000000 000000000731 PAOPTR         *20
 40000000 000000000734 PAPOF          *20
 40000000 000000000714 PARCW          *20
 40000000 000000000726 PARVPA         *20
 40000000 000000000724 PASPLT         *20
 40000000 000000000004 PAWSZ          *20
 40000000 777777777762 PBUF           *20
 40000000 000000000020 PC             *20
 41000000 000000000510 PCB            *20
 40000000 000000000642 PCD            *20
 40000000 000000000642 PCD2           *20
 40000000 000000000247 PCEXI          *20
 40000000 000000000675 PCMIN          *20
 12:46 09/05/97  FILE=ZIM$DBIM.:ZIC0TSI       SYMBOL TABLE                                               26   BMAP - B00
 40000000 000000004541 PCOMP          *20
 40000000 000000000010 PD             *20
 40000000 000000000040 PE             *20
 40000000 000000000017 PENDING        *20
 01101000 000000000130 PER14           78      *158
 40000000 000000000004 PF             *20
 40000000 000000000400 PFG            *20
 40000000 000000000200 PFM            *20
 40000000 000000000100 PFS            *20
 40000000 000000000400 PG             *20
 40000000 000000001064 PGHD           *20
 40000000 000000000006 PGLIM          *20
 40000000 000000000003 PGRNG          *20
 40000000 000000000746 PGSIZE         *20
 40000000 000000000641 PGSPLT         *20
 40000000 000000000100 PKAW           *20
 40000000 000000001034 PLO            *20
 40000000 000000000004 PLSEP          *20
 40000000 000000000200 PM             *20
 40000000 000000001054 PNEOO          *20
 40000000 000000001047 POFSI          *20
 40000000 000000000005 PPOS           *20
 41000000 000000000000 PR0            *18        60        62        85        87
 41000000 000000000001 PR1            *18        57        58        61        63        86        88
                                      119       120
 40000000 000000000002 PR2            *18
 41000000 000000000003 PR3            *18       100
 40000000 000000000004 PR4            *18
 41000000 000000000005 PR5            *18        78        83        89       117
 41000000 000000000006 PR6            *18        65        70        73        96       102       104
                                      109
 41000000 000000000007 PR7            *18        74        76        77        80        81        82
                                       90        91        92        93        94       100       103
                                      107       108       110       112       113       116       124
 40000000 000000303267 PRE1           *20
 40000000 000000303277 PRE10          *20
 40000000 000000303270 PRE3           *20
 12:46 09/05/97  FILE=ZIM$DBIM.:ZIC0TSI       SYMBOL TABLE                                               27   BMAP - B00
 40000000 000000303271 PRE4           *20
 40000000 000000303272 PRE5           *20
 40000000 000000210613 PRE6           *20
 40000000 000000210614 PRE7           *20
 40000000 000000210615 PRE8           *20
 40000000 000000303276 PRE9           *20
 40000000 000000000522 PREXC          *20
 40000000 000000000521 PRFR           *20
 40000000 000000000521 PRFR2          *20
 40000000 000000000000 PRIV           *20
 40000000 000000000526 PROPA          *20
 41000000 000000000517 PRRC           *20       116
 40000000 000000000517 PRRS           *20
 41000000 000000000520 PRSC           *20        93
 40000000 000000000516 PRSS           *20
 40000000 000000000644 PRSTS          *20
 40000000 000000000100 PS             *20
 41000000 000000000000 PS0SID         *18
 41000000 000000000001 PS1SID         *18
 41000000 000000000002 PS2SID         *18
 41000000 000000000003 PS3SID         *18
 41000000 000000000004 PS4SID         *18
 40000000 000000000005 PS5SID         *18
 40000000 000000000006 PS6SID         *18
 40000000 000000303416 PSA            *20
 40000000 000000000020 PSC            *20
 40000000 000000000010 PSD            *20
 40000000 000000000004 PSF            *20
 40000000 000000000400 PSO            *20
 40000000 000000000720 PTESZ          *20
 40000000 000000000631 PTR            *20
 40000000 000000000724 PTRESZ         *20
 40000000 000000000710 PTRNO          *20
 41000000 000000000630 PWS            *20
 41000000 000000000002 RADDR          *20       100
 40000000 000000000010 RADIX          *20
 40000000 000000000005 RAPTR          *20
 12:46 09/05/97  FILE=ZIM$DBIM.:ZIC0TSI       SYMBOL TABLE                                               28   BMAP - B00
 40000000 000000000004 RAWSOF         *20
 40000000 777777777766 RBA            *20
 40000000 000000023432 RCBI           *20
 40000000 000000211234 RCDNL          *20
 01101000 000000000127 RCER3           83      *151
 40000000 000000000005 RCFRH          *20
 40000000 000000000004 RCFRN          *20
 40000000 000000001075 RCHD           *20
 40000000 000000000001 RCID           *20
 41000000 000000000006 RCPTR          *20        91
 40000000 000000000002 RCRAH          *20
 40000000 000000000001 RCRAN          *20
 40000000 000000000003 RCRSH          *20
 40000000 000000000002 RCRSN          *20
 40000000 000000210667 RCVER1         *20
 40000000 000000210670 RCVER2         *20
 40000000 000000210671 RCVER4         *20
 40000000 000000210672 RCVER5         *20
 40000000 000000210673 RCVER6         *20
 40000000 000000000736 RCW1           *20
 40000000 000000000737 RCW2           *20
 40000000 000000000004 RCWSO          *20
 40000000 000000000077 RDAC           *20
 40000000 000000000076 RDCNT          *20
 40000000 000000040000 RDI            *20
 40000000 000000015674 RDLT           *20
 40000000 000000000075 RDYCW          *20
 40000000 000000000066 RECAC          *20
 40000000 000000000065 RECFR          *20
 40000000 000000000070 RECRC          *20
 40000000 000000000067 RECSC          *20
 40000000 000000000003 RECSZ          *20
 40000000 000000000235 REMLT          *20
 40000000 000000000062 REM_RECOVER    *20
 40000000 000000000251 RETFR          *20
 01101000 000000000107 RETM           114       117      *121
 40000000 000000210724 RFDNL          *20
 12:46 09/05/97  FILE=ZIM$DBIM.:ZIC0TSI       SYMBOL TABLE                                               29   BMAP - B00
 40000000 000000017644 RIM            *20
 40000000 000000000005 RNAM           *20
 40000000 000000015706 RNDLT          *20
 40000000 000000000662 RNG1           *20
 40000000 000000000664 RNG2           *20
 40000000 000000000073 RNGD           *20
 40000000 000000000072 RNGO           *20
 40000000 000000000660 RNGTAL         *20
 40000000 000000020154 RNM            *20
 40000000 000000000041 ROCUR          *20
 40000000 000000000001 ROFST          *20
 40000000 000000002114 ROLL           *20
 40000000 000000020010 RPM            *20
 40000000 000000000001 RSCDH          *20
 40000000 000000000001 RSCDN          *20
 40000000 000000211710 RSDNL          *20
 40000000 000000004540 RSEE           *20
 01101000 000000000127 RSER4           89      *152
 40000000 000000000003 RSIZ           *20
 40000000 000000000110 RSPAM          *20
 41000000 000000000004 RSPTR          *20        94
 40000000 000000000037 RSREQ          *20
 40000000 000000000002 RSSSH          *20
 40000000 000000000001 RSSSN          *20
 40000000 000000210574 RSZER          *20
 40000000 000000000632 RSZTP          *20
 41000000 000000000003 RTP            *20        81
 40000000 000000000003 RTYP           *20
 40000000 000000000530 RV1            *20
 40000000 000000000550 RV2            *20
 40000000 000000000570 RV3            *20
 40000000 000000000610 RV4            *20
 41000000 000000000003 RVASID         *18        61        86
 41000000 000000000510 RVI            *20        76        80        90
 41000000 000000000511 RVO            *20       124
 40000000 000000000513 RVPA           *20
 40000000 000000000512 RVT            *20
 12:46 09/05/97  FILE=ZIM$DBIM.:ZIC0TSI       SYMBOL TABLE                                               30   BMAP - B00
 40000000 000000000022 RVTAL          *20
 40000000 000000000002 RWSZ           *20
 40000000 000000000015 RY             *20
 40000000 000000210620 RYE1           *20
 40000000 000000210621 RYE4           *20
 40000000 777777777767 SA             *20
 40000000 000000000005 SANAM          *20
 40000000 000000001062 SCDES          *20
 40000000 000000211544 SCDNL          *20
 40000000 000000000024 SCFC           *20
 40000000 000000000002 SCID           *20
 40000000 000000000024 SCLST          *20
 40000000 000000000004 SCNAM          *20
 41000000 000000000004 SCPTR          *20        92
 40000000 000000000003 SCRSH          *20
 40000000 000000000002 SCRSN          *20
 41000000 000000000001 SCWSO          *20        73
 40000000 000000001225 SFWS           *20
 40000000 000000001073 SIZCHG         *20
 40000000 000000000645 SKFLG          *20
 40000000 000000000643 SKIND          *20
 40000000 000000000641 SKTYP          *20
 40000000 000000020464 SMCR           *20
 40000000 000000000003 SNAM           *20
 40000000 000000000107 SNIND          *20
 40000000 000000000735 SNPAE          *20
 40000000 000000001046 SNSI           *20
 40000000 000000000743 SOE            *20
 40000000 000000020630 SORSA          *20
 40000000 000000004374 SOSE           *20
 40000000 000000000000 SPAV           *20
 40000000 000000000744 SPCAVN         *20
 40000000 000000000744 SPCAVO         *20
 40000000 000000000765 SPLF           *20
 41000000 000000000765 SPND           *20
 40000000 000000000006 SSDT           *20
 40000000 000000303243 SSER           *20
 12:46 09/05/97  FILE=ZIM$DBIM.:ZIC0TSI       SYMBOL TABLE                                               31   BMAP - B00
 40000000 000000303244 SSER1          *20
 40000000 000000000002 SSH            *20
 40000000 000000000005 SSNAM          *20
 40000000 000000210573 SSNF           *20
 40000000 000000210576 SSNV           *20
 40000000 000000000020 SSSPTR         *20
 40000000 000000000010 SSVDT          *20
 40000000 000000000033 SSZTP          *20
 40000000 000000000017 ST             *20
 40000000 000000000104 STBIN          *20
 40000000 000000000105 STDEC          *20
 40000000 000000303302 STE1           *20
 40000000 000000303303 STE2           *20
 40000000 000000210624 STE3           *20
 40000000 000000303305 STE4           *20
 40000000 000000303306 STE5           *20
 00101000 000000000127 STER1         *153
 41000000 000000000100 STKSIZ         *20
 40000000 000000000055 STMASK         *20
 01101000 000000000105 STR             98      *118
 40000000 000000000062 SUST           *20
 41000000 000000000020 SWS            *20
 40000000 000000000000 SWSAC          *20
 40000000 000000000002 SWSZ           *20
 40000000 000000000000 SYSSF          *20
 40000000 000000000765 SZREQ          *20
 40000000 000000000004 TBUF           *20
 40000000 000000001061 TCTRS          *20
 60000000 000000000000 TDS            *20
 41000000 000000000113 TEMP           *20
 40000000 000000000640 TFLD           *20
 40000000 000000000657 TFLD2          *20
 40000000 000000000056 TMASK          *20
 40000000 000000000061 TMODE          *20
 40000000 000000000676 TMPPA          *20
 40000000 000000000003 TPAI           *20
 40000000 000000500000 TPRCOD         *20
 12:46 09/05/97  FILE=ZIM$DBIM.:ZIC0TSI       SYMBOL TABLE                                               32   BMAP - B00
 40000000 000000001031 TSFN           *20
 40000000 000000000021 TSI            *20
 40000000 000000001013 UBRD2          *20
 41000000 000000001223 UBSZ           *20
 40000000 000000000667 UCADR          *20
 40000000 000000000036 UCRS           *20
 40000000 000000000024 UFSPK          *20
 40000000 000000000024 UFSPK2         *20
 40000000 000000000715 ULIM           *20
 40000000 000000004230 UNA            *20
 40000000 000000303417 UNIM           *20
 40000000 000000000002 UOFST          *20
 40000000 000000001035 UPACD          *20
 40000000 000000000721 UPACW          *20
 40000000 000000000007 UPFLAG         *20
 40000000 000000000103 UPPAI          *20
 40000000 000000000004 UPTSID         *18
 40000000 000000000674 USTAT          *20
 41000000 000000000002 UWASID         *18        57       119
 40000000 000000000002 UWSSZ          *20
 40000000 000000000020 UWSZ           *20
 40000000 000000000243 VFDSC          *20
 40000000 000000001070 VFDSR          *20
 40000000 000000000656 VFLD           *20
 40000000 000000001074 VFLNG          *20
 40000000 000000001124 VIB1           *20
 40000000 000000001154 VIBP           *20
 41000000 000000000000 VLPSID         *18        60        85
 40000000 000000001074 VRSIZ          *20
 40000000 000000001067 WLOA           *20
 40000000 000000100000 WRTI           *20
 40000000 000000000000 WSBID          *20
 40000000 000000000003 WSOF           *20
 41000000 000000000000 X0             *18        82       107       133       140       145
 41000000 000000000001 X1             *18        65        66        70        71        73        78
                                       83        89        96        97       104       105       115
                                      116       117       123       124
 12:46 09/05/97  FILE=ZIM$DBIM.:ZIC0TSI       SYMBOL TABLE                                               33   BMAP - B00
 40000000 000000000002 X2             *18
 41000000 000000000003 X3             *18        76        80        90
 40000000 000000000004 X4             *18
 41000000 000000000005 X5             *18        94
 41000000 000000000006 X6             *18        62        63        87        88        92        93
                                      134
 03201005 000000000000 X66_ARET       *18       126
 03201004 000000000000 X66_AUTO_0     *18        54
 41000000 000000000007 X7             *18        91       135       141       146
 40000000 000000210665 XASL           *20
 40000000 000000303420 XLD            *20
 40000000 000000303421 XPD            *20
 40000000 000000000676 XPRS           *20
 40000000 000000210666 XROLL          *20
 40000000 000000210664 XUNEX          *20
 40000000 777777777777 XXDPN          *20
 03201006 000000000000 ZIB$DBALT     *164
 03201001 000000000000 ZIG$DBGRS      *14        89
 12101000 000000000000 ZIG$DBIFM       11       *53
 03201002 000000000000 ZIG$DBPFD      *15        78
 03201003 000000000000 ZIG$DBPFN      *16       117
 03201000 000000000000 ZIQ$DBGRC      *13        83

     940 SYMBOLS

 12:46 09/05/97  FILE=ZIM$DBIM.:ZIC0TSI       MACRO TABLE                                                34   BMAP - B00
 CBSYM           20
 DBALT          164
 DBCAL           78        83        89       117
 DBRET          126
 DBSAV           54
 ICCAL           83
 Q2SYM           20
 SSSYM           20

      37 MACROS

    SYMBOL SPACE USED  8955 WORDS
     MACRO SPACE USED 13055 WORDS
   INPUT RECORDS READ  2132
 STATEMENTS PROCESSED  2080
         ELAPSED TIME  0:09.84
             CPU TIME     9.50 SEC.
        ASSEMBLY RATE 13137 STATEMENTS/CPU MIN.

      NO ERRORS

