
 12:47 09/05/97  FILE=ZIM$DBIN.:ZIC0TSI                                                                  1    BMAP - B00
                                         1  *M*      ZIG$DBIN
                                         2  *T***********************************************************
                                         3  *T*                                                         *
                                         4  *T* Copyright (c) Bull HN Information Systems Inc., 1997    *
                                         5  *T*                                                         *
                                         6  *T***********************************************************

 12:47 09/05/97  FILE=ZIM$DBIN.:ZIC0TSI       H6600H2.532     IDS/II INITIALIZE AREA         771213DBIN  2    BMAP - B00
                                         7         TTL     H6600H2.532     IDS/II INITIALIZE AREA         771213DBIN
                                         8         CPR     1974
                                         9         PMC     OFF
                                        10         ENTDEF  ZIB$DBINP       INITIALIZE IDS DATA PAGE
                                        11         ENTDEF  ZIB$DBINI       INITIALIZE INVENTORY PAGES
                                        12         ENTREF  ZIO$MODIFY
                                        13         ENTREF  ZIO$DBREAD
                                        14           ENTREF      ZIO$GETBUF
                                        15  *
                                        16         LODM    Q2MA
                                        17         Q2SYM

 12:47 09/05/97  FILE=ZIM$DBIN.:ZIC0TSI       INITIALIZE AN AREA                                         3    BMAP - B00
                                        18         TTLS    INITIALIZE AN AREA
                                        19  *
                                        20  *      DATA-BASE PAGE INITIALIZATION FOR FILE ORG. = 'IDS'
                                        21  *
                                        22  *      This routine is PL6 callable.
                                        23  *
 0 000000                               24  ZIB$DBINP NULL
   000000    000000 6220 11             25         EAX     X2,0,X1         SAVE RETURN ADDRESS
   000001    7 01016 2201 00            26         LDX     X0,ACOPN,,PR7   get AC pointer
                                        27  *  ZERO THE PAGE
   000002    5 00022 4745 00            28           LDP      PR4,GIOBUF,,PR5      Get pointer to buffer
   000003    007764 6210 00             29           EAX   X1,CP6PGSZB       Page size in bytes
   000004    000 0 140 1004 00          30         MLR     ,(1,1),0        * MOVE
   000005    000000 0 0 0 0000          31         ADSC9   0,0,0           *  ZERO FILL TO
   000006    4 00000 0 0 0 0011         32         ADSC9   ,,X1,PR4        *   PAGE
                                        33  *  INIT THE PAGE HEADER
   000007 (0)000166 2350 00             34         LDA     SIZEWD          ACTSZ,SPAV
   000010    4 00000 7551 00            35         STA     ACTSZ,,PR4      set in page header
   000011    7 01010 4501 00            36         STZ     IALC,,PR7      init last calc header number
                                        37  *      initialize line array as null
   000012    400000 2350 07             38         LDA     .B18,DL         line available indicator
   000013    4 01774 7551 00            39           STA   CP6PGSZW-1,,PR4         Store in last word of page
   000014    5 00021 2361 00            40           LDQ      GIOPGNO,,PR5         Get current page number
   000015    4 00001 7561 00            41         STQ     APNO,,PR4       set in page header
   000016    6 00000 2211 10            42         LDX     X1,DEF,X0,PR6   ARE THERE ANY CALC HDRS IN AREA
   000017    000002 3010 03             43         CANX    X1,.NCIA,DU     ISOLATE NO CALC IN AREA BIT
   000020 (0)000104 6010 00             44         TNZ     CHRDN          no calc headers for this area
   000021    000001 1360 07             45         SBLQ    1,DL            current page # minus one
   000022    6 00004 7211 10            46         LXL     X1,BPL,X0,PR6
   000023    000000 7360 11             47         QLS     0,X1           shift to make curr page # a DBK
   000024    6 00010 0361 10            48         ADLQ    DBLIM,X0,PR6    plus low DBK of the area
   000025    6 00022 2351 10            49         LDA     CLCN,X0,PR6     GET LENGTH OF CALC PTR
   000026    000001 7350 00             50         ALS     1               DOUBLE
   000027    000004 0350 07             51         ADLA    CPW,DL          ADD SIZE OF REC CONTROL WORD
   000030    7 00773 7511 01            52         STCA    CHR,01,PR7      SAVE SIZE OF CHR
                                        53  *  Find first calc header in or beyond current page
   000031    000001 1360 07             54         SBLQ    1,DL           zero'th DBKEY of area
 12:47 09/05/97  FILE=ZIM$DBIN.:ZIC0TSI       INITIALIZE AN AREA                                         4    BMAP - B00
   000032    6 00010 2351 10            55         LDA     DBLIM,X0,PR6   first DBKEY of area
   000033                               56  CSIZ   NULL
   000033    7 00771 7551 00            57         STA     NXTC,,PR7      save as next calc header
   000034    7 00771 1161 00            58         CMPQ    NXTC,,PR7      is calc hdr in or beyond current page
   000035 (0)000040 6020 00             59         TNC     CSIZ1          yes
   000036    6 00013 0351 10            60         ADLA    INTVL,X0,PR6   no - bump to next calc header value
   000037 (0)000033 7100 00             61         TRA     CSIZ
                                        62  *
   000040                               63  CSIZ1  NULL
   000040    6 00010 1351 10            64         SBLA    DBLIM,X0,PR6   compute page & line # within area
   000041    6 00004 2211 10            65         LDX     X1,PLSEP,X0,PR6  36 - bits/line into X1
   000042    000000 7350 11             66         ALS     0,X1           left justify line # in AR
   000043    000000 7710 11             67         ARL     0,X1           to AL
   000044    6 00012 0361 10            68         ADLQ    LPP,X0,PR6     Q = last DBKEY for current page
   000045    000014 2210 03             69         LDX     X1,3*CPW,DU     GET SIZE OF PG HDR
   000046    7 00772 7411 00            70         STX     X1,CHRO,,PR7    SAVE AS NEXT AVAIL. OFST
   000047                               71  INIL3  NULL
   000047    7 00771 1161 00            72         CMPQ    NXTC,,PR7      is next calc hdr rec in this page
   000050 (0)000104 6020 00             73         TNC     CHRDN           NO - DONE
   000051    7 01010 7551 00            74         STA     IALC,,PR7      save current calc header #
                                        75  *  PUT IN A CHR
   000052    4 00000 6335 00            76         EPPR    PR3,,,PR4       set PR3 to top of page
   000053    7 00772 2211 00            77         LDX     X1,CHRO,,PR7    GET CHR OFST
                                        78         IFE     M9,1,1
   000054    3 00000 5005 11            79         A9BD    ,X1,PR3         SET PR3 TO CHR
                                        80         IFE     M9,0,1
                                        81         A6BD    ,X1,PR3         SET PR3 TO CHR
   000055    000 0 100 1005 00          82         MLR     (1),(1)         * MOVE
                                        83         IFE     M9,1,2
   000056    7 00773 0 0 0 0004         84         ADSC9   CHR,0,4,PR7     *  CHR CONT. WD TO
   000057    3 00000 0 0 0 0004         85         ADSC9   0,0,4,PR3       *   REC
                                        86         IFE     M9,0,2
                                        87         ADSC6   CHR,0,6,PR7     *  CHR CONT. WD TO
                                        88         ADSC6   0,0,6,PR3       *   REC
   000060    000 0 120 1015 00          89         MRL     (1),(1,,1)       * MOVE
                                        90         IFE     M9,1,1
   000061    7 00771 0 0 0 0004         91         ADSC9   NXTC,0,4,PR7     *  NEXT PTR TO
 12:47 09/05/97  FILE=ZIM$DBIN.:ZIC0TSI       INITIALIZE AN AREA                                         5    BMAP - B00
                                        92         IFE     M9,0,1
                                        93         ADSC6   NXTC,0,6,PR7     *  NEXT PTR TO
   000062    6 00022 0001 10            94         ARG     CLCN,X0,PR6      *   REC
   000063    000 0 120 1015 00          95         MRL     (1),(1,,1)      * MOVE
                                        96         IFE     M9,1,1
   000064    7 00771 0 0 0 0004         97         ADSC9   NXTC,0,4,PR7    *  PRIOR PTR TO
                                        98         IFE     M9,0,1
                                        99         ADSC6   NXTC,0,6,PR7    *  PRIOR PTR TO
   000065    6 00023 0001 10           100         ARG     CLCP,X0,PR6     *   REC
   000066    000001 7350 00            101         ALS     1              double value for calc header #
   000067    000000 5310 00            102         NEG                     MAKE AR NEG OFST IN LINE ARRAY
   000070    000 1 105 1005 00         103           MLR   (1),(1,,,A),,1             * MOVE
   000071    7 00772 0 0 0 0002        104           ADSC9 CHRO,0,2,PR7               *  CALC HDR REC OFST TO
   000072    4 01774 4 0 0 0002        105           ADSC9 CP6PGSZW-1,2,2,PR4         *   LINE ARRAY
   000073    7 00773 7211 00           106         LXL     X1,CHR,,PR7     GET SZ OF CHR
   000074    7 00772 0411 00           107         ASX     X1,CHRO,,PR7    ADD TO AVAIL SPACE OFST
   000075    4 00000 2351 00           108         LDA     SPAV,,PR4       GET SPACE AVAIL.
   000076    7 00773 1351 00           109         SBLA    CHR,,PR7        SUB SIZE OF CALC HDR REC
   000077    4 00000 7511 07           110         STCA    SPAV,07,PR4     SAVE AS NEW SPACE AVAIL.
   000100    6 00013 2351 10           111         LDA     INTVL,X0,PR6
   000101    7 00771 0551 00           112         ASA     NXTC,,PR7      bump to next calc hdr DBKEY
   000102    7 01010 0351 00           113         ADLA    IALC,,PR7      set-up next calc hdr #
   000103 (0)000047 7100 00            114         TRA     INIL3           GO CHECK FOR MORE CHR'S TO PUT IN
                                       115  *  CHAIN TOGETHER AVAILABLE LINE ARRAY POSITIONS
   000104                              116  CHRDN  NULL
   000104    000000 6350 00            117         EAA     0               AR = LINE NO.
   000105    4 00000 2361 00           118         LDQ     ACTSZ,,PR4      QU = OFST FOR ARRAY POS.
   000106    000002 1360 03            119         SBLQ    2,DU
   000107                              120  IALP1  NULL
   000107    7 01010 1151 00           121         CMPA    IALC,,PR7       IS LINE NO. LESS THAN LAST CHR
   000110 (0)000155 6030 00            122         TRC     NCL             NO
   000111    000 0 000 1065 02         123         CMPC    (1,,,QU),,0     * COMPARE
   000112    4 00000 0 0 0 0002        124         ADSC9   0,0,2,PR4       *  REC OFST TO
   000113    000000 0 0 0 0000         125         ADSC9   0,0,0           *   ZERO FILL
   000114 (0)000120 6000 00            126         TZE     GTC             FOUND AN UNUSED LINE
   000115    000002 1360 03            127         SBLQ    2,DU            DECR ARRAY OFST
   000116    000001 0350 07            128         ADLA    1,DL            INCR LINE NO.
 12:47 09/05/97  FILE=ZIM$DBIN.:ZIC0TSI       INITIALIZE AN AREA                                         6    BMAP - B00
   000117 (0)000107 7100 00            129         TRA     IALP1
   000120                              130  GTC    NULL
   000120    7 01011 7561 00           131         STQ     IACLN,,PR7      SAVE OFST AS CURR
   000121    000000 6210 05            132         EAX     X1,,AL
   000122    4 00002 7411 00           133         STX     X1,AVLN,,PR4    SAVE AS 1ST AVAIL. LINE NO.
   000123                              134  IALP2  NULL
   000123    000002 1360 03            135         SBLQ    2,DU            DECR ARRAY OFST
   000124    000001 0350 07            136         ADLA    1,DL            INCR LINE NO.
   000125    7 01010 1151 00           137         CMPA    IALC,,PR7       IS IT LESS THAN LAST CHR
   000126 (0)000147 6030 00            138         TRC     NNL             NO
   000127    000 0 000 1065 02         139         CMPC    (1,,,QU),,0     * COMPARE
   000130    4 00000 0 0 0 0002        140         ADSC9   0,0,2,PR4       *  REC OFST TO
   000131    000000 0 0 0 0000         141         ADSC9   0,0,0           *   ZERO FILL
   000132 (0)000123 6010 00            142         TNZ     IALP2           NOT AVAIL.
   000133    7 01012 7561 00           143         STQ     IANLN,,PR7      SAVE ARRAY OFST
   000134    400000 2750 07            144         ORA     .B18,DL         PUT IN SIGN BIT
   000135    7 01012 5511 14           145         STBA    IANLN,14,PR7    SAVE AS NEXT AVAIL. LINE NO.
   000136    7 01011 2361 00           146         LDQ     IACLN,,PR7      GET ARRAY OFST
   000137    000 0 102 1005 00         147         MLR     (1),(1,,,QU)    * MOVE
   000140    7 01012 4 0 0 0002        148         ADSC9   IANLN,2,2,PR7   *  NEXT AVAIL. LINE NO. TO
   000141    4 00000 0 0 0 0002        149         ADSC9   0,0,2,PR4       *   CURR POS. IN ARRAY
   000142    7 01012 2361 00           150         LDQ     IANLN,,PR7      GET ARRAY OFST OF NEXT AVAIL.
   000143    7 01011 7561 00           151         STQ     IACLN,,PR7      SAVE AS CURR
   000144    7 01012 2351 00           152         LDA     IANLN,,PR7      GET NEXT AVAIL. LINE NO.
   000145    377777 3750 07            153         ANA     =O377777,DL     ISOLATE
   000146 (0)000123 7100 00            154         TRA     IALP2           GO GET NEXT
   000147                              155  NNL    NULL
   000147    400000 2350 07            156         LDA     .B18,DL
   000150    7 01012 7551 00           157         STA     IANLN,,PR7      SET NEXT AVAIL. LINE = 0
   000151    7 01011 2361 00           158         LDQ     IACLN,,PR7      GET ARRAY OFST
   000152    000 0 102 1005 00         159         MLR     (1),(1,,,QU)    * MOVE
   000153    7 01012 4 0 0 0002        160         ADSC9   IANLN,2,2,PR7   *  SIGN BIT TO
   000154    4 00000 0 0 0 0002        161         ADSC9   0,0,2,PR4       *   LAST AVAIL LINE
   000155                              162  NCL    NULL
   000155    7 01010 2361 00           163         LDQ     IALC,,PR7       GET LAST LINE NO. USED
   000156    4 00002 5521 14           164         STBQ    HILN,14,PR4     PUT IN PAGE HDR AS HI LINE
   000157    000001 0360 07            165         ADLQ    1,DL            MAKE IT NO. OF LINE NOS. ALLOC.
 12:47 09/05/97  FILE=ZIM$DBIN.:ZIC0TSI       INITIALIZE AN AREA                                         7    BMAP - B00
   000160    000001 7360 00            166         QLS     1               MPY BY 2
   000161    000044 7770 00            167         LLR     36              TO AR
   000162    000000 5310 00            168         NEG                     MAKE NEG.
   000163    4 00000 0351 00           169         ADLA    SPAV,,PR4       ADD SPACE AVAIL.
   000164    4 00000 5511 14           170         STBA    SPAV,14,PR4     SAVE AS NEW SPACE AVAIL.
   000165    000001 7100 12            171         TRA     1,X2            return to caller
                                       172  *
                                       173  *      local constants
                                       174  *
   000166    007764 007750             175  SIZEWD   VFD   18/CP6PGSZB,18/CP6PGSZB-3*CPW  ACTSZ,SPAV

 12:47 09/05/97  FILE=ZIM$DBIN.:ZIC0TSI       INITIALIZE AN AREA                                         8    BMAP - B00
                                       176         EJECT
                                       177  *
                                       178  *      INITIALIZE INVENTORY PAGES FOR FILE ORG. = 'IDS'
                                       179  *
                                       180  *      This routine is PL6 callable as well as ICCALable
                                       181  *      When called via the ICCAL macro, normal return is
                                       182  *       given through the ICEXC macro (returning to 1,X1).
                                       183  *
                                       184  *
   000167                              185  ZIB$DBINI NULL
   000167    7 00470 7411 56           186         ICSAV
   000170    7 01016 2201 00           187         LDX     X0,ACOPN,,PR7
   000171    6 00003 2361 10           188           LDQ      WSOF,X0,PR6          Get work space offset
   000172    000022 7720 00            189           QRL      18                   Clear garbage
   000173    000022 7360 00            190           QLS      18                   Bacak into position
   000174    5 00001 0361 00           191           ADLQ     ACTDBCB,,PR5         Make into pointer
   000175    5 00020 7561 00           192           STQ      GIOAWS,,PR5          Parameter for I/O
   000176    6 00003 2271 10           193           LDX      X7,WSOF,X0,PR6       Get work space offset
   000177    7 00005 2341 17           194           SZN      FIPN,X7,PR7          Is area Inventoried?
   000200 (0)000204 6010 00            195         TNZ     INIL           yes, then do IU computation
   000201    7 00113 2341 00           196         SZN     INAFLAG,,PR7    is area being INA'd
   000202 (0)000316 6000 00            197         TZE     INIDN           no, then just return
   000203 (0)000213 7100 00            198         TRA     INIL0
   000204                              199  INIL  NULL
   000204    7 01050 4501 00           200         STZ     CIPSI,,PR7      reset current inventory page #
   000205    007750 2360 07            201           LDQ   CP6PGSZB-3*CPW,DL Size of an integrated page
   000206    6 00017 5061 10           202         DIV     IUSZ,X0,PR6     QR = INV. UNITS AVAIL.
   000207    777000 3160 07            203         CANQ    =O777000,DL     IS NO. IU'S .LT. 511
   000210    000002 6000 04            204         TZE     2,IC            YES
   000211    000777 2360 07            205         LDQ     =O777,DL        NO - MAKE IT 511
   000212    7 01046 5521 14           206         STBQ    SNSI,14,PR7     SAVE IU'S
   000213                              207  INIL0  NULL
   000213    6 00006 2361 10           208         LDQ     PGLIM,X0,PR6    get low page number of area
   000214    7 00770 7561 00           209         STQ     CURPG,,PR7      and set as current page
   000215                              210  INIL1  NULL
   000215    7 00113 2341 00           211         SZN     INAFLAG,,PR7    check for INA function
   000216 (0)000233 6000 00            212         TZE     INIL2           no, then just do inventory
 12:47 09/05/97  FILE=ZIM$DBIN.:ZIC0TSI       INITIALIZE AN AREA                                         9    BMAP - B00
   000217    5 00021 7561 00           213           STQ      GIOPGNO,,PR5         Set page # to be initialized
   000220  X 000000 7010 00            214           DBCAL    ZIO$GETBUF,,GTBE2    GET BUFFER FOR PAGE
   000221 (0)000320 7020 00
   000222    5 00006 2341 00
   000223    777776 6010 04
   000224 (0)000000 7010 00            215           DBCAL    ZIB$DBINP,,NOALT     INITIALIZE PAGE
   000225    000000 0020 00
   000226    7 01016 2201 00           216         LDX     X0,ACOPN,,PR7   restore AC offset
   000227    6 00003 2271 10           217           LDX      X7,WSOF,X0,PR6       Get work space offset
   000230    7 00005 2341 17           218           SZN      FIPN,X7,PR7          Is area Inventoried?
   000231 (0)000301 6000 00            219         TZE     ININXT          no, then bump to next page
   000232    7 00770 2361 00           220         LDQ     CURPG,,PR7      restore current page #
   000233                              221  INIL2  NULL
   000233    000001 1360 07            222         SBLQ    1,DL            MAKE IT ZERO REL.
   000234    6 00020 5061 10           223         DIV     DPPI,X0,PR6     DIV BY DATA PGS/INV. PAGE
   000235    000014 0350 07            224         ADLA    3*CPW,DL        ADD SIZE OF PG HDR
   000236    7 01047 7551 00           225         STA     POFSI,,PR7      SAVE OFST IN PG
   000237    6 00003 2271 10           226           LDX      X7,WSOF,X0,PR6       Get work space offset
   000240    7 00005 0361 17           227           ADLQ     FIPN,X7,PR7          Add first inventory page
   000241    5 00021 7561 00           228           STQ      GIOPGNO,,PR5         Set page # to inventory page
   000242    7 01050 1161 00           229         CMPQ    CIPSI,,PR7     does this inventory page exist?
   000243 (0)000252 6010 00            230         TNZ     NEWIP          no, go create it.
                                       231  * inv. page exists, get buf adr & put on avail. buf chain tail
   000244  X 000000 7010 00            232           DBCAL    ZIO$DBREAD,,RDE1
   000245 (0)000320 7020 00
   000246    5 00006 2341 00
   000247    777776 6010 04
   000250    5 00022 4745 00           233           LDP      PR4,GIOBUF,,PR5      Get pointer to inventory page
   000251 (0)000274 7100 00            234         TRA     UPDIP          go update the inventory units
                                       235  * requested inventory page doesn't exist, create it.
   000252                              236  NEWIP  NULL
   000252  X 000000 7010 00            237           DBCAL    ZIO$GETBUF,,GTBE1       GET BUFFER FOR THE PAGE
   000253 (0)000320 7020 00
   000254    5 00006 2341 00
   000255    777776 6010 04
   000256  X 000000 7010 00            238           DBCAL    ZIO$MODIFY,,SMWE2    MARK PAGE MODIFIED
   000257 (0)000320 7020 00
 12:47 09/05/97  FILE=ZIM$DBIN.:ZIC0TSI       INITIALIZE AN AREA                                         10   BMAP - B00
   000260    5 00006 2341 00
   000261    777776 6010 04
   000262    5 00021 2361 00           239           LDQ      GIOPGNO,,PR5
   000263    7 01050 7561 00           240         STQ     CIPSI,,PR7     update current inventory page #
   000264    5 00022 4745 00           241           LDP      PR4,GIOBUF,,PR5      Get pointer of new buffer
                                       242  *  ZERO THE PAGE
   000265    007764 6210 00            243           EAX   X1,CP6PGSZB             Page size in bytes
   000266    000 0 140 1004 00         244         MLR     ,(1,1),0        * MOVE
   000267    000000 0 0 0 0000         245         ADSC9   0,0,0           *  ZERO FILL TO
   000270    4 00000 0 0 0 0011        246         ADSC9   ,,X1,PR4        *   PAGE
                                       247  *  INIT THE PAGE HEADER
   000271    4 00000 7411 00           248         STX     X1,ACTSZ,,PR4   PUT PAGE SIZE IN HDR
   000272    7 01050 2351 00           249         LDA     CIPSI,,PR7
   000273    4 00001 7551 00           250         STA     APNO,,PR4       PUT PAGE NO. IN HDR
   000274                              251  UPDIP  NULL
   000274    7 01016 2201 00           252         LDX     X0,ACOPN,,PR7  restore AC offset
   000275    7 01047 7211 00           253         LXL     X1,POFSI,,PR7   GET OFST W/I PAGE
   000276    000 0 111 1005 00         254         MLR     (1),(1,,,1)         * MOVE
   000277    7 01046 6 0 0 0001        255         ADSC9   SNSI,3,1,PR7        *  NO. OF INV. UNITS TO
   000300    4 00000 0 0 0 0001        256         ADSC9   0,0,1,PR4
                                       257  *  CHECK TO SEE IF LAST PAGE WRITTEN
   000301                              258  ININXT NULL
   000301    6 00004 7211 10           259         LXL     X1,BPL,X0,PR6   GET B
   000302    7 00770 2351 00           260         LDA     CURPG,,PR7      GET PAGE NO. JUST WRITTEN
   000303    000000 7350 11            261         ALS     ,X1             INTO POSITION
   000304    6 00010 0351 10           262         ADLA    DBLIM,X0,PR6    MAKE IT DBK OF START OF NEXT PAGE
   000305    6 00003 2211 10           263           LDX      X1,WSOF,X0,PR6       Get work space offset
   000306    7 00003 1151 11           264           CMPA     HIGHDBK,X1,PR7       Is it last of area
   000307 (0)000311 6000 00            265         TZE     *+2             NO - ONE DBK ON NEXT PAGE
   000310 (0)000316 6030 00            266         TRC     INIDN           YES
   000311    7 00770 0541 00           267         AOS     CURPG,,PR7      INCR CURR PAGE
   000312    7 00770 2361 00           268         LDQ     CURPG,,PR7
   000313    6 00003 2271 10           269           LDX      X7,WSOF,X0,PR6       Get work space offset
   000314    7 00005 1161 17           270           CMPQ     FIPN,X7,PR7          End if page is first inventory
   000315 (0)000215 6010 00            271         TNZ     INIL1           continue if not at 1st inv. pg.
                                       272  *
                                       273  *  DONE WITH AREA
 12:47 09/05/97  FILE=ZIM$DBIN.:ZIC0TSI       INITIALIZE AN AREA                                         11   BMAP - B00
                                       274  *
   000316                              275  INIDN  NULL
   000316    7 00470 2211 54           276           ICRET
   000317    000001 7100 11
                                       277  *
                                       278  *  ERRORS DETECTED IN SUBORDINATE ROUTINES
                                       279  *
   000320                              280  GTBE1  NULL                    can't get buffer for inventory page
   000320                              281  RDE1   NULL                    can't read inventory page
   000320                              282  GTBE2  NULL                    can't get buffer for data page
   000320                              283  WRTE1  NULL                    can't write out data page
   000320                              284  SMWE2  NULL                    ERROR SETTING MUST WRITE FOR INV
                                       285  *  COMMON ERROR RETURN
   000320    000000 6260 00            286         EAX     X6,0            null SC
   000321    000000 6270 00            287         EAX     X7,0            null RC
   000322  X 000000 7020 00            288           ICALT
                                       289         END

  CONTROL SECTION TABLE

   0 CODE   EVEN  000323
   1 RODATA EVEN  000000 LITERALS

 12:47 09/05/97  FILE=ZIM$DBIN.:ZIC0TSI       SYMBOL TABLE                                               12   BMAP - B00
 40000000 000000200000 .AC            *17
 40000000 000000000100 .AG            *17
 40000000 000000002000 .ALTO          *17
 40000000 000000000077 .ANL           *17
 40000000 000000200000 .APDN          *17
 40000000 000000000100 .ATMP          *17
 40000000 000000400000 .AV            *17
 40000000 000000400000 .B0            *17
 40000000 000000200000 .B1            *17
 40000000 000000000200 .B10           *17
 40000000 000000000100 .B11           *17
 40000000 000000000040 .B12           *17
 40000000 000000000020 .B13           *17
 40000000 000000000010 .B14           *17
 40000000 000000000004 .B15           *17
 40000000 000000000002 .B16           *17
 40000000 000000000001 .B17           *17
 41000000 000000400000 .B18           *17        38       144       156
 40000000 000000200000 .B19           *17
 40000000 000000100000 .B2            *17
 40000000 000000100000 .B20           *17
 40000000 000000040000 .B21           *17
 40000000 000000020000 .B22           *17
 40000000 000000010000 .B23           *17
 40000000 000000004000 .B24           *17
 40000000 000000002000 .B25           *17
 40000000 000000001000 .B26           *17
 40000000 000000000400 .B27           *17
 40000000 000000000200 .B28           *17
 40000000 000000000100 .B29           *17
 40000000 000000040000 .B3            *17
 40000000 000000000040 .B30           *17
 40000000 000000000020 .B31           *17
 40000000 000000000010 .B32           *17
 40000000 000000000004 .B33           *17
 40000000 000000000002 .B34           *17
 40000000 000000000001 .B35           *17
 12:47 09/05/97  FILE=ZIM$DBIN.:ZIC0TSI       SYMBOL TABLE                                               13   BMAP - B00
 40000000 000000020000 .B4            *17
 40000000 000000010000 .B5            *17
 40000000 000000004000 .B6            *17
 40000000 000000002000 .B7            *17
 40000000 000000001000 .B8            *17
 40000000 000000000400 .B9            *17
 40000000 000000000001 .BREAK         *17
 40000000 000000010000 .BRK           *17
 40000000 000000020000 .BTB           *17
 40000000 000000000001 .CAC           *17
 40000000 000000000000 .CAE           *17
 40000000 000000000200 .CANSSS        *17
 40000000 000000000400 .CD            *17
 40000000 000000040000 .CFLC          *17
 40000000 000000400000 .CHKSUM        *17
 40000000 000000100000 .CJRNL         *17
 40000000 000000000077 .CNSZ          *17
 40000000 000000160000 .COMC          *17
 40000000 000000000020 .CONT          *17
 40000000 000000000000 .CSE           *17
 40000000 000000700000 .CTYP          *17
 41000000 000000000270 .DBEST         *17
 41000000 000000000470 .DBIC          *17       186       276
 40000000 000000077777 .DBPT          *17
 41000000 000000000370 .DBSTK         *17
 40000000 000000020000 .DELM          *17
 40000000 000000002000 .DIDP          *17
 40000000 000000000077 .DNDX          *17
 40000000 000000600000 .DORD          *17
 40000000 000000000200 .DP            *17
 40000000 000000100000 .DPS           *17
 40000000 000000200000 .DPSA          *17
 40000000 000000400000 .DPST          *17
 40000000 000000000002 .DUMP          *17
 40000000 000000002000 .DUPC          *17
 40000000 000000010000 .DUPP          *17
 40000000 000000200000 .EBCL          *17
 12:47 09/05/97  FILE=ZIM$DBIN.:ZIC0TSI       SYMBOL TABLE                                               14   BMAP - B00
 40000000 000000400000 .EBCM          *17
 40000000 000000200000 .ENCRP         *17
 40000000 000000000077 .ENDX          *17
 40000000 000000000400 .ENQ           *17
 40000000 000000004000 .ETC           *17
 40000000 000000000400 .EXIT          *17
 40000000 000000000200 .FMOD          *17
 40000000 000000000077 .FNL           *17
 40000000 000000000074 .FORG          *17
 40000000 000000002000 .FR            *17
 40000000 000000000100 .FSR           *17
 40000000 000000003400 .FUSE          *17
 40000000 000000010000 .FVF           *17
 40000000 000000040000 .FVR           *17
 40000000 000000000010 .INDEXED       *17
 40000000 000000777777 .IXID          *17
 40000000 000000001777 .IXNUM         *17
 40000000 000000000004 .KEYED         *17
 40000000 000000010000 .LCK           *17
 40000000 000000400000 .LEIL          *17
 40000000 000000001000 .LG            *17
 40000000 000000000002 .LOAD          *17
 40000000 000000020000 .MAR           *17
 40000000 000000000007 .MEMT          *17
 40000000 000000010000 .MRL           *17
 40000000 000000040000 .MSM           *17
 60000000 000000000001 .N6685         *17
 40000000 000000100000 .NAI           *17
 40000000 000000200000 .NBI           *17
 41000000 000000000002 .NCIA          *17        43
 40000000 000000040000 .NMV           *17
 40000000 000000017777 .NOENT         *17
 40000000 000000400000 .OA            *17
 40000000 000000740000 .OPEV          *17
 40000000 000000100000 .OSM           *17
 40000000 000000100000 .PAFIL         *17
 40000000 000000200000 .PAHVR         *17
 12:47 09/05/97  FILE=ZIM$DBIN.:ZIC0TSI       SYMBOL TABLE                                               15   BMAP - B00
 40000000 000000000001 .PAIA          *17
 40000000 000000040000 .PALIL         *17
 40000000 000000020000 .PALVR         *17
 40000000 000000400000 .PANLL         *17
 40000000 000000400000 .PCKD          *17
 40000000 000000001600 .PMOD          *17
 40000000 000000000520 .PRCSE         *17
 40000000 000000000007 .PSTO          *17
 40000000 000000006040 .PTAS          *17
 40000000 000000010100 .PTCHK         *17
 40000000 000000010200 .PTDEC         *17
 40000000 000000010140 .PTENC         *17
 40000000 000000020000 .RA            *17
 40000000 000000100000 .RC            *17
 40000000 000000400000 .RELEASE       *17
 40000000 000000000017 .RELT          *17
 40000000 000000004000 .RERA          *17
 40000000 000000400000 .RERS          *17
 40000000 000000010000 .RKEY          *17
 40000000 000000000077 .RNL           *17
 40000000 000000200000 .RSTO          *17
 40000000 000000007777 .RTYP          *17
 40000000 000000040000 .SC            *17
 40000000 000000000070 .SETM          *17
 40000000 000000740000 .SETO          *17
 40000000 000000000700 .SETT          *17
 40000000 000000040000 .SFNP          *17
 40000000 000000004000 .SM            *17
 40000000 000000020000 .SMOD          *17
 40000000 000000000077 .SNL           *17
 40000000 000000020000 .SNSS          *17
 40000000 000000010000 .SO            *17
 40000000 000000100000 .SR            *17
 40000000 000000004000 .SRCR          *17
 40000000 000000001000 .SS            *17
 40000000 000000000007 .SSTP          *17
 40000000 000000004000 .SYN           *17
 12:47 09/05/97  FILE=ZIM$DBIN.:ZIC0TSI       SYMBOL TABLE                                               16   BMAP - B00
 40000000 000000000040 .SYNC          *17
 40000000 000000020000 .TJRNL         *17
 40000000 000000040000 .TMPLT         *17
 40000000 000000040000 .TRACE         *17
 40000000 000000000001 .TRENTRY       *17
 40000000 000000000012 .TRIDEL        *17
 40000000 000000000021 .TRIDELENQ     *17
 40000000 000000000024 .TRIDEQ        *17
 40000000 000000000013 .TRIMOD        *17
 40000000 000000000022 .TRIMODENQ     *17
 40000000 000000000014 .TRIREAD       *17
 40000000 000000000023 .TRIREADENQ    *17
 40000000 000000000011 .TRISTO        *17
 40000000 000000000020 .TRISTOENQ     *17
 40000000 000000000017 .TRPDEQ        *17
 40000000 000000000004 .TRPMOD        *17
 40000000 000000000016 .TRPMODENQ     *17
 40000000 000000000002 .TRPREAD       *17
 40000000 000000000015 .TRPREADENQ    *17
 40000000 000000000003 .TRPWRITE      *17
 40000000 000000000010 .TRRACC        *17
 40000000 000000000006 .TRRDEL        *17
 40000000 000000000007 .TRRMOD        *17
 40000000 000000000005 .TRRSTO        *17
 40000000 000000004000 .ULCK          *17
 40000000 000000400000 .UPDT          *17
 40000000 000000000040 .VIA           *17
 60000000 000000000001 A              *17
 40000000 000000000002 ABAS           *17
 40000000 000000000001 AC             *17
 40000000 777777777760 ACDEF          *17
 40000000 000000211070 ACDNL          *17
 40000000 000000000003 ACID           *17
 41000000 000000001016 ACOPN          *17        26       187       216       252
 40000000 000000000002 ACP            *17
 40000000 000000000005 ACPTR          *17
 40000000 000000000002 ACRAH          *17
 12:47 09/05/97  FILE=ZIM$DBIN.:ZIC0TSI       SYMBOL TABLE                                               17   BMAP - B00
 40000000 000000000001 ACRAN          *17
 40000000 000000001003 ACREC          *17
 41000000 000000000001 ACTDBCB        *17       191
 40000000 000000000002 ACTDBNO        *17
 40000000 000000001017 ACTP           *17
 40000000 000000000000 ACTSSS         *17
 41000000 000000000000 ACTSZ          *17        35       118       248
 40000000 000000210565 AFNP           *17
 40000000 000000000635 AFT            *17
 40000000 000000022124 AIR            *17
 40000000 000000000016 AMAX           *17
 40000000 000000000026 ANAM           *17
 40000000 000000021614 ANR            *17
 41000000 000000000001 APNO           *17        41       250
 40000000 000000210562 ARGER          *17
 41000000 000000000020 ARGS           *17
 40000000 000000000077 ARGS2          *17
 40000000 000000210713 ARNAF          *17
 40000000 000000000003 ATBL           *17
 40000000 000000000000 ATRIB          *17
 41000000 000000000002 AVLN           *17       133
 40000000 000000000013 AWS$           *17
 40000000 000000000010 AWSZ           *17
 60000000 000000000001 B              *17
 40000000 000000001006 B32N           *17
 40000000 000000001007 B36N           *17
 40000000 000000001056 B72N           *17
 40000000 000000000001 BADDR          *17
 40000000 000000210712 BADSEED        *17
 40000000 777777777765 BDCW           *17
 40000000 000000000633 BEF            *17
 40000000 000000020000 BEFW           *17
 40000000 000000000751 BEMT           *17
 40000000 777777777761 BID            *17
 40000000 777777777762 BIND           *17
 40000000 000000000007 BLKD           *17
 40000000 000000303331 BME02          *17
 12:47 09/05/97  FILE=ZIM$DBIN.:ZIC0TSI       SYMBOL TABLE                                               18   BMAP - B00
 41000000 000000001203 BMPB           *17
 40000000 000000000652 BN1            *17
 40000000 000000000654 BN2            *17
 41000000 000000000004 BPL            *17        46       259
 40000000 000000000015 BPLDBK         *17
 40000000 000000000034 BSPG           *17
 40000000 777777777763 BSTAT          *17
 40000000 000000000750 BTX0           *17
 41000000 000000001160 BUF4           *17
 41000000 000000001170 BUF6           *17
 41000000 000000000000 BUFORG         *17
 40000000 000000001060 BUFRQ          *17
 40000000 000000000006 BURRID         *17
 41000000 000000000020 BWASZ          *17
 60000000 000000000001 C              *17
 40000000 000000000050 CAAC           *17
 40000000 000000000050 CACD           *17
 40000000 000000000111 CAG            *17
 40000000 000000001033 CAL            *17
 40000000 000000000026 CALLPM0        *17
 40000000 000000000003 CANSSS         *17
 40000000 000000000003 CBCPA          *17
 40000000 000000000002 CBCPO          *17
 40000000 000000000002 CBENO          *17
 40000000 000000000014 CBFSZ          *17
 40000000 000000000753 CBIB           *17
 40000000 000000001030 CBID           *17
 40000000 000000000014 CBRCE          *17
 40000000 000000000014 CBRCP          *17
 40000000 000000001033 CBRID          *17
 40000000 000000000015 CBRPA          *17
 40000000 000000000031 CCHAR          *17
 40000000 000000000040 CDBK           *17
 40000000 000000000030 CDES           *17
 40000000 000000000110 CDP            *17
 40000000 000000001044 CDPSI          *17
 40000000 000000000002 CDRH           *17
 12:47 09/05/97  FILE=ZIM$DBIN.:ZIC0TSI       SYMBOL TABLE                                               19   BMAP - B00
 40000000 000000000003 CDRN           *17
 40000000 000000000002 CDSH           *17
 40000000 000000000003 CDSN           *17
 40000000 000000000722 CENTRN         *17
 40000000 000000000722 CENTRO         *17
 40000000 000000000716 CENTRY         *17
 41000000 000000001053 CFCT           *17
 40000000 000000000670 CFLPT1         *17
 40000000 000000000672 CFLPT2         *17
 40000000 000000000015 CFSA           *17
 40000000 000000000646 CHDBK          *17
 41000000 000000000773 CHR            *17        52        84       106       109
 40000000 000000000006 CHRD           *17
 01101000 000000000104 CHRDN           44        73      *116
 41000000 000000000772 CHRO           *17        70        77       104       107
 40000000 000000007640 CHRTP          *17
 40000000 000000001043 CIAC           *17
 40000000 000000000012 CIAWS          *17
 40000000 000000001051 CIBSI          *17
 40000000 000000000516 CIND           *17
 40000000 000000001041 CINVSZ         *17
 40000000 000000001042 CIPG           *17
 41000000 000000001050 CIPSI          *17       200       229       240       249
 40000000 000000000000 CIRUN          *17
 40000000 000000000002 CIRWS          *17
 40000000 000000000002 CISWS          *17
 40000000 000000000014 CIWSOF         *17
 40000000 000000303374 CKSM           *17
 41000000 000000000022 CLCN           *17        49        94
 41000000 000000000023 CLCP           *17       100
 40000000 000000000003 CLCRC          *17
 40000000 000000000003 CLCSC          *17
 40000000 000000000237 CLI            *17
 40000000 000000000026 CLNG           *17
 40000000 000000000052 CMPL           *17
 40000000 000000000002 CN             *17
 40000000 000000303315 CNE1           *17
 12:47 09/05/97  FILE=ZIM$DBIN.:ZIC0TSI       SYMBOL TABLE                                               20   BMAP - B00
 40000000 000000006034 CNUL           *17
 40000000 000000100000 COB74          *17
 40000000 000000000001 COFS           *17
 40000000 000000000045 CONCD          *17
 41000000 000000007764 CP6PGSZB       *17        29       175       201       243
 41000000 000000001775 CP6PGSZW       *17        39       105
 40000000 000000001000 CPGR           *17
 40000000 000000000723 CPTRN          *17
 40000000 000000000723 CPTRO          *17
 61000000 000000000004 CPW            *17        51        69       175       201       224
 40000000 000000000112 CRA            *17
 40000000 000000001004 CRD            *17
 40000000 000000000764 CREC           *17
 40000000 000000006344 CRIT           *17
 40000000 000000006200 CRNUL          *17
 40000000 000000007330 CRST           *17
 41000000 000000001223 CRUN           *17
 41000000 000000000000 CSECT          *17
 01101000 000000000033 CSIZ           *56        61
 01101000 000000000040 CSIZ1           59       *63
 40000000 000000000007 CSMPP          *17
 40000000 000000001000 CSPAC          *17
 40000000 000000000004 CSPAH          *17
 40000000 777777777776 CSPES          *17
 40000000 777777777776 CSPSB          *17
 40000000 000000000115 CSTS           *17
 40000000 000000000071 CSUB           *17
 40000000 000000000017 CSZ            *17
 40000000 000000000057 CTMASK         *17
 40000000 000000000774 CTPAI          *17
 40000000 000000000240 CURLN          *17
 40000000 000000000236 CURLT          *17
 41000000 000000000770 CURPG          *17       209       220       260       267       268
 40000000 000000000001 CURR           *17
 40000000 000000000035 CURRS          *17
 40000000 000000000037 CURSS          *17
 40000000 000000001005 CWRT           *17
 12:47 09/05/97  FILE=ZIM$DBIN.:ZIC0TSI       SYMBOL TABLE                                               21   BMAP - B00
 40000000 000000000237 CWSOF          *17
 60000000 000000000001 D              *17
 40000000 000000000003 DBAN           *17
 40000000 000000000036 DBDR           *17
 40000000 000000000037 DBFN           *17
 40000000 000000000754 DBK            *17
 40000000 000000000777 DBKAC          *17
 40000000 000000000000 DBKEY          *17
 40000000 000000000000 DBKL           *17
 40000000 000000007474 DBKN           *17
 41000000 000000000776 DBKR           *17
 40000000 000000000777 DBKRQ          *17
 40000000 000000000234 DBKSI          *17
 40000000 000000000651 DBKSR          *17
 40000000 000000000047 DBKYN          *17
 40000000 000000210652 DBLC01         *17
 40000000 000000210653 DBLC05         *17
 40000000 000000303334 DBLC07         *17
 40000000 000000210655 DBLD01         *17
 41000000 000000000010 DBLIM          *17        48        55        64       262
 40000000 000000000033 DBPKY          *17
 40000000 000000000023 DBRN           *17
 40000000 000000000013 DBSN           *17
 40000000 000000000001 DBST           *17
 40000000 000000000757 DCDSR          *17
 40000000 000000210650 DCE1           *17
 40000000 000000001053 DCPR           *17
 40000000 000000001053 DCPW           *17
 40000000 000000000015 DCTBL          *17
 40000000 000000000032 DDBK           *17
 40000000 000000000006 DDCB           *17
 40000000 000000011754 DDI            *17
 41000000 000000000000 DEF            *17        42
 40000000 000000000014 DEF2           *17
 40000000 000000303413 DELAK          *17
 40000000 000000000036 DELRS          *17
 40000000 000000000732 DEPCW          *17
 12:47 09/05/97  FILE=ZIM$DBIN.:ZIC0TSI       SYMBOL TABLE                                               22   BMAP - B00
 40000000 000000303414 DLDBK          *17
 40000000 000000210627 DLE1           *17
 40000000 000000303310 DLE2           *17
 40000000 000000210631 DLE3           *17
 40000000 000000016040 DNES           *17
 40000000 777777777777 DPAGN          *17
 41000000 000000000020 DPPI           *17       223
 40000000 000000000053 DPSLW          *17
 40000000 000000000003 DS             *17
 40000000 000000001063 DSDES          *17
 40000000 000000303316 DSE1           *17
 40000000 000000000735 DUSEPA         *17
 60000000 000000000001 E              *17
 40000000 000000303251 EDPER          *17
 40000000 000000000026 EEIND          *17
 40000000 000000000713 EFIND          *17
 40000000 000000001030 ELO            *17
 40000000 000000210711 ENCPNA         *17
 40000000 000000000007 ENCRP          *17
 40000000 000000000752 ENDSR          *17
 40000000 000000210647 ENE1           *17
 40000000 000000000716 ENIND          *17
 40000000 000000000013 ENTBL          *17
 40000000 000000000710 ENTNO          *17
 40000000 000000000712 ENTPTR         *17
 40000000 000000000717 ENTSZ          *17
 40000000 000000000711 ENTTYP         *17
 40000000 000000004064 EOSR           *17
 40000000 000000000004 ES             *17
 41000000 000000000100 ESTSZ          *17
 40000000 000000000725 ESZ            *17
 40000000 000000000005 ETCADR         *17
 40000000 000000000005 ETCDBNO        *17
 40000000 000000000064 EXCCD          *17
 40000000 000000234534 FALRT          *17
 40000000 000000001055 FBF72          *17
 40000000 000000001025 FBU61          *17
 12:47 09/05/97  FILE=ZIM$DBIN.:ZIC0TSI       SYMBOL TABLE                                               23   BMAP - B00
 40000000 000000001020 FBUF           *17
 40000000 000000001026 FBUF1          *17
 40000000 000000001027 FBUF4          *17
 40000000 000000001024 FBUF6          *17
 40000000 000000001022 FBUFM          *17
 40000000 000000001021 FBUFU          *17
 40000000 000000001023 FBUMD          *17
 40000000 000000000004 FCN            *17
 40000000 000000000051 FCNT           *17
 40000000 000000000002 FCP            *17
 40000000 000000000047 FCSS           *17
 40000000 000000000005 FD             *17
 40000000 000000210637 FDE1           *17
 40000000 000000303320 FDE2           *17
 40000000 000000303321 FDE3           *17
 40000000 000000210642 FDE4           *17
 40000000 000000210643 FDE5           *17
 40000000 000000210644 FDE6           *17
 40000000 000000303325 FDE7           *17
 40000000 000000303326 FDE8           *17
 40000000 000000000021 FEASZ          *17
 40000000 000000000740 FETM           *17
 40000000 000000000006 FI             *17
 40000000 000000000103 FIAC           *17
 41000000 000000001100 FIB1           *17
 41000000 000000001130 FIBP           *17
 40000000 000000000000 FIBX           *17
 40000000 000000000102 FICNT          *17
 41000000 000000000005 FIPN           *17       194       218       227       270
 40000000 000000000054 FKIND          *17
 40000000 000000000015 FLAGS          *17
 40000000 000000000244 FLDDSC         *17
 40000000 000000000046 FLDTL          *17
 40000000 000000000020 FMSBF          *17
 40000000 000000000006 FNAM           *17
 40000000 000000000250 FNIND          *17
 40000000 000000000004 FNL            *17
 12:47 09/05/97  FILE=ZIM$DBIN.:ZIC0TSI       SYMBOL TABLE                                               24   BMAP - B00
 40000000 000000000101 FRAC           *17
 40000000 000000000002 FRANGE         *17
 40000000 000000211400 FRDNL          *17
 40000000 000000200000 FRTRN          *17
 40000000 000000000005 FRWSO          *17
 40000000 000000000767 FSLN           *17
 40000000 000000000766 FSOF           *17
 40000000 000000000060 FTIND          *17
 40000000 000000303240 FTLINCR        *17
 40000000 000000000021 FWSSZ          *17
 40000000 000000000246 GACDK          *17
 40000000 000000000014 GDCB           *17
 41000000 000000000006 GERROR         *17       214       232       237       238
 40000000 000000000016 GINHIB         *17
 41000000 000000000020 GIOAWS         *17       192
 41000000 000000000022 GIOBUF         *17        28       233       241
 41000000 000000000021 GIOPGNO        *17        40       213       228       239
 40000000 000000000015 GPAGE          *17
 40000000 000000000010 GRETAC         *17
 40000000 000000000011 GRETFR         *17
 40000000 000000000013 GRETRC         *17
 40000000 000000000012 GRETSC         *17
 40000000 000000000025 GRLCW          *17
 40000000 000000000014 GSTCD          *17
 40000000 000000000007 GSYSERR        *17
 40000000 000000000010 GT             *17
 01101000 000000000320 GTBE1          237      *280
 01101000 000000000320 GTBE2          214      *282
 01101000 000000000120 GTC            126      *130
 40000000 000000000046 GTRNAME        *17
 40000000 000000000055 GTRPDCB        *17
 40000000 000000000056 GTRPNO         *17
 40000000 000000000057 GTRRDBK        *17
 40000000 000000000060 GTRRTYPE       *17
 40000000 000000000060 GTRTYPE        *17
 40000000 000000000027 HASH           *17
 40000000 000000000022 HIA            *17
 12:47 09/05/97  FILE=ZIM$DBIN.:ZIC0TSI       SYMBOL TABLE                                               25   BMAP - B00
 40000000 000000000775 HIDB           *17
 41000000 000000000003 HIGHDBK        *17       264
 40000000 000000000004 HIGHPG         *17
 40000000 000000001037 HIL            *17
 41000000 000000000002 HILN           *17       164
 40000000 000000000006 HPOS           *17
 40000000 000000000756 IAAC           *17
 41000000 000000001011 IACLN          *17       131       146       151       158
 41000000 000000001010 IALC           *17        36        74       113       121       137       163
 01101000 000000000107 IALP1         *120       129
 01101000 000000000123 IALP2         *134       142       154
 40000000 000000010314 IAN            *17
 41000000 000000001012 IANLN          *17       143       145       148       150       152       157
                                      160
 40000000 000000000001 IASID          *16
 40000000 000000020320 ICA            *17
 40000000 000000000023 ICKSMP         *17
 40000000 000000000024 ICKSMV         *17
 40000000 000000210742 ICNR           *17
 41000000 000000000020 ICSIZ          *17
 40000000 000000010004 IDBK           *17
 40000000 000000012120 IDI            *17
 40000000 000000000023 IDS            *17
 40000000 000000000011 IF             *17
 40000000 000000000021 IFIPN          *17
 40000000 000000000000 IFR            *17
 40000000 000000234546 IKSEQ          *17
 41000000 000000000113 INAFLAG        *17       196       211
 40000000 000000000016 INCHA          *17
 01101000 000000000316 INIDN          197       266      *275
 01101000 000000000204 INIL           195      *199
 01101000 000000000213 INIL0          198      *207
 01101000 000000000215 INIL1         *210       271
 01101000 000000000233 INIL2          212      *221
 01101000 000000000047 INIL3          *71       114
 01101000 000000000301 ININXT         219      *258
 40000000 000000210566 INNM           *17
 12:47 09/05/97  FILE=ZIM$DBIN.:ZIC0TSI       SYMBOL TABLE                                               26   BMAP - B00
 40000000 000000210567 INSS           *17
 40000000 000000210575 INSST          *17
 40000000 000000303241 INTER          *17
 40000000 000000400000 INTII          *17
 41000000 000000000013 INTVL          *17        60       111
 40000000 000000001060 INVFLG         *17
 40000000 000000001043 INVOF          *17
 40000000 000000000014 INVT           *17
 40000000 000000000034 IOBLK          *17
 40000000 000000303354 IOCLSD         *17
 40000000 000000303355 IOCLSK         *17
 40000000 000000303257 IOE1           *17
 40000000 000000303264 IOE11          *17
 40000000 000000303265 IOE12          *17
 40000000 000000303266 IOE18          *17
 40000000 000000303260 IOE2           *17
 40000000 000000303261 IOE3           *17
 40000000 000000303262 IOE7           *17
 40000000 000000303263 IOE8           *17
 40000000 000000303363 IOFLSH         *17
 40000000 000000210676 IOGDCB         *17
 40000000 000000001002 IOINC          *17
 40000000 000000305160 IOINI          *17
 40000000 000000305155 IONOTIDS       *17
 40000000 000000305154 IONOTKEY       *17
 40000000 000000210677 IOOPND         *17
 40000000 000000210700 IOOPNK         *17
 40000000 000000303361 IORDD          *17
 40000000 000000305156 IOSCHEMA       *17
 40000000 000000001052 IOSTS          *17
 40000000 000000303362 IOWRTD         *17
 41000000 000000000750 IOWS           *17
 40000000 000000000647 IPC            *17
 40000000 000000000650 IPCF           *17
 40000000 000000000006 IROLLFLAG      *17
 40000000 000000010150 IRSN           *17
 40000000 000000000004 ISYSDCB        *17
 12:47 09/05/97  FILE=ZIM$DBIN.:ZIC0TSI       SYMBOL TABLE                                               27   BMAP - B00
 40000000 000000000005 ISYSERR        *17
 40000000 000000000061 ITPTR          *17
 40000000 000000000060 ITRS           *17
 40000000 000000021760 IUM            *17
 41000000 000000000017 IUSZ           *17       202
 40000000 000000234522 IVDBK          *17
 40000000 000000000011 IXBUF$         *17
 40000000 000000000046 IXFBSZ         *17
 40000000 777777777776 IXID           *17
 40000000 777777777777 IXPLL          *17
 40000000 000000000523 KCARG0         *17
 40000000 000000000524 KCARG3         *17
 40000000 000000000525 KCARG4         *17
 40000000 000000000700 KCREG          *17
 40000000 000000000006 KDCB           *17
 40000000 000000000666 KEYDS          *17
 40000000 000000000010 KEYPA          *17
 40000000 777777777776 KLNG           *17
 40000000 000000000022 KPASZ          *17
 40000000 000000000006 KWSZ           *17
 40000000 000000000052 LANGC          *17
 40000000 000000001014 LAS            *17
 40000000 000000700000 LCODM          *17
 40000000 000000001045 LDPSI          *17
 40000000 000000001071 LINPT          *17
 40000000 000000001017 LNCNT          *17
 40000000 000000000762 LNNO           *17
 40000000 000000001036 LOL            *17
 40000000 000000000715 LOLIM          *17
 40000000 000000000023 LPASZ          *17
 41000000 000000000012 LPP            *17        68
 40000000 000000257764 LR             *17
 40000000 000000301270 LRA            *17
 40000000 000000000017 LRSZ           *17
 40000000 000000001035 LSPC           *17
 40000000 000000000750 LUPD           *17
 61000000 000000000001 M9             *17        78        80        83        86        90        92
 12:47 09/05/97  FILE=ZIM$DBIN.:ZIC0TSI       SYMBOL TABLE                                               28   BMAP - B00
                                       96        98
 40000000 000000000013 MD             *17
 40000000 000000300000 MDQS           *17
 40000000 000000000730 MEMPTR         *17
 40000000 000000000727 MEMTYP         *17
 40000000 000000000045 MODCD          *17
 41000000 000000001207 MODFL          *17
 40000000 000000000042 MODFR          *17
 40000000 000000000044 MODIN          *17
 40000000 000000000044 MODRS          *17
 40000000 000000000043 MODSC          *17
 40000000 000000000047 MRBKI          *17
 40000000 000000210632 MRE4           *17
 40000000 000000303313 MRE5           *17
 40000000 000000210634 MRE7           *17
 40000000 000000400000 MW             *17
 40000000 000000000025 NCH            *17
 40000000 000000000002 NCHA           *17
 40000000 000000000005 NCHRS          *17
 01101000 000000000155 NCL            122      *162
 40000000 000000000014 NDCD           *17
 40000000 000000000012 NENC           *17
 40000000 000000000634 NEW            *17
 01101000 000000000252 NEWIP          230      *236
 40000000 000000001072 NEWSIZ         *17
 40000000 000000235164 NKA            *17
 40000000 000000235020 NKDB           *17
 40000000 000000303415 NLDBK          *17
 40000000 777777777777 NLIND          *17
 40000000 000000001040 NLN            *17
 40000000 000000400000 NLNSA          *17
 01101000 000000000147 NNL            138      *155
 41000000 000000001053 NOBF           *17
 40000000 000000000711 NOPTRS         *17
 40000000 000000000742 NPARCW         *17
 40000000 000000000630 NPIND          *17
 40000000 000000000004 NPOS           *17
 12:47 09/05/97  FILE=ZIM$DBIN.:ZIC0TSI       SYMBOL TABLE                                               29   BMAP - B00
 40000000 000000234510 NSA            *17
 40000000 000000234654 NSCS           *17
 40000000 000000234344 NSDB           *17
 40000000 000000000001 NSTS           *17
 40000000 000000000726 NUMENT         *17
 40000000 000000000727 NUMPTR         *17
 40000000 777777777760 NXBUF          *17
 40000000 000000000713 NXPRI          *17
 41000000 000000000771 NXTC           *17        57        58        72        91        97       112
 40000000 000000000001 OAACN          *17
 40000000 000000000022 OACIWSOF       *17
 40000000 000000000001 OAOFST         *17
 40000000 000000000002 OARCN          *17
 40000000 000000000001 OASCN          *17
 40000000 000000000014 OD             *17
 40000000 000000000074 ODBK           *17
 40000000 000000001072 OLDSIZ         *17
 40000000 000000000101 OPADP          *17
 40000000 000000000741 OPARCW         *17
 40000000 000000210570 ORDNI          *17
 40000000 777777777777 OTVL           *17
 40000000 000000000252 OWNPTR         *17
 40000000 000000000016 PABUF          *17
 40000000 000000001041 PACD           *17
 40000000 000000000001 PACW           *17
 40000000 000000000733 PADBK          *17
 40000000 000000000740 PADUP          *17
 40000000 000000000745 PAEN           *17
 40000000 000000000745 PAEO           *17
 40000000 000000000734 PAEOF          *17
 40000000 000000303336 PAER1          *17
 40000000 000000303337 PAER2          *17
 40000000 000000303340 PAER3          *17
 40000000 000000303341 PAER4          *17
 40000000 000000303342 PAER5          *17
 40000000 000000303343 PAER6          *17
 40000000 000000000747 PAESZ          *17
 12:47 09/05/97  FILE=ZIM$DBIN.:ZIC0TSI       SYMBOL TABLE                                               30   BMAP - B00
 40000000 000000001060 PAFLG          *17
 40000000 000000000731 PAOPTR         *17
 40000000 000000000734 PAPOF          *17
 40000000 000000000714 PARCW          *17
 40000000 000000000726 PARVPA         *17
 40000000 000000000724 PASPLT         *17
 40000000 000000000004 PAWSZ          *17
 40000000 777777777762 PBUF           *17
 40000000 000000000020 PC             *17
 41000000 000000000510 PCB            *17
 40000000 000000000642 PCD            *17
 40000000 000000000642 PCD2           *17
 40000000 000000000247 PCEXI          *17
 40000000 000000000675 PCMIN          *17
 40000000 000000004541 PCOMP          *17
 40000000 000000000010 PD             *17
 40000000 000000000040 PE             *17
 40000000 000000000017 PENDING        *17
 40000000 000000000004 PF             *17
 40000000 000000000400 PFG            *17
 40000000 000000000200 PFM            *17
 40000000 000000000100 PFS            *17
 40000000 000000000400 PG             *17
 40000000 000000001064 PGHD           *17
 41000000 000000000006 PGLIM          *17       208
 40000000 000000000003 PGRNG          *17
 40000000 000000000746 PGSIZE         *17
 40000000 000000000641 PGSPLT         *17
 40000000 000000000100 PKAW           *17
 40000000 000000001034 PLO            *17
 41000000 000000000004 PLSEP          *17        65
 40000000 000000000200 PM             *17
 40000000 000000001054 PNEOO          *17
 41000000 000000001047 POFSI          *17       225       253
 40000000 000000000005 PPOS           *17
 40000000 000000000000 PR0            *16
 40000000 000000000001 PR1            *16
 12:47 09/05/97  FILE=ZIM$DBIN.:ZIC0TSI       SYMBOL TABLE                                               31   BMAP - B00
 40000000 000000000002 PR2            *16
 41000000 000000000003 PR3            *16        76        79        85
 41000000 000000000004 PR4            *16        28        32        35        39        41        76
                                      105       108       110       118       124       133       140
                                      149       161       164       169       170       233       241
                                      246       248       250       256
 41000000 000000000005 PR5            *16        28        40       191       192       213       214
                                      228       232       233       237       238       239       241
 41000000 000000000006 PR6            *16        42        46        48        49        55        60
                                       64        65        68        94       100       111       188
                                      193       202       208       217       223       226       259
                                      262       263       269
 41000000 000000000007 PR7            *16        26        36        52        57        58        70
                                       72        74        77        84        91        97       104
                                      106       107       109       112       113       121       131
                                      137       143       145       146       148       150       151
                                      152       157       158       160       163       186       187
                                      194       196       200       206       209       211       216
                                      218       220       225       227       229       240       249
                                      252       253       255       260       264       267       268
                                      270       276
 40000000 000000303267 PRE1           *17
 40000000 000000303277 PRE10          *17
 40000000 000000303270 PRE3           *17
 40000000 000000303271 PRE4           *17
 40000000 000000303272 PRE5           *17
 40000000 000000210613 PRE6           *17
 40000000 000000210614 PRE7           *17
 40000000 000000210615 PRE8           *17
 40000000 000000303276 PRE9           *17
 40000000 000000000522 PREXC          *17
 40000000 000000000521 PRFR           *17
 40000000 000000000521 PRFR2          *17
 40000000 000000000000 PRIV           *17
 40000000 000000000526 PROPA          *17
 40000000 000000000517 PRRC           *17
 40000000 000000000517 PRRS           *17
 12:47 09/05/97  FILE=ZIM$DBIN.:ZIC0TSI       SYMBOL TABLE                                               32   BMAP - B00
 40000000 000000000520 PRSC           *17
 40000000 000000000516 PRSS           *17
 40000000 000000000644 PRSTS          *17
 40000000 000000000100 PS             *17
 41000000 000000000000 PS0SID         *16
 41000000 000000000001 PS1SID         *16
 41000000 000000000002 PS2SID         *16
 41000000 000000000003 PS3SID         *16
 41000000 000000000004 PS4SID         *16
 40000000 000000000005 PS5SID         *16
 40000000 000000000006 PS6SID         *16
 40000000 000000303416 PSA            *17
 40000000 000000000020 PSC            *17
 40000000 000000000010 PSD            *17
 40000000 000000000004 PSF            *17
 40000000 000000000400 PSO            *17
 40000000 000000000720 PTESZ          *17
 40000000 000000000631 PTR            *17
 40000000 000000000724 PTRESZ         *17
 40000000 000000000710 PTRNO          *17
 41000000 000000000630 PWS            *17
 40000000 000000000002 RADDR          *17
 40000000 000000000010 RADIX          *17
 40000000 000000000005 RAPTR          *17
 40000000 000000000004 RAWSOF         *17
 40000000 777777777766 RBA            *17
 40000000 000000023432 RCBI           *17
 40000000 000000211234 RCDNL          *17
 40000000 000000000005 RCFRH          *17
 40000000 000000000004 RCFRN          *17
 40000000 000000001075 RCHD           *17
 40000000 000000000001 RCID           *17
 40000000 000000000006 RCPTR          *17
 40000000 000000000002 RCRAH          *17
 40000000 000000000001 RCRAN          *17
 40000000 000000000003 RCRSH          *17
 40000000 000000000002 RCRSN          *17
 12:47 09/05/97  FILE=ZIM$DBIN.:ZIC0TSI       SYMBOL TABLE                                               33   BMAP - B00
 40000000 000000210667 RCVER1         *17
 40000000 000000210670 RCVER2         *17
 40000000 000000210671 RCVER4         *17
 40000000 000000210672 RCVER5         *17
 40000000 000000210673 RCVER6         *17
 40000000 000000000736 RCW1           *17
 40000000 000000000737 RCW2           *17
 40000000 000000000004 RCWSO          *17
 40000000 000000000077 RDAC           *17
 40000000 000000000076 RDCNT          *17
 01101000 000000000320 RDE1           232      *281
 40000000 000000040000 RDI            *17
 40000000 000000015674 RDLT           *17
 40000000 000000000075 RDYCW          *17
 40000000 000000000066 RECAC          *17
 40000000 000000000065 RECFR          *17
 40000000 000000000070 RECRC          *17
 40000000 000000000067 RECSC          *17
 40000000 000000000003 RECSZ          *17
 40000000 000000000235 REMLT          *17
 40000000 000000000062 REM_RECOVER    *17
 40000000 000000000251 RETFR          *17
 40000000 000000210724 RFDNL          *17
 40000000 000000017644 RIM            *17
 40000000 000000000005 RNAM           *17
 40000000 000000015706 RNDLT          *17
 40000000 000000000662 RNG1           *17
 40000000 000000000664 RNG2           *17
 40000000 000000000073 RNGD           *17
 40000000 000000000072 RNGO           *17
 40000000 000000000660 RNGTAL         *17
 40000000 000000020154 RNM            *17
 40000000 000000000041 ROCUR          *17
 40000000 000000000001 ROFST          *17
 40000000 000000002114 ROLL           *17
 40000000 000000020010 RPM            *17
 40000000 000000000001 RSCDH          *17
 12:47 09/05/97  FILE=ZIM$DBIN.:ZIC0TSI       SYMBOL TABLE                                               34   BMAP - B00
 40000000 000000000001 RSCDN          *17
 40000000 000000211710 RSDNL          *17
 40000000 000000004540 RSEE           *17
 40000000 000000000003 RSIZ           *17
 40000000 000000000110 RSPAM          *17
 40000000 000000000004 RSPTR          *17
 40000000 000000000037 RSREQ          *17
 40000000 000000000002 RSSSH          *17
 40000000 000000000001 RSSSN          *17
 40000000 000000210574 RSZER          *17
 40000000 000000000632 RSZTP          *17
 40000000 000000000003 RTP            *17
 40000000 000000000003 RTYP           *17
 40000000 000000000530 RV1            *17
 40000000 000000000550 RV2            *17
 40000000 000000000570 RV3            *17
 40000000 000000000610 RV4            *17
 40000000 000000000003 RVASID         *16
 40000000 000000000510 RVI            *17
 40000000 000000000511 RVO            *17
 40000000 000000000513 RVPA           *17
 40000000 000000000512 RVT            *17
 40000000 000000000022 RVTAL          *17
 40000000 000000000002 RWSZ           *17
 40000000 000000000015 RY             *17
 40000000 000000210620 RYE1           *17
 40000000 000000210621 RYE4           *17
 40000000 777777777767 SA             *17
 40000000 000000000005 SANAM          *17
 40000000 000000001062 SCDES          *17
 40000000 000000211544 SCDNL          *17
 40000000 000000000024 SCFC           *17
 40000000 000000000002 SCID           *17
 40000000 000000000024 SCLST          *17
 40000000 000000000004 SCNAM          *17
 40000000 000000000004 SCPTR          *17
 40000000 000000000003 SCRSH          *17
 12:47 09/05/97  FILE=ZIM$DBIN.:ZIC0TSI       SYMBOL TABLE                                               35   BMAP - B00
 40000000 000000000002 SCRSN          *17
 40000000 000000000001 SCWSO          *17
 40000000 000000001225 SFWS           *17
 40000000 000000001073 SIZCHG         *17
 01101000 000000000166 SIZEWD          34      *175
 40000000 000000000645 SKFLG          *17
 40000000 000000000643 SKIND          *17
 40000000 000000000641 SKTYP          *17
 40000000 000000020464 SMCR           *17
 01101000 000000000320 SMWE2          238      *284
 40000000 000000000003 SNAM           *17
 40000000 000000000107 SNIND          *17
 40000000 000000000735 SNPAE          *17
 41000000 000000001046 SNSI           *17       206       255
 40000000 000000000743 SOE            *17
 40000000 000000020630 SORSA          *17
 40000000 000000004374 SOSE           *17
 41000000 000000000000 SPAV           *17       108       110       169       170
 40000000 000000000744 SPCAVN         *17
 40000000 000000000744 SPCAVO         *17
 40000000 000000000765 SPLF           *17
 41000000 000000000765 SPND           *17
 40000000 000000000006 SSDT           *17
 40000000 000000303243 SSER           *17
 40000000 000000303244 SSER1          *17
 40000000 000000000002 SSH            *17
 40000000 000000000005 SSNAM          *17
 40000000 000000210573 SSNF           *17
 40000000 000000210576 SSNV           *17
 40000000 000000000020 SSSPTR         *17
 40000000 000000000010 SSVDT          *17
 40000000 000000000033 SSZTP          *17
 40000000 000000000017 ST             *17
 40000000 000000000104 STBIN          *17
 40000000 000000000105 STDEC          *17
 40000000 000000303302 STE1           *17
 40000000 000000303303 STE2           *17
 12:47 09/05/97  FILE=ZIM$DBIN.:ZIC0TSI       SYMBOL TABLE                                               36   BMAP - B00
 40000000 000000210624 STE3           *17
 40000000 000000303305 STE4           *17
 40000000 000000303306 STE5           *17
 41000000 000000000100 STKSIZ         *17
 40000000 000000000055 STMASK         *17
 40000000 000000000062 SUST           *17
 41000000 000000000020 SWS            *17
 40000000 000000000000 SWSAC          *17
 40000000 000000000002 SWSZ           *17
 40000000 000000000000 SYSSF          *17
 40000000 000000000765 SZREQ          *17
 40000000 000000000004 TBUF           *17
 40000000 000000001061 TCTRS          *17
 60000000 000000000000 TDS            *17
 41000000 000000000113 TEMP           *17
 40000000 000000000640 TFLD           *17
 40000000 000000000657 TFLD2          *17
 40000000 000000000056 TMASK          *17
 40000000 000000000061 TMODE          *17
 40000000 000000000676 TMPPA          *17
 40000000 000000000003 TPAI           *17
 40000000 000000500000 TPRCOD         *17
 40000000 000000001031 TSFN           *17
 40000000 000000000021 TSI            *17
 40000000 000000001013 UBRD2          *17
 41000000 000000001223 UBSZ           *17
 40000000 000000000667 UCADR          *17
 40000000 000000000036 UCRS           *17
 40000000 000000000024 UFSPK          *17
 40000000 000000000024 UFSPK2         *17
 40000000 000000000715 ULIM           *17
 40000000 000000004230 UNA            *17
 40000000 000000303417 UNIM           *17
 40000000 000000000002 UOFST          *17
 40000000 000000001035 UPACD          *17
 40000000 000000000721 UPACW          *17
 01101000 000000000274 UPDIP          234      *251
 12:47 09/05/97  FILE=ZIM$DBIN.:ZIC0TSI       SYMBOL TABLE                                               37   BMAP - B00
 40000000 000000000007 UPFLAG         *17
 40000000 000000000103 UPPAI          *17
 40000000 000000000004 UPTSID         *16
 40000000 000000000674 USTAT          *17
 40000000 000000000002 UWASID         *16
 40000000 000000000002 UWSSZ          *17
 40000000 000000000020 UWSZ           *17
 40000000 000000000243 VFDSC          *17
 40000000 000000001070 VFDSR          *17
 40000000 000000000656 VFLD           *17
 40000000 000000001074 VFLNG          *17
 40000000 000000001124 VIB1           *17
 40000000 000000001154 VIBP           *17
 40000000 000000000000 VLPSID         *16
 40000000 000000001074 VRSIZ          *17
 40000000 000000001067 WLOA           *17
 00101000 000000000320 WRTE1         *283
 40000000 000000100000 WRTI           *17
 40000000 000000000000 WSBID          *17
 41000000 000000000003 WSOF           *17       188       193       217       226       263       269
 41000000 000000000000 X0             *16        26       187       216       252
 41000000 000000000001 X1             *16        29        42        43        46        65        69
                                       70        77       106       107       132       133       186
                                      214       215       232       237       238       243       248
                                      253       259       263       276
 41000000 000000000002 X2             *16        25
 40000000 000000000003 X3             *16
 40000000 000000000004 X4             *16
 40000000 000000000005 X5             *16
 41000000 000000000006 X6             *16       286
 02201004 000000000000 X66_ARET       *16
 02201003 000000000000 X66_AUTO_0     *16
 41000000 000000000007 X7             *16       193       217       226       269       287
 40000000 000000210665 XASL           *17
 40000000 000000303420 XLD            *17
 40000000 000000303421 XPD            *17
 40000000 000000000676 XPRS           *17
 12:47 09/05/97  FILE=ZIM$DBIN.:ZIC0TSI       SYMBOL TABLE                                               38   BMAP - B00
 40000000 000000210666 XROLL          *17
 40000000 000000210664 XUNEX          *17
 40000000 777777777777 XXDPN          *17
 12101000 000000000167 ZIB$DBINI       11      *185
 13101000 000000000000 ZIB$DBINP       10       *24       215
 03201005 000000000000 ZIB$ICALT     *288
 03201001 000000000000 ZIO$DBREAD     *13       232
 03201002 000000000000 ZIO$GETBUF     *14       214       237
 03201000 000000000000 ZIO$MODIFY     *12       238

     951 SYMBOLS

 12:47 09/05/97  FILE=ZIM$DBIN.:ZIC0TSI       MACRO TABLE                                                39   BMAP - B00
 CBSYM           17
 DBCAL          214       215       232       237       238
 ICALT          288
 ICRET          276
 ICSAV          186
 Q2SYM           17
 SSSYM           17

      37 MACROS

    SYMBOL SPACE USED  9378 WORDS
     MACRO SPACE USED 13043 WORDS
   INPUT RECORDS READ  2380
 STATEMENTS PROCESSED  2233
         ELAPSED TIME  0:11.12
             CPU TIME    10.73 SEC.
        ASSEMBLY RATE 12486 STATEMENTS/CPU MIN.

      NO ERRORS

