
 12:47 09/05/97  FILE=ZIM$DBIQ.:ZIC0TSI                                                                  1    BMAP - B00
                                         1  *M*      ZIG$DBIQ
                                         2  *T***********************************************************
                                         3  *T*                                                         *
                                         4  *T* Copyright (c) Bull HN Information Systems Inc., 1997    *
                                         5  *T*                                                         *
                                         6  *T***********************************************************

 12:47 09/05/97  FILE=ZIM$DBIQ.:ZIC0TSI       H6600H2.533     IDS/II OPEN/CLOSE FILE         780221DBIQ  2    BMAP - B00
                                         7         TTL     H6600H2.533     IDS/II OPEN/CLOSE FILE         780221DBIQ
                                         8         CPR     1974
                                         9         PMC     OFF
                                        10           ENTDEF      ZIB$DBIOO,ZIM$DBIOQ
                                        11         ENTREF  ZIO$DBOPEN,ZIO$DBCLOSE CP-6 IDS/II area open, close.
                                        12         LODM    Q2MA
                                        13         Q2SYM

 12:47 09/05/97  FILE=ZIM$DBIQ.:ZIC0TSI       OPEN AN AREA                                               3    BMAP - B00
                                        14         TTLS    OPEN AN AREA
                                        15  *
                                        16  *  OPEN AN AREA
                                        17  *          READY FOR RETRIEVAL  - OPENED FOR INPUT(UFAS)
                                        18  *                              CHECK ATTR. BLK ON OPEN
                                        19  *          READY FOR UPDATE     - OPENED FOR I/O (UFAS)
                                        20  *                              CHECK ATTR. BLK ON OPEN
                                        21  *          READY FOR UPDATE &   - OPENED FOR OUTPUT(UFAS)
                                        22  *           BIT 0 OF READY     DON'T CHECK ATTR. BLOCK ON OPEN
                                        23  *           CONTROL WORD = 1   BUILD & WRITE NEW ATTR. BLOCK
                                        24  *
                                        25  *          READY FOR BUILD     BUILD KEY DESCRIPTOR LIST
                                        26  *
                                        27  *
                                        28  *
                                        29  *  INPUT - X0  AC PTR
                                        30  *        - AR  READY CONTROL WORD
                                        31  *                BIT      0    DON'T CHECK ATTR. BLK IF READY FOR UPDATE
                                        32  *                BITS   1-8    MBZ
                                        33  *                BIT      9    EXCLUSIVE  RETRIEVAL
                                        34  *                BIT     10    EXCLUSIVE  UPDATE
                                        35  *                BIT     11    PROTECTED  RETRIEVAL
                                        36  *                BIT     12    PROTECTED  UPDATE
                                        37  *                BIT     13    CONCURRENT RETRIEVAL
                                        38  *                BIT     14    CONCURRENT UPDATE
                                        39  *                BIT     15    BUILD MODE - DONT OPEN KEY FILE
                                        40  *                BIT     16    BUILD MODE - OPEN KEY FILE
                                        41  *                BIT     17    MBZ
                                        42  *                BITS 18-35    NU
                                        43  *
 0 000000                               44  ZIB$DBIOO NULL
   000000  X 000000 7000 00             45         DBSAV
   000001    000004 000000
   000002    7 01016 2201 00            46           LDX      X0,ACOPN,,PR7  GET AC
   000003    6 00003 2361 10            47           LDQ      WSOF,X0,PR6          Work space offset
   000004    000022 7720 00             48           QRL      18                   Get rid of garbage
   000005    000022 7360 00             49           QLS      18                   Back into position
 12:47 09/05/97  FILE=ZIM$DBIQ.:ZIC0TSI       OPEN AN AREA                                               4    BMAP - B00
   000006    5 00001 0361 00            50           ADLQ     ACTDBCB,,PR5         Make into pointer
   000007    5 00020 7561 00            51           STQ      GIOAWS,,PR5          Parameter for I/O.
   000010    6 00003 2231 10            52         LDX    X3,WSOF,X0,PR6      GET AC WORK SPACE
   000011    7 00006 2221 13            53         LDX    X2,DDCB,X3,PR7      GET ITS DCB#
   000012 (0)000074 6010 00             54         TNZ    EXCAIR              AREA IS ALREADY READIED(EXC RET)
   000013  X 000000 7010 00             55           DBCAL    ZIO$DBOPEN,,DBCOMERR    OPEN DATABASE
   000014 (0)000070 7020 00
   000015    5 00006 2341 00
   000016    777776 6010 04
                                        56  *  FILL IN NEXT AVAIL. ENTRY
                                        57  *    IF THIS AREA'S DBK'S CROSS THE 2**35 BOUNDARY
                                        58  *    BUILD 2 ENTRIES - ONE FOR THE LOW PART & ONE FOR THE HIGH PART
                                        59  *    EACH ENTRY THEN HAS LOW & HIGH LIMITS WITH THE SIGN BITS EQUAL
   000017    7 01016 2201 00            60         LDX     X0,ACOPN,,PR7   GET AC
   000020    7 01017 2211 00            61         LDX     X1,ACTP,,PR7    GET ADDR OF NXT ENTRY
   000021 (0)000023 6010 00             62         TNZ     *+2
   000022    7 00003 2211 00            63         LDX     X1,ATBL,,PR7    1ST AREA - GET ADDR OF TBL
   000023    6 00010 2351 10            64           LDA      DBLIM,X0,PR6         Get low DBK of area
   000024    7 00000 7551 11            65           STA      DBKL,X1,PR7          Put in entry
   000025    7 00002 7401 11            66         STX     X0,ACP,X1,PR7   put AC in entry
   000026    6 00003 2231 10            67           LDX      X3,WSOF,X0,PR6       Get aws offset
   000027    7 00006 2221 13            68           LDX      X2,DDCB,X3,PR7       Get DCB number
   000030    7 00002 4421 11            69            SXL      X2,FCP,X1,PR7        Put in entry
   000031    7 00003 2361 13            70           LDQ      HIGHDBK,X3,PR7       Get high DBK of area
   000032    7 00001 7561 11            71           STQ      DBKL+1,X1,PR7        Put in entry
   000033    7 00003 4501 11            72         STZ     TPAI,X1,PR7     init 2 part indicator in entry
   000034    7 00774 4501 00            73         STZ     CTPAI,,PR7      INIT 2 PART INDICATOR
   000035    7 00003 6751 13            74           ERA      HIGHDBK,X3,PR7       Are low and high same sign
   000036    400000 3150 03             75         CANA    .B0,DU
   000037 (0)000052 6000 00             76         TZE     ADCB            YES - GO ON
   000040 (1)000000 2350 00             77         LDA     =O377777777777  NO
   000041    7 00001 7551 11            78         STA     DBKL+1,X1,PR7   put high pos # in as high of this
   000042    7 00003 7501 11            79         STC2    TPAI,X1,PR7     mark entry as 2 part
   000043    000001 0350 07             80         ADLA    1,DL            INCR A TO HI NEG. NO.
   000044    000004 6210 11             81         EAX     X1,4,X1         UP TO NEXT ENTRY
   000045    7 00000 7571 11            82         STAQ    DBKL,X1,PR7     save limits for 2nd part of area
   000046    7 00002 7401 11            83         STX     X0,ACP,X1,PR7   put AC in entry
 12:47 09/05/97  FILE=ZIM$DBIQ.:ZIC0TSI       OPEN AN AREA                                               5    BMAP - B00
   000047    7 00002 4421 11            84         SXL     X2,FCP,X1,PR7   put DCB# for data in entry
   000050    7 00003 7501 11            85         STC2    TPAI,X1,PR7     set 2 part indicator
   000051    7 00774 7501 00            86         STC2    CTPAI,,PR7      SET 2 PART INDICATOR
   000052                               87  ADCB   NULL
   000052    000004 6210 11             88         EAX     X1,4,X1         INCR PTR
   000053    7 01017 7411 00            89         STX     X1,ACTP,,PR7    SAVE
   000054    7 00003 7211 00            90         LXL     X1,ATBL,,PR7    GET CNT OF OPEN AREAS
   000055    002000 0210 03             91         ADLX    X1,=O002000,DU  INCR
   000056    776000 3610 03             92         ANX     X1,=O776000,DU  IS IT STILL LESS THAN 256
   000057 (0)000067 6000 00             93         TZE     TMA             NO
   000060    7 00774 2341 00            94         SZN     CTPAI,,PR7      IS THIS A 2 PART AREA
   000061 (0)000064 6000 00             95         TZE     *+3             NO
   000062    002000 0210 03             96         ADLX    X1,=O002000,DU  YES - ADD ANOTHER ENTRY
   000063 (0)000067 6000 00             97         TZE     TMA             OVERFLOW - ERROR
   000064    001100 2610 03             98         ORX     X1,.B8+.B11,DU  SET 'A' BIT & TZE FOR RPDX
   000065    7 00003 4411 00            99         SXL     X1,ATBL,,PR7    PUT BACK IN CNT
   000066  X 000000 7020 00            100         DBRET
                                       101  *
                                       102  *  ERRORS DETECTED IN THIS ROUTINE
                                       103  *
   000067                              104  TMA    NULL                    TOO MANY AREAS OPEN AT ONE TIME
   000067    210621 2350 07            105         LDA     RYE4,DL
   000070                              106  DBCOMERR NULL
   000070    7 01016 2201 00           107         LDX     X0,ACOPN,,PR7      get AC index
   000071    000000 6260 00            108         EAX     X6,0            NULL SC
   000072    000000 6270 00            109         EAX     X7,0            NULL RC
   000073  X 000000 7020 00            110           DBALT
   000074                              111  EXCAIR NULL
   000074    022124 2350 07            112         LDA    AIR,DL              AREA IS READIED
   000075 (0)000070 7100 00            113         TRA    DBCOMERR            ALTRETURN

 12:47 09/05/97  FILE=ZIM$DBIQ.:ZIC0TSI       CLOSE AN AREA                                              6    BMAP - B00
                                       114         TTLS    CLOSE AN AREA
                                       115  *
                                       116  *  CLOSE AN AREA
   000076                              117  ZIM$DBIOQ   NULL
   000076  X 000000 7000 00            118              DBSAV
   000077    000004 000000
                                       119  *  SEE IF AREA IS OPEN
   000100    7 01016 2201 00           120         LDX    X0,ACOPN,,PR7       GET AC
   000101    6 00003 2231 10           121         LDX    X3,WSOF,X0,PR6      GET AWS
   000102    7 00006 2221 13           122         LDX    X2,DDCB,X3,PR7      GET DCB#
   000103 (0)000176 6000 00            123         TZE    ANOP                AREA NOT OPENED
   000104    7 00003 2211 00           124         LDX     X1,ATBL,,PR7    GET ADDR OF 1ST AREA ENTRY
   000105    7 00003 7201 00           125         LXL     X0,ATBL,,PR7    GET CNT OF OPEN AREAS
   000106 (0)000176 6000 00            126         TZE     ANOP            NONE OPEN
   000107    7 01016 2351 00           127         LDA     ACOPN,,PR7      GET AC
   000110    000000 6360 10            128         EAQ     ,X0
   000111    000012 7720 00            129         QRL     10
   000112    000000 6200 02            130         EAX     X0,,QU
   000113    777777 2360 07            131         LDQ     -1,DL
   000114                              132  DBI1   NULL
   000114    7 00002 2111 11           133         CMK     ACP,X1,PR7
   000115 (0)000122 6000 00            134         TZE     DBI2
   000116    000004 0210 03            135         ADLX    X1,4,DU
   000117    000001 1200 03            136         SBLX    X0,1,DU
   000120 (0)000114 6010 00            137         TNZ     DBI1
   000121 (0)000176 7100 00            138         TRA     ANOP
   000122                              139  DBI2   NULL
                                       140  *  ZERO CURR PAGE NO.
   000122    5 00021 4501 00           141           STZ      GIOPGNO,,PR5
                                       142  *  REMOVE ENTRY FROM TABLE
   000123    7 00003 2351 11           143         LDA     TPAI,X1,PR7     is this a 2 part area
   000124 (0)000126 6000 00            144         TZE     *+2             NO
   000125    000004 6210 11            145         EAX     X1,4,X1         yes - increment to next entry
   000126    7 00774 7551 00           146         STA     CTPAI,,PR7      SET INDICATOR
   000127    000004 6220 11            147         EAX     X2,4,X1
   000130    7 01017 1021 00           148         CMPX    X2,ACTP,,PR7    IS IT LAST
   000131 (0)000151 6000 00            149         TZE     NCOMP           YES
 12:47 09/05/97  FILE=ZIM$DBIQ.:ZIC0TSI       CLOSE AN AREA                                              7    BMAP - B00
   000132    000000 6350 12            150         EAA     ,X2
   000133    000000 5310 00            151         NEG
   000134    7 01017 0351 00           152         ADLA    ACTP,,PR7
   000135    000002 7350 00            153         ALS     2               AU = NO. OF BYTES TO END OF TABLE
   000136    000000 6210 01            154         EAX     X1,,AU          SET X1 = SIZE OF MOVE
   000137    000000 6360 12            155         EAQ     ,X2             QR = WORD ADDR OF 1ST ENTRY BEING MOVED
   000140    000000 6350 12            156         EAA     ,X2             AR = WORD ADDR OF 1ST ENTRY BEING MOVED
   000141    000020 7730 00            157         LRL     16              MAKE INTO BYTE ADDRESSES
   000142    000020 1350 07            158         SBLA    16,DL           SET AR = BYTE ADDR OF ENTRY BEING OVERLAID
   000143    7 00774 2341 00           159         SZN     CTPAI,,PR7      IS IT A 2 PART ENTRY
   000144 (0)000146 6000 00            160         TZE     *+2             NO
   000145    000020 1350 07            161         SBLA    16,DL           YES - BACK AR UP 1 MORE ENTRY(4 WDS OR 16 BYTES)
   000146    000 0 145 1005 46         162         MLR     (1,1,,Q),(1,1,,A)   move last entries of
   000147    7 00000 0 0 0 0011        163         ADSC9   0,0,X1,PR7      the table up to the
   000150    7 00000 0 0 0 0011        164         ADSC9   0,0,X1,PR7      1st entry being overlaid.
   000151                              165  NCOMP  NULL
                                       166  *  UPDATE AVAIL. ENTRY PTR
   000151    7 00003 7211 00           167         LXL     X1,ATBL,,PR7
   000152    002000 1210 03            168         SBLX    X1,=O002000,DU  DECR COUNT
   000153    7 00774 2341 00           169         SZN     CTPAI,,PR7      IS THIS A 2 PART AREA
   000154 (0)000156 6000 00            170         TZE     *+2             NO
   000155    002000 1210 03            171         SBLX    X1,=O002000,DU  YES - DECR ONE MORE
   000156    776000 3010 03            172         CANX    X1,=O776000,DU  IS COUNT ZERO
   000157 (0)000161 6010 00            173         TNZ     *+2             NO
   000160    000000 6210 00            174         EAX     X1,0            YES - ZERO REST OF COUNT
   000161    7 00003 4411 00           175         SXL     X1,ATBL,,PR7
   000162    7 01017 2211 00           176         LDX     X1,ACTP,,PR7    GET ADDR OF AVAIL ENTRY
   000163    777774 6210 11            177         EAX     X1,-4,X1        DECR BY 1 ENTRY
   000164    7 00774 2341 00           178         SZN     CTPAI,,PR7      IS THIS A 2 PART AREA
   000165 (0)000167 6000 00            179         TZE     *+2             NO
   000166    777774 6210 11            180         EAX     X1,-4,X1        YES - DECR 1 MORE ENTRY
   000167    7 01017 7411 00           181         STX     X1,ACTP,,PR7    SAVE AS NEW AVAIL ENTRY
                                       182  *      close the area
   000170  X 000000 7010 00            183           DBCAL    ZIO$DBCLOSE,,CLSER1  CLOSE DATABASE
   000171 (0)000177 7020 00
   000172    5 00006 2341 00
   000173    777776 6010 04
 12:47 09/05/97  FILE=ZIM$DBIQ.:ZIC0TSI       CLOSE AN AREA                                              8    BMAP - B00
   000174    7 01016 2201 00           184         LDX     X0,ACOPN,,PR7  restore AC
   000175  X 000000 7020 00            185           DBRET
                                       186  *
                                       187  *  ERRORS DETECTED IN THIS ROUTINE
                                       188  *
   000176                              189  ANOP   NULL                    AREA NOT OPEN
   000176    021614 2350 07            190         LDA     ANR,DL
                                       191  *
                                       192  *  errors detected by subordinate routines.
                                       193  *
   000177                              194  CLSER1 NULL                    error closing area.
                                       195  *
   000177    7 01016 2201 00           196         LDX     X0,ACOPN,,PR7   GET AC
   000200    000000 6260 00            197         EAX     X6,0            NULL SC
   000201    000000 6270 00            198         EAX     X7,0            NULL RC
   000202  X 000000 7020 00            199           DBALT
                                       200         END
 1 000000    377777777777

  CONTROL SECTION TABLE

   0 CODE   EVEN  000203
   1 RODATA EVEN  000001 LITERALS

 12:47 09/05/97  FILE=ZIM$DBIQ.:ZIC0TSI       SYMBOL TABLE                                               9    BMAP - B00
 40000000 000000200000 .AC            *13
 40000000 000000000100 .AG            *13
 40000000 000000002000 .ALTO          *13
 40000000 000000000077 .ANL           *13
 40000000 000000200000 .APDN          *13
 40000000 000000000100 .ATMP          *13
 40000000 000000400000 .AV            *13
 41000000 000000400000 .B0            *13        75
 40000000 000000200000 .B1            *13
 40000000 000000000200 .B10           *13
 41000000 000000000100 .B11           *13        98
 40000000 000000000040 .B12           *13
 40000000 000000000020 .B13           *13
 40000000 000000000010 .B14           *13
 40000000 000000000004 .B15           *13
 40000000 000000000002 .B16           *13
 40000000 000000000001 .B17           *13
 40000000 000000400000 .B18           *13
 40000000 000000200000 .B19           *13
 40000000 000000100000 .B2            *13
 40000000 000000100000 .B20           *13
 40000000 000000040000 .B21           *13
 40000000 000000020000 .B22           *13
 40000000 000000010000 .B23           *13
 40000000 000000004000 .B24           *13
 40000000 000000002000 .B25           *13
 40000000 000000001000 .B26           *13
 40000000 000000000400 .B27           *13
 40000000 000000000200 .B28           *13
 40000000 000000000100 .B29           *13
 40000000 000000040000 .B3            *13
 40000000 000000000040 .B30           *13
 40000000 000000000020 .B31           *13
 40000000 000000000010 .B32           *13
 40000000 000000000004 .B33           *13
 40000000 000000000002 .B34           *13
 40000000 000000000001 .B35           *13
 12:47 09/05/97  FILE=ZIM$DBIQ.:ZIC0TSI       SYMBOL TABLE                                               10   BMAP - B00
 40000000 000000020000 .B4            *13
 40000000 000000010000 .B5            *13
 40000000 000000004000 .B6            *13
 40000000 000000002000 .B7            *13
 41000000 000000001000 .B8            *13        98
 40000000 000000000400 .B9            *13
 40000000 000000000001 .BREAK         *13
 40000000 000000010000 .BRK           *13
 40000000 000000020000 .BTB           *13
 40000000 000000000001 .CAC           *13
 40000000 000000000000 .CAE           *13
 40000000 000000000200 .CANSSS        *13
 40000000 000000000400 .CD            *13
 40000000 000000040000 .CFLC          *13
 40000000 000000400000 .CHKSUM        *13
 40000000 000000100000 .CJRNL         *13
 40000000 000000000077 .CNSZ          *13
 40000000 000000160000 .COMC          *13
 40000000 000000000020 .CONT          *13
 40000000 000000000000 .CSE           *13
 40000000 000000700000 .CTYP          *13
 41000000 000000000270 .DBEST         *13
 41000000 000000000470 .DBIC          *13
 40000000 000000077777 .DBPT          *13
 41000000 000000000370 .DBSTK         *13
 40000000 000000020000 .DELM          *13
 40000000 000000002000 .DIDP          *13
 40000000 000000000077 .DNDX          *13
 40000000 000000600000 .DORD          *13
 40000000 000000000200 .DP            *13
 40000000 000000100000 .DPS           *13
 40000000 000000200000 .DPSA          *13
 40000000 000000400000 .DPST          *13
 40000000 000000000002 .DUMP          *13
 40000000 000000002000 .DUPC          *13
 40000000 000000010000 .DUPP          *13
 40000000 000000200000 .EBCL          *13
 12:47 09/05/97  FILE=ZIM$DBIQ.:ZIC0TSI       SYMBOL TABLE                                               11   BMAP - B00
 40000000 000000400000 .EBCM          *13
 40000000 000000200000 .ENCRP         *13
 40000000 000000000077 .ENDX          *13
 40000000 000000000400 .ENQ           *13
 40000000 000000004000 .ETC           *13
 40000000 000000000400 .EXIT          *13
 40000000 000000000200 .FMOD          *13
 40000000 000000000077 .FNL           *13
 40000000 000000000074 .FORG          *13
 40000000 000000002000 .FR            *13
 40000000 000000000100 .FSR           *13
 40000000 000000003400 .FUSE          *13
 40000000 000000010000 .FVF           *13
 40000000 000000040000 .FVR           *13
 40000000 000000000010 .INDEXED       *13
 40000000 000000777777 .IXID          *13
 40000000 000000001777 .IXNUM         *13
 40000000 000000000004 .KEYED         *13
 40000000 000000010000 .LCK           *13
 40000000 000000400000 .LEIL          *13
 40000000 000000001000 .LG            *13
 40000000 000000000002 .LOAD          *13
 40000000 000000020000 .MAR           *13
 40000000 000000000007 .MEMT          *13
 40000000 000000010000 .MRL           *13
 40000000 000000040000 .MSM           *13
 60000000 000000000001 .N6685         *13
 40000000 000000100000 .NAI           *13
 40000000 000000200000 .NBI           *13
 40000000 000000000002 .NCIA          *13
 40000000 000000040000 .NMV           *13
 40000000 000000017777 .NOENT         *13
 40000000 000000400000 .OA            *13
 40000000 000000740000 .OPEV          *13
 40000000 000000100000 .OSM           *13
 40000000 000000100000 .PAFIL         *13
 40000000 000000200000 .PAHVR         *13
 12:47 09/05/97  FILE=ZIM$DBIQ.:ZIC0TSI       SYMBOL TABLE                                               12   BMAP - B00
 40000000 000000000001 .PAIA          *13
 40000000 000000040000 .PALIL         *13
 40000000 000000020000 .PALVR         *13
 40000000 000000400000 .PANLL         *13
 40000000 000000400000 .PCKD          *13
 40000000 000000001600 .PMOD          *13
 40000000 000000000520 .PRCSE         *13
 40000000 000000000007 .PSTO          *13
 40000000 000000006040 .PTAS          *13
 40000000 000000010100 .PTCHK         *13
 40000000 000000010200 .PTDEC         *13
 40000000 000000010140 .PTENC         *13
 40000000 000000020000 .RA            *13
 40000000 000000100000 .RC            *13
 40000000 000000400000 .RELEASE       *13
 40000000 000000000017 .RELT          *13
 40000000 000000004000 .RERA          *13
 40000000 000000400000 .RERS          *13
 40000000 000000010000 .RKEY          *13
 40000000 000000000077 .RNL           *13
 40000000 000000200000 .RSTO          *13
 40000000 000000007777 .RTYP          *13
 40000000 000000040000 .SC            *13
 40000000 000000000070 .SETM          *13
 40000000 000000740000 .SETO          *13
 40000000 000000000700 .SETT          *13
 40000000 000000040000 .SFNP          *13
 40000000 000000004000 .SM            *13
 40000000 000000020000 .SMOD          *13
 40000000 000000000077 .SNL           *13
 40000000 000000020000 .SNSS          *13
 40000000 000000010000 .SO            *13
 40000000 000000100000 .SR            *13
 40000000 000000004000 .SRCR          *13
 40000000 000000001000 .SS            *13
 40000000 000000000007 .SSTP          *13
 40000000 000000004000 .SYN           *13
 12:47 09/05/97  FILE=ZIM$DBIQ.:ZIC0TSI       SYMBOL TABLE                                               13   BMAP - B00
 40000000 000000000040 .SYNC          *13
 40000000 000000020000 .TJRNL         *13
 40000000 000000040000 .TMPLT         *13
 40000000 000000040000 .TRACE         *13
 40000000 000000000001 .TRENTRY       *13
 40000000 000000000012 .TRIDEL        *13
 40000000 000000000021 .TRIDELENQ     *13
 40000000 000000000024 .TRIDEQ        *13
 40000000 000000000013 .TRIMOD        *13
 40000000 000000000022 .TRIMODENQ     *13
 40000000 000000000014 .TRIREAD       *13
 40000000 000000000023 .TRIREADENQ    *13
 40000000 000000000011 .TRISTO        *13
 40000000 000000000020 .TRISTOENQ     *13
 40000000 000000000017 .TRPDEQ        *13
 40000000 000000000004 .TRPMOD        *13
 40000000 000000000016 .TRPMODENQ     *13
 40000000 000000000002 .TRPREAD       *13
 40000000 000000000015 .TRPREADENQ    *13
 40000000 000000000003 .TRPWRITE      *13
 40000000 000000000010 .TRRACC        *13
 40000000 000000000006 .TRRDEL        *13
 40000000 000000000007 .TRRMOD        *13
 40000000 000000000005 .TRRSTO        *13
 40000000 000000004000 .ULCK          *13
 40000000 000000400000 .UPDT          *13
 40000000 000000000040 .VIA           *13
 60000000 000000000001 A              *13
 40000000 000000000002 ABAS           *13
 40000000 000000000001 AC             *13
 40000000 777777777760 ACDEF          *13
 40000000 000000211070 ACDNL          *13
 40000000 000000000003 ACID           *13
 41000000 000000001016 ACOPN          *13        46        60       107       120       127       184
                                      196
 41000000 000000000002 ACP            *13        66        83       133
 40000000 000000000005 ACPTR          *13
 12:47 09/05/97  FILE=ZIM$DBIQ.:ZIC0TSI       SYMBOL TABLE                                               14   BMAP - B00
 40000000 000000000002 ACRAH          *13
 40000000 000000000001 ACRAN          *13
 40000000 000000001003 ACREC          *13
 41000000 000000000001 ACTDBCB        *13        50
 40000000 000000000002 ACTDBNO        *13
 41000000 000000001017 ACTP           *13        61        89       148       152       176       181
 40000000 000000000000 ACTSSS         *13
 40000000 000000000000 ACTSZ          *13
 01101000 000000000052 ADCB            76       *87
 40000000 000000210565 AFNP           *13
 40000000 000000000635 AFT            *13
 41000000 000000022124 AIR            *13       112
 40000000 000000000016 AMAX           *13
 40000000 000000000026 ANAM           *13
 01101000 000000000176 ANOP           123       126       138      *189
 41000000 000000021614 ANR            *13       190
 40000000 000000000001 APNO           *13
 40000000 000000210562 ARGER          *13
 41000000 000000000020 ARGS           *13
 40000000 000000000077 ARGS2          *13
 40000000 000000210713 ARNAF          *13
 41000000 000000000003 ATBL           *13        63        90        99       124       125       167
                                      175
 40000000 000000000000 ATRIB          *13
 40000000 000000000002 AVLN           *13
 40000000 000000000013 AWS$           *13
 40000000 000000000010 AWSZ           *13
 60000000 000000000001 B              *13
 40000000 000000001006 B32N           *13
 40000000 000000001007 B36N           *13
 40000000 000000001056 B72N           *13
 40000000 000000000001 BADDR          *13
 40000000 000000210712 BADSEED        *13
 40000000 777777777765 BDCW           *13
 40000000 000000000633 BEF            *13
 40000000 000000020000 BEFW           *13
 40000000 000000000751 BEMT           *13
 12:47 09/05/97  FILE=ZIM$DBIQ.:ZIC0TSI       SYMBOL TABLE                                               15   BMAP - B00
 40000000 777777777761 BID            *13
 40000000 777777777762 BIND           *13
 40000000 000000000007 BLKD           *13
 40000000 000000303331 BME02          *13
 41000000 000000001203 BMPB           *13
 40000000 000000000652 BN1            *13
 40000000 000000000654 BN2            *13
 40000000 000000000004 BPL            *13
 40000000 000000000015 BPLDBK         *13
 40000000 000000000034 BSPG           *13
 40000000 777777777763 BSTAT          *13
 40000000 000000000750 BTX0           *13
 41000000 000000001160 BUF4           *13
 41000000 000000001170 BUF6           *13
 41000000 000000000000 BUFORG         *13
 40000000 000000001060 BUFRQ          *13
 40000000 000000000006 BURRID         *13
 41000000 000000000020 BWASZ          *13
 60000000 000000000001 C              *13
 40000000 000000000050 CAAC           *13
 40000000 000000000050 CACD           *13
 40000000 000000000111 CAG            *13
 40000000 000000001033 CAL            *13
 40000000 000000000026 CALLPM0        *13
 40000000 000000000003 CANSSS         *13
 40000000 000000000003 CBCPA          *13
 40000000 000000000002 CBCPO          *13
 40000000 000000000002 CBENO          *13
 40000000 000000000014 CBFSZ          *13
 40000000 000000000753 CBIB           *13
 40000000 000000001030 CBID           *13
 40000000 000000000014 CBRCE          *13
 40000000 000000000014 CBRCP          *13
 40000000 000000001033 CBRID          *13
 40000000 000000000015 CBRPA          *13
 40000000 000000000031 CCHAR          *13
 40000000 000000000040 CDBK           *13
 12:47 09/05/97  FILE=ZIM$DBIQ.:ZIC0TSI       SYMBOL TABLE                                               16   BMAP - B00
 40000000 000000000030 CDES           *13
 40000000 000000000110 CDP            *13
 40000000 000000001044 CDPSI          *13
 40000000 000000000002 CDRH           *13
 40000000 000000000003 CDRN           *13
 40000000 000000000002 CDSH           *13
 40000000 000000000003 CDSN           *13
 40000000 000000000722 CENTRN         *13
 40000000 000000000722 CENTRO         *13
 40000000 000000000716 CENTRY         *13
 41000000 000000001053 CFCT           *13
 40000000 000000000670 CFLPT1         *13
 40000000 000000000672 CFLPT2         *13
 40000000 000000000015 CFSA           *13
 40000000 000000000646 CHDBK          *13
 40000000 000000000773 CHR            *13
 40000000 000000000006 CHRD           *13
 40000000 000000000772 CHRO           *13
 40000000 000000007640 CHRTP          *13
 40000000 000000001043 CIAC           *13
 40000000 000000000012 CIAWS          *13
 40000000 000000001051 CIBSI          *13
 40000000 000000000516 CIND           *13
 40000000 000000001041 CINVSZ         *13
 40000000 000000001042 CIPG           *13
 40000000 000000001050 CIPSI          *13
 40000000 000000000000 CIRUN          *13
 40000000 000000000002 CIRWS          *13
 40000000 000000000002 CISWS          *13
 40000000 000000000014 CIWSOF         *13
 40000000 000000303374 CKSM           *13
 40000000 000000000022 CLCN           *13
 40000000 000000000023 CLCP           *13
 40000000 000000000003 CLCRC          *13
 40000000 000000000003 CLCSC          *13
 40000000 000000000237 CLI            *13
 40000000 000000000026 CLNG           *13
 12:47 09/05/97  FILE=ZIM$DBIQ.:ZIC0TSI       SYMBOL TABLE                                               17   BMAP - B00
 01101000 000000000177 CLSER1         183      *194
 40000000 000000000052 CMPL           *13
 40000000 000000000002 CN             *13
 40000000 000000303315 CNE1           *13
 40000000 000000006034 CNUL           *13
 40000000 000000100000 COB74          *13
 40000000 000000000001 COFS           *13
 40000000 000000000045 CONCD          *13
 40000000 000000007764 CP6PGSZB       *13
 41000000 000000001775 CP6PGSZW       *13
 40000000 000000001000 CPGR           *13
 40000000 000000000723 CPTRN          *13
 40000000 000000000723 CPTRO          *13
 60000000 000000000004 CPW            *13
 40000000 000000000112 CRA            *13
 40000000 000000001004 CRD            *13
 40000000 000000000764 CREC           *13
 40000000 000000006344 CRIT           *13
 40000000 000000006200 CRNUL          *13
 40000000 000000007330 CRST           *13
 41000000 000000001223 CRUN           *13
 41000000 000000000000 CSECT          *13
 40000000 000000000007 CSMPP          *13
 40000000 000000001000 CSPAC          *13
 40000000 000000000004 CSPAH          *13
 40000000 777777777776 CSPES          *13
 40000000 777777777776 CSPSB          *13
 40000000 000000000115 CSTS           *13
 40000000 000000000071 CSUB           *13
 40000000 000000000017 CSZ            *13
 40000000 000000000057 CTMASK         *13
 41000000 000000000774 CTPAI          *13        73        86        94       146       159       169
                                      178
 40000000 000000000240 CURLN          *13
 40000000 000000000236 CURLT          *13
 40000000 000000000770 CURPG          *13
 40000000 000000000001 CURR           *13
 12:47 09/05/97  FILE=ZIM$DBIQ.:ZIC0TSI       SYMBOL TABLE                                               18   BMAP - B00
 40000000 000000000035 CURRS          *13
 40000000 000000000037 CURSS          *13
 40000000 000000001005 CWRT           *13
 40000000 000000000237 CWSOF          *13
 60000000 000000000001 D              *13
 40000000 000000000003 DBAN           *13
 01101000 000000000070 DBCOMERR        55      *106       113
 40000000 000000000036 DBDR           *13
 40000000 000000000037 DBFN           *13
 01101000 000000000114 DBI1          *132       137
 01101000 000000000122 DBI2           134      *139
 40000000 000000000754 DBK            *13
 40000000 000000000777 DBKAC          *13
 40000000 000000000000 DBKEY          *13
 41000000 000000000000 DBKL           *13        65        71        78        82
 40000000 000000007474 DBKN           *13
 41000000 000000000776 DBKR           *13
 40000000 000000000777 DBKRQ          *13
 40000000 000000000234 DBKSI          *13
 40000000 000000000651 DBKSR          *13
 40000000 000000000047 DBKYN          *13
 40000000 000000210652 DBLC01         *13
 40000000 000000210653 DBLC05         *13
 40000000 000000303334 DBLC07         *13
 40000000 000000210655 DBLD01         *13
 41000000 000000000010 DBLIM          *13        64
 40000000 000000000033 DBPKY          *13
 40000000 000000000023 DBRN           *13
 40000000 000000000013 DBSN           *13
 40000000 000000000001 DBST           *13
 40000000 000000000757 DCDSR          *13
 40000000 000000210650 DCE1           *13
 40000000 000000001053 DCPR           *13
 40000000 000000001053 DCPW           *13
 40000000 000000000015 DCTBL          *13
 40000000 000000000032 DDBK           *13
 41000000 000000000006 DDCB           *13        53        68       122
 12:47 09/05/97  FILE=ZIM$DBIQ.:ZIC0TSI       SYMBOL TABLE                                               19   BMAP - B00
 40000000 000000011754 DDI            *13
 40000000 000000000000 DEF            *13
 40000000 000000000014 DEF2           *13
 40000000 000000303413 DELAK          *13
 40000000 000000000036 DELRS          *13
 40000000 000000000732 DEPCW          *13
 40000000 000000303414 DLDBK          *13
 40000000 000000210627 DLE1           *13
 40000000 000000303310 DLE2           *13
 40000000 000000210631 DLE3           *13
 40000000 000000016040 DNES           *13
 40000000 777777777777 DPAGN          *13
 40000000 000000000020 DPPI           *13
 40000000 000000000053 DPSLW          *13
 40000000 000000000003 DS             *13
 40000000 000000001063 DSDES          *13
 40000000 000000303316 DSE1           *13
 40000000 000000000735 DUSEPA         *13
 60000000 000000000001 E              *13
 40000000 000000303251 EDPER          *13
 40000000 000000000026 EEIND          *13
 40000000 000000000713 EFIND          *13
 40000000 000000001030 ELO            *13
 40000000 000000210711 ENCPNA         *13
 40000000 000000000007 ENCRP          *13
 40000000 000000000752 ENDSR          *13
 40000000 000000210647 ENE1           *13
 40000000 000000000716 ENIND          *13
 40000000 000000000013 ENTBL          *13
 40000000 000000000710 ENTNO          *13
 40000000 000000000712 ENTPTR         *13
 40000000 000000000717 ENTSZ          *13
 40000000 000000000711 ENTTYP         *13
 40000000 000000004064 EOSR           *13
 40000000 000000000004 ES             *13
 41000000 000000000100 ESTSZ          *13
 40000000 000000000725 ESZ            *13
 12:47 09/05/97  FILE=ZIM$DBIQ.:ZIC0TSI       SYMBOL TABLE                                               20   BMAP - B00
 40000000 000000000005 ETCADR         *13
 40000000 000000000005 ETCDBNO        *13
 01101000 000000000074 EXCAIR          54      *111
 40000000 000000000064 EXCCD          *13
 40000000 000000234534 FALRT          *13
 40000000 000000001055 FBF72          *13
 40000000 000000001025 FBU61          *13
 40000000 000000001020 FBUF           *13
 40000000 000000001026 FBUF1          *13
 40000000 000000001027 FBUF4          *13
 40000000 000000001024 FBUF6          *13
 40000000 000000001022 FBUFM          *13
 40000000 000000001021 FBUFU          *13
 40000000 000000001023 FBUMD          *13
 40000000 000000000004 FCN            *13
 40000000 000000000051 FCNT           *13
 41000000 000000000002 FCP            *13        69        84
 40000000 000000000047 FCSS           *13
 40000000 000000000005 FD             *13
 40000000 000000210637 FDE1           *13
 40000000 000000303320 FDE2           *13
 40000000 000000303321 FDE3           *13
 40000000 000000210642 FDE4           *13
 40000000 000000210643 FDE5           *13
 40000000 000000210644 FDE6           *13
 40000000 000000303325 FDE7           *13
 40000000 000000303326 FDE8           *13
 40000000 000000000021 FEASZ          *13
 40000000 000000000740 FETM           *13
 40000000 000000000006 FI             *13
 40000000 000000000103 FIAC           *13
 41000000 000000001100 FIB1           *13
 41000000 000000001130 FIBP           *13
 40000000 000000000000 FIBX           *13
 40000000 000000000102 FICNT          *13
 40000000 000000000005 FIPN           *13
 40000000 000000000054 FKIND          *13
 12:47 09/05/97  FILE=ZIM$DBIQ.:ZIC0TSI       SYMBOL TABLE                                               21   BMAP - B00
 40000000 000000000015 FLAGS          *13
 40000000 000000000244 FLDDSC         *13
 40000000 000000000046 FLDTL          *13
 40000000 000000000020 FMSBF          *13
 40000000 000000000006 FNAM           *13
 40000000 000000000250 FNIND          *13
 40000000 000000000004 FNL            *13
 40000000 000000000101 FRAC           *13
 40000000 000000000002 FRANGE         *13
 40000000 000000211400 FRDNL          *13
 40000000 000000200000 FRTRN          *13
 40000000 000000000005 FRWSO          *13
 40000000 000000000767 FSLN           *13
 40000000 000000000766 FSOF           *13
 40000000 000000000060 FTIND          *13
 40000000 000000303240 FTLINCR        *13
 40000000 000000000021 FWSSZ          *13
 40000000 000000000246 GACDK          *13
 40000000 000000000014 GDCB           *13
 41000000 000000000006 GERROR         *13        55       183
 40000000 000000000016 GINHIB         *13
 41000000 000000000020 GIOAWS         *13        51
 40000000 000000000022 GIOBUF         *13
 41000000 000000000021 GIOPGNO        *13       141
 40000000 000000000015 GPAGE          *13
 40000000 000000000010 GRETAC         *13
 40000000 000000000011 GRETFR         *13
 40000000 000000000013 GRETRC         *13
 40000000 000000000012 GRETSC         *13
 40000000 000000000025 GRLCW          *13
 40000000 000000000014 GSTCD          *13
 40000000 000000000007 GSYSERR        *13
 40000000 000000000010 GT             *13
 40000000 000000000046 GTRNAME        *13
 40000000 000000000055 GTRPDCB        *13
 40000000 000000000056 GTRPNO         *13
 40000000 000000000057 GTRRDBK        *13
 12:47 09/05/97  FILE=ZIM$DBIQ.:ZIC0TSI       SYMBOL TABLE                                               22   BMAP - B00
 40000000 000000000060 GTRRTYPE       *13
 40000000 000000000060 GTRTYPE        *13
 40000000 000000000027 HASH           *13
 40000000 000000000022 HIA            *13
 40000000 000000000775 HIDB           *13
 41000000 000000000003 HIGHDBK        *13        70        74
 40000000 000000000004 HIGHPG         *13
 40000000 000000001037 HIL            *13
 40000000 000000000002 HILN           *13
 40000000 000000000006 HPOS           *13
 40000000 000000000756 IAAC           *13
 40000000 000000001011 IACLN          *13
 40000000 000000001010 IALC           *13
 40000000 000000010314 IAN            *13
 40000000 000000001012 IANLN          *13
 40000000 000000000001 IASID          *12
 40000000 000000020320 ICA            *13
 40000000 000000000023 ICKSMP         *13
 40000000 000000000024 ICKSMV         *13
 40000000 000000210742 ICNR           *13
 41000000 000000000020 ICSIZ          *13
 40000000 000000010004 IDBK           *13
 40000000 000000012120 IDI            *13
 40000000 000000000023 IDS            *13
 40000000 000000000011 IF             *13
 40000000 000000000021 IFIPN          *13
 40000000 000000000000 IFR            *13
 40000000 000000234546 IKSEQ          *13
 40000000 000000000113 INAFLAG        *13
 40000000 000000000016 INCHA          *13
 40000000 000000210566 INNM           *13
 40000000 000000210567 INSS           *13
 40000000 000000210575 INSST          *13
 40000000 000000303241 INTER          *13
 40000000 000000400000 INTII          *13
 40000000 000000000013 INTVL          *13
 40000000 000000001060 INVFLG         *13
 12:47 09/05/97  FILE=ZIM$DBIQ.:ZIC0TSI       SYMBOL TABLE                                               23   BMAP - B00
 40000000 000000001043 INVOF          *13
 40000000 000000000014 INVT           *13
 40000000 000000000034 IOBLK          *13
 40000000 000000303354 IOCLSD         *13
 40000000 000000303355 IOCLSK         *13
 40000000 000000303257 IOE1           *13
 40000000 000000303264 IOE11          *13
 40000000 000000303265 IOE12          *13
 40000000 000000303266 IOE18          *13
 40000000 000000303260 IOE2           *13
 40000000 000000303261 IOE3           *13
 40000000 000000303262 IOE7           *13
 40000000 000000303263 IOE8           *13
 40000000 000000303363 IOFLSH         *13
 40000000 000000210676 IOGDCB         *13
 40000000 000000001002 IOINC          *13
 40000000 000000305160 IOINI          *13
 40000000 000000305155 IONOTIDS       *13
 40000000 000000305154 IONOTKEY       *13
 40000000 000000210677 IOOPND         *13
 40000000 000000210700 IOOPNK         *13
 40000000 000000303361 IORDD          *13
 40000000 000000305156 IOSCHEMA       *13
 40000000 000000001052 IOSTS          *13
 40000000 000000303362 IOWRTD         *13
 41000000 000000000750 IOWS           *13
 40000000 000000000647 IPC            *13
 40000000 000000000650 IPCF           *13
 40000000 000000000006 IROLLFLAG      *13
 40000000 000000010150 IRSN           *13
 40000000 000000000004 ISYSDCB        *13
 40000000 000000000005 ISYSERR        *13
 40000000 000000000061 ITPTR          *13
 40000000 000000000060 ITRS           *13
 40000000 000000021760 IUM            *13
 40000000 000000000017 IUSZ           *13
 40000000 000000234522 IVDBK          *13
 12:47 09/05/97  FILE=ZIM$DBIQ.:ZIC0TSI       SYMBOL TABLE                                               24   BMAP - B00
 40000000 000000000011 IXBUF$         *13
 40000000 000000000046 IXFBSZ         *13
 40000000 777777777776 IXID           *13
 40000000 777777777777 IXPLL          *13
 40000000 000000000523 KCARG0         *13
 40000000 000000000524 KCARG3         *13
 40000000 000000000525 KCARG4         *13
 40000000 000000000700 KCREG          *13
 40000000 000000000006 KDCB           *13
 40000000 000000000666 KEYDS          *13
 40000000 000000000010 KEYPA          *13
 40000000 777777777776 KLNG           *13
 40000000 000000000022 KPASZ          *13
 40000000 000000000006 KWSZ           *13
 40000000 000000000052 LANGC          *13
 40000000 000000001014 LAS            *13
 40000000 000000700000 LCODM          *13
 40000000 000000001045 LDPSI          *13
 40000000 000000001071 LINPT          *13
 40000000 000000001017 LNCNT          *13
 40000000 000000000762 LNNO           *13
 40000000 000000001036 LOL            *13
 40000000 000000000715 LOLIM          *13
 40000000 000000000023 LPASZ          *13
 40000000 000000000012 LPP            *13
 40000000 000000257764 LR             *13
 40000000 000000301270 LRA            *13
 40000000 000000000017 LRSZ           *13
 40000000 000000001035 LSPC           *13
 40000000 000000000750 LUPD           *13
 61000000 000000000001 M9             *13
 40000000 000000000013 MD             *13
 40000000 000000300000 MDQS           *13
 40000000 000000000730 MEMPTR         *13
 40000000 000000000727 MEMTYP         *13
 40000000 000000000045 MODCD          *13
 41000000 000000001207 MODFL          *13
 12:47 09/05/97  FILE=ZIM$DBIQ.:ZIC0TSI       SYMBOL TABLE                                               25   BMAP - B00
 40000000 000000000042 MODFR          *13
 40000000 000000000044 MODIN          *13
 40000000 000000000044 MODRS          *13
 40000000 000000000043 MODSC          *13
 40000000 000000000047 MRBKI          *13
 40000000 000000210632 MRE4           *13
 40000000 000000303313 MRE5           *13
 40000000 000000210634 MRE7           *13
 40000000 000000400000 MW             *13
 40000000 000000000025 NCH            *13
 40000000 000000000002 NCHA           *13
 40000000 000000000005 NCHRS          *13
 01101000 000000000151 NCOMP          149      *165
 40000000 000000000014 NDCD           *13
 40000000 000000000012 NENC           *13
 40000000 000000000634 NEW            *13
 40000000 000000001072 NEWSIZ         *13
 40000000 000000235164 NKA            *13
 40000000 000000235020 NKDB           *13
 40000000 000000303415 NLDBK          *13
 40000000 777777777777 NLIND          *13
 40000000 000000001040 NLN            *13
 40000000 000000400000 NLNSA          *13
 41000000 000000001053 NOBF           *13
 40000000 000000000711 NOPTRS         *13
 40000000 000000000742 NPARCW         *13
 40000000 000000000630 NPIND          *13
 40000000 000000000004 NPOS           *13
 40000000 000000234510 NSA            *13
 40000000 000000234654 NSCS           *13
 40000000 000000234344 NSDB           *13
 40000000 000000000001 NSTS           *13
 40000000 000000000726 NUMENT         *13
 40000000 000000000727 NUMPTR         *13
 40000000 777777777760 NXBUF          *13
 40000000 000000000713 NXPRI          *13
 40000000 000000000771 NXTC           *13
 12:47 09/05/97  FILE=ZIM$DBIQ.:ZIC0TSI       SYMBOL TABLE                                               26   BMAP - B00
 40000000 000000000001 OAACN          *13
 40000000 000000000022 OACIWSOF       *13
 40000000 000000000001 OAOFST         *13
 40000000 000000000002 OARCN          *13
 40000000 000000000001 OASCN          *13
 40000000 000000000014 OD             *13
 40000000 000000000074 ODBK           *13
 40000000 000000001072 OLDSIZ         *13
 40000000 000000000101 OPADP          *13
 40000000 000000000741 OPARCW         *13
 40000000 000000210570 ORDNI          *13
 40000000 777777777777 OTVL           *13
 40000000 000000000252 OWNPTR         *13
 40000000 000000000016 PABUF          *13
 40000000 000000001041 PACD           *13
 40000000 000000000001 PACW           *13
 40000000 000000000733 PADBK          *13
 40000000 000000000740 PADUP          *13
 40000000 000000000745 PAEN           *13
 40000000 000000000745 PAEO           *13
 40000000 000000000734 PAEOF          *13
 40000000 000000303336 PAER1          *13
 40000000 000000303337 PAER2          *13
 40000000 000000303340 PAER3          *13
 40000000 000000303341 PAER4          *13
 40000000 000000303342 PAER5          *13
 40000000 000000303343 PAER6          *13
 40000000 000000000747 PAESZ          *13
 40000000 000000001060 PAFLG          *13
 40000000 000000000731 PAOPTR         *13
 40000000 000000000734 PAPOF          *13
 40000000 000000000714 PARCW          *13
 40000000 000000000726 PARVPA         *13
 40000000 000000000724 PASPLT         *13
 40000000 000000000004 PAWSZ          *13
 40000000 777777777762 PBUF           *13
 40000000 000000000020 PC             *13
 12:47 09/05/97  FILE=ZIM$DBIQ.:ZIC0TSI       SYMBOL TABLE                                               27   BMAP - B00
 41000000 000000000510 PCB            *13
 40000000 000000000642 PCD            *13
 40000000 000000000642 PCD2           *13
 40000000 000000000247 PCEXI          *13
 40000000 000000000675 PCMIN          *13
 40000000 000000004541 PCOMP          *13
 40000000 000000000010 PD             *13
 40000000 000000000040 PE             *13
 40000000 000000000017 PENDING        *13
 40000000 000000000004 PF             *13
 40000000 000000000400 PFG            *13
 40000000 000000000200 PFM            *13
 40000000 000000000100 PFS            *13
 40000000 000000000400 PG             *13
 40000000 000000001064 PGHD           *13
 40000000 000000000006 PGLIM          *13
 40000000 000000000003 PGRNG          *13
 40000000 000000000746 PGSIZE         *13
 40000000 000000000641 PGSPLT         *13
 40000000 000000000100 PKAW           *13
 40000000 000000001034 PLO            *13
 40000000 000000000004 PLSEP          *13
 40000000 000000000200 PM             *13
 40000000 000000001054 PNEOO          *13
 40000000 000000001047 POFSI          *13
 40000000 000000000005 PPOS           *13
 40000000 000000000000 PR0            *12
 40000000 000000000001 PR1            *12
 40000000 000000000002 PR2            *12
 40000000 000000000003 PR3            *12
 40000000 000000000004 PR4            *12
 41000000 000000000005 PR5            *12        50        51        55       141       183
 41000000 000000000006 PR6            *12        47        52        64        67       121
 41000000 000000000007 PR7            *12        46        53        60        61        63        65
                                       66        68        69        70        71        72        73
                                       74        78        79        82        83        84        85
                                       86        89        90        94        99       107       120
 12:47 09/05/97  FILE=ZIM$DBIQ.:ZIC0TSI       SYMBOL TABLE                                               28   BMAP - B00
                                      122       124       125       127       133       143       146
                                      148       152       159       163       164       167       169
                                      175       176       178       181       184       196
 40000000 000000303267 PRE1           *13
 40000000 000000303277 PRE10          *13
 40000000 000000303270 PRE3           *13
 40000000 000000303271 PRE4           *13
 40000000 000000303272 PRE5           *13
 40000000 000000210613 PRE6           *13
 40000000 000000210614 PRE7           *13
 40000000 000000210615 PRE8           *13
 40000000 000000303276 PRE9           *13
 40000000 000000000522 PREXC          *13
 40000000 000000000521 PRFR           *13
 40000000 000000000521 PRFR2          *13
 40000000 000000000000 PRIV           *13
 40000000 000000000526 PROPA          *13
 40000000 000000000517 PRRC           *13
 40000000 000000000517 PRRS           *13
 40000000 000000000520 PRSC           *13
 40000000 000000000516 PRSS           *13
 40000000 000000000644 PRSTS          *13
 40000000 000000000100 PS             *13
 41000000 000000000000 PS0SID         *12
 41000000 000000000001 PS1SID         *12
 41000000 000000000002 PS2SID         *12
 41000000 000000000003 PS3SID         *12
 41000000 000000000004 PS4SID         *12
 40000000 000000000005 PS5SID         *12
 40000000 000000000006 PS6SID         *12
 40000000 000000303416 PSA            *13
 40000000 000000000020 PSC            *13
 40000000 000000000010 PSD            *13
 40000000 000000000004 PSF            *13
 40000000 000000000400 PSO            *13
 40000000 000000000720 PTESZ          *13
 40000000 000000000631 PTR            *13
 12:47 09/05/97  FILE=ZIM$DBIQ.:ZIC0TSI       SYMBOL TABLE                                               29   BMAP - B00
 40000000 000000000724 PTRESZ         *13
 40000000 000000000710 PTRNO          *13
 41000000 000000000630 PWS            *13
 40000000 000000000002 RADDR          *13
 40000000 000000000010 RADIX          *13
 40000000 000000000005 RAPTR          *13
 40000000 000000000004 RAWSOF         *13
 40000000 777777777766 RBA            *13
 40000000 000000023432 RCBI           *13
 40000000 000000211234 RCDNL          *13
 40000000 000000000005 RCFRH          *13
 40000000 000000000004 RCFRN          *13
 40000000 000000001075 RCHD           *13
 40000000 000000000001 RCID           *13
 40000000 000000000006 RCPTR          *13
 40000000 000000000002 RCRAH          *13
 40000000 000000000001 RCRAN          *13
 40000000 000000000003 RCRSH          *13
 40000000 000000000002 RCRSN          *13
 40000000 000000210667 RCVER1         *13
 40000000 000000210670 RCVER2         *13
 40000000 000000210671 RCVER4         *13
 40000000 000000210672 RCVER5         *13
 40000000 000000210673 RCVER6         *13
 40000000 000000000736 RCW1           *13
 40000000 000000000737 RCW2           *13
 40000000 000000000004 RCWSO          *13
 40000000 000000000077 RDAC           *13
 40000000 000000000076 RDCNT          *13
 40000000 000000040000 RDI            *13
 40000000 000000015674 RDLT           *13
 40000000 000000000075 RDYCW          *13
 40000000 000000000066 RECAC          *13
 40000000 000000000065 RECFR          *13
 40000000 000000000070 RECRC          *13
 40000000 000000000067 RECSC          *13
 40000000 000000000003 RECSZ          *13
 12:47 09/05/97  FILE=ZIM$DBIQ.:ZIC0TSI       SYMBOL TABLE                                               30   BMAP - B00
 40000000 000000000235 REMLT          *13
 40000000 000000000062 REM_RECOVER    *13
 40000000 000000000251 RETFR          *13
 40000000 000000210724 RFDNL          *13
 40000000 000000017644 RIM            *13
 40000000 000000000005 RNAM           *13
 40000000 000000015706 RNDLT          *13
 40000000 000000000662 RNG1           *13
 40000000 000000000664 RNG2           *13
 40000000 000000000073 RNGD           *13
 40000000 000000000072 RNGO           *13
 40000000 000000000660 RNGTAL         *13
 40000000 000000020154 RNM            *13
 40000000 000000000041 ROCUR          *13
 40000000 000000000001 ROFST          *13
 40000000 000000002114 ROLL           *13
 40000000 000000020010 RPM            *13
 40000000 000000000001 RSCDH          *13
 40000000 000000000001 RSCDN          *13
 40000000 000000211710 RSDNL          *13
 40000000 000000004540 RSEE           *13
 40000000 000000000003 RSIZ           *13
 40000000 000000000110 RSPAM          *13
 40000000 000000000004 RSPTR          *13
 40000000 000000000037 RSREQ          *13
 40000000 000000000002 RSSSH          *13
 40000000 000000000001 RSSSN          *13
 40000000 000000210574 RSZER          *13
 40000000 000000000632 RSZTP          *13
 40000000 000000000003 RTP            *13
 40000000 000000000003 RTYP           *13
 40000000 000000000530 RV1            *13
 40000000 000000000550 RV2            *13
 40000000 000000000570 RV3            *13
 40000000 000000000610 RV4            *13
 40000000 000000000003 RVASID         *12
 40000000 000000000510 RVI            *13
 12:47 09/05/97  FILE=ZIM$DBIQ.:ZIC0TSI       SYMBOL TABLE                                               31   BMAP - B00
 40000000 000000000511 RVO            *13
 40000000 000000000513 RVPA           *13
 40000000 000000000512 RVT            *13
 40000000 000000000022 RVTAL          *13
 40000000 000000000002 RWSZ           *13
 40000000 000000000015 RY             *13
 40000000 000000210620 RYE1           *13
 41000000 000000210621 RYE4           *13       105
 40000000 777777777767 SA             *13
 40000000 000000000005 SANAM          *13
 40000000 000000001062 SCDES          *13
 40000000 000000211544 SCDNL          *13
 40000000 000000000024 SCFC           *13
 40000000 000000000002 SCID           *13
 40000000 000000000024 SCLST          *13
 40000000 000000000004 SCNAM          *13
 40000000 000000000004 SCPTR          *13
 40000000 000000000003 SCRSH          *13
 40000000 000000000002 SCRSN          *13
 40000000 000000000001 SCWSO          *13
 40000000 000000001225 SFWS           *13
 40000000 000000001073 SIZCHG         *13
 40000000 000000000645 SKFLG          *13
 40000000 000000000643 SKIND          *13
 40000000 000000000641 SKTYP          *13
 40000000 000000020464 SMCR           *13
 40000000 000000000003 SNAM           *13
 40000000 000000000107 SNIND          *13
 40000000 000000000735 SNPAE          *13
 40000000 000000001046 SNSI           *13
 40000000 000000000743 SOE            *13
 40000000 000000020630 SORSA          *13
 40000000 000000004374 SOSE           *13
 40000000 000000000000 SPAV           *13
 40000000 000000000744 SPCAVN         *13
 40000000 000000000744 SPCAVO         *13
 40000000 000000000765 SPLF           *13
 12:47 09/05/97  FILE=ZIM$DBIQ.:ZIC0TSI       SYMBOL TABLE                                               32   BMAP - B00
 41000000 000000000765 SPND           *13
 40000000 000000000006 SSDT           *13
 40000000 000000303243 SSER           *13
 40000000 000000303244 SSER1          *13
 40000000 000000000002 SSH            *13
 40000000 000000000005 SSNAM          *13
 40000000 000000210573 SSNF           *13
 40000000 000000210576 SSNV           *13
 40000000 000000000020 SSSPTR         *13
 40000000 000000000010 SSVDT          *13
 40000000 000000000033 SSZTP          *13
 40000000 000000000017 ST             *13
 40000000 000000000104 STBIN          *13
 40000000 000000000105 STDEC          *13
 40000000 000000303302 STE1           *13
 40000000 000000303303 STE2           *13
 40000000 000000210624 STE3           *13
 40000000 000000303305 STE4           *13
 40000000 000000303306 STE5           *13
 41000000 000000000100 STKSIZ         *13
 40000000 000000000055 STMASK         *13
 40000000 000000000062 SUST           *13
 41000000 000000000020 SWS            *13
 40000000 000000000000 SWSAC          *13
 40000000 000000000002 SWSZ           *13
 40000000 000000000000 SYSSF          *13
 40000000 000000000765 SZREQ          *13
 40000000 000000000004 TBUF           *13
 40000000 000000001061 TCTRS          *13
 60000000 000000000000 TDS            *13
 41000000 000000000113 TEMP           *13
 40000000 000000000640 TFLD           *13
 40000000 000000000657 TFLD2          *13
 01101000 000000000067 TMA             93        97      *104
 40000000 000000000056 TMASK          *13
 40000000 000000000061 TMODE          *13
 40000000 000000000676 TMPPA          *13
 12:47 09/05/97  FILE=ZIM$DBIQ.:ZIC0TSI       SYMBOL TABLE                                               33   BMAP - B00
 41000000 000000000003 TPAI           *13        72        79        85       143
 40000000 000000500000 TPRCOD         *13
 40000000 000000001031 TSFN           *13
 40000000 000000000021 TSI            *13
 40000000 000000001013 UBRD2          *13
 41000000 000000001223 UBSZ           *13
 40000000 000000000667 UCADR          *13
 40000000 000000000036 UCRS           *13
 40000000 000000000024 UFSPK          *13
 40000000 000000000024 UFSPK2         *13
 40000000 000000000715 ULIM           *13
 40000000 000000004230 UNA            *13
 40000000 000000303417 UNIM           *13
 40000000 000000000002 UOFST          *13
 40000000 000000001035 UPACD          *13
 40000000 000000000721 UPACW          *13
 40000000 000000000007 UPFLAG         *13
 40000000 000000000103 UPPAI          *13
 40000000 000000000004 UPTSID         *12
 40000000 000000000674 USTAT          *13
 40000000 000000000002 UWASID         *12
 40000000 000000000002 UWSSZ          *13
 40000000 000000000020 UWSZ           *13
 40000000 000000000243 VFDSC          *13
 40000000 000000001070 VFDSR          *13
 40000000 000000000656 VFLD           *13
 40000000 000000001074 VFLNG          *13
 40000000 000000001124 VIB1           *13
 40000000 000000001154 VIBP           *13
 40000000 000000000000 VLPSID         *12
 40000000 000000001074 VRSIZ          *13
 40000000 000000001067 WLOA           *13
 40000000 000000100000 WRTI           *13
 40000000 000000000000 WSBID          *13
 41000000 000000000003 WSOF           *13        47        52        67       121
 41000000 000000000000 X0             *12        46        60        66        83       107       120
                                      125       130       136       184       196
 12:47 09/05/97  FILE=ZIM$DBIQ.:ZIC0TSI       SYMBOL TABLE                                               34   BMAP - B00
 41000000 000000000001 X1             *12        55        61        63        81        88        89
                                       90        91        92        96        98        99       124
                                      135       145       154       167       168       171       172
                                      174       175       176       177       180       181       183
 41000000 000000000002 X2             *12        53        68        69        84       122       147
                                      148
 41000000 000000000003 X3             *12        52        67       121
 40000000 000000000004 X4             *12
 40000000 000000000005 X5             *12
 41000000 000000000006 X6             *12       108       197
 03201003 000000000000 X66_ARET       *12       100       185
 03201002 000000000000 X66_AUTO_0     *12        45       118
 41000000 000000000007 X7             *12       109       198
 40000000 000000210665 XASL           *13
 40000000 000000303420 XLD            *13
 40000000 000000303421 XPD            *13
 40000000 000000000676 XPRS           *13
 40000000 000000210666 XROLL          *13
 40000000 000000210664 XUNEX          *13
 40000000 777777777777 XXDPN          *13
 03201004 000000000000 ZIB$DBALT     *110      *199
 12101000 000000000000 ZIB$DBIOO       10       *44
 12101000 000000000076 ZIM$DBIOQ       10      *117
 03201001 000000000000 ZIO$DBCLOSE    *11       183
 03201000 000000000000 ZIO$DBOPEN     *11        55

     936 SYMBOLS

 12:47 09/05/97  FILE=ZIM$DBIQ.:ZIC0TSI       MACRO TABLE                                                35   BMAP - B00
 CBSYM           13
 DBALT          110       199
 DBCAL           55       183
 DBRET          100       185
 DBSAV           45       118
 Q2SYM           13
 SSSYM           13

      37 MACROS

    SYMBOL SPACE USED  9002 WORDS
     MACRO SPACE USED 13043 WORDS
   INPUT RECORDS READ  2202
 STATEMENTS PROCESSED  2090
         ELAPSED TIME  0:10.16
             CPU TIME     9.77 SEC.
        ASSEMBLY RATE 12835 STATEMENTS/CPU MIN.

      NO ERRORS

