
 12:47 09/05/97  FILE=ZIM$DBIT.:ZIC0TSI                                                                  1    BMAP - B00
                                         1  *M*      ZIG$DBIT
                                         2  *T***********************************************************
                                         3  *T*                                                         *
                                         4  *T* Copyright (c) Bull HN Information Systems Inc., 1997    *
                                         5  *T*                                                         *
                                         6  *T***********************************************************

 12:47 09/05/97  FILE=ZIM$DBIT.:ZIC0TSI       H6600H2.510     IDS/IT IF TENANT               780321DBIT  2    BMAP - B00
                                         7         TTL     H6600H2.510     IDS/IT IF TENANT               780321DBIT
                                         8         CPR     1974
                                         9         PMC     OFF
                                        10  *
                                        11         ENTDEF  ZIG$DBIFT
                                        12  *
                                        13         ENTREF  ZIG$DBPCR
                                        14  *
                                        15         LODM    Q2MA
                                        16  *
                                        17         Q2SYM

 12:47 09/05/97  FILE=ZIM$DBIT.:ZIC0TSI       IDS-II  IF TENANT SUBROUTINE                               3    BMAP - B00
                                        18         TTLS    IDS-II  IF TENANT SUBROUTINE
                                        19  ****************************************************************
                                        20  *
                                        21  *  - DBIFT -
                                        22  *
                                        23  *      IF TENANT.  Determine if the current of run
                                        24  *      participates in any set, as the owner, a member,
                                        25  *      or both.
                                        26  *
                                        27  *      Parameter   Description
                                        28  *      ---------   -----------
                                        29  *
                                        30  *          0       IA
                                        31  *          1       UWA
                                        32  *          2       FPT
                                        33  *
                                        34  *      FPT Format...
                                        35  *
                                        36  *      Word 0:  Tenant Definition Word
                                        37  *              Bit 0:  If set, and the current of run
                                        38  *                  is the owner of any set, the first
                                        39  *                  word of the UWA is set to non-zero.
                                        40  *              Bit 1:  If set, and the current of run
                                        41  *                  is a member of any set, the first word
                                        42  *                  of the UWA is set to non-zero.
                                        43  *                  (In all other cases the first word
                                        44  *                  of the UWA is set to zero.)
                                        45  *
                                        46  ****************************************************************
                                        47  *
 0 000000                               48  ZIG$DBIFT NULL
   000000  X 000000 7000 00             49           DBSAV
   000001    000004 000000
                                        50  *  INIT TEST RESULTS TO FALSE
   000002    000002 4714 07             51         LDP    PR1,UWASID,DL            UWA$
   000003    1 00000 4501 00            52         STZ    IFR,,PR1                 SET TEST RESULTS TO .FALSE.
                                        53  *  GET CURRENT OF RUN
 12:47 09/05/97  FILE=ZIM$DBIT.:ZIC0TSI       IDS-II  IF TENANT SUBROUTINE                               4    BMAP - B00
   000004  X 000000 7010 00             54         DBCAL   ZIG$DBPCR,,CRER7    GET CURR OF RUN
   000005 (0)000065 7020 00
   000006    5 00006 2341 00
   000007    777776 6010 04
                                        55  *  CHECK RS DEFINITIONS
   000010    7 00510 2231 00            56         LDX     X3,RVI,,PR7     SET X3 TO REC VAR IN
   000011    7 00006 2271 13            57         LDX     X7,RCPTR,X3,PR7  GET RC PTR
   000012    7 00060 7471 00            58         STX     X7,ITRS,,PR7    SAVE AS CURRENT RS
   000013                               59  ITL1   NULL
   000013    7 00020 2211 00            60         LDX     X1,ARGS,,PR7    GET LOC OF ARGS
   000014    000000 4704 07             61         LDP    PR0,VLPSID,DL            VLP$
   000015    0 00000 2351 00            62         LDA     0,,PR0               Get Tenant Definition Word from FPT
   000016    7 00060 2251 00            63         LDX     X5,ITRS,,PR7    GET CURR RS
   000017    6 00002 7251 15            64         LXL     X5,RCRSN,X5,PR6  GET NEXT RS
   000020    000040 6000 04             65         TZE     RSDN,$          LAST RS DONE
   000021    7 00060 7451 00            66         STX     X5,ITRS,,PR7    SAVE AS CURR
   000022    6 00003 7261 15            67         LXL     X6,SCRSH,X5,PR6  GET SC
   000023    6 00000 7211 16            68         LXL     X1,DEF,X6,PR6
   000024    020000 3010 03             69         CANX    X1,.SNSS,DU     IS THIS SET IN SUB-SCHEMA
   000025    777766 6010 04             70         TNZ     ITL1,$          NO - GO ON
                                        71  *  SKIP IF SC IS FOR A KEY
   000026    000700 3610 03             72         ANX     X1,.SETT,DU     GET SET TYPE
   000027    000200 1010 03             73         CMPX    X1,=O200,DU     IS IT AN SC FOR A PRIMARY KEY
   000030 (0)000013 6000 00             74         TZE     ITL1            YES - SKIP
   000031    000300 1010 03             75         CMPX    X1,=O300,DU     IS IT AN SC FOR A SECONDARY KEY
   000032 (0)000013 6000 00             76         TZE     ITL1            YES - SKIP
   000033    6 00000 2211 15            77         LDX     X1,DEF,X5,PR6   GET DEF TYPE FROM RS
   000034    010000 3010 03             78         CANX    X1,.SO,DU       IS IT AN SO
   000035 (0)000053 6010 00             79         TNZ     CKO             YES
   000036    200000 3150 03             80         CANA    .B1,DU          IS IT A CHECK MEMBER REQUEST
   000037 (0)000013 6000 00             81         TZE     ITL1            NO - GET NEXT RS
   000040    6 00000 7211 15            82         LXL     X1,DEF,X5,PR6
   000041    140000 3010 03             83         CANX    X1,.OSM+.MSM,DU  IS THIS AN OPTIONAL OR MANUAL MEMBER
   000042 (0)000052 6000 00             84         TZE     SETT            NO
                                        85  *  CHECK THIS REC TO SEE IF IT IS CURRENTLY A MEMBER
   000043    7 00510 2231 00            86         LDX     X3,RVI,,PR7     SET X3 TO REC VAR IN
   000044    7 00002 4735 13            87         LDP     PR3,RADDR,X3,PR7  GET ADDR OF REC
 12:47 09/05/97  FILE=ZIM$DBIT.:ZIC0TSI       IDS-II  IF TENANT SUBROUTINE                               5    BMAP - B00
   000045    000 1 100 1015 20          88         MRL     (1,,1),(1),0,1  * MOVE
   000046    6 00004 0001 15            89         ARG     NPOS,X5,PR6     *  NEXT PTR TO
   000047    7 00061 0 0 0 0004         90         ADSC9   ITPTR,0,4,PR7        Work Space
   000050    7 00061 2361 00            91         LDQ     ITPTR,,PR7      IS NEXT PTR = 0
   000051 (0)000013 6000 00             92         TZE     ITL1            YES
   000052                               93  SETT   NULL
   000052 (0)000055 7100 00             94         TRA    STR
   000053                               95  CKO    NULL                    CHECK FOR OWNER REQUEST
   000053    400000 3150 03             96         CANA    .B0,DU          IS IT A CHECK OWNER REQUEST
   000054 (0)000013 6000 00             97         TZE     ITL1            NO - GET NEXT RS
   000055    000001 6210 00             98  STR    EAX    X1,1
   000056    000002 4714 07             99         LDP    PR1,UWASID,DL            UWA$
   000057    1 00000 4411 00           100         SXL    X1,IFR,,PR1              SET TEST RESULTS TO .TRUE.
   000060                              101  RSDN   NULL
                                       102  *  PUT CURR OF RUN BACK IN REC VAR OUT
   000060    7 00510 2371 00           103         LDAQ    RVI,,PR7        * REVERSE
   000061    7 00511 7551 00           104         STA     RVO,,PR7        *  IN & OUT
   000062    7 00510 7561 00           105         STQ     RVI,,PR7        *
                                       106  *  RETURN
   000063  X 000000 7020 00            107           DBRET
                                       108  *
                                       109  *  ERRORS DETECTED IN SUBORDINATE ROUTINES
                                       110  *
   000064                              111  STER1  NULL                    ERROR ACCUMULATING STATISTICS
   000064 (0)000066 7100 00            112         TRA     ITR1
                                       113  *
                                       114  *  ERRORS DETECTED IN PRIMITIVES
                                       115  *
   000065                              116  CRER7  NULL                    GET CURRENT OF RUN ERROR
   000065 (0)000066 7100 00            117         TRA     ITR1
                                       118  *
                                       119  *  COMMON ERROR RETURN
                                       120  *
   000066  X 000000 7020 00            121  ITR1     DBALT
                                       122         END

  CONTROL SECTION TABLE
 12:47 09/05/97  FILE=ZIM$DBIT.:ZIC0TSI       IDS-II  IF TENANT SUBROUTINE                               6    BMAP - B00

   0 CODE   EVEN  000067
   1 RODATA EVEN  000000 LITERALS

 12:47 09/05/97  FILE=ZIM$DBIT.:ZIC0TSI       SYMBOL TABLE                                               7    BMAP - B00
 40000000 000000200000 .AC            *17
 40000000 000000000100 .AG            *17
 40000000 000000002000 .ALTO          *17
 40000000 000000000077 .ANL           *17
 40000000 000000200000 .APDN          *17
 40000000 000000000100 .ATMP          *17
 40000000 000000400000 .AV            *17
 41000000 000000400000 .B0            *17        96
 41000000 000000200000 .B1            *17        80
 40000000 000000000200 .B10           *17
 40000000 000000000100 .B11           *17
 40000000 000000000040 .B12           *17
 40000000 000000000020 .B13           *17
 40000000 000000000010 .B14           *17
 40000000 000000000004 .B15           *17
 40000000 000000000002 .B16           *17
 40000000 000000000001 .B17           *17
 40000000 000000400000 .B18           *17
 40000000 000000200000 .B19           *17
 40000000 000000100000 .B2            *17
 40000000 000000100000 .B20           *17
 40000000 000000040000 .B21           *17
 40000000 000000020000 .B22           *17
 40000000 000000010000 .B23           *17
 40000000 000000004000 .B24           *17
 40000000 000000002000 .B25           *17
 40000000 000000001000 .B26           *17
 40000000 000000000400 .B27           *17
 40000000 000000000200 .B28           *17
 40000000 000000000100 .B29           *17
 40000000 000000040000 .B3            *17
 40000000 000000000040 .B30           *17
 40000000 000000000020 .B31           *17
 40000000 000000000010 .B32           *17
 40000000 000000000004 .B33           *17
 40000000 000000000002 .B34           *17
 40000000 000000000001 .B35           *17
 12:47 09/05/97  FILE=ZIM$DBIT.:ZIC0TSI       SYMBOL TABLE                                               8    BMAP - B00
 40000000 000000020000 .B4            *17
 40000000 000000010000 .B5            *17
 40000000 000000004000 .B6            *17
 40000000 000000002000 .B7            *17
 40000000 000000001000 .B8            *17
 40000000 000000000400 .B9            *17
 40000000 000000000001 .BREAK         *17
 40000000 000000010000 .BRK           *17
 40000000 000000020000 .BTB           *17
 40000000 000000000001 .CAC           *17
 40000000 000000000000 .CAE           *17
 40000000 000000000200 .CANSSS        *17
 40000000 000000000400 .CD            *17
 40000000 000000040000 .CFLC          *17
 40000000 000000400000 .CHKSUM        *17
 40000000 000000100000 .CJRNL         *17
 40000000 000000000077 .CNSZ          *17
 40000000 000000160000 .COMC          *17
 40000000 000000000020 .CONT          *17
 40000000 000000000000 .CSE           *17
 40000000 000000700000 .CTYP          *17
 41000000 000000000270 .DBEST         *17
 41000000 000000000470 .DBIC          *17
 40000000 000000077777 .DBPT          *17
 41000000 000000000370 .DBSTK         *17
 40000000 000000020000 .DELM          *17
 40000000 000000002000 .DIDP          *17
 40000000 000000000077 .DNDX          *17
 40000000 000000600000 .DORD          *17
 40000000 000000000200 .DP            *17
 40000000 000000100000 .DPS           *17
 40000000 000000200000 .DPSA          *17
 40000000 000000400000 .DPST          *17
 40000000 000000000002 .DUMP          *17
 40000000 000000002000 .DUPC          *17
 40000000 000000010000 .DUPP          *17
 40000000 000000200000 .EBCL          *17
 12:47 09/05/97  FILE=ZIM$DBIT.:ZIC0TSI       SYMBOL TABLE                                               9    BMAP - B00
 40000000 000000400000 .EBCM          *17
 40000000 000000200000 .ENCRP         *17
 40000000 000000000077 .ENDX          *17
 40000000 000000000400 .ENQ           *17
 40000000 000000004000 .ETC           *17
 40000000 000000000400 .EXIT          *17
 40000000 000000000200 .FMOD          *17
 40000000 000000000077 .FNL           *17
 40000000 000000000074 .FORG          *17
 40000000 000000002000 .FR            *17
 40000000 000000000100 .FSR           *17
 40000000 000000003400 .FUSE          *17
 40000000 000000010000 .FVF           *17
 40000000 000000040000 .FVR           *17
 40000000 000000000010 .INDEXED       *17
 40000000 000000777777 .IXID          *17
 40000000 000000001777 .IXNUM         *17
 40000000 000000000004 .KEYED         *17
 40000000 000000010000 .LCK           *17
 40000000 000000400000 .LEIL          *17
 40000000 000000001000 .LG            *17
 40000000 000000000002 .LOAD          *17
 40000000 000000020000 .MAR           *17
 40000000 000000000007 .MEMT          *17
 40000000 000000010000 .MRL           *17
 41000000 000000040000 .MSM           *17        83
 60000000 000000000001 .N6685         *17
 40000000 000000100000 .NAI           *17
 40000000 000000200000 .NBI           *17
 40000000 000000000002 .NCIA          *17
 40000000 000000040000 .NMV           *17
 40000000 000000017777 .NOENT         *17
 40000000 000000400000 .OA            *17
 40000000 000000740000 .OPEV          *17
 41000000 000000100000 .OSM           *17        83
 40000000 000000100000 .PAFIL         *17
 40000000 000000200000 .PAHVR         *17
 12:47 09/05/97  FILE=ZIM$DBIT.:ZIC0TSI       SYMBOL TABLE                                               10   BMAP - B00
 40000000 000000000001 .PAIA          *17
 40000000 000000040000 .PALIL         *17
 40000000 000000020000 .PALVR         *17
 40000000 000000400000 .PANLL         *17
 40000000 000000400000 .PCKD          *17
 40000000 000000001600 .PMOD          *17
 40000000 000000000520 .PRCSE         *17
 40000000 000000000007 .PSTO          *17
 40000000 000000006040 .PTAS          *17
 40000000 000000010100 .PTCHK         *17
 40000000 000000010200 .PTDEC         *17
 40000000 000000010140 .PTENC         *17
 40000000 000000020000 .RA            *17
 40000000 000000100000 .RC            *17
 40000000 000000400000 .RELEASE       *17
 40000000 000000000017 .RELT          *17
 40000000 000000004000 .RERA          *17
 40000000 000000400000 .RERS          *17
 40000000 000000010000 .RKEY          *17
 40000000 000000000077 .RNL           *17
 40000000 000000200000 .RSTO          *17
 40000000 000000007777 .RTYP          *17
 40000000 000000040000 .SC            *17
 40000000 000000000070 .SETM          *17
 40000000 000000740000 .SETO          *17
 41000000 000000000700 .SETT          *17        72
 40000000 000000040000 .SFNP          *17
 40000000 000000004000 .SM            *17
 40000000 000000020000 .SMOD          *17
 40000000 000000000077 .SNL           *17
 41000000 000000020000 .SNSS          *17        69
 41000000 000000010000 .SO            *17        78
 40000000 000000100000 .SR            *17
 40000000 000000004000 .SRCR          *17
 40000000 000000001000 .SS            *17
 40000000 000000000007 .SSTP          *17
 40000000 000000004000 .SYN           *17
 12:47 09/05/97  FILE=ZIM$DBIT.:ZIC0TSI       SYMBOL TABLE                                               11   BMAP - B00
 40000000 000000000040 .SYNC          *17
 40000000 000000020000 .TJRNL         *17
 40000000 000000040000 .TMPLT         *17
 40000000 000000040000 .TRACE         *17
 40000000 000000000001 .TRENTRY       *17
 40000000 000000000012 .TRIDEL        *17
 40000000 000000000021 .TRIDELENQ     *17
 40000000 000000000024 .TRIDEQ        *17
 40000000 000000000013 .TRIMOD        *17
 40000000 000000000022 .TRIMODENQ     *17
 40000000 000000000014 .TRIREAD       *17
 40000000 000000000023 .TRIREADENQ    *17
 40000000 000000000011 .TRISTO        *17
 40000000 000000000020 .TRISTOENQ     *17
 40000000 000000000017 .TRPDEQ        *17
 40000000 000000000004 .TRPMOD        *17
 40000000 000000000016 .TRPMODENQ     *17
 40000000 000000000002 .TRPREAD       *17
 40000000 000000000015 .TRPREADENQ    *17
 40000000 000000000003 .TRPWRITE      *17
 40000000 000000000010 .TRRACC        *17
 40000000 000000000006 .TRRDEL        *17
 40000000 000000000007 .TRRMOD        *17
 40000000 000000000005 .TRRSTO        *17
 40000000 000000004000 .ULCK          *17
 40000000 000000400000 .UPDT          *17
 40000000 000000000040 .VIA           *17
 60000000 000000000001 A              *17
 40000000 000000000002 ABAS           *17
 40000000 000000000001 AC             *17
 40000000 777777777760 ACDEF          *17
 40000000 000000211070 ACDNL          *17
 40000000 000000000003 ACID           *17
 40000000 000000001016 ACOPN          *17
 40000000 000000000002 ACP            *17
 40000000 000000000005 ACPTR          *17
 40000000 000000000002 ACRAH          *17
 12:47 09/05/97  FILE=ZIM$DBIT.:ZIC0TSI       SYMBOL TABLE                                               12   BMAP - B00
 40000000 000000000001 ACRAN          *17
 40000000 000000001003 ACREC          *17
 40000000 000000000001 ACTDBCB        *17
 40000000 000000000002 ACTDBNO        *17
 40000000 000000001017 ACTP           *17
 40000000 000000000000 ACTSSS         *17
 40000000 000000000000 ACTSZ          *17
 40000000 000000210565 AFNP           *17
 40000000 000000000635 AFT            *17
 40000000 000000022124 AIR            *17
 40000000 000000000016 AMAX           *17
 40000000 000000000026 ANAM           *17
 40000000 000000021614 ANR            *17
 40000000 000000000001 APNO           *17
 40000000 000000210562 ARGER          *17
 41000000 000000000020 ARGS           *17        60
 40000000 000000000077 ARGS2          *17
 40000000 000000210713 ARNAF          *17
 40000000 000000000003 ATBL           *17
 40000000 000000000000 ATRIB          *17
 40000000 000000000002 AVLN           *17
 40000000 000000000013 AWS$           *17
 40000000 000000000010 AWSZ           *17
 60000000 000000000001 B              *17
 40000000 000000001006 B32N           *17
 40000000 000000001007 B36N           *17
 40000000 000000001056 B72N           *17
 40000000 000000000001 BADDR          *17
 40000000 000000210712 BADSEED        *17
 40000000 777777777765 BDCW           *17
 40000000 000000000633 BEF            *17
 40000000 000000020000 BEFW           *17
 40000000 000000000751 BEMT           *17
 40000000 777777777761 BID            *17
 40000000 777777777762 BIND           *17
 40000000 000000000007 BLKD           *17
 40000000 000000303331 BME02          *17
 12:47 09/05/97  FILE=ZIM$DBIT.:ZIC0TSI       SYMBOL TABLE                                               13   BMAP - B00
 41000000 000000001203 BMPB           *17
 40000000 000000000652 BN1            *17
 40000000 000000000654 BN2            *17
 40000000 000000000004 BPL            *17
 40000000 000000000015 BPLDBK         *17
 40000000 000000000034 BSPG           *17
 40000000 777777777763 BSTAT          *17
 40000000 000000000750 BTX0           *17
 41000000 000000001160 BUF4           *17
 41000000 000000001170 BUF6           *17
 41000000 000000000000 BUFORG         *17
 40000000 000000001060 BUFRQ          *17
 40000000 000000000006 BURRID         *17
 41000000 000000000020 BWASZ          *17
 60000000 000000000001 C              *17
 40000000 000000000050 CAAC           *17
 40000000 000000000050 CACD           *17
 40000000 000000000111 CAG            *17
 40000000 000000001033 CAL            *17
 40000000 000000000026 CALLPM0        *17
 40000000 000000000003 CANSSS         *17
 40000000 000000000003 CBCPA          *17
 40000000 000000000002 CBCPO          *17
 40000000 000000000002 CBENO          *17
 40000000 000000000014 CBFSZ          *17
 40000000 000000000753 CBIB           *17
 40000000 000000001030 CBID           *17
 40000000 000000000014 CBRCE          *17
 40000000 000000000014 CBRCP          *17
 40000000 000000001033 CBRID          *17
 40000000 000000000015 CBRPA          *17
 40000000 000000000031 CCHAR          *17
 40000000 000000000040 CDBK           *17
 40000000 000000000030 CDES           *17
 40000000 000000000110 CDP            *17
 40000000 000000001044 CDPSI          *17
 40000000 000000000002 CDRH           *17
 12:47 09/05/97  FILE=ZIM$DBIT.:ZIC0TSI       SYMBOL TABLE                                               14   BMAP - B00
 40000000 000000000003 CDRN           *17
 40000000 000000000002 CDSH           *17
 40000000 000000000003 CDSN           *17
 40000000 000000000722 CENTRN         *17
 40000000 000000000722 CENTRO         *17
 40000000 000000000716 CENTRY         *17
 41000000 000000001053 CFCT           *17
 40000000 000000000670 CFLPT1         *17
 40000000 000000000672 CFLPT2         *17
 40000000 000000000015 CFSA           *17
 40000000 000000000646 CHDBK          *17
 40000000 000000000773 CHR            *17
 40000000 000000000006 CHRD           *17
 40000000 000000000772 CHRO           *17
 40000000 000000007640 CHRTP          *17
 40000000 000000001043 CIAC           *17
 40000000 000000000012 CIAWS          *17
 40000000 000000001051 CIBSI          *17
 40000000 000000000516 CIND           *17
 40000000 000000001041 CINVSZ         *17
 40000000 000000001042 CIPG           *17
 40000000 000000001050 CIPSI          *17
 40000000 000000000000 CIRUN          *17
 40000000 000000000002 CIRWS          *17
 40000000 000000000002 CISWS          *17
 40000000 000000000014 CIWSOF         *17
 01101000 000000000053 CKO             79       *95
 40000000 000000303374 CKSM           *17
 40000000 000000000022 CLCN           *17
 40000000 000000000023 CLCP           *17
 40000000 000000000003 CLCRC          *17
 40000000 000000000003 CLCSC          *17
 40000000 000000000237 CLI            *17
 40000000 000000000026 CLNG           *17
 40000000 000000000052 CMPL           *17
 40000000 000000000002 CN             *17
 40000000 000000303315 CNE1           *17
 12:47 09/05/97  FILE=ZIM$DBIT.:ZIC0TSI       SYMBOL TABLE                                               15   BMAP - B00
 40000000 000000006034 CNUL           *17
 40000000 000000100000 COB74          *17
 40000000 000000000001 COFS           *17
 40000000 000000000045 CONCD          *17
 40000000 000000007764 CP6PGSZB       *17
 41000000 000000001775 CP6PGSZW       *17
 40000000 000000001000 CPGR           *17
 40000000 000000000723 CPTRN          *17
 40000000 000000000723 CPTRO          *17
 60000000 000000000004 CPW            *17
 40000000 000000000112 CRA            *17
 40000000 000000001004 CRD            *17
 40000000 000000000764 CREC           *17
 01101000 000000000065 CRER7           54      *116
 40000000 000000006344 CRIT           *17
 40000000 000000006200 CRNUL          *17
 40000000 000000007330 CRST           *17
 41000000 000000001223 CRUN           *17
 41000000 000000000000 CSECT          *17
 40000000 000000000007 CSMPP          *17
 40000000 000000001000 CSPAC          *17
 40000000 000000000004 CSPAH          *17
 40000000 777777777776 CSPES          *17
 40000000 777777777776 CSPSB          *17
 40000000 000000000115 CSTS           *17
 40000000 000000000071 CSUB           *17
 40000000 000000000017 CSZ            *17
 40000000 000000000057 CTMASK         *17
 40000000 000000000774 CTPAI          *17
 40000000 000000000240 CURLN          *17
 40000000 000000000236 CURLT          *17
 40000000 000000000770 CURPG          *17
 40000000 000000000001 CURR           *17
 40000000 000000000035 CURRS          *17
 40000000 000000000037 CURSS          *17
 40000000 000000001005 CWRT           *17
 40000000 000000000237 CWSOF          *17
 12:47 09/05/97  FILE=ZIM$DBIT.:ZIC0TSI       SYMBOL TABLE                                               16   BMAP - B00
 60000000 000000000001 D              *17
 40000000 000000000003 DBAN           *17
 40000000 000000000036 DBDR           *17
 40000000 000000000037 DBFN           *17
 40000000 000000000754 DBK            *17
 40000000 000000000777 DBKAC          *17
 40000000 000000000000 DBKEY          *17
 40000000 000000000000 DBKL           *17
 40000000 000000007474 DBKN           *17
 41000000 000000000776 DBKR           *17
 40000000 000000000777 DBKRQ          *17
 40000000 000000000234 DBKSI          *17
 40000000 000000000651 DBKSR          *17
 40000000 000000000047 DBKYN          *17
 40000000 000000210652 DBLC01         *17
 40000000 000000210653 DBLC05         *17
 40000000 000000303334 DBLC07         *17
 40000000 000000210655 DBLD01         *17
 40000000 000000000010 DBLIM          *17
 40000000 000000000033 DBPKY          *17
 40000000 000000000023 DBRN           *17
 40000000 000000000013 DBSN           *17
 40000000 000000000001 DBST           *17
 40000000 000000000757 DCDSR          *17
 40000000 000000210650 DCE1           *17
 40000000 000000001053 DCPR           *17
 40000000 000000001053 DCPW           *17
 40000000 000000000015 DCTBL          *17
 40000000 000000000032 DDBK           *17
 40000000 000000000006 DDCB           *17
 40000000 000000011754 DDI            *17
 41000000 000000000000 DEF            *17        68        77        82
 40000000 000000000014 DEF2           *17
 40000000 000000303413 DELAK          *17
 40000000 000000000036 DELRS          *17
 40000000 000000000732 DEPCW          *17
 40000000 000000303414 DLDBK          *17
 12:47 09/05/97  FILE=ZIM$DBIT.:ZIC0TSI       SYMBOL TABLE                                               17   BMAP - B00
 40000000 000000210627 DLE1           *17
 40000000 000000303310 DLE2           *17
 40000000 000000210631 DLE3           *17
 40000000 000000016040 DNES           *17
 40000000 777777777777 DPAGN          *17
 40000000 000000000020 DPPI           *17
 40000000 000000000053 DPSLW          *17
 40000000 000000000003 DS             *17
 40000000 000000001063 DSDES          *17
 40000000 000000303316 DSE1           *17
 40000000 000000000735 DUSEPA         *17
 60000000 000000000001 E              *17
 40000000 000000303251 EDPER          *17
 40000000 000000000026 EEIND          *17
 40000000 000000000713 EFIND          *17
 40000000 000000001030 ELO            *17
 40000000 000000210711 ENCPNA         *17
 40000000 000000000007 ENCRP          *17
 40000000 000000000752 ENDSR          *17
 40000000 000000210647 ENE1           *17
 40000000 000000000716 ENIND          *17
 40000000 000000000013 ENTBL          *17
 40000000 000000000710 ENTNO          *17
 40000000 000000000712 ENTPTR         *17
 40000000 000000000717 ENTSZ          *17
 40000000 000000000711 ENTTYP         *17
 40000000 000000004064 EOSR           *17
 40000000 000000000004 ES             *17
 41000000 000000000100 ESTSZ          *17
 40000000 000000000725 ESZ            *17
 40000000 000000000005 ETCADR         *17
 40000000 000000000005 ETCDBNO        *17
 40000000 000000000064 EXCCD          *17
 40000000 000000234534 FALRT          *17
 40000000 000000001055 FBF72          *17
 40000000 000000001025 FBU61          *17
 40000000 000000001020 FBUF           *17
 12:47 09/05/97  FILE=ZIM$DBIT.:ZIC0TSI       SYMBOL TABLE                                               18   BMAP - B00
 40000000 000000001026 FBUF1          *17
 40000000 000000001027 FBUF4          *17
 40000000 000000001024 FBUF6          *17
 40000000 000000001022 FBUFM          *17
 40000000 000000001021 FBUFU          *17
 40000000 000000001023 FBUMD          *17
 40000000 000000000004 FCN            *17
 40000000 000000000051 FCNT           *17
 40000000 000000000002 FCP            *17
 40000000 000000000047 FCSS           *17
 40000000 000000000005 FD             *17
 40000000 000000210637 FDE1           *17
 40000000 000000303320 FDE2           *17
 40000000 000000303321 FDE3           *17
 40000000 000000210642 FDE4           *17
 40000000 000000210643 FDE5           *17
 40000000 000000210644 FDE6           *17
 40000000 000000303325 FDE7           *17
 40000000 000000303326 FDE8           *17
 40000000 000000000021 FEASZ          *17
 40000000 000000000740 FETM           *17
 40000000 000000000006 FI             *17
 40000000 000000000103 FIAC           *17
 41000000 000000001100 FIB1           *17
 41000000 000000001130 FIBP           *17
 40000000 000000000000 FIBX           *17
 40000000 000000000102 FICNT          *17
 40000000 000000000005 FIPN           *17
 40000000 000000000054 FKIND          *17
 40000000 000000000015 FLAGS          *17
 40000000 000000000244 FLDDSC         *17
 40000000 000000000046 FLDTL          *17
 40000000 000000000020 FMSBF          *17
 40000000 000000000006 FNAM           *17
 40000000 000000000250 FNIND          *17
 40000000 000000000004 FNL            *17
 40000000 000000000101 FRAC           *17
 12:47 09/05/97  FILE=ZIM$DBIT.:ZIC0TSI       SYMBOL TABLE                                               19   BMAP - B00
 40000000 000000000002 FRANGE         *17
 40000000 000000211400 FRDNL          *17
 40000000 000000200000 FRTRN          *17
 40000000 000000000005 FRWSO          *17
 40000000 000000000767 FSLN           *17
 40000000 000000000766 FSOF           *17
 40000000 000000000060 FTIND          *17
 40000000 000000303240 FTLINCR        *17
 40000000 000000000021 FWSSZ          *17
 40000000 000000000246 GACDK          *17
 40000000 000000000014 GDCB           *17
 41000000 000000000006 GERROR         *17        54
 40000000 000000000016 GINHIB         *17
 40000000 000000000020 GIOAWS         *17
 40000000 000000000022 GIOBUF         *17
 40000000 000000000021 GIOPGNO        *17
 40000000 000000000015 GPAGE          *17
 40000000 000000000010 GRETAC         *17
 40000000 000000000011 GRETFR         *17
 40000000 000000000013 GRETRC         *17
 40000000 000000000012 GRETSC         *17
 40000000 000000000025 GRLCW          *17
 40000000 000000000014 GSTCD          *17
 40000000 000000000007 GSYSERR        *17
 40000000 000000000010 GT             *17
 40000000 000000000046 GTRNAME        *17
 40000000 000000000055 GTRPDCB        *17
 40000000 000000000056 GTRPNO         *17
 40000000 000000000057 GTRRDBK        *17
 40000000 000000000060 GTRRTYPE       *17
 40000000 000000000060 GTRTYPE        *17
 40000000 000000000027 HASH           *17
 40000000 000000000022 HIA            *17
 40000000 000000000775 HIDB           *17
 40000000 000000000003 HIGHDBK        *17
 40000000 000000000004 HIGHPG         *17
 40000000 000000001037 HIL            *17
 12:47 09/05/97  FILE=ZIM$DBIT.:ZIC0TSI       SYMBOL TABLE                                               20   BMAP - B00
 40000000 000000000002 HILN           *17
 40000000 000000000006 HPOS           *17
 40000000 000000000756 IAAC           *17
 40000000 000000001011 IACLN          *17
 40000000 000000001010 IALC           *17
 40000000 000000010314 IAN            *17
 40000000 000000001012 IANLN          *17
 40000000 000000000001 IASID          *15
 40000000 000000020320 ICA            *17
 40000000 000000000023 ICKSMP         *17
 40000000 000000000024 ICKSMV         *17
 40000000 000000210742 ICNR           *17
 41000000 000000000020 ICSIZ          *17
 40000000 000000010004 IDBK           *17
 40000000 000000012120 IDI            *17
 40000000 000000000023 IDS            *17
 40000000 000000000011 IF             *17
 40000000 000000000021 IFIPN          *17
 41000000 000000000000 IFR            *17        52       100
 40000000 000000234546 IKSEQ          *17
 40000000 000000000113 INAFLAG        *17
 40000000 000000000016 INCHA          *17
 40000000 000000210566 INNM           *17
 40000000 000000210567 INSS           *17
 40000000 000000210575 INSST          *17
 40000000 000000303241 INTER          *17
 40000000 000000400000 INTII          *17
 40000000 000000000013 INTVL          *17
 40000000 000000001060 INVFLG         *17
 40000000 000000001043 INVOF          *17
 40000000 000000000014 INVT           *17
 40000000 000000000034 IOBLK          *17
 40000000 000000303354 IOCLSD         *17
 40000000 000000303355 IOCLSK         *17
 40000000 000000303257 IOE1           *17
 40000000 000000303264 IOE11          *17
 40000000 000000303265 IOE12          *17
 12:47 09/05/97  FILE=ZIM$DBIT.:ZIC0TSI       SYMBOL TABLE                                               21   BMAP - B00
 40000000 000000303266 IOE18          *17
 40000000 000000303260 IOE2           *17
 40000000 000000303261 IOE3           *17
 40000000 000000303262 IOE7           *17
 40000000 000000303263 IOE8           *17
 40000000 000000303363 IOFLSH         *17
 40000000 000000210676 IOGDCB         *17
 40000000 000000001002 IOINC          *17
 40000000 000000305160 IOINI          *17
 40000000 000000305155 IONOTIDS       *17
 40000000 000000305154 IONOTKEY       *17
 40000000 000000210677 IOOPND         *17
 40000000 000000210700 IOOPNK         *17
 40000000 000000303361 IORDD          *17
 40000000 000000305156 IOSCHEMA       *17
 40000000 000000001052 IOSTS          *17
 40000000 000000303362 IOWRTD         *17
 41000000 000000000750 IOWS           *17
 40000000 000000000647 IPC            *17
 40000000 000000000650 IPCF           *17
 40000000 000000000006 IROLLFLAG      *17
 40000000 000000010150 IRSN           *17
 40000000 000000000004 ISYSDCB        *17
 40000000 000000000005 ISYSERR        *17
 01101000 000000000013 ITL1           *59        70        74        76        81        92        97
 41000000 000000000061 ITPTR          *17        90        91
 01101000 000000000066 ITR1           112       117      *121
 41000000 000000000060 ITRS           *17        58        63        66
 40000000 000000021760 IUM            *17
 40000000 000000000017 IUSZ           *17
 40000000 000000234522 IVDBK          *17
 40000000 000000000011 IXBUF$         *17
 40000000 000000000046 IXFBSZ         *17
 40000000 777777777776 IXID           *17
 40000000 777777777777 IXPLL          *17
 40000000 000000000523 KCARG0         *17
 40000000 000000000524 KCARG3         *17
 12:47 09/05/97  FILE=ZIM$DBIT.:ZIC0TSI       SYMBOL TABLE                                               22   BMAP - B00
 40000000 000000000525 KCARG4         *17
 40000000 000000000700 KCREG          *17
 40000000 000000000006 KDCB           *17
 40000000 000000000666 KEYDS          *17
 40000000 000000000010 KEYPA          *17
 40000000 777777777776 KLNG           *17
 40000000 000000000022 KPASZ          *17
 40000000 000000000006 KWSZ           *17
 40000000 000000000052 LANGC          *17
 40000000 000000001014 LAS            *17
 40000000 000000700000 LCODM          *17
 40000000 000000001045 LDPSI          *17
 40000000 000000001071 LINPT          *17
 40000000 000000001017 LNCNT          *17
 40000000 000000000762 LNNO           *17
 40000000 000000001036 LOL            *17
 40000000 000000000715 LOLIM          *17
 40000000 000000000023 LPASZ          *17
 40000000 000000000012 LPP            *17
 40000000 000000257764 LR             *17
 40000000 000000301270 LRA            *17
 40000000 000000000017 LRSZ           *17
 40000000 000000001035 LSPC           *17
 40000000 000000000750 LUPD           *17
 61000000 000000000001 M9             *17
 40000000 000000000013 MD             *17
 40000000 000000300000 MDQS           *17
 40000000 000000000730 MEMPTR         *17
 40000000 000000000727 MEMTYP         *17
 40000000 000000000045 MODCD          *17
 41000000 000000001207 MODFL          *17
 40000000 000000000042 MODFR          *17
 40000000 000000000044 MODIN          *17
 40000000 000000000044 MODRS          *17
 40000000 000000000043 MODSC          *17
 40000000 000000000047 MRBKI          *17
 40000000 000000210632 MRE4           *17
 12:47 09/05/97  FILE=ZIM$DBIT.:ZIC0TSI       SYMBOL TABLE                                               23   BMAP - B00
 40000000 000000303313 MRE5           *17
 40000000 000000210634 MRE7           *17
 40000000 000000400000 MW             *17
 40000000 000000000025 NCH            *17
 40000000 000000000002 NCHA           *17
 40000000 000000000005 NCHRS          *17
 40000000 000000000014 NDCD           *17
 40000000 000000000012 NENC           *17
 40000000 000000000634 NEW            *17
 40000000 000000001072 NEWSIZ         *17
 40000000 000000235164 NKA            *17
 40000000 000000235020 NKDB           *17
 40000000 000000303415 NLDBK          *17
 40000000 777777777777 NLIND          *17
 40000000 000000001040 NLN            *17
 40000000 000000400000 NLNSA          *17
 41000000 000000001053 NOBF           *17
 40000000 000000000711 NOPTRS         *17
 40000000 000000000742 NPARCW         *17
 40000000 000000000630 NPIND          *17
 41000000 000000000004 NPOS           *17        89
 40000000 000000234510 NSA            *17
 40000000 000000234654 NSCS           *17
 40000000 000000234344 NSDB           *17
 40000000 000000000001 NSTS           *17
 40000000 000000000726 NUMENT         *17
 40000000 000000000727 NUMPTR         *17
 40000000 777777777760 NXBUF          *17
 40000000 000000000713 NXPRI          *17
 40000000 000000000771 NXTC           *17
 40000000 000000000001 OAACN          *17
 40000000 000000000022 OACIWSOF       *17
 40000000 000000000001 OAOFST         *17
 40000000 000000000002 OARCN          *17
 40000000 000000000001 OASCN          *17
 40000000 000000000014 OD             *17
 40000000 000000000074 ODBK           *17
 12:47 09/05/97  FILE=ZIM$DBIT.:ZIC0TSI       SYMBOL TABLE                                               24   BMAP - B00
 40000000 000000001072 OLDSIZ         *17
 40000000 000000000101 OPADP          *17
 40000000 000000000741 OPARCW         *17
 40000000 000000210570 ORDNI          *17
 40000000 777777777777 OTVL           *17
 40000000 000000000252 OWNPTR         *17
 40000000 000000000016 PABUF          *17
 40000000 000000001041 PACD           *17
 40000000 000000000001 PACW           *17
 40000000 000000000733 PADBK          *17
 40000000 000000000740 PADUP          *17
 40000000 000000000745 PAEN           *17
 40000000 000000000745 PAEO           *17
 40000000 000000000734 PAEOF          *17
 40000000 000000303336 PAER1          *17
 40000000 000000303337 PAER2          *17
 40000000 000000303340 PAER3          *17
 40000000 000000303341 PAER4          *17
 40000000 000000303342 PAER5          *17
 40000000 000000303343 PAER6          *17
 40000000 000000000747 PAESZ          *17
 40000000 000000001060 PAFLG          *17
 40000000 000000000731 PAOPTR         *17
 40000000 000000000734 PAPOF          *17
 40000000 000000000714 PARCW          *17
 40000000 000000000726 PARVPA         *17
 40000000 000000000724 PASPLT         *17
 40000000 000000000004 PAWSZ          *17
 40000000 777777777762 PBUF           *17
 40000000 000000000020 PC             *17
 41000000 000000000510 PCB            *17
 40000000 000000000642 PCD            *17
 40000000 000000000642 PCD2           *17
 40000000 000000000247 PCEXI          *17
 40000000 000000000675 PCMIN          *17
 40000000 000000004541 PCOMP          *17
 40000000 000000000010 PD             *17
 12:47 09/05/97  FILE=ZIM$DBIT.:ZIC0TSI       SYMBOL TABLE                                               25   BMAP - B00
 40000000 000000000040 PE             *17
 40000000 000000000017 PENDING        *17
 40000000 000000000004 PF             *17
 40000000 000000000400 PFG            *17
 40000000 000000000200 PFM            *17
 40000000 000000000100 PFS            *17
 40000000 000000000400 PG             *17
 40000000 000000001064 PGHD           *17
 40000000 000000000006 PGLIM          *17
 40000000 000000000003 PGRNG          *17
 40000000 000000000746 PGSIZE         *17
 40000000 000000000641 PGSPLT         *17
 40000000 000000000100 PKAW           *17
 40000000 000000001034 PLO            *17
 40000000 000000000004 PLSEP          *17
 40000000 000000000200 PM             *17
 40000000 000000001054 PNEOO          *17
 40000000 000000001047 POFSI          *17
 40000000 000000000005 PPOS           *17
 41000000 000000000000 PR0            *15        61        62
 41000000 000000000001 PR1            *15        51        52        99       100
 40000000 000000000002 PR2            *15
 41000000 000000000003 PR3            *15        87
 40000000 000000000004 PR4            *15
 41000000 000000000005 PR5            *15        54
 41000000 000000000006 PR6            *15        64        67        68        77        82        89
 41000000 000000000007 PR7            *15        56        57        58        60        63        66
                                       86        87        90        91       103       104       105
 40000000 000000303267 PRE1           *17
 40000000 000000303277 PRE10          *17
 40000000 000000303270 PRE3           *17
 40000000 000000303271 PRE4           *17
 40000000 000000303272 PRE5           *17
 40000000 000000210613 PRE6           *17
 40000000 000000210614 PRE7           *17
 40000000 000000210615 PRE8           *17
 40000000 000000303276 PRE9           *17
 12:47 09/05/97  FILE=ZIM$DBIT.:ZIC0TSI       SYMBOL TABLE                                               26   BMAP - B00
 40000000 000000000522 PREXC          *17
 40000000 000000000521 PRFR           *17
 40000000 000000000521 PRFR2          *17
 40000000 000000000000 PRIV           *17
 40000000 000000000526 PROPA          *17
 40000000 000000000517 PRRC           *17
 40000000 000000000517 PRRS           *17
 40000000 000000000520 PRSC           *17
 40000000 000000000516 PRSS           *17
 40000000 000000000644 PRSTS          *17
 40000000 000000000100 PS             *17
 41000000 000000000000 PS0SID         *15
 41000000 000000000001 PS1SID         *15
 41000000 000000000002 PS2SID         *15
 41000000 000000000003 PS3SID         *15
 41000000 000000000004 PS4SID         *15
 40000000 000000000005 PS5SID         *15
 40000000 000000000006 PS6SID         *15
 40000000 000000303416 PSA            *17
 40000000 000000000020 PSC            *17
 40000000 000000000010 PSD            *17
 40000000 000000000004 PSF            *17
 40000000 000000000400 PSO            *17
 40000000 000000000720 PTESZ          *17
 40000000 000000000631 PTR            *17
 40000000 000000000724 PTRESZ         *17
 40000000 000000000710 PTRNO          *17
 41000000 000000000630 PWS            *17
 41000000 000000000002 RADDR          *17        87
 40000000 000000000010 RADIX          *17
 40000000 000000000005 RAPTR          *17
 40000000 000000000004 RAWSOF         *17
 40000000 777777777766 RBA            *17
 40000000 000000023432 RCBI           *17
 40000000 000000211234 RCDNL          *17
 40000000 000000000005 RCFRH          *17
 40000000 000000000004 RCFRN          *17
 12:47 09/05/97  FILE=ZIM$DBIT.:ZIC0TSI       SYMBOL TABLE                                               27   BMAP - B00
 40000000 000000001075 RCHD           *17
 40000000 000000000001 RCID           *17
 41000000 000000000006 RCPTR          *17        57
 40000000 000000000002 RCRAH          *17
 40000000 000000000001 RCRAN          *17
 40000000 000000000003 RCRSH          *17
 41000000 000000000002 RCRSN          *17        64
 40000000 000000210667 RCVER1         *17
 40000000 000000210670 RCVER2         *17
 40000000 000000210671 RCVER4         *17
 40000000 000000210672 RCVER5         *17
 40000000 000000210673 RCVER6         *17
 40000000 000000000736 RCW1           *17
 40000000 000000000737 RCW2           *17
 40000000 000000000004 RCWSO          *17
 40000000 000000000077 RDAC           *17
 40000000 000000000076 RDCNT          *17
 40000000 000000040000 RDI            *17
 40000000 000000015674 RDLT           *17
 40000000 000000000075 RDYCW          *17
 40000000 000000000066 RECAC          *17
 40000000 000000000065 RECFR          *17
 40000000 000000000070 RECRC          *17
 40000000 000000000067 RECSC          *17
 40000000 000000000003 RECSZ          *17
 40000000 000000000235 REMLT          *17
 40000000 000000000062 REM_RECOVER    *17
 40000000 000000000251 RETFR          *17
 40000000 000000210724 RFDNL          *17
 40000000 000000017644 RIM            *17
 40000000 000000000005 RNAM           *17
 40000000 000000015706 RNDLT          *17
 40000000 000000000662 RNG1           *17
 40000000 000000000664 RNG2           *17
 40000000 000000000073 RNGD           *17
 40000000 000000000072 RNGO           *17
 40000000 000000000660 RNGTAL         *17
 12:47 09/05/97  FILE=ZIM$DBIT.:ZIC0TSI       SYMBOL TABLE                                               28   BMAP - B00
 40000000 000000020154 RNM            *17
 40000000 000000000041 ROCUR          *17
 40000000 000000000001 ROFST          *17
 40000000 000000002114 ROLL           *17
 40000000 000000020010 RPM            *17
 40000000 000000000001 RSCDH          *17
 40000000 000000000001 RSCDN          *17
 01101000 000000000060 RSDN            65      *101
 40000000 000000211710 RSDNL          *17
 40000000 000000004540 RSEE           *17
 40000000 000000000003 RSIZ           *17
 40000000 000000000110 RSPAM          *17
 40000000 000000000004 RSPTR          *17
 40000000 000000000037 RSREQ          *17
 40000000 000000000002 RSSSH          *17
 40000000 000000000001 RSSSN          *17
 40000000 000000210574 RSZER          *17
 40000000 000000000632 RSZTP          *17
 40000000 000000000003 RTP            *17
 40000000 000000000003 RTYP           *17
 40000000 000000000530 RV1            *17
 40000000 000000000550 RV2            *17
 40000000 000000000570 RV3            *17
 40000000 000000000610 RV4            *17
 40000000 000000000003 RVASID         *15
 41000000 000000000510 RVI            *17        56        86       103       105
 41000000 000000000511 RVO            *17       104
 40000000 000000000513 RVPA           *17
 40000000 000000000512 RVT            *17
 40000000 000000000022 RVTAL          *17
 40000000 000000000002 RWSZ           *17
 40000000 000000000015 RY             *17
 40000000 000000210620 RYE1           *17
 40000000 000000210621 RYE4           *17
 40000000 777777777767 SA             *17
 40000000 000000000005 SANAM          *17
 40000000 000000001062 SCDES          *17
 12:47 09/05/97  FILE=ZIM$DBIT.:ZIC0TSI       SYMBOL TABLE                                               29   BMAP - B00
 40000000 000000211544 SCDNL          *17
 40000000 000000000024 SCFC           *17
 40000000 000000000002 SCID           *17
 40000000 000000000024 SCLST          *17
 40000000 000000000004 SCNAM          *17
 40000000 000000000004 SCPTR          *17
 41000000 000000000003 SCRSH          *17        67
 40000000 000000000002 SCRSN          *17
 40000000 000000000001 SCWSO          *17
 01101000 000000000052 SETT            84       *93
 40000000 000000001225 SFWS           *17
 40000000 000000001073 SIZCHG         *17
 40000000 000000000645 SKFLG          *17
 40000000 000000000643 SKIND          *17
 40000000 000000000641 SKTYP          *17
 40000000 000000020464 SMCR           *17
 40000000 000000000003 SNAM           *17
 40000000 000000000107 SNIND          *17
 40000000 000000000735 SNPAE          *17
 40000000 000000001046 SNSI           *17
 40000000 000000000743 SOE            *17
 40000000 000000020630 SORSA          *17
 40000000 000000004374 SOSE           *17
 40000000 000000000000 SPAV           *17
 40000000 000000000744 SPCAVN         *17
 40000000 000000000744 SPCAVO         *17
 40000000 000000000765 SPLF           *17
 41000000 000000000765 SPND           *17
 40000000 000000000006 SSDT           *17
 40000000 000000303243 SSER           *17
 40000000 000000303244 SSER1          *17
 40000000 000000000002 SSH            *17
 40000000 000000000005 SSNAM          *17
 40000000 000000210573 SSNF           *17
 40000000 000000210576 SSNV           *17
 40000000 000000000020 SSSPTR         *17
 40000000 000000000010 SSVDT          *17
 12:47 09/05/97  FILE=ZIM$DBIT.:ZIC0TSI       SYMBOL TABLE                                               30   BMAP - B00
 40000000 000000000033 SSZTP          *17
 40000000 000000000017 ST             *17
 40000000 000000000104 STBIN          *17
 40000000 000000000105 STDEC          *17
 40000000 000000303302 STE1           *17
 40000000 000000303303 STE2           *17
 40000000 000000210624 STE3           *17
 40000000 000000303305 STE4           *17
 40000000 000000303306 STE5           *17
 00101000 000000000064 STER1         *111
 41000000 000000000100 STKSIZ         *17
 40000000 000000000055 STMASK         *17
 01101000 000000000055 STR             94       *98
 40000000 000000000062 SUST           *17
 41000000 000000000020 SWS            *17
 40000000 000000000000 SWSAC          *17
 40000000 000000000002 SWSZ           *17
 40000000 000000000000 SYSSF          *17
 40000000 000000000765 SZREQ          *17
 40000000 000000000004 TBUF           *17
 40000000 000000001061 TCTRS          *17
 60000000 000000000000 TDS            *17
 41000000 000000000113 TEMP           *17
 40000000 000000000640 TFLD           *17
 40000000 000000000657 TFLD2          *17
 40000000 000000000056 TMASK          *17
 40000000 000000000061 TMODE          *17
 40000000 000000000676 TMPPA          *17
 40000000 000000000003 TPAI           *17
 40000000 000000500000 TPRCOD         *17
 40000000 000000001031 TSFN           *17
 40000000 000000000021 TSI            *17
 40000000 000000001013 UBRD2          *17
 41000000 000000001223 UBSZ           *17
 40000000 000000000667 UCADR          *17
 40000000 000000000036 UCRS           *17
 40000000 000000000024 UFSPK          *17
 12:47 09/05/97  FILE=ZIM$DBIT.:ZIC0TSI       SYMBOL TABLE                                               31   BMAP - B00
 40000000 000000000024 UFSPK2         *17
 40000000 000000000715 ULIM           *17
 40000000 000000004230 UNA            *17
 40000000 000000303417 UNIM           *17
 40000000 000000000002 UOFST          *17
 40000000 000000001035 UPACD          *17
 40000000 000000000721 UPACW          *17
 40000000 000000000007 UPFLAG         *17
 40000000 000000000103 UPPAI          *17
 40000000 000000000004 UPTSID         *15
 40000000 000000000674 USTAT          *17
 41000000 000000000002 UWASID         *15        51        99
 40000000 000000000002 UWSSZ          *17
 40000000 000000000020 UWSZ           *17
 40000000 000000000243 VFDSC          *17
 40000000 000000001070 VFDSR          *17
 40000000 000000000656 VFLD           *17
 40000000 000000001074 VFLNG          *17
 40000000 000000001124 VIB1           *17
 40000000 000000001154 VIBP           *17
 41000000 000000000000 VLPSID         *15        61
 40000000 000000001074 VRSIZ          *17
 40000000 000000001067 WLOA           *17
 40000000 000000100000 WRTI           *17
 40000000 000000000000 WSBID          *17
 40000000 000000000003 WSOF           *17
 40000000 000000000000 X0             *15
 41000000 000000000001 X1             *15        54        60        68        69        72        73
                                       75        77        78        82        83        98       100
 40000000 000000000002 X2             *15
 41000000 000000000003 X3             *15        56        86
 40000000 000000000004 X4             *15
 41000000 000000000005 X5             *15        63        64        66
 41000000 000000000006 X6             *15        67
 03201002 000000000000 X66_ARET       *15       107
 03201001 000000000000 X66_AUTO_0     *15        49
 41000000 000000000007 X7             *15        57        58
 12:47 09/05/97  FILE=ZIM$DBIT.:ZIC0TSI       SYMBOL TABLE                                               32   BMAP - B00
 40000000 000000210665 XASL           *17
 40000000 000000303420 XLD            *17
 40000000 000000303421 XPD            *17
 40000000 000000000676 XPRS           *17
 40000000 000000210666 XROLL          *17
 40000000 000000210664 XUNEX          *17
 40000000 777777777777 XXDPN          *17
 03201003 000000000000 ZIB$DBALT     *121
 12101000 000000000000 ZIG$DBIFT       11       *48
 03201000 000000000000 ZIG$DBPCR      *13        54

     933 SYMBOLS

 12:47 09/05/97  FILE=ZIM$DBIT.:ZIC0TSI       MACRO TABLE                                                33   BMAP - B00
 CBSYM           17
 DBALT          121
 DBCAL           54
 DBRET          107
 DBSAV           49
 Q2SYM           17
 SSSYM           17

      37 MACROS

    SYMBOL SPACE USED  8771 WORDS
     MACRO SPACE USED 13043 WORDS
   INPUT RECORDS READ  2046
 STATEMENTS PROCESSED  1974
         ELAPSED TIME  0:09.44
             CPU TIME     9.04 SEC.
        ASSEMBLY RATE 13102 STATEMENTS/CPU MIN.

      NO ERRORS

