
 12:48 09/05/97  FILE=ZIM$DBIV.:ZIC0TSI                                                                  1    BMAP - B00
                                         1  *M*      ZIG$DBIV
                                         2  *T***********************************************************
                                         3  *T*                                                         *
                                         4  *T* Copyright (c) Bull HN Information Systems Inc., 1997    *
                                         5  *T*                                                         *
                                         6  *T***********************************************************

 12:48 09/05/97  FILE=ZIM$DBIV.:ZIC0TSI       H6600H2.541     IDS/II INVENTORY ROUTINES      771213DBIV  2    BMAP - B00
                                         7         TTL     H6600H2.541     IDS/II INVENTORY ROUTINES      771213DBIV
                                         8         CPR     1974
                                         9         PMC     OFF
                                        10         ENTDEF  ZIQ$DBIUL
                                        11         ENTDEF  ZIQ$DBIUI
                                        12         ENTDEF  ZIQ$DBISI
                                        13         ENTREF  ZIQ$DBIOR,ZIQ$DBIOM
                                        14         ENTREF  ZIQ$DBIOG
                                        15         LODM    Q2MA
                                        16         Q2SYM

 12:48 09/05/97  FILE=ZIM$DBIV.:ZIC0TSI       UPDATE          INVENTORY                                  3    BMAP - B00
                                        17         TTLS    UPDATE          INVENTORY
                                        18  *
                                        19  *  UPDATE INVENTORY
                                        20  *
                                        21  *  INPUT : PR4 = ADDR OF BUFFER
                                        22  *          X0  = AC PTR
                                        23  *
                                        24  *  ANY BUFFERS BEING USED MUST BE LOCKED SINCE THIS ROUTINE WILL READ
                                        25  *      INVENTORY PAGES WHICH MAY OVERLAY OTHER PAGES IN THE BUFFERS
                                        26  *
 0 000000                               27  ZIQ$DBIUL  NULL
   000000    7 00470 7411 56            28        ICSAV
   000001    000000 6360 00             29        EAQ     0                   ENTER HERE - WHEN SPACE AVAIL = 0
   000002 (0)000005 7100 00             30        TRA     QCOM                OR WHEN NO DBK IS AVAILABLE
   000003                               31  ZIQ$DBIUI NULL
   000003    7 00470 7411 56            32         ICSAV
   000004    4 00000 2361 00            33        LDQ     SPAV,,PR4           GET SPACE AVAIL IN PAGE
   000005                               34  QCOM  NULL
   000005    7 01043 7401 00            35         STX     X0,CIAC,,PR7    SAVE AC
                                        36  *  COMPUTE VALUE TO PUT IN INVENTORY (MAX = 511 INVENT. UNITS)
   000006    777777 3760 07             37         ANQ     -1,DL           ISOLATE IN QL
   000007    6 00017 0361 10            38           ADLQ  IUSZ,X0,PR6       For rounding
   000010    000001 1360 07             39           SBLQ  1,DL                 up units available
   000011    6 00017 5061 10            40         DIV     IUSZ,X0,PR6     DIV BY CHARS/ INVEN. UNIT
   000012    777000 3160 07             41         CANQ    =O777000,DL     IS NO. OF INV. UNITS .GT. 511
   000013    000002 6000 04             42         TZE     2,IC            NO
   000014    000777 2360 07             43         LDQ     =O777,DL        YES - MAKE IT 511
   000015    7 01041 7521 07            44         STCQ    CINVSZ,07,PR7   SAVE FOR MOVE
                                        45  *
                                        46  *  THE CHECK TO SEE IF ANY LINES ARE AVAILABLE WAS REMOVED.
                                        47  *  SINCE THE DBCS CAN NO LONGER ACCESS ITEMS IN THE BWA,
                                        48  *  THE CHECK IS NO LONGER A QUICK CHECK.
                                        49  *  WOULD NEED TO CHECK IF LINE 0 IS THE FIRST AVAIL LINE,
                                        50  *  IF LINE 0 IS USED, AND IF THE HIGH LINE ON THE PAGE IS
                                        51  *  THE MAX LINE FOR THE PAGE.  IF ALL THESE CONDITIONS ARE MET,
                                        52  *  ZERO SPACE AVAILABLE SHOULD BE PUT IN THE INVENTORY
                                        53  *  VALUE.
 12:48 09/05/97  FILE=ZIM$DBIV.:ZIC0TSI       UPDATE          INVENTORY                                  4    BMAP - B00
                                        54  *
                                        55  *  GET THE INVENTORY PAGE
   000016    4 00001 2361 00            56         LDQ     APNO,,PR4       GET DATA PAGE NO.
   000017    000001 1360 07             57         SBLQ    1,DL            MAKE IT ZERO RELATIVE
   000020    6 00020 5061 10            58         DIV     DPPI,X0,PR6     DIV BY DATA PGS PER INV. PG
   000021    000014 0350 07             59         ADLA    3*CPW,DL        ADD CHARS IN INV. PG HDR
   000022    7 01043 5511 14            60         STBA    INVOF,14,PR7    SAVE OFST IN INV PAGE
   000023    6 00003 2271 10            61           LDX      X7,WSOF,X0,PR6       Get work space offsetA
   000024    7 00005 0361 17            62           ADLQ     FIPN,X7,PR7          Add first inventory page.
   000025    7 01042 7561 00            63         STQ     CIPG,,PR7       SAVE
   000026    7 01042 2351 00            64         LDA     CIPG,,PR7       AR = PAGE NO. OF INV. PG
   000027  X 000000 7010 00             65           ICCAL ZIQ$DBIOR,GTPG,PGER1 GET PAGE
   000030 (0)000056 7020 00
   000031    5 00006 2341 00
   000032    000003 6000 04
   000033    5 00006 4501 00
   000034 (0)000040 7020 00
   000035    7 01042 2351 00            66         LDA     CIPG,,PR7       GET PAGE NO. REQ.
   000036    4 00001 1151 00            67         CMPA    APNO,,PR4       IS IT ONE READ
   000037    000013 6010 04             68         TNZ     PRNR,$          NO - ERROR
                                        69  *  GOT PAGE - UPDATE INVENTORY
                                        70  *  X0 AND X3 SET UP ALREADY
   000040                               71  GTPG   NULL
   000040  X 000000 7010 00             72        ICCAL   ZIQ$DBIOM,NOEXC,SMWE1  NO EXC RETURN POSSIBLE
   000041 (0)000056 7020 00
   000042    7 01043 7211 00            73         LXL     X1,INVOF,,PR7   GET OFST W/I INV. PAGE
   000043    007764 1010 03             74           CMPX    X1,4*CP6PGSZW,DU  IS IT W/I ACTIVE PAGE SIZE
   000044    000010 6030 04             75         TRC     IVOER,$         NO - ERROR
   000045    000 0 111 1005 00          76         MLR     (1),(1,,,1)         * MOVE
   000046    7 01041 6 0 0 0001         77         ADSC9   CINVSZ,3,1,PR7  *  CURR NO. INV. UNITS TO
   000047    4 00000 0 0 0 0001         78         ADSC9   0,0,1,PR4       *   INVENT. PG
                                        79  *  DONE - RETURN
   000050    7 00470 2211 54            80         ICRET
   000051    000001 7100 11
                                        81  *
                                        82  *  ERRORS DETECTED IN THIS ROUTINE
                                        83  *
 12:48 09/05/97  FILE=ZIM$DBIV.:ZIC0TSI       UPDATE          INVENTORY                                  5    BMAP - B00
   000052                               84  PRNR   NULL                    PAGE READ NOT PAGE REQUESTED
   000052    303257 2350 07             85         LDA     IOE1,DL
   000053    000004 7100 04             86         TRA     UIR1,$
   000054                               87  IVOER  NULL                    INV OFFSET .GT. PAGE SIZE
   000054    303265 2350 07             88         LDA     IOE12,DL
   000055    000002 7100 04             89         TRA     UIR1,$
                                        90  *
                                        91  *  ERRORS DETECTED IN SUBORDINATE ROUTINES
                                        92  *
   000056                               93  PGER1  NULL                    PAGE ERROR - READ PAGE
   000056                               94  SMWE1  NULL                    ERROR IN PAGE MODIFY
   000056    000001 7100 04             95         TRA     UIR1,$
                                        96  *  COMMON ERROR RETURN
   000057                               97  UIR1   NULL
   000057    5 00021 2361 00            98           LDQ      GIOPGNO,,PR5
   000060    5 00015 7561 00            99           STQ      GPAGE,,PR5           Save page no of error
   000061  X 000000 7020 00            100           ICALT

 12:48 09/05/97  FILE=ZIM$DBIV.:ZIC0TSI       SEARCH INVENTORY FOR SPACE                                 6    BMAP - B00
                                       101         TTLS    SEARCH INVENTORY FOR SPACE
                                       102  *
                                       103  *  SEARCH INVENTORY FOR SPACE
                                       104  *
                                       105  *  INPUT :     QR - DBK FOR 1ST PAGE TO LOOK ON
                                       106  *              AR - DBK FOR LAST PAGE TO LOOK ON(AR .GE.. QR)
                                       107  *              X0 - AC PTR
                                       108  *              X4 - NO. CHARS. NEEDED
                                       109  *
                                       110  *  OUTPUT:     QR = DBK FOR PAGE SPACE WAS FOUND ON (PAGE NOT ACCESSED)
                                       111  *
                                       112  *  EXCEPTION RETURN-
                                       113  *    NO SPACE OR NO LINE NOS.  -  AR = STATUS
                                       114  *
   000062                              115  ZIQ$DBISI NULL
   000062    7 00470 7411 56           116         ICSAV
   000063    7 01046 7441 00           117         STX     X4,SNSI,,PR7    SAVE SPACE NEEDED
   000064    6 00004 7211 10           118         LXL     X1,BPL,X0,PR6
   000065    6 00010 1351 10           119         SBLA    DBLIM,X0,PR6    SUB LO DBK OF AREA
   000066    000000 7710 11            120         ARL     ,X1             REMOVE LINE NO.
   000067    000001 0350 07            121         ADLA    1,DL            MAKE PAGE NO. REL. TO ONE
   000070    7 01045 7551 00           122         STA     LDPSI,,PR7      SAVE LAST PAGE NO.
   000071    6 00010 1361 10           123         SBLQ    DBLIM,X0,PR6    SUB LO DBK OF AREA
   000072    000000 7720 11            124         QRL     ,X1             REMOVE LINE NO.
   000073    000001 0360 07            125         ADLQ    1,DL            MAKE PAGE NO. REL. TO ONE
   000074    7 01044 7561 00           126         STQ     CDPSI,,PR7      SAVE FIRST PAGE NO. AS CURR
   000075    000001 3350 07            127         LCA     1,DL
   000076    7 01050 7551 00           128         STA     CIPSI,,PR7      SET CURR INV. PG NO. SO 1ST WILL BE RETR.
   000077                              129  SIL1   NULL
   000077    7 01044 2361 00           130         LDQ     CDPSI,,PR7      GET CURR DATA PAGE NO.
   000100    000001 1360 07            131         SBLQ    1,DL            MAKE IT ZERO RELATIVE
   000101    6 00020 5061 10           132         DIV     DPPI,X0,PR6     DIV BY DATA PGS/INV. PG = REL. INV PG NO.
   000102    000014 0350 07            133         ADLA    3*CPW,DL        ADD CHARS IN INV. PG HDR
   000103    7 01047 7551 00           134         STA     POFSI,,PR7      SAVE OFST W/I INV. PAGE
   000104    6 00003 2271 10           135           LDX      X7,WSOF,X0,PR6       Get work space offset
   000105    7 00005 0361 17           136           ADLQ     FIPN,X7,PR7          Add first inventory page.
   000106    000044 7370 00            137         LLS     36              AR = INV. PG NO.
 12:48 09/05/97  FILE=ZIM$DBIV.:ZIC0TSI       SEARCH INVENTORY FOR SPACE                                 7    BMAP - B00
   000107    7 01050 1151 00           138         CMPA    CIPSI,,PR7      IS IT THE CURR
   000110    000010 6000 04            139         TZE     IPIC,$          YES
   000111    7 01050 7551 00           140         STA     CIPSI,,PR7      SAVE AS CURR INV. PG NO.
   000112  X 000000 7010 00            141         ICCAL   ZIQ$DBIOR,IPIC,GIPER GET PAGE
   000113 (0)000161 7020 00
   000114    5 00006 2341 00
   000115    000003 6000 04
   000116    5 00006 4501 00
   000117 (0)000120 7020 00
   000120                              142  IPIC   NULL
   000120    7 01047 7211 00           143         LXL     X1,POFSI,,PR7   GET OFST IN PAGE
   000121    007764 1010 03            144           CMPX    X1,4*CP6PGSZW,DU  IS IT W/I/ACTIVE PAGE SIZE
   000122    000036 6030 04            145         TRC     IVOE1,$         NO - ERROR
   000123    000 0 100 1015 11         146         MRL     (1,,,1),(1),0       * MOVE
   000124    4 00000 0 0 0 0001        147         ADSC9   0,0,1,PR4           *  NO. INV. UNITS TO
   000125    7 01046 4 0 0 0002        148         ADSC9   SNSI,2,2,PR7        *   WORK SPACE
   000126    7 01046 2361 00           149         LDQ     SNSI,,PR7       GET NO. INVENT. UNITS IN PAGE
   000127    000777 3760 07            150         ANQ     =O777,DL        ISOLATE
   000130    000777 1160 07            151         CMPQ    =O777,DL        HAVE WE STARTED INV FOR THIS PAGE
   000131 (0)000144 6000 00            152         TZE     SPCFD           NO
   000132    6 00017 4021 10           153         MPY     IUSZ,X0,PR6     MULT BY CHARS/I.U. = CHARS ON PAGE
   000133    000000 6210 06            154         EAX     X1,,QL
   000134    7 01046 1011 00           155         CMPX    X1,SNSI,,PR7    IS SPACE ENOUGH
   000135    000007 6030 04            156         TRC     SPCFD,$         YES
   000136    7 01044 2361 00           157         LDQ     CDPSI,,PR7      GET CURR DATA PAGE NO
   000137    7 01045 1161 00           158         CMPQ    LDPSI,,PR7      IS IT LAST
   000140    000013 6030 04            159         TRC     NOSPC,$         YES
   000141    000001 0360 07            160         ADLQ    1,DL            INCR TO NEXT PG
   000142    7 01044 7561 00           161         STQ     CDPSI,,PR7      SAVE AS CURR
   000143    777734 7100 04            162         TRA     SIL1,$          GO CHECK IT
                                       163  *
                                       164  *  SPACE FOUND
                                       165  *
   000144                              166  SPCFD  NULL
   000144    6 00004 7211 10           167         LXL     X1,BPL,X0,PR6   GET BITS/LINE NO.
   000145    7 01044 2361 00           168         LDQ     CDPSI,,PR7      GET CURR DATA PAGE NO
   000146    000001 1360 07            169         SBLQ    1,DL            MAKE IT ZERO RELATIVE
 12:48 09/05/97  FILE=ZIM$DBIV.:ZIC0TSI       SEARCH INVENTORY FOR SPACE                                 8    BMAP - B00
   000147    000000 7360 11            170         QLS     ,X1             MAKE IT AN AREA KEY
   000150    6 00010 0361 10           171         ADLQ    DBLIM,X0,PR6    ADD LO DBK OF AREA = DBK
   000151    7 00470 2211 54           172         ICRET
   000152    000001 7100 11
                                       173  *
                                       174  *  EXCEPTIONS
                                       175  *
   000153                              176  NOSPC  NULL                    NO SPACE/DBK'S FOUND
   000153    234510 2350 07            177         LDA     NSA,DL          SET STATUS FOR NO SPACE
   000154    7 01046 7211 00           178         LXL     X1,SNSI,,PR7    DID LAST PAGE HAVE ANY DBK'S
   000155 (0)000157 6010 00            179         TNZ     *+2             YES
   000156    235164 2350 07            180         LDA     NKA,DL
   000157  X 000000 7020 00            181         ICEXC
                                       182  *
                                       183  *  ERRORS DETECTED IN THIS ROUTINE
                                       184  *
   000160                              185  IVOE1  NULL                    INV. OFST GR. THAN PAGE SIZE
   000160    303265 2350 07            186         LDA     IOE12,DL
                                       187  *
                                       188  *  ERRORS DETECTED IN SUBORDINATE ROUTINES
                                       189  *
   000161                              190  GIPER  NULL                    ERROR READING INV. PAGE
   000161    000001 7100 04            191         TRA     SIR1,$
                                       192  *  COMMON ERROR RETURN
   000162                              193  SIR1   NULL
   000162    5 00021 2361 00           194           LDQ      GIOPGNO,,PR5
   000163    5 00015 7561 00           195           STQ      GPAGE,,PR5           Save page no of error
   000164  X 000000 7020 00            196           ICALT
                                       197         END

  CONTROL SECTION TABLE

   0 CODE   EVEN  000165
   1 RODATA EVEN  000000 LITERALS

 12:48 09/05/97  FILE=ZIM$DBIV.:ZIC0TSI       SYMBOL TABLE                                               9    BMAP - B00
 40000000 000000200000 .AC            *16
 40000000 000000000100 .AG            *16
 40000000 000000002000 .ALTO          *16
 40000000 000000000077 .ANL           *16
 40000000 000000200000 .APDN          *16
 40000000 000000000100 .ATMP          *16
 40000000 000000400000 .AV            *16
 40000000 000000400000 .B0            *16
 40000000 000000200000 .B1            *16
 40000000 000000000200 .B10           *16
 40000000 000000000100 .B11           *16
 40000000 000000000040 .B12           *16
 40000000 000000000020 .B13           *16
 40000000 000000000010 .B14           *16
 40000000 000000000004 .B15           *16
 40000000 000000000002 .B16           *16
 40000000 000000000001 .B17           *16
 40000000 000000400000 .B18           *16
 40000000 000000200000 .B19           *16
 40000000 000000100000 .B2            *16
 40000000 000000100000 .B20           *16
 40000000 000000040000 .B21           *16
 40000000 000000020000 .B22           *16
 40000000 000000010000 .B23           *16
 40000000 000000004000 .B24           *16
 40000000 000000002000 .B25           *16
 40000000 000000001000 .B26           *16
 40000000 000000000400 .B27           *16
 40000000 000000000200 .B28           *16
 40000000 000000000100 .B29           *16
 40000000 000000040000 .B3            *16
 40000000 000000000040 .B30           *16
 40000000 000000000020 .B31           *16
 40000000 000000000010 .B32           *16
 40000000 000000000004 .B33           *16
 40000000 000000000002 .B34           *16
 40000000 000000000001 .B35           *16
 12:48 09/05/97  FILE=ZIM$DBIV.:ZIC0TSI       SYMBOL TABLE                                               10   BMAP - B00
 40000000 000000020000 .B4            *16
 40000000 000000010000 .B5            *16
 40000000 000000004000 .B6            *16
 40000000 000000002000 .B7            *16
 40000000 000000001000 .B8            *16
 40000000 000000000400 .B9            *16
 40000000 000000000001 .BREAK         *16
 40000000 000000010000 .BRK           *16
 40000000 000000020000 .BTB           *16
 40000000 000000000001 .CAC           *16
 40000000 000000000000 .CAE           *16
 40000000 000000000200 .CANSSS        *16
 40000000 000000000400 .CD            *16
 40000000 000000040000 .CFLC          *16
 40000000 000000400000 .CHKSUM        *16
 40000000 000000100000 .CJRNL         *16
 40000000 000000000077 .CNSZ          *16
 40000000 000000160000 .COMC          *16
 40000000 000000000020 .CONT          *16
 40000000 000000000000 .CSE           *16
 40000000 000000700000 .CTYP          *16
 41000000 000000000270 .DBEST         *16
 41000000 000000000470 .DBIC          *16        28        32        80       116       172
 40000000 000000077777 .DBPT          *16
 41000000 000000000370 .DBSTK         *16
 40000000 000000020000 .DELM          *16
 40000000 000000002000 .DIDP          *16
 40000000 000000000077 .DNDX          *16
 40000000 000000600000 .DORD          *16
 40000000 000000000200 .DP            *16
 40000000 000000100000 .DPS           *16
 40000000 000000200000 .DPSA          *16
 40000000 000000400000 .DPST          *16
 40000000 000000000002 .DUMP          *16
 40000000 000000002000 .DUPC          *16
 40000000 000000010000 .DUPP          *16
 40000000 000000200000 .EBCL          *16
 12:48 09/05/97  FILE=ZIM$DBIV.:ZIC0TSI       SYMBOL TABLE                                               11   BMAP - B00
 40000000 000000400000 .EBCM          *16
 40000000 000000200000 .ENCRP         *16
 40000000 000000000077 .ENDX          *16
 40000000 000000000400 .ENQ           *16
 40000000 000000004000 .ETC           *16
 40000000 000000000400 .EXIT          *16
 40000000 000000000200 .FMOD          *16
 40000000 000000000077 .FNL           *16
 40000000 000000000074 .FORG          *16
 40000000 000000002000 .FR            *16
 40000000 000000000100 .FSR           *16
 40000000 000000003400 .FUSE          *16
 40000000 000000010000 .FVF           *16
 40000000 000000040000 .FVR           *16
 40000000 000000000010 .INDEXED       *16
 40000000 000000777777 .IXID          *16
 40000000 000000001777 .IXNUM         *16
 40000000 000000000004 .KEYED         *16
 40000000 000000010000 .LCK           *16
 40000000 000000400000 .LEIL          *16
 40000000 000000001000 .LG            *16
 40000000 000000000002 .LOAD          *16
 40000000 000000020000 .MAR           *16
 40000000 000000000007 .MEMT          *16
 40000000 000000010000 .MRL           *16
 40000000 000000040000 .MSM           *16
 60000000 000000000001 .N6685         *16
 40000000 000000100000 .NAI           *16
 40000000 000000200000 .NBI           *16
 40000000 000000000002 .NCIA          *16
 40000000 000000040000 .NMV           *16
 40000000 000000017777 .NOENT         *16
 40000000 000000400000 .OA            *16
 40000000 000000740000 .OPEV          *16
 40000000 000000100000 .OSM           *16
 40000000 000000100000 .PAFIL         *16
 40000000 000000200000 .PAHVR         *16
 12:48 09/05/97  FILE=ZIM$DBIV.:ZIC0TSI       SYMBOL TABLE                                               12   BMAP - B00
 40000000 000000000001 .PAIA          *16
 40000000 000000040000 .PALIL         *16
 40000000 000000020000 .PALVR         *16
 40000000 000000400000 .PANLL         *16
 40000000 000000400000 .PCKD          *16
 40000000 000000001600 .PMOD          *16
 40000000 000000000520 .PRCSE         *16
 40000000 000000000007 .PSTO          *16
 40000000 000000006040 .PTAS          *16
 40000000 000000010100 .PTCHK         *16
 40000000 000000010200 .PTDEC         *16
 40000000 000000010140 .PTENC         *16
 40000000 000000020000 .RA            *16
 40000000 000000100000 .RC            *16
 40000000 000000400000 .RELEASE       *16
 40000000 000000000017 .RELT          *16
 40000000 000000004000 .RERA          *16
 40000000 000000400000 .RERS          *16
 40000000 000000010000 .RKEY          *16
 40000000 000000000077 .RNL           *16
 40000000 000000200000 .RSTO          *16
 40000000 000000007777 .RTYP          *16
 40000000 000000040000 .SC            *16
 40000000 000000000070 .SETM          *16
 40000000 000000740000 .SETO          *16
 40000000 000000000700 .SETT          *16
 40000000 000000040000 .SFNP          *16
 40000000 000000004000 .SM            *16
 40000000 000000020000 .SMOD          *16
 40000000 000000000077 .SNL           *16
 40000000 000000020000 .SNSS          *16
 40000000 000000010000 .SO            *16
 40000000 000000100000 .SR            *16
 40000000 000000004000 .SRCR          *16
 40000000 000000001000 .SS            *16
 40000000 000000000007 .SSTP          *16
 40000000 000000004000 .SYN           *16
 12:48 09/05/97  FILE=ZIM$DBIV.:ZIC0TSI       SYMBOL TABLE                                               13   BMAP - B00
 40000000 000000000040 .SYNC          *16
 40000000 000000020000 .TJRNL         *16
 40000000 000000040000 .TMPLT         *16
 40000000 000000040000 .TRACE         *16
 40000000 000000000001 .TRENTRY       *16
 40000000 000000000012 .TRIDEL        *16
 40000000 000000000021 .TRIDELENQ     *16
 40000000 000000000024 .TRIDEQ        *16
 40000000 000000000013 .TRIMOD        *16
 40000000 000000000022 .TRIMODENQ     *16
 40000000 000000000014 .TRIREAD       *16
 40000000 000000000023 .TRIREADENQ    *16
 40000000 000000000011 .TRISTO        *16
 40000000 000000000020 .TRISTOENQ     *16
 40000000 000000000017 .TRPDEQ        *16
 40000000 000000000004 .TRPMOD        *16
 40000000 000000000016 .TRPMODENQ     *16
 40000000 000000000002 .TRPREAD       *16
 40000000 000000000015 .TRPREADENQ    *16
 40000000 000000000003 .TRPWRITE      *16
 40000000 000000000010 .TRRACC        *16
 40000000 000000000006 .TRRDEL        *16
 40000000 000000000007 .TRRMOD        *16
 40000000 000000000005 .TRRSTO        *16
 40000000 000000004000 .ULCK          *16
 40000000 000000400000 .UPDT          *16
 40000000 000000000040 .VIA           *16
 60000000 000000000001 A              *16
 40000000 000000000002 ABAS           *16
 40000000 000000000001 AC             *16
 40000000 777777777760 ACDEF          *16
 40000000 000000211070 ACDNL          *16
 40000000 000000000003 ACID           *16
 40000000 000000001016 ACOPN          *16
 40000000 000000000002 ACP            *16
 40000000 000000000005 ACPTR          *16
 40000000 000000000002 ACRAH          *16
 12:48 09/05/97  FILE=ZIM$DBIV.:ZIC0TSI       SYMBOL TABLE                                               14   BMAP - B00
 40000000 000000000001 ACRAN          *16
 40000000 000000001003 ACREC          *16
 40000000 000000000001 ACTDBCB        *16
 40000000 000000000002 ACTDBNO        *16
 40000000 000000001017 ACTP           *16
 40000000 000000000000 ACTSSS         *16
 40000000 000000000000 ACTSZ          *16
 40000000 000000210565 AFNP           *16
 40000000 000000000635 AFT            *16
 40000000 000000022124 AIR            *16
 40000000 000000000016 AMAX           *16
 40000000 000000000026 ANAM           *16
 40000000 000000021614 ANR            *16
 41000000 000000000001 APNO           *16        56        67
 40000000 000000210562 ARGER          *16
 41000000 000000000020 ARGS           *16
 40000000 000000000077 ARGS2          *16
 40000000 000000210713 ARNAF          *16
 40000000 000000000003 ATBL           *16
 40000000 000000000000 ATRIB          *16
 40000000 000000000002 AVLN           *16
 40000000 000000000013 AWS$           *16
 40000000 000000000010 AWSZ           *16
 60000000 000000000001 B              *16
 40000000 000000001006 B32N           *16
 40000000 000000001007 B36N           *16
 40000000 000000001056 B72N           *16
 40000000 000000000001 BADDR          *16
 40000000 000000210712 BADSEED        *16
 40000000 777777777765 BDCW           *16
 40000000 000000000633 BEF            *16
 40000000 000000020000 BEFW           *16
 40000000 000000000751 BEMT           *16
 40000000 777777777761 BID            *16
 40000000 777777777762 BIND           *16
 40000000 000000000007 BLKD           *16
 40000000 000000303331 BME02          *16
 12:48 09/05/97  FILE=ZIM$DBIV.:ZIC0TSI       SYMBOL TABLE                                               15   BMAP - B00
 41000000 000000001203 BMPB           *16
 40000000 000000000652 BN1            *16
 40000000 000000000654 BN2            *16
 41000000 000000000004 BPL            *16       118       167
 40000000 000000000015 BPLDBK         *16
 40000000 000000000034 BSPG           *16
 40000000 777777777763 BSTAT          *16
 40000000 000000000750 BTX0           *16
 41000000 000000001160 BUF4           *16
 41000000 000000001170 BUF6           *16
 41000000 000000000000 BUFORG         *16
 40000000 000000001060 BUFRQ          *16
 40000000 000000000006 BURRID         *16
 41000000 000000000020 BWASZ          *16
 60000000 000000000001 C              *16
 40000000 000000000050 CAAC           *16
 40000000 000000000050 CACD           *16
 40000000 000000000111 CAG            *16
 40000000 000000001033 CAL            *16
 40000000 000000000026 CALLPM0        *16
 40000000 000000000003 CANSSS         *16
 40000000 000000000003 CBCPA          *16
 40000000 000000000002 CBCPO          *16
 40000000 000000000002 CBENO          *16
 40000000 000000000014 CBFSZ          *16
 40000000 000000000753 CBIB           *16
 40000000 000000001030 CBID           *16
 40000000 000000000014 CBRCE          *16
 40000000 000000000014 CBRCP          *16
 40000000 000000001033 CBRID          *16
 40000000 000000000015 CBRPA          *16
 40000000 000000000031 CCHAR          *16
 40000000 000000000040 CDBK           *16
 40000000 000000000030 CDES           *16
 40000000 000000000110 CDP            *16
 41000000 000000001044 CDPSI          *16       126       130       157       161       168
 40000000 000000000002 CDRH           *16
 12:48 09/05/97  FILE=ZIM$DBIV.:ZIC0TSI       SYMBOL TABLE                                               16   BMAP - B00
 40000000 000000000003 CDRN           *16
 40000000 000000000002 CDSH           *16
 40000000 000000000003 CDSN           *16
 40000000 000000000722 CENTRN         *16
 40000000 000000000722 CENTRO         *16
 40000000 000000000716 CENTRY         *16
 41000000 000000001053 CFCT           *16
 40000000 000000000670 CFLPT1         *16
 40000000 000000000672 CFLPT2         *16
 40000000 000000000015 CFSA           *16
 40000000 000000000646 CHDBK          *16
 40000000 000000000773 CHR            *16
 40000000 000000000006 CHRD           *16
 40000000 000000000772 CHRO           *16
 40000000 000000007640 CHRTP          *16
 41000000 000000001043 CIAC           *16        35
 40000000 000000000012 CIAWS          *16
 40000000 000000001051 CIBSI          *16
 40000000 000000000516 CIND           *16
 41000000 000000001041 CINVSZ         *16        44        77
 41000000 000000001042 CIPG           *16        63        64        66
 41000000 000000001050 CIPSI          *16       128       138       140
 40000000 000000000000 CIRUN          *16
 40000000 000000000002 CIRWS          *16
 40000000 000000000002 CISWS          *16
 40000000 000000000014 CIWSOF         *16
 40000000 000000303374 CKSM           *16
 40000000 000000000022 CLCN           *16
 40000000 000000000023 CLCP           *16
 40000000 000000000003 CLCRC          *16
 40000000 000000000003 CLCSC          *16
 40000000 000000000237 CLI            *16
 40000000 000000000026 CLNG           *16
 40000000 000000000052 CMPL           *16
 40000000 000000000002 CN             *16
 40000000 000000303315 CNE1           *16
 40000000 000000006034 CNUL           *16
 12:48 09/05/97  FILE=ZIM$DBIV.:ZIC0TSI       SYMBOL TABLE                                               17   BMAP - B00
 40000000 000000100000 COB74          *16
 40000000 000000000001 COFS           *16
 40000000 000000000045 CONCD          *16
 40000000 000000007764 CP6PGSZB       *16
 41000000 000000001775 CP6PGSZW       *16        74       144
 40000000 000000001000 CPGR           *16
 40000000 000000000723 CPTRN          *16
 40000000 000000000723 CPTRO          *16
 61000000 000000000004 CPW            *16        59       133
 40000000 000000000112 CRA            *16
 40000000 000000001004 CRD            *16
 40000000 000000000764 CREC           *16
 40000000 000000006344 CRIT           *16
 40000000 000000006200 CRNUL          *16
 40000000 000000007330 CRST           *16
 41000000 000000001223 CRUN           *16
 41000000 000000000000 CSECT          *16
 40000000 000000000007 CSMPP          *16
 40000000 000000001000 CSPAC          *16
 40000000 000000000004 CSPAH          *16
 40000000 777777777776 CSPES          *16
 40000000 777777777776 CSPSB          *16
 40000000 000000000115 CSTS           *16
 40000000 000000000071 CSUB           *16
 40000000 000000000017 CSZ            *16
 40000000 000000000057 CTMASK         *16
 40000000 000000000774 CTPAI          *16
 40000000 000000000240 CURLN          *16
 40000000 000000000236 CURLT          *16
 40000000 000000000770 CURPG          *16
 40000000 000000000001 CURR           *16
 40000000 000000000035 CURRS          *16
 40000000 000000000037 CURSS          *16
 40000000 000000001005 CWRT           *16
 40000000 000000000237 CWSOF          *16
 60000000 000000000001 D              *16
 40000000 000000000003 DBAN           *16
 12:48 09/05/97  FILE=ZIM$DBIV.:ZIC0TSI       SYMBOL TABLE                                               18   BMAP - B00
 40000000 000000000036 DBDR           *16
 40000000 000000000037 DBFN           *16
 40000000 000000000754 DBK            *16
 40000000 000000000777 DBKAC          *16
 40000000 000000000000 DBKEY          *16
 40000000 000000000000 DBKL           *16
 40000000 000000007474 DBKN           *16
 41000000 000000000776 DBKR           *16
 40000000 000000000777 DBKRQ          *16
 40000000 000000000234 DBKSI          *16
 40000000 000000000651 DBKSR          *16
 40000000 000000000047 DBKYN          *16
 40000000 000000210652 DBLC01         *16
 40000000 000000210653 DBLC05         *16
 40000000 000000303334 DBLC07         *16
 40000000 000000210655 DBLD01         *16
 41000000 000000000010 DBLIM          *16       119       123       171
 40000000 000000000033 DBPKY          *16
 40000000 000000000023 DBRN           *16
 40000000 000000000013 DBSN           *16
 40000000 000000000001 DBST           *16
 40000000 000000000757 DCDSR          *16
 40000000 000000210650 DCE1           *16
 40000000 000000001053 DCPR           *16
 40000000 000000001053 DCPW           *16
 40000000 000000000015 DCTBL          *16
 40000000 000000000032 DDBK           *16
 40000000 000000000006 DDCB           *16
 40000000 000000011754 DDI            *16
 40000000 000000000000 DEF            *16
 40000000 000000000014 DEF2           *16
 40000000 000000303413 DELAK          *16
 40000000 000000000036 DELRS          *16
 40000000 000000000732 DEPCW          *16
 40000000 000000303414 DLDBK          *16
 40000000 000000210627 DLE1           *16
 40000000 000000303310 DLE2           *16
 12:48 09/05/97  FILE=ZIM$DBIV.:ZIC0TSI       SYMBOL TABLE                                               19   BMAP - B00
 40000000 000000210631 DLE3           *16
 40000000 000000016040 DNES           *16
 40000000 777777777777 DPAGN          *16
 41000000 000000000020 DPPI           *16        58       132
 40000000 000000000053 DPSLW          *16
 40000000 000000000003 DS             *16
 40000000 000000001063 DSDES          *16
 40000000 000000303316 DSE1           *16
 40000000 000000000735 DUSEPA         *16
 60000000 000000000001 E              *16
 40000000 000000303251 EDPER          *16
 40000000 000000000026 EEIND          *16
 40000000 000000000713 EFIND          *16
 40000000 000000001030 ELO            *16
 40000000 000000210711 ENCPNA         *16
 40000000 000000000007 ENCRP          *16
 40000000 000000000752 ENDSR          *16
 40000000 000000210647 ENE1           *16
 40000000 000000000716 ENIND          *16
 40000000 000000000013 ENTBL          *16
 40000000 000000000710 ENTNO          *16
 40000000 000000000712 ENTPTR         *16
 40000000 000000000717 ENTSZ          *16
 40000000 000000000711 ENTTYP         *16
 40000000 000000004064 EOSR           *16
 40000000 000000000004 ES             *16
 41000000 000000000100 ESTSZ          *16
 40000000 000000000725 ESZ            *16
 40000000 000000000005 ETCADR         *16
 40000000 000000000005 ETCDBNO        *16
 40000000 000000000064 EXCCD          *16
 40000000 000000234534 FALRT          *16
 40000000 000000001055 FBF72          *16
 40000000 000000001025 FBU61          *16
 40000000 000000001020 FBUF           *16
 40000000 000000001026 FBUF1          *16
 40000000 000000001027 FBUF4          *16
 12:48 09/05/97  FILE=ZIM$DBIV.:ZIC0TSI       SYMBOL TABLE                                               20   BMAP - B00
 40000000 000000001024 FBUF6          *16
 40000000 000000001022 FBUFM          *16
 40000000 000000001021 FBUFU          *16
 40000000 000000001023 FBUMD          *16
 40000000 000000000004 FCN            *16
 40000000 000000000051 FCNT           *16
 40000000 000000000002 FCP            *16
 40000000 000000000047 FCSS           *16
 40000000 000000000005 FD             *16
 40000000 000000210637 FDE1           *16
 40000000 000000303320 FDE2           *16
 40000000 000000303321 FDE3           *16
 40000000 000000210642 FDE4           *16
 40000000 000000210643 FDE5           *16
 40000000 000000210644 FDE6           *16
 40000000 000000303325 FDE7           *16
 40000000 000000303326 FDE8           *16
 40000000 000000000021 FEASZ          *16
 40000000 000000000740 FETM           *16
 40000000 000000000006 FI             *16
 40000000 000000000103 FIAC           *16
 41000000 000000001100 FIB1           *16
 41000000 000000001130 FIBP           *16
 40000000 000000000000 FIBX           *16
 40000000 000000000102 FICNT          *16
 41000000 000000000005 FIPN           *16        62       136
 40000000 000000000054 FKIND          *16
 40000000 000000000015 FLAGS          *16
 40000000 000000000244 FLDDSC         *16
 40000000 000000000046 FLDTL          *16
 40000000 000000000020 FMSBF          *16
 40000000 000000000006 FNAM           *16
 40000000 000000000250 FNIND          *16
 40000000 000000000004 FNL            *16
 40000000 000000000101 FRAC           *16
 40000000 000000000002 FRANGE         *16
 40000000 000000211400 FRDNL          *16
 12:48 09/05/97  FILE=ZIM$DBIV.:ZIC0TSI       SYMBOL TABLE                                               21   BMAP - B00
 40000000 000000200000 FRTRN          *16
 40000000 000000000005 FRWSO          *16
 40000000 000000000767 FSLN           *16
 40000000 000000000766 FSOF           *16
 40000000 000000000060 FTIND          *16
 40000000 000000303240 FTLINCR        *16
 40000000 000000000021 FWSSZ          *16
 40000000 000000000246 GACDK          *16
 40000000 000000000014 GDCB           *16
 41000000 000000000006 GERROR         *16        65       141
 40000000 000000000016 GINHIB         *16
 40000000 000000000020 GIOAWS         *16
 40000000 000000000022 GIOBUF         *16
 41000000 000000000021 GIOPGNO        *16        98       194
 01101000 000000000161 GIPER          141      *190
 41000000 000000000015 GPAGE          *16        99       195
 40000000 000000000010 GRETAC         *16
 40000000 000000000011 GRETFR         *16
 40000000 000000000013 GRETRC         *16
 40000000 000000000012 GRETSC         *16
 40000000 000000000025 GRLCW          *16
 40000000 000000000014 GSTCD          *16
 40000000 000000000007 GSYSERR        *16
 40000000 000000000010 GT             *16
 01101000 000000000040 GTPG            65       *71
 40000000 000000000046 GTRNAME        *16
 40000000 000000000055 GTRPDCB        *16
 40000000 000000000056 GTRPNO         *16
 40000000 000000000057 GTRRDBK        *16
 40000000 000000000060 GTRRTYPE       *16
 40000000 000000000060 GTRTYPE        *16
 40000000 000000000027 HASH           *16
 40000000 000000000022 HIA            *16
 40000000 000000000775 HIDB           *16
 40000000 000000000003 HIGHDBK        *16
 40000000 000000000004 HIGHPG         *16
 40000000 000000001037 HIL            *16
 12:48 09/05/97  FILE=ZIM$DBIV.:ZIC0TSI       SYMBOL TABLE                                               22   BMAP - B00
 40000000 000000000002 HILN           *16
 40000000 000000000006 HPOS           *16
 40000000 000000000756 IAAC           *16
 40000000 000000001011 IACLN          *16
 40000000 000000001010 IALC           *16
 40000000 000000010314 IAN            *16
 40000000 000000001012 IANLN          *16
 40000000 000000000001 IASID          *15
 40000000 000000020320 ICA            *16
 40000000 000000000023 ICKSMP         *16
 40000000 000000000024 ICKSMV         *16
 40000000 000000210742 ICNR           *16
 41000000 000000000020 ICSIZ          *16
 40000000 000000010004 IDBK           *16
 40000000 000000012120 IDI            *16
 40000000 000000000023 IDS            *16
 40000000 000000000011 IF             *16
 40000000 000000000021 IFIPN          *16
 40000000 000000000000 IFR            *16
 40000000 000000234546 IKSEQ          *16
 40000000 000000000113 INAFLAG        *16
 40000000 000000000016 INCHA          *16
 40000000 000000210566 INNM           *16
 40000000 000000210567 INSS           *16
 40000000 000000210575 INSST          *16
 40000000 000000303241 INTER          *16
 40000000 000000400000 INTII          *16
 40000000 000000000013 INTVL          *16
 40000000 000000001060 INVFLG         *16
 41000000 000000001043 INVOF          *16        60        73
 40000000 000000000014 INVT           *16
 40000000 000000000034 IOBLK          *16
 40000000 000000303354 IOCLSD         *16
 40000000 000000303355 IOCLSK         *16
 41000000 000000303257 IOE1           *16        85
 40000000 000000303264 IOE11          *16
 41000000 000000303265 IOE12          *16        88       186
 12:48 09/05/97  FILE=ZIM$DBIV.:ZIC0TSI       SYMBOL TABLE                                               23   BMAP - B00
 40000000 000000303266 IOE18          *16
 40000000 000000303260 IOE2           *16
 40000000 000000303261 IOE3           *16
 40000000 000000303262 IOE7           *16
 40000000 000000303263 IOE8           *16
 40000000 000000303363 IOFLSH         *16
 40000000 000000210676 IOGDCB         *16
 40000000 000000001002 IOINC          *16
 40000000 000000305160 IOINI          *16
 40000000 000000305155 IONOTIDS       *16
 40000000 000000305154 IONOTKEY       *16
 40000000 000000210677 IOOPND         *16
 40000000 000000210700 IOOPNK         *16
 40000000 000000303361 IORDD          *16
 40000000 000000305156 IOSCHEMA       *16
 40000000 000000001052 IOSTS          *16
 40000000 000000303362 IOWRTD         *16
 41000000 000000000750 IOWS           *16
 40000000 000000000647 IPC            *16
 40000000 000000000650 IPCF           *16
 01101000 000000000120 IPIC           139       141      *142
 40000000 000000000006 IROLLFLAG      *16
 40000000 000000010150 IRSN           *16
 40000000 000000000004 ISYSDCB        *16
 40000000 000000000005 ISYSERR        *16
 40000000 000000000061 ITPTR          *16
 40000000 000000000060 ITRS           *16
 40000000 000000021760 IUM            *16
 41000000 000000000017 IUSZ           *16        38        40       153
 40000000 000000234522 IVDBK          *16
 01101000 000000000160 IVOE1          145      *185
 01101000 000000000054 IVOER           75       *87
 40000000 000000000011 IXBUF$         *16
 40000000 000000000046 IXFBSZ         *16
 40000000 777777777776 IXID           *16
 40000000 777777777777 IXPLL          *16
 40000000 000000000523 KCARG0         *16
 12:48 09/05/97  FILE=ZIM$DBIV.:ZIC0TSI       SYMBOL TABLE                                               24   BMAP - B00
 40000000 000000000524 KCARG3         *16
 40000000 000000000525 KCARG4         *16
 40000000 000000000700 KCREG          *16
 40000000 000000000006 KDCB           *16
 40000000 000000000666 KEYDS          *16
 40000000 000000000010 KEYPA          *16
 40000000 777777777776 KLNG           *16
 40000000 000000000022 KPASZ          *16
 40000000 000000000006 KWSZ           *16
 40000000 000000000052 LANGC          *16
 40000000 000000001014 LAS            *16
 40000000 000000700000 LCODM          *16
 41000000 000000001045 LDPSI          *16       122       158
 40000000 000000001071 LINPT          *16
 40000000 000000001017 LNCNT          *16
 40000000 000000000762 LNNO           *16
 40000000 000000001036 LOL            *16
 40000000 000000000715 LOLIM          *16
 40000000 000000000023 LPASZ          *16
 40000000 000000000012 LPP            *16
 40000000 000000257764 LR             *16
 40000000 000000301270 LRA            *16
 40000000 000000000017 LRSZ           *16
 40000000 000000001035 LSPC           *16
 40000000 000000000750 LUPD           *16
 61000000 000000000001 M9             *16
 40000000 000000000013 MD             *16
 40000000 000000300000 MDQS           *16
 40000000 000000000730 MEMPTR         *16
 40000000 000000000727 MEMTYP         *16
 40000000 000000000045 MODCD          *16
 41000000 000000001207 MODFL          *16
 40000000 000000000042 MODFR          *16
 40000000 000000000044 MODIN          *16
 40000000 000000000044 MODRS          *16
 40000000 000000000043 MODSC          *16
 40000000 000000000047 MRBKI          *16
 12:48 09/05/97  FILE=ZIM$DBIV.:ZIC0TSI       SYMBOL TABLE                                               25   BMAP - B00
 40000000 000000210632 MRE4           *16
 40000000 000000303313 MRE5           *16
 40000000 000000210634 MRE7           *16
 40000000 000000400000 MW             *16
 40000000 000000000025 NCH            *16
 40000000 000000000002 NCHA           *16
 40000000 000000000005 NCHRS          *16
 40000000 000000000014 NDCD           *16
 40000000 000000000012 NENC           *16
 40000000 000000000634 NEW            *16
 40000000 000000001072 NEWSIZ         *16
 41000000 000000235164 NKA            *16       180
 40000000 000000235020 NKDB           *16
 40000000 000000303415 NLDBK          *16
 40000000 777777777777 NLIND          *16
 40000000 000000001040 NLN            *16
 40000000 000000400000 NLNSA          *16
 41000000 000000001053 NOBF           *16
 40000000 000000000711 NOPTRS         *16
 01101000 000000000153 NOSPC          159      *176
 40000000 000000000742 NPARCW         *16
 40000000 000000000630 NPIND          *16
 40000000 000000000004 NPOS           *16
 41000000 000000234510 NSA            *16       177
 40000000 000000234654 NSCS           *16
 40000000 000000234344 NSDB           *16
 40000000 000000000001 NSTS           *16
 40000000 000000000726 NUMENT         *16
 40000000 000000000727 NUMPTR         *16
 40000000 777777777760 NXBUF          *16
 40000000 000000000713 NXPRI          *16
 40000000 000000000771 NXTC           *16
 40000000 000000000001 OAACN          *16
 40000000 000000000022 OACIWSOF       *16
 40000000 000000000001 OAOFST         *16
 40000000 000000000002 OARCN          *16
 40000000 000000000001 OASCN          *16
 12:48 09/05/97  FILE=ZIM$DBIV.:ZIC0TSI       SYMBOL TABLE                                               26   BMAP - B00
 40000000 000000000014 OD             *16
 40000000 000000000074 ODBK           *16
 40000000 000000001072 OLDSIZ         *16
 40000000 000000000101 OPADP          *16
 40000000 000000000741 OPARCW         *16
 40000000 000000210570 ORDNI          *16
 40000000 777777777777 OTVL           *16
 40000000 000000000252 OWNPTR         *16
 40000000 000000000016 PABUF          *16
 40000000 000000001041 PACD           *16
 40000000 000000000001 PACW           *16
 40000000 000000000733 PADBK          *16
 40000000 000000000740 PADUP          *16
 40000000 000000000745 PAEN           *16
 40000000 000000000745 PAEO           *16
 40000000 000000000734 PAEOF          *16
 40000000 000000303336 PAER1          *16
 40000000 000000303337 PAER2          *16
 40000000 000000303340 PAER3          *16
 40000000 000000303341 PAER4          *16
 40000000 000000303342 PAER5          *16
 40000000 000000303343 PAER6          *16
 40000000 000000000747 PAESZ          *16
 40000000 000000001060 PAFLG          *16
 40000000 000000000731 PAOPTR         *16
 40000000 000000000734 PAPOF          *16
 40000000 000000000714 PARCW          *16
 40000000 000000000726 PARVPA         *16
 40000000 000000000724 PASPLT         *16
 40000000 000000000004 PAWSZ          *16
 40000000 777777777762 PBUF           *16
 40000000 000000000020 PC             *16
 41000000 000000000510 PCB            *16
 40000000 000000000642 PCD            *16
 40000000 000000000642 PCD2           *16
 40000000 000000000247 PCEXI          *16
 40000000 000000000675 PCMIN          *16
 12:48 09/05/97  FILE=ZIM$DBIV.:ZIC0TSI       SYMBOL TABLE                                               27   BMAP - B00
 40000000 000000004541 PCOMP          *16
 40000000 000000000010 PD             *16
 40000000 000000000040 PE             *16
 40000000 000000000017 PENDING        *16
 40000000 000000000004 PF             *16
 40000000 000000000400 PFG            *16
 40000000 000000000200 PFM            *16
 40000000 000000000100 PFS            *16
 40000000 000000000400 PG             *16
 01101000 000000000056 PGER1           65       *93
 40000000 000000001064 PGHD           *16
 40000000 000000000006 PGLIM          *16
 40000000 000000000003 PGRNG          *16
 40000000 000000000746 PGSIZE         *16
 40000000 000000000641 PGSPLT         *16
 40000000 000000000100 PKAW           *16
 40000000 000000001034 PLO            *16
 40000000 000000000004 PLSEP          *16
 40000000 000000000200 PM             *16
 40000000 000000001054 PNEOO          *16
 41000000 000000001047 POFSI          *16       134       143
 40000000 000000000005 PPOS           *16
 40000000 000000000000 PR0            *15
 40000000 000000000001 PR1            *15
 40000000 000000000002 PR2            *15
 40000000 000000000003 PR3            *15
 41000000 000000000004 PR4            *15        33        56        67        78       147
 41000000 000000000005 PR5            *15        65        98        99       141       194       195
 41000000 000000000006 PR6            *15        38        40        58        61       118       119
                                      123       132       135       153       167       171
 41000000 000000000007 PR7            *15        28        32        35        44        60        62
                                       63        64        66        73        77        80       116
                                      117       122       126       128       130       134       136
                                      138       140       143       148       149       155       157
                                      158       161       168       172       178
 40000000 000000303267 PRE1           *16
 40000000 000000303277 PRE10          *16
 12:48 09/05/97  FILE=ZIM$DBIV.:ZIC0TSI       SYMBOL TABLE                                               28   BMAP - B00
 40000000 000000303270 PRE3           *16
 40000000 000000303271 PRE4           *16
 40000000 000000303272 PRE5           *16
 40000000 000000210613 PRE6           *16
 40000000 000000210614 PRE7           *16
 40000000 000000210615 PRE8           *16
 40000000 000000303276 PRE9           *16
 40000000 000000000522 PREXC          *16
 40000000 000000000521 PRFR           *16
 40000000 000000000521 PRFR2          *16
 40000000 000000000000 PRIV           *16
 01101000 000000000052 PRNR            68       *84
 40000000 000000000526 PROPA          *16
 40000000 000000000517 PRRC           *16
 40000000 000000000517 PRRS           *16
 40000000 000000000520 PRSC           *16
 40000000 000000000516 PRSS           *16
 40000000 000000000644 PRSTS          *16
 40000000 000000000100 PS             *16
 41000000 000000000000 PS0SID         *15
 41000000 000000000001 PS1SID         *15
 41000000 000000000002 PS2SID         *15
 41000000 000000000003 PS3SID         *15
 41000000 000000000004 PS4SID         *15
 40000000 000000000005 PS5SID         *15
 40000000 000000000006 PS6SID         *15
 40000000 000000303416 PSA            *16
 40000000 000000000020 PSC            *16
 40000000 000000000010 PSD            *16
 40000000 000000000004 PSF            *16
 40000000 000000000400 PSO            *16
 40000000 000000000720 PTESZ          *16
 40000000 000000000631 PTR            *16
 40000000 000000000724 PTRESZ         *16
 40000000 000000000710 PTRNO          *16
 41000000 000000000630 PWS            *16
 01101000 000000000005 QCOM            30       *34
 12:48 09/05/97  FILE=ZIM$DBIV.:ZIC0TSI       SYMBOL TABLE                                               29   BMAP - B00
 40000000 000000000002 RADDR          *16
 40000000 000000000010 RADIX          *16
 40000000 000000000005 RAPTR          *16
 40000000 000000000004 RAWSOF         *16
 40000000 777777777766 RBA            *16
 40000000 000000023432 RCBI           *16
 40000000 000000211234 RCDNL          *16
 40000000 000000000005 RCFRH          *16
 40000000 000000000004 RCFRN          *16
 40000000 000000001075 RCHD           *16
 40000000 000000000001 RCID           *16
 40000000 000000000006 RCPTR          *16
 40000000 000000000002 RCRAH          *16
 40000000 000000000001 RCRAN          *16
 40000000 000000000003 RCRSH          *16
 40000000 000000000002 RCRSN          *16
 40000000 000000210667 RCVER1         *16
 40000000 000000210670 RCVER2         *16
 40000000 000000210671 RCVER4         *16
 40000000 000000210672 RCVER5         *16
 40000000 000000210673 RCVER6         *16
 40000000 000000000736 RCW1           *16
 40000000 000000000737 RCW2           *16
 40000000 000000000004 RCWSO          *16
 40000000 000000000077 RDAC           *16
 40000000 000000000076 RDCNT          *16
 40000000 000000040000 RDI            *16
 40000000 000000015674 RDLT           *16
 40000000 000000000075 RDYCW          *16
 40000000 000000000066 RECAC          *16
 40000000 000000000065 RECFR          *16
 40000000 000000000070 RECRC          *16
 40000000 000000000067 RECSC          *16
 40000000 000000000003 RECSZ          *16
 40000000 000000000235 REMLT          *16
 40000000 000000000062 REM_RECOVER    *16
 40000000 000000000251 RETFR          *16
 12:48 09/05/97  FILE=ZIM$DBIV.:ZIC0TSI       SYMBOL TABLE                                               30   BMAP - B00
 40000000 000000210724 RFDNL          *16
 40000000 000000017644 RIM            *16
 40000000 000000000005 RNAM           *16
 40000000 000000015706 RNDLT          *16
 40000000 000000000662 RNG1           *16
 40000000 000000000664 RNG2           *16
 40000000 000000000073 RNGD           *16
 40000000 000000000072 RNGO           *16
 40000000 000000000660 RNGTAL         *16
 40000000 000000020154 RNM            *16
 40000000 000000000041 ROCUR          *16
 40000000 000000000001 ROFST          *16
 40000000 000000002114 ROLL           *16
 40000000 000000020010 RPM            *16
 40000000 000000000001 RSCDH          *16
 40000000 000000000001 RSCDN          *16
 40000000 000000211710 RSDNL          *16
 40000000 000000004540 RSEE           *16
 40000000 000000000003 RSIZ           *16
 40000000 000000000110 RSPAM          *16
 40000000 000000000004 RSPTR          *16
 40000000 000000000037 RSREQ          *16
 40000000 000000000002 RSSSH          *16
 40000000 000000000001 RSSSN          *16
 40000000 000000210574 RSZER          *16
 40000000 000000000632 RSZTP          *16
 40000000 000000000003 RTP            *16
 40000000 000000000003 RTYP           *16
 40000000 000000000530 RV1            *16
 40000000 000000000550 RV2            *16
 40000000 000000000570 RV3            *16
 40000000 000000000610 RV4            *16
 40000000 000000000003 RVASID         *15
 40000000 000000000510 RVI            *16
 40000000 000000000511 RVO            *16
 40000000 000000000513 RVPA           *16
 40000000 000000000512 RVT            *16
 12:48 09/05/97  FILE=ZIM$DBIV.:ZIC0TSI       SYMBOL TABLE                                               31   BMAP - B00
 40000000 000000000022 RVTAL          *16
 40000000 000000000002 RWSZ           *16
 40000000 000000000015 RY             *16
 40000000 000000210620 RYE1           *16
 40000000 000000210621 RYE4           *16
 40000000 777777777767 SA             *16
 40000000 000000000005 SANAM          *16
 40000000 000000001062 SCDES          *16
 40000000 000000211544 SCDNL          *16
 40000000 000000000024 SCFC           *16
 40000000 000000000002 SCID           *16
 40000000 000000000024 SCLST          *16
 40000000 000000000004 SCNAM          *16
 40000000 000000000004 SCPTR          *16
 40000000 000000000003 SCRSH          *16
 40000000 000000000002 SCRSN          *16
 40000000 000000000001 SCWSO          *16
 40000000 000000001225 SFWS           *16
 01101000 000000000077 SIL1          *129       162
 01101000 000000000162 SIR1           191      *193
 40000000 000000001073 SIZCHG         *16
 40000000 000000000645 SKFLG          *16
 40000000 000000000643 SKIND          *16
 40000000 000000000641 SKTYP          *16
 40000000 000000020464 SMCR           *16
 01101000 000000000056 SMWE1           72       *94
 40000000 000000000003 SNAM           *16
 40000000 000000000107 SNIND          *16
 40000000 000000000735 SNPAE          *16
 41000000 000000001046 SNSI           *16       117       148       149       155       178
 40000000 000000000743 SOE            *16
 40000000 000000020630 SORSA          *16
 40000000 000000004374 SOSE           *16
 41000000 000000000000 SPAV           *16        33
 40000000 000000000744 SPCAVN         *16
 40000000 000000000744 SPCAVO         *16
 01101000 000000000144 SPCFD          152       156      *166
 12:48 09/05/97  FILE=ZIM$DBIV.:ZIC0TSI       SYMBOL TABLE                                               32   BMAP - B00
 40000000 000000000765 SPLF           *16
 41000000 000000000765 SPND           *16
 40000000 000000000006 SSDT           *16
 40000000 000000303243 SSER           *16
 40000000 000000303244 SSER1          *16
 40000000 000000000002 SSH            *16
 40000000 000000000005 SSNAM          *16
 40000000 000000210573 SSNF           *16
 40000000 000000210576 SSNV           *16
 40000000 000000000020 SSSPTR         *16
 40000000 000000000010 SSVDT          *16
 40000000 000000000033 SSZTP          *16
 40000000 000000000017 ST             *16
 40000000 000000000104 STBIN          *16
 40000000 000000000105 STDEC          *16
 40000000 000000303302 STE1           *16
 40000000 000000303303 STE2           *16
 40000000 000000210624 STE3           *16
 40000000 000000303305 STE4           *16
 40000000 000000303306 STE5           *16
 41000000 000000000100 STKSIZ         *16
 40000000 000000000055 STMASK         *16
 40000000 000000000062 SUST           *16
 41000000 000000000020 SWS            *16
 40000000 000000000000 SWSAC          *16
 40000000 000000000002 SWSZ           *16
 40000000 000000000000 SYSSF          *16
 40000000 000000000765 SZREQ          *16
 40000000 000000000004 TBUF           *16
 40000000 000000001061 TCTRS          *16
 60000000 000000000000 TDS            *16
 41000000 000000000113 TEMP           *16
 40000000 000000000640 TFLD           *16
 40000000 000000000657 TFLD2          *16
 40000000 000000000056 TMASK          *16
 40000000 000000000061 TMODE          *16
 40000000 000000000676 TMPPA          *16
 12:48 09/05/97  FILE=ZIM$DBIV.:ZIC0TSI       SYMBOL TABLE                                               33   BMAP - B00
 40000000 000000000003 TPAI           *16
 40000000 000000500000 TPRCOD         *16
 40000000 000000001031 TSFN           *16
 40000000 000000000021 TSI            *16
 40000000 000000001013 UBRD2          *16
 41000000 000000001223 UBSZ           *16
 40000000 000000000667 UCADR          *16
 40000000 000000000036 UCRS           *16
 40000000 000000000024 UFSPK          *16
 40000000 000000000024 UFSPK2         *16
 01101000 000000000057 UIR1            86        89        95       *97
 40000000 000000000715 ULIM           *16
 40000000 000000004230 UNA            *16
 40000000 000000303417 UNIM           *16
 40000000 000000000002 UOFST          *16
 40000000 000000001035 UPACD          *16
 40000000 000000000721 UPACW          *16
 40000000 000000000007 UPFLAG         *16
 40000000 000000000103 UPPAI          *16
 40000000 000000000004 UPTSID         *15
 40000000 000000000674 USTAT          *16
 40000000 000000000002 UWASID         *15
 40000000 000000000002 UWSSZ          *16
 40000000 000000000020 UWSZ           *16
 40000000 000000000243 VFDSC          *16
 40000000 000000001070 VFDSR          *16
 40000000 000000000656 VFLD           *16
 40000000 000000001074 VFLNG          *16
 40000000 000000001124 VIB1           *16
 40000000 000000001154 VIBP           *16
 40000000 000000000000 VLPSID         *15
 40000000 000000001074 VRSIZ          *16
 40000000 000000001067 WLOA           *16
 40000000 000000100000 WRTI           *16
 40000000 000000000000 WSBID          *16
 41000000 000000000003 WSOF           *16        61       135
 41000000 000000000000 X0             *15        35
 12:48 09/05/97  FILE=ZIM$DBIV.:ZIC0TSI       SYMBOL TABLE                                               34   BMAP - B00
 41000000 000000000001 X1             *15        28        32        65        72        73        74
                                       80       116       118       141       143       144       154
                                      155       167       172       178
 40000000 000000000002 X2             *15
 40000000 000000000003 X3             *15
 41000000 000000000004 X4             *15       117
 40000000 000000000005 X5             *15
 40000000 000000000006 X6             *15
 02201004 000000000000 X66_ARET       *15
 02201003 000000000000 X66_AUTO_0     *15
 41000000 000000000007 X7             *15        61       135
 40000000 000000210665 XASL           *16
 40000000 000000303420 XLD            *16
 40000000 000000303421 XPD            *16
 40000000 000000000676 XPRS           *16
 40000000 000000210666 XROLL          *16
 40000000 000000210664 XUNEX          *16
 40000000 777777777777 XXDPN          *16
 03201005 000000000000 ZIB$ICALT     *100      *196
 03201006 000000000000 ZIB$ICEXC     *181
 02201002 000000000000 ZIQ$DBIOG      *14
 03201001 000000000000 ZIQ$DBIOM      *13        72
 03201000 000000000000 ZIQ$DBIOR      *13        65       141
 12101000 000000000062 ZIQ$DBISI       12      *115
 12101000 000000000003 ZIQ$DBIUI       11       *31
 12101000 000000000000 ZIQ$DBIUL       10       *27

     944 SYMBOLS

 12:48 09/05/97  FILE=ZIM$DBIV.:ZIC0TSI       MACRO TABLE                                                35   BMAP - B00
 CBSYM           16
 DBCAL           65        72       141
 ICALT          100       196
 ICCAL           65        72       141
 ICEXC          181
 ICRET           80       172
 ICSAV           28        32       116
 Q2SYM           16
 SSSYM           16

      37 MACROS

    SYMBOL SPACE USED  9027 WORDS
     MACRO SPACE USED 13057 WORDS
   INPUT RECORDS READ  2196
 STATEMENTS PROCESSED  2098
         ELAPSED TIME  0:10.12
             CPU TIME     9.72 SEC.
        ASSEMBLY RATE 12951 STATEMENTS/CPU MIN.

      NO ERRORS

