
 12:48 09/05/97  FILE=ZIM$DBKI.:ZIC0TSI                                                                  1    BMAP - B00
                                         1  *M*      ZIG$DBKI
                                         2  *T***********************************************************
                                         3  *T*                                                         *
                                         4  *T* Copyright (c) Bull HN Information Systems Inc., 1997    *
                                         5  *T*                                                         *
                                         6  *T***********************************************************

 12:48 09/05/97  FILE=ZIM$DBKI.:ZIC0TSI       H6600H2.552     IDS/II FIND USING KEY IN INDEX 780113DBKI  2    BMAP - B00
                                         7         TTL     H6600H2.552     IDS/II FIND USING KEY IN INDEX 780113DBKI
                                         8         CPR     1977
                                         9         PMC     OFF
                                        10  *
                                        11         ENTDEF  ZIG$DBFUI
                                        12  *
                                        13         ENTREF  ZIG$DBGRS
                                        14         ENTREF  ZIQ$DBMAS
                                        15         ENTREF  ZIG$DBUPC
                                        16           ENTREF      ZIM$KFIND
                                        17           ENTREF      ZIM$IFIND
                                        18         ENTREF  ZIG$DBUSR
                                        19         ENTREF  ZIG$DBXKU
                                        20  *
                                        21         LODM    Q2MA
                                        22  *
                                        23         Q2SYM
                                        24  *

 12:48 09/05/97  FILE=ZIM$DBKI.:ZIC0TSI       FIND USING KEY IN INDEX                                    3    BMAP - B00
                                        25         TTLS    FIND USING KEY IN INDEX
                                        26  *
                                        27  ****************************************************************
                                        28  *
                                        29  *  - DBFUI -
                                        30  *
                                        31  *      FIND.  Find using record key.  (Key in index.)
                                        32  *
                                        33  *      Parameter   Description
                                        34  *      ---------   -----------
                                        35  *
                                        36  *          0       IA
                                        37  *          1       UWA
                                        38  *          2       FPT
                                        39  *
                                        40  *      FPT Format...
                                        41  *
                                        42  *      Word 0:  RVA offset to a schema subset element which
                                        43  *          describes a data base record which has one or more
                                        44  *          record keys (either a location key or an
                                        45  *          alternate record key.)
                                        46  *      Word 1:  RVA offset to a schema subset element which
                                        47  *          describes a record key.
                                        48  *      Word 2:  Retention List Control Word
                                        49  *      Words 3->M:  Retention List.  RVA offsets to the
                                        50  *          schema subset elements which describe the sets
                                        51  *          for which currencies are to be retained.
                                        52  *
                                        53  ****************************************************************
                                        54  *
                                        55  *          describes a set.
 0 000000                               56  ZIG$DBFUI NULL
   000000  X 000000 7000 00             57           DBSAV
   000001    000004 000000
   000002    7 00247 4501 00            58         STZ     PCEXI,,PR7      INIT PARTIAL COMPARE INDICATOR
                                        59  * GET RC PTR
   000003    000000 4704 07             60         LDP    PR0,VLPSID,DL            VLP$
 12:48 09/05/97  FILE=ZIM$DBKI.:ZIC0TSI       FIND USING KEY IN INDEX                                    4    BMAP - B00
   000004    000003 2350 03             61           LDA      3,DU                 Offset to retention list
   000005    0 00002 2751 00            62           ORA      2,,PR0               or in RLCW
   000006    5 00025 7551 00            63           STA      GRLCW,,PR5           Save it
   000007    000003 4714 07             64           LDP      PR1,RVASID,DL           RVA$
   000010    0 00000 2271 00            65         LDX     X7,0,,PR0            Get offset to RC pointer from FPT
   000011    1 00000 2271 17            66           LDX      X7,,X7,PR1           Get RC offset from RVA
   000012    0 00001 2261 00            67         LDX     X6,1,,PR0            Get offset to SC pointer from FPT
   000013    1 00000 2261 16            68           LDX      X6,,X6,PR1           Get SC offset from RVA
                                        69         IFE     A,1,%CK1
   000014    6 00000 2211 17            70         LDX     X1,DEF,X7,PR6   GET DEF TYPE FROM RC
   000015    100000 3010 03             71         CANX    X1,.RC,DU       IS IT AN RC
   000016 (0)000122 6000 00             72         TZE     CALE1           NO - CALL ERROR
   000017    6 00000 2211 16            73         LDX     X1,DEF,X6,PR6   GET DEF TYPE FROM SC
   000020    040000 3010 03             74         CANX    X1,.SC,DU       IS IT AN SC
   000021 (0)000122 6000 00             75         TZE     CALE2           NO - CALL ERROR
                                        76  CK1    MARK
                                        77  *  CHECK THAT RECORD IS IN SUBSCHEMA
   000022    6 00000 7211 17            78         LXL     X1,DEF,X7,PR6
   000023    100000 3010 03             79         CANX    X1,.SR,DU       IS IT IN SS
   000024 (0)000127 6010 00             80         TNZ     RNSSE           NO - ERROR
                                        81  * CHECK THAT SET IS IN SUBSCHEMA
   000025    6 00000 7211 16            82         LXL     X1,DEF,X6,PR6
   000026    020000 3010 03             83         CANX    X1,.SNSS,DU     IS IT IN SS
   000027 (0)000133 6010 00             84         TNZ     SNSSE           NO - ERROR
                                        85  *  CHECK RECORD PRIVACY
   000030    6 00004 2211 17            86         LDX     X1,RCWSO,X7,PR6  GET WORK SPACE OFST FOR RC
   000031    7 00000 2211 11            87         LDX     X1,PRIV,X1,PR7
   000032    000004 3010 03             88         CANX    X1,PF,DU        IS PRIVACY SATISFIED
   000033 (0)000137 6000 00             89         TZE     PRER1           NO - ERROR
                                        90  *  GET RS
   000034  X 000000 7010 00             91         DBCAL   ZIG$DBGRS,,CLER1 FIND RS PTR
   000035 (0)000145 7020 00
   000036    5 00006 2341 00
   000037    777776 6010 04
   000040    7 00516 7451 00            92         STX     X5,PRSS,,PR7    SAVE RS PTR FOR MOVE KEY PRIM
                                        93  *  SELECT AREA
   000041  X 000000 7010 00             94         ICCAL   ZIQ$DBMAS,,SAER1
 12:48 09/05/97  FILE=ZIM$DBKI.:ZIC0TSI       FIND USING KEY IN INDEX                                    5    BMAP - B00
   000042 (0)000145 7020 00
   000043    5 00006 2341 00
   000044    777776 6010 04
                                        95  *  PUT IN ARGUMENTS FOR FIND USING KEY PRIMITIVE
   000045    7 00510 2231 00            96         LDX     X3,RVI,,PR7     REC VAR IN
   000046    7 00005 7401 13            97         STX     X0,ACPTR,X3,PR7  SAVE AC PTR
   000047    000000 4704 07             98         LDP    PR0,VLPSID,DL            VLP$
   000050    000003 4714 07             99           LDP      PR1,RVASID,DL           RVA$
   000051    0 00000 2271 00           100         LDX     X7,0,,PR0            Get offset to RC pointer from FPT
   000052    1 00000 2271 17           101           LDX      X7,,X7,PR1           Get RC offset from RVA
   000053    7 00517 7471 00           102         STX     X7,PRRC,,PR7    SAVE IN PRIM REQUEST
   000054    0 00001 2261 00           103         LDX     X6,1,,PR0            Get offset to SC pointer from FPT
   000055    1 00000 2261 16           104           LDX      X6,,X6,PR1           Get SC offset from RVA
   000056    7 00520 7461 00           105         STX     X6,PRSC,,PR7    SAVE IN PRIM REQUEST
                                       106  *  CALL PRIMITIVE TO MOVE KEYS FROM UWA TO KEY PROCESS AREA
   000057  X 000000 7010 00            107         DBCAL   ZIG$DBXKU,,MVER1 MOVE KEY
   000060 (0)000145 7020 00
   000061    5 00006 2341 00
   000062    777776 6010 04
                                       108  *  CALL FIND WITH KEY PRIMITIVE
   000063    7 00517 2201 00           109           LDX      X0,PRRC,,PR7         Get Record descriptor
   000064    6 00000 2211 10           110           LDX      X1,DEF,X0,PR6        Get def word
   000065    000007 3610 03            111           ANX      X1,.PSTO,DU          Isolate
   000066    000004 1010 03            112           CMPX     X1,4,DU              Is it indexed
   000067 (0)000077 6000 00            113           TZE      IFIND                Yes
   000070  X 000000 7010 00            114           DBCAL    ZIM$KFIND,FKPC,FKER1 Find with key
   000071 (0)000146 7020 00
   000072    5 00006 2341 00
   000073    000003 6000 04
   000074    5 00006 4501 00
   000075 (0)000106 7020 00
   000076 (0)000107 7100 00            115         TRA     UPCR            CONTINUE
   000077                              116  IFIND    NULL
   000077  X 000000 7010 00            117           DBCAL    ZIM$IFIND,FKPC,FKER1 Find with key
   000100 (0)000146 7020 00
   000101    5 00006 2341 00
   000102    000003 6000 04
 12:48 09/05/97  FILE=ZIM$DBKI.:ZIC0TSI       FIND USING KEY IN INDEX                                    6    BMAP - B00
   000103    5 00006 4501 00
   000104 (0)000106 7020 00
   000105 (0)000107 7100 00            118           TRA      UPCR                 Continue
                                       119  *  PARTIAL COMPARE - SAVE CODE AND PTRS AND THEN FINISH
                                       120  *    PROCESSING STATEMENT
   000106                              121  FKPC   NULL
   000106    7 00247 7501 00           122         STC2    PCEXI,,PR7      SET PARTIAL COMPARE INDICATOR
                                       123  *  Record found - update currencies
   000107                              124  UPCR     NULL
   000107  X 000000 7010 00            125           ICCAL    ZIG$DBUPC,,UCERR     Update currencies
   000110 (0)000145 7020 00
   000111    5 00006 2341 00
   000112    777776 6010 04
                                       126  *  MOVE NAMES TO SPECIAL REGISTERS
   000113  X 000000 7010 00            127         DBCAL   ZIG$DBUSR,,USRER
   000114 (0)000145 7020 00
   000115    5 00006 2341 00
   000116    777776 6010 04
                                       128  *  IF IT WAS A PARTIAL COMPARE, TAKE ERROR RETURN
   000117    7 00247 2341 00           129         SZN     PCEXI,,PR7      IS IT A PARTIAL COMPARE
   000120 (0)000143 6010 00            130         TNZ     PCER1           YES-SET EXCEPTION CODE
                                       131  *  NORMAL RETURN
   000121  X 000000 7020 00            132           DBRET
                                       133  *
                                       134  *  ERRORS DETECTED IN THIS ROUTINE
                                       135  *
                                       136         IFE     A,1,%CK1
   000122                              137  CALE1  NULL                    ERROR IN CALLING ARGUMENT - RC
   000122                              138  CALE2  NULL                    ERROR IN CALLING ARGUMENT - SC
   000122    210562 2350 07            139         LDA     ARGER,DL
   000123    000000 6200 00            140         EAX     X0,0            NULL AC
   000124    000000 6260 00            141         EAX     X6,0            NULL SC
   000125    000000 6270 00            142         EAX     X7,0            NULL RC
   000126 (0)000147 7100 00            143         TRA     KICER
                                       144  CK1    MARK
   000127                              145  RNSSE  NULL                    RECORD NOT IN SUBSCHEMA
   000127    010150 2350 07            146         LDA     IRSN,DL
 12:48 09/05/97  FILE=ZIM$DBKI.:ZIC0TSI       FIND USING KEY IN INDEX                                    7    BMAP - B00
   000130    000000 6200 00            147         EAX     X0,0            NULL AC
   000131    000000 6260 00            148         EAX     X6,0            NULL SC
   000132 (0)000147 7100 00            149         TRA     KICER
   000133                              150  SNSSE  NULL                    SET NOT IN SUBSCHEMA
   000133    010150 2350 07            151         LDA     IRSN,DL
   000134    000000 6200 00            152         EAX     X0,0            NULL AC
   000135    000000 6270 00            153         EAX     X7,0            NULL RC
   000136 (0)000147 7100 00            154         TRA     KICER
   000137                              155  PRER1  NULL                    RECORD PRIVACY NOT SATISFIED
   000137    257764 2350 07            156         LDA     LR,DL
   000140    000000 6200 00            157         EAX     X0,0            NULL AC
   000141    000000 6260 00            158         EAX     X6,0            NULL SC
   000142 (0)000147 7100 00            159         TRA     KICER
   000143                              160  PCER1  NULL                    PARTIAL COMPARE
                                       161  *  CODE AND PTRS SAVED PREVIOUSLY
   000143    004541 2350 07            162           LDA   PCOMP,DL       Partial compare
   000144 (0)000147 7100 00            163         TRA     KICER
                                       164  *
                                       165  *  ERRORS DETECTED IN SUBORDINATE ROUTINES
                                       166  *
   000145                              167  CLER1  NULL                    FIND RS ERROR
   000145                              168  SAER1  NULL                    SELECT AREA ERROR
   000145                              169  MVER1  NULL                    MOVE KEY TO PROCESS AREA ERROR
   000145                              170  UCERR  NULL                    UPDATE CURRENCIES ERROR
   000145                              171  UKERR  NULL                    UPDATE CURRENT OF KEY ERROR
   000145                              172  USRER  NULL                    UPDATE SPECIAL REGISTERS ERROR
   000145                              173  ASTE1  NULL                    ACCUMULATE STATISTICS ERROR
   000145 (0)000147 7100 00            174         TRA     KICER
                                       175  *
                                       176  *  ERRORS DETECTED IN PRIMITIVES
                                       177  *
   000146                              178  FKER1  NULL                    FIND WITH KEY ERROR
   000146 (0)000147 7100 00            179         TRA     KICER
                                       180  *
                                       181  *  COMMON ERROR RETURN
                                       182  *
   000147  X 000000 7020 00            183  KICER    DBALT
 12:48 09/05/97  FILE=ZIM$DBKI.:ZIC0TSI       FIND USING KEY IN INDEX                                    8    BMAP - B00
                                       184         END

  CONTROL SECTION TABLE

   0 CODE   EVEN  000150
   1 RODATA EVEN  000000 LITERALS

 12:48 09/05/97  FILE=ZIM$DBKI.:ZIC0TSI       SYMBOL TABLE                                               9    BMAP - B00
 40000000 000000200000 .AC            *23
 40000000 000000000100 .AG            *23
 40000000 000000002000 .ALTO          *23
 40000000 000000000077 .ANL           *23
 40000000 000000200000 .APDN          *23
 40000000 000000000100 .ATMP          *23
 40000000 000000400000 .AV            *23
 40000000 000000400000 .B0            *23
 40000000 000000200000 .B1            *23
 40000000 000000000200 .B10           *23
 40000000 000000000100 .B11           *23
 40000000 000000000040 .B12           *23
 40000000 000000000020 .B13           *23
 40000000 000000000010 .B14           *23
 40000000 000000000004 .B15           *23
 40000000 000000000002 .B16           *23
 40000000 000000000001 .B17           *23
 40000000 000000400000 .B18           *23
 40000000 000000200000 .B19           *23
 40000000 000000100000 .B2            *23
 40000000 000000100000 .B20           *23
 40000000 000000040000 .B21           *23
 40000000 000000020000 .B22           *23
 40000000 000000010000 .B23           *23
 40000000 000000004000 .B24           *23
 40000000 000000002000 .B25           *23
 40000000 000000001000 .B26           *23
 40000000 000000000400 .B27           *23
 40000000 000000000200 .B28           *23
 40000000 000000000100 .B29           *23
 40000000 000000040000 .B3            *23
 40000000 000000000040 .B30           *23
 40000000 000000000020 .B31           *23
 40000000 000000000010 .B32           *23
 40000000 000000000004 .B33           *23
 40000000 000000000002 .B34           *23
 40000000 000000000001 .B35           *23
 12:48 09/05/97  FILE=ZIM$DBKI.:ZIC0TSI       SYMBOL TABLE                                               10   BMAP - B00
 40000000 000000020000 .B4            *23
 40000000 000000010000 .B5            *23
 40000000 000000004000 .B6            *23
 40000000 000000002000 .B7            *23
 40000000 000000001000 .B8            *23
 40000000 000000000400 .B9            *23
 40000000 000000000001 .BREAK         *23
 40000000 000000010000 .BRK           *23
 40000000 000000020000 .BTB           *23
 40000000 000000000001 .CAC           *23
 40000000 000000000000 .CAE           *23
 40000000 000000000200 .CANSSS        *23
 40000000 000000000400 .CD            *23
 40000000 000000040000 .CFLC          *23
 40000000 000000400000 .CHKSUM        *23
 40000000 000000100000 .CJRNL         *23
 40000000 000000000077 .CNSZ          *23
 40000000 000000160000 .COMC          *23
 40000000 000000000020 .CONT          *23
 40000000 000000000000 .CSE           *23
 40000000 000000700000 .CTYP          *23
 41000000 000000000270 .DBEST         *23
 41000000 000000000470 .DBIC          *23
 40000000 000000077777 .DBPT          *23
 41000000 000000000370 .DBSTK         *23
 40000000 000000020000 .DELM          *23
 40000000 000000002000 .DIDP          *23
 40000000 000000000077 .DNDX          *23
 40000000 000000600000 .DORD          *23
 40000000 000000000200 .DP            *23
 40000000 000000100000 .DPS           *23
 40000000 000000200000 .DPSA          *23
 40000000 000000400000 .DPST          *23
 40000000 000000000002 .DUMP          *23
 40000000 000000002000 .DUPC          *23
 40000000 000000010000 .DUPP          *23
 40000000 000000200000 .EBCL          *23
 12:48 09/05/97  FILE=ZIM$DBKI.:ZIC0TSI       SYMBOL TABLE                                               11   BMAP - B00
 40000000 000000400000 .EBCM          *23
 40000000 000000200000 .ENCRP         *23
 40000000 000000000077 .ENDX          *23
 40000000 000000000400 .ENQ           *23
 40000000 000000004000 .ETC           *23
 40000000 000000000400 .EXIT          *23
 40000000 000000000200 .FMOD          *23
 40000000 000000000077 .FNL           *23
 40000000 000000000074 .FORG          *23
 40000000 000000002000 .FR            *23
 40000000 000000000100 .FSR           *23
 40000000 000000003400 .FUSE          *23
 40000000 000000010000 .FVF           *23
 40000000 000000040000 .FVR           *23
 40000000 000000000010 .INDEXED       *23
 40000000 000000777777 .IXID          *23
 40000000 000000001777 .IXNUM         *23
 40000000 000000000004 .KEYED         *23
 40000000 000000010000 .LCK           *23
 40000000 000000400000 .LEIL          *23
 40000000 000000001000 .LG            *23
 40000000 000000000002 .LOAD          *23
 40000000 000000020000 .MAR           *23
 40000000 000000000007 .MEMT          *23
 40000000 000000010000 .MRL           *23
 40000000 000000040000 .MSM           *23
 60000000 000000000001 .N6685         *23
 40000000 000000100000 .NAI           *23
 40000000 000000200000 .NBI           *23
 40000000 000000000002 .NCIA          *23
 40000000 000000040000 .NMV           *23
 40000000 000000017777 .NOENT         *23
 40000000 000000400000 .OA            *23
 40000000 000000740000 .OPEV          *23
 40000000 000000100000 .OSM           *23
 40000000 000000100000 .PAFIL         *23
 40000000 000000200000 .PAHVR         *23
 12:48 09/05/97  FILE=ZIM$DBKI.:ZIC0TSI       SYMBOL TABLE                                               12   BMAP - B00
 40000000 000000000001 .PAIA          *23
 40000000 000000040000 .PALIL         *23
 40000000 000000020000 .PALVR         *23
 40000000 000000400000 .PANLL         *23
 40000000 000000400000 .PCKD          *23
 40000000 000000001600 .PMOD          *23
 40000000 000000000520 .PRCSE         *23
 41000000 000000000007 .PSTO          *23       111
 40000000 000000006040 .PTAS          *23
 40000000 000000010100 .PTCHK         *23
 40000000 000000010200 .PTDEC         *23
 40000000 000000010140 .PTENC         *23
 40000000 000000020000 .RA            *23
 41000000 000000100000 .RC            *23        71
 40000000 000000400000 .RELEASE       *23
 40000000 000000000017 .RELT          *23
 40000000 000000004000 .RERA          *23
 40000000 000000400000 .RERS          *23
 40000000 000000010000 .RKEY          *23
 40000000 000000000077 .RNL           *23
 40000000 000000200000 .RSTO          *23
 40000000 000000007777 .RTYP          *23
 41000000 000000040000 .SC            *23        74
 40000000 000000000070 .SETM          *23
 40000000 000000740000 .SETO          *23
 40000000 000000000700 .SETT          *23
 40000000 000000040000 .SFNP          *23
 40000000 000000004000 .SM            *23
 40000000 000000020000 .SMOD          *23
 40000000 000000000077 .SNL           *23
 41000000 000000020000 .SNSS          *23        83
 40000000 000000010000 .SO            *23
 41000000 000000100000 .SR            *23        79
 40000000 000000004000 .SRCR          *23
 40000000 000000001000 .SS            *23
 40000000 000000000007 .SSTP          *23
 40000000 000000004000 .SYN           *23
 12:48 09/05/97  FILE=ZIM$DBKI.:ZIC0TSI       SYMBOL TABLE                                               13   BMAP - B00
 40000000 000000000040 .SYNC          *23
 40000000 000000020000 .TJRNL         *23
 40000000 000000040000 .TMPLT         *23
 40000000 000000040000 .TRACE         *23
 40000000 000000000001 .TRENTRY       *23
 40000000 000000000012 .TRIDEL        *23
 40000000 000000000021 .TRIDELENQ     *23
 40000000 000000000024 .TRIDEQ        *23
 40000000 000000000013 .TRIMOD        *23
 40000000 000000000022 .TRIMODENQ     *23
 40000000 000000000014 .TRIREAD       *23
 40000000 000000000023 .TRIREADENQ    *23
 40000000 000000000011 .TRISTO        *23
 40000000 000000000020 .TRISTOENQ     *23
 40000000 000000000017 .TRPDEQ        *23
 40000000 000000000004 .TRPMOD        *23
 40000000 000000000016 .TRPMODENQ     *23
 40000000 000000000002 .TRPREAD       *23
 40000000 000000000015 .TRPREADENQ    *23
 40000000 000000000003 .TRPWRITE      *23
 40000000 000000000010 .TRRACC        *23
 40000000 000000000006 .TRRDEL        *23
 40000000 000000000007 .TRRMOD        *23
 40000000 000000000005 .TRRSTO        *23
 40000000 000000004000 .ULCK          *23
 40000000 000000400000 .UPDT          *23
 40000000 000000000040 .VIA           *23
 61000000 000000000001 A              *23        69       136
 40000000 000000000002 ABAS           *23
 40000000 000000000001 AC             *23
 40000000 777777777760 ACDEF          *23
 40000000 000000211070 ACDNL          *23
 40000000 000000000003 ACID           *23
 40000000 000000001016 ACOPN          *23
 40000000 000000000002 ACP            *23
 41000000 000000000005 ACPTR          *23        97
 40000000 000000000002 ACRAH          *23
 12:48 09/05/97  FILE=ZIM$DBKI.:ZIC0TSI       SYMBOL TABLE                                               14   BMAP - B00
 40000000 000000000001 ACRAN          *23
 40000000 000000001003 ACREC          *23
 40000000 000000000001 ACTDBCB        *23
 40000000 000000000002 ACTDBNO        *23
 40000000 000000001017 ACTP           *23
 40000000 000000000000 ACTSSS         *23
 40000000 000000000000 ACTSZ          *23
 40000000 000000210565 AFNP           *23
 40000000 000000000635 AFT            *23
 40000000 000000022124 AIR            *23
 40000000 000000000016 AMAX           *23
 40000000 000000000026 ANAM           *23
 40000000 000000021614 ANR            *23
 40000000 000000000001 APNO           *23
 41000000 000000210562 ARGER          *23       139
 41000000 000000000020 ARGS           *23
 40000000 000000000077 ARGS2          *23
 40000000 000000210713 ARNAF          *23
 00101000 000000000145 ASTE1         *173
 40000000 000000000003 ATBL           *23
 40000000 000000000000 ATRIB          *23
 40000000 000000000002 AVLN           *23
 40000000 000000000013 AWS$           *23
 40000000 000000000010 AWSZ           *23
 60000000 000000000001 B              *23
 40000000 000000001006 B32N           *23
 40000000 000000001007 B36N           *23
 40000000 000000001056 B72N           *23
 40000000 000000000001 BADDR          *23
 40000000 000000210712 BADSEED        *23
 40000000 777777777765 BDCW           *23
 40000000 000000000633 BEF            *23
 40000000 000000020000 BEFW           *23
 40000000 000000000751 BEMT           *23
 40000000 777777777761 BID            *23
 40000000 777777777762 BIND           *23
 40000000 000000000007 BLKD           *23
 12:48 09/05/97  FILE=ZIM$DBKI.:ZIC0TSI       SYMBOL TABLE                                               15   BMAP - B00
 40000000 000000303331 BME02          *23
 41000000 000000001203 BMPB           *23
 40000000 000000000652 BN1            *23
 40000000 000000000654 BN2            *23
 40000000 000000000004 BPL            *23
 40000000 000000000015 BPLDBK         *23
 40000000 000000000034 BSPG           *23
 40000000 777777777763 BSTAT          *23
 40000000 000000000750 BTX0           *23
 41000000 000000001160 BUF4           *23
 41000000 000000001170 BUF6           *23
 41000000 000000000000 BUFORG         *23
 40000000 000000001060 BUFRQ          *23
 40000000 000000000006 BURRID         *23
 41000000 000000000020 BWASZ          *23
 60000000 000000000001 C              *23
 40000000 000000000050 CAAC           *23
 40000000 000000000050 CACD           *23
 40000000 000000000111 CAG            *23
 40000000 000000001033 CAL            *23
 01101000 000000000122 CALE1           72      *137
 01101000 000000000122 CALE2           75      *138
 40000000 000000000026 CALLPM0        *23
 40000000 000000000003 CANSSS         *23
 40000000 000000000003 CBCPA          *23
 40000000 000000000002 CBCPO          *23
 40000000 000000000002 CBENO          *23
 40000000 000000000014 CBFSZ          *23
 40000000 000000000753 CBIB           *23
 40000000 000000001030 CBID           *23
 40000000 000000000014 CBRCE          *23
 40000000 000000000014 CBRCP          *23
 40000000 000000001033 CBRID          *23
 40000000 000000000015 CBRPA          *23
 40000000 000000000031 CCHAR          *23
 40000000 000000000040 CDBK           *23
 40000000 000000000030 CDES           *23
 12:48 09/05/97  FILE=ZIM$DBKI.:ZIC0TSI       SYMBOL TABLE                                               16   BMAP - B00
 40000000 000000000110 CDP            *23
 40000000 000000001044 CDPSI          *23
 40000000 000000000002 CDRH           *23
 40000000 000000000003 CDRN           *23
 40000000 000000000002 CDSH           *23
 40000000 000000000003 CDSN           *23
 40000000 000000000722 CENTRN         *23
 40000000 000000000722 CENTRO         *23
 40000000 000000000716 CENTRY         *23
 41000000 000000001053 CFCT           *23
 40000000 000000000670 CFLPT1         *23
 40000000 000000000672 CFLPT2         *23
 40000000 000000000015 CFSA           *23
 40000000 000000000646 CHDBK          *23
 40000000 000000000773 CHR            *23
 40000000 000000000006 CHRD           *23
 40000000 000000000772 CHRO           *23
 40000000 000000007640 CHRTP          *23
 40000000 000000001043 CIAC           *23
 40000000 000000000012 CIAWS          *23
 40000000 000000001051 CIBSI          *23
 40000000 000000000516 CIND           *23
 40000000 000000001041 CINVSZ         *23
 40000000 000000001042 CIPG           *23
 40000000 000000001050 CIPSI          *23
 40000000 000000000000 CIRUN          *23
 40000000 000000000002 CIRWS          *23
 40000000 000000000002 CISWS          *23
 40000000 000000000014 CIWSOF         *23
 40000000 000000303374 CKSM           *23
 40000000 000000000022 CLCN           *23
 40000000 000000000023 CLCP           *23
 40000000 000000000003 CLCRC          *23
 40000000 000000000003 CLCSC          *23
 01101000 000000000145 CLER1           91      *167
 40000000 000000000237 CLI            *23
 40000000 000000000026 CLNG           *23
 12:48 09/05/97  FILE=ZIM$DBKI.:ZIC0TSI       SYMBOL TABLE                                               17   BMAP - B00
 40000000 000000000052 CMPL           *23
 40000000 000000000002 CN             *23
 40000000 000000303315 CNE1           *23
 40000000 000000006034 CNUL           *23
 40000000 000000100000 COB74          *23
 40000000 000000000001 COFS           *23
 40000000 000000000045 CONCD          *23
 40000000 000000007764 CP6PGSZB       *23
 41000000 000000001775 CP6PGSZW       *23
 40000000 000000001000 CPGR           *23
 40000000 000000000723 CPTRN          *23
 40000000 000000000723 CPTRO          *23
 60000000 000000000004 CPW            *23
 40000000 000000000112 CRA            *23
 40000000 000000001004 CRD            *23
 40000000 000000000764 CREC           *23
 40000000 000000006344 CRIT           *23
 40000000 000000006200 CRNUL          *23
 40000000 000000007330 CRST           *23
 41000000 000000001223 CRUN           *23
 41000000 000000000000 CSECT          *23
 40000000 000000000007 CSMPP          *23
 40000000 000000001000 CSPAC          *23
 40000000 000000000004 CSPAH          *23
 40000000 777777777776 CSPES          *23
 40000000 777777777776 CSPSB          *23
 40000000 000000000115 CSTS           *23
 40000000 000000000071 CSUB           *23
 40000000 000000000017 CSZ            *23
 40000000 000000000057 CTMASK         *23
 40000000 000000000774 CTPAI          *23
 40000000 000000000240 CURLN          *23
 40000000 000000000236 CURLT          *23
 40000000 000000000770 CURPG          *23
 40000000 000000000001 CURR           *23
 40000000 000000000035 CURRS          *23
 40000000 000000000037 CURSS          *23
 12:48 09/05/97  FILE=ZIM$DBKI.:ZIC0TSI       SYMBOL TABLE                                               18   BMAP - B00
 40000000 000000001005 CWRT           *23
 40000000 000000000237 CWSOF          *23
 60000000 000000000001 D              *23
 40000000 000000000003 DBAN           *23
 40000000 000000000036 DBDR           *23
 40000000 000000000037 DBFN           *23
 40000000 000000000754 DBK            *23
 40000000 000000000777 DBKAC          *23
 40000000 000000000000 DBKEY          *23
 40000000 000000000000 DBKL           *23
 40000000 000000007474 DBKN           *23
 41000000 000000000776 DBKR           *23
 40000000 000000000777 DBKRQ          *23
 40000000 000000000234 DBKSI          *23
 40000000 000000000651 DBKSR          *23
 40000000 000000000047 DBKYN          *23
 40000000 000000210652 DBLC01         *23
 40000000 000000210653 DBLC05         *23
 40000000 000000303334 DBLC07         *23
 40000000 000000210655 DBLD01         *23
 40000000 000000000010 DBLIM          *23
 40000000 000000000033 DBPKY          *23
 40000000 000000000023 DBRN           *23
 40000000 000000000013 DBSN           *23
 40000000 000000000001 DBST           *23
 40000000 000000000757 DCDSR          *23
 40000000 000000210650 DCE1           *23
 40000000 000000001053 DCPR           *23
 40000000 000000001053 DCPW           *23
 40000000 000000000015 DCTBL          *23
 40000000 000000000032 DDBK           *23
 40000000 000000000006 DDCB           *23
 40000000 000000011754 DDI            *23
 41000000 000000000000 DEF            *23        70        73        78        82       110
 40000000 000000000014 DEF2           *23
 40000000 000000303413 DELAK          *23
 40000000 000000000036 DELRS          *23
 12:48 09/05/97  FILE=ZIM$DBKI.:ZIC0TSI       SYMBOL TABLE                                               19   BMAP - B00
 40000000 000000000732 DEPCW          *23
 40000000 000000303414 DLDBK          *23
 40000000 000000210627 DLE1           *23
 40000000 000000303310 DLE2           *23
 40000000 000000210631 DLE3           *23
 40000000 000000016040 DNES           *23
 40000000 777777777777 DPAGN          *23
 40000000 000000000020 DPPI           *23
 40000000 000000000053 DPSLW          *23
 40000000 000000000003 DS             *23
 40000000 000000001063 DSDES          *23
 40000000 000000303316 DSE1           *23
 40000000 000000000735 DUSEPA         *23
 60000000 000000000001 E              *23
 40000000 000000303251 EDPER          *23
 40000000 000000000026 EEIND          *23
 40000000 000000000713 EFIND          *23
 40000000 000000001030 ELO            *23
 40000000 000000210711 ENCPNA         *23
 40000000 000000000007 ENCRP          *23
 40000000 000000000752 ENDSR          *23
 40000000 000000210647 ENE1           *23
 40000000 000000000716 ENIND          *23
 40000000 000000000013 ENTBL          *23
 40000000 000000000710 ENTNO          *23
 40000000 000000000712 ENTPTR         *23
 40000000 000000000717 ENTSZ          *23
 40000000 000000000711 ENTTYP         *23
 40000000 000000004064 EOSR           *23
 40000000 000000000004 ES             *23
 41000000 000000000100 ESTSZ          *23
 40000000 000000000725 ESZ            *23
 40000000 000000000005 ETCADR         *23
 40000000 000000000005 ETCDBNO        *23
 40000000 000000000064 EXCCD          *23
 40000000 000000234534 FALRT          *23
 40000000 000000001055 FBF72          *23
 12:48 09/05/97  FILE=ZIM$DBKI.:ZIC0TSI       SYMBOL TABLE                                               20   BMAP - B00
 40000000 000000001025 FBU61          *23
 40000000 000000001020 FBUF           *23
 40000000 000000001026 FBUF1          *23
 40000000 000000001027 FBUF4          *23
 40000000 000000001024 FBUF6          *23
 40000000 000000001022 FBUFM          *23
 40000000 000000001021 FBUFU          *23
 40000000 000000001023 FBUMD          *23
 40000000 000000000004 FCN            *23
 40000000 000000000051 FCNT           *23
 40000000 000000000002 FCP            *23
 40000000 000000000047 FCSS           *23
 40000000 000000000005 FD             *23
 40000000 000000210637 FDE1           *23
 40000000 000000303320 FDE2           *23
 40000000 000000303321 FDE3           *23
 40000000 000000210642 FDE4           *23
 40000000 000000210643 FDE5           *23
 40000000 000000210644 FDE6           *23
 40000000 000000303325 FDE7           *23
 40000000 000000303326 FDE8           *23
 40000000 000000000021 FEASZ          *23
 40000000 000000000740 FETM           *23
 40000000 000000000006 FI             *23
 40000000 000000000103 FIAC           *23
 41000000 000000001100 FIB1           *23
 41000000 000000001130 FIBP           *23
 40000000 000000000000 FIBX           *23
 40000000 000000000102 FICNT          *23
 40000000 000000000005 FIPN           *23
 01101000 000000000146 FKER1          114       117      *178
 40000000 000000000054 FKIND          *23
 01101000 000000000106 FKPC           114       117      *121
 40000000 000000000015 FLAGS          *23
 40000000 000000000244 FLDDSC         *23
 40000000 000000000046 FLDTL          *23
 40000000 000000000020 FMSBF          *23
 12:48 09/05/97  FILE=ZIM$DBKI.:ZIC0TSI       SYMBOL TABLE                                               21   BMAP - B00
 40000000 000000000006 FNAM           *23
 40000000 000000000250 FNIND          *23
 40000000 000000000004 FNL            *23
 40000000 000000000101 FRAC           *23
 40000000 000000000002 FRANGE         *23
 40000000 000000211400 FRDNL          *23
 40000000 000000200000 FRTRN          *23
 40000000 000000000005 FRWSO          *23
 40000000 000000000767 FSLN           *23
 40000000 000000000766 FSOF           *23
 40000000 000000000060 FTIND          *23
 40000000 000000303240 FTLINCR        *23
 40000000 000000000021 FWSSZ          *23
 40000000 000000000246 GACDK          *23
 40000000 000000000014 GDCB           *23
 41000000 000000000006 GERROR         *23        91        94       107       114       117       125
                                      127
 40000000 000000000016 GINHIB         *23
 40000000 000000000020 GIOAWS         *23
 40000000 000000000022 GIOBUF         *23
 40000000 000000000021 GIOPGNO        *23
 40000000 000000000015 GPAGE          *23
 40000000 000000000010 GRETAC         *23
 40000000 000000000011 GRETFR         *23
 40000000 000000000013 GRETRC         *23
 40000000 000000000012 GRETSC         *23
 41000000 000000000025 GRLCW          *23        63
 40000000 000000000014 GSTCD          *23
 40000000 000000000007 GSYSERR        *23
 40000000 000000000010 GT             *23
 40000000 000000000046 GTRNAME        *23
 40000000 000000000055 GTRPDCB        *23
 40000000 000000000056 GTRPNO         *23
 40000000 000000000057 GTRRDBK        *23
 40000000 000000000060 GTRRTYPE       *23
 40000000 000000000060 GTRTYPE        *23
 40000000 000000000027 HASH           *23
 12:48 09/05/97  FILE=ZIM$DBKI.:ZIC0TSI       SYMBOL TABLE                                               22   BMAP - B00
 40000000 000000000022 HIA            *23
 40000000 000000000775 HIDB           *23
 40000000 000000000003 HIGHDBK        *23
 40000000 000000000004 HIGHPG         *23
 40000000 000000001037 HIL            *23
 40000000 000000000002 HILN           *23
 40000000 000000000006 HPOS           *23
 40000000 000000000756 IAAC           *23
 40000000 000000001011 IACLN          *23
 40000000 000000001010 IALC           *23
 40000000 000000010314 IAN            *23
 40000000 000000001012 IANLN          *23
 40000000 000000000001 IASID          *21
 40000000 000000020320 ICA            *23
 40000000 000000000023 ICKSMP         *23
 40000000 000000000024 ICKSMV         *23
 40000000 000000210742 ICNR           *23
 41000000 000000000020 ICSIZ          *23
 40000000 000000010004 IDBK           *23
 40000000 000000012120 IDI            *23
 40000000 000000000023 IDS            *23
 40000000 000000000011 IF             *23
 01101000 000000000077 IFIND          113      *116
 40000000 000000000021 IFIPN          *23
 40000000 000000000000 IFR            *23
 40000000 000000234546 IKSEQ          *23
 40000000 000000000113 INAFLAG        *23
 40000000 000000000016 INCHA          *23
 40000000 000000210566 INNM           *23
 40000000 000000210567 INSS           *23
 40000000 000000210575 INSST          *23
 40000000 000000303241 INTER          *23
 40000000 000000400000 INTII          *23
 40000000 000000000013 INTVL          *23
 40000000 000000001060 INVFLG         *23
 40000000 000000001043 INVOF          *23
 40000000 000000000014 INVT           *23
 12:48 09/05/97  FILE=ZIM$DBKI.:ZIC0TSI       SYMBOL TABLE                                               23   BMAP - B00
 40000000 000000000034 IOBLK          *23
 40000000 000000303354 IOCLSD         *23
 40000000 000000303355 IOCLSK         *23
 40000000 000000303257 IOE1           *23
 40000000 000000303264 IOE11          *23
 40000000 000000303265 IOE12          *23
 40000000 000000303266 IOE18          *23
 40000000 000000303260 IOE2           *23
 40000000 000000303261 IOE3           *23
 40000000 000000303262 IOE7           *23
 40000000 000000303263 IOE8           *23
 40000000 000000303363 IOFLSH         *23
 40000000 000000210676 IOGDCB         *23
 40000000 000000001002 IOINC          *23
 40000000 000000305160 IOINI          *23
 40000000 000000305155 IONOTIDS       *23
 40000000 000000305154 IONOTKEY       *23
 40000000 000000210677 IOOPND         *23
 40000000 000000210700 IOOPNK         *23
 40000000 000000303361 IORDD          *23
 40000000 000000305156 IOSCHEMA       *23
 40000000 000000001052 IOSTS          *23
 40000000 000000303362 IOWRTD         *23
 41000000 000000000750 IOWS           *23
 40000000 000000000647 IPC            *23
 40000000 000000000650 IPCF           *23
 40000000 000000000006 IROLLFLAG      *23
 41000000 000000010150 IRSN           *23       146       151
 40000000 000000000004 ISYSDCB        *23
 40000000 000000000005 ISYSERR        *23
 40000000 000000000061 ITPTR          *23
 40000000 000000000060 ITRS           *23
 40000000 000000021760 IUM            *23
 40000000 000000000017 IUSZ           *23
 40000000 000000234522 IVDBK          *23
 40000000 000000000011 IXBUF$         *23
 40000000 000000000046 IXFBSZ         *23
 12:48 09/05/97  FILE=ZIM$DBKI.:ZIC0TSI       SYMBOL TABLE                                               24   BMAP - B00
 40000000 777777777776 IXID           *23
 40000000 777777777777 IXPLL          *23
 40000000 000000000523 KCARG0         *23
 40000000 000000000524 KCARG3         *23
 40000000 000000000525 KCARG4         *23
 40000000 000000000700 KCREG          *23
 40000000 000000000006 KDCB           *23
 40000000 000000000666 KEYDS          *23
 40000000 000000000010 KEYPA          *23
 01101000 000000000147 KICER          143       149       154       159       163       174       179
                                     *183
 40000000 777777777776 KLNG           *23
 40000000 000000000022 KPASZ          *23
 40000000 000000000006 KWSZ           *23
 40000000 000000000052 LANGC          *23
 40000000 000000001014 LAS            *23
 40000000 000000700000 LCODM          *23
 40000000 000000001045 LDPSI          *23
 40000000 000000001071 LINPT          *23
 40000000 000000001017 LNCNT          *23
 40000000 000000000762 LNNO           *23
 40000000 000000001036 LOL            *23
 40000000 000000000715 LOLIM          *23
 40000000 000000000023 LPASZ          *23
 40000000 000000000012 LPP            *23
 41000000 000000257764 LR             *23       156
 40000000 000000301270 LRA            *23
 40000000 000000000017 LRSZ           *23
 40000000 000000001035 LSPC           *23
 40000000 000000000750 LUPD           *23
 61000000 000000000001 M9             *23
 40000000 000000000013 MD             *23
 40000000 000000300000 MDQS           *23
 40000000 000000000730 MEMPTR         *23
 40000000 000000000727 MEMTYP         *23
 40000000 000000000045 MODCD          *23
 41000000 000000001207 MODFL          *23
 12:48 09/05/97  FILE=ZIM$DBKI.:ZIC0TSI       SYMBOL TABLE                                               25   BMAP - B00
 40000000 000000000042 MODFR          *23
 40000000 000000000044 MODIN          *23
 40000000 000000000044 MODRS          *23
 40000000 000000000043 MODSC          *23
 40000000 000000000047 MRBKI          *23
 40000000 000000210632 MRE4           *23
 40000000 000000303313 MRE5           *23
 40000000 000000210634 MRE7           *23
 01101000 000000000145 MVER1          107      *169
 40000000 000000400000 MW             *23
 40000000 000000000025 NCH            *23
 40000000 000000000002 NCHA           *23
 40000000 000000000005 NCHRS          *23
 40000000 000000000014 NDCD           *23
 40000000 000000000012 NENC           *23
 40000000 000000000634 NEW            *23
 40000000 000000001072 NEWSIZ         *23
 40000000 000000235164 NKA            *23
 40000000 000000235020 NKDB           *23
 40000000 000000303415 NLDBK          *23
 40000000 777777777777 NLIND          *23
 40000000 000000001040 NLN            *23
 40000000 000000400000 NLNSA          *23
 41000000 000000001053 NOBF           *23
 40000000 000000000711 NOPTRS         *23
 40000000 000000000742 NPARCW         *23
 40000000 000000000630 NPIND          *23
 40000000 000000000004 NPOS           *23
 40000000 000000234510 NSA            *23
 40000000 000000234654 NSCS           *23
 40000000 000000234344 NSDB           *23
 40000000 000000000001 NSTS           *23
 40000000 000000000726 NUMENT         *23
 40000000 000000000727 NUMPTR         *23
 40000000 777777777760 NXBUF          *23
 40000000 000000000713 NXPRI          *23
 40000000 000000000771 NXTC           *23
 12:48 09/05/97  FILE=ZIM$DBKI.:ZIC0TSI       SYMBOL TABLE                                               26   BMAP - B00
 40000000 000000000001 OAACN          *23
 40000000 000000000022 OACIWSOF       *23
 40000000 000000000001 OAOFST         *23
 40000000 000000000002 OARCN          *23
 40000000 000000000001 OASCN          *23
 40000000 000000000014 OD             *23
 40000000 000000000074 ODBK           *23
 40000000 000000001072 OLDSIZ         *23
 40000000 000000000101 OPADP          *23
 40000000 000000000741 OPARCW         *23
 40000000 000000210570 ORDNI          *23
 40000000 777777777777 OTVL           *23
 40000000 000000000252 OWNPTR         *23
 40000000 000000000016 PABUF          *23
 40000000 000000001041 PACD           *23
 40000000 000000000001 PACW           *23
 40000000 000000000733 PADBK          *23
 40000000 000000000740 PADUP          *23
 40000000 000000000745 PAEN           *23
 40000000 000000000745 PAEO           *23
 40000000 000000000734 PAEOF          *23
 40000000 000000303336 PAER1          *23
 40000000 000000303337 PAER2          *23
 40000000 000000303340 PAER3          *23
 40000000 000000303341 PAER4          *23
 40000000 000000303342 PAER5          *23
 40000000 000000303343 PAER6          *23
 40000000 000000000747 PAESZ          *23
 40000000 000000001060 PAFLG          *23
 40000000 000000000731 PAOPTR         *23
 40000000 000000000734 PAPOF          *23
 40000000 000000000714 PARCW          *23
 40000000 000000000726 PARVPA         *23
 40000000 000000000724 PASPLT         *23
 40000000 000000000004 PAWSZ          *23
 40000000 777777777762 PBUF           *23
 40000000 000000000020 PC             *23
 12:48 09/05/97  FILE=ZIM$DBKI.:ZIC0TSI       SYMBOL TABLE                                               27   BMAP - B00
 41000000 000000000510 PCB            *23
 40000000 000000000642 PCD            *23
 40000000 000000000642 PCD2           *23
 01101000 000000000143 PCER1          130      *160
 41000000 000000000247 PCEXI          *23        58       122       129
 40000000 000000000675 PCMIN          *23
 41000000 000000004541 PCOMP          *23       162
 40000000 000000000010 PD             *23
 40000000 000000000040 PE             *23
 40000000 000000000017 PENDING        *23
 41000000 000000000004 PF             *23        88
 40000000 000000000400 PFG            *23
 40000000 000000000200 PFM            *23
 40000000 000000000100 PFS            *23
 40000000 000000000400 PG             *23
 40000000 000000001064 PGHD           *23
 40000000 000000000006 PGLIM          *23
 40000000 000000000003 PGRNG          *23
 40000000 000000000746 PGSIZE         *23
 40000000 000000000641 PGSPLT         *23
 40000000 000000000100 PKAW           *23
 40000000 000000001034 PLO            *23
 40000000 000000000004 PLSEP          *23
 40000000 000000000200 PM             *23
 40000000 000000001054 PNEOO          *23
 40000000 000000001047 POFSI          *23
 40000000 000000000005 PPOS           *23
 41000000 000000000000 PR0            *21        60        62        65        67        98       100
                                      103
 41000000 000000000001 PR1            *21        64        66        68        99       101       104
 40000000 000000000002 PR2            *21
 40000000 000000000003 PR3            *21
 40000000 000000000004 PR4            *21
 41000000 000000000005 PR5            *21        63        91        94       107       114       117
                                      125       127
 41000000 000000000006 PR6            *21        70        73        78        82        86       110
 41000000 000000000007 PR7            *21        58        87        92        96        97       102
 12:48 09/05/97  FILE=ZIM$DBKI.:ZIC0TSI       SYMBOL TABLE                                               28   BMAP - B00
                                      105       109       122       129
 40000000 000000303267 PRE1           *23
 40000000 000000303277 PRE10          *23
 40000000 000000303270 PRE3           *23
 40000000 000000303271 PRE4           *23
 40000000 000000303272 PRE5           *23
 40000000 000000210613 PRE6           *23
 40000000 000000210614 PRE7           *23
 40000000 000000210615 PRE8           *23
 40000000 000000303276 PRE9           *23
 01101000 000000000137 PRER1           89      *155
 40000000 000000000522 PREXC          *23
 40000000 000000000521 PRFR           *23
 40000000 000000000521 PRFR2          *23
 41000000 000000000000 PRIV           *23        87
 40000000 000000000526 PROPA          *23
 41000000 000000000517 PRRC           *23       102       109
 40000000 000000000517 PRRS           *23
 41000000 000000000520 PRSC           *23       105
 41000000 000000000516 PRSS           *23        92
 40000000 000000000644 PRSTS          *23
 40000000 000000000100 PS             *23
 41000000 000000000000 PS0SID         *21
 41000000 000000000001 PS1SID         *21
 41000000 000000000002 PS2SID         *21
 41000000 000000000003 PS3SID         *21
 41000000 000000000004 PS4SID         *21
 40000000 000000000005 PS5SID         *21
 40000000 000000000006 PS6SID         *21
 40000000 000000303416 PSA            *23
 40000000 000000000020 PSC            *23
 40000000 000000000010 PSD            *23
 40000000 000000000004 PSF            *23
 40000000 000000000400 PSO            *23
 40000000 000000000720 PTESZ          *23
 40000000 000000000631 PTR            *23
 40000000 000000000724 PTRESZ         *23
 12:48 09/05/97  FILE=ZIM$DBKI.:ZIC0TSI       SYMBOL TABLE                                               29   BMAP - B00
 40000000 000000000710 PTRNO          *23
 41000000 000000000630 PWS            *23
 40000000 000000000002 RADDR          *23
 40000000 000000000010 RADIX          *23
 40000000 000000000005 RAPTR          *23
 40000000 000000000004 RAWSOF         *23
 40000000 777777777766 RBA            *23
 40000000 000000023432 RCBI           *23
 40000000 000000211234 RCDNL          *23
 40000000 000000000005 RCFRH          *23
 40000000 000000000004 RCFRN          *23
 40000000 000000001075 RCHD           *23
 40000000 000000000001 RCID           *23
 40000000 000000000006 RCPTR          *23
 40000000 000000000002 RCRAH          *23
 40000000 000000000001 RCRAN          *23
 40000000 000000000003 RCRSH          *23
 40000000 000000000002 RCRSN          *23
 40000000 000000210667 RCVER1         *23
 40000000 000000210670 RCVER2         *23
 40000000 000000210671 RCVER4         *23
 40000000 000000210672 RCVER5         *23
 40000000 000000210673 RCVER6         *23
 40000000 000000000736 RCW1           *23
 40000000 000000000737 RCW2           *23
 41000000 000000000004 RCWSO          *23        86
 40000000 000000000077 RDAC           *23
 40000000 000000000076 RDCNT          *23
 40000000 000000040000 RDI            *23
 40000000 000000015674 RDLT           *23
 40000000 000000000075 RDYCW          *23
 40000000 000000000066 RECAC          *23
 40000000 000000000065 RECFR          *23
 40000000 000000000070 RECRC          *23
 40000000 000000000067 RECSC          *23
 40000000 000000000003 RECSZ          *23
 40000000 000000000235 REMLT          *23
 12:48 09/05/97  FILE=ZIM$DBKI.:ZIC0TSI       SYMBOL TABLE                                               30   BMAP - B00
 40000000 000000000062 REM_RECOVER    *23
 40000000 000000000251 RETFR          *23
 40000000 000000210724 RFDNL          *23
 40000000 000000017644 RIM            *23
 40000000 000000000005 RNAM           *23
 40000000 000000015706 RNDLT          *23
 40000000 000000000662 RNG1           *23
 40000000 000000000664 RNG2           *23
 40000000 000000000073 RNGD           *23
 40000000 000000000072 RNGO           *23
 40000000 000000000660 RNGTAL         *23
 40000000 000000020154 RNM            *23
 01101000 000000000127 RNSSE           80      *145
 40000000 000000000041 ROCUR          *23
 40000000 000000000001 ROFST          *23
 40000000 000000002114 ROLL           *23
 40000000 000000020010 RPM            *23
 40000000 000000000001 RSCDH          *23
 40000000 000000000001 RSCDN          *23
 40000000 000000211710 RSDNL          *23
 40000000 000000004540 RSEE           *23
 40000000 000000000003 RSIZ           *23
 40000000 000000000110 RSPAM          *23
 40000000 000000000004 RSPTR          *23
 40000000 000000000037 RSREQ          *23
 40000000 000000000002 RSSSH          *23
 40000000 000000000001 RSSSN          *23
 40000000 000000210574 RSZER          *23
 40000000 000000000632 RSZTP          *23
 40000000 000000000003 RTP            *23
 40000000 000000000003 RTYP           *23
 40000000 000000000530 RV1            *23
 40000000 000000000550 RV2            *23
 40000000 000000000570 RV3            *23
 40000000 000000000610 RV4            *23
 41000000 000000000003 RVASID         *21        64        99
 41000000 000000000510 RVI            *23        96
 12:48 09/05/97  FILE=ZIM$DBKI.:ZIC0TSI       SYMBOL TABLE                                               31   BMAP - B00
 40000000 000000000511 RVO            *23
 40000000 000000000513 RVPA           *23
 40000000 000000000512 RVT            *23
 40000000 000000000022 RVTAL          *23
 40000000 000000000002 RWSZ           *23
 40000000 000000000015 RY             *23
 40000000 000000210620 RYE1           *23
 40000000 000000210621 RYE4           *23
 40000000 777777777767 SA             *23
 01101000 000000000145 SAER1           94      *168
 40000000 000000000005 SANAM          *23
 40000000 000000001062 SCDES          *23
 40000000 000000211544 SCDNL          *23
 40000000 000000000024 SCFC           *23
 40000000 000000000002 SCID           *23
 40000000 000000000024 SCLST          *23
 40000000 000000000004 SCNAM          *23
 40000000 000000000004 SCPTR          *23
 40000000 000000000003 SCRSH          *23
 40000000 000000000002 SCRSN          *23
 40000000 000000000001 SCWSO          *23
 40000000 000000001225 SFWS           *23
 40000000 000000001073 SIZCHG         *23
 40000000 000000000645 SKFLG          *23
 40000000 000000000643 SKIND          *23
 40000000 000000000641 SKTYP          *23
 40000000 000000020464 SMCR           *23
 40000000 000000000003 SNAM           *23
 40000000 000000000107 SNIND          *23
 40000000 000000000735 SNPAE          *23
 40000000 000000001046 SNSI           *23
 01101000 000000000133 SNSSE           84      *150
 40000000 000000000743 SOE            *23
 40000000 000000020630 SORSA          *23
 40000000 000000004374 SOSE           *23
 40000000 000000000000 SPAV           *23
 40000000 000000000744 SPCAVN         *23
 12:48 09/05/97  FILE=ZIM$DBKI.:ZIC0TSI       SYMBOL TABLE                                               32   BMAP - B00
 40000000 000000000744 SPCAVO         *23
 40000000 000000000765 SPLF           *23
 41000000 000000000765 SPND           *23
 40000000 000000000006 SSDT           *23
 40000000 000000303243 SSER           *23
 40000000 000000303244 SSER1          *23
 40000000 000000000002 SSH            *23
 40000000 000000000005 SSNAM          *23
 40000000 000000210573 SSNF           *23
 40000000 000000210576 SSNV           *23
 40000000 000000000020 SSSPTR         *23
 40000000 000000000010 SSVDT          *23
 40000000 000000000033 SSZTP          *23
 40000000 000000000017 ST             *23
 40000000 000000000104 STBIN          *23
 40000000 000000000105 STDEC          *23
 40000000 000000303302 STE1           *23
 40000000 000000303303 STE2           *23
 40000000 000000210624 STE3           *23
 40000000 000000303305 STE4           *23
 40000000 000000303306 STE5           *23
 41000000 000000000100 STKSIZ         *23
 40000000 000000000055 STMASK         *23
 40000000 000000000062 SUST           *23
 41000000 000000000020 SWS            *23
 40000000 000000000000 SWSAC          *23
 40000000 000000000002 SWSZ           *23
 40000000 000000000000 SYSSF          *23
 40000000 000000000765 SZREQ          *23
 40000000 000000000004 TBUF           *23
 40000000 000000001061 TCTRS          *23
 60000000 000000000000 TDS            *23
 41000000 000000000113 TEMP           *23
 40000000 000000000640 TFLD           *23
 40000000 000000000657 TFLD2          *23
 40000000 000000000056 TMASK          *23
 40000000 000000000061 TMODE          *23
 12:48 09/05/97  FILE=ZIM$DBKI.:ZIC0TSI       SYMBOL TABLE                                               33   BMAP - B00
 40000000 000000000676 TMPPA          *23
 40000000 000000000003 TPAI           *23
 40000000 000000500000 TPRCOD         *23
 40000000 000000001031 TSFN           *23
 40000000 000000000021 TSI            *23
 40000000 000000001013 UBRD2          *23
 41000000 000000001223 UBSZ           *23
 40000000 000000000667 UCADR          *23
 01101000 000000000145 UCERR          125      *170
 40000000 000000000036 UCRS           *23
 40000000 000000000024 UFSPK          *23
 40000000 000000000024 UFSPK2         *23
 00101000 000000000145 UKERR         *171
 40000000 000000000715 ULIM           *23
 40000000 000000004230 UNA            *23
 40000000 000000303417 UNIM           *23
 40000000 000000000002 UOFST          *23
 40000000 000000001035 UPACD          *23
 40000000 000000000721 UPACW          *23
 01101000 000000000107 UPCR           115       118      *124
 40000000 000000000007 UPFLAG         *23
 40000000 000000000103 UPPAI          *23
 40000000 000000000004 UPTSID         *21
 01101000 000000000145 USRER          127      *172
 40000000 000000000674 USTAT          *23
 40000000 000000000002 UWASID         *21
 40000000 000000000002 UWSSZ          *23
 40000000 000000000020 UWSZ           *23
 40000000 000000000243 VFDSC          *23
 40000000 000000001070 VFDSR          *23
 40000000 000000000656 VFLD           *23
 40000000 000000001074 VFLNG          *23
 40000000 000000001124 VIB1           *23
 40000000 000000001154 VIBP           *23
 41000000 000000000000 VLPSID         *21        60        98
 40000000 000000001074 VRSIZ          *23
 40000000 000000001067 WLOA           *23
 12:48 09/05/97  FILE=ZIM$DBKI.:ZIC0TSI       SYMBOL TABLE                                               34   BMAP - B00
 40000000 000000100000 WRTI           *23
 40000000 000000000000 WSBID          *23
 40000000 000000000003 WSOF           *23
 41000000 000000000000 X0             *21        97       109       140       147       152       157
 41000000 000000000001 X1             *21        70        71        73        74        78        79
                                       82        83        86        87        88        91        94
                                      107       110       111       112       114       117       125
                                      127
 40000000 000000000002 X2             *21
 41000000 000000000003 X3             *21        96
 40000000 000000000004 X4             *21
 41000000 000000000005 X5             *21        92
 41000000 000000000006 X6             *21        67        68       103       104       105       141
                                      148       158
 03201008 000000000000 X66_ARET       *21       132
 03201007 000000000000 X66_AUTO_0     *21        57
 41000000 000000000007 X7             *21        65        66       100       101       102       142
                                      153
 40000000 000000210665 XASL           *23
 40000000 000000303420 XLD            *23
 40000000 000000303421 XPD            *23
 40000000 000000000676 XPRS           *23
 40000000 000000210666 XROLL          *23
 40000000 000000210664 XUNEX          *23
 40000000 777777777777 XXDPN          *23
 03201009 000000000000 ZIB$DBALT     *183
 12101000 000000000000 ZIG$DBFUI       11       *56
 03201000 000000000000 ZIG$DBGRS      *13        91
 03201002 000000000000 ZIG$DBUPC      *15       125
 03201005 000000000000 ZIG$DBUSR      *18       127
 03201006 000000000000 ZIG$DBXKU      *19       107
 03201004 000000000000 ZIM$IFIND      *17       117
 03201003 000000000000 ZIM$KFIND      *16       114
 03201001 000000000000 ZIQ$DBMAS      *14        94

     949 SYMBOLS

 12:48 09/05/97  FILE=ZIM$DBKI.:ZIC0TSI       MACRO TABLE                                                35   BMAP - B00
 CBSYM           23
 DBALT          183
 DBCAL           91        94       107       114       117       125       127
 DBRET          132
 DBSAV           57
 ICCAL           94       125
 Q2SYM           23
 SSSYM           23

      37 MACROS

    SYMBOL SPACE USED  9057 WORDS
     MACRO SPACE USED 13055 WORDS
   INPUT RECORDS READ  2170
 STATEMENTS PROCESSED  2159
         ELAPSED TIME  0:10.20
             CPU TIME     9.74 SEC.
        ASSEMBLY RATE 13300 STATEMENTS/CPU MIN.

      NO ERRORS

