
 12:48 09/05/97  FILE=ZIM$DBMR.:ZIC0TSI                                                                  1    BMAP - B00
                                         1  *M*      ZIG$DBMR
                                         2  *T***********************************************************
                                         3  *T*                                                         *
                                         4  *T* Copyright (c) Bull HN Information Systems Inc., 1997    *
                                         5  *T*                                                         *
                                         6  *T***********************************************************

 12:48 09/05/97  FILE=ZIM$DBMR.:ZIC0TSI       H6600H2.505     IDS/II MODIFY                  780328DBMR  2    BMAP - B00
                                         7         TTL     H6600H2.505     IDS/II MODIFY                  780328DBMR
                                         8         CPR     1974
                                         9         PMC     OFF
                                        10  *
                                        11         ENTDEF  ZIG$DBMOD
                                        12  *
                                        13         ENTREF  ZIG$DBAF
                                        14         ENTREF  ZIG$DBAKP
                                        15         ENTREF  ZIG$DBECK
                                        16         ENTREF  ZIQ$DBFCH
                                        17         ENTREF  ZIG$DBGRS
                                        18           ENTREF      ZIM$PCON
                                        19           ENTREF      ZIM$PDIS
                                        20           ENTREF      ZIM$JMOD
                                        21         ENTREF  ZIG$DBPCK
                                        22         ENTREF  ZIG$DBPCR
                                        23         ENTREF  ZIG$DBPCS
                                        24         ENTREF  ZIG$DBPFD
                                        25         ENTREF  ZIG$DBPFI
                                        26         ENTREF  ZIG$DBPFN
                                        27         ENTREF  ZIG$DBPFP
                                        28         ENTREF  ZIG$DBPIC
                                        29         ENTREF  ZIG$DBPMA
                                        30         ENTREF  ZIG$DBPMF
                                        31         ENTREF  ZIG$DBPMK
                                        32           ENTREF   ZIG$DBPMS
                                        33         ENTREF  ZIG$DBPNC
                                        34         ENTREF  ZIG$DBPPC
                                        35        ENTREF  ZIM$DBPLK,ZIM$DBPUL,ZIM$DBPMR
                                        36         ENTREF  ZIG$DBUPD
                                        37           ENTREF      ZIM$KCURR
                                        38           ENTREF      ZIM$KDEL
                                        39           ENTREF      ZIM$KSTO
                                        40           ENTREF      ZIM$IMOD
                                        41          ENTREF  ZIO$DBBCC
                                        42         ENTREF  ZIG$DBUPP
                                        43         ENTREF  ZIG$DBXKT
 12:48 09/05/97  FILE=ZIM$DBMR.:ZIC0TSI       H6600H2.505     IDS/II MODIFY                  780328DBMR  3    BMAP - B00
                                        44         ENTREF  ZIG$DBXMT
                                        45         ENTREF  ZIG$DBXMU
                                        46           ENTREF      ZIM$TRACE
                                        47           ENTREF      ZIG$DBPR2
                                        48           ENTREF      ZIB$FPTRECOVER
                                        49           ENTREF      ZIB$CLRRECOVER
                                        50  *
                                        51         LODM    Q2MA
                                        52  *
                                        53         Q2SYM
                                        54  *

 12:48 09/05/97  FILE=ZIM$DBMR.:ZIC0TSI       IDS-II  MODIFY RECORD SUBROUTINE                           4    BMAP - B00
                                        55         TTLS    IDS-II  MODIFY RECORD SUBROUTINE
                                        56  ****************************************************************
                                        57  *
                                        58  *  - DBMOD -
                                        59  *
                                        60  *      MODIFY.  Modify the data fields and/or set memberships
                                        61  *      of a record in the data base.
                                        62  *
                                        63  *      Parameter   Description
                                        64  *      ---------   -----------
                                        65  *
                                        66  *          0       IA
                                        67  *          1       UWA
                                        68  *          2       FPT
                                        69  *
                                        70  *      FPT Format...
                                        71  *
                                        72  *      Word 0:  RVA offset to a schema subset element which
                                        73  *          describes a data base record.  This argument will
                                        74  *          be zero if no record type is specified.
                                        75  *      Word 1:  Modify Control Word
                                        76  *              Bit 0:  If set, only the set memberships
                                        77  *                  identified in the set list will be modified.
                                        78  *              Bit 1:  If set, all set memberships will be
                                        79  *                  modified.  (If neither bit is set, no set
                                        80  *                  memberships will be modified.
                                        81  *      Word 2:  Field List Control Word
                                        82  *          HW 0:  The number of fields in the field list
                                        83  *      Word 3:  Set List Control Word
                                        84  *          HW 0:  The number of entries in the set list
                                        85  *      Words 4->M: Field List.  RVA offsets to schema
                                        86  *          subset elements which describe the data items to
                                        87  *          be modified.  If the number of fields in the
                                        88  *          field list (Word 2) is zero, this list will be null.
                                        89  *      Words M+1->K: Set List.  RVA offsets to schema
                                        90  *          subset elements which describe the sets whose
                                        91  *          set memberships are to be modified.  If the
 12:48 09/05/97  FILE=ZIM$DBMR.:ZIC0TSI       IDS-II  MODIFY RECORD SUBROUTINE                           5    BMAP - B00
                                        92  *          number of elements in the set list (Word 3) is
                                        93  *          zero, this list will be null.
                                        94  *
                                        95  ****************************************************************
                                        96  *
 0 000000                               97  ZIG$DBMOD NULL
   000000  X 000000 7000 00             98           DBSAV
   000001    000004 000000
                                        99  *  INIT RECOVERY STACK
   000002    7 00271 2351 00           100         LDA     .DBEST+1,,PR7
   000003    7 00270 7551 00           101         STA     .DBEST,,PR7
   000004    7 00047 4501 00           102         STZ     MRBKI,,PR7      INIT MODIFY BACKOUT INDIC.
                                       103  *  Set RECOVER addr for FPT checker
   000005  X 000000 7010 00            104         DBCAL   ZIB$FPTRECOVER,,MRR1
   000006 (0)001504 7020 00
   000007    5 00006 2341 00
   000010    777776 6010 04
                                       105  *  GET CURRENT OF RUN
   000011  X 000000 7010 00            106           DBCAL    ZIG$DBPCR,,GCER2     Get current of run
   000012 (0)001502 7020 00
   000013    5 00006 2341 00
   000014    777776 6010 04
                                       107  *  CHECK RC FOR CORRECT TYPE
   000015    000000 4704 07            108         LDP    PR0,VLPSID,DL            VLP$
   000016    000003 4714 07            109           LDP      PR1,RVASID,DL           RVA$
   000017    0 00000 2271 00           110         LDX     X7,0,,PR0            Get offset to RC pointer from FPT
   000020    1 00000 2271 17           111           LDX      X7,,X7,PR1           Get RC offset from RVA
   000021 (0)000027 6000 00            112         TZE     NRC2            NONE
                                       113         IFE     A,1,%CK1
   000022    6 00000 2211 17           114         LDX     X1,DEF,X7,PR6   GET DEF TYPE
   000023    100000 3010 03            115         CANX    X1,.RC,DU       IS IT AN RC
   000024 (0)001414 6000 00            116         TZE     CALE2           NO - ERROR
                                       117  CK1    MARK
   000025    7 01224 1071 00           118         CMPX    X7,CRUN+1,,PR7  IS RC GIVEN SAME AS CURRENT
   000026 (0)001421 6010 00            119         TNZ     CER3            NO - ERROR
   000027                              120  NRC2   NULL
                                       121  *  CHECK RECORD PRIVACY
 12:48 09/05/97  FILE=ZIM$DBMR.:ZIC0TSI       IDS-II  MODIFY RECORD SUBROUTINE                           6    BMAP - B00
   000027    7 01224 2271 00           122         LDX     X7,CRUN+1,,PR7  GET RC
   000030    6 00004 2211 17           123         LDX     X1,RCWSO,X7,PR6
   000031    7 00000 2211 11           124         LDX     X1,PRIV,X1,PR7  GET PRIVACY WORD
   000032    000200 3010 03            125         CANX    X1,PM,DU        IS PRIVACY SATISFIED
   000033 (0)001426 6000 00            126         TZE     PRVE1           NO - ERROR
                                       127  *  INIT RLCW TO RETAIN NO CURRENCIES DURING SOS RETRIEVAL
   000034    5 00025 4501 00           128           STZ      GRLCW,,PR5
                                       129  *  SET UP PTRS FOR FR & SC LIST
   000035    7 00042 4501 00           130         STZ     MODFR,,PR7      INIT FR PTR
   000036    7 00043 4501 00           131         STZ     MODSC,,PR7      INIT SC PTR
   000037    0 00001 2201 00           132         LDX     X0,1,,PR0            Get Modify Control Word from FPT
   000040    7 00047 7401 00           133         STX     X0,FCSS,,PR7    SAVE
   000041    000000 2350 03            134         LDA    0,DU                     Clear A incase no fields
   000042    0 00002 2361 00           135         LDQ     2,,PR0               Get Field List Control Word
   000043 (0)000047 6000 00            136         TZE     SUSC                 B/ If all specified
   000044    000004 2350 07            137         LDA     4,DL            field list offset is 4 wds into FPT
   000045    000022 7370 00            138         LLS     18                   AL = FLCW, AU = field list offset
   000046    7 00042 7551 00           139         STA     MODFR,,PR7           Save it.
   000047                              140  SUSC   NULL
   000047    0 00003 2361 00           141         LDQ     3,,PR0               Get Set List Control Word
   000050 (0)000054 6000 00            142         TZE     MOD1                 B/ If none specified
   000051    000022 7370 00            143         LLS     18              AL =  set list count
   000052    000004 0750 03            144         ADA     4,DU                 Add offset to Field List.
   000053    7 00043 7551 00           145         STA     MODSC,,PR7           Save it.
                                       146  *
                                       147  ****************************************************************
                                       148  *
                                       149  *  At this point we have MODSC and MODFR set up.  They will be
                                       150  *  used a bit later.  Both have the same format.  That is:
                                       151  *
                                       152  *      ---------------------------------------
                                       153  *      !                  !                  !
                                       154  *      !      Offset      !      Count       !
                                       155  *      !                  !                  !
                                       156  *      ---------------------------------------
                                       157  *
                                       158  ****************************************************************
 12:48 09/05/97  FILE=ZIM$DBMR.:ZIC0TSI       IDS-II  MODIFY RECORD SUBROUTINE                           7    BMAP - B00
                                       159  *

 12:48 09/05/97  FILE=ZIM$DBMR.:ZIC0TSI       IDS-II  MODIFY RECORD SUBROUTINE                           8    BMAP - B00
                                       160         EJECT
                                       161  *
                                       162  ****************************************************************
                                       163  *
                                       164  *  Modify Key Memberships
                                       165  *
                                       166  *      The value of the prime key can not change as a result
                                       167  *      of the modify.  If any of the fields in the prime key
                                       168  *      are in the list to be modified, the new key will be
                                       169  *      compared against the old key.  If the value of the key
                                       170  *      changes, an exception return is effected.  (This
                                       171  *      allows the user to modify REC-NAME rather than listing
                                       172  *      all of the fields but the prime.)
                                       173  *
                                       174  *      If an alternate key is modified, the key currency is
                                       175  *      updated.
                                       176  *
                                       177  *      The current of run is the input record variable
                                       178  *      before and after this routine is executed.
                                       179  *
                                       180  ****************************************************************
                                       181  *
   000054                              182  MOD1     NULL
   000054    7 00047 2211 00           183         LDX     X1,FCSS,,PR7    IS ONLY SPECIFIED
   000055 (0)000313 6040 00            184         TMI     CKSET           YES-THUS NO KEY MEMBERSHIPS WILL CHANGE
   000056    7 01224 2271 00           185         LDX     X7,CRUN+1,,PR7  GET RC FOR CURR OF RUN
                                       186  *  TEST IF REC IS AN INDEXED REC
   000057    6 00000 2351 17           187         LDA     DEF,X7,PR6      GET STORAGE MODE
   000060    000007 3750 03            188         ANA     .PSTO,DU        ISOLATE
   000061    000004 1150 03            189         CMPA    =O4,DU          IS IT INDEXED
   000062 (0)000142 6010 00            190         TNZ     CKALT           NO-GO CHECK FOR ALTERNATES
   000063    6 00002 7251 17           191         LXL     X5,RCRSN,X7,PR6  GET 1ST RS (RS FOR PRIME KEY)
                                       192  *  SEE IF ANY FIELDS IN THE PRIME KEY ARE IN THE LIST TO BE MODIFIED
   000064    7 00045 7451 00           193         STX     X5,MODCD,,PR7   SAVE RS AS CURR CD
   000065                              194  MDKL0  NULL
   000065    7 00045 2201 00           195         LDX     X0,MODCD,,PR7   GET CURR CD
   000066    6 00001 2201 10           196         LDX     X0,RSCDN,X0,PR6  GET NEXT CD
 12:48 09/05/97  FILE=ZIM$DBMR.:ZIC0TSI       IDS-II  MODIFY RECORD SUBROUTINE                           9    BMAP - B00
   000067 (0)001124 6000 00            197           TZE      MOD3                 Done.  Modify data fields
   000070    7 00045 7401 00           198         STX     X0,MODCD,,PR7   SAVE NEXT CD AS CURR
   000071    6 00000 2211 10           199         LDX     X1,DEF,X0,PR6   DEF FOR CD
   000072    000040 3010 03            200         CANX    X1,.SYNC,DU     IS IT A SYN CD
   000073 (0)000065 6010 00            201         TNZ     MDKL0           YES - SKIP
   000074    6 00002 2241 10           202         LDX     X4,CDSH,X0,PR6  GET FR FOR CD
   000075    7 00042 2211 00           203         LDX     X1,MODFR,,PR7        Get offset to Field List in FPT
   000076    7 00042 7201 00           204         LXL     X0,MODFR,,PR7        Get count of FR's in Field List
   000077 (0)000111 6000 00            205         TZE     PRMMD                B/ If all fields specified
   000100    000000 4704 07            206         LDP    PR0,VLPSID,DL            VLP$
   000101    000003 4714 07            207           LDP      PR1,RVASID,DL           RVA$
   000102                              208  PRM1   NULL
   000102    0 00000 2221 11           209         LDX     X2,,X1,PR0           Get offset to next FR pointer
   000103    1 00000 1041 12           210           CMPX     X4,,X2,PR1           Is this FR in the field list
   000104 (0)000111 6000 00            211         TZE     PRM2                 B/ If it is.
   000105    000001 0210 03            212         ADLX    X1,1,DU              Increment offset into Field List
   000106    000001 1200 03            213         SBLX    X0,1,DU              Decrement count of FR's to search
   000107 (0)000102 6010 00            214         TNZ     PRM1                 B/ Until all FR's searched
   000110 (0)000065 7100 00            215         TRA     MDKL0                FR not in Field List, try another
   000111                              216  PRM2   NULL
                                       217  *  PRIME KEY IS TO BE "MODIFIED".  MAKE SURE VALUE ISNT
                                       218  *  GOING TO CHANGE.
   000111                              219  PRMMD  NULL
   000111    7 00045 7451 00           220         STX     X5,MODCD,,PR7   SAVE RS PTR FOR MOVE RTN
   000112    7 00516 7451 00           221         STX     X5,PRSS,,PR7    SAVE RS PTR FOR COMPARE RTN
   000113    7 00510 2351 00           222         LDA     RVI,,PR7        *  PUT CURR
   000114    7 00512 2361 00           223         LDQ     RVT,,PR7        *  REC IN
   000115    7 00512 7551 00           224         STA     RVT,,PR7        *   TEMP REC VAR
   000116    7 00510 7561 00           225         STQ     RVI,,PR7        *
   000117 (0)002133 7010 00            226         DBCAL   ZIG$DBCFL,,MKER4 MOVE KEY TO TEMP BUF
   000120 (0)001503 7020 00
   000121    5 00006 2341 00
   000122    777776 6010 04
   000123    7 00512 2351 00           227         LDA     RVT,,PR7        * PUT
   000124    7 00511 2361 00           228         LDQ     RVO,,PR7        *  CURR IN
   000125    7 00511 7551 00           229         STA     RVO,,PR7        *   OUT REC VAR
   000126    7 00512 7561 00           230         STQ     RVT,,PR7        *
 12:48 09/05/97  FILE=ZIM$DBMR.:ZIC0TSI       IDS-II  MODIFY RECORD SUBROUTINE                           10   BMAP - B00
   000127  X 000000 7010 00            231         DBCAL   ZIG$DBPCK,KYSEQ,CKER2 COMPARE KEY
   000130 (0)001503 7020 00
   000131    5 00006 2341 00
   000132    000003 6000 04
   000133    5 00006 4501 00
   000134 (0)000136 7020 00
   000135 (0)001473 7100 00            232         TRA     PRKE1           ERROR-PRIME KEY VALUE TO CHANGE
   000136                              233  KYSEQ  NULL
   000136    7 00510 2371 00           234         LDAQ    RVI,,PR7        * PUT CURR
   000137    7 00511 7551 00           235         STA     RVO,,PR7        *  REC BACK IN
   000140    7 00510 7561 00           236         STQ     RVI,,PR7        *   IN REC VAR
   000141 (0)001124 7100 00            237           TRA      MOD3                 OK.  Modify data fields
   000142                              238  CKALT  NULL
                                       239  *  SEE IF REC HAS ANY ALTERNATE KEYS
   000142    7 01224 2271 00           240         LDX     X7,CRUN+1,,PR7  RC PTR
   000143    6 00000 7211 17           241         LXL     X1,DEF,X7,PR6   DEF WORD FOR RC
   000144    010000 3010 03            242         CANX    X1,.RKEY,DU     DOES REC HAVE ANY ALT KEYS
   000145 (0)000313 6000 00            243         TZE     CKSET           NO - GO CHECK SETS
                                       244  *  REC HAS ALTERNATE KEYS - MOVE REC TO TEMP BUF
   000146    7 00044 7471 00           245         STX     X7,MODRS,,PR7   SAVE RC AS CURR RS
   000147                              246  MDKL1  NULL
   000147    7 00044 2251 00           247         LDX     X5,MODRS,,PR7   GET CURR RS
   000150    6 00002 7251 15           248         LXL     X5,RCRSN,X5,PR6  GET NEXT RS
   000151 (0)000313 6000 00            249         TZE     CKSET           LAST - NOW DO SETS
   000152    7 00044 7451 00           250         STX     X5,MODRS,,PR7   SAVE NEXT RS AS CURR
   000153    6 00003 7261 15           251         LXL     X6,SCRSH,X5,PR6  GET SC FOR CURR RS
   000154    6 00000 7211 16           252         LXL     X1,DEF,X6,PR6   DEF WORD FOR SC
   000155    000700 3610 03            253         ANX     X1,.SETT,DU     ISOLATE SET TYPE
   000156    000300 1010 03            254         CMPX    X1,=O300,DU     IS IT AN RS FOR ALTERNATE
   000157 (0)000147 6010 00            255         TNZ     MDKL1           NO - GET NEXT RS
   000160    7 00045 7451 00           256         STX     X5,MODCD,,PR7   SAVE RS AS CURR CD
   000161                              257  MDKL2  NULL
                                       258  *  SEE IF THIS ALTERNATE KEY IS TO BE MODIFIED
   000161    7 00045 2201 00           259         LDX     X0,MODCD,,PR7   GET CURR CD
   000162    6 00001 2201 10           260         LDX     X0,RSCDN,X0,PR6  GET NEXT CD
   000163 (0)000147 6000 00            261         TZE     MDKL1           NO - GO CHECK NEXT RS
   000164    7 00045 7401 00           262         STX     X0,MODCD,,PR7   SAVE NEXT CD AS CURR
 12:48 09/05/97  FILE=ZIM$DBMR.:ZIC0TSI       IDS-II  MODIFY RECORD SUBROUTINE                           11   BMAP - B00
   000165    6 00000 2211 10           263         LDX     X1,DEF,X0,PR6   DEF WORD FOR CD
   000166    000040 3010 03            264         CANX    X1,.SYNC,DU     IS IT A SYN CD
   000167 (0)000161 6010 00            265         TNZ     MDKL2           YES - SKIP
   000170    6 00002 2241 10           266         LDX     X4,CDSH,X0,PR6  GET FR FOR THIS CD
   000171    7 00042 2211 00           267         LDX     X1,MODFR,,PR7        Get offset to Field List in FPT
   000172    7 00042 7201 00           268         LXL     X0,MODFR,,PR7        Get count of FR's in Field List
   000173 (0)000205 6000 00            269         TZE     ALTMD                B/ If all fields specified
   000174    000000 4704 07            270         LDP    PR0,VLPSID,DL            VLP$
   000175    000003 4714 07            271           LDP      PR1,RVASID,DL           RVA$
   000176                              272  MDKLA  NULL
   000176    0 00000 2221 11           273         LDX     X2,,X1,PR0           Get offset to FR pointer from FPT
   000177    1 00000 1041 12           274           CMPX     X4,,X2,PR1           Is this FR in the field list
   000200 (0)000205 6000 00            275         TZE     MDKLB                B/ If it is.
   000201    000001 0210 03            276         ADLX    X1,1,DU              Increment offset into Field List
   000202    000001 1200 03            277         SBLX    X0,1,DU              Decrement count of FR's to search
   000203 (0)000176 6010 00            278         TNZ     MDKLA                B/ Until all FR's searched
   000204 (0)000161 7100 00            279         TRA     MDKL2                FR not in Field List, try another
   000205                              280  MDKLB  NULL
                                       281  *
                                       282  *  ALTERNATE KEY IS TO BE MODIFIED
                                       283  *
   000205                              284  ALTMD  NULL
   000205    7 00516 7451 00           285         STX     X5,PRSS,,PR7    SAVE FOR CALL TO PRIM
   000206    7 00045 7451 00           286         STX     X5,MODCD,,PR7   SAVE FOR CALL TO MOVE RTN
   000207    7 00676 4451 00           287         SXL     X5,XPRS,,PR7    SAVE RS FOR INDEX PRIMS
   000210    6 00003 7261 15           288           LXL      X6,SCRSH,X5,PR6      SC FOR ALTERNATE KEY
   000211  X 000000 7010 00            289           DBCAL    ZIG$DBPMS,,MMER1     MOVE MATCH KEYS TO TBUF
   000212 (0)001503 7020 00
   000213    5 00006 2341 00
   000214    777776 6010 04
   000215    7 00510 2371 00           290           LDAQ     RVI,,PR7             *
   000216    7 00511 7551 00           291           STA      RVO,,PR7
   000217    7 00510 7561 00           292           STQ      RVI,,PR7
   000220  X 000000 7010 00            293           DBCAL    ZIG$DBPCK,MDKL3,CKER4   COMPARE KEYS
   000221 (0)001501 7020 00
   000222    5 00006 2341 00
   000223    000003 6000 04
 12:48 09/05/97  FILE=ZIM$DBMR.:ZIC0TSI       IDS-II  MODIFY RECORD SUBROUTINE                           12   BMAP - B00
   000224    5 00006 4501 00
   000225 (0)000307 7020 00
   000226    7 00510 2371 00           294           LDAQ     RVI,,PR7
   000227    7 00511 7551 00           295           STA      RVO,,PR7
   000230    7 00510 7561 00           296           STQ      RVI,,PR7
   000231    7 00510 2211 00           297           LDX      X1,RVI,,PR7
   000232    7 00002 4735 11           298           LDP3     RADDR,X1,PR7         RECORD
   000233    7 00004 4745 00           299           LDP4     TBUF,,PR7            TEMP BUFFER
   000234    7 00003 2211 11           300           LDX      X1,RECSZ,X1,PR7      SIZE OF RECORD
   000235    000 0 140 1005 40         301           MLR      (1,1),(1,1)          MOVE
   000236    3 00000 0 0 0 0011        302           ADSC9    0,0,X1,PR3           * RECORD
   000237    4 00000 0 0 0 0011        303           ADSC9    0,0,X1,PR4           *  TO TEMP BUFFER
                                       304  *  MOVE OLD KEY FROM TEMP BUF TO PROCESS AREA
   000240  X 000000 7010 00            305         DBCAL   ZIG$DBXKT,,MKER2 MOVE KEY FROM TEMP TO PROCESS
   000241 (0)001503 7020 00
   000242    5 00006 2341 00
   000243    777776 6010 04
                                       306  *  REMOVE ENTRY FROM ALTERNATE INDEX
   000244  X 000000 7010 00            307           DBCAL    ZIM$KDEL,,DAER1      Delete old alternate
   000245 (0)001503 7020 00
   000246    5 00006 2341 00
   000247    777776 6010 04
                                       308  *  PUSH RS & SC FOR THIS ALTERNATE IN STACK
   000250    7 00516 2251 00           309         LDX     X5,PRSS,,PR7    RS PTR
   000251    6 00003 7261 15           310         LXL     X6,SCRSH,X5,PR6  SC PTR FOR CURR RS
   000252    000000 6360 15            311         EAQ     ,X5             RS PTR TO QU
   000253    000000 6350 16            312         PSHDP   STKE4           PUSH RS & SC PTR IN STACK
   000254    7 00270 7571 53
   000255 (0)001437 6064 00
   000256    400000 6210 00            313         EAX     X1,.B0
   000257    7 00047 4411 00           314         SXL     X1,MRBKI,,PR7   SET IND. TO NOT DELETE NEW ENTRY ON BO
                                       315  *  MOVE NEW KEY TO PROCESS AREA
   000260 (0)002206 7010 00            316         DBCAL   ZIG$DBKMS,,MKER3 MOVE KEY
   000261 (0)001503 7020 00
   000262    5 00006 2341 00
   000263    777776 6010 04
   000264    7 00512 2351 00           317         LDA     RVT,,PR7        * REVERSE
 12:48 09/05/97  FILE=ZIM$DBMR.:ZIC0TSI       IDS-II  MODIFY RECORD SUBROUTINE                           13   BMAP - B00
   000265    7 00510 2361 00           318         LDQ     RVI,,PR7        *  IN AND TEMP
   000266    7 00510 7551 00           319         STA     RVI,,PR7        *   REC VARIABLES
   000267    7 00512 7561 00           320         STQ     RVT,,PR7        *
                                       321  *  PUT NEW ENTRY INTO ALTERNATE INDEX
   000270  X 000000 7010 00            322           DBCAL    ZIM$KSTO,,SAER1      Store new alternate
   000271 (0)001503 7020 00
   000272    5 00006 2341 00
   000273    777776 6010 04
   000274    000000 6210 00            323         EAX     X1,0
   000275    7 00047 4411 00           324         SXL     X1,MRBKI,,PR7   RESET IND. TO DELETE NEW ENTRY ON BO
                                       325  *  UPDATE CURR OF ALTERNATE KEY
   000276    7 00516 2251 00           326         LDX     X5,PRSS,,PR7    RS PTR
   000277    6 00003 7261 15           327         LXL     X6,SCRSH,X5,PR6  SC PTR FOR CURR RS
   000300    7 00520 7461 00           328         STX     X6,PRSC,,PR7    SAVE FOR CALL
   000301    7 00512 2351 00           329         LDA     RVT,,PR7        * REVERSE
   000302    7 00511 2361 00           330         LDQ     RVO,,PR7        *  OUT AND TEMP
   000303    7 00511 7551 00           331         STA     RVO,,PR7        *   REC VARIABLES
   000304    7 00512 7561 00           332         STQ     RVT,,PR7        *
   000305  X 000000 7010 00            333           DBCAL    ZIM$KCURR,,NOALT     Update current of key
   000306    000000 0020 00
   000307                              334  MDKL3    NULL
   000307    7 00510 2371 00           335         LDAQ    RVI,,PR7        * REVERSE
   000310    7 00511 7551 00           336         STA     RVO,,PR7        *  IN AND OUT
   000311    7 00510 7561 00           337         STQ     RVI,,PR7        *   REC VARIABLES
                                       338  *  CURRENT IS IN INPUT REC VAR
   000312 (0)000147 7100 00            339         TRA     MDKL1           GET NEXT RS

 12:48 09/05/97  FILE=ZIM$DBMR.:ZIC0TSI       IDS-II  MODIFY RECORD SUBROUTINE                           14   BMAP - B00
                                       340         EJECT
                                       341  *
                                       342  ****************************************************************
                                       343  *
                                       344  *  Modify Set Memberships - Except Calc
                                       345  *
                                       346  *      Current of run is in input record variable before, and
                                       347  *      after, this routine is executed.
                                       348  *
                                       349  ****************************************************************
                                       350  *
   000313                              351  CKSET  NULL
                                       352  *  LOCK THE RECORD AND MARK AS MODIFIED
   000313    7 00510 2231 00           353        LOCK    RVI
   000314  X 000000 7010 00
   000315    000000 0020 00
   000316    7 00510 2231 00           354        LDX     X3,RVI,,PR7
   000317  X 000000 7010 00            355        DBCAL   ZIM$DBPMR,NOEXC,LKER4
   000320 (0)001503 7020 00
   000321    7 01224 2271 00           356         LDX     X7,CRUN+1,,PR7  GET RC FOR CURR OF RUN
   000322    7 00044 7471 00           357         STX     X7,MODRS,,PR7   SAVE AS CURR RS
   000323                              358  MODL1  NULL
   000323    7 00044 2251 00           359         LDX     X5,MODRS,,PR7   GET CURRENT RS
   000324    6 00002 7251 15           360         LXL     X5,RCRSN,X5,PR6  GET NEXT RS
   000325    000420 6000 04            361         TZE     MOD2,$          LAST
   000326    7 00044 7451 00           362         STX     X5,MODRS,,PR7   SAVE AS CURRENT
   000327    6 00000 2211 15           363         LDX     X1,DEF,X5,PR6
   000330    004000 3010 03            364         CANX    X1,.SM,DU
   000331 (0)000323 6000 00            365         TZE     MODL1
   000332    6 00003 7261 15           366         LXL     X6,SCRSH,X5,PR6  GET SC FOR CURR RS
   000333    6 00000 7211 16           367         LXL     X1,DEF,X6,PR6   GET SET TYPE
   000334    000700 3610 03            368         ANX     X1,.SETT,DU     ISOLATE - IS IT A USER SET
   000335 (0)000323 6010 00            369         TNZ     MODL1           NO - GET NEXT RS
                                       370  *  SEE IF THIS SET IS IN THE INCLUDING LIST
   000336    7 00047 2211 00           371         LDX     X1,FCSS,,PR7
   000337    200000 3010 03            372         CANX    X1,.B1,DU       ARE ALL SETS SPECIFIED
   000340 (0)000446 6010 00            373         TNZ     NWSET           YES
 12:48 09/05/97  FILE=ZIM$DBMR.:ZIC0TSI       IDS-II  MODIFY RECORD SUBROUTINE                           15   BMAP - B00
   000341    7 00043 2211 00           374         LDX     X1,MODSC,,PR7        Get offset to Set List in FPT
   000342    7 00043 7201 00           375         LXL     X0,MODSC,,PR7        Get count of SC's in Set List
   000343 (0)000354 6000 00            376         TZE     CKSK                 B/ If no sets - go check sort keys
   000344    000000 4704 07            377         LDP    PR0,VLPSID,DL            VLP$
   000345    000003 4714 07            378           LDP      PR1,RVASID,DL           RVA$
   000346                              379  MODLA  NULL
   000346    0 00000 2221 11           380         LDX     X2,,X1,PR0           Get offset to SC pointer from FPT
   000347    1 00000 1061 12           381           CMPX     X6,,X2,PR1           Is this FR in the field list
   000350 (0)000446 6000 00            382         TZE     NWSET                B/ If it is.
   000351    000001 0210 03            383         ADLX    X1,1,DU              Increment offset into Set List
   000352    000001 1200 03            384         SBLX    X0,1,DU              Decrement count of SC's to search
   000353 (0)000346 6010 00            385         TNZ     MODLA                B/ Until all SC's searched
                                       386  *  SEE IF ANY CONTROL FIELDS PRESENT & SPECIFIED FOR THIS SET
   000354                              387  CKSK   NULL
   000354    7 00045 7451 00           388         STX     X5,MODCD,,PR7   SAVE RS AS CURR CD
                                       389  *  CHECK IF OPTIONAL MANUAL SET & IF NOT CONNECTED THEN IS OK -
                                       390  *  DONT WANT SET INCLUDED
   000355    6 00000 7211 15           391         LXL     X1,DEF,X5,PR6
   000356    140000 3010 03            392         CANX    X1,.MSM+.OSM,DU  IS THIS MANUAL OR OPTIONAL MEMBER
   000357 (0)000367 6000 00            393         TZE     MODL2           NO - GO ON
   000360    7 00510 2211 00           394         LDX     X1,RVI,,PR7
   000361    7 00002 4735 11           395         LDP     PR3,RADDR,X1,PR7     PR3->Record
   000362    000 1 100 1015 20         396         MRL     (1,,1),(1),0,1     * MOVE
   000363    6 00004 0001 15           397         ARG     NPOS,X5,PR6        *  NEXT PTR
   000364    7 00061 0 0 0 0004        398         ADSC9   ITPTR,0,4,PR7        To Work Space
   000365    7 00061 2341 00           399         SZN     ITPTR,,PR7      IS REC NOW A MEMBER
   000366 (0)000323 6000 00            400         TZE     MODL1           NO-SO IS OK IF MODIFY CONTROL FIELDS
   000367                              401  MODL2  NULL
   000367    7 00045 2201 00           402         LDX     X0,MODCD,,PR7   GET CURR CD
   000370    6 00001 2201 10           403         LDX     X0,RSCDN,X0,PR6  GET NEXT CD
   000371 (0)000323 6000 00            404         TZE     MODL1           NO - GO CHECK NEXT SET
   000372    7 00045 7401 00           405         STX     X0,MODCD,,PR7   SAVE NEXT CD AS CURR
   000373    6 00002 2241 10           406         LDX     X4,CDSH,X0,PR6  GET FR FOR CD
   000374    7 00047 2211 00           407         LDX     X1,FCSS,,PR7    IS ONLY SPECIFIED
   000375 (0)000323 6040 00            408         TMI     MODL1           YES GO TO NEXT SET
   000376    7 00042 2211 00           409         LDX     X1,MODFR,,PR7        Get offset to Field List in FPT
   000377    7 00042 7201 00           410         LXL     X0,MODFR,,PR7        Get count of FR's in Field List
 12:48 09/05/97  FILE=ZIM$DBMR.:ZIC0TSI       IDS-II  MODIFY RECORD SUBROUTINE                           16   BMAP - B00
   000400 (0)000412 6000 00            411         TZE     NWORD                B/ If all fields specified
   000401    000000 4704 07            412         LDP    PR0,VLPSID,DL            VLP$
   000402    000003 4714 07            413           LDP      PR1,RVASID,DL           RVA$
   000403                              414  MODLB  NULL
   000403    0 00000 2221 11           415         LDX     X2,,X1,PR0           Get offset to FR pointer from FPT
   000404    1 00000 1041 12           416           CMPX     X4,,X2,PR1           Is this FR in the field list
   000405 (0)000412 6000 00            417         TZE     MODLC                B/ If it is.
   000406    000001 0210 03            418         ADLX    X1,1,DU              Increment offset into Field List
   000407    000001 1200 03            419         SBLX    X0,1,DU              Decrement count of FR's to search
   000410 (0)000403 6010 00            420         TNZ     MODLB                B/ Until all FR's searched
   000411 (0)000367 7100 00            421         TRA     MODL2                FR not in Field List, try another
   000412                              422  MODLC  NULL
   000412                              423  NWORD  NULL
                                       424  *
                                       425  *      THIS SET IS NOT INCLUDED, BUT SOME CD SPECIFIED IN FR-LIST
                                       426  *
                                       427  *      HOWEVER, IF THE DATA IN FR-LIST REMAIN UNCHANGED, IT IS OK
                                       428  *
   000412    7 00516 7451 00           429         STX    X5,PRSS,,PR7        X5 = RS
   000413    7 00045 7451 00           430         STX    X5,MODCD,,PR7       PASS TO .DBCFL
   000414    7 00510 2351 00           431         LDA    RVI,,PR7            *  PUT CURR REC
   000415    7 00512 2361 00           432         LDQ    RVT,,PR7            *    TO TEMP
   000416    7 00510 7561 00           433         STQ    RVI,,PR7            *       REC VARIABLE
   000417    7 00512 7551 00           434         STA    RVT,,PR7
   000420 (0)002133 7010 00            435         DBCAL  ZIG$DBCFL,,CKER1    MOVE KEY FROM UWA TO TEMP BUF
   000421 (0)001501 7020 00
   000422    5 00006 2341 00
   000423    777776 6010 04
   000424    7 00512 2351 00           436         LDA    RVT,,PR7
   000425    7 00511 2361 00           437         LDQ    RVO,,PR7            SWAP RVO AND RVT
   000426    7 00511 7551 00           438         STA    RVO,,PR7
   000427    7 00512 7561 00           439         STQ    RVT,,PR7
   000430  X 000000 7010 00            440         DBCAL  ZIG$DBPCK,KEYEQ1,CKER3 COMPARE KEYS SEE IF CHANGED
   000431 (0)001501 7020 00
   000432    5 00006 2341 00
   000433    000003 6000 04
   000434    5 00006 4501 00
 12:48 09/05/97  FILE=ZIM$DBMR.:ZIC0TSI       IDS-II  MODIFY RECORD SUBROUTINE                           17   BMAP - B00
   000435 (0)000442 7020 00
                                       441  *      KEY    CHANGED,  ERROR   THE  STATEMENT
   000436    7 00510 2371 00           442         LDAQ   RVI,,PR7
   000437    7 00511 7551 00           443         STA    RVO,,PR7            RESTORE CURRENT REC TO RVI
   000440    7 00510 7561 00           444         STQ    RVI,,PR7
   000441 (0)001456 7100 00            445         TRA    RLCS                GOTO ERROR SECTION
   000442                              446  KEYEQ1 NULL
   000442    7 00510 2371 00           447         LDAQ   RVI,,PR7            RESTORE CRUN TO RVI
   000443    7 00511 7551 00           448         STA    RVO,,PR7
   000444    7 00510 7561 00           449         STQ    RVI,,PR7
   000445 (0)000323 7100 00            450         TRA    MODL1               PROCESS NEXT RS
   000446                              451  NWSET  NULL                    RELINK TO NEW SET OCCUR.
   000446    7 00520 7461 00           452         STX     X6,PRSC,,PR7    PUT SC PTR IN PRIM. CALL
                                       453  *
                                       454  ****************************************************************
                                       455  *
                                       456  *      Check that the record is currently a member of this
                                       457  *      set.
                                       458  *
                                       459  *      If the record is NOT currently a member, and the set
                                       460  *      is included, that's an error.
                                       461  *
                                       462  *      If the record is NOT a current member and the set is
                                       463  *      not included, no set change is necessary - only data
                                       464  *      changes.
                                       465  *
                                       466  ****************************************************************
                                       467  *
   000447    7 00510 2211 00           468         LDX     X1,RVI,,PR7        GET CRUN REC VARIABLE
   000450    7 00002 4735 11           469         LDP     PR3,RADDR,X1,PR7   LOAD RECORD ADDRESS
   000451    000 1 100 1015 20         470         MRL     (1,,1),(1),0,1     *  MOVE
   000452    6 00004 0001 15           471         ARG     NPOS,X5,PR6        *   NEXT PTR TO
   000453    7 00061 0 0 0 0004        472         ADSC9   ITPTR,0,4,PR7      *    WORK SPACE
   000454    6 00000 7201 15           473         LXL     X0,DEF,X5,PR6
   000455    140000 3000 03            474         CANX    X0,.MSM+.OSM,DU    IS THIS A MANUAL OR OPTIONAL MEMBER
   000456 (0)000461 6000 00            475         TZE     NMS1               NO - GO ON
   000457    7 00061 2341 00           476         SZN     ITPTR,,PR7         IS THIS RECORD CONNECTED
 12:48 09/05/97  FILE=ZIM$DBMR.:ZIC0TSI       IDS-II  MODIFY RECORD SUBROUTINE                           18   BMAP - B00
   000460 (0)001451 6000 00            477         TZE     RER7               UNCONNECT MEMBER, ERROR
   000461                              478  NMS1  NULL
   000461    7 00045 7451 00           479        STX     X5,MODCD,,PR7       SAVE RS AS CURR CD
   000462    6 00001 2201 15           480        LDX     X0,RSCDN,X5,PR6     IS ANY CD FOR THIS RS
   000463 (0)000600 6000 00            481        TZE     NMS3                NO KEY FOR THE SET, GOTO MODIFY IT
   000464    7 00516 7451 00           482        STX     X5,PRSS,,PR7
   000465    7 00510 2351 00           483        LDA     RVI,,PR7
   000466    7 00512 2361 00           484        LDQ     RVT,,PR7
   000467    7 00512 7551 00           485        STA     RVT,,PR7            PUT CURR REC IN RVT
   000470    7 00510 7561 00           486        STQ     RVI,,PR7
   000471 (0)002133 7010 00            487        DBCAL   ZIG$DBCFL,,CKER1    MERGE KEY IN UWA AND PAGE
   000472 (0)001501 7020 00
   000473    5 00006 2341 00
   000474    777776 6010 04
   000475    7 00512 2351 00           488        LDA     RVT,,PR7
   000476    7 00511 2361 00           489        LDQ     RVO,,PR7
   000477    7 00511 7551 00           490        STA     RVO,,PR7            PUT CURR REC IN RVO
   000500    7 00512 7561 00           491        STQ     RVT,,PR7
   000501  X 000000 7010 00            492        DBCAL   ZIG$DBPCK,KEYEQ2,CKER3        CHK IF KEY CHANGED
   000502 (0)001501 7020 00
   000503    5 00006 2341 00
   000504    000003 6000 04
   000505    5 00006 4501 00
   000506 (0)000515 7020 00
   000507    7 00510 2371 00           493        LDAQ    RVI,,PR7
   000510    7 00511 7551 00           494        STA     RVO,,PR7            RESOTRE CURR REC TO RVI
   000511    7 00510 7561 00           495        STQ     RVI,,PR7
   000512    7 00044 2251 00           496        LDX     X5,MODRS,,PR7       RESTORE RS
   000513    6 00003 7261 15           497        LXL     X6,SCRSH,X5,PR6     RESTORE SC
   000514 (0)000600 7100 00            498        TRA     NMS3                YES - KEY CHANGED, SO MODIFY SET
   000515                              499  KEYEQ2 NULL
   000515    7 00511 2351 00           500        LDA     RVO,,PR7
   000516    7 00512 2361 00           501        LDQ     RVT,,PR7
   000517    7 00512 7551 00           502        STA     RVT,,PR7            PUT CURR REC IN RVT
   000520    7 00511 7561 00           503        STQ     RVO,,PR7            DBAF USES RVI AND RVO
   000521    7 00044 2251 00           504        LDX     X5,MODRS,,PR7       PASS $X5
   000522  X 000000 7010 00            505        DBCAL   ZIG$DBAF,NOEXC,AFER1     FIND NEW SET OWNER
 12:48 09/05/97  FILE=ZIM$DBMR.:ZIC0TSI       IDS-II  MODIFY RECORD SUBROUTINE                           19   BMAP - B00
   000523 (0)001501 7020 00
   000524    7 00044 2251 00           506        LDX     X5,MODRS,,PR7       RESTROE RS
   000525    7 00510 2351 00           507        LDA     RVI,,PR7
   000526    7 00512 2361 00           508        LDQ     RVT,,PR7
   000527    7 00512 7551 00           509        STA     RVT,,PR7            RESTORE CURR REC TO RVI
   000530    7 00510 7561 00           510        STQ     RVI,,PR7
   000531    7 00510 2211 00           511        LDX     X1,RVI,,PR7
   000532    7 00002 4735 11           512        LDP     PR3,RADDR,X1,PR7    GET RECORD IN PAGE BUFFER
   000533    000 1 100 1015 20         513        MRL     (1,,1),(1),0,1
   000534    6 00006 0001 15           514        ARG     HPOS,X5,PR6         MOVE OWNER PTR TO WORK SPACE
   000535    7 00631 0 0 0 0004        515        ADSC9   PTR,0,4,PR7
   000536    7 00631 2351 00           516        LDA     PTR,,PR7
   000537    6 00003 7261 15           517        LXL     X6,SCRSH,X5,PR6     GET SC
   000540    6 00000 7201 16           518        LXL     X0,DEF,X6,PR6       GET LOCAL/GLOAL IND
   000541    001000 3000 03            519        CANX    X0,.LG,DU           IS IT GLOBAL
   000542 (0)000545 6010 00            520        TNZ     *+3                 YES
   000543    7 00005 2201 11           521        LDX     X0,ACPTR,X1,PR7
   000544    6 00002 0351 10           522        ADLA    ABAS,X0,PR6         CONVERT LOCAL DBK TO GLOBAL
                                       523  *
                                       524  *     IF THE CONTROL FIELD AND THE NEW OWNER REMAIN UNCHANGED
                                       525  *     DONT MODIFY THE SET MEMBERSHIP, GOTO PROCESS NEXT SET
                                       526  *
   000545    7 00512 2231 00           527        LDX     X3,RVT,,PR7         RVT HAS THE NEW SOS REC
   000546    7 00000 1151 13           528        CMPA    DBKEY,X3,PR7        ONWER CHANGED?
   000547 (0)000323 6000 00            529        TZE     MODL1               NO - GOTO NEXT SET
                                       530  *
                                       531  *     THE NEW SOS REC MAY BE A CURR OF THE SET WHICH MAYBE CURR REC
                                       532  *
   000550    7 00000 2351 13           533        LDA     DBKEY,X3,PR7        LOAD THE DBK OF SOS SELECTED REC
   000551    7 00000 1151 11           534        CMPA    DBKEY,X1,PR7        IS IT CURR REC?
   000552 (0)000323 6000 00            535        TZE     MODL1               YES- SET MEMBERSHIP NOT CHANGED
   000553    7 00002 4735 13           536        LDP     PR3,RADDR,X3,PR7    GET NEW SOS REC ADDR
   000554    7 00000 6345 13           537      EPPR PR4,0,X3,PR7        comma missing on line of code
   000555    000 1 100 1005 00         538        MLR     (1),(1),,1          * MOVE
   000556    3 00000 0 0 0 0002        539        ADSC9   0,0,2,PR3           *  REC TYPE
   000557    4 00003 4 0 0 0002        540        ADSC9   RTP,2,2,PR4         *   TO RIGHT HALF WORD OF RTP
   000560    7 00003 2351 13           541        LDA     RTP,X3,PR7            PASS REC TYPE
 12:48 09/05/97  FILE=ZIM$DBMR.:ZIC0TSI       IDS-II  MODIFY RECORD SUBROUTINE                           20   BMAP - B00
   000561  X 000000 7010 00            542        ICCAL   ZIG$DBPR2,AFER1,AFER1  EXC IF NOT FOUND RS
   000562 (0)001501 7020 00
   000563    5 00006 2341 00
   000564    000003 6000 04
   000565    5 00006 4501 00
   000566 (0)001501 7020 00
                                       543  *
                                       544  *     X5=RS  X7=RC  X6=SC  PR3=NEW SOS REC ADDR   X3=RVT
                                       545  *
   000567    6 00000 2201 15           546        LDX     X0,DEF,X5,PR6
   000570    004000 3000 03            547        CANX    X0,.SM,DU           IS NEW SOS A SM?
   000571 (0)000600 6000 00            548        TZE     NMS3                NO- ITS A SO, GOTO MODIFY SET
   000572    7 00631 2351 00           549        LDA     PTR,,PR7            SAVE OWNER PTR OF CURR REC
   000573    000 1 100 1015 20         550        MRL     (1,,1),(1),0,1
   000574    6 00006 0001 15           551        ARG     HPOS,X5,PR6         MOVE OWNER PTR OF NEW SOS REC
   000575    7 00631 0 0 0 0004        552        ADSC9   PTR,0,4,PR7         TO WORK SPACE
   000576    7 00631 1151 00           553        CMPA    PTR,,PR7            ARE THEY IN THE SAME SET OCCUR?
   000577 (0)000323 6000 00            554        TZE     MODL1               YES - DONT MODIFY SET MEMBERSHIP
   000600                              555  NMS3  NULL                        MODIFY SET, DISCONNECT THEN RECONNECT
   000600    7 00520 7461 00           556        STX     X6,PRSC,,PR7        RESET SC, DBAF MAY CHANGE IT
                                       557  *  DISCONNECT FROM SET OCCUR.
   000601    400000 2350 03            558         LDA     .B0,DU
   000602    7 00517 7551 00           559         STA     PRRC,,PR7       SET REC TYPE REQUEST TO ANY
                                       560  *
   000603    6 00000 2351 16           561         LDA     DEF,X6,PR6      GET ET MODE
   000604    000070 3750 03            562         ANA     .SETM,DU        ISLOATE
   000605    000020 1150 03            563         CMPA    =O020,DU        IS IT POINTER ARRAY
   000606 (0)000620 6010 00            564         TNZ     FNDP            NO
                                       565  *
   000607    7 00510 2211 00           566         LDX     X1,RVI,,PR7
   000610    7 00061 2351 00           567         LDA     ITPTR,,PR7      GET PTR
   000611    6 00000 7201 16           568         LXL     X0,DEF,X6,PR6   GET LOCAL / GLOBAL INDICATOR FROM SC
   000612    001000 3000 03            569         CANX    X0,.LG,DU       IS IT A GLOBAL SET
   000613 (0)000616 6010 00            570         TNZ     SPTR            YES
                                       571  *
   000614    7 00005 2201 11           572         LDX     X0,ACPTR,X1,PR7  NO - GET AC PTR
   000615    6 00002 0351 10           573         ADLA    ABAS,X0,PR6     MAKE PTR GLOBAL DBK
 12:48 09/05/97  FILE=ZIM$DBMR.:ZIC0TSI       IDS-II  MODIFY RECORD SUBROUTINE                           21   BMAP - B00
                                       574  *
   000616                              575  SPTR   NULL
   000616    7 00015 7551 11           576         STA     CBRPA,X1,PR7    SAVE DBK OF PA REC IN RVI
   000617    7 00014 4501 11           577         STZ     CBRCE,X1,PR7    ZERO OUT PA ENTRY AND PTR OFFSETS IN RVI
   000620                              578  FNDP   NULL
                                       579  *
   000620  X 000000 7010 00            580         DBCAL   ZIG$DBPFP,FM2,FPER1 FIND PRIOR REC
   000621 (0)001503 7020 00
   000622    5 00006 2341 00
   000623    000003 6000 04
   000624    5 00006 4501 00
   000625 (0)000626 7020 00
   000626                              581  FM2    NULL
   000626    7 00511 2351 00           582         LDA     RVO,,PR7        * PUT PRIOR
   000627    7 00512 2361 00           583         LDQ     RVT,,PR7        *  REC IN
   000630    7 00512 7551 00           584         STA     RVT,,PR7        *   THE TEMP REC VAR
   000631    7 00511 7561 00           585         STQ     RVO,,PR7        *
   000632  X 000000 7010 00            586           DBCAL    ZIM$PDIS,,DSER1      Disconnect the record
   000633 (0)001503 7020 00
   000634    5 00006 2341 00
   000635    777776 6010 04
   000636    000001 2250 03            587         LDX     X5,1,DU         MARK SET MODIFY HALF DONE(DISCONNECTED)
   000637    7 01060 7451 00           588         STX     X5,PAFLG,,PR7   MARK IT. VITAL TO PA RECOVERY
   000640    7 00044 2251 00           589         LDX     X5,MODRS,,PR7      GET CURRENT RS
   000641    7 00270 4451 51           590         SXL     X5,.DBEST,I,PR7    SAVE IN STACK
   000642    7 00512 2211 00           591         LDX     X1,RVT,,PR7
   000643    7 00000 2361 11           592         LDQ     DBKEY,X1,PR7    GET DBK OF PRIOR
   000644    7 00004 2261 11           593         LDX     X6,SCPTR,X1,PR7  GET SC
   000645    7 00270 7461 56           594         STX     X6,.DBEST,ID,PR7  SAVE SC IN STACK
   000646    7 00270 7561 56           595         STQ     .DBEST,ID,PR7   SAVE DBK OF PRIOR IN STACK
   000647 (0)001437 6064 00            596         TTN     STKE2
                                       597  *  IF REC IS CURR, MAKE PRIOR CURR & SET CURR WAS ERASED INDICATOR
   000650    7 00510 2231 00           598         LDX     X3,RVI,,PR7     IN REC VAR
   000651    7 00000 2361 13           599         LDQ     DBKEY,X3,PR7    GET DBK OF REC DISCONNECTED
   000652    6 00001 2211 16           600         LDX     X1,SCWSO,X6,PR6  GET WORK SPACE OFST
   000653    7 00001 1161 11           601         CMPQ    CURR,X1,PR7     IS REC CURR
   000654 (0)000671 6010 00            602         TNZ     DRNC            NO
 12:48 09/05/97  FILE=ZIM$DBMR.:ZIC0TSI       IDS-II  MODIFY RECORD SUBROUTINE                           22   BMAP - B00
   000655    7 00512 2201 00           603         LDX     X0,RVT,,PR7     TEMP REC VAR
   000656    7 00000 2361 10           604         LDQ     DBKEY,X0,PR7    GET DBK OF PRIOR
   000657    7 00001 7561 11           605         STQ     CURR,X1,PR7     SAVE AS CURR
                                       606  *
   000660    6 00000 2231 16           607         LDX     X3,DEF,X6,PR6   GET SET MODE
   000661    000070 3630 03            608         ANX     X3,.SETM,DU     ISOLATE
   000662    000020 1030 03            609         CMPX    X3,=O20,DU      IS IT POINTER ARRAY
   000663 (0)000667 6010 00            610         TNZ     SCWEB           NO
                                       611  *
   000664    7 00014 2371 10           612         LDAQ    CBRCE,X0,PR7    GET PA ENTRY AND PTR OFSTS AND DBK OF PA
   000665    7 00002 7551 11           613         STA     CBENO,X1,PR7    SAVE PA OFFSETS IN SET WS
   000666    7 00003 7561 11           614         STQ     CBCPA,X1,PR7    SAVE DBK OF PA IN SET WS
                                       615  *
   000667                              616  SCWEB  NULL
   000667    400000 6200 00            617         EAX     X0,.B0
   000670    7 00000 2401 11           618         ORSX    X0,.CSE,X1,PR7  SET CURR WAS ERASED BIT
   000671                              619  DRNC   NULL
   000671    7 00510 2351 00           620         LDA     RVI,,PR7        * PUT CURR
   000672    7 00512 2361 00           621         LDQ     RVT,,PR7        *  REC IN
   000673    7 00512 7551 00           622         STA     RVT,,PR7        *   TEMP REC VAR
   000674    7 00510 7561 00           623         STQ     RVI,,PR7        *
                                       624  *  FIND NEW SET OCCUR. THRU SOS IF SET WAS IN INCL. LIST
   000675    7 00044 2251 00           625         LDX     X5,MODRS,,PR7   GET CURRENT RS
   000676  X 000000 7010 00            626        DBCAL   ZIG$DBAF,NOEXC,AFER1
   000677 (0)001501 7020 00
   000700                              627  SNIIL  NULL
                                       628  *  MOVE SORT/DUP KEYS TO TEMP REC BUF
   000700    7 00044 2251 00           629         LDX     X5,MODRS,,PR7   GET CURR RS
   000701    6 00003 7261 15           630         LXL     X6,SCRSH,X5,PR6  GET SC FOR RS
   000702    7 00520 7461 00           631         STX     X6,PRSC,,PR7    PUT IN PRIM. REQUEST
   000703    7 00045 7451 00           632         STX     X5,MODCD,,PR7   SAVE AS ARG TO .DBCFL
   000704 (0)002133 7010 00            633         DBCAL   ZIG$DBCFL,,SKER2 MOVE CONTROL FIELDS TO TEMP REC BUF
   000705 (0)001501 7020 00
   000706    5 00006 2341 00
   000707    777776 6010 04
                                       634  *  IF SET IS A POINTER ARRAY SET, MOVE SORT(PA) KEYS FROM
                                       635  *  TEMP BUF TO KEY PROCESS AREA
 12:48 09/05/97  FILE=ZIM$DBMR.:ZIC0TSI       IDS-II  MODIFY RECORD SUBROUTINE                           23   BMAP - B00
   000710    7 00044 2251 00           636         LDX     X5,MODRS,,PR7   GET CURR RS PTR
   000711    6 00000 2211 15           637         LDX     X1,DEF,X5,PR6   GET MEMBER TYPE
   000712    000007 3610 03            638         ANX     X1,.MEMT,DU     ISOLATE
   000713    000001 1010 03            639         CMPX    X1,=O1,DU       IS IT A PA MEMBER
   000714 (0)000722 6010 00            640         TNZ     CNREC           NO
                                       641  *
   000715    7 00516 7451 00           642         STX     X5,PRSS,,PR7    YES - SAVE RS PTR FOR CALL AND
   000716  X 000000 7010 00            643         DBCAL   ZIG$DBAKP,,MPAKE MOVE KEYS TO KEY PROCESS AREA
   000717 (0)001501 7020 00
   000720    5 00006 2341 00
   000721    777776 6010 04
                                       644  *
   000722                              645  CNREC  NULL
                                       646  *  FIND INSERT POINT IN SET
   000722  X 000000 7010 00            647         DBCAL   ZIG$DBPFI,,FIPE3
   000723 (0)001503 7020 00
   000724    5 00006 2341 00
   000725    777776 6010 04
                                       648  *  CONNECT TO SET
   000726  X 000000 7010 00            649           DBCAL    ZIM$PCON,,CNER1      Insert into set
   000727 (0)001503 7020 00
   000730    5 00006 2341 00
   000731    777776 6010 04
   000732    000000 2230 03            650         LDX     X3,0,DU         SET MODIFY COMPLETE(USE WHEN RECOVER PA)
   000733    7 01060 7431 00           651         STX     X3,PAFLG,,PR7   (TO DO DISCONNECT THEN RE-CONNECT)
                                       652  *
   000734  X 000000 7010 00            653           ICCAL    ZIG$DBUPP,,UPAOE     Update PA offsets if PA set
   000735 (0)001501 7020 00
   000736    5 00006 2341 00
   000737    777776 6010 04
                                       654  *
   000740    7 00512 2351 00           655         LDA     RVT,,PR7        * PUT CURR
   000741    7 00510 2361 00           656         LDQ     RVI,,PR7        *  REC BACK IN
   000742    7 00510 7551 00           657         STA     RVI,,PR7        *   INPUT REC VAR
   000743    7 00512 7561 00           658         STQ     RVT,,PR7        *
   000744 (0)000323 7100 00            659         TRA     MODL1           GO TO NEXT RS

 12:48 09/05/97  FILE=ZIM$DBMR.:ZIC0TSI       IDS-II  MODIFY RECORD SUBROUTINE                           24   BMAP - B00
                                       660         EJECT
                                       661  *
                                       662  ****************************************************************
                                       663  *
                                       664  *  Modify Calc Keys - If present and specified
                                       665  *
                                       666  *      Current of run is in the input record variable before,
                                       667  *      and after, this routine is executed.
                                       668  *
                                       669  ****************************************************************
                                       670  *
   000745                              671  MOD2   NULL
   000745    7 00510 2231 00           672         LDX     X3,RVI,,PR7     SET X3 TO REC VAR IN
   000746    7 00006 2271 13           673         LDX     X7,RCPTR,X3,PR7  GET RC PTR
   000747    6 00000 2211 17           674         LDX     X1,DEF,X7,PR6   GET DEF TYPE FROM RC
   000750    000007 3610 03            675         ANX     X1,.PSTO,DU     ISOLATE LOC MODE
   000751    000001 1010 03            676         CMPX    X1,1,DU         IS IT A CALC RECORD
   000752 (0)001124 6010 00            677         TNZ     MOD3            NO - GO ON
                                       678  *    IT IS A CALC REC - SEE IF ANY OF THE KEYS ARE SPECIFIED
   000753    6 00004 2261 00           679         LDX     X6,CLCSC+OAOFST,,PR6  GET SC FOR CALC SET
   000754    7 00520 7461 00           680           STX      X6,PRSC,,PR7         Put SC for calc in prim call
   000755  X 000000 7010 00            681         DBCAL   ZIG$DBGRS,,RSER1 GET RS FOR THIS REC IN CALC SET
   000756 (0)001501 7020 00
   000757    5 00006 2341 00
   000760    777776 6010 04
   000761    6 00001 7241 15           682         LXL     X4,RSSSN,X5,PR6  GET SS FOR CALC HDR
   000762    7 00045 7441 00           683         STX     X4,MODCD,,PR7
   000763    7 00044 7451 00           684         STX     X5,MODRS,,PR7   SAVE RS PTR
   000764                              685  MODL4  NULL
   000764    7 00045 2201 00           686         LDX     X0,MODCD,,PR7   GET CURRENT CD PTR
   000765    6 00001 2201 10           687         LDX     X0,RSCDN,X0,PR6  GET NEXT CD
   000766 (0)001124 6000 00            688         TZE     MOD3            NO - DONE - NO CALC FIELDS MODIFIED
   000767    7 00045 7401 00           689         STX     X0,MODCD,,PR7   SAVE CD AS CURRENT
   000770    6 00002 2241 10           690         LDX     X4,CDSH,X0,PR6  GET FR FOR THIS CD
   000771    7 00047 2211 00           691         LDX     X1,FCSS,,PR7    IS ONLY SPECIFIED
   000772 (0)001124 6040 00            692         TMI     MOD3            YES
   000773    7 00042 2211 00           693         LDX     X1,MODFR,,PR7        Get offset to Field List in FPT
 12:48 09/05/97  FILE=ZIM$DBMR.:ZIC0TSI       IDS-II  MODIFY RECORD SUBROUTINE                           25   BMAP - B00
   000774    7 00042 7201 00           694         LXL     X0,MODFR,,PR7        Get count of FR's in Field List
   000775 (0)001007 6000 00            695         TZE     MODC                 B/ If all fields specified
   000776    000000 4704 07            696         LDP    PR0,VLPSID,DL            VLP$
   000777    000003 4714 07            697           LDP      PR1,RVASID,DL           RVA$
   001000                              698  MODLD  NULL
   001000    0 00000 2221 11           699         LDX     X2,,X1,PR0           Get offset to FR pointer from FPT
   001001    1 00000 1041 12           700           CMPX     X4,,X2,PR1           Is this FR in the field list
   001002 (0)001007 6000 00            701         TZE     MODLE                B/ If it is.
   001003    000001 0210 03            702         ADLX    X1,1,DU              Increment offset into Field List
   001004    000001 1200 03            703         SBLX    X0,1,DU              Decrement count of FR's to search
   001005 (0)001000 6010 00            704         TNZ     MODLD                B/ Until all FR's searched
   001006 (0)000764 7100 00            705         TRA     MODL4                FR not in Field List, try another
   001007                              706  MODLE  NULL
                                       707  *    RELINK INTO CALC SET
   001007                              708  MODC   NULL
   001007    6 00000 7211 15           709         LXL     X1,DEF,X5,PR6
   001010    020000 3010 03            710         CANX    X1,.SMOD,DU     CAN CALC SET BE MODIFIED
   001011 (0)001444 6010 00            711         TNZ     RER9            NO - ERROR
   001012    6 00001 7241 15           712           LXL      X4,RSSSN,X5,PR6      GET SS DEF.
   001013    7 00516 7441 00           713           STX      X4,PRSS,,PR7         PUT SS IN PRIM. CALL
   001014    7 00045 7441 00           714           STX      X4,MODCD,,PR7        SAVE SS AS ARG TO .CBCFL
   001015    7 00510 2351 00           715           LDA      RVI,,PR7             * PUT
   001016    7 00512 2361 00           716           LDQ      RVT,,PR7             *  CURR REC
   001017    7 00512 7551 00           717           STA      RVT,,PR7             *   INTO TEMP REC VAR
   001020    7 00510 7561 00           718           STQ      RVI,,PR7             *
   001021 (0)002133 7010 00            719           DBCAL    ZIG$DBCFL,,CKER1     MOVE CALC KEYS TO TEMP BUF
   001022 (0)001501 7020 00
   001023    5 00006 2341 00
   001024    777776 6010 04
   001025    7 00512 2351 00           720           LDA      RVT,,PR7             * PUT
   001026    7 00511 2361 00           721           LDQ      RVO,,PR7             *  CURR REC
   001027    7 00511 7551 00           722           STA      RVO,,PR7             *   INTO REC VAR OUT
   001030    7 00512 7561 00           723           STQ      RVT,,PR7             *
   001031  X 000000 7010 00            724           DBCAL    ZIG$DBPCK,CKEQ,CKER3 COMPARE CALC KEY VALUE
   001032 (0)001501 7020 00
   001033    5 00006 2341 00
   001034    000003 6000 04
 12:48 09/05/97  FILE=ZIM$DBMR.:ZIC0TSI       IDS-II  MODIFY RECORD SUBROUTINE                           26   BMAP - B00
   001035    5 00006 4501 00
   001036 (0)001043 7020 00
   001037    7 00510 2371 00           725           LDAQ     RVI,,PR7             * PUT
   001040    7 00511 7551 00           726           STA      RVO,,PR7             *  CURR REC
   001041    7 00510 7561 00           727           STQ      RVI,,PR7             *   INTO INPUT REC VAR
   001042 (0)001047 7100 00            728           TRA      FPCLC                RECALC RECORD
   001043                              729  CKEQ     NULL
   001043    7 00510 2371 00           730           LDAQ     RVI,,PR7             * PUT
   001044    7 00511 7551 00           731           STA      RVO,,PR7             *  CURR REC
   001045    7 00510 7561 00           732           STQ      RVI,,PR7             *   INTO INPUT REC VAR
   001046 (0)001124 7100 00            733           TRA      MOD3                 GO MODIFY DATA FIELDS
   001047                              734  FPCLC    NULL
   001047    400000 2350 03            735         LDA     .B0,DU
   001050    7 00517 7551 00           736         STA     PRRC,,PR7       SET TYPE REQUEST TO ANY
   001051  X 000000 7010 00            737         DBCAL   ZIG$DBPPC,FMEM,PER11 FIND PRIOR OF CALC SET
   001052 (0)001503 7020 00
   001053    5 00006 2341 00
   001054    000003 6000 04
   001055    5 00006 4501 00
   001056 (0)001057 7020 00
   001057                              738  FMEM   NULL
   001057    7 00511 2351 00           739         LDA     RVO,,PR7        * PUT PRIOR REC
   001060    7 00512 2361 00           740         LDQ     RVT,,PR7        *  INTO TEMP REC VAR
   001061    7 00512 7551 00           741         STA     RVT,,PR7        *
   001062    7 00511 7561 00           742         STQ     RVO,,PR7        *
   001063  X 000000 7010 00            743           DBCAL    ZIM$PDIS,,DSER2      Disconnect from calc set
   001064 (0)001503 7020 00
   001065    5 00006 2341 00
   001066    777776 6010 04
   001067    7 00512 2211 00           744         LDX     X1,RVT,,PR7
   001070    7 00000 2361 11           745         LDQ     DBKEY,X1,PR7    GET DBK OF PRIOR
   001071    6 00004 2261 00           746         LDX     X6,OAOFST+CLCSC,,PR6  GET CALC SC
   001072    000000 6350 16            747         PSHDP   STKE3
   001073    7 00270 7571 53
   001074 (0)001437 6064 00
   001075    7 00510 2351 00           748         LDA     RVI,,PR7        * PUT CURR REC
   001076    7 00512 2361 00           749         LDQ     RVT,,PR7        *  INTO TEMP REC VAR
 12:48 09/05/97  FILE=ZIM$DBMR.:ZIC0TSI       IDS-II  MODIFY RECORD SUBROUTINE                           27   BMAP - B00
   001077    7 00512 7551 00           750         STA     RVT,,PR7        *
   001100    7 00510 7561 00           751         STQ     RVI,,PR7        *
   001101    7 00512 2211 00           752         LDX     X1,RVT,,PR7
   001102    7 00005 2201 11           753         LDX     X0,ACPTR,X1,PR7  SET X0 SO  .DBFCH WILL USE THE SAME AREA
   001103    7 00516 2241 00           754         LDX     X4,PRSS,,PR7    GET SS
   001104  X 000000 7010 00            755         ICCAL   ZIQ$DBFCH,,FCHER FIND NEW CALC HEADER REC
   001105 (0)001501 7020 00
   001106    5 00006 2341 00
   001107    777776 6010 04
   001110  X 000000 7010 00            756         DBCAL   ZIG$DBPIC,,ICER1 INSERT INTO NEW CALC SET OCCURR.
   001111 (0)001503 7020 00
   001112    5 00006 2341 00
   001113    777776 6010 04
   001114  X 000000 7010 00            757           DBCAL    ZIM$PCON,,ICER2      Connect to calc set
   001115 (0)001503 7020 00
   001116    5 00006 2341 00
   001117    777776 6010 04
   001120    7 00510 2351 00           758         LDA     RVI,,PR7        * PUT CURR REC
   001121    7 00512 2361 00           759         LDQ     RVT,,PR7        *  BACK INTO
   001122    7 00512 7551 00           760         STA     RVT,,PR7        *  INPUT REC VAR
   001123    7 00510 7561 00           761         STQ     RVI,,PR7        *

 12:48 09/05/97  FILE=ZIM$DBMR.:ZIC0TSI       IDS-II  MODIFY RECORD SUBROUTINE                           28   BMAP - B00
                                       762         EJECT
                                       763  *
                                       764  ****************************************************************
                                       765  *
                                       766  *  Modify Data Fields in the Data Buffer
                                       767  *
                                       768  *      Current of run is in RVI before, and in RVO after
                                       769  *      this routine is executed.
                                       770  *
                                       771  ****************************************************************
                                       772  *
   001124                              773  MOD3   NULL
   001124    7 00510 2351 00           774         LDA     RVI,,PR7        * PUT CURR REC
   001125    7 00512 2361 00           775         LDQ     RVT,,PR7        *  INTO THE
   001126    7 00512 7551 00           776         STA     RVT,,PR7        *   TEMP REC VAR
   001127    7 00510 7561 00           777         STQ     RVI,,PR7        *
   001130    7 00047 2211 00           778         LDX     X1,FCSS,,PR7    IS ONLY SPECIFIED
   001131 (0)001353 6040 00            779         TMI     DN4             YES - DONE
   001132    7 00512 2211 00           780         LDX     X1,RVT,,PR7     TEMP REC VAR
   001133    7 00002 4735 11           781         LDP     PR3,RADDR,X1,PR7     PR3->Record
   001134    7 00004 4745 00           782         LDP     PR4,TBUF,,PR7        PR4->Temporary Buffer
   001135    7 01224 2271 00           783         LDX     X7,CRUN+1,,PR7  GET RC
   001136    7 00003 2211 11           784         LDX     X1,RECSZ,X1,PR7  GET RECORD SIZE
   001137    000 0 140 1005 40         785         MLR     (1,1),(1,1)         * MOVE RECORD
   001140    3 00000 0 0 0 0011        786         ADSC9   0,0,X1,PR3           From Data Buffer
   001141    4 00000 0 0 0 0011        787         ADSC9   0,0,X1,PR4           To   Temporary Buffer
   001142    6 77777 7211 17           788         LXL     X1,OTVL,X7,PR6  OFST TO FIRST VARIABLE LENGTH FIELD      <EHW>
   001143    7 01074 4411 00           789         SXL     X1,VRSIZ,,PR7   SAVE IN WORK-SPACE                       <EHW>
   001144    7 00042 7211 00           790         LXL     X1,MODFR,,PR7        CHECK FR LIST COUNT
   001145 (0)001233 6000 00            791         TZE     MVREC           ALL FLDS SPECIFIED
                                       792  *    MOVE SPECIFIED FIELDS
                                       793  *    SET UP FLDTL  TALLY WORD
                                       794  *
                                       795  ****************************************************************
                                       796  *
                                       797  *      Make sure that all of the fields specified are in the
                                       798  *      record.
 12:48 09/05/97  FILE=ZIM$DBMR.:ZIC0TSI       IDS-II  MODIFY RECORD SUBROUTINE                           29   BMAP - B00
                                       799  *
                                       800  ****************************************************************
                                       801  *
   001146    7 00512 2211 00           802         LDX     X1,RVT,,PR7          X1 = Offset to temporary buffer
   001147    7 00006 2271 11           803         LDX     X7,RCPTR,X1,PR7      Get RC pointer
   001150    000000 4704 07            804         LDP    PR0,VLPSID,DL            VLP$
   001151    000003 4714 07            805           LDP      PR1,RVASID,DL           RVA$
   001152    7 00042 2221 00           806         LDX     X2,MODFR,,PR7        Get offset to Field List in FPT
   001153    7 00042 7201 00           807         LXL     X0,MODFR,,PR7        Get count of FR's in Field List
   001154                              808  MODL3  NULL
   001154    0 00000 2241 12           809         LDX     X4,,X2,PR0           Get offset to FR pointer from FPT
   001155    1 00000 2241 14           810           LDX      X4,,X4,PR1           Get FR offset from RVA
   001156    6 00005 1071 14           811         CMPX    X7,RCFRH,X4,PR6      Is this field in the current record?
   001157 (0)001461 6010 00            812         TNZ     FNIR1                B/ If not.
   001160    000001 0220 03            813         ADLX    X2,1,DU              Increment offset into Field List
   001161    000001 1200 03            814         SBLX    X0,1,DU              Decrement count of FR's to search
   001162 (0)001154 6010 00            815         TNZ     MODL3                B/ Until all FR's searched
                                       816  *
                                       817  ****************************************************************
                                       818  *
                                       819  *      Modify fields in order of occurrence in schema
                                       820  *
                                       821  ****************************************************************
                                       822  *
   001163    7 00521 7471 00           823         STX     X7,PRFR,,PR7    SAVE RC AS CURRENT FR                    <EHW>
   001164                              824  MODL9  NULL                                                             <EHW>
   001164    7 00521 2241 00           825         LDX     X4,PRFR,,PR7    GET CURR FR                              <EHW>
   001165    6 00004 7241 14           826         LXL     X4,RCFRN,X4,PR6  GET NEXT FR                              <EHW>
   001166 (0)001274 6000 00            827         TZE     DN2             FINISHED                                 <EHW>
   001167    7 00521 7441 00           828         STX     X4,PRFR,,PR7    SAVE AS CURRENT                          <EHW>
   001170    7 00042 2211 00           829         LDX     X1,MODFR,,PR7        Get offset to Field List in FPT
   001171    7 00042 7201 00           830         LXL     X0,MODFR,,PR7        Get count of FR's in Field List
   001172    000000 4704 07            831         LDP    PR0,VLPSID,DL            VLP$
   001173    000003 4714 07            832           LDP      PR1,RVASID,DL           RVA$
   001174                              833  MODLF  NULL
   001174    0 00000 2221 11           834         LDX     X2,,X1,PR0           Get offset to FR pointer from FPT
   001175    1 00000 1041 12           835           CMPX     X4,,X2,PR1           Is this FR in the field list
 12:48 09/05/97  FILE=ZIM$DBMR.:ZIC0TSI       IDS-II  MODIFY RECORD SUBROUTINE                           30   BMAP - B00
   001176 (0)001212 6000 00            836         TZE     MODL10               B/ If it is.
   001177    000001 0210 03            837         ADLX    X1,1,DU              Increment offset into Field List
   001200    000001 1200 03            838         SBLX    X0,1,DU              Decrement count of FR's to search
   001201 (0)001174 6010 00            839         TNZ     MODLF                B/ Until all FR's searched
   001202    6 00000 7211 14           840         LXL     X1,DEF,X4,PR6   FR DEFINITION                            <EHW>
   001203    010000 3010 03            841         CANX    X1,.FVF,DU      IS IT A VARIABLE FIELD                   <EHW>
   001204 (0)001164 6000 00            842         TZE     MODL9           NO                                       <EHW>
   001205 (0)002071 7010 00            843         DBCAL   ZIG$DBAVF,,MFER3 YES - MOVE FIELD FROM PAGE BUF TO TEMP  <EHW>
   001206 (0)001501 7020 00
   001207    5 00006 2341 00
   001210    777776 6010 04
   001211 (0)001164 7100 00            844         TRA     MODL9                                                    <EHW>
   001212                              845  MODL10 NULL                                                             <EHW>
                                       846  *    CHECK THAT FLD CAN BE MODIFIED
   001212    6 00000 7211 14           847         LXL     X1,DEF,X4,PR6
   001213    004300 3010 03            848         CANX    X1,.FMOD+.FSR+.SYN,DU  CAN THIS FIELD BE MODIFIED
   001214 (0)001466 6010 00            849         TNZ     RER6            NO - ERROR
                                       850  *    CHECK PRIVACY
   001215    6 00005 7211 14           851         LXL     X1,FRWSO,X4,PR6  GET WORK SPACE OFST
   001216    7 00000 2211 11           852         LDX     X1,PRIV,X1,PR7
   001217    000200 3010 03            853         CANX    X1,PFM,DU       IS PRIVACY SATISFIED
   001220 (0)001432 6000 00            854         TZE     PRVE2           NO
                                       855  *    MOVE FIELD
   001221  X 000000 7010 00            856         DBCAL   ZIG$DBPMK,,MFER1    MOVE THE FIELD TO TEMP BUF
   001222 (0)001503 7020 00
   001223    5 00006 2341 00
   001224    777776 6010 04
   001225    7 00521 2241 00           857         LDX     X4,PRFR,,PR7    GET CURRENT FR
                                       858  *  CALL A USERS CHECK PROCEDURE IF ONE EXISTS
   001226  X 000000 7010 00            859         DBCAL   ZIG$DBECK,,CKPE2 CALL USERS CHECK PROC
   001227 (0)001501 7020 00
   001230    5 00006 2341 00
   001231    777776 6010 04
   001232 (0)001164 7100 00            860         TRA     MODL9                                                    <EHW>
                                       861  *
                                       862  *  MOVE ALL FIELDS OF REC
                                       863  *
 12:48 09/05/97  FILE=ZIM$DBMR.:ZIC0TSI       IDS-II  MODIFY RECORD SUBROUTINE                           31   BMAP - B00
   001233                              864  MVREC  NULL
   001233    7 00512 2211 00           865         LDX     X1,RVT,,PR7
   001234    7 00006 2271 11           866         LDX     X7,RCPTR,X1,PR7  GET RC
   001235    7 00521 7471 00           867         STX     X7,PRFR,,PR7    SAVE AS CURR FR
   001236                              868  MODL6  NULL
   001236    7 00521 2241 00           869         LDX     X4,PRFR,,PR7    GET CURR FR
   001237    6 00004 7241 14           870         LXL     X4,RCFRN,X4,PR6  GET NEXT FR
   001240 (0)001274 6000 00            871         TZE     DN2             NO - DONE
   001241    7 00521 7441 00           872         STX     X4,PRFR,,PR7    SAVE NEXT FR AS CURR
   001242    6 00000 7211 14           873         LXL     X1,DEF,X4,PR6
   001243    004100 3010 03            874         CANX    X1,.FSR+.SYN,DU  IS THIS FLD IN UWA
   001244 (0)001254 6000 00            875         TZE     MODL7           YES                                      <EHW>
   001245    010000 3010 03            876         CANX    X1,.FVF,DU      IS THIS A VARYING FIELD                  <EHW>
   001246 (0)001236 6000 00            877         TZE     MODL6           NO - GET NEXT                            <EHW>
                                       878  *  MOVE FIELD FROM PAGE BUF TO TEMP BUF AND UPDATE DESC                 <EHW>
   001247 (0)002071 7010 00            879         DBCAL   ZIG$DBAVF,,MFER4                                         <EHW>
   001250 (0)001501 7020 00
   001251    5 00006 2341 00
   001252    777776 6010 04
   001253 (0)001236 7100 00            880         TRA     MODL6           GET NEXT                                 <EHW>
   001254                              881  MODL7  NULL                                                             <EHW>
                                       882  *  CHECK THAT FIELD CAN BE MODIFIED
   001254    000200 3010 03            883         CANX    X1,.FMOD,DU     CAN FLD BE MODIFIED
   001255 (0)001466 6010 00            884         TNZ     RER1            NO - ERROR
                                       885  *  CHECK PRIVACY
   001256    6 00005 7211 14           886         LXL     X1,FRWSO,X4,PR6
   001257    7 00000 2211 11           887         LDX     X1,PRIV,X1,PR7
   001260    000200 3010 03            888         CANX    X1,PFM,DU       IS PRIVACY SATISFIED
   001261 (0)001432 6000 00            889         TZE     PRVE3           NO - ERROR
                                       890  *  MOVE FIELD
   001262  X 000000 7010 00            891         DBCAL   ZIG$DBPMK,,MFER2 MOVE FIELD TO TEMP BUFFER
   001263 (0)001503 7020 00
   001264    5 00006 2341 00
   001265    777776 6010 04
   001266    7 00521 2241 00           892         LDX     X4,PRFR,,PR7    GET CURRENT FR
                                       893  *  CALL A USERS CHECK PROCEDURE IF ONE EXISTS
   001267  X 000000 7010 00            894         DBCAL   ZIG$DBECK,,CKPE3 CALL USERS CHECK PROC
 12:48 09/05/97  FILE=ZIM$DBMR.:ZIC0TSI       IDS-II  MODIFY RECORD SUBROUTINE                           32   BMAP - B00
   001270 (0)001501 7020 00
   001271    5 00006 2341 00
   001272    777776 6010 04
   001273 (0)001236 7100 00            895         TRA     MODL6           GO TO NEXT FR
                                       896  *  IF RECORD IS VARIABLE ADJUST PAGE                                    <EHW>
   001274                              897  DN2    NULL                                                             <EHW>
   001274    7 00512 2211 00           898         LDX     X1,RVT,,PR7     SET X1 TO TEMP REC VAR                   <EHW>
   001275    7 00510 2231 00           899           LDX      X3,RVI,,PR7          Record variable
   001276    7 00005 2201 11           900           LDX      X0,ACPTR,X1,PR7      AC of old record
   001277    7 00005 7401 13           901           STX      X0,ACPTR,X3,PR7      Save for new record
   001300    7 00006 2271 11           902           LDX      X7,RCPTR,X1,PR7      RC of old record
   001301    7 00006 7471 13           903           STX      X7,RCPTR,X3,PR7      Save for new record
   001302    6 00000 2201 17           904         LDX        X0,DEF,X7,PR6     GET STORAGE MODE OF REC
   001303    000007 3600 03            905         ANX        X0,.PSTO,DU       ISOLATE
   001304    000004 1000 03            906         CMPX       X0,=04,DU         ID IT AN INDEX RECORD
   001305 (0)001323 6010 00            907         TNZ        DN25              NO
   001306    7 00510 2351 00           908           LDA      RVI,,PR7
   001307    7 00512 2361 00           909           LDQ      RVT,,PR7
   001310    7 00512 7551 00           910           STA      RVT,,PR7
   001311    7 00510 7561 00           911           STQ      RVI,,PR7
   001312  X 000000 7010 00            912           DBCAL       ZIM$IMOD,,MOER1   Modify indexed record
   001313 (0)001503 7020 00
   001314    5 00006 2341 00
   001315    777776 6010 04
   001316    7 00510 2351 00           913           LDA      RVI,,PR7
   001317    7 00512 2361 00           914           LDQ      RVT,,PR7
   001320    7 00512 7551 00           915           STA      RVT,,PR7
   001321    7 00510 7561 00           916           STQ      RVI,,PR7
   001322 (0)001401 7100 00            917           TRA      UPCUR
   001323                              918  DN25   NULL
   001323    6 00000 7201 17           919        LXL     X0,DEF,X7,PR6       GET RC DEF
   001324    040000 3000 03            920        CANX    X0,.FVR,DU          IS IT VAR SIZE?
   001325 (0)001331 6000 00            921        TZE     DN23                NO - DONT SET NEW SIZE
   001326    7 01074 7201 00           922        LXL     X0,VRSIZ,,PR7       GET NEW REC SIZE
   001327    7 00004 4745 00           923        LDP     PR4,TBUF,,PR7       GET NEW REC ADDR
   001330    4 00000 4401 00           924        SXL     X0,0,,PR4           UPDATE NEW REC SIZ(IN CASE VAR SIZ)
                                       925  *
 12:48 09/05/97  FILE=ZIM$DBMR.:ZIC0TSI       IDS-II  MODIFY RECORD SUBROUTINE                           33   BMAP - B00
                                       926  *     JOURNAL MODIFICATION OF RECORD (BEFORE CALL DBPCS)
                                       927  *
   001331                              928  DN23  NULL
   001331  X 000000 7010 00            929        DBCAL   ZIM$JMOD,,NOALT
   001332    000000 0020 00
   001333    7 00512 2211 00           930        LDX     X1,RVT,,PR7
   001334    7 00006 2271 11           931        LDX     X7,RCPTR,X1,PR7     GET RC OF MODIFIED REC
   001335    6 00000 7201 17           932        LXL     X0,DEF,X7,PR6
   001336    040000 3000 03            933        CANX    X0,.FVR,DU          IS REC VARIABLE SIZE?
   001337 (0)001344 6000 00            934        TZE     DN3                 NO - GO AWAY
   001340  X 000000 7010 00            935        DBCAL   ZIG$DBPCS,,MAER2    YES - ADJUST PAGE
   001341 (0)001503 7020 00
   001342    5 00006 2341 00
   001343    777776 6010 04
   001344                              936  DN3   NULL
   001344    7 00512 2211 00           937         LDX     X1,RVT,,PR7     TEMP REC VAR
   001345    7 00002 4735 11           938         LDP     PR3,RADDR,X1,PR7     PR3->Record
   001346    7 00004 4745 00           939         LDP     PR4,TBUF,,PR7        PR4->Temporary Buffer
   001347    7 00003 2211 11           940         LDX     X1,RECSZ,X1,PR7  GET RECORD SIZE                          <EHW>
   001350    000 0 140 1005 40         941         MLR     (1,1),(1,1)         * MOVE RECORD
   001351    4 00000 0 0 0 0011        942         ADSC9   0,0,X1,PR4           From Temporary Buffer
   001352    3 00000 0 0 0 0011        943         ADSC9   0,0,X1,PR3           To   Data Buffer
                                       944  *  UNLOCK RECORD
   001353                              945  DN4    NULL
   001353    7 00512 2231 00           946        UNLOCK  RVT
   001354  X 000000 7010 00
   001355    000000 0020 00
   001356    5 00061 2221 00           947        LDX     X2,TMODE,,PR5     LOAD GLOBAL.PENDING.TRACE
   001357 (0)001401 6000 00            948        TZE     UPCUR               NO - GO TO UPDATE CURRENCIES
   001360    7 01224 2271 00           949        LDX     X7,CRUN+1,,PR7      GET RC
   001361    6 00000 2351 17           950           LDA      DEF,X7,PR6        GET THE  RECORD  NAME SIZE
   001362    000077 3750 07            951           ANA      .ANL,DL           ISOLATE
   001363    7 01224 2361 00           952           LDQ      CRUN+1,,PR7        Get word offset to current RC record
   001364    000002 7360 00            953           QLS      2                  Make it a byte offset
   001365    040 1 100 1005 42         954           MLR      (1,1,,QU),(1),040,1   MOVE  NAME INTO GLOBAL.PARAM.TRACE.RECNAM
   001366    6 00005 0 0 0 0005        955           ADSC9    RNAM,0,A,PR6
   001367    5 00046 0 0 0 0036        956           ADSC9    GTRNAME,0,30,PR5
 12:48 09/05/97  FILE=ZIM$DBMR.:ZIC0TSI       IDS-II  MODIFY RECORD SUBROUTINE                           34   BMAP - B00
   001370    7 01223 2361 00           957           LDQ      CRUN,,PR7
   001371    5 00057 7561 00           958           STQ      GTRRDBK,,PR5         DBK of record
   001372    6 00003 7211 17           959           LXL      X1,RTYP,X7,PR6
   001373    007777 3610 03            960           ANX      X1,.RTYP,DU
   001374    5 00060 4411 00           961           SXL      X1,GTRRTYPE,,PR5     Record type
   001375    000007 2210 03            962           LDX      X1,.TRRMOD,DU
   001376    5 00060 7411 00           963           STX      X1,GTRTYPE,,PR5      Type of trace
   001377  X 000000 7010 00            964           DBCAL    ZIM$TRACE,,NOALT
   001400    000000 0020 00
   001401                              965  UPCUR    NULL
                                       966  *
                                       967  *  UPDATE CURRENCIES
                                       968  *
   001401    7 00512 2351 00           969         LDA     RVT,,PR7        *  PUT CURR REC
   001402    7 00511 2361 00           970         LDQ     RVO,,PR7        *   INTO
   001403    7 00511 7551 00           971         STA     RVO,,PR7        *    OUTPUT REC VAR
   001404    7 00512 7561 00           972         STQ     RVT,,PR7        *
   001405  X 000000 7010 00            973           ICCAL    ZIG$DBUPD,,UCER1     Update currencies
   001406 (0)001501 7020 00
   001407    5 00006 2341 00
   001410    777776 6010 04
                                       974  *  Clear RECOVER addr for FPT checker
   001411  X 000000 7010 00            975         DBCAL   ZIB$CLRRECOVER,,NOALT
   001412    000000 0020 00
                                       976  *
                                       977  *  DONE - RETURN
                                       978  *
   001413  X 000000 7020 00            979           DBRET
                                       980  *
                                       981  *  ERRORS DETECTED IN THIS ROUTINE
                                       982  *
                                       983         IFE     A,1,%CK1
   001414                              984  CALE2  NULL                    2ND ARG. NOT RC OR NULL
   001414    210562 2350 07            985         LDA     ARGER,DL
   001415    000000 6200 00            986         EAX     X0,0            NULL AC
   001416    000000 6260 00            987         EAX     X6,0            NULL SC
   001417    000000 6270 00            988         EAX     X7,0            NULL RC
 12:48 09/05/97  FILE=ZIM$DBMR.:ZIC0TSI       IDS-II  MODIFY RECORD SUBROUTINE                           35   BMAP - B00
   001420 (0)001504 7100 00            989         TRA     MRR1
                                       990  CK1    MARK
   001421                              991  CER3   NULL                    CURR OF RUN NOT TYPE SPECIFIED
   001421    006344 2350 07            992         LDA     CRIT,DL
   001422    000000 6200 00            993         EAX     X0,0            NULL AC
   001423    000000 6260 00            994         EAX     X6,0            NULL SC
   001424    7 01224 2271 00           995         LDX     X7,CRUN+1,,PR7  GET  RC
   001425 (0)001504 7100 00            996         TRA     MRR1
   001426                              997  PRVE1  NULL                    REC  PRIVACY NOT SATISFIED
   001426    257764 2350 07            998         LDA     LR,DL
   001427    000000 6200 00            999         EAX     X0,0            NULL AC
   001430    000000 6260 00           1000         EAX     X6,0            NULL SC
   001431    000053 7100 04           1001         TRA     MRR1,$
   001432                             1002  PRVE2  NULL                    FLD  PRIVACY NOT SATISFIED
   001432                             1003  PRVE3  NULL                    FLD PRIVACY NOT SATISFIED
   001432    257764 2350 07           1004         LDA     LR,DL
   001433    000000 6200 00           1005         EAX     X0,0            NULL AC
   001434    000000 6260 00           1006         EAX     X6,0            NULL SC
   001435    6 00005 2271 14          1007         LDX     X7,RCFRH,X4,PR6  GET RC
   001436 (0)001504 7100 00           1008         TRA     MRR1
   001437                             1009  STKE2  NULL    STACK OVERFLOW
   001437                             1010  STKE3  NULL    STACK OVERFLOW
   001437                             1011  STKE4  NULL                    STACK OVERFLOW
   001437    234654 2350 07           1012         LDA     NSCS,DL
   001440    000000 6200 00           1013         EAX     X0,0            NULL AC
   001441    7 00510 2231 00          1014         LDX     X3,RVI,,PR7
   001442    7 00006 2271 13          1015         LDX     X7,RCPTR,X3,PR7  GET RC
   001443 (0)001504 7100 00           1016         TRA     MRR1
   001444                             1017  RER9   NULL                    CALC SET CAN'T BE MODIFIED
   001444    210634 2350 07           1018         LDA     MRE7,DL
   001445    7 00510 2231 00          1019         LDX     X3,RVI,,PR7
   001446    000000 6200 00           1020         EAX     X0,0            NULL AC
   001447    7 00006 2271 13          1021         LDX     X7,RCPTR,X3,PR7  GET RC
   001450 (0)001504 7100 00           1022         TRA     MRR1
   001451                             1023  RER7   NULL                    CAN'T MOD. MAN. OR OPT. SET MEMBERSHIP
   001451    020154 2350 07           1024         LDA     RNM,DL
   001452    7 00510 2231 00          1025         LDX     X3,RVI,,PR7
 12:48 09/05/97  FILE=ZIM$DBMR.:ZIC0TSI       IDS-II  MODIFY RECORD SUBROUTINE                           36   BMAP - B00
   001453    000000 6200 00           1026         EAX     X0,0            NULL AC
   001454    7 00006 2271 13          1027         LDX     X7,RCPTR,X3,PR7  GET RC
   001455 (0)001504 7100 00           1028         TRA     MRR1
   001456                             1029  RLCS   NULL                    SORT/DUP KEY SPEC BUT SET NOT INCLUDED
   001456    020464 2350 07           1030         LDA     SMCR,DL
   001457    000000 6200 00           1031         EAX     X0,0            NULL AC
   001460    000024 7100 04           1032         TRA     MRR1,$
   001461                             1033  FNIR1  NULL                    FIELD NOT IN RECORD
   001461    006344 2350 07           1034         LDA     CRIT,DL
   001462    000000 6200 00           1035         EAX     X0,0            NULL AC
   001463    000000 6260 00           1036         EAX     X6,0            NULL SC
   001464    7 01224 2271 00          1037         LDX     X7,CRUN+1,,PR7  GET RC
   001465 (0)001504 7100 00           1038         TRA     MRR1
   001466                             1039  RER1   NULL                    FLD CAN'T BE MODIFIED
   001466                             1040  RER6   NULL                    FIELD CANNOT BE MODIFIED
   001466    210632 2350 07           1041         LDA     MRE4,DL
   001467    000000 6200 00           1042         EAX     X0,0            NULL AC
   001470    000000 6260 00           1043         EAX     X6,0            NULL SC
   001471    6 00005 2271 14          1044         LDX     X7,RCFRH,X4,PR6  GET RC
   001472 (0)001504 7100 00           1045         TRA     MRR1
   001473                             1046  PRKE1  NULL                    PRIME KEY VALUE CHANGED
   001473    234522 2350 07           1047         LDA     IVDBK,DL
   001474    000000 6200 00           1048         EAX     X0,0            NULL AC
   001475    7 00516 2251 00          1049         LDX     X5,PRSS,,PR7
   001476    6 00003 7261 15          1050         LXL     X6,SCRSH,X5,PR6  GET SC
   001477    000000 6270 00           1051         EAX     X7,0            NULL RC
   001500 (0)001504 7100 00           1052         TRA     MRR1
                                      1053  *
                                      1054  *  ERRORS DETECTED IN SUBORDINATE ROUTINES
                                      1055  *
   001501                             1056  SKER2  NULL                    ERROR MOVING CONTROL FIELDS
   001501                             1057  CKER1  NULL
   001501                             1058  CKER3    NULL                          ERROR COMPARING CALC KEYS
   001501                             1059  CKER4    NULL                          ERROR COMPARING ALTERNATE KEY
   001501                             1060  AFER1  NULL                    FIND NEW OWNER REC ERR. MOD SET MEMB.
   001501                             1061  RSER1  NULL                    LOC MODE = CALC, RS NOT FOUND
   001501                             1062  FCHER  NULL                    FIND NEW CALC HDR ERROR
 12:48 09/05/97  FILE=ZIM$DBMR.:ZIC0TSI       IDS-II  MODIFY RECORD SUBROUTINE                           37   BMAP - B00
   001501                             1063  UCER1  NULL                    UPDATE CURRENCY ERROR
   001501                             1064  STER1  NULL                    ERROR ACCUMULATING STATISTICS
   001501                             1065  CKPE2  NULL                    CHECK PROC ERROR - MODIFY LIST
   001501                             1066  CKPE3  NULL                    CHECK PROC ERROR - MODIFY ALL FLDS
   001501                             1067  MFER3  NULL                    MOVE FIELD TO TEMP BUF ERROR             <EHW>
   001501                             1068  MFER4  NULL                    MOVE FIELD TO TEMP BUF ERROR             <EHW>
   001501                             1069  UPKE1  NULL                    UPDATE CURR OF ALT KEY ERROR
   001501                             1070  MPAKE  NULL                    ERROR MOVING PA KEYS TO KEY PROCESS AREA
   001501                             1071  UPAOE  NULL                    ERROR UPDATING PA OFSTS IN PA SET
   001501 (0)001504 7100 00           1072         TRA     MRR1
                                      1073  *
                                      1074  *  ERRORS DETECTED IN PRIMITIVES
                                      1075  *
   001502                             1076  GCER2  NULL                    GET CURR OF RUN ERROR
   001502  X 000000 7020 00           1077        DBALT
   001503                             1078  LKER4  NULL                    LOCK RECORD ERROR
   001503                             1079  FIPE3  NULL                    FIND INSERT POINT ERROR
   001503                             1080  FPER1  NULL                    FIND PRIOR ERROR - MODIFY SET MEMB.
   001503                             1081  DSER1  NULL                    DISCONNECT ERROR - MODIFY SET MEMB.
   001503                             1082  CNER1  NULL                    CONNECT ERROR    - MODIFY SET MEMB.
   001503                             1083  PER11  NULL                    PAGE ERROR - FIND PRIOR OF CALC
   001503                             1084  DSER2  NULL                    DISCONNECT FROM CALC SET ERROR
   001503                             1085  ICER1  NULL                    INSERT INTO NEW CALC SET ERROR
   001503                             1086  ICER2  NULL                    ERROR CONNECTING TO CALC
   001503                             1087  MFER1  NULL                    MOVE FIELD TO BUF ERROR
   001503                             1088  MFER2  NULL                    MOVE FLD TO BUF ERROR
   001503                             1089  ULER7  NULL                    UNLOCK RECORD ERROR
   001503                             1090  MAER2  NULL                    ADJUST PAGE ERROR                        <EHW
   001503                             1091  MKER4  NULL                    MOVE PRIME KEY TO TEMP BUF ERROR
   001503                             1092  CKER2  NULL                    COMPARE PRIME KEY ERROR
   001503                             1093  MKER2  NULL                    MOVE OLD ALT KEY TO PROCESS AREA ERROR
   001503                             1094  DAER1  NULL                    DELETE OLD ALTERNATE KEY ERROR
   001503                             1095  MKER3  NULL                    MOVE NEW ALT KEY TO PROCESS AREA ERROR
   001503                             1096  SAER1  NULL                    STORE NEW ALT KEY ERROR
   001503                             1097  MMER1    NULL                          ERROR MOVING MATCH KEYS
   001503                             1098  MOER1    NULL                          Modify indexed record
   001503 (0)001504 7100 00           1099         TRA     MRR1
 12:48 09/05/97  FILE=ZIM$DBMR.:ZIC0TSI       IDS-II  MODIFY RECORD SUBROUTINE                           38   BMAP - B00
                                      1100  *
                                      1101  *  COMMON ERROR RETURN
                                      1102  *
   001504  X 000000 7020 00           1103  MRR1     DBALT    RECOVER
                                      1104  *  Clear RECOVER addr for FPT checker
   001505  X 000000 7010 00           1105         DBCAL   ZIB$CLRRECOVER,,NOALT
   001506    000000 0020 00
                                      1106  *  PUT CURR OF RUN INTO INPUT REC VAR
   001507    7 01223 2361 00          1107         LDQ     CRUN,,PR7       GET DBK OF CURR OF RUN
   001510    7 00510 2231 00          1108         LDX     X3,RVI,,PR7
   001511    7 00000 1161 13          1109         CMPQ    DBKEY,X3,PR7    IS IT IN INPUT
   001512 (0)001531 6000 00           1110         TZE     GCR             YES
   001513    7 00512 2211 00          1111         LDX     X1,RVT,,PR7
   001514    7 00000 1161 11          1112         CMPQ    DBKEY,X1,PR7    IS IT IN TEMP
   001515 (0)001523 6010 00           1113         TNZ     CKOUT           NO - CHECK IF IN OUT REC VAR
   001516    7 00510 2351 00          1114         LDA     RVI,,PR7        *
   001517    7 00512 2361 00          1115         LDQ     RVT,,PR7        * MOVE TEMP REC VAR
   001520    7 00512 7551 00          1116         STA     RVT,,PR7        *  TO INPUT REC VAR
   001521    7 00510 7561 00          1117         STQ     RVI,,PR7        *
   001522 (0)001531 7100 00           1118         TRA     GCR
   001523                             1119  CKOUT  NULL
   001523    7 00511 2221 00          1120         LDX     X2,RVO,,PR7
   001524    7 00000 1161 12          1121         CMPQ    DBKEY,X2,PR7    IS IT IN OUT
   001525 (0)002057 6010 00           1122         TNZ     MRR2            NO - ERROR -NOT PRESENT
   001526    7 00510 2371 00          1123         LDAQ    RVI,,PR7        *
   001527    7 00511 7551 00          1124         STA     RVO,,PR7        * MOVE OUT REC VAR
   001530    7 00510 7561 00          1125         STQ     RVI,,PR7        *  TO IN REC VAR
   001531                             1126  GCR    NULL
   001531    7 01224 2271 00          1127         LDX     X7,CRUN+1,,PR7  GET RC PTR
   001532    6 00004 2211 17          1128         LDX     X1,RCWSO,X7,PR6
   001533    377777 2200 03           1129         LDX     X0,=O377777,DU
   001534    7 00000 3401 11          1130         ANSX    X0,PRIV,X1,PR7     TURN OFF VAR FIELD INDIC
                                      1131  *                              YES - MOVE REC TO TEMP BUF
   001535    7 00510 2211 00          1132         LDX     X1,RVI,,PR7
   001536    7 00002 4735 11          1133         LDP     PR3,RADDR,X1,PR7     PR3->Record
   001537    7 00004 4745 00          1134         LDP     PR4,TBUF,,PR7        PR4->Temporary Buffer
   001540    7 00003 2211 11          1135         LDX     X1,RECSZ,X1,PR7  GET REC SIZE
 12:48 09/05/97  FILE=ZIM$DBMR.:ZIC0TSI       IDS-II  MODIFY RECORD SUBROUTINE                           39   BMAP - B00
   001541    000 0 140 1005 40        1136         MLR     (1,1),(1,1)        * MOVE REC
   001542    3 00000 0 0 0 0011       1137         ADSC9   0,0,X1,PR3           From Data Buffer
   001543    4 00000 0 0 0 0011       1138         ADSC9   0,0,X1,PR4           To   Temporary Buffer
                                      1139  *  DISCONNECT FROM ANY CHANGED SETS & RECONNECT AS THEY WERE
   001544                             1140  MRL1   NULL
                                      1141  *        IN INDEXED MODE STACK ALWAYS EMPTY SO BRANCH
   001544    7 00272 6211 00          1142         POPDP   DRS
   001545    7 00270 1011 00
   001546 (0)001777 6000 00
   001547    7 00270 2371 44
   001550    000000 6260 01
   001551    7 00074 7561 00          1143         STQ     ODBK,,PR7          SAVE PRIOR DBK
   001552    7 00520 7461 00          1144         STX     X6,PRSC,,PR7    PUT SC IN PRIM REQ
   001553    6 00000 7211 16          1145         LXL     X1,DEF,X6,PR6   GET SET TYPE
   001554    000700 3610 03           1146         ANX     X1,.SETT,DU     ISOLATE
   001555    000300 1010 03           1147         CMPX    X1,=O300,DU     IS IT AN RS FOR AN ALTERNATE
   001556 (0)001731 6000 00           1148         TZE     ALTKY           YES
                                      1149  *
   001557    6 00000 2211 16          1150         LDX     X1,DEF,X6,PR6   GET SET MODE
   001560    000070 3610 03           1151         ANX     X1,.SETM,DU     ISLOLATE
   001561    000020 1010 03           1152         CMPX    X1,=O020,DU     IS IT POINTER ARRAY
   001562 (0)001605 6010 00           1153         TNZ     SRTA            NO
                                      1154  *
   001563    7 00510 2231 00          1155         LDX     X3,RVI,,PR7
   001564    7 00002 4735 13          1156         LDP     PR3,RADDR,X3,PR7 GET REC ADDRESS
   001565    000000 6250 05           1157         EAX     X5,,AL          GET RS PTR SAVED IN STACK
   001566    000 1 100 1015 20        1158         MRL     (1,,1),(1),0,1    *MOVE
   001567    6 00004 0001 15          1159         ARG     CSPAH,X5,PR6      * PA OWNER PTR TO
   001570    7 00061 0 0 0 0004       1160         ADSC9   ITPTR,0,4,PR7        Work Space
                                      1161  *
   001571    7 00061 2351 00          1162         LDA     ITPTR,,PR7      GET PTR
   001572    6 00000 7211 16          1163         LXL     X1,DEF,X6,PR6   GET LOCAL/GLOBAL IND FROM SC
   001573    001000 3010 03           1164         CANX    X1,.LG,DU       IS IT A GLOBAL SET
   001574 (0)001577 6010 00           1165         TNZ     SAVIT           YES - DON'T NEED TO ADJUST
                                      1166  *
   001575    7 00005 2201 13          1167         LDX     X0,ACPTR,X3,PR7  NO - MAKE IT GLOBAL
   001576    6 00002 0351 10          1168         ADLA    ABAS,X0,PR6     ADD BASE FOR LOCAL PTRS
 12:48 09/05/97  FILE=ZIM$DBMR.:ZIC0TSI       IDS-II  MODIFY RECORD SUBROUTINE                           40   BMAP - B00
                                      1169  *
   001577                             1170  SAVIT  NULL
   001577    7 00015 7551 13          1171         STA     CBRPA,X3,PR7    SAVE DBK OF PA OWNER IN RVI
   001600    6 00001 2211 16          1172         LDX     X1,SCWSO,X6,PR6  SET WORKSLPACE
   001601    7 00002 2351 11          1173         LDA     CBENO,X1,PR7    GET PA ENTRY AND PTR OFSETS FROM SET WS
   001602    7 00014 7551 13          1174         STA     CBRCE,X3,PR7    SAVE IN RVI
   001603    7 01060 2231 00          1175         LDX     X3,PAFLG,,PR7   WAS CRUN CONNECTED TO NEW SET OCCUR?
   001604 (0)001625 6010 00           1176         TNZ     RECON2          NO - JUST DO A RECONNECT OF CRUN
                                      1177  *
   001605                             1178  SRTA   NULL
   001605    400000 2350 03           1179         LDA     .B0,DU
   001606    7 00517 7551 00          1180         STA     PRRC,,PR7       SET TYPE REQUEST TO ANY
   001607  X 000000 7010 00           1181         DBCAL   ZIG$DBPFP,FM3,RECE2 FIND PRIOR OF SET
   001610 (0)002065 7020 00
   001611    5 00006 2341 00
   001612    000003 6000 04
   001613    5 00006 4501 00
   001614 (0)001615 7020 00
   001615                             1182  FM3    NULL
   001615    7 00511 2351 00          1183         LDA     RVO,,PR7        *
   001616    7 00512 2361 00          1184         LDQ     RVT,,PR7        * PUT PRIOR REC IN
   001617    7 00512 7551 00          1185         STA     RVT,,PR7        *  TEMP REC VAR
   001620    7 00511 7561 00          1186         STQ     RVO,,PR7        *
   001621  X 000000 7010 00           1187           DBCAL    ZIM$PDIS,,RECE3      Disconnect from set
   001622 (0)002065 7020 00
   001623    5 00006 2341 00
   001624    777776 6010 04
   001625                             1188  RECON2 NULL
   001625    000000 2230 03           1189         LDX     X3,0,DU         PARTIAL SET MOD OCCURS ONLY FOR THE
   001626    7 01060 7431 00          1190         STX     X3,PAFLG,,PR7      SET AT TOP OF STACK (RESET FLAG)
   001627    7 00510 2351 00          1191         LDA     RVI,,PR7        *
   001630    7 00512 2361 00          1192         LDQ     RVT,,PR7        * PUT CURR OF RUN IN
   001631    7 00512 7551 00          1193         STA     RVT,,PR7        *  TEMP REC VAR
   001632    7 00510 7561 00          1194         STQ     RVI,,PR7        *
   001633    7 00074 2361 00          1195         LDQ     ODBK,,PR7       GET SAVED INSERT POINT
   001634    7 00510 2231 00          1196         LDX     X3,RVI,,PR7
   001635    7 00000 7561 13          1197         STQ     DBKEY,X3,PR7    PUT IN REC VAR
 12:48 09/05/97  FILE=ZIM$DBMR.:ZIC0TSI       IDS-II  MODIFY RECORD SUBROUTINE                           41   BMAP - B00
   001636  X 000000 7010 00           1198           DBCAL    ZIG$DBPFD,,RECE5     Get old prior
   001637 (0)002065 7020 00
   001640    5 00006 2341 00
   001641    777776 6010 04
                                      1199  *
   001642    7 00520 2261 00          1200         LDX     X6,PRSC,,PR7    GET SC PTR
   001643    6 00000 2211 16          1201         LDX     X1,DEF,X6,PR6   GET SET MODE
   001644    000070 3610 03           1202         ANX     X1,.SETM,DU     ISOLATE
   001645    000020 1010 03           1203         CMPX    X1,=O020,DU     IS IT POINTER ARRAY
   001646 (0)001663 6010 00           1204         TNZ     GTNXT           NO
                                      1205  *
                                      1206  *
                                      1207  *      POINTER ARRAY SET
                                      1208  *
                                      1209  *      MOVE PA KEY FROM TEMP BUF TO KEY PROCESS AREA
                                      1210  *
   001647    7 00512 2231 00          1211         LDX     X3,RVT,,PR7
   001650    7 00004 7251 13          1212         LXL     X5,RSPTR,X3,PR7 GET RS PTR OF CURR
   001651    7 00516 7451 00          1213         STX     X5,PRSS,,PR7    SAVE RS PTR FOR CALL
   001652  X 000000 7010 00           1214         DBCAL   ZIG$DBAKP,,MPAKE2 MOVE KEY
   001653 (0)002065 7020 00
   001654    5 00006 2341 00
   001655    777776 6010 04
                                      1215  * REDEFINE INSERT POINT
   001656  X 000000 7010 00           1216         DBCAL   ZIG$DBPFI,,FIPE4 FIND INSERT POINT
   001657 (0)002065 7020 00
   001660    5 00006 2341 00
   001661    777776 6010 04
   001662 (0)001677 7100 00           1217         TRA     CNECT
                                      1218  *
                                      1219  *
   001663                             1220  GTNXT  NULL
   001663    7 00510 2231 00          1221        LOCK    RVI
   001664  X 000000 7010 00
   001665    000000 0020 00
   001666  X 000000 7010 00           1222         DBCAL   ZIG$DBPFN,FM5,RCE11       GET NEXT
   001667 (0)002060 7020 00
 12:48 09/05/97  FILE=ZIM$DBMR.:ZIC0TSI       IDS-II  MODIFY RECORD SUBROUTINE                           42   BMAP - B00
   001670    5 00006 2341 00
   001671    000003 6000 04
   001672    5 00006 4501 00
   001673 (0)001674 7020 00
   001674                             1223  FM5    NULL
   001674    7 00510 2231 00          1224        UNLOCK  RVI
   001675  X 000000 7010 00
   001676    000000 0020 00
   001677                             1225  CNECT  NULL
   001677    7 00510 2231 00          1226        LDX     X3,RVI,,PR7
   001700  X 000000 7010 00           1227        DBCAL   ZIM$DBPMR,NOEXC,LKER9
   001701 (0)002065 7020 00
   001702  X 000000 7010 00           1228           DBCAL    ZIM$PCON,,RECE6      Connect
   001703 (0)002065 7020 00
   001704    5 00006 2341 00
   001705    777776 6010 04
   001706  X 000000 7010 00           1229         ICCAL   ZIG$DBUPP,,UPAOE2 UPDATE PA OFFSETS IF PA SET
   001707 (0)002065 7020 00
   001710    5 00006 2341 00
   001711    777776 6010 04
                                      1230  * CHECK IF CURRENT WAS ERASED
   001712    7 00074 2361 00          1231         LDQ     ODBK,,PR7       PRIOR DBKEY
   001713    7 00520 2261 00          1232         LDX     X6,PRSC,,PR7    SC POINTER
   001714    6 00001 2211 16          1233         LDX     X1,SCWSO,X6,PR6 SET WORK SPACE
   001715    7 00001 1161 11          1234         CMPQ    CURR,X1,PR7     IS CURR=PRIOR
   001716 (0)001724 6010 00           1235         TNZ     FINIT           NO
   001717    7 00000 2341 11          1236         SZN     .CSE,X1,PR7     WAS CURRENT ERASED
   001720 (0)001724 6050 00           1237         TPL     FINIT           NO
                                      1238  * PUT CURRENT DBKEY BACK INTO SET WORK SPACE
   001721    7 00512 2231 00          1239         LDX     X3,RVT,,PR7     GET CURRENT DBKEY
   001722    7 00000 2361 13          1240         LDQ     DBKEY,X3,PR7
   001723    7 00001 7561 11          1241         STQ     CURR,X1,PR7     SAVE IN SET WORK SPACE
   001724                             1242  FINIT  NULL
   001724    7 00510 2351 00          1243         LDA     RVI,,PR7        *
   001725    7 00512 2361 00          1244         LDQ     RVT,,PR7        * PUT CURR OF RUN
   001726    7 00512 7551 00          1245         STA     RVT,,PR7        *  BACK IN INPUT REC VAR
   001727    7 00510 7561 00          1246         STQ     RVI,,PR7        *
 12:48 09/05/97  FILE=ZIM$DBMR.:ZIC0TSI       IDS-II  MODIFY RECORD SUBROUTINE                           43   BMAP - B00
   001730 (0)001544 7100 00           1247         TRA     MRL1            GO TO NEXT SET
                                      1248  *
                                      1249  *  RS FOR ALTERNATE KEY - NEED TO CALL UFAS TO DELETE NEW
                                      1250  *  ALTERNATE KEY AND STORE OLD ALTERNATE
                                      1251  *
                                      1252  *  MOVE NEW KEY TO PROCESS AREA
   001731                             1253  ALTKY  NULL
   001731    000000 6250 02           1254         EAX     X5,,QU          RS PTR FROM STACK
   001732    7 00516 7451 00          1255         STX     X5,PRSS,,PR7    SAVE IN PRIM REQ. FOR CALL
   001733    7 00045 7451 00          1256         STX     X5,MODCD,,PR7   SAVE FOR CALL TO MOVE RTN
   001734    7 00676 4451 00          1257         SXL     X5,XPRS,,PR7    SAVE RS FOR INDEX PRIMS
   001735    7 00047 7211 00          1258         LXL     X1,MRBKI,,PR7   WAS NEW ENTRY STORED YET
   001736 (0)001747 6040 00           1259         TMI     DAEX2           NO - SKIP DELETE
   001737 (0)002206 7010 00           1260         DBCAL   ZIG$DBKMS,,MKER5 MOVE KEY
   001740 (0)002065 7020 00
   001741    5 00006 2341 00
   001742    777776 6010 04
                                      1261  *  REMOVE ENTRY FROM ALTERNATE INDEX
   001743  X 000000 7010 00           1262           DBCAL    ZIM$KDEL,,DAER2      Delete new alternate
   001744 (0)002065 7020 00
   001745    5 00006 2341 00
   001746    777776 6010 04
   001747                             1263  DAEX2  NULL
   001747    000000 6210 00           1264         EAX     X1,0
   001750    7 00047 4411 00          1265         SXL     X1,MRBKI,,PR7   RESET DELETE NEW INDICATOR
                                      1266  *  MOVE OLD KEY FROM TEMP BUF TO PROCESS AREA
   001751  X 000000 7010 00           1267         DBCAL   ZIG$DBXKT,,MKER6 MOVE KEY
   001752 (0)002065 7020 00
   001753    5 00006 2341 00
   001754    777776 6010 04
   001755    7 00510 2351 00          1268         LDA     RVI,,PR7        * REVERSE
   001756    7 00512 2361 00          1269         LDQ     RVT,,PR7        *  IN AND TEMP
   001757    7 00512 7551 00          1270         STA     RVT,,PR7        *   REC VARIABLES
   001760    7 00510 7561 00          1271         STQ     RVI,,PR7        *
                                      1272  *  STORE OLD ALTERNATE KEY BACK INTO INDEX
   001761  X 000000 7010 00           1273           DBCAL    ZIM$KSTO,,SAER2      Store old alternate
   001762 (0)002065 7020 00
 12:48 09/05/97  FILE=ZIM$DBMR.:ZIC0TSI       IDS-II  MODIFY RECORD SUBROUTINE                           44   BMAP - B00
   001763    5 00006 2341 00
   001764    777776 6010 04
   001765    7 00512 2351 00          1274         LDA     RVT,,PR7        * REVERSE
   001766    7 00511 2361 00          1275         LDQ     RVO,,PR7        *  OUT AND TEMP
   001767    7 00511 7551 00          1276         STA     RVO,,PR7        *   REC VARIABLES
   001770    7 00512 7561 00          1277         STQ     RVT,,PR7        *
                                      1278  *  UPDATE CURRENT OF KEY BACK TO OLD KEY
   001771  X 000000 7010 00           1279           DBCAL    ZIM$KCURR,,NOALT     Update current of key
   001772    000000 0020 00
   001773    7 00510 2371 00          1280         LDAQ    RVI,,PR7        * PUT
   001774    7 00511 7551 00          1281         STA     RVO,,PR7        *  CURRENT BACK IN
   001775    7 00510 7561 00          1282         STQ     RVI,,PR7        *   IN REC VAR
   001776 (0)001544 7100 00           1283         TRA     MRL1            GET NEXT RS
   001777                             1284  DRS    NULL
                                      1285  *  UNLOCK ALL RECORD VARIABLES
   001777                             1286  UNL0    NULL
   001777    7 00510 2231 00          1287          LDX     X3,RVI,,PR7
   002000    7 00001 4735 13          1288          LDP     PR3,BADDR,X3,PR7
   002001    5 00026 4535 00          1289          STP     PR3,CALLPM0,,PR5
   002002  X 000000 7010 00           1290          DBCAL   ZIO$DBBCC,UNL1,NOALT
   002003    000000 0020 00
   002004    5 00006 2341 00
   002005    000003 6000 04
   002006    5 00006 4501 00
   002007 (0)002013 7020 00
   002010    7 00510 2231 00          1291          UNLOCK  RVI
   002011  X 000000 7010 00
   002012    000000 0020 00
   002013                             1292  UNL1    NULL
   002013    7 00511 2231 00          1293          LDX     X3,RVO,,PR7
   002014    7 00001 4735 13          1294          LDP     PR3,BADDR,X3,PR7
   002015    5 00026 4535 00          1295          STP     PR3,CALLPM0,,PR5
   002016  X 000000 7010 00           1296          DBCAL   ZIO$DBBCC,UNL2,NOALT
   002017    000000 0020 00
   002020    5 00006 2341 00
   002021    000003 6000 04
   002022    5 00006 4501 00
 12:48 09/05/97  FILE=ZIM$DBMR.:ZIC0TSI       IDS-II  MODIFY RECORD SUBROUTINE                           45   BMAP - B00
   002023 (0)002027 7020 00
   002024    7 00511 2231 00          1297          UNLOCK  RVO
   002025  X 000000 7010 00
   002026    000000 0020 00
   002027                             1298  UNL2    NULL
   002027    7 00512 2231 00          1299          LDX     X3,RVT,,PR7
   002030    7 00001 4735 13          1300          LDP     PR3,BADDR,X3,PR7
   002031    5 00026 4535 00          1301          STP     PR3,CALLPM0,,PR5
   002032  X 000000 7010 00           1302          DBCAL   ZIO$DBBCC,UNL3,NOALT
   002033    000000 0020 00
   002034    5 00006 2341 00
   002035    000003 6000 04
   002036    5 00006 4501 00
   002037 (0)002043 7020 00
   002040    7 00512 2231 00          1303          UNLOCK  RVT
   002041  X 000000 7010 00
   002042    000000 0020 00
   002043                             1304  UNL3    NULL
   002043    7 00513 2231 00          1305          LDX     X3,RVPA,,PR7
   002044    7 00001 4735 13          1306          LDP     PR3,BADDR,X3,PR7
   002045    5 00026 4535 00          1307          STP     PR3,CALLPM0,,PR5
   002046  X 000000 7010 00           1308          DBCAL   ZIO$DBBCC,UNL4,NOALT
   002047    000000 0020 00
   002050    5 00006 2341 00
   002051    000003 6000 04
   002052    5 00006 4501 00
   002053 (0)002057 7020 00
   002054    7 00513 2231 00          1309          UNLOCK  RVPA
   002055  X 000000 7010 00
   002056    000000 0020 00
   002057                             1310  UNL4    NULL
   002057                             1311  BNLK   NULL
                                      1312  *  GO TO ERROR ROUTINE
   002057                             1313  MRR2   NULL
   002057  X 000000 7020 00           1314           DBALTO
                                      1315  *
                                      1316  *  ERRORS IN RECOVERY - WHEN INPUT REC VAR IS LOCKED
 12:48 09/05/97  FILE=ZIM$DBMR.:ZIC0TSI       IDS-II  MODIFY RECORD SUBROUTINE                           46   BMAP - B00
                                      1317  *
   002060                             1318  RCE11  NULL
   002060    7 00062 7551 00          1319         STA     SUST,,PR7       SAVE STATUS
   002061    7 00510 2231 00          1320        UNLOCK  RVI
   002062  X 000000 7010 00
   002063    000000 0020 00
   002064    7 00062 2351 00          1321         LDA     SUST,,PR7       GET STATUS
   002065                             1322  ULE10  NULL                    ERROR UNLOCKING BUF
                                      1323  *
                                      1324  *  ERRORS IN RECOVERY
                                      1325  *
   002065                             1326  RECE2  NULL
   002065                             1327  RECE3  NULL
   002065                             1328  RECE5  NULL
   002065                             1329  RECE6  NULL
   002065                             1330  RCE10  NULL
   002065                             1331  LKER9  NULL
   002065                             1332  ULER9  NULL
   002065                             1333  MKER5  NULL
   002065                             1334  MKER6  NULL
   002065                             1335  SAER2  NULL
   002065                             1336  DAER2  NULL
   002065                             1337  UPKE2  NULL
   002065                             1338  FRSER  NULL                    ERROR FINDING RS PTR
   002065                             1339  MPAKE2 NULL                    ERROR MOVING PA KEY TO KEY PROCESS AREA
   002065                             1340  FIPE4  NULL                    ERROR REDEFINING INSERT POINT IN SET
   002065                             1341  UPAOE2 NULL                    ERROR REUPDATING PA OFSETS IN SET CURRENCY
   002065    000022 7350 00           1342           DBREC    MRE5
   002066    7 00062 2551 00
   002067    303313 2350 07
   002070  X 000000 7020 00

 12:48 09/05/97  FILE=ZIM$DBMR.:ZIC0TSI       MOVE VARIABLE LENGTH FIELD FROM PAGE TO TEMP BUF           47   BMAP - B00
                                      1343         TTLS    MOVE VARIABLE LENGTH FIELD FROM PAGE TO TEMP BUF         <EHW>
                                      1344  *
                                      1345  ****************************************************************
                                      1346  *
                                      1347  *  - DBAVF -
                                      1348  *
                                      1349  *      Move variable length field from page buffer to a
                                      1350  *      different offset in the temporary buffer.  Also,
                                      1351  *      adjust the field descriptor in the temporary buffer.
                                      1352  *
                                      1353  *      Calling
                                      1354  *
                                      1355  *              DBCAL  ZIG$DBAVF
                                      1356  *
                                      1357  *      Considerations
                                      1358  *
                                      1359  *              Note that neither an error condition or an
                                      1360  *              exception return is possible from this
                                      1361  *              subroutine.
                                      1362  *
                                      1363  *      Input
                                      1364  *
                                      1365  *              Temporary Buffer - Current
                                      1366  *              VRSIZ - New offset in temporary buffer to move to
                                      1367  *              PRFR - FR pointer for field
                                      1368  *
                                      1369  *      Output
                                      1370  *
                                      1371  *              VRSIZ - Updated to include size of field
                                      1372  *
                                      1373  **********************************************************************
                                      1374  *
   002071                             1375  ZIG$DBAVF NULL                                                          <EHW>
   002071  X 000000 7000 00           1376         DBSAV                                                            <EHW>
   002072    000004 000000
   002073    7 00512 2211 00          1377         LDX     X1,RVT,,PR7     TEMP REC VAR                             <EHW>
   002074    7 00521 2241 00          1378         LDX     X4,PRFR,,PR7    GET FR PTR                               <EHW>
 12:48 09/05/97  FILE=ZIM$DBMR.:ZIC0TSI       MOVE VARIABLE LENGTH FIELD FROM PAGE TO TEMP BUF           48   BMAP - B00
   002075    7 00002 4735 11          1379         LDP     PR3,RADDR,X1,PR7     PR3->Record
   002076    7 00004 4745 00          1380         LDP     PR4,TBUF,,PR7        PR4->Temporary Buffer
                                      1381  *  BUILD EIS DESC WHICH DEFINES DESC IN RECORD                          <EHW>
   002077    010000 3350 07           1382         LCA     =O10000,DL      AR = 777777770000                        <EHW>
   002100    6 00001 3751 14          1383         ANA     ROFST,X4,PR6    GET BUFFER DESC W/O LENGTH               <EHW>
   002101    000004 2750 07           1384         ORA     =O04,DL         LENGTH = 4 BYTES                         <EHW>
   002102    7 00244 7551 00          1385         STA     FLDDSC,,PR7     SAVE IN WORK SPACE                       <EHW>
                                      1386  *  MOVE EIS DESC IN RECORD TO WORK SPACE                                <EHW>
   002103    000 0 100 1005 20        1387         MLR     (1,,1),(1)                                               <EHW>
   002104    7 00244 0001 00          1388         ARG     FLDDSC,,PR7                                              <EHW>
   002105    7 00243 0 0 0 0004       1389         ADSC9   VFDSC,0,4,PR7        Work Space
   002106    6 00001 2351 14          1390         LDA     ROFST,X4,PR6    GET BUFFER ADDRESS REGISTER              <EHW>
   002107    700000 3750 03           1391         ANA     =O700000,DU     ISOLATE REGISTER                         <EHW>
   002110    7 00243 2551 00          1392         ORSA    VFDSC,,PR7      PUT INTO DESC                            <EHW>
                                      1393  *  MOVE VARIABLE LENGTH FIELD FROM PAGE BUFF TO TEMP BUFF               <EHW>
   002111    7 01074 7211 00          1394         LXL     X1,VRSIZ,,PR7   OFST TO MOVE TO                          <EHW>
   002112    7 00243 7201 00          1395         LXL     X0,VFDSC,,PR7                                            <EHW>
   002113    007777 3600 03           1396         ANX     X0,=O7777,DU    ENGTH OF FIELD                           <EHW>
   002114    000 0 151 1005 20        1397         MLR     (1,,1),(1,1,,1)                                          <EHW>
   002115    7 00243 0001 00          1398         ARG     VFDSC,,PR7                                               <EHW>
   002116    4 00000 0 0 0 0010       1399         ADSC9   0,0,X0,PR4           Temporary Buffer
                                      1400  *  MODIFY DESC IN RECORD TO REFLECT NEW OFFSET                          <EHW>
   002117    3 00000 5004 11          1401         A9BDX   0,X1,PR3        GET CHAR OFFSET TO DESC FORMAT
                                      1402  *        The next instruction is correct as a SAR since it formats
                                      1403  *        the offset as an EIS descriptor and is not meant to have a
                                      1404  *        SEGID in it.
   002120    7 00243 7435 00          1405           SAR      PR3,VFDSC,,PR7          Save as EIS descriptor
   002121    7 00244 2211 00          1406         LDX     X1,FLDDSC,,PR7                                           <EHW>
   002122    100000 0210 03           1407         ADLX    X1,=O100000,DU  CHANGE PR3 TO PR4 MOD                    <EHW>
   002123    7 00244 7411 00          1408         STX     X1,FLDDSC,,PR7  SAVE IN WORK SPACE                       <EHW>
   002124    000 0 120 1005 00        1409         MLR     (1),(1,,1)      * MOVE DESC                              <EHW>
   002125    7 00243 0 0 0 0004       1410         ADSC9   VFDSC,0,4,PR7        From Work Space to
   002126    7 00244 0001 00          1411         ARG     FLDDSC,,PR7     *   TEMP BUFFR                           <EHW>
                                      1412  *  UPDATE VRSIZ                                                         <EHW>
   002127    7 00243 2351 00          1413         LDA     VFDSC,,PR7                                               <EHW>
   002130    007777 3750 07           1414         ANA     =O7777,DL       FIELD LENGTH                             <EHW>
   002131    7 01074 0551 00          1415         ASA     VRSIZ,,PR7      ADD TO VARIABLE SIZE                     <EHW>
 12:48 09/05/97  FILE=ZIM$DBMR.:ZIC0TSI       MOVE VARIABLE LENGTH FIELD FROM PAGE TO TEMP BUF           49   BMAP - B00
                                      1416  *  RETURN                                                               <EHW>
   002132  X 000000 7020 00           1417         DBRET                                                            <EHW>

 12:48 09/05/97  FILE=ZIM$DBMR.:ZIC0TSI       MOVE SORT,DUP OR CALC KEYS TO TEMP REC BUF                 50   BMAP - B00
                                      1418         TTLS    MOVE SORT,DUP OR CALC KEYS TO TEMP REC BUF
                                      1419  *
                                      1420  ****************************************************************
                                      1421  *
                                      1422  *  - DBCFL -
                                      1423  *
                                      1424  *      Move sorted, duplicate, or calc keys to the
                                      1425  *      temporary buffer.  If the key is in the FR list,
                                      1426  *      it will be encoded from the UWA.  Otherwise the
                                      1427  *      field will be moved from the record variable.
                                      1428  *
                                      1429  *      Calling
                                      1430  *
                                      1431  *              DBCAL  ZIG$DBCFL,,altret
                                      1432  *
                                      1433  *      Considerations
                                      1434  *
                                      1435  *              Note that no exception return is possible
                                      1436  *              from this subroutine.
                                      1437  *
                                      1438  *      Input
                                      1439  *
                                      1440  *              MODCD - RS or SS to move keys to
                                      1441  *              MODFR - Offset and count of FR list.
                                      1442  *                      If zero, all fields are specified.
                                      1443  *              Temporary buffer - Pointer to record to
                                      1444  *                      move fields from if not the UWA.
                                      1445  *
                                      1446  ****************************************************************
                                      1447  *
   002133                             1448  ZIG$DBCFL NULL
   002133  X 000000 7000 00           1449         DBSAV
   002134    000004 000000
   002135                             1450  MODL5  NULL
   002135    7 00045 2201 00          1451         LDX     X0,MODCD,,PR7   GET CURR CD
   002136    6 00001 2201 10          1452         LDX     X0,RSCDN,X0,PR6  GET NEXT CD
   002137 (0)002203 6000 00           1453         TZE     LCD1            NO
 12:48 09/05/97  FILE=ZIM$DBMR.:ZIC0TSI       MOVE SORT,DUP OR CALC KEYS TO TEMP REC BUF                 51   BMAP - B00
   002140    7 00045 7401 00          1454         STX     X0,MODCD,,PR7   SAVE AS CURR CD
   002141    6 00000 2211 10          1455         LDX     X1,DEF,X0,PR6   GET DEF WORD FOR CD
   002142    000040 3010 03           1456         CANX    X1,.SYNC,DU     IS IT A SYNONYM CD
   002143 (0)002147 6000 00           1457         TZE     *+4             NO - SKIP CHECK
   002144    000017 3610 03           1458         ANX     X1,.RELT,DU     ISOLATE RELATIONSHIP TYPE
   002145    000003 1010 03           1459         CMPX    X1,=O03,DU      IS IT AN INDEX KEY
   002146 (0)002135 6000 00           1460         TZE     MODL5           YES - SKIP THIS CD
   002147    6 00002 2241 10          1461         LDX     X4,CDSH,X0,PR6  GET FR FOR THIS CD
   002150    7 00521 7441 00          1462         STX     X4,PRFR,,PR7    PUT IN PRIM. REQ.
   002151    6 00000 7211 14          1463         LXL     X1,DEF,X4,PR6
   002152    000100 3010 03           1464         CANX    X1,.FSR,DU      IS FLD IN SUB-SCHEMA
   002153    000016 6010 04           1465         TNZ     KNIL,$          NO - GET FROM PAGE BUF
   002154    7 00047 2211 00          1466         LDX     X1,FCSS,,PR7    IS ONLY SPECIFIED
   002155 (0)002171 6040 00           1467         TMI     KNIL            YES
   002156    7 00042 2211 00          1468         LDX     X1,MODFR,,PR7        Get offset to Field List in FPT
   002157    7 00042 7201 00          1469         LXL     X0,MODFR,,PR7        Get count of FR's in Field List
   002160 (0)002176 6000 00           1470         TZE     KIL                  B/ If all specified
   002161    000000 4704 07           1471         LDP    PR0,VLPSID,DL            VLP$
   002162    000003 4714 07           1472           LDP      PR1,RVASID,DL           RVA$
   002163                             1473  MODLH  NULL
   002163    0 00000 2221 11          1474         LDX     X2,,X1,PR0           Get offset to FR pointer from FPT
   002164    1 00000 1041 12          1475           CMPX     X4,,X2,PR1           Is this FR in the field list
   002165 (0)002176 6000 00           1476         TZE     KIL                  B/ If it is.
   002166    000001 0210 03           1477         ADLX    X1,1,DU              Increment offset into Field List
   002167    000001 1200 03           1478           SBLX     X0,1,DU              Decrement count of FR's
   002170 (0)002163 6010 00           1479         TNZ     MODLH                B/ Until all FR's searched
                                      1480  *  KEY NOT IN LIST - MOVE FROM PAGE BUF
   002171                             1481  KNIL   NULL
   002171  X 000000 7010 00           1482         DBCAL   ZIG$DBPMA,,MAER1    MOVE FIELD FROM PAGE BUF
   002172 (0)002204 7020 00
   002173    5 00006 2341 00
   002174    777776 6010 04
   002175 (0)002135 7100 00           1483         TRA     MODL5               GO TO NEXT CD
                                      1484  *  KEY IS IN LIST - ENCODE FROM UWA
   002176                             1485  KIL    NULL
   002176  X 000000 7010 00           1486         DBCAL   ZIG$DBPMK,,MKER1    MOVE FIELD FROM UWA
   002177 (0)002204 7020 00
 12:48 09/05/97  FILE=ZIM$DBMR.:ZIC0TSI       MOVE SORT,DUP OR CALC KEYS TO TEMP REC BUF                 52   BMAP - B00
   002200    5 00006 2341 00
   002201    777776 6010 04
   002202 (0)002135 7100 00           1487         TRA     MODL5               GO TO NEXT CD
                                      1488  *  RETURN
   002203                             1489  LCD1   NULL
   002203  X 000000 7020 00           1490         DBRET
                                      1491  *
                                      1492  *  ERRORS DETECTED IN THIS ROUTINE
                                      1493  *
                                      1494  *
                                      1495  *  ERRORS DETECTED IN PRIMITIVES
                                      1496  *
   002204                             1497  MAER1  NULL                    ERROR MOVING FIELD FROM PAGE BUF
   002204                             1498  MKER1  NULL                    ERROR MOVING FIELD FROM UWA
   002204 (0)002205 7100 00           1499         TRA     CFR1
                                      1500  *  COMMON ERROR RETURN
   002205                             1501  CFR1   NULL
   002205  X 000000 7020 00           1502           DBALT

 12:48 09/05/97  FILE=ZIM$DBMR.:ZIC0TSI       SPECIAL MOVE KEY TO PROCESS AREA ROUTINE                   53   BMAP - B00
                                      1503         TTLS    SPECIAL MOVE KEY TO PROCESS AREA ROUTINE
                                      1504  *
                                      1505  ****************************************************************
                                      1506  *
                                      1507  *  - DBKMS -
                                      1508  *
                                      1509  *      Special Move Key to Process Area Routine
                                      1510  *
                                      1511  *      This routine will move fields of a key from the UWA
                                      1512  *      or from the temporary buffer depending on whether or
                                      1513  *      not the field is to be modified.  If the field is in
                                      1514  *      the Field List given, it will be encoded from the UWA.
                                      1515  *      Otherwise the key will be moved from the temporary
                                      1516  *      record buffer.
                                      1517  *
                                      1518  *      Calling
                                      1519  *
                                      1520  *              DBCAL  ZIG$DBKMS,,altret
                                      1521  *
                                      1522  *      Considerations
                                      1523  *
                                      1524  *              Note that no exception return is possible
                                      1525  *              from this subroutine.
                                      1526  *
                                      1527  *      Input
                                      1528  *
                                      1529  *              MODCD - RS for key
                                      1530  *              MODFR - Offset and count of FR's in the
                                      1531  *                      Field List.  If zero, all fields are
                                      1532  *                      specified unless FCSS is negative.
                                      1533  *              FCSS  - If negative, the fields will be
                                      1534  *                      moved from the temporary record
                                      1535  *                      buffer.
                                      1536  *
                                      1537  *      Output
                                      1538  *
                                      1539  *              KEYDS - Key Descriptor
 12:48 09/05/97  FILE=ZIM$DBMR.:ZIC0TSI       SPECIAL MOVE KEY TO PROCESS AREA ROUTINE                   54   BMAP - B00
                                      1540  *
                                      1541  ****************************************************************
                                      1542  *
   002206                             1543  ZIG$DBKMS NULL
   002206  X 000000 7000 00           1544         DBSAV
   002207    000004 000000
   002210    7 00045 2201 00          1545         LDX     X0,MODCD,,PR7   GET RS
   002211    6 00003 7261 10          1546         LXL     X6,SCRSH,X0,PR6  GET SC FOR THIS RS
   002212    6 77776 2351 16          1547         LDA     KLNG,X6,PR6     GET LENGTH OF KEY
   002213    777777 3750 07           1548         ANA     -1,DL           ISOLATE
   002214    7 00666 7551 00          1549         STA     KEYDS,,PR7      PUT IN KEY DESCRIPTOR
   002215    7 00010 4735 00          1550         LDP     PR3,KEYPA,,PR7       PR3->Key Process Area
   002216    000 0 140 1004 00        1551         MLR     ,(1,1),0           * MOVE
   002217    000000 0 0 0 0000        1552         ADSC9   0,0,0              *  ZEROES TO
   002220    3 00000 0 0 0 0005       1553         ADSC9   0,0,AL,PR3           Space in Key Process Area
   002221                             1554  MKL1   NULL
                                      1555  *
                                      1556  *  GET NEXT PAIR OF CDS - A NON-SYNONYM CD & ITS
                                      1557  *  CORRESPONDNG SYNONYM CD
                                      1558  *
   002221    7 00045 2201 00          1559         LDX     X0,MODCD,,PR7   GET CURR CD
   002222    6 00001 2201 10          1560         LDX     X0,RSCDN,X0,PR6  GET NEXT CD
   002223 (0)002265 6000 00           1561         TZE     SMKDN           NO - DONE
                                      1562  *  THIS CD IS A NON-SYNONYMCD
   002224    6 00002 2241 10          1563         LDX     X4,CDSH,X0,PR6  GET FR FOR THIS NON-SYN CD
   002225    7 00521 7441 00          1564         STX     X4,PRFR,,PR7    SAVE NON-SYN FR FOR PRIME REQ.
   002226    6 00001 2201 10          1565         LDX     X0,RSCDN,X0,PR6  GET NEXT CD
   002227    7 00045 7401 00          1566         STX     X0,MODCD,,PR7   SAVE AS CURRENT
                                      1567  *  THIS CD IS A SYNONYM CD
   002230    6 00002 2241 10          1568         LDX     X4,CDSH,X0,PR6  GET FR FOR THIS SYN CD
   002231    7 00521 4441 00          1569         SXL     X4,PRFR2,,PR7   SAVE SYN FR FOR PRIM REQ.
   002232    7 00521 2241 00          1570         LDX     X4,PRFR,,PR7    GET REG FR FOR SEARCH
   002233    6 00000 7211 14          1571         LXL     X1,DEF,X4,PR6
   002234    000100 3010 03           1572         CANX    X1,.FSR,DU      IS FIELD IN SUBSCHEMA
   002235 (0)002253 6010 00           1573         TNZ     KYNIL           NO - GET FROM TEMP BUF
   002236    7 00047 2211 00          1574         LDX     X1,FCSS,,PR7    IS ONLY SPECIFIED
   002237 (0)002253 6040 00           1575         TMI     KYNIL           YES - GET FROM TEMP BUF
 12:48 09/05/97  FILE=ZIM$DBMR.:ZIC0TSI       SPECIAL MOVE KEY TO PROCESS AREA ROUTINE                   55   BMAP - B00
   002240    7 00042 2211 00          1576         LDX     X1,MODFR,,PR7        Get offset to Field List in FPT
   002241    7 00042 7201 00          1577         LXL     X0,MODFR,,PR7        Get count of FR's in Field List
   002242 (0)002260 6000 00           1578         TZE     KYIL                 B/ If all fields specified
   002243    000000 4704 07           1579         LDP    PR0,VLPSID,DL            VLP$
   002244    000003 4714 07           1580           LDP      PR1,RVASID,DL           RVA$
   002245                             1581  MODLG  NULL
   002245    0 00000 2221 11          1582         LDX     X2,,X1,PR0           Get offset to FR pointer from FPT
   002246    1 00000 1041 12          1583           CMPX     X4,,X2,PR1           Is this FR in the field list
   002247 (0)002260 6000 00           1584         TZE     KYIL                 B/ If it is.
   002250    000001 0210 03           1585         ADLX    X1,1,DU              Increment offset into Field List
   002251    000001 1200 03           1586         SBLX    X0,1,DU              Decrement count of FR's to search
   002252 (0)002245 6010 00           1587         TNZ     MODLG                B/ Until all FR's searched
                                      1588  *  KEY NOT IN LIST - MOVE FIELD FROM TEMP REC BUF
                                      1589  *  TO PROCESS AREA
   002253                             1590  KYNIL  NULL
   002253  X 000000 7010 00           1591         DBCAL   ZIG$DBXMT,,MTER1 MOVE FIELD FROM TEMP BUF
   002254 (0)002266 7020 00
   002255    5 00006 2341 00
   002256    777776 6010 04
   002257 (0)002221 7100 00           1592         TRA     MKL1            GO TO NEXT PAIR OF CDS
                                      1593  *  KEY IS IN LIST - ENCODE FIELD FROM UWA TO PROCESS AREA
   002260                             1594  KYIL   NULL
   002260  X 000000 7010 00           1595         DBCAL   ZIG$DBXMU,,MUER1 ENCODE FROM UWA
   002261 (0)002266 7020 00
   002262    5 00006 2341 00
   002263    777776 6010 04
   002264 (0)002221 7100 00           1596         TRA     MKL1            GO TO NEXT PAIR OF CDS
                                      1597  *  NORMAL RETURN
   002265                             1598  SMKDN  NULL
   002265  X 000000 7020 00           1599         DBRET
                                      1600  *
                                      1601  *  ERRORS DETECTED IN THIS ROUTINE
                                      1602  *
                                      1603  *
                                      1604  *
                                      1605  *
                                      1606  *  ERRORS DETECTED IN SUBORDINATE ROUTINES
 12:48 09/05/97  FILE=ZIM$DBMR.:ZIC0TSI       SPECIAL MOVE KEY TO PROCESS AREA ROUTINE                   56   BMAP - B00
                                      1607  *
   002266                             1608  MTER1  NULL                    ERROR MOVING FIELD FROM PAGE BUF
   002266                             1609  MUER1  NULL                    ERROR MOVING FIELD FROM UWA
   002266 (0)002267 7100 00           1610         TRA     XMSCE
                                      1611  *  COMMON ERROR RETURN
   002267                             1612  XMSCE  NULL
   002267  X 000000 7020 00           1613           DBALT
                                      1614         END

  CONTROL SECTION TABLE

   0 CODE   EVEN  002270
   1 RODATA EVEN  000000 LITERALS

 12:48 09/05/97  FILE=ZIM$DBMR.:ZIC0TSI       SYMBOL TABLE                                               57   BMAP - B00
 40000000 000000200000 .AC            *53
 40000000 000000000100 .AG            *53
 40000000 000000002000 .ALTO          *53
 41000000 000000000077 .ANL           *53       951
 40000000 000000200000 .APDN          *53
 40000000 000000000100 .ATMP          *53
 40000000 000000400000 .AV            *53
 41000000 000000400000 .B0            *53       313       558       617       735      1179
 41000000 000000200000 .B1            *53       372
 40000000 000000000200 .B10           *53
 40000000 000000000100 .B11           *53
 40000000 000000000040 .B12           *53
 40000000 000000000020 .B13           *53
 40000000 000000000010 .B14           *53
 40000000 000000000004 .B15           *53
 40000000 000000000002 .B16           *53
 40000000 000000000001 .B17           *53
 40000000 000000400000 .B18           *53
 40000000 000000200000 .B19           *53
 40000000 000000100000 .B2            *53
 40000000 000000100000 .B20           *53
 40000000 000000040000 .B21           *53
 40000000 000000020000 .B22           *53
 40000000 000000010000 .B23           *53
 40000000 000000004000 .B24           *53
 40000000 000000002000 .B25           *53
 40000000 000000001000 .B26           *53
 40000000 000000000400 .B27           *53
 40000000 000000000200 .B28           *53
 40000000 000000000100 .B29           *53
 40000000 000000040000 .B3            *53
 40000000 000000000040 .B30           *53
 40000000 000000000020 .B31           *53
 40000000 000000000010 .B32           *53
 40000000 000000000004 .B33           *53
 40000000 000000000002 .B34           *53
 40000000 000000000001 .B35           *53
 12:48 09/05/97  FILE=ZIM$DBMR.:ZIC0TSI       SYMBOL TABLE                                               58   BMAP - B00
 40000000 000000020000 .B4            *53
 40000000 000000010000 .B5            *53
 40000000 000000004000 .B6            *53
 40000000 000000002000 .B7            *53
 40000000 000000001000 .B8            *53
 40000000 000000000400 .B9            *53
 40000000 000000000001 .BREAK         *53
 40000000 000000010000 .BRK           *53
 40000000 000000020000 .BTB           *53
 40000000 000000000001 .CAC           *53
 40000000 000000000000 .CAE           *53
 40000000 000000000200 .CANSSS        *53
 40000000 000000000400 .CD            *53
 40000000 000000040000 .CFLC          *53
 40000000 000000400000 .CHKSUM        *53
 40000000 000000100000 .CJRNL         *53
 40000000 000000000077 .CNSZ          *53
 40000000 000000160000 .COMC          *53
 40000000 000000000020 .CONT          *53
 41000000 000000000000 .CSE           *53       618      1236
 40000000 000000700000 .CTYP          *53
 41000000 000000000270 .DBEST         *53       100       101       312       590       594       595
                                      747      1142
 41000000 000000000470 .DBIC          *53
 40000000 000000077777 .DBPT          *53
 41000000 000000000370 .DBSTK         *53
 40000000 000000020000 .DELM          *53
 40000000 000000002000 .DIDP          *53
 40000000 000000000077 .DNDX          *53
 40000000 000000600000 .DORD          *53
 40000000 000000000200 .DP            *53
 40000000 000000100000 .DPS           *53
 40000000 000000200000 .DPSA          *53
 40000000 000000400000 .DPST          *53
 40000000 000000000002 .DUMP          *53
 40000000 000000002000 .DUPC          *53
 40000000 000000010000 .DUPP          *53
 12:48 09/05/97  FILE=ZIM$DBMR.:ZIC0TSI       SYMBOL TABLE                                               59   BMAP - B00
 40000000 000000200000 .EBCL          *53
 40000000 000000400000 .EBCM          *53
 40000000 000000200000 .ENCRP         *53
 40000000 000000000077 .ENDX          *53
 40000000 000000000400 .ENQ           *53
 40000000 000000004000 .ETC           *53
 40000000 000000000400 .EXIT          *53
 41000000 000000000200 .FMOD          *53       848       883
 40000000 000000000077 .FNL           *53
 40000000 000000000074 .FORG          *53
 40000000 000000002000 .FR            *53
 41000000 000000000100 .FSR           *53       848       874      1464      1572
 40000000 000000003400 .FUSE          *53
 41000000 000000010000 .FVF           *53       841       876
 41000000 000000040000 .FVR           *53       920       933
 40000000 000000000010 .INDEXED       *53
 40000000 000000777777 .IXID          *53
 40000000 000000001777 .IXNUM         *53
 40000000 000000000004 .KEYED         *53
 40000000 000000010000 .LCK           *53
 40000000 000000400000 .LEIL          *53
 41000000 000000001000 .LG            *53       519       569      1164
 40000000 000000000002 .LOAD          *53
 40000000 000000020000 .MAR           *53
 41000000 000000000007 .MEMT          *53       638
 40000000 000000010000 .MRL           *53
 41000000 000000040000 .MSM           *53       392       474
 60000000 000000000001 .N6685         *53
 40000000 000000100000 .NAI           *53
 40000000 000000200000 .NBI           *53
 40000000 000000000002 .NCIA          *53
 40000000 000000040000 .NMV           *53
 40000000 000000017777 .NOENT         *53
 40000000 000000400000 .OA            *53
 40000000 000000740000 .OPEV          *53
 41000000 000000100000 .OSM           *53       392       474
 40000000 000000100000 .PAFIL         *53
 12:48 09/05/97  FILE=ZIM$DBMR.:ZIC0TSI       SYMBOL TABLE                                               60   BMAP - B00
 40000000 000000200000 .PAHVR         *53
 40000000 000000000001 .PAIA          *53
 40000000 000000040000 .PALIL         *53
 40000000 000000020000 .PALVR         *53
 40000000 000000400000 .PANLL         *53
 40000000 000000400000 .PCKD          *53
 40000000 000000001600 .PMOD          *53
 40000000 000000000520 .PRCSE         *53
 41000000 000000000007 .PSTO          *53       188       675       905
 40000000 000000006040 .PTAS          *53
 40000000 000000010100 .PTCHK         *53
 40000000 000000010200 .PTDEC         *53
 40000000 000000010140 .PTENC         *53
 40000000 000000020000 .RA            *53
 41000000 000000100000 .RC            *53       115
 40000000 000000400000 .RELEASE       *53
 41000000 000000000017 .RELT          *53      1458
 40000000 000000004000 .RERA          *53
 40000000 000000400000 .RERS          *53
 41000000 000000010000 .RKEY          *53       242
 40000000 000000000077 .RNL           *53
 40000000 000000200000 .RSTO          *53
 41000000 000000007777 .RTYP          *53       960
 40000000 000000040000 .SC            *53
 41000000 000000000070 .SETM          *53       562       608      1151      1202
 40000000 000000740000 .SETO          *53
 41000000 000000000700 .SETT          *53       253       368      1146
 40000000 000000040000 .SFNP          *53
 41000000 000000004000 .SM            *53       364       547
 41000000 000000020000 .SMOD          *53       710
 40000000 000000000077 .SNL           *53
 40000000 000000020000 .SNSS          *53
 40000000 000000010000 .SO            *53
 40000000 000000100000 .SR            *53
 40000000 000000004000 .SRCR          *53
 40000000 000000001000 .SS            *53
 40000000 000000000007 .SSTP          *53
 12:48 09/05/97  FILE=ZIM$DBMR.:ZIC0TSI       SYMBOL TABLE                                               61   BMAP - B00
 41000000 000000004000 .SYN           *53       848       874
 41000000 000000000040 .SYNC          *53       200       264      1456
 40000000 000000020000 .TJRNL         *53
 40000000 000000040000 .TMPLT         *53
 40000000 000000040000 .TRACE         *53
 40000000 000000000001 .TRENTRY       *53
 40000000 000000000012 .TRIDEL        *53
 40000000 000000000021 .TRIDELENQ     *53
 40000000 000000000024 .TRIDEQ        *53
 40000000 000000000013 .TRIMOD        *53
 40000000 000000000022 .TRIMODENQ     *53
 40000000 000000000014 .TRIREAD       *53
 40000000 000000000023 .TRIREADENQ    *53
 40000000 000000000011 .TRISTO        *53
 40000000 000000000020 .TRISTOENQ     *53
 40000000 000000000017 .TRPDEQ        *53
 40000000 000000000004 .TRPMOD        *53
 40000000 000000000016 .TRPMODENQ     *53
 40000000 000000000002 .TRPREAD       *53
 40000000 000000000015 .TRPREADENQ    *53
 40000000 000000000003 .TRPWRITE      *53
 40000000 000000000010 .TRRACC        *53
 40000000 000000000006 .TRRDEL        *53
 41000000 000000000007 .TRRMOD        *53       962
 40000000 000000000005 .TRRSTO        *53
 40000000 000000004000 .ULCK          *53
 40000000 000000400000 .UPDT          *53
 40000000 000000000040 .VIA           *53
 61000000 000000000001 A              *53       113       983
 41000000 000000000002 ABAS           *53       522       573      1168
 40000000 000000000001 AC             *53
 40000000 777777777760 ACDEF          *53
 40000000 000000211070 ACDNL          *53
 40000000 000000000003 ACID           *53
 40000000 000000001016 ACOPN          *53
 40000000 000000000002 ACP            *53
 41000000 000000000005 ACPTR          *53       521       572       753       900       901      1167
 12:48 09/05/97  FILE=ZIM$DBMR.:ZIC0TSI       SYMBOL TABLE                                               62   BMAP - B00
 40000000 000000000002 ACRAH          *53
 40000000 000000000001 ACRAN          *53
 40000000 000000001003 ACREC          *53
 40000000 000000000001 ACTDBCB        *53
 40000000 000000000002 ACTDBNO        *53
 40000000 000000001017 ACTP           *53
 40000000 000000000000 ACTSSS         *53
 40000000 000000000000 ACTSZ          *53
 01101000 000000001501 AFER1          505       542       626     *1060
 40000000 000000210565 AFNP           *53
 40000000 000000000635 AFT            *53
 40000000 000000022124 AIR            *53
 01101000 000000001731 ALTKY         1148     *1253
 01101000 000000000205 ALTMD          269      *284
 40000000 000000000016 AMAX           *53
 40000000 000000000026 ANAM           *53
 40000000 000000021614 ANR            *53
 40000000 000000000001 APNO           *53
 41000000 000000210562 ARGER          *53       985
 41000000 000000000020 ARGS           *53
 40000000 000000000077 ARGS2          *53
 40000000 000000210713 ARNAF          *53
 40000000 000000000003 ATBL           *53
 40000000 000000000000 ATRIB          *53
 40000000 000000000002 AVLN           *53
 40000000 000000000013 AWS$           *53
 40000000 000000000010 AWSZ           *53
 60000000 000000000001 B              *53
 40000000 000000001006 B32N           *53
 40000000 000000001007 B36N           *53
 40000000 000000001056 B72N           *53
 41000000 000000000001 BADDR          *53      1288      1294      1300      1306
 40000000 000000210712 BADSEED        *53
 40000000 777777777765 BDCW           *53
 40000000 000000000633 BEF            *53
 40000000 000000020000 BEFW           *53
 40000000 000000000751 BEMT           *53
 12:48 09/05/97  FILE=ZIM$DBMR.:ZIC0TSI       SYMBOL TABLE                                               63   BMAP - B00
 40000000 777777777761 BID            *53
 40000000 777777777762 BIND           *53
 40000000 000000000007 BLKD           *53
 40000000 000000303331 BME02          *53
 41000000 000000001203 BMPB           *53
 40000000 000000000652 BN1            *53
 40000000 000000000654 BN2            *53
 00101000 000000002057 BNLK         *1311
 40000000 000000000004 BPL            *53
 40000000 000000000015 BPLDBK         *53
 40000000 000000000034 BSPG           *53
 40000000 777777777763 BSTAT          *53
 40000000 000000000750 BTX0           *53
 41000000 000000001160 BUF4           *53
 41000000 000000001170 BUF6           *53
 41000000 000000000000 BUFORG         *53
 40000000 000000001060 BUFRQ          *53
 40000000 000000000006 BURRID         *53
 41000000 000000000020 BWASZ          *53
 60000000 000000000001 C              *53
 40000000 000000000050 CAAC           *53
 40000000 000000000050 CACD           *53
 40000000 000000000111 CAG            *53
 40000000 000000001033 CAL            *53
 01101000 000000001414 CALE2          116      *984
 41000000 000000000026 CALLPM0        *53      1289      1295      1301      1307
 40000000 000000000003 CANSSS         *53
 41000000 000000000003 CBCPA          *53       614
 40000000 000000000002 CBCPO          *53
 41000000 000000000002 CBENO          *53       613      1173
 40000000 000000000014 CBFSZ          *53
 40000000 000000000753 CBIB           *53
 40000000 000000001030 CBID           *53
 41000000 000000000014 CBRCE          *53       577       612      1174
 40000000 000000000014 CBRCP          *53
 40000000 000000001033 CBRID          *53
 41000000 000000000015 CBRPA          *53       576      1171
 12:48 09/05/97  FILE=ZIM$DBMR.:ZIC0TSI       SYMBOL TABLE                                               64   BMAP - B00
 40000000 000000000031 CCHAR          *53
 40000000 000000000040 CDBK           *53
 40000000 000000000030 CDES           *53
 40000000 000000000110 CDP            *53
 40000000 000000001044 CDPSI          *53
 40000000 000000000002 CDRH           *53
 40000000 000000000003 CDRN           *53
 41000000 000000000002 CDSH           *53       202       266       406       690      1461      1563
                                     1568
 40000000 000000000003 CDSN           *53
 40000000 000000000722 CENTRN         *53
 40000000 000000000722 CENTRO         *53
 40000000 000000000716 CENTRY         *53
 01101000 000000001421 CER3           119      *991
 41000000 000000001053 CFCT           *53
 40000000 000000000670 CFLPT1         *53
 40000000 000000000672 CFLPT2         *53
 01101000 000000002205 CFR1          1499     *1501
 40000000 000000000015 CFSA           *53
 40000000 000000000646 CHDBK          *53
 40000000 000000000773 CHR            *53
 40000000 000000000006 CHRD           *53
 40000000 000000000772 CHRO           *53
 40000000 000000007640 CHRTP          *53
 40000000 000000001043 CIAC           *53
 40000000 000000000012 CIAWS          *53
 40000000 000000001051 CIBSI          *53
 40000000 000000000516 CIND           *53
 40000000 000000001041 CINVSZ         *53
 40000000 000000001042 CIPG           *53
 40000000 000000001050 CIPSI          *53
 40000000 000000000000 CIRUN          *53
 40000000 000000000002 CIRWS          *53
 40000000 000000000002 CISWS          *53
 40000000 000000000014 CIWSOF         *53
 01101000 000000000142 CKALT          190      *238
 01101000 000000001043 CKEQ           724      *729
 12:48 09/05/97  FILE=ZIM$DBMR.:ZIC0TSI       SYMBOL TABLE                                               65   BMAP - B00
 01101000 000000001501 CKER1          435       487       719     *1057
 01101000 000000001503 CKER2          231     *1092
 01101000 000000001501 CKER3          440       492       724     *1058
 01101000 000000001501 CKER4          293     *1059
 01101000 000000001523 CKOUT         1113     *1119
 01101000 000000001501 CKPE2          859     *1065
 01101000 000000001501 CKPE3          894     *1066
 01101000 000000000313 CKSET          184       243       249      *351
 01101000 000000000354 CKSK           376      *387
 40000000 000000303374 CKSM           *53
 40000000 000000000022 CLCN           *53
 40000000 000000000023 CLCP           *53
 40000000 000000000003 CLCRC          *53
 41000000 000000000003 CLCSC          *53       679       746
 40000000 000000000237 CLI            *53
 40000000 000000000026 CLNG           *53
 40000000 000000000052 CMPL           *53
 40000000 000000000002 CN             *53
 40000000 000000303315 CNE1           *53
 01101000 000000001677 CNECT         1217     *1225
 01101000 000000001503 CNER1          649     *1082
 01101000 000000000722 CNREC          640      *645
 40000000 000000006034 CNUL           *53
 40000000 000000100000 COB74          *53
 40000000 000000000001 COFS           *53
 40000000 000000000045 CONCD          *53
 40000000 000000007764 CP6PGSZB       *53
 41000000 000000001775 CP6PGSZW       *53
 40000000 000000001000 CPGR           *53
 40000000 000000000723 CPTRN          *53
 40000000 000000000723 CPTRO          *53
 60000000 000000000004 CPW            *53
 40000000 000000000112 CRA            *53
 40000000 000000001004 CRD            *53
 40000000 000000000764 CREC           *53
 41000000 000000006344 CRIT           *53       992      1034
 40000000 000000006200 CRNUL          *53
 12:48 09/05/97  FILE=ZIM$DBMR.:ZIC0TSI       SYMBOL TABLE                                               66   BMAP - B00
 40000000 000000007330 CRST           *53
 41000000 000000001223 CRUN           *53       118       122       185       240       356       783
                                      949       952       957       995      1037      1107      1127
 41000000 000000000000 CSECT          *53
 40000000 000000000007 CSMPP          *53
 40000000 000000001000 CSPAC          *53
 41000000 000000000004 CSPAH          *53      1159
 40000000 777777777776 CSPES          *53
 40000000 777777777776 CSPSB          *53
 40000000 000000000115 CSTS           *53
 40000000 000000000071 CSUB           *53
 40000000 000000000017 CSZ            *53
 40000000 000000000057 CTMASK         *53
 40000000 000000000774 CTPAI          *53
 40000000 000000000240 CURLN          *53
 40000000 000000000236 CURLT          *53
 40000000 000000000770 CURPG          *53
 41000000 000000000001 CURR           *53       601       605      1234      1241
 40000000 000000000035 CURRS          *53
 40000000 000000000037 CURSS          *53
 40000000 000000001005 CWRT           *53
 40000000 000000000237 CWSOF          *53
 60000000 000000000001 D              *53
 01101000 000000001503 DAER1          307     *1094
 01101000 000000002065 DAER2         1262     *1336
 01101000 000000001747 DAEX2         1259     *1263
 40000000 000000000003 DBAN           *53
 40000000 000000000036 DBDR           *53
 40000000 000000000037 DBFN           *53
 40000000 000000000754 DBK            *53
 40000000 000000000777 DBKAC          *53
 41000000 000000000000 DBKEY          *53       528       533       534       592       599       604
                                      745      1109      1112      1121      1197      1240
 40000000 000000000000 DBKL           *53
 40000000 000000007474 DBKN           *53
 41000000 000000000776 DBKR           *53
 40000000 000000000777 DBKRQ          *53
 12:48 09/05/97  FILE=ZIM$DBMR.:ZIC0TSI       SYMBOL TABLE                                               67   BMAP - B00
 40000000 000000000234 DBKSI          *53
 40000000 000000000651 DBKSR          *53
 40000000 000000000047 DBKYN          *53
 40000000 000000210652 DBLC01         *53
 40000000 000000210653 DBLC05         *53
 40000000 000000303334 DBLC07         *53
 40000000 000000210655 DBLD01         *53
 40000000 000000000010 DBLIM          *53
 40000000 000000000033 DBPKY          *53
 40000000 000000000023 DBRN           *53
 40000000 000000000013 DBSN           *53
 40000000 000000000001 DBST           *53
 40000000 000000000757 DCDSR          *53
 40000000 000000210650 DCE1           *53
 40000000 000000001053 DCPR           *53
 40000000 000000001053 DCPW           *53
 40000000 000000000015 DCTBL          *53
 40000000 000000000032 DDBK           *53
 40000000 000000000006 DDCB           *53
 40000000 000000011754 DDI            *53
 41000000 000000000000 DEF            *53       114       187       199       241       252       263
                                      363       367       391       473       518       546       561
                                      568       607       637       674       709       840       847
                                      873       904       919       932       950      1145      1150
                                     1163      1201      1455      1463      1571
 40000000 000000000014 DEF2           *53
 40000000 000000303413 DELAK          *53
 40000000 000000000036 DELRS          *53
 40000000 000000000732 DEPCW          *53
 40000000 000000303414 DLDBK          *53
 40000000 000000210627 DLE1           *53
 40000000 000000303310 DLE2           *53
 40000000 000000210631 DLE3           *53
 01101000 000000001274 DN2            827       871      *897
 01101000 000000001331 DN23           921      *928
 01101000 000000001323 DN25           907      *918
 01101000 000000001344 DN3            934      *936
 12:48 09/05/97  FILE=ZIM$DBMR.:ZIC0TSI       SYMBOL TABLE                                               68   BMAP - B00
 01101000 000000001353 DN4            779      *945
 40000000 000000016040 DNES           *53
 40000000 777777777777 DPAGN          *53
 40000000 000000000020 DPPI           *53
 40000000 000000000053 DPSLW          *53
 01101000 000000000671 DRNC           602      *619
 01101000 000000001777 DRS           1142     *1284
 40000000 000000000003 DS             *53
 40000000 000000001063 DSDES          *53
 40000000 000000303316 DSE1           *53
 01101000 000000001503 DSER1          586     *1081
 01101000 000000001503 DSER2          743     *1084
 40000000 000000000735 DUSEPA         *53
 60000000 000000000001 E              *53
 40000000 000000303251 EDPER          *53
 40000000 000000000026 EEIND          *53
 40000000 000000000713 EFIND          *53
 40000000 000000001030 ELO            *53
 40000000 000000210711 ENCPNA         *53
 40000000 000000000007 ENCRP          *53
 40000000 000000000752 ENDSR          *53
 40000000 000000210647 ENE1           *53
 40000000 000000000716 ENIND          *53
 40000000 000000000013 ENTBL          *53
 40000000 000000000710 ENTNO          *53
 40000000 000000000712 ENTPTR         *53
 40000000 000000000717 ENTSZ          *53
 40000000 000000000711 ENTTYP         *53
 40000000 000000004064 EOSR           *53
 40000000 000000000004 ES             *53
 41000000 000000000100 ESTSZ          *53
 40000000 000000000725 ESZ            *53
 40000000 000000000005 ETCADR         *53
 40000000 000000000005 ETCDBNO        *53
 40000000 000000000064 EXCCD          *53
 40000000 000000234534 FALRT          *53
 40000000 000000001055 FBF72          *53
 12:48 09/05/97  FILE=ZIM$DBMR.:ZIC0TSI       SYMBOL TABLE                                               69   BMAP - B00
 40000000 000000001025 FBU61          *53
 40000000 000000001020 FBUF           *53
 40000000 000000001026 FBUF1          *53
 40000000 000000001027 FBUF4          *53
 40000000 000000001024 FBUF6          *53
 40000000 000000001022 FBUFM          *53
 40000000 000000001021 FBUFU          *53
 40000000 000000001023 FBUMD          *53
 01101000 000000001501 FCHER          755     *1062
 40000000 000000000004 FCN            *53
 40000000 000000000051 FCNT           *53
 40000000 000000000002 FCP            *53
 41000000 000000000047 FCSS           *53       133       183       371       407       691       778
                                     1466      1574
 40000000 000000000005 FD             *53
 40000000 000000210637 FDE1           *53
 40000000 000000303320 FDE2           *53
 40000000 000000303321 FDE3           *53
 40000000 000000210642 FDE4           *53
 40000000 000000210643 FDE5           *53
 40000000 000000210644 FDE6           *53
 40000000 000000303325 FDE7           *53
 40000000 000000303326 FDE8           *53
 40000000 000000000021 FEASZ          *53
 40000000 000000000740 FETM           *53
 40000000 000000000006 FI             *53
 40000000 000000000103 FIAC           *53
 41000000 000000001100 FIB1           *53
 41000000 000000001130 FIBP           *53
 40000000 000000000000 FIBX           *53
 40000000 000000000102 FICNT          *53
 01101000 000000001724 FINIT         1235      1237     *1242
 01101000 000000001503 FIPE3          647     *1079
 01101000 000000002065 FIPE4         1216     *1340
 40000000 000000000005 FIPN           *53
 40000000 000000000054 FKIND          *53
 40000000 000000000015 FLAGS          *53
 12:48 09/05/97  FILE=ZIM$DBMR.:ZIC0TSI       SYMBOL TABLE                                               70   BMAP - B00
 41000000 000000000244 FLDDSC         *53      1385      1388      1406      1408      1411
 40000000 000000000046 FLDTL          *53
 01101000 000000000626 FM2            580      *581
 01101000 000000001615 FM3           1181     *1182
 01101000 000000001674 FM5           1222     *1223
 01101000 000000001057 FMEM           737      *738
 40000000 000000000020 FMSBF          *53
 40000000 000000000006 FNAM           *53
 01101000 000000000620 FNDP           564      *578
 40000000 000000000250 FNIND          *53
 01101000 000000001461 FNIR1          812     *1033
 40000000 000000000004 FNL            *53
 01101000 000000001047 FPCLC          728      *734
 01101000 000000001503 FPER1          580     *1080
 40000000 000000000101 FRAC           *53
 40000000 000000000002 FRANGE         *53
 40000000 000000211400 FRDNL          *53
 00101000 000000002065 FRSER        *1338
 40000000 000000200000 FRTRN          *53
 41000000 000000000005 FRWSO          *53       851       886
 40000000 000000000767 FSLN           *53
 40000000 000000000766 FSOF           *53
 40000000 000000000060 FTIND          *53
 40000000 000000303240 FTLINCR        *53
 40000000 000000000021 FWSSZ          *53
 40000000 000000000246 GACDK          *53
 01101000 000000001502 GCER2          106     *1076
 01101000 000000001531 GCR           1110      1118     *1126
 40000000 000000000014 GDCB           *53
 41000000 000000000006 GERROR         *53       104       106       226       231       289       293
                                      305       307       316       322       435       440       487
                                      492       542       580       586       633       643       647
                                      649       653       681       719       724       737       743
                                      755       756       757       843       856       859       879
                                      891       894       912       935       973      1181      1187
                                     1198      1214      1216      1222      1228      1229      1260
                                     1262      1267      1273      1290      1296      1302      1308
 12:48 09/05/97  FILE=ZIM$DBMR.:ZIC0TSI       SYMBOL TABLE                                               71   BMAP - B00
                                     1482      1486      1591      1595
 40000000 000000000016 GINHIB         *53
 40000000 000000000020 GIOAWS         *53
 40000000 000000000022 GIOBUF         *53
 40000000 000000000021 GIOPGNO        *53
 40000000 000000000015 GPAGE          *53
 40000000 000000000010 GRETAC         *53
 40000000 000000000011 GRETFR         *53
 40000000 000000000013 GRETRC         *53
 40000000 000000000012 GRETSC         *53
 41000000 000000000025 GRLCW          *53       128
 40000000 000000000014 GSTCD          *53
 40000000 000000000007 GSYSERR        *53
 40000000 000000000010 GT             *53
 01101000 000000001663 GTNXT         1204     *1220
 41000000 000000000046 GTRNAME        *53       956
 40000000 000000000055 GTRPDCB        *53
 40000000 000000000056 GTRPNO         *53
 41000000 000000000057 GTRRDBK        *53       958
 41000000 000000000060 GTRRTYPE       *53       961
 41000000 000000000060 GTRTYPE        *53       963
 40000000 000000000027 HASH           *53
 40000000 000000000022 HIA            *53
 40000000 000000000775 HIDB           *53
 40000000 000000000003 HIGHDBK        *53
 40000000 000000000004 HIGHPG         *53
 40000000 000000001037 HIL            *53
 40000000 000000000002 HILN           *53
 41000000 000000000006 HPOS           *53       514       551
 40000000 000000000756 IAAC           *53
 40000000 000000001011 IACLN          *53
 40000000 000000001010 IALC           *53
 40000000 000000010314 IAN            *53
 40000000 000000001012 IANLN          *53
 40000000 000000000001 IASID          *51
 40000000 000000020320 ICA            *53
 01101000 000000001503 ICER1          756     *1085
 12:48 09/05/97  FILE=ZIM$DBMR.:ZIC0TSI       SYMBOL TABLE                                               72   BMAP - B00
 01101000 000000001503 ICER2          757     *1086
 40000000 000000000023 ICKSMP         *53
 40000000 000000000024 ICKSMV         *53
 40000000 000000210742 ICNR           *53
 41000000 000000000020 ICSIZ          *53
 40000000 000000010004 IDBK           *53
 40000000 000000012120 IDI            *53
 40000000 000000000023 IDS            *53
 40000000 000000000011 IF             *53
 40000000 000000000021 IFIPN          *53
 40000000 000000000000 IFR            *53
 40000000 000000234546 IKSEQ          *53
 40000000 000000000113 INAFLAG        *53
 40000000 000000000016 INCHA          *53
 40000000 000000210566 INNM           *53
 40000000 000000210567 INSS           *53
 40000000 000000210575 INSST          *53
 40000000 000000303241 INTER          *53
 40000000 000000400000 INTII          *53
 40000000 000000000013 INTVL          *53
 40000000 000000001060 INVFLG         *53
 40000000 000000001043 INVOF          *53
 40000000 000000000014 INVT           *53
 40000000 000000000034 IOBLK          *53
 40000000 000000303354 IOCLSD         *53
 40000000 000000303355 IOCLSK         *53
 40000000 000000303257 IOE1           *53
 40000000 000000303264 IOE11          *53
 40000000 000000303265 IOE12          *53
 40000000 000000303266 IOE18          *53
 40000000 000000303260 IOE2           *53
 40000000 000000303261 IOE3           *53
 40000000 000000303262 IOE7           *53
 40000000 000000303263 IOE8           *53
 40000000 000000303363 IOFLSH         *53
 40000000 000000210676 IOGDCB         *53
 40000000 000000001002 IOINC          *53
 12:48 09/05/97  FILE=ZIM$DBMR.:ZIC0TSI       SYMBOL TABLE                                               73   BMAP - B00
 40000000 000000305160 IOINI          *53
 40000000 000000305155 IONOTIDS       *53
 40000000 000000305154 IONOTKEY       *53
 40000000 000000210677 IOOPND         *53
 40000000 000000210700 IOOPNK         *53
 40000000 000000303361 IORDD          *53
 40000000 000000305156 IOSCHEMA       *53
 40000000 000000001052 IOSTS          *53
 40000000 000000303362 IOWRTD         *53
 41000000 000000000750 IOWS           *53
 40000000 000000000647 IPC            *53
 40000000 000000000650 IPCF           *53
 40000000 000000000006 IROLLFLAG      *53
 40000000 000000010150 IRSN           *53
 40000000 000000000004 ISYSDCB        *53
 40000000 000000000005 ISYSERR        *53
 41000000 000000000061 ITPTR          *53       398       399       472       476       567      1160
                                     1162
 40000000 000000000060 ITRS           *53
 40000000 000000021760 IUM            *53
 40000000 000000000017 IUSZ           *53
 41000000 000000234522 IVDBK          *53      1047
 40000000 000000000011 IXBUF$         *53
 40000000 000000000046 IXFBSZ         *53
 40000000 777777777776 IXID           *53
 40000000 777777777777 IXPLL          *53
 40000000 000000000523 KCARG0         *53
 40000000 000000000524 KCARG3         *53
 40000000 000000000525 KCARG4         *53
 40000000 000000000700 KCREG          *53
 40000000 000000000006 KDCB           *53
 41000000 000000000666 KEYDS          *53      1549
 01101000 000000000442 KEYEQ1         440      *446
 01101000 000000000515 KEYEQ2         492      *499
 41000000 000000000010 KEYPA          *53      1550
 01101000 000000002176 KIL           1470      1476     *1485
 41000000 777777777776 KLNG           *53      1547
 12:48 09/05/97  FILE=ZIM$DBMR.:ZIC0TSI       SYMBOL TABLE                                               74   BMAP - B00
 01101000 000000002171 KNIL          1465      1467     *1481
 40000000 000000000022 KPASZ          *53
 40000000 000000000006 KWSZ           *53
 01101000 000000002260 KYIL          1578      1584     *1594
 01101000 000000002253 KYNIL         1573      1575     *1590
 01101000 000000000136 KYSEQ          231      *233
 40000000 000000000052 LANGC          *53
 40000000 000000001014 LAS            *53
 01101000 000000002203 LCD1          1453     *1489
 40000000 000000700000 LCODM          *53
 40000000 000000001045 LDPSI          *53
 40000000 000000001071 LINPT          *53
 01101000 000000001503 LKER4          355     *1078
 01101000 000000002065 LKER9         1227     *1331
 40000000 000000001017 LNCNT          *53
 40000000 000000000762 LNNO           *53
 40000000 000000001036 LOL            *53
 40000000 000000000715 LOLIM          *53
 40000000 000000000023 LPASZ          *53
 40000000 000000000012 LPP            *53
 41000000 000000257764 LR             *53       998      1004
 40000000 000000301270 LRA            *53
 40000000 000000000017 LRSZ           *53
 40000000 000000001035 LSPC           *53
 40000000 000000000750 LUPD           *53
 61000000 000000000001 M9             *53
 01101000 000000002204 MAER1         1482     *1497
 01101000 000000001503 MAER2          935     *1090
 40000000 000000000013 MD             *53
 01101000 000000000065 MDKL0         *194       201       215
 01101000 000000000147 MDKL1         *246       255       261       339
 01101000 000000000161 MDKL2         *257       265       279
 01101000 000000000307 MDKL3          293      *334
 01101000 000000000176 MDKLA         *272       278
 01101000 000000000205 MDKLB          275      *280
 40000000 000000300000 MDQS           *53
 40000000 000000000730 MEMPTR         *53
 12:48 09/05/97  FILE=ZIM$DBMR.:ZIC0TSI       SYMBOL TABLE                                               75   BMAP - B00
 40000000 000000000727 MEMTYP         *53
 01101000 000000001503 MFER1          856     *1087
 01101000 000000001503 MFER2          891     *1088
 01101000 000000001501 MFER3          843     *1067
 01101000 000000001501 MFER4          879     *1068
 01101000 000000002204 MKER1         1486     *1498
 01101000 000000001503 MKER2          305     *1093
 01101000 000000001503 MKER3          316     *1095
 01101000 000000001503 MKER4          226     *1091
 01101000 000000002065 MKER5         1260     *1333
 01101000 000000002065 MKER6         1267     *1334
 01101000 000000002221 MKL1         *1554      1592      1596
 01101000 000000001503 MMER1          289     *1097
 01101000 000000000054 MOD1           142      *182
 01101000 000000000745 MOD2           361      *671
 01101000 000000001124 MOD3           197       237       677       688       692       733      *773
 01101000 000000001007 MODC           695      *708
 41000000 000000000045 MODCD          *53       193       195       198       220       256       259
                                      262       286       388       402       405       430       479
                                      632       683       686       689       714      1256      1451
                                     1454      1545      1559      1566
 41000000 000000001207 MODFL          *53
 41000000 000000000042 MODFR          *53       130       139       203       204       267       268
                                      409       410       693       694       790       806       807
                                      829       830      1468      1469      1576      1577
 40000000 000000000044 MODIN          *53
 01101000 000000000323 MODL1         *358       365       369       400       404       408       450
                                      529       535       554       659
 01101000 000000001212 MODL10         836      *845
 01101000 000000000367 MODL2          393      *401       421
 01101000 000000001154 MODL3         *808       815
 01101000 000000000764 MODL4         *685       705
 01101000 000000002135 MODL5        *1450      1460      1483      1487
 01101000 000000001236 MODL6         *868       877       880       895
 01101000 000000001254 MODL7          875      *881
 01101000 000000001164 MODL9         *824       842       844       860
 01101000 000000000346 MODLA         *379       385
 12:48 09/05/97  FILE=ZIM$DBMR.:ZIC0TSI       SYMBOL TABLE                                               76   BMAP - B00
 01101000 000000000403 MODLB         *414       420
 01101000 000000000412 MODLC          417      *422
 01101000 000000001000 MODLD         *698       704
 01101000 000000001007 MODLE          701      *706
 01101000 000000001174 MODLF         *833       839
 01101000 000000002245 MODLG        *1581      1587
 01101000 000000002163 MODLH        *1473      1479
 41000000 000000000044 MODRS          *53       245       247       250       357       359       362
                                      496       504       506       589       625       629       636
                                      684
 41000000 000000000043 MODSC          *53       131       145       374       375
 01101000 000000001503 MOER1          912     *1098
 01101000 000000001501 MPAKE          643     *1070
 01101000 000000002065 MPAKE2        1214     *1339
 41000000 000000000047 MRBKI          *53       102       314       324      1258      1265
 41000000 000000210632 MRE4           *53      1041
 41000000 000000303313 MRE5           *53      1342
 41000000 000000210634 MRE7           *53      1018
 01101000 000000001544 MRL1         *1140      1247      1283
 01101000 000000001504 MRR1           104       989       996      1001      1008      1016      1022
                                     1028      1032      1038      1045      1052      1072      1099
                                    *1103
 01101000 000000002057 MRR2          1122     *1313
 01101000 000000002266 MTER1         1591     *1608
 01101000 000000002266 MUER1         1595     *1609
 01101000 000000001233 MVREC          791      *864
 40000000 000000400000 MW             *53
 40000000 000000000025 NCH            *53
 40000000 000000000002 NCHA           *53
 40000000 000000000005 NCHRS          *53
 40000000 000000000014 NDCD           *53
 40000000 000000000012 NENC           *53
 40000000 000000000634 NEW            *53
 40000000 000000001072 NEWSIZ         *53
 40000000 000000235164 NKA            *53
 40000000 000000235020 NKDB           *53
 40000000 000000303415 NLDBK          *53
 12:48 09/05/97  FILE=ZIM$DBMR.:ZIC0TSI       SYMBOL TABLE                                               77   BMAP - B00
 40000000 777777777777 NLIND          *53
 40000000 000000001040 NLN            *53
 40000000 000000400000 NLNSA          *53
 01101000 000000000461 NMS1           475      *478
 01101000 000000000600 NMS3           481       498       548      *555
 41000000 000000001053 NOBF           *53
 40000000 000000000711 NOPTRS         *53
 40000000 000000000742 NPARCW         *53
 40000000 000000000630 NPIND          *53
 41000000 000000000004 NPOS           *53       397       471
 01101000 000000000027 NRC2           112      *120
 40000000 000000234510 NSA            *53
 41000000 000000234654 NSCS           *53      1012
 40000000 000000234344 NSDB           *53
 40000000 000000000001 NSTS           *53
 40000000 000000000726 NUMENT         *53
 40000000 000000000727 NUMPTR         *53
 01101000 000000000412 NWORD          411      *423
 01101000 000000000446 NWSET          373       382      *451
 40000000 777777777760 NXBUF          *53
 40000000 000000000713 NXPRI          *53
 40000000 000000000771 NXTC           *53
 40000000 000000000001 OAACN          *53
 40000000 000000000022 OACIWSOF       *53
 41000000 000000000001 OAOFST         *53       679       746
 40000000 000000000002 OARCN          *53
 40000000 000000000001 OASCN          *53
 40000000 000000000014 OD             *53
 41000000 000000000074 ODBK           *53      1143      1195      1231
 40000000 000000001072 OLDSIZ         *53
 40000000 000000000101 OPADP          *53
 40000000 000000000741 OPARCW         *53
 40000000 000000210570 ORDNI          *53
 41000000 777777777777 OTVL           *53       788
 40000000 000000000252 OWNPTR         *53
 40000000 000000000016 PABUF          *53
 40000000 000000001041 PACD           *53
 12:48 09/05/97  FILE=ZIM$DBMR.:ZIC0TSI       SYMBOL TABLE                                               78   BMAP - B00
 40000000 000000000001 PACW           *53
 40000000 000000000733 PADBK          *53
 40000000 000000000740 PADUP          *53
 40000000 000000000745 PAEN           *53
 40000000 000000000745 PAEO           *53
 40000000 000000000734 PAEOF          *53
 40000000 000000303336 PAER1          *53
 40000000 000000303337 PAER2          *53
 40000000 000000303340 PAER3          *53
 40000000 000000303341 PAER4          *53
 40000000 000000303342 PAER5          *53
 40000000 000000303343 PAER6          *53
 40000000 000000000747 PAESZ          *53
 41000000 000000001060 PAFLG          *53       588       651      1175      1190
 40000000 000000000731 PAOPTR         *53
 40000000 000000000734 PAPOF          *53
 40000000 000000000714 PARCW          *53
 40000000 000000000726 PARVPA         *53
 40000000 000000000724 PASPLT         *53
 40000000 000000000004 PAWSZ          *53
 40000000 777777777762 PBUF           *53
 40000000 000000000020 PC             *53
 41000000 000000000510 PCB            *53
 40000000 000000000642 PCD            *53
 40000000 000000000642 PCD2           *53
 40000000 000000000247 PCEXI          *53
 40000000 000000000675 PCMIN          *53
 40000000 000000004541 PCOMP          *53
 40000000 000000000010 PD             *53
 40000000 000000000040 PE             *53
 40000000 000000000017 PENDING        *53
 01101000 000000001503 PER11          737     *1083
 40000000 000000000004 PF             *53
 40000000 000000000400 PFG            *53
 41000000 000000000200 PFM            *53       853       888
 40000000 000000000100 PFS            *53
 40000000 000000000400 PG             *53
 12:48 09/05/97  FILE=ZIM$DBMR.:ZIC0TSI       SYMBOL TABLE                                               79   BMAP - B00
 40000000 000000001064 PGHD           *53
 40000000 000000000006 PGLIM          *53
 40000000 000000000003 PGRNG          *53
 40000000 000000000746 PGSIZE         *53
 40000000 000000000641 PGSPLT         *53
 40000000 000000000100 PKAW           *53
 40000000 000000001034 PLO            *53
 40000000 000000000004 PLSEP          *53
 41000000 000000000200 PM             *53       125
 40000000 000000001054 PNEOO          *53
 40000000 000000001047 POFSI          *53
 40000000 000000000005 PPOS           *53
 41000000 000000000000 PR0            *51       108       110       132       135       141       206
                                      209       270       273       377       380       412       415
                                      696       699       804       809       831       834      1471
                                     1474      1579      1582
 41000000 000000000001 PR1            *51       109       111       207       210       271       274
                                      378       381       413       416       697       700       805
                                      810       832       835      1472      1475      1580      1583
 40000000 000000000002 PR2            *51
 41000000 000000000003 PR3            *51       302       395       469       512       536       539
                                      781       786       938       943      1133      1137      1156
                                     1288      1289      1294      1295      1300      1301      1306
                                     1307      1379      1401      1405      1550      1553
 41000000 000000000004 PR4            *51       303       537       540       782       787       923
                                      924       939       942      1134      1138      1380      1399
 41000000 000000000005 PR5            *51       104       106       128       226       231       289
                                      293       305       307       316       322       435       440
                                      487       492       542       580       586       633       643
                                      647       649       653       681       719       724       737
                                      743       755       756       757       843       856       859
                                      879       891       894       912       935       947       956
                                      958       961       963       973      1181      1187      1198
                                     1214      1216      1222      1228      1229      1260      1262
                                     1267      1273      1289      1290      1295      1296      1301
                                     1302      1307      1308      1482      1486      1591      1595
 41000000 000000000006 PR6            *51       114       123       187       191       196       199
 12:48 09/05/97  FILE=ZIM$DBMR.:ZIC0TSI       SYMBOL TABLE                                               80   BMAP - B00
                                      202       241       248       251       252       260       263
                                      266       288       310       327       360       363       366
                                      367       391       397       403       406       471       473
                                      480       497       514       517       518       522       546
                                      551       561       568       573       600       607       630
                                      637       674       679       682       687       690       709
                                      712       746       788       811       826       840       847
                                      851       870       873       886       904       919       932
                                      950       955       959      1007      1044      1050      1128
                                     1145      1150      1159      1163      1168      1172      1201
                                     1233      1383      1390      1452      1455      1461      1463
                                     1546      1547      1560      1563      1565      1568      1571
 41000000 000000000007 PR7            *51       100       101       102       118       122       124
                                      130       131       133       139       145       183       185
                                      193       195       198       203       204       220       221
                                      222       223       224       225       227       228       229
                                      230       234       235       236       240       245       247
                                      250       256       259       262       267       268       285
                                      286       287       290       291       292       294       295
                                      296       297       298       299       300       309       312
                                      314       317       318       319       320       324       326
                                      328       329       330       331       332       335       336
                                      337       353       354       356       357       359       362
                                      371       374       375       388       394       395       398
                                      399       402       405       407       409       410       429
                                      430       431       432       433       434       436       437
                                      438       439       442       443       444       447       448
                                      449       452       468       469       472       476       479
                                      482       483       484       485       486       488       489
                                      490       491       493       494       495       496       500
                                      501       502       503       504       506       507       508
                                      509       510       511       512       515       516       521
                                      527       528       533       534       536       537       541
                                      549       552       553       556       559       566       567
                                      572       576       577       582       583       584       585
                                      588       589       590       591       592       593       594
                                      595       598       599       601       603       604       605
 12:48 09/05/97  FILE=ZIM$DBMR.:ZIC0TSI       SYMBOL TABLE                                               81   BMAP - B00
                                      612       613       614       618       620       621       622
                                      623       625       629       631       632       636       642
                                      651       655       656       657       658       672       673
                                      680       683       684       686       689       691       693
                                      694       713       714       715       716       717       718
                                      720       721       722       723       725       726       727
                                      730       731       732       736       739       740       741
                                      742       744       745       747       748       749       750
                                      751       752       753       754       758       759       760
                                      761       774       775       776       777       778       780
                                      781       782       783       784       789       790       802
                                      803       806       807       823       825       828       829
                                      830       852       857       865       866       867       869
                                      872       887       892       898       899       900       901
                                      902       903       908       909       910       911       913
                                      914       915       916       922       923       930       931
                                      937       938       939       940       946       949       952
                                      957       969       970       971       972       995      1014
                                     1015      1019      1021      1025      1027      1037      1049
                                     1107      1108      1109      1111      1112      1114      1115
                                     1116      1117      1120      1121      1123      1124      1125
                                     1127      1130      1132      1133      1134      1135      1142
                                     1143      1144      1155      1156      1160      1162      1167
                                     1171      1173      1174      1175      1180      1183      1184
                                     1185      1186      1190      1191      1192      1193      1194
                                     1195      1196      1197      1200      1211      1212      1213
                                     1221      1224      1226      1231      1232      1234      1236
                                     1239      1240      1241      1243      1244      1245      1246
                                     1255      1256      1257      1258      1265      1268      1269
                                     1270      1271      1274      1275      1276      1277      1280
                                     1281      1282      1287      1288      1291      1293      1294
                                     1297      1299      1300      1303      1305      1306      1309
                                     1319      1320      1321      1342      1377      1378      1379
                                     1380      1385      1388      1389      1392      1394      1395
                                     1398      1405      1406      1408      1410      1411      1413
                                     1415      1451      1454      1462      1466      1468      1469
                                     1545      1549      1550      1559      1564      1566      1569
 12:48 09/05/97  FILE=ZIM$DBMR.:ZIC0TSI       SYMBOL TABLE                                               82   BMAP - B00
                                     1570      1574      1576      1577
 40000000 000000303267 PRE1           *53
 40000000 000000303277 PRE10          *53
 40000000 000000303270 PRE3           *53
 40000000 000000303271 PRE4           *53
 40000000 000000303272 PRE5           *53
 40000000 000000210613 PRE6           *53
 40000000 000000210614 PRE7           *53
 40000000 000000210615 PRE8           *53
 40000000 000000303276 PRE9           *53
 40000000 000000000522 PREXC          *53
 41000000 000000000521 PRFR           *53       823       825       828       857       867       869
                                      872       892      1378      1462      1564      1570
 41000000 000000000521 PRFR2          *53      1569
 41000000 000000000000 PRIV           *53       124       852       887      1130
 01101000 000000001473 PRKE1          232     *1046
 01101000 000000000102 PRM1          *208       214
 01101000 000000000111 PRM2           211      *216
 01101000 000000000111 PRMMD          205      *219
 40000000 000000000526 PROPA          *53
 41000000 000000000517 PRRC           *53       559       736      1180
 40000000 000000000517 PRRS           *53
 41000000 000000000520 PRSC           *53       328       452       556       631       680      1144
                                     1200      1232
 41000000 000000000516 PRSS           *53       221       285       309       326       429       482
                                      642       713       754      1049      1213      1255
 40000000 000000000644 PRSTS          *53
 01101000 000000001426 PRVE1          126      *997
 01101000 000000001432 PRVE2          854     *1002
 01101000 000000001432 PRVE3          889     *1003
 40000000 000000000100 PS             *53
 41000000 000000000000 PS0SID         *51
 41000000 000000000001 PS1SID         *51
 41000000 000000000002 PS2SID         *51
 41000000 000000000003 PS3SID         *51
 41000000 000000000004 PS4SID         *51
 40000000 000000000005 PS5SID         *51
 12:48 09/05/97  FILE=ZIM$DBMR.:ZIC0TSI       SYMBOL TABLE                                               83   BMAP - B00
 40000000 000000000006 PS6SID         *51
 40000000 000000303416 PSA            *53
 40000000 000000000020 PSC            *53
 40000000 000000000010 PSD            *53
 40000000 000000000004 PSF            *53
 40000000 000000000400 PSO            *53
 40000000 000000000720 PTESZ          *53
 41000000 000000000631 PTR            *53       515       516       549       552       553
 40000000 000000000724 PTRESZ         *53
 40000000 000000000710 PTRNO          *53
 41000000 000000000630 PWS            *53
 41000000 000000000002 RADDR          *53       298       395       469       512       536       781
                                      938      1133      1156      1379
 40000000 000000000010 RADIX          *53
 40000000 000000000005 RAPTR          *53
 40000000 000000000004 RAWSOF         *53
 40000000 777777777766 RBA            *53
 40000000 000000023432 RCBI           *53
 40000000 000000211234 RCDNL          *53
 00101000 000000002065 RCE10        *1330
 01101000 000000002060 RCE11         1222     *1318
 41000000 000000000005 RCFRH          *53       811      1007      1044
 41000000 000000000004 RCFRN          *53       826       870
 40000000 000000001075 RCHD           *53
 40000000 000000000001 RCID           *53
 41000000 000000000006 RCPTR          *53       673       803       866       902       903       931
                                     1015      1021      1027
 40000000 000000000002 RCRAH          *53
 40000000 000000000001 RCRAN          *53
 40000000 000000000003 RCRSH          *53
 41000000 000000000002 RCRSN          *53       191       248       360
 40000000 000000210667 RCVER1         *53
 40000000 000000210670 RCVER2         *53
 40000000 000000210671 RCVER4         *53
 40000000 000000210672 RCVER5         *53
 40000000 000000210673 RCVER6         *53
 40000000 000000000736 RCW1           *53
 12:48 09/05/97  FILE=ZIM$DBMR.:ZIC0TSI       SYMBOL TABLE                                               84   BMAP - B00
 40000000 000000000737 RCW2           *53
 41000000 000000000004 RCWSO          *53       123      1128
 40000000 000000000077 RDAC           *53
 40000000 000000000076 RDCNT          *53
 40000000 000000040000 RDI            *53
 40000000 000000015674 RDLT           *53
 40000000 000000000075 RDYCW          *53
 40000000 000000000066 RECAC          *53
 01101000 000000002065 RECE2         1181     *1326
 01101000 000000002065 RECE3         1187     *1327
 01101000 000000002065 RECE5         1198     *1328
 01101000 000000002065 RECE6         1228     *1329
 40000000 000000000065 RECFR          *53
 01101000 000000001625 RECON2        1176     *1188
 40000000 000000000070 RECRC          *53
 40000000 000000000067 RECSC          *53
 41000000 000000000003 RECSZ          *53       300       784       940      1135
 40000000 000000000235 REMLT          *53
 40000000 000000000062 REM_RECOVER    *53
 01101000 000000001466 RER1           884     *1039
 01101000 000000001466 RER6           849     *1040
 01101000 000000001451 RER7           477     *1023
 01101000 000000001444 RER9           711     *1017
 40000000 000000000251 RETFR          *53
 40000000 000000210724 RFDNL          *53
 40000000 000000017644 RIM            *53
 01101000 000000001456 RLCS           445     *1029
 41000000 000000000005 RNAM           *53       955
 40000000 000000015706 RNDLT          *53
 40000000 000000000662 RNG1           *53
 40000000 000000000664 RNG2           *53
 40000000 000000000073 RNGD           *53
 40000000 000000000072 RNGO           *53
 40000000 000000000660 RNGTAL         *53
 41000000 000000020154 RNM            *53      1024
 40000000 000000000041 ROCUR          *53
 41000000 000000000001 ROFST          *53      1383      1390
 12:48 09/05/97  FILE=ZIM$DBMR.:ZIC0TSI       SYMBOL TABLE                                               85   BMAP - B00
 40000000 000000002114 ROLL           *53
 40000000 000000020010 RPM            *53
 40000000 000000000001 RSCDH          *53
 41000000 000000000001 RSCDN          *53       196       260       403       480       687      1452
                                     1560      1565
 40000000 000000211710 RSDNL          *53
 40000000 000000004540 RSEE           *53
 01101000 000000001501 RSER1          681     *1061
 40000000 000000000003 RSIZ           *53
 40000000 000000000110 RSPAM          *53
 41000000 000000000004 RSPTR          *53      1212
 40000000 000000000037 RSREQ          *53
 40000000 000000000002 RSSSH          *53
 41000000 000000000001 RSSSN          *53       682       712
 40000000 000000210574 RSZER          *53
 40000000 000000000632 RSZTP          *53
 41000000 000000000003 RTP            *53       540       541
 41000000 000000000003 RTYP           *53       959
 40000000 000000000530 RV1            *53
 40000000 000000000550 RV2            *53
 40000000 000000000570 RV3            *53
 40000000 000000000610 RV4            *53
 41000000 000000000003 RVASID         *51       109       207       271       378       413       697
                                      805       832      1472      1580
 41000000 000000000510 RVI            *53       222       225       234       236       290       292
                                      294       296       297       318       319       335       337
                                      353       354       394       431       433       442       444
                                      447       449       468       483       486       493       495
                                      507       510       511       566       598       620       623
                                      656       657       672       715       718       725       727
                                      730       732       748       751       758       761       774
                                      777       899       908       911       913       916      1014
                                     1019      1025      1108      1114      1117      1123      1125
                                     1132      1155      1191      1194      1196      1221      1224
                                     1226      1243      1246      1268      1271      1280      1282
                                     1287      1291      1320
 41000000 000000000511 RVO            *53       228       229       235       291       295       330
 12:48 09/05/97  FILE=ZIM$DBMR.:ZIC0TSI       SYMBOL TABLE                                               86   BMAP - B00
                                      331       336       437       438       443       448       489
                                      490       494       500       503       582       585       721
                                      722       726       731       739       742       970       971
                                     1120      1124      1183      1186      1275      1276      1281
                                     1293      1297
 41000000 000000000513 RVPA           *53      1305      1309
 41000000 000000000512 RVT            *53       223       224       227       230       317       320
                                      329       332       432       434       436       439       484
                                      485       488       491       501       502       508       509
                                      527       583       584       591       603       621       622
                                      655       658       716       717       720       723       740
                                      741       744       749       750       752       759       760
                                      775       776       780       802       865       898       909
                                      910       914       915       930       937       946       969
                                      972      1111      1115      1116      1184      1185      1192
                                     1193      1211      1239      1244      1245      1269      1270
                                     1274      1277      1299      1303      1377
 40000000 000000000022 RVTAL          *53
 40000000 000000000002 RWSZ           *53
 40000000 000000000015 RY             *53
 40000000 000000210620 RYE1           *53
 40000000 000000210621 RYE4           *53
 40000000 777777777767 SA             *53
 01101000 000000001503 SAER1          322     *1096
 01101000 000000002065 SAER2         1273     *1335
 40000000 000000000005 SANAM          *53
 01101000 000000001577 SAVIT         1165     *1170
 40000000 000000001062 SCDES          *53
 40000000 000000211544 SCDNL          *53
 40000000 000000000024 SCFC           *53
 40000000 000000000002 SCID           *53
 40000000 000000000024 SCLST          *53
 40000000 000000000004 SCNAM          *53
 41000000 000000000004 SCPTR          *53       593
 41000000 000000000003 SCRSH          *53       251       288       310       327       366       497
                                      517       630      1050      1546
 40000000 000000000002 SCRSN          *53
 12:48 09/05/97  FILE=ZIM$DBMR.:ZIC0TSI       SYMBOL TABLE                                               87   BMAP - B00
 01101000 000000000667 SCWEB          610      *616
 41000000 000000000001 SCWSO          *53       600      1172      1233
 40000000 000000001225 SFWS           *53
 40000000 000000001073 SIZCHG         *53
 01101000 000000001501 SKER2          633     *1056
 40000000 000000000645 SKFLG          *53
 40000000 000000000643 SKIND          *53
 40000000 000000000641 SKTYP          *53
 41000000 000000020464 SMCR           *53      1030
 01101000 000000002265 SMKDN         1561     *1598
 40000000 000000000003 SNAM           *53
 00101000 000000000700 SNIIL         *627
 40000000 000000000107 SNIND          *53
 40000000 000000000735 SNPAE          *53
 40000000 000000001046 SNSI           *53
 40000000 000000000743 SOE            *53
 40000000 000000020630 SORSA          *53
 40000000 000000004374 SOSE           *53
 40000000 000000000000 SPAV           *53
 40000000 000000000744 SPCAVN         *53
 40000000 000000000744 SPCAVO         *53
 40000000 000000000765 SPLF           *53
 41000000 000000000765 SPND           *53
 01101000 000000000616 SPTR           570      *575
 01101000 000000001605 SRTA          1153     *1178
 40000000 000000000006 SSDT           *53
 40000000 000000303243 SSER           *53
 40000000 000000303244 SSER1          *53
 40000000 000000000002 SSH            *53
 40000000 000000000005 SSNAM          *53
 40000000 000000210573 SSNF           *53
 40000000 000000210576 SSNV           *53
 40000000 000000000020 SSSPTR         *53
 40000000 000000000010 SSVDT          *53
 40000000 000000000033 SSZTP          *53
 40000000 000000000017 ST             *53
 40000000 000000000104 STBIN          *53
 12:48 09/05/97  FILE=ZIM$DBMR.:ZIC0TSI       SYMBOL TABLE                                               88   BMAP - B00
 40000000 000000000105 STDEC          *53
 40000000 000000303302 STE1           *53
 40000000 000000303303 STE2           *53
 40000000 000000210624 STE3           *53
 40000000 000000303305 STE4           *53
 40000000 000000303306 STE5           *53
 00101000 000000001501 STER1        *1064
 01101000 000000001437 STKE2          596     *1009
 01101000 000000001437 STKE3          747     *1010
 01101000 000000001437 STKE4          312     *1011
 41000000 000000000100 STKSIZ         *53
 40000000 000000000055 STMASK         *53
 01101000 000000000047 SUSC           136      *140
 41000000 000000000062 SUST           *53      1319      1321      1342
 41000000 000000000020 SWS            *53
 40000000 000000000000 SWSAC          *53
 40000000 000000000002 SWSZ           *53
 40000000 000000000000 SYSSF          *53
 40000000 000000000765 SZREQ          *53
 41000000 000000000004 TBUF           *53       299       782       923       939      1134      1380
 40000000 000000001061 TCTRS          *53
 60000000 000000000000 TDS            *53
 41000000 000000000113 TEMP           *53
 40000000 000000000640 TFLD           *53
 40000000 000000000657 TFLD2          *53
 40000000 000000000056 TMASK          *53
 41000000 000000000061 TMODE          *53       947
 40000000 000000000676 TMPPA          *53
 40000000 000000000003 TPAI           *53
 40000000 000000500000 TPRCOD         *53
 40000000 000000001031 TSFN           *53
 40000000 000000000021 TSI            *53
 40000000 000000001013 UBRD2          *53
 41000000 000000001223 UBSZ           *53
 40000000 000000000667 UCADR          *53
 01101000 000000001501 UCER1          973     *1063
 40000000 000000000036 UCRS           *53
 12:48 09/05/97  FILE=ZIM$DBMR.:ZIC0TSI       SYMBOL TABLE                                               89   BMAP - B00
 40000000 000000000024 UFSPK          *53
 40000000 000000000024 UFSPK2         *53
 00101000 000000002065 ULE10        *1322
 00101000 000000001503 ULER7        *1089
 00101000 000000002065 ULER9        *1332
 40000000 000000000715 ULIM           *53
 40000000 000000004230 UNA            *53
 40000000 000000303417 UNIM           *53
 00101000 000000001777 UNL0         *1286
 01101000 000000002013 UNL1          1290     *1292
 01101000 000000002027 UNL2          1296     *1298
 01101000 000000002043 UNL3          1302     *1304
 01101000 000000002057 UNL4          1308     *1310
 40000000 000000000002 UOFST          *53
 40000000 000000001035 UPACD          *53
 40000000 000000000721 UPACW          *53
 01101000 000000001501 UPAOE          653     *1071
 01101000 000000002065 UPAOE2        1229     *1341
 01101000 000000001401 UPCUR          917       948      *965
 40000000 000000000007 UPFLAG         *53
 00101000 000000001501 UPKE1        *1069
 00101000 000000002065 UPKE2        *1337
 40000000 000000000103 UPPAI          *53
 40000000 000000000004 UPTSID         *51
 40000000 000000000674 USTAT          *53
 40000000 000000000002 UWASID         *51
 40000000 000000000002 UWSSZ          *53
 40000000 000000000020 UWSZ           *53
 41000000 000000000243 VFDSC          *53      1389      1392      1395      1398      1405      1410
                                     1413
 40000000 000000001070 VFDSR          *53
 40000000 000000000656 VFLD           *53
 40000000 000000001074 VFLNG          *53
 40000000 000000001124 VIB1           *53
 40000000 000000001154 VIBP           *53
 41000000 000000000000 VLPSID         *51       108       206       270       377       412       696
                                      804       831      1471      1579
 12:48 09/05/97  FILE=ZIM$DBMR.:ZIC0TSI       SYMBOL TABLE                                               90   BMAP - B00
 41000000 000000001074 VRSIZ          *53       789       922      1394      1415
 40000000 000000001067 WLOA           *53
 40000000 000000100000 WRTI           *53
 40000000 000000000000 WSBID          *53
 40000000 000000000003 WSOF           *53
 41000000 000000000000 X0             *51       132       133       195       196       198       204
                                      213       259       260       262       268       277       375
                                      384       402       403       405       410       419       473
                                      474       480       518       519       521       546       547
                                      568       569       572       603       617       618       686
                                      687       689       694       703       753       807       814
                                      830       838       900       901       904       905       906
                                      919       920       922       924       932       933       986
                                      993       999      1005      1013      1020      1026      1031
                                     1035      1042      1048      1129      1130      1167      1395
                                     1396      1451      1452      1454      1469      1478      1545
                                     1559      1560      1565      1566      1577      1586
 41000000 000000000001 X1             *51       104       106       114       115       123       124
                                      125       183       199       200       203       212       226
                                      231       241       242       252       253       254       263
                                      264       267       276       289       293       297       300
                                      305       307       313       314       316       322       323
                                      324       333       353       355       363       364       367
                                      368       371       372       374       383       391       392
                                      394       407       409       418       435       440       468
                                      487       492       505       511       542       566       580
                                      586       591       600       626       633       637       638
                                      639       643       647       649       653       674       675
                                      676       681       691       693       702       709       710
                                      719       724       737       743       744       752       755
                                      756       757       778       780       784       788       789
                                      790       802       829       837       840       841       843
                                      847       848       851       852       853       856       859
                                      865       873       874       876       879       883       886
                                      887       888       891       894       898       912       929
                                      930       935       937       940       946       959       960
                                      961       962       963       964       973       975      1105
 12:48 09/05/97  FILE=ZIM$DBMR.:ZIC0TSI       SYMBOL TABLE                                               91   BMAP - B00
                                     1111      1128      1132      1135      1142      1145      1146
                                     1147      1150      1151      1152      1163      1164      1172
                                     1181      1187      1198      1201      1202      1203      1214
                                     1216      1221      1222      1224      1227      1228      1229
                                     1233      1258      1260      1262      1264      1265      1267
                                     1273      1279      1290      1291      1296      1297      1302
                                     1303      1308      1309      1320      1377      1394      1406
                                     1407      1408      1455      1456      1458      1459      1463
                                     1464      1466      1468      1477      1482      1486      1571
                                     1572      1574      1576      1585      1591      1595
 41000000 000000000002 X2             *51       209       273       380       415       699       806
                                      813       834       947      1120      1474      1582
 41000000 000000000003 X3             *51       353       354       527       598       607       608
                                      609       650       651       672       899       946      1014
                                     1019      1025      1108      1155      1175      1189      1190
                                     1196      1211      1221      1224      1226      1239      1287
                                     1291      1293      1297      1299      1303      1305      1309
                                     1320
 41000000 000000000004 X4             *51       202       210       266       274       406       416
                                      682       683       690       700       712       713       714
                                      754       809       810       825       826       828       835
                                      857       869       870       872       892      1378      1461
                                     1462      1475      1563      1564      1568      1569      1570
                                     1583
 41000000 000000000005 X5             *51       191       193       220       221       247       248
                                      250       256       285       286       287       309       326
                                      359       360       362       388       429       430       479
                                      482       496       504       506       587       588       589
                                      590       625       629       632       636       642       684
                                     1049      1157      1212      1213      1254      1255      1256
                                     1257
 41000000 000000000006 X6             *51       251       288       310       327       328       366
                                      381       452       497       517       556       593       594
                                      630       631       679       680       746       987       994
                                     1000      1006      1036      1043      1050      1142      1144
                                     1200      1232      1546
 03201040 000000000000 X66_ARET       *51       979      1417      1490      1599
 12:48 09/05/97  FILE=ZIM$DBMR.:ZIC0TSI       SYMBOL TABLE                                               92   BMAP - B00
 03201039 000000000000 X66_AUTO_0     *51        98      1376      1449      1544
 41000000 000000000007 X7             *51       110       111       118       122       185       240
                                      245       356       357       673       783       803       811
                                      823       866       867       902       903       931       949
                                      988       995      1007      1015      1021      1027      1037
                                     1044      1051      1127
 40000000 000000210665 XASL           *53
 40000000 000000303420 XLD            *53
 01101000 000000002267 XMSCE         1610     *1612
 40000000 000000303421 XPD            *53
 41000000 000000000676 XPRS           *53       287      1257
 40000000 000000210666 XROLL          *53
 40000000 000000210664 XUNEX          *53
 40000000 777777777777 XXDPN          *53
 03201038 000000000000 ZIB$CLRRECOVER           *49       975      1105
 03201041 000000000000 ZIB$DBALT    *1077     *1342     *1502     *1613
 03201043 000000000000 ZIB$DBALTO   *1314
 03201042 000000000000 ZIB$DBALTR   *1103
 03201037 000000000000 ZIB$FPTRECOVER           *48       104
 03201000 000000000000 ZIG$DBAF       *13       505       626
 03201001 000000000000 ZIG$DBAKP      *14       643      1214
 01101000 000000002071 ZIG$DBAVF      843       879     *1375
 01101000 000000002133 ZIG$DBCFL      226       435       487       633       719     *1448
 03201002 000000000000 ZIG$DBECK      *15       859       894
 03201004 000000000000 ZIG$DBGRS      *17       681
 01101000 000000002206 ZIG$DBKMS      316      1260     *1543
 12101000 000000000000 ZIG$DBMOD       11       *97
 03201008 000000000000 ZIG$DBPCK      *21       231       293       440       492       724
 03201009 000000000000 ZIG$DBPCR      *22       106
 03201010 000000000000 ZIG$DBPCS      *23       935
 03201011 000000000000 ZIG$DBPFD      *24      1198
 03201012 000000000000 ZIG$DBPFI      *25       647      1216
 03201013 000000000000 ZIG$DBPFN      *26      1222
 03201014 000000000000 ZIG$DBPFP      *27       580      1181
 03201015 000000000000 ZIG$DBPIC      *28       756
 03201016 000000000000 ZIG$DBPMA      *29      1482
 02201017 000000000000 ZIG$DBPMF      *30
 12:48 09/05/97  FILE=ZIM$DBMR.:ZIC0TSI       SYMBOL TABLE                                               93   BMAP - B00
 03201018 000000000000 ZIG$DBPMK      *31       856       891      1486
 03201019 000000000000 ZIG$DBPMS      *32       289
 02201020 000000000000 ZIG$DBPNC      *33
 03201021 000000000000 ZIG$DBPPC      *34       737
 03201036 000000000000 ZIG$DBPR2      *47       542
 03201025 000000000000 ZIG$DBUPD      *36       973
 03201031 000000000000 ZIG$DBUPP      *42       653      1229
 03201032 000000000000 ZIG$DBXKT      *43       305      1267
 03201033 000000000000 ZIG$DBXMT      *44      1591
 03201034 000000000000 ZIG$DBXMU      *45      1595
 03201022 000000000000 ZIM$DBPLK      *35       353      1221
 03201024 000000000000 ZIM$DBPMR      *35       355      1227
 03201023 000000000000 ZIM$DBPUL      *35       946      1224      1291      1297      1303      1309
                                     1320
 03201029 000000000000 ZIM$IMOD       *40       912
 03201007 000000000000 ZIM$JMOD       *20       929
 03201026 000000000000 ZIM$KCURR      *37       333      1279
 03201027 000000000000 ZIM$KDEL       *38       307      1262
 03201028 000000000000 ZIM$KSTO       *39       322      1273
 03201005 000000000000 ZIM$PCON       *18       649       757      1228
 03201006 000000000000 ZIM$PDIS       *19       586       743      1187
 03201035 000000000000 ZIM$TRACE      *46       964
 03201030 000000000000 ZIO$DBBCC      *41      1290      1296      1302      1308
 03201003 000000000000 ZIQ$DBFCH      *16       755

    1134 SYMBOLS

 12:48 09/05/97  FILE=ZIM$DBMR.:ZIC0TSI       MACRO TABLE                                                94   BMAP - B00
 CBSYM           53
 DBALT         1077      1103      1502      1613
 DBALTO        1314
 DBCAL          104       106       226       231       289       293       305       307       316
                322       333       353       355       435       440       487       492       505
                542       580       586       626       633       643       647       649       653
                681       719       724       737       743       755       756       757       843
                856       859       879       891       894       912       929       935       964
                973       975      1105      1181      1187      1198      1214      1216      1221
               1222      1227      1228      1229      1260      1262      1267      1273      1279
               1290      1296      1302      1308      1482      1486      1591      1595
 DBREC         1342
 DBRET          979      1417      1490      1599
 DBSAV           98      1376      1449      1544
 ICCAL          542       653       755       973      1229
 LOCK           353      1221
 POPDP         1142
 PSHDP          312       747
 Q2SYM           53
 SSSYM           53
 UNLOCK         946      1224      1291      1297      1303      1309      1320

      37 MACROS

    SYMBOL SPACE USED 14905 WORDS
     MACRO SPACE USED 13057 WORDS
   INPUT RECORDS READ  5030
 STATEMENTS PROCESSED  4649
         ELAPSED TIME  0:32.44
             CPU TIME    24.71 SEC.
        ASSEMBLY RATE 11289 STATEMENTS/CPU MIN.

      NO ERRORS

