
 12:49 09/05/97  FILE=ZIM$DBPR.:ZIC0TSI                                                                  1    BMAP - B00
                                         1  *M*      ZIG$DBPR
                                         2  *T***********************************************************
                                         3  *T*                                                         *
                                         4  *T* Copyright (c) Bull HN Information Systems Inc., 1997    *
                                         5  *T*                                                         *
                                         6  *T***********************************************************

 12:49 09/05/97  FILE=ZIM$DBPR.:ZIC0TSI       H6600H2.530     IDS/II PRIMITIVES - RETRIEVAL  780417DBPR  2    BMAP - B00
                                         7         TTL     H6600H2.530     IDS/II PRIMITIVES - RETRIEVAL  780417DBPR
                                         8         CPR     1974
                                         9         PMC     OFF
                                        10         ENTDEF  ZIG$DBPCR       get current of run
                                        11         ENTDEF  ZIG$DBPFD       find direct
                                        12           ENTREF      ZIM$IFIND
                                        13         ENTDEF  ZIG$DBPFN       find next of set
                                        14         ENTDEF  ZIG$DBPFP       find prior of set
                                        15         ENTDEF  ZIG$DBPFO       find owner of set
                                        16         ENTDEF  ZIG$DBPPC       find prior of calc set
                                        17         ENTDEF  ZIG$DBPNC       find next of calc set
                                        18         ENTDEF  ZIG$DBPNA       find next of area
                                        19         ENTDEF  ZIG$DBPPA       find prior of area
                                        20         ENTDEF  ZIG$DBPMT       move a field from buffer to UWA
                                        21         ENTDEF  ZIG$DBPCF       compare field in TEMP buf to page buffer
                                        22         ENTDEF  ZIG$DBPMK       move field to TEMP buffer
                                        23         ENTDEF  ZIG$DBPCK       compare match keys in TEMP buf to fld in page
                                        24         ENTDEF  ZIG$DBPMS       move match keys from UWA to TEMP buffer
                                        25         ENTDEF  ZIG$DBPMA       move field from page buf to TEMP rec
                                        26         ENTDEF  ZIG$DBPMC       move calc fields from page buf to TEMP rec
                                        27           ENTDEF      ZIQ$DBPR1         find RC and RS from type
                                        28         ENTDEF  ZIG$DBPR2
                                        29         ENTDEF  ZIQ$DBPR3       find RA through RA-RC set
                                        30         ENTDEF  ZIG$DBXCI
                                        31         ENTDEF  ZIG$DBPMF
                                        32         ENTREF  ZIQ$DBIOL,ZIQ$DBION,ZIQ$DBIOP
                                        33           ENTREF   ZIQ$DBIOA
                                        34         ENTREF  ZIG$DBDCD,ZIG$DBECD
                                        35           ENTREF   ZIQ$DBIOF
                                        36         ENTREF  ZIG$DBAFN,ZIG$DBAFP
                                        37         LODM    Q2MA
                                        38         Q2SYM

 12:49 09/05/97  FILE=ZIM$DBPR.:ZIC0TSI       GET CURRENT OF RUN                                         3    BMAP - B00
                                        39         TTLS    GET CURRENT OF RUN
                                        40  *
                                        41  *  GET CURRENT OF RUN
                                        42  *
                                        43  *  INPUT : IF  RVO (BITS 18-35) ARE NOT ZERO THE OUT REC VAR IS MADE INP
                                        44  *          IF  RVO (BITS 18-35) ARE ZERO THE DBK IN CRUN IS RETRIEVED
                                        45  *
                                        46  *  OUTPUT: INPUT REC VAR - DBK OF CURRENT OF RUN
                                        47  *                        - BUFFER ADDRESS
                                        48  *                        - REC ADDRESS
                                        49  *                        - RC PTR
                                        50  *                        - REC TYPE
                                        51  *                        - BURID
                                        52  *
 0 000000                               53  ZIG$DBPCR NULL
   000000  X 000000 7000 00             54         DBSAV
   000001    000004 000000
   000002    7 00511 7211 00            55         LXL     X1,RVO,,PR7     IS OUT REC VAR CURR
   000003 (0)000063 6010 00             56         TNZ     GTCR            YES
                                        57  *  RETRIEVE CURR
   000004                               58  DBP1   NULL
   000004    7 00510 2231 00            59         LDX     X3,RVI,,PR7     SET X3 TO REC VAR IN
   000005    7 01223 2361 00            60         LDQ     CRUN,,PR7       GET DBK OF CURR OF RUN
   000006 (0)000067 6000 00             61         TZE     CRN             YES
   000007    7 00000 7561 13            62         STQ     DBKEY,X3,PR7    PUT IN REC VAR
   000010    7 01224 2271 00            63           LDX      X7,CRUN+1,,PR7       Get RC offset
   000011    6 00000 2271 17            64           LDX      X7,DEF,X7,PR6        Get def word
   000012    000007 3670 03             65           ANX      X7,.PSTO,DU          Mask out junk
   000013    000004 1070 03             66           CMPX     X7,4,DU              Is it indexed
   000014 (0)000045 6010 00             67           TNZ      INTG                 No integrated.  Skip
   000015    7 01224 2271 00            68           LDX      X7,CRUN+1,,PR7       Get RC again
   000016    7 00006 7471 13            69           STX      X7,RCPTR,X3,PR7      Save RC
   000017    7 00517 7471 00            70           STX      X7,PRRC,,PR7         Save as primary request
   000020    6 00001 2201 17            71           LDX      X0,RCRAN,X7,PR6      Get Record-Area descriptor
   000021    6 00002 7201 10            72           LXL      X0,ACRAH,X0,PR6      Get AC descriptor
   000022    7 00005 7401 13            73           STX      X0,ACPTR,X3,PR7      Save AC
   000023    6 00002 7251 17            74           LXL      X5,RCRSN,X7,PR6      Get RS for primary key
 12:49 09/05/97  FILE=ZIM$DBPR.:ZIC0TSI       GET CURRENT OF RUN                                         4    BMAP - B00
   000024    6 00003 7261 15            75           LXL      X6,SCRSH,X5,PR6      Get SC for primary key
   000025    7 00520 7461 00            76           STX      X6,PRSC,,PR7         Save for call
   000026    7 00014 7271 00            77           LXL      X7,CIWSOF,,PR7       Current of index work space
   000027    7 00010 4715 00            78           LDP      PR1,KEYPA,,PR7       Key process area
   000030    7 00000 2351 17            79           LDA      CIRUN,X7,PR7         Get length field
   000031    1 00000 7551 00            80           STA      0,,PR1               Set length in key proces area
   000032    000033 7710 00             81           ARL      27                   Shift into place
   000033    000000 6360 17             82           EAQ      0,X7                 Into arithmetic register
   000034    000020 7320 00             83           QRS      16                   Change into bytes
   000035    000 0 140 1005 46          84           MLR      (1,1,,Q),(1,1)       Move
   000036    7 00000 2 0 0 0005         85           ADSC9    CIRUN,1,A,PR7         From current of indexed
   000037    1 00000 2 0 0 0005         86           ADSC9    0,1,A,PR1              To Key process area
   000040  X 000000 7010 00             87           DBCAL    ZIM$IFIND,,PER12     Find current of key
   000041 (0)000104 7020 00
   000042    5 00006 2341 00
   000043    777776 6010 04
   000044 (0)000066 7100 00             88           TRA      RET                  Return
   000045                               89  INTG     NULL
   000045 (0)001077 7010 00             90           DBCAL    ZIG$DBPFD,,PER12
   000046 (0)000104 7020 00
   000047    5 00006 2341 00
   000050    777776 6010 04
   000051    7 00510 2231 00            91         LDX     X3,RVI,,PR7     SET X3 TO REC VAR IN
   000052    7 01224 2271 00            92         LDX     X7,CRUN+1,,PR7  GET RC FOR CURR
   000053    7 00003 2351 13            93         LDA     RTP,X3,PR7      GET TYPE RETRIEVED
   000054    7 00057 2361 00            94         LDQ     CTMASK,,PR7     LOAD TYPE MASK
   000055    6 00003 2111 17            95         CMK     RTYP,X7,PR6     IS TYPE RETR. CORRECT
   000056 (0)000074 6010 00             96         TNZ     CER9            NO
   000057    7 00006 7471 13            97         STX     X7,RCPTR,X3,PR7  SAVE RC PTR
   000060    100000 3150 07             98         CANA    .B2,DL          IS IT LOGICALLY DELETED                  <EHW>
   000061 (0)000100 6010 00             99         TNZ     LER1            YES                                      <EHW>
   000062 (0)000066 7100 00            100           TRA      RET
                                       101  *  CURRENT IS IN OUT REC VAR - MOVE IT TO INPUT REC VAR
   000063                              102  GTCR   NULL
   000063    7 00510 2371 00           103         LDAQ    RVI,,PR7        * REVERSE
   000064    7 00511 7551 00           104         STA     RVO,,PR7        *  IN &
   000065    7 00510 7561 00           105         STQ     RVI,,PR7        *   OUT
 12:49 09/05/97  FILE=ZIM$DBPR.:ZIC0TSI       GET CURRENT OF RUN                                         5    BMAP - B00
   000066  X 000000 7020 00            106  RET      DBRET
                                       107  *
                                       108  *  ERRORS DETECTED IN THIS PRIMITIVE
                                       109  *
   000067                              110  CRN    NULL                    CURR OF RUN IS NULL
   000067    006200 2350 07            111         LDA     CRNUL,DL
   000070    000000 6200 00            112         EAX     X0,0            NULL AC
   000071    000000 6260 00            113         EAX     X6,0            NULL SC
   000072    000000 6270 00            114         EAX     X7,0            NULL RC
   000073 (0)000105 7100 00            115         TRA     CRR1
   000074                              116  CER9   NULL                    CURR OF RUN NOT SAME TYPE LAST ACCESSED
   000074    303267 2350 07            117         LDA     PRE1,DL
   000075    7 00005 2201 13           118         LDX     X0,ACPTR,X3,PR7  GET AC PTR
   000076    000000 6260 00            119         EAX     X6,0            NULL SC
   000077 (0)000105 7100 00            120         TRA     CRR1
   000100                              121  LER1   NULL                    CURR OF RUN LOGICALLY DELETED            <EHW>
   000100    303326 2350 07            122         LDA     FDE8,DL         CURR OF RUN LOGICALLY DELETED            <EHW>
   000101    7 00005 2201 13           123         LDX     X0,ACPTR,X3,PR7  GET AC PTR                               <EHW>
   000102    000000 6260 00            124         EAX     X6,0            NULL SC                                  <EHW>
   000103 (0)000105 7100 00            125         TRA     CRR1                                                     <EHW>
                                       126  *
                                       127  *  ERRORS DETECTED IN SUBORDINATE PRIMITIVES
                                       128  *
   000104                              129  PER12  NULL                    PAGE ERROR- GET CURRENT
   000104 (0)000105 7100 00            130         TRA     CRR1
                                       131  *
                                       132  *  ERRORS DETECTED IN I/O ROUTINES
                                       133  *
                                       134  *  COMMON ERROR RETURN
   000105                              135  CRR1   NULL
   000105  X 000000 7020 00            136           DBALT

 12:49 09/05/97  FILE=ZIM$DBPR.:ZIC0TSI       IDS-II  PRIMITIVE - FIND NEXT/PRIOR OF SET                 6    BMAP - B00
                                       137         TTLS    IDS-II  PRIMITIVE - FIND NEXT/PRIOR OF SET
                                       138  *
                                       139  *  FIND NEXT, PRIOR OF SET
                                       140  *
                                       141  *  INPUT :  INPUT REC VAR - DBK OF CURRENT REC OF SET
                                       142  *                         - ADDRESS OF BUFFER
                                       143  *                         - ADDRESS OF  CURR. OF SET
                                       144  *                         - REC TYPE OF CURR. OF SET
                                       145  *                         - RC DEF PTR FOR CURR. OF SET
                                       146  *                             REQUIRED ONLY IF SC & RS PTRS ARE PRESENT
                                       147  *                         - SC&RS PTRS OPTIONAL(0 = NOT PRESENT)
                                       148  *                             IF ONE IS PRESENT, BOTH MUST BE
                                       149  *                             IF SC & RS ARE PRESENT RC MUST BE ALSO
                                       150  *                             IF SC MATCHES PRSC,RC & RS WILL BE USED
                                       151  *                    PRRC - RC FOR RECORD TYPE REQUEST(MUST BE IN SS)
                                       152  *                             (NEG  IF FOR ANY TYPE)
                                       153  *                             (ZERO IF FOR ANY TYPE IN SUB-SCHEMA)
                                       154  *                             (NON-NEGATIVE - SKIP LOGICALLY DELETED)
                                       155  *                    PRSC - REQUESTED SET CLASS
                                       156  *
                                       157  *  OUTPUT:  OUTPUT REC VAR- DBK OF NEXT REC OF SET
                                       158  *                         - ADDRESS OF BUFFER
                                       159  *                         - ADDRESS  OF NEXT OF SET
                                       160  *                         - REC TYPE OF NEXT OF SET
                                       161  *                         - REC SIZE
                                       162  *                         - RC DEF PTR
                                       163  *                         - SC DEF PTR
                                       164  *                         - RS DEF PTR
                                       165  *                         - BURID
                                       166  *
                                       167  *  EXCEPTION RETURN
                                       168  *    OWNER FOUND
                                       169  *    CODE IN PRST
                                       170  *
   000106                              171  ZIG$DBPFP NULL
   000106  X 000000 7000 00            172         DBSAV                   SAVE RETRN ADDR
   000107    000004 000000
 12:49 09/05/97  FILE=ZIM$DBPR.:ZIC0TSI       IDS-II  PRIMITIVE - FIND NEXT/PRIOR OF SET                 7    BMAP - B00
   000110    7 00630 7501 00           173         STC2    NPIND,,PR7      MARK REQUEST AS PRIOR
   000111 (0)000115 7100 00            174         TRA     GRC1            GO GET RC & RS
   000112                              175  ZIG$DBPFN NULL
   000112  X 000000 7000 00            176         DBSAV                   SAVE ADDR
   000113    000004 000000
   000114    7 00630 4501 00           177         STZ     NPIND,,PR7      MARK REQUEST AS NEXT
   000115                              178  GRC1   NULL
                                       179  *  SEE IF THIS IS CALC SET
   000115    7 00520 2261 00           180         LDX     X6,PRSC,,PR7    SET X6 TO SC REQUESTED
   000116    6 00004 1061 00           181         CMPX    X6,CLCSC+OAOFST,,PR6  IS IT CALC
   000117 (0)000512 6000 00            182         TZE     PNC             YES - GO TO CALC ROUTINE
   000120                              183  LOOP3  NULL
   000120    7 00510 2231 00           184         LDX     X3,RVI,,PR7     SET X3 TO REC VAR IN
   000121    7 00004 1061 13           185         CMPX    X6,SCPTR,X3,PR7  IS THIS THE SAME SC
   000122 (0)000134 6000 00            186         TZE     GNP             YES
   000123    7 00003 2351 13           187         LDA     RTP,X3,PR7      GET REC TYPE
   000124 (0)001562 7010 00            188           ICCAL    ZIG$DBPR2,,RCER2
   000125 (0)000340 7020 00
   000126    5 00006 2341 00
   000127    777776 6010 04
   000130    7 00510 2231 00           189         LDX     X3,RVI,,PR7
   000131    7 00006 7471 13           190         STX     X7,RCPTR,X3,PR7  SAVE RC DEF PTR
   000132    7 00004 7461 13           191         STX     X6,SCPTR,X3,PR7  SAVE SC DEF PTR
   000133    7 00004 4451 13           192         SXL     X5,RSPTR,X3,PR7  SAVE RS DEF PTR
                                       193  *  GET THE POINTER FROM THE RECORD
   000134                              194  GNP    NULL
   000134    7 00004 7251 13           195         LXL     X5,RSPTR,X3,PR7  GET RS PTR
                                       196  *  IF SET IS A PA SET,CALL THE FIND NEXT/PRIOR IN PA SET PRIMITIVES.
   000135    6 00000 2211 16           197         LDX     X1,DEF,X6,PR6   GET SET MODE
   000136    000070 3610 03            198         ANX     X1,.SETM,DU     ISOLATE
   000137    000020 1010 03            199         CMPX    X1,=O20,DU      IS IT A PA SET
   000140 (0)000173 6010 00            200         TNZ     NPA             NO - NOT A PA SET
   000141    6 00000 2211 15           201         LDX     X1,DEF,X5,PR6   GET MEMBER TYPE
   000142    000007 3610 03            202         ANX     X1,.MEMT,DU     ISOLATE
   000143    000002 1010 03            203         CMPX    X1,=O2,DU       IS IT A PA REC
   000144 (0)000173 6000 00            204         TZE     NPA             YES - GO ON
   000145    7 00735 7211 00           205         LXL     X1,DUSEPA,,PR7  SHOULD PA SET BE USED
 12:49 09/05/97  FILE=ZIM$DBPR.:ZIC0TSI       IDS-II  PRIMITIVE - FIND NEXT/PRIOR OF SET                 8    BMAP - B00
   000146 (0)000173 6010 00            206         TNZ     NPA             NO
   000147    7 00630 2341 00           207         SZN     NPIND,,PR7      WAS THE REQUEST FOR NEXT OR PRIOR
   000150 (0)000162 6000 00            208         TZE     GNXPA           NEXT
   000151  X 000000 7010 00            209         DBCAL   ZIG$DBAFP,EPAST1,FPPAE FIND PRIOR OF PA SET
   000152 (0)000341 7020 00
   000153    5 00006 2341 00
   000154    000003 6000 04
   000155    5 00006 4501 00
   000156 (0)000157 7020 00
   000157                              210  EPAST1 NULL
   000157    7 00511 2221 00           211         LDX     X2,RVO,,PR7
   000160    7 00000 2361 12           212         LDQ     DBKEY,X2,PR7    GET DBK OF PRIOR IN PA SET
   000161 (0)000217 7100 00            213         TRA     GETL            GO FIND RECORD
   000162                              214  GNXPA  NULL
   000162  X 000000 7010 00            215         DBCAL   ZIG$DBAFN,EPAST2,FNPAE FIND NEXT OF PA SET
   000163 (0)000341 7020 00
   000164    5 00006 2341 00
   000165    000003 6000 04
   000166    5 00006 4501 00
   000167 (0)000170 7020 00
   000170                              216  EPAST2 NULL
   000170    7 00511 2221 00           217         LDX     X2,RVO,,PR7
   000171    7 00000 2361 12           218         LDQ     DBKEY,X2,PR7    GET DBK OF NEXT IN PA SET
   000172 (0)000217 7100 00            219         TRA     GETL
   000173                              220  NPA    NULL
   000173    7 00002 4735 13           221         LDP     PR3,RADDR,X3,PR7  SET PR3 TO REC ADDR IN
   000174    7 00630 2341 00           222         SZN     NPIND,,PR7      WAS THE REQUEST FOR NEXT OR PRIOR
   000175 (0)000202 6000 00            223         TZE     GNXT            NEXT
   000176    000 1 100 1015 20         224         MRL     (1,,1),(1),,1       * MOVE
   000177    6 00005 0001 15           225         ARG     PPOS,X5,PR6         *  PRIOR PTR TO
                                       226         IFE     M9,1,1
   000200    7 00631 0 0 0 0004        227         ADSC9   PTR,0,4,PR7         *   WORK SPACE
                                       228         IFE     M9,0,1
                                       229         ADSC6   PTR,0,6,PR7     *   WORK SPACE
   000201 (0)000205 7100 00            230         TRA     GOTP
   000202                              231  GNXT   NULL
   000202    000 1 100 1015 20         232         MRL     (1,,1),(1),,1       * MOVE
 12:49 09/05/97  FILE=ZIM$DBPR.:ZIC0TSI       IDS-II  PRIMITIVE - FIND NEXT/PRIOR OF SET                 9    BMAP - B00
   000203    6 00004 0001 15           233         ARG     NPOS,X5,PR6         *    POINTER
                                       234         IFE     M9,1,1
   000204    7 00631 0 0 0 0004        235         ADSC9   PTR,0,4,PR7         *   WORK SPACE
                                       236         IFE     M9,0,1
                                       237         ADSC6   PTR,0,6,PR7     *   WORK SPACE
   000205                              238  GOTP   NULL
   000205    7 00631 2341 00           239         SZN     PTR,,PR7        IS PTR NULL
   000206 (0)000326 6000 00            240         TZE     NER1            YES
                                       241  *  ADJUST PTR IF SET IS LOCAL
   000207    7 00631 2361 00           242         LDQ     PTR,,PR7        GET PTR
   000210    6 00000 7211 16           243         LXL     X1,DEF,X6,PR6   GET DEF FROM SC
   000211    001000 3010 03            244         CANX    X1,.LG,DU       IS IT A GLOBAL SET
   000212 (0)000215 6010 00            245         TNZ     GSETN           YES
   000213    7 00005 2201 13           246         LDX     X0,ACPTR,X3,PR7  GET AC
   000214    6 00002 0361 10           247         ADLQ    ABAS,X0,PR6     MAKE PTR GLOBAL DBK
   000215                              248  GSETN  NULL
   000215    7 00511 2221 00           249         LDX     X2,RVO,,PR7     SET X2 TO REC VAR OUT
   000216    7 00000 7561 12           250         STQ     DBKEY,X2,PR7    SAVE DBK IN REC VAR
   000217                              251  GETL   NULL
                                       252  *  GET THE RECORD
   000217  X 000000 7010 00            253           ICCAL    ZIQ$DBIOL,,PGER
   000220 (0)000342 7020 00
   000221    5 00006 2341 00
   000222    777776 6010 04
   000223    7 00511 2221 00           254         LDX     X2,RVO,,PR7
   000224    5 00020 2351 00           255        LDA     GIOAWS,,PR5         GET GLOBAL.PARAM.IO.AWS$
   000225    7 00013 7551 12           256        STA     AWS$,X2,PR7         SAVE IN REC VAR
   000226    7 00002 4535 12           257         STP     PR3,RADDR,X2,PR7  SAVE ADDR OF REC
   000227    7 00001 4545 12           258         STP     PR4,BADDR,X2,PR7  SAVE ADDR OF BUFFER
   000230    7 00005 7401 12           259         STX     X0,ACPTR,X2,PR7  SAVE AC PTR
                                       260  *  FIND THE RC
   000231    000 1 100 1005 00         261         MLR     (1),(1),,1          * MOVE
   000232    3 00000 0 0 0 0004        262         ADSC9   ,,4,PR3             * REC TYPE, SIZE TO
   000233    7 00632 0 0 0 0004        263         ADSC9   RSZTP,0,4,PR7       *  WORK SPACE
   000234    7 00632 2351 00           264         LDA     RSZTP,,PR7      GET TYPE
   000235    000022 7750 00            265         ALR     18              INTO POSITION
   000236    7 00003 7551 12           266         STA     RTP,X2,PR7      SAVE IN REC VAR
 12:49 09/05/97  FILE=ZIM$DBPR.:ZIC0TSI       IDS-II  PRIMITIVE - FIND NEXT/PRIOR OF SET                 10   BMAP - B00
   000237    7 00510 2231 00           267         LDX     X3,RVI,,PR7
   000240    7 00004 7251 13           268         LXL     X5,RSPTR,X3,PR7  GET RS FOR INPUT REC
   000241    7 00004 2261 13           269         LDX     X6,SCPTR,X3,PR7  GET SC
   000242    7 00006 2271 13           270         LDX     X7,RCPTR,X3,PR7  GET RC FOR INPUT REC
   000243    7 00057 2361 00           271         LDQ     CTMASK,,PR7     LOAD TYPE MASK
   000244    6 00003 2111 17           272         CMK     RTYP,X7,PR6     IS NEXT SAME TYPE AS PRIOR
   000245 (0)000254 6000 00            273         TZE     GOTRS           YES
   000246 (0)001562 7010 00            274           ICCAL    ZIG$DBPR2,,RCER3
   000247 (0)000340 7020 00
   000250    5 00006 2341 00
   000251    777776 6010 04
   000252    7 00511 2221 00           275         LDX     X2,RVO,,PR7     restore 'Rec Var Out' offset into X2
   000253    7 00005 2201 12           276         LDX     X0,ACPTR,X2,PR7         restore AC
   000254                              277  GOTRS  NULL
   000254    7 00006 7471 12           278         STX     X7,RCPTR,X2,PR7  SAVE RC PTR
   000255    7 00004 7461 12           279         STX     X6,SCPTR,X2,PR7  SAVE SC PTR
   000256    7 00004 4451 12           280         SXL     X5,RSPTR,X2,PR7  SAVE RS PTR
                                       281  *  CHECK RECORD SIZE
                                       282         IFE     E,1,%CK5
   000257    6 00003 2211 17           283         LDX     X1,RSIZ,X7,PR6  GET SIZE FROM RC
   000260    6 00000 2351 17           284         LDA     DEF,X7,PR6      GET DEFINITION                           <EHW>
   000261    040000 3750 07            285         ANA     .FVR,DL         IS RECORD VARIABLE SIZE                  <EHW>
   000262 (0)000266 6000 00            286         TZE     *+4             NO                                       <EHW>
   000263    7 00003 1011 12           287         CMPX    X1,RECSZ,X2,PR7  IS MA SIZ > OR = TO SIZ IN REC           <EHW>
   000264 (0)000333 6020 00            288         TNC     SZE1            NO - ERROR                               <EHW>
   000265 (0)000270 7100 00            289         TRA     *+3                                                      <EHW>
   000266    7 00003 1011 12           290         CMPX    X1,RECSZ,X2,PR7  IS IT EQUAL SIZE FROM RECORD
   000267    000044 6010 04            291         TNZ     SZE1,$          NO - ERROR
                                       292  CK5    MARK
                                       293  *  SEE IF REC RETRIEVED IS OWNER
   000270    6 00000 2211 15           294         LDX     X1,DEF,X5,PR6
   000271    010000 3010 03            295         CANX    X1,.SO,DU       IS IT A SET OWNER RS
   000272 (0)000322 6010 00            296         TNZ     OWNF            YES
                                       297  *  SEE IF REQUEST IS FOR ANY TYPE
   000273    7 00517 2341 00           298         SZN     PRRC,,PR7       IS RC NEG
   000274 (0)000321 6040 00            299         TMI     NXTF            YES - RETURN REC
                                       300  *  CHECK IF LOGICALLY DELETED                                           <EHW>
 12:49 09/05/97  FILE=ZIM$DBPR.:ZIC0TSI       IDS-II  PRIMITIVE - FIND NEXT/PRIOR OF SET                 11   BMAP - B00
   000275    7 00632 2211 00           301         LDX     X1,RSZTP,,PR7   STATUS                                   <EHW>
   000276    100000 3010 03            302         CANX    X1,.B2,DU       IS IT LOGICALLY DELETED                  <EHW>
   000277 (0)000315 6010 00            303         TNZ     NSSR            YES - GET NEXT                           <EHW>
                                       304  *  SEE IF REC FOUND IS IN SUB-SCHEMA
   000300    6 00000 7211 17           305         LXL     X1,DEF,X7,PR6
   000301    100000 3010 03            306         CANX    X1,.SR,DU       IS REC IN SS
   000302 (0)000315 6010 00            307         TNZ     NSSR            NO
   000303 (0)001600 7010 00            308           ICCAL ZIQ$DBPR3,NSSR,NOALT
   000304    000000 0020 00
   000305    5 00006 2341 00
   000306    000003 6000 04
   000307    5 00006 4501 00
   000310 (0)000315 7020 00
                                       309  *  SEE IF REC RETRIEVED IS TYPE REQUESTED
   000311    7 00517 2271 00           310         LDX     X7,PRRC,,PR7    GET RC REQUESTED
   000312 (0)000321 6000 00            311         TZE     NXTF            NONE - HAVE A GOOD REC
   000313    7 00006 1071 12           312         CMPX    X7,RCPTR,X2,PR7  IS IT TYPE REQUESTED
   000314 (0)000321 6000 00            313         TZE     NXTF            YES
                                       314  *  MAKE REC RETRIEVED INPUT & GET NEXT
   000315                              315  NSSR   NULL
   000315    7 00510 2371 00           316         LDAQ    RVI,,PR7        GET IN & OUT
   000316    7 00511 7551 00           317         STA     RVO,,PR7        MAKE IN  OUT
   000317    7 00510 7561 00           318         STQ     RVI,,PR7        MAKE OUT  IN
   000320 (0)000120 7100 00            319         TRA     LOOP3           GET NEXT REC
                                       320  *  NORMAL RETURN
   000321                              321  NXTF   NULL                    NEXT WAS FOUND
   000321  X 000000 7020 00            322         DBRET                   NORMAL RETURN
                                       323  *
                                       324  *  EXCEPTIONS
                                       325  *
   000322                              326  OWNF   NULL                    OWNER WAS FOUND
   000322    004064 2350 07            327         LDA     EOSR,DL
   000323    000000 6200 00            328         EAX     X0,0            NULL AC
   000324    000000 6270 00            329         EAX     X7,0            NULL RC
   000325  X 000000 7020 00            330         DBEXC
                                       331  *
                                       332  *  ERRORS DETECTED IN THIS PRIMITIVE
 12:49 09/05/97  FILE=ZIM$DBPR.:ZIC0TSI       IDS-II  PRIMITIVE - FIND NEXT/PRIOR OF SET                 12   BMAP - B00
                                       333  *
   000326                              334  NER1   NULL                    NEXT/PRIOR PTR = 0
   000326    020154 2350 07            335         LDA     RNM,DL
   000327    000000 6200 00            336         EAX     X0,0            NULL AC
   000330    7 00004 2261 13           337         LDX     X6,SCPTR,X3,PR7  GET SC PTR
   000331    7 00006 2271 13           338         LDX     X7,RCPTR,X3,PR7  GET RC PTR
   000332 (0)000345 7100 00            339         TRA     FNR1
                                       340         IFE     E,1,%CK5
   000333                              341  SZE1   NULL                    RECORD SIZE ERROR
   000333    210574 2350 07            342         LDA     RSZER,DL
   000334    7 00511 2221 00           343         LDX     X2,RVO,,PR7
   000335    7 00005 2201 12           344         LDX     X0,ACPTR,X2,PR7  GET AC
   000336    000000 6260 00            345         EAX     X6,0            NULL SC
   000337    000006 7100 04            346         TRA     FNR1,$
                                       347  CK5    MARK
                                       348  *
                                       349  *  ERRORS DETECTED IN SUBORDINATE PRIMITIVES
                                       350  *
   000340                              351  RCER2  NULL                    RC NOT FOUND - INPUT RECORD
   000340                              352  RCER3  NULL                    RC NOT FOUND - OUTPUT RECORD
   000340    000000 6200 00            353         EAX     X0,0            nullify AC pointer
   000341                              354  FPPAE  NULL                    ERROR - FIND PRIOR OF PA SET
   000341                              355  FNPAE  NULL                    ERROR - FIND NEXT IN PA SET
   000341 (0)000345 7100 00            356         TRA     FNR1
                                       357  *
                                       358  *  ERRORS DETECTED IN I/O ROUTINES
                                       359  *
   000342                              360  PGER   NULL                    PAGE ERROR
   000342    000000 6260 00            361         EAX     X6,0            NULL SC
   000343    000000 6270 00            362         EAX     X7,0            NULL RC
   000344 (0)000345 7100 00            363         TRA     FNR1
                                       364  *  COMMON ERROR RETURN
   000345                              365  FNR1   NULL
   000345  X 000000 7020 00            366           DBALT

 12:49 09/05/97  FILE=ZIM$DBPR.:ZIC0TSI       IDS-II  PRIMITIVE - FIND OWNER OF SET                      13   BMAP - B00
                                       367         TTLS    IDS-II  PRIMITIVE - FIND OWNER OF SET
                                       368  *
                                       369  *  FIND OWNER OF SET
                                       370  *
                                       371  *  INPUT :  INPUT REC VAR - DBK OF CURR REC OF SET
                                       372  *                         - ADDRESS OF BUFFER
                                       373  *                         - ADDR OF CURR REC OF SET
                                       374  *                         - REC TYPE OF CURR OF SET
                                       375  *                    PRSC - REQUESTED SET CLASS
                                       376  *
                                       377  *  OUTPUT:  OUTPUT REC VAR- DBK OF OWNER OF SET
                                       378  *                         - ADDRESS OF BUFFER
                                       379  *                         - ADDR OF OWNER OF SET
                                       380  *                         - REC TYPE OF OWNER OF SET
                                       381  *                         - REC SIZE
                                       382  *                         - RC, SC, & RS PTR'S
                                       383  *                         - BURID
                                       384  *
                                       385  *  EXCEPTION RETURN-
                                       386  *    NONE
                                       387  *
   000346                              388  ZIG$DBPFO NULL
   000346  X 000000 7000 00            389         DBSAV                   SAVE RETURN
   000347    000004 000000
                                       390  *  GET RS DEF
   000350    7 00510 2231 00           391         LDX     X3,RVI,,PR7     SET X3 TO REC VAR IN
   000351    7 00520 2261 00           392         LDX     X6,PRSC,,PR7    SET X6 TO SC DEF
   000352    7 00004 1061 13           393         CMPX    X6,SCPTR,X3,PR7  IS THIS SAME SC
   000353 (0)000365 6000 00            394         TZE     GTRSO           YES
   000354    7 00003 2351 13           395         LDA     RTP,X3,PR7      GET REC TYPE
   000355 (0)001562 7010 00            396           ICCAL    ZIG$DBPR2,,RNIS1
   000356 (0)000475 7020 00
   000357    5 00006 2341 00
   000360    777776 6010 04
   000361    7 00510 2231 00           397         LDX     X3,RVI,,PR7
   000362    7 00006 7471 13           398         STX     X7,RCPTR,X3,PR7  SAVE RC PTR
   000363    7 00004 7461 13           399         STX     X6,SCPTR,X3,PR7  SAVE SC PTR
 12:49 09/05/97  FILE=ZIM$DBPR.:ZIC0TSI       IDS-II  PRIMITIVE - FIND OWNER OF SET                      14   BMAP - B00
   000364    7 00004 4451 13           400         SXL     X5,RSPTR,X3,PR7  SAVE RS PTR
   000365                              401  GTRSO  NULL
   000365    7 00004 7251 13           402         LXL     X5,RSPTR,X3,PR7  GET RS PTR
   000366    6 00000 2211 15           403         LDX     X1,DEF,X5,PR6   GET DEF TYPE
   000367    010000 3010 03            404         CANX    X1,.SO,DU       IS IT A SET OWNER RS
   000370 (0)000455 6010 00            405         TNZ     OCUR            YES - CURR IS OWNER
                                       406  *  GET THE OWNER POINTER
   000371    7 00002 4735 13           407         LDP     PR3,RADDR,X3,PR7
   000372    000 1 100 1015 20         408         MRL     (1,,1),(1),,1       * MOVE
   000373    6 00006 0001 15           409         ARG     HPOS,X5,PR6         *  OWNER PTR TO
                                       410         IFE     M9,1,1
   000374    7 00631 0 0 0 0004        411         ADSC9   PTR,0,4,PR7         *   WORK SPACE
                                       412         IFE     M9,0,1
                                       413         ADSC6   PTR,0,6,PR7         *   WORK SPACE
   000375    7 00631 2341 00           414         SZN     PTR,,PR7        IS PTR NULL
   000376 (0)000461 6000 00            415         TZE     OER1            YES
                                       416  *  ADJUST PTR IF SET IS LOCAL
   000377    7 00631 2361 00           417         LDQ     PTR,,PR7        GET PTR
   000400    6 00000 7211 16           418         LXL     X1,DEF,X6,PR6   GET DEF FROM SC
   000401    001000 3010 03            419         CANX    X1,.LG,DU       IS IT A GLOBAL SET
   000402 (0)000405 6010 00            420         TNZ     GSETO           YES
   000403    7 00005 2201 13           421         LDX     X0,ACPTR,X3,PR7  GET AC
   000404    6 00002 0361 10           422         ADLQ    ABAS,X0,PR6     MAKE PTR A GLOBAL DBK
   000405                              423  GSETO  NULL
   000405    7 00511 2221 00           424         LDX     X2,RVO,,PR7         SET X2 TO REC VAR OUT
   000406    7 00000 7561 12           425         STQ     DBKEY,X2,PR7        SAVE DBK OF OWNER
                                       426  *  GET THE RECORD
   000407  X 000000 7010 00            427           ICCAL    ZIQ$DBIOL,,PGER5
   000410 (0)000477 7020 00
   000411    5 00006 2341 00
   000412    777776 6010 04
   000413    7 00511 2221 00           428         LDX     X2,RVO,,PR7
   000414    5 00020 2351 00           429        LDA     GIOAWS,,PR5         GET GLOBAL.PARAM.IO.AWS$
   000415    7 00013 7551 12           430        STA     AWS$,X2,PR7         SAVE IN REC VAR
   000416    7 00002 4535 12           431         STP     PR3,RADDR,X2,PR7    SAVE ADDR OF OWNER
   000417    7 00001 4545 12           432         STP     PR4,BADDR,X2,PR7
   000420    7 00005 7401 12           433         STX     X0,ACPTR,X2,PR7  SAVE AC PTR
 12:49 09/05/97  FILE=ZIM$DBPR.:ZIC0TSI       IDS-II  PRIMITIVE - FIND OWNER OF SET                      15   BMAP - B00
                                       434  *  GET REC TYPE
   000421    000 1 100 1005 00         435         MLR     (1),(1),,1          * MOVE
   000422    3 00000 0 0 0 0004        436         ADSC9   ,,4,PR3             *  REC TYPE, SIZE TO
   000423    7 00632 0 0 0 0004        437         ADSC9   RSZTP,0,4,PR7       *   WORK SPACE
   000424    7 00632 2351 00           438         LDA     RSZTP,,PR7
   000425    000022 7750 00            439         ALR     18              INTO POSITION
   000426    7 00003 7551 12           440         STA     RTP,X2,PR7      SAVE IN REC VAR
   000427    7 00520 2261 00           441         LDX     X6,PRSC,,PR7    GET SC PTR
                                       442  *  GET RS PTR
   000430 (0)001562 7010 00            443           ICCAL    ZIG$DBPR2,,SONF
   000431 (0)000475 7020 00
   000432    5 00006 2341 00
   000433    777776 6010 04
   000434    6 00000 2211 15           444         LDX     X1,DEF,X5,PR6
   000435    010000 3010 03            445         CANX    X1,.SO,DU       IS IT A SO
   000436 (0)000466 6000 00            446         TZE     OPERR           NO - ERROR
   000437    7 00511 2221 00           447         LDX     X2,RVO,,PR7
   000440    7 00006 7471 12           448         STX     X7,RCPTR,X2,PR7  SAVE RC PTR
   000441    7 00004 7461 12           449         STX     X6,SCPTR,X2,PR7  SAVE SC PTR
   000442    7 00004 4451 12           450         SXL     X5,RSPTR,X2,PR7  SAVE RS PTR
                                       451  *  CHECK RECORD SIZE
                                       452         IFE     E,1,%CK5
   000443    6 00003 2211 17           453         LDX     X1,RSIZ,X7,PR6  GET SIZE FROM RC
   000444    6 00000 2351 17           454         LDA     DEF,X7,PR6      GET DEFINITION                           <EHW>
   000445    040000 3750 07            455         ANA     .FVR,DL         IS RECORD VARIABLE SIZE                  <EHW>
   000446 (0)000452 6000 00            456         TZE     *+4             NO                                       <EHW>
   000447    7 00003 1011 12           457         CMPX    X1,RECSZ,X2,PR7  IS MAX SIZ > OR = TO SIZ IN REC          <EHW>
   000450 (0)000471 6020 00            458         TNC     SZE2            NO - ERROR                               <EHW>
   000451 (0)000454 7100 00            459         TRA     *+3                                                      <EHW>
   000452    7 00003 1011 12           460         CMPX    X1,RECSZ,X2,PR7  IS IT EQUAL SIZE FROM REC
   000453    000016 6010 04            461         TNZ     SZE2,$          NO - ERROR
                                       462  CK5    MARK
                                       463  *  RETURN
   000454  X 000000 7020 00            464         DBRET                   NORMAL RETURN
                                       465  *
                                       466  *  CURRENT IS OWNER
                                       467  *
 12:49 09/05/97  FILE=ZIM$DBPR.:ZIC0TSI       IDS-II  PRIMITIVE - FIND OWNER OF SET                      16   BMAP - B00
   000455                              468  OCUR   NULL
   000455    7 00510 2371 00           469         LDAQ    RVI,,PR7        *  REVERSE
   000456    7 00511 7551 00           470         STA     RVO,,PR7        *   IN & OUT
   000457    7 00510 7561 00           471         STQ     RVI,,PR7        *     REC VAR
                                       472  *  RETURN
   000460  X 000000 7020 00            473         DBRET                   NORMAL RETURN
                                       474  *
                                       475  *  ERRORS DETECTED IN THIS PRIMITIVE
                                       476  *
   000461                              477  OER1   NULL                    OWNER PTR = 0
   000461    020154 2350 07            478         LDA     RNM,DL
   000462    000000 6200 00            479         EAX     X0,0            NULL AC
   000463    7 00004 2261 13           480         LDX     X6,SCPTR,X3,PR7  GET SC
   000464    7 00006 2271 13           481         LDX     X7,RCPTR,X3,PR7  GET RC
   000465 (0)000502 7100 00            482         TRA     FOR1
   000466                              483  OPERR  NULL                    RECORD RETRIEVED NOT OWNER
   000466    303270 2350 07            484         LDA     PRE3,DL
   000467    000000 6200 00            485         EAX     X0,0            NULL AC
   000470 (0)000502 7100 00            486         TRA     FOR1
                                       487         IFE     E,1,%CK5
   000471                              488  SZE2   NULL                    RECORD SIZE ERROR
   000471    210574 2350 07            489         LDA     RSZER,DL
   000472    7 00005 2201 12           490         LDX     X0,ACPTR,X2,PR7  GET AC
   000473    000000 6260 00            491         EAX     X6,0            NULL SC
   000474    000006 7100 04            492         TRA     FOR1,$
                                       493  CK5    MARK
                                       494  *
                                       495  *  ERRORS DETECTED IN SUBORDINATE PRIMITIVES
                                       496  *
   000475                              497  RNIS1  NULL                    RECORD IN NOT IN REQUESTED SET
   000475                              498  SONF   NULL                    SO NOT FOUND
   000475    000000 6200 00            499         EAX     X0,0            nullify AC pointer
   000476 (0)000502 7100 00            500         TRA     FOR1
                                       501  *
                                       502  *  ERRORS DETECTED IN I/O ROUTINES
                                       503  *
   000477                              504  PGER5  NULL                    PAGE ERROR - FIND OWNER
 12:49 09/05/97  FILE=ZIM$DBPR.:ZIC0TSI       IDS-II  PRIMITIVE - FIND OWNER OF SET                      17   BMAP - B00
   000477    000000 6260 00            505         EAX     X6,0            NULL SC
   000500    000000 6270 00            506         EAX     X7,0            NULL RC
   000501 (0)000502 7100 00            507         TRA     FOR1
                                       508  *  COMMON ERROR RETURN
   000502                              509  FOR1   NULL
   000502  X 000000 7020 00            510           DBALT

 12:49 09/05/97  FILE=ZIM$DBPR.:ZIC0TSI       IDS-II  PRIMITIVE - FIND NEXT/PRIOR OF CALC SET            18   BMAP - B00
                                       511         TTLS    IDS-II  PRIMITIVE - FIND NEXT/PRIOR OF CALC SET
                                       512  *
                                       513  *  FIND NEXT/PRIOR OF CALC SET
                                       514  *
                                       515  *  INPUT : REC VAR IN - DBK OF CURRENT MEMBER
                                       516  *                     - ADDRESS OF BUFFER
                                       517  *                     - ADDR OF CURRENT MEMBER
                                       518  *                PRRC - RC PTR FOR REC TYPE REQUEST
                                       519  *                         (NEG  IF FOR ANY TYPE)
                                       520  *                         (ZERO IF FOR ANY TYPE IN SUB-SCHEMA)
                                       521  *
                                       522  *  OUTPUT: REC VAR OUT- DBK OF NEXT OF CALC SET
                                       523  *                     - ADDRESS OF BUFFER
                                       524  *                     - ADDR OF NEXT
                                       525  *                     - RECORD TYPE
                                       526  *                     - REC SIZE
                                       527  *
                                       528  *  EXCEPTION RETURN-
                                       529  *    END OF SET - CALC SET HEADER FOUND
                                       530  *
   000503                              531  ZIG$DBPPC NULL                 FIND PRIOR
   000503  X 000000 7000 00            532         DBSAV                   SAVE RETURN
   000504    000004 000000
   000505    7 00630 7501 00           533         STC2    NPIND,,PR7      MARK REQUEST AS PRIOR
   000506 (0)000512 7100 00            534         TRA     NC1             GO GET PTR
   000507                              535  ZIG$DBPNC NULL
   000507  X 000000 7000 00            536         DBSAV
   000510    000004 000000
   000511    7 00630 4501 00           537         STZ     NPIND,,PR7      MARK REQUEST AS NEXT
   000512                              538  NC1    NULL
   000512                              539  PNC    NULL                    ENTRY POINT FROM .DBPFN
   000512                              540  NCLP1  NULL
                                       541  *  GET NEXT/PRIOR POINTER
   000512    7 00510 2231 00           542         LDX     X3,RVI,,PR7     SET X3 TO REC VAR IN
   000513    7 00002 4735 13           543         LDP     PR3,RADDR,X3,PR7  GET ADDR OF REC
   000514    7 00005 2201 13           544         LDX     X0,ACPTR,X3,PR7  GET AC
   000515    7 00630 2341 00           545         SZN     NPIND,,PR7
 12:49 09/05/97  FILE=ZIM$DBPR.:ZIC0TSI       IDS-II  PRIMITIVE - FIND NEXT/PRIOR OF CALC SET            19   BMAP - B00
   000516 (0)000523 6000 00            546         TZE     GNC
   000517    000 0 100 1015 20         547         MRL     (1,,1),(1)      * MOVE
   000520    6 00023 0001 10           548         ARG     CLCP,X0,PR6     *  PRIOR PTR IN REC TO
                                       549         IFE     M9,1,1
   000521    7 00631 0 0 0 0004        550         ADSC9   PTR,0,4,PR7     *   WORK SPACE
                                       551         IFE     M9,0,1
                                       552         ADSC6   PTR,0,6,PR7     *   WORK SPACE
   000522 (0)000526 7100 00            553         TRA     GPC
   000523                              554  GNC    NULL
   000523    000 0 100 1015 20         555         MRL     (1,,1),(1)      * MOVE
   000524    6 00022 0001 10           556         ARG     CLCN,X0,PR6     *  NEXT PTR IN REC TO
                                       557         IFE     M9,1,1
   000525    7 00631 0 0 0 0004        558         ADSC9   PTR,0,4,PR7     *   WORK SPACE
                                       559         IFE     M9,0,1
                                       560         ADSC6   PTR,0,6,PR7     *   WORK SPACE
   000526                              561  GPC    NULL
   000526    7 00631 2361 00           562         LDQ     PTR,,PR7        GET PTR
   000527 (0)000636 6000 00            563         TZE     NCER1           PTR IS NULL - ERROR
   000530    7 00511 2221 00           564         LDX     X2,RVO,,PR7
   000531    7 00000 7561 12           565         STQ     DBKEY,X2,PR7    SAVE DBK
                                       566  *  GET THE REC
   000532  X 000000 7010 00            567           ICCAL    ZIQ$DBIOL,,PGER3
   000533 (0)000647 7020 00
   000534    5 00006 2341 00
   000535    777776 6010 04
   000536    7 00511 2221 00           568         LDX     X2,RVO,,PR7
   000537    5 00020 2351 00           569        LDA     GIOAWS,,PR5         GET GLOBAL.PARAM.IO.AWS$
   000540    7 00013 7551 12           570        STA     AWS$,X2,PR7         SAVE IN REC VAR
   000541    7 00002 4535 12           571         STP     PR3,RADDR,X2,PR7  SAVE REC ADDR
   000542    7 00001 4545 12           572         STP     PR4,BADDR,X2,PR7  SAVE BUF ADDR
   000543    7 00005 7401 12           573         STX     X0,ACPTR,X2,PR7  SAVE AC PTR
   000544    7 00006 4501 12           574         STZ     RCPTR,X2,PR7    ZERO RC PTR
   000545    7 00004 4501 12           575         STZ     SCPTR,X2,PR7    ZERO SC & RS PTRS
                                       576  *  SEE IF REC FOUND IS CALC HEADER RECORD
   000546    000 1 100 1005 00         577         MLR     (1),(1),,1          * MOVE
   000547    3 00000 0 0 0 0004        578         ADSC9   ,,4,PR3             *  REC TYPE, SIZE TO
   000550    7 00632 0 0 0 0004        579         ADSC9   RSZTP,0,4,PR7       *   WORK SPACE
 12:49 09/05/97  FILE=ZIM$DBPR.:ZIC0TSI       IDS-II  PRIMITIVE - FIND NEXT/PRIOR OF CALC SET            20   BMAP - B00
   000551    7 00632 2351 00           580         LDA     RSZTP,,PR7
   000552    000022 7750 00            581         ALR     18              GET TYPE INTO POSITION
   000553    7 00003 7551 12           582         STA     RTP,X2,PR7      SAVE REC TYPE
   000554    777777 3750 07            583         ANA     -1,DL           ISOLATE TYPE
   000555    007640 1150 07            584         CMPA    CHRTP,DL        IS IT A CALC HEADER REC
   000556 (0)000631 6000 00            585         TZE     CHFND
                                       586  *  SEE IF REC FOUND IS TYPE REQUESTED
   000557    7 00517 2271 00           587         LDX     X7,PRRC,,PR7    GET TYPE REQ
   000560 (0)000630 6040 00            588         TMI     RFND1           ANY TYPE - RETURN
                                       589  *  SEE IF RECORD IS LOGICALLY DELETED                                   <EHW>
   000561    100000 3150 07            590         CANA    .B2,DL          IS RECORD LOGICALLY DELETED              <EHW>
   000562 (0)000570 6010 00            591         TNZ     NC2             YES - GET NEXT                           <EHW>
   000563    7 00517 2271 00           592         LDX     X7,PRRC,,PR7    GET TYPE REQUEST                         <EHW>
   000564 (0)000574 6000 00            593         TZE     NREQ1           NO REQUEST
   000565    7 00057 2361 00           594         LDQ     CTMASK,,PR7     LOAD MASK
   000566    6 00003 2111 17           595         CMK     RTYP,X7,PR6     IS REC THE TYPE REQUESTED
   000567 (0)000616 6000 00            596         TZE     RFND            YES
                                       597  *  MAKE REC RETRIEVED INPUT & FIND NEXT
   000570                              598  NC2    NULL
   000570    7 00510 2371 00           599         LDAQ    RVI,,PR7            * REVERSE
   000571    7 00511 7551 00           600         STA     RVO,,PR7            *  INPUT REC VAR AND
   000572    7 00510 7561 00           601         STQ     RVI,,PR7            *   OUTPUT REC VAR
   000573 (0)000512 7100 00            602         TRA     NCLP1           GO GET NEXT
                                       603  *  SEE IF REC RETRIEVED IS IN SUB-SCHEMA
   000574                              604  NREQ1  NULL
   000574    6 00004 2261 00           605         LDX     X6,OAOFST+CLCSC,,PR6  GET SC FOR CALC SET
   000575 (0)001562 7010 00            606           ICCAL    ZIG$DBPR2,NC2,NOALT  Get RC pointer
   000576    000000 0020 00
   000577    5 00006 2341 00
   000600    000003 6000 04
   000601    5 00006 4501 00
   000602 (0)000570 7020 00
   000603    6 00000 7211 17           607         LXL     X1,DEF,X7,PR6
   000604    100000 3010 03            608         CANX    X1,.SR,DU       IS REC IN SUB-SCHEMA
   000605 (0)000570 6010 00            609         TNZ     NC2             NO
   000606    7 00511 2221 00           610         LDX     X2,RVO,,PR7     restore 'Rec Var Out' offset into X2
   000607    7 00005 2201 12           611         LDX     X0,ACPTR,X2,PR7         restore AC
 12:49 09/05/97  FILE=ZIM$DBPR.:ZIC0TSI       IDS-II  PRIMITIVE - FIND NEXT/PRIOR OF CALC SET            21   BMAP - B00
   000610 (0)001600 7010 00            612           ICCAL    ZIQ$DBPR3,NC2,NOALT     FIND RA
   000611    000000 0020 00
   000612    5 00006 2341 00
   000613    000003 6000 04
   000614    5 00006 4501 00
   000615 (0)000570 7020 00
                                       613  *  RETURN
   000616                              614  RFND   NULL
   000616    7 00006 7471 12           615         STX     X7,RCPTR,X2,PR7  SAVE RC PTR IN REC VAR
                                       616  *              CHECK RECORD SIZE
                                       617         IFE     E,1,3
   000617    6 00003 2211 17           618         LDX     X1,RSIZ,X7,PR6  GET SIZE FROM RC
   000620    6 00000 2351 17           619         LDA     DEF,X7,PR6      GET DEFINITION                           <EHW>
   000621    040000 3750 07            620         ANA     .FVR,DL         IS RECORD VARIABLE SIZE                  <EHW>
   000622 (0)000626 6000 00            621         TZE     *+4             NO                                       <EHW>
   000623    7 00003 1011 12           622         CMPX    X1,RECSZ,X2,PR7  IS MAX SIZ > OR = TO SIZ IN REC          <EHW>
   000624 (0)000643 6020 00            623         TNC     SZE3            NO - ERROR                               <EHW>
   000625 (0)000630 7100 00            624         TRA     *+3                                                      <EHW>
   000626    7 00003 1011 12           625         CMPX    X1,RECSZ,X2,PR7  IS IT EQUAL SIZE FROM REC
   000627    000014 6010 04            626         TNZ     SZE3,$          NO - ERROR
   000630                              627  RFND1  NULL
   000630  X 000000 7020 00            628         DBRET                   NORMAL RETURN
                                       629  *
                                       630  *  EXCEPTIONS
                                       631  *
   000631                              632  CHFND  NULL                    CALC HEADER FOUND
   000631    004064 2350 07            633         LDA     EOSR,DL
   000632    000000 6200 00            634         EAX     X0,0            NULL AC
   000633    6 00004 2261 00           635         LDX     X6,OAOFST+CLCSC,,PR6  GET SC PTR
   000634    000000 6270 00            636         EAX     X7,0            NULL RC
   000635  X 000000 7020 00            637         DBEXC                   EXCEPT. RETURN
                                       638  *
                                       639  *  ERRORS DETECTED IN THIS PRIMITIVE
                                       640  *
   000636                              641  NCER1  NULL                    NEXT PRIOR PTR = 0
   000636    020154 2350 07            642         LDA     RNM,DL
   000637    000000 6200 00            643         EAX     X0,0            NULL AC
 12:49 09/05/97  FILE=ZIM$DBPR.:ZIC0TSI       IDS-II  PRIMITIVE - FIND NEXT/PRIOR OF CALC SET            22   BMAP - B00
   000640    6 00004 2261 00           644         LDX     X6,OAOFST+CLCSC,,PR6  GET SC
   000641    7 00006 2271 13           645         LDX     X7,RCPTR,X3,PR7  GET RC
   000642 (0)000652 7100 00            646         TRA     NCR1
                                       647         IFE     E,1,%CK5
   000643                              648  SZE3   NULL                    RECORD SIZE ERROR
   000643    210574 2350 07            649         LDA     RSZER,DL
   000644    7 00005 2201 12           650         LDX     X0,ACPTR,X2,PR7  GET AC
   000645    000000 6260 00            651         EAX     X6,0            NULL SC
   000646    000004 7100 04            652         TRA     NCR1,$
                                       653  CK5    MARK
                                       654  *
                                       655  *  ERRORS DETECTED IN SUBORDINATE PRIMITIVES
                                       656  *
                                       657  *
                                       658  *  ERRORS DETECTED IN I/O ROUTINES
                                       659  *
   000647                              660  PGER3  NULL                    PAGE ERROR - GET NEXT CALC
   000647    000000 6260 00            661         EAX     X6,0            NULL SC
   000650    000000 6270 00            662         EAX     X7,0            NULL RC
   000651 (0)000652 7100 00            663         TRA     NCR1
                                       664  *  COMMON ERROR RETURN
   000652                              665  NCR1   NULL
   000652  X 000000 7020 00            666           DBALT

 12:49 09/05/97  FILE=ZIM$DBPR.:ZIC0TSI       IDS-II PRIMITIVE - FIND NEXT/PRIOR OF AREA                 23   BMAP - B00
                                       667         TTLS    IDS-II PRIMITIVE - FIND NEXT/PRIOR OF AREA
                                       668  *
                                       669  *  FIND NEXT/PRIOR OF AREA
                                       670  *
                                       671  *  INPUT -  INPUT REC VAR - DBK OF CURRENT RECORD OF AREA
                                       672  *                         - AC PTR FOR AREA
                                       673  *
                                       674  *                    PRRC - RC OF REQUESTED REC TYPE
                                       675  *                             (ZERO IF ANY TYPE IN SUB-SCHEMA
                                       676  *
                                       677  *  OUTPUT-  OUTPUT REC VAR- DBK OF NEXT/PRIOR OF AREA
                                       678  *                         - ADDRESS OF BUFFER
                                       679  *                         - ADDRESS OF RECORD
                                       680  *                         - REC TYPE OF NEXT/PRIOR OF AREA
                                       681  *                         - REC SIZE
                                       682  *                         - RC PTR
                                       683  *                         - AC PTR
                                       684  *                         - BURID
                                       685  *
                                       686  *  EXCEPTION RETURN-
                                       687  *    END OF AREA
                                       688  *
                                       689  *  NEXT - .DBPNA
                                       690  *  PRIOR- .DBPPA
                                       691  *  NEXT DELETED - .DBPND                                                <EHW>
                                       692  *
                                       693  *  PRIOR ENTRY POINT
   000653                              694  ZIG$DBPPA NULL
   000653  X 000000 7000 00            695         DBSAV                   SAVE RETURN
   000654    000004 000000
   000655    7 00630 7501 00           696         STC2    NPIND,,PR7      MARK REQUEST AS PRIOR
   000656    7 00510 2231 00           697           LDX      X3,RVI,,PR7          Get record variable
   000657    7 00005 2201 13           698           LDX      X0,ACPTR,X3,PR7      Area.
   000660    7 00517 2271 00           699           LDX      X7,PRRC,,PR7         Record specified
   000661 (0)000747 6000 00            700           TZE      NORC                 No.  Use full range.
   000662 (0)001600 7010 00            701           ICCAL    ZIQ$DBPR3,,NORA      Find RA description.
   000663 (0)001073 7020 00
 12:49 09/05/97  FILE=ZIM$DBPR.:ZIC0TSI       IDS-II PRIMITIVE - FIND NEXT/PRIOR OF AREA                 24   BMAP - B00
   000664    5 00006 2341 00
   000665    777776 6010 04
   000666    6 00003 2351 14           702           LDA      PGRNG,X4,PR6         Low always from RA.
                                       703  *  THE NEXT 5 INST LOCATE THE RECORD STORED OUT SIDE OF THE RANGE
   000667    6 00004 7271 10           704           LXL  X7,BPL,X0,PR6       GET BITS/LINE NO.
   000670    000001 1350 07            705           SBLA 1,DL
   000671    000000 7710 17            706           ARL  0,X7                SHIFT OUT LINE NO.
   000672    000000 7350 17            707           ALS  0,X7
   000673    000001 0350 07            708           ADLA 1,DL                $A = 1ST DBK IN THE PAGE HAVING LOW
   000674    6 00000 2271 14           709           LDX      X7,DEF,X4,PR6        Get DEF word
   000675    000002 3070 03            710           CANX     X7,FRANGE,DU         Full range?
   000676 (0)000702 6000 00            711           TZE      RARNG1               No. Use RA value.
   000677    6 00004 7271 14           712           LXL      X7,RAWSOF,X4,PR6     Get AWS offset
   000700    7 00003 2361 17           713           LDQ      HIGHDBK,X7,PR7       Possible template for high.
   000701    000002 7100 04            714           TRA      2,IC
   000702    6 00004 2361 14           715  RARNG1   LDQ     PGRNG+1,X4,PR6        High from RA.
   000703    7 00662 7571 00           716           STAQ     RNG1,,PR7            Remember it.
   000704    000001 0360 07            717           ADLQ     1,DL                 Add one to high for range.
   000705    7 00000 1161 13           718           CMPQ     DBKEY,X3,PR7         Is DBKEY above high.
   000706 (0)000753 6050 00            719           TPL      RACOM                No.  Its possible.
   000707    7 00000 7561 13           720           STQ      DBKEY,X3,PR7         Use this as first try.
   000710 (0)000753 7100 00            721           TRA      RACOM
                                       722  *  NEXT ENTRY POINT
   000711                              723  ZIG$DBPNA NULL
   000711  X 000000 7000 00            724         DBSAV                   SAVE RETURN
   000712    000004 000000
   000713    7 00630 4501 00           725         STZ     NPIND,,PR7      MARK REQUEST AS NEXT
   000714    7 00510 2231 00           726           LDX      X3,RVI,,PR7          Get record variable
   000715    7 00005 2201 13           727           LDX      X0,ACPTR,X3,PR7      Area.
   000716    7 00517 2271 00           728           LDX      X7,PRRC,,PR7         Record specified
   000717 (0)000747 6000 00            729           TZE      NORC                 No. Use full range.
   000720 (0)001600 7010 00            730           ICCAL    ZIQ$DBPR3,,NORA      Find RA description.
   000721 (0)001073 7020 00
   000722    5 00006 2341 00
   000723    777776 6010 04
   000724    6 00003 2351 14           731           LDA      PGRNG,X4,PR6         Low always from RA.
                                       732  *  THE NEXT 5 INST LOCATE THE RECORD STORED OUT SIDE OF THE RANGE
 12:49 09/05/97  FILE=ZIM$DBPR.:ZIC0TSI       IDS-II PRIMITIVE - FIND NEXT/PRIOR OF AREA                 25   BMAP - B00
   000725    6 00004 7271 10           733           LXL  X7,BPL,X0,PR6       GET BITS/LINE NO.
   000726    000001 1350 07            734           SBLA 1,DL
   000727    000000 7710 17            735           ARL  0,X7                SHIFT OUT LINE NO.
   000730    000000 7350 17            736           ALS  0,X7
   000731    000001 0350 07            737           ADLA 1,DL                $A = 1ST DBK IN THE PAGE HAVING LOW
   000732    6 00000 2271 14           738           LDX      X7,DEF,X4,PR6        Get DEF word
   000733    000002 3070 03            739           CANX     X7,FRANGE,DU         Full range?
   000734 (0)000740 6000 00            740           TZE      RARNG2               No. Use RA value.
   000735    6 00004 7271 14           741           LXL      X7,RAWSOF,X4,PR6     Get AWS address
   000736    7 00003 2361 17           742           LDQ      HIGHDBK,X7,PR7       Possible template for high.
   000737    000002 7100 04            743           TRA      2,IC
   000740    6 00004 2361 14           744  RARNG2   LDQ     PGRNG+1,X4,PR6        High from RA.
   000741    7 00662 7571 00           745           STAQ     RNG1,,PR7            Remember it.
   000742    000001 1350 07            746           SBLA     1,DL                 Subtrace one from low of range
   000743    7 00000 1151 13           747           CMPA     DBKEY,X3,PR7         Is DBKEY below low.
   000744 (0)000753 6044 00            748           TMOZ     RACOM                No.  Its possible.
   000745    7 00000 7551 13           749           STA      DBKEY,X3,PR7         Use this as first try.
   000746 (0)000753 7100 00            750           TRA      RACOM
   000747                              751  NORC     NULL
   000747    6 00010 2351 10           752           LDA      DBLIM,X0,PR6         Get low of area
   000750    6 00003 2211 10           753           LDX      X1,WSOF,X0,PR6       Work space offset
   000751    7 00003 2361 11           754           LDQ      HIGHDBK,X1,PR7       Get high of area
   000752    7 00662 7571 00           755           STAQ     RNG1,,PR7            Remember it.
   000753                              756  RACOM  NULL
   000753                              757  RAL1   NULL
   000753    7 00510 2231 00           758         LDX     X3,RVI,,PR7     SET X3 TO REC VAR IN
   000754    7 00000 2361 13           759         LDQ     DBKEY,X3,PR7    GET DBK OF CURRENT
   000755    7 00005 2201 13           760         LDX     X0,ACPTR,X3,PR7  GET AC
   000756    7 00630 2341 00           761         SZN     NPIND,,PR7      IS THIS PRIOR REQ.
   000757 (0)000771 6044 00            762         TMOZ    GNA             NO                                       <EHW>
                                       763  *  FIND PRIOR
   000760    7 00662 1161 00           764           CMPQ     RNG1,,PR7            DBKEY <= low of range?
   000761 (0)001055 6044 00            765           TMOZ     LELOW                Yes.
   000762  X 000000 7010 00            766         ICCAL   ZIQ$DBIOP,EOAP,PRAER1 GET PRIOR
   000763 (0)001073 7020 00
   000764    5 00006 2341 00
   000765    000003 6000 04
 12:49 09/05/97  FILE=ZIM$DBPR.:ZIC0TSI       IDS-II PRIMITIVE - FIND NEXT/PRIOR OF AREA                 26   BMAP - B00
   000766    5 00006 4501 00
   000767 (0)001055 7020 00
   000770 (0)001001 7100 00            767         TRA     GPA
   000771                              768  GNA    NULL
                                       769  *  FIND NEXT
   000771    7 00663 1161 00           770           CMPQ     RNG1+1,,PR7          DBKEY >= high of range?
   000772 (0)001055 6050 00            771           TPL      GEHIGH               Yes.
   000773  X 000000 7010 00            772         ICCAL   ZIQ$DBION,EOAN,NAER1 GET NEXT
   000774 (0)001073 7020 00
   000775    5 00006 2341 00
   000776    000003 6000 04
   000777    5 00006 4501 00
   001000 (0)001055 7020 00
                                       773  *  GOT A RECORD
   001001                              774  GPA    NULL
   001001    7 00511 2221 00           775         LDX     X2,RVO,,PR7     SET X2 TO REC VAR OUT
   001002    7 00000 7561 12           776         STQ     DBKEY,X2,PR7    SAVE DBK      OF N/P OF AREA
   001003    5 00020 2351 00           777        LDA     GIOAWS,,PR5         GET GLOBAL.PARAM.IO.AWS$
   001004    7 00013 7551 12           778        STA     AWS$,X2,PR7         SAVE IN REC VAR
   001005    7 00002 4535 12           779         STP     PR3,RADDR,X2,PR7  SAVE REC ADDR OF N/P OF AREA
   001006    7 00001 4545 12           780         STP     PR4,BADDR,X2,PR7  SAVE BUF ADDR OF N/P OF AREA
   001007    7 00005 7401 12           781         STX     X0,ACPTR,X2,PR7  SAVE AC PTR
                                       782  *  GET REC TYPE FROM BUF
   001010    000 1 100 1005 00         783         MLR     (1),(1),,1      * MOVE
   001011    3 00000 0 0 0 0004        784         ADSC9   ,,4,PR3         * REC TYPE SIZE TO
   001012    7 00632 0 0 0 0004        785         ADSC9   RSZTP,0,4,PR7   *  WORK SPACE
   001013    7 00632 2351 00           786         LDA     RSZTP,,PR7
   001014    000022 7750 00            787         ALR     18              GET TYPE INTO POSITION
   001015    7 00003 7551 12           788         STA     RTP,X2,PR7      PUT IN REC VAR
   001016    7 00004 4501 12           789         STZ     SCPTR,X2,PR7    ZERO SC & RS PTRS
   001017    7 00517 2271 00           790         LDX     X7,PRRC,,PR7    ANY REQUEST
   001020 (0)001030 6000 00            791         TZE     NREQ            NO
   001021    7 00057 2361 00           792         LDQ     CTMASK,,PR7     LOAD COMPL. OF TYPE MASK
   001022    6 00003 2111 17           793         CMK     RTYP,X7,PR6     IS REC FND TYPE REQUESTED
   001023 (0)001041 6000 00            794         TZE     NAF             YES
                                       795  *  MAKE REC RETRIEVED INPUT & GET NEXT
   001024                              796  RA2    NULL
 12:49 09/05/97  FILE=ZIM$DBPR.:ZIC0TSI       IDS-II PRIMITIVE - FIND NEXT/PRIOR OF AREA                 27   BMAP - B00
   001024    7 00510 2371 00           797         LDAQ    RVI,,PR7        GET IN & OUT
   001025    7 00511 7551 00           798         STA     RVO,,PR7        MAKE IN OUT
   001026    7 00510 7561 00           799         STQ     RVI,,PR7        MAKE OUT IN
   001027 (0)000753 7100 00            800         TRA     RAL1            GO GET NEXT
                                       801  *  FIND RC OF REC FOUND
   001030                              802  NREQ   NULL
   001030 (0)001544 7010 00            803           ICCAL    ZIQ$DBPR1,RA2,NOALT
   001031    000000 0020 00
   001032    5 00006 2341 00
   001033    000003 6000 04
   001034    5 00006 4501 00
   001035 (0)001024 7020 00
                                       804  *  SEE IF REC FOUND IS IN SUB-SCHEMA
   001036    6 00000 7211 17           805         LXL     X1,DEF,X7,PR6   GET SCHEMA INDICATOR FROM RC
   001037    100000 3010 03            806         CANX    X1,.SR,DU       IS IT A SCHEMA REC
   001040 (0)001024 6010 00            807         TNZ     RA2             YES - GET NEXT
                                       808  *  REC FOUND
   001041                              809  NAF    NULL
   001041    7 00511 2221 00           810         LDX     X2,RVO,,PR7
   001042    7 00006 7471 12           811         STX     X7,RCPTR,X2,PR7  PUT RC PTR IN REC VAR
                                       812  *  CHECK RECORD SIZE
                                       813         IFE     E,1,%CK5
   001043    6 00003 2211 17           814         LDX     X1,RSIZ,X7,PR6  GET REC SIZE FROM RC
   001044    6 00000 2351 17           815         LDA     DEF,X7,PR6      GET DEFINITION                           <EHW>
   001045    040000 3750 07            816         ANA     .FVR,DL         IS RECORD VARIABLE SIZE                  <EHW>
   001046 (0)001052 6000 00            817         TZE     *+4             NO                                       <EHW>
   001047    7 00003 1011 12           818         CMPX    X1,RECSZ,X2,PR7  IS MAX SIZ > OR = TO SIZ IN REC          <EHW>
   001050 (0)001070 6020 00            819         TNC     SZE7            NO - ERROR                               <EHW>
   001051 (0)001054 7100 00            820         TRA     *+3                                                      <EHW>
   001052    7 00003 1011 12           821         CMPX    X1,RECSZ,X2,PR7  IS IT EQUAL SIZE FROM REC
   001053    000015 6010 04            822         TNZ     SZE7,$          NO - ERROR
                                       823  CK5    MARK
                                       824  *  RETURN
   001054  X 000000 7020 00            825         DBRET                   NORMAL RETURN
                                       826  *
                                       827  *  EXCEPTIONS
                                       828  *
 12:49 09/05/97  FILE=ZIM$DBPR.:ZIC0TSI       IDS-II PRIMITIVE - FIND NEXT/PRIOR OF AREA                 28   BMAP - B00
   001055                              829  EOAP   NULL                    END OF AREA - PRIOR
   001055                              830  EOAN   NULL                    END OF AREA - NEXT
   001055                              831  LELOW    NULL                       DBKEY <= LOW OF RANGE
   001055                              832  GEHIGH   NULL                       DBKEY >= HIGH OF RANGE
   001055    7 00510 2231 00           833         LDX     X3,RVI,,PR7         X3 <- OFFSET TO RECORD VBL INPUT.
   001056    7 00005 2201 13           834         LDX     X0,ACPTR,X3,PR7     X0 <- OFFSET TO AC.
   001057    6 00003 2211 10           835         LDX     X1,WSOF,X0,PR6      X1 <- OFFSET TO WORKSPACE.
   001060    7 00006 2271 11           836         LDX     X7,DDCB,X1,PR7      IF DCB ASSOC TO AREA = 0 THEN
   001061 (0)001064 6000 00            837         TZE     NOACER                   ERR MSG <- LOCKED RESOURCE.
   001062    004064 2350 07            838         LDA     EOSR,DL             ELSE
   001063 (0)001065 7100 00            839         TRA     ACERCM                   ERR MSG <- END SET OR AREA.
   001064                              840  NOACER NULL
   001064    257764 2350 07            841         LDA     LR,DL
   001065                              842  ACERCM NULL                        END IF.
   001065    000000 6260 00            843         EAX     X6,0            NULL SC
   001066    000000 6270 00            844         EAX     X7,0            NULL RC
   001067  X 000000 7020 00            845         DBEXC
                                       846  *
                                       847  *  ERRORS DETECTED IN THIS PRIMITIVE
                                       848  *
                                       849         IFE     E,1,%CK5
   001070                              850  SZE7   NULL                    RECORD SIZE ERROR
   001070    210574 2350 07            851         LDA     RSZER,DL
   001071    000000 6260 00            852         EAX     X6,0            NULL SC
   001072    000004 7100 04            853         TRA     NAR1,$
                                       854  CK5    MARK
                                       855  *
                                       856  *  ERRORS DETECTED IN SUBORDINATE PRIMITIVES
                                       857  *
                                       858  *
                                       859  *  ERRORS DETECTED IN I/O ROUTINES
                                       860  *
   001073                              861  PRAER1 NULL                    FIND PRIOR ERROR
   001073                              862  NAER1  NULL                    FIND NEXT ERROR
   001073                              863  NORA     NULL                          Record not in of this area.
   001073    000000 6260 00            864         EAX     X6,0            NULL SC
   001074    000000 6270 00            865         EAX     X7,0            NULL RC
 12:49 09/05/97  FILE=ZIM$DBPR.:ZIC0TSI       IDS-II PRIMITIVE - FIND NEXT/PRIOR OF AREA                 29   BMAP - B00
   001075    000001 7100 04            866         TRA     NAR1,$
                                       867  *  COMMON ERROR RETURN
   001076                              868  NAR1   NULL
   001076  X 000000 7020 00            869           DBALT

 12:49 09/05/97  FILE=ZIM$DBPR.:ZIC0TSI       IDS-II  PRIMITIVE - FIND DIRECT                            30   BMAP - B00
                                       870         TTLS    IDS-II  PRIMITIVE - FIND DIRECT
                                       871  *
                                       872  *  PRIMITIVE - FIND DIRECT
                                       873  *
                                       874  *  INPUT :  INPUT REC VAR - DBK OF REC REQUESTED
                                       875  *
                                       876  *  OUTPUT-                - ADDRESS OF BUFFER
                                       877  *                         - ADDRESS OF RECORD
                                       878  *                         - REC TYPE
                                       879  *                         - REC SIZE
                                       880  *                         - BURID
                                       881  *
                                       882  *  EXCEPTION RETURN:
                                       883  *    LINE NOT PRESENT ON PAGE
                                       884  *
   001077                              885  ZIG$DBPFD NULL
   001077  X 000000 7000 00            886         DBSAV
   001100    000004 000000
   001101    7 00510 2231 00           887         LDX     X3,RVI,,PR7     SET X3 TO REC VAR IN
   001102    7 00000 2361 13           888         LDQ     DBKEY,X3,PR7    GET DATA BASE KEY
   001103  X 000000 7010 00            889        ICCAL   ZIQ$DBIOL,LNP,FDER  FIND THE RECORD
   001104 (0)001134 7020 00
   001105    5 00006 2341 00
   001106    000003 6000 04
   001107    5 00006 4501 00
   001110 (0)001130 7020 00
   001111    7 00510 2221 00           890         LDX     X2,RVI,,PR7     SET X2 TO REC VAR IN
   001112    5 00020 2351 00           891        LDA     GIOAWS,,PR5         GET GLOBAL.PARAM.IO.AWS$
   001113    7 00013 7551 12           892        STA     AWS$,X2,PR7         SAVE IN REC VAR
   001114    7 00002 4535 12           893         STP     PR3,RADDR,X2,PR7  SAVE ADDR OF REC
   001115    7 00001 4545 12           894         STP     PR4,BADDR,X2,PR7  SAVE ADDR OF BUFFER
   001116    7 00005 7401 12           895         STX     X0,ACPTR,X2,PR7  SAVE AC
   001117    7 00006 4501 12           896         STZ     RCPTR,X2,PR7    ZERO RC PTR
   001120    7 00004 4501 12           897         STZ     SCPTR,X2,PR7    ZERO SC & RS PTRS
                                       898  *  GET RECORD TYPE
   001121    000 1 100 1005 00         899         MLR     (1),(1),,1          * MOVE
   001122    3 00000 0 0 0 0004        900         ADSC9   ,,4,PR3             *  REC TYPE, SIZE TO
 12:49 09/05/97  FILE=ZIM$DBPR.:ZIC0TSI       IDS-II  PRIMITIVE - FIND DIRECT                            31   BMAP - B00
   001123    7 00632 0 0 0 0004        901         ADSC9   RSZTP,0,4,PR7       *   WORK SPACE
   001124    7 00632 2351 00           902         LDA     RSZTP,,PR7      GET TYPE
   001125    000022 7750 00            903         ALR     18              INTO POSITION
   001126    7 00003 7551 12           904         STA     RTP,X2,PR7      SAVE IN REC VAR
                                       905  *  NORMAL RETURN
   001127                              906  FDRET  NULL
   001127  X 000000 7020 00            907         DBRET                   NORMAL RETURN
                                       908  *
                                       909  *  EXCEPTIONS
                                       910  *
   001130                              911  LNP    NULL                    LINE NOT PRESENT
   001130    015674 2350 07            912           LDA      RDLT,DL           RECORD DELETED
   001131    000000 6260 00            913         EAX     X6,0            NULL SC
   001132    000000 6270 00            914         EAX     X7,0            NULL RC
   001133  X 000000 7020 00            915         DBEXC   EXCEPT. RETURN
                                       916  *
                                       917  *  ERRORS DETECTED IN THIS PRIMITIVE
                                       918  *
                                       919  *
                                       920  *  ERRORS DETECTED IN SUBORDINATE PRIMITIVES
                                       921  *
                                       922  *
                                       923  *  ERRORS DETECTED IN I/O ROUTINES
                                       924  *
   001134                              925  FDER   NULL                    ERROR
   001134                              926  FACE1  NULL                    ERROR IN FINDING AC PTR
   001134    000000 6260 00            927         EAX     X6,0            NULL SC
   001135    000000 6270 00            928         EAX     X7,0            NULL RC
   001136 (0)001137 7100 00            929         TRA     FDCER
   001137                              930  CUCER  NULL                    ERROR CONVERTING UFAS STATUS CODE
   001137                              931  ICER5  NULL                    ERROR INCREMENTING READ & WRITE CTRS
                                       932  *  COMMON ERROR RETURN
   001137                              933  FDCER  NULL
   001137  X 000000 7020 00            934           DBALT

 12:49 09/05/97  FILE=ZIM$DBPR.:ZIC0TSI       MOVE CALC FIELDS FROM PAGE BUF TO TEMP BUF                 32   BMAP - B00
                                       935         TTLS    MOVE CALC FIELDS FROM PAGE BUF TO TEMP BUF               <EHW>
                                       936  *                                                                       <EHW>
                                       937  *  MOVE CALC FIELDS FROM PAGE BUF TO TEP REC BUF                        <EHW>
                                       938  *                                                                       <EHW>
                                       939  *  INPUT - TEMP REC VAR - ADDR OF REC IN BUF                            <EHW>
                                       940  *                  PRSS - SS PTR FOR KEYS TO MOVE                       <EHW>
                                       941  *                                                                       <EW>
                                       942  *   EXCEPTION RETURN:                                                   <EHW>
                                       943  *        NONE                                                           <EHW>
                                       944  *                                                                       <EHW>
   001140                              945  ZIG$DBPMC NULL                                                          <EHW>
   001140  X 000000 7000 00            946         DBSAV                                                            <EHW>
   001141    000004 000000
   001142    7 00516 2241 00           947         LDX     X4,PRSS,,PR7    GET SS PTR                               <EHW>
   001143    7 00642 7441 00           948         STX     X4,PCD,,PR7                                              <EHW>
   001144                              949  MCL1   NULL                                                             <EHW>
   001144    7 00642 2201 00           950         LDX     X0,PCD,,PR7     GET CURR CD                              <EHW>
   001145    6 00001 2201 10           951         LDX     X0,RSCDN,X0,PR6  GET NEXT CD                              <EHW>
   001146 (0)001157 6000 00            952         TZE     LMC1            NO - DONE                                <EHW>
   001147    7 00642 7401 00           953         STX     X0,PCD,,PR7     MAKE CURRENT                             <EHW>
   001150    6 00002 2241 10           954         LDX     X4,CDSH,X0,PR6  GET FR FOR THIS CD                       <EHW>
   001151    7 00521 7441 00           955         STX     X4,PRFR,,PR7    PUT IN PRIM. REQ.                        <EHW>
   001152 (0)001161 7010 00            956         DBCAL   ZIG$DBPMA,,MCER1 MOVE FIELD                              <EHW>
   001153 (0)001160 7020 00
   001154    5 00006 2341 00
   001155    777776 6010 04
   001156 (0)001144 7100 00            957         TRA     MCL1            GO GET NEXT                              <EHW>
                                       958  *  LAST FIELD MOVED - DONE                                              <EHW>
   001157                              959  LMC1   NULL                                                             <EHW>
   001157  X 000000 7020 00            960         DBRET                   NORMAL RETURN                            <EHW>
   001160                              961  MCER1  NULL                                                             <EHW>
   001160  X 000000 7020 00            962           DBALT

 12:49 09/05/97  FILE=ZIM$DBPR.:ZIC0TSI       MOVE A FIELD FROM PAGE BUF TO TEMP REC BUF                 33   BMAP - B00
                                       963         TTLS    MOVE A FIELD FROM PAGE BUF TO TEMP REC BUF
                                       964  *
                                       965  *  MOVE A FIELD FROM PAGE BUF TO TEMP REC BUF
                                       966  *
                                       967  *  INPUT - TEMP REC VAR  - ADDR OF REC IN BUF
                                       968  *                  PRFR  - FR PTR FOR FIELD TO MOVE
                                       969  *
                                       970  *  EXCEPTION RETURN -
                                       971  *    NONE
                                       972  *
   001161                              973  ZIG$DBPMA NULL
   001161  X 000000 7000 00            974         DBSAV
   001162    000004 000000
   001163    7 00521 2241 00           975         LDX     X4,PRFR,,PR7    GET FR
   001164    7 00512 2211 00           976         LDX     X1,RVT,,PR7
   001165    7 00002 4735 11           977         LDP     PR3,RADDR,X1,PR7  GET ADDR OF REC IN PAGE BUF
   001166    7 00004 4745 00           978         LDP     PR4,TBUF,,PR7   GET ADDR OF TEMP BUF
   001167    6 00000 7211 14           979         LXL     X1,DEF,X4,PR6   GET COMPARE CODE
   001170    010000 3010 03            980         CANX    X1,.FVF,DU      IS IT A VARIABLE LENGTH FIELD            <EHW>
   001171 (0)001206 6010 00            981         TNZ     VRFLD           YES                                      <EHW>
                                       982  *  BUILD DESCR. FOR FIELD IN TEMP REC BUF
   001172    6 00001 2351 14           983         LDA     ROFST,X4,PR6    GET REC DESC                             <EHW>
   001173    160000 3610 03            984         ANX     X1,.COMC,DU     ISOLATE
   001174    020000 1010 03            985         CMPX    X1,=O020000,DU  IS DESCR. NUMERIC
   001175 (0)001177 6010 00            986         TNZ     *+2             NO
   001176 (1)000000 3750 00            987         ANA     =O777777740077  YES - MAKE IT ALPHA
   001177    7 00657 7551 00           988         STA     TFLD2,,PR7      SAVE DESC IN TEMP FIELD                  <EHW>
   001200    100000 0350 03            989         ADLA    =O100000,DU     CHANGE PR3 TO PR4 MOD                    <EHW>
   001201    7 00640 7551 00           990         STA     TFLD,,PR7       SAVE DESCR. IN TEMP. FLD DESCR.
                                       991  *  MOVE THE FIELD
   001202    000 0 120 1005 20         992         MLR     (1,,1),(1,,1)       * MOVE
   001203    7 00657 0001 00           993         ARG     TFLD2,,PR7          *  FIELD IN PAGE BUF TO              <EHW>
   001204    7 00640 0001 00           994         ARG     TFLD,,PR7           REC BUF
   001205 (0)001232 7100 00            995         TRA     LCD3            RETURN                                   <EHW>
                                       996  *                                                                       <EHW>
                                       997  *  VARIABLE LENGTH FIELD                                                <EHW>
                                       998  *                                                                       <EHW>
 12:49 09/05/97  FILE=ZIM$DBPR.:ZIC0TSI       MOVE A FIELD FROM PAGE BUF TO TEMP REC BUF                 34   BMAP - B00
   001206                              999  VRFLD  NULL                                                             <EHW>
   001206    010000 3350 07           1000         LCA     =O10000,DL      AR = 777777770000                        <EHW>
   001207    6 00001 3751 14          1001         ANA     ROFST,X4,PR6    GET BUFFER DESC W/0 LENGTH               <EHW>
   001210    000004 2750 07           1002         ORA     =O04,DL         LENGTH = 4 BYTES                         <EHW>
   001211    7 00656 7551 00          1003         STA     VFLD,,PR7       SAVE IN WORK SPACE                       <EHW>
                                      1004  *  MOVE EIS DESC IN RECORD TO WORK SPACE                                <EHW>
   001212    000 0 100 1005 20        1005         MLR     (1,,1),(1)                                               <EHW>
   001213    7 00656 0001 00          1006         ARG     VFLD,,PR7                                                <EHW>
   001214    7 00640 0 0 0 0004       1007         ADSC9   TFLD,,4,PR7                                              <EHW>
                                      1008  *  MOVE EIS DESC IN WORK SPACE TO TEMP BUFF                             <EHW>
   001215    400000 2210 03           1009         LDX     X1,=O400000,DU  PR4 = BUFFR ADDRESS                      <EHW>
   001216    7 00656 2411 00          1010         ORSX    X1,VFLD,,PR7    SAVE IN DESC                             <EHW>
   001217    000 0 120 1005 00        1011         MLR     (1),(1,,1)      * MOVE DESC                              <EHW>
   001220    7 00640 0 0 0 0004       1012         ADSC9   TFLD,,4,PR7     *  TO                                    <EHW>
   001221    7 00656 0001 00          1013         ARG     VFLD,,PR7       *  TEMP BUFF                             <EHW>
                                      1014  *  MOVE FIELD FROM PAGE TO TEMP BUFF                                    <EHW>
   001222    7 00640 2351 00          1015         LDA     TFLD,,PR7       PR3 = PAGE REC ADDRESS                   <EHW>
   001223    300000 2750 03           1016         ORA     =O300000,DU                                              <EHW>
   001224    7 00656 7551 00          1017         STA     VFLD,,PR7                                                <EHW>
   001225    100000 0350 03           1018         ADLA    =O100000,DU     PR4 = BUFFER ADDRESS                     <EHW>
   001226    7 00640 7551 00          1019         STA     TFLD,,PR7       BUFFER DESC                              <EHW>
   001227    000 0 120 1005 20        1020         MLR     (1,,1),(1,,1)   * MOVE FIELD                             <EHW>
   001230    7 00656 0001 00          1021         ARG     VFLD,,PR7       *  FROM PAGE                             <EHW>
   001231    7 00640 0001 00          1022         ARG     TFLD,,PR7       *   TO TEMP BUFF                         <EHW>
                                      1023  *  RETURN
   001232                             1024  LCD3   NULL                                                             <EHW>
   001232  X 000000 7020 00           1025         DBRET

 12:49 09/05/97  FILE=ZIM$DBPR.:ZIC0TSI       IDS-II  PRIMITIVE - MOVE MATCH KEYS TO TEMP BUF            35   BMAP - B00
                                      1026         TTLS    IDS-II  PRIMITIVE - MOVE MATCH KEYS TO TEMP BUF
                                      1027  *
                                      1028  *  MOVE MATCH KEYS FROM UWA TO TEMP BUF
                                      1029  *
                                      1030  *  INPUT -           PRSS - RS OR SS PTR FOR KEYS TO MOVE
                                      1031  *
                                      1032  *  EXCEPTION RETURN:
                                      1033  *    NONE
                                      1034  *
   001233                             1035  ZIG$DBPMS NULL
   001233  X 000000 7000 00           1036         DBSAV
   001234    000004 000000
   001235    7 00516 2241 00          1037         LDX     X4,PRSS,,PR7    GET SS REQ.
   001236    7 00642 7441 00          1038         STX     X4,PCD,,PR7     SAVE AS CURR CD
   001237                             1039  MSL1   NULL
   001237    7 00642 2201 00          1040         LDX     X0,PCD,,PR7     GET CURR CD
   001240                             1041  MSL11 NULL
   001240    6 00001 2201 10          1042         LDX     X0,RSCDN,X0,PR6  GET NEXT CD
   001241 (0)001260 6000 00           1043         TZE     LCD1            NO - DONE
   001242    6 00000 2211 10          1044        LDX     X1,DEF,X0,PR6       GET DEF OF CD
   001243    000040 3010 03           1045        CANX    X1,.SYNC,DU         IS IT SYNONYM CD
   001244 (0)001250 6000 00           1046        TZE     *+4                 NO - OK
   001245    000017 3610 03           1047        ANX     X1,.RELT,DU         ISOLATE RELATIONSHIP TYPE
   001246    000003 1010 03           1048        CMPX    X1,3,DU             IS IT INDEX KEY
   001247 (0)001240 6000 00           1049        TZE     MSL11               YES - SKIP THIS CD
   001250    7 00642 7401 00          1050         STX     X0,PCD,,PR7     SAVE NEXT AS CURR
   001251    6 00002 2241 10          1051         LDX     X4,CDSH,X0,PR6  GET FR FOR THIS CD
   001252    7 00521 7441 00          1052         STX     X4,PRFR,,PR7    PUT IN PRIM. REQ.
   001253 (0)001262 7010 00           1053         DBCAL   ZIG$DBPMK,,MKER2 MOVE FIELD
   001254 (0)001261 7020 00
   001255    5 00006 2341 00
   001256    777776 6010 04
   001257 (0)001237 7100 00           1054         TRA     MSL1            GO GET NEXT
                                      1055  *  LAST FIELD MOVED - DONE
   001260                             1056  LCD1   NULL
   001260  X 000000 7020 00           1057         DBRET                   NORMAL RETURN
                                      1058  *
 12:49 09/05/97  FILE=ZIM$DBPR.:ZIC0TSI       IDS-II  PRIMITIVE - MOVE MATCH KEYS TO TEMP BUF            36   BMAP - B00
                                      1059  *  ERRORS DETECTED IN SUBORDINATE PRIMITIVES
                                      1060  *
   001261                             1061  MKER2  NULL                    MOVE FIELD ERROR
   001261  X 000000 7020 00           1062           DBALT

 12:49 09/05/97  FILE=ZIM$DBPR.:ZIC0TSI       IDS-II  PRIMITIVE - MOVE FIELD TO TEMP BUF                 37   BMAP - B00
                                      1063         TTLS    IDS-II  PRIMITIVE - MOVE FIELD TO TEMP BUF
                                      1064  *
                                      1065  *  MOVE FIELD FROM UWA TO TEMP BUF
                                      1066  *
                                      1067  *  INPUT :           PRFR - FR DEF OF FIELD TO MOVE
                                      1068  *
                                      1069  *  EXCEPTION RETURN-
                                      1070  *    NONE
                                      1071  *
   001262                             1072  ZIG$DBPMK NULL
   001262  X 000000 7000 00           1073         DBSAV
   001263    000004 000000
   001264    7 00521 2241 00          1074         LDX     X4,PRFR,,PR7    GET FR PTR
   001265    7 00004 4735 00          1075         LDP     PR3,TBUF,,PR7   SET PR3 TO ADDR OF TEMP BUF
   001266  X 000000 7010 00           1076           ICCAL    ZIG$DBECD,,MKER1     Perform encode operation
   001267 (0)001273 7020 00
   001270    5 00006 2341 00
   001271    777776 6010 04
   001272  X 000000 7020 00           1077         DBRET                   NORMAL RETURN
                                      1078  *
                                      1079  *  ERRORS DETECTED IN SUBORDINATE ROUTINES
                                      1080  *
   001273                             1081  MKER1  NULL                    ENCODE ERROR
   001273  X 000000 7020 00           1082           DBALT

 12:49 09/05/97  FILE=ZIM$DBPR.:ZIC0TSI       IDS-II  PRIMITIVE - COMPARE MATCH KEYS                     38   BMAP - B00
                                      1083         TTLS    IDS-II  PRIMITIVE - COMPARE MATCH KEYS
                                      1084  *
                                      1085  *  COMPARE MATCH KEYS IN TEMP BUF TO FIELDS IN PAGE BUF
                                      1086  *
                                      1087  *  INPUT :           PRSS - SS PTR FOR MATCH KEYS
                                      1088  *          OUTPUT REC VAR - ADDR OF REC IN PAGE BUF
                                      1089  *
                                      1090  *  EXCEPTION RETURN:
                                      1091  *    ALL FIELDS EQUAL
                                      1092  *
   001274                             1093  ZIG$DBPCK NULL
   001274  X 000000 7000 00           1094         DBSAV
   001275    000004 000000
   001276    7 00516 2241 00          1095         LDX     X4,PRSS,,PR7    GET SS REQ.
   001277    7 00642 7441 00          1096         STX     X4,PCD,,PR7     SAVE AS CURR CD
   001300                             1097  CKL2   NULL
   001300    7 00642 2201 00          1098         LDX     X0,PCD,,PR7     GET CURR CD
   001301    6 00001 2201 10          1099         LDX     X0,RSCDN,X0,PR6  GET NEXT CD
   001302 (0)001324 6000 00           1100         TZE     LCD2            NO - DONE
   001303    7 00642 7401 00          1101         STX     X0,PCD,,PR7     SAVE NEXT AS CURR
   001304    6 00000 2211 10          1102         LDX     X1,DEF,X0,PR6   GET DEF WORD FOR CD
   001305    000040 3010 03           1103         CANX    X1,.SYNC,DU     IS IT A SYNONYM CD
   001306 (0)001312 6000 00           1104         TZE     *+4             NO - SKIP CHECK
   001307    000017 3610 03           1105         ANX     X1,.RELT,DU     ISOLATE RELATIONSHIP TYPE
   001310    000003 1010 03           1106         CMPX    X1,=O03,DU      IS IT AN INDEX KEY
   001311 (0)001300 6000 00           1107         TZE     CKL2            YES - SKIP THIS CD
   001312    6 00002 2241 10          1108         LDX     X4,CDSH,X0,PR6  GET FR FOR THIS CD
   001313    7 00521 7441 00          1109         STX     X4,PRFR,,PR7    PUT IN PRIM. REQ.
   001314    7 00521 4441 00          1110         SXL     X4,PRFR2,,PR7   PUT IN PRIM. REQ. AS 2ND OPERAND
   001315 (0)001326 7010 00           1111         DBCAL   ZIG$DBPCF,CKL2,CFER9 COMPARE THE FIELD
   001316 (0)001325 7020 00
   001317    5 00006 2341 00
   001320    000003 6000 04
   001321    5 00006 4501 00
   001322 (0)001300 7020 00
                                      1112  *  ALL FIELDS NOT EQUAL
   001323  X 000000 7020 00           1113         DBRET                   NORMAL RETURN
 12:49 09/05/97  FILE=ZIM$DBPR.:ZIC0TSI       IDS-II  PRIMITIVE - COMPARE MATCH KEYS                     39   BMAP - B00
                                      1114  *  ALL FIELDS EQUAL
   001324                             1115  LCD2   NULL
   001324  X 000000 7020 00           1116         DBEXC                   EXCEPTION RETURN
                                      1117  *
                                      1118  *  ERRORS DETECTED IN THIS PRIMITIVE
                                      1119  *
                                      1120  *
                                      1121  *  ERRORS DETECTED IN SUBORDINATE PRIMITIVES
                                      1122  *
   001325                             1123  CFER9  NULL                    COMPARE FIELD ERROR
   001325  X 000000 7020 00           1124           DBALT
                                      1125  *
                                      1126  *  ERRORS DETECTED IN I/O ROUTINES
                                      1127  *

 12:49 09/05/97  FILE=ZIM$DBPR.:ZIC0TSI       IDS-II  PRIMITIVE - COMPARE FIELD                          40   BMAP - B00
                                      1128         TTLS    IDS-II  PRIMITIVE - COMPARE FIELD
                                      1129  *
                                      1130  *  COMPARE FIELD IN TEMP BUF (.DBPCF) TO PAGE BUF
                                      1131  *
                                      1132  *    INPUT :         PRFR - FR DEF OF FIELD TO COMPARE
                                      1133  *                   PRFR2 - FR DEF FOR FIELD TO COMPARE TO
                                      1134  *                              DESCRIPTOR USED FOR PAGE BUFFER
                                      1135  *          OUTPUT REC VAR - ADDRESS OF REC IN PAGE BUF
                                      1136  *
                                      1137  *
                                      1138  *  COMPARE INDEXED FIELD (.DBXCI)
                                      1139  *
                                      1140  *    INPUT:  PRFR - FIELD TO COMPARE IN KEY PROCESS AREA
                                      1141  *             (IS A SYN FR - USE BUF DESCRIP & ADDR OF PROCESS AREA)
                                      1142  *
                                      1143  *            PRFR2 - FIELD IN INDEX ENTRY TO COMPARE OR FIELD IN REC
                                      1144  *             (USE BUF DESCRIP & ADDR IN USER COMPARE ARGUMENT)
                                      1145  *
                                      1146  *
                                      1147  *  OUTPUT-           CIND - RESULTS OF COMPARE
                                      1148  *                            -1 = FLD IN TEMP BUF LESS THAN FLD IN REC
                                      1149  *                             0 = FIELDS EQUAL
                                      1150  *                            +1 = FLD IN TEMP BUF GREATER THAN REC
                                      1151  *
                                      1152  *  EXCEPTION RETURN:
                                      1153  *    FIELD EQUAL
                                      1154  *
   001326                             1155  ZIG$DBPCF NULL
   001326  X 000000 7000 00           1156         DBSAV
   001327    000004 000000
                                      1157  *  BUILD DESCR. FOR FIELD IN TEMP BUF
   001330    7 00511 2221 00          1158         LDX     X2,RVO,,PR7     SET X2 TO REC VAR OUT
   001331    7 00521 2241 00          1159         LDX     X4,PRFR,,PR7    GET FR PTR
   001332    6 00001 2351 14          1160         LDA     ROFST,X4,PR6    GET DESCR.
   001333    100000 0350 03           1161         ADLA    =O100000,DU     CHANGE PR3 TO PR4 MOD.
   001334    7 00640 7551 00          1162         STA     TFLD,,PR7       PUT IN TEMP FLD DESCR.
   001335    7 00002 4735 12          1163         LDP     PR3,RADDR,X2,PR7  GET REC ADDR IN PAGE BUF
 12:49 09/05/97  FILE=ZIM$DBPR.:ZIC0TSI       IDS-II  PRIMITIVE - COMPARE FIELD                          41   BMAP - B00
   001336    7 00004 4745 00          1164         LDP     PR4,TBUF,,PR7   GET ADDR OF TEMP BUF
   001337 (0)001346 7100 00           1165         TRA     GCOMC
   001340                             1166  ZIG$DBXCI NULL                 COMPARE INDEXED FIELD
                                      1167  *  PR3 AND PR4 ALREADY SET UP
   001340  X 000000 7000 00           1168         DBSAV
   001341    000004 000000
   001342    7 00521 2241 00          1169         LDX     X4,PRFR,,PR7    GET FR FOR FIELD IN PROCESS AREA
   001343    6 00001 2351 14          1170         LDA     ROFST,X4,PR6    GET DESCR
   001344    100000 0350 03           1171         ADLA    =O100000,DU     CHANGE PR3 TO PR4 MOD
   001345    7 00640 7551 00          1172         STA     TFLD,,PR7       PUT IN TEMP FLD DESCR
   001346                             1173  GCOMC  NULL
   001346    6 00000 2351 14          1174         LDA     DEF,X4,PR6      GET COMPARE CODE
   001347    160000 3750 07           1175         ANA     .COMC,DL        ISOLATE
   001350    000005 7350 00           1176         ALS     5               GET COMPARE CODE INTO BITS 15-17
   001351 (0)001352 7100 01           1177         TRA     *+1,AU          GO TO PROPER COMPARE ROUTINE
   001352 (0)001360 7100 00           1178         TRA     ALPH            ALPHA (9-BIT) COMPARE
   001353 (0)001423 7100 00           1179         TRA     NUME            NUMERIC(9/4 BIT) COMPARE
   001354 (0)001432 7100 00           1180         TRA     BINA            BINARY(18/36 BIT) COMPARE
   001355 (0)001446 7100 00           1181         TRA     BCDD            BCD(6-BIT) COMPARE
   001356 (0)001456 7100 00           1182         TRA     BITC            BIT COMPARE
   001357 (0)001465 7100 00           1183         TRA     FLPT            FLOATING POINT                           <EHW>
                                      1184  *  COMPARE ALPHANUMERIC ASCII FIELDS
   001360                             1185  ALPH   NULL
   001360    7 00521 2241 00          1186         LDX     X4,PRFR,,PR7    GET 1ST FR PTR                           <EHW>
   001361    6 00000 7211 14          1187         LXL     X1,DEF,X4,PR6   GET DEFINITION                           <EHW>
   001362    010000 3010 03           1188         CANX    X1,.FVF,DU      IS IT A VARIABLE LENGTH RECORD           <EHW>
   001363 (0)001375 6000 00           1189         TZE     ALPH1           NO                                       <EHW>
   001364    010000 3350 07           1190         LCA     =O10000,DL      AR = 777777770000                        <EHW>
   001365    7 00640 3751 00          1191         ANA     TFLD,,PR7       GET DESC W/O LENTH                       <EHW>
   001366    000004 2750 07           1192         ORA     =O04,DL         LENGTH = 4 BYTES                         <EHW>
   001367    7 00656 7551 00          1193         STA     VFLD,,PR7       SAVE IN WORK SPACE                       <EHW>
                                      1194  *  MOVE DESC TO WORK SPACE                                              <EHW>
   001370    000 0 100 1005 20        1195         MLR     (1,,1),(1)                                               <EHW>
   001371    7 00656 0001 00          1196         ARG     VFLD,,PR7                                                <EHW>
   001372    7 00640 0 0 0 0004       1197         ADSC9   TFLD,,4,PR7                                              <EHW>
   001373    400000 2210 03           1198         LDX     X1,=O400000,DU  PR4 = MODIFIER                           <EHW>
   001374    7 00640 2411 00          1199         ORSX    X1,TFLD,,PR7                                             <EHW>
 12:49 09/05/97  FILE=ZIM$DBPR.:ZIC0TSI       IDS-II  PRIMITIVE - COMPARE FIELD                          42   BMAP - B00
                                      1200  *  GET 2ND DESC                                                         <EHW>
   001375                             1201  ALPH1  NULL                                                             <EHW>
   001375    7 00521 7241 00          1202         LXL     X4,PRFR2,,PR7   GET FR FOR 2ND OPERAND                   <EHW>
   001376    6 00000 7211 14          1203         LXL     X1,DEF,X4,PR6   GET DEFINITION                           <EHW>
   001377    010000 3010 03           1204         CANX    X1,.FVF,DU      IS IT A VARIABLE LENGTH FIELD            <EHW>
   001400 (0)001413 6000 00           1205         TZE     ALPH2           NO                                       <EHW>
                                      1206  *  MOVE DESC TO WORK SPACE                                              <EHW>
   001401    010000 3350 07           1207         LCA     =O10000,DL      AR = 777777770000                        <EHW>
   001402    6 00001 3751 14          1208         ANA     ROFST,X4,PR6    GET DESC W/O LENGTH                      <EHW>
   001403    000004 2750 07           1209         ORA     =O04,DL         LENGTH = 4 BYTES                         <EHW>
   001404    7 00656 7551 00          1210         STA     VFLD,,PR7                                                <EHW>
   001405    000 0 100 1005 20        1211         MLR     (1,,1),(1)      MOVE DESC                                <EHW>
   001406    7 00656 0001 00          1212         ARG     VFLD,,PR7                                                <EHW>
   001407    7 00657 0 0 0 0004       1213         ADSC9   TFLD2,,4,PR7                                             <EHW>
   001410    300000 2210 03           1214         LDX     X1,=O300000,DU                                           <EHW>
   001411    7 00657 2411 00          1215         ORSX    X1,TFLD2,,PR7   PR3 = MODIFIER                           <EHW>
   001412 (0)001415 7100 00           1216         TRA     *+3                                                      <EHW>
   001413                             1217  ALPH2  NULL                                                             <EHW>
   001413    6 00001 2351 14          1218         LDA     ROFST,X4,PR6    NOT VARIABLE, GET DESC FROM FR           <EHW>
   001414    7 00657 7551 00          1219         STA     TFLD2,,PR7                                               <EHW>
                                      1220  *  COMPARE FIELDS                                                       <EHW>
   001415    040 0 120 1065 20        1221         CMPC    (1,,1),(1,,1),040  * COMPARE                             <EHW>
   001416    7 00640 0001 00          1222         ARG     TFLD,,PR7       *  TEMP BUF TO                           <EHW>
   001417    7 00657 0001 00          1223         ARG     TFLD2,,PR7      *  PAGE BUF                              <EHW>
   001420 (0)001501 6000 00           1224         TZE     FEQ             EQUAL - EXC RET
   001421 (0)001502 6030 00           1225         TRC     TBG             TEMP BUF GREATER
   001422 (0)001505 7100 00           1226         TRA     TBL             TEMP BUF LESS
                                      1227  *  COMPARE NUMERIC FIELDS
   001423                             1228  NUME   NULL
   001423    7 00521 7241 00          1229         LXL     X4,PRFR2,,PR7   GET FR FOR 2ND OPERAND
   001424    0 000 0 0 120 3035 20    1230         CMPN    (1,,1),(1,,1)       * COMPARE
   001425    7 00640 0001 00          1231         ARG     TFLD,,PR7           *  TEMP BUF TO
   001426    6 00001 0001 14          1232         ARG     ROFST,X4,PR6        *   PAGE BUF
   001427 (0)001501 6000 00           1233         TZE     FEQ             EQUAL
   001430 (0)001502 6040 00           1234         TMI     TBG             TEMP BUF GREATER
   001431 (0)001505 7100 00           1235         TRA     TBL             TEMP BUF LESS
                                      1236  *  COMPARE BINARY FIELDS
 12:49 09/05/97  FILE=ZIM$DBPR.:ZIC0TSI       IDS-II  PRIMITIVE - COMPARE FIELD                          43   BMAP - B00
   001432                             1237  BINA   NULL
   001432    7 00521 7241 00          1238         LXL     X4,PRFR2,,PR7   GET FR FOR 2ND OPERAND
   001433    000 0 100 1005 20        1239         MLR     (1,,1),(1),0        * MOVE
   001434    7 00640 0001 00          1240         ARG     TFLD,,PR7           *  BIN NO. IN TEMP BUF TO
   001435    7 00652 0 0 0 0004       1241         ADSC9   BN1,0,4,PR7         *   WORK SPACE
   001436    000 0 100 1005 20        1242         MLR     (1,,1),(1),0        * MOVE
   001437    6 00001 0001 14          1243         ARG     ROFST,X4,PR6        *  BIN NO. IN PAGE BUF TO
   001440    7 00654 0 0 0 0004       1244         ADSC9   BN2,0,4,PR7         *   WORK SPACE
   001441    7 00652 2351 00          1245         LDA     BN1,,PR7
   001442    7 00654 1151 00          1246         CMPA    BN2,,PR7        COMPARE TEMP BUF TO PAGE BUF
   001443 (0)001501 6000 00           1247         TZE     FEQ             EQUAL
   001444 (0)001502 6050 00           1248         TPL     TBG             TEMP BUF GREATER
   001445 (0)001505 7100 00           1249         TRA     TBL             TEMP BUF LESS
                                      1250  *  COMPARE BCD(6-BIT)
   001446                             1251  BCDD   NULL
   001446 (0)001510 7100 00           1252         TRA     ILCC            ILLEGAL CODE
   001447    7 00521 7241 00          1253         LXL     X4,PRFR2,,PR7   GET FR FOR 2ND OPERAND
   001450    020 0 120 1065 20        1254         CMPC    (1,,1),(1,,1),020   * COMPARE
   001451    7 00640 0001 00          1255         ARG     TFLD,,PR7           *  FIELD IN TEMP BUF TO
   001452    6 00001 0001 14          1256         ARG     ROFST,X4,PR6        *   PAGE BUF FLD
   001453 (0)001501 6000 00           1257         TZE     FEQ             EQUAL
   001454 (0)001502 6030 00           1258         TRC     TBG             TEMP BUF GREATER
   001455 (0)001505 7100 00           1259         TRA     TBL             TEMP BUF LESS
                                      1260  *  BIT COMPARE
   001456                             1261  BITC   NULL
   001456    7 00521 7241 00          1262         LXL     X4,PRFR2,,PR7   GET FR FOR 2ND OPERAND
   001457    0 000 120 0665 20        1263         CMPB    (1,,1),(1,,1),0      * COMPARE
   001460    7 00640 0001 00          1264         ARG     TFLD,,PR7            *  BIT FLD IN TEMP BUF TO
   001461    6 00001 0001 14          1265         ARG     ROFST,X4,PR6         *   PAGE BUF FLD
   001462 (0)001501 6000 00           1266         TZE     FEQ             EQUAL
   001463 (0)001502 6030 00           1267         TRC     TBG             TEMP BUF GREATER
   001464 (0)001505 7100 00           1268         TRA     TBL             TEMP BUF LESS
                                      1269  *  FLOATING POINT                                                       <EHW>
   001465                             1270  FLPT   NULL                                                             <EHW>
   001465    7 00521 7241 00          1271         LXL     X4,PRFR2,,PR7   FR FOR 2ND OPERAND                       <EHW>
   001466    000 0 100 1005 20        1272         MLR     (1,,1),(1),0    MOVE FIELD TO COMPARE                    <EHW>
   001467    7 00640 0001 00          1273         ARG     TFLD,,PR7                                                <EHW>
 12:49 09/05/97  FILE=ZIM$DBPR.:ZIC0TSI       IDS-II  PRIMITIVE - COMPARE FIELD                          44   BMAP - B00
   001470    7 00670 0 0 0 0010       1274         ADSC9   CFLPT1,0,8,PR7                                           <EHW>
   001471    000 0 100 1005 20        1275         MLR     (1,,1),(1),0    MOVE FIELD TO COMPARE TO                 <EHW>
   001472    6 00001 0001 14          1276         ARG     ROFST,X4,PR6                                             <EHW>
   001473    7 00672 0 0 0 0010       1277         ADSC9   CFLPT2,0,8,PR7                                           <EHW>
   001474    7 00670 4331 00          1278         DFLD    CFLPT1,,PR7     GET FLOATING PT NUMBER
   001475    7 00672 5171 00          1279         DFCMP   CFLPT2,,PR7     SECOND FIELD                             <EHW>
   001476 (0)001501 6000 00           1280         TZE     FEQ             EQUAL                                    <EHW>
   001477 (0)001502 6050 00           1281         TPL     TBG             TEMP BUF GREATER                         <EHW>
   001500 (0)001505 7100 00           1282         TRA     TBL             TEMP BUF LESS                            <EHW>
                                      1283  *  FIELDS ARE EQUAL
   001501                             1284  FEQ    NULL
   001501  X 000000 7020 00           1285         DBEXC                   EXCEPTION RETURN
                                      1286  *  TEMP BUF IS GREATER THAN PAGE BUF
   001502                             1287  TBG    NULL
   001502    000001 2210 03           1288         LDX     X1,1,DU
   001503    7 00516 4411 00          1289         SXL     X1,CIND,,PR7    SET RETURN WORD
   001504  X 000000 7020 00           1290         DBRET                   RETURN
                                      1291  *  TEMP BUF IS LESS THAN PAGE BUF
   001505                             1292  TBL    NULL
   001505    777777 2210 03           1293         LDX     X1,-1,DU
   001506    7 00516 4411 00          1294         SXL     X1,CIND,,PR7    SET RETURN WORD
   001507  X 000000 7020 00           1295         DBRET                   RETURN
                                      1296  *
                                      1297  *  ERROR DETECTED IN THIS ROUTINE
                                      1298  *
   001510                             1299  ILCC   NULL                    ILLEGAL COMPARE CODE
   001510    303277 2350 07           1300         LDA     PRE10,DL
   001511    000000 6200 00           1301         EAX     X0,0            NULL AC
   001512    000000 6260 00           1302         EAX     X6,0            NULL SC
   001513    6 00005 2271 14          1303         LDX     X7,RCFRH,X4,PR6  GET RC
   001514 (0)001515 7100 00           1304         TRA     CFER1
                                      1305  *  COMMON ERROR RETURN
   001515                             1306  CFER1  NULL
   001515  X 000000 7020 00           1307           DBALT

 12:49 09/05/97  FILE=ZIM$DBPR.:ZIC0TSI       IDS-II  PRIMITIVE - MOVE FIELD FROM BUFFER TO UWA          45   BMAP - B00
                                      1308         TTLS    IDS-II  PRIMITIVE - MOVE FIELD FROM BUFFER TO UWA
                                      1309  *
                                      1310  *  MOVE A FIELD FROM BUFFER TO USER WORK ARE
                                      1311  *
                                      1312  *  INPUT : INPUT REC VAR - ADDRESS OF RECORD IN BUFFER
                                      1313  *                   PRFR - FR PTR FOR FIELD
                                      1314  *
                                      1315  *  EXCEPTION RETURN-
                                      1316  *    NONE
                                      1317  *
   001516                             1318  ZIG$DBPMT NULL
   001516  X 000000 7000 00           1319         DBSAV
   001517    000004 000000
   001520    7 00510 2231 00          1320         LDX     X3,RVI,,PR7     SET X3 TO INPUT REC VAR
   001521    7 00521 2241 00          1321         LDX     X4,PRFR,,PR7    GET FR PTR
   001522    7 00002 4735 13          1322         LDP     PR3,RADDR,X3,PR7  SET PR3 TO RECORD ADDR
   001523  X 000000 7010 00           1323           ICCAL    ZIG$DBDCD,,DCER1     Perform decode operation
   001524 (0)001530 7020 00
   001525    5 00006 2341 00
   001526    777776 6010 04
   001527  X 000000 7020 00           1324         DBRET                   NORMAL RETURN
                                      1325  *
                                      1326  *  ERRORS DETECTED IN SUBORDINATE PRIMITIVES
                                      1327  *
   001530                             1328  DCER1  NULL                    DECODE ERROR
   001530  X 000000 7020 00           1329           DBALT

 12:49 09/05/97  FILE=ZIM$DBPR.:ZIC0TSI       IDS/II PRIMITIVE - MOVE A FIELD FROM UWA TO BUFFER         46   BMAP - B00
                                      1330         TTLS    IDS/II PRIMITIVE - MOVE A FIELD FROM UWA TO BUFFER
                                      1331  *
                                      1332  *  MOVE WORKING STORAGE FIELD TO BUFFER FIELD
                                      1333  *
                                      1334  *  INPUT -  TEMP REC VAR - ADDR OF REC IN BUFFER
                                      1335  *           PRFR - FR PTR FOR FIELD
                                      1336  *
                                      1337  *  EXCEPTION RETURN - NONE
                                      1338  *
   001531                             1339  ZIG$DBPMF NULL
   001531  X 000000 7000 00           1340         DBSAV
   001532    000004 000000
   001533    7 00512 2211 00          1341         LDX     X1,RVT,,PR7     SET X1 TO TEMP REC VAR
   001534    7 00521 2241 00          1342         LDX     X4,PRFR,,PR7    GET FR PTR
   001535    7 00002 4735 11          1343         LDP     PR3,RADDR,X1,PR7  SET PR3 TO ADDR OF REC
   001536  X 000000 7010 00           1344           ICCAL    ZIG$DBECD,,ENER1     Perform encode operation
   001537 (0)001543 7020 00
   001540    5 00006 2341 00
   001541    777776 6010 04
   001542  X 000000 7020 00           1345         DBRET                   NORMAL RETURN
                                      1346  *
                                      1347  *  ERRORS DETECTED IN ENCODE ROUTINE
                                      1348  *
   001543                             1349  ENER1  NULL                    ENCODE ERROR
   001543  X 000000 7020 00           1350           DBALT

 12:49 09/05/97  FILE=ZIM$DBPR.:ZIC0TSI       FIND RC THROUGH  AC-RA SET                                 47   BMAP - B00
                                      1351         TTLS    FIND RC THROUGH  AC-RA SET
                                      1352  *
                                      1353  *  FIND RC THROUGH AC-RA SET
                                      1354  *
                                      1355  *  INPUT : AR  - BITS 24-35 = REC-TYPE
                                      1356  *          X0  - AC PTR
                                      1357  *
                                      1358  *  OUTPUT: X7  - RC DEF. PTR.
                                      1359  *          X4  - RA PTR
                                      1360  *          X0  - AC PTR
                                      1361  *
                                      1362  *  EXCEPTION RETURN-
                                      1363  *    NONE
                                      1364  *
   001544                             1365  ZIQ$DBPR1 NULL
   001544    7 00470 7411 56          1366         ICSAV
   001545    000000 6240 10           1367         EAX     X4,,X0          INIT X4
   001546    7 00057 2361 00          1368         LDQ     CTMASK,,PR7     LOAD MASK FOR REC TYPE COMPARE
   001547                             1369  LOOP1  NULL
   001547    6 00001 7241 14          1370         LXL     X4,ACRAN,X4,PR6  GET NEXT RA
   001550 (0)001556 6000 00           1371         TZE     RCNF1           NO- RC NOT FOUND
   001551    6 00002 2271 14          1372         LDX     X7,RCRAH,X4,PR6  GET RC FOR THIS RA
   001552    6 00003 2111 17          1373         CMK     RTYP,X7,PR6     IS THIS THE RIGHT ONE
   001553 (0)001547 6010 00           1374         TNZ     LOOP1           NO - CHECK ANOTHER
                                      1375  * RECORD CLASS DEF. FOUND
   001554    7 00470 2211 54          1376         ICRET                   normal return
   001555    000001 7100 11
                                      1377  *
                                      1378  *  ERRORS DETECTED IN THIS PRIMITIVE
                                      1379  *
   001556                             1380  RCNF1  NULL                    RC NOT FOUND
   001556    210613 2350 07           1381         LDA     PRE6,DL
   001557    000000 6260 00           1382         EAX     X6,0            NULL SC
   001560    000000 6270 00           1383         EAX     X7,0            NULL RC
   001561  X 000000 7020 00           1384         ICEXC                   exception return

 12:49 09/05/97  FILE=ZIM$DBPR.:ZIC0TSI       FIND RC THROUGH SC-RS SET                                  48   BMAP - B00
                                      1385         TTLS    FIND RC THROUGH SC-RS SET
                                      1386  *
                                      1387  *  FIND RC THROUGH SC-RS SET
                                      1388  *
                                      1389  *  INPUT : AR  - BITS 24-35 = REC-TYPE
                                      1390  *          X6  - SC DEF PTR
                                      1391  *
                                      1392  *  OUTPUT: X5    RS DEF PTR
                                      1393  *          X7  - RC DEF PTR
                                      1394  *
                                      1395  *  EXCEPTION RETURN-
                                      1396  *    NONE
                                      1397  *
   001562                             1398  ZIG$DBPR2 NULL
   001562    7 00470 7411 56          1399           ICSAV
   001563    7 00057 2361 00          1400         LDQ     CTMASK,,PR7     LOAD MASK FOR REC TYPE COMPARE
   001564    000000 6250 16           1401         EAX     X5,,X6          SET X5 TO THE RS
   001565                             1402  LOOP2  NULL
   001565    6 00002 2251 15          1403         LDX     X5,SCRSN,X5,PR6  GET NEXT RS DEF.
   001566 (0)001574 6000 00           1404         TZE     RCNF2           NO -
   001567    6 00003 2271 15          1405         LDX     X7,RCRSH,X5,PR6  GET RC FOR THIS RS
   001570    6 00003 2111 17          1406         CMK     RTYP,X7,PR6     IS THIS THE RIGHT RC
   001571 (0)001565 6010 00           1407         TNZ     LOOP2           NO - CHECK ANOTHER
                                      1408  *  RECORD CLASS DEF. FOUND
   001572    7 00470 2211 54          1409           ICRET
   001573    000001 7100 11
                                      1410  *
                                      1411  *  ERRORS DETECTED IN THIS PRIMITIVE
                                      1412  *
   001574                             1413  RCNF2  NULL                    RC NOT FOUND
   001574    210614 2350 07           1414         LDA     PRE7,DL
   001575    000000 6200 00           1415         EAX     X0,0            NULL AC
   001576    000000 6270 00           1416         EAX     X7,0            NULL RC
   001577  X 000000 7020 00           1417           ICEXC

 12:49 09/05/97  FILE=ZIM$DBPR.:ZIC0TSI       FIND RC THROUGH RC-RA SET                                  49   BMAP - B00
                                      1418         TTLS    FIND RC THROUGH RC-RA SET
                                      1419  *
                                      1420  *  FIND RA THROUGH RC-RA SET
                                      1421  *
                                      1422  *  INPUT - X0  - AC PTR
                                      1423  *          X7  - RC PTR
                                      1424  *
                                      1425  *  OUTPUT- X0  - AC PTR
                                      1426  *          X4  - RA PTR
                                      1427  *          X7  - RC PTR
                                      1428  *
                                      1429  *  EXCEPTION RETURN-
                                      1430  *    NONE
                                      1431  *
   001600                             1432  ZIQ$DBPR3 NULL
   001600    7 00470 7411 56          1433         ICSAV
   001601    000000 6240 17           1434         EAX     X4,,X7          INIT X4
   001602    000000 6350 10           1435         EAA     ,X0
   001603    000022 7710 00           1436         ARL     18              AL = AC PTR
   001604    777777 2360 03           1437         LDQ     -1,DU           LOAD MASK
   001605                             1438  LOOP4  NULL
   001605    6 00001 2241 14          1439         LDX     X4,RCRAN,X4,PR6  GET NEXT RA
   001606 (0)001613 6000 00           1440         TZE     RANF            NO
   001607    6 00002 2111 14          1441         CMK     ACRAH,X4,PR6    IS THIS THE CORRECT RA
   001610 (0)001605 6010 00           1442         TNZ     LOOP4           NO
                                      1443  *  RA FOUND
   001611    7 00470 2211 54          1444         ICRET                   normal return
   001612    000001 7100 11
                                      1445  *
                                      1446  *  ERRORS DETECTED IN THIS PRIMITIVE
                                      1447  *
   001613                             1448  RANF   NULL                    RA NOT FOUND
   001613    210615 2350 07           1449         LDA     PRE8,DL
   001614    000000 6260 00           1450         EAX     X6,0            NULL SC
   001615  X 000000 7020 00           1451         ICEXC                   exception return
                                      1452         END
 1 000000    777777740077
 12:49 09/05/97  FILE=ZIM$DBPR.:ZIC0TSI       FIND RC THROUGH RC-RA SET                                  50   BMAP - B00

  CONTROL SECTION TABLE

   0 CODE   EVEN  001616
   1 RODATA EVEN  000001 LITERALS

 12:49 09/05/97  FILE=ZIM$DBPR.:ZIC0TSI       SYMBOL TABLE                                               51   BMAP - B00
 40000000 000000200000 .AC            *38
 40000000 000000000100 .AG            *38
 40000000 000000002000 .ALTO          *38
 40000000 000000000077 .ANL           *38
 40000000 000000200000 .APDN          *38
 40000000 000000000100 .ATMP          *38
 40000000 000000400000 .AV            *38
 40000000 000000400000 .B0            *38
 40000000 000000200000 .B1            *38
 40000000 000000000200 .B10           *38
 40000000 000000000100 .B11           *38
 40000000 000000000040 .B12           *38
 40000000 000000000020 .B13           *38
 40000000 000000000010 .B14           *38
 40000000 000000000004 .B15           *38
 40000000 000000000002 .B16           *38
 40000000 000000000001 .B17           *38
 40000000 000000400000 .B18           *38
 40000000 000000200000 .B19           *38
 41000000 000000100000 .B2            *38        98       302       590
 40000000 000000100000 .B20           *38
 40000000 000000040000 .B21           *38
 40000000 000000020000 .B22           *38
 40000000 000000010000 .B23           *38
 40000000 000000004000 .B24           *38
 40000000 000000002000 .B25           *38
 40000000 000000001000 .B26           *38
 40000000 000000000400 .B27           *38
 40000000 000000000200 .B28           *38
 40000000 000000000100 .B29           *38
 40000000 000000040000 .B3            *38
 40000000 000000000040 .B30           *38
 40000000 000000000020 .B31           *38
 40000000 000000000010 .B32           *38
 40000000 000000000004 .B33           *38
 40000000 000000000002 .B34           *38
 40000000 000000000001 .B35           *38
 12:49 09/05/97  FILE=ZIM$DBPR.:ZIC0TSI       SYMBOL TABLE                                               52   BMAP - B00
 40000000 000000020000 .B4            *38
 40000000 000000010000 .B5            *38
 40000000 000000004000 .B6            *38
 40000000 000000002000 .B7            *38
 40000000 000000001000 .B8            *38
 40000000 000000000400 .B9            *38
 40000000 000000000001 .BREAK         *38
 40000000 000000010000 .BRK           *38
 40000000 000000020000 .BTB           *38
 40000000 000000000001 .CAC           *38
 40000000 000000000000 .CAE           *38
 40000000 000000000200 .CANSSS        *38
 40000000 000000000400 .CD            *38
 40000000 000000040000 .CFLC          *38
 40000000 000000400000 .CHKSUM        *38
 40000000 000000100000 .CJRNL         *38
 40000000 000000000077 .CNSZ          *38
 41000000 000000160000 .COMC          *38       984      1175
 40000000 000000000020 .CONT          *38
 40000000 000000000000 .CSE           *38
 40000000 000000700000 .CTYP          *38
 41000000 000000000270 .DBEST         *38
 41000000 000000000470 .DBIC          *38      1366      1376      1399      1409      1433      1444
 40000000 000000077777 .DBPT          *38
 41000000 000000000370 .DBSTK         *38
 40000000 000000020000 .DELM          *38
 40000000 000000002000 .DIDP          *38
 40000000 000000000077 .DNDX          *38
 40000000 000000600000 .DORD          *38
 40000000 000000000200 .DP            *38
 40000000 000000100000 .DPS           *38
 40000000 000000200000 .DPSA          *38
 40000000 000000400000 .DPST          *38
 40000000 000000000002 .DUMP          *38
 40000000 000000002000 .DUPC          *38
 40000000 000000010000 .DUPP          *38
 40000000 000000200000 .EBCL          *38
 12:49 09/05/97  FILE=ZIM$DBPR.:ZIC0TSI       SYMBOL TABLE                                               53   BMAP - B00
 40000000 000000400000 .EBCM          *38
 40000000 000000200000 .ENCRP         *38
 40000000 000000000077 .ENDX          *38
 40000000 000000000400 .ENQ           *38
 40000000 000000004000 .ETC           *38
 40000000 000000000400 .EXIT          *38
 40000000 000000000200 .FMOD          *38
 40000000 000000000077 .FNL           *38
 40000000 000000000074 .FORG          *38
 40000000 000000002000 .FR            *38
 40000000 000000000100 .FSR           *38
 40000000 000000003400 .FUSE          *38
 41000000 000000010000 .FVF           *38       980      1188      1204
 41000000 000000040000 .FVR           *38       285       455       620       816
 40000000 000000000010 .INDEXED       *38
 40000000 000000777777 .IXID          *38
 40000000 000000001777 .IXNUM         *38
 40000000 000000000004 .KEYED         *38
 40000000 000000010000 .LCK           *38
 40000000 000000400000 .LEIL          *38
 41000000 000000001000 .LG            *38       244       419
 40000000 000000000002 .LOAD          *38
 40000000 000000020000 .MAR           *38
 41000000 000000000007 .MEMT          *38       202
 40000000 000000010000 .MRL           *38
 40000000 000000040000 .MSM           *38
 60000000 000000000001 .N6685         *38
 40000000 000000100000 .NAI           *38
 40000000 000000200000 .NBI           *38
 40000000 000000000002 .NCIA          *38
 40000000 000000040000 .NMV           *38
 40000000 000000017777 .NOENT         *38
 40000000 000000400000 .OA            *38
 40000000 000000740000 .OPEV          *38
 40000000 000000100000 .OSM           *38
 40000000 000000100000 .PAFIL         *38
 40000000 000000200000 .PAHVR         *38
 12:49 09/05/97  FILE=ZIM$DBPR.:ZIC0TSI       SYMBOL TABLE                                               54   BMAP - B00
 40000000 000000000001 .PAIA          *38
 40000000 000000040000 .PALIL         *38
 40000000 000000020000 .PALVR         *38
 40000000 000000400000 .PANLL         *38
 40000000 000000400000 .PCKD          *38
 40000000 000000001600 .PMOD          *38
 40000000 000000000520 .PRCSE         *38
 41000000 000000000007 .PSTO          *38        65
 40000000 000000006040 .PTAS          *38
 40000000 000000010100 .PTCHK         *38
 40000000 000000010200 .PTDEC         *38
 40000000 000000010140 .PTENC         *38
 40000000 000000020000 .RA            *38
 40000000 000000100000 .RC            *38
 40000000 000000400000 .RELEASE       *38
 41000000 000000000017 .RELT          *38      1047      1105
 40000000 000000004000 .RERA          *38
 40000000 000000400000 .RERS          *38
 40000000 000000010000 .RKEY          *38
 40000000 000000000077 .RNL           *38
 40000000 000000200000 .RSTO          *38
 40000000 000000007777 .RTYP          *38
 40000000 000000040000 .SC            *38
 41000000 000000000070 .SETM          *38       198
 40000000 000000740000 .SETO          *38
 40000000 000000000700 .SETT          *38
 40000000 000000040000 .SFNP          *38
 40000000 000000004000 .SM            *38
 40000000 000000020000 .SMOD          *38
 40000000 000000000077 .SNL           *38
 40000000 000000020000 .SNSS          *38
 41000000 000000010000 .SO            *38       295       404       445
 41000000 000000100000 .SR            *38       306       608       806
 40000000 000000004000 .SRCR          *38
 40000000 000000001000 .SS            *38
 40000000 000000000007 .SSTP          *38
 40000000 000000004000 .SYN           *38
 12:49 09/05/97  FILE=ZIM$DBPR.:ZIC0TSI       SYMBOL TABLE                                               55   BMAP - B00
 41000000 000000000040 .SYNC          *38      1045      1103
 40000000 000000020000 .TJRNL         *38
 40000000 000000040000 .TMPLT         *38
 40000000 000000040000 .TRACE         *38
 40000000 000000000001 .TRENTRY       *38
 40000000 000000000012 .TRIDEL        *38
 40000000 000000000021 .TRIDELENQ     *38
 40000000 000000000024 .TRIDEQ        *38
 40000000 000000000013 .TRIMOD        *38
 40000000 000000000022 .TRIMODENQ     *38
 40000000 000000000014 .TRIREAD       *38
 40000000 000000000023 .TRIREADENQ    *38
 40000000 000000000011 .TRISTO        *38
 40000000 000000000020 .TRISTOENQ     *38
 40000000 000000000017 .TRPDEQ        *38
 40000000 000000000004 .TRPMOD        *38
 40000000 000000000016 .TRPMODENQ     *38
 40000000 000000000002 .TRPREAD       *38
 40000000 000000000015 .TRPREADENQ    *38
 40000000 000000000003 .TRPWRITE      *38
 40000000 000000000010 .TRRACC        *38
 40000000 000000000006 .TRRDEL        *38
 40000000 000000000007 .TRRMOD        *38
 40000000 000000000005 .TRRSTO        *38
 40000000 000000004000 .ULCK          *38
 40000000 000000400000 .UPDT          *38
 40000000 000000000040 .VIA           *38
 60000000 000000000001 A              *38
 41000000 000000000002 ABAS           *38       247       422
 40000000 000000000001 AC             *38
 40000000 777777777760 ACDEF          *38
 40000000 000000211070 ACDNL          *38
 01101000 000000001065 ACERCM         839      *842
 40000000 000000000003 ACID           *38
 40000000 000000001016 ACOPN          *38
 40000000 000000000002 ACP            *38
 41000000 000000000005 ACPTR          *38        73       118       123       246       259       276
 12:49 09/05/97  FILE=ZIM$DBPR.:ZIC0TSI       SYMBOL TABLE                                               56   BMAP - B00
                                      344       421       433       490       544       573       611
                                      650       698       727       760       781       834       895
 41000000 000000000002 ACRAH          *38        72      1441
 41000000 000000000001 ACRAN          *38      1370
 40000000 000000001003 ACREC          *38
 40000000 000000000001 ACTDBCB        *38
 40000000 000000000002 ACTDBNO        *38
 40000000 000000001017 ACTP           *38
 40000000 000000000000 ACTSSS         *38
 40000000 000000000000 ACTSZ          *38
 40000000 000000210565 AFNP           *38
 40000000 000000000635 AFT            *38
 40000000 000000022124 AIR            *38
 01101000 000000001360 ALPH          1178     *1185
 01101000 000000001375 ALPH1         1189     *1201
 01101000 000000001413 ALPH2         1205     *1217
 40000000 000000000016 AMAX           *38
 40000000 000000000026 ANAM           *38
 40000000 000000021614 ANR            *38
 40000000 000000000001 APNO           *38
 40000000 000000210562 ARGER          *38
 41000000 000000000020 ARGS           *38
 40000000 000000000077 ARGS2          *38
 40000000 000000210713 ARNAF          *38
 40000000 000000000003 ATBL           *38
 40000000 000000000000 ATRIB          *38
 40000000 000000000002 AVLN           *38
 41000000 000000000013 AWS$           *38       256       430       570       778       892
 40000000 000000000010 AWSZ           *38
 60000000 000000000001 B              *38
 40000000 000000001006 B32N           *38
 40000000 000000001007 B36N           *38
 40000000 000000001056 B72N           *38
 41000000 000000000001 BADDR          *38       258       432       572       780       894
 40000000 000000210712 BADSEED        *38
 01101000 000000001446 BCDD          1181     *1251
 40000000 777777777765 BDCW           *38
 12:49 09/05/97  FILE=ZIM$DBPR.:ZIC0TSI       SYMBOL TABLE                                               57   BMAP - B00
 40000000 000000000633 BEF            *38
 40000000 000000020000 BEFW           *38
 40000000 000000000751 BEMT           *38
 40000000 777777777761 BID            *38
 01101000 000000001432 BINA          1180     *1237
 40000000 777777777762 BIND           *38
 01101000 000000001456 BITC          1182     *1261
 40000000 000000000007 BLKD           *38
 40000000 000000303331 BME02          *38
 41000000 000000001203 BMPB           *38
 41000000 000000000652 BN1            *38      1241      1245
 41000000 000000000654 BN2            *38      1244      1246
 41000000 000000000004 BPL            *38       704       733
 40000000 000000000015 BPLDBK         *38
 40000000 000000000034 BSPG           *38
 40000000 777777777763 BSTAT          *38
 40000000 000000000750 BTX0           *38
 41000000 000000001160 BUF4           *38
 41000000 000000001170 BUF6           *38
 41000000 000000000000 BUFORG         *38
 40000000 000000001060 BUFRQ          *38
 40000000 000000000006 BURRID         *38
 41000000 000000000020 BWASZ          *38
 60000000 000000000001 C              *38
 40000000 000000000050 CAAC           *38
 40000000 000000000050 CACD           *38
 40000000 000000000111 CAG            *38
 40000000 000000001033 CAL            *38
 40000000 000000000026 CALLPM0        *38
 40000000 000000000003 CANSSS         *38
 40000000 000000000003 CBCPA          *38
 40000000 000000000002 CBCPO          *38
 40000000 000000000002 CBENO          *38
 40000000 000000000014 CBFSZ          *38
 40000000 000000000753 CBIB           *38
 40000000 000000001030 CBID           *38
 40000000 000000000014 CBRCE          *38
 12:49 09/05/97  FILE=ZIM$DBPR.:ZIC0TSI       SYMBOL TABLE                                               58   BMAP - B00
 40000000 000000000014 CBRCP          *38
 40000000 000000001033 CBRID          *38
 40000000 000000000015 CBRPA          *38
 40000000 000000000031 CCHAR          *38
 40000000 000000000040 CDBK           *38
 40000000 000000000030 CDES           *38
 40000000 000000000110 CDP            *38
 40000000 000000001044 CDPSI          *38
 40000000 000000000002 CDRH           *38
 40000000 000000000003 CDRN           *38
 41000000 000000000002 CDSH           *38       954      1051      1108
 40000000 000000000003 CDSN           *38
 40000000 000000000722 CENTRN         *38
 40000000 000000000722 CENTRO         *38
 40000000 000000000716 CENTRY         *38
 01101000 000000000074 CER9            96      *116
 41000000 000000001053 CFCT           *38
 01101000 000000001515 CFER1         1304     *1306
 01101000 000000001325 CFER9         1111     *1123
 41000000 000000000670 CFLPT1         *38      1274      1278
 41000000 000000000672 CFLPT2         *38      1277      1279
 40000000 000000000015 CFSA           *38
 40000000 000000000646 CHDBK          *38
 01101000 000000000631 CHFND          585      *632
 40000000 000000000773 CHR            *38
 40000000 000000000006 CHRD           *38
 40000000 000000000772 CHRO           *38
 41000000 000000007640 CHRTP          *38       584
 40000000 000000001043 CIAC           *38
 40000000 000000000012 CIAWS          *38
 40000000 000000001051 CIBSI          *38
 41000000 000000000516 CIND           *38      1289      1294
 40000000 000000001041 CINVSZ         *38
 40000000 000000001042 CIPG           *38
 40000000 000000001050 CIPSI          *38
 41000000 000000000000 CIRUN          *38        79        85
 40000000 000000000002 CIRWS          *38
 12:49 09/05/97  FILE=ZIM$DBPR.:ZIC0TSI       SYMBOL TABLE                                               59   BMAP - B00
 40000000 000000000002 CISWS          *38
 41000000 000000000014 CIWSOF         *38        77
 01101000 000000001300 CKL2         *1097      1107      1111
 40000000 000000303374 CKSM           *38
 41000000 000000000022 CLCN           *38       556
 41000000 000000000023 CLCP           *38       548
 40000000 000000000003 CLCRC          *38
 41000000 000000000003 CLCSC          *38       181       605       635       644
 40000000 000000000237 CLI            *38
 40000000 000000000026 CLNG           *38
 40000000 000000000052 CMPL           *38
 40000000 000000000002 CN             *38
 40000000 000000303315 CNE1           *38
 40000000 000000006034 CNUL           *38
 40000000 000000100000 COB74          *38
 40000000 000000000001 COFS           *38
 40000000 000000000045 CONCD          *38
 40000000 000000007764 CP6PGSZB       *38
 41000000 000000001775 CP6PGSZW       *38
 40000000 000000001000 CPGR           *38
 40000000 000000000723 CPTRN          *38
 40000000 000000000723 CPTRO          *38
 60000000 000000000004 CPW            *38
 40000000 000000000112 CRA            *38
 40000000 000000001004 CRD            *38
 40000000 000000000764 CREC           *38
 40000000 000000006344 CRIT           *38
 01101000 000000000067 CRN             61      *110
 41000000 000000006200 CRNUL          *38       111
 01101000 000000000105 CRR1           115       120       125       130      *135
 40000000 000000007330 CRST           *38
 41000000 000000001223 CRUN           *38        60        63        68        92
 41000000 000000000000 CSECT          *38
 40000000 000000000007 CSMPP          *38
 40000000 000000001000 CSPAC          *38
 40000000 000000000004 CSPAH          *38
 40000000 777777777776 CSPES          *38
 12:49 09/05/97  FILE=ZIM$DBPR.:ZIC0TSI       SYMBOL TABLE                                               60   BMAP - B00
 40000000 777777777776 CSPSB          *38
 40000000 000000000115 CSTS           *38
 40000000 000000000071 CSUB           *38
 40000000 000000000017 CSZ            *38
 41000000 000000000057 CTMASK         *38        94       271       594       792      1368      1400
 40000000 000000000774 CTPAI          *38
 00101000 000000001137 CUCER         *930
 40000000 000000000240 CURLN          *38
 40000000 000000000236 CURLT          *38
 40000000 000000000770 CURPG          *38
 40000000 000000000001 CURR           *38
 40000000 000000000035 CURRS          *38
 40000000 000000000037 CURSS          *38
 40000000 000000001005 CWRT           *38
 40000000 000000000237 CWSOF          *38
 60000000 000000000001 D              *38
 40000000 000000000003 DBAN           *38
 40000000 000000000036 DBDR           *38
 40000000 000000000037 DBFN           *38
 40000000 000000000754 DBK            *38
 40000000 000000000777 DBKAC          *38
 41000000 000000000000 DBKEY          *38        62       212       218       250       425       565
                                      718       720       747       749       759       776       888
 40000000 000000000000 DBKL           *38
 40000000 000000007474 DBKN           *38
 41000000 000000000776 DBKR           *38
 40000000 000000000777 DBKRQ          *38
 40000000 000000000234 DBKSI          *38
 40000000 000000000651 DBKSR          *38
 40000000 000000000047 DBKYN          *38
 40000000 000000210652 DBLC01         *38
 40000000 000000210653 DBLC05         *38
 40000000 000000303334 DBLC07         *38
 40000000 000000210655 DBLD01         *38
 41000000 000000000010 DBLIM          *38       752
 00101000 000000000004 DBP1           *58
 40000000 000000000033 DBPKY          *38
 12:49 09/05/97  FILE=ZIM$DBPR.:ZIC0TSI       SYMBOL TABLE                                               61   BMAP - B00
 40000000 000000000023 DBRN           *38
 40000000 000000000013 DBSN           *38
 40000000 000000000001 DBST           *38
 40000000 000000000757 DCDSR          *38
 40000000 000000210650 DCE1           *38
 01101000 000000001530 DCER1         1323     *1328
 40000000 000000001053 DCPR           *38
 40000000 000000001053 DCPW           *38
 40000000 000000000015 DCTBL          *38
 40000000 000000000032 DDBK           *38
 41000000 000000000006 DDCB           *38       836
 40000000 000000011754 DDI            *38
 41000000 000000000000 DEF            *38        64       197       201       243       284       294
                                      305       403       418       444       454       607       619
                                      709       738       805       815       979      1044      1102
                                     1174      1187      1203
 40000000 000000000014 DEF2           *38
 40000000 000000303413 DELAK          *38
 40000000 000000000036 DELRS          *38
 40000000 000000000732 DEPCW          *38
 40000000 000000303414 DLDBK          *38
 40000000 000000210627 DLE1           *38
 40000000 000000303310 DLE2           *38
 40000000 000000210631 DLE3           *38
 40000000 000000016040 DNES           *38
 40000000 777777777777 DPAGN          *38
 40000000 000000000020 DPPI           *38
 40000000 000000000053 DPSLW          *38
 40000000 000000000003 DS             *38
 40000000 000000001063 DSDES          *38
 40000000 000000303316 DSE1           *38
 41000000 000000000735 DUSEPA         *38       205
 61000000 000000000001 E              *38       282       340       452       487       617       647
                                      813       849
 40000000 000000303251 EDPER          *38
 40000000 000000000026 EEIND          *38
 40000000 000000000713 EFIND          *38
 12:49 09/05/97  FILE=ZIM$DBPR.:ZIC0TSI       SYMBOL TABLE                                               62   BMAP - B00
 40000000 000000001030 ELO            *38
 40000000 000000210711 ENCPNA         *38
 40000000 000000000007 ENCRP          *38
 40000000 000000000752 ENDSR          *38
 40000000 000000210647 ENE1           *38
 01101000 000000001543 ENER1         1344     *1349
 40000000 000000000716 ENIND          *38
 40000000 000000000013 ENTBL          *38
 40000000 000000000710 ENTNO          *38
 40000000 000000000712 ENTPTR         *38
 40000000 000000000717 ENTSZ          *38
 40000000 000000000711 ENTTYP         *38
 01101000 000000001055 EOAN           772      *830
 01101000 000000001055 EOAP           766      *829
 41000000 000000004064 EOSR           *38       327       633       838
 01101000 000000000157 EPAST1         209      *210
 01101000 000000000170 EPAST2         215      *216
 40000000 000000000004 ES             *38
 41000000 000000000100 ESTSZ          *38
 40000000 000000000725 ESZ            *38
 40000000 000000000005 ETCADR         *38
 40000000 000000000005 ETCDBNO        *38
 40000000 000000000064 EXCCD          *38
 00101000 000000001134 FACE1         *926
 40000000 000000234534 FALRT          *38
 40000000 000000001055 FBF72          *38
 40000000 000000001025 FBU61          *38
 40000000 000000001020 FBUF           *38
 40000000 000000001026 FBUF1          *38
 40000000 000000001027 FBUF4          *38
 40000000 000000001024 FBUF6          *38
 40000000 000000001022 FBUFM          *38
 40000000 000000001021 FBUFU          *38
 40000000 000000001023 FBUMD          *38
 40000000 000000000004 FCN            *38
 40000000 000000000051 FCNT           *38
 40000000 000000000002 FCP            *38
 12:49 09/05/97  FILE=ZIM$DBPR.:ZIC0TSI       SYMBOL TABLE                                               63   BMAP - B00
 40000000 000000000047 FCSS           *38
 40000000 000000000005 FD             *38
 01101000 000000001137 FDCER          929      *933
 40000000 000000210637 FDE1           *38
 40000000 000000303320 FDE2           *38
 40000000 000000303321 FDE3           *38
 40000000 000000210642 FDE4           *38
 40000000 000000210643 FDE5           *38
 40000000 000000210644 FDE6           *38
 40000000 000000303325 FDE7           *38
 41000000 000000303326 FDE8           *38       122
 01101000 000000001134 FDER           889      *925
 00101000 000000001127 FDRET         *906
 40000000 000000000021 FEASZ          *38
 01101000 000000001501 FEQ           1224      1233      1247      1257      1266      1280     *1284
 40000000 000000000740 FETM           *38
 40000000 000000000006 FI             *38
 40000000 000000000103 FIAC           *38
 41000000 000000001100 FIB1           *38
 41000000 000000001130 FIBP           *38
 40000000 000000000000 FIBX           *38
 40000000 000000000102 FICNT          *38
 40000000 000000000005 FIPN           *38
 40000000 000000000054 FKIND          *38
 40000000 000000000015 FLAGS          *38
 40000000 000000000244 FLDDSC         *38
 40000000 000000000046 FLDTL          *38
 01101000 000000001465 FLPT          1183     *1270
 40000000 000000000020 FMSBF          *38
 40000000 000000000006 FNAM           *38
 40000000 000000000250 FNIND          *38
 40000000 000000000004 FNL            *38
 01101000 000000000341 FNPAE          215      *355
 01101000 000000000345 FNR1           339       346       356       363      *365
 01101000 000000000502 FOR1           482       486       492       500       507      *509
 01101000 000000000341 FPPAE          209      *354
 40000000 000000000101 FRAC           *38
 12:49 09/05/97  FILE=ZIM$DBPR.:ZIC0TSI       SYMBOL TABLE                                               64   BMAP - B00
 41000000 000000000002 FRANGE         *38       710       739
 40000000 000000211400 FRDNL          *38
 40000000 000000200000 FRTRN          *38
 40000000 000000000005 FRWSO          *38
 40000000 000000000767 FSLN           *38
 40000000 000000000766 FSOF           *38
 40000000 000000000060 FTIND          *38
 40000000 000000303240 FTLINCR        *38
 40000000 000000000021 FWSSZ          *38
 40000000 000000000246 GACDK          *38
 01101000 000000001346 GCOMC         1165     *1173
 40000000 000000000014 GDCB           *38
 01101000 000000001055 GEHIGH         771      *832
 41000000 000000000006 GERROR         *38        87        90       188       209       215       253
                                      274       308       396       427       443       567       606
                                      612       701       730       766       772       803       889
                                      956      1053      1076      1111      1323      1344
 01101000 000000000217 GETL           213       219      *251
 40000000 000000000016 GINHIB         *38
 41000000 000000000020 GIOAWS         *38       255       429       569       777       891
 40000000 000000000022 GIOBUF         *38
 40000000 000000000021 GIOPGNO        *38
 01101000 000000000771 GNA            762      *768
 01101000 000000000523 GNC            546      *554
 01101000 000000000134 GNP            186      *194
 01101000 000000000162 GNXPA          208      *214
 01101000 000000000202 GNXT           223      *231
 01101000 000000000205 GOTP           230      *238
 01101000 000000000254 GOTRS          273      *277
 01101000 000000001001 GPA            767      *774
 40000000 000000000015 GPAGE          *38
 01101000 000000000526 GPC            553      *561
 01101000 000000000115 GRC1           174      *178
 40000000 000000000010 GRETAC         *38
 40000000 000000000011 GRETFR         *38
 40000000 000000000013 GRETRC         *38
 40000000 000000000012 GRETSC         *38
 12:49 09/05/97  FILE=ZIM$DBPR.:ZIC0TSI       SYMBOL TABLE                                               65   BMAP - B00
 40000000 000000000025 GRLCW          *38
 01101000 000000000215 GSETN          245      *248
 01101000 000000000405 GSETO          420      *423
 40000000 000000000014 GSTCD          *38
 40000000 000000000007 GSYSERR        *38
 40000000 000000000010 GT             *38
 01101000 000000000063 GTCR            56      *102
 40000000 000000000046 GTRNAME        *38
 40000000 000000000055 GTRPDCB        *38
 40000000 000000000056 GTRPNO         *38
 40000000 000000000057 GTRRDBK        *38
 40000000 000000000060 GTRRTYPE       *38
 01101000 000000000365 GTRSO          394      *401
 40000000 000000000060 GTRTYPE        *38
 40000000 000000000027 HASH           *38
 40000000 000000000022 HIA            *38
 40000000 000000000775 HIDB           *38
 41000000 000000000003 HIGHDBK        *38       713       742       754
 40000000 000000000004 HIGHPG         *38
 40000000 000000001037 HIL            *38
 40000000 000000000002 HILN           *38
 41000000 000000000006 HPOS           *38       409
 40000000 000000000756 IAAC           *38
 40000000 000000001011 IACLN          *38
 40000000 000000001010 IALC           *38
 40000000 000000010314 IAN            *38
 40000000 000000001012 IANLN          *38
 40000000 000000000001 IASID          *37
 40000000 000000020320 ICA            *38
 00101000 000000001137 ICER5         *931
 40000000 000000000023 ICKSMP         *38
 40000000 000000000024 ICKSMV         *38
 40000000 000000210742 ICNR           *38
 41000000 000000000020 ICSIZ          *38
 40000000 000000010004 IDBK           *38
 40000000 000000012120 IDI            *38
 40000000 000000000023 IDS            *38
 12:49 09/05/97  FILE=ZIM$DBPR.:ZIC0TSI       SYMBOL TABLE                                               66   BMAP - B00
 40000000 000000000011 IF             *38
 40000000 000000000021 IFIPN          *38
 40000000 000000000000 IFR            *38
 40000000 000000234546 IKSEQ          *38
 01101000 000000001510 ILCC          1252     *1299
 40000000 000000000113 INAFLAG        *38
 40000000 000000000016 INCHA          *38
 40000000 000000210566 INNM           *38
 40000000 000000210567 INSS           *38
 40000000 000000210575 INSST          *38
 40000000 000000303241 INTER          *38
 01101000 000000000045 INTG            67       *89
 40000000 000000400000 INTII          *38
 40000000 000000000013 INTVL          *38
 40000000 000000001060 INVFLG         *38
 40000000 000000001043 INVOF          *38
 40000000 000000000014 INVT           *38
 40000000 000000000034 IOBLK          *38
 40000000 000000303354 IOCLSD         *38
 40000000 000000303355 IOCLSK         *38
 40000000 000000303257 IOE1           *38
 40000000 000000303264 IOE11          *38
 40000000 000000303265 IOE12          *38
 40000000 000000303266 IOE18          *38
 40000000 000000303260 IOE2           *38
 40000000 000000303261 IOE3           *38
 40000000 000000303262 IOE7           *38
 40000000 000000303263 IOE8           *38
 40000000 000000303363 IOFLSH         *38
 40000000 000000210676 IOGDCB         *38
 40000000 000000001002 IOINC          *38
 40000000 000000305160 IOINI          *38
 40000000 000000305155 IONOTIDS       *38
 40000000 000000305154 IONOTKEY       *38
 40000000 000000210677 IOOPND         *38
 40000000 000000210700 IOOPNK         *38
 40000000 000000303361 IORDD          *38
 12:49 09/05/97  FILE=ZIM$DBPR.:ZIC0TSI       SYMBOL TABLE                                               67   BMAP - B00
 40000000 000000305156 IOSCHEMA       *38
 40000000 000000001052 IOSTS          *38
 40000000 000000303362 IOWRTD         *38
 41000000 000000000750 IOWS           *38
 40000000 000000000647 IPC            *38
 40000000 000000000650 IPCF           *38
 40000000 000000000006 IROLLFLAG      *38
 40000000 000000010150 IRSN           *38
 40000000 000000000004 ISYSDCB        *38
 40000000 000000000005 ISYSERR        *38
 40000000 000000000061 ITPTR          *38
 40000000 000000000060 ITRS           *38
 40000000 000000021760 IUM            *38
 40000000 000000000017 IUSZ           *38
 40000000 000000234522 IVDBK          *38
 40000000 000000000011 IXBUF$         *38
 40000000 000000000046 IXFBSZ         *38
 40000000 777777777776 IXID           *38
 40000000 777777777777 IXPLL          *38
 40000000 000000000523 KCARG0         *38
 40000000 000000000524 KCARG3         *38
 40000000 000000000525 KCARG4         *38
 40000000 000000000700 KCREG          *38
 40000000 000000000006 KDCB           *38
 40000000 000000000666 KEYDS          *38
 41000000 000000000010 KEYPA          *38        78
 40000000 777777777776 KLNG           *38
 40000000 000000000022 KPASZ          *38
 40000000 000000000006 KWSZ           *38
 40000000 000000000052 LANGC          *38
 40000000 000000001014 LAS            *38
 01101000 000000001260 LCD1          1043     *1056
 01101000 000000001324 LCD2          1100     *1115
 01101000 000000001232 LCD3           995     *1024
 40000000 000000700000 LCODM          *38
 40000000 000000001045 LDPSI          *38
 01101000 000000001055 LELOW          765      *831
 12:49 09/05/97  FILE=ZIM$DBPR.:ZIC0TSI       SYMBOL TABLE                                               68   BMAP - B00
 01101000 000000000100 LER1            99      *121
 40000000 000000001071 LINPT          *38
 01101000 000000001157 LMC1           952      *959
 40000000 000000001017 LNCNT          *38
 40000000 000000000762 LNNO           *38
 01101000 000000001130 LNP            889      *911
 40000000 000000001036 LOL            *38
 40000000 000000000715 LOLIM          *38
 01101000 000000001547 LOOP1        *1369      1374
 01101000 000000001565 LOOP2        *1402      1407
 01101000 000000000120 LOOP3         *183       319
 01101000 000000001605 LOOP4        *1438      1442
 40000000 000000000023 LPASZ          *38
 40000000 000000000012 LPP            *38
 41000000 000000257764 LR             *38       841
 40000000 000000301270 LRA            *38
 40000000 000000000017 LRSZ           *38
 40000000 000000001035 LSPC           *38
 40000000 000000000750 LUPD           *38
 61000000 000000000001 M9             *38       226       228       234       236       410       412
                                      549       551       557       559
 01101000 000000001160 MCER1          956      *961
 01101000 000000001144 MCL1          *949       957
 40000000 000000000013 MD             *38
 40000000 000000300000 MDQS           *38
 40000000 000000000730 MEMPTR         *38
 40000000 000000000727 MEMTYP         *38
 01101000 000000001273 MKER1         1076     *1081
 01101000 000000001261 MKER2         1053     *1061
 40000000 000000000045 MODCD          *38
 41000000 000000001207 MODFL          *38
 40000000 000000000042 MODFR          *38
 40000000 000000000044 MODIN          *38
 40000000 000000000044 MODRS          *38
 40000000 000000000043 MODSC          *38
 40000000 000000000047 MRBKI          *38
 40000000 000000210632 MRE4           *38
 12:49 09/05/97  FILE=ZIM$DBPR.:ZIC0TSI       SYMBOL TABLE                                               69   BMAP - B00
 40000000 000000303313 MRE5           *38
 40000000 000000210634 MRE7           *38
 01101000 000000001237 MSL1         *1039      1054
 01101000 000000001240 MSL11        *1041      1049
 40000000 000000400000 MW             *38
 01101000 000000001073 NAER1          772      *862
 01101000 000000001041 NAF            794      *809
 01101000 000000001076 NAR1           853       866      *868
 01101000 000000000512 NC1            534      *538
 01101000 000000000570 NC2            591      *598       606       609       612
 01101000 000000000636 NCER1          563      *641
 40000000 000000000025 NCH            *38
 40000000 000000000002 NCHA           *38
 40000000 000000000005 NCHRS          *38
 01101000 000000000512 NCLP1         *540       602
 01101000 000000000652 NCR1           646       652       663      *665
 40000000 000000000014 NDCD           *38
 40000000 000000000012 NENC           *38
 01101000 000000000326 NER1           240      *334
 40000000 000000000634 NEW            *38
 40000000 000000001072 NEWSIZ         *38
 40000000 000000235164 NKA            *38
 40000000 000000235020 NKDB           *38
 40000000 000000303415 NLDBK          *38
 40000000 777777777777 NLIND          *38
 40000000 000000001040 NLN            *38
 40000000 000000400000 NLNSA          *38
 01101000 000000001064 NOACER         837      *840
 41000000 000000001053 NOBF           *38
 40000000 000000000711 NOPTRS         *38
 01101000 000000001073 NORA           701       730      *863
 01101000 000000000747 NORC           700       729      *751
 01101000 000000000173 NPA            200       204       206      *220
 40000000 000000000742 NPARCW         *38
 41000000 000000000630 NPIND          *38       173       177       207       222       533       537
                                      545       696       725       761
 41000000 000000000004 NPOS           *38       233
 12:49 09/05/97  FILE=ZIM$DBPR.:ZIC0TSI       SYMBOL TABLE                                               70   BMAP - B00
 01101000 000000001030 NREQ           791      *802
 01101000 000000000574 NREQ1          593      *604
 40000000 000000234510 NSA            *38
 40000000 000000234654 NSCS           *38
 40000000 000000234344 NSDB           *38
 01101000 000000000315 NSSR           303       307       308      *315
 40000000 000000000001 NSTS           *38
 01101000 000000001423 NUME          1179     *1228
 40000000 000000000726 NUMENT         *38
 40000000 000000000727 NUMPTR         *38
 40000000 777777777760 NXBUF          *38
 40000000 000000000713 NXPRI          *38
 40000000 000000000771 NXTC           *38
 01101000 000000000321 NXTF           299       311       313      *321
 40000000 000000000001 OAACN          *38
 40000000 000000000022 OACIWSOF       *38
 41000000 000000000001 OAOFST         *38       181       605       635       644
 40000000 000000000002 OARCN          *38
 40000000 000000000001 OASCN          *38
 01101000 000000000455 OCUR           405      *468
 40000000 000000000014 OD             *38
 40000000 000000000074 ODBK           *38
 01101000 000000000461 OER1           415      *477
 40000000 000000001072 OLDSIZ         *38
 40000000 000000000101 OPADP          *38
 40000000 000000000741 OPARCW         *38
 01101000 000000000466 OPERR          446      *483
 40000000 000000210570 ORDNI          *38
 40000000 777777777777 OTVL           *38
 01101000 000000000322 OWNF           296      *326
 40000000 000000000252 OWNPTR         *38
 40000000 000000000016 PABUF          *38
 40000000 000000001041 PACD           *38
 40000000 000000000001 PACW           *38
 40000000 000000000733 PADBK          *38
 40000000 000000000740 PADUP          *38
 40000000 000000000745 PAEN           *38
 12:49 09/05/97  FILE=ZIM$DBPR.:ZIC0TSI       SYMBOL TABLE                                               71   BMAP - B00
 40000000 000000000745 PAEO           *38
 40000000 000000000734 PAEOF          *38
 40000000 000000303336 PAER1          *38
 40000000 000000303337 PAER2          *38
 40000000 000000303340 PAER3          *38
 40000000 000000303341 PAER4          *38
 40000000 000000303342 PAER5          *38
 40000000 000000303343 PAER6          *38
 40000000 000000000747 PAESZ          *38
 40000000 000000001060 PAFLG          *38
 40000000 000000000731 PAOPTR         *38
 40000000 000000000734 PAPOF          *38
 40000000 000000000714 PARCW          *38
 40000000 000000000726 PARVPA         *38
 40000000 000000000724 PASPLT         *38
 40000000 000000000004 PAWSZ          *38
 40000000 777777777762 PBUF           *38
 40000000 000000000020 PC             *38
 41000000 000000000510 PCB            *38
 41000000 000000000642 PCD            *38       948       950       953      1038      1040      1050
                                     1096      1098      1101
 40000000 000000000642 PCD2           *38
 40000000 000000000247 PCEXI          *38
 40000000 000000000675 PCMIN          *38
 40000000 000000004541 PCOMP          *38
 40000000 000000000010 PD             *38
 40000000 000000000040 PE             *38
 40000000 000000000017 PENDING        *38
 01101000 000000000104 PER12           87        90      *129
 40000000 000000000004 PF             *38
 40000000 000000000400 PFG            *38
 40000000 000000000200 PFM            *38
 40000000 000000000100 PFS            *38
 40000000 000000000400 PG             *38
 01101000 000000000342 PGER           253      *360
 01101000 000000000647 PGER3          567      *660
 01101000 000000000477 PGER5          427      *504
 12:49 09/05/97  FILE=ZIM$DBPR.:ZIC0TSI       SYMBOL TABLE                                               72   BMAP - B00
 40000000 000000001064 PGHD           *38
 40000000 000000000006 PGLIM          *38
 41000000 000000000003 PGRNG          *38       702       715       731       744
 40000000 000000000746 PGSIZE         *38
 40000000 000000000641 PGSPLT         *38
 40000000 000000000100 PKAW           *38
 40000000 000000001034 PLO            *38
 40000000 000000000004 PLSEP          *38
 40000000 000000000200 PM             *38
 01101000 000000000512 PNC            182      *539
 40000000 000000001054 PNEOO          *38
 40000000 000000001047 POFSI          *38
 41000000 000000000005 PPOS           *38       225
 40000000 000000000000 PR0            *37
 41000000 000000000001 PR1            *37        78        80        86
 40000000 000000000002 PR2            *37
 41000000 000000000003 PR3            *37       221       257       262       407       431       436
                                      543       571       578       779       784       893       900
                                      977      1075      1163      1322      1343
 41000000 000000000004 PR4            *37       258       432       572       780       894       978
                                     1164
 41000000 000000000005 PR5            *37        87        90       188       209       215       253
                                      255       274       308       396       427       429       443
                                      567       569       606       612       701       730       766
                                      772       777       803       889       891       956      1053
                                     1076      1111      1323      1344
 41000000 000000000006 PR6            *37        64        71        72        74        75        95
                                      181       197       201       225       233       243       247
                                      272       283       284       294       305       403       409
                                      418       422       444       453       454       548       556
                                      595       605       607       618       619       635       644
                                      702       704       709       712       715       731       733
                                      738       741       744       752       753       793       805
                                      814       815       835       951       954       979       983
                                     1001      1042      1044      1051      1099      1102      1108
                                     1160      1170      1174      1187      1203      1208      1218
                                     1232      1243      1256      1265      1276      1303      1370
 12:49 09/05/97  FILE=ZIM$DBPR.:ZIC0TSI       SYMBOL TABLE                                               73   BMAP - B00
                                     1372      1373      1403      1405      1406      1439      1441
 41000000 000000000007 PR7            *37        55        59        60        62        63        68
                                       69        70        73        76        77        78        79
                                       85        91        92        93        94        97       103
                                      104       105       118       123       173       177       180
                                      184       185       187       189       190       191       192
                                      195       205       207       211       212       217       218
                                      221       222       227       235       239       242       246
                                      249       250       254       256       257       258       259
                                      263       264       266       267       268       269       270
                                      271       275       276       278       279       280       287
                                      290       298       301       310       312       316       317
                                      318       337       338       343       344       391       392
                                      393       395       397       398       399       400       402
                                      407       411       414       417       421       424       425
                                      428       430       431       432       433       437       438
                                      440       441       447       448       449       450       457
                                      460       469       470       471       480       481       490
                                      533       537       542       543       544       545       550
                                      558       562       564       565       568       570       571
                                      572       573       574       575       579       580       582
                                      587       592       594       599       600       601       610
                                      611       615       622       625       645       650       696
                                      697       698       699       713       716       718       720
                                      725       726       727       728       742       745       747
                                      749       754       755       758       759       760       761
                                      764       770       775       776       778       779       780
                                      781       785       786       788       789       790       792
                                      797       798       799       810       811       818       821
                                      833       834       836       887       888       890       892
                                      893       894       895       896       897       901       902
                                      904       947       948       950       953       955       975
                                      976       977       978       988       990       993       994
                                     1003      1006      1007      1010      1012      1013      1015
                                     1017      1019      1021      1022      1037      1038      1040
                                     1050      1052      1074      1075      1095      1096      1098
                                     1101      1109      1110      1158      1159      1162      1163
 12:49 09/05/97  FILE=ZIM$DBPR.:ZIC0TSI       SYMBOL TABLE                                               74   BMAP - B00
                                     1164      1169      1172      1186      1191      1193      1196
                                     1197      1199      1202      1210      1212      1213      1215
                                     1219      1222      1223      1229      1231      1238      1240
                                     1241      1244      1245      1246      1253      1255      1262
                                     1264      1271      1273      1274      1277      1278      1279
                                     1289      1294      1320      1321      1322      1341      1342
                                     1343      1366      1368      1376      1399      1400      1409
                                     1433      1444
 01101000 000000001073 PRAER1         766      *861
 41000000 000000303267 PRE1           *38       117
 41000000 000000303277 PRE10          *38      1300
 41000000 000000303270 PRE3           *38       484
 40000000 000000303271 PRE4           *38
 40000000 000000303272 PRE5           *38
 41000000 000000210613 PRE6           *38      1381
 41000000 000000210614 PRE7           *38      1414
 41000000 000000210615 PRE8           *38      1449
 40000000 000000303276 PRE9           *38
 40000000 000000000522 PREXC          *38
 41000000 000000000521 PRFR           *38       955       975      1052      1074      1109      1159
                                     1169      1186      1321      1342
 41000000 000000000521 PRFR2          *38      1110      1202      1229      1238      1253      1262
                                     1271
 40000000 000000000000 PRIV           *38
 40000000 000000000526 PROPA          *38
 41000000 000000000517 PRRC           *38        70       298       310       587       592       699
                                      728       790
 40000000 000000000517 PRRS           *38
 41000000 000000000520 PRSC           *38        76       180       392       441
 41000000 000000000516 PRSS           *38       947      1037      1095
 40000000 000000000644 PRSTS          *38
 40000000 000000000100 PS             *38
 41000000 000000000000 PS0SID         *37
 41000000 000000000001 PS1SID         *37
 41000000 000000000002 PS2SID         *37
 41000000 000000000003 PS3SID         *37
 41000000 000000000004 PS4SID         *37
 12:49 09/05/97  FILE=ZIM$DBPR.:ZIC0TSI       SYMBOL TABLE                                               75   BMAP - B00
 40000000 000000000005 PS5SID         *37
 40000000 000000000006 PS6SID         *37
 40000000 000000303416 PSA            *38
 40000000 000000000020 PSC            *38
 40000000 000000000010 PSD            *38
 40000000 000000000004 PSF            *38
 40000000 000000000400 PSO            *38
 40000000 000000000720 PTESZ          *38
 41000000 000000000631 PTR            *38       227       235       239       242       411       414
                                      417       550       558       562
 40000000 000000000724 PTRESZ         *38
 40000000 000000000710 PTRNO          *38
 41000000 000000000630 PWS            *38
 01101000 000000001024 RA2           *796       803       807
 01101000 000000000753 RACOM          719       721       748       750      *756
 41000000 000000000002 RADDR          *38       221       257       407       431       543       571
                                      779       893       977      1163      1322      1343
 40000000 000000000010 RADIX          *38
 01101000 000000000753 RAL1          *757       800
 01101000 000000001613 RANF          1440     *1448
 40000000 000000000005 RAPTR          *38
 01101000 000000000702 RARNG1         711      *715
 01101000 000000000740 RARNG2         740      *744
 41000000 000000000004 RAWSOF         *38       712       741
 40000000 777777777766 RBA            *38
 40000000 000000023432 RCBI           *38
 40000000 000000211234 RCDNL          *38
 01101000 000000000340 RCER2          188      *351
 01101000 000000000340 RCER3          274      *352
 41000000 000000000005 RCFRH          *38      1303
 40000000 000000000004 RCFRN          *38
 40000000 000000001075 RCHD           *38
 40000000 000000000001 RCID           *38
 01101000 000000001556 RCNF1         1371     *1380
 01101000 000000001574 RCNF2         1404     *1413
 41000000 000000000006 RCPTR          *38        69        97       190       270       278       312
                                      338       398       448       481       574       615       645
 12:49 09/05/97  FILE=ZIM$DBPR.:ZIC0TSI       SYMBOL TABLE                                               76   BMAP - B00
                                      811       896
 41000000 000000000002 RCRAH          *38      1372
 41000000 000000000001 RCRAN          *38        71      1439
 41000000 000000000003 RCRSH          *38      1405
 41000000 000000000002 RCRSN          *38        74
 40000000 000000210667 RCVER1         *38
 40000000 000000210670 RCVER2         *38
 40000000 000000210671 RCVER4         *38
 40000000 000000210672 RCVER5         *38
 40000000 000000210673 RCVER6         *38
 40000000 000000000736 RCW1           *38
 40000000 000000000737 RCW2           *38
 40000000 000000000004 RCWSO          *38
 40000000 000000000077 RDAC           *38
 40000000 000000000076 RDCNT          *38
 40000000 000000040000 RDI            *38
 41000000 000000015674 RDLT           *38       912
 40000000 000000000075 RDYCW          *38
 40000000 000000000066 RECAC          *38
 40000000 000000000065 RECFR          *38
 40000000 000000000070 RECRC          *38
 40000000 000000000067 RECSC          *38
 41000000 000000000003 RECSZ          *38       287       290       457       460       622       625
                                      818       821
 40000000 000000000235 REMLT          *38
 40000000 000000000062 REM_RECOVER    *38
 01101000 000000000066 RET             88       100      *106
 40000000 000000000251 RETFR          *38
 40000000 000000210724 RFDNL          *38
 01101000 000000000616 RFND           596      *614
 01101000 000000000630 RFND1          588      *627
 40000000 000000017644 RIM            *38
 40000000 000000000005 RNAM           *38
 40000000 000000015706 RNDLT          *38
 41000000 000000000662 RNG1           *38       716       745       755       764       770
 40000000 000000000664 RNG2           *38
 40000000 000000000073 RNGD           *38
 12:49 09/05/97  FILE=ZIM$DBPR.:ZIC0TSI       SYMBOL TABLE                                               77   BMAP - B00
 40000000 000000000072 RNGO           *38
 40000000 000000000660 RNGTAL         *38
 01101000 000000000475 RNIS1          396      *497
 41000000 000000020154 RNM            *38       335       478       642
 40000000 000000000041 ROCUR          *38
 41000000 000000000001 ROFST          *38       983      1001      1160      1170      1208      1218
                                     1232      1243      1256      1265      1276
 40000000 000000002114 ROLL           *38
 40000000 000000020010 RPM            *38
 40000000 000000000001 RSCDH          *38
 41000000 000000000001 RSCDN          *38       951      1042      1099
 40000000 000000211710 RSDNL          *38
 40000000 000000004540 RSEE           *38
 41000000 000000000003 RSIZ           *38       283       453       618       814
 40000000 000000000110 RSPAM          *38
 41000000 000000000004 RSPTR          *38       192       195       268       280       400       402
                                      450
 40000000 000000000037 RSREQ          *38
 40000000 000000000002 RSSSH          *38
 40000000 000000000001 RSSSN          *38
 41000000 000000210574 RSZER          *38       342       489       649       851
 41000000 000000000632 RSZTP          *38       263       264       301       437       438       579
                                      580       785       786       901       902
 41000000 000000000003 RTP            *38        93       187       266       395       440       582
                                      788       904
 41000000 000000000003 RTYP           *38        95       272       595       793      1373      1406
 40000000 000000000530 RV1            *38
 40000000 000000000550 RV2            *38
 40000000 000000000570 RV3            *38
 40000000 000000000610 RV4            *38
 40000000 000000000003 RVASID         *37
 41000000 000000000510 RVI            *38        59        91       103       105       184       189
                                      267       316       318       391       397       469       471
                                      542       599       601       697       726       758       797
                                      799       833       887       890      1320
 41000000 000000000511 RVO            *38        55       104       211       217       249       254
                                      275       317       343       424       428       447       470
 12:49 09/05/97  FILE=ZIM$DBPR.:ZIC0TSI       SYMBOL TABLE                                               78   BMAP - B00
                                      564       568       600       610       775       798       810
                                     1158
 40000000 000000000513 RVPA           *38
 41000000 000000000512 RVT            *38       976      1341
 40000000 000000000022 RVTAL          *38
 40000000 000000000002 RWSZ           *38
 40000000 000000000015 RY             *38
 40000000 000000210620 RYE1           *38
 40000000 000000210621 RYE4           *38
 40000000 777777777767 SA             *38
 40000000 000000000005 SANAM          *38
 40000000 000000001062 SCDES          *38
 40000000 000000211544 SCDNL          *38
 40000000 000000000024 SCFC           *38
 40000000 000000000002 SCID           *38
 40000000 000000000024 SCLST          *38
 40000000 000000000004 SCNAM          *38
 41000000 000000000004 SCPTR          *38       185       191       269       279       337       393
                                      399       449       480       575       789       897
 41000000 000000000003 SCRSH          *38        75
 41000000 000000000002 SCRSN          *38      1403
 40000000 000000000001 SCWSO          *38
 40000000 000000001225 SFWS           *38
 40000000 000000001073 SIZCHG         *38
 40000000 000000000645 SKFLG          *38
 40000000 000000000643 SKIND          *38
 40000000 000000000641 SKTYP          *38
 40000000 000000020464 SMCR           *38
 40000000 000000000003 SNAM           *38
 40000000 000000000107 SNIND          *38
 40000000 000000000735 SNPAE          *38
 40000000 000000001046 SNSI           *38
 40000000 000000000743 SOE            *38
 01101000 000000000475 SONF           443      *498
 40000000 000000020630 SORSA          *38
 40000000 000000004374 SOSE           *38
 40000000 000000000000 SPAV           *38
 12:49 09/05/97  FILE=ZIM$DBPR.:ZIC0TSI       SYMBOL TABLE                                               79   BMAP - B00
 40000000 000000000744 SPCAVN         *38
 40000000 000000000744 SPCAVO         *38
 40000000 000000000765 SPLF           *38
 41000000 000000000765 SPND           *38
 40000000 000000000006 SSDT           *38
 40000000 000000303243 SSER           *38
 40000000 000000303244 SSER1          *38
 40000000 000000000002 SSH            *38
 40000000 000000000005 SSNAM          *38
 40000000 000000210573 SSNF           *38
 40000000 000000210576 SSNV           *38
 40000000 000000000020 SSSPTR         *38
 40000000 000000000010 SSVDT          *38
 40000000 000000000033 SSZTP          *38
 40000000 000000000017 ST             *38
 40000000 000000000104 STBIN          *38
 40000000 000000000105 STDEC          *38
 40000000 000000303302 STE1           *38
 40000000 000000303303 STE2           *38
 40000000 000000210624 STE3           *38
 40000000 000000303305 STE4           *38
 40000000 000000303306 STE5           *38
 41000000 000000000100 STKSIZ         *38
 40000000 000000000055 STMASK         *38
 40000000 000000000062 SUST           *38
 41000000 000000000020 SWS            *38
 40000000 000000000000 SWSAC          *38
 40000000 000000000002 SWSZ           *38
 40000000 000000000000 SYSSF          *38
 01101000 000000000333 SZE1           288       291      *341
 01101000 000000000471 SZE2           458       461      *488
 01101000 000000000643 SZE3           623       626      *648
 01101000 000000001070 SZE7           819       822      *850
 40000000 000000000765 SZREQ          *38
 01101000 000000001502 TBG           1225      1234      1248      1258      1267      1281     *1287
 01101000 000000001505 TBL           1226      1235      1249      1259      1268      1282     *1292
 41000000 000000000004 TBUF           *38       978      1075      1164
 12:49 09/05/97  FILE=ZIM$DBPR.:ZIC0TSI       SYMBOL TABLE                                               80   BMAP - B00
 40000000 000000001061 TCTRS          *38
 60000000 000000000000 TDS            *38
 41000000 000000000113 TEMP           *38
 41000000 000000000640 TFLD           *38       990       994      1007      1012      1015      1019
                                     1022      1162      1172      1191      1197      1199      1222
                                     1231      1240      1255      1264      1273
 41000000 000000000657 TFLD2          *38       988       993      1213      1215      1219      1223
 40000000 000000000056 TMASK          *38
 40000000 000000000061 TMODE          *38
 40000000 000000000676 TMPPA          *38
 40000000 000000000003 TPAI           *38
 40000000 000000500000 TPRCOD         *38
 40000000 000000001031 TSFN           *38
 40000000 000000000021 TSI            *38
 40000000 000000001013 UBRD2          *38
 41000000 000000001223 UBSZ           *38
 40000000 000000000667 UCADR          *38
 40000000 000000000036 UCRS           *38
 40000000 000000000024 UFSPK          *38
 40000000 000000000024 UFSPK2         *38
 40000000 000000000715 ULIM           *38
 40000000 000000004230 UNA            *38
 40000000 000000303417 UNIM           *38
 40000000 000000000002 UOFST          *38
 40000000 000000001035 UPACD          *38
 40000000 000000000721 UPACW          *38
 40000000 000000000007 UPFLAG         *38
 40000000 000000000103 UPPAI          *38
 40000000 000000000004 UPTSID         *37
 40000000 000000000674 USTAT          *38
 40000000 000000000002 UWASID         *37
 40000000 000000000002 UWSSZ          *38
 40000000 000000000020 UWSZ           *38
 40000000 000000000243 VFDSC          *38
 40000000 000000001070 VFDSR          *38
 41000000 000000000656 VFLD           *38      1003      1006      1010      1013      1017      1021
                                     1193      1196      1210      1212
 12:49 09/05/97  FILE=ZIM$DBPR.:ZIC0TSI       SYMBOL TABLE                                               81   BMAP - B00
 40000000 000000001074 VFLNG          *38
 40000000 000000001124 VIB1           *38
 40000000 000000001154 VIBP           *38
 40000000 000000000000 VLPSID         *37
 01101000 000000001206 VRFLD          981      *999
 40000000 000000001074 VRSIZ          *38
 40000000 000000001067 WLOA           *38
 40000000 000000100000 WRTI           *38
 40000000 000000000000 WSBID          *38
 41000000 000000000003 WSOF           *38       753       835
 41000000 000000000000 X0             *37        71        72        73       112       118       123
                                      246       259       276       328       336       344       353
                                      421       433       479       485       490       499       544
                                      573       611       634       643       650       698       727
                                      760       781       834       895       950       951       953
                                     1040      1042      1050      1098      1099      1101      1301
                                     1415
 41000000 000000000001 X1             *37        55        87        90       188       197       198
                                      199       201       202       203       205       209       215
                                      243       244       253       274       283       287       290
                                      294       295       301       302       305       306       308
                                      396       403       404       418       419       427       443
                                      444       445       453       457       460       567       606
                                      607       608       612       618       622       625       701
                                      730       753       766       772       803       805       806
                                      814       818       821       835       889       956       976
                                      979       980       984       985      1009      1010      1044
                                     1045      1047      1048      1053      1076      1102      1103
                                     1105      1106      1111      1187      1188      1198      1199
                                     1203      1204      1214      1215      1288      1289      1293
                                     1294      1323      1341      1344      1366      1376      1399
                                     1409      1433      1444
 41000000 000000000002 X2             *37       211       217       249       254       275       343
                                      424       428       447       564       568       610       775
                                      810       890      1158
 41000000 000000000003 X3             *37        59        91       184       189       267       391
                                      397       542       697       726       758       833       887
 12:49 09/05/97  FILE=ZIM$DBPR.:ZIC0TSI       SYMBOL TABLE                                               82   BMAP - B00
                                     1320
 41000000 000000000004 X4             *37       947       948       954       955       975      1037
                                     1038      1051      1052      1074      1095      1096      1108
                                     1109      1110      1159      1169      1186      1202      1229
                                     1238      1253      1262      1271      1321      1342      1367
                                     1370      1434      1439
 41000000 000000000005 X5             *37        74       192       195       268       280       400
                                      402       450      1401      1403
 41000000 000000000006 X6             *37        75        76       113       119       124       180
                                      181       185       191       269       279       337       345
                                      361       392       393       399       441       449       480
                                      491       505       605       635       644       651       661
                                      843       852       864       913       927      1302      1382
                                     1450
 03201011 000000000000 X66_ARET       *37       106       322       464       473       628       825
                                      907       960      1025      1057      1077      1113      1290
                                     1295      1324      1345
 03201010 000000000000 X66_AUTO_0     *37        54       172       176       389       532       536
                                      695       724       886       946       974      1036      1073
                                     1094      1156      1168      1319      1340
 41000000 000000000007 X7             *37        63        64        65        66        68        69
                                       70        77        92        97       114       190       270
                                      278       310       312       329       338       362       398
                                      448       481       506       587       592       615       636
                                      645       662       699       704       709       710       712
                                      728       733       738       739       741       790       811
                                      836       844       865       914       928      1303      1372
                                     1383      1405      1416
 40000000 000000210665 XASL           *38
 40000000 000000303420 XLD            *38
 40000000 000000303421 XPD            *38
 40000000 000000000676 XPRS           *38
 40000000 000000210666 XROLL          *38
 40000000 000000210664 XUNEX          *38
 40000000 777777777777 XXDPN          *38
 03201012 000000000000 ZIB$DBALT     *136      *366      *510      *666      *869      *934      *962
                                    *1062     *1082     *1124     *1307     *1329     *1350
 12:49 09/05/97  FILE=ZIM$DBPR.:ZIC0TSI       SYMBOL TABLE                                               83   BMAP - B00
 03201013 000000000000 ZIB$DBEXC     *330      *637      *845      *915     *1116     *1285
 03201014 000000000000 ZIB$ICEXC    *1384     *1417     *1451
 03201008 000000000000 ZIG$DBAFN      *36       215
 03201009 000000000000 ZIG$DBAFP      *36       209
 03201005 000000000000 ZIG$DBDCD      *34      1323
 03201006 000000000000 ZIG$DBECD      *34      1076      1344
 13101000 000000001326 ZIG$DBPCF       21      1111     *1155
 12101000 000000001274 ZIG$DBPCK       23     *1093
 12101000 000000000000 ZIG$DBPCR       10       *53
 13101000 000000001077 ZIG$DBPFD       11        90      *885
 12101000 000000000112 ZIG$DBPFN       13      *175
 12101000 000000000346 ZIG$DBPFO       15      *388
 12101000 000000000106 ZIG$DBPFP       14      *171
 13101000 000000001161 ZIG$DBPMA       25       956      *973
 12101000 000000001140 ZIG$DBPMC       26      *945
 12101000 000000001531 ZIG$DBPMF       31     *1339
 13101000 000000001262 ZIG$DBPMK       22      1053     *1072
 12101000 000000001233 ZIG$DBPMS       24     *1035
 12101000 000000001516 ZIG$DBPMT       20     *1318
 12101000 000000000711 ZIG$DBPNA       18      *723
 12101000 000000000507 ZIG$DBPNC       17      *535
 12101000 000000000653 ZIG$DBPPA       19      *694
 12101000 000000000503 ZIG$DBPPC       16      *531
 13101000 000000001562 ZIG$DBPR2       28       188       274       396       443       606     *1398
 12101000 000000001340 ZIG$DBXCI       30     *1166
 03201000 000000000000 ZIM$IFIND      *12        87
 02201004 000000000000 ZIQ$DBIOA      *33
 02201007 000000000000 ZIQ$DBIOF      *35
 03201001 000000000000 ZIQ$DBIOL      *32       253       427       567       889
 03201002 000000000000 ZIQ$DBION      *32       772
 03201003 000000000000 ZIQ$DBIOP      *32       766
 13101000 000000001544 ZIQ$DBPR1       27       803     *1365
 13101000 000000001600 ZIQ$DBPR3       29       308       612       701       730     *1432

    1075 SYMBOLS

 12:49 09/05/97  FILE=ZIM$DBPR.:ZIC0TSI       MACRO TABLE                                                84   BMAP - B00
 CBSYM           38
 DBALT          136       366       510       666       869       934       962      1062      1082
               1124      1307      1329      1350
 DBCAL           87        90       188       209       215       253       274       308       396
                427       443       567       606       612       701       730       766       772
                803       889       956      1053      1076      1111      1323      1344
 DBEXC          330       637       845       915      1116      1285
 DBRET          106       322       464       473       628       825       907       960      1025
               1057      1077      1113      1290      1295      1324      1345
 DBSAV           54       172       176       389       532       536       695       724       886
                946       974      1036      1073      1094      1156      1168      1319      1340
 ICCAL          188       253       274       308       396       427       443       567       606
                612       701       730       766       772       803       889      1076      1323
               1344
 ICEXC         1384      1417      1451
 ICRET         1376      1409      1444
 ICSAV         1366      1399      1433
 Q2SYM           38
 SSSYM           38

      37 MACROS

    SYMBOL SPACE USED 13085 WORDS
     MACRO SPACE USED 13057 WORDS
   INPUT RECORDS READ  4706
 STATEMENTS PROCESSED  3861
         ELAPSED TIME  0:23.16
             CPU TIME    20.61 SEC.
        ASSEMBLY RATE 11240 STATEMENTS/CPU MIN.

      NO ERRORS

