
 12:50 09/05/97  FILE=ZIM$DBPU.:ZIC0TSI                                                                  1    BMAP - B00
                                         1  *M*      ZIG$DBPU
                                         2  *T***********************************************************
                                         3  *T*                                                         *
                                         4  *T* Copyright (c) Bull HN Information Systems Inc., 1997    *
                                         5  *T*                                                         *
                                         6  *T***********************************************************

 12:50 09/05/97  FILE=ZIM$DBPU.:ZIC0TSI       H6600H2.529     IDS/II PRIMITIVES - UPDATE     780516DBPU  2    BMAP - B00
                                         7         TTL     H6600H2.529     IDS/II PRIMITIVES - UPDATE     780516DBPU
                                         8         CPR     1974
                                         9         PMC     OFF
                                        10         ENTDEF  ZIG$DBPFS
                                        11         ENTDEF  ZIG$DBPDR
                                        12         ENTDEF  ZIG$DBPIC
                                        13         ENTDEF  ZIG$DBPFI
                                        14        ENTDEF  ZIM$DBPLK,ZIM$DBPUL,ZIM$DBPMR
                                        15         ENTDEF  ZIG$DBPCS
                                        16         ENTREF  ZIG$DBPFN,ZIG$DBPFP,ZIG$DBPNC
                                        17         ENTREF  ZIG$DBPFO,ZIG$DBPFD,ZIG$DBPCF,ZIG$DBPCK
                                        18         ENTREF  ZIG$DBPR2
                                        19        ENTREF  ZIQ$DBIOS,ZIQ$DBIOD
                                        20        ENTREF  ZIO$LOCK,ZIO$UNLOCK,ZIO$MODIFY
                                        21         ENTREF  ZIQ$DBISI,ZIQ$DBICS                                      <EHW>
                                        22         ENTREF  ZIG$DBADE
                                        23         ENTREF  ZIG$DBAFE
                                        24         ENTREF  ZIG$DBAIS
                                        25         ENTREF  ZIG$DBACE
                                        26         LODM    Q2MA
                                        27         Q2SYM

 12:50 09/05/97  FILE=ZIM$DBPU.:ZIC0TSI       IDS-II  PRIMITIVE - FIND SPACE FOR A RECORD                3    BMAP - B00
                                        28         TTLS    IDS-II  PRIMITIVE - FIND SPACE FOR A RECORD
                                        29  *
                                        30  *  PRIMITIVE - FIND SPACE FOR A RECORD
                                        31  *
                                        32  *  INPUT :   TEMP REC VAR - DBK OF BASE PAGE
                                        33  *                              BASE PAGE MUST BE WITHIN RANGE OR AREA
                                        34  *                         - SIZE OF RECORD                              <EHW>
                                        35  *                         - AC PTR
                                        36  *                         - RA PTR
                                        37  *
                                        38  *  OUTPUT:                -  DBK OF SPACE FOUND
                                        39  *                         - ADDRESS OF BUFFER
                                        40  *                         - ADDRESS OF RECORD
                                        41  *                         - BURID
                                        42  *
                                        43  *  EXCEPTION RETURN:
                                        44  *    NONE
                                        45  *  ERROR RETURN
                                        46  *    DBK IN REC VAR WILL BE SET TO ZERO
                                        47  *
 0 000000                               48  ZIG$DBPFS NULL
   000000  X 000000 7000 00             49         DBSAV
   000001    000004 000000
   000002    7 00512 2211 00            50         LDX     X1,RVT,,PR7     SET X1 TO TEMP REC VAR
   000003    7 00003 2241 11            51         LDX     X4,RECSZ,X1,PR7  GET REC SIZE                             <EHW>
   000004    7 00765 7441 00            52         STX     X4,SZREQ,,PR7   SAVE
   000005    7 00005 7241 11            53         LXL     X4,RAPTR,X1,PR7  GET RA
   000006    6 00000 2231 14            54           LDX      X3,DEF,X4,PR6        Get def word
   000007    000002 3030 03             55           CANX     X3,FRANGE,DU         Full range
   000010 (0)000014 6000 00             56           TZE      RARNG1               No. use RA value
   000011    6 00004 7231 14            57           LXL      X3,RAWSOF,X4,PR6     Get AWS offset
   000012    7 00003 2351 13            58           LDA      HIGHDBK,X3,PR7       Get High DBK of range
   000013    000002 7100 04             59           TRA      2,IC
   000014    6 00004 2351 14            60  RARNG1   LDA      PGRNG+1,X4,PR6       Get hi dbk of range
   000015    7 00000 2361 11            61         LDQ     DBKEY,X1,PR7    GET BASE PAGE
   000016    7 00777 7561 00            62         STQ     DBKRQ,,PR7      SAVE
   000017    7 00765 2241 00            63         LDX     X4,SZREQ,,PR7   GET SIZE NEEDED
 12:50 09/05/97  FILE=ZIM$DBPU.:ZIC0TSI       IDS-II  PRIMITIVE - FIND SPACE FOR A RECORD                4    BMAP - B00
                                        64  *  CHECK BASE PAGE FOR SPACE
   000020  X 000000 7010 00             65         ICCAL   ZIQ$DBIOS,NSPBS,PGER1
   000021 (0)000163 7020 00
   000022    5 00006 2341 00
   000023    000003 6000 04
   000024    5 00006 4501 00
   000025 (0)000027 7020 00
   000026 (0)000142 7100 00             66         TRA     SPCFND
                                        67  *  NO SPACE ON BASE PAGE - BUILD RANGE TABLE
   000027                               68  NSPBS  NULL
   000027    7 00644 7551 00            69         STA     PRSTS,,PR7      SAVE STATUS
   000030    7 00512 2211 00            70         LDX     X1,RVT,,PR7
   000031    7 00005 2201 11            71         LDX     X0,ACPTR,X1,PR7  GET AC PTR
   000032    7 00005 7241 11            72         LXL     X4,RAPTR,X1,PR7  GET RA PTR
   000033    6 00003 2351 14            73           LDA      PGRNG,X4,PR6         Get low from RA.
   000034    6 00000 2231 14            74           LDX      X3,DEF,X4,PR6        Def word
   000035    000002 3030 03             75           CANX     X3,FRANGE,DU         Full range
   000036 (0)000042 6000 00             76           TZE      RARNG2               No. Use RA value
   000037    6 00004 7231 14            77           LXL      X3,RAWSOF,X4,PR6     Get AWS offset
   000040    7 00003 2361 13            78           LDQ      HIGHDBK,X3,PR7       Get High DBK of range
   000041    000002 7100 04             79           TRA      2,IC
   000042    6 00004 2361 14            80  RARNG2   LDQ      PGRNG+1,X4,PR6       Get high DBK from RA
   000043    7 00664 7551 00            81           STA      RNG2,,PR7            Save as LOW of range 2
   000044    7 00663 7561 00            82           STQ      RNG1+1,,PR7          Save of HIGH of range 1
   000045    7 00777 2361 00            83         LDQ     DBKRQ,,PR7      GET BASE PAGE
   000046    7 00665 7561 00            84         STQ     RNG2+1,,PR7     SAVE AS HI  OF RANGE 2
   000047    6 00010 1361 10            85         SBLQ    DBLIM,X0,PR6    MAKE IT REL. TO AREA
   000050    6 00004 7211 10            86         LXL     X1,BPL,X0,PR6   GET BITS/LINE NO.
   000051    000000 7720 11             87         QRL     ,X1             REMOVE LINE NO.
   000052    000000 7360 11             88         QLS     ,X1
   000053    6 00012 0361 10            89         ADLQ    LPP,X0,PR6      UP TO NEXT PAGE
   000054    6 00010 0361 10            90         ADLQ    DBLIM,X0,PR6    MAKE IT GLOBAL DBK AGAIN
   000055    7 00662 7561 00            91         STQ     RNG1,,PR7       SAVE AS LO OF RANGE 1
                                        92  *    RANGE TABLE BUILT - REFRESH TALLY
   000056    7 00661 2351 00            93         LDA     RNGTAL+1,,PR7   GET TALLY REFRESH
   000057    7 00660 7551 00            94         STA     RNGTAL,,PR7     PUT IN WORKING TALLY
                                        95  *
 12:50 09/05/97  FILE=ZIM$DBPU.:ZIC0TSI       IDS-II  PRIMITIVE - FIND SPACE FOR A RECORD                5    BMAP - B00
                                        96  *  GET NEXT RANGE
                                        97  *
   000060                               98  NXTR   NULL
   000060    7 00660 2361 51            99         LDQ     RNGTAL,I,PR7    GET LOW OF RANGE
   000061    7 00777 7561 00           100         STQ     DBKRQ,,PR7      SAVE AS CURRENT
   000062                              101  CKPG   NULL
   000062    7 00660 2211 00           102         LDX     X1,RNGTAL,,PR7  GET CURR ENTRY LOC
   000063    7 00001 2361 11           103           LDQ      1,X1,PR7             Get high DBK of range
   000064    7 00777 1161 00           104         CMPQ    DBKRQ,,PR7      IS NEXT DBK IN RANGE
   000065    000052 6020 04            105         TNC     CKR,$           NO - CHECK NEXT RANGE
   000066    7 00001 2351 11           106           LDA      1,X1,PR7             Get high DBK of range
   000067    7 00777 2361 00           107         LDQ     DBKRQ,,PR7      GET NEXT DBK TO CHECK
   000070    7 00765 2241 00           108         LDX     X4,SZREQ,,PR7   GET SIZE NEEDED
   000071    7 00512 2211 00           109         LDX     X1,RVT,,PR7
   000072    7 00005 2201 11           110         LDX     X0,ACPTR,X1,PR7  GET AC
   000073    6 00003 2271 10           111           LDX      X7,WSOF,X0,PR6       Get work space offset
   000074    7 00005 2341 17           112           SZN      FIPN,X7,PR7          Is invetory page valid?
   000075    000014 6000 04            113         TZE     CKDP,$          NO - GO CHECK PAGE ITSELF
                                       114  *  CHECK INVENTORY FOR THIS RANGE
   000076  X 000000 7010 00            115         ICCAL   ZIQ$DBISI,CKR,SIER1 SEARCH INVENTORY
   000077 (0)000163 7020 00
   000100    5 00006 2341 00
   000101    000003 6000 04
   000102    5 00006 4501 00
   000103 (0)000137 7020 00
   000104    7 00777 7561 00           116         STQ     DBKRQ,,PR7      SAVE DBK OF PAGE SPACE FOUND ON
   000105    7 00660 2211 00           117           LDX  X1,RNGTAL,,PR7      CURRENT PAGE RANGE ENTRY
   000106    7 00000 1161 11           118           CMPQ 0,X1,PR7            IS PAGE LOW < RANGE LOW
   000107 (0)000111 6030 00            119           TRC  *+2                 NO- OK, USE PAGE LOW
   000110    7 00000 2361 11           120           LDQ  0,X1,PR7            YES- TAKE HIGHER #,USE RANGE LOW
                                       121  *  READ DATA PAGE & CHECK FOR SPACE
   000111                              122  CKDP   NULL
   000111    7 00660 2211 00           123         LDX     X1,RNGTAL,,PR7
   000112    7 00001 2351 11           124           LDA      1,X1,PR7             Get high DBK of range
   000113    7 00765 2241 00           125         LDX     X4,SZREQ,,PR7   GET SIZE NEEDED
   000114  X 000000 7010 00            126         ICCAL   ZIQ$DBIOS,NSPC,PGER1
   000115 (0)000163 7020 00
 12:50 09/05/97  FILE=ZIM$DBPU.:ZIC0TSI       IDS-II  PRIMITIVE - FIND SPACE FOR A RECORD                6    BMAP - B00
   000116    5 00006 2341 00
   000117    000003 6000 04
   000120    5 00006 4501 00
   000121 (0)000123 7020 00
   000122 (0)000142 7100 00            127         TRA     SPCFND          SPACE FOUND
   000123                              128  NSPC   NULL
   000123    7 00644 7551 00           129         STA     PRSTS,,PR7      SAVE STATUS
   000124    7 00512 2211 00           130         LDX     X1,RVT,,PR7
   000125    7 00005 2201 11           131         LDX     X0,ACPTR,X1,PR7  GET AC
   000126    7 00777 2361 00           132         LDQ     DBKRQ,,PR7      GET DBK JUST CHECKED
   000127    6 00010 1361 10           133         SBLQ    DBLIM,X0,PR6    MAKE IT REL. TO AREA
   000130    6 00004 7211 10           134         LXL     X1,BPL,X0,PR6   GET BITS/LINE
   000131    000000 7720 11            135         QRL     ,X1             * REMOVE LINE NO.
   000132    000000 7360 11            136         QLS     ,X1             *
   000133    6 00010 0361 10           137         ADLQ    DBLIM,X0,PR6    MAKE IT DBK AGAIN
   000134    6 00012 0361 10           138         ADLQ    LPP,X0,PR6      INCR DBK TO NEXT PAGE
   000135    7 00777 7561 00           139         STQ     DBKRQ,,PR7      SAVE AS NEXT
   000136 (0)000062 7100 00            140         TRA     CKPG            GO CHECK IT
   000137                              141  CKR    NULL
   000137    7 00660 2341 53           142           SZN      RNGTAL,AD,PR7           NEXT ENTRY IN RANGE TABLE
   000140 (0)000060 6070 00            143         TTF     NXTR            NOT LAST - GO SEARCH IT
   000141 (0)000155 7100 00            144         TRA     SPGON           LAST RANGE - NO SPACE AVAIL.
                                       145  *  SPACE FOUND
   000142                              146  SPCFND NULL
   000142    7 00512 2211 00           147         LDX     X1,RVT,,PR7     SET X1 TO TEMP REC VAR
   000143    7 00000 7561 11           148         STQ     DBKEY,X1,PR7    SAVE DBK OF SPACE FOUND
   000144    5 00020 2351 00           149        LDA     GIOAWS,,PR5         GET AREA WORK SPACE POINTER
   000145    7 00013 7551 11           150        STA     AWS$,X1,PR7         SAVE IN REC VAR
   000146    7 00002 4535 11           151         STP     PR3,RADDR,X1,PR7  SAVE ADDR OF SPACE FOUND
   000147    7 00001 4545 11           152         STP     PR4,BADDR,X1,PR7  SAVE ADDR OF BUFFER
                                       153  *  ZERO THE SPACE
   000150    7 00765 2211 00           154         LDX     X1,SZREQ,,PR7   GET SIZE OF SPACE
   000151    000 0 140 1004 00         155         MLR     ,(1,1)              * MOVE
   000152    000000 0 0 0 0000         156         ADSC9   0,0,0               *  ZERO FILL TO
   000153    3 00000 0 0 0 0011        157         ADSC9   ,,X1,PR3            *   TO SPACE JUST FOUND
                                       158  *  RETURN
   000154  X 000000 7020 00            159         DBRET                   NORMAL RETURN
 12:50 09/05/97  FILE=ZIM$DBPU.:ZIC0TSI       IDS-II  PRIMITIVE - FIND SPACE FOR A RECORD                7    BMAP - B00
                                       160  *
                                       161  *  ERRORS DETECTED IN THIS PRIMITIVE
                                       162  *
   000155                              163  SPGON  NULL                    NO SPACE AVAIL.
   000155    7 00644 2351 00           164         LDA     PRSTS,,PR7      GET STATUS FROM I/O ROUTINE
   000156    7 00512 2211 00           165         LDX     X1,RVT,,PR7
   000157    7 00005 2201 11           166         LDX     X0,ACPTR,X1,PR7  GET AC
   000160    000000 6260 00            167         EAX     X6,0
   000161    7 00006 2271 11           168         LDX     X7,RCPTR,X1,PR7  GET RC
   000162 (0)000166 7100 00            169         TRA     FSR1
                                       170  *
                                       171  *  ERRORS DETECTED IN I/O ROUTINES
                                       172  *
   000163                              173  PGER1  NULL                    PAGE ERROR
   000163                              174  SIER1  NULL                    ERROR SEARCHING INVENTORY
   000163    000000 6260 00            175         EAX     X6,0
   000164    000000 6270 00            176         EAX     X7,0            NULL RC
   000165 (0)000166 7100 00            177         TRA     FSR1
                                       178  *  COMMON ERROR RETURN
   000166                              179  FSR1   NULL
   000166    7 00512 2211 00           180         LDX     X1,RVT,,PR7
   000167    7 00000 4501 11           181         STZ     DBKEY,X1,PR7    ZERO DBK IN REC VAR
   000170  X 000000 7020 00            182           DBALT

 12:50 09/05/97  FILE=ZIM$DBPU.:ZIC0TSI       IDS-II  PRIMITIVE - FIND INSERT POINT IN A SET             8    BMAP - B00
                                       183         TTLS    IDS-II  PRIMITIVE - FIND INSERT POINT IN A SET
                                       184  *
                                       185  *  PRIMITIVE - FIND INSERT POINT IN A SET
                                       186  *
                                       187  *
                                       188  *  INPUT : INPUT REC VAR - DBK OF  CURR OF SET
                                       189  *                         - ADDRESS OF BUFFER CONTAING CURRENT OF SET
                                       190  *                        - ADDR OF CURR OF SET
                                       191  *                        - REC TYPE OF CURR OF SET
                                       192  *                         - AC PTR
                                       193  *                         - BURID
                                       194  *                   PRSC - SC DEF OF SET TO LNSERT INTO
                                       195  *          TEMP. REC VAR - DBK  OF REC TO INSERT
                                       196  *                         - ADDRESS OF BUFFER CONTAINING REC TO INSERT
                                       197  *                        - ADDR OF REC TO INSERT
                                       198  *                         - AC PTR
                                       199  *                         - BURID
                                       200  *
                                       201  *                 .PRCSE - IF BIT 18 =1  AND INSERTION FOR SET IS BEFORE
                                       202  *                             -THE REC WILL BE INSERTED AFTER THE REC IN
                                       203  *                              INPUT REC VAR. THIS IS FOR THE CASE WHEN
                                       204  *                              THE CURRENT OF SET HAS BEEN ERASED & THE
                                       205  *                              DBK OF THE PRIOR REC HAS BEEN SAVED
                                       206  *
                                       207  *          SORT & DUP KEYS MUST BE IN TEMP REC BUF BEFORE CALLING THIS
                                       208  *              PRIMITIVE
                                       209  *
                                       210  *  OUTPUT- INPUT  REC VAR - REC THAT SHOULD BE BEFORE NEW REC
                                       211  *        - OUTPUT REC VAR - REC THAT SHOULD BE AFTER  NEW REC
                                       212  *
                                       213  *  EXCEPTION RETURN-
                                       214  *    NONE
                                       215  *
   000171                              216  ZIG$DBPFI NULL
   000171  X 000000 7000 00            217         DBSAV
   000172    000004 000000
                                       218  *  SEE IF THIS IS CALC SET
 12:50 09/05/97  FILE=ZIM$DBPU.:ZIC0TSI       IDS-II  PRIMITIVE - FIND INSERT POINT IN A SET             9    BMAP - B00
   000173    7 00520 2261 00           219         LDX     X6,PRSC,,PR7    GET SC PTR
   000174    6 00004 1061 00           220         CMPX    X6,CLCSC+OAOFST,,PR6  IS IT CALC
   000175 (0)001011 6000 00            221         TZE     PFI             YES - GO TO INSERT CALC ROUTINE
   000176    400000 2350 03            222         LDA     .B0,DU
   000177    7 00517 7551 00           223         STA     PRRC,,PR7       SET TYPE REQUEST TO NONE
                                       224  *  CHECK AREA TYPE OF CURR & NEW RECORDS
   000200    7 00512 2211 00           225         LDX     X1,RVT,,PR7
   000201    7 00005 2201 11           226         LDX     X0,ACPTR,X1,PR7  GET AC FOR NEW REC
   000202    6 00000 2351 10           227         LDA     DEF,X0,PR6      GET DEF FROM AC FOR NEW REC
   000203    7 00510 2231 00           228         LDX     X3,RVI,,PR7
   000204    7 00005 2201 13           229         LDX     X0,ACPTR,X3,PR7  GET AC FOR CURR REC
   000205    6 00000 6751 10           230         ERA     DEF,X0,PR6      COMP. TEMP BITS
   000206    000100 3750 07            231         ANA     .ATMP,DL        ISOLATE
   000207 (0)000752 6010 00            232         TNZ     AER1            ERROR - TEMP & PERM AREAS MIXED
                                       233  *  GET RS PTR FOR REC BEING INSERTED
   000210    7 00512 2211 00           234         LDX     X1,RVT,,PR7     SET X1 TO TEMP REC VAR
   000211    7 00003 2351 11           235         LDA     RTP,X1,PR7      GET REC TYPE
   000212  X 000000 7010 00            236           ICCAL    ZIG$DBPR2,,RCER5     Find RS
   000213 (0)001003 7020 00
   000214    5 00006 2341 00
   000215    777776 6010 04
   000216    7 00512 2211 00           237         LDX     X1,RVT,,PR7     SET X1 TO TEMP REC VAR
   000217    7 00006 7471 11           238         STX     X7,RCPTR,X1,PR7  SAVE RC PTR
   000220    7 00004 7461 11           239         STX     X6,SCPTR,X1,PR7  SAVE SC PTR
   000221    7 00004 4451 11           240         SXL     X5,RSPTR,X1,PR7  SAVE RS PTR
                                       241  *  CHECK THAT THIS RECORD CAN BE INSERTED INTO THIS SET
   000222    6 00000 7211 15           242         LXL     X1,DEF,X5,PR6
   000223    020000 3010 03            243         CANX    X1,.SMOD,DU     CAN REC BE INSERTED
   000224 (0)000760 6010 00            244         TNZ     IRE1            NO - ERROR
                                       245  *  CHECK DUP KEYS IF PRESENT
   000225    7 00512 2211 00           246         LDX     X1,RVT,,PR7
   000226    7 00004 7251 11           247         LXL     X5,RSPTR,X1,PR7  GET RS PTR
   000227    6 00000 2351 15           248         LDA     DEF,X5,PR6
   000230    010000 3150 07            249         CANA    .DUPP,DL        ARE DUP KEYS PRESENT
   000231 (0)000304 6000 00            250         TZE     NDK             NO
   000232    7 00510 2231 00           251         LDX     X3,RVI,,PR7
   000233    7 00000 2361 13           252         LDQ     DBKEY,X3,PR7    GET DBK OF CURR REC
 12:50 09/05/97  FILE=ZIM$DBPU.:ZIC0TSI       IDS-II  PRIMITIVE - FIND INSERT POINT IN A SET             10   BMAP - B00
   000234    7 00651 7561 00           253         STQ     DBKSR,,PR7      SAVE
   000235                              254  LP1    NULL
   000235  X 000000 7010 00            255         DBCAL   ZIG$DBPFN,LM1,PER1  FIND NEXT
   000236 (0)001003 7020 00
   000237    5 00006 2341 00
   000240    000003 6000 04
   000241    5 00006 4501 00
   000242 (0)000243 7020 00
   000243                              256  LM1    NULL
   000243    7 00512 2211 00           257         LDX     X1,RVT,,PR7
   000244    7 00006 2271 11           258         LDX     X7,RCPTR,X1,PR7  GET RC OF NEW REC
   000245    7 00511 2221 00           259         LDX     X2,RVO,,PR7
   000246    7 00006 1071 12           260         CMPX    X7,RCPTR,X2,PR7  IS REC FOUND SAME TYPE
   000247 (0)000276 6010 00            261         TNZ     CKNR            NO - GO CHECK IF LAST
   000250    7 00003 2351 12           262         LDA     RTP,X2,PR7      GET RCW FROM NEXT REC
   000251    100000 3150 07            263         CANA    .B2,DL          IS IT LOGICALLY DELETED
   000252 (0)000276 6010 00            264         TNZ     CKNR            YES - SKIP CHECK
   000253    7 00004 7251 11           265         LXL     X5,RSPTR,X1,PR7  GET RS
   000254    7 00642 7451 00           266         STX     X5,PCD,,PR7     SAVE AS CURR CD
   000255                              267  LP2    NULL
   000255    7 00642 2201 00           268         LDX     X0,PCD,,PR7     GET CURR CD
   000256    6 00001 2201 10           269         LDX     X0,RSCDN,X0,PR6  GET NEXT CD
   000257 (0)000767 6000 00            270         TZE     DUPKY           NO - DUPLICATE FOUND
   000260    7 00642 7401 00           271         STX     X0,PCD,,PR7     SAVE AS CURR
   000261    6 00000 2211 10           272         LDX     X1,DEF,X0,PR6
   000262    000017 3610 03            273         ANX     X1,.RELT,DU     ISOLATE RELAT. TYPE
   000263    000001 1010 03            274         CMPX    X1,1,DU         IS IT DUP KEY
   000264 (0)000255 6010 00            275         TNZ     LP2             NO - GET NEXT CD
   000265    6 00002 2241 10           276         LDX     X4,CDSH,X0,PR6  GET FR
   000266    7 00521 7441 00           277         STX     X4,PRFR,,PR7    PUT IN PRIM. REQ. (1ST OPER.)
   000267    7 00521 4441 00           278         SXL     X4,PRFR2,,PR7   PUT IN PRIM. REQ. (2ND OPER.)
   000270  X 000000 7010 00            279         DBCAL   ZIG$DBPCF,LP2,CFE2  COMPARE TEMP BUF TO OUT REC VAR
   000271 (0)001003 7020 00
   000272    5 00006 2341 00
   000273    000003 6000 04
   000274    5 00006 4501 00
   000275 (0)000255 7020 00
 12:50 09/05/97  FILE=ZIM$DBPU.:ZIC0TSI       IDS-II  PRIMITIVE - FIND INSERT POINT IN A SET             11   BMAP - B00
   000276                              280  CKNR   NULL
   000276    7 00510 2371 00           281         LDAQ    RVI,,PR7        * REVERSE
   000277    7 00511 7551 00           282         STA     RVO,,PR7        *  IN & OUT
   000300    7 00510 7561 00           283         STQ     RVI,,PR7        *   REC VAR
   000301    7 00000 2361 02           284         LDQ     DBKEY,QU,PR7    GET DBK OF REC JUST FOUND
   000302    7 00651 1161 00           285         CMPQ    DBKSR,,PR7      IS IT THE ONE STARTED WITH
   000303 (0)000235 6010 00            286         TNZ     LP1             NO - GET NEXT
   000304                              287  NDK    NULL
                                       288  *  INIT DIRECTION INDICATOR
   000304    7 00643 4501 00           289         STZ     SKIND,,PR7      INIT NXT/PRIOR INDICATOR
                                       290  *  INIT SORTED TYPE IND.
   000305    000000 6210 00            291         EAX     X1,0
   000306    7 00641 7411 00           292         STX     X1,SKTYP,,PR7   SET TO ZERO FOR NO TYPE
                                       293  *  GET SET ORDER FROM SC
   000307    7 00512 2211 00           294         LDX     X1,RVT,,PR7
   000310    7 00006 2271 11           295         LDX     X7,RCPTR,X1,PR7  GET RC
   000311    7 00520 2261 00           296         LDX     X6,PRSC,,PR7    GET SC
   000312    6 00000 2351 16           297         LDA     DEF,X6,PR6      GET SET ORDER
   000313    740000 3750 07            298         ANA     .SETO,DL        ISOLATE
   000314    000004 7350 00            299         ALS     4               INTO BITS 14-17
   000315 (0)000316 7100 01            300         TRA     *+1,AU          GO TO CORRECT ROUTINE
   000316 (0)000337 7100 00            301         TRA     FIRST
   000317 (0)000336 7100 00            302         TRA     LAST
   000320 (0)000344 7100 00            303         TRA     AFTER
   000321 (0)000360 7100 00            304         TRA     BEFOR
   000322 (0)000365 7100 00            305         TRA     SORT            SORTED
   000323 (0)000765 7100 00            306         TRA     ILSO            ILLEGAL
   000324 (0)000364 7100 00            307         TRA     SORTT           SORTED W/I TYPE
   000325 (0)000765 7100 00            308         TRA     ILSO            ILLEGAL
   000326 (0)000765 7100 00            309         TRA     ILSO            ILLEGAL
   000327 (0)000765 7100 00            310         TRA     ILSO            ILLEGAL
   000330 (0)000765 7100 00            311         TRA     ILSO            ILLEGAL
   000331 (0)000765 7100 00            312         TRA     ILSO            ILLEGAL
   000332 (0)000765 7100 00            313         TRA     ILSO            ILLEGAL
   000333 (0)000765 7100 00            314         TRA     ILSO            ILLEGAL
   000334 (0)000765 7100 00            315         TRA     ILSO            ILLEGAL
   000335 (0)000765 7100 00            316         TRA     ILSO            ILLEGAL
 12:50 09/05/97  FILE=ZIM$DBPU.:ZIC0TSI       IDS-II  PRIMITIVE - FIND INSERT POINT IN A SET             12   BMAP - B00
                                       317  *  SET ORDER IS LAST
   000336                              318  LAST   NULL
   000336    7 00643 0541 00           319         AOS     SKIND,,PR7      SET DIRECTION TO PRIOR
                                       320  *  SET ORDER IS FIRST
   000337                              321  FIRST  NULL
   000337  X 000000 7010 00            322        DBCAL   ZIG$DBPFO,NOEXC,ORER1         GET OWNER
   000340 (0)001003 7020 00
   000341    7 00510 2371 00           323         LDAQ    RVI,,PR7        * REVERSE
   000342    7 00511 7551 00           324         STA     RVO,,PR7        *  IN &
   000343    7 00510 7561 00           325         STQ     RVI,,PR7        *   OUT REC VAR
                                       326  *  set order is 'after'
   000344                              327  AFTER  NULL
   000344    7 00510 2231 00           328        LOCK    RVI
   000345 (0)001167 7010 00
   000346    000000 0020 00
   000347    7 00643 2351 00           329         LDA     SKIND,,PR7      GET DIRECTION INDICATOR
   000350    000001 3750 07            330         ANA     1,DL            ISOLATE
   000351 (0)000750 7010 25            331         DBCAL   (NPV,AL*),NNP3,FNER1      GO TO CORRECT ROUTINE
   000352 (0)000774 7020 00
   000353    5 00006 2341 00
   000354    000003 6000 04
   000355    5 00006 4501 00
   000356 (0)000357 7020 00
   000357                              332  NNP3   NULL
   000357 (0)000737 7100 00            333         TRA     FPT             GO PUT IN SET
                                       334  *  SET ORDER IS BEFORE
   000360                              335  BEFOR  NULL
   000360    7 00520 7211 00           336         LXL     X1,.PRCSE,,PR7  IS CURR = PRIOR
   000361    777763 6040 04            337         TMI     AFTER,$         YES - INSERT AFTER CURR
   000362    7 00643 0541 00           338         AOS     SKIND,,PR7      SET DIRECTION TO PRIOR
   000363 (0)000344 7100 00            339         TRA     AFTER
                                       340  *
                                       341  *
                                       342  *  SET ORDER IS SORTED
   000364                              343  SORTT  NULL                    SORTED W/I TYPE
   000364    7 00641 7471 00           344         STX     X7,SKTYP,,PR7   SAVE RC PTR
   000365                              345  SORT   NULL                    SORTED
 12:50 09/05/97  FILE=ZIM$DBPU.:ZIC0TSI       IDS-II  PRIMITIVE - FIND INSERT POINT IN A SET             13   BMAP - B00
                                       346  *  INIT WORK SPACE
   000365    7 00510 2371 00           347         LDAQ    RVI,,PR7        * REVERSE
   000366    7 00511 7551 00           348         STA     RVO,,PR7        *  IN &
   000367    7 00510 7561 00           349         STQ     RVI,,PR7        *   OUT REC VAR
   000370    7 00643 4501 00           350         STZ     SKIND,,PR7      INIT DIRECTION IND. TO NEXT
   000371    400000 2350 03            351         LDA     .B0,DU
   000372    7 00645 7551 00           352         STA     SKFLG,,PR7      INIT FLAG TO 1ST TIME
   000373    000000 6210 00            353         EAX     X1,0
   000374    7 00740 4411 00           354         SXL     X1,PADUP,,PR7   INIT DUP INDIC. = NO DUPS
                                       355  *  SEE IF CURR OF SET IS OWNER
   000375    7 00511 2221 00           356         LDX     X2,RVO,,PR7     SET X2 TO REC VAR OUT (CURR)
   000376    7 00520 2261 00           357         LDX     X6,PRSC,,PR7    GET SC PTR FROM PRIM. CALL
                                       358  *  CHECK IF SET IS POINTER ARRAY.  IF IT IS PA, A BINARY SEARCH
                                       359  *  OF THE PA RECORDS WILL BE PERFORMED TO FIND THE INSERT PT IN THE
                                       360  *  SET.
   000377    6 00000 2211 16           361         LDX     X1,DEF,X6,PR6   GET SET MODE
   000400    000070 3610 03            362         ANX     X1,.SETM,DU     ISOLATE
   000401    000020 1010 03            363         CMPX    X1,=O20,DU      IS IT POINTER ARRAY
   000402 (0)000434 6010 00            364         TNZ     GSCRS           NO
   000403    7 00510 2371 00           365         LDAQ    RVI,,PR7        * REVERSE
   000404    7 00511 7551 00           366         STA     RVO,,PR7        *  IN AND OUT
   000405    7 00510 7561 00           367         STQ     RVI,,PR7        *   RECORD VARIABLES
   000406  X 000000 7010 00            368         DBCAL   ZIG$DBAFE,FPAEX,FPAER YES-FIND INSERT PT IN PA SET
   000407 (0)001003 7020 00
   000410    5 00006 2341 00
   000411    000003 6000 04
   000412    5 00006 4501 00
   000413 (0)000430 7020 00
   000414    7 00520 2261 00           369         LDX     X6,PRSC,,PR7    GET SC PTR
   000415    7 00511 2221 00           370         LDX     X2,RVO,,PR7
   000416    7 00003 2351 12           371         LDA     RTP,X2,PR7      GET REC TYPE OF ENTRY FOUND
   000417  X 000000 7010 00            372           ICCAL    ZIG$DBPR2,,RSER6     Find RS
   000420 (0)001003 7020 00
   000421    5 00006 2341 00
   000422    777776 6010 04
   000423    7 00511 2221 00           373         LDX     X2,RVO,,PR7
   000424    7 00006 7471 12           374         STX     X7,RCPTR,X2,PR7  SAVE RC PTR
 12:50 09/05/97  FILE=ZIM$DBPU.:ZIC0TSI       IDS-II  PRIMITIVE - FIND INSERT POINT IN A SET             14   BMAP - B00
   000425    7 00004 7461 12           375         STX     X6,SCPTR,X2,PR7  SAVE SC PTR
   000426    7 00004 4451 12           376         SXL     X5,RSPTR,X2,PR7  SAVE RS PTR
   000427 (0)000607 7100 00            377         TRA     DUP             PA DUPLICATE VALUE FOUND
   000430                              378  FPAEX  NULL
   000430    7 00510 2371 00           379         LDAQ    RVI,,PR7        * REVERSE
   000431    7 00511 7551 00           380         STA     RVO,,PR7        *  IN AND OUT
   000432    7 00510 7561 00           381         STQ     RVI,,PR7        *   RECORD VARIABLES
   000433 (0)000742 7100 00            382         TRA     FPT1            INSERT PT FOUND BUT NO DUPLICATE
   000434                              383  GSCRS  NULL
   000434    7 00004 1061 12           384         CMPX    X6,SCPTR,X2,PR7  IS IT SAME AS IN REC VAR
   000435 (0)000447 6000 00            385         TZE     GTRS5           YES - SC & RS PRESENT
   000436    7 00003 2351 12           386         LDA     RTP,X2,PR7      GET REC TYPE
   000437  X 000000 7010 00            387           ICCAL    ZIG$DBPR2,,RSER5     Find RS
   000440 (0)001003 7020 00
   000441    5 00006 2341 00
   000442    777776 6010 04
   000443    7 00511 2221 00           388         LDX     X2,RVO,,PR7
   000444    7 00006 7471 12           389         STX     X7,RCPTR,X2,PR7  SAVE RC PTR
   000445    7 00004 7461 12           390         STX     X6,SCPTR,X2,PR7  SAVE SC PTR
   000446    7 00004 4451 12           391         SXL     X5,RSPTR,X2,PR7  SAVE RS PTR
   000447                              392  GTRS5  NULL
   000447    7 00004 7251 12           393         LXL     X5,RSPTR,X2,PR7  GET RS PTR FOR CURR REC
   000450    6 00000 2211 15           394         LDX     X1,DEF,X5,PR6   GET DEF TYPE
   000451    010000 3010 03            395         CANX    X1,.SO,DU       IS IT THE SET OWNER
   000452 (0)000536 6010 00            396         TNZ     CNR             YES - DON'T COMPARE - GET NEXT
                                       397  *  SEE IF CURR REC IS CORRECT TYPE
   000453    7 00641 2271 00           398         LDX     X7,SKTYP,,PR7   GET RC
   000454    000005 6000 04            399         TZE     NSWT2,$         NOT SORTED WITHIN TYPE - GO AHEAD
   000455    7 00006 1071 12           400         CMPX    X7,RCPTR,X2,PR7  IS CURR CORRECT TYPE
   000456 (0)000461 6000 00            401           TZE      NSWT2                YES
   000457    7 00641 4471 00           402           SXL      X7,SKTYP,,PR7        Remember type of current.
   000460 (0)000536 7100 00            403           TRA      CNR                  Try next.
   000461    000000 6350 17            404  NSWT2    EAA      0,X7                 Record type.
   000462    7 00641 7551 00           405           STA      SKTYP,,PR7           Remember type of current.
   000463                              406  SKL3   NULL
   000463    7 00512 2211 00           407         LDX     X1,RVT,,PR7     * SAVE
   000464    7 00004 7251 11           408         LXL     X5,RSPTR,X1,PR7  *  RS FROM NEW REC AS
 12:50 09/05/97  FILE=ZIM$DBPU.:ZIC0TSI       IDS-II  PRIMITIVE - FIND INSERT POINT IN A SET             15   BMAP - B00
   000465    7 00642 7451 00           409         STX     X5,PCD,,PR7     *   CURR CD FOR COMPARES
   000466    7 00511 2221 00           410         LDX     X2,RVO,,PR7      * SAVE
   000467    7 00004 7251 12           411         LXL     X5,RSPTR,X2,PR7  *  RS FROM CURR REC AS
   000470    7 00642 4451 00           412         SXL     X5,PCD2,,PR7     *   CD FOR 2ND OPER FOR COMPARES
   000471                              413  SKL1   NULL
   000471    7 00642 7201 00           414         LXL     X0,PCD2,,PR7    * GET NEXT RS.CD FOR CURR REC
   000472    6 00001 2201 10           415         LDX     X0,RSCDN,X0,PR6  *  & SAVE AS CD FOR 2ND OPER.
   000473    7 00642 4401 00           416         SXL     X0,PCD2,,PR7    *
   000474    7 00642 2201 00           417         LDX     X0,PCD,,PR7      *  GET NEXT RS.CD FOR NEW REC
   000475    6 00001 2201 10           418         LDX     X0,RSCDN,X0,PR6  *   & SAVE AS CURR CD
   000476    7 00642 7401 00           419         STX     X0,PCD,,PR7      *
   000477    6 00000 2211 10           420         LDX     X1,DEF,X0,PR6   GET DEF TYPE
   000500    000400 3010 03            421         CANX    X1,.CD,DU       IS IT CD
   000501 (0)000607 6000 00            422         TZE     DUP             NO - DUP SORT KEYS
   000502    000017 3010 03            423         CANX    X1,.RELT,DU     IS IT A SORT KEY
   000503 (0)000471 6010 00            424         TNZ     SKL1            NO - GET NEXT
   000504    6 00002 2241 10           425         LDX     X4,CDSH,X0,PR6  GET FR FOR CD
   000505    7 00521 7441 00           426         STX     X4,PRFR,,PR7    PUT IN PRIM. REQ.
   000506    7 00642 7201 00           427         LXL     X0,PCD2,,PR7    * GET FR FOR 2ND OPER. CD
   000507    6 00002 2241 10           428         LDX     X4,CDSH,X0,PR6  *  & SAVE AS FR FOR 2ND OPER. OF COMP.
   000510    7 00521 4441 00           429         SXL     X4,PRFR2,,PR7   *
   000511  X 000000 7010 00            430         DBCAL   ZIG$DBPCF,SKL1,CFER1 COMPARE TEMP BUF TO OUTPUT REC VAR
   000512 (0)001003 7020 00
   000513    5 00006 2341 00
   000514    000003 6000 04
   000515    5 00006 4501 00
   000516 (0)000471 7020 00
   000517    7 00516 7211 00           431         LXL     X1,CIND,,PR7    GET RESULTS OF COMPARE
   000520 (0)000530 6050 00            432         TPL     TBGT            GREATER THAN
   000521    7 00643 4501 00           433         STZ     SKIND,,PR7      INIT IND TO NEXT
   000522    7 00642 2201 00           434         LDX     X0,PCD,,PR7     GET CURR CD PTR
   000523    6 00000 2211 10           435         LDX     X1,DEF,X0,PR6   GET CONTROL TYPE FROM CD
   000524    000020 3010 03            436         CANX    X1,.CONT,DU     IS IT ASCENDING
   000525 (0)000536 6010 00            437         TNZ     CNR             NO
   000526    7 00643 0541 00           438         AOS     SKIND,,PR7      SET NEXT/PRIOR IND TO PRIOR
   000527 (0)000536 7100 00            439         TRA     CNR             GO CHECK NEXT REC
   000530                              440  TBGT   NULL
 12:50 09/05/97  FILE=ZIM$DBPU.:ZIC0TSI       IDS-II  PRIMITIVE - FIND INSERT POINT IN A SET             16   BMAP - B00
   000530    7 00643 4501 00           441         STZ     SKIND,,PR7      INIT IND TO NEXT
   000531    7 00642 2201 00           442         LDX     X0,PCD,,PR7     GET CURR CD PTR
   000532    6 00000 2211 10           443         LDX     X1,DEF,X0,PR6   GET CONTROL TYPE FROM CD
   000533    000020 3010 03            444         CANX    X1,.CONT,DU     IS IT ASCENDING
   000534 (0)000536 6000 00            445         TZE     *+2             YES
   000535    7 00643 0541 00           446         AOS     SKIND,,PR7      SET NEXT/PRIOR IND TO PRIOR
                                       447  *  GET REC IN INDICATED DIRECTION & CHECK IT
   000536                              448  CNR    NULL
   000536    7 00510 2371 00           449        LDAQ    RVI,,PR7
   000537    7 00511 7551 00           450        STA     RVO,,PR7            SWAP RVI AND RVO
   000540    7 00510 7561 00           451        STQ     RVI,,PR7
   000541    7 00510 2231 00           452        LOCK    RVI                 THEN LOCK RVI
   000542 (0)001167 7010 00
   000543    000000 0020 00
   000544                              453  CNR1     NULL
   000544    7 00643 2351 00           454         LDA     SKIND,,PR7      GET NEXT/PRIOR INDICATOR
   000545    000001 3750 07            455         ANA     1,DL            ISOLATE
   000546    7 00645 6551 00           456         ERSA    SKFLG,,PR7      COMP. IND TO IND FROM LAST REC(FLG)
   000547 (0)000551 6040 00            457         TMI     *+2             FIRST TIME
   000550 (0)000737 6010 00            458         TNZ     FPT             INSERT POINT FOUND
   000551    7 00645 7551 00           459         STA     SKFLG,,PR7      SET FLG TO IND FROM THIS COMP
   000552 (0)000750 7010 25            460           DBCAL    (NPV,AL*),P2,FNER3   Go to correct routine.
   000553 (0)000774 7020 00
   000554    5 00006 2341 00
   000555    000003 6000 04
   000556    5 00006 4501 00
   000557 (0)000577 7020 00
   000560    7 00510 2231 00           461        UNLOCK  RVI
   000561 (0)001173 7010 00
   000562    000000 0020 00
   000563    7 00641 2271 00           462         LDX     X7,SKTYP,,PR7   IS IT SORTED W/I TYPE
   000564    000004 6000 04            463         TZE     NSWT1,$          NO
   000565    7 00511 2221 00           464         LDX     X2,RVO,,PR7
   000566    7 00006 1071 12           465         CMPX    X7,RCPTR,X2,PR7  IS THIS THE CORRECT TYPE
   000567    777747 6010 04            466         TNZ     CNR,$           NO - GO GET NEXT
   000570                              467  NSWT1  NULL
   000570    7 00641 7271 00           468           LXL      X7,SKTYP,,PR7        End of set or correct type?
 12:50 09/05/97  FILE=ZIM$DBPU.:ZIC0TSI       IDS-II  PRIMITIVE - FIND INSERT POINT IN A SET             17   BMAP - B00
   000571 (0)000463 6000 00            469           TZE      SKL3                 No.
   000572    400000 2350 03            470           LDA      .B0,DU
   000573    7 00645 7551 00           471           STA      SKFLG,,PR7           Indicate first time.
   000574    000000 6270 00            472           EAX7     0
   000575    7 00641 4471 00           473           SXL      X7,SKTYP,,PR7        Correct record type found.
   000576 (0)000463 7100 00            474           TRA      SKL3
   000577    7 00641 7211 00           475  P2       LXL      X1,SKTYP,,PR7        2nd EOS or EOS after correct type
   000600 (0)000737 6000 00            476           TZE      FPT                  YES
   000601    000000 6210 00            477           EAX      X1,0
   000602    7 00641 4411 00           478           SXL      X1,SKTYP,,PR7        Indicate EOS reached.
   000603    000001 2350 07            479           LDA      1,DL
   000604    7 00643 2551 00           480           ORSA     SKIND,,PR7           Set for prior.
   000605    7 00645 2551 00           481           ORSA     SKFLG,,PR7           Set for prior.
   000606 (0)000544 7100 00            482           TRA      CNR1                 Get it.
                                       483  *
                                       484  *  DUPLICATE RECORD FOUND
                                       485  *  GET DUP ORDER & DETERMINE WHERE TO PUT DUP
                                       486  *
   000607                              487  DUP    NULL                    DUPLICATE SORT KEYS
   000607    777777 6210 00            488         EAX     X1,-1
   000610    7 00740 4411 00           489         SXL     X1,PADUP,,PR7   SET DUPLICATE INDICATOR
   000611    7 00643 4501 00           490         STZ     SKIND,,PR7      RESET SORT KEY DIRECTION INDICATOR
   000612    7 00512 2211 00           491         LDX     X1,RVT,,PR7     SET X1 TO REC VAR TEMP
   000613    7 00004 7251 11           492         LXL     X5,RSPTR,X1,PR7  GET RS PTR FOR REC BEING INSERTED
   000614    6 00000 2351 15           493         LDA     DEF,X5,PR6      GET DUP ORDER
   000615    600000 3750 07            494         ANA     .DORD,DL        ISOLATE
   000616    000002 7350 00            495         ALS     2               INTO BITS 16-17
   000617 (0)000620 7100 01            496         TRA     *+1,AU
   000620 (0)000644 7100 00            497         TRA     DFIR            FIRST
   000621 (0)000647 7100 00            498         TRA     DLST            LAST
   000622 (0)000624 7100 00            499         TRA     DUPE            NOT ALLOWED
   000623 (0)000627 7100 00            500         TRA     DIND            INDETERMINATE
                                       501  *  DUPLICATES NOT ALLOWED - CHECK IF DUP IS LOGICALLY DELETED
   000624                              502  DUPE   NULL
   000624    400000 2350 03            503         LDA     .B0,DU          SET INDICATOR BIT
   000625    7 00643 7551 00           504         STA     SKIND,,PR7
   000626 (0)000647 7100 00            505         TRA     WLKD
 12:50 09/05/97  FILE=ZIM$DBPU.:ZIC0TSI       IDS-II  PRIMITIVE - FIND INSERT POINT IN A SET             18   BMAP - B00
                                       506  *  DUP ORDER IS INDETERMINATE - PUT AFTER REC IN OUT REC VAR
   000627                              507  DIND   NULL
   000627    7 00510 2371 00           508        LDAQ    RVI,,PR7
   000630    7 00511 7551 00           509        STA     RVO,,PR7            SWAP RVI AND RVO
   000631    7 00510 7561 00           510        STQ     RVI,,PR7
   000632    7 00510 2231 00           511        LOCK    RVI                 THEN LOCK RVI
   000633 (0)001167 7010 00
   000634    000000 0020 00
   000635  X 000000 7010 00            512         DBCAL   ZIG$DBPFN,NDN,FNER4
   000636 (0)000774 7020 00
   000637    5 00006 2341 00
   000640    000003 6000 04
   000641    5 00006 4501 00
   000642 (0)000643 7020 00
   000643                              513  NDN    NULL
   000643 (0)000737 7100 00            514         TRA     FPT
                                       515  *  DUP'S ARE FIRST
   000644                              516  DFIR   NULL
   000644    000001 6210 00            517         EAX     X1,1
   000645    7 00740 4411 00           518         SXL     X1,PADUP,,PR7   SET DUP INDIC. = DUP OF NEXT
   000646    7 00643 0541 00           519         AOS     SKIND,,PR7      SET DIRECTION TO PRIOR
                                       520  *  DUP'S ARE LAST
   000647                              521  DLST   NULL
                                       522  *    WALK TO END OF DUPS IN INDICATED DIRECTION
   000647                              523  WLKD   NULL
   000647    7 00512 2211 00           524         LDX     X1,RVT,,PR7     * GET RS PTR FOR NEW REC
   000650    7 00004 7251 11           525         LXL     X5,RSPTR,X1,PR7  *  & SAVE AS CURR CD
   000651    7 00642 7451 00           526         STX     X5,PCD,,PR7     *
   000652    7 00511 2221 00           527         LDX     X2,RVO,,PR7      * GET RS PTR FOR CURR REC
   000653    7 00643 2341 00           528         SZN     SKIND,,PR7      ARE DUPS ALLOWED
   000654 (0)000660 6050 00            529         TPL     DPALD           YES
   000655    7 00003 2351 12           530         LDA     RTP,X2,PR7      GET RCW FROM REC JUST RETRIEVE
   000656    100000 3150 07            531         CANA    .B2,DL          IS IT LOGICALLY DELETED
   000657 (0)000767 6000 00            532         TZE     DUPER           NO - ERROR
   000660                              533  DPALD  NULL
   000660                              534  SKL4   NULL
   000660    7 00510 2371 00           535        LDAQ    RVI,,PR7
 12:50 09/05/97  FILE=ZIM$DBPU.:ZIC0TSI       IDS-II  PRIMITIVE - FIND INSERT POINT IN A SET             19   BMAP - B00
   000661    7 00511 7551 00           536        STA     RVO,,PR7            SWAP RVI AND RVO
   000662    7 00510 7561 00           537        STQ     RVI,,PR7
   000663    7 00510 2231 00           538        LOCK    RVI                 THEN LOCK RVI
   000664 (0)001167 7010 00
   000665    000000 0020 00
   000666    7 00643 2351 00           539         LDA     SKIND,,PR7      GET NEXT/PRIOR INDICATOR
   000667    000001 3750 07            540         ANA     1,DL            ISOLATE
   000670 (0)000750 7010 25            541         DBCAL   (NPV,AL*),FPT,FNER7       GO TO CORRECT ROUTINE
   000671 (0)000774 7020 00
   000672    5 00006 2341 00
   000673    000003 6000 04
   000674    5 00006 4501 00
   000675 (0)000737 7020 00
   000676    7 00510 2231 00           542        UNLOCK  RVI
   000677 (0)001173 7010 00
   000700    000000 0020 00
   000701    7 00511 2221 00           543         LDX      X2,RVO,,PR7          RVO pointer to X2
   000702    7 00004 7251 12           544         LXL      X5,RSPTR,X2,PR7      Get RS for new record type
   000703    7 00642 4451 00           545         SXL      X5,PCD2,,PR7         Save as CD for second operand
   000704    7 00641 2271 00           546         LDX     X7,SKTYP,,PR7   IS IT SORTED W/I TYPE
   000705    000003 6000 04            547         TZE     NSWT,$          NO
   000706    7 00006 1071 12           548         CMPX    X7,RCPTR,X2,PR7  IS THIS THE CORRECT TYPE
   000707    777751 6010 04            549         TNZ     SKL4,$
   000710                              550  NSWT   NULL
   000710                              551  DPL4   NULL
   000710    7 00642 7201 00           552         LXL     X0,PCD2,,PR7    * GET NEXT RS.CD FOR CURR REC
   000711    6 00001 2201 10           553         LDX     X0,RSCDN,X0,PR6  *  & SAVE AS CD FOR 2ND OPER.
   000712    7 00642 4401 00           554         SXL     X0,PCD2,,PR7    *
   000713    7 00642 2201 00           555         LDX     X0,PCD,,PR7      * GET NEXT RS.CD FOR NEW REC
   000714    6 00001 2201 10           556         LDX     X0,RSCDN,X0,PR6  *  & SAVE AS CURR CD
   000715    7 00642 7401 00           557         STX     X0,PCD,,PR7      *
   000716    6 00000 2211 10           558         LDX     X1,DEF,X0,PR6   GET DEF TYPE
   000717    000400 3010 03            559         CANX    X1,.CD,DU       IS IT A CD
   000720 (0)000647 6000 00            560         TZE     WLKD            NO - DONE THIS RECORD
   000721    000017 3010 03            561         CANX    X1,.RELT,DU     IS IT SORT KEY
   000722 (0)000710 6010 00            562         TNZ     DPL4            NO - GET NEXT
   000723    6 00002 2241 10           563         LDX     X4,CDSH,X0,PR6  * GET FR FOR CURR CD
 12:50 09/05/97  FILE=ZIM$DBPU.:ZIC0TSI       IDS-II  PRIMITIVE - FIND INSERT POINT IN A SET             20   BMAP - B00
   000724    7 00521 7441 00           564         STX     X4,PRFR,,PR7    *  & SAVE AS FR FOR 1ST OPER. OF COMP.
   000725    7 00642 7201 00           565         LXL     X0,PCD2,,PR7     * GET FR FOR 2ND OPER. CD
   000726    6 00002 2241 10           566         LDX     X4,CDSH,X0,PR6   *  & SAVE AS FR FOR 2ND OPER. OF COMP.
   000727    7 00521 4441 00           567         SXL     X4,PRFR2,,PR7    *
   000730  X 000000 7010 00            568         DBCAL   ZIG$DBPCF,DPL4,CFER7 COMPARE FIELD
   000731 (0)001003 7020 00
   000732    5 00006 2341 00
   000733    000003 6000 04
   000734    5 00006 4501 00
   000735 (0)000710 7020 00
   000736    000004 7100 04            569         TRA     FPT1,$          END OF DUPS - GO INSERT
                                       570  *
                                       571  *  INSERT POINT FOUND
                                       572  *    REVERSE IN & OUT REC VAR IF DIRECTION WAS PRIOR
                                       573  *  ENTER FPT  WHEN INPUT REC VAR IS LOCKED
                                       574  *  ENTER FPT1 WHEN INPUT REC VAR ISN'T LOCKED
                                       575  *
   000737                              576  FPT    NULL
   000737    7 00510 2231 00           577        UNLOCK  RVI
   000740 (0)001173 7010 00
   000741    000000 0020 00
   000742                              578  FPT1   NULL
   000742    7 00643 2341 00           579         SZN     SKIND,,PR7      WAS DIRECTION PRION
   000743 (0)000747 6044 00            580         TMOZ    NOTP            NO
   000744    7 00510 2371 00           581         LDAQ    RVI,,PR7        * REVERSE
   000745    7 00511 7551 00           582         STA     RVO,,PR7        *  IN &
   000746    7 00510 7561 00           583         STQ     RVI,,PR7        *   OUT REC VAR
   000747                              584  NOTP   NULL
                                       585  *  RETURN
   000747  X 000000 7020 00            586         DBRET
                                       587  *  NEXT/PRIOR JUMP VECTOR
   000750                              588  NPV    NULL
   000750  X 000000 0000 00            589         ARG     ZIG$DBPFN           find next
   000751  X 000000 0000 00            590         ARG     ZIG$DBPFP           find prior
                                       591  *
                                       592  *  ERRORS DETECTED IN THIS PRIMITIVE
                                       593  *
 12:50 09/05/97  FILE=ZIM$DBPU.:ZIC0TSI       IDS-II  PRIMITIVE - FIND INSERT POINT IN A SET             21   BMAP - B00
   000752                              594  AER1   NULL                    TEMP & PERM AREAS MIXED
   000752    020320 2350 07            595         LDA     ICA,DL
   000753    7 00512 2211 00           596         LDX     X1,RVT,,PR7
   000754    7 00005 2201 11           597         LDX     X0,ACPTR,X1,PR7  GET AC
   000755    7 00520 2261 00           598         LDX     X6,PRSC,,PR7    GET SC
   000756    7 00006 2271 11           599         LDX     X7,RCPTR,X1,PR7  GET RC
   000757 (0)001006 7100 00            600         TRA     FIR1
   000760                              601  IRE1   NULL                    REC CAN'T BE INSERTED IN SET
   000760    023432 2350 07            602         LDA     RCBI,DL
   000761    000000 6200 00            603         EAX     X0,0            NULL AC
   000762    6 00003 7261 15           604         LXL     X6,SCRSH,X5,PR6  GET SC
   000763    6 00003 2271 15           605         LDX     X7,RCRSH,X5,PR6  GET RC
   000764 (0)001006 7100 00            606         TRA     FIR1
   000765                              607  ILSO   NULL                    ILLEGAL SET ORDER
   000765    303276 2350 07            608         LDA     PRE9,DL
   000766 (0)001005 7100 00            609         TRA     NULRC
   000767                              610  DUPKY  NULL                    DUPLICATE KEYS
   000767                              611  DUPER  NULL                    DUPLICATE SORT KEYS
   000767    011754 2350 07            612         LDA     DDI,DL
   000770    7 00512 2211 00           613         LDX     X1,RVT,,PR7
   000771    7 00520 2261 00           614         LDX     X6,PRSC,,PR7    GET SC PTR
   000772    7 00006 2271 11           615         LDX     X7,RCPTR,X1,PR7  GET RC PTR
   000773 (0)001006 7100 00            616         TRA     FIR1
                                       617  *
                                       618  *  ERRORS DETECTED IN SUBORDINATE PRIM. WHILE INPUT REC VAR IS LOCKED
                                       619  *
   000774                              620  FNER1  NULL                    FIND NEXT ERROR
   000774                              621  FNER3  NULL                    FIND NEXT ERROR
   000774                              622  FNER4  NULL                    FIND NEXT ERROR
   000774                              623  FNER7  NULL                    FIND NEXT ERROR
                                       624  *
                                       625  *  Error while buffer locked, unlock before returning.
                                       626  *
   000774                              627  UNLOCKX NULL
   000774    7 00644 7551 00           628         STA     PRSTS,,PR7      SAVE STATUS
   000775  X 000000 7020 00            629      DBALT     RECOVER
   000776    7 00510 2231 00           630        UNLOCK  RVI
 12:50 09/05/97  FILE=ZIM$DBPU.:ZIC0TSI       IDS-II  PRIMITIVE - FIND INSERT POINT IN A SET             22   BMAP - B00
   000777 (0)001173 7010 00
   001000    000000 0020 00
   001001    7 00644 2351 00           631         LDA     PRSTS,,PR7      GET STATUS
   001002                              632  ULE99  NULL                    ERROR UNLOCKING BUF
   001002    000004 7100 04            633         TRA     FIR1,$
                                       634  *
                                       635  *  ERRORS DETECTED IN SUBORDINATE PRIMITIVES
                                       636  *
   001003                              637  RCER5  NULL                    RS not found for new record
   001003                              638  RSER5  NULL                    RS not found for current of set
   001003                              639  RSER6  NULL                    RS not found for member of PA set
   001003                              640  PER1   NULL                    FIND NEXT ERROR - CK DUP KEYS
   001003                              641  CFE2   NULL                    COMPARE DUP KEY ERROR
   001003                              642  ORER1  NULL                    FIND OWNER ERROR - FIRST
   001003                              643  CFER1  NULL                    COMPARE SORT KEY ERROR
   001003                              644  CFER7  NULL                    COMPARE ERROR - INSERT DUP
   001003                              645  FPAER  NULL                    ERROR FINDING INSERT PT IN PA SET
   001003 (0)001006 7100 00            646         TRA     FIR1
                                       647  *
                                       648  *  ERRORS DETECTED IN I/O ROUTINES
                                       649  *
   001004                              650  LKER3  NULL                    ERROR LOCKING BUF
   001004                              651  LKER5  NULL                    ERROR LOCKING BUF
   001004                              652  LKER6  NULL                    ERROR LOCKING BUF
   001004                              653  LKER7  NULL                    ERROR LOCKING BUF
   001004                              654  ULER5  NULL                    ERROR UNLOCKING BUF
   001004                              655  ULER7  NULL                    ERROR UNLOCKING BUF
   001004                              656  ULER9  NULL                    ERROR UNLOCKING BUF
                                       657  *
   001004                              658  NULSCRC NULL
   001004    000000 6260 00            659         EAX     X6,0            NULL SC
   001005                              660  NULRC  NULL
   001005    000000 6270 00            661         EAX     X7,0            NULL RC
   001006                              662  FIR1   NULL
                                       663  *
                                       664  *  COMMON ERROR RETURN
   001006                              665  ERRXIT NULL
 12:50 09/05/97  FILE=ZIM$DBPU.:ZIC0TSI       IDS-II  PRIMITIVE - FIND INSERT POINT IN A SET             23   BMAP - B00
   001006  X 000000 7020 00            666           DBALT

 12:50 09/05/97  FILE=ZIM$DBPU.:ZIC0TSI       FIND INSERT POINT IN CALC SET                              24   BMAP - B00
                                       667         TTLS    FIND INSERT POINT IN CALC SET
                                       668  *
                                       669  *  FIND INSERT POINT IN CALC SET
                                       670  *
                                       671  *  INPUT : REC VAR IN - DBK OF CALC HDR REC
                                       672  *                     - ADDRESS OF BUFFER
                                       673  *                     - ADDR OF HDR REC
                                       674  *                     - BURID
                                       675  *          REC VAR TMP- DBK OF REC TO INSERT
                                       676  *                     - ADDRESS OF BUFFER
                                       677  *                     - ADDR OF REC TO INSERT
                                       678  *                     - BURID
                                       679  *                PRSS - SS PTR FOR CALC HDR REC(CALC KEYS)
                                       680  *
                                       681  *          CALC KEYS MUST BE IN REC BUF
                                       682  *
                                       683  *  OUTPUT: REC VAR IN - REC THAT SHOULD BE BEFORE NEW REC
                                       684  *          REC VAR OUT- REC THAT SHOULD BE AFTER NEW REC
                                       685  *          REC VAR TMP- NEW REC
                                       686  *
                                       687  *  EXCEPTION RETURN-
                                       688  *    NONE
                                       689  *
   001007                              690  ZIG$DBPIC NULL
   001007  X 000000 7000 00            691         DBSAV
   001010    000004 000000
   001011                              692  PFI    NULL                    ENTRY POINT FROM .DBPFI
   001011    400000 2350 03            693         LDA     .B0,DU
   001012    7 00517 7551 00           694         STA     PRRC,,PR7       SET TYPE REQUEST TO NONE
                                       695  *
                                       696  *  CHECK THIS CALC SET FOR DUPLICATES & FIND INSERT POINT
                                       697  *
   001013    7 00510 2231 00           698         LDX     X3,RVI,,PR7     SET X3 TO REC VAR IN
   001014    7 00000 2361 13           699         LDQ     DBKEY,X3,PR7    GET DBK OF CALC HDR
   001015    7 00646 7561 00           700         STQ     CHDBK,,PR7      SAVE AS CHR DBK
   001016    7 00647 7561 00           701         STQ     IPC,,PR7        SAVE AS INSERT POINT
   001017    7 00650 4501 00           702         STZ     IPCF,,PR7       INIT INSERT PT FOUND INDICATOR
 12:50 09/05/97  FILE=ZIM$DBPU.:ZIC0TSI       FIND INSERT POINT IN CALC SET                              25   BMAP - B00
   001020    777777 2210 03            703         LDX     X1,-1,DU        SET TO FIND ANY                          <EHW>
   001021    7 00517 7411 00           704         STX     X1,PRRC,,PR7                                             <EHW>
   001022                              705  ICL1   NULL
   001022  X 000000 7010 00            706         DBCAL   ZIG$DBPNC,LMEMC,PGER4 FIND NEXT OF CALC
   001023 (0)001151 7020 00
   001024    5 00006 2341 00
   001025    000003 6000 04
   001026    5 00006 4501 00
   001027 (0)001117 7020 00
   001030    7 00512 2211 00           707         LDX     X1,RVT,,PR7     SET X1 TO TEMP   REC VAR
   001031    7 00511 2221 00           708         LDX     X2,RVO,,PR7     SET X2 TO OUTPUT REC VAR
   001032    7 00003 2351 11           709         LDA     RTP,X1,PR7      GET TYPE TO CHECK FOR
   001033    7 00003 2361 12           710         LDQ     RTP,X2,PR7      GET RCW FROM NEXT REC
   001034    100000 3160 07            711         CANQ    .B2,DL          IS IT LOGICALLY DELETED
   001035 (0)001057 6010 00            712         TNZ     CKIP            YES - DON'T CHECK FOR DUP                <EHW>
   001036    7 00057 2361 00           713         LDQ     CTMASK,,PR7     LOAD MASK
   001037    7 00003 2111 12           714         CMK     RTP,X2,PR7      IS TYPE CORRECT
   001040 (0)001057 6010 00            715         TNZ     CKIP            NO
   001041    6 00004 2261 00           716         LDX     X6,CLCSC+OAOFST,,PR6  GET SC FOR CALC SET                      <
   001042  X 000000 7010 00            717           ICCAL    ZIG$DBPR2,,CRER6     Find RS
   001043 (0)001151 7020 00
   001044    5 00006 2341 00
   001045    777776 6010 04
   001046    6 00000 2351 15           718         LDA     DEF,X5,PR6      GET DEFINITION                           <EHW>
   001047    002000 3750 07            719         ANA     .DUPC,DL        ARE DUPLICATES ALLOWED                   <EHW>
   001050 (0)001057 6000 00            720         TZE     CKIP            YES                                      <EHW>
   001051  X 000000 7010 00            721         DBCAL   ZIG$DBPCK,DUPCR,CFER5
   001052 (0)001151 7020 00
   001053    5 00006 2341 00
   001054    000003 6000 04
   001055    5 00006 4501 00
   001056 (0)001145 7020 00
   001057                              722  CKIP   NULL
   001057    7 00650 2341 00           723         SZN     IPCF,,PR7       HAS POINT BEEN FOUND
   001060 (0)001113 6010 00            724         TNZ     CKNC            YES
   001061    7 00511 2221 00           725         LDX     X2,RVO,,PR7     SET X2 TO REC VAR IN
   001062    7 00510 2231 00           726         LDX     X3,RVI,,PR7     SET X3 TO REC VAR IN
 12:50 09/05/97  FILE=ZIM$DBPU.:ZIC0TSI       FIND INSERT POINT IN CALC SET                              26   BMAP - B00
   001063    7 00000 2361 12           727         LDQ     DBKEY,X2,PR7    GET DBK OF NEXT REC
   001064    7 00000 1161 13           728         CMPQ    DBKEY,X3,PR7    IS GREATER THAN PRIOR REC
   001065 (0)001074 6020 00            729         TNC     WRPC            NO
   001066    7 00512 2211 00           730         LDX     X1,RVT,,PR7     SET X1 TO TEMP REC VAR
   001067    7 00000 1161 11           731         CMPQ    DBKEY,X1,PR7    IS NEXT GREATER THAN NEW REC
   001070 (0)001143 6000 00            732         TZE     CRER5           EQUAL - REC ALREADY IN CALC SET
   001071 (0)001113 6030 00            733         TRC     CKNC            YES
   001072    7 00647 7561 00           734         STQ     IPC,,PR7        NO - SAVE AS NEW INSERT POINT
   001073 (0)001113 7100 00            735         TRA     CKNC            GO CHECK NEXT REC
                                       736  *    WRAPAROUND - NEXT IS LESS THAN PRIOR
   001074                              737  WRPC   NULL
   001074    7 00512 2211 00           738         LDX     X1,RVT,,PR7     SET X1 TO TEMP REC VAR
   001075    7 00000 2361 11           739         LDQ     DBKEY,X1,PR7    GET DBK OF NEW REC
   001076    7 00646 1161 00           740         CMPQ    CHDBK,,PR7      IS IT LESS THAN DBK OF CALC HDR
   001077 (0)001102 6020 00            741         TNC     WRPC1           YES
   001100    7 00650 7501 00           742         STC2    IPCF,,PR7       NO - SET INSERT POINT FOUND
   001101 (0)001113 7100 00            743         TRA     CKNC            GO CHECK NEXT FOR DUPS
   001102                              744  WRPC1  NULL
   001102    7 00000 1161 12           745         CMPQ    DBKEY,X2,PR7    IS NEW DBK LESS THAN NEXT DBK
   001103 (0)001143 6000 00            746         TZE     CRER5           EQUAL - REC ALREADY IN SET
   001104 (0)001110 6020 00            747         TNC     WRPC2           YES
   001105    7 00000 2361 12           748         LDQ     DBKEY,X2,PR7    GET DBK OF NEXT
   001106    7 00647 7561 00           749         STQ     IPC,,PR7        SAVE AS NEW INSERT POINT
   001107 (0)001113 7100 00            750         TRA     CKNC            GO CHECK NEXT REC
   001110                              751  WRPC2  NULL
   001110    7 00000 2361 13           752         LDQ     DBKEY,X3,PR7    GET DBK OF PRIOR
   001111    7 00647 7561 00           753         STQ     IPC,,PR7        SAVE AS NEW INSERT POINT
   001112    7 00650 7501 00           754         STC2    IPCF,,PR7       SET INSERT POINT FOUND
                                       755  *    REVERSE REC VAR'S AND CHECK NEXT
   001113                              756  CKNC   NULL
   001113    7 00510 2371 00           757         LDAQ    RVI,,PR7        * REVERSE
   001114    7 00511 7551 00           758         STA     RVO,,PR7        *  IN & OUT REC VAR
   001115    7 00510 7561 00           759         STQ     RVI,,PR7        *
   001116 (0)001022 7100 00            760         TRA     ICL1            GO CHECK NEXT
                                       761  *
                                       762  *    NO DUPS PRESENT - RETRIEVE INSERT POINT REC
                                       763  *
 12:50 09/05/97  FILE=ZIM$DBPU.:ZIC0TSI       FIND INSERT POINT IN CALC SET                              27   BMAP - B00
   001117                              764  LMEMC  NULL
   001117    7 00510 2231 00           765         LDX     X3,RVI,,PR7     SET X3 TO REC VAR IN
   001120    7 00647 2361 00           766         LDQ     IPC,,PR7        GET DBK OF INSERT POINT
   001121    7 00000 7561 13           767         STQ     DBKEY,X3,PR7    PUT IN REC VAR
   001122  X 000000 7010 00            768           DBCAL    ZIG$DBPFD,,CRER3     FIND INSERT POINT REC
   001123 (0)001151 7020 00
   001124    5 00006 2341 00
   001125    777776 6010 04
   001126    7 00510 2231 00           769        LOCK    RVI
   001127 (0)001167 7010 00
   001130    000000 0020 00
   001131  X 000000 7010 00            770         DBCAL   ZIG$DBPNC,LMEM3,CRER4 FIND NEXT OF CALC
   001132 (0)000774 7020 00
   001133    5 00006 2341 00
   001134    000003 6000 04
   001135    5 00006 4501 00
   001136 (0)001137 7020 00
   001137                              771  LMEM3  NULL
   001137    7 00510 2231 00           772        UNLOCK  RVI
   001140 (0)001173 7010 00
   001141    000000 0020 00
                                       773  *  RETURN
   001142  X 000000 7020 00            774         DBRET
                                       775  *
                                       776  *  ERRORS DETECTED IN THIS PRIMITIVE
                                       777  *
   001143                              778  CRER5  NULL                    REC ALREADY IN CALC SET
   001143    017644 2350 07            779         LDA     RIM,DL
   001144 (0)001146 7100 00            780         TRA     GETSCRC
   001145                              781  DUPCR  NULL                    DUPLICATE CALC RECORD
   001145    011754 2350 07            782         LDA     DDI,DL
   001146                              783  GETSCRC NULL
   001146    7 00512 2211 00           784         LDX     X1,RVT,,PR7
   001147    6 00004 2261 00           785         LDX     X6,CLCSC+OAOFST,,PR6  GET SC
   001150    7 00006 2271 11           786         LDX     X7,RCPTR,X1,PR7  GET RC
                                       787  *
                                       788  *  ERRORS DETECTED IN SUBORDINATE PRIM. WHILE INPUT REC VAR IS LOCKED
 12:50 09/05/97  FILE=ZIM$DBPU.:ZIC0TSI       FIND INSERT POINT IN CALC SET                              28   BMAP - B00
                                       789  *
          (0)000000000774              790  CRER4  EQU     UNLOCKX        'find next' error
                                       791  *
                                       792  *  ERRORS DETECTED IN SUBORDINATE PRIMITIVES
                                       793  *
   001151                              794  CRER6  NULL                    find RS error
   001151                              795  PGER4  NULL                    PAGE ERROR
   001151                              796  CFER5  NULL                    COMPARE CALC KEYS ERROR
   001151                              797  CRER3  NULL                    PAGE ERROR
                                       798  *
                                       799  *  ERRORS DETECTED IN I/O ROUTINES
                                       800  *
          (0)000000001004              801  LKER8  EQU     NULSCRC        error locking buffer
          (0)000000001004              802  ULER8  EQU     NULSCRC        error unlocking buffer
                                       803  *  COMMON ERROR RETURN
   001151  X 000000 7020 00            804           DBALT

 12:50 09/05/97  FILE=ZIM$DBPU.:ZIC0TSI       IDS-II  PRIMITIVE - DELETE A RECORD                        29   BMAP - B00
                                       805         TTLS    IDS-II  PRIMITIVE - DELETE A RECORD
                                       806  *
                                       807  *  DELETE A RECORD
                                       808  *
                                       809  *  INPUT : INPUT REC VAR - DBK OF RECORD
                                       810  *                        - ADDRESS OF BUFFER
                                       811  *                        - ADDRESS OF RECORD
                                       812  *
                                       813  *  EXCEPTION RETURN-
                                       814  *    NONE
                                       815  *
   001152                              816  ZIG$DBPDR NULL
   001152  X 000000 7000 00            817         DBSAV                   SAVE RETURN ADDR
   001153    000004 000000
   001154    7 00510 2231 00           818         LDX     X3,RVI,,PR7     SET X3 TO INPUT REC VAR
   001155    7 00000 2361 13           819         LDQ     DBKEY,X3,PR7    GET DBK
   001156  X 000000 7010 00            820         ICCAL   ZIQ$DBIOD,,DLER1
   001157 (0)001163 7020 00
   001160    5 00006 2341 00
   001161    777776 6010 04
   001162  X 000000 7020 00            821         DBRET                   NORMAL RETURN
                                       822  *
                                       823  *  ERRORS DETECTED IN I/O ROUTINES
                                       824  *
   001163                              825  DLER1  NULL                    ERROR - DELETE REC
   001163    7 00510 2231 00           826         LDX     X3,RVI,,PR7
   001164    7 00006 2271 13           827         LDX     X7,RCPTR,X3,PR7  GET RC PTR
   001165    000000 6260 00            828         EAX     X6,0            NULL SC PTR
   001166  X 000000 7020 00            829           DBALT

 12:50 09/05/97  FILE=ZIM$DBPU.:ZIC0TSI       LOCK/UNLOCK/MODIFY A PAGE THRU REC VAR                     30   BMAP - B00
                                       830        TTLS    LOCK/UNLOCK/MODIFY A PAGE THRU REC VAR
                                       831  *
                                       832  *     INPUT:  $X3 - REC VAR INDEX
                                       833  *
                                       834  *     OUTPUT: PAGE LOCKED,UNLOCKED OR MODIFIED
                                       835  *             BLKD IN PCB FLAG SET AND RESET FOR LOCK AND UNLOCK
                                       836  *
                                       837  *     NO EXCEPTION RETURN
                                       838  *     NO ALTRETURN RETURN
                                       839  *
   001167                              840  ZIM$DBPLK NULL
   001167    7 00001 2361 13           841        LDQ     BADDR,X3,PR7        GET BUFFER ADDR
   001170    5 00022 7561 00           842        STQ     GIOBUF,,PR5         PASS GLOBAL.PARAM.IO.BUF$
   001171    7 00007 7501 13           843        STC2    BLKD,X3,PR7         SET BUF LOCKED FLAG
   001172  X 000000 7100 00            844        TRA     ZIO$LOCK            PASS TO PL6 DEFINED IN ZIM$BUFM
                                       845
   001173                              846  ZIM$DBPUL NULL
   001173    7 00001 2361 13           847        LDQ     BADDR,X3,PR7
   001174    5 00022 7561 00           848        STQ     GIOBUF,,PR5
   001175    7 00007 4501 13           849        STZ     BLKD,X3,PR7         RESET FLAG
   001176  X 000000 7100 00            850        TRA     ZIO$UNLOCK
                                       851
   001177                              852  ZIM$DBPMR NULL
   001177    7 00001 2361 13           853        LDQ     BADDR,X3,PR7
   001200    5 00022 7561 00           854        STQ     GIOBUF,,PR5
   001201  X 000000 7100 00            855        TRA     ZIO$MODIFY

 12:50 09/05/97  FILE=ZIM$DBPU.:ZIC0TSI       IDS-II PRIMITIVE - CHANGE RECORD SIZE                      31   BMAP - B00
                                       856         TTLS    IDS-II PRIMITIVE - CHANGE RECORD SIZE                    <EHW>
                                       857  *                                                                       <EHW>
                                       858  *  PRIMITIVE - CHANGE RECORD SIZE                                       <EHW>
                                       859  *                                                                       <EHW>
                                       860  *  INPUT:  TEMP REC VAR - OLD RECORD SIZE                               <EHW>
                                       861  *          VRSIZ - NEW RECORD SIZE
                                       862  *                                                                       <EHW>
                                       863  *  OUTPUT:
                                       864  *          SPACE AVAILABLE HAS BEEN UPDATED                             <EHW>
                                       865  *          OFFSETS IN LINE ARRAY HAVE BEEN UPDATED                      <EHW>
                                       866  *                                                                       <EHW>
                                       867  *  EXCEPTION RETURN:                                                    <EHW>
                                       868  *    RECORD SIZE MODIFICATION REQUIRES INVALID DBK CHANGE               <EHW>
                                       869  *                                                                       <EHW>
                                       870  *  ERROR RETURN:                                                        <EHW>
                                       871  *    CODE IN AR                                                         <EHW>
                                       872  *                                                                       <EHW>
                                       873  *                                                                       <EHW>
   001202                              874  ZIG$DBPCS NULL                                                          <EHW>
   001202  X 000000 7000 00            875         DBSAV                                                            <EHW>
   001203    000004 000000
                                       876  *  COMPARE OLD & NEW RECORD SIZE                                        <EHW>
   001204    7 00512 2221 00           877         LDX     X2,RVT,,PR7     GET TEMP REC VARIABLE                    <EHW>
   001205    7 01074 7211 00           878         LXL     X1,VRSIZ,,PR7   NEW RECORD SIZE                          <EHW>
   001206    7 00003 1011 12           879         CMPX    X1,RECSZ,X2,PR7  IS IT EQUAL TO OLD SIZE                  <EHW>
   001207 (0)001231 6000 00            880         TZE     CSRET           YES                                      <EHW>
   001210    7 00005 2211 12           881         LDX     X1,ACPTR,X2,PR7  AC PTR
   001211    7 01035 4411 00           882         SXL     X1,UPACD,,PR7   SAVE AC
                                       883  *  CALL I/O UPDATE MODULE                                               <EHW>
   001212    7 00002 4735 12           884         LDP     PR3,RADDR,X2,PR7  ADDRESS OF RECORD                        <EHW>
   001213    7 00001 4745 12           885         LDP     PR4,BADDR,X2,PR7  ADDRESS OF RECORD BUFFER                 <EHW>
   001214    7 00003 2351 12           886         LDA     RECSZ,X2,PR7                                             <EHW>
   001215    000022 7710 00            887         ARL     18              OLD RECORD SIZE                          <EHW>
   001216    7 01074 2361 00           888         LDQ     VRSIZ,,PR7                                               <EHW>
   001217    777777 3760 07            889         ANQ     -1,DL           NEW RECORD SIZE                          <EHW>
   001220  X 000000 7010 00            890         ICCAL   ZIQ$DBICS,CSEX2,CSER1 ADJUST PAGE                        <EHW>
   001221 (0)001234 7020 00
 12:50 09/05/97  FILE=ZIM$DBPU.:ZIC0TSI       IDS-II PRIMITIVE - CHANGE RECORD SIZE                      32   BMAP - B00
   001222    5 00006 2341 00
   001223    000003 6000 04
   001224    5 00006 4501 00
   001225 (0)001232 7020 00
                                       891  *  UPDATE RECORD HEADER TO REFLECT NEW RECORD SIZE                      <EHW>
   001226    7 00512 2221 00           892         LDX     X2,RVT,,PR7     REC VAR TEMP                             <EHW>
   001227    7 01074 7211 00           893         LXL     X1,VRSIZ,,PR7   NEW RECORD SIZE                          <EHW>
   001230    7 00003 7411 12           894         STX     X1,RECSZ,X2,PR7  * INTO RECORD VAR                        <EHW>
                                       895  *  RETURN                                                               <EHW>
   001231                              896  CSRET  NULL                                                             <EHW>
   001231  X 000000 7020 00            897         DBRET                   NORMAL RETURN                            <EHW>
                                       898  *  EXCEPTION RETURNS FROM SUBORDINATE ROUTINES                          <EHW>
   001232                              899  CSEX2  NULL                    INVALID DBK CHANGE REQUIRED              <EHW>
   001232    234522 2350 07            900           LDA      IVDBK,DL             INVALID DBKEY
   001233  X 000000 7020 00            901         DBEXC                                                            <EHW>
                                       902  *  ERRORS DETECTED IN SUBORDINATE ROUTINES                              <EHW>
   001234                              903  CSER1    NULL
   001234  X 000000 7020 00            904           DBALT

 12:50 09/05/97  FILE=ZIM$DBPU.:ZIC0TSI       Local subroutines                                          33   BMAP - B00
                                       905         TTLS    Local subroutines
                                       906  *
                                       907  *
                                       908  * MODSETNEW - Set NEW=RVT.DBKEY; set & mark modified BEF(RVI) & AFT(RVO)
   001235                              909  MODSETNEW NULL
   001235    7 00470 7411 56           910         ICSAV
   001236    7 00512 2221 00           911         LDX     X2,RVT,,PR7    RVT is to be 'NEW' rec variable
   001237    7 00000 2361 12           912         LDQ     DBKEY,X2,PR7   get DBK of new record variable
   001240    7 00634 7561 00           913         STQ     NEW,,PR7       set NEW to be RVT.DBKEY
   001241    7 00511 2221 00           914         LDX     X2,RVO,,PR7    set-up X2 (AFTER=RVO)
   001242    7 00000 2361 12           915         LDQ     DBKEY,X2,PR7   DBKEY of RVO variable
   001243    7 00635 7561 00           916         STQ     AFT,,PR7       set as 'AFTER' variable
   001244    7 00510 2231 00           917        LDX     X3,RVI,,PR7         SETUP X3 (BEFORE=RVI)
   001245    7 00000 2361 13           918        LDQ     DBKEY,X3,PR7
   001246    7 00633 7561 00           919        STQ     BEF,,PR7            SAVE
   001247 (0)001177 7010 00            920        DBCAL   ZIM$DBPMR,NOEXC,SMWE2
   001250 (0)001274 7020 00
   001251    7 00511 2231 00           921        LDX     X3,RVO,,PR7         SET AFTER IS MODIFIED
   001252 (0)001177 7010 00            922        DBCAL   ZIM$DBPMR,NOEXC,SMWE1
   001253 (0)001274 7020 00
   001254    7 00470 2211 54           923         ICRET
   001255    000001 7100 11
                                       924  *
                                       925  *
                                       926  * MODBEFAFT - Set before (RVT) & after (RVO) variables modified
   001256                              927  MODBEFAFT NULL
   001256    7 00470 7411 56           928         ICSAV
   001257    7 00511 2221 00           929         LDX     X2,RVO,,PR7    set-up X2 (AFTER=RVO)
   001260    7 00000 2361 12           930         LDQ     DBKEY,X2,PR7    GET DBK OF AFT REC
   001261    7 00635 7561 00           931         STQ     AFT,,PR7        SAVE
   001262    7 00512 2231 00           932        LDX     X3,RVT,,PR7         SETUP X3 (BEF=RVT)
   001263    7 00000 2361 13           933        LDQ     DBKEY,X3,PR7
   001264    7 00633 7561 00           934        STQ     BEF,,PR7
   001265 (0)001177 7010 00            935        DBCAL   ZIM$DBPMR,NOEXC,SMWE4
   001266 (0)001274 7020 00
   001267    7 00511 2231 00           936        LDX     X3,RVO,,PR7
   001270 (0)001177 7010 00            937        DBCAL   ZIM$DBPMR,NOEXC,SMWE3
 12:50 09/05/97  FILE=ZIM$DBPU.:ZIC0TSI       Local subroutines                                          34   BMAP - B00
   001271 (0)001274 7020 00
   001272    7 00470 2211 54           938         ICRET
   001273    000001 7100 11
                                       939  *
                                       940  *
                                       941  *   errors detected in I/O routines
                                       942  *
   001274                              943  SMWE1  NULL                   'must write' error - after record
   001274                              944  SMWE2  NULL                   'must write' error - before record
   001274                              945  SMWE3  NULL                   'must write' error - after record
   001274                              946  SMWE4  NULL                   'must write' error - before record
   001274  X 000000 7020 00            947           ICALT
                                       948         END

  CONTROL SECTION TABLE

   0 CODE   EVEN  001275
   1 RODATA EVEN  000000 LITERALS

 12:50 09/05/97  FILE=ZIM$DBPU.:ZIC0TSI       SYMBOL TABLE                                               35   BMAP - B00
 40000000 000000200000 .AC            *27
 40000000 000000000100 .AG            *27
 40000000 000000002000 .ALTO          *27
 40000000 000000000077 .ANL           *27
 40000000 000000200000 .APDN          *27
 41000000 000000000100 .ATMP          *27       231
 40000000 000000400000 .AV            *27
 41000000 000000400000 .B0            *27       222       351       470       503       693
 40000000 000000200000 .B1            *27
 40000000 000000000200 .B10           *27
 40000000 000000000100 .B11           *27
 40000000 000000000040 .B12           *27
 40000000 000000000020 .B13           *27
 40000000 000000000010 .B14           *27
 40000000 000000000004 .B15           *27
 40000000 000000000002 .B16           *27
 40000000 000000000001 .B17           *27
 40000000 000000400000 .B18           *27
 40000000 000000200000 .B19           *27
 41000000 000000100000 .B2            *27       263       531       711
 40000000 000000100000 .B20           *27
 40000000 000000040000 .B21           *27
 40000000 000000020000 .B22           *27
 40000000 000000010000 .B23           *27
 40000000 000000004000 .B24           *27
 40000000 000000002000 .B25           *27
 40000000 000000001000 .B26           *27
 40000000 000000000400 .B27           *27
 40000000 000000000200 .B28           *27
 40000000 000000000100 .B29           *27
 40000000 000000040000 .B3            *27
 40000000 000000000040 .B30           *27
 40000000 000000000020 .B31           *27
 40000000 000000000010 .B32           *27
 40000000 000000000004 .B33           *27
 40000000 000000000002 .B34           *27
 40000000 000000000001 .B35           *27
 12:50 09/05/97  FILE=ZIM$DBPU.:ZIC0TSI       SYMBOL TABLE                                               36   BMAP - B00
 40000000 000000020000 .B4            *27
 40000000 000000010000 .B5            *27
 40000000 000000004000 .B6            *27
 40000000 000000002000 .B7            *27
 40000000 000000001000 .B8            *27
 40000000 000000000400 .B9            *27
 40000000 000000000001 .BREAK         *27
 40000000 000000010000 .BRK           *27
 40000000 000000020000 .BTB           *27
 40000000 000000000001 .CAC           *27
 40000000 000000000000 .CAE           *27
 40000000 000000000200 .CANSSS        *27
 41000000 000000000400 .CD            *27       421       559
 40000000 000000040000 .CFLC          *27
 40000000 000000400000 .CHKSUM        *27
 40000000 000000100000 .CJRNL         *27
 40000000 000000000077 .CNSZ          *27
 40000000 000000160000 .COMC          *27
 41000000 000000000020 .CONT          *27       436       444
 40000000 000000000000 .CSE           *27
 40000000 000000700000 .CTYP          *27
 41000000 000000000270 .DBEST         *27
 41000000 000000000470 .DBIC          *27       910       923       928       938
 40000000 000000077777 .DBPT          *27
 41000000 000000000370 .DBSTK         *27
 40000000 000000020000 .DELM          *27
 40000000 000000002000 .DIDP          *27
 40000000 000000000077 .DNDX          *27
 41000000 000000600000 .DORD          *27       494
 40000000 000000000200 .DP            *27
 40000000 000000100000 .DPS           *27
 40000000 000000200000 .DPSA          *27
 40000000 000000400000 .DPST          *27
 40000000 000000000002 .DUMP          *27
 41000000 000000002000 .DUPC          *27       719
 41000000 000000010000 .DUPP          *27       249
 40000000 000000200000 .EBCL          *27
 12:50 09/05/97  FILE=ZIM$DBPU.:ZIC0TSI       SYMBOL TABLE                                               37   BMAP - B00
 40000000 000000400000 .EBCM          *27
 40000000 000000200000 .ENCRP         *27
 40000000 000000000077 .ENDX          *27
 40000000 000000000400 .ENQ           *27
 40000000 000000004000 .ETC           *27
 40000000 000000000400 .EXIT          *27
 40000000 000000000200 .FMOD          *27
 40000000 000000000077 .FNL           *27
 40000000 000000000074 .FORG          *27
 40000000 000000002000 .FR            *27
 40000000 000000000100 .FSR           *27
 40000000 000000003400 .FUSE          *27
 40000000 000000010000 .FVF           *27
 40000000 000000040000 .FVR           *27
 40000000 000000000010 .INDEXED       *27
 40000000 000000777777 .IXID          *27
 40000000 000000001777 .IXNUM         *27
 40000000 000000000004 .KEYED         *27
 40000000 000000010000 .LCK           *27
 40000000 000000400000 .LEIL          *27
 40000000 000000001000 .LG            *27
 40000000 000000000002 .LOAD          *27
 40000000 000000020000 .MAR           *27
 40000000 000000000007 .MEMT          *27
 40000000 000000010000 .MRL           *27
 40000000 000000040000 .MSM           *27
 60000000 000000000001 .N6685         *27
 40000000 000000100000 .NAI           *27
 40000000 000000200000 .NBI           *27
 40000000 000000000002 .NCIA          *27
 40000000 000000040000 .NMV           *27
 40000000 000000017777 .NOENT         *27
 40000000 000000400000 .OA            *27
 40000000 000000740000 .OPEV          *27
 40000000 000000100000 .OSM           *27
 40000000 000000100000 .PAFIL         *27
 40000000 000000200000 .PAHVR         *27
 12:50 09/05/97  FILE=ZIM$DBPU.:ZIC0TSI       SYMBOL TABLE                                               38   BMAP - B00
 40000000 000000000001 .PAIA          *27
 40000000 000000040000 .PALIL         *27
 40000000 000000020000 .PALVR         *27
 40000000 000000400000 .PANLL         *27
 40000000 000000400000 .PCKD          *27
 40000000 000000001600 .PMOD          *27
 41000000 000000000520 .PRCSE         *27       336
 40000000 000000000007 .PSTO          *27
 40000000 000000006040 .PTAS          *27
 40000000 000000010100 .PTCHK         *27
 40000000 000000010200 .PTDEC         *27
 40000000 000000010140 .PTENC         *27
 40000000 000000020000 .RA            *27
 40000000 000000100000 .RC            *27
 40000000 000000400000 .RELEASE       *27
 41000000 000000000017 .RELT          *27       273       423       561
 40000000 000000004000 .RERA          *27
 40000000 000000400000 .RERS          *27
 40000000 000000010000 .RKEY          *27
 40000000 000000000077 .RNL           *27
 40000000 000000200000 .RSTO          *27
 40000000 000000007777 .RTYP          *27
 40000000 000000040000 .SC            *27
 41000000 000000000070 .SETM          *27       362
 41000000 000000740000 .SETO          *27       298
 40000000 000000000700 .SETT          *27
 40000000 000000040000 .SFNP          *27
 40000000 000000004000 .SM            *27
 41000000 000000020000 .SMOD          *27       243
 40000000 000000000077 .SNL           *27
 40000000 000000020000 .SNSS          *27
 41000000 000000010000 .SO            *27       395
 40000000 000000100000 .SR            *27
 40000000 000000004000 .SRCR          *27
 40000000 000000001000 .SS            *27
 40000000 000000000007 .SSTP          *27
 40000000 000000004000 .SYN           *27
 12:50 09/05/97  FILE=ZIM$DBPU.:ZIC0TSI       SYMBOL TABLE                                               39   BMAP - B00
 40000000 000000000040 .SYNC          *27
 40000000 000000020000 .TJRNL         *27
 40000000 000000040000 .TMPLT         *27
 40000000 000000040000 .TRACE         *27
 40000000 000000000001 .TRENTRY       *27
 40000000 000000000012 .TRIDEL        *27
 40000000 000000000021 .TRIDELENQ     *27
 40000000 000000000024 .TRIDEQ        *27
 40000000 000000000013 .TRIMOD        *27
 40000000 000000000022 .TRIMODENQ     *27
 40000000 000000000014 .TRIREAD       *27
 40000000 000000000023 .TRIREADENQ    *27
 40000000 000000000011 .TRISTO        *27
 40000000 000000000020 .TRISTOENQ     *27
 40000000 000000000017 .TRPDEQ        *27
 40000000 000000000004 .TRPMOD        *27
 40000000 000000000016 .TRPMODENQ     *27
 40000000 000000000002 .TRPREAD       *27
 40000000 000000000015 .TRPREADENQ    *27
 40000000 000000000003 .TRPWRITE      *27
 40000000 000000000010 .TRRACC        *27
 40000000 000000000006 .TRRDEL        *27
 40000000 000000000007 .TRRMOD        *27
 40000000 000000000005 .TRRSTO        *27
 40000000 000000004000 .ULCK          *27
 40000000 000000400000 .UPDT          *27
 40000000 000000000040 .VIA           *27
 60000000 000000000001 A              *27
 40000000 000000000002 ABAS           *27
 40000000 000000000001 AC             *27
 40000000 777777777760 ACDEF          *27
 40000000 000000211070 ACDNL          *27
 40000000 000000000003 ACID           *27
 40000000 000000001016 ACOPN          *27
 40000000 000000000002 ACP            *27
 41000000 000000000005 ACPTR          *27        71       110       131       166       226       229
                                      597       881
 12:50 09/05/97  FILE=ZIM$DBPU.:ZIC0TSI       SYMBOL TABLE                                               40   BMAP - B00
 40000000 000000000002 ACRAH          *27
 40000000 000000000001 ACRAN          *27
 40000000 000000001003 ACREC          *27
 40000000 000000000001 ACTDBCB        *27
 40000000 000000000002 ACTDBNO        *27
 40000000 000000001017 ACTP           *27
 40000000 000000000000 ACTSSS         *27
 40000000 000000000000 ACTSZ          *27
 01101000 000000000752 AER1           232      *594
 40000000 000000210565 AFNP           *27
 41000000 000000000635 AFT            *27       916       931
 01101000 000000000344 AFTER          303      *327       337       339
 40000000 000000022124 AIR            *27
 40000000 000000000016 AMAX           *27
 40000000 000000000026 ANAM           *27
 40000000 000000021614 ANR            *27
 40000000 000000000001 APNO           *27
 40000000 000000210562 ARGER          *27
 41000000 000000000020 ARGS           *27
 40000000 000000000077 ARGS2          *27
 40000000 000000210713 ARNAF          *27
 40000000 000000000003 ATBL           *27
 40000000 000000000000 ATRIB          *27
 40000000 000000000002 AVLN           *27
 41000000 000000000013 AWS$           *27       150
 40000000 000000000010 AWSZ           *27
 60000000 000000000001 B              *27
 40000000 000000001006 B32N           *27
 40000000 000000001007 B36N           *27
 40000000 000000001056 B72N           *27
 41000000 000000000001 BADDR          *27       152       841       847       853       885
 40000000 000000210712 BADSEED        *27
 40000000 777777777765 BDCW           *27
 41000000 000000000633 BEF            *27       919       934
 01101000 000000000360 BEFOR          304      *335
 40000000 000000020000 BEFW           *27
 40000000 000000000751 BEMT           *27
 12:50 09/05/97  FILE=ZIM$DBPU.:ZIC0TSI       SYMBOL TABLE                                               41   BMAP - B00
 40000000 777777777761 BID            *27
 40000000 777777777762 BIND           *27
 41000000 000000000007 BLKD           *27       843       849
 40000000 000000303331 BME02          *27
 41000000 000000001203 BMPB           *27
 40000000 000000000652 BN1            *27
 40000000 000000000654 BN2            *27
 41000000 000000000004 BPL            *27        86       134
 40000000 000000000015 BPLDBK         *27
 40000000 000000000034 BSPG           *27
 40000000 777777777763 BSTAT          *27
 40000000 000000000750 BTX0           *27
 41000000 000000001160 BUF4           *27
 41000000 000000001170 BUF6           *27
 41000000 000000000000 BUFORG         *27
 40000000 000000001060 BUFRQ          *27
 40000000 000000000006 BURRID         *27
 41000000 000000000020 BWASZ          *27
 60000000 000000000001 C              *27
 40000000 000000000050 CAAC           *27
 40000000 000000000050 CACD           *27
 40000000 000000000111 CAG            *27
 40000000 000000001033 CAL            *27
 40000000 000000000026 CALLPM0        *27
 40000000 000000000003 CANSSS         *27
 40000000 000000000003 CBCPA          *27
 40000000 000000000002 CBCPO          *27
 40000000 000000000002 CBENO          *27
 40000000 000000000014 CBFSZ          *27
 40000000 000000000753 CBIB           *27
 40000000 000000001030 CBID           *27
 40000000 000000000014 CBRCE          *27
 40000000 000000000014 CBRCP          *27
 40000000 000000001033 CBRID          *27
 40000000 000000000015 CBRPA          *27
 40000000 000000000031 CCHAR          *27
 40000000 000000000040 CDBK           *27
 12:50 09/05/97  FILE=ZIM$DBPU.:ZIC0TSI       SYMBOL TABLE                                               42   BMAP - B00
 40000000 000000000030 CDES           *27
 40000000 000000000110 CDP            *27
 40000000 000000001044 CDPSI          *27
 40000000 000000000002 CDRH           *27
 40000000 000000000003 CDRN           *27
 41000000 000000000002 CDSH           *27       276       425       428       563       566
 40000000 000000000003 CDSN           *27
 40000000 000000000722 CENTRN         *27
 40000000 000000000722 CENTRO         *27
 40000000 000000000716 CENTRY         *27
 41000000 000000001053 CFCT           *27
 01101000 000000001003 CFE2           279      *641
 01101000 000000001003 CFER1          430      *643
 01101000 000000001151 CFER5          721      *796
 01101000 000000001003 CFER7          568      *644
 40000000 000000000670 CFLPT1         *27
 40000000 000000000672 CFLPT2         *27
 40000000 000000000015 CFSA           *27
 41000000 000000000646 CHDBK          *27       700       740
 40000000 000000000773 CHR            *27
 40000000 000000000006 CHRD           *27
 40000000 000000000772 CHRO           *27
 40000000 000000007640 CHRTP          *27
 40000000 000000001043 CIAC           *27
 40000000 000000000012 CIAWS          *27
 40000000 000000001051 CIBSI          *27
 41000000 000000000516 CIND           *27       431
 40000000 000000001041 CINVSZ         *27
 40000000 000000001042 CIPG           *27
 40000000 000000001050 CIPSI          *27
 40000000 000000000000 CIRUN          *27
 40000000 000000000002 CIRWS          *27
 40000000 000000000002 CISWS          *27
 40000000 000000000014 CIWSOF         *27
 01101000 000000000111 CKDP           113      *122
 01101000 000000001057 CKIP           712       715       720      *722
 01101000 000000001113 CKNC           724       733       735       743       750      *756
 12:50 09/05/97  FILE=ZIM$DBPU.:ZIC0TSI       SYMBOL TABLE                                               43   BMAP - B00
 01101000 000000000276 CKNR           261       264      *280
 01101000 000000000062 CKPG          *101       140
 01101000 000000000137 CKR            105       115      *141
 40000000 000000303374 CKSM           *27
 40000000 000000000022 CLCN           *27
 40000000 000000000023 CLCP           *27
 40000000 000000000003 CLCRC          *27
 41000000 000000000003 CLCSC          *27       220       716       785
 40000000 000000000237 CLI            *27
 40000000 000000000026 CLNG           *27
 40000000 000000000052 CMPL           *27
 40000000 000000000002 CN             *27
 40000000 000000303315 CNE1           *27
 01101000 000000000536 CNR            396       403       437       439      *448       466
 01101000 000000000544 CNR1          *453       482
 40000000 000000006034 CNUL           *27
 40000000 000000100000 COB74          *27
 40000000 000000000001 COFS           *27
 40000000 000000000045 CONCD          *27
 40000000 000000007764 CP6PGSZB       *27
 41000000 000000001775 CP6PGSZW       *27
 40000000 000000001000 CPGR           *27
 40000000 000000000723 CPTRN          *27
 40000000 000000000723 CPTRO          *27
 60000000 000000000004 CPW            *27
 40000000 000000000112 CRA            *27
 40000000 000000001004 CRD            *27
 40000000 000000000764 CREC           *27
 01101000 000000001151 CRER3          768      *797
 41101000 000000000774 CRER4          770      *790
 01101000 000000001143 CRER5          732       746      *778
 01101000 000000001151 CRER6          717      *794
 40000000 000000006344 CRIT           *27
 40000000 000000006200 CRNUL          *27
 40000000 000000007330 CRST           *27
 41000000 000000001223 CRUN           *27
 41000000 000000000000 CSECT          *27
 12:50 09/05/97  FILE=ZIM$DBPU.:ZIC0TSI       SYMBOL TABLE                                               44   BMAP - B00
 01101000 000000001234 CSER1          890      *903
 01101000 000000001232 CSEX2          890      *899
 40000000 000000000007 CSMPP          *27
 40000000 000000001000 CSPAC          *27
 40000000 000000000004 CSPAH          *27
 40000000 777777777776 CSPES          *27
 40000000 777777777776 CSPSB          *27
 01101000 000000001231 CSRET          880      *896
 40000000 000000000115 CSTS           *27
 40000000 000000000071 CSUB           *27
 40000000 000000000017 CSZ            *27
 41000000 000000000057 CTMASK         *27       713
 40000000 000000000774 CTPAI          *27
 40000000 000000000240 CURLN          *27
 40000000 000000000236 CURLT          *27
 40000000 000000000770 CURPG          *27
 40000000 000000000001 CURR           *27
 40000000 000000000035 CURRS          *27
 40000000 000000000037 CURSS          *27
 40000000 000000001005 CWRT           *27
 40000000 000000000237 CWSOF          *27
 60000000 000000000001 D              *27
 40000000 000000000003 DBAN           *27
 40000000 000000000036 DBDR           *27
 40000000 000000000037 DBFN           *27
 40000000 000000000754 DBK            *27
 40000000 000000000777 DBKAC          *27
 41000000 000000000000 DBKEY          *27        61       148       181       252       284       699
                                      727       728       731       739       745       748       752
                                      767       819       912       915       918       930       933
 40000000 000000000000 DBKL           *27
 40000000 000000007474 DBKN           *27
 41000000 000000000776 DBKR           *27
 41000000 000000000777 DBKRQ          *27        62        83       100       104       107       116
                                      132       139
 40000000 000000000234 DBKSI          *27
 41000000 000000000651 DBKSR          *27       253       285
 12:50 09/05/97  FILE=ZIM$DBPU.:ZIC0TSI       SYMBOL TABLE                                               45   BMAP - B00
 40000000 000000000047 DBKYN          *27
 40000000 000000210652 DBLC01         *27
 40000000 000000210653 DBLC05         *27
 40000000 000000303334 DBLC07         *27
 40000000 000000210655 DBLD01         *27
 41000000 000000000010 DBLIM          *27        85        90       133       137
 40000000 000000000033 DBPKY          *27
 40000000 000000000023 DBRN           *27
 40000000 000000000013 DBSN           *27
 40000000 000000000001 DBST           *27
 40000000 000000000757 DCDSR          *27
 40000000 000000210650 DCE1           *27
 40000000 000000001053 DCPR           *27
 40000000 000000001053 DCPW           *27
 40000000 000000000015 DCTBL          *27
 40000000 000000000032 DDBK           *27
 40000000 000000000006 DDCB           *27
 41000000 000000011754 DDI            *27       612       782
 41000000 000000000000 DEF            *27        54        74       227       230       242       248
                                      272       297       361       394       420       435       443
                                      493       558       718
 40000000 000000000014 DEF2           *27
 40000000 000000303413 DELAK          *27
 40000000 000000000036 DELRS          *27
 40000000 000000000732 DEPCW          *27
 01101000 000000000644 DFIR           497      *516
 01101000 000000000627 DIND           500      *507
 40000000 000000303414 DLDBK          *27
 40000000 000000210627 DLE1           *27
 40000000 000000303310 DLE2           *27
 40000000 000000210631 DLE3           *27
 01101000 000000001163 DLER1          820      *825
 01101000 000000000647 DLST           498      *521
 40000000 000000016040 DNES           *27
 40000000 777777777777 DPAGN          *27
 01101000 000000000660 DPALD          529      *533
 01101000 000000000710 DPL4          *551       562       568
 12:50 09/05/97  FILE=ZIM$DBPU.:ZIC0TSI       SYMBOL TABLE                                               46   BMAP - B00
 40000000 000000000020 DPPI           *27
 40000000 000000000053 DPSLW          *27
 40000000 000000000003 DS             *27
 40000000 000000001063 DSDES          *27
 40000000 000000303316 DSE1           *27
 01101000 000000000607 DUP            377       422      *487
 01101000 000000001145 DUPCR          721      *781
 01101000 000000000624 DUPE           499      *502
 01101000 000000000767 DUPER          532      *611
 01101000 000000000767 DUPKY          270      *610
 40000000 000000000735 DUSEPA         *27
 60000000 000000000001 E              *27
 40000000 000000303251 EDPER          *27
 40000000 000000000026 EEIND          *27
 40000000 000000000713 EFIND          *27
 40000000 000000001030 ELO            *27
 40000000 000000210711 ENCPNA         *27
 40000000 000000000007 ENCRP          *27
 40000000 000000000752 ENDSR          *27
 40000000 000000210647 ENE1           *27
 40000000 000000000716 ENIND          *27
 40000000 000000000013 ENTBL          *27
 40000000 000000000710 ENTNO          *27
 40000000 000000000712 ENTPTR         *27
 40000000 000000000717 ENTSZ          *27
 40000000 000000000711 ENTTYP         *27
 40000000 000000004064 EOSR           *27
 00101000 000000001006 ERRXIT        *665
 40000000 000000000004 ES             *27
 41000000 000000000100 ESTSZ          *27
 40000000 000000000725 ESZ            *27
 40000000 000000000005 ETCADR         *27
 40000000 000000000005 ETCDBNO        *27
 40000000 000000000064 EXCCD          *27
 40000000 000000234534 FALRT          *27
 40000000 000000001055 FBF72          *27
 40000000 000000001025 FBU61          *27
 12:50 09/05/97  FILE=ZIM$DBPU.:ZIC0TSI       SYMBOL TABLE                                               47   BMAP - B00
 40000000 000000001020 FBUF           *27
 40000000 000000001026 FBUF1          *27
 40000000 000000001027 FBUF4          *27
 40000000 000000001024 FBUF6          *27
 40000000 000000001022 FBUFM          *27
 40000000 000000001021 FBUFU          *27
 40000000 000000001023 FBUMD          *27
 40000000 000000000004 FCN            *27
 40000000 000000000051 FCNT           *27
 40000000 000000000002 FCP            *27
 40000000 000000000047 FCSS           *27
 40000000 000000000005 FD             *27
 40000000 000000210637 FDE1           *27
 40000000 000000303320 FDE2           *27
 40000000 000000303321 FDE3           *27
 40000000 000000210642 FDE4           *27
 40000000 000000210643 FDE5           *27
 40000000 000000210644 FDE6           *27
 40000000 000000303325 FDE7           *27
 40000000 000000303326 FDE8           *27
 40000000 000000000021 FEASZ          *27
 40000000 000000000740 FETM           *27
 40000000 000000000006 FI             *27
 40000000 000000000103 FIAC           *27
 41000000 000000001100 FIB1           *27
 41000000 000000001130 FIBP           *27
 40000000 000000000000 FIBX           *27
 40000000 000000000102 FICNT          *27
 41000000 000000000005 FIPN           *27       112
 01101000 000000001006 FIR1           600       606       616       633       646      *662
 01101000 000000000337 FIRST          301      *321
 40000000 000000000054 FKIND          *27
 40000000 000000000015 FLAGS          *27
 40000000 000000000244 FLDDSC         *27
 40000000 000000000046 FLDTL          *27
 40000000 000000000020 FMSBF          *27
 40000000 000000000006 FNAM           *27
 12:50 09/05/97  FILE=ZIM$DBPU.:ZIC0TSI       SYMBOL TABLE                                               48   BMAP - B00
 01101000 000000000774 FNER1          331      *620
 01101000 000000000774 FNER3          460      *621
 01101000 000000000774 FNER4          512      *622
 01101000 000000000774 FNER7          541      *623
 40000000 000000000250 FNIND          *27
 40000000 000000000004 FNL            *27
 01101000 000000001003 FPAER          368      *645
 01101000 000000000430 FPAEX          368      *378
 01101000 000000000737 FPT            333       458       476       514       541      *576
 01101000 000000000742 FPT1           382       569      *578
 40000000 000000000101 FRAC           *27
 41000000 000000000002 FRANGE         *27        55        75
 40000000 000000211400 FRDNL          *27
 40000000 000000200000 FRTRN          *27
 40000000 000000000005 FRWSO          *27
 40000000 000000000767 FSLN           *27
 40000000 000000000766 FSOF           *27
 01101000 000000000166 FSR1           169       177      *179
 40000000 000000000060 FTIND          *27
 40000000 000000303240 FTLINCR        *27
 40000000 000000000021 FWSSZ          *27
 40000000 000000000246 GACDK          *27
 40000000 000000000014 GDCB           *27
 41000000 000000000006 GERROR         *27        65       115       126       236       255       279
                                      331       368       372       387       430       460       512
                                      541       568       706       717       721       768       770
                                      820       890
 01101000 000000001146 GETSCRC        780      *783
 40000000 000000000016 GINHIB         *27
 41000000 000000000020 GIOAWS         *27       149
 41000000 000000000022 GIOBUF         *27       842       848       854
 40000000 000000000021 GIOPGNO        *27
 40000000 000000000015 GPAGE          *27
 40000000 000000000010 GRETAC         *27
 40000000 000000000011 GRETFR         *27
 40000000 000000000013 GRETRC         *27
 40000000 000000000012 GRETSC         *27
 12:50 09/05/97  FILE=ZIM$DBPU.:ZIC0TSI       SYMBOL TABLE                                               49   BMAP - B00
 40000000 000000000025 GRLCW          *27
 01101000 000000000434 GSCRS          364      *383
 40000000 000000000014 GSTCD          *27
 40000000 000000000007 GSYSERR        *27
 40000000 000000000010 GT             *27
 40000000 000000000046 GTRNAME        *27
 40000000 000000000055 GTRPDCB        *27
 40000000 000000000056 GTRPNO         *27
 40000000 000000000057 GTRRDBK        *27
 40000000 000000000060 GTRRTYPE       *27
 01101000 000000000447 GTRS5          385      *392
 40000000 000000000060 GTRTYPE        *27
 40000000 000000000027 HASH           *27
 40000000 000000000022 HIA            *27
 40000000 000000000775 HIDB           *27
 41000000 000000000003 HIGHDBK        *27        58        78
 40000000 000000000004 HIGHPG         *27
 40000000 000000001037 HIL            *27
 40000000 000000000002 HILN           *27
 40000000 000000000006 HPOS           *27
 40000000 000000000756 IAAC           *27
 40000000 000000001011 IACLN          *27
 40000000 000000001010 IALC           *27
 40000000 000000010314 IAN            *27
 40000000 000000001012 IANLN          *27
 40000000 000000000001 IASID          *26
 41000000 000000020320 ICA            *27       595
 40000000 000000000023 ICKSMP         *27
 40000000 000000000024 ICKSMV         *27
 01101000 000000001022 ICL1          *705       760
 40000000 000000210742 ICNR           *27
 41000000 000000000020 ICSIZ          *27
 40000000 000000010004 IDBK           *27
 40000000 000000012120 IDI            *27
 40000000 000000000023 IDS            *27
 40000000 000000000011 IF             *27
 40000000 000000000021 IFIPN          *27
 12:50 09/05/97  FILE=ZIM$DBPU.:ZIC0TSI       SYMBOL TABLE                                               50   BMAP - B00
 40000000 000000000000 IFR            *27
 40000000 000000234546 IKSEQ          *27
 01101000 000000000765 ILSO           306       308       309       310       311       312       313
                                      314       315       316      *607
 40000000 000000000113 INAFLAG        *27
 40000000 000000000016 INCHA          *27
 40000000 000000210566 INNM           *27
 40000000 000000210567 INSS           *27
 40000000 000000210575 INSST          *27
 40000000 000000303241 INTER          *27
 40000000 000000400000 INTII          *27
 40000000 000000000013 INTVL          *27
 40000000 000000001060 INVFLG         *27
 40000000 000000001043 INVOF          *27
 40000000 000000000014 INVT           *27
 40000000 000000000034 IOBLK          *27
 40000000 000000303354 IOCLSD         *27
 40000000 000000303355 IOCLSK         *27
 40000000 000000303257 IOE1           *27
 40000000 000000303264 IOE11          *27
 40000000 000000303265 IOE12          *27
 40000000 000000303266 IOE18          *27
 40000000 000000303260 IOE2           *27
 40000000 000000303261 IOE3           *27
 40000000 000000303262 IOE7           *27
 40000000 000000303263 IOE8           *27
 40000000 000000303363 IOFLSH         *27
 40000000 000000210676 IOGDCB         *27
 40000000 000000001002 IOINC          *27
 40000000 000000305160 IOINI          *27
 40000000 000000305155 IONOTIDS       *27
 40000000 000000305154 IONOTKEY       *27
 40000000 000000210677 IOOPND         *27
 40000000 000000210700 IOOPNK         *27
 40000000 000000303361 IORDD          *27
 40000000 000000305156 IOSCHEMA       *27
 40000000 000000001052 IOSTS          *27
 12:50 09/05/97  FILE=ZIM$DBPU.:ZIC0TSI       SYMBOL TABLE                                               51   BMAP - B00
 40000000 000000303362 IOWRTD         *27
 41000000 000000000750 IOWS           *27
 41000000 000000000647 IPC            *27       701       734       749       753       766
 41000000 000000000650 IPCF           *27       702       723       742       754
 01101000 000000000760 IRE1           244      *601
 40000000 000000000006 IROLLFLAG      *27
 40000000 000000010150 IRSN           *27
 40000000 000000000004 ISYSDCB        *27
 40000000 000000000005 ISYSERR        *27
 40000000 000000000061 ITPTR          *27
 40000000 000000000060 ITRS           *27
 40000000 000000021760 IUM            *27
 40000000 000000000017 IUSZ           *27
 41000000 000000234522 IVDBK          *27       900
 40000000 000000000011 IXBUF$         *27
 40000000 000000000046 IXFBSZ         *27
 40000000 777777777776 IXID           *27
 40000000 777777777777 IXPLL          *27
 40000000 000000000523 KCARG0         *27
 40000000 000000000524 KCARG3         *27
 40000000 000000000525 KCARG4         *27
 40000000 000000000700 KCREG          *27
 40000000 000000000006 KDCB           *27
 40000000 000000000666 KEYDS          *27
 40000000 000000000010 KEYPA          *27
 40000000 777777777776 KLNG           *27
 40000000 000000000022 KPASZ          *27
 40000000 000000000006 KWSZ           *27
 40000000 000000000052 LANGC          *27
 40000000 000000001014 LAS            *27
 01101000 000000000336 LAST           302      *318
 40000000 000000700000 LCODM          *27
 40000000 000000001045 LDPSI          *27
 40000000 000000001071 LINPT          *27
 00101000 000000001004 LKER3         *650
 00101000 000000001004 LKER5         *651
 00101000 000000001004 LKER6         *652
 12:50 09/05/97  FILE=ZIM$DBPU.:ZIC0TSI       SYMBOL TABLE                                               52   BMAP - B00
 00101000 000000001004 LKER7         *653
 40101000 000000001004 LKER8         *801
 01101000 000000000243 LM1            255      *256
 01101000 000000001137 LMEM3          770      *771
 01101000 000000001117 LMEMC          706      *764
 40000000 000000001017 LNCNT          *27
 40000000 000000000762 LNNO           *27
 40000000 000000001036 LOL            *27
 40000000 000000000715 LOLIM          *27
 01101000 000000000235 LP1           *254       286
 01101000 000000000255 LP2           *267       275       279
 40000000 000000000023 LPASZ          *27
 41000000 000000000012 LPP            *27        89       138
 40000000 000000257764 LR             *27
 40000000 000000301270 LRA            *27
 40000000 000000000017 LRSZ           *27
 40000000 000000001035 LSPC           *27
 40000000 000000000750 LUPD           *27
 61000000 000000000001 M9             *27
 40000000 000000000013 MD             *27
 40000000 000000300000 MDQS           *27
 40000000 000000000730 MEMPTR         *27
 40000000 000000000727 MEMTYP         *27
 00101000 000000001256 MODBEFAFT     *927
 40000000 000000000045 MODCD          *27
 41000000 000000001207 MODFL          *27
 40000000 000000000042 MODFR          *27
 40000000 000000000044 MODIN          *27
 40000000 000000000044 MODRS          *27
 40000000 000000000043 MODSC          *27
 00101000 000000001235 MODSETNEW     *909
 40000000 000000000047 MRBKI          *27
 40000000 000000210632 MRE4           *27
 40000000 000000303313 MRE5           *27
 40000000 000000210634 MRE7           *27
 40000000 000000400000 MW             *27
 40000000 000000000025 NCH            *27
 12:50 09/05/97  FILE=ZIM$DBPU.:ZIC0TSI       SYMBOL TABLE                                               53   BMAP - B00
 40000000 000000000002 NCHA           *27
 40000000 000000000005 NCHRS          *27
 40000000 000000000014 NDCD           *27
 01101000 000000000304 NDK            250      *287
 01101000 000000000643 NDN            512      *513
 40000000 000000000012 NENC           *27
 41000000 000000000634 NEW            *27       913
 40000000 000000001072 NEWSIZ         *27
 40000000 000000235164 NKA            *27
 40000000 000000235020 NKDB           *27
 40000000 000000303415 NLDBK          *27
 40000000 777777777777 NLIND          *27
 40000000 000000001040 NLN            *27
 40000000 000000400000 NLNSA          *27
 01101000 000000000357 NNP3           331      *332
 41000000 000000001053 NOBF           *27
 40000000 000000000711 NOPTRS         *27
 01101000 000000000747 NOTP           580      *584
 40000000 000000000742 NPARCW         *27
 40000000 000000000630 NPIND          *27
 40000000 000000000004 NPOS           *27
 01101000 000000000750 NPV            331       460       541      *588
 40000000 000000234510 NSA            *27
 40000000 000000234654 NSCS           *27
 40000000 000000234344 NSDB           *27
 01101000 000000000027 NSPBS           65       *68
 01101000 000000000123 NSPC           126      *128
 40000000 000000000001 NSTS           *27
 01101000 000000000710 NSWT           547      *550
 01101000 000000000570 NSWT1          463      *467
 01101000 000000000461 NSWT2          399       401      *404
 01101000 000000001005 NULRC          609      *660
 01101000 000000001004 NULSCRC       *658       801       802
 40000000 000000000726 NUMENT         *27
 40000000 000000000727 NUMPTR         *27
 40000000 777777777760 NXBUF          *27
 40000000 000000000713 NXPRI          *27
 12:50 09/05/97  FILE=ZIM$DBPU.:ZIC0TSI       SYMBOL TABLE                                               54   BMAP - B00
 40000000 000000000771 NXTC           *27
 01101000 000000000060 NXTR           *98       143
 40000000 000000000001 OAACN          *27
 40000000 000000000022 OACIWSOF       *27
 41000000 000000000001 OAOFST         *27       220       716       785
 40000000 000000000002 OARCN          *27
 40000000 000000000001 OASCN          *27
 40000000 000000000014 OD             *27
 40000000 000000000074 ODBK           *27
 40000000 000000001072 OLDSIZ         *27
 40000000 000000000101 OPADP          *27
 40000000 000000000741 OPARCW         *27
 40000000 000000210570 ORDNI          *27
 01101000 000000001003 ORER1          322      *642
 40000000 777777777777 OTVL           *27
 40000000 000000000252 OWNPTR         *27
 01101000 000000000577 P2             460      *475
 40000000 000000000016 PABUF          *27
 40000000 000000001041 PACD           *27
 40000000 000000000001 PACW           *27
 40000000 000000000733 PADBK          *27
 41000000 000000000740 PADUP          *27       354       489       518
 40000000 000000000745 PAEN           *27
 40000000 000000000745 PAEO           *27
 40000000 000000000734 PAEOF          *27
 40000000 000000303336 PAER1          *27
 40000000 000000303337 PAER2          *27
 40000000 000000303340 PAER3          *27
 40000000 000000303341 PAER4          *27
 40000000 000000303342 PAER5          *27
 40000000 000000303343 PAER6          *27
 40000000 000000000747 PAESZ          *27
 40000000 000000001060 PAFLG          *27
 40000000 000000000731 PAOPTR         *27
 40000000 000000000734 PAPOF          *27
 40000000 000000000714 PARCW          *27
 40000000 000000000726 PARVPA         *27
 12:50 09/05/97  FILE=ZIM$DBPU.:ZIC0TSI       SYMBOL TABLE                                               55   BMAP - B00
 40000000 000000000724 PASPLT         *27
 40000000 000000000004 PAWSZ          *27
 40000000 777777777762 PBUF           *27
 40000000 000000000020 PC             *27
 41000000 000000000510 PCB            *27
 41000000 000000000642 PCD            *27       266       268       271       409       417       419
                                      434       442       526       555       557
 41000000 000000000642 PCD2           *27       412       414       416       427       545       552
                                      554       565
 40000000 000000000247 PCEXI          *27
 40000000 000000000675 PCMIN          *27
 40000000 000000004541 PCOMP          *27
 40000000 000000000010 PD             *27
 40000000 000000000040 PE             *27
 40000000 000000000017 PENDING        *27
 01101000 000000001003 PER1           255      *640
 40000000 000000000004 PF             *27
 40000000 000000000400 PFG            *27
 01101000 000000001011 PFI            221      *692
 40000000 000000000200 PFM            *27
 40000000 000000000100 PFS            *27
 40000000 000000000400 PG             *27
 01101000 000000000163 PGER1           65       126      *173
 01101000 000000001151 PGER4          706      *795
 40000000 000000001064 PGHD           *27
 40000000 000000000006 PGLIM          *27
 41000000 000000000003 PGRNG          *27        60        73        80
 40000000 000000000746 PGSIZE         *27
 40000000 000000000641 PGSPLT         *27
 40000000 000000000100 PKAW           *27
 40000000 000000001034 PLO            *27
 40000000 000000000004 PLSEP          *27
 40000000 000000000200 PM             *27
 40000000 000000001054 PNEOO          *27
 40000000 000000001047 POFSI          *27
 40000000 000000000005 PPOS           *27
 40000000 000000000000 PR0            *26
 12:50 09/05/97  FILE=ZIM$DBPU.:ZIC0TSI       SYMBOL TABLE                                               56   BMAP - B00
 40000000 000000000001 PR1            *26
 40000000 000000000002 PR2            *26
 41000000 000000000003 PR3            *26       151       157       884
 41000000 000000000004 PR4            *26       152       885
 41000000 000000000005 PR5            *26        65       115       126       149       236       255
                                      279       331       368       372       387       430       460
                                      512       541       568       706       717       721       768
                                      770       820       842       848       854       890
 41000000 000000000006 PR6            *26        54        57        60        73        74        77
                                       80        85        86        89        90       111       133
                                      134       137       138       220       227       230       242
                                      248       269       272       276       297       361       394
                                      415       418       420       425       428       435       443
                                      493       553       556       558       563       566       604
                                      605       716       718       785
 41000000 000000000007 PR7            *26        50        51        52        53        58        61
                                       62        63        69        70        71        72        78
                                       81        82        83        84        91        93        94
                                       99       100       102       103       104       106       107
                                      108       109       110       112       116       117       118
                                      120       123       124       125       129       130       131
                                      132       139       142       147       148       150       151
                                      152       154       164       165       166       168       180
                                      181       219       223       225       226       228       229
                                      234       235       237       238       239       240       246
                                      247       251       252       253       257       258       259
                                      260       262       265       266       268       271       277
                                      278       281       282       283       284       285       289
                                      292       294       295       296       319       323       324
                                      325       328       329       336       338       344       347
                                      348       349       350       352       354       356       357
                                      365       366       367       369       370       371       373
                                      374       375       376       379       380       381       384
                                      386       388       389       390       391       393       398
                                      400       402       405       407       408       409       410
                                      411       412       414       416       417       419       426
                                      427       429       431       433       434       438       441
 12:50 09/05/97  FILE=ZIM$DBPU.:ZIC0TSI       SYMBOL TABLE                                               57   BMAP - B00
                                      442       446       449       450       451       452       454
                                      456       459       461       462       464       465       468
                                      471       473       475       478       480       481       489
                                      490       491       492       504       508       509       510
                                      511       518       519       524       525       526       527
                                      528       530       535       536       537       538       539
                                      542       543       544       545       546       548       552
                                      554       555       557       564       565       567       577
                                      579       581       582       583       596       597       598
                                      599       613       614       615       628       630       631
                                      694       698       699       700       701       702       704
                                      707       708       709       710       713       714       723
                                      725       726       727       728       730       731       734
                                      738       739       740       742       745       748       749
                                      752       753       754       757       758       759       765
                                      766       767       769       772       784       786       818
                                      819       826       827       841       843       847       849
                                      853       877       878       879       881       882       884
                                      885       886       888       892       893       894       910
                                      911       912       913       914       915       916       917
                                      918       919       921       923       928       929       930
                                      931       932       933       934       936       938
 40000000 000000303267 PRE1           *27
 40000000 000000303277 PRE10          *27
 40000000 000000303270 PRE3           *27
 40000000 000000303271 PRE4           *27
 40000000 000000303272 PRE5           *27
 40000000 000000210613 PRE6           *27
 40000000 000000210614 PRE7           *27
 40000000 000000210615 PRE8           *27
 41000000 000000303276 PRE9           *27       608
 40000000 000000000522 PREXC          *27
 41000000 000000000521 PRFR           *27       277       426       564
 41000000 000000000521 PRFR2          *27       278       429       567
 40000000 000000000000 PRIV           *27
 40000000 000000000526 PROPA          *27
 41000000 000000000517 PRRC           *27       223       694       704
 12:50 09/05/97  FILE=ZIM$DBPU.:ZIC0TSI       SYMBOL TABLE                                               58   BMAP - B00
 40000000 000000000517 PRRS           *27
 41000000 000000000520 PRSC           *27       219       296       357       369       598       614
 40000000 000000000516 PRSS           *27
 41000000 000000000644 PRSTS          *27        69       129       164       628       631
 40000000 000000000100 PS             *27
 41000000 000000000000 PS0SID         *26
 41000000 000000000001 PS1SID         *26
 41000000 000000000002 PS2SID         *26
 41000000 000000000003 PS3SID         *26
 41000000 000000000004 PS4SID         *26
 40000000 000000000005 PS5SID         *26
 40000000 000000000006 PS6SID         *26
 40000000 000000303416 PSA            *27
 40000000 000000000020 PSC            *27
 40000000 000000000010 PSD            *27
 40000000 000000000004 PSF            *27
 40000000 000000000400 PSO            *27
 40000000 000000000720 PTESZ          *27
 40000000 000000000631 PTR            *27
 40000000 000000000724 PTRESZ         *27
 40000000 000000000710 PTRNO          *27
 41000000 000000000630 PWS            *27
 41000000 000000000002 RADDR          *27       151       884
 40000000 000000000010 RADIX          *27
 41000000 000000000005 RAPTR          *27        53        72
 01101000 000000000014 RARNG1          56       *60
 01101000 000000000042 RARNG2          76       *80
 41000000 000000000004 RAWSOF         *27        57        77
 40000000 777777777766 RBA            *27
 41000000 000000023432 RCBI           *27       602
 40000000 000000211234 RCDNL          *27
 01101000 000000001003 RCER5          236      *637
 40000000 000000000005 RCFRH          *27
 40000000 000000000004 RCFRN          *27
 40000000 000000001075 RCHD           *27
 40000000 000000000001 RCID           *27
 41000000 000000000006 RCPTR          *27       168       238       258       260       295       374
 12:50 09/05/97  FILE=ZIM$DBPU.:ZIC0TSI       SYMBOL TABLE                                               59   BMAP - B00
                                      389       400       465       548       599       615       786
                                      827
 40000000 000000000002 RCRAH          *27
 40000000 000000000001 RCRAN          *27
 41000000 000000000003 RCRSH          *27       605
 40000000 000000000002 RCRSN          *27
 40000000 000000210667 RCVER1         *27
 40000000 000000210670 RCVER2         *27
 40000000 000000210671 RCVER4         *27
 40000000 000000210672 RCVER5         *27
 40000000 000000210673 RCVER6         *27
 40000000 000000000736 RCW1           *27
 40000000 000000000737 RCW2           *27
 40000000 000000000004 RCWSO          *27
 40000000 000000000077 RDAC           *27
 40000000 000000000076 RDCNT          *27
 40000000 000000040000 RDI            *27
 40000000 000000015674 RDLT           *27
 40000000 000000000075 RDYCW          *27
 40000000 000000000066 RECAC          *27
 40000000 000000000065 RECFR          *27
 40000000 000000000070 RECRC          *27
 40000000 000000000067 RECSC          *27
 41000000 000000000003 RECSZ          *27        51       879       886       894
 40000000 000000000235 REMLT          *27
 40000000 000000000062 REM_RECOVER    *27
 40000000 000000000251 RETFR          *27
 40000000 000000210724 RFDNL          *27
 41000000 000000017644 RIM            *27       779
 40000000 000000000005 RNAM           *27
 40000000 000000015706 RNDLT          *27
 41000000 000000000662 RNG1           *27        82        91
 41000000 000000000664 RNG2           *27        81        84
 40000000 000000000073 RNGD           *27
 40000000 000000000072 RNGO           *27
 41000000 000000000660 RNGTAL         *27        93        94        99       102       117       123
                                      142
 12:50 09/05/97  FILE=ZIM$DBPU.:ZIC0TSI       SYMBOL TABLE                                               60   BMAP - B00
 40000000 000000020154 RNM            *27
 40000000 000000000041 ROCUR          *27
 40000000 000000000001 ROFST          *27
 40000000 000000002114 ROLL           *27
 40000000 000000020010 RPM            *27
 40000000 000000000001 RSCDH          *27
 41000000 000000000001 RSCDN          *27       269       415       418       553       556
 40000000 000000211710 RSDNL          *27
 40000000 000000004540 RSEE           *27
 01101000 000000001003 RSER5          387      *638
 01101000 000000001003 RSER6          372      *639
 40000000 000000000003 RSIZ           *27
 40000000 000000000110 RSPAM          *27
 41000000 000000000004 RSPTR          *27       240       247       265       376       391       393
                                      408       411       492       525       544
 40000000 000000000037 RSREQ          *27
 40000000 000000000002 RSSSH          *27
 40000000 000000000001 RSSSN          *27
 40000000 000000210574 RSZER          *27
 40000000 000000000632 RSZTP          *27
 41000000 000000000003 RTP            *27       235       262       371       386       530       709
                                      710       714
 40000000 000000000003 RTYP           *27
 40000000 000000000530 RV1            *27
 40000000 000000000550 RV2            *27
 40000000 000000000570 RV3            *27
 40000000 000000000610 RV4            *27
 40000000 000000000003 RVASID         *26
 41000000 000000000510 RVI            *27       228       251       281       283       323       325
                                      328       347       349       365       367       379       381
                                      449       451       452       461       508       510       511
                                      535       537       538       542       577       581       583
                                      630       698       726       757       759       765       769
                                      772       818       826       917
 41000000 000000000511 RVO            *27       259       282       324       348       356       366
                                      370       373       380       388       410       450       464
                                      509       527       536       543       582       708       725
 12:50 09/05/97  FILE=ZIM$DBPU.:ZIC0TSI       SYMBOL TABLE                                               61   BMAP - B00
                                      758       914       921       929       936
 40000000 000000000513 RVPA           *27
 41000000 000000000512 RVT            *27        50        70       109       130       147       165
                                      180       225       234       237       246       257       294
                                      407       491       524       596       613       707       730
                                      738       784       877       892       911       932
 40000000 000000000022 RVTAL          *27
 40000000 000000000002 RWSZ           *27
 40000000 000000000015 RY             *27
 40000000 000000210620 RYE1           *27
 40000000 000000210621 RYE4           *27
 40000000 777777777767 SA             *27
 40000000 000000000005 SANAM          *27
 40000000 000000001062 SCDES          *27
 40000000 000000211544 SCDNL          *27
 40000000 000000000024 SCFC           *27
 40000000 000000000002 SCID           *27
 40000000 000000000024 SCLST          *27
 40000000 000000000004 SCNAM          *27
 41000000 000000000004 SCPTR          *27       239       375       384       390
 41000000 000000000003 SCRSH          *27       604
 40000000 000000000002 SCRSN          *27
 40000000 000000000001 SCWSO          *27
 40000000 000000001225 SFWS           *27
 01101000 000000000163 SIER1          115      *174
 40000000 000000001073 SIZCHG         *27
 41000000 000000000645 SKFLG          *27       352       456       459       471       481
 41000000 000000000643 SKIND          *27       289       319       329       338       350       433
                                      438       441       446       454       480       490       504
                                      519       528       539       579
 01101000 000000000471 SKL1          *413       424       430
 01101000 000000000463 SKL3          *406       469       474
 01101000 000000000660 SKL4          *534       549
 41000000 000000000641 SKTYP          *27       292       344       398       402       405       462
                                      468       473       475       478       546
 40000000 000000020464 SMCR           *27
 01101000 000000001274 SMWE1          922      *943
 12:50 09/05/97  FILE=ZIM$DBPU.:ZIC0TSI       SYMBOL TABLE                                               62   BMAP - B00
 01101000 000000001274 SMWE2          920      *944
 01101000 000000001274 SMWE3          937      *945
 01101000 000000001274 SMWE4          935      *946
 40000000 000000000003 SNAM           *27
 40000000 000000000107 SNIND          *27
 40000000 000000000735 SNPAE          *27
 40000000 000000001046 SNSI           *27
 40000000 000000000743 SOE            *27
 40000000 000000020630 SORSA          *27
 01101000 000000000365 SORT           305      *345
 01101000 000000000364 SORTT          307      *343
 40000000 000000004374 SOSE           *27
 40000000 000000000000 SPAV           *27
 40000000 000000000744 SPCAVN         *27
 40000000 000000000744 SPCAVO         *27
 01101000 000000000142 SPCFND          66       127      *146
 01101000 000000000155 SPGON          144      *163
 40000000 000000000765 SPLF           *27
 41000000 000000000765 SPND           *27
 40000000 000000000006 SSDT           *27
 40000000 000000303243 SSER           *27
 40000000 000000303244 SSER1          *27
 40000000 000000000002 SSH            *27
 40000000 000000000005 SSNAM          *27
 40000000 000000210573 SSNF           *27
 40000000 000000210576 SSNV           *27
 40000000 000000000020 SSSPTR         *27
 40000000 000000000010 SSVDT          *27
 40000000 000000000033 SSZTP          *27
 40000000 000000000017 ST             *27
 40000000 000000000104 STBIN          *27
 40000000 000000000105 STDEC          *27
 40000000 000000303302 STE1           *27
 40000000 000000303303 STE2           *27
 40000000 000000210624 STE3           *27
 40000000 000000303305 STE4           *27
 40000000 000000303306 STE5           *27
 12:50 09/05/97  FILE=ZIM$DBPU.:ZIC0TSI       SYMBOL TABLE                                               63   BMAP - B00
 41000000 000000000100 STKSIZ         *27
 40000000 000000000055 STMASK         *27
 40000000 000000000062 SUST           *27
 41000000 000000000020 SWS            *27
 40000000 000000000000 SWSAC          *27
 40000000 000000000002 SWSZ           *27
 40000000 000000000000 SYSSF          *27
 41000000 000000000765 SZREQ          *27        52        63       108       125       154
 01101000 000000000530 TBGT           432      *440
 40000000 000000000004 TBUF           *27
 40000000 000000001061 TCTRS          *27
 60000000 000000000000 TDS            *27
 41000000 000000000113 TEMP           *27
 40000000 000000000640 TFLD           *27
 40000000 000000000657 TFLD2          *27
 40000000 000000000056 TMASK          *27
 40000000 000000000061 TMODE          *27
 40000000 000000000676 TMPPA          *27
 40000000 000000000003 TPAI           *27
 40000000 000000500000 TPRCOD         *27
 40000000 000000001031 TSFN           *27
 40000000 000000000021 TSI            *27
 40000000 000000001013 UBRD2          *27
 41000000 000000001223 UBSZ           *27
 40000000 000000000667 UCADR          *27
 40000000 000000000036 UCRS           *27
 40000000 000000000024 UFSPK          *27
 40000000 000000000024 UFSPK2         *27
 00101000 000000001002 ULE99         *632
 00101000 000000001004 ULER5         *654
 00101000 000000001004 ULER7         *655
 40101000 000000001004 ULER8         *802
 00101000 000000001004 ULER9         *656
 40000000 000000000715 ULIM           *27
 40000000 000000004230 UNA            *27
 40000000 000000303417 UNIM           *27
 01101000 000000000774 UNLOCKX       *627       790
 12:50 09/05/97  FILE=ZIM$DBPU.:ZIC0TSI       SYMBOL TABLE                                               64   BMAP - B00
 40000000 000000000002 UOFST          *27
 41000000 000000001035 UPACD          *27       882
 40000000 000000000721 UPACW          *27
 40000000 000000000007 UPFLAG         *27
 40000000 000000000103 UPPAI          *27
 40000000 000000000004 UPTSID         *26
 40000000 000000000674 USTAT          *27
 40000000 000000000002 UWASID         *26
 40000000 000000000002 UWSSZ          *27
 40000000 000000000020 UWSZ           *27
 40000000 000000000243 VFDSC          *27
 40000000 000000001070 VFDSR          *27
 40000000 000000000656 VFLD           *27
 40000000 000000001074 VFLNG          *27
 40000000 000000001124 VIB1           *27
 40000000 000000001154 VIBP           *27
 40000000 000000000000 VLPSID         *26
 41000000 000000001074 VRSIZ          *27       878       888       893
 01101000 000000000647 WLKD           505      *523       560
 40000000 000000001067 WLOA           *27
 01101000 000000001074 WRPC           729      *737
 01101000 000000001102 WRPC1          741      *744
 01101000 000000001110 WRPC2          747      *751
 40000000 000000100000 WRTI           *27
 40000000 000000000000 WSBID          *27
 41000000 000000000003 WSOF           *27       111
 41000000 000000000000 X0             *26        71       110       131       166       226       229
                                      268       269       271       414       415       416       417
                                      418       419       427       434       442       552       553
                                      554       555       556       557       565       597       603
 41000000 000000000001 X1             *26        50        65        70        86       102       109
                                      115       117       123       126       130       134       147
                                      154       165       180       225       234       236       237
                                      242       243       246       255       257       272       273
                                      274       279       291       292       294       322       328
                                      331       336       353       354       361       362       363
                                      368       372       387       394       395       407       420
 12:50 09/05/97  FILE=ZIM$DBPU.:ZIC0TSI       SYMBOL TABLE                                               65   BMAP - B00
                                      421       423       430       431       435       436       443
                                      444       452       460       461       475       477       478
                                      488       489       491       511       512       517       518
                                      524       538       541       542       558       559       561
                                      568       577       596       613       630       703       704
                                      706       707       717       721       730       738       768
                                      769       770       772       784       820       878       879
                                      881       882       890       893       894       910       920
                                      922       923       928       935       937       938
 41000000 000000000002 X2             *26       259       356       370       373       388       410
                                      464       527       543       708       725       877       892
                                      911       914       929
 41000000 000000000003 X3             *26        54        55        57        74        75        77
                                      228       251       328       452       461       511       538
                                      542       577       630       698       726       765       769
                                      772       818       826       917       921       932       936
 41000000 000000000004 X4             *26        51        52        53        63        72       108
                                      125       276       277       278       425       426       428
                                      429       563       564       566       567
 41000000 000000000005 X5             *26       240       247       265       266       376       391
                                      393       408       409       411       412       492       525
                                      526       544       545
 41000000 000000000006 X6             *26       167       175       219       220       239       296
                                      357       369       375       384       390       598       604
                                      614       659       716       785       828
 03201020 000000000000 X66_ARET       *26       159       586       774       821       897
 03201019 000000000000 X66_AUTO_0     *26        49       217       691       817       875
 41000000 000000000007 X7             *26       111       168       176       238       258       260
                                      295       344       374       389       398       400       402
                                      462       465       468       473       546       548       599
                                      605       615       661       786       827
 40000000 000000210665 XASL           *27
 40000000 000000303420 XLD            *27
 40000000 000000303421 XPD            *27
 40000000 000000000676 XPRS           *27
 40000000 000000210666 XROLL          *27
 40000000 000000210664 XUNEX          *27
 12:50 09/05/97  FILE=ZIM$DBPU.:ZIC0TSI       SYMBOL TABLE                                               66   BMAP - B00
 40000000 777777777777 XXDPN          *27
 03201021 000000000000 ZIB$DBALT     *182      *666      *804      *829      *904
 03201022 000000000000 ZIB$DBALTR    *629
 03201023 000000000000 ZIB$DBEXC     *901
 03201024 000000000000 ZIB$ICALT     *947
 02201018 000000000000 ZIG$DBACE      *25
 02201015 000000000000 ZIG$DBADE      *22
 03201016 000000000000 ZIG$DBAFE      *23       368
 02201017 000000000000 ZIG$DBAIS      *24
 03201005 000000000000 ZIG$DBPCF      *17       279       430       568
 03201006 000000000000 ZIG$DBPCK      *17       721
 12101000 000000001202 ZIG$DBPCS       15      *874
 12101000 000000001152 ZIG$DBPDR       11      *816
 03201004 000000000000 ZIG$DBPFD      *17       768
 12101000 000000000171 ZIG$DBPFI       13      *216
 03201000 000000000000 ZIG$DBPFN      *16       255       512       589
 03201003 000000000000 ZIG$DBPFO      *17       322
 03201001 000000000000 ZIG$DBPFP      *16       590
 12101000 000000000000 ZIG$DBPFS       10       *48
 12101000 000000001007 ZIG$DBPIC       12      *690
 03201002 000000000000 ZIG$DBPNC      *16       706       770
 03201007 000000000000 ZIG$DBPR2      *18       236       372       387       717
 13101000 000000001167 ZIM$DBPLK       14       328       452       511       538       769      *840
 13101000 000000001177 ZIM$DBPMR       14      *852       920       922       935       937
 13101000 000000001173 ZIM$DBPUL       14       461       542       577       630       772      *846
 03201010 000000000000 ZIO$LOCK       *20       844
 03201012 000000000000 ZIO$MODIFY     *20       855
 03201011 000000000000 ZIO$UNLOCK     *20       850
 03201014 000000000000 ZIQ$DBICS      *21       890
 03201009 000000000000 ZIQ$DBIOD      *19       820
 03201008 000000000000 ZIQ$DBIOS      *19        65       126
 03201013 000000000000 ZIQ$DBISI      *21       115

    1064 SYMBOLS

 12:50 09/05/97  FILE=ZIM$DBPU.:ZIC0TSI       MACRO TABLE                                                67   BMAP - B00
 CBSYM           27
 DBALT          182       629       666       804       829       904
 DBCAL           65       115       126       236       255       279       322       328       331
                368       372       387       430       452       460       511       512       538
                541       568       706       717       721       768       769       770       820
                890       920       922       935       937
 DBEXC          901
 DBRET          159       586       774       821       897
 DBSAV           49       217       691       817       875
 ICALT          947
 ICCAL           65       115       126       236       372       387       717       820       890
 ICRET          923       938
 ICSAV          910       928
 LOCK           328       452       511       538       769
 Q2SYM           27
 SSSYM           27
 UNLOCK         461       542       577       630       772

      37 MACROS

    SYMBOL SPACE USED 12429 WORDS
     MACRO SPACE USED 13057 WORDS
   INPUT RECORDS READ  3698
 STATEMENTS PROCESSED  3425
         ELAPSED TIME  0:18.24
             CPU TIME    17.55 SEC.
        ASSEMBLY RATE 11709 STATEMENTS/CPU MIN.

      NO ERRORS

